{
  "_format": "hh-sol-artifact-1",
  "contractName": "OrionTransparentVault",
  "sourceName": "contracts/OrionTransparentVault.sol",
  "abi": [
    {
      "inputs": [
        {
          "internalType": "address",
          "name": "target",
          "type": "address"
        }
      ],
      "name": "AddressEmptyCode",
      "type": "error"
    },
    {
      "inputs": [
        {
          "internalType": "address",
          "name": "asset",
          "type": "address"
        }
      ],
      "name": "AmountMustBeGreaterThanZero",
      "type": "error"
    },
    {
      "inputs": [
        {
          "internalType": "address",
          "name": "implementation",
          "type": "address"
        }
      ],
      "name": "ERC1967InvalidImplementation",
      "type": "error"
    },
    {
      "inputs": [],
      "name": "ERC1967NonPayable",
      "type": "error"
    },
    {
      "inputs": [
        {
          "internalType": "address",
          "name": "spender",
          "type": "address"
        },
        {
          "internalType": "uint256",
          "name": "allowance",
          "type": "uint256"
        },
        {
          "internalType": "uint256",
          "name": "needed",
          "type": "uint256"
        }
      ],
      "name": "ERC20InsufficientAllowance",
      "type": "error"
    },
    {
      "inputs": [
        {
          "internalType": "address",
          "name": "sender",
          "type": "address"
        },
        {
          "internalType": "uint256",
          "name": "balance",
          "type": "uint256"
        },
        {
          "internalType": "uint256",
          "name": "needed",
          "type": "uint256"
        }
      ],
      "name": "ERC20InsufficientBalance",
      "type": "error"
    },
    {
      "inputs": [
        {
          "internalType": "address",
          "name": "approver",
          "type": "address"
        }
      ],
      "name": "ERC20InvalidApprover",
      "type": "error"
    },
    {
      "inputs": [
        {
          "internalType": "address",
          "name": "receiver",
          "type": "address"
        }
      ],
      "name": "ERC20InvalidReceiver",
      "type": "error"
    },
    {
      "inputs": [
        {
          "internalType": "address",
          "name": "sender",
          "type": "address"
        }
      ],
      "name": "ERC20InvalidSender",
      "type": "error"
    },
    {
      "inputs": [
        {
          "internalType": "address",
          "name": "spender",
          "type": "address"
        }
      ],
      "name": "ERC20InvalidSpender",
      "type": "error"
    },
    {
      "inputs": [
        {
          "internalType": "address",
          "name": "receiver",
          "type": "address"
        },
        {
          "internalType": "uint256",
          "name": "assets",
          "type": "uint256"
        },
        {
          "internalType": "uint256",
          "name": "max",
          "type": "uint256"
        }
      ],
      "name": "ERC4626ExceededMaxDeposit",
      "type": "error"
    },
    {
      "inputs": [
        {
          "internalType": "address",
          "name": "receiver",
          "type": "address"
        },
        {
          "internalType": "uint256",
          "name": "shares",
          "type": "uint256"
        },
        {
          "internalType": "uint256",
          "name": "max",
          "type": "uint256"
        }
      ],
      "name": "ERC4626ExceededMaxMint",
      "type": "error"
    },
    {
      "inputs": [
        {
          "internalType": "address",
          "name": "owner",
          "type": "address"
        },
        {
          "internalType": "uint256",
          "name": "shares",
          "type": "uint256"
        },
        {
          "internalType": "uint256",
          "name": "max",
          "type": "uint256"
        }
      ],
      "name": "ERC4626ExceededMaxRedeem",
      "type": "error"
    },
    {
      "inputs": [
        {
          "internalType": "address",
          "name": "owner",
          "type": "address"
        },
        {
          "internalType": "uint256",
          "name": "assets",
          "type": "uint256"
        },
        {
          "internalType": "uint256",
          "name": "max",
          "type": "uint256"
        }
      ],
      "name": "ERC4626ExceededMaxWithdraw",
      "type": "error"
    },
    {
      "inputs": [],
      "name": "FailedCall",
      "type": "error"
    },
    {
      "inputs": [],
      "name": "InvalidConfigAddress",
      "type": "error"
    },
    {
      "inputs": [],
      "name": "InvalidCuratorAddress",
      "type": "error"
    },
    {
      "inputs": [],
      "name": "InvalidInitialization",
      "type": "error"
    },
    {
      "inputs": [],
      "name": "InvalidTotalAmount",
      "type": "error"
    },
    {
      "inputs": [],
      "name": "NotCurator",
      "type": "error"
    },
    {
      "inputs": [],
      "name": "NotEnoughDepositRequest",
      "type": "error"
    },
    {
      "inputs": [],
      "name": "NotEnoughShares",
      "type": "error"
    },
    {
      "inputs": [],
      "name": "NotInitializing",
      "type": "error"
    },
    {
      "inputs": [],
      "name": "NotInternalStatesOrchestrator",
      "type": "error"
    },
    {
      "inputs": [],
      "name": "NotLiquidityOrchestrator",
      "type": "error"
    },
    {
      "inputs": [],
      "name": "OrderIntentCannotBeEmpty",
      "type": "error"
    },
    {
      "inputs": [
        {
          "internalType": "address",
          "name": "owner",
          "type": "address"
        }
      ],
      "name": "OwnableInvalidOwner",
      "type": "error"
    },
    {
      "inputs": [
        {
          "internalType": "address",
          "name": "account",
          "type": "address"
        }
      ],
      "name": "OwnableUnauthorizedAccount",
      "type": "error"
    },
    {
      "inputs": [],
      "name": "ReentrancyGuardReentrantCall",
      "type": "error"
    },
    {
      "inputs": [],
      "name": "SharesMustBeGreaterThanZero",
      "type": "error"
    },
    {
      "inputs": [],
      "name": "SynchronousDepositsDisabled",
      "type": "error"
    },
    {
      "inputs": [],
      "name": "SynchronousRedemptionsDisabled",
      "type": "error"
    },
    {
      "inputs": [],
      "name": "SynchronousWithdrawalsDisabled",
      "type": "error"
    },
    {
      "inputs": [
        {
          "internalType": "address",
          "name": "token",
          "type": "address"
        }
      ],
      "name": "TokenAlreadyInOrder",
      "type": "error"
    },
    {
      "inputs": [
        {
          "internalType": "address",
          "name": "token",
          "type": "address"
        }
      ],
      "name": "TokenNotWhitelisted",
      "type": "error"
    },
    {
      "inputs": [],
      "name": "TransferFailed",
      "type": "error"
    },
    {
      "inputs": [],
      "name": "UUPSUnauthorizedCallContext",
      "type": "error"
    },
    {
      "inputs": [
        {
          "internalType": "bytes32",
          "name": "slot",
          "type": "bytes32"
        }
      ],
      "name": "UUPSUnsupportedProxiableUUID",
      "type": "error"
    },
    {
      "inputs": [],
      "name": "ZeroPrice",
      "type": "error"
    },
    {
      "anonymous": false,
      "inputs": [
        {
          "indexed": true,
          "internalType": "address",
          "name": "owner",
          "type": "address"
        },
        {
          "indexed": true,
          "internalType": "address",
          "name": "spender",
          "type": "address"
        },
        {
          "indexed": false,
          "internalType": "uint256",
          "name": "value",
          "type": "uint256"
        }
      ],
      "name": "Approval",
      "type": "event"
    },
    {
      "anonymous": false,
      "inputs": [
        {
          "indexed": true,
          "internalType": "address",
          "name": "sender",
          "type": "address"
        },
        {
          "indexed": true,
          "internalType": "address",
          "name": "owner",
          "type": "address"
        },
        {
          "indexed": false,
          "internalType": "uint256",
          "name": "assets",
          "type": "uint256"
        },
        {
          "indexed": false,
          "internalType": "uint256",
          "name": "shares",
          "type": "uint256"
        }
      ],
      "name": "Deposit",
      "type": "event"
    },
    {
      "anonymous": false,
      "inputs": [
        {
          "indexed": true,
          "internalType": "address",
          "name": "user",
          "type": "address"
        },
        {
          "indexed": false,
          "internalType": "uint256",
          "name": "amount",
          "type": "uint256"
        },
        {
          "indexed": false,
          "internalType": "uint256",
          "name": "requestId",
          "type": "uint256"
        }
      ],
      "name": "DepositProcessed",
      "type": "event"
    },
    {
      "anonymous": false,
      "inputs": [
        {
          "indexed": true,
          "internalType": "address",
          "name": "user",
          "type": "address"
        },
        {
          "indexed": false,
          "internalType": "uint256",
          "name": "amount",
          "type": "uint256"
        },
        {
          "indexed": false,
          "internalType": "uint256",
          "name": "requestId",
          "type": "uint256"
        }
      ],
      "name": "DepositRequestWithdrawn",
      "type": "event"
    },
    {
      "anonymous": false,
      "inputs": [
        {
          "indexed": true,
          "internalType": "address",
          "name": "user",
          "type": "address"
        },
        {
          "indexed": false,
          "internalType": "uint256",
          "name": "amount",
          "type": "uint256"
        },
        {
          "indexed": false,
          "internalType": "uint256",
          "name": "requestId",
          "type": "uint256"
        }
      ],
      "name": "DepositRequested",
      "type": "event"
    },
    {
      "anonymous": false,
      "inputs": [
        {
          "indexed": false,
          "internalType": "uint64",
          "name": "version",
          "type": "uint64"
        }
      ],
      "name": "Initialized",
      "type": "event"
    },
    {
      "anonymous": false,
      "inputs": [
        {
          "indexed": true,
          "internalType": "address",
          "name": "curator",
          "type": "address"
        }
      ],
      "name": "OrderSubmitted",
      "type": "event"
    },
    {
      "anonymous": false,
      "inputs": [
        {
          "indexed": true,
          "internalType": "address",
          "name": "previousOwner",
          "type": "address"
        },
        {
          "indexed": true,
          "internalType": "address",
          "name": "newOwner",
          "type": "address"
        }
      ],
      "name": "OwnershipTransferStarted",
      "type": "event"
    },
    {
      "anonymous": false,
      "inputs": [
        {
          "indexed": true,
          "internalType": "address",
          "name": "previousOwner",
          "type": "address"
        },
        {
          "indexed": true,
          "internalType": "address",
          "name": "newOwner",
          "type": "address"
        }
      ],
      "name": "OwnershipTransferred",
      "type": "event"
    },
    {
      "anonymous": false,
      "inputs": [
        {
          "indexed": true,
          "internalType": "address",
          "name": "from",
          "type": "address"
        },
        {
          "indexed": true,
          "internalType": "address",
          "name": "to",
          "type": "address"
        },
        {
          "indexed": false,
          "internalType": "uint256",
          "name": "value",
          "type": "uint256"
        }
      ],
      "name": "Transfer",
      "type": "event"
    },
    {
      "anonymous": false,
      "inputs": [
        {
          "indexed": true,
          "internalType": "address",
          "name": "implementation",
          "type": "address"
        }
      ],
      "name": "Upgraded",
      "type": "event"
    },
    {
      "anonymous": false,
      "inputs": [
        {
          "indexed": false,
          "internalType": "uint256",
          "name": "newSharePrice",
          "type": "uint256"
        },
        {
          "indexed": false,
          "internalType": "uint256",
          "name": "newTotalAssets",
          "type": "uint256"
        }
      ],
      "name": "VaultStateUpdated",
      "type": "event"
    },
    {
      "anonymous": false,
      "inputs": [
        {
          "indexed": true,
          "internalType": "address",
          "name": "sender",
          "type": "address"
        },
        {
          "indexed": true,
          "internalType": "address",
          "name": "receiver",
          "type": "address"
        },
        {
          "indexed": true,
          "internalType": "address",
          "name": "owner",
          "type": "address"
        },
        {
          "indexed": false,
          "internalType": "uint256",
          "name": "assets",
          "type": "uint256"
        },
        {
          "indexed": false,
          "internalType": "uint256",
          "name": "shares",
          "type": "uint256"
        }
      ],
      "name": "Withdraw",
      "type": "event"
    },
    {
      "anonymous": false,
      "inputs": [
        {
          "indexed": true,
          "internalType": "address",
          "name": "user",
          "type": "address"
        },
        {
          "indexed": false,
          "internalType": "uint256",
          "name": "shares",
          "type": "uint256"
        },
        {
          "indexed": false,
          "internalType": "uint256",
          "name": "requestId",
          "type": "uint256"
        }
      ],
      "name": "WithdrawProcessed",
      "type": "event"
    },
    {
      "anonymous": false,
      "inputs": [
        {
          "indexed": true,
          "internalType": "address",
          "name": "user",
          "type": "address"
        },
        {
          "indexed": false,
          "internalType": "uint256",
          "name": "shares",
          "type": "uint256"
        },
        {
          "indexed": false,
          "internalType": "uint256",
          "name": "requestId",
          "type": "uint256"
        }
      ],
      "name": "WithdrawRequested",
      "type": "event"
    },
    {
      "inputs": [],
      "name": "UPGRADE_INTERFACE_VERSION",
      "outputs": [
        {
          "internalType": "string",
          "name": "",
          "type": "string"
        }
      ],
      "stateMutability": "view",
      "type": "function"
    },
    {
      "inputs": [],
      "name": "acceptOwnership",
      "outputs": [],
      "stateMutability": "nonpayable",
      "type": "function"
    },
    {
      "inputs": [
        {
          "internalType": "address",
          "name": "owner",
          "type": "address"
        },
        {
          "internalType": "address",
          "name": "spender",
          "type": "address"
        }
      ],
      "name": "allowance",
      "outputs": [
        {
          "internalType": "uint256",
          "name": "",
          "type": "uint256"
        }
      ],
      "stateMutability": "view",
      "type": "function"
    },
    {
      "inputs": [
        {
          "internalType": "address",
          "name": "spender",
          "type": "address"
        },
        {
          "internalType": "uint256",
          "name": "value",
          "type": "uint256"
        }
      ],
      "name": "approve",
      "outputs": [
        {
          "internalType": "bool",
          "name": "",
          "type": "bool"
        }
      ],
      "stateMutability": "nonpayable",
      "type": "function"
    },
    {
      "inputs": [],
      "name": "asset",
      "outputs": [
        {
          "internalType": "address",
          "name": "",
          "type": "address"
        }
      ],
      "stateMutability": "view",
      "type": "function"
    },
    {
      "inputs": [
        {
          "internalType": "address",
          "name": "account",
          "type": "address"
        }
      ],
      "name": "balanceOf",
      "outputs": [
        {
          "internalType": "uint256",
          "name": "",
          "type": "uint256"
        }
      ],
      "stateMutability": "view",
      "type": "function"
    },
    {
      "inputs": [],
      "name": "config",
      "outputs": [
        {
          "internalType": "contract IOrionConfig",
          "name": "",
          "type": "address"
        }
      ],
      "stateMutability": "view",
      "type": "function"
    },
    {
      "inputs": [
        {
          "internalType": "uint256",
          "name": "shares",
          "type": "uint256"
        }
      ],
      "name": "convertToAssets",
      "outputs": [
        {
          "internalType": "uint256",
          "name": "",
          "type": "uint256"
        }
      ],
      "stateMutability": "view",
      "type": "function"
    },
    {
      "inputs": [
        {
          "internalType": "uint256",
          "name": "assets",
          "type": "uint256"
        }
      ],
      "name": "convertToShares",
      "outputs": [
        {
          "internalType": "uint256",
          "name": "",
          "type": "uint256"
        }
      ],
      "stateMutability": "view",
      "type": "function"
    },
    {
      "inputs": [],
      "name": "curator",
      "outputs": [
        {
          "internalType": "address",
          "name": "",
          "type": "address"
        }
      ],
      "stateMutability": "view",
      "type": "function"
    },
    {
      "inputs": [],
      "name": "decimals",
      "outputs": [
        {
          "internalType": "uint8",
          "name": "",
          "type": "uint8"
        }
      ],
      "stateMutability": "view",
      "type": "function"
    },
    {
      "inputs": [],
      "name": "deployer",
      "outputs": [
        {
          "internalType": "address",
          "name": "",
          "type": "address"
        }
      ],
      "stateMutability": "view",
      "type": "function"
    },
    {
      "inputs": [
        {
          "internalType": "uint256",
          "name": "",
          "type": "uint256"
        },
        {
          "internalType": "address",
          "name": "",
          "type": "address"
        }
      ],
      "name": "deposit",
      "outputs": [
        {
          "internalType": "uint256",
          "name": "",
          "type": "uint256"
        }
      ],
      "stateMutability": "pure",
      "type": "function"
    },
    {
      "inputs": [],
      "name": "getPendingDeposits",
      "outputs": [
        {
          "internalType": "uint256",
          "name": "",
          "type": "uint256"
        }
      ],
      "stateMutability": "view",
      "type": "function"
    },
    {
      "inputs": [],
      "name": "getPendingWithdrawals",
      "outputs": [
        {
          "internalType": "uint256",
          "name": "",
          "type": "uint256"
        }
      ],
      "stateMutability": "view",
      "type": "function"
    },
    {
      "inputs": [
        {
          "internalType": "address",
          "name": "curatorAddress",
          "type": "address"
        },
        {
          "internalType": "contract IOrionConfig",
          "name": "configAddress",
          "type": "address"
        },
        {
          "internalType": "string",
          "name": "name",
          "type": "string"
        },
        {
          "internalType": "string",
          "name": "symbol",
          "type": "string"
        }
      ],
      "name": "initialize",
      "outputs": [],
      "stateMutability": "nonpayable",
      "type": "function"
    },
    {
      "inputs": [
        {
          "internalType": "address",
          "name": "",
          "type": "address"
        }
      ],
      "name": "maxDeposit",
      "outputs": [
        {
          "internalType": "uint256",
          "name": "",
          "type": "uint256"
        }
      ],
      "stateMutability": "view",
      "type": "function"
    },
    {
      "inputs": [
        {
          "internalType": "address",
          "name": "",
          "type": "address"
        }
      ],
      "name": "maxMint",
      "outputs": [
        {
          "internalType": "uint256",
          "name": "",
          "type": "uint256"
        }
      ],
      "stateMutability": "view",
      "type": "function"
    },
    {
      "inputs": [
        {
          "internalType": "address",
          "name": "owner",
          "type": "address"
        }
      ],
      "name": "maxRedeem",
      "outputs": [
        {
          "internalType": "uint256",
          "name": "",
          "type": "uint256"
        }
      ],
      "stateMutability": "view",
      "type": "function"
    },
    {
      "inputs": [
        {
          "internalType": "address",
          "name": "owner",
          "type": "address"
        }
      ],
      "name": "maxWithdraw",
      "outputs": [
        {
          "internalType": "uint256",
          "name": "",
          "type": "uint256"
        }
      ],
      "stateMutability": "view",
      "type": "function"
    },
    {
      "inputs": [
        {
          "internalType": "uint256",
          "name": "",
          "type": "uint256"
        },
        {
          "internalType": "address",
          "name": "",
          "type": "address"
        }
      ],
      "name": "mint",
      "outputs": [
        {
          "internalType": "uint256",
          "name": "",
          "type": "uint256"
        }
      ],
      "stateMutability": "pure",
      "type": "function"
    },
    {
      "inputs": [],
      "name": "name",
      "outputs": [
        {
          "internalType": "string",
          "name": "",
          "type": "string"
        }
      ],
      "stateMutability": "view",
      "type": "function"
    },
    {
      "inputs": [],
      "name": "owner",
      "outputs": [
        {
          "internalType": "address",
          "name": "",
          "type": "address"
        }
      ],
      "stateMutability": "view",
      "type": "function"
    },
    {
      "inputs": [],
      "name": "pendingOwner",
      "outputs": [
        {
          "internalType": "address",
          "name": "",
          "type": "address"
        }
      ],
      "stateMutability": "view",
      "type": "function"
    },
    {
      "inputs": [
        {
          "internalType": "uint256",
          "name": "assets",
          "type": "uint256"
        }
      ],
      "name": "previewDeposit",
      "outputs": [
        {
          "internalType": "uint256",
          "name": "",
          "type": "uint256"
        }
      ],
      "stateMutability": "view",
      "type": "function"
    },
    {
      "inputs": [
        {
          "internalType": "uint256",
          "name": "shares",
          "type": "uint256"
        }
      ],
      "name": "previewMint",
      "outputs": [
        {
          "internalType": "uint256",
          "name": "",
          "type": "uint256"
        }
      ],
      "stateMutability": "view",
      "type": "function"
    },
    {
      "inputs": [
        {
          "internalType": "uint256",
          "name": "shares",
          "type": "uint256"
        }
      ],
      "name": "previewRedeem",
      "outputs": [
        {
          "internalType": "uint256",
          "name": "",
          "type": "uint256"
        }
      ],
      "stateMutability": "view",
      "type": "function"
    },
    {
      "inputs": [
        {
          "internalType": "uint256",
          "name": "assets",
          "type": "uint256"
        }
      ],
      "name": "previewWithdraw",
      "outputs": [
        {
          "internalType": "uint256",
          "name": "",
          "type": "uint256"
        }
      ],
      "stateMutability": "view",
      "type": "function"
    },
    {
      "inputs": [],
      "name": "processDepositRequests",
      "outputs": [],
      "stateMutability": "nonpayable",
      "type": "function"
    },
    {
      "inputs": [],
      "name": "processWithdrawRequests",
      "outputs": [],
      "stateMutability": "nonpayable",
      "type": "function"
    },
    {
      "inputs": [],
      "name": "proxiableUUID",
      "outputs": [
        {
          "internalType": "bytes32",
          "name": "",
          "type": "bytes32"
        }
      ],
      "stateMutability": "view",
      "type": "function"
    },
    {
      "inputs": [
        {
          "internalType": "uint256",
          "name": "",
          "type": "uint256"
        },
        {
          "internalType": "address",
          "name": "",
          "type": "address"
        },
        {
          "internalType": "address",
          "name": "",
          "type": "address"
        }
      ],
      "name": "redeem",
      "outputs": [
        {
          "internalType": "uint256",
          "name": "",
          "type": "uint256"
        }
      ],
      "stateMutability": "pure",
      "type": "function"
    },
    {
      "inputs": [],
      "name": "renounceOwnership",
      "outputs": [],
      "stateMutability": "nonpayable",
      "type": "function"
    },
    {
      "inputs": [
        {
          "internalType": "uint256",
          "name": "amount",
          "type": "uint256"
        }
      ],
      "name": "requestDeposit",
      "outputs": [],
      "stateMutability": "nonpayable",
      "type": "function"
    },
    {
      "inputs": [
        {
          "internalType": "uint256",
          "name": "shares",
          "type": "uint256"
        }
      ],
      "name": "requestWithdraw",
      "outputs": [],
      "stateMutability": "nonpayable",
      "type": "function"
    },
    {
      "inputs": [],
      "name": "sharePrice",
      "outputs": [
        {
          "internalType": "uint256",
          "name": "",
          "type": "uint256"
        }
      ],
      "stateMutability": "view",
      "type": "function"
    },
    {
      "inputs": [
        {
          "components": [
            {
              "internalType": "address",
              "name": "token",
              "type": "address"
            },
            {
              "internalType": "uint32",
              "name": "amount",
              "type": "uint32"
            }
          ],
          "internalType": "struct IOrionTransparentVault.Order[]",
          "name": "order",
          "type": "tuple[]"
        }
      ],
      "name": "submitOrderIntent",
      "outputs": [],
      "stateMutability": "nonpayable",
      "type": "function"
    },
    {
      "inputs": [],
      "name": "symbol",
      "outputs": [
        {
          "internalType": "string",
          "name": "",
          "type": "string"
        }
      ],
      "stateMutability": "view",
      "type": "function"
    },
    {
      "inputs": [],
      "name": "totalAssets",
      "outputs": [
        {
          "internalType": "uint256",
          "name": "",
          "type": "uint256"
        }
      ],
      "stateMutability": "view",
      "type": "function"
    },
    {
      "inputs": [],
      "name": "totalSupply",
      "outputs": [
        {
          "internalType": "uint256",
          "name": "",
          "type": "uint256"
        }
      ],
      "stateMutability": "view",
      "type": "function"
    },
    {
      "inputs": [
        {
          "internalType": "address",
          "name": "to",
          "type": "address"
        },
        {
          "internalType": "uint256",
          "name": "value",
          "type": "uint256"
        }
      ],
      "name": "transfer",
      "outputs": [
        {
          "internalType": "bool",
          "name": "",
          "type": "bool"
        }
      ],
      "stateMutability": "nonpayable",
      "type": "function"
    },
    {
      "inputs": [
        {
          "internalType": "address",
          "name": "from",
          "type": "address"
        },
        {
          "internalType": "address",
          "name": "to",
          "type": "address"
        },
        {
          "internalType": "uint256",
          "name": "value",
          "type": "uint256"
        }
      ],
      "name": "transferFrom",
      "outputs": [
        {
          "internalType": "bool",
          "name": "",
          "type": "bool"
        }
      ],
      "stateMutability": "nonpayable",
      "type": "function"
    },
    {
      "inputs": [
        {
          "internalType": "address",
          "name": "newOwner",
          "type": "address"
        }
      ],
      "name": "transferOwnership",
      "outputs": [],
      "stateMutability": "nonpayable",
      "type": "function"
    },
    {
      "inputs": [
        {
          "internalType": "uint256",
          "name": "newSharePrice",
          "type": "uint256"
        },
        {
          "internalType": "uint256",
          "name": "newTotalAssets",
          "type": "uint256"
        }
      ],
      "name": "updateVaultState",
      "outputs": [],
      "stateMutability": "nonpayable",
      "type": "function"
    },
    {
      "inputs": [
        {
          "internalType": "address",
          "name": "newImplementation",
          "type": "address"
        },
        {
          "internalType": "bytes",
          "name": "data",
          "type": "bytes"
        }
      ],
      "name": "upgradeToAndCall",
      "outputs": [],
      "stateMutability": "payable",
      "type": "function"
    },
    {
      "inputs": [
        {
          "internalType": "uint256",
          "name": "",
          "type": "uint256"
        },
        {
          "internalType": "address",
          "name": "",
          "type": "address"
        },
        {
          "internalType": "address",
          "name": "",
          "type": "address"
        }
      ],
      "name": "withdraw",
      "outputs": [
        {
          "internalType": "uint256",
          "name": "",
          "type": "uint256"
        }
      ],
      "stateMutability": "pure",
      "type": "function"
    },
    {
      "inputs": [
        {
          "internalType": "uint256",
          "name": "amount",
          "type": "uint256"
        }
      ],
      "name": "withdrawDepositRequest",
      "outputs": [],
      "stateMutability": "nonpayable",
      "type": "function"
    }
  ],
  "bytecode": "0x60a0604052306080523480156012575f80fd5b5060805161308d6100395f395f8181611ccc01528181611cf50152611e57015261308d5ff3fe608060405260043610610280575f3560e01c806379ba509711610155578063c63d75b6116100be578063dd62ed3e11610078578063dd62ed3e14610715578063e30c397814610734578063e66f53b714610748578063ef8b30f714610685578063f2fde38b14610767578063fb12251b14610786575f80fd5b8063c63d75b61461044c578063c6e6f59214610685578063ce96cb77146106a4578063d1699c26146106c3578063d5f39488146106d7578063d905777e146106f6575f80fd5b8063aa9d3a601161010f578063aa9d3a60146105d0578063ad3cb1cc146105e4578063b3d7f6b914610614578063b460af9414610633578063ba08765214610652578063c37fc8a814610671575f80fd5b806379ba50971461056057806387269729146105745780638da5cb5b1461058957806394bf804d146104d157806395d89b411461059d578063a9059cbb146105b1575f80fd5b806333fdc592116101f757806352d1902d116101b157806352d1902d146104bd5780636e553f65146104d157806370a08231146104f0578063715018a61461050f578063745400c91461052357806379502c5514610542575f80fd5b806333fdc5921461040c57806338d52e0f14610420578063402d267d1461044c5780634368eb1c1461046c5780634cdad5061461048b5780634f1ef286146104aa575f80fd5b80630d1e6667116102485780630d1e66671461033557806318160ddd146103565780632016a0d21461038957806323b872dd146103a8578063313ce567146103c7578063329f0123146103ed575f80fd5b806301e1d1141461028457806306fdde03146102a757806307a2d13a146102c8578063095ea7b3146102e75780630a28a47714610316575b5f80fd5b34801561028f575f80fd5b506004545b6040519081526020015b60405180910390f35b3480156102b2575f80fd5b506102bb6107a5565b60405161029e919061288b565b3480156102d3575f80fd5b506102946102e23660046128c0565b610865565b3480156102f2575f80fd5b506103066103013660046128eb565b610875565b604051901515815260200161029e565b348015610321575f80fd5b506102946103303660046128c0565b61088c565b348015610340575f80fd5b5061035461034f3660046128c0565b610898565b005b348015610361575f80fd5b507f52c63247e1f47db19d5ce0460030c497f067ca4cebf71ba98eeadabe20bace0254610294565b348015610394575f80fd5b506103546103a336600461295a565b610a51565b3480156103b3575f80fd5b506103066103c23660046129ee565b610bb9565b3480156103d2575f80fd5b506103db610bde565b60405160ff909116815260200161029e565b3480156103f8575f80fd5b50610354610407366004612a2c565b610c20565b348015610417575f80fd5b50610354610d2a565b34801561042b575f80fd5b50610434610eb3565b6040516001600160a01b03909116815260200161029e565b348015610457575f80fd5b50610294610466366004612a4c565b505f1990565b348015610477575f80fd5b506103546104863660046128c0565b610ee7565b348015610496575f80fd5b506102946104a53660046128c0565b61103f565b6103546104b8366004612a7b565b61104a565b3480156104c8575f80fd5b50610294611069565b3480156104dc575f80fd5b506102946104eb366004612b41565b611084565b3480156104fb575f80fd5b5061029461050a366004612a4c565b61109e565b34801561051a575f80fd5b506103546110c4565b34801561052e575f80fd5b5061035461053d3660046128c0565b6110d5565b34801561054d575f80fd5b505f54610434906001600160a01b031681565b34801561056b575f80fd5b506103546111eb565b34801561057f575f80fd5b5061029460035481565b348015610594575f80fd5b50610434611230565b3480156105a8575f80fd5b506102bb611258565b3480156105bc575f80fd5b506103066105cb3660046128eb565b611296565b3480156105db575f80fd5b506103546112a3565b3480156105ef575f80fd5b506102bb604051806040016040528060058152602001640352e302e360dc1b81525081565b34801561061f575f80fd5b5061029461062e3660046128c0565b611494565b34801561063e575f80fd5b5061029461064d366004612b6f565b6114a0565b34801561065d575f80fd5b5061029461066c366004612b6f565b6114b9565b34801561067c575f80fd5b506102946114d3565b348015610690575f80fd5b5061029461069f3660046128c0565b61153a565b3480156106af575f80fd5b506102946106be366004612a4c565b611545565b3480156106ce575f80fd5b50610294611558565b3480156106e2575f80fd5b50600254610434906001600160a01b031681565b348015610701575f80fd5b50610294610710366004612a4c565b6115b7565b348015610720575f80fd5b5061029461072f366004612bae565b6115c1565b34801561073f575f80fd5b5061043461160a565b348015610753575f80fd5b50600154610434906001600160a01b031681565b348015610772575f80fd5b50610354610781366004612a4c565b611632565b348015610791575f80fd5b506103546107a0366004612bda565b6116b7565b7f52c63247e1f47db19d5ce0460030c497f067ca4cebf71ba98eeadabe20bace0380546060915f80516020612ff8833981519152916107e390612c4b565b80601f016020809104026020016040519081016040528092919081815260200182805461080f90612c4b565b801561085a5780601f106108315761010080835404028352916020019161085a565b820191905f5260205f20905b81548152906001019060200180831161083d57829003601f168201915b505050505091505090565b5f61086f82611967565b92915050565b5f3361088281858561198b565b5060019392505050565b5f61086f82600161199d565b6108a06119c0565b805f036108d9576108af610eb3565b604051636b30633560e01b81526001600160a01b0390911660048201526024015b60405180910390fd5b335f90815260056020526040812054900361093057600780546001810182555f919091527fa66cc928b5edb82af9bd49922954155ab7b0942694bea4ce44661d9a8736c6880180546001600160a01b031916331790555b335f908152600560205260408120805483929061094e908490612c97565b909155505f905061095d610eb3565b6040516323b872dd60e01b8152336004820152306024820152604481018490526001600160a01b0391909116906323b872dd906064016020604051808303815f875af11580156109af573d5f803e3d5ffd5b505050506040513d601f19601f820116820180604052508101906109d39190612caa565b9050806109f3576040516312171d8360e31b815260040160405180910390fd5b60075460405133917f03979a8c481a9e9c06938045cfd5c28535255cb003b10a8fe84ebb3cb4d440f291610a2f91868252602082015260400190565b60405180910390a250610a4e60015f8051602061303883398151915255565b50565b5f610a5a611a0a565b805490915060ff600160401b820416159067ffffffffffffffff165f81158015610a815750825b90505f8267ffffffffffffffff166001148015610a9d5750303b155b905081158015610aab575080155b15610ac95760405163f92ee8a960e01b815260040160405180910390fd5b845467ffffffffffffffff191660011785558315610af357845460ff60401b1916600160401b1785555b610b668b8b8b8b8080601f0160208091040260200160405190810160405280939291908181526020018383808284375f9201919091525050604080516020601f8f018190048102820181019092528d815292508d91508c90819084018382808284375f92019190915250611a3292505050565b8315610bac57845460ff60401b19168555604051600181527fc7f505b2f371ae2175ee4913f4499e1f2633a7b5936321eed1cdaeb6115181d29060200160405180910390a15b5050505050505050505050565b5f33610bc6858285611b74565b610bd1858585611bd8565b60019150505b9392505050565b5f807f0773e532dfede91f04b12a73d3d2acd361424f41f76b4fb79f090161e36b4e0090505f8154610c1a9190600160a01b900460ff16612cc9565b91505090565b5f8054906101000a90046001600160a01b03166001600160a01b031663348ec5c86040518163ffffffff1660e01b8152600401602060405180830381865afa158015610c6e573d5f803e3d5ffd5b505050506040513d601f19601f82011682018060405250810190610c929190612ce2565b6001600160a01b0316336001600160a01b031614610cc35760405163efb380d960e01b815260040160405180910390fd5b815f03610ce357604051634dfba02360e01b815260040160405180910390fd5b6003829055600481905560408051838152602081018390527f420468cf8110435de2f48db96f01d6a65a842cb7ac5852c11fcbac8dc93b46b3910160405180910390a15050565b5f8054906101000a90046001600160a01b03166001600160a01b0316633a0dad8e6040518163ffffffff1660e01b8152600401602060405180830381865afa158015610d78573d5f803e3d5ffd5b505050506040513d601f19601f82011682018060405250810190610d9c9190612ce2565b6001600160a01b0316336001600160a01b031614610dcd57604051631af2ab4f60e31b815260040160405180910390fd5b610dd56119c0565b6007545f5b81811015610e99575f60078281548110610df657610df6612cfd565b5f9182526020808320909101546001600160a01b03168083526005909152604082205490925090610e268261153a565b6001600160a01b0384165f908152600560205260408120559050610e4a8382611c35565b60408051838152602081018690526001600160a01b038516917f782ea2005b7f873a0190a1ccb553c732171348d6e16d2b7d3d493c0677dc296e910160405180910390a2505050600101610dda565b5050610eb160015f8051602061303883398151915255565b565b5f807f0773e532dfede91f04b12a73d3d2acd361424f41f76b4fb79f090161e36b4e005b546001600160a01b031692915050565b610eef6119c0565b805f03610efe576108af610eb3565b335f90815260056020526040902054811115610f2d576040516332194fd360e21b815260040160405180910390fd5b335f9081526005602052604081208054839290610f4b908490612d11565b90915550506007545f610f5c610eb3565b60405163a9059cbb60e01b8152336004820152602481018590526001600160a01b03919091169063a9059cbb906044016020604051808303815f875af1158015610fa8573d5f803e3d5ffd5b505050506040513d601f19601f82011682018060405250810190610fcc9190612caa565b905080610fec576040516312171d8360e31b815260040160405180910390fd5b604080518481526020810184905233917f3c121205405bd3a6cc45661cccddd03e333ae4ef37be94cfa3880f6d616a20c8910160405180910390a25050610a4e60015f8051602061303883398151915255565b5f61086f825f611c69565b611052611cc1565b61105b82611d65565b6110658282611d90565b5050565b5f611072611e4c565b505f8051602061301883398151915290565b5f6040516318f2e47360e11b815260040160405180910390fd5b6001600160a01b03165f9081525f80516020612ff8833981519152602052604090205490565b6110cc611e95565b610eb15f611ec7565b805f036110f5576040516314e6cbb960e11b815260040160405180910390fd5b806110ff3361109e565b101561111e57604051633c57b48560e21b815260040160405180910390fd5b335f90815260066020526040812054900361117557600880546001810182555f919091527ff3f7a9fe364faab93b216da50a3214154f22a0a2b415b23a84c8169e8b636ee30180546001600160a01b031916331790555b335f9081526006602052604081208054839290611193908490612c97565b909155506111a49050333083611bd8565b60085460405133917fd72eb5d043f24a0168ae744d5c44f9596fd673a26bf74d9646bff4b844882d14916111e091858252602082015260400190565b60405180910390a250565b33806111f561160a565b6001600160a01b0316146112275760405163118cdaa760e01b81526001600160a01b03821660048201526024016108d0565b610a4e81611ec7565b5f807f9016d09d72d40fdae2fd8ceac6b6234c7706214fd39c1cd1e609a0528c199300610ed7565b7f52c63247e1f47db19d5ce0460030c497f067ca4cebf71ba98eeadabe20bace0480546060915f80516020612ff8833981519152916107e390612c4b565b5f33610882818585611bd8565b5f8054906101000a90046001600160a01b03166001600160a01b0316633a0dad8e6040518163ffffffff1660e01b8152600401602060405180830381865afa1580156112f1573d5f803e3d5ffd5b505050506040513d601f19601f820116820180604052508101906113159190612ce2565b6001600160a01b0316336001600160a01b03161461134657604051631af2ab4f60e31b815260040160405180910390fd5b61134e6119c0565b6008545f5b81811015610e99575f6008828154811061136f5761136f612cfd565b5f9182526020808320909101546001600160a01b0316808352600690915260408220805492905591506113a23082611eff565b5f6113ac8261103f565b90506113b6610eb3565b60405163a9059cbb60e01b81526001600160a01b03858116600483015260248201849052919091169063a9059cbb906044016020604051808303815f875af1158015611404573d5f803e3d5ffd5b505050506040513d601f19601f820116820180604052508101906114289190612caa565b611445576040516312171d8360e31b815260040160405180910390fd5b60408051838152602081018690526001600160a01b038516917febad37b830b1857ef9af5983fc20dc0ded12dc472ba1e22e06fd3a9465b4506c910160405180910390a2505050600101611353565b5f61086f826001611c69565b5f604051628a595160e01b815260040160405180910390fd5b5f604051630ad8521960e31b815260040160405180910390fd5b6008545f908190815b818110156115325760065f600883815481106114fa576114fa612cfd565b5f9182526020808320909101546001600160a01b031683528201929092526040019020546115289084612c97565b92506001016114dc565b509092915050565b5f61086f825f61199d565b5f61086f6115528361109e565b5f611c69565b6007545f908190815b818110156115325760055f6007838154811061157f5761157f612cfd565b5f9182526020808320909101546001600160a01b031683528201929092526040019020546115ad9084612c97565b9250600101611561565b5f61086f8261109e565b6001600160a01b039182165f9081527f52c63247e1f47db19d5ce0460030c497f067ca4cebf71ba98eeadabe20bace016020908152604080832093909416825291909152205490565b5f807f237e158222e3e6968b72b9db0d8043aacf074ad9f650f0d1606b4d82ee432c00610ed7565b61163a611e95565b7f237e158222e3e6968b72b9db0d8043aacf074ad9f650f0d1606b4d82ee432c0080546001600160a01b0319166001600160a01b038316908117825561167e611230565b6001600160a01b03167f38d16b8cac22d99fc7c124b9cd0de2d3fa1faef420bfe791d8c362d765e2270060405160405180910390a35050565b6001546001600160a01b031633146116e2576040516356b381a560e01b815260040160405180910390fd5b5f81900361170357604051631121aa8d60e01b815260040160405180910390fd5b61170d6009611f33565b5f805b82811015611896575f84848381811061172b5761172b612cfd565b6117419260206040909202019081019150612a4c565b90505f85858481811061175657611756612cfd565b905060400201602001602081019061176e9190612d24565b5f54604051633af32abf60e01b81526001600160a01b038581166004830152929350911690633af32abf90602401602060405180830381865afa1580156117b7573d5f803e3d5ffd5b505050506040513d601f19601f820116820180604052508101906117db9190612caa565b6118035760405163751dff9760e11b81526001600160a01b03831660048201526024016108d0565b8063ffffffff165f0361183457604051636b30633560e01b81526001600160a01b03831660048201526024016108d0565b5f61184a60098463ffffffff80861690611f3c16565b905080611875576040516346bdabe160e01b81526001600160a01b03841660048201526024016108d0565b61188563ffffffff831686612c97565b945050600190920191506117109050565b505f805f9054906101000a90046001600160a01b03166001600160a01b031663d1717c7d6040518163ffffffff1660e01b8152600401602060405180830381865afa1580156118e7573d5f803e3d5ffd5b505050506040513d601f19601f8201168201806040525081019061190b9190612d47565b905061191881600a612e4a565b8214611937576040516324204a3560e21b815260040160405180910390fd5b60405133907f2d47a742b8d7df7c1fc5a9a631b206b364e6cb2722490759f63bb3ab14b132e0905f90a250505050565b5f611970610bde565b60ff16600354836119819190612e58565b61086f9190612e83565b6119988383836001611f59565b505050565b5f6003546119a9610bde565b6119b69060ff1685612e58565b610bd79190612e83565b5f805160206130388339815191528054600119016119f157604051633ee5aeb560e01b815260040160405180910390fd5b60029055565b60015f8051602061303883398151915255565b5f807ff0c57e16840df040f15088dc2f81fe391c3923bec73e23a9662efc9c229c6a0061086f565b611a3a61203d565b6001600160a01b038416611a6157604051639c6bb9f560e01b815260040160405180910390fd5b6001600160a01b038316611a8857604051636a485a5b60e11b815260040160405180910390fd5b611a928282612062565b611afa836001600160a01b0316637158da7c6040518163ffffffff1660e01b8152600401602060405180830381865afa158015611ad1573d5f803e3d5ffd5b505050506040513d601f19601f82011682018060405250810190611af59190612ce2565b612074565b611b02612085565b611b0a612095565b611b12612095565b611b1b84611ec7565b60028054336001600160a01b0319918216179091556001805482166001600160a01b03878116919091179091555f8054909216908516179055611b5c610bde565b611b6790600a612e4a565b60035550505f6004555050565b5f611b7f84846115c1565b90505f19811015611bd25781811015611bc457604051637dc7a0d960e11b81526001600160a01b038416600482015260248101829052604481018390526064016108d0565b611bd284848484035f611f59565b50505050565b6001600160a01b038316611c0157604051634b637e8f60e11b81525f60048201526024016108d0565b6001600160a01b038216611c2a5760405163ec442f0560e01b81525f60048201526024016108d0565b61199883838361209d565b6001600160a01b038216611c5e5760405163ec442f0560e01b81525f60048201526024016108d0565b6110655f838361209d565b5f610bd7611c7660045490565b611c81906001612c97565b611c8c5f600a612e4a565b7f52c63247e1f47db19d5ce0460030c497f067ca4cebf71ba98eeadabe20bace0254611cb89190612c97565b859190856121d6565b306001600160a01b037f0000000000000000000000000000000000000000000000000000000000000000161480611d4757507f00000000000000000000000000000000000000000000000000000000000000006001600160a01b0316611d3b5f80516020613018833981519152546001600160a01b031690565b6001600160a01b031614155b15610eb15760405163703e46dd60e11b815260040160405180910390fd5b6001546001600160a01b03163314610a4e576040516356b381a560e01b815260040160405180910390fd5b816001600160a01b03166352d1902d6040518163ffffffff1660e01b8152600401602060405180830381865afa925050508015611dea575060408051601f3d908101601f19168201909252611de791810190612e96565b60015b611e1257604051634c9c8ce360e01b81526001600160a01b03831660048201526024016108d0565b5f805160206130188339815191528114611e4257604051632a87526960e21b8152600481018290526024016108d0565b6119988383612221565b306001600160a01b037f00000000000000000000000000000000000000000000000000000000000000001614610eb15760405163703e46dd60e11b815260040160405180910390fd5b33611e9e611230565b6001600160a01b031614610eb15760405163118cdaa760e01b81523360048201526024016108d0565b7f237e158222e3e6968b72b9db0d8043aacf074ad9f650f0d1606b4d82ee432c0080546001600160a01b031916815561106582612276565b6001600160a01b038216611f2857604051634b637e8f60e11b81525f60048201526024016108d0565b611065825f8361209d565b610a4e816122e6565b5f611f51846001600160a01b0385168461232f565b949350505050565b5f80516020612ff88339815191526001600160a01b038516611f905760405163e602df0560e01b81525f60048201526024016108d0565b6001600160a01b038416611fb957604051634a1406b160e11b81525f60048201526024016108d0565b6001600160a01b038086165f9081526001830160209081526040808320938816835292905220839055811561203657836001600160a01b0316856001600160a01b03167f8c5be1e5ebec7d5bd14f71427d1e84f3dd0314c0f7b2291e5b200ac8c7c3b9258560405161202d91815260200190565b60405180910390a35b5050505050565b61204561234b565b610eb157604051631afcd79f60e31b815260040160405180910390fd5b61206a61203d565b6110658282612364565b61207c61203d565b610a4e816123b4565b61208d61203d565b610eb1612437565b610eb161203d565b5f80516020612ff88339815191526001600160a01b0384166120d75781816002015f8282546120cc9190612c97565b909155506121479050565b6001600160a01b0384165f90815260208290526040902054828110156121295760405163391434e360e21b81526001600160a01b038616600482015260248101829052604481018490526064016108d0565b6001600160a01b0385165f9081526020839052604090209083900390555b6001600160a01b038316612165576002810180548390039055612183565b6001600160a01b0383165f9081526020829052604090208054830190555b826001600160a01b0316846001600160a01b03167fddf252ad1be2c89b69c2b068fc378daa952ba7f163c4a11628f55a4df523b3ef846040516121c891815260200190565b60405180910390a350505050565b5f6122036121e38361243f565b80156121fe57505f84806121f9576121f9612e6f565b868809115b151590565b61220e86868661246b565b6122189190612c97565b95945050505050565b61222a8261251b565b6040516001600160a01b038316907fbc7cd75a20ee27fd9adebab32041f755214dbc6bffa90cc0225b39da2e5c2d3b905f90a280511561226e57611998828261257e565b6110656125e7565b7f9016d09d72d40fdae2fd8ceac6b6234c7706214fd39c1cd1e609a0528c19930080546001600160a01b031981166001600160a01b03848116918217845560405192169182907f8be0079c531659141344cd1fd0a4f28419497f9722a3daafe3b4186f6b6457e0905f90a3505050565b5f6122f082612606565b90505f5b8181101561232557600283015f61230b8584612610565b815260208101919091526040015f908120556001016122f4565b506110658261261b565b5f8281526002840160205260408120829055611f518484612624565b5f612354611a0a565b54600160401b900460ff16919050565b61236c61203d565b5f80516020612ff88339815191527f52c63247e1f47db19d5ce0460030c497f067ca4cebf71ba98eeadabe20bace036123a58482612ef1565b5060048101611bd28382612ef1565b6123bc61203d565b7f0773e532dfede91f04b12a73d3d2acd361424f41f76b4fb79f090161e36b4e005f806123e88461262f565b91509150816123f85760126123fa565b805b83546001600160a81b031916600160a01b60ff92909216919091026001600160a01b031916176001600160a01b0394909416939093179091555050565b6119f761203d565b5f600282600381111561245457612454612fac565b61245e9190612fc0565b60ff166001149050919050565b5f805f6124788686612705565b91509150815f0361249c5783818161249257612492612e6f565b0492505050610bd7565b8184116124b3576124b36003851502601118612721565b5f848688095f868103871696879004966002600389028118808a02820302808a02820302808a02820302808a02820302808a02820302808a02909103029181900381900460010185841190960395909502919093039390930492909217029150509392505050565b806001600160a01b03163b5f0361255057604051634c9c8ce360e01b81526001600160a01b03821660048201526024016108d0565b5f8051602061301883398151915280546001600160a01b0319166001600160a01b0392909216919091179055565b60605f80846001600160a01b03168460405161259a9190612fe1565b5f60405180830381855af49150503d805f81146125d2576040519150601f19603f3d011682016040523d82523d5f602084013e6125d7565b606091505b5091509150612218858383612732565b3415610eb15760405163b398979f60e01b815260040160405180910390fd5b5f61086f8261278e565b5f610bd78383612797565b610a4e816127bd565b5f610bd78383612816565b60408051600481526024810182526020810180516001600160e01b031663313ce56760e01b17905290515f918291829182916001600160a01b0387169161267591612fe1565b5f60405180830381855afa9150503d805f81146126ad576040519150601f19603f3d011682016040523d82523d5f602084013e6126b2565b606091505b50915091508180156126c657506020815110155b156126f9575f818060200190518101906126e09190612e96565b905060ff81116126f7576001969095509350505050565b505b505f9485945092505050565b5f805f1983850993909202808410938190039390930393915050565b634e487b715f52806020526024601cfd5b6060826127475761274282612862565b610bd7565b815115801561275e57506001600160a01b0384163b155b1561278757604051639996b31560e01b81526001600160a01b03851660048201526024016108d0565b5080610bd7565b5f61086f825490565b5f825f0182815481106127ac576127ac612cfd565b905f5260205f200154905092915050565b5f6127c6825490565b90505f5b8181101561280f57826001015f845f0183815481106127eb576127eb612cfd565b905f5260205f20015481526020019081526020015f205f90558060010190506127ca565b50505f9055565b5f81815260018301602052604081205461285b57508154600181810184555f84815260208082209093018490558454848252828601909352604090209190915561086f565b505f61086f565b8051156128725780518082602001fd5b60405163d6bda27560e01b815260040160405180910390fd5b602081525f82518060208401528060208501604085015e5f604082850101526040601f19601f83011684010191505092915050565b5f602082840312156128d0575f80fd5b5035919050565b6001600160a01b0381168114610a4e575f80fd5b5f80604083850312156128fc575f80fd5b8235612907816128d7565b946020939093013593505050565b5f8083601f840112612925575f80fd5b50813567ffffffffffffffff81111561293c575f80fd5b602083019150836020828501011115612953575f80fd5b9250929050565b5f805f805f806080878903121561296f575f80fd5b863561297a816128d7565b9550602087013561298a816128d7565b9450604087013567ffffffffffffffff8111156129a5575f80fd5b6129b189828a01612915565b909550935050606087013567ffffffffffffffff8111156129d0575f80fd5b6129dc89828a01612915565b979a9699509497509295939492505050565b5f805f60608486031215612a00575f80fd5b8335612a0b816128d7565b92506020840135612a1b816128d7565b929592945050506040919091013590565b5f8060408385031215612a3d575f80fd5b50508035926020909101359150565b5f60208284031215612a5c575f80fd5b8135610bd7816128d7565b634e487b7160e01b5f52604160045260245ffd5b5f8060408385031215612a8c575f80fd5b8235612a97816128d7565b9150602083013567ffffffffffffffff811115612ab2575f80fd5b8301601f81018513612ac2575f80fd5b803567ffffffffffffffff811115612adc57612adc612a67565b604051601f8201601f19908116603f0116810167ffffffffffffffff81118282101715612b0b57612b0b612a67565b604052818152828201602001871015612b22575f80fd5b816020840160208301375f602083830101528093505050509250929050565b5f8060408385031215612b52575f80fd5b823591506020830135612b64816128d7565b809150509250929050565b5f805f60608486031215612b81575f80fd5b833592506020840135612b93816128d7565b91506040840135612ba3816128d7565b809150509250925092565b5f8060408385031215612bbf575f80fd5b8235612bca816128d7565b91506020830135612b64816128d7565b5f8060208385031215612beb575f80fd5b823567ffffffffffffffff811115612c01575f80fd5b8301601f81018513612c11575f80fd5b803567ffffffffffffffff811115612c27575f80fd5b8560208260061b8401011115612c3b575f80fd5b6020919091019590945092505050565b600181811c90821680612c5f57607f821691505b602082108103612c7d57634e487b7160e01b5f52602260045260245ffd5b50919050565b634e487b7160e01b5f52601160045260245ffd5b8082018082111561086f5761086f612c83565b5f60208284031215612cba575f80fd5b81518015158114610bd7575f80fd5b60ff818116838216019081111561086f5761086f612c83565b5f60208284031215612cf2575f80fd5b8151610bd7816128d7565b634e487b7160e01b5f52603260045260245ffd5b8181038181111561086f5761086f612c83565b5f60208284031215612d34575f80fd5b813563ffffffff81168114610bd7575f80fd5b5f60208284031215612d57575f80fd5b815160ff81168114610bd7575f80fd5b6001815b6001841115612da257808504811115612d8657612d86612c83565b6001841615612d9457908102905b60019390931c928002612d6b565b935093915050565b5f82612db85750600161086f565b81612dc457505f61086f565b8160018114612dda5760028114612de457612e00565b600191505061086f565b60ff841115612df557612df5612c83565b50506001821b61086f565b5060208310610133831016604e8410600b8410161715612e23575081810a61086f565b612e2f5f198484612d67565b805f1904821115612e4257612e42612c83565b029392505050565b5f610bd760ff841683612daa565b808202811582820484141761086f5761086f612c83565b634e487b7160e01b5f52601260045260245ffd5b5f82612e9157612e91612e6f565b500490565b5f60208284031215612ea6575f80fd5b5051919050565b601f82111561199857805f5260205f20601f840160051c81016020851015612ed25750805b601f840160051c820191505b81811015612036575f8155600101612ede565b815167ffffffffffffffff811115612f0b57612f0b612a67565b612f1f81612f198454612c4b565b84612ead565b6020601f821160018114612f51575f8315612f3a5750848201515b5f19600385901b1c1916600184901b178455612036565b5f84815260208120601f198516915b82811015612f805787850151825560209485019460019092019101612f60565b5084821015612f9d57868401515f19600387901b60f8161c191681555b50505050600190811b01905550565b634e487b7160e01b5f52602160045260245ffd5b5f60ff831680612fd257612fd2612e6f565b8060ff84160691505092915050565b5f82518060208501845e5f92019182525091905056fe52c63247e1f47db19d5ce0460030c497f067ca4cebf71ba98eeadabe20bace00360894a13ba1a3210667c828492db98dca3e2076cc3735a920a3ca505d382bbc9b779b17422d0df92223018b32b4d1fa46e071723d6817e2486d003becc55f00a264697066735822122041498bba4dcbfa904fd3f7edf9c58364028145d881b514ae6a8da90f033ffd1b64736f6c634300081a0033",
  "linkReferences": {},
  "deployedLinkReferences": {}
}