{
  "_format": "hh-sol-artifact-1",
  "contractName": "OrionTransparentVault",
  "sourceName": "contracts/OrionTransparentVault.sol",
  "abi": [
    {
      "inputs": [
        {
          "internalType": "address",
          "name": "target",
          "type": "address"
        }
      ],
      "name": "AddressEmptyCode",
      "type": "error"
    },
    {
      "inputs": [
        {
          "internalType": "address",
          "name": "asset",
          "type": "address"
        }
      ],
      "name": "AmountMustBeGreaterThanZero",
      "type": "error"
    },
    {
      "inputs": [
        {
          "internalType": "address",
          "name": "implementation",
          "type": "address"
        }
      ],
      "name": "ERC1967InvalidImplementation",
      "type": "error"
    },
    {
      "inputs": [],
      "name": "ERC1967NonPayable",
      "type": "error"
    },
    {
      "inputs": [
        {
          "internalType": "address",
          "name": "spender",
          "type": "address"
        },
        {
          "internalType": "uint256",
          "name": "allowance",
          "type": "uint256"
        },
        {
          "internalType": "uint256",
          "name": "needed",
          "type": "uint256"
        }
      ],
      "name": "ERC20InsufficientAllowance",
      "type": "error"
    },
    {
      "inputs": [
        {
          "internalType": "address",
          "name": "sender",
          "type": "address"
        },
        {
          "internalType": "uint256",
          "name": "balance",
          "type": "uint256"
        },
        {
          "internalType": "uint256",
          "name": "needed",
          "type": "uint256"
        }
      ],
      "name": "ERC20InsufficientBalance",
      "type": "error"
    },
    {
      "inputs": [
        {
          "internalType": "address",
          "name": "approver",
          "type": "address"
        }
      ],
      "name": "ERC20InvalidApprover",
      "type": "error"
    },
    {
      "inputs": [
        {
          "internalType": "address",
          "name": "receiver",
          "type": "address"
        }
      ],
      "name": "ERC20InvalidReceiver",
      "type": "error"
    },
    {
      "inputs": [
        {
          "internalType": "address",
          "name": "sender",
          "type": "address"
        }
      ],
      "name": "ERC20InvalidSender",
      "type": "error"
    },
    {
      "inputs": [
        {
          "internalType": "address",
          "name": "spender",
          "type": "address"
        }
      ],
      "name": "ERC20InvalidSpender",
      "type": "error"
    },
    {
      "inputs": [
        {
          "internalType": "address",
          "name": "receiver",
          "type": "address"
        },
        {
          "internalType": "uint256",
          "name": "assets",
          "type": "uint256"
        },
        {
          "internalType": "uint256",
          "name": "max",
          "type": "uint256"
        }
      ],
      "name": "ERC4626ExceededMaxDeposit",
      "type": "error"
    },
    {
      "inputs": [
        {
          "internalType": "address",
          "name": "receiver",
          "type": "address"
        },
        {
          "internalType": "uint256",
          "name": "shares",
          "type": "uint256"
        },
        {
          "internalType": "uint256",
          "name": "max",
          "type": "uint256"
        }
      ],
      "name": "ERC4626ExceededMaxMint",
      "type": "error"
    },
    {
      "inputs": [
        {
          "internalType": "address",
          "name": "owner",
          "type": "address"
        },
        {
          "internalType": "uint256",
          "name": "shares",
          "type": "uint256"
        },
        {
          "internalType": "uint256",
          "name": "max",
          "type": "uint256"
        }
      ],
      "name": "ERC4626ExceededMaxRedeem",
      "type": "error"
    },
    {
      "inputs": [
        {
          "internalType": "address",
          "name": "owner",
          "type": "address"
        },
        {
          "internalType": "uint256",
          "name": "assets",
          "type": "uint256"
        },
        {
          "internalType": "uint256",
          "name": "max",
          "type": "uint256"
        }
      ],
      "name": "ERC4626ExceededMaxWithdraw",
      "type": "error"
    },
    {
      "inputs": [],
      "name": "FailedCall",
      "type": "error"
    },
    {
      "inputs": [],
      "name": "InvalidConfigAddress",
      "type": "error"
    },
    {
      "inputs": [],
      "name": "InvalidCuratorAddress",
      "type": "error"
    },
    {
      "inputs": [],
      "name": "InvalidInitialization",
      "type": "error"
    },
    {
      "inputs": [],
      "name": "InvalidTotalAmount",
      "type": "error"
    },
    {
      "inputs": [],
      "name": "NotCurator",
      "type": "error"
    },
    {
      "inputs": [],
      "name": "NotEnoughDepositRequest",
      "type": "error"
    },
    {
      "inputs": [],
      "name": "NotEnoughShares",
      "type": "error"
    },
    {
      "inputs": [],
      "name": "NotInitializing",
      "type": "error"
    },
    {
      "inputs": [],
      "name": "NotInternalStatesOrchestrator",
      "type": "error"
    },
    {
      "inputs": [],
      "name": "NotLiquidityOrchestrator",
      "type": "error"
    },
    {
      "inputs": [],
      "name": "OrderIntentCannotBeEmpty",
      "type": "error"
    },
    {
      "inputs": [
        {
          "internalType": "address",
          "name": "owner",
          "type": "address"
        }
      ],
      "name": "OwnableInvalidOwner",
      "type": "error"
    },
    {
      "inputs": [
        {
          "internalType": "address",
          "name": "account",
          "type": "address"
        }
      ],
      "name": "OwnableUnauthorizedAccount",
      "type": "error"
    },
    {
      "inputs": [],
      "name": "ReentrancyGuardReentrantCall",
      "type": "error"
    },
    {
      "inputs": [],
      "name": "SharesMustBeGreaterThanZero",
      "type": "error"
    },
    {
      "inputs": [],
      "name": "SynchronousDepositsDisabled",
      "type": "error"
    },
    {
      "inputs": [],
      "name": "SynchronousRedemptionsDisabled",
      "type": "error"
    },
    {
      "inputs": [],
      "name": "SynchronousWithdrawalsDisabled",
      "type": "error"
    },
    {
      "inputs": [
        {
          "internalType": "address",
          "name": "token",
          "type": "address"
        }
      ],
      "name": "TokenAlreadyInOrder",
      "type": "error"
    },
    {
      "inputs": [
        {
          "internalType": "address",
          "name": "token",
          "type": "address"
        }
      ],
      "name": "TokenNotWhitelisted",
      "type": "error"
    },
    {
      "inputs": [],
      "name": "TransferFailed",
      "type": "error"
    },
    {
      "inputs": [],
      "name": "UUPSUnauthorizedCallContext",
      "type": "error"
    },
    {
      "inputs": [
        {
          "internalType": "bytes32",
          "name": "slot",
          "type": "bytes32"
        }
      ],
      "name": "UUPSUnsupportedProxiableUUID",
      "type": "error"
    },
    {
      "inputs": [],
      "name": "ZeroPrice",
      "type": "error"
    },
    {
      "anonymous": false,
      "inputs": [
        {
          "indexed": true,
          "internalType": "address",
          "name": "owner",
          "type": "address"
        },
        {
          "indexed": true,
          "internalType": "address",
          "name": "spender",
          "type": "address"
        },
        {
          "indexed": false,
          "internalType": "uint256",
          "name": "value",
          "type": "uint256"
        }
      ],
      "name": "Approval",
      "type": "event"
    },
    {
      "anonymous": false,
      "inputs": [
        {
          "indexed": true,
          "internalType": "address",
          "name": "sender",
          "type": "address"
        },
        {
          "indexed": true,
          "internalType": "address",
          "name": "owner",
          "type": "address"
        },
        {
          "indexed": false,
          "internalType": "uint256",
          "name": "assets",
          "type": "uint256"
        },
        {
          "indexed": false,
          "internalType": "uint256",
          "name": "shares",
          "type": "uint256"
        }
      ],
      "name": "Deposit",
      "type": "event"
    },
    {
      "anonymous": false,
      "inputs": [
        {
          "indexed": true,
          "internalType": "address",
          "name": "user",
          "type": "address"
        },
        {
          "indexed": false,
          "internalType": "uint256",
          "name": "amount",
          "type": "uint256"
        },
        {
          "indexed": false,
          "internalType": "uint256",
          "name": "requestId",
          "type": "uint256"
        }
      ],
      "name": "DepositProcessed",
      "type": "event"
    },
    {
      "anonymous": false,
      "inputs": [
        {
          "indexed": true,
          "internalType": "address",
          "name": "user",
          "type": "address"
        },
        {
          "indexed": false,
          "internalType": "uint256",
          "name": "amount",
          "type": "uint256"
        },
        {
          "indexed": false,
          "internalType": "uint256",
          "name": "requestId",
          "type": "uint256"
        }
      ],
      "name": "DepositRequestWithdrawn",
      "type": "event"
    },
    {
      "anonymous": false,
      "inputs": [
        {
          "indexed": true,
          "internalType": "address",
          "name": "user",
          "type": "address"
        },
        {
          "indexed": false,
          "internalType": "uint256",
          "name": "amount",
          "type": "uint256"
        },
        {
          "indexed": false,
          "internalType": "uint256",
          "name": "requestId",
          "type": "uint256"
        }
      ],
      "name": "DepositRequested",
      "type": "event"
    },
    {
      "anonymous": false,
      "inputs": [
        {
          "indexed": false,
          "internalType": "uint64",
          "name": "version",
          "type": "uint64"
        }
      ],
      "name": "Initialized",
      "type": "event"
    },
    {
      "anonymous": false,
      "inputs": [
        {
          "indexed": true,
          "internalType": "address",
          "name": "curator",
          "type": "address"
        }
      ],
      "name": "OrderSubmitted",
      "type": "event"
    },
    {
      "anonymous": false,
      "inputs": [
        {
          "indexed": true,
          "internalType": "address",
          "name": "previousOwner",
          "type": "address"
        },
        {
          "indexed": true,
          "internalType": "address",
          "name": "newOwner",
          "type": "address"
        }
      ],
      "name": "OwnershipTransferStarted",
      "type": "event"
    },
    {
      "anonymous": false,
      "inputs": [
        {
          "indexed": true,
          "internalType": "address",
          "name": "previousOwner",
          "type": "address"
        },
        {
          "indexed": true,
          "internalType": "address",
          "name": "newOwner",
          "type": "address"
        }
      ],
      "name": "OwnershipTransferred",
      "type": "event"
    },
    {
      "anonymous": false,
      "inputs": [
        {
          "indexed": true,
          "internalType": "address",
          "name": "from",
          "type": "address"
        },
        {
          "indexed": true,
          "internalType": "address",
          "name": "to",
          "type": "address"
        },
        {
          "indexed": false,
          "internalType": "uint256",
          "name": "value",
          "type": "uint256"
        }
      ],
      "name": "Transfer",
      "type": "event"
    },
    {
      "anonymous": false,
      "inputs": [
        {
          "indexed": true,
          "internalType": "address",
          "name": "implementation",
          "type": "address"
        }
      ],
      "name": "Upgraded",
      "type": "event"
    },
    {
      "anonymous": false,
      "inputs": [
        {
          "indexed": false,
          "internalType": "uint256",
          "name": "newSharePrice",
          "type": "uint256"
        },
        {
          "indexed": false,
          "internalType": "uint256",
          "name": "newTotalAssets",
          "type": "uint256"
        }
      ],
      "name": "VaultStateUpdated",
      "type": "event"
    },
    {
      "anonymous": false,
      "inputs": [
        {
          "indexed": true,
          "internalType": "address",
          "name": "sender",
          "type": "address"
        },
        {
          "indexed": true,
          "internalType": "address",
          "name": "receiver",
          "type": "address"
        },
        {
          "indexed": true,
          "internalType": "address",
          "name": "owner",
          "type": "address"
        },
        {
          "indexed": false,
          "internalType": "uint256",
          "name": "assets",
          "type": "uint256"
        },
        {
          "indexed": false,
          "internalType": "uint256",
          "name": "shares",
          "type": "uint256"
        }
      ],
      "name": "Withdraw",
      "type": "event"
    },
    {
      "anonymous": false,
      "inputs": [
        {
          "indexed": true,
          "internalType": "address",
          "name": "user",
          "type": "address"
        },
        {
          "indexed": false,
          "internalType": "uint256",
          "name": "shares",
          "type": "uint256"
        },
        {
          "indexed": false,
          "internalType": "uint256",
          "name": "requestId",
          "type": "uint256"
        }
      ],
      "name": "WithdrawProcessed",
      "type": "event"
    },
    {
      "anonymous": false,
      "inputs": [
        {
          "indexed": true,
          "internalType": "address",
          "name": "user",
          "type": "address"
        },
        {
          "indexed": false,
          "internalType": "uint256",
          "name": "shares",
          "type": "uint256"
        },
        {
          "indexed": false,
          "internalType": "uint256",
          "name": "requestId",
          "type": "uint256"
        }
      ],
      "name": "WithdrawRequested",
      "type": "event"
    },
    {
      "inputs": [],
      "name": "UPGRADE_INTERFACE_VERSION",
      "outputs": [
        {
          "internalType": "string",
          "name": "",
          "type": "string"
        }
      ],
      "stateMutability": "view",
      "type": "function"
    },
    {
      "inputs": [],
      "name": "acceptOwnership",
      "outputs": [],
      "stateMutability": "nonpayable",
      "type": "function"
    },
    {
      "inputs": [
        {
          "internalType": "address",
          "name": "owner",
          "type": "address"
        },
        {
          "internalType": "address",
          "name": "spender",
          "type": "address"
        }
      ],
      "name": "allowance",
      "outputs": [
        {
          "internalType": "uint256",
          "name": "",
          "type": "uint256"
        }
      ],
      "stateMutability": "view",
      "type": "function"
    },
    {
      "inputs": [
        {
          "internalType": "address",
          "name": "spender",
          "type": "address"
        },
        {
          "internalType": "uint256",
          "name": "value",
          "type": "uint256"
        }
      ],
      "name": "approve",
      "outputs": [
        {
          "internalType": "bool",
          "name": "",
          "type": "bool"
        }
      ],
      "stateMutability": "nonpayable",
      "type": "function"
    },
    {
      "inputs": [],
      "name": "asset",
      "outputs": [
        {
          "internalType": "address",
          "name": "",
          "type": "address"
        }
      ],
      "stateMutability": "view",
      "type": "function"
    },
    {
      "inputs": [
        {
          "internalType": "address",
          "name": "account",
          "type": "address"
        }
      ],
      "name": "balanceOf",
      "outputs": [
        {
          "internalType": "uint256",
          "name": "",
          "type": "uint256"
        }
      ],
      "stateMutability": "view",
      "type": "function"
    },
    {
      "inputs": [],
      "name": "config",
      "outputs": [
        {
          "internalType": "contract IOrionConfig",
          "name": "",
          "type": "address"
        }
      ],
      "stateMutability": "view",
      "type": "function"
    },
    {
      "inputs": [
        {
          "internalType": "uint256",
          "name": "shares",
          "type": "uint256"
        }
      ],
      "name": "convertToAssets",
      "outputs": [
        {
          "internalType": "uint256",
          "name": "",
          "type": "uint256"
        }
      ],
      "stateMutability": "view",
      "type": "function"
    },
    {
      "inputs": [
        {
          "internalType": "uint256",
          "name": "assets",
          "type": "uint256"
        }
      ],
      "name": "convertToShares",
      "outputs": [
        {
          "internalType": "uint256",
          "name": "",
          "type": "uint256"
        }
      ],
      "stateMutability": "view",
      "type": "function"
    },
    {
      "inputs": [],
      "name": "curator",
      "outputs": [
        {
          "internalType": "address",
          "name": "",
          "type": "address"
        }
      ],
      "stateMutability": "view",
      "type": "function"
    },
    {
      "inputs": [],
      "name": "decimals",
      "outputs": [
        {
          "internalType": "uint8",
          "name": "",
          "type": "uint8"
        }
      ],
      "stateMutability": "view",
      "type": "function"
    },
    {
      "inputs": [],
      "name": "deployer",
      "outputs": [
        {
          "internalType": "address",
          "name": "",
          "type": "address"
        }
      ],
      "stateMutability": "view",
      "type": "function"
    },
    {
      "inputs": [
        {
          "internalType": "uint256",
          "name": "",
          "type": "uint256"
        },
        {
          "internalType": "address",
          "name": "",
          "type": "address"
        }
      ],
      "name": "deposit",
      "outputs": [
        {
          "internalType": "uint256",
          "name": "",
          "type": "uint256"
        }
      ],
      "stateMutability": "pure",
      "type": "function"
    },
    {
      "inputs": [],
      "name": "getPendingDeposits",
      "outputs": [
        {
          "internalType": "uint256",
          "name": "",
          "type": "uint256"
        }
      ],
      "stateMutability": "view",
      "type": "function"
    },
    {
      "inputs": [],
      "name": "getPendingWithdrawals",
      "outputs": [
        {
          "internalType": "uint256",
          "name": "",
          "type": "uint256"
        }
      ],
      "stateMutability": "view",
      "type": "function"
    },
    {
      "inputs": [
        {
          "internalType": "address",
          "name": "_curator",
          "type": "address"
        },
        {
          "internalType": "contract IOrionConfig",
          "name": "_config",
          "type": "address"
        },
        {
          "internalType": "string",
          "name": "_name",
          "type": "string"
        },
        {
          "internalType": "string",
          "name": "_symbol",
          "type": "string"
        }
      ],
      "name": "initialize",
      "outputs": [],
      "stateMutability": "nonpayable",
      "type": "function"
    },
    {
      "inputs": [
        {
          "internalType": "address",
          "name": "",
          "type": "address"
        }
      ],
      "name": "maxDeposit",
      "outputs": [
        {
          "internalType": "uint256",
          "name": "",
          "type": "uint256"
        }
      ],
      "stateMutability": "view",
      "type": "function"
    },
    {
      "inputs": [
        {
          "internalType": "address",
          "name": "",
          "type": "address"
        }
      ],
      "name": "maxMint",
      "outputs": [
        {
          "internalType": "uint256",
          "name": "",
          "type": "uint256"
        }
      ],
      "stateMutability": "view",
      "type": "function"
    },
    {
      "inputs": [
        {
          "internalType": "address",
          "name": "owner",
          "type": "address"
        }
      ],
      "name": "maxRedeem",
      "outputs": [
        {
          "internalType": "uint256",
          "name": "",
          "type": "uint256"
        }
      ],
      "stateMutability": "view",
      "type": "function"
    },
    {
      "inputs": [
        {
          "internalType": "address",
          "name": "owner",
          "type": "address"
        }
      ],
      "name": "maxWithdraw",
      "outputs": [
        {
          "internalType": "uint256",
          "name": "",
          "type": "uint256"
        }
      ],
      "stateMutability": "view",
      "type": "function"
    },
    {
      "inputs": [
        {
          "internalType": "uint256",
          "name": "",
          "type": "uint256"
        },
        {
          "internalType": "address",
          "name": "",
          "type": "address"
        }
      ],
      "name": "mint",
      "outputs": [
        {
          "internalType": "uint256",
          "name": "",
          "type": "uint256"
        }
      ],
      "stateMutability": "pure",
      "type": "function"
    },
    {
      "inputs": [],
      "name": "name",
      "outputs": [
        {
          "internalType": "string",
          "name": "",
          "type": "string"
        }
      ],
      "stateMutability": "view",
      "type": "function"
    },
    {
      "inputs": [],
      "name": "owner",
      "outputs": [
        {
          "internalType": "address",
          "name": "",
          "type": "address"
        }
      ],
      "stateMutability": "view",
      "type": "function"
    },
    {
      "inputs": [],
      "name": "pendingOwner",
      "outputs": [
        {
          "internalType": "address",
          "name": "",
          "type": "address"
        }
      ],
      "stateMutability": "view",
      "type": "function"
    },
    {
      "inputs": [
        {
          "internalType": "uint256",
          "name": "assets",
          "type": "uint256"
        }
      ],
      "name": "previewDeposit",
      "outputs": [
        {
          "internalType": "uint256",
          "name": "",
          "type": "uint256"
        }
      ],
      "stateMutability": "view",
      "type": "function"
    },
    {
      "inputs": [
        {
          "internalType": "uint256",
          "name": "shares",
          "type": "uint256"
        }
      ],
      "name": "previewMint",
      "outputs": [
        {
          "internalType": "uint256",
          "name": "",
          "type": "uint256"
        }
      ],
      "stateMutability": "view",
      "type": "function"
    },
    {
      "inputs": [
        {
          "internalType": "uint256",
          "name": "shares",
          "type": "uint256"
        }
      ],
      "name": "previewRedeem",
      "outputs": [
        {
          "internalType": "uint256",
          "name": "",
          "type": "uint256"
        }
      ],
      "stateMutability": "view",
      "type": "function"
    },
    {
      "inputs": [
        {
          "internalType": "uint256",
          "name": "assets",
          "type": "uint256"
        }
      ],
      "name": "previewWithdraw",
      "outputs": [
        {
          "internalType": "uint256",
          "name": "",
          "type": "uint256"
        }
      ],
      "stateMutability": "view",
      "type": "function"
    },
    {
      "inputs": [],
      "name": "processDepositRequests",
      "outputs": [],
      "stateMutability": "nonpayable",
      "type": "function"
    },
    {
      "inputs": [],
      "name": "processWithdrawRequests",
      "outputs": [],
      "stateMutability": "nonpayable",
      "type": "function"
    },
    {
      "inputs": [],
      "name": "proxiableUUID",
      "outputs": [
        {
          "internalType": "bytes32",
          "name": "",
          "type": "bytes32"
        }
      ],
      "stateMutability": "view",
      "type": "function"
    },
    {
      "inputs": [
        {
          "internalType": "uint256",
          "name": "",
          "type": "uint256"
        },
        {
          "internalType": "address",
          "name": "",
          "type": "address"
        },
        {
          "internalType": "address",
          "name": "",
          "type": "address"
        }
      ],
      "name": "redeem",
      "outputs": [
        {
          "internalType": "uint256",
          "name": "",
          "type": "uint256"
        }
      ],
      "stateMutability": "pure",
      "type": "function"
    },
    {
      "inputs": [],
      "name": "renounceOwnership",
      "outputs": [],
      "stateMutability": "nonpayable",
      "type": "function"
    },
    {
      "inputs": [
        {
          "internalType": "uint256",
          "name": "amount",
          "type": "uint256"
        }
      ],
      "name": "requestDeposit",
      "outputs": [],
      "stateMutability": "nonpayable",
      "type": "function"
    },
    {
      "inputs": [
        {
          "internalType": "uint256",
          "name": "shares",
          "type": "uint256"
        }
      ],
      "name": "requestWithdraw",
      "outputs": [],
      "stateMutability": "nonpayable",
      "type": "function"
    },
    {
      "inputs": [],
      "name": "sharePrice",
      "outputs": [
        {
          "internalType": "uint256",
          "name": "",
          "type": "uint256"
        }
      ],
      "stateMutability": "view",
      "type": "function"
    },
    {
      "inputs": [
        {
          "components": [
            {
              "internalType": "address",
              "name": "token",
              "type": "address"
            },
            {
              "internalType": "uint32",
              "name": "amount",
              "type": "uint32"
            }
          ],
          "internalType": "struct IOrionTransparentVault.Order[]",
          "name": "order",
          "type": "tuple[]"
        }
      ],
      "name": "submitOrderIntent",
      "outputs": [],
      "stateMutability": "nonpayable",
      "type": "function"
    },
    {
      "inputs": [],
      "name": "symbol",
      "outputs": [
        {
          "internalType": "string",
          "name": "",
          "type": "string"
        }
      ],
      "stateMutability": "view",
      "type": "function"
    },
    {
      "inputs": [],
      "name": "totalAssets",
      "outputs": [
        {
          "internalType": "uint256",
          "name": "",
          "type": "uint256"
        }
      ],
      "stateMutability": "view",
      "type": "function"
    },
    {
      "inputs": [],
      "name": "totalSupply",
      "outputs": [
        {
          "internalType": "uint256",
          "name": "",
          "type": "uint256"
        }
      ],
      "stateMutability": "view",
      "type": "function"
    },
    {
      "inputs": [
        {
          "internalType": "address",
          "name": "to",
          "type": "address"
        },
        {
          "internalType": "uint256",
          "name": "value",
          "type": "uint256"
        }
      ],
      "name": "transfer",
      "outputs": [
        {
          "internalType": "bool",
          "name": "",
          "type": "bool"
        }
      ],
      "stateMutability": "nonpayable",
      "type": "function"
    },
    {
      "inputs": [
        {
          "internalType": "address",
          "name": "from",
          "type": "address"
        },
        {
          "internalType": "address",
          "name": "to",
          "type": "address"
        },
        {
          "internalType": "uint256",
          "name": "value",
          "type": "uint256"
        }
      ],
      "name": "transferFrom",
      "outputs": [
        {
          "internalType": "bool",
          "name": "",
          "type": "bool"
        }
      ],
      "stateMutability": "nonpayable",
      "type": "function"
    },
    {
      "inputs": [
        {
          "internalType": "address",
          "name": "newOwner",
          "type": "address"
        }
      ],
      "name": "transferOwnership",
      "outputs": [],
      "stateMutability": "nonpayable",
      "type": "function"
    },
    {
      "inputs": [
        {
          "internalType": "uint256",
          "name": "newSharePrice",
          "type": "uint256"
        },
        {
          "internalType": "uint256",
          "name": "newTotalAssets",
          "type": "uint256"
        }
      ],
      "name": "updateVaultState",
      "outputs": [],
      "stateMutability": "nonpayable",
      "type": "function"
    },
    {
      "inputs": [
        {
          "internalType": "address",
          "name": "newImplementation",
          "type": "address"
        },
        {
          "internalType": "bytes",
          "name": "data",
          "type": "bytes"
        }
      ],
      "name": "upgradeToAndCall",
      "outputs": [],
      "stateMutability": "payable",
      "type": "function"
    },
    {
      "inputs": [
        {
          "internalType": "uint256",
          "name": "",
          "type": "uint256"
        },
        {
          "internalType": "address",
          "name": "",
          "type": "address"
        },
        {
          "internalType": "address",
          "name": "",
          "type": "address"
        }
      ],
      "name": "withdraw",
      "outputs": [
        {
          "internalType": "uint256",
          "name": "",
          "type": "uint256"
        }
      ],
      "stateMutability": "pure",
      "type": "function"
    },
    {
      "inputs": [
        {
          "internalType": "uint256",
          "name": "amount",
          "type": "uint256"
        }
      ],
      "name": "withdrawDepositRequest",
      "outputs": [],
      "stateMutability": "nonpayable",
      "type": "function"
    }
  ],
  "bytecode": "0x60a0604052306080523480156012575f80fd5b506080516130236100395f395f8181611ca901528181611cd20152611e3401526130235ff3fe608060405260043610610280575f3560e01c806379ba509711610155578063c63d75b6116100be578063dd62ed3e11610078578063dd62ed3e14610715578063e30c397814610734578063e66f53b714610748578063ef8b30f714610767578063f2fde38b14610786578063fb12251b146107a5575f80fd5b8063c63d75b61461044c578063c6e6f59214610685578063ce96cb77146106a4578063d1699c26146106c3578063d5f39488146106d7578063d905777e146106f6575f80fd5b8063aa9d3a601161010f578063aa9d3a60146105d0578063ad3cb1cc146105e4578063b3d7f6b914610614578063b460af9414610633578063ba08765214610652578063c37fc8a814610671575f80fd5b806379ba50971461056057806387269729146105745780638da5cb5b1461058957806394bf804d146104d157806395d89b411461059d578063a9059cbb146105b1575f80fd5b806333fdc592116101f757806352d1902d116101b157806352d1902d146104bd5780636e553f65146104d157806370a08231146104f0578063715018a61461050f578063745400c91461052357806379502c5514610542575f80fd5b806333fdc5921461040c57806338d52e0f14610420578063402d267d1461044c5780634368eb1c1461046c5780634cdad5061461048b5780634f1ef286146104aa575f80fd5b80630d1e6667116102485780630d1e66671461033557806318160ddd146103565780632016a0d21461038957806323b872dd146103a8578063313ce567146103c7578063329f0123146103ed575f80fd5b806301e1d1141461028457806306fdde03146102a757806307a2d13a146102c8578063095ea7b3146102e75780630a28a47714610316575b5f80fd5b34801561028f575f80fd5b506004545b6040519081526020015b60405180910390f35b3480156102b2575f80fd5b506102bb6107c4565b60405161029e9190612868565b3480156102d3575f80fd5b506102946102e236600461289d565b610884565b3480156102f2575f80fd5b506103066103013660046128c8565b6108ae565b604051901515815260200161029e565b348015610321575f80fd5b5061029461033036600461289d565b6108c5565b348015610340575f80fd5b5061035461034f36600461289d565b6108d1565b005b348015610361575f80fd5b507f52c63247e1f47db19d5ce0460030c497f067ca4cebf71ba98eeadabe20bace0254610294565b348015610394575f80fd5b506103546103a336600461299b565b610a6c565b3480156103b3575f80fd5b506103066103c2366004612a24565b610b6b565b3480156103d2575f80fd5b506103db610b90565b60405160ff909116815260200161029e565b3480156103f8575f80fd5b50610354610407366004612a62565b610bd2565b348015610417575f80fd5b50610354610cdc565b34801561042b575f80fd5b50610434610e76565b6040516001600160a01b03909116815260200161029e565b348015610457575f80fd5b50610294610466366004612a82565b505f1990565b348015610477575f80fd5b5061035461048636600461289d565b610eaa565b348015610496575f80fd5b506102946104a536600461289d565b610fe1565b6103546104b8366004612a9d565b610fec565b3480156104c8575f80fd5b5061029461100b565b3480156104dc575f80fd5b506102946104eb366004612afd565b611026565b3480156104fb575f80fd5b5061029461050a366004612a82565b611040565b34801561051a575f80fd5b50610354611066565b34801561052e575f80fd5b5061035461053d36600461289d565b611077565b34801561054d575f80fd5b505f54610434906001600160a01b031681565b34801561056b575f80fd5b5061035461118d565b34801561057f575f80fd5b5061029460035481565b348015610594575f80fd5b506104346111d5565b3480156105a8575f80fd5b506102bb6111fd565b3480156105bc575f80fd5b506103066105cb3660046128c8565b61123b565b3480156105db575f80fd5b50610354611248565b3480156105ef575f80fd5b506102bb604051806040016040528060058152602001640352e302e360dc1b81525081565b34801561061f575f80fd5b5061029461062e36600461289d565b611438565b34801561063e575f80fd5b5061029461064d366004612b2b565b611444565b34801561065d575f80fd5b5061029461066c366004612b2b565b61145d565b34801561067c575f80fd5b50610294611477565b348015610690575f80fd5b5061029461069f36600461289d565b6114d9565b3480156106af575f80fd5b506102946106be366004612a82565b6114f2565b3480156106ce575f80fd5b50610294611505565b3480156106e2575f80fd5b50600254610434906001600160a01b031681565b348015610701575f80fd5b50610294610710366004612a82565b611561565b348015610720575f80fd5b5061029461072f366004612b6a565b61156b565b34801561073f575f80fd5b506104346115b4565b348015610753575f80fd5b50600154610434906001600160a01b031681565b348015610772575f80fd5b5061029461078136600461289d565b6115dc565b348015610791575f80fd5b506103546107a0366004612a82565b6115e7565b3480156107b0575f80fd5b506103546107bf366004612b96565b61166c565b7f52c63247e1f47db19d5ce0460030c497f067ca4cebf71ba98eeadabe20bace0380546060915f80516020612fae8339815191529161080290612c07565b80601f016020809104026020016040519081016040528092919081815260200182805461082e90612c07565b80156108795780601f1061085057610100808354040283529160200191610879565b820191905f5260205f20905b81548152906001019060200180831161085c57829003601f168201915b505050505091505090565b5f61088d610b90565b60ff166003548361089e9190612c4d565b6108a89190612c78565b92915050565b5f336108bb81858561191c565b5060019392505050565b5f6108a882600161192e565b805f0361090a576108e0610e76565b604051636b30633560e01b81526001600160a01b0390911660048201526024015b60405180910390fd5b335f90815260056020526040812054900361096157600780546001810182555f919091527fa66cc928b5edb82af9bd49922954155ab7b0942694bea4ce44661d9a8736c6880180546001600160a01b031916331790555b335f908152600560205260408120805483929061097f908490612c8b565b909155505f905061098e610e76565b6040516323b872dd60e01b8152336004820152306024820152604481018490526001600160a01b0391909116906323b872dd906064016020604051808303815f875af11580156109e0573d5f803e3d5ffd5b505050506040513d601f19601f82011682018060405250810190610a049190612c9e565b905080610a24576040516312171d8360e31b815260040160405180910390fd5b60075460405133917f03979a8c481a9e9c06938045cfd5c28535255cb003b10a8fe84ebb3cb4d440f291610a6091868252602082015260400190565b60405180910390a25050565b5f610a75611980565b805490915060ff600160401b820416159067ffffffffffffffff165f81158015610a9c5750825b90505f8267ffffffffffffffff166001148015610ab85750303b155b905081158015610ac6575080155b15610ae45760405163f92ee8a960e01b815260040160405180910390fd5b845467ffffffffffffffff191660011785558315610b0e57845460ff60401b1916600160401b1785555b610b1a898989896119a8565b8315610b6057845460ff60401b19168555604051600181527fc7f505b2f371ae2175ee4913f4499e1f2633a7b5936321eed1cdaeb6115181d29060200160405180910390a15b505050505050505050565b5f33610b78858285611aea565b610b83858585611b4e565b60019150505b9392505050565b5f807f0773e532dfede91f04b12a73d3d2acd361424f41f76b4fb79f090161e36b4e0090505f8154610bcc9190600160a01b900460ff16612cbd565b91505090565b5f8054906101000a90046001600160a01b03166001600160a01b031663348ec5c86040518163ffffffff1660e01b8152600401602060405180830381865afa158015610c20573d5f803e3d5ffd5b505050506040513d601f19601f82011682018060405250810190610c449190612cd6565b6001600160a01b0316336001600160a01b031614610c755760405163efb380d960e01b815260040160405180910390fd5b815f03610c9557604051634dfba02360e01b815260040160405180910390fd5b6003829055600481905560408051838152602081018390527f420468cf8110435de2f48db96f01d6a65a842cb7ac5852c11fcbac8dc93b46b3910160405180910390a15050565b5f8054906101000a90046001600160a01b03166001600160a01b0316633a0dad8e6040518163ffffffff1660e01b8152600401602060405180830381865afa158015610d2a573d5f803e3d5ffd5b505050506040513d601f19601f82011682018060405250810190610d4e9190612cd6565b6001600160a01b0316336001600160a01b031614610d7f57604051631af2ab4f60e31b815260040160405180910390fd5b610d87611bab565b5f5b600754811015610e4a575f60078281548110610da757610da7612cf1565b5f9182526020808320909101546001600160a01b03168083526005909152604082205490925090610dd7826115dc565b6001600160a01b0384165f908152600560205260408120559050610dfb8382611bf5565b60408051838152602081018690526001600160a01b038516917f782ea2005b7f873a0190a1ccb553c732171348d6e16d2b7d3d493c0677dc296e910160405180910390a2505050600101610d89565b50610e7460017f9b779b17422d0df92223018b32b4d1fa46e071723d6817e2486d003becc55f0055565b565b5f807f0773e532dfede91f04b12a73d3d2acd361424f41f76b4fb79f090161e36b4e005b546001600160a01b031692915050565b805f03610eb9576108e0610e76565b335f90815260056020526040902054811115610ee8576040516332194fd360e21b815260040160405180910390fd5b335f9081526005602052604081208054839290610f06908490612d05565b909155505f9050610f15610e76565b60405163a9059cbb60e01b8152336004820152602481018490526001600160a01b03919091169063a9059cbb906044016020604051808303815f875af1158015610f61573d5f803e3d5ffd5b505050506040513d601f19601f82011682018060405250810190610f859190612c9e565b905080610fa5576040516312171d8360e31b815260040160405180910390fd5b60075460405133917f3c121205405bd3a6cc45661cccddd03e333ae4ef37be94cfa3880f6d616a20c891610a6091868252602082015260400190565b5f6108a8825f611c4f565b610ff4611c9e565b610ffd82611d42565b6110078282611d6d565b5050565b5f611014611e29565b505f80516020612fce83398151915290565b5f6040516318f2e47360e11b815260040160405180910390fd5b6001600160a01b03165f9081525f80516020612fae833981519152602052604090205490565b61106e611e72565b610e745f611ea4565b805f03611097576040516314e6cbb960e11b815260040160405180910390fd5b806110a133611040565b10156110c057604051633c57b48560e21b815260040160405180910390fd5b335f90815260066020526040812054900361111757600880546001810182555f919091527ff3f7a9fe364faab93b216da50a3214154f22a0a2b415b23a84c8169e8b636ee30180546001600160a01b031916331790555b335f9081526006602052604081208054839290611135908490612c8b565b909155506111469050333083611b4e565b60085460405133917fd72eb5d043f24a0168ae744d5c44f9596fd673a26bf74d9646bff4b844882d149161118291858252602082015260400190565b60405180910390a250565b33806111976115b4565b6001600160a01b0316146111c95760405163118cdaa760e01b81526001600160a01b0382166004820152602401610901565b6111d281611ea4565b50565b5f807f9016d09d72d40fdae2fd8ceac6b6234c7706214fd39c1cd1e609a0528c199300610e9a565b7f52c63247e1f47db19d5ce0460030c497f067ca4cebf71ba98eeadabe20bace0480546060915f80516020612fae8339815191529161080290612c07565b5f336108bb818585611b4e565b5f8054906101000a90046001600160a01b03166001600160a01b0316633a0dad8e6040518163ffffffff1660e01b8152600401602060405180830381865afa158015611296573d5f803e3d5ffd5b505050506040513d601f19601f820116820180604052508101906112ba9190612cd6565b6001600160a01b0316336001600160a01b0316146112eb57604051631af2ab4f60e31b815260040160405180910390fd5b6112f3611bab565b5f5b600854811015610e4a575f6008828154811061131357611313612cf1565b5f9182526020808320909101546001600160a01b0316808352600690915260408220805492905591506113463082611edc565b5f61135082610fe1565b905061135a610e76565b60405163a9059cbb60e01b81526001600160a01b03858116600483015260248201849052919091169063a9059cbb906044016020604051808303815f875af11580156113a8573d5f803e3d5ffd5b505050506040513d601f19601f820116820180604052508101906113cc9190612c9e565b6113e9576040516312171d8360e31b815260040160405180910390fd5b60408051838152602081018690526001600160a01b038516917febad37b830b1857ef9af5983fc20dc0ded12dc472ba1e22e06fd3a9465b4506c910160405180910390a25050506001016112f5565b5f6108a8826001611c4f565b5f604051628a595160e01b815260040160405180910390fd5b5f604051630ad8521960e31b815260040160405180910390fd5b5f80805b6008548110156114d35760065f6008838154811061149b5761149b612cf1565b5f9182526020808320909101546001600160a01b031683528201929092526040019020546114c99083612c8b565b915060010161147b565b50919050565b5f6003546114e5610b90565b61089e9060ff1684612c4d565b5f6108a86114ff83611040565b5f611c4f565b5f80805b6007548110156114d35760055f6007838154811061152957611529612cf1565b5f9182526020808320909101546001600160a01b031683528201929092526040019020546115579083612c8b565b9150600101611509565b5f6108a882611040565b6001600160a01b039182165f9081527f52c63247e1f47db19d5ce0460030c497f067ca4cebf71ba98eeadabe20bace016020908152604080832093909416825291909152205490565b5f807f237e158222e3e6968b72b9db0d8043aacf074ad9f650f0d1606b4d82ee432c00610e9a565b5f6108a8825f61192e565b6115ef611e72565b7f237e158222e3e6968b72b9db0d8043aacf074ad9f650f0d1606b4d82ee432c0080546001600160a01b0319166001600160a01b03831690811782556116336111d5565b6001600160a01b03167f38d16b8cac22d99fc7c124b9cd0de2d3fa1faef420bfe791d8c362d765e2270060405160405180910390a35050565b6001546001600160a01b03163314611697576040516356b381a560e01b815260040160405180910390fd5b5f8190036116b857604051631121aa8d60e01b815260040160405180910390fd5b6116c26009611f10565b5f805b8281101561184b575f8484838181106116e0576116e0612cf1565b6116f69260206040909202019081019150612a82565b90505f85858481811061170b5761170b612cf1565b90506040020160200160208101906117239190612d18565b5f54604051633af32abf60e01b81526001600160a01b038581166004830152929350911690633af32abf90602401602060405180830381865afa15801561176c573d5f803e3d5ffd5b505050506040513d601f19601f820116820180604052508101906117909190612c9e565b6117b85760405163751dff9760e11b81526001600160a01b0383166004820152602401610901565b8063ffffffff165f036117e957604051636b30633560e01b81526001600160a01b0383166004820152602401610901565b5f6117ff60098463ffffffff80861690611f1916565b90508061182a576040516346bdabe160e01b81526001600160a01b0384166004820152602401610901565b61183a63ffffffff831686612c8b565b945050600190920191506116c59050565b505f805f9054906101000a90046001600160a01b03166001600160a01b031663d1717c7d6040518163ffffffff1660e01b8152600401602060405180830381865afa15801561189c573d5f803e3d5ffd5b505050506040513d601f19601f820116820180604052508101906118c09190612d3b565b90506118cd81600a612e3e565b82146118ec576040516324204a3560e21b815260040160405180910390fd5b60405133907f2d47a742b8d7df7c1fc5a9a631b206b364e6cb2722490759f63bb3ab14b132e0905f90a250505050565b6119298383836001611f36565b505050565b5f610b8961193d82600a612e3e565b7f52c63247e1f47db19d5ce0460030c497f067ca4cebf71ba98eeadabe20bace02546119699190612c8b565b600454611977906001612c8b565b8591908561201a565b5f807ff0c57e16840df040f15088dc2f81fe391c3923bec73e23a9662efc9c229c6a006108a8565b6119b0612065565b6001600160a01b0384166119d757604051639c6bb9f560e01b815260040160405180910390fd5b6001600160a01b0383166119fe57604051636a485a5b60e11b815260040160405180910390fd5b611a08828261208a565b611a70836001600160a01b0316637158da7c6040518163ffffffff1660e01b8152600401602060405180830381865afa158015611a47573d5f803e3d5ffd5b505050506040513d601f19601f82011682018060405250810190611a6b9190612cd6565b61209c565b611a786120ad565b611a806120bd565b611a886120bd565b611a9184611ea4565b60028054336001600160a01b0319918216179091556001805482166001600160a01b03878116919091179091555f8054909216908516179055611ad2610b90565b611add90600a612e3e565b60035550505f6004555050565b5f611af5848461156b565b90505f19811015611b485781811015611b3a57604051637dc7a0d960e11b81526001600160a01b03841660048201526024810182905260448101839052606401610901565b611b4884848484035f611f36565b50505050565b6001600160a01b038316611b7757604051634b637e8f60e11b81525f6004820152602401610901565b6001600160a01b038216611ba05760405163ec442f0560e01b81525f6004820152602401610901565b6119298383836120c5565b7f9b779b17422d0df92223018b32b4d1fa46e071723d6817e2486d003becc55f00805460011901611bef57604051633ee5aeb560e01b815260040160405180910390fd5b60029055565b6001600160a01b038216611c1e5760405163ec442f0560e01b81525f6004820152602401610901565b6110075f83836120c5565b60017f9b779b17422d0df92223018b32b4d1fa46e071723d6817e2486d003becc55f0055565b5f610b89611c5c60045490565b611c67906001612c8b565b611c725f600a612e3e565b7f52c63247e1f47db19d5ce0460030c497f067ca4cebf71ba98eeadabe20bace02546119779190612c8b565b306001600160a01b037f0000000000000000000000000000000000000000000000000000000000000000161480611d2457507f00000000000000000000000000000000000000000000000000000000000000006001600160a01b0316611d185f80516020612fce833981519152546001600160a01b031690565b6001600160a01b031614155b15610e745760405163703e46dd60e11b815260040160405180910390fd5b6001546001600160a01b031633146111d2576040516356b381a560e01b815260040160405180910390fd5b816001600160a01b03166352d1902d6040518163ffffffff1660e01b8152600401602060405180830381865afa925050508015611dc7575060408051601f3d908101601f19168201909252611dc491810190612e4c565b60015b611def57604051634c9c8ce360e01b81526001600160a01b0383166004820152602401610901565b5f80516020612fce8339815191528114611e1f57604051632a87526960e21b815260048101829052602401610901565b61192983836121fe565b306001600160a01b037f00000000000000000000000000000000000000000000000000000000000000001614610e745760405163703e46dd60e11b815260040160405180910390fd5b33611e7b6111d5565b6001600160a01b031614610e745760405163118cdaa760e01b8152336004820152602401610901565b7f237e158222e3e6968b72b9db0d8043aacf074ad9f650f0d1606b4d82ee432c0080546001600160a01b031916815561100782612253565b6001600160a01b038216611f0557604051634b637e8f60e11b81525f6004820152602401610901565b611007825f836120c5565b6111d2816122c3565b5f611f2e846001600160a01b0385168461230c565b949350505050565b5f80516020612fae8339815191526001600160a01b038516611f6d5760405163e602df0560e01b81525f6004820152602401610901565b6001600160a01b038416611f9657604051634a1406b160e11b81525f6004820152602401610901565b6001600160a01b038086165f9081526001830160209081526040808320938816835292905220839055811561201357836001600160a01b0316856001600160a01b03167f8c5be1e5ebec7d5bd14f71427d1e84f3dd0314c0f7b2291e5b200ac8c7c3b9258560405161200a91815260200190565b60405180910390a35b5050505050565b5f61204761202783612328565b801561204257505f848061203d5761203d612c64565b868809115b151590565b612052868686612354565b61205c9190612c8b565b95945050505050565b61206d612404565b610e7457604051631afcd79f60e31b815260040160405180910390fd5b612092612065565b611007828261241d565b6120a4612065565b6111d28161246d565b6120b5612065565b610e746124f0565b610e74612065565b5f80516020612fae8339815191526001600160a01b0384166120ff5781816002015f8282546120f49190612c8b565b9091555061216f9050565b6001600160a01b0384165f90815260208290526040902054828110156121515760405163391434e360e21b81526001600160a01b03861660048201526024810182905260448101849052606401610901565b6001600160a01b0385165f9081526020839052604090209083900390555b6001600160a01b03831661218d5760028101805483900390556121ab565b6001600160a01b0383165f9081526020829052604090208054830190555b826001600160a01b0316846001600160a01b03167fddf252ad1be2c89b69c2b068fc378daa952ba7f163c4a11628f55a4df523b3ef846040516121f091815260200190565b60405180910390a350505050565b612207826124f8565b6040516001600160a01b038316907fbc7cd75a20ee27fd9adebab32041f755214dbc6bffa90cc0225b39da2e5c2d3b905f90a280511561224b57611929828261255b565b6110076125c4565b7f9016d09d72d40fdae2fd8ceac6b6234c7706214fd39c1cd1e609a0528c19930080546001600160a01b031981166001600160a01b03848116918217845560405192169182907f8be0079c531659141344cd1fd0a4f28419497f9722a3daafe3b4186f6b6457e0905f90a3505050565b5f6122cd826125e3565b90505f5b8181101561230257600283015f6122e885846125ed565b815260208101919091526040015f908120556001016122d1565b50611007826125f8565b5f8281526002840160205260408120829055611f2e8484612601565b5f600282600381111561233d5761233d612e63565b6123479190612e77565b60ff166001149050919050565b5f805f612361868661260c565b91509150815f036123855783818161237b5761237b612c64565b0492505050610b89565b81841161239c5761239c6003851502601118612628565b5f848688095f868103871696879004966002600389028118808a02820302808a02820302808a02820302808a02820302808a02820302808a02909103029181900381900460010185841190960395909502919093039390930492909217029150509392505050565b5f61240d611980565b54600160401b900460ff16919050565b612425612065565b5f80516020612fae8339815191527f52c63247e1f47db19d5ce0460030c497f067ca4cebf71ba98eeadabe20bace0361245e8482612edc565b5060048101611b488382612edc565b612475612065565b7f0773e532dfede91f04b12a73d3d2acd361424f41f76b4fb79f090161e36b4e005f806124a184612639565b91509150816124b15760126124b3565b805b83546001600160a81b031916600160a01b60ff92909216919091026001600160a01b031916176001600160a01b0394909416939093179091555050565b611c29612065565b806001600160a01b03163b5f0361252d57604051634c9c8ce360e01b81526001600160a01b0382166004820152602401610901565b5f80516020612fce83398151915280546001600160a01b0319166001600160a01b0392909216919091179055565b60605f80846001600160a01b0316846040516125779190612f97565b5f60405180830381855af49150503d805f81146125af576040519150601f19603f3d011682016040523d82523d5f602084013e6125b4565b606091505b509150915061205c85838361270f565b3415610e745760405163b398979f60e01b815260040160405180910390fd5b5f6108a88261276b565b5f610b898383612774565b6111d28161279a565b5f610b8983836127f3565b5f805f1983850993909202808410938190039390930393915050565b634e487b715f52806020526024601cfd5b60408051600481526024810182526020810180516001600160e01b031663313ce56760e01b17905290515f918291829182916001600160a01b0387169161267f91612f97565b5f60405180830381855afa9150503d805f81146126b7576040519150601f19603f3d011682016040523d82523d5f602084013e6126bc565b606091505b50915091508180156126d057506020815110155b15612703575f818060200190518101906126ea9190612e4c565b905060ff8111612701576001969095509350505050565b505b505f9485945092505050565b6060826127245761271f8261283f565b610b89565b815115801561273b57506001600160a01b0384163b155b1561276457604051639996b31560e01b81526001600160a01b0385166004820152602401610901565b5080610b89565b5f6108a8825490565b5f825f01828154811061278957612789612cf1565b905f5260205f200154905092915050565b5f6127a3825490565b90505f5b818110156127ec57826001015f845f0183815481106127c8576127c8612cf1565b905f5260205f20015481526020019081526020015f205f90558060010190506127a7565b50505f9055565b5f81815260018301602052604081205461283857508154600181810184555f8481526020808220909301849055845484825282860190935260409020919091556108a8565b505f6108a8565b80511561284f5780518082602001fd5b60405163d6bda27560e01b815260040160405180910390fd5b602081525f82518060208401528060208501604085015e5f604082850101526040601f19601f83011684010191505092915050565b5f602082840312156128ad575f80fd5b5035919050565b6001600160a01b03811681146111d2575f80fd5b5f80604083850312156128d9575f80fd5b82356128e4816128b4565b946020939093013593505050565b634e487b7160e01b5f52604160045260245ffd5b5f8067ffffffffffffffff841115612920576129206128f2565b50604051601f19601f85018116603f0116810181811067ffffffffffffffff8211171561294f5761294f6128f2565b604052838152905080828401851015612966575f80fd5b838360208301375f60208583010152509392505050565b5f82601f83011261298c575f80fd5b610b8983833560208501612906565b5f805f80608085870312156129ae575f80fd5b84356129b9816128b4565b935060208501356129c9816128b4565b9250604085013567ffffffffffffffff8111156129e4575f80fd5b6129f08782880161297d565b925050606085013567ffffffffffffffff811115612a0c575f80fd5b612a188782880161297d565b91505092959194509250565b5f805f60608486031215612a36575f80fd5b8335612a41816128b4565b92506020840135612a51816128b4565b929592945050506040919091013590565b5f8060408385031215612a73575f80fd5b50508035926020909101359150565b5f60208284031215612a92575f80fd5b8135610b89816128b4565b5f8060408385031215612aae575f80fd5b8235612ab9816128b4565b9150602083013567ffffffffffffffff811115612ad4575f80fd5b8301601f81018513612ae4575f80fd5b612af385823560208401612906565b9150509250929050565b5f8060408385031215612b0e575f80fd5b823591506020830135612b20816128b4565b809150509250929050565b5f805f60608486031215612b3d575f80fd5b833592506020840135612b4f816128b4565b91506040840135612b5f816128b4565b809150509250925092565b5f8060408385031215612b7b575f80fd5b8235612b86816128b4565b91506020830135612b20816128b4565b5f8060208385031215612ba7575f80fd5b823567ffffffffffffffff811115612bbd575f80fd5b8301601f81018513612bcd575f80fd5b803567ffffffffffffffff811115612be3575f80fd5b8560208260061b8401011115612bf7575f80fd5b6020919091019590945092505050565b600181811c90821680612c1b57607f821691505b6020821081036114d357634e487b7160e01b5f52602260045260245ffd5b634e487b7160e01b5f52601160045260245ffd5b80820281158282048414176108a8576108a8612c39565b634e487b7160e01b5f52601260045260245ffd5b5f82612c8657612c86612c64565b500490565b808201808211156108a8576108a8612c39565b5f60208284031215612cae575f80fd5b81518015158114610b89575f80fd5b60ff81811683821601908111156108a8576108a8612c39565b5f60208284031215612ce6575f80fd5b8151610b89816128b4565b634e487b7160e01b5f52603260045260245ffd5b818103818111156108a8576108a8612c39565b5f60208284031215612d28575f80fd5b813563ffffffff81168114610b89575f80fd5b5f60208284031215612d4b575f80fd5b815160ff81168114610b89575f80fd5b6001815b6001841115612d9657808504811115612d7a57612d7a612c39565b6001841615612d8857908102905b60019390931c928002612d5f565b935093915050565b5f82612dac575060016108a8565b81612db857505f6108a8565b8160018114612dce5760028114612dd857612df4565b60019150506108a8565b60ff841115612de957612de9612c39565b50506001821b6108a8565b5060208310610133831016604e8410600b8410161715612e17575081810a6108a8565b612e235f198484612d5b565b805f1904821115612e3657612e36612c39565b029392505050565b5f610b8960ff841683612d9e565b5f60208284031215612e5c575f80fd5b5051919050565b634e487b7160e01b5f52602160045260245ffd5b5f60ff831680612e8957612e89612c64565b8060ff84160691505092915050565b601f82111561192957805f5260205f20601f840160051c81016020851015612ebd5750805b601f840160051c820191505b81811015612013575f8155600101612ec9565b815167ffffffffffffffff811115612ef657612ef66128f2565b612f0a81612f048454612c07565b84612e98565b6020601f821160018114612f3c575f8315612f255750848201515b5f19600385901b1c1916600184901b178455612013565b5f84815260208120601f198516915b82811015612f6b5787850151825560209485019460019092019101612f4b565b5084821015612f8857868401515f19600387901b60f8161c191681555b50505050600190811b01905550565b5f82518060208501845e5f92019182525091905056fe52c63247e1f47db19d5ce0460030c497f067ca4cebf71ba98eeadabe20bace00360894a13ba1a3210667c828492db98dca3e2076cc3735a920a3ca505d382bbca26469706673582212206faa4ff3b549bcf151a8d8f24e7ec53143e29a7628cc476fd68dcbeb847a793b64736f6c634300081a0033",
  "linkReferences": {},
  "deployedLinkReferences": {}
}