{
  "_format": "hh-sol-artifact-1",
  "contractName": "OrionTransparentVault",
  "sourceName": "contracts/OrionTransparentVault.sol",
  "abi": [
    {
      "inputs": [
        {
          "internalType": "address",
          "name": "target",
          "type": "address"
        }
      ],
      "name": "AddressEmptyCode",
      "type": "error"
    },
    {
      "inputs": [
        {
          "internalType": "address",
          "name": "asset",
          "type": "address"
        }
      ],
      "name": "AmountMustBeGreaterThanZero",
      "type": "error"
    },
    {
      "inputs": [
        {
          "internalType": "address",
          "name": "implementation",
          "type": "address"
        }
      ],
      "name": "ERC1967InvalidImplementation",
      "type": "error"
    },
    {
      "inputs": [],
      "name": "ERC1967NonPayable",
      "type": "error"
    },
    {
      "inputs": [
        {
          "internalType": "address",
          "name": "spender",
          "type": "address"
        },
        {
          "internalType": "uint256",
          "name": "allowance",
          "type": "uint256"
        },
        {
          "internalType": "uint256",
          "name": "needed",
          "type": "uint256"
        }
      ],
      "name": "ERC20InsufficientAllowance",
      "type": "error"
    },
    {
      "inputs": [
        {
          "internalType": "address",
          "name": "sender",
          "type": "address"
        },
        {
          "internalType": "uint256",
          "name": "balance",
          "type": "uint256"
        },
        {
          "internalType": "uint256",
          "name": "needed",
          "type": "uint256"
        }
      ],
      "name": "ERC20InsufficientBalance",
      "type": "error"
    },
    {
      "inputs": [
        {
          "internalType": "address",
          "name": "approver",
          "type": "address"
        }
      ],
      "name": "ERC20InvalidApprover",
      "type": "error"
    },
    {
      "inputs": [
        {
          "internalType": "address",
          "name": "receiver",
          "type": "address"
        }
      ],
      "name": "ERC20InvalidReceiver",
      "type": "error"
    },
    {
      "inputs": [
        {
          "internalType": "address",
          "name": "sender",
          "type": "address"
        }
      ],
      "name": "ERC20InvalidSender",
      "type": "error"
    },
    {
      "inputs": [
        {
          "internalType": "address",
          "name": "spender",
          "type": "address"
        }
      ],
      "name": "ERC20InvalidSpender",
      "type": "error"
    },
    {
      "inputs": [
        {
          "internalType": "address",
          "name": "receiver",
          "type": "address"
        },
        {
          "internalType": "uint256",
          "name": "assets",
          "type": "uint256"
        },
        {
          "internalType": "uint256",
          "name": "max",
          "type": "uint256"
        }
      ],
      "name": "ERC4626ExceededMaxDeposit",
      "type": "error"
    },
    {
      "inputs": [
        {
          "internalType": "address",
          "name": "receiver",
          "type": "address"
        },
        {
          "internalType": "uint256",
          "name": "shares",
          "type": "uint256"
        },
        {
          "internalType": "uint256",
          "name": "max",
          "type": "uint256"
        }
      ],
      "name": "ERC4626ExceededMaxMint",
      "type": "error"
    },
    {
      "inputs": [
        {
          "internalType": "address",
          "name": "owner",
          "type": "address"
        },
        {
          "internalType": "uint256",
          "name": "shares",
          "type": "uint256"
        },
        {
          "internalType": "uint256",
          "name": "max",
          "type": "uint256"
        }
      ],
      "name": "ERC4626ExceededMaxRedeem",
      "type": "error"
    },
    {
      "inputs": [
        {
          "internalType": "address",
          "name": "owner",
          "type": "address"
        },
        {
          "internalType": "uint256",
          "name": "assets",
          "type": "uint256"
        },
        {
          "internalType": "uint256",
          "name": "max",
          "type": "uint256"
        }
      ],
      "name": "ERC4626ExceededMaxWithdraw",
      "type": "error"
    },
    {
      "inputs": [],
      "name": "FailedCall",
      "type": "error"
    },
    {
      "inputs": [],
      "name": "InvalidConfigAddress",
      "type": "error"
    },
    {
      "inputs": [],
      "name": "InvalidCuratorAddress",
      "type": "error"
    },
    {
      "inputs": [],
      "name": "InvalidInitialization",
      "type": "error"
    },
    {
      "inputs": [],
      "name": "InvalidTotalWeight",
      "type": "error"
    },
    {
      "inputs": [],
      "name": "NotCurator",
      "type": "error"
    },
    {
      "inputs": [],
      "name": "NotEnoughDepositRequest",
      "type": "error"
    },
    {
      "inputs": [],
      "name": "NotEnoughShares",
      "type": "error"
    },
    {
      "inputs": [],
      "name": "NotInitializing",
      "type": "error"
    },
    {
      "inputs": [],
      "name": "NotInternalStatesOrchestrator",
      "type": "error"
    },
    {
      "inputs": [],
      "name": "NotLiquidityOrchestrator",
      "type": "error"
    },
    {
      "inputs": [],
      "name": "OrderIntentCannotBeEmpty",
      "type": "error"
    },
    {
      "inputs": [
        {
          "internalType": "address",
          "name": "owner",
          "type": "address"
        }
      ],
      "name": "OwnableInvalidOwner",
      "type": "error"
    },
    {
      "inputs": [
        {
          "internalType": "address",
          "name": "account",
          "type": "address"
        }
      ],
      "name": "OwnableUnauthorizedAccount",
      "type": "error"
    },
    {
      "inputs": [],
      "name": "ReentrancyGuardReentrantCall",
      "type": "error"
    },
    {
      "inputs": [],
      "name": "SharesMustBeGreaterThanZero",
      "type": "error"
    },
    {
      "inputs": [],
      "name": "SynchronousDepositsDisabled",
      "type": "error"
    },
    {
      "inputs": [],
      "name": "SynchronousRedemptionsDisabled",
      "type": "error"
    },
    {
      "inputs": [],
      "name": "SynchronousWithdrawalsDisabled",
      "type": "error"
    },
    {
      "inputs": [
        {
          "internalType": "address",
          "name": "token",
          "type": "address"
        }
      ],
      "name": "TokenAlreadyInOrder",
      "type": "error"
    },
    {
      "inputs": [
        {
          "internalType": "address",
          "name": "token",
          "type": "address"
        }
      ],
      "name": "TokenNotWhitelisted",
      "type": "error"
    },
    {
      "inputs": [],
      "name": "TransferFailed",
      "type": "error"
    },
    {
      "inputs": [],
      "name": "UUPSUnauthorizedCallContext",
      "type": "error"
    },
    {
      "inputs": [
        {
          "internalType": "bytes32",
          "name": "slot",
          "type": "bytes32"
        }
      ],
      "name": "UUPSUnsupportedProxiableUUID",
      "type": "error"
    },
    {
      "inputs": [],
      "name": "ZeroPrice",
      "type": "error"
    },
    {
      "anonymous": false,
      "inputs": [
        {
          "indexed": true,
          "internalType": "address",
          "name": "owner",
          "type": "address"
        },
        {
          "indexed": true,
          "internalType": "address",
          "name": "spender",
          "type": "address"
        },
        {
          "indexed": false,
          "internalType": "uint256",
          "name": "value",
          "type": "uint256"
        }
      ],
      "name": "Approval",
      "type": "event"
    },
    {
      "anonymous": false,
      "inputs": [
        {
          "indexed": true,
          "internalType": "address",
          "name": "sender",
          "type": "address"
        },
        {
          "indexed": true,
          "internalType": "address",
          "name": "owner",
          "type": "address"
        },
        {
          "indexed": false,
          "internalType": "uint256",
          "name": "assets",
          "type": "uint256"
        },
        {
          "indexed": false,
          "internalType": "uint256",
          "name": "shares",
          "type": "uint256"
        }
      ],
      "name": "Deposit",
      "type": "event"
    },
    {
      "anonymous": false,
      "inputs": [
        {
          "indexed": true,
          "internalType": "address",
          "name": "user",
          "type": "address"
        },
        {
          "indexed": false,
          "internalType": "uint256",
          "name": "amount",
          "type": "uint256"
        },
        {
          "indexed": false,
          "internalType": "uint256",
          "name": "requestId",
          "type": "uint256"
        }
      ],
      "name": "DepositProcessed",
      "type": "event"
    },
    {
      "anonymous": false,
      "inputs": [
        {
          "indexed": true,
          "internalType": "address",
          "name": "user",
          "type": "address"
        },
        {
          "indexed": false,
          "internalType": "uint256",
          "name": "amount",
          "type": "uint256"
        },
        {
          "indexed": false,
          "internalType": "uint256",
          "name": "depositorCount",
          "type": "uint256"
        }
      ],
      "name": "DepositRequestCancelled",
      "type": "event"
    },
    {
      "anonymous": false,
      "inputs": [
        {
          "indexed": true,
          "internalType": "address",
          "name": "user",
          "type": "address"
        },
        {
          "indexed": false,
          "internalType": "uint256",
          "name": "amount",
          "type": "uint256"
        },
        {
          "indexed": false,
          "internalType": "uint256",
          "name": "requestId",
          "type": "uint256"
        }
      ],
      "name": "DepositRequested",
      "type": "event"
    },
    {
      "anonymous": false,
      "inputs": [
        {
          "indexed": false,
          "internalType": "uint64",
          "name": "version",
          "type": "uint64"
        }
      ],
      "name": "Initialized",
      "type": "event"
    },
    {
      "anonymous": false,
      "inputs": [
        {
          "indexed": true,
          "internalType": "address",
          "name": "curator",
          "type": "address"
        }
      ],
      "name": "OrderSubmitted",
      "type": "event"
    },
    {
      "anonymous": false,
      "inputs": [
        {
          "indexed": true,
          "internalType": "address",
          "name": "previousOwner",
          "type": "address"
        },
        {
          "indexed": true,
          "internalType": "address",
          "name": "newOwner",
          "type": "address"
        }
      ],
      "name": "OwnershipTransferStarted",
      "type": "event"
    },
    {
      "anonymous": false,
      "inputs": [
        {
          "indexed": true,
          "internalType": "address",
          "name": "previousOwner",
          "type": "address"
        },
        {
          "indexed": true,
          "internalType": "address",
          "name": "newOwner",
          "type": "address"
        }
      ],
      "name": "OwnershipTransferred",
      "type": "event"
    },
    {
      "anonymous": false,
      "inputs": [
        {
          "indexed": true,
          "internalType": "address",
          "name": "from",
          "type": "address"
        },
        {
          "indexed": true,
          "internalType": "address",
          "name": "to",
          "type": "address"
        },
        {
          "indexed": false,
          "internalType": "uint256",
          "name": "value",
          "type": "uint256"
        }
      ],
      "name": "Transfer",
      "type": "event"
    },
    {
      "anonymous": false,
      "inputs": [
        {
          "indexed": true,
          "internalType": "address",
          "name": "implementation",
          "type": "address"
        }
      ],
      "name": "Upgraded",
      "type": "event"
    },
    {
      "anonymous": false,
      "inputs": [
        {
          "indexed": false,
          "internalType": "uint256",
          "name": "newTotalAssets",
          "type": "uint256"
        }
      ],
      "name": "VaultStateUpdated",
      "type": "event"
    },
    {
      "anonymous": false,
      "inputs": [
        {
          "indexed": true,
          "internalType": "address",
          "name": "sender",
          "type": "address"
        },
        {
          "indexed": true,
          "internalType": "address",
          "name": "receiver",
          "type": "address"
        },
        {
          "indexed": true,
          "internalType": "address",
          "name": "owner",
          "type": "address"
        },
        {
          "indexed": false,
          "internalType": "uint256",
          "name": "assets",
          "type": "uint256"
        },
        {
          "indexed": false,
          "internalType": "uint256",
          "name": "shares",
          "type": "uint256"
        }
      ],
      "name": "Withdraw",
      "type": "event"
    },
    {
      "anonymous": false,
      "inputs": [
        {
          "indexed": true,
          "internalType": "address",
          "name": "user",
          "type": "address"
        },
        {
          "indexed": false,
          "internalType": "uint256",
          "name": "shares",
          "type": "uint256"
        },
        {
          "indexed": false,
          "internalType": "uint256",
          "name": "requestId",
          "type": "uint256"
        }
      ],
      "name": "WithdrawProcessed",
      "type": "event"
    },
    {
      "anonymous": false,
      "inputs": [
        {
          "indexed": true,
          "internalType": "address",
          "name": "user",
          "type": "address"
        },
        {
          "indexed": false,
          "internalType": "uint256",
          "name": "shares",
          "type": "uint256"
        },
        {
          "indexed": false,
          "internalType": "uint256",
          "name": "requestId",
          "type": "uint256"
        }
      ],
      "name": "WithdrawRequested",
      "type": "event"
    },
    {
      "inputs": [],
      "name": "UPGRADE_INTERFACE_VERSION",
      "outputs": [
        {
          "internalType": "string",
          "name": "",
          "type": "string"
        }
      ],
      "stateMutability": "view",
      "type": "function"
    },
    {
      "inputs": [],
      "name": "acceptOwnership",
      "outputs": [],
      "stateMutability": "nonpayable",
      "type": "function"
    },
    {
      "inputs": [
        {
          "internalType": "address",
          "name": "owner",
          "type": "address"
        },
        {
          "internalType": "address",
          "name": "spender",
          "type": "address"
        }
      ],
      "name": "allowance",
      "outputs": [
        {
          "internalType": "uint256",
          "name": "",
          "type": "uint256"
        }
      ],
      "stateMutability": "view",
      "type": "function"
    },
    {
      "inputs": [
        {
          "internalType": "address",
          "name": "spender",
          "type": "address"
        },
        {
          "internalType": "uint256",
          "name": "value",
          "type": "uint256"
        }
      ],
      "name": "approve",
      "outputs": [
        {
          "internalType": "bool",
          "name": "",
          "type": "bool"
        }
      ],
      "stateMutability": "nonpayable",
      "type": "function"
    },
    {
      "inputs": [],
      "name": "asset",
      "outputs": [
        {
          "internalType": "address",
          "name": "",
          "type": "address"
        }
      ],
      "stateMutability": "view",
      "type": "function"
    },
    {
      "inputs": [
        {
          "internalType": "address",
          "name": "account",
          "type": "address"
        }
      ],
      "name": "balanceOf",
      "outputs": [
        {
          "internalType": "uint256",
          "name": "",
          "type": "uint256"
        }
      ],
      "stateMutability": "view",
      "type": "function"
    },
    {
      "inputs": [
        {
          "internalType": "uint256",
          "name": "amount",
          "type": "uint256"
        }
      ],
      "name": "cancelDepositRequest",
      "outputs": [],
      "stateMutability": "nonpayable",
      "type": "function"
    },
    {
      "inputs": [],
      "name": "config",
      "outputs": [
        {
          "internalType": "contract IOrionConfig",
          "name": "",
          "type": "address"
        }
      ],
      "stateMutability": "view",
      "type": "function"
    },
    {
      "inputs": [
        {
          "internalType": "uint256",
          "name": "shares",
          "type": "uint256"
        }
      ],
      "name": "convertToAssets",
      "outputs": [
        {
          "internalType": "uint256",
          "name": "",
          "type": "uint256"
        }
      ],
      "stateMutability": "view",
      "type": "function"
    },
    {
      "inputs": [
        {
          "internalType": "uint256",
          "name": "assets",
          "type": "uint256"
        }
      ],
      "name": "convertToShares",
      "outputs": [
        {
          "internalType": "uint256",
          "name": "",
          "type": "uint256"
        }
      ],
      "stateMutability": "view",
      "type": "function"
    },
    {
      "inputs": [],
      "name": "curator",
      "outputs": [
        {
          "internalType": "address",
          "name": "",
          "type": "address"
        }
      ],
      "stateMutability": "view",
      "type": "function"
    },
    {
      "inputs": [],
      "name": "decimals",
      "outputs": [
        {
          "internalType": "uint8",
          "name": "",
          "type": "uint8"
        }
      ],
      "stateMutability": "view",
      "type": "function"
    },
    {
      "inputs": [],
      "name": "deployer",
      "outputs": [
        {
          "internalType": "address",
          "name": "",
          "type": "address"
        }
      ],
      "stateMutability": "view",
      "type": "function"
    },
    {
      "inputs": [
        {
          "internalType": "uint256",
          "name": "",
          "type": "uint256"
        },
        {
          "internalType": "address",
          "name": "",
          "type": "address"
        }
      ],
      "name": "deposit",
      "outputs": [
        {
          "internalType": "uint256",
          "name": "",
          "type": "uint256"
        }
      ],
      "stateMutability": "pure",
      "type": "function"
    },
    {
      "inputs": [],
      "name": "getPendingDeposits",
      "outputs": [
        {
          "internalType": "uint256",
          "name": "",
          "type": "uint256"
        }
      ],
      "stateMutability": "view",
      "type": "function"
    },
    {
      "inputs": [],
      "name": "getPendingWithdrawals",
      "outputs": [
        {
          "internalType": "uint256",
          "name": "",
          "type": "uint256"
        }
      ],
      "stateMutability": "view",
      "type": "function"
    },
    {
      "inputs": [],
      "name": "getPortfolio",
      "outputs": [
        {
          "internalType": "address[]",
          "name": "tokens",
          "type": "address[]"
        },
        {
          "internalType": "uint256[]",
          "name": "weights",
          "type": "uint256[]"
        }
      ],
      "stateMutability": "view",
      "type": "function"
    },
    {
      "inputs": [
        {
          "internalType": "address",
          "name": "curatorAddress",
          "type": "address"
        },
        {
          "internalType": "contract IOrionConfig",
          "name": "configAddress",
          "type": "address"
        },
        {
          "internalType": "string",
          "name": "name",
          "type": "string"
        },
        {
          "internalType": "string",
          "name": "symbol",
          "type": "string"
        }
      ],
      "name": "initialize",
      "outputs": [],
      "stateMutability": "nonpayable",
      "type": "function"
    },
    {
      "inputs": [
        {
          "internalType": "address",
          "name": "",
          "type": "address"
        }
      ],
      "name": "maxDeposit",
      "outputs": [
        {
          "internalType": "uint256",
          "name": "",
          "type": "uint256"
        }
      ],
      "stateMutability": "view",
      "type": "function"
    },
    {
      "inputs": [
        {
          "internalType": "address",
          "name": "",
          "type": "address"
        }
      ],
      "name": "maxMint",
      "outputs": [
        {
          "internalType": "uint256",
          "name": "",
          "type": "uint256"
        }
      ],
      "stateMutability": "view",
      "type": "function"
    },
    {
      "inputs": [
        {
          "internalType": "address",
          "name": "owner",
          "type": "address"
        }
      ],
      "name": "maxRedeem",
      "outputs": [
        {
          "internalType": "uint256",
          "name": "",
          "type": "uint256"
        }
      ],
      "stateMutability": "view",
      "type": "function"
    },
    {
      "inputs": [
        {
          "internalType": "address",
          "name": "owner",
          "type": "address"
        }
      ],
      "name": "maxWithdraw",
      "outputs": [
        {
          "internalType": "uint256",
          "name": "",
          "type": "uint256"
        }
      ],
      "stateMutability": "view",
      "type": "function"
    },
    {
      "inputs": [
        {
          "internalType": "uint256",
          "name": "",
          "type": "uint256"
        },
        {
          "internalType": "address",
          "name": "",
          "type": "address"
        }
      ],
      "name": "mint",
      "outputs": [
        {
          "internalType": "uint256",
          "name": "",
          "type": "uint256"
        }
      ],
      "stateMutability": "pure",
      "type": "function"
    },
    {
      "inputs": [],
      "name": "name",
      "outputs": [
        {
          "internalType": "string",
          "name": "",
          "type": "string"
        }
      ],
      "stateMutability": "view",
      "type": "function"
    },
    {
      "inputs": [],
      "name": "owner",
      "outputs": [
        {
          "internalType": "address",
          "name": "",
          "type": "address"
        }
      ],
      "stateMutability": "view",
      "type": "function"
    },
    {
      "inputs": [],
      "name": "pendingOwner",
      "outputs": [
        {
          "internalType": "address",
          "name": "",
          "type": "address"
        }
      ],
      "stateMutability": "view",
      "type": "function"
    },
    {
      "inputs": [
        {
          "internalType": "uint256",
          "name": "assets",
          "type": "uint256"
        }
      ],
      "name": "previewDeposit",
      "outputs": [
        {
          "internalType": "uint256",
          "name": "",
          "type": "uint256"
        }
      ],
      "stateMutability": "view",
      "type": "function"
    },
    {
      "inputs": [
        {
          "internalType": "uint256",
          "name": "shares",
          "type": "uint256"
        }
      ],
      "name": "previewMint",
      "outputs": [
        {
          "internalType": "uint256",
          "name": "",
          "type": "uint256"
        }
      ],
      "stateMutability": "view",
      "type": "function"
    },
    {
      "inputs": [
        {
          "internalType": "uint256",
          "name": "shares",
          "type": "uint256"
        }
      ],
      "name": "previewRedeem",
      "outputs": [
        {
          "internalType": "uint256",
          "name": "",
          "type": "uint256"
        }
      ],
      "stateMutability": "view",
      "type": "function"
    },
    {
      "inputs": [
        {
          "internalType": "uint256",
          "name": "assets",
          "type": "uint256"
        }
      ],
      "name": "previewWithdraw",
      "outputs": [
        {
          "internalType": "uint256",
          "name": "",
          "type": "uint256"
        }
      ],
      "stateMutability": "view",
      "type": "function"
    },
    {
      "inputs": [],
      "name": "processDepositRequests",
      "outputs": [],
      "stateMutability": "nonpayable",
      "type": "function"
    },
    {
      "inputs": [],
      "name": "processWithdrawRequests",
      "outputs": [],
      "stateMutability": "nonpayable",
      "type": "function"
    },
    {
      "inputs": [],
      "name": "proxiableUUID",
      "outputs": [
        {
          "internalType": "bytes32",
          "name": "",
          "type": "bytes32"
        }
      ],
      "stateMutability": "view",
      "type": "function"
    },
    {
      "inputs": [
        {
          "internalType": "uint256",
          "name": "",
          "type": "uint256"
        },
        {
          "internalType": "address",
          "name": "",
          "type": "address"
        },
        {
          "internalType": "address",
          "name": "",
          "type": "address"
        }
      ],
      "name": "redeem",
      "outputs": [
        {
          "internalType": "uint256",
          "name": "",
          "type": "uint256"
        }
      ],
      "stateMutability": "pure",
      "type": "function"
    },
    {
      "inputs": [],
      "name": "renounceOwnership",
      "outputs": [],
      "stateMutability": "nonpayable",
      "type": "function"
    },
    {
      "inputs": [
        {
          "internalType": "uint256",
          "name": "amount",
          "type": "uint256"
        }
      ],
      "name": "requestDeposit",
      "outputs": [],
      "stateMutability": "nonpayable",
      "type": "function"
    },
    {
      "inputs": [
        {
          "internalType": "uint256",
          "name": "shares",
          "type": "uint256"
        }
      ],
      "name": "requestWithdraw",
      "outputs": [],
      "stateMutability": "nonpayable",
      "type": "function"
    },
    {
      "inputs": [
        {
          "components": [
            {
              "internalType": "address",
              "name": "token",
              "type": "address"
            },
            {
              "internalType": "uint32",
              "name": "weight",
              "type": "uint32"
            }
          ],
          "internalType": "struct IOrionTransparentVault.Position[]",
          "name": "order",
          "type": "tuple[]"
        }
      ],
      "name": "submitOrderIntent",
      "outputs": [],
      "stateMutability": "nonpayable",
      "type": "function"
    },
    {
      "inputs": [],
      "name": "symbol",
      "outputs": [
        {
          "internalType": "string",
          "name": "",
          "type": "string"
        }
      ],
      "stateMutability": "view",
      "type": "function"
    },
    {
      "inputs": [],
      "name": "totalAssets",
      "outputs": [
        {
          "internalType": "uint256",
          "name": "",
          "type": "uint256"
        }
      ],
      "stateMutability": "view",
      "type": "function"
    },
    {
      "inputs": [],
      "name": "totalSupply",
      "outputs": [
        {
          "internalType": "uint256",
          "name": "",
          "type": "uint256"
        }
      ],
      "stateMutability": "view",
      "type": "function"
    },
    {
      "inputs": [
        {
          "internalType": "address",
          "name": "to",
          "type": "address"
        },
        {
          "internalType": "uint256",
          "name": "value",
          "type": "uint256"
        }
      ],
      "name": "transfer",
      "outputs": [
        {
          "internalType": "bool",
          "name": "",
          "type": "bool"
        }
      ],
      "stateMutability": "nonpayable",
      "type": "function"
    },
    {
      "inputs": [
        {
          "internalType": "address",
          "name": "from",
          "type": "address"
        },
        {
          "internalType": "address",
          "name": "to",
          "type": "address"
        },
        {
          "internalType": "uint256",
          "name": "value",
          "type": "uint256"
        }
      ],
      "name": "transferFrom",
      "outputs": [
        {
          "internalType": "bool",
          "name": "",
          "type": "bool"
        }
      ],
      "stateMutability": "nonpayable",
      "type": "function"
    },
    {
      "inputs": [
        {
          "internalType": "address",
          "name": "newOwner",
          "type": "address"
        }
      ],
      "name": "transferOwnership",
      "outputs": [],
      "stateMutability": "nonpayable",
      "type": "function"
    },
    {
      "inputs": [
        {
          "internalType": "uint256",
          "name": "newTotalAssets",
          "type": "uint256"
        }
      ],
      "name": "updateVaultState",
      "outputs": [],
      "stateMutability": "nonpayable",
      "type": "function"
    },
    {
      "inputs": [
        {
          "internalType": "address",
          "name": "newImplementation",
          "type": "address"
        },
        {
          "internalType": "bytes",
          "name": "data",
          "type": "bytes"
        }
      ],
      "name": "upgradeToAndCall",
      "outputs": [],
      "stateMutability": "payable",
      "type": "function"
    },
    {
      "inputs": [
        {
          "internalType": "uint256",
          "name": "",
          "type": "uint256"
        },
        {
          "internalType": "address",
          "name": "",
          "type": "address"
        },
        {
          "internalType": "address",
          "name": "",
          "type": "address"
        }
      ],
      "name": "withdraw",
      "outputs": [
        {
          "internalType": "uint256",
          "name": "",
          "type": "uint256"
        }
      ],
      "stateMutability": "pure",
      "type": "function"
    }
  ],
  "bytecode": "0x60a0604052306080523480156012575f80fd5b5060805161322b6100395f395f8181611e2701528181611e500152611fb2015261322b5ff3fe608060405260043610610280575f3560e01c80638da5cb5b11610155578063c6e6f592116100be578063dd62ed3e11610078578063dd62ed3e14610703578063e30c397814610722578063e66f53b714610736578063ef8b30f714610651578063f2fde38b14610755578063fb12251b14610774575f80fd5b8063c6e6f59214610651578063ce96cb7714610670578063d1699c261461068f578063d3d03458146106a3578063d5f39488146106c5578063d905777e146106e4575f80fd5b8063b3d7f6b91161010f578063b3d7f6b9146105c1578063b460af94146105e0578063ba087652146105ff578063c0b568e11461061e578063c37fc8a81461063d578063c63d75b61461042d575f80fd5b80638da5cb5b1461053657806394bf804d1461049357806395d89b411461054a578063a9059cbb1461055e578063aa9d3a601461057d578063ad3cb1cc14610591575f80fd5b806338d52e0f116101f75780636e553f65116101b15780636e553f651461049357806370a08231146104b2578063715018a6146104d1578063745400c9146104e557806379502c551461050457806379ba509714610522575f80fd5b806338d52e0f14610401578063402d267d1461042d5780634cdad506146102c85780634f1ef2861461044d57806352d1902d1461046057806369440afc14610474575f80fd5b80630d1e6667116102485780630d1e66671461033557806318160ddd146103565780632016a0d21461038957806323b872dd146103a8578063313ce567146103c757806333fdc592146103ed575f80fd5b806301e1d1141461028457806306fdde03146102a757806307a2d13a146102c8578063095ea7b3146102e75780630a28a47714610316575b5f80fd5b34801561028f575f80fd5b506003545b6040519081526020015b60405180910390f35b3480156102b2575f80fd5b506102bb610793565b60405161029e91906129e7565b3480156102d3575f80fd5b506102946102e2366004612a1c565b610853565b3480156102f2575f80fd5b50610306610301366004612a47565b610864565b604051901515815260200161029e565b348015610321575f80fd5b50610294610330366004612a1c565b61087b565b348015610340575f80fd5b5061035461034f366004612a1c565b610887565b005b348015610361575f80fd5b507f52c63247e1f47db19d5ce0460030c497f067ca4cebf71ba98eeadabe20bace0254610294565b348015610394575f80fd5b506103546103a3366004612ab5565b610a40565b3480156103b3575f80fd5b506103066103c2366004612b47565b610ba6565b3480156103d2575f80fd5b506103db610bcb565b60405160ff909116815260200161029e565b3480156103f8575f80fd5b50610354610c0d565b34801561040c575f80fd5b50610415610d96565b6040516001600160a01b03909116815260200161029e565b348015610438575f80fd5b50610294610447366004612b85565b505f1990565b61035461045b366004612bb4565b610dca565b34801561046b575f80fd5b50610294610de9565b34801561047f575f80fd5b5061035461048e366004612a1c565b610e04565b34801561049e575f80fd5b506102946104ad366004612c77565b610f02565b3480156104bd575f80fd5b506102946104cc366004612b85565b610f1c565b3480156104dc575f80fd5b50610354610f42565b3480156104f0575f80fd5b506103546104ff366004612a1c565b610f53565b34801561050f575f80fd5b505f54610415906001600160a01b031681565b34801561052d575f80fd5b50610354611069565b348015610541575f80fd5b506104156110ae565b348015610555575f80fd5b506102bb6110d6565b348015610569575f80fd5b50610306610578366004612a47565b611114565b348015610588575f80fd5b50610354611121565b34801561059c575f80fd5b506102bb604051806040016040528060058152602001640352e302e360dc1b81525081565b3480156105cc575f80fd5b506102946105db366004612a1c565b611312565b3480156105eb575f80fd5b506102946105fa366004612ca5565b61131e565b34801561060a575f80fd5b50610294610619366004612ca5565b611337565b348015610629575f80fd5b50610354610638366004612a1c565b611351565b348015610648575f80fd5b506102946114a9565b34801561065c575f80fd5b5061029461066b366004612a1c565b611510565b34801561067b575f80fd5b5061029461068a366004612b85565b61151b565b34801561069a575f80fd5b5061029461152e565b3480156106ae575f80fd5b506106b761158d565b60405161029e929190612ce4565b3480156106d0575f80fd5b50600254610415906001600160a01b031681565b3480156106ef575f80fd5b506102946106fe366004612b85565b61162a565b34801561070e575f80fd5b5061029461071d366004612d6d565b611634565b34801561072d575f80fd5b5061041561167d565b348015610741575f80fd5b50600154610415906001600160a01b031681565b348015610760575f80fd5b5061035461076f366004612b85565b6116a5565b34801561077f575f80fd5b5061035461078e366004612d99565b61172a565b7f52c63247e1f47db19d5ce0460030c497f067ca4cebf71ba98eeadabe20bace0380546060915f80516020613196833981519152916107d190612e08565b80601f01602080910402602001604051908101604052809291908181526020018280546107fd90612e08565b80156108485780601f1061081f57610100808354040283529160200191610848565b820191905f5260205f20905b81548152906001019060200180831161082b57829003601f168201915b505050505091505090565b5f61085e825f6119da565b92915050565b5f33610871818585611ab5565b5060019392505050565b5f61085e826001611ac7565b61088f611b8f565b805f036108c85761089e610d96565b604051636b30633560e01b81526001600160a01b0390911660048201526024015b60405180910390fd5b335f90815260046020526040812054900361091f57600680546001810182555f919091527ff652222313e28459528d920b65115c16c04f3efc82aaedc97be59f3f377c0d3f0180546001600160a01b031916331790555b335f908152600460205260408120805483929061093d908490612e54565b909155505f905061094c610d96565b6040516323b872dd60e01b8152336004820152306024820152604481018490526001600160a01b0391909116906323b872dd906064016020604051808303815f875af115801561099e573d5f803e3d5ffd5b505050506040513d601f19601f820116820180604052508101906109c29190612e67565b9050806109e2576040516312171d8360e31b815260040160405180910390fd5b60065460405133917f03979a8c481a9e9c06938045cfd5c28535255cb003b10a8fe84ebb3cb4d440f291610a1e91868252602082015260400190565b60405180910390a250610a3d60015f805160206131d683398151915255565b50565b5f610a49611bd9565b805490915060ff600160401b82041615906001600160401b03165f81158015610a6f5750825b90505f826001600160401b03166001148015610a8a5750303b155b905081158015610a98575080155b15610ab65760405163f92ee8a960e01b815260040160405180910390fd5b845467ffffffffffffffff191660011785558315610ae057845460ff60401b1916600160401b1785555b610b538b8b8b8b8080601f0160208091040260200160405190810160405280939291908181526020018383808284375f9201919091525050604080516020601f8f018190048102820181019092528d815292508d91508c90819084018382808284375f92019190915250611c0192505050565b8315610b9957845460ff60401b19168555604051600181527fc7f505b2f371ae2175ee4913f4499e1f2633a7b5936321eed1cdaeb6115181d29060200160405180910390a15b5050505050505050505050565b5f33610bb3858285611d27565b610bbe858585611d8b565b60019150505b9392505050565b5f807f0773e532dfede91f04b12a73d3d2acd361424f41f76b4fb79f090161e36b4e0090505f8154610c079190600160a01b900460ff16612e86565b91505090565b5f8054906101000a90046001600160a01b03166001600160a01b0316633a0dad8e6040518163ffffffff1660e01b8152600401602060405180830381865afa158015610c5b573d5f803e3d5ffd5b505050506040513d601f19601f82011682018060405250810190610c7f9190612e9f565b6001600160a01b0316336001600160a01b031614610cb057604051631af2ab4f60e31b815260040160405180910390fd5b610cb8611b8f565b6006545f5b81811015610d7c575f60068281548110610cd957610cd9612eba565b5f9182526020808320909101546001600160a01b03168083526004909152604082205490925090610d0982611510565b6001600160a01b0384165f908152600460205260408120559050610d2d8382611de8565b60408051838152602081018690526001600160a01b038516917f782ea2005b7f873a0190a1ccb553c732171348d6e16d2b7d3d493c0677dc296e910160405180910390a2505050600101610cbd565b5050610d9460015f805160206131d683398151915255565b565b5f807f0773e532dfede91f04b12a73d3d2acd361424f41f76b4fb79f090161e36b4e005b546001600160a01b031692915050565b610dd2611e1c565b610ddb82611ec0565b610de58282611eeb565b5050565b5f610df2611fa7565b505f805160206131b683398151915290565b5f8054906101000a90046001600160a01b03166001600160a01b031663348ec5c86040518163ffffffff1660e01b8152600401602060405180830381865afa158015610e52573d5f803e3d5ffd5b505050506040513d601f19601f82011682018060405250810190610e769190612e9f565b6001600160a01b0316336001600160a01b031614610ea75760405163efb380d960e01b815260040160405180910390fd5b805f03610ec757604051634dfba02360e01b815260040160405180910390fd5b60038190556040518181527f5e1ff954b5e5257e9ee5d4cb07059e8f5e69b1aaaf9911e5d8d90a6894de9c219060200160405180910390a150565b5f6040516318f2e47360e11b815260040160405180910390fd5b6001600160a01b03165f9081525f80516020613196833981519152602052604090205490565b610f4a611ff0565b610d945f612022565b805f03610f73576040516314e6cbb960e11b815260040160405180910390fd5b80610f7d33610f1c565b1015610f9c57604051633c57b48560e21b815260040160405180910390fd5b335f908152600560205260408120549003610ff357600780546001810182555f919091527fa66cc928b5edb82af9bd49922954155ab7b0942694bea4ce44661d9a8736c6880180546001600160a01b031916331790555b335f9081526005602052604081208054839290611011908490612e54565b909155506110229050333083611d8b565b60075460405133917fd72eb5d043f24a0168ae744d5c44f9596fd673a26bf74d9646bff4b844882d149161105e91858252602082015260400190565b60405180910390a250565b338061107361167d565b6001600160a01b0316146110a55760405163118cdaa760e01b81526001600160a01b03821660048201526024016108bf565b610a3d81612022565b5f807f9016d09d72d40fdae2fd8ceac6b6234c7706214fd39c1cd1e609a0528c199300610dba565b7f52c63247e1f47db19d5ce0460030c497f067ca4cebf71ba98eeadabe20bace0480546060915f80516020613196833981519152916107d190612e08565b5f33610871818585611d8b565b5f8054906101000a90046001600160a01b03166001600160a01b0316633a0dad8e6040518163ffffffff1660e01b8152600401602060405180830381865afa15801561116f573d5f803e3d5ffd5b505050506040513d601f19601f820116820180604052508101906111939190612e9f565b6001600160a01b0316336001600160a01b0316146111c457604051631af2ab4f60e31b815260040160405180910390fd5b6111cc611b8f565b6007545f5b81811015610d7c575f600782815481106111ed576111ed612eba565b5f9182526020808320909101546001600160a01b031680835260059091526040822080549290559150611220308261205a565b5f61122a82610853565b9050611234610d96565b60405163a9059cbb60e01b81526001600160a01b03858116600483015260248201849052919091169063a9059cbb906044016020604051808303815f875af1158015611282573d5f803e3d5ffd5b505050506040513d601f19601f820116820180604052508101906112a69190612e67565b6112c3576040516312171d8360e31b815260040160405180910390fd5b60408051838152602081018690526001600160a01b038516917febad37b830b1857ef9af5983fc20dc0ded12dc472ba1e22e06fd3a9465b4506c910160405180910390a25050506001016111d1565b5f61085e8260016119da565b5f604051628a595160e01b815260040160405180910390fd5b5f604051630ad8521960e31b815260040160405180910390fd5b611359611b8f565b805f036113685761089e610d96565b335f90815260046020526040902054811115611397576040516332194fd360e21b815260040160405180910390fd5b335f90815260046020526040812080548392906113b5908490612ece565b90915550506006545f6113c6610d96565b60405163a9059cbb60e01b8152336004820152602481018590526001600160a01b03919091169063a9059cbb906044016020604051808303815f875af1158015611412573d5f803e3d5ffd5b505050506040513d601f19601f820116820180604052508101906114369190612e67565b905080611456576040516312171d8360e31b815260040160405180910390fd5b604080518481526020810184905233917f2b19ac8271899522bfff26e405c20643af4cdf99b525ef2cd8cde689644874ae910160405180910390a25050610a3d60015f805160206131d683398151915255565b6007545f908190815b818110156115085760055f600783815481106114d0576114d0612eba565b5f9182526020808320909101546001600160a01b031683528201929092526040019020546114fe9084612e54565b92506001016114b2565b509092915050565b5f61085e825f611ac7565b5f61085e61152883610f1c565b5f6119da565b6006545f908190815b818110156115085760045f6006838154811061155557611555612eba565b5f9182526020808320909101546001600160a01b031683528201929092526040019020546115839084612e54565b9250600101611537565b6060805f61159b600861208e565b9050806001600160401b038111156115b5576115b5612ba0565b6040519080825280602002602001820160405280156115de578160200160208202803683370190505b509250806001600160401b038111156115f9576115f9612ba0565b604051908082528060200260200182016040528015611622578160200160208202803683370190505b509150509091565b5f61085e82610f1c565b6001600160a01b039182165f9081527f52c63247e1f47db19d5ce0460030c497f067ca4cebf71ba98eeadabe20bace016020908152604080832093909416825291909152205490565b5f807f237e158222e3e6968b72b9db0d8043aacf074ad9f650f0d1606b4d82ee432c00610dba565b6116ad611ff0565b7f237e158222e3e6968b72b9db0d8043aacf074ad9f650f0d1606b4d82ee432c0080546001600160a01b0319166001600160a01b03831690811782556116f16110ae565b6001600160a01b03167f38d16b8cac22d99fc7c124b9cd0de2d3fa1faef420bfe791d8c362d765e2270060405160405180910390a35050565b6001546001600160a01b03163314611755576040516356b381a560e01b815260040160405180910390fd5b5f81900361177657604051631121aa8d60e01b815260040160405180910390fd5b611780600b612098565b5f805b82811015611909575f84848381811061179e5761179e612eba565b6117b49260206040909202019081019150612b85565b90505f8585848181106117c9576117c9612eba565b90506040020160200160208101906117e19190612ee1565b5f54604051633af32abf60e01b81526001600160a01b038581166004830152929350911690633af32abf90602401602060405180830381865afa15801561182a573d5f803e3d5ffd5b505050506040513d601f19601f8201168201806040525081019061184e9190612e67565b6118765760405163751dff9760e11b81526001600160a01b03831660048201526024016108bf565b8063ffffffff165f036118a757604051636b30633560e01b81526001600160a01b03831660048201526024016108bf565b5f6118bd600b8463ffffffff808616906120a116565b9050806118e8576040516346bdabe160e01b81526001600160a01b03841660048201526024016108bf565b6118f863ffffffff831686612e54565b945050600190920191506117839050565b505f805f9054906101000a90046001600160a01b03166001600160a01b031663d1717c7d6040518163ffffffff1660e01b8152600401602060405180830381865afa15801561195a573d5f803e3d5ffd5b505050506040513d601f19601f8201168201806040525081019061197e9190612f04565b905061198b81600a613007565b82146119aa57604051639006dd2760e01b815260040160405180910390fd5b60405133907f2d47a742b8d7df7c1fc5a9a631b206b364e6cb2722490759f63bb3ab14b132e0905f90a250505050565b5f80611a047f52c63247e1f47db19d5ce0460030c497f067ca4cebf71ba98eeadabe20bace025490565b90505f805f9054906101000a90046001600160a01b03166001600160a01b031663b71ee4fc6040518163ffffffff1660e01b8152600401602060405180830381865afa158015611a56573d5f803e3d5ffd5b505050506040513d601f19601f82011682018060405250810190611a7a9190612f04565b9050611aac6003546001611a8e9190612e54565b611a9983600a613007565b611aa39085612e54565b879190876120be565b95945050505050565b611ac28383836001612100565b505050565b5f80611af17f52c63247e1f47db19d5ce0460030c497f067ca4cebf71ba98eeadabe20bace025490565b90505f805f9054906101000a90046001600160a01b03166001600160a01b031663b71ee4fc6040518163ffffffff1660e01b8152600401602060405180830381865afa158015611b43573d5f803e3d5ffd5b505050506040513d601f19601f82011682018060405250810190611b679190612f04565b9050611aac611b7782600a613007565b611b819084612e54565b600354611aa3906001612e54565b5f805160206131d6833981519152805460011901611bc057604051633ee5aeb560e01b815260040160405180910390fd5b60029055565b60015f805160206131d683398151915255565b5f807ff0c57e16840df040f15088dc2f81fe391c3923bec73e23a9662efc9c229c6a0061085e565b611c096121e4565b6001600160a01b038416611c3057604051639c6bb9f560e01b815260040160405180910390fd5b6001600160a01b038316611c5757604051636a485a5b60e11b815260040160405180910390fd5b611c618282612209565b611cc9836001600160a01b0316637158da7c6040518163ffffffff1660e01b8152600401602060405180830381865afa158015611ca0573d5f803e3d5ffd5b505050506040513d601f19601f82011682018060405250810190611cc49190612e9f565b61221b565b611cd161222c565b611cd961223c565b611ce161223c565b611cea84612022565b5050600280546001600160a01b03199081163317909155600180546001600160a01b039485169083161790555f8054929093169116178155600355565b5f611d328484611634565b90505f19811015611d855781811015611d7757604051637dc7a0d960e11b81526001600160a01b038416600482015260248101829052604481018390526064016108bf565b611d8584848484035f612100565b50505050565b6001600160a01b038316611db457604051634b637e8f60e11b81525f60048201526024016108bf565b6001600160a01b038216611ddd5760405163ec442f0560e01b81525f60048201526024016108bf565b611ac2838383612244565b6001600160a01b038216611e115760405163ec442f0560e01b81525f60048201526024016108bf565b610de55f8383612244565b306001600160a01b037f0000000000000000000000000000000000000000000000000000000000000000161480611ea257507f00000000000000000000000000000000000000000000000000000000000000006001600160a01b0316611e965f805160206131b6833981519152546001600160a01b031690565b6001600160a01b031614155b15610d945760405163703e46dd60e11b815260040160405180910390fd5b6001546001600160a01b03163314610a3d576040516356b381a560e01b815260040160405180910390fd5b816001600160a01b03166352d1902d6040518163ffffffff1660e01b8152600401602060405180830381865afa925050508015611f45575060408051601f3d908101601f19168201909252611f4291810190613015565b60015b611f6d57604051634c9c8ce360e01b81526001600160a01b03831660048201526024016108bf565b5f805160206131b68339815191528114611f9d57604051632a87526960e21b8152600481018290526024016108bf565b611ac2838361237d565b306001600160a01b037f00000000000000000000000000000000000000000000000000000000000000001614610d945760405163703e46dd60e11b815260040160405180910390fd5b33611ff96110ae565b6001600160a01b031614610d945760405163118cdaa760e01b81523360048201526024016108bf565b7f237e158222e3e6968b72b9db0d8043aacf074ad9f650f0d1606b4d82ee432c0080546001600160a01b0319168155610de5826123d2565b6001600160a01b03821661208357604051634b637e8f60e11b81525f60048201526024016108bf565b610de5825f83612244565b5f61085e82612442565b610a3d8161244c565b5f6120b6846001600160a01b03851684612495565b949350505050565b5f6120eb6120cb836124b1565b80156120e657505f84806120e1576120e161302c565b868809115b151590565b6120f68686866124dd565b611aac9190612e54565b5f805160206131968339815191526001600160a01b0385166121375760405163e602df0560e01b81525f60048201526024016108bf565b6001600160a01b03841661216057604051634a1406b160e11b81525f60048201526024016108bf565b6001600160a01b038086165f908152600183016020908152604080832093881683529290522083905581156121dd57836001600160a01b0316856001600160a01b03167f8c5be1e5ebec7d5bd14f71427d1e84f3dd0314c0f7b2291e5b200ac8c7c3b925856040516121d491815260200190565b60405180910390a35b5050505050565b6121ec61258d565b610d9457604051631afcd79f60e31b815260040160405180910390fd5b6122116121e4565b610de582826125a6565b6122236121e4565b610a3d816125f6565b6122346121e4565b610d94612679565b610d946121e4565b5f805160206131968339815191526001600160a01b03841661227e5781816002015f8282546122739190612e54565b909155506122ee9050565b6001600160a01b0384165f90815260208290526040902054828110156122d05760405163391434e360e21b81526001600160a01b038616600482015260248101829052604481018490526064016108bf565b6001600160a01b0385165f9081526020839052604090209083900390555b6001600160a01b03831661230c57600281018054839003905561232a565b6001600160a01b0383165f9081526020829052604090208054830190555b826001600160a01b0316846001600160a01b03167fddf252ad1be2c89b69c2b068fc378daa952ba7f163c4a11628f55a4df523b3ef8460405161236f91815260200190565b60405180910390a350505050565b61238682612681565b6040516001600160a01b038316907fbc7cd75a20ee27fd9adebab32041f755214dbc6bffa90cc0225b39da2e5c2d3b905f90a28051156123ca57611ac282826126e4565b610de561274d565b7f9016d09d72d40fdae2fd8ceac6b6234c7706214fd39c1cd1e609a0528c19930080546001600160a01b031981166001600160a01b03848116918217845560405192169182907f8be0079c531659141344cd1fd0a4f28419497f9722a3daafe3b4186f6b6457e0905f90a3505050565b5f61085e8261276c565b5f61245682612442565b90505f5b8181101561248b57600283015f6124718584612775565b815260208101919091526040015f9081205560010161245a565b50610de582612780565b5f82815260028401602052604081208290556120b68484612789565b5f60028260038111156124c6576124c6613040565b6124d09190613054565b60ff166001149050919050565b5f805f6124ea8686612794565b91509150815f0361250e578381816125045761250461302c565b0492505050610bc4565b8184116125255761252560038515026011186127b0565b5f848688095f868103871696879004966002600389028118808a02820302808a02820302808a02820302808a02820302808a02820302808a02909103029181900381900460010185841190960395909502919093039390930492909217029150509392505050565b5f612596611bd9565b54600160401b900460ff16919050565b6125ae6121e4565b5f805160206131968339815191527f52c63247e1f47db19d5ce0460030c497f067ca4cebf71ba98eeadabe20bace036125e784826130c5565b5060048101611d8583826130c5565b6125fe6121e4565b7f0773e532dfede91f04b12a73d3d2acd361424f41f76b4fb79f090161e36b4e005f8061262a846127c1565b915091508161263a57601261263c565b805b83546001600160a81b031916600160a01b60ff92909216919091026001600160a01b031916176001600160a01b0394909416939093179091555050565b611bc66121e4565b806001600160a01b03163b5f036126b657604051634c9c8ce360e01b81526001600160a01b03821660048201526024016108bf565b5f805160206131b683398151915280546001600160a01b0319166001600160a01b0392909216919091179055565b60605f80846001600160a01b031684604051612700919061317f565b5f60405180830381855af49150503d805f8114612738576040519150601f19603f3d011682016040523d82523d5f602084013e61273d565b606091505b5091509150611aac858383612897565b3415610d945760405163b398979f60e01b815260040160405180910390fd5b5f61085e825490565b5f610bc483836128f3565b610a3d81612919565b5f610bc48383612972565b5f805f1983850993909202808410938190039390930393915050565b634e487b715f52806020526024601cfd5b60408051600481526024810182526020810180516001600160e01b031663313ce56760e01b17905290515f918291829182916001600160a01b038716916128079161317f565b5f60405180830381855afa9150503d805f811461283f576040519150601f19603f3d011682016040523d82523d5f602084013e612844565b606091505b509150915081801561285857506020815110155b1561288b575f818060200190518101906128729190613015565b905060ff8111612889576001969095509350505050565b505b505f9485945092505050565b6060826128ac576128a7826129be565b610bc4565b81511580156128c357506001600160a01b0384163b155b156128ec57604051639996b31560e01b81526001600160a01b03851660048201526024016108bf565b5080610bc4565b5f825f01828154811061290857612908612eba565b905f5260205f200154905092915050565b5f612922825490565b90505f5b8181101561296b57826001015f845f01838154811061294757612947612eba565b905f5260205f20015481526020019081526020015f205f9055806001019050612926565b50505f9055565b5f8181526001830160205260408120546129b757508154600181810184555f84815260208082209093018490558454848252828601909352604090209190915561085e565b505f61085e565b8051156129ce5780518082602001fd5b60405163d6bda27560e01b815260040160405180910390fd5b602081525f82518060208401528060208501604085015e5f604082850101526040601f19601f83011684010191505092915050565b5f60208284031215612a2c575f80fd5b5035919050565b6001600160a01b0381168114610a3d575f80fd5b5f8060408385031215612a58575f80fd5b8235612a6381612a33565b946020939093013593505050565b5f8083601f840112612a81575f80fd5b5081356001600160401b03811115612a97575f80fd5b602083019150836020828501011115612aae575f80fd5b9250929050565b5f805f805f8060808789031215612aca575f80fd5b8635612ad581612a33565b95506020870135612ae581612a33565b945060408701356001600160401b03811115612aff575f80fd5b612b0b89828a01612a71565b90955093505060608701356001600160401b03811115612b29575f80fd5b612b3589828a01612a71565b979a9699509497509295939492505050565b5f805f60608486031215612b59575f80fd5b8335612b6481612a33565b92506020840135612b7481612a33565b929592945050506040919091013590565b5f60208284031215612b95575f80fd5b8135610bc481612a33565b634e487b7160e01b5f52604160045260245ffd5b5f8060408385031215612bc5575f80fd5b8235612bd081612a33565b915060208301356001600160401b03811115612bea575f80fd5b8301601f81018513612bfa575f80fd5b80356001600160401b03811115612c1357612c13612ba0565b604051601f8201601f19908116603f011681016001600160401b0381118282101715612c4157612c41612ba0565b604052818152828201602001871015612c58575f80fd5b816020840160208301375f602083830101528093505050509250929050565b5f8060408385031215612c88575f80fd5b823591506020830135612c9a81612a33565b809150509250929050565b5f805f60608486031215612cb7575f80fd5b833592506020840135612cc981612a33565b91506040840135612cd981612a33565b809150509250925092565b604080825283519082018190525f9060208501906060840190835b81811015612d265783516001600160a01b0316835260209384019390920191600101612cff565b5050838103602080860191909152855180835291810192508501905f5b81811015612d61578251845260209384019390920191600101612d43565b50919695505050505050565b5f8060408385031215612d7e575f80fd5b8235612d8981612a33565b91506020830135612c9a81612a33565b5f8060208385031215612daa575f80fd5b82356001600160401b03811115612dbf575f80fd5b8301601f81018513612dcf575f80fd5b80356001600160401b03811115612de4575f80fd5b8560208260061b8401011115612df8575f80fd5b6020919091019590945092505050565b600181811c90821680612e1c57607f821691505b602082108103612e3a57634e487b7160e01b5f52602260045260245ffd5b50919050565b634e487b7160e01b5f52601160045260245ffd5b8082018082111561085e5761085e612e40565b5f60208284031215612e77575f80fd5b81518015158114610bc4575f80fd5b60ff818116838216019081111561085e5761085e612e40565b5f60208284031215612eaf575f80fd5b8151610bc481612a33565b634e487b7160e01b5f52603260045260245ffd5b8181038181111561085e5761085e612e40565b5f60208284031215612ef1575f80fd5b813563ffffffff81168114610bc4575f80fd5b5f60208284031215612f14575f80fd5b815160ff81168114610bc4575f80fd5b6001815b6001841115612f5f57808504811115612f4357612f43612e40565b6001841615612f5157908102905b60019390931c928002612f28565b935093915050565b5f82612f755750600161085e565b81612f8157505f61085e565b8160018114612f975760028114612fa157612fbd565b600191505061085e565b60ff841115612fb257612fb2612e40565b50506001821b61085e565b5060208310610133831016604e8410600b8410161715612fe0575081810a61085e565b612fec5f198484612f24565b805f1904821115612fff57612fff612e40565b029392505050565b5f610bc460ff841683612f67565b5f60208284031215613025575f80fd5b5051919050565b634e487b7160e01b5f52601260045260245ffd5b634e487b7160e01b5f52602160045260245ffd5b5f60ff83168061307257634e487b7160e01b5f52601260045260245ffd5b8060ff84160691505092915050565b601f821115611ac257805f5260205f20601f840160051c810160208510156130a65750805b601f840160051c820191505b818110156121dd575f81556001016130b2565b81516001600160401b038111156130de576130de612ba0565b6130f2816130ec8454612e08565b84613081565b6020601f821160018114613124575f831561310d5750848201515b5f19600385901b1c1916600184901b1784556121dd565b5f84815260208120601f198516915b828110156131535787850151825560209485019460019092019101613133565b508482101561317057868401515f19600387901b60f8161c191681555b50505050600190811b01905550565b5f82518060208501845e5f92019182525091905056fe52c63247e1f47db19d5ce0460030c497f067ca4cebf71ba98eeadabe20bace00360894a13ba1a3210667c828492db98dca3e2076cc3735a920a3ca505d382bbc9b779b17422d0df92223018b32b4d1fa46e071723d6817e2486d003becc55f00a2646970667358221220137b5f06eb59aa88c3923a81494cf2d6492d66927be0dbecff6ae6e3c4858a7064736f6c634300081a0033",
  "linkReferences": {},
  "deployedLinkReferences": {}
}