{
  "_format": "hh-sol-artifact-1",
  "contractName": "OrionTransparentVault",
  "sourceName": "contracts/OrionTransparentVault.sol",
  "abi": [
    {
      "inputs": [
        {
          "internalType": "address",
          "name": "target",
          "type": "address"
        }
      ],
      "name": "AddressEmptyCode",
      "type": "error"
    },
    {
      "inputs": [
        {
          "internalType": "address",
          "name": "asset",
          "type": "address"
        }
      ],
      "name": "AmountMustBeGreaterThanZero",
      "type": "error"
    },
    {
      "inputs": [
        {
          "internalType": "address",
          "name": "implementation",
          "type": "address"
        }
      ],
      "name": "ERC1967InvalidImplementation",
      "type": "error"
    },
    {
      "inputs": [],
      "name": "ERC1967NonPayable",
      "type": "error"
    },
    {
      "inputs": [
        {
          "internalType": "address",
          "name": "spender",
          "type": "address"
        },
        {
          "internalType": "uint256",
          "name": "allowance",
          "type": "uint256"
        },
        {
          "internalType": "uint256",
          "name": "needed",
          "type": "uint256"
        }
      ],
      "name": "ERC20InsufficientAllowance",
      "type": "error"
    },
    {
      "inputs": [
        {
          "internalType": "address",
          "name": "sender",
          "type": "address"
        },
        {
          "internalType": "uint256",
          "name": "balance",
          "type": "uint256"
        },
        {
          "internalType": "uint256",
          "name": "needed",
          "type": "uint256"
        }
      ],
      "name": "ERC20InsufficientBalance",
      "type": "error"
    },
    {
      "inputs": [
        {
          "internalType": "address",
          "name": "approver",
          "type": "address"
        }
      ],
      "name": "ERC20InvalidApprover",
      "type": "error"
    },
    {
      "inputs": [
        {
          "internalType": "address",
          "name": "receiver",
          "type": "address"
        }
      ],
      "name": "ERC20InvalidReceiver",
      "type": "error"
    },
    {
      "inputs": [
        {
          "internalType": "address",
          "name": "sender",
          "type": "address"
        }
      ],
      "name": "ERC20InvalidSender",
      "type": "error"
    },
    {
      "inputs": [
        {
          "internalType": "address",
          "name": "spender",
          "type": "address"
        }
      ],
      "name": "ERC20InvalidSpender",
      "type": "error"
    },
    {
      "inputs": [
        {
          "internalType": "address",
          "name": "receiver",
          "type": "address"
        },
        {
          "internalType": "uint256",
          "name": "assets",
          "type": "uint256"
        },
        {
          "internalType": "uint256",
          "name": "max",
          "type": "uint256"
        }
      ],
      "name": "ERC4626ExceededMaxDeposit",
      "type": "error"
    },
    {
      "inputs": [
        {
          "internalType": "address",
          "name": "receiver",
          "type": "address"
        },
        {
          "internalType": "uint256",
          "name": "shares",
          "type": "uint256"
        },
        {
          "internalType": "uint256",
          "name": "max",
          "type": "uint256"
        }
      ],
      "name": "ERC4626ExceededMaxMint",
      "type": "error"
    },
    {
      "inputs": [
        {
          "internalType": "address",
          "name": "owner",
          "type": "address"
        },
        {
          "internalType": "uint256",
          "name": "shares",
          "type": "uint256"
        },
        {
          "internalType": "uint256",
          "name": "max",
          "type": "uint256"
        }
      ],
      "name": "ERC4626ExceededMaxRedeem",
      "type": "error"
    },
    {
      "inputs": [
        {
          "internalType": "address",
          "name": "owner",
          "type": "address"
        },
        {
          "internalType": "uint256",
          "name": "assets",
          "type": "uint256"
        },
        {
          "internalType": "uint256",
          "name": "max",
          "type": "uint256"
        }
      ],
      "name": "ERC4626ExceededMaxWithdraw",
      "type": "error"
    },
    {
      "inputs": [],
      "name": "FailedCall",
      "type": "error"
    },
    {
      "inputs": [],
      "name": "InvalidConfigAddress",
      "type": "error"
    },
    {
      "inputs": [],
      "name": "InvalidCuratorAddress",
      "type": "error"
    },
    {
      "inputs": [],
      "name": "InvalidInitialization",
      "type": "error"
    },
    {
      "inputs": [],
      "name": "InvalidTotalAmount",
      "type": "error"
    },
    {
      "inputs": [],
      "name": "NotCurator",
      "type": "error"
    },
    {
      "inputs": [],
      "name": "NotEnoughShares",
      "type": "error"
    },
    {
      "inputs": [],
      "name": "NotInitializing",
      "type": "error"
    },
    {
      "inputs": [],
      "name": "NotInternalStatesOrchestrator",
      "type": "error"
    },
    {
      "inputs": [],
      "name": "NotLiquidityOrchestrator",
      "type": "error"
    },
    {
      "inputs": [],
      "name": "OrderIntentCannotBeEmpty",
      "type": "error"
    },
    {
      "inputs": [
        {
          "internalType": "address",
          "name": "owner",
          "type": "address"
        }
      ],
      "name": "OwnableInvalidOwner",
      "type": "error"
    },
    {
      "inputs": [
        {
          "internalType": "address",
          "name": "account",
          "type": "address"
        }
      ],
      "name": "OwnableUnauthorizedAccount",
      "type": "error"
    },
    {
      "inputs": [],
      "name": "ReentrancyGuardReentrantCall",
      "type": "error"
    },
    {
      "inputs": [],
      "name": "SharesMustBeGreaterThanZero",
      "type": "error"
    },
    {
      "inputs": [],
      "name": "SynchronousDepositsDisabled",
      "type": "error"
    },
    {
      "inputs": [],
      "name": "SynchronousRedemptionsDisabled",
      "type": "error"
    },
    {
      "inputs": [],
      "name": "SynchronousWithdrawalsDisabled",
      "type": "error"
    },
    {
      "inputs": [
        {
          "internalType": "address",
          "name": "token",
          "type": "address"
        }
      ],
      "name": "TokenAlreadyInOrder",
      "type": "error"
    },
    {
      "inputs": [
        {
          "internalType": "address",
          "name": "token",
          "type": "address"
        }
      ],
      "name": "TokenNotWhitelisted",
      "type": "error"
    },
    {
      "inputs": [],
      "name": "TransferFailed",
      "type": "error"
    },
    {
      "inputs": [],
      "name": "UUPSUnauthorizedCallContext",
      "type": "error"
    },
    {
      "inputs": [
        {
          "internalType": "bytes32",
          "name": "slot",
          "type": "bytes32"
        }
      ],
      "name": "UUPSUnsupportedProxiableUUID",
      "type": "error"
    },
    {
      "inputs": [],
      "name": "ZeroPrice",
      "type": "error"
    },
    {
      "anonymous": false,
      "inputs": [
        {
          "indexed": true,
          "internalType": "address",
          "name": "owner",
          "type": "address"
        },
        {
          "indexed": true,
          "internalType": "address",
          "name": "spender",
          "type": "address"
        },
        {
          "indexed": false,
          "internalType": "uint256",
          "name": "value",
          "type": "uint256"
        }
      ],
      "name": "Approval",
      "type": "event"
    },
    {
      "anonymous": false,
      "inputs": [
        {
          "indexed": true,
          "internalType": "address",
          "name": "sender",
          "type": "address"
        },
        {
          "indexed": true,
          "internalType": "address",
          "name": "owner",
          "type": "address"
        },
        {
          "indexed": false,
          "internalType": "uint256",
          "name": "assets",
          "type": "uint256"
        },
        {
          "indexed": false,
          "internalType": "uint256",
          "name": "shares",
          "type": "uint256"
        }
      ],
      "name": "Deposit",
      "type": "event"
    },
    {
      "anonymous": false,
      "inputs": [
        {
          "indexed": true,
          "internalType": "address",
          "name": "user",
          "type": "address"
        },
        {
          "indexed": false,
          "internalType": "uint256",
          "name": "amount",
          "type": "uint256"
        },
        {
          "indexed": false,
          "internalType": "uint256",
          "name": "requestId",
          "type": "uint256"
        }
      ],
      "name": "DepositProcessed",
      "type": "event"
    },
    {
      "anonymous": false,
      "inputs": [
        {
          "indexed": true,
          "internalType": "address",
          "name": "user",
          "type": "address"
        },
        {
          "indexed": false,
          "internalType": "uint256",
          "name": "amount",
          "type": "uint256"
        },
        {
          "indexed": false,
          "internalType": "uint256",
          "name": "requestId",
          "type": "uint256"
        }
      ],
      "name": "DepositRequested",
      "type": "event"
    },
    {
      "anonymous": false,
      "inputs": [
        {
          "indexed": false,
          "internalType": "uint64",
          "name": "version",
          "type": "uint64"
        }
      ],
      "name": "Initialized",
      "type": "event"
    },
    {
      "anonymous": false,
      "inputs": [
        {
          "indexed": true,
          "internalType": "address",
          "name": "curator",
          "type": "address"
        }
      ],
      "name": "OrderSubmitted",
      "type": "event"
    },
    {
      "anonymous": false,
      "inputs": [
        {
          "indexed": true,
          "internalType": "address",
          "name": "previousOwner",
          "type": "address"
        },
        {
          "indexed": true,
          "internalType": "address",
          "name": "newOwner",
          "type": "address"
        }
      ],
      "name": "OwnershipTransferStarted",
      "type": "event"
    },
    {
      "anonymous": false,
      "inputs": [
        {
          "indexed": true,
          "internalType": "address",
          "name": "previousOwner",
          "type": "address"
        },
        {
          "indexed": true,
          "internalType": "address",
          "name": "newOwner",
          "type": "address"
        }
      ],
      "name": "OwnershipTransferred",
      "type": "event"
    },
    {
      "anonymous": false,
      "inputs": [
        {
          "indexed": true,
          "internalType": "address",
          "name": "from",
          "type": "address"
        },
        {
          "indexed": true,
          "internalType": "address",
          "name": "to",
          "type": "address"
        },
        {
          "indexed": false,
          "internalType": "uint256",
          "name": "value",
          "type": "uint256"
        }
      ],
      "name": "Transfer",
      "type": "event"
    },
    {
      "anonymous": false,
      "inputs": [
        {
          "indexed": true,
          "internalType": "address",
          "name": "implementation",
          "type": "address"
        }
      ],
      "name": "Upgraded",
      "type": "event"
    },
    {
      "anonymous": false,
      "inputs": [
        {
          "indexed": true,
          "internalType": "address",
          "name": "sender",
          "type": "address"
        },
        {
          "indexed": true,
          "internalType": "address",
          "name": "receiver",
          "type": "address"
        },
        {
          "indexed": true,
          "internalType": "address",
          "name": "owner",
          "type": "address"
        },
        {
          "indexed": false,
          "internalType": "uint256",
          "name": "assets",
          "type": "uint256"
        },
        {
          "indexed": false,
          "internalType": "uint256",
          "name": "shares",
          "type": "uint256"
        }
      ],
      "name": "Withdraw",
      "type": "event"
    },
    {
      "anonymous": false,
      "inputs": [
        {
          "indexed": true,
          "internalType": "address",
          "name": "user",
          "type": "address"
        },
        {
          "indexed": false,
          "internalType": "uint256",
          "name": "shares",
          "type": "uint256"
        },
        {
          "indexed": false,
          "internalType": "uint256",
          "name": "requestId",
          "type": "uint256"
        }
      ],
      "name": "WithdrawProcessed",
      "type": "event"
    },
    {
      "anonymous": false,
      "inputs": [
        {
          "indexed": true,
          "internalType": "address",
          "name": "user",
          "type": "address"
        },
        {
          "indexed": false,
          "internalType": "uint256",
          "name": "shares",
          "type": "uint256"
        },
        {
          "indexed": false,
          "internalType": "uint256",
          "name": "requestId",
          "type": "uint256"
        }
      ],
      "name": "WithdrawRequested",
      "type": "event"
    },
    {
      "inputs": [],
      "name": "UPGRADE_INTERFACE_VERSION",
      "outputs": [
        {
          "internalType": "string",
          "name": "",
          "type": "string"
        }
      ],
      "stateMutability": "view",
      "type": "function"
    },
    {
      "inputs": [],
      "name": "acceptOwnership",
      "outputs": [],
      "stateMutability": "nonpayable",
      "type": "function"
    },
    {
      "inputs": [
        {
          "internalType": "address",
          "name": "owner",
          "type": "address"
        },
        {
          "internalType": "address",
          "name": "spender",
          "type": "address"
        }
      ],
      "name": "allowance",
      "outputs": [
        {
          "internalType": "uint256",
          "name": "",
          "type": "uint256"
        }
      ],
      "stateMutability": "view",
      "type": "function"
    },
    {
      "inputs": [
        {
          "internalType": "address",
          "name": "spender",
          "type": "address"
        },
        {
          "internalType": "uint256",
          "name": "value",
          "type": "uint256"
        }
      ],
      "name": "approve",
      "outputs": [
        {
          "internalType": "bool",
          "name": "",
          "type": "bool"
        }
      ],
      "stateMutability": "nonpayable",
      "type": "function"
    },
    {
      "inputs": [],
      "name": "asset",
      "outputs": [
        {
          "internalType": "address",
          "name": "",
          "type": "address"
        }
      ],
      "stateMutability": "view",
      "type": "function"
    },
    {
      "inputs": [
        {
          "internalType": "address",
          "name": "account",
          "type": "address"
        }
      ],
      "name": "balanceOf",
      "outputs": [
        {
          "internalType": "uint256",
          "name": "",
          "type": "uint256"
        }
      ],
      "stateMutability": "view",
      "type": "function"
    },
    {
      "inputs": [],
      "name": "config",
      "outputs": [
        {
          "internalType": "contract IOrionConfig",
          "name": "",
          "type": "address"
        }
      ],
      "stateMutability": "view",
      "type": "function"
    },
    {
      "inputs": [
        {
          "internalType": "uint256",
          "name": "shares",
          "type": "uint256"
        }
      ],
      "name": "convertToAssets",
      "outputs": [
        {
          "internalType": "uint256",
          "name": "",
          "type": "uint256"
        }
      ],
      "stateMutability": "view",
      "type": "function"
    },
    {
      "inputs": [
        {
          "internalType": "uint256",
          "name": "assets",
          "type": "uint256"
        }
      ],
      "name": "convertToShares",
      "outputs": [
        {
          "internalType": "uint256",
          "name": "",
          "type": "uint256"
        }
      ],
      "stateMutability": "view",
      "type": "function"
    },
    {
      "inputs": [],
      "name": "curator",
      "outputs": [
        {
          "internalType": "address",
          "name": "",
          "type": "address"
        }
      ],
      "stateMutability": "view",
      "type": "function"
    },
    {
      "inputs": [],
      "name": "decimals",
      "outputs": [
        {
          "internalType": "uint8",
          "name": "",
          "type": "uint8"
        }
      ],
      "stateMutability": "view",
      "type": "function"
    },
    {
      "inputs": [],
      "name": "deployer",
      "outputs": [
        {
          "internalType": "address",
          "name": "",
          "type": "address"
        }
      ],
      "stateMutability": "view",
      "type": "function"
    },
    {
      "inputs": [
        {
          "internalType": "uint256",
          "name": "",
          "type": "uint256"
        },
        {
          "internalType": "address",
          "name": "",
          "type": "address"
        }
      ],
      "name": "deposit",
      "outputs": [
        {
          "internalType": "uint256",
          "name": "",
          "type": "uint256"
        }
      ],
      "stateMutability": "pure",
      "type": "function"
    },
    {
      "inputs": [
        {
          "internalType": "address",
          "name": "_curator",
          "type": "address"
        },
        {
          "internalType": "contract IOrionConfig",
          "name": "_config",
          "type": "address"
        },
        {
          "internalType": "string",
          "name": "_name",
          "type": "string"
        },
        {
          "internalType": "string",
          "name": "_symbol",
          "type": "string"
        }
      ],
      "name": "initialize",
      "outputs": [],
      "stateMutability": "nonpayable",
      "type": "function"
    },
    {
      "inputs": [
        {
          "internalType": "address",
          "name": "",
          "type": "address"
        }
      ],
      "name": "maxDeposit",
      "outputs": [
        {
          "internalType": "uint256",
          "name": "",
          "type": "uint256"
        }
      ],
      "stateMutability": "view",
      "type": "function"
    },
    {
      "inputs": [
        {
          "internalType": "address",
          "name": "",
          "type": "address"
        }
      ],
      "name": "maxMint",
      "outputs": [
        {
          "internalType": "uint256",
          "name": "",
          "type": "uint256"
        }
      ],
      "stateMutability": "view",
      "type": "function"
    },
    {
      "inputs": [
        {
          "internalType": "address",
          "name": "owner",
          "type": "address"
        }
      ],
      "name": "maxRedeem",
      "outputs": [
        {
          "internalType": "uint256",
          "name": "",
          "type": "uint256"
        }
      ],
      "stateMutability": "view",
      "type": "function"
    },
    {
      "inputs": [
        {
          "internalType": "address",
          "name": "owner",
          "type": "address"
        }
      ],
      "name": "maxWithdraw",
      "outputs": [
        {
          "internalType": "uint256",
          "name": "",
          "type": "uint256"
        }
      ],
      "stateMutability": "view",
      "type": "function"
    },
    {
      "inputs": [
        {
          "internalType": "uint256",
          "name": "",
          "type": "uint256"
        },
        {
          "internalType": "address",
          "name": "",
          "type": "address"
        }
      ],
      "name": "mint",
      "outputs": [
        {
          "internalType": "uint256",
          "name": "",
          "type": "uint256"
        }
      ],
      "stateMutability": "pure",
      "type": "function"
    },
    {
      "inputs": [],
      "name": "name",
      "outputs": [
        {
          "internalType": "string",
          "name": "",
          "type": "string"
        }
      ],
      "stateMutability": "view",
      "type": "function"
    },
    {
      "inputs": [],
      "name": "owner",
      "outputs": [
        {
          "internalType": "address",
          "name": "",
          "type": "address"
        }
      ],
      "stateMutability": "view",
      "type": "function"
    },
    {
      "inputs": [],
      "name": "pendingOwner",
      "outputs": [
        {
          "internalType": "address",
          "name": "",
          "type": "address"
        }
      ],
      "stateMutability": "view",
      "type": "function"
    },
    {
      "inputs": [
        {
          "internalType": "uint256",
          "name": "assets",
          "type": "uint256"
        }
      ],
      "name": "previewDeposit",
      "outputs": [
        {
          "internalType": "uint256",
          "name": "",
          "type": "uint256"
        }
      ],
      "stateMutability": "view",
      "type": "function"
    },
    {
      "inputs": [
        {
          "internalType": "uint256",
          "name": "shares",
          "type": "uint256"
        }
      ],
      "name": "previewMint",
      "outputs": [
        {
          "internalType": "uint256",
          "name": "",
          "type": "uint256"
        }
      ],
      "stateMutability": "view",
      "type": "function"
    },
    {
      "inputs": [
        {
          "internalType": "uint256",
          "name": "shares",
          "type": "uint256"
        }
      ],
      "name": "previewRedeem",
      "outputs": [
        {
          "internalType": "uint256",
          "name": "",
          "type": "uint256"
        }
      ],
      "stateMutability": "view",
      "type": "function"
    },
    {
      "inputs": [
        {
          "internalType": "uint256",
          "name": "assets",
          "type": "uint256"
        }
      ],
      "name": "previewWithdraw",
      "outputs": [
        {
          "internalType": "uint256",
          "name": "",
          "type": "uint256"
        }
      ],
      "stateMutability": "view",
      "type": "function"
    },
    {
      "inputs": [],
      "name": "processDepositRequests",
      "outputs": [],
      "stateMutability": "nonpayable",
      "type": "function"
    },
    {
      "inputs": [],
      "name": "processWithdrawRequests",
      "outputs": [],
      "stateMutability": "nonpayable",
      "type": "function"
    },
    {
      "inputs": [],
      "name": "proxiableUUID",
      "outputs": [
        {
          "internalType": "bytes32",
          "name": "",
          "type": "bytes32"
        }
      ],
      "stateMutability": "view",
      "type": "function"
    },
    {
      "inputs": [
        {
          "internalType": "uint256",
          "name": "",
          "type": "uint256"
        },
        {
          "internalType": "address",
          "name": "",
          "type": "address"
        },
        {
          "internalType": "address",
          "name": "",
          "type": "address"
        }
      ],
      "name": "redeem",
      "outputs": [
        {
          "internalType": "uint256",
          "name": "",
          "type": "uint256"
        }
      ],
      "stateMutability": "pure",
      "type": "function"
    },
    {
      "inputs": [],
      "name": "renounceOwnership",
      "outputs": [],
      "stateMutability": "nonpayable",
      "type": "function"
    },
    {
      "inputs": [
        {
          "internalType": "uint256",
          "name": "amount",
          "type": "uint256"
        }
      ],
      "name": "requestDeposit",
      "outputs": [],
      "stateMutability": "nonpayable",
      "type": "function"
    },
    {
      "inputs": [
        {
          "internalType": "uint256",
          "name": "shares",
          "type": "uint256"
        }
      ],
      "name": "requestWithdraw",
      "outputs": [],
      "stateMutability": "nonpayable",
      "type": "function"
    },
    {
      "inputs": [
        {
          "internalType": "uint256",
          "name": "newPrice",
          "type": "uint256"
        }
      ],
      "name": "setSharePrice",
      "outputs": [],
      "stateMutability": "nonpayable",
      "type": "function"
    },
    {
      "inputs": [
        {
          "internalType": "uint256",
          "name": "newTotalAssets",
          "type": "uint256"
        }
      ],
      "name": "setTotalAssets",
      "outputs": [],
      "stateMutability": "nonpayable",
      "type": "function"
    },
    {
      "inputs": [],
      "name": "sharePrice",
      "outputs": [
        {
          "internalType": "uint256",
          "name": "",
          "type": "uint256"
        }
      ],
      "stateMutability": "view",
      "type": "function"
    },
    {
      "inputs": [
        {
          "components": [
            {
              "internalType": "address",
              "name": "token",
              "type": "address"
            },
            {
              "internalType": "uint32",
              "name": "amount",
              "type": "uint32"
            }
          ],
          "internalType": "struct IOrionTransparentVault.Order[]",
          "name": "order",
          "type": "tuple[]"
        }
      ],
      "name": "submitOrderIntent",
      "outputs": [],
      "stateMutability": "nonpayable",
      "type": "function"
    },
    {
      "inputs": [],
      "name": "symbol",
      "outputs": [
        {
          "internalType": "string",
          "name": "",
          "type": "string"
        }
      ],
      "stateMutability": "view",
      "type": "function"
    },
    {
      "inputs": [],
      "name": "totalAssets",
      "outputs": [
        {
          "internalType": "uint256",
          "name": "",
          "type": "uint256"
        }
      ],
      "stateMutability": "view",
      "type": "function"
    },
    {
      "inputs": [],
      "name": "totalSupply",
      "outputs": [
        {
          "internalType": "uint256",
          "name": "",
          "type": "uint256"
        }
      ],
      "stateMutability": "view",
      "type": "function"
    },
    {
      "inputs": [
        {
          "internalType": "address",
          "name": "to",
          "type": "address"
        },
        {
          "internalType": "uint256",
          "name": "value",
          "type": "uint256"
        }
      ],
      "name": "transfer",
      "outputs": [
        {
          "internalType": "bool",
          "name": "",
          "type": "bool"
        }
      ],
      "stateMutability": "nonpayable",
      "type": "function"
    },
    {
      "inputs": [
        {
          "internalType": "address",
          "name": "from",
          "type": "address"
        },
        {
          "internalType": "address",
          "name": "to",
          "type": "address"
        },
        {
          "internalType": "uint256",
          "name": "value",
          "type": "uint256"
        }
      ],
      "name": "transferFrom",
      "outputs": [
        {
          "internalType": "bool",
          "name": "",
          "type": "bool"
        }
      ],
      "stateMutability": "nonpayable",
      "type": "function"
    },
    {
      "inputs": [
        {
          "internalType": "address",
          "name": "newOwner",
          "type": "address"
        }
      ],
      "name": "transferOwnership",
      "outputs": [],
      "stateMutability": "nonpayable",
      "type": "function"
    },
    {
      "inputs": [
        {
          "internalType": "address",
          "name": "newImplementation",
          "type": "address"
        },
        {
          "internalType": "bytes",
          "name": "data",
          "type": "bytes"
        }
      ],
      "name": "upgradeToAndCall",
      "outputs": [],
      "stateMutability": "payable",
      "type": "function"
    },
    {
      "inputs": [
        {
          "internalType": "uint256",
          "name": "",
          "type": "uint256"
        },
        {
          "internalType": "address",
          "name": "",
          "type": "address"
        },
        {
          "internalType": "address",
          "name": "",
          "type": "address"
        }
      ],
      "name": "withdraw",
      "outputs": [
        {
          "internalType": "uint256",
          "name": "",
          "type": "uint256"
        }
      ],
      "stateMutability": "pure",
      "type": "function"
    }
  ],
  "bytecode": "0x60a0604052306080523480156012575f80fd5b50608051612f7d6100395f395f8181611a9901528181611ac20152611c240152612f7d5ff3fe60806040526004361061026a575f3560e01c806379502c551161014a578063ba087652116100be578063dd62ed3e11610078578063dd62ed3e146106d7578063e30c3978146106f6578063e66f53b71461070a578063ef8b30f714610729578063f2fde38b14610748578063fb12251b14610767575f80fd5b8063ba0876521461063c578063c63d75b614610455578063c6e6f5921461065b578063ce96cb771461067a578063d5f3948814610699578063d905777e146106b8575f80fd5b806395d89b411161010f57806395d89b4114610587578063a9059cbb1461059b578063aa9d3a60146105ba578063ad3cb1cc146105ce578063b3d7f6b9146105fe578063b460af941461061d575f80fd5b806379502c551461052c57806379ba50971461054a578063872697291461055e5780638da5cb5b1461057357806394bf804d146104bb575f80fd5b8063313ce567116101e15780634f1ef286116101a65780634f1ef2861461049457806352d1902d146104a75780636e553f65146104bb57806370a08231146104da578063715018a6146104f9578063745400c91461050d575f80fd5b8063313ce567146103ef57806333fdc5921461041557806338d52e0f14610429578063402d267d146104555780634cdad50614610475575f80fd5b80630d1e6667116102325780630d1e66671461031f57806316b60249146103405780631765b3131461035f57806318160ddd1461037e5780632016a0d2146103b157806323b872dd146103d0575f80fd5b806301e1d1141461026e57806306fdde031461029157806307a2d13a146102b2578063095ea7b3146102d15780630a28a47714610300575b5f80fd5b348015610279575f80fd5b506004545b6040519081526020015b60405180910390f35b34801561029c575f80fd5b506102a5610786565b60405161028891906127c8565b3480156102bd575f80fd5b5061027e6102cc3660046127fd565b610846565b3480156102dc575f80fd5b506102f06102eb366004612828565b610870565b6040519015158152602001610288565b34801561030b575f80fd5b5061027e61031a3660046127fd565b610887565b34801561032a575f80fd5b5061033e6103393660046127fd565b610893565b005b34801561034b575f80fd5b5061033e61035a3660046127fd565b6109f8565b34801561036a575f80fd5b5061033e6103793660046127fd565b610ac0565b348015610389575f80fd5b507f52c63247e1f47db19d5ce0460030c497f067ca4cebf71ba98eeadabe20bace025461027e565b3480156103bc575f80fd5b5061033e6103cb3660046128fb565b610b68565b3480156103db575f80fd5b506102f06103ea366004612984565b610c67565b3480156103fa575f80fd5b50610403610c8c565b60405160ff9091168152602001610288565b348015610420575f80fd5b5061033e610cce565b348015610434575f80fd5b5061043d610e3a565b6040516001600160a01b039091168152602001610288565b348015610460575f80fd5b5061027e61046f3660046129c2565b505f1990565b348015610480575f80fd5b5061027e61048f3660046127fd565b610e6e565b61033e6104a23660046129dd565b610e79565b3480156104b2575f80fd5b5061027e610e98565b3480156104c6575f80fd5b5061027e6104d5366004612a3d565b610eb3565b3480156104e5575f80fd5b5061027e6104f43660046129c2565b610ecd565b348015610504575f80fd5b5061033e610ef3565b348015610518575f80fd5b5061033e6105273660046127fd565b610f04565b348015610537575f80fd5b505f5461043d906001600160a01b031681565b348015610555575f80fd5b5061033e610fe4565b348015610569575f80fd5b5061027e60035481565b34801561057e575f80fd5b5061043d61102c565b348015610592575f80fd5b506102a5611054565b3480156105a6575f80fd5b506102f06105b5366004612828565b611092565b3480156105c5575f80fd5b5061033e61109f565b3480156105d9575f80fd5b506102a5604051806040016040528060058152602001640352e302e360dc1b81525081565b348015610609575f80fd5b5061027e6106183660046127fd565b611277565b348015610628575f80fd5b5061027e610637366004612a6b565b611283565b348015610647575f80fd5b5061027e610656366004612a6b565b61129c565b348015610666575f80fd5b5061027e6106753660046127fd565b6112b6565b348015610685575f80fd5b5061027e6106943660046129c2565b6112cf565b3480156106a4575f80fd5b5060025461043d906001600160a01b031681565b3480156106c3575f80fd5b5061027e6106d23660046129c2565b6112e2565b3480156106e2575f80fd5b5061027e6106f1366004612aaa565b6112ec565b348015610701575f80fd5b5061043d611335565b348015610715575f80fd5b5060015461043d906001600160a01b031681565b348015610734575f80fd5b5061027e6107433660046127fd565b61135d565b348015610753575f80fd5b5061033e6107623660046129c2565b611368565b348015610772575f80fd5b5061033e610781366004612ad6565b6113ed565b7f52c63247e1f47db19d5ce0460030c497f067ca4cebf71ba98eeadabe20bace0380546060915f80516020612f08833981519152916107c490612b47565b80601f01602080910402602001604051908101604052809291908181526020018280546107f090612b47565b801561083b5780601f106108125761010080835404028352916020019161083b565b820191905f5260205f20905b81548152906001019060200180831161081e57829003601f168201915b505050505091505090565b5f61084f610c8c565b60ff16600354836108609190612b93565b61086a9190612bbe565b92915050565b5f3361087d81858561169d565b5060019392505050565b5f61086a8260016116af565b805f036108cc576108a2610e3a565b604051636b30633560e01b81526001600160a01b0390911660048201526024015b60405180910390fd5b5f806108d9600533611701565b915091508115610900576108fa336108f18584612bd1565b60059190611727565b5061090e565b61090c60053385611727565b505b5f610917610e3a565b6040516323b872dd60e01b8152336004820152306024820152604481018690526001600160a01b0391909116906323b872dd906064016020604051808303815f875af1158015610969573d5f803e3d5ffd5b505050506040513d601f19601f8201168201806040525081019061098d9190612be4565b9050806109ad576040516312171d8360e31b815260040160405180910390fd5b337f03979a8c481a9e9c06938045cfd5c28535255cb003b10a8fe84ebb3cb4d440f2856109da6005611744565b6040805192835260208301919091520160405180910390a250505050565b5f8054906101000a90046001600160a01b03166001600160a01b031663348ec5c86040518163ffffffff1660e01b8152600401602060405180830381865afa158015610a46573d5f803e3d5ffd5b505050506040513d601f19601f82011682018060405250810190610a6a9190612c03565b6001600160a01b0316336001600160a01b031614610a9b5760405163efb380d960e01b815260040160405180910390fd5b805f03610abb57604051634dfba02360e01b815260040160405180910390fd5b600355565b5f8054906101000a90046001600160a01b03166001600160a01b031663348ec5c86040518163ffffffff1660e01b8152600401602060405180830381865afa158015610b0e573d5f803e3d5ffd5b505050506040513d601f19601f82011682018060405250810190610b329190612c03565b6001600160a01b0316336001600160a01b031614610b635760405163efb380d960e01b815260040160405180910390fd5b600455565b5f610b7161174e565b805490915060ff600160401b820416159067ffffffffffffffff165f81158015610b985750825b90505f8267ffffffffffffffff166001148015610bb45750303b155b905081158015610bc2575080155b15610be05760405163f92ee8a960e01b815260040160405180910390fd5b845467ffffffffffffffff191660011785558315610c0a57845460ff60401b1916600160401b1785555b610c1689898989611776565b8315610c5c57845460ff60401b19168555604051600181527fc7f505b2f371ae2175ee4913f4499e1f2633a7b5936321eed1cdaeb6115181d29060200160405180910390a15b505050505050505050565b5f33610c748582856118b8565b610c7f85858561191c565b60019150505b9392505050565b5f807f0773e532dfede91f04b12a73d3d2acd361424f41f76b4fb79f090161e36b4e0090505f8154610cc89190600160a01b900460ff16612c1e565b91505090565b5f8054906101000a90046001600160a01b03166001600160a01b0316633a0dad8e6040518163ffffffff1660e01b8152600401602060405180830381865afa158015610d1c573d5f803e3d5ffd5b505050506040513d601f19601f82011682018060405250810190610d409190612c03565b6001600160a01b0316336001600160a01b031614610d7157604051631af2ab4f60e31b815260040160405180910390fd5b610d79611979565b5f5b610d856005611744565b811015610e0e575f80610d996005846119c3565b915091505f610da78261135d565b9050610db46005846119d1565b50610dbf83826119e5565b60408051838152602081018690526001600160a01b038516917f782ea2005b7f873a0190a1ccb553c732171348d6e16d2b7d3d493c0677dc296e910160405180910390a2505050600101610d7b565b50610e3860017f9b779b17422d0df92223018b32b4d1fa46e071723d6817e2486d003becc55f0055565b565b5f807f0773e532dfede91f04b12a73d3d2acd361424f41f76b4fb79f090161e36b4e005b546001600160a01b031692915050565b5f61086a825f611a3f565b610e81611a8e565b610e8a82611b32565b610e948282611b5d565b5050565b5f610ea1611c19565b505f80516020612f2883398151915290565b5f6040516318f2e47360e11b815260040160405180910390fd5b6001600160a01b03165f9081525f80516020612f08833981519152602052604090205490565b610efb611c62565b610e385f611c94565b805f03610f24576040516314e6cbb960e11b815260040160405180910390fd5b80610f2e33610ecd565b1015610f4d57604051633c57b48560e21b815260040160405180910390fd5b5f80610f5a600833611701565b915091508115610f8157610f7b33610f728584612bd1565b60089190611727565b50610f8f565b610f8d60083385611727565b505b610f9a33308561191c565b337fd72eb5d043f24a0168ae744d5c44f9596fd673a26bf74d9646bff4b844882d1484610fc76008611744565b6040805192835260208301919091520160405180910390a2505050565b3380610fee611335565b6001600160a01b0316146110205760405163118cdaa760e01b81526001600160a01b03821660048201526024016108c3565b61102981611c94565b50565b5f807f9016d09d72d40fdae2fd8ceac6b6234c7706214fd39c1cd1e609a0528c199300610e5e565b7f52c63247e1f47db19d5ce0460030c497f067ca4cebf71ba98eeadabe20bace0480546060915f80516020612f08833981519152916107c490612b47565b5f3361087d81858561191c565b5f8054906101000a90046001600160a01b03166001600160a01b0316633a0dad8e6040518163ffffffff1660e01b8152600401602060405180830381865afa1580156110ed573d5f803e3d5ffd5b505050506040513d601f19601f820116820180604052508101906111119190612c03565b6001600160a01b0316336001600160a01b03161461114257604051631af2ab4f60e31b815260040160405180910390fd5b61114a611979565b5f5b6111566008611744565b811015610e0e575f8061116a6008846119c3565b909250905061117a6008836119d1565b506111853082611ccc565b5f61118f82610e6e565b9050611199610e3a565b60405163a9059cbb60e01b81526001600160a01b03858116600483015260248201849052919091169063a9059cbb906044016020604051808303815f875af11580156111e7573d5f803e3d5ffd5b505050506040513d601f19601f8201168201806040525081019061120b9190612be4565b611228576040516312171d8360e31b815260040160405180910390fd5b60408051838152602081018690526001600160a01b038516917febad37b830b1857ef9af5983fc20dc0ded12dc472ba1e22e06fd3a9465b4506c910160405180910390a250505060010161114c565b5f61086a826001611a3f565b5f604051628a595160e01b815260040160405180910390fd5b5f604051630ad8521960e31b815260040160405180910390fd5b5f6003546112c2610c8c565b6108609060ff1684612b93565b5f61086a6112dc83610ecd565b5f611a3f565b5f61086a82610ecd565b6001600160a01b039182165f9081527f52c63247e1f47db19d5ce0460030c497f067ca4cebf71ba98eeadabe20bace016020908152604080832093909416825291909152205490565b5f807f237e158222e3e6968b72b9db0d8043aacf074ad9f650f0d1606b4d82ee432c00610e5e565b5f61086a825f6116af565b611370611c62565b7f237e158222e3e6968b72b9db0d8043aacf074ad9f650f0d1606b4d82ee432c0080546001600160a01b0319166001600160a01b03831690811782556113b461102c565b6001600160a01b03167f38d16b8cac22d99fc7c124b9cd0de2d3fa1faef420bfe791d8c362d765e2270060405160405180910390a35050565b6001546001600160a01b03163314611418576040516356b381a560e01b815260040160405180910390fd5b5f81900361143957604051631121aa8d60e01b815260040160405180910390fd5b611443600b611d00565b5f805b828110156115cc575f84848381811061146157611461612c37565b61147792602060409092020190810191506129c2565b90505f85858481811061148c5761148c612c37565b90506040020160200160208101906114a49190612c4b565b5f54604051633af32abf60e01b81526001600160a01b038581166004830152929350911690633af32abf90602401602060405180830381865afa1580156114ed573d5f803e3d5ffd5b505050506040513d601f19601f820116820180604052508101906115119190612be4565b6115395760405163751dff9760e11b81526001600160a01b03831660048201526024016108c3565b8063ffffffff165f0361156a57604051636b30633560e01b81526001600160a01b03831660048201526024016108c3565b5f611580600b8463ffffffff8086169061172716565b9050806115ab576040516346bdabe160e01b81526001600160a01b03841660048201526024016108c3565b6115bb63ffffffff831686612bd1565b945050600190920191506114469050565b505f805f9054906101000a90046001600160a01b03166001600160a01b031663d1717c7d6040518163ffffffff1660e01b8152600401602060405180830381865afa15801561161d573d5f803e3d5ffd5b505050506040513d601f19601f820116820180604052508101906116419190612c6e565b905061164e81600a612d71565b821461166d576040516324204a3560e21b815260040160405180910390fd5b60405133907f2d47a742b8d7df7c1fc5a9a631b206b364e6cb2722490759f63bb3ab14b132e0905f90a250505050565b6116aa8383836001611d09565b505050565b5f610c856116be82600a612d71565b7f52c63247e1f47db19d5ce0460030c497f067ca4cebf71ba98eeadabe20bace02546116ea9190612bd1565b6004546116f8906001612bd1565b85919085611ded565b5f808080611718866001600160a01b038716611e38565b909450925050505b9250929050565b5f61173c846001600160a01b03851684611e70565b949350505050565b5f61086a82611e8c565b5f807ff0c57e16840df040f15088dc2f81fe391c3923bec73e23a9662efc9c229c6a0061086a565b61177e611e96565b6001600160a01b0384166117a557604051639c6bb9f560e01b815260040160405180910390fd5b6001600160a01b0383166117cc57604051636a485a5b60e11b815260040160405180910390fd5b6117d68282611ebb565b61183e836001600160a01b0316637158da7c6040518163ffffffff1660e01b8152600401602060405180830381865afa158015611815573d5f803e3d5ffd5b505050506040513d601f19601f820116820180604052508101906118399190612c03565b611ecd565b611846611ede565b61184e611eee565b611856611eee565b61185f84611c94565b60028054336001600160a01b0319918216179091556001805482166001600160a01b03878116919091179091555f80549092169085161790556118a0610c8c565b6118ab90600a612d71565b60035550505f6004555050565b5f6118c384846112ec565b90505f19811015611916578181101561190857604051637dc7a0d960e11b81526001600160a01b038416600482015260248101829052604481018390526064016108c3565b61191684848484035f611d09565b50505050565b6001600160a01b03831661194557604051634b637e8f60e11b81525f60048201526024016108c3565b6001600160a01b03821661196e5760405163ec442f0560e01b81525f60048201526024016108c3565b6116aa838383611ef6565b7f9b779b17422d0df92223018b32b4d1fa46e071723d6817e2486d003becc55f008054600119016119bd57604051633ee5aeb560e01b815260040160405180910390fd5b60029055565b5f808080611718868661202f565b5f610c85836001600160a01b038416612058565b6001600160a01b038216611a0e5760405163ec442f0560e01b81525f60048201526024016108c3565b610e945f8383611ef6565b60017f9b779b17422d0df92223018b32b4d1fa46e071723d6817e2486d003becc55f0055565b5f610c85611a4c60045490565b611a57906001612bd1565b611a625f600a612d71565b7f52c63247e1f47db19d5ce0460030c497f067ca4cebf71ba98eeadabe20bace02546116f89190612bd1565b306001600160a01b037f0000000000000000000000000000000000000000000000000000000000000000161480611b1457507f00000000000000000000000000000000000000000000000000000000000000006001600160a01b0316611b085f80516020612f28833981519152546001600160a01b031690565b6001600160a01b031614155b15610e385760405163703e46dd60e11b815260040160405180910390fd5b6001546001600160a01b03163314611029576040516356b381a560e01b815260040160405180910390fd5b816001600160a01b03166352d1902d6040518163ffffffff1660e01b8152600401602060405180830381865afa925050508015611bb7575060408051601f3d908101601f19168201909252611bb491810190612d7f565b60015b611bdf57604051634c9c8ce360e01b81526001600160a01b03831660048201526024016108c3565b5f80516020612f288339815191528114611c0f57604051632a87526960e21b8152600481018290526024016108c3565b6116aa8383612074565b306001600160a01b037f00000000000000000000000000000000000000000000000000000000000000001614610e385760405163703e46dd60e11b815260040160405180910390fd5b33611c6b61102c565b6001600160a01b031614610e385760405163118cdaa760e01b81523360048201526024016108c3565b7f237e158222e3e6968b72b9db0d8043aacf074ad9f650f0d1606b4d82ee432c0080546001600160a01b0319168155610e94826120c9565b6001600160a01b038216611cf557604051634b637e8f60e11b81525f60048201526024016108c3565b610e94825f83611ef6565b61102981612139565b5f80516020612f088339815191526001600160a01b038516611d405760405163e602df0560e01b81525f60048201526024016108c3565b6001600160a01b038416611d6957604051634a1406b160e11b81525f60048201526024016108c3565b6001600160a01b038086165f90815260018301602090815260408083209388168352929052208390558115611de657836001600160a01b0316856001600160a01b03167f8c5be1e5ebec7d5bd14f71427d1e84f3dd0314c0f7b2291e5b200ac8c7c3b92585604051611ddd91815260200190565b60405180910390a35b5050505050565b5f611e1a611dfa83612182565b8015611e1557505f8480611e1057611e10612baa565b868809115b151590565b611e258686866121ae565b611e2f9190612bd1565b95945050505050565b5f818152600283016020526040812054819080611e6557611e59858561225e565b92505f91506117209050565b600192509050611720565b5f828152600284016020526040812082905561173c8484612269565b5f61086a82612274565b611e9e61227d565b610e3857604051631afcd79f60e31b815260040160405180910390fd5b611ec3611e96565b610e948282612296565b611ed5611e96565b611029816122e6565b611ee6611e96565b610e38612369565b610e38611e96565b5f80516020612f088339815191526001600160a01b038416611f305781816002015f828254611f259190612bd1565b90915550611fa09050565b6001600160a01b0384165f9081526020829052604090205482811015611f825760405163391434e360e21b81526001600160a01b038616600482015260248101829052604481018490526064016108c3565b6001600160a01b0385165f9081526020839052604090209083900390555b6001600160a01b038316611fbe576002810180548390039055611fdc565b6001600160a01b0383165f9081526020829052604090208054830190555b826001600160a01b0316846001600160a01b03167fddf252ad1be2c89b69c2b068fc378daa952ba7f163c4a11628f55a4df523b3ef8460405161202191815260200190565b60405180910390a350505050565b5f808061203c8585612371565b5f81815260029690960160205260409095205494959350505050565b5f8181526002830160205260408120819055610c85838361237c565b61207d82612387565b6040516001600160a01b038316907fbc7cd75a20ee27fd9adebab32041f755214dbc6bffa90cc0225b39da2e5c2d3b905f90a28051156120c1576116aa82826123ea565b610e94612453565b7f9016d09d72d40fdae2fd8ceac6b6234c7706214fd39c1cd1e609a0528c19930080546001600160a01b031981166001600160a01b03848116918217845560405192169182907f8be0079c531659141344cd1fd0a4f28419497f9722a3daafe3b4186f6b6457e0905f90a3505050565b5f61214382611e8c565b90505f5b8181101561217857600283015f61215e8584612371565b815260208101919091526040015f90812055600101612147565b50610e9482612472565b5f600282600381111561219757612197612d96565b6121a19190612daa565b60ff166001149050919050565b5f805f6121bb868661247b565b91509150815f036121df578381816121d5576121d5612baa565b0492505050610c85565b8184116121f6576121f66003851502601118612497565b5f848688095f868103871696879004966002600389028118808a02820302808a02820302808a02820302808a02820302808a02820302808a02909103029181900381900460010185841190960395909502919093039390930492909217029150509392505050565b5f610c8583836124a8565b5f610c8583836124bf565b5f61086a825490565b5f61228661174e565b54600160401b900460ff16919050565b61229e611e96565b5f80516020612f088339815191527f52c63247e1f47db19d5ce0460030c497f067ca4cebf71ba98eeadabe20bace036122d78482612e0f565b50600481016119168382612e0f565b6122ee611e96565b7f0773e532dfede91f04b12a73d3d2acd361424f41f76b4fb79f090161e36b4e005f8061231a8461250b565b915091508161232a57601261232c565b805b83546001600160a81b031916600160a01b60ff92909216919091026001600160a01b031916176001600160a01b0394909416939093179091555050565b611a19611e96565b5f610c8583836125e1565b5f610c858383612607565b806001600160a01b03163b5f036123bc57604051634c9c8ce360e01b81526001600160a01b03821660048201526024016108c3565b5f80516020612f2883398151915280546001600160a01b0319166001600160a01b0392909216919091179055565b60605f80846001600160a01b0316846040516124069190612eca565b5f60405180830381855af49150503d805f811461243e576040519150601f19603f3d011682016040523d82523d5f602084013e612443565b606091505b5091509150611e2f8583836126ea565b3415610e385760405163b398979f60e01b815260040160405180910390fd5b61102981612746565b5f805f1983850993909202808410938190039390930393915050565b634e487b715f52806020526024601cfd5b5f8181526001830160205260408120541515610c85565b5f81815260018301602052604081205461250457508154600181810184555f84815260208082209093018490558454848252828601909352604090209190915561086a565b505f61086a565b60408051600481526024810182526020810180516001600160e01b031663313ce56760e01b17905290515f918291829182916001600160a01b0387169161255191612eca565b5f60405180830381855afa9150503d805f8114612589576040519150601f19603f3d011682016040523d82523d5f602084013e61258e565b606091505b50915091508180156125a257506020815110155b156125d5575f818060200190518101906125bc9190612d7f565b905060ff81116125d3576001969095509350505050565b505b505f9485945092505050565b5f825f0182815481106125f6576125f6612c37565b905f5260205f200154905092915050565b5f81815260018301602052604081205480156126e1575f612629600183612ee0565b85549091505f9061263c90600190612ee0565b905080821461269b575f865f01828154811061265a5761265a612c37565b905f5260205f200154905080875f01848154811061267a5761267a612c37565b5f918252602080832090910192909255918252600188019052604090208390555b85548690806126ac576126ac612ef3565b600190038181905f5260205f20015f90559055856001015f8681526020019081526020015f205f90556001935050505061086a565b5f91505061086a565b6060826126ff576126fa8261279f565b610c85565b815115801561271657506001600160a01b0384163b155b1561273f57604051639996b31560e01b81526001600160a01b03851660048201526024016108c3565b5080610c85565b5f61274f825490565b90505f5b8181101561279857826001015f845f01838154811061277457612774612c37565b905f5260205f20015481526020019081526020015f205f9055806001019050612753565b50505f9055565b8051156127af5780518082602001fd5b60405163d6bda27560e01b815260040160405180910390fd5b602081525f82518060208401528060208501604085015e5f604082850101526040601f19601f83011684010191505092915050565b5f6020828403121561280d575f80fd5b5035919050565b6001600160a01b0381168114611029575f80fd5b5f8060408385031215612839575f80fd5b823561284481612814565b946020939093013593505050565b634e487b7160e01b5f52604160045260245ffd5b5f8067ffffffffffffffff84111561288057612880612852565b50604051601f19601f85018116603f0116810181811067ffffffffffffffff821117156128af576128af612852565b6040528381529050808284018510156128c6575f80fd5b838360208301375f60208583010152509392505050565b5f82601f8301126128ec575f80fd5b610c8583833560208501612866565b5f805f806080858703121561290e575f80fd5b843561291981612814565b9350602085013561292981612814565b9250604085013567ffffffffffffffff811115612944575f80fd5b612950878288016128dd565b925050606085013567ffffffffffffffff81111561296c575f80fd5b612978878288016128dd565b91505092959194509250565b5f805f60608486031215612996575f80fd5b83356129a181612814565b925060208401356129b181612814565b929592945050506040919091013590565b5f602082840312156129d2575f80fd5b8135610c8581612814565b5f80604083850312156129ee575f80fd5b82356129f981612814565b9150602083013567ffffffffffffffff811115612a14575f80fd5b8301601f81018513612a24575f80fd5b612a3385823560208401612866565b9150509250929050565b5f8060408385031215612a4e575f80fd5b823591506020830135612a6081612814565b809150509250929050565b5f805f60608486031215612a7d575f80fd5b833592506020840135612a8f81612814565b91506040840135612a9f81612814565b809150509250925092565b5f8060408385031215612abb575f80fd5b8235612ac681612814565b91506020830135612a6081612814565b5f8060208385031215612ae7575f80fd5b823567ffffffffffffffff811115612afd575f80fd5b8301601f81018513612b0d575f80fd5b803567ffffffffffffffff811115612b23575f80fd5b8560208260061b8401011115612b37575f80fd5b6020919091019590945092505050565b600181811c90821680612b5b57607f821691505b602082108103612b7957634e487b7160e01b5f52602260045260245ffd5b50919050565b634e487b7160e01b5f52601160045260245ffd5b808202811582820484141761086a5761086a612b7f565b634e487b7160e01b5f52601260045260245ffd5b5f82612bcc57612bcc612baa565b500490565b8082018082111561086a5761086a612b7f565b5f60208284031215612bf4575f80fd5b81518015158114610c85575f80fd5b5f60208284031215612c13575f80fd5b8151610c8581612814565b60ff818116838216019081111561086a5761086a612b7f565b634e487b7160e01b5f52603260045260245ffd5b5f60208284031215612c5b575f80fd5b813563ffffffff81168114610c85575f80fd5b5f60208284031215612c7e575f80fd5b815160ff81168114610c85575f80fd5b6001815b6001841115612cc957808504811115612cad57612cad612b7f565b6001841615612cbb57908102905b60019390931c928002612c92565b935093915050565b5f82612cdf5750600161086a565b81612ceb57505f61086a565b8160018114612d015760028114612d0b57612d27565b600191505061086a565b60ff841115612d1c57612d1c612b7f565b50506001821b61086a565b5060208310610133831016604e8410600b8410161715612d4a575081810a61086a565b612d565f198484612c8e565b805f1904821115612d6957612d69612b7f565b029392505050565b5f610c8560ff841683612cd1565b5f60208284031215612d8f575f80fd5b5051919050565b634e487b7160e01b5f52602160045260245ffd5b5f60ff831680612dbc57612dbc612baa565b8060ff84160691505092915050565b601f8211156116aa57805f5260205f20601f840160051c81016020851015612df05750805b601f840160051c820191505b81811015611de6575f8155600101612dfc565b815167ffffffffffffffff811115612e2957612e29612852565b612e3d81612e378454612b47565b84612dcb565b6020601f821160018114612e6f575f8315612e585750848201515b5f19600385901b1c1916600184901b178455611de6565b5f84815260208120601f198516915b82811015612e9e5787850151825560209485019460019092019101612e7e565b5084821015612ebb57868401515f19600387901b60f8161c191681555b50505050600190811b01905550565b5f82518060208501845e5f920191825250919050565b8181038181111561086a5761086a612b7f565b634e487b7160e01b5f52603160045260245ffdfe52c63247e1f47db19d5ce0460030c497f067ca4cebf71ba98eeadabe20bace00360894a13ba1a3210667c828492db98dca3e2076cc3735a920a3ca505d382bbca26469706673582212203e55ba6c3ee3d31e3b9a52d5b1bb81015a6c5a323b40bdfa6884b55818ca2e9f64736f6c634300081a0033",
  "linkReferences": {},
  "deployedLinkReferences": {}
}