{
  "_format": "hh-sol-artifact-1",
  "contractName": "OrionTransparentVault",
  "sourceName": "contracts/OrionTransparentVault.sol",
  "abi": [
    {
      "inputs": [
        {
          "internalType": "address",
          "name": "target",
          "type": "address"
        }
      ],
      "name": "AddressEmptyCode",
      "type": "error"
    },
    {
      "inputs": [
        {
          "internalType": "address",
          "name": "asset",
          "type": "address"
        }
      ],
      "name": "AmountMustBeGreaterThanZero",
      "type": "error"
    },
    {
      "inputs": [
        {
          "internalType": "address",
          "name": "implementation",
          "type": "address"
        }
      ],
      "name": "ERC1967InvalidImplementation",
      "type": "error"
    },
    {
      "inputs": [],
      "name": "ERC1967NonPayable",
      "type": "error"
    },
    {
      "inputs": [
        {
          "internalType": "address",
          "name": "spender",
          "type": "address"
        },
        {
          "internalType": "uint256",
          "name": "allowance",
          "type": "uint256"
        },
        {
          "internalType": "uint256",
          "name": "needed",
          "type": "uint256"
        }
      ],
      "name": "ERC20InsufficientAllowance",
      "type": "error"
    },
    {
      "inputs": [
        {
          "internalType": "address",
          "name": "sender",
          "type": "address"
        },
        {
          "internalType": "uint256",
          "name": "balance",
          "type": "uint256"
        },
        {
          "internalType": "uint256",
          "name": "needed",
          "type": "uint256"
        }
      ],
      "name": "ERC20InsufficientBalance",
      "type": "error"
    },
    {
      "inputs": [
        {
          "internalType": "address",
          "name": "approver",
          "type": "address"
        }
      ],
      "name": "ERC20InvalidApprover",
      "type": "error"
    },
    {
      "inputs": [
        {
          "internalType": "address",
          "name": "receiver",
          "type": "address"
        }
      ],
      "name": "ERC20InvalidReceiver",
      "type": "error"
    },
    {
      "inputs": [
        {
          "internalType": "address",
          "name": "sender",
          "type": "address"
        }
      ],
      "name": "ERC20InvalidSender",
      "type": "error"
    },
    {
      "inputs": [
        {
          "internalType": "address",
          "name": "spender",
          "type": "address"
        }
      ],
      "name": "ERC20InvalidSpender",
      "type": "error"
    },
    {
      "inputs": [
        {
          "internalType": "address",
          "name": "receiver",
          "type": "address"
        },
        {
          "internalType": "uint256",
          "name": "assets",
          "type": "uint256"
        },
        {
          "internalType": "uint256",
          "name": "max",
          "type": "uint256"
        }
      ],
      "name": "ERC4626ExceededMaxDeposit",
      "type": "error"
    },
    {
      "inputs": [
        {
          "internalType": "address",
          "name": "receiver",
          "type": "address"
        },
        {
          "internalType": "uint256",
          "name": "shares",
          "type": "uint256"
        },
        {
          "internalType": "uint256",
          "name": "max",
          "type": "uint256"
        }
      ],
      "name": "ERC4626ExceededMaxMint",
      "type": "error"
    },
    {
      "inputs": [
        {
          "internalType": "address",
          "name": "owner",
          "type": "address"
        },
        {
          "internalType": "uint256",
          "name": "shares",
          "type": "uint256"
        },
        {
          "internalType": "uint256",
          "name": "max",
          "type": "uint256"
        }
      ],
      "name": "ERC4626ExceededMaxRedeem",
      "type": "error"
    },
    {
      "inputs": [
        {
          "internalType": "address",
          "name": "owner",
          "type": "address"
        },
        {
          "internalType": "uint256",
          "name": "assets",
          "type": "uint256"
        },
        {
          "internalType": "uint256",
          "name": "max",
          "type": "uint256"
        }
      ],
      "name": "ERC4626ExceededMaxWithdraw",
      "type": "error"
    },
    {
      "inputs": [],
      "name": "FailedCall",
      "type": "error"
    },
    {
      "inputs": [],
      "name": "InvalidConfigAddress",
      "type": "error"
    },
    {
      "inputs": [],
      "name": "InvalidCuratorAddress",
      "type": "error"
    },
    {
      "inputs": [],
      "name": "InvalidInitialization",
      "type": "error"
    },
    {
      "inputs": [],
      "name": "InvalidTotalWeight",
      "type": "error"
    },
    {
      "inputs": [],
      "name": "NotCurator",
      "type": "error"
    },
    {
      "inputs": [],
      "name": "NotEnoughDepositRequest",
      "type": "error"
    },
    {
      "inputs": [],
      "name": "NotEnoughShares",
      "type": "error"
    },
    {
      "inputs": [],
      "name": "NotInitializing",
      "type": "error"
    },
    {
      "inputs": [],
      "name": "NotInternalStatesOrchestrator",
      "type": "error"
    },
    {
      "inputs": [],
      "name": "NotLiquidityOrchestrator",
      "type": "error"
    },
    {
      "inputs": [],
      "name": "OrderIntentCannotBeEmpty",
      "type": "error"
    },
    {
      "inputs": [
        {
          "internalType": "address",
          "name": "owner",
          "type": "address"
        }
      ],
      "name": "OwnableInvalidOwner",
      "type": "error"
    },
    {
      "inputs": [
        {
          "internalType": "address",
          "name": "account",
          "type": "address"
        }
      ],
      "name": "OwnableUnauthorizedAccount",
      "type": "error"
    },
    {
      "inputs": [],
      "name": "ReentrancyGuardReentrantCall",
      "type": "error"
    },
    {
      "inputs": [],
      "name": "SharesMustBeGreaterThanZero",
      "type": "error"
    },
    {
      "inputs": [],
      "name": "SynchronousDepositsDisabled",
      "type": "error"
    },
    {
      "inputs": [],
      "name": "SynchronousRedemptionsDisabled",
      "type": "error"
    },
    {
      "inputs": [],
      "name": "SynchronousWithdrawalsDisabled",
      "type": "error"
    },
    {
      "inputs": [
        {
          "internalType": "address",
          "name": "token",
          "type": "address"
        }
      ],
      "name": "TokenAlreadyInOrder",
      "type": "error"
    },
    {
      "inputs": [
        {
          "internalType": "address",
          "name": "token",
          "type": "address"
        }
      ],
      "name": "TokenNotWhitelisted",
      "type": "error"
    },
    {
      "inputs": [],
      "name": "TransferFailed",
      "type": "error"
    },
    {
      "inputs": [],
      "name": "UUPSUnauthorizedCallContext",
      "type": "error"
    },
    {
      "inputs": [
        {
          "internalType": "bytes32",
          "name": "slot",
          "type": "bytes32"
        }
      ],
      "name": "UUPSUnsupportedProxiableUUID",
      "type": "error"
    },
    {
      "inputs": [],
      "name": "ZeroPrice",
      "type": "error"
    },
    {
      "anonymous": false,
      "inputs": [
        {
          "indexed": true,
          "internalType": "address",
          "name": "owner",
          "type": "address"
        },
        {
          "indexed": true,
          "internalType": "address",
          "name": "spender",
          "type": "address"
        },
        {
          "indexed": false,
          "internalType": "uint256",
          "name": "value",
          "type": "uint256"
        }
      ],
      "name": "Approval",
      "type": "event"
    },
    {
      "anonymous": false,
      "inputs": [
        {
          "indexed": true,
          "internalType": "address",
          "name": "sender",
          "type": "address"
        },
        {
          "indexed": true,
          "internalType": "address",
          "name": "owner",
          "type": "address"
        },
        {
          "indexed": false,
          "internalType": "uint256",
          "name": "assets",
          "type": "uint256"
        },
        {
          "indexed": false,
          "internalType": "uint256",
          "name": "shares",
          "type": "uint256"
        }
      ],
      "name": "Deposit",
      "type": "event"
    },
    {
      "anonymous": false,
      "inputs": [
        {
          "indexed": true,
          "internalType": "address",
          "name": "user",
          "type": "address"
        },
        {
          "indexed": false,
          "internalType": "uint256",
          "name": "amount",
          "type": "uint256"
        },
        {
          "indexed": false,
          "internalType": "uint256",
          "name": "requestId",
          "type": "uint256"
        }
      ],
      "name": "DepositProcessed",
      "type": "event"
    },
    {
      "anonymous": false,
      "inputs": [
        {
          "indexed": true,
          "internalType": "address",
          "name": "user",
          "type": "address"
        },
        {
          "indexed": false,
          "internalType": "uint256",
          "name": "amount",
          "type": "uint256"
        },
        {
          "indexed": false,
          "internalType": "uint256",
          "name": "depositorCount",
          "type": "uint256"
        }
      ],
      "name": "DepositRequestCancelled",
      "type": "event"
    },
    {
      "anonymous": false,
      "inputs": [
        {
          "indexed": true,
          "internalType": "address",
          "name": "user",
          "type": "address"
        },
        {
          "indexed": false,
          "internalType": "uint256",
          "name": "amount",
          "type": "uint256"
        },
        {
          "indexed": false,
          "internalType": "uint256",
          "name": "requestId",
          "type": "uint256"
        }
      ],
      "name": "DepositRequested",
      "type": "event"
    },
    {
      "anonymous": false,
      "inputs": [
        {
          "indexed": false,
          "internalType": "uint64",
          "name": "version",
          "type": "uint64"
        }
      ],
      "name": "Initialized",
      "type": "event"
    },
    {
      "anonymous": false,
      "inputs": [
        {
          "indexed": true,
          "internalType": "address",
          "name": "curator",
          "type": "address"
        }
      ],
      "name": "OrderSubmitted",
      "type": "event"
    },
    {
      "anonymous": false,
      "inputs": [
        {
          "indexed": true,
          "internalType": "address",
          "name": "previousOwner",
          "type": "address"
        },
        {
          "indexed": true,
          "internalType": "address",
          "name": "newOwner",
          "type": "address"
        }
      ],
      "name": "OwnershipTransferStarted",
      "type": "event"
    },
    {
      "anonymous": false,
      "inputs": [
        {
          "indexed": true,
          "internalType": "address",
          "name": "previousOwner",
          "type": "address"
        },
        {
          "indexed": true,
          "internalType": "address",
          "name": "newOwner",
          "type": "address"
        }
      ],
      "name": "OwnershipTransferred",
      "type": "event"
    },
    {
      "anonymous": false,
      "inputs": [
        {
          "indexed": true,
          "internalType": "address",
          "name": "from",
          "type": "address"
        },
        {
          "indexed": true,
          "internalType": "address",
          "name": "to",
          "type": "address"
        },
        {
          "indexed": false,
          "internalType": "uint256",
          "name": "value",
          "type": "uint256"
        }
      ],
      "name": "Transfer",
      "type": "event"
    },
    {
      "anonymous": false,
      "inputs": [
        {
          "indexed": true,
          "internalType": "address",
          "name": "implementation",
          "type": "address"
        }
      ],
      "name": "Upgraded",
      "type": "event"
    },
    {
      "anonymous": false,
      "inputs": [
        {
          "indexed": false,
          "internalType": "uint256",
          "name": "newTotalAssets",
          "type": "uint256"
        }
      ],
      "name": "VaultStateUpdated",
      "type": "event"
    },
    {
      "anonymous": false,
      "inputs": [
        {
          "indexed": true,
          "internalType": "address",
          "name": "sender",
          "type": "address"
        },
        {
          "indexed": true,
          "internalType": "address",
          "name": "receiver",
          "type": "address"
        },
        {
          "indexed": true,
          "internalType": "address",
          "name": "owner",
          "type": "address"
        },
        {
          "indexed": false,
          "internalType": "uint256",
          "name": "assets",
          "type": "uint256"
        },
        {
          "indexed": false,
          "internalType": "uint256",
          "name": "shares",
          "type": "uint256"
        }
      ],
      "name": "Withdraw",
      "type": "event"
    },
    {
      "anonymous": false,
      "inputs": [
        {
          "indexed": true,
          "internalType": "address",
          "name": "user",
          "type": "address"
        },
        {
          "indexed": false,
          "internalType": "uint256",
          "name": "shares",
          "type": "uint256"
        },
        {
          "indexed": false,
          "internalType": "uint256",
          "name": "requestId",
          "type": "uint256"
        }
      ],
      "name": "WithdrawProcessed",
      "type": "event"
    },
    {
      "anonymous": false,
      "inputs": [
        {
          "indexed": true,
          "internalType": "address",
          "name": "user",
          "type": "address"
        },
        {
          "indexed": false,
          "internalType": "uint256",
          "name": "shares",
          "type": "uint256"
        },
        {
          "indexed": false,
          "internalType": "uint256",
          "name": "requestId",
          "type": "uint256"
        }
      ],
      "name": "WithdrawRequested",
      "type": "event"
    },
    {
      "inputs": [],
      "name": "UPGRADE_INTERFACE_VERSION",
      "outputs": [
        {
          "internalType": "string",
          "name": "",
          "type": "string"
        }
      ],
      "stateMutability": "view",
      "type": "function"
    },
    {
      "inputs": [],
      "name": "acceptOwnership",
      "outputs": [],
      "stateMutability": "nonpayable",
      "type": "function"
    },
    {
      "inputs": [
        {
          "internalType": "address",
          "name": "owner",
          "type": "address"
        },
        {
          "internalType": "address",
          "name": "spender",
          "type": "address"
        }
      ],
      "name": "allowance",
      "outputs": [
        {
          "internalType": "uint256",
          "name": "",
          "type": "uint256"
        }
      ],
      "stateMutability": "view",
      "type": "function"
    },
    {
      "inputs": [
        {
          "internalType": "address",
          "name": "spender",
          "type": "address"
        },
        {
          "internalType": "uint256",
          "name": "value",
          "type": "uint256"
        }
      ],
      "name": "approve",
      "outputs": [
        {
          "internalType": "bool",
          "name": "",
          "type": "bool"
        }
      ],
      "stateMutability": "nonpayable",
      "type": "function"
    },
    {
      "inputs": [],
      "name": "asset",
      "outputs": [
        {
          "internalType": "address",
          "name": "",
          "type": "address"
        }
      ],
      "stateMutability": "view",
      "type": "function"
    },
    {
      "inputs": [
        {
          "internalType": "address",
          "name": "account",
          "type": "address"
        }
      ],
      "name": "balanceOf",
      "outputs": [
        {
          "internalType": "uint256",
          "name": "",
          "type": "uint256"
        }
      ],
      "stateMutability": "view",
      "type": "function"
    },
    {
      "inputs": [
        {
          "internalType": "uint256",
          "name": "amount",
          "type": "uint256"
        }
      ],
      "name": "cancelDepositRequest",
      "outputs": [],
      "stateMutability": "nonpayable",
      "type": "function"
    },
    {
      "inputs": [],
      "name": "config",
      "outputs": [
        {
          "internalType": "contract IOrionConfig",
          "name": "",
          "type": "address"
        }
      ],
      "stateMutability": "view",
      "type": "function"
    },
    {
      "inputs": [
        {
          "internalType": "uint256",
          "name": "shares",
          "type": "uint256"
        }
      ],
      "name": "convertToAssets",
      "outputs": [
        {
          "internalType": "uint256",
          "name": "",
          "type": "uint256"
        }
      ],
      "stateMutability": "view",
      "type": "function"
    },
    {
      "inputs": [
        {
          "internalType": "uint256",
          "name": "assets",
          "type": "uint256"
        }
      ],
      "name": "convertToShares",
      "outputs": [
        {
          "internalType": "uint256",
          "name": "",
          "type": "uint256"
        }
      ],
      "stateMutability": "view",
      "type": "function"
    },
    {
      "inputs": [],
      "name": "curator",
      "outputs": [
        {
          "internalType": "address",
          "name": "",
          "type": "address"
        }
      ],
      "stateMutability": "view",
      "type": "function"
    },
    {
      "inputs": [],
      "name": "decimals",
      "outputs": [
        {
          "internalType": "uint8",
          "name": "",
          "type": "uint8"
        }
      ],
      "stateMutability": "view",
      "type": "function"
    },
    {
      "inputs": [],
      "name": "deployer",
      "outputs": [
        {
          "internalType": "address",
          "name": "",
          "type": "address"
        }
      ],
      "stateMutability": "view",
      "type": "function"
    },
    {
      "inputs": [
        {
          "internalType": "uint256",
          "name": "",
          "type": "uint256"
        },
        {
          "internalType": "address",
          "name": "",
          "type": "address"
        }
      ],
      "name": "deposit",
      "outputs": [
        {
          "internalType": "uint256",
          "name": "",
          "type": "uint256"
        }
      ],
      "stateMutability": "pure",
      "type": "function"
    },
    {
      "inputs": [],
      "name": "getCuratorOrder",
      "outputs": [
        {
          "internalType": "address[]",
          "name": "tokens",
          "type": "address[]"
        },
        {
          "internalType": "uint256[]",
          "name": "weights",
          "type": "uint256[]"
        }
      ],
      "stateMutability": "view",
      "type": "function"
    },
    {
      "inputs": [],
      "name": "getPendingDeposits",
      "outputs": [
        {
          "internalType": "uint256",
          "name": "",
          "type": "uint256"
        }
      ],
      "stateMutability": "view",
      "type": "function"
    },
    {
      "inputs": [],
      "name": "getPendingWithdrawals",
      "outputs": [
        {
          "internalType": "uint256",
          "name": "",
          "type": "uint256"
        }
      ],
      "stateMutability": "view",
      "type": "function"
    },
    {
      "inputs": [],
      "name": "getPortfolio",
      "outputs": [
        {
          "internalType": "address[]",
          "name": "tokens",
          "type": "address[]"
        },
        {
          "internalType": "uint256[]",
          "name": "weights",
          "type": "uint256[]"
        }
      ],
      "stateMutability": "view",
      "type": "function"
    },
    {
      "inputs": [
        {
          "internalType": "address",
          "name": "curatorAddress",
          "type": "address"
        },
        {
          "internalType": "contract IOrionConfig",
          "name": "configAddress",
          "type": "address"
        },
        {
          "internalType": "string",
          "name": "name",
          "type": "string"
        },
        {
          "internalType": "string",
          "name": "symbol",
          "type": "string"
        }
      ],
      "name": "initialize",
      "outputs": [],
      "stateMutability": "nonpayable",
      "type": "function"
    },
    {
      "inputs": [
        {
          "internalType": "address",
          "name": "",
          "type": "address"
        }
      ],
      "name": "maxDeposit",
      "outputs": [
        {
          "internalType": "uint256",
          "name": "",
          "type": "uint256"
        }
      ],
      "stateMutability": "view",
      "type": "function"
    },
    {
      "inputs": [
        {
          "internalType": "address",
          "name": "",
          "type": "address"
        }
      ],
      "name": "maxMint",
      "outputs": [
        {
          "internalType": "uint256",
          "name": "",
          "type": "uint256"
        }
      ],
      "stateMutability": "view",
      "type": "function"
    },
    {
      "inputs": [
        {
          "internalType": "address",
          "name": "owner",
          "type": "address"
        }
      ],
      "name": "maxRedeem",
      "outputs": [
        {
          "internalType": "uint256",
          "name": "",
          "type": "uint256"
        }
      ],
      "stateMutability": "view",
      "type": "function"
    },
    {
      "inputs": [
        {
          "internalType": "address",
          "name": "owner",
          "type": "address"
        }
      ],
      "name": "maxWithdraw",
      "outputs": [
        {
          "internalType": "uint256",
          "name": "",
          "type": "uint256"
        }
      ],
      "stateMutability": "view",
      "type": "function"
    },
    {
      "inputs": [
        {
          "internalType": "uint256",
          "name": "",
          "type": "uint256"
        },
        {
          "internalType": "address",
          "name": "",
          "type": "address"
        }
      ],
      "name": "mint",
      "outputs": [
        {
          "internalType": "uint256",
          "name": "",
          "type": "uint256"
        }
      ],
      "stateMutability": "pure",
      "type": "function"
    },
    {
      "inputs": [],
      "name": "name",
      "outputs": [
        {
          "internalType": "string",
          "name": "",
          "type": "string"
        }
      ],
      "stateMutability": "view",
      "type": "function"
    },
    {
      "inputs": [],
      "name": "owner",
      "outputs": [
        {
          "internalType": "address",
          "name": "",
          "type": "address"
        }
      ],
      "stateMutability": "view",
      "type": "function"
    },
    {
      "inputs": [],
      "name": "pendingOwner",
      "outputs": [
        {
          "internalType": "address",
          "name": "",
          "type": "address"
        }
      ],
      "stateMutability": "view",
      "type": "function"
    },
    {
      "inputs": [
        {
          "internalType": "uint256",
          "name": "assets",
          "type": "uint256"
        }
      ],
      "name": "previewDeposit",
      "outputs": [
        {
          "internalType": "uint256",
          "name": "",
          "type": "uint256"
        }
      ],
      "stateMutability": "view",
      "type": "function"
    },
    {
      "inputs": [
        {
          "internalType": "uint256",
          "name": "shares",
          "type": "uint256"
        }
      ],
      "name": "previewMint",
      "outputs": [
        {
          "internalType": "uint256",
          "name": "",
          "type": "uint256"
        }
      ],
      "stateMutability": "view",
      "type": "function"
    },
    {
      "inputs": [
        {
          "internalType": "uint256",
          "name": "shares",
          "type": "uint256"
        }
      ],
      "name": "previewRedeem",
      "outputs": [
        {
          "internalType": "uint256",
          "name": "",
          "type": "uint256"
        }
      ],
      "stateMutability": "view",
      "type": "function"
    },
    {
      "inputs": [
        {
          "internalType": "uint256",
          "name": "assets",
          "type": "uint256"
        }
      ],
      "name": "previewWithdraw",
      "outputs": [
        {
          "internalType": "uint256",
          "name": "",
          "type": "uint256"
        }
      ],
      "stateMutability": "view",
      "type": "function"
    },
    {
      "inputs": [],
      "name": "processDepositRequests",
      "outputs": [],
      "stateMutability": "nonpayable",
      "type": "function"
    },
    {
      "inputs": [],
      "name": "processWithdrawRequests",
      "outputs": [],
      "stateMutability": "nonpayable",
      "type": "function"
    },
    {
      "inputs": [],
      "name": "proxiableUUID",
      "outputs": [
        {
          "internalType": "bytes32",
          "name": "",
          "type": "bytes32"
        }
      ],
      "stateMutability": "view",
      "type": "function"
    },
    {
      "inputs": [
        {
          "internalType": "uint256",
          "name": "",
          "type": "uint256"
        },
        {
          "internalType": "address",
          "name": "",
          "type": "address"
        },
        {
          "internalType": "address",
          "name": "",
          "type": "address"
        }
      ],
      "name": "redeem",
      "outputs": [
        {
          "internalType": "uint256",
          "name": "",
          "type": "uint256"
        }
      ],
      "stateMutability": "pure",
      "type": "function"
    },
    {
      "inputs": [],
      "name": "renounceOwnership",
      "outputs": [],
      "stateMutability": "nonpayable",
      "type": "function"
    },
    {
      "inputs": [
        {
          "internalType": "uint256",
          "name": "amount",
          "type": "uint256"
        }
      ],
      "name": "requestDeposit",
      "outputs": [],
      "stateMutability": "nonpayable",
      "type": "function"
    },
    {
      "inputs": [
        {
          "internalType": "uint256",
          "name": "shares",
          "type": "uint256"
        }
      ],
      "name": "requestWithdraw",
      "outputs": [],
      "stateMutability": "nonpayable",
      "type": "function"
    },
    {
      "inputs": [
        {
          "components": [
            {
              "internalType": "address",
              "name": "token",
              "type": "address"
            },
            {
              "internalType": "uint32",
              "name": "weight",
              "type": "uint32"
            }
          ],
          "internalType": "struct IOrionTransparentVault.Position[]",
          "name": "order",
          "type": "tuple[]"
        }
      ],
      "name": "submitOrderIntent",
      "outputs": [],
      "stateMutability": "nonpayable",
      "type": "function"
    },
    {
      "inputs": [],
      "name": "symbol",
      "outputs": [
        {
          "internalType": "string",
          "name": "",
          "type": "string"
        }
      ],
      "stateMutability": "view",
      "type": "function"
    },
    {
      "inputs": [],
      "name": "totalAssets",
      "outputs": [
        {
          "internalType": "uint256",
          "name": "",
          "type": "uint256"
        }
      ],
      "stateMutability": "view",
      "type": "function"
    },
    {
      "inputs": [],
      "name": "totalSupply",
      "outputs": [
        {
          "internalType": "uint256",
          "name": "",
          "type": "uint256"
        }
      ],
      "stateMutability": "view",
      "type": "function"
    },
    {
      "inputs": [
        {
          "internalType": "address",
          "name": "to",
          "type": "address"
        },
        {
          "internalType": "uint256",
          "name": "value",
          "type": "uint256"
        }
      ],
      "name": "transfer",
      "outputs": [
        {
          "internalType": "bool",
          "name": "",
          "type": "bool"
        }
      ],
      "stateMutability": "nonpayable",
      "type": "function"
    },
    {
      "inputs": [
        {
          "internalType": "address",
          "name": "from",
          "type": "address"
        },
        {
          "internalType": "address",
          "name": "to",
          "type": "address"
        },
        {
          "internalType": "uint256",
          "name": "value",
          "type": "uint256"
        }
      ],
      "name": "transferFrom",
      "outputs": [
        {
          "internalType": "bool",
          "name": "",
          "type": "bool"
        }
      ],
      "stateMutability": "nonpayable",
      "type": "function"
    },
    {
      "inputs": [
        {
          "internalType": "address",
          "name": "newOwner",
          "type": "address"
        }
      ],
      "name": "transferOwnership",
      "outputs": [],
      "stateMutability": "nonpayable",
      "type": "function"
    },
    {
      "inputs": [
        {
          "internalType": "uint256",
          "name": "newTotalAssets",
          "type": "uint256"
        }
      ],
      "name": "updateVaultState",
      "outputs": [],
      "stateMutability": "nonpayable",
      "type": "function"
    },
    {
      "inputs": [
        {
          "internalType": "address",
          "name": "newImplementation",
          "type": "address"
        },
        {
          "internalType": "bytes",
          "name": "data",
          "type": "bytes"
        }
      ],
      "name": "upgradeToAndCall",
      "outputs": [],
      "stateMutability": "payable",
      "type": "function"
    },
    {
      "inputs": [
        {
          "internalType": "uint256",
          "name": "",
          "type": "uint256"
        },
        {
          "internalType": "address",
          "name": "",
          "type": "address"
        },
        {
          "internalType": "address",
          "name": "",
          "type": "address"
        }
      ],
      "name": "withdraw",
      "outputs": [
        {
          "internalType": "uint256",
          "name": "",
          "type": "uint256"
        }
      ],
      "stateMutability": "pure",
      "type": "function"
    }
  ],
  "bytecode": "0x60a0604052306080523480156012575f80fd5b5060805161340e6100395f395f8181611fcb01528181611ff40152612156015261340e5ff3fe60806040526004361061028b575f3560e01c806394bf804d11610155578063cc1277a0116100be578063dd62ed3e11610078578063dd62ed3e14610722578063e30c397814610741578063e66f53b714610755578063ef8b30f71461065c578063f2fde38b14610774578063fb12251b14610793575f80fd5b8063cc1277a01461067b578063ce96cb771461069d578063d1699c26146106bc578063d3d03458146106d0578063d5f39488146106e4578063d905777e14610703575f80fd5b8063b460af941161010f578063b460af94146105eb578063ba0876521461060a578063c0b568e114610629578063c37fc8a814610648578063c63d75b614610438578063c6e6f5921461065c575f80fd5b806394bf804d1461049e57806395d89b4114610555578063a9059cbb14610569578063aa9d3a6014610588578063ad3cb1cc1461059c578063b3d7f6b9146105cc575f80fd5b8063402d267d116101f757806370a08231116101b157806370a08231146104bd578063715018a6146104dc578063745400c9146104f057806379502c551461050f57806379ba50971461052d5780638da5cb5b14610541575f80fd5b8063402d267d146104385780634cdad506146102d35780634f1ef2861461045857806352d1902d1461046b57806369440afc1461047f5780636e553f651461049e575f80fd5b806318160ddd1161024857806318160ddd146103615780632016a0d21461039457806323b872dd146103b3578063313ce567146103d257806333fdc592146103f857806338d52e0f1461040c575f80fd5b806301e1d1141461028f57806306fdde03146102b257806307a2d13a146102d3578063095ea7b3146102f25780630a28a477146103215780630d1e666714610340575b5f80fd5b34801561029a575f80fd5b506003545b6040519081526020015b60405180910390f35b3480156102bd575f80fd5b506102c66107b2565b6040516102a99190612bd1565b3480156102de575f80fd5b5061029f6102ed366004612c06565b610872565b3480156102fd575f80fd5b5061031161030c366004612c31565b610883565b60405190151581526020016102a9565b34801561032c575f80fd5b5061029f61033b366004612c06565b61089a565b34801561034b575f80fd5b5061035f61035a366004612c06565b6108a6565b005b34801561036c575f80fd5b507f52c63247e1f47db19d5ce0460030c497f067ca4cebf71ba98eeadabe20bace025461029f565b34801561039f575f80fd5b5061035f6103ae366004612c98565b610a5f565b3480156103be575f80fd5b506103116103cd366004612d2a565b610bc5565b3480156103dd575f80fd5b506103e6610bea565b60405160ff90911681526020016102a9565b348015610403575f80fd5b5061035f610c2c565b348015610417575f80fd5b50610420610db5565b6040516001600160a01b0390911681526020016102a9565b348015610443575f80fd5b5061029f610452366004612d68565b505f1990565b61035f610466366004612d97565b610de9565b348015610476575f80fd5b5061029f610e08565b34801561048a575f80fd5b5061035f610499366004612c06565b610e23565b3480156104a9575f80fd5b5061029f6104b8366004612e5a565b610f21565b3480156104c8575f80fd5b5061029f6104d7366004612d68565b610f3b565b3480156104e7575f80fd5b5061035f610f61565b3480156104fb575f80fd5b5061035f61050a366004612c06565b610f72565b34801561051a575f80fd5b505f54610420906001600160a01b031681565b348015610538575f80fd5b5061035f611088565b34801561054c575f80fd5b506104206110cd565b348015610560575f80fd5b506102c66110f5565b348015610574575f80fd5b50610311610583366004612c31565b611133565b348015610593575f80fd5b5061035f611140565b3480156105a7575f80fd5b506102c6604051806040016040528060058152602001640352e302e360dc1b81525081565b3480156105d7575f80fd5b5061029f6105e6366004612c06565b611331565b3480156105f6575f80fd5b5061029f610605366004612e88565b61133d565b348015610615575f80fd5b5061029f610624366004612e88565b611356565b348015610634575f80fd5b5061035f610643366004612c06565b611370565b348015610653575f80fd5b5061029f6114c8565b348015610667575f80fd5b5061029f610676366004612c06565b61152f565b348015610686575f80fd5b5061068f61153a565b6040516102a9929190612ec7565b3480156106a8575f80fd5b5061029f6106b7366004612d68565b61164e565b3480156106c7575f80fd5b5061029f611661565b3480156106db575f80fd5b5061068f6116c0565b3480156106ef575f80fd5b50600254610420906001600160a01b031681565b34801561070e575f80fd5b5061029f61071d366004612d68565b6117ce565b34801561072d575f80fd5b5061029f61073c366004612f50565b6117d8565b34801561074c575f80fd5b50610420611821565b348015610760575f80fd5b50600154610420906001600160a01b031681565b34801561077f575f80fd5b5061035f61078e366004612d68565b611849565b34801561079e575f80fd5b5061035f6107ad366004612f7c565b6118ce565b7f52c63247e1f47db19d5ce0460030c497f067ca4cebf71ba98eeadabe20bace0380546060915f80516020613379833981519152916107f090612feb565b80601f016020809104026020016040519081016040528092919081815260200182805461081c90612feb565b80156108675780601f1061083e57610100808354040283529160200191610867565b820191905f5260205f20905b81548152906001019060200180831161084a57829003601f168201915b505050505091505090565b5f61087d825f611b7e565b92915050565b5f33610890818585611c59565b5060019392505050565b5f61087d826001611c6b565b6108ae611d33565b805f036108e7576108bd610db5565b604051636b30633560e01b81526001600160a01b0390911660048201526024015b60405180910390fd5b335f90815260046020526040812054900361093e57600680546001810182555f919091527ff652222313e28459528d920b65115c16c04f3efc82aaedc97be59f3f377c0d3f0180546001600160a01b031916331790555b335f908152600460205260408120805483929061095c908490613037565b909155505f905061096b610db5565b6040516323b872dd60e01b8152336004820152306024820152604481018490526001600160a01b0391909116906323b872dd906064016020604051808303815f875af11580156109bd573d5f803e3d5ffd5b505050506040513d601f19601f820116820180604052508101906109e1919061304a565b905080610a01576040516312171d8360e31b815260040160405180910390fd5b60065460405133917f03979a8c481a9e9c06938045cfd5c28535255cb003b10a8fe84ebb3cb4d440f291610a3d91868252602082015260400190565b60405180910390a250610a5c60015f805160206133b983398151915255565b50565b5f610a68611d7d565b805490915060ff600160401b82041615906001600160401b03165f81158015610a8e5750825b90505f826001600160401b03166001148015610aa95750303b155b905081158015610ab7575080155b15610ad55760405163f92ee8a960e01b815260040160405180910390fd5b845467ffffffffffffffff191660011785558315610aff57845460ff60401b1916600160401b1785555b610b728b8b8b8b8080601f0160208091040260200160405190810160405280939291908181526020018383808284375f9201919091525050604080516020601f8f018190048102820181019092528d815292508d91508c90819084018382808284375f92019190915250611da592505050565b8315610bb857845460ff60401b19168555604051600181527fc7f505b2f371ae2175ee4913f4499e1f2633a7b5936321eed1cdaeb6115181d29060200160405180910390a15b5050505050505050505050565b5f33610bd2858285611ecb565b610bdd858585611f2f565b60019150505b9392505050565b5f807f0773e532dfede91f04b12a73d3d2acd361424f41f76b4fb79f090161e36b4e0090505f8154610c269190600160a01b900460ff16613069565b91505090565b5f8054906101000a90046001600160a01b03166001600160a01b0316633a0dad8e6040518163ffffffff1660e01b8152600401602060405180830381865afa158015610c7a573d5f803e3d5ffd5b505050506040513d601f19601f82011682018060405250810190610c9e9190613082565b6001600160a01b0316336001600160a01b031614610ccf57604051631af2ab4f60e31b815260040160405180910390fd5b610cd7611d33565b6006545f5b81811015610d9b575f60068281548110610cf857610cf861309d565b5f9182526020808320909101546001600160a01b03168083526004909152604082205490925090610d288261152f565b6001600160a01b0384165f908152600460205260408120559050610d4c8382611f8c565b60408051838152602081018690526001600160a01b038516917f782ea2005b7f873a0190a1ccb553c732171348d6e16d2b7d3d493c0677dc296e910160405180910390a2505050600101610cdc565b5050610db360015f805160206133b983398151915255565b565b5f807f0773e532dfede91f04b12a73d3d2acd361424f41f76b4fb79f090161e36b4e005b546001600160a01b031692915050565b610df1611fc0565b610dfa82612064565b610e04828261208f565b5050565b5f610e1161214b565b505f8051602061339983398151915290565b5f8054906101000a90046001600160a01b03166001600160a01b031663348ec5c86040518163ffffffff1660e01b8152600401602060405180830381865afa158015610e71573d5f803e3d5ffd5b505050506040513d601f19601f82011682018060405250810190610e959190613082565b6001600160a01b0316336001600160a01b031614610ec65760405163efb380d960e01b815260040160405180910390fd5b805f03610ee657604051634dfba02360e01b815260040160405180910390fd5b60038190556040518181527f5e1ff954b5e5257e9ee5d4cb07059e8f5e69b1aaaf9911e5d8d90a6894de9c219060200160405180910390a150565b5f6040516318f2e47360e11b815260040160405180910390fd5b6001600160a01b03165f9081525f80516020613379833981519152602052604090205490565b610f69612194565b610db35f6121c6565b805f03610f92576040516314e6cbb960e11b815260040160405180910390fd5b80610f9c33610f3b565b1015610fbb57604051633c57b48560e21b815260040160405180910390fd5b335f90815260056020526040812054900361101257600780546001810182555f919091527fa66cc928b5edb82af9bd49922954155ab7b0942694bea4ce44661d9a8736c6880180546001600160a01b031916331790555b335f9081526005602052604081208054839290611030908490613037565b909155506110419050333083611f2f565b60075460405133917fd72eb5d043f24a0168ae744d5c44f9596fd673a26bf74d9646bff4b844882d149161107d91858252602082015260400190565b60405180910390a250565b3380611092611821565b6001600160a01b0316146110c45760405163118cdaa760e01b81526001600160a01b03821660048201526024016108de565b610a5c816121c6565b5f807f9016d09d72d40fdae2fd8ceac6b6234c7706214fd39c1cd1e609a0528c199300610dd9565b7f52c63247e1f47db19d5ce0460030c497f067ca4cebf71ba98eeadabe20bace0480546060915f80516020613379833981519152916107f090612feb565b5f33610890818585611f2f565b5f8054906101000a90046001600160a01b03166001600160a01b0316633a0dad8e6040518163ffffffff1660e01b8152600401602060405180830381865afa15801561118e573d5f803e3d5ffd5b505050506040513d601f19601f820116820180604052508101906111b29190613082565b6001600160a01b0316336001600160a01b0316146111e357604051631af2ab4f60e31b815260040160405180910390fd5b6111eb611d33565b6007545f5b81811015610d9b575f6007828154811061120c5761120c61309d565b5f9182526020808320909101546001600160a01b03168083526005909152604082208054929055915061123f30826121fe565b5f61124982610872565b9050611253610db5565b60405163a9059cbb60e01b81526001600160a01b03858116600483015260248201849052919091169063a9059cbb906044016020604051808303815f875af11580156112a1573d5f803e3d5ffd5b505050506040513d601f19601f820116820180604052508101906112c5919061304a565b6112e2576040516312171d8360e31b815260040160405180910390fd5b60408051838152602081018690526001600160a01b038516917febad37b830b1857ef9af5983fc20dc0ded12dc472ba1e22e06fd3a9465b4506c910160405180910390a25050506001016111f0565b5f61087d826001611b7e565b5f604051628a595160e01b815260040160405180910390fd5b5f604051630ad8521960e31b815260040160405180910390fd5b611378611d33565b805f03611387576108bd610db5565b335f908152600460205260409020548111156113b6576040516332194fd360e21b815260040160405180910390fd5b335f90815260046020526040812080548392906113d49084906130b1565b90915550506006545f6113e5610db5565b60405163a9059cbb60e01b8152336004820152602481018590526001600160a01b03919091169063a9059cbb906044016020604051808303815f875af1158015611431573d5f803e3d5ffd5b505050506040513d601f19601f82011682018060405250810190611455919061304a565b905080611475576040516312171d8360e31b815260040160405180910390fd5b604080518481526020810184905233917f2b19ac8271899522bfff26e405c20643af4cdf99b525ef2cd8cde689644874ae910160405180910390a25050610a5c60015f805160206133b983398151915255565b6007545f908190815b818110156115275760055f600783815481106114ef576114ef61309d565b5f9182526020808320909101546001600160a01b0316835282019290925260400190205461151d9084613037565b92506001016114d1565b509092915050565b5f61087d825f611c6b565b6060805f611548600b612232565b9050806001600160401b0381111561156257611562612d83565b60405190808252806020026020018201604052801561158b578160200160208202803683370190505b509250806001600160401b038111156115a6576115a6612d83565b6040519080825280602002602001820160405280156115cf578160200160208202803683370190505b5091505f5b81811015611648575f806115e9600b8461223c565b91509150818684815181106116005761160061309d565b60200260200101906001600160a01b031690816001600160a01b031681525050808584815181106116335761163361309d565b602090810291909101015250506001016115d4565b50509091565b5f61087d61165b83610f3b565b5f611b7e565b6006545f908190815b818110156115275760045f600683815481106116885761168861309d565b5f9182526020808320909101546001600160a01b031683528201929092526040019020546116b69084613037565b925060010161166a565b6060805f6116ce6008612232565b9050806001600160401b038111156116e8576116e8612d83565b604051908082528060200260200182016040528015611711578160200160208202803683370190505b509250806001600160401b0381111561172c5761172c612d83565b604051908082528060200260200182016040528015611755578160200160208202803683370190505b5091505f5b81811015611648575f8061176f60088461223c565b91509150818684815181106117865761178661309d565b60200260200101906001600160a01b031690816001600160a01b031681525050808584815181106117b9576117b961309d565b6020908102919091010152505060010161175a565b5f61087d82610f3b565b6001600160a01b039182165f9081527f52c63247e1f47db19d5ce0460030c497f067ca4cebf71ba98eeadabe20bace016020908152604080832093909416825291909152205490565b5f807f237e158222e3e6968b72b9db0d8043aacf074ad9f650f0d1606b4d82ee432c00610dd9565b611851612194565b7f237e158222e3e6968b72b9db0d8043aacf074ad9f650f0d1606b4d82ee432c0080546001600160a01b0319166001600160a01b03831690811782556118956110cd565b6001600160a01b03167f38d16b8cac22d99fc7c124b9cd0de2d3fa1faef420bfe791d8c362d765e2270060405160405180910390a35050565b6001546001600160a01b031633146118f9576040516356b381a560e01b815260040160405180910390fd5b5f81900361191a57604051631121aa8d60e01b815260040160405180910390fd5b611924600b612259565b5f805b82811015611aad575f8484838181106119425761194261309d565b6119589260206040909202019081019150612d68565b90505f85858481811061196d5761196d61309d565b905060400201602001602081019061198591906130c4565b5f54604051633af32abf60e01b81526001600160a01b038581166004830152929350911690633af32abf90602401602060405180830381865afa1580156119ce573d5f803e3d5ffd5b505050506040513d601f19601f820116820180604052508101906119f2919061304a565b611a1a5760405163751dff9760e11b81526001600160a01b03831660048201526024016108de565b8063ffffffff165f03611a4b57604051636b30633560e01b81526001600160a01b03831660048201526024016108de565b5f611a61600b8463ffffffff8086169061226216565b905080611a8c576040516346bdabe160e01b81526001600160a01b03841660048201526024016108de565b611a9c63ffffffff831686613037565b945050600190920191506119279050565b505f805f9054906101000a90046001600160a01b03166001600160a01b031663d1717c7d6040518163ffffffff1660e01b8152600401602060405180830381865afa158015611afe573d5f803e3d5ffd5b505050506040513d601f19601f82011682018060405250810190611b2291906130e7565b9050611b2f81600a6131ea565b8214611b4e57604051639006dd2760e01b815260040160405180910390fd5b60405133907f2d47a742b8d7df7c1fc5a9a631b206b364e6cb2722490759f63bb3ab14b132e0905f90a250505050565b5f80611ba87f52c63247e1f47db19d5ce0460030c497f067ca4cebf71ba98eeadabe20bace025490565b90505f805f9054906101000a90046001600160a01b03166001600160a01b031663b71ee4fc6040518163ffffffff1660e01b8152600401602060405180830381865afa158015611bfa573d5f803e3d5ffd5b505050506040513d601f19601f82011682018060405250810190611c1e91906130e7565b9050611c506003546001611c329190613037565b611c3d83600a6131ea565b611c479085613037565b8791908761227f565b95945050505050565b611c6683838360016122c1565b505050565b5f80611c957f52c63247e1f47db19d5ce0460030c497f067ca4cebf71ba98eeadabe20bace025490565b90505f805f9054906101000a90046001600160a01b03166001600160a01b031663b71ee4fc6040518163ffffffff1660e01b8152600401602060405180830381865afa158015611ce7573d5f803e3d5ffd5b505050506040513d601f19601f82011682018060405250810190611d0b91906130e7565b9050611c50611d1b82600a6131ea565b611d259084613037565b600354611c47906001613037565b5f805160206133b9833981519152805460011901611d6457604051633ee5aeb560e01b815260040160405180910390fd5b60029055565b60015f805160206133b983398151915255565b5f807ff0c57e16840df040f15088dc2f81fe391c3923bec73e23a9662efc9c229c6a0061087d565b611dad6123a5565b6001600160a01b038416611dd457604051639c6bb9f560e01b815260040160405180910390fd5b6001600160a01b038316611dfb57604051636a485a5b60e11b815260040160405180910390fd5b611e0582826123ca565b611e6d836001600160a01b0316637158da7c6040518163ffffffff1660e01b8152600401602060405180830381865afa158015611e44573d5f803e3d5ffd5b505050506040513d601f19601f82011682018060405250810190611e689190613082565b6123dc565b611e756123ed565b611e7d6123fd565b611e856123fd565b611e8e846121c6565b5050600280546001600160a01b03199081163317909155600180546001600160a01b039485169083161790555f8054929093169116178155600355565b5f611ed684846117d8565b90505f19811015611f295781811015611f1b57604051637dc7a0d960e11b81526001600160a01b038416600482015260248101829052604481018390526064016108de565b611f2984848484035f6122c1565b50505050565b6001600160a01b038316611f5857604051634b637e8f60e11b81525f60048201526024016108de565b6001600160a01b038216611f815760405163ec442f0560e01b81525f60048201526024016108de565b611c66838383612405565b6001600160a01b038216611fb55760405163ec442f0560e01b81525f60048201526024016108de565b610e045f8383612405565b306001600160a01b037f000000000000000000000000000000000000000000000000000000000000000016148061204657507f00000000000000000000000000000000000000000000000000000000000000006001600160a01b031661203a5f80516020613399833981519152546001600160a01b031690565b6001600160a01b031614155b15610db35760405163703e46dd60e11b815260040160405180910390fd5b6001546001600160a01b03163314610a5c576040516356b381a560e01b815260040160405180910390fd5b816001600160a01b03166352d1902d6040518163ffffffff1660e01b8152600401602060405180830381865afa9250505080156120e9575060408051601f3d908101601f191682019092526120e6918101906131f8565b60015b61211157604051634c9c8ce360e01b81526001600160a01b03831660048201526024016108de565b5f80516020613399833981519152811461214157604051632a87526960e21b8152600481018290526024016108de565b611c66838361253e565b306001600160a01b037f00000000000000000000000000000000000000000000000000000000000000001614610db35760405163703e46dd60e11b815260040160405180910390fd5b3361219d6110cd565b6001600160a01b031614610db35760405163118cdaa760e01b81523360048201526024016108de565b7f237e158222e3e6968b72b9db0d8043aacf074ad9f650f0d1606b4d82ee432c0080546001600160a01b0319168155610e0482612593565b6001600160a01b03821661222757604051634b637e8f60e11b81525f60048201526024016108de565b610e04825f83612405565b5f61087d82612603565b5f80808061224a868661260d565b909450925050505b9250929050565b610a5c81612636565b5f612277846001600160a01b0385168461267f565b949350505050565b5f6122ac61228c8361269b565b80156122a757505f84806122a2576122a261320f565b868809115b151590565b6122b78686866126c7565b611c509190613037565b5f805160206133798339815191526001600160a01b0385166122f85760405163e602df0560e01b81525f60048201526024016108de565b6001600160a01b03841661232157604051634a1406b160e11b81525f60048201526024016108de565b6001600160a01b038086165f9081526001830160209081526040808320938816835292905220839055811561239e57836001600160a01b0316856001600160a01b03167f8c5be1e5ebec7d5bd14f71427d1e84f3dd0314c0f7b2291e5b200ac8c7c3b9258560405161239591815260200190565b60405180910390a35b5050505050565b6123ad612777565b610db357604051631afcd79f60e31b815260040160405180910390fd5b6123d26123a5565b610e048282612790565b6123e46123a5565b610a5c816127e0565b6123f56123a5565b610db3612863565b610db36123a5565b5f805160206133798339815191526001600160a01b03841661243f5781816002015f8282546124349190613037565b909155506124af9050565b6001600160a01b0384165f90815260208290526040902054828110156124915760405163391434e360e21b81526001600160a01b038616600482015260248101829052604481018490526064016108de565b6001600160a01b0385165f9081526020839052604090209083900390555b6001600160a01b0383166124cd5760028101805483900390556124eb565b6001600160a01b0383165f9081526020829052604090208054830190555b826001600160a01b0316846001600160a01b03167fddf252ad1be2c89b69c2b068fc378daa952ba7f163c4a11628f55a4df523b3ef8460405161253091815260200190565b60405180910390a350505050565b6125478261286b565b6040516001600160a01b038316907fbc7cd75a20ee27fd9adebab32041f755214dbc6bffa90cc0225b39da2e5c2d3b905f90a280511561258b57611c6682826128ce565b610e04612937565b7f9016d09d72d40fdae2fd8ceac6b6234c7706214fd39c1cd1e609a0528c19930080546001600160a01b031981166001600160a01b03848116918217845560405192169182907f8be0079c531659141344cd1fd0a4f28419497f9722a3daafe3b4186f6b6457e0905f90a3505050565b5f61087d82612956565b5f808061261a858561295f565b5f81815260029690960160205260409095205494959350505050565b5f61264082612603565b90505f5b8181101561267557600283015f61265b858461295f565b815260208101919091526040015f90812055600101612644565b50610e048261296a565b5f82815260028401602052604081208290556122778484612973565b5f60028260038111156126b0576126b0613223565b6126ba9190613237565b60ff166001149050919050565b5f805f6126d4868661297e565b91509150815f036126f8578381816126ee576126ee61320f565b0492505050610be3565b81841161270f5761270f600385150260111861299a565b5f848688095f868103871696879004966002600389028118808a02820302808a02820302808a02820302808a02820302808a02820302808a02909103029181900381900460010185841190960395909502919093039390930492909217029150509392505050565b5f612780611d7d565b54600160401b900460ff16919050565b6127986123a5565b5f805160206133798339815191527f52c63247e1f47db19d5ce0460030c497f067ca4cebf71ba98eeadabe20bace036127d184826132a8565b5060048101611f2983826132a8565b6127e86123a5565b7f0773e532dfede91f04b12a73d3d2acd361424f41f76b4fb79f090161e36b4e005f80612814846129ab565b9150915081612824576012612826565b805b83546001600160a81b031916600160a01b60ff92909216919091026001600160a01b031916176001600160a01b0394909416939093179091555050565b611d6a6123a5565b806001600160a01b03163b5f036128a057604051634c9c8ce360e01b81526001600160a01b03821660048201526024016108de565b5f8051602061339983398151915280546001600160a01b0319166001600160a01b0392909216919091179055565b60605f80846001600160a01b0316846040516128ea9190613362565b5f60405180830381855af49150503d805f8114612922576040519150601f19603f3d011682016040523d82523d5f602084013e612927565b606091505b5091509150611c50858383612a81565b3415610db35760405163b398979f60e01b815260040160405180910390fd5b5f61087d825490565b5f610be38383612add565b610a5c81612b03565b5f610be38383612b5c565b5f805f1983850993909202808410938190039390930393915050565b634e487b715f52806020526024601cfd5b60408051600481526024810182526020810180516001600160e01b031663313ce56760e01b17905290515f918291829182916001600160a01b038716916129f191613362565b5f60405180830381855afa9150503d805f8114612a29576040519150601f19603f3d011682016040523d82523d5f602084013e612a2e565b606091505b5091509150818015612a4257506020815110155b15612a75575f81806020019051810190612a5c91906131f8565b905060ff8111612a73576001969095509350505050565b505b505f9485945092505050565b606082612a9657612a9182612ba8565b610be3565b8151158015612aad57506001600160a01b0384163b155b15612ad657604051639996b31560e01b81526001600160a01b03851660048201526024016108de565b5080610be3565b5f825f018281548110612af257612af261309d565b905f5260205f200154905092915050565b5f612b0c825490565b90505f5b81811015612b5557826001015f845f018381548110612b3157612b3161309d565b905f5260205f20015481526020019081526020015f205f9055806001019050612b10565b50505f9055565b5f818152600183016020526040812054612ba157508154600181810184555f84815260208082209093018490558454848252828601909352604090209190915561087d565b505f61087d565b805115612bb85780518082602001fd5b60405163d6bda27560e01b815260040160405180910390fd5b602081525f82518060208401528060208501604085015e5f604082850101526040601f19601f83011684010191505092915050565b5f60208284031215612c16575f80fd5b5035919050565b6001600160a01b0381168114610a5c575f80fd5b5f8060408385031215612c42575f80fd5b8235612c4d81612c1d565b946020939093013593505050565b5f8083601f840112612c6b575f80fd5b5081356001600160401b03811115612c81575f80fd5b602083019150836020828501011115612252575f80fd5b5f805f805f8060808789031215612cad575f80fd5b8635612cb881612c1d565b95506020870135612cc881612c1d565b945060408701356001600160401b03811115612ce2575f80fd5b612cee89828a01612c5b565b90955093505060608701356001600160401b03811115612d0c575f80fd5b612d1889828a01612c5b565b979a9699509497509295939492505050565b5f805f60608486031215612d3c575f80fd5b8335612d4781612c1d565b92506020840135612d5781612c1d565b929592945050506040919091013590565b5f60208284031215612d78575f80fd5b8135610be381612c1d565b634e487b7160e01b5f52604160045260245ffd5b5f8060408385031215612da8575f80fd5b8235612db381612c1d565b915060208301356001600160401b03811115612dcd575f80fd5b8301601f81018513612ddd575f80fd5b80356001600160401b03811115612df657612df6612d83565b604051601f8201601f19908116603f011681016001600160401b0381118282101715612e2457612e24612d83565b604052818152828201602001871015612e3b575f80fd5b816020840160208301375f602083830101528093505050509250929050565b5f8060408385031215612e6b575f80fd5b823591506020830135612e7d81612c1d565b809150509250929050565b5f805f60608486031215612e9a575f80fd5b833592506020840135612eac81612c1d565b91506040840135612ebc81612c1d565b809150509250925092565b604080825283519082018190525f9060208501906060840190835b81811015612f095783516001600160a01b0316835260209384019390920191600101612ee2565b5050838103602080860191909152855180835291810192508501905f5b81811015612f44578251845260209384019390920191600101612f26565b50919695505050505050565b5f8060408385031215612f61575f80fd5b8235612f6c81612c1d565b91506020830135612e7d81612c1d565b5f8060208385031215612f8d575f80fd5b82356001600160401b03811115612fa2575f80fd5b8301601f81018513612fb2575f80fd5b80356001600160401b03811115612fc7575f80fd5b8560208260061b8401011115612fdb575f80fd5b6020919091019590945092505050565b600181811c90821680612fff57607f821691505b60208210810361301d57634e487b7160e01b5f52602260045260245ffd5b50919050565b634e487b7160e01b5f52601160045260245ffd5b8082018082111561087d5761087d613023565b5f6020828403121561305a575f80fd5b81518015158114610be3575f80fd5b60ff818116838216019081111561087d5761087d613023565b5f60208284031215613092575f80fd5b8151610be381612c1d565b634e487b7160e01b5f52603260045260245ffd5b8181038181111561087d5761087d613023565b5f602082840312156130d4575f80fd5b813563ffffffff81168114610be3575f80fd5b5f602082840312156130f7575f80fd5b815160ff81168114610be3575f80fd5b6001815b60018411156131425780850481111561312657613126613023565b600184161561313457908102905b60019390931c92800261310b565b935093915050565b5f826131585750600161087d565b8161316457505f61087d565b816001811461317a5760028114613184576131a0565b600191505061087d565b60ff84111561319557613195613023565b50506001821b61087d565b5060208310610133831016604e8410600b84101617156131c3575081810a61087d565b6131cf5f198484613107565b805f19048211156131e2576131e2613023565b029392505050565b5f610be360ff84168361314a565b5f60208284031215613208575f80fd5b5051919050565b634e487b7160e01b5f52601260045260245ffd5b634e487b7160e01b5f52602160045260245ffd5b5f60ff83168061325557634e487b7160e01b5f52601260045260245ffd5b8060ff84160691505092915050565b601f821115611c6657805f5260205f20601f840160051c810160208510156132895750805b601f840160051c820191505b8181101561239e575f8155600101613295565b81516001600160401b038111156132c1576132c1612d83565b6132d5816132cf8454612feb565b84613264565b6020601f821160018114613307575f83156132f05750848201515b5f19600385901b1c1916600184901b17845561239e565b5f84815260208120601f198516915b828110156133365787850151825560209485019460019092019101613316565b508482101561335357868401515f19600387901b60f8161c191681555b50505050600190811b01905550565b5f82518060208501845e5f92019182525091905056fe52c63247e1f47db19d5ce0460030c497f067ca4cebf71ba98eeadabe20bace00360894a13ba1a3210667c828492db98dca3e2076cc3735a920a3ca505d382bbc9b779b17422d0df92223018b32b4d1fa46e071723d6817e2486d003becc55f00a2646970667358221220538980b4a9e4269f43de011236741b0012eece7af441a224518ca39a6598b6d364736f6c634300081a0033",
  "linkReferences": {},
  "deployedLinkReferences": {}
}