{
  "_format": "hh-sol-artifact-1",
  "contractName": "OrionTransparentVault",
  "sourceName": "contracts/OrionTransparentVault.sol",
  "abi": [
    {
      "inputs": [
        {
          "internalType": "address",
          "name": "_curator",
          "type": "address"
        },
        {
          "internalType": "address",
          "name": "_config",
          "type": "address"
        }
      ],
      "stateMutability": "nonpayable",
      "type": "constructor"
    },
    {
      "inputs": [
        {
          "internalType": "address",
          "name": "asset",
          "type": "address"
        }
      ],
      "name": "AmountMustBeGreaterThanZero",
      "type": "error"
    },
    {
      "inputs": [
        {
          "internalType": "address",
          "name": "spender",
          "type": "address"
        },
        {
          "internalType": "uint256",
          "name": "allowance",
          "type": "uint256"
        },
        {
          "internalType": "uint256",
          "name": "needed",
          "type": "uint256"
        }
      ],
      "name": "ERC20InsufficientAllowance",
      "type": "error"
    },
    {
      "inputs": [
        {
          "internalType": "address",
          "name": "sender",
          "type": "address"
        },
        {
          "internalType": "uint256",
          "name": "balance",
          "type": "uint256"
        },
        {
          "internalType": "uint256",
          "name": "needed",
          "type": "uint256"
        }
      ],
      "name": "ERC20InsufficientBalance",
      "type": "error"
    },
    {
      "inputs": [
        {
          "internalType": "address",
          "name": "approver",
          "type": "address"
        }
      ],
      "name": "ERC20InvalidApprover",
      "type": "error"
    },
    {
      "inputs": [
        {
          "internalType": "address",
          "name": "receiver",
          "type": "address"
        }
      ],
      "name": "ERC20InvalidReceiver",
      "type": "error"
    },
    {
      "inputs": [
        {
          "internalType": "address",
          "name": "sender",
          "type": "address"
        }
      ],
      "name": "ERC20InvalidSender",
      "type": "error"
    },
    {
      "inputs": [
        {
          "internalType": "address",
          "name": "spender",
          "type": "address"
        }
      ],
      "name": "ERC20InvalidSpender",
      "type": "error"
    },
    {
      "inputs": [
        {
          "internalType": "address",
          "name": "receiver",
          "type": "address"
        },
        {
          "internalType": "uint256",
          "name": "assets",
          "type": "uint256"
        },
        {
          "internalType": "uint256",
          "name": "max",
          "type": "uint256"
        }
      ],
      "name": "ERC4626ExceededMaxDeposit",
      "type": "error"
    },
    {
      "inputs": [
        {
          "internalType": "address",
          "name": "receiver",
          "type": "address"
        },
        {
          "internalType": "uint256",
          "name": "shares",
          "type": "uint256"
        },
        {
          "internalType": "uint256",
          "name": "max",
          "type": "uint256"
        }
      ],
      "name": "ERC4626ExceededMaxMint",
      "type": "error"
    },
    {
      "inputs": [
        {
          "internalType": "address",
          "name": "owner",
          "type": "address"
        },
        {
          "internalType": "uint256",
          "name": "shares",
          "type": "uint256"
        },
        {
          "internalType": "uint256",
          "name": "max",
          "type": "uint256"
        }
      ],
      "name": "ERC4626ExceededMaxRedeem",
      "type": "error"
    },
    {
      "inputs": [
        {
          "internalType": "address",
          "name": "owner",
          "type": "address"
        },
        {
          "internalType": "uint256",
          "name": "assets",
          "type": "uint256"
        },
        {
          "internalType": "uint256",
          "name": "max",
          "type": "uint256"
        }
      ],
      "name": "ERC4626ExceededMaxWithdraw",
      "type": "error"
    },
    {
      "inputs": [],
      "name": "InvalidConfigAddress",
      "type": "error"
    },
    {
      "inputs": [],
      "name": "InvalidCuratorAddress",
      "type": "error"
    },
    {
      "inputs": [],
      "name": "InvalidTotalAmount",
      "type": "error"
    },
    {
      "inputs": [],
      "name": "NotCurator",
      "type": "error"
    },
    {
      "inputs": [],
      "name": "NotEnoughShares",
      "type": "error"
    },
    {
      "inputs": [],
      "name": "NotInternalStatesOrchestrator",
      "type": "error"
    },
    {
      "inputs": [],
      "name": "NotLiquidityOrchestrator",
      "type": "error"
    },
    {
      "inputs": [],
      "name": "OrderIntentCannotBeEmpty",
      "type": "error"
    },
    {
      "inputs": [],
      "name": "ReentrancyGuardReentrantCall",
      "type": "error"
    },
    {
      "inputs": [],
      "name": "SharesMustBeGreaterThanZero",
      "type": "error"
    },
    {
      "inputs": [],
      "name": "SynchronousDepositsDisabled",
      "type": "error"
    },
    {
      "inputs": [],
      "name": "SynchronousRedemptionsDisabled",
      "type": "error"
    },
    {
      "inputs": [],
      "name": "SynchronousWithdrawalsDisabled",
      "type": "error"
    },
    {
      "inputs": [
        {
          "internalType": "address",
          "name": "token",
          "type": "address"
        }
      ],
      "name": "TokenAlreadyInOrder",
      "type": "error"
    },
    {
      "inputs": [
        {
          "internalType": "address",
          "name": "token",
          "type": "address"
        }
      ],
      "name": "TokenNotWhitelisted",
      "type": "error"
    },
    {
      "inputs": [],
      "name": "TransferFailed",
      "type": "error"
    },
    {
      "inputs": [],
      "name": "UnderlyingAssetNotSet",
      "type": "error"
    },
    {
      "inputs": [],
      "name": "ZeroPrice",
      "type": "error"
    },
    {
      "anonymous": false,
      "inputs": [
        {
          "indexed": true,
          "internalType": "address",
          "name": "owner",
          "type": "address"
        },
        {
          "indexed": true,
          "internalType": "address",
          "name": "spender",
          "type": "address"
        },
        {
          "indexed": false,
          "internalType": "uint256",
          "name": "value",
          "type": "uint256"
        }
      ],
      "name": "Approval",
      "type": "event"
    },
    {
      "anonymous": false,
      "inputs": [
        {
          "indexed": true,
          "internalType": "address",
          "name": "sender",
          "type": "address"
        },
        {
          "indexed": true,
          "internalType": "address",
          "name": "owner",
          "type": "address"
        },
        {
          "indexed": false,
          "internalType": "uint256",
          "name": "assets",
          "type": "uint256"
        },
        {
          "indexed": false,
          "internalType": "uint256",
          "name": "shares",
          "type": "uint256"
        }
      ],
      "name": "Deposit",
      "type": "event"
    },
    {
      "anonymous": false,
      "inputs": [
        {
          "indexed": true,
          "internalType": "address",
          "name": "user",
          "type": "address"
        },
        {
          "indexed": false,
          "internalType": "uint256",
          "name": "amount",
          "type": "uint256"
        },
        {
          "indexed": false,
          "internalType": "uint256",
          "name": "requestId",
          "type": "uint256"
        }
      ],
      "name": "DepositProcessed",
      "type": "event"
    },
    {
      "anonymous": false,
      "inputs": [
        {
          "indexed": true,
          "internalType": "address",
          "name": "user",
          "type": "address"
        },
        {
          "indexed": false,
          "internalType": "uint256",
          "name": "amount",
          "type": "uint256"
        },
        {
          "indexed": false,
          "internalType": "uint256",
          "name": "requestId",
          "type": "uint256"
        }
      ],
      "name": "DepositRequested",
      "type": "event"
    },
    {
      "anonymous": false,
      "inputs": [
        {
          "indexed": true,
          "internalType": "address",
          "name": "curator",
          "type": "address"
        }
      ],
      "name": "OrderSubmitted",
      "type": "event"
    },
    {
      "anonymous": false,
      "inputs": [
        {
          "indexed": true,
          "internalType": "address",
          "name": "from",
          "type": "address"
        },
        {
          "indexed": true,
          "internalType": "address",
          "name": "to",
          "type": "address"
        },
        {
          "indexed": false,
          "internalType": "uint256",
          "name": "value",
          "type": "uint256"
        }
      ],
      "name": "Transfer",
      "type": "event"
    },
    {
      "anonymous": false,
      "inputs": [
        {
          "indexed": true,
          "internalType": "address",
          "name": "sender",
          "type": "address"
        },
        {
          "indexed": true,
          "internalType": "address",
          "name": "receiver",
          "type": "address"
        },
        {
          "indexed": true,
          "internalType": "address",
          "name": "owner",
          "type": "address"
        },
        {
          "indexed": false,
          "internalType": "uint256",
          "name": "assets",
          "type": "uint256"
        },
        {
          "indexed": false,
          "internalType": "uint256",
          "name": "shares",
          "type": "uint256"
        }
      ],
      "name": "Withdraw",
      "type": "event"
    },
    {
      "anonymous": false,
      "inputs": [
        {
          "indexed": true,
          "internalType": "address",
          "name": "user",
          "type": "address"
        },
        {
          "indexed": false,
          "internalType": "uint256",
          "name": "shares",
          "type": "uint256"
        },
        {
          "indexed": false,
          "internalType": "uint256",
          "name": "requestId",
          "type": "uint256"
        }
      ],
      "name": "WithdrawProcessed",
      "type": "event"
    },
    {
      "anonymous": false,
      "inputs": [
        {
          "indexed": true,
          "internalType": "address",
          "name": "user",
          "type": "address"
        },
        {
          "indexed": false,
          "internalType": "uint256",
          "name": "shares",
          "type": "uint256"
        },
        {
          "indexed": false,
          "internalType": "uint256",
          "name": "requestId",
          "type": "uint256"
        }
      ],
      "name": "WithdrawRequested",
      "type": "event"
    },
    {
      "inputs": [
        {
          "internalType": "address",
          "name": "owner",
          "type": "address"
        },
        {
          "internalType": "address",
          "name": "spender",
          "type": "address"
        }
      ],
      "name": "allowance",
      "outputs": [
        {
          "internalType": "uint256",
          "name": "",
          "type": "uint256"
        }
      ],
      "stateMutability": "view",
      "type": "function"
    },
    {
      "inputs": [
        {
          "internalType": "address",
          "name": "spender",
          "type": "address"
        },
        {
          "internalType": "uint256",
          "name": "value",
          "type": "uint256"
        }
      ],
      "name": "approve",
      "outputs": [
        {
          "internalType": "bool",
          "name": "",
          "type": "bool"
        }
      ],
      "stateMutability": "nonpayable",
      "type": "function"
    },
    {
      "inputs": [],
      "name": "asset",
      "outputs": [
        {
          "internalType": "address",
          "name": "",
          "type": "address"
        }
      ],
      "stateMutability": "view",
      "type": "function"
    },
    {
      "inputs": [
        {
          "internalType": "address",
          "name": "account",
          "type": "address"
        }
      ],
      "name": "balanceOf",
      "outputs": [
        {
          "internalType": "uint256",
          "name": "",
          "type": "uint256"
        }
      ],
      "stateMutability": "view",
      "type": "function"
    },
    {
      "inputs": [],
      "name": "config",
      "outputs": [
        {
          "internalType": "contract IOrionConfig",
          "name": "",
          "type": "address"
        }
      ],
      "stateMutability": "view",
      "type": "function"
    },
    {
      "inputs": [
        {
          "internalType": "uint256",
          "name": "shares",
          "type": "uint256"
        }
      ],
      "name": "convertToAssets",
      "outputs": [
        {
          "internalType": "uint256",
          "name": "",
          "type": "uint256"
        }
      ],
      "stateMutability": "view",
      "type": "function"
    },
    {
      "inputs": [
        {
          "internalType": "uint256",
          "name": "assets",
          "type": "uint256"
        }
      ],
      "name": "convertToShares",
      "outputs": [
        {
          "internalType": "uint256",
          "name": "",
          "type": "uint256"
        }
      ],
      "stateMutability": "view",
      "type": "function"
    },
    {
      "inputs": [],
      "name": "curator",
      "outputs": [
        {
          "internalType": "address",
          "name": "",
          "type": "address"
        }
      ],
      "stateMutability": "view",
      "type": "function"
    },
    {
      "inputs": [],
      "name": "decimals",
      "outputs": [
        {
          "internalType": "uint8",
          "name": "",
          "type": "uint8"
        }
      ],
      "stateMutability": "view",
      "type": "function"
    },
    {
      "inputs": [],
      "name": "deployer",
      "outputs": [
        {
          "internalType": "address",
          "name": "",
          "type": "address"
        }
      ],
      "stateMutability": "view",
      "type": "function"
    },
    {
      "inputs": [
        {
          "internalType": "uint256",
          "name": "",
          "type": "uint256"
        },
        {
          "internalType": "address",
          "name": "",
          "type": "address"
        }
      ],
      "name": "deposit",
      "outputs": [
        {
          "internalType": "uint256",
          "name": "",
          "type": "uint256"
        }
      ],
      "stateMutability": "pure",
      "type": "function"
    },
    {
      "inputs": [
        {
          "internalType": "uint256",
          "name": "",
          "type": "uint256"
        }
      ],
      "name": "depositRequests",
      "outputs": [
        {
          "internalType": "address",
          "name": "user",
          "type": "address"
        },
        {
          "internalType": "uint256",
          "name": "amount",
          "type": "uint256"
        }
      ],
      "stateMutability": "view",
      "type": "function"
    },
    {
      "inputs": [
        {
          "internalType": "address",
          "name": "",
          "type": "address"
        }
      ],
      "name": "maxDeposit",
      "outputs": [
        {
          "internalType": "uint256",
          "name": "",
          "type": "uint256"
        }
      ],
      "stateMutability": "view",
      "type": "function"
    },
    {
      "inputs": [
        {
          "internalType": "address",
          "name": "",
          "type": "address"
        }
      ],
      "name": "maxMint",
      "outputs": [
        {
          "internalType": "uint256",
          "name": "",
          "type": "uint256"
        }
      ],
      "stateMutability": "view",
      "type": "function"
    },
    {
      "inputs": [
        {
          "internalType": "address",
          "name": "owner",
          "type": "address"
        }
      ],
      "name": "maxRedeem",
      "outputs": [
        {
          "internalType": "uint256",
          "name": "",
          "type": "uint256"
        }
      ],
      "stateMutability": "view",
      "type": "function"
    },
    {
      "inputs": [
        {
          "internalType": "address",
          "name": "owner",
          "type": "address"
        }
      ],
      "name": "maxWithdraw",
      "outputs": [
        {
          "internalType": "uint256",
          "name": "",
          "type": "uint256"
        }
      ],
      "stateMutability": "view",
      "type": "function"
    },
    {
      "inputs": [
        {
          "internalType": "uint256",
          "name": "",
          "type": "uint256"
        },
        {
          "internalType": "address",
          "name": "",
          "type": "address"
        }
      ],
      "name": "mint",
      "outputs": [
        {
          "internalType": "uint256",
          "name": "",
          "type": "uint256"
        }
      ],
      "stateMutability": "pure",
      "type": "function"
    },
    {
      "inputs": [],
      "name": "name",
      "outputs": [
        {
          "internalType": "string",
          "name": "",
          "type": "string"
        }
      ],
      "stateMutability": "view",
      "type": "function"
    },
    {
      "inputs": [
        {
          "internalType": "uint256",
          "name": "assets",
          "type": "uint256"
        }
      ],
      "name": "previewDeposit",
      "outputs": [
        {
          "internalType": "uint256",
          "name": "",
          "type": "uint256"
        }
      ],
      "stateMutability": "view",
      "type": "function"
    },
    {
      "inputs": [
        {
          "internalType": "uint256",
          "name": "shares",
          "type": "uint256"
        }
      ],
      "name": "previewMint",
      "outputs": [
        {
          "internalType": "uint256",
          "name": "",
          "type": "uint256"
        }
      ],
      "stateMutability": "view",
      "type": "function"
    },
    {
      "inputs": [
        {
          "internalType": "uint256",
          "name": "shares",
          "type": "uint256"
        }
      ],
      "name": "previewRedeem",
      "outputs": [
        {
          "internalType": "uint256",
          "name": "",
          "type": "uint256"
        }
      ],
      "stateMutability": "view",
      "type": "function"
    },
    {
      "inputs": [
        {
          "internalType": "uint256",
          "name": "assets",
          "type": "uint256"
        }
      ],
      "name": "previewWithdraw",
      "outputs": [
        {
          "internalType": "uint256",
          "name": "",
          "type": "uint256"
        }
      ],
      "stateMutability": "view",
      "type": "function"
    },
    {
      "inputs": [],
      "name": "processDepositRequests",
      "outputs": [],
      "stateMutability": "nonpayable",
      "type": "function"
    },
    {
      "inputs": [],
      "name": "processWithdrawRequests",
      "outputs": [],
      "stateMutability": "nonpayable",
      "type": "function"
    },
    {
      "inputs": [
        {
          "internalType": "uint256",
          "name": "",
          "type": "uint256"
        },
        {
          "internalType": "address",
          "name": "",
          "type": "address"
        },
        {
          "internalType": "address",
          "name": "",
          "type": "address"
        }
      ],
      "name": "redeem",
      "outputs": [
        {
          "internalType": "uint256",
          "name": "",
          "type": "uint256"
        }
      ],
      "stateMutability": "pure",
      "type": "function"
    },
    {
      "inputs": [
        {
          "internalType": "uint256",
          "name": "amount",
          "type": "uint256"
        }
      ],
      "name": "requestDeposit",
      "outputs": [],
      "stateMutability": "nonpayable",
      "type": "function"
    },
    {
      "inputs": [
        {
          "internalType": "uint256",
          "name": "shares",
          "type": "uint256"
        }
      ],
      "name": "requestWithdraw",
      "outputs": [],
      "stateMutability": "nonpayable",
      "type": "function"
    },
    {
      "inputs": [
        {
          "internalType": "uint256",
          "name": "newPrice",
          "type": "uint256"
        }
      ],
      "name": "setSharePrice",
      "outputs": [],
      "stateMutability": "nonpayable",
      "type": "function"
    },
    {
      "inputs": [
        {
          "internalType": "uint256",
          "name": "newTotalAssets",
          "type": "uint256"
        }
      ],
      "name": "setTotalAssets",
      "outputs": [],
      "stateMutability": "nonpayable",
      "type": "function"
    },
    {
      "inputs": [],
      "name": "sharePrice",
      "outputs": [
        {
          "internalType": "uint256",
          "name": "",
          "type": "uint256"
        }
      ],
      "stateMutability": "view",
      "type": "function"
    },
    {
      "inputs": [
        {
          "components": [
            {
              "internalType": "address",
              "name": "token",
              "type": "address"
            },
            {
              "internalType": "uint32",
              "name": "amount",
              "type": "uint32"
            }
          ],
          "internalType": "struct OrionTransparentVault.OrderPlain[]",
          "name": "order",
          "type": "tuple[]"
        }
      ],
      "name": "submitOrderIntentPlain",
      "outputs": [],
      "stateMutability": "nonpayable",
      "type": "function"
    },
    {
      "inputs": [],
      "name": "symbol",
      "outputs": [
        {
          "internalType": "string",
          "name": "",
          "type": "string"
        }
      ],
      "stateMutability": "view",
      "type": "function"
    },
    {
      "inputs": [],
      "name": "totalAssets",
      "outputs": [
        {
          "internalType": "uint256",
          "name": "",
          "type": "uint256"
        }
      ],
      "stateMutability": "view",
      "type": "function"
    },
    {
      "inputs": [],
      "name": "totalSupply",
      "outputs": [
        {
          "internalType": "uint256",
          "name": "",
          "type": "uint256"
        }
      ],
      "stateMutability": "view",
      "type": "function"
    },
    {
      "inputs": [
        {
          "internalType": "address",
          "name": "to",
          "type": "address"
        },
        {
          "internalType": "uint256",
          "name": "value",
          "type": "uint256"
        }
      ],
      "name": "transfer",
      "outputs": [
        {
          "internalType": "bool",
          "name": "",
          "type": "bool"
        }
      ],
      "stateMutability": "nonpayable",
      "type": "function"
    },
    {
      "inputs": [
        {
          "internalType": "address",
          "name": "from",
          "type": "address"
        },
        {
          "internalType": "address",
          "name": "to",
          "type": "address"
        },
        {
          "internalType": "uint256",
          "name": "value",
          "type": "uint256"
        }
      ],
      "name": "transferFrom",
      "outputs": [
        {
          "internalType": "bool",
          "name": "",
          "type": "bool"
        }
      ],
      "stateMutability": "nonpayable",
      "type": "function"
    },
    {
      "inputs": [
        {
          "internalType": "uint256",
          "name": "",
          "type": "uint256"
        },
        {
          "internalType": "address",
          "name": "",
          "type": "address"
        },
        {
          "internalType": "address",
          "name": "",
          "type": "address"
        }
      ],
      "name": "withdraw",
      "outputs": [
        {
          "internalType": "uint256",
          "name": "",
          "type": "uint256"
        }
      ],
      "stateMutability": "pure",
      "type": "function"
    },
    {
      "inputs": [
        {
          "internalType": "uint256",
          "name": "",
          "type": "uint256"
        }
      ],
      "name": "withdrawRequests",
      "outputs": [
        {
          "internalType": "address",
          "name": "user",
          "type": "address"
        },
        {
          "internalType": "uint256",
          "name": "shares",
          "type": "uint256"
        }
      ],
      "stateMutability": "view",
      "type": "function"
    }
  ],
  "bytecode": "0x60c060405234801561000f575f80fd5b5060405161259338038061259383398101604081905261002e9161030e565b61003781610178565b6040518060400160405280601181526020017027b934b7b7102b30bab63a102a37b5b2b760791b815250604051806040016040528060058152602001646f5553444360d81b815250816003908161008e91906103d7565b50600461009b82826103d7565b5050505f806100af8361020960201b60201c565b91509150816100bf5760126100c1565b805b60ff1660a05250506001600160a01b0390811660805282166100f657604051639c6bb9f560e01b815260040160405180910390fd5b6001600160a01b03811661011d57604051636a485a5b60e11b815260040160405180910390fd5b60078054336001600160a01b0319918216179091556006805482166001600160a01b03858116919091179091556005805490921690831617905561015f6102df565b61016a90600a610588565b60085550505f6009556105fc565b5f80826001600160a01b0316637158da7c6040518163ffffffff1660e01b8152600401602060405180830381865afa1580156101b6573d5f803e3d5ffd5b505050506040513d601f19601f820116820180604052508101906101da919061059d565b90506001600160a01b03811661020357604051639220afc960e01b815260040160405180910390fd5b92915050565b60408051600481526024810182526020810180516001600160e01b031663313ce56760e01b17905290515f918291829182916001600160a01b0387169161024f916105b6565b5f60405180830381855afa9150503d805f8114610287576040519150601f19603f3d011682016040523d82523d5f602084013e61028c565b606091505b50915091508180156102a057506020815110155b156102d3575f818060200190518101906102ba91906105cc565b905060ff81116102d1576001969095509350505050565b505b505f9485945092505050565b5f8060a0516102ee91906105e3565b905090565b80516001600160a01b0381168114610309575f80fd5b919050565b5f806040838503121561031f575f80fd5b610328836102f3565b9150610336602084016102f3565b90509250929050565b634e487b7160e01b5f52604160045260245ffd5b600181811c9082168061036757607f821691505b60208210810361038557634e487b7160e01b5f52602260045260245ffd5b50919050565b601f8211156103d257805f5260205f20601f840160051c810160208510156103b05750805b601f840160051c820191505b818110156103cf575f81556001016103bc565b50505b505050565b81516001600160401b038111156103f0576103f061033f565b610404816103fe8454610353565b8461038b565b6020601f821160018114610436575f831561041f5750848201515b5f19600385901b1c1916600184901b1784556103cf565b5f84815260208120601f198516915b828110156104655787850151825560209485019460019092019101610445565b508482101561048257868401515f19600387901b60f8161c191681555b50505050600190811b01905550565b634e487b7160e01b5f52601160045260245ffd5b6001815b60018411156104e0578085048111156104c4576104c4610491565b60018416156104d257908102905b60019390931c9280026104a9565b935093915050565b5f826104f657506001610203565b8161050257505f610203565b816001811461051857600281146105225761053e565b6001915050610203565b60ff84111561053357610533610491565b50506001821b610203565b5060208310610133831016604e8410600b8410161715610561575081810a610203565b61056d5f1984846104a5565b805f190482111561058057610580610491565b029392505050565b5f61059660ff8416836104e8565b9392505050565b5f602082840312156105ad575f80fd5b610596826102f3565b5f82518060208501845e5f920191825250919050565b5f602082840312156105dc575f80fd5b5051919050565b60ff818116838216019081111561020357610203610491565b60805160a051611f616106325f395f6109a301525f818161031c0152818161063c015281816106700152610f230152611f615ff3fe608060405234801561000f575f80fd5b5060043610610229575f3560e01c8063872697291161012a578063ba1fd2f9116100b4578063d905777e11610079578063d905777e146104bf578063dd62ed3e146104d2578063e66f53b71461050a578063ef8b30f71461051d578063fabd034114610530575f80fd5b8063ba1fd2f914610473578063c63d75b614610354578063c6e6f59214610486578063ce96cb7714610499578063d5f39488146104ac575f80fd5b8063a9059cbb116100fa578063a9059cbb1461041f578063aa9d3a6014610432578063b3d7f6b91461043a578063b460af941461044d578063ba08765214610460575f80fd5b806387269729146103dc57806394bf804d1461037b57806395d89b41146103e5578063992a7dfb146103ed575f80fd5b806323b872dd116101b65780634cdad5061161017b5780634cdad506146103685780636e553f651461037b57806370a082311461038e578063745400c9146103b657806379502c55146103c9575f80fd5b806323b872dd146102e5578063313ce567146102f857806333fdc5921461031257806338d52e0f1461031a578063402d267d14610354575f80fd5b80630a28a477116101fc5780630a28a4771461028f5780630d1e6667146102a257806316b60249146102b75780631765b313146102ca57806318160ddd146102dd575f80fd5b806301e1d1141461022d57806306fdde031461024457806307a2d13a14610259578063095ea7b31461026c575b5f80fd5b6009545b6040519081526020015b60405180910390f35b61024c610543565b60405161023b9190611aaa565b610231610267366004611adf565b6105d3565b61027f61027a366004611b0a565b6105fb565b604051901515815260200161023b565b61023161029d366004611adf565b610612565b6102b56102b0366004611adf565b61061e565b005b6102b56102c5366004611adf565b610803565b6102b56102d8366004611adf565b6108cd565b600254610231565b61027f6102f3366004611b34565b610977565b61030061099c565b60405160ff909116815260200161023b565b6102b56109cc565b7f00000000000000000000000000000000000000000000000000000000000000005b6040516001600160a01b03909116815260200161023b565b610231610362366004611b72565b505f1990565b610231610376366004611adf565b610bda565b610231610389366004611b8d565b610be5565b61023161039c366004611b72565b6001600160a01b03165f9081526020819052604090205490565b6102b56103c4366004611adf565b610bff565b60055461033c906001600160a01b031681565b61023160085481565b61024c610d1f565b6104006103fb366004611adf565b610d2e565b604080516001600160a01b03909316835260208301919091520161023b565b61027f61042d366004611b0a565b610d64565b6102b5610d71565b610231610448366004611adf565b611024565b61023161045b366004611bbb565b611030565b61023161046e366004611bbb565b611049565b6102b5610481366004611bfa565b611063565b610231610494366004611adf565b61130b565b6102316104a7366004611b72565b611322565b60075461033c906001600160a01b031681565b6102316104cd366004611b72565b611344565b6102316104e0366004611c6b565b6001600160a01b039182165f90815260016020908152604080832093909416825291909152205490565b60065461033c906001600160a01b031681565b61023161052b366004611adf565b611361565b61040061053e366004611adf565b61136c565b60606003805461055290611c97565b80601f016020809104026020016040519081016040528092919081815260200182805461057e90611c97565b80156105c95780601f106105a0576101008083540402835291602001916105c9565b820191905f5260205f20905b8154815290600101906020018083116105ac57829003601f168201915b5050505050905090565b5f670de0b6b3a7640000600854836105eb9190611ce3565b6105f59190611d0e565b92915050565b5f3361060881858561137b565b5060019392505050565b5f6105f582600161138d565b805f0361066e57604051636b30633560e01b81526001600160a01b037f00000000000000000000000000000000000000000000000000000000000000001660048201526024015b60405180910390fd5b7f00000000000000000000000000000000000000000000000000000000000000006040516323b872dd60e01b8152336004820152306024820152604481018390526001600160a01b0391909116906323b872dd906064016020604051808303815f875af11580156106e1573d5f803e3d5ffd5b505050506040513d601f19601f820116820180604052508101906107059190611d21565b610722576040516312171d8360e31b815260040160405180910390fd5b604080518082019091523380825260208201838152600d8054600180820183555f83905294517fd7b6990105719101dabeb77144f2a3385c8033acd3af97e9423a695e81ad1eb5600290920291820180546001600160a01b0319166001600160a01b0390921691909117905591517fd7b6990105719101dabeb77144f2a3385c8033acd3af97e9423a695e81ad1eb6909201919091555490917f03979a8c481a9e9c06938045cfd5c28535255cb003b10a8fe84ebb3cb4d440f29184916107e891611d40565b6040805192835260208301919091520160405180910390a250565b60055f9054906101000a90046001600160a01b03166001600160a01b031663348ec5c86040518163ffffffff1660e01b8152600401602060405180830381865afa158015610853573d5f803e3d5ffd5b505050506040513d601f19601f820116820180604052508101906108779190611d53565b6001600160a01b0316336001600160a01b0316146108a85760405163efb380d960e01b815260040160405180910390fd5b805f036108c857604051634dfba02360e01b815260040160405180910390fd5b600855565b60055f9054906101000a90046001600160a01b03166001600160a01b031663348ec5c86040518163ffffffff1660e01b8152600401602060405180830381865afa15801561091d573d5f803e3d5ffd5b505050506040513d601f19601f820116820180604052508101906109419190611d53565b6001600160a01b0316336001600160a01b0316146109725760405163efb380d960e01b815260040160405180910390fd5b600955565b5f336109848582856113c0565b61098f85858561143c565b60019150505b9392505050565b5f6109c7817f0000000000000000000000000000000000000000000000000000000000000000611d6e565b905090565b60055f9054906101000a90046001600160a01b03166001600160a01b0316633a0dad8e6040518163ffffffff1660e01b8152600401602060405180830381865afa158015610a1c573d5f803e3d5ffd5b505050506040513d601f19601f82011682018060405250810190610a409190611d53565b6001600160a01b0316336001600160a01b031614610a7157604051631af2ab4f60e31b815260040160405180910390fd5b610a79611499565b5f5b600d54811015610bcf575f600d8281548110610a9957610a99611d87565b905f5260205f20906002020190505f610ab58260010154611361565b600d805491925090610ac990600190611d40565b81548110610ad957610ad9611d87565b905f5260205f209060020201600d8481548110610af857610af8611d87565b5f9182526020909120825460029092020180546001600160a01b0319166001600160a01b03909216919091178155600191820154910155600d805480610b4057610b40611d9b565b5f8281526020812060025f199093019283020180546001600160a01b03191681556001015590558154610b7c906001600160a01b031682611506565b8154600183015460408051918252602082018690526001600160a01b03909216917f782ea2005b7f873a0190a1ccb553c732171348d6e16d2b7d3d493c0677dc296e910160405180910390a25050610a7b565b50610bd861153e565b565b5f6105f5825f611568565b5f6040516318f2e47360e11b815260040160405180910390fd5b805f03610c1f576040516314e6cbb960e11b815260040160405180910390fd5b335f90815260208190526040902054811115610c4e57604051633c57b48560e21b815260040160405180910390fd5b610c5933308361143c565b604080518082019091523380825260208201838152600e8054600180820183555f83905294517fbb7b4a454dc3493923482f07822329ed19e8244eff582cc204f8554c3620c3fd600290920291820180546001600160a01b0319166001600160a01b0390921691909117905591517fbb7b4a454dc3493923482f07822329ed19e8244eff582cc204f8554c3620c3fe909201919091555490917fd72eb5d043f24a0168ae744d5c44f9596fd673a26bf74d9646bff4b844882d149184916107e891611d40565b60606004805461055290611c97565b600e8181548110610d3d575f80fd5b5f918252602090912060029091020180546001909101546001600160a01b03909116915082565b5f3361060881858561143c565b60055f9054906101000a90046001600160a01b03166001600160a01b0316633a0dad8e6040518163ffffffff1660e01b8152600401602060405180830381865afa158015610dc1573d5f803e3d5ffd5b505050506040513d601f19601f82011682018060405250810190610de59190611d53565b6001600160a01b0316336001600160a01b031614610e1657604051631af2ab4f60e31b815260040160405180910390fd5b610e1e611499565b5f5b600e54811015610bcf575f600e8281548110610e3e57610e3e611d87565b905f5260205f2090600202019050600e6001600e80549050610e609190611d40565b81548110610e7057610e70611d87565b905f5260205f209060020201600e8381548110610e8f57610e8f611d87565b5f9182526020909120825460029092020180546001600160a01b0319166001600160a01b03909216919091178155600191820154910155600e805480610ed757610ed7611d9b565b5f8281526020812060025f199093019283020180546001600160a01b03191681556001908101919091559155810154610f11903090611598565b5f610f1f8260010154610bda565b90507f0000000000000000000000000000000000000000000000000000000000000000825460405163a9059cbb60e01b81526001600160a01b0391821660048201526024810184905291169063a9059cbb906044016020604051808303815f875af1158015610f90573d5f803e3d5ffd5b505050506040513d601f19601f82011682018060405250810190610fb49190611d21565b610fd1576040516312171d8360e31b815260040160405180910390fd5b8154600183015460408051918252602082018690526001600160a01b03909216917febad37b830b1857ef9af5983fc20dc0ded12dc472ba1e22e06fd3a9465b4506c910160405180910390a25050610e20565b5f6105f5826001611568565b5f604051628a595160e01b815260040160405180910390fd5b5f604051630ad8521960e31b815260040160405180910390fd5b6006546001600160a01b0316331461108e576040516356b381a560e01b815260040160405180910390fd5b5f8190036110af57604051631121aa8d60e01b815260040160405180910390fd5b6110b9600a6115cc565b5f805b82811015611243575f8484838181106110d7576110d7611d87565b6110ed9260206040909202019081019150611b72565b90505f85858481811061110257611102611d87565b905060400201602001602081019061111a9190611daf565b600554604051633af32abf60e01b81526001600160a01b038581166004830152929350911690633af32abf90602401602060405180830381865afa158015611164573d5f803e3d5ffd5b505050506040513d601f19601f820116820180604052508101906111889190611d21565b6111b05760405163751dff9760e11b81526001600160a01b0383166004820152602401610665565b8063ffffffff165f036111e157604051636b30633560e01b81526001600160a01b0383166004820152602401610665565b5f6111f7600a8463ffffffff808616906115d816565b905080611222576040516346bdabe160e01b81526001600160a01b0384166004820152602401610665565b61123263ffffffff831686611dd2565b945050600190920191506110bc9050565b506005546040805163d1717c7d60e01b815290515f926001600160a01b03169163d1717c7d9160048083019260209291908290030181865afa15801561128b573d5f803e3d5ffd5b505050506040513d601f19601f820116820180604052508101906112af9190611de5565b90506112bc81600a611ee8565b82146112db576040516324204a3560e21b815260040160405180910390fd5b60405133907f2d47a742b8d7df7c1fc5a9a631b206b364e6cb2722490759f63bb3ab14b132e0905f90a250505050565b6008545f906105eb83670de0b6b3a7640000611ce3565b6001600160a01b0381165f908152602081905260408120546105f5905f611568565b6001600160a01b0381165f908152602081905260408120546105f5565b5f6105f5825f61138d565b600d8181548110610d3d575f80fd5b61138883838360016115f5565b505050565b5f61099561139c82600a611ee8565b6002546113a99190611dd2565b6009546113b7906001611dd2565b859190856116c7565b6001600160a01b038381165f908152600160209081526040808320938616835292905220545f19811015611436578181101561142857604051637dc7a0d960e11b81526001600160a01b03841660048201526024810182905260448101839052606401610665565b61143684848484035f6115f5565b50505050565b6001600160a01b03831661146557604051634b637e8f60e11b81525f6004820152602401610665565b6001600160a01b03821661148e5760405163ec442f0560e01b81525f6004820152602401610665565b611388838383611712565b7f9b779b17422d0df92223018b32b4d1fa46e071723d6817e2486d003becc55f005c156114d957604051633ee5aeb560e01b815260040160405180910390fd5b610bd860017f9b779b17422d0df92223018b32b4d1fa46e071723d6817e2486d003becc55f005b90611838565b6001600160a01b03821661152f5760405163ec442f0560e01b81525f6004820152602401610665565b61153a5f8383611712565b5050565b610bd85f7f9b779b17422d0df92223018b32b4d1fa46e071723d6817e2486d003becc55f00611500565b5f61099561157560095490565b611580906001611dd2565b61158b5f600a611ee8565b6002546113b79190611dd2565b6001600160a01b0382166115c157604051634b637e8f60e11b81525f6004820152602401610665565b61153a825f83611712565b6115d58161183f565b50565b5f6115ed846001600160a01b03851684611888565b949350505050565b6001600160a01b03841661161e5760405163e602df0560e01b81525f6004820152602401610665565b6001600160a01b03831661164757604051634a1406b160e11b81525f6004820152602401610665565b6001600160a01b038085165f908152600160209081526040808320938716835292905220829055801561143657826001600160a01b0316846001600160a01b03167f8c5be1e5ebec7d5bd14f71427d1e84f3dd0314c0f7b2291e5b200ac8c7c3b925846040516116b991815260200190565b60405180910390a350505050565b5f6116f46116d4836118a4565b80156116ef57505f84806116ea576116ea611cfa565b868809115b151590565b6116ff8686866118d0565b6117099190611dd2565b95945050505050565b6001600160a01b03831661173c578060025f8282546117319190611dd2565b909155506117ac9050565b6001600160a01b0383165f908152602081905260409020548181101561178e5760405163391434e360e21b81526001600160a01b03851660048201526024810182905260448101839052606401610665565b6001600160a01b0384165f9081526020819052604090209082900390555b6001600160a01b0382166117c8576002805482900390556117e6565b6001600160a01b0382165f9081526020819052604090208054820190555b816001600160a01b0316836001600160a01b03167fddf252ad1be2c89b69c2b068fc378daa952ba7f163c4a11628f55a4df523b3ef8360405161182b91815260200190565b60405180910390a3505050565b80825d5050565b5f61184982611980565b90505f5b8181101561187e57600283015f611864858461198a565b815260208101919091526040015f9081205560010161184d565b5061153a82611995565b5f82815260028401602052604081208290556115ed848461199e565b5f60028260038111156118b9576118b9611ef6565b6118c39190611f0a565b60ff166001149050919050565b5f805f6118dd86866119a9565b91509150815f03611901578381816118f7576118f7611cfa565b0492505050610995565b8184116119185761191860038515026011186119c5565b5f848688095f868103871696879004966002600389028118808a02820302808a02820302808a02820302808a02820302808a02820302808a02909103029181900381900460010185841190960395909502919093039390930492909217029150509392505050565b5f6105f5826119d6565b5f61099583836119df565b6115d581611a05565b5f6109958383611a5e565b5f805f1983850993909202808410938190039390930393915050565b634e487b715f52806020526024601cfd5b5f6105f5825490565b5f825f0182815481106119f4576119f4611d87565b905f5260205f200154905092915050565b5f611a0e825490565b90505f5b81811015611a5757826001015f845f018381548110611a3357611a33611d87565b905f5260205f20015481526020019081526020015f205f9055806001019050611a12565b50505f9055565b5f818152600183016020526040812054611aa357508154600181810184555f8481526020808220909301849055845484825282860190935260409020919091556105f5565b505f6105f5565b602081525f82518060208401528060208501604085015e5f604082850101526040601f19601f83011684010191505092915050565b5f60208284031215611aef575f80fd5b5035919050565b6001600160a01b03811681146115d5575f80fd5b5f8060408385031215611b1b575f80fd5b8235611b2681611af6565b946020939093013593505050565b5f805f60608486031215611b46575f80fd5b8335611b5181611af6565b92506020840135611b6181611af6565b929592945050506040919091013590565b5f60208284031215611b82575f80fd5b813561099581611af6565b5f8060408385031215611b9e575f80fd5b823591506020830135611bb081611af6565b809150509250929050565b5f805f60608486031215611bcd575f80fd5b833592506020840135611bdf81611af6565b91506040840135611bef81611af6565b809150509250925092565b5f8060208385031215611c0b575f80fd5b823567ffffffffffffffff811115611c21575f80fd5b8301601f81018513611c31575f80fd5b803567ffffffffffffffff811115611c47575f80fd5b8560208260061b8401011115611c5b575f80fd5b6020919091019590945092505050565b5f8060408385031215611c7c575f80fd5b8235611c8781611af6565b91506020830135611bb081611af6565b600181811c90821680611cab57607f821691505b602082108103611cc957634e487b7160e01b5f52602260045260245ffd5b50919050565b634e487b7160e01b5f52601160045260245ffd5b80820281158282048414176105f5576105f5611ccf565b634e487b7160e01b5f52601260045260245ffd5b5f82611d1c57611d1c611cfa565b500490565b5f60208284031215611d31575f80fd5b81518015158114610995575f80fd5b818103818111156105f5576105f5611ccf565b5f60208284031215611d63575f80fd5b815161099581611af6565b60ff81811683821601908111156105f5576105f5611ccf565b634e487b7160e01b5f52603260045260245ffd5b634e487b7160e01b5f52603160045260245ffd5b5f60208284031215611dbf575f80fd5b813563ffffffff81168114610995575f80fd5b808201808211156105f5576105f5611ccf565b5f60208284031215611df5575f80fd5b815160ff81168114610995575f80fd5b6001815b6001841115611e4057808504811115611e2457611e24611ccf565b6001841615611e3257908102905b60019390931c928002611e09565b935093915050565b5f82611e56575060016105f5565b81611e6257505f6105f5565b8160018114611e785760028114611e8257611e9e565b60019150506105f5565b60ff841115611e9357611e93611ccf565b50506001821b6105f5565b5060208310610133831016604e8410600b8410161715611ec1575081810a6105f5565b611ecd5f198484611e05565b805f1904821115611ee057611ee0611ccf565b029392505050565b5f61099560ff841683611e48565b634e487b7160e01b5f52602160045260245ffd5b5f60ff831680611f1c57611f1c611cfa565b8060ff8416069150509291505056fea26469706673582212203ae106b51495940eeab46cf3bc381bd3b55a78036280c00c25d07d402546bc1764736f6c634300081a0033",
  "linkReferences": {},
  "deployedLinkReferences": {}
}