{
  "_format": "hh-sol-artifact-1",
  "contractName": "OrionTransparentVault",
  "sourceName": "contracts/OrionTransparentVault.sol",
  "abi": [
    {
      "inputs": [
        {
          "internalType": "address",
          "name": "_curator",
          "type": "address"
        },
        {
          "internalType": "contract IOrionConfig",
          "name": "_config",
          "type": "address"
        },
        {
          "internalType": "string",
          "name": "_name",
          "type": "string"
        },
        {
          "internalType": "string",
          "name": "_symbol",
          "type": "string"
        }
      ],
      "stateMutability": "nonpayable",
      "type": "constructor"
    },
    {
      "inputs": [
        {
          "internalType": "address",
          "name": "asset",
          "type": "address"
        }
      ],
      "name": "AmountMustBeGreaterThanZero",
      "type": "error"
    },
    {
      "inputs": [
        {
          "internalType": "address",
          "name": "spender",
          "type": "address"
        },
        {
          "internalType": "uint256",
          "name": "allowance",
          "type": "uint256"
        },
        {
          "internalType": "uint256",
          "name": "needed",
          "type": "uint256"
        }
      ],
      "name": "ERC20InsufficientAllowance",
      "type": "error"
    },
    {
      "inputs": [
        {
          "internalType": "address",
          "name": "sender",
          "type": "address"
        },
        {
          "internalType": "uint256",
          "name": "balance",
          "type": "uint256"
        },
        {
          "internalType": "uint256",
          "name": "needed",
          "type": "uint256"
        }
      ],
      "name": "ERC20InsufficientBalance",
      "type": "error"
    },
    {
      "inputs": [
        {
          "internalType": "address",
          "name": "approver",
          "type": "address"
        }
      ],
      "name": "ERC20InvalidApprover",
      "type": "error"
    },
    {
      "inputs": [
        {
          "internalType": "address",
          "name": "receiver",
          "type": "address"
        }
      ],
      "name": "ERC20InvalidReceiver",
      "type": "error"
    },
    {
      "inputs": [
        {
          "internalType": "address",
          "name": "sender",
          "type": "address"
        }
      ],
      "name": "ERC20InvalidSender",
      "type": "error"
    },
    {
      "inputs": [
        {
          "internalType": "address",
          "name": "spender",
          "type": "address"
        }
      ],
      "name": "ERC20InvalidSpender",
      "type": "error"
    },
    {
      "inputs": [
        {
          "internalType": "address",
          "name": "receiver",
          "type": "address"
        },
        {
          "internalType": "uint256",
          "name": "assets",
          "type": "uint256"
        },
        {
          "internalType": "uint256",
          "name": "max",
          "type": "uint256"
        }
      ],
      "name": "ERC4626ExceededMaxDeposit",
      "type": "error"
    },
    {
      "inputs": [
        {
          "internalType": "address",
          "name": "receiver",
          "type": "address"
        },
        {
          "internalType": "uint256",
          "name": "shares",
          "type": "uint256"
        },
        {
          "internalType": "uint256",
          "name": "max",
          "type": "uint256"
        }
      ],
      "name": "ERC4626ExceededMaxMint",
      "type": "error"
    },
    {
      "inputs": [
        {
          "internalType": "address",
          "name": "owner",
          "type": "address"
        },
        {
          "internalType": "uint256",
          "name": "shares",
          "type": "uint256"
        },
        {
          "internalType": "uint256",
          "name": "max",
          "type": "uint256"
        }
      ],
      "name": "ERC4626ExceededMaxRedeem",
      "type": "error"
    },
    {
      "inputs": [
        {
          "internalType": "address",
          "name": "owner",
          "type": "address"
        },
        {
          "internalType": "uint256",
          "name": "assets",
          "type": "uint256"
        },
        {
          "internalType": "uint256",
          "name": "max",
          "type": "uint256"
        }
      ],
      "name": "ERC4626ExceededMaxWithdraw",
      "type": "error"
    },
    {
      "inputs": [],
      "name": "InvalidConfigAddress",
      "type": "error"
    },
    {
      "inputs": [],
      "name": "InvalidCuratorAddress",
      "type": "error"
    },
    {
      "inputs": [],
      "name": "InvalidTotalAmount",
      "type": "error"
    },
    {
      "inputs": [],
      "name": "NotCurator",
      "type": "error"
    },
    {
      "inputs": [],
      "name": "NotEnoughShares",
      "type": "error"
    },
    {
      "inputs": [],
      "name": "NotInternalStatesOrchestrator",
      "type": "error"
    },
    {
      "inputs": [],
      "name": "NotLiquidityOrchestrator",
      "type": "error"
    },
    {
      "inputs": [],
      "name": "OrderIntentCannotBeEmpty",
      "type": "error"
    },
    {
      "inputs": [],
      "name": "ReentrancyGuardReentrantCall",
      "type": "error"
    },
    {
      "inputs": [],
      "name": "SharesMustBeGreaterThanZero",
      "type": "error"
    },
    {
      "inputs": [],
      "name": "SynchronousDepositsDisabled",
      "type": "error"
    },
    {
      "inputs": [],
      "name": "SynchronousRedemptionsDisabled",
      "type": "error"
    },
    {
      "inputs": [],
      "name": "SynchronousWithdrawalsDisabled",
      "type": "error"
    },
    {
      "inputs": [
        {
          "internalType": "address",
          "name": "token",
          "type": "address"
        }
      ],
      "name": "TokenAlreadyInOrder",
      "type": "error"
    },
    {
      "inputs": [
        {
          "internalType": "address",
          "name": "token",
          "type": "address"
        }
      ],
      "name": "TokenNotWhitelisted",
      "type": "error"
    },
    {
      "inputs": [],
      "name": "TransferFailed",
      "type": "error"
    },
    {
      "inputs": [],
      "name": "ZeroPrice",
      "type": "error"
    },
    {
      "anonymous": false,
      "inputs": [
        {
          "indexed": true,
          "internalType": "address",
          "name": "owner",
          "type": "address"
        },
        {
          "indexed": true,
          "internalType": "address",
          "name": "spender",
          "type": "address"
        },
        {
          "indexed": false,
          "internalType": "uint256",
          "name": "value",
          "type": "uint256"
        }
      ],
      "name": "Approval",
      "type": "event"
    },
    {
      "anonymous": false,
      "inputs": [
        {
          "indexed": true,
          "internalType": "address",
          "name": "sender",
          "type": "address"
        },
        {
          "indexed": true,
          "internalType": "address",
          "name": "owner",
          "type": "address"
        },
        {
          "indexed": false,
          "internalType": "uint256",
          "name": "assets",
          "type": "uint256"
        },
        {
          "indexed": false,
          "internalType": "uint256",
          "name": "shares",
          "type": "uint256"
        }
      ],
      "name": "Deposit",
      "type": "event"
    },
    {
      "anonymous": false,
      "inputs": [
        {
          "indexed": true,
          "internalType": "address",
          "name": "user",
          "type": "address"
        },
        {
          "indexed": false,
          "internalType": "uint256",
          "name": "amount",
          "type": "uint256"
        },
        {
          "indexed": false,
          "internalType": "uint256",
          "name": "requestId",
          "type": "uint256"
        }
      ],
      "name": "DepositProcessed",
      "type": "event"
    },
    {
      "anonymous": false,
      "inputs": [
        {
          "indexed": true,
          "internalType": "address",
          "name": "user",
          "type": "address"
        },
        {
          "indexed": false,
          "internalType": "uint256",
          "name": "amount",
          "type": "uint256"
        },
        {
          "indexed": false,
          "internalType": "uint256",
          "name": "requestId",
          "type": "uint256"
        }
      ],
      "name": "DepositRequested",
      "type": "event"
    },
    {
      "anonymous": false,
      "inputs": [
        {
          "indexed": true,
          "internalType": "address",
          "name": "curator",
          "type": "address"
        }
      ],
      "name": "OrderSubmitted",
      "type": "event"
    },
    {
      "anonymous": false,
      "inputs": [
        {
          "indexed": true,
          "internalType": "address",
          "name": "from",
          "type": "address"
        },
        {
          "indexed": true,
          "internalType": "address",
          "name": "to",
          "type": "address"
        },
        {
          "indexed": false,
          "internalType": "uint256",
          "name": "value",
          "type": "uint256"
        }
      ],
      "name": "Transfer",
      "type": "event"
    },
    {
      "anonymous": false,
      "inputs": [
        {
          "indexed": true,
          "internalType": "address",
          "name": "sender",
          "type": "address"
        },
        {
          "indexed": true,
          "internalType": "address",
          "name": "receiver",
          "type": "address"
        },
        {
          "indexed": true,
          "internalType": "address",
          "name": "owner",
          "type": "address"
        },
        {
          "indexed": false,
          "internalType": "uint256",
          "name": "assets",
          "type": "uint256"
        },
        {
          "indexed": false,
          "internalType": "uint256",
          "name": "shares",
          "type": "uint256"
        }
      ],
      "name": "Withdraw",
      "type": "event"
    },
    {
      "anonymous": false,
      "inputs": [
        {
          "indexed": true,
          "internalType": "address",
          "name": "user",
          "type": "address"
        },
        {
          "indexed": false,
          "internalType": "uint256",
          "name": "shares",
          "type": "uint256"
        },
        {
          "indexed": false,
          "internalType": "uint256",
          "name": "requestId",
          "type": "uint256"
        }
      ],
      "name": "WithdrawProcessed",
      "type": "event"
    },
    {
      "anonymous": false,
      "inputs": [
        {
          "indexed": true,
          "internalType": "address",
          "name": "user",
          "type": "address"
        },
        {
          "indexed": false,
          "internalType": "uint256",
          "name": "shares",
          "type": "uint256"
        },
        {
          "indexed": false,
          "internalType": "uint256",
          "name": "requestId",
          "type": "uint256"
        }
      ],
      "name": "WithdrawRequested",
      "type": "event"
    },
    {
      "inputs": [
        {
          "internalType": "address",
          "name": "owner",
          "type": "address"
        },
        {
          "internalType": "address",
          "name": "spender",
          "type": "address"
        }
      ],
      "name": "allowance",
      "outputs": [
        {
          "internalType": "uint256",
          "name": "",
          "type": "uint256"
        }
      ],
      "stateMutability": "view",
      "type": "function"
    },
    {
      "inputs": [
        {
          "internalType": "address",
          "name": "spender",
          "type": "address"
        },
        {
          "internalType": "uint256",
          "name": "value",
          "type": "uint256"
        }
      ],
      "name": "approve",
      "outputs": [
        {
          "internalType": "bool",
          "name": "",
          "type": "bool"
        }
      ],
      "stateMutability": "nonpayable",
      "type": "function"
    },
    {
      "inputs": [],
      "name": "asset",
      "outputs": [
        {
          "internalType": "address",
          "name": "",
          "type": "address"
        }
      ],
      "stateMutability": "view",
      "type": "function"
    },
    {
      "inputs": [
        {
          "internalType": "address",
          "name": "account",
          "type": "address"
        }
      ],
      "name": "balanceOf",
      "outputs": [
        {
          "internalType": "uint256",
          "name": "",
          "type": "uint256"
        }
      ],
      "stateMutability": "view",
      "type": "function"
    },
    {
      "inputs": [],
      "name": "config",
      "outputs": [
        {
          "internalType": "contract IOrionConfig",
          "name": "",
          "type": "address"
        }
      ],
      "stateMutability": "view",
      "type": "function"
    },
    {
      "inputs": [
        {
          "internalType": "uint256",
          "name": "shares",
          "type": "uint256"
        }
      ],
      "name": "convertToAssets",
      "outputs": [
        {
          "internalType": "uint256",
          "name": "",
          "type": "uint256"
        }
      ],
      "stateMutability": "view",
      "type": "function"
    },
    {
      "inputs": [
        {
          "internalType": "uint256",
          "name": "assets",
          "type": "uint256"
        }
      ],
      "name": "convertToShares",
      "outputs": [
        {
          "internalType": "uint256",
          "name": "",
          "type": "uint256"
        }
      ],
      "stateMutability": "view",
      "type": "function"
    },
    {
      "inputs": [],
      "name": "curator",
      "outputs": [
        {
          "internalType": "address",
          "name": "",
          "type": "address"
        }
      ],
      "stateMutability": "view",
      "type": "function"
    },
    {
      "inputs": [],
      "name": "decimals",
      "outputs": [
        {
          "internalType": "uint8",
          "name": "",
          "type": "uint8"
        }
      ],
      "stateMutability": "view",
      "type": "function"
    },
    {
      "inputs": [],
      "name": "deployer",
      "outputs": [
        {
          "internalType": "address",
          "name": "",
          "type": "address"
        }
      ],
      "stateMutability": "view",
      "type": "function"
    },
    {
      "inputs": [
        {
          "internalType": "uint256",
          "name": "",
          "type": "uint256"
        },
        {
          "internalType": "address",
          "name": "",
          "type": "address"
        }
      ],
      "name": "deposit",
      "outputs": [
        {
          "internalType": "uint256",
          "name": "",
          "type": "uint256"
        }
      ],
      "stateMutability": "pure",
      "type": "function"
    },
    {
      "inputs": [
        {
          "internalType": "address",
          "name": "",
          "type": "address"
        }
      ],
      "name": "maxDeposit",
      "outputs": [
        {
          "internalType": "uint256",
          "name": "",
          "type": "uint256"
        }
      ],
      "stateMutability": "view",
      "type": "function"
    },
    {
      "inputs": [
        {
          "internalType": "address",
          "name": "",
          "type": "address"
        }
      ],
      "name": "maxMint",
      "outputs": [
        {
          "internalType": "uint256",
          "name": "",
          "type": "uint256"
        }
      ],
      "stateMutability": "view",
      "type": "function"
    },
    {
      "inputs": [
        {
          "internalType": "address",
          "name": "owner",
          "type": "address"
        }
      ],
      "name": "maxRedeem",
      "outputs": [
        {
          "internalType": "uint256",
          "name": "",
          "type": "uint256"
        }
      ],
      "stateMutability": "view",
      "type": "function"
    },
    {
      "inputs": [
        {
          "internalType": "address",
          "name": "owner",
          "type": "address"
        }
      ],
      "name": "maxWithdraw",
      "outputs": [
        {
          "internalType": "uint256",
          "name": "",
          "type": "uint256"
        }
      ],
      "stateMutability": "view",
      "type": "function"
    },
    {
      "inputs": [
        {
          "internalType": "uint256",
          "name": "",
          "type": "uint256"
        },
        {
          "internalType": "address",
          "name": "",
          "type": "address"
        }
      ],
      "name": "mint",
      "outputs": [
        {
          "internalType": "uint256",
          "name": "",
          "type": "uint256"
        }
      ],
      "stateMutability": "pure",
      "type": "function"
    },
    {
      "inputs": [],
      "name": "name",
      "outputs": [
        {
          "internalType": "string",
          "name": "",
          "type": "string"
        }
      ],
      "stateMutability": "view",
      "type": "function"
    },
    {
      "inputs": [
        {
          "internalType": "uint256",
          "name": "assets",
          "type": "uint256"
        }
      ],
      "name": "previewDeposit",
      "outputs": [
        {
          "internalType": "uint256",
          "name": "",
          "type": "uint256"
        }
      ],
      "stateMutability": "view",
      "type": "function"
    },
    {
      "inputs": [
        {
          "internalType": "uint256",
          "name": "shares",
          "type": "uint256"
        }
      ],
      "name": "previewMint",
      "outputs": [
        {
          "internalType": "uint256",
          "name": "",
          "type": "uint256"
        }
      ],
      "stateMutability": "view",
      "type": "function"
    },
    {
      "inputs": [
        {
          "internalType": "uint256",
          "name": "shares",
          "type": "uint256"
        }
      ],
      "name": "previewRedeem",
      "outputs": [
        {
          "internalType": "uint256",
          "name": "",
          "type": "uint256"
        }
      ],
      "stateMutability": "view",
      "type": "function"
    },
    {
      "inputs": [
        {
          "internalType": "uint256",
          "name": "assets",
          "type": "uint256"
        }
      ],
      "name": "previewWithdraw",
      "outputs": [
        {
          "internalType": "uint256",
          "name": "",
          "type": "uint256"
        }
      ],
      "stateMutability": "view",
      "type": "function"
    },
    {
      "inputs": [],
      "name": "processDepositRequests",
      "outputs": [],
      "stateMutability": "nonpayable",
      "type": "function"
    },
    {
      "inputs": [],
      "name": "processWithdrawRequests",
      "outputs": [],
      "stateMutability": "nonpayable",
      "type": "function"
    },
    {
      "inputs": [
        {
          "internalType": "uint256",
          "name": "",
          "type": "uint256"
        },
        {
          "internalType": "address",
          "name": "",
          "type": "address"
        },
        {
          "internalType": "address",
          "name": "",
          "type": "address"
        }
      ],
      "name": "redeem",
      "outputs": [
        {
          "internalType": "uint256",
          "name": "",
          "type": "uint256"
        }
      ],
      "stateMutability": "pure",
      "type": "function"
    },
    {
      "inputs": [
        {
          "internalType": "uint256",
          "name": "amount",
          "type": "uint256"
        }
      ],
      "name": "requestDeposit",
      "outputs": [],
      "stateMutability": "nonpayable",
      "type": "function"
    },
    {
      "inputs": [
        {
          "internalType": "uint256",
          "name": "shares",
          "type": "uint256"
        }
      ],
      "name": "requestWithdraw",
      "outputs": [],
      "stateMutability": "nonpayable",
      "type": "function"
    },
    {
      "inputs": [
        {
          "internalType": "uint256",
          "name": "newPrice",
          "type": "uint256"
        }
      ],
      "name": "setSharePrice",
      "outputs": [],
      "stateMutability": "nonpayable",
      "type": "function"
    },
    {
      "inputs": [
        {
          "internalType": "uint256",
          "name": "newTotalAssets",
          "type": "uint256"
        }
      ],
      "name": "setTotalAssets",
      "outputs": [],
      "stateMutability": "nonpayable",
      "type": "function"
    },
    {
      "inputs": [],
      "name": "sharePrice",
      "outputs": [
        {
          "internalType": "uint256",
          "name": "",
          "type": "uint256"
        }
      ],
      "stateMutability": "view",
      "type": "function"
    },
    {
      "inputs": [
        {
          "components": [
            {
              "internalType": "address",
              "name": "token",
              "type": "address"
            },
            {
              "internalType": "uint32",
              "name": "amount",
              "type": "uint32"
            }
          ],
          "internalType": "struct IOrionTransparentVault.Order[]",
          "name": "order",
          "type": "tuple[]"
        }
      ],
      "name": "submitOrderIntent",
      "outputs": [],
      "stateMutability": "nonpayable",
      "type": "function"
    },
    {
      "inputs": [],
      "name": "symbol",
      "outputs": [
        {
          "internalType": "string",
          "name": "",
          "type": "string"
        }
      ],
      "stateMutability": "view",
      "type": "function"
    },
    {
      "inputs": [],
      "name": "totalAssets",
      "outputs": [
        {
          "internalType": "uint256",
          "name": "",
          "type": "uint256"
        }
      ],
      "stateMutability": "view",
      "type": "function"
    },
    {
      "inputs": [],
      "name": "totalSupply",
      "outputs": [
        {
          "internalType": "uint256",
          "name": "",
          "type": "uint256"
        }
      ],
      "stateMutability": "view",
      "type": "function"
    },
    {
      "inputs": [
        {
          "internalType": "address",
          "name": "to",
          "type": "address"
        },
        {
          "internalType": "uint256",
          "name": "value",
          "type": "uint256"
        }
      ],
      "name": "transfer",
      "outputs": [
        {
          "internalType": "bool",
          "name": "",
          "type": "bool"
        }
      ],
      "stateMutability": "nonpayable",
      "type": "function"
    },
    {
      "inputs": [
        {
          "internalType": "address",
          "name": "from",
          "type": "address"
        },
        {
          "internalType": "address",
          "name": "to",
          "type": "address"
        },
        {
          "internalType": "uint256",
          "name": "value",
          "type": "uint256"
        }
      ],
      "name": "transferFrom",
      "outputs": [
        {
          "internalType": "bool",
          "name": "",
          "type": "bool"
        }
      ],
      "stateMutability": "nonpayable",
      "type": "function"
    },
    {
      "inputs": [
        {
          "internalType": "uint256",
          "name": "",
          "type": "uint256"
        },
        {
          "internalType": "address",
          "name": "",
          "type": "address"
        },
        {
          "internalType": "address",
          "name": "",
          "type": "address"
        }
      ],
      "name": "withdraw",
      "outputs": [
        {
          "internalType": "uint256",
          "name": "",
          "type": "uint256"
        }
      ],
      "stateMutability": "pure",
      "type": "function"
    }
  ],
  "bytecode": "0x60c060405234801561000f575f80fd5b5060405161253638038061253683398101604081905261002e9161032f565b83838383826001600160a01b0316637158da7c6040518163ffffffff1660e01b8152600401602060405180830381865afa15801561006e573d5f803e3d5ffd5b505050506040513d601f19601f8201168201806040525081019061009291906103ba565b828260036100a08382610460565b5060046100ad8282610460565b5050505f806100c18361019160201b60201c565b91509150816100d15760126100d3565b805b60ff1660a05250506001600160a01b03908116608052841661010857604051639c6bb9f560e01b815260040160405180910390fd5b6001600160a01b03831661012f57604051636a485a5b60e11b815260040160405180910390fd5b60078054336001600160a01b0319918216179091556006805482166001600160a01b038781169190911790915560058054909216908516179055610171610267565b61017c90600a610613565b60085550505f60095550610667945050505050565b60408051600481526024810182526020810180516001600160e01b031663313ce56760e01b17905290515f918291829182916001600160a01b038716916101d791610621565b5f60405180830381855afa9150503d805f811461020f576040519150601f19603f3d011682016040523d82523d5f602084013e610214565b606091505b509150915081801561022857506020815110155b1561025b575f818060200190518101906102429190610637565b905060ff8111610259576001969095509350505050565b505b505f9485945092505050565b5f8060a051610276919061064e565b905090565b6001600160a01b038116811461028f575f80fd5b50565b634e487b7160e01b5f52604160045260245ffd5b5f82601f8301126102b5575f80fd5b81516001600160401b038111156102ce576102ce610292565b604051601f8201601f19908116603f011681016001600160401b03811182821017156102fc576102fc610292565b604052818152838201602001851015610313575f80fd5b8160208501602083015e5f918101602001919091529392505050565b5f805f8060808587031215610342575f80fd5b845161034d8161027b565b602086015190945061035e8161027b565b60408601519093506001600160401b03811115610379575f80fd5b610385878288016102a6565b606087015190935090506001600160401b038111156103a2575f80fd5b6103ae878288016102a6565b91505092959194509250565b5f602082840312156103ca575f80fd5b81516103d58161027b565b9392505050565b600181811c908216806103f057607f821691505b60208210810361040e57634e487b7160e01b5f52602260045260245ffd5b50919050565b601f82111561045b57805f5260205f20601f840160051c810160208510156104395750805b601f840160051c820191505b81811015610458575f8155600101610445565b50505b505050565b81516001600160401b0381111561047957610479610292565b61048d8161048784546103dc565b84610414565b6020601f8211600181146104bf575f83156104a85750848201515b5f19600385901b1c1916600184901b178455610458565b5f84815260208120601f198516915b828110156104ee57878501518255602094850194600190920191016104ce565b508482101561050b57868401515f19600387901b60f8161c191681555b50505050600190811b01905550565b634e487b7160e01b5f52601160045260245ffd5b6001815b60018411156105695780850481111561054d5761054d61051a565b600184161561055b57908102905b60019390931c928002610532565b935093915050565b5f8261057f5750600161060d565b8161058b57505f61060d565b81600181146105a157600281146105ab576105c7565b600191505061060d565b60ff8411156105bc576105bc61051a565b50506001821b61060d565b5060208310610133831016604e8410600b84101617156105ea575081810a61060d565b6105f65f19848461052e565b805f19048211156106095761060961051a565b0290505b92915050565b5f6103d560ff841683610571565b5f82518060208501845e5f920191825250919050565b5f60208284031215610647575f80fd5b5051919050565b60ff818116838216019081111561060d5761060d61051a565b60805160a051611e9961069d5f395f6108fa01525f8181610306015281816105e30152818161065a0152610c8d0152611e995ff3fe608060405234801561000f575f80fd5b5060043610610213575f3560e01c806379502c551161011f578063c63d75b6116100a9578063d905777e11610079578063d905777e14610464578063dd62ed3e14610477578063e66f53b7146104af578063ef8b30f7146104c2578063fb12251b146104d5575f80fd5b8063c63d75b61461033e578063c6e6f5921461042b578063ce96cb771461043e578063d5f3948814610451575f80fd5b8063a9059cbb116100ef578063a9059cbb146103d7578063aa9d3a60146103ea578063b3d7f6b9146103f2578063b460af9414610405578063ba08765214610418575f80fd5b806379502c55146103b357806387269729146103c657806394bf804d1461036557806395d89b41146103cf575f80fd5b806323b872dd116101a0578063402d267d11610170578063402d267d1461033e5780634cdad506146103525780636e553f651461036557806370a0823114610378578063745400c9146103a0575f80fd5b806323b872dd146102cf578063313ce567146102e257806333fdc592146102fc57806338d52e0f14610304575f80fd5b80630a28a477116101e65780630a28a477146102795780630d1e66671461028c57806316b60249146102a15780631765b313146102b457806318160ddd146102c7575f80fd5b806301e1d1141461021757806306fdde031461022e57806307a2d13a14610243578063095ea7b314610256575b5f80fd5b6009545b6040519081526020015b60405180910390f35b6102366104e8565b60405161022591906119e2565b61021b610251366004611a17565b610578565b610269610264366004611a42565b6105a2565b6040519015158152602001610225565b61021b610287366004611a17565b6105b9565b61029f61029a366004611a17565b6105c5565b005b61029f6102af366004611a17565b61075a565b61029f6102c2366004611a17565b610824565b60025461021b565b6102696102dd366004611a6c565b6108ce565b6102ea6108f3565b60405160ff9091168152602001610225565b61029f610923565b7f00000000000000000000000000000000000000000000000000000000000000005b6040516001600160a01b039091168152602001610225565b61021b61034c366004611aaa565b505f1990565b61021b610360366004611a17565b610a70565b61021b610373366004611ac5565b610a7b565b61021b610386366004611aaa565b6001600160a01b03165f9081526020819052604090205490565b61029f6103ae366004611a17565b610a95565b600554610326906001600160a01b031681565b61021b60085481565b610236610b7b565b6102696103e5366004611a42565b610b8a565b61029f610b97565b61021b610400366004611a17565b610d8a565b61021b610413366004611af3565b610d96565b61021b610426366004611af3565b610daf565b61021b610439366004611a17565b610dc9565b61021b61044c366004611aaa565b610de2565b600754610326906001600160a01b031681565b61021b610472366004611aaa565b610e04565b61021b610485366004611b32565b6001600160a01b039182165f90815260016020908152604080832093909416825291909152205490565b600654610326906001600160a01b031681565b61021b6104d0366004611a17565b610e21565b61029f6104e3366004611b5e565b610e2c565b6060600380546104f790611bcf565b80601f016020809104026020016040519081016040528092919081815260200182805461052390611bcf565b801561056e5780601f106105455761010080835404028352916020019161056e565b820191905f5260205f20905b81548152906001019060200180831161055157829003601f168201915b5050505050905090565b5f6105816108f3565b60ff16600854836105929190611c1b565b61059c9190611c46565b92915050565b5f336105af8185856110d4565b5060019392505050565b5f61059c8260016110e6565b805f0361061557604051636b30633560e01b81526001600160a01b037f00000000000000000000000000000000000000000000000000000000000000001660048201526024015b60405180910390fd5b5f80610622600a33611119565b915091508115610649576106433361063a8584611c59565b600a919061113f565b50610657565b610655600a338561113f565b505b5f7f00000000000000000000000000000000000000000000000000000000000000006040516323b872dd60e01b8152336004820152306024820152604481018690526001600160a01b0391909116906323b872dd906064016020604051808303815f875af11580156106cb573d5f803e3d5ffd5b505050506040513d601f19601f820116820180604052508101906106ef9190611c6c565b90508061070f576040516312171d8360e31b815260040160405180910390fd5b337f03979a8c481a9e9c06938045cfd5c28535255cb003b10a8fe84ebb3cb4d440f28561073c600a61115c565b6040805192835260208301919091520160405180910390a250505050565b60055f9054906101000a90046001600160a01b03166001600160a01b031663348ec5c86040518163ffffffff1660e01b8152600401602060405180830381865afa1580156107aa573d5f803e3d5ffd5b505050506040513d601f19601f820116820180604052508101906107ce9190611c8b565b6001600160a01b0316336001600160a01b0316146107ff5760405163efb380d960e01b815260040160405180910390fd5b805f0361081f57604051634dfba02360e01b815260040160405180910390fd5b600855565b60055f9054906101000a90046001600160a01b03166001600160a01b031663348ec5c86040518163ffffffff1660e01b8152600401602060405180830381865afa158015610874573d5f803e3d5ffd5b505050506040513d601f19601f820116820180604052508101906108989190611c8b565b6001600160a01b0316336001600160a01b0316146108c95760405163efb380d960e01b815260040160405180910390fd5b600955565b5f336108db858285611166565b6108e68585856111e2565b60019150505b9392505050565b5f61091e817f0000000000000000000000000000000000000000000000000000000000000000611ca6565b905090565b60055f9054906101000a90046001600160a01b03166001600160a01b0316633a0dad8e6040518163ffffffff1660e01b8152600401602060405180830381865afa158015610973573d5f803e3d5ffd5b505050506040513d601f19601f820116820180604052508101906109979190611c8b565b6001600160a01b0316336001600160a01b0316146109c857604051631af2ab4f60e31b815260040160405180910390fd5b6109d061123f565b5f5b6109dc600a61115c565b811015610a65575f806109f0600a846112ac565b915091505f6109fe82610e21565b9050610a0b600a846112ba565b50610a1683826112ce565b60408051838152602081018690526001600160a01b038516917f782ea2005b7f873a0190a1ccb553c732171348d6e16d2b7d3d493c0677dc296e910160405180910390a25050506001016109d2565b50610a6e611306565b565b5f61059c825f611330565b5f6040516318f2e47360e11b815260040160405180910390fd5b805f03610ab5576040516314e6cbb960e11b815260040160405180910390fd5b335f90815260208190526040902054811115610ae457604051633c57b48560e21b815260040160405180910390fd5b5f80610af1600d33611119565b915091508115610b1857610b1233610b098584611c59565b600d919061113f565b50610b26565b610b24600d338561113f565b505b610b313330856111e2565b337fd72eb5d043f24a0168ae744d5c44f9596fd673a26bf74d9646bff4b844882d1484610b5e600d61115c565b6040805192835260208301919091520160405180910390a2505050565b6060600480546104f790611bcf565b5f336105af8185856111e2565b60055f9054906101000a90046001600160a01b03166001600160a01b0316633a0dad8e6040518163ffffffff1660e01b8152600401602060405180830381865afa158015610be7573d5f803e3d5ffd5b505050506040513d601f19601f82011682018060405250810190610c0b9190611c8b565b6001600160a01b0316336001600160a01b031614610c3c57604051631af2ab4f60e31b815260040160405180910390fd5b610c4461123f565b5f5b610c50600d61115c565b811015610a65575f80610c64600d846112ac565b9092509050610c74600d836112ba565b50610c7f3082611360565b5f610c8982610a70565b90507f000000000000000000000000000000000000000000000000000000000000000060405163a9059cbb60e01b81526001600160a01b03858116600483015260248201849052919091169063a9059cbb906044016020604051808303815f875af1158015610cfa573d5f803e3d5ffd5b505050506040513d601f19601f82011682018060405250810190610d1e9190611c6c565b610d3b576040516312171d8360e31b815260040160405180910390fd5b60408051838152602081018690526001600160a01b038516917febad37b830b1857ef9af5983fc20dc0ded12dc472ba1e22e06fd3a9465b4506c910160405180910390a2505050600101610c46565b5f61059c826001611330565b5f604051628a595160e01b815260040160405180910390fd5b5f604051630ad8521960e31b815260040160405180910390fd5b5f600854610dd56108f3565b6105929060ff1684611c1b565b6001600160a01b0381165f9081526020819052604081205461059c905f611330565b6001600160a01b0381165f9081526020819052604081205461059c565b5f61059c825f6110e6565b6006546001600160a01b03163314610e57576040516356b381a560e01b815260040160405180910390fd5b5f819003610e7857604051631121aa8d60e01b815260040160405180910390fd5b610e826010611394565b5f805b8281101561100c575f848483818110610ea057610ea0611cbf565b610eb69260206040909202019081019150611aaa565b90505f858584818110610ecb57610ecb611cbf565b9050604002016020016020810190610ee39190611cd3565b600554604051633af32abf60e01b81526001600160a01b038581166004830152929350911690633af32abf90602401602060405180830381865afa158015610f2d573d5f803e3d5ffd5b505050506040513d601f19601f82011682018060405250810190610f519190611c6c565b610f795760405163751dff9760e11b81526001600160a01b038316600482015260240161060c565b8063ffffffff165f03610faa57604051636b30633560e01b81526001600160a01b038316600482015260240161060c565b5f610fc060108463ffffffff8086169061113f16565b905080610feb576040516346bdabe160e01b81526001600160a01b038416600482015260240161060c565b610ffb63ffffffff831686611c59565b94505060019092019150610e859050565b506005546040805163d1717c7d60e01b815290515f926001600160a01b03169163d1717c7d9160048083019260209291908290030181865afa158015611054573d5f803e3d5ffd5b505050506040513d601f19601f820116820180604052508101906110789190611cf6565b905061108581600a611df9565b82146110a4576040516324204a3560e21b815260040160405180910390fd5b60405133907f2d47a742b8d7df7c1fc5a9a631b206b364e6cb2722490759f63bb3ab14b132e0905f90a250505050565b6110e183838360016113a0565b505050565b5f6108ec6110f582600a611df9565b6002546111029190611c59565b600954611110906001611c59565b85919085611472565b5f808080611130866001600160a01b0387166114bd565b909450925050505b9250929050565b5f611154846001600160a01b038516846114f5565b949350505050565b5f61059c82611511565b6001600160a01b038381165f908152600160209081526040808320938616835292905220545f198110156111dc57818110156111ce57604051637dc7a0d960e11b81526001600160a01b0384166004820152602481018290526044810183905260640161060c565b6111dc84848484035f6113a0565b50505050565b6001600160a01b03831661120b57604051634b637e8f60e11b81525f600482015260240161060c565b6001600160a01b0382166112345760405163ec442f0560e01b81525f600482015260240161060c565b6110e183838361151b565b7f9b779b17422d0df92223018b32b4d1fa46e071723d6817e2486d003becc55f005c1561127f57604051633ee5aeb560e01b815260040160405180910390fd5b610a6e60017f9b779b17422d0df92223018b32b4d1fa46e071723d6817e2486d003becc55f005b90611641565b5f8080806111308686611648565b5f6108ec836001600160a01b038416611671565b6001600160a01b0382166112f75760405163ec442f0560e01b81525f600482015260240161060c565b6113025f838361151b565b5050565b610a6e5f7f9b779b17422d0df92223018b32b4d1fa46e071723d6817e2486d003becc55f006112a6565b5f6108ec61133d60095490565b611348906001611c59565b6113535f600a611df9565b6002546111109190611c59565b6001600160a01b03821661138957604051634b637e8f60e11b81525f600482015260240161060c565b611302825f8361151b565b61139d8161168d565b50565b6001600160a01b0384166113c95760405163e602df0560e01b81525f600482015260240161060c565b6001600160a01b0383166113f257604051634a1406b160e11b81525f600482015260240161060c565b6001600160a01b038085165f90815260016020908152604080832093871683529290522082905580156111dc57826001600160a01b0316846001600160a01b03167f8c5be1e5ebec7d5bd14f71427d1e84f3dd0314c0f7b2291e5b200ac8c7c3b9258460405161146491815260200190565b60405180910390a350505050565b5f61149f61147f836116d6565b801561149a57505f848061149557611495611c32565b868809115b151590565b6114aa868686611702565b6114b49190611c59565b95945050505050565b5f8181526002830160205260408120548190806114ea576114de85856117b2565b92505f91506111389050565b600192509050611138565b5f828152600284016020526040812082905561115484846117bd565b5f61059c826117c8565b6001600160a01b038316611545578060025f82825461153a9190611c59565b909155506115b59050565b6001600160a01b0383165f90815260208190526040902054818110156115975760405163391434e360e21b81526001600160a01b0385166004820152602481018290526044810183905260640161060c565b6001600160a01b0384165f9081526020819052604090209082900390555b6001600160a01b0382166115d1576002805482900390556115ef565b6001600160a01b0382165f9081526020819052604090208054820190555b816001600160a01b0316836001600160a01b03167fddf252ad1be2c89b69c2b068fc378daa952ba7f163c4a11628f55a4df523b3ef8360405161163491815260200190565b60405180910390a3505050565b80825d5050565b5f808061165585856117d1565b5f81815260029690960160205260409095205494959350505050565b5f81815260028301602052604081208190556108ec83836117dc565b5f61169782611511565b90505f5b818110156116cc57600283015f6116b285846117d1565b815260208101919091526040015f9081205560010161169b565b50611302826117e7565b5f60028260038111156116eb576116eb611e07565b6116f59190611e1b565b60ff166001149050919050565b5f805f61170f86866117f0565b91509150815f036117335783818161172957611729611c32565b04925050506108ec565b81841161174a5761174a600385150260111861180c565b5f848688095f868103871696879004966002600389028118808a02820302808a02820302808a02820302808a02820302808a02820302808a02909103029181900381900460010185841190960395909502919093039390930492909217029150509392505050565b5f6108ec838361181d565b5f6108ec8383611834565b5f61059c825490565b5f6108ec8383611880565b5f6108ec83836118a6565b61139d81611989565b5f805f1983850993909202808410938190039390930393915050565b634e487b715f52806020526024601cfd5b5f81815260018301602052604081205415156108ec565b5f81815260018301602052604081205461187957508154600181810184555f84815260208082209093018490558454848252828601909352604090209190915561059c565b505f61059c565b5f825f01828154811061189557611895611cbf565b905f5260205f200154905092915050565b5f8181526001830160205260408120548015611980575f6118c8600183611e3c565b85549091505f906118db90600190611e3c565b905080821461193a575f865f0182815481106118f9576118f9611cbf565b905f5260205f200154905080875f01848154811061191957611919611cbf565b5f918252602080832090910192909255918252600188019052604090208390555b855486908061194b5761194b611e4f565b600190038181905f5260205f20015f90559055856001015f8681526020019081526020015f205f90556001935050505061059c565b5f91505061059c565b5f611992825490565b90505f5b818110156119db57826001015f845f0183815481106119b7576119b7611cbf565b905f5260205f20015481526020019081526020015f205f9055806001019050611996565b50505f9055565b602081525f82518060208401528060208501604085015e5f604082850101526040601f19601f83011684010191505092915050565b5f60208284031215611a27575f80fd5b5035919050565b6001600160a01b038116811461139d575f80fd5b5f8060408385031215611a53575f80fd5b8235611a5e81611a2e565b946020939093013593505050565b5f805f60608486031215611a7e575f80fd5b8335611a8981611a2e565b92506020840135611a9981611a2e565b929592945050506040919091013590565b5f60208284031215611aba575f80fd5b81356108ec81611a2e565b5f8060408385031215611ad6575f80fd5b823591506020830135611ae881611a2e565b809150509250929050565b5f805f60608486031215611b05575f80fd5b833592506020840135611b1781611a2e565b91506040840135611b2781611a2e565b809150509250925092565b5f8060408385031215611b43575f80fd5b8235611b4e81611a2e565b91506020830135611ae881611a2e565b5f8060208385031215611b6f575f80fd5b823567ffffffffffffffff811115611b85575f80fd5b8301601f81018513611b95575f80fd5b803567ffffffffffffffff811115611bab575f80fd5b8560208260061b8401011115611bbf575f80fd5b6020919091019590945092505050565b600181811c90821680611be357607f821691505b602082108103611c0157634e487b7160e01b5f52602260045260245ffd5b50919050565b634e487b7160e01b5f52601160045260245ffd5b808202811582820484141761059c5761059c611c07565b634e487b7160e01b5f52601260045260245ffd5b5f82611c5457611c54611c32565b500490565b8082018082111561059c5761059c611c07565b5f60208284031215611c7c575f80fd5b815180151581146108ec575f80fd5b5f60208284031215611c9b575f80fd5b81516108ec81611a2e565b60ff818116838216019081111561059c5761059c611c07565b634e487b7160e01b5f52603260045260245ffd5b5f60208284031215611ce3575f80fd5b813563ffffffff811681146108ec575f80fd5b5f60208284031215611d06575f80fd5b815160ff811681146108ec575f80fd5b6001815b6001841115611d5157808504811115611d3557611d35611c07565b6001841615611d4357908102905b60019390931c928002611d1a565b935093915050565b5f82611d675750600161059c565b81611d7357505f61059c565b8160018114611d895760028114611d9357611daf565b600191505061059c565b60ff841115611da457611da4611c07565b50506001821b61059c565b5060208310610133831016604e8410600b8410161715611dd2575081810a61059c565b611dde5f198484611d16565b805f1904821115611df157611df1611c07565b029392505050565b5f6108ec60ff841683611d59565b634e487b7160e01b5f52602160045260245ffd5b5f60ff831680611e2d57611e2d611c32565b8060ff84160691505092915050565b8181038181111561059c5761059c611c07565b634e487b7160e01b5f52603160045260245ffdfea2646970667358221220a2301c5fb43f353cab6938ca826e7c7be137ad754a5436d39b96acf769f260fe64736f6c634300081a0033",
  "linkReferences": {},
  "deployedLinkReferences": {}
}