{
  "_format": "hh-sol-artifact-1",
  "contractName": "OrionTransparentVault",
  "sourceName": "contracts/OrionTransparentVault.sol",
  "abi": [
    {
      "inputs": [
        {
          "internalType": "address",
          "name": "_curator",
          "type": "address"
        },
        {
          "internalType": "contract IOrionConfig",
          "name": "_config",
          "type": "address"
        },
        {
          "internalType": "string",
          "name": "_name",
          "type": "string"
        },
        {
          "internalType": "string",
          "name": "_symbol",
          "type": "string"
        }
      ],
      "stateMutability": "nonpayable",
      "type": "constructor"
    },
    {
      "inputs": [
        {
          "internalType": "address",
          "name": "asset",
          "type": "address"
        }
      ],
      "name": "AmountMustBeGreaterThanZero",
      "type": "error"
    },
    {
      "inputs": [
        {
          "internalType": "address",
          "name": "spender",
          "type": "address"
        },
        {
          "internalType": "uint256",
          "name": "allowance",
          "type": "uint256"
        },
        {
          "internalType": "uint256",
          "name": "needed",
          "type": "uint256"
        }
      ],
      "name": "ERC20InsufficientAllowance",
      "type": "error"
    },
    {
      "inputs": [
        {
          "internalType": "address",
          "name": "sender",
          "type": "address"
        },
        {
          "internalType": "uint256",
          "name": "balance",
          "type": "uint256"
        },
        {
          "internalType": "uint256",
          "name": "needed",
          "type": "uint256"
        }
      ],
      "name": "ERC20InsufficientBalance",
      "type": "error"
    },
    {
      "inputs": [
        {
          "internalType": "address",
          "name": "approver",
          "type": "address"
        }
      ],
      "name": "ERC20InvalidApprover",
      "type": "error"
    },
    {
      "inputs": [
        {
          "internalType": "address",
          "name": "receiver",
          "type": "address"
        }
      ],
      "name": "ERC20InvalidReceiver",
      "type": "error"
    },
    {
      "inputs": [
        {
          "internalType": "address",
          "name": "sender",
          "type": "address"
        }
      ],
      "name": "ERC20InvalidSender",
      "type": "error"
    },
    {
      "inputs": [
        {
          "internalType": "address",
          "name": "spender",
          "type": "address"
        }
      ],
      "name": "ERC20InvalidSpender",
      "type": "error"
    },
    {
      "inputs": [
        {
          "internalType": "address",
          "name": "receiver",
          "type": "address"
        },
        {
          "internalType": "uint256",
          "name": "assets",
          "type": "uint256"
        },
        {
          "internalType": "uint256",
          "name": "max",
          "type": "uint256"
        }
      ],
      "name": "ERC4626ExceededMaxDeposit",
      "type": "error"
    },
    {
      "inputs": [
        {
          "internalType": "address",
          "name": "receiver",
          "type": "address"
        },
        {
          "internalType": "uint256",
          "name": "shares",
          "type": "uint256"
        },
        {
          "internalType": "uint256",
          "name": "max",
          "type": "uint256"
        }
      ],
      "name": "ERC4626ExceededMaxMint",
      "type": "error"
    },
    {
      "inputs": [
        {
          "internalType": "address",
          "name": "owner",
          "type": "address"
        },
        {
          "internalType": "uint256",
          "name": "shares",
          "type": "uint256"
        },
        {
          "internalType": "uint256",
          "name": "max",
          "type": "uint256"
        }
      ],
      "name": "ERC4626ExceededMaxRedeem",
      "type": "error"
    },
    {
      "inputs": [
        {
          "internalType": "address",
          "name": "owner",
          "type": "address"
        },
        {
          "internalType": "uint256",
          "name": "assets",
          "type": "uint256"
        },
        {
          "internalType": "uint256",
          "name": "max",
          "type": "uint256"
        }
      ],
      "name": "ERC4626ExceededMaxWithdraw",
      "type": "error"
    },
    {
      "inputs": [],
      "name": "InvalidConfigAddress",
      "type": "error"
    },
    {
      "inputs": [],
      "name": "InvalidCuratorAddress",
      "type": "error"
    },
    {
      "inputs": [],
      "name": "InvalidTotalAmount",
      "type": "error"
    },
    {
      "inputs": [],
      "name": "NotCurator",
      "type": "error"
    },
    {
      "inputs": [],
      "name": "NotEnoughShares",
      "type": "error"
    },
    {
      "inputs": [],
      "name": "NotInternalStatesOrchestrator",
      "type": "error"
    },
    {
      "inputs": [],
      "name": "NotLiquidityOrchestrator",
      "type": "error"
    },
    {
      "inputs": [],
      "name": "OrderIntentCannotBeEmpty",
      "type": "error"
    },
    {
      "inputs": [],
      "name": "ReentrancyGuardReentrantCall",
      "type": "error"
    },
    {
      "inputs": [],
      "name": "SharesMustBeGreaterThanZero",
      "type": "error"
    },
    {
      "inputs": [],
      "name": "SynchronousDepositsDisabled",
      "type": "error"
    },
    {
      "inputs": [],
      "name": "SynchronousRedemptionsDisabled",
      "type": "error"
    },
    {
      "inputs": [],
      "name": "SynchronousWithdrawalsDisabled",
      "type": "error"
    },
    {
      "inputs": [
        {
          "internalType": "address",
          "name": "token",
          "type": "address"
        }
      ],
      "name": "TokenAlreadyInOrder",
      "type": "error"
    },
    {
      "inputs": [
        {
          "internalType": "address",
          "name": "token",
          "type": "address"
        }
      ],
      "name": "TokenNotWhitelisted",
      "type": "error"
    },
    {
      "inputs": [],
      "name": "TransferFailed",
      "type": "error"
    },
    {
      "inputs": [],
      "name": "ZeroPrice",
      "type": "error"
    },
    {
      "anonymous": false,
      "inputs": [
        {
          "indexed": true,
          "internalType": "address",
          "name": "owner",
          "type": "address"
        },
        {
          "indexed": true,
          "internalType": "address",
          "name": "spender",
          "type": "address"
        },
        {
          "indexed": false,
          "internalType": "uint256",
          "name": "value",
          "type": "uint256"
        }
      ],
      "name": "Approval",
      "type": "event"
    },
    {
      "anonymous": false,
      "inputs": [
        {
          "indexed": true,
          "internalType": "address",
          "name": "sender",
          "type": "address"
        },
        {
          "indexed": true,
          "internalType": "address",
          "name": "owner",
          "type": "address"
        },
        {
          "indexed": false,
          "internalType": "uint256",
          "name": "assets",
          "type": "uint256"
        },
        {
          "indexed": false,
          "internalType": "uint256",
          "name": "shares",
          "type": "uint256"
        }
      ],
      "name": "Deposit",
      "type": "event"
    },
    {
      "anonymous": false,
      "inputs": [
        {
          "indexed": true,
          "internalType": "address",
          "name": "user",
          "type": "address"
        },
        {
          "indexed": false,
          "internalType": "uint256",
          "name": "amount",
          "type": "uint256"
        },
        {
          "indexed": false,
          "internalType": "uint256",
          "name": "requestId",
          "type": "uint256"
        }
      ],
      "name": "DepositProcessed",
      "type": "event"
    },
    {
      "anonymous": false,
      "inputs": [
        {
          "indexed": true,
          "internalType": "address",
          "name": "user",
          "type": "address"
        },
        {
          "indexed": false,
          "internalType": "uint256",
          "name": "amount",
          "type": "uint256"
        },
        {
          "indexed": false,
          "internalType": "uint256",
          "name": "requestId",
          "type": "uint256"
        }
      ],
      "name": "DepositRequested",
      "type": "event"
    },
    {
      "anonymous": false,
      "inputs": [
        {
          "indexed": true,
          "internalType": "address",
          "name": "curator",
          "type": "address"
        }
      ],
      "name": "OrderSubmitted",
      "type": "event"
    },
    {
      "anonymous": false,
      "inputs": [
        {
          "indexed": true,
          "internalType": "address",
          "name": "from",
          "type": "address"
        },
        {
          "indexed": true,
          "internalType": "address",
          "name": "to",
          "type": "address"
        },
        {
          "indexed": false,
          "internalType": "uint256",
          "name": "value",
          "type": "uint256"
        }
      ],
      "name": "Transfer",
      "type": "event"
    },
    {
      "anonymous": false,
      "inputs": [
        {
          "indexed": true,
          "internalType": "address",
          "name": "sender",
          "type": "address"
        },
        {
          "indexed": true,
          "internalType": "address",
          "name": "receiver",
          "type": "address"
        },
        {
          "indexed": true,
          "internalType": "address",
          "name": "owner",
          "type": "address"
        },
        {
          "indexed": false,
          "internalType": "uint256",
          "name": "assets",
          "type": "uint256"
        },
        {
          "indexed": false,
          "internalType": "uint256",
          "name": "shares",
          "type": "uint256"
        }
      ],
      "name": "Withdraw",
      "type": "event"
    },
    {
      "anonymous": false,
      "inputs": [
        {
          "indexed": true,
          "internalType": "address",
          "name": "user",
          "type": "address"
        },
        {
          "indexed": false,
          "internalType": "uint256",
          "name": "shares",
          "type": "uint256"
        },
        {
          "indexed": false,
          "internalType": "uint256",
          "name": "requestId",
          "type": "uint256"
        }
      ],
      "name": "WithdrawProcessed",
      "type": "event"
    },
    {
      "anonymous": false,
      "inputs": [
        {
          "indexed": true,
          "internalType": "address",
          "name": "user",
          "type": "address"
        },
        {
          "indexed": false,
          "internalType": "uint256",
          "name": "shares",
          "type": "uint256"
        },
        {
          "indexed": false,
          "internalType": "uint256",
          "name": "requestId",
          "type": "uint256"
        }
      ],
      "name": "WithdrawRequested",
      "type": "event"
    },
    {
      "inputs": [
        {
          "internalType": "address",
          "name": "owner",
          "type": "address"
        },
        {
          "internalType": "address",
          "name": "spender",
          "type": "address"
        }
      ],
      "name": "allowance",
      "outputs": [
        {
          "internalType": "uint256",
          "name": "",
          "type": "uint256"
        }
      ],
      "stateMutability": "view",
      "type": "function"
    },
    {
      "inputs": [
        {
          "internalType": "address",
          "name": "spender",
          "type": "address"
        },
        {
          "internalType": "uint256",
          "name": "value",
          "type": "uint256"
        }
      ],
      "name": "approve",
      "outputs": [
        {
          "internalType": "bool",
          "name": "",
          "type": "bool"
        }
      ],
      "stateMutability": "nonpayable",
      "type": "function"
    },
    {
      "inputs": [],
      "name": "asset",
      "outputs": [
        {
          "internalType": "address",
          "name": "",
          "type": "address"
        }
      ],
      "stateMutability": "view",
      "type": "function"
    },
    {
      "inputs": [
        {
          "internalType": "address",
          "name": "account",
          "type": "address"
        }
      ],
      "name": "balanceOf",
      "outputs": [
        {
          "internalType": "uint256",
          "name": "",
          "type": "uint256"
        }
      ],
      "stateMutability": "view",
      "type": "function"
    },
    {
      "inputs": [],
      "name": "config",
      "outputs": [
        {
          "internalType": "contract IOrionConfig",
          "name": "",
          "type": "address"
        }
      ],
      "stateMutability": "view",
      "type": "function"
    },
    {
      "inputs": [
        {
          "internalType": "uint256",
          "name": "shares",
          "type": "uint256"
        }
      ],
      "name": "convertToAssets",
      "outputs": [
        {
          "internalType": "uint256",
          "name": "",
          "type": "uint256"
        }
      ],
      "stateMutability": "view",
      "type": "function"
    },
    {
      "inputs": [
        {
          "internalType": "uint256",
          "name": "assets",
          "type": "uint256"
        }
      ],
      "name": "convertToShares",
      "outputs": [
        {
          "internalType": "uint256",
          "name": "",
          "type": "uint256"
        }
      ],
      "stateMutability": "view",
      "type": "function"
    },
    {
      "inputs": [],
      "name": "curator",
      "outputs": [
        {
          "internalType": "address",
          "name": "",
          "type": "address"
        }
      ],
      "stateMutability": "view",
      "type": "function"
    },
    {
      "inputs": [],
      "name": "decimals",
      "outputs": [
        {
          "internalType": "uint8",
          "name": "",
          "type": "uint8"
        }
      ],
      "stateMutability": "view",
      "type": "function"
    },
    {
      "inputs": [],
      "name": "deployer",
      "outputs": [
        {
          "internalType": "address",
          "name": "",
          "type": "address"
        }
      ],
      "stateMutability": "view",
      "type": "function"
    },
    {
      "inputs": [
        {
          "internalType": "uint256",
          "name": "",
          "type": "uint256"
        },
        {
          "internalType": "address",
          "name": "",
          "type": "address"
        }
      ],
      "name": "deposit",
      "outputs": [
        {
          "internalType": "uint256",
          "name": "",
          "type": "uint256"
        }
      ],
      "stateMutability": "pure",
      "type": "function"
    },
    {
      "inputs": [
        {
          "internalType": "uint256",
          "name": "",
          "type": "uint256"
        }
      ],
      "name": "depositRequests",
      "outputs": [
        {
          "internalType": "address",
          "name": "user",
          "type": "address"
        },
        {
          "internalType": "uint256",
          "name": "amount",
          "type": "uint256"
        }
      ],
      "stateMutability": "view",
      "type": "function"
    },
    {
      "inputs": [
        {
          "internalType": "address",
          "name": "",
          "type": "address"
        }
      ],
      "name": "maxDeposit",
      "outputs": [
        {
          "internalType": "uint256",
          "name": "",
          "type": "uint256"
        }
      ],
      "stateMutability": "view",
      "type": "function"
    },
    {
      "inputs": [
        {
          "internalType": "address",
          "name": "",
          "type": "address"
        }
      ],
      "name": "maxMint",
      "outputs": [
        {
          "internalType": "uint256",
          "name": "",
          "type": "uint256"
        }
      ],
      "stateMutability": "view",
      "type": "function"
    },
    {
      "inputs": [
        {
          "internalType": "address",
          "name": "owner",
          "type": "address"
        }
      ],
      "name": "maxRedeem",
      "outputs": [
        {
          "internalType": "uint256",
          "name": "",
          "type": "uint256"
        }
      ],
      "stateMutability": "view",
      "type": "function"
    },
    {
      "inputs": [
        {
          "internalType": "address",
          "name": "owner",
          "type": "address"
        }
      ],
      "name": "maxWithdraw",
      "outputs": [
        {
          "internalType": "uint256",
          "name": "",
          "type": "uint256"
        }
      ],
      "stateMutability": "view",
      "type": "function"
    },
    {
      "inputs": [
        {
          "internalType": "uint256",
          "name": "",
          "type": "uint256"
        },
        {
          "internalType": "address",
          "name": "",
          "type": "address"
        }
      ],
      "name": "mint",
      "outputs": [
        {
          "internalType": "uint256",
          "name": "",
          "type": "uint256"
        }
      ],
      "stateMutability": "pure",
      "type": "function"
    },
    {
      "inputs": [],
      "name": "name",
      "outputs": [
        {
          "internalType": "string",
          "name": "",
          "type": "string"
        }
      ],
      "stateMutability": "view",
      "type": "function"
    },
    {
      "inputs": [
        {
          "internalType": "uint256",
          "name": "assets",
          "type": "uint256"
        }
      ],
      "name": "previewDeposit",
      "outputs": [
        {
          "internalType": "uint256",
          "name": "",
          "type": "uint256"
        }
      ],
      "stateMutability": "view",
      "type": "function"
    },
    {
      "inputs": [
        {
          "internalType": "uint256",
          "name": "shares",
          "type": "uint256"
        }
      ],
      "name": "previewMint",
      "outputs": [
        {
          "internalType": "uint256",
          "name": "",
          "type": "uint256"
        }
      ],
      "stateMutability": "view",
      "type": "function"
    },
    {
      "inputs": [
        {
          "internalType": "uint256",
          "name": "shares",
          "type": "uint256"
        }
      ],
      "name": "previewRedeem",
      "outputs": [
        {
          "internalType": "uint256",
          "name": "",
          "type": "uint256"
        }
      ],
      "stateMutability": "view",
      "type": "function"
    },
    {
      "inputs": [
        {
          "internalType": "uint256",
          "name": "assets",
          "type": "uint256"
        }
      ],
      "name": "previewWithdraw",
      "outputs": [
        {
          "internalType": "uint256",
          "name": "",
          "type": "uint256"
        }
      ],
      "stateMutability": "view",
      "type": "function"
    },
    {
      "inputs": [],
      "name": "processDepositRequests",
      "outputs": [],
      "stateMutability": "nonpayable",
      "type": "function"
    },
    {
      "inputs": [],
      "name": "processWithdrawRequests",
      "outputs": [],
      "stateMutability": "nonpayable",
      "type": "function"
    },
    {
      "inputs": [
        {
          "internalType": "uint256",
          "name": "",
          "type": "uint256"
        },
        {
          "internalType": "address",
          "name": "",
          "type": "address"
        },
        {
          "internalType": "address",
          "name": "",
          "type": "address"
        }
      ],
      "name": "redeem",
      "outputs": [
        {
          "internalType": "uint256",
          "name": "",
          "type": "uint256"
        }
      ],
      "stateMutability": "pure",
      "type": "function"
    },
    {
      "inputs": [
        {
          "internalType": "uint256",
          "name": "amount",
          "type": "uint256"
        }
      ],
      "name": "requestDeposit",
      "outputs": [],
      "stateMutability": "nonpayable",
      "type": "function"
    },
    {
      "inputs": [
        {
          "internalType": "uint256",
          "name": "shares",
          "type": "uint256"
        }
      ],
      "name": "requestWithdraw",
      "outputs": [],
      "stateMutability": "nonpayable",
      "type": "function"
    },
    {
      "inputs": [
        {
          "internalType": "uint256",
          "name": "newPrice",
          "type": "uint256"
        }
      ],
      "name": "setSharePrice",
      "outputs": [],
      "stateMutability": "nonpayable",
      "type": "function"
    },
    {
      "inputs": [
        {
          "internalType": "uint256",
          "name": "newTotalAssets",
          "type": "uint256"
        }
      ],
      "name": "setTotalAssets",
      "outputs": [],
      "stateMutability": "nonpayable",
      "type": "function"
    },
    {
      "inputs": [],
      "name": "sharePrice",
      "outputs": [
        {
          "internalType": "uint256",
          "name": "",
          "type": "uint256"
        }
      ],
      "stateMutability": "view",
      "type": "function"
    },
    {
      "inputs": [
        {
          "components": [
            {
              "internalType": "address",
              "name": "token",
              "type": "address"
            },
            {
              "internalType": "uint32",
              "name": "amount",
              "type": "uint32"
            }
          ],
          "internalType": "struct IOrionTransparentVault.Order[]",
          "name": "order",
          "type": "tuple[]"
        }
      ],
      "name": "submitOrderIntent",
      "outputs": [],
      "stateMutability": "nonpayable",
      "type": "function"
    },
    {
      "inputs": [],
      "name": "symbol",
      "outputs": [
        {
          "internalType": "string",
          "name": "",
          "type": "string"
        }
      ],
      "stateMutability": "view",
      "type": "function"
    },
    {
      "inputs": [],
      "name": "totalAssets",
      "outputs": [
        {
          "internalType": "uint256",
          "name": "",
          "type": "uint256"
        }
      ],
      "stateMutability": "view",
      "type": "function"
    },
    {
      "inputs": [],
      "name": "totalSupply",
      "outputs": [
        {
          "internalType": "uint256",
          "name": "",
          "type": "uint256"
        }
      ],
      "stateMutability": "view",
      "type": "function"
    },
    {
      "inputs": [
        {
          "internalType": "address",
          "name": "to",
          "type": "address"
        },
        {
          "internalType": "uint256",
          "name": "value",
          "type": "uint256"
        }
      ],
      "name": "transfer",
      "outputs": [
        {
          "internalType": "bool",
          "name": "",
          "type": "bool"
        }
      ],
      "stateMutability": "nonpayable",
      "type": "function"
    },
    {
      "inputs": [
        {
          "internalType": "address",
          "name": "from",
          "type": "address"
        },
        {
          "internalType": "address",
          "name": "to",
          "type": "address"
        },
        {
          "internalType": "uint256",
          "name": "value",
          "type": "uint256"
        }
      ],
      "name": "transferFrom",
      "outputs": [
        {
          "internalType": "bool",
          "name": "",
          "type": "bool"
        }
      ],
      "stateMutability": "nonpayable",
      "type": "function"
    },
    {
      "inputs": [
        {
          "internalType": "uint256",
          "name": "",
          "type": "uint256"
        },
        {
          "internalType": "address",
          "name": "",
          "type": "address"
        },
        {
          "internalType": "address",
          "name": "",
          "type": "address"
        }
      ],
      "name": "withdraw",
      "outputs": [
        {
          "internalType": "uint256",
          "name": "",
          "type": "uint256"
        }
      ],
      "stateMutability": "pure",
      "type": "function"
    },
    {
      "inputs": [
        {
          "internalType": "uint256",
          "name": "",
          "type": "uint256"
        }
      ],
      "name": "withdrawRequests",
      "outputs": [
        {
          "internalType": "address",
          "name": "user",
          "type": "address"
        },
        {
          "internalType": "uint256",
          "name": "shares",
          "type": "uint256"
        }
      ],
      "stateMutability": "view",
      "type": "function"
    }
  ],
  "bytecode": "0x60c060405234801561000f575f80fd5b5060405161260238038061260283398101604081905261002e9161032f565b83838383826001600160a01b0316637158da7c6040518163ffffffff1660e01b8152600401602060405180830381865afa15801561006e573d5f803e3d5ffd5b505050506040513d601f19601f8201168201806040525081019061009291906103ba565b828260036100a08382610460565b5060046100ad8282610460565b5050505f806100c18361019160201b60201c565b91509150816100d15760126100d3565b805b60ff1660a05250506001600160a01b03908116608052841661010857604051639c6bb9f560e01b815260040160405180910390fd5b6001600160a01b03831661012f57604051636a485a5b60e11b815260040160405180910390fd5b60078054336001600160a01b0319918216179091556006805482166001600160a01b038781169190911790915560058054909216908516179055610171610267565b61017c90600a610613565b60085550505f60095550610667945050505050565b60408051600481526024810182526020810180516001600160e01b031663313ce56760e01b17905290515f918291829182916001600160a01b038716916101d791610621565b5f60405180830381855afa9150503d805f811461020f576040519150601f19603f3d011682016040523d82523d5f602084013e610214565b606091505b509150915081801561022857506020815110155b1561025b575f818060200190518101906102429190610637565b905060ff8111610259576001969095509350505050565b505b505f9485945092505050565b5f8060a051610276919061064e565b905090565b6001600160a01b038116811461028f575f80fd5b50565b634e487b7160e01b5f52604160045260245ffd5b5f82601f8301126102b5575f80fd5b81516001600160401b038111156102ce576102ce610292565b604051601f8201601f19908116603f011681016001600160401b03811182821017156102fc576102fc610292565b604052818152838201602001851015610313575f80fd5b8160208501602083015e5f918101602001919091529392505050565b5f805f8060808587031215610342575f80fd5b845161034d8161027b565b602086015190945061035e8161027b565b60408601519093506001600160401b03811115610379575f80fd5b610385878288016102a6565b606087015190935090506001600160401b038111156103a2575f80fd5b6103ae878288016102a6565b91505092959194509250565b5f602082840312156103ca575f80fd5b81516103d58161027b565b9392505050565b600181811c908216806103f057607f821691505b60208210810361040e57634e487b7160e01b5f52602260045260245ffd5b50919050565b601f82111561045b57805f5260205f20601f840160051c810160208510156104395750805b601f840160051c820191505b81811015610458575f8155600101610445565b50505b505050565b81516001600160401b0381111561047957610479610292565b61048d8161048784546103dc565b84610414565b6020601f8211600181146104bf575f83156104a85750848201515b5f19600385901b1c1916600184901b178455610458565b5f84815260208120601f198516915b828110156104ee57878501518255602094850194600190920191016104ce565b508482101561050b57868401515f19600387901b60f8161c191681555b50505050600190811b01905550565b634e487b7160e01b5f52601160045260245ffd5b6001815b60018411156105695780850481111561054d5761054d61051a565b600184161561055b57908102905b60019390931c928002610532565b935093915050565b5f8261057f5750600161060d565b8161058b57505f61060d565b81600181146105a157600281146105ab576105c7565b600191505061060d565b60ff8411156105bc576105bc61051a565b50506001821b61060d565b5060208310610133831016604e8410600b84101617156105ea575081810a61060d565b6105f65f19848461052e565b805f19048211156106095761060961051a565b0290505b92915050565b5f6103d560ff841683610571565b5f82518060208501845e5f920191825250919050565b5f60208284031215610647575f80fd5b5051919050565b60ff818116838216019081111561060d5761060d61051a565b60805160a051611f6561069d5f395f6109a501525f818161031c0152818161063e015281816106720152610f250152611f655ff3fe608060405234801561000f575f80fd5b5060043610610229575f3560e01c8063872697291161012a578063c63d75b6116100b4578063dd62ed3e11610079578063dd62ed3e146104bf578063e66f53b7146104f7578063ef8b30f71461050a578063fabd03411461051d578063fb12251b14610530575f80fd5b8063c63d75b614610354578063c6e6f59214610473578063ce96cb7714610486578063d5f3948814610499578063d905777e146104ac575f80fd5b8063a9059cbb116100fa578063a9059cbb1461041f578063aa9d3a6014610432578063b3d7f6b91461043a578063b460af941461044d578063ba08765214610460575f80fd5b806387269729146103dc57806394bf804d1461037b57806395d89b41146103e5578063992a7dfb146103ed575f80fd5b806323b872dd116101b65780634cdad5061161017b5780634cdad506146103685780636e553f651461037b57806370a082311461038e578063745400c9146103b657806379502c55146103c9575f80fd5b806323b872dd146102e5578063313ce567146102f857806333fdc5921461031257806338d52e0f1461031a578063402d267d14610354575f80fd5b80630a28a477116101fc5780630a28a4771461028f5780630d1e6667146102a257806316b60249146102b75780631765b313146102ca57806318160ddd146102dd575f80fd5b806301e1d1141461022d57806306fdde031461024457806307a2d13a14610259578063095ea7b31461026c575b5f80fd5b6009545b6040519081526020015b60405180910390f35b61024c610543565b60405161023b9190611aae565b610231610267366004611ae3565b6105d3565b61027f61027a366004611b0e565b6105fd565b604051901515815260200161023b565b61023161029d366004611ae3565b610614565b6102b56102b0366004611ae3565b610620565b005b6102b56102c5366004611ae3565b610805565b6102b56102d8366004611ae3565b6108cf565b600254610231565b61027f6102f3366004611b38565b610979565b61030061099e565b60405160ff909116815260200161023b565b6102b56109ce565b7f00000000000000000000000000000000000000000000000000000000000000005b6040516001600160a01b03909116815260200161023b565b610231610362366004611b76565b505f1990565b610231610376366004611ae3565b610bdc565b610231610389366004611b91565b610be7565b61023161039c366004611b76565b6001600160a01b03165f9081526020819052604090205490565b6102b56103c4366004611ae3565b610c01565b60055461033c906001600160a01b031681565b61023160085481565b61024c610d21565b6104006103fb366004611ae3565b610d30565b604080516001600160a01b03909316835260208301919091520161023b565b61027f61042d366004611b0e565b610d66565b6102b5610d73565b610231610448366004611ae3565b611026565b61023161045b366004611bbf565b611032565b61023161046e366004611bbf565b61104b565b610231610481366004611ae3565b611065565b610231610494366004611b76565b61107e565b60075461033c906001600160a01b031681565b6102316104ba366004611b76565b6110a0565b6102316104cd366004611bfe565b6001600160a01b039182165f90815260016020908152604080832093909416825291909152205490565b60065461033c906001600160a01b031681565b610231610518366004611ae3565b6110bd565b61040061052b366004611ae3565b6110c8565b6102b561053e366004611c2a565b6110d7565b60606003805461055290611c9b565b80601f016020809104026020016040519081016040528092919081815260200182805461057e90611c9b565b80156105c95780601f106105a0576101008083540402835291602001916105c9565b820191905f5260205f20905b8154815290600101906020018083116105ac57829003601f168201915b5050505050905090565b5f6105dc61099e565b60ff16600854836105ed9190611ce7565b6105f79190611d12565b92915050565b5f3361060a81858561137f565b5060019392505050565b5f6105f7826001611391565b805f0361067057604051636b30633560e01b81526001600160a01b037f00000000000000000000000000000000000000000000000000000000000000001660048201526024015b60405180910390fd5b7f00000000000000000000000000000000000000000000000000000000000000006040516323b872dd60e01b8152336004820152306024820152604481018390526001600160a01b0391909116906323b872dd906064016020604051808303815f875af11580156106e3573d5f803e3d5ffd5b505050506040513d601f19601f820116820180604052508101906107079190611d25565b610724576040516312171d8360e31b815260040160405180910390fd5b604080518082019091523380825260208201838152600a8054600180820183555f83905294517fc65a7bb8d6351c1cf70c95a316cc6a92839c986682d98bc35f958f4883f9d2a8600290920291820180546001600160a01b0319166001600160a01b0390921691909117905591517fc65a7bb8d6351c1cf70c95a316cc6a92839c986682d98bc35f958f4883f9d2a9909201919091555490917f03979a8c481a9e9c06938045cfd5c28535255cb003b10a8fe84ebb3cb4d440f29184916107ea91611d44565b6040805192835260208301919091520160405180910390a250565b60055f9054906101000a90046001600160a01b03166001600160a01b031663348ec5c86040518163ffffffff1660e01b8152600401602060405180830381865afa158015610855573d5f803e3d5ffd5b505050506040513d601f19601f820116820180604052508101906108799190611d57565b6001600160a01b0316336001600160a01b0316146108aa5760405163efb380d960e01b815260040160405180910390fd5b805f036108ca57604051634dfba02360e01b815260040160405180910390fd5b600855565b60055f9054906101000a90046001600160a01b03166001600160a01b031663348ec5c86040518163ffffffff1660e01b8152600401602060405180830381865afa15801561091f573d5f803e3d5ffd5b505050506040513d601f19601f820116820180604052508101906109439190611d57565b6001600160a01b0316336001600160a01b0316146109745760405163efb380d960e01b815260040160405180910390fd5b600955565b5f336109868582856113c4565b610991858585611440565b60019150505b9392505050565b5f6109c9817f0000000000000000000000000000000000000000000000000000000000000000611d72565b905090565b60055f9054906101000a90046001600160a01b03166001600160a01b0316633a0dad8e6040518163ffffffff1660e01b8152600401602060405180830381865afa158015610a1e573d5f803e3d5ffd5b505050506040513d601f19601f82011682018060405250810190610a429190611d57565b6001600160a01b0316336001600160a01b031614610a7357604051631af2ab4f60e31b815260040160405180910390fd5b610a7b61149d565b5f5b600a54811015610bd1575f600a8281548110610a9b57610a9b611d8b565b905f5260205f20906002020190505f610ab782600101546110bd565b600a805491925090610acb90600190611d44565b81548110610adb57610adb611d8b565b905f5260205f209060020201600a8481548110610afa57610afa611d8b565b5f9182526020909120825460029092020180546001600160a01b0319166001600160a01b03909216919091178155600191820154910155600a805480610b4257610b42611d9f565b5f8281526020812060025f199093019283020180546001600160a01b03191681556001015590558154610b7e906001600160a01b03168261150a565b8154600183015460408051918252602082018690526001600160a01b03909216917f782ea2005b7f873a0190a1ccb553c732171348d6e16d2b7d3d493c0677dc296e910160405180910390a25050610a7d565b50610bda611542565b565b5f6105f7825f61156c565b5f6040516318f2e47360e11b815260040160405180910390fd5b805f03610c21576040516314e6cbb960e11b815260040160405180910390fd5b335f90815260208190526040902054811115610c5057604051633c57b48560e21b815260040160405180910390fd5b610c5b333083611440565b604080518082019091523380825260208201838152600b8054600180820183555f83905294517f0175b7a638427703f0dbe7bb9bbf987a2551717b34e79f33b5b1008d1fa01db9600290920291820180546001600160a01b0319166001600160a01b0390921691909117905591517f0175b7a638427703f0dbe7bb9bbf987a2551717b34e79f33b5b1008d1fa01dba909201919091555490917fd72eb5d043f24a0168ae744d5c44f9596fd673a26bf74d9646bff4b844882d149184916107ea91611d44565b60606004805461055290611c9b565b600b8181548110610d3f575f80fd5b5f918252602090912060029091020180546001909101546001600160a01b03909116915082565b5f3361060a818585611440565b60055f9054906101000a90046001600160a01b03166001600160a01b0316633a0dad8e6040518163ffffffff1660e01b8152600401602060405180830381865afa158015610dc3573d5f803e3d5ffd5b505050506040513d601f19601f82011682018060405250810190610de79190611d57565b6001600160a01b0316336001600160a01b031614610e1857604051631af2ab4f60e31b815260040160405180910390fd5b610e2061149d565b5f5b600b54811015610bd1575f600b8281548110610e4057610e40611d8b565b905f5260205f2090600202019050600b6001600b80549050610e629190611d44565b81548110610e7257610e72611d8b565b905f5260205f209060020201600b8381548110610e9157610e91611d8b565b5f9182526020909120825460029092020180546001600160a01b0319166001600160a01b03909216919091178155600191820154910155600b805480610ed957610ed9611d9f565b5f8281526020812060025f199093019283020180546001600160a01b03191681556001908101919091559155810154610f1390309061159c565b5f610f218260010154610bdc565b90507f0000000000000000000000000000000000000000000000000000000000000000825460405163a9059cbb60e01b81526001600160a01b0391821660048201526024810184905291169063a9059cbb906044016020604051808303815f875af1158015610f92573d5f803e3d5ffd5b505050506040513d601f19601f82011682018060405250810190610fb69190611d25565b610fd3576040516312171d8360e31b815260040160405180910390fd5b8154600183015460408051918252602082018690526001600160a01b03909216917febad37b830b1857ef9af5983fc20dc0ded12dc472ba1e22e06fd3a9465b4506c910160405180910390a25050610e22565b5f6105f782600161156c565b5f604051628a595160e01b815260040160405180910390fd5b5f604051630ad8521960e31b815260040160405180910390fd5b5f60085461107161099e565b6105ed9060ff1684611ce7565b6001600160a01b0381165f908152602081905260408120546105f7905f61156c565b6001600160a01b0381165f908152602081905260408120546105f7565b5f6105f7825f611391565b600a8181548110610d3f575f80fd5b6006546001600160a01b03163314611102576040516356b381a560e01b815260040160405180910390fd5b5f81900361112357604051631121aa8d60e01b815260040160405180910390fd5b61112d600c6115d0565b5f805b828110156112b7575f84848381811061114b5761114b611d8b565b6111619260206040909202019081019150611b76565b90505f85858481811061117657611176611d8b565b905060400201602001602081019061118e9190611db3565b600554604051633af32abf60e01b81526001600160a01b038581166004830152929350911690633af32abf90602401602060405180830381865afa1580156111d8573d5f803e3d5ffd5b505050506040513d601f19601f820116820180604052508101906111fc9190611d25565b6112245760405163751dff9760e11b81526001600160a01b0383166004820152602401610667565b8063ffffffff165f0361125557604051636b30633560e01b81526001600160a01b0383166004820152602401610667565b5f61126b600c8463ffffffff808616906115dc16565b905080611296576040516346bdabe160e01b81526001600160a01b0384166004820152602401610667565b6112a663ffffffff831686611dd6565b945050600190920191506111309050565b506005546040805163d1717c7d60e01b815290515f926001600160a01b03169163d1717c7d9160048083019260209291908290030181865afa1580156112ff573d5f803e3d5ffd5b505050506040513d601f19601f820116820180604052508101906113239190611de9565b905061133081600a611eec565b821461134f576040516324204a3560e21b815260040160405180910390fd5b60405133907f2d47a742b8d7df7c1fc5a9a631b206b364e6cb2722490759f63bb3ab14b132e0905f90a250505050565b61138c83838360016115f9565b505050565b5f6109976113a082600a611eec565b6002546113ad9190611dd6565b6009546113bb906001611dd6565b859190856116cb565b6001600160a01b038381165f908152600160209081526040808320938616835292905220545f1981101561143a578181101561142c57604051637dc7a0d960e11b81526001600160a01b03841660048201526024810182905260448101839052606401610667565b61143a84848484035f6115f9565b50505050565b6001600160a01b03831661146957604051634b637e8f60e11b81525f6004820152602401610667565b6001600160a01b0382166114925760405163ec442f0560e01b81525f6004820152602401610667565b61138c838383611716565b7f9b779b17422d0df92223018b32b4d1fa46e071723d6817e2486d003becc55f005c156114dd57604051633ee5aeb560e01b815260040160405180910390fd5b610bda60017f9b779b17422d0df92223018b32b4d1fa46e071723d6817e2486d003becc55f005b9061183c565b6001600160a01b0382166115335760405163ec442f0560e01b81525f6004820152602401610667565b61153e5f8383611716565b5050565b610bda5f7f9b779b17422d0df92223018b32b4d1fa46e071723d6817e2486d003becc55f00611504565b5f61099761157960095490565b611584906001611dd6565b61158f5f600a611eec565b6002546113bb9190611dd6565b6001600160a01b0382166115c557604051634b637e8f60e11b81525f6004820152602401610667565b61153e825f83611716565b6115d981611843565b50565b5f6115f1846001600160a01b0385168461188c565b949350505050565b6001600160a01b0384166116225760405163e602df0560e01b81525f6004820152602401610667565b6001600160a01b03831661164b57604051634a1406b160e11b81525f6004820152602401610667565b6001600160a01b038085165f908152600160209081526040808320938716835292905220829055801561143a57826001600160a01b0316846001600160a01b03167f8c5be1e5ebec7d5bd14f71427d1e84f3dd0314c0f7b2291e5b200ac8c7c3b925846040516116bd91815260200190565b60405180910390a350505050565b5f6116f86116d8836118a8565b80156116f357505f84806116ee576116ee611cfe565b868809115b151590565b6117038686866118d4565b61170d9190611dd6565b95945050505050565b6001600160a01b038316611740578060025f8282546117359190611dd6565b909155506117b09050565b6001600160a01b0383165f90815260208190526040902054818110156117925760405163391434e360e21b81526001600160a01b03851660048201526024810182905260448101839052606401610667565b6001600160a01b0384165f9081526020819052604090209082900390555b6001600160a01b0382166117cc576002805482900390556117ea565b6001600160a01b0382165f9081526020819052604090208054820190555b816001600160a01b0316836001600160a01b03167fddf252ad1be2c89b69c2b068fc378daa952ba7f163c4a11628f55a4df523b3ef8360405161182f91815260200190565b60405180910390a3505050565b80825d5050565b5f61184d82611984565b90505f5b8181101561188257600283015f611868858461198e565b815260208101919091526040015f90812055600101611851565b5061153e82611999565b5f82815260028401602052604081208290556115f184846119a2565b5f60028260038111156118bd576118bd611efa565b6118c79190611f0e565b60ff166001149050919050565b5f805f6118e186866119ad565b91509150815f03611905578381816118fb576118fb611cfe565b0492505050610997565b81841161191c5761191c60038515026011186119c9565b5f848688095f868103871696879004966002600389028118808a02820302808a02820302808a02820302808a02820302808a02820302808a02909103029181900381900460010185841190960395909502919093039390930492909217029150509392505050565b5f6105f7826119da565b5f61099783836119e3565b6115d981611a09565b5f6109978383611a62565b5f805f1983850993909202808410938190039390930393915050565b634e487b715f52806020526024601cfd5b5f6105f7825490565b5f825f0182815481106119f8576119f8611d8b565b905f5260205f200154905092915050565b5f611a12825490565b90505f5b81811015611a5b57826001015f845f018381548110611a3757611a37611d8b565b905f5260205f20015481526020019081526020015f205f9055806001019050611a16565b50505f9055565b5f818152600183016020526040812054611aa757508154600181810184555f8481526020808220909301849055845484825282860190935260409020919091556105f7565b505f6105f7565b602081525f82518060208401528060208501604085015e5f604082850101526040601f19601f83011684010191505092915050565b5f60208284031215611af3575f80fd5b5035919050565b6001600160a01b03811681146115d9575f80fd5b5f8060408385031215611b1f575f80fd5b8235611b2a81611afa565b946020939093013593505050565b5f805f60608486031215611b4a575f80fd5b8335611b5581611afa565b92506020840135611b6581611afa565b929592945050506040919091013590565b5f60208284031215611b86575f80fd5b813561099781611afa565b5f8060408385031215611ba2575f80fd5b823591506020830135611bb481611afa565b809150509250929050565b5f805f60608486031215611bd1575f80fd5b833592506020840135611be381611afa565b91506040840135611bf381611afa565b809150509250925092565b5f8060408385031215611c0f575f80fd5b8235611c1a81611afa565b91506020830135611bb481611afa565b5f8060208385031215611c3b575f80fd5b823567ffffffffffffffff811115611c51575f80fd5b8301601f81018513611c61575f80fd5b803567ffffffffffffffff811115611c77575f80fd5b8560208260061b8401011115611c8b575f80fd5b6020919091019590945092505050565b600181811c90821680611caf57607f821691505b602082108103611ccd57634e487b7160e01b5f52602260045260245ffd5b50919050565b634e487b7160e01b5f52601160045260245ffd5b80820281158282048414176105f7576105f7611cd3565b634e487b7160e01b5f52601260045260245ffd5b5f82611d2057611d20611cfe565b500490565b5f60208284031215611d35575f80fd5b81518015158114610997575f80fd5b818103818111156105f7576105f7611cd3565b5f60208284031215611d67575f80fd5b815161099781611afa565b60ff81811683821601908111156105f7576105f7611cd3565b634e487b7160e01b5f52603260045260245ffd5b634e487b7160e01b5f52603160045260245ffd5b5f60208284031215611dc3575f80fd5b813563ffffffff81168114610997575f80fd5b808201808211156105f7576105f7611cd3565b5f60208284031215611df9575f80fd5b815160ff81168114610997575f80fd5b6001815b6001841115611e4457808504811115611e2857611e28611cd3565b6001841615611e3657908102905b60019390931c928002611e0d565b935093915050565b5f82611e5a575060016105f7565b81611e6657505f6105f7565b8160018114611e7c5760028114611e8657611ea2565b60019150506105f7565b60ff841115611e9757611e97611cd3565b50506001821b6105f7565b5060208310610133831016604e8410600b8410161715611ec5575081810a6105f7565b611ed15f198484611e09565b805f1904821115611ee457611ee4611cd3565b029392505050565b5f61099760ff841683611e4c565b634e487b7160e01b5f52602160045260245ffd5b5f60ff831680611f2057611f20611cfe565b8060ff8416069150509291505056fea26469706673582212207d8e21402244c5b71c41dea0619d93777e560ba90ac71363d0cb023c5b15e5f064736f6c634300081a0033",
  "linkReferences": {},
  "deployedLinkReferences": {}
}