{
  "_format": "hh-sol-artifact-1",
  "contractName": "LiquidityOrchestrator",
  "sourceName": "contracts/LiquidityOrchestrator.sol",
  "abi": [
    {
      "inputs": [
        {
          "internalType": "address",
          "name": "target",
          "type": "address"
        }
      ],
      "name": "AddressEmptyCode",
      "type": "error"
    },
    {
      "inputs": [
        {
          "internalType": "address",
          "name": "implementation",
          "type": "address"
        }
      ],
      "name": "ERC1967InvalidImplementation",
      "type": "error"
    },
    {
      "inputs": [],
      "name": "ERC1967NonPayable",
      "type": "error"
    },
    {
      "inputs": [],
      "name": "FailedCall",
      "type": "error"
    },
    {
      "inputs": [],
      "name": "InvalidInitialization",
      "type": "error"
    },
    {
      "inputs": [],
      "name": "NotInitializing",
      "type": "error"
    },
    {
      "inputs": [
        {
          "internalType": "address",
          "name": "owner",
          "type": "address"
        }
      ],
      "name": "OwnableInvalidOwner",
      "type": "error"
    },
    {
      "inputs": [
        {
          "internalType": "address",
          "name": "account",
          "type": "address"
        }
      ],
      "name": "OwnableUnauthorizedAccount",
      "type": "error"
    },
    {
      "inputs": [],
      "name": "UUPSUnauthorizedCallContext",
      "type": "error"
    },
    {
      "inputs": [
        {
          "internalType": "bytes32",
          "name": "slot",
          "type": "bytes32"
        }
      ],
      "name": "UUPSUnsupportedProxiableUUID",
      "type": "error"
    },
    {
      "inputs": [],
      "name": "ZeroAddress",
      "type": "error"
    },
    {
      "anonymous": false,
      "inputs": [
        {
          "indexed": false,
          "internalType": "uint64",
          "name": "version",
          "type": "uint64"
        }
      ],
      "name": "Initialized",
      "type": "event"
    },
    {
      "anonymous": false,
      "inputs": [
        {
          "indexed": true,
          "internalType": "address",
          "name": "previousOwner",
          "type": "address"
        },
        {
          "indexed": true,
          "internalType": "address",
          "name": "newOwner",
          "type": "address"
        }
      ],
      "name": "OwnershipTransferStarted",
      "type": "event"
    },
    {
      "anonymous": false,
      "inputs": [
        {
          "indexed": true,
          "internalType": "address",
          "name": "previousOwner",
          "type": "address"
        },
        {
          "indexed": true,
          "internalType": "address",
          "name": "newOwner",
          "type": "address"
        }
      ],
      "name": "OwnershipTransferred",
      "type": "event"
    },
    {
      "anonymous": false,
      "inputs": [],
      "name": "PortfolioRebalanced",
      "type": "event"
    },
    {
      "anonymous": false,
      "inputs": [
        {
          "indexed": true,
          "internalType": "address",
          "name": "implementation",
          "type": "address"
        }
      ],
      "name": "Upgraded",
      "type": "event"
    },
    {
      "inputs": [],
      "name": "UPGRADE_INTERFACE_VERSION",
      "outputs": [
        {
          "internalType": "string",
          "name": "",
          "type": "string"
        }
      ],
      "stateMutability": "view",
      "type": "function"
    },
    {
      "inputs": [],
      "name": "acceptOwnership",
      "outputs": [],
      "stateMutability": "nonpayable",
      "type": "function"
    },
    {
      "inputs": [],
      "name": "config",
      "outputs": [
        {
          "internalType": "contract IOrionConfig",
          "name": "",
          "type": "address"
        }
      ],
      "stateMutability": "view",
      "type": "function"
    },
    {
      "inputs": [
        {
          "internalType": "address",
          "name": "initialOwner",
          "type": "address"
        },
        {
          "internalType": "address",
          "name": "config_",
          "type": "address"
        }
      ],
      "name": "initialize",
      "outputs": [],
      "stateMutability": "nonpayable",
      "type": "function"
    },
    {
      "inputs": [],
      "name": "owner",
      "outputs": [
        {
          "internalType": "address",
          "name": "",
          "type": "address"
        }
      ],
      "stateMutability": "view",
      "type": "function"
    },
    {
      "inputs": [],
      "name": "pendingOwner",
      "outputs": [
        {
          "internalType": "address",
          "name": "",
          "type": "address"
        }
      ],
      "stateMutability": "view",
      "type": "function"
    },
    {
      "inputs": [],
      "name": "proxiableUUID",
      "outputs": [
        {
          "internalType": "bytes32",
          "name": "",
          "type": "bytes32"
        }
      ],
      "stateMutability": "view",
      "type": "function"
    },
    {
      "inputs": [],
      "name": "rebalancePortfolio",
      "outputs": [],
      "stateMutability": "nonpayable",
      "type": "function"
    },
    {
      "inputs": [],
      "name": "renounceOwnership",
      "outputs": [],
      "stateMutability": "nonpayable",
      "type": "function"
    },
    {
      "inputs": [
        {
          "internalType": "address",
          "name": "newOwner",
          "type": "address"
        }
      ],
      "name": "transferOwnership",
      "outputs": [],
      "stateMutability": "nonpayable",
      "type": "function"
    },
    {
      "inputs": [
        {
          "internalType": "address",
          "name": "newImplementation",
          "type": "address"
        },
        {
          "internalType": "bytes",
          "name": "data",
          "type": "bytes"
        }
      ],
      "name": "upgradeToAndCall",
      "outputs": [],
      "stateMutability": "payable",
      "type": "function"
    }
  ],
  "bytecode": "0x60a06040523073ffffffffffffffffffffffffffffffffffffffff1660809073ffffffffffffffffffffffffffffffffffffffff168152503480156041575f80fd5b50608051611f4d6100685f395f8181610d4501528181610d9a0152610f900152611f4d5ff3fe60806040526004361061009b575f3560e01c806379ba50971161006357806379ba50971461014d578063822fc8aa146101635780638da5cb5b14610179578063ad3cb1cc146101a3578063e30c3978146101cd578063f2fde38b146101f75761009b565b8063485cc9551461009f5780634f1ef286146100c757806352d1902d146100e3578063715018a61461010d57806379502c5514610123575b5f80fd5b3480156100aa575f80fd5b506100c560048036038101906100c0919061163a565b61021f565b005b6100e160048036038101906100dc91906117b4565b61056d565b005b3480156100ee575f80fd5b506100f761058c565b6040516101049190611826565b60405180910390f35b348015610118575f80fd5b506101216105bd565b005b34801561012e575f80fd5b506101376105d0565b604051610144919061189a565b60405180910390f35b348015610158575f80fd5b506101616105f3565b005b34801561016e575f80fd5b50610177610681565b005b348015610184575f80fd5b5061018d610b80565b60405161019a91906118c2565b60405180910390f35b3480156101ae575f80fd5b506101b7610bb5565b6040516101c4919061193b565b60405180910390f35b3480156101d8575f80fd5b506101e1610bee565b6040516101ee91906118c2565b60405180910390f35b348015610202575f80fd5b5061021d6004803603810190610218919061195b565b610c23565b005b61023367a9f40edfb30ba66060c01b610cdc565b5f61023c610cdf565b90505f815f0160089054906101000a900460ff161590505f825f015f9054906101000a900467ffffffffffffffff1690505f808267ffffffffffffffff161480156102845750825b90505f60018367ffffffffffffffff161480156102b757505f3073ffffffffffffffffffffffffffffffffffffffff163b145b9050811580156102c5575080155b156102fc576040517ff92ee8a900000000000000000000000000000000000000000000000000000000815260040160405180910390fd5b6001855f015f6101000a81548167ffffffffffffffff021916908367ffffffffffffffff1602179055508315610349576001855f0160086101000a81548160ff0219169083151502179055505b61035d67c4e9cf6a8136fa2660c01b610cdc565b6103716753b6675b2ef1937460c01b610cdc565b610385670fd6738e55f3060960c01b610cdc565b61039967648dda2c1ce0680e60c01b610cdc565b6103a1610cf2565b6103b567a944029a079be0ab60c01b610cdc565b6103c967bb9f6baa0278fdbd60c01b610cdc565b6103d1610cfc565b6103e5674f193f564facd51d60c01b610cdc565b6103f967ecd1d798e36bda5360c01b610cdc565b61040287610d06565b610416675fb88fe7fc5586a760c01b610cdc565b61042a672a5e4e629f0ddf1060c01b610cdc565b5f73ffffffffffffffffffffffffffffffffffffffff168673ffffffffffffffffffffffffffffffffffffffff16036104a35761047167e57131781af9e59d60c01b610cdc565b6040517fd92e233d00000000000000000000000000000000000000000000000000000000815260040160405180910390fd5b6104b767698fe57ac4eba4a060c01b610cdc565b6104cb67e689977fd8b04fee60c01b610cdc565b855f806101000a81548173ffffffffffffffffffffffffffffffffffffffff021916908373ffffffffffffffffffffffffffffffffffffffff1602179055508315610564575f855f0160086101000a81548160ff0219169083151502179055507fc7f505b2f371ae2175ee4913f4499e1f2633a7b5936321eed1cdaeb6115181d2600160405161055b91906119d2565b60405180910390a15b50505050505050565b610575610d43565b61057e82610e29565b6105888282610e70565b5050565b5f610595610f8e565b7f360894a13ba1a3210667c828492db98dca3e2076cc3735a920a3ca505d382bbc5f1b905090565b6105c5611015565b6105ce5f610d06565b565b5f8054906101000a900473ffffffffffffffffffffffffffffffffffffffff1681565b5f6105fc61109c565b90508073ffffffffffffffffffffffffffffffffffffffff1661061d610bee565b73ffffffffffffffffffffffffffffffffffffffff161461067557806040517f118cdaa700000000000000000000000000000000000000000000000000000000815260040161066c91906118c2565b60405180910390fd5b61067e81610d06565b50565b61069567d5f48fcd9d04859960c01b610cdc565b61069d611015565b6106b167030fa08848ad022260c01b610cdc565b6106c5670cd1096b46e2ae6660c01b610cdc565b6106d967a6dbe33fe220414560c01b610cdc565b6106ed67a6ef09ba1b90de8660c01b610cdc565b7ff0094b59b7bc92e9fc611b14b5d3a34fe02530ac9bcf36c2c6f10147c3030c1260405160405180910390a161072d67237dec20f53d8e0360c01b610cdc565b610741673a4aa1819633ce7060c01b610cdc565b5f805f9054906101000a900473ffffffffffffffffffffffffffffffffffffffff1673ffffffffffffffffffffffffffffffffffffffff1663ed04f2185f6040518263ffffffff1660e01b815260040161079b9190611a5e565b5f60405180830381865afa1580156107b5573d5f803e3d5ffd5b505050506040513d5f823e3d601f19601f820116820180604052508101906107dd9190611b4f565b90506107f367c8a648cd6760503660c01b610cdc565b61080767e2711ef059869f6360c01b610cdc565b5f5b81518110156109495761082667e2697c519fcde19d60c01b610cdc565b61083a6790d3734c7e4fc37d60c01b610cdc565b5f82828151811061084e5761084d611b96565b5b6020026020010151905061086c67988f049ee42434c260c01b610cdc565b610880674f8b895ed7344c5860c01b610cdc565b8073ffffffffffffffffffffffffffffffffffffffff1663105444945f67ffffffffffffffff8111156108b6576108b5611690565b5b6040519080825280602002602001820160405280156108ef57816020015b6108dc61156d565b8152602001906001900390816108d45790505b505f6040518363ffffffff1660e01b815260040161090e929190611d07565b5f604051808303815f87803b158015610925575f80fd5b505af1158015610937573d5f803e3d5ffd5b50505050508080600101915050610809565b5061095e67b86e7295b5cf111a60c01b610cdc565b61097267a530d1e7646e1c5d60c01b610cdc565b5f805f9054906101000a900473ffffffffffffffffffffffffffffffffffffffff1673ffffffffffffffffffffffffffffffffffffffff1663ed04f21860016040518263ffffffff1660e01b81526004016109cd9190611a5e565b5f60405180830381865afa1580156109e7573d5f803e3d5ffd5b505050506040513d5f823e3d601f19601f82011682018060405250810190610a0f9190611b4f565b9050610a25673771bb1b94afe8dd60c01b610cdc565b610a396744c3d2a1a16903de60c01b610cdc565b5f5b8151811015610b7b57610a5867bbc9a17eb71cd4fa60c01b610cdc565b610a6c679e95c0bb5e0a115d60c01b610cdc565b5f828281518110610a8057610a7f611b96565b5b60200260200101519050610a9e674c8b648878da1cfc60c01b610cdc565b610ab267f9ffc8a191648f2660c01b610cdc565b8073ffffffffffffffffffffffffffffffffffffffff1663985ba4ae5f67ffffffffffffffff811115610ae857610ae7611690565b5b604051908082528060200260200182016040528015610b2157816020015b610b0e6115a1565b815260200190600190039081610b065790505b505f6040518363ffffffff1660e01b8152600401610b40929190611e3a565b5f604051808303815f87803b158015610b57575f80fd5b505af1158015610b69573d5f803e3d5ffd5b50505050508080600101915050610a3b565b505050565b5f80610b8a6110a3565b9050805f015f9054906101000a900473ffffffffffffffffffffffffffffffffffffffff1691505090565b6040518060400160405280600581526020017f352e302e3000000000000000000000000000000000000000000000000000000081525081565b5f80610bf86110ca565b9050805f015f9054906101000a900473ffffffffffffffffffffffffffffffffffffffff1691505090565b610c2b611015565b5f610c346110ca565b905081815f015f6101000a81548173ffffffffffffffffffffffffffffffffffffffff021916908373ffffffffffffffffffffffffffffffffffffffff1602179055508173ffffffffffffffffffffffffffffffffffffffff16610c96610b80565b73ffffffffffffffffffffffffffffffffffffffff167f38d16b8cac22d99fc7c124b9cd0de2d3fa1faef420bfe791d8c362d765e2270060405160405180910390a35050565b50565b5f80610ce96110f1565b90508091505090565b610cfa61111a565b565b610d0461111a565b565b5f610d0f6110ca565b9050805f015f6101000a81549073ffffffffffffffffffffffffffffffffffffffff0219169055610d3f8261115a565b5050565b7f000000000000000000000000000000000000000000000000000000000000000073ffffffffffffffffffffffffffffffffffffffff163073ffffffffffffffffffffffffffffffffffffffff161480610df057507f000000000000000000000000000000000000000000000000000000000000000073ffffffffffffffffffffffffffffffffffffffff16610dd761122b565b73ffffffffffffffffffffffffffffffffffffffff1614155b15610e27576040517fe07c8dba00000000000000000000000000000000000000000000000000000000815260040160405180910390fd5b565b610e3d67615f417fce0f083b60c01b610cdc565b610e45611015565b610e59674de7a4dafd0f9cd160c01b610cdc565b610e6d67690d066673c86ac560c01b610cdc565b50565b8173ffffffffffffffffffffffffffffffffffffffff166352d1902d6040518163ffffffff1660e01b8152600401602060405180830381865afa925050508015610ed857506040513d601f19601f82011682018060405250810190610ed59190611e92565b60015b610f1957816040517f4c9c8ce3000000000000000000000000000000000000000000000000000000008152600401610f1091906118c2565b60405180910390fd5b7f360894a13ba1a3210667c828492db98dca3e2076cc3735a920a3ca505d382bbc5f1b8114610f7f57806040517faa1d49a4000000000000000000000000000000000000000000000000000000008152600401610f769190611826565b60405180910390fd5b610f89838361127e565b505050565b7f000000000000000000000000000000000000000000000000000000000000000073ffffffffffffffffffffffffffffffffffffffff163073ffffffffffffffffffffffffffffffffffffffff1614611013576040517fe07c8dba00000000000000000000000000000000000000000000000000000000815260040160405180910390fd5b565b61101d61109c565b73ffffffffffffffffffffffffffffffffffffffff1661103b610b80565b73ffffffffffffffffffffffffffffffffffffffff161461109a5761105e61109c565b6040517f118cdaa700000000000000000000000000000000000000000000000000000000815260040161109191906118c2565b60405180910390fd5b565b5f33905090565b5f7f9016d09d72d40fdae2fd8ceac6b6234c7706214fd39c1cd1e609a0528c199300905090565b5f7f237e158222e3e6968b72b9db0d8043aacf074ad9f650f0d1606b4d82ee432c00905090565b5f7ff0c57e16840df040f15088dc2f81fe391c3923bec73e23a9662efc9c229c6a005f1b905090565b6111226112f0565b611158576040517fd7e6bcf800000000000000000000000000000000000000000000000000000000815260040160405180910390fd5b565b5f6111636110a3565b90505f815f015f9054906101000a900473ffffffffffffffffffffffffffffffffffffffff16905082825f015f6101000a81548173ffffffffffffffffffffffffffffffffffffffff021916908373ffffffffffffffffffffffffffffffffffffffff1602179055508273ffffffffffffffffffffffffffffffffffffffff168173ffffffffffffffffffffffffffffffffffffffff167f8be0079c531659141344cd1fd0a4f28419497f9722a3daafe3b4186f6b6457e060405160405180910390a3505050565b5f6112577f360894a13ba1a3210667c828492db98dca3e2076cc3735a920a3ca505d382bbc5f1b61130e565b5f015f9054906101000a900473ffffffffffffffffffffffffffffffffffffffff16905090565b61128782611317565b8173ffffffffffffffffffffffffffffffffffffffff167fbc7cd75a20ee27fd9adebab32041f755214dbc6bffa90cc0225b39da2e5c2d3b60405160405180910390a25f815111156112e3576112dd82826113e0565b506112ec565b6112eb611460565b5b5050565b5f6112f9610cdf565b5f0160089054906101000a900460ff16905090565b5f819050919050565b5f8173ffffffffffffffffffffffffffffffffffffffff163b0361137257806040517f4c9c8ce300000000000000000000000000000000000000000000000000000000815260040161136991906118c2565b60405180910390fd5b8061139e7f360894a13ba1a3210667c828492db98dca3e2076cc3735a920a3ca505d382bbc5f1b61130e565b5f015f6101000a81548173ffffffffffffffffffffffffffffffffffffffff021916908373ffffffffffffffffffffffffffffffffffffffff16021790555050565b60605f808473ffffffffffffffffffffffffffffffffffffffff16846040516114099190611f01565b5f60405180830381855af49150503d805f8114611441576040519150601f19603f3d011682016040523d82523d5f602084013e611446565b606091505b509150915061145685838361149c565b9250505092915050565b5f34111561149a576040517fb398979f00000000000000000000000000000000000000000000000000000000815260040160405180910390fd5b565b6060826114b1576114ac82611529565b611521565b5f82511480156114d757505f8473ffffffffffffffffffffffffffffffffffffffff163b145b1561151957836040517f9996b31500000000000000000000000000000000000000000000000000000000815260040161151091906118c2565b60405180910390fd5b819050611522565b5b9392505050565b5f8151111561153b5780518082602001fd5b6040517fd6bda27500000000000000000000000000000000000000000000000000000000815260040160405180910390fd5b60405180604001604052805f73ffffffffffffffffffffffffffffffffffffffff1681526020015f63ffffffff1681525090565b60405180604001604052805f73ffffffffffffffffffffffffffffffffffffffff1681526020015f81525090565b5f604051905090565b5f80fd5b5f80fd5b5f73ffffffffffffffffffffffffffffffffffffffff82169050919050565b5f611609826115e0565b9050919050565b611619816115ff565b8114611623575f80fd5b50565b5f8135905061163481611610565b92915050565b5f80604083850312156116505761164f6115d8565b5b5f61165d85828601611626565b925050602061166e85828601611626565b9150509250929050565b5f80fd5b5f80fd5b5f601f19601f8301169050919050565b7f4e487b71000000000000000000000000000000000000000000000000000000005f52604160045260245ffd5b6116c682611680565b810181811067ffffffffffffffff821117156116e5576116e4611690565b5b80604052505050565b5f6116f76115cf565b905061170382826116bd565b919050565b5f67ffffffffffffffff82111561172257611721611690565b5b61172b82611680565b9050602081019050919050565b828183375f83830152505050565b5f61175861175384611708565b6116ee565b9050828152602081018484840111156117745761177361167c565b5b61177f848285611738565b509392505050565b5f82601f83011261179b5761179a611678565b5b81356117ab848260208601611746565b91505092915050565b5f80604083850312156117ca576117c96115d8565b5b5f6117d785828601611626565b925050602083013567ffffffffffffffff8111156117f8576117f76115dc565b5b61180485828601611787565b9150509250929050565b5f819050919050565b6118208161180e565b82525050565b5f6020820190506118395f830184611817565b92915050565b5f819050919050565b5f61186261185d611858846115e0565b61183f565b6115e0565b9050919050565b5f61187382611848565b9050919050565b5f61188482611869565b9050919050565b6118948161187a565b82525050565b5f6020820190506118ad5f83018461188b565b92915050565b6118bc816115ff565b82525050565b5f6020820190506118d55f8301846118b3565b92915050565b5f81519050919050565b5f82825260208201905092915050565b8281835e5f83830152505050565b5f61190d826118db565b61191781856118e5565b93506119278185602086016118f5565b61193081611680565b840191505092915050565b5f6020820190508181035f8301526119538184611903565b905092915050565b5f602082840312156119705761196f6115d8565b5b5f61197d84828501611626565b91505092915050565b5f819050919050565b5f67ffffffffffffffff82169050919050565b5f6119bc6119b76119b284611986565b61183f565b61198f565b9050919050565b6119cc816119a2565b82525050565b5f6020820190506119e55f8301846119c3565b92915050565b7f4e487b71000000000000000000000000000000000000000000000000000000005f52602160045260245ffd5b60028110611a2957611a286119eb565b5b50565b5f819050611a3982611a18565b919050565b5f611a4882611a2c565b9050919050565b611a5881611a3e565b82525050565b5f602082019050611a715f830184611a4f565b92915050565b5f67ffffffffffffffff821115611a9157611a90611690565b5b602082029050602081019050919050565b5f80fd5b5f81519050611ab481611610565b92915050565b5f611acc611ac784611a77565b6116ee565b90508083825260208201905060208402830185811115611aef57611aee611aa2565b5b835b81811015611b185780611b048882611aa6565b845260208401935050602081019050611af1565b5050509392505050565b5f82601f830112611b3657611b35611678565b5b8151611b46848260208601611aba565b91505092915050565b5f60208284031215611b6457611b636115d8565b5b5f82015167ffffffffffffffff811115611b8157611b806115dc565b5b611b8d84828501611b22565b91505092915050565b7f4e487b71000000000000000000000000000000000000000000000000000000005f52603260045260245ffd5b5f81519050919050565b5f82825260208201905092915050565b5f819050602082019050919050565b611bf5816115ff565b82525050565b5f63ffffffff82169050919050565b611c1381611bfb565b82525050565b604082015f820151611c2d5f850182611bec565b506020820151611c406020850182611c0a565b50505050565b5f611c518383611c19565b60408301905092915050565b5f602082019050919050565b5f611c7382611bc3565b611c7d8185611bcd565b9350611c8883611bdd565b805f5b83811015611cb8578151611c9f8882611c46565b9750611caa83611c5d565b925050600181019050611c8b565b5085935050505092915050565b5f819050919050565b5f819050919050565b5f611cf1611cec611ce784611cc5565b61183f565b611cce565b9050919050565b611d0181611cd7565b82525050565b5f6040820190508181035f830152611d1f8185611c69565b9050611d2e6020830184611cf8565b9392505050565b5f81519050919050565b5f82825260208201905092915050565b5f819050602082019050919050565b5f611d78611d73611d6e84611cce565b61183f565b611cce565b9050919050565b611d8881611d5e565b82525050565b604082015f820151611da25f850182611bec565b506020820151611db56020850182611d7f565b50505050565b5f611dc68383611d8e565b60408301905092915050565b5f602082019050919050565b5f611de882611d35565b611df28185611d3f565b9350611dfd83611d4f565b805f5b83811015611e2d578151611e148882611dbb565b9750611e1f83611dd2565b925050600181019050611e00565b5085935050505092915050565b5f6040820190508181035f830152611e528185611dde565b9050611e616020830184611cf8565b9392505050565b611e718161180e565b8114611e7b575f80fd5b50565b5f81519050611e8c81611e68565b92915050565b5f60208284031215611ea757611ea66115d8565b5b5f611eb484828501611e7e565b91505092915050565b5f81519050919050565b5f81905092915050565b5f611edb82611ebd565b611ee58185611ec7565b9350611ef58185602086016118f5565b80840191505092915050565b5f611f0c8284611ed1565b91508190509291505056fea26469706673582212202e40b59b47cea9e7a318800bee9e314f0805fd94146716975b8d7fd7f033b5dc64736f6c634300081a0033",
  "linkReferences": {},
  "deployedLinkReferences": {}
}