{
  "_format": "hh-sol-artifact-1",
  "contractName": "LiquidityOrchestrator",
  "sourceName": "contracts/LiquidityOrchestrator.sol",
  "abi": [
    {
      "inputs": [
        {
          "internalType": "address",
          "name": "target",
          "type": "address"
        }
      ],
      "name": "AddressEmptyCode",
      "type": "error"
    },
    {
      "inputs": [
        {
          "internalType": "address",
          "name": "implementation",
          "type": "address"
        }
      ],
      "name": "ERC1967InvalidImplementation",
      "type": "error"
    },
    {
      "inputs": [],
      "name": "ERC1967NonPayable",
      "type": "error"
    },
    {
      "inputs": [],
      "name": "FailedCall",
      "type": "error"
    },
    {
      "inputs": [],
      "name": "InvalidInitialization",
      "type": "error"
    },
    {
      "inputs": [],
      "name": "NotInitializing",
      "type": "error"
    },
    {
      "inputs": [
        {
          "internalType": "address",
          "name": "owner",
          "type": "address"
        }
      ],
      "name": "OwnableInvalidOwner",
      "type": "error"
    },
    {
      "inputs": [
        {
          "internalType": "address",
          "name": "account",
          "type": "address"
        }
      ],
      "name": "OwnableUnauthorizedAccount",
      "type": "error"
    },
    {
      "inputs": [],
      "name": "UUPSUnauthorizedCallContext",
      "type": "error"
    },
    {
      "inputs": [
        {
          "internalType": "bytes32",
          "name": "slot",
          "type": "bytes32"
        }
      ],
      "name": "UUPSUnsupportedProxiableUUID",
      "type": "error"
    },
    {
      "anonymous": false,
      "inputs": [
        {
          "indexed": false,
          "internalType": "uint64",
          "name": "version",
          "type": "uint64"
        }
      ],
      "name": "Initialized",
      "type": "event"
    },
    {
      "anonymous": false,
      "inputs": [
        {
          "indexed": true,
          "internalType": "address",
          "name": "previousOwner",
          "type": "address"
        },
        {
          "indexed": true,
          "internalType": "address",
          "name": "newOwner",
          "type": "address"
        }
      ],
      "name": "OwnershipTransferStarted",
      "type": "event"
    },
    {
      "anonymous": false,
      "inputs": [
        {
          "indexed": true,
          "internalType": "address",
          "name": "previousOwner",
          "type": "address"
        },
        {
          "indexed": true,
          "internalType": "address",
          "name": "newOwner",
          "type": "address"
        }
      ],
      "name": "OwnershipTransferred",
      "type": "event"
    },
    {
      "anonymous": false,
      "inputs": [
        {
          "indexed": true,
          "internalType": "address",
          "name": "implementation",
          "type": "address"
        }
      ],
      "name": "Upgraded",
      "type": "event"
    },
    {
      "inputs": [],
      "name": "UPGRADE_INTERFACE_VERSION",
      "outputs": [
        {
          "internalType": "string",
          "name": "",
          "type": "string"
        }
      ],
      "stateMutability": "view",
      "type": "function"
    },
    {
      "inputs": [],
      "name": "acceptOwnership",
      "outputs": [],
      "stateMutability": "nonpayable",
      "type": "function"
    },
    {
      "inputs": [
        {
          "internalType": "address",
          "name": "initialOwner",
          "type": "address"
        }
      ],
      "name": "initialize",
      "outputs": [],
      "stateMutability": "nonpayable",
      "type": "function"
    },
    {
      "inputs": [],
      "name": "owner",
      "outputs": [
        {
          "internalType": "address",
          "name": "",
          "type": "address"
        }
      ],
      "stateMutability": "view",
      "type": "function"
    },
    {
      "inputs": [],
      "name": "pendingOwner",
      "outputs": [
        {
          "internalType": "address",
          "name": "",
          "type": "address"
        }
      ],
      "stateMutability": "view",
      "type": "function"
    },
    {
      "inputs": [],
      "name": "proxiableUUID",
      "outputs": [
        {
          "internalType": "bytes32",
          "name": "",
          "type": "bytes32"
        }
      ],
      "stateMutability": "view",
      "type": "function"
    },
    {
      "inputs": [],
      "name": "rebalancePortfolio",
      "outputs": [],
      "stateMutability": "nonpayable",
      "type": "function"
    },
    {
      "inputs": [],
      "name": "renounceOwnership",
      "outputs": [],
      "stateMutability": "nonpayable",
      "type": "function"
    },
    {
      "inputs": [
        {
          "internalType": "address",
          "name": "newOwner",
          "type": "address"
        }
      ],
      "name": "transferOwnership",
      "outputs": [],
      "stateMutability": "nonpayable",
      "type": "function"
    },
    {
      "inputs": [
        {
          "internalType": "address",
          "name": "newImplementation",
          "type": "address"
        },
        {
          "internalType": "bytes",
          "name": "data",
          "type": "bytes"
        }
      ],
      "name": "upgradeToAndCall",
      "outputs": [],
      "stateMutability": "payable",
      "type": "function"
    }
  ],
  "bytecode": "0x60a0604052306080523480156012575f80fd5b50608051610add6100395f395f81816104720152818161049b01526105df0152610add5ff3fe60806040526004361061008f575f3560e01c80638da5cb5b116100575780638da5cb5b1461010b578063ad3cb1cc14610137578063c4d66de814610174578063e30c397814610193578063f2fde38b146101a7575f80fd5b80634f1ef2861461009357806352d1902d146100a8578063715018a6146100cf57806379ba5097146100e3578063822fc8aa146100f7575b5f80fd5b6100a66100a1366004610948565b6101c6565b005b3480156100b3575f80fd5b506100bc6101e5565b6040519081526020015b60405180910390f35b3480156100da575f80fd5b506100a6610200565b3480156100ee575f80fd5b506100a6610213565b348015610102575f80fd5b506100a6610260565b348015610116575f80fd5b5061011f610268565b6040516001600160a01b0390911681526020016100c6565b348015610142575f80fd5b50610167604051806040016040528060058152602001640352e302e360dc1b81525081565b6040516100c69190610a0c565b34801561017f575f80fd5b506100a661018e366004610a41565b61029c565b34801561019e575f80fd5b5061011f6103ba565b3480156101b2575f80fd5b506100a66101c1366004610a41565b6103e2565b6101ce610467565b6101d78261050b565b6101e18282610513565b5050565b5f6101ee6105d4565b505f80516020610a8883398151915290565b61020861061d565b6102115f61064f565b565b338061021d6103ba565b6001600160a01b0316146102545760405163118cdaa760e01b81526001600160a01b03821660048201526024015b60405180910390fd5b61025d8161064f565b50565b61021161061d565b5f807f9016d09d72d40fdae2fd8ceac6b6234c7706214fd39c1cd1e609a0528c1993005b546001600160a01b031692915050565b7ff0c57e16840df040f15088dc2f81fe391c3923bec73e23a9662efc9c229c6a008054600160401b810460ff16159067ffffffffffffffff165f811580156102e15750825b90505f8267ffffffffffffffff1660011480156102fd5750303b155b90508115801561030b575080155b156103295760405163f92ee8a960e01b815260040160405180910390fd5b845467ffffffffffffffff19166001178555831561035357845460ff60401b1916600160401b1785555b61035b610687565b610363610687565b61036c8661064f565b83156103b257845460ff60401b19168555604051600181527fc7f505b2f371ae2175ee4913f4499e1f2633a7b5936321eed1cdaeb6115181d29060200160405180910390a15b505050505050565b5f807f237e158222e3e6968b72b9db0d8043aacf074ad9f650f0d1606b4d82ee432c0061028c565b6103ea61061d565b7f237e158222e3e6968b72b9db0d8043aacf074ad9f650f0d1606b4d82ee432c0080546001600160a01b0319166001600160a01b038316908117825561042e610268565b6001600160a01b03167f38d16b8cac22d99fc7c124b9cd0de2d3fa1faef420bfe791d8c362d765e2270060405160405180910390a35050565b306001600160a01b037f00000000000000000000000000000000000000000000000000000000000000001614806104ed57507f00000000000000000000000000000000000000000000000000000000000000006001600160a01b03166104e15f80516020610a88833981519152546001600160a01b031690565b6001600160a01b031614155b156102115760405163703e46dd60e11b815260040160405180910390fd5b61025d61061d565b816001600160a01b03166352d1902d6040518163ffffffff1660e01b8152600401602060405180830381865afa92505050801561056d575060408051601f3d908101601f1916820190925261056a91810190610a5a565b60015b61059557604051634c9c8ce360e01b81526001600160a01b038316600482015260240161024b565b5f80516020610a8883398151915281146105c557604051632a87526960e21b81526004810182905260240161024b565b6105cf838361068f565b505050565b306001600160a01b037f000000000000000000000000000000000000000000000000000000000000000016146102115760405163703e46dd60e11b815260040160405180910390fd5b33610626610268565b6001600160a01b0316146102115760405163118cdaa760e01b815233600482015260240161024b565b7f237e158222e3e6968b72b9db0d8043aacf074ad9f650f0d1606b4d82ee432c0080546001600160a01b03191681556101e1826106e4565b610211610754565b6106988261079d565b6040516001600160a01b038316907fbc7cd75a20ee27fd9adebab32041f755214dbc6bffa90cc0225b39da2e5c2d3b905f90a28051156106dc576105cf8282610800565b6101e1610872565b7f9016d09d72d40fdae2fd8ceac6b6234c7706214fd39c1cd1e609a0528c19930080546001600160a01b031981166001600160a01b03848116918217845560405192169182907f8be0079c531659141344cd1fd0a4f28419497f9722a3daafe3b4186f6b6457e0905f90a3505050565b7ff0c57e16840df040f15088dc2f81fe391c3923bec73e23a9662efc9c229c6a0054600160401b900460ff1661021157604051631afcd79f60e31b815260040160405180910390fd5b806001600160a01b03163b5f036107d257604051634c9c8ce360e01b81526001600160a01b038216600482015260240161024b565b5f80516020610a8883398151915280546001600160a01b0319166001600160a01b0392909216919091179055565b60605f80846001600160a01b03168460405161081c9190610a71565b5f60405180830381855af49150503d805f8114610854576040519150601f19603f3d011682016040523d82523d5f602084013e610859565b606091505b5091509150610869858383610891565b95945050505050565b34156102115760405163b398979f60e01b815260040160405180910390fd5b6060826108a6576108a1826108f0565b6108e9565b81511580156108bd57506001600160a01b0384163b155b156108e657604051639996b31560e01b81526001600160a01b038516600482015260240161024b565b50805b9392505050565b8051156109005780518082602001fd5b60405163d6bda27560e01b815260040160405180910390fd5b80356001600160a01b038116811461092f575f80fd5b919050565b634e487b7160e01b5f52604160045260245ffd5b5f8060408385031215610959575f80fd5b61096283610919565b9150602083013567ffffffffffffffff81111561097d575f80fd5b8301601f8101851361098d575f80fd5b803567ffffffffffffffff8111156109a7576109a7610934565b604051601f8201601f19908116603f0116810167ffffffffffffffff811182821017156109d6576109d6610934565b6040528181528282016020018710156109ed575f80fd5b816020840160208301375f602083830101528093505050509250929050565b602081525f82518060208401528060208501604085015e5f604082850101526040601f19601f83011684010191505092915050565b5f60208284031215610a51575f80fd5b6108e982610919565b5f60208284031215610a6a575f80fd5b5051919050565b5f82518060208501845e5f92019182525091905056fe360894a13ba1a3210667c828492db98dca3e2076cc3735a920a3ca505d382bbca2646970667358221220059dad8688010585fe99f226593540a3bcfb1912e5d68bd0548326c06ced4e6964736f6c634300081a0033",
  "linkReferences": {},
  "deployedLinkReferences": {}
}