{
  "_format": "hh-sol-artifact-1",
  "contractName": "OrionVaultFactory",
  "sourceName": "contracts/OrionVaultFactory.sol",
  "abi": [
    {
      "inputs": [
        {
          "internalType": "address",
          "name": "_config",
          "type": "address"
        }
      ],
      "stateMutability": "nonpayable",
      "type": "constructor"
    },
    {
      "inputs": [],
      "name": "CuratorCannotBeZeroAddress",
      "type": "error"
    },
    {
      "inputs": [],
      "name": "InvalidConfigAddress",
      "type": "error"
    },
    {
      "anonymous": false,
      "inputs": [
        {
          "indexed": true,
          "internalType": "address",
          "name": "vault",
          "type": "address"
        },
        {
          "indexed": true,
          "internalType": "address",
          "name": "curator",
          "type": "address"
        },
        {
          "indexed": true,
          "internalType": "address",
          "name": "deployer",
          "type": "address"
        },
        {
          "indexed": false,
          "internalType": "string",
          "name": "vaultType",
          "type": "string"
        }
      ],
      "name": "OrionVaultCreated",
      "type": "event"
    },
    {
      "inputs": [],
      "name": "config",
      "outputs": [
        {
          "internalType": "contract IOrionConfig",
          "name": "",
          "type": "address"
        }
      ],
      "stateMutability": "view",
      "type": "function"
    },
    {
      "inputs": [
        {
          "internalType": "address",
          "name": "curator",
          "type": "address"
        },
        {
          "internalType": "string",
          "name": "name",
          "type": "string"
        },
        {
          "internalType": "string",
          "name": "symbol",
          "type": "string"
        }
      ],
      "name": "createOrionEncryptedVault",
      "outputs": [
        {
          "internalType": "address",
          "name": "vault",
          "type": "address"
        }
      ],
      "stateMutability": "nonpayable",
      "type": "function"
    },
    {
      "inputs": [
        {
          "internalType": "address",
          "name": "curator",
          "type": "address"
        },
        {
          "internalType": "string",
          "name": "name",
          "type": "string"
        },
        {
          "internalType": "string",
          "name": "symbol",
          "type": "string"
        }
      ],
      "name": "createOrionTransparentVault",
      "outputs": [
        {
          "internalType": "address",
          "name": "vault",
          "type": "address"
        }
      ],
      "stateMutability": "nonpayable",
      "type": "function"
    },
    {
      "inputs": [],
      "name": "deployer",
      "outputs": [
        {
          "internalType": "address",
          "name": "",
          "type": "address"
        }
      ],
      "stateMutability": "view",
      "type": "function"
    }
  ],
  "bytecode": "0x6080604052348015600e575f80fd5b50604051614f10380380614f10833981016040819052602b916082565b6001600160a01b038116605157604051636a485a5b60e11b815260040160405180910390fd5b5f8054336001600160a01b031991821617909155600180549091166001600160a01b039290921691909117905560ad565b5f602082840312156091575f80fd5b81516001600160a01b038116811460a6575f80fd5b9392505050565b614e56806100ba5f395ff3fe608060405234801561000f575f80fd5b506004361061004a575f3560e01c806379502c551461004e578063c3983f691461007d578063c544d8dc14610090578063d5f39488146100a3575b5f80fd5b600154610061906001600160a01b031681565b6040516001600160a01b03909116815260200160405180910390f35b61006161008b36600461034e565b6100b5565b61006161009e36600461034e565b610207565b5f54610061906001600160a01b031681565b5f6001600160a01b0386166100dd57604051630daae06b60e01b815260040160405180910390fd5b5f8660015f9054906101000a90046001600160a01b031687878787604051610104906102ef565b61011396959493929190610403565b604051809103905ff08015801561012c573d5f803e3d5ffd5b509050809150336001600160a01b0316876001600160a01b0316836001600160a01b03167f027cb482e8aca27cdcaa492bfb8e25a719fd2345084492a7bd65d803ae980bd460405161019b90602080825260099082015268195b98dc9e5c1d195960ba1b604082015260600190565b60405180910390a460015460405163eb1a5bb960e01b81526001600160a01b0384811660048301529091169063eb1a5bb9906024015f604051808303815f87803b1580156101e7575f80fd5b505af11580156101f9573d5f803e3d5ffd5b505050505095945050505050565b5f6001600160a01b03861661022f57604051630daae06b60e01b815260040160405180910390fd5b5f8660015f9054906101000a90046001600160a01b031687878787604051610256906102fc565b61026596959493929190610403565b604051809103905ff08015801561027e573d5f803e3d5ffd5b509050809150336001600160a01b0316876001600160a01b0316836001600160a01b03167f027cb482e8aca27cdcaa492bfb8e25a719fd2345084492a7bd65d803ae980bd460405161019b906020808252600b908201526a1d1c985b9cdc185c995b9d60aa1b604082015260600190565b61239e8061045083390190565b612633806127ee83390190565b5f8083601f840112610319575f80fd5b50813567ffffffffffffffff811115610330575f80fd5b602083019150836020828501011115610347575f80fd5b9250929050565b5f805f805f60608688031215610362575f80fd5b85356001600160a01b0381168114610378575f80fd5b9450602086013567ffffffffffffffff811115610393575f80fd5b61039f88828901610309565b909550935050604086013567ffffffffffffffff8111156103be575f80fd5b6103ca88828901610309565b969995985093965092949392505050565b81835281816020850137505f828201602090810191909152601f909101601f19169091010190565b6001600160a01b038781168252861660208201526080604082018190525f9061042f90830186886103db565b82810360608401526104428185876103db565b999850505050505050505056fe60c060405234801561000f575f80fd5b5060405161239e38038061239e83398101604081905261002e9161036d565b8383838361003b8361013a565b828260036100498382610477565b5060046100568282610477565b5050505f8061006a836101cb60201b60201c565b915091508161007a57601261007c565b805b60ff1660a05250506001600160a01b0390811660805284166100b157604051639c6bb9f560e01b815260040160405180910390fd5b6001600160a01b0383166100d857604051636a485a5b60e11b815260040160405180910390fd5b60078054336001600160a01b0319918216179091556006805482166001600160a01b03878116919091179091556005805490921690851617905561011a6102a1565b61012590600a610628565b60085550505f6009555061069c945050505050565b5f80826001600160a01b0316637158da7c6040518163ffffffff1660e01b8152600401602060405180830381865afa158015610178573d5f803e3d5ffd5b505050506040513d601f19601f8201168201806040525081019061019c919061063d565b90506001600160a01b0381166101c557604051639220afc960e01b815260040160405180910390fd5b92915050565b60408051600481526024810182526020810180516001600160e01b031663313ce56760e01b17905290515f918291829182916001600160a01b0387169161021191610656565b5f60405180830381855afa9150503d805f8114610249576040519150601f19603f3d011682016040523d82523d5f602084013e61024e565b606091505b509150915081801561026257506020815110155b15610295575f8180602001905181019061027c919061066c565b905060ff8111610293576001969095509350505050565b505b505f9485945092505050565b5f8060a0516102b09190610683565b905090565b80516001600160a01b03811681146102cb575f80fd5b919050565b634e487b7160e01b5f52604160045260245ffd5b5f82601f8301126102f3575f80fd5b81516001600160401b0381111561030c5761030c6102d0565b604051601f8201601f19908116603f011681016001600160401b038111828210171561033a5761033a6102d0565b604052818152838201602001851015610351575f80fd5b8160208501602083015e5f918101602001919091529392505050565b5f805f8060808587031215610380575f80fd5b610389856102b5565b9350610397602086016102b5565b60408601519093506001600160401b038111156103b2575f80fd5b6103be878288016102e4565b606087015190935090506001600160401b038111156103db575f80fd5b6103e7878288016102e4565b91505092959194509250565b600181811c9082168061040757607f821691505b60208210810361042557634e487b7160e01b5f52602260045260245ffd5b50919050565b601f82111561047257805f5260205f20601f840160051c810160208510156104505750805b601f840160051c820191505b8181101561046f575f815560010161045c565b50505b505050565b81516001600160401b03811115610490576104906102d0565b6104a48161049e84546103f3565b8461042b565b6020601f8211600181146104d6575f83156104bf5750848201515b5f19600385901b1c1916600184901b17845561046f565b5f84815260208120601f198516915b8281101561050557878501518255602094850194600190920191016104e5565b508482101561052257868401515f19600387901b60f8161c191681555b50505050600190811b01905550565b634e487b7160e01b5f52601160045260245ffd5b6001815b60018411156105805780850481111561056457610564610531565b600184161561057257908102905b60019390931c928002610549565b935093915050565b5f82610596575060016101c5565b816105a257505f6101c5565b81600181146105b857600281146105c2576105de565b60019150506101c5565b60ff8411156105d3576105d3610531565b50506001821b6101c5565b5060208310610133831016604e8410600b8410161715610601575081810a6101c5565b61060d5f198484610545565b805f190482111561062057610620610531565b029392505050565b5f61063660ff841683610588565b9392505050565b5f6020828403121561064d575f80fd5b610636826102b5565b5f82518060208501845e5f920191825250919050565b5f6020828403121561067c575f80fd5b5051919050565b60ff81811683821601908111156101c5576101c5610531565b60805160a051611ccc6106d25f395f610b8101525f818161032f0152818161081f0152818161084e01526111010152611ccc5ff3fe608060405234801561000f575f80fd5b5060043610610229575f3560e01c806379502c551161012a578063ba087652116100b4578063d905777e11610079578063d905777e146104bf578063dd62ed3e146104d2578063e66f53b71461050a578063ef8b30f71461051d578063fabd034114610530575f80fd5b8063ba08765214610473578063c63d75b614610367578063c6e6f59214610486578063ce96cb7714610499578063d5f39488146104ac575f80fd5b8063992a7dfb116100fa578063992a7dfb14610400578063a9059cbb14610432578063aa9d3a6014610445578063b3d7f6b91461044d578063b460af9414610460575f80fd5b806379502c55146103dc57806387269729146103ef57806394bf804d1461038e57806395d89b41146103f8575f80fd5b806318160ddd116101b6578063402d267d1161017b578063402d267d146103675780634cdad5061461037b5780636e553f651461038e57806370a08231146103a1578063745400c9146103c9575f80fd5b806318160ddd146102f057806323b872dd146102f8578063313ce5671461030b57806333fdc5921461032557806338d52e0f1461032d575f80fd5b8063095ea7b3116101fc578063095ea7b3146102815780630a28a477146102a45780630d1e6667146102b757806316b60249146102ca5780631765b313146102dd575f80fd5b806301e1d1141461022d57806306fdde031461024457806307a2d13a14610259578063089d600d1461026c575b5f80fd5b6009545b6040519081526020015b60405180910390f35b61024c610543565b60405161023b9190611855565b61023161026736600461188a565b6105d3565b61027f61027a3660046118a1565b6105fb565b005b61029461028f366004611929565b6107de565b604051901515815260200161023b565b6102316102b236600461188a565b6107f5565b61027f6102c536600461188a565b610801565b61027f6102d836600461188a565b6109e1565b61027f6102eb36600461188a565b610aab565b600254610231565b610294610306366004611953565b610b55565b610313610b7a565b60405160ff909116815260200161023b565b61027f610baa565b7f00000000000000000000000000000000000000000000000000000000000000005b6040516001600160a01b03909116815260200161023b565b610231610375366004611991565b505f1990565b61023161038936600461188a565b610db8565b61023161039c3660046119ac565b610dc3565b6102316103af366004611991565b6001600160a01b03165f9081526020819052604090205490565b61027f6103d736600461188a565b610ddd565b60055461034f906001600160a01b031681565b61023160085481565b61024c610efd565b61041361040e36600461188a565b610f0c565b604080516001600160a01b03909316835260208301919091520161023b565b610294610440366004611929565b610f42565b61027f610f4f565b61023161045b36600461188a565b611202565b61023161046e3660046119da565b61120e565b6102316104813660046119da565b611227565b61023161049436600461188a565b611241565b6102316104a7366004611991565b611258565b60075461034f906001600160a01b031681565b6102316104cd366004611991565b61127a565b6102316104e0366004611a19565b6001600160a01b039182165f90815260016020908152604080832093909416825291909152205490565b60065461034f906001600160a01b031681565b61023161052b36600461188a565b611297565b61041361053e36600461188a565b6112a2565b60606003805461055290611a45565b80601f016020809104026020016040519081016040528092919081815260200182805461057e90611a45565b80156105c95780601f106105a0576101008083540402835291602001916105c9565b820191905f5260205f20905b8154815290600101906020018083116105ac57829003601f168201915b5050505050905090565b5f670de0b6b3a7640000600854836105eb9190611a91565b6105f59190611abc565b92915050565b6006546001600160a01b03163314610626576040516356b381a560e01b815260040160405180910390fd5b5f81900361064757604051631121aa8d60e01b815260040160405180910390fd5b5f5b8181101561069e575f600c8185858581811061066757610667611acf565b61067d9260206040909202019081019150611991565b6001600160a01b0316815260208101919091526040015f2055600101610649565b505f5b818110156107af575f8383838181106106bc576106bc611acf565b6106d29260206040909202019081019150611991565b90505f8484848181106106e7576106e7611acf565b60055460408051633af32abf60e01b81526001600160a01b03888116600483015293909102949094016020013594501691633af32abf9150602401602060405180830381865afa15801561073d573d5f803e3d5ffd5b505050506040513d601f19601f820116820180604052508101906107619190611ae3565b61078e5760405163751dff9760e11b81526001600160a01b03831660048201526024015b60405180910390fd5b6001600160a01b039091165f908152600c60205260409020556001016106a1565b5060405133907f2d47a742b8d7df7c1fc5a9a631b206b364e6cb2722490759f63bb3ab14b132e0905f90a25050565b5f336107eb8185856112b1565b5060019392505050565b5f6105f58260016112c3565b805f0361084c57604051636b30633560e01b81526001600160a01b037f0000000000000000000000000000000000000000000000000000000000000000166004820152602401610785565b7f00000000000000000000000000000000000000000000000000000000000000006040516323b872dd60e01b8152336004820152306024820152604481018390526001600160a01b0391909116906323b872dd906064016020604051808303815f875af11580156108bf573d5f803e3d5ffd5b505050506040513d601f19601f820116820180604052508101906108e39190611ae3565b610900576040516312171d8360e31b815260040160405180910390fd5b604080518082019091523380825260208201838152600a8054600180820183555f83905294517fc65a7bb8d6351c1cf70c95a316cc6a92839c986682d98bc35f958f4883f9d2a8600290920291820180546001600160a01b0319166001600160a01b0390921691909117905591517fc65a7bb8d6351c1cf70c95a316cc6a92839c986682d98bc35f958f4883f9d2a9909201919091555490917f03979a8c481a9e9c06938045cfd5c28535255cb003b10a8fe84ebb3cb4d440f29184916109c691611b02565b6040805192835260208301919091520160405180910390a250565b60055f9054906101000a90046001600160a01b03166001600160a01b031663348ec5c86040518163ffffffff1660e01b8152600401602060405180830381865afa158015610a31573d5f803e3d5ffd5b505050506040513d601f19601f82011682018060405250810190610a559190611b15565b6001600160a01b0316336001600160a01b031614610a865760405163efb380d960e01b815260040160405180910390fd5b805f03610aa657604051634dfba02360e01b815260040160405180910390fd5b600855565b60055f9054906101000a90046001600160a01b03166001600160a01b031663348ec5c86040518163ffffffff1660e01b8152600401602060405180830381865afa158015610afb573d5f803e3d5ffd5b505050506040513d601f19601f82011682018060405250810190610b1f9190611b15565b6001600160a01b0316336001600160a01b031614610b505760405163efb380d960e01b815260040160405180910390fd5b600955565b5f33610b628582856112f6565b610b6d858585611372565b60019150505b9392505050565b5f610ba5817f0000000000000000000000000000000000000000000000000000000000000000611b30565b905090565b60055f9054906101000a90046001600160a01b03166001600160a01b0316633a0dad8e6040518163ffffffff1660e01b8152600401602060405180830381865afa158015610bfa573d5f803e3d5ffd5b505050506040513d601f19601f82011682018060405250810190610c1e9190611b15565b6001600160a01b0316336001600160a01b031614610c4f57604051631af2ab4f60e31b815260040160405180910390fd5b610c576113cf565b5f5b600a54811015610dad575f600a8281548110610c7757610c77611acf565b905f5260205f20906002020190505f610c938260010154611297565b600a805491925090610ca790600190611b02565b81548110610cb757610cb7611acf565b905f5260205f209060020201600a8481548110610cd657610cd6611acf565b5f9182526020909120825460029092020180546001600160a01b0319166001600160a01b03909216919091178155600191820154910155600a805480610d1e57610d1e611b49565b5f8281526020812060025f199093019283020180546001600160a01b03191681556001015590558154610d5a906001600160a01b03168261143c565b8154600183015460408051918252602082018690526001600160a01b03909216917f782ea2005b7f873a0190a1ccb553c732171348d6e16d2b7d3d493c0677dc296e910160405180910390a25050610c59565b50610db6611474565b565b5f6105f5825f61149e565b5f6040516318f2e47360e11b815260040160405180910390fd5b805f03610dfd576040516314e6cbb960e11b815260040160405180910390fd5b335f90815260208190526040902054811115610e2c57604051633c57b48560e21b815260040160405180910390fd5b610e37333083611372565b604080518082019091523380825260208201838152600b8054600180820183555f83905294517f0175b7a638427703f0dbe7bb9bbf987a2551717b34e79f33b5b1008d1fa01db9600290920291820180546001600160a01b0319166001600160a01b0390921691909117905591517f0175b7a638427703f0dbe7bb9bbf987a2551717b34e79f33b5b1008d1fa01dba909201919091555490917fd72eb5d043f24a0168ae744d5c44f9596fd673a26bf74d9646bff4b844882d149184916109c691611b02565b60606004805461055290611a45565b600b8181548110610f1b575f80fd5b5f918252602090912060029091020180546001909101546001600160a01b03909116915082565b5f336107eb818585611372565b60055f9054906101000a90046001600160a01b03166001600160a01b0316633a0dad8e6040518163ffffffff1660e01b8152600401602060405180830381865afa158015610f9f573d5f803e3d5ffd5b505050506040513d601f19601f82011682018060405250810190610fc39190611b15565b6001600160a01b0316336001600160a01b031614610ff457604051631af2ab4f60e31b815260040160405180910390fd5b610ffc6113cf565b5f5b600b54811015610dad575f600b828154811061101c5761101c611acf565b905f5260205f2090600202019050600b6001600b8054905061103e9190611b02565b8154811061104e5761104e611acf565b905f5260205f209060020201600b838154811061106d5761106d611acf565b5f9182526020909120825460029092020180546001600160a01b0319166001600160a01b03909216919091178155600191820154910155600b8054806110b5576110b5611b49565b5f8281526020812060025f199093019283020180546001600160a01b031916815560019081019190915591558101546110ef9030906114ce565b5f6110fd8260010154610db8565b90507f0000000000000000000000000000000000000000000000000000000000000000825460405163a9059cbb60e01b81526001600160a01b0391821660048201526024810184905291169063a9059cbb906044016020604051808303815f875af115801561116e573d5f803e3d5ffd5b505050506040513d601f19601f820116820180604052508101906111929190611ae3565b6111af576040516312171d8360e31b815260040160405180910390fd5b8154600183015460408051918252602082018690526001600160a01b03909216917febad37b830b1857ef9af5983fc20dc0ded12dc472ba1e22e06fd3a9465b4506c910160405180910390a25050610ffe565b5f6105f582600161149e565b5f604051628a595160e01b815260040160405180910390fd5b5f604051630ad8521960e31b815260040160405180910390fd5b6008545f906105eb83670de0b6b3a7640000611a91565b6001600160a01b0381165f908152602081905260408120546105f5905f61149e565b6001600160a01b0381165f908152602081905260408120546105f5565b5f6105f5825f6112c3565b600a8181548110610f1b575f80fd5b6112be8383836001611502565b505050565b5f610b736112d282600a611c40565b6002546112df9190611c4e565b6009546112ed906001611c4e565b859190856115d4565b6001600160a01b038381165f908152600160209081526040808320938616835292905220545f1981101561136c578181101561135e57604051637dc7a0d960e11b81526001600160a01b03841660048201526024810182905260448101839052606401610785565b61136c84848484035f611502565b50505050565b6001600160a01b03831661139b57604051634b637e8f60e11b81525f6004820152602401610785565b6001600160a01b0382166113c45760405163ec442f0560e01b81525f6004820152602401610785565b6112be83838361161f565b7f9b779b17422d0df92223018b32b4d1fa46e071723d6817e2486d003becc55f005c1561140f57604051633ee5aeb560e01b815260040160405180910390fd5b610db660017f9b779b17422d0df92223018b32b4d1fa46e071723d6817e2486d003becc55f005b90611745565b6001600160a01b0382166114655760405163ec442f0560e01b81525f6004820152602401610785565b6114705f838361161f565b5050565b610db65f7f9b779b17422d0df92223018b32b4d1fa46e071723d6817e2486d003becc55f00611436565b5f610b736114ab60095490565b6114b6906001611c4e565b6114c15f600a611c40565b6002546112ed9190611c4e565b6001600160a01b0382166114f757604051634b637e8f60e11b81525f6004820152602401610785565b611470825f8361161f565b6001600160a01b03841661152b5760405163e602df0560e01b81525f6004820152602401610785565b6001600160a01b03831661155457604051634a1406b160e11b81525f6004820152602401610785565b6001600160a01b038085165f908152600160209081526040808320938716835292905220829055801561136c57826001600160a01b0316846001600160a01b03167f8c5be1e5ebec7d5bd14f71427d1e84f3dd0314c0f7b2291e5b200ac8c7c3b925846040516115c691815260200190565b60405180910390a350505050565b5f6116016115e18361174c565b80156115fc57505f84806115f7576115f7611aa8565b868809115b151590565b61160c868686611778565b6116169190611c4e565b95945050505050565b6001600160a01b038316611649578060025f82825461163e9190611c4e565b909155506116b99050565b6001600160a01b0383165f908152602081905260409020548181101561169b5760405163391434e360e21b81526001600160a01b03851660048201526024810182905260448101839052606401610785565b6001600160a01b0384165f9081526020819052604090209082900390555b6001600160a01b0382166116d5576002805482900390556116f3565b6001600160a01b0382165f9081526020819052604090208054820190555b816001600160a01b0316836001600160a01b03167fddf252ad1be2c89b69c2b068fc378daa952ba7f163c4a11628f55a4df523b3ef8360405161173891815260200190565b60405180910390a3505050565b80825d5050565b5f600282600381111561176157611761611c61565b61176b9190611c75565b60ff166001149050919050565b5f805f6117858686611828565b91509150815f036117a95783818161179f5761179f611aa8565b0492505050610b73565b8184116117c0576117c06003851502601118611844565b5f848688095f868103871696879004966002600389028118808a02820302808a02820302808a02820302808a02820302808a02820302808a02909103029181900381900460010185841190960395909502919093039390930492909217029150509392505050565b5f805f1983850993909202808410938190039390930393915050565b634e487b715f52806020526024601cfd5b602081525f82518060208401528060208501604085015e5f604082850101526040601f19601f83011684010191505092915050565b5f6020828403121561189a575f80fd5b5035919050565b5f80602083850312156118b2575f80fd5b823567ffffffffffffffff8111156118c8575f80fd5b8301601f810185136118d8575f80fd5b803567ffffffffffffffff8111156118ee575f80fd5b8560208260061b8401011115611902575f80fd5b6020919091019590945092505050565b6001600160a01b0381168114611926575f80fd5b50565b5f806040838503121561193a575f80fd5b823561194581611912565b946020939093013593505050565b5f805f60608486031215611965575f80fd5b833561197081611912565b9250602084013561198081611912565b929592945050506040919091013590565b5f602082840312156119a1575f80fd5b8135610b7381611912565b5f80604083850312156119bd575f80fd5b8235915060208301356119cf81611912565b809150509250929050565b5f805f606084860312156119ec575f80fd5b8335925060208401356119fe81611912565b91506040840135611a0e81611912565b809150509250925092565b5f8060408385031215611a2a575f80fd5b8235611a3581611912565b915060208301356119cf81611912565b600181811c90821680611a5957607f821691505b602082108103611a7757634e487b7160e01b5f52602260045260245ffd5b50919050565b634e487b7160e01b5f52601160045260245ffd5b80820281158282048414176105f5576105f5611a7d565b634e487b7160e01b5f52601260045260245ffd5b5f82611aca57611aca611aa8565b500490565b634e487b7160e01b5f52603260045260245ffd5b5f60208284031215611af3575f80fd5b81518015158114610b73575f80fd5b818103818111156105f5576105f5611a7d565b5f60208284031215611b25575f80fd5b8151610b7381611912565b60ff81811683821601908111156105f5576105f5611a7d565b634e487b7160e01b5f52603160045260245ffd5b6001815b6001841115611b9857808504811115611b7c57611b7c611a7d565b6001841615611b8a57908102905b60019390931c928002611b61565b935093915050565b5f82611bae575060016105f5565b81611bba57505f6105f5565b8160018114611bd05760028114611bda57611bf6565b60019150506105f5565b60ff841115611beb57611beb611a7d565b50506001821b6105f5565b5060208310610133831016604e8410600b8410161715611c19575081810a6105f5565b611c255f198484611b5d565b805f1904821115611c3857611c38611a7d565b029392505050565b5f610b7360ff841683611ba0565b808201808211156105f5576105f5611a7d565b634e487b7160e01b5f52602160045260245ffd5b5f60ff831680611c8757611c87611aa8565b8060ff8416069150509291505056fea264697066735822122040cf746a7f3845c72db6058817e1a8b1cf66868bb346d106a2687cf3d467f19564736f6c634300081a003360c060405234801561000f575f80fd5b5060405161263338038061263383398101604081905261002e9161036d565b8383838361003b8361013a565b828260036100498382610477565b5060046100568282610477565b5050505f8061006a836101cb60201b60201c565b915091508161007a57601261007c565b805b60ff1660a05250506001600160a01b0390811660805284166100b157604051639c6bb9f560e01b815260040160405180910390fd5b6001600160a01b0383166100d857604051636a485a5b60e11b815260040160405180910390fd5b60078054336001600160a01b0319918216179091556006805482166001600160a01b03878116919091179091556005805490921690851617905561011a6102a1565b61012590600a610628565b60085550505f6009555061069c945050505050565b5f80826001600160a01b0316637158da7c6040518163ffffffff1660e01b8152600401602060405180830381865afa158015610178573d5f803e3d5ffd5b505050506040513d601f19601f8201168201806040525081019061019c919061063d565b90506001600160a01b0381166101c557604051639220afc960e01b815260040160405180910390fd5b92915050565b60408051600481526024810182526020810180516001600160e01b031663313ce56760e01b17905290515f918291829182916001600160a01b0387169161021191610656565b5f60405180830381855afa9150503d805f8114610249576040519150601f19603f3d011682016040523d82523d5f602084013e61024e565b606091505b509150915081801561026257506020815110155b15610295575f8180602001905181019061027c919061066c565b905060ff8111610293576001969095509350505050565b505b505f9485945092505050565b5f8060a0516102b09190610683565b905090565b80516001600160a01b03811681146102cb575f80fd5b919050565b634e487b7160e01b5f52604160045260245ffd5b5f82601f8301126102f3575f80fd5b81516001600160401b0381111561030c5761030c6102d0565b604051601f8201601f19908116603f011681016001600160401b038111828210171561033a5761033a6102d0565b604052818152838201602001851015610351575f80fd5b8160208501602083015e5f918101602001919091529392505050565b5f805f8060808587031215610380575f80fd5b610389856102b5565b9350610397602086016102b5565b60408601519093506001600160401b038111156103b2575f80fd5b6103be878288016102e4565b606087015190935090506001600160401b038111156103db575f80fd5b6103e7878288016102e4565b91505092959194509250565b600181811c9082168061040757607f821691505b60208210810361042557634e487b7160e01b5f52602260045260245ffd5b50919050565b601f82111561047257805f5260205f20601f840160051c810160208510156104505750805b601f840160051c820191505b8181101561046f575f815560010161045c565b50505b505050565b81516001600160401b03811115610490576104906102d0565b6104a48161049e84546103f3565b8461042b565b6020601f8211600181146104d6575f83156104bf5750848201515b5f19600385901b1c1916600184901b17845561046f565b5f84815260208120601f198516915b8281101561050557878501518255602094850194600190920191016104e5565b508482101561052257868401515f19600387901b60f8161c191681555b50505050600190811b01905550565b634e487b7160e01b5f52601160045260245ffd5b6001815b60018411156105805780850481111561056457610564610531565b600184161561057257908102905b60019390931c928002610549565b935093915050565b5f82610596575060016101c5565b816105a257505f6101c5565b81600181146105b857600281146105c2576105de565b60019150506101c5565b60ff8411156105d3576105d3610531565b50506001821b6101c5565b5060208310610133831016604e8410600b8410161715610601575081810a6101c5565b61060d5f198484610545565b805f190482111561062057610620610531565b029392505050565b5f61063660ff841683610588565b9392505050565b5f6020828403121561064d575f80fd5b610636826102b5565b5f82518060208501845e5f920191825250919050565b5f6020828403121561067c575f80fd5b5051919050565b60ff81811683821601908111156101c5576101c5610531565b60805160a051611f616106d25f395f6109a301525f818161031c0152818161063c015281816106700152610f230152611f615ff3fe608060405234801561000f575f80fd5b5060043610610229575f3560e01c8063872697291161012a578063c63d75b6116100b4578063dd62ed3e11610079578063dd62ed3e146104bf578063e66f53b7146104f7578063ef8b30f71461050a578063fabd03411461051d578063fb12251b14610530575f80fd5b8063c63d75b614610354578063c6e6f59214610473578063ce96cb7714610486578063d5f3948814610499578063d905777e146104ac575f80fd5b8063a9059cbb116100fa578063a9059cbb1461041f578063aa9d3a6014610432578063b3d7f6b91461043a578063b460af941461044d578063ba08765214610460575f80fd5b806387269729146103dc57806394bf804d1461037b57806395d89b41146103e5578063992a7dfb146103ed575f80fd5b806323b872dd116101b65780634cdad5061161017b5780634cdad506146103685780636e553f651461037b57806370a082311461038e578063745400c9146103b657806379502c55146103c9575f80fd5b806323b872dd146102e5578063313ce567146102f857806333fdc5921461031257806338d52e0f1461031a578063402d267d14610354575f80fd5b80630a28a477116101fc5780630a28a4771461028f5780630d1e6667146102a257806316b60249146102b75780631765b313146102ca57806318160ddd146102dd575f80fd5b806301e1d1141461022d57806306fdde031461024457806307a2d13a14610259578063095ea7b31461026c575b5f80fd5b6009545b6040519081526020015b60405180910390f35b61024c610543565b60405161023b9190611aaa565b610231610267366004611adf565b6105d3565b61027f61027a366004611b0a565b6105fb565b604051901515815260200161023b565b61023161029d366004611adf565b610612565b6102b56102b0366004611adf565b61061e565b005b6102b56102c5366004611adf565b610803565b6102b56102d8366004611adf565b6108cd565b600254610231565b61027f6102f3366004611b34565b610977565b61030061099c565b60405160ff909116815260200161023b565b6102b56109cc565b7f00000000000000000000000000000000000000000000000000000000000000005b6040516001600160a01b03909116815260200161023b565b610231610362366004611b72565b505f1990565b610231610376366004611adf565b610bda565b610231610389366004611b8d565b610be5565b61023161039c366004611b72565b6001600160a01b03165f9081526020819052604090205490565b6102b56103c4366004611adf565b610bff565b60055461033c906001600160a01b031681565b61023160085481565b61024c610d1f565b6104006103fb366004611adf565b610d2e565b604080516001600160a01b03909316835260208301919091520161023b565b61027f61042d366004611b0a565b610d64565b6102b5610d71565b610231610448366004611adf565b611024565b61023161045b366004611bbb565b611030565b61023161046e366004611bbb565b611049565b610231610481366004611adf565b611063565b610231610494366004611b72565b61107a565b60075461033c906001600160a01b031681565b6102316104ba366004611b72565b61109c565b6102316104cd366004611bfa565b6001600160a01b039182165f90815260016020908152604080832093909416825291909152205490565b60065461033c906001600160a01b031681565b610231610518366004611adf565b6110b9565b61040061052b366004611adf565b6110c4565b6102b561053e366004611c26565b6110d3565b60606003805461055290611c97565b80601f016020809104026020016040519081016040528092919081815260200182805461057e90611c97565b80156105c95780601f106105a0576101008083540402835291602001916105c9565b820191905f5260205f20905b8154815290600101906020018083116105ac57829003601f168201915b5050505050905090565b5f670de0b6b3a7640000600854836105eb9190611ce3565b6105f59190611d0e565b92915050565b5f3361060881858561137b565b5060019392505050565b5f6105f582600161138d565b805f0361066e57604051636b30633560e01b81526001600160a01b037f00000000000000000000000000000000000000000000000000000000000000001660048201526024015b60405180910390fd5b7f00000000000000000000000000000000000000000000000000000000000000006040516323b872dd60e01b8152336004820152306024820152604481018390526001600160a01b0391909116906323b872dd906064016020604051808303815f875af11580156106e1573d5f803e3d5ffd5b505050506040513d601f19601f820116820180604052508101906107059190611d21565b610722576040516312171d8360e31b815260040160405180910390fd5b604080518082019091523380825260208201838152600a8054600180820183555f83905294517fc65a7bb8d6351c1cf70c95a316cc6a92839c986682d98bc35f958f4883f9d2a8600290920291820180546001600160a01b0319166001600160a01b0390921691909117905591517fc65a7bb8d6351c1cf70c95a316cc6a92839c986682d98bc35f958f4883f9d2a9909201919091555490917f03979a8c481a9e9c06938045cfd5c28535255cb003b10a8fe84ebb3cb4d440f29184916107e891611d40565b6040805192835260208301919091520160405180910390a250565b60055f9054906101000a90046001600160a01b03166001600160a01b031663348ec5c86040518163ffffffff1660e01b8152600401602060405180830381865afa158015610853573d5f803e3d5ffd5b505050506040513d601f19601f820116820180604052508101906108779190611d53565b6001600160a01b0316336001600160a01b0316146108a85760405163efb380d960e01b815260040160405180910390fd5b805f036108c857604051634dfba02360e01b815260040160405180910390fd5b600855565b60055f9054906101000a90046001600160a01b03166001600160a01b031663348ec5c86040518163ffffffff1660e01b8152600401602060405180830381865afa15801561091d573d5f803e3d5ffd5b505050506040513d601f19601f820116820180604052508101906109419190611d53565b6001600160a01b0316336001600160a01b0316146109725760405163efb380d960e01b815260040160405180910390fd5b600955565b5f336109848582856113c0565b61098f85858561143c565b60019150505b9392505050565b5f6109c7817f0000000000000000000000000000000000000000000000000000000000000000611d6e565b905090565b60055f9054906101000a90046001600160a01b03166001600160a01b0316633a0dad8e6040518163ffffffff1660e01b8152600401602060405180830381865afa158015610a1c573d5f803e3d5ffd5b505050506040513d601f19601f82011682018060405250810190610a409190611d53565b6001600160a01b0316336001600160a01b031614610a7157604051631af2ab4f60e31b815260040160405180910390fd5b610a79611499565b5f5b600a54811015610bcf575f600a8281548110610a9957610a99611d87565b905f5260205f20906002020190505f610ab582600101546110b9565b600a805491925090610ac990600190611d40565b81548110610ad957610ad9611d87565b905f5260205f209060020201600a8481548110610af857610af8611d87565b5f9182526020909120825460029092020180546001600160a01b0319166001600160a01b03909216919091178155600191820154910155600a805480610b4057610b40611d9b565b5f8281526020812060025f199093019283020180546001600160a01b03191681556001015590558154610b7c906001600160a01b031682611506565b8154600183015460408051918252602082018690526001600160a01b03909216917f782ea2005b7f873a0190a1ccb553c732171348d6e16d2b7d3d493c0677dc296e910160405180910390a25050610a7b565b50610bd861153e565b565b5f6105f5825f611568565b5f6040516318f2e47360e11b815260040160405180910390fd5b805f03610c1f576040516314e6cbb960e11b815260040160405180910390fd5b335f90815260208190526040902054811115610c4e57604051633c57b48560e21b815260040160405180910390fd5b610c5933308361143c565b604080518082019091523380825260208201838152600b8054600180820183555f83905294517f0175b7a638427703f0dbe7bb9bbf987a2551717b34e79f33b5b1008d1fa01db9600290920291820180546001600160a01b0319166001600160a01b0390921691909117905591517f0175b7a638427703f0dbe7bb9bbf987a2551717b34e79f33b5b1008d1fa01dba909201919091555490917fd72eb5d043f24a0168ae744d5c44f9596fd673a26bf74d9646bff4b844882d149184916107e891611d40565b60606004805461055290611c97565b600b8181548110610d3d575f80fd5b5f918252602090912060029091020180546001909101546001600160a01b03909116915082565b5f3361060881858561143c565b60055f9054906101000a90046001600160a01b03166001600160a01b0316633a0dad8e6040518163ffffffff1660e01b8152600401602060405180830381865afa158015610dc1573d5f803e3d5ffd5b505050506040513d601f19601f82011682018060405250810190610de59190611d53565b6001600160a01b0316336001600160a01b031614610e1657604051631af2ab4f60e31b815260040160405180910390fd5b610e1e611499565b5f5b600b54811015610bcf575f600b8281548110610e3e57610e3e611d87565b905f5260205f2090600202019050600b6001600b80549050610e609190611d40565b81548110610e7057610e70611d87565b905f5260205f209060020201600b8381548110610e8f57610e8f611d87565b5f9182526020909120825460029092020180546001600160a01b0319166001600160a01b03909216919091178155600191820154910155600b805480610ed757610ed7611d9b565b5f8281526020812060025f199093019283020180546001600160a01b03191681556001908101919091559155810154610f11903090611598565b5f610f1f8260010154610bda565b90507f0000000000000000000000000000000000000000000000000000000000000000825460405163a9059cbb60e01b81526001600160a01b0391821660048201526024810184905291169063a9059cbb906044016020604051808303815f875af1158015610f90573d5f803e3d5ffd5b505050506040513d601f19601f82011682018060405250810190610fb49190611d21565b610fd1576040516312171d8360e31b815260040160405180910390fd5b8154600183015460408051918252602082018690526001600160a01b03909216917febad37b830b1857ef9af5983fc20dc0ded12dc472ba1e22e06fd3a9465b4506c910160405180910390a25050610e20565b5f6105f5826001611568565b5f604051628a595160e01b815260040160405180910390fd5b5f604051630ad8521960e31b815260040160405180910390fd5b6008545f906105eb83670de0b6b3a7640000611ce3565b6001600160a01b0381165f908152602081905260408120546105f5905f611568565b6001600160a01b0381165f908152602081905260408120546105f5565b5f6105f5825f61138d565b600a8181548110610d3d575f80fd5b6006546001600160a01b031633146110fe576040516356b381a560e01b815260040160405180910390fd5b5f81900361111f57604051631121aa8d60e01b815260040160405180910390fd5b611129600c6115cc565b5f805b828110156112b3575f84848381811061114757611147611d87565b61115d9260206040909202019081019150611b72565b90505f85858481811061117257611172611d87565b905060400201602001602081019061118a9190611daf565b600554604051633af32abf60e01b81526001600160a01b038581166004830152929350911690633af32abf90602401602060405180830381865afa1580156111d4573d5f803e3d5ffd5b505050506040513d601f19601f820116820180604052508101906111f89190611d21565b6112205760405163751dff9760e11b81526001600160a01b0383166004820152602401610665565b8063ffffffff165f0361125157604051636b30633560e01b81526001600160a01b0383166004820152602401610665565b5f611267600c8463ffffffff808616906115d816565b905080611292576040516346bdabe160e01b81526001600160a01b0384166004820152602401610665565b6112a263ffffffff831686611dd2565b9450506001909201915061112c9050565b506005546040805163d1717c7d60e01b815290515f926001600160a01b03169163d1717c7d9160048083019260209291908290030181865afa1580156112fb573d5f803e3d5ffd5b505050506040513d601f19601f8201168201806040525081019061131f9190611de5565b905061132c81600a611ee8565b821461134b576040516324204a3560e21b815260040160405180910390fd5b60405133907f2d47a742b8d7df7c1fc5a9a631b206b364e6cb2722490759f63bb3ab14b132e0905f90a250505050565b61138883838360016115f5565b505050565b5f61099561139c82600a611ee8565b6002546113a99190611dd2565b6009546113b7906001611dd2565b859190856116c7565b6001600160a01b038381165f908152600160209081526040808320938616835292905220545f19811015611436578181101561142857604051637dc7a0d960e11b81526001600160a01b03841660048201526024810182905260448101839052606401610665565b61143684848484035f6115f5565b50505050565b6001600160a01b03831661146557604051634b637e8f60e11b81525f6004820152602401610665565b6001600160a01b03821661148e5760405163ec442f0560e01b81525f6004820152602401610665565b611388838383611712565b7f9b779b17422d0df92223018b32b4d1fa46e071723d6817e2486d003becc55f005c156114d957604051633ee5aeb560e01b815260040160405180910390fd5b610bd860017f9b779b17422d0df92223018b32b4d1fa46e071723d6817e2486d003becc55f005b90611838565b6001600160a01b03821661152f5760405163ec442f0560e01b81525f6004820152602401610665565b61153a5f8383611712565b5050565b610bd85f7f9b779b17422d0df92223018b32b4d1fa46e071723d6817e2486d003becc55f00611500565b5f61099561157560095490565b611580906001611dd2565b61158b5f600a611ee8565b6002546113b79190611dd2565b6001600160a01b0382166115c157604051634b637e8f60e11b81525f6004820152602401610665565b61153a825f83611712565b6115d58161183f565b50565b5f6115ed846001600160a01b03851684611888565b949350505050565b6001600160a01b03841661161e5760405163e602df0560e01b81525f6004820152602401610665565b6001600160a01b03831661164757604051634a1406b160e11b81525f6004820152602401610665565b6001600160a01b038085165f908152600160209081526040808320938716835292905220829055801561143657826001600160a01b0316846001600160a01b03167f8c5be1e5ebec7d5bd14f71427d1e84f3dd0314c0f7b2291e5b200ac8c7c3b925846040516116b991815260200190565b60405180910390a350505050565b5f6116f46116d4836118a4565b80156116ef57505f84806116ea576116ea611cfa565b868809115b151590565b6116ff8686866118d0565b6117099190611dd2565b95945050505050565b6001600160a01b03831661173c578060025f8282546117319190611dd2565b909155506117ac9050565b6001600160a01b0383165f908152602081905260409020548181101561178e5760405163391434e360e21b81526001600160a01b03851660048201526024810182905260448101839052606401610665565b6001600160a01b0384165f9081526020819052604090209082900390555b6001600160a01b0382166117c8576002805482900390556117e6565b6001600160a01b0382165f9081526020819052604090208054820190555b816001600160a01b0316836001600160a01b03167fddf252ad1be2c89b69c2b068fc378daa952ba7f163c4a11628f55a4df523b3ef8360405161182b91815260200190565b60405180910390a3505050565b80825d5050565b5f61184982611980565b90505f5b8181101561187e57600283015f611864858461198a565b815260208101919091526040015f9081205560010161184d565b5061153a82611995565b5f82815260028401602052604081208290556115ed848461199e565b5f60028260038111156118b9576118b9611ef6565b6118c39190611f0a565b60ff166001149050919050565b5f805f6118dd86866119a9565b91509150815f03611901578381816118f7576118f7611cfa565b0492505050610995565b8184116119185761191860038515026011186119c5565b5f848688095f868103871696879004966002600389028118808a02820302808a02820302808a02820302808a02820302808a02820302808a02909103029181900381900460010185841190960395909502919093039390930492909217029150509392505050565b5f6105f5826119d6565b5f61099583836119df565b6115d581611a05565b5f6109958383611a5e565b5f805f1983850993909202808410938190039390930393915050565b634e487b715f52806020526024601cfd5b5f6105f5825490565b5f825f0182815481106119f4576119f4611d87565b905f5260205f200154905092915050565b5f611a0e825490565b90505f5b81811015611a5757826001015f845f018381548110611a3357611a33611d87565b905f5260205f20015481526020019081526020015f205f9055806001019050611a12565b50505f9055565b5f818152600183016020526040812054611aa357508154600181810184555f8481526020808220909301849055845484825282860190935260409020919091556105f5565b505f6105f5565b602081525f82518060208401528060208501604085015e5f604082850101526040601f19601f83011684010191505092915050565b5f60208284031215611aef575f80fd5b5035919050565b6001600160a01b03811681146115d5575f80fd5b5f8060408385031215611b1b575f80fd5b8235611b2681611af6565b946020939093013593505050565b5f805f60608486031215611b46575f80fd5b8335611b5181611af6565b92506020840135611b6181611af6565b929592945050506040919091013590565b5f60208284031215611b82575f80fd5b813561099581611af6565b5f8060408385031215611b9e575f80fd5b823591506020830135611bb081611af6565b809150509250929050565b5f805f60608486031215611bcd575f80fd5b833592506020840135611bdf81611af6565b91506040840135611bef81611af6565b809150509250925092565b5f8060408385031215611c0b575f80fd5b8235611c1681611af6565b91506020830135611bb081611af6565b5f8060208385031215611c37575f80fd5b823567ffffffffffffffff811115611c4d575f80fd5b8301601f81018513611c5d575f80fd5b803567ffffffffffffffff811115611c73575f80fd5b8560208260061b8401011115611c87575f80fd5b6020919091019590945092505050565b600181811c90821680611cab57607f821691505b602082108103611cc957634e487b7160e01b5f52602260045260245ffd5b50919050565b634e487b7160e01b5f52601160045260245ffd5b80820281158282048414176105f5576105f5611ccf565b634e487b7160e01b5f52601260045260245ffd5b5f82611d1c57611d1c611cfa565b500490565b5f60208284031215611d31575f80fd5b81518015158114610995575f80fd5b818103818111156105f5576105f5611ccf565b5f60208284031215611d63575f80fd5b815161099581611af6565b60ff81811683821601908111156105f5576105f5611ccf565b634e487b7160e01b5f52603260045260245ffd5b634e487b7160e01b5f52603160045260245ffd5b5f60208284031215611dbf575f80fd5b813563ffffffff81168114610995575f80fd5b808201808211156105f5576105f5611ccf565b5f60208284031215611df5575f80fd5b815160ff81168114610995575f80fd5b6001815b6001841115611e4057808504811115611e2457611e24611ccf565b6001841615611e3257908102905b60019390931c928002611e09565b935093915050565b5f82611e56575060016105f5565b81611e6257505f6105f5565b8160018114611e785760028114611e8257611e9e565b60019150506105f5565b60ff841115611e9357611e93611ccf565b50506001821b6105f5565b5060208310610133831016604e8410600b8410161715611ec1575081810a6105f5565b611ecd5f198484611e05565b805f1904821115611ee057611ee0611ccf565b029392505050565b5f61099560ff841683611e48565b634e487b7160e01b5f52602160045260245ffd5b5f60ff831680611f1c57611f1c611cfa565b8060ff8416069150509291505056fea264697066735822122032fd9f29872fec7596efa8f01cbd2752ff422bdb825a3610584409737fa04ee464736f6c634300081a0033a26469706673582212202a8de86c7c0c2b3c8ce4c962fe020b84b8649846fc8dd7c3a460b929b55ec92564736f6c634300081a0033",
  "linkReferences": {},
  "deployedLinkReferences": {}
}