{
  "_format": "hh-sol-artifact-1",
  "contractName": "OrionVaultFactory",
  "sourceName": "contracts/OrionVaultFactory.sol",
  "abi": [
    {
      "inputs": [
        {
          "internalType": "address",
          "name": "_config",
          "type": "address"
        }
      ],
      "stateMutability": "nonpayable",
      "type": "constructor"
    },
    {
      "inputs": [],
      "name": "CuratorCannotBeZeroAddress",
      "type": "error"
    },
    {
      "inputs": [],
      "name": "InvalidConfigAddress",
      "type": "error"
    },
    {
      "anonymous": false,
      "inputs": [
        {
          "indexed": true,
          "internalType": "address",
          "name": "vault",
          "type": "address"
        },
        {
          "indexed": true,
          "internalType": "address",
          "name": "curator",
          "type": "address"
        },
        {
          "indexed": true,
          "internalType": "address",
          "name": "deployer",
          "type": "address"
        }
      ],
      "name": "OrionVaultCreated",
      "type": "event"
    },
    {
      "inputs": [],
      "name": "config",
      "outputs": [
        {
          "internalType": "contract OrionConfig",
          "name": "",
          "type": "address"
        }
      ],
      "stateMutability": "view",
      "type": "function"
    },
    {
      "inputs": [
        {
          "internalType": "address",
          "name": "curator",
          "type": "address"
        }
      ],
      "name": "createOrionVault",
      "outputs": [
        {
          "internalType": "address",
          "name": "vault",
          "type": "address"
        }
      ],
      "stateMutability": "nonpayable",
      "type": "function"
    },
    {
      "inputs": [],
      "name": "deployer",
      "outputs": [
        {
          "internalType": "address",
          "name": "",
          "type": "address"
        }
      ],
      "stateMutability": "view",
      "type": "function"
    }
  ],
  "bytecode": "0x6080604052348015600e575f80fd5b50604051612d5b380380612d5b833981016040819052602b916082565b6001600160a01b038116605157604051636a485a5b60e11b815260040160405180910390fd5b5f8054336001600160a01b031991821617909155600180549091166001600160a01b039290921691909117905560ad565b5f602082840312156091575f80fd5b81516001600160a01b038116811460a6575f80fd5b9392505050565b612ca1806100ba5f395ff3fe608060405234801561000f575f80fd5b506004361061003f575f3560e01c806379502c5514610043578063b696a84314610072578063d5f3948814610085575b5f80fd5b600154610056906001600160a01b031681565b6040516001600160a01b03909116815260200160405180910390f35b6100566100803660046101cb565b610097565b5f54610056906001600160a01b031681565b5f6001600160a01b0382166100bf57604051630daae06b60e01b815260040160405180910390fd5b6001546040515f9184916001600160a01b03909116906100de906101be565b6001600160a01b03928316815291166020820152604001604051809103905ff08015801561010e573d5f803e3d5ffd5b509050809150336001600160a01b0316836001600160a01b0316836001600160a01b03167f09e18e9921c715c3cf9c8fb28e131999adde3162277a0139653d677f3a56758e60405160405180910390a460015460405163eb1a5bb960e01b81526001600160a01b0384811660048301529091169063eb1a5bb9906024015f604051808303815f87803b1580156101a2575f80fd5b505af11580156101b4573d5f803e3d5ffd5b5050505050919050565b612a73806101f983390190565b5f602082840312156101db575f80fd5b81356001600160a01b03811681146101f1575f80fd5b939250505056fe60c060405234801561000f575f80fd5b50604051612a73380380612a7383398101604081905261002e9161030e565b61003781610178565b6040518060400160405280601181526020017027b934b7b7102b30bab63a102a37b5b2b760791b815250604051806040016040528060058152602001646f5553444360d81b815250816003908161008e91906103d7565b50600461009b82826103d7565b5050505f806100af8361020960201b60201c565b91509150816100bf5760126100c1565b805b60ff1660a05250506001600160a01b0390811660805282166100f657604051639c6bb9f560e01b815260040160405180910390fd5b6001600160a01b03811661011d57604051636a485a5b60e11b815260040160405180910390fd5b60078054336001600160a01b0319918216179091556006805482166001600160a01b03858116919091179091556005805490921690831617905561015f6102df565b61016a90600a610588565b60085550505f6009556105fc565b5f80826001600160a01b0316637158da7c6040518163ffffffff1660e01b8152600401602060405180830381865afa1580156101b6573d5f803e3d5ffd5b505050506040513d601f19601f820116820180604052508101906101da919061059d565b90506001600160a01b03811661020357604051639220afc960e01b815260040160405180910390fd5b92915050565b60408051600481526024810182526020810180516001600160e01b031663313ce56760e01b17905290515f918291829182916001600160a01b0387169161024f916105b6565b5f60405180830381855afa9150503d805f8114610287576040519150601f19603f3d011682016040523d82523d5f602084013e61028c565b606091505b50915091508180156102a057506020815110155b156102d3575f818060200190518101906102ba91906105cc565b905060ff81116102d1576001969095509350505050565b505b505f9485945092505050565b5f8060a0516102ee91906105e3565b905090565b80516001600160a01b0381168114610309575f80fd5b919050565b5f806040838503121561031f575f80fd5b610328836102f3565b9150610336602084016102f3565b90509250929050565b634e487b7160e01b5f52604160045260245ffd5b600181811c9082168061036757607f821691505b60208210810361038557634e487b7160e01b5f52602260045260245ffd5b50919050565b601f8211156103d257805f5260205f20601f840160051c810160208510156103b05750805b601f840160051c820191505b818110156103cf575f81556001016103bc565b50505b505050565b81516001600160401b038111156103f0576103f061033f565b610404816103fe8454610353565b8461038b565b6020601f821160018114610436575f831561041f5750848201515b5f19600385901b1c1916600184901b1784556103cf565b5f84815260208120601f198516915b828110156104655787850151825560209485019460019092019101610445565b508482101561048257868401515f19600387901b60f8161c191681555b50505050600190811b01905550565b634e487b7160e01b5f52601160045260245ffd5b6001815b60018411156104e0578085048111156104c4576104c4610491565b60018416156104d257908102905b60019390931c9280026104a9565b935093915050565b5f826104f657506001610203565b8161050257505f610203565b816001811461051857600281146105225761053e565b6001915050610203565b60ff84111561053357610533610491565b50506001821b610203565b5060208310610133831016604e8410600b8410161715610561575081810a610203565b61056d5f1984846104a5565b805f190482111561058057610580610491565b029392505050565b5f61059660ff8416836104e8565b9392505050565b5f602082840312156105ad575f80fd5b610596826102f3565b5f82518060208501845e5f920191825250919050565b5f602082840312156105dc575f80fd5b5051919050565b60ff818116838216019081111561020357610203610491565b60805160a05161244861062b5f395f610a5d01525f81816103a6015281816106be015261131401526124485ff3fe608060405234801561000f575f80fd5b506004361061024a575f3560e01c8063745400c911610140578063ba087652116100bf578063d5f3948811610084578063d5f394881461052a578063d905777e1461053d578063dd62ed3e14610550578063e66f53b714610588578063ef8b30f71461059b578063fabd0341146105ae575f80fd5b8063ba087652146104de578063ba1fd2f9146104f1578063c63d75b6146103de578063c6e6f59214610504578063ce96cb7714610517575f80fd5b8063992a7dfb11610105578063992a7dfb1461048a578063a9059cbb1461049d578063aa9d3a60146104b0578063b3d7f6b9146104b8578063b460af94146104cb575f80fd5b8063745400c91461045357806379502c5514610466578063872697291461047957806394bf804d1461041857806395d89b4114610482575f80fd5b80631ccb2fa9116101cc578063402d267d11610191578063402d267d146103de5780634cdad506146103f257806360199f43146104055780636e553f651461041857806370a082311461042b575f80fd5b80631ccb2fa91461033857806323b872dd1461036f578063313ce5671461038257806333fdc5921461039c57806338d52e0f146103a4575f80fd5b80630d1e6667116102125780630d1e6667146102c35780631409cef3146102d857806316b602491461030a5780631765b3131461031d57806318160ddd14610330575f80fd5b806301e1d1141461024e57806306fdde031461026557806307a2d13a1461027a578063095ea7b31461028d5780630a28a477146102b0575b5f80fd5b6009545b6040519081526020015b60405180910390f35b61026d6105c1565b60405161025c9190611f50565b610252610288366004611f85565b610651565b6102a061029b366004611fb0565b610679565b604051901515815260200161025c565b6102526102be366004611f85565b610690565b6102d66102d1366004611f85565b61069c565b005b6102eb6102e6366004611f85565b610851565b604080516001600160a01b03909316835260208301919091520161025c565b6102d6610318366004611f85565b610887565b6102d661032b366004611f85565b610951565b600254610252565b61034b610346366004611f85565b6109fb565b604080516001600160a01b03909316835263ffffffff90911660208301520161025c565b6102a061037d366004611fda565b610a31565b61038a610a56565b60405160ff909116815260200161025c565b6102d6610a86565b7f00000000000000000000000000000000000000000000000000000000000000005b6040516001600160a01b03909116815260200161025c565b6102526103ec366004612018565b505f1990565b610252610400366004611f85565b610c94565b6102d661041336600461207b565b610c9f565b6102526104263660046120ba565b610ffd565b610252610439366004612018565b6001600160a01b03165f9081526020819052604090205490565b6102d6610461366004611f85565b611017565b6005546103c6906001600160a01b031681565b61025260085481565b61026d611137565b6102eb610498366004611f85565b611146565b6102a06104ab366004611fb0565b611155565b6102d6611162565b6102526104c6366004611f85565b611415565b6102526104d93660046120e8565b611421565b6102526104ec3660046120e8565b61143a565b6102d66104ff36600461207b565b611454565b610252610512366004611f85565b6118b3565b610252610525366004612018565b6118ca565b6007546103c6906001600160a01b031681565b61025261054b366004612018565b6118ec565b61025261055e366004612127565b6001600160a01b039182165f90815260016020908152604080832093909416825291909152205490565b6006546103c6906001600160a01b031681565b6102526105a9366004611f85565b611909565b6102eb6105bc366004611f85565b611914565b6060600380546105d090612153565b80601f01602080910402602001604051908101604052809291908181526020018280546105fc90612153565b80156106475780601f1061061e57610100808354040283529160200191610647565b820191905f5260205f20905b81548152906001019060200180831161062a57829003601f168201915b5050505050905090565b5f670de0b6b3a764000060085483610669919061219f565b61067391906121ca565b92915050565b5f33610686818585611923565b5060019392505050565b5f610673826001611935565b805f036106bc57604051635e85ae7360e01b815260040160405180910390fd5b7f00000000000000000000000000000000000000000000000000000000000000006040516323b872dd60e01b8152336004820152306024820152604481018390526001600160a01b0391909116906323b872dd906064016020604051808303815f875af115801561072f573d5f803e3d5ffd5b505050506040513d601f19601f8201168201806040525081019061075391906121dd565b610770576040516312171d8360e31b815260040160405180910390fd5b604080518082019091523380825260208201838152600c8054600180820183555f83905294517fdf6966c971051c3d54ec59162606531493a51404a002842f56009d7e5cf4a8c7600290920291820180546001600160a01b0319166001600160a01b0390921691909117905591517fdf6966c971051c3d54ec59162606531493a51404a002842f56009d7e5cf4a8c8909201919091555490917f03979a8c481a9e9c06938045cfd5c28535255cb003b10a8fe84ebb3cb4d440f2918491610836916121fc565b6040805192835260208301919091520160405180910390a250565b600b8181548110610860575f80fd5b5f918252602090912060029091020180546001909101546001600160a01b03909116915082565b60055f9054906101000a90046001600160a01b03166001600160a01b031663348ec5c86040518163ffffffff1660e01b8152600401602060405180830381865afa1580156108d7573d5f803e3d5ffd5b505050506040513d601f19601f820116820180604052508101906108fb919061220f565b6001600160a01b0316336001600160a01b03161461092c5760405163efb380d960e01b815260040160405180910390fd5b805f0361094c57604051634dfba02360e01b815260040160405180910390fd5b600855565b60055f9054906101000a90046001600160a01b03166001600160a01b031663348ec5c86040518163ffffffff1660e01b8152600401602060405180830381865afa1580156109a1573d5f803e3d5ffd5b505050506040513d601f19601f820116820180604052508101906109c5919061220f565b6001600160a01b0316336001600160a01b0316146109f65760405163efb380d960e01b815260040160405180910390fd5b600955565b600a8181548110610a0a575f80fd5b5f918252602090912001546001600160a01b0381169150600160a01b900463ffffffff1682565b5f33610a3e858285611968565b610a498585856119e9565b60019150505b9392505050565b5f610a81817f000000000000000000000000000000000000000000000000000000000000000061222a565b905090565b60055f9054906101000a90046001600160a01b03166001600160a01b0316633a0dad8e6040518163ffffffff1660e01b8152600401602060405180830381865afa158015610ad6573d5f803e3d5ffd5b505050506040513d601f19601f82011682018060405250810190610afa919061220f565b6001600160a01b0316336001600160a01b031614610b2b57604051631af2ab4f60e31b815260040160405180910390fd5b610b33611a46565b5f5b600c54811015610c89575f600c8281548110610b5357610b53612243565b905f5260205f20906002020190505f610b6f8260010154611909565b600c805491925090610b83906001906121fc565b81548110610b9357610b93612243565b905f5260205f209060020201600c8481548110610bb257610bb2612243565b5f9182526020909120825460029092020180546001600160a01b0319166001600160a01b03909216919091178155600191820154910155600c805480610bfa57610bfa612257565b5f8281526020812060025f199093019283020180546001600160a01b03191681556001015590558154610c36906001600160a01b031682611ab3565b8154600183015460408051918252602082018690526001600160a01b03909216917f782ea2005b7f873a0190a1ccb553c732171348d6e16d2b7d3d493c0677dc296e910160405180910390a25050610b35565b50610c92611aeb565b565b5f610673825f611b15565b6006546001600160a01b03163314610cca576040516356b381a560e01b815260040160405180910390fd5b5f819003610ceb57604051631121aa8d60e01b815260040160405180910390fd5b600554604080516379d6a6cf60e11b815290515f926001600160a01b03169163f3ad4d9e9160048083019260209291908290030181865afa158015610d32573d5f803e3d5ffd5b505050506040513d601f19601f82011682018060405250810190610d56919061226b565b67ffffffffffffffff811115610d6e57610d6e612282565b604051908082528060200260200182016040528015610d97578160200160208202803683370190505b5090505f5b82811015610f10575f848483818110610db757610db7612243565b610dcd9260206040909202019081019150612018565b90505f858584818110610de257610de2612243565b60055460408051633af32abf60e01b81526001600160a01b03888116600483015293909102949094016020013594501691633af32abf9150602401602060405180830381865afa158015610e38573d5f803e3d5ffd5b505050506040513d601f19601f82011682018060405250810190610e5c91906121dd565b610e79576040516307c241ad60e51b815260040160405180910390fd5b6005546040516320033fb760e21b81526001600160a01b0384811660048301525f92169063800cfedc90602401602060405180830381865afa158015610ec1573d5f803e3d5ffd5b505050506040513d601f19601f82011682018060405250810190610ee5919061226b565b905081858281518110610efa57610efa612243565b6020908102919091010152505050600101610d9c565b50610f1c600b5f611ecc565b5f5b82811015610fcd57600b6040518060400160405280868685818110610f4557610f45612243565b610f5b9260206040909202019081019150612018565b6001600160a01b03168152602001848481518110610f7b57610f7b612243565b6020908102919091018101519091528254600180820185555f94855293829020835160029092020180546001600160a01b0319166001600160a01b039092169190911781559101519082015501610f1e565b5060405133907f2d47a742b8d7df7c1fc5a9a631b206b364e6cb2722490759f63bb3ab14b132e0905f90a2505050565b5f6040516318f2e47360e11b815260040160405180910390fd5b805f03611037576040516314e6cbb960e11b815260040160405180910390fd5b335f9081526020819052604090205481111561106657604051633c57b48560e21b815260040160405180910390fd5b6110713330836119e9565b604080518082019091523380825260208201838152600d8054600180820183555f83905294517fd7b6990105719101dabeb77144f2a3385c8033acd3af97e9423a695e81ad1eb5600290920291820180546001600160a01b0319166001600160a01b0390921691909117905591517fd7b6990105719101dabeb77144f2a3385c8033acd3af97e9423a695e81ad1eb6909201919091555490917fd72eb5d043f24a0168ae744d5c44f9596fd673a26bf74d9646bff4b844882d14918491610836916121fc565b6060600480546105d090612153565b600d8181548110610860575f80fd5b5f336106868185856119e9565b60055f9054906101000a90046001600160a01b03166001600160a01b0316633a0dad8e6040518163ffffffff1660e01b8152600401602060405180830381865afa1580156111b2573d5f803e3d5ffd5b505050506040513d601f19601f820116820180604052508101906111d6919061220f565b6001600160a01b0316336001600160a01b03161461120757604051631af2ab4f60e31b815260040160405180910390fd5b61120f611a46565b5f5b600d54811015610c89575f600d828154811061122f5761122f612243565b905f5260205f2090600202019050600d6001600d8054905061125191906121fc565b8154811061126157611261612243565b905f5260205f209060020201600d838154811061128057611280612243565b5f9182526020909120825460029092020180546001600160a01b0319166001600160a01b03909216919091178155600191820154910155600d8054806112c8576112c8612257565b5f8281526020812060025f199093019283020180546001600160a01b03191681556001908101919091559155810154611302903090611b45565b5f6113108260010154610c94565b90507f0000000000000000000000000000000000000000000000000000000000000000825460405163a9059cbb60e01b81526001600160a01b0391821660048201526024810184905291169063a9059cbb906044016020604051808303815f875af1158015611381573d5f803e3d5ffd5b505050506040513d601f19601f820116820180604052508101906113a591906121dd565b6113c2576040516312171d8360e31b815260040160405180910390fd5b8154600183015460408051918252602082018690526001600160a01b03909216917febad37b830b1857ef9af5983fc20dc0ded12dc472ba1e22e06fd3a9465b4506c910160405180910390a25050611211565b5f610673826001611b15565b5f604051628a595160e01b815260040160405180910390fd5b5f604051630ad8521960e31b815260040160405180910390fd5b6006546001600160a01b0316331461147f576040516356b381a560e01b815260040160405180910390fd5b5f8190036114a057604051631121aa8d60e01b815260040160405180910390fd5b600554604080516379d6a6cf60e11b815290515f926001600160a01b03169163f3ad4d9e9160048083019260209291908290030181865afa1580156114e7573d5f803e3d5ffd5b505050506040513d601f19601f8201168201806040525081019061150b919061226b565b67ffffffffffffffff81111561152357611523612282565b60405190808252806020026020018201604052801561154c578160200160208202803683370190505b5090505f60055f9054906101000a90046001600160a01b03166001600160a01b031663d1717c7d6040518163ffffffff1660e01b8152600401602060405180830381865afa1580156115a0573d5f803e3d5ffd5b505050506040513d601f19601f820116820180604052508101906115c49190612296565b90505f805b84811015611789575f8686838181106115e4576115e4612243565b6115fa9260206040909202019081019150612018565b90505f87878481811061160f5761160f612243565b905060400201602001602081019061162791906122b6565b600554604051633af32abf60e01b81526001600160a01b038581166004830152929350911690633af32abf90602401602060405180830381865afa158015611671573d5f803e3d5ffd5b505050506040513d601f19601f8201168201806040525081019061169591906121dd565b6116b2576040516307c241ad60e51b815260040160405180910390fd5b8063ffffffff165f036116d857604051635e85ae7360e01b815260040160405180910390fd5b6005546040516320033fb760e21b81526001600160a01b0384811660048301525f92169063800cfedc90602401602060405180830381865afa158015611720573d5f803e3d5ffd5b505050506040513d601f19601f82011682018060405250810190611744919061226b565b90508187828151811061175957611759612243565b63ffffffff9283166020918202929092010152611778908316866122d9565b945050600190920191506115c99050565b5061179582600a6123cf565b81146117b4576040516324204a3560e21b815260040160405180910390fd5b6117bf600a5f611eed565b5f5b8481101561188157600a60405180604001604052808888858181106117e8576117e8612243565b6117fe9260206040909202019081019150612018565b6001600160a01b0316815260200186848151811061181e5761181e612243565b60209081029190910181015163ffffffff9081169092528354600181810186555f958652948290208451910180549490920151909216600160a01b026001600160c01b03199093166001600160a01b0390921691909117919091179055016117c1565b5060405133907f2d47a742b8d7df7c1fc5a9a631b206b364e6cb2722490759f63bb3ab14b132e0905f90a25050505050565b6008545f9061066983670de0b6b3a764000061219f565b6001600160a01b0381165f90815260208190526040812054610673905f611b15565b6001600160a01b0381165f90815260208190526040812054610673565b5f610673825f611935565b600c8181548110610860575f80fd5b6119308383836001611b79565b505050565b5f610a4f61194482600a6123cf565b60025461195191906122d9565b60095461195f9060016122d9565b85919085611c4b565b6001600160a01b038381165f908152600160209081526040808320938616835292905220545f198110156119e357818110156119d557604051637dc7a0d960e11b81526001600160a01b038416600482015260248101829052604481018390526064015b60405180910390fd5b6119e384848484035f611b79565b50505050565b6001600160a01b038316611a1257604051634b637e8f60e11b81525f60048201526024016119cc565b6001600160a01b038216611a3b5760405163ec442f0560e01b81525f60048201526024016119cc565b611930838383611c96565b7f9b779b17422d0df92223018b32b4d1fa46e071723d6817e2486d003becc55f005c15611a8657604051633ee5aeb560e01b815260040160405180910390fd5b610c9260017f9b779b17422d0df92223018b32b4d1fa46e071723d6817e2486d003becc55f005b90611dbc565b6001600160a01b038216611adc5760405163ec442f0560e01b81525f60048201526024016119cc565b611ae75f8383611c96565b5050565b610c925f7f9b779b17422d0df92223018b32b4d1fa46e071723d6817e2486d003becc55f00611aad565b5f610a4f611b2260095490565b611b2d9060016122d9565b611b385f600a6123cf565b60025461195f91906122d9565b6001600160a01b038216611b6e57604051634b637e8f60e11b81525f60048201526024016119cc565b611ae7825f83611c96565b6001600160a01b038416611ba25760405163e602df0560e01b81525f60048201526024016119cc565b6001600160a01b038316611bcb57604051634a1406b160e11b81525f60048201526024016119cc565b6001600160a01b038085165f90815260016020908152604080832093871683529290522082905580156119e357826001600160a01b0316846001600160a01b03167f8c5be1e5ebec7d5bd14f71427d1e84f3dd0314c0f7b2291e5b200ac8c7c3b92584604051611c3d91815260200190565b60405180910390a350505050565b5f611c78611c5883611dc3565b8015611c7357505f8480611c6e57611c6e6121b6565b868809115b151590565b611c83868686611def565b611c8d91906122d9565b95945050505050565b6001600160a01b038316611cc0578060025f828254611cb591906122d9565b90915550611d309050565b6001600160a01b0383165f9081526020819052604090205481811015611d125760405163391434e360e21b81526001600160a01b038516600482015260248101829052604481018390526064016119cc565b6001600160a01b0384165f9081526020819052604090209082900390555b6001600160a01b038216611d4c57600280548290039055611d6a565b6001600160a01b0382165f9081526020819052604090208054820190555b816001600160a01b0316836001600160a01b03167fddf252ad1be2c89b69c2b068fc378daa952ba7f163c4a11628f55a4df523b3ef83604051611daf91815260200190565b60405180910390a3505050565b80825d5050565b5f6002826003811115611dd857611dd86123dd565b611de291906123f1565b60ff166001149050919050565b5f805f611dfc8686611e9f565b91509150815f03611e2057838181611e1657611e166121b6565b0492505050610a4f565b818411611e3757611e376003851502601118611ebb565b5f848688095f868103871696879004966002600389028118808a02820302808a02820302808a02820302808a02820302808a02820302808a02909103029181900381900460010185841190960395909502919093039390930492909217029150509392505050565b5f805f1983850993909202808410938190039390930393915050565b634e487b715f52806020526024601cfd5b5080545f8255600202905f5260205f2090810190611eea9190611f08565b50565b5080545f8255905f5260205f2090810190611eea9190611f31565b5b80821115611f2d5780546001600160a01b03191681555f6001820155600201611f09565b5090565b5b80821115611f2d5780546001600160c01b0319168155600101611f32565b602081525f82518060208401528060208501604085015e5f604082850101526040601f19601f83011684010191505092915050565b5f60208284031215611f95575f80fd5b5035919050565b6001600160a01b0381168114611eea575f80fd5b5f8060408385031215611fc1575f80fd5b8235611fcc81611f9c565b946020939093013593505050565b5f805f60608486031215611fec575f80fd5b8335611ff781611f9c565b9250602084013561200781611f9c565b929592945050506040919091013590565b5f60208284031215612028575f80fd5b8135610a4f81611f9c565b5f8083601f840112612043575f80fd5b50813567ffffffffffffffff81111561205a575f80fd5b6020830191508360208260061b8501011115612074575f80fd5b9250929050565b5f806020838503121561208c575f80fd5b823567ffffffffffffffff8111156120a2575f80fd5b6120ae85828601612033565b90969095509350505050565b5f80604083850312156120cb575f80fd5b8235915060208301356120dd81611f9c565b809150509250929050565b5f805f606084860312156120fa575f80fd5b83359250602084013561210c81611f9c565b9150604084013561211c81611f9c565b809150509250925092565b5f8060408385031215612138575f80fd5b823561214381611f9c565b915060208301356120dd81611f9c565b600181811c9082168061216757607f821691505b60208210810361218557634e487b7160e01b5f52602260045260245ffd5b50919050565b634e487b7160e01b5f52601160045260245ffd5b80820281158282048414176106735761067361218b565b634e487b7160e01b5f52601260045260245ffd5b5f826121d8576121d86121b6565b500490565b5f602082840312156121ed575f80fd5b81518015158114610a4f575f80fd5b818103818111156106735761067361218b565b5f6020828403121561221f575f80fd5b8151610a4f81611f9c565b60ff81811683821601908111156106735761067361218b565b634e487b7160e01b5f52603260045260245ffd5b634e487b7160e01b5f52603160045260245ffd5b5f6020828403121561227b575f80fd5b5051919050565b634e487b7160e01b5f52604160045260245ffd5b5f602082840312156122a6575f80fd5b815160ff81168114610a4f575f80fd5b5f602082840312156122c6575f80fd5b813563ffffffff81168114610a4f575f80fd5b808201808211156106735761067361218b565b6001815b60018411156123275780850481111561230b5761230b61218b565b600184161561231957908102905b60019390931c9280026122f0565b935093915050565b5f8261233d57506001610673565b8161234957505f610673565b816001811461235f576002811461236957612385565b6001915050610673565b60ff84111561237a5761237a61218b565b50506001821b610673565b5060208310610133831016604e8410600b84101617156123a8575081810a610673565b6123b45f1984846122ec565b805f19048211156123c7576123c761218b565b029392505050565b5f610a4f60ff84168361232f565b634e487b7160e01b5f52602160045260245ffd5b5f60ff831680612403576124036121b6565b8060ff8416069150509291505056fea2646970667358221220d65133328ce161b8509ffe4d6eb9eae93ecbbe3344618e02a35fbad880cf6bdc64736f6c634300081a0033a26469706673582212205c7c8ec7c1c903b30b55409b0010b9028002d89fc12dad20e75551c6b791470764736f6c634300081a0033",
  "linkReferences": {},
  "deployedLinkReferences": {}
}