{
  "_format": "hh-sol-artifact-1",
  "contractName": "OrionVaultFactory",
  "sourceName": "contracts/OrionVaultFactory.sol",
  "abi": [
    {
      "inputs": [
        {
          "internalType": "address",
          "name": "_config",
          "type": "address"
        }
      ],
      "stateMutability": "nonpayable",
      "type": "constructor"
    },
    {
      "inputs": [],
      "name": "CuratorCannotBeZeroAddress",
      "type": "error"
    },
    {
      "anonymous": false,
      "inputs": [
        {
          "indexed": true,
          "internalType": "address",
          "name": "vault",
          "type": "address"
        },
        {
          "indexed": true,
          "internalType": "address",
          "name": "curator",
          "type": "address"
        },
        {
          "indexed": true,
          "internalType": "address",
          "name": "deployer",
          "type": "address"
        },
        {
          "indexed": false,
          "internalType": "string",
          "name": "vaultType",
          "type": "string"
        }
      ],
      "name": "OrionVaultCreated",
      "type": "event"
    },
    {
      "inputs": [],
      "name": "config",
      "outputs": [
        {
          "internalType": "contract IOrionConfig",
          "name": "",
          "type": "address"
        }
      ],
      "stateMutability": "view",
      "type": "function"
    },
    {
      "inputs": [
        {
          "internalType": "address",
          "name": "curator",
          "type": "address"
        },
        {
          "internalType": "string",
          "name": "name",
          "type": "string"
        },
        {
          "internalType": "string",
          "name": "symbol",
          "type": "string"
        }
      ],
      "name": "createOrionEncryptedVault",
      "outputs": [
        {
          "internalType": "address",
          "name": "vault",
          "type": "address"
        }
      ],
      "stateMutability": "nonpayable",
      "type": "function"
    },
    {
      "inputs": [
        {
          "internalType": "address",
          "name": "curator",
          "type": "address"
        },
        {
          "internalType": "string",
          "name": "name",
          "type": "string"
        },
        {
          "internalType": "string",
          "name": "symbol",
          "type": "string"
        }
      ],
      "name": "createOrionTransparentVault",
      "outputs": [
        {
          "internalType": "address",
          "name": "vault",
          "type": "address"
        }
      ],
      "stateMutability": "nonpayable",
      "type": "function"
    },
    {
      "inputs": [],
      "name": "deployer",
      "outputs": [
        {
          "internalType": "address",
          "name": "",
          "type": "address"
        }
      ],
      "stateMutability": "view",
      "type": "function"
    }
  ],
  "bytecode": "0x6080604052348015600e575f80fd5b50604051614fe4380380614fe4833981016040819052602b91605c565b5f8054336001600160a01b031991821617909155600180549091166001600160a01b03929092169190911790556087565b5f60208284031215606b575f80fd5b81516001600160a01b03811681146080575f80fd5b9392505050565b614f50806100945f395ff3fe608060405234801561000f575f80fd5b506004361061004a575f3560e01c806379502c551461004e578063c3983f691461007d578063c544d8dc14610090578063d5f39488146100a3575b5f80fd5b600154610061906001600160a01b031681565b6040516001600160a01b03909116815260200160405180910390f35b61006161008b36600461034e565b6100b5565b61006161009e36600461034e565b610207565b5f54610061906001600160a01b031681565b5f6001600160a01b0386166100dd57604051630daae06b60e01b815260040160405180910390fd5b5f8660015f9054906101000a90046001600160a01b031687878787604051610104906102ef565b61011396959493929190610403565b604051809103905ff08015801561012c573d5f803e3d5ffd5b509050809150336001600160a01b0316876001600160a01b0316836001600160a01b03167f027cb482e8aca27cdcaa492bfb8e25a719fd2345084492a7bd65d803ae980bd460405161019b90602080825260099082015268195b98dc9e5c1d195960ba1b604082015260600190565b60405180910390a460015460405163eb1a5bb960e01b81526001600160a01b0384811660048301529091169063eb1a5bb9906024015f604051808303815f87803b1580156101e7575f80fd5b505af11580156101f9573d5f803e3d5ffd5b505050505095945050505050565b5f6001600160a01b03861661022f57604051630daae06b60e01b815260040160405180910390fd5b5f8660015f9054906101000a90046001600160a01b031687878787604051610256906102fc565b61026596959493929190610403565b604051809103905ff08015801561027e573d5f803e3d5ffd5b509050809150336001600160a01b0316876001600160a01b0316836001600160a01b03167f027cb482e8aca27cdcaa492bfb8e25a719fd2345084492a7bd65d803ae980bd460405161019b906020808252600b908201526a1d1c985b9cdc185c995b9d60aa1b604082015260600190565b6124c98061045083390190565b6126028061291983390190565b5f8083601f840112610319575f80fd5b50813567ffffffffffffffff811115610330575f80fd5b602083019150836020828501011115610347575f80fd5b9250929050565b5f805f805f60608688031215610362575f80fd5b85356001600160a01b0381168114610378575f80fd5b9450602086013567ffffffffffffffff811115610393575f80fd5b61039f88828901610309565b909550935050604086013567ffffffffffffffff8111156103be575f80fd5b6103ca88828901610309565b969995985093965092949392505050565b81835281816020850137505f828201602090810191909152601f909101601f19169091010190565b6001600160a01b038781168252861660208201526080604082018190525f9061042f90830186886103db565b82810360608401526104428185876103db565b999850505050505050505056fe60c060405234801561000f575f80fd5b506040516124c93803806124c983398101604081905261002e9161032f565b83838383826001600160a01b0316637158da7c6040518163ffffffff1660e01b8152600401602060405180830381865afa15801561006e573d5f803e3d5ffd5b505050506040513d601f19601f8201168201806040525081019061009291906103ba565b828260036100a08382610460565b5060046100ad8282610460565b5050505f806100c18361019160201b60201c565b91509150816100d15760126100d3565b805b60ff1660a05250506001600160a01b03908116608052841661010857604051639c6bb9f560e01b815260040160405180910390fd5b6001600160a01b03831661012f57604051636a485a5b60e11b815260040160405180910390fd5b60078054336001600160a01b0319918216179091556006805482166001600160a01b038781169190911790915560058054909216908516179055610171610267565b61017c90600a610613565b60085550505f60095550610667945050505050565b60408051600481526024810182526020810180516001600160e01b031663313ce56760e01b17905290515f918291829182916001600160a01b038716916101d791610621565b5f60405180830381855afa9150503d805f811461020f576040519150601f19603f3d011682016040523d82523d5f602084013e610214565b606091505b509150915081801561022857506020815110155b1561025b575f818060200190518101906102429190610637565b905060ff8111610259576001969095509350505050565b505b505f9485945092505050565b5f8060a051610276919061064e565b905090565b6001600160a01b038116811461028f575f80fd5b50565b634e487b7160e01b5f52604160045260245ffd5b5f82601f8301126102b5575f80fd5b81516001600160401b038111156102ce576102ce610292565b604051601f8201601f19908116603f011681016001600160401b03811182821017156102fc576102fc610292565b604052818152838201602001851015610313575f80fd5b8160208501602083015e5f918101602001919091529392505050565b5f805f8060808587031215610342575f80fd5b845161034d8161027b565b602086015190945061035e8161027b565b60408601519093506001600160401b03811115610379575f80fd5b610385878288016102a6565b606087015190935090506001600160401b038111156103a2575f80fd5b6103ae878288016102a6565b91505092959194509250565b5f602082840312156103ca575f80fd5b81516103d58161027b565b9392505050565b600181811c908216806103f057607f821691505b60208210810361040e57634e487b7160e01b5f52602260045260245ffd5b50919050565b601f82111561045b57805f5260205f20601f840160051c810160208510156104395750805b601f840160051c820191505b81811015610458575f8155600101610445565b50505b505050565b81516001600160401b0381111561047957610479610292565b61048d8161048784546103dc565b84610414565b6020601f8211600181146104bf575f83156104a85750848201515b5f19600385901b1c1916600184901b178455610458565b5f84815260208120601f198516915b828110156104ee57878501518255602094850194600190920191016104ce565b508482101561050b57868401515f19600387901b60f8161c191681555b50505050600190811b01905550565b634e487b7160e01b5f52601160045260245ffd5b6001815b60018411156105695780850481111561054d5761054d61051a565b600184161561055b57908102905b60019390931c928002610532565b935093915050565b5f8261057f5750600161060d565b8161058b57505f61060d565b81600181146105a157600281146105ab576105c7565b600191505061060d565b60ff8411156105bc576105bc61051a565b50506001821b61060d565b5060208310610133831016604e8410600b84101617156105ea575081810a61060d565b6105f65f19848461052e565b805f19048211156106095761060961051a565b0290505b92915050565b5f6103d560ff841683610571565b5f82518060208501845e5f920191825250919050565b5f60208284031215610647575f80fd5b5051919050565b60ff818116838216019081111561060d5761060d61051a565b60805160a051611e2c61069d5f395f6109a501525f818161031c0152818161063e0152818161067201526110d70152611e2c5ff3fe608060405234801561000f575f80fd5b5060043610610229575f3560e01c8063872697291161012a578063ba087652116100b4578063d905777e11610079578063d905777e146104bf578063dd62ed3e146104d2578063e66f53b71461050a578063ef8b30f71461051d578063fabd034114610530575f80fd5b8063ba08765214610473578063c63d75b614610354578063c6e6f59214610486578063ce96cb7714610499578063d5f39488146104ac575f80fd5b80639c055a66116100fa5780639c055a661461041f578063a9059cbb14610432578063aa9d3a6014610445578063b3d7f6b91461044d578063b460af9414610460575f80fd5b806387269729146103dc57806394bf804d1461037b57806395d89b41146103e5578063992a7dfb146103ed575f80fd5b806323b872dd116101b65780634cdad5061161017b5780634cdad506146103685780636e553f651461037b57806370a082311461038e578063745400c9146103b657806379502c55146103c9575f80fd5b806323b872dd146102e5578063313ce567146102f857806333fdc5921461031257806338d52e0f1461031a578063402d267d14610354575f80fd5b80630a28a477116101fc5780630a28a4771461028f5780630d1e6667146102a257806316b60249146102b75780631765b313146102ca57806318160ddd146102dd575f80fd5b806301e1d1141461022d57806306fdde031461024457806307a2d13a14610259578063095ea7b31461026c575b5f80fd5b6009545b6040519081526020015b60405180910390f35b61024c610543565b60405161023b91906119b8565b6102316102673660046119ed565b6105d3565b61027f61027a366004611a18565b6105fd565b604051901515815260200161023b565b61023161029d3660046119ed565b610614565b6102b56102b03660046119ed565b610620565b005b6102b56102c53660046119ed565b610805565b6102b56102d83660046119ed565b6108cf565b600254610231565b61027f6102f3366004611a42565b610979565b61030061099e565b60405160ff909116815260200161023b565b6102b56109ce565b7f00000000000000000000000000000000000000000000000000000000000000005b6040516001600160a01b03909116815260200161023b565b610231610362366004611a80565b505f1990565b6102316103763660046119ed565b610bdc565b610231610389366004611a9b565b610be7565b61023161039c366004611a80565b6001600160a01b03165f9081526020819052604090205490565b6102b56103c43660046119ed565b610c01565b60055461033c906001600160a01b031681565b61023160085481565b61024c610d21565b6104006103fb3660046119ed565b610d30565b604080516001600160a01b03909316835260208301919091520161023b565b6102b561042d366004611ac9565b610d66565b61027f610440366004611a18565b610f18565b6102b5610f25565b61023161045b3660046119ed565b6111d8565b61023161046e366004611b3a565b6111e4565b610231610481366004611b3a565b6111fd565b6102316104943660046119ed565b611217565b6102316104a7366004611a80565b611230565b60075461033c906001600160a01b031681565b6102316104cd366004611a80565b611252565b6102316104e0366004611b79565b6001600160a01b039182165f90815260016020908152604080832093909416825291909152205490565b60065461033c906001600160a01b031681565b61023161052b3660046119ed565b61126f565b61040061053e3660046119ed565b61127a565b60606003805461055290611ba5565b80601f016020809104026020016040519081016040528092919081815260200182805461057e90611ba5565b80156105c95780601f106105a0576101008083540402835291602001916105c9565b820191905f5260205f20905b8154815290600101906020018083116105ac57829003601f168201915b5050505050905090565b5f6105dc61099e565b60ff16600854836105ed9190611bf1565b6105f79190611c1c565b92915050565b5f3361060a818585611289565b5060019392505050565b5f6105f782600161129b565b805f0361067057604051636b30633560e01b81526001600160a01b037f00000000000000000000000000000000000000000000000000000000000000001660048201526024015b60405180910390fd5b7f00000000000000000000000000000000000000000000000000000000000000006040516323b872dd60e01b8152336004820152306024820152604481018390526001600160a01b0391909116906323b872dd906064016020604051808303815f875af11580156106e3573d5f803e3d5ffd5b505050506040513d601f19601f820116820180604052508101906107079190611c2f565b610724576040516312171d8360e31b815260040160405180910390fd5b604080518082019091523380825260208201838152600a8054600180820183555f83905294517fc65a7bb8d6351c1cf70c95a316cc6a92839c986682d98bc35f958f4883f9d2a8600290920291820180546001600160a01b0319166001600160a01b0390921691909117905591517fc65a7bb8d6351c1cf70c95a316cc6a92839c986682d98bc35f958f4883f9d2a9909201919091555490917f03979a8c481a9e9c06938045cfd5c28535255cb003b10a8fe84ebb3cb4d440f29184916107ea91611c4e565b6040805192835260208301919091520160405180910390a250565b60055f9054906101000a90046001600160a01b03166001600160a01b031663348ec5c86040518163ffffffff1660e01b8152600401602060405180830381865afa158015610855573d5f803e3d5ffd5b505050506040513d601f19601f820116820180604052508101906108799190611c61565b6001600160a01b0316336001600160a01b0316146108aa5760405163efb380d960e01b815260040160405180910390fd5b805f036108ca57604051634dfba02360e01b815260040160405180910390fd5b600855565b60055f9054906101000a90046001600160a01b03166001600160a01b031663348ec5c86040518163ffffffff1660e01b8152600401602060405180830381865afa15801561091f573d5f803e3d5ffd5b505050506040513d601f19601f820116820180604052508101906109439190611c61565b6001600160a01b0316336001600160a01b0316146109745760405163efb380d960e01b815260040160405180910390fd5b600955565b5f336109868582856112ce565b61099185858561134a565b60019150505b9392505050565b5f6109c9817f0000000000000000000000000000000000000000000000000000000000000000611c7c565b905090565b60055f9054906101000a90046001600160a01b03166001600160a01b0316633a0dad8e6040518163ffffffff1660e01b8152600401602060405180830381865afa158015610a1e573d5f803e3d5ffd5b505050506040513d601f19601f82011682018060405250810190610a429190611c61565b6001600160a01b0316336001600160a01b031614610a7357604051631af2ab4f60e31b815260040160405180910390fd5b610a7b6113a7565b5f5b600a54811015610bd1575f600a8281548110610a9b57610a9b611c95565b905f5260205f20906002020190505f610ab7826001015461126f565b600a805491925090610acb90600190611c4e565b81548110610adb57610adb611c95565b905f5260205f209060020201600a8481548110610afa57610afa611c95565b5f9182526020909120825460029092020180546001600160a01b0319166001600160a01b03909216919091178155600191820154910155600a805480610b4257610b42611ca9565b5f8281526020812060025f199093019283020180546001600160a01b03191681556001015590558154610b7e906001600160a01b031682611414565b8154600183015460408051918252602082018690526001600160a01b03909216917f782ea2005b7f873a0190a1ccb553c732171348d6e16d2b7d3d493c0677dc296e910160405180910390a25050610a7d565b50610bda61144c565b565b5f6105f7825f611476565b5f6040516318f2e47360e11b815260040160405180910390fd5b805f03610c21576040516314e6cbb960e11b815260040160405180910390fd5b335f90815260208190526040902054811115610c5057604051633c57b48560e21b815260040160405180910390fd5b610c5b33308361134a565b604080518082019091523380825260208201838152600b8054600180820183555f83905294517f0175b7a638427703f0dbe7bb9bbf987a2551717b34e79f33b5b1008d1fa01db9600290920291820180546001600160a01b0319166001600160a01b0390921691909117905591517f0175b7a638427703f0dbe7bb9bbf987a2551717b34e79f33b5b1008d1fa01dba909201919091555490917fd72eb5d043f24a0168ae744d5c44f9596fd673a26bf74d9646bff4b844882d149184916107ea91611c4e565b60606004805461055290611ba5565b600b8181548110610d3f575f80fd5b5f918252602090912060029091020180546001909101546001600160a01b03909116915082565b6006546001600160a01b03163314610d91576040516356b381a560e01b815260040160405180910390fd5b5f819003610db257604051631121aa8d60e01b815260040160405180910390fd5b610dbc600c6114a6565b5f5b81811015610ee9575f838383818110610dd957610dd9611c95565b610def9260206040909202019081019150611a80565b90505f848484818110610e0457610e04611c95565b60055460408051633af32abf60e01b81526001600160a01b03888116600483015293909102949094016020013594501691633af32abf9150602401602060405180830381865afa158015610e5a573d5f803e3d5ffd5b505050506040513d601f19601f82011682018060405250810190610e7e9190611c2f565b610ea65760405163751dff9760e11b81526001600160a01b0383166004820152602401610667565b5f610eb3600c84846114b2565b905080610ede576040516346bdabe160e01b81526001600160a01b0384166004820152602401610667565b505050600101610dbe565b5060405133907f2d47a742b8d7df7c1fc5a9a631b206b364e6cb2722490759f63bb3ab14b132e0905f90a25050565b5f3361060a81858561134a565b60055f9054906101000a90046001600160a01b03166001600160a01b0316633a0dad8e6040518163ffffffff1660e01b8152600401602060405180830381865afa158015610f75573d5f803e3d5ffd5b505050506040513d601f19601f82011682018060405250810190610f999190611c61565b6001600160a01b0316336001600160a01b031614610fca57604051631af2ab4f60e31b815260040160405180910390fd5b610fd26113a7565b5f5b600b54811015610bd1575f600b8281548110610ff257610ff2611c95565b905f5260205f2090600202019050600b6001600b805490506110149190611c4e565b8154811061102457611024611c95565b905f5260205f209060020201600b838154811061104357611043611c95565b5f9182526020909120825460029092020180546001600160a01b0319166001600160a01b03909216919091178155600191820154910155600b80548061108b5761108b611ca9565b5f8281526020812060025f199093019283020180546001600160a01b031916815560019081019190915591558101546110c59030906114cf565b5f6110d38260010154610bdc565b90507f0000000000000000000000000000000000000000000000000000000000000000825460405163a9059cbb60e01b81526001600160a01b0391821660048201526024810184905291169063a9059cbb906044016020604051808303815f875af1158015611144573d5f803e3d5ffd5b505050506040513d601f19601f820116820180604052508101906111689190611c2f565b611185576040516312171d8360e31b815260040160405180910390fd5b8154600183015460408051918252602082018690526001600160a01b03909216917febad37b830b1857ef9af5983fc20dc0ded12dc472ba1e22e06fd3a9465b4506c910160405180910390a25050610fd4565b5f6105f7826001611476565b5f604051628a595160e01b815260040160405180910390fd5b5f604051630ad8521960e31b815260040160405180910390fd5b5f60085461122361099e565b6105ed9060ff1684611bf1565b6001600160a01b0381165f908152602081905260408120546105f7905f611476565b6001600160a01b0381165f908152602081905260408120546105f7565b5f6105f7825f61129b565b600a8181548110610d3f575f80fd5b6112968383836001611503565b505050565b5f6109976112aa82600a611da0565b6002546112b79190611dae565b6009546112c5906001611dae565b859190856115d5565b6001600160a01b038381165f908152600160209081526040808320938616835292905220545f19811015611344578181101561133657604051637dc7a0d960e11b81526001600160a01b03841660048201526024810182905260448101839052606401610667565b61134484848484035f611503565b50505050565b6001600160a01b03831661137357604051634b637e8f60e11b81525f6004820152602401610667565b6001600160a01b03821661139c5760405163ec442f0560e01b81525f6004820152602401610667565b611296838383611620565b7f9b779b17422d0df92223018b32b4d1fa46e071723d6817e2486d003becc55f005c156113e757604051633ee5aeb560e01b815260040160405180910390fd5b610bda60017f9b779b17422d0df92223018b32b4d1fa46e071723d6817e2486d003becc55f005b90611746565b6001600160a01b03821661143d5760405163ec442f0560e01b81525f6004820152602401610667565b6114485f8383611620565b5050565b610bda5f7f9b779b17422d0df92223018b32b4d1fa46e071723d6817e2486d003becc55f0061140e565b5f61099761148360095490565b61148e906001611dae565b6114995f600a611da0565b6002546112c59190611dae565b6114af8161174d565b50565b5f6114c7846001600160a01b03851684611796565b949350505050565b6001600160a01b0382166114f857604051634b637e8f60e11b81525f6004820152602401610667565b611448825f83611620565b6001600160a01b03841661152c5760405163e602df0560e01b81525f6004820152602401610667565b6001600160a01b03831661155557604051634a1406b160e11b81525f6004820152602401610667565b6001600160a01b038085165f908152600160209081526040808320938716835292905220829055801561134457826001600160a01b0316846001600160a01b03167f8c5be1e5ebec7d5bd14f71427d1e84f3dd0314c0f7b2291e5b200ac8c7c3b925846040516115c791815260200190565b60405180910390a350505050565b5f6116026115e2836117b2565b80156115fd57505f84806115f8576115f8611c08565b868809115b151590565b61160d8686866117de565b6116179190611dae565b95945050505050565b6001600160a01b03831661164a578060025f82825461163f9190611dae565b909155506116ba9050565b6001600160a01b0383165f908152602081905260409020548181101561169c5760405163391434e360e21b81526001600160a01b03851660048201526024810182905260448101839052606401610667565b6001600160a01b0384165f9081526020819052604090209082900390555b6001600160a01b0382166116d6576002805482900390556116f4565b6001600160a01b0382165f9081526020819052604090208054820190555b816001600160a01b0316836001600160a01b03167fddf252ad1be2c89b69c2b068fc378daa952ba7f163c4a11628f55a4df523b3ef8360405161173991815260200190565b60405180910390a3505050565b80825d5050565b5f6117578261188e565b90505f5b8181101561178c57600283015f6117728584611898565b815260208101919091526040015f9081205560010161175b565b50611448826118a3565b5f82815260028401602052604081208290556114c784846118ac565b5f60028260038111156117c7576117c7611dc1565b6117d19190611dd5565b60ff166001149050919050565b5f805f6117eb86866118b7565b91509150815f0361180f5783818161180557611805611c08565b0492505050610997565b8184116118265761182660038515026011186118d3565b5f848688095f868103871696879004966002600389028118808a02820302808a02820302808a02820302808a02820302808a02820302808a02909103029181900381900460010185841190960395909502919093039390930492909217029150509392505050565b5f6105f7826118e4565b5f61099783836118ed565b6114af81611913565b5f610997838361196c565b5f805f1983850993909202808410938190039390930393915050565b634e487b715f52806020526024601cfd5b5f6105f7825490565b5f825f01828154811061190257611902611c95565b905f5260205f200154905092915050565b5f61191c825490565b90505f5b8181101561196557826001015f845f01838154811061194157611941611c95565b905f5260205f20015481526020019081526020015f205f9055806001019050611920565b50505f9055565b5f8181526001830160205260408120546119b157508154600181810184555f8481526020808220909301849055845484825282860190935260409020919091556105f7565b505f6105f7565b602081525f82518060208401528060208501604085015e5f604082850101526040601f19601f83011684010191505092915050565b5f602082840312156119fd575f80fd5b5035919050565b6001600160a01b03811681146114af575f80fd5b5f8060408385031215611a29575f80fd5b8235611a3481611a04565b946020939093013593505050565b5f805f60608486031215611a54575f80fd5b8335611a5f81611a04565b92506020840135611a6f81611a04565b929592945050506040919091013590565b5f60208284031215611a90575f80fd5b813561099781611a04565b5f8060408385031215611aac575f80fd5b823591506020830135611abe81611a04565b809150509250929050565b5f8060208385031215611ada575f80fd5b823567ffffffffffffffff811115611af0575f80fd5b8301601f81018513611b00575f80fd5b803567ffffffffffffffff811115611b16575f80fd5b8560208260061b8401011115611b2a575f80fd5b6020919091019590945092505050565b5f805f60608486031215611b4c575f80fd5b833592506020840135611b5e81611a04565b91506040840135611b6e81611a04565b809150509250925092565b5f8060408385031215611b8a575f80fd5b8235611b9581611a04565b91506020830135611abe81611a04565b600181811c90821680611bb957607f821691505b602082108103611bd757634e487b7160e01b5f52602260045260245ffd5b50919050565b634e487b7160e01b5f52601160045260245ffd5b80820281158282048414176105f7576105f7611bdd565b634e487b7160e01b5f52601260045260245ffd5b5f82611c2a57611c2a611c08565b500490565b5f60208284031215611c3f575f80fd5b81518015158114610997575f80fd5b818103818111156105f7576105f7611bdd565b5f60208284031215611c71575f80fd5b815161099781611a04565b60ff81811683821601908111156105f7576105f7611bdd565b634e487b7160e01b5f52603260045260245ffd5b634e487b7160e01b5f52603160045260245ffd5b6001815b6001841115611cf857808504811115611cdc57611cdc611bdd565b6001841615611cea57908102905b60019390931c928002611cc1565b935093915050565b5f82611d0e575060016105f7565b81611d1a57505f6105f7565b8160018114611d305760028114611d3a57611d56565b60019150506105f7565b60ff841115611d4b57611d4b611bdd565b50506001821b6105f7565b5060208310610133831016604e8410600b8410161715611d79575081810a6105f7565b611d855f198484611cbd565b805f1904821115611d9857611d98611bdd565b029392505050565b5f61099760ff841683611d00565b808201808211156105f7576105f7611bdd565b634e487b7160e01b5f52602160045260245ffd5b5f60ff831680611de757611de7611c08565b8060ff8416069150509291505056fea2646970667358221220bcc4b6e75c4260bcbe4c85abda30dc508323e368e7f1be2c5688ddec5b429f6b64736f6c634300081a003360c060405234801561000f575f80fd5b5060405161260238038061260283398101604081905261002e9161032f565b83838383826001600160a01b0316637158da7c6040518163ffffffff1660e01b8152600401602060405180830381865afa15801561006e573d5f803e3d5ffd5b505050506040513d601f19601f8201168201806040525081019061009291906103ba565b828260036100a08382610460565b5060046100ad8282610460565b5050505f806100c18361019160201b60201c565b91509150816100d15760126100d3565b805b60ff1660a05250506001600160a01b03908116608052841661010857604051639c6bb9f560e01b815260040160405180910390fd5b6001600160a01b03831661012f57604051636a485a5b60e11b815260040160405180910390fd5b60078054336001600160a01b0319918216179091556006805482166001600160a01b038781169190911790915560058054909216908516179055610171610267565b61017c90600a610613565b60085550505f60095550610667945050505050565b60408051600481526024810182526020810180516001600160e01b031663313ce56760e01b17905290515f918291829182916001600160a01b038716916101d791610621565b5f60405180830381855afa9150503d805f811461020f576040519150601f19603f3d011682016040523d82523d5f602084013e610214565b606091505b509150915081801561022857506020815110155b1561025b575f818060200190518101906102429190610637565b905060ff8111610259576001969095509350505050565b505b505f9485945092505050565b5f8060a051610276919061064e565b905090565b6001600160a01b038116811461028f575f80fd5b50565b634e487b7160e01b5f52604160045260245ffd5b5f82601f8301126102b5575f80fd5b81516001600160401b038111156102ce576102ce610292565b604051601f8201601f19908116603f011681016001600160401b03811182821017156102fc576102fc610292565b604052818152838201602001851015610313575f80fd5b8160208501602083015e5f918101602001919091529392505050565b5f805f8060808587031215610342575f80fd5b845161034d8161027b565b602086015190945061035e8161027b565b60408601519093506001600160401b03811115610379575f80fd5b610385878288016102a6565b606087015190935090506001600160401b038111156103a2575f80fd5b6103ae878288016102a6565b91505092959194509250565b5f602082840312156103ca575f80fd5b81516103d58161027b565b9392505050565b600181811c908216806103f057607f821691505b60208210810361040e57634e487b7160e01b5f52602260045260245ffd5b50919050565b601f82111561045b57805f5260205f20601f840160051c810160208510156104395750805b601f840160051c820191505b81811015610458575f8155600101610445565b50505b505050565b81516001600160401b0381111561047957610479610292565b61048d8161048784546103dc565b84610414565b6020601f8211600181146104bf575f83156104a85750848201515b5f19600385901b1c1916600184901b178455610458565b5f84815260208120601f198516915b828110156104ee57878501518255602094850194600190920191016104ce565b508482101561050b57868401515f19600387901b60f8161c191681555b50505050600190811b01905550565b634e487b7160e01b5f52601160045260245ffd5b6001815b60018411156105695780850481111561054d5761054d61051a565b600184161561055b57908102905b60019390931c928002610532565b935093915050565b5f8261057f5750600161060d565b8161058b57505f61060d565b81600181146105a157600281146105ab576105c7565b600191505061060d565b60ff8411156105bc576105bc61051a565b50506001821b61060d565b5060208310610133831016604e8410600b84101617156105ea575081810a61060d565b6105f65f19848461052e565b805f19048211156106095761060961051a565b0290505b92915050565b5f6103d560ff841683610571565b5f82518060208501845e5f920191825250919050565b5f60208284031215610647575f80fd5b5051919050565b60ff818116838216019081111561060d5761060d61051a565b60805160a051611f6561069d5f395f6109a501525f818161031c0152818161063e015281816106720152610f250152611f655ff3fe608060405234801561000f575f80fd5b5060043610610229575f3560e01c8063872697291161012a578063c63d75b6116100b4578063dd62ed3e11610079578063dd62ed3e146104bf578063e66f53b7146104f7578063ef8b30f71461050a578063fabd03411461051d578063fb12251b14610530575f80fd5b8063c63d75b614610354578063c6e6f59214610473578063ce96cb7714610486578063d5f3948814610499578063d905777e146104ac575f80fd5b8063a9059cbb116100fa578063a9059cbb1461041f578063aa9d3a6014610432578063b3d7f6b91461043a578063b460af941461044d578063ba08765214610460575f80fd5b806387269729146103dc57806394bf804d1461037b57806395d89b41146103e5578063992a7dfb146103ed575f80fd5b806323b872dd116101b65780634cdad5061161017b5780634cdad506146103685780636e553f651461037b57806370a082311461038e578063745400c9146103b657806379502c55146103c9575f80fd5b806323b872dd146102e5578063313ce567146102f857806333fdc5921461031257806338d52e0f1461031a578063402d267d14610354575f80fd5b80630a28a477116101fc5780630a28a4771461028f5780630d1e6667146102a257806316b60249146102b75780631765b313146102ca57806318160ddd146102dd575f80fd5b806301e1d1141461022d57806306fdde031461024457806307a2d13a14610259578063095ea7b31461026c575b5f80fd5b6009545b6040519081526020015b60405180910390f35b61024c610543565b60405161023b9190611aae565b610231610267366004611ae3565b6105d3565b61027f61027a366004611b0e565b6105fd565b604051901515815260200161023b565b61023161029d366004611ae3565b610614565b6102b56102b0366004611ae3565b610620565b005b6102b56102c5366004611ae3565b610805565b6102b56102d8366004611ae3565b6108cf565b600254610231565b61027f6102f3366004611b38565b610979565b61030061099e565b60405160ff909116815260200161023b565b6102b56109ce565b7f00000000000000000000000000000000000000000000000000000000000000005b6040516001600160a01b03909116815260200161023b565b610231610362366004611b76565b505f1990565b610231610376366004611ae3565b610bdc565b610231610389366004611b91565b610be7565b61023161039c366004611b76565b6001600160a01b03165f9081526020819052604090205490565b6102b56103c4366004611ae3565b610c01565b60055461033c906001600160a01b031681565b61023160085481565b61024c610d21565b6104006103fb366004611ae3565b610d30565b604080516001600160a01b03909316835260208301919091520161023b565b61027f61042d366004611b0e565b610d66565b6102b5610d73565b610231610448366004611ae3565b611026565b61023161045b366004611bbf565b611032565b61023161046e366004611bbf565b61104b565b610231610481366004611ae3565b611065565b610231610494366004611b76565b61107e565b60075461033c906001600160a01b031681565b6102316104ba366004611b76565b6110a0565b6102316104cd366004611bfe565b6001600160a01b039182165f90815260016020908152604080832093909416825291909152205490565b60065461033c906001600160a01b031681565b610231610518366004611ae3565b6110bd565b61040061052b366004611ae3565b6110c8565b6102b561053e366004611c2a565b6110d7565b60606003805461055290611c9b565b80601f016020809104026020016040519081016040528092919081815260200182805461057e90611c9b565b80156105c95780601f106105a0576101008083540402835291602001916105c9565b820191905f5260205f20905b8154815290600101906020018083116105ac57829003601f168201915b5050505050905090565b5f6105dc61099e565b60ff16600854836105ed9190611ce7565b6105f79190611d12565b92915050565b5f3361060a81858561137f565b5060019392505050565b5f6105f7826001611391565b805f0361067057604051636b30633560e01b81526001600160a01b037f00000000000000000000000000000000000000000000000000000000000000001660048201526024015b60405180910390fd5b7f00000000000000000000000000000000000000000000000000000000000000006040516323b872dd60e01b8152336004820152306024820152604481018390526001600160a01b0391909116906323b872dd906064016020604051808303815f875af11580156106e3573d5f803e3d5ffd5b505050506040513d601f19601f820116820180604052508101906107079190611d25565b610724576040516312171d8360e31b815260040160405180910390fd5b604080518082019091523380825260208201838152600a8054600180820183555f83905294517fc65a7bb8d6351c1cf70c95a316cc6a92839c986682d98bc35f958f4883f9d2a8600290920291820180546001600160a01b0319166001600160a01b0390921691909117905591517fc65a7bb8d6351c1cf70c95a316cc6a92839c986682d98bc35f958f4883f9d2a9909201919091555490917f03979a8c481a9e9c06938045cfd5c28535255cb003b10a8fe84ebb3cb4d440f29184916107ea91611d44565b6040805192835260208301919091520160405180910390a250565b60055f9054906101000a90046001600160a01b03166001600160a01b031663348ec5c86040518163ffffffff1660e01b8152600401602060405180830381865afa158015610855573d5f803e3d5ffd5b505050506040513d601f19601f820116820180604052508101906108799190611d57565b6001600160a01b0316336001600160a01b0316146108aa5760405163efb380d960e01b815260040160405180910390fd5b805f036108ca57604051634dfba02360e01b815260040160405180910390fd5b600855565b60055f9054906101000a90046001600160a01b03166001600160a01b031663348ec5c86040518163ffffffff1660e01b8152600401602060405180830381865afa15801561091f573d5f803e3d5ffd5b505050506040513d601f19601f820116820180604052508101906109439190611d57565b6001600160a01b0316336001600160a01b0316146109745760405163efb380d960e01b815260040160405180910390fd5b600955565b5f336109868582856113c4565b610991858585611440565b60019150505b9392505050565b5f6109c9817f0000000000000000000000000000000000000000000000000000000000000000611d72565b905090565b60055f9054906101000a90046001600160a01b03166001600160a01b0316633a0dad8e6040518163ffffffff1660e01b8152600401602060405180830381865afa158015610a1e573d5f803e3d5ffd5b505050506040513d601f19601f82011682018060405250810190610a429190611d57565b6001600160a01b0316336001600160a01b031614610a7357604051631af2ab4f60e31b815260040160405180910390fd5b610a7b61149d565b5f5b600a54811015610bd1575f600a8281548110610a9b57610a9b611d8b565b905f5260205f20906002020190505f610ab782600101546110bd565b600a805491925090610acb90600190611d44565b81548110610adb57610adb611d8b565b905f5260205f209060020201600a8481548110610afa57610afa611d8b565b5f9182526020909120825460029092020180546001600160a01b0319166001600160a01b03909216919091178155600191820154910155600a805480610b4257610b42611d9f565b5f8281526020812060025f199093019283020180546001600160a01b03191681556001015590558154610b7e906001600160a01b03168261150a565b8154600183015460408051918252602082018690526001600160a01b03909216917f782ea2005b7f873a0190a1ccb553c732171348d6e16d2b7d3d493c0677dc296e910160405180910390a25050610a7d565b50610bda611542565b565b5f6105f7825f61156c565b5f6040516318f2e47360e11b815260040160405180910390fd5b805f03610c21576040516314e6cbb960e11b815260040160405180910390fd5b335f90815260208190526040902054811115610c5057604051633c57b48560e21b815260040160405180910390fd5b610c5b333083611440565b604080518082019091523380825260208201838152600b8054600180820183555f83905294517f0175b7a638427703f0dbe7bb9bbf987a2551717b34e79f33b5b1008d1fa01db9600290920291820180546001600160a01b0319166001600160a01b0390921691909117905591517f0175b7a638427703f0dbe7bb9bbf987a2551717b34e79f33b5b1008d1fa01dba909201919091555490917fd72eb5d043f24a0168ae744d5c44f9596fd673a26bf74d9646bff4b844882d149184916107ea91611d44565b60606004805461055290611c9b565b600b8181548110610d3f575f80fd5b5f918252602090912060029091020180546001909101546001600160a01b03909116915082565b5f3361060a818585611440565b60055f9054906101000a90046001600160a01b03166001600160a01b0316633a0dad8e6040518163ffffffff1660e01b8152600401602060405180830381865afa158015610dc3573d5f803e3d5ffd5b505050506040513d601f19601f82011682018060405250810190610de79190611d57565b6001600160a01b0316336001600160a01b031614610e1857604051631af2ab4f60e31b815260040160405180910390fd5b610e2061149d565b5f5b600b54811015610bd1575f600b8281548110610e4057610e40611d8b565b905f5260205f2090600202019050600b6001600b80549050610e629190611d44565b81548110610e7257610e72611d8b565b905f5260205f209060020201600b8381548110610e9157610e91611d8b565b5f9182526020909120825460029092020180546001600160a01b0319166001600160a01b03909216919091178155600191820154910155600b805480610ed957610ed9611d9f565b5f8281526020812060025f199093019283020180546001600160a01b03191681556001908101919091559155810154610f1390309061159c565b5f610f218260010154610bdc565b90507f0000000000000000000000000000000000000000000000000000000000000000825460405163a9059cbb60e01b81526001600160a01b0391821660048201526024810184905291169063a9059cbb906044016020604051808303815f875af1158015610f92573d5f803e3d5ffd5b505050506040513d601f19601f82011682018060405250810190610fb69190611d25565b610fd3576040516312171d8360e31b815260040160405180910390fd5b8154600183015460408051918252602082018690526001600160a01b03909216917febad37b830b1857ef9af5983fc20dc0ded12dc472ba1e22e06fd3a9465b4506c910160405180910390a25050610e22565b5f6105f782600161156c565b5f604051628a595160e01b815260040160405180910390fd5b5f604051630ad8521960e31b815260040160405180910390fd5b5f60085461107161099e565b6105ed9060ff1684611ce7565b6001600160a01b0381165f908152602081905260408120546105f7905f61156c565b6001600160a01b0381165f908152602081905260408120546105f7565b5f6105f7825f611391565b600a8181548110610d3f575f80fd5b6006546001600160a01b03163314611102576040516356b381a560e01b815260040160405180910390fd5b5f81900361112357604051631121aa8d60e01b815260040160405180910390fd5b61112d600c6115d0565b5f805b828110156112b7575f84848381811061114b5761114b611d8b565b6111619260206040909202019081019150611b76565b90505f85858481811061117657611176611d8b565b905060400201602001602081019061118e9190611db3565b600554604051633af32abf60e01b81526001600160a01b038581166004830152929350911690633af32abf90602401602060405180830381865afa1580156111d8573d5f803e3d5ffd5b505050506040513d601f19601f820116820180604052508101906111fc9190611d25565b6112245760405163751dff9760e11b81526001600160a01b0383166004820152602401610667565b8063ffffffff165f0361125557604051636b30633560e01b81526001600160a01b0383166004820152602401610667565b5f61126b600c8463ffffffff808616906115dc16565b905080611296576040516346bdabe160e01b81526001600160a01b0384166004820152602401610667565b6112a663ffffffff831686611dd6565b945050600190920191506111309050565b506005546040805163d1717c7d60e01b815290515f926001600160a01b03169163d1717c7d9160048083019260209291908290030181865afa1580156112ff573d5f803e3d5ffd5b505050506040513d601f19601f820116820180604052508101906113239190611de9565b905061133081600a611eec565b821461134f576040516324204a3560e21b815260040160405180910390fd5b60405133907f2d47a742b8d7df7c1fc5a9a631b206b364e6cb2722490759f63bb3ab14b132e0905f90a250505050565b61138c83838360016115f9565b505050565b5f6109976113a082600a611eec565b6002546113ad9190611dd6565b6009546113bb906001611dd6565b859190856116cb565b6001600160a01b038381165f908152600160209081526040808320938616835292905220545f1981101561143a578181101561142c57604051637dc7a0d960e11b81526001600160a01b03841660048201526024810182905260448101839052606401610667565b61143a84848484035f6115f9565b50505050565b6001600160a01b03831661146957604051634b637e8f60e11b81525f6004820152602401610667565b6001600160a01b0382166114925760405163ec442f0560e01b81525f6004820152602401610667565b61138c838383611716565b7f9b779b17422d0df92223018b32b4d1fa46e071723d6817e2486d003becc55f005c156114dd57604051633ee5aeb560e01b815260040160405180910390fd5b610bda60017f9b779b17422d0df92223018b32b4d1fa46e071723d6817e2486d003becc55f005b9061183c565b6001600160a01b0382166115335760405163ec442f0560e01b81525f6004820152602401610667565b61153e5f8383611716565b5050565b610bda5f7f9b779b17422d0df92223018b32b4d1fa46e071723d6817e2486d003becc55f00611504565b5f61099761157960095490565b611584906001611dd6565b61158f5f600a611eec565b6002546113bb9190611dd6565b6001600160a01b0382166115c557604051634b637e8f60e11b81525f6004820152602401610667565b61153e825f83611716565b6115d981611843565b50565b5f6115f1846001600160a01b0385168461188c565b949350505050565b6001600160a01b0384166116225760405163e602df0560e01b81525f6004820152602401610667565b6001600160a01b03831661164b57604051634a1406b160e11b81525f6004820152602401610667565b6001600160a01b038085165f908152600160209081526040808320938716835292905220829055801561143a57826001600160a01b0316846001600160a01b03167f8c5be1e5ebec7d5bd14f71427d1e84f3dd0314c0f7b2291e5b200ac8c7c3b925846040516116bd91815260200190565b60405180910390a350505050565b5f6116f86116d8836118a8565b80156116f357505f84806116ee576116ee611cfe565b868809115b151590565b6117038686866118d4565b61170d9190611dd6565b95945050505050565b6001600160a01b038316611740578060025f8282546117359190611dd6565b909155506117b09050565b6001600160a01b0383165f90815260208190526040902054818110156117925760405163391434e360e21b81526001600160a01b03851660048201526024810182905260448101839052606401610667565b6001600160a01b0384165f9081526020819052604090209082900390555b6001600160a01b0382166117cc576002805482900390556117ea565b6001600160a01b0382165f9081526020819052604090208054820190555b816001600160a01b0316836001600160a01b03167fddf252ad1be2c89b69c2b068fc378daa952ba7f163c4a11628f55a4df523b3ef8360405161182f91815260200190565b60405180910390a3505050565b80825d5050565b5f61184d82611984565b90505f5b8181101561188257600283015f611868858461198e565b815260208101919091526040015f90812055600101611851565b5061153e82611999565b5f82815260028401602052604081208290556115f184846119a2565b5f60028260038111156118bd576118bd611efa565b6118c79190611f0e565b60ff166001149050919050565b5f805f6118e186866119ad565b91509150815f03611905578381816118fb576118fb611cfe565b0492505050610997565b81841161191c5761191c60038515026011186119c9565b5f848688095f868103871696879004966002600389028118808a02820302808a02820302808a02820302808a02820302808a02820302808a02909103029181900381900460010185841190960395909502919093039390930492909217029150509392505050565b5f6105f7826119da565b5f61099783836119e3565b6115d981611a09565b5f6109978383611a62565b5f805f1983850993909202808410938190039390930393915050565b634e487b715f52806020526024601cfd5b5f6105f7825490565b5f825f0182815481106119f8576119f8611d8b565b905f5260205f200154905092915050565b5f611a12825490565b90505f5b81811015611a5b57826001015f845f018381548110611a3757611a37611d8b565b905f5260205f20015481526020019081526020015f205f9055806001019050611a16565b50505f9055565b5f818152600183016020526040812054611aa757508154600181810184555f8481526020808220909301849055845484825282860190935260409020919091556105f7565b505f6105f7565b602081525f82518060208401528060208501604085015e5f604082850101526040601f19601f83011684010191505092915050565b5f60208284031215611af3575f80fd5b5035919050565b6001600160a01b03811681146115d9575f80fd5b5f8060408385031215611b1f575f80fd5b8235611b2a81611afa565b946020939093013593505050565b5f805f60608486031215611b4a575f80fd5b8335611b5581611afa565b92506020840135611b6581611afa565b929592945050506040919091013590565b5f60208284031215611b86575f80fd5b813561099781611afa565b5f8060408385031215611ba2575f80fd5b823591506020830135611bb481611afa565b809150509250929050565b5f805f60608486031215611bd1575f80fd5b833592506020840135611be381611afa565b91506040840135611bf381611afa565b809150509250925092565b5f8060408385031215611c0f575f80fd5b8235611c1a81611afa565b91506020830135611bb481611afa565b5f8060208385031215611c3b575f80fd5b823567ffffffffffffffff811115611c51575f80fd5b8301601f81018513611c61575f80fd5b803567ffffffffffffffff811115611c77575f80fd5b8560208260061b8401011115611c8b575f80fd5b6020919091019590945092505050565b600181811c90821680611caf57607f821691505b602082108103611ccd57634e487b7160e01b5f52602260045260245ffd5b50919050565b634e487b7160e01b5f52601160045260245ffd5b80820281158282048414176105f7576105f7611cd3565b634e487b7160e01b5f52601260045260245ffd5b5f82611d2057611d20611cfe565b500490565b5f60208284031215611d35575f80fd5b81518015158114610997575f80fd5b818103818111156105f7576105f7611cd3565b5f60208284031215611d67575f80fd5b815161099781611afa565b60ff81811683821601908111156105f7576105f7611cd3565b634e487b7160e01b5f52603260045260245ffd5b634e487b7160e01b5f52603160045260245ffd5b5f60208284031215611dc3575f80fd5b813563ffffffff81168114610997575f80fd5b808201808211156105f7576105f7611cd3565b5f60208284031215611df9575f80fd5b815160ff81168114610997575f80fd5b6001815b6001841115611e4457808504811115611e2857611e28611cd3565b6001841615611e3657908102905b60019390931c928002611e0d565b935093915050565b5f82611e5a575060016105f7565b81611e6657505f6105f7565b8160018114611e7c5760028114611e8657611ea2565b60019150506105f7565b60ff841115611e9757611e97611cd3565b50506001821b6105f7565b5060208310610133831016604e8410600b8410161715611ec5575081810a6105f7565b611ed15f198484611e09565b805f1904821115611ee457611ee4611cd3565b029392505050565b5f61099760ff841683611e4c565b634e487b7160e01b5f52602160045260245ffd5b5f60ff831680611f2057611f20611cfe565b8060ff8416069150509291505056fea264697066735822122071f005b67d571bc2a8a32ce06bf7ceacd24f612eac819f91b912fc131af124d164736f6c634300081a0033a2646970667358221220a3743503cd034857294734b57b9191f4141551fc7a513cf43708d375f803fa9864736f6c634300081a0033",
  "linkReferences": {},
  "deployedLinkReferences": {}
}