{
  "_format": "hh-sol-artifact-1",
  "contractName": "OrionVaultFactory",
  "sourceName": "contracts/OrionVaultFactory.sol",
  "abi": [
    {
      "inputs": [
        {
          "internalType": "address",
          "name": "target",
          "type": "address"
        }
      ],
      "name": "AddressEmptyCode",
      "type": "error"
    },
    {
      "inputs": [
        {
          "internalType": "address",
          "name": "implementation",
          "type": "address"
        }
      ],
      "name": "ERC1967InvalidImplementation",
      "type": "error"
    },
    {
      "inputs": [],
      "name": "ERC1967NonPayable",
      "type": "error"
    },
    {
      "inputs": [],
      "name": "FailedCall",
      "type": "error"
    },
    {
      "inputs": [],
      "name": "InvalidInitialization",
      "type": "error"
    },
    {
      "inputs": [],
      "name": "NotInitializing",
      "type": "error"
    },
    {
      "inputs": [
        {
          "internalType": "address",
          "name": "owner",
          "type": "address"
        }
      ],
      "name": "OwnableInvalidOwner",
      "type": "error"
    },
    {
      "inputs": [
        {
          "internalType": "address",
          "name": "account",
          "type": "address"
        }
      ],
      "name": "OwnableUnauthorizedAccount",
      "type": "error"
    },
    {
      "inputs": [],
      "name": "ReentrancyGuardReentrantCall",
      "type": "error"
    },
    {
      "inputs": [],
      "name": "UUPSUnauthorizedCallContext",
      "type": "error"
    },
    {
      "inputs": [
        {
          "internalType": "bytes32",
          "name": "slot",
          "type": "bytes32"
        }
      ],
      "name": "UUPSUnsupportedProxiableUUID",
      "type": "error"
    },
    {
      "inputs": [],
      "name": "ZeroAddress",
      "type": "error"
    },
    {
      "anonymous": false,
      "inputs": [
        {
          "indexed": false,
          "internalType": "uint64",
          "name": "version",
          "type": "uint64"
        }
      ],
      "name": "Initialized",
      "type": "event"
    },
    {
      "anonymous": false,
      "inputs": [
        {
          "indexed": true,
          "internalType": "address",
          "name": "vault",
          "type": "address"
        },
        {
          "indexed": true,
          "internalType": "address",
          "name": "curator",
          "type": "address"
        },
        {
          "indexed": true,
          "internalType": "address",
          "name": "deployer",
          "type": "address"
        },
        {
          "indexed": false,
          "internalType": "enum EventsLib.VaultType",
          "name": "vaultType",
          "type": "uint8"
        }
      ],
      "name": "OrionVaultCreated",
      "type": "event"
    },
    {
      "anonymous": false,
      "inputs": [
        {
          "indexed": true,
          "internalType": "address",
          "name": "previousOwner",
          "type": "address"
        },
        {
          "indexed": true,
          "internalType": "address",
          "name": "newOwner",
          "type": "address"
        }
      ],
      "name": "OwnershipTransferStarted",
      "type": "event"
    },
    {
      "anonymous": false,
      "inputs": [
        {
          "indexed": true,
          "internalType": "address",
          "name": "previousOwner",
          "type": "address"
        },
        {
          "indexed": true,
          "internalType": "address",
          "name": "newOwner",
          "type": "address"
        }
      ],
      "name": "OwnershipTransferred",
      "type": "event"
    },
    {
      "anonymous": false,
      "inputs": [
        {
          "indexed": true,
          "internalType": "address",
          "name": "implementation",
          "type": "address"
        }
      ],
      "name": "Upgraded",
      "type": "event"
    },
    {
      "inputs": [],
      "name": "UPGRADE_INTERFACE_VERSION",
      "outputs": [
        {
          "internalType": "string",
          "name": "",
          "type": "string"
        }
      ],
      "stateMutability": "view",
      "type": "function"
    },
    {
      "inputs": [],
      "name": "acceptOwnership",
      "outputs": [],
      "stateMutability": "nonpayable",
      "type": "function"
    },
    {
      "inputs": [],
      "name": "config",
      "outputs": [
        {
          "internalType": "contract IOrionConfig",
          "name": "",
          "type": "address"
        }
      ],
      "stateMutability": "view",
      "type": "function"
    },
    {
      "inputs": [
        {
          "internalType": "address",
          "name": "curator",
          "type": "address"
        },
        {
          "internalType": "string",
          "name": "name",
          "type": "string"
        },
        {
          "internalType": "string",
          "name": "symbol",
          "type": "string"
        }
      ],
      "name": "createOrionEncryptedVault",
      "outputs": [
        {
          "internalType": "address",
          "name": "vault",
          "type": "address"
        }
      ],
      "stateMutability": "nonpayable",
      "type": "function"
    },
    {
      "inputs": [
        {
          "internalType": "address",
          "name": "curator",
          "type": "address"
        },
        {
          "internalType": "string",
          "name": "name",
          "type": "string"
        },
        {
          "internalType": "string",
          "name": "symbol",
          "type": "string"
        }
      ],
      "name": "createOrionTransparentVault",
      "outputs": [
        {
          "internalType": "address",
          "name": "vault",
          "type": "address"
        }
      ],
      "stateMutability": "nonpayable",
      "type": "function"
    },
    {
      "inputs": [],
      "name": "deployer",
      "outputs": [
        {
          "internalType": "address",
          "name": "",
          "type": "address"
        }
      ],
      "stateMutability": "view",
      "type": "function"
    },
    {
      "inputs": [],
      "name": "encryptedVaultImplementation",
      "outputs": [
        {
          "internalType": "address",
          "name": "",
          "type": "address"
        }
      ],
      "stateMutability": "view",
      "type": "function"
    },
    {
      "inputs": [
        {
          "internalType": "address",
          "name": "initialOwner",
          "type": "address"
        },
        {
          "internalType": "address",
          "name": "configAddress",
          "type": "address"
        }
      ],
      "name": "initialize",
      "outputs": [],
      "stateMutability": "nonpayable",
      "type": "function"
    },
    {
      "inputs": [],
      "name": "owner",
      "outputs": [
        {
          "internalType": "address",
          "name": "",
          "type": "address"
        }
      ],
      "stateMutability": "view",
      "type": "function"
    },
    {
      "inputs": [],
      "name": "pendingOwner",
      "outputs": [
        {
          "internalType": "address",
          "name": "",
          "type": "address"
        }
      ],
      "stateMutability": "view",
      "type": "function"
    },
    {
      "inputs": [],
      "name": "proxiableUUID",
      "outputs": [
        {
          "internalType": "bytes32",
          "name": "",
          "type": "bytes32"
        }
      ],
      "stateMutability": "view",
      "type": "function"
    },
    {
      "inputs": [],
      "name": "renounceOwnership",
      "outputs": [],
      "stateMutability": "nonpayable",
      "type": "function"
    },
    {
      "inputs": [
        {
          "internalType": "address",
          "name": "transparentImpl",
          "type": "address"
        },
        {
          "internalType": "address",
          "name": "encryptedImpl",
          "type": "address"
        }
      ],
      "name": "setImplementations",
      "outputs": [],
      "stateMutability": "nonpayable",
      "type": "function"
    },
    {
      "inputs": [
        {
          "internalType": "address",
          "name": "newOwner",
          "type": "address"
        }
      ],
      "name": "transferOwnership",
      "outputs": [],
      "stateMutability": "nonpayable",
      "type": "function"
    },
    {
      "inputs": [],
      "name": "transparentVaultImplementation",
      "outputs": [
        {
          "internalType": "address",
          "name": "",
          "type": "address"
        }
      ],
      "stateMutability": "view",
      "type": "function"
    },
    {
      "inputs": [
        {
          "internalType": "address",
          "name": "newConfig",
          "type": "address"
        }
      ],
      "name": "updateConfig",
      "outputs": [],
      "stateMutability": "nonpayable",
      "type": "function"
    },
    {
      "inputs": [
        {
          "internalType": "address",
          "name": "newImplementation",
          "type": "address"
        },
        {
          "internalType": "bytes",
          "name": "data",
          "type": "bytes"
        }
      ],
      "name": "upgradeToAndCall",
      "outputs": [],
      "stateMutability": "payable",
      "type": "function"
    }
  ],
  "bytecode": "0x60a0604052306080523480156012575f80fd5b506080516116cb6100395f395f8181610a8e01528181610ab70152610bfb01526116cb5ff3fe6080604052600436106100fa575f3560e01c806385bff34111610092578063c3983f6911610062578063c3983f6914610285578063c544d8dc146102a4578063d5f39488146102c3578063e30c3978146102e1578063f2fde38b146102f5575f80fd5b806385bff341146101f65780638da5cb5b146102155780639c6aac9514610229578063ad3cb1cc14610248575f80fd5b80636cc919c8116100cd5780636cc919c814610190578063715018a6146101af57806379502c55146101c357806379ba5097146101e2575f80fd5b806310e43b2d146100fe578063485cc9551461013a5780634f1ef2861461015b57806352d1902d1461016e575b5f80fd5b348015610109575f80fd5b5060025461011d906001600160a01b031681565b6040516001600160a01b0390911681526020015b60405180910390f35b348015610145575f80fd5b50610159610154366004610f8c565b610314565b005b610159610169366004610fd1565b610463565b348015610179575f80fd5b50610182610482565b604051908152602001610131565b34801561019b575f80fd5b506101596101aa366004611095565b61049d565b3480156101ba575f80fd5b506101596104c7565b3480156101ce575f80fd5b5060015461011d906001600160a01b031681565b3480156101ed575f80fd5b506101596104da565b348015610201575f80fd5b50610159610210366004610f8c565b610527565b348015610220575f80fd5b5061011d6105ab565b348015610234575f80fd5b5060035461011d906001600160a01b031681565b348015610253575f80fd5b50610278604051806040016040528060058152602001640352e302e360dc1b81525081565b60405161013191906110dc565b348015610290575f80fd5b5061011d61029f366004611133565b6105df565b3480156102af575f80fd5b5061011d6102be366004611133565b6107d2565b3480156102ce575f80fd5b505f5461011d906001600160a01b031681565b3480156102ec575f80fd5b5061011d610986565b348015610300575f80fd5b5061015961030f366004611095565b6109ae565b7ff0c57e16840df040f15088dc2f81fe391c3923bec73e23a9662efc9c229c6a008054600160401b810460ff16159067ffffffffffffffff165f811580156103595750825b90505f8267ffffffffffffffff1660011480156103755750303b155b905081158015610383575080155b156103a15760405163f92ee8a960e01b815260040160405180910390fd5b845467ffffffffffffffff1916600117855583156103cb57845460ff60401b1916600160401b1785555b6103d3610a33565b6103db610a33565b6103e3610a3b565b6103ec87610a4b565b5f8054336001600160a01b031991821617909155600180549091166001600160a01b038816179055831561045a57845460ff60401b19168555604051600181527fc7f505b2f371ae2175ee4913f4499e1f2633a7b5936321eed1cdaeb6115181d29060200160405180910390a15b50505050505050565b61046b610a83565b61047482610b27565b61047e8282610b2f565b5050565b5f61048b610bf0565b505f8051602061167683398151915290565b6104a5610c39565b600180546001600160a01b0319166001600160a01b0392909216919091179055565b6104cf610c39565b6104d85f610a4b565b565b33806104e4610986565b6001600160a01b03161461051b5760405163118cdaa760e01b81526001600160a01b03821660048201526024015b60405180910390fd5b61052481610a4b565b50565b61052f610c39565b6001600160a01b0382166105565760405163d92e233d60e01b815260040160405180910390fd5b6001600160a01b03811661057d5760405163d92e233d60e01b815260040160405180910390fd5b600280546001600160a01b039384166001600160a01b03199182161790915560038054929093169116179055565b5f807f9016d09d72d40fdae2fd8ceac6b6234c7706214fd39c1cd1e609a0528c1993005b546001600160a01b031692915050565b5f6105e8610c6b565b6001600160a01b03861661060f5760405163d92e233d60e01b815260040160405180910390fd5b6003546001600160a01b03166106385760405163d92e233d60e01b815260040160405180910390fd5b6001546040515f9163100b506960e11b9161066b918a916001600160a01b03909116908a908a908a908a906024016111db565b60408051601f198184030181529181526020820180516001600160e01b03166001600160e01b03199094169390931790925260035491519092505f916001600160a01b03169083906106bc90610f64565b6106c7929190611227565b604051809103905ff0801580156106e0573d5f803e3d5ffd5b50600180546040516309ba86ff60e31b81526001600160a01b03808516600483015260248201939093529295508593501690634dd437f8906044015f604051808303815f87803b158015610732575f80fd5b505af1158015610744573d5f803e3d5ffd5b50505050336001600160a01b0316886001600160a01b0316846001600160a01b03167fe36cd15f95d58db8766da292a38b27881bfaf9bdb8c464d9855d4e56bc40e7bf60016040516107969190611252565b60405180910390a450506107c960017f9b779b17422d0df92223018b32b4d1fa46e071723d6817e2486d003becc55f0055565b95945050505050565b5f6107db610c6b565b6001600160a01b0386166108025760405163d92e233d60e01b815260040160405180910390fd5b6002546001600160a01b031661082b5760405163d92e233d60e01b815260040160405180910390fd5b6001546040515f9163100b506960e11b9161085e918a916001600160a01b03909116908a908a908a908a906024016111db565b60408051601f198184030181529181526020820180516001600160e01b03166001600160e01b03199094169390931790925260025491519092505f916001600160a01b03169083906108af90610f64565b6108ba929190611227565b604051809103905ff0801580156108d3573d5f803e3d5ffd5b506001546040516309ba86ff60e31b81526001600160a01b0380841660048301525f6024830152929550859350911690634dd437f8906044015f604051808303815f87803b158015610923575f80fd5b505af1158015610935573d5f803e3d5ffd5b50505050336001600160a01b0316886001600160a01b0316846001600160a01b03167fe36cd15f95d58db8766da292a38b27881bfaf9bdb8c464d9855d4e56bc40e7bf5f6040516107969190611252565b5f807f237e158222e3e6968b72b9db0d8043aacf074ad9f650f0d1606b4d82ee432c006105cf565b6109b6610c39565b7f237e158222e3e6968b72b9db0d8043aacf074ad9f650f0d1606b4d82ee432c0080546001600160a01b0319166001600160a01b03831690811782556109fa6105ab565b6001600160a01b03167f38d16b8cac22d99fc7c124b9cd0de2d3fa1faef420bfe791d8c362d765e2270060405160405180910390a35050565b6104d8610cdb565b610a43610cdb565b6104d8610d24565b7f237e158222e3e6968b72b9db0d8043aacf074ad9f650f0d1606b4d82ee432c0080546001600160a01b031916815561047e82610d2c565b306001600160a01b037f0000000000000000000000000000000000000000000000000000000000000000161480610b0957507f00000000000000000000000000000000000000000000000000000000000000006001600160a01b0316610afd5f80516020611676833981519152546001600160a01b031690565b6001600160a01b031614155b156104d85760405163703e46dd60e11b815260040160405180910390fd5b610524610c39565b816001600160a01b03166352d1902d6040518163ffffffff1660e01b8152600401602060405180830381865afa925050508015610b89575060408051601f3d908101601f19168201909252610b8691810190611278565b60015b610bb157604051634c9c8ce360e01b81526001600160a01b0383166004820152602401610512565b5f805160206116768339815191528114610be157604051632a87526960e21b815260048101829052602401610512565b610beb8383610d9c565b505050565b306001600160a01b037f000000000000000000000000000000000000000000000000000000000000000016146104d85760405163703e46dd60e11b815260040160405180910390fd5b33610c426105ab565b6001600160a01b0316146104d85760405163118cdaa760e01b8152336004820152602401610512565b7f9b779b17422d0df92223018b32b4d1fa46e071723d6817e2486d003becc55f00805460011901610caf57604051633ee5aeb560e01b815260040160405180910390fd5b60029055565b60017f9b779b17422d0df92223018b32b4d1fa46e071723d6817e2486d003becc55f0055565b7ff0c57e16840df040f15088dc2f81fe391c3923bec73e23a9662efc9c229c6a0054600160401b900460ff166104d857604051631afcd79f60e31b815260040160405180910390fd5b610cb5610cdb565b7f9016d09d72d40fdae2fd8ceac6b6234c7706214fd39c1cd1e609a0528c19930080546001600160a01b031981166001600160a01b03848116918217845560405192169182907f8be0079c531659141344cd1fd0a4f28419497f9722a3daafe3b4186f6b6457e0905f90a3505050565b610da582610df1565b6040516001600160a01b038316907fbc7cd75a20ee27fd9adebab32041f755214dbc6bffa90cc0225b39da2e5c2d3b905f90a2805115610de957610beb8282610e54565b61047e610ebd565b806001600160a01b03163b5f03610e2657604051634c9c8ce360e01b81526001600160a01b0382166004820152602401610512565b5f8051602061167683398151915280546001600160a01b0319166001600160a01b0392909216919091179055565b60605f80846001600160a01b031684604051610e70919061128f565b5f60405180830381855af49150503d805f8114610ea8576040519150601f19603f3d011682016040523d82523d5f602084013e610ead565b606091505b50915091506107c9858383610edc565b34156104d85760405163b398979f60e01b815260040160405180910390fd5b606082610ef157610eec82610f3b565b610f34565b8151158015610f0857506001600160a01b0384163b155b15610f3157604051639996b31560e01b81526001600160a01b0385166004820152602401610512565b50805b9392505050565b805115610f4b5780518082602001fd5b60405163d6bda27560e01b815260040160405180910390fd5b6103d0806112a683390190565b80356001600160a01b0381168114610f87575f80fd5b919050565b5f8060408385031215610f9d575f80fd5b610fa683610f71565b9150610fb460208401610f71565b90509250929050565b634e487b7160e01b5f52604160045260245ffd5b5f8060408385031215610fe2575f80fd5b610feb83610f71565b9150602083013567ffffffffffffffff811115611006575f80fd5b8301601f81018513611016575f80fd5b803567ffffffffffffffff81111561103057611030610fbd565b604051601f8201601f19908116603f0116810167ffffffffffffffff8111828210171561105f5761105f610fbd565b604052818152828201602001871015611076575f80fd5b816020840160208301375f602083830101528093505050509250929050565b5f602082840312156110a5575f80fd5b610f3482610f71565b5f81518084528060208401602086015e5f602082860101526020601f19601f83011685010191505092915050565b602081525f610f3460208301846110ae565b5f8083601f8401126110fe575f80fd5b50813567ffffffffffffffff811115611115575f80fd5b60208301915083602082850101111561112c575f80fd5b9250929050565b5f805f805f60608688031215611147575f80fd5b61115086610f71565b9450602086013567ffffffffffffffff81111561116b575f80fd5b611177888289016110ee565b909550935050604086013567ffffffffffffffff811115611196575f80fd5b6111a2888289016110ee565b969995985093965092949392505050565b81835281816020850137505f828201602090810191909152601f909101601f19169091010190565b6001600160a01b038781168252861660208201526080604082018190525f9061120790830186886111b3565b828103606084015261121a8185876111b3565b9998505050505050505050565b6001600160a01b03831681526040602082018190525f9061124a908301846110ae565b949350505050565b602081016002831061127257634e487b7160e01b5f52602160045260245ffd5b91905290565b5f60208284031215611288575f80fd5b5051919050565b5f82518060208501845e5f92019182525091905056fe60806040526040516103d03803806103d08339810160408190526100229161023c565b61002c8282610033565b5050610321565b61003c82610091565b6040516001600160a01b038316907fbc7cd75a20ee27fd9adebab32041f755214dbc6bffa90cc0225b39da2e5c2d3b905f90a280511561008557610080828261010c565b505050565b61008d61017f565b5050565b806001600160a01b03163b5f036100cb57604051634c9c8ce360e01b81526001600160a01b03821660048201526024015b60405180910390fd5b7f360894a13ba1a3210667c828492db98dca3e2076cc3735a920a3ca505d382bbc80546001600160a01b0319166001600160a01b0392909216919091179055565b60605f80846001600160a01b031684604051610128919061030b565b5f60405180830381855af49150503d805f8114610160576040519150601f19603f3d011682016040523d82523d5f602084013e610165565b606091505b5090925090506101768583836101a0565b95945050505050565b341561019e5760405163b398979f60e01b815260040160405180910390fd5b565b6060826101b5576101b0826101ff565b6101f8565b81511580156101cc57506001600160a01b0384163b155b156101f557604051639996b31560e01b81526001600160a01b03851660048201526024016100c2565b50805b9392505050565b80511561020f5780518082602001fd5b60405163d6bda27560e01b815260040160405180910390fd5b634e487b7160e01b5f52604160045260245ffd5b5f806040838503121561024d575f80fd5b82516001600160a01b0381168114610263575f80fd5b60208401519092506001600160401b0381111561027e575f80fd5b8301601f8101851361028e575f80fd5b80516001600160401b038111156102a7576102a7610228565b604051601f8201601f19908116603f011681016001600160401b03811182821017156102d5576102d5610228565b6040528181528282016020018710156102ec575f80fd5b8160208401602083015e5f602083830101528093505050509250929050565b5f82518060208501845e5f920191825250919050565b60a38061032d5f395ff3fe6080604052600a600c565b005b60186014601a565b6050565b565b5f604b7f360894a13ba1a3210667c828492db98dca3e2076cc3735a920a3ca505d382bbc546001600160a01b031690565b905090565b365f80375f80365f845af43d5f803e8080156069573d5ff35b3d5ffdfea2646970667358221220605015fed861e1730b4bb5b7a26ac4348c000104dd1b3215ec38639b2f6e232264736f6c634300081a0033360894a13ba1a3210667c828492db98dca3e2076cc3735a920a3ca505d382bbca2646970667358221220cee8bf79f9085c5b480060841787b717c1375a1ebc31bbd036726a59ca9ffe6e64736f6c634300081a0033",
  "linkReferences": {},
  "deployedLinkReferences": {}
}