{
  "_format": "hh-sol-artifact-1",
  "contractName": "OrionVaultFactory",
  "sourceName": "contracts/OrionVaultFactory.sol",
  "abi": [
    {
      "inputs": [
        {
          "internalType": "address",
          "name": "target",
          "type": "address"
        }
      ],
      "name": "AddressEmptyCode",
      "type": "error"
    },
    {
      "inputs": [
        {
          "internalType": "address",
          "name": "implementation",
          "type": "address"
        }
      ],
      "name": "ERC1967InvalidImplementation",
      "type": "error"
    },
    {
      "inputs": [],
      "name": "ERC1967NonPayable",
      "type": "error"
    },
    {
      "inputs": [],
      "name": "FailedCall",
      "type": "error"
    },
    {
      "inputs": [],
      "name": "InvalidInitialization",
      "type": "error"
    },
    {
      "inputs": [],
      "name": "NotInitializing",
      "type": "error"
    },
    {
      "inputs": [
        {
          "internalType": "address",
          "name": "owner",
          "type": "address"
        }
      ],
      "name": "OwnableInvalidOwner",
      "type": "error"
    },
    {
      "inputs": [
        {
          "internalType": "address",
          "name": "account",
          "type": "address"
        }
      ],
      "name": "OwnableUnauthorizedAccount",
      "type": "error"
    },
    {
      "inputs": [],
      "name": "UUPSUnauthorizedCallContext",
      "type": "error"
    },
    {
      "inputs": [
        {
          "internalType": "bytes32",
          "name": "slot",
          "type": "bytes32"
        }
      ],
      "name": "UUPSUnsupportedProxiableUUID",
      "type": "error"
    },
    {
      "anonymous": false,
      "inputs": [
        {
          "indexed": false,
          "internalType": "uint64",
          "name": "version",
          "type": "uint64"
        }
      ],
      "name": "Initialized",
      "type": "event"
    },
    {
      "anonymous": false,
      "inputs": [
        {
          "indexed": true,
          "internalType": "address",
          "name": "vault",
          "type": "address"
        },
        {
          "indexed": true,
          "internalType": "address",
          "name": "curator",
          "type": "address"
        },
        {
          "indexed": true,
          "internalType": "address",
          "name": "deployer",
          "type": "address"
        },
        {
          "indexed": false,
          "internalType": "enum OrionVaultFactory.VaultType",
          "name": "vaultType",
          "type": "uint8"
        }
      ],
      "name": "OrionVaultCreated",
      "type": "event"
    },
    {
      "anonymous": false,
      "inputs": [
        {
          "indexed": true,
          "internalType": "address",
          "name": "previousOwner",
          "type": "address"
        },
        {
          "indexed": true,
          "internalType": "address",
          "name": "newOwner",
          "type": "address"
        }
      ],
      "name": "OwnershipTransferStarted",
      "type": "event"
    },
    {
      "anonymous": false,
      "inputs": [
        {
          "indexed": true,
          "internalType": "address",
          "name": "previousOwner",
          "type": "address"
        },
        {
          "indexed": true,
          "internalType": "address",
          "name": "newOwner",
          "type": "address"
        }
      ],
      "name": "OwnershipTransferred",
      "type": "event"
    },
    {
      "anonymous": false,
      "inputs": [
        {
          "indexed": true,
          "internalType": "address",
          "name": "implementation",
          "type": "address"
        }
      ],
      "name": "Upgraded",
      "type": "event"
    },
    {
      "inputs": [],
      "name": "UPGRADE_INTERFACE_VERSION",
      "outputs": [
        {
          "internalType": "string",
          "name": "",
          "type": "string"
        }
      ],
      "stateMutability": "view",
      "type": "function"
    },
    {
      "inputs": [],
      "name": "acceptOwnership",
      "outputs": [],
      "stateMutability": "nonpayable",
      "type": "function"
    },
    {
      "inputs": [],
      "name": "config",
      "outputs": [
        {
          "internalType": "contract IOrionConfig",
          "name": "",
          "type": "address"
        }
      ],
      "stateMutability": "view",
      "type": "function"
    },
    {
      "inputs": [
        {
          "internalType": "address",
          "name": "curator",
          "type": "address"
        },
        {
          "internalType": "string",
          "name": "name",
          "type": "string"
        },
        {
          "internalType": "string",
          "name": "symbol",
          "type": "string"
        }
      ],
      "name": "createOrionEncryptedVault",
      "outputs": [
        {
          "internalType": "address",
          "name": "vault",
          "type": "address"
        }
      ],
      "stateMutability": "nonpayable",
      "type": "function"
    },
    {
      "inputs": [
        {
          "internalType": "address",
          "name": "curator",
          "type": "address"
        },
        {
          "internalType": "string",
          "name": "name",
          "type": "string"
        },
        {
          "internalType": "string",
          "name": "symbol",
          "type": "string"
        }
      ],
      "name": "createOrionTransparentVault",
      "outputs": [
        {
          "internalType": "address",
          "name": "vault",
          "type": "address"
        }
      ],
      "stateMutability": "nonpayable",
      "type": "function"
    },
    {
      "inputs": [],
      "name": "deployer",
      "outputs": [
        {
          "internalType": "address",
          "name": "",
          "type": "address"
        }
      ],
      "stateMutability": "view",
      "type": "function"
    },
    {
      "inputs": [],
      "name": "encryptedVaultImplementation",
      "outputs": [
        {
          "internalType": "address",
          "name": "",
          "type": "address"
        }
      ],
      "stateMutability": "view",
      "type": "function"
    },
    {
      "inputs": [
        {
          "internalType": "address",
          "name": "initialOwner",
          "type": "address"
        },
        {
          "internalType": "address",
          "name": "_config",
          "type": "address"
        }
      ],
      "name": "initialize",
      "outputs": [],
      "stateMutability": "nonpayable",
      "type": "function"
    },
    {
      "inputs": [],
      "name": "owner",
      "outputs": [
        {
          "internalType": "address",
          "name": "",
          "type": "address"
        }
      ],
      "stateMutability": "view",
      "type": "function"
    },
    {
      "inputs": [],
      "name": "pendingOwner",
      "outputs": [
        {
          "internalType": "address",
          "name": "",
          "type": "address"
        }
      ],
      "stateMutability": "view",
      "type": "function"
    },
    {
      "inputs": [],
      "name": "proxiableUUID",
      "outputs": [
        {
          "internalType": "bytes32",
          "name": "",
          "type": "bytes32"
        }
      ],
      "stateMutability": "view",
      "type": "function"
    },
    {
      "inputs": [],
      "name": "renounceOwnership",
      "outputs": [],
      "stateMutability": "nonpayable",
      "type": "function"
    },
    {
      "inputs": [
        {
          "internalType": "address",
          "name": "_transparentImpl",
          "type": "address"
        },
        {
          "internalType": "address",
          "name": "_encryptedImpl",
          "type": "address"
        }
      ],
      "name": "setImplementations",
      "outputs": [],
      "stateMutability": "nonpayable",
      "type": "function"
    },
    {
      "inputs": [
        {
          "internalType": "address",
          "name": "newOwner",
          "type": "address"
        }
      ],
      "name": "transferOwnership",
      "outputs": [],
      "stateMutability": "nonpayable",
      "type": "function"
    },
    {
      "inputs": [],
      "name": "transparentVaultImplementation",
      "outputs": [
        {
          "internalType": "address",
          "name": "",
          "type": "address"
        }
      ],
      "stateMutability": "view",
      "type": "function"
    },
    {
      "inputs": [
        {
          "internalType": "address",
          "name": "_newConfig",
          "type": "address"
        }
      ],
      "name": "updateConfig",
      "outputs": [],
      "stateMutability": "nonpayable",
      "type": "function"
    },
    {
      "inputs": [
        {
          "internalType": "address",
          "name": "_newTransparentImpl",
          "type": "address"
        },
        {
          "internalType": "address",
          "name": "_newEncryptedImpl",
          "type": "address"
        }
      ],
      "name": "updateImplementations",
      "outputs": [],
      "stateMutability": "nonpayable",
      "type": "function"
    },
    {
      "inputs": [
        {
          "internalType": "address",
          "name": "newImplementation",
          "type": "address"
        },
        {
          "internalType": "bytes",
          "name": "data",
          "type": "bytes"
        }
      ],
      "name": "upgradeToAndCall",
      "outputs": [],
      "stateMutability": "payable",
      "type": "function"
    }
  ],
  "bytecode": "0x60a06040523073ffffffffffffffffffffffffffffffffffffffff1660809073ffffffffffffffffffffffffffffffffffffffff168152503480156041575f80fd5b506080516130e26100685f395f81816117de015281816118330152611a2901526130e25ff3fe608060405260043610610108575f3560e01c806385bff34111610094578063c3983f6911610063578063c3983f69146102f0578063c544d8dc1461032c578063d5f3948814610368578063e30c397814610392578063f2fde38b146103bc57610108565b806385bff3411461024a5780638da5cb5b146102725780639c6aac951461029c578063ad3cb1cc146102c657610108565b80635a254858116100db5780635a254858146101a45780636cc919c8146101cc578063715018a6146101f457806379502c551461020a57806379ba50971461023457610108565b806310e43b2d1461010c578063485cc955146101365780634f1ef2861461015e57806352d1902d1461017a575b5f80fd5b348015610117575f80fd5b506101206103e4565b60405161012d9190612113565b60405180910390f35b348015610141575f80fd5b5061015c60048036038101906101579190612167565b610409565b005b610178600480360381019061017391906122e1565b6106f6565b005b348015610185575f80fd5b5061018e610715565b60405161019b9190612353565b60405180910390f35b3480156101af575f80fd5b506101ca60048036038101906101c59190612167565b610746565b005b3480156101d7575f80fd5b506101f260048036038101906101ed919061236c565b610948565b005b3480156101ff575f80fd5b506102086109e3565b005b348015610215575f80fd5b5061021e6109f6565b60405161022b91906123f2565b60405180910390f35b34801561023f575f80fd5b50610248610a1b565b005b348015610255575f80fd5b50610270600480360381019061026b9190612167565b610aa9565b005b34801561027d575f80fd5b50610286610d15565b6040516102939190612113565b60405180910390f35b3480156102a7575f80fd5b506102b0610d4a565b6040516102bd9190612113565b60405180910390f35b3480156102d1575f80fd5b506102da610d6f565b6040516102e7919061246b565b60405180910390f35b3480156102fb575f80fd5b50610316600480360381019061031191906124e8565b610da8565b6040516103239190612113565b60405180910390f35b348015610337575f80fd5b50610352600480360381019061034d91906124e8565b61121b565b60405161035f9190612113565b60405180910390f35b348015610373575f80fd5b5061037c61168d565b6040516103899190612113565b60405180910390f35b34801561039d575f80fd5b506103a66116b0565b6040516103b39190612113565b60405180910390f35b3480156103c7575f80fd5b506103e260048036038101906103dd919061236c565b6116e5565b005b60025f9054906101000a900473ffffffffffffffffffffffffffffffffffffffff1681565b61041d671f14702b3c27128160c01b61179e565b5f6104266117a1565b90505f815f0160089054906101000a900460ff161590505f825f015f9054906101000a900467ffffffffffffffff1690505f808267ffffffffffffffff1614801561046e5750825b90505f60018367ffffffffffffffff161480156104a157505f3073ffffffffffffffffffffffffffffffffffffffff163b145b9050811580156104af575080155b156104e6576040517ff92ee8a900000000000000000000000000000000000000000000000000000000815260040160405180910390fd5b6001855f015f6101000a81548167ffffffffffffffff021916908367ffffffffffffffff1602179055508315610533576001855f0160086101000a81548160ff0219169083151502179055505b6105476761c5879d870adef360c01b61179e565b61055b6734c1692ed78e15be60c01b61179e565b61056f67877024b31c618dc060c01b61179e565b61058367c80582ab12a6c8da60c01b61179e565b61058c876117b4565b6105a0676865b5e53d2a79fc60c01b61179e565b6105b4679a87f7e885ab4e3260c01b61179e565b6105bc6117c8565b6105d06734de3fd7d6493e6d60c01b61179e565b6105e4679035ba39e953a81260c01b61179e565b6105ec6117d2565b6106006740fe8565c358efff60c01b61179e565b335f806101000a81548173ffffffffffffffffffffffffffffffffffffffff021916908373ffffffffffffffffffffffffffffffffffffffff1602179055506106536747787ce83f010e6d60c01b61179e565b8560015f6101000a81548173ffffffffffffffffffffffffffffffffffffffff021916908373ffffffffffffffffffffffffffffffffffffffff16021790555083156106ed575f855f0160086101000a81548160ff0219169083151502179055507fc7f505b2f371ae2175ee4913f4499e1f2633a7b5936321eed1cdaeb6115181d260016040516106e491906125c5565b60405180910390a15b50505050505050565b6106fe6117dc565b610707826118c2565b6107118282611909565b5050565b5f61071e611a27565b7f360894a13ba1a3210667c828492db98dca3e2076cc3735a920a3ca505d382bbc5f1b905090565b61075a673717e8441050f06d60c01b61179e565b610762611aae565b6107766744831f6e1fcbc63160c01b61179e565b61078a67d8bfc8074a4ab6e660c01b61179e565b61079e671a4c3ba12d3599c560c01b61179e565b6107b267e43d6e8a3a955ca360c01b61179e565b5f73ffffffffffffffffffffffffffffffffffffffff168273ffffffffffffffffffffffffffffffffffffffff1614610852576107f9671272690fe6bc05d960c01b61179e565b61080d6757adcf84d7ba4ae760c01b61179e565b8160025f6101000a81548173ffffffffffffffffffffffffffffffffffffffff021916908373ffffffffffffffffffffffffffffffffffffffff160217905550610867565b61086667c272b49c0208ec8460c01b61179e565b5b61087b67ae5f526fb9b2379b60c01b61179e565b61088f67dea1f5066175d4aa60c01b61179e565b5f73ffffffffffffffffffffffffffffffffffffffff168173ffffffffffffffffffffffffffffffffffffffff161461092f576108d667865dd1e7198c0f4a60c01b61179e565b6108ea673f4a544d432eff3260c01b61179e565b8060035f6101000a81548173ffffffffffffffffffffffffffffffffffffffff021916908373ffffffffffffffffffffffffffffffffffffffff160217905550610944565b6109436752bcd35ad095e66860c01b61179e565b5b5050565b61095c67a6a55cd611ede76960c01b61179e565b610964611aae565b61097867f5e316ad7e85ebf460c01b61179e565b61098c679661a8d96760ff9e60c01b61179e565b6109a0673c3f9c22d73b2fc460c01b61179e565b8060015f6101000a81548173ffffffffffffffffffffffffffffffffffffffff021916908373ffffffffffffffffffffffffffffffffffffffff16021790555050565b6109eb611aae565b6109f45f611b35565b565b60015f9054906101000a900473ffffffffffffffffffffffffffffffffffffffff1681565b5f610a24611b72565b90508073ffffffffffffffffffffffffffffffffffffffff16610a456116b0565b73ffffffffffffffffffffffffffffffffffffffff1614610a9d57806040517f118cdaa7000000000000000000000000000000000000000000000000000000008152600401610a949190612113565b60405180910390fd5b610aa681611b35565b50565b610abd676f2f9a4a8373f8f960c01b61179e565b610ac5611aae565b610ad9670c91d42797b3822660c01b61179e565b610aed6724362c6647c81fc060c01b61179e565b610b01676914514ef2bc20b960c01b61179e565b610b156787ab8331576ff5cb60c01b61179e565b610b29678d6a113e474e002460c01b61179e565b5f73ffffffffffffffffffffffffffffffffffffffff168273ffffffffffffffffffffffffffffffffffffffff1603610b97576040517f08c379a0000000000000000000000000000000000000000000000000000000008152600401610b8e90612628565b60405180910390fd5b610bab67ac19ecd2e922740f60c01b61179e565b610bbf677e7aa443e2dd59be60c01b61179e565b610bd367e2b42f6f544ae86260c01b61179e565b610be767ebabdf361558dbe160c01b61179e565b5f73ffffffffffffffffffffffffffffffffffffffff168173ffffffffffffffffffffffffffffffffffffffff1603610c55576040517f08c379a0000000000000000000000000000000000000000000000000000000008152600401610c4c90612690565b60405180910390fd5b610c69673d13b65d9bb8535360c01b61179e565b610c7d67d1ef7d9f4479b53a60c01b61179e565b8160025f6101000a81548173ffffffffffffffffffffffffffffffffffffffff021916908373ffffffffffffffffffffffffffffffffffffffff160217905550610cd167bfeee3f66f9aee2e60c01b61179e565b8060035f6101000a81548173ffffffffffffffffffffffffffffffffffffffff021916908373ffffffffffffffffffffffffffffffffffffffff1602179055505050565b5f80610d1f611b79565b9050805f015f9054906101000a900473ffffffffffffffffffffffffffffffffffffffff1691505090565b60035f9054906101000a900473ffffffffffffffffffffffffffffffffffffffff1681565b6040518060400160405280600581526020017f352e302e3000000000000000000000000000000000000000000000000000000081525081565b5f610dbd67cbb61b0d78b4d2e160c01b61179e565b610dd167b50ee85e7b3dcae660c01b61179e565b610de567d62e41b3adc88f6760c01b61179e565b610df9673514a7715643d28460c01b61179e565b5f73ffffffffffffffffffffffffffffffffffffffff168673ffffffffffffffffffffffffffffffffffffffff1603610e67576040517f08c379a0000000000000000000000000000000000000000000000000000000008152600401610e5e906126f8565b60405180910390fd5b610e7b6793779c50bf2069d460c01b61179e565b610e8f67cbf8d0957c1a2b8d60c01b61179e565b610ea3679e390a3b0dbd48a560c01b61179e565b610eb767373072d4c81829b660c01b61179e565b5f73ffffffffffffffffffffffffffffffffffffffff1660035f9054906101000a900473ffffffffffffffffffffffffffffffffffffffff1673ffffffffffffffffffffffffffffffffffffffff1603610f46576040517f08c379a0000000000000000000000000000000000000000000000000000000008152600401610f3d90612760565b60405180910390fd5b610f5a671cff0a028887113860c01b61179e565b610f6e67845c53b256c1a0ba60c01b61179e565b610f82671353b7777897340360c01b61179e565b5f632016a0d260e01b8760015f9054906101000a900473ffffffffffffffffffffffffffffffffffffffff1688888888604051602401610fc7969594939291906127aa565b604051602081830303815290604052907bffffffffffffffffffffffffffffffffffffffffffffffffffffffff19166020820180517bffffffffffffffffffffffffffffffffffffffffffffffffffffffff8381831617835250505050905061103a673ff56ec3060dd4c560c01b61179e565b61104e6725262d0861c98e1e60c01b61179e565b5f60035f9054906101000a900473ffffffffffffffffffffffffffffffffffffffff168260405161107e906120c7565b611089929190612851565b604051809103905ff0801580156110a2573d5f803e3d5ffd5b5090506110b967bab5e5f073c9f36760c01b61179e565b8092506110d06704787226595bf91a60c01b61179e565b6110e46791be6bb8271c24c260c01b61179e565b3373ffffffffffffffffffffffffffffffffffffffff168873ffffffffffffffffffffffffffffffffffffffff168473ffffffffffffffffffffffffffffffffffffffff167fe36cd15f95d58db8766da292a38b27881bfaf9bdb8c464d9855d4e56bc40e7bf600160405161115991906128f2565b60405180910390a461117567c45518cd8636885160c01b61179e565b61118967b1ee2f9d0776b8da60c01b61179e565b60015f9054906101000a900473ffffffffffffffffffffffffffffffffffffffff1673ffffffffffffffffffffffffffffffffffffffff1663eb1a5bb9846040518263ffffffff1660e01b81526004016111e39190612113565b5f604051808303815f87803b1580156111fa575f80fd5b505af115801561120c573d5f803e3d5ffd5b50505050505095945050505050565b5f611230670be2681208fa598760c01b61179e565b611244673062f08b5cee728b60c01b61179e565b61125867e428f1b6465a321060c01b61179e565b61126c6793e9e87310ed3bd060c01b61179e565b5f73ffffffffffffffffffffffffffffffffffffffff168673ffffffffffffffffffffffffffffffffffffffff16036112da576040517f08c379a00000000000000000000000000000000000000000000000000000000081526004016112d1906126f8565b60405180910390fd5b6112ee679ee30034f975f60360c01b61179e565b61130267ce91bce225f7a5a160c01b61179e565b611316673bbe765a619b870f60c01b61179e565b61132a671a4c9d253a9d2ca060c01b61179e565b5f73ffffffffffffffffffffffffffffffffffffffff1660025f9054906101000a900473ffffffffffffffffffffffffffffffffffffffff1673ffffffffffffffffffffffffffffffffffffffff16036113b9576040517f08c379a00000000000000000000000000000000000000000000000000000000081526004016113b090612955565b60405180910390fd5b6113cd675030c145d456f0e660c01b61179e565b6113e167da34f89cd83dacb860c01b61179e565b6113f5677f1e414d23680f4060c01b61179e565b5f632016a0d260e01b8760015f9054906101000a900473ffffffffffffffffffffffffffffffffffffffff168888888860405160240161143a969594939291906127aa565b604051602081830303815290604052907bffffffffffffffffffffffffffffffffffffffffffffffffffffffff19166020820180517bffffffffffffffffffffffffffffffffffffffffffffffffffffffff838183161783525050505090506114ad675ff56a15c5db6b4a60c01b61179e565b6114c167b8e2ce3ae783631560c01b61179e565b5f60025f9054906101000a900473ffffffffffffffffffffffffffffffffffffffff16826040516114f1906120c7565b6114fc929190612851565b604051809103905ff080158015611515573d5f803e3d5ffd5b50905061152c67f6f4f0f49b90c6d160c01b61179e565b809250611543674afda9c2b65d720260c01b61179e565b6115576756aa1d5249f8836b60c01b61179e565b3373ffffffffffffffffffffffffffffffffffffffff168873ffffffffffffffffffffffffffffffffffffffff168473ffffffffffffffffffffffffffffffffffffffff167fe36cd15f95d58db8766da292a38b27881bfaf9bdb8c464d9855d4e56bc40e7bf5f6040516115cb91906128f2565b60405180910390a46115e767dc7d8b570f50798860c01b61179e565b6115fb676682e69796e9ff7f60c01b61179e565b60015f9054906101000a900473ffffffffffffffffffffffffffffffffffffffff1673ffffffffffffffffffffffffffffffffffffffff1663eb1a5bb9846040518263ffffffff1660e01b81526004016116559190612113565b5f604051808303815f87803b15801561166c575f80fd5b505af115801561167e573d5f803e3d5ffd5b50505050505095945050505050565b5f8054906101000a900473ffffffffffffffffffffffffffffffffffffffff1681565b5f806116ba611ba0565b9050805f015f9054906101000a900473ffffffffffffffffffffffffffffffffffffffff1691505090565b6116ed611aae565b5f6116f6611ba0565b905081815f015f6101000a81548173ffffffffffffffffffffffffffffffffffffffff021916908373ffffffffffffffffffffffffffffffffffffffff1602179055508173ffffffffffffffffffffffffffffffffffffffff16611758610d15565b73ffffffffffffffffffffffffffffffffffffffff167f38d16b8cac22d99fc7c124b9cd0de2d3fa1faef420bfe791d8c362d765e2270060405160405180910390a35050565b50565b5f806117ab611bc7565b90508091505090565b6117bc611bf0565b6117c581611c30565b50565b6117d0611bf0565b565b6117da611bf0565b565b7f000000000000000000000000000000000000000000000000000000000000000073ffffffffffffffffffffffffffffffffffffffff163073ffffffffffffffffffffffffffffffffffffffff16148061188957507f000000000000000000000000000000000000000000000000000000000000000073ffffffffffffffffffffffffffffffffffffffff16611870611cb4565b73ffffffffffffffffffffffffffffffffffffffff1614155b156118c0576040517fe07c8dba00000000000000000000000000000000000000000000000000000000815260040160405180910390fd5b565b6118d667abbcd7c59e019f0960c01b61179e565b6118de611aae565b6118f267f0c6303109aaa30860c01b61179e565b611906677baff8b86c00636160c01b61179e565b50565b8173ffffffffffffffffffffffffffffffffffffffff166352d1902d6040518163ffffffff1660e01b8152600401602060405180830381865afa92505050801561197157506040513d601f19601f8201168201806040525081019061196e919061299d565b60015b6119b257816040517f4c9c8ce30000000000000000000000000000000000000000000000000000000081526004016119a99190612113565b60405180910390fd5b7f360894a13ba1a3210667c828492db98dca3e2076cc3735a920a3ca505d382bbc5f1b8114611a1857806040517faa1d49a4000000000000000000000000000000000000000000000000000000008152600401611a0f9190612353565b60405180910390fd5b611a228383611d07565b505050565b7f000000000000000000000000000000000000000000000000000000000000000073ffffffffffffffffffffffffffffffffffffffff163073ffffffffffffffffffffffffffffffffffffffff1614611aac576040517fe07c8dba00000000000000000000000000000000000000000000000000000000815260040160405180910390fd5b565b611ab6611b72565b73ffffffffffffffffffffffffffffffffffffffff16611ad4610d15565b73ffffffffffffffffffffffffffffffffffffffff1614611b3357611af7611b72565b6040517f118cdaa7000000000000000000000000000000000000000000000000000000008152600401611b2a9190612113565b60405180910390fd5b565b5f611b3e611ba0565b9050805f015f6101000a81549073ffffffffffffffffffffffffffffffffffffffff0219169055611b6e82611d79565b5050565b5f33905090565b5f7f9016d09d72d40fdae2fd8ceac6b6234c7706214fd39c1cd1e609a0528c199300905090565b5f7f237e158222e3e6968b72b9db0d8043aacf074ad9f650f0d1606b4d82ee432c00905090565b5f7ff0c57e16840df040f15088dc2f81fe391c3923bec73e23a9662efc9c229c6a005f1b905090565b611bf8611e4a565b611c2e576040517fd7e6bcf800000000000000000000000000000000000000000000000000000000815260040160405180910390fd5b565b611c38611bf0565b5f73ffffffffffffffffffffffffffffffffffffffff168173ffffffffffffffffffffffffffffffffffffffff1603611ca8575f6040517f1e4fbdf7000000000000000000000000000000000000000000000000000000008152600401611c9f9190612113565b60405180910390fd5b611cb181611b35565b50565b5f611ce07f360894a13ba1a3210667c828492db98dca3e2076cc3735a920a3ca505d382bbc5f1b611e68565b5f015f9054906101000a900473ffffffffffffffffffffffffffffffffffffffff16905090565b611d1082611e71565b8173ffffffffffffffffffffffffffffffffffffffff167fbc7cd75a20ee27fd9adebab32041f755214dbc6bffa90cc0225b39da2e5c2d3b60405160405180910390a25f81511115611d6c57611d668282611f3a565b50611d75565b611d74611fba565b5b5050565b5f611d82611b79565b90505f815f015f9054906101000a900473ffffffffffffffffffffffffffffffffffffffff16905082825f015f6101000a81548173ffffffffffffffffffffffffffffffffffffffff021916908373ffffffffffffffffffffffffffffffffffffffff1602179055508273ffffffffffffffffffffffffffffffffffffffff168173ffffffffffffffffffffffffffffffffffffffff167f8be0079c531659141344cd1fd0a4f28419497f9722a3daafe3b4186f6b6457e060405160405180910390a3505050565b5f611e536117a1565b5f0160089054906101000a900460ff16905090565b5f819050919050565b5f8173ffffffffffffffffffffffffffffffffffffffff163b03611ecc57806040517f4c9c8ce3000000000000000000000000000000000000000000000000000000008152600401611ec39190612113565b60405180910390fd5b80611ef87f360894a13ba1a3210667c828492db98dca3e2076cc3735a920a3ca505d382bbc5f1b611e68565b5f015f6101000a81548173ffffffffffffffffffffffffffffffffffffffff021916908373ffffffffffffffffffffffffffffffffffffffff16021790555050565b60605f808473ffffffffffffffffffffffffffffffffffffffff1684604051611f639190612a02565b5f60405180830381855af49150503d805f8114611f9b576040519150601f19603f3d011682016040523d82523d5f602084013e611fa0565b606091505b5091509150611fb0858383611ff6565b9250505092915050565b5f341115611ff4576040517fb398979f00000000000000000000000000000000000000000000000000000000815260040160405180910390fd5b565b60608261200b5761200682612083565b61207b565b5f825114801561203157505f8473ffffffffffffffffffffffffffffffffffffffff163b145b1561207357836040517f9996b31500000000000000000000000000000000000000000000000000000000815260040161206a9190612113565b60405180910390fd5b81905061207c565b5b9392505050565b5f815111156120955780518082602001fd5b6040517fd6bda27500000000000000000000000000000000000000000000000000000000815260040160405180910390fd5b61069480612a1983390190565b5f73ffffffffffffffffffffffffffffffffffffffff82169050919050565b5f6120fd826120d4565b9050919050565b61210d816120f3565b82525050565b5f6020820190506121265f830184612104565b92915050565b5f604051905090565b5f80fd5b5f80fd5b612146816120f3565b8114612150575f80fd5b50565b5f813590506121618161213d565b92915050565b5f806040838503121561217d5761217c612135565b5b5f61218a85828601612153565b925050602061219b85828601612153565b9150509250929050565b5f80fd5b5f80fd5b5f601f19601f8301169050919050565b7f4e487b71000000000000000000000000000000000000000000000000000000005f52604160045260245ffd5b6121f3826121ad565b810181811067ffffffffffffffff82111715612212576122116121bd565b5b80604052505050565b5f61222461212c565b905061223082826121ea565b919050565b5f67ffffffffffffffff82111561224f5761224e6121bd565b5b612258826121ad565b9050602081019050919050565b828183375f83830152505050565b5f61228561228084612235565b61221b565b9050828152602081018484840111156122a1576122a06121a9565b5b6122ac848285612265565b509392505050565b5f82601f8301126122c8576122c76121a5565b5b81356122d8848260208601612273565b91505092915050565b5f80604083850312156122f7576122f6612135565b5b5f61230485828601612153565b925050602083013567ffffffffffffffff81111561232557612324612139565b5b612331858286016122b4565b9150509250929050565b5f819050919050565b61234d8161233b565b82525050565b5f6020820190506123665f830184612344565b92915050565b5f6020828403121561238157612380612135565b5b5f61238e84828501612153565b91505092915050565b5f819050919050565b5f6123ba6123b56123b0846120d4565b612397565b6120d4565b9050919050565b5f6123cb826123a0565b9050919050565b5f6123dc826123c1565b9050919050565b6123ec816123d2565b82525050565b5f6020820190506124055f8301846123e3565b92915050565b5f81519050919050565b5f82825260208201905092915050565b8281835e5f83830152505050565b5f61243d8261240b565b6124478185612415565b9350612457818560208601612425565b612460816121ad565b840191505092915050565b5f6020820190508181035f8301526124838184612433565b905092915050565b5f80fd5b5f80fd5b5f8083601f8401126124a8576124a76121a5565b5b8235905067ffffffffffffffff8111156124c5576124c461248b565b5b6020830191508360018202830111156124e1576124e061248f565b5b9250929050565b5f805f805f6060868803121561250157612500612135565b5b5f61250e88828901612153565b955050602086013567ffffffffffffffff81111561252f5761252e612139565b5b61253b88828901612493565b9450945050604086013567ffffffffffffffff81111561255e5761255d612139565b5b61256a88828901612493565b92509250509295509295909350565b5f819050919050565b5f67ffffffffffffffff82169050919050565b5f6125af6125aa6125a584612579565b612397565b612582565b9050919050565b6125bf81612595565b82525050565b5f6020820190506125d85f8301846125b6565b92915050565b7f54300000000000000000000000000000000000000000000000000000000000005f82015250565b5f612612600283612415565b915061261d826125de565b602082019050919050565b5f6020820190508181035f83015261263f81612606565b9050919050565b7f45300000000000000000000000000000000000000000000000000000000000005f82015250565b5f61267a600283612415565b915061268582612646565b602082019050919050565b5f6020820190508181035f8301526126a78161266e565b9050919050565b7f43300000000000000000000000000000000000000000000000000000000000005f82015250565b5f6126e2600283612415565b91506126ed826126ae565b602082019050919050565b5f6020820190508181035f83015261270f816126d6565b9050919050565b7f45493000000000000000000000000000000000000000000000000000000000005f82015250565b5f61274a600383612415565b915061275582612716565b602082019050919050565b5f6020820190508181035f8301526127778161273e565b9050919050565b5f6127898385612415565b9350612796838584612265565b61279f836121ad565b840190509392505050565b5f6080820190506127bd5f830189612104565b6127ca60208301886123e3565b81810360408301526127dd81868861277e565b905081810360608301526127f281848661277e565b9050979650505050505050565b5f81519050919050565b5f82825260208201905092915050565b5f612823826127ff565b61282d8185612809565b935061283d818560208601612425565b612846816121ad565b840191505092915050565b5f6040820190506128645f830185612104565b81810360208301526128768184612819565b90509392505050565b7f4e487b71000000000000000000000000000000000000000000000000000000005f52602160045260245ffd5b600281106128bd576128bc61287f565b5b50565b5f8190506128cd826128ac565b919050565b5f6128dc826128c0565b9050919050565b6128ec816128d2565b82525050565b5f6020820190506129055f8301846128e3565b92915050565b7f54493000000000000000000000000000000000000000000000000000000000005f82015250565b5f61293f600383612415565b915061294a8261290b565b602082019050919050565b5f6020820190508181035f83015261296c81612933565b9050919050565b61297c8161233b565b8114612986575f80fd5b50565b5f8151905061299781612973565b92915050565b5f602082840312156129b2576129b1612135565b5b5f6129bf84828501612989565b91505092915050565b5f81905092915050565b5f6129dc826127ff565b6129e681856129c8565b93506129f6818560208601612425565b80840191505092915050565b5f612a0d82846129d2565b91508190509291505056fe6080604052604051610694380380610694833981810160405281019061002591906104d8565b610035828261003c60201b60201c565b50506105b4565b61004b826100c060201b60201c565b8173ffffffffffffffffffffffffffffffffffffffff167fbc7cd75a20ee27fd9adebab32041f755214dbc6bffa90cc0225b39da2e5c2d3b60405160405180910390a25f815111156100ad576100a7828261018f60201b60201c565b506100bc565b6100bb61021560201b60201c565b5b5050565b5f8173ffffffffffffffffffffffffffffffffffffffff163b0361011b57806040517f4c9c8ce30000000000000000000000000000000000000000000000000000000081526004016101129190610541565b60405180910390fd5b8061014d7f360894a13ba1a3210667c828492db98dca3e2076cc3735a920a3ca505d382bbc5f1b61025160201b60201c565b5f015f6101000a81548173ffffffffffffffffffffffffffffffffffffffff021916908373ffffffffffffffffffffffffffffffffffffffff16021790555050565b60605f808473ffffffffffffffffffffffffffffffffffffffff16846040516101b8919061059e565b5f60405180830381855af49150503d805f81146101f0576040519150601f19603f3d011682016040523d82523d5f602084013e6101f5565b606091505b509150915061020b85838361025a60201b60201c565b9250505092915050565b5f34111561024f576040517fb398979f00000000000000000000000000000000000000000000000000000000815260040160405180910390fd5b565b5f819050919050565b60608261027557610270826102ed60201b60201c565b6102e5565b5f825114801561029b57505f8473ffffffffffffffffffffffffffffffffffffffff163b145b156102dd57836040517f9996b3150000000000000000000000000000000000000000000000000000000081526004016102d49190610541565b60405180910390fd5b8190506102e6565b5b9392505050565b5f815111156102ff5780518082602001fd5b6040517fd6bda27500000000000000000000000000000000000000000000000000000000815260040160405180910390fd5b5f604051905090565b5f80fd5b5f80fd5b5f73ffffffffffffffffffffffffffffffffffffffff82169050919050565b5f61036b82610342565b9050919050565b61037b81610361565b8114610385575f80fd5b50565b5f8151905061039681610372565b92915050565b5f80fd5b5f80fd5b5f601f19601f8301169050919050565b7f4e487b71000000000000000000000000000000000000000000000000000000005f52604160045260245ffd5b6103ea826103a4565b810181811067ffffffffffffffff82111715610409576104086103b4565b5b80604052505050565b5f61041b610331565b905061042782826103e1565b919050565b5f67ffffffffffffffff821115610446576104456103b4565b5b61044f826103a4565b9050602081019050919050565b8281835e5f83830152505050565b5f61047c6104778461042c565b610412565b905082815260208101848484011115610498576104976103a0565b5b6104a384828561045c565b509392505050565b5f82601f8301126104bf576104be61039c565b5b81516104cf84826020860161046a565b91505092915050565b5f80604083850312156104ee576104ed61033a565b5b5f6104fb85828601610388565b925050602083015167ffffffffffffffff81111561051c5761051b61033e565b5b610528858286016104ab565b9150509250929050565b61053b81610361565b82525050565b5f6020820190506105545f830184610532565b92915050565b5f81519050919050565b5f81905092915050565b5f6105788261055a565b6105828185610564565b935061059281856020860161045c565b80840191505092915050565b5f6105a9828461056e565b915081905092915050565b60d4806105c05f395ff3fe6080604052600a600c565b005b60186014601a565b6026565b565b5f60216044565b905090565b365f80375f80365f845af43d5f803e805f81146040573d5ff35b3d5ffd5b5f606e7f360894a13ba1a3210667c828492db98dca3e2076cc3735a920a3ca505d382bbc5f1b6095565b5f015f9054906101000a900473ffffffffffffffffffffffffffffffffffffffff16905090565b5f81905091905056fea2646970667358221220df4bd371acfa1c4cf71afcd7b89157878984cc3fea5ee48e8088819765445a0064736f6c634300081a0033a2646970667358221220293082904249a75472b87de045f81547b2abbb6195355ee67cf4e4a2903cd53c64736f6c634300081a0033",
  "linkReferences": {},
  "deployedLinkReferences": {}
}