{
  "_format": "hh-sol-artifact-1",
  "contractName": "OrionVaultFactory",
  "sourceName": "contracts/OrionVaultFactory.sol",
  "abi": [
    {
      "inputs": [
        {
          "internalType": "address",
          "name": "target",
          "type": "address"
        }
      ],
      "name": "AddressEmptyCode",
      "type": "error"
    },
    {
      "inputs": [
        {
          "internalType": "address",
          "name": "implementation",
          "type": "address"
        }
      ],
      "name": "ERC1967InvalidImplementation",
      "type": "error"
    },
    {
      "inputs": [],
      "name": "ERC1967NonPayable",
      "type": "error"
    },
    {
      "inputs": [],
      "name": "FailedCall",
      "type": "error"
    },
    {
      "inputs": [],
      "name": "InvalidInitialization",
      "type": "error"
    },
    {
      "inputs": [],
      "name": "NotInitializing",
      "type": "error"
    },
    {
      "inputs": [
        {
          "internalType": "address",
          "name": "owner",
          "type": "address"
        }
      ],
      "name": "OwnableInvalidOwner",
      "type": "error"
    },
    {
      "inputs": [
        {
          "internalType": "address",
          "name": "account",
          "type": "address"
        }
      ],
      "name": "OwnableUnauthorizedAccount",
      "type": "error"
    },
    {
      "inputs": [],
      "name": "UUPSUnauthorizedCallContext",
      "type": "error"
    },
    {
      "inputs": [
        {
          "internalType": "bytes32",
          "name": "slot",
          "type": "bytes32"
        }
      ],
      "name": "UUPSUnsupportedProxiableUUID",
      "type": "error"
    },
    {
      "anonymous": false,
      "inputs": [
        {
          "indexed": false,
          "internalType": "uint64",
          "name": "version",
          "type": "uint64"
        }
      ],
      "name": "Initialized",
      "type": "event"
    },
    {
      "anonymous": false,
      "inputs": [
        {
          "indexed": true,
          "internalType": "address",
          "name": "vault",
          "type": "address"
        },
        {
          "indexed": true,
          "internalType": "address",
          "name": "curator",
          "type": "address"
        },
        {
          "indexed": true,
          "internalType": "address",
          "name": "deployer",
          "type": "address"
        },
        {
          "indexed": false,
          "internalType": "enum OrionVaultFactory.VaultType",
          "name": "vaultType",
          "type": "uint8"
        }
      ],
      "name": "OrionVaultCreated",
      "type": "event"
    },
    {
      "anonymous": false,
      "inputs": [
        {
          "indexed": true,
          "internalType": "address",
          "name": "previousOwner",
          "type": "address"
        },
        {
          "indexed": true,
          "internalType": "address",
          "name": "newOwner",
          "type": "address"
        }
      ],
      "name": "OwnershipTransferStarted",
      "type": "event"
    },
    {
      "anonymous": false,
      "inputs": [
        {
          "indexed": true,
          "internalType": "address",
          "name": "previousOwner",
          "type": "address"
        },
        {
          "indexed": true,
          "internalType": "address",
          "name": "newOwner",
          "type": "address"
        }
      ],
      "name": "OwnershipTransferred",
      "type": "event"
    },
    {
      "anonymous": false,
      "inputs": [
        {
          "indexed": true,
          "internalType": "address",
          "name": "implementation",
          "type": "address"
        }
      ],
      "name": "Upgraded",
      "type": "event"
    },
    {
      "inputs": [],
      "name": "UPGRADE_INTERFACE_VERSION",
      "outputs": [
        {
          "internalType": "string",
          "name": "",
          "type": "string"
        }
      ],
      "stateMutability": "view",
      "type": "function"
    },
    {
      "inputs": [],
      "name": "acceptOwnership",
      "outputs": [],
      "stateMutability": "nonpayable",
      "type": "function"
    },
    {
      "inputs": [],
      "name": "config",
      "outputs": [
        {
          "internalType": "contract IOrionConfig",
          "name": "",
          "type": "address"
        }
      ],
      "stateMutability": "view",
      "type": "function"
    },
    {
      "inputs": [
        {
          "internalType": "address",
          "name": "curator",
          "type": "address"
        },
        {
          "internalType": "string",
          "name": "name",
          "type": "string"
        },
        {
          "internalType": "string",
          "name": "symbol",
          "type": "string"
        }
      ],
      "name": "createOrionEncryptedVault",
      "outputs": [
        {
          "internalType": "address",
          "name": "vault",
          "type": "address"
        }
      ],
      "stateMutability": "nonpayable",
      "type": "function"
    },
    {
      "inputs": [
        {
          "internalType": "address",
          "name": "curator",
          "type": "address"
        },
        {
          "internalType": "string",
          "name": "name",
          "type": "string"
        },
        {
          "internalType": "string",
          "name": "symbol",
          "type": "string"
        }
      ],
      "name": "createOrionTransparentVault",
      "outputs": [
        {
          "internalType": "address",
          "name": "vault",
          "type": "address"
        }
      ],
      "stateMutability": "nonpayable",
      "type": "function"
    },
    {
      "inputs": [],
      "name": "deployer",
      "outputs": [
        {
          "internalType": "address",
          "name": "",
          "type": "address"
        }
      ],
      "stateMutability": "view",
      "type": "function"
    },
    {
      "inputs": [],
      "name": "encryptedVaultImplementation",
      "outputs": [
        {
          "internalType": "address",
          "name": "",
          "type": "address"
        }
      ],
      "stateMutability": "view",
      "type": "function"
    },
    {
      "inputs": [
        {
          "internalType": "address",
          "name": "initialOwner",
          "type": "address"
        },
        {
          "internalType": "address",
          "name": "_config",
          "type": "address"
        }
      ],
      "name": "initialize",
      "outputs": [],
      "stateMutability": "nonpayable",
      "type": "function"
    },
    {
      "inputs": [],
      "name": "owner",
      "outputs": [
        {
          "internalType": "address",
          "name": "",
          "type": "address"
        }
      ],
      "stateMutability": "view",
      "type": "function"
    },
    {
      "inputs": [],
      "name": "pendingOwner",
      "outputs": [
        {
          "internalType": "address",
          "name": "",
          "type": "address"
        }
      ],
      "stateMutability": "view",
      "type": "function"
    },
    {
      "inputs": [],
      "name": "proxiableUUID",
      "outputs": [
        {
          "internalType": "bytes32",
          "name": "",
          "type": "bytes32"
        }
      ],
      "stateMutability": "view",
      "type": "function"
    },
    {
      "inputs": [],
      "name": "renounceOwnership",
      "outputs": [],
      "stateMutability": "nonpayable",
      "type": "function"
    },
    {
      "inputs": [
        {
          "internalType": "address",
          "name": "_transparentImpl",
          "type": "address"
        },
        {
          "internalType": "address",
          "name": "_encryptedImpl",
          "type": "address"
        }
      ],
      "name": "setImplementations",
      "outputs": [],
      "stateMutability": "nonpayable",
      "type": "function"
    },
    {
      "inputs": [
        {
          "internalType": "address",
          "name": "newOwner",
          "type": "address"
        }
      ],
      "name": "transferOwnership",
      "outputs": [],
      "stateMutability": "nonpayable",
      "type": "function"
    },
    {
      "inputs": [],
      "name": "transparentVaultImplementation",
      "outputs": [
        {
          "internalType": "address",
          "name": "",
          "type": "address"
        }
      ],
      "stateMutability": "view",
      "type": "function"
    },
    {
      "inputs": [
        {
          "internalType": "address",
          "name": "_newConfig",
          "type": "address"
        }
      ],
      "name": "updateConfig",
      "outputs": [],
      "stateMutability": "nonpayable",
      "type": "function"
    },
    {
      "inputs": [
        {
          "internalType": "address",
          "name": "_newTransparentImpl",
          "type": "address"
        },
        {
          "internalType": "address",
          "name": "_newEncryptedImpl",
          "type": "address"
        }
      ],
      "name": "updateImplementations",
      "outputs": [],
      "stateMutability": "nonpayable",
      "type": "function"
    },
    {
      "inputs": [
        {
          "internalType": "address",
          "name": "newImplementation",
          "type": "address"
        },
        {
          "internalType": "bytes",
          "name": "data",
          "type": "bytes"
        }
      ],
      "name": "upgradeToAndCall",
      "outputs": [],
      "stateMutability": "payable",
      "type": "function"
    }
  ],
  "bytecode": "0x60a0604052306080523480156012575f80fd5b506080516116aa6100395f395f8181610adc01528181610b050152610c4901526116aa5ff3fe608060405260043610610105575f3560e01c806385bff34111610092578063c3983f6911610062578063c3983f69146102af578063c544d8dc146102ce578063d5f39488146102ed578063e30c39781461030b578063f2fde38b1461031f575f80fd5b806385bff341146102205780638da5cb5b1461023f5780639c6aac9514610253578063ad3cb1cc14610272575f80fd5b80635a254858116100d85780635a2548581461019b5780636cc919c8146101ba578063715018a6146101d957806379502c55146101ed57806379ba50971461020c575f80fd5b806310e43b2d14610109578063485cc955146101455780634f1ef2861461016657806352d1902d14610179575b5f80fd5b348015610114575f80fd5b50600254610128906001600160a01b031681565b6040516001600160a01b0390911681526020015b60405180910390f35b348015610150575f80fd5b5061016461015f366004610f6b565b61033e565b005b610164610174366004610fb0565b610485565b348015610184575f80fd5b5061018d6104a4565b60405190815260200161013c565b3480156101a6575f80fd5b506101646101b5366004610f6b565b6104bf565b3480156101c5575f80fd5b506101646101d4366004611074565b610522565b3480156101e4575f80fd5b5061016461054c565b3480156101f8575f80fd5b50600154610128906001600160a01b031681565b348015610217575f80fd5b5061016461055f565b34801561022b575f80fd5b5061016461023a366004610f6b565b6105ac565b34801561024a575f80fd5b50610128610658565b34801561025e575f80fd5b50600354610128906001600160a01b031681565b34801561027d575f80fd5b506102a2604051806040016040528060058152602001640352e302e360dc1b81525081565b60405161013c91906110bb565b3480156102ba575f80fd5b506101286102c9366004611112565b61068c565b3480156102d9575f80fd5b506101286102e8366004611112565b61086f565b3480156102f8575f80fd5b505f54610128906001600160a01b031681565b348015610316575f80fd5b506101286109e4565b34801561032a575f80fd5b50610164610339366004611074565b610a0c565b7ff0c57e16840df040f15088dc2f81fe391c3923bec73e23a9662efc9c229c6a008054600160401b810460ff16159067ffffffffffffffff165f811580156103835750825b90505f8267ffffffffffffffff16600114801561039f5750303b155b9050811580156103ad575080155b156103cb5760405163f92ee8a960e01b815260040160405180910390fd5b845467ffffffffffffffff1916600117855583156103f557845460ff60401b1916600160401b1785555b6103fd610a91565b610405610a91565b61040e87610a99565b5f8054336001600160a01b031991821617909155600180549091166001600160a01b038816179055831561047c57845460ff60401b19168555604051600181527fc7f505b2f371ae2175ee4913f4499e1f2633a7b5936321eed1cdaeb6115181d29060200160405180910390a15b50505050505050565b61048d610ad1565b61049682610b75565b6104a08282610b7d565b5050565b5f6104ad610c3e565b505f8051602061165583398151915290565b6104c7610c87565b6001600160a01b038216156104f257600280546001600160a01b0319166001600160a01b0384161790555b6001600160a01b038116156104a057600380546001600160a01b0383166001600160a01b03199091161790555050565b61052a610c87565b600180546001600160a01b0319166001600160a01b0392909216919091179055565b610554610c87565b61055d5f610a99565b565b33806105696109e4565b6001600160a01b0316146105a05760405163118cdaa760e01b81526001600160a01b03821660048201526024015b60405180910390fd5b6105a981610a99565b50565b6105b4610c87565b6001600160a01b0382166105ef5760405162461bcd60e51b8152602060048201526002602482015261054360f41b6044820152606401610597565b6001600160a01b03811661062a5760405162461bcd60e51b8152602060048201526002602482015261045360f41b6044820152606401610597565b600280546001600160a01b039384166001600160a01b03199182161790915560038054929093169116179055565b5f807f9016d09d72d40fdae2fd8ceac6b6234c7706214fd39c1cd1e609a0528c1993005b546001600160a01b031692915050565b5f6001600160a01b0386166106c85760405162461bcd60e51b8152602060048201526002602482015261043360f41b6044820152606401610597565b6003546001600160a01b03166107065760405162461bcd60e51b815260206004820152600360248201526204549360ec1b6044820152606401610597565b6001546040515f9163100b506960e11b91610739918a916001600160a01b03909116908a908a908a908a906024016111ba565b60408051601f198184030181529181526020820180516001600160e01b03166001600160e01b03199094169390931790925260035491519092505f916001600160a01b031690839061078a90610f43565b610795929190611206565b604051809103905ff0801580156107ae573d5f803e3d5ffd5b509050809250336001600160a01b0316886001600160a01b0316846001600160a01b03167fe36cd15f95d58db8766da292a38b27881bfaf9bdb8c464d9855d4e56bc40e7bf60016040516108029190611231565b60405180910390a460015460405163eb1a5bb960e01b81526001600160a01b0385811660048301529091169063eb1a5bb9906024015f604051808303815f87803b15801561084e575f80fd5b505af1158015610860573d5f803e3d5ffd5b50505050505095945050505050565b5f6001600160a01b0386166108ab5760405162461bcd60e51b8152602060048201526002602482015261043360f41b6044820152606401610597565b6002546001600160a01b03166108e95760405162461bcd60e51b815260206004820152600360248201526205449360ec1b6044820152606401610597565b6001546040515f9163100b506960e11b9161091c918a916001600160a01b03909116908a908a908a908a906024016111ba565b60408051601f198184030181529181526020820180516001600160e01b03166001600160e01b03199094169390931790925260025491519092505f916001600160a01b031690839061096d90610f43565b610978929190611206565b604051809103905ff080158015610991573d5f803e3d5ffd5b509050809250336001600160a01b0316886001600160a01b0316846001600160a01b03167fe36cd15f95d58db8766da292a38b27881bfaf9bdb8c464d9855d4e56bc40e7bf5f6040516108029190611231565b5f807f237e158222e3e6968b72b9db0d8043aacf074ad9f650f0d1606b4d82ee432c0061067c565b610a14610c87565b7f237e158222e3e6968b72b9db0d8043aacf074ad9f650f0d1606b4d82ee432c0080546001600160a01b0319166001600160a01b0383169081178255610a58610658565b6001600160a01b03167f38d16b8cac22d99fc7c124b9cd0de2d3fa1faef420bfe791d8c362d765e2270060405160405180910390a35050565b61055d610cb9565b7f237e158222e3e6968b72b9db0d8043aacf074ad9f650f0d1606b4d82ee432c0080546001600160a01b03191681556104a082610d02565b306001600160a01b037f0000000000000000000000000000000000000000000000000000000000000000161480610b5757507f00000000000000000000000000000000000000000000000000000000000000006001600160a01b0316610b4b5f80516020611655833981519152546001600160a01b031690565b6001600160a01b031614155b1561055d5760405163703e46dd60e11b815260040160405180910390fd5b6105a9610c87565b816001600160a01b03166352d1902d6040518163ffffffff1660e01b8152600401602060405180830381865afa925050508015610bd7575060408051601f3d908101601f19168201909252610bd491810190611257565b60015b610bff57604051634c9c8ce360e01b81526001600160a01b0383166004820152602401610597565b5f805160206116558339815191528114610c2f57604051632a87526960e21b815260048101829052602401610597565b610c398383610d72565b505050565b306001600160a01b037f0000000000000000000000000000000000000000000000000000000000000000161461055d5760405163703e46dd60e11b815260040160405180910390fd5b33610c90610658565b6001600160a01b03161461055d5760405163118cdaa760e01b8152336004820152602401610597565b7ff0c57e16840df040f15088dc2f81fe391c3923bec73e23a9662efc9c229c6a0054600160401b900460ff1661055d57604051631afcd79f60e31b815260040160405180910390fd5b7f9016d09d72d40fdae2fd8ceac6b6234c7706214fd39c1cd1e609a0528c19930080546001600160a01b031981166001600160a01b03848116918217845560405192169182907f8be0079c531659141344cd1fd0a4f28419497f9722a3daafe3b4186f6b6457e0905f90a3505050565b610d7b82610dc7565b6040516001600160a01b038316907fbc7cd75a20ee27fd9adebab32041f755214dbc6bffa90cc0225b39da2e5c2d3b905f90a2805115610dbf57610c398282610e2a565b6104a0610e9c565b806001600160a01b03163b5f03610dfc57604051634c9c8ce360e01b81526001600160a01b0382166004820152602401610597565b5f8051602061165583398151915280546001600160a01b0319166001600160a01b0392909216919091179055565b60605f80846001600160a01b031684604051610e46919061126e565b5f60405180830381855af49150503d805f8114610e7e576040519150601f19603f3d011682016040523d82523d5f602084013e610e83565b606091505b5091509150610e93858383610ebb565b95945050505050565b341561055d5760405163b398979f60e01b815260040160405180910390fd5b606082610ed057610ecb82610f1a565b610f13565b8151158015610ee757506001600160a01b0384163b155b15610f1057604051639996b31560e01b81526001600160a01b0385166004820152602401610597565b50805b9392505050565b805115610f2a5780518082602001fd5b60405163d6bda27560e01b815260040160405180910390fd5b6103d08061128583390190565b80356001600160a01b0381168114610f66575f80fd5b919050565b5f8060408385031215610f7c575f80fd5b610f8583610f50565b9150610f9360208401610f50565b90509250929050565b634e487b7160e01b5f52604160045260245ffd5b5f8060408385031215610fc1575f80fd5b610fca83610f50565b9150602083013567ffffffffffffffff811115610fe5575f80fd5b8301601f81018513610ff5575f80fd5b803567ffffffffffffffff81111561100f5761100f610f9c565b604051601f8201601f19908116603f0116810167ffffffffffffffff8111828210171561103e5761103e610f9c565b604052818152828201602001871015611055575f80fd5b816020840160208301375f602083830101528093505050509250929050565b5f60208284031215611084575f80fd5b610f1382610f50565b5f81518084528060208401602086015e5f602082860101526020601f19601f83011685010191505092915050565b602081525f610f13602083018461108d565b5f8083601f8401126110dd575f80fd5b50813567ffffffffffffffff8111156110f4575f80fd5b60208301915083602082850101111561110b575f80fd5b9250929050565b5f805f805f60608688031215611126575f80fd5b61112f86610f50565b9450602086013567ffffffffffffffff81111561114a575f80fd5b611156888289016110cd565b909550935050604086013567ffffffffffffffff811115611175575f80fd5b611181888289016110cd565b969995985093965092949392505050565b81835281816020850137505f828201602090810191909152601f909101601f19169091010190565b6001600160a01b038781168252861660208201526080604082018190525f906111e69083018688611192565b82810360608401526111f9818587611192565b9998505050505050505050565b6001600160a01b03831681526040602082018190525f906112299083018461108d565b949350505050565b602081016002831061125157634e487b7160e01b5f52602160045260245ffd5b91905290565b5f60208284031215611267575f80fd5b5051919050565b5f82518060208501845e5f92019182525091905056fe60806040526040516103d03803806103d08339810160408190526100229161023c565b61002c8282610033565b5050610321565b61003c82610091565b6040516001600160a01b038316907fbc7cd75a20ee27fd9adebab32041f755214dbc6bffa90cc0225b39da2e5c2d3b905f90a280511561008557610080828261010c565b505050565b61008d61017f565b5050565b806001600160a01b03163b5f036100cb57604051634c9c8ce360e01b81526001600160a01b03821660048201526024015b60405180910390fd5b7f360894a13ba1a3210667c828492db98dca3e2076cc3735a920a3ca505d382bbc80546001600160a01b0319166001600160a01b0392909216919091179055565b60605f80846001600160a01b031684604051610128919061030b565b5f60405180830381855af49150503d805f8114610160576040519150601f19603f3d011682016040523d82523d5f602084013e610165565b606091505b5090925090506101768583836101a0565b95945050505050565b341561019e5760405163b398979f60e01b815260040160405180910390fd5b565b6060826101b5576101b0826101ff565b6101f8565b81511580156101cc57506001600160a01b0384163b155b156101f557604051639996b31560e01b81526001600160a01b03851660048201526024016100c2565b50805b9392505050565b80511561020f5780518082602001fd5b60405163d6bda27560e01b815260040160405180910390fd5b634e487b7160e01b5f52604160045260245ffd5b5f806040838503121561024d575f80fd5b82516001600160a01b0381168114610263575f80fd5b60208401519092506001600160401b0381111561027e575f80fd5b8301601f8101851361028e575f80fd5b80516001600160401b038111156102a7576102a7610228565b604051601f8201601f19908116603f011681016001600160401b03811182821017156102d5576102d5610228565b6040528181528282016020018710156102ec575f80fd5b8160208401602083015e5f602083830101528093505050509250929050565b5f82518060208501845e5f920191825250919050565b60a38061032d5f395ff3fe6080604052600a600c565b005b60186014601a565b6050565b565b5f604b7f360894a13ba1a3210667c828492db98dca3e2076cc3735a920a3ca505d382bbc546001600160a01b031690565b905090565b365f80375f80365f845af43d5f803e8080156069573d5ff35b3d5ffdfea2646970667358221220605015fed861e1730b4bb5b7a26ac4348c000104dd1b3215ec38639b2f6e232264736f6c634300081a0033360894a13ba1a3210667c828492db98dca3e2076cc3735a920a3ca505d382bbca2646970667358221220c4290c87b654675cb58419b8235df0fbec920a9dd3bffecaeb33b6652e00e6ff64736f6c634300081a0033",
  "linkReferences": {},
  "deployedLinkReferences": {}
}