{
  "_format": "hh-sol-artifact-1",
  "contractName": "WhitelistAccessControl",
  "sourceName": "contracts/access_controllers/WhitelistAccessControl.sol",
  "abi": [
    {
      "inputs": [
        {
          "internalType": "address",
          "name": "initialOwner_",
          "type": "address"
        }
      ],
      "stateMutability": "nonpayable",
      "type": "constructor"
    },
    {
      "inputs": [
        {
          "internalType": "address",
          "name": "owner",
          "type": "address"
        }
      ],
      "name": "OwnableInvalidOwner",
      "type": "error"
    },
    {
      "inputs": [
        {
          "internalType": "address",
          "name": "account",
          "type": "address"
        }
      ],
      "name": "OwnableUnauthorizedAccount",
      "type": "error"
    },
    {
      "inputs": [],
      "name": "ZeroAddress",
      "type": "error"
    },
    {
      "anonymous": false,
      "inputs": [
        {
          "indexed": true,
          "internalType": "address",
          "name": "account",
          "type": "address"
        }
      ],
      "name": "AddressRemovedFromWhitelist",
      "type": "event"
    },
    {
      "anonymous": false,
      "inputs": [
        {
          "indexed": true,
          "internalType": "address",
          "name": "account",
          "type": "address"
        }
      ],
      "name": "AddressWhitelisted",
      "type": "event"
    },
    {
      "anonymous": false,
      "inputs": [
        {
          "indexed": true,
          "internalType": "address",
          "name": "previousOwner",
          "type": "address"
        },
        {
          "indexed": true,
          "internalType": "address",
          "name": "newOwner",
          "type": "address"
        }
      ],
      "name": "OwnershipTransferStarted",
      "type": "event"
    },
    {
      "anonymous": false,
      "inputs": [
        {
          "indexed": true,
          "internalType": "address",
          "name": "previousOwner",
          "type": "address"
        },
        {
          "indexed": true,
          "internalType": "address",
          "name": "newOwner",
          "type": "address"
        }
      ],
      "name": "OwnershipTransferred",
      "type": "event"
    },
    {
      "inputs": [],
      "name": "acceptOwnership",
      "outputs": [],
      "stateMutability": "nonpayable",
      "type": "function"
    },
    {
      "inputs": [
        {
          "internalType": "address[]",
          "name": "accounts",
          "type": "address[]"
        }
      ],
      "name": "addToWhitelist",
      "outputs": [],
      "stateMutability": "nonpayable",
      "type": "function"
    },
    {
      "inputs": [
        {
          "internalType": "address",
          "name": "sender",
          "type": "address"
        }
      ],
      "name": "canRequestDeposit",
      "outputs": [
        {
          "internalType": "bool",
          "name": "",
          "type": "bool"
        }
      ],
      "stateMutability": "view",
      "type": "function"
    },
    {
      "inputs": [],
      "name": "owner",
      "outputs": [
        {
          "internalType": "address",
          "name": "",
          "type": "address"
        }
      ],
      "stateMutability": "view",
      "type": "function"
    },
    {
      "inputs": [],
      "name": "pendingOwner",
      "outputs": [
        {
          "internalType": "address",
          "name": "",
          "type": "address"
        }
      ],
      "stateMutability": "view",
      "type": "function"
    },
    {
      "inputs": [
        {
          "internalType": "address[]",
          "name": "accounts",
          "type": "address[]"
        }
      ],
      "name": "removeFromWhitelist",
      "outputs": [],
      "stateMutability": "nonpayable",
      "type": "function"
    },
    {
      "inputs": [],
      "name": "renounceOwnership",
      "outputs": [],
      "stateMutability": "nonpayable",
      "type": "function"
    },
    {
      "inputs": [
        {
          "internalType": "address",
          "name": "newOwner",
          "type": "address"
        }
      ],
      "name": "transferOwnership",
      "outputs": [],
      "stateMutability": "nonpayable",
      "type": "function"
    },
    {
      "inputs": [
        {
          "internalType": "address",
          "name": "",
          "type": "address"
        }
      ],
      "name": "whitelist",
      "outputs": [
        {
          "internalType": "bool",
          "name": "",
          "type": "bool"
        }
      ],
      "stateMutability": "view",
      "type": "function"
    }
  ],
  "bytecode": "0x608060405234801561000f575f5ffd5b5060405161068a38038061068a83398101604081905261002e916100fe565b806001600160a01b03811661005c57604051631e4fbdf760e01b81525f600482015260240160405180910390fd5b61006581610093565b506001600160a01b03811661008d5760405163d92e233d60e01b815260040160405180910390fd5b5061012b565b600180546001600160a01b03191690556100ac816100af565b50565b5f80546001600160a01b038381166001600160a01b0319831681178455604051919092169283917f8be0079c531659141344cd1fd0a4f28419497f9722a3daafe3b4186f6b6457e09190a35050565b5f6020828403121561010e575f5ffd5b81516001600160a01b0381168114610124575f5ffd5b9392505050565b610552806101385f395ff3fe608060405234801561000f575f5ffd5b5060043610610081575f3560e01c8063548db17414610085578063715018a61461009a57806379ba5097146100a25780637f649783146100aa578063835e5d05146100bd5780638da5cb5b146100fd5780639b19251a14610112578063e30c397814610134578063f2fde38b1461013c575b5f5ffd5b610098610093366004610458565b61014f565b005b61009861021c565b61009861022f565b6100986100b8366004610458565b610277565b6100e86100cb3660046104c7565b6001600160a01b03165f9081526002602052604090205460ff1690565b60405190151581526020015b60405180910390f35b610105610340565b6040516100f491906104f4565b6100e86101203660046104c7565b60026020525f908152604090205460ff1681565b61010561034e565b61009861014a3660046104c7565b61035d565b6101576103c3565b5f5b81811015610217575f60025f85858581811061017757610177610508565b905060200201602081019061018c91906104c7565b6001600160a01b0316815260208101919091526040015f20805460ff19169115159190911790558282828181106101c5576101c5610508565b90506020020160208101906101da91906104c7565b6001600160a01b03167f535611fb62fa2a833988f283b779e417e996813e44046f521d76c17b5943b08c60405160405180910390a2600101610159565b505050565b6102246103c3565b61022d5f6103f5565b565b338061023961034e565b6001600160a01b03161461026b578060405163118cdaa760e01b815260040161026291906104f4565b60405180910390fd5b610274816103f5565b50565b61027f6103c3565b5f5b8181101561021757600160025f8585858181106102a0576102a0610508565b90506020020160208101906102b591906104c7565b6001600160a01b0316815260208101919091526040015f20805460ff19169115159190911790558282828181106102ee576102ee610508565b905060200201602081019061030391906104c7565b6001600160a01b03167f4f783c179409b4127238bc9c990bc99b9a651666a0d20b51d6c42849eb88466d60405160405180910390a2600101610281565b5f546001600160a01b031690565b6001546001600160a01b031690565b6103656103c3565b600180546001600160a01b0319166001600160a01b03831690811790915561038b610340565b6001600160a01b03167f38d16b8cac22d99fc7c124b9cd0de2d3fa1faef420bfe791d8c362d765e2270060405160405180910390a350565b336103cc610340565b6001600160a01b03161461022d573360405163118cdaa760e01b815260040161026291906104f4565b600180546001600160a01b0319169055610274815f80546001600160a01b038381166001600160a01b0319831681178455604051919092169283917f8be0079c531659141344cd1fd0a4f28419497f9722a3daafe3b4186f6b6457e09190a35050565b5f5f60208385031215610469575f5ffd5b82356001600160401b0381111561047e575f5ffd5b8301601f8101851361048e575f5ffd5b80356001600160401b038111156104a3575f5ffd5b8560208260051b84010111156104b7575f5ffd5b6020919091019590945092505050565b5f602082840312156104d7575f5ffd5b81356001600160a01b03811681146104ed575f5ffd5b9392505050565b6001600160a01b0391909116815260200190565b634e487b7160e01b5f52603260045260245ffdfea26469706673582212208ae8d8cfd3ea588da5c7aa75cd42f2472f29815466bf089c01a259f5c973154664736f6c634300081c0033",
  "linkReferences": {},
  "deployedLinkReferences": {}
}