{
  "_format": "hh-sol-artifact-1",
  "contractName": "UniverseOracle",
  "sourceName": "contracts/mocks/UniverseOracle.sol",
  "abi": [
    {
      "inputs": [
        {
          "internalType": "address",
          "name": "target",
          "type": "address"
        }
      ],
      "name": "AddressEmptyCode",
      "type": "error"
    },
    {
      "inputs": [
        {
          "internalType": "address",
          "name": "implementation",
          "type": "address"
        }
      ],
      "name": "ERC1967InvalidImplementation",
      "type": "error"
    },
    {
      "inputs": [],
      "name": "ERC1967NonPayable",
      "type": "error"
    },
    {
      "inputs": [],
      "name": "FailedCall",
      "type": "error"
    },
    {
      "inputs": [],
      "name": "InvalidInitialization",
      "type": "error"
    },
    {
      "inputs": [],
      "name": "NotInitializing",
      "type": "error"
    },
    {
      "inputs": [
        {
          "internalType": "address",
          "name": "owner",
          "type": "address"
        }
      ],
      "name": "OwnableInvalidOwner",
      "type": "error"
    },
    {
      "inputs": [
        {
          "internalType": "address",
          "name": "account",
          "type": "address"
        }
      ],
      "name": "OwnableUnauthorizedAccount",
      "type": "error"
    },
    {
      "inputs": [],
      "name": "UUPSUnauthorizedCallContext",
      "type": "error"
    },
    {
      "inputs": [
        {
          "internalType": "bytes32",
          "name": "slot",
          "type": "bytes32"
        }
      ],
      "name": "UUPSUnsupportedProxiableUUID",
      "type": "error"
    },
    {
      "inputs": [],
      "name": "ZeroAddress",
      "type": "error"
    },
    {
      "inputs": [],
      "name": "ZeroPrice",
      "type": "error"
    },
    {
      "anonymous": false,
      "inputs": [
        {
          "indexed": false,
          "internalType": "uint64",
          "name": "version",
          "type": "uint64"
        }
      ],
      "name": "Initialized",
      "type": "event"
    },
    {
      "anonymous": false,
      "inputs": [
        {
          "indexed": true,
          "internalType": "address",
          "name": "previousOwner",
          "type": "address"
        },
        {
          "indexed": true,
          "internalType": "address",
          "name": "newOwner",
          "type": "address"
        }
      ],
      "name": "OwnershipTransferStarted",
      "type": "event"
    },
    {
      "anonymous": false,
      "inputs": [
        {
          "indexed": true,
          "internalType": "address",
          "name": "previousOwner",
          "type": "address"
        },
        {
          "indexed": true,
          "internalType": "address",
          "name": "newOwner",
          "type": "address"
        }
      ],
      "name": "OwnershipTransferred",
      "type": "event"
    },
    {
      "anonymous": false,
      "inputs": [
        {
          "indexed": true,
          "internalType": "address",
          "name": "asset",
          "type": "address"
        },
        {
          "indexed": false,
          "internalType": "uint256",
          "name": "newPrice",
          "type": "uint256"
        }
      ],
      "name": "PriceUpdated",
      "type": "event"
    },
    {
      "anonymous": false,
      "inputs": [
        {
          "indexed": true,
          "internalType": "address",
          "name": "implementation",
          "type": "address"
        }
      ],
      "name": "Upgraded",
      "type": "event"
    },
    {
      "inputs": [],
      "name": "UPGRADE_INTERFACE_VERSION",
      "outputs": [
        {
          "internalType": "string",
          "name": "",
          "type": "string"
        }
      ],
      "stateMutability": "view",
      "type": "function"
    },
    {
      "inputs": [],
      "name": "acceptOwnership",
      "outputs": [],
      "stateMutability": "nonpayable",
      "type": "function"
    },
    {
      "inputs": [],
      "name": "asset",
      "outputs": [
        {
          "internalType": "address",
          "name": "",
          "type": "address"
        }
      ],
      "stateMutability": "view",
      "type": "function"
    },
    {
      "inputs": [
        {
          "internalType": "address",
          "name": "asset_",
          "type": "address"
        },
        {
          "internalType": "uint256",
          "name": "initialPrice",
          "type": "uint256"
        },
        {
          "internalType": "address",
          "name": "initialOwner",
          "type": "address"
        }
      ],
      "name": "initialize",
      "outputs": [],
      "stateMutability": "nonpayable",
      "type": "function"
    },
    {
      "inputs": [],
      "name": "owner",
      "outputs": [
        {
          "internalType": "address",
          "name": "",
          "type": "address"
        }
      ],
      "stateMutability": "view",
      "type": "function"
    },
    {
      "inputs": [],
      "name": "pendingOwner",
      "outputs": [
        {
          "internalType": "address",
          "name": "",
          "type": "address"
        }
      ],
      "stateMutability": "view",
      "type": "function"
    },
    {
      "inputs": [],
      "name": "price",
      "outputs": [
        {
          "internalType": "uint256",
          "name": "",
          "type": "uint256"
        }
      ],
      "stateMutability": "view",
      "type": "function"
    },
    {
      "inputs": [],
      "name": "proxiableUUID",
      "outputs": [
        {
          "internalType": "bytes32",
          "name": "",
          "type": "bytes32"
        }
      ],
      "stateMutability": "view",
      "type": "function"
    },
    {
      "inputs": [],
      "name": "renounceOwnership",
      "outputs": [],
      "stateMutability": "nonpayable",
      "type": "function"
    },
    {
      "inputs": [
        {
          "internalType": "address",
          "name": "newOwner",
          "type": "address"
        }
      ],
      "name": "transferOwnership",
      "outputs": [],
      "stateMutability": "nonpayable",
      "type": "function"
    },
    {
      "inputs": [],
      "name": "update",
      "outputs": [
        {
          "internalType": "uint256",
          "name": "newPrice",
          "type": "uint256"
        }
      ],
      "stateMutability": "nonpayable",
      "type": "function"
    },
    {
      "inputs": [
        {
          "internalType": "address",
          "name": "newImplementation",
          "type": "address"
        },
        {
          "internalType": "bytes",
          "name": "data",
          "type": "bytes"
        }
      ],
      "name": "upgradeToAndCall",
      "outputs": [],
      "stateMutability": "payable",
      "type": "function"
    }
  ],
  "bytecode": "0x60a0604052306080523480156012575f80fd5b50608051610cde6100395f395f81816105c2015281816105eb015261072f0152610cde5ff3fe6080604052600436106100a5575f3560e01c8063a035b1fe11610062578063a035b1fe14610157578063a2e620451461016b578063ad3cb1cc1461017f578063c350a1b5146101bc578063e30c3978146101db578063f2fde38b146101ef575f80fd5b806338d52e0f146100a95780634f1ef286146100e457806352d1902d146100f9578063715018a61461011b57806379ba50971461012f5780638da5cb5b14610143575b5f80fd5b3480156100b4575f80fd5b505f546100c7906001600160a01b031681565b6040516001600160a01b0390911681526020015b60405180910390f35b6100f76100f2366004610ab7565b61020e565b005b348015610104575f80fd5b5061010d61022d565b6040519081526020016100db565b348015610126575f80fd5b506100f7610248565b34801561013a575f80fd5b506100f761025b565b34801561014e575f80fd5b506100c76102a8565b348015610162575f80fd5b5060015461010d565b348015610176575f80fd5b5061010d6102dc565b34801561018a575f80fd5b506101af604051806040016040528060058152602001640352e302e360dc1b81525081565b6040516100db9190610b7b565b3480156101c7575f80fd5b506100f76101d6366004610bb0565b610399565b3480156101e6575f80fd5b506100c761050a565b3480156101fa575f80fd5b506100f7610209366004610be9565b610532565b6102166105b7565b61021f8261065b565b6102298282610663565b5050565b5f610236610724565b505f80516020610c8983398151915290565b61025061076d565b6102595f61079f565b565b338061026561050a565b6001600160a01b03161461029c5760405163118cdaa760e01b81526001600160a01b03821660048201526024015b60405180910390fd5b6102a58161079f565b50565b5f807f9016d09d72d40fdae2fd8ceac6b6234c7706214fd39c1cd1e609a0528c1993005b546001600160a01b031692915050565b5f60646102ea600143610c16565b5f54600154604080519340602085015242908401526bffffffffffffffffffffffff19606092831b16918301919091526074820152609401604051602081830303815290604052805190602001205f1c6103449190610c29565b61034f906001610c48565b60018190555f546040518281529192506001600160a01b0316907f0d86730737b142fc160892fa8a0f2db687a92a0e294d1ad70624cf5acef03b849060200160405180910390a290565b5f6103a26107d7565b805490915060ff600160401b820416159067ffffffffffffffff165f811580156103c95750825b90505f8267ffffffffffffffff1660011480156103e55750303b155b9050811580156103f3575080155b156104115760405163f92ee8a960e01b815260040160405180910390fd5b845467ffffffffffffffff19166001178555831561043b57845460ff60401b1916600160401b1785555b6001600160a01b0388166104625760405163d92e233d60e01b815260040160405180910390fd5b865f0361048257604051634dfba02360e01b815260040160405180910390fd5b61048a610801565b610492610801565b5f80546001600160a01b0319166001600160a01b038a1617905560018790556104ba8661079f565b831561050057845460ff60401b19168555604051600181527fc7f505b2f371ae2175ee4913f4499e1f2633a7b5936321eed1cdaeb6115181d29060200160405180910390a15b5050505050505050565b5f807f237e158222e3e6968b72b9db0d8043aacf074ad9f650f0d1606b4d82ee432c006102cc565b61053a61076d565b7f237e158222e3e6968b72b9db0d8043aacf074ad9f650f0d1606b4d82ee432c0080546001600160a01b0319166001600160a01b038316908117825561057e6102a8565b6001600160a01b03167f38d16b8cac22d99fc7c124b9cd0de2d3fa1faef420bfe791d8c362d765e2270060405160405180910390a35050565b306001600160a01b037f000000000000000000000000000000000000000000000000000000000000000016148061063d57507f00000000000000000000000000000000000000000000000000000000000000006001600160a01b03166106315f80516020610c89833981519152546001600160a01b031690565b6001600160a01b031614155b156102595760405163703e46dd60e11b815260040160405180910390fd5b6102a561076d565b816001600160a01b03166352d1902d6040518163ffffffff1660e01b8152600401602060405180830381865afa9250505080156106bd575060408051601f3d908101601f191682019092526106ba91810190610c5b565b60015b6106e557604051634c9c8ce360e01b81526001600160a01b0383166004820152602401610293565b5f80516020610c89833981519152811461071557604051632a87526960e21b815260048101829052602401610293565b61071f8383610809565b505050565b306001600160a01b037f000000000000000000000000000000000000000000000000000000000000000016146102595760405163703e46dd60e11b815260040160405180910390fd5b336107766102a8565b6001600160a01b0316146102595760405163118cdaa760e01b8152336004820152602401610293565b7f237e158222e3e6968b72b9db0d8043aacf074ad9f650f0d1606b4d82ee432c0080546001600160a01b03191681556102298261085e565b5f807ff0c57e16840df040f15088dc2f81fe391c3923bec73e23a9662efc9c229c6a005b92915050565b6102596108ce565b610812826108f3565b6040516001600160a01b038316907fbc7cd75a20ee27fd9adebab32041f755214dbc6bffa90cc0225b39da2e5c2d3b905f90a28051156108565761071f8282610956565b6102296109c8565b7f9016d09d72d40fdae2fd8ceac6b6234c7706214fd39c1cd1e609a0528c19930080546001600160a01b031981166001600160a01b03848116918217845560405192169182907f8be0079c531659141344cd1fd0a4f28419497f9722a3daafe3b4186f6b6457e0905f90a3505050565b6108d66109e7565b61025957604051631afcd79f60e31b815260040160405180910390fd5b806001600160a01b03163b5f0361092857604051634c9c8ce360e01b81526001600160a01b0382166004820152602401610293565b5f80516020610c8983398151915280546001600160a01b0319166001600160a01b0392909216919091179055565b60605f80846001600160a01b0316846040516109729190610c72565b5f60405180830381855af49150503d805f81146109aa576040519150601f19603f3d011682016040523d82523d5f602084013e6109af565b606091505b50915091506109bf858383610a00565b95945050505050565b34156102595760405163b398979f60e01b815260040160405180910390fd5b5f6109f06107d7565b54600160401b900460ff16919050565b606082610a1557610a1082610a5f565b610a58565b8151158015610a2c57506001600160a01b0384163b155b15610a5557604051639996b31560e01b81526001600160a01b0385166004820152602401610293565b50805b9392505050565b805115610a6f5780518082602001fd5b60405163d6bda27560e01b815260040160405180910390fd5b80356001600160a01b0381168114610a9e575f80fd5b919050565b634e487b7160e01b5f52604160045260245ffd5b5f8060408385031215610ac8575f80fd5b610ad183610a88565b9150602083013567ffffffffffffffff811115610aec575f80fd5b8301601f81018513610afc575f80fd5b803567ffffffffffffffff811115610b1657610b16610aa3565b604051601f8201601f19908116603f0116810167ffffffffffffffff81118282101715610b4557610b45610aa3565b604052818152828201602001871015610b5c575f80fd5b816020840160208301375f602083830101528093505050509250929050565b602081525f82518060208401528060208501604085015e5f604082850101526040601f19601f83011684010191505092915050565b5f805f60608486031215610bc2575f80fd5b610bcb84610a88565b925060208401359150610be060408501610a88565b90509250925092565b5f60208284031215610bf9575f80fd5b610a5882610a88565b634e487b7160e01b5f52601160045260245ffd5b818103818111156107fb576107fb610c02565b5f82610c4357634e487b7160e01b5f52601260045260245ffd5b500690565b808201808211156107fb576107fb610c02565b5f60208284031215610c6b575f80fd5b5051919050565b5f82518060208501845e5f92019182525091905056fe360894a13ba1a3210667c828492db98dca3e2076cc3735a920a3ca505d382bbca26469706673582212204eaccb4046316478e9c59a5e28c656f79a8ae1f366f12de54f6c008741da634c64736f6c634300081a0033",
  "linkReferences": {},
  "deployedLinkReferences": {}
}