{
  "_format": "hh-sol-artifact-1",
  "contractName": "UniverseOracle",
  "sourceName": "contracts/mocks/UniverseOracle.sol",
  "abi": [
    {
      "inputs": [
        {
          "internalType": "address",
          "name": "target",
          "type": "address"
        }
      ],
      "name": "AddressEmptyCode",
      "type": "error"
    },
    {
      "inputs": [
        {
          "internalType": "address",
          "name": "implementation",
          "type": "address"
        }
      ],
      "name": "ERC1967InvalidImplementation",
      "type": "error"
    },
    {
      "inputs": [],
      "name": "ERC1967NonPayable",
      "type": "error"
    },
    {
      "inputs": [],
      "name": "FailedCall",
      "type": "error"
    },
    {
      "inputs": [],
      "name": "InvalidInitialization",
      "type": "error"
    },
    {
      "inputs": [],
      "name": "NotInitializing",
      "type": "error"
    },
    {
      "inputs": [
        {
          "internalType": "address",
          "name": "owner",
          "type": "address"
        }
      ],
      "name": "OwnableInvalidOwner",
      "type": "error"
    },
    {
      "inputs": [
        {
          "internalType": "address",
          "name": "account",
          "type": "address"
        }
      ],
      "name": "OwnableUnauthorizedAccount",
      "type": "error"
    },
    {
      "inputs": [],
      "name": "UUPSUnauthorizedCallContext",
      "type": "error"
    },
    {
      "inputs": [
        {
          "internalType": "bytes32",
          "name": "slot",
          "type": "bytes32"
        }
      ],
      "name": "UUPSUnsupportedProxiableUUID",
      "type": "error"
    },
    {
      "inputs": [],
      "name": "ZeroAddress",
      "type": "error"
    },
    {
      "anonymous": false,
      "inputs": [
        {
          "indexed": false,
          "internalType": "uint64",
          "name": "version",
          "type": "uint64"
        }
      ],
      "name": "Initialized",
      "type": "event"
    },
    {
      "anonymous": false,
      "inputs": [
        {
          "indexed": true,
          "internalType": "address",
          "name": "previousOwner",
          "type": "address"
        },
        {
          "indexed": true,
          "internalType": "address",
          "name": "newOwner",
          "type": "address"
        }
      ],
      "name": "OwnershipTransferStarted",
      "type": "event"
    },
    {
      "anonymous": false,
      "inputs": [
        {
          "indexed": true,
          "internalType": "address",
          "name": "previousOwner",
          "type": "address"
        },
        {
          "indexed": true,
          "internalType": "address",
          "name": "newOwner",
          "type": "address"
        }
      ],
      "name": "OwnershipTransferred",
      "type": "event"
    },
    {
      "anonymous": false,
      "inputs": [
        {
          "indexed": true,
          "internalType": "address",
          "name": "implementation",
          "type": "address"
        }
      ],
      "name": "Upgraded",
      "type": "event"
    },
    {
      "inputs": [],
      "name": "UPGRADE_INTERFACE_VERSION",
      "outputs": [
        {
          "internalType": "string",
          "name": "",
          "type": "string"
        }
      ],
      "stateMutability": "view",
      "type": "function"
    },
    {
      "inputs": [],
      "name": "acceptOwnership",
      "outputs": [],
      "stateMutability": "nonpayable",
      "type": "function"
    },
    {
      "inputs": [],
      "name": "asset",
      "outputs": [
        {
          "internalType": "address",
          "name": "",
          "type": "address"
        }
      ],
      "stateMutability": "view",
      "type": "function"
    },
    {
      "inputs": [
        {
          "internalType": "address",
          "name": "asset_",
          "type": "address"
        },
        {
          "internalType": "address",
          "name": "initialOwner",
          "type": "address"
        }
      ],
      "name": "initialize",
      "outputs": [],
      "stateMutability": "nonpayable",
      "type": "function"
    },
    {
      "inputs": [],
      "name": "owner",
      "outputs": [
        {
          "internalType": "address",
          "name": "",
          "type": "address"
        }
      ],
      "stateMutability": "view",
      "type": "function"
    },
    {
      "inputs": [],
      "name": "pendingOwner",
      "outputs": [
        {
          "internalType": "address",
          "name": "",
          "type": "address"
        }
      ],
      "stateMutability": "view",
      "type": "function"
    },
    {
      "inputs": [],
      "name": "price",
      "outputs": [
        {
          "internalType": "uint256",
          "name": "",
          "type": "uint256"
        }
      ],
      "stateMutability": "view",
      "type": "function"
    },
    {
      "inputs": [],
      "name": "proxiableUUID",
      "outputs": [
        {
          "internalType": "bytes32",
          "name": "",
          "type": "bytes32"
        }
      ],
      "stateMutability": "view",
      "type": "function"
    },
    {
      "inputs": [],
      "name": "renounceOwnership",
      "outputs": [],
      "stateMutability": "nonpayable",
      "type": "function"
    },
    {
      "inputs": [
        {
          "internalType": "address",
          "name": "newOwner",
          "type": "address"
        }
      ],
      "name": "transferOwnership",
      "outputs": [],
      "stateMutability": "nonpayable",
      "type": "function"
    },
    {
      "inputs": [
        {
          "internalType": "address",
          "name": "newImplementation",
          "type": "address"
        },
        {
          "internalType": "bytes",
          "name": "data",
          "type": "bytes"
        }
      ],
      "name": "upgradeToAndCall",
      "outputs": [],
      "stateMutability": "payable",
      "type": "function"
    }
  ],
  "bytecode": "0x60a0604052306080523480156012575f80fd5b50608051610c416100395f395f8181610597015281816105c001526107040152610c415ff3fe60806040526004361061009a575f3560e01c806379ba50971161006257806379ba5097146101435780638da5cb5b14610157578063a035b1fe1461016b578063ad3cb1cc1461017f578063e30c3978146101bc578063f2fde38b146101d0575f80fd5b806338d52e0f1461009e578063485cc955146100d95780634f1ef286146100fa57806352d1902d1461010d578063715018a61461012f575b5f80fd5b3480156100a9575f80fd5b505f546100bc906001600160a01b031681565b6040516001600160a01b0390911681526020015b60405180910390f35b3480156100e4575f80fd5b506100f86100f3366004610a0e565b6101ef565b005b6100f8610108366004610a53565b61033a565b348015610118575f80fd5b50610121610359565b6040519081526020016100d0565b34801561013a575f80fd5b506100f8610374565b34801561014e575f80fd5b506100f8610387565b348015610162575f80fd5b506100bc6103d4565b348015610176575f80fd5b50610121610408565b34801561018a575f80fd5b506101af604051806040016040528060058152602001640352e302e360dc1b81525081565b6040516100d09190610b17565b3480156101c7575f80fd5b506100bc610475565b3480156101db575f80fd5b506100f86101ea366004610b4c565b61049d565b5f6101f8610522565b805490915060ff600160401b820416159067ffffffffffffffff165f8115801561021f5750825b90505f8267ffffffffffffffff16600114801561023b5750303b155b905081158015610249575080155b156102675760405163f92ee8a960e01b815260040160405180910390fd5b845467ffffffffffffffff19166001178555831561029157845460ff60401b1916600160401b1785555b6001600160a01b0387166102b85760405163d92e233d60e01b815260040160405180910390fd5b6102c061054c565b6102c861054c565b5f80546001600160a01b0319166001600160a01b0389161790556102eb86610554565b831561033157845460ff60401b19168555604051600181527fc7f505b2f371ae2175ee4913f4499e1f2633a7b5936321eed1cdaeb6115181d29060200160405180910390a15b50505050505050565b61034261058c565b61034b82610630565b6103558282610638565b5050565b5f6103626106f9565b505f80516020610bec83398151915290565b61037c610742565b6103855f610554565b565b3380610391610475565b6001600160a01b0316146103c85760405163118cdaa760e01b81526001600160a01b03821660048201526024015b60405180910390fd5b6103d181610554565b50565b5f807f9016d09d72d40fdae2fd8ceac6b6234c7706214fd39c1cd1e609a0528c1993005b546001600160a01b031692915050565b5f6064610416600143610b79565b5f54604080519240602084015242908301526bffffffffffffffffffffffff19606091821b1690820152607401604051602081830303815290604052805190602001205f1c6104659190610b8c565b610470906001610bab565b905090565b5f807f237e158222e3e6968b72b9db0d8043aacf074ad9f650f0d1606b4d82ee432c006103f8565b6104a5610742565b7f237e158222e3e6968b72b9db0d8043aacf074ad9f650f0d1606b4d82ee432c0080546001600160a01b0319166001600160a01b03831690811782556104e96103d4565b6001600160a01b03167f38d16b8cac22d99fc7c124b9cd0de2d3fa1faef420bfe791d8c362d765e2270060405160405180910390a35050565b5f807ff0c57e16840df040f15088dc2f81fe391c3923bec73e23a9662efc9c229c6a005b92915050565b610385610774565b7f237e158222e3e6968b72b9db0d8043aacf074ad9f650f0d1606b4d82ee432c0080546001600160a01b031916815561035582610799565b306001600160a01b037f000000000000000000000000000000000000000000000000000000000000000016148061061257507f00000000000000000000000000000000000000000000000000000000000000006001600160a01b03166106065f80516020610bec833981519152546001600160a01b031690565b6001600160a01b031614155b156103855760405163703e46dd60e11b815260040160405180910390fd5b6103d1610742565b816001600160a01b03166352d1902d6040518163ffffffff1660e01b8152600401602060405180830381865afa925050508015610692575060408051601f3d908101601f1916820190925261068f91810190610bbe565b60015b6106ba57604051634c9c8ce360e01b81526001600160a01b03831660048201526024016103bf565b5f80516020610bec83398151915281146106ea57604051632a87526960e21b8152600481018290526024016103bf565b6106f48383610809565b505050565b306001600160a01b037f000000000000000000000000000000000000000000000000000000000000000016146103855760405163703e46dd60e11b815260040160405180910390fd5b3361074b6103d4565b6001600160a01b0316146103855760405163118cdaa760e01b81523360048201526024016103bf565b61077c61085e565b61038557604051631afcd79f60e31b815260040160405180910390fd5b7f9016d09d72d40fdae2fd8ceac6b6234c7706214fd39c1cd1e609a0528c19930080546001600160a01b031981166001600160a01b03848116918217845560405192169182907f8be0079c531659141344cd1fd0a4f28419497f9722a3daafe3b4186f6b6457e0905f90a3505050565b61081282610877565b6040516001600160a01b038316907fbc7cd75a20ee27fd9adebab32041f755214dbc6bffa90cc0225b39da2e5c2d3b905f90a2805115610856576106f482826108da565b61035561094c565b5f610867610522565b54600160401b900460ff16919050565b806001600160a01b03163b5f036108ac57604051634c9c8ce360e01b81526001600160a01b03821660048201526024016103bf565b5f80516020610bec83398151915280546001600160a01b0319166001600160a01b0392909216919091179055565b60605f80846001600160a01b0316846040516108f69190610bd5565b5f60405180830381855af49150503d805f811461092e576040519150601f19603f3d011682016040523d82523d5f602084013e610933565b606091505b509150915061094385838361096b565b95945050505050565b34156103855760405163b398979f60e01b815260040160405180910390fd5b6060826109805761097b826109ca565b6109c3565b815115801561099757506001600160a01b0384163b155b156109c057604051639996b31560e01b81526001600160a01b03851660048201526024016103bf565b50805b9392505050565b8051156109da5780518082602001fd5b60405163d6bda27560e01b815260040160405180910390fd5b80356001600160a01b0381168114610a09575f80fd5b919050565b5f8060408385031215610a1f575f80fd5b610a28836109f3565b9150610a36602084016109f3565b90509250929050565b634e487b7160e01b5f52604160045260245ffd5b5f8060408385031215610a64575f80fd5b610a6d836109f3565b9150602083013567ffffffffffffffff811115610a88575f80fd5b8301601f81018513610a98575f80fd5b803567ffffffffffffffff811115610ab257610ab2610a3f565b604051601f8201601f19908116603f0116810167ffffffffffffffff81118282101715610ae157610ae1610a3f565b604052818152828201602001871015610af8575f80fd5b816020840160208301375f602083830101528093505050509250929050565b602081525f82518060208401528060208501604085015e5f604082850101526040601f19601f83011684010191505092915050565b5f60208284031215610b5c575f80fd5b6109c3826109f3565b634e487b7160e01b5f52601160045260245ffd5b8181038181111561054657610546610b65565b5f82610ba657634e487b7160e01b5f52601260045260245ffd5b500690565b8082018082111561054657610546610b65565b5f60208284031215610bce575f80fd5b5051919050565b5f82518060208501845e5f92019182525091905056fe360894a13ba1a3210667c828492db98dca3e2076cc3735a920a3ca505d382bbca2646970667358221220c7e66d3287873a982605456236853e321d4f65d4ace91f26a2a5cca68a863eb164736f6c634300081a0033",
  "linkReferences": {},
  "deployedLinkReferences": {}
}