{
  "_format": "hh-sol-artifact-1",
  "contractName": "UniverseOracle",
  "sourceName": "contracts/mocks/UniverseOracle.sol",
  "abi": [
    {
      "inputs": [
        {
          "internalType": "address",
          "name": "target",
          "type": "address"
        }
      ],
      "name": "AddressEmptyCode",
      "type": "error"
    },
    {
      "inputs": [
        {
          "internalType": "address",
          "name": "implementation",
          "type": "address"
        }
      ],
      "name": "ERC1967InvalidImplementation",
      "type": "error"
    },
    {
      "inputs": [],
      "name": "ERC1967NonPayable",
      "type": "error"
    },
    {
      "inputs": [],
      "name": "FailedCall",
      "type": "error"
    },
    {
      "inputs": [],
      "name": "InvalidInitialization",
      "type": "error"
    },
    {
      "inputs": [],
      "name": "NotInitializing",
      "type": "error"
    },
    {
      "inputs": [],
      "name": "OracleNotInitialized",
      "type": "error"
    },
    {
      "inputs": [
        {
          "internalType": "address",
          "name": "owner",
          "type": "address"
        }
      ],
      "name": "OwnableInvalidOwner",
      "type": "error"
    },
    {
      "inputs": [
        {
          "internalType": "address",
          "name": "account",
          "type": "address"
        }
      ],
      "name": "OwnableUnauthorizedAccount",
      "type": "error"
    },
    {
      "inputs": [],
      "name": "UUPSUnauthorizedCallContext",
      "type": "error"
    },
    {
      "inputs": [
        {
          "internalType": "bytes32",
          "name": "slot",
          "type": "bytes32"
        }
      ],
      "name": "UUPSUnsupportedProxiableUUID",
      "type": "error"
    },
    {
      "inputs": [],
      "name": "ZeroAddress",
      "type": "error"
    },
    {
      "anonymous": false,
      "inputs": [
        {
          "indexed": false,
          "internalType": "uint64",
          "name": "version",
          "type": "uint64"
        }
      ],
      "name": "Initialized",
      "type": "event"
    },
    {
      "anonymous": false,
      "inputs": [
        {
          "indexed": true,
          "internalType": "address",
          "name": "previousOwner",
          "type": "address"
        },
        {
          "indexed": true,
          "internalType": "address",
          "name": "newOwner",
          "type": "address"
        }
      ],
      "name": "OwnershipTransferStarted",
      "type": "event"
    },
    {
      "anonymous": false,
      "inputs": [
        {
          "indexed": true,
          "internalType": "address",
          "name": "previousOwner",
          "type": "address"
        },
        {
          "indexed": true,
          "internalType": "address",
          "name": "newOwner",
          "type": "address"
        }
      ],
      "name": "OwnershipTransferred",
      "type": "event"
    },
    {
      "anonymous": false,
      "inputs": [
        {
          "indexed": true,
          "internalType": "address",
          "name": "asset",
          "type": "address"
        },
        {
          "indexed": false,
          "internalType": "uint256",
          "name": "newPrice",
          "type": "uint256"
        }
      ],
      "name": "PriceUpdated",
      "type": "event"
    },
    {
      "anonymous": false,
      "inputs": [
        {
          "indexed": true,
          "internalType": "address",
          "name": "implementation",
          "type": "address"
        }
      ],
      "name": "Upgraded",
      "type": "event"
    },
    {
      "inputs": [],
      "name": "UPGRADE_INTERFACE_VERSION",
      "outputs": [
        {
          "internalType": "string",
          "name": "",
          "type": "string"
        }
      ],
      "stateMutability": "view",
      "type": "function"
    },
    {
      "inputs": [],
      "name": "acceptOwnership",
      "outputs": [],
      "stateMutability": "nonpayable",
      "type": "function"
    },
    {
      "inputs": [],
      "name": "asset",
      "outputs": [
        {
          "internalType": "address",
          "name": "",
          "type": "address"
        }
      ],
      "stateMutability": "view",
      "type": "function"
    },
    {
      "inputs": [
        {
          "internalType": "address",
          "name": "asset_",
          "type": "address"
        },
        {
          "internalType": "address",
          "name": "initialOwner",
          "type": "address"
        }
      ],
      "name": "initialize",
      "outputs": [],
      "stateMutability": "nonpayable",
      "type": "function"
    },
    {
      "inputs": [],
      "name": "owner",
      "outputs": [
        {
          "internalType": "address",
          "name": "",
          "type": "address"
        }
      ],
      "stateMutability": "view",
      "type": "function"
    },
    {
      "inputs": [],
      "name": "pendingOwner",
      "outputs": [
        {
          "internalType": "address",
          "name": "",
          "type": "address"
        }
      ],
      "stateMutability": "view",
      "type": "function"
    },
    {
      "inputs": [],
      "name": "price",
      "outputs": [
        {
          "internalType": "uint256",
          "name": "",
          "type": "uint256"
        }
      ],
      "stateMutability": "view",
      "type": "function"
    },
    {
      "inputs": [],
      "name": "proxiableUUID",
      "outputs": [
        {
          "internalType": "bytes32",
          "name": "",
          "type": "bytes32"
        }
      ],
      "stateMutability": "view",
      "type": "function"
    },
    {
      "inputs": [],
      "name": "renounceOwnership",
      "outputs": [],
      "stateMutability": "nonpayable",
      "type": "function"
    },
    {
      "inputs": [
        {
          "internalType": "address",
          "name": "newOwner",
          "type": "address"
        }
      ],
      "name": "transferOwnership",
      "outputs": [],
      "stateMutability": "nonpayable",
      "type": "function"
    },
    {
      "inputs": [],
      "name": "update",
      "outputs": [
        {
          "internalType": "uint256",
          "name": "newPrice",
          "type": "uint256"
        }
      ],
      "stateMutability": "nonpayable",
      "type": "function"
    },
    {
      "inputs": [
        {
          "internalType": "address",
          "name": "newImplementation",
          "type": "address"
        },
        {
          "internalType": "bytes",
          "name": "data",
          "type": "bytes"
        }
      ],
      "name": "upgradeToAndCall",
      "outputs": [],
      "stateMutability": "payable",
      "type": "function"
    }
  ],
  "bytecode": "0x60a0604052306080523480156012575f80fd5b50608051610cf36100395f395f81816106490152818161067201526107b60152610cf35ff3fe6080604052600436106100a5575f3560e01c80638da5cb5b116100625780638da5cb5b14610162578063a035b1fe14610176578063a2e620451461018a578063ad3cb1cc1461019e578063e30c3978146101db578063f2fde38b146101ef575f80fd5b806338d52e0f146100a9578063485cc955146100e45780634f1ef2861461010557806352d1902d14610118578063715018a61461013a57806379ba50971461014e575b5f80fd5b3480156100b4575f80fd5b505f546100c7906001600160a01b031681565b6040516001600160a01b0390911681526020015b60405180910390f35b3480156100ef575f80fd5b506101036100fe366004610ac0565b61020e565b005b610103610113366004610b05565b610363565b348015610123575f80fd5b5061012c610382565b6040519081526020016100db565b348015610145575f80fd5b5061010361039d565b348015610159575f80fd5b506101036103b0565b34801561016d575f80fd5b506100c76103fd565b348015610181575f80fd5b5061012c610431565b348015610195575f80fd5b5061012c61045d565b3480156101a9575f80fd5b506101ce604051806040016040528060058152602001640352e302e360dc1b81525081565b6040516100db9190610bc9565b3480156101e6575f80fd5b506100c7610527565b3480156101fa575f80fd5b50610103610209366004610bfe565b61054f565b5f6102176105d4565b805490915060ff600160401b820416159067ffffffffffffffff165f8115801561023e5750825b90505f8267ffffffffffffffff16600114801561025a5750303b155b905081158015610268575080155b156102865760405163f92ee8a960e01b815260040160405180910390fd5b845467ffffffffffffffff1916600117855583156102b057845460ff60401b1916600160401b1785555b6001600160a01b0387166102d75760405163d92e233d60e01b815260040160405180910390fd5b6102df6105fe565b6102e76105fe565b5f80546001600160a01b0319166001600160a01b0389161790556002805460ff1916905561031486610606565b831561035a57845460ff60401b19168555604051600181527fc7f505b2f371ae2175ee4913f4499e1f2633a7b5936321eed1cdaeb6115181d29060200160405180910390a15b50505050505050565b61036b61063e565b610374826106e2565b61037e82826106ea565b5050565b5f61038b6107ab565b505f80516020610c9e83398151915290565b6103a56107f4565b6103ae5f610606565b565b33806103ba610527565b6001600160a01b0316146103f15760405163118cdaa760e01b81526001600160a01b03821660048201526024015b60405180910390fd5b6103fa81610606565b50565b5f807f9016d09d72d40fdae2fd8ceac6b6234c7706214fd39c1cd1e609a0528c1993005b546001600160a01b031692915050565b6002545f9060ff1661045657604051634eb0db8f60e01b815260040160405180910390fd5b5060015490565b5f606461046b600143610c2b565b5f54600154604080519340602085015242908401526bffffffffffffffffffffffff19606092831b16918301919091526074820152609401604051602081830303815290604052805190602001205f1c6104c59190610c3e565b6104d0906001610c5d565b60018181556002805460ff191690911790555f546040518281529192506001600160a01b0316907f0d86730737b142fc160892fa8a0f2db687a92a0e294d1ad70624cf5acef03b849060200160405180910390a290565b5f807f237e158222e3e6968b72b9db0d8043aacf074ad9f650f0d1606b4d82ee432c00610421565b6105576107f4565b7f237e158222e3e6968b72b9db0d8043aacf074ad9f650f0d1606b4d82ee432c0080546001600160a01b0319166001600160a01b038316908117825561059b6103fd565b6001600160a01b03167f38d16b8cac22d99fc7c124b9cd0de2d3fa1faef420bfe791d8c362d765e2270060405160405180910390a35050565b5f807ff0c57e16840df040f15088dc2f81fe391c3923bec73e23a9662efc9c229c6a005b92915050565b6103ae610826565b7f237e158222e3e6968b72b9db0d8043aacf074ad9f650f0d1606b4d82ee432c0080546001600160a01b031916815561037e8261084b565b306001600160a01b037f00000000000000000000000000000000000000000000000000000000000000001614806106c457507f00000000000000000000000000000000000000000000000000000000000000006001600160a01b03166106b85f80516020610c9e833981519152546001600160a01b031690565b6001600160a01b031614155b156103ae5760405163703e46dd60e11b815260040160405180910390fd5b6103fa6107f4565b816001600160a01b03166352d1902d6040518163ffffffff1660e01b8152600401602060405180830381865afa925050508015610744575060408051601f3d908101601f1916820190925261074191810190610c70565b60015b61076c57604051634c9c8ce360e01b81526001600160a01b03831660048201526024016103e8565b5f80516020610c9e833981519152811461079c57604051632a87526960e21b8152600481018290526024016103e8565b6107a683836108bb565b505050565b306001600160a01b037f000000000000000000000000000000000000000000000000000000000000000016146103ae5760405163703e46dd60e11b815260040160405180910390fd5b336107fd6103fd565b6001600160a01b0316146103ae5760405163118cdaa760e01b81523360048201526024016103e8565b61082e610910565b6103ae57604051631afcd79f60e31b815260040160405180910390fd5b7f9016d09d72d40fdae2fd8ceac6b6234c7706214fd39c1cd1e609a0528c19930080546001600160a01b031981166001600160a01b03848116918217845560405192169182907f8be0079c531659141344cd1fd0a4f28419497f9722a3daafe3b4186f6b6457e0905f90a3505050565b6108c482610929565b6040516001600160a01b038316907fbc7cd75a20ee27fd9adebab32041f755214dbc6bffa90cc0225b39da2e5c2d3b905f90a2805115610908576107a6828261098c565b61037e6109fe565b5f6109196105d4565b54600160401b900460ff16919050565b806001600160a01b03163b5f0361095e57604051634c9c8ce360e01b81526001600160a01b03821660048201526024016103e8565b5f80516020610c9e83398151915280546001600160a01b0319166001600160a01b0392909216919091179055565b60605f80846001600160a01b0316846040516109a89190610c87565b5f60405180830381855af49150503d805f81146109e0576040519150601f19603f3d011682016040523d82523d5f602084013e6109e5565b606091505b50915091506109f5858383610a1d565b95945050505050565b34156103ae5760405163b398979f60e01b815260040160405180910390fd5b606082610a3257610a2d82610a7c565b610a75565b8151158015610a4957506001600160a01b0384163b155b15610a7257604051639996b31560e01b81526001600160a01b03851660048201526024016103e8565b50805b9392505050565b805115610a8c5780518082602001fd5b60405163d6bda27560e01b815260040160405180910390fd5b80356001600160a01b0381168114610abb575f80fd5b919050565b5f8060408385031215610ad1575f80fd5b610ada83610aa5565b9150610ae860208401610aa5565b90509250929050565b634e487b7160e01b5f52604160045260245ffd5b5f8060408385031215610b16575f80fd5b610b1f83610aa5565b9150602083013567ffffffffffffffff811115610b3a575f80fd5b8301601f81018513610b4a575f80fd5b803567ffffffffffffffff811115610b6457610b64610af1565b604051601f8201601f19908116603f0116810167ffffffffffffffff81118282101715610b9357610b93610af1565b604052818152828201602001871015610baa575f80fd5b816020840160208301375f602083830101528093505050509250929050565b602081525f82518060208401528060208501604085015e5f604082850101526040601f19601f83011684010191505092915050565b5f60208284031215610c0e575f80fd5b610a7582610aa5565b634e487b7160e01b5f52601160045260245ffd5b818103818111156105f8576105f8610c17565b5f82610c5857634e487b7160e01b5f52601260045260245ffd5b500690565b808201808211156105f8576105f8610c17565b5f60208284031215610c80575f80fd5b5051919050565b5f82518060208501845e5f92019182525091905056fe360894a13ba1a3210667c828492db98dca3e2076cc3735a920a3ca505d382bbca2646970667358221220e4e4042926fb84f8e9e30df44df80a57b309c9b699abad41231988f7f1391dd864736f6c634300081a0033",
  "linkReferences": {},
  "deployedLinkReferences": {}
}