{
  "_format": "hh-sol-artifact-1",
  "contractName": "UniverseOracle",
  "sourceName": "contracts/mocks/UniverseOracle.sol",
  "abi": [
    {
      "inputs": [
        {
          "internalType": "address",
          "name": "target",
          "type": "address"
        }
      ],
      "name": "AddressEmptyCode",
      "type": "error"
    },
    {
      "inputs": [
        {
          "internalType": "address",
          "name": "implementation",
          "type": "address"
        }
      ],
      "name": "ERC1967InvalidImplementation",
      "type": "error"
    },
    {
      "inputs": [],
      "name": "ERC1967NonPayable",
      "type": "error"
    },
    {
      "inputs": [],
      "name": "FailedCall",
      "type": "error"
    },
    {
      "inputs": [],
      "name": "InvalidInitialization",
      "type": "error"
    },
    {
      "inputs": [],
      "name": "NotInitializing",
      "type": "error"
    },
    {
      "inputs": [
        {
          "internalType": "address",
          "name": "owner",
          "type": "address"
        }
      ],
      "name": "OwnableInvalidOwner",
      "type": "error"
    },
    {
      "inputs": [
        {
          "internalType": "address",
          "name": "account",
          "type": "address"
        }
      ],
      "name": "OwnableUnauthorizedAccount",
      "type": "error"
    },
    {
      "inputs": [],
      "name": "UUPSUnauthorizedCallContext",
      "type": "error"
    },
    {
      "inputs": [
        {
          "internalType": "bytes32",
          "name": "slot",
          "type": "bytes32"
        }
      ],
      "name": "UUPSUnsupportedProxiableUUID",
      "type": "error"
    },
    {
      "inputs": [],
      "name": "ZeroAddress",
      "type": "error"
    },
    {
      "anonymous": false,
      "inputs": [
        {
          "indexed": false,
          "internalType": "uint64",
          "name": "version",
          "type": "uint64"
        }
      ],
      "name": "Initialized",
      "type": "event"
    },
    {
      "anonymous": false,
      "inputs": [
        {
          "indexed": true,
          "internalType": "address",
          "name": "previousOwner",
          "type": "address"
        },
        {
          "indexed": true,
          "internalType": "address",
          "name": "newOwner",
          "type": "address"
        }
      ],
      "name": "OwnershipTransferStarted",
      "type": "event"
    },
    {
      "anonymous": false,
      "inputs": [
        {
          "indexed": true,
          "internalType": "address",
          "name": "previousOwner",
          "type": "address"
        },
        {
          "indexed": true,
          "internalType": "address",
          "name": "newOwner",
          "type": "address"
        }
      ],
      "name": "OwnershipTransferred",
      "type": "event"
    },
    {
      "anonymous": false,
      "inputs": [
        {
          "indexed": true,
          "internalType": "address",
          "name": "implementation",
          "type": "address"
        }
      ],
      "name": "Upgraded",
      "type": "event"
    },
    {
      "inputs": [],
      "name": "UPGRADE_INTERFACE_VERSION",
      "outputs": [
        {
          "internalType": "string",
          "name": "",
          "type": "string"
        }
      ],
      "stateMutability": "view",
      "type": "function"
    },
    {
      "inputs": [],
      "name": "acceptOwnership",
      "outputs": [],
      "stateMutability": "nonpayable",
      "type": "function"
    },
    {
      "inputs": [],
      "name": "asset",
      "outputs": [
        {
          "internalType": "address",
          "name": "",
          "type": "address"
        }
      ],
      "stateMutability": "view",
      "type": "function"
    },
    {
      "inputs": [
        {
          "internalType": "address",
          "name": "asset_",
          "type": "address"
        },
        {
          "internalType": "address",
          "name": "initialOwner",
          "type": "address"
        }
      ],
      "name": "initialize",
      "outputs": [],
      "stateMutability": "nonpayable",
      "type": "function"
    },
    {
      "inputs": [],
      "name": "owner",
      "outputs": [
        {
          "internalType": "address",
          "name": "",
          "type": "address"
        }
      ],
      "stateMutability": "view",
      "type": "function"
    },
    {
      "inputs": [],
      "name": "pendingOwner",
      "outputs": [
        {
          "internalType": "address",
          "name": "",
          "type": "address"
        }
      ],
      "stateMutability": "view",
      "type": "function"
    },
    {
      "inputs": [],
      "name": "price",
      "outputs": [
        {
          "internalType": "uint256",
          "name": "",
          "type": "uint256"
        }
      ],
      "stateMutability": "view",
      "type": "function"
    },
    {
      "inputs": [],
      "name": "proxiableUUID",
      "outputs": [
        {
          "internalType": "bytes32",
          "name": "",
          "type": "bytes32"
        }
      ],
      "stateMutability": "view",
      "type": "function"
    },
    {
      "inputs": [],
      "name": "renounceOwnership",
      "outputs": [],
      "stateMutability": "nonpayable",
      "type": "function"
    },
    {
      "inputs": [
        {
          "internalType": "address",
          "name": "newOwner",
          "type": "address"
        }
      ],
      "name": "transferOwnership",
      "outputs": [],
      "stateMutability": "nonpayable",
      "type": "function"
    },
    {
      "inputs": [
        {
          "internalType": "address",
          "name": "newImplementation",
          "type": "address"
        },
        {
          "internalType": "bytes",
          "name": "data",
          "type": "bytes"
        }
      ],
      "name": "upgradeToAndCall",
      "outputs": [],
      "stateMutability": "payable",
      "type": "function"
    }
  ],
  "bytecode": "0x60a06040523073ffffffffffffffffffffffffffffffffffffffff1660809073ffffffffffffffffffffffffffffffffffffffff168152503480156041575f80fd5b506080516118456100685f395f81816108e4015281816109390152610b2f01526118455ff3fe60806040526004361061009b575f3560e01c806379ba50971161006357806379ba50971461014d5780638da5cb5b14610163578063a035b1fe1461018d578063ad3cb1cc146101b7578063e30c3978146101e1578063f2fde38b1461020b5761009b565b806338d52e0f1461009f578063485cc955146100c95780634f1ef286146100f157806352d1902d1461010d578063715018a614610137575b5f80fd5b3480156100aa575f80fd5b506100b3610233565b6040516100c0919061120c565b60405180910390f35b3480156100d4575f80fd5b506100ef60048036038101906100ea9190611260565b610256565b005b61010b600480360381019061010691906113da565b6105a4565b005b348015610118575f80fd5b506101216105c3565b60405161012e919061144c565b60405180910390f35b348015610142575f80fd5b5061014b6105f4565b005b348015610158575f80fd5b50610161610607565b005b34801561016e575f80fd5b50610177610695565b604051610184919061120c565b60405180910390f35b348015610198575f80fd5b506101a16106ca565b6040516101ae919061147d565b60405180910390f35b3480156101c2575f80fd5b506101cb61077d565b6040516101d891906114f6565b60405180910390f35b3480156101ec575f80fd5b506101f56107b6565b604051610202919061120c565b60405180910390f35b348015610216575f80fd5b50610231600480360381019061022c9190611516565b6107eb565b005b5f8054906101000a900473ffffffffffffffffffffffffffffffffffffffff1681565b61026a67850e874e33457bba60c01b6108a4565b5f6102736108a7565b90505f815f0160089054906101000a900460ff161590505f825f015f9054906101000a900467ffffffffffffffff1690505f808267ffffffffffffffff161480156102bb5750825b90505f60018367ffffffffffffffff161480156102ee57505f3073ffffffffffffffffffffffffffffffffffffffff163b145b9050811580156102fc575080155b15610333576040517ff92ee8a900000000000000000000000000000000000000000000000000000000815260040160405180910390fd5b6001855f015f6101000a81548167ffffffffffffffff021916908367ffffffffffffffff1602179055508315610380576001855f0160086101000a81548160ff0219169083151502179055505b6103946782b3aeab9618b4cd60c01b6108a4565b6103a867a2ea63b27ece3d3a60c01b6108a4565b6103bc670ef05a8344b4ea1c60c01b6108a4565b6103d06708285e4b69b667a960c01b6108a4565b5f73ffffffffffffffffffffffffffffffffffffffff168773ffffffffffffffffffffffffffffffffffffffff16036104495761041767c4120b02da1b751160c01b6108a4565b6040517fd92e233d00000000000000000000000000000000000000000000000000000000815260040160405180910390fd5b61045d679c954508694698e260c01b6108a4565b610471674de8e77dfec3618660c01b6108a4565b610485676f08165ea0f4861460c01b6108a4565b61048e866108ba565b6104a267b82ee22a7b3161dc60c01b6108a4565b6104b66799ae36b79788006c60c01b6108a4565b6104be6108ce565b6104d267589ef8a2eaab701060c01b6108a4565b6104e6678f189faca849c2de60c01b6108a4565b6104ee6108d8565b61050267161de35c545bd05860c01b6108a4565b865f806101000a81548173ffffffffffffffffffffffffffffffffffffffff021916908373ffffffffffffffffffffffffffffffffffffffff160217905550831561059b575f855f0160086101000a81548160ff0219169083151502179055507fc7f505b2f371ae2175ee4913f4499e1f2633a7b5936321eed1cdaeb6115181d260016040516105929190611596565b60405180910390a15b50505050505050565b6105ac6108e2565b6105b5826109c8565b6105bf8282610a0f565b5050565b5f6105cc610b2d565b7f360894a13ba1a3210667c828492db98dca3e2076cc3735a920a3ca505d382bbc5f1b905090565b6105fc610bb4565b6106055f610c3b565b565b5f610610610c78565b90508073ffffffffffffffffffffffffffffffffffffffff166106316107b6565b73ffffffffffffffffffffffffffffffffffffffff161461068957806040517f118cdaa7000000000000000000000000000000000000000000000000000000008152600401610680919061120c565b60405180910390fd5b61069281610c3b565b50565b5f8061069f610c7f565b9050805f015f9054906101000a900473ffffffffffffffffffffffffffffffffffffffff1691505090565b5f6106df676b573c8fc9cb1ce260c01b6108a4565b6106f3674506f3100848f1f560c01b6108a4565b6107076709b3c049eda81b7260c01b6108a4565b6001606460014361071891906115dc565b40425f8054906101000a900473ffffffffffffffffffffffffffffffffffffffff1660405160200161074c93929190611694565b604051602081830303815290604052805190602001205f1c61076e91906116fd565b610778919061172d565b905090565b6040518060400160405280600581526020017f352e302e3000000000000000000000000000000000000000000000000000000081525081565b5f806107c0610ca6565b9050805f015f9054906101000a900473ffffffffffffffffffffffffffffffffffffffff1691505090565b6107f3610bb4565b5f6107fc610ca6565b905081815f015f6101000a81548173ffffffffffffffffffffffffffffffffffffffff021916908373ffffffffffffffffffffffffffffffffffffffff1602179055508173ffffffffffffffffffffffffffffffffffffffff1661085e610695565b73ffffffffffffffffffffffffffffffffffffffff167f38d16b8cac22d99fc7c124b9cd0de2d3fa1faef420bfe791d8c362d765e2270060405160405180910390a35050565b50565b5f806108b1610ccd565b90508091505090565b6108c2610cf6565b6108cb81610d36565b50565b6108d6610cf6565b565b6108e0610cf6565b565b7f000000000000000000000000000000000000000000000000000000000000000073ffffffffffffffffffffffffffffffffffffffff163073ffffffffffffffffffffffffffffffffffffffff16148061098f57507f000000000000000000000000000000000000000000000000000000000000000073ffffffffffffffffffffffffffffffffffffffff16610976610dba565b73ffffffffffffffffffffffffffffffffffffffff1614155b156109c6576040517fe07c8dba00000000000000000000000000000000000000000000000000000000815260040160405180910390fd5b565b6109dc6772c0e2b772fff91560c01b6108a4565b6109e4610bb4565b6109f86727facb4ed636b8ae60c01b6108a4565b610a0c67538932157f5b4c6260c01b6108a4565b50565b8173ffffffffffffffffffffffffffffffffffffffff166352d1902d6040518163ffffffff1660e01b8152600401602060405180830381865afa925050508015610a7757506040513d601f19601f82011682018060405250810190610a74919061178a565b60015b610ab857816040517f4c9c8ce3000000000000000000000000000000000000000000000000000000008152600401610aaf919061120c565b60405180910390fd5b7f360894a13ba1a3210667c828492db98dca3e2076cc3735a920a3ca505d382bbc5f1b8114610b1e57806040517faa1d49a4000000000000000000000000000000000000000000000000000000008152600401610b15919061144c565b60405180910390fd5b610b288383610e0d565b505050565b7f000000000000000000000000000000000000000000000000000000000000000073ffffffffffffffffffffffffffffffffffffffff163073ffffffffffffffffffffffffffffffffffffffff1614610bb2576040517fe07c8dba00000000000000000000000000000000000000000000000000000000815260040160405180910390fd5b565b610bbc610c78565b73ffffffffffffffffffffffffffffffffffffffff16610bda610695565b73ffffffffffffffffffffffffffffffffffffffff1614610c3957610bfd610c78565b6040517f118cdaa7000000000000000000000000000000000000000000000000000000008152600401610c30919061120c565b60405180910390fd5b565b5f610c44610ca6565b9050805f015f6101000a81549073ffffffffffffffffffffffffffffffffffffffff0219169055610c7482610e7f565b5050565b5f33905090565b5f7f9016d09d72d40fdae2fd8ceac6b6234c7706214fd39c1cd1e609a0528c199300905090565b5f7f237e158222e3e6968b72b9db0d8043aacf074ad9f650f0d1606b4d82ee432c00905090565b5f7ff0c57e16840df040f15088dc2f81fe391c3923bec73e23a9662efc9c229c6a005f1b905090565b610cfe610f50565b610d34576040517fd7e6bcf800000000000000000000000000000000000000000000000000000000815260040160405180910390fd5b565b610d3e610cf6565b5f73ffffffffffffffffffffffffffffffffffffffff168173ffffffffffffffffffffffffffffffffffffffff1603610dae575f6040517f1e4fbdf7000000000000000000000000000000000000000000000000000000008152600401610da5919061120c565b60405180910390fd5b610db781610c3b565b50565b5f610de67f360894a13ba1a3210667c828492db98dca3e2076cc3735a920a3ca505d382bbc5f1b610f6e565b5f015f9054906101000a900473ffffffffffffffffffffffffffffffffffffffff16905090565b610e1682610f77565b8173ffffffffffffffffffffffffffffffffffffffff167fbc7cd75a20ee27fd9adebab32041f755214dbc6bffa90cc0225b39da2e5c2d3b60405160405180910390a25f81511115610e7257610e6c8282611040565b50610e7b565b610e7a6110c0565b5b5050565b5f610e88610c7f565b90505f815f015f9054906101000a900473ffffffffffffffffffffffffffffffffffffffff16905082825f015f6101000a81548173ffffffffffffffffffffffffffffffffffffffff021916908373ffffffffffffffffffffffffffffffffffffffff1602179055508273ffffffffffffffffffffffffffffffffffffffff168173ffffffffffffffffffffffffffffffffffffffff167f8be0079c531659141344cd1fd0a4f28419497f9722a3daafe3b4186f6b6457e060405160405180910390a3505050565b5f610f596108a7565b5f0160089054906101000a900460ff16905090565b5f819050919050565b5f8173ffffffffffffffffffffffffffffffffffffffff163b03610fd257806040517f4c9c8ce3000000000000000000000000000000000000000000000000000000008152600401610fc9919061120c565b60405180910390fd5b80610ffe7f360894a13ba1a3210667c828492db98dca3e2076cc3735a920a3ca505d382bbc5f1b610f6e565b5f015f6101000a81548173ffffffffffffffffffffffffffffffffffffffff021916908373ffffffffffffffffffffffffffffffffffffffff16021790555050565b60605f808473ffffffffffffffffffffffffffffffffffffffff168460405161106991906117f9565b5f60405180830381855af49150503d805f81146110a1576040519150601f19603f3d011682016040523d82523d5f602084013e6110a6565b606091505b50915091506110b68583836110fc565b9250505092915050565b5f3411156110fa576040517fb398979f00000000000000000000000000000000000000000000000000000000815260040160405180910390fd5b565b6060826111115761110c82611189565b611181565b5f825114801561113757505f8473ffffffffffffffffffffffffffffffffffffffff163b145b1561117957836040517f9996b315000000000000000000000000000000000000000000000000000000008152600401611170919061120c565b60405180910390fd5b819050611182565b5b9392505050565b5f8151111561119b5780518082602001fd5b6040517fd6bda27500000000000000000000000000000000000000000000000000000000815260040160405180910390fd5b5f73ffffffffffffffffffffffffffffffffffffffff82169050919050565b5f6111f6826111cd565b9050919050565b611206816111ec565b82525050565b5f60208201905061121f5f8301846111fd565b92915050565b5f604051905090565b5f80fd5b5f80fd5b61123f816111ec565b8114611249575f80fd5b50565b5f8135905061125a81611236565b92915050565b5f80604083850312156112765761127561122e565b5b5f6112838582860161124c565b92505060206112948582860161124c565b9150509250929050565b5f80fd5b5f80fd5b5f601f19601f8301169050919050565b7f4e487b71000000000000000000000000000000000000000000000000000000005f52604160045260245ffd5b6112ec826112a6565b810181811067ffffffffffffffff8211171561130b5761130a6112b6565b5b80604052505050565b5f61131d611225565b905061132982826112e3565b919050565b5f67ffffffffffffffff821115611348576113476112b6565b5b611351826112a6565b9050602081019050919050565b828183375f83830152505050565b5f61137e6113798461132e565b611314565b90508281526020810184848401111561139a576113996112a2565b5b6113a584828561135e565b509392505050565b5f82601f8301126113c1576113c061129e565b5b81356113d184826020860161136c565b91505092915050565b5f80604083850312156113f0576113ef61122e565b5b5f6113fd8582860161124c565b925050602083013567ffffffffffffffff81111561141e5761141d611232565b5b61142a858286016113ad565b9150509250929050565b5f819050919050565b61144681611434565b82525050565b5f60208201905061145f5f83018461143d565b92915050565b5f819050919050565b61147781611465565b82525050565b5f6020820190506114905f83018461146e565b92915050565b5f81519050919050565b5f82825260208201905092915050565b8281835e5f83830152505050565b5f6114c882611496565b6114d281856114a0565b93506114e28185602086016114b0565b6114eb816112a6565b840191505092915050565b5f6020820190508181035f83015261150e81846114be565b905092915050565b5f6020828403121561152b5761152a61122e565b5b5f6115388482850161124c565b91505092915050565b5f819050919050565b5f67ffffffffffffffff82169050919050565b5f819050919050565b5f61158061157b61157684611541565b61155d565b61154a565b9050919050565b61159081611566565b82525050565b5f6020820190506115a95f830184611587565b92915050565b7f4e487b71000000000000000000000000000000000000000000000000000000005f52601160045260245ffd5b5f6115e682611465565b91506115f183611465565b9250828203905081811115611609576116086115af565b5b92915050565b5f819050919050565b61162961162482611434565b61160f565b82525050565b5f819050919050565b61164961164482611465565b61162f565b82525050565b5f8160601b9050919050565b5f6116658261164f565b9050919050565b5f6116768261165b565b9050919050565b61168e611689826111ec565b61166c565b82525050565b5f61169f8286611618565b6020820191506116af8285611638565b6020820191506116bf828461167d565b601482019150819050949350505050565b7f4e487b71000000000000000000000000000000000000000000000000000000005f52601260045260245ffd5b5f61170782611465565b915061171283611465565b925082611722576117216116d0565b5b828206905092915050565b5f61173782611465565b915061174283611465565b925082820190508082111561175a576117596115af565b5b92915050565b61176981611434565b8114611773575f80fd5b50565b5f8151905061178481611760565b92915050565b5f6020828403121561179f5761179e61122e565b5b5f6117ac84828501611776565b91505092915050565b5f81519050919050565b5f81905092915050565b5f6117d3826117b5565b6117dd81856117bf565b93506117ed8185602086016114b0565b80840191505092915050565b5f61180482846117c9565b91508190509291505056fea264697066735822122058c49c9757c91a6969087bd7cad8460ed15895a7d08ecc295e29cfa7dea79b9164736f6c634300081a0033",
  "linkReferences": {},
  "deployedLinkReferences": {}
}