{
  "_format": "hh-sol-artifact-1",
  "contractName": "EncryptedVaultFactory",
  "sourceName": "contracts/factories/EncryptedVaultFactory.sol",
  "abi": [
    {
      "inputs": [
        {
          "internalType": "address",
          "name": "configAddress",
          "type": "address"
        }
      ],
      "stateMutability": "nonpayable",
      "type": "constructor"
    },
    {
      "inputs": [],
      "name": "SystemNotIdle",
      "type": "error"
    },
    {
      "inputs": [],
      "name": "ZeroAddress",
      "type": "error"
    },
    {
      "anonymous": false,
      "inputs": [
        {
          "indexed": true,
          "internalType": "address",
          "name": "vault",
          "type": "address"
        },
        {
          "indexed": true,
          "internalType": "address",
          "name": "vaultOwner",
          "type": "address"
        },
        {
          "indexed": true,
          "internalType": "address",
          "name": "curator",
          "type": "address"
        },
        {
          "indexed": false,
          "internalType": "enum EventsLib.VaultType",
          "name": "vaultType",
          "type": "uint8"
        }
      ],
      "name": "OrionVaultCreated",
      "type": "event"
    },
    {
      "inputs": [],
      "name": "config",
      "outputs": [
        {
          "internalType": "contract IOrionConfig",
          "name": "",
          "type": "address"
        }
      ],
      "stateMutability": "view",
      "type": "function"
    },
    {
      "inputs": [
        {
          "internalType": "address",
          "name": "curator",
          "type": "address"
        },
        {
          "internalType": "string",
          "name": "name",
          "type": "string"
        },
        {
          "internalType": "string",
          "name": "symbol",
          "type": "string"
        }
      ],
      "name": "createVault",
      "outputs": [
        {
          "internalType": "address",
          "name": "vault",
          "type": "address"
        }
      ],
      "stateMutability": "nonpayable",
      "type": "function"
    }
  ],
  "bytecode": "0x6080604052348015600e575f5ffd5b50604051615b58380380615b58833981016040819052602b916074565b6001600160a01b03811660515760405163d92e233d60e01b815260040160405180910390fd5b5f80546001600160a01b0319166001600160a01b0392909216919091179055609f565b5f602082840312156083575f5ffd5b81516001600160a01b03811681146098575f5ffd5b9392505050565b615aac806100ac5f395ff3fe608060405234801561000f575f5ffd5b5060043610610034575f3560e01c8063515d61ec1461003857806379502c5514610067575b5f5ffd5b61004b6100463660046102b6565b610079565b6040516001600160a01b03909116815260200160405180910390f35b5f5461004b906001600160a01b031681565b5f33806100995760405163d92e233d60e01b815260040160405180910390fd5b6001600160a01b0387166100c05760405163d92e233d60e01b815260040160405180910390fd5b5f5f9054906101000a90046001600160a01b03166001600160a01b031663edcf9c1f6040518163ffffffff1660e01b8152600401602060405180830381865afa15801561010f573d5f5f3e3d5ffd5b505050506040513d601f19601f820116820180604052508101906101339190610341565b610150576040516312aecd8160e01b815260040160405180910390fd5b5f81885f5f9054906101000a90046001600160a01b03168989898960405161017790610265565b610187979695949392919061038f565b604051809103905ff0801580156101a0573d5f5f3e3d5ffd5b505f54604051631e832de160e21b81529194508492506001600160a01b031690637a0cb784906101d7908490600190600401610404565b5f604051808303815f87803b1580156101ee575f5ffd5b505af1158015610200573d5f5f3e3d5ffd5b50505050876001600160a01b0316826001600160a01b0316846001600160a01b03167fe36cd15f95d58db8766da292a38b27881bfaf9bdb8c464d9855d4e56bc40e7bf60016040516102529190610421565b60405180910390a4505095945050505050565b6156418061043683390190565b5f5f83601f840112610282575f5ffd5b5081356001600160401b03811115610298575f5ffd5b6020830191508360208285010111156102af575f5ffd5b9250929050565b5f5f5f5f5f606086880312156102ca575f5ffd5b85356001600160a01b03811681146102e0575f5ffd5b945060208601356001600160401b038111156102fa575f5ffd5b61030688828901610272565b90955093505060408601356001600160401b03811115610324575f5ffd5b61033088828901610272565b969995985093965092949392505050565b5f60208284031215610351575f5ffd5b81518015158114610360575f5ffd5b9392505050565b81835281816020850137505f828201602090810191909152601f909101601f19169091010190565b6001600160a01b03888116825287811660208301528616604082015260a0606082018190525f906103c39083018688610367565b82810360808401526103d6818587610367565b9a9950505050505050505050565b6002811061040057634e487b7160e01b5f52602160045260245ffd5b9052565b6001600160a01b03831681526040810161036060208301846103e4565b6020810161042f82846103e4565b9291505056fe60c060405234801561000f575f5ffd5b5060405161564138038061564183398101604081905261002e91610905565b8484848484826001600160a01b0316637158da7c6040518163ffffffff1660e01b8152600401602060405180830381865afa15801561006f573d5f5f3e3d5ffd5b505050506040513d601f19601f8201168201806040525081019061009391906109a3565b8282610138610133604080516080810182525f80825260208201819052918101829052606081019190915250604080516080810182527350157cffd6bbfa2dece204a89ec419c23ef5755d815273cd3ab3bd6bcc0c0bf3e27912a92043e817b1cf696020820152731364cbbf2cdf5032c47d8226a6f6fbd2afcdacac9181019190915273901f8942346f7ab3a01f6d7613119bca447bb030606082015290565b610470565b61015573a02cda4ca3a71d7c46997716f4283aa851c28812610529565b60036101618382610a42565b50600461016e8282610a42565b5050505f5f6101828361056660201b60201c565b9150915081610192576012610194565b805b60ff1660a05250506001600160a01b03908116608052600160055584166101ce5760405163e6c4247b60e01b815260040160405180910390fd5b6001600160a01b0383166101f55760405163e6c4247b60e01b815260040160405180910390fd5b600680546001600160a01b038088166001600160a01b0319928316179092556007805487841690831617905560088054928616929091168217905560408051630691d8b960e31b8152905163348ec5c8916004808201926020929091908290030181865afa158015610269573d5f5f3e3d5ffd5b505050506040513d601f19601f8201168201806040525081019061028d91906109a3565b600980546001600160a01b0319166001600160a01b039283161790555f600c8190556013819055601481905560408051631c56369f60e21b815290519192861691637158da7c916004808201926020929091908290030181865afa1580156102f7573d5f5f3e3d5ffd5b505050506040513d601f19601f8201168201806040525081019061031b91906109a3565b6001600160a01b031663313ce5676040518163ffffffff1660e01b8152600401602060405180830381865afa158015610356573d5f5f3e3d5ffd5b505050506040513d601f19601f8201168201806040525081019061037a9190610afc565b9050601260ff821611156103a157604051631c03248960e11b815260040160405180910390fd5b6040805160808101909152805f81525f6020820181905260408201526060016103cc6012600a610c27565b9052805160188054909190829060ff191660018360048111156103f1576103f1610b1c565b021790555060208201518154604084015161ffff90811663010000000264ffff0000001991909316610100021664ffffffff00199091161717815560609091015160019091015561044061063c565b5050505050506104555f61071160201b60201c565b601f556104626001610729565b60205550610d589350505050565b80515f5160206156015f395f51905f5280546001600160a01b03199081166001600160a01b039384161790915560208301515f5160206156215f395f51905f528054831691841691909117905560408301517fed8d60e34876f751cc8b014c560745351147d9de11b9347c854e881b128ea6028054831691841691909117905560608301517fed8d60e34876f751cc8b014c560745351147d9de11b9347c854e881b128ea6038054909216921691909117905550565b50565b7f5ea69329017273582817d320489fbd94f775580e90c092699ca6f3d12fdf7d0080546001600160a01b0319166001600160a01b03831617905550565b60408051600481526024810182526020810180516001600160e01b031663313ce56760e01b17905290515f918291829182916001600160a01b038716916105ac91610c35565b5f60405180830381855afa9150503d805f81146105e4576040519150601f19603f3d011682016040523d82523d5f602084013e6105e9565b606091505b50915091508180156105fd57506020815110155b15610630575f818060200190518101906106179190610c4b565b905060ff811161062e576001969095509350505050565b505b505f9485945092505050565b60085460408051636c366a2760e11b815290515f926001600160a01b03169163d86cd44e91600480830192869291908290030181865afa158015610682573d5f5f3e3d5ffd5b505050506040513d5f823e601f3d908101601f191682016040526106a99190810190610c62565b90505f5b815181101561070d575f6106e48383815181106106cc576106cc610d14565b6020026020010151600a61074460201b90919060201c565b90508061070457604051630ea075bf60e21b815260040160405180910390fd5b506001016106ad565b5050565b5f61072363ffffffff8316600461075f565b92915050565b5f61072382610738575f61073b565b60015b60ff165f61075f565b5f610758836001600160a01b0384166107f6565b9392505050565b5f5160206156215f395f51905f5254604051639cd07acb60e01b81525f915f5160206156015f395f51905f52916001600160a01b0390911690639cd07acb906107ae9087908790600401610d28565b6020604051808303815f875af11580156107ca573d5f5f3e3d5ffd5b505050506040513d601f19601f820116820180604052508101906107ee9190610c4b565b949350505050565b5f81815260018301602052604081205461083b57508154600181810184555f848152602080822090930184905584548482528286019093526040902091909155610723565b505f610723565b6001600160a01b0381168114610526575f5ffd5b634e487b7160e01b5f52604160045260245ffd5b604051601f8201601f191681016001600160401b038111828210171561089257610892610856565b604052919050565b5f82601f8301126108a9575f5ffd5b81516001600160401b038111156108c2576108c2610856565b6108d5601f8201601f191660200161086a565b8181528460208386010111156108e9575f5ffd5b8160208501602083015e5f918101602001919091529392505050565b5f5f5f5f5f60a08688031215610919575f5ffd5b855161092481610842565b602087015190955061093581610842565b604087015190945061094681610842565b60608701519093506001600160401b03811115610961575f5ffd5b61096d8882890161089a565b608088015190935090506001600160401b0381111561098a575f5ffd5b6109968882890161089a565b9150509295509295909350565b5f602082840312156109b3575f5ffd5b815161075881610842565b600181811c908216806109d257607f821691505b6020821081036109f057634e487b7160e01b5f52602260045260245ffd5b50919050565b601f821115610a3d57805f5260205f20601f840160051c81016020851015610a1b5750805b601f840160051c820191505b81811015610a3a575f8155600101610a27565b50505b505050565b81516001600160401b03811115610a5b57610a5b610856565b610a6f81610a6984546109be565b846109f6565b6020601f821160018114610aa1575f8315610a8a5750848201515b5f19600385901b1c1916600184901b178455610a3a565b5f84815260208120601f198516915b82811015610ad05787850151825560209485019460019092019101610ab0565b5084821015610aed57868401515f19600387901b60f8161c191681555b50505050600190811b01905550565b5f60208284031215610b0c575f5ffd5b815160ff81168114610758575f5ffd5b634e487b7160e01b5f52602160045260245ffd5b634e487b7160e01b5f52601160045260245ffd5b6001815b6001841115610b7f57808504811115610b6357610b63610b30565b6001841615610b7157908102905b60019390931c928002610b48565b935093915050565b5f82610b9557506001610723565b81610ba157505f610723565b8160018114610bb75760028114610bc157610bdd565b6001915050610723565b60ff841115610bd257610bd2610b30565b50506001821b610723565b5060208310610133831016604e8410600b8410161715610c00575081810a610723565b610c0c5f198484610b44565b805f1904821115610c1f57610c1f610b30565b029392505050565b5f61075860ff841683610b87565b5f82518060208501845e5f920191825250919050565b5f60208284031215610c5b575f5ffd5b5051919050565b5f60208284031215610c72575f5ffd5b81516001600160401b03811115610c87575f5ffd5b8201601f81018413610c97575f5ffd5b80516001600160401b03811115610cb057610cb0610856565b8060051b610cc06020820161086a565b91825260208184018101929081019087841115610cdb575f5ffd5b6020850194505b83851015610d095784519250610cf783610842565b82825260209485019490910190610ce2565b979650505050505050565b634e487b7160e01b5f52603260045260245ffd5b8281526040810160548310610d4b57634e487b7160e01b5f52602160045260245ffd5b8260208301529392505050565b60805160a05161488b610d765f395f50505f610fc2015261488b5ff3fe608060405234801561000f575f5ffd5b5060043610610291575f3560e01c806301e1d1141461029557806303d44854146102ac57806306fdde03146102c157806307a2d13a146102d6578063095ea7b3146102e95780630a28a4771461030c5780630c6a62dd1461031f5780630d1e6667146103325780630df571f71461034557806318160ddd146103585780631f52692b1461036057806323b872dd146103805780632dae296714610393578063313ce5671461039b57806333fdc592146103b0578063348ec5c8146103b857806338d52e0f146103cb5780633ab6d27c146103d3578063402d267d146103e65780634cdad506146102d657806358df8301146103fa5780636e553f651461040d57806370a082311461042057806373d8057d14610433578063745400c91461044f5780637847ea531461046257806379502c551461048257806394bf804d1461040d57806395d89b411461049557806397ee11441461049d5780639908840c146104d35780639adb2981146104dc578063a68a5267146104ef578063a9059cbb14610502578063aa9d3a6014610515578063b3d7f6b91461051d578063b460af9414610530578063b6eba6531461053e578063b76b720e14610554578063ba08765214610530578063bdca91651461055c578063c0b568e114610565578063c37fc8a814610578578063c392e58c14610580578063c63d75b6146103e6578063c6e6f59214610593578063cce4705b146105a6578063ce96cb77146105b9578063d1699c26146105cc578063d3d03458146105d4578063d853365f146105dc578063d905777e146105e4578063dd62ed3e146105f7578063e51a85f61461060a578063e66f53b71461061d578063ef8b30f714610593578063f9bb997114610630575b5f5ffd5b600c545b6040519081526020015b60405180910390f35b6102bf6102ba366004613dd0565b610638565b005b6102c9610768565b6040516102a39190613e92565b6102996102e4366004613ea4565b6107f8565b6102fc6102f7366004613ebb565b610809565b60405190151581526020016102a3565b61029961031a366004613ea4565b610820565b6102bf61032d366004613ee5565b61082c565b6102bf610340366004613ea4565b6108a0565b6102bf610353366004613f00565b610afb565b600254610299565b600654610373906001600160a01b031681565b6040516102a39190613f20565b6102fc61038e366004613f34565b610c0d565b6102bf610c32565b60125b60405160ff90911681526020016102a3565b6102bf610cfb565b600954610373906001600160a01b031681565b610373610fc0565b6102bf6103e1366004613f8f565b610fe4565b6102996103f4366004613ee5565b505f1990565b6102bf610408366004613fe4565b611132565b61029961041b36600461410e565b611151565b61029961042e366004613ee5565b61116b565b61043c61271081565b60405161ffff90911681526020016102a3565b6102bf61045d366004613ea4565b611185565b61046d6301e1338081565b60405163ffffffff90911681526020016102a3565b600854610373906001600160a01b031681565b6102c9611347565b6018546019546104c39160ff81169161ffff610100830481169263010000009004169084565b6040516102a39493929190614150565b61043c61012c81565b6102bf6104ea3660046141c2565b611356565b6102996104fd366004614209565b611583565b6102fc610510366004613ebb565b6115c3565b6102bf6115d0565b61029961052b366004613ea4565b611932565b61029961041b366004614237565b61054661193e565b6040516102a392919061426b565b6102bf611abf565b61043c610bb881565b6102bf610573366004613ea4565b611bf7565b601454610299565b6102bf61058e3660046142f4565b611d99565b6102996105a1366004613ea4565b612324565b6102bf6105b4366004613ea4565b61232f565b6102996105c7366004613ee5565b6124d4565b601354610299565b6105466124e7565b61039e601281565b6102996105f2366004613ee5565b61264b565b61029961060536600461438a565b612655565b610299610618366004613ea4565b61267f565b600754610373906001600160a01b031681565b6102996126b8565b6006546001600160a01b0316331461066357604051631a27eac360e11b815260040160405180910390fd5b61066d600a6126fe565b5f5b8151811015610764575f82828151811061068b5761068b6143b6565b6020908102919091010151600854604051633af32abf60e01b81529192506001600160a01b031690633af32abf906106c7908490600401613f20565b602060405180830381865afa1580156106e2573d5f5f3e3d5ffd5b505050506040513d601f19601f8201168201806040525081019061070691906143ca565b61072e578060405163751dff9760e11b81526004016107259190613f20565b60405180910390fd5b5f61073a600a83612707565b90508061075a57604051630ea075bf60e21b815260040160405180910390fd5b505060010161066f565b5050565b606060038054610777906143e5565b80601f01602080910402602001604051908101604052809291908181526020018280546107a3906143e5565b80156107ee5780601f106107c5576101008083540402835291602001916107ee565b820191905f5260205f20905b8154815290600101906020018083116107d157829003601f168201915b5050505050905090565b5f610803825f61271b565b92915050565b5f3361081681858561275c565b5060019392505050565b5f61080382600161276e565b6006546001600160a01b0316331461085757604051631a27eac360e11b815260040160405180910390fd5b6001600160a01b03811661087e5760405163e6c4247b60e01b815260040160405180910390fd5b600780546001600160a01b0319166001600160a01b0392909216919091179055565b6108a86127a0565b805f036108d1576108b7610fc0565b604051636b30633560e01b81526004016107259190613f20565b5f6108da610fc0565b6001600160a01b03166370a08231336040518263ffffffff1660e01b81526004016109059190613f20565b602060405180830381865afa158015610920573d5f5f3e3d5ffd5b505050506040513d601f19601f82011682018060405250810190610944919061441d565b90508082111561096d57338183604051632e2a182f60e11b815260040161072593929190614434565b5f610976610fc0565b6001600160a01b03166323b872dd3360085f9054906101000a90046001600160a01b03166001600160a01b0316633a0dad8e6040518163ffffffff1660e01b8152600401602060405180830381865afa1580156109d5573d5f5f3e3d5ffd5b505050506040513d601f19601f820116820180604052508101906109f99190614455565b866040518463ffffffff1660e01b8152600401610a1893929190614470565b6020604051808303815f875af1158015610a34573d5f5f3e3d5ffd5b505050506040513d601f19601f82011682018060405250810190610a5891906143ca565b905080610a78576040516312171d8360e31b815260040160405180910390fd5b5f610a84600d336127ca565b9150610a9f905033610a9686846144a8565b600d91906127f0565b508360135f828254610ab191906144a8565b909155505060405184815233907f08d79f77ab5f78e7e780abb1f7ac9e9923340d5bae78f6e83e7999905b248ea29060200160405180910390a2505050610af86001600555565b50565b60085f9054906101000a90046001600160a01b03166001600160a01b0316633a0dad8e6040518163ffffffff1660e01b8152600401602060405180830381865afa158015610b4b573d5f5f3e3d5ffd5b505050506040513d601f19601f82011682018060405250810190610b6f9190614455565b6001600160a01b0316336001600160a01b031614610ba057604051631a27eac360e11b815260040160405180910390fd5b8015610764575f610bb2601584612805565b9150610bcd905083610bc484846144a8565b60159190612813565b50827f4cde55f138a9ef162059c13fc85d7a8621a4048c8d44d4d6d2bc67956fe0262383604051610c0091815260200190565b60405180910390a2505050565b5f33610c1a85828561281f565b610c2585858561286a565b60019150505b9392505050565b60085f9054906101000a90046001600160a01b03166001600160a01b0316633a0dad8e6040518163ffffffff1660e01b8152600401602060405180830381865afa158015610c82573d5f5f3e3d5ffd5b505050506040513d601f19601f82011682018060405250810190610ca69190614455565b6001600160a01b0316336001600160a01b031614610cd757604051631a27eac360e11b815260040160405180910390fd5b5f610ce960125b6102e490600a61459e565b601954909150811115610af857601955565b60085f9054906101000a90046001600160a01b03166001600160a01b0316633a0dad8e6040518163ffffffff1660e01b8152600401602060405180830381865afa158015610d4b573d5f5f3e3d5ffd5b505050506040513d601f19601f82011682018060405250810190610d6f9190614455565b6001600160a01b0316336001600160a01b031614610da057604051631a27eac360e11b815260040160405180910390fd5b610da86127a0565b5f610db3600d6128c7565b90505f8163ffffffff166001600160401b03811115610dd457610dd4613d56565b604051908082528060200260200182016040528015610dfd578160200160208202803683370190505b5090505f8263ffffffff166001600160401b03811115610e1f57610e1f613d56565b604051908082528060200260200182016040528015610e48578160200160208202803683370190505b5090505f5b8363ffffffff168163ffffffff161015610ee2575f80610e77600d63ffffffff808616906128d116565b9150915081858463ffffffff1681518110610e9457610e946143b6565b60200260200101906001600160a01b031690816001600160a01b03168152505080848463ffffffff1681518110610ecd57610ecd6143b6565b60209081029190910101525050600101610e4d565b505f5b8363ffffffff168163ffffffff161015610faf575f838263ffffffff1681518110610f1257610f126143b6565b602002602001015190505f838363ffffffff1681518110610f3557610f356143b6565b602002602001015190505f610f4982612324565b9050610f56600d846128df565b50610f6183826128f3565b826001600160a01b03167f85a190caa61692b36b63a55e069330d18ab9af179fed7a25c16a4262bc63b7d283604051610f9c91815260200190565b60405180910390a2505050600101610ee5565b50505f60135550506001600555565b565b7f000000000000000000000000000000000000000000000000000000000000000090565b6006546001600160a01b0316331461100f57604051631a27eac360e11b815260040160405180910390fd5b600460ff84161115611034576040516317dbc4cb60e21b815260040160405180910390fd5b610bb861ffff8316111561105b576040516317dbc4cb60e21b815260040160405180910390fd5b61012c61ffff82161115611082576040516317dbc4cb60e21b815260040160405180910390fd5b8260ff1660048111156110975761109761413c565b6018805460ff191660018360048111156110b3576110b361413c565b02179055506018805464ffffffff00191661010061ffff85811691820264ffff0000001916929092176301000000928516928302179092556040805160ff8716815260208101939093528201527fd24f39e523bfa412fa391702710dc62e1c82d87a8e83228a37c42be1b4870f459060600160405180910390a1505050565b61113c8382612927565b506021805460ff191691151591909117905550565b5f60405163125ad87760e31b815260040160405180910390fd5b6001600160a01b03165f9081526020819052604090205490565b805f036111a75730604051636b30633560e01b81526004016107259190613f20565b5f6111b13361116b565b9050808211156111da57338183604051632e2a182f60e11b815260040161072593929190614434565b60085460408051631d06d6c760e11b815290515f9230926323b872dd9233926001600160a01b031691633a0dad8e9160048083019260209291908290030181865afa15801561122b573d5f5f3e3d5ffd5b505050506040513d601f19601f8201168201806040525081019061124f9190614455565b866040518463ffffffff1660e01b815260040161126e93929190614470565b6020604051808303815f875af115801561128a573d5f5f3e3d5ffd5b505050506040513d601f19601f820116820180604052508101906112ae91906143ca565b9050806112ce576040516312171d8360e31b815260040160405180910390fd5b5f6112da6010336127ca565b91506112f59050336112ec86846144a8565b601091906127f0565b508360145f82825461130791906144a8565b909155505060405184815233907ff7774b688d56120b783560a913ee60792a73dfd511812b7be5eccf10d08c66899060200160405180910390a250505050565b606060048054610777906143e5565b60085f9054906101000a90046001600160a01b03166001600160a01b0316633a0dad8e6040518163ffffffff1660e01b8152600401602060405180830381865afa1580156113a6573d5f5f3e3d5ffd5b505050506040513d601f19601f820116820180604052508101906113ca9190614455565b6001600160a01b0316336001600160a01b0316146113fb57604051631a27eac360e11b815260040160405180910390fd5b601b545f5b8161ffff168161ffff16101561145957601f54601a5f601b8461ffff168154811061142d5761142d6143b6565b5f9182526020808320909101546001600160a01b03168352820192909252604001902055600101611400565b50611465601b5f613ce6565b5f5b8161ffff168161ffff1610156115445784848261ffff1681811061148d5761148d6143b6565b90506040020160200135601a5f87878561ffff168181106114b0576114b06143b6565b6114c69260206040909202019081019150613ee5565b6001600160a01b0316815260208101919091526040015f2055601b858561ffff84168181106114f7576114f76143b6565b61150d9260206040909202019081019150613ee5565b8154600180820184555f93845260209093200180546001600160a01b0319166001600160a01b039290921691909117905501611467565b50600c8290556040518281527f5e1ff954b5e5257e9ee5d4cb07059e8f5e69b1aaaf9911e5d8d90a6894de9c219060200160405180910390a150505050565b5f6115bb6115928460016144a8565b61159a61298e565b6115a590600a61459e565b6002546115b291906144a8565b86919085612a0a565b949350505050565b5f3361081681858561286a565b60085f9054906101000a90046001600160a01b03166001600160a01b0316633a0dad8e6040518163ffffffff1660e01b8152600401602060405180830381865afa158015611620573d5f5f3e3d5ffd5b505050506040513d601f19601f820116820180604052508101906116449190614455565b6001600160a01b0316336001600160a01b03161461167557604051631a27eac360e11b815260040160405180910390fd5b61167d6127a0565b5f61168860106128c7565b90505f8163ffffffff166001600160401b038111156116a9576116a9613d56565b6040519080825280602002602001820160405280156116d2578160200160208202803683370190505b5090505f8263ffffffff166001600160401b038111156116f4576116f4613d56565b60405190808252806020026020018201604052801561171d578160200160208202803683370190505b5090505f5b8363ffffffff168163ffffffff1610156117b7575f8061174c601063ffffffff808616906128d116565b9150915081858463ffffffff1681518110611769576117696143b6565b60200260200101906001600160a01b031690816001600160a01b03168152505080848463ffffffff16815181106117a2576117a26143b6565b60209081029190910101525050600101611722565b505f60148190555b8363ffffffff168163ffffffff161015611924575f838263ffffffff16815181106117ec576117ec6143b6565b602002602001015190505f838363ffffffff168151811061180f5761180f6143b6565b6020026020010151905061182d8260106128df90919063ffffffff16565b506118383082612a4c565b5f611842826107f8565b905061184c610fc0565b6001600160a01b031663a9059cbb84836040518363ffffffff1660e01b81526004016118799291906145ac565b6020604051808303815f875af1158015611895573d5f5f3e3d5ffd5b505050506040513d601f19601f820116820180604052508101906118b991906143ca565b6118d6576040516312171d8360e31b815260040160405180910390fd5b826001600160a01b03167f44b2ff9ffcefe2052a8afdbed44a04bf3db4592ae90c6b96c818bd28573e41e88360405161191191815260200190565b60405180910390a25050506001016117bf565b50505050610fbe6001600555565b5f61080382600161271b565b601d54606090819061ffff81166001600160401b0381111561196257611962613d56565b60405190808252806020026020018201604052801561198b578160200160208202803683370190505b5092508061ffff166001600160401b038111156119aa576119aa613d56565b6040519080825280602002602001820160405280156119d3578160200160208202803683370190505b5091505f5b8161ffff168161ffff161015611ab957601d8161ffff16815481106119ff576119ff6143b6565b905f5260205f20015f9054906101000a90046001600160a01b0316848261ffff1681518110611a3057611a306143b6565b60200260200101906001600160a01b031690816001600160a01b031681525050601c5f601d8361ffff1681548110611a6a57611a6a6143b6565b5f9182526020808320909101546001600160a01b031683528201929092526040019020548351849061ffff8416908110611aa657611aa66143b6565b60209081029190910101526001016119d8565b50509091565b6006546001600160a01b03163314611aea57604051631a27eac360e11b815260040160405180910390fd5b60085f9054906101000a90046001600160a01b03166001600160a01b031663edcf9c1f6040518163ffffffff1660e01b8152600401602060405180830381865afa158015611b3a573d5f5f3e3d5ffd5b505050506040513d601f19601f82011682018060405250810190611b5e91906143ca565b611b7b576040516312aecd8160e01b815260040160405180910390fd5b5f306001600160a01b031663f9bb99716040518163ffffffff1660e01b8152600401602060405180830381865afa158015611bb8573d5f5f3e3d5ffd5b505050506040513d601f19601f82011682018060405250810190611bdc919061441d565b9050805f03611bed576108b7610fc0565b610af86015612a80565b611bff6127a0565b805f03611c0e576108b7610fc0565b5f611c1a600d336127ca565b91505081811015611c3e576040516332194fd360e21b815260040160405180910390fd5b60085f9054906101000a90046001600160a01b03166001600160a01b0316633a0dad8e6040518163ffffffff1660e01b8152600401602060405180830381865afa158015611c8e573d5f5f3e3d5ffd5b505050506040513d601f19601f82011682018060405250810190611cb29190614455565b6001600160a01b03166351edffb133846040518363ffffffff1660e01b8152600401611cdf9291906145ac565b5f604051808303815f87803b158015611cf6575f5ffd5b505af1158015611d08573d5f5f3e3d5ffd5b505050505f8282611d1991906145c5565b9050805f03611d3357611d2d600d336128df565b50611d41565b611d3f600d33836127f0565b505b8260135f828254611d5291906145c5565b909155505060405183815233907f96a9a6886cdf3047a125454218a23d3961fd3a78643123b248a9d106d0ac94fd906020015b60405180910390a25050610af86001600555565b6007546001600160a01b03163314611dc457604051631a27eac360e11b815260040160405180910390fd5b611dcc6127a0565b5f839003611ded57604051631121aa8d60e01b815260040160405180910390fd5b601f5483905f61ffff83166001600160401b03811115611e0f57611e0f613d56565b604051908082528060200260200182016040528015611e38578160200160208202803683370190505b5090505f8361ffff166001600160401b03811115611e5857611e58613d56565b604051908082528060200260200182016040528015611e81578160200160208202803683370190505b506020549091505f61ffff86166001600160401b03811115611ea557611ea5613d56565b604051908082528060200260200182016040528015611ece578160200160208202803683370190505b5090505f5b8661ffff168161ffff1610156120a5575f8b8b8361ffff16818110611efa57611efa6143b6565b611f109260206040909202019081019150613ee5565b905080838361ffff1681518110611f2957611f296143b6565b60200260200101906001600160a01b031690816001600160a01b0316815250505f611fa88d8d8561ffff16818110611f6357611f636143b6565b905060400201602001358c8c8080601f0160208091040260200160405190810160405280939291908181526020018383808284375f92019190915250612a8992505050565b9050611fb381612a96565b505f611fc182601f54612aa5565b9050611fcd8682612ad3565b6001600160a01b0384165f908152601e602052604090205490965060ff161561200b57826040516346bdabe160e01b81526004016107259190613f20565b6001600160a01b0383165f908152601e60205260409020805460ff1916600117905587518390899061ffff8716908110612047576120476143b6565b60200260200101906001600160a01b031690816001600160a01b03168152505081878561ffff168151811061207e5761207e6143b6565b6020026020010181815250506120948983612b01565b98505060019092019150611ed39050565b506120af81612b2f565b5f61213760085f9054906101000a90046001600160a01b03166001600160a01b031663d1717c7d6040518163ffffffff1660e01b8152600401602060405180830381865afa158015612103573d5f5f3e3d5ffd5b505050506040513d601f19601f8201168201806040525081019061212791906145d8565b61213290600a61459e565b612ba7565b90505f6121448783612bb9565b90505f6121518583612ad3565b905061215c81612a96565b506040805160018082528183019092525f916020808301908036833701905050905081815f81518110612191576121916143b6565b60209081029190910101526121ad816358df830160e01b612be7565b505f5b601d5461ffff908116908216101561220b57601f54601c5f601d8461ffff16815481106121df576121df6143b6565b5f9182526020808320909101546001600160a01b031683528201929092526040019020556001016121b0565b50612217601d5f613ce6565b5f5b8a61ffff168161ffff1610156122df575f898261ffff1681518110612240576122406143b6565b60200260200101519050888261ffff1681518110612260576122606143b6565b6020908102919091018101516001600160a01b039092165f818152601c8352604080822094909455601d805460018181019092557f6d4407e7be21f808e6509aa9fa9143369579dd7d760fe20a2c09680fc146134f0180546001600160a01b03191684179055918152601e909252919020805460ff1916905501612219565b5060405133907f2d47a742b8d7df7c1fc5a9a631b206b364e6cb2722490759f63bb3ab14b132e0905f90a25050505050505050505061231e6001600555565b50505050565b5f610803825f61276e565b6123376127a0565b805f036123595730604051636b30633560e01b81526004016107259190613f20565b5f6123656010336127ca565b91505081811015612389576040516312ea1f4960e11b815260040160405180910390fd5b60085f9054906101000a90046001600160a01b03166001600160a01b0316633a0dad8e6040518163ffffffff1660e01b8152600401602060405180830381865afa1580156123d9573d5f5f3e3d5ffd5b505050506040513d601f19601f820116820180604052508101906123fd9190614455565b6001600160a01b031663be186b2033846040518363ffffffff1660e01b815260040161242a9291906145ac565b5f604051808303815f87803b158015612441575f5ffd5b505af1158015612453573d5f5f3e3d5ffd5b505050505f828261246491906145c5565b9050805f0361247e576124786010336128df565b5061248c565b61248a601033836127f0565b505b8260145f82825461249d91906145c5565b909155505060405183815233907f9cf37535785001dcc9767688232fcbc8698b3002d1207b50bc2afec3ff8934dc90602001611d85565b5f6108036124e18361116b565b5f61271b565b601b54606090819061ffff81166001600160401b0381111561250b5761250b613d56565b604051908082528060200260200182016040528015612534578160200160208202803683370190505b5092508061ffff166001600160401b0381111561255357612553613d56565b60405190808252806020026020018201604052801561257c578160200160208202803683370190505b5091505f5b8161ffff168161ffff161015611ab9575f601b8261ffff16815481106125a9576125a96143b6565b905f5260205f20015f9054906101000a90046001600160a01b0316905080858361ffff16815181106125dd576125dd6143b6565b60200260200101906001600160a01b031690816001600160a01b031681525050601a5f826001600160a01b03166001600160a01b031681526020019081526020015f2054848361ffff1681518110612637576126376143b6565b602090810291909101015250600101612581565b5f6108038261116b565b6001600160a01b039182165f90815260016020908152604080832093909416825291909152205490565b5f5f61268a83612bf3565b90505f61269782856145c5565b90505f6126a382612cbd565b90506126af81846144a8565b95945050505050565b5f80806126c560156128c7565b90505f5b818110156126f6575f6126dd6015836128d1565b91506126eb905081856144a8565b9350506001016126c9565b509092915050565b610af881612d79565b5f610c2b836001600160a01b038416612dd2565b5f610c2b612728600c5490565b6127339060016144a8565b61273b61298e565b61274690600a61459e565b60025461275391906144a8565b85919085612a0a565b6127698383836001612e19565b505050565b5f610c2b61277a61298e565b61278590600a61459e565b60025461279291906144a8565b600c546127539060016144a8565b6002600554036127c357604051633ee5aeb560e01b815260040160405180910390fd5b6002600555565b5f8080806127e1866001600160a01b038716612eeb565b909450925050505b9250929050565b5f6115bb846001600160a01b03851684612f23565b5f8080806127e18686612eeb565b5f6115bb848484612f23565b5f61282a8484612655565b90505f1981101561231e578181101561285c57828183604051637dc7a0d960e11b815260040161072593929190614434565b61231e84848484035f612e19565b6001600160a01b038316612893575f604051634b637e8f60e11b81526004016107259190613f20565b6001600160a01b0382166128bc575f60405163ec442f0560e01b81526004016107259190613f20565b612769838383612f3f565b5f61080382613052565b5f8080806127e1868661305c565b5f610c2b836001600160a01b038416613085565b6001600160a01b03821661291c575f60405163ec442f0560e01b81526004016107259190613f20565b6107645f8383612f3f565b5f612931836130a1565b90505f61293e828461313d565b90508061295e5760405163cf6c44e960e01b815260040160405180910390fd5b60405184907f1af0453083661051f6e56e5c070792320652e612154bf9af8637bb1e7655b99d905f90a250505050565b5f5f612998610fc0565b6001600160a01b031663313ce5676040518163ffffffff1660e01b8152600401602060405180830381865afa1580156129d3573d5f5f3e3d5ffd5b505050506040513d601f19601f820116820180604052508101906129f791906145d8565b9050612a048160126145f3565b91505090565b5f612a37612a1783613224565b8015612a3257505f8480612a2d57612a2d61460c565b868809115b151590565b612a42868686613250565b6126af91906144a8565b6001600160a01b038216612a75575f604051634b637e8f60e11b81526004016107259190613f20565b610764825f83612f3f565b610af881613300565b5f610c2b83836004613349565b5f612aa18230613433565b5090565b5f82612ab757612ab45f612ba7565b92505b81612ac857612ac55f612ba7565b91505b610c2b83835f6134a0565b5f82612ae557612ae25f613536565b92505b81612af657612af35f613536565b91505b610c2b83835f613551565b5f82612b1357612b105f612ba7565b92505b81612b2457612b215f612ba7565b91505b610c2b83835f6135a7565b5f5b815181101561076457612b67828281518110612b4f57612b4f6143b6565b6020026020010151600a6135fd90919063ffffffff16565b612b9f57818181518110612b7d57612b7d6143b6565b602002602001015160405163751dff9760e11b81526004016107259190613f20565b600101612b31565b5f6108038263ffffffff166004613611565b5f82612bcb57612bc85f612ba7565b92505b81612bdc57612bd95f612ba7565b91505b610c2b83835f613690565b5f610c2b83835f6136e6565b6018545f906301000000900461ffff168103612c1057505f919050565b6018545f90612c2d906301000000900461ffff1684612710613250565b9050610c2b60095f9054906101000a90046001600160a01b03166001600160a01b0316634ff0876a6040518163ffffffff1660e01b8152600401602060405180830381865afa158015612c82573d5f5f3e3d5ffd5b505050506040513d601f19601f82011682018060405250810190612ca69190614620565b829063ffffffff908116906301e133809061325016565b6018545f90610100900461ffff168103612cd857505f919050565b5f612d1c612ce78460016144a8565b612cef61298e565b612cfa90600a61459e565b600254612d0791906144a8565b5f612d146012600a61459e565b929190612a0a565b6018549091505f908190612d329060ff166137eb565b91509150818311612d4757505f949350505050565b6018545f90612d6090610100900461ffff168584613250565b9050612d6f8187612710613250565b9695505050505050565b5f612d82825490565b90505f5b81811015612dcb57826001015f845f018381548110612da757612da76143b6565b905f5260205f20015481526020019081526020015f205f9055806001019050612d86565b50505f9055565b5f612ddd83836138d5565b612e1257508154600181810184555f848152602080822090930184905584548482528286019093526040902091909155610803565b505f610803565b6001600160a01b038416612e42575f60405163e602df0560e01b81526004016107259190613f20565b6001600160a01b038316612e6b575f604051634a1406b160e11b81526004016107259190613f20565b6001600160a01b038085165f908152600160209081526040808320938716835292905220829055801561231e57826001600160a01b0316846001600160a01b03167f8c5be1e5ebec7d5bd14f71427d1e84f3dd0314c0f7b2291e5b200ac8c7c3b92584604051612edd91815260200190565b60405180910390a350505050565b5f818152600283016020526040812054819080612f1857612f0c85856138ec565b92505f91506127e99050565b6001925090506127e9565b5f82815260028401602052604081208290556115bb84846138f7565b6001600160a01b038316612f69578060025f828254612f5e91906144a8565b90915550612fc69050565b6001600160a01b0383165f9081526020819052604090205481811015612fa85783818360405163391434e360e21b815260040161072593929190614434565b6001600160a01b0384165f9081526020819052604090209082900390555b6001600160a01b038216612fe257600280548290039055613000565b6001600160a01b0382165f9081526020819052604090208054820190555b816001600160a01b0316836001600160a01b03167fddf252ad1be2c89b69c2b068fc378daa952ba7f163c4a11628f55a4df523b3ef8360405161304591815260200190565b60405180910390a3505050565b5f61080382613902565b5f8080613069858561390b565b5f81815260029690960160205260409095205494959350505050565b5f8181526002830160205260408120819055610c2b8383613916565b60605f6130ac613921565b5f848152600282016020526040812054919250036130dd5760405163d66ca67560e01b815260040160405180910390fd5b5f8381526002820160209081526040918290208054835181840281018401909452808452909183018282801561313057602002820191905f5260205f20905b81548152602001906001019080831161311c575b5050505050915050919050565b5f60248161314a85613945565b90505f816001600160401b0381111561316557613165613d56565b6040519080825280601f01601f19166020018201604052801561318f576020820181803683370190505b509050818360208301375f6131a26139f2565b6002810154604051632c027b1360e21b81529192506001600160a01b03169063b009ec4c906131d9908a9086908b9060040161467d565b6020604051808303815f875af11580156131f5573d5f5f3e3d5ffd5b505050506040513d601f19601f8201168201806040525081019061321991906143ca565b979650505050505050565b5f60028260038111156132395761323961413c565b6132439190614707565b60ff166001149050919050565b5f5f5f61325d8686613a16565b91509150815f03613281578381816132775761327761460c565b0492505050610c2b565b818411613298576132986003851502601118613a32565b5f848688095f868103871696879004966002600389028118808a02820302808a02820302808a02820302808a02820302808a02820302808a02909103029181900381900460010185841190960395909502919093039390930492909217029150509392505050565b5f61330a82613052565b90505f5b8181101561333f57600283015f613325858461390b565b815260208101919091526040015f9081205560010161330e565b50610764826126fe565b5f5f6133536139f2565b600181015460405163196d0b9b60e01b81529192506001600160a01b03169063196d0b9b9061338c908890339089908990600401614748565b6020604051808303815f875af11580156133a8573d5f5f3e3d5ffd5b505050506040513d601f19601f820116820180604052508101906133cc919061441d565b8154604051630f8e573b60e21b81529193506001600160a01b031690633e395cec906133fe9085903390600401614780565b5f604051808303815f87803b158015613415575f5ffd5b505af1158015613427573d5f5f3e3d5ffd5b50505050509392505050565b5f61343c6139f2565b8054604051635ca4b5b160e11b81529192506001600160a01b03169063b9496b629061346e9086908690600401614780565b5f604051808303815f87803b158015613485575f5ffd5b505af1158015613497573d5f5f3e3d5ffd5b50505050505050565b5f5f82156134b35750600160f81b6134b6565b505f5b5f6134bf6139f2565b60018101546040516385362ee760e01b81529192506001600160a01b0316906385362ee7906134f690899089908790600401614797565b6020604051808303815f875af1158015613512573d5f5f3e3d5ffd5b505050506040513d601f19601f82011682018060405250810190612d6f919061441d565b5f61080382613545575f613548565b60015b60ff165f613611565b5f5f82156135645750600160f81b613567565b505f5b5f6135706139f2565b600181015460405163d99882d560e01b81529192506001600160a01b03169063d99882d5906134f690899089908790600401614797565b5f5f82156135ba5750600160f81b6135bd565b505f5b5f6135c66139f2565b600181015460405163022f65e760e31b81529192506001600160a01b03169063117b2f38906134f690899089908790600401614797565b5f610c2b836001600160a01b0384166138d5565b5f5f61361b6139f2565b6001810154604051639cd07acb60e01b81529192506001600160a01b031690639cd07acb9061365090879087906004016147b7565b6020604051808303815f875af115801561366c573d5f5f3e3d5ffd5b505050506040513d601f19601f820116820180604052508101906115bb919061441d565b5f5f82156136a35750600160f81b6136a6565b505f5b5f6136af6139f2565b600181015460405163f77f3f1d60e01b81529192506001600160a01b03169063f77f3f1d906134f690899089908790600401614797565b5f5f6136f0613921565b9050806001015491505f6137026139f2565b8054604051637d6e912360e11b81529192506001600160a01b03169063fadd2246906137329089906004016147cb565b5f604051808303815f87803b158015613749575f5ffd5b505af115801561375b573d5f5f3e3d5ffd5b50508354604051633263b83b60e01b81526001600160a01b039091169250633263b83b915086906137949087908b908b906004016147dd565b5f604051808303818588803b1580156137ab575f5ffd5b505af11580156137bd573d5f5f3e3d5ffd5b50505050506137cc8387613a43565b600182018054905f6137dd8361480e565b919050555050509392505050565b5f80806137f86012610cde565b90505f84600481111561380d5761380d61413c565b0361381d578092508291506138cf565b60038460048111156138315761383161413c565b036138435760195492508291506138cf565b60018460048111156138575761385761413c565b0361386f5761386581613a9d565b92508091506138cf565b60028460048111156138835761388361413c565b0361389b5761389181613a9d565b92508291506138cf565b60048460048111156138af576138af61413c565b036138cf576019546138c9906138c483613a9d565b613bc3565b92508291505b50915091565b5f9081526001919091016020526040902054151590565b5f610c2b8383613bd2565b5f610c2b8383612dd2565b5f610803825490565b5f610c2b8383613bdd565b5f610c2b8383613c03565b7f5ea69329017273582817d320489fbd94f775580e90c092699ca6f3d12fdf7d0090565b80515f9081805b828110156139e6575f858281518110613967576139676143b6565b6020026020010151601e60208110613981576139816143b6565b1a60538111156139935761399361413c565b905060098160538111156139a9576139a961413c565b60ff1610156139c4576139bd6020846144a8565b92506139dd565b60405163ce54a8d160e01b815260040160405180910390fd5b5060010161394c565b506115bb6020826144a8565b7fed8d60e34876f751cc8b014c560745351147d9de11b9347c854e881b128ea60090565b5f805f1983850993909202808410938190039390930393915050565b634e487b715f52806020526024601cfd5b5f613a4c613921565b5f84815260028201602052604090205490915015613a7d57604051633f06d22b60e01b815260040160405180910390fd5b5f8381526002820160209081526040909120835161231e92850190613d01565b5f5f60085f9054906101000a90046001600160a01b03166001600160a01b031663f3cc69936040518163ffffffff1660e01b8152600401602060405180830381865afa158015613aef573d5f5f3e3d5ffd5b505050506040513d601f19601f82011682018060405250810190613b139190614826565b61ffff1690505f613ba860095f9054906101000a90046001600160a01b03166001600160a01b0316634ff0876a6040518163ffffffff1660e01b8152600401602060405180830381865afa158015613b6d573d5f5f3e3d5ffd5b505050506040513d601f19601f82011682018060405250810190613b919190614620565b839063ffffffff908116906301e133809061325016565b90506115bb613bb9826127106144a8565b8590612710613250565b5f828218828411028218610c2b565b5f610c2b83836138d5565b5f825f018281548110613bf257613bf26143b6565b905f5260205f200154905092915050565b5f8181526001830160205260408120548015613cdd575f613c256001836145c5565b85549091505f90613c38906001906145c5565b9050808214613c97575f865f018281548110613c5657613c566143b6565b905f5260205f200154905080875f018481548110613c7657613c766143b6565b5f918252602080832090910192909255918252600188019052604090208390555b8554869080613ca857613ca8614841565b600190038181905f5260205f20015f90559055856001015f8681526020019081526020015f205f905560019350505050610803565b5f915050610803565b5080545f8255905f5260205f2090810190610af89190613d42565b828054828255905f5260205f20908101928215613d3a579160200282015b82811115613d3a578251825591602001919060010190613d1f565b50612aa19291505b5b80821115612aa1575f8155600101613d43565b634e487b7160e01b5f52604160045260245ffd5b604051601f8201601f191681016001600160401b0381118282101715613d9257613d92613d56565b604052919050565b5f6001600160401b03821115613db257613db2613d56565b5060051b60200190565b6001600160a01b0381168114610af8575f5ffd5b5f60208284031215613de0575f5ffd5b81356001600160401b03811115613df5575f5ffd5b8201601f81018413613e05575f5ffd5b8035613e18613e1382613d9a565b613d6a565b8082825260208201915060208360051b850101925086831115613e39575f5ffd5b6020840193505b82841015612d6f578335613e5381613dbc565b825260209384019390910190613e40565b5f81518084528060208401602086015e5f602082860101526020601f19601f83011685010191505092915050565b602081525f610c2b6020830184613e64565b5f60208284031215613eb4575f5ffd5b5035919050565b5f5f60408385031215613ecc575f5ffd5b8235613ed781613dbc565b946020939093013593505050565b5f60208284031215613ef5575f5ffd5b8135610c2b81613dbc565b5f5f60408385031215613f11575f5ffd5b50508035926020909101359150565b6001600160a01b0391909116815260200190565b5f5f5f60608486031215613f46575f5ffd5b8335613f5181613dbc565b92506020840135613f6181613dbc565b929592945050506040919091013590565b60ff81168114610af8575f5ffd5b61ffff81168114610af8575f5ffd5b5f5f5f60608486031215613fa1575f5ffd5b8335613fac81613f72565b92506020840135613fbc81613f80565b91506040840135613fcc81613f80565b809150509250925092565b8015158114610af8575f5ffd5b5f5f5f60608486031215613ff6575f5ffd5b83359250602084013561400881613fd7565b915060408401356001600160401b03811115614022575f5ffd5b8401601f81018613614032575f5ffd5b8035614040613e1382613d9a565b8082825260208201915060208360051b850101925088831115614061575f5ffd5b602084015b838110156140ff5780356001600160401b03811115614083575f5ffd5b8501603f81018b13614093575f5ffd5b60208101356001600160401b038111156140af576140af613d56565b6140c2601f8201601f1916602001613d6a565b8181526040838301018d10156140d6575f5ffd5b816040840160208301375f60208383010152808652505050602083019250602081019050614066565b50809450505050509250925092565b5f5f6040838503121561411f575f5ffd5b82359150602083013561413181613dbc565b809150509250929050565b634e487b7160e01b5f52602160045260245ffd5b60808101600586106141645761416461413c565b94815261ffff93841660208201529190921660408201526060015290565b5f5f83601f840112614192575f5ffd5b5081356001600160401b038111156141a8575f5ffd5b6020830191508360208260061b85010111156127e9575f5ffd5b5f5f5f604084860312156141d4575f5ffd5b83356001600160401b038111156141e9575f5ffd5b6141f586828701614182565b909790965060209590950135949350505050565b5f5f5f6060848603121561421b575f5ffd5b8335925060208401359150604084013560048110613fcc575f5ffd5b5f5f5f60608486031215614249575f5ffd5b83359250602084013561425b81613dbc565b91506040840135613fcc81613dbc565b604080825283519082018190525f9060208501906060840190835b818110156142ad5783516001600160a01b0316835260209384019390920191600101614286565b5050838103602080860191909152855180835291810192508501905f5b818110156142e85782518452602093840193909201916001016142ca565b50919695505050505050565b5f5f5f5f60408587031215614307575f5ffd5b84356001600160401b0381111561431c575f5ffd5b61432887828801614182565b90955093505060208501356001600160401b03811115614346575f5ffd5b8501601f81018713614356575f5ffd5b80356001600160401b0381111561436b575f5ffd5b87602082840101111561437c575f5ffd5b949793965060200194505050565b5f5f6040838503121561439b575f5ffd5b82356143a681613dbc565b9150602083013561413181613dbc565b634e487b7160e01b5f52603260045260245ffd5b5f602082840312156143da575f5ffd5b8151610c2b81613fd7565b600181811c908216806143f957607f821691505b60208210810361441757634e487b7160e01b5f52602260045260245ffd5b50919050565b5f6020828403121561442d575f5ffd5b5051919050565b6001600160a01b039390931683526020830191909152604082015260600190565b5f60208284031215614465575f5ffd5b8151610c2b81613dbc565b6001600160a01b039384168152919092166020820152604081019190915260600190565b634e487b7160e01b5f52601160045260245ffd5b8082018082111561080357610803614494565b6001815b60018411156144f6578085048111156144da576144da614494565b60018416156144e857908102905b60019390931c9280026144bf565b935093915050565b5f8261450c57506001610803565b8161451857505f610803565b816001811461452e576002811461453857614554565b6001915050610803565b60ff84111561454957614549614494565b50506001821b610803565b5060208310610133831016604e8410600b8410161715614577575081810a610803565b6145835f1984846144bb565b805f190482111561459657614596614494565b029392505050565b5f610c2b60ff8416836144fe565b6001600160a01b03929092168252602082015260400190565b8181038181111561080357610803614494565b5f602082840312156145e8575f5ffd5b8151610c2b81613f72565b60ff828116828216039081111561080357610803614494565b634e487b7160e01b5f52601260045260245ffd5b5f60208284031215614630575f5ffd5b815163ffffffff81168114610c2b575f5ffd5b5f8151808452602084019350602083015f5b82811015614673578151865260209586019590910190600101614655565b5093949350505050565b606081525f61468f6060830186614643565b82810360208401526146a18186613e64565b9050828103604084015280845180835260208301915060208160051b840101602087015f5b838110156146f857601f198684030185526146e2838351613e64565b60209586019590935091909101906001016146c6565b50909998505050505050505050565b5f60ff83168061472557634e487b7160e01b5f52601260045260245ffd5b8060ff84160691505092915050565b605481106147445761474461413c565b9052565b8481526001600160a01b03841660208201526080604082018190525f9061477190830185613e64565b90506126af6060830184614734565b9182526001600160a01b0316602082015260400190565b92835260208301919091526001600160f81b031916604082015260600190565b82815260408101610c2b6020830184614734565b602081525f610c2b6020830184614643565b838152606060208201525f6147f56060830185614643565b905063ffffffff60e01b83166040830152949350505050565b5f6001820161481f5761481f614494565b5060010190565b5f60208284031215614836575f5ffd5b8151610c2b81613f80565b634e487b7160e01b5f52603160045260245ffdfea264697066735822122081aa6f21cec391780a706a10878ab0aec96d6a01854ec109a0e07732086edb7e64736f6c634300081c0033ed8d60e34876f751cc8b014c560745351147d9de11b9347c854e881b128ea600ed8d60e34876f751cc8b014c560745351147d9de11b9347c854e881b128ea601a264697066735822122052295e363db0eb4cadbc36fc7bec6f49a1a1d13cdca2c441e57056812a7ae23f64736f6c634300081c0033",
  "linkReferences": {},
  "deployedLinkReferences": {}
}