{
  "_format": "hh-sol-artifact-1",
  "contractName": "EncryptedVaultFactory",
  "sourceName": "contracts/factories/EncryptedVaultFactory.sol",
  "abi": [
    {
      "inputs": [
        {
          "internalType": "address",
          "name": "configAddress",
          "type": "address"
        }
      ],
      "stateMutability": "nonpayable",
      "type": "constructor"
    },
    {
      "inputs": [],
      "name": "SystemNotIdle",
      "type": "error"
    },
    {
      "inputs": [],
      "name": "ZeroAddress",
      "type": "error"
    },
    {
      "anonymous": false,
      "inputs": [
        {
          "indexed": true,
          "internalType": "address",
          "name": "vault",
          "type": "address"
        },
        {
          "indexed": true,
          "internalType": "address",
          "name": "vaultOwner",
          "type": "address"
        },
        {
          "indexed": true,
          "internalType": "address",
          "name": "curator",
          "type": "address"
        },
        {
          "indexed": false,
          "internalType": "string",
          "name": "name",
          "type": "string"
        },
        {
          "indexed": false,
          "internalType": "string",
          "name": "symbol",
          "type": "string"
        },
        {
          "indexed": false,
          "internalType": "uint8",
          "name": "feeType",
          "type": "uint8"
        },
        {
          "indexed": false,
          "internalType": "uint16",
          "name": "performanceFee",
          "type": "uint16"
        },
        {
          "indexed": false,
          "internalType": "uint16",
          "name": "managementFee",
          "type": "uint16"
        },
        {
          "indexed": false,
          "internalType": "enum EventsLib.VaultType",
          "name": "vaultType",
          "type": "uint8"
        }
      ],
      "name": "OrionVaultCreated",
      "type": "event"
    },
    {
      "inputs": [],
      "name": "config",
      "outputs": [
        {
          "internalType": "contract IOrionConfig",
          "name": "",
          "type": "address"
        }
      ],
      "stateMutability": "view",
      "type": "function"
    },
    {
      "inputs": [
        {
          "internalType": "address",
          "name": "curator",
          "type": "address"
        },
        {
          "internalType": "string",
          "name": "name",
          "type": "string"
        },
        {
          "internalType": "string",
          "name": "symbol",
          "type": "string"
        },
        {
          "internalType": "uint8",
          "name": "feeType",
          "type": "uint8"
        },
        {
          "internalType": "uint16",
          "name": "performanceFee",
          "type": "uint16"
        },
        {
          "internalType": "uint16",
          "name": "managementFee",
          "type": "uint16"
        }
      ],
      "name": "createVault",
      "outputs": [
        {
          "internalType": "address",
          "name": "vault",
          "type": "address"
        }
      ],
      "stateMutability": "nonpayable",
      "type": "function"
    }
  ],
  "bytecode": "0x6080604052348015600e575f5ffd5b50604051615af2380380615af2833981016040819052602b916074565b6001600160a01b03811660515760405163d92e233d60e01b815260040160405180910390fd5b5f80546001600160a01b0319166001600160a01b0392909216919091179055609f565b5f602082840312156083575f5ffd5b81516001600160a01b03811681146098575f5ffd5b9392505050565b615a46806100ac5f395ff3fe608060405234801561000f575f5ffd5b5060043610610034575f3560e01c8063341624941461003857806379502c5514610067575b5f5ffd5b61004b6100463660046102e3565b610079565b6040516001600160a01b03909116815260200160405180910390f35b5f5461004b906001600160a01b031681565b5f33806100995760405163d92e233d60e01b815260040160405180910390fd5b6001600160a01b038a166100c05760405163d92e233d60e01b815260040160405180910390fd5b5f5f9054906101000a90046001600160a01b03166001600160a01b031663edcf9c1f6040518163ffffffff1660e01b8152600401602060405180830381865afa15801561010f573d5f5f3e3d5ffd5b505050506040513d601f19601f8201168201806040525081019061013391906103a4565b610150576040516312aecd8160e01b815260040160405180910390fd5b5f818b5f5f9054906101000a90046001600160a01b03168c8c8c8c8c8c8c60405161017a9061027c565b61018d9a999897969594939291906103f2565b604051809103905ff0801580156101a6573d5f5f3e3d5ffd5b505f54604051631e832de160e21b81529194508492506001600160a01b031690637a0cb784906101dd908490600190600401610485565b5f604051808303815f87803b1580156101f4575f5ffd5b505af1158015610206573d5f5f3e3d5ffd5b505050508a6001600160a01b0316826001600160a01b0316846001600160a01b03167f91700e2f05ab5287673189803ecbe9609340db98196ee954ac9865daf4308d2d8d8d8d8d8d8d8d60016040516102669897969594939291906104a2565b60405180910390a4505098975050505050505050565b61550e8061050383390190565b5f5f83601f840112610299575f5ffd5b5081356001600160401b038111156102af575f5ffd5b6020830191508360208285010111156102c6575f5ffd5b9250929050565b803561ffff811681146102de575f5ffd5b919050565b5f5f5f5f5f5f5f5f60c0898b0312156102fa575f5ffd5b88356001600160a01b0381168114610310575f5ffd5b975060208901356001600160401b0381111561032a575f5ffd5b6103368b828c01610289565b90985096505060408901356001600160401b03811115610354575f5ffd5b6103608b828c01610289565b909650945050606089013560ff81168114610379575f5ffd5b925061038760808a016102cd565b915061039560a08a016102cd565b90509295985092959890939650565b5f602082840312156103b4575f5ffd5b815180151581146103c3575f5ffd5b9392505050565b81835281816020850137505f828201602090810191909152601f909101601f19169091010190565b6001600160a01b038b811682528a8116602083015289166040820152610100606082018190525f90610427908301898b6103ca565b828103608084015261043a81888a6103ca565b60ff9690961660a0840152505061ffff92831660c0820152911660e090910152979650505050505050565b6002811061048157634e487b7160e01b5f52602160045260245ffd5b9052565b6001600160a01b0383168152604081016103c36020830184610465565b60c081525f6104b560c083018a8c6103ca565b82810360208401526104c881898b6103ca565b91505060ff8616604083015261ffff8516606083015261ffff841660808301526104f560a0830184610465565b999850505050505050505056fe60c060405234801561000f575f5ffd5b5060405161550e38038061550e83398101604081905261002e91610b66565b8787878787878787856001600160a01b0316637158da7c6040518163ffffffff1660e01b8152600401602060405180830381865afa158015610072573d5f5f3e3d5ffd5b505050506040513d601f19601f820116820180604052508101906100969190610c35565b858561013b610136604080516080810182525f80825260208201819052918101829052606081019190915250604080516080810182527350157cffd6bbfa2dece204a89ec419c23ef5755d815273cd3ab3bd6bcc0c0bf3e27912a92043e817b1cf696020820152731364cbbf2cdf5032c47d8226a6f6fbd2afcdacac9181019190915273901f8942346f7ab3a01f6d7613119bca447bb030606082015290565b610623565b61015873a02cda4ca3a71d7c46997716f4283aa851c288126106dc565b60036101648382610cd4565b5060046101718282610cd4565b5050505f5f6101858361071960201b60201c565b9150915081610195576012610197565b805b60ff1660a05250506001600160a01b03908116608052600160055587166101d15760405163e6c4247b60e01b815260040160405180910390fd5b6001600160a01b0386166101f85760405163e6c4247b60e01b815260040160405180910390fd5b600680546001600160a01b03808b166001600160a01b031992831617909255600780548a841690831617905560088054928916929091168217905560408051630691d8b960e31b8152905163348ec5c8916004808201926020929091908290030181865afa15801561026c573d5f5f3e3d5ffd5b505050506040513d601f19601f820116820180604052508101906102909190610c35565b60095f6101000a8154816001600160a01b0302191690836001600160a01b03160217905550856001600160a01b0316633a0dad8e6040518163ffffffff1660e01b8152600401602060405180830381865afa1580156102f1573d5f5f3e3d5ffd5b505050506040513d601f19601f820116820180604052508101906103159190610c35565b600a5f6101000a8154816001600160a01b0302191690836001600160a01b03160217905550856001600160a01b031663d1717c7d6040518163ffffffff1660e01b8152600401602060405180830381865afa158015610376573d5f5f3e3d5ffd5b505050506040513d601f19601f8201168201806040525081019061039a9190610d8e565b600a60146101000a81548160ff021916908360ff1602179055505f600d819055505f6014819055505f6015819055505f866001600160a01b0316637158da7c6040518163ffffffff1660e01b8152600401602060405180830381865afa158015610406573d5f5f3e3d5ffd5b505050506040513d601f19601f8201168201806040525081019061042a9190610c35565b6001600160a01b031663313ce5676040518163ffffffff1660e01b8152600401602060405180830381865afa158015610465573d5f5f3e3d5ffd5b505050506040513d601f19601f820116820180604052508101906104899190610d8e565b9050601260ff821611156104b057604051631c03248960e11b815260040160405180910390fd5b600460ff851611156104d5576040516317dbc4cb60e21b815260040160405180910390fd5b610bb861ffff841611156104fc576040516317dbc4cb60e21b815260040160405180910390fd5b61012c61ffff83161115610523576040516317dbc4cb60e21b815260040160405180910390fd5b8360ff16600481111561053857610538610da7565b6017805460ff1916600183600481111561055457610554610da7565b02179055506017805461ffff84811663010000000264ffff00000019918716610100029190911664ffffffff0019909216919091171790556105986012600a610eb2565b6018556105a36107ef565b5050505050505050506105bb5f6108c460201b60201c565b601e556105c860016108df565b601f55600a80546105ec916105e791600160a01b900460ff1690610eb2565b6108c4565b602055601e546105fb906108fa565b50601f54610608906108fa565b50602054610615906108fa565b505050505050505050610fe3565b80515f5160206154ce5f395f51905f5280546001600160a01b03199081166001600160a01b039384161790915560208301515f5160206154ee5f395f51905f528054831691841691909117905560408301517fed8d60e34876f751cc8b014c560745351147d9de11b9347c854e881b128ea6028054831691841691909117905560608301517fed8d60e34876f751cc8b014c560745351147d9de11b9347c854e881b128ea6038054909216921691909117905550565b50565b7f5ea69329017273582817d320489fbd94f775580e90c092699ca6f3d12fdf7d0080546001600160a01b0319166001600160a01b03831617905550565b60408051600481526024810182526020810180516001600160e01b031663313ce56760e01b17905290515f918291829182916001600160a01b0387169161075f91610ec0565b5f60405180830381855afa9150503d805f8114610797576040519150601f19603f3d011682016040523d82523d5f602084013e61079c565b606091505b50915091508180156107b057506020815110155b156107e3575f818060200190518101906107ca9190610ed6565b905060ff81116107e1576001969095509350505050565b505b505f9485945092505050565b60085460408051636c366a2760e11b815290515f926001600160a01b03169163d86cd44e91600480830192869291908290030181865afa158015610835573d5f5f3e3d5ffd5b505050506040513d5f823e601f3d908101601f1916820160405261085c9190810190610eed565b90505f5b81518110156108c0575f61089783838151811061087f5761087f610f9f565b6020026020010151600b61090960201b90919060201c565b9050806108b757604051630ea075bf60e21b815260040160405180910390fd5b50600101610860565b5050565b5f6108d96001600160801b0383166006610924565b92915050565b5f6108d9826108ee575f6108f1565b60015b60ff165f610924565b5f61090582306109bb565b5090565b5f61091d836001600160a01b038416610a31565b9392505050565b5f5160206154ee5f395f51905f5254604051639cd07acb60e01b81525f915f5160206154ce5f395f51905f52916001600160a01b0390911690639cd07acb906109739087908790600401610fb3565b6020604051808303815f875af115801561098f573d5f5f3e3d5ffd5b505050506040513d601f19601f820116820180604052508101906109b39190610ed6565b949350505050565b5f5f5160206154ce5f395f51905f528054604051635ca4b5b160e11b8152600481018690526001600160a01b03858116602483015292935091169063b9496b62906044015f604051808303815f87803b158015610a16575f5ffd5b505af1158015610a28573d5f5f3e3d5ffd5b50505050505050565b5f818152600183016020526040812054610a7657508154600181810184555f8481526020808220909301849055845484825282860190935260409020919091556108d9565b505f6108d9565b6001600160a01b03811681146106d9575f5ffd5b634e487b7160e01b5f52604160045260245ffd5b604051601f8201601f191681016001600160401b0381118282101715610acd57610acd610a91565b604052919050565b5f82601f830112610ae4575f5ffd5b81516001600160401b03811115610afd57610afd610a91565b610b10601f8201601f1916602001610aa5565b818152846020838601011115610b24575f5ffd5b8160208501602083015e5f918101602001919091529392505050565b805160ff81168114610b50575f5ffd5b919050565b805161ffff81168114610b50575f5ffd5b5f5f5f5f5f5f5f5f610100898b031215610b7e575f5ffd5b8851610b8981610a7d565b60208a0151909850610b9a81610a7d565b60408a0151909750610bab81610a7d565b60608a01519096506001600160401b03811115610bc6575f5ffd5b610bd28b828c01610ad5565b60808b015190965090506001600160401b03811115610bef575f5ffd5b610bfb8b828c01610ad5565b945050610c0a60a08a01610b40565b9250610c1860c08a01610b55565b9150610c2660e08a01610b55565b90509295985092959890939650565b5f60208284031215610c45575f5ffd5b815161091d81610a7d565b600181811c90821680610c6457607f821691505b602082108103610c8257634e487b7160e01b5f52602260045260245ffd5b50919050565b601f821115610ccf57805f5260205f20601f840160051c81016020851015610cad5750805b601f840160051c820191505b81811015610ccc575f8155600101610cb9565b50505b505050565b81516001600160401b03811115610ced57610ced610a91565b610d0181610cfb8454610c50565b84610c88565b6020601f821160018114610d33575f8315610d1c5750848201515b5f19600385901b1c1916600184901b178455610ccc565b5f84815260208120601f198516915b82811015610d625787850151825560209485019460019092019101610d42565b5084821015610d7f57868401515f19600387901b60f8161c191681555b50505050600190811b01905550565b5f60208284031215610d9e575f5ffd5b61091d82610b40565b634e487b7160e01b5f52602160045260245ffd5b634e487b7160e01b5f52601160045260245ffd5b6001815b6001841115610e0a57808504811115610dee57610dee610dbb565b6001841615610dfc57908102905b60019390931c928002610dd3565b935093915050565b5f82610e20575060016108d9565b81610e2c57505f6108d9565b8160018114610e425760028114610e4c57610e68565b60019150506108d9565b60ff841115610e5d57610e5d610dbb565b50506001821b6108d9565b5060208310610133831016604e8410600b8410161715610e8b575081810a6108d9565b610e975f198484610dcf565b805f1904821115610eaa57610eaa610dbb565b029392505050565b5f61091d60ff841683610e12565b5f82518060208501845e5f920191825250919050565b5f60208284031215610ee6575f5ffd5b5051919050565b5f60208284031215610efd575f5ffd5b81516001600160401b03811115610f12575f5ffd5b8201601f81018413610f22575f5ffd5b80516001600160401b03811115610f3b57610f3b610a91565b8060051b610f4b60208201610aa5565b91825260208184018101929081019087841115610f66575f5ffd5b6020850194505b83851015610f945784519250610f8283610a7d565b82825260209485019490910190610f6d565b979650505050505050565b634e487b7160e01b5f52603260045260245ffd5b8281526040810160548310610fd657634e487b7160e01b5f52602160045260245ffd5b8260208301529392505050565b60805160a0516144cd6110015f395f50505f61103701526144cd5ff3fe608060405234801561000f575f5ffd5b50600436106102cc575f3560e01c806394bf804d1161018157806394bf804d1461048b5780639531a485146104fb57806395d89b411461050357806397ee11441461050b5780639908840c146105415780639adb29811461054a578063a68a52671461055d578063a9059cbb14610570578063aa2f892d14610583578063acdb3d5114610596578063b3d7f6b914610347578063b460af941461059f578063b6eba653146105ad578063ba0876521461059f578063bdca9165146105c3578063c0b568e1146105cc578063c392e58c146105df578063c3f0d30e146105f2578063c63d75b61461044f578063c6e6f59214610605578063ce96cb7714610618578063d1717c7d1461062b578063d3d034581461063f578063d853365f14610647578063d905777e1461064f578063dceb7e2814610662578063dd62ed3e1461066f578063e51a85f614610682578063e66f53b714610695578063ef8b30f714610347578063f64c6f32146106a8575f5ffd5b806301e1d114146102d057806303d44854146102e757806306fdde03146102fc57806307a2d13a14610311578063095ea7b3146103245780630a28a477146103475780630a605c6d1461035a5780630c6a62dd146103625780630d1e6667146103755780630df571f71461038857806310121fed1461039b57806318160ddd146103a357806318c21949146103ab5780631f52692b146103be57806323b872dd146103de5780632dae2967146103f1578063313ce567146103f9578063348ec5c81461040e57806338d52e0f146104215780633a0dad8e146104295780633ab6d27c1461043c578063402d267d1461044f5780634cdad506146103475780634e85b1351461046357806358df8301146104785780636e553f651461048b57806370a08231146104995780637847ea53146104ac57806379502c55146104cc5780638f5c9465146104df575b5f5ffd5b600d545b6040519081526020015b60405180910390f35b6102fa6102f5366004613a06565b6106b0565b005b6103046107ea565b6040516102de9190613a72565b6102d461031f366004613a84565b61087a565b610337610332366004613ab6565b61088b565b60405190151581526020016102de565b6102d4610355366004613a84565b6108a2565b6015546102d4565b6102fa610370366004613ade565b6108bc565b6102fa610383366004613a84565b610957565b6102fa610396366004613af7565b610bc8565b6102fa610c43565b6002546102d4565b6102fa6103b9366004613a84565b610ef2565b6006546103d1906001600160a01b031681565b6040516102de9190613b17565b6103376103ec366004613b2b565b610fc1565b6102fa610fe6565b60125b60405160ff90911681526020016102de565b6009546103d1906001600160a01b031681565b6103d1611035565b600a546103d1906001600160a01b031681565b6102fa61044a366004613b82565b611059565b6102d461045d366004613ade565b505f1990565b61046b611226565b6040516102de9190613c0d565b6102fa610486366004613c2c565b611237565b6102d4610355366004613c83565b6102d46104a7366004613ade565b611260565b6104b76301e1338081565b60405163ffffffff90911681526020016102de565b6008546103d1906001600160a01b031681565b6104e861271081565b60405161ffff90911681526020016102de565b6102fa61127a565b6103046114ba565b6017546018546105319160ff81169161ffff610100830481169263010000009004169084565b6040516102de9493929190613cc1565b6104e861012c81565b6102fa610558366004613d33565b6114c9565b6102d461056b366004613d7a565b611673565b61033761057e366004613ab6565b6116b3565b6102fa610591366004613a84565b6116c0565b6102d460165481565b6102d4610355366004613da8565b6105b5611899565b6040516102de929190613de1565b6104e8610bb881565b6102fa6105da366004613a84565b611a1a565b6102fa6105ed366004613e39565b611bd4565b6102fa610600366004613a84565b612044565b6102d4610613366004613a84565b612238565b6102d4610626366004613ade565b612243565b600a546103fc90600160a01b900460ff1681565b6105b5612256565b6103fc601281565b6102d461065d366004613ade565b6123ba565b6021546103379060ff1681565b6102d461067d366004613ecf565b6123c4565b6102d4610690366004613a84565b6123ee565b6007546103d1906001600160a01b031681565b6014546102d4565b6006546001600160a01b031633146106db57604051631a27eac360e11b815260040160405180910390fd5b6106e5600b612427565b5f5b818110156107e5575f83838381811061070257610702613ef7565b90506020020160208101906107179190613ade565b600854604051633af32abf60e01b81529192506001600160a01b031690633af32abf90610748908490600401613b17565b602060405180830381865afa158015610763573d5f5f3e3d5ffd5b505050506040513d601f19601f820116820180604052508101906107879190613f0b565b6107af578060405163751dff9760e11b81526004016107a69190613b17565b60405180910390fd5b5f6107bb600b83612430565b9050806107db57604051630ea075bf60e21b815260040160405180910390fd5b50506001016106e7565b505050565b6060600380546107f990613f26565b80601f016020809104026020016040519081016040528092919081815260200182805461082590613f26565b80156108705780601f1061084757610100808354040283529160200191610870565b820191905f5260205f20905b81548152906001019060200180831161085357829003601f168201915b5050505050905090565b5f610885825f612444565b92915050565b5f33610898818585612485565b5060019392505050565b5f60405163125ad87760e31b815260040160405180910390fd5b6006546001600160a01b031633146108e757604051631a27eac360e11b815260040160405180910390fd5b6001600160a01b03811661090e5760405163e6c4247b60e01b815260040160405180910390fd5b600780546001600160a01b0319166001600160a01b0383169081179091556040517f83293ffeebb677b167941693470018acf300605df266a35e9fdb66f24ff00fe0905f90a250565b61095f612492565b60085f9054906101000a90046001600160a01b03166001600160a01b031663edcf9c1f6040518163ffffffff1660e01b8152600401602060405180830381865afa1580156109af573d5f5f3e3d5ffd5b505050506040513d601f19601f820116820180604052508101906109d39190613f0b565b6109f0576040516312aecd8160e01b815260040160405180910390fd5b805f03610a19576109ff611035565b604051636b30633560e01b81526004016107a69190613b17565b5f610a22611035565b6001600160a01b03166370a08231336040518263ffffffff1660e01b8152600401610a4d9190613b17565b602060405180830381865afa158015610a68573d5f5f3e3d5ffd5b505050506040513d601f19601f82011682018060405250810190610a8c9190613f5e565b905080821115610aaf57604051632ca2f52b60e11b815260040160405180910390fd5b5f610ab8611035565b600a546040516323b872dd60e01b81526001600160a01b03928316926323b872dd92610aee923392909116908890600401613f75565b6020604051808303815f875af1158015610b0a573d5f5f3e3d5ffd5b505050506040513d601f19601f82011682018060405250810190610b2e9190613f0b565b905080610b4e576040516312171d8360e31b815260040160405180910390fd5b5f610b5a600e336124bc565b9150610b75905033610b6c8684613fad565b600e91906124e2565b508360145f828254610b879190613fad565b9091555050604051849033907f55896b30a78fc55b78937f8014dde3f0035e9d37a4f6ac36841fb8b62f7e2b13905f90a3505050610bc56001600555565b50565b600a546001600160a01b03163314610bf357604051631a27eac360e11b815260040160405180910390fd5b8015610c3f578060165f828254610c0a9190613fad565b9091555050601654604051829084907f8b8789cf9157fe7b016901e4ed3a5d0971caa8b7c031da0b25638ccf65841b2a905f90a45b5050565b600a546001600160a01b03163314610c6e57604051631a27eac360e11b815260040160405180910390fd5b610c76612492565b5f610c8160116124f7565b90505f8163ffffffff166001600160401b03811115610ca257610ca2613fc0565b604051908082528060200260200182016040528015610ccb578160200160208202803683370190505b5090505f8263ffffffff166001600160401b03811115610ced57610ced613fc0565b604051908082528060200260200182016040528015610d16578160200160208202803683370190505b5090505f5b8363ffffffff168163ffffffff161015610db0575f80610d45601163ffffffff8086169061250116565b9150915081858463ffffffff1681518110610d6257610d62613ef7565b60200260200101906001600160a01b031690816001600160a01b03168152505080848463ffffffff1681518110610d9b57610d9b613ef7565b60209081029190910101525050600101610d1b565b505f60158190555b8363ffffffff168163ffffffff161015610ee2575f838263ffffffff1681518110610de557610de5613ef7565b602002602001015190505f838363ffffffff1681518110610e0857610e08613ef7565b60200260200101519050610e2682601161250f90919063ffffffff16565b505f610e318261087a565b9050610e3d3083612523565b600a54604051634adfc2e760e01b81526001600160a01b0390911690634adfc2e790610e6f9086908590600401613fd4565b5f604051808303815f87803b158015610e86575f5ffd5b505af1158015610e98573d5f5f3e3d5ffd5b505050508181846001600160a01b03167ff279e6a1f5e320cca91135676d9cb6e44ca8a08c0b88342bcdb1144f6511b56860405160405180910390a4505050806001019050610db8565b50505050610ef06001600555565b565b6006546001600160a01b03163314610f1d57604051631a27eac360e11b815260040160405180910390fd5b805f03610f2c576109ff611035565b601654811115610f4f57604051632ca2f52b60e11b815260040160405180910390fd5b8060165f828254610f609190613fed565b9091555050600a5460405163741fca4b60e01b8152600481018390526001600160a01b039091169063741fca4b906024015f604051808303815f87803b158015610fa8575f5ffd5b505af1158015610fba573d5f5f3e3d5ffd5b5050505050565b5f33610fce858285612557565b610fd98585856125a2565b60019150505b9392505050565b600a546001600160a01b0316331461101157604051631a27eac360e11b815260040160405180910390fd5b5f61102360125b61031f90600a6140e3565b601854909150811115610bc557601855565b7f000000000000000000000000000000000000000000000000000000000000000090565b6006546001600160a01b0316331461108457604051631a27eac360e11b815260040160405180910390fd5b60085f9054906101000a90046001600160a01b03166001600160a01b031663edcf9c1f6040518163ffffffff1660e01b8152600401602060405180830381865afa1580156110d4573d5f5f3e3d5ffd5b505050506040513d601f19601f820116820180604052508101906110f89190613f0b565b611115576040516312aecd8160e01b815260040160405180910390fd5b600460ff8416111561113a576040516317dbc4cb60e21b815260040160405180910390fd5b610bb861ffff83161115611161576040516317dbc4cb60e21b815260040160405180910390fd5b61012c61ffff82161115611188576040516317dbc4cb60e21b815260040160405180910390fd5b8260ff16600481111561119d5761119d613cad565b6017805460ff191660018360048111156111b9576111b9613cad565b02179055506017805464ffffffff00191661010061ffff85811691820264ffff00000019169290921763010000009285169283021790925560405190919060ff8616907fd24f39e523bfa412fa391702710dc62e1c82d87a8e83228a37c42be1b4870f45905f90a4505050565b6060611232600b6125ff565b905090565b61124a846112458385614121565b61260b565b50506021805460ff191691151591909117905550565b6001600160a01b03165f9081526020819052604090205490565b600a546001600160a01b031633146112a557604051631a27eac360e11b815260040160405180910390fd5b6112ad612492565b5f6112b8600e6124f7565b90505f8163ffffffff166001600160401b038111156112d9576112d9613fc0565b604051908082528060200260200182016040528015611302578160200160208202803683370190505b5090505f8263ffffffff166001600160401b0381111561132457611324613fc0565b60405190808252806020026020018201604052801561134d578160200160208202803683370190505b5090505f5b8363ffffffff168163ffffffff1610156113e7575f8061137c600e63ffffffff8086169061250116565b9150915081858463ffffffff168151811061139957611399613ef7565b60200260200101906001600160a01b031690816001600160a01b03168152505080848463ffffffff16815181106113d2576113d2613ef7565b60209081029190910101525050600101611352565b505f60148190555b8363ffffffff168163ffffffff161015610ee2575f838263ffffffff168151811061141c5761141c613ef7565b602002602001015190505f838363ffffffff168151811061143f5761143f613ef7565b6020026020010151905061145d82600e61250f90919063ffffffff16565b505f61146882612238565b90506114748382612672565b8082846001600160a01b03167f90890809c654f11d6e72a28fa60149770a0d11ec6c92319d6ceb2bb0a4ea1a1560405160405180910390a45050508060010190506113ef565b6060600480546107f990613f26565b600a546001600160a01b031633146114f457604051631a27eac360e11b815260040160405180910390fd5b601a545f5b8161ffff168161ffff16101561155257601e5460195f601a8461ffff168154811061152657611526613ef7565b5f9182526020808320909101546001600160a01b031683528201929092526040019020556001016114f9565b5061155e601a5f613956565b5f5b8161ffff168161ffff16101561163d5784848261ffff1681811061158657611586613ef7565b9050604002016020013560195f87878561ffff168181106115a9576115a9613ef7565b6115bf9260206040909202019081019150613ade565b6001600160a01b0316815260208101919091526040015f2055601a858561ffff84168181106115f0576115f0613ef7565b6116069260206040909202019081019150613ade565b8154600180820184555f93845260209093200180546001600160a01b0319166001600160a01b039290921691909117905501611560565b50600d82905560405182907f5e1ff954b5e5257e9ee5d4cb07059e8f5e69b1aaaf9911e5d8d90a6894de9c21905f90a250505050565b5f6116ab611682846001613fad565b61168a6126a6565b61169590600a6140e3565b6002546116a29190613fad565b86919085612722565b949350505050565b5f336108988185856125a2565b60085f9054906101000a90046001600160a01b03166001600160a01b031663edcf9c1f6040518163ffffffff1660e01b8152600401602060405180830381865afa158015611710573d5f5f3e3d5ffd5b505050506040513d601f19601f820116820180604052508101906117349190613f0b565b611751576040516312aecd8160e01b815260040160405180910390fd5b805f036117735730604051636b30633560e01b81526004016107a69190613b17565b5f61177d33611260565b9050808211156117a057604051632ca2f52b60e11b815260040160405180910390fd5b6040516323b872dd60e01b81525f9030906323b872dd906117c990339084908890600401613f75565b6020604051808303815f875af11580156117e5573d5f5f3e3d5ffd5b505050506040513d601f19601f820116820180604052508101906118099190613f0b565b905080611829576040516312171d8360e31b815260040160405180910390fd5b5f6118356011336124bc565b91506118509050336118478684613fad565b601191906124e2565b508360155f8282546118629190613fad565b9091555050604051849033907f222dc200773fe9b45015bf792e8fee37d651e3590c215806a5042404b6d741d2905f90a350505050565b601c54606090819061ffff81166001600160401b038111156118bd576118bd613fc0565b6040519080825280602002602001820160405280156118e6578160200160208202803683370190505b5092508061ffff166001600160401b0381111561190557611905613fc0565b60405190808252806020026020018201604052801561192e578160200160208202803683370190505b5091505f5b8161ffff168161ffff161015611a1457601c8161ffff168154811061195a5761195a613ef7565b905f5260205f20015f9054906101000a90046001600160a01b0316848261ffff168151811061198b5761198b613ef7565b60200260200101906001600160a01b031690816001600160a01b031681525050601b5f601c8361ffff16815481106119c5576119c5613ef7565b5f9182526020808320909101546001600160a01b031683528201929092526040019020548351849061ffff8416908110611a0157611a01613ef7565b6020908102919091010152600101611933565b50509091565b611a22612492565b60085f9054906101000a90046001600160a01b03166001600160a01b031663edcf9c1f6040518163ffffffff1660e01b8152600401602060405180830381865afa158015611a72573d5f5f3e3d5ffd5b505050506040513d601f19601f82011682018060405250810190611a969190613f0b565b611ab3576040516312aecd8160e01b815260040160405180910390fd5b805f03611ac2576109ff611035565b5f611ace600e336124bc565b91505081811015611af257604051632ca2f52b60e11b815260040160405180910390fd5b600a546040516351edffb160e01b81526001600160a01b03909116906351edffb190611b249033908690600401613fd4565b5f604051808303815f87803b158015611b3b575f5ffd5b505af1158015611b4d573d5f5f3e3d5ffd5b505050505f8282611b5e9190613fed565b9050805f03611b7857611b72600e3361250f565b50611b86565b611b84600e33836124e2565b505b8260145f828254611b979190613fed565b9091555050604051839033907f96a9a6886cdf3047a125454218a23d3961fd3a78643123b248a9d106d0ac94fd905f90a35050610bc56001600555565b6007546001600160a01b03163314611bff57604051631a27eac360e11b815260040160405180910390fd5b611c07612492565b5f839003611c2857604051631121aa8d60e01b815260040160405180910390fd5b6021805460ff19169055601e5483905f61ffff83166001600160401b03811115611c5457611c54613fc0565b604051908082528060200260200182016040528015611c7d578160200160208202803683370190505b5090505f8361ffff166001600160401b03811115611c9d57611c9d613fc0565b604051908082528060200260200182016040528015611cc6578160200160208202803683370190505b5090505f8461ffff166001600160401b03811115611ce657611ce6613fc0565b604051908082528060200260200182016040528015611d0f578160200160208202803683370190505b5090505f5b8561ffff168161ffff161015611ec8575f8a8a8361ffff16818110611d3b57611d3b613ef7565b611d519260206040909202019081019150613ade565b905080838361ffff1681518110611d6a57611d6a613ef7565b60200260200101906001600160a01b031690816001600160a01b0316815250505f611de98c8c8561ffff16818110611da457611da4613ef7565b905060400201602001358b8b8080601f0160208091040260200160405190810160405280939291908181526020018383808284375f9201919091525061276492505050565b9050611df481612771565b506001600160a01b0382165f908152601d602052604090205460ff1615611e3057816040516346bdabe160e01b81526004016107a69190613b17565b6001600160a01b0382165f908152601d60205260409020805460ff1916600117905585518290879061ffff8616908110611e6c57611e6c613ef7565b60200260200101906001600160a01b031690816001600160a01b03168152505080858461ffff1681518110611ea357611ea3613ef7565b602002602001018181525050611eb98782612780565b96505050806001019050611d14565b50611ed381856127ae565b5f5b601c5461ffff9081169082161015611f3057601e54601b5f601c8461ffff1681548110611f0457611f04613ef7565b5f9182526020808320909101546001600160a01b03168352820192909252604001902055600101611ed5565b50611f3c601c5f613956565b5f5b8561ffff168161ffff161015612004575f848261ffff1681518110611f6557611f65613ef7565b60200260200101519050838261ffff1681518110611f8557611f85613ef7565b6020908102919091018101516001600160a01b039092165f818152601b8352604080822094909455601c805460018181019092557f0e4562a10381dec21b205ed72637e6b1b523bdd0e4d4d50af5cd23dd4500a2110180546001600160a01b03191684179055918152601d909252919020805460ff1916905501611f3e565b5060405133907f2d47a742b8d7df7c1fc5a9a631b206b364e6cb2722490759f63bb3ab14b132e0905f90a2505050505061203e6001600555565b50505050565b61204c612492565b60085f9054906101000a90046001600160a01b03166001600160a01b031663edcf9c1f6040518163ffffffff1660e01b8152600401602060405180830381865afa15801561209c573d5f5f3e3d5ffd5b505050506040513d601f19601f820116820180604052508101906120c09190613f0b565b6120dd576040516312aecd8160e01b815260040160405180910390fd5b805f036120ff5730604051636b30633560e01b81526004016107a69190613b17565b5f61210b6011336124bc565b9150508181101561212f57604051632ca2f52b60e11b815260040160405180910390fd5b5f61213a8383613fed565b9050805f036121545761214e60113361250f565b50612162565b612160601133836124e2565b505b8260155f8282546121739190613fed565b909155505060405163a9059cbb60e01b81525f90309063a9059cbb9061219f9033908890600401613fd4565b6020604051808303815f875af11580156121bb573d5f5f3e3d5ffd5b505050506040513d601f19601f820116820180604052508101906121df9190613f0b565b9050806121ff576040516312171d8360e31b815260040160405180910390fd5b604051849033907f046d3e17087d323298991516e3fdec36fe1204d6bff7fb6e2b8eca77b80a22ad905f90a3505050610bc56001600555565b5f610885825f612820565b5f61088561225083611260565b5f612444565b601a54606090819061ffff81166001600160401b0381111561227a5761227a613fc0565b6040519080825280602002602001820160405280156122a3578160200160208202803683370190505b5092508061ffff166001600160401b038111156122c2576122c2613fc0565b6040519080825280602002602001820160405280156122eb578160200160208202803683370190505b5091505f5b8161ffff168161ffff161015611a14575f601a8261ffff168154811061231857612318613ef7565b905f5260205f20015f9054906101000a90046001600160a01b0316905080858361ffff168151811061234c5761234c613ef7565b60200260200101906001600160a01b031690816001600160a01b03168152505060195f826001600160a01b03166001600160a01b031681526020019081526020015f2054848361ffff16815181106123a6576123a6613ef7565b6020908102919091010152506001016122f0565b5f61088582611260565b6001600160a01b039182165f90815260016020908152604080832093909416825291909152205490565b5f5f6123f983612852565b90505f6124068285613fed565b90505f6124128261291c565b905061241e8184613fad565b95945050505050565b610bc5816129d9565b5f610fdf836001600160a01b038416612a32565b5f610fdf612451600d5490565b61245c906001613fad565b6124646126a6565b61246f90600a6140e3565b60025461247c9190613fad565b85919085612722565b6107e58383836001612a79565b6002600554036124b557604051633ee5aeb560e01b815260040160405180910390fd5b6002600555565b5f8080806124d3866001600160a01b038716612b4b565b909450925050505b9250929050565b5f6116ab846001600160a01b03851684612b83565b5f61088582612b9f565b5f8080806124d38686612ba9565b5f610fdf836001600160a01b038416612bd2565b6001600160a01b03821661254c575f604051634b637e8f60e11b81526004016107a69190613b17565b610c3f825f83612bee565b5f61256284846123c4565b90505f1981101561203e578181101561259457828183604051637dc7a0d960e11b81526004016107a693929190614203565b61203e84848484035f612a79565b6001600160a01b0383166125cb575f604051634b637e8f60e11b81526004016107a69190613b17565b6001600160a01b0382166125f4575f60405163ec442f0560e01b81526004016107a69190613b17565b6107e5838383612bee565b60605f610fdf83612d01565b5f61261583612d5a565b90505f6126228284612df6565b9050806126425760405163cf6c44e960e01b815260040160405180910390fd5b60405184907f1af0453083661051f6e56e5c070792320652e612154bf9af8637bb1e7655b99d905f90a250505050565b6001600160a01b03821661269b575f60405163ec442f0560e01b81526004016107a69190613b17565b610c3f5f8383612bee565b5f5f6126b0611035565b6001600160a01b031663313ce5676040518163ffffffff1660e01b8152600401602060405180830381865afa1580156126eb573d5f5f3e3d5ffd5b505050506040513d601f19601f8201168201806040525081019061270f9190614224565b905061271c81601261423f565b91505090565b5f61274f61272f83612edd565b801561274a57505f848061274557612745614258565b868809115b151590565b61275a868686612f09565b61241e9190613fad565b5f610fdf83836006612fb9565b5f61277c82306130a3565b5090565b5f826127925761278f5f613110565b92505b816127a3576127a05f613110565b91505b610fdf83835f613125565b6127b7826131bb565b5f6127c482602054613233565b90506127cf81612771565b506040805160018082528183019092525f916020808301908036833701905050905081815f8151811061280457612804613ef7565b6020908102919091010152610fba816358df830160e01b613261565b5f610fdf61282c6126a6565b61283790600a6140e3565b6002546128449190613fad565b600d5461247c906001613fad565b6017545f906301000000900461ffff16810361286f57505f919050565b6017545f9061288c906301000000900461ffff1684612710612f09565b9050610fdf60095f9054906101000a90046001600160a01b03166001600160a01b0316634ff0876a6040518163ffffffff1660e01b8152600401602060405180830381865afa1580156128e1573d5f5f3e3d5ffd5b505050506040513d601f19601f82011682018060405250810190612905919061426c565b829063ffffffff908116906301e1338090612f0916565b6017545f90610100900461ffff16810361293757505f919050565b5f61297b612946846001613fad565b61294e6126a6565b61295990600a6140e3565b6002546129669190613fad565b5f6129736012600a6140e3565b929190612722565b6017549091505f9081906129919060ff1661326d565b91509150818310156129a757505f949350505050565b6017545f906129c090610100900461ffff168584612f09565b90506129cf8187612710612f09565b9695505050505050565b5f6129e2825490565b90505f5b81811015612a2b57826001015f845f018381548110612a0757612a07613ef7565b905f5260205f20015481526020019081526020015f205f90558060010190506129e6565b50505f9055565b5f612a3d8383613357565b612a7257508154600181810184555f848152602080822090930184905584548482528286019093526040902091909155610885565b505f610885565b6001600160a01b038416612aa2575f60405163e602df0560e01b81526004016107a69190613b17565b6001600160a01b038316612acb575f604051634a1406b160e11b81526004016107a69190613b17565b6001600160a01b038085165f908152600160209081526040808320938716835292905220829055801561203e57826001600160a01b0316846001600160a01b03167f8c5be1e5ebec7d5bd14f71427d1e84f3dd0314c0f7b2291e5b200ac8c7c3b92584604051612b3d91815260200190565b60405180910390a350505050565b5f818152600283016020526040812054819080612b7857612b6c858561336e565b92505f91506124db9050565b6001925090506124db565b5f82815260028401602052604081208290556116ab8484613379565b5f61088582613384565b5f8080612bb6858561338d565b5f81815260029690960160205260409095205494959350505050565b5f8181526002830160205260408120819055610fdf8383613398565b6001600160a01b038316612c18578060025f828254612c0d9190613fad565b90915550612c759050565b6001600160a01b0383165f9081526020819052604090205481811015612c575783818360405163391434e360e21b81526004016107a693929190614203565b6001600160a01b0384165f9081526020819052604090209082900390555b6001600160a01b038216612c9157600280548290039055612caf565b6001600160a01b0382165f9081526020819052604090208054820190555b816001600160a01b0316836001600160a01b03167fddf252ad1be2c89b69c2b068fc378daa952ba7f163c4a11628f55a4df523b3ef83604051612cf491815260200190565b60405180910390a3505050565b6060815f01805480602002602001604051908101604052809291908181526020018280548015612d4e57602002820191905f5260205f20905b815481526020019060010190808311612d3a575b50505050509050919050565b60605f612d656133a3565b5f84815260028201602052604081205491925003612d965760405163d66ca67560e01b815260040160405180910390fd5b5f83815260028201602090815260409182902080548351818402810184019094528084529091830182828015612de957602002820191905f5260205f20905b815481526020019060010190808311612dd5575b5050505050915050919050565b5f602481612e03856133c7565b90505f816001600160401b03811115612e1e57612e1e613fc0565b6040519080825280601f01601f191660200182016040528015612e48576020820181803683370190505b509050818360208301375f612e5b613474565b6002810154604051632c027b1360e21b81529192506001600160a01b03169063b009ec4c90612e92908a9086908b906004016142bf565b6020604051808303815f875af1158015612eae573d5f5f3e3d5ffd5b505050506040513d601f19601f82011682018060405250810190612ed29190613f0b565b979650505050505050565b5f6002826003811115612ef257612ef2613cad565b612efc9190614349565b60ff166001149050919050565b5f5f5f612f168686613498565b91509150815f03612f3a57838181612f3057612f30614258565b0492505050610fdf565b818411612f5157612f5160038515026011186134b4565b5f848688095f868103871696879004966002600389028118808a02820302808a02820302808a02820302808a02820302808a02820302808a02909103029181900381900460010185841190960395909502919093039390930492909217029150509392505050565b5f5f612fc3613474565b600181015460405163196d0b9b60e01b81529192506001600160a01b03169063196d0b9b90612ffc90889033908990899060040161438a565b6020604051808303815f875af1158015613018573d5f5f3e3d5ffd5b505050506040513d601f19601f8201168201806040525081019061303c9190613f5e565b8154604051630f8e573b60e21b81529193506001600160a01b031690633e395cec9061306e90859033906004016143c2565b5f604051808303815f87803b158015613085575f5ffd5b505af1158015613097573d5f5f3e3d5ffd5b50505050509392505050565b5f6130ac613474565b8054604051635ca4b5b160e11b81529192506001600160a01b03169063b9496b62906130de90869086906004016143c2565b5f604051808303815f87803b1580156130f5575f5ffd5b505af1158015613107573d5f5f3e3d5ffd5b50505050505050565b5f610885826001600160801b031660066134c5565b5f5f82156131385750600160f81b61313b565b505f5b5f613144613474565b600181015460405163022f65e760e31b81529192506001600160a01b03169063117b2f389061317b908990899087906004016143d9565b6020604051808303815f875af1158015613197573d5f5f3e3d5ffd5b505050506040513d601f19601f820116820180604052508101906129cf9190613f5e565b5f5b8151811015610c3f576131f38282815181106131db576131db613ef7565b6020026020010151600b61354490919063ffffffff16565b61322b5781818151811061320957613209613ef7565b602002602001015160405163751dff9760e11b81526004016107a69190613b17565b6001016131bd565b5f82613245576132425f613110565b92505b81613256576132535f613110565b91505b610fdf83835f613558565b5f610fdf83835f6135ae565b5f808061327a6012611018565b90505f84600481111561328f5761328f613cad565b0361329f57809250829150613351565b60038460048111156132b3576132b3613cad565b036132c5576018549250829150613351565b60018460048111156132d9576132d9613cad565b036132f1576132e7816136b3565b9250809150613351565b600284600481111561330557613305613cad565b0361331d57613313816136b3565b9250829150613351565b600484600481111561333157613331613cad565b036133515760185461334b90613346836136b3565b6137d9565b92508291505b50915091565b5f9081526001919091016020526040902054151590565b5f610fdf83836137e8565b5f610fdf8383612a32565b5f610885825490565b5f610fdf83836137f3565b5f610fdf8383613819565b7f5ea69329017273582817d320489fbd94f775580e90c092699ca6f3d12fdf7d0090565b80515f9081805b82811015613468575f8582815181106133e9576133e9613ef7565b6020026020010151601e6020811061340357613403613ef7565b1a605381111561341557613415613cad565b9050600981605381111561342b5761342b613cad565b60ff1610156134465761343f602084613fad565b925061345f565b60405163ce54a8d160e01b815260040160405180910390fd5b506001016133ce565b506116ab602082613fad565b7fed8d60e34876f751cc8b014c560745351147d9de11b9347c854e881b128ea60090565b5f805f1983850993909202808410938190039390930393915050565b634e487b715f52806020526024601cfd5b5f5f6134cf613474565b6001810154604051639cd07acb60e01b81529192506001600160a01b031690639cd07acb9061350490879087906004016143f9565b6020604051808303815f875af1158015613520573d5f5f3e3d5ffd5b505050506040513d601f19601f820116820180604052508101906116ab9190613f5e565b5f610fdf836001600160a01b038416613357565b5f5f821561356b5750600160f81b61356e565b505f5b5f613577613474565b600181015460405163f77f3f1d60e01b81529192506001600160a01b03169063f77f3f1d9061317b908990899087906004016143d9565b5f5f6135b86133a3565b9050806001015491505f6135ca613474565b8054604051637d6e912360e11b81529192506001600160a01b03169063fadd2246906135fa90899060040161440d565b5f604051808303815f87803b158015613611575f5ffd5b505af1158015613623573d5f5f3e3d5ffd5b50508354604051633263b83b60e01b81526001600160a01b039091169250633263b83b9150869061365c9087908b908b9060040161441f565b5f604051808303818588803b158015613673575f5ffd5b505af1158015613685573d5f5f3e3d5ffd5b505050505061369483876138fc565b600182018054905f6136a583614450565b919050555050509392505050565b5f5f60085f9054906101000a90046001600160a01b03166001600160a01b031663f3cc69936040518163ffffffff1660e01b8152600401602060405180830381865afa158015613705573d5f5f3e3d5ffd5b505050506040513d601f19601f820116820180604052508101906137299190614468565b61ffff1690505f6137be60095f9054906101000a90046001600160a01b03166001600160a01b0316634ff0876a6040518163ffffffff1660e01b8152600401602060405180830381865afa158015613783573d5f5f3e3d5ffd5b505050506040513d601f19601f820116820180604052508101906137a7919061426c565b839063ffffffff908116906301e1338090612f0916565b90506116ab6137cf82612710613fad565b8590612710612f09565b5f828218828411028218610fdf565b5f610fdf8383613357565b5f825f01828154811061380857613808613ef7565b905f5260205f200154905092915050565b5f81815260018301602052604081205480156138f3575f61383b600183613fed565b85549091505f9061384e90600190613fed565b90508082146138ad575f865f01828154811061386c5761386c613ef7565b905f5260205f200154905080875f01848154811061388c5761388c613ef7565b5f918252602080832090910192909255918252600188019052604090208390555b85548690806138be576138be614483565b600190038181905f5260205f20015f90559055856001015f8681526020019081526020015f205f905560019350505050610885565b5f915050610885565b5f6139056133a3565b5f8481526002820160205260409020549091501561393657604051633f06d22b60e01b815260040160405180910390fd5b5f8381526002820160209081526040909120835161203e92850190613971565b5080545f8255905f5260205f2090810190610bc591906139b2565b828054828255905f5260205f209081019282156139aa579160200282015b828111156139aa57825182559160200191906001019061398f565b5061277c9291505b5b8082111561277c575f81556001016139b3565b5f5f83601f8401126139d6575f5ffd5b5081356001600160401b038111156139ec575f5ffd5b6020830191508360208260051b85010111156124db575f5ffd5b5f5f60208385031215613a17575f5ffd5b82356001600160401b03811115613a2c575f5ffd5b613a38858286016139c6565b90969095509350505050565b5f81518084528060208401602086015e5f602082860101526020601f19601f83011685010191505092915050565b602081525f610fdf6020830184613a44565b5f60208284031215613a94575f5ffd5b5035919050565b80356001600160a01b0381168114613ab1575f5ffd5b919050565b5f5f60408385031215613ac7575f5ffd5b613ad083613a9b565b946020939093013593505050565b5f60208284031215613aee575f5ffd5b610fdf82613a9b565b5f5f60408385031215613b08575f5ffd5b50508035926020909101359150565b6001600160a01b0391909116815260200190565b5f5f5f60608486031215613b3d575f5ffd5b613b4684613a9b565b9250613b5460208501613a9b565b929592945050506040919091013590565b60ff81168114610bc5575f5ffd5b61ffff81168114610bc5575f5ffd5b5f5f5f60608486031215613b94575f5ffd5b8335613b9f81613b65565b92506020840135613baf81613b73565b91506040840135613bbf81613b73565b809150509250925092565b5f8151808452602084019350602083015f5b82811015613c035781516001600160a01b0316865260209586019590910190600101613bdc565b5093949350505050565b602081525f610fdf6020830184613bca565b8015158114610bc5575f5ffd5b5f5f5f5f60608587031215613c3f575f5ffd5b843593506020850135613c5181613c1f565b925060408501356001600160401b03811115613c6b575f5ffd5b613c77878288016139c6565b95989497509550505050565b5f5f60408385031215613c94575f5ffd5b82359150613ca460208401613a9b565b90509250929050565b634e487b7160e01b5f52602160045260245ffd5b6080810160058610613cd557613cd5613cad565b94815261ffff93841660208201529190921660408201526060015290565b5f5f83601f840112613d03575f5ffd5b5081356001600160401b03811115613d19575f5ffd5b6020830191508360208260061b85010111156124db575f5ffd5b5f5f5f60408486031215613d45575f5ffd5b83356001600160401b03811115613d5a575f5ffd5b613d6686828701613cf3565b909790965060209590950135949350505050565b5f5f5f60608486031215613d8c575f5ffd5b8335925060208401359150604084013560048110613bbf575f5ffd5b5f5f5f60608486031215613dba575f5ffd5b83359250613dca60208501613a9b565b9150613dd860408501613a9b565b90509250925092565b604081525f613df36040830185613bca565b82810360208401528084518083526020830191506020860192505f5b81811015613e2d578351835260209384019390920191600101613e0f565b50909695505050505050565b5f5f5f5f60408587031215613e4c575f5ffd5b84356001600160401b03811115613e61575f5ffd5b613e6d87828801613cf3565b90955093505060208501356001600160401b03811115613e8b575f5ffd5b8501601f81018713613e9b575f5ffd5b80356001600160401b03811115613eb0575f5ffd5b876020828401011115613ec1575f5ffd5b949793965060200194505050565b5f5f60408385031215613ee0575f5ffd5b613ee983613a9b565b9150613ca460208401613a9b565b634e487b7160e01b5f52603260045260245ffd5b5f60208284031215613f1b575f5ffd5b8151610fdf81613c1f565b600181811c90821680613f3a57607f821691505b602082108103613f5857634e487b7160e01b5f52602260045260245ffd5b50919050565b5f60208284031215613f6e575f5ffd5b5051919050565b6001600160a01b039384168152919092166020820152604081019190915260600190565b634e487b7160e01b5f52601160045260245ffd5b8082018082111561088557610885613f99565b634e487b7160e01b5f52604160045260245ffd5b6001600160a01b03929092168252602082015260400190565b8181038181111561088557610885613f99565b6001815b600184111561403b5780850481111561401f5761401f613f99565b600184161561402d57908102905b60019390931c928002614004565b935093915050565b5f8261405157506001610885565b8161405d57505f610885565b8160018114614073576002811461407d57614099565b6001915050610885565b60ff84111561408e5761408e613f99565b50506001821b610885565b5060208310610133831016604e8410600b84101617156140bc575081810a610885565b6140c85f198484614000565b805f19048211156140db576140db613f99565b029392505050565b5f610fdf60ff841683614043565b604051601f8201601f191681016001600160401b038111828210171561411957614119613fc0565b604052919050565b5f6001600160401b0383111561413957614139613fc0565b8260051b614149602082016140f1565b84815290830190602081019036831115614161575f5ffd5b845b838110156141f95780356001600160401b03811115614180575f5ffd5b860136601f820112614190575f5ffd5b80356001600160401b038111156141a9576141a9613fc0565b6141bc601f8201601f19166020016140f1565b8181523660208385010111156141d0575f5ffd5b816020840160208301375f60208383010152808652505050602083019250602081019050614163565b5095945050505050565b6001600160a01b039390931683526020830191909152604082015260600190565b5f60208284031215614234575f5ffd5b8151610fdf81613b65565b60ff828116828216039081111561088557610885613f99565b634e487b7160e01b5f52601260045260245ffd5b5f6020828403121561427c575f5ffd5b815163ffffffff81168114610fdf575f5ffd5b5f8151808452602084019350602083015f5b82811015613c035781518652602095860195909101906001016142a1565b606081525f6142d1606083018661428f565b82810360208401526142e38186613a44565b9050828103604084015280845180835260208301915060208160051b840101602087015f5b8381101561433a57601f19868403018552614324838351613a44565b6020958601959093509190910190600101614308565b50909998505050505050505050565b5f60ff83168061436757634e487b7160e01b5f52601260045260245ffd5b8060ff84160691505092915050565b6054811061438657614386613cad565b9052565b8481526001600160a01b03841660208201526080604082018190525f906143b390830185613a44565b905061241e6060830184614376565b9182526001600160a01b0316602082015260400190565b92835260208301919091526001600160f81b031916604082015260600190565b82815260408101610fdf6020830184614376565b602081525f610fdf602083018461428f565b838152606060208201525f614437606083018561428f565b905063ffffffff60e01b83166040830152949350505050565b5f6001820161446157614461613f99565b5060010190565b5f60208284031215614478575f5ffd5b8151610fdf81613b73565b634e487b7160e01b5f52603160045260245ffdfea264697066735822122085657770283d1bf5f128d46165da5f306208e41ce40484034756b543f68c5d8064736f6c634300081c0033ed8d60e34876f751cc8b014c560745351147d9de11b9347c854e881b128ea600ed8d60e34876f751cc8b014c560745351147d9de11b9347c854e881b128ea601a2646970667358221220f6a815b7ffce20052fc196aba62231dea4ab51595b64a0b26c56deae85bf579564736f6c634300081c0033",
  "linkReferences": {},
  "deployedLinkReferences": {}
}