{
  "_format": "hh-sol-artifact-1",
  "contractName": "LiquidityOrchestrator",
  "sourceName": "contracts/orchestrators/LiquidityOrchestrator.sol",
  "abi": [
    {
      "inputs": [],
      "name": "AdapterNotSet",
      "type": "error"
    },
    {
      "inputs": [
        {
          "internalType": "address",
          "name": "target",
          "type": "address"
        }
      ],
      "name": "AddressEmptyCode",
      "type": "error"
    },
    {
      "inputs": [
        {
          "internalType": "address",
          "name": "implementation",
          "type": "address"
        }
      ],
      "name": "ERC1967InvalidImplementation",
      "type": "error"
    },
    {
      "inputs": [],
      "name": "ERC1967NonPayable",
      "type": "error"
    },
    {
      "inputs": [],
      "name": "FailedCall",
      "type": "error"
    },
    {
      "inputs": [],
      "name": "InvalidInitialization",
      "type": "error"
    },
    {
      "inputs": [],
      "name": "NotAuthorized",
      "type": "error"
    },
    {
      "inputs": [],
      "name": "NotInitializing",
      "type": "error"
    },
    {
      "inputs": [
        {
          "internalType": "address",
          "name": "owner",
          "type": "address"
        }
      ],
      "name": "OwnableInvalidOwner",
      "type": "error"
    },
    {
      "inputs": [
        {
          "internalType": "address",
          "name": "account",
          "type": "address"
        }
      ],
      "name": "OwnableUnauthorizedAccount",
      "type": "error"
    },
    {
      "inputs": [],
      "name": "TransferFailed",
      "type": "error"
    },
    {
      "inputs": [],
      "name": "UUPSUnauthorizedCallContext",
      "type": "error"
    },
    {
      "inputs": [
        {
          "internalType": "bytes32",
          "name": "slot",
          "type": "bytes32"
        }
      ],
      "name": "UUPSUnsupportedProxiableUUID",
      "type": "error"
    },
    {
      "inputs": [],
      "name": "ZeroAddress",
      "type": "error"
    },
    {
      "anonymous": false,
      "inputs": [
        {
          "indexed": true,
          "internalType": "address",
          "name": "asset",
          "type": "address"
        },
        {
          "indexed": true,
          "internalType": "address",
          "name": "adapter",
          "type": "address"
        }
      ],
      "name": "AdapterSet",
      "type": "event"
    },
    {
      "anonymous": false,
      "inputs": [
        {
          "indexed": true,
          "internalType": "address",
          "name": "newAutomationRegistry",
          "type": "address"
        }
      ],
      "name": "AutomationRegistryUpdated",
      "type": "event"
    },
    {
      "anonymous": false,
      "inputs": [
        {
          "indexed": false,
          "internalType": "uint64",
          "name": "version",
          "type": "uint64"
        }
      ],
      "name": "Initialized",
      "type": "event"
    },
    {
      "anonymous": false,
      "inputs": [
        {
          "indexed": true,
          "internalType": "address",
          "name": "previousOwner",
          "type": "address"
        },
        {
          "indexed": true,
          "internalType": "address",
          "name": "newOwner",
          "type": "address"
        }
      ],
      "name": "OwnershipTransferStarted",
      "type": "event"
    },
    {
      "anonymous": false,
      "inputs": [
        {
          "indexed": true,
          "internalType": "address",
          "name": "previousOwner",
          "type": "address"
        },
        {
          "indexed": true,
          "internalType": "address",
          "name": "newOwner",
          "type": "address"
        }
      ],
      "name": "OwnershipTransferred",
      "type": "event"
    },
    {
      "anonymous": false,
      "inputs": [],
      "name": "PortfolioRebalanced",
      "type": "event"
    },
    {
      "anonymous": false,
      "inputs": [
        {
          "indexed": true,
          "internalType": "address",
          "name": "implementation",
          "type": "address"
        }
      ],
      "name": "Upgraded",
      "type": "event"
    },
    {
      "inputs": [],
      "name": "UPGRADE_INTERFACE_VERSION",
      "outputs": [
        {
          "internalType": "string",
          "name": "",
          "type": "string"
        }
      ],
      "stateMutability": "view",
      "type": "function"
    },
    {
      "inputs": [],
      "name": "acceptOwnership",
      "outputs": [],
      "stateMutability": "nonpayable",
      "type": "function"
    },
    {
      "inputs": [],
      "name": "automationRegistry",
      "outputs": [
        {
          "internalType": "address",
          "name": "",
          "type": "address"
        }
      ],
      "stateMutability": "view",
      "type": "function"
    },
    {
      "inputs": [
        {
          "internalType": "bytes",
          "name": "",
          "type": "bytes"
        }
      ],
      "name": "checkUpkeep",
      "outputs": [
        {
          "internalType": "bool",
          "name": "upkeepNeeded",
          "type": "bool"
        },
        {
          "internalType": "bytes",
          "name": "performData",
          "type": "bytes"
        }
      ],
      "stateMutability": "view",
      "type": "function"
    },
    {
      "inputs": [],
      "name": "config",
      "outputs": [
        {
          "internalType": "contract IOrionConfig",
          "name": "",
          "type": "address"
        }
      ],
      "stateMutability": "view",
      "type": "function"
    },
    {
      "inputs": [
        {
          "internalType": "address",
          "name": "",
          "type": "address"
        }
      ],
      "name": "executionAdapterOf",
      "outputs": [
        {
          "internalType": "contract IExecutionAdapter",
          "name": "",
          "type": "address"
        }
      ],
      "stateMutability": "view",
      "type": "function"
    },
    {
      "inputs": [
        {
          "internalType": "address",
          "name": "initialOwner",
          "type": "address"
        },
        {
          "internalType": "address",
          "name": "automationRegistry_",
          "type": "address"
        },
        {
          "internalType": "address",
          "name": "config_",
          "type": "address"
        }
      ],
      "name": "initialize",
      "outputs": [],
      "stateMutability": "nonpayable",
      "type": "function"
    },
    {
      "inputs": [],
      "name": "internalStatesOrchestrator",
      "outputs": [
        {
          "internalType": "contract IInternalStateOrchestrator",
          "name": "",
          "type": "address"
        }
      ],
      "stateMutability": "view",
      "type": "function"
    },
    {
      "inputs": [],
      "name": "lastProcessedEpoch",
      "outputs": [
        {
          "internalType": "uint256",
          "name": "",
          "type": "uint256"
        }
      ],
      "stateMutability": "view",
      "type": "function"
    },
    {
      "inputs": [],
      "name": "owner",
      "outputs": [
        {
          "internalType": "address",
          "name": "",
          "type": "address"
        }
      ],
      "stateMutability": "view",
      "type": "function"
    },
    {
      "inputs": [],
      "name": "pendingOwner",
      "outputs": [
        {
          "internalType": "address",
          "name": "",
          "type": "address"
        }
      ],
      "stateMutability": "view",
      "type": "function"
    },
    {
      "inputs": [
        {
          "internalType": "bytes",
          "name": "",
          "type": "bytes"
        }
      ],
      "name": "performUpkeep",
      "outputs": [],
      "stateMutability": "nonpayable",
      "type": "function"
    },
    {
      "inputs": [],
      "name": "proxiableUUID",
      "outputs": [
        {
          "internalType": "bytes32",
          "name": "",
          "type": "bytes32"
        }
      ],
      "stateMutability": "view",
      "type": "function"
    },
    {
      "inputs": [],
      "name": "renounceOwnership",
      "outputs": [],
      "stateMutability": "nonpayable",
      "type": "function"
    },
    {
      "inputs": [
        {
          "internalType": "address",
          "name": "user",
          "type": "address"
        },
        {
          "internalType": "uint256",
          "name": "amount",
          "type": "uint256"
        }
      ],
      "name": "returnDepositFunds",
      "outputs": [],
      "stateMutability": "nonpayable",
      "type": "function"
    },
    {
      "inputs": [
        {
          "internalType": "address",
          "name": "user",
          "type": "address"
        },
        {
          "internalType": "uint256",
          "name": "shares",
          "type": "uint256"
        }
      ],
      "name": "returnWithdrawShares",
      "outputs": [],
      "stateMutability": "nonpayable",
      "type": "function"
    },
    {
      "inputs": [
        {
          "internalType": "address",
          "name": "asset",
          "type": "address"
        },
        {
          "internalType": "contract IExecutionAdapter",
          "name": "adapter",
          "type": "address"
        }
      ],
      "name": "setAdapter",
      "outputs": [],
      "stateMutability": "nonpayable",
      "type": "function"
    },
    {
      "inputs": [
        {
          "internalType": "address",
          "name": "newOwner",
          "type": "address"
        }
      ],
      "name": "transferOwnership",
      "outputs": [],
      "stateMutability": "nonpayable",
      "type": "function"
    },
    {
      "inputs": [
        {
          "internalType": "address",
          "name": "newAutomationRegistry",
          "type": "address"
        }
      ],
      "name": "updateAutomationRegistry",
      "outputs": [],
      "stateMutability": "nonpayable",
      "type": "function"
    },
    {
      "inputs": [
        {
          "internalType": "address",
          "name": "newConfig",
          "type": "address"
        }
      ],
      "name": "updateConfig",
      "outputs": [],
      "stateMutability": "nonpayable",
      "type": "function"
    },
    {
      "inputs": [
        {
          "internalType": "address",
          "name": "newImplementation",
          "type": "address"
        },
        {
          "internalType": "bytes",
          "name": "data",
          "type": "bytes"
        }
      ],
      "name": "upgradeToAndCall",
      "outputs": [],
      "stateMutability": "payable",
      "type": "function"
    }
  ],
  "bytecode": "0x60a06040523073ffffffffffffffffffffffffffffffffffffffff1660809073ffffffffffffffffffffffffffffffffffffffff168152503480156041575f5ffd5b5060805161450f6100685f395f8181612f1301528181612f68015261315e015261450f5ff3fe608060405260043610610129575f3560e01c806379502c55116100aa578063be186b201161006e578063be186b2014610376578063c0c53b8b1461039e578063d3f3506d146103c6578063e30c397814610402578063ee6713df1461042c578063f2fde38b1461045657610129565b806379502c55146102ba57806379ba5097146102e45780638da5cb5b146102fa578063ad3cb1cc14610324578063ba59b4ca1461034e57610129565b806352d1902d116100f157806352d1902d146101eb5780635dc228a0146102155780636cc919c81461023f5780636e04ff0d14610267578063715018a6146102a457610129565b806314b5d07f1461012d578063348ec5c8146101555780634585e33b1461017f5780634f1ef286146101a757806351edffb1146101c3575b5f5ffd5b348015610138575f5ffd5b50610153600480360381019061014e9190613824565b61047e565b005b348015610160575f5ffd5b50610169610638565b60405161017691906138aa565b60405180910390f35b34801561018a575f5ffd5b506101a560048036038101906101a09190613924565b61065d565b005b6101c160048036038101906101bc9190613aa7565b611531565b005b3480156101ce575f5ffd5b506101e960048036038101906101e49190613b34565b611550565b005b3480156101f6575f5ffd5b506101ff61184e565b60405161020c9190613b8a565b60405180910390f35b348015610220575f5ffd5b5061022961187f565b6040516102369190613bb2565b60405180910390f35b34801561024a575f5ffd5b5061026560048036038101906102609190613824565b6118a3565b005b348015610272575f5ffd5b5061028d60048036038101906102889190613924565b6119f3565b60405161029b929190613c45565b60405180910390f35b3480156102af575f5ffd5b506102b8611b0b565b005b3480156102c5575f5ffd5b506102ce611b1e565b6040516102db9190613c93565b60405180910390f35b3480156102ef575f5ffd5b506102f8611b43565b005b348015610305575f5ffd5b5061030e611bd1565b60405161031b9190613bb2565b60405180910390f35b34801561032f575f5ffd5b50610338611c06565b6040516103459190613cfe565b60405180910390f35b348015610359575f5ffd5b50610374600480360381019061036f9190613d59565b611c3f565b005b348015610381575f5ffd5b5061039c60048036038101906103979190613b34565b611ebc565b005b3480156103a9575f5ffd5b506103c460048036038101906103bf9190613d97565b61214e565b005b3480156103d1575f5ffd5b506103ec60048036038101906103e79190613824565b6126a2565b6040516103f99190613e07565b60405180910390f35b34801561040d575f5ffd5b506104166126d2565b6040516104239190613bb2565b60405180910390f35b348015610437575f5ffd5b50610440612707565b60405161044d9190613e2f565b60405180910390f35b348015610461575f5ffd5b5061047c60048036038101906104779190613824565b61270d565b005b610492679d8720e882d5493a60c01b6127c6565b61049a6127c9565b6104ae6799da8b67084c401c60c01b6127c6565b6104c26769e73ab3343e2ae060c01b6127c6565b6104d667304c2e5b8efe588860c01b6127c6565b6104ea6728ff4254da77d9dd60c01b6127c6565b5f73ffffffffffffffffffffffffffffffffffffffff168173ffffffffffffffffffffffffffffffffffffffff160361056357610531676469eeebae4b616960c01b6127c6565b6040517fd92e233d00000000000000000000000000000000000000000000000000000000815260040160405180910390fd5b61057767d029d1d1002e84c660c01b6127c6565b61058b67b41fc54a5c80d5c960c01b6127c6565b805f5f6101000a81548173ffffffffffffffffffffffffffffffffffffffff021916908373ffffffffffffffffffffffffffffffffffffffff1602179055506105de67cb656cb89ce17e7560c01b6127c6565b6105f267cb7e04782056064560c01b6127c6565b8073ffffffffffffffffffffffffffffffffffffffff167f6cc7ebdb6c8c53291c5ae16148cab9b049d23bf5bde5632900b40edff56fcb4360405160405180910390a250565b60025f9054906101000a900473ffffffffffffffffffffffffffffffffffffffff1681565b6106716754055aa2a4b5d4b760c01b6127c6565b6106856732ad6595dbb197cc60c01b6127c6565b610699676baaa8e7766931f760c01b6127c6565b6106ad67e0415f93cd2c7e7f60c01b6127c6565b5f5f9054906101000a900473ffffffffffffffffffffffffffffffffffffffff1673ffffffffffffffffffffffffffffffffffffffff163373ffffffffffffffffffffffffffffffffffffffff16146107465761071467c9ac6109c08a6f1860c01b6127c6565b6040517fea8e4eb500000000000000000000000000000000000000000000000000000000815260040160405180910390fd5b61075a67ce861a48e981d2ee60c01b6127c6565b61076e6774d2882fce6c2b1460c01b6127c6565b61078267909dff9bedb4a03460c01b6127c6565b610796675e4718ceaf96ef9760c01b6127c6565b6107aa67b920b3f13dec323660c01b6127c6565b6107be67aadde620a6d472f860c01b6127c6565b5f60025f9054906101000a900473ffffffffffffffffffffffffffffffffffffffff1673ffffffffffffffffffffffffffffffffffffffff166314b19c5a6040518163ffffffff1660e01b8152600401602060405180830381865afa158015610829573d5f5f3e3d5ffd5b505050506040513d601f19601f8201168201806040525081019061084d9190613e5c565b9050610863675339083248e5b1c160c01b6127c6565b6108776706b47d8720a806bf60c01b6127c6565b60045481116108c25761089467dc08ba5c8cf1adcc60c01b6127c6565b6108a8673173f1ca17cebae260c01b6127c6565b6108bc675518fddd3d2c093160c01b6127c6565b5061152d565b6108d667baf03d1f0ad9382160c01b6127c6565b6108ea676512da865102bf9160c01b6127c6565b8060048190555061090567fc7ce05fca2f95b360c01b6127c6565b61091967cbac3226171ad88260c01b6127c6565b5f60015f9054906101000a900473ffffffffffffffffffffffffffffffffffffffff1673ffffffffffffffffffffffffffffffffffffffff16637158da7c6040518163ffffffff1660e01b8152600401602060405180830381865afa158015610984573d5f5f3e3d5ffd5b505050506040513d601f19601f820116820180604052508101906109a89190613ec2565b90506109be67c7d5887c884492f960c01b6127c6565b6109d267a4d54896c1d8a4f660c01b6127c6565b5f8173ffffffffffffffffffffffffffffffffffffffff166370a08231306040518263ffffffff1660e01b8152600401610a0c9190613bb2565b602060405180830381865afa158015610a27573d5f5f3e3d5ffd5b505050506040513d601f19601f82011682018060405250810190610a4b9190613e5c565b9050610a61679959d8ce58a2585960c01b6127c6565b610a7567d0bb44fb478fe68160c01b6127c6565b5f5f60025f9054906101000a900473ffffffffffffffffffffffffffffffffffffffff1673ffffffffffffffffffffffffffffffffffffffff1663c2cb5d886040518163ffffffff1660e01b81526004015f60405180830381865afa158015610ae0573d5f5f3e3d5ffd5b505050506040513d5f823e3d601f19601f82011682018060405250810190610b089190614081565b91509150610b20679a5a9374800d3b9c60c01b6127c6565b610b34679e56a4c20cb6293560c01b6127c6565b5f5f90505b8251811015610c0f57610b566792eaec7a66e7831b60c01b6127c6565b610b6a675156d1526b8c6f9860c01b6127c6565b5f838281518110610b7e57610b7d6140f7565b5b60200260200101519050610b9c67109f15d90efbb7ec60c01b6127c6565b610bb06794bac5823990899160c01b6127c6565b5f838381518110610bc457610bc36140f7565b5b60200260200101519050610be267d8249ea2db94b3b760c01b6127c6565b610bf6671e63f84026e93f6460c01b6127c6565b610c008282612850565b50508080600101915050610b39565b50610c2467dcdae4384f5bbb7d60c01b6127c6565b610c386713586efe43fcb2a060c01b6127c6565b5f8473ffffffffffffffffffffffffffffffffffffffff166370a08231306040518263ffffffff1660e01b8152600401610c729190613bb2565b602060405180830381865afa158015610c8d573d5f5f3e3d5ffd5b505050506040513d601f19601f82011682018060405250810190610cb19190613e5c565b9050610cc767bee180b90c46f2a660c01b6127c6565b610cdb67ee12831748bfb56760c01b6127c6565b5f8482610ce89190614151565b9050610cfe6787839c1ead99662260c01b6127c6565b610d126735917d2fed59f00460c01b6127c6565b5f60025f9054906101000a900473ffffffffffffffffffffffffffffffffffffffff1673ffffffffffffffffffffffffffffffffffffffff166306cce8486040518163ffffffff1660e01b8152600401602060405180830381865afa158015610d7d573d5f5f3e3d5ffd5b505050506040513d601f19601f82011682018060405250810190610da19190613e5c565b9050610db767632e8a43594d27e160c01b6127c6565b610dcb67f6b631b87d5a2ec560c01b6127c6565b5f8183610dd89190614151565b9050610dee67989be1028bff1f1060c01b6127c6565b610e02677286932e13a5c1aa60c01b6127c6565b5f60025f9054906101000a900473ffffffffffffffffffffffffffffffffffffffff1673ffffffffffffffffffffffffffffffffffffffff16634a1d96256040518163ffffffff1660e01b8152600401602060405180830381865afa158015610e6d573d5f5f3e3d5ffd5b505050506040513d601f19601f82011682018060405250810190610e919190613e5c565b9050610ea7672283459919aa4ccd60c01b6127c6565b610ebb67c03219508cea3ba560c01b6127c6565b5f670de0b6b3a76400009050610edb6726393f05687d623660c01b6127c6565b610eef67ff295366a820f7e760c01b6127c6565b5f821115610f5857610f0b677d5d7d571ad2c84160c01b6127c6565b610f1f67b0d1d26150a7a76760c01b6127c6565b81670de0b6b3a764000084610f349190614184565b610f3e91906141f2565b670de0b6b3a7640000610f519190614222565b9050610f6d565b610f6c67d51298100350abc160c01b6127c6565b5b610f81677b912237d6658d6360c01b6127c6565b610f95671b3e6901cc4ddfd760c01b6127c6565b5f5f60025f9054906101000a900473ffffffffffffffffffffffffffffffffffffffff1673ffffffffffffffffffffffffffffffffffffffff1663a08b82d76040518163ffffffff1660e01b81526004015f60405180830381865afa158015611000573d5f5f3e3d5ffd5b505050506040513d5f823e3d601f19601f820116820180604052508101906110289190614081565b9150915061104067bfe518c12ef2d20760c01b6127c6565b61105467ddecf56d8fcb1fe360c01b6127c6565b5f5f90505b82518110156110db5761107667f5dd2f4bbdc9290760c01b6127c6565b670de0b6b3a764000084838381518110611093576110926140f7565b5b60200260200101516110a59190614184565b6110af91906141f2565b8282815181106110c2576110c16140f7565b5b6020026020010181815250508080600101915050611059565b506110f0679468cc0114fde12660c01b6127c6565b6111046723c9c420d578c11c60c01b6127c6565b5f5f90505b82518110156111df5761112667c8983681e549774660c01b6127c6565b61113a67084658b62fbd7d0a60c01b6127c6565b5f83828151811061114e5761114d6140f7565b5b6020026020010151905061116c67a4872a41048d2be760c01b6127c6565b6111806778515a05e519032f60c01b6127c6565b5f838381518110611194576111936140f7565b5b602002602001015190506111b267cde23a0e1351120860c01b6127c6565b6111c6676507b808da82a62c60c01b6127c6565b6111d08282612b64565b50508080600101915050611109565b506111f467d70129b1af2347a460c01b6127c6565b611208679d5b9b6e1c298e2860c01b6127c6565b5f60015f9054906101000a900473ffffffffffffffffffffffffffffffffffffffff1673ffffffffffffffffffffffffffffffffffffffff1663ed04f2185f6040518263ffffffff1660e01b815260040161126391906142c8565b5f60405180830381865afa15801561127d573d5f5f3e3d5ffd5b505050506040513d5f823e3d601f19601f820116820180604052508101906112a591906142e1565b90506112bb672c4c2dba6191701d60c01b6127c6565b6112cf67a9fdb625b1e98d3e60c01b6127c6565b5f815190506112e8671b5d19f3b173a28d60c01b6127c6565b6112fc6709d1411b67b3462b60c01b6127c6565b5f5f90505b8181101561135d5761131d671975229871124b7860c01b6127c6565b6113316705e874e841ebdc2a60c01b6127c6565b5f838281518110611345576113446140f7565b5b60200260200101519050508080600101915050611301565b5061137267d6d47d3d699f327d60c01b6127c6565b61138667cdd127b5872fe0e860c01b6127c6565b5f60015f9054906101000a900473ffffffffffffffffffffffffffffffffffffffff1673ffffffffffffffffffffffffffffffffffffffff1663ed04f21860016040518263ffffffff1660e01b81526004016113e291906142c8565b5f60405180830381865afa1580156113fc573d5f5f3e3d5ffd5b505050506040513d5f823e3d601f19601f8201168201806040525081019061142491906142e1565b905061143a674ae0b901de0039de60c01b6127c6565b8051915061145267da7d99a3ecfed14860c01b6127c6565b611466675983eaf96767f22e60c01b6127c6565b5f5f90505b828110156114c757611487677c5c5e5e50cb905a60c01b6127c6565b61149b6780af8f6d0f47fd0760c01b6127c6565b5f8282815181106114af576114ae6140f7565b5b6020026020010151905050808060010191505061146b565b506114dc67f59608f97bcdbc1960c01b6127c6565b6114f067ed71bbd372a3dad560c01b6127c6565b7ff0094b59b7bc92e9fc611b14b5d3a34fe02530ac9bcf36c2c6f10147c3030c1260405160405180910390a1505050505050505050505050505050505b5050565b611539612f11565b61154282612ff7565b61154c828261303e565b5050565b61156467a866bead78f6d32360c01b6127c6565b6115786787042161517aaa7060c01b6127c6565b61158c67e288bb63c93435c860c01b6127c6565b60015f9054906101000a900473ffffffffffffffffffffffffffffffffffffffff1673ffffffffffffffffffffffffffffffffffffffff1663e0876b44336040518263ffffffff1660e01b81526004016115e69190613bb2565b602060405180830381865afa158015611601573d5f5f3e3d5ffd5b505050506040513d601f19601f820116820180604052508101906116259190614352565b61166f5761163d67c5d44cbbbc66776660c01b6127c6565b6040517fea8e4eb500000000000000000000000000000000000000000000000000000000815260040160405180910390fd5b6116836775e659507a0e21e160c01b6127c6565b61169767eeaf3820596a3ae360c01b6127c6565b6116ab6722f71de1c344a32460c01b6127c6565b5f3373ffffffffffffffffffffffffffffffffffffffff166338d52e0f6040518163ffffffff1660e01b8152600401602060405180830381865afa1580156116f5573d5f5f3e3d5ffd5b505050506040513d601f19601f82011682018060405250810190611719919061437d565b905061172f673378b4b24fd2b3da60c01b6127c6565b611743674bb55cc234ffaa5860c01b6127c6565b5f8173ffffffffffffffffffffffffffffffffffffffff1663a9059cbb85856040518363ffffffff1660e01b815260040161177f9291906143a8565b6020604051808303815f875af115801561179b573d5f5f3e3d5ffd5b505050506040513d601f19601f820116820180604052508101906117bf9190614352565b90506117d567dfc73fc2ff55b01560c01b6127c6565b6117e967a7a7815b6027658e60c01b6127c6565b8061183457611802679bf0d37d37418d1060c01b6127c6565b6040517f90b8ec1800000000000000000000000000000000000000000000000000000000815260040160405180910390fd5b6118486753d86807fe8f1def60c01b6127c6565b50505050565b5f61185761315c565b7f360894a13ba1a3210667c828492db98dca3e2076cc3735a920a3ca505d382bbc5f1b905090565b5f5f9054906101000a900473ffffffffffffffffffffffffffffffffffffffff1681565b6118b767878fabc79632ed9760c01b6127c6565b6118bf6127c9565b6118d367bcdf75bccfbec25360c01b6127c6565b6118e7674fea2f409545a3d760c01b6127c6565b6118fb6738937d9184ffcb2e60c01b6127c6565b61190f6704d26b4d62ffb74160c01b6127c6565b5f73ffffffffffffffffffffffffffffffffffffffff168173ffffffffffffffffffffffffffffffffffffffff1603611988576119566706853675f4a9f8db60c01b6127c6565b6040517fd92e233d00000000000000000000000000000000000000000000000000000000815260040160405180910390fd5b61199c670d61ec3c7b63883160c01b6127c6565b6119b0676cc2c157ab3334c160c01b6127c6565b8060015f6101000a81548173ffffffffffffffffffffffffffffffffffffffff021916908373ffffffffffffffffffffffffffffffffffffffff16021790555050565b5f6060611a0a675a7fa3fa2cc851c260c01b6127c6565b611a1e67779b9d35d541b25360c01b6127c6565b611a3267b5034513aaf60de660c01b6127c6565b5f60025f9054906101000a900473ffffffffffffffffffffffffffffffffffffffff1673ffffffffffffffffffffffffffffffffffffffff166314b19c5a6040518163ffffffff1660e01b8152600401602060405180830381865afa158015611a9d573d5f5f3e3d5ffd5b505050506040513d601f19601f82011682018060405250810190611ac19190613e5c565b9050611ad7674a59a5ab05ff93bc60c01b6127c6565b60045481119250611af2676e8a63b2cafb57e660c01b6127c6565b60405180602001604052805f8152509150509250929050565b611b136127c9565b611b1c5f6131e3565b565b60015f9054906101000a900473ffffffffffffffffffffffffffffffffffffffff1681565b5f611b4c613220565b90508073ffffffffffffffffffffffffffffffffffffffff16611b6d6126d2565b73ffffffffffffffffffffffffffffffffffffffff1614611bc557806040517f118cdaa7000000000000000000000000000000000000000000000000000000008152600401611bbc9190613bb2565b60405180910390fd5b611bce816131e3565b50565b5f5f611bdb613227565b9050805f015f9054906101000a900473ffffffffffffffffffffffffffffffffffffffff1691505090565b6040518060400160405280600581526020017f352e302e3000000000000000000000000000000000000000000000000000000081525081565b611c53678806eb3fd7cf589d60c01b6127c6565b611c5b6127c9565b611c6f6740f2ffce892806d160c01b6127c6565b611c83676a468081e04cf48960c01b6127c6565b611c9767b74a01e5633b3a9460c01b6127c6565b611cab674e8c8d117067098b60c01b6127c6565b5f73ffffffffffffffffffffffffffffffffffffffff168273ffffffffffffffffffffffffffffffffffffffff16148015611cf65750611cf5671c41e4475df1b01060c01b61324e565b5b80611d4857505f73ffffffffffffffffffffffffffffffffffffffff168173ffffffffffffffffffffffffffffffffffffffff16148015611d475750611d4667eeeaf1feea3ff49960c01b61324e565b5b5b15611d9357611d616798bf1c796d8f462d60c01b6127c6565b6040517fd92e233d00000000000000000000000000000000000000000000000000000000815260040160405180910390fd5b611da767040b6bb50689394060c01b6127c6565b611dbb67960dcfa5c31487e060c01b6127c6565b8060035f8473ffffffffffffffffffffffffffffffffffffffff1673ffffffffffffffffffffffffffffffffffffffff1681526020019081526020015f205f6101000a81548173ffffffffffffffffffffffffffffffffffffffff021916908373ffffffffffffffffffffffffffffffffffffffff160217905550611e4a67068efd6228415ca960c01b6127c6565b611e5e67897349085abeeb8b60c01b6127c6565b8073ffffffffffffffffffffffffffffffffffffffff168273ffffffffffffffffffffffffffffffffffffffff167fe5e39617beb2a298b9fa1c3928582d9a96ba7ef7c920acd1117d1d415568670a60405160405180910390a35050565b611ed067cb8b42b034054d5360c01b6127c6565b611ee467ebb4839c5b4a64c660c01b6127c6565b611ef8676c5d3fc08118708260c01b6127c6565b60015f9054906101000a900473ffffffffffffffffffffffffffffffffffffffff1673ffffffffffffffffffffffffffffffffffffffff1663e0876b44336040518263ffffffff1660e01b8152600401611f529190613bb2565b602060405180830381865afa158015611f6d573d5f5f3e3d5ffd5b505050506040513d601f19601f82011682018060405250810190611f919190614352565b611fdb57611fa967d27648120eea146760c01b6127c6565b6040517fea8e4eb500000000000000000000000000000000000000000000000000000000815260040160405180910390fd5b611fef672676e5e9c7f14b8f60c01b6127c6565b612003676ac74f95f85cff8860c01b6127c6565b61201767b57fef1012e11d3d60c01b6127c6565b5f33905061202f673fc9be62d6fb708260c01b6127c6565b61204367d6eccd0380616cf060c01b6127c6565b5f8173ffffffffffffffffffffffffffffffffffffffff1663a9059cbb85856040518363ffffffff1660e01b815260040161207f9291906143a8565b6020604051808303815f875af115801561209b573d5f5f3e3d5ffd5b505050506040513d601f19601f820116820180604052508101906120bf9190614352565b90506120d5670c425ef34d133f2760c01b6127c6565b6120e967a44b435f1cd3012460c01b6127c6565b806121345761210267a46dfc5d041717ee60c01b6127c6565b6040517f90b8ec1800000000000000000000000000000000000000000000000000000000815260040160405180910390fd5b612148670a918bc7c76229d560c01b6127c6565b50505050565b61216267f77a9c5a2cde18b960c01b6127c6565b5f61216b613258565b90505f815f0160089054906101000a900460ff161590505f825f015f9054906101000a900467ffffffffffffffff1690505f5f8267ffffffffffffffff161480156121b35750825b90505f60018367ffffffffffffffff161480156121e657505f3073ffffffffffffffffffffffffffffffffffffffff163b145b9050811580156121f4575080155b1561222b576040517ff92ee8a900000000000000000000000000000000000000000000000000000000815260040160405180910390fd5b6001855f015f6101000a81548167ffffffffffffffff021916908367ffffffffffffffff1602179055508315612278576001855f0160086101000a81548160ff0219169083151502179055505b61228c67c3c4edf601b04c3160c01b6127c6565b6122a067d971734311776d8560c01b6127c6565b6122b4678071e07ee92c3d8360c01b6127c6565b6122c8674b4bd3b7a1b7f50560c01b6127c6565b6122d18861326b565b6122e56797bfdb75683b452360c01b6127c6565b6122f9677d0e1ee35d9178ff60c01b6127c6565b61230161327f565b61231567ffc162951ed8ee3360c01b6127c6565b61232967e000eee20d0c8adf60c01b6127c6565b612331613289565b61234567797d098a1a51db9160c01b6127c6565b6123596759697f24299c933260c01b6127c6565b5f73ffffffffffffffffffffffffffffffffffffffff168773ffffffffffffffffffffffffffffffffffffffff16036123d2576123a0670630e53da2195c7960c01b6127c6565b6040517fd92e233d00000000000000000000000000000000000000000000000000000000815260040160405180910390fd5b6123e66772559ac37f611a6d60c01b6127c6565b6123fa678e29eb4a05b9008e60c01b6127c6565b61240e670329bb434439ea1460c01b6127c6565b5f73ffffffffffffffffffffffffffffffffffffffff168673ffffffffffffffffffffffffffffffffffffffff1603612487576124556710f2dd43efdad7b960c01b6127c6565b6040517fd92e233d00000000000000000000000000000000000000000000000000000000815260040160405180910390fd5b61249b679069dde3c7f5f7e460c01b6127c6565b6124af6712e0356a3f568cdb60c01b6127c6565b865f5f6101000a81548173ffffffffffffffffffffffffffffffffffffffff021916908373ffffffffffffffffffffffffffffffffffffffff160217905550612502679f18340a047d895360c01b6127c6565b8560015f6101000a81548173ffffffffffffffffffffffffffffffffffffffff021916908373ffffffffffffffffffffffffffffffffffffffff16021790555061255667800e0bf38ad4a49960c01b6127c6565b60015f9054906101000a900473ffffffffffffffffffffffffffffffffffffffff1673ffffffffffffffffffffffffffffffffffffffff1663348ec5c86040518163ffffffff1660e01b8152600401602060405180830381865afa1580156125c0573d5f5f3e3d5ffd5b505050506040513d601f19601f820116820180604052508101906125e4919061437d565b60025f6101000a81548173ffffffffffffffffffffffffffffffffffffffff021916908373ffffffffffffffffffffffffffffffffffffffff16021790555061263767a06d3062f1e8191e60c01b6127c6565b5f6004819055508315612698575f855f0160086101000a81548160ff0219169083151502179055507fc7f505b2f371ae2175ee4913f4499e1f2633a7b5936321eed1cdaeb6115181d2600160405161268f919061441b565b60405180910390a15b5050505050505050565b6003602052805f5260405f205f915054906101000a900473ffffffffffffffffffffffffffffffffffffffff1681565b5f5f6126dc613293565b9050805f015f9054906101000a900473ffffffffffffffffffffffffffffffffffffffff1691505090565b60045481565b6127156127c9565b5f61271e613293565b905081815f015f6101000a81548173ffffffffffffffffffffffffffffffffffffffff021916908373ffffffffffffffffffffffffffffffffffffffff1602179055508173ffffffffffffffffffffffffffffffffffffffff16612780611bd1565b73ffffffffffffffffffffffffffffffffffffffff167f38d16b8cac22d99fc7c124b9cd0de2d3fa1faef420bfe791d8c362d765e2270060405160405180910390a35050565b50565b6127d1613220565b73ffffffffffffffffffffffffffffffffffffffff166127ef611bd1565b73ffffffffffffffffffffffffffffffffffffffff161461284e57612812613220565b6040517f118cdaa70000000000000000000000000000000000000000000000000000000081526004016128459190613bb2565b60405180910390fd5b565b61286467a98af0577ddc4e0b60c01b6127c6565b61287867d1cb66438fac04b760c01b6127c6565b61288c67beada4c6cad13d0760c01b6127c6565b5f60035f8473ffffffffffffffffffffffffffffffffffffffff1673ffffffffffffffffffffffffffffffffffffffff1681526020019081526020015f205f9054906101000a900473ffffffffffffffffffffffffffffffffffffffff169050612900677e26c29a398f113260c01b6127c6565b6129146788b77006873a942360c01b6127c6565b5f73ffffffffffffffffffffffffffffffffffffffff168173ffffffffffffffffffffffffffffffffffffffff160361298d5761295b6739f3293eefd094a160c01b6127c6565b6040517fa091855e00000000000000000000000000000000000000000000000000000000815260040160405180910390fd5b6129a167edfcf95334f20d2360c01b6127c6565b6129b5678f9576c65f769bc660c01b6127c6565b6129c96730f04ccd9c5939f860c01b6127c6565b5f8373ffffffffffffffffffffffffffffffffffffffff1663095ea7b383856040518363ffffffff1660e01b8152600401612a059291906143a8565b6020604051808303815f875af1158015612a21573d5f5f3e3d5ffd5b505050506040513d601f19601f82011682018060405250810190612a459190614352565b9050612a5b67535fc318aaf1b98a60c01b6127c6565b612a6f6747bab1e8bd97c2fe60c01b6127c6565b80612aba57612a886758ad299a181648ad60c01b6127c6565b6040517f90b8ec1800000000000000000000000000000000000000000000000000000000815260040160405180910390fd5b612ace67216322dfe85d3eeb60c01b6127c6565b612ae267dc21dd0cd6bfd74d60c01b6127c6565b612af667b3c416a8c8a9073a60c01b6127c6565b8173ffffffffffffffffffffffffffffffffffffffff16636c197ff585856040518363ffffffff1660e01b8152600401612b319291906143a8565b5f604051808303815f87803b158015612b48575f5ffd5b505af1158015612b5a573d5f5f3e3d5ffd5b5050505050505050565b612b7867a7dfb5ae1f5b1f8f60c01b6127c6565b612b8c670ba85f569e1d2a1460c01b6127c6565b612ba0674cb4b3f28256e7ae60c01b6127c6565b5f60035f8473ffffffffffffffffffffffffffffffffffffffff1673ffffffffffffffffffffffffffffffffffffffff1681526020019081526020015f205f9054906101000a900473ffffffffffffffffffffffffffffffffffffffff169050612c1467696fa449778f6fc760c01b6127c6565b612c28672b757ff4af930f9c60c01b6127c6565b5f73ffffffffffffffffffffffffffffffffffffffff168173ffffffffffffffffffffffffffffffffffffffff1603612ca157612c6f6769e1b15066cfb2da60c01b6127c6565b6040517fa091855e00000000000000000000000000000000000000000000000000000000815260040160405180910390fd5b612cb567a109ae3b5265b6da60c01b6127c6565b612cc967e3856de62073a6ce60c01b6127c6565b612cdd67b57a7eab960ab53260c01b6127c6565b5f8373ffffffffffffffffffffffffffffffffffffffff166338d52e0f6040518163ffffffff1660e01b8152600401602060405180830381865afa158015612d27573d5f5f3e3d5ffd5b505050506040513d601f19601f82011682018060405250810190612d4b919061437d565b9050612d61673bd04435ab21556860c01b6127c6565b612d75679cb1638d4966e84c60c01b6127c6565b5f8173ffffffffffffffffffffffffffffffffffffffff1663095ea7b384866040518363ffffffff1660e01b8152600401612db19291906143a8565b6020604051808303815f875af1158015612dcd573d5f5f3e3d5ffd5b505050506040513d601f19601f82011682018060405250810190612df19190614352565b9050612e0767704badcbd745ad2860c01b6127c6565b612e1b674de4e70e8cf481ce60c01b6127c6565b80612e6657612e34672fa98d4dcd0cc63a60c01b6127c6565b6040517f90b8ec1800000000000000000000000000000000000000000000000000000000815260040160405180910390fd5b612e7a674b3d5e2d3a83390560c01b6127c6565b612e8e67701d25fb4175ce2960c01b6127c6565b612ea267670b8437c00d450560c01b6127c6565b8273ffffffffffffffffffffffffffffffffffffffff1663cce7ec1386866040518363ffffffff1660e01b8152600401612edd9291906143a8565b5f604051808303815f87803b158015612ef4575f5ffd5b505af1158015612f06573d5f5f3e3d5ffd5b505050505050505050565b7f000000000000000000000000000000000000000000000000000000000000000073ffffffffffffffffffffffffffffffffffffffff163073ffffffffffffffffffffffffffffffffffffffff161480612fbe57507f000000000000000000000000000000000000000000000000000000000000000073ffffffffffffffffffffffffffffffffffffffff16612fa56132ba565b73ffffffffffffffffffffffffffffffffffffffff1614155b15612ff5576040517fe07c8dba00000000000000000000000000000000000000000000000000000000815260040160405180910390fd5b565b61300b677c81e99581ed64d660c01b6127c6565b6130136127c9565b613027672b4485932a1a478360c01b6127c6565b61303b6710c22b840e92eab360c01b6127c6565b50565b8173ffffffffffffffffffffffffffffffffffffffff166352d1902d6040518163ffffffff1660e01b8152600401602060405180830381865afa9250505080156130a657506040513d601f19601f820116820180604052508101906130a3919061445e565b60015b6130e757816040517f4c9c8ce30000000000000000000000000000000000000000000000000000000081526004016130de9190613bb2565b60405180910390fd5b7f360894a13ba1a3210667c828492db98dca3e2076cc3735a920a3ca505d382bbc5f1b811461314d57806040517faa1d49a40000000000000000000000000000000000000000000000000000000081526004016131449190613b8a565b60405180910390fd5b613157838361330d565b505050565b7f000000000000000000000000000000000000000000000000000000000000000073ffffffffffffffffffffffffffffffffffffffff163073ffffffffffffffffffffffffffffffffffffffff16146131e1576040517fe07c8dba00000000000000000000000000000000000000000000000000000000815260040160405180910390fd5b565b5f6131ec613293565b9050805f015f6101000a81549073ffffffffffffffffffffffffffffffffffffffff021916905561321c8261337f565b5050565b5f33905090565b5f7f9016d09d72d40fdae2fd8ceac6b6234c7706214fd39c1cd1e609a0528c199300905090565b5f60019050919050565b5f5f613262613450565b90508091505090565b613273613479565b61327c816134b9565b50565b613287613479565b565b613291613479565b565b5f7f237e158222e3e6968b72b9db0d8043aacf074ad9f650f0d1606b4d82ee432c00905090565b5f6132e67f360894a13ba1a3210667c828492db98dca3e2076cc3735a920a3ca505d382bbc5f1b61353d565b5f015f9054906101000a900473ffffffffffffffffffffffffffffffffffffffff16905090565b61331682613546565b8173ffffffffffffffffffffffffffffffffffffffff167fbc7cd75a20ee27fd9adebab32041f755214dbc6bffa90cc0225b39da2e5c2d3b60405160405180910390a25f815111156133725761336c828261360f565b5061337b565b61337a61368f565b5b5050565b5f613388613227565b90505f815f015f9054906101000a900473ffffffffffffffffffffffffffffffffffffffff16905082825f015f6101000a81548173ffffffffffffffffffffffffffffffffffffffff021916908373ffffffffffffffffffffffffffffffffffffffff1602179055508273ffffffffffffffffffffffffffffffffffffffff168173ffffffffffffffffffffffffffffffffffffffff167f8be0079c531659141344cd1fd0a4f28419497f9722a3daafe3b4186f6b6457e060405160405180910390a3505050565b5f7ff0c57e16840df040f15088dc2f81fe391c3923bec73e23a9662efc9c229c6a005f1b905090565b6134816136cb565b6134b7576040517fd7e6bcf800000000000000000000000000000000000000000000000000000000815260040160405180910390fd5b565b6134c1613479565b5f73ffffffffffffffffffffffffffffffffffffffff168173ffffffffffffffffffffffffffffffffffffffff1603613531575f6040517f1e4fbdf70000000000000000000000000000000000000000000000000000000081526004016135289190613bb2565b60405180910390fd5b61353a816131e3565b50565b5f819050919050565b5f8173ffffffffffffffffffffffffffffffffffffffff163b036135a157806040517f4c9c8ce30000000000000000000000000000000000000000000000000000000081526004016135989190613bb2565b60405180910390fd5b806135cd7f360894a13ba1a3210667c828492db98dca3e2076cc3735a920a3ca505d382bbc5f1b61353d565b5f015f6101000a81548173ffffffffffffffffffffffffffffffffffffffff021916908373ffffffffffffffffffffffffffffffffffffffff16021790555050565b60605f5f8473ffffffffffffffffffffffffffffffffffffffff168460405161363891906144c3565b5f60405180830381855af49150503d805f8114613670576040519150601f19603f3d011682016040523d82523d5f602084013e613675565b606091505b50915091506136858583836136e9565b9250505092915050565b5f3411156136c9576040517fb398979f00000000000000000000000000000000000000000000000000000000815260040160405180910390fd5b565b5f6136d4613258565b5f0160089054906101000a900460ff16905090565b6060826136fe576136f982613776565b61376e565b5f825114801561372457505f8473ffffffffffffffffffffffffffffffffffffffff163b145b1561376657836040517f9996b31500000000000000000000000000000000000000000000000000000000815260040161375d9190613bb2565b60405180910390fd5b81905061376f565b5b9392505050565b5f8151111561378757805160208201fd5b6040517fd6bda27500000000000000000000000000000000000000000000000000000000815260040160405180910390fd5b5f604051905090565b5f5ffd5b5f5ffd5b5f73ffffffffffffffffffffffffffffffffffffffff82169050919050565b5f6137f3826137ca565b9050919050565b613803816137e9565b811461380d575f5ffd5b50565b5f8135905061381e816137fa565b92915050565b5f60208284031215613839576138386137c2565b5b5f61384684828501613810565b91505092915050565b5f819050919050565b5f61387261386d613868846137ca565b61384f565b6137ca565b9050919050565b5f61388382613858565b9050919050565b5f61389482613879565b9050919050565b6138a48161388a565b82525050565b5f6020820190506138bd5f83018461389b565b92915050565b5f5ffd5b5f5ffd5b5f5ffd5b5f5f83601f8401126138e4576138e36138c3565b5b8235905067ffffffffffffffff811115613901576139006138c7565b5b60208301915083600182028301111561391d5761391c6138cb565b5b9250929050565b5f5f6020838503121561393a576139396137c2565b5b5f83013567ffffffffffffffff811115613957576139566137c6565b5b613963858286016138cf565b92509250509250929050565b5f5ffd5b5f601f19601f8301169050919050565b7f4e487b71000000000000000000000000000000000000000000000000000000005f52604160045260245ffd5b6139b982613973565b810181811067ffffffffffffffff821117156139d8576139d7613983565b5b80604052505050565b5f6139ea6137b9565b90506139f682826139b0565b919050565b5f67ffffffffffffffff821115613a1557613a14613983565b5b613a1e82613973565b9050602081019050919050565b828183375f83830152505050565b5f613a4b613a46846139fb565b6139e1565b905082815260208101848484011115613a6757613a6661396f565b5b613a72848285613a2b565b509392505050565b5f82601f830112613a8e57613a8d6138c3565b5b8135613a9e848260208601613a39565b91505092915050565b5f5f60408385031215613abd57613abc6137c2565b5b5f613aca85828601613810565b925050602083013567ffffffffffffffff811115613aeb57613aea6137c6565b5b613af785828601613a7a565b9150509250929050565b5f819050919050565b613b1381613b01565b8114613b1d575f5ffd5b50565b5f81359050613b2e81613b0a565b92915050565b5f5f60408385031215613b4a57613b496137c2565b5b5f613b5785828601613810565b9250506020613b6885828601613b20565b9150509250929050565b5f819050919050565b613b8481613b72565b82525050565b5f602082019050613b9d5f830184613b7b565b92915050565b613bac816137e9565b82525050565b5f602082019050613bc55f830184613ba3565b92915050565b5f8115159050919050565b613bdf81613bcb565b82525050565b5f81519050919050565b5f82825260208201905092915050565b8281835e5f83830152505050565b5f613c1782613be5565b613c218185613bef565b9350613c31818560208601613bff565b613c3a81613973565b840191505092915050565b5f604082019050613c585f830185613bd6565b8181036020830152613c6a8184613c0d565b90509392505050565b5f613c7d82613879565b9050919050565b613c8d81613c73565b82525050565b5f602082019050613ca65f830184613c84565b92915050565b5f81519050919050565b5f82825260208201905092915050565b5f613cd082613cac565b613cda8185613cb6565b9350613cea818560208601613bff565b613cf381613973565b840191505092915050565b5f6020820190508181035f830152613d168184613cc6565b905092915050565b5f613d28826137e9565b9050919050565b613d3881613d1e565b8114613d42575f5ffd5b50565b5f81359050613d5381613d2f565b92915050565b5f5f60408385031215613d6f57613d6e6137c2565b5b5f613d7c85828601613810565b9250506020613d8d85828601613d45565b9150509250929050565b5f5f5f60608486031215613dae57613dad6137c2565b5b5f613dbb86828701613810565b9350506020613dcc86828701613810565b9250506040613ddd86828701613810565b9150509250925092565b5f613df182613879565b9050919050565b613e0181613de7565b82525050565b5f602082019050613e1a5f830184613df8565b92915050565b613e2981613b01565b82525050565b5f602082019050613e425f830184613e20565b92915050565b5f81519050613e5681613b0a565b92915050565b5f60208284031215613e7157613e706137c2565b5b5f613e7e84828501613e48565b91505092915050565b5f613e91826137e9565b9050919050565b613ea181613e87565b8114613eab575f5ffd5b50565b5f81519050613ebc81613e98565b92915050565b5f60208284031215613ed757613ed66137c2565b5b5f613ee484828501613eae565b91505092915050565b5f67ffffffffffffffff821115613f0757613f06613983565b5b602082029050602081019050919050565b5f81519050613f26816137fa565b92915050565b5f613f3e613f3984613eed565b6139e1565b90508083825260208201905060208402830185811115613f6157613f606138cb565b5b835b81811015613f8a5780613f768882613f18565b845260208401935050602081019050613f63565b5050509392505050565b5f82601f830112613fa857613fa76138c3565b5b8151613fb8848260208601613f2c565b91505092915050565b5f67ffffffffffffffff821115613fdb57613fda613983565b5b602082029050602081019050919050565b5f613ffe613ff984613fc1565b6139e1565b90508083825260208201905060208402830185811115614021576140206138cb565b5b835b8181101561404a57806140368882613e48565b845260208401935050602081019050614023565b5050509392505050565b5f82601f830112614068576140676138c3565b5b8151614078848260208601613fec565b91505092915050565b5f5f60408385031215614097576140966137c2565b5b5f83015167ffffffffffffffff8111156140b4576140b36137c6565b5b6140c085828601613f94565b925050602083015167ffffffffffffffff8111156140e1576140e06137c6565b5b6140ed85828601614054565b9150509250929050565b7f4e487b71000000000000000000000000000000000000000000000000000000005f52603260045260245ffd5b7f4e487b71000000000000000000000000000000000000000000000000000000005f52601160045260245ffd5b5f61415b82613b01565b915061416683613b01565b925082820390508181111561417e5761417d614124565b5b92915050565b5f61418e82613b01565b915061419983613b01565b92508282026141a781613b01565b915082820484148315176141be576141bd614124565b5b5092915050565b7f4e487b71000000000000000000000000000000000000000000000000000000005f52601260045260245ffd5b5f6141fc82613b01565b915061420783613b01565b925082614217576142166141c5565b5b828204905092915050565b5f61422c82613b01565b915061423783613b01565b925082820190508082111561424f5761424e614124565b5b92915050565b7f4e487b71000000000000000000000000000000000000000000000000000000005f52602160045260245ffd5b6002811061429357614292614255565b5b50565b5f8190506142a382614282565b919050565b5f6142b282614296565b9050919050565b6142c2816142a8565b82525050565b5f6020820190506142db5f8301846142b9565b92915050565b5f602082840312156142f6576142f56137c2565b5b5f82015167ffffffffffffffff811115614313576143126137c6565b5b61431f84828501613f94565b91505092915050565b61433181613bcb565b811461433b575f5ffd5b50565b5f8151905061434c81614328565b92915050565b5f60208284031215614367576143666137c2565b5b5f6143748482850161433e565b91505092915050565b5f60208284031215614392576143916137c2565b5b5f61439f84828501613f18565b91505092915050565b5f6040820190506143bb5f830185613ba3565b6143c86020830184613e20565b9392505050565b5f819050919050565b5f67ffffffffffffffff82169050919050565b5f6144056144006143fb846143cf565b61384f565b6143d8565b9050919050565b614415816143eb565b82525050565b5f60208201905061442e5f83018461440c565b92915050565b61443d81613b72565b8114614447575f5ffd5b50565b5f8151905061445881614434565b92915050565b5f60208284031215614473576144726137c2565b5b5f6144808482850161444a565b91505092915050565b5f81905092915050565b5f61449d82613be5565b6144a78185614489565b93506144b7818560208601613bff565b80840191505092915050565b5f6144ce8284614493565b91508190509291505056fea26469706673582212203b22e2c8b70c60e61aad5267333c39ad5108b085f779333cb3f639ff1e35ada564736f6c634300081c0033",
  "linkReferences": {},
  "deployedLinkReferences": {}
}