{
  "_format": "hh-sol-artifact-1",
  "contractName": "LiquidityOrchestrator",
  "sourceName": "contracts/orchestrators/LiquidityOrchestrator.sol",
  "abi": [
    {
      "inputs": [
        {
          "internalType": "address",
          "name": "target",
          "type": "address"
        }
      ],
      "name": "AddressEmptyCode",
      "type": "error"
    },
    {
      "inputs": [
        {
          "internalType": "address",
          "name": "implementation",
          "type": "address"
        }
      ],
      "name": "ERC1967InvalidImplementation",
      "type": "error"
    },
    {
      "inputs": [],
      "name": "ERC1967NonPayable",
      "type": "error"
    },
    {
      "inputs": [],
      "name": "FailedCall",
      "type": "error"
    },
    {
      "inputs": [],
      "name": "InvalidInitialization",
      "type": "error"
    },
    {
      "inputs": [],
      "name": "NotInitializing",
      "type": "error"
    },
    {
      "inputs": [
        {
          "internalType": "address",
          "name": "owner",
          "type": "address"
        }
      ],
      "name": "OwnableInvalidOwner",
      "type": "error"
    },
    {
      "inputs": [
        {
          "internalType": "address",
          "name": "account",
          "type": "address"
        }
      ],
      "name": "OwnableUnauthorizedAccount",
      "type": "error"
    },
    {
      "inputs": [],
      "name": "UUPSUnauthorizedCallContext",
      "type": "error"
    },
    {
      "inputs": [
        {
          "internalType": "bytes32",
          "name": "slot",
          "type": "bytes32"
        }
      ],
      "name": "UUPSUnsupportedProxiableUUID",
      "type": "error"
    },
    {
      "inputs": [],
      "name": "ZeroAddress",
      "type": "error"
    },
    {
      "anonymous": false,
      "inputs": [
        {
          "indexed": false,
          "internalType": "uint64",
          "name": "version",
          "type": "uint64"
        }
      ],
      "name": "Initialized",
      "type": "event"
    },
    {
      "anonymous": false,
      "inputs": [
        {
          "indexed": true,
          "internalType": "address",
          "name": "previousOwner",
          "type": "address"
        },
        {
          "indexed": true,
          "internalType": "address",
          "name": "newOwner",
          "type": "address"
        }
      ],
      "name": "OwnershipTransferStarted",
      "type": "event"
    },
    {
      "anonymous": false,
      "inputs": [
        {
          "indexed": true,
          "internalType": "address",
          "name": "previousOwner",
          "type": "address"
        },
        {
          "indexed": true,
          "internalType": "address",
          "name": "newOwner",
          "type": "address"
        }
      ],
      "name": "OwnershipTransferred",
      "type": "event"
    },
    {
      "anonymous": false,
      "inputs": [],
      "name": "PortfolioRebalanced",
      "type": "event"
    },
    {
      "anonymous": false,
      "inputs": [
        {
          "indexed": true,
          "internalType": "address",
          "name": "implementation",
          "type": "address"
        }
      ],
      "name": "Upgraded",
      "type": "event"
    },
    {
      "inputs": [],
      "name": "UPGRADE_INTERFACE_VERSION",
      "outputs": [
        {
          "internalType": "string",
          "name": "",
          "type": "string"
        }
      ],
      "stateMutability": "view",
      "type": "function"
    },
    {
      "inputs": [],
      "name": "acceptOwnership",
      "outputs": [],
      "stateMutability": "nonpayable",
      "type": "function"
    },
    {
      "inputs": [],
      "name": "config",
      "outputs": [
        {
          "internalType": "contract IOrionConfig",
          "name": "",
          "type": "address"
        }
      ],
      "stateMutability": "view",
      "type": "function"
    },
    {
      "inputs": [
        {
          "internalType": "address",
          "name": "initialOwner",
          "type": "address"
        },
        {
          "internalType": "address",
          "name": "config_",
          "type": "address"
        }
      ],
      "name": "initialize",
      "outputs": [],
      "stateMutability": "nonpayable",
      "type": "function"
    },
    {
      "inputs": [],
      "name": "owner",
      "outputs": [
        {
          "internalType": "address",
          "name": "",
          "type": "address"
        }
      ],
      "stateMutability": "view",
      "type": "function"
    },
    {
      "inputs": [],
      "name": "pendingOwner",
      "outputs": [
        {
          "internalType": "address",
          "name": "",
          "type": "address"
        }
      ],
      "stateMutability": "view",
      "type": "function"
    },
    {
      "inputs": [],
      "name": "proxiableUUID",
      "outputs": [
        {
          "internalType": "bytes32",
          "name": "",
          "type": "bytes32"
        }
      ],
      "stateMutability": "view",
      "type": "function"
    },
    {
      "inputs": [],
      "name": "rebalancePortfolio",
      "outputs": [],
      "stateMutability": "nonpayable",
      "type": "function"
    },
    {
      "inputs": [],
      "name": "renounceOwnership",
      "outputs": [],
      "stateMutability": "nonpayable",
      "type": "function"
    },
    {
      "inputs": [
        {
          "internalType": "address",
          "name": "newOwner",
          "type": "address"
        }
      ],
      "name": "transferOwnership",
      "outputs": [],
      "stateMutability": "nonpayable",
      "type": "function"
    },
    {
      "inputs": [
        {
          "internalType": "address",
          "name": "newImplementation",
          "type": "address"
        },
        {
          "internalType": "bytes",
          "name": "data",
          "type": "bytes"
        }
      ],
      "name": "upgradeToAndCall",
      "outputs": [],
      "stateMutability": "payable",
      "type": "function"
    }
  ],
  "bytecode": "0x60a0604052306080523480156012575f5ffd5b506080516110686100395f395f81816107eb01528181610814015261095801526110685ff3fe60806040526004361061009a575f3560e01c806379ba50971161006257806379ba509714610143578063822fc8aa146101575780638da5cb5b1461016b578063ad3cb1cc1461017f578063e30c3978146101bc578063f2fde38b146101d0575f5ffd5b8063485cc9551461009e5780634f1ef286146100bf57806352d1902d146100d2578063715018a6146100f957806379502c551461010d575b5f5ffd5b3480156100a9575f5ffd5b506100bd6100b8366004610ccf565b6101ef565b005b6100bd6100cd366004610d4b565b61034f565b3480156100dd575f5ffd5b506100e661036e565b6040519081526020015b60405180910390f35b348015610104575f5ffd5b506100bd610389565b348015610118575f5ffd5b505f5461012b906001600160a01b031681565b6040516001600160a01b0390911681526020016100f0565b34801561014e575f5ffd5b506100bd61039c565b348015610162575f5ffd5b506100bd6103e9565b348015610176575f5ffd5b5061012b6106e6565b34801561018a575f5ffd5b506101af604051806040016040528060058152602001640352e302e360dc1b81525081565b6040516100f09190610df2565b3480156101c7575f5ffd5b5061012b61071a565b3480156101db575f5ffd5b506100bd6101ea366004610e27565b610742565b7ff0c57e16840df040f15088dc2f81fe391c3923bec73e23a9662efc9c229c6a008054600160401b810460ff16159067ffffffffffffffff165f811580156102345750825b90505f8267ffffffffffffffff1660011480156102505750303b155b90508115801561025e575080155b1561027c5760405163f92ee8a960e01b815260040160405180910390fd5b845467ffffffffffffffff1916600117855583156102a657845460ff60401b1916600160401b1785555b6102af876107c7565b6102b76107d8565b6102bf6107d8565b6001600160a01b0386166102e65760405163d92e233d60e01b815260040160405180910390fd5b5f80546001600160a01b0319166001600160a01b038816179055831561034657845460ff60401b19168555604051600181527fc7f505b2f371ae2175ee4913f4499e1f2633a7b5936321eed1cdaeb6115181d29060200160405180910390a15b50505050505050565b6103576107e0565b61036082610884565b61036a828261088c565b5050565b5f61037761094d565b505f5160206110135f395f51905f5290565b610391610996565b61039a5f6109c8565b565b33806103a661071a565b6001600160a01b0316146103dd5760405163118cdaa760e01b81526001600160a01b03821660048201526024015b60405180910390fd5b6103e6816109c8565b50565b6103f1610996565b6040517ff0094b59b7bc92e9fc611b14b5d3a34fe02530ac9bcf36c2c6f10147c3030c12905f90a15f8054604051631da09e4360e31b81526001600160a01b039091169063ed04f21890610449908490600401610e42565b5f60405180830381865afa158015610463573d5f5f3e3d5ffd5b505050506040513d5f823e601f3d908101601f1916820160405261048a9190810190610e68565b80519091505f5b8181101561057b575f8382815181106104ac576104ac610f1c565b60200260200101519050806001600160a01b031663105444945f67ffffffffffffffff8111156104de576104de610d06565b60405190808252806020026020018201604052801561052257816020015b604080518082019091525f80825260208201528152602001906001900390816104fc5790505b505f6040518363ffffffff1660e01b8152600401610541929190610f30565b5f604051808303815f87803b158015610558575f5ffd5b505af115801561056a573d5f5f3e3d5ffd5b505060019093019250610491915050565b505f8054604051631da09e4360e31b81526001600160a01b039091169063ed04f218906105ad90600190600401610e42565b5f60405180830381865afa1580156105c7573d5f5f3e3d5ffd5b505050506040513d5f823e601f3d908101601f191682016040526105ee9190810190610e68565b8051925090505f5b828110156106e0575f82828151811061061157610611610f1c565b60200260200101519050806001600160a01b031663985ba4ae5f67ffffffffffffffff81111561064357610643610d06565b60405190808252806020026020018201604052801561068757816020015b604080518082019091525f80825260208201528152602001906001900390816106615790505b505f6040518363ffffffff1660e01b81526004016106a6929190610f97565b5f604051808303815f87803b1580156106bd575f5ffd5b505af11580156106cf573d5f5f3e3d5ffd5b5050600190930192506105f6915050565b50505050565b5f807f9016d09d72d40fdae2fd8ceac6b6234c7706214fd39c1cd1e609a0528c1993005b546001600160a01b031692915050565b5f807f237e158222e3e6968b72b9db0d8043aacf074ad9f650f0d1606b4d82ee432c0061070a565b61074a610996565b7f237e158222e3e6968b72b9db0d8043aacf074ad9f650f0d1606b4d82ee432c0080546001600160a01b0319166001600160a01b038316908117825561078e6106e6565b6001600160a01b03167f38d16b8cac22d99fc7c124b9cd0de2d3fa1faef420bfe791d8c362d765e2270060405160405180910390a35050565b6107cf610a00565b6103e681610a49565b61039a610a00565b306001600160a01b037f000000000000000000000000000000000000000000000000000000000000000016148061086657507f00000000000000000000000000000000000000000000000000000000000000006001600160a01b031661085a5f5160206110135f395f51905f52546001600160a01b031690565b6001600160a01b031614155b1561039a5760405163703e46dd60e11b815260040160405180910390fd5b6103e6610996565b816001600160a01b03166352d1902d6040518163ffffffff1660e01b8152600401602060405180830381865afa9250505080156108e6575060408051601f3d908101601f191682019092526108e391810190610fe5565b60015b61090e57604051634c9c8ce360e01b81526001600160a01b03831660048201526024016103d4565b5f5160206110135f395f51905f52811461093e57604051632a87526960e21b8152600481018290526024016103d4565b6109488383610a7a565b505050565b306001600160a01b037f0000000000000000000000000000000000000000000000000000000000000000161461039a5760405163703e46dd60e11b815260040160405180910390fd5b3361099f6106e6565b6001600160a01b03161461039a5760405163118cdaa760e01b81523360048201526024016103d4565b7f237e158222e3e6968b72b9db0d8043aacf074ad9f650f0d1606b4d82ee432c0080546001600160a01b031916815561036a82610acf565b7ff0c57e16840df040f15088dc2f81fe391c3923bec73e23a9662efc9c229c6a0054600160401b900460ff1661039a57604051631afcd79f60e31b815260040160405180910390fd5b610a51610a00565b6001600160a01b0381166103dd57604051631e4fbdf760e01b81525f60048201526024016103d4565b610a8382610b3f565b6040516001600160a01b038316907fbc7cd75a20ee27fd9adebab32041f755214dbc6bffa90cc0225b39da2e5c2d3b905f90a2805115610ac7576109488282610ba2565b61036a610c14565b7f9016d09d72d40fdae2fd8ceac6b6234c7706214fd39c1cd1e609a0528c19930080546001600160a01b031981166001600160a01b03848116918217845560405192169182907f8be0079c531659141344cd1fd0a4f28419497f9722a3daafe3b4186f6b6457e0905f90a3505050565b806001600160a01b03163b5f03610b7457604051634c9c8ce360e01b81526001600160a01b03821660048201526024016103d4565b5f5160206110135f395f51905f5280546001600160a01b0319166001600160a01b0392909216919091179055565b60605f5f846001600160a01b031684604051610bbe9190610ffc565b5f60405180830381855af49150503d805f8114610bf6576040519150601f19603f3d011682016040523d82523d5f602084013e610bfb565b606091505b5091509150610c0b858383610c33565b95945050505050565b341561039a5760405163b398979f60e01b815260040160405180910390fd5b606082610c4857610c4382610c92565b610c8b565b8151158015610c5f57506001600160a01b0384163b155b15610c8857604051639996b31560e01b81526001600160a01b03851660048201526024016103d4565b50805b9392505050565b805115610ca25780518082602001fd5b60405163d6bda27560e01b815260040160405180910390fd5b6001600160a01b03811681146103e6575f5ffd5b5f5f60408385031215610ce0575f5ffd5b8235610ceb81610cbb565b91506020830135610cfb81610cbb565b809150509250929050565b634e487b7160e01b5f52604160045260245ffd5b604051601f8201601f1916810167ffffffffffffffff81118282101715610d4357610d43610d06565b604052919050565b5f5f60408385031215610d5c575f5ffd5b8235610d6781610cbb565b9150602083013567ffffffffffffffff811115610d82575f5ffd5b8301601f81018513610d92575f5ffd5b803567ffffffffffffffff811115610dac57610dac610d06565b610dbf601f8201601f1916602001610d1a565b818152866020838501011115610dd3575f5ffd5b816020840160208301375f602083830101528093505050509250929050565b602081525f82518060208401528060208501604085015e5f604082850101526040601f19601f83011684010191505092915050565b5f60208284031215610e37575f5ffd5b8135610c8b81610cbb565b6020810160028310610e6257634e487b7160e01b5f52602160045260245ffd5b91905290565b5f60208284031215610e78575f5ffd5b815167ffffffffffffffff811115610e8e575f5ffd5b8201601f81018413610e9e575f5ffd5b805167ffffffffffffffff811115610eb857610eb8610d06565b8060051b610ec860208201610d1a565b91825260208184018101929081019087841115610ee3575f5ffd5b6020850194505b83851015610f115784519250610eff83610cbb565b82825260209485019490910190610eea565b979650505050505050565b634e487b7160e01b5f52603260045260245ffd5b604080825283519082018190525f9060208501906060840190835b81811015610f8457835180516001600160a01b0316845260209081015163ffffffff168185015290930192604090920191600101610f4b565b5050602093909301939093525092915050565b604080825283519082018190525f9060208501906060840190835b81811015610f8457835180516001600160a01b031684526020908101518185015290930192604090920191600101610fb2565b5f60208284031215610ff5575f5ffd5b5051919050565b5f82518060208501845e5f92019182525091905056fe360894a13ba1a3210667c828492db98dca3e2076cc3735a920a3ca505d382bbca26469706673582212201292b5d91cb5f67a0b2b163f483a7f46d7357c5e2e8db7e14e0a2e9866cd8a9164736f6c634300081c0033",
  "linkReferences": {},
  "deployedLinkReferences": {}
}