{
  "_format": "hh-sol-artifact-1",
  "contractName": "LiquidityOrchestrator",
  "sourceName": "contracts/orchestrators/LiquidityOrchestrator.sol",
  "abi": [
    {
      "inputs": [
        {
          "internalType": "address",
          "name": "initialOwner",
          "type": "address"
        },
        {
          "internalType": "address",
          "name": "config_",
          "type": "address"
        },
        {
          "internalType": "address",
          "name": "automationRegistry_",
          "type": "address"
        }
      ],
      "stateMutability": "nonpayable",
      "type": "constructor"
    },
    {
      "inputs": [],
      "name": "AdapterNotSet",
      "type": "error"
    },
    {
      "inputs": [],
      "name": "AlreadyRegistered",
      "type": "error"
    },
    {
      "inputs": [
        {
          "internalType": "address",
          "name": "asset",
          "type": "address"
        }
      ],
      "name": "AmountMustBeGreaterThanZero",
      "type": "error"
    },
    {
      "inputs": [],
      "name": "EnforcedPause",
      "type": "error"
    },
    {
      "inputs": [],
      "name": "ExpectedPause",
      "type": "error"
    },
    {
      "inputs": [],
      "name": "InsufficientAmount",
      "type": "error"
    },
    {
      "inputs": [],
      "name": "InvalidArguments",
      "type": "error"
    },
    {
      "inputs": [],
      "name": "NotAuthorized",
      "type": "error"
    },
    {
      "inputs": [
        {
          "internalType": "address",
          "name": "owner",
          "type": "address"
        }
      ],
      "name": "OwnableInvalidOwner",
      "type": "error"
    },
    {
      "inputs": [
        {
          "internalType": "address",
          "name": "account",
          "type": "address"
        }
      ],
      "name": "OwnableUnauthorizedAccount",
      "type": "error"
    },
    {
      "inputs": [],
      "name": "ReentrancyGuardReentrantCall",
      "type": "error"
    },
    {
      "inputs": [
        {
          "internalType": "address",
          "name": "token",
          "type": "address"
        }
      ],
      "name": "SafeERC20FailedOperation",
      "type": "error"
    },
    {
      "inputs": [],
      "name": "SystemNotIdle",
      "type": "error"
    },
    {
      "inputs": [],
      "name": "UnauthorizedAccess",
      "type": "error"
    },
    {
      "inputs": [],
      "name": "ZeroAddress",
      "type": "error"
    },
    {
      "anonymous": false,
      "inputs": [
        {
          "indexed": true,
          "internalType": "address",
          "name": "newAutomationRegistry",
          "type": "address"
        }
      ],
      "name": "AutomationRegistryUpdated",
      "type": "event"
    },
    {
      "anonymous": false,
      "inputs": [
        {
          "indexed": true,
          "internalType": "address",
          "name": "asset",
          "type": "address"
        },
        {
          "indexed": true,
          "internalType": "address",
          "name": "adapter",
          "type": "address"
        }
      ],
      "name": "ExecutionAdapterSet",
      "type": "event"
    },
    {
      "anonymous": false,
      "inputs": [
        {
          "indexed": true,
          "internalType": "address",
          "name": "previousOwner",
          "type": "address"
        },
        {
          "indexed": true,
          "internalType": "address",
          "name": "newOwner",
          "type": "address"
        }
      ],
      "name": "OwnershipTransferStarted",
      "type": "event"
    },
    {
      "anonymous": false,
      "inputs": [
        {
          "indexed": true,
          "internalType": "address",
          "name": "previousOwner",
          "type": "address"
        },
        {
          "indexed": true,
          "internalType": "address",
          "name": "newOwner",
          "type": "address"
        }
      ],
      "name": "OwnershipTransferred",
      "type": "event"
    },
    {
      "anonymous": false,
      "inputs": [
        {
          "indexed": false,
          "internalType": "address",
          "name": "account",
          "type": "address"
        }
      ],
      "name": "Paused",
      "type": "event"
    },
    {
      "anonymous": false,
      "inputs": [],
      "name": "PortfolioRebalanced",
      "type": "event"
    },
    {
      "anonymous": false,
      "inputs": [
        {
          "indexed": false,
          "internalType": "address",
          "name": "account",
          "type": "address"
        }
      ],
      "name": "Unpaused",
      "type": "event"
    },
    {
      "inputs": [],
      "name": "MAX_BUY_APPROVAL_MULTIPLIER",
      "outputs": [
        {
          "internalType": "uint8",
          "name": "",
          "type": "uint8"
        }
      ],
      "stateMutability": "view",
      "type": "function"
    },
    {
      "inputs": [],
      "name": "MAX_EXECUTION_MINIBATCH_SIZE",
      "outputs": [
        {
          "internalType": "uint8",
          "name": "",
          "type": "uint8"
        }
      ],
      "stateMutability": "view",
      "type": "function"
    },
    {
      "inputs": [],
      "name": "MAX_MINIBATCH_SIZE",
      "outputs": [
        {
          "internalType": "uint8",
          "name": "",
          "type": "uint8"
        }
      ],
      "stateMutability": "view",
      "type": "function"
    },
    {
      "inputs": [],
      "name": "acceptOwnership",
      "outputs": [],
      "stateMutability": "nonpayable",
      "type": "function"
    },
    {
      "inputs": [],
      "name": "admin",
      "outputs": [
        {
          "internalType": "address",
          "name": "",
          "type": "address"
        }
      ],
      "stateMutability": "view",
      "type": "function"
    },
    {
      "inputs": [],
      "name": "automationRegistry",
      "outputs": [
        {
          "internalType": "address",
          "name": "",
          "type": "address"
        }
      ],
      "stateMutability": "view",
      "type": "function"
    },
    {
      "inputs": [],
      "name": "buyApprovalMultiplier",
      "outputs": [
        {
          "internalType": "uint8",
          "name": "",
          "type": "uint8"
        }
      ],
      "stateMutability": "view",
      "type": "function"
    },
    {
      "inputs": [
        {
          "internalType": "uint256",
          "name": "",
          "type": "uint256"
        }
      ],
      "name": "buyingAmounts",
      "outputs": [
        {
          "internalType": "uint256",
          "name": "",
          "type": "uint256"
        }
      ],
      "stateMutability": "view",
      "type": "function"
    },
    {
      "inputs": [
        {
          "internalType": "uint256",
          "name": "",
          "type": "uint256"
        }
      ],
      "name": "buyingEstimatedUnderlyingAmounts",
      "outputs": [
        {
          "internalType": "uint256",
          "name": "",
          "type": "uint256"
        }
      ],
      "stateMutability": "view",
      "type": "function"
    },
    {
      "inputs": [
        {
          "internalType": "uint256",
          "name": "",
          "type": "uint256"
        }
      ],
      "name": "buyingTokens",
      "outputs": [
        {
          "internalType": "address",
          "name": "",
          "type": "address"
        }
      ],
      "stateMutability": "view",
      "type": "function"
    },
    {
      "inputs": [
        {
          "internalType": "bytes",
          "name": "",
          "type": "bytes"
        }
      ],
      "name": "checkUpkeep",
      "outputs": [
        {
          "internalType": "bool",
          "name": "upkeepNeeded",
          "type": "bool"
        },
        {
          "internalType": "bytes",
          "name": "performData",
          "type": "bytes"
        }
      ],
      "stateMutability": "view",
      "type": "function"
    },
    {
      "inputs": [
        {
          "internalType": "uint256",
          "name": "amount",
          "type": "uint256"
        }
      ],
      "name": "claimProtocolFees",
      "outputs": [],
      "stateMutability": "nonpayable",
      "type": "function"
    },
    {
      "inputs": [],
      "name": "config",
      "outputs": [
        {
          "internalType": "contract IOrionConfig",
          "name": "",
          "type": "address"
        }
      ],
      "stateMutability": "view",
      "type": "function"
    },
    {
      "inputs": [],
      "name": "currentMinibatchIndex",
      "outputs": [
        {
          "internalType": "uint8",
          "name": "",
          "type": "uint8"
        }
      ],
      "stateMutability": "view",
      "type": "function"
    },
    {
      "inputs": [],
      "name": "currentPhase",
      "outputs": [
        {
          "internalType": "enum ILiquidityOrchestrator.LiquidityUpkeepPhase",
          "name": "",
          "type": "uint8"
        }
      ],
      "stateMutability": "view",
      "type": "function"
    },
    {
      "inputs": [],
      "name": "deltaBufferAmount",
      "outputs": [
        {
          "internalType": "int256",
          "name": "",
          "type": "int256"
        }
      ],
      "stateMutability": "view",
      "type": "function"
    },
    {
      "inputs": [
        {
          "internalType": "uint256",
          "name": "amount",
          "type": "uint256"
        }
      ],
      "name": "depositLiquidity",
      "outputs": [],
      "stateMutability": "nonpayable",
      "type": "function"
    },
    {
      "inputs": [
        {
          "internalType": "address",
          "name": "",
          "type": "address"
        }
      ],
      "name": "executionAdapterOf",
      "outputs": [
        {
          "internalType": "contract IExecutionAdapter",
          "name": "",
          "type": "address"
        }
      ],
      "stateMutability": "view",
      "type": "function"
    },
    {
      "inputs": [],
      "name": "executionMinibatchSize",
      "outputs": [
        {
          "internalType": "uint8",
          "name": "",
          "type": "uint8"
        }
      ],
      "stateMutability": "view",
      "type": "function"
    },
    {
      "inputs": [],
      "name": "internalStatesOrchestrator",
      "outputs": [
        {
          "internalType": "contract IInternalStateOrchestrator",
          "name": "",
          "type": "address"
        }
      ],
      "stateMutability": "view",
      "type": "function"
    },
    {
      "inputs": [],
      "name": "lastProcessedEpoch",
      "outputs": [
        {
          "internalType": "uint16",
          "name": "",
          "type": "uint16"
        }
      ],
      "stateMutability": "view",
      "type": "function"
    },
    {
      "inputs": [],
      "name": "minibatchSize",
      "outputs": [
        {
          "internalType": "uint8",
          "name": "",
          "type": "uint8"
        }
      ],
      "stateMutability": "view",
      "type": "function"
    },
    {
      "inputs": [],
      "name": "owner",
      "outputs": [
        {
          "internalType": "address",
          "name": "",
          "type": "address"
        }
      ],
      "stateMutability": "view",
      "type": "function"
    },
    {
      "inputs": [],
      "name": "pause",
      "outputs": [],
      "stateMutability": "nonpayable",
      "type": "function"
    },
    {
      "inputs": [],
      "name": "paused",
      "outputs": [
        {
          "internalType": "bool",
          "name": "",
          "type": "bool"
        }
      ],
      "stateMutability": "view",
      "type": "function"
    },
    {
      "inputs": [],
      "name": "pendingOwner",
      "outputs": [
        {
          "internalType": "address",
          "name": "",
          "type": "address"
        }
      ],
      "stateMutability": "view",
      "type": "function"
    },
    {
      "inputs": [
        {
          "internalType": "bytes",
          "name": "",
          "type": "bytes"
        }
      ],
      "name": "performUpkeep",
      "outputs": [],
      "stateMutability": "nonpayable",
      "type": "function"
    },
    {
      "inputs": [],
      "name": "renounceOwnership",
      "outputs": [],
      "stateMutability": "nonpayable",
      "type": "function"
    },
    {
      "inputs": [
        {
          "internalType": "address",
          "name": "user",
          "type": "address"
        },
        {
          "internalType": "uint256",
          "name": "amount",
          "type": "uint256"
        }
      ],
      "name": "returnDepositFunds",
      "outputs": [],
      "stateMutability": "nonpayable",
      "type": "function"
    },
    {
      "inputs": [
        {
          "internalType": "uint256",
          "name": "",
          "type": "uint256"
        }
      ],
      "name": "sellingAmounts",
      "outputs": [
        {
          "internalType": "uint256",
          "name": "",
          "type": "uint256"
        }
      ],
      "stateMutability": "view",
      "type": "function"
    },
    {
      "inputs": [
        {
          "internalType": "uint256",
          "name": "",
          "type": "uint256"
        }
      ],
      "name": "sellingEstimatedUnderlyingAmounts",
      "outputs": [
        {
          "internalType": "uint256",
          "name": "",
          "type": "uint256"
        }
      ],
      "stateMutability": "view",
      "type": "function"
    },
    {
      "inputs": [
        {
          "internalType": "uint256",
          "name": "",
          "type": "uint256"
        }
      ],
      "name": "sellingTokens",
      "outputs": [
        {
          "internalType": "address",
          "name": "",
          "type": "address"
        }
      ],
      "stateMutability": "view",
      "type": "function"
    },
    {
      "inputs": [
        {
          "internalType": "address",
          "name": "asset",
          "type": "address"
        },
        {
          "internalType": "contract IExecutionAdapter",
          "name": "adapter",
          "type": "address"
        }
      ],
      "name": "setExecutionAdapter",
      "outputs": [],
      "stateMutability": "nonpayable",
      "type": "function"
    },
    {
      "inputs": [
        {
          "internalType": "address",
          "name": "_internalStatesOrchestrator",
          "type": "address"
        }
      ],
      "name": "setInternalStatesOrchestrator",
      "outputs": [],
      "stateMutability": "nonpayable",
      "type": "function"
    },
    {
      "inputs": [
        {
          "internalType": "uint256",
          "name": "_targetBufferRatio",
          "type": "uint256"
        }
      ],
      "name": "setTargetBufferRatio",
      "outputs": [],
      "stateMutability": "nonpayable",
      "type": "function"
    },
    {
      "inputs": [],
      "name": "targetBufferRatio",
      "outputs": [
        {
          "internalType": "uint256",
          "name": "",
          "type": "uint256"
        }
      ],
      "stateMutability": "view",
      "type": "function"
    },
    {
      "inputs": [
        {
          "internalType": "uint256",
          "name": "amount",
          "type": "uint256"
        }
      ],
      "name": "transferCuratorFees",
      "outputs": [],
      "stateMutability": "nonpayable",
      "type": "function"
    },
    {
      "inputs": [
        {
          "internalType": "address",
          "name": "newOwner",
          "type": "address"
        }
      ],
      "name": "transferOwnership",
      "outputs": [],
      "stateMutability": "nonpayable",
      "type": "function"
    },
    {
      "inputs": [
        {
          "internalType": "address",
          "name": "user",
          "type": "address"
        },
        {
          "internalType": "uint256",
          "name": "amount",
          "type": "uint256"
        }
      ],
      "name": "transferRedemptionFunds",
      "outputs": [],
      "stateMutability": "nonpayable",
      "type": "function"
    },
    {
      "inputs": [],
      "name": "underlyingAsset",
      "outputs": [
        {
          "internalType": "address",
          "name": "",
          "type": "address"
        }
      ],
      "stateMutability": "view",
      "type": "function"
    },
    {
      "inputs": [],
      "name": "unpause",
      "outputs": [],
      "stateMutability": "nonpayable",
      "type": "function"
    },
    {
      "inputs": [
        {
          "internalType": "address",
          "name": "newAutomationRegistry",
          "type": "address"
        }
      ],
      "name": "updateAutomationRegistry",
      "outputs": [],
      "stateMutability": "nonpayable",
      "type": "function"
    },
    {
      "inputs": [
        {
          "internalType": "uint8",
          "name": "_buyApprovalMultiplier",
          "type": "uint8"
        }
      ],
      "name": "updateBuyApprovalMultiplier",
      "outputs": [],
      "stateMutability": "nonpayable",
      "type": "function"
    },
    {
      "inputs": [
        {
          "internalType": "uint8",
          "name": "_executionMinibatchSize",
          "type": "uint8"
        }
      ],
      "name": "updateExecutionMinibatchSize",
      "outputs": [],
      "stateMutability": "nonpayable",
      "type": "function"
    },
    {
      "inputs": [
        {
          "internalType": "uint8",
          "name": "_minibatchSize",
          "type": "uint8"
        }
      ],
      "name": "updateMinibatchSize",
      "outputs": [],
      "stateMutability": "nonpayable",
      "type": "function"
    },
    {
      "inputs": [
        {
          "internalType": "uint256",
          "name": "assets",
          "type": "uint256"
        },
        {
          "internalType": "address",
          "name": "receiver",
          "type": "address"
        }
      ],
      "name": "withdraw",
      "outputs": [],
      "stateMutability": "nonpayable",
      "type": "function"
    },
    {
      "inputs": [
        {
          "internalType": "uint256",
          "name": "amount",
          "type": "uint256"
        }
      ],
      "name": "withdrawLiquidity",
      "outputs": [],
      "stateMutability": "nonpayable",
      "type": "function"
    }
  ],
  "bytecode": "0x608060405234801561000f575f5ffd5b506040516132c03803806132c083398101604081905261002e91610292565b826001600160a01b03811661005c57604051631e4fbdf760e01b81525f600482015260240160405180910390fd5b61006581610213565b5060016002556001600160a01b0382166100925760405163d92e233d60e01b815260040160405180910390fd5b6001600160a01b0381166100b95760405163d92e233d60e01b815260040160405180910390fd5b600480546001600160a01b0319166001600160a01b038416908117825560408051631c56369f60e21b815290519192637158da7c9282820192602092908290030181865afa15801561010d573d5f5f3e3d5ffd5b505050506040513d601f19601f8201168201806040525081019061013191906102dc565b600680546001600160a01b0319166001600160a01b0392831617905560048054604080516303e1469160e61b81529051919093169263f851a44092818101926020929091908290030181865afa15801561018d573d5f5f3e3d5ffd5b505050506040513d601f19601f820116820180604052508101906101b191906102dc565b600780546001600160a01b0319166001600160a01b0392831617905560038054610100600160a81b031916610100939092169290920217905550506009805465ffffffffffff19166301010000179055600b805460ff191660021790556102fe565b600180546001600160a01b031916905561022c8161022f565b50565b5f80546001600160a01b038381166001600160a01b0319831681178455604051919092169283917f8be0079c531659141344cd1fd0a4f28419497f9722a3daafe3b4186f6b6457e09190a35050565b6001600160a01b038116811461022c575f5ffd5b5f5f5f606084860312156102a4575f5ffd5b83516102af8161027e565b60208501519093506102c08161027e565b60408501519092506102d18161027e565b809150509250925092565b5f602082840312156102ec575f5ffd5b81516102f78161027e565b9392505050565b612fb58061030b5f395ff3fe608060405234801561000f575f5ffd5b5060043610610222575f3560e01c8062f714ce1461022657806301c621c11461023b578063055ad42e1461024e57806309f2e19c146102785780630a861f2a146102985780630a8b78c7146102ab5780630babbef3146102be57806314b5d07f146102dd5780633369921a146102f0578063348ec5c8146103075780633af2a8c01461031a5780633e765a9e1461032d5780633f4ba83a146103405780634585e33b146103485780634adfc2e71461035b57806351edffb11461036e57806352e899fd146103815780635488cd621461039457806357be01c1146103a857806359017aa9146103bb5780635c975abb146103ce5780635dc228a0146103e45780635dd17ec3146103fc578063639bdf5a146103fc5780636e04ff0d14610404578063715018a6146104255780637158da7c1461042d578063741fca4b1461044057806376d58e1a1461045357806379502c551461046657806379ba5097146104795780638157c1ab146104815780638456cb59146104945780638689b2c51461049c5780638a0b0d38146104b05780638da5cb5b146104c3578063a0424ab9146104cb578063bc504975146104d3578063be1b26a4146104e6578063d3f3506d146104f9578063dab26e3b14610521578063e30c39781461052a578063e42ff8b614610532578063e6c3efd914610545578063ee6713df14610558578063f2fde38b14610579578063f851a4401461058c575b5f5ffd5b610239610234366004612982565b61059f565b005b6102396102493660046129b0565b610657565b60095461026290600160201b900460ff1681565b60405161026f91906129db565b60405180910390f35b61028b6102863660046129b0565b61072c565b60405161026f91906129f5565b6102396102a63660046129b0565b610754565b6102396102b9366004612a09565b610951565b600b546102cb9060ff1681565b60405160ff909116815260200161026f565b6102396102eb366004612a09565b6109cc565b6102f960125481565b60405190815260200161026f565b60055461028b906001600160a01b031681565b6102396103283660046129b0565b610ad2565b6102f961033b3660046129b0565b610ba8565b610239610bc7565b610239610356366004612a2b565b610bfc565b610239610369366004612a97565b610e1a565b61023961037c366004612a97565b610ee9565b6102f961038f3660046129b0565b610f74565b6009546102cb90600160281b900460ff1681565b6009546102cb9062010000900460ff1681565b6102396103c9366004612ac1565b610f83565b60035460ff16604051901515815260200161026f565b60035461028b9061010090046001600160a01b031681565b6102cb600881565b610417610412366004612a2b565b611097565b60405161026f929190612aed565b610239611239565b60065461028b906001600160a01b031681565b61023961044e3660046129b0565b61124a565b6102396104613660046129b0565b6113fd565b60045461028b906001600160a01b031681565b610239611563565b61028b61048f3660046129b0565b61159f565b6102396115ae565b6009546102cb906301000000900460ff1681565b6102396104be366004612b2b565b6115e1565b61028b6116d5565b6102cb600581565b6102f96104e13660046129b0565b6116e3565b6102f96104f43660046129b0565b6116f2565b61028b610507366004612a09565b60086020525f90815260409020546001600160a01b031681565b6102f9600a5481565b61028b611701565b610239610540366004612b2b565b611710565b610239610553366004612b2b565b6117fc565b6009546105669061ffff1681565b60405161ffff909116815260200161026f565b610239610587366004612a09565b6118f2565b60075461028b906001600160a01b031681565b6105a7611958565b6004805460405163f764eb4560e01b81526001600160a01b039091169163f764eb45916105d6913391016129f5565b602060405180830381865afa1580156105f1573d5f5f3e3d5ffd5b505050506040513d601f19601f820116820180604052508101906106159190612b4b565b6106325760405163ea8e4eb560e01b815260040160405180910390fd5b600654610649906001600160a01b03168284611980565b6106536001600255565b5050565b6007546001600160a01b0316331461068257604051631a27eac360e11b815260040160405180910390fd5b805f036106b857600654604051636b30633560e01b81526106af916001600160a01b0316906004016129f5565b60405180910390fd5b600554604051637060444560e01b8152600481018390526001600160a01b03909116906370604445906024015f604051808303815f87803b1580156106fb575f5ffd5b505af115801561070d573d5f5f3e3d5ffd5b505060065461072992506001600160a01b031690503383611980565b50565b600f818154811061073b575f80fd5b5f918252602090912001546001600160a01b0316905081565b6007546001600160a01b0316331461077f57604051631a27eac360e11b815260040160405180910390fd5b805f036107ac57600654604051636b30633560e01b81526106af916001600160a01b0316906004016129f5565b600554604080516302ad6a1760e11b815290515f926001600160a01b03169163055ad42e9160048083019260209291908290030181865afa1580156107f3573d5f5f3e3d5ffd5b505050506040513d601f19601f820116820180604052508101906108179190612b6a565b6004811115610828576108286129c7565b14610846576040516312aecd8160e01b815260040160405180910390fd5b600554604080516330638a9760e21b815290515f926001600160a01b03169163c18e2a5c9160048083019260209291908290030181865afa15801561088d573d5f5f3e3d5ffd5b505050506040513d601f19601f820116820180604052508101906108b19190612b88565b9050808211156108d457604051632ca2f52b60e11b815260040160405180910390fd5b6005546001600160a01b031663e2c4aaec6108ee84612bb3565b6040518263ffffffff1660e01b815260040161090c91815260200190565b5f604051808303815f87803b158015610923575f5ffd5b505af1158015610935573d5f5f3e3d5ffd5b505060065461065392506001600160a01b031690503384611980565b6109596119d8565b6001600160a01b0381166109805760405163d92e233d60e01b815260040160405180910390fd5b6005546001600160a01b0316156109aa57604051630ea075bf60e21b815260040160405180910390fd5b600580546001600160a01b0319166001600160a01b0392909216919091179055565b6109d46119d8565b6001600160a01b0381166109fb5760405163d92e233d60e01b815260040160405180910390fd5b600480546040805163edcf9c1f60e01b815290516001600160a01b039092169263edcf9c1f9282820192602092908290030181865afa158015610a40573d5f5f3e3d5ffd5b505050506040513d601f19601f82011682018060405250810190610a649190612b4b565b610a81576040516312aecd8160e01b815260040160405180910390fd5b60038054610100600160a81b0319166101006001600160a01b038416908102919091179091556040517f6cc7ebdb6c8c53291c5ae16148cab9b049d23bf5bde5632900b40edff56fcb43905f90a250565b610ada6119d8565b805f03610afa576040516317dbc4cb60e21b815260040160405180910390fd5b6101f4811115610b1d576040516317dbc4cb60e21b815260040160405180910390fd5b600480546040805163edcf9c1f60e01b815290516001600160a01b039092169263edcf9c1f9282820192602092908290030181865afa158015610b62573d5f5f3e3d5ffd5b505050506040513d601f19601f82011682018060405250810190610b869190612b4b565b610ba3576040516312aecd8160e01b815260040160405180910390fd5b600a55565b60118181548110610bb7575f80fd5b5f91825260209091200154905081565b6004546001600160a01b03163314610bf257604051631a27eac360e11b815260040160405180910390fd5b610bfa611a0a565b565b610c046116d5565b6001600160a01b0316336001600160a01b031614158015610c35575060035461010090046001600160a01b03163314155b15610c535760405163ea8e4eb560e01b815260040160405180910390fd5b610c5b611958565b610c63611a56565b600480546040805163edcf9c1f60e01b815290516001600160a01b039092169263edcf9c1f9282820192602092908290030181865afa158015610ca8573d5f5f3e3d5ffd5b505050506040513d601f19601f82011682018060405250810190610ccc9190612b4b565b8015610d4f575060095460055460408051630a58ce2d60e11b8152905161ffff909316926001600160a01b03909216916314b19c5a916004808201926020929091908290030181865afa158015610d25573d5f5f3e3d5ffd5b505050506040513d601f19601f82011682018060405250810190610d499190612bcd565b61ffff16115b15610d6157610d5c611a7a565b610de8565b6001600954600160201b900460ff166003811115610d8157610d816129c7565b03610d8e57610d5c611ca7565b6002600954600160201b900460ff166003811115610dae57610dae6129c7565b03610dbb57610d5c611dfe565b6003600954600160201b900460ff166003811115610ddb57610ddb6129c7565b03610de857610de8611fc9565b6040517ff0094b59b7bc92e9fc611b14b5d3a34fe02530ac9bcf36c2c6f10147c3030c12905f90a16106536001600255565b60048054604051633821dad160e21b81526001600160a01b039091169163e0876b4491610e49913391016129f5565b602060405180830381865afa158015610e64573d5f5f3e3d5ffd5b505050506040513d601f19601f82011682018060405250810190610e889190612b4b565b610ea55760405163ea8e4eb560e01b815260040160405180910390fd5b805f03610ed257600654604051636b30633560e01b81526106af916001600160a01b0316906004016129f5565b600654610653906001600160a01b03168383611980565b60048054604051633821dad160e21b81526001600160a01b039091169163e0876b4491610f18913391016129f5565b602060405180830381865afa158015610f33573d5f5f3e3d5ffd5b505050506040513d601f19601f82011682018060405250810190610f579190612b4b565b610ed25760405163ea8e4eb560e01b815260040160405180910390fd5b600e8181548110610bb7575f80fd5b6004546001600160a01b03163314610fae5760405163ea8e4eb560e01b815260040160405180910390fd5b6001600160a01b0382161580610fcb57506001600160a01b038116155b15610fe95760405163d92e233d60e01b815260040160405180910390fd5b604051631ed3e4fb60e11b81526001600160a01b03821690633da7c9f6906110159085906004016129f5565b5f6040518083038186803b15801561102b575f5ffd5b505afa15801561103d573d5f5f3e3d5ffd5b505050506001600160a01b038281165f8181526008602052604080822080546001600160a01b0319169486169485179055517f2f2727c7b3d9ee55de5c114f0cb7997ac7251a4cbfca4f2b2dc6969d86cce4f49190a35050565b600480546040805163edcf9c1f60e01b815290515f936060936001600160a01b03169263edcf9c1f92818301926020928290030181865afa1580156110de573d5f5f3e3d5ffd5b505050506040513d601f19601f820116820180604052508101906111029190612b4b565b8015611185575060095460055460408051630a58ce2d60e11b8152905161ffff909316926001600160a01b03909216916314b19c5a916004808201926020929091908290030181865afa15801561115b573d5f5f3e3d5ffd5b505050506040513d601f19601f8201168201806040525081019061117f9190612bcd565b61ffff16115b156111935760019150611221565b6001600954600160201b900460ff1660038111156111b3576111b36129c7565b036111c15760019150611221565b6002600954600160201b900460ff1660038111156111e1576111e16129c7565b036111ef5760019150611221565b6003600954600160201b900460ff16600381111561120f5761120f6129c7565b0361121d5760019150611221565b5f91505b60405180602001604052805f81525090509250929050565b6112416119d8565b610bfa5f6122ee565b60048054604051633821dad160e21b815233926001600160a01b039092169163e0876b449161127b918591016129f5565b602060405180830381865afa158015611296573d5f5f3e3d5ffd5b505050506040513d601f19601f820116820180604052508101906112ba9190612b4b565b15801561133257506004805460405163f764eb4560e01b81526001600160a01b039091169163f764eb45916112f1918591016129f5565b602060405180830381865afa15801561130c573d5f5f3e3d5ffd5b505050506040513d601f19601f820116820180604052508101906113309190612b4b565b155b156113505760405163ea8e4eb560e01b815260040160405180910390fd5b815f0361137d57600654604051636b30633560e01b81526106af916001600160a01b0316906004016129f5565b5f816001600160a01b0316631f52692b6040518163ffffffff1660e01b8152600401602060405180830381865afa1580156113ba573d5f5f3e3d5ffd5b505050506040513d601f19601f820116820180604052508101906113de9190612bee565b6006549091506113f8906001600160a01b03168285611980565b505050565b6007546001600160a01b0316331461142857604051631a27eac360e11b815260040160405180910390fd5b805f0361145557600654604051636b30633560e01b81526106af916001600160a01b0316906004016129f5565b600554604080516302ad6a1760e11b815290515f926001600160a01b03169163055ad42e9160048083019260209291908290030181865afa15801561149c573d5f5f3e3d5ffd5b505050506040513d601f19601f820116820180604052508101906114c09190612b6a565b60048111156114d1576114d16129c7565b146114ef576040516312aecd8160e01b815260040160405180910390fd5b600654611507906001600160a01b0316333084612307565b6005546040516338b12abb60e21b8152600481018390526001600160a01b039091169063e2c4aaec906024015f604051808303815f87803b15801561154a575f5ffd5b505af115801561155c573d5f5f3e3d5ffd5b5050505050565b338061156d611701565b6001600160a01b031614611596578060405163118cdaa760e01b81526004016106af91906129f5565b610729816122ee565b600c818154811061073b575f80fd5b6004546001600160a01b031633146115d957604051631a27eac360e11b815260040160405180910390fd5b610bfa612340565b6115e96119d8565b8060ff165f0361160c576040516317dbc4cb60e21b815260040160405180910390fd5b600860ff82161115611631576040516317dbc4cb60e21b815260040160405180910390fd5b600480546040805163edcf9c1f60e01b815290516001600160a01b039092169263edcf9c1f9282820192602092908290030181865afa158015611676573d5f5f3e3d5ffd5b505050506040513d601f19601f8201168201806040525081019061169a9190612b4b565b6116b7576040516312aecd8160e01b815260040160405180910390fd5b6009805460ff909216620100000262ff000019909216919091179055565b5f546001600160a01b031690565b60108181548110610bb7575f80fd5b600d8181548110610bb7575f80fd5b6001546001600160a01b031690565b6117186119d8565b8060ff165f0361173b576040516317dbc4cb60e21b815260040160405180910390fd5b600560ff82161115611760576040516317dbc4cb60e21b815260040160405180910390fd5b600480546040805163edcf9c1f60e01b815290516001600160a01b039092169263edcf9c1f9282820192602092908290030181865afa1580156117a5573d5f5f3e3d5ffd5b505050506040513d601f19601f820116820180604052508101906117c99190612b4b565b6117e6576040516312aecd8160e01b815260040160405180910390fd5b600b805460ff191660ff92909216919091179055565b6118046119d8565b8060ff165f03611827576040516317dbc4cb60e21b815260040160405180910390fd5b600860ff8216111561184c576040516317dbc4cb60e21b815260040160405180910390fd5b600480546040805163edcf9c1f60e01b815290516001600160a01b039092169263edcf9c1f9282820192602092908290030181865afa158015611891573d5f5f3e3d5ffd5b505050506040513d601f19601f820116820180604052508101906118b59190612b4b565b6118d2576040516312aecd8160e01b815260040160405180910390fd5b6009805460ff90921663010000000263ff00000019909216919091179055565b6118fa6119d8565b600180546001600160a01b0319166001600160a01b0383169081179091556119206116d5565b6001600160a01b03167f38d16b8cac22d99fc7c124b9cd0de2d3fa1faef420bfe791d8c362d765e2270060405160405180910390a350565b600280540361197a57604051633ee5aeb560e01b815260040160405180910390fd5b60028055565b6113f883846001600160a01b031663a9059cbb85856040516024016119a6929190612c09565b604051602081830303815290604052915060e01b6020820180516001600160e01b03838183161783525050505061237d565b336119e16116d5565b6001600160a01b031614610bfa573360405163118cdaa760e01b81526004016106af91906129f5565b611a126123e0565b6003805460ff191690557f5db9ee0a495bf2e6ff9c91a7834c1ba4fdd244a5e8aa4e537bd38aeae4b073aa335b604051611a4c91906129f5565b60405180910390a1565b60035460ff1615610bfa5760405163d93c066560e01b815260040160405180910390fd5b60055460408051630a58ce2d60e11b815290515f926001600160a01b0316916314b19c5a9160048083019260209291908290030181865afa158015611ac1573d5f5f3e3d5ffd5b505050506040513d601f19601f82011682018060405250810190611ae59190612bcd565b600954909150611afa9061ffff166001612c22565b61ffff168161ffff161015611b0c5750565b6009805461ffff191661ffff8316179055611b28600c5f6128a3565b611b33600d5f6128a3565b611b3e600f5f6128a3565b611b4960105f6128a3565b611b54600e5f6128a3565b611b5f60115f6128a3565b5f601281905560055460408051631716e21f60e11b815290516001600160a01b0390921692632e2dc43e926004808401938290030181865afa158015611ba7573d5f5f3e3d5ffd5b505050506040513d5f823e601f3d908101601f19168201604052611bce9190810190612d70565b600c5f600d5f600f5f60105f600e5f60115f8c9190509080519060200190611bf79291906128be565b50508a51611c0a919060208d01906128be565b50508951611c1d919060208c01906128be565b50508851611c30919060208b0190612907565b50508751611c43919060208a01906128be565b50508651611c5691906020890190612907565b50506009805460ff60201b1916600160201b1790555050600c545f039250610729915050576009805460ff60201b1916600160211b179055600f545f0361072957506009805460ff60201b19169055565b6009545f90611cc89060ff620100008204811691600160281b900416612e80565b60095460ff91821692505f91611ce5916201000090041683612c22565b90506009600581819054906101000a900460ff16611d0290612ea3565b91906101000a81548160ff021916908360ff160217905550600c805490508161ffff161180611d365750600c5461ffff8216145b15611d545750600c546009805461ffff60201b1916600160211b1790555b815b8161ffff168161ffff1610156113f8575f600c8261ffff1681548110611d7e57611d7e612ec1565b5f918252602090912001546006546001600160a01b039182169250168103611da65750611df6565b5f600d8361ffff1681548110611dbe57611dbe612ec1565b905f5260205f2001549050611df38282600e8661ffff1681548110611de557611de5612ec1565b905f5260205f200154612403565b50505b600101611d56565b6009545f90611e1f9060ff620100008204811691600160281b900416612e80565b60095460ff91821692505f91611e3c916201000090041683612c22565b90506009600581819054906101000a900460ff16611e5990612ea3565b91906101000a81548160ff021916908360ff160217905550600f805490508161ffff161180611e8d5750600f5461ffff8216145b15611eab5750600f546009805461ffff60201b1916600360201b1790555b815b8161ffff168161ffff161015611f55575f600f8261ffff1681548110611ed557611ed5612ec1565b5f918252602090912001546006546001600160a01b039182169250168103611efd5750611f4d565b5f60108361ffff1681548110611f1557611f15612ec1565b905f5260205f2001549050611f4a828260118661ffff1681548110611f3c57611f3c612ec1565b905f5260205f2001546124fb565b50505b600101611ead565b50600f5461ffff821603610653576005546012546040516338b12abb60e21b81526001600160a01b039092169163e2c4aaec91611f989160040190815260200190565b5f604051808303815f87803b158015611faf575f5ffd5b505af1158015611fc1573d5f5f3e3d5ffd5b505050505050565b60048054604051631da09e4360e31b81525f926001600160a01b039092169163ed04f21891611ffa91859101612ed5565b5f60405180830381865afa158015612014573d5f5f3e3d5ffd5b505050506040513d5f823e601f3d908101601f1916820160405261203b9190810190612ee9565b6009549091505f906120609060ff63010000008204811691600160281b900416612e80565b60095460ff91821692505f9161207e91630100000090041683612c22565b90506009600581819054906101000a900460ff1661209b90612ea3565b91906101000a81548160ff021916908360ff16021790555082518161ffff1611806120ca575082518161ffff16145b156120e1575081516009805461ffff60201b191690555b815b8161ffff168161ffff1610156122e8575f848261ffff168151811061210a5761210a612ec1565b60209081029190910101516005546040516309958e4960e11b81529192505f916001600160a01b039091169063132b1c929061214a9085906004016129f5565b602060405180830381865afa158015612165573d5f5f3e3d5ffd5b505050506040513d601f19601f820116820180604052508101906121899190612b88565b60055460405163e2638ff160e01b81529192505f916001600160a01b039091169063e2638ff1906121be9086906004016129f5565b602060405180830381865afa1580156121d9573d5f5f3e3d5ffd5b505050506040513d601f19601f820116820180604052508101906121fd9190612b88565b905061220a8383836125f0565b6004805460405163d11f1c3560e01b81526001600160a01b039091169163d11f1c3591612239918791016129f5565b602060405180830381865afa158015612254573d5f5f3e3d5ffd5b505050506040513d601f19601f820116820180604052508101906122789190612b4b565b156122da576004805460405163e8ffccb760e01b81526001600160a01b039091169163e8ffccb7916122ac918791016129f5565b5f604051808303815f87803b1580156122c3575f5ffd5b505af11580156122d5573d5f5f3e3d5ffd5b505050505b5050508060010190506120e3565b50505050565b600180546001600160a01b031916905561072981612779565b6040516001600160a01b0384811660248301528381166044830152606482018390526122e89186918216906323b872dd906084016119a6565b612348611a56565b6003805460ff191660011790557f62e78cea01bee320cd4e420270b5ea74000d11b0c9f74754ebdbfc544b05a258611a3f3390565b5f5f60205f8451602086015f885af18061239c576040513d5f823e3d81fd5b50505f513d915081156123b35780600114156123c0565b6001600160a01b0384163b155b156122e85783604051635274afe760e01b81526004016106af91906129f5565b60035460ff16610bfa57604051638dfc202b60e01b815260040160405180910390fd5b6001600160a01b038084165f90815260086020526040902054168061243b57604051635048c2af60e11b815260040160405180910390fd5b61244f6001600160a01b03851682856127c8565b604051636c197ff560e01b81525f906001600160a01b03831690636c197ff59061247f9088908890600401612c09565b6020604051808303815f875af115801561249b573d5f5f3e3d5ffd5b505050506040513d601f19601f820116820180604052508101906124bf9190612b88565b90506124d56001600160a01b038616835f6127c8565b6124df8382612f22565b60125f8282546124ef9190612f41565b90915550505050505050565b6001600160a01b038084165f90815260086020526040902054168061253357604051635048c2af60e11b815260040160405180910390fd5b600b5461255c9082906125499060ff1685612f68565b6006546001600160a01b031691906127c8565b60405163cce7ec1360e01b81525f906001600160a01b0383169063cce7ec139061258c9088908890600401612c09565b6020604051808303815f875af11580156125a8573d5f5f3e3d5ffd5b505050506040513d601f19601f820116820180604052508101906125cc9190612b88565b6006549091506125e6906001600160a01b0316835f6127c8565b6124df8184612f22565b5f8390505f816001600160a01b0316630a605c6d6040518163ffffffff1660e01b8152600401602060405180830381865afa158015612631573d5f5f3e3d5ffd5b505050506040513d601f19601f820116820180604052508101906126559190612b88565b90505f826001600160a01b031663f64c6f326040518163ffffffff1660e01b8152600401602060405180830381865afa158015612694573d5f5f3e3d5ffd5b505050506040513d601f19601f820116820180604052508101906126b89190612b88565b905081156127165760405163493a6e2160e01b8152600481018590526001600160a01b0384169063493a6e21906024015f604051808303815f87803b1580156126ff575f5ffd5b505af1158015612711573d5f5f3e3d5ffd5b505050505b8015611fc15760405163e5e9719360e01b8152600481018690526001600160a01b0384169063e5e97193906024015f604051808303815f87803b15801561275b575f5ffd5b505af115801561276d573d5f5f3e3d5ffd5b50505050505050505050565b5f80546001600160a01b038381166001600160a01b0319831681178455604051919092169283917f8be0079c531659141344cd1fd0a4f28419497f9722a3daafe3b4186f6b6457e09190a35050565b5f836001600160a01b031663095ea7b384846040516024016127eb929190612c09565b604051602081830303815290604052915060e01b6020820180516001600160e01b03838183161783525050505090506128248482612858565b6122e85761284e84856001600160a01b031663095ea7b3865f6040516024016119a6929190612c09565b6122e8848261237d565b5f5f5f5f60205f8651602088015f8a5af192503d91505f519050828015612897575081156128895780600114612897565b5f866001600160a01b03163b115b93505050505b92915050565b5080545f8255905f5260205f2090810190610729919061295a565b828054828255905f5260205f209081019282156128f7579160200282015b828111156128f75782518255916020019190600101906128dc565b5061290392915061295a565b5090565b828054828255905f5260205f209081019282156128f7579160200282015b828111156128f757825182546001600160a01b0319166001600160a01b03909116178255602090920191600190910190612925565b5b80821115612903575f815560010161295b565b6001600160a01b0381168114610729575f5ffd5b5f5f60408385031215612993575f5ffd5b8235915060208301356129a58161296e565b809150509250929050565b5f602082840312156129c0575f5ffd5b5035919050565b634e487b7160e01b5f52602160045260245ffd5b60208101600483106129ef576129ef6129c7565b91905290565b6001600160a01b0391909116815260200190565b5f60208284031215612a19575f5ffd5b8135612a248161296e565b9392505050565b5f5f60208385031215612a3c575f5ffd5b82356001600160401b03811115612a51575f5ffd5b8301601f81018513612a61575f5ffd5b80356001600160401b03811115612a76575f5ffd5b856020828401011115612a87575f5ffd5b6020919091019590945092505050565b5f5f60408385031215612aa8575f5ffd5b8235612ab38161296e565b946020939093013593505050565b5f5f60408385031215612ad2575f5ffd5b8235612add8161296e565b915060208301356129a58161296e565b8215158152604060208201525f82518060408401528060208501606085015e5f606082850101526060601f19601f8301168401019150509392505050565b5f60208284031215612b3b575f5ffd5b813560ff81168114612a24575f5ffd5b5f60208284031215612b5b575f5ffd5b81518015158114612a24575f5ffd5b5f60208284031215612b7a575f5ffd5b815160058110612a24575f5ffd5b5f60208284031215612b98575f5ffd5b5051919050565b634e487b7160e01b5f52601160045260245ffd5b5f600160ff1b8201612bc757612bc7612b9f565b505f0390565b5f60208284031215612bdd575f5ffd5b815161ffff81168114612a24575f5ffd5b5f60208284031215612bfe575f5ffd5b8151612a248161296e565b6001600160a01b03929092168252602082015260400190565b61ffff818116838216019081111561289d5761289d612b9f565b634e487b7160e01b5f52604160045260245ffd5b604051601f8201601f191681016001600160401b0381118282101715612c7857612c78612c3c565b604052919050565b5f6001600160401b03821115612c9857612c98612c3c565b5060051b60200190565b5f82601f830112612cb1575f5ffd5b8151612cc4612cbf82612c80565b612c50565b8082825260208201915060208360051b860101925085831115612ce5575f5ffd5b602085015b83811015612d0b578051612cfd8161296e565b835260209283019201612cea565b5095945050505050565b5f82601f830112612d24575f5ffd5b8151612d32612cbf82612c80565b8082825260208201915060208360051b860101925085831115612d53575f5ffd5b602085015b83811015612d0b578051835260209283019201612d58565b5f5f5f5f5f5f60c08789031215612d85575f5ffd5b86516001600160401b03811115612d9a575f5ffd5b612da689828a01612ca2565b602089015190975090506001600160401b03811115612dc3575f5ffd5b612dcf89828a01612d15565b604089015190965090506001600160401b03811115612dec575f5ffd5b612df889828a01612ca2565b606089015190955090506001600160401b03811115612e15575f5ffd5b612e2189828a01612d15565b608089015190945090506001600160401b03811115612e3e575f5ffd5b612e4a89828a01612d15565b60a089015190935090506001600160401b03811115612e67575f5ffd5b612e7389828a01612d15565b9150509295509295509295565b60ff8181168382160290811690818114612e9c57612e9c612b9f565b5092915050565b5f60ff821660ff8103612eb857612eb8612b9f565b60010192915050565b634e487b7160e01b5f52603260045260245ffd5b60208101600283106129ef576129ef6129c7565b5f60208284031215612ef9575f5ffd5b81516001600160401b03811115612f0e575f5ffd5b612f1a84828501612ca2565b949350505050565b8181035f831280158383131683831282161715612e9c57612e9c612b9f565b8082018281125f831280158216821582161715612f6057612f60612b9f565b505092915050565b808202811582820484141761289d5761289d612b9f56fea26469706673582212202105bdf59be56078bc88fb18e83fea64a5922bbee4fbe314a985b347209d0b2964736f6c634300081c0033",
  "linkReferences": {},
  "deployedLinkReferences": {}
}