{
  "_format": "hh-sol-artifact-1",
  "contractName": "LiquidityOrchestrator",
  "sourceName": "contracts/orchestrators/LiquidityOrchestrator.sol",
  "abi": [
    {
      "inputs": [
        {
          "internalType": "address",
          "name": "target",
          "type": "address"
        }
      ],
      "name": "AddressEmptyCode",
      "type": "error"
    },
    {
      "inputs": [
        {
          "internalType": "address",
          "name": "implementation",
          "type": "address"
        }
      ],
      "name": "ERC1967InvalidImplementation",
      "type": "error"
    },
    {
      "inputs": [],
      "name": "ERC1967NonPayable",
      "type": "error"
    },
    {
      "inputs": [],
      "name": "FailedCall",
      "type": "error"
    },
    {
      "inputs": [],
      "name": "InvalidInitialization",
      "type": "error"
    },
    {
      "inputs": [],
      "name": "NotAuthorized",
      "type": "error"
    },
    {
      "inputs": [],
      "name": "NotInitializing",
      "type": "error"
    },
    {
      "inputs": [
        {
          "internalType": "address",
          "name": "owner",
          "type": "address"
        }
      ],
      "name": "OwnableInvalidOwner",
      "type": "error"
    },
    {
      "inputs": [
        {
          "internalType": "address",
          "name": "account",
          "type": "address"
        }
      ],
      "name": "OwnableUnauthorizedAccount",
      "type": "error"
    },
    {
      "inputs": [],
      "name": "TransferFailed",
      "type": "error"
    },
    {
      "inputs": [],
      "name": "UUPSUnauthorizedCallContext",
      "type": "error"
    },
    {
      "inputs": [
        {
          "internalType": "bytes32",
          "name": "slot",
          "type": "bytes32"
        }
      ],
      "name": "UUPSUnsupportedProxiableUUID",
      "type": "error"
    },
    {
      "inputs": [],
      "name": "ZeroAddress",
      "type": "error"
    },
    {
      "anonymous": false,
      "inputs": [
        {
          "indexed": true,
          "internalType": "address",
          "name": "newAutomationRegistry",
          "type": "address"
        }
      ],
      "name": "AutomationRegistryUpdated",
      "type": "event"
    },
    {
      "anonymous": false,
      "inputs": [
        {
          "indexed": false,
          "internalType": "uint64",
          "name": "version",
          "type": "uint64"
        }
      ],
      "name": "Initialized",
      "type": "event"
    },
    {
      "anonymous": false,
      "inputs": [
        {
          "indexed": true,
          "internalType": "address",
          "name": "previousOwner",
          "type": "address"
        },
        {
          "indexed": true,
          "internalType": "address",
          "name": "newOwner",
          "type": "address"
        }
      ],
      "name": "OwnershipTransferStarted",
      "type": "event"
    },
    {
      "anonymous": false,
      "inputs": [
        {
          "indexed": true,
          "internalType": "address",
          "name": "previousOwner",
          "type": "address"
        },
        {
          "indexed": true,
          "internalType": "address",
          "name": "newOwner",
          "type": "address"
        }
      ],
      "name": "OwnershipTransferred",
      "type": "event"
    },
    {
      "anonymous": false,
      "inputs": [],
      "name": "PortfolioRebalanced",
      "type": "event"
    },
    {
      "anonymous": false,
      "inputs": [
        {
          "indexed": true,
          "internalType": "address",
          "name": "implementation",
          "type": "address"
        }
      ],
      "name": "Upgraded",
      "type": "event"
    },
    {
      "inputs": [],
      "name": "UPGRADE_INTERFACE_VERSION",
      "outputs": [
        {
          "internalType": "string",
          "name": "",
          "type": "string"
        }
      ],
      "stateMutability": "view",
      "type": "function"
    },
    {
      "inputs": [],
      "name": "acceptOwnership",
      "outputs": [],
      "stateMutability": "nonpayable",
      "type": "function"
    },
    {
      "inputs": [],
      "name": "automationRegistry",
      "outputs": [
        {
          "internalType": "address",
          "name": "",
          "type": "address"
        }
      ],
      "stateMutability": "view",
      "type": "function"
    },
    {
      "inputs": [
        {
          "internalType": "bytes",
          "name": "",
          "type": "bytes"
        }
      ],
      "name": "checkUpkeep",
      "outputs": [
        {
          "internalType": "bool",
          "name": "upkeepNeeded",
          "type": "bool"
        },
        {
          "internalType": "bytes",
          "name": "performData",
          "type": "bytes"
        }
      ],
      "stateMutability": "view",
      "type": "function"
    },
    {
      "inputs": [],
      "name": "config",
      "outputs": [
        {
          "internalType": "contract IOrionConfig",
          "name": "",
          "type": "address"
        }
      ],
      "stateMutability": "view",
      "type": "function"
    },
    {
      "inputs": [
        {
          "internalType": "address",
          "name": "initialOwner",
          "type": "address"
        },
        {
          "internalType": "address",
          "name": "automationRegistry_",
          "type": "address"
        },
        {
          "internalType": "address",
          "name": "config_",
          "type": "address"
        }
      ],
      "name": "initialize",
      "outputs": [],
      "stateMutability": "nonpayable",
      "type": "function"
    },
    {
      "inputs": [],
      "name": "internalStatesOrchestrator",
      "outputs": [
        {
          "internalType": "contract IInternalStateOrchestrator",
          "name": "",
          "type": "address"
        }
      ],
      "stateMutability": "view",
      "type": "function"
    },
    {
      "inputs": [],
      "name": "lastProcessedEpoch",
      "outputs": [
        {
          "internalType": "uint256",
          "name": "",
          "type": "uint256"
        }
      ],
      "stateMutability": "view",
      "type": "function"
    },
    {
      "inputs": [],
      "name": "owner",
      "outputs": [
        {
          "internalType": "address",
          "name": "",
          "type": "address"
        }
      ],
      "stateMutability": "view",
      "type": "function"
    },
    {
      "inputs": [],
      "name": "pendingOwner",
      "outputs": [
        {
          "internalType": "address",
          "name": "",
          "type": "address"
        }
      ],
      "stateMutability": "view",
      "type": "function"
    },
    {
      "inputs": [
        {
          "internalType": "bytes",
          "name": "",
          "type": "bytes"
        }
      ],
      "name": "performUpkeep",
      "outputs": [],
      "stateMutability": "nonpayable",
      "type": "function"
    },
    {
      "inputs": [],
      "name": "proxiableUUID",
      "outputs": [
        {
          "internalType": "bytes32",
          "name": "",
          "type": "bytes32"
        }
      ],
      "stateMutability": "view",
      "type": "function"
    },
    {
      "inputs": [],
      "name": "rebalancingEngine",
      "outputs": [
        {
          "internalType": "contract IRebalancingEngine",
          "name": "",
          "type": "address"
        }
      ],
      "stateMutability": "view",
      "type": "function"
    },
    {
      "inputs": [],
      "name": "renounceOwnership",
      "outputs": [],
      "stateMutability": "nonpayable",
      "type": "function"
    },
    {
      "inputs": [
        {
          "internalType": "address",
          "name": "user",
          "type": "address"
        },
        {
          "internalType": "uint256",
          "name": "amount",
          "type": "uint256"
        }
      ],
      "name": "returnDepositFunds",
      "outputs": [],
      "stateMutability": "nonpayable",
      "type": "function"
    },
    {
      "inputs": [
        {
          "internalType": "address",
          "name": "newOwner",
          "type": "address"
        }
      ],
      "name": "transferOwnership",
      "outputs": [],
      "stateMutability": "nonpayable",
      "type": "function"
    },
    {
      "inputs": [
        {
          "internalType": "address",
          "name": "newAutomationRegistry",
          "type": "address"
        }
      ],
      "name": "updateAutomationRegistry",
      "outputs": [],
      "stateMutability": "nonpayable",
      "type": "function"
    },
    {
      "inputs": [
        {
          "internalType": "address",
          "name": "newConfig",
          "type": "address"
        }
      ],
      "name": "updateConfig",
      "outputs": [],
      "stateMutability": "nonpayable",
      "type": "function"
    },
    {
      "inputs": [
        {
          "internalType": "address",
          "name": "newImplementation",
          "type": "address"
        },
        {
          "internalType": "bytes",
          "name": "data",
          "type": "bytes"
        }
      ],
      "name": "upgradeToAndCall",
      "outputs": [],
      "stateMutability": "payable",
      "type": "function"
    }
  ],
  "bytecode": "0x60a0604052306080523480156012575f5ffd5b50608051611c026100395f395f81816111c5015281816111ee01526113320152611c025ff3fe608060405260043610610110575f3560e01c80636e04ff0d1161009d578063ad3cb1cc11610062578063ad3cb1cc146102c8578063c0c53b8b14610305578063e30c397814610324578063ee6713df14610338578063f2fde38b1461034d575f5ffd5b80636e04ff0d14610240578063715018a61461026d57806379502c551461028157806379ba5097146102a05780638da5cb5b146102b4575f5ffd5b80634f1ef286116100e35780634f1ef286146101af57806351edffb1146101c257806352d1902d146101e15780635dc228a0146102035780636cc919c814610221575f5ffd5b806314b5d07f146101145780632350c64a14610135578063348ec5c8146101715780634585e33b14610190575b5f5ffd5b34801561011f575f5ffd5b5061013361012e366004611690565b61036c565b005b348015610140575f5ffd5b50600354610154906001600160a01b031681565b6040516001600160a01b0390911681526020015b60405180910390f35b34801561017c575f5ffd5b50600254610154906001600160a01b031681565b34801561019b575f5ffd5b506101336101aa3660046116ab565b6103e2565b6101336101bd36600461175b565b6109e5565b3480156101cd575f5ffd5b506101336101dc366004611800565b610a00565b3480156101ec575f5ffd5b506101f5610cab565b604051908152602001610168565b34801561020e575f5ffd5b505f54610154906001600160a01b031681565b34801561022c575f5ffd5b5061013361023b366004611690565b610cc6565b34801561024b575f5ffd5b5061025f61025a3660046116ab565b610d17565b604051610168929190611858565b348015610278575f5ffd5b50610133610dad565b34801561028c575f5ffd5b50600154610154906001600160a01b031681565b3480156102ab575f5ffd5b50610133610dc0565b3480156102bf575f5ffd5b50610154610e0d565b3480156102d3575f5ffd5b506102f8604051806040016040528060058152602001640352e302e360dc1b81525081565b604051610168919061187a565b348015610310575f5ffd5b5061013361031f36600461188c565b610e41565b34801561032f575f5ffd5b506101546110db565b348015610343575f5ffd5b506101f560045481565b348015610358575f5ffd5b50610133610367366004611690565b611103565b610374611188565b6001600160a01b03811661039b5760405163d92e233d60e01b815260040160405180910390fd5b5f80546001600160a01b0319166001600160a01b038316908117825560405190917f6cc7ebdb6c8c53291c5ae16148cab9b049d23bf5bde5632900b40edff56fcb4391a250565b5f546001600160a01b0316331461040c5760405163ea8e4eb560e01b815260040160405180910390fd5b60025460408051630a58ce2d60e11b815290515f926001600160a01b0316916314b19c5a9160048083019260209291908290030181865afa158015610453573d5f5f3e3d5ffd5b505050506040513d601f19601f8201168201806040525081019061047791906118d4565b9050600454811161048757505050565b6004818155600254604080516318596bb160e31b815290515f9384936001600160a01b03169263c2cb5d88928183019286928290030181865afa1580156104d0573d5f5f3e3d5ffd5b505050506040513d5f823e601f3d908101601f191682016040526104f79190810190611980565b90925090505f5b82518110156105b3575f83828151811061051a5761051a611a3c565b602002602001015190505f83838151811061053757610537611a3c565b602090810291909101015160035460405163549503e560e01b81526001600160a01b0385811660048301526024820184905292935091169063549503e5906044015f604051808303815f87803b15801561058f575f5ffd5b505af11580156105a1573d5f5f3e3d5ffd5b5050600190940193506104fe92505050565b505f5f60025f9054906101000a90046001600160a01b03166001600160a01b031663a08b82d76040518163ffffffff1660e01b81526004015f60405180830381865afa158015610605573d5f5f3e3d5ffd5b505050506040513d5f823e601f3d908101601f1916820160405261062c9190810190611980565b90925090505f5b82518110156106e8575f83828151811061064f5761064f611a3c565b602002602001015190505f83838151811061066c5761066c611a3c565b60209081029190910101516003546040516346f4b81b60e11b81526001600160a01b03858116600483015260248201849052929350911690638de97036906044015f604051808303815f87803b1580156106c4575f5ffd5b505af11580156106d6573d5f5f3e3d5ffd5b50506001909401935061063392505050565b50600154604051631da09e4360e31b81525f916001600160a01b03169063ed04f21890610719908490600401611a50565b5f60405180830381865afa158015610733573d5f5f3e3d5ffd5b505050506040513d5f823e601f3d908101601f1916820160405261075a9190810190611a76565b80519091505f5b8181101561084a575f83828151811061077c5761077c611a3c565b60200260200101519050806001600160a01b031663105444945f6001600160401b038111156107ad576107ad611717565b6040519080825280602002602001820160405280156107f157816020015b604080518082019091525f80825260208201528152602001906001900390816107cb5790505b505f6040518363ffffffff1660e01b8152600401610810929190611aa7565b5f604051808303815f87803b158015610827575f5ffd5b505af1158015610839573d5f5f3e3d5ffd5b505060019093019250610761915050565b5060018054604051631da09e4360e31b81525f926001600160a01b039092169163ed04f2189161087d9190600401611a50565b5f60405180830381865afa158015610897573d5f5f3e3d5ffd5b505050506040513d5f823e601f3d908101601f191682016040526108be9190810190611a76565b8051925090505f5b828110156109af575f8282815181106108e1576108e1611a3c565b60200260200101519050806001600160a01b031663985ba4ae5f6001600160401b0381111561091257610912611717565b60405190808252806020026020018201604052801561095657816020015b604080518082019091525f80825260208201528152602001906001900390816109305790505b505f6040518363ffffffff1660e01b8152600401610975929190611b0e565b5f604051808303815f87803b15801561098c575f5ffd5b505af115801561099e573d5f5f3e3d5ffd5b5050600190930192506108c6915050565b506040517ff0094b59b7bc92e9fc611b14b5d3a34fe02530ac9bcf36c2c6f10147c3030c12905f90a150505050505050505b5050565b6109ed6111ba565b6109f68261125e565b6109e18282611266565b600154604051631da09e4360e31b81525f916001600160a01b03169063ed04f21890610a30908490600401611a50565b5f60405180830381865afa158015610a4a573d5f5f3e3d5ffd5b505050506040513d5f823e601f3d908101601f19168201604052610a719190810190611a76565b60018054604051631da09e4360e31b81529293505f926001600160a01b039091169163ed04f21891610aa69190600401611a50565b5f60405180830381865afa158015610ac0573d5f5f3e3d5ffd5b505050506040513d5f823e601f3d908101601f19168201604052610ae79190810190611a76565b90505f805b8351811015610b3857336001600160a01b0316848281518110610b1157610b11611a3c565b60200260200101516001600160a01b031603610b305760019150610b38565b600101610aec565b5080610b8e575f5b8251811015610b8c57336001600160a01b0316838281518110610b6557610b65611a3c565b60200260200101516001600160a01b031603610b845760019150610b8c565b600101610b40565b505b80610bac5760405163ea8e4eb560e01b815260040160405180910390fd5b5f336001600160a01b03166338d52e0f6040518163ffffffff1660e01b8152600401602060405180830381865afa158015610be9573d5f5f3e3d5ffd5b505050506040513d601f19601f82011682018060405250810190610c0d9190611b5c565b60405163a9059cbb60e01b81526001600160a01b038881166004830152602482018890529192505f9183169063a9059cbb906044016020604051808303815f875af1158015610c5e573d5f5f3e3d5ffd5b505050506040513d601f19601f82011682018060405250810190610c829190611b77565b905080610ca2576040516312171d8360e31b815260040160405180910390fd5b50505050505050565b5f610cb4611327565b505f516020611bad5f395f51905f5290565b610cce611188565b6001600160a01b038116610cf55760405163d92e233d60e01b815260040160405180910390fd5b600180546001600160a01b0319166001600160a01b0392909216919091179055565b5f60605f60025f9054906101000a90046001600160a01b03166001600160a01b03166314b19c5a6040518163ffffffff1660e01b8152600401602060405180830381865afa158015610d6b573d5f5f3e3d5ffd5b505050506040513d601f19601f82011682018060405250810190610d8f91906118d4565b60045460408051602081019091525f81529111969095509350505050565b610db5611188565b610dbe5f611370565b565b3380610dca6110db565b6001600160a01b031614610e015760405163118cdaa760e01b81526001600160a01b03821660048201526024015b60405180910390fd5b610e0a81611370565b50565b5f807f9016d09d72d40fdae2fd8ceac6b6234c7706214fd39c1cd1e609a0528c1993005b546001600160a01b031692915050565b7ff0c57e16840df040f15088dc2f81fe391c3923bec73e23a9662efc9c229c6a008054600160401b810460ff1615906001600160401b03165f81158015610e855750825b90505f826001600160401b03166001148015610ea05750303b155b905081158015610eae575080155b15610ecc5760405163f92ee8a960e01b815260040160405180910390fd5b845467ffffffffffffffff191660011785558315610ef657845460ff60401b1916600160401b1785555b610eff886113a8565b610f076113b9565b610f0f6113b9565b6001600160a01b038716610f365760405163d92e233d60e01b815260040160405180910390fd5b6001600160a01b038616610f5d5760405163d92e233d60e01b815260040160405180910390fd5b5f80546001600160a01b03808a166001600160a01b03199283161790925560018054928916929091168217905560408051630691d8b960e31b8152905163348ec5c8916004808201926020929091908290030181865afa158015610fc3573d5f5f3e3d5ffd5b505050506040513d601f19601f82011682018060405250810190610fe79190611b5c565b600280546001600160a01b0319166001600160a01b03928316179055600154604080516311a8632560e11b815290519190921691632350c64a9160048083019260209291908290030181865afa158015611043573d5f5f3e3d5ffd5b505050506040513d601f19601f820116820180604052508101906110679190611b5c565b600380546001600160a01b0319166001600160a01b03929092169190911790555f60045583156110d157845460ff60401b19168555604051600181527fc7f505b2f371ae2175ee4913f4499e1f2633a7b5936321eed1cdaeb6115181d29060200160405180910390a15b5050505050505050565b5f807f237e158222e3e6968b72b9db0d8043aacf074ad9f650f0d1606b4d82ee432c00610e31565b61110b611188565b7f237e158222e3e6968b72b9db0d8043aacf074ad9f650f0d1606b4d82ee432c0080546001600160a01b0319166001600160a01b038316908117825561114f610e0d565b6001600160a01b03167f38d16b8cac22d99fc7c124b9cd0de2d3fa1faef420bfe791d8c362d765e2270060405160405180910390a35050565b33611191610e0d565b6001600160a01b031614610dbe5760405163118cdaa760e01b8152336004820152602401610df8565b306001600160a01b037f000000000000000000000000000000000000000000000000000000000000000016148061124057507f00000000000000000000000000000000000000000000000000000000000000006001600160a01b03166112345f516020611bad5f395f51905f52546001600160a01b031690565b6001600160a01b031614155b15610dbe5760405163703e46dd60e11b815260040160405180910390fd5b610e0a611188565b816001600160a01b03166352d1902d6040518163ffffffff1660e01b8152600401602060405180830381865afa9250505080156112c0575060408051601f3d908101601f191682019092526112bd918101906118d4565b60015b6112e857604051634c9c8ce360e01b81526001600160a01b0383166004820152602401610df8565b5f516020611bad5f395f51905f52811461131857604051632a87526960e21b815260048101829052602401610df8565b61132283836113c1565b505050565b306001600160a01b037f00000000000000000000000000000000000000000000000000000000000000001614610dbe5760405163703e46dd60e11b815260040160405180910390fd5b7f237e158222e3e6968b72b9db0d8043aacf074ad9f650f0d1606b4d82ee432c0080546001600160a01b03191681556109e182611416565b6113b0611486565b610e0a816114cf565b610dbe611486565b6113ca82611500565b6040516001600160a01b038316907fbc7cd75a20ee27fd9adebab32041f755214dbc6bffa90cc0225b39da2e5c2d3b905f90a280511561140e576113228282611563565b6109e16115d5565b7f9016d09d72d40fdae2fd8ceac6b6234c7706214fd39c1cd1e609a0528c19930080546001600160a01b031981166001600160a01b03848116918217845560405192169182907f8be0079c531659141344cd1fd0a4f28419497f9722a3daafe3b4186f6b6457e0905f90a3505050565b7ff0c57e16840df040f15088dc2f81fe391c3923bec73e23a9662efc9c229c6a0054600160401b900460ff16610dbe57604051631afcd79f60e31b815260040160405180910390fd5b6114d7611486565b6001600160a01b038116610e0157604051631e4fbdf760e01b81525f6004820152602401610df8565b806001600160a01b03163b5f0361153557604051634c9c8ce360e01b81526001600160a01b0382166004820152602401610df8565b5f516020611bad5f395f51905f5280546001600160a01b0319166001600160a01b0392909216919091179055565b60605f5f846001600160a01b03168460405161157f9190611b96565b5f60405180830381855af49150503d805f81146115b7576040519150601f19603f3d011682016040523d82523d5f602084013e6115bc565b606091505b50915091506115cc8583836115f4565b95945050505050565b3415610dbe5760405163b398979f60e01b815260040160405180910390fd5b6060826116095761160482611653565b61164c565b815115801561162057506001600160a01b0384163b155b1561164957604051639996b31560e01b81526001600160a01b0385166004820152602401610df8565b50805b9392505050565b8051156116635780518082602001fd5b60405163d6bda27560e01b815260040160405180910390fd5b6001600160a01b0381168114610e0a575f5ffd5b5f602082840312156116a0575f5ffd5b813561164c8161167c565b5f5f602083850312156116bc575f5ffd5b82356001600160401b038111156116d1575f5ffd5b8301601f810185136116e1575f5ffd5b80356001600160401b038111156116f6575f5ffd5b856020828401011115611707575f5ffd5b6020919091019590945092505050565b634e487b7160e01b5f52604160045260245ffd5b604051601f8201601f191681016001600160401b038111828210171561175357611753611717565b604052919050565b5f5f6040838503121561176c575f5ffd5b82356117778161167c565b915060208301356001600160401b03811115611791575f5ffd5b8301601f810185136117a1575f5ffd5b80356001600160401b038111156117ba576117ba611717565b6117cd601f8201601f191660200161172b565b8181528660208385010111156117e1575f5ffd5b816020840160208301375f602083830101528093505050509250929050565b5f5f60408385031215611811575f5ffd5b823561181c8161167c565b946020939093013593505050565b5f81518084528060208401602086015e5f602082860101526020601f19601f83011685010191505092915050565b8215158152604060208201525f611872604083018461182a565b949350505050565b602081525f61164c602083018461182a565b5f5f5f6060848603121561189e575f5ffd5b83356118a98161167c565b925060208401356118b98161167c565b915060408401356118c98161167c565b809150509250925092565b5f602082840312156118e4575f5ffd5b5051919050565b5f6001600160401b0382111561190357611903611717565b5060051b60200190565b5f82601f83011261191c575f5ffd5b815161192f61192a826118eb565b61172b565b8082825260208201915060208360051b860101925085831115611950575f5ffd5b602085015b838110156119765780516119688161167c565b835260209283019201611955565b5095945050505050565b5f5f60408385031215611991575f5ffd5b82516001600160401b038111156119a6575f5ffd5b6119b28582860161190d565b92505060208301516001600160401b038111156119cd575f5ffd5b8301601f810185136119dd575f5ffd5b80516119eb61192a826118eb565b8082825260208201915060208360051b850101925087831115611a0c575f5ffd5b6020840193505b82841015611a2e578351825260209384019390910190611a13565b809450505050509250929050565b634e487b7160e01b5f52603260045260245ffd5b6020810160028310611a7057634e487b7160e01b5f52602160045260245ffd5b91905290565b5f60208284031215611a86575f5ffd5b81516001600160401b03811115611a9b575f5ffd5b6118728482850161190d565b604080825283519082018190525f9060208501906060840190835b81811015611afb57835180516001600160a01b0316845260209081015163ffffffff168185015290930192604090920191600101611ac2565b5050602093909301939093525092915050565b604080825283519082018190525f9060208501906060840190835b81811015611afb57835180516001600160a01b031684526020908101518185015290930192604090920191600101611b29565b5f60208284031215611b6c575f5ffd5b815161164c8161167c565b5f60208284031215611b87575f5ffd5b8151801515811461164c575f5ffd5b5f82518060208501845e5f92019182525091905056fe360894a13ba1a3210667c828492db98dca3e2076cc3735a920a3ca505d382bbca2646970667358221220b3a427e6b8c768034e55e00c5471165347c4d22bcf5303470acd80c6f4c7076264736f6c634300081c0033",
  "linkReferences": {},
  "deployedLinkReferences": {}
}