{
  "_format": "hh-sol-artifact-1",
  "contractName": "LiquidityOrchestrator",
  "sourceName": "contracts/orchestrators/LiquidityOrchestrator.sol",
  "abi": [
    {
      "inputs": [
        {
          "internalType": "address",
          "name": "initialOwner",
          "type": "address"
        },
        {
          "internalType": "address",
          "name": "config_",
          "type": "address"
        },
        {
          "internalType": "address",
          "name": "automationRegistry_",
          "type": "address"
        }
      ],
      "stateMutability": "nonpayable",
      "type": "constructor"
    },
    {
      "inputs": [],
      "name": "AdapterNotSet",
      "type": "error"
    },
    {
      "inputs": [],
      "name": "AlreadyRegistered",
      "type": "error"
    },
    {
      "inputs": [
        {
          "internalType": "address",
          "name": "asset",
          "type": "address"
        }
      ],
      "name": "AmountMustBeGreaterThanZero",
      "type": "error"
    },
    {
      "inputs": [],
      "name": "InsufficientAmount",
      "type": "error"
    },
    {
      "inputs": [],
      "name": "InvalidArguments",
      "type": "error"
    },
    {
      "inputs": [],
      "name": "InvalidState",
      "type": "error"
    },
    {
      "inputs": [],
      "name": "NotAuthorized",
      "type": "error"
    },
    {
      "inputs": [
        {
          "internalType": "address",
          "name": "owner",
          "type": "address"
        }
      ],
      "name": "OwnableInvalidOwner",
      "type": "error"
    },
    {
      "inputs": [
        {
          "internalType": "address",
          "name": "account",
          "type": "address"
        }
      ],
      "name": "OwnableUnauthorizedAccount",
      "type": "error"
    },
    {
      "inputs": [],
      "name": "ReentrancyGuardReentrantCall",
      "type": "error"
    },
    {
      "inputs": [
        {
          "internalType": "address",
          "name": "token",
          "type": "address"
        }
      ],
      "name": "SafeERC20FailedOperation",
      "type": "error"
    },
    {
      "inputs": [],
      "name": "SystemNotIdle",
      "type": "error"
    },
    {
      "inputs": [],
      "name": "UnauthorizedAccess",
      "type": "error"
    },
    {
      "inputs": [],
      "name": "ZeroAddress",
      "type": "error"
    },
    {
      "anonymous": false,
      "inputs": [
        {
          "indexed": true,
          "internalType": "address",
          "name": "newAutomationRegistry",
          "type": "address"
        }
      ],
      "name": "AutomationRegistryUpdated",
      "type": "event"
    },
    {
      "anonymous": false,
      "inputs": [
        {
          "indexed": true,
          "internalType": "address",
          "name": "asset",
          "type": "address"
        },
        {
          "indexed": true,
          "internalType": "address",
          "name": "adapter",
          "type": "address"
        }
      ],
      "name": "ExecutionAdapterSet",
      "type": "event"
    },
    {
      "anonymous": false,
      "inputs": [
        {
          "indexed": true,
          "internalType": "address",
          "name": "previousOwner",
          "type": "address"
        },
        {
          "indexed": true,
          "internalType": "address",
          "name": "newOwner",
          "type": "address"
        }
      ],
      "name": "OwnershipTransferred",
      "type": "event"
    },
    {
      "anonymous": false,
      "inputs": [],
      "name": "PortfolioRebalanced",
      "type": "event"
    },
    {
      "inputs": [],
      "name": "MAX_BUY_APPROVAL_MULTIPLIER",
      "outputs": [
        {
          "internalType": "uint8",
          "name": "",
          "type": "uint8"
        }
      ],
      "stateMutability": "view",
      "type": "function"
    },
    {
      "inputs": [],
      "name": "MAX_EXECUTION_MINIBATCH_SIZE",
      "outputs": [
        {
          "internalType": "uint8",
          "name": "",
          "type": "uint8"
        }
      ],
      "stateMutability": "view",
      "type": "function"
    },
    {
      "inputs": [],
      "name": "MAX_MINIBATCH_SIZE",
      "outputs": [
        {
          "internalType": "uint8",
          "name": "",
          "type": "uint8"
        }
      ],
      "stateMutability": "view",
      "type": "function"
    },
    {
      "inputs": [],
      "name": "admin",
      "outputs": [
        {
          "internalType": "address",
          "name": "",
          "type": "address"
        }
      ],
      "stateMutability": "view",
      "type": "function"
    },
    {
      "inputs": [],
      "name": "automationRegistry",
      "outputs": [
        {
          "internalType": "address",
          "name": "",
          "type": "address"
        }
      ],
      "stateMutability": "view",
      "type": "function"
    },
    {
      "inputs": [],
      "name": "buyApprovalMultiplier",
      "outputs": [
        {
          "internalType": "uint8",
          "name": "",
          "type": "uint8"
        }
      ],
      "stateMutability": "view",
      "type": "function"
    },
    {
      "inputs": [
        {
          "internalType": "uint256",
          "name": "",
          "type": "uint256"
        }
      ],
      "name": "buyingAmounts",
      "outputs": [
        {
          "internalType": "uint256",
          "name": "",
          "type": "uint256"
        }
      ],
      "stateMutability": "view",
      "type": "function"
    },
    {
      "inputs": [
        {
          "internalType": "uint256",
          "name": "",
          "type": "uint256"
        }
      ],
      "name": "buyingEstimatedUnderlyingAmounts",
      "outputs": [
        {
          "internalType": "uint256",
          "name": "",
          "type": "uint256"
        }
      ],
      "stateMutability": "view",
      "type": "function"
    },
    {
      "inputs": [
        {
          "internalType": "uint256",
          "name": "",
          "type": "uint256"
        }
      ],
      "name": "buyingTokens",
      "outputs": [
        {
          "internalType": "address",
          "name": "",
          "type": "address"
        }
      ],
      "stateMutability": "view",
      "type": "function"
    },
    {
      "inputs": [
        {
          "internalType": "bytes",
          "name": "",
          "type": "bytes"
        }
      ],
      "name": "checkUpkeep",
      "outputs": [
        {
          "internalType": "bool",
          "name": "upkeepNeeded",
          "type": "bool"
        },
        {
          "internalType": "bytes",
          "name": "performData",
          "type": "bytes"
        }
      ],
      "stateMutability": "view",
      "type": "function"
    },
    {
      "inputs": [
        {
          "internalType": "uint256",
          "name": "amount",
          "type": "uint256"
        }
      ],
      "name": "claimProtocolFees",
      "outputs": [],
      "stateMutability": "nonpayable",
      "type": "function"
    },
    {
      "inputs": [],
      "name": "config",
      "outputs": [
        {
          "internalType": "contract IOrionConfig",
          "name": "",
          "type": "address"
        }
      ],
      "stateMutability": "view",
      "type": "function"
    },
    {
      "inputs": [],
      "name": "currentMinibatchIndex",
      "outputs": [
        {
          "internalType": "uint8",
          "name": "",
          "type": "uint8"
        }
      ],
      "stateMutability": "view",
      "type": "function"
    },
    {
      "inputs": [],
      "name": "currentPhase",
      "outputs": [
        {
          "internalType": "enum ILiquidityOrchestrator.LiquidityUpkeepPhase",
          "name": "",
          "type": "uint8"
        }
      ],
      "stateMutability": "view",
      "type": "function"
    },
    {
      "inputs": [],
      "name": "deltaBufferAmount",
      "outputs": [
        {
          "internalType": "int256",
          "name": "",
          "type": "int256"
        }
      ],
      "stateMutability": "view",
      "type": "function"
    },
    {
      "inputs": [
        {
          "internalType": "uint256",
          "name": "amount",
          "type": "uint256"
        }
      ],
      "name": "depositLiquidity",
      "outputs": [],
      "stateMutability": "nonpayable",
      "type": "function"
    },
    {
      "inputs": [
        {
          "internalType": "address",
          "name": "",
          "type": "address"
        }
      ],
      "name": "executionAdapterOf",
      "outputs": [
        {
          "internalType": "contract IExecutionAdapter",
          "name": "",
          "type": "address"
        }
      ],
      "stateMutability": "view",
      "type": "function"
    },
    {
      "inputs": [],
      "name": "executionMinibatchSize",
      "outputs": [
        {
          "internalType": "uint8",
          "name": "",
          "type": "uint8"
        }
      ],
      "stateMutability": "view",
      "type": "function"
    },
    {
      "inputs": [],
      "name": "internalStatesOrchestrator",
      "outputs": [
        {
          "internalType": "contract IInternalStateOrchestrator",
          "name": "",
          "type": "address"
        }
      ],
      "stateMutability": "view",
      "type": "function"
    },
    {
      "inputs": [],
      "name": "lastProcessedEpoch",
      "outputs": [
        {
          "internalType": "uint16",
          "name": "",
          "type": "uint16"
        }
      ],
      "stateMutability": "view",
      "type": "function"
    },
    {
      "inputs": [],
      "name": "minibatchSize",
      "outputs": [
        {
          "internalType": "uint8",
          "name": "",
          "type": "uint8"
        }
      ],
      "stateMutability": "view",
      "type": "function"
    },
    {
      "inputs": [],
      "name": "owner",
      "outputs": [
        {
          "internalType": "address",
          "name": "",
          "type": "address"
        }
      ],
      "stateMutability": "view",
      "type": "function"
    },
    {
      "inputs": [
        {
          "internalType": "bytes",
          "name": "",
          "type": "bytes"
        }
      ],
      "name": "performUpkeep",
      "outputs": [],
      "stateMutability": "nonpayable",
      "type": "function"
    },
    {
      "inputs": [],
      "name": "renounceOwnership",
      "outputs": [],
      "stateMutability": "nonpayable",
      "type": "function"
    },
    {
      "inputs": [
        {
          "internalType": "address",
          "name": "user",
          "type": "address"
        },
        {
          "internalType": "uint256",
          "name": "amount",
          "type": "uint256"
        }
      ],
      "name": "returnDepositFunds",
      "outputs": [],
      "stateMutability": "nonpayable",
      "type": "function"
    },
    {
      "inputs": [
        {
          "internalType": "uint256",
          "name": "",
          "type": "uint256"
        }
      ],
      "name": "sellingAmounts",
      "outputs": [
        {
          "internalType": "uint256",
          "name": "",
          "type": "uint256"
        }
      ],
      "stateMutability": "view",
      "type": "function"
    },
    {
      "inputs": [
        {
          "internalType": "uint256",
          "name": "",
          "type": "uint256"
        }
      ],
      "name": "sellingEstimatedUnderlyingAmounts",
      "outputs": [
        {
          "internalType": "uint256",
          "name": "",
          "type": "uint256"
        }
      ],
      "stateMutability": "view",
      "type": "function"
    },
    {
      "inputs": [
        {
          "internalType": "uint256",
          "name": "",
          "type": "uint256"
        }
      ],
      "name": "sellingTokens",
      "outputs": [
        {
          "internalType": "address",
          "name": "",
          "type": "address"
        }
      ],
      "stateMutability": "view",
      "type": "function"
    },
    {
      "inputs": [
        {
          "internalType": "address",
          "name": "asset",
          "type": "address"
        },
        {
          "internalType": "contract IExecutionAdapter",
          "name": "adapter",
          "type": "address"
        }
      ],
      "name": "setExecutionAdapter",
      "outputs": [],
      "stateMutability": "nonpayable",
      "type": "function"
    },
    {
      "inputs": [
        {
          "internalType": "address",
          "name": "_internalStatesOrchestrator",
          "type": "address"
        }
      ],
      "name": "setInternalStatesOrchestrator",
      "outputs": [],
      "stateMutability": "nonpayable",
      "type": "function"
    },
    {
      "inputs": [
        {
          "internalType": "uint256",
          "name": "_targetBufferRatio",
          "type": "uint256"
        }
      ],
      "name": "setTargetBufferRatio",
      "outputs": [],
      "stateMutability": "nonpayable",
      "type": "function"
    },
    {
      "inputs": [],
      "name": "targetBufferRatio",
      "outputs": [
        {
          "internalType": "uint256",
          "name": "",
          "type": "uint256"
        }
      ],
      "stateMutability": "view",
      "type": "function"
    },
    {
      "inputs": [
        {
          "internalType": "uint256",
          "name": "amount",
          "type": "uint256"
        }
      ],
      "name": "transferCuratorFees",
      "outputs": [],
      "stateMutability": "nonpayable",
      "type": "function"
    },
    {
      "inputs": [
        {
          "internalType": "address",
          "name": "newOwner",
          "type": "address"
        }
      ],
      "name": "transferOwnership",
      "outputs": [],
      "stateMutability": "nonpayable",
      "type": "function"
    },
    {
      "inputs": [
        {
          "internalType": "address",
          "name": "user",
          "type": "address"
        },
        {
          "internalType": "uint256",
          "name": "amount",
          "type": "uint256"
        }
      ],
      "name": "transferRedemptionFunds",
      "outputs": [],
      "stateMutability": "nonpayable",
      "type": "function"
    },
    {
      "inputs": [],
      "name": "underlyingAsset",
      "outputs": [
        {
          "internalType": "address",
          "name": "",
          "type": "address"
        }
      ],
      "stateMutability": "view",
      "type": "function"
    },
    {
      "inputs": [
        {
          "internalType": "address",
          "name": "newAutomationRegistry",
          "type": "address"
        }
      ],
      "name": "updateAutomationRegistry",
      "outputs": [],
      "stateMutability": "nonpayable",
      "type": "function"
    },
    {
      "inputs": [
        {
          "internalType": "uint8",
          "name": "_buyApprovalMultiplier",
          "type": "uint8"
        }
      ],
      "name": "updateBuyApprovalMultiplier",
      "outputs": [],
      "stateMutability": "nonpayable",
      "type": "function"
    },
    {
      "inputs": [
        {
          "internalType": "uint8",
          "name": "_executionMinibatchSize",
          "type": "uint8"
        }
      ],
      "name": "updateExecutionMinibatchSize",
      "outputs": [],
      "stateMutability": "nonpayable",
      "type": "function"
    },
    {
      "inputs": [
        {
          "internalType": "uint8",
          "name": "_minibatchSize",
          "type": "uint8"
        }
      ],
      "name": "updateMinibatchSize",
      "outputs": [],
      "stateMutability": "nonpayable",
      "type": "function"
    },
    {
      "inputs": [
        {
          "internalType": "uint256",
          "name": "assets",
          "type": "uint256"
        },
        {
          "internalType": "address",
          "name": "receiver",
          "type": "address"
        }
      ],
      "name": "withdraw",
      "outputs": [],
      "stateMutability": "nonpayable",
      "type": "function"
    },
    {
      "inputs": [
        {
          "internalType": "uint256",
          "name": "amount",
          "type": "uint256"
        }
      ],
      "name": "withdrawLiquidity",
      "outputs": [],
      "stateMutability": "nonpayable",
      "type": "function"
    }
  ],
  "bytecode": "0x608060405234801561000f575f5ffd5b5060405161315d38038061315d83398101604081905261002e91610273565b826001600160a01b03811661005c57604051631e4fbdf760e01b81525f600482015260240160405180910390fd5b6100658161020d565b50600180556001600160a01b0382166100915760405163d92e233d60e01b815260040160405180910390fd5b6001600160a01b0381166100b85760405163d92e233d60e01b815260040160405180910390fd5b600380546001600160a01b0319166001600160a01b03841690811790915560408051631c56369f60e21b81529051637158da7c916004808201926020929091908290030181865afa15801561010f573d5f5f3e3d5ffd5b505050506040513d601f19601f8201168201806040525081019061013391906102bd565b600580546001600160a01b0319166001600160a01b03928316179055600354604080516303e1469160e61b81529051919092169163f851a4409160048083019260209291908290030181865afa15801561018f573d5f5f3e3d5ffd5b505050506040513d601f19601f820116820180604052508101906101b391906102bd565b600680546001600160a01b03199081166001600160a01b039384161790915560028054909116929091169190911781556008805465ffffffffffff19166301010000179055600a805460ff19169091179055506102df9050565b5f80546001600160a01b038381166001600160a01b0319831681178455604051919092169283917f8be0079c531659141344cd1fd0a4f28419497f9722a3daafe3b4186f6b6457e09190a35050565b6001600160a01b0381168114610270575f5ffd5b50565b5f5f5f60608486031215610285575f5ffd5b83516102908161025c565b60208501519093506102a18161025c565b60408501519092506102b28161025c565b809150509250925092565b5f602082840312156102cd575f5ffd5b81516102d88161025c565b9392505050565b612e71806102ec5f395ff3fe608060405234801561000f575f5ffd5b50600436106101eb575f3560e01c8062f714ce146101ef57806301c621c114610204578063055ad42e1461021757806309f2e19c146102415780630a861f2a146102615780630a8b78c7146102745780630babbef31461028757806314b5d07f146102a65780633369921a146102b9578063348ec5c8146102d05780633af2a8c0146102e35780633e765a9e146102f65780634585e33b146103095780634adfc2e71461031c57806351edffb11461032f57806352e899fd146103425780635488cd621461035557806357be01c11461036957806359017aa91461037c5780635dc228a01461038f5780635dd17ec3146103a2578063639bdf5a146103a25780636e04ff0d146103aa578063715018a6146103cb5780637158da7c146103d3578063741fca4b146103e657806376d58e1a146103f957806379502c551461040c5780638157c1ab1461041f5780638689b2c5146104325780638a0b0d38146104465780638da5cb5b14610459578063a0424ab914610461578063bc50497514610469578063be1b26a41461047c578063d3f3506d1461048f578063dab26e3b146104b7578063e42ff8b6146104c0578063e6c3efd9146104d3578063ee6713df146104e6578063f2fde38b14610507578063f851a4401461051a575b5f5ffd5b6102026101fd36600461283e565b61052d565b005b61020261021236600461286c565b6105e5565b60085461022b90600160201b900460ff1681565b6040516102389190612897565b60405180910390f35b61025461024f36600461286c565b6106b8565b60405161023891906128b1565b61020261026f36600461286c565b6106e0565b6102026102823660046128c5565b6108e6565b600a546102949060ff1681565b60405160ff9091168152602001610238565b6102026102b43660046128c5565b610961565b6102c260115481565b604051908152602001610238565b600454610254906001600160a01b031681565b6102026102f136600461286c565b610a6a565b6102c261030436600461286c565b610b4b565b6102026103173660046128e7565b610b6a565b61020261032a366004612953565b610d82565b61020261033d366004612953565b610e52565b6102c261035036600461286c565b610ede565b60085461029490600160281b900460ff1681565b6008546102949062010000900460ff1681565b61020261038a36600461297d565b610eed565b600254610254906001600160a01b031681565b610294600881565b6103bd6103b83660046128e7565b611001565b6040516102389291906129a9565b6102026111ac565b600554610254906001600160a01b031681565b6102026103f436600461286c565b6111bf565b61020261040736600461286c565b611372565b600354610254906001600160a01b031681565b61025461042d36600461286c565b6114d5565b600854610294906301000000900460ff1681565b6102026104543660046129e7565b6114e4565b6102546115e3565b610294600581565b6102c261047736600461286c565b6115f1565b6102c261048a36600461286c565b611600565b61025461049d3660046128c5565b60076020525f90815260409020546001600160a01b031681565b6102c260095481565b6102026104ce3660046129e7565b61160f565b6102026104e13660046129e7565b611706565b6008546104f49061ffff1681565b60405161ffff9091168152602001610238565b6102026105153660046128c5565b611807565b600654610254906001600160a01b031681565b610535611841565b60035460405163f764eb4560e01b81526001600160a01b039091169063f764eb45906105659033906004016128b1565b602060405180830381865afa158015610580573d5f5f3e3d5ffd5b505050506040513d601f19601f820116820180604052508101906105a49190612a07565b6105c15760405163ea8e4eb560e01b815260040160405180910390fd5b6005546105d8906001600160a01b0316828461186b565b6105e160018055565b5050565b6006546001600160a01b0316331461061057604051631a27eac360e11b815260040160405180910390fd5b805f0361064657600554604051636b30633560e01b815261063d916001600160a01b0316906004016128b1565b60405180910390fd5b60048054604051637060444560e01b81529182018390526001600160a01b0316906370604445906024015f604051808303815f87803b158015610687575f5ffd5b505af1158015610699573d5f5f3e3d5ffd5b50506005546106b592506001600160a01b03169050338361186b565b50565b600e81815481106106c7575f80fd5b5f918252602090912001546001600160a01b0316905081565b6006546001600160a01b0316331461070b57604051631a27eac360e11b815260040160405180910390fd5b805f0361073857600554604051636b30633560e01b815261063d916001600160a01b0316906004016128b1565b5f60048054604080516302ad6a1760e11b815290516001600160a01b039092169263055ad42e9282820192602092908290030181865afa15801561077e573d5f5f3e3d5ffd5b505050506040513d601f19601f820116820180604052508101906107a29190612a26565b60048111156107b3576107b3612883565b146107d1576040516312aecd8160e01b815260040160405180910390fd5b5f60045f9054906101000a90046001600160a01b03166001600160a01b031663c18e2a5c6040518163ffffffff1660e01b8152600401602060405180830381865afa158015610822573d5f5f3e3d5ffd5b505050506040513d601f19601f820116820180604052508101906108469190612a44565b90508082111561086957604051632ca2f52b60e11b815260040160405180910390fd5b6004546001600160a01b031663e2c4aaec61088384612a6f565b6040518263ffffffff1660e01b81526004016108a191815260200190565b5f604051808303815f87803b1580156108b8575f5ffd5b505af11580156108ca573d5f5f3e3d5ffd5b50506005546105e192506001600160a01b03169050338461186b565b6108ee6118c3565b6001600160a01b0381166109155760405163d92e233d60e01b815260040160405180910390fd5b6004546001600160a01b03161561093f57604051630ea075bf60e21b815260040160405180910390fd5b600480546001600160a01b0319166001600160a01b0392909216919091179055565b6109696118c3565b6001600160a01b0381166109905760405163d92e233d60e01b815260040160405180910390fd5b60035f9054906101000a90046001600160a01b03166001600160a01b031663edcf9c1f6040518163ffffffff1660e01b8152600401602060405180830381865afa1580156109e0573d5f5f3e3d5ffd5b505050506040513d601f19601f82011682018060405250810190610a049190612a07565b610a21576040516312aecd8160e01b815260040160405180910390fd5b600280546001600160a01b0319166001600160a01b0383169081179091556040517f6cc7ebdb6c8c53291c5ae16148cab9b049d23bf5bde5632900b40edff56fcb43905f90a250565b610a726118c3565b805f03610a92576040516317dbc4cb60e21b815260040160405180910390fd5b6101f4811115610ab5576040516317dbc4cb60e21b815260040160405180910390fd5b60035f9054906101000a90046001600160a01b03166001600160a01b031663edcf9c1f6040518163ffffffff1660e01b8152600401602060405180830381865afa158015610b05573d5f5f3e3d5ffd5b505050506040513d601f19601f82011682018060405250810190610b299190612a07565b610b46576040516312aecd8160e01b815260040160405180910390fd5b600955565b60108181548110610b5a575f80fd5b5f91825260209091200154905081565b610b726115e3565b6001600160a01b0316336001600160a01b031614158015610b9e57506002546001600160a01b03163314155b15610bbc5760405163ea8e4eb560e01b815260040160405180910390fd5b610bc4611841565b60035f9054906101000a90046001600160a01b03166001600160a01b031663edcf9c1f6040518163ffffffff1660e01b8152600401602060405180830381865afa158015610c14573d5f5f3e3d5ffd5b505050506040513d601f19601f82011682018060405250810190610c389190612a07565b8015610cb857506008546004805460408051630a58ce2d60e11b8152905161ffff909416936001600160a01b03909216926314b19c5a9282820192602092908290030181865afa158015610c8e573d5f5f3e3d5ffd5b505050506040513d601f19601f82011682018060405250810190610cb29190612a89565b61ffff16115b15610cca57610cc56118f5565b610d51565b6001600854600160201b900460ff166003811115610cea57610cea612883565b03610cf757610cc5611b2d565b6002600854600160201b900460ff166003811115610d1757610d17612883565b03610d2457610cc5611cc2565b6003600854600160201b900460ff166003811115610d4457610d44612883565b03610d5157610d51611ec1565b6040517ff0094b59b7bc92e9fc611b14b5d3a34fe02530ac9bcf36c2c6f10147c3030c12905f90a16105e160018055565b600354604051633821dad160e21b81526001600160a01b039091169063e0876b4490610db29033906004016128b1565b602060405180830381865afa158015610dcd573d5f5f3e3d5ffd5b505050506040513d601f19601f82011682018060405250810190610df19190612a07565b610e0e5760405163ea8e4eb560e01b815260040160405180910390fd5b805f03610e3b57600554604051636b30633560e01b815261063d916001600160a01b0316906004016128b1565b6005546105e1906001600160a01b0316838361186b565b600354604051633821dad160e21b81526001600160a01b039091169063e0876b4490610e829033906004016128b1565b602060405180830381865afa158015610e9d573d5f5f3e3d5ffd5b505050506040513d601f19601f82011682018060405250810190610ec19190612a07565b610e3b5760405163ea8e4eb560e01b815260040160405180910390fd5b600d8181548110610b5a575f80fd5b6003546001600160a01b03163314610f185760405163ea8e4eb560e01b815260040160405180910390fd5b6001600160a01b0382161580610f3557506001600160a01b038116155b15610f535760405163d92e233d60e01b815260040160405180910390fd5b604051631ed3e4fb60e11b81526001600160a01b03821690633da7c9f690610f7f9085906004016128b1565b5f6040518083038186803b158015610f95575f5ffd5b505afa158015610fa7573d5f5f3e3d5ffd5b505050506001600160a01b038281165f8181526007602052604080822080546001600160a01b0319169486169485179055517f2f2727c7b3d9ee55de5c114f0cb7997ac7251a4cbfca4f2b2dc6969d86cce4f49190a35050565b5f606060035f9054906101000a90046001600160a01b03166001600160a01b031663edcf9c1f6040518163ffffffff1660e01b8152600401602060405180830381865afa158015611054573d5f5f3e3d5ffd5b505050506040513d601f19601f820116820180604052508101906110789190612a07565b80156110f857506008546004805460408051630a58ce2d60e11b8152905161ffff909416936001600160a01b03909216926314b19c5a9282820192602092908290030181865afa1580156110ce573d5f5f3e3d5ffd5b505050506040513d601f19601f820116820180604052508101906110f29190612a89565b61ffff16115b156111065760019150611194565b6001600854600160201b900460ff16600381111561112657611126612883565b036111345760019150611194565b6002600854600160201b900460ff16600381111561115457611154612883565b036111625760019150611194565b6003600854600160201b900460ff16600381111561118257611182612883565b036111905760019150611194565b5f91505b60405180602001604052805f81525090509250929050565b6111b46118c3565b6111bd5f612223565b565b600354604051633821dad160e21b815233916001600160a01b03169063e0876b44906111ef9084906004016128b1565b602060405180830381865afa15801561120a573d5f5f3e3d5ffd5b505050506040513d601f19601f8201168201806040525081019061122e9190612a07565b1580156112a7575060035460405163f764eb4560e01b81526001600160a01b039091169063f764eb45906112669084906004016128b1565b602060405180830381865afa158015611281573d5f5f3e3d5ffd5b505050506040513d601f19601f820116820180604052508101906112a59190612a07565b155b156112c55760405163ea8e4eb560e01b815260040160405180910390fd5b815f036112f257600554604051636b30633560e01b815261063d916001600160a01b0316906004016128b1565b5f816001600160a01b0316631f52692b6040518163ffffffff1660e01b8152600401602060405180830381865afa15801561132f573d5f5f3e3d5ffd5b505050506040513d601f19601f820116820180604052508101906113539190612aaa565b60055490915061136d906001600160a01b0316828561186b565b505050565b6006546001600160a01b0316331461139d57604051631a27eac360e11b815260040160405180910390fd5b805f036113ca57600554604051636b30633560e01b815261063d916001600160a01b0316906004016128b1565b5f60048054604080516302ad6a1760e11b815290516001600160a01b039092169263055ad42e9282820192602092908290030181865afa158015611410573d5f5f3e3d5ffd5b505050506040513d601f19601f820116820180604052508101906114349190612a26565b600481111561144557611445612883565b14611463576040516312aecd8160e01b815260040160405180910390fd5b60055461147b906001600160a01b0316333084612272565b600480546040516338b12abb60e21b81529182018390526001600160a01b03169063e2c4aaec906024015f604051808303815f87803b1580156114bc575f5ffd5b505af11580156114ce573d5f5f3e3d5ffd5b5050505050565b600b81815481106106c7575f80fd5b6114ec6118c3565b8060ff165f0361150f576040516317dbc4cb60e21b815260040160405180910390fd5b600860ff82161115611534576040516317dbc4cb60e21b815260040160405180910390fd5b60035f9054906101000a90046001600160a01b03166001600160a01b031663edcf9c1f6040518163ffffffff1660e01b8152600401602060405180830381865afa158015611584573d5f5f3e3d5ffd5b505050506040513d601f19601f820116820180604052508101906115a89190612a07565b6115c5576040516312aecd8160e01b815260040160405180910390fd5b6008805460ff909216620100000262ff000019909216919091179055565b5f546001600160a01b031690565b600f8181548110610b5a575f80fd5b600c8181548110610b5a575f80fd5b6116176118c3565b8060ff165f0361163a576040516317dbc4cb60e21b815260040160405180910390fd5b600560ff8216111561165f576040516317dbc4cb60e21b815260040160405180910390fd5b60035f9054906101000a90046001600160a01b03166001600160a01b031663edcf9c1f6040518163ffffffff1660e01b8152600401602060405180830381865afa1580156116af573d5f5f3e3d5ffd5b505050506040513d601f19601f820116820180604052508101906116d39190612a07565b6116f0576040516312aecd8160e01b815260040160405180910390fd5b600a805460ff191660ff92909216919091179055565b61170e6118c3565b8060ff165f03611731576040516317dbc4cb60e21b815260040160405180910390fd5b600860ff82161115611756576040516317dbc4cb60e21b815260040160405180910390fd5b60035f9054906101000a90046001600160a01b03166001600160a01b031663edcf9c1f6040518163ffffffff1660e01b8152600401602060405180830381865afa1580156117a6573d5f5f3e3d5ffd5b505050506040513d601f19601f820116820180604052508101906117ca9190612a07565b6117e7576040516312aecd8160e01b815260040160405180910390fd5b6008805460ff90921663010000000263ff00000019909216919091179055565b61180f6118c3565b6001600160a01b038116611838575f604051631e4fbdf760e01b815260040161063d91906128b1565b6106b581612223565b60026001540361186457604051633ee5aeb560e01b815260040160405180910390fd5b6002600155565b61136d83846001600160a01b031663a9059cbb8585604051602401611891929190612ac5565b604051602081830303815290604052915060e01b6020820180516001600160e01b0383818316178352505050506122ab565b336118cc6115e3565b6001600160a01b0316146111bd573360405163118cdaa760e01b815260040161063d91906128b1565b5f60045f9054906101000a90046001600160a01b03166001600160a01b03166314b19c5a6040518163ffffffff1660e01b8152600401602060405180830381865afa158015611946573d5f5f3e3d5ffd5b505050506040513d601f19601f8201168201806040525081019061196a9190612a89565b60085490915061197f9061ffff166001612ade565b61ffff168161ffff1610156119915750565b6008805461ffff191661ffff83161790556119ad600b5f61275f565b6119b8600c5f61275f565b6119c3600e5f61275f565b6119ce600f5f61275f565b6119d9600d5f61275f565b6119e460105f61275f565b5f60118190556004805460408051631716e21f60e11b815290516001600160a01b0390921693632e2dc43e938281019391928290030181865afa158015611a2d573d5f5f3e3d5ffd5b505050506040513d5f823e601f3d908101601f19168201604052611a549190810190612c2c565b600b5f600c5f600e5f600f5f600d5f60105f8c9190509080519060200190611a7d92919061277a565b50508a51611a90919060208d019061277a565b50508951611aa3919060208c019061277a565b50508851611ab6919060208b01906127c3565b50508751611ac9919060208a019061277a565b50508651611adc919060208901906127c3565b50506008805460ff60201b1916600160201b1790555050600b545f0392506106b5915050576008805460ff60201b1916600160211b179055600e545f036106b557506008805460ff60201b19169055565b6001600854600160201b900460ff166003811115611b4d57611b4d612883565b14611b6b5760405163baf3f0f760e01b815260040160405180910390fd5b6008545f90611b8c9060ff620100008204811691600160281b900416612d3c565b60085460ff91821692505f91611ba9916201000090041683612ade565b90506008600581819054906101000a900460ff16611bc690612d5f565b91906101000a81548160ff021916908360ff160217905550600b805490508161ffff161180611bfa5750600b5461ffff8216145b15611c185750600b546008805461ffff60201b1916600160211b1790555b815b8161ffff168161ffff16101561136d575f600b8261ffff1681548110611c4257611c42612d7d565b5f918252602090912001546005546001600160a01b039182169250168103611c6a5750611cba565b5f600c8361ffff1681548110611c8257611c82612d7d565b905f5260205f2001549050611cb78282600d8661ffff1681548110611ca957611ca9612d7d565b905f5260205f20015461230e565b50505b600101611c1a565b6002600854600160201b900460ff166003811115611ce257611ce2612883565b14611d005760405163baf3f0f760e01b815260040160405180910390fd5b6008545f90611d219060ff620100008204811691600160281b900416612d3c565b60085460ff91821692505f91611d3e916201000090041683612ade565b90506008600581819054906101000a900460ff16611d5b90612d5f565b91906101000a81548160ff021916908360ff160217905550600e805490508161ffff161180611d8f5750600e5461ffff8216145b15611dad5750600e546008805461ffff60201b1916600360201b1790555b815b8161ffff168161ffff161015611e57575f600e8261ffff1681548110611dd757611dd7612d7d565b5f918252602090912001546005546001600160a01b039182169250168103611dff5750611e4f565b5f600f8361ffff1681548110611e1757611e17612d7d565b905f5260205f2001549050611e4c828260108661ffff1681548110611e3e57611e3e612d7d565b905f5260205f200154612406565b50505b600101611daf565b50600e5461ffff8216036105e157600480546011546040516338b12abb60e21b8152928301526001600160a01b03169063e2c4aaec906024015f604051808303815f87803b158015611ea7575f5ffd5b505af1158015611eb9573d5f5f3e3d5ffd5b505050505050565b6003600854600160201b900460ff166003811115611ee157611ee1612883565b14611eff5760405163baf3f0f760e01b815260040160405180910390fd5b600354604051631da09e4360e31b81525f916001600160a01b03169063ed04f21890611f2f908490600401612d91565b5f60405180830381865afa158015611f49573d5f5f3e3d5ffd5b505050506040513d5f823e601f3d908101601f19168201604052611f709190810190612da5565b6008549091505f90611f959060ff63010000008204811691600160281b900416612d3c565b60085460ff91821692505f91611fb391630100000090041683612ade565b90506008600581819054906101000a900460ff16611fd090612d5f565b91906101000a81548160ff021916908360ff16021790555082518161ffff161180611fff575082518161ffff16145b15612016575081516008805461ffff60201b191690555b815b8161ffff168161ffff16101561221d575f848261ffff168151811061203f5761203f612d7d565b6020908102919091010151600480546040516309958e4960e11b81529293505f926001600160a01b039091169163132b1c929161207e918691016128b1565b602060405180830381865afa158015612099573d5f5f3e3d5ffd5b505050506040513d601f19601f820116820180604052508101906120bd9190612a44565b6004805460405163e2638ff160e01b81529293505f926001600160a01b039091169163e2638ff1916120f1918791016128b1565b602060405180830381865afa15801561210c573d5f5f3e3d5ffd5b505050506040513d601f19601f820116820180604052508101906121309190612a44565b905061213d8383836124fb565b60035460405163d11f1c3560e01b81526001600160a01b039091169063d11f1c359061216d9086906004016128b1565b602060405180830381865afa158015612188573d5f5f3e3d5ffd5b505050506040513d601f19601f820116820180604052508101906121ac9190612a07565b1561220f5760035460405163e8ffccb760e01b81526001600160a01b039091169063e8ffccb7906121e19086906004016128b1565b5f604051808303815f87803b1580156121f8575f5ffd5b505af115801561220a573d5f5f3e3d5ffd5b505050505b505050806001019050612018565b50505050565b5f80546001600160a01b038381166001600160a01b0319831681178455604051919092169283917f8be0079c531659141344cd1fd0a4f28419497f9722a3daafe3b4186f6b6457e09190a35050565b6040516001600160a01b03848116602483015283811660448301526064820183905261221d9186918216906323b872dd90608401611891565b5f5f60205f8451602086015f885af1806122ca576040513d5f823e3d81fd5b50505f513d915081156122e15780600114156122ee565b6001600160a01b0384163b155b1561221d5783604051635274afe760e01b815260040161063d91906128b1565b6001600160a01b038084165f90815260076020526040902054168061234657604051635048c2af60e11b815260040160405180910390fd5b61235a6001600160a01b0385168285612684565b604051636c197ff560e01b81525f906001600160a01b03831690636c197ff59061238a9088908890600401612ac5565b6020604051808303815f875af11580156123a6573d5f5f3e3d5ffd5b505050506040513d601f19601f820116820180604052508101906123ca9190612a44565b90506123e06001600160a01b038616835f612684565b6123ea8382612dde565b60115f8282546123fa9190612dfd565b90915550505050505050565b6001600160a01b038084165f90815260076020526040902054168061243e57604051635048c2af60e11b815260040160405180910390fd5b600a546124679082906124549060ff1685612e24565b6005546001600160a01b03169190612684565b60405163cce7ec1360e01b81525f906001600160a01b0383169063cce7ec13906124979088908890600401612ac5565b6020604051808303815f875af11580156124b3573d5f5f3e3d5ffd5b505050506040513d601f19601f820116820180604052508101906124d79190612a44565b6005549091506124f1906001600160a01b0316835f612684565b6123ea8184612dde565b5f8390505f816001600160a01b0316630a605c6d6040518163ffffffff1660e01b8152600401602060405180830381865afa15801561253c573d5f5f3e3d5ffd5b505050506040513d601f19601f820116820180604052508101906125609190612a44565b90505f826001600160a01b031663f64c6f326040518163ffffffff1660e01b8152600401602060405180830381865afa15801561259f573d5f5f3e3d5ffd5b505050506040513d601f19601f820116820180604052508101906125c39190612a44565b905081156126215760405163493a6e2160e01b8152600481018590526001600160a01b0384169063493a6e21906024015f604051808303815f87803b15801561260a575f5ffd5b505af115801561261c573d5f5f3e3d5ffd5b505050505b8015611eb95760405163e5e9719360e01b8152600481018690526001600160a01b0384169063e5e97193906024015f604051808303815f87803b158015612666575f5ffd5b505af1158015612678573d5f5f3e3d5ffd5b50505050505050505050565b5f836001600160a01b031663095ea7b384846040516024016126a7929190612ac5565b604051602081830303815290604052915060e01b6020820180516001600160e01b03838183161783525050505090506126e08482612714565b61221d5761270a84856001600160a01b031663095ea7b3865f604051602401611891929190612ac5565b61221d84826122ab565b5f5f5f5f60205f8651602088015f8a5af192503d91505f519050828015612753575081156127455780600114612753565b5f866001600160a01b03163b115b93505050505b92915050565b5080545f8255905f5260205f20908101906106b59190612816565b828054828255905f5260205f209081019282156127b3579160200282015b828111156127b3578251825591602001919060010190612798565b506127bf929150612816565b5090565b828054828255905f5260205f209081019282156127b3579160200282015b828111156127b357825182546001600160a01b0319166001600160a01b039091161782556020909201916001909101906127e1565b5b808211156127bf575f8155600101612817565b6001600160a01b03811681146106b5575f5ffd5b5f5f6040838503121561284f575f5ffd5b8235915060208301356128618161282a565b809150509250929050565b5f6020828403121561287c575f5ffd5b5035919050565b634e487b7160e01b5f52602160045260245ffd5b60208101600483106128ab576128ab612883565b91905290565b6001600160a01b0391909116815260200190565b5f602082840312156128d5575f5ffd5b81356128e08161282a565b9392505050565b5f5f602083850312156128f8575f5ffd5b82356001600160401b0381111561290d575f5ffd5b8301601f8101851361291d575f5ffd5b80356001600160401b03811115612932575f5ffd5b856020828401011115612943575f5ffd5b6020919091019590945092505050565b5f5f60408385031215612964575f5ffd5b823561296f8161282a565b946020939093013593505050565b5f5f6040838503121561298e575f5ffd5b82356129998161282a565b915060208301356128618161282a565b8215158152604060208201525f82518060408401528060208501606085015e5f606082850101526060601f19601f8301168401019150509392505050565b5f602082840312156129f7575f5ffd5b813560ff811681146128e0575f5ffd5b5f60208284031215612a17575f5ffd5b815180151581146128e0575f5ffd5b5f60208284031215612a36575f5ffd5b8151600581106128e0575f5ffd5b5f60208284031215612a54575f5ffd5b5051919050565b634e487b7160e01b5f52601160045260245ffd5b5f600160ff1b8201612a8357612a83612a5b565b505f0390565b5f60208284031215612a99575f5ffd5b815161ffff811681146128e0575f5ffd5b5f60208284031215612aba575f5ffd5b81516128e08161282a565b6001600160a01b03929092168252602082015260400190565b61ffff818116838216019081111561275957612759612a5b565b634e487b7160e01b5f52604160045260245ffd5b604051601f8201601f191681016001600160401b0381118282101715612b3457612b34612af8565b604052919050565b5f6001600160401b03821115612b5457612b54612af8565b5060051b60200190565b5f82601f830112612b6d575f5ffd5b8151612b80612b7b82612b3c565b612b0c565b8082825260208201915060208360051b860101925085831115612ba1575f5ffd5b602085015b83811015612bc7578051612bb98161282a565b835260209283019201612ba6565b5095945050505050565b5f82601f830112612be0575f5ffd5b8151612bee612b7b82612b3c565b8082825260208201915060208360051b860101925085831115612c0f575f5ffd5b602085015b83811015612bc7578051835260209283019201612c14565b5f5f5f5f5f5f60c08789031215612c41575f5ffd5b86516001600160401b03811115612c56575f5ffd5b612c6289828a01612b5e565b602089015190975090506001600160401b03811115612c7f575f5ffd5b612c8b89828a01612bd1565b604089015190965090506001600160401b03811115612ca8575f5ffd5b612cb489828a01612b5e565b606089015190955090506001600160401b03811115612cd1575f5ffd5b612cdd89828a01612bd1565b608089015190945090506001600160401b03811115612cfa575f5ffd5b612d0689828a01612bd1565b60a089015190935090506001600160401b03811115612d23575f5ffd5b612d2f89828a01612bd1565b9150509295509295509295565b60ff8181168382160290811690818114612d5857612d58612a5b565b5092915050565b5f60ff821660ff8103612d7457612d74612a5b565b60010192915050565b634e487b7160e01b5f52603260045260245ffd5b60208101600283106128ab576128ab612883565b5f60208284031215612db5575f5ffd5b81516001600160401b03811115612dca575f5ffd5b612dd684828501612b5e565b949350505050565b8181035f831280158383131683831282161715612d5857612d58612a5b565b8082018281125f831280158216821582161715612e1c57612e1c612a5b565b505092915050565b808202811582820484141761275957612759612a5b56fea2646970667358221220d86ae26a8285f78ff7ae7d8db583e9c7ffc17d4dbaf88a11d1671fcf2959403164736f6c634300081c0033",
  "linkReferences": {},
  "deployedLinkReferences": {}
}