{
  "_format": "hh-sol-artifact-1",
  "contractName": "LiquidityOrchestrator",
  "sourceName": "contracts/orchestrators/LiquidityOrchestrator.sol",
  "abi": [
    {
      "inputs": [],
      "name": "AdapterNotSet",
      "type": "error"
    },
    {
      "inputs": [
        {
          "internalType": "address",
          "name": "target",
          "type": "address"
        }
      ],
      "name": "AddressEmptyCode",
      "type": "error"
    },
    {
      "inputs": [
        {
          "internalType": "address",
          "name": "implementation",
          "type": "address"
        }
      ],
      "name": "ERC1967InvalidImplementation",
      "type": "error"
    },
    {
      "inputs": [],
      "name": "ERC1967NonPayable",
      "type": "error"
    },
    {
      "inputs": [],
      "name": "FailedCall",
      "type": "error"
    },
    {
      "inputs": [],
      "name": "InvalidInitialization",
      "type": "error"
    },
    {
      "inputs": [],
      "name": "NotAuthorized",
      "type": "error"
    },
    {
      "inputs": [],
      "name": "NotInitializing",
      "type": "error"
    },
    {
      "inputs": [
        {
          "internalType": "address",
          "name": "owner",
          "type": "address"
        }
      ],
      "name": "OwnableInvalidOwner",
      "type": "error"
    },
    {
      "inputs": [
        {
          "internalType": "address",
          "name": "account",
          "type": "address"
        }
      ],
      "name": "OwnableUnauthorizedAccount",
      "type": "error"
    },
    {
      "inputs": [],
      "name": "TransferFailed",
      "type": "error"
    },
    {
      "inputs": [],
      "name": "UUPSUnauthorizedCallContext",
      "type": "error"
    },
    {
      "inputs": [
        {
          "internalType": "bytes32",
          "name": "slot",
          "type": "bytes32"
        }
      ],
      "name": "UUPSUnsupportedProxiableUUID",
      "type": "error"
    },
    {
      "inputs": [],
      "name": "ZeroAddress",
      "type": "error"
    },
    {
      "anonymous": false,
      "inputs": [
        {
          "indexed": true,
          "internalType": "address",
          "name": "asset",
          "type": "address"
        },
        {
          "indexed": true,
          "internalType": "address",
          "name": "adapter",
          "type": "address"
        }
      ],
      "name": "AdapterSet",
      "type": "event"
    },
    {
      "anonymous": false,
      "inputs": [
        {
          "indexed": true,
          "internalType": "address",
          "name": "newAutomationRegistry",
          "type": "address"
        }
      ],
      "name": "AutomationRegistryUpdated",
      "type": "event"
    },
    {
      "anonymous": false,
      "inputs": [
        {
          "indexed": false,
          "internalType": "uint64",
          "name": "version",
          "type": "uint64"
        }
      ],
      "name": "Initialized",
      "type": "event"
    },
    {
      "anonymous": false,
      "inputs": [
        {
          "indexed": true,
          "internalType": "address",
          "name": "previousOwner",
          "type": "address"
        },
        {
          "indexed": true,
          "internalType": "address",
          "name": "newOwner",
          "type": "address"
        }
      ],
      "name": "OwnershipTransferStarted",
      "type": "event"
    },
    {
      "anonymous": false,
      "inputs": [
        {
          "indexed": true,
          "internalType": "address",
          "name": "previousOwner",
          "type": "address"
        },
        {
          "indexed": true,
          "internalType": "address",
          "name": "newOwner",
          "type": "address"
        }
      ],
      "name": "OwnershipTransferred",
      "type": "event"
    },
    {
      "anonymous": false,
      "inputs": [],
      "name": "PortfolioRebalanced",
      "type": "event"
    },
    {
      "anonymous": false,
      "inputs": [
        {
          "indexed": true,
          "internalType": "address",
          "name": "implementation",
          "type": "address"
        }
      ],
      "name": "Upgraded",
      "type": "event"
    },
    {
      "inputs": [],
      "name": "UPGRADE_INTERFACE_VERSION",
      "outputs": [
        {
          "internalType": "string",
          "name": "",
          "type": "string"
        }
      ],
      "stateMutability": "view",
      "type": "function"
    },
    {
      "inputs": [],
      "name": "acceptOwnership",
      "outputs": [],
      "stateMutability": "nonpayable",
      "type": "function"
    },
    {
      "inputs": [],
      "name": "automationRegistry",
      "outputs": [
        {
          "internalType": "address",
          "name": "",
          "type": "address"
        }
      ],
      "stateMutability": "view",
      "type": "function"
    },
    {
      "inputs": [
        {
          "internalType": "bytes",
          "name": "",
          "type": "bytes"
        }
      ],
      "name": "checkUpkeep",
      "outputs": [
        {
          "internalType": "bool",
          "name": "upkeepNeeded",
          "type": "bool"
        },
        {
          "internalType": "bytes",
          "name": "performData",
          "type": "bytes"
        }
      ],
      "stateMutability": "view",
      "type": "function"
    },
    {
      "inputs": [],
      "name": "config",
      "outputs": [
        {
          "internalType": "contract IOrionConfig",
          "name": "",
          "type": "address"
        }
      ],
      "stateMutability": "view",
      "type": "function"
    },
    {
      "inputs": [
        {
          "internalType": "address",
          "name": "",
          "type": "address"
        }
      ],
      "name": "executionAdapterOf",
      "outputs": [
        {
          "internalType": "contract IExecutionAdapter",
          "name": "",
          "type": "address"
        }
      ],
      "stateMutability": "view",
      "type": "function"
    },
    {
      "inputs": [
        {
          "internalType": "address",
          "name": "initialOwner",
          "type": "address"
        },
        {
          "internalType": "address",
          "name": "automationRegistry_",
          "type": "address"
        },
        {
          "internalType": "address",
          "name": "config_",
          "type": "address"
        }
      ],
      "name": "initialize",
      "outputs": [],
      "stateMutability": "nonpayable",
      "type": "function"
    },
    {
      "inputs": [],
      "name": "internalStatesOrchestrator",
      "outputs": [
        {
          "internalType": "contract IInternalStateOrchestrator",
          "name": "",
          "type": "address"
        }
      ],
      "stateMutability": "view",
      "type": "function"
    },
    {
      "inputs": [],
      "name": "lastProcessedEpoch",
      "outputs": [
        {
          "internalType": "uint256",
          "name": "",
          "type": "uint256"
        }
      ],
      "stateMutability": "view",
      "type": "function"
    },
    {
      "inputs": [],
      "name": "owner",
      "outputs": [
        {
          "internalType": "address",
          "name": "",
          "type": "address"
        }
      ],
      "stateMutability": "view",
      "type": "function"
    },
    {
      "inputs": [],
      "name": "pendingOwner",
      "outputs": [
        {
          "internalType": "address",
          "name": "",
          "type": "address"
        }
      ],
      "stateMutability": "view",
      "type": "function"
    },
    {
      "inputs": [
        {
          "internalType": "bytes",
          "name": "",
          "type": "bytes"
        }
      ],
      "name": "performUpkeep",
      "outputs": [],
      "stateMutability": "nonpayable",
      "type": "function"
    },
    {
      "inputs": [],
      "name": "proxiableUUID",
      "outputs": [
        {
          "internalType": "bytes32",
          "name": "",
          "type": "bytes32"
        }
      ],
      "stateMutability": "view",
      "type": "function"
    },
    {
      "inputs": [],
      "name": "renounceOwnership",
      "outputs": [],
      "stateMutability": "nonpayable",
      "type": "function"
    },
    {
      "inputs": [
        {
          "internalType": "address",
          "name": "user",
          "type": "address"
        },
        {
          "internalType": "uint256",
          "name": "amount",
          "type": "uint256"
        }
      ],
      "name": "returnDepositFunds",
      "outputs": [],
      "stateMutability": "nonpayable",
      "type": "function"
    },
    {
      "inputs": [
        {
          "internalType": "address",
          "name": "user",
          "type": "address"
        },
        {
          "internalType": "uint256",
          "name": "shares",
          "type": "uint256"
        }
      ],
      "name": "returnWithdrawShares",
      "outputs": [],
      "stateMutability": "nonpayable",
      "type": "function"
    },
    {
      "inputs": [
        {
          "internalType": "address",
          "name": "asset",
          "type": "address"
        },
        {
          "internalType": "contract IExecutionAdapter",
          "name": "adapter",
          "type": "address"
        }
      ],
      "name": "setAdapter",
      "outputs": [],
      "stateMutability": "nonpayable",
      "type": "function"
    },
    {
      "inputs": [
        {
          "internalType": "address",
          "name": "newOwner",
          "type": "address"
        }
      ],
      "name": "transferOwnership",
      "outputs": [],
      "stateMutability": "nonpayable",
      "type": "function"
    },
    {
      "inputs": [
        {
          "internalType": "address",
          "name": "newAutomationRegistry",
          "type": "address"
        }
      ],
      "name": "updateAutomationRegistry",
      "outputs": [],
      "stateMutability": "nonpayable",
      "type": "function"
    },
    {
      "inputs": [
        {
          "internalType": "address",
          "name": "newConfig",
          "type": "address"
        }
      ],
      "name": "updateConfig",
      "outputs": [],
      "stateMutability": "nonpayable",
      "type": "function"
    },
    {
      "inputs": [
        {
          "internalType": "address",
          "name": "newImplementation",
          "type": "address"
        },
        {
          "internalType": "bytes",
          "name": "data",
          "type": "bytes"
        }
      ],
      "name": "upgradeToAndCall",
      "outputs": [],
      "stateMutability": "payable",
      "type": "function"
    }
  ],
  "bytecode": "0x60a0604052306080523480156012575f5ffd5b50608051611f9f6100395f395f81816115480152818161157101526116b50152611f9f5ff3fe608060405260043610610126575f3560e01c806379502c55116100a8578063be186b201161006d578063be186b201461031b578063c0c53b8b1461033a578063d3f3506d14610359578063e30c39781461038d578063ee6713df146103a1578063f2fde38b146103b6575f5ffd5b806379502c551461027857806379ba5097146102975780638da5cb5b146102ab578063ad3cb1cc146102bf578063ba59b4ca146102fc575f5ffd5b806352d1902d116100ee57806352d1902d146101d85780635dc228a0146101fa5780636cc919c8146102185780636e04ff0d14610237578063715018a614610264575f5ffd5b806314b5d07f1461012a578063348ec5c81461014b5780634585e33b146101875780634f1ef286146101a657806351edffb1146101b9575b5f5ffd5b348015610135575f5ffd5b50610149610144366004611a32565b6103d5565b005b348015610156575f5ffd5b5060025461016a906001600160a01b031681565b6040516001600160a01b0390911681526020015b60405180910390f35b348015610192575f5ffd5b506101496101a1366004611a4d565b61044b565b6101496101b4366004611b00565b610b15565b3480156101c4575f5ffd5b506101496101d3366004611ba7565b610b30565b3480156101e3575f5ffd5b506101ec610cb4565b60405190815260200161017e565b348015610205575f5ffd5b505f5461016a906001600160a01b031681565b348015610223575f5ffd5b50610149610232366004611a32565b610ccf565b348015610242575f5ffd5b50610256610251366004611a4d565b610d20565b60405161017e929190611bff565b34801561026f575f5ffd5b50610149610db6565b348015610283575f5ffd5b5060015461016a906001600160a01b031681565b3480156102a2575f5ffd5b50610149610dc9565b3480156102b6575f5ffd5b5061016a610e16565b3480156102ca575f5ffd5b506102ef604051806040016040528060058152602001640352e302e360dc1b81525081565b60405161017e9190611c21565b348015610307575f5ffd5b50610149610316366004611c33565b610e4a565b348015610326575f5ffd5b50610149610335366004611ba7565b610ee3565b348015610345575f5ffd5b50610149610354366004611c6a565b610fa1565b348015610364575f5ffd5b5061016a610373366004611a32565b60036020525f90815260409020546001600160a01b031681565b348015610398575f5ffd5b5061016a6111a8565b3480156103ac575f5ffd5b506101ec60045481565b3480156103c1575f5ffd5b506101496103d0366004611a32565b6111d0565b6103dd611255565b6001600160a01b0381166104045760405163d92e233d60e01b815260040160405180910390fd5b5f80546001600160a01b0319166001600160a01b038316908117825560405190917f6cc7ebdb6c8c53291c5ae16148cab9b049d23bf5bde5632900b40edff56fcb4391a250565b5f546001600160a01b031633146104755760405163ea8e4eb560e01b815260040160405180910390fd5b60025460408051630a58ce2d60e11b815290515f926001600160a01b0316916314b19c5a9160048083019260209291908290030181865afa1580156104bc573d5f5f3e3d5ffd5b505050506040513d601f19601f820116820180604052508101906104e09190611cb2565b905060045481116104f057505050565b600481815560015460408051631c56369f60e21b815290515f936001600160a01b0390931692637158da7c928082019260209290918290030181865afa15801561053c573d5f5f3e3d5ffd5b505050506040513d601f19601f820116820180604052508101906105609190611cc9565b6040516370a0823160e01b81523060048201529091505f906001600160a01b038316906370a0823190602401602060405180830381865afa1580156105a7573d5f5f3e3d5ffd5b505050506040513d601f19601f820116820180604052508101906105cb9190611cb2565b90505f5f60025f9054906101000a90046001600160a01b03166001600160a01b031663c2cb5d886040518163ffffffff1660e01b81526004015f60405180830381865afa15801561061e573d5f5f3e3d5ffd5b505050506040513d5f823e601f3d908101601f191682016040526106459190810190611d7a565b90925090505f5b82518110156106a3575f83828151811061066857610668611e38565b602002602001015190505f83838151811061068557610685611e38565b602002602001015190506106998282611287565b505060010161064c565b506040516370a0823160e01b81523060048201525f906001600160a01b038616906370a0823190602401602060405180830381865afa1580156106e8573d5f5f3e3d5ffd5b505050506040513d601f19601f8201168201806040525081019061070c9190611cb2565b90505f6107198583611e60565b90505f60025f9054906101000a90046001600160a01b03166001600160a01b03166306cce8486040518163ffffffff1660e01b8152600401602060405180830381865afa15801561076c573d5f5f3e3d5ffd5b505050506040513d601f19601f820116820180604052508101906107909190611cb2565b90505f61079d8284611e60565b90505f60025f9054906101000a90046001600160a01b03166001600160a01b0316634a1d96256040518163ffffffff1660e01b8152600401602060405180830381865afa1580156107f0573d5f5f3e3d5ffd5b505050506040513d601f19601f820116820180604052508101906108149190611cb2565b9050670de0b6b3a76400008115610857578161083884670de0b6b3a7640000611e73565b6108429190611e8a565b61085490670de0b6b3a7640000611ea9565b90505b5f5f60025f9054906101000a90046001600160a01b03166001600160a01b031663a08b82d76040518163ffffffff1660e01b81526004015f60405180830381865afa1580156108a8573d5f5f3e3d5ffd5b505050506040513d5f823e601f3d908101601f191682016040526108cf9190810190611d7a565b90925090505f5b825181101561093c57670de0b6b3a7640000848383815181106108fb576108fb611e38565b602002602001015161090d9190611e73565b6109179190611e8a565b82828151811061092957610929611e38565b60209081029190910101526001016108d6565b505f5b8251811015610996575f83828151811061095b5761095b611e38565b602002602001015190505f83838151811061097857610978611e38565b6020026020010151905061098c82826113ab565b505060010161093f565b50600154604051631da09e4360e31b81525f916001600160a01b03169063ed04f218906109c7908490600401611ebc565b5f60405180830381865afa1580156109e1573d5f5f3e3d5ffd5b505050506040513d5f823e601f3d908101601f19168201604052610a089190810190611ee2565b80519091505f5b81811015610a35575f838281518110610a2a57610a2a611e38565b505050600101610a0f565b5060018054604051631da09e4360e31b81525f926001600160a01b039092169163ed04f21891610a689190600401611ebc565b5f60405180830381865afa158015610a82573d5f5f3e3d5ffd5b505050506040513d5f823e601f3d908101601f19168201604052610aa99190810190611ee2565b8051925090505f5b82811015610ad7575f828281518110610acc57610acc611e38565b505050600101610ab1565b506040517ff0094b59b7bc92e9fc611b14b5d3a34fe02530ac9bcf36c2c6f10147c3030c12905f90a1505050505050505050505050505050505b5050565b610b1d61153d565b610b26826115e1565b610b1182826115e9565b600154604051633821dad160e21b81523360048201526001600160a01b039091169063e0876b4490602401602060405180830381865afa158015610b76573d5f5f3e3d5ffd5b505050506040513d601f19601f82011682018060405250810190610b9a9190611f14565b610bb75760405163ea8e4eb560e01b815260040160405180910390fd5b5f336001600160a01b03166338d52e0f6040518163ffffffff1660e01b8152600401602060405180830381865afa158015610bf4573d5f5f3e3d5ffd5b505050506040513d601f19601f82011682018060405250810190610c189190611cc9565b60405163a9059cbb60e01b81526001600160a01b038581166004830152602482018590529192505f9183169063a9059cbb906044015b6020604051808303815f875af1158015610c6a573d5f5f3e3d5ffd5b505050506040513d601f19601f82011682018060405250810190610c8e9190611f14565b905080610cae576040516312171d8360e31b815260040160405180910390fd5b50505050565b5f610cbd6116aa565b505f516020611f4a5f395f51905f5290565b610cd7611255565b6001600160a01b038116610cfe5760405163d92e233d60e01b815260040160405180910390fd5b600180546001600160a01b0319166001600160a01b0392909216919091179055565b5f60605f60025f9054906101000a90046001600160a01b03166001600160a01b03166314b19c5a6040518163ffffffff1660e01b8152600401602060405180830381865afa158015610d74573d5f5f3e3d5ffd5b505050506040513d601f19601f82011682018060405250810190610d989190611cb2565b60045460408051602081019091525f81529111969095509350505050565b610dbe611255565b610dc75f6116f3565b565b3380610dd36111a8565b6001600160a01b031614610e0a5760405163118cdaa760e01b81526001600160a01b03821660048201526024015b60405180910390fd5b610e13816116f3565b50565b5f807f9016d09d72d40fdae2fd8ceac6b6234c7706214fd39c1cd1e609a0528c1993005b546001600160a01b031692915050565b610e52611255565b6001600160a01b0382161580610e6f57506001600160a01b038116155b15610e8d5760405163d92e233d60e01b815260040160405180910390fd5b6001600160a01b038281165f8181526003602052604080822080546001600160a01b0319169486169485179055517fe5e39617beb2a298b9fa1c3928582d9a96ba7ef7c920acd1117d1d415568670a9190a35050565b600154604051633821dad160e21b81523360048201526001600160a01b039091169063e0876b4490602401602060405180830381865afa158015610f29573d5f5f3e3d5ffd5b505050506040513d601f19601f82011682018060405250810190610f4d9190611f14565b610f6a5760405163ea8e4eb560e01b815260040160405180910390fd5b60405163a9059cbb60e01b81526001600160a01b03831660048201526024810182905233905f90829063a9059cbb90604401610c4e565b5f610faa61172b565b805490915060ff600160401b820416159067ffffffffffffffff165f81158015610fd15750825b90505f8267ffffffffffffffff166001148015610fed5750303b155b905081158015610ffb575080155b156110195760405163f92ee8a960e01b815260040160405180910390fd5b845467ffffffffffffffff19166001178555831561104357845460ff60401b1916600160401b1785555b61104c88611755565b611054611766565b61105c611766565b6001600160a01b0387166110835760405163d92e233d60e01b815260040160405180910390fd5b6001600160a01b0386166110aa5760405163d92e233d60e01b815260040160405180910390fd5b5f80546001600160a01b03808a166001600160a01b03199283161790925560018054928916929091168217905560408051630691d8b960e31b8152905163348ec5c8916004808201926020929091908290030181865afa158015611110573d5f5f3e3d5ffd5b505050506040513d601f19601f820116820180604052508101906111349190611cc9565b600280546001600160a01b0319166001600160a01b03929092169190911790555f600455831561119e57845460ff60401b19168555604051600181527fc7f505b2f371ae2175ee4913f4499e1f2633a7b5936321eed1cdaeb6115181d29060200160405180910390a15b5050505050505050565b5f807f237e158222e3e6968b72b9db0d8043aacf074ad9f650f0d1606b4d82ee432c00610e3a565b6111d8611255565b7f237e158222e3e6968b72b9db0d8043aacf074ad9f650f0d1606b4d82ee432c0080546001600160a01b0319166001600160a01b038316908117825561121c610e16565b6001600160a01b03167f38d16b8cac22d99fc7c124b9cd0de2d3fa1faef420bfe791d8c362d765e2270060405160405180910390a35050565b3361125e610e16565b6001600160a01b031614610dc75760405163118cdaa760e01b8152336004820152602401610e01565b6001600160a01b038083165f9081526003602052604090205416806112bf57604051635048c2af60e11b815260040160405180910390fd5b60405163095ea7b360e01b81526001600160a01b038281166004830152602482018490525f919085169063095ea7b3906044016020604051808303815f875af115801561130e573d5f5f3e3d5ffd5b505050506040513d601f19601f820116820180604052508101906113329190611f14565b905080611352576040516312171d8360e31b815260040160405180910390fd5b604051636c197ff560e01b81526001600160a01b03858116600483015260248201859052831690636c197ff5906044015f604051808303815f87803b158015611399575f5ffd5b505af115801561119e573d5f5f3e3d5ffd5b6001600160a01b038083165f9081526003602052604090205416806113e357604051635048c2af60e11b815260040160405180910390fd5b5f836001600160a01b03166338d52e0f6040518163ffffffff1660e01b8152600401602060405180830381865afa158015611420573d5f5f3e3d5ffd5b505050506040513d601f19601f820116820180604052508101906114449190611cc9565b60405163095ea7b360e01b81526001600160a01b038481166004830152602482018690529192505f9183169063095ea7b3906044016020604051808303815f875af1158015611495573d5f5f3e3d5ffd5b505050506040513d601f19601f820116820180604052508101906114b99190611f14565b9050806114d9576040516312171d8360e31b815260040160405180910390fd5b60405163cce7ec1360e01b81526001600160a01b0386811660048301526024820186905284169063cce7ec13906044015f604051808303815f87803b158015611520575f5ffd5b505af1158015611532573d5f5f3e3d5ffd5b505050505050505050565b306001600160a01b037f00000000000000000000000000000000000000000000000000000000000000001614806115c357507f00000000000000000000000000000000000000000000000000000000000000006001600160a01b03166115b75f516020611f4a5f395f51905f52546001600160a01b031690565b6001600160a01b031614155b15610dc75760405163703e46dd60e11b815260040160405180910390fd5b610e13611255565b816001600160a01b03166352d1902d6040518163ffffffff1660e01b8152600401602060405180830381865afa925050508015611643575060408051601f3d908101601f1916820190925261164091810190611cb2565b60015b61166b57604051634c9c8ce360e01b81526001600160a01b0383166004820152602401610e01565b5f516020611f4a5f395f51905f52811461169b57604051632a87526960e21b815260048101829052602401610e01565b6116a5838361176e565b505050565b306001600160a01b037f00000000000000000000000000000000000000000000000000000000000000001614610dc75760405163703e46dd60e11b815260040160405180910390fd5b7f237e158222e3e6968b72b9db0d8043aacf074ad9f650f0d1606b4d82ee432c0080546001600160a01b0319168155610b11826117c3565b5f807ff0c57e16840df040f15088dc2f81fe391c3923bec73e23a9662efc9c229c6a005b92915050565b61175d611833565b610e1381611858565b610dc7611833565b61177782611889565b6040516001600160a01b038316907fbc7cd75a20ee27fd9adebab32041f755214dbc6bffa90cc0225b39da2e5c2d3b905f90a28051156117bb576116a582826118ec565b610b1161195e565b7f9016d09d72d40fdae2fd8ceac6b6234c7706214fd39c1cd1e609a0528c19930080546001600160a01b031981166001600160a01b03848116918217845560405192169182907f8be0079c531659141344cd1fd0a4f28419497f9722a3daafe3b4186f6b6457e0905f90a3505050565b61183b61197d565b610dc757604051631afcd79f60e31b815260040160405180910390fd5b611860611833565b6001600160a01b038116610e0a57604051631e4fbdf760e01b81525f6004820152602401610e01565b806001600160a01b03163b5f036118be57604051634c9c8ce360e01b81526001600160a01b0382166004820152602401610e01565b5f516020611f4a5f395f51905f5280546001600160a01b0319166001600160a01b0392909216919091179055565b60605f5f846001600160a01b0316846040516119089190611f33565b5f60405180830381855af49150503d805f8114611940576040519150601f19603f3d011682016040523d82523d5f602084013e611945565b606091505b5091509150611955858383611996565b95945050505050565b3415610dc75760405163b398979f60e01b815260040160405180910390fd5b5f61198661172b565b54600160401b900460ff16919050565b6060826119ab576119a6826119f5565b6119ee565b81511580156119c257506001600160a01b0384163b155b156119eb57604051639996b31560e01b81526001600160a01b0385166004820152602401610e01565b50805b9392505050565b805115611a055780518082602001fd5b60405163d6bda27560e01b815260040160405180910390fd5b6001600160a01b0381168114610e13575f5ffd5b5f60208284031215611a42575f5ffd5b81356119ee81611a1e565b5f5f60208385031215611a5e575f5ffd5b823567ffffffffffffffff811115611a74575f5ffd5b8301601f81018513611a84575f5ffd5b803567ffffffffffffffff811115611a9a575f5ffd5b856020828401011115611aab575f5ffd5b6020919091019590945092505050565b634e487b7160e01b5f52604160045260245ffd5b604051601f8201601f1916810167ffffffffffffffff81118282101715611af857611af8611abb565b604052919050565b5f5f60408385031215611b11575f5ffd5b8235611b1c81611a1e565b9150602083013567ffffffffffffffff811115611b37575f5ffd5b8301601f81018513611b47575f5ffd5b803567ffffffffffffffff811115611b6157611b61611abb565b611b74601f8201601f1916602001611acf565b818152866020838501011115611b88575f5ffd5b816020840160208301375f602083830101528093505050509250929050565b5f5f60408385031215611bb8575f5ffd5b8235611bc381611a1e565b946020939093013593505050565b5f81518084528060208401602086015e5f602082860101526020601f19601f83011685010191505092915050565b8215158152604060208201525f611c196040830184611bd1565b949350505050565b602081525f6119ee6020830184611bd1565b5f5f60408385031215611c44575f5ffd5b8235611c4f81611a1e565b91506020830135611c5f81611a1e565b809150509250929050565b5f5f5f60608486031215611c7c575f5ffd5b8335611c8781611a1e565b92506020840135611c9781611a1e565b91506040840135611ca781611a1e565b809150509250925092565b5f60208284031215611cc2575f5ffd5b5051919050565b5f60208284031215611cd9575f5ffd5b81516119ee81611a1e565b5f67ffffffffffffffff821115611cfd57611cfd611abb565b5060051b60200190565b5f82601f830112611d16575f5ffd5b8151611d29611d2482611ce4565b611acf565b8082825260208201915060208360051b860101925085831115611d4a575f5ffd5b602085015b83811015611d70578051611d6281611a1e565b835260209283019201611d4f565b5095945050505050565b5f5f60408385031215611d8b575f5ffd5b825167ffffffffffffffff811115611da1575f5ffd5b611dad85828601611d07565b925050602083015167ffffffffffffffff811115611dc9575f5ffd5b8301601f81018513611dd9575f5ffd5b8051611de7611d2482611ce4565b8082825260208201915060208360051b850101925087831115611e08575f5ffd5b6020840193505b82841015611e2a578351825260209384019390910190611e0f565b809450505050509250929050565b634e487b7160e01b5f52603260045260245ffd5b634e487b7160e01b5f52601160045260245ffd5b8181038181111561174f5761174f611e4c565b808202811582820484141761174f5761174f611e4c565b5f82611ea457634e487b7160e01b5f52601260045260245ffd5b500490565b8082018082111561174f5761174f611e4c565b6020810160028310611edc57634e487b7160e01b5f52602160045260245ffd5b91905290565b5f60208284031215611ef2575f5ffd5b815167ffffffffffffffff811115611f08575f5ffd5b611c1984828501611d07565b5f60208284031215611f24575f5ffd5b815180151581146119ee575f5ffd5b5f82518060208501845e5f92019182525091905056fe360894a13ba1a3210667c828492db98dca3e2076cc3735a920a3ca505d382bbca26469706673582212205efb6a2e448243295f9ea66a6d6fbc8eab877f69e883f6386d3d9423464ccc5864736f6c634300081c0033",
  "linkReferences": {},
  "deployedLinkReferences": {}
}