{
  "_format": "hh-sol-artifact-1",
  "contractName": "LiquidityOrchestrator",
  "sourceName": "contracts/orchestrators/LiquidityOrchestrator.sol",
  "abi": [
    {
      "inputs": [],
      "name": "AdapterNotSet",
      "type": "error"
    },
    {
      "inputs": [
        {
          "internalType": "address",
          "name": "target",
          "type": "address"
        }
      ],
      "name": "AddressEmptyCode",
      "type": "error"
    },
    {
      "inputs": [
        {
          "internalType": "address",
          "name": "implementation",
          "type": "address"
        }
      ],
      "name": "ERC1967InvalidImplementation",
      "type": "error"
    },
    {
      "inputs": [],
      "name": "ERC1967NonPayable",
      "type": "error"
    },
    {
      "inputs": [],
      "name": "FailedCall",
      "type": "error"
    },
    {
      "inputs": [],
      "name": "InvalidInitialization",
      "type": "error"
    },
    {
      "inputs": [],
      "name": "NotAuthorized",
      "type": "error"
    },
    {
      "inputs": [],
      "name": "NotInitializing",
      "type": "error"
    },
    {
      "inputs": [
        {
          "internalType": "address",
          "name": "owner",
          "type": "address"
        }
      ],
      "name": "OwnableInvalidOwner",
      "type": "error"
    },
    {
      "inputs": [
        {
          "internalType": "address",
          "name": "account",
          "type": "address"
        }
      ],
      "name": "OwnableUnauthorizedAccount",
      "type": "error"
    },
    {
      "inputs": [],
      "name": "TransferFailed",
      "type": "error"
    },
    {
      "inputs": [],
      "name": "UUPSUnauthorizedCallContext",
      "type": "error"
    },
    {
      "inputs": [
        {
          "internalType": "bytes32",
          "name": "slot",
          "type": "bytes32"
        }
      ],
      "name": "UUPSUnsupportedProxiableUUID",
      "type": "error"
    },
    {
      "inputs": [],
      "name": "ZeroAddress",
      "type": "error"
    },
    {
      "anonymous": false,
      "inputs": [
        {
          "indexed": true,
          "internalType": "address",
          "name": "asset",
          "type": "address"
        },
        {
          "indexed": true,
          "internalType": "address",
          "name": "adapter",
          "type": "address"
        }
      ],
      "name": "AdapterSet",
      "type": "event"
    },
    {
      "anonymous": false,
      "inputs": [
        {
          "indexed": true,
          "internalType": "address",
          "name": "newAutomationRegistry",
          "type": "address"
        }
      ],
      "name": "AutomationRegistryUpdated",
      "type": "event"
    },
    {
      "anonymous": false,
      "inputs": [
        {
          "indexed": false,
          "internalType": "uint64",
          "name": "version",
          "type": "uint64"
        }
      ],
      "name": "Initialized",
      "type": "event"
    },
    {
      "anonymous": false,
      "inputs": [
        {
          "indexed": true,
          "internalType": "address",
          "name": "previousOwner",
          "type": "address"
        },
        {
          "indexed": true,
          "internalType": "address",
          "name": "newOwner",
          "type": "address"
        }
      ],
      "name": "OwnershipTransferStarted",
      "type": "event"
    },
    {
      "anonymous": false,
      "inputs": [
        {
          "indexed": true,
          "internalType": "address",
          "name": "previousOwner",
          "type": "address"
        },
        {
          "indexed": true,
          "internalType": "address",
          "name": "newOwner",
          "type": "address"
        }
      ],
      "name": "OwnershipTransferred",
      "type": "event"
    },
    {
      "anonymous": false,
      "inputs": [],
      "name": "PortfolioRebalanced",
      "type": "event"
    },
    {
      "anonymous": false,
      "inputs": [
        {
          "indexed": true,
          "internalType": "address",
          "name": "implementation",
          "type": "address"
        }
      ],
      "name": "Upgraded",
      "type": "event"
    },
    {
      "inputs": [],
      "name": "UPGRADE_INTERFACE_VERSION",
      "outputs": [
        {
          "internalType": "string",
          "name": "",
          "type": "string"
        }
      ],
      "stateMutability": "view",
      "type": "function"
    },
    {
      "inputs": [],
      "name": "acceptOwnership",
      "outputs": [],
      "stateMutability": "nonpayable",
      "type": "function"
    },
    {
      "inputs": [],
      "name": "automationRegistry",
      "outputs": [
        {
          "internalType": "address",
          "name": "",
          "type": "address"
        }
      ],
      "stateMutability": "view",
      "type": "function"
    },
    {
      "inputs": [
        {
          "internalType": "bytes",
          "name": "",
          "type": "bytes"
        }
      ],
      "name": "checkUpkeep",
      "outputs": [
        {
          "internalType": "bool",
          "name": "upkeepNeeded",
          "type": "bool"
        },
        {
          "internalType": "bytes",
          "name": "performData",
          "type": "bytes"
        }
      ],
      "stateMutability": "view",
      "type": "function"
    },
    {
      "inputs": [],
      "name": "config",
      "outputs": [
        {
          "internalType": "contract IOrionConfig",
          "name": "",
          "type": "address"
        }
      ],
      "stateMutability": "view",
      "type": "function"
    },
    {
      "inputs": [],
      "name": "currentPhase",
      "outputs": [
        {
          "internalType": "enum LiquidityOrchestrator.UpkeepPhase",
          "name": "",
          "type": "uint8"
        }
      ],
      "stateMutability": "view",
      "type": "function"
    },
    {
      "inputs": [
        {
          "internalType": "address",
          "name": "",
          "type": "address"
        }
      ],
      "name": "executionAdapterOf",
      "outputs": [
        {
          "internalType": "contract IExecutionAdapter",
          "name": "",
          "type": "address"
        }
      ],
      "stateMutability": "view",
      "type": "function"
    },
    {
      "inputs": [
        {
          "internalType": "address",
          "name": "initialOwner",
          "type": "address"
        },
        {
          "internalType": "address",
          "name": "automationRegistry_",
          "type": "address"
        },
        {
          "internalType": "address",
          "name": "config_",
          "type": "address"
        }
      ],
      "name": "initialize",
      "outputs": [],
      "stateMutability": "nonpayable",
      "type": "function"
    },
    {
      "inputs": [],
      "name": "internalStatesOrchestrator",
      "outputs": [
        {
          "internalType": "contract IInternalStateOrchestrator",
          "name": "",
          "type": "address"
        }
      ],
      "stateMutability": "view",
      "type": "function"
    },
    {
      "inputs": [],
      "name": "lastProcessedEpoch",
      "outputs": [
        {
          "internalType": "uint256",
          "name": "",
          "type": "uint256"
        }
      ],
      "stateMutability": "view",
      "type": "function"
    },
    {
      "inputs": [],
      "name": "owner",
      "outputs": [
        {
          "internalType": "address",
          "name": "",
          "type": "address"
        }
      ],
      "stateMutability": "view",
      "type": "function"
    },
    {
      "inputs": [],
      "name": "pendingOwner",
      "outputs": [
        {
          "internalType": "address",
          "name": "",
          "type": "address"
        }
      ],
      "stateMutability": "view",
      "type": "function"
    },
    {
      "inputs": [
        {
          "internalType": "bytes",
          "name": "",
          "type": "bytes"
        }
      ],
      "name": "performUpkeep",
      "outputs": [],
      "stateMutability": "nonpayable",
      "type": "function"
    },
    {
      "inputs": [],
      "name": "processedLegOrders",
      "outputs": [
        {
          "internalType": "uint256",
          "name": "",
          "type": "uint256"
        }
      ],
      "stateMutability": "view",
      "type": "function"
    },
    {
      "inputs": [],
      "name": "proxiableUUID",
      "outputs": [
        {
          "internalType": "bytes32",
          "name": "",
          "type": "bytes32"
        }
      ],
      "stateMutability": "view",
      "type": "function"
    },
    {
      "inputs": [],
      "name": "renounceOwnership",
      "outputs": [],
      "stateMutability": "nonpayable",
      "type": "function"
    },
    {
      "inputs": [
        {
          "internalType": "address",
          "name": "user",
          "type": "address"
        },
        {
          "internalType": "uint256",
          "name": "amount",
          "type": "uint256"
        }
      ],
      "name": "returnDepositFunds",
      "outputs": [],
      "stateMutability": "nonpayable",
      "type": "function"
    },
    {
      "inputs": [
        {
          "internalType": "address",
          "name": "user",
          "type": "address"
        },
        {
          "internalType": "uint256",
          "name": "shares",
          "type": "uint256"
        }
      ],
      "name": "returnWithdrawShares",
      "outputs": [],
      "stateMutability": "nonpayable",
      "type": "function"
    },
    {
      "inputs": [
        {
          "internalType": "address",
          "name": "asset",
          "type": "address"
        },
        {
          "internalType": "contract IExecutionAdapter",
          "name": "adapter",
          "type": "address"
        }
      ],
      "name": "setAdapter",
      "outputs": [],
      "stateMutability": "nonpayable",
      "type": "function"
    },
    {
      "inputs": [
        {
          "internalType": "address",
          "name": "newOwner",
          "type": "address"
        }
      ],
      "name": "transferOwnership",
      "outputs": [],
      "stateMutability": "nonpayable",
      "type": "function"
    },
    {
      "inputs": [],
      "name": "underlyingAsset",
      "outputs": [
        {
          "internalType": "address",
          "name": "",
          "type": "address"
        }
      ],
      "stateMutability": "view",
      "type": "function"
    },
    {
      "inputs": [
        {
          "internalType": "address",
          "name": "newAutomationRegistry",
          "type": "address"
        }
      ],
      "name": "updateAutomationRegistry",
      "outputs": [],
      "stateMutability": "nonpayable",
      "type": "function"
    },
    {
      "inputs": [
        {
          "internalType": "address",
          "name": "newConfig",
          "type": "address"
        }
      ],
      "name": "updateConfig",
      "outputs": [],
      "stateMutability": "nonpayable",
      "type": "function"
    },
    {
      "inputs": [
        {
          "internalType": "address",
          "name": "newImplementation",
          "type": "address"
        },
        {
          "internalType": "bytes",
          "name": "data",
          "type": "bytes"
        }
      ],
      "name": "upgradeToAndCall",
      "outputs": [],
      "stateMutability": "payable",
      "type": "function"
    }
  ],
  "bytecode": "0x60a0604052306080523480156012575f5ffd5b506080516120ea6100395f395f818161167d015281816116a601526117e501526120ea5ff3fe608060405260043610610147575f3560e01c80637158da7c116100b3578063be186b201161006d578063be186b201461039a578063c0c53b8b146103b9578063d3f3506d146103d8578063e30c39781461040c578063ee6713df14610420578063f2fde38b14610435575f5ffd5b80637158da7c146102d857806379502c55146102f757806379ba5097146103165780638da5cb5b1461032a578063ad3cb1cc1461033e578063ba59b4ca1461037b575f5ffd5b806351edffb11161010457806351edffb11461022757806352d1902d146102465780635dc228a01461025a5780636cc919c8146102785780636e04ff0d14610297578063715018a6146102c4575f5ffd5b8063055ad42e1461014b57806314b5d07f1461017a5780631a2e7ec91461019b578063348ec5c8146101be5780634585e33b146101f55780634f1ef28614610214575b5f5ffd5b348015610156575f5ffd5b506006546101649060ff1681565b6040516101719190611b61565b60405180910390f35b348015610185575f5ffd5b50610199610194366004611b8f565b610454565b005b3480156101a6575f5ffd5b506101b060075481565b604051908152602001610171565b3480156101c9575f5ffd5b506002546101dd906001600160a01b031681565b6040516001600160a01b039091168152602001610171565b348015610200575f5ffd5b5061019961020f366004611baa565b6104ca565b610199610222366004611c5d565b610b29565b348015610232575f5ffd5b50610199610241366004611d04565b610b44565b348015610251575f5ffd5b506101b0610c64565b348015610265575f5ffd5b505f546101dd906001600160a01b031681565b348015610283575f5ffd5b50610199610292366004611b8f565b610c7f565b3480156102a2575f5ffd5b506102b66102b1366004611baa565b610cd0565b604051610171929190611d5c565b3480156102cf575f5ffd5b50610199610dd5565b3480156102e3575f5ffd5b506003546101dd906001600160a01b031681565b348015610302575f5ffd5b506001546101dd906001600160a01b031681565b348015610321575f5ffd5b50610199610de8565b348015610335575f5ffd5b506101dd610e35565b348015610349575f5ffd5b5061036e604051806040016040528060058152602001640352e302e360dc1b81525081565b6040516101719190611d7e565b348015610386575f5ffd5b50610199610395366004611d90565b610e69565b3480156103a5575f5ffd5b506101996103b4366004611d04565b610f25565b3480156103c4575f5ffd5b506101996103d3366004611dc7565b611044565b3480156103e3575f5ffd5b506101dd6103f2366004611b8f565b60046020525f90815260409020546001600160a01b031681565b348015610417575f5ffd5b506101dd6112dd565b34801561042b575f5ffd5b506101b060055481565b348015610440575f5ffd5b5061019961044f366004611b8f565b611305565b61045c61138a565b6001600160a01b0381166104835760405163d92e233d60e01b815260040160405180910390fd5b5f80546001600160a01b0319166001600160a01b038316908117825560405190917f6cc7ebdb6c8c53291c5ae16148cab9b049d23bf5bde5632900b40edff56fcb4391a250565b5f546001600160a01b031633146104f45760405163ea8e4eb560e01b815260040160405180910390fd5b60025460408051630a58ce2d60e11b815290515f926001600160a01b0316916314b19c5a9160048083019260209291908290030181865afa15801561053b573d5f5f3e3d5ffd5b505050506040513d601f19601f8201168201806040525081019061055f9190611e0f565b9050600554811161056f57505050565b60058190556003546040516370a0823160e01b81523060048201525f916001600160a01b0316906370a0823190602401602060405180830381865afa1580156105ba573d5f5f3e3d5ffd5b505050506040513d601f19601f820116820180604052508101906105de9190611e0f565b90505f5f60025f9054906101000a90046001600160a01b03166001600160a01b031663c2cb5d886040518163ffffffff1660e01b81526004015f60405180830381865afa158015610631573d5f5f3e3d5ffd5b505050506040513d5f823e601f3d908101601f191682016040526106589190810190611ebc565b90925090505f5b82518110156106b6575f83828151811061067b5761067b611f7a565b602002602001015190505f83838151811061069857610698611f7a565b602002602001015190506106ac82826113bc565b505060010161065f565b506003546040516370a0823160e01b81523060048201525f916001600160a01b0316906370a0823190602401602060405180830381865afa1580156106fd573d5f5f3e3d5ffd5b505050506040513d601f19601f820116820180604052508101906107219190611e0f565b90505f61072e8583611fa2565b90505f60025f9054906101000a90046001600160a01b03166001600160a01b03166306cce8486040518163ffffffff1660e01b8152600401602060405180830381865afa158015610781573d5f5f3e3d5ffd5b505050506040513d601f19601f820116820180604052508101906107a59190611e0f565b90505f6107b28284611fa2565b90505f60025f9054906101000a90046001600160a01b03166001600160a01b0316634a1d96256040518163ffffffff1660e01b8152600401602060405180830381865afa158015610805573d5f5f3e3d5ffd5b505050506040513d601f19601f820116820180604052508101906108299190611e0f565b9050670de0b6b3a7640000811561086c578161084d84670de0b6b3a7640000611fb5565b6108579190611fcc565b61086990670de0b6b3a7640000611feb565b90505b5f5f60025f9054906101000a90046001600160a01b03166001600160a01b031663a08b82d76040518163ffffffff1660e01b81526004015f60405180830381865afa1580156108bd573d5f5f3e3d5ffd5b505050506040513d5f823e601f3d908101601f191682016040526108e49190810190611ebc565b90925090505f5b825181101561095157670de0b6b3a76400008483838151811061091057610910611f7a565b60200260200101516109229190611fb5565b61092c9190611fcc565b82828151811061093e5761093e611f7a565b60209081029190910101526001016108eb565b505f5b82518110156109ab575f83828151811061097057610970611f7a565b602002602001015190505f83838151811061098d5761098d611f7a565b602002602001015190506109a182826114e0565b5050600101610954565b50600154604051631da09e4360e31b81525f916001600160a01b03169063ed04f218906109dc908490600401611ffe565b5f60405180830381865afa1580156109f6573d5f5f3e3d5ffd5b505050506040513d5f823e601f3d908101601f19168201604052610a1d9190810190612012565b80519091505f5b81811015610a4a575f838281518110610a3f57610a3f611f7a565b505050600101610a24565b5060018054604051631da09e4360e31b81525f926001600160a01b039092169163ed04f21891610a7d9190600401611ffe565b5f60405180830381865afa158015610a97573d5f5f3e3d5ffd5b505050506040513d5f823e601f3d908101601f19168201604052610abe9190810190612012565b8051925090505f5b82811015610aec575f828281518110610ae157610ae1611f7a565b505050600101610ac6565b506040517ff0094b59b7bc92e9fc611b14b5d3a34fe02530ac9bcf36c2c6f10147c3030c12905f90a15050505050505050505050505050505b5050565b610b31611672565b610b3a82611716565b610b25828261171e565b600154604051633821dad160e21b81523360048201526001600160a01b039091169063e0876b4490602401602060405180830381865afa158015610b8a573d5f5f3e3d5ffd5b505050506040513d601f19601f82011682018060405250810190610bae9190612044565b610bcb5760405163ea8e4eb560e01b815260040160405180910390fd5b60035460405163a9059cbb60e01b81526001600160a01b038481166004830152602482018490525f92169063a9059cbb906044016020604051808303815f875af1158015610c1b573d5f5f3e3d5ffd5b505050506040513d601f19601f82011682018060405250810190610c3f9190612044565b905080610c5f576040516312171d8360e31b815260040160405180910390fd5b505050565b5f610c6d6117da565b505f5160206120955f395f51905f5290565b610c8761138a565b6001600160a01b038116610cae5760405163d92e233d60e01b815260040160405180910390fd5b600180546001600160a01b0319166001600160a01b0392909216919091179055565b5f60605f60025f9054906101000a90046001600160a01b03166001600160a01b03166314b19c5a6040518163ffffffff1660e01b8152600401602060405180830381865afa158015610d24573d5f5f3e3d5ffd5b505050506040513d601f19601f82011682018060405250810190610d489190611e0f565b905060055481118015610d7057505f60065460ff166003811115610d6e57610d6e611b4d565b145b15610db85760019250604051602001610da2906020808252600590820152641cdd185c9d60da1b604082015260600190565b6040516020818303038152906040529150610dcd565b5f925060405180602001604052805f81525091505b509250929050565b610ddd61138a565b610de65f611823565b565b3380610df26112dd565b6001600160a01b031614610e295760405163118cdaa760e01b81526001600160a01b03821660048201526024015b60405180910390fd5b610e3281611823565b50565b5f807f9016d09d72d40fdae2fd8ceac6b6234c7706214fd39c1cd1e609a0528c1993005b546001600160a01b031692915050565b6001546001600160a01b03163314610e945760405163ea8e4eb560e01b815260040160405180910390fd5b6001600160a01b0382161580610eb157506001600160a01b038116155b15610ecf5760405163d92e233d60e01b815260040160405180910390fd5b6001600160a01b038281165f8181526004602052604080822080546001600160a01b0319169486169485179055517fe5e39617beb2a298b9fa1c3928582d9a96ba7ef7c920acd1117d1d415568670a9190a35050565b600154604051633821dad160e21b81523360048201526001600160a01b039091169063e0876b4490602401602060405180830381865afa158015610f6b573d5f5f3e3d5ffd5b505050506040513d601f19601f82011682018060405250810190610f8f9190612044565b610fac5760405163ea8e4eb560e01b815260040160405180910390fd5b60405163a9059cbb60e01b81526001600160a01b03831660048201526024810182905233905f90829063a9059cbb906044016020604051808303815f875af1158015610ffa573d5f5f3e3d5ffd5b505050506040513d601f19601f8201168201806040525081019061101e9190612044565b90508061103e576040516312171d8360e31b815260040160405180910390fd5b50505050565b5f61104d61185b565b805490915060ff600160401b820416159067ffffffffffffffff165f811580156110745750825b90505f8267ffffffffffffffff1660011480156110905750303b155b90508115801561109e575080155b156110bc5760405163f92ee8a960e01b815260040160405180910390fd5b845467ffffffffffffffff1916600117855583156110e657845460ff60401b1916600160401b1785555b6110ef88611885565b6110f7611896565b6110ff611896565b6001600160a01b0387166111265760405163d92e233d60e01b815260040160405180910390fd5b6001600160a01b03861661114d5760405163d92e233d60e01b815260040160405180910390fd5b5f80546001600160a01b03808a166001600160a01b03199283161790925560018054928916929091168217905560408051630691d8b960e31b8152905163348ec5c8916004808201926020929091908290030181865afa1580156111b3573d5f5f3e3d5ffd5b505050506040513d601f19601f820116820180604052508101906111d79190612063565b600280546001600160a01b0319166001600160a01b0392831617905560015460408051631c56369f60e21b815290519190921691637158da7c9160048083019260209291908290030181865afa158015611233573d5f5f3e3d5ffd5b505050506040513d601f19601f820116820180604052508101906112579190612063565b600380546001600160a01b0319166001600160a01b03929092169190911790555f60058190556006805460ff1916600117905560075583156112d357845460ff60401b19168555604051600181527fc7f505b2f371ae2175ee4913f4499e1f2633a7b5936321eed1cdaeb6115181d29060200160405180910390a15b5050505050505050565b5f807f237e158222e3e6968b72b9db0d8043aacf074ad9f650f0d1606b4d82ee432c00610e59565b61130d61138a565b7f237e158222e3e6968b72b9db0d8043aacf074ad9f650f0d1606b4d82ee432c0080546001600160a01b0319166001600160a01b0383169081178255611351610e35565b6001600160a01b03167f38d16b8cac22d99fc7c124b9cd0de2d3fa1faef420bfe791d8c362d765e2270060405160405180910390a35050565b33611393610e35565b6001600160a01b031614610de65760405163118cdaa760e01b8152336004820152602401610e20565b6001600160a01b038083165f9081526004602052604090205416806113f457604051635048c2af60e11b815260040160405180910390fd5b60405163095ea7b360e01b81526001600160a01b038281166004830152602482018490525f919085169063095ea7b3906044016020604051808303815f875af1158015611443573d5f5f3e3d5ffd5b505050506040513d601f19601f820116820180604052508101906114679190612044565b905080611487576040516312171d8360e31b815260040160405180910390fd5b604051636c197ff560e01b81526001600160a01b03858116600483015260248201859052831690636c197ff5906044015f604051808303815f87803b1580156114ce575f5ffd5b505af11580156112d3573d5f5f3e3d5ffd5b6001600160a01b038083165f90815260046020526040902054168061151857604051635048c2af60e11b815260040160405180910390fd5b5f836001600160a01b03166338d52e0f6040518163ffffffff1660e01b8152600401602060405180830381865afa158015611555573d5f5f3e3d5ffd5b505050506040513d601f19601f820116820180604052508101906115799190612063565b60405163095ea7b360e01b81526001600160a01b038481166004830152602482018690529192505f9183169063095ea7b3906044016020604051808303815f875af11580156115ca573d5f5f3e3d5ffd5b505050506040513d601f19601f820116820180604052508101906115ee9190612044565b90508061160e576040516312171d8360e31b815260040160405180910390fd5b60405163cce7ec1360e01b81526001600160a01b0386811660048301526024820186905284169063cce7ec13906044015f604051808303815f87803b158015611655575f5ffd5b505af1158015611667573d5f5f3e3d5ffd5b505050505050505050565b306001600160a01b037f00000000000000000000000000000000000000000000000000000000000000001614806116f857507f00000000000000000000000000000000000000000000000000000000000000006001600160a01b03166116ec5f5160206120955f395f51905f52546001600160a01b031690565b6001600160a01b031614155b15610de65760405163703e46dd60e11b815260040160405180910390fd5b610e3261138a565b816001600160a01b03166352d1902d6040518163ffffffff1660e01b8152600401602060405180830381865afa925050508015611778575060408051601f3d908101601f1916820190925261177591810190611e0f565b60015b6117a057604051634c9c8ce360e01b81526001600160a01b0383166004820152602401610e20565b5f5160206120955f395f51905f5281146117d057604051632a87526960e21b815260048101829052602401610e20565b610c5f838361189e565b306001600160a01b037f00000000000000000000000000000000000000000000000000000000000000001614610de65760405163703e46dd60e11b815260040160405180910390fd5b7f237e158222e3e6968b72b9db0d8043aacf074ad9f650f0d1606b4d82ee432c0080546001600160a01b0319168155610b25826118f3565b5f807ff0c57e16840df040f15088dc2f81fe391c3923bec73e23a9662efc9c229c6a005b92915050565b61188d611963565b610e3281611988565b610de6611963565b6118a7826119b9565b6040516001600160a01b038316907fbc7cd75a20ee27fd9adebab32041f755214dbc6bffa90cc0225b39da2e5c2d3b905f90a28051156118eb57610c5f8282611a1c565b610b25611a8e565b7f9016d09d72d40fdae2fd8ceac6b6234c7706214fd39c1cd1e609a0528c19930080546001600160a01b031981166001600160a01b03848116918217845560405192169182907f8be0079c531659141344cd1fd0a4f28419497f9722a3daafe3b4186f6b6457e0905f90a3505050565b61196b611aad565b610de657604051631afcd79f60e31b815260040160405180910390fd5b611990611963565b6001600160a01b038116610e2957604051631e4fbdf760e01b81525f6004820152602401610e20565b806001600160a01b03163b5f036119ee57604051634c9c8ce360e01b81526001600160a01b0382166004820152602401610e20565b5f5160206120955f395f51905f5280546001600160a01b0319166001600160a01b0392909216919091179055565b60605f5f846001600160a01b031684604051611a38919061207e565b5f60405180830381855af49150503d805f8114611a70576040519150601f19603f3d011682016040523d82523d5f602084013e611a75565b606091505b5091509150611a85858383611ac6565b95945050505050565b3415610de65760405163b398979f60e01b815260040160405180910390fd5b5f611ab661185b565b54600160401b900460ff16919050565b606082611adb57611ad682611b25565b611b1e565b8151158015611af257506001600160a01b0384163b155b15611b1b57604051639996b31560e01b81526001600160a01b0385166004820152602401610e20565b50805b9392505050565b805115611b3457805160208201fd5b60405163d6bda27560e01b815260040160405180910390fd5b634e487b7160e01b5f52602160045260245ffd5b6020810160048310611b7557611b75611b4d565b91905290565b6001600160a01b0381168114610e32575f5ffd5b5f60208284031215611b9f575f5ffd5b8135611b1e81611b7b565b5f5f60208385031215611bbb575f5ffd5b823567ffffffffffffffff811115611bd1575f5ffd5b8301601f81018513611be1575f5ffd5b803567ffffffffffffffff811115611bf7575f5ffd5b856020828401011115611c08575f5ffd5b6020919091019590945092505050565b634e487b7160e01b5f52604160045260245ffd5b604051601f8201601f1916810167ffffffffffffffff81118282101715611c5557611c55611c18565b604052919050565b5f5f60408385031215611c6e575f5ffd5b8235611c7981611b7b565b9150602083013567ffffffffffffffff811115611c94575f5ffd5b8301601f81018513611ca4575f5ffd5b803567ffffffffffffffff811115611cbe57611cbe611c18565b611cd1601f8201601f1916602001611c2c565b818152866020838501011115611ce5575f5ffd5b816020840160208301375f602083830101528093505050509250929050565b5f5f60408385031215611d15575f5ffd5b8235611d2081611b7b565b946020939093013593505050565b5f81518084528060208401602086015e5f602082860101526020601f19601f83011685010191505092915050565b8215158152604060208201525f611d766040830184611d2e565b949350505050565b602081525f611b1e6020830184611d2e565b5f5f60408385031215611da1575f5ffd5b8235611dac81611b7b565b91506020830135611dbc81611b7b565b809150509250929050565b5f5f5f60608486031215611dd9575f5ffd5b8335611de481611b7b565b92506020840135611df481611b7b565b91506040840135611e0481611b7b565b809150509250925092565b5f60208284031215611e1f575f5ffd5b5051919050565b5f67ffffffffffffffff821115611e3f57611e3f611c18565b5060051b60200190565b5f82601f830112611e58575f5ffd5b8151611e6b611e6682611e26565b611c2c565b8082825260208201915060208360051b860101925085831115611e8c575f5ffd5b602085015b83811015611eb2578051611ea481611b7b565b835260209283019201611e91565b5095945050505050565b5f5f60408385031215611ecd575f5ffd5b825167ffffffffffffffff811115611ee3575f5ffd5b611eef85828601611e49565b925050602083015167ffffffffffffffff811115611f0b575f5ffd5b8301601f81018513611f1b575f5ffd5b8051611f29611e6682611e26565b8082825260208201915060208360051b850101925087831115611f4a575f5ffd5b6020840193505b82841015611f6c578351825260209384019390910190611f51565b809450505050509250929050565b634e487b7160e01b5f52603260045260245ffd5b634e487b7160e01b5f52601160045260245ffd5b8181038181111561187f5761187f611f8e565b808202811582820484141761187f5761187f611f8e565b5f82611fe657634e487b7160e01b5f52601260045260245ffd5b500490565b8082018082111561187f5761187f611f8e565b6020810160028310611b7557611b75611b4d565b5f60208284031215612022575f5ffd5b815167ffffffffffffffff811115612038575f5ffd5b611d7684828501611e49565b5f60208284031215612054575f5ffd5b81518015158114611b1e575f5ffd5b5f60208284031215612073575f5ffd5b8151611b1e81611b7b565b5f82518060208501845e5f92019182525091905056fe360894a13ba1a3210667c828492db98dca3e2076cc3735a920a3ca505d382bbca26469706673582212206abe853477d37fab175c07a17d4cd2d3fc9aeecc86bb16186a483a542a097cff64736f6c634300081c0033",
  "linkReferences": {},
  "deployedLinkReferences": {}
}