{
  "_format": "hh-sol-artifact-1",
  "contractName": "LiquidityOrchestrator",
  "sourceName": "contracts/orchestrators/LiquidityOrchestrator.sol",
  "abi": [
    {
      "inputs": [
        {
          "internalType": "address",
          "name": "initialOwner",
          "type": "address"
        },
        {
          "internalType": "address",
          "name": "config_",
          "type": "address"
        },
        {
          "internalType": "address",
          "name": "automationRegistry_",
          "type": "address"
        }
      ],
      "stateMutability": "nonpayable",
      "type": "constructor"
    },
    {
      "inputs": [],
      "name": "AdapterNotSet",
      "type": "error"
    },
    {
      "inputs": [],
      "name": "AlreadyRegistered",
      "type": "error"
    },
    {
      "inputs": [
        {
          "internalType": "address",
          "name": "asset",
          "type": "address"
        }
      ],
      "name": "AmountMustBeGreaterThanZero",
      "type": "error"
    },
    {
      "inputs": [],
      "name": "EnforcedPause",
      "type": "error"
    },
    {
      "inputs": [],
      "name": "ExpectedPause",
      "type": "error"
    },
    {
      "inputs": [],
      "name": "InsufficientAmount",
      "type": "error"
    },
    {
      "inputs": [],
      "name": "InvalidArguments",
      "type": "error"
    },
    {
      "inputs": [],
      "name": "NotAuthorized",
      "type": "error"
    },
    {
      "inputs": [
        {
          "internalType": "address",
          "name": "owner",
          "type": "address"
        }
      ],
      "name": "OwnableInvalidOwner",
      "type": "error"
    },
    {
      "inputs": [
        {
          "internalType": "address",
          "name": "account",
          "type": "address"
        }
      ],
      "name": "OwnableUnauthorizedAccount",
      "type": "error"
    },
    {
      "inputs": [],
      "name": "ReentrancyGuardReentrantCall",
      "type": "error"
    },
    {
      "inputs": [
        {
          "internalType": "address",
          "name": "token",
          "type": "address"
        }
      ],
      "name": "SafeERC20FailedOperation",
      "type": "error"
    },
    {
      "inputs": [],
      "name": "SystemNotIdle",
      "type": "error"
    },
    {
      "inputs": [],
      "name": "ZeroAddress",
      "type": "error"
    },
    {
      "anonymous": false,
      "inputs": [
        {
          "indexed": true,
          "internalType": "address",
          "name": "newAutomationRegistry",
          "type": "address"
        }
      ],
      "name": "AutomationRegistryUpdated",
      "type": "event"
    },
    {
      "anonymous": false,
      "inputs": [
        {
          "indexed": true,
          "internalType": "address",
          "name": "asset",
          "type": "address"
        },
        {
          "indexed": true,
          "internalType": "address",
          "name": "adapter",
          "type": "address"
        }
      ],
      "name": "ExecutionAdapterSet",
      "type": "event"
    },
    {
      "anonymous": false,
      "inputs": [
        {
          "indexed": true,
          "internalType": "address",
          "name": "previousOwner",
          "type": "address"
        },
        {
          "indexed": true,
          "internalType": "address",
          "name": "newOwner",
          "type": "address"
        }
      ],
      "name": "OwnershipTransferStarted",
      "type": "event"
    },
    {
      "anonymous": false,
      "inputs": [
        {
          "indexed": true,
          "internalType": "address",
          "name": "previousOwner",
          "type": "address"
        },
        {
          "indexed": true,
          "internalType": "address",
          "name": "newOwner",
          "type": "address"
        }
      ],
      "name": "OwnershipTransferred",
      "type": "event"
    },
    {
      "anonymous": false,
      "inputs": [
        {
          "indexed": false,
          "internalType": "address",
          "name": "account",
          "type": "address"
        }
      ],
      "name": "Paused",
      "type": "event"
    },
    {
      "anonymous": false,
      "inputs": [],
      "name": "PortfolioRebalanced",
      "type": "event"
    },
    {
      "anonymous": false,
      "inputs": [
        {
          "indexed": false,
          "internalType": "address",
          "name": "account",
          "type": "address"
        }
      ],
      "name": "Unpaused",
      "type": "event"
    },
    {
      "inputs": [],
      "name": "BASIS_POINTS_FACTOR",
      "outputs": [
        {
          "internalType": "uint16",
          "name": "",
          "type": "uint16"
        }
      ],
      "stateMutability": "view",
      "type": "function"
    },
    {
      "inputs": [],
      "name": "MAX_MINIBATCH_SIZE",
      "outputs": [
        {
          "internalType": "uint8",
          "name": "",
          "type": "uint8"
        }
      ],
      "stateMutability": "view",
      "type": "function"
    },
    {
      "inputs": [],
      "name": "acceptOwnership",
      "outputs": [],
      "stateMutability": "nonpayable",
      "type": "function"
    },
    {
      "inputs": [],
      "name": "admin",
      "outputs": [
        {
          "internalType": "address",
          "name": "",
          "type": "address"
        }
      ],
      "stateMutability": "view",
      "type": "function"
    },
    {
      "inputs": [],
      "name": "advanceIdlePhase",
      "outputs": [],
      "stateMutability": "nonpayable",
      "type": "function"
    },
    {
      "inputs": [],
      "name": "automationRegistry",
      "outputs": [
        {
          "internalType": "address",
          "name": "",
          "type": "address"
        }
      ],
      "stateMutability": "view",
      "type": "function"
    },
    {
      "inputs": [
        {
          "internalType": "bytes",
          "name": "",
          "type": "bytes"
        }
      ],
      "name": "checkUpkeep",
      "outputs": [
        {
          "internalType": "bool",
          "name": "upkeepNeeded",
          "type": "bool"
        },
        {
          "internalType": "bytes",
          "name": "performData",
          "type": "bytes"
        }
      ],
      "stateMutability": "view",
      "type": "function"
    },
    {
      "inputs": [
        {
          "internalType": "uint256",
          "name": "amount",
          "type": "uint256"
        }
      ],
      "name": "claimProtocolFees",
      "outputs": [],
      "stateMutability": "nonpayable",
      "type": "function"
    },
    {
      "inputs": [],
      "name": "config",
      "outputs": [
        {
          "internalType": "contract IOrionConfig",
          "name": "",
          "type": "address"
        }
      ],
      "stateMutability": "view",
      "type": "function"
    },
    {
      "inputs": [],
      "name": "currentMinibatchIndex",
      "outputs": [
        {
          "internalType": "uint8",
          "name": "",
          "type": "uint8"
        }
      ],
      "stateMutability": "view",
      "type": "function"
    },
    {
      "inputs": [],
      "name": "currentPhase",
      "outputs": [
        {
          "internalType": "enum ILiquidityOrchestrator.LiquidityUpkeepPhase",
          "name": "",
          "type": "uint8"
        }
      ],
      "stateMutability": "view",
      "type": "function"
    },
    {
      "inputs": [],
      "name": "deltaBufferAmount",
      "outputs": [
        {
          "internalType": "int256",
          "name": "",
          "type": "int256"
        }
      ],
      "stateMutability": "view",
      "type": "function"
    },
    {
      "inputs": [
        {
          "internalType": "uint256",
          "name": "amount",
          "type": "uint256"
        }
      ],
      "name": "depositLiquidity",
      "outputs": [],
      "stateMutability": "nonpayable",
      "type": "function"
    },
    {
      "inputs": [
        {
          "internalType": "address",
          "name": "",
          "type": "address"
        }
      ],
      "name": "executionAdapterOf",
      "outputs": [
        {
          "internalType": "contract IExecutionAdapter",
          "name": "",
          "type": "address"
        }
      ],
      "stateMutability": "view",
      "type": "function"
    },
    {
      "inputs": [],
      "name": "internalStatesOrchestrator",
      "outputs": [
        {
          "internalType": "contract IInternalStateOrchestrator",
          "name": "",
          "type": "address"
        }
      ],
      "stateMutability": "view",
      "type": "function"
    },
    {
      "inputs": [],
      "name": "minibatchSize",
      "outputs": [
        {
          "internalType": "uint8",
          "name": "",
          "type": "uint8"
        }
      ],
      "stateMutability": "view",
      "type": "function"
    },
    {
      "inputs": [],
      "name": "owner",
      "outputs": [
        {
          "internalType": "address",
          "name": "",
          "type": "address"
        }
      ],
      "stateMutability": "view",
      "type": "function"
    },
    {
      "inputs": [],
      "name": "pause",
      "outputs": [],
      "stateMutability": "nonpayable",
      "type": "function"
    },
    {
      "inputs": [],
      "name": "paused",
      "outputs": [
        {
          "internalType": "bool",
          "name": "",
          "type": "bool"
        }
      ],
      "stateMutability": "view",
      "type": "function"
    },
    {
      "inputs": [],
      "name": "pendingOwner",
      "outputs": [
        {
          "internalType": "address",
          "name": "",
          "type": "address"
        }
      ],
      "stateMutability": "view",
      "type": "function"
    },
    {
      "inputs": [
        {
          "internalType": "bytes",
          "name": "",
          "type": "bytes"
        }
      ],
      "name": "performUpkeep",
      "outputs": [],
      "stateMutability": "nonpayable",
      "type": "function"
    },
    {
      "inputs": [],
      "name": "renounceOwnership",
      "outputs": [],
      "stateMutability": "nonpayable",
      "type": "function"
    },
    {
      "inputs": [
        {
          "internalType": "address",
          "name": "user",
          "type": "address"
        },
        {
          "internalType": "uint256",
          "name": "amount",
          "type": "uint256"
        }
      ],
      "name": "returnDepositFunds",
      "outputs": [],
      "stateMutability": "nonpayable",
      "type": "function"
    },
    {
      "inputs": [
        {
          "internalType": "address",
          "name": "asset",
          "type": "address"
        },
        {
          "internalType": "contract IExecutionAdapter",
          "name": "adapter",
          "type": "address"
        }
      ],
      "name": "setExecutionAdapter",
      "outputs": [],
      "stateMutability": "nonpayable",
      "type": "function"
    },
    {
      "inputs": [
        {
          "internalType": "address",
          "name": "_internalStatesOrchestrator",
          "type": "address"
        }
      ],
      "name": "setInternalStatesOrchestrator",
      "outputs": [],
      "stateMutability": "nonpayable",
      "type": "function"
    },
    {
      "inputs": [
        {
          "internalType": "uint256",
          "name": "_targetBufferRatio",
          "type": "uint256"
        }
      ],
      "name": "setTargetBufferRatio",
      "outputs": [],
      "stateMutability": "nonpayable",
      "type": "function"
    },
    {
      "inputs": [],
      "name": "slippageTolerance",
      "outputs": [
        {
          "internalType": "uint256",
          "name": "",
          "type": "uint256"
        }
      ],
      "stateMutability": "view",
      "type": "function"
    },
    {
      "inputs": [],
      "name": "targetBufferRatio",
      "outputs": [
        {
          "internalType": "uint256",
          "name": "",
          "type": "uint256"
        }
      ],
      "stateMutability": "view",
      "type": "function"
    },
    {
      "inputs": [
        {
          "internalType": "uint256",
          "name": "amount",
          "type": "uint256"
        }
      ],
      "name": "transferCuratorFees",
      "outputs": [],
      "stateMutability": "nonpayable",
      "type": "function"
    },
    {
      "inputs": [
        {
          "internalType": "address",
          "name": "newOwner",
          "type": "address"
        }
      ],
      "name": "transferOwnership",
      "outputs": [],
      "stateMutability": "nonpayable",
      "type": "function"
    },
    {
      "inputs": [
        {
          "internalType": "address",
          "name": "user",
          "type": "address"
        },
        {
          "internalType": "uint256",
          "name": "amount",
          "type": "uint256"
        }
      ],
      "name": "transferRedemptionFunds",
      "outputs": [],
      "stateMutability": "nonpayable",
      "type": "function"
    },
    {
      "inputs": [],
      "name": "underlyingAsset",
      "outputs": [
        {
          "internalType": "address",
          "name": "",
          "type": "address"
        }
      ],
      "stateMutability": "view",
      "type": "function"
    },
    {
      "inputs": [],
      "name": "unpause",
      "outputs": [],
      "stateMutability": "nonpayable",
      "type": "function"
    },
    {
      "inputs": [
        {
          "internalType": "address",
          "name": "newAutomationRegistry",
          "type": "address"
        }
      ],
      "name": "updateAutomationRegistry",
      "outputs": [],
      "stateMutability": "nonpayable",
      "type": "function"
    },
    {
      "inputs": [
        {
          "internalType": "uint8",
          "name": "_minibatchSize",
          "type": "uint8"
        }
      ],
      "name": "updateMinibatchSize",
      "outputs": [],
      "stateMutability": "nonpayable",
      "type": "function"
    },
    {
      "inputs": [
        {
          "internalType": "uint256",
          "name": "assets",
          "type": "uint256"
        },
        {
          "internalType": "address",
          "name": "receiver",
          "type": "address"
        }
      ],
      "name": "withdraw",
      "outputs": [],
      "stateMutability": "nonpayable",
      "type": "function"
    },
    {
      "inputs": [
        {
          "internalType": "uint256",
          "name": "amount",
          "type": "uint256"
        }
      ],
      "name": "withdrawLiquidity",
      "outputs": [],
      "stateMutability": "nonpayable",
      "type": "function"
    }
  ],
  "bytecode": "0x608060405234801561000f575f5ffd5b50604051612b9c380380612b9c83398101604081905261002e91610282565b826001600160a01b03811661005c57604051631e4fbdf760e01b81525f600482015260240160405180910390fd5b61006581610203565b5060016002556001600160a01b0382166100925760405163d92e233d60e01b815260040160405180910390fd5b6001600160a01b0381166100b95760405163d92e233d60e01b815260040160405180910390fd5b600480546001600160a01b0319166001600160a01b038416908117825560408051631c56369f60e21b815290519192637158da7c9282820192602092908290030181865afa15801561010d573d5f5f3e3d5ffd5b505050506040513d601f19601f8201168201806040525081019061013191906102cc565b600680546001600160a01b0319166001600160a01b0392831617905560048054604080516303e1469160e61b81529051919093169263f851a44092818101926020929091908290030181865afa15801561018d573d5f5f3e3d5ffd5b505050506040513d601f19601f820116820180604052508101906101b191906102cc565b600780546001600160a01b0319166001600160a01b0392831617905560038054610100600160a81b031916610100939092169290920217905550506009805461ffff191660011790555f600b556102ee565b600180546001600160a01b031916905561021c8161021f565b50565b5f80546001600160a01b038381166001600160a01b0319831681178455604051919092169283917f8be0079c531659141344cd1fd0a4f28419497f9722a3daafe3b4186f6b6457e09190a35050565b6001600160a01b038116811461021c575f5ffd5b5f5f5f60608486031215610294575f5ffd5b835161029f8161026e565b60208501519093506102b08161026e565b60408501519092506102c18161026e565b809150509250925092565b5f602082840312156102dc575f5ffd5b81516102e78161026e565b9392505050565b6128a1806102fb5f395ff3fe608060405234801561000f575f5ffd5b50600436106101b4575f3560e01c8062f714ce146101b857806301c621c1146101cd578063055ad42e146101e05780630a861f2a146102085780630a8b78c71461021b57806314b5d07f1461022e5780633369921a14610241578063348ec5c8146102585780633af2a8c0146102785780633f4ba83a1461028b5780634585e33b146102935780634adfc2e7146102a657806351edffb1146102b95780635488cd62146102cc57806359017aa9146102f15780635c975abb146103045780635dc228a01461031a5780635dd17ec3146103325780636e04ff0d1461033a578063715018a61461035b5780637158da7c14610363578063741fca4b1461037657806376d58e1a1461038957806379502c551461039c57806379ba5097146103af5780638456cb59146103b75780638689b2c5146103bf5780638da5cb5b146103cc5780638f5c9465146103d4578063d03153aa146103f0578063d3f3506d146103f9578063dab26e3b14610421578063e30c39781461042a578063e5c42fb314610432578063e6c3efd91461043a578063f2fde38b1461044d578063f851a44014610460575b5f5ffd5b6101cb6101c63660046122b0565b610473565b005b6101cb6101db3660046122de565b61052b565b6009546101f290610100900460ff1681565b6040516101ff9190612309565b60405180910390f35b6101cb6102163660046122de565b610600565b6101cb610229366004612323565b6107fd565b6101cb61023c366004612323565b610878565b61024a600c5481565b6040519081526020016101ff565b60055461026b906001600160a01b031681565b6040516101ff919061233e565b6101cb6102863660046122de565b61097e565b6101cb610a65565b6101cb6102a1366004612352565b610a9a565b6101cb6102b43660046123be565b610c1c565b6101cb6102c73660046123be565b610ceb565b6009546102df9062010000900460ff1681565b60405160ff90911681526020016101ff565b6101cb6102ff3660046123e8565b610d76565b60035460ff1660405190151581526020016101ff565b60035461026b9061010090046001600160a01b031681565b6102df600881565b61034d610348366004612352565b610e8a565b6040516101ff929190612414565b6101cb610f2d565b60065461026b906001600160a01b031681565b6101cb6103843660046122de565b610f3e565b6101cb6103973660046122de565b6110f1565b60045461026b906001600160a01b031681565b6101cb611257565b6101cb611293565b6009546102df9060ff1681565b61026b6112c6565b6103dd61271081565b60405161ffff90911681526020016101ff565b61024a600b5481565b61026b610407366004612323565b60086020525f90815260409020546001600160a01b031681565b61024a600a5481565b61026b6112d4565b6101cb6112e3565b6101cb610448366004612452565b61131f565b6101cb61045b366004612323565b61140b565b60075461026b906001600160a01b031681565b61047b611471565b6004805460405163f764eb4560e01b81526001600160a01b039091169163f764eb45916104aa9133910161233e565b602060405180830381865afa1580156104c5573d5f5f3e3d5ffd5b505050506040513d601f19601f820116820180604052508101906104e99190612472565b6105065760405163ea8e4eb560e01b815260040160405180910390fd5b60065461051d906001600160a01b03168284611499565b6105276001600255565b5050565b6007546001600160a01b031633146105565760405163ea8e4eb560e01b815260040160405180910390fd5b805f0361058c57600654604051636b30633560e01b8152610583916001600160a01b03169060040161233e565b60405180910390fd5b600554604051637060444560e01b8152600481018390526001600160a01b03909116906370604445906024015f604051808303815f87803b1580156105cf575f5ffd5b505af11580156105e1573d5f5f3e3d5ffd5b50506006546105fd92506001600160a01b031690503383611499565b50565b6007546001600160a01b0316331461062b5760405163ea8e4eb560e01b815260040160405180910390fd5b805f0361065857600654604051636b30633560e01b8152610583916001600160a01b03169060040161233e565b600554604080516302ad6a1760e11b815290515f926001600160a01b03169163055ad42e9160048083019260209291908290030181865afa15801561069f573d5f5f3e3d5ffd5b505050506040513d601f19601f820116820180604052508101906106c39190612491565b60048111156106d4576106d46122f5565b146106f2576040516312aecd8160e01b815260040160405180910390fd5b600554604080516330638a9760e21b815290515f926001600160a01b03169163c18e2a5c9160048083019260209291908290030181865afa158015610739573d5f5f3e3d5ffd5b505050506040513d601f19601f8201168201806040525081019061075d91906124af565b90508082111561078057604051632ca2f52b60e11b815260040160405180910390fd5b6005546001600160a01b031663e2c4aaec61079a846124da565b6040518263ffffffff1660e01b81526004016107b891815260200190565b5f604051808303815f87803b1580156107cf575f5ffd5b505af11580156107e1573d5f5f3e3d5ffd5b505060065461052792506001600160a01b031690503384611499565b6108056114f1565b6001600160a01b03811661082c5760405163d92e233d60e01b815260040160405180910390fd5b6005546001600160a01b03161561085657604051630ea075bf60e21b815260040160405180910390fd5b600580546001600160a01b0319166001600160a01b0392909216919091179055565b6108806114f1565b6001600160a01b0381166108a75760405163d92e233d60e01b815260040160405180910390fd5b600480546040805163edcf9c1f60e01b815290516001600160a01b039092169263edcf9c1f9282820192602092908290030181865afa1580156108ec573d5f5f3e3d5ffd5b505050506040513d601f19601f820116820180604052508101906109109190612472565b61092d576040516312aecd8160e01b815260040160405180910390fd5b60038054610100600160a81b0319166101006001600160a01b038416908102919091179091556040517f6cc7ebdb6c8c53291c5ae16148cab9b049d23bf5bde5632900b40edff56fcb43905f90a250565b6109866114f1565b805f036109a6576040516317dbc4cb60e21b815260040160405180910390fd5b6101f48111156109c9576040516317dbc4cb60e21b815260040160405180910390fd5b600480546040805163edcf9c1f60e01b815290516001600160a01b039092169263edcf9c1f9282820192602092908290030181865afa158015610a0e573d5f5f3e3d5ffd5b505050506040513d601f19601f82011682018060405250810190610a329190612472565b610a4f576040516312aecd8160e01b815260040160405180910390fd5b600a819055610a5f600282612508565b600b5550565b6004546001600160a01b03163314610a905760405163ea8e4eb560e01b815260040160405180910390fd5b610a98611523565b565b610aa26112c6565b6001600160a01b0316336001600160a01b031614158015610ad3575060035461010090046001600160a01b03163314155b15610af15760405163ea8e4eb560e01b815260040160405180910390fd5b610af9611471565b610b0161156f565b6001600954610100900460ff166003811115610b1f57610b1f6122f5565b03610b3157610b2c611593565b610bea565b6002600954610100900460ff166003811115610b4f57610b4f6122f5565b03610b5c57610b2c6116cc565b6003600954610100900460ff166003811115610b7a57610b7a6122f5565b03610bea57610b8761186b565b60055f9054906101000a90046001600160a01b03166001600160a01b031663ed1308786040518163ffffffff1660e01b81526004015f604051808303815f87803b158015610bd3575f5ffd5b505af1158015610be5573d5f5f3e3d5ffd5b505050505b6040517ff0094b59b7bc92e9fc611b14b5d3a34fe02530ac9bcf36c2c6f10147c3030c12905f90a16105276001600255565b60048054604051633821dad160e21b81526001600160a01b039091169163e0876b4491610c4b9133910161233e565b602060405180830381865afa158015610c66573d5f5f3e3d5ffd5b505050506040513d601f19601f82011682018060405250810190610c8a9190612472565b610ca75760405163ea8e4eb560e01b815260040160405180910390fd5b805f03610cd457600654604051636b30633560e01b8152610583916001600160a01b03169060040161233e565b600654610527906001600160a01b03168383611499565b60048054604051633821dad160e21b81526001600160a01b039091169163e0876b4491610d1a9133910161233e565b602060405180830381865afa158015610d35573d5f5f3e3d5ffd5b505050506040513d601f19601f82011682018060405250810190610d599190612472565b610cd45760405163ea8e4eb560e01b815260040160405180910390fd5b6004546001600160a01b03163314610da15760405163ea8e4eb560e01b815260040160405180910390fd5b6001600160a01b0382161580610dbe57506001600160a01b038116155b15610ddc5760405163d92e233d60e01b815260040160405180910390fd5b604051631ed3e4fb60e11b81526001600160a01b03821690633da7c9f690610e0890859060040161233e565b5f6040518083038186803b158015610e1e575f5ffd5b505afa158015610e30573d5f5f3e3d5ffd5b505050506001600160a01b038281165f8181526008602052604080822080546001600160a01b0319169486169485179055517f2f2727c7b3d9ee55de5c114f0cb7997ac7251a4cbfca4f2b2dc6969d86cce4f49190a35050565b5f60606001600954610100900460ff166003811115610eab57610eab6122f5565b03610eb95760019150610f15565b6002600954610100900460ff166003811115610ed757610ed76122f5565b03610ee55760019150610f15565b6003600954610100900460ff166003811115610f0357610f036122f5565b03610f115760019150610f15565b5f91505b60405180602001604052805f81525090509250929050565b610f356114f1565b610a985f611b7a565b60048054604051633821dad160e21b815233926001600160a01b039092169163e0876b4491610f6f9185910161233e565b602060405180830381865afa158015610f8a573d5f5f3e3d5ffd5b505050506040513d601f19601f82011682018060405250810190610fae9190612472565b15801561102657506004805460405163f764eb4560e01b81526001600160a01b039091169163f764eb4591610fe59185910161233e565b602060405180830381865afa158015611000573d5f5f3e3d5ffd5b505050506040513d601f19601f820116820180604052508101906110249190612472565b155b156110445760405163ea8e4eb560e01b815260040160405180910390fd5b815f0361107157600654604051636b30633560e01b8152610583916001600160a01b03169060040161233e565b5f816001600160a01b0316631f52692b6040518163ffffffff1660e01b8152600401602060405180830381865afa1580156110ae573d5f5f3e3d5ffd5b505050506040513d601f19601f820116820180604052508101906110d29190612527565b6006549091506110ec906001600160a01b03168285611499565b505050565b6007546001600160a01b0316331461111c5760405163ea8e4eb560e01b815260040160405180910390fd5b805f0361114957600654604051636b30633560e01b8152610583916001600160a01b03169060040161233e565b600554604080516302ad6a1760e11b815290515f926001600160a01b03169163055ad42e9160048083019260209291908290030181865afa158015611190573d5f5f3e3d5ffd5b505050506040513d601f19601f820116820180604052508101906111b49190612491565b60048111156111c5576111c56122f5565b146111e3576040516312aecd8160e01b815260040160405180910390fd5b6006546111fb906001600160a01b0316333084611b93565b6005546040516338b12abb60e21b8152600481018390526001600160a01b039091169063e2c4aaec906024015f604051808303815f87803b15801561123e575f5ffd5b505af1158015611250573d5f5f3e3d5ffd5b5050505050565b33806112616112d4565b6001600160a01b03161461128a578060405163118cdaa760e01b8152600401610583919061233e565b6105fd81611b7a565b6004546001600160a01b031633146112be5760405163ea8e4eb560e01b815260040160405180910390fd5b610a98611bcc565b5f546001600160a01b031690565b6001546001600160a01b031690565b6005546001600160a01b0316331461130e5760405163ea8e4eb560e01b815260040160405180910390fd5b6009805461ff001916610100179055565b6113276114f1565b8060ff165f0361134a576040516317dbc4cb60e21b815260040160405180910390fd5b600860ff8216111561136f576040516317dbc4cb60e21b815260040160405180910390fd5b600480546040805163edcf9c1f60e01b815290516001600160a01b039092169263edcf9c1f9282820192602092908290030181865afa1580156113b4573d5f5f3e3d5ffd5b505050506040513d601f19601f820116820180604052508101906113d89190612472565b6113f5576040516312aecd8160e01b815260040160405180910390fd5b6009805460ff191660ff92909216919091179055565b6114136114f1565b600180546001600160a01b0319166001600160a01b0383169081179091556114396112c6565b6001600160a01b03167f38d16b8cac22d99fc7c124b9cd0de2d3fa1faef420bfe791d8c362d765e2270060405160405180910390a350565b600280540361149357604051633ee5aeb560e01b815260040160405180910390fd5b60028055565b6110ec83846001600160a01b031663a9059cbb85856040516024016114bf929190612542565b604051602081830303815290604052915060e01b6020820180516001600160e01b038381831617835250505050611c09565b336114fa6112c6565b6001600160a01b031614610a98573360405163118cdaa760e01b8152600401610583919061233e565b61152b611c6c565b6003805460ff191690557f5db9ee0a495bf2e6ff9c91a7834c1ba4fdd244a5e8aa4e537bd38aeae4b073aa335b604051611565919061233e565b60405180910390a1565b60035460ff1615610a985760405163d93c066560e01b815260040160405180910390fd5b600554604051635857566360e11b8152600160048201525f91829182916001600160a01b03169063b0aeacc6906024015f60405180830381865afa1580156115dd573d5f5f3e3d5ffd5b505050506040513d5f823e601f3d908101601f19168201604052611604919081019061268f565b6009805461ff001916610200179055919450925090505f5b83518161ffff1610156116c6575f848261ffff16815181106116405761164061271e565b60209081029190910101516006549091506001600160a01b039081169082160361166a57506116b6565b5f848361ffff16815181106116815761168161271e565b602002602001015190506116b38282868661ffff16815181106116a6576116a661271e565b6020026020010151611c8f565b50505b6116bf81612732565b905061161c565b50505050565b600554604051635857566360e11b81525f6004820181905291829182916001600160a01b03169063b0aeacc6906024015f60405180830381865afa158015611716573d5f5f3e3d5ffd5b505050506040513d5f823e601f3d908101601f1916820160405261173d919081019061268f565b6009805461ff001916610300179055919450925090505f5b83518161ffff1610156117ff575f848261ffff16815181106117795761177961271e565b60209081029190910101516006549091506001600160a01b03908116908216036117a357506117ef565b5f848361ffff16815181106117ba576117ba61271e565b602002602001015190506117ec8282868661ffff16815181106117df576117df61271e565b6020026020010151611d89565b50505b6117f881612732565b9050611755565b50600554600c546040516338b12abb60e21b81526001600160a01b039092169163e2c4aaec916118359160040190815260200190565b5f604051808303815f87803b15801561184c575f5ffd5b505af115801561185e573d5f5f3e3d5ffd5b50505f600c555050505050565b60048054604051631da09e4360e31b81525f926001600160a01b039092169163ed04f2189161189c91859101612752565b5f60405180830381865afa1580156118b6573d5f5f3e3d5ffd5b505050506040513d5f823e601f3d908101601f191682016040526118dd9190810190612766565b6009549091505f906118fb9060ff808216916201000090041661279f565b60095460ff91821692505f916119129116836127c2565b90506009600281819054906101000a900460ff1661192f906127dc565b91906101000a81548160ff021916908360ff16021790555082518161ffff16118061195e575082518161ffff16145b15611973575081516009805462ffff00191690555b815b8161ffff168161ffff1610156116c6575f848261ffff168151811061199c5761199c61271e565b60209081029190910101516005546040516309958e4960e11b81529192505f916001600160a01b039091169063132b1c92906119dc90859060040161233e565b602060405180830381865afa1580156119f7573d5f5f3e3d5ffd5b505050506040513d601f19601f82011682018060405250810190611a1b91906124af565b60055460405163e2638ff160e01b81529192505f916001600160a01b039091169063e2638ff190611a5090869060040161233e565b602060405180830381865afa158015611a6b573d5f5f3e3d5ffd5b505050506040513d601f19601f82011682018060405250810190611a8f91906124af565b9050611a9c838383611e8f565b6004805460405163d11f1c3560e01b81526001600160a01b039091169163d11f1c3591611acb9187910161233e565b602060405180830381865afa158015611ae6573d5f5f3e3d5ffd5b505050506040513d601f19601f82011682018060405250810190611b0a9190612472565b15611b6c576004805460405163e8ffccb760e01b81526001600160a01b039091169163e8ffccb791611b3e9187910161233e565b5f604051808303815f87803b158015611b55575f5ffd5b505af1158015611b67573d5f5f3e3d5ffd5b505050505b505050806001019050611975565b600180546001600160a01b03191690556105fd81612094565b6040516001600160a01b0384811660248301528381166044830152606482018390526116c69186918216906323b872dd906084016114bf565b611bd461156f565b6003805460ff191660011790557f62e78cea01bee320cd4e420270b5ea74000d11b0c9f74754ebdbfc544b05a2586115583390565b5f5f60205f8451602086015f885af180611c28576040513d5f823e3d81fd5b50505f513d91508115611c3f578060011415611c4c565b6001600160a01b0384163b155b156116c65783604051635274afe760e01b8152600401610583919061233e565b60035460ff16610a9857604051638dfc202b60e01b815260040160405180910390fd5b6001600160a01b038084165f908152600860205260409020541680611cc757604051635048c2af60e11b815260040160405180910390fd5b611cdb6001600160a01b03851682856120e3565b604051633513923160e11b81525f906001600160a01b03831690636a27246290611d0d908890889088906004016127f1565b6020604051808303815f875af1158015611d29573d5f5f3e3d5ffd5b505050506040513d601f19601f82011682018060405250810190611d4d91906124af565b9050611d636001600160a01b038616835f6120e3565b611d6d8382612812565b600c5f828254611d7d9190612831565b90915550505050505050565b6001600160a01b038084165f908152600860205260409020541680611dc157604051635048c2af60e11b815260040160405180910390fd5b611df981611de6600b5461271061ffff16611ddc9190612858565b8590612710612173565b6006546001600160a01b031691906120e3565b60405163a59ac6dd60e01b81525f906001600160a01b0383169063a59ac6dd90611e2b908890889088906004016127f1565b6020604051808303815f875af1158015611e47573d5f5f3e3d5ffd5b505050506040513d601f19601f82011682018060405250810190611e6b91906124af565b600654909150611e85906001600160a01b0316835f6120e3565b611d6d8184612812565b600480546040805163179b714360e31b8152905186935f936001600160a01b03169263bcdb8a1892818301926020928290030181865afa158015611ed5573d5f5f3e3d5ffd5b505050506040513d601f19601f82011682018060405250810190611ef991906124af565b604051637bee6cb760e11b8152600481018290529091505f906001600160a01b0384169063f7dcd96e90602401602060405180830381865afa158015611f41573d5f5f3e3d5ffd5b505050506040513d601f19601f82011682018060405250810190611f6591906124af565b60405163178c864d60e11b8152600481018490529091505f906001600160a01b03851690632f190c9a90602401602060405180830381865afa158015611fad573d5f5f3e3d5ffd5b505050506040513d601f19601f82011682018060405250810190611fd191906124af565b9050811561202f5760405163493a6e2160e01b8152600481018690526001600160a01b0385169063493a6e21906024015f604051808303815f87803b158015612018575f5ffd5b505af115801561202a573d5f5f3e3d5ffd5b505050505b801561208b5760405163e5e9719360e01b8152600481018790526001600160a01b0385169063e5e97193906024015f604051808303815f87803b158015612074575f5ffd5b505af1158015612086573d5f5f3e3d5ffd5b505050505b50505050505050565b5f80546001600160a01b038381166001600160a01b0319831681178455604051919092169283917f8be0079c531659141344cd1fd0a4f28419497f9722a3daafe3b4186f6b6457e09190a35050565b5f836001600160a01b031663095ea7b38484604051602401612106929190612542565b604051602081830303815290604052915060e01b6020820180516001600160e01b038381831617835250505050905061213f8482612224565b6116c65761216984856001600160a01b031663095ea7b3865f6040516024016114bf929190612542565b6116c68482611c09565b5f5f5f612180868661226f565b91509150815f036121a45783818161219a5761219a6124f4565b049250505061221d565b8184116121bb576121bb600385150260111861228b565b5f848688095f868103871696879004966002600389028118808a02820302808a02820302808a02820302808a02820302808a02820302808a02909103029181900381900460010185841190960395909502919093039390930492909217029150505b9392505050565b5f5f5f5f60205f8651602088015f8a5af192503d91505f519050828015612263575081156122555780600114612263565b5f866001600160a01b03163b115b93505050505b92915050565b5f805f1983850993909202808410938190039390930393915050565b634e487b715f52806020526024601cfd5b6001600160a01b03811681146105fd575f5ffd5b5f5f604083850312156122c1575f5ffd5b8235915060208301356122d38161229c565b809150509250929050565b5f602082840312156122ee575f5ffd5b5035919050565b634e487b7160e01b5f52602160045260245ffd5b602081016004831061231d5761231d6122f5565b91905290565b5f60208284031215612333575f5ffd5b813561221d8161229c565b6001600160a01b0391909116815260200190565b5f5f60208385031215612363575f5ffd5b82356001600160401b03811115612378575f5ffd5b8301601f81018513612388575f5ffd5b80356001600160401b0381111561239d575f5ffd5b8560208284010111156123ae575f5ffd5b6020919091019590945092505050565b5f5f604083850312156123cf575f5ffd5b82356123da8161229c565b946020939093013593505050565b5f5f604083850312156123f9575f5ffd5b82356124048161229c565b915060208301356122d38161229c565b8215158152604060208201525f82518060408401528060208501606085015e5f606082850101526060601f19601f8301168401019150509392505050565b5f60208284031215612462575f5ffd5b813560ff8116811461221d575f5ffd5b5f60208284031215612482575f5ffd5b8151801515811461221d575f5ffd5b5f602082840312156124a1575f5ffd5b81516005811061221d575f5ffd5b5f602082840312156124bf575f5ffd5b5051919050565b634e487b7160e01b5f52601160045260245ffd5b5f600160ff1b82016124ee576124ee6124c6565b505f0390565b634e487b7160e01b5f52601260045260245ffd5b5f8261252257634e487b7160e01b5f52601260045260245ffd5b500490565b5f60208284031215612537575f5ffd5b815161221d8161229c565b6001600160a01b03929092168252602082015260400190565b634e487b7160e01b5f52604160045260245ffd5b604051601f8201601f191681016001600160401b03811182821017156125975761259761255b565b604052919050565b5f6001600160401b038211156125b7576125b761255b565b5060051b60200190565b5f82601f8301126125d0575f5ffd5b81516125e36125de8261259f565b61256f565b8082825260208201915060208360051b860101925085831115612604575f5ffd5b602085015b8381101561262a57805161261c8161229c565b835260209283019201612609565b5095945050505050565b5f82601f830112612643575f5ffd5b81516126516125de8261259f565b8082825260208201915060208360051b860101925085831115612672575f5ffd5b602085015b8381101561262a578051835260209283019201612677565b5f5f5f606084860312156126a1575f5ffd5b83516001600160401b038111156126b6575f5ffd5b6126c2868287016125c1565b602086015190945090506001600160401b038111156126df575f5ffd5b6126eb86828701612634565b604086015190935090506001600160401b03811115612708575f5ffd5b61271486828701612634565b9150509250925092565b634e487b7160e01b5f52603260045260245ffd5b5f61ffff821661ffff8103612749576127496124c6565b60010192915050565b602081016002831061231d5761231d6122f5565b5f60208284031215612776575f5ffd5b81516001600160401b0381111561278b575f5ffd5b612797848285016125c1565b949350505050565b60ff81811683821602908116908181146127bb576127bb6124c6565b5092915050565b61ffff8181168382160190811115612269576122696124c6565b5f60ff821660ff8103612749576127496124c6565b6001600160a01b039390931683526020830191909152604082015260600190565b8181035f8312801583831316838312821617156127bb576127bb6124c6565b8082018281125f831280158216821582161715612850576128506124c6565b505092915050565b80820180821115612269576122696124c656fea264697066735822122041d9bf76f910d96d19364c3ea935e8cdd2bcd3c3d42725c0e71820425774867764736f6c634300081c0033",
  "linkReferences": {},
  "deployedLinkReferences": {}
}