{
  "_format": "hh-sol-artifact-1",
  "contractName": "LiquidityOrchestrator",
  "sourceName": "contracts/orchestrators/LiquidityOrchestrator.sol",
  "abi": [
    {
      "inputs": [],
      "name": "AdapterNotSet",
      "type": "error"
    },
    {
      "inputs": [
        {
          "internalType": "address",
          "name": "target",
          "type": "address"
        }
      ],
      "name": "AddressEmptyCode",
      "type": "error"
    },
    {
      "inputs": [
        {
          "internalType": "address",
          "name": "implementation",
          "type": "address"
        }
      ],
      "name": "ERC1967InvalidImplementation",
      "type": "error"
    },
    {
      "inputs": [],
      "name": "ERC1967NonPayable",
      "type": "error"
    },
    {
      "inputs": [],
      "name": "FailedCall",
      "type": "error"
    },
    {
      "inputs": [],
      "name": "InvalidInitialization",
      "type": "error"
    },
    {
      "inputs": [],
      "name": "NotAuthorized",
      "type": "error"
    },
    {
      "inputs": [],
      "name": "NotInitializing",
      "type": "error"
    },
    {
      "inputs": [
        {
          "internalType": "address",
          "name": "owner",
          "type": "address"
        }
      ],
      "name": "OwnableInvalidOwner",
      "type": "error"
    },
    {
      "inputs": [
        {
          "internalType": "address",
          "name": "account",
          "type": "address"
        }
      ],
      "name": "OwnableUnauthorizedAccount",
      "type": "error"
    },
    {
      "inputs": [],
      "name": "TransferFailed",
      "type": "error"
    },
    {
      "inputs": [],
      "name": "UUPSUnauthorizedCallContext",
      "type": "error"
    },
    {
      "inputs": [
        {
          "internalType": "bytes32",
          "name": "slot",
          "type": "bytes32"
        }
      ],
      "name": "UUPSUnsupportedProxiableUUID",
      "type": "error"
    },
    {
      "inputs": [],
      "name": "ZeroAddress",
      "type": "error"
    },
    {
      "anonymous": false,
      "inputs": [
        {
          "indexed": true,
          "internalType": "address",
          "name": "asset",
          "type": "address"
        },
        {
          "indexed": true,
          "internalType": "address",
          "name": "adapter",
          "type": "address"
        }
      ],
      "name": "AdapterSet",
      "type": "event"
    },
    {
      "anonymous": false,
      "inputs": [
        {
          "indexed": true,
          "internalType": "address",
          "name": "newAutomationRegistry",
          "type": "address"
        }
      ],
      "name": "AutomationRegistryUpdated",
      "type": "event"
    },
    {
      "anonymous": false,
      "inputs": [
        {
          "indexed": false,
          "internalType": "uint64",
          "name": "version",
          "type": "uint64"
        }
      ],
      "name": "Initialized",
      "type": "event"
    },
    {
      "anonymous": false,
      "inputs": [
        {
          "indexed": true,
          "internalType": "address",
          "name": "previousOwner",
          "type": "address"
        },
        {
          "indexed": true,
          "internalType": "address",
          "name": "newOwner",
          "type": "address"
        }
      ],
      "name": "OwnershipTransferStarted",
      "type": "event"
    },
    {
      "anonymous": false,
      "inputs": [
        {
          "indexed": true,
          "internalType": "address",
          "name": "previousOwner",
          "type": "address"
        },
        {
          "indexed": true,
          "internalType": "address",
          "name": "newOwner",
          "type": "address"
        }
      ],
      "name": "OwnershipTransferred",
      "type": "event"
    },
    {
      "anonymous": false,
      "inputs": [],
      "name": "PortfolioRebalanced",
      "type": "event"
    },
    {
      "anonymous": false,
      "inputs": [
        {
          "indexed": true,
          "internalType": "address",
          "name": "implementation",
          "type": "address"
        }
      ],
      "name": "Upgraded",
      "type": "event"
    },
    {
      "inputs": [],
      "name": "UPGRADE_INTERFACE_VERSION",
      "outputs": [
        {
          "internalType": "string",
          "name": "",
          "type": "string"
        }
      ],
      "stateMutability": "view",
      "type": "function"
    },
    {
      "inputs": [],
      "name": "acceptOwnership",
      "outputs": [],
      "stateMutability": "nonpayable",
      "type": "function"
    },
    {
      "inputs": [],
      "name": "automationRegistry",
      "outputs": [
        {
          "internalType": "address",
          "name": "",
          "type": "address"
        }
      ],
      "stateMutability": "view",
      "type": "function"
    },
    {
      "inputs": [
        {
          "internalType": "bytes",
          "name": "",
          "type": "bytes"
        }
      ],
      "name": "checkUpkeep",
      "outputs": [
        {
          "internalType": "bool",
          "name": "upkeepNeeded",
          "type": "bool"
        },
        {
          "internalType": "bytes",
          "name": "performData",
          "type": "bytes"
        }
      ],
      "stateMutability": "view",
      "type": "function"
    },
    {
      "inputs": [],
      "name": "config",
      "outputs": [
        {
          "internalType": "contract IOrionConfig",
          "name": "",
          "type": "address"
        }
      ],
      "stateMutability": "view",
      "type": "function"
    },
    {
      "inputs": [
        {
          "internalType": "address",
          "name": "",
          "type": "address"
        }
      ],
      "name": "executionAdapterOf",
      "outputs": [
        {
          "internalType": "contract IExecutionAdapter",
          "name": "",
          "type": "address"
        }
      ],
      "stateMutability": "view",
      "type": "function"
    },
    {
      "inputs": [
        {
          "internalType": "address",
          "name": "initialOwner",
          "type": "address"
        },
        {
          "internalType": "address",
          "name": "automationRegistry_",
          "type": "address"
        },
        {
          "internalType": "address",
          "name": "config_",
          "type": "address"
        }
      ],
      "name": "initialize",
      "outputs": [],
      "stateMutability": "nonpayable",
      "type": "function"
    },
    {
      "inputs": [],
      "name": "internalStatesOrchestrator",
      "outputs": [
        {
          "internalType": "contract IInternalStateOrchestrator",
          "name": "",
          "type": "address"
        }
      ],
      "stateMutability": "view",
      "type": "function"
    },
    {
      "inputs": [],
      "name": "lastProcessedEpoch",
      "outputs": [
        {
          "internalType": "uint256",
          "name": "",
          "type": "uint256"
        }
      ],
      "stateMutability": "view",
      "type": "function"
    },
    {
      "inputs": [],
      "name": "owner",
      "outputs": [
        {
          "internalType": "address",
          "name": "",
          "type": "address"
        }
      ],
      "stateMutability": "view",
      "type": "function"
    },
    {
      "inputs": [],
      "name": "pendingOwner",
      "outputs": [
        {
          "internalType": "address",
          "name": "",
          "type": "address"
        }
      ],
      "stateMutability": "view",
      "type": "function"
    },
    {
      "inputs": [
        {
          "internalType": "bytes",
          "name": "",
          "type": "bytes"
        }
      ],
      "name": "performUpkeep",
      "outputs": [],
      "stateMutability": "nonpayable",
      "type": "function"
    },
    {
      "inputs": [],
      "name": "proxiableUUID",
      "outputs": [
        {
          "internalType": "bytes32",
          "name": "",
          "type": "bytes32"
        }
      ],
      "stateMutability": "view",
      "type": "function"
    },
    {
      "inputs": [],
      "name": "renounceOwnership",
      "outputs": [],
      "stateMutability": "nonpayable",
      "type": "function"
    },
    {
      "inputs": [
        {
          "internalType": "address",
          "name": "user",
          "type": "address"
        },
        {
          "internalType": "uint256",
          "name": "amount",
          "type": "uint256"
        }
      ],
      "name": "returnDepositFunds",
      "outputs": [],
      "stateMutability": "nonpayable",
      "type": "function"
    },
    {
      "inputs": [
        {
          "internalType": "address",
          "name": "user",
          "type": "address"
        },
        {
          "internalType": "uint256",
          "name": "shares",
          "type": "uint256"
        }
      ],
      "name": "returnWithdrawShares",
      "outputs": [],
      "stateMutability": "nonpayable",
      "type": "function"
    },
    {
      "inputs": [
        {
          "internalType": "address",
          "name": "asset",
          "type": "address"
        },
        {
          "internalType": "contract IExecutionAdapter",
          "name": "adapter",
          "type": "address"
        }
      ],
      "name": "setAdapter",
      "outputs": [],
      "stateMutability": "nonpayable",
      "type": "function"
    },
    {
      "inputs": [
        {
          "internalType": "address",
          "name": "newOwner",
          "type": "address"
        }
      ],
      "name": "transferOwnership",
      "outputs": [],
      "stateMutability": "nonpayable",
      "type": "function"
    },
    {
      "inputs": [],
      "name": "underlyingAsset",
      "outputs": [
        {
          "internalType": "address",
          "name": "",
          "type": "address"
        }
      ],
      "stateMutability": "view",
      "type": "function"
    },
    {
      "inputs": [
        {
          "internalType": "address",
          "name": "newAutomationRegistry",
          "type": "address"
        }
      ],
      "name": "updateAutomationRegistry",
      "outputs": [],
      "stateMutability": "nonpayable",
      "type": "function"
    },
    {
      "inputs": [
        {
          "internalType": "address",
          "name": "newConfig",
          "type": "address"
        }
      ],
      "name": "updateConfig",
      "outputs": [],
      "stateMutability": "nonpayable",
      "type": "function"
    },
    {
      "inputs": [
        {
          "internalType": "address",
          "name": "newImplementation",
          "type": "address"
        },
        {
          "internalType": "bytes",
          "name": "data",
          "type": "bytes"
        }
      ],
      "name": "upgradeToAndCall",
      "outputs": [],
      "stateMutability": "payable",
      "type": "function"
    }
  ],
  "bytecode": "0x60a0604052306080523480156012575f5ffd5b50608051611fd96100395f395f8181611588015281816115b101526116f00152611fd95ff3fe608060405260043610610131575f3560e01c806379502c55116100a8578063be186b201161006d578063be186b2014610345578063c0c53b8b14610364578063d3f3506d14610383578063e30c3978146103b7578063ee6713df146103cb578063f2fde38b146103e0575f5ffd5b806379502c55146102a257806379ba5097146102c15780638da5cb5b146102d5578063ad3cb1cc146102e9578063ba59b4ca14610326575f5ffd5b806352d1902d116100f957806352d1902d146101e35780635dc228a0146102055780636cc919c8146102235780636e04ff0d14610242578063715018a61461026f5780637158da7c14610283575f5ffd5b806314b5d07f14610135578063348ec5c8146101565780634585e33b146101925780634f1ef286146101b157806351edffb1146101c4575b5f5ffd5b348015610140575f5ffd5b5061015461014f366004611a6c565b6103ff565b005b348015610161575f5ffd5b50600254610175906001600160a01b031681565b6040516001600160a01b0390911681526020015b60405180910390f35b34801561019d575f5ffd5b506101546101ac366004611a87565b610475565b6101546101bf366004611b3a565b610ad8565b3480156101cf575f5ffd5b506101546101de366004611be1565b610af3565b3480156101ee575f5ffd5b506101f7610c13565b604051908152602001610189565b348015610210575f5ffd5b505f54610175906001600160a01b031681565b34801561022e575f5ffd5b5061015461023d366004611a6c565b610c2e565b34801561024d575f5ffd5b5061026161025c366004611a87565b610c7f565b604051610189929190611c39565b34801561027a575f5ffd5b50610154610d15565b34801561028e575f5ffd5b50600554610175906001600160a01b031681565b3480156102ad575f5ffd5b50600154610175906001600160a01b031681565b3480156102cc575f5ffd5b50610154610d28565b3480156102e0575f5ffd5b50610175610d75565b3480156102f4575f5ffd5b50610319604051806040016040528060058152602001640352e302e360dc1b81525081565b6040516101899190611c5b565b348015610331575f5ffd5b50610154610340366004611c6d565b610da9565b348015610350575f5ffd5b5061015461035f366004611be1565b610e42565b34801561036f575f5ffd5b5061015461037e366004611ca4565b610f61565b34801561038e575f5ffd5b5061017561039d366004611a6c565b60036020525f90815260409020546001600160a01b031681565b3480156103c2575f5ffd5b506101756111e8565b3480156103d6575f5ffd5b506101f760045481565b3480156103eb575f5ffd5b506101546103fa366004611a6c565b611210565b610407611295565b6001600160a01b03811661042e5760405163d92e233d60e01b815260040160405180910390fd5b5f80546001600160a01b0319166001600160a01b038316908117825560405190917f6cc7ebdb6c8c53291c5ae16148cab9b049d23bf5bde5632900b40edff56fcb4391a250565b5f546001600160a01b0316331461049f5760405163ea8e4eb560e01b815260040160405180910390fd5b60025460408051630a58ce2d60e11b815290515f926001600160a01b0316916314b19c5a9160048083019260209291908290030181865afa1580156104e6573d5f5f3e3d5ffd5b505050506040513d601f19601f8201168201806040525081019061050a9190611cec565b9050600454811161051a57505050565b60048181556005546040516370a0823160e01b815230928101929092525f916001600160a01b03909116906370a0823190602401602060405180830381865afa158015610569573d5f5f3e3d5ffd5b505050506040513d601f19601f8201168201806040525081019061058d9190611cec565b90505f5f60025f9054906101000a90046001600160a01b03166001600160a01b031663c2cb5d886040518163ffffffff1660e01b81526004015f60405180830381865afa1580156105e0573d5f5f3e3d5ffd5b505050506040513d5f823e601f3d908101601f191682016040526106079190810190611d99565b90925090505f5b8251811015610665575f83828151811061062a5761062a611e57565b602002602001015190505f83838151811061064757610647611e57565b6020026020010151905061065b82826112c7565b505060010161060e565b506005546040516370a0823160e01b81523060048201525f916001600160a01b0316906370a0823190602401602060405180830381865afa1580156106ac573d5f5f3e3d5ffd5b505050506040513d601f19601f820116820180604052508101906106d09190611cec565b90505f6106dd8583611e7f565b90505f60025f9054906101000a90046001600160a01b03166001600160a01b03166306cce8486040518163ffffffff1660e01b8152600401602060405180830381865afa158015610730573d5f5f3e3d5ffd5b505050506040513d601f19601f820116820180604052508101906107549190611cec565b90505f6107618284611e7f565b90505f60025f9054906101000a90046001600160a01b03166001600160a01b0316634a1d96256040518163ffffffff1660e01b8152600401602060405180830381865afa1580156107b4573d5f5f3e3d5ffd5b505050506040513d601f19601f820116820180604052508101906107d89190611cec565b9050670de0b6b3a7640000811561081b57816107fc84670de0b6b3a7640000611e92565b6108069190611ea9565b61081890670de0b6b3a7640000611ec8565b90505b5f5f60025f9054906101000a90046001600160a01b03166001600160a01b031663a08b82d76040518163ffffffff1660e01b81526004015f60405180830381865afa15801561086c573d5f5f3e3d5ffd5b505050506040513d5f823e601f3d908101601f191682016040526108939190810190611d99565b90925090505f5b825181101561090057670de0b6b3a7640000848383815181106108bf576108bf611e57565b60200260200101516108d19190611e92565b6108db9190611ea9565b8282815181106108ed576108ed611e57565b602090810291909101015260010161089a565b505f5b825181101561095a575f83828151811061091f5761091f611e57565b602002602001015190505f83838151811061093c5761093c611e57565b6020026020010151905061095082826113eb565b5050600101610903565b50600154604051631da09e4360e31b81525f916001600160a01b03169063ed04f2189061098b908490600401611edb565b5f60405180830381865afa1580156109a5573d5f5f3e3d5ffd5b505050506040513d5f823e601f3d908101601f191682016040526109cc9190810190611f01565b80519091505f5b818110156109f9575f8382815181106109ee576109ee611e57565b5050506001016109d3565b5060018054604051631da09e4360e31b81525f926001600160a01b039092169163ed04f21891610a2c9190600401611edb565b5f60405180830381865afa158015610a46573d5f5f3e3d5ffd5b505050506040513d5f823e601f3d908101601f19168201604052610a6d9190810190611f01565b8051925090505f5b82811015610a9b575f828281518110610a9057610a90611e57565b505050600101610a75565b506040517ff0094b59b7bc92e9fc611b14b5d3a34fe02530ac9bcf36c2c6f10147c3030c12905f90a15050505050505050505050505050505b5050565b610ae061157d565b610ae982611621565b610ad48282611629565b600154604051633821dad160e21b81523360048201526001600160a01b039091169063e0876b4490602401602060405180830381865afa158015610b39573d5f5f3e3d5ffd5b505050506040513d601f19601f82011682018060405250810190610b5d9190611f33565b610b7a5760405163ea8e4eb560e01b815260040160405180910390fd5b60055460405163a9059cbb60e01b81526001600160a01b038481166004830152602482018490525f92169063a9059cbb906044016020604051808303815f875af1158015610bca573d5f5f3e3d5ffd5b505050506040513d601f19601f82011682018060405250810190610bee9190611f33565b905080610c0e576040516312171d8360e31b815260040160405180910390fd5b505050565b5f610c1c6116e5565b505f516020611f845f395f51905f5290565b610c36611295565b6001600160a01b038116610c5d5760405163d92e233d60e01b815260040160405180910390fd5b600180546001600160a01b0319166001600160a01b0392909216919091179055565b5f60605f60025f9054906101000a90046001600160a01b03166001600160a01b03166314b19c5a6040518163ffffffff1660e01b8152600401602060405180830381865afa158015610cd3573d5f5f3e3d5ffd5b505050506040513d601f19601f82011682018060405250810190610cf79190611cec565b60045460408051602081019091525f81529111969095509350505050565b610d1d611295565b610d265f61172e565b565b3380610d326111e8565b6001600160a01b031614610d695760405163118cdaa760e01b81526001600160a01b03821660048201526024015b60405180910390fd5b610d728161172e565b50565b5f807f9016d09d72d40fdae2fd8ceac6b6234c7706214fd39c1cd1e609a0528c1993005b546001600160a01b031692915050565b610db1611295565b6001600160a01b0382161580610dce57506001600160a01b038116155b15610dec5760405163d92e233d60e01b815260040160405180910390fd5b6001600160a01b038281165f8181526003602052604080822080546001600160a01b0319169486169485179055517fe5e39617beb2a298b9fa1c3928582d9a96ba7ef7c920acd1117d1d415568670a9190a35050565b600154604051633821dad160e21b81523360048201526001600160a01b039091169063e0876b4490602401602060405180830381865afa158015610e88573d5f5f3e3d5ffd5b505050506040513d601f19601f82011682018060405250810190610eac9190611f33565b610ec95760405163ea8e4eb560e01b815260040160405180910390fd5b60405163a9059cbb60e01b81526001600160a01b03831660048201526024810182905233905f90829063a9059cbb906044016020604051808303815f875af1158015610f17573d5f5f3e3d5ffd5b505050506040513d601f19601f82011682018060405250810190610f3b9190611f33565b905080610f5b576040516312171d8360e31b815260040160405180910390fd5b50505050565b5f610f6a611766565b805490915060ff600160401b820416159067ffffffffffffffff165f81158015610f915750825b90505f8267ffffffffffffffff166001148015610fad5750303b155b905081158015610fbb575080155b15610fd95760405163f92ee8a960e01b815260040160405180910390fd5b845467ffffffffffffffff19166001178555831561100357845460ff60401b1916600160401b1785555b61100c88611790565b6110146117a1565b61101c6117a1565b6001600160a01b0387166110435760405163d92e233d60e01b815260040160405180910390fd5b6001600160a01b03861661106a5760405163d92e233d60e01b815260040160405180910390fd5b5f80546001600160a01b03808a166001600160a01b03199283161790925560018054928916929091168217905560408051630691d8b960e31b8152905163348ec5c8916004808201926020929091908290030181865afa1580156110d0573d5f5f3e3d5ffd5b505050506040513d601f19601f820116820180604052508101906110f49190611f52565b600280546001600160a01b0319166001600160a01b0392831617905560015460408051631c56369f60e21b815290519190921691637158da7c9160048083019260209291908290030181865afa158015611150573d5f5f3e3d5ffd5b505050506040513d601f19601f820116820180604052508101906111749190611f52565b600580546001600160a01b0319166001600160a01b03929092169190911790555f60045583156111de57845460ff60401b19168555604051600181527fc7f505b2f371ae2175ee4913f4499e1f2633a7b5936321eed1cdaeb6115181d29060200160405180910390a15b5050505050505050565b5f807f237e158222e3e6968b72b9db0d8043aacf074ad9f650f0d1606b4d82ee432c00610d99565b611218611295565b7f237e158222e3e6968b72b9db0d8043aacf074ad9f650f0d1606b4d82ee432c0080546001600160a01b0319166001600160a01b038316908117825561125c610d75565b6001600160a01b03167f38d16b8cac22d99fc7c124b9cd0de2d3fa1faef420bfe791d8c362d765e2270060405160405180910390a35050565b3361129e610d75565b6001600160a01b031614610d265760405163118cdaa760e01b8152336004820152602401610d60565b6001600160a01b038083165f9081526003602052604090205416806112ff57604051635048c2af60e11b815260040160405180910390fd5b60405163095ea7b360e01b81526001600160a01b038281166004830152602482018490525f919085169063095ea7b3906044016020604051808303815f875af115801561134e573d5f5f3e3d5ffd5b505050506040513d601f19601f820116820180604052508101906113729190611f33565b905080611392576040516312171d8360e31b815260040160405180910390fd5b604051636c197ff560e01b81526001600160a01b03858116600483015260248201859052831690636c197ff5906044015f604051808303815f87803b1580156113d9575f5ffd5b505af11580156111de573d5f5f3e3d5ffd5b6001600160a01b038083165f90815260036020526040902054168061142357604051635048c2af60e11b815260040160405180910390fd5b5f836001600160a01b03166338d52e0f6040518163ffffffff1660e01b8152600401602060405180830381865afa158015611460573d5f5f3e3d5ffd5b505050506040513d601f19601f820116820180604052508101906114849190611f52565b60405163095ea7b360e01b81526001600160a01b038481166004830152602482018690529192505f9183169063095ea7b3906044016020604051808303815f875af11580156114d5573d5f5f3e3d5ffd5b505050506040513d601f19601f820116820180604052508101906114f99190611f33565b905080611519576040516312171d8360e31b815260040160405180910390fd5b60405163cce7ec1360e01b81526001600160a01b0386811660048301526024820186905284169063cce7ec13906044015f604051808303815f87803b158015611560575f5ffd5b505af1158015611572573d5f5f3e3d5ffd5b505050505050505050565b306001600160a01b037f000000000000000000000000000000000000000000000000000000000000000016148061160357507f00000000000000000000000000000000000000000000000000000000000000006001600160a01b03166115f75f516020611f845f395f51905f52546001600160a01b031690565b6001600160a01b031614155b15610d265760405163703e46dd60e11b815260040160405180910390fd5b610d72611295565b816001600160a01b03166352d1902d6040518163ffffffff1660e01b8152600401602060405180830381865afa925050508015611683575060408051601f3d908101601f1916820190925261168091810190611cec565b60015b6116ab57604051634c9c8ce360e01b81526001600160a01b0383166004820152602401610d60565b5f516020611f845f395f51905f5281146116db57604051632a87526960e21b815260048101829052602401610d60565b610c0e83836117a9565b306001600160a01b037f00000000000000000000000000000000000000000000000000000000000000001614610d265760405163703e46dd60e11b815260040160405180910390fd5b7f237e158222e3e6968b72b9db0d8043aacf074ad9f650f0d1606b4d82ee432c0080546001600160a01b0319168155610ad4826117fe565b5f807ff0c57e16840df040f15088dc2f81fe391c3923bec73e23a9662efc9c229c6a005b92915050565b61179861186e565b610d7281611893565b610d2661186e565b6117b2826118c4565b6040516001600160a01b038316907fbc7cd75a20ee27fd9adebab32041f755214dbc6bffa90cc0225b39da2e5c2d3b905f90a28051156117f657610c0e8282611927565b610ad4611999565b7f9016d09d72d40fdae2fd8ceac6b6234c7706214fd39c1cd1e609a0528c19930080546001600160a01b031981166001600160a01b03848116918217845560405192169182907f8be0079c531659141344cd1fd0a4f28419497f9722a3daafe3b4186f6b6457e0905f90a3505050565b6118766119b8565b610d2657604051631afcd79f60e31b815260040160405180910390fd5b61189b61186e565b6001600160a01b038116610d6957604051631e4fbdf760e01b81525f6004820152602401610d60565b806001600160a01b03163b5f036118f957604051634c9c8ce360e01b81526001600160a01b0382166004820152602401610d60565b5f516020611f845f395f51905f5280546001600160a01b0319166001600160a01b0392909216919091179055565b60605f5f846001600160a01b0316846040516119439190611f6d565b5f60405180830381855af49150503d805f811461197b576040519150601f19603f3d011682016040523d82523d5f602084013e611980565b606091505b50915091506119908583836119d1565b95945050505050565b3415610d265760405163b398979f60e01b815260040160405180910390fd5b5f6119c1611766565b54600160401b900460ff16919050565b6060826119e6576119e182611a30565b611a29565b81511580156119fd57506001600160a01b0384163b155b15611a2657604051639996b31560e01b81526001600160a01b0385166004820152602401610d60565b50805b9392505050565b805115611a3f57805160208201fd5b60405163d6bda27560e01b815260040160405180910390fd5b6001600160a01b0381168114610d72575f5ffd5b5f60208284031215611a7c575f5ffd5b8135611a2981611a58565b5f5f60208385031215611a98575f5ffd5b823567ffffffffffffffff811115611aae575f5ffd5b8301601f81018513611abe575f5ffd5b803567ffffffffffffffff811115611ad4575f5ffd5b856020828401011115611ae5575f5ffd5b6020919091019590945092505050565b634e487b7160e01b5f52604160045260245ffd5b604051601f8201601f1916810167ffffffffffffffff81118282101715611b3257611b32611af5565b604052919050565b5f5f60408385031215611b4b575f5ffd5b8235611b5681611a58565b9150602083013567ffffffffffffffff811115611b71575f5ffd5b8301601f81018513611b81575f5ffd5b803567ffffffffffffffff811115611b9b57611b9b611af5565b611bae601f8201601f1916602001611b09565b818152866020838501011115611bc2575f5ffd5b816020840160208301375f602083830101528093505050509250929050565b5f5f60408385031215611bf2575f5ffd5b8235611bfd81611a58565b946020939093013593505050565b5f81518084528060208401602086015e5f602082860101526020601f19601f83011685010191505092915050565b8215158152604060208201525f611c536040830184611c0b565b949350505050565b602081525f611a296020830184611c0b565b5f5f60408385031215611c7e575f5ffd5b8235611c8981611a58565b91506020830135611c9981611a58565b809150509250929050565b5f5f5f60608486031215611cb6575f5ffd5b8335611cc181611a58565b92506020840135611cd181611a58565b91506040840135611ce181611a58565b809150509250925092565b5f60208284031215611cfc575f5ffd5b5051919050565b5f67ffffffffffffffff821115611d1c57611d1c611af5565b5060051b60200190565b5f82601f830112611d35575f5ffd5b8151611d48611d4382611d03565b611b09565b8082825260208201915060208360051b860101925085831115611d69575f5ffd5b602085015b83811015611d8f578051611d8181611a58565b835260209283019201611d6e565b5095945050505050565b5f5f60408385031215611daa575f5ffd5b825167ffffffffffffffff811115611dc0575f5ffd5b611dcc85828601611d26565b925050602083015167ffffffffffffffff811115611de8575f5ffd5b8301601f81018513611df8575f5ffd5b8051611e06611d4382611d03565b8082825260208201915060208360051b850101925087831115611e27575f5ffd5b6020840193505b82841015611e49578351825260209384019390910190611e2e565b809450505050509250929050565b634e487b7160e01b5f52603260045260245ffd5b634e487b7160e01b5f52601160045260245ffd5b8181038181111561178a5761178a611e6b565b808202811582820484141761178a5761178a611e6b565b5f82611ec357634e487b7160e01b5f52601260045260245ffd5b500490565b8082018082111561178a5761178a611e6b565b6020810160028310611efb57634e487b7160e01b5f52602160045260245ffd5b91905290565b5f60208284031215611f11575f5ffd5b815167ffffffffffffffff811115611f27575f5ffd5b611c5384828501611d26565b5f60208284031215611f43575f5ffd5b81518015158114611a29575f5ffd5b5f60208284031215611f62575f5ffd5b8151611a2981611a58565b5f82518060208501845e5f92019182525091905056fe360894a13ba1a3210667c828492db98dca3e2076cc3735a920a3ca505d382bbca2646970667358221220daa5fce95c7fc4b16432f3b9f6464bca376f5b2a01b6b713698bebf0869ef80964736f6c634300081c0033",
  "linkReferences": {},
  "deployedLinkReferences": {}
}