{
  "_format": "hh-sol-artifact-1",
  "contractName": "LiquidityOrchestrator",
  "sourceName": "contracts/orchestrators/LiquidityOrchestrator.sol",
  "abi": [
    {
      "inputs": [
        {
          "internalType": "address",
          "name": "initialOwner",
          "type": "address"
        },
        {
          "internalType": "address",
          "name": "config_",
          "type": "address"
        },
        {
          "internalType": "address",
          "name": "automationRegistry_",
          "type": "address"
        }
      ],
      "stateMutability": "nonpayable",
      "type": "constructor"
    },
    {
      "inputs": [],
      "name": "AdapterNotSet",
      "type": "error"
    },
    {
      "inputs": [],
      "name": "AlreadyRegistered",
      "type": "error"
    },
    {
      "inputs": [
        {
          "internalType": "address",
          "name": "asset",
          "type": "address"
        }
      ],
      "name": "AmountMustBeGreaterThanZero",
      "type": "error"
    },
    {
      "inputs": [],
      "name": "InsufficientAmount",
      "type": "error"
    },
    {
      "inputs": [],
      "name": "InvalidArguments",
      "type": "error"
    },
    {
      "inputs": [],
      "name": "InvalidState",
      "type": "error"
    },
    {
      "inputs": [],
      "name": "NotAuthorized",
      "type": "error"
    },
    {
      "inputs": [
        {
          "internalType": "address",
          "name": "owner",
          "type": "address"
        }
      ],
      "name": "OwnableInvalidOwner",
      "type": "error"
    },
    {
      "inputs": [
        {
          "internalType": "address",
          "name": "account",
          "type": "address"
        }
      ],
      "name": "OwnableUnauthorizedAccount",
      "type": "error"
    },
    {
      "inputs": [],
      "name": "ReentrancyGuardReentrantCall",
      "type": "error"
    },
    {
      "inputs": [
        {
          "internalType": "address",
          "name": "token",
          "type": "address"
        }
      ],
      "name": "SafeERC20FailedOperation",
      "type": "error"
    },
    {
      "inputs": [],
      "name": "SystemNotIdle",
      "type": "error"
    },
    {
      "inputs": [],
      "name": "TransferFailed",
      "type": "error"
    },
    {
      "inputs": [],
      "name": "ZeroAddress",
      "type": "error"
    },
    {
      "anonymous": false,
      "inputs": [
        {
          "indexed": true,
          "internalType": "address",
          "name": "newAutomationRegistry",
          "type": "address"
        }
      ],
      "name": "AutomationRegistryUpdated",
      "type": "event"
    },
    {
      "anonymous": false,
      "inputs": [
        {
          "indexed": true,
          "internalType": "address",
          "name": "asset",
          "type": "address"
        },
        {
          "indexed": true,
          "internalType": "address",
          "name": "adapter",
          "type": "address"
        }
      ],
      "name": "ExecutionAdapterSet",
      "type": "event"
    },
    {
      "anonymous": false,
      "inputs": [
        {
          "indexed": true,
          "internalType": "address",
          "name": "previousOwner",
          "type": "address"
        },
        {
          "indexed": true,
          "internalType": "address",
          "name": "newOwner",
          "type": "address"
        }
      ],
      "name": "OwnershipTransferred",
      "type": "event"
    },
    {
      "anonymous": false,
      "inputs": [],
      "name": "PortfolioRebalanced",
      "type": "event"
    },
    {
      "inputs": [],
      "name": "automationRegistry",
      "outputs": [
        {
          "internalType": "address",
          "name": "",
          "type": "address"
        }
      ],
      "stateMutability": "view",
      "type": "function"
    },
    {
      "inputs": [
        {
          "internalType": "uint256",
          "name": "",
          "type": "uint256"
        }
      ],
      "name": "buyingAmounts",
      "outputs": [
        {
          "internalType": "uint256",
          "name": "",
          "type": "uint256"
        }
      ],
      "stateMutability": "view",
      "type": "function"
    },
    {
      "inputs": [
        {
          "internalType": "uint256",
          "name": "",
          "type": "uint256"
        }
      ],
      "name": "buyingEstimatedUnderlyingAmounts",
      "outputs": [
        {
          "internalType": "uint256",
          "name": "",
          "type": "uint256"
        }
      ],
      "stateMutability": "view",
      "type": "function"
    },
    {
      "inputs": [
        {
          "internalType": "uint256",
          "name": "",
          "type": "uint256"
        }
      ],
      "name": "buyingTokens",
      "outputs": [
        {
          "internalType": "address",
          "name": "",
          "type": "address"
        }
      ],
      "stateMutability": "view",
      "type": "function"
    },
    {
      "inputs": [
        {
          "internalType": "bytes",
          "name": "",
          "type": "bytes"
        }
      ],
      "name": "checkUpkeep",
      "outputs": [
        {
          "internalType": "bool",
          "name": "upkeepNeeded",
          "type": "bool"
        },
        {
          "internalType": "bytes",
          "name": "performData",
          "type": "bytes"
        }
      ],
      "stateMutability": "view",
      "type": "function"
    },
    {
      "inputs": [
        {
          "internalType": "uint256",
          "name": "amount",
          "type": "uint256"
        }
      ],
      "name": "claimProtocolFees",
      "outputs": [],
      "stateMutability": "nonpayable",
      "type": "function"
    },
    {
      "inputs": [],
      "name": "config",
      "outputs": [
        {
          "internalType": "contract IOrionConfig",
          "name": "",
          "type": "address"
        }
      ],
      "stateMutability": "view",
      "type": "function"
    },
    {
      "inputs": [],
      "name": "currentMinibatchIndex",
      "outputs": [
        {
          "internalType": "uint8",
          "name": "",
          "type": "uint8"
        }
      ],
      "stateMutability": "view",
      "type": "function"
    },
    {
      "inputs": [],
      "name": "currentPhase",
      "outputs": [
        {
          "internalType": "enum ILiquidityOrchestrator.LiquidityUpkeepPhase",
          "name": "",
          "type": "uint8"
        }
      ],
      "stateMutability": "view",
      "type": "function"
    },
    {
      "inputs": [],
      "name": "deltaBufferAmount",
      "outputs": [
        {
          "internalType": "int256",
          "name": "",
          "type": "int256"
        }
      ],
      "stateMutability": "view",
      "type": "function"
    },
    {
      "inputs": [
        {
          "internalType": "uint256",
          "name": "amount",
          "type": "uint256"
        }
      ],
      "name": "depositLiquidity",
      "outputs": [],
      "stateMutability": "nonpayable",
      "type": "function"
    },
    {
      "inputs": [
        {
          "internalType": "address",
          "name": "",
          "type": "address"
        }
      ],
      "name": "executionAdapterOf",
      "outputs": [
        {
          "internalType": "contract IExecutionAdapter",
          "name": "",
          "type": "address"
        }
      ],
      "stateMutability": "view",
      "type": "function"
    },
    {
      "inputs": [],
      "name": "executionMinibatchSize",
      "outputs": [
        {
          "internalType": "uint8",
          "name": "",
          "type": "uint8"
        }
      ],
      "stateMutability": "view",
      "type": "function"
    },
    {
      "inputs": [],
      "name": "internalStatesOrchestrator",
      "outputs": [
        {
          "internalType": "contract IInternalStateOrchestrator",
          "name": "",
          "type": "address"
        }
      ],
      "stateMutability": "view",
      "type": "function"
    },
    {
      "inputs": [],
      "name": "lastProcessedEpoch",
      "outputs": [
        {
          "internalType": "uint16",
          "name": "",
          "type": "uint16"
        }
      ],
      "stateMutability": "view",
      "type": "function"
    },
    {
      "inputs": [],
      "name": "owner",
      "outputs": [
        {
          "internalType": "address",
          "name": "",
          "type": "address"
        }
      ],
      "stateMutability": "view",
      "type": "function"
    },
    {
      "inputs": [
        {
          "internalType": "bytes",
          "name": "performData",
          "type": "bytes"
        }
      ],
      "name": "performUpkeep",
      "outputs": [],
      "stateMutability": "nonpayable",
      "type": "function"
    },
    {
      "inputs": [],
      "name": "renounceOwnership",
      "outputs": [],
      "stateMutability": "nonpayable",
      "type": "function"
    },
    {
      "inputs": [
        {
          "internalType": "address",
          "name": "user",
          "type": "address"
        },
        {
          "internalType": "uint256",
          "name": "amount",
          "type": "uint256"
        }
      ],
      "name": "returnDepositFunds",
      "outputs": [],
      "stateMutability": "nonpayable",
      "type": "function"
    },
    {
      "inputs": [
        {
          "internalType": "uint256",
          "name": "",
          "type": "uint256"
        }
      ],
      "name": "sellingAmounts",
      "outputs": [
        {
          "internalType": "uint256",
          "name": "",
          "type": "uint256"
        }
      ],
      "stateMutability": "view",
      "type": "function"
    },
    {
      "inputs": [
        {
          "internalType": "uint256",
          "name": "",
          "type": "uint256"
        }
      ],
      "name": "sellingEstimatedUnderlyingAmounts",
      "outputs": [
        {
          "internalType": "uint256",
          "name": "",
          "type": "uint256"
        }
      ],
      "stateMutability": "view",
      "type": "function"
    },
    {
      "inputs": [
        {
          "internalType": "uint256",
          "name": "",
          "type": "uint256"
        }
      ],
      "name": "sellingTokens",
      "outputs": [
        {
          "internalType": "address",
          "name": "",
          "type": "address"
        }
      ],
      "stateMutability": "view",
      "type": "function"
    },
    {
      "inputs": [
        {
          "internalType": "address",
          "name": "asset",
          "type": "address"
        },
        {
          "internalType": "contract IExecutionAdapter",
          "name": "adapter",
          "type": "address"
        }
      ],
      "name": "setExecutionAdapter",
      "outputs": [],
      "stateMutability": "nonpayable",
      "type": "function"
    },
    {
      "inputs": [
        {
          "internalType": "address",
          "name": "_internalStatesOrchestrator",
          "type": "address"
        }
      ],
      "name": "setInternalStatesOrchestrator",
      "outputs": [],
      "stateMutability": "nonpayable",
      "type": "function"
    },
    {
      "inputs": [
        {
          "internalType": "uint256",
          "name": "_targetBufferRatio",
          "type": "uint256"
        }
      ],
      "name": "setTargetBufferRatio",
      "outputs": [],
      "stateMutability": "nonpayable",
      "type": "function"
    },
    {
      "inputs": [],
      "name": "targetBufferRatio",
      "outputs": [
        {
          "internalType": "uint256",
          "name": "",
          "type": "uint256"
        }
      ],
      "stateMutability": "view",
      "type": "function"
    },
    {
      "inputs": [
        {
          "internalType": "uint256",
          "name": "amount",
          "type": "uint256"
        }
      ],
      "name": "transferCuratorFees",
      "outputs": [],
      "stateMutability": "nonpayable",
      "type": "function"
    },
    {
      "inputs": [
        {
          "internalType": "address",
          "name": "newOwner",
          "type": "address"
        }
      ],
      "name": "transferOwnership",
      "outputs": [],
      "stateMutability": "nonpayable",
      "type": "function"
    },
    {
      "inputs": [
        {
          "internalType": "address",
          "name": "user",
          "type": "address"
        },
        {
          "internalType": "uint256",
          "name": "amount",
          "type": "uint256"
        }
      ],
      "name": "transferRedemptionFunds",
      "outputs": [],
      "stateMutability": "nonpayable",
      "type": "function"
    },
    {
      "inputs": [],
      "name": "underlyingAsset",
      "outputs": [
        {
          "internalType": "address",
          "name": "",
          "type": "address"
        }
      ],
      "stateMutability": "view",
      "type": "function"
    },
    {
      "inputs": [
        {
          "internalType": "address",
          "name": "newAutomationRegistry",
          "type": "address"
        }
      ],
      "name": "updateAutomationRegistry",
      "outputs": [],
      "stateMutability": "nonpayable",
      "type": "function"
    },
    {
      "inputs": [
        {
          "internalType": "uint8",
          "name": "_executionMinibatchSize",
          "type": "uint8"
        }
      ],
      "name": "updateExecutionMinibatchSize",
      "outputs": [],
      "stateMutability": "nonpayable",
      "type": "function"
    },
    {
      "inputs": [
        {
          "internalType": "uint256",
          "name": "assets",
          "type": "uint256"
        },
        {
          "internalType": "address",
          "name": "receiver",
          "type": "address"
        }
      ],
      "name": "withdraw",
      "outputs": [],
      "stateMutability": "nonpayable",
      "type": "function"
    },
    {
      "inputs": [
        {
          "internalType": "uint256",
          "name": "amount",
          "type": "uint256"
        }
      ],
      "name": "withdrawLiquidity",
      "outputs": [],
      "stateMutability": "nonpayable",
      "type": "function"
    }
  ],
  "bytecode": "0x608060405234801561000f575f5ffd5b50604051612fb6380380612fb683398101604081905261002e916101e3565b826001600160a01b03811661005c57604051631e4fbdf760e01b81525f600482015260240160405180910390fd5b6100658161017d565b50600180556001600160a01b0382166100915760405163d92e233d60e01b815260040160405180910390fd5b6001600160a01b0381166100b85760405163d92e233d60e01b815260040160405180910390fd5b600380546001600160a01b0319166001600160a01b03841690811790915560408051631c56369f60e21b81529051637158da7c916004808201926020929091908290030181865afa15801561010f573d5f5f3e3d5ffd5b505050506040513d601f19601f82011682018060405250810190610133919061022d565b600580546001600160a01b03199081166001600160a01b0393841617909155600280549091169290911691909117905550506007805464ffffffffff19166201000017905561024f565b5f80546001600160a01b038381166001600160a01b0319831681178455604051919092169283917f8be0079c531659141344cd1fd0a4f28419497f9722a3daafe3b4186f6b6457e09190a35050565b6001600160a01b03811681146101e0575f5ffd5b50565b5f5f5f606084860312156101f5575f5ffd5b8351610200816101cc565b6020850151909350610211816101cc565b6040850151909250610222816101cc565b809150509250925092565b5f6020828403121561023d575f5ffd5b8151610248816101cc565b9392505050565b612d5a8061025c5f395ff3fe608060405234801561000f575f5ffd5b5060043610610193575f3560e01c8062f714ce1461019757806301c621c1146101ac578063055ad42e146101bf57806309f2e19c146101e95780630a861f2a146102095780630a8b78c71461021c57806314b5d07f1461022f5780633369921a14610242578063348ec5c8146102595780633af2a8c01461026c5780633e765a9e1461027f5780634585e33b146102925780634adfc2e7146102a557806351edffb1146102b857806352e899fd146102cb5780635488cd62146102de57806357be01c11461030457806359017aa9146103175780635dc228a01461032a5780636e04ff0d1461033d578063715018a61461035e5780637158da7c14610366578063741fca4b1461037957806376d58e1a1461038c57806379502c551461039f5780638157c1ab146103b25780638a0b0d38146103c55780638da5cb5b146103d8578063bc504975146103e0578063be1b26a4146103f3578063d3f3506d14610406578063dab26e3b1461042e578063ee6713df14610437578063f2fde38b14610458575b5f5ffd5b6101aa6101a53660046126be565b61046b565b005b6101aa6101ba3660046126ec565b610523565b6007546101d3906301000000900460ff1681565b6040516101e09190612717565b60405180910390f35b6101fc6101f73660046126ec565b61064c565b6040516101e09190612731565b6101aa6102173660046126ec565b610674565b6101aa61022a366004612745565b6108d0565b6101aa61023d366004612745565b61094b565b61024b600f5481565b6040519081526020016101e0565b6004546101fc906001600160a01b031681565b6101aa61027a3660046126ec565b610a54565b61024b61028d3660046126ec565b610b35565b6101aa6102a0366004612767565b610b54565b6101aa6102b33660046127d3565b610c9d565b6101aa6102c63660046127d3565b610d88565b61024b6102d93660046126ec565b610e14565b6007546102f290600160201b900460ff1681565b60405160ff90911681526020016101e0565b6007546102f29062010000900460ff1681565b6101aa6103253660046127fd565b610e23565b6002546101fc906001600160a01b031681565b61035061034b366004612767565b610f37565b6040516101e0929190612829565b6101aa6111cc565b6005546101fc906001600160a01b031681565b6101aa6103873660046126ec565b6111df565b6101aa61039a3660046126ec565b611410565b6003546101fc906001600160a01b031681565b6101fc6103c03660046126ec565b6115c9565b6101aa6103d336600461287c565b6115d8565b6101fc6116b2565b61024b6103ee3660046126ec565b6116c0565b61024b6104013660046126ec565b6116cf565b6101fc610414366004612745565b60066020525f90815260409020546001600160a01b031681565b61024b60085481565b6007546104459061ffff1681565b60405161ffff90911681526020016101e0565b6101aa610466366004612745565b6116de565b61047361171b565b60035460405163f764eb4560e01b81526001600160a01b039091169063f764eb45906104a3903390600401612731565b602060405180830381865afa1580156104be573d5f5f3e3d5ffd5b505050506040513d601f19601f820116820180604052508101906104e29190612895565b6104ff5760405163ea8e4eb560e01b815260040160405180910390fd5b600554610516906001600160a01b03168284611745565b61051f60018055565b5050565b61052b61179d565b805f0361056157600554604051636b30633560e01b8152610558916001600160a01b031690600401612731565b60405180910390fd5b60048054604051637060444560e01b81529182018390526001600160a01b0316906370604445906024015f604051808303815f87803b1580156105a2575f5ffd5b505af11580156105b4573d5f5f3e3d5ffd5b505060055460405163a9059cbb60e01b81525f93506001600160a01b03909116915063a9059cbb906105ec90339086906004016128b4565b6020604051808303815f875af1158015610608573d5f5f3e3d5ffd5b505050506040513d601f19601f8201168201806040525081019061062c9190612895565b90508061051f576040516312171d8360e31b815260040160405180910390fd5b600c818154811061065b575f80fd5b5f918252602090912001546001600160a01b0316905081565b61067c61179d565b805f036106a957600554604051636b30633560e01b8152610558916001600160a01b031690600401612731565b60035f9054906101000a90046001600160a01b03166001600160a01b031663edcf9c1f6040518163ffffffff1660e01b8152600401602060405180830381865afa1580156106f9573d5f5f3e3d5ffd5b505050506040513d601f19601f8201168201806040525081019061071d9190612895565b61073a576040516312aecd8160e01b815260040160405180910390fd5b5f60045f9054906101000a90046001600160a01b03166001600160a01b031663c18e2a5c6040518163ffffffff1660e01b8152600401602060405180830381865afa15801561078b573d5f5f3e3d5ffd5b505050506040513d601f19601f820116820180604052508101906107af91906128cd565b9050808211156107d257604051632ca2f52b60e11b815260040160405180910390fd5b6004546001600160a01b031663e2c4aaec6107ec846128f8565b6040518263ffffffff1660e01b815260040161080a91815260200190565b5f604051808303815f87803b158015610821575f5ffd5b505af1158015610833573d5f5f3e3d5ffd5b505060055460405163a9059cbb60e01b81525f93506001600160a01b03909116915063a9059cbb9061086b90339087906004016128b4565b6020604051808303815f875af1158015610887573d5f5f3e3d5ffd5b505050506040513d601f19601f820116820180604052508101906108ab9190612895565b9050806108cb576040516312171d8360e31b815260040160405180910390fd5b505050565b6108d861179d565b6001600160a01b0381166108ff5760405163d92e233d60e01b815260040160405180910390fd5b6004546001600160a01b03161561092957604051630ea075bf60e21b815260040160405180910390fd5b600480546001600160a01b0319166001600160a01b0392909216919091179055565b61095361179d565b6001600160a01b03811661097a5760405163d92e233d60e01b815260040160405180910390fd5b60035f9054906101000a90046001600160a01b03166001600160a01b031663edcf9c1f6040518163ffffffff1660e01b8152600401602060405180830381865afa1580156109ca573d5f5f3e3d5ffd5b505050506040513d601f19601f820116820180604052508101906109ee9190612895565b610a0b576040516312aecd8160e01b815260040160405180910390fd5b600280546001600160a01b0319166001600160a01b0383169081179091556040517f6cc7ebdb6c8c53291c5ae16148cab9b049d23bf5bde5632900b40edff56fcb43905f90a250565b610a5c61179d565b805f03610a7c576040516317dbc4cb60e21b815260040160405180910390fd5b6101f4811115610a9f576040516317dbc4cb60e21b815260040160405180910390fd5b60035f9054906101000a90046001600160a01b03166001600160a01b031663edcf9c1f6040518163ffffffff1660e01b8152600401602060405180830381865afa158015610aef573d5f5f3e3d5ffd5b505050506040513d601f19601f82011682018060405250810190610b139190612895565b610b30576040516312aecd8160e01b815260040160405180910390fd5b600855565b600e8181548110610b44575f80fd5b5f91825260209091200154905081565b610b5c6116b2565b6001600160a01b0316336001600160a01b031614158015610b8857506002546001600160a01b03163314155b15610ba65760405163ea8e4eb560e01b815260040160405180910390fd5b610bae61171b565b6005811015610bd0576040516317dbc4cb60e21b815260040160405180910390fd5b5f80610bde83850185612912565b90925090506341659aab60e01b6001600160e01b0319831601610c0857610c036117cf565b610c6a565b63100597e960e31b6001600160e01b0319831601610c2957610c0381611a07565b63302c6bef60e21b6001600160e01b0319831601610c4a57610c0381611b94565b6301c7bbc160e21b6001600160e01b0319831601610c6a57610c6a611d8c565b6040517ff0094b59b7bc92e9fc611b14b5d3a34fe02530ac9bcf36c2c6f10147c3030c12905f90a1505061051f60018055565b600354604051633821dad160e21b81526001600160a01b039091169063e0876b4490610ccd903390600401612731565b602060405180830381865afa158015610ce8573d5f5f3e3d5ffd5b505050506040513d601f19601f82011682018060405250810190610d0c9190612895565b610d295760405163ea8e4eb560e01b815260040160405180910390fd5b805f03610d5657600554604051636b30633560e01b8152610558916001600160a01b031690600401612731565b60055460405163a9059cbb60e01b81525f916001600160a01b03169063a9059cbb9061086b90869086906004016128b4565b600354604051633821dad160e21b81526001600160a01b039091169063e0876b4490610db8903390600401612731565b602060405180830381865afa158015610dd3573d5f5f3e3d5ffd5b505050506040513d601f19601f82011682018060405250810190610df79190612895565b610d565760405163ea8e4eb560e01b815260040160405180910390fd5b600b8181548110610b44575f80fd5b6003546001600160a01b03163314610e4e5760405163ea8e4eb560e01b815260040160405180910390fd5b6001600160a01b0382161580610e6b57506001600160a01b038116155b15610e895760405163d92e233d60e01b815260040160405180910390fd5b604051631ed3e4fb60e11b81526001600160a01b03821690633da7c9f690610eb5908590600401612731565b5f6040518083038186803b158015610ecb575f5ffd5b505afa158015610edd573d5f5f3e3d5ffd5b505050506001600160a01b038281165f8181526006602052604080822080546001600160a01b0319169486169485179055517f2f2727c7b3d9ee55de5c114f0cb7997ac7251a4cbfca4f2b2dc6969d86cce4f49190a35050565b5f606060035f9054906101000a90046001600160a01b03166001600160a01b031663edcf9c1f6040518163ffffffff1660e01b8152600401602060405180830381865afa158015610f8a573d5f5f3e3d5ffd5b505050506040513d601f19601f82011682018060405250810190610fae9190612895565b801561102e57506007546004805460408051630a58ce2d60e11b8152905161ffff909416936001600160a01b03909216926314b19c5a9282820192602092908290030181865afa158015611004573d5f5f3e3d5ffd5b505050506040513d601f19601f820116820180604052508101906110289190612951565b61ffff16115b1561108057600191507fbe9a655586dceb82dfa0af992b5d8ae7fa45053cb7fd6f141f541da7572978c75f60405160200161106a929190612972565b60405160208183030381529060405290506111c5565b60016007546301000000900460ff1660038111156110a0576110a0612703565b036110eb57600191507f7fd340b8241a93f6a116f506d6171d4f585588564d777e1192babae55184f691600760049054906101000a900460ff1660405160200161106a929190612972565b60026007546301000000900460ff16600381111561110b5761110b612703565b0361115657600191507f3f4e50448465d8594e91c1038b22f277808696956455dacacb66f00f4df0b3a2600760049054906101000a900460ff1660405160200161106a929190612972565b60036007546301000000900460ff16600381111561117657611176612703565b036111b257600191507ff8e110fcda2d74b2e1ced72f8e94b4510c922b70f786fd1064147a762fd812605f60405160200161106a929190612972565b505060408051602081019091525f808252905b9250929050565b6111d461179d565b6111dd5f612054565b565b600354604051633821dad160e21b815233916001600160a01b03169063e0876b449061120f908490600401612731565b602060405180830381865afa15801561122a573d5f5f3e3d5ffd5b505050506040513d601f19601f8201168201806040525081019061124e9190612895565b1580156112c7575060035460405163f764eb4560e01b81526001600160a01b039091169063f764eb4590611286908490600401612731565b602060405180830381865afa1580156112a1573d5f5f3e3d5ffd5b505050506040513d601f19601f820116820180604052508101906112c59190612895565b155b156112e55760405163ea8e4eb560e01b815260040160405180910390fd5b815f0361131257600554604051636b30633560e01b8152610558916001600160a01b031690600401612731565b5f816001600160a01b0316631f52692b6040518163ffffffff1660e01b8152600401602060405180830381865afa15801561134f573d5f5f3e3d5ffd5b505050506040513d601f19601f82011682018060405250810190611373919061298f565b60055460405163a9059cbb60e01b81529192505f916001600160a01b039091169063a9059cbb906113aa90859088906004016128b4565b6020604051808303815f875af11580156113c6573d5f5f3e3d5ffd5b505050506040513d601f19601f820116820180604052508101906113ea9190612895565b90508061140a576040516312171d8360e31b815260040160405180910390fd5b50505050565b61141861179d565b805f0361144557600554604051636b30633560e01b8152610558916001600160a01b031690600401612731565b60035f9054906101000a90046001600160a01b03166001600160a01b031663edcf9c1f6040518163ffffffff1660e01b8152600401602060405180830381865afa158015611495573d5f5f3e3d5ffd5b505050506040513d601f19601f820116820180604052508101906114b99190612895565b6114d6576040516312aecd8160e01b815260040160405180910390fd5b6005546040516323b872dd60e01b8152336004820152306024820152604481018390525f916001600160a01b0316906323b872dd906064016020604051808303815f875af115801561152a573d5f5f3e3d5ffd5b505050506040513d601f19601f8201168201806040525081019061154e9190612895565b90508061156e576040516312171d8360e31b815260040160405180910390fd5b600480546040516338b12abb60e21b81529182018490526001600160a01b03169063e2c4aaec906024015f604051808303815f87803b1580156115af575f5ffd5b505af11580156115c1573d5f5f3e3d5ffd5b505050505050565b6009818154811061065b575f80fd5b6115e061179d565b8060ff165f03611603576040516317dbc4cb60e21b815260040160405180910390fd5b60035f9054906101000a90046001600160a01b03166001600160a01b031663edcf9c1f6040518163ffffffff1660e01b8152600401602060405180830381865afa158015611653573d5f5f3e3d5ffd5b505050506040513d601f19601f820116820180604052508101906116779190612895565b611694576040516312aecd8160e01b815260040160405180910390fd5b6007805460ff909216620100000262ff000019909216919091179055565b5f546001600160a01b031690565b600d8181548110610b44575f80fd5b600a8181548110610b44575f80fd5b6116e661179d565b6001600160a01b03811661170f575f604051631e4fbdf760e01b81526004016105589190612731565b61171881612054565b50565b60026001540361173e57604051633ee5aeb560e01b815260040160405180910390fd5b6002600155565b6108cb83846001600160a01b031663a9059cbb858560405160240161176b9291906128b4565b604051602081830303815290604052915060e01b6020820180516001600160e01b0383818316178352505050506120a3565b336117a66116b2565b6001600160a01b0316146111dd573360405163118cdaa760e01b81526004016105589190612731565b5f60045f9054906101000a90046001600160a01b03166001600160a01b03166314b19c5a6040518163ffffffff1660e01b8152600401602060405180830381865afa158015611820573d5f5f3e3d5ffd5b505050506040513d601f19601f820116820180604052508101906118449190612951565b6007549091506118599061ffff1660016129aa565b61ffff168161ffff16101561186b5750565b6007805461ffff191661ffff831617905561188760095f6125df565b611892600a5f6125df565b61189d600c5f6125df565b6118a8600d5f6125df565b6118b3600b5f6125df565b6118be600e5f6125df565b5f600f8190556004805460408051631716e21f60e11b815290516001600160a01b0390921693632e2dc43e938281019391928290030181865afa158015611907573d5f5f3e3d5ffd5b505050506040513d5f823e601f3d908101601f1916820160405261192e9190810190612afe565b60095f600a5f600c5f600d5f600b5f600e5f8c91905090805190602001906119579291906125fa565b50508a5161196a919060208d01906125fa565b5050895161197d919060208c01906125fa565b50508851611990919060208b0190612643565b505087516119a3919060208a01906125fa565b505086516119b691906020890190612643565b50506007805463ff0000001916630100000017905550506009545f039250611718915050576007805463ff00000019166302000000179055600c545f0361171857506007805463ff00000019169055565b60016007546301000000900460ff166003811115611a2757611a27612703565b14611a455760405163baf3f0f760e01b815260040160405180910390fd5b60078054600490611a5f90600160201b900460ff16612c0e565b91906101000a81548160ff021916908360ff1602179055505f600760029054906101000a900460ff1682611a939190612c2c565b60075460ff91821692505f91611ab09162010000900416836129aa565b60095490915061ffff82161180611acc575060095461ffff8216145b15611aea57506009546007805464ffff000000191663020000001790555b815b8161ffff168161ffff16101561140a575f60098261ffff1681548110611b1457611b14612c4f565b5f918252602090912001546005546001600160a01b039182169250168103611b3c5750611b8c565b5f600a8361ffff1681548110611b5457611b54612c4f565b905f5260205f2001549050611b898282600b8661ffff1681548110611b7b57611b7b612c4f565b905f5260205f200154612106565b50505b600101611aec565b60026007546301000000900460ff166003811115611bb457611bb4612703565b14611bd25760405163baf3f0f760e01b815260040160405180910390fd5b60078054600490611bec90600160201b900460ff16612c0e565b91906101000a81548160ff021916908360ff1602179055505f600760029054906101000a900460ff1682611c209190612c2c565b60075460ff91821692505f91611c3d9162010000900416836129aa565b600c5490915061ffff82161180611c595750600c5461ffff8216145b15611c775750600c546007805464ffff000000191663030000001790555b815b8161ffff168161ffff161015611d21575f600c8261ffff1681548110611ca157611ca1612c4f565b5f918252602090912001546005546001600160a01b039182169250168103611cc95750611d19565b5f600d8361ffff1681548110611ce157611ce1612c4f565b905f5260205f2001549050611d168282600e8661ffff1681548110611d0857611d08612c4f565b905f5260205f2001546122b4565b50505b600101611c79565b50600c5461ffff8216036108cb5760048054600f546040516338b12abb60e21b8152928301526001600160a01b03169063e2c4aaec906024015f604051808303815f87803b158015611d71575f5ffd5b505af1158015611d83573d5f5f3e3d5ffd5b50505050505050565b60036007546301000000900460ff166003811115611dac57611dac612703565b14611dca5760405163baf3f0f760e01b815260040160405180910390fd5b6007805463ff00000019169055600354604051631da09e4360e31b81525f916001600160a01b03169063ed04f21890611e07908490600401612c63565b5f60405180830381865afa158015611e21573d5f5f3e3d5ffd5b505050506040513d5f823e601f3d908101601f19168201604052611e489190810190612c77565b90505f5b81518161ffff16101561051f575f828261ffff1681518110611e7057611e70612c4f565b6020908102919091010151600480546040516309958e4960e11b81529293505f926001600160a01b039091169163132b1c9291611eaf91869101612731565b602060405180830381865afa158015611eca573d5f5f3e3d5ffd5b505050506040513d601f19601f82011682018060405250810190611eee91906128cd565b6004805460405163e2638ff160e01b81529293505f926001600160a01b039091169163e2638ff191611f2291879101612731565b602060405180830381865afa158015611f3d573d5f5f3e3d5ffd5b505050506040513d601f19601f82011682018060405250810190611f6191906128cd565b9050611f6e838383612456565b60035460405163d11f1c3560e01b81526001600160a01b039091169063d11f1c3590611f9e908690600401612731565b602060405180830381865afa158015611fb9573d5f5f3e3d5ffd5b505050506040513d601f19601f82011682018060405250810190611fdd9190612895565b156120405760035460405163e8ffccb760e01b81526001600160a01b039091169063e8ffccb790612012908690600401612731565b5f604051808303815f87803b158015612029575f5ffd5b505af115801561203b573d5f5f3e3d5ffd5b505050505b5050508061204d90612cb0565b9050611e4c565b5f80546001600160a01b038381166001600160a01b0319831681178455604051919092169283917f8be0079c531659141344cd1fd0a4f28419497f9722a3daafe3b4186f6b6457e09190a35050565b5f5f60205f8451602086015f885af1806120c2576040513d5f823e3d81fd5b50505f513d915081156120d95780600114156120e6565b6001600160a01b0384163b155b1561140a5783604051635274afe760e01b81526004016105589190612731565b6001600160a01b038084165f90815260066020526040902054168061213e57604051635048c2af60e11b815260040160405180910390fd5b60405163095ea7b360e01b81526001600160a01b0385169063095ea7b39061216c9084905f906004016128b4565b6020604051808303815f875af1158015612188573d5f5f3e3d5ffd5b505050506040513d601f19601f820116820180604052508101906121ac9190612895565b5060405163095ea7b360e01b81526001600160a01b0385169063095ea7b3906121db90849087906004016128b4565b6020604051808303815f875af11580156121f7573d5f5f3e3d5ffd5b505050506040513d601f19601f8201168201806040525081019061221b9190612895565b50604051636c197ff560e01b81525f906001600160a01b03831690636c197ff59061224c90889088906004016128b4565b6020604051808303815f875af1158015612268573d5f5f3e3d5ffd5b505050506040513d601f19601f8201168201806040525081019061228c91906128cd565b90506122988382612cc7565b600f5f8282546122a89190612ce6565b90915550505050505050565b6001600160a01b038084165f9081526006602052604090205416806122ec57604051635048c2af60e11b815260040160405180910390fd5b60055460405163095ea7b360e01b81526001600160a01b039091169063095ea7b39061231e9084905f906004016128b4565b6020604051808303815f875af115801561233a573d5f5f3e3d5ffd5b505050506040513d601f19601f8201168201806040525081019061235e9190612895565b506005546001600160a01b031663095ea7b38261237c856002612d0d565b6040518363ffffffff1660e01b81526004016123999291906128b4565b6020604051808303815f875af11580156123b5573d5f5f3e3d5ffd5b505050506040513d601f19601f820116820180604052508101906123d99190612895565b5060405163cce7ec1360e01b81525f906001600160a01b0383169063cce7ec139061240a90889088906004016128b4565b6020604051808303815f875af1158015612426573d5f5f3e3d5ffd5b505050506040513d601f19601f8201168201806040525081019061244a91906128cd565b90506122988184612cc7565b5f8390505f816001600160a01b031663f64c6f326040518163ffffffff1660e01b8152600401602060405180830381865afa158015612497573d5f5f3e3d5ffd5b505050506040513d601f19601f820116820180604052508101906124bb91906128cd565b90505f826001600160a01b0316630a605c6d6040518163ffffffff1660e01b8152600401602060405180830381865afa1580156124fa573d5f5f3e3d5ffd5b505050506040513d601f19601f8201168201806040525081019061251e91906128cd565b9050811561257c5760405163e5e9719360e01b8152600481018690526001600160a01b0384169063e5e97193906024015f604051808303815f87803b158015612565575f5ffd5b505af1158015612577573d5f5f3e3d5ffd5b505050505b80156115c15760405163493a6e2160e01b8152600481018590526001600160a01b0384169063493a6e21906024015f604051808303815f87803b1580156125c1575f5ffd5b505af11580156125d3573d5f5f3e3d5ffd5b50505050505050505050565b5080545f8255905f5260205f20908101906117189190612696565b828054828255905f5260205f20908101928215612633579160200282015b82811115612633578251825591602001919060010190612618565b5061263f929150612696565b5090565b828054828255905f5260205f20908101928215612633579160200282015b8281111561263357825182546001600160a01b0319166001600160a01b03909116178255602090920191600190910190612661565b5b8082111561263f575f8155600101612697565b6001600160a01b0381168114611718575f5ffd5b5f5f604083850312156126cf575f5ffd5b8235915060208301356126e1816126aa565b809150509250929050565b5f602082840312156126fc575f5ffd5b5035919050565b634e487b7160e01b5f52602160045260245ffd5b602081016004831061272b5761272b612703565b91905290565b6001600160a01b0391909116815260200190565b5f60208284031215612755575f5ffd5b8135612760816126aa565b9392505050565b5f5f60208385031215612778575f5ffd5b82356001600160401b0381111561278d575f5ffd5b8301601f8101851361279d575f5ffd5b80356001600160401b038111156127b2575f5ffd5b8560208284010111156127c3575f5ffd5b6020919091019590945092505050565b5f5f604083850312156127e4575f5ffd5b82356127ef816126aa565b946020939093013593505050565b5f5f6040838503121561280e575f5ffd5b8235612819816126aa565b915060208301356126e1816126aa565b8215158152604060208201525f82518060408401528060208501606085015e5f606082850101526060601f19601f8301168401019150509392505050565b803560ff81168114612877575f5ffd5b919050565b5f6020828403121561288c575f5ffd5b61276082612867565b5f602082840312156128a5575f5ffd5b81518015158114612760575f5ffd5b6001600160a01b03929092168252602082015260400190565b5f602082840312156128dd575f5ffd5b5051919050565b634e487b7160e01b5f52601160045260245ffd5b5f600160ff1b820161290c5761290c6128e4565b505f0390565b5f5f60408385031215612923575f5ffd5b82356001600160e01b03198116811461293a575f5ffd5b915061294860208401612867565b90509250929050565b5f60208284031215612961575f5ffd5b815161ffff81168114612760575f5ffd5b6001600160e01b031992909216825260ff16602082015260400190565b5f6020828403121561299f575f5ffd5b8151612760816126aa565b61ffff81811683821601908111156129c4576129c46128e4565b92915050565b634e487b7160e01b5f52604160045260245ffd5b604051601f8201601f191681016001600160401b0381118282101715612a0657612a066129ca565b604052919050565b5f6001600160401b03821115612a2657612a266129ca565b5060051b60200190565b5f82601f830112612a3f575f5ffd5b8151612a52612a4d82612a0e565b6129de565b8082825260208201915060208360051b860101925085831115612a73575f5ffd5b602085015b83811015612a99578051612a8b816126aa565b835260209283019201612a78565b5095945050505050565b5f82601f830112612ab2575f5ffd5b8151612ac0612a4d82612a0e565b8082825260208201915060208360051b860101925085831115612ae1575f5ffd5b602085015b83811015612a99578051835260209283019201612ae6565b5f5f5f5f5f5f60c08789031215612b13575f5ffd5b86516001600160401b03811115612b28575f5ffd5b612b3489828a01612a30565b602089015190975090506001600160401b03811115612b51575f5ffd5b612b5d89828a01612aa3565b604089015190965090506001600160401b03811115612b7a575f5ffd5b612b8689828a01612a30565b606089015190955090506001600160401b03811115612ba3575f5ffd5b612baf89828a01612aa3565b608089015190945090506001600160401b03811115612bcc575f5ffd5b612bd889828a01612aa3565b60a089015190935090506001600160401b03811115612bf5575f5ffd5b612c0189828a01612aa3565b9150509295509295509295565b5f60ff821660ff8103612c2357612c236128e4565b60010192915050565b60ff8181168382160290811690818114612c4857612c486128e4565b5092915050565b634e487b7160e01b5f52603260045260245ffd5b602081016002831061272b5761272b612703565b5f60208284031215612c87575f5ffd5b81516001600160401b03811115612c9c575f5ffd5b612ca884828501612a30565b949350505050565b5f61ffff821661ffff8103612c2357612c236128e4565b8181035f831280158383131683831282161715612c4857612c486128e4565b8082018281125f831280158216821582161715612d0557612d056128e4565b505092915050565b80820281158282048414176129c4576129c46128e456fea2646970667358221220ebf22f0300fb6ed57ecbd053f9e6936d543684a5a5ab73d79a845a785d8651eb64736f6c634300081c0033",
  "linkReferences": {},
  "deployedLinkReferences": {}
}