{
  "_format": "hh-sol-artifact-1",
  "contractName": "LiquidityOrchestrator",
  "sourceName": "contracts/orchestrators/LiquidityOrchestrator.sol",
  "abi": [
    {
      "inputs": [
        {
          "internalType": "address",
          "name": "initialOwner",
          "type": "address"
        },
        {
          "internalType": "address",
          "name": "config_",
          "type": "address"
        },
        {
          "internalType": "address",
          "name": "automationRegistry_",
          "type": "address"
        }
      ],
      "stateMutability": "nonpayable",
      "type": "constructor"
    },
    {
      "inputs": [],
      "name": "AdapterNotSet",
      "type": "error"
    },
    {
      "inputs": [],
      "name": "InvalidArguments",
      "type": "error"
    },
    {
      "inputs": [],
      "name": "NotAuthorized",
      "type": "error"
    },
    {
      "inputs": [
        {
          "internalType": "address",
          "name": "owner",
          "type": "address"
        }
      ],
      "name": "OwnableInvalidOwner",
      "type": "error"
    },
    {
      "inputs": [
        {
          "internalType": "address",
          "name": "account",
          "type": "address"
        }
      ],
      "name": "OwnableUnauthorizedAccount",
      "type": "error"
    },
    {
      "inputs": [],
      "name": "SystemNotIdle",
      "type": "error"
    },
    {
      "inputs": [],
      "name": "TransferFailed",
      "type": "error"
    },
    {
      "inputs": [],
      "name": "ZeroAddress",
      "type": "error"
    },
    {
      "anonymous": false,
      "inputs": [
        {
          "indexed": true,
          "internalType": "address",
          "name": "newAutomationRegistry",
          "type": "address"
        }
      ],
      "name": "AutomationRegistryUpdated",
      "type": "event"
    },
    {
      "anonymous": false,
      "inputs": [
        {
          "indexed": true,
          "internalType": "address",
          "name": "asset",
          "type": "address"
        },
        {
          "indexed": true,
          "internalType": "address",
          "name": "adapter",
          "type": "address"
        }
      ],
      "name": "ExecutionAdapterSet",
      "type": "event"
    },
    {
      "anonymous": false,
      "inputs": [
        {
          "indexed": true,
          "internalType": "address",
          "name": "previousOwner",
          "type": "address"
        },
        {
          "indexed": true,
          "internalType": "address",
          "name": "newOwner",
          "type": "address"
        }
      ],
      "name": "OwnershipTransferred",
      "type": "event"
    },
    {
      "anonymous": false,
      "inputs": [],
      "name": "PortfolioRebalanced",
      "type": "event"
    },
    {
      "inputs": [],
      "name": "automationRegistry",
      "outputs": [
        {
          "internalType": "address",
          "name": "",
          "type": "address"
        }
      ],
      "stateMutability": "view",
      "type": "function"
    },
    {
      "inputs": [
        {
          "internalType": "bytes",
          "name": "",
          "type": "bytes"
        }
      ],
      "name": "checkUpkeep",
      "outputs": [
        {
          "internalType": "bool",
          "name": "upkeepNeeded",
          "type": "bool"
        },
        {
          "internalType": "bytes",
          "name": "performData",
          "type": "bytes"
        }
      ],
      "stateMutability": "view",
      "type": "function"
    },
    {
      "inputs": [],
      "name": "config",
      "outputs": [
        {
          "internalType": "contract IOrionConfig",
          "name": "",
          "type": "address"
        }
      ],
      "stateMutability": "view",
      "type": "function"
    },
    {
      "inputs": [],
      "name": "currentPhase",
      "outputs": [
        {
          "internalType": "enum ILiquidityOrchestrator.LiquidityUpkeepPhase",
          "name": "",
          "type": "uint8"
        }
      ],
      "stateMutability": "view",
      "type": "function"
    },
    {
      "inputs": [
        {
          "internalType": "address",
          "name": "",
          "type": "address"
        }
      ],
      "name": "executionAdapterOf",
      "outputs": [
        {
          "internalType": "contract IExecutionAdapter",
          "name": "",
          "type": "address"
        }
      ],
      "stateMutability": "view",
      "type": "function"
    },
    {
      "inputs": [],
      "name": "executionMinibatchSize",
      "outputs": [
        {
          "internalType": "uint8",
          "name": "",
          "type": "uint8"
        }
      ],
      "stateMutability": "view",
      "type": "function"
    },
    {
      "inputs": [],
      "name": "internalStatesOrchestrator",
      "outputs": [
        {
          "internalType": "contract IInternalStateOrchestrator",
          "name": "",
          "type": "address"
        }
      ],
      "stateMutability": "view",
      "type": "function"
    },
    {
      "inputs": [],
      "name": "lastProcessedEpoch",
      "outputs": [
        {
          "internalType": "uint16",
          "name": "",
          "type": "uint16"
        }
      ],
      "stateMutability": "view",
      "type": "function"
    },
    {
      "inputs": [],
      "name": "owner",
      "outputs": [
        {
          "internalType": "address",
          "name": "",
          "type": "address"
        }
      ],
      "stateMutability": "view",
      "type": "function"
    },
    {
      "inputs": [
        {
          "internalType": "bytes",
          "name": "",
          "type": "bytes"
        }
      ],
      "name": "performUpkeep",
      "outputs": [],
      "stateMutability": "nonpayable",
      "type": "function"
    },
    {
      "inputs": [],
      "name": "renounceOwnership",
      "outputs": [],
      "stateMutability": "nonpayable",
      "type": "function"
    },
    {
      "inputs": [
        {
          "internalType": "address",
          "name": "user",
          "type": "address"
        },
        {
          "internalType": "uint256",
          "name": "amount",
          "type": "uint256"
        }
      ],
      "name": "returnDepositFunds",
      "outputs": [],
      "stateMutability": "nonpayable",
      "type": "function"
    },
    {
      "inputs": [
        {
          "internalType": "address",
          "name": "user",
          "type": "address"
        },
        {
          "internalType": "uint256",
          "name": "shares",
          "type": "uint256"
        }
      ],
      "name": "returnWithdrawShares",
      "outputs": [],
      "stateMutability": "nonpayable",
      "type": "function"
    },
    {
      "inputs": [
        {
          "internalType": "address",
          "name": "asset",
          "type": "address"
        },
        {
          "internalType": "contract IExecutionAdapter",
          "name": "adapter",
          "type": "address"
        }
      ],
      "name": "setExecutionAdapter",
      "outputs": [],
      "stateMutability": "nonpayable",
      "type": "function"
    },
    {
      "inputs": [
        {
          "internalType": "address",
          "name": "newOwner",
          "type": "address"
        }
      ],
      "name": "transferOwnership",
      "outputs": [],
      "stateMutability": "nonpayable",
      "type": "function"
    },
    {
      "inputs": [],
      "name": "underlyingAsset",
      "outputs": [
        {
          "internalType": "address",
          "name": "",
          "type": "address"
        }
      ],
      "stateMutability": "view",
      "type": "function"
    },
    {
      "inputs": [
        {
          "internalType": "address",
          "name": "asset",
          "type": "address"
        }
      ],
      "name": "unsetExecutionAdapter",
      "outputs": [],
      "stateMutability": "nonpayable",
      "type": "function"
    },
    {
      "inputs": [
        {
          "internalType": "address",
          "name": "newAutomationRegistry",
          "type": "address"
        }
      ],
      "name": "updateAutomationRegistry",
      "outputs": [],
      "stateMutability": "nonpayable",
      "type": "function"
    },
    {
      "inputs": [
        {
          "internalType": "uint8",
          "name": "_executionMinibatchSize",
          "type": "uint8"
        }
      ],
      "name": "updateExecutionMinibatchSize",
      "outputs": [],
      "stateMutability": "nonpayable",
      "type": "function"
    },
    {
      "inputs": [],
      "name": "updateFromConfig",
      "outputs": [],
      "stateMutability": "nonpayable",
      "type": "function"
    }
  ],
  "bytecode": "0x608060405234801561000f575f5ffd5b506040516119cc3803806119cc83398101604081905261002e9161025f565b826001600160a01b03811661005c57604051631e4fbdf760e01b81525f600482015260240160405180910390fd5b610065816101f9565b506001600160a01b03821661008d5760405163d92e233d60e01b815260040160405180910390fd5b6001600160a01b0381166100b45760405163d92e233d60e01b815260040160405180910390fd5b600280546001600160a01b0319166001600160a01b03841690811790915560408051630691d8b960e31b8152905163348ec5c8916004808201926020929091908290030181865afa15801561010b573d5f5f3e3d5ffd5b505050506040513d601f19601f8201168201806040525081019061012f91906102a9565b600380546001600160a01b0319166001600160a01b0392831617905560025460408051631c56369f60e21b815290519190921691637158da7c9160048083019260209291908290030181865afa15801561018b573d5f5f3e3d5ffd5b505050506040513d601f19601f820116820180604052508101906101af91906102a9565b600480546001600160a01b03199081166001600160a01b0393841617909155600180549091169290911691909117905550506006805463ffffffff191663010000001790556102cb565b5f80546001600160a01b038381166001600160a01b0319831681178455604051919092169283917f8be0079c531659141344cd1fd0a4f28419497f9722a3daafe3b4186f6b6457e09190a35050565b6001600160a01b038116811461025c575f5ffd5b50565b5f5f5f60608486031215610271575f5ffd5b835161027c81610248565b602085015190935061028d81610248565b604085015190925061029e81610248565b809150509250925092565b5f602082840312156102b9575f5ffd5b81516102c481610248565b9392505050565b6116f4806102d85f395ff3fe608060405234801561000f575f5ffd5b50600436106100fa575f3560e01c8063055ad42e146100fe57806314b5d07f14610127578063288157e91461013c578063348ec5c8146101445780634585e33b1461016457806351edffb11461017757806357be01c11461018a57806359017aa9146101b05780635dc228a0146101c35780636e04ff0d146101d6578063715018a6146101f75780637158da7c146101ff57806379502c5514610212578063841181ef146102255780638a0b0d38146102385780638da5cb5b1461024b578063be186b2014610253578063d3f3506d14610266578063ee6713df1461028e578063f2fde38b146102af575b5f5ffd5b6006546101119062010000900460ff1681565b60405161011e9190611277565b60405180910390f35b61013a6101353660046112a5565b6102c2565b005b61013a6103cb565b600354610157906001600160a01b031681565b60405161011e91906112c7565b61013a6101723660046112db565b61057a565b61013a610185366004611347565b61099c565b60065461019e906301000000900460ff1681565b60405160ff909116815260200161011e565b61013a6101be366004611371565b610ac0565b600154610157906001600160a01b031681565b6101e96101e43660046112db565b610b69565b60405161011e9291906113a8565b61013a610cd1565b600454610157906001600160a01b031681565b600254610157906001600160a01b031681565b61013a6102333660046112a5565b610ce4565b61013a6102463660046113e6565b610d75565b610157610e51565b61013a610261366004611347565b610e5f565b6101576102743660046112a5565b60056020525f90815260409020546001600160a01b031681565b60065461029c9061ffff1681565b60405161ffff909116815260200161011e565b61013a6102bd3660046112a5565b610f7a565b6102ca610fc0565b6001600160a01b0381166102f15760405163d92e233d60e01b815260040160405180910390fd5b60025f9054906101000a90046001600160a01b03166001600160a01b031663edcf9c1f6040518163ffffffff1660e01b8152600401602060405180830381865afa158015610341573d5f5f3e3d5ffd5b505050506040513d601f19601f820116820180604052508101906103659190611406565b610382576040516312aecd8160e01b815260040160405180910390fd5b600180546001600160a01b0319166001600160a01b0383169081179091556040517f6cc7ebdb6c8c53291c5ae16148cab9b049d23bf5bde5632900b40edff56fcb43905f90a250565b6103d3610fc0565b60025f9054906101000a90046001600160a01b03166001600160a01b031663edcf9c1f6040518163ffffffff1660e01b8152600401602060405180830381865afa158015610423573d5f5f3e3d5ffd5b505050506040513d601f19601f820116820180604052508101906104479190611406565b610464576040516312aecd8160e01b815260040160405180910390fd5b60025f9054906101000a90046001600160a01b03166001600160a01b031663348ec5c86040518163ffffffff1660e01b8152600401602060405180830381865afa1580156104b4573d5f5f3e3d5ffd5b505050506040513d601f19601f820116820180604052508101906104d89190611425565b600380546001600160a01b0319166001600160a01b0392831617905560025460408051631c56369f60e21b815290519190921691637158da7c9160048083019260209291908290030181865afa158015610534573d5f5f3e3d5ffd5b505050506040513d601f19601f820116820180604052508101906105589190611425565b600480546001600160a01b0319166001600160a01b0392909216919091179055565b6001546001600160a01b031633146105a55760405163ea8e4eb560e01b815260040160405180910390fd5b60035460408051630a58ce2d60e11b815290515f926001600160a01b0316916314b19c5a9160048083019260209291908290030181865afa1580156105ec573d5f5f3e3d5ffd5b505050506040513d601f19601f820116820180604052508101906106109190611440565b60065490915061ffff9081169082161161062957505050565b6006805461ffff191661ffff8316179055600354604080516318596bb160e31b815290515f9283926001600160a01b039091169163c2cb5d889160048082019286929091908290030181865afa158015610685573d5f5f3e3d5ffd5b505050506040513d5f823e601f3d908101601f191682016040526106ac919081019061153a565b90925090505f5b82518161ffff161015610721575f838261ffff16815181106106d7576106d76115f8565b602002602001015190505f838361ffff16815181106106f8576106f86115f8565b6020026020010151905061070c8282610ff2565b505080806107199061160c565b9150506106b3565b505f5f60035f9054906101000a90046001600160a01b03166001600160a01b031663a08b82d76040518163ffffffff1660e01b81526004015f60405180830381865afa158015610773573d5f5f3e3d5ffd5b505050506040513d5f823e601f3d908101601f1916820160405261079a919081019061153a565b90925090505f5b82518161ffff16101561080f575f838261ffff16815181106107c5576107c56115f8565b602002602001015190505f838361ffff16815181106107e6576107e66115f8565b602002602001015190506107fa828261111b565b505080806108079061160c565b9150506107a1565b50600254604051631da09e4360e31b81525f916001600160a01b03169063ed04f21890610840908490600401611638565b5f60405180830381865afa15801561085a573d5f5f3e3d5ffd5b505050506040513d5f823e601f3d908101601f19168201604052610881919081019061164c565b80519091505f5b8161ffff168161ffff1610156108ba575f838261ffff16815181106108af576108af6115f8565b505050600101610888565b50600254604051631da09e4360e31b81525f916001600160a01b03169063ed04f218906108ec90600190600401611638565b5f60405180830381865afa158015610906573d5f5f3e3d5ffd5b505050506040513d5f823e601f3d908101601f1916820160405261092d919081019061164c565b8051925090505f5b8261ffff168161ffff161015610967575f828261ffff168151811061095c5761095c6115f8565b505050600101610935565b506040517ff0094b59b7bc92e9fc611b14b5d3a34fe02530ac9bcf36c2c6f10147c3030c12905f90a150505050505050505050565b600254604051633821dad160e21b81526001600160a01b039091169063e0876b44906109cc9033906004016112c7565b602060405180830381865afa1580156109e7573d5f5f3e3d5ffd5b505050506040513d601f19601f82011682018060405250810190610a0b9190611406565b610a285760405163ea8e4eb560e01b815260040160405180910390fd5b6004805460405163a9059cbb60e01b81525f926001600160a01b039092169163a9059cbb91610a5b918791879101611685565b6020604051808303815f875af1158015610a77573d5f5f3e3d5ffd5b505050506040513d601f19601f82011682018060405250810190610a9b9190611406565b905080610abb576040516312171d8360e31b815260040160405180910390fd5b505050565b6002546001600160a01b03163314610aeb5760405163ea8e4eb560e01b815260040160405180910390fd5b6001600160a01b0382161580610b0857506001600160a01b038116155b15610b265760405163d92e233d60e01b815260040160405180910390fd5b6001600160a01b038281165f8181526005602052604080822080546001600160a01b0319169486169485179055515f51602061169f5f395f51905f529190a35050565b5f60605f60035f9054906101000a90046001600160a01b03166001600160a01b03166314b19c5a6040518163ffffffff1660e01b8152600401602060405180830381865afa158015610bbd573d5f5f3e3d5ffd5b505050506040513d601f19601f82011682018060405250810190610be19190611440565b60065490915061ffff908116908216118015610c6c575060025f9054906101000a90046001600160a01b03166001600160a01b031663edcf9c1f6040518163ffffffff1660e01b8152600401602060405180830381865afa158015610c48573d5f5f3e3d5ffd5b505050506040513d601f19601f82011682018060405250810190610c6c9190611406565b15610cb45760019250604051602001610c9e906020808252600590820152641cdd185c9d60da1b604082015260600190565b6040516020818303038152906040529150610cc9565b5f925060405180602001604052805f81525091505b509250929050565b610cd9610fc0565b610ce25f611214565b565b6002546001600160a01b03163314610d0f5760405163ea8e4eb560e01b815260040160405180910390fd5b6001600160a01b038116610d365760405163d92e233d60e01b815260040160405180910390fd5b6001600160a01b0381165f8181526005602052604080822080546001600160a01b0319169055519091905f51602061169f5f395f51905f52908390a350565b610d7d610fc0565b8060ff165f03610da0576040516317dbc4cb60e21b815260040160405180910390fd5b60025f9054906101000a90046001600160a01b03166001600160a01b031663edcf9c1f6040518163ffffffff1660e01b8152600401602060405180830381865afa158015610df0573d5f5f3e3d5ffd5b505050506040513d601f19601f82011682018060405250810190610e149190611406565b610e31576040516312aecd8160e01b815260040160405180910390fd5b6006805460ff90921663010000000263ff00000019909216919091179055565b5f546001600160a01b031690565b600254604051633821dad160e21b81526001600160a01b039091169063e0876b4490610e8f9033906004016112c7565b602060405180830381865afa158015610eaa573d5f5f3e3d5ffd5b505050506040513d601f19601f82011682018060405250810190610ece9190611406565b610eeb5760405163ea8e4eb560e01b815260040160405180910390fd5b60405163a9059cbb60e01b815233905f90829063a9059cbb90610f149087908790600401611685565b6020604051808303815f875af1158015610f30573d5f5f3e3d5ffd5b505050506040513d601f19601f82011682018060405250810190610f549190611406565b905080610f74576040516312171d8360e31b815260040160405180910390fd5b50505050565b610f82610fc0565b6001600160a01b038116610fb4575f604051631e4fbdf760e01b8152600401610fab91906112c7565b60405180910390fd5b610fbd81611214565b50565b33610fc9610e51565b6001600160a01b031614610ce2573360405163118cdaa760e01b8152600401610fab91906112c7565b6001600160a01b038083165f90815260056020526040902054168061102a57604051635048c2af60e11b815260040160405180910390fd5b60405163095ea7b360e01b81525f906001600160a01b0385169063095ea7b39061105a9085908790600401611685565b6020604051808303815f875af1158015611076573d5f5f3e3d5ffd5b505050506040513d601f19601f8201168201806040525081019061109a9190611406565b9050806110ba576040516312171d8360e31b815260040160405180910390fd5b604051636c197ff560e01b81526001600160a01b03831690636c197ff5906110e89087908790600401611685565b5f604051808303815f87803b1580156110ff575f5ffd5b505af1158015611111573d5f5f3e3d5ffd5b5050505050505050565b6001600160a01b038083165f90815260056020526040902054168061115357604051635048c2af60e11b815260040160405180910390fd5b6004805460405163095ea7b360e01b81525f926001600160a01b039092169163095ea7b391611186918691889101611685565b6020604051808303815f875af11580156111a2573d5f5f3e3d5ffd5b505050506040513d601f19601f820116820180604052508101906111c69190611406565b9050806111e6576040516312171d8360e31b815260040160405180910390fd5b60405163cce7ec1360e01b81526001600160a01b0383169063cce7ec13906110e89087908790600401611685565b5f80546001600160a01b038381166001600160a01b0319831681178455604051919092169283917f8be0079c531659141344cd1fd0a4f28419497f9722a3daafe3b4186f6b6457e09190a35050565b634e487b7160e01b5f52602160045260245ffd5b602081016004831061128b5761128b611263565b91905290565b6001600160a01b0381168114610fbd575f5ffd5b5f602082840312156112b5575f5ffd5b81356112c081611291565b9392505050565b6001600160a01b0391909116815260200190565b5f5f602083850312156112ec575f5ffd5b82356001600160401b03811115611301575f5ffd5b8301601f81018513611311575f5ffd5b80356001600160401b03811115611326575f5ffd5b856020828401011115611337575f5ffd5b6020919091019590945092505050565b5f5f60408385031215611358575f5ffd5b823561136381611291565b946020939093013593505050565b5f5f60408385031215611382575f5ffd5b823561138d81611291565b9150602083013561139d81611291565b809150509250929050565b8215158152604060208201525f82518060408401528060208501606085015e5f606082850101526060601f19601f8301168401019150509392505050565b5f602082840312156113f6575f5ffd5b813560ff811681146112c0575f5ffd5b5f60208284031215611416575f5ffd5b815180151581146112c0575f5ffd5b5f60208284031215611435575f5ffd5b81516112c081611291565b5f60208284031215611450575f5ffd5b815161ffff811681146112c0575f5ffd5b634e487b7160e01b5f52604160045260245ffd5b604051601f8201601f191681016001600160401b038111828210171561149d5761149d611461565b604052919050565b5f6001600160401b038211156114bd576114bd611461565b5060051b60200190565b5f82601f8301126114d6575f5ffd5b81516114e96114e4826114a5565b611475565b8082825260208201915060208360051b86010192508583111561150a575f5ffd5b602085015b8381101561153057805161152281611291565b83526020928301920161150f565b5095945050505050565b5f5f6040838503121561154b575f5ffd5b82516001600160401b03811115611560575f5ffd5b61156c858286016114c7565b602085015190935090506001600160401b03811115611589575f5ffd5b8301601f81018513611599575f5ffd5b80516115a76114e4826114a5565b8082825260208201915060208360051b8501019250878311156115c8575f5ffd5b6020840193505b828410156115ea5783518252602093840193909101906115cf565b809450505050509250929050565b634e487b7160e01b5f52603260045260245ffd5b5f61ffff821661ffff810361162f57634e487b7160e01b5f52601160045260245ffd5b60010192915050565b602081016002831061128b5761128b611263565b5f6020828403121561165c575f5ffd5b81516001600160401b03811115611671575f5ffd5b61167d848285016114c7565b949350505050565b6001600160a01b0392909216825260208201526040019056fe2f2727c7b3d9ee55de5c114f0cb7997ac7251a4cbfca4f2b2dc6969d86cce4f4a264697066735822122034dfe0e4fc043bd96503d8384888f56bf0962117df1f042ed48a08e68be4287364736f6c634300081c0033",
  "linkReferences": {},
  "deployedLinkReferences": {}
}