{
  "_format": "hh-sol-artifact-1",
  "contractName": "LiquidityOrchestrator",
  "sourceName": "contracts/orchestrators/LiquidityOrchestrator.sol",
  "abi": [
    {
      "inputs": [
        {
          "internalType": "address",
          "name": "initialOwner",
          "type": "address"
        },
        {
          "internalType": "address",
          "name": "config_",
          "type": "address"
        },
        {
          "internalType": "address",
          "name": "automationRegistry_",
          "type": "address"
        }
      ],
      "stateMutability": "nonpayable",
      "type": "constructor"
    },
    {
      "inputs": [],
      "name": "AdapterNotSet",
      "type": "error"
    },
    {
      "inputs": [],
      "name": "AlreadyRegistered",
      "type": "error"
    },
    {
      "inputs": [
        {
          "internalType": "address",
          "name": "asset",
          "type": "address"
        }
      ],
      "name": "AmountMustBeGreaterThanZero",
      "type": "error"
    },
    {
      "inputs": [],
      "name": "InvalidArguments",
      "type": "error"
    },
    {
      "inputs": [],
      "name": "InvalidState",
      "type": "error"
    },
    {
      "inputs": [],
      "name": "NotAuthorized",
      "type": "error"
    },
    {
      "inputs": [
        {
          "internalType": "address",
          "name": "owner",
          "type": "address"
        }
      ],
      "name": "OwnableInvalidOwner",
      "type": "error"
    },
    {
      "inputs": [
        {
          "internalType": "address",
          "name": "account",
          "type": "address"
        }
      ],
      "name": "OwnableUnauthorizedAccount",
      "type": "error"
    },
    {
      "inputs": [],
      "name": "ReentrancyGuardReentrantCall",
      "type": "error"
    },
    {
      "inputs": [],
      "name": "SystemNotIdle",
      "type": "error"
    },
    {
      "inputs": [],
      "name": "TransferFailed",
      "type": "error"
    },
    {
      "inputs": [],
      "name": "ZeroAddress",
      "type": "error"
    },
    {
      "anonymous": false,
      "inputs": [
        {
          "indexed": true,
          "internalType": "address",
          "name": "newAutomationRegistry",
          "type": "address"
        }
      ],
      "name": "AutomationRegistryUpdated",
      "type": "event"
    },
    {
      "anonymous": false,
      "inputs": [
        {
          "indexed": true,
          "internalType": "address",
          "name": "asset",
          "type": "address"
        },
        {
          "indexed": true,
          "internalType": "address",
          "name": "adapter",
          "type": "address"
        }
      ],
      "name": "ExecutionAdapterSet",
      "type": "event"
    },
    {
      "anonymous": false,
      "inputs": [
        {
          "indexed": true,
          "internalType": "address",
          "name": "previousOwner",
          "type": "address"
        },
        {
          "indexed": true,
          "internalType": "address",
          "name": "newOwner",
          "type": "address"
        }
      ],
      "name": "OwnershipTransferred",
      "type": "event"
    },
    {
      "anonymous": false,
      "inputs": [],
      "name": "PortfolioRebalanced",
      "type": "event"
    },
    {
      "inputs": [],
      "name": "automationRegistry",
      "outputs": [
        {
          "internalType": "address",
          "name": "",
          "type": "address"
        }
      ],
      "stateMutability": "view",
      "type": "function"
    },
    {
      "inputs": [
        {
          "internalType": "uint256",
          "name": "",
          "type": "uint256"
        }
      ],
      "name": "buyingAmounts",
      "outputs": [
        {
          "internalType": "uint256",
          "name": "",
          "type": "uint256"
        }
      ],
      "stateMutability": "view",
      "type": "function"
    },
    {
      "inputs": [
        {
          "internalType": "uint256",
          "name": "",
          "type": "uint256"
        }
      ],
      "name": "buyingEstimatedUnderlyingAmounts",
      "outputs": [
        {
          "internalType": "uint256",
          "name": "",
          "type": "uint256"
        }
      ],
      "stateMutability": "view",
      "type": "function"
    },
    {
      "inputs": [
        {
          "internalType": "uint256",
          "name": "",
          "type": "uint256"
        }
      ],
      "name": "buyingTokens",
      "outputs": [
        {
          "internalType": "address",
          "name": "",
          "type": "address"
        }
      ],
      "stateMutability": "view",
      "type": "function"
    },
    {
      "inputs": [
        {
          "internalType": "bytes",
          "name": "",
          "type": "bytes"
        }
      ],
      "name": "checkUpkeep",
      "outputs": [
        {
          "internalType": "bool",
          "name": "upkeepNeeded",
          "type": "bool"
        },
        {
          "internalType": "bytes",
          "name": "performData",
          "type": "bytes"
        }
      ],
      "stateMutability": "view",
      "type": "function"
    },
    {
      "inputs": [
        {
          "internalType": "uint256",
          "name": "amount",
          "type": "uint256"
        }
      ],
      "name": "claimProtocolFees",
      "outputs": [],
      "stateMutability": "nonpayable",
      "type": "function"
    },
    {
      "inputs": [],
      "name": "config",
      "outputs": [
        {
          "internalType": "contract IOrionConfig",
          "name": "",
          "type": "address"
        }
      ],
      "stateMutability": "view",
      "type": "function"
    },
    {
      "inputs": [],
      "name": "currentMinibatchIndex",
      "outputs": [
        {
          "internalType": "uint8",
          "name": "",
          "type": "uint8"
        }
      ],
      "stateMutability": "view",
      "type": "function"
    },
    {
      "inputs": [],
      "name": "currentPhase",
      "outputs": [
        {
          "internalType": "enum ILiquidityOrchestrator.LiquidityUpkeepPhase",
          "name": "",
          "type": "uint8"
        }
      ],
      "stateMutability": "view",
      "type": "function"
    },
    {
      "inputs": [],
      "name": "deltaBufferAmount",
      "outputs": [
        {
          "internalType": "int256",
          "name": "",
          "type": "int256"
        }
      ],
      "stateMutability": "view",
      "type": "function"
    },
    {
      "inputs": [
        {
          "internalType": "address",
          "name": "",
          "type": "address"
        }
      ],
      "name": "executionAdapterOf",
      "outputs": [
        {
          "internalType": "contract IExecutionAdapter",
          "name": "",
          "type": "address"
        }
      ],
      "stateMutability": "view",
      "type": "function"
    },
    {
      "inputs": [],
      "name": "executionMinibatchSize",
      "outputs": [
        {
          "internalType": "uint8",
          "name": "",
          "type": "uint8"
        }
      ],
      "stateMutability": "view",
      "type": "function"
    },
    {
      "inputs": [],
      "name": "internalStatesOrchestrator",
      "outputs": [
        {
          "internalType": "contract IInternalStateOrchestrator",
          "name": "",
          "type": "address"
        }
      ],
      "stateMutability": "view",
      "type": "function"
    },
    {
      "inputs": [],
      "name": "lastProcessedEpoch",
      "outputs": [
        {
          "internalType": "uint16",
          "name": "",
          "type": "uint16"
        }
      ],
      "stateMutability": "view",
      "type": "function"
    },
    {
      "inputs": [],
      "name": "owner",
      "outputs": [
        {
          "internalType": "address",
          "name": "",
          "type": "address"
        }
      ],
      "stateMutability": "view",
      "type": "function"
    },
    {
      "inputs": [
        {
          "internalType": "bytes",
          "name": "performData",
          "type": "bytes"
        }
      ],
      "name": "performUpkeep",
      "outputs": [],
      "stateMutability": "nonpayable",
      "type": "function"
    },
    {
      "inputs": [],
      "name": "renounceOwnership",
      "outputs": [],
      "stateMutability": "nonpayable",
      "type": "function"
    },
    {
      "inputs": [
        {
          "internalType": "address",
          "name": "user",
          "type": "address"
        },
        {
          "internalType": "uint256",
          "name": "amount",
          "type": "uint256"
        }
      ],
      "name": "returnDepositFunds",
      "outputs": [],
      "stateMutability": "nonpayable",
      "type": "function"
    },
    {
      "inputs": [
        {
          "internalType": "uint256",
          "name": "",
          "type": "uint256"
        }
      ],
      "name": "sellingAmounts",
      "outputs": [
        {
          "internalType": "uint256",
          "name": "",
          "type": "uint256"
        }
      ],
      "stateMutability": "view",
      "type": "function"
    },
    {
      "inputs": [
        {
          "internalType": "uint256",
          "name": "",
          "type": "uint256"
        }
      ],
      "name": "sellingEstimatedUnderlyingAmounts",
      "outputs": [
        {
          "internalType": "uint256",
          "name": "",
          "type": "uint256"
        }
      ],
      "stateMutability": "view",
      "type": "function"
    },
    {
      "inputs": [
        {
          "internalType": "uint256",
          "name": "",
          "type": "uint256"
        }
      ],
      "name": "sellingTokens",
      "outputs": [
        {
          "internalType": "address",
          "name": "",
          "type": "address"
        }
      ],
      "stateMutability": "view",
      "type": "function"
    },
    {
      "inputs": [
        {
          "internalType": "address",
          "name": "asset",
          "type": "address"
        },
        {
          "internalType": "contract IExecutionAdapter",
          "name": "adapter",
          "type": "address"
        }
      ],
      "name": "setExecutionAdapter",
      "outputs": [],
      "stateMutability": "nonpayable",
      "type": "function"
    },
    {
      "inputs": [
        {
          "internalType": "address",
          "name": "_internalStatesOrchestrator",
          "type": "address"
        }
      ],
      "name": "setInternalStatesOrchestrator",
      "outputs": [],
      "stateMutability": "nonpayable",
      "type": "function"
    },
    {
      "inputs": [
        {
          "internalType": "uint256",
          "name": "_slippageBound",
          "type": "uint256"
        }
      ],
      "name": "setSlippageBound",
      "outputs": [],
      "stateMutability": "nonpayable",
      "type": "function"
    },
    {
      "inputs": [],
      "name": "slippageBound",
      "outputs": [
        {
          "internalType": "uint256",
          "name": "",
          "type": "uint256"
        }
      ],
      "stateMutability": "view",
      "type": "function"
    },
    {
      "inputs": [],
      "name": "targetBufferRatio",
      "outputs": [
        {
          "internalType": "uint256",
          "name": "",
          "type": "uint256"
        }
      ],
      "stateMutability": "view",
      "type": "function"
    },
    {
      "inputs": [
        {
          "internalType": "uint256",
          "name": "amount",
          "type": "uint256"
        }
      ],
      "name": "transferCuratorFees",
      "outputs": [],
      "stateMutability": "nonpayable",
      "type": "function"
    },
    {
      "inputs": [
        {
          "internalType": "address",
          "name": "newOwner",
          "type": "address"
        }
      ],
      "name": "transferOwnership",
      "outputs": [],
      "stateMutability": "nonpayable",
      "type": "function"
    },
    {
      "inputs": [
        {
          "internalType": "address",
          "name": "user",
          "type": "address"
        },
        {
          "internalType": "uint256",
          "name": "amount",
          "type": "uint256"
        }
      ],
      "name": "transferRedemptionFunds",
      "outputs": [],
      "stateMutability": "nonpayable",
      "type": "function"
    },
    {
      "inputs": [],
      "name": "underlyingAsset",
      "outputs": [
        {
          "internalType": "address",
          "name": "",
          "type": "address"
        }
      ],
      "stateMutability": "view",
      "type": "function"
    },
    {
      "inputs": [
        {
          "internalType": "address",
          "name": "asset",
          "type": "address"
        }
      ],
      "name": "unsetExecutionAdapter",
      "outputs": [],
      "stateMutability": "nonpayable",
      "type": "function"
    },
    {
      "inputs": [
        {
          "internalType": "address",
          "name": "newAutomationRegistry",
          "type": "address"
        }
      ],
      "name": "updateAutomationRegistry",
      "outputs": [],
      "stateMutability": "nonpayable",
      "type": "function"
    },
    {
      "inputs": [
        {
          "internalType": "uint8",
          "name": "_executionMinibatchSize",
          "type": "uint8"
        }
      ],
      "name": "updateExecutionMinibatchSize",
      "outputs": [],
      "stateMutability": "nonpayable",
      "type": "function"
    },
    {
      "inputs": [
        {
          "internalType": "uint8",
          "name": "_vaultStatesMinibatchSize",
          "type": "uint8"
        }
      ],
      "name": "updateVaultStatesMinibatchSize",
      "outputs": [],
      "stateMutability": "nonpayable",
      "type": "function"
    },
    {
      "inputs": [],
      "name": "vaultStatesMinibatchSize",
      "outputs": [
        {
          "internalType": "uint8",
          "name": "",
          "type": "uint8"
        }
      ],
      "stateMutability": "view",
      "type": "function"
    }
  ],
  "bytecode": "0x608060405234801561000f575f5ffd5b506040516127d83803806127d883398101604081905261002e916101e5565b826001600160a01b03811661005c57604051631e4fbdf760e01b81525f600482015260240160405180910390fd5b6100658161017f565b50600180556001600160a01b0382166100915760405163d92e233d60e01b815260040160405180910390fd5b6001600160a01b0381166100b85760405163d92e233d60e01b815260040160405180910390fd5b600380546001600160a01b0319166001600160a01b03841690811790915560408051631c56369f60e21b81529051637158da7c916004808201926020929091908290030181865afa15801561010f573d5f5f3e3d5ffd5b505050506040513d601f19601f82011682018060405250810190610133919061022f565b600580546001600160a01b03199081166001600160a01b0393841617909155600280549091169290911691909117905550506007805465ffffffffffff19166301010000179055610251565b5f80546001600160a01b038381166001600160a01b0319831681178455604051919092169283917f8be0079c531659141344cd1fd0a4f28419497f9722a3daafe3b4186f6b6457e09190a35050565b6001600160a01b03811681146101e2575f5ffd5b50565b5f5f5f606084860312156101f7575f5ffd5b8351610202816101ce565b6020850151909350610213816101ce565b6040850151909250610224816101ce565b809150509250925092565b5f6020828403121561023f575f5ffd5b815161024a816101ce565b9392505050565b61257a8061025e5f395ff3fe608060405234801561000f575f5ffd5b506004361061019f575f3560e01c806301c621c1146101a3578063055ad42e146101b857806309f2e19c146101e25780630a8b78c71461020257806314b5d07f146102155780632be17d3b146102285780633369921a1461023f578063348ec5c8146102485780633e765a9e1461025b5780634585e33b1461026e5780634adfc2e71461028157806351edffb11461029457806352e899fd146102a75780635488cd62146102ba57806357be01c1146102e057806359017aa9146102f35780635dc228a014610306578063633fa666146103195780636e04ff0d1461032c578063715018a61461034d5780637158da7c14610355578063741fca4b1461036857806379502c551461037b5780638157c1ab1461038e57806383487bfd146103a1578063841181ef146103b55780638a0b0d38146103c85780638da5cb5b146103db57806399cdc4b5146103e3578063bc504975146103f6578063be1b26a414610409578063d3f3506d1461041c578063dab26e3b14610444578063ee6713df1461044d578063f2fde38b1461046e575b5f5ffd5b6101b66101b1366004611f02565b610481565b005b6007546101cc90600160201b900460ff1681565b6040516101d99190611f2d565b60405180910390f35b6101f56101f0366004611f02565b6105ae565b6040516101d99190611f53565b6101b6610210366004611f7b565b6105d6565b6101b6610223366004611f7b565b610651565b61023160085481565b6040519081526020016101d9565b61023160105481565b6004546101f5906001600160a01b031681565b610231610269366004611f02565b61075a565b6101b661027c366004611f96565b610779565b6101b661028f366004612002565b61089c565b6101b66102a2366004612002565b6109ec565b6102316102b5366004611f02565b610a78565b6007546102ce90600160281b900460ff1681565b60405160ff90911681526020016101d9565b6007546102ce9062010000900460ff1681565b6101b661030136600461202c565b610a87565b6002546101f5906001600160a01b031681565b6101b6610327366004612078565b610b30565b61033f61033a366004611f96565b610c0c565b6040516101d9929190612091565b6101b6610eb0565b6005546101f5906001600160a01b031681565b6101b6610376366004611f02565b610ec3565b6003546101f5906001600160a01b031681565b6101f561039c366004611f02565b61107a565b6007546102ce906301000000900460ff1681565b6101b66103c3366004611f7b565b611089565b6101b66103d6366004612078565b61111a565b6101f56111f4565b6101b66103f1366004611f02565b611202565b610231610404366004611f02565b6112d5565b610231610417366004611f02565b6112e4565b6101f561042a366004611f7b565b60066020525f90815260409020546001600160a01b031681565b61023160095481565b60075461045b9061ffff1681565b60405161ffff90911681526020016101d9565b6101b661047c366004611f7b565b6112f3565b610489611330565b805f036104bf57600554604051636b30633560e01b81526104b6916001600160a01b031690600401611f53565b60405180910390fd5b60048054604051637060444560e01b81529182018390526001600160a01b0316906370604445906024015f604051808303815f87803b158015610500575f5ffd5b505af1158015610512573d5f5f3e3d5ffd5b505060055460405163a9059cbb60e01b81525f93506001600160a01b03909116915063a9059cbb9061054a90339086906004016120cf565b6020604051808303815f875af1158015610566573d5f5f3e3d5ffd5b505050506040513d601f19601f8201168201806040525081019061058a91906120e8565b9050806105aa576040516312171d8360e31b815260040160405180910390fd5b5050565b600d81815481106105bd575f80fd5b5f918252602090912001546001600160a01b0316905081565b6105de611330565b6001600160a01b0381166106055760405163d92e233d60e01b815260040160405180910390fd5b6004546001600160a01b03161561062f57604051630ea075bf60e21b815260040160405180910390fd5b600480546001600160a01b0319166001600160a01b0392909216919091179055565b610659611330565b6001600160a01b0381166106805760405163d92e233d60e01b815260040160405180910390fd5b60035f9054906101000a90046001600160a01b03166001600160a01b031663edcf9c1f6040518163ffffffff1660e01b8152600401602060405180830381865afa1580156106d0573d5f5f3e3d5ffd5b505050506040513d601f19601f820116820180604052508101906106f491906120e8565b610711576040516312aecd8160e01b815260040160405180910390fd5b600280546001600160a01b0319166001600160a01b0383169081179091556040517f6cc7ebdb6c8c53291c5ae16148cab9b049d23bf5bde5632900b40edff56fcb43905f90a250565b600f8181548110610769575f80fd5b5f91825260209091200154905081565b6002546001600160a01b031633146107a45760405163ea8e4eb560e01b815260040160405180910390fd5b6107ac611362565b60058110156107ce576040516317dbc4cb60e21b815260040160405180910390fd5b5f806107dc83850185612107565b90925090506341659aab60e01b6001600160e01b03198316016108065761080161138c565b610869565b63100597e960e31b6001600160e01b031983160161082757610801816115c4565b63302c6bef60e21b6001600160e01b03198316016108485761080181611751565b6324a73e6d60e01b6001600160e01b03198316016108695761086981611949565b6040517ff0094b59b7bc92e9fc611b14b5d3a34fe02530ac9bcf36c2c6f10147c3030c12905f90a150506105aa60018055565b600354604051633821dad160e21b81526001600160a01b039091169063e0876b44906108cc903390600401611f53565b602060405180830381865afa1580156108e7573d5f5f3e3d5ffd5b505050506040513d601f19601f8201168201806040525081019061090b91906120e8565b6109285760405163ea8e4eb560e01b815260040160405180910390fd5b805f0361095557600554604051636b30633560e01b81526104b6916001600160a01b031690600401611f53565b60055460405163a9059cbb60e01b81525f916001600160a01b03169063a9059cbb9061098790869086906004016120cf565b6020604051808303815f875af11580156109a3573d5f5f3e3d5ffd5b505050506040513d601f19601f820116820180604052508101906109c791906120e8565b9050806109e7576040516312171d8360e31b815260040160405180910390fd5b505050565b600354604051633821dad160e21b81526001600160a01b039091169063e0876b4490610a1c903390600401611f53565b602060405180830381865afa158015610a37573d5f5f3e3d5ffd5b505050506040513d601f19601f82011682018060405250810190610a5b91906120e8565b6109555760405163ea8e4eb560e01b815260040160405180910390fd5b600c8181548110610769575f80fd5b6003546001600160a01b03163314610ab25760405163ea8e4eb560e01b815260040160405180910390fd5b6001600160a01b0382161580610acf57506001600160a01b038116155b15610aed5760405163d92e233d60e01b815260040160405180910390fd5b6001600160a01b038281165f8181526006602052604080822080546001600160a01b0319169486169485179055515f5160206125255f395f51905f529190a35050565b610b38611330565b8060ff165f03610b5b576040516317dbc4cb60e21b815260040160405180910390fd5b60035f9054906101000a90046001600160a01b03166001600160a01b031663edcf9c1f6040518163ffffffff1660e01b8152600401602060405180830381865afa158015610bab573d5f5f3e3d5ffd5b505050506040513d601f19601f82011682018060405250810190610bcf91906120e8565b610bec576040516312aecd8160e01b815260040160405180910390fd5b6007805460ff90921663010000000263ff00000019909216919091179055565b5f606060035f9054906101000a90046001600160a01b03166001600160a01b031663edcf9c1f6040518163ffffffff1660e01b8152600401602060405180830381865afa158015610c5f573d5f5f3e3d5ffd5b505050506040513d601f19601f82011682018060405250810190610c8391906120e8565b8015610d0357506007546004805460408051630a58ce2d60e11b8152905161ffff909416936001600160a01b03909216926314b19c5a9282820192602092908290030181865afa158015610cd9573d5f5f3e3d5ffd5b505050506040513d601f19601f82011682018060405250810190610cfd9190612146565b61ffff16115b15610d5557600191507fbe9a655586dceb82dfa0af992b5d8ae7fa45053cb7fd6f141f541da7572978c75f604051602001610d3f929190612167565b6040516020818303038152906040529050610ea9565b6001600754600160201b900460ff166003811115610d7557610d75611f19565b03610dc057600191507f7fd340b8241a93f6a116f506d6171d4f585588564d777e1192babae55184f691600760059054906101000a900460ff16604051602001610d3f929190612167565b6002600754600160201b900460ff166003811115610de057610de0611f19565b03610e2b57600191507f3f4e50448465d8594e91c1038b22f277808696956455dacacb66f00f4df0b3a2600760059054906101000a900460ff16604051602001610d3f929190612167565b6003600754600160201b900460ff166003811115610e4b57610e4b611f19565b03610e9657600191507fdb58c19393c975d582d417ff34c0bb4400934bf4b0a0004c0e880f657314d79b600760059054906101000a900460ff16604051602001610d3f929190612167565b505060408051602081019091525f808252905b9250929050565b610eb8611330565b610ec15f611987565b565b600354604051633821dad160e21b815233916001600160a01b03169063e0876b4490610ef3908490600401611f53565b602060405180830381865afa158015610f0e573d5f5f3e3d5ffd5b505050506040513d601f19601f82011682018060405250810190610f3291906120e8565b610f4f5760405163ea8e4eb560e01b815260040160405180910390fd5b815f03610f7c57600554604051636b30633560e01b81526104b6916001600160a01b031690600401611f53565b5f816001600160a01b0316631f52692b6040518163ffffffff1660e01b8152600401602060405180830381865afa158015610fb9573d5f5f3e3d5ffd5b505050506040513d601f19601f82011682018060405250810190610fdd9190612184565b60055460405163a9059cbb60e01b81529192505f916001600160a01b039091169063a9059cbb9061101490859088906004016120cf565b6020604051808303815f875af1158015611030573d5f5f3e3d5ffd5b505050506040513d601f19601f8201168201806040525081019061105491906120e8565b905080611074576040516312171d8360e31b815260040160405180910390fd5b50505050565b600a81815481106105bd575f80fd5b6003546001600160a01b031633146110b45760405163ea8e4eb560e01b815260040160405180910390fd5b6001600160a01b0381166110db5760405163d92e233d60e01b815260040160405180910390fd5b6001600160a01b0381165f8181526006602052604080822080546001600160a01b0319169055519091905f5160206125255f395f51905f52908390a350565b611122611330565b8060ff165f03611145576040516317dbc4cb60e21b815260040160405180910390fd5b60035f9054906101000a90046001600160a01b03166001600160a01b031663edcf9c1f6040518163ffffffff1660e01b8152600401602060405180830381865afa158015611195573d5f5f3e3d5ffd5b505050506040513d601f19601f820116820180604052508101906111b991906120e8565b6111d6576040516312aecd8160e01b815260040160405180910390fd5b6007805460ff909216620100000262ff000019909216919091179055565b5f546001600160a01b031690565b61120a611330565b805f0361122a576040516317dbc4cb60e21b815260040160405180910390fd5b60035f9054906101000a90046001600160a01b03166001600160a01b031663edcf9c1f6040518163ffffffff1660e01b8152600401602060405180830381865afa15801561127a573d5f5f3e3d5ffd5b505050506040513d601f19601f8201168201806040525081019061129e91906120e8565b6112bb576040516312aecd8160e01b815260040160405180910390fd5b60088190556112cf8161044c6103e86119d6565b60095550565b600e8181548110610769575f80fd5b600b8181548110610769575f80fd5b6112fb611330565b6001600160a01b038116611324575f604051631e4fbdf760e01b81526004016104b69190611f53565b61132d81611987565b50565b336113396111f4565b6001600160a01b031614610ec1573360405163118cdaa760e01b81526004016104b69190611f53565b60026001540361138557604051633ee5aeb560e01b815260040160405180910390fd5b6002600155565b5f60045f9054906101000a90046001600160a01b03166001600160a01b03166314b19c5a6040518163ffffffff1660e01b8152600401602060405180830381865afa1580156113dd573d5f5f3e3d5ffd5b505050506040513d601f19601f820116820180604052508101906114019190612146565b6007549091506114169061ffff1660016121b3565b61ffff168161ffff1610156114285750565b6007805461ffff191661ffff8316179055611444600a5f611e37565b61144f600b5f611e37565b61145a600d5f611e37565b611465600e5f611e37565b611470600c5f611e37565b61147b600f5f611e37565b5f60108190556004805460408051631716e21f60e11b815290516001600160a01b0390921693632e2dc43e938281019391928290030181865afa1580156114c4573d5f5f3e3d5ffd5b505050506040513d5f823e601f3d908101601f191682016040526114eb9190810190612307565b600a5f600b5f600d5f600e5f600c5f600f5f8c9190509080519060200190611514929190611e52565b50508a51611527919060208d0190611e52565b5050895161153a919060208c0190611e52565b5050885161154d919060208b0190611e9b565b50508751611560919060208a0190611e52565b5050865161157391906020890190611e9b565b50506007805460ff60201b1916600160201b1790555050600a545f03925061132d915050576007805460ff60201b1916600160211b179055600d545f0361132d57506007805460ff60201b19169055565b6001600754600160201b900460ff1660038111156115e4576115e4611f19565b146116025760405163baf3f0f760e01b815260040160405180910390fd5b6007805460059061161c90600160281b900460ff16612417565b91906101000a81548160ff021916908360ff1602179055505f600760029054906101000a900460ff16826116509190612435565b60075460ff91821692505f9161166d9162010000900416836121b3565b600a5490915061ffff821611806116895750600a5461ffff8216145b156116a75750600a546007805461ffff60201b1916600160211b1790555b815b8161ffff168161ffff161015611074575f600a8261ffff16815481106116d1576116d1612458565b5f918252602090912001546005546001600160a01b0391821692501681036116f95750611749565b5f600b8361ffff168154811061171157611711612458565b905f5260205f20015490506117468282600c8661ffff168154811061173857611738612458565b905f5260205f200154611a87565b50505b6001016116a9565b6002600754600160201b900460ff16600381111561177157611771611f19565b1461178f5760405163baf3f0f760e01b815260040160405180910390fd5b600780546005906117a990600160281b900460ff16612417565b91906101000a81548160ff021916908360ff1602179055505f600760029054906101000a900460ff16826117dd9190612435565b60075460ff91821692505f916117fa9162010000900416836121b3565b600d5490915061ffff821611806118165750600d5461ffff8216145b156118345750600d546007805461ffff60201b1916600360201b1790555b815b8161ffff168161ffff1610156118de575f600d8261ffff168154811061185e5761185e612458565b5f918252602090912001546005546001600160a01b03918216925016810361188657506118d6565b5f600e8361ffff168154811061189e5761189e612458565b905f5260205f20015490506118d38282600f8661ffff16815481106118c5576118c5612458565b905f5260205f200154611c59565b50505b600101611836565b50600d5461ffff8216036109e757600480546010546040516338b12abb60e21b8152928301526001600160a01b03169063e2c4aaec906024015f604051808303815f87803b15801561192e575f5ffd5b505af1158015611940573d5f5f3e3d5ffd5b50505050505050565b6003600754600160201b900460ff16600381111561196957611969611f19565b1461132d5760405163baf3f0f760e01b815260040160405180910390fd5b5f80546001600160a01b038381166001600160a01b0319831681178455604051919092169283917f8be0079c531659141344cd1fd0a4f28419497f9722a3daafe3b4186f6b6457e09190a35050565b5f5f5f6119e38686611e0a565b91509150815f03611a07578381816119fd576119fd61246c565b0492505050611a80565b818411611a1e57611a1e6003851502601118611e26565b5f848688095f868103871696879004966002600389028118808a02820302808a02820302808a02820302808a02820302808a02820302808a02909103029181900381900460010185841190960395909502919093039390930492909217029150505b9392505050565b6001600160a01b038084165f908152600660205260409020541680611abf57604051635048c2af60e11b815260040160405180910390fd5b5f611add600854612710611ad39190612480565b84906127106119d6565b60405163095ea7b360e01b81529091506001600160a01b0386169063095ea7b390611b0e9085905f906004016120cf565b6020604051808303815f875af1158015611b2a573d5f5f3e3d5ffd5b505050506040513d601f19601f82011682018060405250810190611b4e91906120e8565b5060405163095ea7b360e01b81526001600160a01b0386169063095ea7b390611b7d90859088906004016120cf565b6020604051808303815f875af1158015611b99573d5f5f3e3d5ffd5b505050506040513d601f19601f82011682018060405250810190611bbd91906120e8565b50604051633513923160e11b81525f906001600160a01b03841690636a27246290611bf090899089908790600401612493565b6020604051808303815f875af1158015611c0c573d5f5f3e3d5ffd5b505050506040513d601f19601f82011682018060405250810190611c3091906124b4565b9050611c3c84826124cb565b60105f828254611c4c91906124ea565b9091555050505050505050565b6001600160a01b038084165f908152600660205260409020541680611c9157604051635048c2af60e11b815260040160405180910390fd5b5f611ca5600854612710611ad39190612511565b60055460405163095ea7b360e01b81529192506001600160a01b03169063095ea7b390611cd89085905f906004016120cf565b6020604051808303815f875af1158015611cf4573d5f5f3e3d5ffd5b505050506040513d601f19601f82011682018060405250810190611d1891906120e8565b5060055460405163095ea7b360e01b81526001600160a01b039091169063095ea7b390611d4b90859085906004016120cf565b6020604051808303815f875af1158015611d67573d5f5f3e3d5ffd5b505050506040513d601f19601f82011682018060405250810190611d8b91906120e8565b5060405163a59ac6dd60e01b81525f906001600160a01b0384169063a59ac6dd90611dbe90899089908790600401612493565b6020604051808303815f875af1158015611dda573d5f5f3e3d5ffd5b505050506040513d601f19601f82011682018060405250810190611dfe91906124b4565b9050611c3c81856124cb565b5f805f1983850993909202808410938190039390930393915050565b634e487b715f52806020526024601cfd5b5080545f8255905f5260205f209081019061132d9190611eee565b828054828255905f5260205f20908101928215611e8b579160200282015b82811115611e8b578251825591602001919060010190611e70565b50611e97929150611eee565b5090565b828054828255905f5260205f20908101928215611e8b579160200282015b82811115611e8b57825182546001600160a01b0319166001600160a01b03909116178255602090920191600190910190611eb9565b5b80821115611e97575f8155600101611eef565b5f60208284031215611f12575f5ffd5b5035919050565b634e487b7160e01b5f52602160045260245ffd5b6020810160048310611f4d57634e487b7160e01b5f52602160045260245ffd5b91905290565b6001600160a01b0391909116815260200190565b6001600160a01b038116811461132d575f5ffd5b5f60208284031215611f8b575f5ffd5b8135611a8081611f67565b5f5f60208385031215611fa7575f5ffd5b82356001600160401b03811115611fbc575f5ffd5b8301601f81018513611fcc575f5ffd5b80356001600160401b03811115611fe1575f5ffd5b856020828401011115611ff2575f5ffd5b6020919091019590945092505050565b5f5f60408385031215612013575f5ffd5b823561201e81611f67565b946020939093013593505050565b5f5f6040838503121561203d575f5ffd5b823561204881611f67565b9150602083013561205881611f67565b809150509250929050565b803560ff81168114612073575f5ffd5b919050565b5f60208284031215612088575f5ffd5b611a8082612063565b8215158152604060208201525f82518060408401528060208501606085015e5f606082850101526060601f19601f8301168401019150509392505050565b6001600160a01b03929092168252602082015260400190565b5f602082840312156120f8575f5ffd5b81518015158114611a80575f5ffd5b5f5f60408385031215612118575f5ffd5b82356001600160e01b03198116811461212f575f5ffd5b915061213d60208401612063565b90509250929050565b5f60208284031215612156575f5ffd5b815161ffff81168114611a80575f5ffd5b6001600160e01b031992909216825260ff16602082015260400190565b5f60208284031215612194575f5ffd5b8151611a8081611f67565b634e487b7160e01b5f52601160045260245ffd5b61ffff81811683821601908111156121cd576121cd61219f565b92915050565b634e487b7160e01b5f52604160045260245ffd5b604051601f8201601f191681016001600160401b038111828210171561220f5761220f6121d3565b604052919050565b5f6001600160401b0382111561222f5761222f6121d3565b5060051b60200190565b5f82601f830112612248575f5ffd5b815161225b61225682612217565b6121e7565b8082825260208201915060208360051b86010192508583111561227c575f5ffd5b602085015b838110156122a257805161229481611f67565b835260209283019201612281565b5095945050505050565b5f82601f8301126122bb575f5ffd5b81516122c961225682612217565b8082825260208201915060208360051b8601019250858311156122ea575f5ffd5b602085015b838110156122a25780518352602092830192016122ef565b5f5f5f5f5f5f60c0878903121561231c575f5ffd5b86516001600160401b03811115612331575f5ffd5b61233d89828a01612239565b602089015190975090506001600160401b0381111561235a575f5ffd5b61236689828a016122ac565b604089015190965090506001600160401b03811115612383575f5ffd5b61238f89828a01612239565b606089015190955090506001600160401b038111156123ac575f5ffd5b6123b889828a016122ac565b608089015190945090506001600160401b038111156123d5575f5ffd5b6123e189828a016122ac565b60a089015190935090506001600160401b038111156123fe575f5ffd5b61240a89828a016122ac565b9150509295509295509295565b5f60ff821660ff810361242c5761242c61219f565b60010192915050565b60ff81811683821602908116908181146124515761245161219f565b5092915050565b634e487b7160e01b5f52603260045260245ffd5b634e487b7160e01b5f52601260045260245ffd5b818103818111156121cd576121cd61219f565b6001600160a01b039390931683526020830191909152604082015260600190565b5f602082840312156124c4575f5ffd5b5051919050565b8181035f8312801583831316838312821617156124515761245161219f565b8082018281125f8312801582168215821617156125095761250961219f565b505092915050565b808201808211156121cd576121cd61219f56fe2f2727c7b3d9ee55de5c114f0cb7997ac7251a4cbfca4f2b2dc6969d86cce4f4a2646970667358221220328635e6cd1ac4e14e4298283e88b7d9956aa96ed7069788846369a49ca2a6ed64736f6c634300081c0033",
  "linkReferences": {},
  "deployedLinkReferences": {}
}