{
  "_format": "hh-sol-artifact-1",
  "contractName": "LiquidityOrchestrator",
  "sourceName": "contracts/orchestrators/LiquidityOrchestrator.sol",
  "abi": [
    {
      "inputs": [
        {
          "internalType": "address",
          "name": "initialOwner",
          "type": "address"
        },
        {
          "internalType": "address",
          "name": "config_",
          "type": "address"
        },
        {
          "internalType": "address",
          "name": "automationRegistry_",
          "type": "address"
        }
      ],
      "stateMutability": "nonpayable",
      "type": "constructor"
    },
    {
      "inputs": [],
      "name": "AdapterNotSet",
      "type": "error"
    },
    {
      "inputs": [],
      "name": "AlreadyRegistered",
      "type": "error"
    },
    {
      "inputs": [
        {
          "internalType": "address",
          "name": "asset",
          "type": "address"
        }
      ],
      "name": "AmountMustBeGreaterThanZero",
      "type": "error"
    },
    {
      "inputs": [],
      "name": "InvalidArguments",
      "type": "error"
    },
    {
      "inputs": [],
      "name": "NotAuthorized",
      "type": "error"
    },
    {
      "inputs": [
        {
          "internalType": "address",
          "name": "owner",
          "type": "address"
        }
      ],
      "name": "OwnableInvalidOwner",
      "type": "error"
    },
    {
      "inputs": [
        {
          "internalType": "address",
          "name": "account",
          "type": "address"
        }
      ],
      "name": "OwnableUnauthorizedAccount",
      "type": "error"
    },
    {
      "inputs": [],
      "name": "SystemNotIdle",
      "type": "error"
    },
    {
      "inputs": [],
      "name": "TransferFailed",
      "type": "error"
    },
    {
      "inputs": [],
      "name": "ZeroAddress",
      "type": "error"
    },
    {
      "anonymous": false,
      "inputs": [
        {
          "indexed": true,
          "internalType": "address",
          "name": "newAutomationRegistry",
          "type": "address"
        }
      ],
      "name": "AutomationRegistryUpdated",
      "type": "event"
    },
    {
      "anonymous": false,
      "inputs": [
        {
          "indexed": true,
          "internalType": "address",
          "name": "asset",
          "type": "address"
        },
        {
          "indexed": true,
          "internalType": "address",
          "name": "adapter",
          "type": "address"
        }
      ],
      "name": "ExecutionAdapterSet",
      "type": "event"
    },
    {
      "anonymous": false,
      "inputs": [
        {
          "indexed": true,
          "internalType": "address",
          "name": "previousOwner",
          "type": "address"
        },
        {
          "indexed": true,
          "internalType": "address",
          "name": "newOwner",
          "type": "address"
        }
      ],
      "name": "OwnershipTransferred",
      "type": "event"
    },
    {
      "anonymous": false,
      "inputs": [],
      "name": "PortfolioRebalanced",
      "type": "event"
    },
    {
      "inputs": [],
      "name": "automationRegistry",
      "outputs": [
        {
          "internalType": "address",
          "name": "",
          "type": "address"
        }
      ],
      "stateMutability": "view",
      "type": "function"
    },
    {
      "inputs": [
        {
          "internalType": "bytes",
          "name": "",
          "type": "bytes"
        }
      ],
      "name": "checkUpkeep",
      "outputs": [
        {
          "internalType": "bool",
          "name": "upkeepNeeded",
          "type": "bool"
        },
        {
          "internalType": "bytes",
          "name": "performData",
          "type": "bytes"
        }
      ],
      "stateMutability": "view",
      "type": "function"
    },
    {
      "inputs": [],
      "name": "claimProtocolFees",
      "outputs": [],
      "stateMutability": "nonpayable",
      "type": "function"
    },
    {
      "inputs": [],
      "name": "config",
      "outputs": [
        {
          "internalType": "contract IOrionConfig",
          "name": "",
          "type": "address"
        }
      ],
      "stateMutability": "view",
      "type": "function"
    },
    {
      "inputs": [],
      "name": "currentPhase",
      "outputs": [
        {
          "internalType": "enum ILiquidityOrchestrator.LiquidityUpkeepPhase",
          "name": "",
          "type": "uint8"
        }
      ],
      "stateMutability": "view",
      "type": "function"
    },
    {
      "inputs": [
        {
          "internalType": "address",
          "name": "",
          "type": "address"
        }
      ],
      "name": "executionAdapterOf",
      "outputs": [
        {
          "internalType": "contract IExecutionAdapter",
          "name": "",
          "type": "address"
        }
      ],
      "stateMutability": "view",
      "type": "function"
    },
    {
      "inputs": [],
      "name": "executionMinibatchSize",
      "outputs": [
        {
          "internalType": "uint8",
          "name": "",
          "type": "uint8"
        }
      ],
      "stateMutability": "view",
      "type": "function"
    },
    {
      "inputs": [],
      "name": "internalStatesOrchestrator",
      "outputs": [
        {
          "internalType": "contract IInternalStateOrchestrator",
          "name": "",
          "type": "address"
        }
      ],
      "stateMutability": "view",
      "type": "function"
    },
    {
      "inputs": [],
      "name": "lastProcessedEpoch",
      "outputs": [
        {
          "internalType": "uint16",
          "name": "",
          "type": "uint16"
        }
      ],
      "stateMutability": "view",
      "type": "function"
    },
    {
      "inputs": [],
      "name": "owner",
      "outputs": [
        {
          "internalType": "address",
          "name": "",
          "type": "address"
        }
      ],
      "stateMutability": "view",
      "type": "function"
    },
    {
      "inputs": [
        {
          "internalType": "bytes",
          "name": "",
          "type": "bytes"
        }
      ],
      "name": "performUpkeep",
      "outputs": [],
      "stateMutability": "nonpayable",
      "type": "function"
    },
    {
      "inputs": [],
      "name": "renounceOwnership",
      "outputs": [],
      "stateMutability": "nonpayable",
      "type": "function"
    },
    {
      "inputs": [
        {
          "internalType": "address",
          "name": "user",
          "type": "address"
        },
        {
          "internalType": "uint256",
          "name": "amount",
          "type": "uint256"
        }
      ],
      "name": "returnDepositFunds",
      "outputs": [],
      "stateMutability": "nonpayable",
      "type": "function"
    },
    {
      "inputs": [
        {
          "internalType": "address",
          "name": "asset",
          "type": "address"
        },
        {
          "internalType": "contract IExecutionAdapter",
          "name": "adapter",
          "type": "address"
        }
      ],
      "name": "setExecutionAdapter",
      "outputs": [],
      "stateMutability": "nonpayable",
      "type": "function"
    },
    {
      "inputs": [
        {
          "internalType": "address",
          "name": "_internalStatesOrchestrator",
          "type": "address"
        }
      ],
      "name": "setInternalStatesOrchestrator",
      "outputs": [],
      "stateMutability": "nonpayable",
      "type": "function"
    },
    {
      "inputs": [
        {
          "internalType": "uint16",
          "name": "_slippageBound",
          "type": "uint16"
        }
      ],
      "name": "setSlippageBound",
      "outputs": [],
      "stateMutability": "nonpayable",
      "type": "function"
    },
    {
      "inputs": [],
      "name": "slippageBound",
      "outputs": [
        {
          "internalType": "uint16",
          "name": "",
          "type": "uint16"
        }
      ],
      "stateMutability": "view",
      "type": "function"
    },
    {
      "inputs": [
        {
          "internalType": "uint256",
          "name": "amount",
          "type": "uint256"
        }
      ],
      "name": "transferCuratorFees",
      "outputs": [],
      "stateMutability": "nonpayable",
      "type": "function"
    },
    {
      "inputs": [
        {
          "internalType": "address",
          "name": "newOwner",
          "type": "address"
        }
      ],
      "name": "transferOwnership",
      "outputs": [],
      "stateMutability": "nonpayable",
      "type": "function"
    },
    {
      "inputs": [
        {
          "internalType": "address",
          "name": "user",
          "type": "address"
        },
        {
          "internalType": "uint256",
          "name": "amount",
          "type": "uint256"
        }
      ],
      "name": "transferWithdrawalFunds",
      "outputs": [],
      "stateMutability": "nonpayable",
      "type": "function"
    },
    {
      "inputs": [],
      "name": "underlyingAsset",
      "outputs": [
        {
          "internalType": "address",
          "name": "",
          "type": "address"
        }
      ],
      "stateMutability": "view",
      "type": "function"
    },
    {
      "inputs": [
        {
          "internalType": "address",
          "name": "asset",
          "type": "address"
        }
      ],
      "name": "unsetExecutionAdapter",
      "outputs": [],
      "stateMutability": "nonpayable",
      "type": "function"
    },
    {
      "inputs": [
        {
          "internalType": "address",
          "name": "newAutomationRegistry",
          "type": "address"
        }
      ],
      "name": "updateAutomationRegistry",
      "outputs": [],
      "stateMutability": "nonpayable",
      "type": "function"
    },
    {
      "inputs": [
        {
          "internalType": "uint8",
          "name": "_executionMinibatchSize",
          "type": "uint8"
        }
      ],
      "name": "updateExecutionMinibatchSize",
      "outputs": [],
      "stateMutability": "nonpayable",
      "type": "function"
    }
  ],
  "bytecode": "0x608060405234801561000f575f5ffd5b50604051611cb2380380611cb283398101604081905261002e916101df565b826001600160a01b03811661005c57604051631e4fbdf760e01b81525f600482015260240160405180910390fd5b61006581610179565b506001600160a01b03821661008d5760405163d92e233d60e01b815260040160405180910390fd5b6001600160a01b0381166100b45760405163d92e233d60e01b815260040160405180910390fd5b600280546001600160a01b0319166001600160a01b03841690811790915560408051631c56369f60e21b81529051637158da7c916004808201926020929091908290030181865afa15801561010b573d5f5f3e3d5ffd5b505050506040513d601f19601f8201168201806040525081019061012f9190610229565b600480546001600160a01b03199081166001600160a01b0393841617909155600180549091169290911691909117905550506006805463ffffffff1916630100000017905561024b565b5f80546001600160a01b038381166001600160a01b0319831681178455604051919092169283917f8be0079c531659141344cd1fd0a4f28419497f9722a3daafe3b4186f6b6457e09190a35050565b6001600160a01b03811681146101dc575f5ffd5b50565b5f5f5f606084860312156101f1575f5ffd5b83516101fc816101c8565b602085015190935061020d816101c8565b604085015190925061021e816101c8565b809150509250925092565b5f60208284031215610239575f5ffd5b8151610244816101c8565b9392505050565b611a5a806102585f395ff3fe608060405234801561000f575f5ffd5b5060043610610126575f3560e01c8063055ad42e1461012a5780630a8b78c71461015357806314b5d07f146101685780632be17d3b1461017b578063348ec5c8146101a35780634585e33b146101c35780634a7d0369146101d657806351edffb1146101de57806357be01c1146101f157806359017aa9146102175780635dc228a01461022a5780635dd44d7a1461023d5780636e04ff0d14610250578063715018a6146102715780637158da7c14610279578063741fca4b1461028c57806379502c551461029f578063841181ef146102b25780638a0b0d38146102c55780638a7da049146102d85780638da5cb5b146102eb578063d3f3506d146102f3578063ee6713df1461031b578063f2fde38b14610329575b5f5ffd5b60065461013d9062010000900460ff1681565b60405161014a919061158b565b60405180910390f35b6101666101613660046115b9565b61033c565b005b6101666101763660046115b9565b6103b7565b60065461019090600160201b900461ffff1681565b60405161ffff909116815260200161014a565b6003546101b6906001600160a01b031681565b60405161014a91906115db565b6101666101d13660046115ef565b6104c0565b6101666108e3565b6101666101ec36600461165b565b610a84565b600654610205906301000000900460ff1681565b60405160ff909116815260200161014a565b610166610225366004611685565b610ba8565b6001546101b6906001600160a01b031681565b61016661024b36600461165b565b610c51565b61026361025e3660046115ef565b610d0b565b60405161014a9291906116bc565b610166610e73565b6004546101b6906001600160a01b031681565b61016661029a3660046116fa565b610e86565b6002546101b6906001600160a01b031681565b6101666102c03660046115b9565b61103d565b6101666102d3366004611711565b6110ce565b6101666102e6366004611740565b6111aa565b6101b6611289565b6101b66103013660046115b9565b60056020525f90815260409020546001600160a01b031681565b6006546101909061ffff1681565b6101666103373660046115b9565b611297565b6103446112d4565b6001600160a01b03811661036b5760405163d92e233d60e01b815260040160405180910390fd5b6003546001600160a01b03161561039557604051630ea075bf60e21b815260040160405180910390fd5b600380546001600160a01b0319166001600160a01b0392909216919091179055565b6103bf6112d4565b6001600160a01b0381166103e65760405163d92e233d60e01b815260040160405180910390fd5b60025f9054906101000a90046001600160a01b03166001600160a01b031663edcf9c1f6040518163ffffffff1660e01b8152600401602060405180830381865afa158015610436573d5f5f3e3d5ffd5b505050506040513d601f19601f8201168201806040525081019061045a919061175b565b610477576040516312aecd8160e01b815260040160405180910390fd5b600180546001600160a01b0319166001600160a01b0383169081179091556040517f6cc7ebdb6c8c53291c5ae16148cab9b049d23bf5bde5632900b40edff56fcb43905f90a250565b6001546001600160a01b031633146104eb5760405163ea8e4eb560e01b815260040160405180910390fd5b60035460408051630a58ce2d60e11b815290515f926001600160a01b0316916314b19c5a9160048083019260209291908290030181865afa158015610532573d5f5f3e3d5ffd5b505050506040513d601f19601f82011682018060405250810190610556919061177a565b60065490915061ffff9081169082161161056f57505050565b6006805461ffff191661ffff8316179055600354604080516318596bb160e31b815290515f9283926001600160a01b039091169163c2cb5d889160048082019286929091908290030181865afa1580156105cb573d5f5f3e3d5ffd5b505050506040513d5f823e601f3d908101601f191682016040526105f2919081019061186e565b90925090505f5b82518161ffff161015610667575f838261ffff168151811061061d5761061d61192c565b602002602001015190505f838361ffff168151811061063e5761063e61192c565b602002602001015190506106528282611306565b5050808061065f90611940565b9150506105f9565b505f5f60035f9054906101000a90046001600160a01b03166001600160a01b031663a08b82d76040518163ffffffff1660e01b81526004015f60405180830381865afa1580156106b9573d5f5f3e3d5ffd5b505050506040513d5f823e601f3d908101601f191682016040526106e0919081019061186e565b90925090505f5b82518161ffff161015610755575f838261ffff168151811061070b5761070b61192c565b602002602001015190505f838361ffff168151811061072c5761072c61192c565b60200260200101519050610740828261142f565b5050808061074d90611940565b9150506106e7565b50600254604051631da09e4360e31b81525f916001600160a01b03169063ed04f2189061078690849060040161196c565b5f60405180830381865afa1580156107a0573d5f5f3e3d5ffd5b505050506040513d5f823e601f3d908101601f191682016040526107c79190810190611980565b80519091505f5b8161ffff168161ffff161015610800575f838261ffff16815181106107f5576107f561192c565b5050506001016107ce565b50600254604051631da09e4360e31b81525f916001600160a01b03169063ed04f218906108329060019060040161196c565b5f60405180830381865afa15801561084c573d5f5f3e3d5ffd5b505050506040513d5f823e601f3d908101601f191682016040526108739190810190611980565b8051925090505f5b8261ffff168161ffff1610156108ad575f828261ffff16815181106108a2576108a261192c565b50505060010161087b565b506040517ff0094b59b7bc92e9fc611b14b5d3a34fe02530ac9bcf36c2c6f10147c3030c12905f90a150505050505050505b5050565b6108eb6112d4565b6003546040805163800f9fad60e01b815290515f926001600160a01b03169163800f9fad9160048083019260209291908290030181865afa158015610932573d5f5f3e3d5ffd5b505050506040513d601f19601f8201168201806040525081019061095691906119b9565b9050805f0361098f5760048054604051636b30633560e01b8152610986926001600160a01b0390921691016115db565b60405180910390fd5b60035f9054906101000a90046001600160a01b03166001600160a01b0316631f6722116040518163ffffffff1660e01b81526004015f604051808303815f87803b1580156109db575f5ffd5b505af11580156109ed573d5f5f3e3d5ffd5b50506004805460405163a9059cbb60e01b81525f94506001600160a01b03909116925063a9059cbb91610a249133918791016119d0565b6020604051808303815f875af1158015610a40573d5f5f3e3d5ffd5b505050506040513d601f19601f82011682018060405250810190610a64919061175b565b9050806108df576040516312171d8360e31b815260040160405180910390fd5b600254604051633821dad160e21b81526001600160a01b039091169063e0876b4490610ab49033906004016115db565b602060405180830381865afa158015610acf573d5f5f3e3d5ffd5b505050506040513d601f19601f82011682018060405250810190610af3919061175b565b610b105760405163ea8e4eb560e01b815260040160405180910390fd5b6004805460405163a9059cbb60e01b81525f926001600160a01b039092169163a9059cbb91610b439187918791016119d0565b6020604051808303815f875af1158015610b5f573d5f5f3e3d5ffd5b505050506040513d601f19601f82011682018060405250810190610b83919061175b565b905080610ba3576040516312171d8360e31b815260040160405180910390fd5b505050565b6002546001600160a01b03163314610bd35760405163ea8e4eb560e01b815260040160405180910390fd5b6001600160a01b0382161580610bf057506001600160a01b038116155b15610c0e5760405163d92e233d60e01b815260040160405180910390fd5b6001600160a01b038281165f8181526005602052604080822080546001600160a01b0319169486169485179055515f516020611a055f395f51905f529190a35050565b600254604051633821dad160e21b81526001600160a01b039091169063e0876b4490610c819033906004016115db565b602060405180830381865afa158015610c9c573d5f5f3e3d5ffd5b505050506040513d601f19601f82011682018060405250810190610cc0919061175b565b610cdd5760405163ea8e4eb560e01b815260040160405180910390fd5b805f03610b105760048054604051636b30633560e01b8152610986926001600160a01b0390921691016115db565b5f60605f60035f9054906101000a90046001600160a01b03166001600160a01b03166314b19c5a6040518163ffffffff1660e01b8152600401602060405180830381865afa158015610d5f573d5f5f3e3d5ffd5b505050506040513d601f19601f82011682018060405250810190610d83919061177a565b60065490915061ffff908116908216118015610e0e575060025f9054906101000a90046001600160a01b03166001600160a01b031663edcf9c1f6040518163ffffffff1660e01b8152600401602060405180830381865afa158015610dea573d5f5f3e3d5ffd5b505050506040513d601f19601f82011682018060405250810190610e0e919061175b565b15610e565760019250604051602001610e40906020808252600590820152641cdd185c9d60da1b604082015260600190565b6040516020818303038152906040529150610e6b565b5f925060405180602001604052805f81525091505b509250929050565b610e7b6112d4565b610e845f611528565b565b600254604051633821dad160e21b815233916001600160a01b03169063e0876b4490610eb69084906004016115db565b602060405180830381865afa158015610ed1573d5f5f3e3d5ffd5b505050506040513d601f19601f82011682018060405250810190610ef5919061175b565b610f125760405163ea8e4eb560e01b815260040160405180910390fd5b815f03610f405760048054604051636b30633560e01b8152610986926001600160a01b0390921691016115db565b5f816001600160a01b0316631f52692b6040518163ffffffff1660e01b8152600401602060405180830381865afa158015610f7d573d5f5f3e3d5ffd5b505050506040513d601f19601f82011682018060405250810190610fa191906119e9565b6004805460405163a9059cbb60e01b81529293505f926001600160a01b039091169163a9059cbb91610fd79186918991016119d0565b6020604051808303815f875af1158015610ff3573d5f5f3e3d5ffd5b505050506040513d601f19601f82011682018060405250810190611017919061175b565b905080611037576040516312171d8360e31b815260040160405180910390fd5b50505050565b6002546001600160a01b031633146110685760405163ea8e4eb560e01b815260040160405180910390fd5b6001600160a01b03811661108f5760405163d92e233d60e01b815260040160405180910390fd5b6001600160a01b0381165f8181526005602052604080822080546001600160a01b0319169055519091905f516020611a055f395f51905f52908390a350565b6110d66112d4565b8060ff165f036110f9576040516317dbc4cb60e21b815260040160405180910390fd5b60025f9054906101000a90046001600160a01b03166001600160a01b031663edcf9c1f6040518163ffffffff1660e01b8152600401602060405180830381865afa158015611149573d5f5f3e3d5ffd5b505050506040513d601f19601f8201168201806040525081019061116d919061175b565b61118a576040516312aecd8160e01b815260040160405180910390fd5b6006805460ff90921663010000000263ff00000019909216919091179055565b6111b26112d4565b8061ffff165f036111d6576040516317dbc4cb60e21b815260040160405180910390fd5b60025f9054906101000a90046001600160a01b03166001600160a01b031663edcf9c1f6040518163ffffffff1660e01b8152600401602060405180830381865afa158015611226573d5f5f3e3d5ffd5b505050506040513d601f19601f8201168201806040525081019061124a919061175b565b611267576040516312aecd8160e01b815260040160405180910390fd5b6006805461ffff909216600160201b0261ffff60201b19909216919091179055565b5f546001600160a01b031690565b61129f6112d4565b6001600160a01b0381166112c8575f604051631e4fbdf760e01b815260040161098691906115db565b6112d181611528565b50565b336112dd611289565b6001600160a01b031614610e84573360405163118cdaa760e01b815260040161098691906115db565b6001600160a01b038083165f90815260056020526040902054168061133e57604051635048c2af60e11b815260040160405180910390fd5b60405163095ea7b360e01b81525f906001600160a01b0385169063095ea7b39061136e90859087906004016119d0565b6020604051808303815f875af115801561138a573d5f5f3e3d5ffd5b505050506040513d601f19601f820116820180604052508101906113ae919061175b565b9050806113ce576040516312171d8360e31b815260040160405180910390fd5b604051636c197ff560e01b81526001600160a01b03831690636c197ff5906113fc90879087906004016119d0565b5f604051808303815f87803b158015611413575f5ffd5b505af1158015611425573d5f5f3e3d5ffd5b5050505050505050565b6001600160a01b038083165f90815260056020526040902054168061146757604051635048c2af60e11b815260040160405180910390fd5b6004805460405163095ea7b360e01b81525f926001600160a01b039092169163095ea7b39161149a9186918891016119d0565b6020604051808303815f875af11580156114b6573d5f5f3e3d5ffd5b505050506040513d601f19601f820116820180604052508101906114da919061175b565b9050806114fa576040516312171d8360e31b815260040160405180910390fd5b60405163cce7ec1360e01b81526001600160a01b0383169063cce7ec13906113fc90879087906004016119d0565b5f80546001600160a01b038381166001600160a01b0319831681178455604051919092169283917f8be0079c531659141344cd1fd0a4f28419497f9722a3daafe3b4186f6b6457e09190a35050565b634e487b7160e01b5f52602160045260245ffd5b602081016004831061159f5761159f611577565b91905290565b6001600160a01b03811681146112d1575f5ffd5b5f602082840312156115c9575f5ffd5b81356115d4816115a5565b9392505050565b6001600160a01b0391909116815260200190565b5f5f60208385031215611600575f5ffd5b82356001600160401b03811115611615575f5ffd5b8301601f81018513611625575f5ffd5b80356001600160401b0381111561163a575f5ffd5b85602082840101111561164b575f5ffd5b6020919091019590945092505050565b5f5f6040838503121561166c575f5ffd5b8235611677816115a5565b946020939093013593505050565b5f5f60408385031215611696575f5ffd5b82356116a1816115a5565b915060208301356116b1816115a5565b809150509250929050565b8215158152604060208201525f82518060408401528060208501606085015e5f606082850101526060601f19601f8301168401019150509392505050565b5f6020828403121561170a575f5ffd5b5035919050565b5f60208284031215611721575f5ffd5b813560ff811681146115d4575f5ffd5b61ffff811681146112d1575f5ffd5b5f60208284031215611750575f5ffd5b81356115d481611731565b5f6020828403121561176b575f5ffd5b815180151581146115d4575f5ffd5b5f6020828403121561178a575f5ffd5b81516115d481611731565b634e487b7160e01b5f52604160045260245ffd5b604051601f8201601f191681016001600160401b03811182821017156117d1576117d1611795565b604052919050565b5f6001600160401b038211156117f1576117f1611795565b5060051b60200190565b5f82601f83011261180a575f5ffd5b815161181d611818826117d9565b6117a9565b8082825260208201915060208360051b86010192508583111561183e575f5ffd5b602085015b83811015611864578051611856816115a5565b835260209283019201611843565b5095945050505050565b5f5f6040838503121561187f575f5ffd5b82516001600160401b03811115611894575f5ffd5b6118a0858286016117fb565b602085015190935090506001600160401b038111156118bd575f5ffd5b8301601f810185136118cd575f5ffd5b80516118db611818826117d9565b8082825260208201915060208360051b8501019250878311156118fc575f5ffd5b6020840193505b8284101561191e578351825260209384019390910190611903565b809450505050509250929050565b634e487b7160e01b5f52603260045260245ffd5b5f61ffff821661ffff810361196357634e487b7160e01b5f52601160045260245ffd5b60010192915050565b602081016002831061159f5761159f611577565b5f60208284031215611990575f5ffd5b81516001600160401b038111156119a5575f5ffd5b6119b1848285016117fb565b949350505050565b5f602082840312156119c9575f5ffd5b5051919050565b6001600160a01b03929092168252602082015260400190565b5f602082840312156119f9575f5ffd5b81516115d4816115a556fe2f2727c7b3d9ee55de5c114f0cb7997ac7251a4cbfca4f2b2dc6969d86cce4f4a26469706673582212200444383c79237f4c2eedcc581c3b5335fd97bac91dbb88a4406b5bffc3f7bcda64736f6c634300081c0033",
  "linkReferences": {},
  "deployedLinkReferences": {}
}