{
  "_format": "hh-sol-artifact-1",
  "contractName": "LiquidityOrchestrator",
  "sourceName": "contracts/orchestrators/LiquidityOrchestrator.sol",
  "abi": [
    {
      "inputs": [
        {
          "internalType": "address",
          "name": "initialOwner",
          "type": "address"
        },
        {
          "internalType": "address",
          "name": "config_",
          "type": "address"
        },
        {
          "internalType": "address",
          "name": "automationRegistry_",
          "type": "address"
        }
      ],
      "stateMutability": "nonpayable",
      "type": "constructor"
    },
    {
      "inputs": [],
      "name": "AdapterNotSet",
      "type": "error"
    },
    {
      "inputs": [],
      "name": "AlreadyRegistered",
      "type": "error"
    },
    {
      "inputs": [
        {
          "internalType": "address",
          "name": "asset",
          "type": "address"
        }
      ],
      "name": "AmountMustBeGreaterThanZero",
      "type": "error"
    },
    {
      "inputs": [],
      "name": "InvalidArguments",
      "type": "error"
    },
    {
      "inputs": [],
      "name": "InvalidState",
      "type": "error"
    },
    {
      "inputs": [],
      "name": "NotAuthorized",
      "type": "error"
    },
    {
      "inputs": [
        {
          "internalType": "address",
          "name": "owner",
          "type": "address"
        }
      ],
      "name": "OwnableInvalidOwner",
      "type": "error"
    },
    {
      "inputs": [
        {
          "internalType": "address",
          "name": "account",
          "type": "address"
        }
      ],
      "name": "OwnableUnauthorizedAccount",
      "type": "error"
    },
    {
      "inputs": [],
      "name": "ReentrancyGuardReentrantCall",
      "type": "error"
    },
    {
      "inputs": [],
      "name": "SystemNotIdle",
      "type": "error"
    },
    {
      "inputs": [],
      "name": "TransferFailed",
      "type": "error"
    },
    {
      "inputs": [],
      "name": "ZeroAddress",
      "type": "error"
    },
    {
      "anonymous": false,
      "inputs": [
        {
          "indexed": true,
          "internalType": "address",
          "name": "newAutomationRegistry",
          "type": "address"
        }
      ],
      "name": "AutomationRegistryUpdated",
      "type": "event"
    },
    {
      "anonymous": false,
      "inputs": [
        {
          "indexed": true,
          "internalType": "address",
          "name": "asset",
          "type": "address"
        },
        {
          "indexed": true,
          "internalType": "address",
          "name": "adapter",
          "type": "address"
        }
      ],
      "name": "ExecutionAdapterSet",
      "type": "event"
    },
    {
      "anonymous": false,
      "inputs": [
        {
          "indexed": true,
          "internalType": "address",
          "name": "previousOwner",
          "type": "address"
        },
        {
          "indexed": true,
          "internalType": "address",
          "name": "newOwner",
          "type": "address"
        }
      ],
      "name": "OwnershipTransferred",
      "type": "event"
    },
    {
      "anonymous": false,
      "inputs": [],
      "name": "PortfolioRebalanced",
      "type": "event"
    },
    {
      "inputs": [],
      "name": "automationRegistry",
      "outputs": [
        {
          "internalType": "address",
          "name": "",
          "type": "address"
        }
      ],
      "stateMutability": "view",
      "type": "function"
    },
    {
      "inputs": [
        {
          "internalType": "uint256",
          "name": "",
          "type": "uint256"
        }
      ],
      "name": "buyingAmounts",
      "outputs": [
        {
          "internalType": "uint256",
          "name": "",
          "type": "uint256"
        }
      ],
      "stateMutability": "view",
      "type": "function"
    },
    {
      "inputs": [
        {
          "internalType": "uint256",
          "name": "",
          "type": "uint256"
        }
      ],
      "name": "buyingEstimatedUnderlyingAmounts",
      "outputs": [
        {
          "internalType": "uint256",
          "name": "",
          "type": "uint256"
        }
      ],
      "stateMutability": "view",
      "type": "function"
    },
    {
      "inputs": [
        {
          "internalType": "uint256",
          "name": "",
          "type": "uint256"
        }
      ],
      "name": "buyingTokens",
      "outputs": [
        {
          "internalType": "address",
          "name": "",
          "type": "address"
        }
      ],
      "stateMutability": "view",
      "type": "function"
    },
    {
      "inputs": [
        {
          "internalType": "bytes",
          "name": "",
          "type": "bytes"
        }
      ],
      "name": "checkUpkeep",
      "outputs": [
        {
          "internalType": "bool",
          "name": "upkeepNeeded",
          "type": "bool"
        },
        {
          "internalType": "bytes",
          "name": "performData",
          "type": "bytes"
        }
      ],
      "stateMutability": "view",
      "type": "function"
    },
    {
      "inputs": [
        {
          "internalType": "uint256",
          "name": "amount",
          "type": "uint256"
        }
      ],
      "name": "claimProtocolFees",
      "outputs": [],
      "stateMutability": "nonpayable",
      "type": "function"
    },
    {
      "inputs": [],
      "name": "config",
      "outputs": [
        {
          "internalType": "contract IOrionConfig",
          "name": "",
          "type": "address"
        }
      ],
      "stateMutability": "view",
      "type": "function"
    },
    {
      "inputs": [],
      "name": "currentMinibatchIndex",
      "outputs": [
        {
          "internalType": "uint8",
          "name": "",
          "type": "uint8"
        }
      ],
      "stateMutability": "view",
      "type": "function"
    },
    {
      "inputs": [],
      "name": "currentPhase",
      "outputs": [
        {
          "internalType": "enum ILiquidityOrchestrator.LiquidityUpkeepPhase",
          "name": "",
          "type": "uint8"
        }
      ],
      "stateMutability": "view",
      "type": "function"
    },
    {
      "inputs": [],
      "name": "deltaBufferAmount",
      "outputs": [
        {
          "internalType": "int256",
          "name": "",
          "type": "int256"
        }
      ],
      "stateMutability": "view",
      "type": "function"
    },
    {
      "inputs": [
        {
          "internalType": "address",
          "name": "",
          "type": "address"
        }
      ],
      "name": "executionAdapterOf",
      "outputs": [
        {
          "internalType": "contract IExecutionAdapter",
          "name": "",
          "type": "address"
        }
      ],
      "stateMutability": "view",
      "type": "function"
    },
    {
      "inputs": [],
      "name": "executionMinibatchSize",
      "outputs": [
        {
          "internalType": "uint8",
          "name": "",
          "type": "uint8"
        }
      ],
      "stateMutability": "view",
      "type": "function"
    },
    {
      "inputs": [],
      "name": "internalStatesOrchestrator",
      "outputs": [
        {
          "internalType": "contract IInternalStateOrchestrator",
          "name": "",
          "type": "address"
        }
      ],
      "stateMutability": "view",
      "type": "function"
    },
    {
      "inputs": [],
      "name": "lastProcessedEpoch",
      "outputs": [
        {
          "internalType": "uint16",
          "name": "",
          "type": "uint16"
        }
      ],
      "stateMutability": "view",
      "type": "function"
    },
    {
      "inputs": [],
      "name": "owner",
      "outputs": [
        {
          "internalType": "address",
          "name": "",
          "type": "address"
        }
      ],
      "stateMutability": "view",
      "type": "function"
    },
    {
      "inputs": [
        {
          "internalType": "bytes",
          "name": "performData",
          "type": "bytes"
        }
      ],
      "name": "performUpkeep",
      "outputs": [],
      "stateMutability": "nonpayable",
      "type": "function"
    },
    {
      "inputs": [],
      "name": "renounceOwnership",
      "outputs": [],
      "stateMutability": "nonpayable",
      "type": "function"
    },
    {
      "inputs": [
        {
          "internalType": "address",
          "name": "user",
          "type": "address"
        },
        {
          "internalType": "uint256",
          "name": "amount",
          "type": "uint256"
        }
      ],
      "name": "returnDepositFunds",
      "outputs": [],
      "stateMutability": "nonpayable",
      "type": "function"
    },
    {
      "inputs": [
        {
          "internalType": "uint256",
          "name": "",
          "type": "uint256"
        }
      ],
      "name": "sellingAmounts",
      "outputs": [
        {
          "internalType": "uint256",
          "name": "",
          "type": "uint256"
        }
      ],
      "stateMutability": "view",
      "type": "function"
    },
    {
      "inputs": [
        {
          "internalType": "uint256",
          "name": "",
          "type": "uint256"
        }
      ],
      "name": "sellingEstimatedUnderlyingAmounts",
      "outputs": [
        {
          "internalType": "uint256",
          "name": "",
          "type": "uint256"
        }
      ],
      "stateMutability": "view",
      "type": "function"
    },
    {
      "inputs": [
        {
          "internalType": "uint256",
          "name": "",
          "type": "uint256"
        }
      ],
      "name": "sellingTokens",
      "outputs": [
        {
          "internalType": "address",
          "name": "",
          "type": "address"
        }
      ],
      "stateMutability": "view",
      "type": "function"
    },
    {
      "inputs": [
        {
          "internalType": "address",
          "name": "asset",
          "type": "address"
        },
        {
          "internalType": "contract IExecutionAdapter",
          "name": "adapter",
          "type": "address"
        }
      ],
      "name": "setExecutionAdapter",
      "outputs": [],
      "stateMutability": "nonpayable",
      "type": "function"
    },
    {
      "inputs": [
        {
          "internalType": "address",
          "name": "_internalStatesOrchestrator",
          "type": "address"
        }
      ],
      "name": "setInternalStatesOrchestrator",
      "outputs": [],
      "stateMutability": "nonpayable",
      "type": "function"
    },
    {
      "inputs": [
        {
          "internalType": "uint256",
          "name": "_slippageBound",
          "type": "uint256"
        }
      ],
      "name": "setSlippageBound",
      "outputs": [],
      "stateMutability": "nonpayable",
      "type": "function"
    },
    {
      "inputs": [],
      "name": "slippageBound",
      "outputs": [
        {
          "internalType": "uint256",
          "name": "",
          "type": "uint256"
        }
      ],
      "stateMutability": "view",
      "type": "function"
    },
    {
      "inputs": [],
      "name": "targetBufferRatio",
      "outputs": [
        {
          "internalType": "uint256",
          "name": "",
          "type": "uint256"
        }
      ],
      "stateMutability": "view",
      "type": "function"
    },
    {
      "inputs": [
        {
          "internalType": "uint256",
          "name": "amount",
          "type": "uint256"
        }
      ],
      "name": "transferCuratorFees",
      "outputs": [],
      "stateMutability": "nonpayable",
      "type": "function"
    },
    {
      "inputs": [
        {
          "internalType": "address",
          "name": "newOwner",
          "type": "address"
        }
      ],
      "name": "transferOwnership",
      "outputs": [],
      "stateMutability": "nonpayable",
      "type": "function"
    },
    {
      "inputs": [
        {
          "internalType": "address",
          "name": "user",
          "type": "address"
        },
        {
          "internalType": "uint256",
          "name": "amount",
          "type": "uint256"
        }
      ],
      "name": "transferRedemptionFunds",
      "outputs": [],
      "stateMutability": "nonpayable",
      "type": "function"
    },
    {
      "inputs": [],
      "name": "underlyingAsset",
      "outputs": [
        {
          "internalType": "address",
          "name": "",
          "type": "address"
        }
      ],
      "stateMutability": "view",
      "type": "function"
    },
    {
      "inputs": [
        {
          "internalType": "address",
          "name": "asset",
          "type": "address"
        }
      ],
      "name": "unsetExecutionAdapter",
      "outputs": [],
      "stateMutability": "nonpayable",
      "type": "function"
    },
    {
      "inputs": [
        {
          "internalType": "address",
          "name": "newAutomationRegistry",
          "type": "address"
        }
      ],
      "name": "updateAutomationRegistry",
      "outputs": [],
      "stateMutability": "nonpayable",
      "type": "function"
    },
    {
      "inputs": [
        {
          "internalType": "uint8",
          "name": "_executionMinibatchSize",
          "type": "uint8"
        }
      ],
      "name": "updateExecutionMinibatchSize",
      "outputs": [],
      "stateMutability": "nonpayable",
      "type": "function"
    }
  ],
  "bytecode": "0x608060405234801561000f575f5ffd5b50604051612c42380380612c4283398101604081905261002e916101e3565b826001600160a01b03811661005c57604051631e4fbdf760e01b81525f600482015260240160405180910390fd5b6100658161017d565b50600180556001600160a01b0382166100915760405163d92e233d60e01b815260040160405180910390fd5b6001600160a01b0381166100b85760405163d92e233d60e01b815260040160405180910390fd5b600380546001600160a01b0319166001600160a01b03841690811790915560408051631c56369f60e21b81529051637158da7c916004808201926020929091908290030181865afa15801561010f573d5f5f3e3d5ffd5b505050506040513d601f19601f82011682018060405250810190610133919061022d565b600580546001600160a01b03199081166001600160a01b0393841617909155600280549091169290911691909117905550506007805464ffffffffff19166201000017905561024f565b5f80546001600160a01b038381166001600160a01b0319831681178455604051919092169283917f8be0079c531659141344cd1fd0a4f28419497f9722a3daafe3b4186f6b6457e09190a35050565b6001600160a01b03811681146101e0575f5ffd5b50565b5f5f5f606084860312156101f5575f5ffd5b8351610200816101cc565b6020850151909350610211816101cc565b6040850151909250610222816101cc565b809150509250925092565b5f6020828403121561023d575f5ffd5b8151610248816101cc565b9392505050565b6129e68061025c5f395ff3fe608060405234801561000f575f5ffd5b5060043610610189575f3560e01c806301c621c11461018d578063055ad42e146101a257806309f2e19c146101cc5780630a8b78c7146101ec57806314b5d07f146101ff5780632be17d3b146102125780633369921a14610229578063348ec5c8146102325780633e765a9e146102455780634585e33b146102585780634adfc2e71461026b57806351edffb11461027e57806352e899fd146102915780635488cd62146102a457806357be01c1146102ca57806359017aa9146102dd5780635dc228a0146102f05780636e04ff0d14610303578063715018a6146103245780637158da7c1461032c578063741fca4b1461033f57806379502c55146103525780638157c1ab14610365578063841181ef146103785780638a0b0d381461038b5780638da5cb5b1461039e57806399cdc4b5146103a6578063bc504975146103b9578063be1b26a4146103cc578063d3f3506d146103df578063dab26e3b14610407578063ee6713df14610410578063f2fde38b14610431575b5f5ffd5b6101a061019b366004612316565b610444565b005b6007546101b6906301000000900460ff1681565b6040516101c39190612341565b60405180910390f35b6101df6101da366004612316565b610571565b6040516101c3919061235b565b6101a06101fa366004612383565b610599565b6101a061020d366004612383565b610614565b61021b60085481565b6040519081526020016101c3565b61021b60105481565b6004546101df906001600160a01b031681565b61021b610253366004612316565b61071d565b6101a061026636600461239e565b61073c565b6101a061027936600461240a565b610885565b6101a061028c36600461240a565b6109d5565b61021b61029f366004612316565b610a61565b6007546102b890600160201b900460ff1681565b60405160ff90911681526020016101c3565b6007546102b89062010000900460ff1681565b6101a06102eb366004612434565b610a70565b6002546101df906001600160a01b031681565b61031661031136600461239e565b610b19565b6040516101c392919061246b565b6101a0610dae565b6005546101df906001600160a01b031681565b6101a061034d366004612316565b610dc1565b6003546101df906001600160a01b031681565b6101df610373366004612316565b610f78565b6101a0610386366004612383565b610f87565b6101a06103993660046124be565b611018565b6101df6110f2565b6101a06103b4366004612316565b611100565b61021b6103c7366004612316565b6111f6565b61021b6103da366004612316565b611205565b6101df6103ed366004612383565b60066020525f90815260409020546001600160a01b031681565b61021b60095481565b60075461041e9061ffff1681565b60405161ffff90911681526020016101c3565b6101a061043f366004612383565b611214565b61044c611251565b805f0361048257600554604051636b30633560e01b8152610479916001600160a01b03169060040161235b565b60405180910390fd5b60048054604051637060444560e01b81529182018390526001600160a01b0316906370604445906024015f604051808303815f87803b1580156104c3575f5ffd5b505af11580156104d5573d5f5f3e3d5ffd5b505060055460405163a9059cbb60e01b81525f93506001600160a01b03909116915063a9059cbb9061050d90339086906004016124d7565b6020604051808303815f875af1158015610529573d5f5f3e3d5ffd5b505050506040513d601f19601f8201168201806040525081019061054d91906124f0565b90508061056d576040516312171d8360e31b815260040160405180910390fd5b5050565b600d8181548110610580575f80fd5b5f918252602090912001546001600160a01b0316905081565b6105a1611251565b6001600160a01b0381166105c85760405163d92e233d60e01b815260040160405180910390fd5b6004546001600160a01b0316156105f257604051630ea075bf60e21b815260040160405180910390fd5b600480546001600160a01b0319166001600160a01b0392909216919091179055565b61061c611251565b6001600160a01b0381166106435760405163d92e233d60e01b815260040160405180910390fd5b60035f9054906101000a90046001600160a01b03166001600160a01b031663edcf9c1f6040518163ffffffff1660e01b8152600401602060405180830381865afa158015610693573d5f5f3e3d5ffd5b505050506040513d601f19601f820116820180604052508101906106b791906124f0565b6106d4576040516312aecd8160e01b815260040160405180910390fd5b600280546001600160a01b0319166001600160a01b0383169081179091556040517f6cc7ebdb6c8c53291c5ae16148cab9b049d23bf5bde5632900b40edff56fcb43905f90a250565b600f818154811061072c575f80fd5b5f91825260209091200154905081565b6107446110f2565b6001600160a01b0316336001600160a01b03161415801561077057506002546001600160a01b03163314155b1561078e5760405163ea8e4eb560e01b815260040160405180910390fd5b610796611283565b60058110156107b8576040516317dbc4cb60e21b815260040160405180910390fd5b5f806107c68385018561250f565b90925090506341659aab60e01b6001600160e01b03198316016107f0576107eb6112ad565b610852565b63100597e960e31b6001600160e01b0319831601610811576107eb816114e5565b63302c6bef60e21b6001600160e01b0319831601610832576107eb81611672565b6301c7bbc160e21b6001600160e01b03198316016108525761085261186a565b6040517ff0094b59b7bc92e9fc611b14b5d3a34fe02530ac9bcf36c2c6f10147c3030c12905f90a1505061056d60018055565b600354604051633821dad160e21b81526001600160a01b039091169063e0876b44906108b590339060040161235b565b602060405180830381865afa1580156108d0573d5f5f3e3d5ffd5b505050506040513d601f19601f820116820180604052508101906108f491906124f0565b6109115760405163ea8e4eb560e01b815260040160405180910390fd5b805f0361093e57600554604051636b30633560e01b8152610479916001600160a01b03169060040161235b565b60055460405163a9059cbb60e01b81525f916001600160a01b03169063a9059cbb9061097090869086906004016124d7565b6020604051808303815f875af115801561098c573d5f5f3e3d5ffd5b505050506040513d601f19601f820116820180604052508101906109b091906124f0565b9050806109d0576040516312171d8360e31b815260040160405180910390fd5b505050565b600354604051633821dad160e21b81526001600160a01b039091169063e0876b4490610a0590339060040161235b565b602060405180830381865afa158015610a20573d5f5f3e3d5ffd5b505050506040513d601f19601f82011682018060405250810190610a4491906124f0565b61093e5760405163ea8e4eb560e01b815260040160405180910390fd5b600c818154811061072c575f80fd5b6003546001600160a01b03163314610a9b5760405163ea8e4eb560e01b815260040160405180910390fd5b6001600160a01b0382161580610ab857506001600160a01b038116155b15610ad65760405163d92e233d60e01b815260040160405180910390fd5b6001600160a01b038281165f8181526006602052604080822080546001600160a01b0319169486169485179055515f5160206129915f395f51905f529190a35050565b5f606060035f9054906101000a90046001600160a01b03166001600160a01b031663edcf9c1f6040518163ffffffff1660e01b8152600401602060405180830381865afa158015610b6c573d5f5f3e3d5ffd5b505050506040513d601f19601f82011682018060405250810190610b9091906124f0565b8015610c1057506007546004805460408051630a58ce2d60e11b8152905161ffff909416936001600160a01b03909216926314b19c5a9282820192602092908290030181865afa158015610be6573d5f5f3e3d5ffd5b505050506040513d601f19601f82011682018060405250810190610c0a919061254e565b61ffff16115b15610c6257600191507fbe9a655586dceb82dfa0af992b5d8ae7fa45053cb7fd6f141f541da7572978c75f604051602001610c4c92919061256f565b6040516020818303038152906040529050610da7565b60016007546301000000900460ff166003811115610c8257610c8261232d565b03610ccd57600191507f7fd340b8241a93f6a116f506d6171d4f585588564d777e1192babae55184f691600760049054906101000a900460ff16604051602001610c4c92919061256f565b60026007546301000000900460ff166003811115610ced57610ced61232d565b03610d3857600191507f3f4e50448465d8594e91c1038b22f277808696956455dacacb66f00f4df0b3a2600760049054906101000a900460ff16604051602001610c4c92919061256f565b60036007546301000000900460ff166003811115610d5857610d5861232d565b03610d9457600191507ff8e110fcda2d74b2e1ced72f8e94b4510c922b70f786fd1064147a762fd812605f604051602001610c4c92919061256f565b505060408051602081019091525f808252905b9250929050565b610db6611251565b610dbf5f611c0d565b565b600354604051633821dad160e21b815233916001600160a01b03169063e0876b4490610df190849060040161235b565b602060405180830381865afa158015610e0c573d5f5f3e3d5ffd5b505050506040513d601f19601f82011682018060405250810190610e3091906124f0565b610e4d5760405163ea8e4eb560e01b815260040160405180910390fd5b815f03610e7a57600554604051636b30633560e01b8152610479916001600160a01b03169060040161235b565b5f816001600160a01b0316631f52692b6040518163ffffffff1660e01b8152600401602060405180830381865afa158015610eb7573d5f5f3e3d5ffd5b505050506040513d601f19601f82011682018060405250810190610edb919061258c565b60055460405163a9059cbb60e01b81529192505f916001600160a01b039091169063a9059cbb90610f1290859088906004016124d7565b6020604051808303815f875af1158015610f2e573d5f5f3e3d5ffd5b505050506040513d601f19601f82011682018060405250810190610f5291906124f0565b905080610f72576040516312171d8360e31b815260040160405180910390fd5b50505050565b600a8181548110610580575f80fd5b6003546001600160a01b03163314610fb25760405163ea8e4eb560e01b815260040160405180910390fd5b6001600160a01b038116610fd95760405163d92e233d60e01b815260040160405180910390fd5b6001600160a01b0381165f8181526006602052604080822080546001600160a01b0319169055519091905f5160206129915f395f51905f52908390a350565b611020611251565b8060ff165f03611043576040516317dbc4cb60e21b815260040160405180910390fd5b60035f9054906101000a90046001600160a01b03166001600160a01b031663edcf9c1f6040518163ffffffff1660e01b8152600401602060405180830381865afa158015611093573d5f5f3e3d5ffd5b505050506040513d601f19601f820116820180604052508101906110b791906124f0565b6110d4576040516312aecd8160e01b815260040160405180910390fd5b6007805460ff909216620100000262ff000019909216919091179055565b5f546001600160a01b031690565b611108611251565b805f03611128576040516317dbc4cb60e21b815260040160405180910390fd5b6107d081111561114b576040516317dbc4cb60e21b815260040160405180910390fd5b60035f9054906101000a90046001600160a01b03166001600160a01b031663edcf9c1f6040518163ffffffff1660e01b8152600401602060405180830381865afa15801561119b573d5f5f3e3d5ffd5b505050506040513d601f19601f820116820180604052508101906111bf91906124f0565b6111dc576040516312aecd8160e01b815260040160405180910390fd5b60088190556111f08161044c6103e8611c5c565b60095550565b600e818154811061072c575f80fd5b600b818154811061072c575f80fd5b61121c611251565b6001600160a01b038116611245575f604051631e4fbdf760e01b8152600401610479919061235b565b61124e81611c0d565b50565b3361125a6110f2565b6001600160a01b031614610dbf573360405163118cdaa760e01b8152600401610479919061235b565b6002600154036112a657604051633ee5aeb560e01b815260040160405180910390fd5b6002600155565b5f60045f9054906101000a90046001600160a01b03166001600160a01b03166314b19c5a6040518163ffffffff1660e01b8152600401602060405180830381865afa1580156112fe573d5f5f3e3d5ffd5b505050506040513d601f19601f82011682018060405250810190611322919061254e565b6007549091506113379061ffff1660016125bb565b61ffff168161ffff1610156113495750565b6007805461ffff191661ffff8316179055611365600a5f61224b565b611370600b5f61224b565b61137b600d5f61224b565b611386600e5f61224b565b611391600c5f61224b565b61139c600f5f61224b565b5f60108190556004805460408051631716e21f60e11b815290516001600160a01b0390921693632e2dc43e938281019391928290030181865afa1580156113e5573d5f5f3e3d5ffd5b505050506040513d5f823e601f3d908101601f1916820160405261140c919081019061270f565b600a5f600b5f600d5f600e5f600c5f600f5f8c9190509080519060200190611435929190612266565b50508a51611448919060208d0190612266565b5050895161145b919060208c0190612266565b5050885161146e919060208b01906122af565b50508751611481919060208a0190612266565b50508651611494919060208901906122af565b50506007805463ff000000191663010000001790555050600a545f03925061124e915050576007805463ff00000019166302000000179055600d545f0361124e57506007805463ff00000019169055565b60016007546301000000900460ff1660038111156115055761150561232d565b146115235760405163baf3f0f760e01b815260040160405180910390fd5b6007805460049061153d90600160201b900460ff1661281f565b91906101000a81548160ff021916908360ff1602179055505f600760029054906101000a900460ff1682611571919061283d565b60075460ff91821692505f9161158e9162010000900416836125bb565b600a5490915061ffff821611806115aa5750600a5461ffff8216145b156115c85750600a546007805464ffff000000191663020000001790555b815b8161ffff168161ffff161015610f72575f600a8261ffff16815481106115f2576115f2612860565b5f918252602090912001546005546001600160a01b03918216925016810361161a575061166a565b5f600b8361ffff168154811061163257611632612860565b905f5260205f20015490506116678282600c8661ffff168154811061165957611659612860565b905f5260205f200154611d0d565b50505b6001016115ca565b60026007546301000000900460ff1660038111156116925761169261232d565b146116b05760405163baf3f0f760e01b815260040160405180910390fd5b600780546004906116ca90600160201b900460ff1661281f565b91906101000a81548160ff021916908360ff1602179055505f600760029054906101000a900460ff16826116fe919061283d565b60075460ff91821692505f9161171b9162010000900416836125bb565b600d5490915061ffff821611806117375750600d5461ffff8216145b156117555750600d546007805464ffff000000191663030000001790555b815b8161ffff168161ffff1610156117ff575f600d8261ffff168154811061177f5761177f612860565b5f918252602090912001546005546001600160a01b0391821692501681036117a757506117f7565b5f600e8361ffff16815481106117bf576117bf612860565b905f5260205f20015490506117f48282600f8661ffff16815481106117e6576117e6612860565b905f5260205f200154611edf565b50505b600101611757565b50600d5461ffff8216036109d057600480546010546040516338b12abb60e21b8152928301526001600160a01b03169063e2c4aaec906024015f604051808303815f87803b15801561184f575f5ffd5b505af1158015611861573d5f5f3e3d5ffd5b50505050505050565b60036007546301000000900460ff16600381111561188a5761188a61232d565b146118a85760405163baf3f0f760e01b815260040160405180910390fd5b6007805463ff00000019169055600354604051631da09e4360e31b81525f916001600160a01b03169063ed04f218906118e5908490600401612874565b5f60405180830381865afa1580156118ff573d5f5f3e3d5ffd5b505050506040513d5f823e601f3d908101601f191682016040526119269190810190612888565b90505f5b81518161ffff161015611a60575f828261ffff168151811061194e5761194e612860565b6020908102919091010151600480546040516309958e4960e11b81529293505f926001600160a01b039091169163132b1c929161198d9186910161235b565b602060405180830381865afa1580156119a8573d5f5f3e3d5ffd5b505050506040513d601f19601f820116820180604052508101906119cc91906128c1565b6004805460405163e2638ff160e01b81529293505f926001600160a01b039091169163e2638ff191611a009187910161235b565b602060405180830381865afa158015611a1b573d5f5f3e3d5ffd5b505050506040513d601f19601f82011682018060405250810190611a3f91906128c1565b9050611a4c838383612090565b50505080611a59906128d8565b905061192a565b50600354604051631da09e4360e31b81525f916001600160a01b03169063ed04f21890611a9290600190600401612874565b5f60405180830381865afa158015611aac573d5f5f3e3d5ffd5b505050506040513d5f823e601f3d908101601f19168201604052611ad39190810190612888565b90505f5b81518161ffff1610156109d0575f828261ffff1681518110611afb57611afb612860565b6020908102919091010151600480546040516309958e4960e11b81529293505f926001600160a01b039091169163132b1c9291611b3a9186910161235b565b602060405180830381865afa158015611b55573d5f5f3e3d5ffd5b505050506040513d601f19601f82011682018060405250810190611b7991906128c1565b6004805460405163e2638ff160e01b81529293505f926001600160a01b039091169163e2638ff191611bad9187910161235b565b602060405180830381865afa158015611bc8573d5f5f3e3d5ffd5b505050506040513d601f19601f82011682018060405250810190611bec91906128c1565b9050611bf9838383612090565b50505080611c06906128d8565b9050611ad7565b5f80546001600160a01b038381166001600160a01b0319831681178455604051919092169283917f8be0079c531659141344cd1fd0a4f28419497f9722a3daafe3b4186f6b6457e09190a35050565b5f5f5f611c69868661221e565b91509150815f03611c8d57838181611c8357611c836128ef565b0492505050611d06565b818411611ca457611ca4600385150260111861223a565b5f848688095f868103871696879004966002600389028118808a02820302808a02820302808a02820302808a02820302808a02820302808a02909103029181900381900460010185841190960395909502919093039390930492909217029150505b9392505050565b6001600160a01b038084165f908152600660205260409020541680611d4557604051635048c2af60e11b815260040160405180910390fd5b5f611d63600854612710611d599190612903565b8490612710611c5c565b60405163095ea7b360e01b81529091506001600160a01b0386169063095ea7b390611d949085905f906004016124d7565b6020604051808303815f875af1158015611db0573d5f5f3e3d5ffd5b505050506040513d601f19601f82011682018060405250810190611dd491906124f0565b5060405163095ea7b360e01b81526001600160a01b0386169063095ea7b390611e0390859088906004016124d7565b6020604051808303815f875af1158015611e1f573d5f5f3e3d5ffd5b505050506040513d601f19601f82011682018060405250810190611e4391906124f0565b50604051633513923160e11b81525f906001600160a01b03841690636a27246290611e7690899089908790600401612916565b6020604051808303815f875af1158015611e92573d5f5f3e3d5ffd5b505050506040513d601f19601f82011682018060405250810190611eb691906128c1565b9050611ec28482612937565b60105f828254611ed29190612956565b9091555050505050505050565b6001600160a01b038084165f908152600660205260409020541680611f1757604051635048c2af60e11b815260040160405180910390fd5b5f611f2b600854612710611d59919061297d565b60055460405163095ea7b360e01b81529192506001600160a01b03169063095ea7b390611f5e9085905f906004016124d7565b6020604051808303815f875af1158015611f7a573d5f5f3e3d5ffd5b505050506040513d601f19601f82011682018060405250810190611f9e91906124f0565b5060055460405163095ea7b360e01b81526001600160a01b039091169063095ea7b390611fd190859085906004016124d7565b6020604051808303815f875af1158015611fed573d5f5f3e3d5ffd5b505050506040513d601f19601f8201168201806040525081019061201191906124f0565b5060405163a59ac6dd60e01b81525f906001600160a01b0384169063a59ac6dd9061204490899089908790600401612916565b6020604051808303815f875af1158015612060573d5f5f3e3d5ffd5b505050506040513d601f19601f8201168201806040525081019061208491906128c1565b9050611ec28185612937565b5f8390505f816001600160a01b031663f64c6f326040518163ffffffff1660e01b8152600401602060405180830381865afa1580156120d1573d5f5f3e3d5ffd5b505050506040513d601f19601f820116820180604052508101906120f591906128c1565b90505f826001600160a01b0316630a605c6d6040518163ffffffff1660e01b8152600401602060405180830381865afa158015612134573d5f5f3e3d5ffd5b505050506040513d601f19601f8201168201806040525081019061215891906128c1565b905081156121ba5760405163e5e9719360e01b8152600481018690526001600160a01b0384169063e5e97193906024015f604051808303815f87803b15801561219f575f5ffd5b505af11580156121b1573d5f5f3e3d5ffd5b50505050612216565b80156122165760405163493a6e2160e01b8152600481018590526001600160a01b0384169063493a6e21906024015f604051808303815f87803b1580156121ff575f5ffd5b505af1158015612211573d5f5f3e3d5ffd5b505050505b505050505050565b5f805f1983850993909202808410938190039390930393915050565b634e487b715f52806020526024601cfd5b5080545f8255905f5260205f209081019061124e9190612302565b828054828255905f5260205f2090810192821561229f579160200282015b8281111561229f578251825591602001919060010190612284565b506122ab929150612302565b5090565b828054828255905f5260205f2090810192821561229f579160200282015b8281111561229f57825182546001600160a01b0319166001600160a01b039091161782556020909201916001909101906122cd565b5b808211156122ab575f8155600101612303565b5f60208284031215612326575f5ffd5b5035919050565b634e487b7160e01b5f52602160045260245ffd5b60208101600483106123555761235561232d565b91905290565b6001600160a01b0391909116815260200190565b6001600160a01b038116811461124e575f5ffd5b5f60208284031215612393575f5ffd5b8135611d068161236f565b5f5f602083850312156123af575f5ffd5b82356001600160401b038111156123c4575f5ffd5b8301601f810185136123d4575f5ffd5b80356001600160401b038111156123e9575f5ffd5b8560208284010111156123fa575f5ffd5b6020919091019590945092505050565b5f5f6040838503121561241b575f5ffd5b82356124268161236f565b946020939093013593505050565b5f5f60408385031215612445575f5ffd5b82356124508161236f565b915060208301356124608161236f565b809150509250929050565b8215158152604060208201525f82518060408401528060208501606085015e5f606082850101526060601f19601f8301168401019150509392505050565b803560ff811681146124b9575f5ffd5b919050565b5f602082840312156124ce575f5ffd5b611d06826124a9565b6001600160a01b03929092168252602082015260400190565b5f60208284031215612500575f5ffd5b81518015158114611d06575f5ffd5b5f5f60408385031215612520575f5ffd5b82356001600160e01b031981168114612537575f5ffd5b9150612545602084016124a9565b90509250929050565b5f6020828403121561255e575f5ffd5b815161ffff81168114611d06575f5ffd5b6001600160e01b031992909216825260ff16602082015260400190565b5f6020828403121561259c575f5ffd5b8151611d068161236f565b634e487b7160e01b5f52601160045260245ffd5b61ffff81811683821601908111156125d5576125d56125a7565b92915050565b634e487b7160e01b5f52604160045260245ffd5b604051601f8201601f191681016001600160401b0381118282101715612617576126176125db565b604052919050565b5f6001600160401b03821115612637576126376125db565b5060051b60200190565b5f82601f830112612650575f5ffd5b815161266361265e8261261f565b6125ef565b8082825260208201915060208360051b860101925085831115612684575f5ffd5b602085015b838110156126aa57805161269c8161236f565b835260209283019201612689565b5095945050505050565b5f82601f8301126126c3575f5ffd5b81516126d161265e8261261f565b8082825260208201915060208360051b8601019250858311156126f2575f5ffd5b602085015b838110156126aa5780518352602092830192016126f7565b5f5f5f5f5f5f60c08789031215612724575f5ffd5b86516001600160401b03811115612739575f5ffd5b61274589828a01612641565b602089015190975090506001600160401b03811115612762575f5ffd5b61276e89828a016126b4565b604089015190965090506001600160401b0381111561278b575f5ffd5b61279789828a01612641565b606089015190955090506001600160401b038111156127b4575f5ffd5b6127c089828a016126b4565b608089015190945090506001600160401b038111156127dd575f5ffd5b6127e989828a016126b4565b60a089015190935090506001600160401b03811115612806575f5ffd5b61281289828a016126b4565b9150509295509295509295565b5f60ff821660ff8103612834576128346125a7565b60010192915050565b60ff8181168382160290811690818114612859576128596125a7565b5092915050565b634e487b7160e01b5f52603260045260245ffd5b60208101600283106123555761235561232d565b5f60208284031215612898575f5ffd5b81516001600160401b038111156128ad575f5ffd5b6128b984828501612641565b949350505050565b5f602082840312156128d1575f5ffd5b5051919050565b5f61ffff821661ffff8103612834576128346125a7565b634e487b7160e01b5f52601260045260245ffd5b818103818111156125d5576125d56125a7565b6001600160a01b039390931683526020830191909152604082015260600190565b8181035f831280158383131683831282161715612859576128596125a7565b8082018281125f831280158216821582161715612975576129756125a7565b505092915050565b808201808211156125d5576125d56125a756fe2f2727c7b3d9ee55de5c114f0cb7997ac7251a4cbfca4f2b2dc6969d86cce4f4a2646970667358221220d7cce2598943154646c586c658d8432353d8710b613f63664aca7f396a7993f764736f6c634300081c0033",
  "linkReferences": {},
  "deployedLinkReferences": {}
}