{
  "_format": "hh-sol-artifact-1",
  "contractName": "LiquidityOrchestrator",
  "sourceName": "contracts/orchestrators/LiquidityOrchestrator.sol",
  "abi": [
    {
      "inputs": [
        {
          "internalType": "address",
          "name": "initialOwner",
          "type": "address"
        },
        {
          "internalType": "address",
          "name": "config_",
          "type": "address"
        },
        {
          "internalType": "address",
          "name": "automationRegistry_",
          "type": "address"
        }
      ],
      "stateMutability": "nonpayable",
      "type": "constructor"
    },
    {
      "inputs": [],
      "name": "AdapterNotSet",
      "type": "error"
    },
    {
      "inputs": [],
      "name": "AlreadyRegistered",
      "type": "error"
    },
    {
      "inputs": [
        {
          "internalType": "address",
          "name": "asset",
          "type": "address"
        }
      ],
      "name": "AmountMustBeGreaterThanZero",
      "type": "error"
    },
    {
      "inputs": [],
      "name": "InvalidArguments",
      "type": "error"
    },
    {
      "inputs": [],
      "name": "InvalidState",
      "type": "error"
    },
    {
      "inputs": [],
      "name": "NotAuthorized",
      "type": "error"
    },
    {
      "inputs": [
        {
          "internalType": "address",
          "name": "owner",
          "type": "address"
        }
      ],
      "name": "OwnableInvalidOwner",
      "type": "error"
    },
    {
      "inputs": [
        {
          "internalType": "address",
          "name": "account",
          "type": "address"
        }
      ],
      "name": "OwnableUnauthorizedAccount",
      "type": "error"
    },
    {
      "inputs": [],
      "name": "ReentrancyGuardReentrantCall",
      "type": "error"
    },
    {
      "inputs": [],
      "name": "SystemNotIdle",
      "type": "error"
    },
    {
      "inputs": [],
      "name": "TransferFailed",
      "type": "error"
    },
    {
      "inputs": [],
      "name": "ZeroAddress",
      "type": "error"
    },
    {
      "anonymous": false,
      "inputs": [
        {
          "indexed": true,
          "internalType": "address",
          "name": "newAutomationRegistry",
          "type": "address"
        }
      ],
      "name": "AutomationRegistryUpdated",
      "type": "event"
    },
    {
      "anonymous": false,
      "inputs": [
        {
          "indexed": true,
          "internalType": "address",
          "name": "asset",
          "type": "address"
        },
        {
          "indexed": true,
          "internalType": "address",
          "name": "adapter",
          "type": "address"
        }
      ],
      "name": "ExecutionAdapterSet",
      "type": "event"
    },
    {
      "anonymous": false,
      "inputs": [
        {
          "indexed": true,
          "internalType": "address",
          "name": "previousOwner",
          "type": "address"
        },
        {
          "indexed": true,
          "internalType": "address",
          "name": "newOwner",
          "type": "address"
        }
      ],
      "name": "OwnershipTransferred",
      "type": "event"
    },
    {
      "anonymous": false,
      "inputs": [],
      "name": "PortfolioRebalanced",
      "type": "event"
    },
    {
      "inputs": [],
      "name": "automationRegistry",
      "outputs": [
        {
          "internalType": "address",
          "name": "",
          "type": "address"
        }
      ],
      "stateMutability": "view",
      "type": "function"
    },
    {
      "inputs": [
        {
          "internalType": "uint256",
          "name": "",
          "type": "uint256"
        }
      ],
      "name": "buyingAmounts",
      "outputs": [
        {
          "internalType": "uint256",
          "name": "",
          "type": "uint256"
        }
      ],
      "stateMutability": "view",
      "type": "function"
    },
    {
      "inputs": [
        {
          "internalType": "uint256",
          "name": "",
          "type": "uint256"
        }
      ],
      "name": "buyingEstimatedUnderlyingAmounts",
      "outputs": [
        {
          "internalType": "uint256",
          "name": "",
          "type": "uint256"
        }
      ],
      "stateMutability": "view",
      "type": "function"
    },
    {
      "inputs": [
        {
          "internalType": "uint256",
          "name": "",
          "type": "uint256"
        }
      ],
      "name": "buyingTokens",
      "outputs": [
        {
          "internalType": "address",
          "name": "",
          "type": "address"
        }
      ],
      "stateMutability": "view",
      "type": "function"
    },
    {
      "inputs": [
        {
          "internalType": "bytes",
          "name": "",
          "type": "bytes"
        }
      ],
      "name": "checkUpkeep",
      "outputs": [
        {
          "internalType": "bool",
          "name": "upkeepNeeded",
          "type": "bool"
        },
        {
          "internalType": "bytes",
          "name": "performData",
          "type": "bytes"
        }
      ],
      "stateMutability": "view",
      "type": "function"
    },
    {
      "inputs": [
        {
          "internalType": "uint256",
          "name": "amount",
          "type": "uint256"
        }
      ],
      "name": "claimProtocolFees",
      "outputs": [],
      "stateMutability": "nonpayable",
      "type": "function"
    },
    {
      "inputs": [],
      "name": "config",
      "outputs": [
        {
          "internalType": "contract IOrionConfig",
          "name": "",
          "type": "address"
        }
      ],
      "stateMutability": "view",
      "type": "function"
    },
    {
      "inputs": [],
      "name": "currentMinibatchIndex",
      "outputs": [
        {
          "internalType": "uint8",
          "name": "",
          "type": "uint8"
        }
      ],
      "stateMutability": "view",
      "type": "function"
    },
    {
      "inputs": [],
      "name": "currentPhase",
      "outputs": [
        {
          "internalType": "enum ILiquidityOrchestrator.LiquidityUpkeepPhase",
          "name": "",
          "type": "uint8"
        }
      ],
      "stateMutability": "view",
      "type": "function"
    },
    {
      "inputs": [],
      "name": "deltaBufferAmount",
      "outputs": [
        {
          "internalType": "int256",
          "name": "",
          "type": "int256"
        }
      ],
      "stateMutability": "view",
      "type": "function"
    },
    {
      "inputs": [
        {
          "internalType": "address",
          "name": "",
          "type": "address"
        }
      ],
      "name": "executionAdapterOf",
      "outputs": [
        {
          "internalType": "contract IExecutionAdapter",
          "name": "",
          "type": "address"
        }
      ],
      "stateMutability": "view",
      "type": "function"
    },
    {
      "inputs": [],
      "name": "executionMinibatchSize",
      "outputs": [
        {
          "internalType": "uint8",
          "name": "",
          "type": "uint8"
        }
      ],
      "stateMutability": "view",
      "type": "function"
    },
    {
      "inputs": [],
      "name": "internalStatesOrchestrator",
      "outputs": [
        {
          "internalType": "contract IInternalStateOrchestrator",
          "name": "",
          "type": "address"
        }
      ],
      "stateMutability": "view",
      "type": "function"
    },
    {
      "inputs": [],
      "name": "lastProcessedEpoch",
      "outputs": [
        {
          "internalType": "uint16",
          "name": "",
          "type": "uint16"
        }
      ],
      "stateMutability": "view",
      "type": "function"
    },
    {
      "inputs": [],
      "name": "owner",
      "outputs": [
        {
          "internalType": "address",
          "name": "",
          "type": "address"
        }
      ],
      "stateMutability": "view",
      "type": "function"
    },
    {
      "inputs": [
        {
          "internalType": "bytes",
          "name": "performData",
          "type": "bytes"
        }
      ],
      "name": "performUpkeep",
      "outputs": [],
      "stateMutability": "nonpayable",
      "type": "function"
    },
    {
      "inputs": [],
      "name": "renounceOwnership",
      "outputs": [],
      "stateMutability": "nonpayable",
      "type": "function"
    },
    {
      "inputs": [
        {
          "internalType": "address",
          "name": "user",
          "type": "address"
        },
        {
          "internalType": "uint256",
          "name": "amount",
          "type": "uint256"
        }
      ],
      "name": "returnDepositFunds",
      "outputs": [],
      "stateMutability": "nonpayable",
      "type": "function"
    },
    {
      "inputs": [
        {
          "internalType": "uint256",
          "name": "",
          "type": "uint256"
        }
      ],
      "name": "sellingAmounts",
      "outputs": [
        {
          "internalType": "uint256",
          "name": "",
          "type": "uint256"
        }
      ],
      "stateMutability": "view",
      "type": "function"
    },
    {
      "inputs": [
        {
          "internalType": "uint256",
          "name": "",
          "type": "uint256"
        }
      ],
      "name": "sellingEstimatedUnderlyingAmounts",
      "outputs": [
        {
          "internalType": "uint256",
          "name": "",
          "type": "uint256"
        }
      ],
      "stateMutability": "view",
      "type": "function"
    },
    {
      "inputs": [
        {
          "internalType": "uint256",
          "name": "",
          "type": "uint256"
        }
      ],
      "name": "sellingTokens",
      "outputs": [
        {
          "internalType": "address",
          "name": "",
          "type": "address"
        }
      ],
      "stateMutability": "view",
      "type": "function"
    },
    {
      "inputs": [
        {
          "internalType": "address",
          "name": "asset",
          "type": "address"
        },
        {
          "internalType": "contract IExecutionAdapter",
          "name": "adapter",
          "type": "address"
        }
      ],
      "name": "setExecutionAdapter",
      "outputs": [],
      "stateMutability": "nonpayable",
      "type": "function"
    },
    {
      "inputs": [
        {
          "internalType": "address",
          "name": "_internalStatesOrchestrator",
          "type": "address"
        }
      ],
      "name": "setInternalStatesOrchestrator",
      "outputs": [],
      "stateMutability": "nonpayable",
      "type": "function"
    },
    {
      "inputs": [
        {
          "internalType": "uint256",
          "name": "_slippageBound",
          "type": "uint256"
        }
      ],
      "name": "setSlippageBound",
      "outputs": [],
      "stateMutability": "nonpayable",
      "type": "function"
    },
    {
      "inputs": [],
      "name": "slippageBound",
      "outputs": [
        {
          "internalType": "uint256",
          "name": "",
          "type": "uint256"
        }
      ],
      "stateMutability": "view",
      "type": "function"
    },
    {
      "inputs": [],
      "name": "targetBufferRatio",
      "outputs": [
        {
          "internalType": "uint256",
          "name": "",
          "type": "uint256"
        }
      ],
      "stateMutability": "view",
      "type": "function"
    },
    {
      "inputs": [
        {
          "internalType": "uint256",
          "name": "amount",
          "type": "uint256"
        }
      ],
      "name": "transferCuratorFees",
      "outputs": [],
      "stateMutability": "nonpayable",
      "type": "function"
    },
    {
      "inputs": [
        {
          "internalType": "address",
          "name": "newOwner",
          "type": "address"
        }
      ],
      "name": "transferOwnership",
      "outputs": [],
      "stateMutability": "nonpayable",
      "type": "function"
    },
    {
      "inputs": [
        {
          "internalType": "address",
          "name": "user",
          "type": "address"
        },
        {
          "internalType": "uint256",
          "name": "amount",
          "type": "uint256"
        }
      ],
      "name": "transferRedemptionFunds",
      "outputs": [],
      "stateMutability": "nonpayable",
      "type": "function"
    },
    {
      "inputs": [],
      "name": "underlyingAsset",
      "outputs": [
        {
          "internalType": "address",
          "name": "",
          "type": "address"
        }
      ],
      "stateMutability": "view",
      "type": "function"
    },
    {
      "inputs": [
        {
          "internalType": "address",
          "name": "asset",
          "type": "address"
        }
      ],
      "name": "unsetExecutionAdapter",
      "outputs": [],
      "stateMutability": "nonpayable",
      "type": "function"
    },
    {
      "inputs": [
        {
          "internalType": "address",
          "name": "newAutomationRegistry",
          "type": "address"
        }
      ],
      "name": "updateAutomationRegistry",
      "outputs": [],
      "stateMutability": "nonpayable",
      "type": "function"
    },
    {
      "inputs": [
        {
          "internalType": "uint8",
          "name": "_executionMinibatchSize",
          "type": "uint8"
        }
      ],
      "name": "updateExecutionMinibatchSize",
      "outputs": [],
      "stateMutability": "nonpayable",
      "type": "function"
    }
  ],
  "bytecode": "0x608060405234801561000f575f5ffd5b506040516125ed3803806125ed83398101604081905261002e916101e3565b826001600160a01b03811661005c57604051631e4fbdf760e01b81525f600482015260240160405180910390fd5b6100658161017d565b50600180556001600160a01b0382166100915760405163d92e233d60e01b815260040160405180910390fd5b6001600160a01b0381166100b85760405163d92e233d60e01b815260040160405180910390fd5b600380546001600160a01b0319166001600160a01b03841690811790915560408051631c56369f60e21b81529051637158da7c916004808201926020929091908290030181865afa15801561010f573d5f5f3e3d5ffd5b505050506040513d601f19601f82011682018060405250810190610133919061022d565b600580546001600160a01b03199081166001600160a01b0393841617909155600280549091169290911691909117905550506007805464ffffffffff19166201000017905561024f565b5f80546001600160a01b038381166001600160a01b0319831681178455604051919092169283917f8be0079c531659141344cd1fd0a4f28419497f9722a3daafe3b4186f6b6457e09190a35050565b6001600160a01b03811681146101e0575f5ffd5b50565b5f5f5f606084860312156101f5575f5ffd5b8351610200816101cc565b6020850151909350610211816101cc565b6040850151909250610222816101cc565b809150509250925092565b5f6020828403121561023d575f5ffd5b8151610248816101cc565b9392505050565b6123918061025c5f395ff3fe608060405234801561000f575f5ffd5b5060043610610189575f3560e01c806301c621c11461018d578063055ad42e146101a257806309f2e19c146101cc5780630a8b78c7146101ec57806314b5d07f146101ff5780632be17d3b146102125780633369921a14610229578063348ec5c8146102325780633e765a9e146102455780634585e33b146102585780634adfc2e71461026b57806351edffb11461027e57806352e899fd146102915780635488cd62146102a457806357be01c1146102ca57806359017aa9146102dd5780635dc228a0146102f05780636e04ff0d14610303578063715018a6146103245780637158da7c1461032c578063741fca4b1461033f57806379502c55146103525780638157c1ab14610365578063841181ef146103785780638a0b0d381461038b5780638da5cb5b1461039e57806399cdc4b5146103a6578063bc504975146103b9578063be1b26a4146103cc578063d3f3506d146103df578063dab26e3b14610407578063ee6713df14610410578063f2fde38b14610431575b5f5ffd5b6101a061019b366004611d19565b610444565b005b6007546101b6906301000000900460ff1681565b6040516101c39190611d44565b60405180910390f35b6101df6101da366004611d19565b610571565b6040516101c39190611d6a565b6101a06101fa366004611d92565b610599565b6101a061020d366004611d92565b610614565b61021b60085481565b6040519081526020016101c3565b61021b60105481565b6004546101df906001600160a01b031681565b61021b610253366004611d19565b61071d565b6101a0610266366004611dad565b61073c565b6101a0610279366004611e19565b61083e565b6101a061028c366004611e19565b61098e565b61021b61029f366004611d19565b610a1a565b6007546102b890600160201b900460ff1681565b60405160ff90911681526020016101c3565b6007546102b89062010000900460ff1681565b6101a06102eb366004611e43565b610a29565b6002546101df906001600160a01b031681565b610316610311366004611dad565b610ad2565b6040516101c3929190611e7a565b6101a0610d0b565b6005546101df906001600160a01b031681565b6101a061034d366004611d19565b610d1e565b6003546101df906001600160a01b031681565b6101df610373366004611d19565b610ed5565b6101a0610386366004611d92565b610ee4565b6101a0610399366004611ecd565b610f75565b6101df61104f565b6101a06103b4366004611d19565b61105d565b61021b6103c7366004611d19565b611130565b61021b6103da366004611d19565b61113f565b6101df6103ed366004611d92565b60066020525f90815260409020546001600160a01b031681565b61021b60095481565b60075461041e9061ffff1681565b60405161ffff90911681526020016101c3565b6101a061043f366004611d92565b61114e565b61044c61118b565b805f0361048257600554604051636b30633560e01b8152610479916001600160a01b031690600401611d6a565b60405180910390fd5b60048054604051637060444560e01b81529182018390526001600160a01b0316906370604445906024015f604051808303815f87803b1580156104c3575f5ffd5b505af11580156104d5573d5f5f3e3d5ffd5b505060055460405163a9059cbb60e01b81525f93506001600160a01b03909116915063a9059cbb9061050d9033908690600401611ee6565b6020604051808303815f875af1158015610529573d5f5f3e3d5ffd5b505050506040513d601f19601f8201168201806040525081019061054d9190611eff565b90508061056d576040516312171d8360e31b815260040160405180910390fd5b5050565b600d8181548110610580575f80fd5b5f918252602090912001546001600160a01b0316905081565b6105a161118b565b6001600160a01b0381166105c85760405163d92e233d60e01b815260040160405180910390fd5b6004546001600160a01b0316156105f257604051630ea075bf60e21b815260040160405180910390fd5b600480546001600160a01b0319166001600160a01b0392909216919091179055565b61061c61118b565b6001600160a01b0381166106435760405163d92e233d60e01b815260040160405180910390fd5b60035f9054906101000a90046001600160a01b03166001600160a01b031663edcf9c1f6040518163ffffffff1660e01b8152600401602060405180830381865afa158015610693573d5f5f3e3d5ffd5b505050506040513d601f19601f820116820180604052508101906106b79190611eff565b6106d4576040516312aecd8160e01b815260040160405180910390fd5b600280546001600160a01b0319166001600160a01b0383169081179091556040517f6cc7ebdb6c8c53291c5ae16148cab9b049d23bf5bde5632900b40edff56fcb43905f90a250565b600f818154811061072c575f80fd5b5f91825260209091200154905081565b6002546001600160a01b031633146107675760405163ea8e4eb560e01b815260040160405180910390fd5b61076f6111bd565b6005811015610791576040516317dbc4cb60e21b815260040160405180910390fd5b5f8061079f83850185611f1e565b90925090506341659aab60e01b6001600160e01b03198316016107c9576107c46111e7565b61080b565b63100597e960e31b6001600160e01b03198316016107ea576107c48161141f565b63302c6bef60e21b6001600160e01b031983160161080b5761080b816115ac565b6040517ff0094b59b7bc92e9fc611b14b5d3a34fe02530ac9bcf36c2c6f10147c3030c12905f90a1505061056d60018055565b600354604051633821dad160e21b81526001600160a01b039091169063e0876b449061086e903390600401611d6a565b602060405180830381865afa158015610889573d5f5f3e3d5ffd5b505050506040513d601f19601f820116820180604052508101906108ad9190611eff565b6108ca5760405163ea8e4eb560e01b815260040160405180910390fd5b805f036108f757600554604051636b30633560e01b8152610479916001600160a01b031690600401611d6a565b60055460405163a9059cbb60e01b81525f916001600160a01b03169063a9059cbb906109299086908690600401611ee6565b6020604051808303815f875af1158015610945573d5f5f3e3d5ffd5b505050506040513d601f19601f820116820180604052508101906109699190611eff565b905080610989576040516312171d8360e31b815260040160405180910390fd5b505050565b600354604051633821dad160e21b81526001600160a01b039091169063e0876b44906109be903390600401611d6a565b602060405180830381865afa1580156109d9573d5f5f3e3d5ffd5b505050506040513d601f19601f820116820180604052508101906109fd9190611eff565b6108f75760405163ea8e4eb560e01b815260040160405180910390fd5b600c818154811061072c575f80fd5b6003546001600160a01b03163314610a545760405163ea8e4eb560e01b815260040160405180910390fd5b6001600160a01b0382161580610a7157506001600160a01b038116155b15610a8f5760405163d92e233d60e01b815260040160405180910390fd5b6001600160a01b038281165f8181526006602052604080822080546001600160a01b0319169486169485179055515f51602061233c5f395f51905f529190a35050565b5f606060035f9054906101000a90046001600160a01b03166001600160a01b031663edcf9c1f6040518163ffffffff1660e01b8152600401602060405180830381865afa158015610b25573d5f5f3e3d5ffd5b505050506040513d601f19601f82011682018060405250810190610b499190611eff565b8015610bc957506007546004805460408051630a58ce2d60e11b8152905161ffff909416936001600160a01b03909216926314b19c5a9282820192602092908290030181865afa158015610b9f573d5f5f3e3d5ffd5b505050506040513d601f19601f82011682018060405250810190610bc39190611f5d565b61ffff16115b15610c1b57600191507fbe9a655586dceb82dfa0af992b5d8ae7fa45053cb7fd6f141f541da7572978c75f604051602001610c05929190611f7e565b6040516020818303038152906040529050610d04565b60016007546301000000900460ff166002811115610c3b57610c3b611d30565b03610c8657600191507f7fd340b8241a93f6a116f506d6171d4f585588564d777e1192babae55184f691600760049054906101000a900460ff16604051602001610c05929190611f7e565b60026007546301000000900460ff166002811115610ca657610ca6611d30565b03610cf157600191507f3f4e50448465d8594e91c1038b22f277808696956455dacacb66f00f4df0b3a2600760049054906101000a900460ff16604051602001610c05929190611f7e565b505060408051602081019091525f808252905b9250929050565b610d1361118b565b610d1c5f61179e565b565b600354604051633821dad160e21b815233916001600160a01b03169063e0876b4490610d4e908490600401611d6a565b602060405180830381865afa158015610d69573d5f5f3e3d5ffd5b505050506040513d601f19601f82011682018060405250810190610d8d9190611eff565b610daa5760405163ea8e4eb560e01b815260040160405180910390fd5b815f03610dd757600554604051636b30633560e01b8152610479916001600160a01b031690600401611d6a565b5f816001600160a01b0316631f52692b6040518163ffffffff1660e01b8152600401602060405180830381865afa158015610e14573d5f5f3e3d5ffd5b505050506040513d601f19601f82011682018060405250810190610e389190611f9b565b60055460405163a9059cbb60e01b81529192505f916001600160a01b039091169063a9059cbb90610e6f9085908890600401611ee6565b6020604051808303815f875af1158015610e8b573d5f5f3e3d5ffd5b505050506040513d601f19601f82011682018060405250810190610eaf9190611eff565b905080610ecf576040516312171d8360e31b815260040160405180910390fd5b50505050565b600a8181548110610580575f80fd5b6003546001600160a01b03163314610f0f5760405163ea8e4eb560e01b815260040160405180910390fd5b6001600160a01b038116610f365760405163d92e233d60e01b815260040160405180910390fd5b6001600160a01b0381165f8181526006602052604080822080546001600160a01b0319169055519091905f51602061233c5f395f51905f52908390a350565b610f7d61118b565b8060ff165f03610fa0576040516317dbc4cb60e21b815260040160405180910390fd5b60035f9054906101000a90046001600160a01b03166001600160a01b031663edcf9c1f6040518163ffffffff1660e01b8152600401602060405180830381865afa158015610ff0573d5f5f3e3d5ffd5b505050506040513d601f19601f820116820180604052508101906110149190611eff565b611031576040516312aecd8160e01b815260040160405180910390fd5b6007805460ff909216620100000262ff000019909216919091179055565b5f546001600160a01b031690565b61106561118b565b805f03611085576040516317dbc4cb60e21b815260040160405180910390fd5b60035f9054906101000a90046001600160a01b03166001600160a01b031663edcf9c1f6040518163ffffffff1660e01b8152600401602060405180830381865afa1580156110d5573d5f5f3e3d5ffd5b505050506040513d601f19601f820116820180604052508101906110f99190611eff565b611116576040516312aecd8160e01b815260040160405180910390fd5b600881905561112a8161044c6103e86117ed565b60095550565b600e818154811061072c575f80fd5b600b818154811061072c575f80fd5b61115661118b565b6001600160a01b03811661117f575f604051631e4fbdf760e01b81526004016104799190611d6a565b6111888161179e565b50565b3361119461104f565b6001600160a01b031614610d1c573360405163118cdaa760e01b81526004016104799190611d6a565b6002600154036111e057604051633ee5aeb560e01b815260040160405180910390fd5b6002600155565b5f60045f9054906101000a90046001600160a01b03166001600160a01b03166314b19c5a6040518163ffffffff1660e01b8152600401602060405180830381865afa158015611238573d5f5f3e3d5ffd5b505050506040513d601f19601f8201168201806040525081019061125c9190611f5d565b6007549091506112719061ffff166001611fca565b61ffff168161ffff1610156112835750565b6007805461ffff191661ffff831617905561129f600a5f611c4e565b6112aa600b5f611c4e565b6112b5600d5f611c4e565b6112c0600e5f611c4e565b6112cb600c5f611c4e565b6112d6600f5f611c4e565b5f60108190556004805460408051631716e21f60e11b815290516001600160a01b0390921693632e2dc43e938281019391928290030181865afa15801561131f573d5f5f3e3d5ffd5b505050506040513d5f823e601f3d908101601f19168201604052611346919081019061211e565b600a5f600b5f600d5f600e5f600c5f600f5f8c919050908051906020019061136f929190611c69565b50508a51611382919060208d0190611c69565b50508951611395919060208c0190611c69565b505088516113a8919060208b0190611cb2565b505087516113bb919060208a0190611c69565b505086516113ce91906020890190611cb2565b50506007805463ff000000191663010000001790555050600a545f039250611188915050576007805463ff00000019166302000000179055600d545f0361118857506007805463ff00000019169055565b60016007546301000000900460ff16600281111561143f5761143f611d30565b1461145d5760405163baf3f0f760e01b815260040160405180910390fd5b6007805460049061147790600160201b900460ff1661222e565b91906101000a81548160ff021916908360ff1602179055505f600760029054906101000a900460ff16826114ab919061224c565b60075460ff91821692505f916114c8916201000090041683611fca565b600a5490915061ffff821611806114e45750600a5461ffff8216145b156115025750600a546007805464ffff000000191663020000001790555b815b8161ffff168161ffff161015610ecf575f600a8261ffff168154811061152c5761152c61226f565b5f918252602090912001546005546001600160a01b03918216925016810361155457506115a4565b5f600b8361ffff168154811061156c5761156c61226f565b905f5260205f20015490506115a18282600c8661ffff16815481106115935761159361226f565b905f5260205f20015461189e565b50505b600101611504565b60026007546301000000900460ff1660028111156115cc576115cc611d30565b146115ea5760405163baf3f0f760e01b815260040160405180910390fd5b6007805460049061160490600160201b900460ff1661222e565b91906101000a81548160ff021916908360ff1602179055505f600760029054906101000a900460ff1682611638919061224c565b60075460ff91821692505f91611655916201000090041683611fca565b600d5490915061ffff821611806116715750600d5461ffff8216145b156116895750600d546007805464ffff000000191690555b815b8161ffff168161ffff161015611733575f600d8261ffff16815481106116b3576116b361226f565b5f918252602090912001546005546001600160a01b0391821692501681036116db575061172b565b5f600e8361ffff16815481106116f3576116f361226f565b905f5260205f20015490506117288282600f8661ffff168154811061171a5761171a61226f565b905f5260205f200154611a70565b50505b60010161168b565b50600d5461ffff82160361098957600480546010546040516338b12abb60e21b8152928301526001600160a01b03169063e2c4aaec906024015f604051808303815f87803b158015611783575f5ffd5b505af1158015611795573d5f5f3e3d5ffd5b50505050505050565b5f80546001600160a01b038381166001600160a01b0319831681178455604051919092169283917f8be0079c531659141344cd1fd0a4f28419497f9722a3daafe3b4186f6b6457e09190a35050565b5f5f5f6117fa8686611c21565b91509150815f0361181e5783818161181457611814612283565b0492505050611897565b818411611835576118356003851502601118611c3d565b5f848688095f868103871696879004966002600389028118808a02820302808a02820302808a02820302808a02820302808a02820302808a02909103029181900381900460010185841190960395909502919093039390930492909217029150505b9392505050565b6001600160a01b038084165f9081526006602052604090205416806118d657604051635048c2af60e11b815260040160405180910390fd5b5f6118f46008546127106118ea9190612297565b84906127106117ed565b60405163095ea7b360e01b81529091506001600160a01b0386169063095ea7b3906119259085905f90600401611ee6565b6020604051808303815f875af1158015611941573d5f5f3e3d5ffd5b505050506040513d601f19601f820116820180604052508101906119659190611eff565b5060405163095ea7b360e01b81526001600160a01b0386169063095ea7b3906119949085908890600401611ee6565b6020604051808303815f875af11580156119b0573d5f5f3e3d5ffd5b505050506040513d601f19601f820116820180604052508101906119d49190611eff565b50604051633513923160e11b81525f906001600160a01b03841690636a27246290611a07908990899087906004016122aa565b6020604051808303815f875af1158015611a23573d5f5f3e3d5ffd5b505050506040513d601f19601f82011682018060405250810190611a4791906122cb565b9050611a5384826122e2565b60105f828254611a639190612301565b9091555050505050505050565b6001600160a01b038084165f908152600660205260409020541680611aa857604051635048c2af60e11b815260040160405180910390fd5b5f611abc6008546127106118ea9190612328565b60055460405163095ea7b360e01b81529192506001600160a01b03169063095ea7b390611aef9085905f90600401611ee6565b6020604051808303815f875af1158015611b0b573d5f5f3e3d5ffd5b505050506040513d601f19601f82011682018060405250810190611b2f9190611eff565b5060055460405163095ea7b360e01b81526001600160a01b039091169063095ea7b390611b629085908590600401611ee6565b6020604051808303815f875af1158015611b7e573d5f5f3e3d5ffd5b505050506040513d601f19601f82011682018060405250810190611ba29190611eff565b5060405163a59ac6dd60e01b81525f906001600160a01b0384169063a59ac6dd90611bd5908990899087906004016122aa565b6020604051808303815f875af1158015611bf1573d5f5f3e3d5ffd5b505050506040513d601f19601f82011682018060405250810190611c1591906122cb565b9050611a5381856122e2565b5f805f1983850993909202808410938190039390930393915050565b634e487b715f52806020526024601cfd5b5080545f8255905f5260205f20908101906111889190611d05565b828054828255905f5260205f20908101928215611ca2579160200282015b82811115611ca2578251825591602001919060010190611c87565b50611cae929150611d05565b5090565b828054828255905f5260205f20908101928215611ca2579160200282015b82811115611ca257825182546001600160a01b0319166001600160a01b03909116178255602090920191600190910190611cd0565b5b80821115611cae575f8155600101611d06565b5f60208284031215611d29575f5ffd5b5035919050565b634e487b7160e01b5f52602160045260245ffd5b6020810160038310611d6457634e487b7160e01b5f52602160045260245ffd5b91905290565b6001600160a01b0391909116815260200190565b6001600160a01b0381168114611188575f5ffd5b5f60208284031215611da2575f5ffd5b813561189781611d7e565b5f5f60208385031215611dbe575f5ffd5b82356001600160401b03811115611dd3575f5ffd5b8301601f81018513611de3575f5ffd5b80356001600160401b03811115611df8575f5ffd5b856020828401011115611e09575f5ffd5b6020919091019590945092505050565b5f5f60408385031215611e2a575f5ffd5b8235611e3581611d7e565b946020939093013593505050565b5f5f60408385031215611e54575f5ffd5b8235611e5f81611d7e565b91506020830135611e6f81611d7e565b809150509250929050565b8215158152604060208201525f82518060408401528060208501606085015e5f606082850101526060601f19601f8301168401019150509392505050565b803560ff81168114611ec8575f5ffd5b919050565b5f60208284031215611edd575f5ffd5b61189782611eb8565b6001600160a01b03929092168252602082015260400190565b5f60208284031215611f0f575f5ffd5b81518015158114611897575f5ffd5b5f5f60408385031215611f2f575f5ffd5b82356001600160e01b031981168114611f46575f5ffd5b9150611f5460208401611eb8565b90509250929050565b5f60208284031215611f6d575f5ffd5b815161ffff81168114611897575f5ffd5b6001600160e01b031992909216825260ff16602082015260400190565b5f60208284031215611fab575f5ffd5b815161189781611d7e565b634e487b7160e01b5f52601160045260245ffd5b61ffff8181168382160190811115611fe457611fe4611fb6565b92915050565b634e487b7160e01b5f52604160045260245ffd5b604051601f8201601f191681016001600160401b038111828210171561202657612026611fea565b604052919050565b5f6001600160401b0382111561204657612046611fea565b5060051b60200190565b5f82601f83011261205f575f5ffd5b815161207261206d8261202e565b611ffe565b8082825260208201915060208360051b860101925085831115612093575f5ffd5b602085015b838110156120b95780516120ab81611d7e565b835260209283019201612098565b5095945050505050565b5f82601f8301126120d2575f5ffd5b81516120e061206d8261202e565b8082825260208201915060208360051b860101925085831115612101575f5ffd5b602085015b838110156120b9578051835260209283019201612106565b5f5f5f5f5f5f60c08789031215612133575f5ffd5b86516001600160401b03811115612148575f5ffd5b61215489828a01612050565b602089015190975090506001600160401b03811115612171575f5ffd5b61217d89828a016120c3565b604089015190965090506001600160401b0381111561219a575f5ffd5b6121a689828a01612050565b606089015190955090506001600160401b038111156121c3575f5ffd5b6121cf89828a016120c3565b608089015190945090506001600160401b038111156121ec575f5ffd5b6121f889828a016120c3565b60a089015190935090506001600160401b03811115612215575f5ffd5b61222189828a016120c3565b9150509295509295509295565b5f60ff821660ff810361224357612243611fb6565b60010192915050565b60ff818116838216029081169081811461226857612268611fb6565b5092915050565b634e487b7160e01b5f52603260045260245ffd5b634e487b7160e01b5f52601260045260245ffd5b81810381811115611fe457611fe4611fb6565b6001600160a01b039390931683526020830191909152604082015260600190565b5f602082840312156122db575f5ffd5b5051919050565b8181035f83128015838313168383128216171561226857612268611fb6565b8082018281125f83128015821682158216171561232057612320611fb6565b505092915050565b80820180821115611fe457611fe4611fb656fe2f2727c7b3d9ee55de5c114f0cb7997ac7251a4cbfca4f2b2dc6969d86cce4f4a26469706673582212201ddc22ec7c9fc580f0c386ff074d931cdfda0b36d788787b3083bb05dd31950164736f6c634300081c0033",
  "linkReferences": {},
  "deployedLinkReferences": {}
}