{
  "_format": "hh-sol-artifact-1",
  "contractName": "LiquidityOrchestrator",
  "sourceName": "contracts/orchestrators/LiquidityOrchestrator.sol",
  "abi": [
    {
      "inputs": [
        {
          "internalType": "address",
          "name": "initialOwner",
          "type": "address"
        },
        {
          "internalType": "address",
          "name": "config_",
          "type": "address"
        },
        {
          "internalType": "address",
          "name": "automationRegistry_",
          "type": "address"
        }
      ],
      "stateMutability": "nonpayable",
      "type": "constructor"
    },
    {
      "inputs": [],
      "name": "AdapterNotSet",
      "type": "error"
    },
    {
      "inputs": [],
      "name": "AlreadyRegistered",
      "type": "error"
    },
    {
      "inputs": [
        {
          "internalType": "address",
          "name": "asset",
          "type": "address"
        }
      ],
      "name": "AmountMustBeGreaterThanZero",
      "type": "error"
    },
    {
      "inputs": [],
      "name": "InvalidArguments",
      "type": "error"
    },
    {
      "inputs": [],
      "name": "NotAuthorized",
      "type": "error"
    },
    {
      "inputs": [
        {
          "internalType": "address",
          "name": "owner",
          "type": "address"
        }
      ],
      "name": "OwnableInvalidOwner",
      "type": "error"
    },
    {
      "inputs": [
        {
          "internalType": "address",
          "name": "account",
          "type": "address"
        }
      ],
      "name": "OwnableUnauthorizedAccount",
      "type": "error"
    },
    {
      "inputs": [],
      "name": "SystemNotIdle",
      "type": "error"
    },
    {
      "inputs": [],
      "name": "TransferFailed",
      "type": "error"
    },
    {
      "inputs": [],
      "name": "ZeroAddress",
      "type": "error"
    },
    {
      "anonymous": false,
      "inputs": [
        {
          "indexed": true,
          "internalType": "address",
          "name": "newAutomationRegistry",
          "type": "address"
        }
      ],
      "name": "AutomationRegistryUpdated",
      "type": "event"
    },
    {
      "anonymous": false,
      "inputs": [
        {
          "indexed": true,
          "internalType": "address",
          "name": "asset",
          "type": "address"
        },
        {
          "indexed": true,
          "internalType": "address",
          "name": "adapter",
          "type": "address"
        }
      ],
      "name": "ExecutionAdapterSet",
      "type": "event"
    },
    {
      "anonymous": false,
      "inputs": [
        {
          "indexed": true,
          "internalType": "address",
          "name": "previousOwner",
          "type": "address"
        },
        {
          "indexed": true,
          "internalType": "address",
          "name": "newOwner",
          "type": "address"
        }
      ],
      "name": "OwnershipTransferred",
      "type": "event"
    },
    {
      "anonymous": false,
      "inputs": [],
      "name": "PortfolioRebalanced",
      "type": "event"
    },
    {
      "inputs": [],
      "name": "automationRegistry",
      "outputs": [
        {
          "internalType": "address",
          "name": "",
          "type": "address"
        }
      ],
      "stateMutability": "view",
      "type": "function"
    },
    {
      "inputs": [
        {
          "internalType": "bytes",
          "name": "",
          "type": "bytes"
        }
      ],
      "name": "checkUpkeep",
      "outputs": [
        {
          "internalType": "bool",
          "name": "upkeepNeeded",
          "type": "bool"
        },
        {
          "internalType": "bytes",
          "name": "performData",
          "type": "bytes"
        }
      ],
      "stateMutability": "view",
      "type": "function"
    },
    {
      "inputs": [
        {
          "internalType": "uint256",
          "name": "amount",
          "type": "uint256"
        }
      ],
      "name": "claimProtocolFees",
      "outputs": [],
      "stateMutability": "nonpayable",
      "type": "function"
    },
    {
      "inputs": [],
      "name": "config",
      "outputs": [
        {
          "internalType": "contract IOrionConfig",
          "name": "",
          "type": "address"
        }
      ],
      "stateMutability": "view",
      "type": "function"
    },
    {
      "inputs": [],
      "name": "currentPhase",
      "outputs": [
        {
          "internalType": "enum ILiquidityOrchestrator.LiquidityUpkeepPhase",
          "name": "",
          "type": "uint8"
        }
      ],
      "stateMutability": "view",
      "type": "function"
    },
    {
      "inputs": [
        {
          "internalType": "address",
          "name": "",
          "type": "address"
        }
      ],
      "name": "executionAdapterOf",
      "outputs": [
        {
          "internalType": "contract IExecutionAdapter",
          "name": "",
          "type": "address"
        }
      ],
      "stateMutability": "view",
      "type": "function"
    },
    {
      "inputs": [],
      "name": "executionMinibatchSize",
      "outputs": [
        {
          "internalType": "uint8",
          "name": "",
          "type": "uint8"
        }
      ],
      "stateMutability": "view",
      "type": "function"
    },
    {
      "inputs": [],
      "name": "internalStatesOrchestrator",
      "outputs": [
        {
          "internalType": "contract IInternalStateOrchestrator",
          "name": "",
          "type": "address"
        }
      ],
      "stateMutability": "view",
      "type": "function"
    },
    {
      "inputs": [],
      "name": "lastProcessedEpoch",
      "outputs": [
        {
          "internalType": "uint16",
          "name": "",
          "type": "uint16"
        }
      ],
      "stateMutability": "view",
      "type": "function"
    },
    {
      "inputs": [],
      "name": "owner",
      "outputs": [
        {
          "internalType": "address",
          "name": "",
          "type": "address"
        }
      ],
      "stateMutability": "view",
      "type": "function"
    },
    {
      "inputs": [
        {
          "internalType": "bytes",
          "name": "",
          "type": "bytes"
        }
      ],
      "name": "performUpkeep",
      "outputs": [],
      "stateMutability": "nonpayable",
      "type": "function"
    },
    {
      "inputs": [],
      "name": "renounceOwnership",
      "outputs": [],
      "stateMutability": "nonpayable",
      "type": "function"
    },
    {
      "inputs": [
        {
          "internalType": "address",
          "name": "user",
          "type": "address"
        },
        {
          "internalType": "uint256",
          "name": "amount",
          "type": "uint256"
        }
      ],
      "name": "returnDepositFunds",
      "outputs": [],
      "stateMutability": "nonpayable",
      "type": "function"
    },
    {
      "inputs": [
        {
          "internalType": "address",
          "name": "asset",
          "type": "address"
        },
        {
          "internalType": "contract IExecutionAdapter",
          "name": "adapter",
          "type": "address"
        }
      ],
      "name": "setExecutionAdapter",
      "outputs": [],
      "stateMutability": "nonpayable",
      "type": "function"
    },
    {
      "inputs": [
        {
          "internalType": "address",
          "name": "_internalStatesOrchestrator",
          "type": "address"
        }
      ],
      "name": "setInternalStatesOrchestrator",
      "outputs": [],
      "stateMutability": "nonpayable",
      "type": "function"
    },
    {
      "inputs": [
        {
          "internalType": "uint256",
          "name": "_slippageBound",
          "type": "uint256"
        }
      ],
      "name": "setSlippageBound",
      "outputs": [],
      "stateMutability": "nonpayable",
      "type": "function"
    },
    {
      "inputs": [],
      "name": "slippageBound",
      "outputs": [
        {
          "internalType": "uint256",
          "name": "",
          "type": "uint256"
        }
      ],
      "stateMutability": "view",
      "type": "function"
    },
    {
      "inputs": [],
      "name": "targetBufferRatio",
      "outputs": [
        {
          "internalType": "uint256",
          "name": "",
          "type": "uint256"
        }
      ],
      "stateMutability": "view",
      "type": "function"
    },
    {
      "inputs": [
        {
          "internalType": "uint256",
          "name": "amount",
          "type": "uint256"
        }
      ],
      "name": "transferCuratorFees",
      "outputs": [],
      "stateMutability": "nonpayable",
      "type": "function"
    },
    {
      "inputs": [
        {
          "internalType": "address",
          "name": "newOwner",
          "type": "address"
        }
      ],
      "name": "transferOwnership",
      "outputs": [],
      "stateMutability": "nonpayable",
      "type": "function"
    },
    {
      "inputs": [
        {
          "internalType": "address",
          "name": "user",
          "type": "address"
        },
        {
          "internalType": "uint256",
          "name": "amount",
          "type": "uint256"
        }
      ],
      "name": "transferRedemptionFunds",
      "outputs": [],
      "stateMutability": "nonpayable",
      "type": "function"
    },
    {
      "inputs": [],
      "name": "underlyingAsset",
      "outputs": [
        {
          "internalType": "address",
          "name": "",
          "type": "address"
        }
      ],
      "stateMutability": "view",
      "type": "function"
    },
    {
      "inputs": [
        {
          "internalType": "address",
          "name": "asset",
          "type": "address"
        }
      ],
      "name": "unsetExecutionAdapter",
      "outputs": [],
      "stateMutability": "nonpayable",
      "type": "function"
    },
    {
      "inputs": [
        {
          "internalType": "address",
          "name": "newAutomationRegistry",
          "type": "address"
        }
      ],
      "name": "updateAutomationRegistry",
      "outputs": [],
      "stateMutability": "nonpayable",
      "type": "function"
    },
    {
      "inputs": [
        {
          "internalType": "uint8",
          "name": "_executionMinibatchSize",
          "type": "uint8"
        }
      ],
      "name": "updateExecutionMinibatchSize",
      "outputs": [],
      "stateMutability": "nonpayable",
      "type": "function"
    }
  ],
  "bytecode": "0x608060405234801561000f575f5ffd5b50604051611cd2380380611cd283398101604081905261002e916101df565b826001600160a01b03811661005c57604051631e4fbdf760e01b81525f600482015260240160405180910390fd5b61006581610179565b506001600160a01b03821661008d5760405163d92e233d60e01b815260040160405180910390fd5b6001600160a01b0381166100b45760405163d92e233d60e01b815260040160405180910390fd5b600280546001600160a01b0319166001600160a01b03841690811790915560408051631c56369f60e21b81529051637158da7c916004808201926020929091908290030181865afa15801561010b573d5f5f3e3d5ffd5b505050506040513d601f19601f8201168201806040525081019061012f9190610229565b600480546001600160a01b03199081166001600160a01b0393841617909155600180549091169290911691909117905550506006805463ffffffff1916630100000017905561024b565b5f80546001600160a01b038381166001600160a01b0319831681178455604051919092169283917f8be0079c531659141344cd1fd0a4f28419497f9722a3daafe3b4186f6b6457e09190a35050565b6001600160a01b03811681146101dc575f5ffd5b50565b5f5f5f606084860312156101f1575f5ffd5b83516101fc816101c8565b602085015190935061020d816101c8565b604085015190925061021e816101c8565b809150509250925092565b5f60208284031215610239575f5ffd5b8151610244816101c8565b9392505050565b611a7a806102585f395ff3fe608060405234801561000f575f5ffd5b5060043610610131575f3560e01c806301c621c114610135578063055ad42e1461014a5780630a8b78c71461017357806314b5d07f146101865780632be17d3b14610199578063348ec5c8146101b05780634585e33b146101d05780634adfc2e7146101e357806351edffb1146101f657806357be01c11461020957806359017aa91461022f5780635dc228a0146102425780636e04ff0d14610255578063715018a6146102765780637158da7c1461027e578063741fca4b1461029157806379502c55146102a4578063841181ef146102b75780638a0b0d38146102ca5780638da5cb5b146102dd57806399cdc4b5146102e5578063d3f3506d146102f8578063dab26e3b14610320578063ee6713df14610329578063f2fde38b1461034a575b5f5ffd5b61014861014336600461159d565b61035d565b005b60065461015d9062010000900460ff1681565b60405161016a91906115c8565b60405180910390f35b6101486101813660046115f6565b61048c565b6101486101943660046115f6565b610507565b6101a260075481565b60405190815260200161016a565b6003546101c3906001600160a01b031681565b60405161016a9190611611565b6101486101de366004611625565b610610565b6101486101f1366004611691565b6109d8565b610148610204366004611691565b610b2a565b60065461021d906301000000900460ff1681565b60405160ff909116815260200161016a565b61014861023d3660046116bb565b610bb6565b6001546101c3906001600160a01b031681565b610268610263366004611625565b610c5f565b60405161016a9291906116f2565b610148610dc7565b6004546101c3906001600160a01b031681565b61014861029f36600461159d565b610dda565b6002546101c3906001600160a01b031681565b6101486102c53660046115f6565b610f91565b6101486102d8366004611730565b611022565b6101c36110fe565b6101486102f336600461159d565b61110c565b6101c36103063660046115f6565b60056020525f90815260409020546001600160a01b031681565b6101a260085481565b6006546103379061ffff1681565b60405161ffff909116815260200161016a565b6101486103583660046115f6565b6111df565b61036561121c565b805f0361039c5760048054604051636b30633560e01b8152610393926001600160a01b039092169101611611565b60405180910390fd5b600354604051637060444560e01b8152600481018390526001600160a01b03909116906370604445906024015f604051808303815f87803b1580156103df575f5ffd5b505af11580156103f1573d5f5f3e3d5ffd5b50506004805460405163a9059cbb60e01b81525f94506001600160a01b03909116925063a9059cbb91610428913391879101611750565b6020604051808303815f875af1158015610444573d5f5f3e3d5ffd5b505050506040513d601f19601f820116820180604052508101906104689190611769565b905080610488576040516312171d8360e31b815260040160405180910390fd5b5050565b61049461121c565b6001600160a01b0381166104bb5760405163d92e233d60e01b815260040160405180910390fd5b6003546001600160a01b0316156104e557604051630ea075bf60e21b815260040160405180910390fd5b600380546001600160a01b0319166001600160a01b0392909216919091179055565b61050f61121c565b6001600160a01b0381166105365760405163d92e233d60e01b815260040160405180910390fd5b60025f9054906101000a90046001600160a01b03166001600160a01b031663edcf9c1f6040518163ffffffff1660e01b8152600401602060405180830381865afa158015610586573d5f5f3e3d5ffd5b505050506040513d601f19601f820116820180604052508101906105aa9190611769565b6105c7576040516312aecd8160e01b815260040160405180910390fd5b600180546001600160a01b0319166001600160a01b0383169081179091556040517f6cc7ebdb6c8c53291c5ae16148cab9b049d23bf5bde5632900b40edff56fcb43905f90a250565b6001546001600160a01b0316331461063b5760405163ea8e4eb560e01b815260040160405180910390fd5b60035460408051630a58ce2d60e11b815290515f926001600160a01b0316916314b19c5a9160048083019260209291908290030181865afa158015610682573d5f5f3e3d5ffd5b505050506040513d601f19601f820116820180604052508101906106a69190611788565b6006549091506106bb9061ffff1660016117bd565b61ffff168161ffff1610156106cf57505050565b6006805461ffff191661ffff8316179055600354604080516318596bb160e31b815290515f9283926001600160a01b039091169163c2cb5d889160048082019286929091908290030181865afa15801561072b573d5f5f3e3d5ffd5b505050506040513d5f823e601f3d908101601f1916820160405261075291908101906118b6565b90925090505f5b82518161ffff1610156107c5575f838261ffff168151811061077d5761077d611974565b602002602001015190505f838361ffff168151811061079e5761079e611974565b602002602001015190506107b2828261124e565b5050806107be90611988565b9050610759565b505f5f60035f9054906101000a90046001600160a01b03166001600160a01b031663a08b82d76040518163ffffffff1660e01b81526004015f60405180830381865afa158015610817573d5f5f3e3d5ffd5b505050506040513d5f823e601f3d908101601f1916820160405261083e91908101906118b6565b90925090505f5b82518161ffff1610156108b1575f838261ffff168151811061086957610869611974565b602002602001015190505f838361ffff168151811061088a5761088a611974565b6020026020010151905061089e8282611377565b5050806108aa90611988565b9050610845565b50600254604051631da09e4360e31b81525f916001600160a01b03169063ed04f218906108e29084906004016119a8565b5f60405180830381865afa1580156108fc573d5f5f3e3d5ffd5b505050506040513d5f823e601f3d908101601f1916820160405261092391908101906119bc565b8051600254604051631da09e4360e31b815292935090915f916001600160a01b03169063ed04f2189061095b906001906004016119a8565b5f60405180830381865afa158015610975573d5f5f3e3d5ffd5b505050506040513d5f823e601f3d908101601f1916820160405261099c91908101906119bc565b80516040519093509091507ff0094b59b7bc92e9fc611b14b5d3a34fe02530ac9bcf36c2c6f10147c3030c12905f90a150505050505050505050565b600254604051633821dad160e21b81526001600160a01b039091169063e0876b4490610a08903390600401611611565b602060405180830381865afa158015610a23573d5f5f3e3d5ffd5b505050506040513d601f19601f82011682018060405250810190610a479190611769565b610a645760405163ea8e4eb560e01b815260040160405180910390fd5b805f03610a925760048054604051636b30633560e01b8152610393926001600160a01b039092169101611611565b6004805460405163a9059cbb60e01b81525f926001600160a01b039092169163a9059cbb91610ac5918791879101611750565b6020604051808303815f875af1158015610ae1573d5f5f3e3d5ffd5b505050506040513d601f19601f82011682018060405250810190610b059190611769565b905080610b25576040516312171d8360e31b815260040160405180910390fd5b505050565b600254604051633821dad160e21b81526001600160a01b039091169063e0876b4490610b5a903390600401611611565b602060405180830381865afa158015610b75573d5f5f3e3d5ffd5b505050506040513d601f19601f82011682018060405250810190610b999190611769565b610a925760405163ea8e4eb560e01b815260040160405180910390fd5b6002546001600160a01b03163314610be15760405163ea8e4eb560e01b815260040160405180910390fd5b6001600160a01b0382161580610bfe57506001600160a01b038116155b15610c1c5760405163d92e233d60e01b815260040160405180910390fd5b6001600160a01b038281165f8181526005602052604080822080546001600160a01b0319169486169485179055515f516020611a255f395f51905f529190a35050565b5f60605f60035f9054906101000a90046001600160a01b03166001600160a01b03166314b19c5a6040518163ffffffff1660e01b8152600401602060405180830381865afa158015610cb3573d5f5f3e3d5ffd5b505050506040513d601f19601f82011682018060405250810190610cd79190611788565b60065490915061ffff908116908216118015610d62575060025f9054906101000a90046001600160a01b03166001600160a01b031663edcf9c1f6040518163ffffffff1660e01b8152600401602060405180830381865afa158015610d3e573d5f5f3e3d5ffd5b505050506040513d601f19601f82011682018060405250810190610d629190611769565b15610daa5760019250604051602001610d94906020808252600590820152641cdd185c9d60da1b604082015260600190565b6040516020818303038152906040529150610dbf565b5f925060405180602001604052805f81525091505b509250929050565b610dcf61121c565b610dd85f611470565b565b600254604051633821dad160e21b815233916001600160a01b03169063e0876b4490610e0a908490600401611611565b602060405180830381865afa158015610e25573d5f5f3e3d5ffd5b505050506040513d601f19601f82011682018060405250810190610e499190611769565b610e665760405163ea8e4eb560e01b815260040160405180910390fd5b815f03610e945760048054604051636b30633560e01b8152610393926001600160a01b039092169101611611565b5f816001600160a01b0316631f52692b6040518163ffffffff1660e01b8152600401602060405180830381865afa158015610ed1573d5f5f3e3d5ffd5b505050506040513d601f19601f82011682018060405250810190610ef591906119f5565b6004805460405163a9059cbb60e01b81529293505f926001600160a01b039091169163a9059cbb91610f2b918691899101611750565b6020604051808303815f875af1158015610f47573d5f5f3e3d5ffd5b505050506040513d601f19601f82011682018060405250810190610f6b9190611769565b905080610f8b576040516312171d8360e31b815260040160405180910390fd5b50505050565b6002546001600160a01b03163314610fbc5760405163ea8e4eb560e01b815260040160405180910390fd5b6001600160a01b038116610fe35760405163d92e233d60e01b815260040160405180910390fd5b6001600160a01b0381165f8181526005602052604080822080546001600160a01b0319169055519091905f516020611a255f395f51905f52908390a350565b61102a61121c565b8060ff165f0361104d576040516317dbc4cb60e21b815260040160405180910390fd5b60025f9054906101000a90046001600160a01b03166001600160a01b031663edcf9c1f6040518163ffffffff1660e01b8152600401602060405180830381865afa15801561109d573d5f5f3e3d5ffd5b505050506040513d601f19601f820116820180604052508101906110c19190611769565b6110de576040516312aecd8160e01b815260040160405180910390fd5b6006805460ff90921663010000000263ff00000019909216919091179055565b5f546001600160a01b031690565b61111461121c565b805f03611134576040516317dbc4cb60e21b815260040160405180910390fd5b60025f9054906101000a90046001600160a01b03166001600160a01b031663edcf9c1f6040518163ffffffff1660e01b8152600401602060405180830381865afa158015611184573d5f5f3e3d5ffd5b505050506040513d601f19601f820116820180604052508101906111a89190611769565b6111c5576040516312aecd8160e01b815260040160405180910390fd5b60078190556111d98161044c6103e86114bf565b60085550565b6111e761121c565b6001600160a01b038116611210575f604051631e4fbdf760e01b81526004016103939190611611565b61121981611470565b50565b336112256110fe565b6001600160a01b031614610dd8573360405163118cdaa760e01b81526004016103939190611611565b6001600160a01b038083165f90815260056020526040902054168061128657604051635048c2af60e11b815260040160405180910390fd5b60405163095ea7b360e01b81525f906001600160a01b0385169063095ea7b3906112b69085908790600401611750565b6020604051808303815f875af11580156112d2573d5f5f3e3d5ffd5b505050506040513d601f19601f820116820180604052508101906112f69190611769565b905080611316576040516312171d8360e31b815260040160405180910390fd5b604051636c197ff560e01b81526001600160a01b03831690636c197ff5906113449087908790600401611750565b5f604051808303815f87803b15801561135b575f5ffd5b505af115801561136d573d5f5f3e3d5ffd5b5050505050505050565b6001600160a01b038083165f9081526005602052604090205416806113af57604051635048c2af60e11b815260040160405180910390fd5b6004805460405163095ea7b360e01b81525f926001600160a01b039092169163095ea7b3916113e2918691889101611750565b6020604051808303815f875af11580156113fe573d5f5f3e3d5ffd5b505050506040513d601f19601f820116820180604052508101906114229190611769565b905080611442576040516312171d8360e31b815260040160405180910390fd5b60405163cce7ec1360e01b81526001600160a01b0383169063cce7ec13906113449087908790600401611750565b5f80546001600160a01b038381166001600160a01b0319831681178455604051919092169283917f8be0079c531659141344cd1fd0a4f28419497f9722a3daafe3b4186f6b6457e09190a35050565b5f5f5f6114cc8686611570565b91509150815f036114f0578381816114e6576114e6611a10565b0492505050611569565b81841161150757611507600385150260111861158c565b5f848688095f868103871696879004966002600389028118808a02820302808a02820302808a02820302808a02820302808a02820302808a02909103029181900381900460010185841190960395909502919093039390930492909217029150505b9392505050565b5f805f1983850993909202808410938190039390930393915050565b634e487b715f52806020526024601cfd5b5f602082840312156115ad575f5ffd5b5035919050565b634e487b7160e01b5f52602160045260245ffd5b60208101600483106115dc576115dc6115b4565b91905290565b6001600160a01b0381168114611219575f5ffd5b5f60208284031215611606575f5ffd5b8135611569816115e2565b6001600160a01b0391909116815260200190565b5f5f60208385031215611636575f5ffd5b82356001600160401b0381111561164b575f5ffd5b8301601f8101851361165b575f5ffd5b80356001600160401b03811115611670575f5ffd5b856020828401011115611681575f5ffd5b6020919091019590945092505050565b5f5f604083850312156116a2575f5ffd5b82356116ad816115e2565b946020939093013593505050565b5f5f604083850312156116cc575f5ffd5b82356116d7816115e2565b915060208301356116e7816115e2565b809150509250929050565b8215158152604060208201525f82518060408401528060208501606085015e5f606082850101526060601f19601f8301168401019150509392505050565b5f60208284031215611740575f5ffd5b813560ff81168114611569575f5ffd5b6001600160a01b03929092168252602082015260400190565b5f60208284031215611779575f5ffd5b81518015158114611569575f5ffd5b5f60208284031215611798575f5ffd5b815161ffff81168114611569575f5ffd5b634e487b7160e01b5f52601160045260245ffd5b61ffff81811683821601908111156117d7576117d76117a9565b92915050565b634e487b7160e01b5f52604160045260245ffd5b604051601f8201601f191681016001600160401b0381118282101715611819576118196117dd565b604052919050565b5f6001600160401b03821115611839576118396117dd565b5060051b60200190565b5f82601f830112611852575f5ffd5b815161186561186082611821565b6117f1565b8082825260208201915060208360051b860101925085831115611886575f5ffd5b602085015b838110156118ac57805161189e816115e2565b83526020928301920161188b565b5095945050505050565b5f5f604083850312156118c7575f5ffd5b82516001600160401b038111156118dc575f5ffd5b6118e885828601611843565b602085015190935090506001600160401b03811115611905575f5ffd5b8301601f81018513611915575f5ffd5b805161192361186082611821565b8082825260208201915060208360051b850101925087831115611944575f5ffd5b6020840193505b8284101561196657835182526020938401939091019061194b565b809450505050509250929050565b634e487b7160e01b5f52603260045260245ffd5b5f61ffff821661ffff810361199f5761199f6117a9565b60010192915050565b60208101600283106115dc576115dc6115b4565b5f602082840312156119cc575f5ffd5b81516001600160401b038111156119e1575f5ffd5b6119ed84828501611843565b949350505050565b5f60208284031215611a05575f5ffd5b8151611569816115e2565b634e487b7160e01b5f52601260045260245ffdfe2f2727c7b3d9ee55de5c114f0cb7997ac7251a4cbfca4f2b2dc6969d86cce4f4a26469706673582212200f5e72d837ecfeb831295692d465fee1a57a8b803d2f99421af10854db0ff84b64736f6c634300081c0033",
  "linkReferences": {},
  "deployedLinkReferences": {}
}