{
  "_format": "hh-sol-artifact-1",
  "contractName": "LiquidityOrchestrator",
  "sourceName": "contracts/orchestrators/LiquidityOrchestrator.sol",
  "abi": [
    {
      "inputs": [
        {
          "internalType": "address",
          "name": "initialOwner",
          "type": "address"
        },
        {
          "internalType": "address",
          "name": "config_",
          "type": "address"
        },
        {
          "internalType": "address",
          "name": "automationRegistry_",
          "type": "address"
        }
      ],
      "stateMutability": "nonpayable",
      "type": "constructor"
    },
    {
      "inputs": [],
      "name": "AdapterNotSet",
      "type": "error"
    },
    {
      "inputs": [],
      "name": "NotAuthorized",
      "type": "error"
    },
    {
      "inputs": [
        {
          "internalType": "address",
          "name": "owner",
          "type": "address"
        }
      ],
      "name": "OwnableInvalidOwner",
      "type": "error"
    },
    {
      "inputs": [
        {
          "internalType": "address",
          "name": "account",
          "type": "address"
        }
      ],
      "name": "OwnableUnauthorizedAccount",
      "type": "error"
    },
    {
      "inputs": [],
      "name": "SystemNotIdle",
      "type": "error"
    },
    {
      "inputs": [],
      "name": "TransferFailed",
      "type": "error"
    },
    {
      "inputs": [],
      "name": "ZeroAddress",
      "type": "error"
    },
    {
      "anonymous": false,
      "inputs": [
        {
          "indexed": true,
          "internalType": "address",
          "name": "newAutomationRegistry",
          "type": "address"
        }
      ],
      "name": "AutomationRegistryUpdated",
      "type": "event"
    },
    {
      "anonymous": false,
      "inputs": [
        {
          "indexed": true,
          "internalType": "address",
          "name": "asset",
          "type": "address"
        },
        {
          "indexed": true,
          "internalType": "address",
          "name": "adapter",
          "type": "address"
        }
      ],
      "name": "ExecutionAdapterSet",
      "type": "event"
    },
    {
      "anonymous": false,
      "inputs": [
        {
          "indexed": true,
          "internalType": "address",
          "name": "previousOwner",
          "type": "address"
        },
        {
          "indexed": true,
          "internalType": "address",
          "name": "newOwner",
          "type": "address"
        }
      ],
      "name": "OwnershipTransferred",
      "type": "event"
    },
    {
      "anonymous": false,
      "inputs": [],
      "name": "PortfolioRebalanced",
      "type": "event"
    },
    {
      "inputs": [],
      "name": "automationRegistry",
      "outputs": [
        {
          "internalType": "address",
          "name": "",
          "type": "address"
        }
      ],
      "stateMutability": "view",
      "type": "function"
    },
    {
      "inputs": [
        {
          "internalType": "bytes",
          "name": "",
          "type": "bytes"
        }
      ],
      "name": "checkUpkeep",
      "outputs": [
        {
          "internalType": "bool",
          "name": "upkeepNeeded",
          "type": "bool"
        },
        {
          "internalType": "bytes",
          "name": "performData",
          "type": "bytes"
        }
      ],
      "stateMutability": "view",
      "type": "function"
    },
    {
      "inputs": [],
      "name": "config",
      "outputs": [
        {
          "internalType": "contract IOrionConfig",
          "name": "",
          "type": "address"
        }
      ],
      "stateMutability": "view",
      "type": "function"
    },
    {
      "inputs": [],
      "name": "currentPhase",
      "outputs": [
        {
          "internalType": "enum ILiquidityOrchestrator.LiquidityUpkeepPhase",
          "name": "",
          "type": "uint8"
        }
      ],
      "stateMutability": "view",
      "type": "function"
    },
    {
      "inputs": [
        {
          "internalType": "address",
          "name": "",
          "type": "address"
        }
      ],
      "name": "executionAdapterOf",
      "outputs": [
        {
          "internalType": "contract IExecutionAdapter",
          "name": "",
          "type": "address"
        }
      ],
      "stateMutability": "view",
      "type": "function"
    },
    {
      "inputs": [],
      "name": "internalStatesOrchestrator",
      "outputs": [
        {
          "internalType": "contract IInternalStateOrchestrator",
          "name": "",
          "type": "address"
        }
      ],
      "stateMutability": "view",
      "type": "function"
    },
    {
      "inputs": [],
      "name": "lastProcessedEpoch",
      "outputs": [
        {
          "internalType": "uint256",
          "name": "",
          "type": "uint256"
        }
      ],
      "stateMutability": "view",
      "type": "function"
    },
    {
      "inputs": [],
      "name": "owner",
      "outputs": [
        {
          "internalType": "address",
          "name": "",
          "type": "address"
        }
      ],
      "stateMutability": "view",
      "type": "function"
    },
    {
      "inputs": [
        {
          "internalType": "bytes",
          "name": "",
          "type": "bytes"
        }
      ],
      "name": "performUpkeep",
      "outputs": [],
      "stateMutability": "nonpayable",
      "type": "function"
    },
    {
      "inputs": [],
      "name": "renounceOwnership",
      "outputs": [],
      "stateMutability": "nonpayable",
      "type": "function"
    },
    {
      "inputs": [
        {
          "internalType": "address",
          "name": "user",
          "type": "address"
        },
        {
          "internalType": "uint256",
          "name": "amount",
          "type": "uint256"
        }
      ],
      "name": "returnDepositFunds",
      "outputs": [],
      "stateMutability": "nonpayable",
      "type": "function"
    },
    {
      "inputs": [
        {
          "internalType": "address",
          "name": "user",
          "type": "address"
        },
        {
          "internalType": "uint256",
          "name": "shares",
          "type": "uint256"
        }
      ],
      "name": "returnWithdrawShares",
      "outputs": [],
      "stateMutability": "nonpayable",
      "type": "function"
    },
    {
      "inputs": [
        {
          "internalType": "address",
          "name": "asset",
          "type": "address"
        },
        {
          "internalType": "contract IExecutionAdapter",
          "name": "adapter",
          "type": "address"
        }
      ],
      "name": "setExecutionAdapter",
      "outputs": [],
      "stateMutability": "nonpayable",
      "type": "function"
    },
    {
      "inputs": [
        {
          "internalType": "address",
          "name": "newOwner",
          "type": "address"
        }
      ],
      "name": "transferOwnership",
      "outputs": [],
      "stateMutability": "nonpayable",
      "type": "function"
    },
    {
      "inputs": [],
      "name": "underlyingAsset",
      "outputs": [
        {
          "internalType": "address",
          "name": "",
          "type": "address"
        }
      ],
      "stateMutability": "view",
      "type": "function"
    },
    {
      "inputs": [
        {
          "internalType": "address",
          "name": "asset",
          "type": "address"
        }
      ],
      "name": "unsetExecutionAdapter",
      "outputs": [],
      "stateMutability": "nonpayable",
      "type": "function"
    },
    {
      "inputs": [
        {
          "internalType": "address",
          "name": "newAutomationRegistry",
          "type": "address"
        }
      ],
      "name": "updateAutomationRegistry",
      "outputs": [],
      "stateMutability": "nonpayable",
      "type": "function"
    },
    {
      "inputs": [],
      "name": "updateFromConfig",
      "outputs": [],
      "stateMutability": "nonpayable",
      "type": "function"
    }
  ],
  "bytecode": "0x608060405234801561000f575f5ffd5b506040516117f73803806117f783398101604081905261002e91610259565b826001600160a01b03811661005c57604051631e4fbdf760e01b81525f600482015260240160405180910390fd5b610065816101f3565b506001600160a01b03821661008d5760405163d92e233d60e01b815260040160405180910390fd5b6001600160a01b0381166100b45760405163d92e233d60e01b815260040160405180910390fd5b600280546001600160a01b0319166001600160a01b03841690811790915560408051630691d8b960e31b8152905163348ec5c8916004808201926020929091908290030181865afa15801561010b573d5f5f3e3d5ffd5b505050506040513d601f19601f8201168201806040525081019061012f91906102a3565b600380546001600160a01b0319166001600160a01b0392831617905560025460408051631c56369f60e21b815290519190921691637158da7c9160048083019260209291908290030181865afa15801561018b573d5f5f3e3d5ffd5b505050506040513d601f19601f820116820180604052508101906101af91906102a3565b600480546001600160a01b039283166001600160a01b0319918216179091556001805493909216921691909117905550505f6006556007805460ff191690556102c5565b5f80546001600160a01b038381166001600160a01b0319831681178455604051919092169283917f8be0079c531659141344cd1fd0a4f28419497f9722a3daafe3b4186f6b6457e09190a35050565b6001600160a01b0381168114610256575f5ffd5b50565b5f5f5f6060848603121561026b575f5ffd5b835161027681610242565b602085015190935061028781610242565b604085015190925061029881610242565b809150509250925092565b5f602082840312156102b3575f5ffd5b81516102be81610242565b9392505050565b611525806102d25f395ff3fe608060405234801561000f575f5ffd5b5060043610610111575f3560e01c8063715018a61161009e5780638da5cb5b1161006e5780638da5cb5b1461022e578063be186b201461023e578063d3f3506d14610251578063ee6713df14610279578063f2fde38b14610290575f5ffd5b8063715018a6146101ed5780637158da7c146101f557806379502c5514610208578063841181ef1461021b575f5ffd5b80634585e33b116100e45780634585e33b1461018057806351edffb11461019357806359017aa9146101a65780635dc228a0146101b95780636e04ff0d146101cc575f5ffd5b8063055ad42e1461011557806314b5d07f14610138578063288157e91461014d578063348ec5c814610155575b5f5ffd5b6007546101229060ff1681565b60405161012f9190611146565b60405180910390f35b61014b610146366004611174565b6102a3565b005b61014b6103ac565b600354610168906001600160a01b031681565b6040516001600160a01b03909116815260200161012f565b61014b61018e366004611196565b61055b565b61014b6101a1366004611204565b61092a565b61014b6101b436600461122e565b610a4f565b600154610168906001600160a01b031681565b6101df6101da366004611196565b610b0b565b60405161012f929190611265565b61014b610c6a565b600454610168906001600160a01b031681565b600254610168906001600160a01b031681565b61014b610229366004611174565b610c7d565b5f546001600160a01b0316610168565b61014b61024c366004611204565b610d21565b61016861025f366004611174565b60056020525f90815260409020546001600160a01b031681565b61028260065481565b60405190815260200161012f565b61014b61029e366004611174565b610e40565b6102ab610e82565b6001600160a01b0381166102d25760405163d92e233d60e01b815260040160405180910390fd5b60025f9054906101000a90046001600160a01b03166001600160a01b031663edcf9c1f6040518163ffffffff1660e01b8152600401602060405180830381865afa158015610322573d5f5f3e3d5ffd5b505050506040513d601f19601f8201168201806040525081019061034691906112a3565b610363576040516312aecd8160e01b815260040160405180910390fd5b600180546001600160a01b0319166001600160a01b0383169081179091556040517f6cc7ebdb6c8c53291c5ae16148cab9b049d23bf5bde5632900b40edff56fcb43905f90a250565b6103b4610e82565b60025f9054906101000a90046001600160a01b03166001600160a01b031663edcf9c1f6040518163ffffffff1660e01b8152600401602060405180830381865afa158015610404573d5f5f3e3d5ffd5b505050506040513d601f19601f8201168201806040525081019061042891906112a3565b610445576040516312aecd8160e01b815260040160405180910390fd5b60025f9054906101000a90046001600160a01b03166001600160a01b031663348ec5c86040518163ffffffff1660e01b8152600401602060405180830381865afa158015610495573d5f5f3e3d5ffd5b505050506040513d601f19601f820116820180604052508101906104b991906112c2565b600380546001600160a01b0319166001600160a01b0392831617905560025460408051631c56369f60e21b815290519190921691637158da7c9160048083019260209291908290030181865afa158015610515573d5f5f3e3d5ffd5b505050506040513d601f19601f8201168201806040525081019061053991906112c2565b600480546001600160a01b0319166001600160a01b0392909216919091179055565b6001546001600160a01b031633146105865760405163ea8e4eb560e01b815260040160405180910390fd5b60035460408051630a58ce2d60e11b815290515f926001600160a01b0316916314b19c5a9160048083019260209291908290030181865afa1580156105cd573d5f5f3e3d5ffd5b505050506040513d601f19601f820116820180604052508101906105f191906112dd565b9050600654811161060157505050565b806006819055505f5f60035f9054906101000a90046001600160a01b03166001600160a01b031663c2cb5d886040518163ffffffff1660e01b81526004015f60405180830381865afa158015610659573d5f5f3e3d5ffd5b505050506040513d5f823e601f3d908101601f1916820160405261068091908101906113cf565b90925090505f5b82518110156106de575f8382815181106106a3576106a361148d565b602002602001015190505f8383815181106106c0576106c061148d565b602002602001015190506106d48282610eae565b5050600101610687565b505f5f60035f9054906101000a90046001600160a01b03166001600160a01b031663a08b82d76040518163ffffffff1660e01b81526004015f60405180830381865afa158015610730573d5f5f3e3d5ffd5b505050506040513d5f823e601f3d908101601f1916820160405261075791908101906113cf565b90925090505f5b82518110156107b5575f83828151811061077a5761077a61148d565b602002602001015190505f8383815181106107975761079761148d565b602002602001015190506107ab8282610fdd565b505060010161075e565b50600254604051631da09e4360e31b81525f916001600160a01b03169063ed04f218906107e69084906004016114a1565b5f60405180830381865afa158015610800573d5f5f3e3d5ffd5b505050506040513d5f823e601f3d908101601f1916820160405261082791908101906114b5565b80519091505f5b81811015610854575f8382815181106108495761084961148d565b50505060010161082e565b50600254604051631da09e4360e31b81525f916001600160a01b03169063ed04f21890610886906001906004016114a1565b5f60405180830381865afa1580156108a0573d5f5f3e3d5ffd5b505050506040513d5f823e601f3d908101601f191682016040526108c791908101906114b5565b8051925090505f5b828110156108f5575f8282815181106108ea576108ea61148d565b5050506001016108cf565b506040517ff0094b59b7bc92e9fc611b14b5d3a34fe02530ac9bcf36c2c6f10147c3030c12905f90a150505050505050505050565b600254604051633821dad160e21b81523360048201526001600160a01b039091169063e0876b4490602401602060405180830381865afa158015610970573d5f5f3e3d5ffd5b505050506040513d601f19601f8201168201806040525081019061099491906112a3565b6109b15760405163ea8e4eb560e01b815260040160405180910390fd5b6004805460405163a9059cbb60e01b81526001600160a01b0385811693820193909352602481018490525f929091169063a9059cbb906044016020604051808303815f875af1158015610a06573d5f5f3e3d5ffd5b505050506040513d601f19601f82011682018060405250810190610a2a91906112a3565b905080610a4a576040516312171d8360e31b815260040160405180910390fd5b505050565b6002546001600160a01b03163314610a7a5760405163ea8e4eb560e01b815260040160405180910390fd5b6001600160a01b0382161580610a9757506001600160a01b038116155b15610ab55760405163d92e233d60e01b815260040160405180910390fd5b6001600160a01b038281165f8181526005602052604080822080546001600160a01b0319169486169485179055517f2f2727c7b3d9ee55de5c114f0cb7997ac7251a4cbfca4f2b2dc6969d86cce4f49190a35050565b5f60605f60035f9054906101000a90046001600160a01b03166001600160a01b03166314b19c5a6040518163ffffffff1660e01b8152600401602060405180830381865afa158015610b5f573d5f5f3e3d5ffd5b505050506040513d601f19601f82011682018060405250810190610b8391906112dd565b905060065481118015610c05575060025f9054906101000a90046001600160a01b03166001600160a01b031663edcf9c1f6040518163ffffffff1660e01b8152600401602060405180830381865afa158015610be1573d5f5f3e3d5ffd5b505050506040513d601f19601f82011682018060405250810190610c0591906112a3565b15610c4d5760019250604051602001610c37906020808252600590820152641cdd185c9d60da1b604082015260600190565b6040516020818303038152906040529150610c62565b5f925060405180602001604052805f81525091505b509250929050565b610c72610e82565b610c7b5f6110e3565b565b6002546001600160a01b03163314610ca85760405163ea8e4eb560e01b815260040160405180910390fd5b6001600160a01b038116610ccf5760405163d92e233d60e01b815260040160405180910390fd5b6001600160a01b0381165f8181526005602052604080822080546001600160a01b0319169055519091907f2f2727c7b3d9ee55de5c114f0cb7997ac7251a4cbfca4f2b2dc6969d86cce4f4908390a350565b600254604051633821dad160e21b81523360048201526001600160a01b039091169063e0876b4490602401602060405180830381865afa158015610d67573d5f5f3e3d5ffd5b505050506040513d601f19601f82011682018060405250810190610d8b91906112a3565b610da85760405163ea8e4eb560e01b815260040160405180910390fd5b60405163a9059cbb60e01b81526001600160a01b03831660048201526024810182905233905f90829063a9059cbb906044016020604051808303815f875af1158015610df6573d5f5f3e3d5ffd5b505050506040513d601f19601f82011682018060405250810190610e1a91906112a3565b905080610e3a576040516312171d8360e31b815260040160405180910390fd5b50505050565b610e48610e82565b6001600160a01b038116610e7657604051631e4fbdf760e01b81525f60048201526024015b60405180910390fd5b610e7f816110e3565b50565b5f546001600160a01b03163314610c7b5760405163118cdaa760e01b8152336004820152602401610e6d565b6001600160a01b038083165f908152600560205260409020541680610ee657604051635048c2af60e11b815260040160405180910390fd5b60405163095ea7b360e01b81526001600160a01b038281166004830152602482018490525f919085169063095ea7b3906044016020604051808303815f875af1158015610f35573d5f5f3e3d5ffd5b505050506040513d601f19601f82011682018060405250810190610f5991906112a3565b905080610f79576040516312171d8360e31b815260040160405180910390fd5b604051636c197ff560e01b81526001600160a01b03858116600483015260248201859052831690636c197ff5906044015b5f604051808303815f87803b158015610fc1575f5ffd5b505af1158015610fd3573d5f5f3e3d5ffd5b5050505050505050565b6001600160a01b038083165f90815260056020526040902054168061101557604051635048c2af60e11b815260040160405180910390fd5b6004805460405163095ea7b360e01b81526001600160a01b0384811693820193909352602481018590525f929091169063095ea7b3906044016020604051808303815f875af115801561106a573d5f5f3e3d5ffd5b505050506040513d601f19601f8201168201806040525081019061108e91906112a3565b9050806110ae576040516312171d8360e31b815260040160405180910390fd5b60405163cce7ec1360e01b81526001600160a01b0385811660048301526024820185905283169063cce7ec1390604401610faa565b5f80546001600160a01b038381166001600160a01b0319831681178455604051919092169283917f8be0079c531659141344cd1fd0a4f28419497f9722a3daafe3b4186f6b6457e09190a35050565b634e487b7160e01b5f52602160045260245ffd5b602081016004831061115a5761115a611132565b91905290565b6001600160a01b0381168114610e7f575f5ffd5b5f60208284031215611184575f5ffd5b813561118f81611160565b9392505050565b5f5f602083850312156111a7575f5ffd5b823567ffffffffffffffff8111156111bd575f5ffd5b8301601f810185136111cd575f5ffd5b803567ffffffffffffffff8111156111e3575f5ffd5b8560208284010111156111f4575f5ffd5b6020919091019590945092505050565b5f5f60408385031215611215575f5ffd5b823561122081611160565b946020939093013593505050565b5f5f6040838503121561123f575f5ffd5b823561124a81611160565b9150602083013561125a81611160565b809150509250929050565b8215158152604060208201525f82518060408401528060208501606085015e5f606082850101526060601f19601f8301168401019150509392505050565b5f602082840312156112b3575f5ffd5b8151801515811461118f575f5ffd5b5f602082840312156112d2575f5ffd5b815161118f81611160565b5f602082840312156112ed575f5ffd5b5051919050565b634e487b7160e01b5f52604160045260245ffd5b604051601f8201601f1916810167ffffffffffffffff81118282101715611331576113316112f4565b604052919050565b5f67ffffffffffffffff821115611352576113526112f4565b5060051b60200190565b5f82601f83011261136b575f5ffd5b815161137e61137982611339565b611308565b8082825260208201915060208360051b86010192508583111561139f575f5ffd5b602085015b838110156113c55780516113b781611160565b8352602092830192016113a4565b5095945050505050565b5f5f604083850312156113e0575f5ffd5b825167ffffffffffffffff8111156113f6575f5ffd5b6114028582860161135c565b925050602083015167ffffffffffffffff81111561141e575f5ffd5b8301601f8101851361142e575f5ffd5b805161143c61137982611339565b8082825260208201915060208360051b85010192508783111561145d575f5ffd5b6020840193505b8284101561147f578351825260209384019390910190611464565b809450505050509250929050565b634e487b7160e01b5f52603260045260245ffd5b602081016002831061115a5761115a611132565b5f602082840312156114c5575f5ffd5b815167ffffffffffffffff8111156114db575f5ffd5b6114e78482850161135c565b94935050505056fea26469706673582212207c4f689ce23c3567d66b6b34c84b2fdef4dc9da8fcfdafd2360fa8b8189d6b6e64736f6c634300081c0033",
  "linkReferences": {},
  "deployedLinkReferences": {}
}