{
  "_format": "hh-sol-artifact-1",
  "contractName": "LiquidityOrchestrator",
  "sourceName": "contracts/orchestrators/LiquidityOrchestrator.sol",
  "abi": [
    {
      "inputs": [
        {
          "internalType": "address",
          "name": "initialOwner",
          "type": "address"
        },
        {
          "internalType": "address",
          "name": "config_",
          "type": "address"
        },
        {
          "internalType": "address",
          "name": "automationRegistry_",
          "type": "address"
        }
      ],
      "stateMutability": "nonpayable",
      "type": "constructor"
    },
    {
      "inputs": [],
      "name": "AdapterNotSet",
      "type": "error"
    },
    {
      "inputs": [],
      "name": "AlreadyRegistered",
      "type": "error"
    },
    {
      "inputs": [
        {
          "internalType": "address",
          "name": "asset",
          "type": "address"
        }
      ],
      "name": "AmountMustBeGreaterThanZero",
      "type": "error"
    },
    {
      "inputs": [],
      "name": "InsufficientAmount",
      "type": "error"
    },
    {
      "inputs": [],
      "name": "InvalidArguments",
      "type": "error"
    },
    {
      "inputs": [],
      "name": "InvalidState",
      "type": "error"
    },
    {
      "inputs": [],
      "name": "NotAuthorized",
      "type": "error"
    },
    {
      "inputs": [
        {
          "internalType": "address",
          "name": "owner",
          "type": "address"
        }
      ],
      "name": "OwnableInvalidOwner",
      "type": "error"
    },
    {
      "inputs": [
        {
          "internalType": "address",
          "name": "account",
          "type": "address"
        }
      ],
      "name": "OwnableUnauthorizedAccount",
      "type": "error"
    },
    {
      "inputs": [],
      "name": "ReentrancyGuardReentrantCall",
      "type": "error"
    },
    {
      "inputs": [],
      "name": "SystemNotIdle",
      "type": "error"
    },
    {
      "inputs": [],
      "name": "TransferFailed",
      "type": "error"
    },
    {
      "inputs": [],
      "name": "ZeroAddress",
      "type": "error"
    },
    {
      "anonymous": false,
      "inputs": [
        {
          "indexed": true,
          "internalType": "address",
          "name": "newAutomationRegistry",
          "type": "address"
        }
      ],
      "name": "AutomationRegistryUpdated",
      "type": "event"
    },
    {
      "anonymous": false,
      "inputs": [
        {
          "indexed": true,
          "internalType": "address",
          "name": "asset",
          "type": "address"
        },
        {
          "indexed": true,
          "internalType": "address",
          "name": "adapter",
          "type": "address"
        }
      ],
      "name": "ExecutionAdapterSet",
      "type": "event"
    },
    {
      "anonymous": false,
      "inputs": [
        {
          "indexed": true,
          "internalType": "address",
          "name": "previousOwner",
          "type": "address"
        },
        {
          "indexed": true,
          "internalType": "address",
          "name": "newOwner",
          "type": "address"
        }
      ],
      "name": "OwnershipTransferred",
      "type": "event"
    },
    {
      "anonymous": false,
      "inputs": [],
      "name": "PortfolioRebalanced",
      "type": "event"
    },
    {
      "inputs": [],
      "name": "automationRegistry",
      "outputs": [
        {
          "internalType": "address",
          "name": "",
          "type": "address"
        }
      ],
      "stateMutability": "view",
      "type": "function"
    },
    {
      "inputs": [
        {
          "internalType": "uint256",
          "name": "",
          "type": "uint256"
        }
      ],
      "name": "buyingAmounts",
      "outputs": [
        {
          "internalType": "uint256",
          "name": "",
          "type": "uint256"
        }
      ],
      "stateMutability": "view",
      "type": "function"
    },
    {
      "inputs": [
        {
          "internalType": "uint256",
          "name": "",
          "type": "uint256"
        }
      ],
      "name": "buyingEstimatedUnderlyingAmounts",
      "outputs": [
        {
          "internalType": "uint256",
          "name": "",
          "type": "uint256"
        }
      ],
      "stateMutability": "view",
      "type": "function"
    },
    {
      "inputs": [
        {
          "internalType": "uint256",
          "name": "",
          "type": "uint256"
        }
      ],
      "name": "buyingTokens",
      "outputs": [
        {
          "internalType": "address",
          "name": "",
          "type": "address"
        }
      ],
      "stateMutability": "view",
      "type": "function"
    },
    {
      "inputs": [
        {
          "internalType": "bytes",
          "name": "",
          "type": "bytes"
        }
      ],
      "name": "checkUpkeep",
      "outputs": [
        {
          "internalType": "bool",
          "name": "upkeepNeeded",
          "type": "bool"
        },
        {
          "internalType": "bytes",
          "name": "performData",
          "type": "bytes"
        }
      ],
      "stateMutability": "view",
      "type": "function"
    },
    {
      "inputs": [
        {
          "internalType": "uint256",
          "name": "amount",
          "type": "uint256"
        }
      ],
      "name": "claimProtocolFees",
      "outputs": [],
      "stateMutability": "nonpayable",
      "type": "function"
    },
    {
      "inputs": [],
      "name": "config",
      "outputs": [
        {
          "internalType": "contract IOrionConfig",
          "name": "",
          "type": "address"
        }
      ],
      "stateMutability": "view",
      "type": "function"
    },
    {
      "inputs": [],
      "name": "currentMinibatchIndex",
      "outputs": [
        {
          "internalType": "uint8",
          "name": "",
          "type": "uint8"
        }
      ],
      "stateMutability": "view",
      "type": "function"
    },
    {
      "inputs": [],
      "name": "currentPhase",
      "outputs": [
        {
          "internalType": "enum ILiquidityOrchestrator.LiquidityUpkeepPhase",
          "name": "",
          "type": "uint8"
        }
      ],
      "stateMutability": "view",
      "type": "function"
    },
    {
      "inputs": [],
      "name": "deltaBufferAmount",
      "outputs": [
        {
          "internalType": "int256",
          "name": "",
          "type": "int256"
        }
      ],
      "stateMutability": "view",
      "type": "function"
    },
    {
      "inputs": [
        {
          "internalType": "uint256",
          "name": "amount",
          "type": "uint256"
        }
      ],
      "name": "depositLiquidity",
      "outputs": [],
      "stateMutability": "nonpayable",
      "type": "function"
    },
    {
      "inputs": [
        {
          "internalType": "address",
          "name": "",
          "type": "address"
        }
      ],
      "name": "executionAdapterOf",
      "outputs": [
        {
          "internalType": "contract IExecutionAdapter",
          "name": "",
          "type": "address"
        }
      ],
      "stateMutability": "view",
      "type": "function"
    },
    {
      "inputs": [],
      "name": "executionMinibatchSize",
      "outputs": [
        {
          "internalType": "uint8",
          "name": "",
          "type": "uint8"
        }
      ],
      "stateMutability": "view",
      "type": "function"
    },
    {
      "inputs": [],
      "name": "internalStatesOrchestrator",
      "outputs": [
        {
          "internalType": "contract IInternalStateOrchestrator",
          "name": "",
          "type": "address"
        }
      ],
      "stateMutability": "view",
      "type": "function"
    },
    {
      "inputs": [],
      "name": "lastProcessedEpoch",
      "outputs": [
        {
          "internalType": "uint16",
          "name": "",
          "type": "uint16"
        }
      ],
      "stateMutability": "view",
      "type": "function"
    },
    {
      "inputs": [],
      "name": "owner",
      "outputs": [
        {
          "internalType": "address",
          "name": "",
          "type": "address"
        }
      ],
      "stateMutability": "view",
      "type": "function"
    },
    {
      "inputs": [
        {
          "internalType": "bytes",
          "name": "performData",
          "type": "bytes"
        }
      ],
      "name": "performUpkeep",
      "outputs": [],
      "stateMutability": "nonpayable",
      "type": "function"
    },
    {
      "inputs": [],
      "name": "renounceOwnership",
      "outputs": [],
      "stateMutability": "nonpayable",
      "type": "function"
    },
    {
      "inputs": [
        {
          "internalType": "address",
          "name": "user",
          "type": "address"
        },
        {
          "internalType": "uint256",
          "name": "amount",
          "type": "uint256"
        }
      ],
      "name": "returnDepositFunds",
      "outputs": [],
      "stateMutability": "nonpayable",
      "type": "function"
    },
    {
      "inputs": [
        {
          "internalType": "uint256",
          "name": "",
          "type": "uint256"
        }
      ],
      "name": "sellingAmounts",
      "outputs": [
        {
          "internalType": "uint256",
          "name": "",
          "type": "uint256"
        }
      ],
      "stateMutability": "view",
      "type": "function"
    },
    {
      "inputs": [
        {
          "internalType": "uint256",
          "name": "",
          "type": "uint256"
        }
      ],
      "name": "sellingEstimatedUnderlyingAmounts",
      "outputs": [
        {
          "internalType": "uint256",
          "name": "",
          "type": "uint256"
        }
      ],
      "stateMutability": "view",
      "type": "function"
    },
    {
      "inputs": [
        {
          "internalType": "uint256",
          "name": "",
          "type": "uint256"
        }
      ],
      "name": "sellingTokens",
      "outputs": [
        {
          "internalType": "address",
          "name": "",
          "type": "address"
        }
      ],
      "stateMutability": "view",
      "type": "function"
    },
    {
      "inputs": [
        {
          "internalType": "address",
          "name": "asset",
          "type": "address"
        },
        {
          "internalType": "contract IExecutionAdapter",
          "name": "adapter",
          "type": "address"
        }
      ],
      "name": "setExecutionAdapter",
      "outputs": [],
      "stateMutability": "nonpayable",
      "type": "function"
    },
    {
      "inputs": [
        {
          "internalType": "address",
          "name": "_internalStatesOrchestrator",
          "type": "address"
        }
      ],
      "name": "setInternalStatesOrchestrator",
      "outputs": [],
      "stateMutability": "nonpayable",
      "type": "function"
    },
    {
      "inputs": [
        {
          "internalType": "uint256",
          "name": "_targetBufferRatio",
          "type": "uint256"
        }
      ],
      "name": "setTargetBufferRatio",
      "outputs": [],
      "stateMutability": "nonpayable",
      "type": "function"
    },
    {
      "inputs": [],
      "name": "targetBufferRatio",
      "outputs": [
        {
          "internalType": "uint256",
          "name": "",
          "type": "uint256"
        }
      ],
      "stateMutability": "view",
      "type": "function"
    },
    {
      "inputs": [
        {
          "internalType": "uint256",
          "name": "amount",
          "type": "uint256"
        }
      ],
      "name": "transferCuratorFees",
      "outputs": [],
      "stateMutability": "nonpayable",
      "type": "function"
    },
    {
      "inputs": [
        {
          "internalType": "address",
          "name": "newOwner",
          "type": "address"
        }
      ],
      "name": "transferOwnership",
      "outputs": [],
      "stateMutability": "nonpayable",
      "type": "function"
    },
    {
      "inputs": [
        {
          "internalType": "address",
          "name": "user",
          "type": "address"
        },
        {
          "internalType": "uint256",
          "name": "amount",
          "type": "uint256"
        }
      ],
      "name": "transferRedemptionFunds",
      "outputs": [],
      "stateMutability": "nonpayable",
      "type": "function"
    },
    {
      "inputs": [],
      "name": "underlyingAsset",
      "outputs": [
        {
          "internalType": "address",
          "name": "",
          "type": "address"
        }
      ],
      "stateMutability": "view",
      "type": "function"
    },
    {
      "inputs": [
        {
          "internalType": "address",
          "name": "newAutomationRegistry",
          "type": "address"
        }
      ],
      "name": "updateAutomationRegistry",
      "outputs": [],
      "stateMutability": "nonpayable",
      "type": "function"
    },
    {
      "inputs": [
        {
          "internalType": "uint8",
          "name": "_executionMinibatchSize",
          "type": "uint8"
        }
      ],
      "name": "updateExecutionMinibatchSize",
      "outputs": [],
      "stateMutability": "nonpayable",
      "type": "function"
    },
    {
      "inputs": [
        {
          "internalType": "uint256",
          "name": "amount",
          "type": "uint256"
        }
      ],
      "name": "withdrawLiquidity",
      "outputs": [],
      "stateMutability": "nonpayable",
      "type": "function"
    }
  ],
  "bytecode": "0x608060405234801561000f575f5ffd5b50604051612cbb380380612cbb83398101604081905261002e916101e3565b826001600160a01b03811661005c57604051631e4fbdf760e01b81525f600482015260240160405180910390fd5b6100658161017d565b50600180556001600160a01b0382166100915760405163d92e233d60e01b815260040160405180910390fd5b6001600160a01b0381166100b85760405163d92e233d60e01b815260040160405180910390fd5b600380546001600160a01b0319166001600160a01b03841690811790915560408051631c56369f60e21b81529051637158da7c916004808201926020929091908290030181865afa15801561010f573d5f5f3e3d5ffd5b505050506040513d601f19601f82011682018060405250810190610133919061022d565b600580546001600160a01b03199081166001600160a01b0393841617909155600280549091169290911691909117905550506007805464ffffffffff19166201000017905561024f565b5f80546001600160a01b038381166001600160a01b0319831681178455604051919092169283917f8be0079c531659141344cd1fd0a4f28419497f9722a3daafe3b4186f6b6457e09190a35050565b6001600160a01b03811681146101e0575f5ffd5b50565b5f5f5f606084860312156101f5575f5ffd5b8351610200816101cc565b6020850151909350610211816101cc565b6040850151909250610222816101cc565b809150509250925092565b5f6020828403121561023d575f5ffd5b8151610248816101cc565b9392505050565b612a5f8061025c5f395ff3fe608060405234801561000f575f5ffd5b5060043610610189575f3560e01c806301c621c11461018d578063055ad42e146101a257806309f2e19c146101cc5780630a861f2a146101ec5780630a8b78c7146101ff57806314b5d07f146102125780633369921a14610225578063348ec5c81461023c5780633af2a8c01461024f5780633e765a9e146102625780634585e33b146102755780634adfc2e71461028857806351edffb11461029b57806352e899fd146102ae5780635488cd62146102c157806357be01c1146102e757806359017aa9146102fa5780635dc228a01461030d5780636e04ff0d14610320578063715018a6146103415780637158da7c14610349578063741fca4b1461035c57806376d58e1a1461036f57806379502c55146103825780638157c1ab146103955780638a0b0d38146103a85780638da5cb5b146103bb578063bc504975146103c3578063be1b26a4146103d6578063d3f3506d146103e9578063dab26e3b14610411578063ee6713df1461041a578063f2fde38b1461043b575b5f5ffd5b6101a061019b3660046123d2565b61044e565b005b6007546101b6906301000000900460ff1681565b6040516101c391906123fd565b60405180910390f35b6101df6101da3660046123d2565b61057b565b6040516101c39190612417565b6101a06101fa3660046123d2565b6105a3565b6101a061020d36600461243f565b6107ff565b6101a061022036600461243f565b61087a565b61022e600f5481565b6040519081526020016101c3565b6004546101df906001600160a01b031681565b6101a061025d3660046123d2565b610983565b61022e6102703660046123d2565b610a64565b6101a0610283366004612461565b610a83565b6101a06102963660046124cd565b610bcc565b6101a06102a93660046124cd565b610cb7565b61022e6102bc3660046123d2565b610d43565b6007546102d590600160201b900460ff1681565b60405160ff90911681526020016101c3565b6007546102d59062010000900460ff1681565b6101a06103083660046124f7565b610d52565b6002546101df906001600160a01b031681565b61033361032e366004612461565b610e66565b6040516101c392919061252e565b6101a06110fb565b6005546101df906001600160a01b031681565b6101a061036a3660046123d2565b61110e565b6101a061037d3660046123d2565b6112c5565b6003546101df906001600160a01b031681565b6101df6103a33660046123d2565b61147e565b6101a06103b6366004612581565b61148d565b6101df611567565b61022e6103d13660046123d2565b611575565b61022e6103e43660046123d2565b611584565b6101df6103f736600461243f565b60066020525f90815260409020546001600160a01b031681565b61022e60085481565b6007546104289061ffff1681565b60405161ffff90911681526020016101c3565b6101a061044936600461243f565b611593565b6104566115d0565b805f0361048c57600554604051636b30633560e01b8152610483916001600160a01b031690600401612417565b60405180910390fd5b60048054604051637060444560e01b81529182018390526001600160a01b0316906370604445906024015f604051808303815f87803b1580156104cd575f5ffd5b505af11580156104df573d5f5f3e3d5ffd5b505060055460405163a9059cbb60e01b81525f93506001600160a01b03909116915063a9059cbb90610517903390869060040161259a565b6020604051808303815f875af1158015610533573d5f5f3e3d5ffd5b505050506040513d601f19601f8201168201806040525081019061055791906125b3565b905080610577576040516312171d8360e31b815260040160405180910390fd5b5050565b600c818154811061058a575f80fd5b5f918252602090912001546001600160a01b0316905081565b6105ab6115d0565b805f036105d857600554604051636b30633560e01b8152610483916001600160a01b031690600401612417565b60035f9054906101000a90046001600160a01b03166001600160a01b031663edcf9c1f6040518163ffffffff1660e01b8152600401602060405180830381865afa158015610628573d5f5f3e3d5ffd5b505050506040513d601f19601f8201168201806040525081019061064c91906125b3565b610669576040516312aecd8160e01b815260040160405180910390fd5b5f60045f9054906101000a90046001600160a01b03166001600160a01b031663c18e2a5c6040518163ffffffff1660e01b8152600401602060405180830381865afa1580156106ba573d5f5f3e3d5ffd5b505050506040513d601f19601f820116820180604052508101906106de91906125d2565b90508082111561070157604051632ca2f52b60e11b815260040160405180910390fd5b6004546001600160a01b031663e2c4aaec61071b846125fd565b6040518263ffffffff1660e01b815260040161073991815260200190565b5f604051808303815f87803b158015610750575f5ffd5b505af1158015610762573d5f5f3e3d5ffd5b505060055460405163a9059cbb60e01b81525f93506001600160a01b03909116915063a9059cbb9061079a903390879060040161259a565b6020604051808303815f875af11580156107b6573d5f5f3e3d5ffd5b505050506040513d601f19601f820116820180604052508101906107da91906125b3565b9050806107fa576040516312171d8360e31b815260040160405180910390fd5b505050565b6108076115d0565b6001600160a01b03811661082e5760405163d92e233d60e01b815260040160405180910390fd5b6004546001600160a01b03161561085857604051630ea075bf60e21b815260040160405180910390fd5b600480546001600160a01b0319166001600160a01b0392909216919091179055565b6108826115d0565b6001600160a01b0381166108a95760405163d92e233d60e01b815260040160405180910390fd5b60035f9054906101000a90046001600160a01b03166001600160a01b031663edcf9c1f6040518163ffffffff1660e01b8152600401602060405180830381865afa1580156108f9573d5f5f3e3d5ffd5b505050506040513d601f19601f8201168201806040525081019061091d91906125b3565b61093a576040516312aecd8160e01b815260040160405180910390fd5b600280546001600160a01b0319166001600160a01b0383169081179091556040517f6cc7ebdb6c8c53291c5ae16148cab9b049d23bf5bde5632900b40edff56fcb43905f90a250565b61098b6115d0565b805f036109ab576040516317dbc4cb60e21b815260040160405180910390fd5b6101f48111156109ce576040516317dbc4cb60e21b815260040160405180910390fd5b60035f9054906101000a90046001600160a01b03166001600160a01b031663edcf9c1f6040518163ffffffff1660e01b8152600401602060405180830381865afa158015610a1e573d5f5f3e3d5ffd5b505050506040513d601f19601f82011682018060405250810190610a4291906125b3565b610a5f576040516312aecd8160e01b815260040160405180910390fd5b600855565b600e8181548110610a73575f80fd5b5f91825260209091200154905081565b610a8b611567565b6001600160a01b0316336001600160a01b031614158015610ab757506002546001600160a01b03163314155b15610ad55760405163ea8e4eb560e01b815260040160405180910390fd5b610add611602565b6005811015610aff576040516317dbc4cb60e21b815260040160405180910390fd5b5f80610b0d83850185612617565b90925090506341659aab60e01b6001600160e01b0319831601610b3757610b3261162c565b610b99565b63100597e960e31b6001600160e01b0319831601610b5857610b3281611864565b63302c6bef60e21b6001600160e01b0319831601610b7957610b32816119f1565b6301c7bbc160e21b6001600160e01b0319831601610b9957610b99611be9565b6040517ff0094b59b7bc92e9fc611b14b5d3a34fe02530ac9bcf36c2c6f10147c3030c12905f90a1505061057760018055565b600354604051633821dad160e21b81526001600160a01b039091169063e0876b4490610bfc903390600401612417565b602060405180830381865afa158015610c17573d5f5f3e3d5ffd5b505050506040513d601f19601f82011682018060405250810190610c3b91906125b3565b610c585760405163ea8e4eb560e01b815260040160405180910390fd5b805f03610c8557600554604051636b30633560e01b8152610483916001600160a01b031690600401612417565b60055460405163a9059cbb60e01b81525f916001600160a01b03169063a9059cbb9061079a908690869060040161259a565b600354604051633821dad160e21b81526001600160a01b039091169063e0876b4490610ce7903390600401612417565b602060405180830381865afa158015610d02573d5f5f3e3d5ffd5b505050506040513d601f19601f82011682018060405250810190610d2691906125b3565b610c855760405163ea8e4eb560e01b815260040160405180910390fd5b600b8181548110610a73575f80fd5b6003546001600160a01b03163314610d7d5760405163ea8e4eb560e01b815260040160405180910390fd5b6001600160a01b0382161580610d9a57506001600160a01b038116155b15610db85760405163d92e233d60e01b815260040160405180910390fd5b604051631ed3e4fb60e11b81526001600160a01b03821690633da7c9f690610de4908590600401612417565b5f6040518083038186803b158015610dfa575f5ffd5b505afa158015610e0c573d5f5f3e3d5ffd5b505050506001600160a01b038281165f8181526006602052604080822080546001600160a01b0319169486169485179055517f2f2727c7b3d9ee55de5c114f0cb7997ac7251a4cbfca4f2b2dc6969d86cce4f49190a35050565b5f606060035f9054906101000a90046001600160a01b03166001600160a01b031663edcf9c1f6040518163ffffffff1660e01b8152600401602060405180830381865afa158015610eb9573d5f5f3e3d5ffd5b505050506040513d601f19601f82011682018060405250810190610edd91906125b3565b8015610f5d57506007546004805460408051630a58ce2d60e11b8152905161ffff909416936001600160a01b03909216926314b19c5a9282820192602092908290030181865afa158015610f33573d5f5f3e3d5ffd5b505050506040513d601f19601f82011682018060405250810190610f579190612656565b61ffff16115b15610faf57600191507fbe9a655586dceb82dfa0af992b5d8ae7fa45053cb7fd6f141f541da7572978c75f604051602001610f99929190612677565b60405160208183030381529060405290506110f4565b60016007546301000000900460ff166003811115610fcf57610fcf6123e9565b0361101a57600191507f7fd340b8241a93f6a116f506d6171d4f585588564d777e1192babae55184f691600760049054906101000a900460ff16604051602001610f99929190612677565b60026007546301000000900460ff16600381111561103a5761103a6123e9565b0361108557600191507f3f4e50448465d8594e91c1038b22f277808696956455dacacb66f00f4df0b3a2600760049054906101000a900460ff16604051602001610f99929190612677565b60036007546301000000900460ff1660038111156110a5576110a56123e9565b036110e157600191507ff8e110fcda2d74b2e1ced72f8e94b4510c922b70f786fd1064147a762fd812605f604051602001610f99929190612677565b505060408051602081019091525f808252905b9250929050565b6111036115d0565b61110c5f611ddf565b565b600354604051633821dad160e21b815233916001600160a01b03169063e0876b449061113e908490600401612417565b602060405180830381865afa158015611159573d5f5f3e3d5ffd5b505050506040513d601f19601f8201168201806040525081019061117d91906125b3565b61119a5760405163ea8e4eb560e01b815260040160405180910390fd5b815f036111c757600554604051636b30633560e01b8152610483916001600160a01b031690600401612417565b5f816001600160a01b0316631f52692b6040518163ffffffff1660e01b8152600401602060405180830381865afa158015611204573d5f5f3e3d5ffd5b505050506040513d601f19601f820116820180604052508101906112289190612694565b60055460405163a9059cbb60e01b81529192505f916001600160a01b039091169063a9059cbb9061125f908590889060040161259a565b6020604051808303815f875af115801561127b573d5f5f3e3d5ffd5b505050506040513d601f19601f8201168201806040525081019061129f91906125b3565b9050806112bf576040516312171d8360e31b815260040160405180910390fd5b50505050565b6112cd6115d0565b805f036112fa57600554604051636b30633560e01b8152610483916001600160a01b031690600401612417565b60035f9054906101000a90046001600160a01b03166001600160a01b031663edcf9c1f6040518163ffffffff1660e01b8152600401602060405180830381865afa15801561134a573d5f5f3e3d5ffd5b505050506040513d601f19601f8201168201806040525081019061136e91906125b3565b61138b576040516312aecd8160e01b815260040160405180910390fd5b6005546040516323b872dd60e01b8152336004820152306024820152604481018390525f916001600160a01b0316906323b872dd906064016020604051808303815f875af11580156113df573d5f5f3e3d5ffd5b505050506040513d601f19601f8201168201806040525081019061140391906125b3565b905080611423576040516312171d8360e31b815260040160405180910390fd5b600480546040516338b12abb60e21b81529182018490526001600160a01b03169063e2c4aaec906024015f604051808303815f87803b158015611464575f5ffd5b505af1158015611476573d5f5f3e3d5ffd5b505050505050565b6009818154811061058a575f80fd5b6114956115d0565b8060ff165f036114b8576040516317dbc4cb60e21b815260040160405180910390fd5b60035f9054906101000a90046001600160a01b03166001600160a01b031663edcf9c1f6040518163ffffffff1660e01b8152600401602060405180830381865afa158015611508573d5f5f3e3d5ffd5b505050506040513d601f19601f8201168201806040525081019061152c91906125b3565b611549576040516312aecd8160e01b815260040160405180910390fd5b6007805460ff909216620100000262ff000019909216919091179055565b5f546001600160a01b031690565b600d8181548110610a73575f80fd5b600a8181548110610a73575f80fd5b61159b6115d0565b6001600160a01b0381166115c4575f604051631e4fbdf760e01b81526004016104839190612417565b6115cd81611ddf565b50565b336115d9611567565b6001600160a01b03161461110c573360405163118cdaa760e01b81526004016104839190612417565b60026001540361162557604051633ee5aeb560e01b815260040160405180910390fd5b6002600155565b5f60045f9054906101000a90046001600160a01b03166001600160a01b03166314b19c5a6040518163ffffffff1660e01b8152600401602060405180830381865afa15801561167d573d5f5f3e3d5ffd5b505050506040513d601f19601f820116820180604052508101906116a19190612656565b6007549091506116b69061ffff1660016126af565b61ffff168161ffff1610156116c85750565b6007805461ffff191661ffff83161790556116e460095f612307565b6116ef600a5f612307565b6116fa600c5f612307565b611705600d5f612307565b611710600b5f612307565b61171b600e5f612307565b5f600f8190556004805460408051631716e21f60e11b815290516001600160a01b0390921693632e2dc43e938281019391928290030181865afa158015611764573d5f5f3e3d5ffd5b505050506040513d5f823e601f3d908101601f1916820160405261178b9190810190612803565b60095f600a5f600c5f600d5f600b5f600e5f8c91905090805190602001906117b4929190612322565b50508a516117c7919060208d0190612322565b505089516117da919060208c0190612322565b505088516117ed919060208b019061236b565b50508751611800919060208a0190612322565b505086516118139190602089019061236b565b50506007805463ff0000001916630100000017905550506009545f0392506115cd915050576007805463ff00000019166302000000179055600c545f036115cd57506007805463ff00000019169055565b60016007546301000000900460ff166003811115611884576118846123e9565b146118a25760405163baf3f0f760e01b815260040160405180910390fd5b600780546004906118bc90600160201b900460ff16612913565b91906101000a81548160ff021916908360ff1602179055505f600760029054906101000a900460ff16826118f09190612931565b60075460ff91821692505f9161190d9162010000900416836126af565b60095490915061ffff82161180611929575060095461ffff8216145b1561194757506009546007805464ffff000000191663020000001790555b815b8161ffff168161ffff1610156112bf575f60098261ffff168154811061197157611971612954565b5f918252602090912001546005546001600160a01b03918216925016810361199957506119e9565b5f600a8361ffff16815481106119b1576119b1612954565b905f5260205f20015490506119e68282600b8661ffff16815481106119d8576119d8612954565b905f5260205f200154611e2e565b50505b600101611949565b60026007546301000000900460ff166003811115611a1157611a116123e9565b14611a2f5760405163baf3f0f760e01b815260040160405180910390fd5b60078054600490611a4990600160201b900460ff16612913565b91906101000a81548160ff021916908360ff1602179055505f600760029054906101000a900460ff1682611a7d9190612931565b60075460ff91821692505f91611a9a9162010000900416836126af565b600c5490915061ffff82161180611ab65750600c5461ffff8216145b15611ad45750600c546007805464ffff000000191663030000001790555b815b8161ffff168161ffff161015611b7e575f600c8261ffff1681548110611afe57611afe612954565b5f918252602090912001546005546001600160a01b039182169250168103611b265750611b76565b5f600d8361ffff1681548110611b3e57611b3e612954565b905f5260205f2001549050611b738282600e8661ffff1681548110611b6557611b65612954565b905f5260205f200154611fdc565b50505b600101611ad6565b50600c5461ffff8216036107fa5760048054600f546040516338b12abb60e21b8152928301526001600160a01b03169063e2c4aaec906024015f604051808303815f87803b158015611bce575f5ffd5b505af1158015611be0573d5f5f3e3d5ffd5b50505050505050565b60036007546301000000900460ff166003811115611c0957611c096123e9565b14611c275760405163baf3f0f760e01b815260040160405180910390fd5b6007805463ff00000019169055600354604051631da09e4360e31b81525f916001600160a01b03169063ed04f21890611c64908490600401612968565b5f60405180830381865afa158015611c7e573d5f5f3e3d5ffd5b505050506040513d5f823e601f3d908101601f19168201604052611ca5919081019061297c565b90505f5b81518161ffff161015610577575f828261ffff1681518110611ccd57611ccd612954565b6020908102919091010151600480546040516309958e4960e11b81529293505f926001600160a01b039091169163132b1c9291611d0c91869101612417565b602060405180830381865afa158015611d27573d5f5f3e3d5ffd5b505050506040513d601f19601f82011682018060405250810190611d4b91906125d2565b6004805460405163e2638ff160e01b81529293505f926001600160a01b039091169163e2638ff191611d7f91879101612417565b602060405180830381865afa158015611d9a573d5f5f3e3d5ffd5b505050506040513d601f19601f82011682018060405250810190611dbe91906125d2565b9050611dcb83838361217e565b50505080611dd8906129b5565b9050611ca9565b5f80546001600160a01b038381166001600160a01b0319831681178455604051919092169283917f8be0079c531659141344cd1fd0a4f28419497f9722a3daafe3b4186f6b6457e09190a35050565b6001600160a01b038084165f908152600660205260409020541680611e6657604051635048c2af60e11b815260040160405180910390fd5b60405163095ea7b360e01b81526001600160a01b0385169063095ea7b390611e949084905f9060040161259a565b6020604051808303815f875af1158015611eb0573d5f5f3e3d5ffd5b505050506040513d601f19601f82011682018060405250810190611ed491906125b3565b5060405163095ea7b360e01b81526001600160a01b0385169063095ea7b390611f03908490879060040161259a565b6020604051808303815f875af1158015611f1f573d5f5f3e3d5ffd5b505050506040513d601f19601f82011682018060405250810190611f4391906125b3565b50604051636c197ff560e01b81525f906001600160a01b03831690636c197ff590611f74908890889060040161259a565b6020604051808303815f875af1158015611f90573d5f5f3e3d5ffd5b505050506040513d601f19601f82011682018060405250810190611fb491906125d2565b9050611fc083826129cc565b600f5f828254611fd091906129eb565b90915550505050505050565b6001600160a01b038084165f90815260066020526040902054168061201457604051635048c2af60e11b815260040160405180910390fd5b60055460405163095ea7b360e01b81526001600160a01b039091169063095ea7b3906120469084905f9060040161259a565b6020604051808303815f875af1158015612062573d5f5f3e3d5ffd5b505050506040513d601f19601f8201168201806040525081019061208691906125b3565b506005546001600160a01b031663095ea7b3826120a4856002612a12565b6040518363ffffffff1660e01b81526004016120c192919061259a565b6020604051808303815f875af11580156120dd573d5f5f3e3d5ffd5b505050506040513d601f19601f8201168201806040525081019061210191906125b3565b5060405163cce7ec1360e01b81525f906001600160a01b0383169063cce7ec1390612132908890889060040161259a565b6020604051808303815f875af115801561214e573d5f5f3e3d5ffd5b505050506040513d601f19601f8201168201806040525081019061217291906125d2565b9050611fc081846129cc565b5f8390505f816001600160a01b031663f64c6f326040518163ffffffff1660e01b8152600401602060405180830381865afa1580156121bf573d5f5f3e3d5ffd5b505050506040513d601f19601f820116820180604052508101906121e391906125d2565b90505f826001600160a01b0316630a605c6d6040518163ffffffff1660e01b8152600401602060405180830381865afa158015612222573d5f5f3e3d5ffd5b505050506040513d601f19601f8201168201806040525081019061224691906125d2565b905081156122a45760405163e5e9719360e01b8152600481018690526001600160a01b0384169063e5e97193906024015f604051808303815f87803b15801561228d575f5ffd5b505af115801561229f573d5f5f3e3d5ffd5b505050505b80156114765760405163493a6e2160e01b8152600481018590526001600160a01b0384169063493a6e21906024015f604051808303815f87803b1580156122e9575f5ffd5b505af11580156122fb573d5f5f3e3d5ffd5b50505050505050505050565b5080545f8255905f5260205f20908101906115cd91906123be565b828054828255905f5260205f2090810192821561235b579160200282015b8281111561235b578251825591602001919060010190612340565b506123679291506123be565b5090565b828054828255905f5260205f2090810192821561235b579160200282015b8281111561235b57825182546001600160a01b0319166001600160a01b03909116178255602090920191600190910190612389565b5b80821115612367575f81556001016123bf565b5f602082840312156123e2575f5ffd5b5035919050565b634e487b7160e01b5f52602160045260245ffd5b6020810160048310612411576124116123e9565b91905290565b6001600160a01b0391909116815260200190565b6001600160a01b03811681146115cd575f5ffd5b5f6020828403121561244f575f5ffd5b813561245a8161242b565b9392505050565b5f5f60208385031215612472575f5ffd5b82356001600160401b03811115612487575f5ffd5b8301601f81018513612497575f5ffd5b80356001600160401b038111156124ac575f5ffd5b8560208284010111156124bd575f5ffd5b6020919091019590945092505050565b5f5f604083850312156124de575f5ffd5b82356124e98161242b565b946020939093013593505050565b5f5f60408385031215612508575f5ffd5b82356125138161242b565b915060208301356125238161242b565b809150509250929050565b8215158152604060208201525f82518060408401528060208501606085015e5f606082850101526060601f19601f8301168401019150509392505050565b803560ff8116811461257c575f5ffd5b919050565b5f60208284031215612591575f5ffd5b61245a8261256c565b6001600160a01b03929092168252602082015260400190565b5f602082840312156125c3575f5ffd5b8151801515811461245a575f5ffd5b5f602082840312156125e2575f5ffd5b5051919050565b634e487b7160e01b5f52601160045260245ffd5b5f600160ff1b8201612611576126116125e9565b505f0390565b5f5f60408385031215612628575f5ffd5b82356001600160e01b03198116811461263f575f5ffd5b915061264d6020840161256c565b90509250929050565b5f60208284031215612666575f5ffd5b815161ffff8116811461245a575f5ffd5b6001600160e01b031992909216825260ff16602082015260400190565b5f602082840312156126a4575f5ffd5b815161245a8161242b565b61ffff81811683821601908111156126c9576126c96125e9565b92915050565b634e487b7160e01b5f52604160045260245ffd5b604051601f8201601f191681016001600160401b038111828210171561270b5761270b6126cf565b604052919050565b5f6001600160401b0382111561272b5761272b6126cf565b5060051b60200190565b5f82601f830112612744575f5ffd5b815161275761275282612713565b6126e3565b8082825260208201915060208360051b860101925085831115612778575f5ffd5b602085015b8381101561279e5780516127908161242b565b83526020928301920161277d565b5095945050505050565b5f82601f8301126127b7575f5ffd5b81516127c561275282612713565b8082825260208201915060208360051b8601019250858311156127e6575f5ffd5b602085015b8381101561279e5780518352602092830192016127eb565b5f5f5f5f5f5f60c08789031215612818575f5ffd5b86516001600160401b0381111561282d575f5ffd5b61283989828a01612735565b602089015190975090506001600160401b03811115612856575f5ffd5b61286289828a016127a8565b604089015190965090506001600160401b0381111561287f575f5ffd5b61288b89828a01612735565b606089015190955090506001600160401b038111156128a8575f5ffd5b6128b489828a016127a8565b608089015190945090506001600160401b038111156128d1575f5ffd5b6128dd89828a016127a8565b60a089015190935090506001600160401b038111156128fa575f5ffd5b61290689828a016127a8565b9150509295509295509295565b5f60ff821660ff8103612928576129286125e9565b60010192915050565b60ff818116838216029081169081811461294d5761294d6125e9565b5092915050565b634e487b7160e01b5f52603260045260245ffd5b6020810160028310612411576124116123e9565b5f6020828403121561298c575f5ffd5b81516001600160401b038111156129a1575f5ffd5b6129ad84828501612735565b949350505050565b5f61ffff821661ffff8103612928576129286125e9565b8181035f83128015838313168383128216171561294d5761294d6125e9565b8082018281125f831280158216821582161715612a0a57612a0a6125e9565b505092915050565b80820281158282048414176126c9576126c96125e956fea264697066735822122096bc459bf0efa71234bbdd68bb9e9e7a4a84b6aad36eb1a147d96ad1874f613464736f6c634300081c0033",
  "linkReferences": {},
  "deployedLinkReferences": {}
}