{
  "_format": "hh-sol-artifact-1",
  "contractName": "LiquidityOrchestrator",
  "sourceName": "contracts/orchestrators/LiquidityOrchestrator.sol",
  "abi": [
    {
      "inputs": [
        {
          "internalType": "address",
          "name": "target",
          "type": "address"
        }
      ],
      "name": "AddressEmptyCode",
      "type": "error"
    },
    {
      "inputs": [
        {
          "internalType": "address",
          "name": "implementation",
          "type": "address"
        }
      ],
      "name": "ERC1967InvalidImplementation",
      "type": "error"
    },
    {
      "inputs": [],
      "name": "ERC1967NonPayable",
      "type": "error"
    },
    {
      "inputs": [],
      "name": "FailedCall",
      "type": "error"
    },
    {
      "inputs": [],
      "name": "InvalidInitialization",
      "type": "error"
    },
    {
      "inputs": [],
      "name": "NotAuthorized",
      "type": "error"
    },
    {
      "inputs": [],
      "name": "NotInitializing",
      "type": "error"
    },
    {
      "inputs": [
        {
          "internalType": "address",
          "name": "owner",
          "type": "address"
        }
      ],
      "name": "OwnableInvalidOwner",
      "type": "error"
    },
    {
      "inputs": [
        {
          "internalType": "address",
          "name": "account",
          "type": "address"
        }
      ],
      "name": "OwnableUnauthorizedAccount",
      "type": "error"
    },
    {
      "inputs": [],
      "name": "TransferFailed",
      "type": "error"
    },
    {
      "inputs": [],
      "name": "UUPSUnauthorizedCallContext",
      "type": "error"
    },
    {
      "inputs": [
        {
          "internalType": "bytes32",
          "name": "slot",
          "type": "bytes32"
        }
      ],
      "name": "UUPSUnsupportedProxiableUUID",
      "type": "error"
    },
    {
      "inputs": [],
      "name": "ZeroAddress",
      "type": "error"
    },
    {
      "anonymous": false,
      "inputs": [
        {
          "indexed": true,
          "internalType": "address",
          "name": "newAutomationRegistry",
          "type": "address"
        }
      ],
      "name": "AutomationRegistryUpdated",
      "type": "event"
    },
    {
      "anonymous": false,
      "inputs": [
        {
          "indexed": false,
          "internalType": "uint64",
          "name": "version",
          "type": "uint64"
        }
      ],
      "name": "Initialized",
      "type": "event"
    },
    {
      "anonymous": false,
      "inputs": [
        {
          "indexed": true,
          "internalType": "address",
          "name": "previousOwner",
          "type": "address"
        },
        {
          "indexed": true,
          "internalType": "address",
          "name": "newOwner",
          "type": "address"
        }
      ],
      "name": "OwnershipTransferStarted",
      "type": "event"
    },
    {
      "anonymous": false,
      "inputs": [
        {
          "indexed": true,
          "internalType": "address",
          "name": "previousOwner",
          "type": "address"
        },
        {
          "indexed": true,
          "internalType": "address",
          "name": "newOwner",
          "type": "address"
        }
      ],
      "name": "OwnershipTransferred",
      "type": "event"
    },
    {
      "anonymous": false,
      "inputs": [],
      "name": "PortfolioRebalanced",
      "type": "event"
    },
    {
      "anonymous": false,
      "inputs": [
        {
          "indexed": true,
          "internalType": "address",
          "name": "implementation",
          "type": "address"
        }
      ],
      "name": "Upgraded",
      "type": "event"
    },
    {
      "inputs": [],
      "name": "UPGRADE_INTERFACE_VERSION",
      "outputs": [
        {
          "internalType": "string",
          "name": "",
          "type": "string"
        }
      ],
      "stateMutability": "view",
      "type": "function"
    },
    {
      "inputs": [],
      "name": "acceptOwnership",
      "outputs": [],
      "stateMutability": "nonpayable",
      "type": "function"
    },
    {
      "inputs": [],
      "name": "automationRegistry",
      "outputs": [
        {
          "internalType": "address",
          "name": "",
          "type": "address"
        }
      ],
      "stateMutability": "view",
      "type": "function"
    },
    {
      "inputs": [
        {
          "internalType": "bytes",
          "name": "",
          "type": "bytes"
        }
      ],
      "name": "checkUpkeep",
      "outputs": [
        {
          "internalType": "bool",
          "name": "upkeepNeeded",
          "type": "bool"
        },
        {
          "internalType": "bytes",
          "name": "performData",
          "type": "bytes"
        }
      ],
      "stateMutability": "view",
      "type": "function"
    },
    {
      "inputs": [],
      "name": "config",
      "outputs": [
        {
          "internalType": "contract IOrionConfig",
          "name": "",
          "type": "address"
        }
      ],
      "stateMutability": "view",
      "type": "function"
    },
    {
      "inputs": [
        {
          "internalType": "address",
          "name": "initialOwner",
          "type": "address"
        },
        {
          "internalType": "address",
          "name": "automationRegistry_",
          "type": "address"
        },
        {
          "internalType": "address",
          "name": "config_",
          "type": "address"
        }
      ],
      "name": "initialize",
      "outputs": [],
      "stateMutability": "nonpayable",
      "type": "function"
    },
    {
      "inputs": [],
      "name": "internalStatesOrchestrator",
      "outputs": [
        {
          "internalType": "contract IInternalStateOrchestrator",
          "name": "",
          "type": "address"
        }
      ],
      "stateMutability": "view",
      "type": "function"
    },
    {
      "inputs": [],
      "name": "lastProcessedEpoch",
      "outputs": [
        {
          "internalType": "uint256",
          "name": "",
          "type": "uint256"
        }
      ],
      "stateMutability": "view",
      "type": "function"
    },
    {
      "inputs": [],
      "name": "owner",
      "outputs": [
        {
          "internalType": "address",
          "name": "",
          "type": "address"
        }
      ],
      "stateMutability": "view",
      "type": "function"
    },
    {
      "inputs": [],
      "name": "pendingOwner",
      "outputs": [
        {
          "internalType": "address",
          "name": "",
          "type": "address"
        }
      ],
      "stateMutability": "view",
      "type": "function"
    },
    {
      "inputs": [
        {
          "internalType": "bytes",
          "name": "",
          "type": "bytes"
        }
      ],
      "name": "performUpkeep",
      "outputs": [],
      "stateMutability": "nonpayable",
      "type": "function"
    },
    {
      "inputs": [],
      "name": "proxiableUUID",
      "outputs": [
        {
          "internalType": "bytes32",
          "name": "",
          "type": "bytes32"
        }
      ],
      "stateMutability": "view",
      "type": "function"
    },
    {
      "inputs": [],
      "name": "renounceOwnership",
      "outputs": [],
      "stateMutability": "nonpayable",
      "type": "function"
    },
    {
      "inputs": [
        {
          "internalType": "address",
          "name": "user",
          "type": "address"
        },
        {
          "internalType": "uint256",
          "name": "amount",
          "type": "uint256"
        }
      ],
      "name": "returnDepositFunds",
      "outputs": [],
      "stateMutability": "nonpayable",
      "type": "function"
    },
    {
      "inputs": [
        {
          "internalType": "address",
          "name": "newOwner",
          "type": "address"
        }
      ],
      "name": "transferOwnership",
      "outputs": [],
      "stateMutability": "nonpayable",
      "type": "function"
    },
    {
      "inputs": [
        {
          "internalType": "address",
          "name": "newAutomationRegistry",
          "type": "address"
        }
      ],
      "name": "updateAutomationRegistry",
      "outputs": [],
      "stateMutability": "nonpayable",
      "type": "function"
    },
    {
      "inputs": [
        {
          "internalType": "address",
          "name": "newConfig",
          "type": "address"
        }
      ],
      "name": "updateConfig",
      "outputs": [],
      "stateMutability": "nonpayable",
      "type": "function"
    },
    {
      "inputs": [
        {
          "internalType": "address",
          "name": "newImplementation",
          "type": "address"
        },
        {
          "internalType": "bytes",
          "name": "data",
          "type": "bytes"
        }
      ],
      "name": "upgradeToAndCall",
      "outputs": [],
      "stateMutability": "payable",
      "type": "function"
    }
  ],
  "bytecode": "0x60a0604052306080523480156012575f5ffd5b50608051611a8f6100395f395f81816110520152818161107b01526111bf0152611a8f5ff3fe608060405260043610610105575f3560e01c8063715018a611610092578063ad3cb1cc11610062578063ad3cb1cc1461029e578063c0c53b8b146102db578063e30c3978146102fa578063ee6713df1461030e578063f2fde38b14610323575f5ffd5b8063715018a61461024357806379502c551461025757806379ba5097146102765780638da5cb5b1461028a575f5ffd5b806351edffb1116100d857806351edffb11461019857806352d1902d146101b75780635dc228a0146101d95780636cc919c8146101f75780636e04ff0d14610216575f5ffd5b806314b5d07f14610109578063348ec5c81461012a5780634585e33b146101665780634f1ef28614610185575b5f5ffd5b348015610114575f5ffd5b5061012861012336600461151d565b610342565b005b348015610135575f5ffd5b50600254610149906001600160a01b031681565b6040516001600160a01b0390911681526020015b60405180910390f35b348015610171575f5ffd5b50610128610180366004611538565b6103b8565b6101286101933660046115e8565b6108f2565b3480156101a3575f5ffd5b506101286101b236600461168d565b61090d565b3480156101c2575f5ffd5b506101cb610bb8565b60405190815260200161015d565b3480156101e4575f5ffd5b505f54610149906001600160a01b031681565b348015610202575f5ffd5b5061012861021136600461151d565b610bd3565b348015610221575f5ffd5b50610235610230366004611538565b610c24565b60405161015d9291906116e5565b34801561024e575f5ffd5b50610128610cba565b348015610262575f5ffd5b50600154610149906001600160a01b031681565b348015610281575f5ffd5b50610128610ccd565b348015610295575f5ffd5b50610149610d1a565b3480156102a9575f5ffd5b506102ce604051806040016040528060058152602001640352e302e360dc1b81525081565b60405161015d9190611707565b3480156102e6575f5ffd5b506101286102f5366004611719565b610d4e565b348015610305575f5ffd5b50610149610f68565b348015610319575f5ffd5b506101cb60035481565b34801561032e575f5ffd5b5061012861033d36600461151d565b610f90565b61034a611015565b6001600160a01b0381166103715760405163d92e233d60e01b815260040160405180910390fd5b5f80546001600160a01b0319166001600160a01b038316908117825560405190917f6cc7ebdb6c8c53291c5ae16148cab9b049d23bf5bde5632900b40edff56fcb4391a250565b5f546001600160a01b031633146103e25760405163ea8e4eb560e01b815260040160405180910390fd5b60025460408051630a58ce2d60e11b815290515f926001600160a01b0316916314b19c5a9160048083019260209291908290030181865afa158015610429573d5f5f3e3d5ffd5b505050506040513d601f19601f8201168201806040525081019061044d9190611761565b9050600354811161045d57505050565b806003819055505f5f60025f9054906101000a90046001600160a01b03166001600160a01b031663c2cb5d886040518163ffffffff1660e01b81526004015f60405180830381865afa1580156104b5573d5f5f3e3d5ffd5b505050506040513d5f823e601f3d908101601f191682016040526104dc919081019061180d565b90925090505f5b825181101561052c575f8382815181106104ff576104ff6118c9565b602002602001015190505f83838151811061051c5761051c6118c9565b5050600190920191506104e39050565b505f5f60025f9054906101000a90046001600160a01b03166001600160a01b031663a08b82d76040518163ffffffff1660e01b81526004015f60405180830381865afa15801561057e573d5f5f3e3d5ffd5b505050506040513d5f823e601f3d908101601f191682016040526105a5919081019061180d565b90925090505f5b82518110156105f5575f8382815181106105c8576105c86118c9565b602002602001015190505f8383815181106105e5576105e56118c9565b5050600190920191506105ac9050565b50600154604051631da09e4360e31b81525f916001600160a01b03169063ed04f218906106269084906004016118dd565b5f60405180830381865afa158015610640573d5f5f3e3d5ffd5b505050506040513d5f823e601f3d908101601f191682016040526106679190810190611903565b80519091505f5b81811015610757575f838281518110610689576106896118c9565b60200260200101519050806001600160a01b031663105444945f6001600160401b038111156106ba576106ba6115a4565b6040519080825280602002602001820160405280156106fe57816020015b604080518082019091525f80825260208201528152602001906001900390816106d85790505b505f6040518363ffffffff1660e01b815260040161071d929190611934565b5f604051808303815f87803b158015610734575f5ffd5b505af1158015610746573d5f5f3e3d5ffd5b50506001909301925061066e915050565b5060018054604051631da09e4360e31b81525f926001600160a01b039092169163ed04f2189161078a91906004016118dd565b5f60405180830381865afa1580156107a4573d5f5f3e3d5ffd5b505050506040513d5f823e601f3d908101601f191682016040526107cb9190810190611903565b8051925090505f5b828110156108bc575f8282815181106107ee576107ee6118c9565b60200260200101519050806001600160a01b031663985ba4ae5f6001600160401b0381111561081f5761081f6115a4565b60405190808252806020026020018201604052801561086357816020015b604080518082019091525f808252602082015281526020019060019003908161083d5790505b505f6040518363ffffffff1660e01b815260040161088292919061199b565b5f604051808303815f87803b158015610899575f5ffd5b505af11580156108ab573d5f5f3e3d5ffd5b5050600190930192506107d3915050565b506040517ff0094b59b7bc92e9fc611b14b5d3a34fe02530ac9bcf36c2c6f10147c3030c12905f90a150505050505050505b5050565b6108fa611047565b610903826110eb565b6108ee82826110f3565b600154604051631da09e4360e31b81525f916001600160a01b03169063ed04f2189061093d9084906004016118dd565b5f60405180830381865afa158015610957573d5f5f3e3d5ffd5b505050506040513d5f823e601f3d908101601f1916820160405261097e9190810190611903565b60018054604051631da09e4360e31b81529293505f926001600160a01b039091169163ed04f218916109b391906004016118dd565b5f60405180830381865afa1580156109cd573d5f5f3e3d5ffd5b505050506040513d5f823e601f3d908101601f191682016040526109f49190810190611903565b90505f805b8351811015610a4557336001600160a01b0316848281518110610a1e57610a1e6118c9565b60200260200101516001600160a01b031603610a3d5760019150610a45565b6001016109f9565b5080610a9b575f5b8251811015610a9957336001600160a01b0316838281518110610a7257610a726118c9565b60200260200101516001600160a01b031603610a915760019150610a99565b600101610a4d565b505b80610ab95760405163ea8e4eb560e01b815260040160405180910390fd5b5f336001600160a01b03166338d52e0f6040518163ffffffff1660e01b8152600401602060405180830381865afa158015610af6573d5f5f3e3d5ffd5b505050506040513d601f19601f82011682018060405250810190610b1a91906119e9565b60405163a9059cbb60e01b81526001600160a01b038881166004830152602482018890529192505f9183169063a9059cbb906044016020604051808303815f875af1158015610b6b573d5f5f3e3d5ffd5b505050506040513d601f19601f82011682018060405250810190610b8f9190611a04565b905080610baf576040516312171d8360e31b815260040160405180910390fd5b50505050505050565b5f610bc16111b4565b505f516020611a3a5f395f51905f5290565b610bdb611015565b6001600160a01b038116610c025760405163d92e233d60e01b815260040160405180910390fd5b600180546001600160a01b0319166001600160a01b0392909216919091179055565b5f60605f60025f9054906101000a90046001600160a01b03166001600160a01b03166314b19c5a6040518163ffffffff1660e01b8152600401602060405180830381865afa158015610c78573d5f5f3e3d5ffd5b505050506040513d601f19601f82011682018060405250810190610c9c9190611761565b60035460408051602081019091525f81529111969095509350505050565b610cc2611015565b610ccb5f6111fd565b565b3380610cd7610f68565b6001600160a01b031614610d0e5760405163118cdaa760e01b81526001600160a01b03821660048201526024015b60405180910390fd5b610d17816111fd565b50565b5f807f9016d09d72d40fdae2fd8ceac6b6234c7706214fd39c1cd1e609a0528c1993005b546001600160a01b031692915050565b7ff0c57e16840df040f15088dc2f81fe391c3923bec73e23a9662efc9c229c6a008054600160401b810460ff1615906001600160401b03165f81158015610d925750825b90505f826001600160401b03166001148015610dad5750303b155b905081158015610dbb575080155b15610dd95760405163f92ee8a960e01b815260040160405180910390fd5b845467ffffffffffffffff191660011785558315610e0357845460ff60401b1916600160401b1785555b610e0c88611235565b610e14611246565b610e1c611246565b6001600160a01b038716610e435760405163d92e233d60e01b815260040160405180910390fd5b6001600160a01b038616610e6a5760405163d92e233d60e01b815260040160405180910390fd5b5f80546001600160a01b03808a166001600160a01b03199283161790925560018054928916929091168217905560408051630691d8b960e31b8152905163348ec5c8916004808201926020929091908290030181865afa158015610ed0573d5f5f3e3d5ffd5b505050506040513d601f19601f82011682018060405250810190610ef491906119e9565b600280546001600160a01b0319166001600160a01b03929092169190911790555f6003558315610f5e57845460ff60401b19168555604051600181527fc7f505b2f371ae2175ee4913f4499e1f2633a7b5936321eed1cdaeb6115181d29060200160405180910390a15b5050505050505050565b5f807f237e158222e3e6968b72b9db0d8043aacf074ad9f650f0d1606b4d82ee432c00610d3e565b610f98611015565b7f237e158222e3e6968b72b9db0d8043aacf074ad9f650f0d1606b4d82ee432c0080546001600160a01b0319166001600160a01b0383169081178255610fdc610d1a565b6001600160a01b03167f38d16b8cac22d99fc7c124b9cd0de2d3fa1faef420bfe791d8c362d765e2270060405160405180910390a35050565b3361101e610d1a565b6001600160a01b031614610ccb5760405163118cdaa760e01b8152336004820152602401610d05565b306001600160a01b037f00000000000000000000000000000000000000000000000000000000000000001614806110cd57507f00000000000000000000000000000000000000000000000000000000000000006001600160a01b03166110c15f516020611a3a5f395f51905f52546001600160a01b031690565b6001600160a01b031614155b15610ccb5760405163703e46dd60e11b815260040160405180910390fd5b610d17611015565b816001600160a01b03166352d1902d6040518163ffffffff1660e01b8152600401602060405180830381865afa92505050801561114d575060408051601f3d908101601f1916820190925261114a91810190611761565b60015b61117557604051634c9c8ce360e01b81526001600160a01b0383166004820152602401610d05565b5f516020611a3a5f395f51905f5281146111a557604051632a87526960e21b815260048101829052602401610d05565b6111af838361124e565b505050565b306001600160a01b037f00000000000000000000000000000000000000000000000000000000000000001614610ccb5760405163703e46dd60e11b815260040160405180910390fd5b7f237e158222e3e6968b72b9db0d8043aacf074ad9f650f0d1606b4d82ee432c0080546001600160a01b03191681556108ee826112a3565b61123d611313565b610d178161135c565b610ccb611313565b6112578261138d565b6040516001600160a01b038316907fbc7cd75a20ee27fd9adebab32041f755214dbc6bffa90cc0225b39da2e5c2d3b905f90a280511561129b576111af82826113f0565b6108ee611462565b7f9016d09d72d40fdae2fd8ceac6b6234c7706214fd39c1cd1e609a0528c19930080546001600160a01b031981166001600160a01b03848116918217845560405192169182907f8be0079c531659141344cd1fd0a4f28419497f9722a3daafe3b4186f6b6457e0905f90a3505050565b7ff0c57e16840df040f15088dc2f81fe391c3923bec73e23a9662efc9c229c6a0054600160401b900460ff16610ccb57604051631afcd79f60e31b815260040160405180910390fd5b611364611313565b6001600160a01b038116610d0e57604051631e4fbdf760e01b81525f6004820152602401610d05565b806001600160a01b03163b5f036113c257604051634c9c8ce360e01b81526001600160a01b0382166004820152602401610d05565b5f516020611a3a5f395f51905f5280546001600160a01b0319166001600160a01b0392909216919091179055565b60605f5f846001600160a01b03168460405161140c9190611a23565b5f60405180830381855af49150503d805f8114611444576040519150601f19603f3d011682016040523d82523d5f602084013e611449565b606091505b5091509150611459858383611481565b95945050505050565b3415610ccb5760405163b398979f60e01b815260040160405180910390fd5b60608261149657611491826114e0565b6114d9565b81511580156114ad57506001600160a01b0384163b155b156114d657604051639996b31560e01b81526001600160a01b0385166004820152602401610d05565b50805b9392505050565b8051156114f05780518082602001fd5b60405163d6bda27560e01b815260040160405180910390fd5b6001600160a01b0381168114610d17575f5ffd5b5f6020828403121561152d575f5ffd5b81356114d981611509565b5f5f60208385031215611549575f5ffd5b82356001600160401b0381111561155e575f5ffd5b8301601f8101851361156e575f5ffd5b80356001600160401b03811115611583575f5ffd5b856020828401011115611594575f5ffd5b6020919091019590945092505050565b634e487b7160e01b5f52604160045260245ffd5b604051601f8201601f191681016001600160401b03811182821017156115e0576115e06115a4565b604052919050565b5f5f604083850312156115f9575f5ffd5b823561160481611509565b915060208301356001600160401b0381111561161e575f5ffd5b8301601f8101851361162e575f5ffd5b80356001600160401b03811115611647576116476115a4565b61165a601f8201601f19166020016115b8565b81815286602083850101111561166e575f5ffd5b816020840160208301375f602083830101528093505050509250929050565b5f5f6040838503121561169e575f5ffd5b82356116a981611509565b946020939093013593505050565b5f81518084528060208401602086015e5f602082860101526020601f19601f83011685010191505092915050565b8215158152604060208201525f6116ff60408301846116b7565b949350505050565b602081525f6114d960208301846116b7565b5f5f5f6060848603121561172b575f5ffd5b833561173681611509565b9250602084013561174681611509565b9150604084013561175681611509565b809150509250925092565b5f60208284031215611771575f5ffd5b5051919050565b5f6001600160401b03821115611790576117906115a4565b5060051b60200190565b5f82601f8301126117a9575f5ffd5b81516117bc6117b782611778565b6115b8565b8082825260208201915060208360051b8601019250858311156117dd575f5ffd5b602085015b838110156118035780516117f581611509565b8352602092830192016117e2565b5095945050505050565b5f5f6040838503121561181e575f5ffd5b82516001600160401b03811115611833575f5ffd5b61183f8582860161179a565b92505060208301516001600160401b0381111561185a575f5ffd5b8301601f8101851361186a575f5ffd5b80516118786117b782611778565b8082825260208201915060208360051b850101925087831115611899575f5ffd5b6020840193505b828410156118bb5783518252602093840193909101906118a0565b809450505050509250929050565b634e487b7160e01b5f52603260045260245ffd5b60208101600283106118fd57634e487b7160e01b5f52602160045260245ffd5b91905290565b5f60208284031215611913575f5ffd5b81516001600160401b03811115611928575f5ffd5b6116ff8482850161179a565b604080825283519082018190525f9060208501906060840190835b8181101561198857835180516001600160a01b0316845260209081015163ffffffff16818501529093019260409092019160010161194f565b5050602093909301939093525092915050565b604080825283519082018190525f9060208501906060840190835b8181101561198857835180516001600160a01b0316845260209081015181850152909301926040909201916001016119b6565b5f602082840312156119f9575f5ffd5b81516114d981611509565b5f60208284031215611a14575f5ffd5b815180151581146114d9575f5ffd5b5f82518060208501845e5f92019182525091905056fe360894a13ba1a3210667c828492db98dca3e2076cc3735a920a3ca505d382bbca2646970667358221220598eccc5ab2069e4707b23885e2d03db332a09101f55831fac5b3161e88acee564736f6c634300081c0033",
  "linkReferences": {},
  "deployedLinkReferences": {}
}