{
  "_format": "hh-sol-artifact-1",
  "contractName": "LiquidityOrchestrator",
  "sourceName": "contracts/orchestrators/LiquidityOrchestrator.sol",
  "abi": [
    {
      "inputs": [],
      "name": "AdapterNotSet",
      "type": "error"
    },
    {
      "inputs": [
        {
          "internalType": "address",
          "name": "target",
          "type": "address"
        }
      ],
      "name": "AddressEmptyCode",
      "type": "error"
    },
    {
      "inputs": [
        {
          "internalType": "address",
          "name": "implementation",
          "type": "address"
        }
      ],
      "name": "ERC1967InvalidImplementation",
      "type": "error"
    },
    {
      "inputs": [],
      "name": "ERC1967NonPayable",
      "type": "error"
    },
    {
      "inputs": [],
      "name": "FailedCall",
      "type": "error"
    },
    {
      "inputs": [],
      "name": "InvalidInitialization",
      "type": "error"
    },
    {
      "inputs": [],
      "name": "NotAuthorized",
      "type": "error"
    },
    {
      "inputs": [],
      "name": "NotInitializing",
      "type": "error"
    },
    {
      "inputs": [
        {
          "internalType": "address",
          "name": "owner",
          "type": "address"
        }
      ],
      "name": "OwnableInvalidOwner",
      "type": "error"
    },
    {
      "inputs": [
        {
          "internalType": "address",
          "name": "account",
          "type": "address"
        }
      ],
      "name": "OwnableUnauthorizedAccount",
      "type": "error"
    },
    {
      "inputs": [],
      "name": "TransferFailed",
      "type": "error"
    },
    {
      "inputs": [],
      "name": "UUPSUnauthorizedCallContext",
      "type": "error"
    },
    {
      "inputs": [
        {
          "internalType": "bytes32",
          "name": "slot",
          "type": "bytes32"
        }
      ],
      "name": "UUPSUnsupportedProxiableUUID",
      "type": "error"
    },
    {
      "inputs": [],
      "name": "ZeroAddress",
      "type": "error"
    },
    {
      "anonymous": false,
      "inputs": [
        {
          "indexed": true,
          "internalType": "address",
          "name": "newAutomationRegistry",
          "type": "address"
        }
      ],
      "name": "AutomationRegistryUpdated",
      "type": "event"
    },
    {
      "anonymous": false,
      "inputs": [
        {
          "indexed": true,
          "internalType": "address",
          "name": "asset",
          "type": "address"
        },
        {
          "indexed": true,
          "internalType": "address",
          "name": "adapter",
          "type": "address"
        }
      ],
      "name": "ExecutionAdapterSet",
      "type": "event"
    },
    {
      "anonymous": false,
      "inputs": [
        {
          "indexed": false,
          "internalType": "uint64",
          "name": "version",
          "type": "uint64"
        }
      ],
      "name": "Initialized",
      "type": "event"
    },
    {
      "anonymous": false,
      "inputs": [
        {
          "indexed": true,
          "internalType": "address",
          "name": "previousOwner",
          "type": "address"
        },
        {
          "indexed": true,
          "internalType": "address",
          "name": "newOwner",
          "type": "address"
        }
      ],
      "name": "OwnershipTransferStarted",
      "type": "event"
    },
    {
      "anonymous": false,
      "inputs": [
        {
          "indexed": true,
          "internalType": "address",
          "name": "previousOwner",
          "type": "address"
        },
        {
          "indexed": true,
          "internalType": "address",
          "name": "newOwner",
          "type": "address"
        }
      ],
      "name": "OwnershipTransferred",
      "type": "event"
    },
    {
      "anonymous": false,
      "inputs": [],
      "name": "PortfolioRebalanced",
      "type": "event"
    },
    {
      "anonymous": false,
      "inputs": [
        {
          "indexed": true,
          "internalType": "address",
          "name": "implementation",
          "type": "address"
        }
      ],
      "name": "Upgraded",
      "type": "event"
    },
    {
      "inputs": [],
      "name": "UPGRADE_INTERFACE_VERSION",
      "outputs": [
        {
          "internalType": "string",
          "name": "",
          "type": "string"
        }
      ],
      "stateMutability": "view",
      "type": "function"
    },
    {
      "inputs": [],
      "name": "acceptOwnership",
      "outputs": [],
      "stateMutability": "nonpayable",
      "type": "function"
    },
    {
      "inputs": [],
      "name": "automationRegistry",
      "outputs": [
        {
          "internalType": "address",
          "name": "",
          "type": "address"
        }
      ],
      "stateMutability": "view",
      "type": "function"
    },
    {
      "inputs": [
        {
          "internalType": "bytes",
          "name": "",
          "type": "bytes"
        }
      ],
      "name": "checkUpkeep",
      "outputs": [
        {
          "internalType": "bool",
          "name": "upkeepNeeded",
          "type": "bool"
        },
        {
          "internalType": "bytes",
          "name": "performData",
          "type": "bytes"
        }
      ],
      "stateMutability": "view",
      "type": "function"
    },
    {
      "inputs": [],
      "name": "config",
      "outputs": [
        {
          "internalType": "contract IOrionConfig",
          "name": "",
          "type": "address"
        }
      ],
      "stateMutability": "view",
      "type": "function"
    },
    {
      "inputs": [],
      "name": "currentPhase",
      "outputs": [
        {
          "internalType": "enum LiquidityOrchestrator.UpkeepPhase",
          "name": "",
          "type": "uint8"
        }
      ],
      "stateMutability": "view",
      "type": "function"
    },
    {
      "inputs": [
        {
          "internalType": "address",
          "name": "",
          "type": "address"
        }
      ],
      "name": "executionAdapterOf",
      "outputs": [
        {
          "internalType": "contract IExecutionAdapter",
          "name": "",
          "type": "address"
        }
      ],
      "stateMutability": "view",
      "type": "function"
    },
    {
      "inputs": [
        {
          "internalType": "address",
          "name": "initialOwner",
          "type": "address"
        },
        {
          "internalType": "address",
          "name": "automationRegistry_",
          "type": "address"
        },
        {
          "internalType": "address",
          "name": "config_",
          "type": "address"
        }
      ],
      "name": "initialize",
      "outputs": [],
      "stateMutability": "nonpayable",
      "type": "function"
    },
    {
      "inputs": [],
      "name": "internalStatesOrchestrator",
      "outputs": [
        {
          "internalType": "contract IInternalStateOrchestrator",
          "name": "",
          "type": "address"
        }
      ],
      "stateMutability": "view",
      "type": "function"
    },
    {
      "inputs": [],
      "name": "lastProcessedEpoch",
      "outputs": [
        {
          "internalType": "uint256",
          "name": "",
          "type": "uint256"
        }
      ],
      "stateMutability": "view",
      "type": "function"
    },
    {
      "inputs": [],
      "name": "owner",
      "outputs": [
        {
          "internalType": "address",
          "name": "",
          "type": "address"
        }
      ],
      "stateMutability": "view",
      "type": "function"
    },
    {
      "inputs": [],
      "name": "pendingOwner",
      "outputs": [
        {
          "internalType": "address",
          "name": "",
          "type": "address"
        }
      ],
      "stateMutability": "view",
      "type": "function"
    },
    {
      "inputs": [
        {
          "internalType": "bytes",
          "name": "",
          "type": "bytes"
        }
      ],
      "name": "performUpkeep",
      "outputs": [],
      "stateMutability": "nonpayable",
      "type": "function"
    },
    {
      "inputs": [],
      "name": "processedLegOrders",
      "outputs": [
        {
          "internalType": "uint256",
          "name": "",
          "type": "uint256"
        }
      ],
      "stateMutability": "view",
      "type": "function"
    },
    {
      "inputs": [],
      "name": "proxiableUUID",
      "outputs": [
        {
          "internalType": "bytes32",
          "name": "",
          "type": "bytes32"
        }
      ],
      "stateMutability": "view",
      "type": "function"
    },
    {
      "inputs": [],
      "name": "renounceOwnership",
      "outputs": [],
      "stateMutability": "nonpayable",
      "type": "function"
    },
    {
      "inputs": [
        {
          "internalType": "address",
          "name": "user",
          "type": "address"
        },
        {
          "internalType": "uint256",
          "name": "amount",
          "type": "uint256"
        }
      ],
      "name": "returnDepositFunds",
      "outputs": [],
      "stateMutability": "nonpayable",
      "type": "function"
    },
    {
      "inputs": [
        {
          "internalType": "address",
          "name": "user",
          "type": "address"
        },
        {
          "internalType": "uint256",
          "name": "shares",
          "type": "uint256"
        }
      ],
      "name": "returnWithdrawShares",
      "outputs": [],
      "stateMutability": "nonpayable",
      "type": "function"
    },
    {
      "inputs": [
        {
          "internalType": "address",
          "name": "asset",
          "type": "address"
        },
        {
          "internalType": "contract IExecutionAdapter",
          "name": "adapter",
          "type": "address"
        }
      ],
      "name": "setExecutionAdapter",
      "outputs": [],
      "stateMutability": "nonpayable",
      "type": "function"
    },
    {
      "inputs": [
        {
          "internalType": "address",
          "name": "newOwner",
          "type": "address"
        }
      ],
      "name": "transferOwnership",
      "outputs": [],
      "stateMutability": "nonpayable",
      "type": "function"
    },
    {
      "inputs": [],
      "name": "underlyingAsset",
      "outputs": [
        {
          "internalType": "address",
          "name": "",
          "type": "address"
        }
      ],
      "stateMutability": "view",
      "type": "function"
    },
    {
      "inputs": [
        {
          "internalType": "address",
          "name": "asset",
          "type": "address"
        }
      ],
      "name": "unsetExecutionAdapter",
      "outputs": [],
      "stateMutability": "nonpayable",
      "type": "function"
    },
    {
      "inputs": [
        {
          "internalType": "address",
          "name": "newAutomationRegistry",
          "type": "address"
        }
      ],
      "name": "updateAutomationRegistry",
      "outputs": [],
      "stateMutability": "nonpayable",
      "type": "function"
    },
    {
      "inputs": [
        {
          "internalType": "address",
          "name": "newConfig",
          "type": "address"
        }
      ],
      "name": "updateConfig",
      "outputs": [],
      "stateMutability": "nonpayable",
      "type": "function"
    },
    {
      "inputs": [
        {
          "internalType": "address",
          "name": "newImplementation",
          "type": "address"
        },
        {
          "internalType": "bytes",
          "name": "data",
          "type": "bytes"
        }
      ],
      "name": "upgradeToAndCall",
      "outputs": [],
      "stateMutability": "payable",
      "type": "function"
    }
  ],
  "bytecode": "0x60a0604052306080523480156012575f5ffd5b506080516121c46100395f395f81816117570152818161178001526118bf01526121c45ff3fe608060405260043610610161575f3560e01c8063715018a6116100cd578063ad3cb1cc11610087578063d3f3506d11610062578063d3f3506d14610411578063e30c397814610445578063ee6713df14610459578063f2fde38b1461046e575f5ffd5b8063ad3cb1cc14610396578063be186b20146103d3578063c0c53b8b146103f2575f5ffd5b8063715018a6146102fd5780637158da7c1461031157806379502c551461033057806379ba50971461034f578063841181ef146103635780638da5cb5b14610382575f5ffd5b806351edffb11161011e57806351edffb11461024157806352d1902d1461026057806359017aa9146102745780635dc228a0146102935780636cc919c8146102b15780636e04ff0d146102d0575f5ffd5b8063055ad42e1461016557806314b5d07f146101945780631a2e7ec9146101b5578063348ec5c8146101d85780634585e33b1461020f5780634f1ef2861461022e575b5f5ffd5b348015610170575f5ffd5b5060065461017e9060ff1681565b60405161018b9190611c3b565b60405180910390f35b34801561019f575f5ffd5b506101b36101ae366004611c69565b61048d565b005b3480156101c0575f5ffd5b506101ca60075481565b60405190815260200161018b565b3480156101e3575f5ffd5b506002546101f7906001600160a01b031681565b6040516001600160a01b03909116815260200161018b565b34801561021a575f5ffd5b506101b3610229366004611c84565b610503565b6101b361023c366004611d37565b610b62565b34801561024c575f5ffd5b506101b361025b366004611dde565b610b7d565b34801561026b575f5ffd5b506101ca610c9d565b34801561027f575f5ffd5b506101b361028e366004611e08565b610cb8565b34801561029e575f5ffd5b505f546101f7906001600160a01b031681565b3480156102bc575f5ffd5b506101b36102cb366004611c69565b610d74565b3480156102db575f5ffd5b506102ef6102ea366004611c84565b610dc5565b60405161018b929190611e6d565b348015610308575f5ffd5b506101b3610eca565b34801561031c575f5ffd5b506003546101f7906001600160a01b031681565b34801561033b575f5ffd5b506001546101f7906001600160a01b031681565b34801561035a575f5ffd5b506101b3610edd565b34801561036e575f5ffd5b506101b361037d366004611c69565b610f2a565b34801561038d575f5ffd5b506101f7610fce565b3480156103a1575f5ffd5b506103c6604051806040016040528060058152602001640352e302e360dc1b81525081565b60405161018b9190611e8f565b3480156103de575f5ffd5b506101b36103ed366004611dde565b611002565b3480156103fd575f5ffd5b506101b361040c366004611ea1565b611121565b34801561041c575f5ffd5b506101f761042b366004611c69565b60046020525f90815260409020546001600160a01b031681565b348015610450575f5ffd5b506101f76113b7565b348015610464575f5ffd5b506101ca60055481565b348015610479575f5ffd5b506101b3610488366004611c69565b6113df565b610495611464565b6001600160a01b0381166104bc5760405163d92e233d60e01b815260040160405180910390fd5b5f80546001600160a01b0319166001600160a01b038316908117825560405190917f6cc7ebdb6c8c53291c5ae16148cab9b049d23bf5bde5632900b40edff56fcb4391a250565b5f546001600160a01b0316331461052d5760405163ea8e4eb560e01b815260040160405180910390fd5b60025460408051630a58ce2d60e11b815290515f926001600160a01b0316916314b19c5a9160048083019260209291908290030181865afa158015610574573d5f5f3e3d5ffd5b505050506040513d601f19601f820116820180604052508101906105989190611ee9565b905060055481116105a857505050565b60058190556003546040516370a0823160e01b81523060048201525f916001600160a01b0316906370a0823190602401602060405180830381865afa1580156105f3573d5f5f3e3d5ffd5b505050506040513d601f19601f820116820180604052508101906106179190611ee9565b90505f5f60025f9054906101000a90046001600160a01b03166001600160a01b031663c2cb5d886040518163ffffffff1660e01b81526004015f60405180830381865afa15801561066a573d5f5f3e3d5ffd5b505050506040513d5f823e601f3d908101601f191682016040526106919190810190611f96565b90925090505f5b82518110156106ef575f8382815181106106b4576106b4612054565b602002602001015190505f8383815181106106d1576106d1612054565b602002602001015190506106e58282611496565b5050600101610698565b506003546040516370a0823160e01b81523060048201525f916001600160a01b0316906370a0823190602401602060405180830381865afa158015610736573d5f5f3e3d5ffd5b505050506040513d601f19601f8201168201806040525081019061075a9190611ee9565b90505f610767858361207c565b90505f60025f9054906101000a90046001600160a01b03166001600160a01b03166306cce8486040518163ffffffff1660e01b8152600401602060405180830381865afa1580156107ba573d5f5f3e3d5ffd5b505050506040513d601f19601f820116820180604052508101906107de9190611ee9565b90505f6107eb828461207c565b90505f60025f9054906101000a90046001600160a01b03166001600160a01b0316634a1d96256040518163ffffffff1660e01b8152600401602060405180830381865afa15801561083e573d5f5f3e3d5ffd5b505050506040513d601f19601f820116820180604052508101906108629190611ee9565b9050670de0b6b3a764000081156108a5578161088684670de0b6b3a764000061208f565b61089091906120a6565b6108a290670de0b6b3a76400006120c5565b90505b5f5f60025f9054906101000a90046001600160a01b03166001600160a01b031663a08b82d76040518163ffffffff1660e01b81526004015f60405180830381865afa1580156108f6573d5f5f3e3d5ffd5b505050506040513d5f823e601f3d908101601f1916820160405261091d9190810190611f96565b90925090505f5b825181101561098a57670de0b6b3a76400008483838151811061094957610949612054565b602002602001015161095b919061208f565b61096591906120a6565b82828151811061097757610977612054565b6020908102919091010152600101610924565b505f5b82518110156109e4575f8382815181106109a9576109a9612054565b602002602001015190505f8383815181106109c6576109c6612054565b602002602001015190506109da82826115ba565b505060010161098d565b50600154604051631da09e4360e31b81525f916001600160a01b03169063ed04f21890610a159084906004016120d8565b5f60405180830381865afa158015610a2f573d5f5f3e3d5ffd5b505050506040513d5f823e601f3d908101601f19168201604052610a5691908101906120ec565b80519091505f5b81811015610a83575f838281518110610a7857610a78612054565b505050600101610a5d565b5060018054604051631da09e4360e31b81525f926001600160a01b039092169163ed04f21891610ab691906004016120d8565b5f60405180830381865afa158015610ad0573d5f5f3e3d5ffd5b505050506040513d5f823e601f3d908101601f19168201604052610af791908101906120ec565b8051925090505f5b82811015610b25575f828281518110610b1a57610b1a612054565b505050600101610aff565b506040517ff0094b59b7bc92e9fc611b14b5d3a34fe02530ac9bcf36c2c6f10147c3030c12905f90a15050505050505050505050505050505b5050565b610b6a61174c565b610b73826117f0565b610b5e82826117f8565b600154604051633821dad160e21b81523360048201526001600160a01b039091169063e0876b4490602401602060405180830381865afa158015610bc3573d5f5f3e3d5ffd5b505050506040513d601f19601f82011682018060405250810190610be7919061211e565b610c045760405163ea8e4eb560e01b815260040160405180910390fd5b60035460405163a9059cbb60e01b81526001600160a01b038481166004830152602482018490525f92169063a9059cbb906044016020604051808303815f875af1158015610c54573d5f5f3e3d5ffd5b505050506040513d601f19601f82011682018060405250810190610c78919061211e565b905080610c98576040516312171d8360e31b815260040160405180910390fd5b505050565b5f610ca66118b4565b505f51602061216f5f395f51905f5290565b6001546001600160a01b03163314610ce35760405163ea8e4eb560e01b815260040160405180910390fd5b6001600160a01b0382161580610d0057506001600160a01b038116155b15610d1e5760405163d92e233d60e01b815260040160405180910390fd5b6001600160a01b038281165f8181526004602052604080822080546001600160a01b0319169486169485179055517f2f2727c7b3d9ee55de5c114f0cb7997ac7251a4cbfca4f2b2dc6969d86cce4f49190a35050565b610d7c611464565b6001600160a01b038116610da35760405163d92e233d60e01b815260040160405180910390fd5b600180546001600160a01b0319166001600160a01b0392909216919091179055565b5f60605f60025f9054906101000a90046001600160a01b03166001600160a01b03166314b19c5a6040518163ffffffff1660e01b8152600401602060405180830381865afa158015610e19573d5f5f3e3d5ffd5b505050506040513d601f19601f82011682018060405250810190610e3d9190611ee9565b905060055481118015610e6557505f60065460ff166003811115610e6357610e63611c27565b145b15610ead5760019250604051602001610e97906020808252600590820152641cdd185c9d60da1b604082015260600190565b6040516020818303038152906040529150610ec2565b5f925060405180602001604052805f81525091505b509250929050565b610ed2611464565b610edb5f6118fd565b565b3380610ee76113b7565b6001600160a01b031614610f1e5760405163118cdaa760e01b81526001600160a01b03821660048201526024015b60405180910390fd5b610f27816118fd565b50565b6001546001600160a01b03163314610f555760405163ea8e4eb560e01b815260040160405180910390fd5b6001600160a01b038116610f7c5760405163d92e233d60e01b815260040160405180910390fd5b6001600160a01b0381165f8181526004602052604080822080546001600160a01b0319169055519091907f2f2727c7b3d9ee55de5c114f0cb7997ac7251a4cbfca4f2b2dc6969d86cce4f4908390a350565b5f807f9016d09d72d40fdae2fd8ceac6b6234c7706214fd39c1cd1e609a0528c1993005b546001600160a01b031692915050565b600154604051633821dad160e21b81523360048201526001600160a01b039091169063e0876b4490602401602060405180830381865afa158015611048573d5f5f3e3d5ffd5b505050506040513d601f19601f8201168201806040525081019061106c919061211e565b6110895760405163ea8e4eb560e01b815260040160405180910390fd5b60405163a9059cbb60e01b81526001600160a01b03831660048201526024810182905233905f90829063a9059cbb906044016020604051808303815f875af11580156110d7573d5f5f3e3d5ffd5b505050506040513d601f19601f820116820180604052508101906110fb919061211e565b90508061111b576040516312171d8360e31b815260040160405180910390fd5b50505050565b5f61112a611935565b805490915060ff600160401b820416159067ffffffffffffffff165f811580156111515750825b90505f8267ffffffffffffffff16600114801561116d5750303b155b90508115801561117b575080155b156111995760405163f92ee8a960e01b815260040160405180910390fd5b845467ffffffffffffffff1916600117855583156111c357845460ff60401b1916600160401b1785555b6111cc8861195f565b6111d4611970565b6111dc611970565b6001600160a01b0387166112035760405163d92e233d60e01b815260040160405180910390fd5b6001600160a01b03861661122a5760405163d92e233d60e01b815260040160405180910390fd5b5f80546001600160a01b03808a166001600160a01b03199283161790925560018054928916929091168217905560408051630691d8b960e31b8152905163348ec5c8916004808201926020929091908290030181865afa158015611290573d5f5f3e3d5ffd5b505050506040513d601f19601f820116820180604052508101906112b4919061213d565b600280546001600160a01b0319166001600160a01b0392831617905560015460408051631c56369f60e21b815290519190921691637158da7c9160048083019260209291908290030181865afa158015611310573d5f5f3e3d5ffd5b505050506040513d601f19601f82011682018060405250810190611334919061213d565b600380546001600160a01b0319166001600160a01b03929092169190911790555f60058190556006805460ff1916905560075583156113ad57845460ff60401b19168555604051600181527fc7f505b2f371ae2175ee4913f4499e1f2633a7b5936321eed1cdaeb6115181d29060200160405180910390a15b5050505050505050565b5f807f237e158222e3e6968b72b9db0d8043aacf074ad9f650f0d1606b4d82ee432c00610ff2565b6113e7611464565b7f237e158222e3e6968b72b9db0d8043aacf074ad9f650f0d1606b4d82ee432c0080546001600160a01b0319166001600160a01b038316908117825561142b610fce565b6001600160a01b03167f38d16b8cac22d99fc7c124b9cd0de2d3fa1faef420bfe791d8c362d765e2270060405160405180910390a35050565b3361146d610fce565b6001600160a01b031614610edb5760405163118cdaa760e01b8152336004820152602401610f15565b6001600160a01b038083165f9081526004602052604090205416806114ce57604051635048c2af60e11b815260040160405180910390fd5b60405163095ea7b360e01b81526001600160a01b038281166004830152602482018490525f919085169063095ea7b3906044016020604051808303815f875af115801561151d573d5f5f3e3d5ffd5b505050506040513d601f19601f82011682018060405250810190611541919061211e565b905080611561576040516312171d8360e31b815260040160405180910390fd5b604051636c197ff560e01b81526001600160a01b03858116600483015260248201859052831690636c197ff5906044015f604051808303815f87803b1580156115a8575f5ffd5b505af11580156113ad573d5f5f3e3d5ffd5b6001600160a01b038083165f9081526004602052604090205416806115f257604051635048c2af60e11b815260040160405180910390fd5b5f836001600160a01b03166338d52e0f6040518163ffffffff1660e01b8152600401602060405180830381865afa15801561162f573d5f5f3e3d5ffd5b505050506040513d601f19601f82011682018060405250810190611653919061213d565b60405163095ea7b360e01b81526001600160a01b038481166004830152602482018690529192505f9183169063095ea7b3906044016020604051808303815f875af11580156116a4573d5f5f3e3d5ffd5b505050506040513d601f19601f820116820180604052508101906116c8919061211e565b9050806116e8576040516312171d8360e31b815260040160405180910390fd5b60405163cce7ec1360e01b81526001600160a01b0386811660048301526024820186905284169063cce7ec13906044015f604051808303815f87803b15801561172f575f5ffd5b505af1158015611741573d5f5f3e3d5ffd5b505050505050505050565b306001600160a01b037f00000000000000000000000000000000000000000000000000000000000000001614806117d257507f00000000000000000000000000000000000000000000000000000000000000006001600160a01b03166117c65f51602061216f5f395f51905f52546001600160a01b031690565b6001600160a01b031614155b15610edb5760405163703e46dd60e11b815260040160405180910390fd5b610f27611464565b816001600160a01b03166352d1902d6040518163ffffffff1660e01b8152600401602060405180830381865afa925050508015611852575060408051601f3d908101601f1916820190925261184f91810190611ee9565b60015b61187a57604051634c9c8ce360e01b81526001600160a01b0383166004820152602401610f15565b5f51602061216f5f395f51905f5281146118aa57604051632a87526960e21b815260048101829052602401610f15565b610c988383611978565b306001600160a01b037f00000000000000000000000000000000000000000000000000000000000000001614610edb5760405163703e46dd60e11b815260040160405180910390fd5b7f237e158222e3e6968b72b9db0d8043aacf074ad9f650f0d1606b4d82ee432c0080546001600160a01b0319168155610b5e826119cd565b5f807ff0c57e16840df040f15088dc2f81fe391c3923bec73e23a9662efc9c229c6a005b92915050565b611967611a3d565b610f2781611a62565b610edb611a3d565b61198182611a93565b6040516001600160a01b038316907fbc7cd75a20ee27fd9adebab32041f755214dbc6bffa90cc0225b39da2e5c2d3b905f90a28051156119c557610c988282611af6565b610b5e611b68565b7f9016d09d72d40fdae2fd8ceac6b6234c7706214fd39c1cd1e609a0528c19930080546001600160a01b031981166001600160a01b03848116918217845560405192169182907f8be0079c531659141344cd1fd0a4f28419497f9722a3daafe3b4186f6b6457e0905f90a3505050565b611a45611b87565b610edb57604051631afcd79f60e31b815260040160405180910390fd5b611a6a611a3d565b6001600160a01b038116610f1e57604051631e4fbdf760e01b81525f6004820152602401610f15565b806001600160a01b03163b5f03611ac857604051634c9c8ce360e01b81526001600160a01b0382166004820152602401610f15565b5f51602061216f5f395f51905f5280546001600160a01b0319166001600160a01b0392909216919091179055565b60605f5f846001600160a01b031684604051611b129190612158565b5f60405180830381855af49150503d805f8114611b4a576040519150601f19603f3d011682016040523d82523d5f602084013e611b4f565b606091505b5091509150611b5f858383611ba0565b95945050505050565b3415610edb5760405163b398979f60e01b815260040160405180910390fd5b5f611b90611935565b54600160401b900460ff16919050565b606082611bb557611bb082611bff565b611bf8565b8151158015611bcc57506001600160a01b0384163b155b15611bf557604051639996b31560e01b81526001600160a01b0385166004820152602401610f15565b50805b9392505050565b805115611c0e57805160208201fd5b60405163d6bda27560e01b815260040160405180910390fd5b634e487b7160e01b5f52602160045260245ffd5b6020810160048310611c4f57611c4f611c27565b91905290565b6001600160a01b0381168114610f27575f5ffd5b5f60208284031215611c79575f5ffd5b8135611bf881611c55565b5f5f60208385031215611c95575f5ffd5b823567ffffffffffffffff811115611cab575f5ffd5b8301601f81018513611cbb575f5ffd5b803567ffffffffffffffff811115611cd1575f5ffd5b856020828401011115611ce2575f5ffd5b6020919091019590945092505050565b634e487b7160e01b5f52604160045260245ffd5b604051601f8201601f1916810167ffffffffffffffff81118282101715611d2f57611d2f611cf2565b604052919050565b5f5f60408385031215611d48575f5ffd5b8235611d5381611c55565b9150602083013567ffffffffffffffff811115611d6e575f5ffd5b8301601f81018513611d7e575f5ffd5b803567ffffffffffffffff811115611d9857611d98611cf2565b611dab601f8201601f1916602001611d06565b818152866020838501011115611dbf575f5ffd5b816020840160208301375f602083830101528093505050509250929050565b5f5f60408385031215611def575f5ffd5b8235611dfa81611c55565b946020939093013593505050565b5f5f60408385031215611e19575f5ffd5b8235611e2481611c55565b91506020830135611e3481611c55565b809150509250929050565b5f81518084528060208401602086015e5f602082860101526020601f19601f83011685010191505092915050565b8215158152604060208201525f611e876040830184611e3f565b949350505050565b602081525f611bf86020830184611e3f565b5f5f5f60608486031215611eb3575f5ffd5b8335611ebe81611c55565b92506020840135611ece81611c55565b91506040840135611ede81611c55565b809150509250925092565b5f60208284031215611ef9575f5ffd5b5051919050565b5f67ffffffffffffffff821115611f1957611f19611cf2565b5060051b60200190565b5f82601f830112611f32575f5ffd5b8151611f45611f4082611f00565b611d06565b8082825260208201915060208360051b860101925085831115611f66575f5ffd5b602085015b83811015611f8c578051611f7e81611c55565b835260209283019201611f6b565b5095945050505050565b5f5f60408385031215611fa7575f5ffd5b825167ffffffffffffffff811115611fbd575f5ffd5b611fc985828601611f23565b925050602083015167ffffffffffffffff811115611fe5575f5ffd5b8301601f81018513611ff5575f5ffd5b8051612003611f4082611f00565b8082825260208201915060208360051b850101925087831115612024575f5ffd5b6020840193505b8284101561204657835182526020938401939091019061202b565b809450505050509250929050565b634e487b7160e01b5f52603260045260245ffd5b634e487b7160e01b5f52601160045260245ffd5b8181038181111561195957611959612068565b808202811582820484141761195957611959612068565b5f826120c057634e487b7160e01b5f52601260045260245ffd5b500490565b8082018082111561195957611959612068565b6020810160028310611c4f57611c4f611c27565b5f602082840312156120fc575f5ffd5b815167ffffffffffffffff811115612112575f5ffd5b611e8784828501611f23565b5f6020828403121561212e575f5ffd5b81518015158114611bf8575f5ffd5b5f6020828403121561214d575f5ffd5b8151611bf881611c55565b5f82518060208501845e5f92019182525091905056fe360894a13ba1a3210667c828492db98dca3e2076cc3735a920a3ca505d382bbca2646970667358221220c468e2b81c0ca4b51942a7b78cc7c6a655eef20ba09417a15d8842b09059cd0664736f6c634300081c0033",
  "linkReferences": {},
  "deployedLinkReferences": {}
}