{
  "_format": "hh-sol-artifact-1",
  "contractName": "LiquidityOrchestrator",
  "sourceName": "contracts/orchestrators/LiquidityOrchestrator.sol",
  "abi": [
    {
      "inputs": [
        {
          "internalType": "address",
          "name": "initialOwner",
          "type": "address"
        },
        {
          "internalType": "address",
          "name": "config_",
          "type": "address"
        },
        {
          "internalType": "address",
          "name": "automationRegistry_",
          "type": "address"
        }
      ],
      "stateMutability": "nonpayable",
      "type": "constructor"
    },
    {
      "inputs": [],
      "name": "AdapterNotSet",
      "type": "error"
    },
    {
      "inputs": [],
      "name": "AlreadyRegistered",
      "type": "error"
    },
    {
      "inputs": [
        {
          "internalType": "address",
          "name": "asset",
          "type": "address"
        }
      ],
      "name": "AmountMustBeGreaterThanZero",
      "type": "error"
    },
    {
      "inputs": [],
      "name": "InvalidArguments",
      "type": "error"
    },
    {
      "inputs": [],
      "name": "NotAuthorized",
      "type": "error"
    },
    {
      "inputs": [
        {
          "internalType": "address",
          "name": "owner",
          "type": "address"
        }
      ],
      "name": "OwnableInvalidOwner",
      "type": "error"
    },
    {
      "inputs": [
        {
          "internalType": "address",
          "name": "account",
          "type": "address"
        }
      ],
      "name": "OwnableUnauthorizedAccount",
      "type": "error"
    },
    {
      "inputs": [],
      "name": "SystemNotIdle",
      "type": "error"
    },
    {
      "inputs": [],
      "name": "TransferFailed",
      "type": "error"
    },
    {
      "inputs": [],
      "name": "ZeroAddress",
      "type": "error"
    },
    {
      "anonymous": false,
      "inputs": [
        {
          "indexed": true,
          "internalType": "address",
          "name": "newAutomationRegistry",
          "type": "address"
        }
      ],
      "name": "AutomationRegistryUpdated",
      "type": "event"
    },
    {
      "anonymous": false,
      "inputs": [
        {
          "indexed": true,
          "internalType": "address",
          "name": "asset",
          "type": "address"
        },
        {
          "indexed": true,
          "internalType": "address",
          "name": "adapter",
          "type": "address"
        }
      ],
      "name": "ExecutionAdapterSet",
      "type": "event"
    },
    {
      "anonymous": false,
      "inputs": [
        {
          "indexed": true,
          "internalType": "address",
          "name": "previousOwner",
          "type": "address"
        },
        {
          "indexed": true,
          "internalType": "address",
          "name": "newOwner",
          "type": "address"
        }
      ],
      "name": "OwnershipTransferred",
      "type": "event"
    },
    {
      "anonymous": false,
      "inputs": [],
      "name": "PortfolioRebalanced",
      "type": "event"
    },
    {
      "inputs": [],
      "name": "automationRegistry",
      "outputs": [
        {
          "internalType": "address",
          "name": "",
          "type": "address"
        }
      ],
      "stateMutability": "view",
      "type": "function"
    },
    {
      "inputs": [
        {
          "internalType": "bytes",
          "name": "",
          "type": "bytes"
        }
      ],
      "name": "checkUpkeep",
      "outputs": [
        {
          "internalType": "bool",
          "name": "upkeepNeeded",
          "type": "bool"
        },
        {
          "internalType": "bytes",
          "name": "performData",
          "type": "bytes"
        }
      ],
      "stateMutability": "view",
      "type": "function"
    },
    {
      "inputs": [],
      "name": "claimProtocolFees",
      "outputs": [],
      "stateMutability": "nonpayable",
      "type": "function"
    },
    {
      "inputs": [],
      "name": "config",
      "outputs": [
        {
          "internalType": "contract IOrionConfig",
          "name": "",
          "type": "address"
        }
      ],
      "stateMutability": "view",
      "type": "function"
    },
    {
      "inputs": [],
      "name": "currentPhase",
      "outputs": [
        {
          "internalType": "enum ILiquidityOrchestrator.LiquidityUpkeepPhase",
          "name": "",
          "type": "uint8"
        }
      ],
      "stateMutability": "view",
      "type": "function"
    },
    {
      "inputs": [
        {
          "internalType": "address",
          "name": "",
          "type": "address"
        }
      ],
      "name": "executionAdapterOf",
      "outputs": [
        {
          "internalType": "contract IExecutionAdapter",
          "name": "",
          "type": "address"
        }
      ],
      "stateMutability": "view",
      "type": "function"
    },
    {
      "inputs": [],
      "name": "executionMinibatchSize",
      "outputs": [
        {
          "internalType": "uint8",
          "name": "",
          "type": "uint8"
        }
      ],
      "stateMutability": "view",
      "type": "function"
    },
    {
      "inputs": [],
      "name": "internalStatesOrchestrator",
      "outputs": [
        {
          "internalType": "contract IInternalStateOrchestrator",
          "name": "",
          "type": "address"
        }
      ],
      "stateMutability": "view",
      "type": "function"
    },
    {
      "inputs": [],
      "name": "lastProcessedEpoch",
      "outputs": [
        {
          "internalType": "uint16",
          "name": "",
          "type": "uint16"
        }
      ],
      "stateMutability": "view",
      "type": "function"
    },
    {
      "inputs": [],
      "name": "owner",
      "outputs": [
        {
          "internalType": "address",
          "name": "",
          "type": "address"
        }
      ],
      "stateMutability": "view",
      "type": "function"
    },
    {
      "inputs": [
        {
          "internalType": "bytes",
          "name": "",
          "type": "bytes"
        }
      ],
      "name": "performUpkeep",
      "outputs": [],
      "stateMutability": "nonpayable",
      "type": "function"
    },
    {
      "inputs": [],
      "name": "renounceOwnership",
      "outputs": [],
      "stateMutability": "nonpayable",
      "type": "function"
    },
    {
      "inputs": [
        {
          "internalType": "address",
          "name": "user",
          "type": "address"
        },
        {
          "internalType": "uint256",
          "name": "amount",
          "type": "uint256"
        }
      ],
      "name": "returnDepositFunds",
      "outputs": [],
      "stateMutability": "nonpayable",
      "type": "function"
    },
    {
      "inputs": [
        {
          "internalType": "address",
          "name": "asset",
          "type": "address"
        },
        {
          "internalType": "contract IExecutionAdapter",
          "name": "adapter",
          "type": "address"
        }
      ],
      "name": "setExecutionAdapter",
      "outputs": [],
      "stateMutability": "nonpayable",
      "type": "function"
    },
    {
      "inputs": [
        {
          "internalType": "address",
          "name": "_internalStatesOrchestrator",
          "type": "address"
        }
      ],
      "name": "setInternalStatesOrchestrator",
      "outputs": [],
      "stateMutability": "nonpayable",
      "type": "function"
    },
    {
      "inputs": [
        {
          "internalType": "uint16",
          "name": "_slippageBound",
          "type": "uint16"
        }
      ],
      "name": "setSlippageBound",
      "outputs": [],
      "stateMutability": "nonpayable",
      "type": "function"
    },
    {
      "inputs": [],
      "name": "slippageBound",
      "outputs": [
        {
          "internalType": "uint16",
          "name": "",
          "type": "uint16"
        }
      ],
      "stateMutability": "view",
      "type": "function"
    },
    {
      "inputs": [
        {
          "internalType": "uint256",
          "name": "amount",
          "type": "uint256"
        }
      ],
      "name": "transferCuratorFees",
      "outputs": [],
      "stateMutability": "nonpayable",
      "type": "function"
    },
    {
      "inputs": [
        {
          "internalType": "address",
          "name": "newOwner",
          "type": "address"
        }
      ],
      "name": "transferOwnership",
      "outputs": [],
      "stateMutability": "nonpayable",
      "type": "function"
    },
    {
      "inputs": [
        {
          "internalType": "address",
          "name": "user",
          "type": "address"
        },
        {
          "internalType": "uint256",
          "name": "amount",
          "type": "uint256"
        }
      ],
      "name": "transferWithdrawalFunds",
      "outputs": [],
      "stateMutability": "nonpayable",
      "type": "function"
    },
    {
      "inputs": [],
      "name": "underlyingAsset",
      "outputs": [
        {
          "internalType": "address",
          "name": "",
          "type": "address"
        }
      ],
      "stateMutability": "view",
      "type": "function"
    },
    {
      "inputs": [
        {
          "internalType": "address",
          "name": "asset",
          "type": "address"
        }
      ],
      "name": "unsetExecutionAdapter",
      "outputs": [],
      "stateMutability": "nonpayable",
      "type": "function"
    },
    {
      "inputs": [
        {
          "internalType": "address",
          "name": "newAutomationRegistry",
          "type": "address"
        }
      ],
      "name": "updateAutomationRegistry",
      "outputs": [],
      "stateMutability": "nonpayable",
      "type": "function"
    },
    {
      "inputs": [
        {
          "internalType": "uint8",
          "name": "_executionMinibatchSize",
          "type": "uint8"
        }
      ],
      "name": "updateExecutionMinibatchSize",
      "outputs": [],
      "stateMutability": "nonpayable",
      "type": "function"
    }
  ],
  "bytecode": "0x608060405234801561000f575f5ffd5b50604051611c4c380380611c4c83398101604081905261002e916101df565b826001600160a01b03811661005c57604051631e4fbdf760e01b81525f600482015260240160405180910390fd5b61006581610179565b506001600160a01b03821661008d5760405163d92e233d60e01b815260040160405180910390fd5b6001600160a01b0381166100b45760405163d92e233d60e01b815260040160405180910390fd5b600280546001600160a01b0319166001600160a01b03841690811790915560408051631c56369f60e21b81529051637158da7c916004808201926020929091908290030181865afa15801561010b573d5f5f3e3d5ffd5b505050506040513d601f19601f8201168201806040525081019061012f9190610229565b600480546001600160a01b03199081166001600160a01b0393841617909155600180549091169290911691909117905550506006805463ffffffff1916630100000017905561024b565b5f80546001600160a01b038381166001600160a01b0319831681178455604051919092169283917f8be0079c531659141344cd1fd0a4f28419497f9722a3daafe3b4186f6b6457e09190a35050565b6001600160a01b03811681146101dc575f5ffd5b50565b5f5f5f606084860312156101f1575f5ffd5b83516101fc816101c8565b602085015190935061020d816101c8565b604085015190925061021e816101c8565b809150509250925092565b5f60208284031215610239575f5ffd5b8151610244816101c8565b9392505050565b6119f4806102585f395ff3fe608060405234801561000f575f5ffd5b5060043610610126575f3560e01c8063055ad42e1461012a5780630a8b78c71461015357806314b5d07f146101685780632be17d3b1461017b578063348ec5c8146101a35780634585e33b146101c35780634a7d0369146101d657806351edffb1146101de57806357be01c1146101f157806359017aa9146102175780635dc228a01461022a5780635dd44d7a1461023d5780636e04ff0d14610250578063715018a6146102715780637158da7c14610279578063741fca4b1461028c57806379502c551461029f578063841181ef146102b25780638a0b0d38146102c55780638a7da049146102d85780638da5cb5b146102eb578063d3f3506d146102f3578063ee6713df1461031b578063f2fde38b14610329575b5f5ffd5b60065461013d9062010000900460ff1681565b60405161014a9190611525565b60405180910390f35b610166610161366004611553565b61033c565b005b610166610176366004611553565b6103b7565b60065461019090600160201b900461ffff1681565b60405161ffff909116815260200161014a565b6003546101b6906001600160a01b031681565b60405161014a9190611575565b6101666101d1366004611589565b6104c0565b61016661087d565b6101666101ec3660046115f5565b610a1e565b600654610205906301000000900460ff1681565b60405160ff909116815260200161014a565b61016661022536600461161f565b610b42565b6001546101b6906001600160a01b031681565b61016661024b3660046115f5565b610beb565b61026361025e366004611589565b610ca5565b60405161014a929190611656565b610166610e0d565b6004546101b6906001600160a01b031681565b61016661029a366004611694565b610e20565b6002546101b6906001600160a01b031681565b6101666102c0366004611553565b610fd7565b6101666102d33660046116ab565b611068565b6101666102e63660046116da565b611144565b6101b6611223565b6101b6610301366004611553565b60056020525f90815260409020546001600160a01b031681565b6006546101909061ffff1681565b610166610337366004611553565b611231565b61034461126e565b6001600160a01b03811661036b5760405163d92e233d60e01b815260040160405180910390fd5b6003546001600160a01b03161561039557604051630ea075bf60e21b815260040160405180910390fd5b600380546001600160a01b0319166001600160a01b0392909216919091179055565b6103bf61126e565b6001600160a01b0381166103e65760405163d92e233d60e01b815260040160405180910390fd5b60025f9054906101000a90046001600160a01b03166001600160a01b031663edcf9c1f6040518163ffffffff1660e01b8152600401602060405180830381865afa158015610436573d5f5f3e3d5ffd5b505050506040513d601f19601f8201168201806040525081019061045a91906116f5565b610477576040516312aecd8160e01b815260040160405180910390fd5b600180546001600160a01b0319166001600160a01b0383169081179091556040517f6cc7ebdb6c8c53291c5ae16148cab9b049d23bf5bde5632900b40edff56fcb43905f90a250565b6001546001600160a01b031633146104eb5760405163ea8e4eb560e01b815260040160405180910390fd5b60035460408051630a58ce2d60e11b815290515f926001600160a01b0316916314b19c5a9160048083019260209291908290030181865afa158015610532573d5f5f3e3d5ffd5b505050506040513d601f19601f820116820180604052508101906105569190611714565b60065490915061ffff9081169082161161056f57505050565b6006805461ffff191661ffff8316179055600354604080516318596bb160e31b815290515f9283926001600160a01b039091169163c2cb5d889160048082019286929091908290030181865afa1580156105cb573d5f5f3e3d5ffd5b505050506040513d5f823e601f3d908101601f191682016040526105f29190810190611808565b90925090505f5b82518161ffff161015610667575f838261ffff168151811061061d5761061d6118c6565b602002602001015190505f838361ffff168151811061063e5761063e6118c6565b6020026020010151905061065282826112a0565b5050808061065f906118da565b9150506105f9565b505f5f60035f9054906101000a90046001600160a01b03166001600160a01b031663a08b82d76040518163ffffffff1660e01b81526004015f60405180830381865afa1580156106b9573d5f5f3e3d5ffd5b505050506040513d5f823e601f3d908101601f191682016040526106e09190810190611808565b90925090505f5b82518161ffff161015610755575f838261ffff168151811061070b5761070b6118c6565b602002602001015190505f838361ffff168151811061072c5761072c6118c6565b6020026020010151905061074082826113c9565b5050808061074d906118da565b9150506106e7565b50600254604051631da09e4360e31b81525f916001600160a01b03169063ed04f21890610786908490600401611906565b5f60405180830381865afa1580156107a0573d5f5f3e3d5ffd5b505050506040513d5f823e601f3d908101601f191682016040526107c7919081019061191a565b8051600254604051631da09e4360e31b815292935090915f916001600160a01b03169063ed04f218906107ff90600190600401611906565b5f60405180830381865afa158015610819573d5f5f3e3d5ffd5b505050506040513d5f823e601f3d908101601f19168201604052610840919081019061191a565b80516040519093509091507ff0094b59b7bc92e9fc611b14b5d3a34fe02530ac9bcf36c2c6f10147c3030c12905f90a150505050505050505b5050565b61088561126e565b6003546040805163800f9fad60e01b815290515f926001600160a01b03169163800f9fad9160048083019260209291908290030181865afa1580156108cc573d5f5f3e3d5ffd5b505050506040513d601f19601f820116820180604052508101906108f09190611953565b9050805f036109295760048054604051636b30633560e01b8152610920926001600160a01b039092169101611575565b60405180910390fd5b60035f9054906101000a90046001600160a01b03166001600160a01b0316631f6722116040518163ffffffff1660e01b81526004015f604051808303815f87803b158015610975575f5ffd5b505af1158015610987573d5f5f3e3d5ffd5b50506004805460405163a9059cbb60e01b81525f94506001600160a01b03909116925063a9059cbb916109be91339187910161196a565b6020604051808303815f875af11580156109da573d5f5f3e3d5ffd5b505050506040513d601f19601f820116820180604052508101906109fe91906116f5565b905080610879576040516312171d8360e31b815260040160405180910390fd5b600254604051633821dad160e21b81526001600160a01b039091169063e0876b4490610a4e903390600401611575565b602060405180830381865afa158015610a69573d5f5f3e3d5ffd5b505050506040513d601f19601f82011682018060405250810190610a8d91906116f5565b610aaa5760405163ea8e4eb560e01b815260040160405180910390fd5b6004805460405163a9059cbb60e01b81525f926001600160a01b039092169163a9059cbb91610add91879187910161196a565b6020604051808303815f875af1158015610af9573d5f5f3e3d5ffd5b505050506040513d601f19601f82011682018060405250810190610b1d91906116f5565b905080610b3d576040516312171d8360e31b815260040160405180910390fd5b505050565b6002546001600160a01b03163314610b6d5760405163ea8e4eb560e01b815260040160405180910390fd5b6001600160a01b0382161580610b8a57506001600160a01b038116155b15610ba85760405163d92e233d60e01b815260040160405180910390fd5b6001600160a01b038281165f8181526005602052604080822080546001600160a01b0319169486169485179055515f51602061199f5f395f51905f529190a35050565b600254604051633821dad160e21b81526001600160a01b039091169063e0876b4490610c1b903390600401611575565b602060405180830381865afa158015610c36573d5f5f3e3d5ffd5b505050506040513d601f19601f82011682018060405250810190610c5a91906116f5565b610c775760405163ea8e4eb560e01b815260040160405180910390fd5b805f03610aaa5760048054604051636b30633560e01b8152610920926001600160a01b039092169101611575565b5f60605f60035f9054906101000a90046001600160a01b03166001600160a01b03166314b19c5a6040518163ffffffff1660e01b8152600401602060405180830381865afa158015610cf9573d5f5f3e3d5ffd5b505050506040513d601f19601f82011682018060405250810190610d1d9190611714565b60065490915061ffff908116908216118015610da8575060025f9054906101000a90046001600160a01b03166001600160a01b031663edcf9c1f6040518163ffffffff1660e01b8152600401602060405180830381865afa158015610d84573d5f5f3e3d5ffd5b505050506040513d601f19601f82011682018060405250810190610da891906116f5565b15610df05760019250604051602001610dda906020808252600590820152641cdd185c9d60da1b604082015260600190565b6040516020818303038152906040529150610e05565b5f925060405180602001604052805f81525091505b509250929050565b610e1561126e565b610e1e5f6114c2565b565b600254604051633821dad160e21b815233916001600160a01b03169063e0876b4490610e50908490600401611575565b602060405180830381865afa158015610e6b573d5f5f3e3d5ffd5b505050506040513d601f19601f82011682018060405250810190610e8f91906116f5565b610eac5760405163ea8e4eb560e01b815260040160405180910390fd5b815f03610eda5760048054604051636b30633560e01b8152610920926001600160a01b039092169101611575565b5f816001600160a01b0316631f52692b6040518163ffffffff1660e01b8152600401602060405180830381865afa158015610f17573d5f5f3e3d5ffd5b505050506040513d601f19601f82011682018060405250810190610f3b9190611983565b6004805460405163a9059cbb60e01b81529293505f926001600160a01b039091169163a9059cbb91610f7191869189910161196a565b6020604051808303815f875af1158015610f8d573d5f5f3e3d5ffd5b505050506040513d601f19601f82011682018060405250810190610fb191906116f5565b905080610fd1576040516312171d8360e31b815260040160405180910390fd5b50505050565b6002546001600160a01b031633146110025760405163ea8e4eb560e01b815260040160405180910390fd5b6001600160a01b0381166110295760405163d92e233d60e01b815260040160405180910390fd5b6001600160a01b0381165f8181526005602052604080822080546001600160a01b0319169055519091905f51602061199f5f395f51905f52908390a350565b61107061126e565b8060ff165f03611093576040516317dbc4cb60e21b815260040160405180910390fd5b60025f9054906101000a90046001600160a01b03166001600160a01b031663edcf9c1f6040518163ffffffff1660e01b8152600401602060405180830381865afa1580156110e3573d5f5f3e3d5ffd5b505050506040513d601f19601f8201168201806040525081019061110791906116f5565b611124576040516312aecd8160e01b815260040160405180910390fd5b6006805460ff90921663010000000263ff00000019909216919091179055565b61114c61126e565b8061ffff165f03611170576040516317dbc4cb60e21b815260040160405180910390fd5b60025f9054906101000a90046001600160a01b03166001600160a01b031663edcf9c1f6040518163ffffffff1660e01b8152600401602060405180830381865afa1580156111c0573d5f5f3e3d5ffd5b505050506040513d601f19601f820116820180604052508101906111e491906116f5565b611201576040516312aecd8160e01b815260040160405180910390fd5b6006805461ffff909216600160201b0261ffff60201b19909216919091179055565b5f546001600160a01b031690565b61123961126e565b6001600160a01b038116611262575f604051631e4fbdf760e01b81526004016109209190611575565b61126b816114c2565b50565b33611277611223565b6001600160a01b031614610e1e573360405163118cdaa760e01b81526004016109209190611575565b6001600160a01b038083165f9081526005602052604090205416806112d857604051635048c2af60e11b815260040160405180910390fd5b60405163095ea7b360e01b81525f906001600160a01b0385169063095ea7b390611308908590879060040161196a565b6020604051808303815f875af1158015611324573d5f5f3e3d5ffd5b505050506040513d601f19601f8201168201806040525081019061134891906116f5565b905080611368576040516312171d8360e31b815260040160405180910390fd5b604051636c197ff560e01b81526001600160a01b03831690636c197ff590611396908790879060040161196a565b5f604051808303815f87803b1580156113ad575f5ffd5b505af11580156113bf573d5f5f3e3d5ffd5b5050505050505050565b6001600160a01b038083165f90815260056020526040902054168061140157604051635048c2af60e11b815260040160405180910390fd5b6004805460405163095ea7b360e01b81525f926001600160a01b039092169163095ea7b39161143491869188910161196a565b6020604051808303815f875af1158015611450573d5f5f3e3d5ffd5b505050506040513d601f19601f8201168201806040525081019061147491906116f5565b905080611494576040516312171d8360e31b815260040160405180910390fd5b60405163cce7ec1360e01b81526001600160a01b0383169063cce7ec1390611396908790879060040161196a565b5f80546001600160a01b038381166001600160a01b0319831681178455604051919092169283917f8be0079c531659141344cd1fd0a4f28419497f9722a3daafe3b4186f6b6457e09190a35050565b634e487b7160e01b5f52602160045260245ffd5b602081016004831061153957611539611511565b91905290565b6001600160a01b038116811461126b575f5ffd5b5f60208284031215611563575f5ffd5b813561156e8161153f565b9392505050565b6001600160a01b0391909116815260200190565b5f5f6020838503121561159a575f5ffd5b82356001600160401b038111156115af575f5ffd5b8301601f810185136115bf575f5ffd5b80356001600160401b038111156115d4575f5ffd5b8560208284010111156115e5575f5ffd5b6020919091019590945092505050565b5f5f60408385031215611606575f5ffd5b82356116118161153f565b946020939093013593505050565b5f5f60408385031215611630575f5ffd5b823561163b8161153f565b9150602083013561164b8161153f565b809150509250929050565b8215158152604060208201525f82518060408401528060208501606085015e5f606082850101526060601f19601f8301168401019150509392505050565b5f602082840312156116a4575f5ffd5b5035919050565b5f602082840312156116bb575f5ffd5b813560ff8116811461156e575f5ffd5b61ffff8116811461126b575f5ffd5b5f602082840312156116ea575f5ffd5b813561156e816116cb565b5f60208284031215611705575f5ffd5b8151801515811461156e575f5ffd5b5f60208284031215611724575f5ffd5b815161156e816116cb565b634e487b7160e01b5f52604160045260245ffd5b604051601f8201601f191681016001600160401b038111828210171561176b5761176b61172f565b604052919050565b5f6001600160401b0382111561178b5761178b61172f565b5060051b60200190565b5f82601f8301126117a4575f5ffd5b81516117b76117b282611773565b611743565b8082825260208201915060208360051b8601019250858311156117d8575f5ffd5b602085015b838110156117fe5780516117f08161153f565b8352602092830192016117dd565b5095945050505050565b5f5f60408385031215611819575f5ffd5b82516001600160401b0381111561182e575f5ffd5b61183a85828601611795565b602085015190935090506001600160401b03811115611857575f5ffd5b8301601f81018513611867575f5ffd5b80516118756117b282611773565b8082825260208201915060208360051b850101925087831115611896575f5ffd5b6020840193505b828410156118b857835182526020938401939091019061189d565b809450505050509250929050565b634e487b7160e01b5f52603260045260245ffd5b5f61ffff821661ffff81036118fd57634e487b7160e01b5f52601160045260245ffd5b60010192915050565b602081016002831061153957611539611511565b5f6020828403121561192a575f5ffd5b81516001600160401b0381111561193f575f5ffd5b61194b84828501611795565b949350505050565b5f60208284031215611963575f5ffd5b5051919050565b6001600160a01b03929092168252602082015260400190565b5f60208284031215611993575f5ffd5b815161156e8161153f56fe2f2727c7b3d9ee55de5c114f0cb7997ac7251a4cbfca4f2b2dc6969d86cce4f4a2646970667358221220e9226cca4a8d632892aa8af1bb3b08a00643d95dc83ddf6de7028c8b09e60d7f64736f6c634300081c0033",
  "linkReferences": {},
  "deployedLinkReferences": {}
}