{
  "_format": "hh-sol-artifact-1",
  "contractName": "LiquidityOrchestrator",
  "sourceName": "contracts/orchestrators/LiquidityOrchestrator.sol",
  "abi": [
    {
      "inputs": [
        {
          "internalType": "address",
          "name": "initialOwner",
          "type": "address"
        },
        {
          "internalType": "address",
          "name": "config_",
          "type": "address"
        },
        {
          "internalType": "address",
          "name": "automationRegistry_",
          "type": "address"
        }
      ],
      "stateMutability": "nonpayable",
      "type": "constructor"
    },
    {
      "inputs": [],
      "name": "AdapterNotSet",
      "type": "error"
    },
    {
      "inputs": [],
      "name": "AlreadyRegistered",
      "type": "error"
    },
    {
      "inputs": [
        {
          "internalType": "address",
          "name": "asset",
          "type": "address"
        }
      ],
      "name": "AmountMustBeGreaterThanZero",
      "type": "error"
    },
    {
      "inputs": [],
      "name": "InvalidArguments",
      "type": "error"
    },
    {
      "inputs": [],
      "name": "InvalidState",
      "type": "error"
    },
    {
      "inputs": [],
      "name": "NotAuthorized",
      "type": "error"
    },
    {
      "inputs": [
        {
          "internalType": "address",
          "name": "owner",
          "type": "address"
        }
      ],
      "name": "OwnableInvalidOwner",
      "type": "error"
    },
    {
      "inputs": [
        {
          "internalType": "address",
          "name": "account",
          "type": "address"
        }
      ],
      "name": "OwnableUnauthorizedAccount",
      "type": "error"
    },
    {
      "inputs": [],
      "name": "ReentrancyGuardReentrantCall",
      "type": "error"
    },
    {
      "inputs": [],
      "name": "SystemNotIdle",
      "type": "error"
    },
    {
      "inputs": [],
      "name": "TransferFailed",
      "type": "error"
    },
    {
      "inputs": [],
      "name": "ZeroAddress",
      "type": "error"
    },
    {
      "anonymous": false,
      "inputs": [
        {
          "indexed": true,
          "internalType": "address",
          "name": "newAutomationRegistry",
          "type": "address"
        }
      ],
      "name": "AutomationRegistryUpdated",
      "type": "event"
    },
    {
      "anonymous": false,
      "inputs": [
        {
          "indexed": true,
          "internalType": "address",
          "name": "asset",
          "type": "address"
        },
        {
          "indexed": true,
          "internalType": "address",
          "name": "adapter",
          "type": "address"
        }
      ],
      "name": "ExecutionAdapterSet",
      "type": "event"
    },
    {
      "anonymous": false,
      "inputs": [
        {
          "indexed": true,
          "internalType": "address",
          "name": "previousOwner",
          "type": "address"
        },
        {
          "indexed": true,
          "internalType": "address",
          "name": "newOwner",
          "type": "address"
        }
      ],
      "name": "OwnershipTransferred",
      "type": "event"
    },
    {
      "anonymous": false,
      "inputs": [],
      "name": "PortfolioRebalanced",
      "type": "event"
    },
    {
      "inputs": [],
      "name": "automationRegistry",
      "outputs": [
        {
          "internalType": "address",
          "name": "",
          "type": "address"
        }
      ],
      "stateMutability": "view",
      "type": "function"
    },
    {
      "inputs": [
        {
          "internalType": "uint256",
          "name": "",
          "type": "uint256"
        }
      ],
      "name": "buyingAmounts",
      "outputs": [
        {
          "internalType": "uint256",
          "name": "",
          "type": "uint256"
        }
      ],
      "stateMutability": "view",
      "type": "function"
    },
    {
      "inputs": [
        {
          "internalType": "uint256",
          "name": "",
          "type": "uint256"
        }
      ],
      "name": "buyingTokens",
      "outputs": [
        {
          "internalType": "address",
          "name": "",
          "type": "address"
        }
      ],
      "stateMutability": "view",
      "type": "function"
    },
    {
      "inputs": [
        {
          "internalType": "bytes",
          "name": "",
          "type": "bytes"
        }
      ],
      "name": "checkUpkeep",
      "outputs": [
        {
          "internalType": "bool",
          "name": "upkeepNeeded",
          "type": "bool"
        },
        {
          "internalType": "bytes",
          "name": "performData",
          "type": "bytes"
        }
      ],
      "stateMutability": "view",
      "type": "function"
    },
    {
      "inputs": [
        {
          "internalType": "uint256",
          "name": "amount",
          "type": "uint256"
        }
      ],
      "name": "claimProtocolFees",
      "outputs": [],
      "stateMutability": "nonpayable",
      "type": "function"
    },
    {
      "inputs": [],
      "name": "config",
      "outputs": [
        {
          "internalType": "contract IOrionConfig",
          "name": "",
          "type": "address"
        }
      ],
      "stateMutability": "view",
      "type": "function"
    },
    {
      "inputs": [],
      "name": "currentMinibatchIndex",
      "outputs": [
        {
          "internalType": "uint8",
          "name": "",
          "type": "uint8"
        }
      ],
      "stateMutability": "view",
      "type": "function"
    },
    {
      "inputs": [],
      "name": "currentPhase",
      "outputs": [
        {
          "internalType": "enum ILiquidityOrchestrator.LiquidityUpkeepPhase",
          "name": "",
          "type": "uint8"
        }
      ],
      "stateMutability": "view",
      "type": "function"
    },
    {
      "inputs": [
        {
          "internalType": "address",
          "name": "",
          "type": "address"
        }
      ],
      "name": "executionAdapterOf",
      "outputs": [
        {
          "internalType": "contract IExecutionAdapter",
          "name": "",
          "type": "address"
        }
      ],
      "stateMutability": "view",
      "type": "function"
    },
    {
      "inputs": [],
      "name": "executionMinibatchSize",
      "outputs": [
        {
          "internalType": "uint8",
          "name": "",
          "type": "uint8"
        }
      ],
      "stateMutability": "view",
      "type": "function"
    },
    {
      "inputs": [],
      "name": "internalStatesOrchestrator",
      "outputs": [
        {
          "internalType": "contract IInternalStateOrchestrator",
          "name": "",
          "type": "address"
        }
      ],
      "stateMutability": "view",
      "type": "function"
    },
    {
      "inputs": [],
      "name": "lastProcessedEpoch",
      "outputs": [
        {
          "internalType": "uint16",
          "name": "",
          "type": "uint16"
        }
      ],
      "stateMutability": "view",
      "type": "function"
    },
    {
      "inputs": [],
      "name": "owner",
      "outputs": [
        {
          "internalType": "address",
          "name": "",
          "type": "address"
        }
      ],
      "stateMutability": "view",
      "type": "function"
    },
    {
      "inputs": [
        {
          "internalType": "bytes",
          "name": "performData",
          "type": "bytes"
        }
      ],
      "name": "performUpkeep",
      "outputs": [],
      "stateMutability": "nonpayable",
      "type": "function"
    },
    {
      "inputs": [],
      "name": "renounceOwnership",
      "outputs": [],
      "stateMutability": "nonpayable",
      "type": "function"
    },
    {
      "inputs": [
        {
          "internalType": "address",
          "name": "user",
          "type": "address"
        },
        {
          "internalType": "uint256",
          "name": "amount",
          "type": "uint256"
        }
      ],
      "name": "returnDepositFunds",
      "outputs": [],
      "stateMutability": "nonpayable",
      "type": "function"
    },
    {
      "inputs": [
        {
          "internalType": "uint256",
          "name": "",
          "type": "uint256"
        }
      ],
      "name": "sellingAmounts",
      "outputs": [
        {
          "internalType": "uint256",
          "name": "",
          "type": "uint256"
        }
      ],
      "stateMutability": "view",
      "type": "function"
    },
    {
      "inputs": [
        {
          "internalType": "uint256",
          "name": "",
          "type": "uint256"
        }
      ],
      "name": "sellingTokens",
      "outputs": [
        {
          "internalType": "address",
          "name": "",
          "type": "address"
        }
      ],
      "stateMutability": "view",
      "type": "function"
    },
    {
      "inputs": [
        {
          "internalType": "address",
          "name": "asset",
          "type": "address"
        },
        {
          "internalType": "contract IExecutionAdapter",
          "name": "adapter",
          "type": "address"
        }
      ],
      "name": "setExecutionAdapter",
      "outputs": [],
      "stateMutability": "nonpayable",
      "type": "function"
    },
    {
      "inputs": [
        {
          "internalType": "address",
          "name": "_internalStatesOrchestrator",
          "type": "address"
        }
      ],
      "name": "setInternalStatesOrchestrator",
      "outputs": [],
      "stateMutability": "nonpayable",
      "type": "function"
    },
    {
      "inputs": [
        {
          "internalType": "uint256",
          "name": "_slippageBound",
          "type": "uint256"
        }
      ],
      "name": "setSlippageBound",
      "outputs": [],
      "stateMutability": "nonpayable",
      "type": "function"
    },
    {
      "inputs": [],
      "name": "slippageBound",
      "outputs": [
        {
          "internalType": "uint256",
          "name": "",
          "type": "uint256"
        }
      ],
      "stateMutability": "view",
      "type": "function"
    },
    {
      "inputs": [],
      "name": "targetBufferRatio",
      "outputs": [
        {
          "internalType": "uint256",
          "name": "",
          "type": "uint256"
        }
      ],
      "stateMutability": "view",
      "type": "function"
    },
    {
      "inputs": [
        {
          "internalType": "uint256",
          "name": "amount",
          "type": "uint256"
        }
      ],
      "name": "transferCuratorFees",
      "outputs": [],
      "stateMutability": "nonpayable",
      "type": "function"
    },
    {
      "inputs": [
        {
          "internalType": "address",
          "name": "newOwner",
          "type": "address"
        }
      ],
      "name": "transferOwnership",
      "outputs": [],
      "stateMutability": "nonpayable",
      "type": "function"
    },
    {
      "inputs": [
        {
          "internalType": "address",
          "name": "user",
          "type": "address"
        },
        {
          "internalType": "uint256",
          "name": "amount",
          "type": "uint256"
        }
      ],
      "name": "transferRedemptionFunds",
      "outputs": [],
      "stateMutability": "nonpayable",
      "type": "function"
    },
    {
      "inputs": [],
      "name": "underlyingAsset",
      "outputs": [
        {
          "internalType": "address",
          "name": "",
          "type": "address"
        }
      ],
      "stateMutability": "view",
      "type": "function"
    },
    {
      "inputs": [
        {
          "internalType": "address",
          "name": "asset",
          "type": "address"
        }
      ],
      "name": "unsetExecutionAdapter",
      "outputs": [],
      "stateMutability": "nonpayable",
      "type": "function"
    },
    {
      "inputs": [
        {
          "internalType": "address",
          "name": "newAutomationRegistry",
          "type": "address"
        }
      ],
      "name": "updateAutomationRegistry",
      "outputs": [],
      "stateMutability": "nonpayable",
      "type": "function"
    },
    {
      "inputs": [
        {
          "internalType": "uint8",
          "name": "_executionMinibatchSize",
          "type": "uint8"
        }
      ],
      "name": "updateExecutionMinibatchSize",
      "outputs": [],
      "stateMutability": "nonpayable",
      "type": "function"
    }
  ],
  "bytecode": "0x608060405234801561000f575f5ffd5b506040516120cd3803806120cd83398101604081905261002e916101e3565b826001600160a01b03811661005c57604051631e4fbdf760e01b81525f600482015260240160405180910390fd5b6100658161017d565b50600180556001600160a01b0382166100915760405163d92e233d60e01b815260040160405180910390fd5b6001600160a01b0381166100b85760405163d92e233d60e01b815260040160405180910390fd5b600380546001600160a01b0319166001600160a01b03841690811790915560408051631c56369f60e21b81529051637158da7c916004808201926020929091908290030181865afa15801561010f573d5f5f3e3d5ffd5b505050506040513d601f19601f82011682018060405250810190610133919061022d565b600580546001600160a01b03199081166001600160a01b0393841617909155600280549091169290911691909117905550506007805464ffffffffff19166201000017905561024f565b5f80546001600160a01b038381166001600160a01b0319831681178455604051919092169283917f8be0079c531659141344cd1fd0a4f28419497f9722a3daafe3b4186f6b6457e09190a35050565b6001600160a01b03811681146101e0575f5ffd5b50565b5f5f5f606084860312156101f5575f5ffd5b8351610200816101cc565b6020850151909350610211816101cc565b6040850151909250610222816101cc565b809150509250925092565b5f6020828403121561023d575f5ffd5b8151610248816101cc565b9392505050565b611e718061025c5f395ff3fe608060405234801561000f575f5ffd5b5060043610610168575f3560e01c806301c621c11461016c578063055ad42e1461018157806309f2e19c146101ab5780630a8b78c7146101cb57806314b5d07f146101de5780632be17d3b146101f1578063348ec5c8146102085780634585e33b1461021b5780634adfc2e71461022e57806351edffb1146102415780635488cd621461025457806357be01c11461027a57806359017aa91461028d5780635dc228a0146102a05780636e04ff0d146102b3578063715018a6146102d45780637158da7c146102dc578063741fca4b146102ef57806379502c55146103025780638157c1ab14610315578063841181ef146103285780638a0b0d381461033b5780638da5cb5b1461034e57806399cdc4b514610356578063bc50497514610369578063be1b26a41461037c578063d3f3506d1461038f578063dab26e3b146103b7578063ee6713df146103c0578063f2fde38b146103e1575b5f5ffd5b61017f61017a3660046118f2565b6103f4565b005b600754610195906301000000900460ff1681565b6040516101a2919061191d565b60405180910390f35b6101be6101b93660046118f2565b610521565b6040516101a29190611943565b61017f6101d936600461196b565b610549565b61017f6101ec36600461196b565b6105c4565b6101fa60085481565b6040519081526020016101a2565b6004546101be906001600160a01b031681565b61017f610229366004611986565b6106cd565b61017f61023c3660046119f2565b6107cf565b61017f61024f3660046119f2565b61091f565b60075461026890600160201b900460ff1681565b60405160ff90911681526020016101a2565b6007546102689062010000900460ff1681565b61017f61029b366004611a1c565b6109ab565b6002546101be906001600160a01b031681565b6102c66102c1366004611986565b610a54565b6040516101a2929190611a53565b61017f610c8d565b6005546101be906001600160a01b031681565b61017f6102fd3660046118f2565b610ca0565b6003546101be906001600160a01b031681565b6101be6103233660046118f2565b610e57565b61017f61033636600461196b565b610e66565b61017f610349366004611aa6565b610ef7565b6101be610fd1565b61017f6103643660046118f2565b610fdf565b6101fa6103773660046118f2565b6110b2565b6101fa61038a3660046118f2565b6110d1565b6101be61039d36600461196b565b60066020525f90815260409020546001600160a01b031681565b6101fa60095481565b6007546103ce9061ffff1681565b60405161ffff90911681526020016101a2565b61017f6103ef36600461196b565b6110e0565b6103fc61111d565b805f0361043257600554604051636b30633560e01b8152610429916001600160a01b031690600401611943565b60405180910390fd5b60048054604051637060444560e01b81529182018390526001600160a01b0316906370604445906024015f604051808303815f87803b158015610473575f5ffd5b505af1158015610485573d5f5f3e3d5ffd5b505060055460405163a9059cbb60e01b81525f93506001600160a01b03909116915063a9059cbb906104bd9033908690600401611abf565b6020604051808303815f875af11580156104d9573d5f5f3e3d5ffd5b505050506040513d601f19601f820116820180604052508101906104fd9190611ad8565b90508061051d576040516312171d8360e31b815260040160405180910390fd5b5050565b600c8181548110610530575f80fd5b5f918252602090912001546001600160a01b0316905081565b61055161111d565b6001600160a01b0381166105785760405163d92e233d60e01b815260040160405180910390fd5b6004546001600160a01b0316156105a257604051630ea075bf60e21b815260040160405180910390fd5b600480546001600160a01b0319166001600160a01b0392909216919091179055565b6105cc61111d565b6001600160a01b0381166105f35760405163d92e233d60e01b815260040160405180910390fd5b60035f9054906101000a90046001600160a01b03166001600160a01b031663edcf9c1f6040518163ffffffff1660e01b8152600401602060405180830381865afa158015610643573d5f5f3e3d5ffd5b505050506040513d601f19601f820116820180604052508101906106679190611ad8565b610684576040516312aecd8160e01b815260040160405180910390fd5b600280546001600160a01b0319166001600160a01b0383169081179091556040517f6cc7ebdb6c8c53291c5ae16148cab9b049d23bf5bde5632900b40edff56fcb43905f90a250565b6002546001600160a01b031633146106f85760405163ea8e4eb560e01b815260040160405180910390fd5b61070061114f565b6005811015610722576040516317dbc4cb60e21b815260040160405180910390fd5b5f8061073083850185611af7565b90925090506341659aab60e01b6001600160e01b031983160161075a57610755611179565b61079c565b63100597e960e31b6001600160e01b031983160161077b5761075581611366565b63302c6bef60e21b6001600160e01b031983160161079c5761079c8161140f565b6040517ff0094b59b7bc92e9fc611b14b5d3a34fe02530ac9bcf36c2c6f10147c3030c12905f90a1505061051d60018055565b600354604051633821dad160e21b81526001600160a01b039091169063e0876b44906107ff903390600401611943565b602060405180830381865afa15801561081a573d5f5f3e3d5ffd5b505050506040513d601f19601f8201168201806040525081019061083e9190611ad8565b61085b5760405163ea8e4eb560e01b815260040160405180910390fd5b805f0361088857600554604051636b30633560e01b8152610429916001600160a01b031690600401611943565b60055460405163a9059cbb60e01b81525f916001600160a01b03169063a9059cbb906108ba9086908690600401611abf565b6020604051808303815f875af11580156108d6573d5f5f3e3d5ffd5b505050506040513d601f19601f820116820180604052508101906108fa9190611ad8565b90508061091a576040516312171d8360e31b815260040160405180910390fd5b505050565b600354604051633821dad160e21b81526001600160a01b039091169063e0876b449061094f903390600401611943565b602060405180830381865afa15801561096a573d5f5f3e3d5ffd5b505050506040513d601f19601f8201168201806040525081019061098e9190611ad8565b6108885760405163ea8e4eb560e01b815260040160405180910390fd5b6003546001600160a01b031633146109d65760405163ea8e4eb560e01b815260040160405180910390fd5b6001600160a01b03821615806109f357506001600160a01b038116155b15610a115760405163d92e233d60e01b815260040160405180910390fd5b6001600160a01b038281165f8181526006602052604080822080546001600160a01b0319169486169485179055515f516020611e1c5f395f51905f529190a35050565b5f606060035f9054906101000a90046001600160a01b03166001600160a01b031663edcf9c1f6040518163ffffffff1660e01b8152600401602060405180830381865afa158015610aa7573d5f5f3e3d5ffd5b505050506040513d601f19601f82011682018060405250810190610acb9190611ad8565b8015610b4b57506007546004805460408051630a58ce2d60e11b8152905161ffff909416936001600160a01b03909216926314b19c5a9282820192602092908290030181865afa158015610b21573d5f5f3e3d5ffd5b505050506040513d601f19601f82011682018060405250810190610b459190611b36565b61ffff16115b15610b9d57600191507fbe9a655586dceb82dfa0af992b5d8ae7fa45053cb7fd6f141f541da7572978c75f604051602001610b87929190611b57565b6040516020818303038152906040529050610c86565b60016007546301000000900460ff166003811115610bbd57610bbd611909565b03610c0857600191507f7fd340b8241a93f6a116f506d6171d4f585588564d777e1192babae55184f691600760049054906101000a900460ff16604051602001610b87929190611b57565b60026007546301000000900460ff166003811115610c2857610c28611909565b03610c7357600191507f3f4e50448465d8594e91c1038b22f277808696956455dacacb66f00f4df0b3a2600760049054906101000a900460ff16604051602001610b87929190611b57565b505060408051602081019091525f808252905b9250929050565b610c9561111d565b610c9e5f61157c565b565b600354604051633821dad160e21b815233916001600160a01b03169063e0876b4490610cd0908490600401611943565b602060405180830381865afa158015610ceb573d5f5f3e3d5ffd5b505050506040513d601f19601f82011682018060405250810190610d0f9190611ad8565b610d2c5760405163ea8e4eb560e01b815260040160405180910390fd5b815f03610d5957600554604051636b30633560e01b8152610429916001600160a01b031690600401611943565b5f816001600160a01b0316631f52692b6040518163ffffffff1660e01b8152600401602060405180830381865afa158015610d96573d5f5f3e3d5ffd5b505050506040513d601f19601f82011682018060405250810190610dba9190611b74565b60055460405163a9059cbb60e01b81529192505f916001600160a01b039091169063a9059cbb90610df19085908890600401611abf565b6020604051808303815f875af1158015610e0d573d5f5f3e3d5ffd5b505050506040513d601f19601f82011682018060405250810190610e319190611ad8565b905080610e51576040516312171d8360e31b815260040160405180910390fd5b50505050565b600a8181548110610530575f80fd5b6003546001600160a01b03163314610e915760405163ea8e4eb560e01b815260040160405180910390fd5b6001600160a01b038116610eb85760405163d92e233d60e01b815260040160405180910390fd5b6001600160a01b0381165f8181526006602052604080822080546001600160a01b0319169055519091905f516020611e1c5f395f51905f52908390a350565b610eff61111d565b8060ff165f03610f22576040516317dbc4cb60e21b815260040160405180910390fd5b60035f9054906101000a90046001600160a01b03166001600160a01b031663edcf9c1f6040518163ffffffff1660e01b8152600401602060405180830381865afa158015610f72573d5f5f3e3d5ffd5b505050506040513d601f19601f82011682018060405250810190610f969190611ad8565b610fb3576040516312aecd8160e01b815260040160405180910390fd5b6007805460ff909216620100000262ff000019909216919091179055565b5f546001600160a01b031690565b610fe761111d565b805f03611007576040516317dbc4cb60e21b815260040160405180910390fd5b60035f9054906101000a90046001600160a01b03166001600160a01b031663edcf9c1f6040518163ffffffff1660e01b8152600401602060405180830381865afa158015611057573d5f5f3e3d5ffd5b505050506040513d601f19601f8201168201806040525081019061107b9190611ad8565b611098576040516312aecd8160e01b815260040160405180910390fd5b60088190556110ac8161044c6103e86115cb565b60095550565b600d81815481106110c1575f80fd5b5f91825260209091200154905081565b600b81815481106110c1575f80fd5b6110e861111d565b6001600160a01b038116611111575f604051631e4fbdf760e01b81526004016104299190611943565b61111a8161157c565b50565b33611126610fd1565b6001600160a01b031614610c9e573360405163118cdaa760e01b81526004016104299190611943565b60026001540361117257604051633ee5aeb560e01b815260040160405180910390fd5b6002600155565b5f60045f9054906101000a90046001600160a01b03166001600160a01b03166314b19c5a6040518163ffffffff1660e01b8152600401602060405180830381865afa1580156111ca573d5f5f3e3d5ffd5b505050506040513d601f19601f820116820180604052508101906111ee9190611b36565b6007549091506112039061ffff166001611ba3565b61ffff168161ffff1610156112155750565b6007805461ffff191661ffff8316179055611231600a5f611827565b61123c600b5f611827565b611247600c5f611827565b611252600d5f611827565b6004805460408051631716e21f60e11b815290516001600160a01b0390921692632e2dc43e92828201925f92908290030181865afa158015611296573d5f5f3e3d5ffd5b505050506040513d5f823e601f3d908101601f191682016040526112bd9190810190611cf7565b8051600a905f90600b908290600c9082906112df90600d9060208a0190611842565b505086516112f29190602089019061188b565b5050855161130591906020880190611842565b505084516113189190602087019061188b565b50506007805463ff000000191663010000001790555050600a545f03905061111a576007805463ff00000019166302000000179055600c545f0361111a57506007805463ff00000019169055565b60016007546301000000900460ff16600381111561138657611386611909565b146113a45760405163baf3f0f760e01b815260040160405180910390fd5b600780546004906113be90600160201b900460ff16611db2565b91906101000a81548160ff021916908360ff1602179055505f600760029054906101000a900460ff16826113f29190611dd0565b60075460ff91821692505f91610e51916201000090041683611ba3565b60026007546301000000900460ff16600381111561142f5761142f611909565b1461144d5760405163baf3f0f760e01b815260040160405180910390fd5b6007805460049061146790600160201b900460ff16611db2565b91906101000a81548160ff021916908360ff1602179055505f600760029054906101000a900460ff168261149b9190611dd0565b60075460ff91821692505f916114b8916201000090041683611ba3565b600c5490915061ffff821611806114d45750600c5461ffff8216145b156114f25750600c546007805464ffff000000191663030000001790555b815b8161ffff168161ffff161015610e51575f600c8261ffff168154811061151c5761151c611df3565b5f918252602090912001546005546001600160a01b0391821692501681036115445750611574565b5f600d8361ffff168154811061155c5761155c611df3565b905f5260205f2001549050611571828261167c565b50505b6001016114f4565b5f80546001600160a01b038381166001600160a01b0319831681178455604051919092169283917f8be0079c531659141344cd1fd0a4f28419497f9722a3daafe3b4186f6b6457e09190a35050565b5f5f5f6115d886866117fa565b91509150815f036115fc578381816115f2576115f2611e07565b0492505050611675565b818411611613576116136003851502601118611816565b5f848688095f868103871696879004966002600389028118808a02820302808a02820302808a02820302808a02820302808a02820302808a02909103029181900381900460010185841190960395909502919093039390930492909217029150505b9392505050565b6001600160a01b038083165f9081526006602052604090205416806116b457604051635048c2af60e11b815260040160405180910390fd5b60055460405163095ea7b360e01b81526001600160a01b039091169063095ea7b3906116e69084905f90600401611abf565b6020604051808303815f875af1158015611702573d5f5f3e3d5ffd5b505050506040513d601f19601f820116820180604052508101906117269190611ad8565b5060055460405163095ea7b360e01b81526001600160a01b039091169063095ea7b3906117599084908690600401611abf565b6020604051808303815f875af1158015611775573d5f5f3e3d5ffd5b505050506040513d601f19601f820116820180604052508101906117999190611ad8565b5060405163cce7ec1360e01b81526001600160a01b0382169063cce7ec13906117c89086908690600401611abf565b5f604051808303815f87803b1580156117df575f5ffd5b505af11580156117f1573d5f5f3e3d5ffd5b50505050505050565b5f805f1983850993909202808410938190039390930393915050565b634e487b715f52806020526024601cfd5b5080545f8255905f5260205f209081019061111a91906118de565b828054828255905f5260205f2090810192821561187b579160200282015b8281111561187b578251825591602001919060010190611860565b506118879291506118de565b5090565b828054828255905f5260205f2090810192821561187b579160200282015b8281111561187b57825182546001600160a01b0319166001600160a01b039091161782556020909201916001909101906118a9565b5b80821115611887575f81556001016118df565b5f60208284031215611902575f5ffd5b5035919050565b634e487b7160e01b5f52602160045260245ffd5b602081016004831061193d57634e487b7160e01b5f52602160045260245ffd5b91905290565b6001600160a01b0391909116815260200190565b6001600160a01b038116811461111a575f5ffd5b5f6020828403121561197b575f5ffd5b813561167581611957565b5f5f60208385031215611997575f5ffd5b82356001600160401b038111156119ac575f5ffd5b8301601f810185136119bc575f5ffd5b80356001600160401b038111156119d1575f5ffd5b8560208284010111156119e2575f5ffd5b6020919091019590945092505050565b5f5f60408385031215611a03575f5ffd5b8235611a0e81611957565b946020939093013593505050565b5f5f60408385031215611a2d575f5ffd5b8235611a3881611957565b91506020830135611a4881611957565b809150509250929050565b8215158152604060208201525f82518060408401528060208501606085015e5f606082850101526060601f19601f8301168401019150509392505050565b803560ff81168114611aa1575f5ffd5b919050565b5f60208284031215611ab6575f5ffd5b61167582611a91565b6001600160a01b03929092168252602082015260400190565b5f60208284031215611ae8575f5ffd5b81518015158114611675575f5ffd5b5f5f60408385031215611b08575f5ffd5b82356001600160e01b031981168114611b1f575f5ffd5b9150611b2d60208401611a91565b90509250929050565b5f60208284031215611b46575f5ffd5b815161ffff81168114611675575f5ffd5b6001600160e01b031992909216825260ff16602082015260400190565b5f60208284031215611b84575f5ffd5b815161167581611957565b634e487b7160e01b5f52601160045260245ffd5b61ffff8181168382160190811115611bbd57611bbd611b8f565b92915050565b634e487b7160e01b5f52604160045260245ffd5b604051601f8201601f191681016001600160401b0381118282101715611bff57611bff611bc3565b604052919050565b5f6001600160401b03821115611c1f57611c1f611bc3565b5060051b60200190565b5f82601f830112611c38575f5ffd5b8151611c4b611c4682611c07565b611bd7565b8082825260208201915060208360051b860101925085831115611c6c575f5ffd5b602085015b83811015611c92578051611c8481611957565b835260209283019201611c71565b5095945050505050565b5f82601f830112611cab575f5ffd5b8151611cb9611c4682611c07565b8082825260208201915060208360051b860101925085831115611cda575f5ffd5b602085015b83811015611c92578051835260209283019201611cdf565b5f5f5f5f60808587031215611d0a575f5ffd5b84516001600160401b03811115611d1f575f5ffd5b611d2b87828801611c29565b602087015190955090506001600160401b03811115611d48575f5ffd5b611d5487828801611c9c565b604087015190945090506001600160401b03811115611d71575f5ffd5b611d7d87828801611c29565b606087015190935090506001600160401b03811115611d9a575f5ffd5b611da687828801611c9c565b91505092959194509250565b5f60ff821660ff8103611dc757611dc7611b8f565b60010192915050565b60ff8181168382160290811690818114611dec57611dec611b8f565b5092915050565b634e487b7160e01b5f52603260045260245ffd5b634e487b7160e01b5f52601260045260245ffdfe2f2727c7b3d9ee55de5c114f0cb7997ac7251a4cbfca4f2b2dc6969d86cce4f4a2646970667358221220da226736fe11fd067a288cda58fc8d1f529373b30888f60b4fe8306a6058704f64736f6c634300081c0033",
  "linkReferences": {},
  "deployedLinkReferences": {}
}