{
  "_format": "hh-sol-artifact-1",
  "contractName": "LiquidityOrchestrator",
  "sourceName": "contracts/orchestrators/LiquidityOrchestrator.sol",
  "abi": [
    {
      "inputs": [
        {
          "internalType": "address",
          "name": "initialOwner",
          "type": "address"
        },
        {
          "internalType": "address",
          "name": "config_",
          "type": "address"
        },
        {
          "internalType": "address",
          "name": "automationRegistry_",
          "type": "address"
        }
      ],
      "stateMutability": "nonpayable",
      "type": "constructor"
    },
    {
      "inputs": [],
      "name": "AdapterNotSet",
      "type": "error"
    },
    {
      "inputs": [],
      "name": "AlreadyRegistered",
      "type": "error"
    },
    {
      "inputs": [
        {
          "internalType": "address",
          "name": "asset",
          "type": "address"
        }
      ],
      "name": "AmountMustBeGreaterThanZero",
      "type": "error"
    },
    {
      "inputs": [],
      "name": "InvalidArguments",
      "type": "error"
    },
    {
      "inputs": [],
      "name": "InvalidState",
      "type": "error"
    },
    {
      "inputs": [],
      "name": "NotAuthorized",
      "type": "error"
    },
    {
      "inputs": [
        {
          "internalType": "address",
          "name": "owner",
          "type": "address"
        }
      ],
      "name": "OwnableInvalidOwner",
      "type": "error"
    },
    {
      "inputs": [
        {
          "internalType": "address",
          "name": "account",
          "type": "address"
        }
      ],
      "name": "OwnableUnauthorizedAccount",
      "type": "error"
    },
    {
      "inputs": [],
      "name": "ReentrancyGuardReentrantCall",
      "type": "error"
    },
    {
      "inputs": [],
      "name": "SystemNotIdle",
      "type": "error"
    },
    {
      "inputs": [],
      "name": "TransferFailed",
      "type": "error"
    },
    {
      "inputs": [],
      "name": "ZeroAddress",
      "type": "error"
    },
    {
      "anonymous": false,
      "inputs": [
        {
          "indexed": true,
          "internalType": "address",
          "name": "newAutomationRegistry",
          "type": "address"
        }
      ],
      "name": "AutomationRegistryUpdated",
      "type": "event"
    },
    {
      "anonymous": false,
      "inputs": [
        {
          "indexed": true,
          "internalType": "address",
          "name": "asset",
          "type": "address"
        },
        {
          "indexed": true,
          "internalType": "address",
          "name": "adapter",
          "type": "address"
        }
      ],
      "name": "ExecutionAdapterSet",
      "type": "event"
    },
    {
      "anonymous": false,
      "inputs": [
        {
          "indexed": true,
          "internalType": "address",
          "name": "previousOwner",
          "type": "address"
        },
        {
          "indexed": true,
          "internalType": "address",
          "name": "newOwner",
          "type": "address"
        }
      ],
      "name": "OwnershipTransferred",
      "type": "event"
    },
    {
      "anonymous": false,
      "inputs": [],
      "name": "PortfolioRebalanced",
      "type": "event"
    },
    {
      "inputs": [],
      "name": "automationRegistry",
      "outputs": [
        {
          "internalType": "address",
          "name": "",
          "type": "address"
        }
      ],
      "stateMutability": "view",
      "type": "function"
    },
    {
      "inputs": [
        {
          "internalType": "uint256",
          "name": "",
          "type": "uint256"
        }
      ],
      "name": "buyingAmounts",
      "outputs": [
        {
          "internalType": "uint256",
          "name": "",
          "type": "uint256"
        }
      ],
      "stateMutability": "view",
      "type": "function"
    },
    {
      "inputs": [
        {
          "internalType": "uint256",
          "name": "",
          "type": "uint256"
        }
      ],
      "name": "buyingEstimatedUnderlyingAmounts",
      "outputs": [
        {
          "internalType": "uint256",
          "name": "",
          "type": "uint256"
        }
      ],
      "stateMutability": "view",
      "type": "function"
    },
    {
      "inputs": [
        {
          "internalType": "uint256",
          "name": "",
          "type": "uint256"
        }
      ],
      "name": "buyingTokens",
      "outputs": [
        {
          "internalType": "address",
          "name": "",
          "type": "address"
        }
      ],
      "stateMutability": "view",
      "type": "function"
    },
    {
      "inputs": [
        {
          "internalType": "bytes",
          "name": "",
          "type": "bytes"
        }
      ],
      "name": "checkUpkeep",
      "outputs": [
        {
          "internalType": "bool",
          "name": "upkeepNeeded",
          "type": "bool"
        },
        {
          "internalType": "bytes",
          "name": "performData",
          "type": "bytes"
        }
      ],
      "stateMutability": "view",
      "type": "function"
    },
    {
      "inputs": [
        {
          "internalType": "uint256",
          "name": "amount",
          "type": "uint256"
        }
      ],
      "name": "claimProtocolFees",
      "outputs": [],
      "stateMutability": "nonpayable",
      "type": "function"
    },
    {
      "inputs": [],
      "name": "config",
      "outputs": [
        {
          "internalType": "contract IOrionConfig",
          "name": "",
          "type": "address"
        }
      ],
      "stateMutability": "view",
      "type": "function"
    },
    {
      "inputs": [],
      "name": "currentMinibatchIndex",
      "outputs": [
        {
          "internalType": "uint8",
          "name": "",
          "type": "uint8"
        }
      ],
      "stateMutability": "view",
      "type": "function"
    },
    {
      "inputs": [],
      "name": "currentPhase",
      "outputs": [
        {
          "internalType": "enum ILiquidityOrchestrator.LiquidityUpkeepPhase",
          "name": "",
          "type": "uint8"
        }
      ],
      "stateMutability": "view",
      "type": "function"
    },
    {
      "inputs": [
        {
          "internalType": "address",
          "name": "",
          "type": "address"
        }
      ],
      "name": "executionAdapterOf",
      "outputs": [
        {
          "internalType": "contract IExecutionAdapter",
          "name": "",
          "type": "address"
        }
      ],
      "stateMutability": "view",
      "type": "function"
    },
    {
      "inputs": [],
      "name": "executionMinibatchSize",
      "outputs": [
        {
          "internalType": "uint8",
          "name": "",
          "type": "uint8"
        }
      ],
      "stateMutability": "view",
      "type": "function"
    },
    {
      "inputs": [],
      "name": "internalStatesOrchestrator",
      "outputs": [
        {
          "internalType": "contract IInternalStateOrchestrator",
          "name": "",
          "type": "address"
        }
      ],
      "stateMutability": "view",
      "type": "function"
    },
    {
      "inputs": [],
      "name": "lastProcessedEpoch",
      "outputs": [
        {
          "internalType": "uint16",
          "name": "",
          "type": "uint16"
        }
      ],
      "stateMutability": "view",
      "type": "function"
    },
    {
      "inputs": [],
      "name": "owner",
      "outputs": [
        {
          "internalType": "address",
          "name": "",
          "type": "address"
        }
      ],
      "stateMutability": "view",
      "type": "function"
    },
    {
      "inputs": [
        {
          "internalType": "bytes",
          "name": "performData",
          "type": "bytes"
        }
      ],
      "name": "performUpkeep",
      "outputs": [],
      "stateMutability": "nonpayable",
      "type": "function"
    },
    {
      "inputs": [],
      "name": "renounceOwnership",
      "outputs": [],
      "stateMutability": "nonpayable",
      "type": "function"
    },
    {
      "inputs": [
        {
          "internalType": "address",
          "name": "user",
          "type": "address"
        },
        {
          "internalType": "uint256",
          "name": "amount",
          "type": "uint256"
        }
      ],
      "name": "returnDepositFunds",
      "outputs": [],
      "stateMutability": "nonpayable",
      "type": "function"
    },
    {
      "inputs": [
        {
          "internalType": "uint256",
          "name": "",
          "type": "uint256"
        }
      ],
      "name": "sellingAmounts",
      "outputs": [
        {
          "internalType": "uint256",
          "name": "",
          "type": "uint256"
        }
      ],
      "stateMutability": "view",
      "type": "function"
    },
    {
      "inputs": [
        {
          "internalType": "uint256",
          "name": "",
          "type": "uint256"
        }
      ],
      "name": "sellingEstimatedUnderlyingAmounts",
      "outputs": [
        {
          "internalType": "uint256",
          "name": "",
          "type": "uint256"
        }
      ],
      "stateMutability": "view",
      "type": "function"
    },
    {
      "inputs": [
        {
          "internalType": "uint256",
          "name": "",
          "type": "uint256"
        }
      ],
      "name": "sellingTokens",
      "outputs": [
        {
          "internalType": "address",
          "name": "",
          "type": "address"
        }
      ],
      "stateMutability": "view",
      "type": "function"
    },
    {
      "inputs": [
        {
          "internalType": "address",
          "name": "asset",
          "type": "address"
        },
        {
          "internalType": "contract IExecutionAdapter",
          "name": "adapter",
          "type": "address"
        }
      ],
      "name": "setExecutionAdapter",
      "outputs": [],
      "stateMutability": "nonpayable",
      "type": "function"
    },
    {
      "inputs": [
        {
          "internalType": "address",
          "name": "_internalStatesOrchestrator",
          "type": "address"
        }
      ],
      "name": "setInternalStatesOrchestrator",
      "outputs": [],
      "stateMutability": "nonpayable",
      "type": "function"
    },
    {
      "inputs": [
        {
          "internalType": "uint256",
          "name": "_slippageBound",
          "type": "uint256"
        }
      ],
      "name": "setSlippageBound",
      "outputs": [],
      "stateMutability": "nonpayable",
      "type": "function"
    },
    {
      "inputs": [],
      "name": "slippageBound",
      "outputs": [
        {
          "internalType": "uint256",
          "name": "",
          "type": "uint256"
        }
      ],
      "stateMutability": "view",
      "type": "function"
    },
    {
      "inputs": [],
      "name": "targetBufferRatio",
      "outputs": [
        {
          "internalType": "uint256",
          "name": "",
          "type": "uint256"
        }
      ],
      "stateMutability": "view",
      "type": "function"
    },
    {
      "inputs": [
        {
          "internalType": "uint256",
          "name": "amount",
          "type": "uint256"
        }
      ],
      "name": "transferCuratorFees",
      "outputs": [],
      "stateMutability": "nonpayable",
      "type": "function"
    },
    {
      "inputs": [
        {
          "internalType": "address",
          "name": "newOwner",
          "type": "address"
        }
      ],
      "name": "transferOwnership",
      "outputs": [],
      "stateMutability": "nonpayable",
      "type": "function"
    },
    {
      "inputs": [
        {
          "internalType": "address",
          "name": "user",
          "type": "address"
        },
        {
          "internalType": "uint256",
          "name": "amount",
          "type": "uint256"
        }
      ],
      "name": "transferRedemptionFunds",
      "outputs": [],
      "stateMutability": "nonpayable",
      "type": "function"
    },
    {
      "inputs": [],
      "name": "underlyingAsset",
      "outputs": [
        {
          "internalType": "address",
          "name": "",
          "type": "address"
        }
      ],
      "stateMutability": "view",
      "type": "function"
    },
    {
      "inputs": [
        {
          "internalType": "address",
          "name": "asset",
          "type": "address"
        }
      ],
      "name": "unsetExecutionAdapter",
      "outputs": [],
      "stateMutability": "nonpayable",
      "type": "function"
    },
    {
      "inputs": [
        {
          "internalType": "address",
          "name": "newAutomationRegistry",
          "type": "address"
        }
      ],
      "name": "updateAutomationRegistry",
      "outputs": [],
      "stateMutability": "nonpayable",
      "type": "function"
    },
    {
      "inputs": [
        {
          "internalType": "uint8",
          "name": "_executionMinibatchSize",
          "type": "uint8"
        }
      ],
      "name": "updateExecutionMinibatchSize",
      "outputs": [],
      "stateMutability": "nonpayable",
      "type": "function"
    }
  ],
  "bytecode": "0x608060405234801561000f575f5ffd5b5060405161225138038061225183398101604081905261002e916101e3565b826001600160a01b03811661005c57604051631e4fbdf760e01b81525f600482015260240160405180910390fd5b6100658161017d565b50600180556001600160a01b0382166100915760405163d92e233d60e01b815260040160405180910390fd5b6001600160a01b0381166100b85760405163d92e233d60e01b815260040160405180910390fd5b600380546001600160a01b0319166001600160a01b03841690811790915560408051631c56369f60e21b81529051637158da7c916004808201926020929091908290030181865afa15801561010f573d5f5f3e3d5ffd5b505050506040513d601f19601f82011682018060405250810190610133919061022d565b600580546001600160a01b03199081166001600160a01b0393841617909155600280549091169290911691909117905550506007805464ffffffffff19166201000017905561024f565b5f80546001600160a01b038381166001600160a01b0319831681178455604051919092169283917f8be0079c531659141344cd1fd0a4f28419497f9722a3daafe3b4186f6b6457e09190a35050565b6001600160a01b03811681146101e0575f5ffd5b50565b5f5f5f606084860312156101f5575f5ffd5b8351610200816101cc565b6020850151909350610211816101cc565b6040850151909250610222816101cc565b809150509250925092565b5f6020828403121561023d575f5ffd5b8151610248816101cc565b9392505050565b611ff58061025c5f395ff3fe608060405234801561000f575f5ffd5b506004361061017e575f3560e01c806301c621c114610182578063055ad42e1461019757806309f2e19c146101c15780630a8b78c7146101e157806314b5d07f146101f45780632be17d3b14610207578063348ec5c81461021e5780633e765a9e146102315780634585e33b146102445780634adfc2e71461025757806351edffb11461026a57806352e899fd1461027d5780635488cd621461029057806357be01c1146102b657806359017aa9146102c95780635dc228a0146102dc5780636e04ff0d146102ef578063715018a6146103105780637158da7c14610318578063741fca4b1461032b57806379502c551461033e5780638157c1ab14610351578063841181ef146103645780638a0b0d38146103775780638da5cb5b1461038a57806399cdc4b514610392578063bc504975146103a5578063be1b26a4146103b8578063d3f3506d146103cb578063dab26e3b146103f3578063ee6713df146103fc578063f2fde38b1461041d575b5f5ffd5b6101956101903660046119f7565b610430565b005b6007546101ab906301000000900460ff1681565b6040516101b89190611a22565b60405180910390f35b6101d46101cf3660046119f7565b61055d565b6040516101b89190611a48565b6101956101ef366004611a70565b610585565b610195610202366004611a70565b610600565b61021060085481565b6040519081526020016101b8565b6004546101d4906001600160a01b031681565b61021061023f3660046119f7565b610709565b610195610252366004611a8b565b610728565b610195610265366004611af7565b61082a565b610195610278366004611af7565b61097a565b61021061028b3660046119f7565b610a06565b6007546102a490600160201b900460ff1681565b60405160ff90911681526020016101b8565b6007546102a49062010000900460ff1681565b6101956102d7366004611b21565b610a15565b6002546101d4906001600160a01b031681565b6103026102fd366004611a8b565b610abe565b6040516101b8929190611b58565b610195610cf7565b6005546101d4906001600160a01b031681565b6101956103393660046119f7565b610d0a565b6003546101d4906001600160a01b031681565b6101d461035f3660046119f7565b610ec1565b610195610372366004611a70565b610ed0565b610195610385366004611bab565b610f61565b6101d461103b565b6101956103a03660046119f7565b611049565b6102106103b33660046119f7565b61111c565b6102106103c63660046119f7565b61112b565b6101d46103d9366004611a70565b60066020525f90815260409020546001600160a01b031681565b61021060095481565b60075461040a9061ffff1681565b60405161ffff90911681526020016101b8565b61019561042b366004611a70565b61113a565b610438611177565b805f0361046e57600554604051636b30633560e01b8152610465916001600160a01b031690600401611a48565b60405180910390fd5b60048054604051637060444560e01b81529182018390526001600160a01b0316906370604445906024015f604051808303815f87803b1580156104af575f5ffd5b505af11580156104c1573d5f5f3e3d5ffd5b505060055460405163a9059cbb60e01b81525f93506001600160a01b03909116915063a9059cbb906104f99033908690600401611bc4565b6020604051808303815f875af1158015610515573d5f5f3e3d5ffd5b505050506040513d601f19601f820116820180604052508101906105399190611bdd565b905080610559576040516312171d8360e31b815260040160405180910390fd5b5050565b600d818154811061056c575f80fd5b5f918252602090912001546001600160a01b0316905081565b61058d611177565b6001600160a01b0381166105b45760405163d92e233d60e01b815260040160405180910390fd5b6004546001600160a01b0316156105de57604051630ea075bf60e21b815260040160405180910390fd5b600480546001600160a01b0319166001600160a01b0392909216919091179055565b610608611177565b6001600160a01b03811661062f5760405163d92e233d60e01b815260040160405180910390fd5b60035f9054906101000a90046001600160a01b03166001600160a01b031663edcf9c1f6040518163ffffffff1660e01b8152600401602060405180830381865afa15801561067f573d5f5f3e3d5ffd5b505050506040513d601f19601f820116820180604052508101906106a39190611bdd565b6106c0576040516312aecd8160e01b815260040160405180910390fd5b600280546001600160a01b0319166001600160a01b0383169081179091556040517f6cc7ebdb6c8c53291c5ae16148cab9b049d23bf5bde5632900b40edff56fcb43905f90a250565b600f8181548110610718575f80fd5b5f91825260209091200154905081565b6002546001600160a01b031633146107535760405163ea8e4eb560e01b815260040160405180910390fd5b61075b6111a9565b600581101561077d576040516317dbc4cb60e21b815260040160405180910390fd5b5f8061078b83850185611bfc565b90925090506341659aab60e01b6001600160e01b03198316016107b5576107b06111d3565b6107f7565b63100597e960e31b6001600160e01b03198316016107d6576107b081611406565b63302c6bef60e21b6001600160e01b03198316016107f7576107f7816114af565b6040517ff0094b59b7bc92e9fc611b14b5d3a34fe02530ac9bcf36c2c6f10147c3030c12905f90a1505061055960018055565b600354604051633821dad160e21b81526001600160a01b039091169063e0876b449061085a903390600401611a48565b602060405180830381865afa158015610875573d5f5f3e3d5ffd5b505050506040513d601f19601f820116820180604052508101906108999190611bdd565b6108b65760405163ea8e4eb560e01b815260040160405180910390fd5b805f036108e357600554604051636b30633560e01b8152610465916001600160a01b031690600401611a48565b60055460405163a9059cbb60e01b81525f916001600160a01b03169063a9059cbb906109159086908690600401611bc4565b6020604051808303815f875af1158015610931573d5f5f3e3d5ffd5b505050506040513d601f19601f820116820180604052508101906109559190611bdd565b905080610975576040516312171d8360e31b815260040160405180910390fd5b505050565b600354604051633821dad160e21b81526001600160a01b039091169063e0876b44906109aa903390600401611a48565b602060405180830381865afa1580156109c5573d5f5f3e3d5ffd5b505050506040513d601f19601f820116820180604052508101906109e99190611bdd565b6108e35760405163ea8e4eb560e01b815260040160405180910390fd5b600c8181548110610718575f80fd5b6003546001600160a01b03163314610a405760405163ea8e4eb560e01b815260040160405180910390fd5b6001600160a01b0382161580610a5d57506001600160a01b038116155b15610a7b5760405163d92e233d60e01b815260040160405180910390fd5b6001600160a01b038281165f8181526006602052604080822080546001600160a01b0319169486169485179055515f516020611fa05f395f51905f529190a35050565b5f606060035f9054906101000a90046001600160a01b03166001600160a01b031663edcf9c1f6040518163ffffffff1660e01b8152600401602060405180830381865afa158015610b11573d5f5f3e3d5ffd5b505050506040513d601f19601f82011682018060405250810190610b359190611bdd565b8015610bb557506007546004805460408051630a58ce2d60e11b8152905161ffff909416936001600160a01b03909216926314b19c5a9282820192602092908290030181865afa158015610b8b573d5f5f3e3d5ffd5b505050506040513d601f19601f82011682018060405250810190610baf9190611c3b565b61ffff16115b15610c0757600191507fbe9a655586dceb82dfa0af992b5d8ae7fa45053cb7fd6f141f541da7572978c75f604051602001610bf1929190611c5c565b6040516020818303038152906040529050610cf0565b60016007546301000000900460ff166003811115610c2757610c27611a0e565b03610c7257600191507f7fd340b8241a93f6a116f506d6171d4f585588564d777e1192babae55184f691600760049054906101000a900460ff16604051602001610bf1929190611c5c565b60026007546301000000900460ff166003811115610c9257610c92611a0e565b03610cdd57600191507f3f4e50448465d8594e91c1038b22f277808696956455dacacb66f00f4df0b3a2600760049054906101000a900460ff16604051602001610bf1929190611c5c565b505060408051602081019091525f808252905b9250929050565b610cff611177565b610d085f61163f565b565b600354604051633821dad160e21b815233916001600160a01b03169063e0876b4490610d3a908490600401611a48565b602060405180830381865afa158015610d55573d5f5f3e3d5ffd5b505050506040513d601f19601f82011682018060405250810190610d799190611bdd565b610d965760405163ea8e4eb560e01b815260040160405180910390fd5b815f03610dc357600554604051636b30633560e01b8152610465916001600160a01b031690600401611a48565b5f816001600160a01b0316631f52692b6040518163ffffffff1660e01b8152600401602060405180830381865afa158015610e00573d5f5f3e3d5ffd5b505050506040513d601f19601f82011682018060405250810190610e249190611c79565b60055460405163a9059cbb60e01b81529192505f916001600160a01b039091169063a9059cbb90610e5b9085908890600401611bc4565b6020604051808303815f875af1158015610e77573d5f5f3e3d5ffd5b505050506040513d601f19601f82011682018060405250810190610e9b9190611bdd565b905080610ebb576040516312171d8360e31b815260040160405180910390fd5b50505050565b600a818154811061056c575f80fd5b6003546001600160a01b03163314610efb5760405163ea8e4eb560e01b815260040160405180910390fd5b6001600160a01b038116610f225760405163d92e233d60e01b815260040160405180910390fd5b6001600160a01b0381165f8181526006602052604080822080546001600160a01b0319169055519091905f516020611fa05f395f51905f52908390a350565b610f69611177565b8060ff165f03610f8c576040516317dbc4cb60e21b815260040160405180910390fd5b60035f9054906101000a90046001600160a01b03166001600160a01b031663edcf9c1f6040518163ffffffff1660e01b8152600401602060405180830381865afa158015610fdc573d5f5f3e3d5ffd5b505050506040513d601f19601f820116820180604052508101906110009190611bdd565b61101d576040516312aecd8160e01b815260040160405180910390fd5b6007805460ff909216620100000262ff000019909216919091179055565b5f546001600160a01b031690565b611051611177565b805f03611071576040516317dbc4cb60e21b815260040160405180910390fd5b60035f9054906101000a90046001600160a01b03166001600160a01b031663edcf9c1f6040518163ffffffff1660e01b8152600401602060405180830381865afa1580156110c1573d5f5f3e3d5ffd5b505050506040513d601f19601f820116820180604052508101906110e59190611bdd565b611102576040516312aecd8160e01b815260040160405180910390fd5b60088190556111168161044c6103e861168e565b60095550565b600e8181548110610718575f80fd5b600b8181548110610718575f80fd5b611142611177565b6001600160a01b03811661116b575f604051631e4fbdf760e01b81526004016104659190611a48565b6111748161163f565b50565b3361118061103b565b6001600160a01b031614610d08573360405163118cdaa760e01b81526004016104659190611a48565b6002600154036111cc57604051633ee5aeb560e01b815260040160405180910390fd5b6002600155565b5f60045f9054906101000a90046001600160a01b03166001600160a01b03166314b19c5a6040518163ffffffff1660e01b8152600401602060405180830381865afa158015611224573d5f5f3e3d5ffd5b505050506040513d601f19601f820116820180604052508101906112489190611c3b565b60075490915061125d9061ffff166001611ca8565b61ffff168161ffff16101561126f5750565b6007805461ffff191661ffff831617905561128b600a5f61192c565b611296600b5f61192c565b6112a1600d5f61192c565b6112ac600e5f61192c565b6112b7600c5f61192c565b6112c2600f5f61192c565b6004805460408051631716e21f60e11b815290516001600160a01b0390921692632e2dc43e92828201925f92908290030181865afa158015611306573d5f5f3e3d5ffd5b505050506040513d5f823e601f3d908101601f1916820160405261132d9190810190611dfc565b600a5f600b5f600d5f600e5f600c5f600f5f8c9190509080519060200190611356929190611947565b50508a51611369919060208d0190611947565b5050895161137c919060208c0190611947565b5050885161138f919060208b0190611990565b505087516113a2919060208a0190611947565b505086516113b591906020890190611990565b50506007805463ff000000191663010000001790555050600a545f039250611174915050576007805463ff00000019166302000000179055600d545f0361117457506007805463ff00000019169055565b60016007546301000000900460ff16600381111561142657611426611a0e565b146114445760405163baf3f0f760e01b815260040160405180910390fd5b6007805460049061145e90600160201b900460ff16611f0c565b91906101000a81548160ff021916908360ff1602179055505f600760029054906101000a900460ff16826114929190611f2a565b60075460ff91821692505f91610ebb916201000090041683611ca8565b60026007546301000000900460ff1660038111156114cf576114cf611a0e565b146114ed5760405163baf3f0f760e01b815260040160405180910390fd5b6007805460049061150790600160201b900460ff16611f0c565b91906101000a81548160ff021916908360ff1602179055505f600760029054906101000a900460ff168261153b9190611f2a565b60075460ff91821692505f91611558916201000090041683611ca8565b600d5490915061ffff821611806115745750600d5461ffff8216145b156115925750600d546007805464ffff000000191663030000001790555b815b8161ffff168161ffff161015610ebb575f600d8261ffff16815481106115bc576115bc611f4d565b5f918252602090912001546005546001600160a01b0391821692501681036115e45750611637565b5f600e8361ffff16815481106115fc576115fc611f4d565b905f5260205f20015490505f6116328383600f8761ffff168154811061162457611624611f4d565b905f5260205f20015461173f565b505050505b600101611594565b5f80546001600160a01b038381166001600160a01b0319831681178455604051919092169283917f8be0079c531659141344cd1fd0a4f28419497f9722a3daafe3b4186f6b6457e09190a35050565b5f5f5f61169b86866118ff565b91509150815f036116bf578381816116b5576116b5611f61565b0492505050611738565b8184116116d6576116d6600385150260111861191b565b5f848688095f868103871696879004966002600389028118808a02820302808a02820302808a02820302808a02820302808a02820302808a02909103029181900381900460010185841190960395909502919093039390930492909217029150505b9392505050565b6001600160a01b038084165f908152600660205260408120549091168061177957604051635048c2af60e11b815260040160405180910390fd5b5f61179760085461271061178d9190611f75565b859061271061168e565b60055460405163095ea7b360e01b81529192506001600160a01b03169063095ea7b3906117ca9085905f90600401611bc4565b6020604051808303815f875af11580156117e6573d5f5f3e3d5ffd5b505050506040513d601f19601f8201168201806040525081019061180a9190611bdd565b5060055460405163095ea7b360e01b81526001600160a01b039091169063095ea7b39061183d9085908590600401611bc4565b6020604051808303815f875af1158015611859573d5f5f3e3d5ffd5b505050506040513d601f19601f8201168201806040525081019061187d9190611bdd565b5060405163a59ac6dd60e01b81526001600160a01b038781166004830152602482018790526044820183905283169063a59ac6dd906064016020604051808303815f875af11580156118d1573d5f5f3e3d5ffd5b505050506040513d601f19601f820116820180604052508101906118f59190611f88565b9695505050505050565b5f805f1983850993909202808410938190039390930393915050565b634e487b715f52806020526024601cfd5b5080545f8255905f5260205f209081019061117491906119e3565b828054828255905f5260205f20908101928215611980579160200282015b82811115611980578251825591602001919060010190611965565b5061198c9291506119e3565b5090565b828054828255905f5260205f20908101928215611980579160200282015b8281111561198057825182546001600160a01b0319166001600160a01b039091161782556020909201916001909101906119ae565b5b8082111561198c575f81556001016119e4565b5f60208284031215611a07575f5ffd5b5035919050565b634e487b7160e01b5f52602160045260245ffd5b6020810160048310611a4257634e487b7160e01b5f52602160045260245ffd5b91905290565b6001600160a01b0391909116815260200190565b6001600160a01b0381168114611174575f5ffd5b5f60208284031215611a80575f5ffd5b813561173881611a5c565b5f5f60208385031215611a9c575f5ffd5b82356001600160401b03811115611ab1575f5ffd5b8301601f81018513611ac1575f5ffd5b80356001600160401b03811115611ad6575f5ffd5b856020828401011115611ae7575f5ffd5b6020919091019590945092505050565b5f5f60408385031215611b08575f5ffd5b8235611b1381611a5c565b946020939093013593505050565b5f5f60408385031215611b32575f5ffd5b8235611b3d81611a5c565b91506020830135611b4d81611a5c565b809150509250929050565b8215158152604060208201525f82518060408401528060208501606085015e5f606082850101526060601f19601f8301168401019150509392505050565b803560ff81168114611ba6575f5ffd5b919050565b5f60208284031215611bbb575f5ffd5b61173882611b96565b6001600160a01b03929092168252602082015260400190565b5f60208284031215611bed575f5ffd5b81518015158114611738575f5ffd5b5f5f60408385031215611c0d575f5ffd5b82356001600160e01b031981168114611c24575f5ffd5b9150611c3260208401611b96565b90509250929050565b5f60208284031215611c4b575f5ffd5b815161ffff81168114611738575f5ffd5b6001600160e01b031992909216825260ff16602082015260400190565b5f60208284031215611c89575f5ffd5b815161173881611a5c565b634e487b7160e01b5f52601160045260245ffd5b61ffff8181168382160190811115611cc257611cc2611c94565b92915050565b634e487b7160e01b5f52604160045260245ffd5b604051601f8201601f191681016001600160401b0381118282101715611d0457611d04611cc8565b604052919050565b5f6001600160401b03821115611d2457611d24611cc8565b5060051b60200190565b5f82601f830112611d3d575f5ffd5b8151611d50611d4b82611d0c565b611cdc565b8082825260208201915060208360051b860101925085831115611d71575f5ffd5b602085015b83811015611d97578051611d8981611a5c565b835260209283019201611d76565b5095945050505050565b5f82601f830112611db0575f5ffd5b8151611dbe611d4b82611d0c565b8082825260208201915060208360051b860101925085831115611ddf575f5ffd5b602085015b83811015611d97578051835260209283019201611de4565b5f5f5f5f5f5f60c08789031215611e11575f5ffd5b86516001600160401b03811115611e26575f5ffd5b611e3289828a01611d2e565b602089015190975090506001600160401b03811115611e4f575f5ffd5b611e5b89828a01611da1565b604089015190965090506001600160401b03811115611e78575f5ffd5b611e8489828a01611d2e565b606089015190955090506001600160401b03811115611ea1575f5ffd5b611ead89828a01611da1565b608089015190945090506001600160401b03811115611eca575f5ffd5b611ed689828a01611da1565b60a089015190935090506001600160401b03811115611ef3575f5ffd5b611eff89828a01611da1565b9150509295509295509295565b5f60ff821660ff8103611f2157611f21611c94565b60010192915050565b60ff8181168382160290811690818114611f4657611f46611c94565b5092915050565b634e487b7160e01b5f52603260045260245ffd5b634e487b7160e01b5f52601260045260245ffd5b80820180821115611cc257611cc2611c94565b5f60208284031215611f98575f5ffd5b505191905056fe2f2727c7b3d9ee55de5c114f0cb7997ac7251a4cbfca4f2b2dc6969d86cce4f4a26469706673582212202ecddd531f09685058e25d944aa31c0865cffd5b526d57c63d90cd297d97800364736f6c634300081c0033",
  "linkReferences": {},
  "deployedLinkReferences": {}
}