{
  "_format": "hh-sol-artifact-1",
  "contractName": "LiquidityOrchestrator",
  "sourceName": "contracts/orchestrators/LiquidityOrchestrator.sol",
  "abi": [
    {
      "inputs": [
        {
          "internalType": "address",
          "name": "initialOwner",
          "type": "address"
        },
        {
          "internalType": "address",
          "name": "config_",
          "type": "address"
        },
        {
          "internalType": "address",
          "name": "automationRegistry_",
          "type": "address"
        }
      ],
      "stateMutability": "nonpayable",
      "type": "constructor"
    },
    {
      "inputs": [],
      "name": "AdapterNotSet",
      "type": "error"
    },
    {
      "inputs": [],
      "name": "AlreadyRegistered",
      "type": "error"
    },
    {
      "inputs": [
        {
          "internalType": "address",
          "name": "asset",
          "type": "address"
        }
      ],
      "name": "AmountMustBeGreaterThanZero",
      "type": "error"
    },
    {
      "inputs": [],
      "name": "InsufficientAmount",
      "type": "error"
    },
    {
      "inputs": [],
      "name": "InvalidArguments",
      "type": "error"
    },
    {
      "inputs": [],
      "name": "InvalidState",
      "type": "error"
    },
    {
      "inputs": [],
      "name": "NotAuthorized",
      "type": "error"
    },
    {
      "inputs": [
        {
          "internalType": "address",
          "name": "owner",
          "type": "address"
        }
      ],
      "name": "OwnableInvalidOwner",
      "type": "error"
    },
    {
      "inputs": [
        {
          "internalType": "address",
          "name": "account",
          "type": "address"
        }
      ],
      "name": "OwnableUnauthorizedAccount",
      "type": "error"
    },
    {
      "inputs": [],
      "name": "ReentrancyGuardReentrantCall",
      "type": "error"
    },
    {
      "inputs": [
        {
          "internalType": "address",
          "name": "token",
          "type": "address"
        }
      ],
      "name": "SafeERC20FailedOperation",
      "type": "error"
    },
    {
      "inputs": [],
      "name": "SystemNotIdle",
      "type": "error"
    },
    {
      "inputs": [],
      "name": "UnauthorizedAccess",
      "type": "error"
    },
    {
      "inputs": [],
      "name": "ZeroAddress",
      "type": "error"
    },
    {
      "anonymous": false,
      "inputs": [
        {
          "indexed": true,
          "internalType": "address",
          "name": "newAutomationRegistry",
          "type": "address"
        }
      ],
      "name": "AutomationRegistryUpdated",
      "type": "event"
    },
    {
      "anonymous": false,
      "inputs": [
        {
          "indexed": true,
          "internalType": "address",
          "name": "asset",
          "type": "address"
        },
        {
          "indexed": true,
          "internalType": "address",
          "name": "adapter",
          "type": "address"
        }
      ],
      "name": "ExecutionAdapterSet",
      "type": "event"
    },
    {
      "anonymous": false,
      "inputs": [
        {
          "indexed": true,
          "internalType": "address",
          "name": "previousOwner",
          "type": "address"
        },
        {
          "indexed": true,
          "internalType": "address",
          "name": "newOwner",
          "type": "address"
        }
      ],
      "name": "OwnershipTransferred",
      "type": "event"
    },
    {
      "anonymous": false,
      "inputs": [],
      "name": "PortfolioRebalanced",
      "type": "event"
    },
    {
      "inputs": [],
      "name": "MAX_EXECUTION_MINIBATCH_SIZE",
      "outputs": [
        {
          "internalType": "uint8",
          "name": "",
          "type": "uint8"
        }
      ],
      "stateMutability": "view",
      "type": "function"
    },
    {
      "inputs": [],
      "name": "MAX_MINIBATCH_SIZE",
      "outputs": [
        {
          "internalType": "uint8",
          "name": "",
          "type": "uint8"
        }
      ],
      "stateMutability": "view",
      "type": "function"
    },
    {
      "inputs": [],
      "name": "admin",
      "outputs": [
        {
          "internalType": "address",
          "name": "",
          "type": "address"
        }
      ],
      "stateMutability": "view",
      "type": "function"
    },
    {
      "inputs": [],
      "name": "automationRegistry",
      "outputs": [
        {
          "internalType": "address",
          "name": "",
          "type": "address"
        }
      ],
      "stateMutability": "view",
      "type": "function"
    },
    {
      "inputs": [
        {
          "internalType": "uint256",
          "name": "",
          "type": "uint256"
        }
      ],
      "name": "buyingAmounts",
      "outputs": [
        {
          "internalType": "uint256",
          "name": "",
          "type": "uint256"
        }
      ],
      "stateMutability": "view",
      "type": "function"
    },
    {
      "inputs": [
        {
          "internalType": "uint256",
          "name": "",
          "type": "uint256"
        }
      ],
      "name": "buyingEstimatedUnderlyingAmounts",
      "outputs": [
        {
          "internalType": "uint256",
          "name": "",
          "type": "uint256"
        }
      ],
      "stateMutability": "view",
      "type": "function"
    },
    {
      "inputs": [
        {
          "internalType": "uint256",
          "name": "",
          "type": "uint256"
        }
      ],
      "name": "buyingTokens",
      "outputs": [
        {
          "internalType": "address",
          "name": "",
          "type": "address"
        }
      ],
      "stateMutability": "view",
      "type": "function"
    },
    {
      "inputs": [
        {
          "internalType": "bytes",
          "name": "",
          "type": "bytes"
        }
      ],
      "name": "checkUpkeep",
      "outputs": [
        {
          "internalType": "bool",
          "name": "upkeepNeeded",
          "type": "bool"
        },
        {
          "internalType": "bytes",
          "name": "performData",
          "type": "bytes"
        }
      ],
      "stateMutability": "view",
      "type": "function"
    },
    {
      "inputs": [
        {
          "internalType": "uint256",
          "name": "amount",
          "type": "uint256"
        }
      ],
      "name": "claimProtocolFees",
      "outputs": [],
      "stateMutability": "nonpayable",
      "type": "function"
    },
    {
      "inputs": [],
      "name": "config",
      "outputs": [
        {
          "internalType": "contract IOrionConfig",
          "name": "",
          "type": "address"
        }
      ],
      "stateMutability": "view",
      "type": "function"
    },
    {
      "inputs": [],
      "name": "currentMinibatchIndex",
      "outputs": [
        {
          "internalType": "uint8",
          "name": "",
          "type": "uint8"
        }
      ],
      "stateMutability": "view",
      "type": "function"
    },
    {
      "inputs": [],
      "name": "currentPhase",
      "outputs": [
        {
          "internalType": "enum ILiquidityOrchestrator.LiquidityUpkeepPhase",
          "name": "",
          "type": "uint8"
        }
      ],
      "stateMutability": "view",
      "type": "function"
    },
    {
      "inputs": [],
      "name": "deltaBufferAmount",
      "outputs": [
        {
          "internalType": "int256",
          "name": "",
          "type": "int256"
        }
      ],
      "stateMutability": "view",
      "type": "function"
    },
    {
      "inputs": [
        {
          "internalType": "uint256",
          "name": "amount",
          "type": "uint256"
        }
      ],
      "name": "depositLiquidity",
      "outputs": [],
      "stateMutability": "nonpayable",
      "type": "function"
    },
    {
      "inputs": [
        {
          "internalType": "address",
          "name": "",
          "type": "address"
        }
      ],
      "name": "executionAdapterOf",
      "outputs": [
        {
          "internalType": "contract IExecutionAdapter",
          "name": "",
          "type": "address"
        }
      ],
      "stateMutability": "view",
      "type": "function"
    },
    {
      "inputs": [],
      "name": "executionMinibatchSize",
      "outputs": [
        {
          "internalType": "uint8",
          "name": "",
          "type": "uint8"
        }
      ],
      "stateMutability": "view",
      "type": "function"
    },
    {
      "inputs": [],
      "name": "internalStatesOrchestrator",
      "outputs": [
        {
          "internalType": "contract IInternalStateOrchestrator",
          "name": "",
          "type": "address"
        }
      ],
      "stateMutability": "view",
      "type": "function"
    },
    {
      "inputs": [],
      "name": "lastProcessedEpoch",
      "outputs": [
        {
          "internalType": "uint16",
          "name": "",
          "type": "uint16"
        }
      ],
      "stateMutability": "view",
      "type": "function"
    },
    {
      "inputs": [],
      "name": "minibatchSize",
      "outputs": [
        {
          "internalType": "uint8",
          "name": "",
          "type": "uint8"
        }
      ],
      "stateMutability": "view",
      "type": "function"
    },
    {
      "inputs": [],
      "name": "owner",
      "outputs": [
        {
          "internalType": "address",
          "name": "",
          "type": "address"
        }
      ],
      "stateMutability": "view",
      "type": "function"
    },
    {
      "inputs": [
        {
          "internalType": "bytes",
          "name": "",
          "type": "bytes"
        }
      ],
      "name": "performUpkeep",
      "outputs": [],
      "stateMutability": "nonpayable",
      "type": "function"
    },
    {
      "inputs": [],
      "name": "renounceOwnership",
      "outputs": [],
      "stateMutability": "nonpayable",
      "type": "function"
    },
    {
      "inputs": [
        {
          "internalType": "address",
          "name": "user",
          "type": "address"
        },
        {
          "internalType": "uint256",
          "name": "amount",
          "type": "uint256"
        }
      ],
      "name": "returnDepositFunds",
      "outputs": [],
      "stateMutability": "nonpayable",
      "type": "function"
    },
    {
      "inputs": [
        {
          "internalType": "uint256",
          "name": "",
          "type": "uint256"
        }
      ],
      "name": "sellingAmounts",
      "outputs": [
        {
          "internalType": "uint256",
          "name": "",
          "type": "uint256"
        }
      ],
      "stateMutability": "view",
      "type": "function"
    },
    {
      "inputs": [
        {
          "internalType": "uint256",
          "name": "",
          "type": "uint256"
        }
      ],
      "name": "sellingEstimatedUnderlyingAmounts",
      "outputs": [
        {
          "internalType": "uint256",
          "name": "",
          "type": "uint256"
        }
      ],
      "stateMutability": "view",
      "type": "function"
    },
    {
      "inputs": [
        {
          "internalType": "uint256",
          "name": "",
          "type": "uint256"
        }
      ],
      "name": "sellingTokens",
      "outputs": [
        {
          "internalType": "address",
          "name": "",
          "type": "address"
        }
      ],
      "stateMutability": "view",
      "type": "function"
    },
    {
      "inputs": [
        {
          "internalType": "address",
          "name": "asset",
          "type": "address"
        },
        {
          "internalType": "contract IExecutionAdapter",
          "name": "adapter",
          "type": "address"
        }
      ],
      "name": "setExecutionAdapter",
      "outputs": [],
      "stateMutability": "nonpayable",
      "type": "function"
    },
    {
      "inputs": [
        {
          "internalType": "address",
          "name": "_internalStatesOrchestrator",
          "type": "address"
        }
      ],
      "name": "setInternalStatesOrchestrator",
      "outputs": [],
      "stateMutability": "nonpayable",
      "type": "function"
    },
    {
      "inputs": [
        {
          "internalType": "uint256",
          "name": "_targetBufferRatio",
          "type": "uint256"
        }
      ],
      "name": "setTargetBufferRatio",
      "outputs": [],
      "stateMutability": "nonpayable",
      "type": "function"
    },
    {
      "inputs": [],
      "name": "targetBufferRatio",
      "outputs": [
        {
          "internalType": "uint256",
          "name": "",
          "type": "uint256"
        }
      ],
      "stateMutability": "view",
      "type": "function"
    },
    {
      "inputs": [
        {
          "internalType": "uint256",
          "name": "amount",
          "type": "uint256"
        }
      ],
      "name": "transferCuratorFees",
      "outputs": [],
      "stateMutability": "nonpayable",
      "type": "function"
    },
    {
      "inputs": [
        {
          "internalType": "address",
          "name": "newOwner",
          "type": "address"
        }
      ],
      "name": "transferOwnership",
      "outputs": [],
      "stateMutability": "nonpayable",
      "type": "function"
    },
    {
      "inputs": [
        {
          "internalType": "address",
          "name": "user",
          "type": "address"
        },
        {
          "internalType": "uint256",
          "name": "amount",
          "type": "uint256"
        }
      ],
      "name": "transferRedemptionFunds",
      "outputs": [],
      "stateMutability": "nonpayable",
      "type": "function"
    },
    {
      "inputs": [],
      "name": "underlyingAsset",
      "outputs": [
        {
          "internalType": "address",
          "name": "",
          "type": "address"
        }
      ],
      "stateMutability": "view",
      "type": "function"
    },
    {
      "inputs": [
        {
          "internalType": "address",
          "name": "newAutomationRegistry",
          "type": "address"
        }
      ],
      "name": "updateAutomationRegistry",
      "outputs": [],
      "stateMutability": "nonpayable",
      "type": "function"
    },
    {
      "inputs": [
        {
          "internalType": "uint8",
          "name": "_executionMinibatchSize",
          "type": "uint8"
        }
      ],
      "name": "updateExecutionMinibatchSize",
      "outputs": [],
      "stateMutability": "nonpayable",
      "type": "function"
    },
    {
      "inputs": [
        {
          "internalType": "uint8",
          "name": "_minibatchSize",
          "type": "uint8"
        }
      ],
      "name": "updateMinibatchSize",
      "outputs": [],
      "stateMutability": "nonpayable",
      "type": "function"
    },
    {
      "inputs": [
        {
          "internalType": "uint256",
          "name": "assets",
          "type": "uint256"
        },
        {
          "internalType": "address",
          "name": "receiver",
          "type": "address"
        }
      ],
      "name": "withdraw",
      "outputs": [],
      "stateMutability": "nonpayable",
      "type": "function"
    },
    {
      "inputs": [
        {
          "internalType": "uint256",
          "name": "amount",
          "type": "uint256"
        }
      ],
      "name": "withdrawLiquidity",
      "outputs": [],
      "stateMutability": "nonpayable",
      "type": "function"
    }
  ],
  "bytecode": "0x608060405234801561000f575f5ffd5b50604051612ff4380380612ff483398101604081905261002e91610265565b826001600160a01b03811661005c57604051631e4fbdf760e01b81525f600482015260240160405180910390fd5b610065816101ff565b50600180556001600160a01b0382166100915760405163d92e233d60e01b815260040160405180910390fd5b6001600160a01b0381166100b85760405163d92e233d60e01b815260040160405180910390fd5b600380546001600160a01b0319166001600160a01b03841690811790915560408051631c56369f60e21b81529051637158da7c916004808201926020929091908290030181865afa15801561010f573d5f5f3e3d5ffd5b505050506040513d601f19601f8201168201806040525081019061013391906102af565b600580546001600160a01b0319166001600160a01b03928316179055600354604080516303e1469160e61b81529051919092169163f851a4409160048083019260209291908290030181865afa15801561018f573d5f5f3e3d5ffd5b505050506040513d601f19601f820116820180604052508101906101b391906102af565b600680546001600160a01b03199081166001600160a01b0393841617909155600280549091169290911691909117905550506008805465ffffffffffff191663010100001790556102d1565b5f80546001600160a01b038381166001600160a01b0319831681178455604051919092169283917f8be0079c531659141344cd1fd0a4f28419497f9722a3daafe3b4186f6b6457e09190a35050565b6001600160a01b0381168114610262575f5ffd5b50565b5f5f5f60608486031215610277575f5ffd5b83516102828161024e565b60208501519093506102938161024e565b60408501519092506102a48161024e565b809150509250925092565b5f602082840312156102bf575f5ffd5b81516102ca8161024e565b9392505050565b612d16806102de5f395ff3fe608060405234801561000f575f5ffd5b50600436106101ca575f3560e01c8062f714ce146101ce57806301c621c1146101e3578063055ad42e146101f657806309f2e19c146102205780630a861f2a146102405780630a8b78c71461025357806314b5d07f146102665780633369921a14610279578063348ec5c8146102905780633af2a8c0146102a35780633e765a9e146102b65780634585e33b146102c95780634adfc2e7146102dc57806351edffb1146102ef57806352e899fd146103025780635488cd621461031557806357be01c11461033b57806359017aa91461034e5780635dc228a0146103615780635dd17ec314610374578063639bdf5a146103745780636e04ff0d1461037c578063715018a61461039d5780637158da7c146103a5578063741fca4b146103b857806376d58e1a146103cb57806379502c55146103de5780638157c1ab146103f15780638689b2c5146104045780638a0b0d38146104185780638da5cb5b1461042b578063bc50497514610433578063be1b26a414610446578063d3f3506d14610459578063dab26e3b14610481578063e6c3efd91461048a578063ee6713df1461049d578063f2fde38b146104be578063f851a440146104d1575b5f5ffd5b6101e16101dc3660046126e3565b6104e4565b005b6101e16101f1366004612711565b61059c565b60085461020a90600160201b900460ff1681565b604051610217919061273c565b60405180910390f35b61023361022e366004612711565b61066f565b6040516102179190612756565b6101e161024e366004612711565b610697565b6101e161026136600461276a565b61089d565b6101e161027436600461276a565b610918565b61028260105481565b604051908152602001610217565b600454610233906001600160a01b031681565b6101e16102b1366004612711565b610a21565b6102826102c4366004612711565b610b02565b6101e16102d736600461278c565b610b21565b6101e16102ea3660046127f8565b610d39565b6101e16102fd3660046127f8565b610e09565b610282610310366004612711565b610e95565b60085461032990600160281b900460ff1681565b60405160ff9091168152602001610217565b6008546103299062010000900460ff1681565b6101e161035c366004612822565b610ea4565b600254610233906001600160a01b031681565b610329600881565b61038f61038a36600461278c565b610fb8565b60405161021792919061284e565b6101e1611163565b600554610233906001600160a01b031681565b6101e16103c6366004612711565b611176565b6101e16103d9366004612711565b611329565b600354610233906001600160a01b031681565b6102336103ff366004612711565b61148c565b600854610329906301000000900460ff1681565b6101e161042636600461288c565b61149b565b61023361159a565b610282610441366004612711565b6115a8565b610282610454366004612711565b6115b7565b61023361046736600461276a565b60076020525f90815260409020546001600160a01b031681565b61028260095481565b6101e161049836600461288c565b6115c6565b6008546104ab9061ffff1681565b60405161ffff9091168152602001610217565b6101e16104cc36600461276a565b6116c7565b600654610233906001600160a01b031681565b6104ec611701565b60035460405163f764eb4560e01b81526001600160a01b039091169063f764eb459061051c903390600401612756565b602060405180830381865afa158015610537573d5f5f3e3d5ffd5b505050506040513d601f19601f8201168201806040525081019061055b91906128ac565b6105785760405163ea8e4eb560e01b815260040160405180910390fd5b60055461058f906001600160a01b0316828461172b565b61059860018055565b5050565b6006546001600160a01b031633146105c757604051631a27eac360e11b815260040160405180910390fd5b805f036105fd57600554604051636b30633560e01b81526105f4916001600160a01b031690600401612756565b60405180910390fd5b60048054604051637060444560e01b81529182018390526001600160a01b0316906370604445906024015f604051808303815f87803b15801561063e575f5ffd5b505af1158015610650573d5f5f3e3d5ffd5b505060055461066c92506001600160a01b03169050338361172b565b50565b600d818154811061067e575f80fd5b5f918252602090912001546001600160a01b0316905081565b6006546001600160a01b031633146106c257604051631a27eac360e11b815260040160405180910390fd5b805f036106ef57600554604051636b30633560e01b81526105f4916001600160a01b031690600401612756565b5f60048054604080516302ad6a1760e11b815290516001600160a01b039092169263055ad42e9282820192602092908290030181865afa158015610735573d5f5f3e3d5ffd5b505050506040513d601f19601f8201168201806040525081019061075991906128cb565b600481111561076a5761076a612728565b14610788576040516312aecd8160e01b815260040160405180910390fd5b5f60045f9054906101000a90046001600160a01b03166001600160a01b031663c18e2a5c6040518163ffffffff1660e01b8152600401602060405180830381865afa1580156107d9573d5f5f3e3d5ffd5b505050506040513d601f19601f820116820180604052508101906107fd91906128e9565b90508082111561082057604051632ca2f52b60e11b815260040160405180910390fd5b6004546001600160a01b031663e2c4aaec61083a84612914565b6040518263ffffffff1660e01b815260040161085891815260200190565b5f604051808303815f87803b15801561086f575f5ffd5b505af1158015610881573d5f5f3e3d5ffd5b505060055461059892506001600160a01b03169050338461172b565b6108a5611783565b6001600160a01b0381166108cc5760405163d92e233d60e01b815260040160405180910390fd5b6004546001600160a01b0316156108f657604051630ea075bf60e21b815260040160405180910390fd5b600480546001600160a01b0319166001600160a01b0392909216919091179055565b610920611783565b6001600160a01b0381166109475760405163d92e233d60e01b815260040160405180910390fd5b60035f9054906101000a90046001600160a01b03166001600160a01b031663edcf9c1f6040518163ffffffff1660e01b8152600401602060405180830381865afa158015610997573d5f5f3e3d5ffd5b505050506040513d601f19601f820116820180604052508101906109bb91906128ac565b6109d8576040516312aecd8160e01b815260040160405180910390fd5b600280546001600160a01b0319166001600160a01b0383169081179091556040517f6cc7ebdb6c8c53291c5ae16148cab9b049d23bf5bde5632900b40edff56fcb43905f90a250565b610a29611783565b805f03610a49576040516317dbc4cb60e21b815260040160405180910390fd5b6101f4811115610a6c576040516317dbc4cb60e21b815260040160405180910390fd5b60035f9054906101000a90046001600160a01b03166001600160a01b031663edcf9c1f6040518163ffffffff1660e01b8152600401602060405180830381865afa158015610abc573d5f5f3e3d5ffd5b505050506040513d601f19601f82011682018060405250810190610ae091906128ac565b610afd576040516312aecd8160e01b815260040160405180910390fd5b600955565b600f8181548110610b11575f80fd5b5f91825260209091200154905081565b610b2961159a565b6001600160a01b0316336001600160a01b031614158015610b5557506002546001600160a01b03163314155b15610b735760405163ea8e4eb560e01b815260040160405180910390fd5b610b7b611701565b60035f9054906101000a90046001600160a01b03166001600160a01b031663edcf9c1f6040518163ffffffff1660e01b8152600401602060405180830381865afa158015610bcb573d5f5f3e3d5ffd5b505050506040513d601f19601f82011682018060405250810190610bef91906128ac565b8015610c6f57506008546004805460408051630a58ce2d60e11b8152905161ffff909416936001600160a01b03909216926314b19c5a9282820192602092908290030181865afa158015610c45573d5f5f3e3d5ffd5b505050506040513d601f19601f82011682018060405250810190610c69919061292e565b61ffff16115b15610c8157610c7c6117b5565b610d08565b6001600854600160201b900460ff166003811115610ca157610ca1612728565b03610cae57610c7c6119ed565b6002600854600160201b900460ff166003811115610cce57610cce612728565b03610cdb57610c7c611b82565b6003600854600160201b900460ff166003811115610cfb57610cfb612728565b03610d0857610d08611d81565b6040517ff0094b59b7bc92e9fc611b14b5d3a34fe02530ac9bcf36c2c6f10147c3030c12905f90a161059860018055565b600354604051633821dad160e21b81526001600160a01b039091169063e0876b4490610d69903390600401612756565b602060405180830381865afa158015610d84573d5f5f3e3d5ffd5b505050506040513d601f19601f82011682018060405250810190610da891906128ac565b610dc55760405163ea8e4eb560e01b815260040160405180910390fd5b805f03610df257600554604051636b30633560e01b81526105f4916001600160a01b031690600401612756565b600554610598906001600160a01b0316838361172b565b600354604051633821dad160e21b81526001600160a01b039091169063e0876b4490610e39903390600401612756565b602060405180830381865afa158015610e54573d5f5f3e3d5ffd5b505050506040513d601f19601f82011682018060405250810190610e7891906128ac565b610df25760405163ea8e4eb560e01b815260040160405180910390fd5b600c8181548110610b11575f80fd5b6003546001600160a01b03163314610ecf5760405163ea8e4eb560e01b815260040160405180910390fd5b6001600160a01b0382161580610eec57506001600160a01b038116155b15610f0a5760405163d92e233d60e01b815260040160405180910390fd5b604051631ed3e4fb60e11b81526001600160a01b03821690633da7c9f690610f36908590600401612756565b5f6040518083038186803b158015610f4c575f5ffd5b505afa158015610f5e573d5f5f3e3d5ffd5b505050506001600160a01b038281165f8181526007602052604080822080546001600160a01b0319169486169485179055517f2f2727c7b3d9ee55de5c114f0cb7997ac7251a4cbfca4f2b2dc6969d86cce4f49190a35050565b5f606060035f9054906101000a90046001600160a01b03166001600160a01b031663edcf9c1f6040518163ffffffff1660e01b8152600401602060405180830381865afa15801561100b573d5f5f3e3d5ffd5b505050506040513d601f19601f8201168201806040525081019061102f91906128ac565b80156110af57506008546004805460408051630a58ce2d60e11b8152905161ffff909416936001600160a01b03909216926314b19c5a9282820192602092908290030181865afa158015611085573d5f5f3e3d5ffd5b505050506040513d601f19601f820116820180604052508101906110a9919061292e565b61ffff16115b156110bd576001915061114b565b6001600854600160201b900460ff1660038111156110dd576110dd612728565b036110eb576001915061114b565b6002600854600160201b900460ff16600381111561110b5761110b612728565b03611119576001915061114b565b6003600854600160201b900460ff16600381111561113957611139612728565b03611147576001915061114b565b5f91505b60405180602001604052805f81525090509250929050565b61116b611783565b6111745f6120e3565b565b600354604051633821dad160e21b815233916001600160a01b03169063e0876b44906111a6908490600401612756565b602060405180830381865afa1580156111c1573d5f5f3e3d5ffd5b505050506040513d601f19601f820116820180604052508101906111e591906128ac565b15801561125e575060035460405163f764eb4560e01b81526001600160a01b039091169063f764eb459061121d908490600401612756565b602060405180830381865afa158015611238573d5f5f3e3d5ffd5b505050506040513d601f19601f8201168201806040525081019061125c91906128ac565b155b1561127c5760405163ea8e4eb560e01b815260040160405180910390fd5b815f036112a957600554604051636b30633560e01b81526105f4916001600160a01b031690600401612756565b5f816001600160a01b0316631f52692b6040518163ffffffff1660e01b8152600401602060405180830381865afa1580156112e6573d5f5f3e3d5ffd5b505050506040513d601f19601f8201168201806040525081019061130a919061294f565b600554909150611324906001600160a01b0316828561172b565b505050565b6006546001600160a01b0316331461135457604051631a27eac360e11b815260040160405180910390fd5b805f0361138157600554604051636b30633560e01b81526105f4916001600160a01b031690600401612756565b5f60048054604080516302ad6a1760e11b815290516001600160a01b039092169263055ad42e9282820192602092908290030181865afa1580156113c7573d5f5f3e3d5ffd5b505050506040513d601f19601f820116820180604052508101906113eb91906128cb565b60048111156113fc576113fc612728565b1461141a576040516312aecd8160e01b815260040160405180910390fd5b600554611432906001600160a01b0316333084612132565b600480546040516338b12abb60e21b81529182018390526001600160a01b03169063e2c4aaec906024015f604051808303815f87803b158015611473575f5ffd5b505af1158015611485573d5f5f3e3d5ffd5b5050505050565b600a818154811061067e575f80fd5b6114a3611783565b8060ff165f036114c6576040516317dbc4cb60e21b815260040160405180910390fd5b600860ff821611156114eb576040516317dbc4cb60e21b815260040160405180910390fd5b60035f9054906101000a90046001600160a01b03166001600160a01b031663edcf9c1f6040518163ffffffff1660e01b8152600401602060405180830381865afa15801561153b573d5f5f3e3d5ffd5b505050506040513d601f19601f8201168201806040525081019061155f91906128ac565b61157c576040516312aecd8160e01b815260040160405180910390fd5b6008805460ff909216620100000262ff000019909216919091179055565b5f546001600160a01b031690565b600e8181548110610b11575f80fd5b600b8181548110610b11575f80fd5b6115ce611783565b8060ff165f036115f1576040516317dbc4cb60e21b815260040160405180910390fd5b600860ff82161115611616576040516317dbc4cb60e21b815260040160405180910390fd5b60035f9054906101000a90046001600160a01b03166001600160a01b031663edcf9c1f6040518163ffffffff1660e01b8152600401602060405180830381865afa158015611666573d5f5f3e3d5ffd5b505050506040513d601f19601f8201168201806040525081019061168a91906128ac565b6116a7576040516312aecd8160e01b815260040160405180910390fd5b6008805460ff90921663010000000263ff00000019909216919091179055565b6116cf611783565b6001600160a01b0381166116f8575f604051631e4fbdf760e01b81526004016105f49190612756565b61066c816120e3565b60026001540361172457604051633ee5aeb560e01b815260040160405180910390fd5b6002600155565b61132483846001600160a01b031663a9059cbb858560405160240161175192919061296a565b604051602081830303815290604052915060e01b6020820180516001600160e01b03838183161783525050505061216b565b3361178c61159a565b6001600160a01b031614611174573360405163118cdaa760e01b81526004016105f49190612756565b5f60045f9054906101000a90046001600160a01b03166001600160a01b03166314b19c5a6040518163ffffffff1660e01b8152600401602060405180830381865afa158015611806573d5f5f3e3d5ffd5b505050506040513d601f19601f8201168201806040525081019061182a919061292e565b60085490915061183f9061ffff166001612983565b61ffff168161ffff1610156118515750565b6008805461ffff191661ffff831617905561186d600a5f612604565b611878600b5f612604565b611883600d5f612604565b61188e600e5f612604565b611899600c5f612604565b6118a4600f5f612604565b5f60108190556004805460408051631716e21f60e11b815290516001600160a01b0390921693632e2dc43e938281019391928290030181865afa1580156118ed573d5f5f3e3d5ffd5b505050506040513d5f823e601f3d908101601f191682016040526119149190810190612ad1565b600a5f600b5f600d5f600e5f600c5f600f5f8c919050908051906020019061193d92919061261f565b50508a51611950919060208d019061261f565b50508951611963919060208c019061261f565b50508851611976919060208b0190612668565b50508751611989919060208a019061261f565b5050865161199c91906020890190612668565b50506008805460ff60201b1916600160201b1790555050600a545f03925061066c915050576008805460ff60201b1916600160211b179055600d545f0361066c57506008805460ff60201b19169055565b6001600854600160201b900460ff166003811115611a0d57611a0d612728565b14611a2b5760405163baf3f0f760e01b815260040160405180910390fd5b6008545f90611a4c9060ff620100008204811691600160281b900416612be1565b60085460ff91821692505f91611a69916201000090041683612983565b90506008600581819054906101000a900460ff16611a8690612c04565b91906101000a81548160ff021916908360ff160217905550600a805490508161ffff161180611aba5750600a5461ffff8216145b15611ad85750600a546008805461ffff60201b1916600160211b1790555b815b8161ffff168161ffff161015611324575f600a8261ffff1681548110611b0257611b02612c22565b5f918252602090912001546005546001600160a01b039182169250168103611b2a5750611b7a565b5f600b8361ffff1681548110611b4257611b42612c22565b905f5260205f2001549050611b778282600c8661ffff1681548110611b6957611b69612c22565b905f5260205f2001546121ce565b50505b600101611ada565b6002600854600160201b900460ff166003811115611ba257611ba2612728565b14611bc05760405163baf3f0f760e01b815260040160405180910390fd5b6008545f90611be19060ff620100008204811691600160281b900416612be1565b60085460ff91821692505f91611bfe916201000090041683612983565b90506008600581819054906101000a900460ff16611c1b90612c04565b91906101000a81548160ff021916908360ff160217905550600d805490508161ffff161180611c4f5750600d5461ffff8216145b15611c6d5750600d546008805461ffff60201b1916600360201b1790555b815b8161ffff168161ffff161015611d17575f600d8261ffff1681548110611c9757611c97612c22565b5f918252602090912001546005546001600160a01b039182169250168103611cbf5750611d0f565b5f600e8361ffff1681548110611cd757611cd7612c22565b905f5260205f2001549050611d0c8282600f8661ffff1681548110611cfe57611cfe612c22565b905f5260205f2001546122b2565b50505b600101611c6f565b50600d5461ffff82160361059857600480546010546040516338b12abb60e21b8152928301526001600160a01b03169063e2c4aaec906024015f604051808303815f87803b158015611d67575f5ffd5b505af1158015611d79573d5f5f3e3d5ffd5b505050505050565b6003600854600160201b900460ff166003811115611da157611da1612728565b14611dbf5760405163baf3f0f760e01b815260040160405180910390fd5b600354604051631da09e4360e31b81525f916001600160a01b03169063ed04f21890611def908490600401612c36565b5f60405180830381865afa158015611e09573d5f5f3e3d5ffd5b505050506040513d5f823e601f3d908101601f19168201604052611e309190810190612c4a565b6008549091505f90611e559060ff63010000008204811691600160281b900416612be1565b60085460ff91821692505f91611e7391630100000090041683612983565b90506008600581819054906101000a900460ff16611e9090612c04565b91906101000a81548160ff021916908360ff16021790555082518161ffff161180611ebf575082518161ffff16145b15611ed6575081516008805461ffff60201b191690555b815b8161ffff168161ffff1610156120dd575f848261ffff1681518110611eff57611eff612c22565b6020908102919091010151600480546040516309958e4960e11b81529293505f926001600160a01b039091169163132b1c9291611f3e91869101612756565b602060405180830381865afa158015611f59573d5f5f3e3d5ffd5b505050506040513d601f19601f82011682018060405250810190611f7d91906128e9565b6004805460405163e2638ff160e01b81529293505f926001600160a01b039091169163e2638ff191611fb191879101612756565b602060405180830381865afa158015611fcc573d5f5f3e3d5ffd5b505050506040513d601f19601f82011682018060405250810190611ff091906128e9565b9050611ffd8383836123a0565b60035460405163d11f1c3560e01b81526001600160a01b039091169063d11f1c359061202d908690600401612756565b602060405180830381865afa158015612048573d5f5f3e3d5ffd5b505050506040513d601f19601f8201168201806040525081019061206c91906128ac565b156120cf5760035460405163e8ffccb760e01b81526001600160a01b039091169063e8ffccb7906120a1908690600401612756565b5f604051808303815f87803b1580156120b8575f5ffd5b505af11580156120ca573d5f5f3e3d5ffd5b505050505b505050806001019050611ed8565b50505050565b5f80546001600160a01b038381166001600160a01b0319831681178455604051919092169283917f8be0079c531659141344cd1fd0a4f28419497f9722a3daafe3b4186f6b6457e09190a35050565b6040516001600160a01b0384811660248301528381166044830152606482018390526120dd9186918216906323b872dd90608401611751565b5f5f60205f8451602086015f885af18061218a576040513d5f823e3d81fd5b50505f513d915081156121a15780600114156121ae565b6001600160a01b0384163b155b156120dd5783604051635274afe760e01b81526004016105f49190612756565b6001600160a01b038084165f90815260076020526040902054168061220657604051635048c2af60e11b815260040160405180910390fd5b61221a6001600160a01b0385168285612529565b604051636c197ff560e01b81525f906001600160a01b03831690636c197ff59061224a908890889060040161296a565b6020604051808303815f875af1158015612266573d5f5f3e3d5ffd5b505050506040513d601f19601f8201168201806040525081019061228a91906128e9565b90506122968382612c83565b60105f8282546122a69190612ca2565b90915550505050505050565b6001600160a01b038084165f9081526007602052604090205416806122ea57604051635048c2af60e11b815260040160405180910390fd5b61230c816122f9846002612cc9565b6005546001600160a01b03169190612529565b60405163cce7ec1360e01b81525f906001600160a01b0383169063cce7ec139061233c908890889060040161296a565b6020604051808303815f875af1158015612358573d5f5f3e3d5ffd5b505050506040513d601f19601f8201168201806040525081019061237c91906128e9565b600554909150612396906001600160a01b0316835f612529565b6122968184612c83565b5f8390505f816001600160a01b031663f64c6f326040518163ffffffff1660e01b8152600401602060405180830381865afa1580156123e1573d5f5f3e3d5ffd5b505050506040513d601f19601f8201168201806040525081019061240591906128e9565b90505f826001600160a01b0316630a605c6d6040518163ffffffff1660e01b8152600401602060405180830381865afa158015612444573d5f5f3e3d5ffd5b505050506040513d601f19601f8201168201806040525081019061246891906128e9565b905081156124c65760405163e5e9719360e01b8152600481018690526001600160a01b0384169063e5e97193906024015f604051808303815f87803b1580156124af575f5ffd5b505af11580156124c1573d5f5f3e3d5ffd5b505050505b8015611d795760405163493a6e2160e01b8152600481018590526001600160a01b0384169063493a6e21906024015f604051808303815f87803b15801561250b575f5ffd5b505af115801561251d573d5f5f3e3d5ffd5b50505050505050505050565b5f836001600160a01b031663095ea7b3848460405160240161254c92919061296a565b604051602081830303815290604052915060e01b6020820180516001600160e01b038381831617835250505050905061258584826125b9565b6120dd576125af84856001600160a01b031663095ea7b3865f60405160240161175192919061296a565b6120dd848261216b565b5f5f5f5f60205f8651602088015f8a5af192503d91505f5190508280156125f8575081156125ea57806001146125f8565b5f866001600160a01b03163b115b93505050505b92915050565b5080545f8255905f5260205f209081019061066c91906126bb565b828054828255905f5260205f20908101928215612658579160200282015b8281111561265857825182559160200191906001019061263d565b506126649291506126bb565b5090565b828054828255905f5260205f20908101928215612658579160200282015b8281111561265857825182546001600160a01b0319166001600160a01b03909116178255602090920191600190910190612686565b5b80821115612664575f81556001016126bc565b6001600160a01b038116811461066c575f5ffd5b5f5f604083850312156126f4575f5ffd5b823591506020830135612706816126cf565b809150509250929050565b5f60208284031215612721575f5ffd5b5035919050565b634e487b7160e01b5f52602160045260245ffd5b602081016004831061275057612750612728565b91905290565b6001600160a01b0391909116815260200190565b5f6020828403121561277a575f5ffd5b8135612785816126cf565b9392505050565b5f5f6020838503121561279d575f5ffd5b82356001600160401b038111156127b2575f5ffd5b8301601f810185136127c2575f5ffd5b80356001600160401b038111156127d7575f5ffd5b8560208284010111156127e8575f5ffd5b6020919091019590945092505050565b5f5f60408385031215612809575f5ffd5b8235612814816126cf565b946020939093013593505050565b5f5f60408385031215612833575f5ffd5b823561283e816126cf565b91506020830135612706816126cf565b8215158152604060208201525f82518060408401528060208501606085015e5f606082850101526060601f19601f8301168401019150509392505050565b5f6020828403121561289c575f5ffd5b813560ff81168114612785575f5ffd5b5f602082840312156128bc575f5ffd5b81518015158114612785575f5ffd5b5f602082840312156128db575f5ffd5b815160058110612785575f5ffd5b5f602082840312156128f9575f5ffd5b5051919050565b634e487b7160e01b5f52601160045260245ffd5b5f600160ff1b820161292857612928612900565b505f0390565b5f6020828403121561293e575f5ffd5b815161ffff81168114612785575f5ffd5b5f6020828403121561295f575f5ffd5b8151612785816126cf565b6001600160a01b03929092168252602082015260400190565b61ffff81811683821601908111156125fe576125fe612900565b634e487b7160e01b5f52604160045260245ffd5b604051601f8201601f191681016001600160401b03811182821017156129d9576129d961299d565b604052919050565b5f6001600160401b038211156129f9576129f961299d565b5060051b60200190565b5f82601f830112612a12575f5ffd5b8151612a25612a20826129e1565b6129b1565b8082825260208201915060208360051b860101925085831115612a46575f5ffd5b602085015b83811015612a6c578051612a5e816126cf565b835260209283019201612a4b565b5095945050505050565b5f82601f830112612a85575f5ffd5b8151612a93612a20826129e1565b8082825260208201915060208360051b860101925085831115612ab4575f5ffd5b602085015b83811015612a6c578051835260209283019201612ab9565b5f5f5f5f5f5f60c08789031215612ae6575f5ffd5b86516001600160401b03811115612afb575f5ffd5b612b0789828a01612a03565b602089015190975090506001600160401b03811115612b24575f5ffd5b612b3089828a01612a76565b604089015190965090506001600160401b03811115612b4d575f5ffd5b612b5989828a01612a03565b606089015190955090506001600160401b03811115612b76575f5ffd5b612b8289828a01612a76565b608089015190945090506001600160401b03811115612b9f575f5ffd5b612bab89828a01612a76565b60a089015190935090506001600160401b03811115612bc8575f5ffd5b612bd489828a01612a76565b9150509295509295509295565b60ff8181168382160290811690818114612bfd57612bfd612900565b5092915050565b5f60ff821660ff8103612c1957612c19612900565b60010192915050565b634e487b7160e01b5f52603260045260245ffd5b602081016002831061275057612750612728565b5f60208284031215612c5a575f5ffd5b81516001600160401b03811115612c6f575f5ffd5b612c7b84828501612a03565b949350505050565b8181035f831280158383131683831282161715612bfd57612bfd612900565b8082018281125f831280158216821582161715612cc157612cc1612900565b505092915050565b80820281158282048414176125fe576125fe61290056fea2646970667358221220ba1aba56f576fadcc5bae7804e77a122e0e023791bf56dcc42cb5347db7dfe1a64736f6c634300081c0033",
  "linkReferences": {},
  "deployedLinkReferences": {}
}