{
  "_format": "hh-sol-artifact-1",
  "contractName": "LiquidityOrchestrator",
  "sourceName": "contracts/orchestrators/LiquidityOrchestrator.sol",
  "abi": [
    {
      "inputs": [
        {
          "internalType": "address",
          "name": "initialOwner",
          "type": "address"
        },
        {
          "internalType": "address",
          "name": "config_",
          "type": "address"
        },
        {
          "internalType": "address",
          "name": "automationRegistry_",
          "type": "address"
        }
      ],
      "stateMutability": "nonpayable",
      "type": "constructor"
    },
    {
      "inputs": [],
      "name": "AdapterNotSet",
      "type": "error"
    },
    {
      "inputs": [],
      "name": "AlreadyRegistered",
      "type": "error"
    },
    {
      "inputs": [
        {
          "internalType": "address",
          "name": "asset",
          "type": "address"
        }
      ],
      "name": "AmountMustBeGreaterThanZero",
      "type": "error"
    },
    {
      "inputs": [],
      "name": "EnforcedPause",
      "type": "error"
    },
    {
      "inputs": [],
      "name": "ExpectedPause",
      "type": "error"
    },
    {
      "inputs": [],
      "name": "InsufficientAmount",
      "type": "error"
    },
    {
      "inputs": [],
      "name": "InvalidArguments",
      "type": "error"
    },
    {
      "inputs": [],
      "name": "NotAuthorized",
      "type": "error"
    },
    {
      "inputs": [
        {
          "internalType": "address",
          "name": "owner",
          "type": "address"
        }
      ],
      "name": "OwnableInvalidOwner",
      "type": "error"
    },
    {
      "inputs": [
        {
          "internalType": "address",
          "name": "account",
          "type": "address"
        }
      ],
      "name": "OwnableUnauthorizedAccount",
      "type": "error"
    },
    {
      "inputs": [],
      "name": "ReentrancyGuardReentrantCall",
      "type": "error"
    },
    {
      "inputs": [
        {
          "internalType": "address",
          "name": "token",
          "type": "address"
        }
      ],
      "name": "SafeERC20FailedOperation",
      "type": "error"
    },
    {
      "inputs": [],
      "name": "SystemNotIdle",
      "type": "error"
    },
    {
      "inputs": [],
      "name": "ZeroAddress",
      "type": "error"
    },
    {
      "anonymous": false,
      "inputs": [
        {
          "indexed": true,
          "internalType": "address",
          "name": "newAutomationRegistry",
          "type": "address"
        }
      ],
      "name": "AutomationRegistryUpdated",
      "type": "event"
    },
    {
      "anonymous": false,
      "inputs": [
        {
          "indexed": true,
          "internalType": "address",
          "name": "asset",
          "type": "address"
        },
        {
          "indexed": true,
          "internalType": "address",
          "name": "adapter",
          "type": "address"
        }
      ],
      "name": "ExecutionAdapterSet",
      "type": "event"
    },
    {
      "anonymous": false,
      "inputs": [
        {
          "indexed": true,
          "internalType": "address",
          "name": "previousOwner",
          "type": "address"
        },
        {
          "indexed": true,
          "internalType": "address",
          "name": "newOwner",
          "type": "address"
        }
      ],
      "name": "OwnershipTransferStarted",
      "type": "event"
    },
    {
      "anonymous": false,
      "inputs": [
        {
          "indexed": true,
          "internalType": "address",
          "name": "previousOwner",
          "type": "address"
        },
        {
          "indexed": true,
          "internalType": "address",
          "name": "newOwner",
          "type": "address"
        }
      ],
      "name": "OwnershipTransferred",
      "type": "event"
    },
    {
      "anonymous": false,
      "inputs": [
        {
          "indexed": false,
          "internalType": "address",
          "name": "account",
          "type": "address"
        }
      ],
      "name": "Paused",
      "type": "event"
    },
    {
      "anonymous": false,
      "inputs": [],
      "name": "PortfolioRebalanced",
      "type": "event"
    },
    {
      "anonymous": false,
      "inputs": [
        {
          "indexed": false,
          "internalType": "address",
          "name": "account",
          "type": "address"
        }
      ],
      "name": "Unpaused",
      "type": "event"
    },
    {
      "inputs": [],
      "name": "MAX_MINIBATCH_SIZE",
      "outputs": [
        {
          "internalType": "uint8",
          "name": "",
          "type": "uint8"
        }
      ],
      "stateMutability": "view",
      "type": "function"
    },
    {
      "inputs": [],
      "name": "acceptOwnership",
      "outputs": [],
      "stateMutability": "nonpayable",
      "type": "function"
    },
    {
      "inputs": [],
      "name": "admin",
      "outputs": [
        {
          "internalType": "address",
          "name": "",
          "type": "address"
        }
      ],
      "stateMutability": "view",
      "type": "function"
    },
    {
      "inputs": [],
      "name": "advanceIdlePhase",
      "outputs": [],
      "stateMutability": "nonpayable",
      "type": "function"
    },
    {
      "inputs": [],
      "name": "automationRegistry",
      "outputs": [
        {
          "internalType": "address",
          "name": "",
          "type": "address"
        }
      ],
      "stateMutability": "view",
      "type": "function"
    },
    {
      "inputs": [
        {
          "internalType": "bytes",
          "name": "",
          "type": "bytes"
        }
      ],
      "name": "checkUpkeep",
      "outputs": [
        {
          "internalType": "bool",
          "name": "upkeepNeeded",
          "type": "bool"
        },
        {
          "internalType": "bytes",
          "name": "performData",
          "type": "bytes"
        }
      ],
      "stateMutability": "view",
      "type": "function"
    },
    {
      "inputs": [
        {
          "internalType": "uint256",
          "name": "amount",
          "type": "uint256"
        }
      ],
      "name": "claimProtocolFees",
      "outputs": [],
      "stateMutability": "nonpayable",
      "type": "function"
    },
    {
      "inputs": [],
      "name": "config",
      "outputs": [
        {
          "internalType": "contract IOrionConfig",
          "name": "",
          "type": "address"
        }
      ],
      "stateMutability": "view",
      "type": "function"
    },
    {
      "inputs": [],
      "name": "currentMinibatchIndex",
      "outputs": [
        {
          "internalType": "uint8",
          "name": "",
          "type": "uint8"
        }
      ],
      "stateMutability": "view",
      "type": "function"
    },
    {
      "inputs": [],
      "name": "currentPhase",
      "outputs": [
        {
          "internalType": "enum ILiquidityOrchestrator.LiquidityUpkeepPhase",
          "name": "",
          "type": "uint8"
        }
      ],
      "stateMutability": "view",
      "type": "function"
    },
    {
      "inputs": [],
      "name": "deltaBufferAmount",
      "outputs": [
        {
          "internalType": "int256",
          "name": "",
          "type": "int256"
        }
      ],
      "stateMutability": "view",
      "type": "function"
    },
    {
      "inputs": [
        {
          "internalType": "uint256",
          "name": "amount",
          "type": "uint256"
        }
      ],
      "name": "depositLiquidity",
      "outputs": [],
      "stateMutability": "nonpayable",
      "type": "function"
    },
    {
      "inputs": [
        {
          "internalType": "address",
          "name": "",
          "type": "address"
        }
      ],
      "name": "executionAdapterOf",
      "outputs": [
        {
          "internalType": "contract IExecutionAdapter",
          "name": "",
          "type": "address"
        }
      ],
      "stateMutability": "view",
      "type": "function"
    },
    {
      "inputs": [],
      "name": "internalStatesOrchestrator",
      "outputs": [
        {
          "internalType": "contract IInternalStateOrchestrator",
          "name": "",
          "type": "address"
        }
      ],
      "stateMutability": "view",
      "type": "function"
    },
    {
      "inputs": [],
      "name": "minibatchSize",
      "outputs": [
        {
          "internalType": "uint8",
          "name": "",
          "type": "uint8"
        }
      ],
      "stateMutability": "view",
      "type": "function"
    },
    {
      "inputs": [],
      "name": "owner",
      "outputs": [
        {
          "internalType": "address",
          "name": "",
          "type": "address"
        }
      ],
      "stateMutability": "view",
      "type": "function"
    },
    {
      "inputs": [],
      "name": "pause",
      "outputs": [],
      "stateMutability": "nonpayable",
      "type": "function"
    },
    {
      "inputs": [],
      "name": "paused",
      "outputs": [
        {
          "internalType": "bool",
          "name": "",
          "type": "bool"
        }
      ],
      "stateMutability": "view",
      "type": "function"
    },
    {
      "inputs": [],
      "name": "pendingOwner",
      "outputs": [
        {
          "internalType": "address",
          "name": "",
          "type": "address"
        }
      ],
      "stateMutability": "view",
      "type": "function"
    },
    {
      "inputs": [
        {
          "internalType": "bytes",
          "name": "",
          "type": "bytes"
        }
      ],
      "name": "performUpkeep",
      "outputs": [],
      "stateMutability": "nonpayable",
      "type": "function"
    },
    {
      "inputs": [],
      "name": "renounceOwnership",
      "outputs": [],
      "stateMutability": "nonpayable",
      "type": "function"
    },
    {
      "inputs": [
        {
          "internalType": "address",
          "name": "user",
          "type": "address"
        },
        {
          "internalType": "uint256",
          "name": "amount",
          "type": "uint256"
        }
      ],
      "name": "returnDepositFunds",
      "outputs": [],
      "stateMutability": "nonpayable",
      "type": "function"
    },
    {
      "inputs": [
        {
          "internalType": "address",
          "name": "asset",
          "type": "address"
        },
        {
          "internalType": "contract IExecutionAdapter",
          "name": "adapter",
          "type": "address"
        }
      ],
      "name": "setExecutionAdapter",
      "outputs": [],
      "stateMutability": "nonpayable",
      "type": "function"
    },
    {
      "inputs": [
        {
          "internalType": "address",
          "name": "_internalStatesOrchestrator",
          "type": "address"
        }
      ],
      "name": "setInternalStatesOrchestrator",
      "outputs": [],
      "stateMutability": "nonpayable",
      "type": "function"
    },
    {
      "inputs": [
        {
          "internalType": "uint256",
          "name": "_targetBufferRatio",
          "type": "uint256"
        }
      ],
      "name": "setTargetBufferRatio",
      "outputs": [],
      "stateMutability": "nonpayable",
      "type": "function"
    },
    {
      "inputs": [],
      "name": "slippageTolerance",
      "outputs": [
        {
          "internalType": "uint256",
          "name": "",
          "type": "uint256"
        }
      ],
      "stateMutability": "view",
      "type": "function"
    },
    {
      "inputs": [],
      "name": "targetBufferRatio",
      "outputs": [
        {
          "internalType": "uint256",
          "name": "",
          "type": "uint256"
        }
      ],
      "stateMutability": "view",
      "type": "function"
    },
    {
      "inputs": [
        {
          "internalType": "uint256",
          "name": "amount",
          "type": "uint256"
        }
      ],
      "name": "transferCuratorFees",
      "outputs": [],
      "stateMutability": "nonpayable",
      "type": "function"
    },
    {
      "inputs": [
        {
          "internalType": "address",
          "name": "newOwner",
          "type": "address"
        }
      ],
      "name": "transferOwnership",
      "outputs": [],
      "stateMutability": "nonpayable",
      "type": "function"
    },
    {
      "inputs": [
        {
          "internalType": "address",
          "name": "user",
          "type": "address"
        },
        {
          "internalType": "uint256",
          "name": "amount",
          "type": "uint256"
        }
      ],
      "name": "transferRedemptionFunds",
      "outputs": [],
      "stateMutability": "nonpayable",
      "type": "function"
    },
    {
      "inputs": [],
      "name": "underlyingAsset",
      "outputs": [
        {
          "internalType": "address",
          "name": "",
          "type": "address"
        }
      ],
      "stateMutability": "view",
      "type": "function"
    },
    {
      "inputs": [],
      "name": "unpause",
      "outputs": [],
      "stateMutability": "nonpayable",
      "type": "function"
    },
    {
      "inputs": [
        {
          "internalType": "address",
          "name": "newAutomationRegistry",
          "type": "address"
        }
      ],
      "name": "updateAutomationRegistry",
      "outputs": [],
      "stateMutability": "nonpayable",
      "type": "function"
    },
    {
      "inputs": [
        {
          "internalType": "uint8",
          "name": "_minibatchSize",
          "type": "uint8"
        }
      ],
      "name": "updateMinibatchSize",
      "outputs": [],
      "stateMutability": "nonpayable",
      "type": "function"
    },
    {
      "inputs": [
        {
          "internalType": "uint256",
          "name": "assets",
          "type": "uint256"
        },
        {
          "internalType": "address",
          "name": "receiver",
          "type": "address"
        }
      ],
      "name": "withdraw",
      "outputs": [],
      "stateMutability": "nonpayable",
      "type": "function"
    },
    {
      "inputs": [
        {
          "internalType": "uint256",
          "name": "amount",
          "type": "uint256"
        }
      ],
      "name": "withdrawLiquidity",
      "outputs": [],
      "stateMutability": "nonpayable",
      "type": "function"
    }
  ],
  "bytecode": "0x608060405234801561000f575f5ffd5b50604051612bf3380380612bf383398101604081905261002e91610282565b826001600160a01b03811661005c57604051631e4fbdf760e01b81525f600482015260240160405180910390fd5b61006581610203565b5060016002556001600160a01b0382166100925760405163d92e233d60e01b815260040160405180910390fd5b6001600160a01b0381166100b95760405163d92e233d60e01b815260040160405180910390fd5b600480546001600160a01b0319166001600160a01b038416908117825560408051631c56369f60e21b815290519192637158da7c9282820192602092908290030181865afa15801561010d573d5f5f3e3d5ffd5b505050506040513d601f19601f8201168201806040525081019061013191906102cc565b600680546001600160a01b0319166001600160a01b0392831617905560048054604080516303e1469160e61b81529051919093169263f851a44092818101926020929091908290030181865afa15801561018d573d5f5f3e3d5ffd5b505050506040513d601f19601f820116820180604052508101906101b191906102cc565b600780546001600160a01b0319166001600160a01b0392831617905560038054610100600160a81b031916610100939092169290920217905550506009805461ffff191660011790555f600b556102ee565b600180546001600160a01b031916905561021c8161021f565b50565b5f80546001600160a01b038381166001600160a01b0319831681178455604051919092169283917f8be0079c531659141344cd1fd0a4f28419497f9722a3daafe3b4186f6b6457e09190a35050565b6001600160a01b038116811461021c575f5ffd5b5f5f5f60608486031215610294575f5ffd5b835161029f8161026e565b60208501519093506102b08161026e565b60408501519092506102c18161026e565b809150509250925092565b5f602082840312156102dc575f5ffd5b81516102e78161026e565b9392505050565b6128f8806102fb5f395ff3fe608060405234801561000f575f5ffd5b50600436106101a9575f3560e01c8062f714ce146101ad57806301c621c1146101c2578063055ad42e146101d55780630a861f2a146101fd5780630a8b78c71461021057806314b5d07f146102235780633369921a14610236578063348ec5c81461024d5780633af2a8c01461026d5780633f4ba83a146102805780634585e33b146102885780634adfc2e71461029b57806351edffb1146102ae5780635488cd62146102c157806359017aa9146102e65780635c975abb146102f95780635dc228a01461030f5780635dd17ec3146103275780636e04ff0d1461032f578063715018a6146103505780637158da7c14610358578063741fca4b1461036b57806376d58e1a1461037e57806379502c551461039157806379ba5097146103a45780638456cb59146103ac5780638689b2c5146103b45780638da5cb5b146103c1578063d03153aa146103c9578063d3f3506d146103d2578063dab26e3b146103fa578063e30c397814610403578063e5c42fb31461040b578063e6c3efd914610413578063f2fde38b14610426578063f851a44014610439575b5f5ffd5b6101c06101bb36600461231e565b61044c565b005b6101c06101d036600461234c565b610504565b6009546101e790610100900460ff1681565b6040516101f49190612377565b60405180910390f35b6101c061020b36600461234c565b6105d9565b6101c061021e366004612391565b6107d6565b6101c0610231366004612391565b610851565b61023f600c5481565b6040519081526020016101f4565b600554610260906001600160a01b031681565b6040516101f491906123b3565b6101c061027b36600461234c565b610957565b6101c0610a43565b6101c06102963660046123c7565b610a78565b6101c06102a9366004612433565b610bfa565b6101c06102bc366004612433565b610cc9565b6009546102d49062010000900460ff1681565b60405160ff90911681526020016101f4565b6101c06102f436600461245d565b610d54565b60035460ff1660405190151581526020016101f4565b6003546102609061010090046001600160a01b031681565b6102d4600881565b61034261033d3660046123c7565b610e68565b6040516101f4929190612489565b6101c0610f0b565b600654610260906001600160a01b031681565b6101c061037936600461234c565b610f1c565b6101c061038c36600461234c565b6110cf565b600454610260906001600160a01b031681565b6101c0611235565b6101c0611271565b6009546102d49060ff1681565b6102606112a4565b61023f600b5481565b6102606103e0366004612391565b60086020525f90815260409020546001600160a01b031681565b61023f600a5481565b6102606112b2565b6101c06112c1565b6101c06104213660046124c7565b6112fd565b6101c0610434366004612391565b6113e9565b600754610260906001600160a01b031681565b61045461144f565b6004805460405163f764eb4560e01b81526001600160a01b039091169163f764eb4591610483913391016123b3565b602060405180830381865afa15801561049e573d5f5f3e3d5ffd5b505050506040513d601f19601f820116820180604052508101906104c291906124e7565b6104df5760405163ea8e4eb560e01b815260040160405180910390fd5b6006546104f6906001600160a01b03168284611477565b6105006001600255565b5050565b6007546001600160a01b0316331461052f5760405163ea8e4eb560e01b815260040160405180910390fd5b805f0361056557600654604051636b30633560e01b815261055c916001600160a01b0316906004016123b3565b60405180910390fd5b600554604051637060444560e01b8152600481018390526001600160a01b03909116906370604445906024015f604051808303815f87803b1580156105a8575f5ffd5b505af11580156105ba573d5f5f3e3d5ffd5b50506006546105d692506001600160a01b031690503383611477565b50565b6007546001600160a01b031633146106045760405163ea8e4eb560e01b815260040160405180910390fd5b805f0361063157600654604051636b30633560e01b815261055c916001600160a01b0316906004016123b3565b600554604080516302ad6a1760e11b815290515f926001600160a01b03169163055ad42e9160048083019260209291908290030181865afa158015610678573d5f5f3e3d5ffd5b505050506040513d601f19601f8201168201806040525081019061069c9190612506565b60048111156106ad576106ad612363565b146106cb576040516312aecd8160e01b815260040160405180910390fd5b600554604080516330638a9760e21b815290515f926001600160a01b03169163c18e2a5c9160048083019260209291908290030181865afa158015610712573d5f5f3e3d5ffd5b505050506040513d601f19601f820116820180604052508101906107369190612524565b90508082111561075957604051632ca2f52b60e11b815260040160405180910390fd5b6005546001600160a01b031663e2c4aaec6107738461254f565b6040518263ffffffff1660e01b815260040161079191815260200190565b5f604051808303815f87803b1580156107a8575f5ffd5b505af11580156107ba573d5f5f3e3d5ffd5b505060065461050092506001600160a01b031690503384611477565b6107de6114cf565b6001600160a01b0381166108055760405163d92e233d60e01b815260040160405180910390fd5b6005546001600160a01b03161561082f57604051630ea075bf60e21b815260040160405180910390fd5b600580546001600160a01b0319166001600160a01b0392909216919091179055565b6108596114cf565b6001600160a01b0381166108805760405163d92e233d60e01b815260040160405180910390fd5b600480546040805163edcf9c1f60e01b815290516001600160a01b039092169263edcf9c1f9282820192602092908290030181865afa1580156108c5573d5f5f3e3d5ffd5b505050506040513d601f19601f820116820180604052508101906108e991906124e7565b610906576040516312aecd8160e01b815260040160405180910390fd5b60038054610100600160a81b0319166101006001600160a01b038416908102919091179091556040517f6cc7ebdb6c8c53291c5ae16148cab9b049d23bf5bde5632900b40edff56fcb43905f90a250565b61095f6114cf565b805f0361097f576040516317dbc4cb60e21b815260040160405180910390fd5b6101f48111156109a2576040516317dbc4cb60e21b815260040160405180910390fd5b600480546040805163edcf9c1f60e01b815290516001600160a01b039092169263edcf9c1f9282820192602092908290030181865afa1580156109e7573d5f5f3e3d5ffd5b505050506040513d601f19601f82011682018060405250810190610a0b91906124e7565b610a28576040516312aecd8160e01b815260040160405180910390fd5b600a819055610a38600282612569565b600b556105d6611501565b6004546001600160a01b03163314610a6e5760405163ea8e4eb560e01b815260040160405180910390fd5b610a76611628565b565b610a806112a4565b6001600160a01b0316336001600160a01b031614158015610ab1575060035461010090046001600160a01b03163314155b15610acf5760405163ea8e4eb560e01b815260040160405180910390fd5b610ad761144f565b610adf611674565b6001600954610100900460ff166003811115610afd57610afd612363565b03610b0f57610b0a611698565b610bc8565b6002600954610100900460ff166003811115610b2d57610b2d612363565b03610b3a57610b0a6117d1565b6003600954610100900460ff166003811115610b5857610b58612363565b03610bc857610b65611970565b60055f9054906101000a90046001600160a01b03166001600160a01b031663ed1308786040518163ffffffff1660e01b81526004015f604051808303815f87803b158015610bb1575f5ffd5b505af1158015610bc3573d5f5f3e3d5ffd5b505050505b6040517ff0094b59b7bc92e9fc611b14b5d3a34fe02530ac9bcf36c2c6f10147c3030c12905f90a16105006001600255565b60048054604051633821dad160e21b81526001600160a01b039091169163e0876b4491610c29913391016123b3565b602060405180830381865afa158015610c44573d5f5f3e3d5ffd5b505050506040513d601f19601f82011682018060405250810190610c6891906124e7565b610c855760405163ea8e4eb560e01b815260040160405180910390fd5b805f03610cb257600654604051636b30633560e01b815261055c916001600160a01b0316906004016123b3565b600654610500906001600160a01b03168383611477565b60048054604051633821dad160e21b81526001600160a01b039091169163e0876b4491610cf8913391016123b3565b602060405180830381865afa158015610d13573d5f5f3e3d5ffd5b505050506040513d601f19601f82011682018060405250810190610d3791906124e7565b610cb25760405163ea8e4eb560e01b815260040160405180910390fd5b6004546001600160a01b03163314610d7f5760405163ea8e4eb560e01b815260040160405180910390fd5b6001600160a01b0382161580610d9c57506001600160a01b038116155b15610dba5760405163d92e233d60e01b815260040160405180910390fd5b604051631ed3e4fb60e11b81526001600160a01b03821690633da7c9f690610de69085906004016123b3565b5f6040518083038186803b158015610dfc575f5ffd5b505afa158015610e0e573d5f5f3e3d5ffd5b505050506001600160a01b038281165f8181526008602052604080822080546001600160a01b0319169486169485179055517f2f2727c7b3d9ee55de5c114f0cb7997ac7251a4cbfca4f2b2dc6969d86cce4f49190a35050565b5f60606001600954610100900460ff166003811115610e8957610e89612363565b03610e975760019150610ef3565b6002600954610100900460ff166003811115610eb557610eb5612363565b03610ec35760019150610ef3565b6003600954610100900460ff166003811115610ee157610ee1612363565b03610eef5760019150610ef3565b5f91505b60405180602001604052805f81525090509250929050565b610f136114cf565b610a765f611c7f565b60048054604051633821dad160e21b815233926001600160a01b039092169163e0876b4491610f4d918591016123b3565b602060405180830381865afa158015610f68573d5f5f3e3d5ffd5b505050506040513d601f19601f82011682018060405250810190610f8c91906124e7565b15801561100457506004805460405163f764eb4560e01b81526001600160a01b039091169163f764eb4591610fc3918591016123b3565b602060405180830381865afa158015610fde573d5f5f3e3d5ffd5b505050506040513d601f19601f8201168201806040525081019061100291906124e7565b155b156110225760405163ea8e4eb560e01b815260040160405180910390fd5b815f0361104f57600654604051636b30633560e01b815261055c916001600160a01b0316906004016123b3565b5f816001600160a01b0316631f52692b6040518163ffffffff1660e01b8152600401602060405180830381865afa15801561108c573d5f5f3e3d5ffd5b505050506040513d601f19601f820116820180604052508101906110b09190612588565b6006549091506110ca906001600160a01b03168285611477565b505050565b6007546001600160a01b031633146110fa5760405163ea8e4eb560e01b815260040160405180910390fd5b805f0361112757600654604051636b30633560e01b815261055c916001600160a01b0316906004016123b3565b600554604080516302ad6a1760e11b815290515f926001600160a01b03169163055ad42e9160048083019260209291908290030181865afa15801561116e573d5f5f3e3d5ffd5b505050506040513d601f19601f820116820180604052508101906111929190612506565b60048111156111a3576111a3612363565b146111c1576040516312aecd8160e01b815260040160405180910390fd5b6006546111d9906001600160a01b0316333084611c98565b6005546040516338b12abb60e21b8152600481018390526001600160a01b039091169063e2c4aaec906024015f604051808303815f87803b15801561121c575f5ffd5b505af115801561122e573d5f5f3e3d5ffd5b5050505050565b338061123f6112b2565b6001600160a01b031614611268578060405163118cdaa760e01b815260040161055c91906123b3565b6105d681611c7f565b6004546001600160a01b0316331461129c5760405163ea8e4eb560e01b815260040160405180910390fd5b610a76611cd1565b5f546001600160a01b031690565b6001546001600160a01b031690565b6005546001600160a01b031633146112ec5760405163ea8e4eb560e01b815260040160405180910390fd5b6009805461ff001916610100179055565b6113056114cf565b8060ff165f03611328576040516317dbc4cb60e21b815260040160405180910390fd5b600860ff8216111561134d576040516317dbc4cb60e21b815260040160405180910390fd5b600480546040805163edcf9c1f60e01b815290516001600160a01b039092169263edcf9c1f9282820192602092908290030181865afa158015611392573d5f5f3e3d5ffd5b505050506040513d601f19601f820116820180604052508101906113b691906124e7565b6113d3576040516312aecd8160e01b815260040160405180910390fd5b6009805460ff191660ff92909216919091179055565b6113f16114cf565b600180546001600160a01b0319166001600160a01b0383169081179091556114176112a4565b6001600160a01b03167f38d16b8cac22d99fc7c124b9cd0de2d3fa1faef420bfe791d8c362d765e2270060405160405180910390a350565b600280540361147157604051633ee5aeb560e01b815260040160405180910390fd5b60028055565b6110ca83846001600160a01b031663a9059cbb858560405160240161149d9291906125a3565b604051602081830303815290604052915060e01b6020820180516001600160e01b038381831617835250505050611d0e565b336114d86112a4565b6001600160a01b031614610a76573360405163118cdaa760e01b815260040161055c91906123b3565b5f60045f9054906101000a90046001600160a01b03166001600160a01b031663d86cd44e6040518163ffffffff1660e01b81526004015f60405180830381865afa158015611551573d5f5f3e3d5ffd5b505050506040513d5f823e601f3d908101601f191682016040526115789190810190612695565b90505f5b8151811015610500575f828281518110611598576115986126ce565b6020908102919091018101516001600160a01b038082165f908152600890935260409092205490925016801561161e57600b546040516308bed0f760e11b815260048101919091526001600160a01b0382169063117da1ee906024015f604051808303815f87803b15801561160b575f5ffd5b505af192505050801561161c575060015b505b505060010161157c565b611630611d71565b6003805460ff191690557f5db9ee0a495bf2e6ff9c91a7834c1ba4fdd244a5e8aa4e537bd38aeae4b073aa335b60405161166a91906123b3565b60405180910390a1565b60035460ff1615610a765760405163d93c066560e01b815260040160405180910390fd5b600554604051635857566360e11b8152600160048201525f91829182916001600160a01b03169063b0aeacc6906024015f60405180830381865afa1580156116e2573d5f5f3e3d5ffd5b505050506040513d5f823e601f3d908101601f19168201604052611709919081019061273d565b6009805461ff001916610200179055919450925090505f5b83518161ffff1610156117cb575f848261ffff1681518110611745576117456126ce565b60209081029190910101516006549091506001600160a01b039081169082160361176f57506117bb565b5f848361ffff1681518110611786576117866126ce565b602002602001015190506117b88282868661ffff16815181106117ab576117ab6126ce565b6020026020010151611d94565b50505b6117c4816127cc565b9050611721565b50505050565b600554604051635857566360e11b81525f6004820181905291829182916001600160a01b03169063b0aeacc6906024015f60405180830381865afa15801561181b573d5f5f3e3d5ffd5b505050506040513d5f823e601f3d908101601f19168201604052611842919081019061273d565b6009805461ff001916610300179055919450925090505f5b83518161ffff161015611904575f848261ffff168151811061187e5761187e6126ce565b60209081029190910101516006549091506001600160a01b03908116908216036118a857506118f4565b5f848361ffff16815181106118bf576118bf6126ce565b602002602001015190506118f18282868661ffff16815181106118e4576118e46126ce565b6020026020010151611e8c565b50505b6118fd816127cc565b905061185a565b50600554600c546040516338b12abb60e21b81526001600160a01b039092169163e2c4aaec9161193a9160040190815260200190565b5f604051808303815f87803b158015611951575f5ffd5b505af1158015611963573d5f5f3e3d5ffd5b50505f600c555050505050565b60048054604051631da09e4360e31b81525f926001600160a01b039092169163ed04f218916119a1918591016127ec565b5f60405180830381865afa1580156119bb573d5f5f3e3d5ffd5b505050506040513d5f823e601f3d908101601f191682016040526119e29190810190612695565b6009549091505f90611a009060ff8082169162010000900416612800565b60095460ff91821692505f91611a17911683612823565b90506009600281819054906101000a900460ff16611a349061283d565b91906101000a81548160ff021916908360ff16021790555082518161ffff161180611a63575082518161ffff16145b15611a78575081516009805462ffff00191690555b815b8161ffff168161ffff1610156117cb575f848261ffff1681518110611aa157611aa16126ce565b60209081029190910101516005546040516309958e4960e11b81529192505f916001600160a01b039091169063132b1c9290611ae19085906004016123b3565b602060405180830381865afa158015611afc573d5f5f3e3d5ffd5b505050506040513d601f19601f82011682018060405250810190611b209190612524565b60055460405163e2638ff160e01b81529192505f916001600160a01b039091169063e2638ff190611b559086906004016123b3565b602060405180830381865afa158015611b70573d5f5f3e3d5ffd5b505050506040513d601f19601f82011682018060405250810190611b949190612524565b9050611ba1838383611fdb565b6004805460405163d11f1c3560e01b81526001600160a01b039091169163d11f1c3591611bd0918791016123b3565b602060405180830381865afa158015611beb573d5f5f3e3d5ffd5b505050506040513d601f19601f82011682018060405250810190611c0f91906124e7565b15611c71576004805460405163e8ffccb760e01b81526001600160a01b039091169163e8ffccb791611c43918791016123b3565b5f604051808303815f87803b158015611c5a575f5ffd5b505af1158015611c6c573d5f5f3e3d5ffd5b505050505b505050806001019050611a7a565b600180546001600160a01b03191690556105d6816121e0565b6040516001600160a01b0384811660248301528381166044830152606482018390526117cb9186918216906323b872dd9060840161149d565b611cd9611674565b6003805460ff191660011790557f62e78cea01bee320cd4e420270b5ea74000d11b0c9f74754ebdbfc544b05a25861165d3390565b5f5f60205f8451602086015f885af180611d2d576040513d5f823e3d81fd5b50505f513d91508115611d44578060011415611d51565b6001600160a01b0384163b155b156117cb5783604051635274afe760e01b815260040161055c91906123b3565b60035460ff16610a7657604051638dfc202b60e01b815260040160405180910390fd5b6001600160a01b038084165f908152600860205260409020541680611dcc57604051635048c2af60e11b815260040160405180910390fd5b611de06001600160a01b038516828561222f565b604051636c197ff560e01b81525f906001600160a01b03831690636c197ff590611e1090889088906004016125a3565b6020604051808303815f875af1158015611e2c573d5f5f3e3d5ffd5b505050506040513d601f19601f82011682018060405250810190611e509190612524565b9050611e666001600160a01b038616835f61222f565b611e708382612852565b600c5f828254611e809190612871565b90915550505050505050565b6001600160a01b038084165f908152600860205260409020541680611ec457604051635048c2af60e11b815260040160405180910390fd5b5f5f600b5411611ede57611ed9836005612898565b611f10565b612710600b54612710611ef191906128af565b611efc856003612898565b611f069190612898565b611f109190612569565b600654909150611f2a906001600160a01b0316838361222f565b60405163cce7ec1360e01b81525f906001600160a01b0384169063cce7ec1390611f5a90899089906004016125a3565b6020604051808303815f875af1158015611f76573d5f5f3e3d5ffd5b505050506040513d601f19601f82011682018060405250810190611f9a9190612524565b600654909150611fb4906001600160a01b0316845f61222f565b611fbe8185612852565b600c5f828254611fce9190612871565b9091555050505050505050565b600480546040805163179b714360e31b8152905186935f936001600160a01b03169263bcdb8a1892818301926020928290030181865afa158015612021573d5f5f3e3d5ffd5b505050506040513d601f19601f820116820180604052508101906120459190612524565b604051637bee6cb760e11b8152600481018290529091505f906001600160a01b0384169063f7dcd96e90602401602060405180830381865afa15801561208d573d5f5f3e3d5ffd5b505050506040513d601f19601f820116820180604052508101906120b19190612524565b60405163178c864d60e11b8152600481018490529091505f906001600160a01b03851690632f190c9a90602401602060405180830381865afa1580156120f9573d5f5f3e3d5ffd5b505050506040513d601f19601f8201168201806040525081019061211d9190612524565b9050811561217b5760405163493a6e2160e01b8152600481018690526001600160a01b0385169063493a6e21906024015f604051808303815f87803b158015612164575f5ffd5b505af1158015612176573d5f5f3e3d5ffd5b505050505b80156121d75760405163e5e9719360e01b8152600481018790526001600160a01b0385169063e5e97193906024015f604051808303815f87803b1580156121c0575f5ffd5b505af11580156121d2573d5f5f3e3d5ffd5b505050505b50505050505050565b5f80546001600160a01b038381166001600160a01b0319831681178455604051919092169283917f8be0079c531659141344cd1fd0a4f28419497f9722a3daafe3b4186f6b6457e09190a35050565b5f836001600160a01b031663095ea7b384846040516024016122529291906125a3565b604051602081830303815290604052915060e01b6020820180516001600160e01b038381831617835250505050905061228b84826122bf565b6117cb576122b584856001600160a01b031663095ea7b3865f60405160240161149d9291906125a3565b6117cb8482611d0e565b5f5f5f5f60205f8651602088015f8a5af192503d91505f5190508280156122fe575081156122f057806001146122fe565b5f866001600160a01b03163b115b93505050505b92915050565b6001600160a01b03811681146105d6575f5ffd5b5f5f6040838503121561232f575f5ffd5b8235915060208301356123418161230a565b809150509250929050565b5f6020828403121561235c575f5ffd5b5035919050565b634e487b7160e01b5f52602160045260245ffd5b602081016004831061238b5761238b612363565b91905290565b5f602082840312156123a1575f5ffd5b81356123ac8161230a565b9392505050565b6001600160a01b0391909116815260200190565b5f5f602083850312156123d8575f5ffd5b82356001600160401b038111156123ed575f5ffd5b8301601f810185136123fd575f5ffd5b80356001600160401b03811115612412575f5ffd5b856020828401011115612423575f5ffd5b6020919091019590945092505050565b5f5f60408385031215612444575f5ffd5b823561244f8161230a565b946020939093013593505050565b5f5f6040838503121561246e575f5ffd5b82356124798161230a565b915060208301356123418161230a565b8215158152604060208201525f82518060408401528060208501606085015e5f606082850101526060601f19601f8301168401019150509392505050565b5f602082840312156124d7575f5ffd5b813560ff811681146123ac575f5ffd5b5f602082840312156124f7575f5ffd5b815180151581146123ac575f5ffd5b5f60208284031215612516575f5ffd5b8151600581106123ac575f5ffd5b5f60208284031215612534575f5ffd5b5051919050565b634e487b7160e01b5f52601160045260245ffd5b5f600160ff1b82016125635761256361253b565b505f0390565b5f8261258357634e487b7160e01b5f52601260045260245ffd5b500490565b5f60208284031215612598575f5ffd5b81516123ac8161230a565b6001600160a01b03929092168252602082015260400190565b634e487b7160e01b5f52604160045260245ffd5b604051601f8201601f191681016001600160401b03811182821017156125f8576125f86125bc565b604052919050565b5f6001600160401b03821115612618576126186125bc565b5060051b60200190565b5f82601f830112612631575f5ffd5b815161264461263f82612600565b6125d0565b8082825260208201915060208360051b860101925085831115612665575f5ffd5b602085015b8381101561268b57805161267d8161230a565b83526020928301920161266a565b5095945050505050565b5f602082840312156126a5575f5ffd5b81516001600160401b038111156126ba575f5ffd5b6126c684828501612622565b949350505050565b634e487b7160e01b5f52603260045260245ffd5b5f82601f8301126126f1575f5ffd5b81516126ff61263f82612600565b8082825260208201915060208360051b860101925085831115612720575f5ffd5b602085015b8381101561268b578051835260209283019201612725565b5f5f5f6060848603121561274f575f5ffd5b83516001600160401b03811115612764575f5ffd5b61277086828701612622565b602086015190945090506001600160401b0381111561278d575f5ffd5b612799868287016126e2565b604086015190935090506001600160401b038111156127b6575f5ffd5b6127c2868287016126e2565b9150509250925092565b5f61ffff821661ffff81036127e3576127e361253b565b60010192915050565b602081016002831061238b5761238b612363565b60ff818116838216029081169081811461281c5761281c61253b565b5092915050565b61ffff81811683821601908111156123045761230461253b565b5f60ff821660ff81036127e3576127e361253b565b8181035f83128015838313168383128216171561281c5761281c61253b565b8082018281125f8312801582168215821617156128905761289061253b565b505092915050565b80820281158282048414176123045761230461253b565b808201808211156123045761230461253b56fea264697066735822122062791c9c422cae383b8e4841edff1119a131b58258c91fa7e4df386b49c4937564736f6c634300081c0033",
  "linkReferences": {},
  "deployedLinkReferences": {}
}