{
  "_format": "hh-sol-artifact-1",
  "contractName": "LiquidityOrchestrator",
  "sourceName": "contracts/orchestrators/LiquidityOrchestrator.sol",
  "abi": [
    {
      "inputs": [
        {
          "internalType": "address",
          "name": "initialOwner",
          "type": "address"
        },
        {
          "internalType": "address",
          "name": "config_",
          "type": "address"
        },
        {
          "internalType": "address",
          "name": "automationRegistry_",
          "type": "address"
        }
      ],
      "stateMutability": "nonpayable",
      "type": "constructor"
    },
    {
      "inputs": [],
      "name": "AdapterNotSet",
      "type": "error"
    },
    {
      "inputs": [],
      "name": "AlreadyRegistered",
      "type": "error"
    },
    {
      "inputs": [
        {
          "internalType": "address",
          "name": "asset",
          "type": "address"
        }
      ],
      "name": "AmountMustBeGreaterThanZero",
      "type": "error"
    },
    {
      "inputs": [],
      "name": "InsufficientAmount",
      "type": "error"
    },
    {
      "inputs": [],
      "name": "InvalidAdapter",
      "type": "error"
    },
    {
      "inputs": [],
      "name": "InvalidArguments",
      "type": "error"
    },
    {
      "inputs": [],
      "name": "InvalidState",
      "type": "error"
    },
    {
      "inputs": [],
      "name": "NotAuthorized",
      "type": "error"
    },
    {
      "inputs": [
        {
          "internalType": "address",
          "name": "owner",
          "type": "address"
        }
      ],
      "name": "OwnableInvalidOwner",
      "type": "error"
    },
    {
      "inputs": [
        {
          "internalType": "address",
          "name": "account",
          "type": "address"
        }
      ],
      "name": "OwnableUnauthorizedAccount",
      "type": "error"
    },
    {
      "inputs": [],
      "name": "ReentrancyGuardReentrantCall",
      "type": "error"
    },
    {
      "inputs": [],
      "name": "SystemNotIdle",
      "type": "error"
    },
    {
      "inputs": [],
      "name": "TransferFailed",
      "type": "error"
    },
    {
      "inputs": [],
      "name": "ZeroAddress",
      "type": "error"
    },
    {
      "anonymous": false,
      "inputs": [
        {
          "indexed": true,
          "internalType": "address",
          "name": "newAutomationRegistry",
          "type": "address"
        }
      ],
      "name": "AutomationRegistryUpdated",
      "type": "event"
    },
    {
      "anonymous": false,
      "inputs": [
        {
          "indexed": true,
          "internalType": "address",
          "name": "asset",
          "type": "address"
        },
        {
          "indexed": true,
          "internalType": "address",
          "name": "adapter",
          "type": "address"
        }
      ],
      "name": "ExecutionAdapterSet",
      "type": "event"
    },
    {
      "anonymous": false,
      "inputs": [
        {
          "indexed": true,
          "internalType": "address",
          "name": "previousOwner",
          "type": "address"
        },
        {
          "indexed": true,
          "internalType": "address",
          "name": "newOwner",
          "type": "address"
        }
      ],
      "name": "OwnershipTransferred",
      "type": "event"
    },
    {
      "anonymous": false,
      "inputs": [],
      "name": "PortfolioRebalanced",
      "type": "event"
    },
    {
      "inputs": [],
      "name": "automationRegistry",
      "outputs": [
        {
          "internalType": "address",
          "name": "",
          "type": "address"
        }
      ],
      "stateMutability": "view",
      "type": "function"
    },
    {
      "inputs": [
        {
          "internalType": "uint256",
          "name": "",
          "type": "uint256"
        }
      ],
      "name": "buyingAmounts",
      "outputs": [
        {
          "internalType": "uint256",
          "name": "",
          "type": "uint256"
        }
      ],
      "stateMutability": "view",
      "type": "function"
    },
    {
      "inputs": [
        {
          "internalType": "uint256",
          "name": "",
          "type": "uint256"
        }
      ],
      "name": "buyingEstimatedUnderlyingAmounts",
      "outputs": [
        {
          "internalType": "uint256",
          "name": "",
          "type": "uint256"
        }
      ],
      "stateMutability": "view",
      "type": "function"
    },
    {
      "inputs": [
        {
          "internalType": "uint256",
          "name": "",
          "type": "uint256"
        }
      ],
      "name": "buyingTokens",
      "outputs": [
        {
          "internalType": "address",
          "name": "",
          "type": "address"
        }
      ],
      "stateMutability": "view",
      "type": "function"
    },
    {
      "inputs": [
        {
          "internalType": "bytes",
          "name": "",
          "type": "bytes"
        }
      ],
      "name": "checkUpkeep",
      "outputs": [
        {
          "internalType": "bool",
          "name": "upkeepNeeded",
          "type": "bool"
        },
        {
          "internalType": "bytes",
          "name": "performData",
          "type": "bytes"
        }
      ],
      "stateMutability": "view",
      "type": "function"
    },
    {
      "inputs": [
        {
          "internalType": "uint256",
          "name": "amount",
          "type": "uint256"
        }
      ],
      "name": "claimProtocolFees",
      "outputs": [],
      "stateMutability": "nonpayable",
      "type": "function"
    },
    {
      "inputs": [],
      "name": "config",
      "outputs": [
        {
          "internalType": "contract IOrionConfig",
          "name": "",
          "type": "address"
        }
      ],
      "stateMutability": "view",
      "type": "function"
    },
    {
      "inputs": [],
      "name": "currentMinibatchIndex",
      "outputs": [
        {
          "internalType": "uint8",
          "name": "",
          "type": "uint8"
        }
      ],
      "stateMutability": "view",
      "type": "function"
    },
    {
      "inputs": [],
      "name": "currentPhase",
      "outputs": [
        {
          "internalType": "enum ILiquidityOrchestrator.LiquidityUpkeepPhase",
          "name": "",
          "type": "uint8"
        }
      ],
      "stateMutability": "view",
      "type": "function"
    },
    {
      "inputs": [],
      "name": "deltaBufferAmount",
      "outputs": [
        {
          "internalType": "int256",
          "name": "",
          "type": "int256"
        }
      ],
      "stateMutability": "view",
      "type": "function"
    },
    {
      "inputs": [
        {
          "internalType": "uint256",
          "name": "amount",
          "type": "uint256"
        }
      ],
      "name": "depositLiquidity",
      "outputs": [],
      "stateMutability": "nonpayable",
      "type": "function"
    },
    {
      "inputs": [
        {
          "internalType": "address",
          "name": "",
          "type": "address"
        }
      ],
      "name": "executionAdapterOf",
      "outputs": [
        {
          "internalType": "contract IExecutionAdapter",
          "name": "",
          "type": "address"
        }
      ],
      "stateMutability": "view",
      "type": "function"
    },
    {
      "inputs": [],
      "name": "executionMinibatchSize",
      "outputs": [
        {
          "internalType": "uint8",
          "name": "",
          "type": "uint8"
        }
      ],
      "stateMutability": "view",
      "type": "function"
    },
    {
      "inputs": [],
      "name": "internalStatesOrchestrator",
      "outputs": [
        {
          "internalType": "contract IInternalStateOrchestrator",
          "name": "",
          "type": "address"
        }
      ],
      "stateMutability": "view",
      "type": "function"
    },
    {
      "inputs": [],
      "name": "lastProcessedEpoch",
      "outputs": [
        {
          "internalType": "uint16",
          "name": "",
          "type": "uint16"
        }
      ],
      "stateMutability": "view",
      "type": "function"
    },
    {
      "inputs": [],
      "name": "owner",
      "outputs": [
        {
          "internalType": "address",
          "name": "",
          "type": "address"
        }
      ],
      "stateMutability": "view",
      "type": "function"
    },
    {
      "inputs": [
        {
          "internalType": "bytes",
          "name": "performData",
          "type": "bytes"
        }
      ],
      "name": "performUpkeep",
      "outputs": [],
      "stateMutability": "nonpayable",
      "type": "function"
    },
    {
      "inputs": [],
      "name": "renounceOwnership",
      "outputs": [],
      "stateMutability": "nonpayable",
      "type": "function"
    },
    {
      "inputs": [
        {
          "internalType": "address",
          "name": "user",
          "type": "address"
        },
        {
          "internalType": "uint256",
          "name": "amount",
          "type": "uint256"
        }
      ],
      "name": "returnDepositFunds",
      "outputs": [],
      "stateMutability": "nonpayable",
      "type": "function"
    },
    {
      "inputs": [
        {
          "internalType": "uint256",
          "name": "",
          "type": "uint256"
        }
      ],
      "name": "sellingAmounts",
      "outputs": [
        {
          "internalType": "uint256",
          "name": "",
          "type": "uint256"
        }
      ],
      "stateMutability": "view",
      "type": "function"
    },
    {
      "inputs": [
        {
          "internalType": "uint256",
          "name": "",
          "type": "uint256"
        }
      ],
      "name": "sellingEstimatedUnderlyingAmounts",
      "outputs": [
        {
          "internalType": "uint256",
          "name": "",
          "type": "uint256"
        }
      ],
      "stateMutability": "view",
      "type": "function"
    },
    {
      "inputs": [
        {
          "internalType": "uint256",
          "name": "",
          "type": "uint256"
        }
      ],
      "name": "sellingTokens",
      "outputs": [
        {
          "internalType": "address",
          "name": "",
          "type": "address"
        }
      ],
      "stateMutability": "view",
      "type": "function"
    },
    {
      "inputs": [
        {
          "internalType": "address",
          "name": "asset",
          "type": "address"
        },
        {
          "internalType": "contract IExecutionAdapter",
          "name": "adapter",
          "type": "address"
        }
      ],
      "name": "setExecutionAdapter",
      "outputs": [],
      "stateMutability": "nonpayable",
      "type": "function"
    },
    {
      "inputs": [
        {
          "internalType": "address",
          "name": "_internalStatesOrchestrator",
          "type": "address"
        }
      ],
      "name": "setInternalStatesOrchestrator",
      "outputs": [],
      "stateMutability": "nonpayable",
      "type": "function"
    },
    {
      "inputs": [
        {
          "internalType": "uint256",
          "name": "_targetBufferRatio",
          "type": "uint256"
        }
      ],
      "name": "setTargetBufferRatio",
      "outputs": [],
      "stateMutability": "nonpayable",
      "type": "function"
    },
    {
      "inputs": [],
      "name": "targetBufferRatio",
      "outputs": [
        {
          "internalType": "uint256",
          "name": "",
          "type": "uint256"
        }
      ],
      "stateMutability": "view",
      "type": "function"
    },
    {
      "inputs": [
        {
          "internalType": "uint256",
          "name": "amount",
          "type": "uint256"
        }
      ],
      "name": "transferCuratorFees",
      "outputs": [],
      "stateMutability": "nonpayable",
      "type": "function"
    },
    {
      "inputs": [
        {
          "internalType": "address",
          "name": "newOwner",
          "type": "address"
        }
      ],
      "name": "transferOwnership",
      "outputs": [],
      "stateMutability": "nonpayable",
      "type": "function"
    },
    {
      "inputs": [
        {
          "internalType": "address",
          "name": "user",
          "type": "address"
        },
        {
          "internalType": "uint256",
          "name": "amount",
          "type": "uint256"
        }
      ],
      "name": "transferRedemptionFunds",
      "outputs": [],
      "stateMutability": "nonpayable",
      "type": "function"
    },
    {
      "inputs": [],
      "name": "underlyingAsset",
      "outputs": [
        {
          "internalType": "address",
          "name": "",
          "type": "address"
        }
      ],
      "stateMutability": "view",
      "type": "function"
    },
    {
      "inputs": [
        {
          "internalType": "address",
          "name": "asset",
          "type": "address"
        }
      ],
      "name": "unsetExecutionAdapter",
      "outputs": [],
      "stateMutability": "nonpayable",
      "type": "function"
    },
    {
      "inputs": [
        {
          "internalType": "address",
          "name": "newAutomationRegistry",
          "type": "address"
        }
      ],
      "name": "updateAutomationRegistry",
      "outputs": [],
      "stateMutability": "nonpayable",
      "type": "function"
    },
    {
      "inputs": [
        {
          "internalType": "uint8",
          "name": "_executionMinibatchSize",
          "type": "uint8"
        }
      ],
      "name": "updateExecutionMinibatchSize",
      "outputs": [],
      "stateMutability": "nonpayable",
      "type": "function"
    },
    {
      "inputs": [
        {
          "internalType": "uint256",
          "name": "amount",
          "type": "uint256"
        }
      ],
      "name": "withdrawLiquidity",
      "outputs": [],
      "stateMutability": "nonpayable",
      "type": "function"
    }
  ],
  "bytecode": "0x608060405234801561000f575f5ffd5b50604051612da7380380612da783398101604081905261002e916101e3565b826001600160a01b03811661005c57604051631e4fbdf760e01b81525f600482015260240160405180910390fd5b6100658161017d565b50600180556001600160a01b0382166100915760405163d92e233d60e01b815260040160405180910390fd5b6001600160a01b0381166100b85760405163d92e233d60e01b815260040160405180910390fd5b600380546001600160a01b0319166001600160a01b03841690811790915560408051631c56369f60e21b81529051637158da7c916004808201926020929091908290030181865afa15801561010f573d5f5f3e3d5ffd5b505050506040513d601f19601f82011682018060405250810190610133919061022d565b600580546001600160a01b03199081166001600160a01b0393841617909155600280549091169290911691909117905550506007805464ffffffffff19166201000017905561024f565b5f80546001600160a01b038381166001600160a01b0319831681178455604051919092169283917f8be0079c531659141344cd1fd0a4f28419497f9722a3daafe3b4186f6b6457e09190a35050565b6001600160a01b03811681146101e0575f5ffd5b50565b5f5f5f606084860312156101f5575f5ffd5b8351610200816101cc565b6020850151909350610211816101cc565b6040850151909250610222816101cc565b809150509250925092565b5f6020828403121561023d575f5ffd5b8151610248816101cc565b9392505050565b612b4b8061025c5f395ff3fe608060405234801561000f575f5ffd5b5060043610610194575f3560e01c806301c621c114610198578063055ad42e146101ad57806309f2e19c146101d75780630a861f2a146101f75780630a8b78c71461020a57806314b5d07f1461021d5780633369921a14610230578063348ec5c8146102475780633af2a8c01461025a5780633e765a9e1461026d5780634585e33b146102805780634adfc2e71461029357806351edffb1146102a657806352e899fd146102b95780635488cd62146102cc57806357be01c1146102f257806359017aa9146103055780635dc228a0146103185780636e04ff0d1461032b578063715018a61461034c5780637158da7c14610354578063741fca4b1461036757806376d58e1a1461037a57806379502c551461038d5780638157c1ab146103a0578063841181ef146103b35780638a0b0d38146103c65780638da5cb5b146103d9578063bc504975146103e1578063be1b26a4146103f4578063d3f3506d14610407578063dab26e3b1461042f578063ee6713df14610438578063f2fde38b14610459575b5f5ffd5b6101ab6101a636600461249e565b61046c565b005b6007546101c1906301000000900460ff1681565b6040516101ce91906124c9565b60405180910390f35b6101ea6101e536600461249e565b610599565b6040516101ce91906124e3565b6101ab61020536600461249e565b6105c1565b6101ab61021836600461250b565b61081d565b6101ab61022b36600461250b565b610898565b610239600f5481565b6040519081526020016101ce565b6004546101ea906001600160a01b031681565b6101ab61026836600461249e565b6109a1565b61023961027b36600461249e565b610a82565b6101ab61028e36600461252d565b610aa1565b6101ab6102a1366004612599565b610bea565b6101ab6102b4366004612599565b610cd5565b6102396102c736600461249e565b610d61565b6007546102e090600160201b900460ff1681565b60405160ff90911681526020016101ce565b6007546102e09062010000900460ff1681565b6101ab6103133660046125c3565b610d70565b6002546101ea906001600160a01b031681565b61033e61033936600461252d565b610ea1565b6040516101ce9291906125fa565b6101ab611136565b6005546101ea906001600160a01b031681565b6101ab61037536600461249e565b611149565b6101ab61038836600461249e565b611300565b6003546101ea906001600160a01b031681565b6101ea6103ae36600461249e565b6114b9565b6101ab6103c136600461250b565b6114c8565b6101ab6103d436600461264d565b611559565b6101ea611633565b6102396103ef36600461249e565b611641565b61023961040236600461249e565b611650565b6101ea61041536600461250b565b60066020525f90815260409020546001600160a01b031681565b61023960085481565b6007546104469061ffff1681565b60405161ffff90911681526020016101ce565b6101ab61046736600461250b565b61165f565b61047461169c565b805f036104aa57600554604051636b30633560e01b81526104a1916001600160a01b0316906004016124e3565b60405180910390fd5b60048054604051637060444560e01b81529182018390526001600160a01b0316906370604445906024015f604051808303815f87803b1580156104eb575f5ffd5b505af11580156104fd573d5f5f3e3d5ffd5b505060055460405163a9059cbb60e01b81525f93506001600160a01b03909116915063a9059cbb906105359033908690600401612666565b6020604051808303815f875af1158015610551573d5f5f3e3d5ffd5b505050506040513d601f19601f82011682018060405250810190610575919061267f565b905080610595576040516312171d8360e31b815260040160405180910390fd5b5050565b600c81815481106105a8575f80fd5b5f918252602090912001546001600160a01b0316905081565b6105c961169c565b805f036105f657600554604051636b30633560e01b81526104a1916001600160a01b0316906004016124e3565b60035f9054906101000a90046001600160a01b03166001600160a01b031663edcf9c1f6040518163ffffffff1660e01b8152600401602060405180830381865afa158015610646573d5f5f3e3d5ffd5b505050506040513d601f19601f8201168201806040525081019061066a919061267f565b610687576040516312aecd8160e01b815260040160405180910390fd5b5f60045f9054906101000a90046001600160a01b03166001600160a01b031663c18e2a5c6040518163ffffffff1660e01b8152600401602060405180830381865afa1580156106d8573d5f5f3e3d5ffd5b505050506040513d601f19601f820116820180604052508101906106fc919061269e565b90508082111561071f57604051632ca2f52b60e11b815260040160405180910390fd5b6004546001600160a01b031663e2c4aaec610739846126c9565b6040518263ffffffff1660e01b815260040161075791815260200190565b5f604051808303815f87803b15801561076e575f5ffd5b505af1158015610780573d5f5f3e3d5ffd5b505060055460405163a9059cbb60e01b81525f93506001600160a01b03909116915063a9059cbb906107b89033908790600401612666565b6020604051808303815f875af11580156107d4573d5f5f3e3d5ffd5b505050506040513d601f19601f820116820180604052508101906107f8919061267f565b905080610818576040516312171d8360e31b815260040160405180910390fd5b505050565b61082561169c565b6001600160a01b03811661084c5760405163d92e233d60e01b815260040160405180910390fd5b6004546001600160a01b03161561087657604051630ea075bf60e21b815260040160405180910390fd5b600480546001600160a01b0319166001600160a01b0392909216919091179055565b6108a061169c565b6001600160a01b0381166108c75760405163d92e233d60e01b815260040160405180910390fd5b60035f9054906101000a90046001600160a01b03166001600160a01b031663edcf9c1f6040518163ffffffff1660e01b8152600401602060405180830381865afa158015610917573d5f5f3e3d5ffd5b505050506040513d601f19601f8201168201806040525081019061093b919061267f565b610958576040516312aecd8160e01b815260040160405180910390fd5b600280546001600160a01b0319166001600160a01b0383169081179091556040517f6cc7ebdb6c8c53291c5ae16148cab9b049d23bf5bde5632900b40edff56fcb43905f90a250565b6109a961169c565b805f036109c9576040516317dbc4cb60e21b815260040160405180910390fd5b6101f48111156109ec576040516317dbc4cb60e21b815260040160405180910390fd5b60035f9054906101000a90046001600160a01b03166001600160a01b031663edcf9c1f6040518163ffffffff1660e01b8152600401602060405180830381865afa158015610a3c573d5f5f3e3d5ffd5b505050506040513d601f19601f82011682018060405250810190610a60919061267f565b610a7d576040516312aecd8160e01b815260040160405180910390fd5b600855565b600e8181548110610a91575f80fd5b5f91825260209091200154905081565b610aa9611633565b6001600160a01b0316336001600160a01b031614158015610ad557506002546001600160a01b03163314155b15610af35760405163ea8e4eb560e01b815260040160405180910390fd5b610afb6116ce565b6005811015610b1d576040516317dbc4cb60e21b815260040160405180910390fd5b5f80610b2b838501856126e3565b90925090506341659aab60e01b6001600160e01b0319831601610b5557610b506116f8565b610bb7565b63100597e960e31b6001600160e01b0319831601610b7657610b5081611930565b63302c6bef60e21b6001600160e01b0319831601610b9757610b5081611abd565b6301c7bbc160e21b6001600160e01b0319831601610bb757610bb7611cb5565b6040517ff0094b59b7bc92e9fc611b14b5d3a34fe02530ac9bcf36c2c6f10147c3030c12905f90a1505061059560018055565b600354604051633821dad160e21b81526001600160a01b039091169063e0876b4490610c1a9033906004016124e3565b602060405180830381865afa158015610c35573d5f5f3e3d5ffd5b505050506040513d601f19601f82011682018060405250810190610c59919061267f565b610c765760405163ea8e4eb560e01b815260040160405180910390fd5b805f03610ca357600554604051636b30633560e01b81526104a1916001600160a01b0316906004016124e3565b60055460405163a9059cbb60e01b81525f916001600160a01b03169063a9059cbb906107b89086908690600401612666565b600354604051633821dad160e21b81526001600160a01b039091169063e0876b4490610d059033906004016124e3565b602060405180830381865afa158015610d20573d5f5f3e3d5ffd5b505050506040513d601f19601f82011682018060405250810190610d44919061267f565b610ca35760405163ea8e4eb560e01b815260040160405180910390fd5b600b8181548110610a91575f80fd5b6003546001600160a01b03163314610d9b5760405163ea8e4eb560e01b815260040160405180910390fd5b6001600160a01b0382161580610db857506001600160a01b038116155b15610dd65760405163d92e233d60e01b815260040160405180910390fd5b604051631ed3e4fb60e11b81526001600160a01b03821690633da7c9f690610e029085906004016124e3565b602060405180830381865afa158015610e1d573d5f5f3e3d5ffd5b505050506040513d601f19601f82011682018060405250810190610e41919061267f565b610e5e5760405163fbf66df160e01b815260040160405180910390fd5b6001600160a01b038281165f8181526006602052604080822080546001600160a01b0319169486169485179055515f516020612af65f395f51905f529190a35050565b5f606060035f9054906101000a90046001600160a01b03166001600160a01b031663edcf9c1f6040518163ffffffff1660e01b8152600401602060405180830381865afa158015610ef4573d5f5f3e3d5ffd5b505050506040513d601f19601f82011682018060405250810190610f18919061267f565b8015610f9857506007546004805460408051630a58ce2d60e11b8152905161ffff909416936001600160a01b03909216926314b19c5a9282820192602092908290030181865afa158015610f6e573d5f5f3e3d5ffd5b505050506040513d601f19601f82011682018060405250810190610f929190612722565b61ffff16115b15610fea57600191507fbe9a655586dceb82dfa0af992b5d8ae7fa45053cb7fd6f141f541da7572978c75f604051602001610fd4929190612743565b604051602081830303815290604052905061112f565b60016007546301000000900460ff16600381111561100a5761100a6124b5565b0361105557600191507f7fd340b8241a93f6a116f506d6171d4f585588564d777e1192babae55184f691600760049054906101000a900460ff16604051602001610fd4929190612743565b60026007546301000000900460ff166003811115611075576110756124b5565b036110c057600191507f3f4e50448465d8594e91c1038b22f277808696956455dacacb66f00f4df0b3a2600760049054906101000a900460ff16604051602001610fd4929190612743565b60036007546301000000900460ff1660038111156110e0576110e06124b5565b0361111c57600191507ff8e110fcda2d74b2e1ced72f8e94b4510c922b70f786fd1064147a762fd812605f604051602001610fd4929190612743565b505060408051602081019091525f808252905b9250929050565b61113e61169c565b6111475f611eab565b565b600354604051633821dad160e21b815233916001600160a01b03169063e0876b44906111799084906004016124e3565b602060405180830381865afa158015611194573d5f5f3e3d5ffd5b505050506040513d601f19601f820116820180604052508101906111b8919061267f565b6111d55760405163ea8e4eb560e01b815260040160405180910390fd5b815f0361120257600554604051636b30633560e01b81526104a1916001600160a01b0316906004016124e3565b5f816001600160a01b0316631f52692b6040518163ffffffff1660e01b8152600401602060405180830381865afa15801561123f573d5f5f3e3d5ffd5b505050506040513d601f19601f820116820180604052508101906112639190612760565b60055460405163a9059cbb60e01b81529192505f916001600160a01b039091169063a9059cbb9061129a9085908890600401612666565b6020604051808303815f875af11580156112b6573d5f5f3e3d5ffd5b505050506040513d601f19601f820116820180604052508101906112da919061267f565b9050806112fa576040516312171d8360e31b815260040160405180910390fd5b50505050565b61130861169c565b805f0361133557600554604051636b30633560e01b81526104a1916001600160a01b0316906004016124e3565b60035f9054906101000a90046001600160a01b03166001600160a01b031663edcf9c1f6040518163ffffffff1660e01b8152600401602060405180830381865afa158015611385573d5f5f3e3d5ffd5b505050506040513d601f19601f820116820180604052508101906113a9919061267f565b6113c6576040516312aecd8160e01b815260040160405180910390fd5b6005546040516323b872dd60e01b8152336004820152306024820152604481018390525f916001600160a01b0316906323b872dd906064016020604051808303815f875af115801561141a573d5f5f3e3d5ffd5b505050506040513d601f19601f8201168201806040525081019061143e919061267f565b90508061145e576040516312171d8360e31b815260040160405180910390fd5b600480546040516338b12abb60e21b81529182018490526001600160a01b03169063e2c4aaec906024015f604051808303815f87803b15801561149f575f5ffd5b505af11580156114b1573d5f5f3e3d5ffd5b505050505050565b600981815481106105a8575f80fd5b6003546001600160a01b031633146114f35760405163ea8e4eb560e01b815260040160405180910390fd5b6001600160a01b03811661151a5760405163d92e233d60e01b815260040160405180910390fd5b6001600160a01b0381165f8181526006602052604080822080546001600160a01b0319169055519091905f516020612af65f395f51905f52908390a350565b61156161169c565b8060ff165f03611584576040516317dbc4cb60e21b815260040160405180910390fd5b60035f9054906101000a90046001600160a01b03166001600160a01b031663edcf9c1f6040518163ffffffff1660e01b8152600401602060405180830381865afa1580156115d4573d5f5f3e3d5ffd5b505050506040513d601f19601f820116820180604052508101906115f8919061267f565b611615576040516312aecd8160e01b815260040160405180910390fd5b6007805460ff909216620100000262ff000019909216919091179055565b5f546001600160a01b031690565b600d8181548110610a91575f80fd5b600a8181548110610a91575f80fd5b61166761169c565b6001600160a01b038116611690575f604051631e4fbdf760e01b81526004016104a191906124e3565b61169981611eab565b50565b336116a5611633565b6001600160a01b031614611147573360405163118cdaa760e01b81526004016104a191906124e3565b6002600154036116f157604051633ee5aeb560e01b815260040160405180910390fd5b6002600155565b5f60045f9054906101000a90046001600160a01b03166001600160a01b03166314b19c5a6040518163ffffffff1660e01b8152600401602060405180830381865afa158015611749573d5f5f3e3d5ffd5b505050506040513d601f19601f8201168201806040525081019061176d9190612722565b6007549091506117829061ffff16600161277b565b61ffff168161ffff1610156117945750565b6007805461ffff191661ffff83161790556117b060095f6123d3565b6117bb600a5f6123d3565b6117c6600c5f6123d3565b6117d1600d5f6123d3565b6117dc600b5f6123d3565b6117e7600e5f6123d3565b5f600f8190556004805460408051631716e21f60e11b815290516001600160a01b0390921693632e2dc43e938281019391928290030181865afa158015611830573d5f5f3e3d5ffd5b505050506040513d5f823e601f3d908101601f1916820160405261185791908101906128cf565b60095f600a5f600c5f600d5f600b5f600e5f8c91905090805190602001906118809291906123ee565b50508a51611893919060208d01906123ee565b505089516118a6919060208c01906123ee565b505088516118b9919060208b0190612437565b505087516118cc919060208a01906123ee565b505086516118df91906020890190612437565b50506007805463ff0000001916630100000017905550506009545f039250611699915050576007805463ff00000019166302000000179055600c545f0361169957506007805463ff00000019169055565b60016007546301000000900460ff166003811115611950576119506124b5565b1461196e5760405163baf3f0f760e01b815260040160405180910390fd5b6007805460049061198890600160201b900460ff166129df565b91906101000a81548160ff021916908360ff1602179055505f600760029054906101000a900460ff16826119bc91906129fd565b60075460ff91821692505f916119d991620100009004168361277b565b60095490915061ffff821611806119f5575060095461ffff8216145b15611a1357506009546007805464ffff000000191663020000001790555b815b8161ffff168161ffff1610156112fa575f60098261ffff1681548110611a3d57611a3d612a20565b5f918252602090912001546005546001600160a01b039182169250168103611a655750611ab5565b5f600a8361ffff1681548110611a7d57611a7d612a20565b905f5260205f2001549050611ab28282600b8661ffff1681548110611aa457611aa4612a20565b905f5260205f200154611efa565b50505b600101611a15565b60026007546301000000900460ff166003811115611add57611add6124b5565b14611afb5760405163baf3f0f760e01b815260040160405180910390fd5b60078054600490611b1590600160201b900460ff166129df565b91906101000a81548160ff021916908360ff1602179055505f600760029054906101000a900460ff1682611b4991906129fd565b60075460ff91821692505f91611b6691620100009004168361277b565b600c5490915061ffff82161180611b825750600c5461ffff8216145b15611ba05750600c546007805464ffff000000191663030000001790555b815b8161ffff168161ffff161015611c4a575f600c8261ffff1681548110611bca57611bca612a20565b5f918252602090912001546005546001600160a01b039182169250168103611bf25750611c42565b5f600d8361ffff1681548110611c0a57611c0a612a20565b905f5260205f2001549050611c3f8282600e8661ffff1681548110611c3157611c31612a20565b905f5260205f2001546120a8565b50505b600101611ba2565b50600c5461ffff8216036108185760048054600f546040516338b12abb60e21b8152928301526001600160a01b03169063e2c4aaec906024015f604051808303815f87803b158015611c9a575f5ffd5b505af1158015611cac573d5f5f3e3d5ffd5b50505050505050565b60036007546301000000900460ff166003811115611cd557611cd56124b5565b14611cf35760405163baf3f0f760e01b815260040160405180910390fd5b6007805463ff00000019169055600354604051631da09e4360e31b81525f916001600160a01b03169063ed04f21890611d30908490600401612a34565b5f60405180830381865afa158015611d4a573d5f5f3e3d5ffd5b505050506040513d5f823e601f3d908101601f19168201604052611d719190810190612a48565b90505f5b81518161ffff161015610595575f828261ffff1681518110611d9957611d99612a20565b6020908102919091010151600480546040516309958e4960e11b81529293505f926001600160a01b039091169163132b1c9291611dd8918691016124e3565b602060405180830381865afa158015611df3573d5f5f3e3d5ffd5b505050506040513d601f19601f82011682018060405250810190611e17919061269e565b6004805460405163e2638ff160e01b81529293505f926001600160a01b039091169163e2638ff191611e4b918791016124e3565b602060405180830381865afa158015611e66573d5f5f3e3d5ffd5b505050506040513d601f19601f82011682018060405250810190611e8a919061269e565b9050611e9783838361224a565b50505080611ea490612a81565b9050611d75565b5f80546001600160a01b038381166001600160a01b0319831681178455604051919092169283917f8be0079c531659141344cd1fd0a4f28419497f9722a3daafe3b4186f6b6457e09190a35050565b6001600160a01b038084165f908152600660205260409020541680611f3257604051635048c2af60e11b815260040160405180910390fd5b60405163095ea7b360e01b81526001600160a01b0385169063095ea7b390611f609084905f90600401612666565b6020604051808303815f875af1158015611f7c573d5f5f3e3d5ffd5b505050506040513d601f19601f82011682018060405250810190611fa0919061267f565b5060405163095ea7b360e01b81526001600160a01b0385169063095ea7b390611fcf9084908790600401612666565b6020604051808303815f875af1158015611feb573d5f5f3e3d5ffd5b505050506040513d601f19601f8201168201806040525081019061200f919061267f565b50604051636c197ff560e01b81525f906001600160a01b03831690636c197ff5906120409088908890600401612666565b6020604051808303815f875af115801561205c573d5f5f3e3d5ffd5b505050506040513d601f19601f82011682018060405250810190612080919061269e565b905061208c8382612a98565b600f5f82825461209c9190612ab7565b90915550505050505050565b6001600160a01b038084165f9081526006602052604090205416806120e057604051635048c2af60e11b815260040160405180910390fd5b60055460405163095ea7b360e01b81526001600160a01b039091169063095ea7b3906121129084905f90600401612666565b6020604051808303815f875af115801561212e573d5f5f3e3d5ffd5b505050506040513d601f19601f82011682018060405250810190612152919061267f565b506005546001600160a01b031663095ea7b382612170856002612ade565b6040518363ffffffff1660e01b815260040161218d929190612666565b6020604051808303815f875af11580156121a9573d5f5f3e3d5ffd5b505050506040513d601f19601f820116820180604052508101906121cd919061267f565b5060405163cce7ec1360e01b81525f906001600160a01b0383169063cce7ec13906121fe9088908890600401612666565b6020604051808303815f875af115801561221a573d5f5f3e3d5ffd5b505050506040513d601f19601f8201168201806040525081019061223e919061269e565b905061208c8184612a98565b5f8390505f816001600160a01b031663f64c6f326040518163ffffffff1660e01b8152600401602060405180830381865afa15801561228b573d5f5f3e3d5ffd5b505050506040513d601f19601f820116820180604052508101906122af919061269e565b90505f826001600160a01b0316630a605c6d6040518163ffffffff1660e01b8152600401602060405180830381865afa1580156122ee573d5f5f3e3d5ffd5b505050506040513d601f19601f82011682018060405250810190612312919061269e565b905081156123705760405163e5e9719360e01b8152600481018690526001600160a01b0384169063e5e97193906024015f604051808303815f87803b158015612359575f5ffd5b505af115801561236b573d5f5f3e3d5ffd5b505050505b80156114b15760405163493a6e2160e01b8152600481018590526001600160a01b0384169063493a6e21906024015f604051808303815f87803b1580156123b5575f5ffd5b505af11580156123c7573d5f5f3e3d5ffd5b50505050505050505050565b5080545f8255905f5260205f2090810190611699919061248a565b828054828255905f5260205f20908101928215612427579160200282015b8281111561242757825182559160200191906001019061240c565b5061243392915061248a565b5090565b828054828255905f5260205f20908101928215612427579160200282015b8281111561242757825182546001600160a01b0319166001600160a01b03909116178255602090920191600190910190612455565b5b80821115612433575f815560010161248b565b5f602082840312156124ae575f5ffd5b5035919050565b634e487b7160e01b5f52602160045260245ffd5b60208101600483106124dd576124dd6124b5565b91905290565b6001600160a01b0391909116815260200190565b6001600160a01b0381168114611699575f5ffd5b5f6020828403121561251b575f5ffd5b8135612526816124f7565b9392505050565b5f5f6020838503121561253e575f5ffd5b82356001600160401b03811115612553575f5ffd5b8301601f81018513612563575f5ffd5b80356001600160401b03811115612578575f5ffd5b856020828401011115612589575f5ffd5b6020919091019590945092505050565b5f5f604083850312156125aa575f5ffd5b82356125b5816124f7565b946020939093013593505050565b5f5f604083850312156125d4575f5ffd5b82356125df816124f7565b915060208301356125ef816124f7565b809150509250929050565b8215158152604060208201525f82518060408401528060208501606085015e5f606082850101526060601f19601f8301168401019150509392505050565b803560ff81168114612648575f5ffd5b919050565b5f6020828403121561265d575f5ffd5b61252682612638565b6001600160a01b03929092168252602082015260400190565b5f6020828403121561268f575f5ffd5b81518015158114612526575f5ffd5b5f602082840312156126ae575f5ffd5b5051919050565b634e487b7160e01b5f52601160045260245ffd5b5f600160ff1b82016126dd576126dd6126b5565b505f0390565b5f5f604083850312156126f4575f5ffd5b82356001600160e01b03198116811461270b575f5ffd5b915061271960208401612638565b90509250929050565b5f60208284031215612732575f5ffd5b815161ffff81168114612526575f5ffd5b6001600160e01b031992909216825260ff16602082015260400190565b5f60208284031215612770575f5ffd5b8151612526816124f7565b61ffff8181168382160190811115612795576127956126b5565b92915050565b634e487b7160e01b5f52604160045260245ffd5b604051601f8201601f191681016001600160401b03811182821017156127d7576127d761279b565b604052919050565b5f6001600160401b038211156127f7576127f761279b565b5060051b60200190565b5f82601f830112612810575f5ffd5b815161282361281e826127df565b6127af565b8082825260208201915060208360051b860101925085831115612844575f5ffd5b602085015b8381101561286a57805161285c816124f7565b835260209283019201612849565b5095945050505050565b5f82601f830112612883575f5ffd5b815161289161281e826127df565b8082825260208201915060208360051b8601019250858311156128b2575f5ffd5b602085015b8381101561286a5780518352602092830192016128b7565b5f5f5f5f5f5f60c087890312156128e4575f5ffd5b86516001600160401b038111156128f9575f5ffd5b61290589828a01612801565b602089015190975090506001600160401b03811115612922575f5ffd5b61292e89828a01612874565b604089015190965090506001600160401b0381111561294b575f5ffd5b61295789828a01612801565b606089015190955090506001600160401b03811115612974575f5ffd5b61298089828a01612874565b608089015190945090506001600160401b0381111561299d575f5ffd5b6129a989828a01612874565b60a089015190935090506001600160401b038111156129c6575f5ffd5b6129d289828a01612874565b9150509295509295509295565b5f60ff821660ff81036129f4576129f46126b5565b60010192915050565b60ff8181168382160290811690818114612a1957612a196126b5565b5092915050565b634e487b7160e01b5f52603260045260245ffd5b60208101600283106124dd576124dd6124b5565b5f60208284031215612a58575f5ffd5b81516001600160401b03811115612a6d575f5ffd5b612a7984828501612801565b949350505050565b5f61ffff821661ffff81036129f4576129f46126b5565b8181035f831280158383131683831282161715612a1957612a196126b5565b8082018281125f831280158216821582161715612ad657612ad66126b5565b505092915050565b8082028115828204841417612795576127956126b556fe2f2727c7b3d9ee55de5c114f0cb7997ac7251a4cbfca4f2b2dc6969d86cce4f4a2646970667358221220780636bbb1c3e9fca8b689334f9dcbb32616748cbe4dabbbcb643790614e9fa964736f6c634300081c0033",
  "linkReferences": {},
  "deployedLinkReferences": {}
}