{
  "_format": "hh-sol-artifact-1",
  "contractName": "LiquidityOrchestrator",
  "sourceName": "contracts/orchestrators/LiquidityOrchestrator.sol",
  "abi": [
    {
      "inputs": [
        {
          "internalType": "address",
          "name": "initialOwner",
          "type": "address"
        },
        {
          "internalType": "address",
          "name": "config_",
          "type": "address"
        },
        {
          "internalType": "address",
          "name": "automationRegistry_",
          "type": "address"
        }
      ],
      "stateMutability": "nonpayable",
      "type": "constructor"
    },
    {
      "inputs": [],
      "name": "AdapterNotSet",
      "type": "error"
    },
    {
      "inputs": [],
      "name": "AlreadyRegistered",
      "type": "error"
    },
    {
      "inputs": [
        {
          "internalType": "address",
          "name": "asset",
          "type": "address"
        }
      ],
      "name": "AmountMustBeGreaterThanZero",
      "type": "error"
    },
    {
      "inputs": [],
      "name": "InsufficientAmount",
      "type": "error"
    },
    {
      "inputs": [],
      "name": "InvalidArguments",
      "type": "error"
    },
    {
      "inputs": [],
      "name": "InvalidState",
      "type": "error"
    },
    {
      "inputs": [],
      "name": "NotAuthorized",
      "type": "error"
    },
    {
      "inputs": [
        {
          "internalType": "address",
          "name": "owner",
          "type": "address"
        }
      ],
      "name": "OwnableInvalidOwner",
      "type": "error"
    },
    {
      "inputs": [
        {
          "internalType": "address",
          "name": "account",
          "type": "address"
        }
      ],
      "name": "OwnableUnauthorizedAccount",
      "type": "error"
    },
    {
      "inputs": [],
      "name": "ReentrancyGuardReentrantCall",
      "type": "error"
    },
    {
      "inputs": [
        {
          "internalType": "address",
          "name": "token",
          "type": "address"
        }
      ],
      "name": "SafeERC20FailedOperation",
      "type": "error"
    },
    {
      "inputs": [],
      "name": "SystemNotIdle",
      "type": "error"
    },
    {
      "inputs": [],
      "name": "TransferFailed",
      "type": "error"
    },
    {
      "inputs": [],
      "name": "ZeroAddress",
      "type": "error"
    },
    {
      "anonymous": false,
      "inputs": [
        {
          "indexed": true,
          "internalType": "address",
          "name": "newAutomationRegistry",
          "type": "address"
        }
      ],
      "name": "AutomationRegistryUpdated",
      "type": "event"
    },
    {
      "anonymous": false,
      "inputs": [
        {
          "indexed": true,
          "internalType": "address",
          "name": "asset",
          "type": "address"
        },
        {
          "indexed": true,
          "internalType": "address",
          "name": "adapter",
          "type": "address"
        }
      ],
      "name": "ExecutionAdapterSet",
      "type": "event"
    },
    {
      "anonymous": false,
      "inputs": [
        {
          "indexed": true,
          "internalType": "address",
          "name": "previousOwner",
          "type": "address"
        },
        {
          "indexed": true,
          "internalType": "address",
          "name": "newOwner",
          "type": "address"
        }
      ],
      "name": "OwnershipTransferred",
      "type": "event"
    },
    {
      "anonymous": false,
      "inputs": [],
      "name": "PortfolioRebalanced",
      "type": "event"
    },
    {
      "inputs": [],
      "name": "automationRegistry",
      "outputs": [
        {
          "internalType": "address",
          "name": "",
          "type": "address"
        }
      ],
      "stateMutability": "view",
      "type": "function"
    },
    {
      "inputs": [
        {
          "internalType": "uint256",
          "name": "",
          "type": "uint256"
        }
      ],
      "name": "buyingAmounts",
      "outputs": [
        {
          "internalType": "uint256",
          "name": "",
          "type": "uint256"
        }
      ],
      "stateMutability": "view",
      "type": "function"
    },
    {
      "inputs": [
        {
          "internalType": "uint256",
          "name": "",
          "type": "uint256"
        }
      ],
      "name": "buyingEstimatedUnderlyingAmounts",
      "outputs": [
        {
          "internalType": "uint256",
          "name": "",
          "type": "uint256"
        }
      ],
      "stateMutability": "view",
      "type": "function"
    },
    {
      "inputs": [
        {
          "internalType": "uint256",
          "name": "",
          "type": "uint256"
        }
      ],
      "name": "buyingTokens",
      "outputs": [
        {
          "internalType": "address",
          "name": "",
          "type": "address"
        }
      ],
      "stateMutability": "view",
      "type": "function"
    },
    {
      "inputs": [
        {
          "internalType": "bytes",
          "name": "",
          "type": "bytes"
        }
      ],
      "name": "checkUpkeep",
      "outputs": [
        {
          "internalType": "bool",
          "name": "upkeepNeeded",
          "type": "bool"
        },
        {
          "internalType": "bytes",
          "name": "performData",
          "type": "bytes"
        }
      ],
      "stateMutability": "view",
      "type": "function"
    },
    {
      "inputs": [
        {
          "internalType": "uint256",
          "name": "amount",
          "type": "uint256"
        }
      ],
      "name": "claimProtocolFees",
      "outputs": [],
      "stateMutability": "nonpayable",
      "type": "function"
    },
    {
      "inputs": [],
      "name": "config",
      "outputs": [
        {
          "internalType": "contract IOrionConfig",
          "name": "",
          "type": "address"
        }
      ],
      "stateMutability": "view",
      "type": "function"
    },
    {
      "inputs": [],
      "name": "currentMinibatchIndex",
      "outputs": [
        {
          "internalType": "uint8",
          "name": "",
          "type": "uint8"
        }
      ],
      "stateMutability": "view",
      "type": "function"
    },
    {
      "inputs": [],
      "name": "currentPhase",
      "outputs": [
        {
          "internalType": "enum ILiquidityOrchestrator.LiquidityUpkeepPhase",
          "name": "",
          "type": "uint8"
        }
      ],
      "stateMutability": "view",
      "type": "function"
    },
    {
      "inputs": [],
      "name": "deltaBufferAmount",
      "outputs": [
        {
          "internalType": "int256",
          "name": "",
          "type": "int256"
        }
      ],
      "stateMutability": "view",
      "type": "function"
    },
    {
      "inputs": [
        {
          "internalType": "uint256",
          "name": "amount",
          "type": "uint256"
        }
      ],
      "name": "depositLiquidity",
      "outputs": [],
      "stateMutability": "nonpayable",
      "type": "function"
    },
    {
      "inputs": [
        {
          "internalType": "address",
          "name": "",
          "type": "address"
        }
      ],
      "name": "executionAdapterOf",
      "outputs": [
        {
          "internalType": "contract IExecutionAdapter",
          "name": "",
          "type": "address"
        }
      ],
      "stateMutability": "view",
      "type": "function"
    },
    {
      "inputs": [],
      "name": "executionMinibatchSize",
      "outputs": [
        {
          "internalType": "uint8",
          "name": "",
          "type": "uint8"
        }
      ],
      "stateMutability": "view",
      "type": "function"
    },
    {
      "inputs": [],
      "name": "internalStatesOrchestrator",
      "outputs": [
        {
          "internalType": "contract IInternalStateOrchestrator",
          "name": "",
          "type": "address"
        }
      ],
      "stateMutability": "view",
      "type": "function"
    },
    {
      "inputs": [],
      "name": "lastProcessedEpoch",
      "outputs": [
        {
          "internalType": "uint16",
          "name": "",
          "type": "uint16"
        }
      ],
      "stateMutability": "view",
      "type": "function"
    },
    {
      "inputs": [],
      "name": "owner",
      "outputs": [
        {
          "internalType": "address",
          "name": "",
          "type": "address"
        }
      ],
      "stateMutability": "view",
      "type": "function"
    },
    {
      "inputs": [
        {
          "internalType": "bytes",
          "name": "performData",
          "type": "bytes"
        }
      ],
      "name": "performUpkeep",
      "outputs": [],
      "stateMutability": "nonpayable",
      "type": "function"
    },
    {
      "inputs": [],
      "name": "renounceOwnership",
      "outputs": [],
      "stateMutability": "nonpayable",
      "type": "function"
    },
    {
      "inputs": [
        {
          "internalType": "address",
          "name": "user",
          "type": "address"
        },
        {
          "internalType": "uint256",
          "name": "amount",
          "type": "uint256"
        }
      ],
      "name": "returnDepositFunds",
      "outputs": [],
      "stateMutability": "nonpayable",
      "type": "function"
    },
    {
      "inputs": [
        {
          "internalType": "uint256",
          "name": "",
          "type": "uint256"
        }
      ],
      "name": "sellingAmounts",
      "outputs": [
        {
          "internalType": "uint256",
          "name": "",
          "type": "uint256"
        }
      ],
      "stateMutability": "view",
      "type": "function"
    },
    {
      "inputs": [
        {
          "internalType": "uint256",
          "name": "",
          "type": "uint256"
        }
      ],
      "name": "sellingEstimatedUnderlyingAmounts",
      "outputs": [
        {
          "internalType": "uint256",
          "name": "",
          "type": "uint256"
        }
      ],
      "stateMutability": "view",
      "type": "function"
    },
    {
      "inputs": [
        {
          "internalType": "uint256",
          "name": "",
          "type": "uint256"
        }
      ],
      "name": "sellingTokens",
      "outputs": [
        {
          "internalType": "address",
          "name": "",
          "type": "address"
        }
      ],
      "stateMutability": "view",
      "type": "function"
    },
    {
      "inputs": [
        {
          "internalType": "address",
          "name": "asset",
          "type": "address"
        },
        {
          "internalType": "contract IExecutionAdapter",
          "name": "adapter",
          "type": "address"
        }
      ],
      "name": "setExecutionAdapter",
      "outputs": [],
      "stateMutability": "nonpayable",
      "type": "function"
    },
    {
      "inputs": [
        {
          "internalType": "address",
          "name": "_internalStatesOrchestrator",
          "type": "address"
        }
      ],
      "name": "setInternalStatesOrchestrator",
      "outputs": [],
      "stateMutability": "nonpayable",
      "type": "function"
    },
    {
      "inputs": [
        {
          "internalType": "uint256",
          "name": "_targetBufferRatio",
          "type": "uint256"
        }
      ],
      "name": "setTargetBufferRatio",
      "outputs": [],
      "stateMutability": "nonpayable",
      "type": "function"
    },
    {
      "inputs": [],
      "name": "targetBufferRatio",
      "outputs": [
        {
          "internalType": "uint256",
          "name": "",
          "type": "uint256"
        }
      ],
      "stateMutability": "view",
      "type": "function"
    },
    {
      "inputs": [
        {
          "internalType": "uint256",
          "name": "amount",
          "type": "uint256"
        }
      ],
      "name": "transferCuratorFees",
      "outputs": [],
      "stateMutability": "nonpayable",
      "type": "function"
    },
    {
      "inputs": [
        {
          "internalType": "address",
          "name": "newOwner",
          "type": "address"
        }
      ],
      "name": "transferOwnership",
      "outputs": [],
      "stateMutability": "nonpayable",
      "type": "function"
    },
    {
      "inputs": [
        {
          "internalType": "address",
          "name": "user",
          "type": "address"
        },
        {
          "internalType": "uint256",
          "name": "amount",
          "type": "uint256"
        }
      ],
      "name": "transferRedemptionFunds",
      "outputs": [],
      "stateMutability": "nonpayable",
      "type": "function"
    },
    {
      "inputs": [],
      "name": "underlyingAsset",
      "outputs": [
        {
          "internalType": "address",
          "name": "",
          "type": "address"
        }
      ],
      "stateMutability": "view",
      "type": "function"
    },
    {
      "inputs": [
        {
          "internalType": "address",
          "name": "newAutomationRegistry",
          "type": "address"
        }
      ],
      "name": "updateAutomationRegistry",
      "outputs": [],
      "stateMutability": "nonpayable",
      "type": "function"
    },
    {
      "inputs": [
        {
          "internalType": "uint8",
          "name": "_executionMinibatchSize",
          "type": "uint8"
        }
      ],
      "name": "updateExecutionMinibatchSize",
      "outputs": [],
      "stateMutability": "nonpayable",
      "type": "function"
    },
    {
      "inputs": [
        {
          "internalType": "uint256",
          "name": "assets",
          "type": "uint256"
        },
        {
          "internalType": "address",
          "name": "receiver",
          "type": "address"
        }
      ],
      "name": "withdraw",
      "outputs": [],
      "stateMutability": "nonpayable",
      "type": "function"
    },
    {
      "inputs": [
        {
          "internalType": "uint256",
          "name": "amount",
          "type": "uint256"
        }
      ],
      "name": "withdrawLiquidity",
      "outputs": [],
      "stateMutability": "nonpayable",
      "type": "function"
    }
  ],
  "bytecode": "0x608060405234801561000f575f5ffd5b50604051612ed3380380612ed383398101604081905261002e916101e3565b826001600160a01b03811661005c57604051631e4fbdf760e01b81525f600482015260240160405180910390fd5b6100658161017d565b50600180556001600160a01b0382166100915760405163d92e233d60e01b815260040160405180910390fd5b6001600160a01b0381166100b85760405163d92e233d60e01b815260040160405180910390fd5b600380546001600160a01b0319166001600160a01b03841690811790915560408051631c56369f60e21b81529051637158da7c916004808201926020929091908290030181865afa15801561010f573d5f5f3e3d5ffd5b505050506040513d601f19601f82011682018060405250810190610133919061022d565b600580546001600160a01b03199081166001600160a01b0393841617909155600280549091169290911691909117905550506007805464ffffffffff19166201000017905561024f565b5f80546001600160a01b038381166001600160a01b0319831681178455604051919092169283917f8be0079c531659141344cd1fd0a4f28419497f9722a3daafe3b4186f6b6457e09190a35050565b6001600160a01b03811681146101e0575f5ffd5b50565b5f5f5f606084860312156101f5575f5ffd5b8351610200816101cc565b6020850151909350610211816101cc565b6040850151909250610222816101cc565b809150509250925092565b5f6020828403121561023d575f5ffd5b8151610248816101cc565b9392505050565b612c778061025c5f395ff3fe608060405234801561000f575f5ffd5b5060043610610193575f3560e01c8062f714ce1461019757806301c621c1146101ac578063055ad42e146101bf57806309f2e19c146101e95780630a861f2a146102095780630a8b78c71461021c57806314b5d07f1461022f5780633369921a14610242578063348ec5c8146102595780633af2a8c01461026c5780633e765a9e1461027f5780634585e33b146102925780634adfc2e7146102a557806351edffb1146102b857806352e899fd146102cb5780635488cd62146102de57806357be01c11461030457806359017aa9146103175780635dc228a01461032a5780636e04ff0d1461033d578063715018a61461035e5780637158da7c14610366578063741fca4b1461037957806376d58e1a1461038c57806379502c551461039f5780638157c1ab146103b25780638a0b0d38146103c55780638da5cb5b146103d8578063bc504975146103e0578063be1b26a4146103f3578063d3f3506d14610406578063dab26e3b1461042e578063ee6713df14610437578063f2fde38b14610458575b5f5ffd5b6101aa6101a53660046125db565b61046b565b005b6101aa6101ba366004612609565b610513565b6007546101d3906301000000900460ff1681565b6040516101e09190612634565b60405180910390f35b6101fc6101f7366004612609565b610640565b6040516101e0919061264e565b6101aa610217366004612609565b610668565b6101aa61022a366004612662565b6108bf565b6101aa61023d366004612662565b61093a565b61024b600f5481565b6040519081526020016101e0565b6004546101fc906001600160a01b031681565b6101aa61027a366004612609565b610a43565b61024b61028d366004612609565b610b24565b6101aa6102a0366004612684565b610b43565b6101aa6102b33660046126f0565b610c8c565b6101aa6102c63660046126f0565b610d77565b61024b6102d9366004612609565b610e03565b6007546102f290600160201b900460ff1681565b60405160ff90911681526020016101e0565b6007546102f29062010000900460ff1681565b6101aa61032536600461271a565b610e12565b6002546101fc906001600160a01b031681565b61035061034b366004612684565b610f26565b6040516101e0929190612746565b6101aa6111bb565b6005546101fc906001600160a01b031681565b6101aa610387366004612609565b6111ce565b6101aa61039a366004612609565b6113ff565b6003546101fc906001600160a01b031681565b6101fc6103c0366004612609565b6115b8565b6101aa6103d3366004612799565b6115c7565b6101fc6116a1565b61024b6103ee366004612609565b6116af565b61024b610401366004612609565b6116be565b6101fc610414366004612662565b60066020525f90815260409020546001600160a01b031681565b61024b60085481565b6007546104459061ffff1681565b60405161ffff90911681526020016101e0565b6101aa610466366004612662565b6116cd565b60035460405163f764eb4560e01b815233916001600160a01b03169063f764eb459061049b90849060040161264e565b602060405180830381865afa1580156104b6573d5f5f3e3d5ffd5b505050506040513d601f19601f820116820180604052508101906104da91906127b2565b6104f75760405163ea8e4eb560e01b815260040160405180910390fd5b60055461050e906001600160a01b0316838561170a565b505050565b61051b611762565b805f0361055157600554604051636b30633560e01b8152610548916001600160a01b03169060040161264e565b60405180910390fd5b60048054604051637060444560e01b81529182018390526001600160a01b0316906370604445906024015f604051808303815f87803b158015610592575f5ffd5b505af11580156105a4573d5f5f3e3d5ffd5b505060055460405163a9059cbb60e01b81525f93506001600160a01b03909116915063a9059cbb906105dc90339086906004016127d1565b6020604051808303815f875af11580156105f8573d5f5f3e3d5ffd5b505050506040513d601f19601f8201168201806040525081019061061c91906127b2565b90508061063c576040516312171d8360e31b815260040160405180910390fd5b5050565b600c818154811061064f575f80fd5b5f918252602090912001546001600160a01b0316905081565b610670611762565b805f0361069d57600554604051636b30633560e01b8152610548916001600160a01b03169060040161264e565b60035f9054906101000a90046001600160a01b03166001600160a01b031663edcf9c1f6040518163ffffffff1660e01b8152600401602060405180830381865afa1580156106ed573d5f5f3e3d5ffd5b505050506040513d601f19601f8201168201806040525081019061071191906127b2565b61072e576040516312aecd8160e01b815260040160405180910390fd5b5f60045f9054906101000a90046001600160a01b03166001600160a01b031663c18e2a5c6040518163ffffffff1660e01b8152600401602060405180830381865afa15801561077f573d5f5f3e3d5ffd5b505050506040513d601f19601f820116820180604052508101906107a391906127ea565b9050808211156107c657604051632ca2f52b60e11b815260040160405180910390fd5b6004546001600160a01b031663e2c4aaec6107e084612815565b6040518263ffffffff1660e01b81526004016107fe91815260200190565b5f604051808303815f87803b158015610815575f5ffd5b505af1158015610827573d5f5f3e3d5ffd5b505060055460405163a9059cbb60e01b81525f93506001600160a01b03909116915063a9059cbb9061085f90339087906004016127d1565b6020604051808303815f875af115801561087b573d5f5f3e3d5ffd5b505050506040513d601f19601f8201168201806040525081019061089f91906127b2565b90508061050e576040516312171d8360e31b815260040160405180910390fd5b6108c7611762565b6001600160a01b0381166108ee5760405163d92e233d60e01b815260040160405180910390fd5b6004546001600160a01b03161561091857604051630ea075bf60e21b815260040160405180910390fd5b600480546001600160a01b0319166001600160a01b0392909216919091179055565b610942611762565b6001600160a01b0381166109695760405163d92e233d60e01b815260040160405180910390fd5b60035f9054906101000a90046001600160a01b03166001600160a01b031663edcf9c1f6040518163ffffffff1660e01b8152600401602060405180830381865afa1580156109b9573d5f5f3e3d5ffd5b505050506040513d601f19601f820116820180604052508101906109dd91906127b2565b6109fa576040516312aecd8160e01b815260040160405180910390fd5b600280546001600160a01b0319166001600160a01b0383169081179091556040517f6cc7ebdb6c8c53291c5ae16148cab9b049d23bf5bde5632900b40edff56fcb43905f90a250565b610a4b611762565b805f03610a6b576040516317dbc4cb60e21b815260040160405180910390fd5b6101f4811115610a8e576040516317dbc4cb60e21b815260040160405180910390fd5b60035f9054906101000a90046001600160a01b03166001600160a01b031663edcf9c1f6040518163ffffffff1660e01b8152600401602060405180830381865afa158015610ade573d5f5f3e3d5ffd5b505050506040513d601f19601f82011682018060405250810190610b0291906127b2565b610b1f576040516312aecd8160e01b815260040160405180910390fd5b600855565b600e8181548110610b33575f80fd5b5f91825260209091200154905081565b610b4b6116a1565b6001600160a01b0316336001600160a01b031614158015610b7757506002546001600160a01b03163314155b15610b955760405163ea8e4eb560e01b815260040160405180910390fd5b610b9d611794565b6005811015610bbf576040516317dbc4cb60e21b815260040160405180910390fd5b5f80610bcd8385018561282f565b90925090506341659aab60e01b6001600160e01b0319831601610bf757610bf26117be565b610c59565b63100597e960e31b6001600160e01b0319831601610c1857610bf2816119f6565b63302c6bef60e21b6001600160e01b0319831601610c3957610bf281611b83565b6301c7bbc160e21b6001600160e01b0319831601610c5957610c59611d7b565b6040517ff0094b59b7bc92e9fc611b14b5d3a34fe02530ac9bcf36c2c6f10147c3030c12905f90a1505061063c60018055565b600354604051633821dad160e21b81526001600160a01b039091169063e0876b4490610cbc90339060040161264e565b602060405180830381865afa158015610cd7573d5f5f3e3d5ffd5b505050506040513d601f19601f82011682018060405250810190610cfb91906127b2565b610d185760405163ea8e4eb560e01b815260040160405180910390fd5b805f03610d4557600554604051636b30633560e01b8152610548916001600160a01b03169060040161264e565b60055460405163a9059cbb60e01b81525f916001600160a01b03169063a9059cbb9061085f90869086906004016127d1565b600354604051633821dad160e21b81526001600160a01b039091169063e0876b4490610da790339060040161264e565b602060405180830381865afa158015610dc2573d5f5f3e3d5ffd5b505050506040513d601f19601f82011682018060405250810190610de691906127b2565b610d455760405163ea8e4eb560e01b815260040160405180910390fd5b600b8181548110610b33575f80fd5b6003546001600160a01b03163314610e3d5760405163ea8e4eb560e01b815260040160405180910390fd5b6001600160a01b0382161580610e5a57506001600160a01b038116155b15610e785760405163d92e233d60e01b815260040160405180910390fd5b604051631ed3e4fb60e11b81526001600160a01b03821690633da7c9f690610ea490859060040161264e565b5f6040518083038186803b158015610eba575f5ffd5b505afa158015610ecc573d5f5f3e3d5ffd5b505050506001600160a01b038281165f8181526006602052604080822080546001600160a01b0319169486169485179055517f2f2727c7b3d9ee55de5c114f0cb7997ac7251a4cbfca4f2b2dc6969d86cce4f49190a35050565b5f606060035f9054906101000a90046001600160a01b03166001600160a01b031663edcf9c1f6040518163ffffffff1660e01b8152600401602060405180830381865afa158015610f79573d5f5f3e3d5ffd5b505050506040513d601f19601f82011682018060405250810190610f9d91906127b2565b801561101d57506007546004805460408051630a58ce2d60e11b8152905161ffff909416936001600160a01b03909216926314b19c5a9282820192602092908290030181865afa158015610ff3573d5f5f3e3d5ffd5b505050506040513d601f19601f82011682018060405250810190611017919061286e565b61ffff16115b1561106f57600191507fbe9a655586dceb82dfa0af992b5d8ae7fa45053cb7fd6f141f541da7572978c75f60405160200161105992919061288f565b60405160208183030381529060405290506111b4565b60016007546301000000900460ff16600381111561108f5761108f612620565b036110da57600191507f7fd340b8241a93f6a116f506d6171d4f585588564d777e1192babae55184f691600760049054906101000a900460ff1660405160200161105992919061288f565b60026007546301000000900460ff1660038111156110fa576110fa612620565b0361114557600191507f3f4e50448465d8594e91c1038b22f277808696956455dacacb66f00f4df0b3a2600760049054906101000a900460ff1660405160200161105992919061288f565b60036007546301000000900460ff16600381111561116557611165612620565b036111a157600191507ff8e110fcda2d74b2e1ced72f8e94b4510c922b70f786fd1064147a762fd812605f60405160200161105992919061288f565b505060408051602081019091525f808252905b9250929050565b6111c3611762565b6111cc5f611f71565b565b600354604051633821dad160e21b815233916001600160a01b03169063e0876b44906111fe90849060040161264e565b602060405180830381865afa158015611219573d5f5f3e3d5ffd5b505050506040513d601f19601f8201168201806040525081019061123d91906127b2565b1580156112b6575060035460405163f764eb4560e01b81526001600160a01b039091169063f764eb459061127590849060040161264e565b602060405180830381865afa158015611290573d5f5f3e3d5ffd5b505050506040513d601f19601f820116820180604052508101906112b491906127b2565b155b156112d45760405163ea8e4eb560e01b815260040160405180910390fd5b815f0361130157600554604051636b30633560e01b8152610548916001600160a01b03169060040161264e565b5f816001600160a01b0316631f52692b6040518163ffffffff1660e01b8152600401602060405180830381865afa15801561133e573d5f5f3e3d5ffd5b505050506040513d601f19601f8201168201806040525081019061136291906128ac565b60055460405163a9059cbb60e01b81529192505f916001600160a01b039091169063a9059cbb9061139990859088906004016127d1565b6020604051808303815f875af11580156113b5573d5f5f3e3d5ffd5b505050506040513d601f19601f820116820180604052508101906113d991906127b2565b9050806113f9576040516312171d8360e31b815260040160405180910390fd5b50505050565b611407611762565b805f0361143457600554604051636b30633560e01b8152610548916001600160a01b03169060040161264e565b60035f9054906101000a90046001600160a01b03166001600160a01b031663edcf9c1f6040518163ffffffff1660e01b8152600401602060405180830381865afa158015611484573d5f5f3e3d5ffd5b505050506040513d601f19601f820116820180604052508101906114a891906127b2565b6114c5576040516312aecd8160e01b815260040160405180910390fd5b6005546040516323b872dd60e01b8152336004820152306024820152604481018390525f916001600160a01b0316906323b872dd906064016020604051808303815f875af1158015611519573d5f5f3e3d5ffd5b505050506040513d601f19601f8201168201806040525081019061153d91906127b2565b90508061155d576040516312171d8360e31b815260040160405180910390fd5b600480546040516338b12abb60e21b81529182018490526001600160a01b03169063e2c4aaec906024015f604051808303815f87803b15801561159e575f5ffd5b505af11580156115b0573d5f5f3e3d5ffd5b505050505050565b6009818154811061064f575f80fd5b6115cf611762565b8060ff165f036115f2576040516317dbc4cb60e21b815260040160405180910390fd5b60035f9054906101000a90046001600160a01b03166001600160a01b031663edcf9c1f6040518163ffffffff1660e01b8152600401602060405180830381865afa158015611642573d5f5f3e3d5ffd5b505050506040513d601f19601f8201168201806040525081019061166691906127b2565b611683576040516312aecd8160e01b815260040160405180910390fd5b6007805460ff909216620100000262ff000019909216919091179055565b5f546001600160a01b031690565b600d8181548110610b33575f80fd5b600a8181548110610b33575f80fd5b6116d5611762565b6001600160a01b0381166116fe575f604051631e4fbdf760e01b8152600401610548919061264e565b61170781611f71565b50565b61050e83846001600160a01b031663a9059cbb85856040516024016117309291906127d1565b604051602081830303815290604052915060e01b6020820180516001600160e01b038381831617835250505050611fc0565b3361176b6116a1565b6001600160a01b0316146111cc573360405163118cdaa760e01b8152600401610548919061264e565b6002600154036117b757604051633ee5aeb560e01b815260040160405180910390fd5b6002600155565b5f60045f9054906101000a90046001600160a01b03166001600160a01b03166314b19c5a6040518163ffffffff1660e01b8152600401602060405180830381865afa15801561180f573d5f5f3e3d5ffd5b505050506040513d601f19601f82011682018060405250810190611833919061286e565b6007549091506118489061ffff1660016128c7565b61ffff168161ffff16101561185a5750565b6007805461ffff191661ffff831617905561187660095f6124fc565b611881600a5f6124fc565b61188c600c5f6124fc565b611897600d5f6124fc565b6118a2600b5f6124fc565b6118ad600e5f6124fc565b5f600f8190556004805460408051631716e21f60e11b815290516001600160a01b0390921693632e2dc43e938281019391928290030181865afa1580156118f6573d5f5f3e3d5ffd5b505050506040513d5f823e601f3d908101601f1916820160405261191d9190810190612a1b565b60095f600a5f600c5f600d5f600b5f600e5f8c9190509080519060200190611946929190612517565b50508a51611959919060208d0190612517565b5050895161196c919060208c0190612517565b5050885161197f919060208b0190612560565b50508751611992919060208a0190612517565b505086516119a591906020890190612560565b50506007805463ff0000001916630100000017905550506009545f039250611707915050576007805463ff00000019166302000000179055600c545f0361170757506007805463ff00000019169055565b60016007546301000000900460ff166003811115611a1657611a16612620565b14611a345760405163baf3f0f760e01b815260040160405180910390fd5b60078054600490611a4e90600160201b900460ff16612b2b565b91906101000a81548160ff021916908360ff1602179055505f600760029054906101000a900460ff1682611a829190612b49565b60075460ff91821692505f91611a9f9162010000900416836128c7565b60095490915061ffff82161180611abb575060095461ffff8216145b15611ad957506009546007805464ffff000000191663020000001790555b815b8161ffff168161ffff1610156113f9575f60098261ffff1681548110611b0357611b03612b6c565b5f918252602090912001546005546001600160a01b039182169250168103611b2b5750611b7b565b5f600a8361ffff1681548110611b4357611b43612b6c565b905f5260205f2001549050611b788282600b8661ffff1681548110611b6a57611b6a612b6c565b905f5260205f200154612023565b50505b600101611adb565b60026007546301000000900460ff166003811115611ba357611ba3612620565b14611bc15760405163baf3f0f760e01b815260040160405180910390fd5b60078054600490611bdb90600160201b900460ff16612b2b565b91906101000a81548160ff021916908360ff1602179055505f600760029054906101000a900460ff1682611c0f9190612b49565b60075460ff91821692505f91611c2c9162010000900416836128c7565b600c5490915061ffff82161180611c485750600c5461ffff8216145b15611c665750600c546007805464ffff000000191663030000001790555b815b8161ffff168161ffff161015611d10575f600c8261ffff1681548110611c9057611c90612b6c565b5f918252602090912001546005546001600160a01b039182169250168103611cb85750611d08565b5f600d8361ffff1681548110611cd057611cd0612b6c565b905f5260205f2001549050611d058282600e8661ffff1681548110611cf757611cf7612b6c565b905f5260205f2001546121d1565b50505b600101611c68565b50600c5461ffff82160361050e5760048054600f546040516338b12abb60e21b8152928301526001600160a01b03169063e2c4aaec906024015f604051808303815f87803b158015611d60575f5ffd5b505af1158015611d72573d5f5f3e3d5ffd5b50505050505050565b60036007546301000000900460ff166003811115611d9b57611d9b612620565b14611db95760405163baf3f0f760e01b815260040160405180910390fd5b6007805463ff00000019169055600354604051631da09e4360e31b81525f916001600160a01b03169063ed04f21890611df6908490600401612b80565b5f60405180830381865afa158015611e10573d5f5f3e3d5ffd5b505050506040513d5f823e601f3d908101601f19168201604052611e379190810190612b94565b90505f5b81518161ffff16101561063c575f828261ffff1681518110611e5f57611e5f612b6c565b6020908102919091010151600480546040516309958e4960e11b81529293505f926001600160a01b039091169163132b1c9291611e9e9186910161264e565b602060405180830381865afa158015611eb9573d5f5f3e3d5ffd5b505050506040513d601f19601f82011682018060405250810190611edd91906127ea565b6004805460405163e2638ff160e01b81529293505f926001600160a01b039091169163e2638ff191611f119187910161264e565b602060405180830381865afa158015611f2c573d5f5f3e3d5ffd5b505050506040513d601f19601f82011682018060405250810190611f5091906127ea565b9050611f5d838383612373565b50505080611f6a90612bcd565b9050611e3b565b5f80546001600160a01b038381166001600160a01b0319831681178455604051919092169283917f8be0079c531659141344cd1fd0a4f28419497f9722a3daafe3b4186f6b6457e09190a35050565b5f5f60205f8451602086015f885af180611fdf576040513d5f823e3d81fd5b50505f513d91508115611ff6578060011415612003565b6001600160a01b0384163b155b156113f95783604051635274afe760e01b8152600401610548919061264e565b6001600160a01b038084165f90815260066020526040902054168061205b57604051635048c2af60e11b815260040160405180910390fd5b60405163095ea7b360e01b81526001600160a01b0385169063095ea7b3906120899084905f906004016127d1565b6020604051808303815f875af11580156120a5573d5f5f3e3d5ffd5b505050506040513d601f19601f820116820180604052508101906120c991906127b2565b5060405163095ea7b360e01b81526001600160a01b0385169063095ea7b3906120f890849087906004016127d1565b6020604051808303815f875af1158015612114573d5f5f3e3d5ffd5b505050506040513d601f19601f8201168201806040525081019061213891906127b2565b50604051636c197ff560e01b81525f906001600160a01b03831690636c197ff59061216990889088906004016127d1565b6020604051808303815f875af1158015612185573d5f5f3e3d5ffd5b505050506040513d601f19601f820116820180604052508101906121a991906127ea565b90506121b58382612be4565b600f5f8282546121c59190612c03565b90915550505050505050565b6001600160a01b038084165f90815260066020526040902054168061220957604051635048c2af60e11b815260040160405180910390fd5b60055460405163095ea7b360e01b81526001600160a01b039091169063095ea7b39061223b9084905f906004016127d1565b6020604051808303815f875af1158015612257573d5f5f3e3d5ffd5b505050506040513d601f19601f8201168201806040525081019061227b91906127b2565b506005546001600160a01b031663095ea7b382612299856002612c2a565b6040518363ffffffff1660e01b81526004016122b69291906127d1565b6020604051808303815f875af11580156122d2573d5f5f3e3d5ffd5b505050506040513d601f19601f820116820180604052508101906122f691906127b2565b5060405163cce7ec1360e01b81525f906001600160a01b0383169063cce7ec139061232790889088906004016127d1565b6020604051808303815f875af1158015612343573d5f5f3e3d5ffd5b505050506040513d601f19601f8201168201806040525081019061236791906127ea565b90506121b58184612be4565b5f8390505f816001600160a01b031663f64c6f326040518163ffffffff1660e01b8152600401602060405180830381865afa1580156123b4573d5f5f3e3d5ffd5b505050506040513d601f19601f820116820180604052508101906123d891906127ea565b90505f826001600160a01b0316630a605c6d6040518163ffffffff1660e01b8152600401602060405180830381865afa158015612417573d5f5f3e3d5ffd5b505050506040513d601f19601f8201168201806040525081019061243b91906127ea565b905081156124995760405163e5e9719360e01b8152600481018690526001600160a01b0384169063e5e97193906024015f604051808303815f87803b158015612482575f5ffd5b505af1158015612494573d5f5f3e3d5ffd5b505050505b80156115b05760405163493a6e2160e01b8152600481018590526001600160a01b0384169063493a6e21906024015f604051808303815f87803b1580156124de575f5ffd5b505af11580156124f0573d5f5f3e3d5ffd5b50505050505050505050565b5080545f8255905f5260205f209081019061170791906125b3565b828054828255905f5260205f20908101928215612550579160200282015b82811115612550578251825591602001919060010190612535565b5061255c9291506125b3565b5090565b828054828255905f5260205f20908101928215612550579160200282015b8281111561255057825182546001600160a01b0319166001600160a01b0390911617825560209092019160019091019061257e565b5b8082111561255c575f81556001016125b4565b6001600160a01b0381168114611707575f5ffd5b5f5f604083850312156125ec575f5ffd5b8235915060208301356125fe816125c7565b809150509250929050565b5f60208284031215612619575f5ffd5b5035919050565b634e487b7160e01b5f52602160045260245ffd5b602081016004831061264857612648612620565b91905290565b6001600160a01b0391909116815260200190565b5f60208284031215612672575f5ffd5b813561267d816125c7565b9392505050565b5f5f60208385031215612695575f5ffd5b82356001600160401b038111156126aa575f5ffd5b8301601f810185136126ba575f5ffd5b80356001600160401b038111156126cf575f5ffd5b8560208284010111156126e0575f5ffd5b6020919091019590945092505050565b5f5f60408385031215612701575f5ffd5b823561270c816125c7565b946020939093013593505050565b5f5f6040838503121561272b575f5ffd5b8235612736816125c7565b915060208301356125fe816125c7565b8215158152604060208201525f82518060408401528060208501606085015e5f606082850101526060601f19601f8301168401019150509392505050565b803560ff81168114612794575f5ffd5b919050565b5f602082840312156127a9575f5ffd5b61267d82612784565b5f602082840312156127c2575f5ffd5b8151801515811461267d575f5ffd5b6001600160a01b03929092168252602082015260400190565b5f602082840312156127fa575f5ffd5b5051919050565b634e487b7160e01b5f52601160045260245ffd5b5f600160ff1b820161282957612829612801565b505f0390565b5f5f60408385031215612840575f5ffd5b82356001600160e01b031981168114612857575f5ffd5b915061286560208401612784565b90509250929050565b5f6020828403121561287e575f5ffd5b815161ffff8116811461267d575f5ffd5b6001600160e01b031992909216825260ff16602082015260400190565b5f602082840312156128bc575f5ffd5b815161267d816125c7565b61ffff81811683821601908111156128e1576128e1612801565b92915050565b634e487b7160e01b5f52604160045260245ffd5b604051601f8201601f191681016001600160401b0381118282101715612923576129236128e7565b604052919050565b5f6001600160401b03821115612943576129436128e7565b5060051b60200190565b5f82601f83011261295c575f5ffd5b815161296f61296a8261292b565b6128fb565b8082825260208201915060208360051b860101925085831115612990575f5ffd5b602085015b838110156129b65780516129a8816125c7565b835260209283019201612995565b5095945050505050565b5f82601f8301126129cf575f5ffd5b81516129dd61296a8261292b565b8082825260208201915060208360051b8601019250858311156129fe575f5ffd5b602085015b838110156129b6578051835260209283019201612a03565b5f5f5f5f5f5f60c08789031215612a30575f5ffd5b86516001600160401b03811115612a45575f5ffd5b612a5189828a0161294d565b602089015190975090506001600160401b03811115612a6e575f5ffd5b612a7a89828a016129c0565b604089015190965090506001600160401b03811115612a97575f5ffd5b612aa389828a0161294d565b606089015190955090506001600160401b03811115612ac0575f5ffd5b612acc89828a016129c0565b608089015190945090506001600160401b03811115612ae9575f5ffd5b612af589828a016129c0565b60a089015190935090506001600160401b03811115612b12575f5ffd5b612b1e89828a016129c0565b9150509295509295509295565b5f60ff821660ff8103612b4057612b40612801565b60010192915050565b60ff8181168382160290811690818114612b6557612b65612801565b5092915050565b634e487b7160e01b5f52603260045260245ffd5b602081016002831061264857612648612620565b5f60208284031215612ba4575f5ffd5b81516001600160401b03811115612bb9575f5ffd5b612bc58482850161294d565b949350505050565b5f61ffff821661ffff8103612b4057612b40612801565b8181035f831280158383131683831282161715612b6557612b65612801565b8082018281125f831280158216821582161715612c2257612c22612801565b505092915050565b80820281158282048414176128e1576128e161280156fea26469706673582212208f3682fccfdf324f671992fd1c85900b2645a01a5c477e61b7afae834674784664736f6c634300081c0033",
  "linkReferences": {},
  "deployedLinkReferences": {}
}