{
  "_format": "hh-sol-artifact-1",
  "contractName": "LiquidityOrchestrator",
  "sourceName": "contracts/orchestrators/LiquidityOrchestrator.sol",
  "abi": [
    {
      "inputs": [
        {
          "internalType": "address",
          "name": "initialOwner",
          "type": "address"
        },
        {
          "internalType": "address",
          "name": "config_",
          "type": "address"
        },
        {
          "internalType": "address",
          "name": "automationRegistry_",
          "type": "address"
        }
      ],
      "stateMutability": "nonpayable",
      "type": "constructor"
    },
    {
      "inputs": [],
      "name": "AdapterNotSet",
      "type": "error"
    },
    {
      "inputs": [],
      "name": "AlreadyRegistered",
      "type": "error"
    },
    {
      "inputs": [
        {
          "internalType": "address",
          "name": "asset",
          "type": "address"
        }
      ],
      "name": "AmountMustBeGreaterThanZero",
      "type": "error"
    },
    {
      "inputs": [],
      "name": "InsufficientAmount",
      "type": "error"
    },
    {
      "inputs": [],
      "name": "InvalidArguments",
      "type": "error"
    },
    {
      "inputs": [],
      "name": "InvalidState",
      "type": "error"
    },
    {
      "inputs": [],
      "name": "NotAuthorized",
      "type": "error"
    },
    {
      "inputs": [
        {
          "internalType": "address",
          "name": "owner",
          "type": "address"
        }
      ],
      "name": "OwnableInvalidOwner",
      "type": "error"
    },
    {
      "inputs": [
        {
          "internalType": "address",
          "name": "account",
          "type": "address"
        }
      ],
      "name": "OwnableUnauthorizedAccount",
      "type": "error"
    },
    {
      "inputs": [],
      "name": "ReentrancyGuardReentrantCall",
      "type": "error"
    },
    {
      "inputs": [
        {
          "internalType": "address",
          "name": "token",
          "type": "address"
        }
      ],
      "name": "SafeERC20FailedOperation",
      "type": "error"
    },
    {
      "inputs": [],
      "name": "SystemNotIdle",
      "type": "error"
    },
    {
      "inputs": [],
      "name": "TransferFailed",
      "type": "error"
    },
    {
      "inputs": [],
      "name": "UnauthorizedAccess",
      "type": "error"
    },
    {
      "inputs": [],
      "name": "ZeroAddress",
      "type": "error"
    },
    {
      "anonymous": false,
      "inputs": [
        {
          "indexed": true,
          "internalType": "address",
          "name": "newAutomationRegistry",
          "type": "address"
        }
      ],
      "name": "AutomationRegistryUpdated",
      "type": "event"
    },
    {
      "anonymous": false,
      "inputs": [
        {
          "indexed": true,
          "internalType": "address",
          "name": "asset",
          "type": "address"
        },
        {
          "indexed": true,
          "internalType": "address",
          "name": "adapter",
          "type": "address"
        }
      ],
      "name": "ExecutionAdapterSet",
      "type": "event"
    },
    {
      "anonymous": false,
      "inputs": [
        {
          "indexed": true,
          "internalType": "address",
          "name": "previousOwner",
          "type": "address"
        },
        {
          "indexed": true,
          "internalType": "address",
          "name": "newOwner",
          "type": "address"
        }
      ],
      "name": "OwnershipTransferred",
      "type": "event"
    },
    {
      "anonymous": false,
      "inputs": [],
      "name": "PortfolioRebalanced",
      "type": "event"
    },
    {
      "inputs": [],
      "name": "MAX_EXECUTION_MINIBATCH_SIZE",
      "outputs": [
        {
          "internalType": "uint8",
          "name": "",
          "type": "uint8"
        }
      ],
      "stateMutability": "view",
      "type": "function"
    },
    {
      "inputs": [],
      "name": "admin",
      "outputs": [
        {
          "internalType": "address",
          "name": "",
          "type": "address"
        }
      ],
      "stateMutability": "view",
      "type": "function"
    },
    {
      "inputs": [],
      "name": "automationRegistry",
      "outputs": [
        {
          "internalType": "address",
          "name": "",
          "type": "address"
        }
      ],
      "stateMutability": "view",
      "type": "function"
    },
    {
      "inputs": [
        {
          "internalType": "uint256",
          "name": "",
          "type": "uint256"
        }
      ],
      "name": "buyingAmounts",
      "outputs": [
        {
          "internalType": "uint256",
          "name": "",
          "type": "uint256"
        }
      ],
      "stateMutability": "view",
      "type": "function"
    },
    {
      "inputs": [
        {
          "internalType": "uint256",
          "name": "",
          "type": "uint256"
        }
      ],
      "name": "buyingEstimatedUnderlyingAmounts",
      "outputs": [
        {
          "internalType": "uint256",
          "name": "",
          "type": "uint256"
        }
      ],
      "stateMutability": "view",
      "type": "function"
    },
    {
      "inputs": [
        {
          "internalType": "uint256",
          "name": "",
          "type": "uint256"
        }
      ],
      "name": "buyingTokens",
      "outputs": [
        {
          "internalType": "address",
          "name": "",
          "type": "address"
        }
      ],
      "stateMutability": "view",
      "type": "function"
    },
    {
      "inputs": [
        {
          "internalType": "bytes",
          "name": "",
          "type": "bytes"
        }
      ],
      "name": "checkUpkeep",
      "outputs": [
        {
          "internalType": "bool",
          "name": "upkeepNeeded",
          "type": "bool"
        },
        {
          "internalType": "bytes",
          "name": "performData",
          "type": "bytes"
        }
      ],
      "stateMutability": "view",
      "type": "function"
    },
    {
      "inputs": [
        {
          "internalType": "uint256",
          "name": "amount",
          "type": "uint256"
        }
      ],
      "name": "claimProtocolFees",
      "outputs": [],
      "stateMutability": "nonpayable",
      "type": "function"
    },
    {
      "inputs": [],
      "name": "config",
      "outputs": [
        {
          "internalType": "contract IOrionConfig",
          "name": "",
          "type": "address"
        }
      ],
      "stateMutability": "view",
      "type": "function"
    },
    {
      "inputs": [],
      "name": "currentMinibatchIndex",
      "outputs": [
        {
          "internalType": "uint8",
          "name": "",
          "type": "uint8"
        }
      ],
      "stateMutability": "view",
      "type": "function"
    },
    {
      "inputs": [],
      "name": "currentPhase",
      "outputs": [
        {
          "internalType": "enum ILiquidityOrchestrator.LiquidityUpkeepPhase",
          "name": "",
          "type": "uint8"
        }
      ],
      "stateMutability": "view",
      "type": "function"
    },
    {
      "inputs": [],
      "name": "deltaBufferAmount",
      "outputs": [
        {
          "internalType": "int256",
          "name": "",
          "type": "int256"
        }
      ],
      "stateMutability": "view",
      "type": "function"
    },
    {
      "inputs": [
        {
          "internalType": "uint256",
          "name": "amount",
          "type": "uint256"
        }
      ],
      "name": "depositLiquidity",
      "outputs": [],
      "stateMutability": "nonpayable",
      "type": "function"
    },
    {
      "inputs": [
        {
          "internalType": "address",
          "name": "",
          "type": "address"
        }
      ],
      "name": "executionAdapterOf",
      "outputs": [
        {
          "internalType": "contract IExecutionAdapter",
          "name": "",
          "type": "address"
        }
      ],
      "stateMutability": "view",
      "type": "function"
    },
    {
      "inputs": [],
      "name": "executionMinibatchSize",
      "outputs": [
        {
          "internalType": "uint8",
          "name": "",
          "type": "uint8"
        }
      ],
      "stateMutability": "view",
      "type": "function"
    },
    {
      "inputs": [],
      "name": "internalStatesOrchestrator",
      "outputs": [
        {
          "internalType": "contract IInternalStateOrchestrator",
          "name": "",
          "type": "address"
        }
      ],
      "stateMutability": "view",
      "type": "function"
    },
    {
      "inputs": [],
      "name": "lastProcessedEpoch",
      "outputs": [
        {
          "internalType": "uint16",
          "name": "",
          "type": "uint16"
        }
      ],
      "stateMutability": "view",
      "type": "function"
    },
    {
      "inputs": [],
      "name": "owner",
      "outputs": [
        {
          "internalType": "address",
          "name": "",
          "type": "address"
        }
      ],
      "stateMutability": "view",
      "type": "function"
    },
    {
      "inputs": [
        {
          "internalType": "bytes",
          "name": "performData",
          "type": "bytes"
        }
      ],
      "name": "performUpkeep",
      "outputs": [],
      "stateMutability": "nonpayable",
      "type": "function"
    },
    {
      "inputs": [],
      "name": "renounceOwnership",
      "outputs": [],
      "stateMutability": "nonpayable",
      "type": "function"
    },
    {
      "inputs": [
        {
          "internalType": "address",
          "name": "user",
          "type": "address"
        },
        {
          "internalType": "uint256",
          "name": "amount",
          "type": "uint256"
        }
      ],
      "name": "returnDepositFunds",
      "outputs": [],
      "stateMutability": "nonpayable",
      "type": "function"
    },
    {
      "inputs": [
        {
          "internalType": "uint256",
          "name": "",
          "type": "uint256"
        }
      ],
      "name": "sellingAmounts",
      "outputs": [
        {
          "internalType": "uint256",
          "name": "",
          "type": "uint256"
        }
      ],
      "stateMutability": "view",
      "type": "function"
    },
    {
      "inputs": [
        {
          "internalType": "uint256",
          "name": "",
          "type": "uint256"
        }
      ],
      "name": "sellingEstimatedUnderlyingAmounts",
      "outputs": [
        {
          "internalType": "uint256",
          "name": "",
          "type": "uint256"
        }
      ],
      "stateMutability": "view",
      "type": "function"
    },
    {
      "inputs": [
        {
          "internalType": "uint256",
          "name": "",
          "type": "uint256"
        }
      ],
      "name": "sellingTokens",
      "outputs": [
        {
          "internalType": "address",
          "name": "",
          "type": "address"
        }
      ],
      "stateMutability": "view",
      "type": "function"
    },
    {
      "inputs": [
        {
          "internalType": "address",
          "name": "asset",
          "type": "address"
        },
        {
          "internalType": "contract IExecutionAdapter",
          "name": "adapter",
          "type": "address"
        }
      ],
      "name": "setExecutionAdapter",
      "outputs": [],
      "stateMutability": "nonpayable",
      "type": "function"
    },
    {
      "inputs": [
        {
          "internalType": "address",
          "name": "_internalStatesOrchestrator",
          "type": "address"
        }
      ],
      "name": "setInternalStatesOrchestrator",
      "outputs": [],
      "stateMutability": "nonpayable",
      "type": "function"
    },
    {
      "inputs": [
        {
          "internalType": "uint256",
          "name": "_targetBufferRatio",
          "type": "uint256"
        }
      ],
      "name": "setTargetBufferRatio",
      "outputs": [],
      "stateMutability": "nonpayable",
      "type": "function"
    },
    {
      "inputs": [],
      "name": "targetBufferRatio",
      "outputs": [
        {
          "internalType": "uint256",
          "name": "",
          "type": "uint256"
        }
      ],
      "stateMutability": "view",
      "type": "function"
    },
    {
      "inputs": [
        {
          "internalType": "uint256",
          "name": "amount",
          "type": "uint256"
        }
      ],
      "name": "transferCuratorFees",
      "outputs": [],
      "stateMutability": "nonpayable",
      "type": "function"
    },
    {
      "inputs": [
        {
          "internalType": "address",
          "name": "newOwner",
          "type": "address"
        }
      ],
      "name": "transferOwnership",
      "outputs": [],
      "stateMutability": "nonpayable",
      "type": "function"
    },
    {
      "inputs": [
        {
          "internalType": "address",
          "name": "user",
          "type": "address"
        },
        {
          "internalType": "uint256",
          "name": "amount",
          "type": "uint256"
        }
      ],
      "name": "transferRedemptionFunds",
      "outputs": [],
      "stateMutability": "nonpayable",
      "type": "function"
    },
    {
      "inputs": [],
      "name": "underlyingAsset",
      "outputs": [
        {
          "internalType": "address",
          "name": "",
          "type": "address"
        }
      ],
      "stateMutability": "view",
      "type": "function"
    },
    {
      "inputs": [
        {
          "internalType": "address",
          "name": "newAutomationRegistry",
          "type": "address"
        }
      ],
      "name": "updateAutomationRegistry",
      "outputs": [],
      "stateMutability": "nonpayable",
      "type": "function"
    },
    {
      "inputs": [
        {
          "internalType": "uint8",
          "name": "_executionMinibatchSize",
          "type": "uint8"
        }
      ],
      "name": "updateExecutionMinibatchSize",
      "outputs": [],
      "stateMutability": "nonpayable",
      "type": "function"
    },
    {
      "inputs": [
        {
          "internalType": "uint256",
          "name": "assets",
          "type": "uint256"
        },
        {
          "internalType": "address",
          "name": "receiver",
          "type": "address"
        }
      ],
      "name": "withdraw",
      "outputs": [],
      "stateMutability": "nonpayable",
      "type": "function"
    },
    {
      "inputs": [
        {
          "internalType": "uint256",
          "name": "amount",
          "type": "uint256"
        }
      ],
      "name": "withdrawLiquidity",
      "outputs": [],
      "stateMutability": "nonpayable",
      "type": "function"
    }
  ],
  "bytecode": "0x608060405234801561000f575f5ffd5b5060405161312338038061312383398101604081905261002e91610263565b826001600160a01b03811661005c57604051631e4fbdf760e01b81525f600482015260240160405180910390fd5b610065816101fd565b50600180556001600160a01b0382166100915760405163d92e233d60e01b815260040160405180910390fd5b6001600160a01b0381166100b85760405163d92e233d60e01b815260040160405180910390fd5b600380546001600160a01b0319166001600160a01b03841690811790915560408051631c56369f60e21b81529051637158da7c916004808201926020929091908290030181865afa15801561010f573d5f5f3e3d5ffd5b505050506040513d601f19601f8201168201806040525081019061013391906102ad565b600580546001600160a01b0319166001600160a01b03928316179055600354604080516303e1469160e61b81529051919092169163f851a4409160048083019260209291908290030181865afa15801561018f573d5f5f3e3d5ffd5b505050506040513d601f19601f820116820180604052508101906101b391906102ad565b600680546001600160a01b03199081166001600160a01b0393841617909155600280549091169290911691909117905550506008805464ffffffffff1916620100001790556102cf565b5f80546001600160a01b038381166001600160a01b0319831681178455604051919092169283917f8be0079c531659141344cd1fd0a4f28419497f9722a3daafe3b4186f6b6457e09190a35050565b6001600160a01b0381168114610260575f5ffd5b50565b5f5f5f60608486031215610275575f5ffd5b83516102808161024c565b60208501519093506102918161024c565b60408501519092506102a28161024c565b809150509250925092565b5f602082840312156102bd575f5ffd5b81516102c88161024c565b9392505050565b612e47806102dc5f395ff3fe608060405234801561000f575f5ffd5b50600436106101a9575f3560e01c8062f714ce146101ad57806301c621c1146101c2578063055ad42e146101d557806309f2e19c146101ff5780630a861f2a1461021f5780630a8b78c71461023257806314b5d07f146102455780633369921a14610258578063348ec5c81461026f5780633af2a8c0146102825780633e765a9e146102955780634585e33b146102a85780634adfc2e7146102bb57806351edffb1146102ce57806352e899fd146102e15780635488cd62146102f457806357be01c11461031a57806359017aa91461032d5780635dc228a014610340578063639bdf5a146103535780636e04ff0d1461035b578063715018a61461037c5780637158da7c14610384578063741fca4b1461039757806376d58e1a146103aa57806379502c55146103bd5780638157c1ab146103d05780638a0b0d38146103e35780638da5cb5b146103f6578063bc504975146103fe578063be1b26a414610411578063d3f3506d14610424578063dab26e3b1461044c578063ee6713df14610455578063f2fde38b14610476578063f851a44014610489575b5f5ffd5b6101c06101bb36600461278d565b61049c565b005b6101c06101d03660046127bb565b610554565b6008546101e9906301000000900460ff1681565b6040516101f691906127e6565b60405180910390f35b61021261020d3660046127bb565b6106a0565b6040516101f69190612800565b6101c061022d3660046127bb565b6106c8565b6101c0610240366004612814565b61094f565b6101c0610253366004612814565b6109ca565b61026160105481565b6040519081526020016101f6565b600454610212906001600160a01b031681565b6101c06102903660046127bb565b610ad3565b6102616102a33660046127bb565b610bb4565b6101c06102b6366004612836565b610bd3565b6101c06102c93660046128a2565b610d1c565b6101c06102dc3660046128a2565b610e07565b6102616102ef3660046127bb565b610e93565b60085461030890600160201b900460ff1681565b60405160ff90911681526020016101f6565b6008546103089062010000900460ff1681565b6101c061033b3660046128cc565b610ea2565b600254610212906001600160a01b031681565b610308600881565b61036e610369366004612836565b610fb6565b6040516101f69291906128f8565b6101c061124b565b600554610212906001600160a01b031681565b6101c06103a53660046127bb565b61125e565b6101c06103b83660046127bb565b61148f565b600354610212906001600160a01b031681565b6102126103de3660046127bb565b611673565b6101c06103f136600461294b565b611682565b610212611781565b61026161040c3660046127bb565b61178f565b61026161041f3660046127bb565b61179e565b610212610432366004612814565b60076020525f90815260409020546001600160a01b031681565b61026160095481565b6008546104639061ffff1681565b60405161ffff90911681526020016101f6565b6101c0610484366004612814565b6117ad565b600654610212906001600160a01b031681565b6104a46117ea565b60035460405163f764eb4560e01b81526001600160a01b039091169063f764eb45906104d4903390600401612800565b602060405180830381865afa1580156104ef573d5f5f3e3d5ffd5b505050506040513d601f19601f820116820180604052508101906105139190612964565b6105305760405163ea8e4eb560e01b815260040160405180910390fd5b600554610547906001600160a01b03168284611814565b61055060018055565b5050565b6006546001600160a01b0316331461057f57604051631a27eac360e11b815260040160405180910390fd5b805f036105b557600554604051636b30633560e01b81526105ac916001600160a01b031690600401612800565b60405180910390fd5b60048054604051637060444560e01b81529182018390526001600160a01b0316906370604445906024015f604051808303815f87803b1580156105f6575f5ffd5b505af1158015610608573d5f5f3e3d5ffd5b505060055460405163a9059cbb60e01b81525f93506001600160a01b03909116915063a9059cbb906106409033908690600401612983565b6020604051808303815f875af115801561065c573d5f5f3e3d5ffd5b505050506040513d601f19601f820116820180604052508101906106809190612964565b905080610550576040516312171d8360e31b815260040160405180910390fd5b600d81815481106106af575f80fd5b5f918252602090912001546001600160a01b0316905081565b6006546001600160a01b031633146106f357604051631a27eac360e11b815260040160405180910390fd5b805f0361072057600554604051636b30633560e01b81526105ac916001600160a01b031690600401612800565b5f60048054604080516302ad6a1760e11b815290516001600160a01b039092169263055ad42e9282820192602092908290030181865afa158015610766573d5f5f3e3d5ffd5b505050506040513d601f19601f8201168201806040525081019061078a919061299c565b600481111561079b5761079b6127d2565b146107b9576040516312aecd8160e01b815260040160405180910390fd5b5f60045f9054906101000a90046001600160a01b03166001600160a01b031663c18e2a5c6040518163ffffffff1660e01b8152600401602060405180830381865afa15801561080a573d5f5f3e3d5ffd5b505050506040513d601f19601f8201168201806040525081019061082e91906129ba565b90508082111561085157604051632ca2f52b60e11b815260040160405180910390fd5b6004546001600160a01b031663e2c4aaec61086b846129e5565b6040518263ffffffff1660e01b815260040161088991815260200190565b5f604051808303815f87803b1580156108a0575f5ffd5b505af11580156108b2573d5f5f3e3d5ffd5b505060055460405163a9059cbb60e01b81525f93506001600160a01b03909116915063a9059cbb906108ea9033908790600401612983565b6020604051808303815f875af1158015610906573d5f5f3e3d5ffd5b505050506040513d601f19601f8201168201806040525081019061092a9190612964565b90508061094a576040516312171d8360e31b815260040160405180910390fd5b505050565b61095761186c565b6001600160a01b03811661097e5760405163d92e233d60e01b815260040160405180910390fd5b6004546001600160a01b0316156109a857604051630ea075bf60e21b815260040160405180910390fd5b600480546001600160a01b0319166001600160a01b0392909216919091179055565b6109d261186c565b6001600160a01b0381166109f95760405163d92e233d60e01b815260040160405180910390fd5b60035f9054906101000a90046001600160a01b03166001600160a01b031663edcf9c1f6040518163ffffffff1660e01b8152600401602060405180830381865afa158015610a49573d5f5f3e3d5ffd5b505050506040513d601f19601f82011682018060405250810190610a6d9190612964565b610a8a576040516312aecd8160e01b815260040160405180910390fd5b600280546001600160a01b0319166001600160a01b0383169081179091556040517f6cc7ebdb6c8c53291c5ae16148cab9b049d23bf5bde5632900b40edff56fcb43905f90a250565b610adb61186c565b805f03610afb576040516317dbc4cb60e21b815260040160405180910390fd5b6101f4811115610b1e576040516317dbc4cb60e21b815260040160405180910390fd5b60035f9054906101000a90046001600160a01b03166001600160a01b031663edcf9c1f6040518163ffffffff1660e01b8152600401602060405180830381865afa158015610b6e573d5f5f3e3d5ffd5b505050506040513d601f19601f82011682018060405250810190610b929190612964565b610baf576040516312aecd8160e01b815260040160405180910390fd5b600955565b600f8181548110610bc3575f80fd5b5f91825260209091200154905081565b610bdb611781565b6001600160a01b0316336001600160a01b031614158015610c0757506002546001600160a01b03163314155b15610c255760405163ea8e4eb560e01b815260040160405180910390fd5b610c2d6117ea565b6005811015610c4f576040516317dbc4cb60e21b815260040160405180910390fd5b5f80610c5d838501856129ff565b90925090506341659aab60e01b6001600160e01b0319831601610c8757610c8261189e565b610ce9565b63100597e960e31b6001600160e01b0319831601610ca857610c8281611ad6565b63302c6bef60e21b6001600160e01b0319831601610cc957610c8281611c63565b6301c7bbc160e21b6001600160e01b0319831601610ce957610ce9611e5b565b6040517ff0094b59b7bc92e9fc611b14b5d3a34fe02530ac9bcf36c2c6f10147c3030c12905f90a1505061055060018055565b600354604051633821dad160e21b81526001600160a01b039091169063e0876b4490610d4c903390600401612800565b602060405180830381865afa158015610d67573d5f5f3e3d5ffd5b505050506040513d601f19601f82011682018060405250810190610d8b9190612964565b610da85760405163ea8e4eb560e01b815260040160405180910390fd5b805f03610dd557600554604051636b30633560e01b81526105ac916001600160a01b031690600401612800565b60055460405163a9059cbb60e01b81525f916001600160a01b03169063a9059cbb906108ea9086908690600401612983565b600354604051633821dad160e21b81526001600160a01b039091169063e0876b4490610e37903390600401612800565b602060405180830381865afa158015610e52573d5f5f3e3d5ffd5b505050506040513d601f19601f82011682018060405250810190610e769190612964565b610dd55760405163ea8e4eb560e01b815260040160405180910390fd5b600c8181548110610bc3575f80fd5b6003546001600160a01b03163314610ecd5760405163ea8e4eb560e01b815260040160405180910390fd5b6001600160a01b0382161580610eea57506001600160a01b038116155b15610f085760405163d92e233d60e01b815260040160405180910390fd5b604051631ed3e4fb60e11b81526001600160a01b03821690633da7c9f690610f34908590600401612800565b5f6040518083038186803b158015610f4a575f5ffd5b505afa158015610f5c573d5f5f3e3d5ffd5b505050506001600160a01b038281165f8181526007602052604080822080546001600160a01b0319169486169485179055517f2f2727c7b3d9ee55de5c114f0cb7997ac7251a4cbfca4f2b2dc6969d86cce4f49190a35050565b5f606060035f9054906101000a90046001600160a01b03166001600160a01b031663edcf9c1f6040518163ffffffff1660e01b8152600401602060405180830381865afa158015611009573d5f5f3e3d5ffd5b505050506040513d601f19601f8201168201806040525081019061102d9190612964565b80156110ad57506008546004805460408051630a58ce2d60e11b8152905161ffff909416936001600160a01b03909216926314b19c5a9282820192602092908290030181865afa158015611083573d5f5f3e3d5ffd5b505050506040513d601f19601f820116820180604052508101906110a79190612a3e565b61ffff16115b156110ff57600191507fbe9a655586dceb82dfa0af992b5d8ae7fa45053cb7fd6f141f541da7572978c75f6040516020016110e9929190612a5f565b6040516020818303038152906040529050611244565b60016008546301000000900460ff16600381111561111f5761111f6127d2565b0361116a57600191507f7fd340b8241a93f6a116f506d6171d4f585588564d777e1192babae55184f691600860049054906101000a900460ff166040516020016110e9929190612a5f565b60026008546301000000900460ff16600381111561118a5761118a6127d2565b036111d557600191507f3f4e50448465d8594e91c1038b22f277808696956455dacacb66f00f4df0b3a2600860049054906101000a900460ff166040516020016110e9929190612a5f565b60036008546301000000900460ff1660038111156111f5576111f56127d2565b0361123157600191507ff8e110fcda2d74b2e1ced72f8e94b4510c922b70f786fd1064147a762fd812605f6040516020016110e9929190612a5f565b505060408051602081019091525f808252905b9250929050565b61125361186c565b61125c5f612123565b565b600354604051633821dad160e21b815233916001600160a01b03169063e0876b449061128e908490600401612800565b602060405180830381865afa1580156112a9573d5f5f3e3d5ffd5b505050506040513d601f19601f820116820180604052508101906112cd9190612964565b158015611346575060035460405163f764eb4560e01b81526001600160a01b039091169063f764eb4590611305908490600401612800565b602060405180830381865afa158015611320573d5f5f3e3d5ffd5b505050506040513d601f19601f820116820180604052508101906113449190612964565b155b156113645760405163ea8e4eb560e01b815260040160405180910390fd5b815f0361139157600554604051636b30633560e01b81526105ac916001600160a01b031690600401612800565b5f816001600160a01b0316631f52692b6040518163ffffffff1660e01b8152600401602060405180830381865afa1580156113ce573d5f5f3e3d5ffd5b505050506040513d601f19601f820116820180604052508101906113f29190612a7c565b60055460405163a9059cbb60e01b81529192505f916001600160a01b039091169063a9059cbb906114299085908890600401612983565b6020604051808303815f875af1158015611445573d5f5f3e3d5ffd5b505050506040513d601f19601f820116820180604052508101906114699190612964565b905080611489576040516312171d8360e31b815260040160405180910390fd5b50505050565b6006546001600160a01b031633146114ba57604051631a27eac360e11b815260040160405180910390fd5b805f036114e757600554604051636b30633560e01b81526105ac916001600160a01b031690600401612800565b5f60048054604080516302ad6a1760e11b815290516001600160a01b039092169263055ad42e9282820192602092908290030181865afa15801561152d573d5f5f3e3d5ffd5b505050506040513d601f19601f82011682018060405250810190611551919061299c565b6004811115611562576115626127d2565b14611580576040516312aecd8160e01b815260040160405180910390fd5b6005546040516323b872dd60e01b8152336004820152306024820152604481018390525f916001600160a01b0316906323b872dd906064016020604051808303815f875af11580156115d4573d5f5f3e3d5ffd5b505050506040513d601f19601f820116820180604052508101906115f89190612964565b905080611618576040516312171d8360e31b815260040160405180910390fd5b600480546040516338b12abb60e21b81529182018490526001600160a01b03169063e2c4aaec906024015f604051808303815f87803b158015611659575f5ffd5b505af115801561166b573d5f5f3e3d5ffd5b505050505050565b600a81815481106106af575f80fd5b61168a61186c565b8060ff165f036116ad576040516317dbc4cb60e21b815260040160405180910390fd5b600860ff821611156116d2576040516317dbc4cb60e21b815260040160405180910390fd5b60035f9054906101000a90046001600160a01b03166001600160a01b031663edcf9c1f6040518163ffffffff1660e01b8152600401602060405180830381865afa158015611722573d5f5f3e3d5ffd5b505050506040513d601f19601f820116820180604052508101906117469190612964565b611763576040516312aecd8160e01b815260040160405180910390fd5b6008805460ff909216620100000262ff000019909216919091179055565b5f546001600160a01b031690565b600e8181548110610bc3575f80fd5b600b8181548110610bc3575f80fd5b6117b561186c565b6001600160a01b0381166117de575f604051631e4fbdf760e01b81526004016105ac9190612800565b6117e781612123565b50565b60026001540361180d57604051633ee5aeb560e01b815260040160405180910390fd5b6002600155565b61094a83846001600160a01b031663a9059cbb858560405160240161183a929190612983565b604051602081830303815290604052915060e01b6020820180516001600160e01b038381831617835250505050612172565b33611875611781565b6001600160a01b03161461125c573360405163118cdaa760e01b81526004016105ac9190612800565b5f60045f9054906101000a90046001600160a01b03166001600160a01b03166314b19c5a6040518163ffffffff1660e01b8152600401602060405180830381865afa1580156118ef573d5f5f3e3d5ffd5b505050506040513d601f19601f820116820180604052508101906119139190612a3e565b6008549091506119289061ffff166001612a97565b61ffff168161ffff16101561193a5750565b6008805461ffff191661ffff8316179055611956600a5f6126ae565b611961600b5f6126ae565b61196c600d5f6126ae565b611977600e5f6126ae565b611982600c5f6126ae565b61198d600f5f6126ae565b5f60108190556004805460408051631716e21f60e11b815290516001600160a01b0390921693632e2dc43e938281019391928290030181865afa1580156119d6573d5f5f3e3d5ffd5b505050506040513d5f823e601f3d908101601f191682016040526119fd9190810190612beb565b600a5f600b5f600d5f600e5f600c5f600f5f8c9190509080519060200190611a269291906126c9565b50508a51611a39919060208d01906126c9565b50508951611a4c919060208c01906126c9565b50508851611a5f919060208b0190612712565b50508751611a72919060208a01906126c9565b50508651611a8591906020890190612712565b50506008805463ff000000191663010000001790555050600a545f0392506117e7915050576008805463ff00000019166302000000179055600d545f036117e757506008805463ff00000019169055565b60016008546301000000900460ff166003811115611af657611af66127d2565b14611b145760405163baf3f0f760e01b815260040160405180910390fd5b60088054600490611b2e90600160201b900460ff16612cfb565b91906101000a81548160ff021916908360ff1602179055505f600860029054906101000a900460ff1682611b629190612d19565b60085460ff91821692505f91611b7f916201000090041683612a97565b600a5490915061ffff82161180611b9b5750600a5461ffff8216145b15611bb95750600a546008805464ffff000000191663020000001790555b815b8161ffff168161ffff161015611489575f600a8261ffff1681548110611be357611be3612d3c565b5f918252602090912001546005546001600160a01b039182169250168103611c0b5750611c5b565b5f600b8361ffff1681548110611c2357611c23612d3c565b905f5260205f2001549050611c588282600c8661ffff1681548110611c4a57611c4a612d3c565b905f5260205f2001546121d5565b50505b600101611bbb565b60026008546301000000900460ff166003811115611c8357611c836127d2565b14611ca15760405163baf3f0f760e01b815260040160405180910390fd5b60088054600490611cbb90600160201b900460ff16612cfb565b91906101000a81548160ff021916908360ff1602179055505f600860029054906101000a900460ff1682611cef9190612d19565b60085460ff91821692505f91611d0c916201000090041683612a97565b600d5490915061ffff82161180611d285750600d5461ffff8216145b15611d465750600d546008805464ffff000000191663030000001790555b815b8161ffff168161ffff161015611df0575f600d8261ffff1681548110611d7057611d70612d3c565b5f918252602090912001546005546001600160a01b039182169250168103611d985750611de8565b5f600e8361ffff1681548110611db057611db0612d3c565b905f5260205f2001549050611de58282600f8661ffff1681548110611dd757611dd7612d3c565b905f5260205f200154612383565b50505b600101611d48565b50600d5461ffff82160361094a57600480546010546040516338b12abb60e21b8152928301526001600160a01b03169063e2c4aaec906024015f604051808303815f87803b158015611e40575f5ffd5b505af1158015611e52573d5f5f3e3d5ffd5b50505050505050565b60036008546301000000900460ff166003811115611e7b57611e7b6127d2565b14611e995760405163baf3f0f760e01b815260040160405180910390fd5b6008805463ff00000019169055600354604051631da09e4360e31b81525f916001600160a01b03169063ed04f21890611ed6908490600401612d50565b5f60405180830381865afa158015611ef0573d5f5f3e3d5ffd5b505050506040513d5f823e601f3d908101601f19168201604052611f179190810190612d64565b90505f5b81518161ffff161015610550575f828261ffff1681518110611f3f57611f3f612d3c565b6020908102919091010151600480546040516309958e4960e11b81529293505f926001600160a01b039091169163132b1c9291611f7e91869101612800565b602060405180830381865afa158015611f99573d5f5f3e3d5ffd5b505050506040513d601f19601f82011682018060405250810190611fbd91906129ba565b6004805460405163e2638ff160e01b81529293505f926001600160a01b039091169163e2638ff191611ff191879101612800565b602060405180830381865afa15801561200c573d5f5f3e3d5ffd5b505050506040513d601f19601f8201168201806040525081019061203091906129ba565b905061203d838383612525565b60035460405163d11f1c3560e01b81526001600160a01b039091169063d11f1c359061206d908690600401612800565b602060405180830381865afa158015612088573d5f5f3e3d5ffd5b505050506040513d601f19601f820116820180604052508101906120ac9190612964565b1561210f5760035460405163e8ffccb760e01b81526001600160a01b039091169063e8ffccb7906120e1908690600401612800565b5f604051808303815f87803b1580156120f8575f5ffd5b505af115801561210a573d5f5f3e3d5ffd5b505050505b5050508061211c90612d9d565b9050611f1b565b5f80546001600160a01b038381166001600160a01b0319831681178455604051919092169283917f8be0079c531659141344cd1fd0a4f28419497f9722a3daafe3b4186f6b6457e09190a35050565b5f5f60205f8451602086015f885af180612191576040513d5f823e3d81fd5b50505f513d915081156121a85780600114156121b5565b6001600160a01b0384163b155b156114895783604051635274afe760e01b81526004016105ac9190612800565b6001600160a01b038084165f90815260076020526040902054168061220d57604051635048c2af60e11b815260040160405180910390fd5b60405163095ea7b360e01b81526001600160a01b0385169063095ea7b39061223b9084905f90600401612983565b6020604051808303815f875af1158015612257573d5f5f3e3d5ffd5b505050506040513d601f19601f8201168201806040525081019061227b9190612964565b5060405163095ea7b360e01b81526001600160a01b0385169063095ea7b3906122aa9084908790600401612983565b6020604051808303815f875af11580156122c6573d5f5f3e3d5ffd5b505050506040513d601f19601f820116820180604052508101906122ea9190612964565b50604051636c197ff560e01b81525f906001600160a01b03831690636c197ff59061231b9088908890600401612983565b6020604051808303815f875af1158015612337573d5f5f3e3d5ffd5b505050506040513d601f19601f8201168201806040525081019061235b91906129ba565b90506123678382612db4565b60105f8282546123779190612dd3565b90915550505050505050565b6001600160a01b038084165f9081526007602052604090205416806123bb57604051635048c2af60e11b815260040160405180910390fd5b60055460405163095ea7b360e01b81526001600160a01b039091169063095ea7b3906123ed9084905f90600401612983565b6020604051808303815f875af1158015612409573d5f5f3e3d5ffd5b505050506040513d601f19601f8201168201806040525081019061242d9190612964565b506005546001600160a01b031663095ea7b38261244b856002612dfa565b6040518363ffffffff1660e01b8152600401612468929190612983565b6020604051808303815f875af1158015612484573d5f5f3e3d5ffd5b505050506040513d601f19601f820116820180604052508101906124a89190612964565b5060405163cce7ec1360e01b81525f906001600160a01b0383169063cce7ec13906124d99088908890600401612983565b6020604051808303815f875af11580156124f5573d5f5f3e3d5ffd5b505050506040513d601f19601f8201168201806040525081019061251991906129ba565b90506123678184612db4565b5f8390505f816001600160a01b031663f64c6f326040518163ffffffff1660e01b8152600401602060405180830381865afa158015612566573d5f5f3e3d5ffd5b505050506040513d601f19601f8201168201806040525081019061258a91906129ba565b90505f826001600160a01b0316630a605c6d6040518163ffffffff1660e01b8152600401602060405180830381865afa1580156125c9573d5f5f3e3d5ffd5b505050506040513d601f19601f820116820180604052508101906125ed91906129ba565b9050811561264b5760405163e5e9719360e01b8152600481018690526001600160a01b0384169063e5e97193906024015f604051808303815f87803b158015612634575f5ffd5b505af1158015612646573d5f5f3e3d5ffd5b505050505b801561166b5760405163493a6e2160e01b8152600481018590526001600160a01b0384169063493a6e21906024015f604051808303815f87803b158015612690575f5ffd5b505af11580156126a2573d5f5f3e3d5ffd5b50505050505050505050565b5080545f8255905f5260205f20908101906117e79190612765565b828054828255905f5260205f20908101928215612702579160200282015b828111156127025782518255916020019190600101906126e7565b5061270e929150612765565b5090565b828054828255905f5260205f20908101928215612702579160200282015b8281111561270257825182546001600160a01b0319166001600160a01b03909116178255602090920191600190910190612730565b5b8082111561270e575f8155600101612766565b6001600160a01b03811681146117e7575f5ffd5b5f5f6040838503121561279e575f5ffd5b8235915060208301356127b081612779565b809150509250929050565b5f602082840312156127cb575f5ffd5b5035919050565b634e487b7160e01b5f52602160045260245ffd5b60208101600483106127fa576127fa6127d2565b91905290565b6001600160a01b0391909116815260200190565b5f60208284031215612824575f5ffd5b813561282f81612779565b9392505050565b5f5f60208385031215612847575f5ffd5b82356001600160401b0381111561285c575f5ffd5b8301601f8101851361286c575f5ffd5b80356001600160401b03811115612881575f5ffd5b856020828401011115612892575f5ffd5b6020919091019590945092505050565b5f5f604083850312156128b3575f5ffd5b82356128be81612779565b946020939093013593505050565b5f5f604083850312156128dd575f5ffd5b82356128e881612779565b915060208301356127b081612779565b8215158152604060208201525f82518060408401528060208501606085015e5f606082850101526060601f19601f8301168401019150509392505050565b803560ff81168114612946575f5ffd5b919050565b5f6020828403121561295b575f5ffd5b61282f82612936565b5f60208284031215612974575f5ffd5b8151801515811461282f575f5ffd5b6001600160a01b03929092168252602082015260400190565b5f602082840312156129ac575f5ffd5b81516005811061282f575f5ffd5b5f602082840312156129ca575f5ffd5b5051919050565b634e487b7160e01b5f52601160045260245ffd5b5f600160ff1b82016129f9576129f96129d1565b505f0390565b5f5f60408385031215612a10575f5ffd5b82356001600160e01b031981168114612a27575f5ffd5b9150612a3560208401612936565b90509250929050565b5f60208284031215612a4e575f5ffd5b815161ffff8116811461282f575f5ffd5b6001600160e01b031992909216825260ff16602082015260400190565b5f60208284031215612a8c575f5ffd5b815161282f81612779565b61ffff8181168382160190811115612ab157612ab16129d1565b92915050565b634e487b7160e01b5f52604160045260245ffd5b604051601f8201601f191681016001600160401b0381118282101715612af357612af3612ab7565b604052919050565b5f6001600160401b03821115612b1357612b13612ab7565b5060051b60200190565b5f82601f830112612b2c575f5ffd5b8151612b3f612b3a82612afb565b612acb565b8082825260208201915060208360051b860101925085831115612b60575f5ffd5b602085015b83811015612b86578051612b7881612779565b835260209283019201612b65565b5095945050505050565b5f82601f830112612b9f575f5ffd5b8151612bad612b3a82612afb565b8082825260208201915060208360051b860101925085831115612bce575f5ffd5b602085015b83811015612b86578051835260209283019201612bd3565b5f5f5f5f5f5f60c08789031215612c00575f5ffd5b86516001600160401b03811115612c15575f5ffd5b612c2189828a01612b1d565b602089015190975090506001600160401b03811115612c3e575f5ffd5b612c4a89828a01612b90565b604089015190965090506001600160401b03811115612c67575f5ffd5b612c7389828a01612b1d565b606089015190955090506001600160401b03811115612c90575f5ffd5b612c9c89828a01612b90565b608089015190945090506001600160401b03811115612cb9575f5ffd5b612cc589828a01612b90565b60a089015190935090506001600160401b03811115612ce2575f5ffd5b612cee89828a01612b90565b9150509295509295509295565b5f60ff821660ff8103612d1057612d106129d1565b60010192915050565b60ff8181168382160290811690818114612d3557612d356129d1565b5092915050565b634e487b7160e01b5f52603260045260245ffd5b60208101600283106127fa576127fa6127d2565b5f60208284031215612d74575f5ffd5b81516001600160401b03811115612d89575f5ffd5b612d9584828501612b1d565b949350505050565b5f61ffff821661ffff8103612d1057612d106129d1565b8181035f831280158383131683831282161715612d3557612d356129d1565b8082018281125f831280158216821582161715612df257612df26129d1565b505092915050565b8082028115828204841417612ab157612ab16129d156fea264697066735822122004da95ce134701b85663fe568d32f53fd20a8e7e062948543d81ad0cbce46d2664736f6c634300081c0033",
  "linkReferences": {},
  "deployedLinkReferences": {}
}