{
  "_format": "hh-sol-artifact-1",
  "contractName": "LiquidityOrchestrator",
  "sourceName": "contracts/orchestrators/LiquidityOrchestrator.sol",
  "abi": [
    {
      "inputs": [],
      "name": "AdapterNotSet",
      "type": "error"
    },
    {
      "inputs": [
        {
          "internalType": "address",
          "name": "target",
          "type": "address"
        }
      ],
      "name": "AddressEmptyCode",
      "type": "error"
    },
    {
      "inputs": [
        {
          "internalType": "address",
          "name": "implementation",
          "type": "address"
        }
      ],
      "name": "ERC1967InvalidImplementation",
      "type": "error"
    },
    {
      "inputs": [],
      "name": "ERC1967NonPayable",
      "type": "error"
    },
    {
      "inputs": [],
      "name": "FailedCall",
      "type": "error"
    },
    {
      "inputs": [],
      "name": "InvalidInitialization",
      "type": "error"
    },
    {
      "inputs": [],
      "name": "NotAuthorized",
      "type": "error"
    },
    {
      "inputs": [],
      "name": "NotInitializing",
      "type": "error"
    },
    {
      "inputs": [
        {
          "internalType": "address",
          "name": "owner",
          "type": "address"
        }
      ],
      "name": "OwnableInvalidOwner",
      "type": "error"
    },
    {
      "inputs": [
        {
          "internalType": "address",
          "name": "account",
          "type": "address"
        }
      ],
      "name": "OwnableUnauthorizedAccount",
      "type": "error"
    },
    {
      "inputs": [],
      "name": "TransferFailed",
      "type": "error"
    },
    {
      "inputs": [],
      "name": "UUPSUnauthorizedCallContext",
      "type": "error"
    },
    {
      "inputs": [
        {
          "internalType": "bytes32",
          "name": "slot",
          "type": "bytes32"
        }
      ],
      "name": "UUPSUnsupportedProxiableUUID",
      "type": "error"
    },
    {
      "inputs": [],
      "name": "ZeroAddress",
      "type": "error"
    },
    {
      "anonymous": false,
      "inputs": [
        {
          "indexed": true,
          "internalType": "address",
          "name": "asset",
          "type": "address"
        },
        {
          "indexed": true,
          "internalType": "address",
          "name": "adapter",
          "type": "address"
        }
      ],
      "name": "AdapterSet",
      "type": "event"
    },
    {
      "anonymous": false,
      "inputs": [
        {
          "indexed": true,
          "internalType": "address",
          "name": "newAutomationRegistry",
          "type": "address"
        }
      ],
      "name": "AutomationRegistryUpdated",
      "type": "event"
    },
    {
      "anonymous": false,
      "inputs": [
        {
          "indexed": false,
          "internalType": "uint64",
          "name": "version",
          "type": "uint64"
        }
      ],
      "name": "Initialized",
      "type": "event"
    },
    {
      "anonymous": false,
      "inputs": [
        {
          "indexed": true,
          "internalType": "address",
          "name": "previousOwner",
          "type": "address"
        },
        {
          "indexed": true,
          "internalType": "address",
          "name": "newOwner",
          "type": "address"
        }
      ],
      "name": "OwnershipTransferStarted",
      "type": "event"
    },
    {
      "anonymous": false,
      "inputs": [
        {
          "indexed": true,
          "internalType": "address",
          "name": "previousOwner",
          "type": "address"
        },
        {
          "indexed": true,
          "internalType": "address",
          "name": "newOwner",
          "type": "address"
        }
      ],
      "name": "OwnershipTransferred",
      "type": "event"
    },
    {
      "anonymous": false,
      "inputs": [],
      "name": "PortfolioRebalanced",
      "type": "event"
    },
    {
      "anonymous": false,
      "inputs": [
        {
          "indexed": true,
          "internalType": "address",
          "name": "implementation",
          "type": "address"
        }
      ],
      "name": "Upgraded",
      "type": "event"
    },
    {
      "inputs": [],
      "name": "UPGRADE_INTERFACE_VERSION",
      "outputs": [
        {
          "internalType": "string",
          "name": "",
          "type": "string"
        }
      ],
      "stateMutability": "view",
      "type": "function"
    },
    {
      "inputs": [],
      "name": "acceptOwnership",
      "outputs": [],
      "stateMutability": "nonpayable",
      "type": "function"
    },
    {
      "inputs": [],
      "name": "automationRegistry",
      "outputs": [
        {
          "internalType": "address",
          "name": "",
          "type": "address"
        }
      ],
      "stateMutability": "view",
      "type": "function"
    },
    {
      "inputs": [
        {
          "internalType": "bytes",
          "name": "",
          "type": "bytes"
        }
      ],
      "name": "checkUpkeep",
      "outputs": [
        {
          "internalType": "bool",
          "name": "upkeepNeeded",
          "type": "bool"
        },
        {
          "internalType": "bytes",
          "name": "performData",
          "type": "bytes"
        }
      ],
      "stateMutability": "view",
      "type": "function"
    },
    {
      "inputs": [],
      "name": "config",
      "outputs": [
        {
          "internalType": "contract IOrionConfig",
          "name": "",
          "type": "address"
        }
      ],
      "stateMutability": "view",
      "type": "function"
    },
    {
      "inputs": [
        {
          "internalType": "address",
          "name": "",
          "type": "address"
        }
      ],
      "name": "executionAdapterOf",
      "outputs": [
        {
          "internalType": "contract IExecutionAdapter",
          "name": "",
          "type": "address"
        }
      ],
      "stateMutability": "view",
      "type": "function"
    },
    {
      "inputs": [
        {
          "internalType": "address",
          "name": "initialOwner",
          "type": "address"
        },
        {
          "internalType": "address",
          "name": "automationRegistry_",
          "type": "address"
        },
        {
          "internalType": "address",
          "name": "config_",
          "type": "address"
        }
      ],
      "name": "initialize",
      "outputs": [],
      "stateMutability": "nonpayable",
      "type": "function"
    },
    {
      "inputs": [],
      "name": "internalStatesOrchestrator",
      "outputs": [
        {
          "internalType": "contract IInternalStateOrchestrator",
          "name": "",
          "type": "address"
        }
      ],
      "stateMutability": "view",
      "type": "function"
    },
    {
      "inputs": [],
      "name": "lastProcessedEpoch",
      "outputs": [
        {
          "internalType": "uint256",
          "name": "",
          "type": "uint256"
        }
      ],
      "stateMutability": "view",
      "type": "function"
    },
    {
      "inputs": [],
      "name": "owner",
      "outputs": [
        {
          "internalType": "address",
          "name": "",
          "type": "address"
        }
      ],
      "stateMutability": "view",
      "type": "function"
    },
    {
      "inputs": [],
      "name": "pendingOwner",
      "outputs": [
        {
          "internalType": "address",
          "name": "",
          "type": "address"
        }
      ],
      "stateMutability": "view",
      "type": "function"
    },
    {
      "inputs": [
        {
          "internalType": "bytes",
          "name": "",
          "type": "bytes"
        }
      ],
      "name": "performUpkeep",
      "outputs": [],
      "stateMutability": "nonpayable",
      "type": "function"
    },
    {
      "inputs": [],
      "name": "proxiableUUID",
      "outputs": [
        {
          "internalType": "bytes32",
          "name": "",
          "type": "bytes32"
        }
      ],
      "stateMutability": "view",
      "type": "function"
    },
    {
      "inputs": [],
      "name": "renounceOwnership",
      "outputs": [],
      "stateMutability": "nonpayable",
      "type": "function"
    },
    {
      "inputs": [
        {
          "internalType": "address",
          "name": "user",
          "type": "address"
        },
        {
          "internalType": "uint256",
          "name": "amount",
          "type": "uint256"
        }
      ],
      "name": "returnDepositFunds",
      "outputs": [],
      "stateMutability": "nonpayable",
      "type": "function"
    },
    {
      "inputs": [
        {
          "internalType": "address",
          "name": "asset",
          "type": "address"
        },
        {
          "internalType": "contract IExecutionAdapter",
          "name": "adapter",
          "type": "address"
        }
      ],
      "name": "setAdapter",
      "outputs": [],
      "stateMutability": "nonpayable",
      "type": "function"
    },
    {
      "inputs": [
        {
          "internalType": "address",
          "name": "newOwner",
          "type": "address"
        }
      ],
      "name": "transferOwnership",
      "outputs": [],
      "stateMutability": "nonpayable",
      "type": "function"
    },
    {
      "inputs": [
        {
          "internalType": "address",
          "name": "newAutomationRegistry",
          "type": "address"
        }
      ],
      "name": "updateAutomationRegistry",
      "outputs": [],
      "stateMutability": "nonpayable",
      "type": "function"
    },
    {
      "inputs": [
        {
          "internalType": "address",
          "name": "newConfig",
          "type": "address"
        }
      ],
      "name": "updateConfig",
      "outputs": [],
      "stateMutability": "nonpayable",
      "type": "function"
    },
    {
      "inputs": [
        {
          "internalType": "address",
          "name": "newImplementation",
          "type": "address"
        },
        {
          "internalType": "bytes",
          "name": "data",
          "type": "bytes"
        }
      ],
      "name": "upgradeToAndCall",
      "outputs": [],
      "stateMutability": "payable",
      "type": "function"
    }
  ],
  "bytecode": "0x60a0604052306080523480156012575f5ffd5b50608051611c5b6100395f395f8181611293015281816112bc01526114000152611c5b5ff3fe60806040526004361061011b575f3560e01c806379502c551161009d578063c0c53b8b11610062578063c0c53b8b14610310578063d3f3506d1461032f578063e30c397814610363578063ee6713df14610377578063f2fde38b1461038c575f5ffd5b806379502c551461026d57806379ba50971461028c5780638da5cb5b146102a0578063ad3cb1cc146102b4578063ba59b4ca146102f1575f5ffd5b806352d1902d116100e357806352d1902d146101cd5780635dc228a0146101ef5780636cc919c81461020d5780636e04ff0d1461022c578063715018a614610259575f5ffd5b806314b5d07f1461011f578063348ec5c8146101405780634585e33b1461017c5780634f1ef2861461019b57806351edffb1146101ae575b5f5ffd5b34801561012a575f5ffd5b5061013e61013936600461175e565b6103ab565b005b34801561014b575f5ffd5b5060025461015f906001600160a01b031681565b6040516001600160a01b0390911681526020015b60405180910390f35b348015610187575f5ffd5b5061013e610196366004611779565b610421565b61013e6101a936600461182c565b6107e2565b3480156101b9575f5ffd5b5061013e6101c83660046118d3565b6107fd565b3480156101d8575f5ffd5b506101e1610aa8565b604051908152602001610173565b3480156101fa575f5ffd5b505f5461015f906001600160a01b031681565b348015610218575f5ffd5b5061013e61022736600461175e565b610ac3565b348015610237575f5ffd5b5061024b610246366004611779565b610b14565b60405161017392919061192b565b348015610264575f5ffd5b5061013e610baa565b348015610278575f5ffd5b5060015461015f906001600160a01b031681565b348015610297575f5ffd5b5061013e610bbd565b3480156102ab575f5ffd5b5061015f610c0a565b3480156102bf575f5ffd5b506102e4604051806040016040528060058152602001640352e302e360dc1b81525081565b604051610173919061194d565b3480156102fc575f5ffd5b5061013e61030b36600461195f565b610c3e565b34801561031b575f5ffd5b5061013e61032a366004611996565b610cd7565b34801561033a575f5ffd5b5061015f61034936600461175e565b60036020525f90815260409020546001600160a01b031681565b34801561036e575f5ffd5b5061015f610ef3565b348015610382575f5ffd5b506101e160045481565b348015610397575f5ffd5b5061013e6103a636600461175e565b610f1b565b6103b3610fa0565b6001600160a01b0381166103da5760405163d92e233d60e01b815260040160405180910390fd5b5f80546001600160a01b0319166001600160a01b038316908117825560405190917f6cc7ebdb6c8c53291c5ae16148cab9b049d23bf5bde5632900b40edff56fcb4391a250565b5f546001600160a01b0316331461044b5760405163ea8e4eb560e01b815260040160405180910390fd5b60025460408051630a58ce2d60e11b815290515f926001600160a01b0316916314b19c5a9160048083019260209291908290030181865afa158015610492573d5f5f3e3d5ffd5b505050506040513d601f19601f820116820180604052508101906104b691906119de565b905060045481116104c657505050565b6004818155600254604080516318596bb160e31b815290515f9384936001600160a01b03169263c2cb5d88928183019286928290030181865afa15801561050f573d5f5f3e3d5ffd5b505050506040513d5f823e601f3d908101601f191682016040526105369190810190611a8b565b90925090505f5b8251811015610594575f83828151811061055957610559611b49565b602002602001015190505f83838151811061057657610576611b49565b6020026020010151905061058a8282610fd2565b505060010161053d565b505f5f60025f9054906101000a90046001600160a01b03166001600160a01b031663a08b82d76040518163ffffffff1660e01b81526004015f60405180830381865afa1580156105e6573d5f5f3e3d5ffd5b505050506040513d5f823e601f3d908101601f1916820160405261060d9190810190611a8b565b90925090505f5b825181101561066b575f83828151811061063057610630611b49565b602002602001015190505f83838151811061064d5761064d611b49565b6020026020010151905061066182826110f6565b5050600101610614565b50600154604051631da09e4360e31b81525f916001600160a01b03169063ed04f2189061069c908490600401611b5d565b5f60405180830381865afa1580156106b6573d5f5f3e3d5ffd5b505050506040513d5f823e601f3d908101601f191682016040526106dd9190810190611b83565b80519091505f5b8181101561070a575f8382815181106106ff576106ff611b49565b5050506001016106e4565b5060018054604051631da09e4360e31b81525f926001600160a01b039092169163ed04f2189161073d9190600401611b5d565b5f60405180830381865afa158015610757573d5f5f3e3d5ffd5b505050506040513d5f823e601f3d908101601f1916820160405261077e9190810190611b83565b8051925090505f5b828110156107ac575f8282815181106107a1576107a1611b49565b505050600101610786565b506040517ff0094b59b7bc92e9fc611b14b5d3a34fe02530ac9bcf36c2c6f10147c3030c12905f90a150505050505050505b5050565b6107ea611288565b6107f38261132c565b6107de8282611334565b600154604051631da09e4360e31b81525f916001600160a01b03169063ed04f2189061082d908490600401611b5d565b5f60405180830381865afa158015610847573d5f5f3e3d5ffd5b505050506040513d5f823e601f3d908101601f1916820160405261086e9190810190611b83565b60018054604051631da09e4360e31b81529293505f926001600160a01b039091169163ed04f218916108a39190600401611b5d565b5f60405180830381865afa1580156108bd573d5f5f3e3d5ffd5b505050506040513d5f823e601f3d908101601f191682016040526108e49190810190611b83565b90505f805b835181101561093557336001600160a01b031684828151811061090e5761090e611b49565b60200260200101516001600160a01b03160361092d5760019150610935565b6001016108e9565b508061098b575f5b825181101561098957336001600160a01b031683828151811061096257610962611b49565b60200260200101516001600160a01b0316036109815760019150610989565b60010161093d565b505b806109a95760405163ea8e4eb560e01b815260040160405180910390fd5b5f336001600160a01b03166338d52e0f6040518163ffffffff1660e01b8152600401602060405180830381865afa1580156109e6573d5f5f3e3d5ffd5b505050506040513d601f19601f82011682018060405250810190610a0a9190611bb5565b60405163a9059cbb60e01b81526001600160a01b038881166004830152602482018890529192505f9183169063a9059cbb906044016020604051808303815f875af1158015610a5b573d5f5f3e3d5ffd5b505050506040513d601f19601f82011682018060405250810190610a7f9190611bd0565b905080610a9f576040516312171d8360e31b815260040160405180910390fd5b50505050505050565b5f610ab16113f5565b505f516020611c065f395f51905f5290565b610acb610fa0565b6001600160a01b038116610af25760405163d92e233d60e01b815260040160405180910390fd5b600180546001600160a01b0319166001600160a01b0392909216919091179055565b5f60605f60025f9054906101000a90046001600160a01b03166001600160a01b03166314b19c5a6040518163ffffffff1660e01b8152600401602060405180830381865afa158015610b68573d5f5f3e3d5ffd5b505050506040513d601f19601f82011682018060405250810190610b8c91906119de565b60045460408051602081019091525f81529111969095509350505050565b610bb2610fa0565b610bbb5f61143e565b565b3380610bc7610ef3565b6001600160a01b031614610bfe5760405163118cdaa760e01b81526001600160a01b03821660048201526024015b60405180910390fd5b610c078161143e565b50565b5f807f9016d09d72d40fdae2fd8ceac6b6234c7706214fd39c1cd1e609a0528c1993005b546001600160a01b031692915050565b610c46610fa0565b6001600160a01b0382161580610c6357506001600160a01b038116155b15610c815760405163d92e233d60e01b815260040160405180910390fd5b6001600160a01b038281165f8181526003602052604080822080546001600160a01b0319169486169485179055517fe5e39617beb2a298b9fa1c3928582d9a96ba7ef7c920acd1117d1d415568670a9190a35050565b7ff0c57e16840df040f15088dc2f81fe391c3923bec73e23a9662efc9c229c6a008054600160401b810460ff16159067ffffffffffffffff165f81158015610d1c5750825b90505f8267ffffffffffffffff166001148015610d385750303b155b905081158015610d46575080155b15610d645760405163f92ee8a960e01b815260040160405180910390fd5b845467ffffffffffffffff191660011785558315610d8e57845460ff60401b1916600160401b1785555b610d9788611476565b610d9f611487565b610da7611487565b6001600160a01b038716610dce5760405163d92e233d60e01b815260040160405180910390fd5b6001600160a01b038616610df55760405163d92e233d60e01b815260040160405180910390fd5b5f80546001600160a01b03808a166001600160a01b03199283161790925560018054928916929091168217905560408051630691d8b960e31b8152905163348ec5c8916004808201926020929091908290030181865afa158015610e5b573d5f5f3e3d5ffd5b505050506040513d601f19601f82011682018060405250810190610e7f9190611bb5565b600280546001600160a01b0319166001600160a01b03929092169190911790555f6004558315610ee957845460ff60401b19168555604051600181527fc7f505b2f371ae2175ee4913f4499e1f2633a7b5936321eed1cdaeb6115181d29060200160405180910390a15b5050505050505050565b5f807f237e158222e3e6968b72b9db0d8043aacf074ad9f650f0d1606b4d82ee432c00610c2e565b610f23610fa0565b7f237e158222e3e6968b72b9db0d8043aacf074ad9f650f0d1606b4d82ee432c0080546001600160a01b0319166001600160a01b0383169081178255610f67610c0a565b6001600160a01b03167f38d16b8cac22d99fc7c124b9cd0de2d3fa1faef420bfe791d8c362d765e2270060405160405180910390a35050565b33610fa9610c0a565b6001600160a01b031614610bbb5760405163118cdaa760e01b8152336004820152602401610bf5565b6001600160a01b038083165f90815260036020526040902054168061100a57604051635048c2af60e11b815260040160405180910390fd5b60405163a9059cbb60e01b81526001600160a01b038281166004830152602482018490525f919085169063a9059cbb906044016020604051808303815f875af1158015611059573d5f5f3e3d5ffd5b505050506040513d601f19601f8201168201806040525081019061107d9190611bd0565b90508061109d576040516312171d8360e31b815260040160405180910390fd5b604051636c197ff560e01b81526001600160a01b03858116600483015260248201859052831690636c197ff5906044015f604051808303815f87803b1580156110e4575f5ffd5b505af1158015610ee9573d5f5f3e3d5ffd5b6001600160a01b038083165f90815260036020526040902054168061112e57604051635048c2af60e11b815260040160405180910390fd5b5f836001600160a01b03166338d52e0f6040518163ffffffff1660e01b8152600401602060405180830381865afa15801561116b573d5f5f3e3d5ffd5b505050506040513d601f19601f8201168201806040525081019061118f9190611bb5565b60405163a9059cbb60e01b81526001600160a01b038481166004830152602482018690529192505f9183169063a9059cbb906044016020604051808303815f875af11580156111e0573d5f5f3e3d5ffd5b505050506040513d601f19601f820116820180604052508101906112049190611bd0565b905080611224576040516312171d8360e31b815260040160405180910390fd5b60405163cce7ec1360e01b81526001600160a01b0386811660048301526024820186905284169063cce7ec13906044015f604051808303815f87803b15801561126b575f5ffd5b505af115801561127d573d5f5f3e3d5ffd5b505050505050505050565b306001600160a01b037f000000000000000000000000000000000000000000000000000000000000000016148061130e57507f00000000000000000000000000000000000000000000000000000000000000006001600160a01b03166113025f516020611c065f395f51905f52546001600160a01b031690565b6001600160a01b031614155b15610bbb5760405163703e46dd60e11b815260040160405180910390fd5b610c07610fa0565b816001600160a01b03166352d1902d6040518163ffffffff1660e01b8152600401602060405180830381865afa92505050801561138e575060408051601f3d908101601f1916820190925261138b918101906119de565b60015b6113b657604051634c9c8ce360e01b81526001600160a01b0383166004820152602401610bf5565b5f516020611c065f395f51905f5281146113e657604051632a87526960e21b815260048101829052602401610bf5565b6113f0838361148f565b505050565b306001600160a01b037f00000000000000000000000000000000000000000000000000000000000000001614610bbb5760405163703e46dd60e11b815260040160405180910390fd5b7f237e158222e3e6968b72b9db0d8043aacf074ad9f650f0d1606b4d82ee432c0080546001600160a01b03191681556107de826114e4565b61147e611554565b610c078161159d565b610bbb611554565b611498826115ce565b6040516001600160a01b038316907fbc7cd75a20ee27fd9adebab32041f755214dbc6bffa90cc0225b39da2e5c2d3b905f90a28051156114dc576113f08282611631565b6107de6116a3565b7f9016d09d72d40fdae2fd8ceac6b6234c7706214fd39c1cd1e609a0528c19930080546001600160a01b031981166001600160a01b03848116918217845560405192169182907f8be0079c531659141344cd1fd0a4f28419497f9722a3daafe3b4186f6b6457e0905f90a3505050565b7ff0c57e16840df040f15088dc2f81fe391c3923bec73e23a9662efc9c229c6a0054600160401b900460ff16610bbb57604051631afcd79f60e31b815260040160405180910390fd5b6115a5611554565b6001600160a01b038116610bfe57604051631e4fbdf760e01b81525f6004820152602401610bf5565b806001600160a01b03163b5f0361160357604051634c9c8ce360e01b81526001600160a01b0382166004820152602401610bf5565b5f516020611c065f395f51905f5280546001600160a01b0319166001600160a01b0392909216919091179055565b60605f5f846001600160a01b03168460405161164d9190611bef565b5f60405180830381855af49150503d805f8114611685576040519150601f19603f3d011682016040523d82523d5f602084013e61168a565b606091505b509150915061169a8583836116c2565b95945050505050565b3415610bbb5760405163b398979f60e01b815260040160405180910390fd5b6060826116d7576116d282611721565b61171a565b81511580156116ee57506001600160a01b0384163b155b1561171757604051639996b31560e01b81526001600160a01b0385166004820152602401610bf5565b50805b9392505050565b8051156117315780518082602001fd5b60405163d6bda27560e01b815260040160405180910390fd5b6001600160a01b0381168114610c07575f5ffd5b5f6020828403121561176e575f5ffd5b813561171a8161174a565b5f5f6020838503121561178a575f5ffd5b823567ffffffffffffffff8111156117a0575f5ffd5b8301601f810185136117b0575f5ffd5b803567ffffffffffffffff8111156117c6575f5ffd5b8560208284010111156117d7575f5ffd5b6020919091019590945092505050565b634e487b7160e01b5f52604160045260245ffd5b604051601f8201601f1916810167ffffffffffffffff81118282101715611824576118246117e7565b604052919050565b5f5f6040838503121561183d575f5ffd5b82356118488161174a565b9150602083013567ffffffffffffffff811115611863575f5ffd5b8301601f81018513611873575f5ffd5b803567ffffffffffffffff81111561188d5761188d6117e7565b6118a0601f8201601f19166020016117fb565b8181528660208385010111156118b4575f5ffd5b816020840160208301375f602083830101528093505050509250929050565b5f5f604083850312156118e4575f5ffd5b82356118ef8161174a565b946020939093013593505050565b5f81518084528060208401602086015e5f602082860101526020601f19601f83011685010191505092915050565b8215158152604060208201525f61194560408301846118fd565b949350505050565b602081525f61171a60208301846118fd565b5f5f60408385031215611970575f5ffd5b823561197b8161174a565b9150602083013561198b8161174a565b809150509250929050565b5f5f5f606084860312156119a8575f5ffd5b83356119b38161174a565b925060208401356119c38161174a565b915060408401356119d38161174a565b809150509250925092565b5f602082840312156119ee575f5ffd5b5051919050565b5f67ffffffffffffffff821115611a0e57611a0e6117e7565b5060051b60200190565b5f82601f830112611a27575f5ffd5b8151611a3a611a35826119f5565b6117fb565b8082825260208201915060208360051b860101925085831115611a5b575f5ffd5b602085015b83811015611a81578051611a738161174a565b835260209283019201611a60565b5095945050505050565b5f5f60408385031215611a9c575f5ffd5b825167ffffffffffffffff811115611ab2575f5ffd5b611abe85828601611a18565b925050602083015167ffffffffffffffff811115611ada575f5ffd5b8301601f81018513611aea575f5ffd5b8051611af8611a35826119f5565b8082825260208201915060208360051b850101925087831115611b19575f5ffd5b6020840193505b82841015611b3b578351825260209384019390910190611b20565b809450505050509250929050565b634e487b7160e01b5f52603260045260245ffd5b6020810160028310611b7d57634e487b7160e01b5f52602160045260245ffd5b91905290565b5f60208284031215611b93575f5ffd5b815167ffffffffffffffff811115611ba9575f5ffd5b61194584828501611a18565b5f60208284031215611bc5575f5ffd5b815161171a8161174a565b5f60208284031215611be0575f5ffd5b8151801515811461171a575f5ffd5b5f82518060208501845e5f92019182525091905056fe360894a13ba1a3210667c828492db98dca3e2076cc3735a920a3ca505d382bbca26469706673582212201afd0919e32b7d80e87b977727959eaf2af505ab0a0f834b6b3c543d5b0b665464736f6c634300081c0033",
  "linkReferences": {},
  "deployedLinkReferences": {}
}