{
  "_format": "hh-sol-artifact-1",
  "contractName": "LiquidityOrchestrator",
  "sourceName": "contracts/orchestrators/LiquidityOrchestrator.sol",
  "abi": [
    {
      "inputs": [
        {
          "internalType": "address",
          "name": "initialOwner",
          "type": "address"
        },
        {
          "internalType": "address",
          "name": "config_",
          "type": "address"
        },
        {
          "internalType": "address",
          "name": "automationRegistry_",
          "type": "address"
        }
      ],
      "stateMutability": "nonpayable",
      "type": "constructor"
    },
    {
      "inputs": [],
      "name": "AdapterNotSet",
      "type": "error"
    },
    {
      "inputs": [
        {
          "internalType": "address",
          "name": "asset",
          "type": "address"
        }
      ],
      "name": "AmountMustBeGreaterThanZero",
      "type": "error"
    },
    {
      "inputs": [],
      "name": "InvalidArguments",
      "type": "error"
    },
    {
      "inputs": [],
      "name": "NotAuthorized",
      "type": "error"
    },
    {
      "inputs": [
        {
          "internalType": "address",
          "name": "owner",
          "type": "address"
        }
      ],
      "name": "OwnableInvalidOwner",
      "type": "error"
    },
    {
      "inputs": [
        {
          "internalType": "address",
          "name": "account",
          "type": "address"
        }
      ],
      "name": "OwnableUnauthorizedAccount",
      "type": "error"
    },
    {
      "inputs": [],
      "name": "SystemNotIdle",
      "type": "error"
    },
    {
      "inputs": [],
      "name": "TransferFailed",
      "type": "error"
    },
    {
      "inputs": [],
      "name": "ZeroAddress",
      "type": "error"
    },
    {
      "anonymous": false,
      "inputs": [
        {
          "indexed": true,
          "internalType": "address",
          "name": "newAutomationRegistry",
          "type": "address"
        }
      ],
      "name": "AutomationRegistryUpdated",
      "type": "event"
    },
    {
      "anonymous": false,
      "inputs": [
        {
          "indexed": true,
          "internalType": "address",
          "name": "asset",
          "type": "address"
        },
        {
          "indexed": true,
          "internalType": "address",
          "name": "adapter",
          "type": "address"
        }
      ],
      "name": "ExecutionAdapterSet",
      "type": "event"
    },
    {
      "anonymous": false,
      "inputs": [
        {
          "indexed": true,
          "internalType": "address",
          "name": "previousOwner",
          "type": "address"
        },
        {
          "indexed": true,
          "internalType": "address",
          "name": "newOwner",
          "type": "address"
        }
      ],
      "name": "OwnershipTransferred",
      "type": "event"
    },
    {
      "anonymous": false,
      "inputs": [],
      "name": "PortfolioRebalanced",
      "type": "event"
    },
    {
      "inputs": [],
      "name": "automationRegistry",
      "outputs": [
        {
          "internalType": "address",
          "name": "",
          "type": "address"
        }
      ],
      "stateMutability": "view",
      "type": "function"
    },
    {
      "inputs": [
        {
          "internalType": "bytes",
          "name": "",
          "type": "bytes"
        }
      ],
      "name": "checkUpkeep",
      "outputs": [
        {
          "internalType": "bool",
          "name": "upkeepNeeded",
          "type": "bool"
        },
        {
          "internalType": "bytes",
          "name": "performData",
          "type": "bytes"
        }
      ],
      "stateMutability": "view",
      "type": "function"
    },
    {
      "inputs": [],
      "name": "config",
      "outputs": [
        {
          "internalType": "contract IOrionConfig",
          "name": "",
          "type": "address"
        }
      ],
      "stateMutability": "view",
      "type": "function"
    },
    {
      "inputs": [],
      "name": "currentPhase",
      "outputs": [
        {
          "internalType": "enum ILiquidityOrchestrator.LiquidityUpkeepPhase",
          "name": "",
          "type": "uint8"
        }
      ],
      "stateMutability": "view",
      "type": "function"
    },
    {
      "inputs": [
        {
          "internalType": "address",
          "name": "",
          "type": "address"
        }
      ],
      "name": "executionAdapterOf",
      "outputs": [
        {
          "internalType": "contract IExecutionAdapter",
          "name": "",
          "type": "address"
        }
      ],
      "stateMutability": "view",
      "type": "function"
    },
    {
      "inputs": [],
      "name": "executionMinibatchSize",
      "outputs": [
        {
          "internalType": "uint8",
          "name": "",
          "type": "uint8"
        }
      ],
      "stateMutability": "view",
      "type": "function"
    },
    {
      "inputs": [],
      "name": "internalStatesOrchestrator",
      "outputs": [
        {
          "internalType": "contract IInternalStateOrchestrator",
          "name": "",
          "type": "address"
        }
      ],
      "stateMutability": "view",
      "type": "function"
    },
    {
      "inputs": [],
      "name": "lastProcessedEpoch",
      "outputs": [
        {
          "internalType": "uint16",
          "name": "",
          "type": "uint16"
        }
      ],
      "stateMutability": "view",
      "type": "function"
    },
    {
      "inputs": [],
      "name": "owner",
      "outputs": [
        {
          "internalType": "address",
          "name": "",
          "type": "address"
        }
      ],
      "stateMutability": "view",
      "type": "function"
    },
    {
      "inputs": [
        {
          "internalType": "bytes",
          "name": "",
          "type": "bytes"
        }
      ],
      "name": "performUpkeep",
      "outputs": [],
      "stateMutability": "nonpayable",
      "type": "function"
    },
    {
      "inputs": [],
      "name": "renounceOwnership",
      "outputs": [],
      "stateMutability": "nonpayable",
      "type": "function"
    },
    {
      "inputs": [
        {
          "internalType": "address",
          "name": "user",
          "type": "address"
        },
        {
          "internalType": "uint256",
          "name": "amount",
          "type": "uint256"
        }
      ],
      "name": "returnDepositFunds",
      "outputs": [],
      "stateMutability": "nonpayable",
      "type": "function"
    },
    {
      "inputs": [
        {
          "internalType": "address",
          "name": "user",
          "type": "address"
        },
        {
          "internalType": "uint256",
          "name": "shares",
          "type": "uint256"
        }
      ],
      "name": "returnWithdrawShares",
      "outputs": [],
      "stateMutability": "nonpayable",
      "type": "function"
    },
    {
      "inputs": [
        {
          "internalType": "address",
          "name": "asset",
          "type": "address"
        },
        {
          "internalType": "contract IExecutionAdapter",
          "name": "adapter",
          "type": "address"
        }
      ],
      "name": "setExecutionAdapter",
      "outputs": [],
      "stateMutability": "nonpayable",
      "type": "function"
    },
    {
      "inputs": [
        {
          "internalType": "uint256",
          "name": "amount",
          "type": "uint256"
        }
      ],
      "name": "transferCuratorFees",
      "outputs": [],
      "stateMutability": "nonpayable",
      "type": "function"
    },
    {
      "inputs": [
        {
          "internalType": "address",
          "name": "newOwner",
          "type": "address"
        }
      ],
      "name": "transferOwnership",
      "outputs": [],
      "stateMutability": "nonpayable",
      "type": "function"
    },
    {
      "inputs": [],
      "name": "underlyingAsset",
      "outputs": [
        {
          "internalType": "address",
          "name": "",
          "type": "address"
        }
      ],
      "stateMutability": "view",
      "type": "function"
    },
    {
      "inputs": [
        {
          "internalType": "address",
          "name": "asset",
          "type": "address"
        }
      ],
      "name": "unsetExecutionAdapter",
      "outputs": [],
      "stateMutability": "nonpayable",
      "type": "function"
    },
    {
      "inputs": [
        {
          "internalType": "address",
          "name": "newAutomationRegistry",
          "type": "address"
        }
      ],
      "name": "updateAutomationRegistry",
      "outputs": [],
      "stateMutability": "nonpayable",
      "type": "function"
    },
    {
      "inputs": [
        {
          "internalType": "uint8",
          "name": "_executionMinibatchSize",
          "type": "uint8"
        }
      ],
      "name": "updateExecutionMinibatchSize",
      "outputs": [],
      "stateMutability": "nonpayable",
      "type": "function"
    }
  ],
  "bytecode": "0x608060405234801561000f575f5ffd5b5060405161199038038061199083398101604081905261002e9161025f565b826001600160a01b03811661005c57604051631e4fbdf760e01b81525f600482015260240160405180910390fd5b610065816101f9565b506001600160a01b03821661008d5760405163d92e233d60e01b815260040160405180910390fd5b6001600160a01b0381166100b45760405163d92e233d60e01b815260040160405180910390fd5b600280546001600160a01b0319166001600160a01b03841690811790915560408051630691d8b960e31b8152905163348ec5c8916004808201926020929091908290030181865afa15801561010b573d5f5f3e3d5ffd5b505050506040513d601f19601f8201168201806040525081019061012f91906102a9565b600380546001600160a01b0319166001600160a01b0392831617905560025460408051631c56369f60e21b815290519190921691637158da7c9160048083019260209291908290030181865afa15801561018b573d5f5f3e3d5ffd5b505050506040513d601f19601f820116820180604052508101906101af91906102a9565b600480546001600160a01b03199081166001600160a01b0393841617909155600180549091169290911691909117905550506006805463ffffffff191663010000001790556102cb565b5f80546001600160a01b038381166001600160a01b0319831681178455604051919092169283917f8be0079c531659141344cd1fd0a4f28419497f9722a3daafe3b4186f6b6457e09190a35050565b6001600160a01b038116811461025c575f5ffd5b50565b5f5f5f60608486031215610271575f5ffd5b835161027c81610248565b602085015190935061028d81610248565b604085015190925061029e81610248565b809150509250925092565b5f602082840312156102b9575f5ffd5b81516102c481610248565b9392505050565b6116b8806102d85f395ff3fe608060405234801561000f575f5ffd5b50600436106100fa575f3560e01c8063055ad42e146100fe57806314b5d07f14610127578063348ec5c81461013c5780634585e33b1461015c57806351edffb11461016f57806357be01c11461018257806359017aa9146101a85780635dc228a0146101bb5780636e04ff0d146101ce578063715018a6146101ef5780637158da7c146101f7578063741fca4b1461020a57806379502c551461021d578063841181ef146102305780638a0b0d38146102435780638da5cb5b14610256578063be186b201461025e578063d3f3506d14610271578063ee6713df14610299578063f2fde38b146102ba575b5f5ffd5b6006546101119062010000900460ff1681565b60405161011e9190611224565b60405180910390f35b61013a610135366004611252565b6102cd565b005b60035461014f906001600160a01b031681565b60405161011e9190611274565b61013a61016a366004611288565b6103d6565b61013a61017d3660046112f4565b6107f8565b600654610196906301000000900460ff1681565b60405160ff909116815260200161011e565b61013a6101b636600461131e565b61091c565b60015461014f906001600160a01b031681565b6101e16101dc366004611288565b6109c5565b60405161011e929190611355565b61013a610b2d565b60045461014f906001600160a01b031681565b61013a610218366004611393565b610b40565b60025461014f906001600160a01b031681565b61013a61023e366004611252565b610d00565b61013a6102513660046113aa565b610d91565b61014f610e6d565b61013a61026c3660046112f4565b610e7b565b61014f61027f366004611252565b60056020525f90815260409020546001600160a01b031681565b6006546102a79061ffff1681565b60405161ffff909116815260200161011e565b61013a6102c8366004611252565b610f30565b6102d5610f6d565b6001600160a01b0381166102fc5760405163d92e233d60e01b815260040160405180910390fd5b60025f9054906101000a90046001600160a01b03166001600160a01b031663edcf9c1f6040518163ffffffff1660e01b8152600401602060405180830381865afa15801561034c573d5f5f3e3d5ffd5b505050506040513d601f19601f8201168201806040525081019061037091906113ca565b61038d576040516312aecd8160e01b815260040160405180910390fd5b600180546001600160a01b0319166001600160a01b0383169081179091556040517f6cc7ebdb6c8c53291c5ae16148cab9b049d23bf5bde5632900b40edff56fcb43905f90a250565b6001546001600160a01b031633146104015760405163ea8e4eb560e01b815260040160405180910390fd5b60035460408051630a58ce2d60e11b815290515f926001600160a01b0316916314b19c5a9160048083019260209291908290030181865afa158015610448573d5f5f3e3d5ffd5b505050506040513d601f19601f8201168201806040525081019061046c91906113e9565b60065490915061ffff9081169082161161048557505050565b6006805461ffff191661ffff8316179055600354604080516318596bb160e31b815290515f9283926001600160a01b039091169163c2cb5d889160048082019286929091908290030181865afa1580156104e1573d5f5f3e3d5ffd5b505050506040513d5f823e601f3d908101601f1916820160405261050891908101906114e3565b90925090505f5b82518161ffff16101561057d575f838261ffff1681518110610533576105336115a1565b602002602001015190505f838361ffff1681518110610554576105546115a1565b602002602001015190506105688282610f9f565b50508080610575906115b5565b91505061050f565b505f5f60035f9054906101000a90046001600160a01b03166001600160a01b031663a08b82d76040518163ffffffff1660e01b81526004015f60405180830381865afa1580156105cf573d5f5f3e3d5ffd5b505050506040513d5f823e601f3d908101601f191682016040526105f691908101906114e3565b90925090505f5b82518161ffff16101561066b575f838261ffff1681518110610621576106216115a1565b602002602001015190505f838361ffff1681518110610642576106426115a1565b6020026020010151905061065682826110c8565b50508080610663906115b5565b9150506105fd565b50600254604051631da09e4360e31b81525f916001600160a01b03169063ed04f2189061069c9084906004016115e1565b5f60405180830381865afa1580156106b6573d5f5f3e3d5ffd5b505050506040513d5f823e601f3d908101601f191682016040526106dd91908101906115f5565b80519091505f5b8161ffff168161ffff161015610716575f838261ffff168151811061070b5761070b6115a1565b5050506001016106e4565b50600254604051631da09e4360e31b81525f916001600160a01b03169063ed04f21890610748906001906004016115e1565b5f60405180830381865afa158015610762573d5f5f3e3d5ffd5b505050506040513d5f823e601f3d908101601f1916820160405261078991908101906115f5565b8051925090505f5b8261ffff168161ffff1610156107c3575f828261ffff16815181106107b8576107b86115a1565b505050600101610791565b506040517ff0094b59b7bc92e9fc611b14b5d3a34fe02530ac9bcf36c2c6f10147c3030c12905f90a150505050505050505050565b600254604051633821dad160e21b81526001600160a01b039091169063e0876b4490610828903390600401611274565b602060405180830381865afa158015610843573d5f5f3e3d5ffd5b505050506040513d601f19601f8201168201806040525081019061086791906113ca565b6108845760405163ea8e4eb560e01b815260040160405180910390fd5b6004805460405163a9059cbb60e01b81525f926001600160a01b039092169163a9059cbb916108b791879187910161162e565b6020604051808303815f875af11580156108d3573d5f5f3e3d5ffd5b505050506040513d601f19601f820116820180604052508101906108f791906113ca565b905080610917576040516312171d8360e31b815260040160405180910390fd5b505050565b6002546001600160a01b031633146109475760405163ea8e4eb560e01b815260040160405180910390fd5b6001600160a01b038216158061096457506001600160a01b038116155b156109825760405163d92e233d60e01b815260040160405180910390fd5b6001600160a01b038281165f8181526005602052604080822080546001600160a01b0319169486169485179055515f5160206116635f395f51905f529190a35050565b5f60605f60035f9054906101000a90046001600160a01b03166001600160a01b03166314b19c5a6040518163ffffffff1660e01b8152600401602060405180830381865afa158015610a19573d5f5f3e3d5ffd5b505050506040513d601f19601f82011682018060405250810190610a3d91906113e9565b60065490915061ffff908116908216118015610ac8575060025f9054906101000a90046001600160a01b03166001600160a01b031663edcf9c1f6040518163ffffffff1660e01b8152600401602060405180830381865afa158015610aa4573d5f5f3e3d5ffd5b505050506040513d601f19601f82011682018060405250810190610ac891906113ca565b15610b105760019250604051602001610afa906020808252600590820152641cdd185c9d60da1b604082015260600190565b6040516020818303038152906040529150610b25565b5f925060405180602001604052805f81525091505b509250929050565b610b35610f6d565b610b3e5f6111c1565b565b600254604051633821dad160e21b815233916001600160a01b03169063e0876b4490610b70908490600401611274565b602060405180830381865afa158015610b8b573d5f5f3e3d5ffd5b505050506040513d601f19601f82011682018060405250810190610baf91906113ca565b610bcc5760405163ea8e4eb560e01b815260040160405180910390fd5b815f03610c035760048054604051636b30633560e01b8152610bfa926001600160a01b039092169101611274565b60405180910390fd5b5f816001600160a01b0316631f52692b6040518163ffffffff1660e01b8152600401602060405180830381865afa158015610c40573d5f5f3e3d5ffd5b505050506040513d601f19601f82011682018060405250810190610c649190611647565b6004805460405163a9059cbb60e01b81529293505f926001600160a01b039091169163a9059cbb91610c9a91869189910161162e565b6020604051808303815f875af1158015610cb6573d5f5f3e3d5ffd5b505050506040513d601f19601f82011682018060405250810190610cda91906113ca565b905080610cfa576040516312171d8360e31b815260040160405180910390fd5b50505050565b6002546001600160a01b03163314610d2b5760405163ea8e4eb560e01b815260040160405180910390fd5b6001600160a01b038116610d525760405163d92e233d60e01b815260040160405180910390fd5b6001600160a01b0381165f8181526005602052604080822080546001600160a01b0319169055519091905f5160206116635f395f51905f52908390a350565b610d99610f6d565b8060ff165f03610dbc576040516317dbc4cb60e21b815260040160405180910390fd5b60025f9054906101000a90046001600160a01b03166001600160a01b031663edcf9c1f6040518163ffffffff1660e01b8152600401602060405180830381865afa158015610e0c573d5f5f3e3d5ffd5b505050506040513d601f19601f82011682018060405250810190610e3091906113ca565b610e4d576040516312aecd8160e01b815260040160405180910390fd5b6006805460ff90921663010000000263ff00000019909216919091179055565b5f546001600160a01b031690565b600254604051633821dad160e21b81526001600160a01b039091169063e0876b4490610eab903390600401611274565b602060405180830381865afa158015610ec6573d5f5f3e3d5ffd5b505050506040513d601f19601f82011682018060405250810190610eea91906113ca565b610f075760405163ea8e4eb560e01b815260040160405180910390fd5b60405163a9059cbb60e01b815233905f90829063a9059cbb90610c9a908790879060040161162e565b610f38610f6d565b6001600160a01b038116610f61575f604051631e4fbdf760e01b8152600401610bfa9190611274565b610f6a816111c1565b50565b33610f76610e6d565b6001600160a01b031614610b3e573360405163118cdaa760e01b8152600401610bfa9190611274565b6001600160a01b038083165f908152600560205260409020541680610fd757604051635048c2af60e11b815260040160405180910390fd5b60405163095ea7b360e01b81525f906001600160a01b0385169063095ea7b390611007908590879060040161162e565b6020604051808303815f875af1158015611023573d5f5f3e3d5ffd5b505050506040513d601f19601f8201168201806040525081019061104791906113ca565b905080611067576040516312171d8360e31b815260040160405180910390fd5b604051636c197ff560e01b81526001600160a01b03831690636c197ff590611095908790879060040161162e565b5f604051808303815f87803b1580156110ac575f5ffd5b505af11580156110be573d5f5f3e3d5ffd5b5050505050505050565b6001600160a01b038083165f90815260056020526040902054168061110057604051635048c2af60e11b815260040160405180910390fd5b6004805460405163095ea7b360e01b81525f926001600160a01b039092169163095ea7b39161113391869188910161162e565b6020604051808303815f875af115801561114f573d5f5f3e3d5ffd5b505050506040513d601f19601f8201168201806040525081019061117391906113ca565b905080611193576040516312171d8360e31b815260040160405180910390fd5b60405163cce7ec1360e01b81526001600160a01b0383169063cce7ec1390611095908790879060040161162e565b5f80546001600160a01b038381166001600160a01b0319831681178455604051919092169283917f8be0079c531659141344cd1fd0a4f28419497f9722a3daafe3b4186f6b6457e09190a35050565b634e487b7160e01b5f52602160045260245ffd5b602081016004831061123857611238611210565b91905290565b6001600160a01b0381168114610f6a575f5ffd5b5f60208284031215611262575f5ffd5b813561126d8161123e565b9392505050565b6001600160a01b0391909116815260200190565b5f5f60208385031215611299575f5ffd5b82356001600160401b038111156112ae575f5ffd5b8301601f810185136112be575f5ffd5b80356001600160401b038111156112d3575f5ffd5b8560208284010111156112e4575f5ffd5b6020919091019590945092505050565b5f5f60408385031215611305575f5ffd5b82356113108161123e565b946020939093013593505050565b5f5f6040838503121561132f575f5ffd5b823561133a8161123e565b9150602083013561134a8161123e565b809150509250929050565b8215158152604060208201525f82518060408401528060208501606085015e5f606082850101526060601f19601f8301168401019150509392505050565b5f602082840312156113a3575f5ffd5b5035919050565b5f602082840312156113ba575f5ffd5b813560ff8116811461126d575f5ffd5b5f602082840312156113da575f5ffd5b8151801515811461126d575f5ffd5b5f602082840312156113f9575f5ffd5b815161ffff8116811461126d575f5ffd5b634e487b7160e01b5f52604160045260245ffd5b604051601f8201601f191681016001600160401b03811182821017156114465761144661140a565b604052919050565b5f6001600160401b038211156114665761146661140a565b5060051b60200190565b5f82601f83011261147f575f5ffd5b815161149261148d8261144e565b61141e565b8082825260208201915060208360051b8601019250858311156114b3575f5ffd5b602085015b838110156114d95780516114cb8161123e565b8352602092830192016114b8565b5095945050505050565b5f5f604083850312156114f4575f5ffd5b82516001600160401b03811115611509575f5ffd5b61151585828601611470565b602085015190935090506001600160401b03811115611532575f5ffd5b8301601f81018513611542575f5ffd5b805161155061148d8261144e565b8082825260208201915060208360051b850101925087831115611571575f5ffd5b6020840193505b82841015611593578351825260209384019390910190611578565b809450505050509250929050565b634e487b7160e01b5f52603260045260245ffd5b5f61ffff821661ffff81036115d857634e487b7160e01b5f52601160045260245ffd5b60010192915050565b602081016002831061123857611238611210565b5f60208284031215611605575f5ffd5b81516001600160401b0381111561161a575f5ffd5b61162684828501611470565b949350505050565b6001600160a01b03929092168252602082015260400190565b5f60208284031215611657575f5ffd5b815161126d8161123e56fe2f2727c7b3d9ee55de5c114f0cb7997ac7251a4cbfca4f2b2dc6969d86cce4f4a26469706673582212205102d9c0bd726ca5c7a2196d94dae9953b4a7e5039801591b6493b0df5e08dd864736f6c634300081c0033",
  "linkReferences": {},
  "deployedLinkReferences": {}
}