{
  "_format": "hh-sol-artifact-1",
  "contractName": "LiquidityOrchestrator",
  "sourceName": "contracts/orchestrators/LiquidityOrchestrator.sol",
  "abi": [
    {
      "inputs": [
        {
          "internalType": "address",
          "name": "initialOwner",
          "type": "address"
        },
        {
          "internalType": "address",
          "name": "config_",
          "type": "address"
        },
        {
          "internalType": "address",
          "name": "automationRegistry_",
          "type": "address"
        }
      ],
      "stateMutability": "nonpayable",
      "type": "constructor"
    },
    {
      "inputs": [],
      "name": "AlreadyRegistered",
      "type": "error"
    },
    {
      "inputs": [
        {
          "internalType": "address",
          "name": "asset",
          "type": "address"
        }
      ],
      "name": "AmountMustBeGreaterThanZero",
      "type": "error"
    },
    {
      "inputs": [],
      "name": "InvalidArguments",
      "type": "error"
    },
    {
      "inputs": [],
      "name": "NotAuthorized",
      "type": "error"
    },
    {
      "inputs": [
        {
          "internalType": "address",
          "name": "owner",
          "type": "address"
        }
      ],
      "name": "OwnableInvalidOwner",
      "type": "error"
    },
    {
      "inputs": [
        {
          "internalType": "address",
          "name": "account",
          "type": "address"
        }
      ],
      "name": "OwnableUnauthorizedAccount",
      "type": "error"
    },
    {
      "inputs": [],
      "name": "ReentrancyGuardReentrantCall",
      "type": "error"
    },
    {
      "inputs": [],
      "name": "SystemNotIdle",
      "type": "error"
    },
    {
      "inputs": [],
      "name": "TransferFailed",
      "type": "error"
    },
    {
      "inputs": [],
      "name": "ZeroAddress",
      "type": "error"
    },
    {
      "anonymous": false,
      "inputs": [
        {
          "indexed": true,
          "internalType": "address",
          "name": "newAutomationRegistry",
          "type": "address"
        }
      ],
      "name": "AutomationRegistryUpdated",
      "type": "event"
    },
    {
      "anonymous": false,
      "inputs": [
        {
          "indexed": true,
          "internalType": "address",
          "name": "asset",
          "type": "address"
        },
        {
          "indexed": true,
          "internalType": "address",
          "name": "adapter",
          "type": "address"
        }
      ],
      "name": "ExecutionAdapterSet",
      "type": "event"
    },
    {
      "anonymous": false,
      "inputs": [
        {
          "indexed": true,
          "internalType": "address",
          "name": "previousOwner",
          "type": "address"
        },
        {
          "indexed": true,
          "internalType": "address",
          "name": "newOwner",
          "type": "address"
        }
      ],
      "name": "OwnershipTransferred",
      "type": "event"
    },
    {
      "anonymous": false,
      "inputs": [],
      "name": "PortfolioRebalanced",
      "type": "event"
    },
    {
      "inputs": [],
      "name": "automationRegistry",
      "outputs": [
        {
          "internalType": "address",
          "name": "",
          "type": "address"
        }
      ],
      "stateMutability": "view",
      "type": "function"
    },
    {
      "inputs": [
        {
          "internalType": "uint256",
          "name": "",
          "type": "uint256"
        }
      ],
      "name": "buyingAmounts",
      "outputs": [
        {
          "internalType": "uint256",
          "name": "",
          "type": "uint256"
        }
      ],
      "stateMutability": "view",
      "type": "function"
    },
    {
      "inputs": [
        {
          "internalType": "uint256",
          "name": "",
          "type": "uint256"
        }
      ],
      "name": "buyingTokens",
      "outputs": [
        {
          "internalType": "address",
          "name": "",
          "type": "address"
        }
      ],
      "stateMutability": "view",
      "type": "function"
    },
    {
      "inputs": [
        {
          "internalType": "bytes",
          "name": "",
          "type": "bytes"
        }
      ],
      "name": "checkUpkeep",
      "outputs": [
        {
          "internalType": "bool",
          "name": "upkeepNeeded",
          "type": "bool"
        },
        {
          "internalType": "bytes",
          "name": "performData",
          "type": "bytes"
        }
      ],
      "stateMutability": "view",
      "type": "function"
    },
    {
      "inputs": [
        {
          "internalType": "uint256",
          "name": "amount",
          "type": "uint256"
        }
      ],
      "name": "claimProtocolFees",
      "outputs": [],
      "stateMutability": "nonpayable",
      "type": "function"
    },
    {
      "inputs": [],
      "name": "config",
      "outputs": [
        {
          "internalType": "contract IOrionConfig",
          "name": "",
          "type": "address"
        }
      ],
      "stateMutability": "view",
      "type": "function"
    },
    {
      "inputs": [],
      "name": "currentMinibatchIndex",
      "outputs": [
        {
          "internalType": "uint8",
          "name": "",
          "type": "uint8"
        }
      ],
      "stateMutability": "view",
      "type": "function"
    },
    {
      "inputs": [],
      "name": "currentPhase",
      "outputs": [
        {
          "internalType": "enum ILiquidityOrchestrator.LiquidityUpkeepPhase",
          "name": "",
          "type": "uint8"
        }
      ],
      "stateMutability": "view",
      "type": "function"
    },
    {
      "inputs": [
        {
          "internalType": "address",
          "name": "",
          "type": "address"
        }
      ],
      "name": "executionAdapterOf",
      "outputs": [
        {
          "internalType": "contract IExecutionAdapter",
          "name": "",
          "type": "address"
        }
      ],
      "stateMutability": "view",
      "type": "function"
    },
    {
      "inputs": [],
      "name": "executionMinibatchSize",
      "outputs": [
        {
          "internalType": "uint8",
          "name": "",
          "type": "uint8"
        }
      ],
      "stateMutability": "view",
      "type": "function"
    },
    {
      "inputs": [],
      "name": "internalStatesOrchestrator",
      "outputs": [
        {
          "internalType": "contract IInternalStateOrchestrator",
          "name": "",
          "type": "address"
        }
      ],
      "stateMutability": "view",
      "type": "function"
    },
    {
      "inputs": [],
      "name": "lastProcessedEpoch",
      "outputs": [
        {
          "internalType": "uint16",
          "name": "",
          "type": "uint16"
        }
      ],
      "stateMutability": "view",
      "type": "function"
    },
    {
      "inputs": [],
      "name": "owner",
      "outputs": [
        {
          "internalType": "address",
          "name": "",
          "type": "address"
        }
      ],
      "stateMutability": "view",
      "type": "function"
    },
    {
      "inputs": [
        {
          "internalType": "bytes",
          "name": "performData",
          "type": "bytes"
        }
      ],
      "name": "performUpkeep",
      "outputs": [],
      "stateMutability": "nonpayable",
      "type": "function"
    },
    {
      "inputs": [],
      "name": "renounceOwnership",
      "outputs": [],
      "stateMutability": "nonpayable",
      "type": "function"
    },
    {
      "inputs": [
        {
          "internalType": "address",
          "name": "user",
          "type": "address"
        },
        {
          "internalType": "uint256",
          "name": "amount",
          "type": "uint256"
        }
      ],
      "name": "returnDepositFunds",
      "outputs": [],
      "stateMutability": "nonpayable",
      "type": "function"
    },
    {
      "inputs": [
        {
          "internalType": "uint256",
          "name": "",
          "type": "uint256"
        }
      ],
      "name": "sellingAmounts",
      "outputs": [
        {
          "internalType": "uint256",
          "name": "",
          "type": "uint256"
        }
      ],
      "stateMutability": "view",
      "type": "function"
    },
    {
      "inputs": [
        {
          "internalType": "uint256",
          "name": "",
          "type": "uint256"
        }
      ],
      "name": "sellingTokens",
      "outputs": [
        {
          "internalType": "address",
          "name": "",
          "type": "address"
        }
      ],
      "stateMutability": "view",
      "type": "function"
    },
    {
      "inputs": [
        {
          "internalType": "address",
          "name": "asset",
          "type": "address"
        },
        {
          "internalType": "contract IExecutionAdapter",
          "name": "adapter",
          "type": "address"
        }
      ],
      "name": "setExecutionAdapter",
      "outputs": [],
      "stateMutability": "nonpayable",
      "type": "function"
    },
    {
      "inputs": [
        {
          "internalType": "address",
          "name": "_internalStatesOrchestrator",
          "type": "address"
        }
      ],
      "name": "setInternalStatesOrchestrator",
      "outputs": [],
      "stateMutability": "nonpayable",
      "type": "function"
    },
    {
      "inputs": [
        {
          "internalType": "uint256",
          "name": "_slippageBound",
          "type": "uint256"
        }
      ],
      "name": "setSlippageBound",
      "outputs": [],
      "stateMutability": "nonpayable",
      "type": "function"
    },
    {
      "inputs": [],
      "name": "slippageBound",
      "outputs": [
        {
          "internalType": "uint256",
          "name": "",
          "type": "uint256"
        }
      ],
      "stateMutability": "view",
      "type": "function"
    },
    {
      "inputs": [],
      "name": "targetBufferRatio",
      "outputs": [
        {
          "internalType": "uint256",
          "name": "",
          "type": "uint256"
        }
      ],
      "stateMutability": "view",
      "type": "function"
    },
    {
      "inputs": [
        {
          "internalType": "uint256",
          "name": "amount",
          "type": "uint256"
        }
      ],
      "name": "transferCuratorFees",
      "outputs": [],
      "stateMutability": "nonpayable",
      "type": "function"
    },
    {
      "inputs": [
        {
          "internalType": "address",
          "name": "newOwner",
          "type": "address"
        }
      ],
      "name": "transferOwnership",
      "outputs": [],
      "stateMutability": "nonpayable",
      "type": "function"
    },
    {
      "inputs": [
        {
          "internalType": "address",
          "name": "user",
          "type": "address"
        },
        {
          "internalType": "uint256",
          "name": "amount",
          "type": "uint256"
        }
      ],
      "name": "transferRedemptionFunds",
      "outputs": [],
      "stateMutability": "nonpayable",
      "type": "function"
    },
    {
      "inputs": [],
      "name": "underlyingAsset",
      "outputs": [
        {
          "internalType": "address",
          "name": "",
          "type": "address"
        }
      ],
      "stateMutability": "view",
      "type": "function"
    },
    {
      "inputs": [
        {
          "internalType": "address",
          "name": "asset",
          "type": "address"
        }
      ],
      "name": "unsetExecutionAdapter",
      "outputs": [],
      "stateMutability": "nonpayable",
      "type": "function"
    },
    {
      "inputs": [
        {
          "internalType": "address",
          "name": "newAutomationRegistry",
          "type": "address"
        }
      ],
      "name": "updateAutomationRegistry",
      "outputs": [],
      "stateMutability": "nonpayable",
      "type": "function"
    },
    {
      "inputs": [
        {
          "internalType": "uint8",
          "name": "_executionMinibatchSize",
          "type": "uint8"
        }
      ],
      "name": "updateExecutionMinibatchSize",
      "outputs": [],
      "stateMutability": "nonpayable",
      "type": "function"
    }
  ],
  "bytecode": "0x608060405234801561000f575f5ffd5b50604051611c81380380611c8183398101604081905261002e916101e3565b826001600160a01b03811661005c57604051631e4fbdf760e01b81525f600482015260240160405180910390fd5b6100658161017d565b50600180556001600160a01b0382166100915760405163d92e233d60e01b815260040160405180910390fd5b6001600160a01b0381166100b85760405163d92e233d60e01b815260040160405180910390fd5b600380546001600160a01b0319166001600160a01b03841690811790915560408051631c56369f60e21b81529051637158da7c916004808201926020929091908290030181865afa15801561010f573d5f5f3e3d5ffd5b505050506040513d601f19601f82011682018060405250810190610133919061022d565b600580546001600160a01b03199081166001600160a01b0393841617909155600280549091169290911691909117905550506007805464ffffffffff19166201000017905561024f565b5f80546001600160a01b038381166001600160a01b0319831681178455604051919092169283917f8be0079c531659141344cd1fd0a4f28419497f9722a3daafe3b4186f6b6457e09190a35050565b6001600160a01b03811681146101e0575f5ffd5b50565b5f5f5f606084860312156101f5575f5ffd5b8351610200816101cc565b6020850151909350610211816101cc565b6040850151909250610222816101cc565b809150509250925092565b5f6020828403121561023d575f5ffd5b8151610248816101cc565b9392505050565b611a258061025c5f395ff3fe608060405234801561000f575f5ffd5b5060043610610168575f3560e01c806301c621c11461016c578063055ad42e1461018157806309f2e19c146101ab5780630a8b78c7146101cb57806314b5d07f146101de5780632be17d3b146101f1578063348ec5c8146102085780634585e33b1461021b5780634adfc2e71461022e57806351edffb1146102415780635488cd621461025457806357be01c11461027a57806359017aa91461028d5780635dc228a0146102a05780636e04ff0d146102b3578063715018a6146102d45780637158da7c146102dc578063741fca4b146102ef57806379502c55146103025780638157c1ab14610315578063841181ef146103285780638a0b0d381461033b5780638da5cb5b1461034e57806399cdc4b514610356578063bc50497514610369578063be1b26a41461037c578063d3f3506d1461038f578063dab26e3b146103b7578063ee6713df146103c0578063f2fde38b146103e1575b5f5ffd5b61017f61017a366004611503565b6103f4565b005b600754610195906301000000900460ff1681565b6040516101a2919061152e565b60405180910390f35b6101be6101b9366004611503565b610521565b6040516101a29190611554565b61017f6101d936600461157c565b610549565b61017f6101ec36600461157c565b6105c4565b6101fa60085481565b6040519081526020016101a2565b6004546101be906001600160a01b031681565b61017f610229366004611597565b6106cd565b61017f61023c366004611603565b6107a7565b61017f61024f366004611603565b6108f7565b60075461026890600160201b900460ff1681565b60405160ff90911681526020016101a2565b6007546102689062010000900460ff1681565b61017f61029b36600461162d565b610983565b6002546101be906001600160a01b031681565b6102c66102c1366004611597565b610a2c565b6040516101a2929190611664565b61017f610c65565b6005546101be906001600160a01b031681565b61017f6102fd366004611503565b610c78565b6003546101be906001600160a01b031681565b6101be610323366004611503565b610e2f565b61017f61033636600461157c565b610e3e565b61017f6103493660046116b7565b610ecf565b6101be610fa9565b61017f610364366004611503565b610fb7565b6101fa610377366004611503565b61108a565b6101fa61038a366004611503565b6110a9565b6101be61039d36600461157c565b60066020525f90815260409020546001600160a01b031681565b6101fa60095481565b6007546103ce9061ffff1681565b60405161ffff90911681526020016101a2565b61017f6103ef36600461157c565b6110b8565b6103fc6110f5565b805f0361043257600554604051636b30633560e01b8152610429916001600160a01b031690600401611554565b60405180910390fd5b60048054604051637060444560e01b81529182018390526001600160a01b0316906370604445906024015f604051808303815f87803b158015610473575f5ffd5b505af1158015610485573d5f5f3e3d5ffd5b505060055460405163a9059cbb60e01b81525f93506001600160a01b03909116915063a9059cbb906104bd90339086906004016116d0565b6020604051808303815f875af11580156104d9573d5f5f3e3d5ffd5b505050506040513d601f19601f820116820180604052508101906104fd91906116e9565b90508061051d576040516312171d8360e31b815260040160405180910390fd5b5050565b600c8181548110610530575f80fd5b5f918252602090912001546001600160a01b0316905081565b6105516110f5565b6001600160a01b0381166105785760405163d92e233d60e01b815260040160405180910390fd5b6004546001600160a01b0316156105a257604051630ea075bf60e21b815260040160405180910390fd5b600480546001600160a01b0319166001600160a01b0392909216919091179055565b6105cc6110f5565b6001600160a01b0381166105f35760405163d92e233d60e01b815260040160405180910390fd5b60035f9054906101000a90046001600160a01b03166001600160a01b031663edcf9c1f6040518163ffffffff1660e01b8152600401602060405180830381865afa158015610643573d5f5f3e3d5ffd5b505050506040513d601f19601f8201168201806040525081019061066791906116e9565b610684576040516312aecd8160e01b815260040160405180910390fd5b600280546001600160a01b0319166001600160a01b0383169081179091556040517f6cc7ebdb6c8c53291c5ae16148cab9b049d23bf5bde5632900b40edff56fcb43905f90a250565b6002546001600160a01b031633146106f85760405163ea8e4eb560e01b815260040160405180910390fd5b610700611127565b6005811015610722576040516317dbc4cb60e21b815260040160405180910390fd5b5f8061073083850185611708565b90925090506341659aab60e01b6001600160e01b031983160161075a57610755611151565b610774565b63100597e960e31b6001600160e01b031983160115610755575b6040517ff0094b59b7bc92e9fc611b14b5d3a34fe02530ac9bcf36c2c6f10147c3030c12905f90a1505061051d60018055565b600354604051633821dad160e21b81526001600160a01b039091169063e0876b44906107d7903390600401611554565b602060405180830381865afa1580156107f2573d5f5f3e3d5ffd5b505050506040513d601f19601f8201168201806040525081019061081691906116e9565b6108335760405163ea8e4eb560e01b815260040160405180910390fd5b805f0361086057600554604051636b30633560e01b8152610429916001600160a01b031690600401611554565b60055460405163a9059cbb60e01b81525f916001600160a01b03169063a9059cbb9061089290869086906004016116d0565b6020604051808303815f875af11580156108ae573d5f5f3e3d5ffd5b505050506040513d601f19601f820116820180604052508101906108d291906116e9565b9050806108f2576040516312171d8360e31b815260040160405180910390fd5b505050565b600354604051633821dad160e21b81526001600160a01b039091169063e0876b4490610927903390600401611554565b602060405180830381865afa158015610942573d5f5f3e3d5ffd5b505050506040513d601f19601f8201168201806040525081019061096691906116e9565b6108605760405163ea8e4eb560e01b815260040160405180910390fd5b6003546001600160a01b031633146109ae5760405163ea8e4eb560e01b815260040160405180910390fd5b6001600160a01b03821615806109cb57506001600160a01b038116155b156109e95760405163d92e233d60e01b815260040160405180910390fd5b6001600160a01b038281165f8181526006602052604080822080546001600160a01b0319169486169485179055515f5160206119d05f395f51905f529190a35050565b5f606060035f9054906101000a90046001600160a01b03166001600160a01b031663edcf9c1f6040518163ffffffff1660e01b8152600401602060405180830381865afa158015610a7f573d5f5f3e3d5ffd5b505050506040513d601f19601f82011682018060405250810190610aa391906116e9565b8015610b2357506007546004805460408051630a58ce2d60e11b8152905161ffff909416936001600160a01b03909216926314b19c5a9282820192602092908290030181865afa158015610af9573d5f5f3e3d5ffd5b505050506040513d601f19601f82011682018060405250810190610b1d9190611747565b61ffff16115b15610b7557600191507fbe9a655586dceb82dfa0af992b5d8ae7fa45053cb7fd6f141f541da7572978c75f604051602001610b5f929190611768565b6040516020818303038152906040529050610c5e565b60016007546301000000900460ff166003811115610b9557610b9561151a565b03610be057600191507f7fd340b8241a93f6a116f506d6171d4f585588564d777e1192babae55184f691600760049054906101000a900460ff16604051602001610b5f929190611768565b60026007546301000000900460ff166003811115610c0057610c0061151a565b03610c4b57600191507f3f4e50448465d8594e91c1038b22f277808696956455dacacb66f00f4df0b3a2600760049054906101000a900460ff16604051602001610b5f929190611768565b505060408051602081019091525f808252905b9250929050565b610c6d6110f5565b610c765f61130b565b565b600354604051633821dad160e21b815233916001600160a01b03169063e0876b4490610ca8908490600401611554565b602060405180830381865afa158015610cc3573d5f5f3e3d5ffd5b505050506040513d601f19601f82011682018060405250810190610ce791906116e9565b610d045760405163ea8e4eb560e01b815260040160405180910390fd5b815f03610d3157600554604051636b30633560e01b8152610429916001600160a01b031690600401611554565b5f816001600160a01b0316631f52692b6040518163ffffffff1660e01b8152600401602060405180830381865afa158015610d6e573d5f5f3e3d5ffd5b505050506040513d601f19601f82011682018060405250810190610d929190611785565b60055460405163a9059cbb60e01b81529192505f916001600160a01b039091169063a9059cbb90610dc990859088906004016116d0565b6020604051808303815f875af1158015610de5573d5f5f3e3d5ffd5b505050506040513d601f19601f82011682018060405250810190610e0991906116e9565b905080610e29576040516312171d8360e31b815260040160405180910390fd5b50505050565b600a8181548110610530575f80fd5b6003546001600160a01b03163314610e695760405163ea8e4eb560e01b815260040160405180910390fd5b6001600160a01b038116610e905760405163d92e233d60e01b815260040160405180910390fd5b6001600160a01b0381165f8181526006602052604080822080546001600160a01b0319169055519091905f5160206119d05f395f51905f52908390a350565b610ed76110f5565b8060ff165f03610efa576040516317dbc4cb60e21b815260040160405180910390fd5b60035f9054906101000a90046001600160a01b03166001600160a01b031663edcf9c1f6040518163ffffffff1660e01b8152600401602060405180830381865afa158015610f4a573d5f5f3e3d5ffd5b505050506040513d601f19601f82011682018060405250810190610f6e91906116e9565b610f8b576040516312aecd8160e01b815260040160405180910390fd5b6007805460ff909216620100000262ff000019909216919091179055565b5f546001600160a01b031690565b610fbf6110f5565b805f03610fdf576040516317dbc4cb60e21b815260040160405180910390fd5b60035f9054906101000a90046001600160a01b03166001600160a01b031663edcf9c1f6040518163ffffffff1660e01b8152600401602060405180830381865afa15801561102f573d5f5f3e3d5ffd5b505050506040513d601f19601f8201168201806040525081019061105391906116e9565b611070576040516312aecd8160e01b815260040160405180910390fd5b60088190556110848161044c6103e861135a565b60095550565b600d8181548110611099575f80fd5b5f91825260209091200154905081565b600b8181548110611099575f80fd5b6110c06110f5565b6001600160a01b0381166110e9575f604051631e4fbdf760e01b81526004016104299190611554565b6110f28161130b565b50565b336110fe610fa9565b6001600160a01b031614610c76573360405163118cdaa760e01b81526004016104299190611554565b60026001540361114a57604051633ee5aeb560e01b815260040160405180910390fd5b6002600155565b5f60045f9054906101000a90046001600160a01b03166001600160a01b03166314b19c5a6040518163ffffffff1660e01b8152600401602060405180830381865afa1580156111a2573d5f5f3e3d5ffd5b505050506040513d601f19601f820116820180604052508101906111c69190611747565b6007549091506111db9061ffff1660016117a0565b61ffff168161ffff1610156111ed5750565b6007805461ffff191661ffff8316179055611209600a5f611438565b611214600b5f611438565b61121f600c5f611438565b61122a600d5f611438565b6004805460408051631716e21f60e11b815290516001600160a01b0390921692632e2dc43e92828201925f92908290030181865afa15801561126e573d5f5f3e3d5ffd5b505050506040513d5f823e601f3d908101601f191682016040526112959190810190611900565b8051600a905f90600b908290600c9082906112b790600d9060208a0190611453565b505086516112ca9190602089019061149c565b505085516112dd91906020880190611453565b505084516112f09190602087019061149c565b50506007805463ff0000001916630100000017905550505050565b5f80546001600160a01b038381166001600160a01b0319831681178455604051919092169283917f8be0079c531659141344cd1fd0a4f28419497f9722a3daafe3b4186f6b6457e09190a35050565b5f5f5f611367868661140b565b91509150815f0361138b57838181611381576113816119bb565b0492505050611404565b8184116113a2576113a26003851502601118611427565b5f848688095f868103871696879004966002600389028118808a02820302808a02820302808a02820302808a02820302808a02820302808a02909103029181900381900460010185841190960395909502919093039390930492909217029150505b9392505050565b5f805f1983850993909202808410938190039390930393915050565b634e487b715f52806020526024601cfd5b5080545f8255905f5260205f20908101906110f291906114ef565b828054828255905f5260205f2090810192821561148c579160200282015b8281111561148c578251825591602001919060010190611471565b506114989291506114ef565b5090565b828054828255905f5260205f2090810192821561148c579160200282015b8281111561148c57825182546001600160a01b0319166001600160a01b039091161782556020909201916001909101906114ba565b5b80821115611498575f81556001016114f0565b5f60208284031215611513575f5ffd5b5035919050565b634e487b7160e01b5f52602160045260245ffd5b602081016004831061154e57634e487b7160e01b5f52602160045260245ffd5b91905290565b6001600160a01b0391909116815260200190565b6001600160a01b03811681146110f2575f5ffd5b5f6020828403121561158c575f5ffd5b813561140481611568565b5f5f602083850312156115a8575f5ffd5b82356001600160401b038111156115bd575f5ffd5b8301601f810185136115cd575f5ffd5b80356001600160401b038111156115e2575f5ffd5b8560208284010111156115f3575f5ffd5b6020919091019590945092505050565b5f5f60408385031215611614575f5ffd5b823561161f81611568565b946020939093013593505050565b5f5f6040838503121561163e575f5ffd5b823561164981611568565b9150602083013561165981611568565b809150509250929050565b8215158152604060208201525f82518060408401528060208501606085015e5f606082850101526060601f19601f8301168401019150509392505050565b803560ff811681146116b2575f5ffd5b919050565b5f602082840312156116c7575f5ffd5b611404826116a2565b6001600160a01b03929092168252602082015260400190565b5f602082840312156116f9575f5ffd5b81518015158114611404575f5ffd5b5f5f60408385031215611719575f5ffd5b82356001600160e01b031981168114611730575f5ffd5b915061173e602084016116a2565b90509250929050565b5f60208284031215611757575f5ffd5b815161ffff81168114611404575f5ffd5b6001600160e01b031992909216825260ff16602082015260400190565b5f60208284031215611795575f5ffd5b815161140481611568565b61ffff81811683821601908111156117c657634e487b7160e01b5f52601160045260245ffd5b92915050565b634e487b7160e01b5f52604160045260245ffd5b604051601f8201601f191681016001600160401b0381118282101715611808576118086117cc565b604052919050565b5f6001600160401b03821115611828576118286117cc565b5060051b60200190565b5f82601f830112611841575f5ffd5b815161185461184f82611810565b6117e0565b8082825260208201915060208360051b860101925085831115611875575f5ffd5b602085015b8381101561189b57805161188d81611568565b83526020928301920161187a565b5095945050505050565b5f82601f8301126118b4575f5ffd5b81516118c261184f82611810565b8082825260208201915060208360051b8601019250858311156118e3575f5ffd5b602085015b8381101561189b5780518352602092830192016118e8565b5f5f5f5f60808587031215611913575f5ffd5b84516001600160401b03811115611928575f5ffd5b61193487828801611832565b602087015190955090506001600160401b03811115611951575f5ffd5b61195d878288016118a5565b604087015190945090506001600160401b0381111561197a575f5ffd5b61198687828801611832565b606087015190935090506001600160401b038111156119a3575f5ffd5b6119af878288016118a5565b91505092959194509250565b634e487b7160e01b5f52601260045260245ffdfe2f2727c7b3d9ee55de5c114f0cb7997ac7251a4cbfca4f2b2dc6969d86cce4f4a2646970667358221220b762c2a7256368e5630db83483ee0741116ffb65ec8684f716e15394c713632164736f6c634300081c0033",
  "linkReferences": {},
  "deployedLinkReferences": {}
}