{
  "_format": "hh-sol-artifact-1",
  "contractName": "LiquidityOrchestrator",
  "sourceName": "contracts/orchestrators/LiquidityOrchestrator.sol",
  "abi": [
    {
      "inputs": [],
      "name": "AdapterNotSet",
      "type": "error"
    },
    {
      "inputs": [
        {
          "internalType": "address",
          "name": "target",
          "type": "address"
        }
      ],
      "name": "AddressEmptyCode",
      "type": "error"
    },
    {
      "inputs": [
        {
          "internalType": "address",
          "name": "implementation",
          "type": "address"
        }
      ],
      "name": "ERC1967InvalidImplementation",
      "type": "error"
    },
    {
      "inputs": [],
      "name": "ERC1967NonPayable",
      "type": "error"
    },
    {
      "inputs": [],
      "name": "FailedCall",
      "type": "error"
    },
    {
      "inputs": [],
      "name": "InvalidInitialization",
      "type": "error"
    },
    {
      "inputs": [],
      "name": "NotAuthorized",
      "type": "error"
    },
    {
      "inputs": [],
      "name": "NotInitializing",
      "type": "error"
    },
    {
      "inputs": [
        {
          "internalType": "address",
          "name": "owner",
          "type": "address"
        }
      ],
      "name": "OwnableInvalidOwner",
      "type": "error"
    },
    {
      "inputs": [
        {
          "internalType": "address",
          "name": "account",
          "type": "address"
        }
      ],
      "name": "OwnableUnauthorizedAccount",
      "type": "error"
    },
    {
      "inputs": [],
      "name": "TransferFailed",
      "type": "error"
    },
    {
      "inputs": [],
      "name": "UUPSUnauthorizedCallContext",
      "type": "error"
    },
    {
      "inputs": [
        {
          "internalType": "bytes32",
          "name": "slot",
          "type": "bytes32"
        }
      ],
      "name": "UUPSUnsupportedProxiableUUID",
      "type": "error"
    },
    {
      "inputs": [],
      "name": "ZeroAddress",
      "type": "error"
    },
    {
      "anonymous": false,
      "inputs": [
        {
          "indexed": true,
          "internalType": "address",
          "name": "asset",
          "type": "address"
        },
        {
          "indexed": true,
          "internalType": "address",
          "name": "adapter",
          "type": "address"
        }
      ],
      "name": "AdapterSet",
      "type": "event"
    },
    {
      "anonymous": false,
      "inputs": [
        {
          "indexed": true,
          "internalType": "address",
          "name": "newAutomationRegistry",
          "type": "address"
        }
      ],
      "name": "AutomationRegistryUpdated",
      "type": "event"
    },
    {
      "anonymous": false,
      "inputs": [
        {
          "indexed": false,
          "internalType": "uint64",
          "name": "version",
          "type": "uint64"
        }
      ],
      "name": "Initialized",
      "type": "event"
    },
    {
      "anonymous": false,
      "inputs": [
        {
          "indexed": true,
          "internalType": "address",
          "name": "previousOwner",
          "type": "address"
        },
        {
          "indexed": true,
          "internalType": "address",
          "name": "newOwner",
          "type": "address"
        }
      ],
      "name": "OwnershipTransferStarted",
      "type": "event"
    },
    {
      "anonymous": false,
      "inputs": [
        {
          "indexed": true,
          "internalType": "address",
          "name": "previousOwner",
          "type": "address"
        },
        {
          "indexed": true,
          "internalType": "address",
          "name": "newOwner",
          "type": "address"
        }
      ],
      "name": "OwnershipTransferred",
      "type": "event"
    },
    {
      "anonymous": false,
      "inputs": [],
      "name": "PortfolioRebalanced",
      "type": "event"
    },
    {
      "anonymous": false,
      "inputs": [
        {
          "indexed": true,
          "internalType": "address",
          "name": "implementation",
          "type": "address"
        }
      ],
      "name": "Upgraded",
      "type": "event"
    },
    {
      "inputs": [],
      "name": "UPGRADE_INTERFACE_VERSION",
      "outputs": [
        {
          "internalType": "string",
          "name": "",
          "type": "string"
        }
      ],
      "stateMutability": "view",
      "type": "function"
    },
    {
      "inputs": [],
      "name": "acceptOwnership",
      "outputs": [],
      "stateMutability": "nonpayable",
      "type": "function"
    },
    {
      "inputs": [],
      "name": "automationRegistry",
      "outputs": [
        {
          "internalType": "address",
          "name": "",
          "type": "address"
        }
      ],
      "stateMutability": "view",
      "type": "function"
    },
    {
      "inputs": [
        {
          "internalType": "bytes",
          "name": "",
          "type": "bytes"
        }
      ],
      "name": "checkUpkeep",
      "outputs": [
        {
          "internalType": "bool",
          "name": "upkeepNeeded",
          "type": "bool"
        },
        {
          "internalType": "bytes",
          "name": "performData",
          "type": "bytes"
        }
      ],
      "stateMutability": "view",
      "type": "function"
    },
    {
      "inputs": [],
      "name": "config",
      "outputs": [
        {
          "internalType": "contract IOrionConfig",
          "name": "",
          "type": "address"
        }
      ],
      "stateMutability": "view",
      "type": "function"
    },
    {
      "inputs": [],
      "name": "currentPhase",
      "outputs": [
        {
          "internalType": "enum LiquidityOrchestrator.UpkeepPhase",
          "name": "",
          "type": "uint8"
        }
      ],
      "stateMutability": "view",
      "type": "function"
    },
    {
      "inputs": [
        {
          "internalType": "address",
          "name": "",
          "type": "address"
        }
      ],
      "name": "executionAdapterOf",
      "outputs": [
        {
          "internalType": "contract IExecutionAdapter",
          "name": "",
          "type": "address"
        }
      ],
      "stateMutability": "view",
      "type": "function"
    },
    {
      "inputs": [
        {
          "internalType": "address",
          "name": "initialOwner",
          "type": "address"
        },
        {
          "internalType": "address",
          "name": "automationRegistry_",
          "type": "address"
        },
        {
          "internalType": "address",
          "name": "config_",
          "type": "address"
        }
      ],
      "name": "initialize",
      "outputs": [],
      "stateMutability": "nonpayable",
      "type": "function"
    },
    {
      "inputs": [],
      "name": "internalStatesOrchestrator",
      "outputs": [
        {
          "internalType": "contract IInternalStateOrchestrator",
          "name": "",
          "type": "address"
        }
      ],
      "stateMutability": "view",
      "type": "function"
    },
    {
      "inputs": [],
      "name": "lastProcessedEpoch",
      "outputs": [
        {
          "internalType": "uint256",
          "name": "",
          "type": "uint256"
        }
      ],
      "stateMutability": "view",
      "type": "function"
    },
    {
      "inputs": [],
      "name": "owner",
      "outputs": [
        {
          "internalType": "address",
          "name": "",
          "type": "address"
        }
      ],
      "stateMutability": "view",
      "type": "function"
    },
    {
      "inputs": [],
      "name": "pendingOwner",
      "outputs": [
        {
          "internalType": "address",
          "name": "",
          "type": "address"
        }
      ],
      "stateMutability": "view",
      "type": "function"
    },
    {
      "inputs": [
        {
          "internalType": "bytes",
          "name": "",
          "type": "bytes"
        }
      ],
      "name": "performUpkeep",
      "outputs": [],
      "stateMutability": "nonpayable",
      "type": "function"
    },
    {
      "inputs": [],
      "name": "processedLegOrders",
      "outputs": [
        {
          "internalType": "uint256",
          "name": "",
          "type": "uint256"
        }
      ],
      "stateMutability": "view",
      "type": "function"
    },
    {
      "inputs": [],
      "name": "proxiableUUID",
      "outputs": [
        {
          "internalType": "bytes32",
          "name": "",
          "type": "bytes32"
        }
      ],
      "stateMutability": "view",
      "type": "function"
    },
    {
      "inputs": [],
      "name": "renounceOwnership",
      "outputs": [],
      "stateMutability": "nonpayable",
      "type": "function"
    },
    {
      "inputs": [
        {
          "internalType": "address",
          "name": "user",
          "type": "address"
        },
        {
          "internalType": "uint256",
          "name": "amount",
          "type": "uint256"
        }
      ],
      "name": "returnDepositFunds",
      "outputs": [],
      "stateMutability": "nonpayable",
      "type": "function"
    },
    {
      "inputs": [
        {
          "internalType": "address",
          "name": "user",
          "type": "address"
        },
        {
          "internalType": "uint256",
          "name": "shares",
          "type": "uint256"
        }
      ],
      "name": "returnWithdrawShares",
      "outputs": [],
      "stateMutability": "nonpayable",
      "type": "function"
    },
    {
      "inputs": [
        {
          "internalType": "address",
          "name": "asset",
          "type": "address"
        },
        {
          "internalType": "contract IExecutionAdapter",
          "name": "adapter",
          "type": "address"
        }
      ],
      "name": "setAdapter",
      "outputs": [],
      "stateMutability": "nonpayable",
      "type": "function"
    },
    {
      "inputs": [
        {
          "internalType": "address",
          "name": "newOwner",
          "type": "address"
        }
      ],
      "name": "transferOwnership",
      "outputs": [],
      "stateMutability": "nonpayable",
      "type": "function"
    },
    {
      "inputs": [],
      "name": "underlyingAsset",
      "outputs": [
        {
          "internalType": "address",
          "name": "",
          "type": "address"
        }
      ],
      "stateMutability": "view",
      "type": "function"
    },
    {
      "inputs": [
        {
          "internalType": "address",
          "name": "asset",
          "type": "address"
        }
      ],
      "name": "unsetAdapter",
      "outputs": [],
      "stateMutability": "nonpayable",
      "type": "function"
    },
    {
      "inputs": [
        {
          "internalType": "address",
          "name": "newAutomationRegistry",
          "type": "address"
        }
      ],
      "name": "updateAutomationRegistry",
      "outputs": [],
      "stateMutability": "nonpayable",
      "type": "function"
    },
    {
      "inputs": [
        {
          "internalType": "address",
          "name": "newConfig",
          "type": "address"
        }
      ],
      "name": "updateConfig",
      "outputs": [],
      "stateMutability": "nonpayable",
      "type": "function"
    },
    {
      "inputs": [
        {
          "internalType": "address",
          "name": "newImplementation",
          "type": "address"
        },
        {
          "internalType": "bytes",
          "name": "data",
          "type": "bytes"
        }
      ],
      "name": "upgradeToAndCall",
      "outputs": [],
      "stateMutability": "payable",
      "type": "function"
    }
  ],
  "bytecode": "0x60a06040523073ffffffffffffffffffffffffffffffffffffffff1660809073ffffffffffffffffffffffffffffffffffffffff168152503480156041575f5ffd5b50608051614c006100685f395f818161353d0152818161359201526137880152614c005ff3fe608060405260043610610165575f3560e01c8063715018a6116100d0578063ba59b4ca11610089578063d3f3506d11610063578063d3f3506d146104a8578063e30c3978146104e4578063ee6713df1461050e578063f2fde38b1461053857610165565b8063ba59b4ca14610430578063be186b2014610458578063c0c53b8b1461048057610165565b8063715018a61461035c5780637158da7c1461037257806379502c551461039c57806379ba5097146103c65780638da5cb5b146103dc578063ad3cb1cc1461040657610165565b80634f1ef286116101225780634f1ef2861461025f57806351edffb11461027b57806352d1902d146102a35780635dc228a0146102cd5780636cc919c8146102f75780636e04ff0d1461031f57610165565b8063055ad42e1461016957806314b5d07f146101935780631a2e7ec9146101bb5780632eb2b108146101e5578063348ec5c81461020d5780634585e33b14610237575b5f5ffd5b348015610174575f5ffd5b5061017d610560565b60405161018a9190613e56565b60405180910390f35b34801561019e575f5ffd5b506101b960048036038101906101b49190613eda565b610572565b005b3480156101c6575f5ffd5b506101cf61072c565b6040516101dc9190613f1d565b60405180910390f35b3480156101f0575f5ffd5b5061020b60048036038101906102069190613eda565b610732565b005b348015610218575f5ffd5b50610221610a19565b60405161022e9190613f91565b60405180910390f35b348015610242575f5ffd5b5061025d6004803603810190610258919061400b565b610a3e565b005b6102796004803603810190610274919061418e565b61189a565b005b348015610286575f5ffd5b506102a1600480360381019061029c9190614212565b6118b9565b005b3480156102ae575f5ffd5b506102b7611b3f565b6040516102c49190614268565b60405180910390f35b3480156102d8575f5ffd5b506102e1611b70565b6040516102ee9190614290565b60405180910390f35b348015610302575f5ffd5b5061031d60048036038101906103189190613eda565b611b94565b005b34801561032a575f5ffd5b506103456004803603810190610340919061400b565b611ce4565b604051610353929190614323565b60405180910390f35b348015610367575f5ffd5b50610370611ee1565b005b34801561037d575f5ffd5b50610386611ef4565b6040516103939190614290565b60405180910390f35b3480156103a7575f5ffd5b506103b0611f19565b6040516103bd9190614371565b60405180910390f35b3480156103d1575f5ffd5b506103da611f3e565b005b3480156103e7575f5ffd5b506103f0611fcc565b6040516103fd9190614290565b60405180910390f35b348015610411575f5ffd5b5061041a612001565b60405161042791906143dc565b60405180910390f35b34801561043b575f5ffd5b5061045660048036038101906104519190614437565b61203a565b005b348015610463575f5ffd5b5061047e60048036038101906104799190614212565b6123ad565b005b34801561048b575f5ffd5b506104a660048036038101906104a19190614475565b61263f565b005b3480156104b3575f5ffd5b506104ce60048036038101906104c99190613eda565b612ccc565b6040516104db91906144e5565b60405180910390f35b3480156104ef575f5ffd5b506104f8612cfc565b6040516105059190614290565b60405180910390f35b348015610519575f5ffd5b50610522612d31565b60405161052f9190613f1d565b60405180910390f35b348015610543575f5ffd5b5061055e60048036038101906105599190613eda565b612d37565b005b60065f9054906101000a900460ff1681565b61058667bd7d982829aacd7160c01b612df0565b61058e612df3565b6105a267d7ad0c0288f99f1c60c01b612df0565b6105b6676b3de7140037198960c01b612df0565b6105ca67cb9c30b297314d8260c01b612df0565b6105de677cef861857793ec860c01b612df0565b5f73ffffffffffffffffffffffffffffffffffffffff168173ffffffffffffffffffffffffffffffffffffffff16036106575761062567095dc15c4eaeb45260c01b612df0565b6040517fd92e233d00000000000000000000000000000000000000000000000000000000815260040160405180910390fd5b61066b678d3cb05edd38614d60c01b612df0565b61067f67d009fc246e438bb760c01b612df0565b805f5f6101000a81548173ffffffffffffffffffffffffffffffffffffffff021916908373ffffffffffffffffffffffffffffffffffffffff1602179055506106d267c94a71606d85f2fa60c01b612df0565b6106e667664a652aca4872ac60c01b612df0565b8073ffffffffffffffffffffffffffffffffffffffff167f6cc7ebdb6c8c53291c5ae16148cab9b049d23bf5bde5632900b40edff56fcb4360405160405180910390a250565b60075481565b61074667994f09f84cfeda5860c01b612df0565b61075a67a451ad2039bbe09760c01b612df0565b61076e6759c8625cd6cc246a60c01b612df0565b6107826797bcb76278b3cfd560c01b612df0565b60015f9054906101000a900473ffffffffffffffffffffffffffffffffffffffff1673ffffffffffffffffffffffffffffffffffffffff163373ffffffffffffffffffffffffffffffffffffffff161461081c576107ea675a72838d7a8113e460c01b612df0565b6040517fea8e4eb500000000000000000000000000000000000000000000000000000000815260040160405180910390fd5b61083067a7b5f181d50649b860c01b612df0565b61084467ca7d25b880497ec660c01b612df0565b6108586752d291c5c168579560c01b612df0565b61086c6718273745760047ed60c01b612df0565b61088067af6f4d010547450160c01b612df0565b6108946738e6ed44d4b105a060c01b612df0565b5f73ffffffffffffffffffffffffffffffffffffffff168173ffffffffffffffffffffffffffffffffffffffff160361090d576108db6749a06b837a45993060c01b612df0565b6040517fd92e233d00000000000000000000000000000000000000000000000000000000815260040160405180910390fd5b61092167e1814cdaa74d48ed60c01b612df0565b6109356795151d3820c0f73860c01b612df0565b60045f8273ffffffffffffffffffffffffffffffffffffffff1673ffffffffffffffffffffffffffffffffffffffff1681526020019081526020015f205f6101000a81549073ffffffffffffffffffffffffffffffffffffffff02191690556109a867ab2d853ae72a6bfc60c01b612df0565b6109bc671dff26b20a02773760c01b612df0565b5f73ffffffffffffffffffffffffffffffffffffffff168173ffffffffffffffffffffffffffffffffffffffff167fe5e39617beb2a298b9fa1c3928582d9a96ba7ef7c920acd1117d1d415568670a60405160405180910390a350565b60025f9054906101000a900473ffffffffffffffffffffffffffffffffffffffff1681565b610a5267b1699df50b28c3bb60c01b612df0565b610a666722ca3134bdf5545260c01b612df0565b610a7a6743fc63381e2ed75160c01b612df0565b610a8e6728134a2f653f47e160c01b612df0565b5f5f9054906101000a900473ffffffffffffffffffffffffffffffffffffffff1673ffffffffffffffffffffffffffffffffffffffff163373ffffffffffffffffffffffffffffffffffffffff1614610b2757610af567c13cdad9ae2816aa60c01b612df0565b6040517fea8e4eb500000000000000000000000000000000000000000000000000000000815260040160405180910390fd5b610b3b67ce089b73abb9aa3360c01b612df0565b610b4f67c32e0a49867cd5f160c01b612df0565b610b6367bf7b3022c099b0df60c01b612df0565b610b7767bbb7cac9e8566dc960c01b612df0565b610b8b67c1cfcf5bdd82503060c01b612df0565b610b9f678df5c6fd2cb2515060c01b612df0565b5f60025f9054906101000a900473ffffffffffffffffffffffffffffffffffffffff1673ffffffffffffffffffffffffffffffffffffffff166314b19c5a6040518163ffffffff1660e01b8152600401602060405180830381865afa158015610c0a573d5f5f3e3d5ffd5b505050506040513d601f19601f82011682018060405250810190610c2e9190614512565b9050610c44679e95513db674643360c01b612df0565b610c5867d76d035902ae865860c01b612df0565b6005548111610ca357610c7567d971734311776d8560c01b612df0565b610c89678071e07ee92c3d8360c01b612df0565b610c9d674b4bd3b7a1b7f50560c01b612df0565b50611896565b610cb76797bfdb75683b452360c01b612df0565b610ccb677d0e1ee35d9178ff60c01b612df0565b80600581905550610ce667ffc162951ed8ee3360c01b612df0565b610cfa67e000eee20d0c8adf60c01b612df0565b5f60035f9054906101000a900473ffffffffffffffffffffffffffffffffffffffff1673ffffffffffffffffffffffffffffffffffffffff166370a08231306040518263ffffffff1660e01b8152600401610d559190614290565b602060405180830381865afa158015610d70573d5f5f3e3d5ffd5b505050506040513d601f19601f82011682018060405250810190610d949190614512565b9050610daa67797d098a1a51db9160c01b612df0565b610dbe6759697f24299c933260c01b612df0565b5f5f60025f9054906101000a900473ffffffffffffffffffffffffffffffffffffffff1673ffffffffffffffffffffffffffffffffffffffff1663c2cb5d886040518163ffffffff1660e01b81526004015f60405180830381865afa158015610e29573d5f5f3e3d5ffd5b505050506040513d5f823e3d601f19601f82011682018060405250810190610e5191906146d1565b91509150610e69670630e53da2195c7960c01b612df0565b610e7d6772559ac37f611a6d60c01b612df0565b5f5f90505b8251811015610f5857610e9f678e29eb4a05b9008e60c01b612df0565b610eb3670329bb434439ea1460c01b612df0565b5f838281518110610ec757610ec6614747565b5b60200260200101519050610ee56710f2dd43efdad7b960c01b612df0565b610ef9679069dde3c7f5f7e460c01b612df0565b5f838381518110610f0d57610f0c614747565b5b60200260200101519050610f2b6712e0356a3f568cdb60c01b612df0565b610f3f679f18340a047d895360c01b612df0565b610f498282612e7a565b50508080600101915050610e82565b50610f6d67800e0bf38ad4a49960c01b612df0565b610f8167a06d3062f1e8191e60c01b612df0565b5f60035f9054906101000a900473ffffffffffffffffffffffffffffffffffffffff1673ffffffffffffffffffffffffffffffffffffffff166370a08231306040518263ffffffff1660e01b8152600401610fdc9190614290565b602060405180830381865afa158015610ff7573d5f5f3e3d5ffd5b505050506040513d601f19601f8201168201806040525081019061101b9190614512565b905061103167ec15d2192f8ac9c960c01b612df0565b61104567ec538bd353f85afa60c01b612df0565b5f848261105291906147a1565b90506110686710c22b840e92eab360c01b612df0565b61107c6732ad6595dbb197cc60c01b612df0565b5f60025f9054906101000a900473ffffffffffffffffffffffffffffffffffffffff1673ffffffffffffffffffffffffffffffffffffffff166306cce8486040518163ffffffff1660e01b8152600401602060405180830381865afa1580156110e7573d5f5f3e3d5ffd5b505050506040513d601f19601f8201168201806040525081019061110b9190614512565b9050611121676baaa8e7766931f760c01b612df0565b61113567e0415f93cd2c7e7f60c01b612df0565b5f818361114291906147a1565b905061115867c9ac6109c08a6f1860c01b612df0565b61116c67ce861a48e981d2ee60c01b612df0565b5f60025f9054906101000a900473ffffffffffffffffffffffffffffffffffffffff1673ffffffffffffffffffffffffffffffffffffffff16634a1d96256040518163ffffffff1660e01b8152600401602060405180830381865afa1580156111d7573d5f5f3e3d5ffd5b505050506040513d601f19601f820116820180604052508101906111fb9190614512565b90506112116774d2882fce6c2b1460c01b612df0565b6112256747ff3cbea1c6437260c01b612df0565b5f670de0b6b3a764000090506112456777be1f030057184160c01b612df0565b6112596769e73ab3343e2ae060c01b612df0565b5f8211156112c25761127567304c2e5b8efe588860c01b612df0565b6112896728ff4254da77d9dd60c01b612df0565b81670de0b6b3a76400008461129e91906147d4565b6112a89190614842565b670de0b6b3a76400006112bb9190614872565b90506112d7565b6112d6676469eeebae4b616960c01b612df0565b5b6112eb67d029d1d1002e84c660c01b612df0565b6112ff67b41fc54a5c80d5c960c01b612df0565b5f5f60025f9054906101000a900473ffffffffffffffffffffffffffffffffffffffff1673ffffffffffffffffffffffffffffffffffffffff1663a08b82d76040518163ffffffff1660e01b81526004015f60405180830381865afa15801561136a573d5f5f3e3d5ffd5b505050506040513d5f823e3d601f19601f8201168201806040525081019061139291906146d1565b915091506113aa67cb656cb89ce17e7560c01b612df0565b6113be67cb7e04782056064560c01b612df0565b5f5f90505b8251811015611445576113e067ff8d066fcc6d0c9960c01b612df0565b670de0b6b3a7640000848383815181106113fd576113fc614747565b5b602002602001015161140f91906147d4565b6114199190614842565b82828151811061142c5761142b614747565b5b60200260200101818152505080806001019150506113c3565b5061145a6775e3636f6d04eee960c01b612df0565b61146e674fea2f409545a3d760c01b612df0565b5f5f90505b8251811015611549576114906738937d9184ffcb2e60c01b612df0565b6114a46704d26b4d62ffb74160c01b612df0565b5f8382815181106114b8576114b7614747565b5b602002602001015190506114d66706853675f4a9f8db60c01b612df0565b6114ea670d61ec3c7b63883160c01b612df0565b5f8383815181106114fe576114fd614747565b5b6020026020010151905061151c676cc2c157ab3334c160c01b612df0565b61153067e393e7e036f8d21360c01b612df0565b61153a828261318e565b50508080600101915050611473565b5061155e676d982a37f576ddd260c01b612df0565b611572676a468081e04cf48960c01b612df0565b5f60015f9054906101000a900473ffffffffffffffffffffffffffffffffffffffff1673ffffffffffffffffffffffffffffffffffffffff1663ed04f2185f6040518263ffffffff1660e01b81526004016115cd91906148eb565b5f60405180830381865afa1580156115e7573d5f5f3e3d5ffd5b505050506040513d5f823e3d601f19601f8201168201806040525081019061160f9190614904565b905061162567b74a01e5633b3a9460c01b612df0565b611639674e8c8d117067098b60c01b612df0565b5f81519050611652671c41e4475df1b01060c01b612df0565b61166667eeeaf1feea3ff49960c01b612df0565b5f5f90505b818110156116c7576116876798bf1c796d8f462d60c01b612df0565b61169b67040b6bb50689394060c01b612df0565b5f8382815181106116af576116ae614747565b5b6020026020010151905050808060010191505061166b565b506116dc67960dcfa5c31487e060c01b612df0565b6116f067068efd6228415ca960c01b612df0565b5f60015f9054906101000a900473ffffffffffffffffffffffffffffffffffffffff1673ffffffffffffffffffffffffffffffffffffffff1663ed04f21860016040518263ffffffff1660e01b815260040161174c91906148eb565b5f60405180830381865afa158015611766573d5f5f3e3d5ffd5b505050506040513d5f823e3d601f19601f8201168201806040525081019061178e9190614904565b90506117a467897349085abeeb8b60c01b612df0565b805191506117bc67a866bead78f6d32360c01b612df0565b6117d06787042161517aaa7060c01b612df0565b5f5f90505b82811015611831576117f167e288bb63c93435c860c01b612df0565b61180567c5d44cbbbc66776660c01b612df0565b5f82828151811061181957611818614747565b5b602002602001015190505080806001019150506117d5565b506118466775e659507a0e21e160c01b612df0565b61185a67eeaf3820596a3ae360c01b612df0565b7ff0094b59b7bc92e9fc611b14b5d3a34fe02530ac9bcf36c2c6f10147c3030c1260405160405180910390a15050505050505050505050505050505b5050565b6118a261353b565b6118ab82613621565b6118b58282613668565b5050565b6118cd674123282defde538460c01b612df0565b6118e167688466427f4c6aca60c01b612df0565b6118f567b2f722a2dcdc032d60c01b612df0565b60015f9054906101000a900473ffffffffffffffffffffffffffffffffffffffff1673ffffffffffffffffffffffffffffffffffffffff1663e0876b44336040518263ffffffff1660e01b815260040161194f9190614290565b602060405180830381865afa15801561196a573d5f5f3e3d5ffd5b505050506040513d601f19601f8201168201806040525081019061198e9190614975565b6119d8576119a667a41292e8e0a314b160c01b612df0565b6040517fea8e4eb500000000000000000000000000000000000000000000000000000000815260040160405180910390fd5b6119ec678a2bd5135d95684760c01b612df0565b611a006758f79acd91cd829f60c01b612df0565b611a1467ad1feefc0623ca1160c01b612df0565b5f60035f9054906101000a900473ffffffffffffffffffffffffffffffffffffffff1673ffffffffffffffffffffffffffffffffffffffff1663a9059cbb84846040518363ffffffff1660e01b8152600401611a719291906149a0565b6020604051808303815f875af1158015611a8d573d5f5f3e3d5ffd5b505050506040513d601f19601f82011682018060405250810190611ab19190614975565b9050611ac767ca553a4e77b51b9460c01b612df0565b611adb6754f5ca7473fabb4760c01b612df0565b80611b2657611af4678689208522d2670960c01b612df0565b6040517f90b8ec1800000000000000000000000000000000000000000000000000000000815260040160405180910390fd5b611b3a67dcc724f6b0586dea60c01b612df0565b505050565b5f611b48613786565b7f360894a13ba1a3210667c828492db98dca3e2076cc3735a920a3ca505d382bbc5f1b905090565b5f5f9054906101000a900473ffffffffffffffffffffffffffffffffffffffff1681565b611ba867c13f48f2442b31bc60c01b612df0565b611bb0612df3565b611bc467e3e3eb1db0063df160c01b612df0565b611bd867d4e73b0e91114bc260c01b612df0565b611bec67628ae5b5a56f8a5060c01b612df0565b611c00676322466d2454f1aa60c01b612df0565b5f73ffffffffffffffffffffffffffffffffffffffff168173ffffffffffffffffffffffffffffffffffffffff1603611c7957611c4767dd771cfc91dccce260c01b612df0565b6040517fd92e233d00000000000000000000000000000000000000000000000000000000815260040160405180910390fd5b611c8d67cb491b65a5207b3560c01b612df0565b611ca1674f3e6afed16f0a0460c01b612df0565b8060015f6101000a81548173ffffffffffffffffffffffffffffffffffffffff021916908373ffffffffffffffffffffffffffffffffffffffff16021790555050565b5f6060611cfb675c75548e65589c5c60c01b612df0565b611d0f67d23a8063f5095f3d60c01b612df0565b611d2367d58b107fac07ca6260c01b612df0565b5f60025f9054906101000a900473ffffffffffffffffffffffffffffffffffffffff1673ffffffffffffffffffffffffffffffffffffffff166314b19c5a6040518163ffffffff1660e01b8152600401602060405180830381865afa158015611d8e573d5f5f3e3d5ffd5b505050506040513d601f19601f82011682018060405250810190611db29190614512565b9050611dc867a487345dcaca6c2260c01b612df0565b611ddc673e45a6f484f37fc260c01b612df0565b60055481118015611e1e57505f6003811115611dfb57611dfa613de3565b5b60065f9054906101000a900460ff166003811115611e1c57611e1b613de3565b5b145b15611e8857611e37672f3794f33ff1bc6c60c01b612df0565b611e4b67cc3da7a2d2ba503160c01b612df0565b60019250611e636770cc682462d040f360c01b612df0565b604051602001611e7290614a11565b6040516020818303038152906040529150611ed9565b611e9c67d5eb7b569e09fab060c01b612df0565b611eb06722354f7bfbd46c7660c01b612df0565b5f9250611ec7676887cc55547e57b560c01b612df0565b60405180602001604052805f81525091505b509250929050565b611ee9612df3565b611ef25f61380d565b565b60035f9054906101000a900473ffffffffffffffffffffffffffffffffffffffff1681565b60015f9054906101000a900473ffffffffffffffffffffffffffffffffffffffff1681565b5f611f4761384a565b90508073ffffffffffffffffffffffffffffffffffffffff16611f68612cfc565b73ffffffffffffffffffffffffffffffffffffffff1614611fc057806040517f118cdaa7000000000000000000000000000000000000000000000000000000008152600401611fb79190614290565b60405180910390fd5b611fc98161380d565b50565b5f5f611fd6613851565b9050805f015f9054906101000a900473ffffffffffffffffffffffffffffffffffffffff1691505090565b6040518060400160405280600581526020017f352e302e3000000000000000000000000000000000000000000000000000000081525081565b61204e676d41a96589abba4560c01b612df0565b61206267a451ad2039bbe09760c01b612df0565b6120766759c8625cd6cc246a60c01b612df0565b61208a6797bcb76278b3cfd560c01b612df0565b60015f9054906101000a900473ffffffffffffffffffffffffffffffffffffffff1673ffffffffffffffffffffffffffffffffffffffff163373ffffffffffffffffffffffffffffffffffffffff1614612124576120f2675a72838d7a8113e460c01b612df0565b6040517fea8e4eb500000000000000000000000000000000000000000000000000000000815260040160405180910390fd5b61213867a7b5f181d50649b860c01b612df0565b61214c67ca7d25b880497ec660c01b612df0565b6121606719ea78e9d672a85660c01b612df0565b61217467c718128f2b691c0060c01b612df0565b6121886716ce83a7ee07032e60c01b612df0565b61219c67fa79465439cd4f4360c01b612df0565b5f73ffffffffffffffffffffffffffffffffffffffff168273ffffffffffffffffffffffffffffffffffffffff161480156121e757506121e66798e9bd18d9bca8d760c01b613878565b5b8061223957505f73ffffffffffffffffffffffffffffffffffffffff168173ffffffffffffffffffffffffffffffffffffffff16148015612238575061223767561d96c47ab236c560c01b613878565b5b5b156122845761225267633985afee02642460c01b612df0565b6040517fd92e233d00000000000000000000000000000000000000000000000000000000815260040160405180910390fd5b6122986704c5a954d8a6c48860c01b612df0565b6122ac679805fb3d42b2aefc60c01b612df0565b8060045f8473ffffffffffffffffffffffffffffffffffffffff1673ffffffffffffffffffffffffffffffffffffffff1681526020019081526020015f205f6101000a81548173ffffffffffffffffffffffffffffffffffffffff021916908373ffffffffffffffffffffffffffffffffffffffff16021790555061233b675f92afbb68ca9d3960c01b612df0565b61234f67a09ea8aa67d1660a60c01b612df0565b8073ffffffffffffffffffffffffffffffffffffffff168273ffffffffffffffffffffffffffffffffffffffff167fe5e39617beb2a298b9fa1c3928582d9a96ba7ef7c920acd1117d1d415568670a60405160405180910390a35050565b6123c167a09f0a43c54be70860c01b612df0565b6123d56745741b32284817c460c01b612df0565b6123e9675a71a6ac1b108a7560c01b612df0565b60015f9054906101000a900473ffffffffffffffffffffffffffffffffffffffff1673ffffffffffffffffffffffffffffffffffffffff1663e0876b44336040518263ffffffff1660e01b81526004016124439190614290565b602060405180830381865afa15801561245e573d5f5f3e3d5ffd5b505050506040513d601f19601f820116820180604052508101906124829190614975565b6124cc5761249a676978cf9a40eeda7360c01b612df0565b6040517fea8e4eb500000000000000000000000000000000000000000000000000000000815260040160405180910390fd5b6124e0670e567ffaffcaaa0960c01b612df0565b6124f46727324728b1259f8360c01b612df0565b612508671c2eafb9dac324fa60c01b612df0565b5f33905061252067620204c89f3e988c60c01b612df0565b6125346714f5ed66a20964ca60c01b612df0565b5f8173ffffffffffffffffffffffffffffffffffffffff1663a9059cbb85856040518363ffffffff1660e01b81526004016125709291906149a0565b6020604051808303815f875af115801561258c573d5f5f3e3d5ffd5b505050506040513d601f19601f820116820180604052508101906125b09190614975565b90506125c667c80c3fade892a4ff60c01b612df0565b6125da67887f9f4e5ad3565360c01b612df0565b80612625576125f36777f39990a66f97a460c01b612df0565b6040517f90b8ec1800000000000000000000000000000000000000000000000000000000815260040160405180910390fd5b61263967a4b06a75fe0d725960c01b612df0565b50505050565b612653674bc30452f1de1d6560c01b612df0565b5f61265c613882565b90505f815f0160089054906101000a900460ff161590505f825f015f9054906101000a900467ffffffffffffffff1690505f5f8267ffffffffffffffff161480156126a45750825b90505f60018367ffffffffffffffff161480156126d757505f3073ffffffffffffffffffffffffffffffffffffffff163b145b9050811580156126e5575080155b1561271c576040517ff92ee8a900000000000000000000000000000000000000000000000000000000815260040160405180910390fd5b6001855f015f6101000a81548167ffffffffffffffff021916908367ffffffffffffffff1602179055508315612769576001855f0160086101000a81548160ff0219169083151502179055505b61277d67fa9326c99c16e8c860c01b612df0565b6127916703e9df16fe70e52260c01b612df0565b6127a5677a137fa57bd329d760c01b612df0565b6127b96745efe899c2a13a2e60c01b612df0565b6127c288613895565b6127d667cb9040a6ad5a75d460c01b612df0565b6127ea679f3eb91289746e8460c01b612df0565b6127f26138a9565b61280667e283a70271dba9a860c01b612df0565b61281a67911e34113a96ddd060c01b612df0565b6128226138b3565b61283667ae549617b537007a60c01b612df0565b61284a679953ca6abeeec87c60c01b612df0565b5f73ffffffffffffffffffffffffffffffffffffffff168773ffffffffffffffffffffffffffffffffffffffff16036128c35761289167fa2f8e1bba4d540d60c01b612df0565b6040517fd92e233d00000000000000000000000000000000000000000000000000000000815260040160405180910390fd5b6128d76743835420ed965a3960c01b612df0565b6128eb6763bed220c62cbd0060c01b612df0565b6128ff6714618edd8e0e311d60c01b612df0565b5f73ffffffffffffffffffffffffffffffffffffffff168673ffffffffffffffffffffffffffffffffffffffff16036129785761294667047dbc0342ba8edb60c01b612df0565b6040517fd92e233d00000000000000000000000000000000000000000000000000000000815260040160405180910390fd5b61298c67db4d273dfbb49fe860c01b612df0565b6129a067c684778daf598cf960c01b612df0565b865f5f6101000a81548173ffffffffffffffffffffffffffffffffffffffff021916908373ffffffffffffffffffffffffffffffffffffffff1602179055506129f367152ff33f84e3c27c60c01b612df0565b8560015f6101000a81548173ffffffffffffffffffffffffffffffffffffffff021916908373ffffffffffffffffffffffffffffffffffffffff160217905550612a476752983307f91441ac60c01b612df0565b60015f9054906101000a900473ffffffffffffffffffffffffffffffffffffffff1673ffffffffffffffffffffffffffffffffffffffff1663348ec5c86040518163ffffffff1660e01b8152600401602060405180830381865afa158015612ab1573d5f5f3e3d5ffd5b505050506040513d601f19601f82011682018060405250810190612ad59190614a2f565b60025f6101000a81548173ffffffffffffffffffffffffffffffffffffffff021916908373ffffffffffffffffffffffffffffffffffffffff160217905550612b286731a405ce52c0cae260c01b612df0565b60015f9054906101000a900473ffffffffffffffffffffffffffffffffffffffff1673ffffffffffffffffffffffffffffffffffffffff16637158da7c6040518163ffffffff1660e01b8152600401602060405180830381865afa158015612b92573d5f5f3e3d5ffd5b505050506040513d601f19601f82011682018060405250810190612bb69190614a95565b60035f6101000a81548173ffffffffffffffffffffffffffffffffffffffff021916908373ffffffffffffffffffffffffffffffffffffffff160217905550612c0967db893aa2784f3c6660c01b612df0565b5f600581905550612c24670402351c57651cfb60c01b612df0565b5f60065f6101000a81548160ff02191690836003811115612c4857612c47613de3565b5b0217905550612c6167a909cb8d441a1c3e60c01b612df0565b5f6007819055508315612cc2575f855f0160086101000a81548160ff0219169083151502179055507fc7f505b2f371ae2175ee4913f4499e1f2633a7b5936321eed1cdaeb6115181d26001604051612cb99190614b0c565b60405180910390a15b5050505050505050565b6004602052805f5260405f205f915054906101000a900473ffffffffffffffffffffffffffffffffffffffff1681565b5f5f612d066138bd565b9050805f015f9054906101000a900473ffffffffffffffffffffffffffffffffffffffff1691505090565b60055481565b612d3f612df3565b5f612d486138bd565b905081815f015f6101000a81548173ffffffffffffffffffffffffffffffffffffffff021916908373ffffffffffffffffffffffffffffffffffffffff1602179055508173ffffffffffffffffffffffffffffffffffffffff16612daa611fcc565b73ffffffffffffffffffffffffffffffffffffffff167f38d16b8cac22d99fc7c124b9cd0de2d3fa1faef420bfe791d8c362d765e2270060405160405180910390a35050565b50565b612dfb61384a565b73ffffffffffffffffffffffffffffffffffffffff16612e19611fcc565b73ffffffffffffffffffffffffffffffffffffffff1614612e7857612e3c61384a565b6040517f118cdaa7000000000000000000000000000000000000000000000000000000008152600401612e6f9190614290565b60405180910390fd5b565b612e8e6722f71de1c344a32460c01b612df0565b612ea2673378b4b24fd2b3da60c01b612df0565b612eb6674bb55cc234ffaa5860c01b612df0565b5f60045f8473ffffffffffffffffffffffffffffffffffffffff1673ffffffffffffffffffffffffffffffffffffffff1681526020019081526020015f205f9054906101000a900473ffffffffffffffffffffffffffffffffffffffff169050612f2a67dfc73fc2ff55b01560c01b612df0565b612f3e67a7a7815b6027658e60c01b612df0565b5f73ffffffffffffffffffffffffffffffffffffffff168173ffffffffffffffffffffffffffffffffffffffff1603612fb757612f85679bf0d37d37418d1060c01b612df0565b6040517fa091855e00000000000000000000000000000000000000000000000000000000815260040160405180910390fd5b612fcb6753d86807fe8f1def60c01b612df0565b612fdf67cb8b42b034054d5360c01b612df0565b612ff367ebb4839c5b4a64c660c01b612df0565b5f8373ffffffffffffffffffffffffffffffffffffffff1663095ea7b383856040518363ffffffff1660e01b815260040161302f9291906149a0565b6020604051808303815f875af115801561304b573d5f5f3e3d5ffd5b505050506040513d601f19601f8201168201806040525081019061306f9190614975565b9050613085676c5d3fc08118708260c01b612df0565b61309967d27648120eea146760c01b612df0565b806130e4576130b2672676e5e9c7f14b8f60c01b612df0565b6040517f90b8ec1800000000000000000000000000000000000000000000000000000000815260040160405180910390fd5b6130f8676ac74f95f85cff8860c01b612df0565b61310c67b57fef1012e11d3d60c01b612df0565b613120673fc9be62d6fb708260c01b612df0565b8173ffffffffffffffffffffffffffffffffffffffff16636c197ff585856040518363ffffffff1660e01b815260040161315b9291906149a0565b5f604051808303815f87803b158015613172575f5ffd5b505af1158015613184573d5f5f3e3d5ffd5b5050505050505050565b6131a267d6eccd0380616cf060c01b612df0565b6131b6670c425ef34d133f2760c01b612df0565b6131ca67a44b435f1cd3012460c01b612df0565b5f60045f8473ffffffffffffffffffffffffffffffffffffffff1673ffffffffffffffffffffffffffffffffffffffff1681526020019081526020015f205f9054906101000a900473ffffffffffffffffffffffffffffffffffffffff16905061323e67a46dfc5d041717ee60c01b612df0565b613252670a918bc7c76229d560c01b612df0565b5f73ffffffffffffffffffffffffffffffffffffffff168173ffffffffffffffffffffffffffffffffffffffff16036132cb57613299675a7fa3fa2cc851c260c01b612df0565b6040517fa091855e00000000000000000000000000000000000000000000000000000000815260040160405180910390fd5b6132df67779b9d35d541b25360c01b612df0565b6132f367b5034513aaf60de660c01b612df0565b613307674a59a5ab05ff93bc60c01b612df0565b5f8373ffffffffffffffffffffffffffffffffffffffff166338d52e0f6040518163ffffffff1660e01b8152600401602060405180830381865afa158015613351573d5f5f3e3d5ffd5b505050506040513d601f19601f820116820180604052508101906133759190614a2f565b905061338b676e8a63b2cafb57e660c01b612df0565b61339f67ad70faea2660816a60c01b612df0565b5f8173ffffffffffffffffffffffffffffffffffffffff1663095ea7b384866040518363ffffffff1660e01b81526004016133db9291906149a0565b6020604051808303815f875af11580156133f7573d5f5f3e3d5ffd5b505050506040513d601f19601f8201168201806040525081019061341b9190614975565b905061343167379acc677787f84360c01b612df0565b613445675e4718ceaf96ef9760c01b612df0565b806134905761345e67b920b3f13dec323660c01b612df0565b6040517f90b8ec1800000000000000000000000000000000000000000000000000000000815260040160405180910390fd5b6134a467aadde620a6d472f860c01b612df0565b6134b8675339083248e5b1c160c01b612df0565b6134cc6706b47d8720a806bf60c01b612df0565b8273ffffffffffffffffffffffffffffffffffffffff1663cce7ec1386866040518363ffffffff1660e01b81526004016135079291906149a0565b5f604051808303815f87803b15801561351e575f5ffd5b505af1158015613530573d5f5f3e3d5ffd5b505050505050505050565b7f000000000000000000000000000000000000000000000000000000000000000073ffffffffffffffffffffffffffffffffffffffff163073ffffffffffffffffffffffffffffffffffffffff1614806135e857507f000000000000000000000000000000000000000000000000000000000000000073ffffffffffffffffffffffffffffffffffffffff166135cf6138e4565b73ffffffffffffffffffffffffffffffffffffffff1614155b1561361f576040517fe07c8dba00000000000000000000000000000000000000000000000000000000815260040160405180910390fd5b565b61363567200405465a435c6f60c01b612df0565b61363d612df3565b61365167e96537c33238159160c01b612df0565b613665679bfe385f8a3fbc7b60c01b612df0565b50565b8173ffffffffffffffffffffffffffffffffffffffff166352d1902d6040518163ffffffff1660e01b8152600401602060405180830381865afa9250505080156136d057506040513d601f19601f820116820180604052508101906136cd9190614b4f565b60015b61371157816040517f4c9c8ce30000000000000000000000000000000000000000000000000000000081526004016137089190614290565b60405180910390fd5b7f360894a13ba1a3210667c828492db98dca3e2076cc3735a920a3ca505d382bbc5f1b811461377757806040517faa1d49a400000000000000000000000000000000000000000000000000000000815260040161376e9190614268565b60405180910390fd5b6137818383613937565b505050565b7f000000000000000000000000000000000000000000000000000000000000000073ffffffffffffffffffffffffffffffffffffffff163073ffffffffffffffffffffffffffffffffffffffff161461380b576040517fe07c8dba00000000000000000000000000000000000000000000000000000000815260040160405180910390fd5b565b5f6138166138bd565b9050805f015f6101000a81549073ffffffffffffffffffffffffffffffffffffffff0219169055613846826139a9565b5050565b5f33905090565b5f7f9016d09d72d40fdae2fd8ceac6b6234c7706214fd39c1cd1e609a0528c199300905090565b5f60019050919050565b5f5f61388c613a7a565b90508091505090565b61389d613aa3565b6138a681613ae3565b50565b6138b1613aa3565b565b6138bb613aa3565b565b5f7f237e158222e3e6968b72b9db0d8043aacf074ad9f650f0d1606b4d82ee432c00905090565b5f6139107f360894a13ba1a3210667c828492db98dca3e2076cc3735a920a3ca505d382bbc5f1b613b67565b5f015f9054906101000a900473ffffffffffffffffffffffffffffffffffffffff16905090565b61394082613b70565b8173ffffffffffffffffffffffffffffffffffffffff167fbc7cd75a20ee27fd9adebab32041f755214dbc6bffa90cc0225b39da2e5c2d3b60405160405180910390a25f8151111561399c576139968282613c39565b506139a5565b6139a4613cb9565b5b5050565b5f6139b2613851565b90505f815f015f9054906101000a900473ffffffffffffffffffffffffffffffffffffffff16905082825f015f6101000a81548173ffffffffffffffffffffffffffffffffffffffff021916908373ffffffffffffffffffffffffffffffffffffffff1602179055508273ffffffffffffffffffffffffffffffffffffffff168173ffffffffffffffffffffffffffffffffffffffff167f8be0079c531659141344cd1fd0a4f28419497f9722a3daafe3b4186f6b6457e060405160405180910390a3505050565b5f7ff0c57e16840df040f15088dc2f81fe391c3923bec73e23a9662efc9c229c6a005f1b905090565b613aab613cf5565b613ae1576040517fd7e6bcf800000000000000000000000000000000000000000000000000000000815260040160405180910390fd5b565b613aeb613aa3565b5f73ffffffffffffffffffffffffffffffffffffffff168173ffffffffffffffffffffffffffffffffffffffff1603613b5b575f6040517f1e4fbdf7000000000000000000000000000000000000000000000000000000008152600401613b529190614290565b60405180910390fd5b613b648161380d565b50565b5f819050919050565b5f8173ffffffffffffffffffffffffffffffffffffffff163b03613bcb57806040517f4c9c8ce3000000000000000000000000000000000000000000000000000000008152600401613bc29190614290565b60405180910390fd5b80613bf77f360894a13ba1a3210667c828492db98dca3e2076cc3735a920a3ca505d382bbc5f1b613b67565b5f015f6101000a81548173ffffffffffffffffffffffffffffffffffffffff021916908373ffffffffffffffffffffffffffffffffffffffff16021790555050565b60605f5f8473ffffffffffffffffffffffffffffffffffffffff1684604051613c629190614bb4565b5f60405180830381855af49150503d805f8114613c9a576040519150601f19603f3d011682016040523d82523d5f602084013e613c9f565b606091505b5091509150613caf858383613d13565b9250505092915050565b5f341115613cf3576040517fb398979f00000000000000000000000000000000000000000000000000000000815260040160405180910390fd5b565b5f613cfe613882565b5f0160089054906101000a900460ff16905090565b606082613d2857613d2382613da0565b613d98565b5f8251148015613d4e57505f8473ffffffffffffffffffffffffffffffffffffffff163b145b15613d9057836040517f9996b315000000000000000000000000000000000000000000000000000000008152600401613d879190614290565b60405180910390fd5b819050613d99565b5b9392505050565b5f81511115613db157805160208201fd5b6040517fd6bda27500000000000000000000000000000000000000000000000000000000815260040160405180910390fd5b7f4e487b71000000000000000000000000000000000000000000000000000000005f52602160045260245ffd5b60048110613e2157613e20613de3565b5b50565b5f819050613e3182613e10565b919050565b5f613e4082613e24565b9050919050565b613e5081613e36565b82525050565b5f602082019050613e695f830184613e47565b92915050565b5f604051905090565b5f5ffd5b5f5ffd5b5f73ffffffffffffffffffffffffffffffffffffffff82169050919050565b5f613ea982613e80565b9050919050565b613eb981613e9f565b8114613ec3575f5ffd5b50565b5f81359050613ed481613eb0565b92915050565b5f60208284031215613eef57613eee613e78565b5b5f613efc84828501613ec6565b91505092915050565b5f819050919050565b613f1781613f05565b82525050565b5f602082019050613f305f830184613f0e565b92915050565b5f819050919050565b5f613f59613f54613f4f84613e80565b613f36565b613e80565b9050919050565b5f613f6a82613f3f565b9050919050565b5f613f7b82613f60565b9050919050565b613f8b81613f71565b82525050565b5f602082019050613fa45f830184613f82565b92915050565b5f5ffd5b5f5ffd5b5f5ffd5b5f5f83601f840112613fcb57613fca613faa565b5b8235905067ffffffffffffffff811115613fe857613fe7613fae565b5b60208301915083600182028301111561400457614003613fb2565b5b9250929050565b5f5f6020838503121561402157614020613e78565b5b5f83013567ffffffffffffffff81111561403e5761403d613e7c565b5b61404a85828601613fb6565b92509250509250929050565b5f5ffd5b5f601f19601f8301169050919050565b7f4e487b71000000000000000000000000000000000000000000000000000000005f52604160045260245ffd5b6140a08261405a565b810181811067ffffffffffffffff821117156140bf576140be61406a565b5b80604052505050565b5f6140d1613e6f565b90506140dd8282614097565b919050565b5f67ffffffffffffffff8211156140fc576140fb61406a565b5b6141058261405a565b9050602081019050919050565b828183375f83830152505050565b5f61413261412d846140e2565b6140c8565b90508281526020810184848401111561414e5761414d614056565b5b614159848285614112565b509392505050565b5f82601f83011261417557614174613faa565b5b8135614185848260208601614120565b91505092915050565b5f5f604083850312156141a4576141a3613e78565b5b5f6141b185828601613ec6565b925050602083013567ffffffffffffffff8111156141d2576141d1613e7c565b5b6141de85828601614161565b9150509250929050565b6141f181613f05565b81146141fb575f5ffd5b50565b5f8135905061420c816141e8565b92915050565b5f5f6040838503121561422857614227613e78565b5b5f61423585828601613ec6565b9250506020614246858286016141fe565b9150509250929050565b5f819050919050565b61426281614250565b82525050565b5f60208201905061427b5f830184614259565b92915050565b61428a81613e9f565b82525050565b5f6020820190506142a35f830184614281565b92915050565b5f8115159050919050565b6142bd816142a9565b82525050565b5f81519050919050565b5f82825260208201905092915050565b8281835e5f83830152505050565b5f6142f5826142c3565b6142ff81856142cd565b935061430f8185602086016142dd565b6143188161405a565b840191505092915050565b5f6040820190506143365f8301856142b4565b818103602083015261434881846142eb565b90509392505050565b5f61435b82613f60565b9050919050565b61436b81614351565b82525050565b5f6020820190506143845f830184614362565b92915050565b5f81519050919050565b5f82825260208201905092915050565b5f6143ae8261438a565b6143b88185614394565b93506143c88185602086016142dd565b6143d18161405a565b840191505092915050565b5f6020820190508181035f8301526143f481846143a4565b905092915050565b5f61440682613e9f565b9050919050565b614416816143fc565b8114614420575f5ffd5b50565b5f813590506144318161440d565b92915050565b5f5f6040838503121561444d5761444c613e78565b5b5f61445a85828601613ec6565b925050602061446b85828601614423565b9150509250929050565b5f5f5f6060848603121561448c5761448b613e78565b5b5f61449986828701613ec6565b93505060206144aa86828701613ec6565b92505060406144bb86828701613ec6565b9150509250925092565b5f6144cf82613f60565b9050919050565b6144df816144c5565b82525050565b5f6020820190506144f85f8301846144d6565b92915050565b5f8151905061450c816141e8565b92915050565b5f6020828403121561452757614526613e78565b5b5f614534848285016144fe565b91505092915050565b5f67ffffffffffffffff8211156145575761455661406a565b5b602082029050602081019050919050565b5f8151905061457681613eb0565b92915050565b5f61458e6145898461453d565b6140c8565b905080838252602082019050602084028301858111156145b1576145b0613fb2565b5b835b818110156145da57806145c68882614568565b8452602084019350506020810190506145b3565b5050509392505050565b5f82601f8301126145f8576145f7613faa565b5b815161460884826020860161457c565b91505092915050565b5f67ffffffffffffffff82111561462b5761462a61406a565b5b602082029050602081019050919050565b5f61464e61464984614611565b6140c8565b9050808382526020820190506020840283018581111561467157614670613fb2565b5b835b8181101561469a578061468688826144fe565b845260208401935050602081019050614673565b5050509392505050565b5f82601f8301126146b8576146b7613faa565b5b81516146c884826020860161463c565b91505092915050565b5f5f604083850312156146e7576146e6613e78565b5b5f83015167ffffffffffffffff81111561470457614703613e7c565b5b614710858286016145e4565b925050602083015167ffffffffffffffff81111561473157614730613e7c565b5b61473d858286016146a4565b9150509250929050565b7f4e487b71000000000000000000000000000000000000000000000000000000005f52603260045260245ffd5b7f4e487b71000000000000000000000000000000000000000000000000000000005f52601160045260245ffd5b5f6147ab82613f05565b91506147b683613f05565b92508282039050818111156147ce576147cd614774565b5b92915050565b5f6147de82613f05565b91506147e983613f05565b92508282026147f781613f05565b9150828204841483151761480e5761480d614774565b5b5092915050565b7f4e487b71000000000000000000000000000000000000000000000000000000005f52601260045260245ffd5b5f61484c82613f05565b915061485783613f05565b92508261486757614866614815565b5b828204905092915050565b5f61487c82613f05565b915061488783613f05565b925082820190508082111561489f5761489e614774565b5b92915050565b600281106148b6576148b5613de3565b5b50565b5f8190506148c6826148a5565b919050565b5f6148d5826148b9565b9050919050565b6148e5816148cb565b82525050565b5f6020820190506148fe5f8301846148dc565b92915050565b5f6020828403121561491957614918613e78565b5b5f82015167ffffffffffffffff81111561493657614935613e7c565b5b614942848285016145e4565b91505092915050565b614954816142a9565b811461495e575f5ffd5b50565b5f8151905061496f8161494b565b92915050565b5f6020828403121561498a57614989613e78565b5b5f61499784828501614961565b91505092915050565b5f6040820190506149b35f830185614281565b6149c06020830184613f0e565b9392505050565b7f73746172740000000000000000000000000000000000000000000000000000005f82015250565b5f6149fb600583614394565b9150614a06826149c7565b602082019050919050565b5f6020820190508181035f830152614a28816149ef565b9050919050565b5f60208284031215614a4457614a43613e78565b5b5f614a5184828501614568565b91505092915050565b5f614a6482613e9f565b9050919050565b614a7481614a5a565b8114614a7e575f5ffd5b50565b5f81519050614a8f81614a6b565b92915050565b5f60208284031215614aaa57614aa9613e78565b5b5f614ab784828501614a81565b91505092915050565b5f819050919050565b5f67ffffffffffffffff82169050919050565b5f614af6614af1614aec84614ac0565b613f36565b614ac9565b9050919050565b614b0681614adc565b82525050565b5f602082019050614b1f5f830184614afd565b92915050565b614b2e81614250565b8114614b38575f5ffd5b50565b5f81519050614b4981614b25565b92915050565b5f60208284031215614b6457614b63613e78565b5b5f614b7184828501614b3b565b91505092915050565b5f81905092915050565b5f614b8e826142c3565b614b988185614b7a565b9350614ba88185602086016142dd565b80840191505092915050565b5f614bbf8284614b84565b91508190509291505056fea26469706673582212201fde02ad612a61508beac9f93ee55a17c5f591c840c0b953710719c0195887f864736f6c634300081c0033",
  "linkReferences": {},
  "deployedLinkReferences": {}
}