{
  "_format": "hh-sol-artifact-1",
  "contractName": "LiquidityOrchestrator",
  "sourceName": "contracts/orchestrators/LiquidityOrchestrator.sol",
  "abi": [
    {
      "inputs": [
        {
          "internalType": "address",
          "name": "target",
          "type": "address"
        }
      ],
      "name": "AddressEmptyCode",
      "type": "error"
    },
    {
      "inputs": [
        {
          "internalType": "address",
          "name": "implementation",
          "type": "address"
        }
      ],
      "name": "ERC1967InvalidImplementation",
      "type": "error"
    },
    {
      "inputs": [],
      "name": "ERC1967NonPayable",
      "type": "error"
    },
    {
      "inputs": [],
      "name": "FailedCall",
      "type": "error"
    },
    {
      "inputs": [],
      "name": "InvalidInitialization",
      "type": "error"
    },
    {
      "inputs": [],
      "name": "NotAuthorized",
      "type": "error"
    },
    {
      "inputs": [],
      "name": "NotInitializing",
      "type": "error"
    },
    {
      "inputs": [
        {
          "internalType": "address",
          "name": "owner",
          "type": "address"
        }
      ],
      "name": "OwnableInvalidOwner",
      "type": "error"
    },
    {
      "inputs": [
        {
          "internalType": "address",
          "name": "account",
          "type": "address"
        }
      ],
      "name": "OwnableUnauthorizedAccount",
      "type": "error"
    },
    {
      "inputs": [],
      "name": "UUPSUnauthorizedCallContext",
      "type": "error"
    },
    {
      "inputs": [
        {
          "internalType": "bytes32",
          "name": "slot",
          "type": "bytes32"
        }
      ],
      "name": "UUPSUnsupportedProxiableUUID",
      "type": "error"
    },
    {
      "inputs": [],
      "name": "ZeroAddress",
      "type": "error"
    },
    {
      "anonymous": false,
      "inputs": [
        {
          "indexed": true,
          "internalType": "address",
          "name": "newAutomationRegistry",
          "type": "address"
        }
      ],
      "name": "AutomationRegistryUpdated",
      "type": "event"
    },
    {
      "anonymous": false,
      "inputs": [
        {
          "indexed": false,
          "internalType": "uint64",
          "name": "version",
          "type": "uint64"
        }
      ],
      "name": "Initialized",
      "type": "event"
    },
    {
      "anonymous": false,
      "inputs": [
        {
          "indexed": true,
          "internalType": "address",
          "name": "previousOwner",
          "type": "address"
        },
        {
          "indexed": true,
          "internalType": "address",
          "name": "newOwner",
          "type": "address"
        }
      ],
      "name": "OwnershipTransferStarted",
      "type": "event"
    },
    {
      "anonymous": false,
      "inputs": [
        {
          "indexed": true,
          "internalType": "address",
          "name": "previousOwner",
          "type": "address"
        },
        {
          "indexed": true,
          "internalType": "address",
          "name": "newOwner",
          "type": "address"
        }
      ],
      "name": "OwnershipTransferred",
      "type": "event"
    },
    {
      "anonymous": false,
      "inputs": [],
      "name": "PortfolioRebalanced",
      "type": "event"
    },
    {
      "anonymous": false,
      "inputs": [
        {
          "indexed": true,
          "internalType": "address",
          "name": "implementation",
          "type": "address"
        }
      ],
      "name": "Upgraded",
      "type": "event"
    },
    {
      "inputs": [],
      "name": "UPGRADE_INTERFACE_VERSION",
      "outputs": [
        {
          "internalType": "string",
          "name": "",
          "type": "string"
        }
      ],
      "stateMutability": "view",
      "type": "function"
    },
    {
      "inputs": [],
      "name": "acceptOwnership",
      "outputs": [],
      "stateMutability": "nonpayable",
      "type": "function"
    },
    {
      "inputs": [],
      "name": "automationRegistry",
      "outputs": [
        {
          "internalType": "address",
          "name": "",
          "type": "address"
        }
      ],
      "stateMutability": "view",
      "type": "function"
    },
    {
      "inputs": [
        {
          "internalType": "bytes",
          "name": "",
          "type": "bytes"
        }
      ],
      "name": "checkUpkeep",
      "outputs": [
        {
          "internalType": "bool",
          "name": "upkeepNeeded",
          "type": "bool"
        },
        {
          "internalType": "bytes",
          "name": "performData",
          "type": "bytes"
        }
      ],
      "stateMutability": "view",
      "type": "function"
    },
    {
      "inputs": [],
      "name": "config",
      "outputs": [
        {
          "internalType": "contract IOrionConfig",
          "name": "",
          "type": "address"
        }
      ],
      "stateMutability": "view",
      "type": "function"
    },
    {
      "inputs": [
        {
          "internalType": "address",
          "name": "initialOwner",
          "type": "address"
        },
        {
          "internalType": "address",
          "name": "automationRegistry_",
          "type": "address"
        },
        {
          "internalType": "address",
          "name": "config_",
          "type": "address"
        }
      ],
      "name": "initialize",
      "outputs": [],
      "stateMutability": "nonpayable",
      "type": "function"
    },
    {
      "inputs": [],
      "name": "internalStatesOrchestrator",
      "outputs": [
        {
          "internalType": "contract IInternalStateOrchestrator",
          "name": "",
          "type": "address"
        }
      ],
      "stateMutability": "view",
      "type": "function"
    },
    {
      "inputs": [],
      "name": "lastProcessedEpoch",
      "outputs": [
        {
          "internalType": "uint256",
          "name": "",
          "type": "uint256"
        }
      ],
      "stateMutability": "view",
      "type": "function"
    },
    {
      "inputs": [],
      "name": "owner",
      "outputs": [
        {
          "internalType": "address",
          "name": "",
          "type": "address"
        }
      ],
      "stateMutability": "view",
      "type": "function"
    },
    {
      "inputs": [],
      "name": "pendingOwner",
      "outputs": [
        {
          "internalType": "address",
          "name": "",
          "type": "address"
        }
      ],
      "stateMutability": "view",
      "type": "function"
    },
    {
      "inputs": [
        {
          "internalType": "bytes",
          "name": "",
          "type": "bytes"
        }
      ],
      "name": "performUpkeep",
      "outputs": [],
      "stateMutability": "nonpayable",
      "type": "function"
    },
    {
      "inputs": [],
      "name": "proxiableUUID",
      "outputs": [
        {
          "internalType": "bytes32",
          "name": "",
          "type": "bytes32"
        }
      ],
      "stateMutability": "view",
      "type": "function"
    },
    {
      "inputs": [],
      "name": "renounceOwnership",
      "outputs": [],
      "stateMutability": "nonpayable",
      "type": "function"
    },
    {
      "inputs": [
        {
          "internalType": "address",
          "name": "newOwner",
          "type": "address"
        }
      ],
      "name": "transferOwnership",
      "outputs": [],
      "stateMutability": "nonpayable",
      "type": "function"
    },
    {
      "inputs": [
        {
          "internalType": "address",
          "name": "newAutomationRegistry",
          "type": "address"
        }
      ],
      "name": "updateAutomationRegistry",
      "outputs": [],
      "stateMutability": "nonpayable",
      "type": "function"
    },
    {
      "inputs": [
        {
          "internalType": "address",
          "name": "newConfig",
          "type": "address"
        }
      ],
      "name": "updateConfig",
      "outputs": [],
      "stateMutability": "nonpayable",
      "type": "function"
    },
    {
      "inputs": [
        {
          "internalType": "address",
          "name": "newImplementation",
          "type": "address"
        },
        {
          "internalType": "bytes",
          "name": "data",
          "type": "bytes"
        }
      ],
      "name": "upgradeToAndCall",
      "outputs": [],
      "stateMutability": "payable",
      "type": "function"
    }
  ],
  "bytecode": "0x60a0604052306080523480156012575f5ffd5b506080516116db6100395f395f8181610ce701528181610d100152610e5401526116db5ff3fe6080604052600436106100fa575f3560e01c8063715018a611610092578063ad3cb1cc11610062578063ad3cb1cc14610274578063c0c53b8b146102b1578063e30c3978146102d0578063ee6713df146102e4578063f2fde38b146102f9575f5ffd5b8063715018a61461021957806379502c551461022d57806379ba50971461024c5780638da5cb5b14610260575f5ffd5b806352d1902d116100cd57806352d1902d1461018d5780635dc228a0146101af5780636cc919c8146101cd5780636e04ff0d146101ec575f5ffd5b806314b5d07f146100fe578063348ec5c81461011f5780634585e33b1461015b5780634f1ef2861461017a575b5f5ffd5b348015610109575f5ffd5b5061011d6101183660046111b2565b610318565b005b34801561012a575f5ffd5b5060025461013e906001600160a01b031681565b6040516001600160a01b0390911681526020015b60405180910390f35b348015610166575f5ffd5b5061011d6101753660046111cd565b61038e565b61011d61018836600461127d565b610832565b348015610198575f5ffd5b506101a161084d565b604051908152602001610152565b3480156101ba575f5ffd5b505f5461013e906001600160a01b031681565b3480156101d8575f5ffd5b5061011d6101e73660046111b2565b610868565b3480156101f7575f5ffd5b5061020b6102063660046111cd565b6108b9565b604051610152929190611350565b348015610224575f5ffd5b5061011d61094f565b348015610238575f5ffd5b5060015461013e906001600160a01b031681565b348015610257575f5ffd5b5061011d610962565b34801561026b575f5ffd5b5061013e6109af565b34801561027f575f5ffd5b506102a4604051806040016040528060058152602001640352e302e360dc1b81525081565b6040516101529190611372565b3480156102bc575f5ffd5b5061011d6102cb366004611384565b6109e3565b3480156102db575f5ffd5b5061013e610bfd565b3480156102ef575f5ffd5b506101a160035481565b348015610304575f5ffd5b5061011d6103133660046111b2565b610c25565b610320610caa565b6001600160a01b0381166103475760405163d92e233d60e01b815260040160405180910390fd5b5f80546001600160a01b0319166001600160a01b038316908117825560405190917f6cc7ebdb6c8c53291c5ae16148cab9b049d23bf5bde5632900b40edff56fcb4391a250565b5f546001600160a01b031633146103b85760405163ea8e4eb560e01b815260040160405180910390fd5b60025460408051630a58ce2d60e11b815290515f926001600160a01b0316916314b19c5a9160048083019260209291908290030181865afa1580156103ff573d5f5f3e3d5ffd5b505050506040513d601f19601f8201168201806040525081019061042391906113cc565b9050600354811161043357505050565b806003819055505f5f60025f9054906101000a90046001600160a01b03166001600160a01b031663c2cb5d886040518163ffffffff1660e01b81526004015f60405180830381865afa15801561048b573d5f5f3e3d5ffd5b505050506040513d5f823e601f3d908101601f191682016040526104b29190810190611478565b915091505f5f60025f9054906101000a90046001600160a01b03166001600160a01b031663a08b82d76040518163ffffffff1660e01b81526004015f60405180830381865afa158015610507573d5f5f3e3d5ffd5b505050506040513d5f823e601f3d908101601f1916820160405261052e9190810190611478565b600154604051631da09e4360e31b81529294509092505f916001600160a01b039091169063ed04f21890610566908490600401611534565b5f60405180830381865afa158015610580573d5f5f3e3d5ffd5b505050506040513d5f823e601f3d908101601f191682016040526105a7919081019061155a565b80519091505f5b81811015610697575f8382815181106105c9576105c961158b565b60200260200101519050806001600160a01b031663105444945f6001600160401b038111156105fa576105fa611239565b60405190808252806020026020018201604052801561063e57816020015b604080518082019091525f80825260208201528152602001906001900390816106185790505b505f6040518363ffffffff1660e01b815260040161065d92919061159f565b5f604051808303815f87803b158015610674575f5ffd5b505af1158015610686573d5f5f3e3d5ffd5b5050600190930192506105ae915050565b5060018054604051631da09e4360e31b81525f926001600160a01b039092169163ed04f218916106ca9190600401611534565b5f60405180830381865afa1580156106e4573d5f5f3e3d5ffd5b505050506040513d5f823e601f3d908101601f1916820160405261070b919081019061155a565b8051925090505f5b828110156107fc575f82828151811061072e5761072e61158b565b60200260200101519050806001600160a01b031663985ba4ae5f6001600160401b0381111561075f5761075f611239565b6040519080825280602002602001820160405280156107a357816020015b604080518082019091525f808252602082015281526020019060019003908161077d5790505b505f6040518363ffffffff1660e01b81526004016107c2929190611606565b5f604051808303815f87803b1580156107d9575f5ffd5b505af11580156107eb573d5f5f3e3d5ffd5b505060019093019250610713915050565b506040517ff0094b59b7bc92e9fc611b14b5d3a34fe02530ac9bcf36c2c6f10147c3030c12905f90a150505050505050505b5050565b61083a610cdc565b61084382610d80565b61082e8282610d88565b5f610856610e49565b505f5160206116865f395f51905f5290565b610870610caa565b6001600160a01b0381166108975760405163d92e233d60e01b815260040160405180910390fd5b600180546001600160a01b0319166001600160a01b0392909216919091179055565b5f60605f60025f9054906101000a90046001600160a01b03166001600160a01b03166314b19c5a6040518163ffffffff1660e01b8152600401602060405180830381865afa15801561090d573d5f5f3e3d5ffd5b505050506040513d601f19601f8201168201806040525081019061093191906113cc565b60035460408051602081019091525f81529111969095509350505050565b610957610caa565b6109605f610e92565b565b338061096c610bfd565b6001600160a01b0316146109a35760405163118cdaa760e01b81526001600160a01b03821660048201526024015b60405180910390fd5b6109ac81610e92565b50565b5f807f9016d09d72d40fdae2fd8ceac6b6234c7706214fd39c1cd1e609a0528c1993005b546001600160a01b031692915050565b7ff0c57e16840df040f15088dc2f81fe391c3923bec73e23a9662efc9c229c6a008054600160401b810460ff1615906001600160401b03165f81158015610a275750825b90505f826001600160401b03166001148015610a425750303b155b905081158015610a50575080155b15610a6e5760405163f92ee8a960e01b815260040160405180910390fd5b845467ffffffffffffffff191660011785558315610a9857845460ff60401b1916600160401b1785555b610aa188610eca565b610aa9610edb565b610ab1610edb565b6001600160a01b038716610ad85760405163d92e233d60e01b815260040160405180910390fd5b6001600160a01b038616610aff5760405163d92e233d60e01b815260040160405180910390fd5b5f80546001600160a01b03808a166001600160a01b03199283161790925560018054928916929091168217905560408051630691d8b960e31b8152905163348ec5c8916004808201926020929091908290030181865afa158015610b65573d5f5f3e3d5ffd5b505050506040513d601f19601f82011682018060405250810190610b899190611654565b600280546001600160a01b0319166001600160a01b03929092169190911790555f6003558315610bf357845460ff60401b19168555604051600181527fc7f505b2f371ae2175ee4913f4499e1f2633a7b5936321eed1cdaeb6115181d29060200160405180910390a15b5050505050505050565b5f807f237e158222e3e6968b72b9db0d8043aacf074ad9f650f0d1606b4d82ee432c006109d3565b610c2d610caa565b7f237e158222e3e6968b72b9db0d8043aacf074ad9f650f0d1606b4d82ee432c0080546001600160a01b0319166001600160a01b0383169081178255610c716109af565b6001600160a01b03167f38d16b8cac22d99fc7c124b9cd0de2d3fa1faef420bfe791d8c362d765e2270060405160405180910390a35050565b33610cb36109af565b6001600160a01b0316146109605760405163118cdaa760e01b815233600482015260240161099a565b306001600160a01b037f0000000000000000000000000000000000000000000000000000000000000000161480610d6257507f00000000000000000000000000000000000000000000000000000000000000006001600160a01b0316610d565f5160206116865f395f51905f52546001600160a01b031690565b6001600160a01b031614155b156109605760405163703e46dd60e11b815260040160405180910390fd5b6109ac610caa565b816001600160a01b03166352d1902d6040518163ffffffff1660e01b8152600401602060405180830381865afa925050508015610de2575060408051601f3d908101601f19168201909252610ddf918101906113cc565b60015b610e0a57604051634c9c8ce360e01b81526001600160a01b038316600482015260240161099a565b5f5160206116865f395f51905f528114610e3a57604051632a87526960e21b81526004810182905260240161099a565b610e448383610ee3565b505050565b306001600160a01b037f000000000000000000000000000000000000000000000000000000000000000016146109605760405163703e46dd60e11b815260040160405180910390fd5b7f237e158222e3e6968b72b9db0d8043aacf074ad9f650f0d1606b4d82ee432c0080546001600160a01b031916815561082e82610f38565b610ed2610fa8565b6109ac81610ff1565b610960610fa8565b610eec82611022565b6040516001600160a01b038316907fbc7cd75a20ee27fd9adebab32041f755214dbc6bffa90cc0225b39da2e5c2d3b905f90a2805115610f3057610e448282611085565b61082e6110f7565b7f9016d09d72d40fdae2fd8ceac6b6234c7706214fd39c1cd1e609a0528c19930080546001600160a01b031981166001600160a01b03848116918217845560405192169182907f8be0079c531659141344cd1fd0a4f28419497f9722a3daafe3b4186f6b6457e0905f90a3505050565b7ff0c57e16840df040f15088dc2f81fe391c3923bec73e23a9662efc9c229c6a0054600160401b900460ff1661096057604051631afcd79f60e31b815260040160405180910390fd5b610ff9610fa8565b6001600160a01b0381166109a357604051631e4fbdf760e01b81525f600482015260240161099a565b806001600160a01b03163b5f0361105757604051634c9c8ce360e01b81526001600160a01b038216600482015260240161099a565b5f5160206116865f395f51905f5280546001600160a01b0319166001600160a01b0392909216919091179055565b60605f5f846001600160a01b0316846040516110a1919061166f565b5f60405180830381855af49150503d805f81146110d9576040519150601f19603f3d011682016040523d82523d5f602084013e6110de565b606091505b50915091506110ee858383611116565b95945050505050565b34156109605760405163b398979f60e01b815260040160405180910390fd5b60608261112b5761112682611175565b61116e565b815115801561114257506001600160a01b0384163b155b1561116b57604051639996b31560e01b81526001600160a01b038516600482015260240161099a565b50805b9392505050565b8051156111855780518082602001fd5b60405163d6bda27560e01b815260040160405180910390fd5b6001600160a01b03811681146109ac575f5ffd5b5f602082840312156111c2575f5ffd5b813561116e8161119e565b5f5f602083850312156111de575f5ffd5b82356001600160401b038111156111f3575f5ffd5b8301601f81018513611203575f5ffd5b80356001600160401b03811115611218575f5ffd5b856020828401011115611229575f5ffd5b6020919091019590945092505050565b634e487b7160e01b5f52604160045260245ffd5b604051601f8201601f191681016001600160401b038111828210171561127557611275611239565b604052919050565b5f5f6040838503121561128e575f5ffd5b82356112998161119e565b915060208301356001600160401b038111156112b3575f5ffd5b8301601f810185136112c3575f5ffd5b80356001600160401b038111156112dc576112dc611239565b6112ef601f8201601f191660200161124d565b818152866020838501011115611303575f5ffd5b816020840160208301375f602083830101528093505050509250929050565b5f81518084528060208401602086015e5f602082860101526020601f19601f83011685010191505092915050565b8215158152604060208201525f61136a6040830184611322565b949350505050565b602081525f61116e6020830184611322565b5f5f5f60608486031215611396575f5ffd5b83356113a18161119e565b925060208401356113b18161119e565b915060408401356113c18161119e565b809150509250925092565b5f602082840312156113dc575f5ffd5b5051919050565b5f6001600160401b038211156113fb576113fb611239565b5060051b60200190565b5f82601f830112611414575f5ffd5b8151611427611422826113e3565b61124d565b8082825260208201915060208360051b860101925085831115611448575f5ffd5b602085015b8381101561146e5780516114608161119e565b83526020928301920161144d565b5095945050505050565b5f5f60408385031215611489575f5ffd5b82516001600160401b0381111561149e575f5ffd5b6114aa85828601611405565b92505060208301516001600160401b038111156114c5575f5ffd5b8301601f810185136114d5575f5ffd5b80516114e3611422826113e3565b8082825260208201915060208360051b850101925087831115611504575f5ffd5b6020840193505b8284101561152657835182526020938401939091019061150b565b809450505050509250929050565b602081016002831061155457634e487b7160e01b5f52602160045260245ffd5b91905290565b5f6020828403121561156a575f5ffd5b81516001600160401b0381111561157f575f5ffd5b61136a84828501611405565b634e487b7160e01b5f52603260045260245ffd5b604080825283519082018190525f9060208501906060840190835b818110156115f357835180516001600160a01b0316845260209081015163ffffffff1681850152909301926040909201916001016115ba565b5050602093909301939093525092915050565b604080825283519082018190525f9060208501906060840190835b818110156115f357835180516001600160a01b031684526020908101518185015290930192604090920191600101611621565b5f60208284031215611664575f5ffd5b815161116e8161119e565b5f82518060208501845e5f92019182525091905056fe360894a13ba1a3210667c828492db98dca3e2076cc3735a920a3ca505d382bbca2646970667358221220cf8bb8bd59c503100ac71c2281d528820267db45a5a304fe8915e0912afe83b964736f6c634300081c0033",
  "linkReferences": {},
  "deployedLinkReferences": {}
}