{
  "_format": "hh-sol-artifact-1",
  "contractName": "LiquidityOrchestrator",
  "sourceName": "contracts/orchestrators/LiquidityOrchestrator.sol",
  "abi": [
    {
      "inputs": [
        {
          "internalType": "address",
          "name": "initialOwner",
          "type": "address"
        },
        {
          "internalType": "address",
          "name": "config_",
          "type": "address"
        },
        {
          "internalType": "address",
          "name": "automationRegistry_",
          "type": "address"
        }
      ],
      "stateMutability": "nonpayable",
      "type": "constructor"
    },
    {
      "inputs": [],
      "name": "AdapterNotSet",
      "type": "error"
    },
    {
      "inputs": [],
      "name": "InvalidArguments",
      "type": "error"
    },
    {
      "inputs": [],
      "name": "NotAuthorized",
      "type": "error"
    },
    {
      "inputs": [
        {
          "internalType": "address",
          "name": "owner",
          "type": "address"
        }
      ],
      "name": "OwnableInvalidOwner",
      "type": "error"
    },
    {
      "inputs": [
        {
          "internalType": "address",
          "name": "account",
          "type": "address"
        }
      ],
      "name": "OwnableUnauthorizedAccount",
      "type": "error"
    },
    {
      "inputs": [],
      "name": "SystemNotIdle",
      "type": "error"
    },
    {
      "inputs": [],
      "name": "TransferFailed",
      "type": "error"
    },
    {
      "inputs": [],
      "name": "ZeroAddress",
      "type": "error"
    },
    {
      "anonymous": false,
      "inputs": [
        {
          "indexed": true,
          "internalType": "address",
          "name": "newAutomationRegistry",
          "type": "address"
        }
      ],
      "name": "AutomationRegistryUpdated",
      "type": "event"
    },
    {
      "anonymous": false,
      "inputs": [
        {
          "indexed": true,
          "internalType": "address",
          "name": "asset",
          "type": "address"
        },
        {
          "indexed": true,
          "internalType": "address",
          "name": "adapter",
          "type": "address"
        }
      ],
      "name": "ExecutionAdapterSet",
      "type": "event"
    },
    {
      "anonymous": false,
      "inputs": [
        {
          "indexed": true,
          "internalType": "address",
          "name": "previousOwner",
          "type": "address"
        },
        {
          "indexed": true,
          "internalType": "address",
          "name": "newOwner",
          "type": "address"
        }
      ],
      "name": "OwnershipTransferred",
      "type": "event"
    },
    {
      "anonymous": false,
      "inputs": [],
      "name": "PortfolioRebalanced",
      "type": "event"
    },
    {
      "inputs": [],
      "name": "automationRegistry",
      "outputs": [
        {
          "internalType": "address",
          "name": "",
          "type": "address"
        }
      ],
      "stateMutability": "view",
      "type": "function"
    },
    {
      "inputs": [
        {
          "internalType": "bytes",
          "name": "",
          "type": "bytes"
        }
      ],
      "name": "checkUpkeep",
      "outputs": [
        {
          "internalType": "bool",
          "name": "upkeepNeeded",
          "type": "bool"
        },
        {
          "internalType": "bytes",
          "name": "performData",
          "type": "bytes"
        }
      ],
      "stateMutability": "view",
      "type": "function"
    },
    {
      "inputs": [],
      "name": "config",
      "outputs": [
        {
          "internalType": "contract IOrionConfig",
          "name": "",
          "type": "address"
        }
      ],
      "stateMutability": "view",
      "type": "function"
    },
    {
      "inputs": [],
      "name": "currentPhase",
      "outputs": [
        {
          "internalType": "enum ILiquidityOrchestrator.LiquidityUpkeepPhase",
          "name": "",
          "type": "uint8"
        }
      ],
      "stateMutability": "view",
      "type": "function"
    },
    {
      "inputs": [
        {
          "internalType": "address",
          "name": "",
          "type": "address"
        }
      ],
      "name": "executionAdapterOf",
      "outputs": [
        {
          "internalType": "contract IExecutionAdapter",
          "name": "",
          "type": "address"
        }
      ],
      "stateMutability": "view",
      "type": "function"
    },
    {
      "inputs": [],
      "name": "executionMinibatchSize",
      "outputs": [
        {
          "internalType": "uint8",
          "name": "",
          "type": "uint8"
        }
      ],
      "stateMutability": "view",
      "type": "function"
    },
    {
      "inputs": [],
      "name": "internalStatesOrchestrator",
      "outputs": [
        {
          "internalType": "contract IInternalStateOrchestrator",
          "name": "",
          "type": "address"
        }
      ],
      "stateMutability": "view",
      "type": "function"
    },
    {
      "inputs": [],
      "name": "lastProcessedEpoch",
      "outputs": [
        {
          "internalType": "uint16",
          "name": "",
          "type": "uint16"
        }
      ],
      "stateMutability": "view",
      "type": "function"
    },
    {
      "inputs": [],
      "name": "owner",
      "outputs": [
        {
          "internalType": "address",
          "name": "",
          "type": "address"
        }
      ],
      "stateMutability": "view",
      "type": "function"
    },
    {
      "inputs": [
        {
          "internalType": "bytes",
          "name": "",
          "type": "bytes"
        }
      ],
      "name": "performUpkeep",
      "outputs": [],
      "stateMutability": "nonpayable",
      "type": "function"
    },
    {
      "inputs": [],
      "name": "renounceOwnership",
      "outputs": [],
      "stateMutability": "nonpayable",
      "type": "function"
    },
    {
      "inputs": [
        {
          "internalType": "address",
          "name": "user",
          "type": "address"
        },
        {
          "internalType": "uint256",
          "name": "amount",
          "type": "uint256"
        }
      ],
      "name": "returnDepositFunds",
      "outputs": [],
      "stateMutability": "nonpayable",
      "type": "function"
    },
    {
      "inputs": [
        {
          "internalType": "address",
          "name": "user",
          "type": "address"
        },
        {
          "internalType": "uint256",
          "name": "shares",
          "type": "uint256"
        }
      ],
      "name": "returnWithdrawShares",
      "outputs": [],
      "stateMutability": "nonpayable",
      "type": "function"
    },
    {
      "inputs": [
        {
          "internalType": "address",
          "name": "asset",
          "type": "address"
        },
        {
          "internalType": "contract IExecutionAdapter",
          "name": "adapter",
          "type": "address"
        }
      ],
      "name": "setExecutionAdapter",
      "outputs": [],
      "stateMutability": "nonpayable",
      "type": "function"
    },
    {
      "inputs": [
        {
          "internalType": "address",
          "name": "newOwner",
          "type": "address"
        }
      ],
      "name": "transferOwnership",
      "outputs": [],
      "stateMutability": "nonpayable",
      "type": "function"
    },
    {
      "inputs": [],
      "name": "underlyingAsset",
      "outputs": [
        {
          "internalType": "address",
          "name": "",
          "type": "address"
        }
      ],
      "stateMutability": "view",
      "type": "function"
    },
    {
      "inputs": [
        {
          "internalType": "address",
          "name": "asset",
          "type": "address"
        }
      ],
      "name": "unsetExecutionAdapter",
      "outputs": [],
      "stateMutability": "nonpayable",
      "type": "function"
    },
    {
      "inputs": [
        {
          "internalType": "address",
          "name": "newAutomationRegistry",
          "type": "address"
        }
      ],
      "name": "updateAutomationRegistry",
      "outputs": [],
      "stateMutability": "nonpayable",
      "type": "function"
    },
    {
      "inputs": [
        {
          "internalType": "uint8",
          "name": "_executionMinibatchSize",
          "type": "uint8"
        }
      ],
      "name": "updateExecutionMinibatchSize",
      "outputs": [],
      "stateMutability": "nonpayable",
      "type": "function"
    }
  ],
  "bytecode": "0x608060405234801561000f575f5ffd5b506040516117ef3803806117ef83398101604081905261002e9161025f565b826001600160a01b03811661005c57604051631e4fbdf760e01b81525f600482015260240160405180910390fd5b610065816101f9565b506001600160a01b03821661008d5760405163d92e233d60e01b815260040160405180910390fd5b6001600160a01b0381166100b45760405163d92e233d60e01b815260040160405180910390fd5b600280546001600160a01b0319166001600160a01b03841690811790915560408051630691d8b960e31b8152905163348ec5c8916004808201926020929091908290030181865afa15801561010b573d5f5f3e3d5ffd5b505050506040513d601f19601f8201168201806040525081019061012f91906102a9565b600380546001600160a01b0319166001600160a01b0392831617905560025460408051631c56369f60e21b815290519190921691637158da7c9160048083019260209291908290030181865afa15801561018b573d5f5f3e3d5ffd5b505050506040513d601f19601f820116820180604052508101906101af91906102a9565b600480546001600160a01b03199081166001600160a01b0393841617909155600180549091169290911691909117905550506006805463ffffffff191663010000001790556102cb565b5f80546001600160a01b038381166001600160a01b0319831681178455604051919092169283917f8be0079c531659141344cd1fd0a4f28419497f9722a3daafe3b4186f6b6457e09190a35050565b6001600160a01b038116811461025c575f5ffd5b50565b5f5f5f60608486031215610271575f5ffd5b835161027c81610248565b602085015190935061028d81610248565b604085015190925061029e81610248565b809150509250925092565b5f602082840312156102b9575f5ffd5b81516102c481610248565b9392505050565b611517806102d85f395ff3fe608060405234801561000f575f5ffd5b50600436106100ef575f3560e01c8063055ad42e146100f357806314b5d07f1461011c578063348ec5c8146101315780634585e33b1461015157806351edffb11461016457806357be01c11461017757806359017aa91461019d5780635dc228a0146101b05780636e04ff0d146101c3578063715018a6146101e45780637158da7c146101ec57806379502c55146101ff578063841181ef146102125780638a0b0d38146102255780638da5cb5b14610238578063be186b2014610240578063d3f3506d14610253578063ee6713df1461027b578063f2fde38b1461029c575b5f5ffd5b6006546101069062010000900460ff1681565b60405161011391906110b5565b60405180910390f35b61012f61012a3660046110e3565b6102af565b005b600354610144906001600160a01b031681565b6040516101139190611105565b61012f61015f366004611119565b6103b8565b61012f610172366004611185565b6107da565b60065461018b906301000000900460ff1681565b60405160ff9091168152602001610113565b61012f6101ab3660046111af565b6108fe565b600154610144906001600160a01b031681565b6101d66101d1366004611119565b6109a7565b6040516101139291906111e6565b61012f610b0f565b600454610144906001600160a01b031681565b600254610144906001600160a01b031681565b61012f6102203660046110e3565b610b22565b61012f610233366004611224565b610bb3565b610144610c8f565b61012f61024e366004611185565b610c9d565b6101446102613660046110e3565b60056020525f90815260409020546001600160a01b031681565b6006546102899061ffff1681565b60405161ffff9091168152602001610113565b61012f6102aa3660046110e3565b610db8565b6102b7610dfe565b6001600160a01b0381166102de5760405163d92e233d60e01b815260040160405180910390fd5b60025f9054906101000a90046001600160a01b03166001600160a01b031663edcf9c1f6040518163ffffffff1660e01b8152600401602060405180830381865afa15801561032e573d5f5f3e3d5ffd5b505050506040513d601f19601f820116820180604052508101906103529190611244565b61036f576040516312aecd8160e01b815260040160405180910390fd5b600180546001600160a01b0319166001600160a01b0383169081179091556040517f6cc7ebdb6c8c53291c5ae16148cab9b049d23bf5bde5632900b40edff56fcb43905f90a250565b6001546001600160a01b031633146103e35760405163ea8e4eb560e01b815260040160405180910390fd5b60035460408051630a58ce2d60e11b815290515f926001600160a01b0316916314b19c5a9160048083019260209291908290030181865afa15801561042a573d5f5f3e3d5ffd5b505050506040513d601f19601f8201168201806040525081019061044e9190611263565b60065490915061ffff9081169082161161046757505050565b6006805461ffff191661ffff8316179055600354604080516318596bb160e31b815290515f9283926001600160a01b039091169163c2cb5d889160048082019286929091908290030181865afa1580156104c3573d5f5f3e3d5ffd5b505050506040513d5f823e601f3d908101601f191682016040526104ea919081019061135d565b90925090505f5b82518161ffff16101561055f575f838261ffff16815181106105155761051561141b565b602002602001015190505f838361ffff16815181106105365761053661141b565b6020026020010151905061054a8282610e30565b505080806105579061142f565b9150506104f1565b505f5f60035f9054906101000a90046001600160a01b03166001600160a01b031663a08b82d76040518163ffffffff1660e01b81526004015f60405180830381865afa1580156105b1573d5f5f3e3d5ffd5b505050506040513d5f823e601f3d908101601f191682016040526105d8919081019061135d565b90925090505f5b82518161ffff16101561064d575f838261ffff16815181106106035761060361141b565b602002602001015190505f838361ffff16815181106106245761062461141b565b602002602001015190506106388282610f59565b505080806106459061142f565b9150506105df565b50600254604051631da09e4360e31b81525f916001600160a01b03169063ed04f2189061067e90849060040161145b565b5f60405180830381865afa158015610698573d5f5f3e3d5ffd5b505050506040513d5f823e601f3d908101601f191682016040526106bf919081019061146f565b80519091505f5b8161ffff168161ffff1610156106f8575f838261ffff16815181106106ed576106ed61141b565b5050506001016106c6565b50600254604051631da09e4360e31b81525f916001600160a01b03169063ed04f2189061072a9060019060040161145b565b5f60405180830381865afa158015610744573d5f5f3e3d5ffd5b505050506040513d5f823e601f3d908101601f1916820160405261076b919081019061146f565b8051925090505f5b8261ffff168161ffff1610156107a5575f828261ffff168151811061079a5761079a61141b565b505050600101610773565b506040517ff0094b59b7bc92e9fc611b14b5d3a34fe02530ac9bcf36c2c6f10147c3030c12905f90a150505050505050505050565b600254604051633821dad160e21b81526001600160a01b039091169063e0876b449061080a903390600401611105565b602060405180830381865afa158015610825573d5f5f3e3d5ffd5b505050506040513d601f19601f820116820180604052508101906108499190611244565b6108665760405163ea8e4eb560e01b815260040160405180910390fd5b6004805460405163a9059cbb60e01b81525f926001600160a01b039092169163a9059cbb916108999187918791016114a8565b6020604051808303815f875af11580156108b5573d5f5f3e3d5ffd5b505050506040513d601f19601f820116820180604052508101906108d99190611244565b9050806108f9576040516312171d8360e31b815260040160405180910390fd5b505050565b6002546001600160a01b031633146109295760405163ea8e4eb560e01b815260040160405180910390fd5b6001600160a01b038216158061094657506001600160a01b038116155b156109645760405163d92e233d60e01b815260040160405180910390fd5b6001600160a01b038281165f8181526005602052604080822080546001600160a01b0319169486169485179055515f5160206114c25f395f51905f529190a35050565b5f60605f60035f9054906101000a90046001600160a01b03166001600160a01b03166314b19c5a6040518163ffffffff1660e01b8152600401602060405180830381865afa1580156109fb573d5f5f3e3d5ffd5b505050506040513d601f19601f82011682018060405250810190610a1f9190611263565b60065490915061ffff908116908216118015610aaa575060025f9054906101000a90046001600160a01b03166001600160a01b031663edcf9c1f6040518163ffffffff1660e01b8152600401602060405180830381865afa158015610a86573d5f5f3e3d5ffd5b505050506040513d601f19601f82011682018060405250810190610aaa9190611244565b15610af25760019250604051602001610adc906020808252600590820152641cdd185c9d60da1b604082015260600190565b6040516020818303038152906040529150610b07565b5f925060405180602001604052805f81525091505b509250929050565b610b17610dfe565b610b205f611052565b565b6002546001600160a01b03163314610b4d5760405163ea8e4eb560e01b815260040160405180910390fd5b6001600160a01b038116610b745760405163d92e233d60e01b815260040160405180910390fd5b6001600160a01b0381165f8181526005602052604080822080546001600160a01b0319169055519091905f5160206114c25f395f51905f52908390a350565b610bbb610dfe565b8060ff165f03610bde576040516317dbc4cb60e21b815260040160405180910390fd5b60025f9054906101000a90046001600160a01b03166001600160a01b031663edcf9c1f6040518163ffffffff1660e01b8152600401602060405180830381865afa158015610c2e573d5f5f3e3d5ffd5b505050506040513d601f19601f82011682018060405250810190610c529190611244565b610c6f576040516312aecd8160e01b815260040160405180910390fd5b6006805460ff90921663010000000263ff00000019909216919091179055565b5f546001600160a01b031690565b600254604051633821dad160e21b81526001600160a01b039091169063e0876b4490610ccd903390600401611105565b602060405180830381865afa158015610ce8573d5f5f3e3d5ffd5b505050506040513d601f19601f82011682018060405250810190610d0c9190611244565b610d295760405163ea8e4eb560e01b815260040160405180910390fd5b60405163a9059cbb60e01b815233905f90829063a9059cbb90610d5290879087906004016114a8565b6020604051808303815f875af1158015610d6e573d5f5f3e3d5ffd5b505050506040513d601f19601f82011682018060405250810190610d929190611244565b905080610db2576040516312171d8360e31b815260040160405180910390fd5b50505050565b610dc0610dfe565b6001600160a01b038116610df2575f604051631e4fbdf760e01b8152600401610de99190611105565b60405180910390fd5b610dfb81611052565b50565b33610e07610c8f565b6001600160a01b031614610b20573360405163118cdaa760e01b8152600401610de99190611105565b6001600160a01b038083165f908152600560205260409020541680610e6857604051635048c2af60e11b815260040160405180910390fd5b60405163095ea7b360e01b81525f906001600160a01b0385169063095ea7b390610e9890859087906004016114a8565b6020604051808303815f875af1158015610eb4573d5f5f3e3d5ffd5b505050506040513d601f19601f82011682018060405250810190610ed89190611244565b905080610ef8576040516312171d8360e31b815260040160405180910390fd5b604051636c197ff560e01b81526001600160a01b03831690636c197ff590610f2690879087906004016114a8565b5f604051808303815f87803b158015610f3d575f5ffd5b505af1158015610f4f573d5f5f3e3d5ffd5b5050505050505050565b6001600160a01b038083165f908152600560205260409020541680610f9157604051635048c2af60e11b815260040160405180910390fd5b6004805460405163095ea7b360e01b81525f926001600160a01b039092169163095ea7b391610fc49186918891016114a8565b6020604051808303815f875af1158015610fe0573d5f5f3e3d5ffd5b505050506040513d601f19601f820116820180604052508101906110049190611244565b905080611024576040516312171d8360e31b815260040160405180910390fd5b60405163cce7ec1360e01b81526001600160a01b0383169063cce7ec1390610f2690879087906004016114a8565b5f80546001600160a01b038381166001600160a01b0319831681178455604051919092169283917f8be0079c531659141344cd1fd0a4f28419497f9722a3daafe3b4186f6b6457e09190a35050565b634e487b7160e01b5f52602160045260245ffd5b60208101600483106110c9576110c96110a1565b91905290565b6001600160a01b0381168114610dfb575f5ffd5b5f602082840312156110f3575f5ffd5b81356110fe816110cf565b9392505050565b6001600160a01b0391909116815260200190565b5f5f6020838503121561112a575f5ffd5b82356001600160401b0381111561113f575f5ffd5b8301601f8101851361114f575f5ffd5b80356001600160401b03811115611164575f5ffd5b856020828401011115611175575f5ffd5b6020919091019590945092505050565b5f5f60408385031215611196575f5ffd5b82356111a1816110cf565b946020939093013593505050565b5f5f604083850312156111c0575f5ffd5b82356111cb816110cf565b915060208301356111db816110cf565b809150509250929050565b8215158152604060208201525f82518060408401528060208501606085015e5f606082850101526060601f19601f8301168401019150509392505050565b5f60208284031215611234575f5ffd5b813560ff811681146110fe575f5ffd5b5f60208284031215611254575f5ffd5b815180151581146110fe575f5ffd5b5f60208284031215611273575f5ffd5b815161ffff811681146110fe575f5ffd5b634e487b7160e01b5f52604160045260245ffd5b604051601f8201601f191681016001600160401b03811182821017156112c0576112c0611284565b604052919050565b5f6001600160401b038211156112e0576112e0611284565b5060051b60200190565b5f82601f8301126112f9575f5ffd5b815161130c611307826112c8565b611298565b8082825260208201915060208360051b86010192508583111561132d575f5ffd5b602085015b83811015611353578051611345816110cf565b835260209283019201611332565b5095945050505050565b5f5f6040838503121561136e575f5ffd5b82516001600160401b03811115611383575f5ffd5b61138f858286016112ea565b602085015190935090506001600160401b038111156113ac575f5ffd5b8301601f810185136113bc575f5ffd5b80516113ca611307826112c8565b8082825260208201915060208360051b8501019250878311156113eb575f5ffd5b6020840193505b8284101561140d5783518252602093840193909101906113f2565b809450505050509250929050565b634e487b7160e01b5f52603260045260245ffd5b5f61ffff821661ffff810361145257634e487b7160e01b5f52601160045260245ffd5b60010192915050565b60208101600283106110c9576110c96110a1565b5f6020828403121561147f575f5ffd5b81516001600160401b03811115611494575f5ffd5b6114a0848285016112ea565b949350505050565b6001600160a01b0392909216825260208201526040019056fe2f2727c7b3d9ee55de5c114f0cb7997ac7251a4cbfca4f2b2dc6969d86cce4f4a2646970667358221220cbad5fc47f3aba2a5a99e6c98bfd9a981546a0d17c07d8e8ab7474b427f44a2664736f6c634300081c0033",
  "linkReferences": {},
  "deployedLinkReferences": {}
}