{
  "_format": "hh-sol-artifact-1",
  "contractName": "LiquidityOrchestrator",
  "sourceName": "contracts/orchestrators/LiquidityOrchestrator.sol",
  "abi": [
    {
      "inputs": [
        {
          "internalType": "address",
          "name": "initialOwner",
          "type": "address"
        },
        {
          "internalType": "address",
          "name": "config_",
          "type": "address"
        },
        {
          "internalType": "address",
          "name": "automationRegistry_",
          "type": "address"
        }
      ],
      "stateMutability": "nonpayable",
      "type": "constructor"
    },
    {
      "inputs": [],
      "name": "AdapterNotSet",
      "type": "error"
    },
    {
      "inputs": [],
      "name": "AlreadyRegistered",
      "type": "error"
    },
    {
      "inputs": [
        {
          "internalType": "address",
          "name": "asset",
          "type": "address"
        }
      ],
      "name": "AmountMustBeGreaterThanZero",
      "type": "error"
    },
    {
      "inputs": [],
      "name": "InsufficientAmount",
      "type": "error"
    },
    {
      "inputs": [],
      "name": "InvalidArguments",
      "type": "error"
    },
    {
      "inputs": [],
      "name": "InvalidState",
      "type": "error"
    },
    {
      "inputs": [],
      "name": "NotAuthorized",
      "type": "error"
    },
    {
      "inputs": [
        {
          "internalType": "address",
          "name": "owner",
          "type": "address"
        }
      ],
      "name": "OwnableInvalidOwner",
      "type": "error"
    },
    {
      "inputs": [
        {
          "internalType": "address",
          "name": "account",
          "type": "address"
        }
      ],
      "name": "OwnableUnauthorizedAccount",
      "type": "error"
    },
    {
      "inputs": [],
      "name": "ReentrancyGuardReentrantCall",
      "type": "error"
    },
    {
      "inputs": [
        {
          "internalType": "address",
          "name": "token",
          "type": "address"
        }
      ],
      "name": "SafeERC20FailedOperation",
      "type": "error"
    },
    {
      "inputs": [],
      "name": "SystemNotIdle",
      "type": "error"
    },
    {
      "inputs": [],
      "name": "TransferFailed",
      "type": "error"
    },
    {
      "inputs": [],
      "name": "UnauthorizedAccess",
      "type": "error"
    },
    {
      "inputs": [],
      "name": "ZeroAddress",
      "type": "error"
    },
    {
      "anonymous": false,
      "inputs": [
        {
          "indexed": true,
          "internalType": "address",
          "name": "newAutomationRegistry",
          "type": "address"
        }
      ],
      "name": "AutomationRegistryUpdated",
      "type": "event"
    },
    {
      "anonymous": false,
      "inputs": [
        {
          "indexed": true,
          "internalType": "address",
          "name": "asset",
          "type": "address"
        },
        {
          "indexed": true,
          "internalType": "address",
          "name": "adapter",
          "type": "address"
        }
      ],
      "name": "ExecutionAdapterSet",
      "type": "event"
    },
    {
      "anonymous": false,
      "inputs": [
        {
          "indexed": true,
          "internalType": "address",
          "name": "previousOwner",
          "type": "address"
        },
        {
          "indexed": true,
          "internalType": "address",
          "name": "newOwner",
          "type": "address"
        }
      ],
      "name": "OwnershipTransferred",
      "type": "event"
    },
    {
      "anonymous": false,
      "inputs": [],
      "name": "PortfolioRebalanced",
      "type": "event"
    },
    {
      "inputs": [],
      "name": "MAX_EXECUTION_MINIBATCH_SIZE",
      "outputs": [
        {
          "internalType": "uint8",
          "name": "",
          "type": "uint8"
        }
      ],
      "stateMutability": "view",
      "type": "function"
    },
    {
      "inputs": [],
      "name": "MAX_MINIBATCH_SIZE",
      "outputs": [
        {
          "internalType": "uint8",
          "name": "",
          "type": "uint8"
        }
      ],
      "stateMutability": "view",
      "type": "function"
    },
    {
      "inputs": [],
      "name": "admin",
      "outputs": [
        {
          "internalType": "address",
          "name": "",
          "type": "address"
        }
      ],
      "stateMutability": "view",
      "type": "function"
    },
    {
      "inputs": [],
      "name": "automationRegistry",
      "outputs": [
        {
          "internalType": "address",
          "name": "",
          "type": "address"
        }
      ],
      "stateMutability": "view",
      "type": "function"
    },
    {
      "inputs": [
        {
          "internalType": "uint256",
          "name": "",
          "type": "uint256"
        }
      ],
      "name": "buyingAmounts",
      "outputs": [
        {
          "internalType": "uint256",
          "name": "",
          "type": "uint256"
        }
      ],
      "stateMutability": "view",
      "type": "function"
    },
    {
      "inputs": [
        {
          "internalType": "uint256",
          "name": "",
          "type": "uint256"
        }
      ],
      "name": "buyingEstimatedUnderlyingAmounts",
      "outputs": [
        {
          "internalType": "uint256",
          "name": "",
          "type": "uint256"
        }
      ],
      "stateMutability": "view",
      "type": "function"
    },
    {
      "inputs": [
        {
          "internalType": "uint256",
          "name": "",
          "type": "uint256"
        }
      ],
      "name": "buyingTokens",
      "outputs": [
        {
          "internalType": "address",
          "name": "",
          "type": "address"
        }
      ],
      "stateMutability": "view",
      "type": "function"
    },
    {
      "inputs": [
        {
          "internalType": "bytes",
          "name": "",
          "type": "bytes"
        }
      ],
      "name": "checkUpkeep",
      "outputs": [
        {
          "internalType": "bool",
          "name": "upkeepNeeded",
          "type": "bool"
        },
        {
          "internalType": "bytes",
          "name": "performData",
          "type": "bytes"
        }
      ],
      "stateMutability": "view",
      "type": "function"
    },
    {
      "inputs": [
        {
          "internalType": "uint256",
          "name": "amount",
          "type": "uint256"
        }
      ],
      "name": "claimProtocolFees",
      "outputs": [],
      "stateMutability": "nonpayable",
      "type": "function"
    },
    {
      "inputs": [],
      "name": "config",
      "outputs": [
        {
          "internalType": "contract IOrionConfig",
          "name": "",
          "type": "address"
        }
      ],
      "stateMutability": "view",
      "type": "function"
    },
    {
      "inputs": [],
      "name": "currentMinibatchIndex",
      "outputs": [
        {
          "internalType": "uint8",
          "name": "",
          "type": "uint8"
        }
      ],
      "stateMutability": "view",
      "type": "function"
    },
    {
      "inputs": [],
      "name": "currentPhase",
      "outputs": [
        {
          "internalType": "enum ILiquidityOrchestrator.LiquidityUpkeepPhase",
          "name": "",
          "type": "uint8"
        }
      ],
      "stateMutability": "view",
      "type": "function"
    },
    {
      "inputs": [],
      "name": "deltaBufferAmount",
      "outputs": [
        {
          "internalType": "int256",
          "name": "",
          "type": "int256"
        }
      ],
      "stateMutability": "view",
      "type": "function"
    },
    {
      "inputs": [
        {
          "internalType": "uint256",
          "name": "amount",
          "type": "uint256"
        }
      ],
      "name": "depositLiquidity",
      "outputs": [],
      "stateMutability": "nonpayable",
      "type": "function"
    },
    {
      "inputs": [
        {
          "internalType": "address",
          "name": "",
          "type": "address"
        }
      ],
      "name": "executionAdapterOf",
      "outputs": [
        {
          "internalType": "contract IExecutionAdapter",
          "name": "",
          "type": "address"
        }
      ],
      "stateMutability": "view",
      "type": "function"
    },
    {
      "inputs": [],
      "name": "executionMinibatchSize",
      "outputs": [
        {
          "internalType": "uint8",
          "name": "",
          "type": "uint8"
        }
      ],
      "stateMutability": "view",
      "type": "function"
    },
    {
      "inputs": [],
      "name": "internalStatesOrchestrator",
      "outputs": [
        {
          "internalType": "contract IInternalStateOrchestrator",
          "name": "",
          "type": "address"
        }
      ],
      "stateMutability": "view",
      "type": "function"
    },
    {
      "inputs": [],
      "name": "lastProcessedEpoch",
      "outputs": [
        {
          "internalType": "uint16",
          "name": "",
          "type": "uint16"
        }
      ],
      "stateMutability": "view",
      "type": "function"
    },
    {
      "inputs": [],
      "name": "minibatchSize",
      "outputs": [
        {
          "internalType": "uint8",
          "name": "",
          "type": "uint8"
        }
      ],
      "stateMutability": "view",
      "type": "function"
    },
    {
      "inputs": [],
      "name": "owner",
      "outputs": [
        {
          "internalType": "address",
          "name": "",
          "type": "address"
        }
      ],
      "stateMutability": "view",
      "type": "function"
    },
    {
      "inputs": [
        {
          "internalType": "bytes",
          "name": "",
          "type": "bytes"
        }
      ],
      "name": "performUpkeep",
      "outputs": [],
      "stateMutability": "nonpayable",
      "type": "function"
    },
    {
      "inputs": [],
      "name": "renounceOwnership",
      "outputs": [],
      "stateMutability": "nonpayable",
      "type": "function"
    },
    {
      "inputs": [
        {
          "internalType": "address",
          "name": "user",
          "type": "address"
        },
        {
          "internalType": "uint256",
          "name": "amount",
          "type": "uint256"
        }
      ],
      "name": "returnDepositFunds",
      "outputs": [],
      "stateMutability": "nonpayable",
      "type": "function"
    },
    {
      "inputs": [
        {
          "internalType": "uint256",
          "name": "",
          "type": "uint256"
        }
      ],
      "name": "sellingAmounts",
      "outputs": [
        {
          "internalType": "uint256",
          "name": "",
          "type": "uint256"
        }
      ],
      "stateMutability": "view",
      "type": "function"
    },
    {
      "inputs": [
        {
          "internalType": "uint256",
          "name": "",
          "type": "uint256"
        }
      ],
      "name": "sellingEstimatedUnderlyingAmounts",
      "outputs": [
        {
          "internalType": "uint256",
          "name": "",
          "type": "uint256"
        }
      ],
      "stateMutability": "view",
      "type": "function"
    },
    {
      "inputs": [
        {
          "internalType": "uint256",
          "name": "",
          "type": "uint256"
        }
      ],
      "name": "sellingTokens",
      "outputs": [
        {
          "internalType": "address",
          "name": "",
          "type": "address"
        }
      ],
      "stateMutability": "view",
      "type": "function"
    },
    {
      "inputs": [
        {
          "internalType": "address",
          "name": "asset",
          "type": "address"
        },
        {
          "internalType": "contract IExecutionAdapter",
          "name": "adapter",
          "type": "address"
        }
      ],
      "name": "setExecutionAdapter",
      "outputs": [],
      "stateMutability": "nonpayable",
      "type": "function"
    },
    {
      "inputs": [
        {
          "internalType": "address",
          "name": "_internalStatesOrchestrator",
          "type": "address"
        }
      ],
      "name": "setInternalStatesOrchestrator",
      "outputs": [],
      "stateMutability": "nonpayable",
      "type": "function"
    },
    {
      "inputs": [
        {
          "internalType": "uint256",
          "name": "_targetBufferRatio",
          "type": "uint256"
        }
      ],
      "name": "setTargetBufferRatio",
      "outputs": [],
      "stateMutability": "nonpayable",
      "type": "function"
    },
    {
      "inputs": [],
      "name": "targetBufferRatio",
      "outputs": [
        {
          "internalType": "uint256",
          "name": "",
          "type": "uint256"
        }
      ],
      "stateMutability": "view",
      "type": "function"
    },
    {
      "inputs": [
        {
          "internalType": "uint256",
          "name": "amount",
          "type": "uint256"
        }
      ],
      "name": "transferCuratorFees",
      "outputs": [],
      "stateMutability": "nonpayable",
      "type": "function"
    },
    {
      "inputs": [
        {
          "internalType": "address",
          "name": "newOwner",
          "type": "address"
        }
      ],
      "name": "transferOwnership",
      "outputs": [],
      "stateMutability": "nonpayable",
      "type": "function"
    },
    {
      "inputs": [
        {
          "internalType": "address",
          "name": "user",
          "type": "address"
        },
        {
          "internalType": "uint256",
          "name": "amount",
          "type": "uint256"
        }
      ],
      "name": "transferRedemptionFunds",
      "outputs": [],
      "stateMutability": "nonpayable",
      "type": "function"
    },
    {
      "inputs": [],
      "name": "underlyingAsset",
      "outputs": [
        {
          "internalType": "address",
          "name": "",
          "type": "address"
        }
      ],
      "stateMutability": "view",
      "type": "function"
    },
    {
      "inputs": [
        {
          "internalType": "address",
          "name": "newAutomationRegistry",
          "type": "address"
        }
      ],
      "name": "updateAutomationRegistry",
      "outputs": [],
      "stateMutability": "nonpayable",
      "type": "function"
    },
    {
      "inputs": [
        {
          "internalType": "uint8",
          "name": "_executionMinibatchSize",
          "type": "uint8"
        }
      ],
      "name": "updateExecutionMinibatchSize",
      "outputs": [],
      "stateMutability": "nonpayable",
      "type": "function"
    },
    {
      "inputs": [
        {
          "internalType": "uint8",
          "name": "_minibatchSize",
          "type": "uint8"
        }
      ],
      "name": "updateMinibatchSize",
      "outputs": [],
      "stateMutability": "nonpayable",
      "type": "function"
    },
    {
      "inputs": [
        {
          "internalType": "uint256",
          "name": "assets",
          "type": "uint256"
        },
        {
          "internalType": "address",
          "name": "receiver",
          "type": "address"
        }
      ],
      "name": "withdraw",
      "outputs": [],
      "stateMutability": "nonpayable",
      "type": "function"
    },
    {
      "inputs": [
        {
          "internalType": "uint256",
          "name": "amount",
          "type": "uint256"
        }
      ],
      "name": "withdrawLiquidity",
      "outputs": [],
      "stateMutability": "nonpayable",
      "type": "function"
    }
  ],
  "bytecode": "0x608060405234801561000f575f5ffd5b5060405161324938038061324983398101604081905261002e91610265565b826001600160a01b03811661005c57604051631e4fbdf760e01b81525f600482015260240160405180910390fd5b610065816101ff565b50600180556001600160a01b0382166100915760405163d92e233d60e01b815260040160405180910390fd5b6001600160a01b0381166100b85760405163d92e233d60e01b815260040160405180910390fd5b600380546001600160a01b0319166001600160a01b03841690811790915560408051631c56369f60e21b81529051637158da7c916004808201926020929091908290030181865afa15801561010f573d5f5f3e3d5ffd5b505050506040513d601f19601f8201168201806040525081019061013391906102af565b600580546001600160a01b0319166001600160a01b03928316179055600354604080516303e1469160e61b81529051919092169163f851a4409160048083019260209291908290030181865afa15801561018f573d5f5f3e3d5ffd5b505050506040513d601f19601f820116820180604052508101906101b391906102af565b600680546001600160a01b03199081166001600160a01b0393841617909155600280549091169290911691909117905550506008805465ffffffffffff191663010100001790556102d1565b5f80546001600160a01b038381166001600160a01b0319831681178455604051919092169283917f8be0079c531659141344cd1fd0a4f28419497f9722a3daafe3b4186f6b6457e09190a35050565b6001600160a01b0381168114610262575f5ffd5b50565b5f5f5f60608486031215610277575f5ffd5b83516102828161024e565b60208501519093506102938161024e565b60408501519092506102a48161024e565b809150509250925092565b5f602082840312156102bf575f5ffd5b81516102ca8161024e565b9392505050565b612f6b806102de5f395ff3fe608060405234801561000f575f5ffd5b50600436106101ca575f3560e01c8062f714ce146101ce57806301c621c1146101e3578063055ad42e146101f657806309f2e19c146102205780630a861f2a146102405780630a8b78c71461025357806314b5d07f146102665780633369921a14610279578063348ec5c8146102905780633af2a8c0146102a35780633e765a9e146102b65780634585e33b146102c95780634adfc2e7146102dc57806351edffb1146102ef57806352e899fd146103025780635488cd621461031557806357be01c11461033b57806359017aa91461034e5780635dc228a0146103615780635dd17ec314610374578063639bdf5a146103745780636e04ff0d1461037c578063715018a61461039d5780637158da7c146103a5578063741fca4b146103b857806376d58e1a146103cb57806379502c55146103de5780638157c1ab146103f15780638689b2c5146104045780638a0b0d38146104185780638da5cb5b1461042b578063bc50497514610433578063be1b26a414610446578063d3f3506d14610459578063dab26e3b14610481578063e6c3efd91461048a578063ee6713df1461049d578063f2fde38b146104be578063f851a440146104d1575b5f5ffd5b6101e16101dc366004612932565b6104e4565b005b6101e16101f1366004612960565b61059c565b60085461020a90600160201b900460ff1681565b604051610217919061298b565b60405180910390f35b61023361022e366004612960565b6106e8565b60405161021791906129a5565b6101e161024e366004612960565b610710565b6101e16102613660046129b9565b610997565b6101e16102743660046129b9565b610a12565b61028260105481565b604051908152602001610217565b600454610233906001600160a01b031681565b6101e16102b1366004612960565b610b1b565b6102826102c4366004612960565b610bfc565b6101e16102d73660046129db565b610c1b565b6101e16102ea366004612a47565b610e33565b6101e16102fd366004612a47565b610f1e565b610282610310366004612960565b610faa565b60085461032990600160281b900460ff1681565b60405160ff9091168152602001610217565b6008546103299062010000900460ff1681565b6101e161035c366004612a71565b610fb9565b600254610233906001600160a01b031681565b610329600881565b61038f61038a3660046129db565b6110cd565b604051610217929190612a9d565b6101e1611278565b600554610233906001600160a01b031681565b6101e16103c6366004612960565b61128b565b6101e16103d9366004612960565b6114bc565b600354610233906001600160a01b031681565b6102336103ff366004612960565b6116a1565b600854610329906301000000900460ff1681565b6101e1610426366004612adb565b6116b0565b6102336117af565b610282610441366004612960565b6117bd565b610282610454366004612960565b6117cc565b6102336104673660046129b9565b60076020525f90815260409020546001600160a01b031681565b61028260095481565b6101e1610498366004612adb565b6117db565b6008546104ab9061ffff1681565b60405161ffff9091168152602001610217565b6101e16104cc3660046129b9565b6118dc565b600654610233906001600160a01b031681565b6104ec611919565b60035460405163f764eb4560e01b81526001600160a01b039091169063f764eb459061051c9033906004016129a5565b602060405180830381865afa158015610537573d5f5f3e3d5ffd5b505050506040513d601f19601f8201168201806040525081019061055b9190612afb565b6105785760405163ea8e4eb560e01b815260040160405180910390fd5b60055461058f906001600160a01b03168284611943565b61059860018055565b5050565b6006546001600160a01b031633146105c757604051631a27eac360e11b815260040160405180910390fd5b805f036105fd57600554604051636b30633560e01b81526105f4916001600160a01b0316906004016129a5565b60405180910390fd5b60048054604051637060444560e01b81529182018390526001600160a01b0316906370604445906024015f604051808303815f87803b15801561063e575f5ffd5b505af1158015610650573d5f5f3e3d5ffd5b505060055460405163a9059cbb60e01b81525f93506001600160a01b03909116915063a9059cbb906106889033908690600401612b1a565b6020604051808303815f875af11580156106a4573d5f5f3e3d5ffd5b505050506040513d601f19601f820116820180604052508101906106c89190612afb565b905080610598576040516312171d8360e31b815260040160405180910390fd5b600d81815481106106f7575f80fd5b5f918252602090912001546001600160a01b0316905081565b6006546001600160a01b0316331461073b57604051631a27eac360e11b815260040160405180910390fd5b805f0361076857600554604051636b30633560e01b81526105f4916001600160a01b0316906004016129a5565b5f60048054604080516302ad6a1760e11b815290516001600160a01b039092169263055ad42e9282820192602092908290030181865afa1580156107ae573d5f5f3e3d5ffd5b505050506040513d601f19601f820116820180604052508101906107d29190612b33565b60048111156107e3576107e3612977565b14610801576040516312aecd8160e01b815260040160405180910390fd5b5f60045f9054906101000a90046001600160a01b03166001600160a01b031663c18e2a5c6040518163ffffffff1660e01b8152600401602060405180830381865afa158015610852573d5f5f3e3d5ffd5b505050506040513d601f19601f820116820180604052508101906108769190612b51565b90508082111561089957604051632ca2f52b60e11b815260040160405180910390fd5b6004546001600160a01b031663e2c4aaec6108b384612b7c565b6040518263ffffffff1660e01b81526004016108d191815260200190565b5f604051808303815f87803b1580156108e8575f5ffd5b505af11580156108fa573d5f5f3e3d5ffd5b505060055460405163a9059cbb60e01b81525f93506001600160a01b03909116915063a9059cbb906109329033908790600401612b1a565b6020604051808303815f875af115801561094e573d5f5f3e3d5ffd5b505050506040513d601f19601f820116820180604052508101906109729190612afb565b905080610992576040516312171d8360e31b815260040160405180910390fd5b505050565b61099f61199b565b6001600160a01b0381166109c65760405163d92e233d60e01b815260040160405180910390fd5b6004546001600160a01b0316156109f057604051630ea075bf60e21b815260040160405180910390fd5b600480546001600160a01b0319166001600160a01b0392909216919091179055565b610a1a61199b565b6001600160a01b038116610a415760405163d92e233d60e01b815260040160405180910390fd5b60035f9054906101000a90046001600160a01b03166001600160a01b031663edcf9c1f6040518163ffffffff1660e01b8152600401602060405180830381865afa158015610a91573d5f5f3e3d5ffd5b505050506040513d601f19601f82011682018060405250810190610ab59190612afb565b610ad2576040516312aecd8160e01b815260040160405180910390fd5b600280546001600160a01b0319166001600160a01b0383169081179091556040517f6cc7ebdb6c8c53291c5ae16148cab9b049d23bf5bde5632900b40edff56fcb43905f90a250565b610b2361199b565b805f03610b43576040516317dbc4cb60e21b815260040160405180910390fd5b6101f4811115610b66576040516317dbc4cb60e21b815260040160405180910390fd5b60035f9054906101000a90046001600160a01b03166001600160a01b031663edcf9c1f6040518163ffffffff1660e01b8152600401602060405180830381865afa158015610bb6573d5f5f3e3d5ffd5b505050506040513d601f19601f82011682018060405250810190610bda9190612afb565b610bf7576040516312aecd8160e01b815260040160405180910390fd5b600955565b600f8181548110610c0b575f80fd5b5f91825260209091200154905081565b610c236117af565b6001600160a01b0316336001600160a01b031614158015610c4f57506002546001600160a01b03163314155b15610c6d5760405163ea8e4eb560e01b815260040160405180910390fd5b610c75611919565b60035f9054906101000a90046001600160a01b03166001600160a01b031663edcf9c1f6040518163ffffffff1660e01b8152600401602060405180830381865afa158015610cc5573d5f5f3e3d5ffd5b505050506040513d601f19601f82011682018060405250810190610ce99190612afb565b8015610d6957506008546004805460408051630a58ce2d60e11b8152905161ffff909416936001600160a01b03909216926314b19c5a9282820192602092908290030181865afa158015610d3f573d5f5f3e3d5ffd5b505050506040513d601f19601f82011682018060405250810190610d639190612b96565b61ffff16115b15610d7b57610d766119cd565b610e02565b6001600854600160201b900460ff166003811115610d9b57610d9b612977565b03610da857610d76611c05565b6002600854600160201b900460ff166003811115610dc857610dc8612977565b03610dd557610d76611d9a565b6003600854600160201b900460ff166003811115610df557610df5612977565b03610e0257610e02611f6d565b6040517ff0094b59b7bc92e9fc611b14b5d3a34fe02530ac9bcf36c2c6f10147c3030c12905f90a161059860018055565b600354604051633821dad160e21b81526001600160a01b039091169063e0876b4490610e639033906004016129a5565b602060405180830381865afa158015610e7e573d5f5f3e3d5ffd5b505050506040513d601f19601f82011682018060405250810190610ea29190612afb565b610ebf5760405163ea8e4eb560e01b815260040160405180910390fd5b805f03610eec57600554604051636b30633560e01b81526105f4916001600160a01b0316906004016129a5565b60055460405163a9059cbb60e01b81525f916001600160a01b03169063a9059cbb906109329086908690600401612b1a565b600354604051633821dad160e21b81526001600160a01b039091169063e0876b4490610f4e9033906004016129a5565b602060405180830381865afa158015610f69573d5f5f3e3d5ffd5b505050506040513d601f19601f82011682018060405250810190610f8d9190612afb565b610eec5760405163ea8e4eb560e01b815260040160405180910390fd5b600c8181548110610c0b575f80fd5b6003546001600160a01b03163314610fe45760405163ea8e4eb560e01b815260040160405180910390fd5b6001600160a01b038216158061100157506001600160a01b038116155b1561101f5760405163d92e233d60e01b815260040160405180910390fd5b604051631ed3e4fb60e11b81526001600160a01b03821690633da7c9f69061104b9085906004016129a5565b5f6040518083038186803b158015611061575f5ffd5b505afa158015611073573d5f5f3e3d5ffd5b505050506001600160a01b038281165f8181526007602052604080822080546001600160a01b0319169486169485179055517f2f2727c7b3d9ee55de5c114f0cb7997ac7251a4cbfca4f2b2dc6969d86cce4f49190a35050565b5f606060035f9054906101000a90046001600160a01b03166001600160a01b031663edcf9c1f6040518163ffffffff1660e01b8152600401602060405180830381865afa158015611120573d5f5f3e3d5ffd5b505050506040513d601f19601f820116820180604052508101906111449190612afb565b80156111c457506008546004805460408051630a58ce2d60e11b8152905161ffff909416936001600160a01b03909216926314b19c5a9282820192602092908290030181865afa15801561119a573d5f5f3e3d5ffd5b505050506040513d601f19601f820116820180604052508101906111be9190612b96565b61ffff16115b156111d25760019150611260565b6001600854600160201b900460ff1660038111156111f2576111f2612977565b036112005760019150611260565b6002600854600160201b900460ff16600381111561122057611220612977565b0361122e5760019150611260565b6003600854600160201b900460ff16600381111561124e5761124e612977565b0361125c5760019150611260565b5f91505b60405180602001604052805f81525090509250929050565b61128061199b565b6112895f6122c9565b565b600354604051633821dad160e21b815233916001600160a01b03169063e0876b44906112bb9084906004016129a5565b602060405180830381865afa1580156112d6573d5f5f3e3d5ffd5b505050506040513d601f19601f820116820180604052508101906112fa9190612afb565b158015611373575060035460405163f764eb4560e01b81526001600160a01b039091169063f764eb45906113329084906004016129a5565b602060405180830381865afa15801561134d573d5f5f3e3d5ffd5b505050506040513d601f19601f820116820180604052508101906113719190612afb565b155b156113915760405163ea8e4eb560e01b815260040160405180910390fd5b815f036113be57600554604051636b30633560e01b81526105f4916001600160a01b0316906004016129a5565b5f816001600160a01b0316631f52692b6040518163ffffffff1660e01b8152600401602060405180830381865afa1580156113fb573d5f5f3e3d5ffd5b505050506040513d601f19601f8201168201806040525081019061141f9190612bb7565b60055460405163a9059cbb60e01b81529192505f916001600160a01b039091169063a9059cbb906114569085908890600401612b1a565b6020604051808303815f875af1158015611472573d5f5f3e3d5ffd5b505050506040513d601f19601f820116820180604052508101906114969190612afb565b9050806114b6576040516312171d8360e31b815260040160405180910390fd5b50505050565b6006546001600160a01b031633146114e757604051631a27eac360e11b815260040160405180910390fd5b805f0361151457600554604051636b30633560e01b81526105f4916001600160a01b0316906004016129a5565b5f60048054604080516302ad6a1760e11b815290516001600160a01b039092169263055ad42e9282820192602092908290030181865afa15801561155a573d5f5f3e3d5ffd5b505050506040513d601f19601f8201168201806040525081019061157e9190612b33565b600481111561158f5761158f612977565b146115ad576040516312aecd8160e01b815260040160405180910390fd5b6005546040516323b872dd60e01b8152336004820152306024820152604481018390525f916001600160a01b0316906323b872dd906064016020604051808303815f875af1158015611601573d5f5f3e3d5ffd5b505050506040513d601f19601f820116820180604052508101906116259190612afb565b905080611645576040516312171d8360e31b815260040160405180910390fd5b600480546040516338b12abb60e21b81529182018490526001600160a01b03169063e2c4aaec906024015b5f604051808303815f87803b158015611687575f5ffd5b505af1158015611699573d5f5f3e3d5ffd5b505050505050565b600a81815481106106f7575f80fd5b6116b861199b565b8060ff165f036116db576040516317dbc4cb60e21b815260040160405180910390fd5b600860ff82161115611700576040516317dbc4cb60e21b815260040160405180910390fd5b60035f9054906101000a90046001600160a01b03166001600160a01b031663edcf9c1f6040518163ffffffff1660e01b8152600401602060405180830381865afa158015611750573d5f5f3e3d5ffd5b505050506040513d601f19601f820116820180604052508101906117749190612afb565b611791576040516312aecd8160e01b815260040160405180910390fd5b6008805460ff909216620100000262ff000019909216919091179055565b5f546001600160a01b031690565b600e8181548110610c0b575f80fd5b600b8181548110610c0b575f80fd5b6117e361199b565b8060ff165f03611806576040516317dbc4cb60e21b815260040160405180910390fd5b600860ff8216111561182b576040516317dbc4cb60e21b815260040160405180910390fd5b60035f9054906101000a90046001600160a01b03166001600160a01b031663edcf9c1f6040518163ffffffff1660e01b8152600401602060405180830381865afa15801561187b573d5f5f3e3d5ffd5b505050506040513d601f19601f8201168201806040525081019061189f9190612afb565b6118bc576040516312aecd8160e01b815260040160405180910390fd5b6008805460ff90921663010000000263ff00000019909216919091179055565b6118e461199b565b6001600160a01b03811661190d575f604051631e4fbdf760e01b81526004016105f491906129a5565b611916816122c9565b50565b60026001540361193c57604051633ee5aeb560e01b815260040160405180910390fd5b6002600155565b61099283846001600160a01b031663a9059cbb8585604051602401611969929190612b1a565b604051602081830303815290604052915060e01b6020820180516001600160e01b038381831617835250505050612318565b336119a46117af565b6001600160a01b031614611289573360405163118cdaa760e01b81526004016105f491906129a5565b5f60045f9054906101000a90046001600160a01b03166001600160a01b03166314b19c5a6040518163ffffffff1660e01b8152600401602060405180830381865afa158015611a1e573d5f5f3e3d5ffd5b505050506040513d601f19601f82011682018060405250810190611a429190612b96565b600854909150611a579061ffff166001612bd2565b61ffff168161ffff161015611a695750565b6008805461ffff191661ffff8316179055611a85600a5f612853565b611a90600b5f612853565b611a9b600d5f612853565b611aa6600e5f612853565b611ab1600c5f612853565b611abc600f5f612853565b5f60108190556004805460408051631716e21f60e11b815290516001600160a01b0390921693632e2dc43e938281019391928290030181865afa158015611b05573d5f5f3e3d5ffd5b505050506040513d5f823e601f3d908101601f19168201604052611b2c9190810190612d26565b600a5f600b5f600d5f600e5f600c5f600f5f8c9190509080519060200190611b5592919061286e565b50508a51611b68919060208d019061286e565b50508951611b7b919060208c019061286e565b50508851611b8e919060208b01906128b7565b50508751611ba1919060208a019061286e565b50508651611bb4919060208901906128b7565b50506008805460ff60201b1916600160201b1790555050600a545f039250611916915050576008805460ff60201b1916600160211b179055600d545f0361191657506008805460ff60201b19169055565b6001600854600160201b900460ff166003811115611c2557611c25612977565b14611c435760405163baf3f0f760e01b815260040160405180910390fd5b6008545f90611c649060ff620100008204811691600160281b900416612e36565b60085460ff91821692505f91611c81916201000090041683612bd2565b90506008600581819054906101000a900460ff16611c9e90612e59565b91906101000a81548160ff021916908360ff160217905550600a805490508161ffff161180611cd25750600a5461ffff8216145b15611cf05750600a546008805461ffff60201b1916600160211b1790555b815b8161ffff168161ffff161015610992575f600a8261ffff1681548110611d1a57611d1a612e77565b5f918252602090912001546005546001600160a01b039182169250168103611d425750611d92565b5f600b8361ffff1681548110611d5a57611d5a612e77565b905f5260205f2001549050611d8f8282600c8661ffff1681548110611d8157611d81612e77565b905f5260205f20015461237b565b50505b600101611cf2565b6002600854600160201b900460ff166003811115611dba57611dba612977565b14611dd85760405163baf3f0f760e01b815260040160405180910390fd5b6008545f90611df99060ff620100008204811691600160281b900416612e36565b60085460ff91821692505f91611e16916201000090041683612bd2565b90506008600581819054906101000a900460ff16611e3390612e59565b91906101000a81548160ff021916908360ff160217905550600d805490508161ffff161180611e675750600d5461ffff8216145b15611e855750600d546008805461ffff60201b1916600360201b1790555b815b8161ffff168161ffff161015611f2f575f600d8261ffff1681548110611eaf57611eaf612e77565b5f918252602090912001546005546001600160a01b039182169250168103611ed75750611f27565b5f600e8361ffff1681548110611eef57611eef612e77565b905f5260205f2001549050611f248282600f8661ffff1681548110611f1657611f16612e77565b905f5260205f200154612529565b50505b600101611e87565b50600d5461ffff82160361059857600480546010546040516338b12abb60e21b8152928301526001600160a01b03169063e2c4aaec90602401611670565b6003600854600160201b900460ff166003811115611f8d57611f8d612977565b14611fab5760405163baf3f0f760e01b815260040160405180910390fd5b600354604051631da09e4360e31b81525f916001600160a01b03169063ed04f21890611fdb908490600401612e8b565b5f60405180830381865afa158015611ff5573d5f5f3e3d5ffd5b505050506040513d5f823e601f3d908101601f1916820160405261201c9190810190612e9f565b6008549091505f906120419060ff63010000008204811691600160281b900416612e36565b60085460ff91821692505f9161205f91630100000090041683612bd2565b90506008600581819054906101000a900460ff1661207c90612e59565b91906101000a81548160ff021916908360ff16021790555082518161ffff1611806120ab575082518161ffff16145b156120c2575081516008805461ffff60201b191690555b815b8161ffff168161ffff1610156114b6575f848261ffff16815181106120eb576120eb612e77565b6020908102919091010151600480546040516309958e4960e11b81529293505f926001600160a01b039091169163132b1c929161212a918691016129a5565b602060405180830381865afa158015612145573d5f5f3e3d5ffd5b505050506040513d601f19601f820116820180604052508101906121699190612b51565b6004805460405163e2638ff160e01b81529293505f926001600160a01b039091169163e2638ff19161219d918791016129a5565b602060405180830381865afa1580156121b8573d5f5f3e3d5ffd5b505050506040513d601f19601f820116820180604052508101906121dc9190612b51565b90506121e98383836126ca565b60035460405163d11f1c3560e01b81526001600160a01b039091169063d11f1c35906122199086906004016129a5565b602060405180830381865afa158015612234573d5f5f3e3d5ffd5b505050506040513d601f19601f820116820180604052508101906122589190612afb565b156122bb5760035460405163e8ffccb760e01b81526001600160a01b039091169063e8ffccb79061228d9086906004016129a5565b5f604051808303815f87803b1580156122a4575f5ffd5b505af11580156122b6573d5f5f3e3d5ffd5b505050505b5050508060010190506120c4565b5f80546001600160a01b038381166001600160a01b0319831681178455604051919092169283917f8be0079c531659141344cd1fd0a4f28419497f9722a3daafe3b4186f6b6457e09190a35050565b5f5f60205f8451602086015f885af180612337576040513d5f823e3d81fd5b50505f513d9150811561234e57806001141561235b565b6001600160a01b0384163b155b156114b65783604051635274afe760e01b81526004016105f491906129a5565b6001600160a01b038084165f9081526007602052604090205416806123b357604051635048c2af60e11b815260040160405180910390fd5b60405163095ea7b360e01b81526001600160a01b0385169063095ea7b3906123e19084905f90600401612b1a565b6020604051808303815f875af11580156123fd573d5f5f3e3d5ffd5b505050506040513d601f19601f820116820180604052508101906124219190612afb565b5060405163095ea7b360e01b81526001600160a01b0385169063095ea7b3906124509084908790600401612b1a565b6020604051808303815f875af115801561246c573d5f5f3e3d5ffd5b505050506040513d601f19601f820116820180604052508101906124909190612afb565b50604051636c197ff560e01b81525f906001600160a01b03831690636c197ff5906124c19088908890600401612b1a565b6020604051808303815f875af11580156124dd573d5f5f3e3d5ffd5b505050506040513d601f19601f820116820180604052508101906125019190612b51565b905061250d8382612ed8565b60105f82825461251d9190612ef7565b90915550505050505050565b6001600160a01b038084165f90815260076020526040902054168061256157604051635048c2af60e11b815260040160405180910390fd5b6005546001600160a01b031663095ea7b38261257e856002612f1e565b6040518363ffffffff1660e01b815260040161259b929190612b1a565b6020604051808303815f875af11580156125b7573d5f5f3e3d5ffd5b505050506040513d601f19601f820116820180604052508101906125db9190612afb565b5060405163cce7ec1360e01b81525f906001600160a01b0383169063cce7ec139061260c9088908890600401612b1a565b6020604051808303815f875af1158015612628573d5f5f3e3d5ffd5b505050506040513d601f19601f8201168201806040525081019061264c9190612b51565b60055460405163095ea7b360e01b81529192506001600160a01b03169063095ea7b39061267f9085905f90600401612b1a565b6020604051808303815f875af115801561269b573d5f5f3e3d5ffd5b505050506040513d601f19601f820116820180604052508101906126bf9190612afb565b5061250d8184612ed8565b5f8390505f816001600160a01b031663f64c6f326040518163ffffffff1660e01b8152600401602060405180830381865afa15801561270b573d5f5f3e3d5ffd5b505050506040513d601f19601f8201168201806040525081019061272f9190612b51565b90505f826001600160a01b0316630a605c6d6040518163ffffffff1660e01b8152600401602060405180830381865afa15801561276e573d5f5f3e3d5ffd5b505050506040513d601f19601f820116820180604052508101906127929190612b51565b905081156127f05760405163e5e9719360e01b8152600481018690526001600160a01b0384169063e5e97193906024015f604051808303815f87803b1580156127d9575f5ffd5b505af11580156127eb573d5f5f3e3d5ffd5b505050505b80156116995760405163493a6e2160e01b8152600481018590526001600160a01b0384169063493a6e21906024015f604051808303815f87803b158015612835575f5ffd5b505af1158015612847573d5f5f3e3d5ffd5b50505050505050505050565b5080545f8255905f5260205f2090810190611916919061290a565b828054828255905f5260205f209081019282156128a7579160200282015b828111156128a757825182559160200191906001019061288c565b506128b392915061290a565b5090565b828054828255905f5260205f209081019282156128a7579160200282015b828111156128a757825182546001600160a01b0319166001600160a01b039091161782556020909201916001909101906128d5565b5b808211156128b3575f815560010161290b565b6001600160a01b0381168114611916575f5ffd5b5f5f60408385031215612943575f5ffd5b8235915060208301356129558161291e565b809150509250929050565b5f60208284031215612970575f5ffd5b5035919050565b634e487b7160e01b5f52602160045260245ffd5b602081016004831061299f5761299f612977565b91905290565b6001600160a01b0391909116815260200190565b5f602082840312156129c9575f5ffd5b81356129d48161291e565b9392505050565b5f5f602083850312156129ec575f5ffd5b82356001600160401b03811115612a01575f5ffd5b8301601f81018513612a11575f5ffd5b80356001600160401b03811115612a26575f5ffd5b856020828401011115612a37575f5ffd5b6020919091019590945092505050565b5f5f60408385031215612a58575f5ffd5b8235612a638161291e565b946020939093013593505050565b5f5f60408385031215612a82575f5ffd5b8235612a8d8161291e565b915060208301356129558161291e565b8215158152604060208201525f82518060408401528060208501606085015e5f606082850101526060601f19601f8301168401019150509392505050565b5f60208284031215612aeb575f5ffd5b813560ff811681146129d4575f5ffd5b5f60208284031215612b0b575f5ffd5b815180151581146129d4575f5ffd5b6001600160a01b03929092168252602082015260400190565b5f60208284031215612b43575f5ffd5b8151600581106129d4575f5ffd5b5f60208284031215612b61575f5ffd5b5051919050565b634e487b7160e01b5f52601160045260245ffd5b5f600160ff1b8201612b9057612b90612b68565b505f0390565b5f60208284031215612ba6575f5ffd5b815161ffff811681146129d4575f5ffd5b5f60208284031215612bc7575f5ffd5b81516129d48161291e565b61ffff8181168382160190811115612bec57612bec612b68565b92915050565b634e487b7160e01b5f52604160045260245ffd5b604051601f8201601f191681016001600160401b0381118282101715612c2e57612c2e612bf2565b604052919050565b5f6001600160401b03821115612c4e57612c4e612bf2565b5060051b60200190565b5f82601f830112612c67575f5ffd5b8151612c7a612c7582612c36565b612c06565b8082825260208201915060208360051b860101925085831115612c9b575f5ffd5b602085015b83811015612cc1578051612cb38161291e565b835260209283019201612ca0565b5095945050505050565b5f82601f830112612cda575f5ffd5b8151612ce8612c7582612c36565b8082825260208201915060208360051b860101925085831115612d09575f5ffd5b602085015b83811015612cc1578051835260209283019201612d0e565b5f5f5f5f5f5f60c08789031215612d3b575f5ffd5b86516001600160401b03811115612d50575f5ffd5b612d5c89828a01612c58565b602089015190975090506001600160401b03811115612d79575f5ffd5b612d8589828a01612ccb565b604089015190965090506001600160401b03811115612da2575f5ffd5b612dae89828a01612c58565b606089015190955090506001600160401b03811115612dcb575f5ffd5b612dd789828a01612ccb565b608089015190945090506001600160401b03811115612df4575f5ffd5b612e0089828a01612ccb565b60a089015190935090506001600160401b03811115612e1d575f5ffd5b612e2989828a01612ccb565b9150509295509295509295565b60ff8181168382160290811690818114612e5257612e52612b68565b5092915050565b5f60ff821660ff8103612e6e57612e6e612b68565b60010192915050565b634e487b7160e01b5f52603260045260245ffd5b602081016002831061299f5761299f612977565b5f60208284031215612eaf575f5ffd5b81516001600160401b03811115612ec4575f5ffd5b612ed084828501612c58565b949350505050565b8181035f831280158383131683831282161715612e5257612e52612b68565b8082018281125f831280158216821582161715612f1657612f16612b68565b505092915050565b8082028115828204841417612bec57612bec612b6856fea2646970667358221220609a3c3f3c677bac9fbe1f401311c94940f104684f16a939b07d798a1a16bce864736f6c634300081c0033",
  "linkReferences": {},
  "deployedLinkReferences": {}
}