{
  "_format": "hh-sol-artifact-1",
  "contractName": "LiquidityOrchestrator",
  "sourceName": "contracts/orchestrators/LiquidityOrchestrator.sol",
  "abi": [
    {
      "inputs": [
        {
          "internalType": "address",
          "name": "initialOwner",
          "type": "address"
        },
        {
          "internalType": "address",
          "name": "config_",
          "type": "address"
        },
        {
          "internalType": "address",
          "name": "automationRegistry_",
          "type": "address"
        }
      ],
      "stateMutability": "nonpayable",
      "type": "constructor"
    },
    {
      "inputs": [],
      "name": "AdapterNotSet",
      "type": "error"
    },
    {
      "inputs": [],
      "name": "NotAuthorized",
      "type": "error"
    },
    {
      "inputs": [
        {
          "internalType": "address",
          "name": "owner",
          "type": "address"
        }
      ],
      "name": "OwnableInvalidOwner",
      "type": "error"
    },
    {
      "inputs": [
        {
          "internalType": "address",
          "name": "account",
          "type": "address"
        }
      ],
      "name": "OwnableUnauthorizedAccount",
      "type": "error"
    },
    {
      "inputs": [],
      "name": "SystemNotIdle",
      "type": "error"
    },
    {
      "inputs": [],
      "name": "TransferFailed",
      "type": "error"
    },
    {
      "inputs": [],
      "name": "ZeroAddress",
      "type": "error"
    },
    {
      "anonymous": false,
      "inputs": [
        {
          "indexed": true,
          "internalType": "address",
          "name": "newAutomationRegistry",
          "type": "address"
        }
      ],
      "name": "AutomationRegistryUpdated",
      "type": "event"
    },
    {
      "anonymous": false,
      "inputs": [
        {
          "indexed": true,
          "internalType": "address",
          "name": "asset",
          "type": "address"
        },
        {
          "indexed": true,
          "internalType": "address",
          "name": "adapter",
          "type": "address"
        }
      ],
      "name": "ExecutionAdapterSet",
      "type": "event"
    },
    {
      "anonymous": false,
      "inputs": [
        {
          "indexed": true,
          "internalType": "address",
          "name": "previousOwner",
          "type": "address"
        },
        {
          "indexed": true,
          "internalType": "address",
          "name": "newOwner",
          "type": "address"
        }
      ],
      "name": "OwnershipTransferred",
      "type": "event"
    },
    {
      "anonymous": false,
      "inputs": [],
      "name": "PortfolioRebalanced",
      "type": "event"
    },
    {
      "inputs": [],
      "name": "automationRegistry",
      "outputs": [
        {
          "internalType": "address",
          "name": "",
          "type": "address"
        }
      ],
      "stateMutability": "view",
      "type": "function"
    },
    {
      "inputs": [
        {
          "internalType": "bytes",
          "name": "",
          "type": "bytes"
        }
      ],
      "name": "checkUpkeep",
      "outputs": [
        {
          "internalType": "bool",
          "name": "upkeepNeeded",
          "type": "bool"
        },
        {
          "internalType": "bytes",
          "name": "performData",
          "type": "bytes"
        }
      ],
      "stateMutability": "view",
      "type": "function"
    },
    {
      "inputs": [],
      "name": "config",
      "outputs": [
        {
          "internalType": "contract IOrionConfig",
          "name": "",
          "type": "address"
        }
      ],
      "stateMutability": "view",
      "type": "function"
    },
    {
      "inputs": [],
      "name": "currentPhase",
      "outputs": [
        {
          "internalType": "enum ILiquidityOrchestrator.LiquidityUpkeepPhase",
          "name": "",
          "type": "uint8"
        }
      ],
      "stateMutability": "view",
      "type": "function"
    },
    {
      "inputs": [
        {
          "internalType": "address",
          "name": "",
          "type": "address"
        }
      ],
      "name": "executionAdapterOf",
      "outputs": [
        {
          "internalType": "contract IExecutionAdapter",
          "name": "",
          "type": "address"
        }
      ],
      "stateMutability": "view",
      "type": "function"
    },
    {
      "inputs": [],
      "name": "internalStatesOrchestrator",
      "outputs": [
        {
          "internalType": "contract IInternalStateOrchestrator",
          "name": "",
          "type": "address"
        }
      ],
      "stateMutability": "view",
      "type": "function"
    },
    {
      "inputs": [],
      "name": "lastProcessedEpoch",
      "outputs": [
        {
          "internalType": "uint256",
          "name": "",
          "type": "uint256"
        }
      ],
      "stateMutability": "view",
      "type": "function"
    },
    {
      "inputs": [],
      "name": "owner",
      "outputs": [
        {
          "internalType": "address",
          "name": "",
          "type": "address"
        }
      ],
      "stateMutability": "view",
      "type": "function"
    },
    {
      "inputs": [
        {
          "internalType": "bytes",
          "name": "",
          "type": "bytes"
        }
      ],
      "name": "performUpkeep",
      "outputs": [],
      "stateMutability": "nonpayable",
      "type": "function"
    },
    {
      "inputs": [],
      "name": "renounceOwnership",
      "outputs": [],
      "stateMutability": "nonpayable",
      "type": "function"
    },
    {
      "inputs": [
        {
          "internalType": "address",
          "name": "user",
          "type": "address"
        },
        {
          "internalType": "uint256",
          "name": "amount",
          "type": "uint256"
        }
      ],
      "name": "returnDepositFunds",
      "outputs": [],
      "stateMutability": "nonpayable",
      "type": "function"
    },
    {
      "inputs": [
        {
          "internalType": "address",
          "name": "user",
          "type": "address"
        },
        {
          "internalType": "uint256",
          "name": "shares",
          "type": "uint256"
        }
      ],
      "name": "returnWithdrawShares",
      "outputs": [],
      "stateMutability": "nonpayable",
      "type": "function"
    },
    {
      "inputs": [
        {
          "internalType": "address",
          "name": "asset",
          "type": "address"
        },
        {
          "internalType": "contract IExecutionAdapter",
          "name": "adapter",
          "type": "address"
        }
      ],
      "name": "setExecutionAdapter",
      "outputs": [],
      "stateMutability": "nonpayable",
      "type": "function"
    },
    {
      "inputs": [
        {
          "internalType": "address",
          "name": "newOwner",
          "type": "address"
        }
      ],
      "name": "transferOwnership",
      "outputs": [],
      "stateMutability": "nonpayable",
      "type": "function"
    },
    {
      "inputs": [],
      "name": "underlyingAsset",
      "outputs": [
        {
          "internalType": "address",
          "name": "",
          "type": "address"
        }
      ],
      "stateMutability": "view",
      "type": "function"
    },
    {
      "inputs": [
        {
          "internalType": "address",
          "name": "asset",
          "type": "address"
        }
      ],
      "name": "unsetExecutionAdapter",
      "outputs": [],
      "stateMutability": "nonpayable",
      "type": "function"
    },
    {
      "inputs": [
        {
          "internalType": "address",
          "name": "newAutomationRegistry",
          "type": "address"
        }
      ],
      "name": "updateAutomationRegistry",
      "outputs": [],
      "stateMutability": "nonpayable",
      "type": "function"
    },
    {
      "inputs": [],
      "name": "updateFromConfig",
      "outputs": [],
      "stateMutability": "nonpayable",
      "type": "function"
    }
  ],
  "bytecode": "0x608060405234801561000f575f5ffd5b50604051613b27380380613b2783398181016040528101906100319190610676565b825f73ffffffffffffffffffffffffffffffffffffffff168173ffffffffffffffffffffffffffffffffffffffff16036100a2575f6040517f1e4fbdf700000000000000000000000000000000000000000000000000000000815260040161009991906106d5565b60405180910390fd5b6100b18161055460201b60201c565b506100cc67d58b107fac07ca6260c01b61061560201b60201c565b6100e667a487345dcaca6c2260c01b61061560201b60201c565b610100673e45a6f484f37fc260c01b61061560201b60201c565b5f73ffffffffffffffffffffffffffffffffffffffff168273ffffffffffffffffffffffffffffffffffffffff160361017f5761014d672f3794f33ff1bc6c60c01b61061560201b60201c565b6040517fd92e233d00000000000000000000000000000000000000000000000000000000815260040160405180910390fd5b61019967cc3da7a2d2ba503160c01b61061560201b60201c565b6101b36770cc682462d040f360c01b61061560201b60201c565b6101cd67d5eb7b569e09fab060c01b61061560201b60201c565b5f73ffffffffffffffffffffffffffffffffffffffff168173ffffffffffffffffffffffffffffffffffffffff160361024c5761021a6722354f7bfbd46c7660c01b61061560201b60201c565b6040517fd92e233d00000000000000000000000000000000000000000000000000000000815260040160405180910390fd5b610266676887cc55547e57b560c01b61061560201b60201c565b610280677c0407563b73a45a60c01b61061560201b60201c565b8160025f6101000a81548173ffffffffffffffffffffffffffffffffffffffff021916908373ffffffffffffffffffffffffffffffffffffffff1602179055506102da67d28436ad45635d6360c01b61061560201b60201c565b60025f9054906101000a900473ffffffffffffffffffffffffffffffffffffffff1673ffffffffffffffffffffffffffffffffffffffff1663348ec5c86040518163ffffffff1660e01b8152600401602060405180830381865afa158015610344573d5f5f3e3d5ffd5b505050506040513d601f19601f8201168201806040525081019061036891906106ee565b60035f6101000a81548173ffffffffffffffffffffffffffffffffffffffff021916908373ffffffffffffffffffffffffffffffffffffffff1602179055506103c167bbb7cac9e8566dc960c01b61061560201b60201c565b60025f9054906101000a900473ffffffffffffffffffffffffffffffffffffffff1673ffffffffffffffffffffffffffffffffffffffff16637158da7c6040518163ffffffff1660e01b8152600401602060405180830381865afa15801561042b573d5f5f3e3d5ffd5b505050506040513d601f19601f8201168201806040525081019061044f9190610754565b60045f6101000a81548173ffffffffffffffffffffffffffffffffffffffff021916908373ffffffffffffffffffffffffffffffffffffffff1602179055506104a867c1cfcf5bdd82503060c01b61061560201b60201c565b8060015f6101000a81548173ffffffffffffffffffffffffffffffffffffffff021916908373ffffffffffffffffffffffffffffffffffffffff160217905550610502678df5c6fd2cb2515060c01b61061560201b60201c565b5f600681905550610523679e95513db674643360c01b61061560201b60201c565b5f60075f6101000a81548160ff021916908360038111156105475761054661077f565b5b02179055505050506107ac565b5f5f5f9054906101000a900473ffffffffffffffffffffffffffffffffffffffff169050815f5f6101000a81548173ffffffffffffffffffffffffffffffffffffffff021916908373ffffffffffffffffffffffffffffffffffffffff1602179055508173ffffffffffffffffffffffffffffffffffffffff168173ffffffffffffffffffffffffffffffffffffffff167f8be0079c531659141344cd1fd0a4f28419497f9722a3daafe3b4186f6b6457e060405160405180910390a35050565b50565b5f5ffd5b5f73ffffffffffffffffffffffffffffffffffffffff82169050919050565b5f6106458261061c565b9050919050565b6106558161063b565b811461065f575f5ffd5b50565b5f815190506106708161064c565b92915050565b5f5f5f6060848603121561068d5761068c610618565b5b5f61069a86828701610662565b93505060206106ab86828701610662565b92505060406106bc86828701610662565b9150509250925092565b6106cf8161063b565b82525050565b5f6020820190506106e85f8301846106c6565b92915050565b5f6020828403121561070357610702610618565b5b5f61071084828501610662565b91505092915050565b5f6107238261063b565b9050919050565b61073381610719565b811461073d575f5ffd5b50565b5f8151905061074e8161072a565b92915050565b5f6020828403121561076957610768610618565b5b5f61077684828501610740565b91505092915050565b7f4e487b71000000000000000000000000000000000000000000000000000000005f52602160045260245ffd5b61336e806107b95f395ff3fe608060405234801561000f575f5ffd5b5060043610610114575f3560e01c8063715018a6116100a05780638da5cb5b1161006f5780638da5cb5b1461027f578063be186b201461029d578063d3f3506d146102b9578063ee6713df146102e9578063f2fde38b1461030757610114565b8063715018a61461021d5780637158da7c1461022757806379502c5514610245578063841181ef1461026357610114565b80634585e33b116100e75780634585e33b1461017a57806351edffb11461019657806359017aa9146101b25780635dc228a0146101ce5780636e04ff0d146101ec57610114565b8063055ad42e1461011857806314b5d07f14610136578063288157e914610152578063348ec5c81461015c575b5f5ffd5b610120610323565b60405161012d91906129ec565b60405180910390f35b610150600480360381019061014b9190612a70565b610335565b005b61015a610604565b005b610164610920565b6040516101719190612af6565b60405180910390f35b610194600480360381019061018f9190612b70565b610945565b005b6101b060048036038101906101ab9190612bee565b6112a9565b005b6101cc60048036038101906101c79190612c67565b61152f565b005b6101d66118a2565b6040516101e39190612cb4565b60405180910390f35b61020660048036038101906102019190612b70565b6118c7565b604051610214929190612d57565b60405180910390f35b610225611b1d565b005b61022f611b30565b60405161023c9190612cb4565b60405180910390f35b61024d611b55565b60405161025a9190612da5565b60405180910390f35b61027d60048036038101906102789190612a70565b611b7a565b005b610287611e61565b6040516102949190612cb4565b60405180910390f35b6102b760048036038101906102b29190612bee565b611e88565b005b6102d360048036038101906102ce9190612a70565b61211a565b6040516102e09190612dde565b60405180910390f35b6102f161214a565b6040516102fe9190612e06565b60405180910390f35b610321600480360381019061031c9190612a70565b612150565b005b60075f9054906101000a900460ff1681565b610349674228602fba2c201660c01b6121d4565b6103516121d7565b610365674861be2a325e12b860c01b6121d4565b6103796772559ac37f611a6d60c01b6121d4565b61038d678e29eb4a05b9008e60c01b6121d4565b6103a1670329bb434439ea1460c01b6121d4565b5f73ffffffffffffffffffffffffffffffffffffffff168173ffffffffffffffffffffffffffffffffffffffff160361041a576103e86710f2dd43efdad7b960c01b6121d4565b6040517fd92e233d00000000000000000000000000000000000000000000000000000000815260040160405180910390fd5b61042e679069dde3c7f5f7e460c01b6121d4565b6104426712e0356a3f568cdb60c01b6121d4565b610456679f18340a047d895360c01b6121d4565b60025f9054906101000a900473ffffffffffffffffffffffffffffffffffffffff1673ffffffffffffffffffffffffffffffffffffffff1663edcf9c1f6040518163ffffffff1660e01b8152600401602060405180830381865afa1580156104c0573d5f5f3e3d5ffd5b505050506040513d601f19601f820116820180604052508101906104e49190612e49565b61052e576104fc67800e0bf38ad4a49960c01b6121d4565b6040517f12aecd8100000000000000000000000000000000000000000000000000000000815260040160405180910390fd5b61054267a06d3062f1e8191e60c01b6121d4565b61055667ec15d2192f8ac9c960c01b6121d4565b8060015f6101000a81548173ffffffffffffffffffffffffffffffffffffffff021916908373ffffffffffffffffffffffffffffffffffffffff1602179055506105aa67ec538bd353f85afa60c01b6121d4565b6105be6710c22b840e92eab360c01b6121d4565b8073ffffffffffffffffffffffffffffffffffffffff167f6cc7ebdb6c8c53291c5ae16148cab9b049d23bf5bde5632900b40edff56fcb4360405160405180910390a250565b610618676dcaea5882dccf3460c01b6121d4565b6106206121d7565b6106346743d6c882b238094060c01b6121d4565b610648678071e07ee92c3d8360c01b6121d4565b61065c674b4bd3b7a1b7f50560c01b6121d4565b6106706797bfdb75683b452360c01b6121d4565b60025f9054906101000a900473ffffffffffffffffffffffffffffffffffffffff1673ffffffffffffffffffffffffffffffffffffffff1663edcf9c1f6040518163ffffffff1660e01b8152600401602060405180830381865afa1580156106da573d5f5f3e3d5ffd5b505050506040513d601f19601f820116820180604052508101906106fe9190612e49565b61074857610716677d0e1ee35d9178ff60c01b6121d4565b6040517f12aecd8100000000000000000000000000000000000000000000000000000000815260040160405180910390fd5b61075c67ffc162951ed8ee3360c01b6121d4565b61077067e000eee20d0c8adf60c01b6121d4565b60025f9054906101000a900473ffffffffffffffffffffffffffffffffffffffff1673ffffffffffffffffffffffffffffffffffffffff1663348ec5c86040518163ffffffff1660e01b8152600401602060405180830381865afa1580156107da573d5f5f3e3d5ffd5b505050506040513d601f19601f820116820180604052508101906107fe9190612e88565b60035f6101000a81548173ffffffffffffffffffffffffffffffffffffffff021916908373ffffffffffffffffffffffffffffffffffffffff16021790555061085167797d098a1a51db9160c01b6121d4565b60025f9054906101000a900473ffffffffffffffffffffffffffffffffffffffff1673ffffffffffffffffffffffffffffffffffffffff16637158da7c6040518163ffffffff1660e01b8152600401602060405180830381865afa1580156108bb573d5f5f3e3d5ffd5b505050506040513d601f19601f820116820180604052508101906108df9190612eee565b60045f6101000a81548173ffffffffffffffffffffffffffffffffffffffff021916908373ffffffffffffffffffffffffffffffffffffffff160217905550565b60035f9054906101000a900473ffffffffffffffffffffffffffffffffffffffff1681565b61095967e9933068d63d52aa60c01b6121d4565b61096d676978cf9a40eeda7360c01b6121d4565b610981670e567ffaffcaaa0960c01b6121d4565b6109956727324728b1259f8360c01b6121d4565b60015f9054906101000a900473ffffffffffffffffffffffffffffffffffffffff1673ffffffffffffffffffffffffffffffffffffffff163373ffffffffffffffffffffffffffffffffffffffff1614610a2f576109fd671c2eafb9dac324fa60c01b6121d4565b6040517fea8e4eb500000000000000000000000000000000000000000000000000000000815260040160405180910390fd5b610a4367620204c89f3e988c60c01b6121d4565b610a576714f5ed66a20964ca60c01b6121d4565b610a6b67c96ac9db742743bd60c01b6121d4565b610a7f67a44b435f1cd3012460c01b6121d4565b610a9367a46dfc5d041717ee60c01b6121d4565b610aa7670a918bc7c76229d560c01b6121d4565b5f60035f9054906101000a900473ffffffffffffffffffffffffffffffffffffffff1673ffffffffffffffffffffffffffffffffffffffff166314b19c5a6040518163ffffffff1660e01b8152600401602060405180830381865afa158015610b12573d5f5f3e3d5ffd5b505050506040513d601f19601f82011682018060405250810190610b369190612f2d565b9050610b4c675a7fa3fa2cc851c260c01b6121d4565b610b6067779b9d35d541b25360c01b6121d4565b6006548111610bab57610b7d67b5034513aaf60de660c01b6121d4565b610b91674a59a5ab05ff93bc60c01b6121d4565b610ba5676e8a63b2cafb57e660c01b6121d4565b506112a5565b610bbf67ad70faea2660816a60c01b6121d4565b610bd367379acc677787f84360c01b6121d4565b80600681905550610bee675e4718ceaf96ef9760c01b6121d4565b610c0267b920b3f13dec323660c01b6121d4565b5f5f60035f9054906101000a900473ffffffffffffffffffffffffffffffffffffffff1673ffffffffffffffffffffffffffffffffffffffff1663c2cb5d886040518163ffffffff1660e01b81526004015f60405180830381865afa158015610c6d573d5f5f3e3d5ffd5b505050506040513d5f823e3d601f19601f82011682018060405250810190610c959190613150565b91509150610cad67aadde620a6d472f860c01b6121d4565b610cc1675339083248e5b1c160c01b6121d4565b5f5f90505b8251811015610d9c57610ce36706b47d8720a806bf60c01b6121d4565b610cf767dc08ba5c8cf1adcc60c01b6121d4565b5f838281518110610d0b57610d0a6131c6565b5b60200260200101519050610d29673173f1ca17cebae260c01b6121d4565b610d3d675518fddd3d2c093160c01b6121d4565b5f838381518110610d5157610d506131c6565b5b60200260200101519050610d6f67baf03d1f0ad9382160c01b6121d4565b610d83676512da865102bf9160c01b6121d4565b610d8d828261225e565b50508080600101915050610cc6565b50610db167fc7ce05fca2f95b360c01b6121d4565b610dc567cbac3226171ad88260c01b6121d4565b5f5f60035f9054906101000a900473ffffffffffffffffffffffffffffffffffffffff1673ffffffffffffffffffffffffffffffffffffffff1663a08b82d76040518163ffffffff1660e01b81526004015f60405180830381865afa158015610e30573d5f5f3e3d5ffd5b505050506040513d5f823e3d601f19601f82011682018060405250810190610e589190613150565b91509150610e7067c7d5887c884492f960c01b6121d4565b610e8467a4d54896c1d8a4f660c01b6121d4565b5f5f90505b8251811015610f5f57610ea6679959d8ce58a2585960c01b6121d4565b610eba67d0bb44fb478fe68160c01b6121d4565b5f838281518110610ece57610ecd6131c6565b5b60200260200101519050610eec679a5a9374800d3b9c60c01b6121d4565b610f00679e56a4c20cb6293560c01b6121d4565b5f838381518110610f1457610f136131c6565b5b60200260200101519050610f326792eaec7a66e7831b60c01b6121d4565b610f46675156d1526b8c6f9860c01b6121d4565b610f508282612572565b50508080600101915050610e89565b50610f7467109f15d90efbb7ec60c01b6121d4565b610f886794bac5823990899160c01b6121d4565b5f60025f9054906101000a900473ffffffffffffffffffffffffffffffffffffffff1673ffffffffffffffffffffffffffffffffffffffff1663ed04f2185f6040518263ffffffff1660e01b8152600401610fe39190613239565b5f60405180830381865afa158015610ffd573d5f5f3e3d5ffd5b505050506040513d5f823e3d601f19601f820116820180604052508101906110259190613252565b905061103b67d8249ea2db94b3b760c01b6121d4565b61104f671e63f84026e93f6460c01b6121d4565b5f8151905061106867dcdae4384f5bbb7d60c01b6121d4565b61107c6713586efe43fcb2a060c01b6121d4565b5f5f90505b818110156110dd5761109d67bee180b90c46f2a660c01b6121d4565b6110b167ee12831748bfb56760c01b6121d4565b5f8382815181106110c5576110c46131c6565b5b60200260200101519050508080600101915050611081565b506110f26787839c1ead99662260c01b6121d4565b6111066735917d2fed59f00460c01b6121d4565b5f60025f9054906101000a900473ffffffffffffffffffffffffffffffffffffffff1673ffffffffffffffffffffffffffffffffffffffff1663ed04f21860016040518263ffffffff1660e01b81526004016111629190613239565b5f60405180830381865afa15801561117c573d5f5f3e3d5ffd5b505050506040513d5f823e3d601f19601f820116820180604052508101906111a49190613252565b90506111ba67632e8a43594d27e160c01b6121d4565b805191506111d267f6b631b87d5a2ec560c01b6121d4565b6111e667989be1028bff1f1060c01b6121d4565b5f5f90505b8281101561124757611207677286932e13a5c1aa60c01b6121d4565b61121b672283459919aa4ccd60c01b6121d4565b5f82828151811061122f5761122e6131c6565b5b602002602001015190505080806001019150506111eb565b5061125c67c03219508cea3ba560c01b6121d4565b6112706726393f05687d623660c01b6121d4565b7ff0094b59b7bc92e9fc611b14b5d3a34fe02530ac9bcf36c2c6f10147c3030c1260405160405180910390a150505050505050505b5050565b6112bd670d61ec3c7b63883160c01b6121d4565b6112d1676cc2c157ab3334c160c01b6121d4565b6112e567e393e7e036f8d21360c01b6121d4565b60025f9054906101000a900473ffffffffffffffffffffffffffffffffffffffff1673ffffffffffffffffffffffffffffffffffffffff1663e0876b44336040518263ffffffff1660e01b815260040161133f9190612cb4565b602060405180830381865afa15801561135a573d5f5f3e3d5ffd5b505050506040513d601f19601f8201168201806040525081019061137e9190612e49565b6113c857611396676d982a37f576ddd260c01b6121d4565b6040517fea8e4eb500000000000000000000000000000000000000000000000000000000815260040160405180910390fd5b6113dc676a468081e04cf48960c01b6121d4565b6113f067b74a01e5633b3a9460c01b6121d4565b611404674e8c8d117067098b60c01b6121d4565b5f60045f9054906101000a900473ffffffffffffffffffffffffffffffffffffffff1673ffffffffffffffffffffffffffffffffffffffff1663a9059cbb84846040518363ffffffff1660e01b8152600401611461929190613299565b6020604051808303815f875af115801561147d573d5f5f3e3d5ffd5b505050506040513d601f19601f820116820180604052508101906114a19190612e49565b90506114b7671c41e4475df1b01060c01b6121d4565b6114cb67eeeaf1feea3ff49960c01b6121d4565b80611516576114e46798bf1c796d8f462d60c01b6121d4565b6040517f90b8ec1800000000000000000000000000000000000000000000000000000000815260040160405180910390fd5b61152a67040b6bb50689394060c01b6121d4565b505050565b61154367993f275f20e5ba5260c01b6121d4565b61155767c80c3fade892a4ff60c01b6121d4565b61156b67887f9f4e5ad3565360c01b6121d4565b61157f6777f39990a66f97a460c01b6121d4565b60025f9054906101000a900473ffffffffffffffffffffffffffffffffffffffff1673ffffffffffffffffffffffffffffffffffffffff163373ffffffffffffffffffffffffffffffffffffffff1614611619576115e767a4b06a75fe0d725960c01b6121d4565b6040517fea8e4eb500000000000000000000000000000000000000000000000000000000815260040160405180910390fd5b61162d675c75548e65589c5c60c01b6121d4565b61164167d23a8063f5095f3d60c01b6121d4565b611655675d9561f707df594660c01b6121d4565b61166967e0415f93cd2c7e7f60c01b6121d4565b61167d67c9ac6109c08a6f1860c01b6121d4565b61169167ce861a48e981d2ee60c01b6121d4565b5f73ffffffffffffffffffffffffffffffffffffffff168273ffffffffffffffffffffffffffffffffffffffff161480156116dc57506116db6774d2882fce6c2b1460c01b6128a7565b5b8061172e57505f73ffffffffffffffffffffffffffffffffffffffff168173ffffffffffffffffffffffffffffffffffffffff1614801561172d575061172c6747ff3cbea1c6437260c01b6128a7565b5b5b15611779576117476777be1f030057184160c01b6121d4565b6040517fd92e233d00000000000000000000000000000000000000000000000000000000815260040160405180910390fd5b61178d6769e73ab3343e2ae060c01b6121d4565b6117a167304c2e5b8efe588860c01b6121d4565b8060055f8473ffffffffffffffffffffffffffffffffffffffff1673ffffffffffffffffffffffffffffffffffffffff1681526020019081526020015f205f6101000a81548173ffffffffffffffffffffffffffffffffffffffff021916908373ffffffffffffffffffffffffffffffffffffffff1602179055506118306728ff4254da77d9dd60c01b6121d4565b611844676469eeebae4b616960c01b6121d4565b8073ffffffffffffffffffffffffffffffffffffffff168273ffffffffffffffffffffffffffffffffffffffff167f2f2727c7b3d9ee55de5c114f0cb7997ac7251a4cbfca4f2b2dc6969d86cce4f460405160405180910390a35050565b60015f9054906101000a900473ffffffffffffffffffffffffffffffffffffffff1681565b5f60606118de67a7a7815b6027658e60c01b6121d4565b6118f2679bf0d37d37418d1060c01b6121d4565b6119066753d86807fe8f1def60c01b6121d4565b5f60035f9054906101000a900473ffffffffffffffffffffffffffffffffffffffff1673ffffffffffffffffffffffffffffffffffffffff166314b19c5a6040518163ffffffff1660e01b8152600401602060405180830381865afa158015611971573d5f5f3e3d5ffd5b505050506040513d601f19601f820116820180604052508101906119959190612f2d565b90506119ab67cb8b42b034054d5360c01b6121d4565b6119bf67ebb4839c5b4a64c660c01b6121d4565b60065481118015611a5a575060025f9054906101000a900473ffffffffffffffffffffffffffffffffffffffff1673ffffffffffffffffffffffffffffffffffffffff1663edcf9c1f6040518163ffffffff1660e01b8152600401602060405180830381865afa158015611a35573d5f5f3e3d5ffd5b505050506040513d601f19601f82011682018060405250810190611a599190612e49565b5b15611ac457611a73676c5d3fc08118708260c01b6121d4565b611a8767d27648120eea146760c01b6121d4565b60019250611a9f672676e5e9c7f14b8f60c01b6121d4565b604051602001611aae9061331a565b6040516020818303038152906040529150611b15565b611ad8676ac74f95f85cff8860c01b6121d4565b611aec67b57fef1012e11d3d60c01b6121d4565b5f9250611b03673fc9be62d6fb708260c01b6121d4565b60405180602001604052805f81525091505b509250929050565b611b256121d7565b611b2e5f6128b1565b565b60045f9054906101000a900473ffffffffffffffffffffffffffffffffffffffff1681565b60025f9054906101000a900473ffffffffffffffffffffffffffffffffffffffff1681565b611b8e6766996f5e8902cc5360c01b6121d4565b611ba267c80c3fade892a4ff60c01b6121d4565b611bb667887f9f4e5ad3565360c01b6121d4565b611bca6777f39990a66f97a460c01b6121d4565b60025f9054906101000a900473ffffffffffffffffffffffffffffffffffffffff1673ffffffffffffffffffffffffffffffffffffffff163373ffffffffffffffffffffffffffffffffffffffff1614611c6457611c3267a4b06a75fe0d725960c01b6121d4565b6040517fea8e4eb500000000000000000000000000000000000000000000000000000000815260040160405180910390fd5b611c78675c75548e65589c5c60c01b6121d4565b611c8c67d23a8063f5095f3d60c01b6121d4565b611ca067a6bbdf79bec96b0460c01b6121d4565b611cb467cb656cb89ce17e7560c01b6121d4565b611cc867cb7e04782056064560c01b6121d4565b611cdc67ff8d066fcc6d0c9960c01b6121d4565b5f73ffffffffffffffffffffffffffffffffffffffff168173ffffffffffffffffffffffffffffffffffffffff1603611d5557611d236775e3636f6d04eee960c01b6121d4565b6040517fd92e233d00000000000000000000000000000000000000000000000000000000815260040160405180910390fd5b611d69674fea2f409545a3d760c01b6121d4565b611d7d6738937d9184ffcb2e60c01b6121d4565b60055f8273ffffffffffffffffffffffffffffffffffffffff1673ffffffffffffffffffffffffffffffffffffffff1681526020019081526020015f205f6101000a81549073ffffffffffffffffffffffffffffffffffffffff0219169055611df06704d26b4d62ffb74160c01b6121d4565b611e046706853675f4a9f8db60c01b6121d4565b5f73ffffffffffffffffffffffffffffffffffffffff168173ffffffffffffffffffffffffffffffffffffffff167f2f2727c7b3d9ee55de5c114f0cb7997ac7251a4cbfca4f2b2dc6969d86cce4f460405160405180910390a350565b5f5f5f9054906101000a900473ffffffffffffffffffffffffffffffffffffffff16905090565b611e9c67960dcfa5c31487e060c01b6121d4565b611eb067068efd6228415ca960c01b6121d4565b611ec467897349085abeeb8b60c01b6121d4565b60025f9054906101000a900473ffffffffffffffffffffffffffffffffffffffff1673ffffffffffffffffffffffffffffffffffffffff1663e0876b44336040518263ffffffff1660e01b8152600401611f1e9190612cb4565b602060405180830381865afa158015611f39573d5f5f3e3d5ffd5b505050506040513d601f19601f82011682018060405250810190611f5d9190612e49565b611fa757611f7567a866bead78f6d32360c01b6121d4565b6040517fea8e4eb500000000000000000000000000000000000000000000000000000000815260040160405180910390fd5b611fbb6787042161517aaa7060c01b6121d4565b611fcf67e288bb63c93435c860c01b6121d4565b611fe367c5d44cbbbc66776660c01b6121d4565b5f339050611ffb6775e659507a0e21e160c01b6121d4565b61200f67eeaf3820596a3ae360c01b6121d4565b5f8173ffffffffffffffffffffffffffffffffffffffff1663a9059cbb85856040518363ffffffff1660e01b815260040161204b929190613299565b6020604051808303815f875af1158015612067573d5f5f3e3d5ffd5b505050506040513d601f19601f8201168201806040525081019061208b9190612e49565b90506120a16722f71de1c344a32460c01b6121d4565b6120b5673378b4b24fd2b3da60c01b6121d4565b80612100576120ce674bb55cc234ffaa5860c01b6121d4565b6040517f90b8ec1800000000000000000000000000000000000000000000000000000000815260040160405180910390fd5b61211467dfc73fc2ff55b01560c01b6121d4565b50505050565b6005602052805f5260405f205f915054906101000a900473ffffffffffffffffffffffffffffffffffffffff1681565b60065481565b6121586121d7565b5f73ffffffffffffffffffffffffffffffffffffffff168173ffffffffffffffffffffffffffffffffffffffff16036121c8575f6040517f1e4fbdf70000000000000000000000000000000000000000000000000000000081526004016121bf9190612cb4565b60405180910390fd5b6121d1816128b1565b50565b50565b6121df612972565b73ffffffffffffffffffffffffffffffffffffffff166121fd611e61565b73ffffffffffffffffffffffffffffffffffffffff161461225c57612220612972565b6040517f118cdaa70000000000000000000000000000000000000000000000000000000081526004016122539190612cb4565b60405180910390fd5b565b61227267ff295366a820f7e760c01b6121d4565b612286677d5d7d571ad2c84160c01b6121d4565b61229a67b0d1d26150a7a76760c01b6121d4565b5f60055f8473ffffffffffffffffffffffffffffffffffffffff1673ffffffffffffffffffffffffffffffffffffffff1681526020019081526020015f205f9054906101000a900473ffffffffffffffffffffffffffffffffffffffff16905061230e67d51298100350abc160c01b6121d4565b612322677b912237d6658d6360c01b6121d4565b5f73ffffffffffffffffffffffffffffffffffffffff168173ffffffffffffffffffffffffffffffffffffffff160361239b57612369671b3e6901cc4ddfd760c01b6121d4565b6040517fa091855e00000000000000000000000000000000000000000000000000000000815260040160405180910390fd5b6123af67bfe518c12ef2d20760c01b6121d4565b6123c367ddecf56d8fcb1fe360c01b6121d4565b6123d767f5dd2f4bbdc9290760c01b6121d4565b5f8373ffffffffffffffffffffffffffffffffffffffff1663095ea7b383856040518363ffffffff1660e01b8152600401612413929190613299565b6020604051808303815f875af115801561242f573d5f5f3e3d5ffd5b505050506040513d601f19601f820116820180604052508101906124539190612e49565b9050612469679468cc0114fde12660c01b6121d4565b61247d6723c9c420d578c11c60c01b6121d4565b806124c85761249667c8983681e549774660c01b6121d4565b6040517f90b8ec1800000000000000000000000000000000000000000000000000000000815260040160405180910390fd5b6124dc67084658b62fbd7d0a60c01b6121d4565b6124f067a4872a41048d2be760c01b6121d4565b6125046778515a05e519032f60c01b6121d4565b8173ffffffffffffffffffffffffffffffffffffffff16636c197ff585856040518363ffffffff1660e01b815260040161253f929190613299565b5f604051808303815f87803b158015612556575f5ffd5b505af1158015612568573d5f5f3e3d5ffd5b5050505050505050565b61258667cde23a0e1351120860c01b6121d4565b61259a676507b808da82a62c60c01b6121d4565b6125ae67d70129b1af2347a460c01b6121d4565b5f60055f8473ffffffffffffffffffffffffffffffffffffffff1673ffffffffffffffffffffffffffffffffffffffff1681526020019081526020015f205f9054906101000a900473ffffffffffffffffffffffffffffffffffffffff169050612622679d5b9b6e1c298e2860c01b6121d4565b612636672c4c2dba6191701d60c01b6121d4565b5f73ffffffffffffffffffffffffffffffffffffffff168173ffffffffffffffffffffffffffffffffffffffff16036126af5761267d67a9fdb625b1e98d3e60c01b6121d4565b6040517fa091855e00000000000000000000000000000000000000000000000000000000815260040160405180910390fd5b6126c3671b5d19f3b173a28d60c01b6121d4565b6126d76709d1411b67b3462b60c01b6121d4565b6126eb671975229871124b7860c01b6121d4565b5f60045f9054906101000a900473ffffffffffffffffffffffffffffffffffffffff1673ffffffffffffffffffffffffffffffffffffffff1663095ea7b383856040518363ffffffff1660e01b8152600401612748929190613299565b6020604051808303815f875af1158015612764573d5f5f3e3d5ffd5b505050506040513d601f19601f820116820180604052508101906127889190612e49565b905061279e6705e874e841ebdc2a60c01b6121d4565b6127b267d6d47d3d699f327d60c01b6121d4565b806127fd576127cb67cdd127b5872fe0e860c01b6121d4565b6040517f90b8ec1800000000000000000000000000000000000000000000000000000000815260040160405180910390fd5b612811674ae0b901de0039de60c01b6121d4565b61282567da7d99a3ecfed14860c01b6121d4565b612839675983eaf96767f22e60c01b6121d4565b8173ffffffffffffffffffffffffffffffffffffffff1663cce7ec1385856040518363ffffffff1660e01b8152600401612874929190613299565b5f604051808303815f87803b15801561288b575f5ffd5b505af115801561289d573d5f5f3e3d5ffd5b5050505050505050565b5f60019050919050565b5f5f5f9054906101000a900473ffffffffffffffffffffffffffffffffffffffff169050815f5f6101000a81548173ffffffffffffffffffffffffffffffffffffffff021916908373ffffffffffffffffffffffffffffffffffffffff1602179055508173ffffffffffffffffffffffffffffffffffffffff168173ffffffffffffffffffffffffffffffffffffffff167f8be0079c531659141344cd1fd0a4f28419497f9722a3daafe3b4186f6b6457e060405160405180910390a35050565b5f33905090565b7f4e487b71000000000000000000000000000000000000000000000000000000005f52602160045260245ffd5b600481106129b7576129b6612979565b5b50565b5f8190506129c7826129a6565b919050565b5f6129d6826129ba565b9050919050565b6129e6816129cc565b82525050565b5f6020820190506129ff5f8301846129dd565b92915050565b5f604051905090565b5f5ffd5b5f5ffd5b5f73ffffffffffffffffffffffffffffffffffffffff82169050919050565b5f612a3f82612a16565b9050919050565b612a4f81612a35565b8114612a59575f5ffd5b50565b5f81359050612a6a81612a46565b92915050565b5f60208284031215612a8557612a84612a0e565b5b5f612a9284828501612a5c565b91505092915050565b5f819050919050565b5f612abe612ab9612ab484612a16565b612a9b565b612a16565b9050919050565b5f612acf82612aa4565b9050919050565b5f612ae082612ac5565b9050919050565b612af081612ad6565b82525050565b5f602082019050612b095f830184612ae7565b92915050565b5f5ffd5b5f5ffd5b5f5ffd5b5f5f83601f840112612b3057612b2f612b0f565b5b8235905067ffffffffffffffff811115612b4d57612b4c612b13565b5b602083019150836001820283011115612b6957612b68612b17565b5b9250929050565b5f5f60208385031215612b8657612b85612a0e565b5b5f83013567ffffffffffffffff811115612ba357612ba2612a12565b5b612baf85828601612b1b565b92509250509250929050565b5f819050919050565b612bcd81612bbb565b8114612bd7575f5ffd5b50565b5f81359050612be881612bc4565b92915050565b5f5f60408385031215612c0457612c03612a0e565b5b5f612c1185828601612a5c565b9250506020612c2285828601612bda565b9150509250929050565b5f612c3682612a35565b9050919050565b612c4681612c2c565b8114612c50575f5ffd5b50565b5f81359050612c6181612c3d565b92915050565b5f5f60408385031215612c7d57612c7c612a0e565b5b5f612c8a85828601612a5c565b9250506020612c9b85828601612c53565b9150509250929050565b612cae81612a35565b82525050565b5f602082019050612cc75f830184612ca5565b92915050565b5f8115159050919050565b612ce181612ccd565b82525050565b5f81519050919050565b5f82825260208201905092915050565b8281835e5f83830152505050565b5f601f19601f8301169050919050565b5f612d2982612ce7565b612d338185612cf1565b9350612d43818560208601612d01565b612d4c81612d0f565b840191505092915050565b5f604082019050612d6a5f830185612cd8565b8181036020830152612d7c8184612d1f565b90509392505050565b5f612d8f82612ac5565b9050919050565b612d9f81612d85565b82525050565b5f602082019050612db85f830184612d96565b92915050565b5f612dc882612ac5565b9050919050565b612dd881612dbe565b82525050565b5f602082019050612df15f830184612dcf565b92915050565b612e0081612bbb565b82525050565b5f602082019050612e195f830184612df7565b92915050565b612e2881612ccd565b8114612e32575f5ffd5b50565b5f81519050612e4381612e1f565b92915050565b5f60208284031215612e5e57612e5d612a0e565b5b5f612e6b84828501612e35565b91505092915050565b5f81519050612e8281612a46565b92915050565b5f60208284031215612e9d57612e9c612a0e565b5b5f612eaa84828501612e74565b91505092915050565b5f612ebd82612a35565b9050919050565b612ecd81612eb3565b8114612ed7575f5ffd5b50565b5f81519050612ee881612ec4565b92915050565b5f60208284031215612f0357612f02612a0e565b5b5f612f1084828501612eda565b91505092915050565b5f81519050612f2781612bc4565b92915050565b5f60208284031215612f4257612f41612a0e565b5b5f612f4f84828501612f19565b91505092915050565b7f4e487b71000000000000000000000000000000000000000000000000000000005f52604160045260245ffd5b612f8e82612d0f565b810181811067ffffffffffffffff82111715612fad57612fac612f58565b5b80604052505050565b5f612fbf612a05565b9050612fcb8282612f85565b919050565b5f67ffffffffffffffff821115612fea57612fe9612f58565b5b602082029050602081019050919050565b5f61300d61300884612fd0565b612fb6565b905080838252602082019050602084028301858111156130305761302f612b17565b5b835b8181101561305957806130458882612e74565b845260208401935050602081019050613032565b5050509392505050565b5f82601f83011261307757613076612b0f565b5b8151613087848260208601612ffb565b91505092915050565b5f67ffffffffffffffff8211156130aa576130a9612f58565b5b602082029050602081019050919050565b5f6130cd6130c884613090565b612fb6565b905080838252602082019050602084028301858111156130f0576130ef612b17565b5b835b8181101561311957806131058882612f19565b8452602084019350506020810190506130f2565b5050509392505050565b5f82601f83011261313757613136612b0f565b5b81516131478482602086016130bb565b91505092915050565b5f5f6040838503121561316657613165612a0e565b5b5f83015167ffffffffffffffff81111561318357613182612a12565b5b61318f85828601613063565b925050602083015167ffffffffffffffff8111156131b0576131af612a12565b5b6131bc85828601613123565b9150509250929050565b7f4e487b71000000000000000000000000000000000000000000000000000000005f52603260045260245ffd5b6002811061320457613203612979565b5b50565b5f819050613214826131f3565b919050565b5f61322382613207565b9050919050565b61323381613219565b82525050565b5f60208201905061324c5f83018461322a565b92915050565b5f6020828403121561326757613266612a0e565b5b5f82015167ffffffffffffffff81111561328457613283612a12565b5b61329084828501613063565b91505092915050565b5f6040820190506132ac5f830185612ca5565b6132b96020830184612df7565b9392505050565b5f82825260208201905092915050565b7f73746172740000000000000000000000000000000000000000000000000000005f82015250565b5f6133046005836132c0565b915061330f826132d0565b602082019050919050565b5f6020820190508181035f830152613331816132f8565b905091905056fea26469706673582212207638e855366bae79311f000e71f609c0ae487041cc173440e14d275d7e6080ea64736f6c634300081c0033",
  "linkReferences": {},
  "deployedLinkReferences": {}
}