{
  "_format": "hh-sol-artifact-1",
  "contractName": "OracleRegistry",
  "sourceName": "contracts/oracles/OracleRegistry.sol",
  "abi": [
    {
      "inputs": [],
      "name": "AdapterNotSet",
      "type": "error"
    },
    {
      "inputs": [
        {
          "internalType": "address",
          "name": "target",
          "type": "address"
        }
      ],
      "name": "AddressEmptyCode",
      "type": "error"
    },
    {
      "inputs": [
        {
          "internalType": "address",
          "name": "implementation",
          "type": "address"
        }
      ],
      "name": "ERC1967InvalidImplementation",
      "type": "error"
    },
    {
      "inputs": [],
      "name": "ERC1967NonPayable",
      "type": "error"
    },
    {
      "inputs": [],
      "name": "FailedCall",
      "type": "error"
    },
    {
      "inputs": [],
      "name": "InvalidInitialization",
      "type": "error"
    },
    {
      "inputs": [],
      "name": "NotInitializing",
      "type": "error"
    },
    {
      "inputs": [
        {
          "internalType": "address",
          "name": "owner",
          "type": "address"
        }
      ],
      "name": "OwnableInvalidOwner",
      "type": "error"
    },
    {
      "inputs": [
        {
          "internalType": "address",
          "name": "account",
          "type": "address"
        }
      ],
      "name": "OwnableUnauthorizedAccount",
      "type": "error"
    },
    {
      "inputs": [],
      "name": "UUPSUnauthorizedCallContext",
      "type": "error"
    },
    {
      "inputs": [
        {
          "internalType": "bytes32",
          "name": "slot",
          "type": "bytes32"
        }
      ],
      "name": "UUPSUnsupportedProxiableUUID",
      "type": "error"
    },
    {
      "inputs": [],
      "name": "ZeroAddress",
      "type": "error"
    },
    {
      "anonymous": false,
      "inputs": [
        {
          "indexed": true,
          "internalType": "address",
          "name": "asset",
          "type": "address"
        },
        {
          "indexed": true,
          "internalType": "address",
          "name": "adapter",
          "type": "address"
        }
      ],
      "name": "AdapterSet",
      "type": "event"
    },
    {
      "anonymous": false,
      "inputs": [
        {
          "indexed": false,
          "internalType": "uint64",
          "name": "version",
          "type": "uint64"
        }
      ],
      "name": "Initialized",
      "type": "event"
    },
    {
      "anonymous": false,
      "inputs": [
        {
          "indexed": true,
          "internalType": "address",
          "name": "previousOwner",
          "type": "address"
        },
        {
          "indexed": true,
          "internalType": "address",
          "name": "newOwner",
          "type": "address"
        }
      ],
      "name": "OwnershipTransferStarted",
      "type": "event"
    },
    {
      "anonymous": false,
      "inputs": [
        {
          "indexed": true,
          "internalType": "address",
          "name": "previousOwner",
          "type": "address"
        },
        {
          "indexed": true,
          "internalType": "address",
          "name": "newOwner",
          "type": "address"
        }
      ],
      "name": "OwnershipTransferred",
      "type": "event"
    },
    {
      "anonymous": false,
      "inputs": [
        {
          "indexed": true,
          "internalType": "address",
          "name": "implementation",
          "type": "address"
        }
      ],
      "name": "Upgraded",
      "type": "event"
    },
    {
      "inputs": [],
      "name": "UPGRADE_INTERFACE_VERSION",
      "outputs": [
        {
          "internalType": "string",
          "name": "",
          "type": "string"
        }
      ],
      "stateMutability": "view",
      "type": "function"
    },
    {
      "inputs": [],
      "name": "acceptOwnership",
      "outputs": [],
      "stateMutability": "nonpayable",
      "type": "function"
    },
    {
      "inputs": [
        {
          "internalType": "address",
          "name": "",
          "type": "address"
        }
      ],
      "name": "adapterOf",
      "outputs": [
        {
          "internalType": "contract IPriceAdapter",
          "name": "",
          "type": "address"
        }
      ],
      "stateMutability": "view",
      "type": "function"
    },
    {
      "inputs": [
        {
          "internalType": "address",
          "name": "asset",
          "type": "address"
        }
      ],
      "name": "getPrice",
      "outputs": [
        {
          "internalType": "uint256",
          "name": "",
          "type": "uint256"
        }
      ],
      "stateMutability": "view",
      "type": "function"
    },
    {
      "inputs": [
        {
          "internalType": "address",
          "name": "initialOwner",
          "type": "address"
        }
      ],
      "name": "initialize",
      "outputs": [],
      "stateMutability": "nonpayable",
      "type": "function"
    },
    {
      "inputs": [],
      "name": "owner",
      "outputs": [
        {
          "internalType": "address",
          "name": "",
          "type": "address"
        }
      ],
      "stateMutability": "view",
      "type": "function"
    },
    {
      "inputs": [],
      "name": "pendingOwner",
      "outputs": [
        {
          "internalType": "address",
          "name": "",
          "type": "address"
        }
      ],
      "stateMutability": "view",
      "type": "function"
    },
    {
      "inputs": [],
      "name": "proxiableUUID",
      "outputs": [
        {
          "internalType": "bytes32",
          "name": "",
          "type": "bytes32"
        }
      ],
      "stateMutability": "view",
      "type": "function"
    },
    {
      "inputs": [],
      "name": "renounceOwnership",
      "outputs": [],
      "stateMutability": "nonpayable",
      "type": "function"
    },
    {
      "inputs": [
        {
          "internalType": "address",
          "name": "asset",
          "type": "address"
        },
        {
          "internalType": "contract IPriceAdapter",
          "name": "adapter",
          "type": "address"
        }
      ],
      "name": "setAdapter",
      "outputs": [],
      "stateMutability": "nonpayable",
      "type": "function"
    },
    {
      "inputs": [
        {
          "internalType": "address",
          "name": "newOwner",
          "type": "address"
        }
      ],
      "name": "transferOwnership",
      "outputs": [],
      "stateMutability": "nonpayable",
      "type": "function"
    },
    {
      "inputs": [
        {
          "internalType": "address",
          "name": "newImplementation",
          "type": "address"
        },
        {
          "internalType": "bytes",
          "name": "data",
          "type": "bytes"
        }
      ],
      "name": "upgradeToAndCall",
      "outputs": [],
      "stateMutability": "payable",
      "type": "function"
    }
  ],
  "bytecode": "0x60a0604052306080523480156012575f5ffd5b50608051610cfd6100395f395f818161062001528181610649015261078d0152610cfd5ff3fe6080604052600436106100a5575f3560e01c8063ad3cb1cc11610062578063ad3cb1cc14610158578063ba59b4ca14610195578063c2b7a3e6146101b4578063c4d66de8146101e8578063e30c397814610207578063f2fde38b1461021b575f5ffd5b806341976e09146100a95780634f1ef286146100db57806352d1902d146100f0578063715018a61461010457806379ba5097146101185780638da5cb5b1461012c575b5f5ffd5b3480156100b4575f5ffd5b506100c86100c3366004610b19565b61023a565b6040519081526020015b60405180910390f35b6100ee6100e9366004610b48565b6102e3565b005b3480156100fb575f5ffd5b506100c8610302565b34801561010f575f5ffd5b506100ee61031d565b348015610123575f5ffd5b506100ee610330565b348015610137575f5ffd5b5061014061037d565b6040516001600160a01b0390911681526020016100d2565b348015610163575f5ffd5b50610188604051806040016040528060058152602001640352e302e360dc1b81525081565b6040516100d29190610c0e565b3480156101a0575f5ffd5b506100ee6101af366004610c43565b6103b1565b3480156101bf575f5ffd5b506101406101ce366004610b19565b5f602081905290815260409020546001600160a01b031681565b3480156101f3575f5ffd5b506100ee610202366004610b19565b61044a565b348015610212575f5ffd5b50610140610568565b348015610226575f5ffd5b506100ee610235366004610b19565b610590565b6001600160a01b038082165f908152602081905260408120549091168061027457604051635048c2af60e11b815260040160405180910390fd5b6040516315d5220f60e31b81526001600160a01b03848116600483015282169063aea9107890602401602060405180830381865afa1580156102b8573d5f5f3e3d5ffd5b505050506040513d601f19601f820116820180604052508101906102dc9190610c7a565b9392505050565b6102eb610615565b6102f4826106b9565b6102fe82826106c1565b5050565b5f61030b610782565b505f516020610ca85f395f51905f5290565b6103256107cb565b61032e5f6107fd565b565b338061033a610568565b6001600160a01b0316146103715760405163118cdaa760e01b81526001600160a01b03821660048201526024015b60405180910390fd5b61037a816107fd565b50565b5f807f9016d09d72d40fdae2fd8ceac6b6234c7706214fd39c1cd1e609a0528c1993005b546001600160a01b031692915050565b6103b96107cb565b6001600160a01b03821615806103d657506001600160a01b038116155b156103f45760405163d92e233d60e01b815260040160405180910390fd5b6001600160a01b038281165f8181526020819052604080822080546001600160a01b0319169486169485179055517fe5e39617beb2a298b9fa1c3928582d9a96ba7ef7c920acd1117d1d415568670a9190a35050565b7ff0c57e16840df040f15088dc2f81fe391c3923bec73e23a9662efc9c229c6a008054600160401b810460ff16159067ffffffffffffffff165f8115801561048f5750825b90505f8267ffffffffffffffff1660011480156104ab5750303b155b9050811580156104b9575080155b156104d75760405163f92ee8a960e01b815260040160405180910390fd5b845467ffffffffffffffff19166001178555831561050157845460ff60401b1916600160401b1785555b61050a86610835565b610512610846565b61051a610846565b831561056057845460ff60401b19168555604051600181527fc7f505b2f371ae2175ee4913f4499e1f2633a7b5936321eed1cdaeb6115181d29060200160405180910390a15b505050505050565b5f807f237e158222e3e6968b72b9db0d8043aacf074ad9f650f0d1606b4d82ee432c006103a1565b6105986107cb565b7f237e158222e3e6968b72b9db0d8043aacf074ad9f650f0d1606b4d82ee432c0080546001600160a01b0319166001600160a01b03831690811782556105dc61037d565b6001600160a01b03167f38d16b8cac22d99fc7c124b9cd0de2d3fa1faef420bfe791d8c362d765e2270060405160405180910390a35050565b306001600160a01b037f000000000000000000000000000000000000000000000000000000000000000016148061069b57507f00000000000000000000000000000000000000000000000000000000000000006001600160a01b031661068f5f516020610ca85f395f51905f52546001600160a01b031690565b6001600160a01b031614155b1561032e5760405163703e46dd60e11b815260040160405180910390fd5b61037a6107cb565b816001600160a01b03166352d1902d6040518163ffffffff1660e01b8152600401602060405180830381865afa92505050801561071b575060408051601f3d908101601f1916820190925261071891810190610c7a565b60015b61074357604051634c9c8ce360e01b81526001600160a01b0383166004820152602401610368565b5f516020610ca85f395f51905f52811461077357604051632a87526960e21b815260048101829052602401610368565b61077d838361084e565b505050565b306001600160a01b037f0000000000000000000000000000000000000000000000000000000000000000161461032e5760405163703e46dd60e11b815260040160405180910390fd5b336107d461037d565b6001600160a01b03161461032e5760405163118cdaa760e01b8152336004820152602401610368565b7f237e158222e3e6968b72b9db0d8043aacf074ad9f650f0d1606b4d82ee432c0080546001600160a01b03191681556102fe826108a3565b61083d610913565b61037a8161095c565b61032e610913565b6108578261098d565b6040516001600160a01b038316907fbc7cd75a20ee27fd9adebab32041f755214dbc6bffa90cc0225b39da2e5c2d3b905f90a280511561089b5761077d82826109f0565b6102fe610a62565b7f9016d09d72d40fdae2fd8ceac6b6234c7706214fd39c1cd1e609a0528c19930080546001600160a01b031981166001600160a01b03848116918217845560405192169182907f8be0079c531659141344cd1fd0a4f28419497f9722a3daafe3b4186f6b6457e0905f90a3505050565b7ff0c57e16840df040f15088dc2f81fe391c3923bec73e23a9662efc9c229c6a0054600160401b900460ff1661032e57604051631afcd79f60e31b815260040160405180910390fd5b610964610913565b6001600160a01b03811661037157604051631e4fbdf760e01b81525f6004820152602401610368565b806001600160a01b03163b5f036109c257604051634c9c8ce360e01b81526001600160a01b0382166004820152602401610368565b5f516020610ca85f395f51905f5280546001600160a01b0319166001600160a01b0392909216919091179055565b60605f5f846001600160a01b031684604051610a0c9190610c91565b5f60405180830381855af49150503d805f8114610a44576040519150601f19603f3d011682016040523d82523d5f602084013e610a49565b606091505b5091509150610a59858383610a81565b95945050505050565b341561032e5760405163b398979f60e01b815260040160405180910390fd5b606082610a9657610a9182610add565b6102dc565b8151158015610aad57506001600160a01b0384163b155b15610ad657604051639996b31560e01b81526001600160a01b0385166004820152602401610368565b5092915050565b805115610aec57805160208201fd5b60405163d6bda27560e01b815260040160405180910390fd5b6001600160a01b038116811461037a575f5ffd5b5f60208284031215610b29575f5ffd5b81356102dc81610b05565b634e487b7160e01b5f52604160045260245ffd5b5f5f60408385031215610b59575f5ffd5b8235610b6481610b05565b9150602083013567ffffffffffffffff811115610b7f575f5ffd5b8301601f81018513610b8f575f5ffd5b803567ffffffffffffffff811115610ba957610ba9610b34565b604051601f8201601f19908116603f0116810167ffffffffffffffff81118282101715610bd857610bd8610b34565b604052818152828201602001871015610bef575f5ffd5b816020840160208301375f602083830101528093505050509250929050565b602081525f82518060208401528060208501604085015e5f604082850101526040601f19601f83011684010191505092915050565b5f5f60408385031215610c54575f5ffd5b8235610c5f81610b05565b91506020830135610c6f81610b05565b809150509250929050565b5f60208284031215610c8a575f5ffd5b5051919050565b5f82518060208501845e5f92019182525091905056fe360894a13ba1a3210667c828492db98dca3e2076cc3735a920a3ca505d382bbca264697066735822122039e87c3da46f46bc4986a8b5217d9c68e137661366dca8b5fe056b48647b68cd64736f6c634300081c0033",
  "linkReferences": {},
  "deployedLinkReferences": {}
}