{
  "_format": "hh-sol-artifact-1",
  "contractName": "OracleRegistry",
  "sourceName": "contracts/oracles/OracleRegistry.sol",
  "abi": [
    {
      "inputs": [],
      "name": "AdapterNotSet",
      "type": "error"
    },
    {
      "inputs": [
        {
          "internalType": "address",
          "name": "target",
          "type": "address"
        }
      ],
      "name": "AddressEmptyCode",
      "type": "error"
    },
    {
      "inputs": [
        {
          "internalType": "address",
          "name": "implementation",
          "type": "address"
        }
      ],
      "name": "ERC1967InvalidImplementation",
      "type": "error"
    },
    {
      "inputs": [],
      "name": "ERC1967NonPayable",
      "type": "error"
    },
    {
      "inputs": [],
      "name": "FailedCall",
      "type": "error"
    },
    {
      "inputs": [],
      "name": "InvalidInitialization",
      "type": "error"
    },
    {
      "inputs": [],
      "name": "NotInitializing",
      "type": "error"
    },
    {
      "inputs": [
        {
          "internalType": "address",
          "name": "owner",
          "type": "address"
        }
      ],
      "name": "OwnableInvalidOwner",
      "type": "error"
    },
    {
      "inputs": [
        {
          "internalType": "address",
          "name": "account",
          "type": "address"
        }
      ],
      "name": "OwnableUnauthorizedAccount",
      "type": "error"
    },
    {
      "inputs": [],
      "name": "UUPSUnauthorizedCallContext",
      "type": "error"
    },
    {
      "inputs": [
        {
          "internalType": "bytes32",
          "name": "slot",
          "type": "bytes32"
        }
      ],
      "name": "UUPSUnsupportedProxiableUUID",
      "type": "error"
    },
    {
      "inputs": [],
      "name": "ZeroAddress",
      "type": "error"
    },
    {
      "anonymous": false,
      "inputs": [
        {
          "indexed": true,
          "internalType": "address",
          "name": "asset",
          "type": "address"
        },
        {
          "indexed": true,
          "internalType": "address",
          "name": "adapter",
          "type": "address"
        }
      ],
      "name": "AdapterSet",
      "type": "event"
    },
    {
      "anonymous": false,
      "inputs": [
        {
          "indexed": false,
          "internalType": "uint64",
          "name": "version",
          "type": "uint64"
        }
      ],
      "name": "Initialized",
      "type": "event"
    },
    {
      "anonymous": false,
      "inputs": [
        {
          "indexed": true,
          "internalType": "address",
          "name": "previousOwner",
          "type": "address"
        },
        {
          "indexed": true,
          "internalType": "address",
          "name": "newOwner",
          "type": "address"
        }
      ],
      "name": "OwnershipTransferStarted",
      "type": "event"
    },
    {
      "anonymous": false,
      "inputs": [
        {
          "indexed": true,
          "internalType": "address",
          "name": "previousOwner",
          "type": "address"
        },
        {
          "indexed": true,
          "internalType": "address",
          "name": "newOwner",
          "type": "address"
        }
      ],
      "name": "OwnershipTransferred",
      "type": "event"
    },
    {
      "anonymous": false,
      "inputs": [
        {
          "indexed": true,
          "internalType": "address",
          "name": "implementation",
          "type": "address"
        }
      ],
      "name": "Upgraded",
      "type": "event"
    },
    {
      "inputs": [],
      "name": "UPGRADE_INTERFACE_VERSION",
      "outputs": [
        {
          "internalType": "string",
          "name": "",
          "type": "string"
        }
      ],
      "stateMutability": "view",
      "type": "function"
    },
    {
      "inputs": [],
      "name": "acceptOwnership",
      "outputs": [],
      "stateMutability": "nonpayable",
      "type": "function"
    },
    {
      "inputs": [
        {
          "internalType": "address",
          "name": "",
          "type": "address"
        }
      ],
      "name": "adapterOf",
      "outputs": [
        {
          "internalType": "contract IPriceAdapter",
          "name": "",
          "type": "address"
        }
      ],
      "stateMutability": "view",
      "type": "function"
    },
    {
      "inputs": [
        {
          "internalType": "address",
          "name": "asset",
          "type": "address"
        }
      ],
      "name": "getPrice",
      "outputs": [
        {
          "internalType": "uint256",
          "name": "",
          "type": "uint256"
        }
      ],
      "stateMutability": "view",
      "type": "function"
    },
    {
      "inputs": [
        {
          "internalType": "address",
          "name": "initialOwner",
          "type": "address"
        }
      ],
      "name": "initialize",
      "outputs": [],
      "stateMutability": "nonpayable",
      "type": "function"
    },
    {
      "inputs": [],
      "name": "owner",
      "outputs": [
        {
          "internalType": "address",
          "name": "",
          "type": "address"
        }
      ],
      "stateMutability": "view",
      "type": "function"
    },
    {
      "inputs": [],
      "name": "pendingOwner",
      "outputs": [
        {
          "internalType": "address",
          "name": "",
          "type": "address"
        }
      ],
      "stateMutability": "view",
      "type": "function"
    },
    {
      "inputs": [],
      "name": "proxiableUUID",
      "outputs": [
        {
          "internalType": "bytes32",
          "name": "",
          "type": "bytes32"
        }
      ],
      "stateMutability": "view",
      "type": "function"
    },
    {
      "inputs": [],
      "name": "renounceOwnership",
      "outputs": [],
      "stateMutability": "nonpayable",
      "type": "function"
    },
    {
      "inputs": [
        {
          "internalType": "address",
          "name": "asset",
          "type": "address"
        },
        {
          "internalType": "contract IPriceAdapter",
          "name": "adapter",
          "type": "address"
        }
      ],
      "name": "setAdapter",
      "outputs": [],
      "stateMutability": "nonpayable",
      "type": "function"
    },
    {
      "inputs": [
        {
          "internalType": "address",
          "name": "newOwner",
          "type": "address"
        }
      ],
      "name": "transferOwnership",
      "outputs": [],
      "stateMutability": "nonpayable",
      "type": "function"
    },
    {
      "inputs": [
        {
          "internalType": "address",
          "name": "newImplementation",
          "type": "address"
        },
        {
          "internalType": "bytes",
          "name": "data",
          "type": "bytes"
        }
      ],
      "name": "upgradeToAndCall",
      "outputs": [],
      "stateMutability": "payable",
      "type": "function"
    }
  ],
  "bytecode": "0x60a06040523073ffffffffffffffffffffffffffffffffffffffff1660809073ffffffffffffffffffffffffffffffffffffffff168152503480156041575f5ffd5b50608051611ab46100685f395f8181610bc501528181610c1a0152610e100152611ab45ff3fe6080604052600436106100a6575f3560e01c8063ad3cb1cc11610063578063ad3cb1cc14610182578063ba59b4ca146101ac578063c2b7a3e6146101d4578063c4d66de814610210578063e30c397814610238578063f2fde38b14610262576100a6565b806341976e09146100aa5780634f1ef286146100e657806352d1902d14610102578063715018a61461012c57806379ba5097146101425780638da5cb5b14610158575b5f5ffd5b3480156100b5575f5ffd5b506100d060048036038101906100cb919061155d565b61028a565b6040516100dd91906115a0565b60405180910390f35b61010060048036038101906100fb91906116f5565b610483565b005b34801561010d575f5ffd5b506101166104a2565b6040516101239190611767565b60405180910390f35b348015610137575f5ffd5b506101406104d3565b005b34801561014d575f5ffd5b506101566104e6565b005b348015610163575f5ffd5b5061016c610574565b604051610179919061178f565b60405180910390f35b34801561018d575f5ffd5b506101966105a9565b6040516101a39190611808565b60405180910390f35b3480156101b7575f5ffd5b506101d260048036038101906101cd9190611863565b6105e2565b005b3480156101df575f5ffd5b506101fa60048036038101906101f5919061155d565b61085e565b60405161020791906118fc565b60405180910390f35b34801561021b575f5ffd5b506102366004803603810190610231919061155d565b61088d565b005b348015610243575f5ffd5b5061024c610ad2565b604051610259919061178f565b60405180910390f35b34801561026d575f5ffd5b506102886004803603810190610283919061155d565b610b07565b005b5f61029f67b49d4ad46be6f43b60c01b610bc0565b6102b367f86ac8763ab4ee7b60c01b610bc0565b6102c767eab27127a0ad6c0160c01b610bc0565b5f5f5f8473ffffffffffffffffffffffffffffffffffffffff1673ffffffffffffffffffffffffffffffffffffffff1681526020019081526020015f205f9054906101000a900473ffffffffffffffffffffffffffffffffffffffff16905061033a673784a687ebb635e860c01b610bc0565b61034e67ed6fcb143da015f360c01b610bc0565b5f73ffffffffffffffffffffffffffffffffffffffff168173ffffffffffffffffffffffffffffffffffffffff16036103c75761039567a589af3e5416d56d60c01b610bc0565b6040517fa091855e00000000000000000000000000000000000000000000000000000000815260040160405180910390fd5b6103db67705e933ed3b4d5bd60c01b610bc0565b6103ef671077901be1a96f3f60c01b610bc0565b610403675584b5cdf4e1be5160c01b610bc0565b8073ffffffffffffffffffffffffffffffffffffffff1663aea91078846040518263ffffffff1660e01b815260040161043c919061178f565b602060405180830381865afa158015610457573d5f5f3e3d5ffd5b505050506040513d601f19601f8201168201806040525081019061047b919061193f565b915050919050565b61048b610bc3565b61049482610ca9565b61049e8282610cf0565b5050565b5f6104ab610e0e565b7f360894a13ba1a3210667c828492db98dca3e2076cc3735a920a3ca505d382bbc5f1b905090565b6104db610e95565b6104e45f610f1c565b565b5f6104ef610f59565b90508073ffffffffffffffffffffffffffffffffffffffff16610510610ad2565b73ffffffffffffffffffffffffffffffffffffffff161461056857806040517f118cdaa700000000000000000000000000000000000000000000000000000000815260040161055f919061178f565b60405180910390fd5b61057181610f1c565b50565b5f5f61057e610f60565b9050805f015f9054906101000a900473ffffffffffffffffffffffffffffffffffffffff1691505090565b6040518060400160405280600581526020017f352e302e3000000000000000000000000000000000000000000000000000000081525081565b6105f667aacdaab38e74b90860c01b610bc0565b6105fe610e95565b61061267a43fe22a1938fe6a60c01b610bc0565b610626678266aed7d33dce0360c01b610bc0565b61063a6721be5d2b9fdeeb2460c01b610bc0565b61064e67efacb03cd874615c60c01b610bc0565b5f73ffffffffffffffffffffffffffffffffffffffff168273ffffffffffffffffffffffffffffffffffffffff161480156106995750610698677c971fecd7291c5060c01b610f87565b5b806106eb57505f73ffffffffffffffffffffffffffffffffffffffff168173ffffffffffffffffffffffffffffffffffffffff161480156106ea57506106e96787cf793d22e5282560c01b610f87565b5b5b1561073657610704673a2014ba9a4e99ec60c01b610bc0565b6040517fd92e233d00000000000000000000000000000000000000000000000000000000815260040160405180910390fd5b61074a67c0a65fc903fa031a60c01b610bc0565b61075e67225f92e142fda28460c01b610bc0565b805f5f8473ffffffffffffffffffffffffffffffffffffffff1673ffffffffffffffffffffffffffffffffffffffff1681526020019081526020015f205f6101000a81548173ffffffffffffffffffffffffffffffffffffffff021916908373ffffffffffffffffffffffffffffffffffffffff1602179055506107ec67e823aaea78533ab160c01b610bc0565b6108006745c85eb551cfd6dd60c01b610bc0565b8073ffffffffffffffffffffffffffffffffffffffff168273ffffffffffffffffffffffffffffffffffffffff167fe5e39617beb2a298b9fa1c3928582d9a96ba7ef7c920acd1117d1d415568670a60405160405180910390a35050565b5f602052805f5260405f205f915054906101000a900473ffffffffffffffffffffffffffffffffffffffff1681565b6108a16708b56a5438ca649260c01b610bc0565b5f6108aa610f91565b90505f815f0160089054906101000a900460ff161590505f825f015f9054906101000a900467ffffffffffffffff1690505f5f8267ffffffffffffffff161480156108f25750825b90505f60018367ffffffffffffffff1614801561092557505f3073ffffffffffffffffffffffffffffffffffffffff163b145b905081158015610933575080155b1561096a576040517ff92ee8a900000000000000000000000000000000000000000000000000000000815260040160405180910390fd5b6001855f015f6101000a81548167ffffffffffffffff021916908367ffffffffffffffff16021790555083156109b7576001855f0160086101000a81548160ff0219169083151502179055505b6109cb67ae379003a72cc0c360c01b610bc0565b6109df671b78fb5c16a290bc60c01b610bc0565b6109f36788d796f0ecc39b4360c01b610bc0565b610a076753499ed6d67d6ac960c01b610bc0565b610a1086610fa4565b610a2467085765958a0502fb60c01b610bc0565b610a3867c5b9e631266b6cf360c01b610bc0565b610a40610fb8565b610a5467e4b122cd482f70b860c01b610bc0565b610a6867a102ff6bd260d01860c01b610bc0565b610a70610fc2565b8315610aca575f855f0160086101000a81548160ff0219169083151502179055507fc7f505b2f371ae2175ee4913f4499e1f2633a7b5936321eed1cdaeb6115181d26001604051610ac191906119b6565b60405180910390a15b505050505050565b5f5f610adc610fcc565b9050805f015f9054906101000a900473ffffffffffffffffffffffffffffffffffffffff1691505090565b610b0f610e95565b5f610b18610fcc565b905081815f015f6101000a81548173ffffffffffffffffffffffffffffffffffffffff021916908373ffffffffffffffffffffffffffffffffffffffff1602179055508173ffffffffffffffffffffffffffffffffffffffff16610b7a610574565b73ffffffffffffffffffffffffffffffffffffffff167f38d16b8cac22d99fc7c124b9cd0de2d3fa1faef420bfe791d8c362d765e2270060405160405180910390a35050565b50565b7f000000000000000000000000000000000000000000000000000000000000000073ffffffffffffffffffffffffffffffffffffffff163073ffffffffffffffffffffffffffffffffffffffff161480610c7057507f000000000000000000000000000000000000000000000000000000000000000073ffffffffffffffffffffffffffffffffffffffff16610c57610ff3565b73ffffffffffffffffffffffffffffffffffffffff1614155b15610ca7576040517fe07c8dba00000000000000000000000000000000000000000000000000000000815260040160405180910390fd5b565b610cbd67f4cb71524781b08e60c01b610bc0565b610cc5610e95565b610cd9679cc9abaa60ddbae060c01b610bc0565b610ced677c88e6922ec58b5060c01b610bc0565b50565b8173ffffffffffffffffffffffffffffffffffffffff166352d1902d6040518163ffffffff1660e01b8152600401602060405180830381865afa925050508015610d5857506040513d601f19601f82011682018060405250810190610d5591906119f9565b60015b610d9957816040517f4c9c8ce3000000000000000000000000000000000000000000000000000000008152600401610d90919061178f565b60405180910390fd5b7f360894a13ba1a3210667c828492db98dca3e2076cc3735a920a3ca505d382bbc5f1b8114610dff57806040517faa1d49a4000000000000000000000000000000000000000000000000000000008152600401610df69190611767565b60405180910390fd5b610e098383611046565b505050565b7f000000000000000000000000000000000000000000000000000000000000000073ffffffffffffffffffffffffffffffffffffffff163073ffffffffffffffffffffffffffffffffffffffff1614610e93576040517fe07c8dba00000000000000000000000000000000000000000000000000000000815260040160405180910390fd5b565b610e9d610f59565b73ffffffffffffffffffffffffffffffffffffffff16610ebb610574565b73ffffffffffffffffffffffffffffffffffffffff1614610f1a57610ede610f59565b6040517f118cdaa7000000000000000000000000000000000000000000000000000000008152600401610f11919061178f565b60405180910390fd5b565b5f610f25610fcc565b9050805f015f6101000a81549073ffffffffffffffffffffffffffffffffffffffff0219169055610f55826110b8565b5050565b5f33905090565b5f7f9016d09d72d40fdae2fd8ceac6b6234c7706214fd39c1cd1e609a0528c199300905090565b5f60019050919050565b5f5f610f9b611189565b90508091505090565b610fac6111b2565b610fb5816111f2565b50565b610fc06111b2565b565b610fca6111b2565b565b5f7f237e158222e3e6968b72b9db0d8043aacf074ad9f650f0d1606b4d82ee432c00905090565b5f61101f7f360894a13ba1a3210667c828492db98dca3e2076cc3735a920a3ca505d382bbc5f1b611276565b5f015f9054906101000a900473ffffffffffffffffffffffffffffffffffffffff16905090565b61104f8261127f565b8173ffffffffffffffffffffffffffffffffffffffff167fbc7cd75a20ee27fd9adebab32041f755214dbc6bffa90cc0225b39da2e5c2d3b60405160405180910390a25f815111156110ab576110a58282611348565b506110b4565b6110b36113c8565b5b5050565b5f6110c1610f60565b90505f815f015f9054906101000a900473ffffffffffffffffffffffffffffffffffffffff16905082825f015f6101000a81548173ffffffffffffffffffffffffffffffffffffffff021916908373ffffffffffffffffffffffffffffffffffffffff1602179055508273ffffffffffffffffffffffffffffffffffffffff168173ffffffffffffffffffffffffffffffffffffffff167f8be0079c531659141344cd1fd0a4f28419497f9722a3daafe3b4186f6b6457e060405160405180910390a3505050565b5f7ff0c57e16840df040f15088dc2f81fe391c3923bec73e23a9662efc9c229c6a005f1b905090565b6111ba611404565b6111f0576040517fd7e6bcf800000000000000000000000000000000000000000000000000000000815260040160405180910390fd5b565b6111fa6111b2565b5f73ffffffffffffffffffffffffffffffffffffffff168173ffffffffffffffffffffffffffffffffffffffff160361126a575f6040517f1e4fbdf7000000000000000000000000000000000000000000000000000000008152600401611261919061178f565b60405180910390fd5b61127381610f1c565b50565b5f819050919050565b5f8173ffffffffffffffffffffffffffffffffffffffff163b036112da57806040517f4c9c8ce30000000000000000000000000000000000000000000000000000000081526004016112d1919061178f565b60405180910390fd5b806113067f360894a13ba1a3210667c828492db98dca3e2076cc3735a920a3ca505d382bbc5f1b611276565b5f015f6101000a81548173ffffffffffffffffffffffffffffffffffffffff021916908373ffffffffffffffffffffffffffffffffffffffff16021790555050565b60605f5f8473ffffffffffffffffffffffffffffffffffffffff16846040516113719190611a68565b5f60405180830381855af49150503d805f81146113a9576040519150601f19603f3d011682016040523d82523d5f602084013e6113ae565b606091505b50915091506113be858383611422565b9250505092915050565b5f341115611402576040517fb398979f00000000000000000000000000000000000000000000000000000000815260040160405180910390fd5b565b5f61140d610f91565b5f0160089054906101000a900460ff16905090565b60608261143757611432826114af565b6114a7565b5f825114801561145d57505f8473ffffffffffffffffffffffffffffffffffffffff163b145b1561149f57836040517f9996b315000000000000000000000000000000000000000000000000000000008152600401611496919061178f565b60405180910390fd5b8190506114a8565b5b9392505050565b5f815111156114c057805160208201fd5b6040517fd6bda27500000000000000000000000000000000000000000000000000000000815260040160405180910390fd5b5f604051905090565b5f5ffd5b5f5ffd5b5f73ffffffffffffffffffffffffffffffffffffffff82169050919050565b5f61152c82611503565b9050919050565b61153c81611522565b8114611546575f5ffd5b50565b5f8135905061155781611533565b92915050565b5f60208284031215611572576115716114fb565b5b5f61157f84828501611549565b91505092915050565b5f819050919050565b61159a81611588565b82525050565b5f6020820190506115b35f830184611591565b92915050565b5f5ffd5b5f5ffd5b5f601f19601f8301169050919050565b7f4e487b71000000000000000000000000000000000000000000000000000000005f52604160045260245ffd5b611607826115c1565b810181811067ffffffffffffffff82111715611626576116256115d1565b5b80604052505050565b5f6116386114f2565b905061164482826115fe565b919050565b5f67ffffffffffffffff821115611663576116626115d1565b5b61166c826115c1565b9050602081019050919050565b828183375f83830152505050565b5f61169961169484611649565b61162f565b9050828152602081018484840111156116b5576116b46115bd565b5b6116c0848285611679565b509392505050565b5f82601f8301126116dc576116db6115b9565b5b81356116ec848260208601611687565b91505092915050565b5f5f6040838503121561170b5761170a6114fb565b5b5f61171885828601611549565b925050602083013567ffffffffffffffff811115611739576117386114ff565b5b611745858286016116c8565b9150509250929050565b5f819050919050565b6117618161174f565b82525050565b5f60208201905061177a5f830184611758565b92915050565b61178981611522565b82525050565b5f6020820190506117a25f830184611780565b92915050565b5f81519050919050565b5f82825260208201905092915050565b8281835e5f83830152505050565b5f6117da826117a8565b6117e481856117b2565b93506117f48185602086016117c2565b6117fd816115c1565b840191505092915050565b5f6020820190508181035f83015261182081846117d0565b905092915050565b5f61183282611522565b9050919050565b61184281611828565b811461184c575f5ffd5b50565b5f8135905061185d81611839565b92915050565b5f5f60408385031215611879576118786114fb565b5b5f61188685828601611549565b92505060206118978582860161184f565b9150509250929050565b5f819050919050565b5f6118c46118bf6118ba84611503565b6118a1565b611503565b9050919050565b5f6118d5826118aa565b9050919050565b5f6118e6826118cb565b9050919050565b6118f6816118dc565b82525050565b5f60208201905061190f5f8301846118ed565b92915050565b61191e81611588565b8114611928575f5ffd5b50565b5f8151905061193981611915565b92915050565b5f60208284031215611954576119536114fb565b5b5f6119618482850161192b565b91505092915050565b5f819050919050565b5f67ffffffffffffffff82169050919050565b5f6119a061199b6119968461196a565b6118a1565b611973565b9050919050565b6119b081611986565b82525050565b5f6020820190506119c95f8301846119a7565b92915050565b6119d88161174f565b81146119e2575f5ffd5b50565b5f815190506119f3816119cf565b92915050565b5f60208284031215611a0e57611a0d6114fb565b5b5f611a1b848285016119e5565b91505092915050565b5f81519050919050565b5f81905092915050565b5f611a4282611a24565b611a4c8185611a2e565b9350611a5c8185602086016117c2565b80840191505092915050565b5f611a738284611a38565b91508190509291505056fea2646970667358221220a97eeacae2ca4f4f2043d164b7c6ab807da1d9038cd5cbcc28ff27d29673686264736f6c634300081c0033",
  "linkReferences": {},
  "deployedLinkReferences": {}
}