{
  "_format": "hh-sol-artifact-1",
  "contractName": "OracleRegistry",
  "sourceName": "contracts/oracles/OracleRegistry.sol",
  "abi": [
    {
      "inputs": [],
      "name": "AdapterNotSet",
      "type": "error"
    },
    {
      "inputs": [
        {
          "internalType": "address",
          "name": "target",
          "type": "address"
        }
      ],
      "name": "AddressEmptyCode",
      "type": "error"
    },
    {
      "inputs": [
        {
          "internalType": "address",
          "name": "implementation",
          "type": "address"
        }
      ],
      "name": "ERC1967InvalidImplementation",
      "type": "error"
    },
    {
      "inputs": [],
      "name": "ERC1967NonPayable",
      "type": "error"
    },
    {
      "inputs": [],
      "name": "FailedCall",
      "type": "error"
    },
    {
      "inputs": [],
      "name": "InvalidInitialization",
      "type": "error"
    },
    {
      "inputs": [],
      "name": "NotInitializing",
      "type": "error"
    },
    {
      "inputs": [
        {
          "internalType": "address",
          "name": "owner",
          "type": "address"
        }
      ],
      "name": "OwnableInvalidOwner",
      "type": "error"
    },
    {
      "inputs": [
        {
          "internalType": "address",
          "name": "account",
          "type": "address"
        }
      ],
      "name": "OwnableUnauthorizedAccount",
      "type": "error"
    },
    {
      "inputs": [],
      "name": "UUPSUnauthorizedCallContext",
      "type": "error"
    },
    {
      "inputs": [
        {
          "internalType": "bytes32",
          "name": "slot",
          "type": "bytes32"
        }
      ],
      "name": "UUPSUnsupportedProxiableUUID",
      "type": "error"
    },
    {
      "inputs": [],
      "name": "ZeroAddress",
      "type": "error"
    },
    {
      "anonymous": false,
      "inputs": [
        {
          "indexed": true,
          "internalType": "address",
          "name": "asset",
          "type": "address"
        },
        {
          "indexed": true,
          "internalType": "address",
          "name": "adapter",
          "type": "address"
        }
      ],
      "name": "AdapterSet",
      "type": "event"
    },
    {
      "anonymous": false,
      "inputs": [
        {
          "indexed": false,
          "internalType": "uint64",
          "name": "version",
          "type": "uint64"
        }
      ],
      "name": "Initialized",
      "type": "event"
    },
    {
      "anonymous": false,
      "inputs": [
        {
          "indexed": true,
          "internalType": "address",
          "name": "previousOwner",
          "type": "address"
        },
        {
          "indexed": true,
          "internalType": "address",
          "name": "newOwner",
          "type": "address"
        }
      ],
      "name": "OwnershipTransferStarted",
      "type": "event"
    },
    {
      "anonymous": false,
      "inputs": [
        {
          "indexed": true,
          "internalType": "address",
          "name": "previousOwner",
          "type": "address"
        },
        {
          "indexed": true,
          "internalType": "address",
          "name": "newOwner",
          "type": "address"
        }
      ],
      "name": "OwnershipTransferred",
      "type": "event"
    },
    {
      "anonymous": false,
      "inputs": [
        {
          "indexed": true,
          "internalType": "address",
          "name": "implementation",
          "type": "address"
        }
      ],
      "name": "Upgraded",
      "type": "event"
    },
    {
      "inputs": [],
      "name": "UPGRADE_INTERFACE_VERSION",
      "outputs": [
        {
          "internalType": "string",
          "name": "",
          "type": "string"
        }
      ],
      "stateMutability": "view",
      "type": "function"
    },
    {
      "inputs": [],
      "name": "acceptOwnership",
      "outputs": [],
      "stateMutability": "nonpayable",
      "type": "function"
    },
    {
      "inputs": [
        {
          "internalType": "address",
          "name": "",
          "type": "address"
        }
      ],
      "name": "adapterOf",
      "outputs": [
        {
          "internalType": "contract IPriceAdapter",
          "name": "",
          "type": "address"
        }
      ],
      "stateMutability": "view",
      "type": "function"
    },
    {
      "inputs": [],
      "name": "configAddress",
      "outputs": [
        {
          "internalType": "address",
          "name": "",
          "type": "address"
        }
      ],
      "stateMutability": "view",
      "type": "function"
    },
    {
      "inputs": [
        {
          "internalType": "address",
          "name": "asset",
          "type": "address"
        }
      ],
      "name": "getPrice",
      "outputs": [
        {
          "internalType": "uint256",
          "name": "",
          "type": "uint256"
        }
      ],
      "stateMutability": "view",
      "type": "function"
    },
    {
      "inputs": [
        {
          "internalType": "address",
          "name": "initialOwner",
          "type": "address"
        },
        {
          "internalType": "address",
          "name": "_configAddress",
          "type": "address"
        }
      ],
      "name": "initialize",
      "outputs": [],
      "stateMutability": "nonpayable",
      "type": "function"
    },
    {
      "inputs": [],
      "name": "owner",
      "outputs": [
        {
          "internalType": "address",
          "name": "",
          "type": "address"
        }
      ],
      "stateMutability": "view",
      "type": "function"
    },
    {
      "inputs": [],
      "name": "pendingOwner",
      "outputs": [
        {
          "internalType": "address",
          "name": "",
          "type": "address"
        }
      ],
      "stateMutability": "view",
      "type": "function"
    },
    {
      "inputs": [],
      "name": "proxiableUUID",
      "outputs": [
        {
          "internalType": "bytes32",
          "name": "",
          "type": "bytes32"
        }
      ],
      "stateMutability": "view",
      "type": "function"
    },
    {
      "inputs": [],
      "name": "renounceOwnership",
      "outputs": [],
      "stateMutability": "nonpayable",
      "type": "function"
    },
    {
      "inputs": [
        {
          "internalType": "address",
          "name": "asset",
          "type": "address"
        },
        {
          "internalType": "contract IPriceAdapter",
          "name": "adapter",
          "type": "address"
        }
      ],
      "name": "setAdapter",
      "outputs": [],
      "stateMutability": "nonpayable",
      "type": "function"
    },
    {
      "inputs": [
        {
          "internalType": "address",
          "name": "newOwner",
          "type": "address"
        }
      ],
      "name": "transferOwnership",
      "outputs": [],
      "stateMutability": "nonpayable",
      "type": "function"
    },
    {
      "inputs": [
        {
          "internalType": "address",
          "name": "newImplementation",
          "type": "address"
        },
        {
          "internalType": "bytes",
          "name": "data",
          "type": "bytes"
        }
      ],
      "name": "upgradeToAndCall",
      "outputs": [],
      "stateMutability": "payable",
      "type": "function"
    }
  ],
  "bytecode": "0x60a0604052306080523480156012575f5ffd5b50608051610da46100395f395f81816106e001528181610709015261084d0152610da45ff3fe6080604052600436106100bf575f3560e01c80638da5cb5b1161007c578063c2b7a3e611610057578063c2b7a3e6146101ed578063d6c3187114610221578063e30c397814610240578063f2fde38b14610254575f5ffd5b80638da5cb5b14610165578063ad3cb1cc14610191578063ba59b4ca146101ce575f5ffd5b806341976e09146100c3578063485cc955146100f55780634f1ef2861461011657806352d1902d14610129578063715018a61461013d57806379ba509714610151575b5f5ffd5b3480156100ce575f5ffd5b506100e26100dd366004610bc0565b610273565b6040519081526020015b60405180910390f35b348015610100575f5ffd5b5061011461010f366004610bdb565b61031c565b005b610114610124366004610c26565b610456565b348015610134575f5ffd5b506100e2610475565b348015610148575f5ffd5b50610114610490565b34801561015c575f5ffd5b506101146104a3565b348015610170575f5ffd5b506101796104f0565b6040516001600160a01b0390911681526020016100ec565b34801561019c575f5ffd5b506101c1604051806040016040528060058152602001640352e302e360dc1b81525081565b6040516100ec9190610cec565b3480156101d9575f5ffd5b506101146101e8366004610bdb565b610524565b3480156101f8575f5ffd5b50610179610207366004610bc0565b5f602081905290815260409020546001600160a01b031681565b34801561022c575f5ffd5b50600154610179906001600160a01b031681565b34801561024b575f5ffd5b5061017961060f565b34801561025f575f5ffd5b5061011461026e366004610bc0565b610637565b6001600160a01b038082165f90815260208190526040812054909116806102ad57604051635048c2af60e11b815260040160405180910390fd5b6040516315d5220f60e31b81526001600160a01b03848116600483015282169063aea9107890602401602060405180830381865afa1580156102f1573d5f5f3e3d5ffd5b505050506040513d601f19601f820116820180604052508101906103159190610d21565b9392505050565b7ff0c57e16840df040f15088dc2f81fe391c3923bec73e23a9662efc9c229c6a008054600160401b810460ff16159067ffffffffffffffff165f811580156103615750825b90505f8267ffffffffffffffff16600114801561037d5750303b155b90508115801561038b575080155b156103a95760405163f92ee8a960e01b815260040160405180910390fd5b845467ffffffffffffffff1916600117855583156103d357845460ff60401b1916600160401b1785555b6103dc876106bc565b6103e46106cd565b6103ec6106cd565b600180546001600160a01b0319166001600160a01b038816179055831561044d57845460ff60401b19168555604051600181527fc7f505b2f371ae2175ee4913f4499e1f2633a7b5936321eed1cdaeb6115181d29060200160405180910390a15b50505050505050565b61045e6106d5565b61046782610779565b6104718282610781565b5050565b5f61047e610842565b505f516020610d4f5f395f51905f5290565b61049861088b565b6104a15f6108bd565b565b33806104ad61060f565b6001600160a01b0316146104e45760405163118cdaa760e01b81526001600160a01b03821660048201526024015b60405180910390fd5b6104ed816108bd565b50565b5f807f9016d09d72d40fdae2fd8ceac6b6234c7706214fd39c1cd1e609a0528c1993005b546001600160a01b031692915050565b6001546001600160a01b0316331461057e5760405162461bcd60e51b815260206004820152601860248201527f43616c6c6572206973206e6f742074686520636f6e666967000000000000000060448201526064016104db565b6001600160a01b038216158061059b57506001600160a01b038116155b156105b95760405163d92e233d60e01b815260040160405180910390fd5b6001600160a01b038281165f8181526020819052604080822080546001600160a01b0319169486169485179055517fe5e39617beb2a298b9fa1c3928582d9a96ba7ef7c920acd1117d1d415568670a9190a35050565b5f807f237e158222e3e6968b72b9db0d8043aacf074ad9f650f0d1606b4d82ee432c00610514565b61063f61088b565b7f237e158222e3e6968b72b9db0d8043aacf074ad9f650f0d1606b4d82ee432c0080546001600160a01b0319166001600160a01b03831690811782556106836104f0565b6001600160a01b03167f38d16b8cac22d99fc7c124b9cd0de2d3fa1faef420bfe791d8c362d765e2270060405160405180910390a35050565b6106c46108f5565b6104ed8161093e565b6104a16108f5565b306001600160a01b037f000000000000000000000000000000000000000000000000000000000000000016148061075b57507f00000000000000000000000000000000000000000000000000000000000000006001600160a01b031661074f5f516020610d4f5f395f51905f52546001600160a01b031690565b6001600160a01b031614155b156104a15760405163703e46dd60e11b815260040160405180910390fd5b6104ed61088b565b816001600160a01b03166352d1902d6040518163ffffffff1660e01b8152600401602060405180830381865afa9250505080156107db575060408051601f3d908101601f191682019092526107d891810190610d21565b60015b61080357604051634c9c8ce360e01b81526001600160a01b03831660048201526024016104db565b5f516020610d4f5f395f51905f52811461083357604051632a87526960e21b8152600481018290526024016104db565b61083d838361096f565b505050565b306001600160a01b037f000000000000000000000000000000000000000000000000000000000000000016146104a15760405163703e46dd60e11b815260040160405180910390fd5b336108946104f0565b6001600160a01b0316146104a15760405163118cdaa760e01b81523360048201526024016104db565b7f237e158222e3e6968b72b9db0d8043aacf074ad9f650f0d1606b4d82ee432c0080546001600160a01b0319168155610471826109c4565b7ff0c57e16840df040f15088dc2f81fe391c3923bec73e23a9662efc9c229c6a0054600160401b900460ff166104a157604051631afcd79f60e31b815260040160405180910390fd5b6109466108f5565b6001600160a01b0381166104e457604051631e4fbdf760e01b81525f60048201526024016104db565b61097882610a34565b6040516001600160a01b038316907fbc7cd75a20ee27fd9adebab32041f755214dbc6bffa90cc0225b39da2e5c2d3b905f90a28051156109bc5761083d8282610a97565b610471610b09565b7f9016d09d72d40fdae2fd8ceac6b6234c7706214fd39c1cd1e609a0528c19930080546001600160a01b031981166001600160a01b03848116918217845560405192169182907f8be0079c531659141344cd1fd0a4f28419497f9722a3daafe3b4186f6b6457e0905f90a3505050565b806001600160a01b03163b5f03610a6957604051634c9c8ce360e01b81526001600160a01b03821660048201526024016104db565b5f516020610d4f5f395f51905f5280546001600160a01b0319166001600160a01b0392909216919091179055565b60605f5f846001600160a01b031684604051610ab39190610d38565b5f60405180830381855af49150503d805f8114610aeb576040519150601f19603f3d011682016040523d82523d5f602084013e610af0565b606091505b5091509150610b00858383610b28565b95945050505050565b34156104a15760405163b398979f60e01b815260040160405180910390fd5b606082610b3d57610b3882610b84565b610315565b8151158015610b5457506001600160a01b0384163b155b15610b7d57604051639996b31560e01b81526001600160a01b03851660048201526024016104db565b5092915050565b805115610b9357805160208201fd5b60405163d6bda27560e01b815260040160405180910390fd5b6001600160a01b03811681146104ed575f5ffd5b5f60208284031215610bd0575f5ffd5b813561031581610bac565b5f5f60408385031215610bec575f5ffd5b8235610bf781610bac565b91506020830135610c0781610bac565b809150509250929050565b634e487b7160e01b5f52604160045260245ffd5b5f5f60408385031215610c37575f5ffd5b8235610c4281610bac565b9150602083013567ffffffffffffffff811115610c5d575f5ffd5b8301601f81018513610c6d575f5ffd5b803567ffffffffffffffff811115610c8757610c87610c12565b604051601f8201601f19908116603f0116810167ffffffffffffffff81118282101715610cb657610cb6610c12565b604052818152828201602001871015610ccd575f5ffd5b816020840160208301375f602083830101528093505050509250929050565b602081525f82518060208401528060208501604085015e5f604082850101526040601f19601f83011684010191505092915050565b5f60208284031215610d31575f5ffd5b5051919050565b5f82518060208501845e5f92019182525091905056fe360894a13ba1a3210667c828492db98dca3e2076cc3735a920a3ca505d382bbca26469706673582212209d2424e91c161d24734a450f44281006cc0254fb537532f3aabe66855781410d64736f6c634300081c0033",
  "linkReferences": {},
  "deployedLinkReferences": {}
}