{
  "_format": "hh-sol-artifact-1",
  "contractName": "OracleRegistry",
  "sourceName": "contracts/oracles/OracleRegistry.sol",
  "abi": [
    {
      "inputs": [],
      "name": "AdapterNotSet",
      "type": "error"
    },
    {
      "inputs": [
        {
          "internalType": "address",
          "name": "target",
          "type": "address"
        }
      ],
      "name": "AddressEmptyCode",
      "type": "error"
    },
    {
      "inputs": [
        {
          "internalType": "address",
          "name": "implementation",
          "type": "address"
        }
      ],
      "name": "ERC1967InvalidImplementation",
      "type": "error"
    },
    {
      "inputs": [],
      "name": "ERC1967NonPayable",
      "type": "error"
    },
    {
      "inputs": [],
      "name": "FailedCall",
      "type": "error"
    },
    {
      "inputs": [],
      "name": "InvalidInitialization",
      "type": "error"
    },
    {
      "inputs": [],
      "name": "NotAuthorized",
      "type": "error"
    },
    {
      "inputs": [],
      "name": "NotInitializing",
      "type": "error"
    },
    {
      "inputs": [
        {
          "internalType": "address",
          "name": "owner",
          "type": "address"
        }
      ],
      "name": "OwnableInvalidOwner",
      "type": "error"
    },
    {
      "inputs": [
        {
          "internalType": "address",
          "name": "account",
          "type": "address"
        }
      ],
      "name": "OwnableUnauthorizedAccount",
      "type": "error"
    },
    {
      "inputs": [],
      "name": "UUPSUnauthorizedCallContext",
      "type": "error"
    },
    {
      "inputs": [
        {
          "internalType": "bytes32",
          "name": "slot",
          "type": "bytes32"
        }
      ],
      "name": "UUPSUnsupportedProxiableUUID",
      "type": "error"
    },
    {
      "inputs": [],
      "name": "ZeroAddress",
      "type": "error"
    },
    {
      "anonymous": false,
      "inputs": [
        {
          "indexed": true,
          "internalType": "address",
          "name": "asset",
          "type": "address"
        },
        {
          "indexed": true,
          "internalType": "address",
          "name": "adapter",
          "type": "address"
        }
      ],
      "name": "AdapterSet",
      "type": "event"
    },
    {
      "anonymous": false,
      "inputs": [
        {
          "indexed": false,
          "internalType": "uint64",
          "name": "version",
          "type": "uint64"
        }
      ],
      "name": "Initialized",
      "type": "event"
    },
    {
      "anonymous": false,
      "inputs": [
        {
          "indexed": true,
          "internalType": "address",
          "name": "previousOwner",
          "type": "address"
        },
        {
          "indexed": true,
          "internalType": "address",
          "name": "newOwner",
          "type": "address"
        }
      ],
      "name": "OwnershipTransferStarted",
      "type": "event"
    },
    {
      "anonymous": false,
      "inputs": [
        {
          "indexed": true,
          "internalType": "address",
          "name": "previousOwner",
          "type": "address"
        },
        {
          "indexed": true,
          "internalType": "address",
          "name": "newOwner",
          "type": "address"
        }
      ],
      "name": "OwnershipTransferred",
      "type": "event"
    },
    {
      "anonymous": false,
      "inputs": [
        {
          "indexed": true,
          "internalType": "address",
          "name": "implementation",
          "type": "address"
        }
      ],
      "name": "Upgraded",
      "type": "event"
    },
    {
      "inputs": [],
      "name": "UPGRADE_INTERFACE_VERSION",
      "outputs": [
        {
          "internalType": "string",
          "name": "",
          "type": "string"
        }
      ],
      "stateMutability": "view",
      "type": "function"
    },
    {
      "inputs": [],
      "name": "acceptOwnership",
      "outputs": [],
      "stateMutability": "nonpayable",
      "type": "function"
    },
    {
      "inputs": [
        {
          "internalType": "address",
          "name": "",
          "type": "address"
        }
      ],
      "name": "adapterOf",
      "outputs": [
        {
          "internalType": "contract IPriceAdapter",
          "name": "",
          "type": "address"
        }
      ],
      "stateMutability": "view",
      "type": "function"
    },
    {
      "inputs": [],
      "name": "configAddress",
      "outputs": [
        {
          "internalType": "address",
          "name": "",
          "type": "address"
        }
      ],
      "stateMutability": "view",
      "type": "function"
    },
    {
      "inputs": [
        {
          "internalType": "address",
          "name": "asset",
          "type": "address"
        }
      ],
      "name": "getPrice",
      "outputs": [
        {
          "internalType": "uint256",
          "name": "",
          "type": "uint256"
        }
      ],
      "stateMutability": "view",
      "type": "function"
    },
    {
      "inputs": [
        {
          "internalType": "address",
          "name": "initialOwner",
          "type": "address"
        },
        {
          "internalType": "address",
          "name": "_configAddress",
          "type": "address"
        }
      ],
      "name": "initialize",
      "outputs": [],
      "stateMutability": "nonpayable",
      "type": "function"
    },
    {
      "inputs": [],
      "name": "owner",
      "outputs": [
        {
          "internalType": "address",
          "name": "",
          "type": "address"
        }
      ],
      "stateMutability": "view",
      "type": "function"
    },
    {
      "inputs": [],
      "name": "pendingOwner",
      "outputs": [
        {
          "internalType": "address",
          "name": "",
          "type": "address"
        }
      ],
      "stateMutability": "view",
      "type": "function"
    },
    {
      "inputs": [],
      "name": "proxiableUUID",
      "outputs": [
        {
          "internalType": "bytes32",
          "name": "",
          "type": "bytes32"
        }
      ],
      "stateMutability": "view",
      "type": "function"
    },
    {
      "inputs": [],
      "name": "renounceOwnership",
      "outputs": [],
      "stateMutability": "nonpayable",
      "type": "function"
    },
    {
      "inputs": [
        {
          "internalType": "address",
          "name": "asset",
          "type": "address"
        },
        {
          "internalType": "contract IPriceAdapter",
          "name": "adapter",
          "type": "address"
        }
      ],
      "name": "setAdapter",
      "outputs": [],
      "stateMutability": "nonpayable",
      "type": "function"
    },
    {
      "inputs": [
        {
          "internalType": "address",
          "name": "newOwner",
          "type": "address"
        }
      ],
      "name": "transferOwnership",
      "outputs": [],
      "stateMutability": "nonpayable",
      "type": "function"
    },
    {
      "inputs": [
        {
          "internalType": "address",
          "name": "asset",
          "type": "address"
        }
      ],
      "name": "unsetAdapter",
      "outputs": [],
      "stateMutability": "nonpayable",
      "type": "function"
    },
    {
      "inputs": [
        {
          "internalType": "address",
          "name": "newImplementation",
          "type": "address"
        },
        {
          "internalType": "bytes",
          "name": "data",
          "type": "bytes"
        }
      ],
      "name": "upgradeToAndCall",
      "outputs": [],
      "stateMutability": "payable",
      "type": "function"
    }
  ],
  "bytecode": "0x60a06040523073ffffffffffffffffffffffffffffffffffffffff1660809073ffffffffffffffffffffffffffffffffffffffff168152503480156041575f5ffd5b50608051611fd06100685f395f81816110de0152818161113301526113290152611fd05ff3fe6080604052600436106100dc575f3560e01c80638da5cb5b1161007e578063c2b7a3e611610058578063c2b7a3e61461025a578063d6c3187114610296578063e30c3978146102c0578063f2fde38b146102ea576100dc565b80638da5cb5b146101de578063ad3cb1cc14610208578063ba59b4ca14610232576100dc565b80634f1ef286116100ba5780634f1ef2861461016c57806352d1902d14610188578063715018a6146101b257806379ba5097146101c8576100dc565b80632eb2b108146100e057806341976e0914610108578063485cc95514610144575b5f5ffd5b3480156100eb575f5ffd5b5061010660048036038101906101019190611a3b565b610312565b005b348015610113575f5ffd5b5061012e60048036038101906101299190611a3b565b6105f8565b60405161013b9190611a7e565b60405180910390f35b34801561014f575f5ffd5b5061016a60048036038101906101659190611a97565b6107f1565b005b61018660048036038101906101819190611c11565b610a8b565b005b348015610193575f5ffd5b5061019c610aaa565b6040516101a99190611c83565b60405180910390f35b3480156101bd575f5ffd5b506101c6610adb565b005b3480156101d3575f5ffd5b506101dc610aee565b005b3480156101e9575f5ffd5b506101f2610b7c565b6040516101ff9190611cab565b60405180910390f35b348015610213575f5ffd5b5061021c610bb1565b6040516102299190611d24565b60405180910390f35b34801561023d575f5ffd5b5061025860048036038101906102539190611d7f565b610bea565b005b348015610265575f5ffd5b50610280600480360381019061027b9190611a3b565b610f5c565b60405161028d9190611e18565b60405180910390f35b3480156102a1575f5ffd5b506102aa610f8b565b6040516102b79190611cab565b60405180910390f35b3480156102cb575f5ffd5b506102d4610fb0565b6040516102e19190611cab565b60405180910390f35b3480156102f5575f5ffd5b50610310600480360381019061030b9190611a3b565b610fe5565b005b61032667706aaf305d8e5de160c01b61109e565b61033a6787b17a4e288536e660c01b61109e565b61034e672cd7135f1ed1d2b960c01b61109e565b6103626759795a8720c56e4560c01b61109e565b60015f9054906101000a900473ffffffffffffffffffffffffffffffffffffffff1673ffffffffffffffffffffffffffffffffffffffff163373ffffffffffffffffffffffffffffffffffffffff16146103fc576103ca6781524a3b9a143b4b60c01b61109e565b6040517fea8e4eb500000000000000000000000000000000000000000000000000000000815260040160405180910390fd5b61041067977ba175b9cc5eba60c01b61109e565b610424671a2c28cf0e35be4560c01b61109e565b61043867644d845563df4e9360c01b61109e565b61044c67efacb03cd874615c60c01b61109e565b610460677c971fecd7291c5060c01b61109e565b6104746787cf793d22e5282560c01b61109e565b5f73ffffffffffffffffffffffffffffffffffffffff168173ffffffffffffffffffffffffffffffffffffffff16036104ed576104bb673a2014ba9a4e99ec60c01b61109e565b6040517fd92e233d00000000000000000000000000000000000000000000000000000000815260040160405180910390fd5b61050167c0a65fc903fa031a60c01b61109e565b61051567225f92e142fda28460c01b61109e565b5f5f8273ffffffffffffffffffffffffffffffffffffffff1673ffffffffffffffffffffffffffffffffffffffff1681526020019081526020015f205f6101000a81549073ffffffffffffffffffffffffffffffffffffffff021916905561058767e823aaea78533ab160c01b61109e565b61059b6745c85eb551cfd6dd60c01b61109e565b5f73ffffffffffffffffffffffffffffffffffffffff168173ffffffffffffffffffffffffffffffffffffffff167fe5e39617beb2a298b9fa1c3928582d9a96ba7ef7c920acd1117d1d415568670a60405160405180910390a350565b5f61060d67b49d4ad46be6f43b60c01b61109e565b61062167f86ac8763ab4ee7b60c01b61109e565b61063567eab27127a0ad6c0160c01b61109e565b5f5f5f8473ffffffffffffffffffffffffffffffffffffffff1673ffffffffffffffffffffffffffffffffffffffff1681526020019081526020015f205f9054906101000a900473ffffffffffffffffffffffffffffffffffffffff1690506106a8673784a687ebb635e860c01b61109e565b6106bc67ed6fcb143da015f360c01b61109e565b5f73ffffffffffffffffffffffffffffffffffffffff168173ffffffffffffffffffffffffffffffffffffffff16036107355761070367a589af3e5416d56d60c01b61109e565b6040517fa091855e00000000000000000000000000000000000000000000000000000000815260040160405180910390fd5b61074967705e933ed3b4d5bd60c01b61109e565b61075d671077901be1a96f3f60c01b61109e565b610771675584b5cdf4e1be5160c01b61109e565b8073ffffffffffffffffffffffffffffffffffffffff1663aea91078846040518263ffffffff1660e01b81526004016107aa9190611cab565b602060405180830381865afa1580156107c5573d5f5f3e3d5ffd5b505050506040513d601f19601f820116820180604052508101906107e99190611e5b565b915050919050565b61080567275c1755818e622f60c01b61109e565b5f61080e6110a1565b90505f815f0160089054906101000a900460ff161590505f825f015f9054906101000a900467ffffffffffffffff1690505f5f8267ffffffffffffffff161480156108565750825b90505f60018367ffffffffffffffff1614801561088957505f3073ffffffffffffffffffffffffffffffffffffffff163b145b905081158015610897575080155b156108ce576040517ff92ee8a900000000000000000000000000000000000000000000000000000000815260040160405180910390fd5b6001855f015f6101000a81548167ffffffffffffffff021916908367ffffffffffffffff160217905550831561091b576001855f0160086101000a81548160ff0219169083151502179055505b61092f679143ca2e56e70ff060c01b61109e565b61094367a1f0a0cefb92650660c01b61109e565b61095767bc0341d186aa43f660c01b61109e565b61096b6769da8896df8564ab60c01b61109e565b610974876110b4565b61098867c59d0d53bfa84ca660c01b61109e565b61099c678d5f79e0af199fed60c01b61109e565b6109a46110c8565b6109b8673a58db792bfd00ef60c01b61109e565b6109cc6703ba6e9266a8ce7c60c01b61109e565b6109d46110d2565b6109e8677f4573ee6842a18760c01b61109e565b8560015f6101000a81548173ffffffffffffffffffffffffffffffffffffffff021916908373ffffffffffffffffffffffffffffffffffffffff1602179055508315610a82575f855f0160086101000a81548160ff0219169083151502179055507fc7f505b2f371ae2175ee4913f4499e1f2633a7b5936321eed1cdaeb6115181d26001604051610a799190611ed2565b60405180910390a15b50505050505050565b610a936110dc565b610a9c826111c2565b610aa68282611209565b5050565b5f610ab3611327565b7f360894a13ba1a3210667c828492db98dca3e2076cc3735a920a3ca505d382bbc5f1b905090565b610ae36113ae565b610aec5f611435565b565b5f610af7611472565b90508073ffffffffffffffffffffffffffffffffffffffff16610b18610fb0565b73ffffffffffffffffffffffffffffffffffffffff1614610b7057806040517f118cdaa7000000000000000000000000000000000000000000000000000000008152600401610b679190611cab565b60405180910390fd5b610b7981611435565b50565b5f5f610b86611479565b9050805f015f9054906101000a900473ffffffffffffffffffffffffffffffffffffffff1691505090565b6040518060400160405280600581526020017f352e302e3000000000000000000000000000000000000000000000000000000081525081565b610bfe672bb212c64d17060560c01b61109e565b610c126787b17a4e288536e660c01b61109e565b610c26672cd7135f1ed1d2b960c01b61109e565b610c3a6759795a8720c56e4560c01b61109e565b60015f9054906101000a900473ffffffffffffffffffffffffffffffffffffffff1673ffffffffffffffffffffffffffffffffffffffff163373ffffffffffffffffffffffffffffffffffffffff1614610cd457610ca26781524a3b9a143b4b60c01b61109e565b6040517fea8e4eb500000000000000000000000000000000000000000000000000000000815260040160405180910390fd5b610ce867977ba175b9cc5eba60c01b61109e565b610cfc671a2c28cf0e35be4560c01b61109e565b610d10673e6312fb228e2d2760c01b61109e565b610d246753499ed6d67d6ac960c01b61109e565b610d3867085765958a0502fb60c01b61109e565b610d4c67c5b9e631266b6cf360c01b61109e565b5f73ffffffffffffffffffffffffffffffffffffffff168273ffffffffffffffffffffffffffffffffffffffff16148015610d975750610d9667e4b122cd482f70b860c01b6114a0565b5b80610de957505f73ffffffffffffffffffffffffffffffffffffffff168173ffffffffffffffffffffffffffffffffffffffff16148015610de85750610de767a102ff6bd260d01860c01b6114a0565b5b5b15610e3457610e0267caafac3834ad095d60c01b61109e565b6040517fd92e233d00000000000000000000000000000000000000000000000000000000815260040160405180910390fd5b610e48676c8f72bef3363ea360c01b61109e565b610e5c677c88e6922ec58b5060c01b61109e565b805f5f8473ffffffffffffffffffffffffffffffffffffffff1673ffffffffffffffffffffffffffffffffffffffff1681526020019081526020015f205f6101000a81548173ffffffffffffffffffffffffffffffffffffffff021916908373ffffffffffffffffffffffffffffffffffffffff160217905550610eea6798242f8a7c41e9be60c01b61109e565b610efe6774a81cdaa3e29e8560c01b61109e565b8073ffffffffffffffffffffffffffffffffffffffff168273ffffffffffffffffffffffffffffffffffffffff167fe5e39617beb2a298b9fa1c3928582d9a96ba7ef7c920acd1117d1d415568670a60405160405180910390a35050565b5f602052805f5260405f205f915054906101000a900473ffffffffffffffffffffffffffffffffffffffff1681565b60015f9054906101000a900473ffffffffffffffffffffffffffffffffffffffff1681565b5f5f610fba6114aa565b9050805f015f9054906101000a900473ffffffffffffffffffffffffffffffffffffffff1691505090565b610fed6113ae565b5f610ff66114aa565b905081815f015f6101000a81548173ffffffffffffffffffffffffffffffffffffffff021916908373ffffffffffffffffffffffffffffffffffffffff1602179055508173ffffffffffffffffffffffffffffffffffffffff16611058610b7c565b73ffffffffffffffffffffffffffffffffffffffff167f38d16b8cac22d99fc7c124b9cd0de2d3fa1faef420bfe791d8c362d765e2270060405160405180910390a35050565b50565b5f5f6110ab6114d1565b90508091505090565b6110bc6114fa565b6110c58161153a565b50565b6110d06114fa565b565b6110da6114fa565b565b7f000000000000000000000000000000000000000000000000000000000000000073ffffffffffffffffffffffffffffffffffffffff163073ffffffffffffffffffffffffffffffffffffffff16148061118957507f000000000000000000000000000000000000000000000000000000000000000073ffffffffffffffffffffffffffffffffffffffff166111706115be565b73ffffffffffffffffffffffffffffffffffffffff1614155b156111c0576040517fe07c8dba00000000000000000000000000000000000000000000000000000000815260040160405180910390fd5b565b6111d667063846b27359205060c01b61109e565b6111de6113ae565b6111f267104e8640d9348d9260c01b61109e565b61120667c4c404693e79765d60c01b61109e565b50565b8173ffffffffffffffffffffffffffffffffffffffff166352d1902d6040518163ffffffff1660e01b8152600401602060405180830381865afa92505050801561127157506040513d601f19601f8201168201806040525081019061126e9190611f15565b60015b6112b257816040517f4c9c8ce30000000000000000000000000000000000000000000000000000000081526004016112a99190611cab565b60405180910390fd5b7f360894a13ba1a3210667c828492db98dca3e2076cc3735a920a3ca505d382bbc5f1b811461131857806040517faa1d49a400000000000000000000000000000000000000000000000000000000815260040161130f9190611c83565b60405180910390fd5b6113228383611611565b505050565b7f000000000000000000000000000000000000000000000000000000000000000073ffffffffffffffffffffffffffffffffffffffff163073ffffffffffffffffffffffffffffffffffffffff16146113ac576040517fe07c8dba00000000000000000000000000000000000000000000000000000000815260040160405180910390fd5b565b6113b6611472565b73ffffffffffffffffffffffffffffffffffffffff166113d4610b7c565b73ffffffffffffffffffffffffffffffffffffffff1614611433576113f7611472565b6040517f118cdaa700000000000000000000000000000000000000000000000000000000815260040161142a9190611cab565b60405180910390fd5b565b5f61143e6114aa565b9050805f015f6101000a81549073ffffffffffffffffffffffffffffffffffffffff021916905561146e82611683565b5050565b5f33905090565b5f7f9016d09d72d40fdae2fd8ceac6b6234c7706214fd39c1cd1e609a0528c199300905090565b5f60019050919050565b5f7f237e158222e3e6968b72b9db0d8043aacf074ad9f650f0d1606b4d82ee432c00905090565b5f7ff0c57e16840df040f15088dc2f81fe391c3923bec73e23a9662efc9c229c6a005f1b905090565b611502611754565b611538576040517fd7e6bcf800000000000000000000000000000000000000000000000000000000815260040160405180910390fd5b565b6115426114fa565b5f73ffffffffffffffffffffffffffffffffffffffff168173ffffffffffffffffffffffffffffffffffffffff16036115b2575f6040517f1e4fbdf70000000000000000000000000000000000000000000000000000000081526004016115a99190611cab565b60405180910390fd5b6115bb81611435565b50565b5f6115ea7f360894a13ba1a3210667c828492db98dca3e2076cc3735a920a3ca505d382bbc5f1b611772565b5f015f9054906101000a900473ffffffffffffffffffffffffffffffffffffffff16905090565b61161a8261177b565b8173ffffffffffffffffffffffffffffffffffffffff167fbc7cd75a20ee27fd9adebab32041f755214dbc6bffa90cc0225b39da2e5c2d3b60405160405180910390a25f81511115611676576116708282611844565b5061167f565b61167e6118c4565b5b5050565b5f61168c611479565b90505f815f015f9054906101000a900473ffffffffffffffffffffffffffffffffffffffff16905082825f015f6101000a81548173ffffffffffffffffffffffffffffffffffffffff021916908373ffffffffffffffffffffffffffffffffffffffff1602179055508273ffffffffffffffffffffffffffffffffffffffff168173ffffffffffffffffffffffffffffffffffffffff167f8be0079c531659141344cd1fd0a4f28419497f9722a3daafe3b4186f6b6457e060405160405180910390a3505050565b5f61175d6110a1565b5f0160089054906101000a900460ff16905090565b5f819050919050565b5f8173ffffffffffffffffffffffffffffffffffffffff163b036117d657806040517f4c9c8ce30000000000000000000000000000000000000000000000000000000081526004016117cd9190611cab565b60405180910390fd5b806118027f360894a13ba1a3210667c828492db98dca3e2076cc3735a920a3ca505d382bbc5f1b611772565b5f015f6101000a81548173ffffffffffffffffffffffffffffffffffffffff021916908373ffffffffffffffffffffffffffffffffffffffff16021790555050565b60605f5f8473ffffffffffffffffffffffffffffffffffffffff168460405161186d9190611f84565b5f60405180830381855af49150503d805f81146118a5576040519150601f19603f3d011682016040523d82523d5f602084013e6118aa565b606091505b50915091506118ba858383611900565b9250505092915050565b5f3411156118fe576040517fb398979f00000000000000000000000000000000000000000000000000000000815260040160405180910390fd5b565b606082611915576119108261198d565b611985565b5f825114801561193b57505f8473ffffffffffffffffffffffffffffffffffffffff163b145b1561197d57836040517f9996b3150000000000000000000000000000000000000000000000000000000081526004016119749190611cab565b60405180910390fd5b819050611986565b5b9392505050565b5f8151111561199e57805160208201fd5b6040517fd6bda27500000000000000000000000000000000000000000000000000000000815260040160405180910390fd5b5f604051905090565b5f5ffd5b5f5ffd5b5f73ffffffffffffffffffffffffffffffffffffffff82169050919050565b5f611a0a826119e1565b9050919050565b611a1a81611a00565b8114611a24575f5ffd5b50565b5f81359050611a3581611a11565b92915050565b5f60208284031215611a5057611a4f6119d9565b5b5f611a5d84828501611a27565b91505092915050565b5f819050919050565b611a7881611a66565b82525050565b5f602082019050611a915f830184611a6f565b92915050565b5f5f60408385031215611aad57611aac6119d9565b5b5f611aba85828601611a27565b9250506020611acb85828601611a27565b9150509250929050565b5f5ffd5b5f5ffd5b5f601f19601f8301169050919050565b7f4e487b71000000000000000000000000000000000000000000000000000000005f52604160045260245ffd5b611b2382611add565b810181811067ffffffffffffffff82111715611b4257611b41611aed565b5b80604052505050565b5f611b546119d0565b9050611b608282611b1a565b919050565b5f67ffffffffffffffff821115611b7f57611b7e611aed565b5b611b8882611add565b9050602081019050919050565b828183375f83830152505050565b5f611bb5611bb084611b65565b611b4b565b905082815260208101848484011115611bd157611bd0611ad9565b5b611bdc848285611b95565b509392505050565b5f82601f830112611bf857611bf7611ad5565b5b8135611c08848260208601611ba3565b91505092915050565b5f5f60408385031215611c2757611c266119d9565b5b5f611c3485828601611a27565b925050602083013567ffffffffffffffff811115611c5557611c546119dd565b5b611c6185828601611be4565b9150509250929050565b5f819050919050565b611c7d81611c6b565b82525050565b5f602082019050611c965f830184611c74565b92915050565b611ca581611a00565b82525050565b5f602082019050611cbe5f830184611c9c565b92915050565b5f81519050919050565b5f82825260208201905092915050565b8281835e5f83830152505050565b5f611cf682611cc4565b611d008185611cce565b9350611d10818560208601611cde565b611d1981611add565b840191505092915050565b5f6020820190508181035f830152611d3c8184611cec565b905092915050565b5f611d4e82611a00565b9050919050565b611d5e81611d44565b8114611d68575f5ffd5b50565b5f81359050611d7981611d55565b92915050565b5f5f60408385031215611d9557611d946119d9565b5b5f611da285828601611a27565b9250506020611db385828601611d6b565b9150509250929050565b5f819050919050565b5f611de0611ddb611dd6846119e1565b611dbd565b6119e1565b9050919050565b5f611df182611dc6565b9050919050565b5f611e0282611de7565b9050919050565b611e1281611df8565b82525050565b5f602082019050611e2b5f830184611e09565b92915050565b611e3a81611a66565b8114611e44575f5ffd5b50565b5f81519050611e5581611e31565b92915050565b5f60208284031215611e7057611e6f6119d9565b5b5f611e7d84828501611e47565b91505092915050565b5f819050919050565b5f67ffffffffffffffff82169050919050565b5f611ebc611eb7611eb284611e86565b611dbd565b611e8f565b9050919050565b611ecc81611ea2565b82525050565b5f602082019050611ee55f830184611ec3565b92915050565b611ef481611c6b565b8114611efe575f5ffd5b50565b5f81519050611f0f81611eeb565b92915050565b5f60208284031215611f2a57611f296119d9565b5b5f611f3784828501611f01565b91505092915050565b5f81519050919050565b5f81905092915050565b5f611f5e82611f40565b611f688185611f4a565b9350611f78818560208601611cde565b80840191505092915050565b5f611f8f8284611f54565b91508190509291505056fea2646970667358221220ae9f13b5a81720ee7cfa117c5345ca3eaea5eae5481412af1f8aef98aa3337d964736f6c634300081c0033",
  "linkReferences": {},
  "deployedLinkReferences": {}
}