{
  "_format": "hh-sol-artifact-1",
  "contractName": "UtilitiesLibTest",
  "sourceName": "contracts/test/UtilitiesLibTest.sol",
  "abi": [
    {
      "inputs": [
        {
          "internalType": "uint256",
          "name": "value",
          "type": "uint256"
        },
        {
          "internalType": "uint8",
          "name": "fromDecimals",
          "type": "uint8"
        },
        {
          "internalType": "uint8",
          "name": "toDecimals",
          "type": "uint8"
        }
      ],
      "name": "convertDecimals",
      "outputs": [
        {
          "internalType": "uint256",
          "name": "result",
          "type": "uint256"
        }
      ],
      "stateMutability": "pure",
      "type": "function"
    }
  ],
  "bytecode": "0x6080604052348015600e575f5ffd5b506102b08061001c5f395ff3fe608060405234801561000f575f5ffd5b5060043610610029575f3560e01c80636ae649051461002d575b5f5ffd5b61004061003b3660046100e7565b610052565b60405190815260200160405180910390f35b5f61005e848484610068565b90505b9392505050565b5f8260ff168260ff16111561009d576100818383610134565b61008c90600a610236565b6100969085610244565b9050610061565b8260ff168260ff1610156100ca576100b58284610134565b6100c090600a610236565b610096908561025b565b509192915050565b803560ff811681146100e2575f5ffd5b919050565b5f5f5f606084860312156100f9575f5ffd5b83359250610109602085016100d2565b9150610117604085016100d2565b90509250925092565b634e487b7160e01b5f52601160045260245ffd5b60ff828116828216039081111561014d5761014d610120565b92915050565b6001815b600184111561018e5780850481111561017257610172610120565b600184161561018057908102905b60019390931c928002610157565b935093915050565b5f826101a45750600161014d565b816101b057505f61014d565b81600181146101c657600281146101d0576101ec565b600191505061014d565b60ff8411156101e1576101e1610120565b50506001821b61014d565b5060208310610133831016604e8410600b841016171561020f575081810a61014d565b61021b5f198484610153565b805f190482111561022e5761022e610120565b029392505050565b5f61006160ff841683610196565b808202811582820484141761014d5761014d610120565b5f8261027557634e487b7160e01b5f52601260045260245ffd5b50049056fea2646970667358221220af8a16e0eaa1a21c2531fd0fd4d6246d9d2d8b64202787956a164aa3f4c1f98664736f6c634300081c0033",
  "linkReferences": {},
  "deployedLinkReferences": {}
}