{
  "_format": "hh-sol-artifact-1",
  "contractName": "OrionTransparentVault",
  "sourceName": "contracts/vaults/OrionTransparentVault.sol",
  "abi": [
    {
      "inputs": [
        {
          "internalType": "address",
          "name": "target",
          "type": "address"
        }
      ],
      "name": "AddressEmptyCode",
      "type": "error"
    },
    {
      "inputs": [
        {
          "internalType": "address",
          "name": "asset",
          "type": "address"
        }
      ],
      "name": "AmountMustBeGreaterThanZero",
      "type": "error"
    },
    {
      "inputs": [
        {
          "internalType": "address",
          "name": "implementation",
          "type": "address"
        }
      ],
      "name": "ERC1967InvalidImplementation",
      "type": "error"
    },
    {
      "inputs": [],
      "name": "ERC1967NonPayable",
      "type": "error"
    },
    {
      "inputs": [
        {
          "internalType": "address",
          "name": "spender",
          "type": "address"
        },
        {
          "internalType": "uint256",
          "name": "allowance",
          "type": "uint256"
        },
        {
          "internalType": "uint256",
          "name": "needed",
          "type": "uint256"
        }
      ],
      "name": "ERC20InsufficientAllowance",
      "type": "error"
    },
    {
      "inputs": [
        {
          "internalType": "address",
          "name": "sender",
          "type": "address"
        },
        {
          "internalType": "uint256",
          "name": "balance",
          "type": "uint256"
        },
        {
          "internalType": "uint256",
          "name": "needed",
          "type": "uint256"
        }
      ],
      "name": "ERC20InsufficientBalance",
      "type": "error"
    },
    {
      "inputs": [
        {
          "internalType": "address",
          "name": "approver",
          "type": "address"
        }
      ],
      "name": "ERC20InvalidApprover",
      "type": "error"
    },
    {
      "inputs": [
        {
          "internalType": "address",
          "name": "receiver",
          "type": "address"
        }
      ],
      "name": "ERC20InvalidReceiver",
      "type": "error"
    },
    {
      "inputs": [
        {
          "internalType": "address",
          "name": "sender",
          "type": "address"
        }
      ],
      "name": "ERC20InvalidSender",
      "type": "error"
    },
    {
      "inputs": [
        {
          "internalType": "address",
          "name": "spender",
          "type": "address"
        }
      ],
      "name": "ERC20InvalidSpender",
      "type": "error"
    },
    {
      "inputs": [
        {
          "internalType": "address",
          "name": "receiver",
          "type": "address"
        },
        {
          "internalType": "uint256",
          "name": "assets",
          "type": "uint256"
        },
        {
          "internalType": "uint256",
          "name": "max",
          "type": "uint256"
        }
      ],
      "name": "ERC4626ExceededMaxDeposit",
      "type": "error"
    },
    {
      "inputs": [
        {
          "internalType": "address",
          "name": "receiver",
          "type": "address"
        },
        {
          "internalType": "uint256",
          "name": "shares",
          "type": "uint256"
        },
        {
          "internalType": "uint256",
          "name": "max",
          "type": "uint256"
        }
      ],
      "name": "ERC4626ExceededMaxMint",
      "type": "error"
    },
    {
      "inputs": [
        {
          "internalType": "address",
          "name": "owner",
          "type": "address"
        },
        {
          "internalType": "uint256",
          "name": "shares",
          "type": "uint256"
        },
        {
          "internalType": "uint256",
          "name": "max",
          "type": "uint256"
        }
      ],
      "name": "ERC4626ExceededMaxRedeem",
      "type": "error"
    },
    {
      "inputs": [
        {
          "internalType": "address",
          "name": "owner",
          "type": "address"
        },
        {
          "internalType": "uint256",
          "name": "assets",
          "type": "uint256"
        },
        {
          "internalType": "uint256",
          "name": "max",
          "type": "uint256"
        }
      ],
      "name": "ERC4626ExceededMaxWithdraw",
      "type": "error"
    },
    {
      "inputs": [],
      "name": "FailedCall",
      "type": "error"
    },
    {
      "inputs": [
        {
          "internalType": "address",
          "name": "sender",
          "type": "address"
        },
        {
          "internalType": "uint256",
          "name": "balance",
          "type": "uint256"
        },
        {
          "internalType": "uint256",
          "name": "amount",
          "type": "uint256"
        }
      ],
      "name": "InsufficientFunds",
      "type": "error"
    },
    {
      "inputs": [],
      "name": "InvalidConfigAddress",
      "type": "error"
    },
    {
      "inputs": [],
      "name": "InvalidCuratorAddress",
      "type": "error"
    },
    {
      "inputs": [],
      "name": "InvalidInitialization",
      "type": "error"
    },
    {
      "inputs": [],
      "name": "InvalidTotalWeight",
      "type": "error"
    },
    {
      "inputs": [],
      "name": "InvalidUnderlyingDecimals",
      "type": "error"
    },
    {
      "inputs": [],
      "name": "NotCurator",
      "type": "error"
    },
    {
      "inputs": [],
      "name": "NotEnoughDepositRequest",
      "type": "error"
    },
    {
      "inputs": [],
      "name": "NotEnoughWithdrawRequest",
      "type": "error"
    },
    {
      "inputs": [],
      "name": "NotInitializing",
      "type": "error"
    },
    {
      "inputs": [],
      "name": "NotLiquidityOrchestrator",
      "type": "error"
    },
    {
      "inputs": [],
      "name": "OrderIntentCannotBeEmpty",
      "type": "error"
    },
    {
      "inputs": [
        {
          "internalType": "address",
          "name": "owner",
          "type": "address"
        }
      ],
      "name": "OwnableInvalidOwner",
      "type": "error"
    },
    {
      "inputs": [
        {
          "internalType": "address",
          "name": "account",
          "type": "address"
        }
      ],
      "name": "OwnableUnauthorizedAccount",
      "type": "error"
    },
    {
      "inputs": [],
      "name": "ReentrancyGuardReentrantCall",
      "type": "error"
    },
    {
      "inputs": [],
      "name": "SharesMustBeGreaterThanZero",
      "type": "error"
    },
    {
      "inputs": [],
      "name": "SynchronousCallDisabled",
      "type": "error"
    },
    {
      "inputs": [
        {
          "internalType": "address",
          "name": "token",
          "type": "address"
        }
      ],
      "name": "TokenAlreadyInOrder",
      "type": "error"
    },
    {
      "inputs": [
        {
          "internalType": "address",
          "name": "token",
          "type": "address"
        }
      ],
      "name": "TokenNotWhitelisted",
      "type": "error"
    },
    {
      "inputs": [],
      "name": "TransferFailed",
      "type": "error"
    },
    {
      "inputs": [],
      "name": "UUPSUnauthorizedCallContext",
      "type": "error"
    },
    {
      "inputs": [
        {
          "internalType": "bytes32",
          "name": "slot",
          "type": "bytes32"
        }
      ],
      "name": "UUPSUnsupportedProxiableUUID",
      "type": "error"
    },
    {
      "anonymous": false,
      "inputs": [
        {
          "indexed": true,
          "internalType": "address",
          "name": "owner",
          "type": "address"
        },
        {
          "indexed": true,
          "internalType": "address",
          "name": "spender",
          "type": "address"
        },
        {
          "indexed": false,
          "internalType": "uint256",
          "name": "value",
          "type": "uint256"
        }
      ],
      "name": "Approval",
      "type": "event"
    },
    {
      "anonymous": false,
      "inputs": [
        {
          "indexed": true,
          "internalType": "address",
          "name": "sender",
          "type": "address"
        },
        {
          "indexed": true,
          "internalType": "address",
          "name": "owner",
          "type": "address"
        },
        {
          "indexed": false,
          "internalType": "uint256",
          "name": "assets",
          "type": "uint256"
        },
        {
          "indexed": false,
          "internalType": "uint256",
          "name": "shares",
          "type": "uint256"
        }
      ],
      "name": "Deposit",
      "type": "event"
    },
    {
      "anonymous": false,
      "inputs": [
        {
          "indexed": true,
          "internalType": "address",
          "name": "user",
          "type": "address"
        },
        {
          "indexed": false,
          "internalType": "uint256",
          "name": "amount",
          "type": "uint256"
        }
      ],
      "name": "DepositProcessed",
      "type": "event"
    },
    {
      "anonymous": false,
      "inputs": [
        {
          "indexed": true,
          "internalType": "address",
          "name": "user",
          "type": "address"
        },
        {
          "indexed": false,
          "internalType": "uint256",
          "name": "amount",
          "type": "uint256"
        }
      ],
      "name": "DepositRequestCancelled",
      "type": "event"
    },
    {
      "anonymous": false,
      "inputs": [
        {
          "indexed": true,
          "internalType": "address",
          "name": "user",
          "type": "address"
        },
        {
          "indexed": false,
          "internalType": "uint256",
          "name": "amount",
          "type": "uint256"
        }
      ],
      "name": "DepositRequested",
      "type": "event"
    },
    {
      "anonymous": false,
      "inputs": [
        {
          "indexed": false,
          "internalType": "uint64",
          "name": "version",
          "type": "uint64"
        }
      ],
      "name": "Initialized",
      "type": "event"
    },
    {
      "anonymous": false,
      "inputs": [
        {
          "indexed": true,
          "internalType": "address",
          "name": "curator",
          "type": "address"
        }
      ],
      "name": "OrderSubmitted",
      "type": "event"
    },
    {
      "anonymous": false,
      "inputs": [
        {
          "indexed": true,
          "internalType": "address",
          "name": "previousOwner",
          "type": "address"
        },
        {
          "indexed": true,
          "internalType": "address",
          "name": "newOwner",
          "type": "address"
        }
      ],
      "name": "OwnershipTransferStarted",
      "type": "event"
    },
    {
      "anonymous": false,
      "inputs": [
        {
          "indexed": true,
          "internalType": "address",
          "name": "previousOwner",
          "type": "address"
        },
        {
          "indexed": true,
          "internalType": "address",
          "name": "newOwner",
          "type": "address"
        }
      ],
      "name": "OwnershipTransferred",
      "type": "event"
    },
    {
      "anonymous": false,
      "inputs": [
        {
          "indexed": true,
          "internalType": "address",
          "name": "from",
          "type": "address"
        },
        {
          "indexed": true,
          "internalType": "address",
          "name": "to",
          "type": "address"
        },
        {
          "indexed": false,
          "internalType": "uint256",
          "name": "value",
          "type": "uint256"
        }
      ],
      "name": "Transfer",
      "type": "event"
    },
    {
      "anonymous": false,
      "inputs": [
        {
          "indexed": true,
          "internalType": "address",
          "name": "implementation",
          "type": "address"
        }
      ],
      "name": "Upgraded",
      "type": "event"
    },
    {
      "anonymous": false,
      "inputs": [
        {
          "indexed": false,
          "internalType": "uint256",
          "name": "newTotalAssets",
          "type": "uint256"
        }
      ],
      "name": "VaultStateUpdated",
      "type": "event"
    },
    {
      "anonymous": false,
      "inputs": [
        {
          "indexed": true,
          "internalType": "address",
          "name": "sender",
          "type": "address"
        },
        {
          "indexed": true,
          "internalType": "address",
          "name": "receiver",
          "type": "address"
        },
        {
          "indexed": true,
          "internalType": "address",
          "name": "owner",
          "type": "address"
        },
        {
          "indexed": false,
          "internalType": "uint256",
          "name": "assets",
          "type": "uint256"
        },
        {
          "indexed": false,
          "internalType": "uint256",
          "name": "shares",
          "type": "uint256"
        }
      ],
      "name": "Withdraw",
      "type": "event"
    },
    {
      "anonymous": false,
      "inputs": [
        {
          "indexed": true,
          "internalType": "address",
          "name": "user",
          "type": "address"
        },
        {
          "indexed": false,
          "internalType": "uint256",
          "name": "shares",
          "type": "uint256"
        }
      ],
      "name": "WithdrawProcessed",
      "type": "event"
    },
    {
      "anonymous": false,
      "inputs": [
        {
          "indexed": true,
          "internalType": "address",
          "name": "user",
          "type": "address"
        },
        {
          "indexed": false,
          "internalType": "uint256",
          "name": "shares",
          "type": "uint256"
        }
      ],
      "name": "WithdrawRequestCancelled",
      "type": "event"
    },
    {
      "anonymous": false,
      "inputs": [
        {
          "indexed": true,
          "internalType": "address",
          "name": "user",
          "type": "address"
        },
        {
          "indexed": false,
          "internalType": "uint256",
          "name": "shares",
          "type": "uint256"
        }
      ],
      "name": "WithdrawRequested",
      "type": "event"
    },
    {
      "inputs": [],
      "name": "UPGRADE_INTERFACE_VERSION",
      "outputs": [
        {
          "internalType": "string",
          "name": "",
          "type": "string"
        }
      ],
      "stateMutability": "view",
      "type": "function"
    },
    {
      "inputs": [],
      "name": "acceptOwnership",
      "outputs": [],
      "stateMutability": "nonpayable",
      "type": "function"
    },
    {
      "inputs": [
        {
          "internalType": "address",
          "name": "owner",
          "type": "address"
        },
        {
          "internalType": "address",
          "name": "spender",
          "type": "address"
        }
      ],
      "name": "allowance",
      "outputs": [
        {
          "internalType": "uint256",
          "name": "",
          "type": "uint256"
        }
      ],
      "stateMutability": "view",
      "type": "function"
    },
    {
      "inputs": [
        {
          "internalType": "address",
          "name": "spender",
          "type": "address"
        },
        {
          "internalType": "uint256",
          "name": "value",
          "type": "uint256"
        }
      ],
      "name": "approve",
      "outputs": [
        {
          "internalType": "bool",
          "name": "",
          "type": "bool"
        }
      ],
      "stateMutability": "nonpayable",
      "type": "function"
    },
    {
      "inputs": [],
      "name": "asset",
      "outputs": [
        {
          "internalType": "address",
          "name": "",
          "type": "address"
        }
      ],
      "stateMutability": "view",
      "type": "function"
    },
    {
      "inputs": [
        {
          "internalType": "address",
          "name": "account",
          "type": "address"
        }
      ],
      "name": "balanceOf",
      "outputs": [
        {
          "internalType": "uint256",
          "name": "",
          "type": "uint256"
        }
      ],
      "stateMutability": "view",
      "type": "function"
    },
    {
      "inputs": [
        {
          "internalType": "uint256",
          "name": "amount",
          "type": "uint256"
        }
      ],
      "name": "cancelDepositRequest",
      "outputs": [],
      "stateMutability": "nonpayable",
      "type": "function"
    },
    {
      "inputs": [
        {
          "internalType": "uint256",
          "name": "shares",
          "type": "uint256"
        }
      ],
      "name": "cancelWithdrawRequest",
      "outputs": [],
      "stateMutability": "nonpayable",
      "type": "function"
    },
    {
      "inputs": [],
      "name": "config",
      "outputs": [
        {
          "internalType": "contract IOrionConfig",
          "name": "",
          "type": "address"
        }
      ],
      "stateMutability": "view",
      "type": "function"
    },
    {
      "inputs": [
        {
          "internalType": "uint256",
          "name": "shares",
          "type": "uint256"
        }
      ],
      "name": "convertToAssets",
      "outputs": [
        {
          "internalType": "uint256",
          "name": "",
          "type": "uint256"
        }
      ],
      "stateMutability": "view",
      "type": "function"
    },
    {
      "inputs": [
        {
          "internalType": "uint256",
          "name": "shares",
          "type": "uint256"
        },
        {
          "internalType": "uint256",
          "name": "pointInTimeTotalAssets",
          "type": "uint256"
        },
        {
          "internalType": "enum Math.Rounding",
          "name": "rounding",
          "type": "uint8"
        }
      ],
      "name": "convertToAssetsWithPITTotalAssets",
      "outputs": [
        {
          "internalType": "uint256",
          "name": "",
          "type": "uint256"
        }
      ],
      "stateMutability": "view",
      "type": "function"
    },
    {
      "inputs": [
        {
          "internalType": "uint256",
          "name": "assets",
          "type": "uint256"
        }
      ],
      "name": "convertToShares",
      "outputs": [
        {
          "internalType": "uint256",
          "name": "",
          "type": "uint256"
        }
      ],
      "stateMutability": "view",
      "type": "function"
    },
    {
      "inputs": [],
      "name": "curator",
      "outputs": [
        {
          "internalType": "address",
          "name": "",
          "type": "address"
        }
      ],
      "stateMutability": "view",
      "type": "function"
    },
    {
      "inputs": [],
      "name": "decimals",
      "outputs": [
        {
          "internalType": "uint8",
          "name": "",
          "type": "uint8"
        }
      ],
      "stateMutability": "view",
      "type": "function"
    },
    {
      "inputs": [],
      "name": "deployer",
      "outputs": [
        {
          "internalType": "address",
          "name": "",
          "type": "address"
        }
      ],
      "stateMutability": "view",
      "type": "function"
    },
    {
      "inputs": [
        {
          "internalType": "uint256",
          "name": "",
          "type": "uint256"
        },
        {
          "internalType": "address",
          "name": "",
          "type": "address"
        }
      ],
      "name": "deposit",
      "outputs": [
        {
          "internalType": "uint256",
          "name": "",
          "type": "uint256"
        }
      ],
      "stateMutability": "pure",
      "type": "function"
    },
    {
      "inputs": [],
      "name": "getIntent",
      "outputs": [
        {
          "internalType": "address[]",
          "name": "tokens",
          "type": "address[]"
        },
        {
          "internalType": "uint256[]",
          "name": "weights",
          "type": "uint256[]"
        }
      ],
      "stateMutability": "view",
      "type": "function"
    },
    {
      "inputs": [],
      "name": "getPendingDeposits",
      "outputs": [
        {
          "internalType": "uint256",
          "name": "",
          "type": "uint256"
        }
      ],
      "stateMutability": "view",
      "type": "function"
    },
    {
      "inputs": [],
      "name": "getPendingWithdrawals",
      "outputs": [
        {
          "internalType": "uint256",
          "name": "",
          "type": "uint256"
        }
      ],
      "stateMutability": "view",
      "type": "function"
    },
    {
      "inputs": [],
      "name": "getPortfolio",
      "outputs": [
        {
          "internalType": "address[]",
          "name": "tokens",
          "type": "address[]"
        },
        {
          "internalType": "uint256[]",
          "name": "sharesPerAsset",
          "type": "uint256[]"
        }
      ],
      "stateMutability": "view",
      "type": "function"
    },
    {
      "inputs": [
        {
          "internalType": "address",
          "name": "curatorAddress",
          "type": "address"
        },
        {
          "internalType": "contract IOrionConfig",
          "name": "configAddress",
          "type": "address"
        },
        {
          "internalType": "string",
          "name": "name",
          "type": "string"
        },
        {
          "internalType": "string",
          "name": "symbol",
          "type": "string"
        }
      ],
      "name": "initialize",
      "outputs": [],
      "stateMutability": "nonpayable",
      "type": "function"
    },
    {
      "inputs": [
        {
          "internalType": "address",
          "name": "",
          "type": "address"
        }
      ],
      "name": "maxDeposit",
      "outputs": [
        {
          "internalType": "uint256",
          "name": "",
          "type": "uint256"
        }
      ],
      "stateMutability": "view",
      "type": "function"
    },
    {
      "inputs": [
        {
          "internalType": "address",
          "name": "",
          "type": "address"
        }
      ],
      "name": "maxMint",
      "outputs": [
        {
          "internalType": "uint256",
          "name": "",
          "type": "uint256"
        }
      ],
      "stateMutability": "view",
      "type": "function"
    },
    {
      "inputs": [
        {
          "internalType": "address",
          "name": "owner",
          "type": "address"
        }
      ],
      "name": "maxRedeem",
      "outputs": [
        {
          "internalType": "uint256",
          "name": "",
          "type": "uint256"
        }
      ],
      "stateMutability": "view",
      "type": "function"
    },
    {
      "inputs": [
        {
          "internalType": "address",
          "name": "owner",
          "type": "address"
        }
      ],
      "name": "maxWithdraw",
      "outputs": [
        {
          "internalType": "uint256",
          "name": "",
          "type": "uint256"
        }
      ],
      "stateMutability": "view",
      "type": "function"
    },
    {
      "inputs": [
        {
          "internalType": "uint256",
          "name": "",
          "type": "uint256"
        },
        {
          "internalType": "address",
          "name": "",
          "type": "address"
        }
      ],
      "name": "mint",
      "outputs": [
        {
          "internalType": "uint256",
          "name": "",
          "type": "uint256"
        }
      ],
      "stateMutability": "pure",
      "type": "function"
    },
    {
      "inputs": [],
      "name": "name",
      "outputs": [
        {
          "internalType": "string",
          "name": "",
          "type": "string"
        }
      ],
      "stateMutability": "view",
      "type": "function"
    },
    {
      "inputs": [],
      "name": "owner",
      "outputs": [
        {
          "internalType": "address",
          "name": "",
          "type": "address"
        }
      ],
      "stateMutability": "view",
      "type": "function"
    },
    {
      "inputs": [],
      "name": "pendingOwner",
      "outputs": [
        {
          "internalType": "address",
          "name": "",
          "type": "address"
        }
      ],
      "stateMutability": "view",
      "type": "function"
    },
    {
      "inputs": [
        {
          "internalType": "uint256",
          "name": "assets",
          "type": "uint256"
        }
      ],
      "name": "previewDeposit",
      "outputs": [
        {
          "internalType": "uint256",
          "name": "",
          "type": "uint256"
        }
      ],
      "stateMutability": "view",
      "type": "function"
    },
    {
      "inputs": [
        {
          "internalType": "uint256",
          "name": "shares",
          "type": "uint256"
        }
      ],
      "name": "previewMint",
      "outputs": [
        {
          "internalType": "uint256",
          "name": "",
          "type": "uint256"
        }
      ],
      "stateMutability": "view",
      "type": "function"
    },
    {
      "inputs": [
        {
          "internalType": "uint256",
          "name": "shares",
          "type": "uint256"
        }
      ],
      "name": "previewRedeem",
      "outputs": [
        {
          "internalType": "uint256",
          "name": "",
          "type": "uint256"
        }
      ],
      "stateMutability": "view",
      "type": "function"
    },
    {
      "inputs": [
        {
          "internalType": "uint256",
          "name": "assets",
          "type": "uint256"
        }
      ],
      "name": "previewWithdraw",
      "outputs": [
        {
          "internalType": "uint256",
          "name": "",
          "type": "uint256"
        }
      ],
      "stateMutability": "view",
      "type": "function"
    },
    {
      "inputs": [],
      "name": "processDepositRequests",
      "outputs": [],
      "stateMutability": "nonpayable",
      "type": "function"
    },
    {
      "inputs": [],
      "name": "processWithdrawRequests",
      "outputs": [],
      "stateMutability": "nonpayable",
      "type": "function"
    },
    {
      "inputs": [],
      "name": "proxiableUUID",
      "outputs": [
        {
          "internalType": "bytes32",
          "name": "",
          "type": "bytes32"
        }
      ],
      "stateMutability": "view",
      "type": "function"
    },
    {
      "inputs": [
        {
          "internalType": "uint256",
          "name": "",
          "type": "uint256"
        },
        {
          "internalType": "address",
          "name": "",
          "type": "address"
        },
        {
          "internalType": "address",
          "name": "",
          "type": "address"
        }
      ],
      "name": "redeem",
      "outputs": [
        {
          "internalType": "uint256",
          "name": "",
          "type": "uint256"
        }
      ],
      "stateMutability": "pure",
      "type": "function"
    },
    {
      "inputs": [],
      "name": "renounceOwnership",
      "outputs": [],
      "stateMutability": "nonpayable",
      "type": "function"
    },
    {
      "inputs": [
        {
          "internalType": "uint256",
          "name": "amount",
          "type": "uint256"
        }
      ],
      "name": "requestDeposit",
      "outputs": [],
      "stateMutability": "nonpayable",
      "type": "function"
    },
    {
      "inputs": [
        {
          "internalType": "uint256",
          "name": "shares",
          "type": "uint256"
        }
      ],
      "name": "requestWithdraw",
      "outputs": [],
      "stateMutability": "nonpayable",
      "type": "function"
    },
    {
      "inputs": [
        {
          "components": [
            {
              "internalType": "address",
              "name": "token",
              "type": "address"
            },
            {
              "internalType": "uint32",
              "name": "value",
              "type": "uint32"
            }
          ],
          "internalType": "struct IOrionTransparentVault.Position[]",
          "name": "order",
          "type": "tuple[]"
        }
      ],
      "name": "submitIntent",
      "outputs": [],
      "stateMutability": "nonpayable",
      "type": "function"
    },
    {
      "inputs": [],
      "name": "symbol",
      "outputs": [
        {
          "internalType": "string",
          "name": "",
          "type": "string"
        }
      ],
      "stateMutability": "view",
      "type": "function"
    },
    {
      "inputs": [],
      "name": "totalAssets",
      "outputs": [
        {
          "internalType": "uint256",
          "name": "",
          "type": "uint256"
        }
      ],
      "stateMutability": "view",
      "type": "function"
    },
    {
      "inputs": [],
      "name": "totalSupply",
      "outputs": [
        {
          "internalType": "uint256",
          "name": "",
          "type": "uint256"
        }
      ],
      "stateMutability": "view",
      "type": "function"
    },
    {
      "inputs": [
        {
          "internalType": "address",
          "name": "to",
          "type": "address"
        },
        {
          "internalType": "uint256",
          "name": "value",
          "type": "uint256"
        }
      ],
      "name": "transfer",
      "outputs": [
        {
          "internalType": "bool",
          "name": "",
          "type": "bool"
        }
      ],
      "stateMutability": "nonpayable",
      "type": "function"
    },
    {
      "inputs": [
        {
          "internalType": "address",
          "name": "from",
          "type": "address"
        },
        {
          "internalType": "address",
          "name": "to",
          "type": "address"
        },
        {
          "internalType": "uint256",
          "name": "value",
          "type": "uint256"
        }
      ],
      "name": "transferFrom",
      "outputs": [
        {
          "internalType": "bool",
          "name": "",
          "type": "bool"
        }
      ],
      "stateMutability": "nonpayable",
      "type": "function"
    },
    {
      "inputs": [
        {
          "internalType": "address",
          "name": "newOwner",
          "type": "address"
        }
      ],
      "name": "transferOwnership",
      "outputs": [],
      "stateMutability": "nonpayable",
      "type": "function"
    },
    {
      "inputs": [
        {
          "components": [
            {
              "internalType": "address",
              "name": "token",
              "type": "address"
            },
            {
              "internalType": "uint32",
              "name": "value",
              "type": "uint32"
            }
          ],
          "internalType": "struct IOrionTransparentVault.Position[]",
          "name": "portfolio",
          "type": "tuple[]"
        },
        {
          "internalType": "uint256",
          "name": "newTotalAssets",
          "type": "uint256"
        }
      ],
      "name": "updateVaultState",
      "outputs": [],
      "stateMutability": "nonpayable",
      "type": "function"
    },
    {
      "inputs": [
        {
          "internalType": "address",
          "name": "newImplementation",
          "type": "address"
        },
        {
          "internalType": "bytes",
          "name": "data",
          "type": "bytes"
        }
      ],
      "name": "upgradeToAndCall",
      "outputs": [],
      "stateMutability": "payable",
      "type": "function"
    },
    {
      "inputs": [
        {
          "internalType": "uint256",
          "name": "",
          "type": "uint256"
        },
        {
          "internalType": "address",
          "name": "",
          "type": "address"
        },
        {
          "internalType": "address",
          "name": "",
          "type": "address"
        }
      ],
      "name": "withdraw",
      "outputs": [
        {
          "internalType": "uint256",
          "name": "",
          "type": "uint256"
        }
      ],
      "stateMutability": "pure",
      "type": "function"
    }
  ],
  "bytecode": "0x60a0604052306080523480156012575f5ffd5b50608051613c576100395f395f81816125fd0152818161262601526127880152613c575ff3fe6080604052600436106102bf575f3560e01c806395d89b411161016f578063c63d75b6116100d8578063d5f3948811610092578063e30c39781161006d578063e30c3978146107ae578063e66f53b7146107c2578063ef8b30f7146106cc578063f2fde38b146107e1575f5ffd5b8063d5f3948814610751578063d905777e14610770578063dd62ed3e1461078f575f5ffd5b8063c63d75b61461048b578063c6e6f592146106cc578063cce4705b146106eb578063ce96cb771461070a578063d1699c2614610729578063d3d034581461073d575f5ffd5b8063b3d7f6b911610129578063b3d7f6b91461063e578063b460af941461065d578063b6eba65314610677578063ba0876521461065d578063c0b568e114610699578063c37fc8a8146106b8575f5ffd5b806395d89b4114610589578063a68a52671461059d578063a9059cbb146105bc578063aa9d3a60146105db578063ad3cb1cc146105ef578063b1bd7e2e1461061f575f5ffd5b806338d52e0f1161022b57806370a08231116101e557806379502c55116101c057806379502c551461054357806379ba5097146105615780638da5cb5b1461057557806394bf804d146104d2575f5ffd5b806370a08231146104f1578063715018a614610510578063745400c914610524575f5ffd5b806338d52e0f1461045f578063402d267d1461048b5780634cdad506146103075780634f1ef286146104ab57806352d1902d146104be5780636e553f65146104d2575f5ffd5b8063105444941161027c578063105444941461039557806318160ddd146103b45780632016a0d2146103e757806323b872dd14610406578063313ce5671461042557806333fdc5921461044b575f5ffd5b806301e1d114146102c357806306fdde03146102e657806307a2d13a14610307578063095ea7b3146103265780630a28a477146103555780630d1e666714610374575b5f5ffd5b3480156102ce575f5ffd5b506003545b6040519081526020015b60405180910390f35b3480156102f1575f5ffd5b506102fa610800565b6040516102dd9190613348565b348015610312575f5ffd5b506102d361032136600461337d565b6108c0565b348015610331575f5ffd5b506103456103403660046133a8565b6108d1565b60405190151581526020016102dd565b348015610360575f5ffd5b506102d361036f36600461337d565b6108e8565b34801561037f575f5ffd5b5061039361038e36600461337d565b6108f4565b005b3480156103a0575f5ffd5b506103936103af366004613412565b610b7e565b3480156103bf575f5ffd5b507f52c63247e1f47db19d5ce0460030c497f067ca4cebf71ba98eeadabe20bace02546102d3565b3480156103f2575f5ffd5b50610393610401366004613496565b610ceb565b348015610411575f5ffd5b50610345610420366004613528565b610e51565b348015610430575f5ffd5b50610439610e76565b60405160ff90911681526020016102dd565b348015610456575f5ffd5b50610393610eb8565b34801561046a575f5ffd5b50610473611143565b6040516001600160a01b0390911681526020016102dd565b348015610496575f5ffd5b506102d36104a5366004613566565b505f1990565b6103936104b9366004613595565b611177565b3480156104c9575f5ffd5b506102d3611196565b3480156104dd575f5ffd5b506102d36104ec366004613658565b6111b1565b3480156104fc575f5ffd5b506102d361050b366004613566565b6111cb565b34801561051b575f5ffd5b506103936111f1565b34801561052f575f5ffd5b5061039361053e36600461337d565b611202565b34801561054e575f5ffd5b505f54610473906001600160a01b031681565b34801561056c575f5ffd5b506103936113e7565b348015610580575f5ffd5b5061047361142c565b348015610594575f5ffd5b506102fa611454565b3480156105a8575f5ffd5b506102d36105b7366004613686565b611492565b3480156105c7575f5ffd5b506103456105d63660046133a8565b6114eb565b3480156105e6575f5ffd5b506103936114f8565b3480156105fa575f5ffd5b506102fa604051806040016040528060058152602001640352e302e360dc1b81525081565b34801561062a575f5ffd5b506103936106393660046136bf565b611825565b348015610649575f5ffd5b506102d361065836600461337d565b611ad7565b348015610668575f5ffd5b506102d36104ec3660046136fd565b348015610682575f5ffd5b5061068b611ae3565b6040516102dd929190613731565b3480156106a4575f5ffd5b506103936106b336600461337d565b611bf7565b3480156106c3575f5ffd5b50600b546102d3565b3480156106d7575f5ffd5b506102d36106e636600461337d565b611da7565b3480156106f6575f5ffd5b5061039361070536600461337d565b611db2565b348015610715575f5ffd5b506102d3610724366004613566565b611f57565b348015610734575f5ffd5b50600a546102d3565b348015610748575f5ffd5b5061068b611f6a565b34801561075c575f5ffd5b50600254610473906001600160a01b031681565b34801561077b575f5ffd5b506102d361078a366004613566565b612078565b34801561079a575f5ffd5b506102d36107a93660046137ba565b612082565b3480156107b9575f5ffd5b506104736120cb565b3480156107cd575f5ffd5b50600154610473906001600160a01b031681565b3480156107ec575f5ffd5b506103936107fb366004613566565b6120f3565b7f52c63247e1f47db19d5ce0460030c497f067ca4cebf71ba98eeadabe20bace0380546060915f516020613bc25f395f51905f529161083e906137e6565b80601f016020809104026020016040519081016040528092919081815260200182805461086a906137e6565b80156108b55780601f1061088c576101008083540402835291602001916108b5565b820191905f5260205f20905b81548152906001019060200180831161089857829003601f168201915b505050505091505090565b5f6108cb825f612178565b92915050565b5f336108de818585612186565b5060019392505050565b5f6108cb826001612198565b6108fc6121f4565b805f036109355761090b611143565b604051636b30633560e01b81526001600160a01b0390911660048201526024015b60405180910390fd5b5f61093e611143565b6040516370a0823160e01b81523360048201526001600160a01b0391909116906370a0823190602401602060405180830381865afa158015610982573d5f5f3e3d5ffd5b505050506040513d601f19601f820116820180604052508101906109a6919061381e565b9050808211156109cf57338183604051632e2a182f60e11b815260040161092c93929190613835565b5f6109d8611143565b6001600160a01b03166323b872dd335f5f9054906101000a90046001600160a01b03166001600160a01b0316633a0dad8e6040518163ffffffff1660e01b8152600401602060405180830381865afa158015610a36573d5f5f3e3d5ffd5b505050506040513d601f19601f82011682018060405250810190610a5a9190613856565b6040516001600160e01b031960e085901b1681526001600160a01b03928316600482015291166024820152604481018690526064016020604051808303815f875af1158015610aab573d5f5f3e3d5ffd5b505050506040513d601f19601f82011682018060405250810190610acf9190613871565b905080610aef576040516312171d8360e31b815260040160405180910390fd5b5f610afb60043361222b565b9150610b16905033610b0d86846138a4565b60049190612251565b5083600a5f828254610b2891906138a4565b909155505060405184815233907f08d79f77ab5f78e7e780abb1f7ac9e9923340d5bae78f6e83e7999905b248ea29060200160405180910390a2505050610b7b60015f516020613c025f395f51905f5255565b50565b5f5f9054906101000a90046001600160a01b03166001600160a01b0316633a0dad8e6040518163ffffffff1660e01b8152600401602060405180830381865afa158015610bcd573d5f5f3e3d5ffd5b505050506040513d601f19601f82011682018060405250810190610bf19190613856565b6001600160a01b0316336001600160a01b031614610c2257604051631af2ab4f60e31b815260040160405180910390fd5b610c2c600d612279565b815f5b81811015610cac57610ca3858583818110610c4c57610c4c6138b7565b610c629260206040909202019081019150613566565b868684818110610c7457610c746138b7565b9050604002016020016020810190610c8c91906138cb565b63ffffffff16600d6122519092919063ffffffff16565b50600101610c2f565b5060038290556040518281527f5e1ff954b5e5257e9ee5d4cb07059e8f5e69b1aaaf9911e5d8d90a6894de9c219060200160405180910390a150505050565b5f610cf4612282565b805490915060ff600160401b82041615906001600160401b03165f81158015610d1a5750825b90505f826001600160401b03166001148015610d355750303b155b905081158015610d43575080155b15610d615760405163f92ee8a960e01b815260040160405180910390fd5b845467ffffffffffffffff191660011785558315610d8b57845460ff60401b1916600160401b1785555b610dfe8b8b8b8b8080601f0160208091040260200160405190810160405280939291908181526020018383808284375f9201919091525050604080516020601f8f018190048102820181019092528d815292508d91508c90819084018382808284375f920191909152506122aa92505050565b8315610e4457845460ff60401b19168555604051600181527fc7f505b2f371ae2175ee4913f4499e1f2633a7b5936321eed1cdaeb6115181d29060200160405180910390a15b5050505050505050505050565b5f33610e5e8582856124e4565b610e69858585612535565b60019150505b9392505050565b5f807f0773e532dfede91f04b12a73d3d2acd361424f41f76b4fb79f090161e36b4e0090505f8154610eb29190600160a01b900460ff166138ee565b91505090565b5f5f9054906101000a90046001600160a01b03166001600160a01b0316633a0dad8e6040518163ffffffff1660e01b8152600401602060405180830381865afa158015610f07573d5f5f3e3d5ffd5b505050506040513d601f19601f82011682018060405250810190610f2b9190613856565b6001600160a01b0316336001600160a01b031614610f5c57604051631af2ab4f60e31b815260040160405180910390fd5b610f646121f4565b5f610f6f6004612592565b90505f816001600160401b03811115610f8a57610f8a613581565b604051908082528060200260200182016040528015610fb3578160200160208202803683370190505b5090505f826001600160401b03811115610fcf57610fcf613581565b604051908082528060200260200182016040528015610ff8578160200160208202803683370190505b5090505f5b83811015611071575f8061101260048461259c565b9150915081858481518110611029576110296138b7565b60200260200101906001600160a01b031690816001600160a01b0316815250508084848151811061105c5761105c6138b7565b60209081029190910101525050600101610ffd565b505f5b83811015611126575f83828151811061108f5761108f6138b7565b602002602001015190505f8383815181106110ac576110ac6138b7565b602002602001015190505f6110c082611da7565b90506110cd6004846125aa565b506110d883826125be565b826001600160a01b03167f85a190caa61692b36b63a55e069330d18ab9af179fed7a25c16a4262bc63b7d28360405161111391815260200190565b60405180910390a2505050600101611074565b50505f600a55505060015f516020613c025f395f51905f5255565b565b5f807f0773e532dfede91f04b12a73d3d2acd361424f41f76b4fb79f090161e36b4e005b546001600160a01b031692915050565b61117f6125f2565b61118882612696565b61119282826126c1565b5050565b5f61119f61277d565b505f516020613be25f395f51905f5290565b5f60405163125ad87760e31b815260040160405180910390fd5b6001600160a01b03165f9081525f516020613bc25f395f51905f52602052604090205490565b6111f96127c6565b6111415f6127f8565b805f03611222576040516314e6cbb960e11b815260040160405180910390fd5b5f61122c336111cb565b90508082111561125557338183604051632e2a182f60e11b815260040161092c93929190613835565b5f306001600160a01b03166323b872dd335f5f9054906101000a90046001600160a01b03166001600160a01b0316633a0dad8e6040518163ffffffff1660e01b8152600401602060405180830381865afa1580156112b5573d5f5f3e3d5ffd5b505050506040513d601f19601f820116820180604052508101906112d99190613856565b6040516001600160e01b031960e085901b1681526001600160a01b03928316600482015291166024820152604481018690526064016020604051808303815f875af115801561132a573d5f5f3e3d5ffd5b505050506040513d601f19601f8201168201806040525081019061134e9190613871565b90508061136e576040516312171d8360e31b815260040160405180910390fd5b5f61137a60073361222b565b915061139590503361138c86846138a4565b60079190612251565b5083600b5f8282546113a791906138a4565b909155505060405184815233907ff7774b688d56120b783560a913ee60792a73dfd511812b7be5eccf10d08c66899060200160405180910390a250505050565b33806113f16120cb565b6001600160a01b0316146114235760405163118cdaa760e01b81526001600160a01b038216600482015260240161092c565b610b7b816127f8565b5f807f9016d09d72d40fdae2fd8ceac6b6234c7706214fd39c1cd1e609a0528c199300611167565b7f52c63247e1f47db19d5ce0460030c497f067ca4cebf71ba98eeadabe20bace0480546060915f516020613bc25f395f51905f529161083e906137e6565b5f5f6114bc7f52c63247e1f47db19d5ce0460030c497f067ca4cebf71ba98eeadabe20bace025490565b90506114e26114cc8560016138a4565b600c546114d990846138a4565b87919086612830565b95945050505050565b5f336108de818585612535565b5f5f9054906101000a90046001600160a01b03166001600160a01b0316633a0dad8e6040518163ffffffff1660e01b8152600401602060405180830381865afa158015611547573d5f5f3e3d5ffd5b505050506040513d601f19601f8201168201806040525081019061156b9190613856565b6001600160a01b0316336001600160a01b03161461159c57604051631af2ab4f60e31b815260040160405180910390fd5b6115a46121f4565b5f6115af6007612592565b90505f816001600160401b038111156115ca576115ca613581565b6040519080825280602002602001820160405280156115f3578160200160208202803683370190505b5090505f826001600160401b0381111561160f5761160f613581565b604051908082528060200260200182016040528015611638578160200160208202803683370190505b5090505f5b838110156116b1575f8061165260078461259c565b9150915081858481518110611669576116696138b7565b60200260200101906001600160a01b031690816001600160a01b0316815250508084848151811061169c5761169c6138b7565b6020908102919091010152505060010161163d565b505f600b8190555b8381101561180b575f8382815181106116d4576116d46138b7565b602002602001015190505f8383815181106116f1576116f16138b7565b6020026020010151905061170f8260076125aa90919063ffffffff16565b5061171a3082612872565b5f611724826108c0565b905061172e611143565b60405163a9059cbb60e01b81526001600160a01b03858116600483015260248201849052919091169063a9059cbb906044016020604051808303815f875af115801561177c573d5f5f3e3d5ffd5b505050506040513d601f19601f820116820180604052508101906117a09190613871565b6117bd576040516312171d8360e31b815260040160405180910390fd5b826001600160a01b03167f44b2ff9ffcefe2052a8afdbed44a04bf3db4592ae90c6b96c818bd28573e41e8836040516117f891815260200190565b60405180910390a25050506001016116b9565b5050505061114160015f516020613c025f395f51905f5255565b6001546001600160a01b03163314611850576040516356b381a560e01b815260040160405180910390fd5b5f81900361187157604051631121aa8d60e01b815260040160405180910390fd5b61187b6010612279565b5f81815b81811015611a05575f85858381811061189a5761189a6138b7565b6118b09260206040909202019081019150613566565b90505f8686848181106118c5576118c56138b7565b90506040020160200160208101906118dd91906138cb565b5f54604051633af32abf60e01b81526001600160a01b038581166004830152929350911690633af32abf90602401602060405180830381865afa158015611926573d5f5f3e3d5ffd5b505050506040513d601f19601f8201168201806040525081019061194a9190613871565b6119725760405163751dff9760e11b81526001600160a01b038316600482015260240161092c565b8063ffffffff165f036119a357604051636b30633560e01b81526001600160a01b038316600482015260240161092c565b5f6119b960108463ffffffff8086169061225116565b9050806119e4576040516346bdabe160e01b81526001600160a01b038416600482015260240161092c565b6119f463ffffffff8316876138a4565b9550506001909201915061187f9050565b505f5f5f9054906101000a90046001600160a01b03166001600160a01b031663d1717c7d6040518163ffffffff1660e01b8152600401602060405180830381865afa158015611a56573d5f5f3e3d5ffd5b505050506040513d601f19601f82011682018060405250810190611a7a9190613907565b9050611a8781600a613a0a565b8314611aa657604051639006dd2760e01b815260040160405180910390fd5b60405133907f2d47a742b8d7df7c1fc5a9a631b206b364e6cb2722490759f63bb3ab14b132e0905f90a25050505050565b5f6108cb826001612178565b6060805f611af16010612592565b9050806001600160401b03811115611b0b57611b0b613581565b604051908082528060200260200182016040528015611b34578160200160208202803683370190505b509250806001600160401b03811115611b4f57611b4f613581565b604051908082528060200260200182016040528015611b78578160200160208202803683370190505b5091505f5b81811015611bf1575f80611b9260108461259c565b9150915081868481518110611ba957611ba96138b7565b60200260200101906001600160a01b031690816001600160a01b03168152505080858481518110611bdc57611bdc6138b7565b60209081029190910101525050600101611b7d565b50509091565b611bff6121f4565b805f03611c0e5761090b611143565b5f611c1a60043361222b565b91505081811015611c3e576040516332194fd360e21b815260040160405180910390fd5b5f5f9054906101000a90046001600160a01b03166001600160a01b0316633a0dad8e6040518163ffffffff1660e01b8152600401602060405180830381865afa158015611c8d573d5f5f3e3d5ffd5b505050506040513d601f19601f82011682018060405250810190611cb19190613856565b6040516351edffb160e01b8152336004820152602481018490526001600160a01b0391909116906351edffb1906044015f604051808303815f87803b158015611cf8575f5ffd5b505af1158015611d0a573d5f5f3e3d5ffd5b505050505f8282611d1b9190613a18565b9050805f03611d3557611d2f6004336125aa565b50611d43565b611d4160043383612251565b505b82600a5f828254611d549190613a18565b909155505060405183815233907f96a9a6886cdf3047a125454218a23d3961fd3a78643123b248a9d106d0ac94fd906020015b60405180910390a25050610b7b60015f516020613c025f395f51905f5255565b5f6108cb825f612198565b611dba6121f4565b805f03611dda576040516314e6cbb960e11b815260040160405180910390fd5b5f611de660073361222b565b91505081811015611e0a576040516312ea1f4960e11b815260040160405180910390fd5b5f5f9054906101000a90046001600160a01b03166001600160a01b0316633a0dad8e6040518163ffffffff1660e01b8152600401602060405180830381865afa158015611e59573d5f5f3e3d5ffd5b505050506040513d601f19601f82011682018060405250810190611e7d9190613856565b6040516305f0c35960e51b8152336004820152602481018490526001600160a01b03919091169063be186b20906044015f604051808303815f87803b158015611ec4575f5ffd5b505af1158015611ed6573d5f5f3e3d5ffd5b505050505f8282611ee79190613a18565b9050805f03611f0157611efb6007336125aa565b50611f0f565b611f0d60073383612251565b505b82600b5f828254611f209190613a18565b909155505060405183815233907f9cf37535785001dcc9767688232fcbc8698b3002d1207b50bc2afec3ff8934dc90602001611d87565b5f6108cb611f64836111cb565b5f612178565b6060805f611f78600d612592565b9050806001600160401b03811115611f9257611f92613581565b604051908082528060200260200182016040528015611fbb578160200160208202803683370190505b509250806001600160401b03811115611fd657611fd6613581565b604051908082528060200260200182016040528015611fff578160200160208202803683370190505b5091505f5b81811015611bf1575f80612019600d8461259c565b9150915081868481518110612030576120306138b7565b60200260200101906001600160a01b031690816001600160a01b03168152505080858481518110612063576120636138b7565b60209081029190910101525050600101612004565b5f6108cb826111cb565b6001600160a01b039182165f9081527f52c63247e1f47db19d5ce0460030c497f067ca4cebf71ba98eeadabe20bace016020908152604080832093909416825291909152205490565b5f807f237e158222e3e6968b72b9db0d8043aacf074ad9f650f0d1606b4d82ee432c00611167565b6120fb6127c6565b7f237e158222e3e6968b72b9db0d8043aacf074ad9f650f0d1606b4d82ee432c0080546001600160a01b0319166001600160a01b038316908117825561213f61142c565b6001600160a01b03167f38d16b8cac22d99fc7c124b9cd0de2d3fa1faef420bfe791d8c362d765e2270060405160405180910390a35050565b5f610e6f8360035484611492565b61219383838360016128a6565b505050565b5f5f6121c27f52c63247e1f47db19d5ce0460030c497f067ca4cebf71ba98eeadabe20bace025490565b90506121ec600c54826121d591906138a4565b6003546121e39060016138a4565b86919086612830565b949350505050565b5f516020613c025f395f51905f5280546001190161222557604051633ee5aeb560e01b815260040160405180910390fd5b60029055565b5f808080612242866001600160a01b03871661298a565b909450925050505b9250929050565b5f6121ec846001600160a01b038516846129c2565b60015f516020613c025f395f51905f5255565b610b7b816129de565b5f807ff0c57e16840df040f15088dc2f81fe391c3923bec73e23a9662efc9c229c6a006108cb565b6122b2612a27565b6001600160a01b0384166122d957604051639c6bb9f560e01b815260040160405180910390fd5b6001600160a01b03831661230057604051636a485a5b60e11b815260040160405180910390fd5b61230a8282612a4c565b612372836001600160a01b0316637158da7c6040518163ffffffff1660e01b8152600401602060405180830381865afa158015612349573d5f5f3e3d5ffd5b505050506040513d601f19601f8201168201806040525081019061236d9190613856565b612a5e565b61237a612a6f565b61238384612a7f565b61238b612a90565b612393612a90565b60028054336001600160a01b0319918216179091556001805482166001600160a01b03878116919091179091555f805490921690851690811782556003829055600a829055600b82905560408051631c56369f60e21b81529051637158da7c916004808201926020929091908290030181865afa158015612416573d5f5f3e3d5ffd5b505050506040513d601f19601f8201168201806040525081019061243a9190613856565b6001600160a01b031663313ce5676040518163ffffffff1660e01b8152600401602060405180830381865afa158015612475573d5f5f3e3d5ffd5b505050506040513d601f19601f820116820180604052508101906124999190613907565b905060128160ff1611156124c057604051631c03248960e11b815260040160405180910390fd5b5f6124cc826012613a2b565b90506124d981600a613a0a565b600c55505050505050565b5f6124ef8484612082565b90505f1981101561252f578181101561252157828183604051637dc7a0d960e11b815260040161092c93929190613835565b61252f84848484035f6128a6565b50505050565b6001600160a01b03831661255e57604051634b637e8f60e11b81525f600482015260240161092c565b6001600160a01b0382166125875760405163ec442f0560e01b81525f600482015260240161092c565b612193838383612a98565b5f6108cb82612bbe565b5f8080806122428686612bc8565b5f610e6f836001600160a01b038416612bf1565b6001600160a01b0382166125e75760405163ec442f0560e01b81525f600482015260240161092c565b6111925f8383612a98565b306001600160a01b037f000000000000000000000000000000000000000000000000000000000000000016148061267857507f00000000000000000000000000000000000000000000000000000000000000006001600160a01b031661266c5f516020613be25f395f51905f52546001600160a01b031690565b6001600160a01b031614155b156111415760405163703e46dd60e11b815260040160405180910390fd5b6001546001600160a01b03163314610b7b576040516356b381a560e01b815260040160405180910390fd5b816001600160a01b03166352d1902d6040518163ffffffff1660e01b8152600401602060405180830381865afa92505050801561271b575060408051601f3d908101601f191682019092526127189181019061381e565b60015b61274357604051634c9c8ce360e01b81526001600160a01b038316600482015260240161092c565b5f516020613be25f395f51905f52811461277357604051632a87526960e21b81526004810182905260240161092c565b6121938383612c0d565b306001600160a01b037f000000000000000000000000000000000000000000000000000000000000000016146111415760405163703e46dd60e11b815260040160405180910390fd5b336127cf61142c565b6001600160a01b0316146111415760405163118cdaa760e01b815233600482015260240161092c565b7f237e158222e3e6968b72b9db0d8043aacf074ad9f650f0d1606b4d82ee432c0080546001600160a01b031916815561119282612c62565b5f61285d61283d83612cd2565b801561285857505f848061285357612853613a44565b868809115b151590565b612868868686612cfe565b6114e291906138a4565b6001600160a01b03821661289b57604051634b637e8f60e11b81525f600482015260240161092c565b611192825f83612a98565b5f516020613bc25f395f51905f526001600160a01b0385166128dd5760405163e602df0560e01b81525f600482015260240161092c565b6001600160a01b03841661290657604051634a1406b160e11b81525f600482015260240161092c565b6001600160a01b038086165f9081526001830160209081526040808320938816835292905220839055811561298357836001600160a01b0316856001600160a01b03167f8c5be1e5ebec7d5bd14f71427d1e84f3dd0314c0f7b2291e5b200ac8c7c3b9258560405161297a91815260200190565b60405180910390a35b5050505050565b5f8181526002830160205260408120548190806129b7576129ab8585612dae565b92505f915061224a9050565b60019250905061224a565b5f82815260028401602052604081208290556121ec8484612db9565b5f6129e882612bbe565b90505f5b81811015612a1d57600283015f612a038584612dc4565b815260208101919091526040015f908120556001016129ec565b5061119282612dcf565b612a2f612dd8565b61114157604051631afcd79f60e31b815260040160405180910390fd5b612a54612a27565b6111928282612df1565b612a66612a27565b610b7b81612e41565b612a77612a27565b611141612ec4565b612a87612a27565b610b7b81612ecc565b611141612a27565b5f516020613bc25f395f51905f526001600160a01b038416612ad25781816002015f828254612ac791906138a4565b90915550612b2f9050565b6001600160a01b0384165f9081526020829052604090205482811015612b115784818460405163391434e360e21b815260040161092c93929190613835565b6001600160a01b0385165f9081526020839052604090209083900390555b6001600160a01b038316612b4d576002810180548390039055612b6b565b6001600160a01b0383165f9081526020829052604090208054830190555b826001600160a01b0316846001600160a01b03167fddf252ad1be2c89b69c2b068fc378daa952ba7f163c4a11628f55a4df523b3ef84604051612bb091815260200190565b60405180910390a350505050565b5f6108cb82612efd565b5f8080612bd58585612dc4565b5f81815260029690960160205260409095205494959350505050565b5f8181526002830160205260408120819055610e6f8383612f06565b612c1682612f11565b6040516001600160a01b038316907fbc7cd75a20ee27fd9adebab32041f755214dbc6bffa90cc0225b39da2e5c2d3b905f90a2805115612c5a576121938282612f74565b611192612fdd565b7f9016d09d72d40fdae2fd8ceac6b6234c7706214fd39c1cd1e609a0528c19930080546001600160a01b031981166001600160a01b03848116918217845560405192169182907f8be0079c531659141344cd1fd0a4f28419497f9722a3daafe3b4186f6b6457e0905f90a3505050565b5f6002826003811115612ce757612ce7613a58565b612cf19190613a6c565b60ff166001149050919050565b5f5f5f612d0b8686612ffc565b91509150815f03612d2f57838181612d2557612d25613a44565b0492505050610e6f565b818411612d4657612d466003851502601118613018565b5f848688095f868103871696879004966002600389028118808a02820302808a02820302808a02820302808a02820302808a02820302808a02909103029181900381900460010185841190960395909502919093039390930492909217029150509392505050565b5f610e6f8383613029565b5f610e6f8383613040565b5f610e6f838361308c565b610b7b816130b2565b5f612de1612282565b54600160401b900460ff16919050565b612df9612a27565b5f516020613bc25f395f51905f527f52c63247e1f47db19d5ce0460030c497f067ca4cebf71ba98eeadabe20bace03612e328482613add565b506004810161252f8382613add565b612e49612a27565b7f0773e532dfede91f04b12a73d3d2acd361424f41f76b4fb79f090161e36b4e005f80612e758461310b565b9150915081612e85576012612e87565b805b83546001600160a81b031916600160a01b60ff92909216919091026001600160a01b031916176001600160a01b0394909416939093179091555050565b612266612a27565b612ed4612a27565b6001600160a01b03811661142357604051631e4fbdf760e01b81525f600482015260240161092c565b5f6108cb825490565b5f610e6f83836131e1565b806001600160a01b03163b5f03612f4657604051634c9c8ce360e01b81526001600160a01b038216600482015260240161092c565b5f516020613be25f395f51905f5280546001600160a01b0319166001600160a01b0392909216919091179055565b60605f5f846001600160a01b031684604051612f909190613b97565b5f60405180830381855af49150503d805f8114612fc8576040519150601f19603f3d011682016040523d82523d5f602084013e612fcd565b606091505b50915091506114e28583836132c4565b34156111415760405163b398979f60e01b815260040160405180910390fd5b5f805f1983850993909202808410938190039390930393915050565b634e487b715f52806020526024601cfd5b5f8181526001830160205260408120541515610e6f565b5f81815260018301602052604081205461308557508154600181810184555f8481526020808220909301849055845484825282860190935260409020919091556108cb565b505f6108cb565b5f825f0182815481106130a1576130a16138b7565b905f5260205f200154905092915050565b5f6130bb825490565b90505f5b8181101561310457826001015f845f0183815481106130e0576130e06138b7565b905f5260205f20015481526020019081526020015f205f90558060010190506130bf565b50505f9055565b60408051600481526024810182526020810180516001600160e01b031663313ce56760e01b17905290515f918291829182916001600160a01b0387169161315191613b97565b5f60405180830381855afa9150503d805f8114613189576040519150601f19603f3d011682016040523d82523d5f602084013e61318e565b606091505b50915091508180156131a257506020815110155b156131d5575f818060200190518101906131bc919061381e565b905060ff81116131d3576001969095509350505050565b505b505f9485945092505050565b5f81815260018301602052604081205480156132bb575f613203600183613a18565b85549091505f9061321690600190613a18565b9050808214613275575f865f018281548110613234576132346138b7565b905f5260205f200154905080875f018481548110613254576132546138b7565b5f918252602080832090910192909255918252600188019052604090208390555b855486908061328657613286613bad565b600190038181905f5260205f20015f90559055856001015f8681526020019081526020015f205f9055600193505050506108cb565b5f9150506108cb565b6060826132d9576132d482613320565b610e6f565b81511580156132f057506001600160a01b0384163b155b1561331957604051639996b31560e01b81526001600160a01b038516600482015260240161092c565b5080610e6f565b80511561332f57805160208201fd5b60405163d6bda27560e01b815260040160405180910390fd5b602081525f82518060208401528060208501604085015e5f604082850101526040601f19601f83011684010191505092915050565b5f6020828403121561338d575f5ffd5b5035919050565b6001600160a01b0381168114610b7b575f5ffd5b5f5f604083850312156133b9575f5ffd5b82356133c481613394565b946020939093013593505050565b5f5f83601f8401126133e2575f5ffd5b5081356001600160401b038111156133f8575f5ffd5b6020830191508360208260061b850101111561224a575f5ffd5b5f5f5f60408486031215613424575f5ffd5b83356001600160401b03811115613439575f5ffd5b613445868287016133d2565b909790965060209590950135949350505050565b5f5f83601f840112613469575f5ffd5b5081356001600160401b0381111561347f575f5ffd5b60208301915083602082850101111561224a575f5ffd5b5f5f5f5f5f5f608087890312156134ab575f5ffd5b86356134b681613394565b955060208701356134c681613394565b945060408701356001600160401b038111156134e0575f5ffd5b6134ec89828a01613459565b90955093505060608701356001600160401b0381111561350a575f5ffd5b61351689828a01613459565b979a9699509497509295939492505050565b5f5f5f6060848603121561353a575f5ffd5b833561354581613394565b9250602084013561355581613394565b929592945050506040919091013590565b5f60208284031215613576575f5ffd5b8135610e6f81613394565b634e487b7160e01b5f52604160045260245ffd5b5f5f604083850312156135a6575f5ffd5b82356135b181613394565b915060208301356001600160401b038111156135cb575f5ffd5b8301601f810185136135db575f5ffd5b80356001600160401b038111156135f4576135f4613581565b604051601f8201601f19908116603f011681016001600160401b038111828210171561362257613622613581565b604052818152828201602001871015613639575f5ffd5b816020840160208301375f602083830101528093505050509250929050565b5f5f60408385031215613669575f5ffd5b82359150602083013561367b81613394565b809150509250929050565b5f5f5f60608486031215613698575f5ffd5b83359250602084013591506040840135600481106136b4575f5ffd5b809150509250925092565b5f5f602083850312156136d0575f5ffd5b82356001600160401b038111156136e5575f5ffd5b6136f1858286016133d2565b90969095509350505050565b5f5f5f6060848603121561370f575f5ffd5b83359250602084013561372181613394565b915060408401356136b481613394565b604080825283519082018190525f9060208501906060840190835b818110156137735783516001600160a01b031683526020938401939092019160010161374c565b5050838103602080860191909152855180835291810192508501905f5b818110156137ae578251845260209384019390920191600101613790565b50919695505050505050565b5f5f604083850312156137cb575f5ffd5b82356137d681613394565b9150602083013561367b81613394565b600181811c908216806137fa57607f821691505b60208210810361381857634e487b7160e01b5f52602260045260245ffd5b50919050565b5f6020828403121561382e575f5ffd5b5051919050565b6001600160a01b039390931683526020830191909152604082015260600190565b5f60208284031215613866575f5ffd5b8151610e6f81613394565b5f60208284031215613881575f5ffd5b81518015158114610e6f575f5ffd5b634e487b7160e01b5f52601160045260245ffd5b808201808211156108cb576108cb613890565b634e487b7160e01b5f52603260045260245ffd5b5f602082840312156138db575f5ffd5b813563ffffffff81168114610e6f575f5ffd5b60ff81811683821601908111156108cb576108cb613890565b5f60208284031215613917575f5ffd5b815160ff81168114610e6f575f5ffd5b6001815b60018411156139625780850481111561394657613946613890565b600184161561395457908102905b60019390931c92800261392b565b935093915050565b5f82613978575060016108cb565b8161398457505f6108cb565b816001811461399a57600281146139a4576139c0565b60019150506108cb565b60ff8411156139b5576139b5613890565b50506001821b6108cb565b5060208310610133831016604e8410600b84101617156139e3575081810a6108cb565b6139ef5f198484613927565b805f1904821115613a0257613a02613890565b029392505050565b5f610e6f60ff84168361396a565b818103818111156108cb576108cb613890565b60ff82811682821603908111156108cb576108cb613890565b634e487b7160e01b5f52601260045260245ffd5b634e487b7160e01b5f52602160045260245ffd5b5f60ff831680613a8a57634e487b7160e01b5f52601260045260245ffd5b8060ff84160691505092915050565b601f82111561219357805f5260205f20601f840160051c81016020851015613abe5750805b601f840160051c820191505b81811015612983575f8155600101613aca565b81516001600160401b03811115613af657613af6613581565b613b0a81613b0484546137e6565b84613a99565b6020601f821160018114613b3c575f8315613b255750848201515b5f19600385901b1c1916600184901b178455612983565b5f84815260208120601f198516915b82811015613b6b5787850151825560209485019460019092019101613b4b565b5084821015613b8857868401515f19600387901b60f8161c191681555b50505050600190811b01905550565b5f82518060208501845e5f920191825250919050565b634e487b7160e01b5f52603160045260245ffdfe52c63247e1f47db19d5ce0460030c497f067ca4cebf71ba98eeadabe20bace00360894a13ba1a3210667c828492db98dca3e2076cc3735a920a3ca505d382bbc9b779b17422d0df92223018b32b4d1fa46e071723d6817e2486d003becc55f00a26469706673582212209a3e48f045ca331d13dbddd775780bf9e468e773ce97bd3378301723bce7b4dc64736f6c634300081c0033",
  "linkReferences": {},
  "deployedLinkReferences": {}
}