{
  "_format": "hh-sol-artifact-1",
  "contractName": "OrionTransparentVault",
  "sourceName": "contracts/vaults/OrionTransparentVault.sol",
  "abi": [
    {
      "inputs": [
        {
          "internalType": "address",
          "name": "vaultOwner",
          "type": "address"
        },
        {
          "internalType": "address",
          "name": "curator",
          "type": "address"
        },
        {
          "internalType": "contract IOrionConfig",
          "name": "configAddress",
          "type": "address"
        },
        {
          "internalType": "string",
          "name": "name",
          "type": "string"
        },
        {
          "internalType": "string",
          "name": "symbol",
          "type": "string"
        }
      ],
      "stateMutability": "nonpayable",
      "type": "constructor"
    },
    {
      "inputs": [],
      "name": "AlreadyRegistered",
      "type": "error"
    },
    {
      "inputs": [
        {
          "internalType": "address",
          "name": "asset",
          "type": "address"
        }
      ],
      "name": "AmountMustBeGreaterThanZero",
      "type": "error"
    },
    {
      "inputs": [
        {
          "internalType": "address",
          "name": "spender",
          "type": "address"
        },
        {
          "internalType": "uint256",
          "name": "allowance",
          "type": "uint256"
        },
        {
          "internalType": "uint256",
          "name": "needed",
          "type": "uint256"
        }
      ],
      "name": "ERC20InsufficientAllowance",
      "type": "error"
    },
    {
      "inputs": [
        {
          "internalType": "address",
          "name": "sender",
          "type": "address"
        },
        {
          "internalType": "uint256",
          "name": "balance",
          "type": "uint256"
        },
        {
          "internalType": "uint256",
          "name": "needed",
          "type": "uint256"
        }
      ],
      "name": "ERC20InsufficientBalance",
      "type": "error"
    },
    {
      "inputs": [
        {
          "internalType": "address",
          "name": "approver",
          "type": "address"
        }
      ],
      "name": "ERC20InvalidApprover",
      "type": "error"
    },
    {
      "inputs": [
        {
          "internalType": "address",
          "name": "receiver",
          "type": "address"
        }
      ],
      "name": "ERC20InvalidReceiver",
      "type": "error"
    },
    {
      "inputs": [
        {
          "internalType": "address",
          "name": "sender",
          "type": "address"
        }
      ],
      "name": "ERC20InvalidSender",
      "type": "error"
    },
    {
      "inputs": [
        {
          "internalType": "address",
          "name": "spender",
          "type": "address"
        }
      ],
      "name": "ERC20InvalidSpender",
      "type": "error"
    },
    {
      "inputs": [
        {
          "internalType": "address",
          "name": "receiver",
          "type": "address"
        },
        {
          "internalType": "uint256",
          "name": "assets",
          "type": "uint256"
        },
        {
          "internalType": "uint256",
          "name": "max",
          "type": "uint256"
        }
      ],
      "name": "ERC4626ExceededMaxDeposit",
      "type": "error"
    },
    {
      "inputs": [
        {
          "internalType": "address",
          "name": "receiver",
          "type": "address"
        },
        {
          "internalType": "uint256",
          "name": "shares",
          "type": "uint256"
        },
        {
          "internalType": "uint256",
          "name": "max",
          "type": "uint256"
        }
      ],
      "name": "ERC4626ExceededMaxMint",
      "type": "error"
    },
    {
      "inputs": [
        {
          "internalType": "address",
          "name": "owner",
          "type": "address"
        },
        {
          "internalType": "uint256",
          "name": "shares",
          "type": "uint256"
        },
        {
          "internalType": "uint256",
          "name": "max",
          "type": "uint256"
        }
      ],
      "name": "ERC4626ExceededMaxRedeem",
      "type": "error"
    },
    {
      "inputs": [
        {
          "internalType": "address",
          "name": "owner",
          "type": "address"
        },
        {
          "internalType": "uint256",
          "name": "assets",
          "type": "uint256"
        },
        {
          "internalType": "uint256",
          "name": "max",
          "type": "uint256"
        }
      ],
      "name": "ERC4626ExceededMaxWithdraw",
      "type": "error"
    },
    {
      "inputs": [
        {
          "internalType": "address",
          "name": "sender",
          "type": "address"
        },
        {
          "internalType": "uint256",
          "name": "balance",
          "type": "uint256"
        },
        {
          "internalType": "uint256",
          "name": "amount",
          "type": "uint256"
        }
      ],
      "name": "InsufficientFunds",
      "type": "error"
    },
    {
      "inputs": [],
      "name": "InvalidAddress",
      "type": "error"
    },
    {
      "inputs": [],
      "name": "InvalidArguments",
      "type": "error"
    },
    {
      "inputs": [],
      "name": "InvalidTotalWeight",
      "type": "error"
    },
    {
      "inputs": [],
      "name": "InvalidUnderlyingDecimals",
      "type": "error"
    },
    {
      "inputs": [],
      "name": "NotEnoughDepositRequest",
      "type": "error"
    },
    {
      "inputs": [],
      "name": "NotEnoughWithdrawRequest",
      "type": "error"
    },
    {
      "inputs": [],
      "name": "OrderIntentCannotBeEmpty",
      "type": "error"
    },
    {
      "inputs": [],
      "name": "ReentrancyGuardReentrantCall",
      "type": "error"
    },
    {
      "inputs": [],
      "name": "SynchronousCallDisabled",
      "type": "error"
    },
    {
      "inputs": [],
      "name": "SystemNotIdle",
      "type": "error"
    },
    {
      "inputs": [
        {
          "internalType": "address",
          "name": "token",
          "type": "address"
        }
      ],
      "name": "TokenAlreadyInOrder",
      "type": "error"
    },
    {
      "inputs": [
        {
          "internalType": "address",
          "name": "token",
          "type": "address"
        }
      ],
      "name": "TokenNotWhitelisted",
      "type": "error"
    },
    {
      "inputs": [],
      "name": "TransferFailed",
      "type": "error"
    },
    {
      "inputs": [],
      "name": "UnauthorizedAccess",
      "type": "error"
    },
    {
      "anonymous": false,
      "inputs": [
        {
          "indexed": true,
          "internalType": "address",
          "name": "owner",
          "type": "address"
        },
        {
          "indexed": true,
          "internalType": "address",
          "name": "spender",
          "type": "address"
        },
        {
          "indexed": false,
          "internalType": "uint256",
          "name": "value",
          "type": "uint256"
        }
      ],
      "name": "Approval",
      "type": "event"
    },
    {
      "anonymous": false,
      "inputs": [
        {
          "indexed": true,
          "internalType": "uint256",
          "name": "epoch",
          "type": "uint256"
        },
        {
          "indexed": false,
          "internalType": "uint256",
          "name": "feeAmount",
          "type": "uint256"
        },
        {
          "indexed": false,
          "internalType": "uint256",
          "name": "pendingCuratorFees",
          "type": "uint256"
        }
      ],
      "name": "CuratorFeesAccrued",
      "type": "event"
    },
    {
      "anonymous": false,
      "inputs": [
        {
          "indexed": true,
          "internalType": "address",
          "name": "sender",
          "type": "address"
        },
        {
          "indexed": true,
          "internalType": "address",
          "name": "owner",
          "type": "address"
        },
        {
          "indexed": false,
          "internalType": "uint256",
          "name": "assets",
          "type": "uint256"
        },
        {
          "indexed": false,
          "internalType": "uint256",
          "name": "shares",
          "type": "uint256"
        }
      ],
      "name": "Deposit",
      "type": "event"
    },
    {
      "anonymous": false,
      "inputs": [
        {
          "indexed": true,
          "internalType": "address",
          "name": "user",
          "type": "address"
        },
        {
          "indexed": false,
          "internalType": "uint256",
          "name": "amount",
          "type": "uint256"
        }
      ],
      "name": "DepositProcessed",
      "type": "event"
    },
    {
      "anonymous": false,
      "inputs": [
        {
          "indexed": true,
          "internalType": "address",
          "name": "user",
          "type": "address"
        },
        {
          "indexed": false,
          "internalType": "uint256",
          "name": "amount",
          "type": "uint256"
        }
      ],
      "name": "DepositRequestCancelled",
      "type": "event"
    },
    {
      "anonymous": false,
      "inputs": [
        {
          "indexed": true,
          "internalType": "address",
          "name": "user",
          "type": "address"
        },
        {
          "indexed": false,
          "internalType": "uint256",
          "name": "amount",
          "type": "uint256"
        }
      ],
      "name": "DepositRequested",
      "type": "event"
    },
    {
      "anonymous": false,
      "inputs": [
        {
          "indexed": false,
          "internalType": "uint8",
          "name": "mode",
          "type": "uint8"
        },
        {
          "indexed": false,
          "internalType": "uint16",
          "name": "performanceFee",
          "type": "uint16"
        },
        {
          "indexed": false,
          "internalType": "uint16",
          "name": "managementFee",
          "type": "uint16"
        }
      ],
      "name": "FeeModelUpdated",
      "type": "event"
    },
    {
      "anonymous": false,
      "inputs": [
        {
          "indexed": true,
          "internalType": "address",
          "name": "curator",
          "type": "address"
        }
      ],
      "name": "OrderSubmitted",
      "type": "event"
    },
    {
      "anonymous": false,
      "inputs": [
        {
          "indexed": true,
          "internalType": "address",
          "name": "from",
          "type": "address"
        },
        {
          "indexed": true,
          "internalType": "address",
          "name": "to",
          "type": "address"
        },
        {
          "indexed": false,
          "internalType": "uint256",
          "name": "value",
          "type": "uint256"
        }
      ],
      "name": "Transfer",
      "type": "event"
    },
    {
      "anonymous": false,
      "inputs": [
        {
          "indexed": false,
          "internalType": "uint256",
          "name": "newTotalAssets",
          "type": "uint256"
        }
      ],
      "name": "VaultStateUpdated",
      "type": "event"
    },
    {
      "anonymous": false,
      "inputs": [
        {
          "indexed": true,
          "internalType": "address",
          "name": "sender",
          "type": "address"
        },
        {
          "indexed": true,
          "internalType": "address",
          "name": "receiver",
          "type": "address"
        },
        {
          "indexed": true,
          "internalType": "address",
          "name": "owner",
          "type": "address"
        },
        {
          "indexed": false,
          "internalType": "uint256",
          "name": "assets",
          "type": "uint256"
        },
        {
          "indexed": false,
          "internalType": "uint256",
          "name": "shares",
          "type": "uint256"
        }
      ],
      "name": "Withdraw",
      "type": "event"
    },
    {
      "anonymous": false,
      "inputs": [
        {
          "indexed": true,
          "internalType": "address",
          "name": "user",
          "type": "address"
        },
        {
          "indexed": false,
          "internalType": "uint256",
          "name": "shares",
          "type": "uint256"
        }
      ],
      "name": "WithdrawProcessed",
      "type": "event"
    },
    {
      "anonymous": false,
      "inputs": [
        {
          "indexed": true,
          "internalType": "address",
          "name": "user",
          "type": "address"
        },
        {
          "indexed": false,
          "internalType": "uint256",
          "name": "shares",
          "type": "uint256"
        }
      ],
      "name": "WithdrawRequestCancelled",
      "type": "event"
    },
    {
      "anonymous": false,
      "inputs": [
        {
          "indexed": true,
          "internalType": "address",
          "name": "user",
          "type": "address"
        },
        {
          "indexed": false,
          "internalType": "uint256",
          "name": "shares",
          "type": "uint256"
        }
      ],
      "name": "WithdrawRequested",
      "type": "event"
    },
    {
      "inputs": [],
      "name": "CURATOR_FEE_FACTOR",
      "outputs": [
        {
          "internalType": "uint16",
          "name": "",
          "type": "uint16"
        }
      ],
      "stateMutability": "view",
      "type": "function"
    },
    {
      "inputs": [],
      "name": "MAX_MANAGEMENT_FEE",
      "outputs": [
        {
          "internalType": "uint16",
          "name": "",
          "type": "uint16"
        }
      ],
      "stateMutability": "view",
      "type": "function"
    },
    {
      "inputs": [],
      "name": "MAX_PERFORMANCE_FEE",
      "outputs": [
        {
          "internalType": "uint16",
          "name": "",
          "type": "uint16"
        }
      ],
      "stateMutability": "view",
      "type": "function"
    },
    {
      "inputs": [],
      "name": "SHARE_DECIMALS",
      "outputs": [
        {
          "internalType": "uint8",
          "name": "",
          "type": "uint8"
        }
      ],
      "stateMutability": "view",
      "type": "function"
    },
    {
      "inputs": [],
      "name": "YEAR_IN_SECONDS",
      "outputs": [
        {
          "internalType": "uint32",
          "name": "",
          "type": "uint32"
        }
      ],
      "stateMutability": "view",
      "type": "function"
    },
    {
      "inputs": [
        {
          "internalType": "uint256",
          "name": "epoch",
          "type": "uint256"
        },
        {
          "internalType": "uint256",
          "name": "feeAmount",
          "type": "uint256"
        }
      ],
      "name": "accrueCuratorFees",
      "outputs": [],
      "stateMutability": "nonpayable",
      "type": "function"
    },
    {
      "inputs": [
        {
          "internalType": "address",
          "name": "owner",
          "type": "address"
        },
        {
          "internalType": "address",
          "name": "spender",
          "type": "address"
        }
      ],
      "name": "allowance",
      "outputs": [
        {
          "internalType": "uint256",
          "name": "",
          "type": "uint256"
        }
      ],
      "stateMutability": "view",
      "type": "function"
    },
    {
      "inputs": [
        {
          "internalType": "address",
          "name": "spender",
          "type": "address"
        },
        {
          "internalType": "uint256",
          "name": "value",
          "type": "uint256"
        }
      ],
      "name": "approve",
      "outputs": [
        {
          "internalType": "bool",
          "name": "",
          "type": "bool"
        }
      ],
      "stateMutability": "nonpayable",
      "type": "function"
    },
    {
      "inputs": [],
      "name": "asset",
      "outputs": [
        {
          "internalType": "address",
          "name": "",
          "type": "address"
        }
      ],
      "stateMutability": "view",
      "type": "function"
    },
    {
      "inputs": [
        {
          "internalType": "address",
          "name": "account",
          "type": "address"
        }
      ],
      "name": "balanceOf",
      "outputs": [
        {
          "internalType": "uint256",
          "name": "",
          "type": "uint256"
        }
      ],
      "stateMutability": "view",
      "type": "function"
    },
    {
      "inputs": [
        {
          "internalType": "uint256",
          "name": "amount",
          "type": "uint256"
        }
      ],
      "name": "cancelDepositRequest",
      "outputs": [],
      "stateMutability": "nonpayable",
      "type": "function"
    },
    {
      "inputs": [
        {
          "internalType": "uint256",
          "name": "shares",
          "type": "uint256"
        }
      ],
      "name": "cancelWithdrawRequest",
      "outputs": [],
      "stateMutability": "nonpayable",
      "type": "function"
    },
    {
      "inputs": [],
      "name": "claimCuratorFees",
      "outputs": [],
      "stateMutability": "nonpayable",
      "type": "function"
    },
    {
      "inputs": [],
      "name": "config",
      "outputs": [
        {
          "internalType": "contract IOrionConfig",
          "name": "",
          "type": "address"
        }
      ],
      "stateMutability": "view",
      "type": "function"
    },
    {
      "inputs": [
        {
          "internalType": "uint256",
          "name": "shares",
          "type": "uint256"
        }
      ],
      "name": "convertToAssets",
      "outputs": [
        {
          "internalType": "uint256",
          "name": "",
          "type": "uint256"
        }
      ],
      "stateMutability": "view",
      "type": "function"
    },
    {
      "inputs": [
        {
          "internalType": "uint256",
          "name": "shares",
          "type": "uint256"
        },
        {
          "internalType": "uint256",
          "name": "pointInTimeTotalAssets",
          "type": "uint256"
        },
        {
          "internalType": "enum Math.Rounding",
          "name": "rounding",
          "type": "uint8"
        }
      ],
      "name": "convertToAssetsWithPITTotalAssets",
      "outputs": [
        {
          "internalType": "uint256",
          "name": "",
          "type": "uint256"
        }
      ],
      "stateMutability": "view",
      "type": "function"
    },
    {
      "inputs": [
        {
          "internalType": "uint256",
          "name": "assets",
          "type": "uint256"
        }
      ],
      "name": "convertToShares",
      "outputs": [
        {
          "internalType": "uint256",
          "name": "",
          "type": "uint256"
        }
      ],
      "stateMutability": "view",
      "type": "function"
    },
    {
      "inputs": [],
      "name": "curator",
      "outputs": [
        {
          "internalType": "address",
          "name": "",
          "type": "address"
        }
      ],
      "stateMutability": "view",
      "type": "function"
    },
    {
      "inputs": [
        {
          "internalType": "uint256",
          "name": "activeTotalAssets",
          "type": "uint256"
        }
      ],
      "name": "curatorFee",
      "outputs": [
        {
          "internalType": "uint256",
          "name": "",
          "type": "uint256"
        }
      ],
      "stateMutability": "view",
      "type": "function"
    },
    {
      "inputs": [],
      "name": "decimals",
      "outputs": [
        {
          "internalType": "uint8",
          "name": "",
          "type": "uint8"
        }
      ],
      "stateMutability": "view",
      "type": "function"
    },
    {
      "inputs": [
        {
          "internalType": "uint256",
          "name": "",
          "type": "uint256"
        },
        {
          "internalType": "address",
          "name": "",
          "type": "address"
        }
      ],
      "name": "deposit",
      "outputs": [
        {
          "internalType": "uint256",
          "name": "",
          "type": "uint256"
        }
      ],
      "stateMutability": "pure",
      "type": "function"
    },
    {
      "inputs": [],
      "name": "feeModel",
      "outputs": [
        {
          "internalType": "enum OrionVault.CalcMode",
          "name": "mode",
          "type": "uint8"
        },
        {
          "internalType": "uint16",
          "name": "performanceFee",
          "type": "uint16"
        },
        {
          "internalType": "uint16",
          "name": "managementFee",
          "type": "uint16"
        },
        {
          "internalType": "uint256",
          "name": "highWaterMark",
          "type": "uint256"
        }
      ],
      "stateMutability": "view",
      "type": "function"
    },
    {
      "inputs": [],
      "name": "getIntent",
      "outputs": [
        {
          "internalType": "address[]",
          "name": "tokens",
          "type": "address[]"
        },
        {
          "internalType": "uint32[]",
          "name": "weights",
          "type": "uint32[]"
        }
      ],
      "stateMutability": "view",
      "type": "function"
    },
    {
      "inputs": [],
      "name": "getPendingDeposits",
      "outputs": [
        {
          "internalType": "uint256",
          "name": "",
          "type": "uint256"
        }
      ],
      "stateMutability": "view",
      "type": "function"
    },
    {
      "inputs": [],
      "name": "getPendingWithdrawals",
      "outputs": [
        {
          "internalType": "uint256",
          "name": "",
          "type": "uint256"
        }
      ],
      "stateMutability": "view",
      "type": "function"
    },
    {
      "inputs": [],
      "name": "getPortfolio",
      "outputs": [
        {
          "internalType": "address[]",
          "name": "tokens",
          "type": "address[]"
        },
        {
          "internalType": "uint256[]",
          "name": "sharesPerAsset",
          "type": "uint256[]"
        }
      ],
      "stateMutability": "view",
      "type": "function"
    },
    {
      "inputs": [],
      "name": "internalStatesOrchestrator",
      "outputs": [
        {
          "internalType": "contract IInternalStateOrchestrator",
          "name": "",
          "type": "address"
        }
      ],
      "stateMutability": "view",
      "type": "function"
    },
    {
      "inputs": [
        {
          "internalType": "address",
          "name": "",
          "type": "address"
        }
      ],
      "name": "maxDeposit",
      "outputs": [
        {
          "internalType": "uint256",
          "name": "",
          "type": "uint256"
        }
      ],
      "stateMutability": "view",
      "type": "function"
    },
    {
      "inputs": [
        {
          "internalType": "address",
          "name": "",
          "type": "address"
        }
      ],
      "name": "maxMint",
      "outputs": [
        {
          "internalType": "uint256",
          "name": "",
          "type": "uint256"
        }
      ],
      "stateMutability": "view",
      "type": "function"
    },
    {
      "inputs": [
        {
          "internalType": "address",
          "name": "owner",
          "type": "address"
        }
      ],
      "name": "maxRedeem",
      "outputs": [
        {
          "internalType": "uint256",
          "name": "",
          "type": "uint256"
        }
      ],
      "stateMutability": "view",
      "type": "function"
    },
    {
      "inputs": [
        {
          "internalType": "address",
          "name": "owner",
          "type": "address"
        }
      ],
      "name": "maxWithdraw",
      "outputs": [
        {
          "internalType": "uint256",
          "name": "",
          "type": "uint256"
        }
      ],
      "stateMutability": "view",
      "type": "function"
    },
    {
      "inputs": [
        {
          "internalType": "uint256",
          "name": "",
          "type": "uint256"
        },
        {
          "internalType": "address",
          "name": "",
          "type": "address"
        }
      ],
      "name": "mint",
      "outputs": [
        {
          "internalType": "uint256",
          "name": "",
          "type": "uint256"
        }
      ],
      "stateMutability": "pure",
      "type": "function"
    },
    {
      "inputs": [],
      "name": "name",
      "outputs": [
        {
          "internalType": "string",
          "name": "",
          "type": "string"
        }
      ],
      "stateMutability": "view",
      "type": "function"
    },
    {
      "inputs": [],
      "name": "pendingCuratorFees",
      "outputs": [
        {
          "internalType": "uint256",
          "name": "",
          "type": "uint256"
        }
      ],
      "stateMutability": "view",
      "type": "function"
    },
    {
      "inputs": [
        {
          "internalType": "uint256",
          "name": "assets",
          "type": "uint256"
        }
      ],
      "name": "previewDeposit",
      "outputs": [
        {
          "internalType": "uint256",
          "name": "",
          "type": "uint256"
        }
      ],
      "stateMutability": "view",
      "type": "function"
    },
    {
      "inputs": [
        {
          "internalType": "uint256",
          "name": "shares",
          "type": "uint256"
        }
      ],
      "name": "previewMint",
      "outputs": [
        {
          "internalType": "uint256",
          "name": "",
          "type": "uint256"
        }
      ],
      "stateMutability": "view",
      "type": "function"
    },
    {
      "inputs": [
        {
          "internalType": "uint256",
          "name": "shares",
          "type": "uint256"
        }
      ],
      "name": "previewRedeem",
      "outputs": [
        {
          "internalType": "uint256",
          "name": "",
          "type": "uint256"
        }
      ],
      "stateMutability": "view",
      "type": "function"
    },
    {
      "inputs": [
        {
          "internalType": "uint256",
          "name": "assets",
          "type": "uint256"
        }
      ],
      "name": "previewWithdraw",
      "outputs": [
        {
          "internalType": "uint256",
          "name": "",
          "type": "uint256"
        }
      ],
      "stateMutability": "view",
      "type": "function"
    },
    {
      "inputs": [],
      "name": "processDepositRequests",
      "outputs": [],
      "stateMutability": "nonpayable",
      "type": "function"
    },
    {
      "inputs": [],
      "name": "processWithdrawRequests",
      "outputs": [],
      "stateMutability": "nonpayable",
      "type": "function"
    },
    {
      "inputs": [
        {
          "internalType": "uint256",
          "name": "",
          "type": "uint256"
        },
        {
          "internalType": "address",
          "name": "",
          "type": "address"
        },
        {
          "internalType": "address",
          "name": "",
          "type": "address"
        }
      ],
      "name": "redeem",
      "outputs": [
        {
          "internalType": "uint256",
          "name": "",
          "type": "uint256"
        }
      ],
      "stateMutability": "pure",
      "type": "function"
    },
    {
      "inputs": [
        {
          "internalType": "uint256",
          "name": "amount",
          "type": "uint256"
        }
      ],
      "name": "requestDeposit",
      "outputs": [],
      "stateMutability": "nonpayable",
      "type": "function"
    },
    {
      "inputs": [
        {
          "internalType": "uint256",
          "name": "shares",
          "type": "uint256"
        }
      ],
      "name": "requestWithdraw",
      "outputs": [],
      "stateMutability": "nonpayable",
      "type": "function"
    },
    {
      "inputs": [
        {
          "components": [
            {
              "internalType": "address",
              "name": "token",
              "type": "address"
            },
            {
              "internalType": "uint32",
              "name": "value",
              "type": "uint32"
            }
          ],
          "internalType": "struct IOrionTransparentVault.Position[]",
          "name": "intent",
          "type": "tuple[]"
        }
      ],
      "name": "submitIntent",
      "outputs": [],
      "stateMutability": "nonpayable",
      "type": "function"
    },
    {
      "inputs": [],
      "name": "symbol",
      "outputs": [
        {
          "internalType": "string",
          "name": "",
          "type": "string"
        }
      ],
      "stateMutability": "view",
      "type": "function"
    },
    {
      "inputs": [],
      "name": "totalAssets",
      "outputs": [
        {
          "internalType": "uint256",
          "name": "",
          "type": "uint256"
        }
      ],
      "stateMutability": "view",
      "type": "function"
    },
    {
      "inputs": [],
      "name": "totalSupply",
      "outputs": [
        {
          "internalType": "uint256",
          "name": "",
          "type": "uint256"
        }
      ],
      "stateMutability": "view",
      "type": "function"
    },
    {
      "inputs": [
        {
          "internalType": "address",
          "name": "to",
          "type": "address"
        },
        {
          "internalType": "uint256",
          "name": "value",
          "type": "uint256"
        }
      ],
      "name": "transfer",
      "outputs": [
        {
          "internalType": "bool",
          "name": "",
          "type": "bool"
        }
      ],
      "stateMutability": "nonpayable",
      "type": "function"
    },
    {
      "inputs": [
        {
          "internalType": "address",
          "name": "from",
          "type": "address"
        },
        {
          "internalType": "address",
          "name": "to",
          "type": "address"
        },
        {
          "internalType": "uint256",
          "name": "value",
          "type": "uint256"
        }
      ],
      "name": "transferFrom",
      "outputs": [
        {
          "internalType": "bool",
          "name": "",
          "type": "bool"
        }
      ],
      "stateMutability": "nonpayable",
      "type": "function"
    },
    {
      "inputs": [
        {
          "internalType": "address",
          "name": "newCurator",
          "type": "address"
        }
      ],
      "name": "updateCurator",
      "outputs": [],
      "stateMutability": "nonpayable",
      "type": "function"
    },
    {
      "inputs": [
        {
          "internalType": "uint8",
          "name": "mode",
          "type": "uint8"
        },
        {
          "internalType": "uint16",
          "name": "performanceFee",
          "type": "uint16"
        },
        {
          "internalType": "uint16",
          "name": "managementFee",
          "type": "uint16"
        }
      ],
      "name": "updateFeeModel",
      "outputs": [],
      "stateMutability": "nonpayable",
      "type": "function"
    },
    {
      "inputs": [],
      "name": "updateHighWaterMark",
      "outputs": [],
      "stateMutability": "nonpayable",
      "type": "function"
    },
    {
      "inputs": [
        {
          "components": [
            {
              "internalType": "address",
              "name": "token",
              "type": "address"
            },
            {
              "internalType": "uint32",
              "name": "value",
              "type": "uint32"
            }
          ],
          "internalType": "struct IOrionTransparentVault.Position[]",
          "name": "portfolio",
          "type": "tuple[]"
        },
        {
          "internalType": "uint256",
          "name": "newTotalAssets",
          "type": "uint256"
        }
      ],
      "name": "updateVaultState",
      "outputs": [],
      "stateMutability": "nonpayable",
      "type": "function"
    },
    {
      "inputs": [
        {
          "internalType": "address[]",
          "name": "assets",
          "type": "address[]"
        }
      ],
      "name": "updateVaultWhitelist",
      "outputs": [],
      "stateMutability": "nonpayable",
      "type": "function"
    },
    {
      "inputs": [],
      "name": "vaultOwner",
      "outputs": [
        {
          "internalType": "address",
          "name": "",
          "type": "address"
        }
      ],
      "stateMutability": "view",
      "type": "function"
    },
    {
      "inputs": [
        {
          "internalType": "uint256",
          "name": "",
          "type": "uint256"
        },
        {
          "internalType": "address",
          "name": "",
          "type": "address"
        },
        {
          "internalType": "address",
          "name": "",
          "type": "address"
        }
      ],
      "name": "withdraw",
      "outputs": [
        {
          "internalType": "uint256",
          "name": "",
          "type": "uint256"
        }
      ],
      "stateMutability": "pure",
      "type": "function"
    }
  ],
  "bytecode": "0x60c060405234801561000f575f5ffd5b5060405161423f38038061423f83398101604081905261002e9161066a565b8484848484826001600160a01b0316637158da7c6040518163ffffffff1660e01b8152600401602060405180830381865afa15801561006f573d5f5f3e3d5ffd5b505050506040513d601f19601f820116820180604052508101906100939190610708565b828260036100a183826107ae565b5060046100ae82826107ae565b5050505f5f6100c28361039060201b60201c565b91509150816100d25760126100d4565b805b60ff1660a05250506001600160a01b039081166080526001600555841661010e5760405163e6c4247b60e01b815260040160405180910390fd5b6001600160a01b0383166101355760405163e6c4247b60e01b815260040160405180910390fd5b600680546001600160a01b038088166001600160a01b0319928316179092556007805487841690831617905560088054928616929091168217905560408051630691d8b960e31b8152905163348ec5c8916004808201926020929091908290030181865afa1580156101a9573d5f5f3e3d5ffd5b505050506040513d601f19601f820116820180604052508101906101cd9190610708565b600980546001600160a01b0319166001600160a01b039283161790555f600c8190556013819055601481905560408051631c56369f60e21b815290519192861691637158da7c916004808201926020929091908290030181865afa158015610237573d5f5f3e3d5ffd5b505050506040513d601f19601f8201168201806040525081019061025b9190610708565b6001600160a01b031663313ce5676040518163ffffffff1660e01b8152600401602060405180830381865afa158015610296573d5f5f3e3d5ffd5b505050506040513d601f19601f820116820180604052508101906102ba9190610868565b9050601260ff821611156102e157604051631c03248960e11b815260040160405180910390fd5b6040805160808101909152805f81525f60208201819052604082015260600161030c6012600a610993565b9052805160168054909190829060ff1916600183600481111561033157610331610888565b021790555060208201518154604084015161ffff90811663010000000264ffff0000001991909316610100021664ffffffff001990911617178155606090910151600190910155610380610466565b5050505050505050505050610a94565b60408051600481526024810182526020810180516001600160e01b031663313ce56760e01b17905290515f918291829182916001600160a01b038716916103d6916109a1565b5f60405180830381855afa9150503d805f811461040e576040519150601f19603f3d011682016040523d82523d5f602084013e610413565b606091505b509150915081801561042757506020815110155b1561045a575f8180602001905181019061044191906109b7565b905060ff8111610458576001969095509350505050565b505b505f9485945092505050565b60085460408051636c366a2760e11b815290515f926001600160a01b03169163d86cd44e91600480830192869291908290030181865afa1580156104ac573d5f5f3e3d5ffd5b505050506040513d5f823e601f3d908101601f191682016040526104d391908101906109ce565b90505f5b8151811015610537575f61050e8383815181106104f6576104f6610a80565b6020026020010151600a61053b60201b90919060201c565b90508061052e57604051630ea075bf60e21b815260040160405180910390fd5b506001016104d7565b5050565b5f61054f836001600160a01b038416610558565b90505b92915050565b5f81815260018301602052604081205461059d57508154600181810184555f848152602080822090930184905584548482528286019093526040902091909155610552565b505f610552565b6001600160a01b03811681146105b8575f5ffd5b50565b634e487b7160e01b5f52604160045260245ffd5b604051601f8201601f191681016001600160401b03811182821017156105f7576105f76105bb565b604052919050565b5f82601f83011261060e575f5ffd5b81516001600160401b03811115610627576106276105bb565b61063a601f8201601f19166020016105cf565b81815284602083860101111561064e575f5ffd5b8160208501602083015e5f918101602001919091529392505050565b5f5f5f5f5f60a0868803121561067e575f5ffd5b8551610689816105a4565b602087015190955061069a816105a4565b60408701519094506106ab816105a4565b60608701519093506001600160401b038111156106c6575f5ffd5b6106d2888289016105ff565b608088015190935090506001600160401b038111156106ef575f5ffd5b6106fb888289016105ff565b9150509295509295909350565b5f60208284031215610718575f5ffd5b8151610723816105a4565b9392505050565b600181811c9082168061073e57607f821691505b60208210810361075c57634e487b7160e01b5f52602260045260245ffd5b50919050565b601f8211156107a957805f5260205f20601f840160051c810160208510156107875750805b601f840160051c820191505b818110156107a6575f8155600101610793565b50505b505050565b81516001600160401b038111156107c7576107c76105bb565b6107db816107d5845461072a565b84610762565b6020601f82116001811461080d575f83156107f65750848201515b5f19600385901b1c1916600184901b1784556107a6565b5f84815260208120601f198516915b8281101561083c578785015182556020948501946001909201910161081c565b508482101561085957868401515f19600387901b60f8161c191681555b50505050600190811b01905550565b5f60208284031215610878575f5ffd5b815160ff81168114610723575f5ffd5b634e487b7160e01b5f52602160045260245ffd5b634e487b7160e01b5f52601160045260245ffd5b6001815b60018411156108eb578085048111156108cf576108cf61089c565b60018416156108dd57908102905b60019390931c9280026108b4565b935093915050565b5f8261090157506001610552565b8161090d57505f610552565b8160018114610923576002811461092d57610949565b6001915050610552565b60ff84111561093e5761093e61089c565b50506001821b610552565b5060208310610133831016604e8410600b841016171561096c575081810a610552565b6109785f1984846108b0565b805f190482111561098b5761098b61089c565b029392505050565b5f61054f60ff8416836108f3565b5f82518060208501845e5f920191825250919050565b5f602082840312156109c7575f5ffd5b5051919050565b5f602082840312156109de575f5ffd5b81516001600160401b038111156109f3575f5ffd5b8201601f81018413610a03575f5ffd5b80516001600160401b03811115610a1c57610a1c6105bb565b8060051b610a2c602082016105cf565b91825260208184018101929081019087841115610a47575f5ffd5b6020850194505b83851015610a755784519250610a63836105a4565b82825260209485019490910190610a4e565b979650505050505050565b634e487b7160e01b5f52603260045260245ffd5b60805160a05161378d610ab25f395f50505f611128015261378d5ff3fe608060405234801561000f575f5ffd5b5060043610610286575f3560e01c806301e1d1141461028a57806303d44854146102a157806306fdde03146102b657806307a2d13a146102cb578063095ea7b3146102de5780630a28a477146103015780630c6a62dd146103145780630d1e6667146103275780630df571f71461033a578063105444941461034d57806318160ddd146103605780631f52692b1461036857806323b872dd146103885780632dae29671461039b578063313ce567146103a357806333fdc592146103b8578063348ec5c8146103c057806338d52e0f146103d35780633ab6d27c146103db578063402d267d146103ee5780634cdad506146102cb5780636e553f651461040257806370a082311461041557806373d8057d14610428578063745400c9146104445780637847ea531461045757806379502c551461047757806394bf804d1461040257806395d89b411461048a57806397ee1144146104925780639908840c146104c8578063a68a5267146104d1578063a9059cbb146104e4578063aa9d3a60146104f7578063acdb3d51146104ff578063b1bd7e2e14610508578063b3d7f6b91461051b578063b460af941461052e578063b6eba6531461053c578063b76b720e14610552578063ba0876521461052e578063bdca91651461055a578063c0b568e114610563578063c37fc8a814610576578063c63d75b6146103ee578063c6e6f5921461057e578063cce4705b14610591578063ce96cb77146105a4578063d1699c26146105b7578063d3d03458146105bf578063d853365f146105d5578063d905777e146105dd578063dd62ed3e146105f0578063e51a85f614610603578063e66f53b714610616578063ef8b30f71461057e575b5f5ffd5b600c545b6040519081526020015b60405180910390f35b6102b46102af366004612f54565b610629565b005b6102be610759565b604051610298919061301e565b61028e6102d9366004613053565b6107e9565b6102f16102ec36600461306a565b6107fa565b6040519015158152602001610298565b61028e61030f366004613053565b610811565b6102b4610322366004613094565b61081d565b6102b4610335366004613053565b610891565b6102b46103483660046130af565b610aec565b6102b461035b36600461310f565b610bf5565b60025461028e565b60065461037b906001600160a01b031681565b6040516102989190613156565b6102f161039636600461316a565b610d73565b6102b4610d98565b60125b60405160ff9091168152602001610298565b6102b4610e61565b60095461037b906001600160a01b031681565b61037b611126565b6102b46103e93660046131c5565b61114a565b61028e6103fc366004613094565b505f1990565b61028e61041036600461320d565b611298565b61028e610423366004613094565b6112b2565b61043161271081565b60405161ffff9091168152602001610298565b6102b4610452366004613053565b6112cc565b6104626301e1338081565b60405163ffffffff9091168152602001610298565b60085461037b906001600160a01b031681565b6102be61148e565b6016546017546104b89160ff81169161ffff610100830481169263010000009004169084565b604051610298949392919061324f565b61043161012c81565b61028e6104df36600461328d565b61149d565b6102f16104f236600461306a565b6114dd565b6102b46114ea565b61028e60155481565b6102b46105163660046132bb565b61184c565b61028e610529366004613053565b611aec565b61028e6104103660046132f9565b610544611af8565b604051610298929190613370565b6102b4611c32565b610431610bb881565b6102b4610571366004613053565b611d05565b60145461028e565b61028e61058c366004613053565b611ea7565b6102b461059f366004613053565b611eb2565b61028e6105b2366004613094565b612057565b60135461028e565b6105c761206a565b6040516102989291906133ce565b6103a6601281565b61028e6105eb366004613094565b612194565b61028e6105fe36600461341a565b61219e565b61028e610611366004613053565b6121c8565b60075461037b906001600160a01b031681565b6006546001600160a01b0316331461065457604051631a27eac360e11b815260040160405180910390fd5b61065e600a612201565b5f5b8151811015610755575f82828151811061067c5761067c613446565b6020908102919091010151600854604051633af32abf60e01b81529192506001600160a01b031690633af32abf906106b8908490600401613156565b602060405180830381865afa1580156106d3573d5f5f3e3d5ffd5b505050506040513d601f19601f820116820180604052508101906106f7919061345a565b61071f578060405163751dff9760e11b81526004016107169190613156565b60405180910390fd5b5f61072b600a8361220a565b90508061074b57604051630ea075bf60e21b815260040160405180910390fd5b5050600101610660565b5050565b60606003805461076890613479565b80601f016020809104026020016040519081016040528092919081815260200182805461079490613479565b80156107df5780601f106107b6576101008083540402835291602001916107df565b820191905f5260205f20905b8154815290600101906020018083116107c257829003601f168201915b5050505050905090565b5f6107f4825f61221e565b92915050565b5f3361080781858561225f565b5060019392505050565b5f6107f4826001612271565b6006546001600160a01b0316331461084857604051631a27eac360e11b815260040160405180910390fd5b6001600160a01b03811661086f5760405163e6c4247b60e01b815260040160405180910390fd5b600780546001600160a01b0319166001600160a01b0392909216919091179055565b6108996122a3565b805f036108c2576108a8611126565b604051636b30633560e01b81526004016107169190613156565b5f6108cb611126565b6001600160a01b03166370a08231336040518263ffffffff1660e01b81526004016108f69190613156565b602060405180830381865afa158015610911573d5f5f3e3d5ffd5b505050506040513d601f19601f8201168201806040525081019061093591906134b1565b90508082111561095e57338183604051632e2a182f60e11b8152600401610716939291906134c8565b5f610967611126565b6001600160a01b03166323b872dd3360085f9054906101000a90046001600160a01b03166001600160a01b0316633a0dad8e6040518163ffffffff1660e01b8152600401602060405180830381865afa1580156109c6573d5f5f3e3d5ffd5b505050506040513d601f19601f820116820180604052508101906109ea91906134e9565b866040518463ffffffff1660e01b8152600401610a0993929190613504565b6020604051808303815f875af1158015610a25573d5f5f3e3d5ffd5b505050506040513d601f19601f82011682018060405250810190610a49919061345a565b905080610a69576040516312171d8360e31b815260040160405180910390fd5b5f610a75600d336122cd565b9150610a90905033610a87868461353c565b600d91906122f3565b508360135f828254610aa2919061353c565b909155505060405184815233907f08d79f77ab5f78e7e780abb1f7ac9e9923340d5bae78f6e83e7999905b248ea29060200160405180910390a2505050610ae96001600555565b50565b60085f9054906101000a90046001600160a01b03166001600160a01b0316633a0dad8e6040518163ffffffff1660e01b8152600401602060405180830381865afa158015610b3c573d5f5f3e3d5ffd5b505050506040513d601f19601f82011682018060405250810190610b6091906134e9565b6001600160a01b0316336001600160a01b031614610b9157604051631a27eac360e11b815260040160405180910390fd5b8015610755578060155f828254610ba8919061353c565b909155505060155460405183917f8b8789cf9157fe7b016901e4ed3a5d0971caa8b7c031da0b25638ccf65841b2a91610be991858252602082015260400190565b60405180910390a25050565b60085f9054906101000a90046001600160a01b03166001600160a01b0316633a0dad8e6040518163ffffffff1660e01b8152600401602060405180830381865afa158015610c45573d5f5f3e3d5ffd5b505050506040513d601f19601f82011682018060405250810190610c6991906134e9565b6001600160a01b0316336001600160a01b031614610c9a57604051631a27eac360e11b815260040160405180910390fd5b610ca46018612308565b815f5b8161ffff168161ffff161015610d3457610d2b85858361ffff16818110610cd057610cd0613446565b610ce69260206040909202019081019150613094565b86868461ffff16818110610cfc57610cfc613446565b9050604002016020016020810190610d149190613560565b63ffffffff1660186122f39092919063ffffffff16565b50600101610ca7565b50600c8290556040518281527f5e1ff954b5e5257e9ee5d4cb07059e8f5e69b1aaaf9911e5d8d90a6894de9c219060200160405180910390a150505050565b5f33610d80858285612311565b610d8b858585612362565b60019150505b9392505050565b60085f9054906101000a90046001600160a01b03166001600160a01b0316633a0dad8e6040518163ffffffff1660e01b8152600401602060405180830381865afa158015610de8573d5f5f3e3d5ffd5b505050506040513d601f19601f82011682018060405250810190610e0c91906134e9565b6001600160a01b0316336001600160a01b031614610e3d57604051631a27eac360e11b815260040160405180910390fd5b5f610e4f60125b6102d990600a61365e565b601754909150811115610ae957601755565b60085f9054906101000a90046001600160a01b03166001600160a01b0316633a0dad8e6040518163ffffffff1660e01b8152600401602060405180830381865afa158015610eb1573d5f5f3e3d5ffd5b505050506040513d601f19601f82011682018060405250810190610ed591906134e9565b6001600160a01b0316336001600160a01b031614610f0657604051631a27eac360e11b815260040160405180910390fd5b610f0e6122a3565b5f610f19600d6123bf565b90505f8163ffffffff166001600160401b03811115610f3a57610f3a612f1c565b604051908082528060200260200182016040528015610f63578160200160208202803683370190505b5090505f8263ffffffff166001600160401b03811115610f8557610f85612f1c565b604051908082528060200260200182016040528015610fae578160200160208202803683370190505b5090505f5b8363ffffffff168163ffffffff161015611048575f80610fdd600d63ffffffff808616906123c916565b9150915081858463ffffffff1681518110610ffa57610ffa613446565b60200260200101906001600160a01b031690816001600160a01b03168152505080848463ffffffff168151811061103357611033613446565b60209081029190910101525050600101610fb3565b505f5b8363ffffffff168163ffffffff161015611115575f838263ffffffff168151811061107857611078613446565b602002602001015190505f838363ffffffff168151811061109b5761109b613446565b602002602001015190505f6110af82611ea7565b90506110bc600d846123d7565b506110c783826123eb565b826001600160a01b03167f85a190caa61692b36b63a55e069330d18ab9af179fed7a25c16a4262bc63b7d28360405161110291815260200190565b60405180910390a250505060010161104b565b50505f60135550506001600555565b565b7f000000000000000000000000000000000000000000000000000000000000000090565b6006546001600160a01b0316331461117557604051631a27eac360e11b815260040160405180910390fd5b600460ff8416111561119a576040516317dbc4cb60e21b815260040160405180910390fd5b610bb861ffff831611156111c1576040516317dbc4cb60e21b815260040160405180910390fd5b61012c61ffff821611156111e8576040516317dbc4cb60e21b815260040160405180910390fd5b8260ff1660048111156111fd576111fd61323b565b6016805460ff191660018360048111156112195761121961323b565b02179055506016805464ffffffff00191661010061ffff85811691820264ffff0000001916929092176301000000928516928302179092556040805160ff8716815260208101939093528201527fd24f39e523bfa412fa391702710dc62e1c82d87a8e83228a37c42be1b4870f459060600160405180910390a1505050565b5f60405163125ad87760e31b815260040160405180910390fd5b6001600160a01b03165f9081526020819052604090205490565b805f036112ee5730604051636b30633560e01b81526004016107169190613156565b5f6112f8336112b2565b90508082111561132157338183604051632e2a182f60e11b8152600401610716939291906134c8565b60085460408051631d06d6c760e11b815290515f9230926323b872dd9233926001600160a01b031691633a0dad8e9160048083019260209291908290030181865afa158015611372573d5f5f3e3d5ffd5b505050506040513d601f19601f8201168201806040525081019061139691906134e9565b866040518463ffffffff1660e01b81526004016113b593929190613504565b6020604051808303815f875af11580156113d1573d5f5f3e3d5ffd5b505050506040513d601f19601f820116820180604052508101906113f5919061345a565b905080611415576040516312171d8360e31b815260040160405180910390fd5b5f6114216010336122cd565b915061143c905033611433868461353c565b601091906122f3565b508360145f82825461144e919061353c565b909155505060405184815233907ff7774b688d56120b783560a913ee60792a73dfd511812b7be5eccf10d08c66899060200160405180910390a250505050565b60606004805461076890613479565b5f6114d56114ac84600161353c565b6114b461241f565b6114bf90600a61365e565b6002546114cc919061353c565b8691908561249b565b949350505050565b5f33610807818585612362565b60085f9054906101000a90046001600160a01b03166001600160a01b0316633a0dad8e6040518163ffffffff1660e01b8152600401602060405180830381865afa15801561153a573d5f5f3e3d5ffd5b505050506040513d601f19601f8201168201806040525081019061155e91906134e9565b6001600160a01b0316336001600160a01b03161461158f57604051631a27eac360e11b815260040160405180910390fd5b6115976122a3565b5f6115a260106123bf565b90505f8163ffffffff166001600160401b038111156115c3576115c3612f1c565b6040519080825280602002602001820160405280156115ec578160200160208202803683370190505b5090505f8263ffffffff166001600160401b0381111561160e5761160e612f1c565b604051908082528060200260200182016040528015611637578160200160208202803683370190505b5090505f5b8363ffffffff168163ffffffff1610156116d1575f80611666601063ffffffff808616906123c916565b9150915081858463ffffffff168151811061168357611683613446565b60200260200101906001600160a01b031690816001600160a01b03168152505080848463ffffffff16815181106116bc576116bc613446565b6020908102919091010152505060010161163c565b505f60148190555b8363ffffffff168163ffffffff16101561183e575f838263ffffffff168151811061170657611706613446565b602002602001015190505f838363ffffffff168151811061172957611729613446565b602002602001015190506117478260106123d790919063ffffffff16565b5061175230826124dd565b5f61175c826107e9565b9050611766611126565b6001600160a01b031663a9059cbb84836040518363ffffffff1660e01b815260040161179392919061366c565b6020604051808303815f875af11580156117af573d5f5f3e3d5ffd5b505050506040513d601f19601f820116820180604052508101906117d3919061345a565b6117f0576040516312171d8360e31b815260040160405180910390fd5b826001600160a01b03167f44b2ff9ffcefe2052a8afdbed44a04bf3db4592ae90c6b96c818bd28573e41e88360405161182b91815260200190565b60405180910390a25050506001016116d9565b505050506111246001600555565b6007546001600160a01b0316331461187757604051631a27eac360e11b815260040160405180910390fd5b5f81900361189857604051631121aa8d60e01b815260040160405180910390fd5b6118a2601b612308565b5f816001600160401b038111156118bb576118bb612f1c565b6040519080825280602002602001820160405280156118e4578160200160208202803683370190505b5090505f82815b8161ffff168161ffff161015611a13575f86868361ffff1681811061191257611912613446565b6119289260206040909202019081019150613094565b90505f87878461ffff1681811061194157611941613446565b90506040020160200160208101906119599190613560565b905081868461ffff168151811061197257611972613446565b60200260200101906001600160a01b031690816001600160a01b0316815250508063ffffffff165f036119ba5781604051636b30633560e01b81526004016107169190613156565b5f6119d0601b8463ffffffff808616906122f316565b9050806119f257826040516346bdabe160e01b81526004016107169190613156565b611a0263ffffffff83168761353c565b955050600190920191506118eb9050565b50611a1d83612511565b60085f9054906101000a90046001600160a01b03166001600160a01b031663d1717c7d6040518163ffffffff1660e01b8152600401602060405180830381865afa158015611a6d573d5f5f3e3d5ffd5b505050506040513d601f19601f82011682018060405250810190611a919190613685565b611a9c90600a61365e565b8214611abb57604051639006dd2760e01b815260040160405180910390fd5b60405133907f2d47a742b8d7df7c1fc5a9a631b206b364e6cb2722490759f63bb3ab14b132e0905f90a25050505050565b5f6107f482600161221e565b6060805f611b06601b6123bf565b90508061ffff166001600160401b03811115611b2457611b24612f1c565b604051908082528060200260200182016040528015611b4d578160200160208202803683370190505b5092508061ffff166001600160401b03811115611b6c57611b6c612f1c565b604051908082528060200260200182016040528015611b95578160200160208202803683370190505b5091505f5b8161ffff168161ffff161015611c2c575f80611bbb601b61ffff85166123c9565b9150915081868461ffff1681518110611bd657611bd6613446565b60200260200101906001600160a01b031690816001600160a01b03168152505080858461ffff1681518110611c0d57611c0d613446565b63ffffffff909216602092830291909101909101525050600101611b9a565b50509091565b6006546001600160a01b03163314611c5d57604051631a27eac360e11b815260040160405180910390fd5b60085f9054906101000a90046001600160a01b03166001600160a01b031663edcf9c1f6040518163ffffffff1660e01b8152600401602060405180830381865afa158015611cad573d5f5f3e3d5ffd5b505050506040513d601f19601f82011682018060405250810190611cd1919061345a565b611cee576040516312aecd8160e01b815260040160405180910390fd5b6015545f03611cff576108a8611126565b5f601555565b611d0d6122a3565b805f03611d1c576108a8611126565b5f611d28600d336122cd565b91505081811015611d4c576040516332194fd360e21b815260040160405180910390fd5b60085f9054906101000a90046001600160a01b03166001600160a01b0316633a0dad8e6040518163ffffffff1660e01b8152600401602060405180830381865afa158015611d9c573d5f5f3e3d5ffd5b505050506040513d601f19601f82011682018060405250810190611dc091906134e9565b6001600160a01b03166351edffb133846040518363ffffffff1660e01b8152600401611ded92919061366c565b5f604051808303815f87803b158015611e04575f5ffd5b505af1158015611e16573d5f5f3e3d5ffd5b505050505f8282611e2791906136a0565b9050805f03611e4157611e3b600d336123d7565b50611e4f565b611e4d600d33836122f3565b505b8260135f828254611e6091906136a0565b909155505060405183815233907f96a9a6886cdf3047a125454218a23d3961fd3a78643123b248a9d106d0ac94fd906020015b60405180910390a25050610ae96001600555565b5f6107f4825f612271565b611eba6122a3565b805f03611edc5730604051636b30633560e01b81526004016107169190613156565b5f611ee86010336122cd565b91505081811015611f0c576040516312ea1f4960e11b815260040160405180910390fd5b60085f9054906101000a90046001600160a01b03166001600160a01b0316633a0dad8e6040518163ffffffff1660e01b8152600401602060405180830381865afa158015611f5c573d5f5f3e3d5ffd5b505050506040513d601f19601f82011682018060405250810190611f8091906134e9565b6001600160a01b031663be186b2033846040518363ffffffff1660e01b8152600401611fad92919061366c565b5f604051808303815f87803b158015611fc4575f5ffd5b505af1158015611fd6573d5f5f3e3d5ffd5b505050505f8282611fe791906136a0565b9050805f0361200157611ffb6010336123d7565b5061200f565b61200d601033836122f3565b505b8260145f82825461202091906136a0565b909155505060405183815233907f9cf37535785001dcc9767688232fcbc8698b3002d1207b50bc2afec3ff8934dc90602001611e93565b5f6107f4612064836112b2565b5f61221e565b6060805f61207860186123bf565b90508061ffff166001600160401b0381111561209657612096612f1c565b6040519080825280602002602001820160405280156120bf578160200160208202803683370190505b5092508061ffff166001600160401b038111156120de576120de612f1c565b604051908082528060200260200182016040528015612107578160200160208202803683370190505b5091505f5b8161ffff168161ffff161015611c2c575f8061212d601861ffff85166123c9565b9150915081868461ffff168151811061214857612148613446565b60200260200101906001600160a01b031690816001600160a01b03168152505080858461ffff168151811061217f5761217f613446565b6020908102919091010152505060010161210c565b5f6107f4826112b2565b6001600160a01b039182165f90815260016020908152604080832093909416825291909152205490565b5f5f6121d383612589565b90505f6121e082856136a0565b90505f6121ec82612653565b90506121f8818461353c565b95945050505050565b610ae98161270f565b5f610d91836001600160a01b038416612768565b5f610d9161222b600c5490565b61223690600161353c565b61223e61241f565b61224990600a61365e565b600254612256919061353c565b8591908561249b565b61226c83838360016127af565b505050565b5f610d9161227d61241f565b61228890600a61365e565b600254612295919061353c565b600c5461225690600161353c565b6002600554036122c657604051633ee5aeb560e01b815260040160405180910390fd5b6002600555565b5f8080806122e4866001600160a01b038716612881565b909450925050505b9250929050565b5f6114d5846001600160a01b038516846128b9565b610ae9816128d5565b5f61231c848461219e565b90505f1981101561235c578181101561234e57828183604051637dc7a0d960e11b8152600401610716939291906134c8565b61235c84848484035f6127af565b50505050565b6001600160a01b03831661238b575f604051634b637e8f60e11b81526004016107169190613156565b6001600160a01b0382166123b4575f60405163ec442f0560e01b81526004016107169190613156565b61226c83838361291e565b5f6107f482612a31565b5f8080806122e48686612a3b565b5f610d91836001600160a01b038416612a64565b6001600160a01b038216612414575f60405163ec442f0560e01b81526004016107169190613156565b6107555f838361291e565b5f5f612429611126565b6001600160a01b031663313ce5676040518163ffffffff1660e01b8152600401602060405180830381865afa158015612464573d5f5f3e3d5ffd5b505050506040513d601f19601f820116820180604052508101906124889190613685565b90506124958160126136b3565b91505090565b5f6124c86124a883612a80565b80156124c357505f84806124be576124be6136cc565b868809115b151590565b6124d3868686612aac565b6121f8919061353c565b6001600160a01b038216612506575f604051634b637e8f60e11b81526004016107169190613156565b610755825f8361291e565b5f5b81518110156107555761254982828151811061253157612531613446565b6020026020010151600a612b5c90919063ffffffff16565b6125815781818151811061255f5761255f613446565b602002602001015160405163751dff9760e11b81526004016107169190613156565b600101612513565b6016545f906301000000900461ffff1681036125a657505f919050565b6016545f906125c3906301000000900461ffff1684612710612aac565b9050610d9160095f9054906101000a90046001600160a01b03166001600160a01b0316634ff0876a6040518163ffffffff1660e01b8152600401602060405180830381865afa158015612618573d5f5f3e3d5ffd5b505050506040513d601f19601f8201168201806040525081019061263c91906136e0565b829063ffffffff908116906301e1338090612aac16565b6016545f90610100900461ffff16810361266e57505f919050565b5f6126b261267d84600161353c565b61268561241f565b61269090600a61365e565b60025461269d919061353c565b5f6126aa6012600a61365e565b92919061249b565b6016549091505f9081906126c89060ff16612b70565b915091508183116126dd57505f949350505050565b6016545f906126f690610100900461ffff168584612aac565b90506127058187612710612aac565b9695505050505050565b5f612718825490565b90505f5b8181101561276157826001015f845f01838154811061273d5761273d613446565b905f5260205f20015481526020019081526020015f205f905580600101905061271c565b50505f9055565b5f6127738383612c5a565b6127a857508154600181810184555f8481526020808220909301849055845484825282860190935260409020919091556107f4565b505f6107f4565b6001600160a01b0384166127d8575f60405163e602df0560e01b81526004016107169190613156565b6001600160a01b038316612801575f604051634a1406b160e11b81526004016107169190613156565b6001600160a01b038085165f908152600160209081526040808320938716835292905220829055801561235c57826001600160a01b0316846001600160a01b03167f8c5be1e5ebec7d5bd14f71427d1e84f3dd0314c0f7b2291e5b200ac8c7c3b9258460405161287391815260200190565b60405180910390a350505050565b5f8181526002830160205260408120548190806128ae576128a28585612c71565b92505f91506122ec9050565b6001925090506122ec565b5f82815260028401602052604081208290556114d58484612c7c565b5f6128df82612a31565b90505f5b8181101561291457600283015f6128fa8584612c87565b815260208101919091526040015f908120556001016128e3565b5061075582612201565b6001600160a01b038316612948578060025f82825461293d919061353c565b909155506129a59050565b6001600160a01b0383165f90815260208190526040902054818110156129875783818360405163391434e360e21b8152600401610716939291906134c8565b6001600160a01b0384165f9081526020819052604090209082900390555b6001600160a01b0382166129c1576002805482900390556129df565b6001600160a01b0382165f9081526020819052604090208054820190555b816001600160a01b0316836001600160a01b03167fddf252ad1be2c89b69c2b068fc378daa952ba7f163c4a11628f55a4df523b3ef83604051612a2491815260200190565b60405180910390a3505050565b5f6107f482612c92565b5f8080612a488585612c87565b5f81815260029690960160205260409095205494959350505050565b5f8181526002830160205260408120819055610d918383612c9b565b5f6002826003811115612a9557612a9561323b565b612a9f91906136fb565b60ff166001149050919050565b5f5f5f612ab98686612ca6565b91509150815f03612add57838181612ad357612ad36136cc565b0492505050610d91565b818411612af457612af46003851502601118612cc2565b5f848688095f868103871696879004966002600389028118808a02820302808a02820302808a02820302808a02820302808a02820302808a02909103029181900381900460010185841190960395909502919093039390930492909217029150509392505050565b5f610d91836001600160a01b038416612c5a565b5f8080612b7d6012610e44565b90505f846004811115612b9257612b9261323b565b03612ba257809250829150612c54565b6003846004811115612bb657612bb661323b565b03612bc8576017549250829150612c54565b6001846004811115612bdc57612bdc61323b565b03612bf457612bea81612cd3565b9250809150612c54565b6002846004811115612c0857612c0861323b565b03612c2057612c1681612cd3565b9250829150612c54565b6004846004811115612c3457612c3461323b565b03612c5457601754612c4e90612c4983612cd3565b612df9565b92508291505b50915091565b5f9081526001919091016020526040902054151590565b5f610d918383612e08565b5f610d918383612768565b5f610d918383612e13565b5f6107f4825490565b5f610d918383612e39565b5f805f1983850993909202808410938190039390930393915050565b634e487b715f52806020526024601cfd5b5f5f60085f9054906101000a90046001600160a01b03166001600160a01b031663f3cc69936040518163ffffffff1660e01b8152600401602060405180830381865afa158015612d25573d5f5f3e3d5ffd5b505050506040513d601f19601f82011682018060405250810190612d499190613728565b61ffff1690505f612dde60095f9054906101000a90046001600160a01b03166001600160a01b0316634ff0876a6040518163ffffffff1660e01b8152600401602060405180830381865afa158015612da3573d5f5f3e3d5ffd5b505050506040513d601f19601f82011682018060405250810190612dc791906136e0565b839063ffffffff908116906301e1338090612aac16565b90506114d5612def8261271061353c565b8590612710612aac565b5f828218828411028218610d91565b5f610d918383612c5a565b5f825f018281548110612e2857612e28613446565b905f5260205f200154905092915050565b5f8181526001830160205260408120548015612f13575f612e5b6001836136a0565b85549091505f90612e6e906001906136a0565b9050808214612ecd575f865f018281548110612e8c57612e8c613446565b905f5260205f200154905080875f018481548110612eac57612eac613446565b5f918252602080832090910192909255918252600188019052604090208390555b8554869080612ede57612ede613743565b600190038181905f5260205f20015f90559055856001015f8681526020019081526020015f205f9055600193505050506107f4565b5f9150506107f4565b634e487b7160e01b5f52604160045260245ffd5b6001600160a01b0381168114610ae9575f5ffd5b8035612f4f81612f30565b919050565b5f60208284031215612f64575f5ffd5b81356001600160401b03811115612f79575f5ffd5b8201601f81018413612f89575f5ffd5b80356001600160401b03811115612fa257612fa2612f1c565b604051600582901b90603f8201601f191681016001600160401b0381118282101715612fd057612fd0612f1c565b604052918252602081840181019290810187841115612fed575f5ffd5b6020850194505b838510156130135761300585612f44565b815260209485019401612ff4565b509695505050505050565b602081525f82518060208401528060208501604085015e5f604082850101526040601f19601f83011684010191505092915050565b5f60208284031215613063575f5ffd5b5035919050565b5f5f6040838503121561307b575f5ffd5b823561308681612f30565b946020939093013593505050565b5f602082840312156130a4575f5ffd5b8135610d9181612f30565b5f5f604083850312156130c0575f5ffd5b50508035926020909101359150565b5f5f83601f8401126130df575f5ffd5b5081356001600160401b038111156130f5575f5ffd5b6020830191508360208260061b85010111156122ec575f5ffd5b5f5f5f60408486031215613121575f5ffd5b83356001600160401b03811115613136575f5ffd5b613142868287016130cf565b909790965060209590950135949350505050565b6001600160a01b0391909116815260200190565b5f5f5f6060848603121561317c575f5ffd5b833561318781612f30565b9250602084013561319781612f30565b929592945050506040919091013590565b60ff81168114610ae9575f5ffd5b61ffff81168114610ae9575f5ffd5b5f5f5f606084860312156131d7575f5ffd5b83356131e2816131a8565b925060208401356131f2816131b6565b91506040840135613202816131b6565b809150509250925092565b5f5f6040838503121561321e575f5ffd5b82359150602083013561323081612f30565b809150509250929050565b634e487b7160e01b5f52602160045260245ffd5b608081016005861061326f57634e487b7160e01b5f52602160045260245ffd5b94815261ffff93841660208201529190921660408201526060015290565b5f5f5f6060848603121561329f575f5ffd5b8335925060208401359150604084013560048110613202575f5ffd5b5f5f602083850312156132cc575f5ffd5b82356001600160401b038111156132e1575f5ffd5b6132ed858286016130cf565b90969095509350505050565b5f5f5f6060848603121561330b575f5ffd5b83359250602084013561331d81612f30565b9150604084013561320281612f30565b5f8151808452602084019350602083015f5b828110156133665781516001600160a01b031686526020958601959091019060010161333f565b5093949350505050565b604081525f613382604083018561332d565b82810360208401528084518083526020830191506020860192505f5b818110156133c257835163ffffffff1683526020938401939092019160010161339e565b50909695505050505050565b604081525f6133e0604083018561332d565b82810360208401528084518083526020830191506020860192505f5b818110156133c25783518352602093840193909201916001016133fc565b5f5f6040838503121561342b575f5ffd5b823561343681612f30565b9150602083013561323081612f30565b634e487b7160e01b5f52603260045260245ffd5b5f6020828403121561346a575f5ffd5b81518015158114610d91575f5ffd5b600181811c9082168061348d57607f821691505b6020821081036134ab57634e487b7160e01b5f52602260045260245ffd5b50919050565b5f602082840312156134c1575f5ffd5b5051919050565b6001600160a01b039390931683526020830191909152604082015260600190565b5f602082840312156134f9575f5ffd5b8151610d9181612f30565b6001600160a01b039384168152919092166020820152604081019190915260600190565b634e487b7160e01b5f52601160045260245ffd5b808201808211156107f4576107f4613528565b63ffffffff81168114610ae9575f5ffd5b5f60208284031215613570575f5ffd5b8135610d918161354f565b6001815b60018411156135b65780850481111561359a5761359a613528565b60018416156135a857908102905b60019390931c92800261357f565b935093915050565b5f826135cc575060016107f4565b816135d857505f6107f4565b81600181146135ee57600281146135f857613614565b60019150506107f4565b60ff84111561360957613609613528565b50506001821b6107f4565b5060208310610133831016604e8410600b8410161715613637575081810a6107f4565b6136435f19848461357b565b805f190482111561365657613656613528565b029392505050565b5f610d9160ff8416836135be565b6001600160a01b03929092168252602082015260400190565b5f60208284031215613695575f5ffd5b8151610d91816131a8565b818103818111156107f4576107f4613528565b60ff82811682821603908111156107f4576107f4613528565b634e487b7160e01b5f52601260045260245ffd5b5f602082840312156136f0575f5ffd5b8151610d918161354f565b5f60ff83168061371957634e487b7160e01b5f52601260045260245ffd5b8060ff84160691505092915050565b5f60208284031215613738575f5ffd5b8151610d91816131b6565b634e487b7160e01b5f52603160045260245ffdfea264697066735822122094e77bcf03643fd019d8df11ff773db7ba1d8a937ca17e69bedad9a33e0ec27e64736f6c634300081c0033",
  "linkReferences": {},
  "deployedLinkReferences": {}
}