{
  "_format": "hh-sol-artifact-1",
  "contractName": "OrionTransparentVault",
  "sourceName": "contracts/vaults/OrionTransparentVault.sol",
  "abi": [
    {
      "inputs": [
        {
          "internalType": "address",
          "name": "vaultOwner",
          "type": "address"
        },
        {
          "internalType": "address",
          "name": "curator",
          "type": "address"
        },
        {
          "internalType": "contract IOrionConfig",
          "name": "configAddress",
          "type": "address"
        },
        {
          "internalType": "string",
          "name": "name",
          "type": "string"
        },
        {
          "internalType": "string",
          "name": "symbol",
          "type": "string"
        },
        {
          "internalType": "uint8",
          "name": "feeType",
          "type": "uint8"
        },
        {
          "internalType": "uint16",
          "name": "performanceFee",
          "type": "uint16"
        },
        {
          "internalType": "uint16",
          "name": "managementFee",
          "type": "uint16"
        }
      ],
      "stateMutability": "nonpayable",
      "type": "constructor"
    },
    {
      "inputs": [],
      "name": "AlreadyRegistered",
      "type": "error"
    },
    {
      "inputs": [
        {
          "internalType": "address",
          "name": "asset",
          "type": "address"
        }
      ],
      "name": "AmountMustBeGreaterThanZero",
      "type": "error"
    },
    {
      "inputs": [
        {
          "internalType": "address",
          "name": "spender",
          "type": "address"
        },
        {
          "internalType": "uint256",
          "name": "allowance",
          "type": "uint256"
        },
        {
          "internalType": "uint256",
          "name": "needed",
          "type": "uint256"
        }
      ],
      "name": "ERC20InsufficientAllowance",
      "type": "error"
    },
    {
      "inputs": [
        {
          "internalType": "address",
          "name": "sender",
          "type": "address"
        },
        {
          "internalType": "uint256",
          "name": "balance",
          "type": "uint256"
        },
        {
          "internalType": "uint256",
          "name": "needed",
          "type": "uint256"
        }
      ],
      "name": "ERC20InsufficientBalance",
      "type": "error"
    },
    {
      "inputs": [
        {
          "internalType": "address",
          "name": "approver",
          "type": "address"
        }
      ],
      "name": "ERC20InvalidApprover",
      "type": "error"
    },
    {
      "inputs": [
        {
          "internalType": "address",
          "name": "receiver",
          "type": "address"
        }
      ],
      "name": "ERC20InvalidReceiver",
      "type": "error"
    },
    {
      "inputs": [
        {
          "internalType": "address",
          "name": "sender",
          "type": "address"
        }
      ],
      "name": "ERC20InvalidSender",
      "type": "error"
    },
    {
      "inputs": [
        {
          "internalType": "address",
          "name": "spender",
          "type": "address"
        }
      ],
      "name": "ERC20InvalidSpender",
      "type": "error"
    },
    {
      "inputs": [
        {
          "internalType": "address",
          "name": "receiver",
          "type": "address"
        },
        {
          "internalType": "uint256",
          "name": "assets",
          "type": "uint256"
        },
        {
          "internalType": "uint256",
          "name": "max",
          "type": "uint256"
        }
      ],
      "name": "ERC4626ExceededMaxDeposit",
      "type": "error"
    },
    {
      "inputs": [
        {
          "internalType": "address",
          "name": "receiver",
          "type": "address"
        },
        {
          "internalType": "uint256",
          "name": "shares",
          "type": "uint256"
        },
        {
          "internalType": "uint256",
          "name": "max",
          "type": "uint256"
        }
      ],
      "name": "ERC4626ExceededMaxMint",
      "type": "error"
    },
    {
      "inputs": [
        {
          "internalType": "address",
          "name": "owner",
          "type": "address"
        },
        {
          "internalType": "uint256",
          "name": "shares",
          "type": "uint256"
        },
        {
          "internalType": "uint256",
          "name": "max",
          "type": "uint256"
        }
      ],
      "name": "ERC4626ExceededMaxRedeem",
      "type": "error"
    },
    {
      "inputs": [
        {
          "internalType": "address",
          "name": "owner",
          "type": "address"
        },
        {
          "internalType": "uint256",
          "name": "assets",
          "type": "uint256"
        },
        {
          "internalType": "uint256",
          "name": "max",
          "type": "uint256"
        }
      ],
      "name": "ERC4626ExceededMaxWithdraw",
      "type": "error"
    },
    {
      "inputs": [],
      "name": "InsufficientAmount",
      "type": "error"
    },
    {
      "inputs": [],
      "name": "InvalidAddress",
      "type": "error"
    },
    {
      "inputs": [],
      "name": "InvalidArguments",
      "type": "error"
    },
    {
      "inputs": [],
      "name": "InvalidCuratorContract",
      "type": "error"
    },
    {
      "inputs": [],
      "name": "InvalidTotalWeight",
      "type": "error"
    },
    {
      "inputs": [],
      "name": "InvalidUnderlyingDecimals",
      "type": "error"
    },
    {
      "inputs": [],
      "name": "OrderIntentCannotBeEmpty",
      "type": "error"
    },
    {
      "inputs": [],
      "name": "ReentrancyGuardReentrantCall",
      "type": "error"
    },
    {
      "inputs": [],
      "name": "SynchronousCallDisabled",
      "type": "error"
    },
    {
      "inputs": [],
      "name": "SystemNotIdle",
      "type": "error"
    },
    {
      "inputs": [
        {
          "internalType": "address",
          "name": "token",
          "type": "address"
        }
      ],
      "name": "TokenAlreadyInOrder",
      "type": "error"
    },
    {
      "inputs": [
        {
          "internalType": "address",
          "name": "token",
          "type": "address"
        }
      ],
      "name": "TokenNotWhitelisted",
      "type": "error"
    },
    {
      "inputs": [],
      "name": "TransferFailed",
      "type": "error"
    },
    {
      "inputs": [],
      "name": "UnauthorizedAccess",
      "type": "error"
    },
    {
      "anonymous": false,
      "inputs": [
        {
          "indexed": true,
          "internalType": "address",
          "name": "owner",
          "type": "address"
        },
        {
          "indexed": true,
          "internalType": "address",
          "name": "spender",
          "type": "address"
        },
        {
          "indexed": false,
          "internalType": "uint256",
          "name": "value",
          "type": "uint256"
        }
      ],
      "name": "Approval",
      "type": "event"
    },
    {
      "anonymous": false,
      "inputs": [
        {
          "indexed": true,
          "internalType": "uint256",
          "name": "epoch",
          "type": "uint256"
        },
        {
          "indexed": true,
          "internalType": "uint256",
          "name": "feeAmount",
          "type": "uint256"
        },
        {
          "indexed": true,
          "internalType": "uint256",
          "name": "pendingCuratorFees",
          "type": "uint256"
        }
      ],
      "name": "CuratorFeesAccrued",
      "type": "event"
    },
    {
      "anonymous": false,
      "inputs": [
        {
          "indexed": true,
          "internalType": "address",
          "name": "newCurator",
          "type": "address"
        }
      ],
      "name": "CuratorUpdated",
      "type": "event"
    },
    {
      "anonymous": false,
      "inputs": [
        {
          "indexed": true,
          "internalType": "address",
          "name": "sender",
          "type": "address"
        },
        {
          "indexed": true,
          "internalType": "address",
          "name": "owner",
          "type": "address"
        },
        {
          "indexed": false,
          "internalType": "uint256",
          "name": "assets",
          "type": "uint256"
        },
        {
          "indexed": false,
          "internalType": "uint256",
          "name": "shares",
          "type": "uint256"
        }
      ],
      "name": "Deposit",
      "type": "event"
    },
    {
      "anonymous": false,
      "inputs": [
        {
          "indexed": true,
          "internalType": "address",
          "name": "vault",
          "type": "address"
        },
        {
          "indexed": true,
          "internalType": "address",
          "name": "user",
          "type": "address"
        },
        {
          "indexed": true,
          "internalType": "uint256",
          "name": "epoch",
          "type": "uint256"
        },
        {
          "indexed": false,
          "internalType": "uint256",
          "name": "depositAmount",
          "type": "uint256"
        },
        {
          "indexed": false,
          "internalType": "uint256",
          "name": "sharesMinted",
          "type": "uint256"
        }
      ],
      "name": "Deposit",
      "type": "event"
    },
    {
      "anonymous": false,
      "inputs": [
        {
          "indexed": true,
          "internalType": "address",
          "name": "sender",
          "type": "address"
        },
        {
          "indexed": true,
          "internalType": "uint256",
          "name": "assets",
          "type": "uint256"
        }
      ],
      "name": "DepositRequest",
      "type": "event"
    },
    {
      "anonymous": false,
      "inputs": [
        {
          "indexed": true,
          "internalType": "address",
          "name": "user",
          "type": "address"
        },
        {
          "indexed": true,
          "internalType": "uint256",
          "name": "amount",
          "type": "uint256"
        }
      ],
      "name": "DepositRequestCancelled",
      "type": "event"
    },
    {
      "anonymous": false,
      "inputs": [
        {
          "indexed": true,
          "internalType": "uint8",
          "name": "mode",
          "type": "uint8"
        },
        {
          "indexed": true,
          "internalType": "uint16",
          "name": "performanceFee",
          "type": "uint16"
        },
        {
          "indexed": true,
          "internalType": "uint16",
          "name": "managementFee",
          "type": "uint16"
        }
      ],
      "name": "FeeModelUpdated",
      "type": "event"
    },
    {
      "anonymous": false,
      "inputs": [
        {
          "indexed": true,
          "internalType": "address",
          "name": "curator",
          "type": "address"
        }
      ],
      "name": "OrderSubmitted",
      "type": "event"
    },
    {
      "anonymous": false,
      "inputs": [
        {
          "indexed": true,
          "internalType": "address",
          "name": "vault",
          "type": "address"
        },
        {
          "indexed": true,
          "internalType": "address",
          "name": "user",
          "type": "address"
        },
        {
          "indexed": true,
          "internalType": "uint256",
          "name": "epoch",
          "type": "uint256"
        },
        {
          "indexed": false,
          "internalType": "uint256",
          "name": "redeemAmount",
          "type": "uint256"
        },
        {
          "indexed": false,
          "internalType": "uint256",
          "name": "sharesBurned",
          "type": "uint256"
        }
      ],
      "name": "Redeem",
      "type": "event"
    },
    {
      "anonymous": false,
      "inputs": [
        {
          "indexed": true,
          "internalType": "address",
          "name": "sender",
          "type": "address"
        },
        {
          "indexed": true,
          "internalType": "uint256",
          "name": "shares",
          "type": "uint256"
        }
      ],
      "name": "RedeemRequest",
      "type": "event"
    },
    {
      "anonymous": false,
      "inputs": [
        {
          "indexed": true,
          "internalType": "address",
          "name": "user",
          "type": "address"
        },
        {
          "indexed": true,
          "internalType": "uint256",
          "name": "shares",
          "type": "uint256"
        }
      ],
      "name": "RedeemRequestCancelled",
      "type": "event"
    },
    {
      "anonymous": false,
      "inputs": [
        {
          "indexed": true,
          "internalType": "address",
          "name": "from",
          "type": "address"
        },
        {
          "indexed": true,
          "internalType": "address",
          "name": "to",
          "type": "address"
        },
        {
          "indexed": false,
          "internalType": "uint256",
          "name": "value",
          "type": "uint256"
        }
      ],
      "name": "Transfer",
      "type": "event"
    },
    {
      "anonymous": false,
      "inputs": [
        {
          "indexed": true,
          "internalType": "uint256",
          "name": "newTotalAssets",
          "type": "uint256"
        }
      ],
      "name": "VaultStateUpdated",
      "type": "event"
    },
    {
      "anonymous": false,
      "inputs": [
        {
          "indexed": true,
          "internalType": "address[]",
          "name": "assets",
          "type": "address[]"
        }
      ],
      "name": "VaultWhitelistUpdated",
      "type": "event"
    },
    {
      "anonymous": false,
      "inputs": [
        {
          "indexed": true,
          "internalType": "address",
          "name": "sender",
          "type": "address"
        },
        {
          "indexed": true,
          "internalType": "address",
          "name": "receiver",
          "type": "address"
        },
        {
          "indexed": true,
          "internalType": "address",
          "name": "owner",
          "type": "address"
        },
        {
          "indexed": false,
          "internalType": "uint256",
          "name": "assets",
          "type": "uint256"
        },
        {
          "indexed": false,
          "internalType": "uint256",
          "name": "shares",
          "type": "uint256"
        }
      ],
      "name": "Withdraw",
      "type": "event"
    },
    {
      "inputs": [],
      "name": "BASIS_POINTS_FACTOR",
      "outputs": [
        {
          "internalType": "uint16",
          "name": "",
          "type": "uint16"
        }
      ],
      "stateMutability": "view",
      "type": "function"
    },
    {
      "inputs": [],
      "name": "MAX_MANAGEMENT_FEE",
      "outputs": [
        {
          "internalType": "uint16",
          "name": "",
          "type": "uint16"
        }
      ],
      "stateMutability": "view",
      "type": "function"
    },
    {
      "inputs": [],
      "name": "MAX_PERFORMANCE_FEE",
      "outputs": [
        {
          "internalType": "uint16",
          "name": "",
          "type": "uint16"
        }
      ],
      "stateMutability": "view",
      "type": "function"
    },
    {
      "inputs": [],
      "name": "SHARE_DECIMALS",
      "outputs": [
        {
          "internalType": "uint8",
          "name": "",
          "type": "uint8"
        }
      ],
      "stateMutability": "view",
      "type": "function"
    },
    {
      "inputs": [],
      "name": "YEAR_IN_SECONDS",
      "outputs": [
        {
          "internalType": "uint32",
          "name": "",
          "type": "uint32"
        }
      ],
      "stateMutability": "view",
      "type": "function"
    },
    {
      "inputs": [
        {
          "internalType": "uint256",
          "name": "epoch",
          "type": "uint256"
        },
        {
          "internalType": "uint256",
          "name": "feeAmount",
          "type": "uint256"
        }
      ],
      "name": "accrueCuratorFees",
      "outputs": [],
      "stateMutability": "nonpayable",
      "type": "function"
    },
    {
      "inputs": [
        {
          "internalType": "address",
          "name": "owner",
          "type": "address"
        },
        {
          "internalType": "address",
          "name": "spender",
          "type": "address"
        }
      ],
      "name": "allowance",
      "outputs": [
        {
          "internalType": "uint256",
          "name": "",
          "type": "uint256"
        }
      ],
      "stateMutability": "view",
      "type": "function"
    },
    {
      "inputs": [
        {
          "internalType": "address",
          "name": "spender",
          "type": "address"
        },
        {
          "internalType": "uint256",
          "name": "value",
          "type": "uint256"
        }
      ],
      "name": "approve",
      "outputs": [
        {
          "internalType": "bool",
          "name": "",
          "type": "bool"
        }
      ],
      "stateMutability": "nonpayable",
      "type": "function"
    },
    {
      "inputs": [],
      "name": "asset",
      "outputs": [
        {
          "internalType": "address",
          "name": "",
          "type": "address"
        }
      ],
      "stateMutability": "view",
      "type": "function"
    },
    {
      "inputs": [
        {
          "internalType": "address",
          "name": "account",
          "type": "address"
        }
      ],
      "name": "balanceOf",
      "outputs": [
        {
          "internalType": "uint256",
          "name": "",
          "type": "uint256"
        }
      ],
      "stateMutability": "view",
      "type": "function"
    },
    {
      "inputs": [
        {
          "internalType": "uint256",
          "name": "amount",
          "type": "uint256"
        }
      ],
      "name": "cancelDepositRequest",
      "outputs": [],
      "stateMutability": "nonpayable",
      "type": "function"
    },
    {
      "inputs": [
        {
          "internalType": "uint256",
          "name": "shares",
          "type": "uint256"
        }
      ],
      "name": "cancelRedeemRequest",
      "outputs": [],
      "stateMutability": "nonpayable",
      "type": "function"
    },
    {
      "inputs": [
        {
          "internalType": "uint256",
          "name": "amount",
          "type": "uint256"
        }
      ],
      "name": "claimCuratorFees",
      "outputs": [],
      "stateMutability": "nonpayable",
      "type": "function"
    },
    {
      "inputs": [],
      "name": "config",
      "outputs": [
        {
          "internalType": "contract IOrionConfig",
          "name": "",
          "type": "address"
        }
      ],
      "stateMutability": "view",
      "type": "function"
    },
    {
      "inputs": [
        {
          "internalType": "uint256",
          "name": "shares",
          "type": "uint256"
        }
      ],
      "name": "convertToAssets",
      "outputs": [
        {
          "internalType": "uint256",
          "name": "",
          "type": "uint256"
        }
      ],
      "stateMutability": "view",
      "type": "function"
    },
    {
      "inputs": [
        {
          "internalType": "uint256",
          "name": "shares",
          "type": "uint256"
        },
        {
          "internalType": "uint256",
          "name": "pointInTimeTotalAssets",
          "type": "uint256"
        },
        {
          "internalType": "enum Math.Rounding",
          "name": "rounding",
          "type": "uint8"
        }
      ],
      "name": "convertToAssetsWithPITTotalAssets",
      "outputs": [
        {
          "internalType": "uint256",
          "name": "",
          "type": "uint256"
        }
      ],
      "stateMutability": "view",
      "type": "function"
    },
    {
      "inputs": [
        {
          "internalType": "uint256",
          "name": "assets",
          "type": "uint256"
        }
      ],
      "name": "convertToShares",
      "outputs": [
        {
          "internalType": "uint256",
          "name": "",
          "type": "uint256"
        }
      ],
      "stateMutability": "view",
      "type": "function"
    },
    {
      "inputs": [
        {
          "internalType": "uint256",
          "name": "assets",
          "type": "uint256"
        },
        {
          "internalType": "uint256",
          "name": "pointInTimeTotalAssets",
          "type": "uint256"
        },
        {
          "internalType": "enum Math.Rounding",
          "name": "rounding",
          "type": "uint8"
        }
      ],
      "name": "convertToSharesWithPITTotalAssets",
      "outputs": [
        {
          "internalType": "uint256",
          "name": "",
          "type": "uint256"
        }
      ],
      "stateMutability": "view",
      "type": "function"
    },
    {
      "inputs": [],
      "name": "curator",
      "outputs": [
        {
          "internalType": "address",
          "name": "",
          "type": "address"
        }
      ],
      "stateMutability": "view",
      "type": "function"
    },
    {
      "inputs": [
        {
          "internalType": "uint256",
          "name": "activeTotalAssets",
          "type": "uint256"
        }
      ],
      "name": "curatorFee",
      "outputs": [
        {
          "internalType": "uint256",
          "name": "",
          "type": "uint256"
        }
      ],
      "stateMutability": "view",
      "type": "function"
    },
    {
      "inputs": [],
      "name": "curatorIntentDecimals",
      "outputs": [
        {
          "internalType": "uint8",
          "name": "",
          "type": "uint8"
        }
      ],
      "stateMutability": "view",
      "type": "function"
    },
    {
      "inputs": [],
      "name": "decimals",
      "outputs": [
        {
          "internalType": "uint8",
          "name": "",
          "type": "uint8"
        }
      ],
      "stateMutability": "view",
      "type": "function"
    },
    {
      "inputs": [
        {
          "internalType": "uint256",
          "name": "",
          "type": "uint256"
        },
        {
          "internalType": "address",
          "name": "",
          "type": "address"
        }
      ],
      "name": "deposit",
      "outputs": [
        {
          "internalType": "uint256",
          "name": "",
          "type": "uint256"
        }
      ],
      "stateMutability": "pure",
      "type": "function"
    },
    {
      "inputs": [],
      "name": "feeModel",
      "outputs": [
        {
          "internalType": "enum OrionVault.FeeType",
          "name": "feeType",
          "type": "uint8"
        },
        {
          "internalType": "uint16",
          "name": "performanceFee",
          "type": "uint16"
        },
        {
          "internalType": "uint16",
          "name": "managementFee",
          "type": "uint16"
        },
        {
          "internalType": "uint256",
          "name": "highWaterMark",
          "type": "uint256"
        }
      ],
      "stateMutability": "view",
      "type": "function"
    },
    {
      "inputs": [
        {
          "internalType": "uint256",
          "name": "depositTotalAssets",
          "type": "uint256"
        }
      ],
      "name": "fulfillDeposit",
      "outputs": [],
      "stateMutability": "nonpayable",
      "type": "function"
    },
    {
      "inputs": [
        {
          "internalType": "uint256",
          "name": "redeemTotalAssets",
          "type": "uint256"
        }
      ],
      "name": "fulfillRedeem",
      "outputs": [],
      "stateMutability": "nonpayable",
      "type": "function"
    },
    {
      "inputs": [],
      "name": "getIntent",
      "outputs": [
        {
          "internalType": "address[]",
          "name": "tokens",
          "type": "address[]"
        },
        {
          "internalType": "uint32[]",
          "name": "weights",
          "type": "uint32[]"
        }
      ],
      "stateMutability": "view",
      "type": "function"
    },
    {
      "inputs": [],
      "name": "getPortfolio",
      "outputs": [
        {
          "internalType": "address[]",
          "name": "tokens",
          "type": "address[]"
        },
        {
          "internalType": "uint256[]",
          "name": "sharesPerAsset",
          "type": "uint256[]"
        }
      ],
      "stateMutability": "view",
      "type": "function"
    },
    {
      "inputs": [],
      "name": "internalStatesOrchestrator",
      "outputs": [
        {
          "internalType": "contract IInternalStateOrchestrator",
          "name": "",
          "type": "address"
        }
      ],
      "stateMutability": "view",
      "type": "function"
    },
    {
      "inputs": [],
      "name": "isPassiveCurator",
      "outputs": [
        {
          "internalType": "bool",
          "name": "isPassive",
          "type": "bool"
        }
      ],
      "stateMutability": "view",
      "type": "function"
    },
    {
      "inputs": [],
      "name": "liquidityOrchestrator",
      "outputs": [
        {
          "internalType": "contract ILiquidityOrchestrator",
          "name": "",
          "type": "address"
        }
      ],
      "stateMutability": "view",
      "type": "function"
    },
    {
      "inputs": [
        {
          "internalType": "address",
          "name": "",
          "type": "address"
        }
      ],
      "name": "maxDeposit",
      "outputs": [
        {
          "internalType": "uint256",
          "name": "",
          "type": "uint256"
        }
      ],
      "stateMutability": "view",
      "type": "function"
    },
    {
      "inputs": [
        {
          "internalType": "address",
          "name": "",
          "type": "address"
        }
      ],
      "name": "maxMint",
      "outputs": [
        {
          "internalType": "uint256",
          "name": "",
          "type": "uint256"
        }
      ],
      "stateMutability": "view",
      "type": "function"
    },
    {
      "inputs": [
        {
          "internalType": "address",
          "name": "owner",
          "type": "address"
        }
      ],
      "name": "maxRedeem",
      "outputs": [
        {
          "internalType": "uint256",
          "name": "",
          "type": "uint256"
        }
      ],
      "stateMutability": "view",
      "type": "function"
    },
    {
      "inputs": [
        {
          "internalType": "address",
          "name": "owner",
          "type": "address"
        }
      ],
      "name": "maxWithdraw",
      "outputs": [
        {
          "internalType": "uint256",
          "name": "",
          "type": "uint256"
        }
      ],
      "stateMutability": "view",
      "type": "function"
    },
    {
      "inputs": [
        {
          "internalType": "uint256",
          "name": "",
          "type": "uint256"
        },
        {
          "internalType": "address",
          "name": "",
          "type": "address"
        }
      ],
      "name": "mint",
      "outputs": [
        {
          "internalType": "uint256",
          "name": "",
          "type": "uint256"
        }
      ],
      "stateMutability": "pure",
      "type": "function"
    },
    {
      "inputs": [],
      "name": "name",
      "outputs": [
        {
          "internalType": "string",
          "name": "",
          "type": "string"
        }
      ],
      "stateMutability": "view",
      "type": "function"
    },
    {
      "inputs": [],
      "name": "pendingCuratorFees",
      "outputs": [
        {
          "internalType": "uint256",
          "name": "",
          "type": "uint256"
        }
      ],
      "stateMutability": "view",
      "type": "function"
    },
    {
      "inputs": [],
      "name": "pendingDeposit",
      "outputs": [
        {
          "internalType": "uint256",
          "name": "",
          "type": "uint256"
        }
      ],
      "stateMutability": "view",
      "type": "function"
    },
    {
      "inputs": [],
      "name": "pendingRedeem",
      "outputs": [
        {
          "internalType": "uint256",
          "name": "",
          "type": "uint256"
        }
      ],
      "stateMutability": "view",
      "type": "function"
    },
    {
      "inputs": [
        {
          "internalType": "uint256",
          "name": "",
          "type": "uint256"
        }
      ],
      "name": "previewDeposit",
      "outputs": [
        {
          "internalType": "uint256",
          "name": "",
          "type": "uint256"
        }
      ],
      "stateMutability": "pure",
      "type": "function"
    },
    {
      "inputs": [
        {
          "internalType": "uint256",
          "name": "",
          "type": "uint256"
        }
      ],
      "name": "previewMint",
      "outputs": [
        {
          "internalType": "uint256",
          "name": "",
          "type": "uint256"
        }
      ],
      "stateMutability": "pure",
      "type": "function"
    },
    {
      "inputs": [
        {
          "internalType": "uint256",
          "name": "",
          "type": "uint256"
        }
      ],
      "name": "previewRedeem",
      "outputs": [
        {
          "internalType": "uint256",
          "name": "",
          "type": "uint256"
        }
      ],
      "stateMutability": "pure",
      "type": "function"
    },
    {
      "inputs": [
        {
          "internalType": "uint256",
          "name": "",
          "type": "uint256"
        }
      ],
      "name": "previewWithdraw",
      "outputs": [
        {
          "internalType": "uint256",
          "name": "",
          "type": "uint256"
        }
      ],
      "stateMutability": "pure",
      "type": "function"
    },
    {
      "inputs": [
        {
          "internalType": "uint256",
          "name": "",
          "type": "uint256"
        },
        {
          "internalType": "address",
          "name": "",
          "type": "address"
        },
        {
          "internalType": "address",
          "name": "",
          "type": "address"
        }
      ],
      "name": "redeem",
      "outputs": [
        {
          "internalType": "uint256",
          "name": "",
          "type": "uint256"
        }
      ],
      "stateMutability": "pure",
      "type": "function"
    },
    {
      "inputs": [
        {
          "internalType": "address",
          "name": "asset",
          "type": "address"
        }
      ],
      "name": "removeFromVaultWhitelist",
      "outputs": [],
      "stateMutability": "nonpayable",
      "type": "function"
    },
    {
      "inputs": [
        {
          "internalType": "uint256",
          "name": "assets",
          "type": "uint256"
        }
      ],
      "name": "requestDeposit",
      "outputs": [],
      "stateMutability": "nonpayable",
      "type": "function"
    },
    {
      "inputs": [
        {
          "internalType": "uint256",
          "name": "shares",
          "type": "uint256"
        }
      ],
      "name": "requestRedeem",
      "outputs": [],
      "stateMutability": "nonpayable",
      "type": "function"
    },
    {
      "inputs": [
        {
          "components": [
            {
              "internalType": "address",
              "name": "token",
              "type": "address"
            },
            {
              "internalType": "uint32",
              "name": "weight",
              "type": "uint32"
            }
          ],
          "internalType": "struct IOrionTransparentVault.IntentPosition[]",
          "name": "intent",
          "type": "tuple[]"
        }
      ],
      "name": "submitIntent",
      "outputs": [],
      "stateMutability": "nonpayable",
      "type": "function"
    },
    {
      "inputs": [],
      "name": "symbol",
      "outputs": [
        {
          "internalType": "string",
          "name": "",
          "type": "string"
        }
      ],
      "stateMutability": "view",
      "type": "function"
    },
    {
      "inputs": [],
      "name": "totalAssets",
      "outputs": [
        {
          "internalType": "uint256",
          "name": "",
          "type": "uint256"
        }
      ],
      "stateMutability": "view",
      "type": "function"
    },
    {
      "inputs": [],
      "name": "totalSupply",
      "outputs": [
        {
          "internalType": "uint256",
          "name": "",
          "type": "uint256"
        }
      ],
      "stateMutability": "view",
      "type": "function"
    },
    {
      "inputs": [
        {
          "internalType": "address",
          "name": "to",
          "type": "address"
        },
        {
          "internalType": "uint256",
          "name": "value",
          "type": "uint256"
        }
      ],
      "name": "transfer",
      "outputs": [
        {
          "internalType": "bool",
          "name": "",
          "type": "bool"
        }
      ],
      "stateMutability": "nonpayable",
      "type": "function"
    },
    {
      "inputs": [
        {
          "internalType": "address",
          "name": "from",
          "type": "address"
        },
        {
          "internalType": "address",
          "name": "to",
          "type": "address"
        },
        {
          "internalType": "uint256",
          "name": "value",
          "type": "uint256"
        }
      ],
      "name": "transferFrom",
      "outputs": [
        {
          "internalType": "bool",
          "name": "",
          "type": "bool"
        }
      ],
      "stateMutability": "nonpayable",
      "type": "function"
    },
    {
      "inputs": [
        {
          "internalType": "address",
          "name": "newCurator",
          "type": "address"
        }
      ],
      "name": "updateCurator",
      "outputs": [],
      "stateMutability": "nonpayable",
      "type": "function"
    },
    {
      "inputs": [
        {
          "internalType": "uint8",
          "name": "feeType",
          "type": "uint8"
        },
        {
          "internalType": "uint16",
          "name": "performanceFee",
          "type": "uint16"
        },
        {
          "internalType": "uint16",
          "name": "managementFee",
          "type": "uint16"
        }
      ],
      "name": "updateFeeModel",
      "outputs": [],
      "stateMutability": "nonpayable",
      "type": "function"
    },
    {
      "inputs": [
        {
          "components": [
            {
              "internalType": "address",
              "name": "token",
              "type": "address"
            },
            {
              "internalType": "uint256",
              "name": "shares",
              "type": "uint256"
            }
          ],
          "internalType": "struct IOrionTransparentVault.PortfolioPosition[]",
          "name": "portfolio",
          "type": "tuple[]"
        },
        {
          "internalType": "uint256",
          "name": "newTotalAssets",
          "type": "uint256"
        }
      ],
      "name": "updateVaultState",
      "outputs": [],
      "stateMutability": "nonpayable",
      "type": "function"
    },
    {
      "inputs": [
        {
          "internalType": "address[]",
          "name": "assets",
          "type": "address[]"
        }
      ],
      "name": "updateVaultWhitelist",
      "outputs": [],
      "stateMutability": "nonpayable",
      "type": "function"
    },
    {
      "inputs": [],
      "name": "vaultOwner",
      "outputs": [
        {
          "internalType": "address",
          "name": "",
          "type": "address"
        }
      ],
      "stateMutability": "view",
      "type": "function"
    },
    {
      "inputs": [],
      "name": "vaultWhitelist",
      "outputs": [
        {
          "internalType": "address[]",
          "name": "",
          "type": "address[]"
        }
      ],
      "stateMutability": "view",
      "type": "function"
    },
    {
      "inputs": [
        {
          "internalType": "uint256",
          "name": "",
          "type": "uint256"
        },
        {
          "internalType": "address",
          "name": "",
          "type": "address"
        },
        {
          "internalType": "address",
          "name": "",
          "type": "address"
        }
      ],
      "name": "withdraw",
      "outputs": [
        {
          "internalType": "uint256",
          "name": "",
          "type": "uint256"
        }
      ],
      "stateMutability": "pure",
      "type": "function"
    }
  ],
  "bytecode": "0x60c060405234801561000f575f5ffd5b50604051614e17380380614e1783398101604081905261002e916109aa565b8787878787878787856001600160a01b0316637158da7c6040518163ffffffff1660e01b8152600401602060405180830381865afa158015610072573d5f5f3e3d5ffd5b505050506040513d601f19601f820116820180604052508101906100969190610a79565b858560036100a48382610b1f565b5060046100b18282610b1f565b5050505f5f6100c58361057660201b60201c565b91509150816100d55760126100d7565b805b60ff1660a05250506001600160a01b03908116608052600160055587166101115760405163e6c4247b60e01b815260040160405180910390fd5b6001600160a01b0386166101385760405163e6c4247b60e01b815260040160405180910390fd5b600680546001600160a01b03808b166001600160a01b031992831617909255600780548a841690831617905560088054928916929091168217905560408051630691d8b960e31b8152905163348ec5c8916004808201926020929091908290030181865afa1580156101ac573d5f5f3e3d5ffd5b505050506040513d601f19601f820116820180604052508101906101d09190610a79565b60095f6101000a8154816001600160a01b0302191690836001600160a01b03160217905550856001600160a01b0316633a0dad8e6040518163ffffffff1660e01b8152600401602060405180830381865afa158015610231573d5f5f3e3d5ffd5b505050506040513d601f19601f820116820180604052508101906102559190610a79565b600a5f6101000a8154816001600160a01b0302191690836001600160a01b03160217905550856001600160a01b031663d1717c7d6040518163ffffffff1660e01b8152600401602060405180830381865afa1580156102b6573d5f5f3e3d5ffd5b505050506040513d601f19601f820116820180604052508101906102da9190610bd9565b600a60146101000a81548160ff021916908360ff1602179055505f600d819055505f6014819055505f6015819055505f866001600160a01b0316637158da7c6040518163ffffffff1660e01b8152600401602060405180830381865afa158015610346573d5f5f3e3d5ffd5b505050506040513d601f19601f8201168201806040525081019061036a9190610a79565b6001600160a01b031663313ce5676040518163ffffffff1660e01b8152600401602060405180830381865afa1580156103a5573d5f5f3e3d5ffd5b505050506040513d601f19601f820116820180604052508101906103c99190610bd9565b9050601260ff821611156103f057604051631c03248960e11b815260040160405180910390fd5b600460ff85161115610415576040516317dbc4cb60e21b815260040160405180910390fd5b610bb861ffff8416111561043c576040516317dbc4cb60e21b815260040160405180910390fd5b61012c61ffff83161115610463576040516317dbc4cb60e21b815260040160405180910390fd5b8360ff16600481111561047857610478610bf2565b6017805460ff1916600183600481111561049457610494610bf2565b02179055506017805461ffff84811663010000000264ffff00000019918716610100029190911664ffffffff0019909216919091171790556104d781600a610cfd565b6018556104e261064c565b50505050505050505061056960085f9054906101000a90046001600160a01b03166001600160a01b031663d86cd44e6040518163ffffffff1660e01b81526004015f60405180830381865afa15801561053d573d5f5f3e3d5ffd5b505050506040513d5f823e601f3d908101601f191682016040526105649190810190610d0b565b610721565b5050505050505050610e68565b60408051600481526024810182526020810180516001600160e01b031663313ce56760e01b17905290515f918291829182916001600160a01b038716916105bc91610dbd565b5f60405180830381855afa9150503d805f81146105f4576040519150601f19603f3d011682016040523d82523d5f602084013e6105f9565b606091505b509150915081801561060d57506020815110155b15610640575f818060200190518101906106279190610dd3565b905060ff811161063e576001969095509350505050565b505b505f9485945092505050565b60085460408051636c366a2760e11b815290515f926001600160a01b03169163d86cd44e91600480830192869291908290030181865afa158015610692573d5f5f3e3d5ffd5b505050506040513d5f823e601f3d908101601f191682016040526106b99190810190610d0b565b90505f5b815181101561071d575f6106f48383815181106106dc576106dc610dea565b6020026020010151600b61085860201b90919060201c565b90508061071457604051630ea075bf60e21b815260040160405180910390fd5b506001016106bd565b5050565b6007546001600160a01b03163b5f0361074157601f805460ff1916905550565b6007546040516301ffc9a760e01b8152635b24e9f760e11b60048201526001600160a01b03909116906301ffc9a790602401602060405180830381865afa9250505080156107ac575060408051601f3d908101601f191682019092526107a991810190610dfe565b60015b6107c95760405163298febe360e01b815260040160405180910390fd5b801561083c57601f805460ff1916600117905560075460405163c653526b60e01b81526001600160a01b039091169063c653526b9061080c908590600401610e1d565b5f6040518083038186803b158015610822575f5ffd5b505afa158015610834573d5f5f3e3d5ffd5b505050505050565b60405163298febe360e01b815260040160405180910390fd5b50565b5f61086c836001600160a01b038416610875565b90505b92915050565b5f8181526001830160205260408120546108ba57508154600181810184555f84815260208082209093018490558454848252828601909352604090209190915561086f565b505f61086f565b6001600160a01b0381168114610855575f5ffd5b634e487b7160e01b5f52604160045260245ffd5b604051601f8201601f191681016001600160401b0381118282101715610911576109116108d5565b604052919050565b5f82601f830112610928575f5ffd5b81516001600160401b03811115610941576109416108d5565b610954601f8201601f19166020016108e9565b818152846020838601011115610968575f5ffd5b8160208501602083015e5f918101602001919091529392505050565b805160ff81168114610994575f5ffd5b919050565b805161ffff81168114610994575f5ffd5b5f5f5f5f5f5f5f5f610100898b0312156109c2575f5ffd5b88516109cd816108c1565b60208a01519098506109de816108c1565b60408a01519097506109ef816108c1565b60608a01519096506001600160401b03811115610a0a575f5ffd5b610a168b828c01610919565b60808b015190965090506001600160401b03811115610a33575f5ffd5b610a3f8b828c01610919565b945050610a4e60a08a01610984565b9250610a5c60c08a01610999565b9150610a6a60e08a01610999565b90509295985092959890939650565b5f60208284031215610a89575f5ffd5b8151610a94816108c1565b9392505050565b600181811c90821680610aaf57607f821691505b602082108103610acd57634e487b7160e01b5f52602260045260245ffd5b50919050565b601f821115610b1a57805f5260205f20601f840160051c81016020851015610af85750805b601f840160051c820191505b81811015610b17575f8155600101610b04565b50505b505050565b81516001600160401b03811115610b3857610b386108d5565b610b4c81610b468454610a9b565b84610ad3565b6020601f821160018114610b7e575f8315610b675750848201515b5f19600385901b1c1916600184901b178455610b17565b5f84815260208120601f198516915b82811015610bad5787850151825560209485019460019092019101610b8d565b5084821015610bca57868401515f19600387901b60f8161c191681555b50505050600190811b01905550565b5f60208284031215610be9575f5ffd5b61086c82610984565b634e487b7160e01b5f52602160045260245ffd5b634e487b7160e01b5f52601160045260245ffd5b6001815b6001841115610c5557808504811115610c3957610c39610c06565b6001841615610c4757908102905b60019390931c928002610c1e565b935093915050565b5f82610c6b5750600161086f565b81610c7757505f61086f565b8160018114610c8d5760028114610c9757610cb3565b600191505061086f565b60ff841115610ca857610ca8610c06565b50506001821b61086f565b5060208310610133831016604e8410600b8410161715610cd6575081810a61086f565b610ce25f198484610c1a565b805f1904821115610cf557610cf5610c06565b029392505050565b5f61086c60ff841683610c5d565b5f60208284031215610d1b575f5ffd5b81516001600160401b03811115610d30575f5ffd5b8201601f81018413610d40575f5ffd5b80516001600160401b03811115610d5957610d596108d5565b8060051b610d69602082016108e9565b91825260208184018101929081019087841115610d84575f5ffd5b6020850194505b83851015610db25784519250610da0836108c1565b82825260209485019490910190610d8b565b979650505050505050565b5f82518060208501845e5f920191825250919050565b5f60208284031215610de3575f5ffd5b5051919050565b634e487b7160e01b5f52603260045260245ffd5b5f60208284031215610e0e575f5ffd5b81518015158114610a94575f5ffd5b602080825282518282018190525f918401906040840190835b81811015610e5d5783516001600160a01b0316835260209384019390920191600101610e36565b509095945050505050565b60805160a051613f91610e865f395f50505f610e810152613f915ff3fe608060405234801561000f575f5ffd5b50600436106102cc575f3560e01c806394bf804d1161018157806394bf804d1461048657806395d89b411461050957806397ee114414610511578063985ba4ae146105475780639908840c1461055a578063a68a526714610563578063a9059cbb14610576578063aa2f892d14610589578063acdb3d511461059c578063b1bd7e2e146105a5578063b3d7f6b914610347578063b460af94146105b8578063b6eba653146105c6578063ba087652146105b8578063bdca9165146105dc578063c0b568e1146105e5578063c3f0d30e146105f8578063c63d75b61461043f578063c6e6f5921461060b578063ce96cb771461061e578063d1717c7d14610631578063d3d0345814610645578063d853365f1461065b578063d905777e14610663578063dd62ed3e14610676578063e3352c4c14610689578063e51a85f61461069c578063e5e97193146106af578063e66f53b7146106c2578063ef8b30f714610347578063f64c6f32146106d5575f5ffd5b806301e1d114146102d057806303d44854146102e757806306fdde03146102fc57806307a2d13a14610311578063095ea7b3146103245780630a28a477146103475780630a605c6d1461035a5780630c6a62dd146103625780630d1e6667146103755780630df571f71461038857806318160ddd1461039b57806318c21949146103a35780631f52692b146103b657806323b872dd146103d6578063313ce567146103e9578063348ec5c8146103fe57806338d52e0f146104115780633a0dad8e146104195780633ab6d27c1461042c578063402d267d1461043f578063493a6e21146104535780634cdad506146103475780634e85b135146104665780635de3dfdc1461047b5780636e553f651461048657806370a08231146104945780637847ea53146104a757806379502c55146104c757806380ceebfe146104da5780638f5c9465146104ed575b5f5ffd5b600d545b6040519081526020015b60405180910390f35b6102fa6102f53660046134fd565b6106dd565b005b6103046108c0565b6040516102de919061356c565b6102d461031f3660046135a1565b610950565b6103376103323660046135cc565b610961565b60405190151581526020016102de565b6102d46103553660046135a1565b610978565b6015546102d4565b6102fa6103703660046135f6565b610992565b6102fa6103833660046135a1565b610a9f565b6102fa610396366004613611565b610d10565b6002546102d4565b6102fa6103b13660046135a1565b610d8b565b6006546103c9906001600160a01b031681565b6040516102de9190613631565b6103376103e4366004613645565b610e5a565b60125b60405160ff90911681526020016102de565b6009546103c9906001600160a01b031681565b6103c9610e7f565b600a546103c9906001600160a01b031681565b6102fa61043a3660046136a0565b610ea3565b6102d461044d3660046135f6565b505f1990565b6102fa6104613660046135a1565b611070565b61046e6113b7565b6040516102de919061372b565b601f5460ff16610337565b6102d461035536600461373d565b6102d46104a23660046135f6565b6113c8565b6104b26301e1338081565b60405163ffffffff90911681526020016102de565b6008546103c9906001600160a01b031681565b6102d46104e836600461376b565b6113e2565b6104f661271081565b60405161ffff90911681526020016102de565b610304611422565b6017546018546105379160ff81169161ffff610100830481169263010000009004169084565b6040516102de94939291906137ad565b6102fa61055536600461382b565b611431565b6104f661012c81565b6102d461057136600461376b565b61153e565b6103376105843660046135cc565b61156d565b6102fa6105973660046135a1565b61157a565b6102d460165481565b6102fa6105b3366004613872565b611753565b6102d46103553660046138b0565b6105ce611983565b6040516102de9291906138e4565b6104f6610bb881565b6102fa6105f33660046135a1565b611ada565b6102fa6106063660046135a1565b611c94565b6102d46106193660046135a1565b611e88565b6102d461062c3660046135f6565b611e93565b600a546103ec90600160a01b900460ff1681565b61064d611ea6565b6040516102de929190613942565b6103ec601281565b6102d46106713660046135f6565b611fd0565b6102d461068436600461398e565b611fda565b6102fa6106973660046135f6565b612004565b6102d46106aa3660046135a1565b61211d565b6102fa6106bd3660046135a1565b612156565b6007546103c9906001600160a01b031681565b6014546102d4565b6006546001600160a01b0316331461070857604051631a27eac360e11b815260040160405180910390fd5b610712600b61242e565b5f5b81811015610812575f83838381811061072f5761072f6139ba565b905060200201602081019061074491906135f6565b600854604051633af32abf60e01b81529192506001600160a01b031690633af32abf90610775908490600401613631565b602060405180830381865afa158015610790573d5f5f3e3d5ffd5b505050506040513d601f19601f820116820180604052508101906107b491906139ce565b6107dc578060405163751dff9760e11b81526004016107d39190613631565b60405180910390fd5b5f6107e8600b83612437565b90508061080857604051630ea075bf60e21b815260040160405180910390fd5b5050600101610714565b50601f5460ff161561087d5760075460405163c653526b60e01b81526001600160a01b039091169063c653526b9061085090859085906004016139ed565b5f6040518083038186803b158015610866575f5ffd5b505afa158015610878573d5f5f3e3d5ffd5b505050505b818160405161088d929190613a39565b604051908190038120907fa975983c7a4dcf80477a447433240de322f36428f1b3864e50d7a45e14c68b66905f90a25050565b6060600380546108cf90613a7a565b80601f01602080910402602001604051908101604052809291908181526020018280546108fb90613a7a565b80156109465780601f1061091d57610100808354040283529160200191610946565b820191905f5260205f20905b81548152906001019060200180831161092957829003601f168201915b5050505050905090565b5f61095b825f61244b565b92915050565b5f3361096e81858561248c565b5060019392505050565b5f60405163125ad87760e31b815260040160405180910390fd5b6006546001600160a01b031633146109bd57604051631a27eac360e11b815260040160405180910390fd5b6001600160a01b0381166109e45760405163e6c4247b60e01b815260040160405180910390fd5b600780546001600160a01b0319166001600160a01b03831617905560408051634e85b13560e01b81529051610a69913091634e85b135916004808201925f929091908290030181865afa158015610a3d573d5f5f3e3d5ffd5b505050506040513d5f823e601f3d908101601f19168201604052610a649190810190613b40565b61249e565b6040516001600160a01b038216907f83293ffeebb677b167941693470018acf300605df266a35e9fdb66f24ff00fe0905f90a250565b610aa76125ca565b60085f9054906101000a90046001600160a01b03166001600160a01b031663edcf9c1f6040518163ffffffff1660e01b8152600401602060405180830381865afa158015610af7573d5f5f3e3d5ffd5b505050506040513d601f19601f82011682018060405250810190610b1b91906139ce565b610b38576040516312aecd8160e01b815260040160405180910390fd5b805f03610b6157610b47610e7f565b604051636b30633560e01b81526004016107d39190613631565b5f610b6a610e7f565b6001600160a01b03166370a08231336040518263ffffffff1660e01b8152600401610b959190613631565b602060405180830381865afa158015610bb0573d5f5f3e3d5ffd5b505050506040513d601f19601f82011682018060405250810190610bd49190613bd4565b905080821115610bf757604051632ca2f52b60e11b815260040160405180910390fd5b5f610c00610e7f565b600a546040516323b872dd60e01b81526001600160a01b03928316926323b872dd92610c36923392909116908890600401613beb565b6020604051808303815f875af1158015610c52573d5f5f3e3d5ffd5b505050506040513d601f19601f82011682018060405250810190610c7691906139ce565b905080610c96576040516312171d8360e31b815260040160405180910390fd5b5f610ca2600e336125f4565b9150610cbd905033610cb48684613c23565b600e919061261a565b508360145f828254610ccf9190613c23565b9091555050604051849033907f55896b30a78fc55b78937f8014dde3f0035e9d37a4f6ac36841fb8b62f7e2b13905f90a3505050610d0d6001600555565b50565b6009546001600160a01b03163314610d3b57604051631a27eac360e11b815260040160405180910390fd5b8015610d87578060165f828254610d529190613c23565b9091555050601654604051829084907f8b8789cf9157fe7b016901e4ed3a5d0971caa8b7c031da0b25638ccf65841b2a905f90a45b5050565b6006546001600160a01b03163314610db657604051631a27eac360e11b815260040160405180910390fd5b805f03610dc557610b47610e7f565b601654811115610de857604051632ca2f52b60e11b815260040160405180910390fd5b8060165f828254610df99190613c36565b9091555050600a5460405163741fca4b60e01b8152600481018390526001600160a01b039091169063741fca4b906024015f604051808303815f87803b158015610e41575f5ffd5b505af1158015610e53573d5f5f3e3d5ffd5b5050505050565b5f33610e6785828561262f565b610e72858585612680565b60019150505b9392505050565b7f000000000000000000000000000000000000000000000000000000000000000090565b6006546001600160a01b03163314610ece57604051631a27eac360e11b815260040160405180910390fd5b60085f9054906101000a90046001600160a01b03166001600160a01b031663edcf9c1f6040518163ffffffff1660e01b8152600401602060405180830381865afa158015610f1e573d5f5f3e3d5ffd5b505050506040513d601f19601f82011682018060405250810190610f4291906139ce565b610f5f576040516312aecd8160e01b815260040160405180910390fd5b600460ff84161115610f84576040516317dbc4cb60e21b815260040160405180910390fd5b610bb861ffff83161115610fab576040516317dbc4cb60e21b815260040160405180910390fd5b61012c61ffff82161115610fd2576040516317dbc4cb60e21b815260040160405180910390fd5b8260ff166004811115610fe757610fe7613799565b6017805460ff1916600183600481111561100357611003613799565b02179055506017805464ffffffff00191661010061ffff85811691820264ffff00000019169290921763010000009285169283021790925560405190919060ff8616907fd24f39e523bfa412fa391702710dc62e1c82d87a8e83228a37c42be1b4870f45905f90a4505050565b600a546001600160a01b0316331461109b57604051631a27eac360e11b815260040160405180910390fd5b6110a36125ca565b5f6110ae60116126dd565b90508063ffffffff165f036110c357506113ad565b5f8163ffffffff166001600160401b038111156110e2576110e2613ab2565b60405190808252806020026020018201604052801561110b578160200160208202803683370190505b5090505f8263ffffffff166001600160401b0381111561112d5761112d613ab2565b604051908082528060200260200182016040528015611156578160200160208202803683370190505b5090505f5b8363ffffffff168163ffffffff1610156111f0575f80611185601163ffffffff808616906126e716565b9150915081858463ffffffff16815181106111a2576111a26139ba565b60200260200101906001600160a01b031690816001600160a01b03168152505080848463ffffffff16815181106111db576111db6139ba565b6020908102919091010152505060010161115b565b505f601581905560095460408051630a58ce2d60e11b815290516001600160a01b03909216916314b19c5a916004808201926020929091908290030181865afa15801561123f573d5f5f3e3d5ffd5b505050506040513d601f19601f820116820180604052508101906112639190613c49565b90505f5b8463ffffffff168163ffffffff1610156113a7575f848263ffffffff1681518110611294576112946139ba565b602002602001015190505f848363ffffffff16815181106112b7576112b76139ba565b602002602001015190506112d58260116126f590919063ffffffff16565b505f6112e2828a5f61153e565b90506112ee3083612709565b600a54604051634adfc2e760e01b81526001600160a01b0390911690634adfc2e7906113209086908590600401613c64565b5f604051808303815f87803b158015611337575f5ffd5b505af1158015611349573d5f5f3e3d5ffd5b5050604080518481526020810186905261ffff891693506001600160a01b038716925030917f215abfcd108b85fbee47f26fda2de66f90f14fa5fcaf0201698ad8ac9323545f910160405180910390a4505050806001019050611267565b50505050505b610d0d6001600555565b60606113c3600b61273d565b905090565b6001600160a01b03165f9081526020819052604090205490565b5f61141a6113ee612749565b6113f990600a613d60565b6002546114069190613c23565b611411856001613c23565b869190856127c5565b949350505050565b6060600480546108cf90613a7a565b6009546001600160a01b0316331461145c57604051631a27eac360e11b815260040160405180910390fd5b6114666019612807565b815f5b8161ffff168161ffff1610156114e2576114d985858361ffff16818110611492576114926139ba565b6114a892602060409092020190810191506135f6565b86868461ffff168181106114be576114be6139ba565b90506040020160200135601961261a9092919063ffffffff16565b50600101611469565b50600d8290555f6114fa60125b61031f90600a613d60565b60185490915081111561150d5760188190555b60405183907f5e1ff954b5e5257e9ee5d4cb07059e8f5e69b1aaaf9911e5d8d90a6894de9c21905f90a25050505050565b5f61141a61154d846001613c23565b611555612749565b61156090600a613d60565b6002546114119190613c23565b5f3361096e818585612680565b60085f9054906101000a90046001600160a01b03166001600160a01b031663edcf9c1f6040518163ffffffff1660e01b8152600401602060405180830381865afa1580156115ca573d5f5f3e3d5ffd5b505050506040513d601f19601f820116820180604052508101906115ee91906139ce565b61160b576040516312aecd8160e01b815260040160405180910390fd5b805f0361162d5730604051636b30633560e01b81526004016107d39190613631565b5f611637336113c8565b90508082111561165a57604051632ca2f52b60e11b815260040160405180910390fd5b6040516323b872dd60e01b81525f9030906323b872dd9061168390339084908890600401613beb565b6020604051808303815f875af115801561169f573d5f5f3e3d5ffd5b505050506040513d601f19601f820116820180604052508101906116c391906139ce565b9050806116e3576040516312171d8360e31b815260040160405180910390fd5b5f6116ef6011336125f4565b915061170a9050336117018684613c23565b6011919061261a565b508360155f82825461171c9190613c23565b9091555050604051849033907f222dc200773fe9b45015bf792e8fee37d651e3590c215806a5042404b6d741d2905f90a350505050565b6007546001600160a01b0316331461177e57604051631a27eac360e11b815260040160405180910390fd5b601f5460ff16156117a2576040516317dbc4cb60e21b815260040160405180910390fd5b5f8190036117c357604051631121aa8d60e01b815260040160405180910390fd5b6117cd601c612807565b5f816001600160401b038111156117e6576117e6613ab2565b60405190808252806020026020018201604052801561180f578160200160208202803683370190505b5090505f82815b8161ffff168161ffff16101561190d575f86868361ffff1681811061183d5761183d6139ba565b61185392602060409092020190810191506135f6565b90505f87878461ffff1681811061186c5761186c6139ba565b90506040020160200160208101906118849190613d7f565b905081868461ffff168151811061189d5761189d6139ba565b6001600160a01b03909216602092830291909101909101525f6118cb601c8463ffffffff8086169061261a16565b9050806118ed57826040516346bdabe160e01b81526004016107d39190613631565b6118fd63ffffffff831687613c23565b9550505050806001019050611816565b5061191783612810565b600a60149054906101000a900460ff16600a6119339190613d60565b821461195257604051639006dd2760e01b815260040160405180910390fd5b60405133907f2d47a742b8d7df7c1fc5a9a631b206b364e6cb2722490759f63bb3ab14b132e0905f90a25050505050565b601f54606090819060ff16156119a35761199b612888565b915091509091565b5f6119ae601c6126dd565b90508061ffff166001600160401b038111156119cc576119cc613ab2565b6040519080825280602002602001820160405280156119f5578160200160208202803683370190505b5092508061ffff166001600160401b03811115611a1457611a14613ab2565b604051908082528060200260200182016040528015611a3d578160200160208202803683370190505b5091505f5b8161ffff168161ffff161015611ad4575f80611a63601c61ffff85166126e7565b9150915081868461ffff1681518110611a7e57611a7e6139ba565b60200260200101906001600160a01b031690816001600160a01b03168152505080858461ffff1681518110611ab557611ab56139ba565b63ffffffff909216602092830291909101909101525050600101611a42565b50509091565b611ae26125ca565b60085f9054906101000a90046001600160a01b03166001600160a01b031663edcf9c1f6040518163ffffffff1660e01b8152600401602060405180830381865afa158015611b32573d5f5f3e3d5ffd5b505050506040513d601f19601f82011682018060405250810190611b5691906139ce565b611b73576040516312aecd8160e01b815260040160405180910390fd5b805f03611b8257610b47610e7f565b5f611b8e600e336125f4565b91505081811015611bb257604051632ca2f52b60e11b815260040160405180910390fd5b600a546040516351edffb160e01b81526001600160a01b03909116906351edffb190611be49033908690600401613c64565b5f604051808303815f87803b158015611bfb575f5ffd5b505af1158015611c0d573d5f5f3e3d5ffd5b505050505f8282611c1e9190613c36565b9050805f03611c3857611c32600e336126f5565b50611c46565b611c44600e338361261a565b505b8260145f828254611c579190613c36565b9091555050604051839033907f96a9a6886cdf3047a125454218a23d3961fd3a78643123b248a9d106d0ac94fd905f90a35050610d0d6001600555565b611c9c6125ca565b60085f9054906101000a90046001600160a01b03166001600160a01b031663edcf9c1f6040518163ffffffff1660e01b8152600401602060405180830381865afa158015611cec573d5f5f3e3d5ffd5b505050506040513d601f19601f82011682018060405250810190611d1091906139ce565b611d2d576040516312aecd8160e01b815260040160405180910390fd5b805f03611d4f5730604051636b30633560e01b81526004016107d39190613631565b5f611d5b6011336125f4565b91505081811015611d7f57604051632ca2f52b60e11b815260040160405180910390fd5b5f611d8a8383613c36565b9050805f03611da457611d9e6011336126f5565b50611db2565b611db06011338361261a565b505b8260155f828254611dc39190613c36565b909155505060405163a9059cbb60e01b81525f90309063a9059cbb90611def9033908890600401613c64565b6020604051808303815f875af1158015611e0b573d5f5f3e3d5ffd5b505050506040513d601f19601f82011682018060405250810190611e2f91906139ce565b905080611e4f576040516312171d8360e31b815260040160405180910390fd5b604051849033907f046d3e17087d323298991516e3fdec36fe1204d6bff7fb6e2b8eca77b80a22ad905f90a3505050610d0d6001600555565b5f61095b825f612aba565b5f61095b611ea0836113c8565b5f61244b565b6060805f611eb460196126dd565b90508061ffff166001600160401b03811115611ed257611ed2613ab2565b604051908082528060200260200182016040528015611efb578160200160208202803683370190505b5092508061ffff166001600160401b03811115611f1a57611f1a613ab2565b604051908082528060200260200182016040528015611f43578160200160208202803683370190505b5091505f5b8161ffff168161ffff161015611ad4575f80611f69601961ffff85166126e7565b9150915081868461ffff1681518110611f8457611f846139ba565b60200260200101906001600160a01b031690816001600160a01b03168152505080858461ffff1681518110611fbb57611fbb6139ba565b60209081029190910101525050600101611f48565b5f61095b826113c8565b6001600160a01b039182165f90815260016020908152604080832093909416825291909152205490565b6008546001600160a01b0316331461202f57604051631a27eac360e11b815260040160405180910390fd5b61203a600b82612aec565b50601f5460ff16156120495750565b5f80612056601c846125f4565b915091508161206457505050565b61206f601c846126f5565b505f306001600160a01b03166338d52e0f6040518163ffffffff1660e01b8152600401602060405180830381865afa1580156120ad573d5f5f3e3d5ffd5b505050506040513d601f19601f820116820180604052508101906120d19190613d9a565b90505f806120e0601c846125f4565b91509150811561210757612101836120f88684613c23565b601c919061261a565b50612115565b612113601c848661261a565b505b505050505050565b5f5f61212883612b00565b90505f6121358285613c36565b90505f61214182612bca565b905061214d8184613c23565b95945050505050565b600a546001600160a01b0316331461218157604051631a27eac360e11b815260040160405180910390fd5b6121896125ca565b5f612194600e6126dd565b90508063ffffffff165f036121a957506113ad565b5f8163ffffffff166001600160401b038111156121c8576121c8613ab2565b6040519080825280602002602001820160405280156121f1578160200160208202803683370190505b5090505f8263ffffffff166001600160401b0381111561221357612213613ab2565b60405190808252806020026020018201604052801561223c578160200160208202803683370190505b5090505f5b8363ffffffff168163ffffffff1610156122d6575f8061226b600e63ffffffff808616906126e716565b9150915081858463ffffffff1681518110612288576122886139ba565b60200260200101906001600160a01b031690816001600160a01b03168152505080848463ffffffff16815181106122c1576122c16139ba565b60209081029190910101525050600101612241565b505f601481905560095460408051630a58ce2d60e11b815290516001600160a01b03909216916314b19c5a916004808201926020929091908290030181865afa158015612325573d5f5f3e3d5ffd5b505050506040513d601f19601f820116820180604052508101906123499190613c49565b90505f5b8463ffffffff168163ffffffff1610156113a7575f848263ffffffff168151811061237a5761237a6139ba565b602002602001015190505f848363ffffffff168151811061239d5761239d6139ba565b602002602001015190506123bb82600e6126f590919063ffffffff16565b505f6123c8828a5f6113e2565b90506123d48382612c63565b604080518381526020810183905261ffff8716916001600160a01b0386169130917f4e2ca0515ed1aef1395f66b5303bb5d6f1bf9d61a353fa53f73f8ac9973fa9f6910160405180910390a450505080600101905061234d565b610d0d81612c97565b5f610e78836001600160a01b038416612cf0565b5f610e78612458600d5490565b612463906001613c23565b61246b612749565b61247690600a613d60565b6002546124839190613c23565b859190856127c5565b6124998383836001612d37565b505050565b6007546001600160a01b03163b5f036124be57601f805460ff1916905550565b6007546040516301ffc9a760e01b8152635b24e9f760e11b60048201526001600160a01b03909116906301ffc9a790602401602060405180830381865afa925050508015612529575060408051601f3d908101601f19168201909252612526918101906139ce565b60015b6125465760405163298febe360e01b815260040160405180910390fd5b80156125b157601f805460ff1916600117905560075460405163c653526b60e01b81526001600160a01b039091169063c653526b9061258990859060040161372b565b5f6040518083038186803b15801561259f575f5ffd5b505afa158015612115573d5f5f3e3d5ffd5b60405163298febe360e01b815260040160405180910390fd5b6002600554036125ed57604051633ee5aeb560e01b815260040160405180910390fd5b6002600555565b5f80808061260b866001600160a01b038716612e09565b909450925050505b9250929050565b5f61141a846001600160a01b03851684612e41565b5f61263a8484611fda565b90505f1981101561267a578181101561266c57828183604051637dc7a0d960e11b81526004016107d393929190613db5565b61267a84848484035f612d37565b50505050565b6001600160a01b0383166126a9575f604051634b637e8f60e11b81526004016107d39190613631565b6001600160a01b0382166126d2575f60405163ec442f0560e01b81526004016107d39190613631565b612499838383612e5d565b5f61095b82612f70565b5f80808061260b8686612f7a565b5f610e78836001600160a01b038416612fa3565b6001600160a01b038216612732575f604051634b637e8f60e11b81526004016107d39190613631565b610d87825f83612e5d565b60605f610e7883612fbf565b5f5f612753610e7f565b6001600160a01b031663313ce5676040518163ffffffff1660e01b8152600401602060405180830381865afa15801561278e573d5f5f3e3d5ffd5b505050506040513d601f19601f820116820180604052508101906127b29190613dd6565b90506127bf816012613df1565b91505090565b5f6127f26127d283613018565b80156127ed57505f84806127e8576127e8613e0a565b868809115b151590565b6127fd868686613044565b61214d9190613c23565b610d0d816130f4565b5f5b8151811015610d8757612848828281518110612830576128306139ba565b6020026020010151600b61313d90919063ffffffff16565b6128805781818151811061285e5761285e6139ba565b602002602001015160405163751dff9760e11b81526004016107d39190613631565b600101612812565b6060805f306001600160a01b0316634e85b1356040518163ffffffff1660e01b81526004015f60405180830381865afa1580156128c7573d5f5f3e3d5ffd5b505050506040513d5f823e601f3d908101601f191682016040526128ee9190810190613b40565b60075460405163701a818560e01b81529192505f916001600160a01b039091169063701a81859061292390859060040161372b565b5f60405180830381865afa15801561293d573d5f5f3e3d5ffd5b505050506040513d5f823e601f3d908101601f191682016040526129649190810190613e1e565b905080516001600160401b0381111561297f5761297f613ab2565b6040519080825280602002602001820160405280156129a8578160200160208202803683370190505b50935080516001600160401b038111156129c4576129c4613ab2565b6040519080825280602002602001820160405280156129ed578160200160208202803683370190505b5092505f5b81518161ffff161015612ab357818161ffff1681518110612a1557612a156139ba565b60200260200101515f0151858261ffff1681518110612a3657612a366139ba565b60200260200101906001600160a01b031690816001600160a01b031681525050818161ffff1681518110612a6c57612a6c6139ba565b602002602001015160200151848261ffff1681518110612a8e57612a8e6139ba565b63ffffffff90921660209283029190910190910152612aac81613edf565b90506129f2565b5050509091565b5f610e78612ac6612749565b612ad190600a613d60565b600254612ade9190613c23565b600d54612483906001613c23565b5f610e78836001600160a01b038416613151565b6017545f906301000000900461ffff168103612b1d57505f919050565b6017545f90612b3a906301000000900461ffff1684612710613044565b9050610e7860095f9054906101000a90046001600160a01b03166001600160a01b0316634ff0876a6040518163ffffffff1660e01b8152600401602060405180830381865afa158015612b8f573d5f5f3e3d5ffd5b505050506040513d601f19601f82011682018060405250810190612bb39190613eff565b829063ffffffff908116906301e133809061304416565b6017545f90610100900461ffff168103612be557505f919050565b5f612bfc612bf56012600a613d60565b845f61153e565b6017549091505f908190612c129060ff16613234565b9150915081831080612c22575080155b15612c3157505f949350505050565b6017545f90612c4a90610100900461ffff168584613044565b9050612c598187612710613044565b9695505050505050565b6001600160a01b038216612c8c575f60405163ec442f0560e01b81526004016107d39190613631565b610d875f8383612e5d565b5f612ca0825490565b90505f5b81811015612ce957826001015f845f018381548110612cc557612cc56139ba565b905f5260205f20015481526020019081526020015f205f9055806001019050612ca4565b50505f9055565b5f612cfb838361331e565b612d3057508154600181810184555f84815260208082209093018490558454848252828601909352604090209190915561095b565b505f61095b565b6001600160a01b038416612d60575f60405163e602df0560e01b81526004016107d39190613631565b6001600160a01b038316612d89575f604051634a1406b160e11b81526004016107d39190613631565b6001600160a01b038085165f908152600160209081526040808320938716835292905220829055801561267a57826001600160a01b0316846001600160a01b03167f8c5be1e5ebec7d5bd14f71427d1e84f3dd0314c0f7b2291e5b200ac8c7c3b92584604051612dfb91815260200190565b60405180910390a350505050565b5f818152600283016020526040812054819080612e3657612e2a8585613335565b92505f91506126139050565b600192509050612613565b5f828152600284016020526040812082905561141a8484613340565b6001600160a01b038316612e87578060025f828254612e7c9190613c23565b90915550612ee49050565b6001600160a01b0383165f9081526020819052604090205481811015612ec65783818360405163391434e360e21b81526004016107d393929190613db5565b6001600160a01b0384165f9081526020819052604090209082900390555b6001600160a01b038216612f0057600280548290039055612f1e565b6001600160a01b0382165f9081526020819052604090208054820190555b816001600160a01b0316836001600160a01b03167fddf252ad1be2c89b69c2b068fc378daa952ba7f163c4a11628f55a4df523b3ef83604051612f6391815260200190565b60405180910390a3505050565b5f61095b8261334b565b5f8080612f878585613354565b5f81815260029690960160205260409095205494959350505050565b5f8181526002830160205260408120819055610e78838361335f565b6060815f0180548060200260200160405190810160405280929190818152602001828054801561300c57602002820191905f5260205f20905b815481526020019060010190808311612ff8575b50505050509050919050565b5f600282600381111561302d5761302d613799565b6130379190613f1a565b60ff166001149050919050565b5f5f5f613051868661336a565b91509150815f036130755783818161306b5761306b613e0a565b0492505050610e78565b81841161308c5761308c6003851502601118613386565b5f848688095f868103871696879004966002600389028118808a02820302808a02820302808a02820302808a02820302808a02820302808a02909103029181900381900460010185841190960395909502919093039390930492909217029150509392505050565b5f6130fe82612f70565b90505f5b8181101561313357600283015f6131198584613354565b815260208101919091526040015f90812055600101613102565b50610d878261242e565b5f610e78836001600160a01b03841661331e565b5f818152600183016020526040812054801561322b575f613173600183613c36565b85549091505f9061318690600190613c36565b90508082146131e5575f865f0182815481106131a4576131a46139ba565b905f5260205f200154905080875f0184815481106131c4576131c46139ba565b5f918252602080832090910192909255918252600188019052604090208390555b85548690806131f6576131f6613f47565b600190038181905f5260205f20015f90559055856001015f8681526020019081526020015f205f90556001935050505061095b565b5f91505061095b565b5f808061324160126114ef565b90505f84600481111561325657613256613799565b0361326657809250829150613318565b600384600481111561327a5761327a613799565b0361328c576018549250829150613318565b60018460048111156132a0576132a0613799565b036132b8576132ae81613397565b9250809150613318565b60028460048111156132cc576132cc613799565b036132e4576132da81613397565b9250829150613318565b60048460048111156132f8576132f8613799565b03613318576018546133129061330d83613397565b6134bd565b92508291505b50915091565b5f9081526001919091016020526040902054151590565b5f610e7883836134cc565b5f610e788383612cf0565b5f61095b825490565b5f610e7883836134d7565b5f610e788383613151565b5f805f1983850993909202808410938190039390930393915050565b634e487b715f52806020526024601cfd5b5f5f60085f9054906101000a90046001600160a01b03166001600160a01b031663f3cc69936040518163ffffffff1660e01b8152600401602060405180830381865afa1580156133e9573d5f5f3e3d5ffd5b505050506040513d601f19601f8201168201806040525081019061340d9190613c49565b61ffff1690505f6134a260095f9054906101000a90046001600160a01b03166001600160a01b0316634ff0876a6040518163ffffffff1660e01b8152600401602060405180830381865afa158015613467573d5f5f3e3d5ffd5b505050506040513d601f19601f8201168201806040525081019061348b9190613eff565b839063ffffffff908116906301e133809061304416565b905061141a6134b382612710613c23565b8590612710613044565b5f828218828411028218610e78565b5f610e78838361331e565b5f825f0182815481106134ec576134ec6139ba565b905f5260205f200154905092915050565b5f5f6020838503121561350e575f5ffd5b82356001600160401b03811115613523575f5ffd5b8301601f81018513613533575f5ffd5b80356001600160401b03811115613548575f5ffd5b8560208260051b840101111561355c575f5ffd5b6020919091019590945092505050565b602081525f82518060208401528060208501604085015e5f604082850101526040601f19601f83011684010191505092915050565b5f602082840312156135b1575f5ffd5b5035919050565b6001600160a01b0381168114610d0d575f5ffd5b5f5f604083850312156135dd575f5ffd5b82356135e8816135b8565b946020939093013593505050565b5f60208284031215613606575f5ffd5b8135610e78816135b8565b5f5f60408385031215613622575f5ffd5b50508035926020909101359150565b6001600160a01b0391909116815260200190565b5f5f5f60608486031215613657575f5ffd5b8335613662816135b8565b92506020840135613672816135b8565b929592945050506040919091013590565b60ff81168114610d0d575f5ffd5b61ffff81168114610d0d575f5ffd5b5f5f5f606084860312156136b2575f5ffd5b83356136bd81613683565b925060208401356136cd81613691565b915060408401356136dd81613691565b809150509250925092565b5f8151808452602084019350602083015f5b828110156137215781516001600160a01b03168652602095860195909101906001016136fa565b5093949350505050565b602081525f610e7860208301846136e8565b5f5f6040838503121561374e575f5ffd5b823591506020830135613760816135b8565b809150509250929050565b5f5f5f6060848603121561377d575f5ffd5b83359250602084013591506040840135600481106136dd575f5ffd5b634e487b7160e01b5f52602160045260245ffd5b60808101600586106137cd57634e487b7160e01b5f52602160045260245ffd5b94815261ffff93841660208201529190921660408201526060015290565b5f5f83601f8401126137fb575f5ffd5b5081356001600160401b03811115613811575f5ffd5b6020830191508360208260061b8501011115612613575f5ffd5b5f5f5f6040848603121561383d575f5ffd5b83356001600160401b03811115613852575f5ffd5b61385e868287016137eb565b909790965060209590950135949350505050565b5f5f60208385031215613883575f5ffd5b82356001600160401b03811115613898575f5ffd5b6138a4858286016137eb565b90969095509350505050565b5f5f5f606084860312156138c2575f5ffd5b8335925060208401356138d4816135b8565b915060408401356136dd816135b8565b604081525f6138f660408301856136e8565b82810360208401528084518083526020830191506020860192505f5b8181101561393657835163ffffffff16835260209384019390920191600101613912565b50909695505050505050565b604081525f61395460408301856136e8565b82810360208401528084518083526020830191506020860192505f5b81811015613936578351835260209384019390920191600101613970565b5f5f6040838503121561399f575f5ffd5b82356139aa816135b8565b91506020830135613760816135b8565b634e487b7160e01b5f52603260045260245ffd5b5f602082840312156139de575f5ffd5b81518015158114610e78575f5ffd5b602080825281018290525f8360408301825b85811015613a2f578235613a12816135b8565b6001600160a01b03168252602092830192909101906001016139ff565b5095945050505050565b5f8184825b85811015613a6f578135613a51816135b8565b6001600160a01b031683526020928301929190910190600101613a3e565b509095945050505050565b600181811c90821680613a8e57607f821691505b602082108103613aac57634e487b7160e01b5f52602260045260245ffd5b50919050565b634e487b7160e01b5f52604160045260245ffd5b604080519081016001600160401b0381118282101715613ae857613ae8613ab2565b60405290565b604051601f8201601f191681016001600160401b0381118282101715613b1657613b16613ab2565b604052919050565b5f6001600160401b03821115613b3657613b36613ab2565b5060051b60200190565b5f60208284031215613b50575f5ffd5b81516001600160401b03811115613b65575f5ffd5b8201601f81018413613b75575f5ffd5b8051613b88613b8382613b1e565b613aee565b8082825260208201915060208360051b850101925086831115613ba9575f5ffd5b6020840193505b82841015612c59578351613bc3816135b8565b825260209384019390910190613bb0565b5f60208284031215613be4575f5ffd5b5051919050565b6001600160a01b039384168152919092166020820152604081019190915260600190565b634e487b7160e01b5f52601160045260245ffd5b8082018082111561095b5761095b613c0f565b8181038181111561095b5761095b613c0f565b5f60208284031215613c59575f5ffd5b8151610e7881613691565b6001600160a01b03929092168252602082015260400190565b6001815b6001841115613cb857808504811115613c9c57613c9c613c0f565b6001841615613caa57908102905b60019390931c928002613c81565b935093915050565b5f82613cce5750600161095b565b81613cda57505f61095b565b8160018114613cf05760028114613cfa57613d16565b600191505061095b565b60ff841115613d0b57613d0b613c0f565b50506001821b61095b565b5060208310610133831016604e8410600b8410161715613d39575081810a61095b565b613d455f198484613c7d565b805f1904821115613d5857613d58613c0f565b029392505050565b5f610e7860ff841683613cc0565b63ffffffff81168114610d0d575f5ffd5b5f60208284031215613d8f575f5ffd5b8135610e7881613d6e565b5f60208284031215613daa575f5ffd5b8151610e78816135b8565b6001600160a01b039390931683526020830191909152604082015260600190565b5f60208284031215613de6575f5ffd5b8151610e7881613683565b60ff828116828216039081111561095b5761095b613c0f565b634e487b7160e01b5f52601260045260245ffd5b5f60208284031215613e2e575f5ffd5b81516001600160401b03811115613e43575f5ffd5b8201601f81018413613e53575f5ffd5b8051613e61613b8382613b1e565b8082825260208201915060208360061b850101925086831115613e82575f5ffd5b6020840193505b82841015612c595760408488031215613ea0575f5ffd5b613ea8613ac6565b8451613eb3816135b8565b81526020850151613ec381613d6e565b8060208301525080835250602082019150604084019350613e89565b5f61ffff821661ffff8103613ef657613ef6613c0f565b60010192915050565b5f60208284031215613f0f575f5ffd5b8151610e7881613d6e565b5f60ff831680613f3857634e487b7160e01b5f52601260045260245ffd5b8060ff84160691505092915050565b634e487b7160e01b5f52603160045260245ffdfea2646970667358221220ba780d838e7128a1ca8d7bce002f978ef092b21da9b3ea89468dfdef264335e964736f6c634300081c0033",
  "linkReferences": {},
  "deployedLinkReferences": {}
}