{
  "_format": "hh-sol-artifact-1",
  "contractName": "OrionTransparentVault",
  "sourceName": "contracts/vaults/OrionTransparentVault.sol",
  "abi": [
    {
      "inputs": [
        {
          "internalType": "address",
          "name": "vaultOwner",
          "type": "address"
        },
        {
          "internalType": "address",
          "name": "curator",
          "type": "address"
        },
        {
          "internalType": "contract IOrionConfig",
          "name": "configAddress",
          "type": "address"
        },
        {
          "internalType": "string",
          "name": "name",
          "type": "string"
        },
        {
          "internalType": "string",
          "name": "symbol",
          "type": "string"
        },
        {
          "internalType": "uint8",
          "name": "feeType",
          "type": "uint8"
        },
        {
          "internalType": "uint16",
          "name": "performanceFee",
          "type": "uint16"
        },
        {
          "internalType": "uint16",
          "name": "managementFee",
          "type": "uint16"
        }
      ],
      "stateMutability": "nonpayable",
      "type": "constructor"
    },
    {
      "inputs": [],
      "name": "AlreadyRegistered",
      "type": "error"
    },
    {
      "inputs": [
        {
          "internalType": "address",
          "name": "asset",
          "type": "address"
        }
      ],
      "name": "AmountMustBeGreaterThanZero",
      "type": "error"
    },
    {
      "inputs": [
        {
          "internalType": "address",
          "name": "spender",
          "type": "address"
        },
        {
          "internalType": "uint256",
          "name": "allowance",
          "type": "uint256"
        },
        {
          "internalType": "uint256",
          "name": "needed",
          "type": "uint256"
        }
      ],
      "name": "ERC20InsufficientAllowance",
      "type": "error"
    },
    {
      "inputs": [
        {
          "internalType": "address",
          "name": "sender",
          "type": "address"
        },
        {
          "internalType": "uint256",
          "name": "balance",
          "type": "uint256"
        },
        {
          "internalType": "uint256",
          "name": "needed",
          "type": "uint256"
        }
      ],
      "name": "ERC20InsufficientBalance",
      "type": "error"
    },
    {
      "inputs": [
        {
          "internalType": "address",
          "name": "approver",
          "type": "address"
        }
      ],
      "name": "ERC20InvalidApprover",
      "type": "error"
    },
    {
      "inputs": [
        {
          "internalType": "address",
          "name": "receiver",
          "type": "address"
        }
      ],
      "name": "ERC20InvalidReceiver",
      "type": "error"
    },
    {
      "inputs": [
        {
          "internalType": "address",
          "name": "sender",
          "type": "address"
        }
      ],
      "name": "ERC20InvalidSender",
      "type": "error"
    },
    {
      "inputs": [
        {
          "internalType": "address",
          "name": "spender",
          "type": "address"
        }
      ],
      "name": "ERC20InvalidSpender",
      "type": "error"
    },
    {
      "inputs": [
        {
          "internalType": "address",
          "name": "receiver",
          "type": "address"
        },
        {
          "internalType": "uint256",
          "name": "assets",
          "type": "uint256"
        },
        {
          "internalType": "uint256",
          "name": "max",
          "type": "uint256"
        }
      ],
      "name": "ERC4626ExceededMaxDeposit",
      "type": "error"
    },
    {
      "inputs": [
        {
          "internalType": "address",
          "name": "receiver",
          "type": "address"
        },
        {
          "internalType": "uint256",
          "name": "shares",
          "type": "uint256"
        },
        {
          "internalType": "uint256",
          "name": "max",
          "type": "uint256"
        }
      ],
      "name": "ERC4626ExceededMaxMint",
      "type": "error"
    },
    {
      "inputs": [
        {
          "internalType": "address",
          "name": "owner",
          "type": "address"
        },
        {
          "internalType": "uint256",
          "name": "shares",
          "type": "uint256"
        },
        {
          "internalType": "uint256",
          "name": "max",
          "type": "uint256"
        }
      ],
      "name": "ERC4626ExceededMaxRedeem",
      "type": "error"
    },
    {
      "inputs": [
        {
          "internalType": "address",
          "name": "owner",
          "type": "address"
        },
        {
          "internalType": "uint256",
          "name": "assets",
          "type": "uint256"
        },
        {
          "internalType": "uint256",
          "name": "max",
          "type": "uint256"
        }
      ],
      "name": "ERC4626ExceededMaxWithdraw",
      "type": "error"
    },
    {
      "inputs": [],
      "name": "InsufficientAmount",
      "type": "error"
    },
    {
      "inputs": [],
      "name": "InvalidAddress",
      "type": "error"
    },
    {
      "inputs": [],
      "name": "InvalidArguments",
      "type": "error"
    },
    {
      "inputs": [],
      "name": "InvalidTotalWeight",
      "type": "error"
    },
    {
      "inputs": [],
      "name": "InvalidUnderlyingDecimals",
      "type": "error"
    },
    {
      "inputs": [],
      "name": "OrderIntentCannotBeEmpty",
      "type": "error"
    },
    {
      "inputs": [],
      "name": "ReentrancyGuardReentrantCall",
      "type": "error"
    },
    {
      "inputs": [],
      "name": "SynchronousCallDisabled",
      "type": "error"
    },
    {
      "inputs": [],
      "name": "SystemNotIdle",
      "type": "error"
    },
    {
      "inputs": [
        {
          "internalType": "address",
          "name": "token",
          "type": "address"
        }
      ],
      "name": "TokenAlreadyInOrder",
      "type": "error"
    },
    {
      "inputs": [
        {
          "internalType": "address",
          "name": "token",
          "type": "address"
        }
      ],
      "name": "TokenNotWhitelisted",
      "type": "error"
    },
    {
      "inputs": [],
      "name": "TransferFailed",
      "type": "error"
    },
    {
      "inputs": [],
      "name": "UnauthorizedAccess",
      "type": "error"
    },
    {
      "anonymous": false,
      "inputs": [
        {
          "indexed": true,
          "internalType": "address",
          "name": "owner",
          "type": "address"
        },
        {
          "indexed": true,
          "internalType": "address",
          "name": "spender",
          "type": "address"
        },
        {
          "indexed": false,
          "internalType": "uint256",
          "name": "value",
          "type": "uint256"
        }
      ],
      "name": "Approval",
      "type": "event"
    },
    {
      "anonymous": false,
      "inputs": [
        {
          "indexed": true,
          "internalType": "uint256",
          "name": "epoch",
          "type": "uint256"
        },
        {
          "indexed": true,
          "internalType": "uint256",
          "name": "feeAmount",
          "type": "uint256"
        },
        {
          "indexed": true,
          "internalType": "uint256",
          "name": "pendingCuratorFees",
          "type": "uint256"
        }
      ],
      "name": "CuratorFeesAccrued",
      "type": "event"
    },
    {
      "anonymous": false,
      "inputs": [
        {
          "indexed": true,
          "internalType": "address",
          "name": "newCurator",
          "type": "address"
        }
      ],
      "name": "CuratorUpdated",
      "type": "event"
    },
    {
      "anonymous": false,
      "inputs": [
        {
          "indexed": true,
          "internalType": "address",
          "name": "sender",
          "type": "address"
        },
        {
          "indexed": true,
          "internalType": "address",
          "name": "owner",
          "type": "address"
        },
        {
          "indexed": false,
          "internalType": "uint256",
          "name": "assets",
          "type": "uint256"
        },
        {
          "indexed": false,
          "internalType": "uint256",
          "name": "shares",
          "type": "uint256"
        }
      ],
      "name": "Deposit",
      "type": "event"
    },
    {
      "anonymous": false,
      "inputs": [
        {
          "indexed": true,
          "internalType": "address",
          "name": "vault",
          "type": "address"
        },
        {
          "indexed": true,
          "internalType": "address",
          "name": "user",
          "type": "address"
        },
        {
          "indexed": true,
          "internalType": "uint256",
          "name": "epoch",
          "type": "uint256"
        },
        {
          "indexed": false,
          "internalType": "uint256",
          "name": "depositAmount",
          "type": "uint256"
        },
        {
          "indexed": false,
          "internalType": "uint256",
          "name": "sharesMinted",
          "type": "uint256"
        }
      ],
      "name": "Deposit",
      "type": "event"
    },
    {
      "anonymous": false,
      "inputs": [
        {
          "indexed": true,
          "internalType": "address",
          "name": "sender",
          "type": "address"
        },
        {
          "indexed": true,
          "internalType": "uint256",
          "name": "assets",
          "type": "uint256"
        }
      ],
      "name": "DepositRequest",
      "type": "event"
    },
    {
      "anonymous": false,
      "inputs": [
        {
          "indexed": true,
          "internalType": "address",
          "name": "user",
          "type": "address"
        },
        {
          "indexed": true,
          "internalType": "uint256",
          "name": "amount",
          "type": "uint256"
        }
      ],
      "name": "DepositRequestCancelled",
      "type": "event"
    },
    {
      "anonymous": false,
      "inputs": [
        {
          "indexed": true,
          "internalType": "uint8",
          "name": "mode",
          "type": "uint8"
        },
        {
          "indexed": true,
          "internalType": "uint16",
          "name": "performanceFee",
          "type": "uint16"
        },
        {
          "indexed": true,
          "internalType": "uint16",
          "name": "managementFee",
          "type": "uint16"
        }
      ],
      "name": "FeeModelUpdated",
      "type": "event"
    },
    {
      "anonymous": false,
      "inputs": [
        {
          "indexed": true,
          "internalType": "address",
          "name": "curator",
          "type": "address"
        }
      ],
      "name": "OrderSubmitted",
      "type": "event"
    },
    {
      "anonymous": false,
      "inputs": [
        {
          "indexed": true,
          "internalType": "address",
          "name": "vault",
          "type": "address"
        },
        {
          "indexed": true,
          "internalType": "address",
          "name": "user",
          "type": "address"
        },
        {
          "indexed": true,
          "internalType": "uint256",
          "name": "epoch",
          "type": "uint256"
        },
        {
          "indexed": false,
          "internalType": "uint256",
          "name": "redeemAmount",
          "type": "uint256"
        },
        {
          "indexed": false,
          "internalType": "uint256",
          "name": "sharesBurned",
          "type": "uint256"
        }
      ],
      "name": "Redeem",
      "type": "event"
    },
    {
      "anonymous": false,
      "inputs": [
        {
          "indexed": true,
          "internalType": "address",
          "name": "sender",
          "type": "address"
        },
        {
          "indexed": true,
          "internalType": "uint256",
          "name": "shares",
          "type": "uint256"
        }
      ],
      "name": "RedeemRequest",
      "type": "event"
    },
    {
      "anonymous": false,
      "inputs": [
        {
          "indexed": true,
          "internalType": "address",
          "name": "user",
          "type": "address"
        },
        {
          "indexed": true,
          "internalType": "uint256",
          "name": "shares",
          "type": "uint256"
        }
      ],
      "name": "RedeemRequestCancelled",
      "type": "event"
    },
    {
      "anonymous": false,
      "inputs": [
        {
          "indexed": true,
          "internalType": "address",
          "name": "from",
          "type": "address"
        },
        {
          "indexed": true,
          "internalType": "address",
          "name": "to",
          "type": "address"
        },
        {
          "indexed": false,
          "internalType": "uint256",
          "name": "value",
          "type": "uint256"
        }
      ],
      "name": "Transfer",
      "type": "event"
    },
    {
      "anonymous": false,
      "inputs": [
        {
          "indexed": true,
          "internalType": "uint256",
          "name": "newTotalAssets",
          "type": "uint256"
        }
      ],
      "name": "VaultStateUpdated",
      "type": "event"
    },
    {
      "anonymous": false,
      "inputs": [
        {
          "indexed": true,
          "internalType": "address",
          "name": "sender",
          "type": "address"
        },
        {
          "indexed": true,
          "internalType": "address",
          "name": "receiver",
          "type": "address"
        },
        {
          "indexed": true,
          "internalType": "address",
          "name": "owner",
          "type": "address"
        },
        {
          "indexed": false,
          "internalType": "uint256",
          "name": "assets",
          "type": "uint256"
        },
        {
          "indexed": false,
          "internalType": "uint256",
          "name": "shares",
          "type": "uint256"
        }
      ],
      "name": "Withdraw",
      "type": "event"
    },
    {
      "inputs": [],
      "name": "BASIS_POINTS_FACTOR",
      "outputs": [
        {
          "internalType": "uint16",
          "name": "",
          "type": "uint16"
        }
      ],
      "stateMutability": "view",
      "type": "function"
    },
    {
      "inputs": [],
      "name": "MAX_MANAGEMENT_FEE",
      "outputs": [
        {
          "internalType": "uint16",
          "name": "",
          "type": "uint16"
        }
      ],
      "stateMutability": "view",
      "type": "function"
    },
    {
      "inputs": [],
      "name": "MAX_PERFORMANCE_FEE",
      "outputs": [
        {
          "internalType": "uint16",
          "name": "",
          "type": "uint16"
        }
      ],
      "stateMutability": "view",
      "type": "function"
    },
    {
      "inputs": [],
      "name": "SHARE_DECIMALS",
      "outputs": [
        {
          "internalType": "uint8",
          "name": "",
          "type": "uint8"
        }
      ],
      "stateMutability": "view",
      "type": "function"
    },
    {
      "inputs": [],
      "name": "YEAR_IN_SECONDS",
      "outputs": [
        {
          "internalType": "uint32",
          "name": "",
          "type": "uint32"
        }
      ],
      "stateMutability": "view",
      "type": "function"
    },
    {
      "inputs": [
        {
          "internalType": "uint256",
          "name": "epoch",
          "type": "uint256"
        },
        {
          "internalType": "uint256",
          "name": "feeAmount",
          "type": "uint256"
        }
      ],
      "name": "accrueCuratorFees",
      "outputs": [],
      "stateMutability": "nonpayable",
      "type": "function"
    },
    {
      "inputs": [
        {
          "internalType": "address",
          "name": "owner",
          "type": "address"
        },
        {
          "internalType": "address",
          "name": "spender",
          "type": "address"
        }
      ],
      "name": "allowance",
      "outputs": [
        {
          "internalType": "uint256",
          "name": "",
          "type": "uint256"
        }
      ],
      "stateMutability": "view",
      "type": "function"
    },
    {
      "inputs": [
        {
          "internalType": "address",
          "name": "spender",
          "type": "address"
        },
        {
          "internalType": "uint256",
          "name": "value",
          "type": "uint256"
        }
      ],
      "name": "approve",
      "outputs": [
        {
          "internalType": "bool",
          "name": "",
          "type": "bool"
        }
      ],
      "stateMutability": "nonpayable",
      "type": "function"
    },
    {
      "inputs": [],
      "name": "asset",
      "outputs": [
        {
          "internalType": "address",
          "name": "",
          "type": "address"
        }
      ],
      "stateMutability": "view",
      "type": "function"
    },
    {
      "inputs": [
        {
          "internalType": "address",
          "name": "account",
          "type": "address"
        }
      ],
      "name": "balanceOf",
      "outputs": [
        {
          "internalType": "uint256",
          "name": "",
          "type": "uint256"
        }
      ],
      "stateMutability": "view",
      "type": "function"
    },
    {
      "inputs": [
        {
          "internalType": "uint256",
          "name": "amount",
          "type": "uint256"
        }
      ],
      "name": "cancelDepositRequest",
      "outputs": [],
      "stateMutability": "nonpayable",
      "type": "function"
    },
    {
      "inputs": [
        {
          "internalType": "uint256",
          "name": "shares",
          "type": "uint256"
        }
      ],
      "name": "cancelRedeemRequest",
      "outputs": [],
      "stateMutability": "nonpayable",
      "type": "function"
    },
    {
      "inputs": [
        {
          "internalType": "uint256",
          "name": "amount",
          "type": "uint256"
        }
      ],
      "name": "claimCuratorFees",
      "outputs": [],
      "stateMutability": "nonpayable",
      "type": "function"
    },
    {
      "inputs": [],
      "name": "config",
      "outputs": [
        {
          "internalType": "contract IOrionConfig",
          "name": "",
          "type": "address"
        }
      ],
      "stateMutability": "view",
      "type": "function"
    },
    {
      "inputs": [
        {
          "internalType": "uint256",
          "name": "shares",
          "type": "uint256"
        }
      ],
      "name": "convertToAssets",
      "outputs": [
        {
          "internalType": "uint256",
          "name": "",
          "type": "uint256"
        }
      ],
      "stateMutability": "view",
      "type": "function"
    },
    {
      "inputs": [
        {
          "internalType": "uint256",
          "name": "shares",
          "type": "uint256"
        },
        {
          "internalType": "uint256",
          "name": "pointInTimeTotalAssets",
          "type": "uint256"
        },
        {
          "internalType": "enum Math.Rounding",
          "name": "rounding",
          "type": "uint8"
        }
      ],
      "name": "convertToAssetsWithPITTotalAssets",
      "outputs": [
        {
          "internalType": "uint256",
          "name": "",
          "type": "uint256"
        }
      ],
      "stateMutability": "view",
      "type": "function"
    },
    {
      "inputs": [
        {
          "internalType": "uint256",
          "name": "assets",
          "type": "uint256"
        }
      ],
      "name": "convertToShares",
      "outputs": [
        {
          "internalType": "uint256",
          "name": "",
          "type": "uint256"
        }
      ],
      "stateMutability": "view",
      "type": "function"
    },
    {
      "inputs": [
        {
          "internalType": "uint256",
          "name": "assets",
          "type": "uint256"
        },
        {
          "internalType": "uint256",
          "name": "pointInTimeTotalAssets",
          "type": "uint256"
        },
        {
          "internalType": "enum Math.Rounding",
          "name": "rounding",
          "type": "uint8"
        }
      ],
      "name": "convertToSharesWithPITTotalAssets",
      "outputs": [
        {
          "internalType": "uint256",
          "name": "",
          "type": "uint256"
        }
      ],
      "stateMutability": "view",
      "type": "function"
    },
    {
      "inputs": [],
      "name": "curator",
      "outputs": [
        {
          "internalType": "address",
          "name": "",
          "type": "address"
        }
      ],
      "stateMutability": "view",
      "type": "function"
    },
    {
      "inputs": [
        {
          "internalType": "uint256",
          "name": "activeTotalAssets",
          "type": "uint256"
        }
      ],
      "name": "curatorFee",
      "outputs": [
        {
          "internalType": "uint256",
          "name": "",
          "type": "uint256"
        }
      ],
      "stateMutability": "view",
      "type": "function"
    },
    {
      "inputs": [],
      "name": "curatorIntentDecimals",
      "outputs": [
        {
          "internalType": "uint8",
          "name": "",
          "type": "uint8"
        }
      ],
      "stateMutability": "view",
      "type": "function"
    },
    {
      "inputs": [],
      "name": "decimals",
      "outputs": [
        {
          "internalType": "uint8",
          "name": "",
          "type": "uint8"
        }
      ],
      "stateMutability": "view",
      "type": "function"
    },
    {
      "inputs": [
        {
          "internalType": "uint256",
          "name": "",
          "type": "uint256"
        },
        {
          "internalType": "address",
          "name": "",
          "type": "address"
        }
      ],
      "name": "deposit",
      "outputs": [
        {
          "internalType": "uint256",
          "name": "",
          "type": "uint256"
        }
      ],
      "stateMutability": "pure",
      "type": "function"
    },
    {
      "inputs": [],
      "name": "feeModel",
      "outputs": [
        {
          "internalType": "enum OrionVault.FeeType",
          "name": "feeType",
          "type": "uint8"
        },
        {
          "internalType": "uint16",
          "name": "performanceFee",
          "type": "uint16"
        },
        {
          "internalType": "uint16",
          "name": "managementFee",
          "type": "uint16"
        },
        {
          "internalType": "uint256",
          "name": "highWaterMark",
          "type": "uint256"
        }
      ],
      "stateMutability": "view",
      "type": "function"
    },
    {
      "inputs": [
        {
          "internalType": "uint256",
          "name": "depositTotalAssets",
          "type": "uint256"
        }
      ],
      "name": "fulfillDeposit",
      "outputs": [],
      "stateMutability": "nonpayable",
      "type": "function"
    },
    {
      "inputs": [
        {
          "internalType": "uint256",
          "name": "redeemTotalAssets",
          "type": "uint256"
        }
      ],
      "name": "fulfillRedeem",
      "outputs": [],
      "stateMutability": "nonpayable",
      "type": "function"
    },
    {
      "inputs": [],
      "name": "getIntent",
      "outputs": [
        {
          "internalType": "address[]",
          "name": "tokens",
          "type": "address[]"
        },
        {
          "internalType": "uint32[]",
          "name": "weights",
          "type": "uint32[]"
        }
      ],
      "stateMutability": "view",
      "type": "function"
    },
    {
      "inputs": [],
      "name": "getPortfolio",
      "outputs": [
        {
          "internalType": "address[]",
          "name": "tokens",
          "type": "address[]"
        },
        {
          "internalType": "uint256[]",
          "name": "sharesPerAsset",
          "type": "uint256[]"
        }
      ],
      "stateMutability": "view",
      "type": "function"
    },
    {
      "inputs": [],
      "name": "internalStatesOrchestrator",
      "outputs": [
        {
          "internalType": "contract IInternalStateOrchestrator",
          "name": "",
          "type": "address"
        }
      ],
      "stateMutability": "view",
      "type": "function"
    },
    {
      "inputs": [],
      "name": "liquidityOrchestrator",
      "outputs": [
        {
          "internalType": "contract ILiquidityOrchestrator",
          "name": "",
          "type": "address"
        }
      ],
      "stateMutability": "view",
      "type": "function"
    },
    {
      "inputs": [
        {
          "internalType": "address",
          "name": "",
          "type": "address"
        }
      ],
      "name": "maxDeposit",
      "outputs": [
        {
          "internalType": "uint256",
          "name": "",
          "type": "uint256"
        }
      ],
      "stateMutability": "view",
      "type": "function"
    },
    {
      "inputs": [
        {
          "internalType": "address",
          "name": "",
          "type": "address"
        }
      ],
      "name": "maxMint",
      "outputs": [
        {
          "internalType": "uint256",
          "name": "",
          "type": "uint256"
        }
      ],
      "stateMutability": "view",
      "type": "function"
    },
    {
      "inputs": [
        {
          "internalType": "address",
          "name": "owner",
          "type": "address"
        }
      ],
      "name": "maxRedeem",
      "outputs": [
        {
          "internalType": "uint256",
          "name": "",
          "type": "uint256"
        }
      ],
      "stateMutability": "view",
      "type": "function"
    },
    {
      "inputs": [
        {
          "internalType": "address",
          "name": "owner",
          "type": "address"
        }
      ],
      "name": "maxWithdraw",
      "outputs": [
        {
          "internalType": "uint256",
          "name": "",
          "type": "uint256"
        }
      ],
      "stateMutability": "view",
      "type": "function"
    },
    {
      "inputs": [
        {
          "internalType": "uint256",
          "name": "",
          "type": "uint256"
        },
        {
          "internalType": "address",
          "name": "",
          "type": "address"
        }
      ],
      "name": "mint",
      "outputs": [
        {
          "internalType": "uint256",
          "name": "",
          "type": "uint256"
        }
      ],
      "stateMutability": "pure",
      "type": "function"
    },
    {
      "inputs": [],
      "name": "name",
      "outputs": [
        {
          "internalType": "string",
          "name": "",
          "type": "string"
        }
      ],
      "stateMutability": "view",
      "type": "function"
    },
    {
      "inputs": [],
      "name": "pendingCuratorFees",
      "outputs": [
        {
          "internalType": "uint256",
          "name": "",
          "type": "uint256"
        }
      ],
      "stateMutability": "view",
      "type": "function"
    },
    {
      "inputs": [],
      "name": "pendingDeposit",
      "outputs": [
        {
          "internalType": "uint256",
          "name": "",
          "type": "uint256"
        }
      ],
      "stateMutability": "view",
      "type": "function"
    },
    {
      "inputs": [],
      "name": "pendingRedeem",
      "outputs": [
        {
          "internalType": "uint256",
          "name": "",
          "type": "uint256"
        }
      ],
      "stateMutability": "view",
      "type": "function"
    },
    {
      "inputs": [
        {
          "internalType": "uint256",
          "name": "",
          "type": "uint256"
        }
      ],
      "name": "previewDeposit",
      "outputs": [
        {
          "internalType": "uint256",
          "name": "",
          "type": "uint256"
        }
      ],
      "stateMutability": "pure",
      "type": "function"
    },
    {
      "inputs": [
        {
          "internalType": "uint256",
          "name": "",
          "type": "uint256"
        }
      ],
      "name": "previewMint",
      "outputs": [
        {
          "internalType": "uint256",
          "name": "",
          "type": "uint256"
        }
      ],
      "stateMutability": "pure",
      "type": "function"
    },
    {
      "inputs": [
        {
          "internalType": "uint256",
          "name": "",
          "type": "uint256"
        }
      ],
      "name": "previewRedeem",
      "outputs": [
        {
          "internalType": "uint256",
          "name": "",
          "type": "uint256"
        }
      ],
      "stateMutability": "pure",
      "type": "function"
    },
    {
      "inputs": [
        {
          "internalType": "uint256",
          "name": "",
          "type": "uint256"
        }
      ],
      "name": "previewWithdraw",
      "outputs": [
        {
          "internalType": "uint256",
          "name": "",
          "type": "uint256"
        }
      ],
      "stateMutability": "pure",
      "type": "function"
    },
    {
      "inputs": [
        {
          "internalType": "uint256",
          "name": "",
          "type": "uint256"
        },
        {
          "internalType": "address",
          "name": "",
          "type": "address"
        },
        {
          "internalType": "address",
          "name": "",
          "type": "address"
        }
      ],
      "name": "redeem",
      "outputs": [
        {
          "internalType": "uint256",
          "name": "",
          "type": "uint256"
        }
      ],
      "stateMutability": "pure",
      "type": "function"
    },
    {
      "inputs": [
        {
          "internalType": "uint256",
          "name": "assets",
          "type": "uint256"
        }
      ],
      "name": "requestDeposit",
      "outputs": [],
      "stateMutability": "nonpayable",
      "type": "function"
    },
    {
      "inputs": [
        {
          "internalType": "uint256",
          "name": "shares",
          "type": "uint256"
        }
      ],
      "name": "requestRedeem",
      "outputs": [],
      "stateMutability": "nonpayable",
      "type": "function"
    },
    {
      "inputs": [
        {
          "components": [
            {
              "internalType": "address",
              "name": "token",
              "type": "address"
            },
            {
              "internalType": "uint32",
              "name": "value",
              "type": "uint32"
            }
          ],
          "internalType": "struct IOrionTransparentVault.Position[]",
          "name": "intent",
          "type": "tuple[]"
        }
      ],
      "name": "submitIntent",
      "outputs": [],
      "stateMutability": "nonpayable",
      "type": "function"
    },
    {
      "inputs": [],
      "name": "symbol",
      "outputs": [
        {
          "internalType": "string",
          "name": "",
          "type": "string"
        }
      ],
      "stateMutability": "view",
      "type": "function"
    },
    {
      "inputs": [],
      "name": "totalAssets",
      "outputs": [
        {
          "internalType": "uint256",
          "name": "",
          "type": "uint256"
        }
      ],
      "stateMutability": "view",
      "type": "function"
    },
    {
      "inputs": [],
      "name": "totalSupply",
      "outputs": [
        {
          "internalType": "uint256",
          "name": "",
          "type": "uint256"
        }
      ],
      "stateMutability": "view",
      "type": "function"
    },
    {
      "inputs": [
        {
          "internalType": "address",
          "name": "to",
          "type": "address"
        },
        {
          "internalType": "uint256",
          "name": "value",
          "type": "uint256"
        }
      ],
      "name": "transfer",
      "outputs": [
        {
          "internalType": "bool",
          "name": "",
          "type": "bool"
        }
      ],
      "stateMutability": "nonpayable",
      "type": "function"
    },
    {
      "inputs": [
        {
          "internalType": "address",
          "name": "from",
          "type": "address"
        },
        {
          "internalType": "address",
          "name": "to",
          "type": "address"
        },
        {
          "internalType": "uint256",
          "name": "value",
          "type": "uint256"
        }
      ],
      "name": "transferFrom",
      "outputs": [
        {
          "internalType": "bool",
          "name": "",
          "type": "bool"
        }
      ],
      "stateMutability": "nonpayable",
      "type": "function"
    },
    {
      "inputs": [
        {
          "internalType": "address",
          "name": "newCurator",
          "type": "address"
        }
      ],
      "name": "updateCurator",
      "outputs": [],
      "stateMutability": "nonpayable",
      "type": "function"
    },
    {
      "inputs": [
        {
          "internalType": "uint8",
          "name": "feeType",
          "type": "uint8"
        },
        {
          "internalType": "uint16",
          "name": "performanceFee",
          "type": "uint16"
        },
        {
          "internalType": "uint16",
          "name": "managementFee",
          "type": "uint16"
        }
      ],
      "name": "updateFeeModel",
      "outputs": [],
      "stateMutability": "nonpayable",
      "type": "function"
    },
    {
      "inputs": [
        {
          "components": [
            {
              "internalType": "address",
              "name": "token",
              "type": "address"
            },
            {
              "internalType": "uint32",
              "name": "value",
              "type": "uint32"
            }
          ],
          "internalType": "struct IOrionTransparentVault.Position[]",
          "name": "portfolio",
          "type": "tuple[]"
        },
        {
          "internalType": "uint256",
          "name": "newTotalAssets",
          "type": "uint256"
        }
      ],
      "name": "updateVaultState",
      "outputs": [],
      "stateMutability": "nonpayable",
      "type": "function"
    },
    {
      "inputs": [
        {
          "internalType": "address[]",
          "name": "assets",
          "type": "address[]"
        }
      ],
      "name": "updateVaultWhitelist",
      "outputs": [],
      "stateMutability": "nonpayable",
      "type": "function"
    },
    {
      "inputs": [],
      "name": "vaultOwner",
      "outputs": [
        {
          "internalType": "address",
          "name": "",
          "type": "address"
        }
      ],
      "stateMutability": "view",
      "type": "function"
    },
    {
      "inputs": [],
      "name": "vaultWhitelist",
      "outputs": [
        {
          "internalType": "address[]",
          "name": "",
          "type": "address[]"
        }
      ],
      "stateMutability": "view",
      "type": "function"
    },
    {
      "inputs": [
        {
          "internalType": "uint256",
          "name": "",
          "type": "uint256"
        },
        {
          "internalType": "address",
          "name": "",
          "type": "address"
        },
        {
          "internalType": "address",
          "name": "",
          "type": "address"
        }
      ],
      "name": "withdraw",
      "outputs": [
        {
          "internalType": "uint256",
          "name": "",
          "type": "uint256"
        }
      ],
      "stateMutability": "pure",
      "type": "function"
    }
  ],
  "bytecode": "0x60c060405234801561000f575f5ffd5b5060405161433c38038061433c83398101604081905261002e916107f8565b8787878787878787856001600160a01b0316637158da7c6040518163ffffffff1660e01b8152600401602060405180830381865afa158015610072573d5f5f3e3d5ffd5b505050506040513d601f19601f8201168201806040525081019061009691906108c7565b858560036100a4838261096d565b5060046100b1828261096d565b5050505f5f6100c5836104f860201b60201c565b91509150816100d55760126100d7565b805b60ff1660a05250506001600160a01b03908116608052600160055587166101115760405163e6c4247b60e01b815260040160405180910390fd5b6001600160a01b0386166101385760405163e6c4247b60e01b815260040160405180910390fd5b600680546001600160a01b03808b166001600160a01b031992831617909255600780548a841690831617905560088054928916929091168217905560408051630691d8b960e31b8152905163348ec5c8916004808201926020929091908290030181865afa1580156101ac573d5f5f3e3d5ffd5b505050506040513d601f19601f820116820180604052508101906101d091906108c7565b60095f6101000a8154816001600160a01b0302191690836001600160a01b03160217905550856001600160a01b0316633a0dad8e6040518163ffffffff1660e01b8152600401602060405180830381865afa158015610231573d5f5f3e3d5ffd5b505050506040513d601f19601f8201168201806040525081019061025591906108c7565b600a5f6101000a8154816001600160a01b0302191690836001600160a01b03160217905550856001600160a01b031663d1717c7d6040518163ffffffff1660e01b8152600401602060405180830381865afa1580156102b6573d5f5f3e3d5ffd5b505050506040513d601f19601f820116820180604052508101906102da9190610a27565b600a60146101000a81548160ff021916908360ff1602179055505f600d819055505f6014819055505f6015819055505f866001600160a01b0316637158da7c6040518163ffffffff1660e01b8152600401602060405180830381865afa158015610346573d5f5f3e3d5ffd5b505050506040513d601f19601f8201168201806040525081019061036a91906108c7565b6001600160a01b031663313ce5676040518163ffffffff1660e01b8152600401602060405180830381865afa1580156103a5573d5f5f3e3d5ffd5b505050506040513d601f19601f820116820180604052508101906103c99190610a27565b9050601260ff821611156103f057604051631c03248960e11b815260040160405180910390fd5b600460ff85161115610415576040516317dbc4cb60e21b815260040160405180910390fd5b610bb861ffff8416111561043c576040516317dbc4cb60e21b815260040160405180910390fd5b61012c61ffff83161115610463576040516317dbc4cb60e21b815260040160405180910390fd5b8360ff16600481111561047857610478610a40565b6017805460ff1916600183600481111561049457610494610a40565b02179055506017805461ffff84811663010000000264ffff00000019918716610100029190911664ffffffff0019909216919091171790556104d781600a610b4b565b6018556104e26105ce565b5050505050505050505050505050505050610c4c565b60408051600481526024810182526020810180516001600160e01b031663313ce56760e01b17905290515f918291829182916001600160a01b0387169161053e91610b59565b5f60405180830381855afa9150503d805f8114610576576040519150601f19603f3d011682016040523d82523d5f602084013e61057b565b606091505b509150915081801561058f57506020815110155b156105c2575f818060200190518101906105a99190610b6f565b905060ff81116105c0576001969095509350505050565b505b505f9485945092505050565b60085460408051636c366a2760e11b815290515f926001600160a01b03169163d86cd44e91600480830192869291908290030181865afa158015610614573d5f5f3e3d5ffd5b505050506040513d5f823e601f3d908101601f1916820160405261063b9190810190610b86565b90505f5b815181101561069f575f61067683838151811061065e5761065e610c38565b6020026020010151600b6106a360201b90919060201c565b90508061069657604051630ea075bf60e21b815260040160405180910390fd5b5060010161063f565b5050565b5f6106b7836001600160a01b0384166106c0565b90505b92915050565b5f81815260018301602052604081205461070557508154600181810184555f8481526020808220909301849055845484825282860190935260409020919091556106ba565b505f6106ba565b6001600160a01b0381168114610720575f5ffd5b50565b634e487b7160e01b5f52604160045260245ffd5b604051601f8201601f191681016001600160401b038111828210171561075f5761075f610723565b604052919050565b5f82601f830112610776575f5ffd5b81516001600160401b0381111561078f5761078f610723565b6107a2601f8201601f1916602001610737565b8181528460208386010111156107b6575f5ffd5b8160208501602083015e5f918101602001919091529392505050565b805160ff811681146107e2575f5ffd5b919050565b805161ffff811681146107e2575f5ffd5b5f5f5f5f5f5f5f5f610100898b031215610810575f5ffd5b885161081b8161070c565b60208a015190985061082c8161070c565b60408a015190975061083d8161070c565b60608a01519096506001600160401b03811115610858575f5ffd5b6108648b828c01610767565b60808b015190965090506001600160401b03811115610881575f5ffd5b61088d8b828c01610767565b94505061089c60a08a016107d2565b92506108aa60c08a016107e7565b91506108b860e08a016107e7565b90509295985092959890939650565b5f602082840312156108d7575f5ffd5b81516108e28161070c565b9392505050565b600181811c908216806108fd57607f821691505b60208210810361091b57634e487b7160e01b5f52602260045260245ffd5b50919050565b601f82111561096857805f5260205f20601f840160051c810160208510156109465750805b601f840160051c820191505b81811015610965575f8155600101610952565b50505b505050565b81516001600160401b0381111561098657610986610723565b61099a8161099484546108e9565b84610921565b6020601f8211600181146109cc575f83156109b55750848201515b5f19600385901b1c1916600184901b178455610965565b5f84815260208120601f198516915b828110156109fb57878501518255602094850194600190920191016109db565b5084821015610a1857868401515f19600387901b60f8161c191681555b50505050600190811b01905550565b5f60208284031215610a37575f5ffd5b6106b7826107d2565b634e487b7160e01b5f52602160045260245ffd5b634e487b7160e01b5f52601160045260245ffd5b6001815b6001841115610aa357808504811115610a8757610a87610a54565b6001841615610a9557908102905b60019390931c928002610a6c565b935093915050565b5f82610ab9575060016106ba565b81610ac557505f6106ba565b8160018114610adb5760028114610ae557610b01565b60019150506106ba565b60ff841115610af657610af6610a54565b50506001821b6106ba565b5060208310610133831016604e8410600b8410161715610b24575081810a6106ba565b610b305f198484610a68565b805f1904821115610b4357610b43610a54565b029392505050565b5f6106b760ff841683610aab565b5f82518060208501845e5f920191825250919050565b5f60208284031215610b7f575f5ffd5b5051919050565b5f60208284031215610b96575f5ffd5b81516001600160401b03811115610bab575f5ffd5b8201601f81018413610bbb575f5ffd5b80516001600160401b03811115610bd457610bd4610723565b8060051b610be460208201610737565b91825260208184018101929081019087841115610bff575f5ffd5b6020850194505b83851015610c2d5784519250610c1b8361070c565b82825260209485019490910190610c06565b979650505050505050565b634e487b7160e01b5f52603260045260245ffd5b60805160a0516136d2610c6a5f395f50505f610e4401526136d25ff3fe608060405234801561000f575f5ffd5b50600436106102a7575f3560e01c806301e1d114146102ab57806303d44854146102c257806306fdde03146102d757806307a2d13a146102ec578063095ea7b3146102ff5780630a28a477146103225780630a605c6d146103355780630c6a62dd1461033d5780630d1e6667146103505780630df571f714610363578063105444941461037657806318160ddd1461038957806318c21949146103915780631f52692b146103a457806323b872dd146103c4578063313ce567146103d7578063348ec5c8146103ec57806338d52e0f146103ff5780633a0dad8e146104075780633ab6d27c1461041a578063402d267d1461042d578063493a6e21146104415780634cdad506146103225780634e85b135146104545780636e553f651461046957806370a08231146104775780637847ea531461048a57806379502c55146104aa57806380ceebfe146104bd5780638f5c9465146104d057806394bf804d1461046957806395d89b41146104ec57806397ee1144146104f45780639908840c1461052a578063a68a526714610533578063a9059cbb14610546578063aa2f892d14610559578063acdb3d511461056c578063b1bd7e2e14610575578063b3d7f6b914610322578063b460af9414610588578063b6eba65314610596578063ba08765214610588578063bdca9165146105ac578063c0b568e1146105b5578063c3f0d30e146105c8578063c63d75b61461042d578063c6e6f592146105db578063ce96cb77146105ee578063d1717c7d14610601578063d3d0345814610615578063d853365f1461062b578063d905777e14610633578063dd62ed3e14610646578063e51a85f614610659578063e5e971931461066c578063e66f53b71461067f578063ef8b30f714610322578063f64c6f3214610692575b5f5ffd5b600d545b6040519081526020015b60405180910390f35b6102d56102d0366004612ed9565b61069a565b005b6102df6107d4565b6040516102b99190612f48565b6102af6102fa366004612f7d565b610864565b61031261030d366004612faf565b610875565b60405190151581526020016102b9565b6102af610330366004612f7d565b61088c565b6015546102af565b6102d561034b366004612fd7565b6108a6565b6102d561035e366004612f7d565b610941565b6102d5610371366004612ff0565b610bb2565b6102d5610384366004613050565b610c2d565b6002546102af565b6102d561039f366004612f7d565b610d4e565b6006546103b7906001600160a01b031681565b6040516102b99190613097565b6103126103d23660046130ab565b610e1d565b60125b60405160ff90911681526020016102b9565b6009546103b7906001600160a01b031681565b6103b7610e42565b600a546103b7906001600160a01b031681565b6102d5610428366004613102565b610e66565b6102af61043b366004612fd7565b505f1990565b6102d561044f366004612f7d565b611033565b61045c61137a565b6040516102b9919061318d565b6102af61033036600461319f565b6102af610485366004612fd7565b61138b565b6104956301e1338081565b60405163ffffffff90911681526020016102b9565b6008546103b7906001600160a01b031681565b6102af6104cb3660046131c9565b6113a5565b6104d961271081565b60405161ffff90911681526020016102b9565b6102df6113e5565b60175460185461051a9160ff81169161ffff610100830481169263010000009004169084565b6040516102b9949392919061320b565b6104d961012c81565b6102af6105413660046131c9565b6113f4565b610312610554366004612faf565b611423565b6102d5610567366004612f7d565b611430565b6102af60165481565b6102d5610583366004613249565b611609565b6102af610330366004613287565b61059e611815565b6040516102b99291906132c0565b6104d9610bb881565b6102d56105c3366004612f7d565b61194f565b6102d56105d6366004612f7d565b611b09565b6102af6105e9366004612f7d565b611cfd565b6102af6105fc366004612fd7565b611d08565b600a546103da90600160a01b900460ff1681565b61061d611d1b565b6040516102b992919061331e565b6103da601281565b6102af610641366004612fd7565b611e45565b6102af61065436600461336a565b611e4f565b6102af610667366004612f7d565b611e79565b6102d561067a366004612f7d565b611eb2565b6007546103b7906001600160a01b031681565b6014546102af565b6006546001600160a01b031633146106c557604051631a27eac360e11b815260040160405180910390fd5b6106cf600b61218a565b5f5b818110156107cf575f8383838181106106ec576106ec613392565b90506020020160208101906107019190612fd7565b600854604051633af32abf60e01b81529192506001600160a01b031690633af32abf90610732908490600401613097565b602060405180830381865afa15801561074d573d5f5f3e3d5ffd5b505050506040513d601f19601f8201168201806040525081019061077191906133a6565b610799578060405163751dff9760e11b81526004016107909190613097565b60405180910390fd5b5f6107a5600b83612193565b9050806107c557604051630ea075bf60e21b815260040160405180910390fd5b50506001016106d1565b505050565b6060600380546107e3906133c5565b80601f016020809104026020016040519081016040528092919081815260200182805461080f906133c5565b801561085a5780601f106108315761010080835404028352916020019161085a565b820191905f5260205f20905b81548152906001019060200180831161083d57829003601f168201915b5050505050905090565b5f61086f825f6121a7565b92915050565b5f336108828185856121e8565b5060019392505050565b5f60405163125ad87760e31b815260040160405180910390fd5b6006546001600160a01b031633146108d157604051631a27eac360e11b815260040160405180910390fd5b6001600160a01b0381166108f85760405163e6c4247b60e01b815260040160405180910390fd5b600780546001600160a01b0319166001600160a01b0383169081179091556040517f83293ffeebb677b167941693470018acf300605df266a35e9fdb66f24ff00fe0905f90a250565b6109496121f5565b60085f9054906101000a90046001600160a01b03166001600160a01b031663edcf9c1f6040518163ffffffff1660e01b8152600401602060405180830381865afa158015610999573d5f5f3e3d5ffd5b505050506040513d601f19601f820116820180604052508101906109bd91906133a6565b6109da576040516312aecd8160e01b815260040160405180910390fd5b805f03610a03576109e9610e42565b604051636b30633560e01b81526004016107909190613097565b5f610a0c610e42565b6001600160a01b03166370a08231336040518263ffffffff1660e01b8152600401610a379190613097565b602060405180830381865afa158015610a52573d5f5f3e3d5ffd5b505050506040513d601f19601f82011682018060405250810190610a7691906133fd565b905080821115610a9957604051632ca2f52b60e11b815260040160405180910390fd5b5f610aa2610e42565b600a546040516323b872dd60e01b81526001600160a01b03928316926323b872dd92610ad8923392909116908890600401613414565b6020604051808303815f875af1158015610af4573d5f5f3e3d5ffd5b505050506040513d601f19601f82011682018060405250810190610b1891906133a6565b905080610b38576040516312171d8360e31b815260040160405180910390fd5b5f610b44600e3361221f565b9150610b5f905033610b56868461344c565b600e9190612245565b508360145f828254610b71919061344c565b9091555050604051849033907f55896b30a78fc55b78937f8014dde3f0035e9d37a4f6ac36841fb8b62f7e2b13905f90a3505050610baf6001600555565b50565b6009546001600160a01b03163314610bdd57604051631a27eac360e11b815260040160405180910390fd5b8015610c29578060165f828254610bf4919061344c565b9091555050601654604051829084907f8b8789cf9157fe7b016901e4ed3a5d0971caa8b7c031da0b25638ccf65841b2a905f90a45b5050565b6009546001600160a01b03163314610c5857604051631a27eac360e11b815260040160405180910390fd5b610c62601961225a565b815f5b8161ffff168161ffff161015610cf257610ce985858361ffff16818110610c8e57610c8e613392565b610ca49260206040909202019081019150612fd7565b86868461ffff16818110610cba57610cba613392565b9050604002016020016020810190610cd29190613470565b63ffffffff1660196122459092919063ffffffff16565b50600101610c65565b50600d8290555f610d0a60125b6102fa90600a61356e565b601854909150811115610d1d5760188190555b60405183907f5e1ff954b5e5257e9ee5d4cb07059e8f5e69b1aaaf9911e5d8d90a6894de9c21905f90a25050505050565b6006546001600160a01b03163314610d7957604051631a27eac360e11b815260040160405180910390fd5b805f03610d88576109e9610e42565b601654811115610dab57604051632ca2f52b60e11b815260040160405180910390fd5b8060165f828254610dbc919061357c565b9091555050600a5460405163741fca4b60e01b8152600481018390526001600160a01b039091169063741fca4b906024015f604051808303815f87803b158015610e04575f5ffd5b505af1158015610e16573d5f5f3e3d5ffd5b5050505050565b5f33610e2a858285612263565b610e358585856122b4565b60019150505b9392505050565b7f000000000000000000000000000000000000000000000000000000000000000090565b6006546001600160a01b03163314610e9157604051631a27eac360e11b815260040160405180910390fd5b60085f9054906101000a90046001600160a01b03166001600160a01b031663edcf9c1f6040518163ffffffff1660e01b8152600401602060405180830381865afa158015610ee1573d5f5f3e3d5ffd5b505050506040513d601f19601f82011682018060405250810190610f0591906133a6565b610f22576040516312aecd8160e01b815260040160405180910390fd5b600460ff84161115610f47576040516317dbc4cb60e21b815260040160405180910390fd5b610bb861ffff83161115610f6e576040516317dbc4cb60e21b815260040160405180910390fd5b61012c61ffff82161115610f95576040516317dbc4cb60e21b815260040160405180910390fd5b8260ff166004811115610faa57610faa6131f7565b6017805460ff19166001836004811115610fc657610fc66131f7565b02179055506017805464ffffffff00191661010061ffff85811691820264ffff00000019169290921763010000009285169283021790925560405190919060ff8616907fd24f39e523bfa412fa391702710dc62e1c82d87a8e83228a37c42be1b4870f45905f90a4505050565b600a546001600160a01b0316331461105e57604051631a27eac360e11b815260040160405180910390fd5b6110666121f5565b5f6110716011612311565b90508063ffffffff165f036110865750611370565b5f8163ffffffff166001600160401b038111156110a5576110a561358f565b6040519080825280602002602001820160405280156110ce578160200160208202803683370190505b5090505f8263ffffffff166001600160401b038111156110f0576110f061358f565b604051908082528060200260200182016040528015611119578160200160208202803683370190505b5090505f5b8363ffffffff168163ffffffff1610156111b3575f80611148601163ffffffff8086169061231b16565b9150915081858463ffffffff168151811061116557611165613392565b60200260200101906001600160a01b031690816001600160a01b03168152505080848463ffffffff168151811061119e5761119e613392565b6020908102919091010152505060010161111e565b505f601581905560095460408051630a58ce2d60e11b815290516001600160a01b03909216916314b19c5a916004808201926020929091908290030181865afa158015611202573d5f5f3e3d5ffd5b505050506040513d601f19601f8201168201806040525081019061122691906135a3565b90505f5b8463ffffffff168163ffffffff16101561136a575f848263ffffffff168151811061125757611257613392565b602002602001015190505f848363ffffffff168151811061127a5761127a613392565b6020026020010151905061129882601161232990919063ffffffff16565b505f6112a5828a5f6113f4565b90506112b1308361233d565b600a54604051634adfc2e760e01b81526001600160a01b0390911690634adfc2e7906112e390869085906004016135be565b5f604051808303815f87803b1580156112fa575f5ffd5b505af115801561130c573d5f5f3e3d5ffd5b5050604080518481526020810186905261ffff891693506001600160a01b038716925030917f215abfcd108b85fbee47f26fda2de66f90f14fa5fcaf0201698ad8ac9323545f910160405180910390a450505080600101905061122a565b50505050505b610baf6001600555565b6060611386600b612371565b905090565b6001600160a01b03165f9081526020819052604090205490565b5f6113dd6113b161237d565b6113bc90600a61356e565b6002546113c9919061344c565b6113d485600161344c565b869190856123f9565b949350505050565b6060600480546107e3906133c5565b5f6113dd61140384600161344c565b61140b61237d565b61141690600a61356e565b6002546113d4919061344c565b5f336108828185856122b4565b60085f9054906101000a90046001600160a01b03166001600160a01b031663edcf9c1f6040518163ffffffff1660e01b8152600401602060405180830381865afa158015611480573d5f5f3e3d5ffd5b505050506040513d601f19601f820116820180604052508101906114a491906133a6565b6114c1576040516312aecd8160e01b815260040160405180910390fd5b805f036114e35730604051636b30633560e01b81526004016107909190613097565b5f6114ed3361138b565b90508082111561151057604051632ca2f52b60e11b815260040160405180910390fd5b6040516323b872dd60e01b81525f9030906323b872dd9061153990339084908890600401613414565b6020604051808303815f875af1158015611555573d5f5f3e3d5ffd5b505050506040513d601f19601f8201168201806040525081019061157991906133a6565b905080611599576040516312171d8360e31b815260040160405180910390fd5b5f6115a560113361221f565b91506115c09050336115b7868461344c565b60119190612245565b508360155f8282546115d2919061344c565b9091555050604051849033907f222dc200773fe9b45015bf792e8fee37d651e3590c215806a5042404b6d741d2905f90a350505050565b6007546001600160a01b0316331461163457604051631a27eac360e11b815260040160405180910390fd5b5f81900361165557604051631121aa8d60e01b815260040160405180910390fd5b61165f601c61225a565b5f816001600160401b038111156116785761167861358f565b6040519080825280602002602001820160405280156116a1578160200160208202803683370190505b5090505f82815b8161ffff168161ffff16101561179f575f86868361ffff168181106116cf576116cf613392565b6116e59260206040909202019081019150612fd7565b90505f87878461ffff168181106116fe576116fe613392565b90506040020160200160208101906117169190613470565b905081868461ffff168151811061172f5761172f613392565b6001600160a01b03909216602092830291909101909101525f61175d601c8463ffffffff8086169061224516565b90508061177f57826040516346bdabe160e01b81526004016107909190613097565b61178f63ffffffff83168761344c565b95505050508060010190506116a8565b506117a98361243b565b600a60149054906101000a900460ff16600a6117c5919061356e565b82146117e457604051639006dd2760e01b815260040160405180910390fd5b60405133907f2d47a742b8d7df7c1fc5a9a631b206b364e6cb2722490759f63bb3ab14b132e0905f90a25050505050565b6060805f611823601c612311565b90508061ffff166001600160401b038111156118415761184161358f565b60405190808252806020026020018201604052801561186a578160200160208202803683370190505b5092508061ffff166001600160401b038111156118895761188961358f565b6040519080825280602002602001820160405280156118b2578160200160208202803683370190505b5091505f5b8161ffff168161ffff161015611949575f806118d8601c61ffff851661231b565b9150915081868461ffff16815181106118f3576118f3613392565b60200260200101906001600160a01b031690816001600160a01b03168152505080858461ffff168151811061192a5761192a613392565b63ffffffff9092166020928302919091019091015250506001016118b7565b50509091565b6119576121f5565b60085f9054906101000a90046001600160a01b03166001600160a01b031663edcf9c1f6040518163ffffffff1660e01b8152600401602060405180830381865afa1580156119a7573d5f5f3e3d5ffd5b505050506040513d601f19601f820116820180604052508101906119cb91906133a6565b6119e8576040516312aecd8160e01b815260040160405180910390fd5b805f036119f7576109e9610e42565b5f611a03600e3361221f565b91505081811015611a2757604051632ca2f52b60e11b815260040160405180910390fd5b600a546040516351edffb160e01b81526001600160a01b03909116906351edffb190611a5990339086906004016135be565b5f604051808303815f87803b158015611a70575f5ffd5b505af1158015611a82573d5f5f3e3d5ffd5b505050505f8282611a93919061357c565b9050805f03611aad57611aa7600e33612329565b50611abb565b611ab9600e3383612245565b505b8260145f828254611acc919061357c565b9091555050604051839033907f96a9a6886cdf3047a125454218a23d3961fd3a78643123b248a9d106d0ac94fd905f90a35050610baf6001600555565b611b116121f5565b60085f9054906101000a90046001600160a01b03166001600160a01b031663edcf9c1f6040518163ffffffff1660e01b8152600401602060405180830381865afa158015611b61573d5f5f3e3d5ffd5b505050506040513d601f19601f82011682018060405250810190611b8591906133a6565b611ba2576040516312aecd8160e01b815260040160405180910390fd5b805f03611bc45730604051636b30633560e01b81526004016107909190613097565b5f611bd060113361221f565b91505081811015611bf457604051632ca2f52b60e11b815260040160405180910390fd5b5f611bff838361357c565b9050805f03611c1957611c13601133612329565b50611c27565b611c2560113383612245565b505b8260155f828254611c38919061357c565b909155505060405163a9059cbb60e01b81525f90309063a9059cbb90611c6490339088906004016135be565b6020604051808303815f875af1158015611c80573d5f5f3e3d5ffd5b505050506040513d601f19601f82011682018060405250810190611ca491906133a6565b905080611cc4576040516312171d8360e31b815260040160405180910390fd5b604051849033907f046d3e17087d323298991516e3fdec36fe1204d6bff7fb6e2b8eca77b80a22ad905f90a3505050610baf6001600555565b5f61086f825f6124b3565b5f61086f611d158361138b565b5f6121a7565b6060805f611d296019612311565b90508061ffff166001600160401b03811115611d4757611d4761358f565b604051908082528060200260200182016040528015611d70578160200160208202803683370190505b5092508061ffff166001600160401b03811115611d8f57611d8f61358f565b604051908082528060200260200182016040528015611db8578160200160208202803683370190505b5091505f5b8161ffff168161ffff161015611949575f80611dde601961ffff851661231b565b9150915081868461ffff1681518110611df957611df9613392565b60200260200101906001600160a01b031690816001600160a01b03168152505080858461ffff1681518110611e3057611e30613392565b60209081029190910101525050600101611dbd565b5f61086f8261138b565b6001600160a01b039182165f90815260016020908152604080832093909416825291909152205490565b5f5f611e84836124e5565b90505f611e91828561357c565b90505f611e9d826125af565b9050611ea9818461344c565b95945050505050565b600a546001600160a01b03163314611edd57604051631a27eac360e11b815260040160405180910390fd5b611ee56121f5565b5f611ef0600e612311565b90508063ffffffff165f03611f055750611370565b5f8163ffffffff166001600160401b03811115611f2457611f2461358f565b604051908082528060200260200182016040528015611f4d578160200160208202803683370190505b5090505f8263ffffffff166001600160401b03811115611f6f57611f6f61358f565b604051908082528060200260200182016040528015611f98578160200160208202803683370190505b5090505f5b8363ffffffff168163ffffffff161015612032575f80611fc7600e63ffffffff8086169061231b16565b9150915081858463ffffffff1681518110611fe457611fe4613392565b60200260200101906001600160a01b031690816001600160a01b03168152505080848463ffffffff168151811061201d5761201d613392565b60209081029190910101525050600101611f9d565b505f601481905560095460408051630a58ce2d60e11b815290516001600160a01b03909216916314b19c5a916004808201926020929091908290030181865afa158015612081573d5f5f3e3d5ffd5b505050506040513d601f19601f820116820180604052508101906120a591906135a3565b90505f5b8463ffffffff168163ffffffff16101561136a575f848263ffffffff16815181106120d6576120d6613392565b602002602001015190505f848363ffffffff16815181106120f9576120f9613392565b6020026020010151905061211782600e61232990919063ffffffff16565b505f612124828a5f6113a5565b9050612130838261263f565b604080518381526020810183905261ffff8716916001600160a01b0386169130917f4e2ca0515ed1aef1395f66b5303bb5d6f1bf9d61a353fa53f73f8ac9973fa9f6910160405180910390a45050508060010190506120a9565b610baf81612673565b5f610e3b836001600160a01b0384166126cc565b5f610e3b6121b4600d5490565b6121bf90600161344c565b6121c761237d565b6121d290600a61356e565b6002546121df919061344c565b859190856123f9565b6107cf8383836001612713565b60026005540361221857604051633ee5aeb560e01b815260040160405180910390fd5b6002600555565b5f808080612236866001600160a01b0387166127e5565b909450925050505b9250929050565b5f6113dd846001600160a01b0385168461281d565b610baf81612839565b5f61226e8484611e4f565b90505f198110156122ae57818110156122a057828183604051637dc7a0d960e11b8152600401610790939291906135d7565b6122ae84848484035f612713565b50505050565b6001600160a01b0383166122dd575f604051634b637e8f60e11b81526004016107909190613097565b6001600160a01b038216612306575f60405163ec442f0560e01b81526004016107909190613097565b6107cf838383612882565b5f61086f82612995565b5f808080612236868661299f565b5f610e3b836001600160a01b0384166129c8565b6001600160a01b038216612366575f604051634b637e8f60e11b81526004016107909190613097565b610c29825f83612882565b60605f610e3b836129e4565b5f5f612387610e42565b6001600160a01b031663313ce5676040518163ffffffff1660e01b8152600401602060405180830381865afa1580156123c2573d5f5f3e3d5ffd5b505050506040513d601f19601f820116820180604052508101906123e691906135f8565b90506123f3816012613613565b91505090565b5f61242661240683612a3d565b801561242157505f848061241c5761241c61362c565b868809115b151590565b612431868686612a69565b611ea9919061344c565b5f5b8151811015610c295761247382828151811061245b5761245b613392565b6020026020010151600b612b1990919063ffffffff16565b6124ab5781818151811061248957612489613392565b602002602001015160405163751dff9760e11b81526004016107909190613097565b60010161243d565b5f610e3b6124bf61237d565b6124ca90600a61356e565b6002546124d7919061344c565b600d546121df90600161344c565b6017545f906301000000900461ffff16810361250257505f919050565b6017545f9061251f906301000000900461ffff1684612710612a69565b9050610e3b60095f9054906101000a90046001600160a01b03166001600160a01b0316634ff0876a6040518163ffffffff1660e01b8152600401602060405180830381865afa158015612574573d5f5f3e3d5ffd5b505050506040513d601f19601f820116820180604052508101906125989190613640565b829063ffffffff908116906301e1338090612a6916565b6017545f90610100900461ffff1681036125ca57505f919050565b5f6125e16125da6012600a61356e565b845f6113f4565b6017549091505f9081906125f79060ff16612b2d565b915091508183101561260d57505f949350505050565b6017545f9061262690610100900461ffff168584612a69565b90506126358187612710612a69565b9695505050505050565b6001600160a01b038216612668575f60405163ec442f0560e01b81526004016107909190613097565b610c295f8383612882565b5f61267c825490565b90505f5b818110156126c557826001015f845f0183815481106126a1576126a1613392565b905f5260205f20015481526020019081526020015f205f9055806001019050612680565b50505f9055565b5f6126d78383612c17565b61270c57508154600181810184555f84815260208082209093018490558454848252828601909352604090209190915561086f565b505f61086f565b6001600160a01b03841661273c575f60405163e602df0560e01b81526004016107909190613097565b6001600160a01b038316612765575f604051634a1406b160e11b81526004016107909190613097565b6001600160a01b038085165f90815260016020908152604080832093871683529290522082905580156122ae57826001600160a01b0316846001600160a01b03167f8c5be1e5ebec7d5bd14f71427d1e84f3dd0314c0f7b2291e5b200ac8c7c3b925846040516127d791815260200190565b60405180910390a350505050565b5f818152600283016020526040812054819080612812576128068585612c2e565b92505f915061223e9050565b60019250905061223e565b5f82815260028401602052604081208290556113dd8484612c39565b5f61284382612995565b90505f5b8181101561287857600283015f61285e8584612c44565b815260208101919091526040015f90812055600101612847565b50610c298261218a565b6001600160a01b0383166128ac578060025f8282546128a1919061344c565b909155506129099050565b6001600160a01b0383165f90815260208190526040902054818110156128eb5783818360405163391434e360e21b8152600401610790939291906135d7565b6001600160a01b0384165f9081526020819052604090209082900390555b6001600160a01b03821661292557600280548290039055612943565b6001600160a01b0382165f9081526020819052604090208054820190555b816001600160a01b0316836001600160a01b03167fddf252ad1be2c89b69c2b068fc378daa952ba7f163c4a11628f55a4df523b3ef8360405161298891815260200190565b60405180910390a3505050565b5f61086f82612c4f565b5f80806129ac8585612c44565b5f81815260029690960160205260409095205494959350505050565b5f8181526002830160205260408120819055610e3b8383612c58565b6060815f01805480602002602001604051908101604052809291908181526020018280548015612a3157602002820191905f5260205f20905b815481526020019060010190808311612a1d575b50505050509050919050565b5f6002826003811115612a5257612a526131f7565b612a5c919061365b565b60ff166001149050919050565b5f5f5f612a768686612c63565b91509150815f03612a9a57838181612a9057612a9061362c565b0492505050610e3b565b818411612ab157612ab16003851502601118612c7f565b5f848688095f868103871696879004966002600389028118808a02820302808a02820302808a02820302808a02820302808a02820302808a02909103029181900381900460010185841190960395909502919093039390930492909217029150509392505050565b5f610e3b836001600160a01b038416612c17565b5f8080612b3a6012610cff565b90505f846004811115612b4f57612b4f6131f7565b03612b5f57809250829150612c11565b6003846004811115612b7357612b736131f7565b03612b85576018549250829150612c11565b6001846004811115612b9957612b996131f7565b03612bb157612ba781612c90565b9250809150612c11565b6002846004811115612bc557612bc56131f7565b03612bdd57612bd381612c90565b9250829150612c11565b6004846004811115612bf157612bf16131f7565b03612c1157601854612c0b90612c0683612c90565b612db6565b92508291505b50915091565b5f9081526001919091016020526040902054151590565b5f610e3b8383612dc5565b5f610e3b83836126cc565b5f610e3b8383612dd0565b5f61086f825490565b5f610e3b8383612df6565b5f805f1983850993909202808410938190039390930393915050565b634e487b715f52806020526024601cfd5b5f5f60085f9054906101000a90046001600160a01b03166001600160a01b031663f3cc69936040518163ffffffff1660e01b8152600401602060405180830381865afa158015612ce2573d5f5f3e3d5ffd5b505050506040513d601f19601f82011682018060405250810190612d0691906135a3565b61ffff1690505f612d9b60095f9054906101000a90046001600160a01b03166001600160a01b0316634ff0876a6040518163ffffffff1660e01b8152600401602060405180830381865afa158015612d60573d5f5f3e3d5ffd5b505050506040513d601f19601f82011682018060405250810190612d849190613640565b839063ffffffff908116906301e1338090612a6916565b90506113dd612dac8261271061344c565b8590612710612a69565b5f828218828411028218610e3b565b5f610e3b8383612c17565b5f825f018281548110612de557612de5613392565b905f5260205f200154905092915050565b5f8181526001830160205260408120548015612ed0575f612e1860018361357c565b85549091505f90612e2b9060019061357c565b9050808214612e8a575f865f018281548110612e4957612e49613392565b905f5260205f200154905080875f018481548110612e6957612e69613392565b5f918252602080832090910192909255918252600188019052604090208390555b8554869080612e9b57612e9b613688565b600190038181905f5260205f20015f90559055856001015f8681526020019081526020015f205f90556001935050505061086f565b5f91505061086f565b5f5f60208385031215612eea575f5ffd5b82356001600160401b03811115612eff575f5ffd5b8301601f81018513612f0f575f5ffd5b80356001600160401b03811115612f24575f5ffd5b8560208260051b8401011115612f38575f5ffd5b6020919091019590945092505050565b602081525f82518060208401528060208501604085015e5f604082850101526040601f19601f83011684010191505092915050565b5f60208284031215612f8d575f5ffd5b5035919050565b80356001600160a01b0381168114612faa575f5ffd5b919050565b5f5f60408385031215612fc0575f5ffd5b612fc983612f94565b946020939093013593505050565b5f60208284031215612fe7575f5ffd5b610e3b82612f94565b5f5f60408385031215613001575f5ffd5b50508035926020909101359150565b5f5f83601f840112613020575f5ffd5b5081356001600160401b03811115613036575f5ffd5b6020830191508360208260061b850101111561223e575f5ffd5b5f5f5f60408486031215613062575f5ffd5b83356001600160401b03811115613077575f5ffd5b61308386828701613010565b909790965060209590950135949350505050565b6001600160a01b0391909116815260200190565b5f5f5f606084860312156130bd575f5ffd5b6130c684612f94565b92506130d460208501612f94565b929592945050506040919091013590565b60ff81168114610baf575f5ffd5b61ffff81168114610baf575f5ffd5b5f5f5f60608486031215613114575f5ffd5b833561311f816130e5565b9250602084013561312f816130f3565b9150604084013561313f816130f3565b809150509250925092565b5f8151808452602084019350602083015f5b828110156131835781516001600160a01b031686526020958601959091019060010161315c565b5093949350505050565b602081525f610e3b602083018461314a565b5f5f604083850312156131b0575f5ffd5b823591506131c060208401612f94565b90509250929050565b5f5f5f606084860312156131db575f5ffd5b833592506020840135915060408401356004811061313f575f5ffd5b634e487b7160e01b5f52602160045260245ffd5b608081016005861061322b57634e487b7160e01b5f52602160045260245ffd5b94815261ffff93841660208201529190921660408201526060015290565b5f5f6020838503121561325a575f5ffd5b82356001600160401b0381111561326f575f5ffd5b61327b85828601613010565b90969095509350505050565b5f5f5f60608486031215613299575f5ffd5b833592506132a960208501612f94565b91506132b760408501612f94565b90509250925092565b604081525f6132d2604083018561314a565b82810360208401528084518083526020830191506020860192505f5b8181101561331257835163ffffffff168352602093840193909201916001016132ee565b50909695505050505050565b604081525f613330604083018561314a565b82810360208401528084518083526020830191506020860192505f5b8181101561331257835183526020938401939092019160010161334c565b5f5f6040838503121561337b575f5ffd5b61338483612f94565b91506131c060208401612f94565b634e487b7160e01b5f52603260045260245ffd5b5f602082840312156133b6575f5ffd5b81518015158114610e3b575f5ffd5b600181811c908216806133d957607f821691505b6020821081036133f757634e487b7160e01b5f52602260045260245ffd5b50919050565b5f6020828403121561340d575f5ffd5b5051919050565b6001600160a01b039384168152919092166020820152604081019190915260600190565b634e487b7160e01b5f52601160045260245ffd5b8082018082111561086f5761086f613438565b63ffffffff81168114610baf575f5ffd5b5f60208284031215613480575f5ffd5b8135610e3b8161345f565b6001815b60018411156134c6578085048111156134aa576134aa613438565b60018416156134b857908102905b60019390931c92800261348f565b935093915050565b5f826134dc5750600161086f565b816134e857505f61086f565b81600181146134fe576002811461350857613524565b600191505061086f565b60ff84111561351957613519613438565b50506001821b61086f565b5060208310610133831016604e8410600b8410161715613547575081810a61086f565b6135535f19848461348b565b805f190482111561356657613566613438565b029392505050565b5f610e3b60ff8416836134ce565b8181038181111561086f5761086f613438565b634e487b7160e01b5f52604160045260245ffd5b5f602082840312156135b3575f5ffd5b8151610e3b816130f3565b6001600160a01b03929092168252602082015260400190565b6001600160a01b039390931683526020830191909152604082015260600190565b5f60208284031215613608575f5ffd5b8151610e3b816130e5565b60ff828116828216039081111561086f5761086f613438565b634e487b7160e01b5f52601260045260245ffd5b5f60208284031215613650575f5ffd5b8151610e3b8161345f565b5f60ff83168061367957634e487b7160e01b5f52601260045260245ffd5b8060ff84160691505092915050565b634e487b7160e01b5f52603160045260245ffdfea2646970667358221220a73cb6861d9e05cf2863bbb5b3fa62ab9dee7a3020d4e6fedf70fa5faf6dba3664736f6c634300081c0033",
  "linkReferences": {},
  "deployedLinkReferences": {}
}