{
  "_format": "hh-sol-artifact-1",
  "contractName": "OrionTransparentVault",
  "sourceName": "contracts/vaults/OrionTransparentVault.sol",
  "abi": [
    {
      "inputs": [
        {
          "internalType": "address",
          "name": "curatorAddress",
          "type": "address"
        },
        {
          "internalType": "contract IOrionConfig",
          "name": "configAddress",
          "type": "address"
        },
        {
          "internalType": "string",
          "name": "name",
          "type": "string"
        },
        {
          "internalType": "string",
          "name": "symbol",
          "type": "string"
        }
      ],
      "stateMutability": "nonpayable",
      "type": "constructor"
    },
    {
      "inputs": [
        {
          "internalType": "address",
          "name": "asset",
          "type": "address"
        }
      ],
      "name": "AmountMustBeGreaterThanZero",
      "type": "error"
    },
    {
      "inputs": [
        {
          "internalType": "address",
          "name": "spender",
          "type": "address"
        },
        {
          "internalType": "uint256",
          "name": "allowance",
          "type": "uint256"
        },
        {
          "internalType": "uint256",
          "name": "needed",
          "type": "uint256"
        }
      ],
      "name": "ERC20InsufficientAllowance",
      "type": "error"
    },
    {
      "inputs": [
        {
          "internalType": "address",
          "name": "sender",
          "type": "address"
        },
        {
          "internalType": "uint256",
          "name": "balance",
          "type": "uint256"
        },
        {
          "internalType": "uint256",
          "name": "needed",
          "type": "uint256"
        }
      ],
      "name": "ERC20InsufficientBalance",
      "type": "error"
    },
    {
      "inputs": [
        {
          "internalType": "address",
          "name": "approver",
          "type": "address"
        }
      ],
      "name": "ERC20InvalidApprover",
      "type": "error"
    },
    {
      "inputs": [
        {
          "internalType": "address",
          "name": "receiver",
          "type": "address"
        }
      ],
      "name": "ERC20InvalidReceiver",
      "type": "error"
    },
    {
      "inputs": [
        {
          "internalType": "address",
          "name": "sender",
          "type": "address"
        }
      ],
      "name": "ERC20InvalidSender",
      "type": "error"
    },
    {
      "inputs": [
        {
          "internalType": "address",
          "name": "spender",
          "type": "address"
        }
      ],
      "name": "ERC20InvalidSpender",
      "type": "error"
    },
    {
      "inputs": [
        {
          "internalType": "address",
          "name": "receiver",
          "type": "address"
        },
        {
          "internalType": "uint256",
          "name": "assets",
          "type": "uint256"
        },
        {
          "internalType": "uint256",
          "name": "max",
          "type": "uint256"
        }
      ],
      "name": "ERC4626ExceededMaxDeposit",
      "type": "error"
    },
    {
      "inputs": [
        {
          "internalType": "address",
          "name": "receiver",
          "type": "address"
        },
        {
          "internalType": "uint256",
          "name": "shares",
          "type": "uint256"
        },
        {
          "internalType": "uint256",
          "name": "max",
          "type": "uint256"
        }
      ],
      "name": "ERC4626ExceededMaxMint",
      "type": "error"
    },
    {
      "inputs": [
        {
          "internalType": "address",
          "name": "owner",
          "type": "address"
        },
        {
          "internalType": "uint256",
          "name": "shares",
          "type": "uint256"
        },
        {
          "internalType": "uint256",
          "name": "max",
          "type": "uint256"
        }
      ],
      "name": "ERC4626ExceededMaxRedeem",
      "type": "error"
    },
    {
      "inputs": [
        {
          "internalType": "address",
          "name": "owner",
          "type": "address"
        },
        {
          "internalType": "uint256",
          "name": "assets",
          "type": "uint256"
        },
        {
          "internalType": "uint256",
          "name": "max",
          "type": "uint256"
        }
      ],
      "name": "ERC4626ExceededMaxWithdraw",
      "type": "error"
    },
    {
      "inputs": [
        {
          "internalType": "address",
          "name": "sender",
          "type": "address"
        },
        {
          "internalType": "uint256",
          "name": "balance",
          "type": "uint256"
        },
        {
          "internalType": "uint256",
          "name": "amount",
          "type": "uint256"
        }
      ],
      "name": "InsufficientFunds",
      "type": "error"
    },
    {
      "inputs": [],
      "name": "InvalidAddress",
      "type": "error"
    },
    {
      "inputs": [],
      "name": "InvalidTotalWeight",
      "type": "error"
    },
    {
      "inputs": [],
      "name": "InvalidUnderlyingDecimals",
      "type": "error"
    },
    {
      "inputs": [],
      "name": "NotEnoughDepositRequest",
      "type": "error"
    },
    {
      "inputs": [],
      "name": "NotEnoughWithdrawRequest",
      "type": "error"
    },
    {
      "inputs": [],
      "name": "OrderIntentCannotBeEmpty",
      "type": "error"
    },
    {
      "inputs": [
        {
          "internalType": "address",
          "name": "owner",
          "type": "address"
        }
      ],
      "name": "OwnableInvalidOwner",
      "type": "error"
    },
    {
      "inputs": [
        {
          "internalType": "address",
          "name": "account",
          "type": "address"
        }
      ],
      "name": "OwnableUnauthorizedAccount",
      "type": "error"
    },
    {
      "inputs": [],
      "name": "ReentrancyGuardReentrantCall",
      "type": "error"
    },
    {
      "inputs": [],
      "name": "SynchronousCallDisabled",
      "type": "error"
    },
    {
      "inputs": [
        {
          "internalType": "address",
          "name": "token",
          "type": "address"
        }
      ],
      "name": "TokenAlreadyInOrder",
      "type": "error"
    },
    {
      "inputs": [
        {
          "internalType": "address",
          "name": "token",
          "type": "address"
        }
      ],
      "name": "TokenNotWhitelisted",
      "type": "error"
    },
    {
      "inputs": [],
      "name": "TransferFailed",
      "type": "error"
    },
    {
      "inputs": [],
      "name": "UnauthorizedAccess",
      "type": "error"
    },
    {
      "anonymous": false,
      "inputs": [
        {
          "indexed": true,
          "internalType": "address",
          "name": "owner",
          "type": "address"
        },
        {
          "indexed": true,
          "internalType": "address",
          "name": "spender",
          "type": "address"
        },
        {
          "indexed": false,
          "internalType": "uint256",
          "name": "value",
          "type": "uint256"
        }
      ],
      "name": "Approval",
      "type": "event"
    },
    {
      "anonymous": false,
      "inputs": [
        {
          "indexed": true,
          "internalType": "address",
          "name": "sender",
          "type": "address"
        },
        {
          "indexed": true,
          "internalType": "address",
          "name": "owner",
          "type": "address"
        },
        {
          "indexed": false,
          "internalType": "uint256",
          "name": "assets",
          "type": "uint256"
        },
        {
          "indexed": false,
          "internalType": "uint256",
          "name": "shares",
          "type": "uint256"
        }
      ],
      "name": "Deposit",
      "type": "event"
    },
    {
      "anonymous": false,
      "inputs": [
        {
          "indexed": true,
          "internalType": "address",
          "name": "user",
          "type": "address"
        },
        {
          "indexed": false,
          "internalType": "uint256",
          "name": "amount",
          "type": "uint256"
        }
      ],
      "name": "DepositProcessed",
      "type": "event"
    },
    {
      "anonymous": false,
      "inputs": [
        {
          "indexed": true,
          "internalType": "address",
          "name": "user",
          "type": "address"
        },
        {
          "indexed": false,
          "internalType": "uint256",
          "name": "amount",
          "type": "uint256"
        }
      ],
      "name": "DepositRequestCancelled",
      "type": "event"
    },
    {
      "anonymous": false,
      "inputs": [
        {
          "indexed": true,
          "internalType": "address",
          "name": "user",
          "type": "address"
        },
        {
          "indexed": false,
          "internalType": "uint256",
          "name": "amount",
          "type": "uint256"
        }
      ],
      "name": "DepositRequested",
      "type": "event"
    },
    {
      "anonymous": false,
      "inputs": [
        {
          "indexed": true,
          "internalType": "address",
          "name": "curator",
          "type": "address"
        }
      ],
      "name": "OrderSubmitted",
      "type": "event"
    },
    {
      "anonymous": false,
      "inputs": [
        {
          "indexed": true,
          "internalType": "address",
          "name": "previousOwner",
          "type": "address"
        },
        {
          "indexed": true,
          "internalType": "address",
          "name": "newOwner",
          "type": "address"
        }
      ],
      "name": "OwnershipTransferred",
      "type": "event"
    },
    {
      "anonymous": false,
      "inputs": [
        {
          "indexed": true,
          "internalType": "address",
          "name": "from",
          "type": "address"
        },
        {
          "indexed": true,
          "internalType": "address",
          "name": "to",
          "type": "address"
        },
        {
          "indexed": false,
          "internalType": "uint256",
          "name": "value",
          "type": "uint256"
        }
      ],
      "name": "Transfer",
      "type": "event"
    },
    {
      "anonymous": false,
      "inputs": [
        {
          "indexed": false,
          "internalType": "uint256",
          "name": "newTotalAssets",
          "type": "uint256"
        }
      ],
      "name": "VaultStateUpdated",
      "type": "event"
    },
    {
      "anonymous": false,
      "inputs": [
        {
          "indexed": true,
          "internalType": "address",
          "name": "sender",
          "type": "address"
        },
        {
          "indexed": true,
          "internalType": "address",
          "name": "receiver",
          "type": "address"
        },
        {
          "indexed": true,
          "internalType": "address",
          "name": "owner",
          "type": "address"
        },
        {
          "indexed": false,
          "internalType": "uint256",
          "name": "assets",
          "type": "uint256"
        },
        {
          "indexed": false,
          "internalType": "uint256",
          "name": "shares",
          "type": "uint256"
        }
      ],
      "name": "Withdraw",
      "type": "event"
    },
    {
      "anonymous": false,
      "inputs": [
        {
          "indexed": true,
          "internalType": "address",
          "name": "user",
          "type": "address"
        },
        {
          "indexed": false,
          "internalType": "uint256",
          "name": "shares",
          "type": "uint256"
        }
      ],
      "name": "WithdrawProcessed",
      "type": "event"
    },
    {
      "anonymous": false,
      "inputs": [
        {
          "indexed": true,
          "internalType": "address",
          "name": "user",
          "type": "address"
        },
        {
          "indexed": false,
          "internalType": "uint256",
          "name": "shares",
          "type": "uint256"
        }
      ],
      "name": "WithdrawRequestCancelled",
      "type": "event"
    },
    {
      "anonymous": false,
      "inputs": [
        {
          "indexed": true,
          "internalType": "address",
          "name": "user",
          "type": "address"
        },
        {
          "indexed": false,
          "internalType": "uint256",
          "name": "shares",
          "type": "uint256"
        }
      ],
      "name": "WithdrawRequested",
      "type": "event"
    },
    {
      "inputs": [
        {
          "internalType": "address",
          "name": "owner",
          "type": "address"
        },
        {
          "internalType": "address",
          "name": "spender",
          "type": "address"
        }
      ],
      "name": "allowance",
      "outputs": [
        {
          "internalType": "uint256",
          "name": "",
          "type": "uint256"
        }
      ],
      "stateMutability": "view",
      "type": "function"
    },
    {
      "inputs": [
        {
          "internalType": "address",
          "name": "spender",
          "type": "address"
        },
        {
          "internalType": "uint256",
          "name": "value",
          "type": "uint256"
        }
      ],
      "name": "approve",
      "outputs": [
        {
          "internalType": "bool",
          "name": "",
          "type": "bool"
        }
      ],
      "stateMutability": "nonpayable",
      "type": "function"
    },
    {
      "inputs": [],
      "name": "asset",
      "outputs": [
        {
          "internalType": "address",
          "name": "",
          "type": "address"
        }
      ],
      "stateMutability": "view",
      "type": "function"
    },
    {
      "inputs": [
        {
          "internalType": "address",
          "name": "account",
          "type": "address"
        }
      ],
      "name": "balanceOf",
      "outputs": [
        {
          "internalType": "uint256",
          "name": "",
          "type": "uint256"
        }
      ],
      "stateMutability": "view",
      "type": "function"
    },
    {
      "inputs": [
        {
          "internalType": "uint256",
          "name": "amount",
          "type": "uint256"
        }
      ],
      "name": "cancelDepositRequest",
      "outputs": [],
      "stateMutability": "nonpayable",
      "type": "function"
    },
    {
      "inputs": [
        {
          "internalType": "uint256",
          "name": "shares",
          "type": "uint256"
        }
      ],
      "name": "cancelWithdrawRequest",
      "outputs": [],
      "stateMutability": "nonpayable",
      "type": "function"
    },
    {
      "inputs": [],
      "name": "config",
      "outputs": [
        {
          "internalType": "contract IOrionConfig",
          "name": "",
          "type": "address"
        }
      ],
      "stateMutability": "view",
      "type": "function"
    },
    {
      "inputs": [
        {
          "internalType": "uint256",
          "name": "shares",
          "type": "uint256"
        }
      ],
      "name": "convertToAssets",
      "outputs": [
        {
          "internalType": "uint256",
          "name": "",
          "type": "uint256"
        }
      ],
      "stateMutability": "view",
      "type": "function"
    },
    {
      "inputs": [
        {
          "internalType": "uint256",
          "name": "shares",
          "type": "uint256"
        },
        {
          "internalType": "uint256",
          "name": "pointInTimeTotalAssets",
          "type": "uint256"
        },
        {
          "internalType": "enum Math.Rounding",
          "name": "rounding",
          "type": "uint8"
        }
      ],
      "name": "convertToAssetsWithPITTotalAssets",
      "outputs": [
        {
          "internalType": "uint256",
          "name": "",
          "type": "uint256"
        }
      ],
      "stateMutability": "view",
      "type": "function"
    },
    {
      "inputs": [
        {
          "internalType": "uint256",
          "name": "assets",
          "type": "uint256"
        }
      ],
      "name": "convertToShares",
      "outputs": [
        {
          "internalType": "uint256",
          "name": "",
          "type": "uint256"
        }
      ],
      "stateMutability": "view",
      "type": "function"
    },
    {
      "inputs": [],
      "name": "curator",
      "outputs": [
        {
          "internalType": "address",
          "name": "",
          "type": "address"
        }
      ],
      "stateMutability": "view",
      "type": "function"
    },
    {
      "inputs": [],
      "name": "decimals",
      "outputs": [
        {
          "internalType": "uint8",
          "name": "",
          "type": "uint8"
        }
      ],
      "stateMutability": "view",
      "type": "function"
    },
    {
      "inputs": [],
      "name": "deployer",
      "outputs": [
        {
          "internalType": "address",
          "name": "",
          "type": "address"
        }
      ],
      "stateMutability": "view",
      "type": "function"
    },
    {
      "inputs": [
        {
          "internalType": "uint256",
          "name": "",
          "type": "uint256"
        },
        {
          "internalType": "address",
          "name": "",
          "type": "address"
        }
      ],
      "name": "deposit",
      "outputs": [
        {
          "internalType": "uint256",
          "name": "",
          "type": "uint256"
        }
      ],
      "stateMutability": "pure",
      "type": "function"
    },
    {
      "inputs": [],
      "name": "getIntent",
      "outputs": [
        {
          "internalType": "address[]",
          "name": "tokens",
          "type": "address[]"
        },
        {
          "internalType": "uint256[]",
          "name": "weights",
          "type": "uint256[]"
        }
      ],
      "stateMutability": "view",
      "type": "function"
    },
    {
      "inputs": [],
      "name": "getPendingDeposits",
      "outputs": [
        {
          "internalType": "uint256",
          "name": "",
          "type": "uint256"
        }
      ],
      "stateMutability": "view",
      "type": "function"
    },
    {
      "inputs": [],
      "name": "getPendingWithdrawals",
      "outputs": [
        {
          "internalType": "uint256",
          "name": "",
          "type": "uint256"
        }
      ],
      "stateMutability": "view",
      "type": "function"
    },
    {
      "inputs": [],
      "name": "getPortfolio",
      "outputs": [
        {
          "internalType": "address[]",
          "name": "tokens",
          "type": "address[]"
        },
        {
          "internalType": "uint256[]",
          "name": "sharesPerAsset",
          "type": "uint256[]"
        }
      ],
      "stateMutability": "view",
      "type": "function"
    },
    {
      "inputs": [
        {
          "internalType": "address",
          "name": "",
          "type": "address"
        }
      ],
      "name": "maxDeposit",
      "outputs": [
        {
          "internalType": "uint256",
          "name": "",
          "type": "uint256"
        }
      ],
      "stateMutability": "view",
      "type": "function"
    },
    {
      "inputs": [
        {
          "internalType": "address",
          "name": "",
          "type": "address"
        }
      ],
      "name": "maxMint",
      "outputs": [
        {
          "internalType": "uint256",
          "name": "",
          "type": "uint256"
        }
      ],
      "stateMutability": "view",
      "type": "function"
    },
    {
      "inputs": [
        {
          "internalType": "address",
          "name": "owner",
          "type": "address"
        }
      ],
      "name": "maxRedeem",
      "outputs": [
        {
          "internalType": "uint256",
          "name": "",
          "type": "uint256"
        }
      ],
      "stateMutability": "view",
      "type": "function"
    },
    {
      "inputs": [
        {
          "internalType": "address",
          "name": "owner",
          "type": "address"
        }
      ],
      "name": "maxWithdraw",
      "outputs": [
        {
          "internalType": "uint256",
          "name": "",
          "type": "uint256"
        }
      ],
      "stateMutability": "view",
      "type": "function"
    },
    {
      "inputs": [
        {
          "internalType": "uint256",
          "name": "",
          "type": "uint256"
        },
        {
          "internalType": "address",
          "name": "",
          "type": "address"
        }
      ],
      "name": "mint",
      "outputs": [
        {
          "internalType": "uint256",
          "name": "",
          "type": "uint256"
        }
      ],
      "stateMutability": "pure",
      "type": "function"
    },
    {
      "inputs": [],
      "name": "name",
      "outputs": [
        {
          "internalType": "string",
          "name": "",
          "type": "string"
        }
      ],
      "stateMutability": "view",
      "type": "function"
    },
    {
      "inputs": [],
      "name": "owner",
      "outputs": [
        {
          "internalType": "address",
          "name": "",
          "type": "address"
        }
      ],
      "stateMutability": "view",
      "type": "function"
    },
    {
      "inputs": [
        {
          "internalType": "uint256",
          "name": "assets",
          "type": "uint256"
        }
      ],
      "name": "previewDeposit",
      "outputs": [
        {
          "internalType": "uint256",
          "name": "",
          "type": "uint256"
        }
      ],
      "stateMutability": "view",
      "type": "function"
    },
    {
      "inputs": [
        {
          "internalType": "uint256",
          "name": "shares",
          "type": "uint256"
        }
      ],
      "name": "previewMint",
      "outputs": [
        {
          "internalType": "uint256",
          "name": "",
          "type": "uint256"
        }
      ],
      "stateMutability": "view",
      "type": "function"
    },
    {
      "inputs": [
        {
          "internalType": "uint256",
          "name": "shares",
          "type": "uint256"
        }
      ],
      "name": "previewRedeem",
      "outputs": [
        {
          "internalType": "uint256",
          "name": "",
          "type": "uint256"
        }
      ],
      "stateMutability": "view",
      "type": "function"
    },
    {
      "inputs": [
        {
          "internalType": "uint256",
          "name": "assets",
          "type": "uint256"
        }
      ],
      "name": "previewWithdraw",
      "outputs": [
        {
          "internalType": "uint256",
          "name": "",
          "type": "uint256"
        }
      ],
      "stateMutability": "view",
      "type": "function"
    },
    {
      "inputs": [],
      "name": "processDepositRequests",
      "outputs": [],
      "stateMutability": "nonpayable",
      "type": "function"
    },
    {
      "inputs": [],
      "name": "processWithdrawRequests",
      "outputs": [],
      "stateMutability": "nonpayable",
      "type": "function"
    },
    {
      "inputs": [
        {
          "internalType": "uint256",
          "name": "",
          "type": "uint256"
        },
        {
          "internalType": "address",
          "name": "",
          "type": "address"
        },
        {
          "internalType": "address",
          "name": "",
          "type": "address"
        }
      ],
      "name": "redeem",
      "outputs": [
        {
          "internalType": "uint256",
          "name": "",
          "type": "uint256"
        }
      ],
      "stateMutability": "pure",
      "type": "function"
    },
    {
      "inputs": [],
      "name": "renounceOwnership",
      "outputs": [],
      "stateMutability": "nonpayable",
      "type": "function"
    },
    {
      "inputs": [
        {
          "internalType": "uint256",
          "name": "amount",
          "type": "uint256"
        }
      ],
      "name": "requestDeposit",
      "outputs": [],
      "stateMutability": "nonpayable",
      "type": "function"
    },
    {
      "inputs": [
        {
          "internalType": "uint256",
          "name": "shares",
          "type": "uint256"
        }
      ],
      "name": "requestWithdraw",
      "outputs": [],
      "stateMutability": "nonpayable",
      "type": "function"
    },
    {
      "inputs": [
        {
          "components": [
            {
              "internalType": "address",
              "name": "token",
              "type": "address"
            },
            {
              "internalType": "uint32",
              "name": "value",
              "type": "uint32"
            }
          ],
          "internalType": "struct IOrionTransparentVault.Position[]",
          "name": "order",
          "type": "tuple[]"
        }
      ],
      "name": "submitIntent",
      "outputs": [],
      "stateMutability": "nonpayable",
      "type": "function"
    },
    {
      "inputs": [],
      "name": "symbol",
      "outputs": [
        {
          "internalType": "string",
          "name": "",
          "type": "string"
        }
      ],
      "stateMutability": "view",
      "type": "function"
    },
    {
      "inputs": [],
      "name": "totalAssets",
      "outputs": [
        {
          "internalType": "uint256",
          "name": "",
          "type": "uint256"
        }
      ],
      "stateMutability": "view",
      "type": "function"
    },
    {
      "inputs": [],
      "name": "totalSupply",
      "outputs": [
        {
          "internalType": "uint256",
          "name": "",
          "type": "uint256"
        }
      ],
      "stateMutability": "view",
      "type": "function"
    },
    {
      "inputs": [
        {
          "internalType": "address",
          "name": "to",
          "type": "address"
        },
        {
          "internalType": "uint256",
          "name": "value",
          "type": "uint256"
        }
      ],
      "name": "transfer",
      "outputs": [
        {
          "internalType": "bool",
          "name": "",
          "type": "bool"
        }
      ],
      "stateMutability": "nonpayable",
      "type": "function"
    },
    {
      "inputs": [
        {
          "internalType": "address",
          "name": "from",
          "type": "address"
        },
        {
          "internalType": "address",
          "name": "to",
          "type": "address"
        },
        {
          "internalType": "uint256",
          "name": "value",
          "type": "uint256"
        }
      ],
      "name": "transferFrom",
      "outputs": [
        {
          "internalType": "bool",
          "name": "",
          "type": "bool"
        }
      ],
      "stateMutability": "nonpayable",
      "type": "function"
    },
    {
      "inputs": [
        {
          "internalType": "address",
          "name": "newOwner",
          "type": "address"
        }
      ],
      "name": "transferOwnership",
      "outputs": [],
      "stateMutability": "nonpayable",
      "type": "function"
    },
    {
      "inputs": [
        {
          "components": [
            {
              "internalType": "address",
              "name": "token",
              "type": "address"
            },
            {
              "internalType": "uint32",
              "name": "value",
              "type": "uint32"
            }
          ],
          "internalType": "struct IOrionTransparentVault.Position[]",
          "name": "portfolio",
          "type": "tuple[]"
        },
        {
          "internalType": "uint256",
          "name": "newTotalAssets",
          "type": "uint256"
        }
      ],
      "name": "updateVaultState",
      "outputs": [],
      "stateMutability": "nonpayable",
      "type": "function"
    },
    {
      "inputs": [
        {
          "internalType": "uint256",
          "name": "",
          "type": "uint256"
        },
        {
          "internalType": "address",
          "name": "",
          "type": "address"
        },
        {
          "internalType": "address",
          "name": "",
          "type": "address"
        }
      ],
      "name": "withdraw",
      "outputs": [
        {
          "internalType": "uint256",
          "name": "",
          "type": "uint256"
        }
      ],
      "stateMutability": "pure",
      "type": "function"
    }
  ],
  "bytecode": "0x60c060405234801561000f575f5ffd5b5060405161316f38038061316f83398101604081905261002e916104a6565b8383838383836001600160a01b0316637158da7c6040518163ffffffff1660e01b8152600401602060405180830381865afa15801561006f573d5f5f3e3d5ffd5b505050506040513d601f19601f820116820180604052508101906100939190610531565b838360036100a183826105d7565b5060046100ae82826105d7565b5050505f5f6100c2836102cb60201b60201c565b91509150816100d25760126100d4565b805b60ff1660a05250506001600160a01b039081166080526001600555811661011457604051631e4fbdf760e01b81525f600482015260240160405180910390fd5b61011d816103a1565b506001600160a01b0384166101455760405163e6c4247b60e01b815260040160405180910390fd5b6001600160a01b03831661016c5760405163e6c4247b60e01b815260040160405180910390fd5b60098054336001600160a01b0319918216179091556008805482166001600160a01b0387811691909117909155600780549092169085169081179091555f600a8190556011819055601281905560408051631c56369f60e21b81529051919291637158da7c916004808201926020929091908290030181865afa1580156101f5573d5f5f3e3d5ffd5b505050506040513d601f19601f820116820180604052508101906102199190610531565b6001600160a01b031663313ce5676040518163ffffffff1660e01b8152600401602060405180830381865afa158015610254573d5f5f3e3d5ffd5b505050506040513d601f19601f820116820180604052508101906102789190610691565b905060128160ff16111561029f57604051631c03248960e11b815260040160405180910390fd5b5f6102ab8260126106c5565b90506102b881600a6107c7565b6013555061080298505050505050505050565b60408051600481526024810182526020810180516001600160e01b031663313ce56760e01b17905290515f918291829182916001600160a01b03871691610311916107d5565b5f60405180830381855afa9150503d805f8114610349576040519150601f19603f3d011682016040523d82523d5f602084013e61034e565b606091505b509150915081801561036257506020815110155b15610395575f8180602001905181019061037c91906107eb565b905060ff8111610393576001969095509350505050565b505b505f9485945092505050565b600680546001600160a01b038381166001600160a01b0319831681179093556040519116919082907f8be0079c531659141344cd1fd0a4f28419497f9722a3daafe3b4186f6b6457e0905f90a35050565b6001600160a01b0381168114610406575f5ffd5b50565b634e487b7160e01b5f52604160045260245ffd5b5f82601f83011261042c575f5ffd5b81516001600160401b0381111561044557610445610409565b604051601f8201601f19908116603f011681016001600160401b038111828210171561047357610473610409565b60405281815283820160200185101561048a575f5ffd5b8160208501602083015e5f918101602001919091529392505050565b5f5f5f5f608085870312156104b9575f5ffd5b84516104c4816103f2565b60208601519094506104d5816103f2565b60408601519093506001600160401b038111156104f0575f5ffd5b6104fc8782880161041d565b606087015190935090506001600160401b03811115610519575f5ffd5b6105258782880161041d565b91505092959194509250565b5f60208284031215610541575f5ffd5b815161054c816103f2565b9392505050565b600181811c9082168061056757607f821691505b60208210810361058557634e487b7160e01b5f52602260045260245ffd5b50919050565b601f8211156105d257805f5260205f20601f840160051c810160208510156105b05750805b601f840160051c820191505b818110156105cf575f81556001016105bc565b50505b505050565b81516001600160401b038111156105f0576105f0610409565b610604816105fe8454610553565b8461058b565b6020601f821160018114610636575f831561061f5750848201515b5f19600385901b1c1916600184901b1784556105cf565b5f84815260208120601f198516915b828110156106655787850151825560209485019460019092019101610645565b508482101561068257868401515f19600387901b60f8161c191681555b50505050600190811b01905550565b5f602082840312156106a1575f5ffd5b815160ff8116811461054c575f5ffd5b634e487b7160e01b5f52601160045260245ffd5b60ff82811682821603908111156106de576106de6106b1565b92915050565b6001815b600184111561071f57808504811115610703576107036106b1565b600184161561071157908102905b60019390931c9280026106e8565b935093915050565b5f82610735575060016106de565b8161074157505f6106de565b816001811461075757600281146107615761077d565b60019150506106de565b60ff841115610772576107726106b1565b50506001821b6106de565b5060208310610133831016604e8410600b84101617156107a0575081810a6106de565b6107ac5f1984846106e4565b805f19048211156107bf576107bf6106b1565b029392505050565b5f61054c60ff841683610727565b5f82518060208501845e5f920191825250919050565b5f602082840312156107fb575f5ffd5b5051919050565b60805160a05161294c6108235f395f61096a01525f610c15015261294c5ff3fe608060405234801561000f575f5ffd5b5060043610610202575f3560e01c806301e1d1141461020657806306fdde031461021d57806307a2d13a14610232578063095ea7b3146102455780630a28a477146102685780630d1e66671461027b578063105444941461029057806318160ddd146102a357806323b872dd146102ab578063313ce567146102be57806333fdc592146102d857806338d52e0f146102e0578063402d267d146102f55780634cdad506146102325780636e553f651461030957806370a082311461031c578063715018a61461032f578063745400c91461033757806379502c551461034a5780638da5cb5b1461035d57806394bf804d1461030957806395d89b4114610365578063a68a52671461036d578063a9059cbb14610380578063aa9d3a6014610393578063b1bd7e2e1461039b578063b3d7f6b9146103ae578063b460af94146103c1578063b6eba653146103cf578063ba087652146103c1578063c0b568e1146103e5578063c37fc8a8146103f8578063c63d75b6146102f5578063c6e6f59214610400578063cce4705b14610413578063ce96cb7714610426578063d1699c2614610439578063d3d0345814610441578063d5f3948814610449578063d905777e1461045c578063dd62ed3e1461046f578063e66f53b714610482578063ef8b30f714610400578063f2fde38b14610495575b5f5ffd5b600a545b6040519081526020015b60405180910390f35b6102256104a8565b604051610214919061230b565b61020a610240366004612340565b610538565b61025861025336600461236b565b610549565b6040519015158152602001610214565b61020a610276366004612340565b610560565b61028e610289366004612340565b61056c565b005b61028e61029e3660046123d5565b6107d0565b60025461020a565b6102586102b936600461241c565b61093e565b6102c6610963565b60405160ff9091168152602001610214565b61028e610993565b6102e8610c13565b604051610214919061245a565b61020a61030336600461246e565b505f1990565b61020a610317366004612489565b610c37565b61020a61032a36600461246e565b610c51565b61028e610c6b565b61028e610345366004612340565b610c7c565b6007546102e8906001600160a01b031681565b6102e8610e3e565b610225610e4d565b61020a61037b3660046124b7565b610e5c565b61025861038e36600461236b565b610e96565b61028e610ea3565b61028e6103a93660046124f0565b6111c0565b61020a6103bc366004612340565b611451565b61020a61031736600461252e565b6103d761145d565b604051610214929190612562565b61028e6103f3366004612340565b611571565b60125461020a565b61020a61040e366004612340565b611713565b61028e610421366004612340565b61171e565b61020a61043436600461246e565b6118c3565b60115461020a565b6103d76118d6565b6009546102e8906001600160a01b031681565b61020a61046a36600461246e565b6119e4565b61020a61047d3660046125eb565b6119ee565b6008546102e8906001600160a01b031681565b61028e6104a336600461246e565b611a18565b6060600380546104b790612617565b80601f01602080910402602001604051908101604052809291908181526020018280546104e390612617565b801561052e5780601f106105055761010080835404028352916020019161052e565b820191905f5260205f20905b81548152906001019060200180831161051157829003601f168201915b5050505050905090565b5f610543825f611a52565b92915050565b5f33610556818585611a60565b5060019392505050565b5f610543826001611a72565b610574611aaf565b805f036105a657610583610c13565b604051636b30633560e01b815260040161059d919061245a565b60405180910390fd5b5f6105af610c13565b6001600160a01b03166370a08231336040518263ffffffff1660e01b81526004016105da919061245a565b602060405180830381865afa1580156105f5573d5f5f3e3d5ffd5b505050506040513d601f19601f82011682018060405250810190610619919061264f565b90508082111561064257338183604051632e2a182f60e11b815260040161059d93929190612666565b5f61064b610c13565b6001600160a01b03166323b872dd3360075f9054906101000a90046001600160a01b03166001600160a01b0316633a0dad8e6040518163ffffffff1660e01b8152600401602060405180830381865afa1580156106aa573d5f5f3e3d5ffd5b505050506040513d601f19601f820116820180604052508101906106ce9190612687565b866040518463ffffffff1660e01b81526004016106ed939291906126a2565b6020604051808303815f875af1158015610709573d5f5f3e3d5ffd5b505050506040513d601f19601f8201168201806040525081019061072d91906126c6565b90508061074d576040516312171d8360e31b815260040160405180910390fd5b5f610759600b33611ad9565b915061077490503361076b86846126f9565b600b9190611aff565b508360115f82825461078691906126f9565b909155505060405184815233907f08d79f77ab5f78e7e780abb1f7ac9e9923340d5bae78f6e83e7999905b248ea29060200160405180910390a25050506107cd6001600555565b50565b60075f9054906101000a90046001600160a01b03166001600160a01b0316633a0dad8e6040518163ffffffff1660e01b8152600401602060405180830381865afa158015610820573d5f5f3e3d5ffd5b505050506040513d601f19601f820116820180604052508101906108449190612687565b6001600160a01b0316336001600160a01b03161461087557604051631a27eac360e11b815260040160405180910390fd5b61087f6014611b14565b815f5b818110156108ff576108f685858381811061089f5761089f61270c565b6108b5926020604090920201908101915061246e565b8686848181106108c7576108c761270c565b90506040020160200160208101906108df9190612720565b63ffffffff166014611aff9092919063ffffffff16565b50600101610882565b50600a8290556040518281527f5e1ff954b5e5257e9ee5d4cb07059e8f5e69b1aaaf9911e5d8d90a6894de9c219060200160405180910390a150505050565b5f3361094b858285611b1d565b610956858585611b6e565b60019150505b9392505050565b5f61098e817f0000000000000000000000000000000000000000000000000000000000000000612743565b905090565b60075f9054906101000a90046001600160a01b03166001600160a01b0316633a0dad8e6040518163ffffffff1660e01b8152600401602060405180830381865afa1580156109e3573d5f5f3e3d5ffd5b505050506040513d601f19601f82011682018060405250810190610a079190612687565b6001600160a01b0316336001600160a01b031614610a3857604051631a27eac360e11b815260040160405180910390fd5b610a40611aaf565b5f610a4b600b611bcb565b90505f816001600160401b03811115610a6657610a6661275c565b604051908082528060200260200182016040528015610a8f578160200160208202803683370190505b5090505f826001600160401b03811115610aab57610aab61275c565b604051908082528060200260200182016040528015610ad4578160200160208202803683370190505b5090505f5b83811015610b4d575f80610aee600b84611bd5565b9150915081858481518110610b0557610b0561270c565b60200260200101906001600160a01b031690816001600160a01b03168152505080848481518110610b3857610b3861270c565b60209081029190910101525050600101610ad9565b505f5b83811015610c02575f838281518110610b6b57610b6b61270c565b602002602001015190505f838381518110610b8857610b8861270c565b602002602001015190505f610b9c82611713565b9050610ba9600b84611be3565b50610bb48382611bf7565b826001600160a01b03167f85a190caa61692b36b63a55e069330d18ab9af179fed7a25c16a4262bc63b7d283604051610bef91815260200190565b60405180910390a2505050600101610b50565b50505f60115550506001600555565b565b7f000000000000000000000000000000000000000000000000000000000000000090565b5f60405163125ad87760e31b815260040160405180910390fd5b6001600160a01b03165f9081526020819052604090205490565b610c73611c2f565b610c115f611c61565b805f03610c9e5730604051636b30633560e01b815260040161059d919061245a565b5f610ca833610c51565b905080821115610cd157338183604051632e2a182f60e11b815260040161059d93929190612666565b60075460408051631d06d6c760e11b815290515f9230926323b872dd9233926001600160a01b031691633a0dad8e9160048083019260209291908290030181865afa158015610d22573d5f5f3e3d5ffd5b505050506040513d601f19601f82011682018060405250810190610d469190612687565b866040518463ffffffff1660e01b8152600401610d65939291906126a2565b6020604051808303815f875af1158015610d81573d5f5f3e3d5ffd5b505050506040513d601f19601f82011682018060405250810190610da591906126c6565b905080610dc5576040516312171d8360e31b815260040160405180910390fd5b5f610dd1600e33611ad9565b9150610dec905033610de386846126f9565b600e9190611aff565b508360125f828254610dfe91906126f9565b909155505060405184815233907ff7774b688d56120b783560a913ee60792a73dfd511812b7be5eccf10d08c66899060200160405180910390a250505050565b6006546001600160a01b031690565b6060600480546104b790612617565b5f5f610e6760025490565b9050610e8d610e778560016126f9565b601354610e8490846126f9565b87919086611cb2565b95945050505050565b5f33610556818585611b6e565b60075f9054906101000a90046001600160a01b03166001600160a01b0316633a0dad8e6040518163ffffffff1660e01b8152600401602060405180830381865afa158015610ef3573d5f5f3e3d5ffd5b505050506040513d601f19601f82011682018060405250810190610f179190612687565b6001600160a01b0316336001600160a01b031614610f4857604051631a27eac360e11b815260040160405180910390fd5b610f50611aaf565b5f610f5b600e611bcb565b90505f816001600160401b03811115610f7657610f7661275c565b604051908082528060200260200182016040528015610f9f578160200160208202803683370190505b5090505f826001600160401b03811115610fbb57610fbb61275c565b604051908082528060200260200182016040528015610fe4578160200160208202803683370190505b5090505f5b8381101561105d575f80610ffe600e84611bd5565b91509150818584815181106110155761101561270c565b60200260200101906001600160a01b031690816001600160a01b031681525050808484815181106110485761104861270c565b60209081029190910101525050600101610fe9565b505f60128190555b838110156111b2575f8382815181106110805761108061270c565b602002602001015190505f83838151811061109d5761109d61270c565b602002602001015190506110bb82600e611be390919063ffffffff16565b506110c63082611cf4565b5f6110d082610538565b90506110da610c13565b6001600160a01b031663a9059cbb84836040518363ffffffff1660e01b8152600401611107929190612770565b6020604051808303815f875af1158015611123573d5f5f3e3d5ffd5b505050506040513d601f19601f8201168201806040525081019061114791906126c6565b611164576040516312171d8360e31b815260040160405180910390fd5b826001600160a01b03167f44b2ff9ffcefe2052a8afdbed44a04bf3db4592ae90c6b96c818bd28573e41e88360405161119f91815260200190565b60405180910390a2505050600101611065565b50505050610c116001600555565b6008546001600160a01b031633146111eb57604051631a27eac360e11b815260040160405180910390fd5b5f81900361120c57604051631121aa8d60e01b815260040160405180910390fd5b6112166017611b14565b5f81815b81811015611388575f8585838181106112355761123561270c565b61124b926020604090920201908101915061246e565b90505f8686848181106112605761126061270c565b90506040020160200160208101906112789190612720565b600754604051633af32abf60e01b81529192506001600160a01b031690633af32abf906112a990859060040161245a565b602060405180830381865afa1580156112c4573d5f5f3e3d5ffd5b505050506040513d601f19601f820116820180604052508101906112e891906126c6565b611307578160405163751dff9760e11b815260040161059d919061245a565b8063ffffffff165f0361132f5781604051636b30633560e01b815260040161059d919061245a565b5f61134560178463ffffffff80861690611aff16565b90508061136757826040516346bdabe160e01b815260040161059d919061245a565b61137763ffffffff8316876126f9565b9550506001909201915061121a9050565b506007546040805163d1717c7d60e01b815290515f926001600160a01b03169163d1717c7d9160048083019260209291908290030181865afa1580156113d0573d5f5f3e3d5ffd5b505050506040513d601f19601f820116820180604052508101906113f49190612789565b905061140181600a61288c565b831461142057604051639006dd2760e01b815260040160405180910390fd5b60405133907f2d47a742b8d7df7c1fc5a9a631b206b364e6cb2722490759f63bb3ab14b132e0905f90a25050505050565b5f610543826001611a52565b6060805f61146b6017611bcb565b9050806001600160401b038111156114855761148561275c565b6040519080825280602002602001820160405280156114ae578160200160208202803683370190505b509250806001600160401b038111156114c9576114c961275c565b6040519080825280602002602001820160405280156114f2578160200160208202803683370190505b5091505f5b8181101561156b575f8061150c601784611bd5565b91509150818684815181106115235761152361270c565b60200260200101906001600160a01b031690816001600160a01b031681525050808584815181106115565761155661270c565b602090810291909101015250506001016114f7565b50509091565b611579611aaf565b805f0361158857610583610c13565b5f611594600b33611ad9565b915050818110156115b8576040516332194fd360e21b815260040160405180910390fd5b60075f9054906101000a90046001600160a01b03166001600160a01b0316633a0dad8e6040518163ffffffff1660e01b8152600401602060405180830381865afa158015611608573d5f5f3e3d5ffd5b505050506040513d601f19601f8201168201806040525081019061162c9190612687565b6001600160a01b03166351edffb133846040518363ffffffff1660e01b8152600401611659929190612770565b5f604051808303815f87803b158015611670575f5ffd5b505af1158015611682573d5f5f3e3d5ffd5b505050505f8282611693919061289a565b9050805f036116ad576116a7600b33611be3565b506116bb565b6116b9600b3383611aff565b505b8260115f8282546116cc919061289a565b909155505060405183815233907f96a9a6886cdf3047a125454218a23d3961fd3a78643123b248a9d106d0ac94fd906020015b60405180910390a250506107cd6001600555565b5f610543825f611a72565b611726611aaf565b805f036117485730604051636b30633560e01b815260040161059d919061245a565b5f611754600e33611ad9565b91505081811015611778576040516312ea1f4960e11b815260040160405180910390fd5b60075f9054906101000a90046001600160a01b03166001600160a01b0316633a0dad8e6040518163ffffffff1660e01b8152600401602060405180830381865afa1580156117c8573d5f5f3e3d5ffd5b505050506040513d601f19601f820116820180604052508101906117ec9190612687565b6001600160a01b031663be186b2033846040518363ffffffff1660e01b8152600401611819929190612770565b5f604051808303815f87803b158015611830575f5ffd5b505af1158015611842573d5f5f3e3d5ffd5b505050505f8282611853919061289a565b9050805f0361186d57611867600e33611be3565b5061187b565b611879600e3383611aff565b505b8260125f82825461188c919061289a565b909155505060405183815233907f9cf37535785001dcc9767688232fcbc8698b3002d1207b50bc2afec3ff8934dc906020016116ff565b5f6105436118d083610c51565b5f611a52565b6060805f6118e46014611bcb565b9050806001600160401b038111156118fe576118fe61275c565b604051908082528060200260200182016040528015611927578160200160208202803683370190505b509250806001600160401b038111156119425761194261275c565b60405190808252806020026020018201604052801561196b578160200160208202803683370190505b5091505f5b8181101561156b575f80611985601484611bd5565b915091508186848151811061199c5761199c61270c565b60200260200101906001600160a01b031690816001600160a01b031681525050808584815181106119cf576119cf61270c565b60209081029190910101525050600101611970565b5f61054382610c51565b6001600160a01b039182165f90815260016020908152604080832093909416825291909152205490565b611a20611c2f565b6001600160a01b038116611a49575f604051631e4fbdf760e01b815260040161059d919061245a565b6107cd81611c61565b5f61095c83600a5484610e5c565b611a6d8383836001611d28565b505050565b5f5f611a7d60025490565b9050611aa760135482611a9091906126f9565b600a54611a9e9060016126f9565b86919086611cb2565b949350505050565b600260055403611ad257604051633ee5aeb560e01b815260040160405180910390fd5b6002600555565b5f808080611af0866001600160a01b038716611dfa565b909450925050505b9250929050565b5f611aa7846001600160a01b03851684611e32565b6107cd81611e4e565b5f611b2884846119ee565b90505f19811015611b685781811015611b5a57828183604051637dc7a0d960e11b815260040161059d93929190612666565b611b6884848484035f611d28565b50505050565b6001600160a01b038316611b97575f604051634b637e8f60e11b815260040161059d919061245a565b6001600160a01b038216611bc0575f60405163ec442f0560e01b815260040161059d919061245a565b611a6d838383611e97565b5f61054382611faa565b5f808080611af08686611fb4565b5f61095c836001600160a01b038416611fdd565b6001600160a01b038216611c20575f60405163ec442f0560e01b815260040161059d919061245a565b611c2b5f8383611e97565b5050565b33611c38610e3e565b6001600160a01b031614610c11573360405163118cdaa760e01b815260040161059d919061245a565b600680546001600160a01b038381166001600160a01b0319831681179093556040519116919082907f8be0079c531659141344cd1fd0a4f28419497f9722a3daafe3b4186f6b6457e0905f90a35050565b5f611cdf611cbf83611ff9565b8015611cda57505f8480611cd557611cd56128ad565b868809115b151590565b611cea868686612025565b610e8d91906126f9565b6001600160a01b038216611d1d575f604051634b637e8f60e11b815260040161059d919061245a565b611c2b825f83611e97565b6001600160a01b038416611d51575f60405163e602df0560e01b815260040161059d919061245a565b6001600160a01b038316611d7a575f604051634a1406b160e11b815260040161059d919061245a565b6001600160a01b038085165f9081526001602090815260408083209387168352929052208290558015611b6857826001600160a01b0316846001600160a01b03167f8c5be1e5ebec7d5bd14f71427d1e84f3dd0314c0f7b2291e5b200ac8c7c3b92584604051611dec91815260200190565b60405180910390a350505050565b5f818152600283016020526040812054819080611e2757611e1b85856120d5565b92505f9150611af89050565b600192509050611af8565b5f8281526002840160205260408120829055611aa784846120e0565b5f611e5882611faa565b90505f5b81811015611e8d57600283015f611e7385846120eb565b815260208101919091526040015f90812055600101611e5c565b50611c2b826120f6565b6001600160a01b038316611ec1578060025f828254611eb691906126f9565b90915550611f1e9050565b6001600160a01b0383165f9081526020819052604090205481811015611f005783818360405163391434e360e21b815260040161059d93929190612666565b6001600160a01b0384165f9081526020819052604090209082900390555b6001600160a01b038216611f3a57600280548290039055611f58565b6001600160a01b0382165f9081526020819052604090208054820190555b816001600160a01b0316836001600160a01b03167fddf252ad1be2c89b69c2b068fc378daa952ba7f163c4a11628f55a4df523b3ef83604051611f9d91815260200190565b60405180910390a3505050565b5f610543826120ff565b5f8080611fc185856120eb565b5f81815260029690960160205260409095205494959350505050565b5f818152600283016020526040812081905561095c8383612108565b5f600282600381111561200e5761200e6128c1565b61201891906128d5565b60ff166001149050919050565b5f5f5f6120328686612113565b91509150815f036120565783818161204c5761204c6128ad565b049250505061095c565b81841161206d5761206d600385150260111861212f565b5f848688095f868103871696879004966002600389028118808a02820302808a02820302808a02820302808a02820302808a02820302808a02909103029181900381900460010185841190960395909502919093039390930492909217029150509392505050565b5f61095c8383612140565b5f61095c838361214b565b5f61095c8383612192565b6107cd816121b8565b5f610543825490565b5f61095c8383612211565b5f805f1983850993909202808410938190039390930393915050565b634e487b715f52806020526024601cfd5b5f61095c83836122f4565b5f61215683836122f4565b61218b57508154600181810184555f848152602080822090930184905584548482528286019093526040902091909155610543565b505f610543565b5f825f0182815481106121a7576121a761270c565b905f5260205f200154905092915050565b5f6121c1825490565b90505f5b8181101561220a57826001015f845f0183815481106121e6576121e661270c565b905f5260205f20015481526020019081526020015f205f90558060010190506121c5565b50505f9055565b5f81815260018301602052604081205480156122eb575f61223360018361289a565b85549091505f906122469060019061289a565b90508082146122a5575f865f0182815481106122645761226461270c565b905f5260205f200154905080875f0184815481106122845761228461270c565b5f918252602080832090910192909255918252600188019052604090208390555b85548690806122b6576122b6612902565b600190038181905f5260205f20015f90559055856001015f8681526020019081526020015f205f905560019350505050610543565b5f915050610543565b5f9081526001919091016020526040902054151590565b602081525f82518060208401528060208501604085015e5f604082850101526040601f19601f83011684010191505092915050565b5f60208284031215612350575f5ffd5b5035919050565b6001600160a01b03811681146107cd575f5ffd5b5f5f6040838503121561237c575f5ffd5b823561238781612357565b946020939093013593505050565b5f5f83601f8401126123a5575f5ffd5b5081356001600160401b038111156123bb575f5ffd5b6020830191508360208260061b8501011115611af8575f5ffd5b5f5f5f604084860312156123e7575f5ffd5b83356001600160401b038111156123fc575f5ffd5b61240886828701612395565b909790965060209590950135949350505050565b5f5f5f6060848603121561242e575f5ffd5b833561243981612357565b9250602084013561244981612357565b929592945050506040919091013590565b6001600160a01b0391909116815260200190565b5f6020828403121561247e575f5ffd5b813561095c81612357565b5f5f6040838503121561249a575f5ffd5b8235915060208301356124ac81612357565b809150509250929050565b5f5f5f606084860312156124c9575f5ffd5b83359250602084013591506040840135600481106124e5575f5ffd5b809150509250925092565b5f5f60208385031215612501575f5ffd5b82356001600160401b03811115612516575f5ffd5b61252285828601612395565b90969095509350505050565b5f5f5f60608486031215612540575f5ffd5b83359250602084013561255281612357565b915060408401356124e581612357565b604080825283519082018190525f9060208501906060840190835b818110156125a45783516001600160a01b031683526020938401939092019160010161257d565b5050838103602080860191909152855180835291810192508501905f5b818110156125df5782518452602093840193909201916001016125c1565b50919695505050505050565b5f5f604083850312156125fc575f5ffd5b823561260781612357565b915060208301356124ac81612357565b600181811c9082168061262b57607f821691505b60208210810361264957634e487b7160e01b5f52602260045260245ffd5b50919050565b5f6020828403121561265f575f5ffd5b5051919050565b6001600160a01b039390931683526020830191909152604082015260600190565b5f60208284031215612697575f5ffd5b815161095c81612357565b6001600160a01b039384168152919092166020820152604081019190915260600190565b5f602082840312156126d6575f5ffd5b8151801515811461095c575f5ffd5b634e487b7160e01b5f52601160045260245ffd5b80820180821115610543576105436126e5565b634e487b7160e01b5f52603260045260245ffd5b5f60208284031215612730575f5ffd5b813563ffffffff8116811461095c575f5ffd5b60ff8181168382160190811115610543576105436126e5565b634e487b7160e01b5f52604160045260245ffd5b6001600160a01b03929092168252602082015260400190565b5f60208284031215612799575f5ffd5b815160ff8116811461095c575f5ffd5b6001815b60018411156127e4578085048111156127c8576127c86126e5565b60018416156127d657908102905b60019390931c9280026127ad565b935093915050565b5f826127fa57506001610543565b8161280657505f610543565b816001811461281c576002811461282657612842565b6001915050610543565b60ff841115612837576128376126e5565b50506001821b610543565b5060208310610133831016604e8410600b8410161715612865575081810a610543565b6128715f1984846127a9565b805f1904821115612884576128846126e5565b029392505050565b5f61095c60ff8416836127ec565b81810381811115610543576105436126e5565b634e487b7160e01b5f52601260045260245ffd5b634e487b7160e01b5f52602160045260245ffd5b5f60ff8316806128f357634e487b7160e01b5f52601260045260245ffd5b8060ff84160691505092915050565b634e487b7160e01b5f52603160045260245ffdfea264697066735822122039395b6c7c9e646f4249ac9a688e05f49d85b0ae4438f02e77c1b535c73886d164736f6c634300081c0033",
  "linkReferences": {},
  "deployedLinkReferences": {}
}