{
  "_format": "hh-sol-artifact-1",
  "contractName": "OrionTransparentVault",
  "sourceName": "contracts/vaults/OrionTransparentVault.sol",
  "abi": [
    {
      "inputs": [
        {
          "internalType": "address",
          "name": "vaultOwner",
          "type": "address"
        },
        {
          "internalType": "address",
          "name": "curator",
          "type": "address"
        },
        {
          "internalType": "contract IOrionConfig",
          "name": "configAddress",
          "type": "address"
        },
        {
          "internalType": "string",
          "name": "name",
          "type": "string"
        },
        {
          "internalType": "string",
          "name": "symbol",
          "type": "string"
        },
        {
          "internalType": "uint8",
          "name": "feeType",
          "type": "uint8"
        },
        {
          "internalType": "uint16",
          "name": "performanceFee",
          "type": "uint16"
        },
        {
          "internalType": "uint16",
          "name": "managementFee",
          "type": "uint16"
        }
      ],
      "stateMutability": "nonpayable",
      "type": "constructor"
    },
    {
      "inputs": [],
      "name": "AlreadyRegistered",
      "type": "error"
    },
    {
      "inputs": [
        {
          "internalType": "address",
          "name": "asset",
          "type": "address"
        }
      ],
      "name": "AmountMustBeGreaterThanZero",
      "type": "error"
    },
    {
      "inputs": [
        {
          "internalType": "address",
          "name": "spender",
          "type": "address"
        },
        {
          "internalType": "uint256",
          "name": "allowance",
          "type": "uint256"
        },
        {
          "internalType": "uint256",
          "name": "needed",
          "type": "uint256"
        }
      ],
      "name": "ERC20InsufficientAllowance",
      "type": "error"
    },
    {
      "inputs": [
        {
          "internalType": "address",
          "name": "sender",
          "type": "address"
        },
        {
          "internalType": "uint256",
          "name": "balance",
          "type": "uint256"
        },
        {
          "internalType": "uint256",
          "name": "needed",
          "type": "uint256"
        }
      ],
      "name": "ERC20InsufficientBalance",
      "type": "error"
    },
    {
      "inputs": [
        {
          "internalType": "address",
          "name": "approver",
          "type": "address"
        }
      ],
      "name": "ERC20InvalidApprover",
      "type": "error"
    },
    {
      "inputs": [
        {
          "internalType": "address",
          "name": "receiver",
          "type": "address"
        }
      ],
      "name": "ERC20InvalidReceiver",
      "type": "error"
    },
    {
      "inputs": [
        {
          "internalType": "address",
          "name": "sender",
          "type": "address"
        }
      ],
      "name": "ERC20InvalidSender",
      "type": "error"
    },
    {
      "inputs": [
        {
          "internalType": "address",
          "name": "spender",
          "type": "address"
        }
      ],
      "name": "ERC20InvalidSpender",
      "type": "error"
    },
    {
      "inputs": [
        {
          "internalType": "address",
          "name": "receiver",
          "type": "address"
        },
        {
          "internalType": "uint256",
          "name": "assets",
          "type": "uint256"
        },
        {
          "internalType": "uint256",
          "name": "max",
          "type": "uint256"
        }
      ],
      "name": "ERC4626ExceededMaxDeposit",
      "type": "error"
    },
    {
      "inputs": [
        {
          "internalType": "address",
          "name": "receiver",
          "type": "address"
        },
        {
          "internalType": "uint256",
          "name": "shares",
          "type": "uint256"
        },
        {
          "internalType": "uint256",
          "name": "max",
          "type": "uint256"
        }
      ],
      "name": "ERC4626ExceededMaxMint",
      "type": "error"
    },
    {
      "inputs": [
        {
          "internalType": "address",
          "name": "owner",
          "type": "address"
        },
        {
          "internalType": "uint256",
          "name": "shares",
          "type": "uint256"
        },
        {
          "internalType": "uint256",
          "name": "max",
          "type": "uint256"
        }
      ],
      "name": "ERC4626ExceededMaxRedeem",
      "type": "error"
    },
    {
      "inputs": [
        {
          "internalType": "address",
          "name": "owner",
          "type": "address"
        },
        {
          "internalType": "uint256",
          "name": "assets",
          "type": "uint256"
        },
        {
          "internalType": "uint256",
          "name": "max",
          "type": "uint256"
        }
      ],
      "name": "ERC4626ExceededMaxWithdraw",
      "type": "error"
    },
    {
      "inputs": [],
      "name": "InsufficientAmount",
      "type": "error"
    },
    {
      "inputs": [],
      "name": "InvalidAddress",
      "type": "error"
    },
    {
      "inputs": [],
      "name": "InvalidArguments",
      "type": "error"
    },
    {
      "inputs": [],
      "name": "InvalidCuratorContract",
      "type": "error"
    },
    {
      "inputs": [],
      "name": "InvalidStrategy",
      "type": "error"
    },
    {
      "inputs": [],
      "name": "InvalidTotalWeight",
      "type": "error"
    },
    {
      "inputs": [],
      "name": "InvalidUnderlyingDecimals",
      "type": "error"
    },
    {
      "inputs": [],
      "name": "NotAuthorized",
      "type": "error"
    },
    {
      "inputs": [],
      "name": "OrderIntentCannotBeEmpty",
      "type": "error"
    },
    {
      "inputs": [],
      "name": "ReentrancyGuardReentrantCall",
      "type": "error"
    },
    {
      "inputs": [],
      "name": "SynchronousCallDisabled",
      "type": "error"
    },
    {
      "inputs": [],
      "name": "SystemNotIdle",
      "type": "error"
    },
    {
      "inputs": [
        {
          "internalType": "address",
          "name": "token",
          "type": "address"
        }
      ],
      "name": "TokenAlreadyInOrder",
      "type": "error"
    },
    {
      "inputs": [
        {
          "internalType": "address",
          "name": "token",
          "type": "address"
        }
      ],
      "name": "TokenNotWhitelisted",
      "type": "error"
    },
    {
      "inputs": [],
      "name": "TransferFailed",
      "type": "error"
    },
    {
      "inputs": [],
      "name": "UnauthorizedAccess",
      "type": "error"
    },
    {
      "anonymous": false,
      "inputs": [
        {
          "indexed": true,
          "internalType": "address",
          "name": "owner",
          "type": "address"
        },
        {
          "indexed": true,
          "internalType": "address",
          "name": "spender",
          "type": "address"
        },
        {
          "indexed": false,
          "internalType": "uint256",
          "name": "value",
          "type": "uint256"
        }
      ],
      "name": "Approval",
      "type": "event"
    },
    {
      "anonymous": false,
      "inputs": [
        {
          "indexed": true,
          "internalType": "uint256",
          "name": "epoch",
          "type": "uint256"
        },
        {
          "indexed": true,
          "internalType": "uint256",
          "name": "feeAmount",
          "type": "uint256"
        },
        {
          "indexed": true,
          "internalType": "uint256",
          "name": "pendingCuratorFees",
          "type": "uint256"
        }
      ],
      "name": "CuratorFeesAccrued",
      "type": "event"
    },
    {
      "anonymous": false,
      "inputs": [
        {
          "indexed": true,
          "internalType": "address",
          "name": "newCurator",
          "type": "address"
        }
      ],
      "name": "CuratorUpdated",
      "type": "event"
    },
    {
      "anonymous": false,
      "inputs": [
        {
          "indexed": true,
          "internalType": "address",
          "name": "sender",
          "type": "address"
        },
        {
          "indexed": true,
          "internalType": "address",
          "name": "owner",
          "type": "address"
        },
        {
          "indexed": false,
          "internalType": "uint256",
          "name": "assets",
          "type": "uint256"
        },
        {
          "indexed": false,
          "internalType": "uint256",
          "name": "shares",
          "type": "uint256"
        }
      ],
      "name": "Deposit",
      "type": "event"
    },
    {
      "anonymous": false,
      "inputs": [
        {
          "indexed": true,
          "internalType": "address",
          "name": "vault",
          "type": "address"
        },
        {
          "indexed": true,
          "internalType": "address",
          "name": "user",
          "type": "address"
        },
        {
          "indexed": true,
          "internalType": "uint256",
          "name": "epoch",
          "type": "uint256"
        },
        {
          "indexed": false,
          "internalType": "uint256",
          "name": "depositAmount",
          "type": "uint256"
        },
        {
          "indexed": false,
          "internalType": "uint256",
          "name": "sharesMinted",
          "type": "uint256"
        }
      ],
      "name": "Deposit",
      "type": "event"
    },
    {
      "anonymous": false,
      "inputs": [
        {
          "indexed": true,
          "internalType": "address",
          "name": "sender",
          "type": "address"
        },
        {
          "indexed": true,
          "internalType": "uint256",
          "name": "assets",
          "type": "uint256"
        }
      ],
      "name": "DepositRequest",
      "type": "event"
    },
    {
      "anonymous": false,
      "inputs": [
        {
          "indexed": true,
          "internalType": "address",
          "name": "user",
          "type": "address"
        },
        {
          "indexed": true,
          "internalType": "uint256",
          "name": "amount",
          "type": "uint256"
        }
      ],
      "name": "DepositRequestCancelled",
      "type": "event"
    },
    {
      "anonymous": false,
      "inputs": [
        {
          "indexed": true,
          "internalType": "uint8",
          "name": "mode",
          "type": "uint8"
        },
        {
          "indexed": true,
          "internalType": "uint16",
          "name": "performanceFee",
          "type": "uint16"
        },
        {
          "indexed": true,
          "internalType": "uint16",
          "name": "managementFee",
          "type": "uint16"
        }
      ],
      "name": "FeeModelUpdated",
      "type": "event"
    },
    {
      "anonymous": false,
      "inputs": [
        {
          "indexed": true,
          "internalType": "address",
          "name": "curator",
          "type": "address"
        }
      ],
      "name": "OrderSubmitted",
      "type": "event"
    },
    {
      "anonymous": false,
      "inputs": [
        {
          "indexed": true,
          "internalType": "address",
          "name": "vault",
          "type": "address"
        },
        {
          "indexed": true,
          "internalType": "address",
          "name": "user",
          "type": "address"
        },
        {
          "indexed": true,
          "internalType": "uint256",
          "name": "epoch",
          "type": "uint256"
        },
        {
          "indexed": false,
          "internalType": "uint256",
          "name": "redeemAmount",
          "type": "uint256"
        },
        {
          "indexed": false,
          "internalType": "uint256",
          "name": "sharesBurned",
          "type": "uint256"
        }
      ],
      "name": "Redeem",
      "type": "event"
    },
    {
      "anonymous": false,
      "inputs": [
        {
          "indexed": true,
          "internalType": "address",
          "name": "sender",
          "type": "address"
        },
        {
          "indexed": true,
          "internalType": "uint256",
          "name": "shares",
          "type": "uint256"
        }
      ],
      "name": "RedeemRequest",
      "type": "event"
    },
    {
      "anonymous": false,
      "inputs": [
        {
          "indexed": true,
          "internalType": "address",
          "name": "user",
          "type": "address"
        },
        {
          "indexed": true,
          "internalType": "uint256",
          "name": "shares",
          "type": "uint256"
        }
      ],
      "name": "RedeemRequestCancelled",
      "type": "event"
    },
    {
      "anonymous": false,
      "inputs": [
        {
          "indexed": true,
          "internalType": "address",
          "name": "from",
          "type": "address"
        },
        {
          "indexed": true,
          "internalType": "address",
          "name": "to",
          "type": "address"
        },
        {
          "indexed": false,
          "internalType": "uint256",
          "name": "value",
          "type": "uint256"
        }
      ],
      "name": "Transfer",
      "type": "event"
    },
    {
      "anonymous": false,
      "inputs": [
        {
          "indexed": true,
          "internalType": "uint256",
          "name": "newTotalAssets",
          "type": "uint256"
        }
      ],
      "name": "VaultStateUpdated",
      "type": "event"
    },
    {
      "anonymous": false,
      "inputs": [
        {
          "indexed": false,
          "internalType": "address[]",
          "name": "assets",
          "type": "address[]"
        }
      ],
      "name": "VaultWhitelistUpdated",
      "type": "event"
    },
    {
      "anonymous": false,
      "inputs": [
        {
          "indexed": true,
          "internalType": "address",
          "name": "sender",
          "type": "address"
        },
        {
          "indexed": true,
          "internalType": "address",
          "name": "receiver",
          "type": "address"
        },
        {
          "indexed": true,
          "internalType": "address",
          "name": "owner",
          "type": "address"
        },
        {
          "indexed": false,
          "internalType": "uint256",
          "name": "assets",
          "type": "uint256"
        },
        {
          "indexed": false,
          "internalType": "uint256",
          "name": "shares",
          "type": "uint256"
        }
      ],
      "name": "Withdraw",
      "type": "event"
    },
    {
      "inputs": [],
      "name": "BASIS_POINTS_FACTOR",
      "outputs": [
        {
          "internalType": "uint16",
          "name": "",
          "type": "uint16"
        }
      ],
      "stateMutability": "view",
      "type": "function"
    },
    {
      "inputs": [],
      "name": "MAX_MANAGEMENT_FEE",
      "outputs": [
        {
          "internalType": "uint16",
          "name": "",
          "type": "uint16"
        }
      ],
      "stateMutability": "view",
      "type": "function"
    },
    {
      "inputs": [],
      "name": "MAX_PERFORMANCE_FEE",
      "outputs": [
        {
          "internalType": "uint16",
          "name": "",
          "type": "uint16"
        }
      ],
      "stateMutability": "view",
      "type": "function"
    },
    {
      "inputs": [],
      "name": "SHARE_DECIMALS",
      "outputs": [
        {
          "internalType": "uint8",
          "name": "",
          "type": "uint8"
        }
      ],
      "stateMutability": "view",
      "type": "function"
    },
    {
      "inputs": [],
      "name": "YEAR_IN_SECONDS",
      "outputs": [
        {
          "internalType": "uint32",
          "name": "",
          "type": "uint32"
        }
      ],
      "stateMutability": "view",
      "type": "function"
    },
    {
      "inputs": [
        {
          "internalType": "uint256",
          "name": "epoch",
          "type": "uint256"
        },
        {
          "internalType": "uint256",
          "name": "feeAmount",
          "type": "uint256"
        }
      ],
      "name": "accrueCuratorFees",
      "outputs": [],
      "stateMutability": "nonpayable",
      "type": "function"
    },
    {
      "inputs": [
        {
          "internalType": "address",
          "name": "owner",
          "type": "address"
        },
        {
          "internalType": "address",
          "name": "spender",
          "type": "address"
        }
      ],
      "name": "allowance",
      "outputs": [
        {
          "internalType": "uint256",
          "name": "",
          "type": "uint256"
        }
      ],
      "stateMutability": "view",
      "type": "function"
    },
    {
      "inputs": [
        {
          "internalType": "address",
          "name": "spender",
          "type": "address"
        },
        {
          "internalType": "uint256",
          "name": "value",
          "type": "uint256"
        }
      ],
      "name": "approve",
      "outputs": [
        {
          "internalType": "bool",
          "name": "",
          "type": "bool"
        }
      ],
      "stateMutability": "nonpayable",
      "type": "function"
    },
    {
      "inputs": [],
      "name": "asset",
      "outputs": [
        {
          "internalType": "address",
          "name": "",
          "type": "address"
        }
      ],
      "stateMutability": "view",
      "type": "function"
    },
    {
      "inputs": [
        {
          "internalType": "address",
          "name": "account",
          "type": "address"
        }
      ],
      "name": "balanceOf",
      "outputs": [
        {
          "internalType": "uint256",
          "name": "",
          "type": "uint256"
        }
      ],
      "stateMutability": "view",
      "type": "function"
    },
    {
      "inputs": [
        {
          "internalType": "uint256",
          "name": "amount",
          "type": "uint256"
        }
      ],
      "name": "cancelDepositRequest",
      "outputs": [],
      "stateMutability": "nonpayable",
      "type": "function"
    },
    {
      "inputs": [
        {
          "internalType": "uint256",
          "name": "shares",
          "type": "uint256"
        }
      ],
      "name": "cancelRedeemRequest",
      "outputs": [],
      "stateMutability": "nonpayable",
      "type": "function"
    },
    {
      "inputs": [
        {
          "internalType": "uint256",
          "name": "amount",
          "type": "uint256"
        }
      ],
      "name": "claimCuratorFees",
      "outputs": [],
      "stateMutability": "nonpayable",
      "type": "function"
    },
    {
      "inputs": [],
      "name": "config",
      "outputs": [
        {
          "internalType": "contract IOrionConfig",
          "name": "",
          "type": "address"
        }
      ],
      "stateMutability": "view",
      "type": "function"
    },
    {
      "inputs": [
        {
          "internalType": "uint256",
          "name": "shares",
          "type": "uint256"
        }
      ],
      "name": "convertToAssets",
      "outputs": [
        {
          "internalType": "uint256",
          "name": "",
          "type": "uint256"
        }
      ],
      "stateMutability": "view",
      "type": "function"
    },
    {
      "inputs": [
        {
          "internalType": "uint256",
          "name": "shares",
          "type": "uint256"
        },
        {
          "internalType": "uint256",
          "name": "pointInTimeTotalAssets",
          "type": "uint256"
        },
        {
          "internalType": "enum Math.Rounding",
          "name": "rounding",
          "type": "uint8"
        }
      ],
      "name": "convertToAssetsWithPITTotalAssets",
      "outputs": [
        {
          "internalType": "uint256",
          "name": "",
          "type": "uint256"
        }
      ],
      "stateMutability": "view",
      "type": "function"
    },
    {
      "inputs": [
        {
          "internalType": "uint256",
          "name": "assets",
          "type": "uint256"
        }
      ],
      "name": "convertToShares",
      "outputs": [
        {
          "internalType": "uint256",
          "name": "",
          "type": "uint256"
        }
      ],
      "stateMutability": "view",
      "type": "function"
    },
    {
      "inputs": [
        {
          "internalType": "uint256",
          "name": "assets",
          "type": "uint256"
        },
        {
          "internalType": "uint256",
          "name": "pointInTimeTotalAssets",
          "type": "uint256"
        },
        {
          "internalType": "enum Math.Rounding",
          "name": "rounding",
          "type": "uint8"
        }
      ],
      "name": "convertToSharesWithPITTotalAssets",
      "outputs": [
        {
          "internalType": "uint256",
          "name": "",
          "type": "uint256"
        }
      ],
      "stateMutability": "view",
      "type": "function"
    },
    {
      "inputs": [],
      "name": "curator",
      "outputs": [
        {
          "internalType": "address",
          "name": "",
          "type": "address"
        }
      ],
      "stateMutability": "view",
      "type": "function"
    },
    {
      "inputs": [
        {
          "internalType": "uint256",
          "name": "activeTotalAssets",
          "type": "uint256"
        }
      ],
      "name": "curatorFee",
      "outputs": [
        {
          "internalType": "uint256",
          "name": "",
          "type": "uint256"
        }
      ],
      "stateMutability": "view",
      "type": "function"
    },
    {
      "inputs": [],
      "name": "curatorIntentDecimals",
      "outputs": [
        {
          "internalType": "uint8",
          "name": "",
          "type": "uint8"
        }
      ],
      "stateMutability": "view",
      "type": "function"
    },
    {
      "inputs": [],
      "name": "decimals",
      "outputs": [
        {
          "internalType": "uint8",
          "name": "",
          "type": "uint8"
        }
      ],
      "stateMutability": "view",
      "type": "function"
    },
    {
      "inputs": [
        {
          "internalType": "uint256",
          "name": "",
          "type": "uint256"
        },
        {
          "internalType": "address",
          "name": "",
          "type": "address"
        }
      ],
      "name": "deposit",
      "outputs": [
        {
          "internalType": "uint256",
          "name": "",
          "type": "uint256"
        }
      ],
      "stateMutability": "pure",
      "type": "function"
    },
    {
      "inputs": [],
      "name": "feeModel",
      "outputs": [
        {
          "internalType": "enum OrionVault.FeeType",
          "name": "feeType",
          "type": "uint8"
        },
        {
          "internalType": "uint16",
          "name": "performanceFee",
          "type": "uint16"
        },
        {
          "internalType": "uint16",
          "name": "managementFee",
          "type": "uint16"
        },
        {
          "internalType": "uint256",
          "name": "highWaterMark",
          "type": "uint256"
        }
      ],
      "stateMutability": "view",
      "type": "function"
    },
    {
      "inputs": [
        {
          "internalType": "uint256",
          "name": "depositTotalAssets",
          "type": "uint256"
        }
      ],
      "name": "fulfillDeposit",
      "outputs": [],
      "stateMutability": "nonpayable",
      "type": "function"
    },
    {
      "inputs": [
        {
          "internalType": "uint256",
          "name": "redeemTotalAssets",
          "type": "uint256"
        }
      ],
      "name": "fulfillRedeem",
      "outputs": [],
      "stateMutability": "nonpayable",
      "type": "function"
    },
    {
      "inputs": [],
      "name": "getIntent",
      "outputs": [
        {
          "internalType": "address[]",
          "name": "tokens",
          "type": "address[]"
        },
        {
          "internalType": "uint32[]",
          "name": "weights",
          "type": "uint32[]"
        }
      ],
      "stateMutability": "view",
      "type": "function"
    },
    {
      "inputs": [],
      "name": "getPortfolio",
      "outputs": [
        {
          "internalType": "address[]",
          "name": "tokens",
          "type": "address[]"
        },
        {
          "internalType": "uint256[]",
          "name": "sharesPerAsset",
          "type": "uint256[]"
        }
      ],
      "stateMutability": "view",
      "type": "function"
    },
    {
      "inputs": [],
      "name": "internalStatesOrchestrator",
      "outputs": [
        {
          "internalType": "contract IInternalStateOrchestrator",
          "name": "",
          "type": "address"
        }
      ],
      "stateMutability": "view",
      "type": "function"
    },
    {
      "inputs": [],
      "name": "isDecommissioning",
      "outputs": [
        {
          "internalType": "bool",
          "name": "",
          "type": "bool"
        }
      ],
      "stateMutability": "view",
      "type": "function"
    },
    {
      "inputs": [],
      "name": "isPassiveCurator",
      "outputs": [
        {
          "internalType": "bool",
          "name": "isPassive",
          "type": "bool"
        }
      ],
      "stateMutability": "view",
      "type": "function"
    },
    {
      "inputs": [],
      "name": "liquidityOrchestrator",
      "outputs": [
        {
          "internalType": "contract ILiquidityOrchestrator",
          "name": "",
          "type": "address"
        }
      ],
      "stateMutability": "view",
      "type": "function"
    },
    {
      "inputs": [
        {
          "internalType": "address",
          "name": "",
          "type": "address"
        }
      ],
      "name": "maxDeposit",
      "outputs": [
        {
          "internalType": "uint256",
          "name": "",
          "type": "uint256"
        }
      ],
      "stateMutability": "view",
      "type": "function"
    },
    {
      "inputs": [
        {
          "internalType": "address",
          "name": "",
          "type": "address"
        }
      ],
      "name": "maxMint",
      "outputs": [
        {
          "internalType": "uint256",
          "name": "",
          "type": "uint256"
        }
      ],
      "stateMutability": "view",
      "type": "function"
    },
    {
      "inputs": [
        {
          "internalType": "address",
          "name": "owner",
          "type": "address"
        }
      ],
      "name": "maxRedeem",
      "outputs": [
        {
          "internalType": "uint256",
          "name": "",
          "type": "uint256"
        }
      ],
      "stateMutability": "view",
      "type": "function"
    },
    {
      "inputs": [
        {
          "internalType": "address",
          "name": "owner",
          "type": "address"
        }
      ],
      "name": "maxWithdraw",
      "outputs": [
        {
          "internalType": "uint256",
          "name": "",
          "type": "uint256"
        }
      ],
      "stateMutability": "view",
      "type": "function"
    },
    {
      "inputs": [
        {
          "internalType": "uint256",
          "name": "",
          "type": "uint256"
        },
        {
          "internalType": "address",
          "name": "",
          "type": "address"
        }
      ],
      "name": "mint",
      "outputs": [
        {
          "internalType": "uint256",
          "name": "",
          "type": "uint256"
        }
      ],
      "stateMutability": "pure",
      "type": "function"
    },
    {
      "inputs": [],
      "name": "name",
      "outputs": [
        {
          "internalType": "string",
          "name": "",
          "type": "string"
        }
      ],
      "stateMutability": "view",
      "type": "function"
    },
    {
      "inputs": [],
      "name": "overrideIntentForDecommissioning",
      "outputs": [],
      "stateMutability": "nonpayable",
      "type": "function"
    },
    {
      "inputs": [],
      "name": "pendingCuratorFees",
      "outputs": [
        {
          "internalType": "uint256",
          "name": "",
          "type": "uint256"
        }
      ],
      "stateMutability": "view",
      "type": "function"
    },
    {
      "inputs": [],
      "name": "pendingDeposit",
      "outputs": [
        {
          "internalType": "uint256",
          "name": "",
          "type": "uint256"
        }
      ],
      "stateMutability": "view",
      "type": "function"
    },
    {
      "inputs": [],
      "name": "pendingRedeem",
      "outputs": [
        {
          "internalType": "uint256",
          "name": "",
          "type": "uint256"
        }
      ],
      "stateMutability": "view",
      "type": "function"
    },
    {
      "inputs": [
        {
          "internalType": "uint256",
          "name": "assets",
          "type": "uint256"
        }
      ],
      "name": "previewDeposit",
      "outputs": [
        {
          "internalType": "uint256",
          "name": "",
          "type": "uint256"
        }
      ],
      "stateMutability": "view",
      "type": "function"
    },
    {
      "inputs": [
        {
          "internalType": "uint256",
          "name": "shares",
          "type": "uint256"
        }
      ],
      "name": "previewMint",
      "outputs": [
        {
          "internalType": "uint256",
          "name": "",
          "type": "uint256"
        }
      ],
      "stateMutability": "view",
      "type": "function"
    },
    {
      "inputs": [
        {
          "internalType": "uint256",
          "name": "shares",
          "type": "uint256"
        }
      ],
      "name": "previewRedeem",
      "outputs": [
        {
          "internalType": "uint256",
          "name": "",
          "type": "uint256"
        }
      ],
      "stateMutability": "view",
      "type": "function"
    },
    {
      "inputs": [
        {
          "internalType": "uint256",
          "name": "assets",
          "type": "uint256"
        }
      ],
      "name": "previewWithdraw",
      "outputs": [
        {
          "internalType": "uint256",
          "name": "",
          "type": "uint256"
        }
      ],
      "stateMutability": "view",
      "type": "function"
    },
    {
      "inputs": [
        {
          "internalType": "uint256",
          "name": "shares",
          "type": "uint256"
        },
        {
          "internalType": "address",
          "name": "receiver",
          "type": "address"
        },
        {
          "internalType": "address",
          "name": "owner",
          "type": "address"
        }
      ],
      "name": "redeem",
      "outputs": [
        {
          "internalType": "uint256",
          "name": "",
          "type": "uint256"
        }
      ],
      "stateMutability": "nonpayable",
      "type": "function"
    },
    {
      "inputs": [
        {
          "internalType": "address",
          "name": "asset",
          "type": "address"
        }
      ],
      "name": "removeFromVaultWhitelist",
      "outputs": [],
      "stateMutability": "nonpayable",
      "type": "function"
    },
    {
      "inputs": [
        {
          "internalType": "uint256",
          "name": "assets",
          "type": "uint256"
        }
      ],
      "name": "requestDeposit",
      "outputs": [],
      "stateMutability": "nonpayable",
      "type": "function"
    },
    {
      "inputs": [
        {
          "internalType": "uint256",
          "name": "shares",
          "type": "uint256"
        }
      ],
      "name": "requestRedeem",
      "outputs": [],
      "stateMutability": "nonpayable",
      "type": "function"
    },
    {
      "inputs": [
        {
          "components": [
            {
              "internalType": "address",
              "name": "token",
              "type": "address"
            },
            {
              "internalType": "uint32",
              "name": "weight",
              "type": "uint32"
            }
          ],
          "internalType": "struct IOrionTransparentVault.IntentPosition[]",
          "name": "intent",
          "type": "tuple[]"
        }
      ],
      "name": "submitIntent",
      "outputs": [],
      "stateMutability": "nonpayable",
      "type": "function"
    },
    {
      "inputs": [],
      "name": "symbol",
      "outputs": [
        {
          "internalType": "string",
          "name": "",
          "type": "string"
        }
      ],
      "stateMutability": "view",
      "type": "function"
    },
    {
      "inputs": [],
      "name": "totalAssets",
      "outputs": [
        {
          "internalType": "uint256",
          "name": "",
          "type": "uint256"
        }
      ],
      "stateMutability": "view",
      "type": "function"
    },
    {
      "inputs": [],
      "name": "totalSupply",
      "outputs": [
        {
          "internalType": "uint256",
          "name": "",
          "type": "uint256"
        }
      ],
      "stateMutability": "view",
      "type": "function"
    },
    {
      "inputs": [
        {
          "internalType": "address",
          "name": "to",
          "type": "address"
        },
        {
          "internalType": "uint256",
          "name": "value",
          "type": "uint256"
        }
      ],
      "name": "transfer",
      "outputs": [
        {
          "internalType": "bool",
          "name": "",
          "type": "bool"
        }
      ],
      "stateMutability": "nonpayable",
      "type": "function"
    },
    {
      "inputs": [
        {
          "internalType": "address",
          "name": "from",
          "type": "address"
        },
        {
          "internalType": "address",
          "name": "to",
          "type": "address"
        },
        {
          "internalType": "uint256",
          "name": "value",
          "type": "uint256"
        }
      ],
      "name": "transferFrom",
      "outputs": [
        {
          "internalType": "bool",
          "name": "",
          "type": "bool"
        }
      ],
      "stateMutability": "nonpayable",
      "type": "function"
    },
    {
      "inputs": [
        {
          "internalType": "address",
          "name": "newCurator",
          "type": "address"
        }
      ],
      "name": "updateCurator",
      "outputs": [],
      "stateMutability": "nonpayable",
      "type": "function"
    },
    {
      "inputs": [
        {
          "internalType": "uint8",
          "name": "feeType",
          "type": "uint8"
        },
        {
          "internalType": "uint16",
          "name": "performanceFee",
          "type": "uint16"
        },
        {
          "internalType": "uint16",
          "name": "managementFee",
          "type": "uint16"
        }
      ],
      "name": "updateFeeModel",
      "outputs": [],
      "stateMutability": "nonpayable",
      "type": "function"
    },
    {
      "inputs": [
        {
          "components": [
            {
              "internalType": "address",
              "name": "token",
              "type": "address"
            },
            {
              "internalType": "uint256",
              "name": "shares",
              "type": "uint256"
            }
          ],
          "internalType": "struct IOrionTransparentVault.PortfolioPosition[]",
          "name": "portfolio",
          "type": "tuple[]"
        },
        {
          "internalType": "uint256",
          "name": "newTotalAssets",
          "type": "uint256"
        }
      ],
      "name": "updateVaultState",
      "outputs": [],
      "stateMutability": "nonpayable",
      "type": "function"
    },
    {
      "inputs": [
        {
          "internalType": "address[]",
          "name": "assets",
          "type": "address[]"
        }
      ],
      "name": "updateVaultWhitelist",
      "outputs": [],
      "stateMutability": "nonpayable",
      "type": "function"
    },
    {
      "inputs": [],
      "name": "vaultOwner",
      "outputs": [
        {
          "internalType": "address",
          "name": "",
          "type": "address"
        }
      ],
      "stateMutability": "view",
      "type": "function"
    },
    {
      "inputs": [],
      "name": "vaultWhitelist",
      "outputs": [
        {
          "internalType": "address[]",
          "name": "",
          "type": "address[]"
        }
      ],
      "stateMutability": "view",
      "type": "function"
    },
    {
      "inputs": [
        {
          "internalType": "uint256",
          "name": "",
          "type": "uint256"
        },
        {
          "internalType": "address",
          "name": "",
          "type": "address"
        },
        {
          "internalType": "address",
          "name": "",
          "type": "address"
        }
      ],
      "name": "withdraw",
      "outputs": [
        {
          "internalType": "uint256",
          "name": "",
          "type": "uint256"
        }
      ],
      "stateMutability": "pure",
      "type": "function"
    }
  ],
  "bytecode": "0x60c060405234801561000f575f5ffd5b5060405161528a38038061528a83398101604081905261002e916109ab565b8787878787878787856001600160a01b0316637158da7c6040518163ffffffff1660e01b8152600401602060405180830381865afa158015610072573d5f5f3e3d5ffd5b505050506040513d601f19601f820116820180604052508101906100969190610a7a565b858560036100a48382610b20565b5060046100b18282610b20565b5050505f5f6100c58361057660201b60201c565b91509150816100d55760126100d7565b805b60ff1660a05250506001600160a01b03908116608052600160055587166101115760405163e6c4247b60e01b815260040160405180910390fd5b6001600160a01b0386166101385760405163e6c4247b60e01b815260040160405180910390fd5b600680546001600160a01b03808b166001600160a01b031992831617909255600780548a841690831617905560088054928916929091168217905560408051630691d8b960e31b8152905163348ec5c8916004808201926020929091908290030181865afa1580156101ac573d5f5f3e3d5ffd5b505050506040513d601f19601f820116820180604052508101906101d09190610a7a565b60095f6101000a8154816001600160a01b0302191690836001600160a01b03160217905550856001600160a01b0316633a0dad8e6040518163ffffffff1660e01b8152600401602060405180830381865afa158015610231573d5f5f3e3d5ffd5b505050506040513d601f19601f820116820180604052508101906102559190610a7a565b600a5f6101000a8154816001600160a01b0302191690836001600160a01b03160217905550856001600160a01b031663d1717c7d6040518163ffffffff1660e01b8152600401602060405180830381865afa1580156102b6573d5f5f3e3d5ffd5b505050506040513d601f19601f820116820180604052508101906102da9190610bda565b600a60146101000a81548160ff021916908360ff1602179055505f600d819055505f6014819055505f6015819055505f866001600160a01b0316637158da7c6040518163ffffffff1660e01b8152600401602060405180830381865afa158015610346573d5f5f3e3d5ffd5b505050506040513d601f19601f8201168201806040525081019061036a9190610a7a565b6001600160a01b031663313ce5676040518163ffffffff1660e01b8152600401602060405180830381865afa1580156103a5573d5f5f3e3d5ffd5b505050506040513d601f19601f820116820180604052508101906103c99190610bda565b9050601260ff821611156103f057604051631c03248960e11b815260040160405180910390fd5b600460ff85161115610415576040516317dbc4cb60e21b815260040160405180910390fd5b610bb861ffff8416111561043c576040516317dbc4cb60e21b815260040160405180910390fd5b61012c61ffff83161115610463576040516317dbc4cb60e21b815260040160405180910390fd5b8360ff16600481111561047857610478610bf3565b6017805460ff1916600183600481111561049457610494610bf3565b02179055506017805461ffff84811663010000000264ffff00000019918716610100029190911664ffffffff0019909216919091171790556104d781600a610cfe565b6018556104e261064c565b50505050505050505061056960085f9054906101000a90046001600160a01b03166001600160a01b031663d86cd44e6040518163ffffffff1660e01b81526004015f60405180830381865afa15801561053d573d5f5f3e3d5ffd5b505050506040513d5f823e601f3d908101601f191682016040526105649190810190610d0c565b610721565b5050505050505050610e69565b60408051600481526024810182526020810180516001600160e01b031663313ce56760e01b17905290515f918291829182916001600160a01b038716916105bc91610dbe565b5f60405180830381855afa9150503d805f81146105f4576040519150601f19603f3d011682016040523d82523d5f602084013e6105f9565b606091505b509150915081801561060d57506020815110155b15610640575f818060200190518101906106279190610dd4565b905060ff811161063e576001969095509350505050565b505b505f9485945092505050565b60085460408051636c366a2760e11b815290515f926001600160a01b03169163d86cd44e91600480830192869291908290030181865afa158015610692573d5f5f3e3d5ffd5b505050506040513d5f823e601f3d908101601f191682016040526106b99190810190610d0c565b90505f5b815181101561071d575f6106f48383815181106106dc576106dc610deb565b6020026020010151600b61085960201b90919060201c565b90508061071457604051630ea075bf60e21b815260040160405180910390fd5b506001016106bd565b5050565b6007546001600160a01b03163b5f03610741576020805460ff1916905550565b6007546040516301ffc9a760e01b81526313ee8de160e11b60048201526001600160a01b03909116906301ffc9a790602401602060405180830381865afa9250505080156107ac575060408051601f3d908101601f191682019092526107a991810190610dff565b60015b6107c95760405163298febe360e01b815260040160405180910390fd5b801561083d576020805460ff1916600117905560075460405163c653526b60e01b81526001600160a01b039091169063c653526b9061080c908590600401610e1e565b5f604051808303815f87803b158015610823575f5ffd5b505af1158015610835573d5f5f3e3d5ffd5b505050505050565b60405163298febe360e01b815260040160405180910390fd5b50565b5f61086d836001600160a01b038416610876565b90505b92915050565b5f8181526001830160205260408120546108bb57508154600181810184555f848152602080822090930184905584548482528286019093526040902091909155610870565b505f610870565b6001600160a01b0381168114610856575f5ffd5b634e487b7160e01b5f52604160045260245ffd5b604051601f8201601f191681016001600160401b0381118282101715610912576109126108d6565b604052919050565b5f82601f830112610929575f5ffd5b81516001600160401b03811115610942576109426108d6565b610955601f8201601f19166020016108ea565b818152846020838601011115610969575f5ffd5b8160208501602083015e5f918101602001919091529392505050565b805160ff81168114610995575f5ffd5b919050565b805161ffff81168114610995575f5ffd5b5f5f5f5f5f5f5f5f610100898b0312156109c3575f5ffd5b88516109ce816108c2565b60208a01519098506109df816108c2565b60408a01519097506109f0816108c2565b60608a01519096506001600160401b03811115610a0b575f5ffd5b610a178b828c0161091a565b60808b015190965090506001600160401b03811115610a34575f5ffd5b610a408b828c0161091a565b945050610a4f60a08a01610985565b9250610a5d60c08a0161099a565b9150610a6b60e08a0161099a565b90509295985092959890939650565b5f60208284031215610a8a575f5ffd5b8151610a95816108c2565b9392505050565b600181811c90821680610ab057607f821691505b602082108103610ace57634e487b7160e01b5f52602260045260245ffd5b50919050565b601f821115610b1b57805f5260205f20601f840160051c81016020851015610af95750805b601f840160051c820191505b81811015610b18575f8155600101610b05565b50505b505050565b81516001600160401b03811115610b3957610b396108d6565b610b4d81610b478454610a9c565b84610ad4565b6020601f821160018114610b7f575f8315610b685750848201515b5f19600385901b1c1916600184901b178455610b18565b5f84815260208120601f198516915b82811015610bae5787850151825560209485019460019092019101610b8e565b5084821015610bcb57868401515f19600387901b60f8161c191681555b50505050600190811b01905550565b5f60208284031215610bea575f5ffd5b61086d82610985565b634e487b7160e01b5f52602160045260245ffd5b634e487b7160e01b5f52601160045260245ffd5b6001815b6001841115610c5657808504811115610c3a57610c3a610c07565b6001841615610c4857908102905b60019390931c928002610c1f565b935093915050565b5f82610c6c57506001610870565b81610c7857505f610870565b8160018114610c8e5760028114610c9857610cb4565b6001915050610870565b60ff841115610ca957610ca9610c07565b50506001821b610870565b5060208310610133831016604e8410600b8410161715610cd7575081810a610870565b610ce35f198484610c1b565b805f1904821115610cf657610cf6610c07565b029392505050565b5f61086d60ff841683610c5e565b5f60208284031215610d1c575f5ffd5b81516001600160401b03811115610d31575f5ffd5b8201601f81018413610d41575f5ffd5b80516001600160401b03811115610d5a57610d5a6108d6565b8060051b610d6a602082016108ea565b91825260208184018101929081019087841115610d85575f5ffd5b6020850194505b83851015610db35784519250610da1836108c2565b82825260209485019490910190610d8c565b979650505050505050565b5f82518060208501845e5f920191825250919050565b5f60208284031215610de4575f5ffd5b5051919050565b634e487b7160e01b5f52603260045260245ffd5b5f60208284031215610e0f575f5ffd5b81518015158114610a95575f5ffd5b602080825282518282018190525f918401906040840190835b81811015610e5e5783516001600160a01b0316835260209384019390920191600101610e37565b509095945050505050565b60805160a051614403610e875f395f50505f610ec401526144035ff3fe608060405234801561000f575f5ffd5b50600436106102e2575f3560e01c806394bf804d1161018c57806394bf804d146104a957806395d89b411461053157806397ee114414610539578063985ba4ae1461056f5780639908840c14610582578063a68a52671461058b578063a9059cbb1461059e578063aa2f892d146105b1578063acdb3d51146105c4578063b1bd7e2e146105cd578063b3d7f6b9146105e0578063b460af94146105f3578063b6eba65314610601578063ba08765214610617578063bdca91651461062a578063c0b568e114610633578063c3f0d30e14610646578063c63d75b614610455578063c6e6f59214610659578063ca78e8391461066c578063ce96cb7714610674578063d1717c7d14610687578063d3d034581461069b578063d853365f146106b1578063d905777e146106b9578063dd62ed3e146106cc578063e3352c4c146106df578063e51a85f6146106f2578063e5e9719314610705578063e66f53b714610718578063ef8b30f714610659578063f64c6f321461072b575f5ffd5b806301e1d114146102e657806303d44854146102fd57806306fdde031461031257806307a2d13a14610327578063095ea7b31461033a5780630a28a4771461035d5780630a605c6d146103705780630c6a62dd146103785780630d1e66671461038b5780630df571f71461039e57806318160ddd146103b157806318c21949146103b95780631f52692b146103cc57806323b872dd146103ec578063313ce567146103ff578063348ec5c81461041457806338d52e0f146104275780633a0dad8e1461042f5780633ab6d27c14610442578063402d267d14610455578063493a6e21146104695780634cdad506146103275780634e85b1351461047c57806353a0bfdf146104915780635de3dfdc1461049e5780636e553f65146104a957806370a08231146104bc5780637847ea53146104cf57806379502c55146104ef57806380ceebfe146105025780638f5c946514610515575b5f5ffd5b600d545b6040519081526020015b60405180910390f35b61031061030b3660046139b0565b610733565b005b61031a610911565b6040516102f49190613a1f565b6102ea610335366004613a54565b6109a1565b61034d610348366004613a7f565b6109b2565b60405190151581526020016102f4565b6102ea61036b366004613a54565b6109c9565b6015546102ea565b610310610386366004613aa9565b6109d5565b610310610399366004613a54565b610ae2565b6103106103ac366004613ac4565b610d53565b6002546102ea565b6103106103c7366004613a54565b610dce565b6006546103df906001600160a01b031681565b6040516102f49190613ae4565b61034d6103fa366004613af8565b610e9d565b60125b60405160ff90911681526020016102f4565b6009546103df906001600160a01b031681565b6103df610ec2565b600a546103df906001600160a01b031681565b610310610450366004613b53565b610ee6565b6102ea610463366004613aa9565b505f1990565b610310610477366004613a54565b6110b3565b6104846113fa565b6040516102f49190613bde565b60195461034d9060ff1681565b60205460ff1661034d565b6102ea6104b7366004613bf0565b61140b565b6102ea6104ca366004613aa9565b611425565b6104da6301e1338081565b60405163ffffffff90911681526020016102f4565b6008546103df906001600160a01b031681565b6102ea610510366004613c1e565b61143f565b61051e61271081565b60405161ffff90911681526020016102f4565b61031a61147f565b60175460185461055f9160ff81169161ffff610100830481169263010000009004169084565b6040516102f49493929190613c60565b61031061057d366004613cde565b61148e565b61051e61012c81565b6102ea610599366004613c1e565b61159b565b61034d6105ac366004613a7f565b6115ca565b6103106105bf366004613a54565b6115d7565b6102ea60165481565b6103106105db366004613d25565b6117b0565b6102ea6105ee366004613a54565b6119bc565b6102ea6104b7366004613d63565b6106096119c8565b6040516102f4929190613d97565b6102ea610625366004613d63565b611c9d565b61051e610bb881565b610310610641366004613a54565b611e87565b610310610654366004613a54565b61203f565b6102ea610667366004613a54565b612233565b61031061223e565b6102ea610682366004613aa9565b612278565b600a5461040290600160a01b900460ff1681565b6106a361228b565b6040516102f4929190613df5565b610402601281565b6102ea6106c7366004613aa9565b6123b5565b6102ea6106da366004613e41565b6123bf565b6103106106ed366004613aa9565b6123e9565b6102ea610700366004613a54565b6124fe565b610310610713366004613a54565b612537565b6007546103df906001600160a01b031681565b6014546102ea565b6006546001600160a01b0316331461075e57604051631a27eac360e11b815260040160405180910390fd5b610768600b61280f565b5f5b81811015610868575f83838381811061078557610785613e6d565b905060200201602081019061079a9190613aa9565b600854604051633af32abf60e01b81529192506001600160a01b031690633af32abf906107cb908490600401613ae4565b602060405180830381865afa1580156107e6573d5f5f3e3d5ffd5b505050506040513d601f19601f8201168201806040525081019061080a9190613e81565b610832578060405163751dff9760e11b81526004016108299190613ae4565b60405180910390fd5b5f61083e600b83612818565b90508061085e57604051630ea075bf60e21b815260040160405180910390fd5b505060010161076a565b5060205460ff16156108d45760075460405163c653526b60e01b81526001600160a01b039091169063c653526b906108a69085908590600401613ea0565b5f604051808303815f87803b1580156108bd575f5ffd5b505af11580156108cf573d5f5f3e3d5ffd5b505050505b7fa975983c7a4dcf80477a447433240de322f36428f1b3864e50d7a45e14c68b668282604051610905929190613ea0565b60405180910390a15050565b60606003805461092090613eec565b80601f016020809104026020016040519081016040528092919081815260200182805461094c90613eec565b80156109975780601f1061096e57610100808354040283529160200191610997565b820191905f5260205f20905b81548152906001019060200180831161097a57829003601f168201915b5050505050905090565b5f6109ac825f61282c565b92915050565b5f336109bf81858561286d565b5060019392505050565b5f6109ac82600161287f565b6006546001600160a01b03163314610a0057604051631a27eac360e11b815260040160405180910390fd5b6001600160a01b038116610a275760405163e6c4247b60e01b815260040160405180910390fd5b600780546001600160a01b0319166001600160a01b03831617905560408051634e85b13560e01b81529051610aac913091634e85b135916004808201925f929091908290030181865afa158015610a80573d5f5f3e3d5ffd5b505050506040513d5f823e601f3d908101601f19168201604052610aa79190810190613fb2565b6128b1565b6040516001600160a01b038216907f83293ffeebb677b167941693470018acf300605df266a35e9fdb66f24ff00fe0905f90a250565b610aea6129de565b60085f9054906101000a90046001600160a01b03166001600160a01b031663edcf9c1f6040518163ffffffff1660e01b8152600401602060405180830381865afa158015610b3a573d5f5f3e3d5ffd5b505050506040513d601f19601f82011682018060405250810190610b5e9190613e81565b610b7b576040516312aecd8160e01b815260040160405180910390fd5b805f03610ba457610b8a610ec2565b604051636b30633560e01b81526004016108299190613ae4565b5f610bad610ec2565b6001600160a01b03166370a08231336040518263ffffffff1660e01b8152600401610bd89190613ae4565b602060405180830381865afa158015610bf3573d5f5f3e3d5ffd5b505050506040513d601f19601f82011682018060405250810190610c179190614046565b905080821115610c3a57604051632ca2f52b60e11b815260040160405180910390fd5b5f610c43610ec2565b600a546040516323b872dd60e01b81526001600160a01b03928316926323b872dd92610c7992339290911690889060040161405d565b6020604051808303815f875af1158015610c95573d5f5f3e3d5ffd5b505050506040513d601f19601f82011682018060405250810190610cb99190613e81565b905080610cd9576040516312171d8360e31b815260040160405180910390fd5b5f610ce5600e33612a08565b9150610d00905033610cf78684614095565b600e9190612a2e565b508360145f828254610d129190614095565b9091555050604051849033907f55896b30a78fc55b78937f8014dde3f0035e9d37a4f6ac36841fb8b62f7e2b13905f90a3505050610d506001600555565b50565b6009546001600160a01b03163314610d7e57604051631a27eac360e11b815260040160405180910390fd5b8015610dca578060165f828254610d959190614095565b9091555050601654604051829084907f8b8789cf9157fe7b016901e4ed3a5d0971caa8b7c031da0b25638ccf65841b2a905f90a45b5050565b6006546001600160a01b03163314610df957604051631a27eac360e11b815260040160405180910390fd5b805f03610e0857610b8a610ec2565b601654811115610e2b57604051632ca2f52b60e11b815260040160405180910390fd5b8060165f828254610e3c91906140a8565b9091555050600a5460405163741fca4b60e01b8152600481018390526001600160a01b039091169063741fca4b906024015f604051808303815f87803b158015610e84575f5ffd5b505af1158015610e96573d5f5f3e3d5ffd5b5050505050565b5f33610eaa858285612a43565b610eb5858585612a94565b60019150505b9392505050565b7f000000000000000000000000000000000000000000000000000000000000000090565b6006546001600160a01b03163314610f1157604051631a27eac360e11b815260040160405180910390fd5b60085f9054906101000a90046001600160a01b03166001600160a01b031663edcf9c1f6040518163ffffffff1660e01b8152600401602060405180830381865afa158015610f61573d5f5f3e3d5ffd5b505050506040513d601f19601f82011682018060405250810190610f859190613e81565b610fa2576040516312aecd8160e01b815260040160405180910390fd5b600460ff84161115610fc7576040516317dbc4cb60e21b815260040160405180910390fd5b610bb861ffff83161115610fee576040516317dbc4cb60e21b815260040160405180910390fd5b61012c61ffff82161115611015576040516317dbc4cb60e21b815260040160405180910390fd5b8260ff16600481111561102a5761102a613c4c565b6017805460ff1916600183600481111561104657611046613c4c565b02179055506017805464ffffffff00191661010061ffff85811691820264ffff00000019169290921763010000009285169283021790925560405190919060ff8616907fd24f39e523bfa412fa391702710dc62e1c82d87a8e83228a37c42be1b4870f45905f90a4505050565b600a546001600160a01b031633146110de57604051631a27eac360e11b815260040160405180910390fd5b6110e66129de565b5f6110f16011612af1565b90508063ffffffff165f0361110657506113f0565b5f8163ffffffff166001600160401b0381111561112557611125613f24565b60405190808252806020026020018201604052801561114e578160200160208202803683370190505b5090505f8263ffffffff166001600160401b0381111561117057611170613f24565b604051908082528060200260200182016040528015611199578160200160208202803683370190505b5090505f5b8363ffffffff168163ffffffff161015611233575f806111c8601163ffffffff80861690612afb16565b9150915081858463ffffffff16815181106111e5576111e5613e6d565b60200260200101906001600160a01b031690816001600160a01b03168152505080848463ffffffff168151811061121e5761121e613e6d565b6020908102919091010152505060010161119e565b505f601581905560095460408051630a58ce2d60e11b815290516001600160a01b03909216916314b19c5a916004808201926020929091908290030181865afa158015611282573d5f5f3e3d5ffd5b505050506040513d601f19601f820116820180604052508101906112a691906140bb565b90505f5b8463ffffffff168163ffffffff1610156113ea575f848263ffffffff16815181106112d7576112d7613e6d565b602002602001015190505f848363ffffffff16815181106112fa576112fa613e6d565b60200260200101519050611318826011612b0990919063ffffffff16565b505f611325828a5f61159b565b90506113313083612b1d565b600a54604051634adfc2e760e01b81526001600160a01b0390911690634adfc2e79061136390869085906004016140d6565b5f604051808303815f87803b15801561137a575f5ffd5b505af115801561138c573d5f5f3e3d5ffd5b5050604080518481526020810186905261ffff891693506001600160a01b038716925030917f215abfcd108b85fbee47f26fda2de66f90f14fa5fcaf0201698ad8ac9323545f910160405180910390a45050508060010190506112aa565b50505050505b610d506001600555565b6060611406600b612b51565b905090565b5f60405163125ad87760e31b815260040160405180910390fd5b6001600160a01b03165f9081526020819052604090205490565b5f61147761144b612b5d565b61145690600a6141d2565b6002546114639190614095565b61146e856001614095565b86919085612bd9565b949350505050565b60606004805461092090613eec565b6009546001600160a01b031633146114b957604051631a27eac360e11b815260040160405180910390fd5b6114c3601a612c1b565b815f5b8161ffff168161ffff16101561153f5761153685858361ffff168181106114ef576114ef613e6d565b6115059260206040909202019081019150613aa9565b86868461ffff1681811061151b5761151b613e6d565b90506040020160200135601a612a2e9092919063ffffffff16565b506001016114c6565b505f61155260125b61033590600a6141d2565b6018549091508111156115655760188190555b600d83905560405183907f5e1ff954b5e5257e9ee5d4cb07059e8f5e69b1aaaf9911e5d8d90a6894de9c21905f90a25050505050565b5f6114776115aa846001614095565b6115b2612b5d565b6115bd90600a6141d2565b60025461146e9190614095565b5f336109bf818585612a94565b60085f9054906101000a90046001600160a01b03166001600160a01b031663edcf9c1f6040518163ffffffff1660e01b8152600401602060405180830381865afa158015611627573d5f5f3e3d5ffd5b505050506040513d601f19601f8201168201806040525081019061164b9190613e81565b611668576040516312aecd8160e01b815260040160405180910390fd5b805f0361168a5730604051636b30633560e01b81526004016108299190613ae4565b5f61169433611425565b9050808211156116b757604051632ca2f52b60e11b815260040160405180910390fd5b6040516323b872dd60e01b81525f9030906323b872dd906116e09033908490889060040161405d565b6020604051808303815f875af11580156116fc573d5f5f3e3d5ffd5b505050506040513d601f19601f820116820180604052508101906117209190613e81565b905080611740576040516312171d8360e31b815260040160405180910390fd5b5f61174c601133612a08565b915061176790503361175e8684614095565b60119190612a2e565b508360155f8282546117799190614095565b9091555050604051849033907f222dc200773fe9b45015bf792e8fee37d651e3590c215806a5042404b6d741d2905f90a350505050565b6007546001600160a01b031633146117db57604051631a27eac360e11b815260040160405180910390fd5b5f8190036117fc57604051631121aa8d60e01b815260040160405180910390fd5b611806601d612c1b565b5f816001600160401b0381111561181f5761181f613f24565b604051908082528060200260200182016040528015611848578160200160208202803683370190505b5090505f82815b8161ffff168161ffff161015611946575f86868361ffff1681811061187657611876613e6d565b61188c9260206040909202019081019150613aa9565b90505f87878461ffff168181106118a5576118a5613e6d565b90506040020160200160208101906118bd91906141f1565b905081868461ffff16815181106118d6576118d6613e6d565b6001600160a01b03909216602092830291909101909101525f611904601d8463ffffffff80861690612a2e16565b90508061192657826040516346bdabe160e01b81526004016108299190613ae4565b61193663ffffffff831687614095565b955050505080600101905061184f565b5061195083612c24565b600a60149054906101000a900460ff16600a61196c91906141d2565b821461198b57604051639006dd2760e01b815260040160405180910390fd5b60405133907f2d47a742b8d7df7c1fc5a9a631b206b364e6cb2722490759f63bb3ab14b132e0905f90a25050505050565b5f6109ac82600161282c565b601954606090819060ff1615611b4b5760408051600180825281830190925290602080830190803683375050604080516001808252818301909252929450905060208083019080368337505060085460408051631c56369f60e21b815290519394506001600160a01b0390911692637158da7c925060048083019260209291908290030181865afa158015611a5f573d5f5f3e3d5ffd5b505050506040513d601f19601f82011682018060405250810190611a83919061420c565b825f81518110611a9557611a95613e6d565b6001600160a01b039283166020918202929092018101919091526008546040805163d1717c7d60e01b81529051919093169263d1717c7d9260048083019391928290030181865afa158015611aec573d5f5f3e3d5ffd5b505050506040513d601f19601f82011682018060405250810190611b109190614227565b611b1b90600a6141d2565b815f81518110611b2d57611b2d613e6d565b602002602001019063ffffffff16908163ffffffff16815250509091565b60205460ff1615611b6657611b5e612c9c565b915091509091565b5f611b71601d612af1565b90508061ffff166001600160401b03811115611b8f57611b8f613f24565b604051908082528060200260200182016040528015611bb8578160200160208202803683370190505b5092508061ffff166001600160401b03811115611bd757611bd7613f24565b604051908082528060200260200182016040528015611c00578160200160208202803683370190505b5091505f5b8161ffff168161ffff161015611c97575f80611c26601d61ffff8516612afb565b9150915081868461ffff1681518110611c4157611c41613e6d565b60200260200101906001600160a01b031690816001600160a01b03168152505080858461ffff1681518110611c7857611c78613e6d565b63ffffffff909216602092830291909101909101525050600101611c05565b50509091565b5f611ca66129de565b60085460405163f764eb4560e01b81526001600160a01b039091169063f764eb4590611cd6903090600401613ae4565b602060405180830381865afa158015611cf1573d5f5f3e3d5ffd5b505050506040513d601f19601f82011682018060405250810190611d159190613e81565b611d325760405163125ad87760e31b815260040160405180910390fd5b5f611d3c836123b5565b905080851115611d6557828582604051632e52afbb60e21b815260040161082993929190614242565b845f03611d875730604051636b30633560e01b81526004016108299190613ae4565b336001600160a01b03841614611da257611da2833387612a43565b5f611dac866109a1565b905080600d5f828254611dbf91906140a8565b90915550611dcf90508487612b1d565b60408051828152602081018890526001600160a01b03808716929088169133917ffbde797d201c681b91056529119e0b02407c7bb96a4a2c75c01fc9667232c8db910160405180910390a4600a54604051627b8a6760e11b8152600481018390526001600160a01b0387811660248301529091169062f714ce906044015f604051808303815f87803b158015611e63575f5ffd5b505af1158015611e75573d5f5f3e3d5ffd5b5092945050505050610ebb6001600555565b611e8f6129de565b60085f9054906101000a90046001600160a01b03166001600160a01b031663edcf9c1f6040518163ffffffff1660e01b8152600401602060405180830381865afa158015611edf573d5f5f3e3d5ffd5b505050506040513d601f19601f82011682018060405250810190611f039190613e81565b611f20576040516312aecd8160e01b815260040160405180910390fd5b805f03611f2f57610b8a610ec2565b5f611f3b600e33612a08565b91505081811015611f5f57604051632ca2f52b60e11b815260040160405180910390fd5b5f611f6a83836140a8565b9050805f03611f8457611f7e600e33612b09565b50611f92565b611f90600e3383612a2e565b505b8260145f828254611fa391906140a8565b9091555050600a546040516351edffb160e01b81526001600160a01b03909116906351edffb190611fda90339087906004016140d6565b5f604051808303815f87803b158015611ff1575f5ffd5b505af1158015612003573d5f5f3e3d5ffd5b50506040518592503391507f96a9a6886cdf3047a125454218a23d3961fd3a78643123b248a9d106d0ac94fd905f90a35050610d506001600555565b6120476129de565b60085f9054906101000a90046001600160a01b03166001600160a01b031663edcf9c1f6040518163ffffffff1660e01b8152600401602060405180830381865afa158015612097573d5f5f3e3d5ffd5b505050506040513d601f19601f820116820180604052508101906120bb9190613e81565b6120d8576040516312aecd8160e01b815260040160405180910390fd5b805f036120fa5730604051636b30633560e01b81526004016108299190613ae4565b5f612106601133612a08565b9150508181101561212a57604051632ca2f52b60e11b815260040160405180910390fd5b5f61213583836140a8565b9050805f0361214f57612149601133612b09565b5061215d565b61215b60113383612a2e565b505b8260155f82825461216e91906140a8565b909155505060405163a9059cbb60e01b81525f90309063a9059cbb9061219a90339088906004016140d6565b6020604051808303815f875af11580156121b6573d5f5f3e3d5ffd5b505050506040513d601f19601f820116820180604052508101906121da9190613e81565b9050806121fa576040516312171d8360e31b815260040160405180910390fd5b604051849033907f046d3e17087d323298991516e3fdec36fe1204d6bff7fb6e2b8eca77b80a22ad905f90a3505050610d506001600555565b5f6109ac825f61287f565b6008546001600160a01b031633146122695760405163ea8e4eb560e01b815260040160405180910390fd5b6019805460ff19166001179055565b5f6109ac61228583611425565b5f61282c565b6060805f612299601a612af1565b90508061ffff166001600160401b038111156122b7576122b7613f24565b6040519080825280602002602001820160405280156122e0578160200160208202803683370190505b5092508061ffff166001600160401b038111156122ff576122ff613f24565b604051908082528060200260200182016040528015612328578160200160208202803683370190505b5091505f5b8161ffff168161ffff161015611c97575f8061234e601a61ffff8516612afb565b9150915081868461ffff168151811061236957612369613e6d565b60200260200101906001600160a01b031690816001600160a01b03168152505080858461ffff16815181106123a0576123a0613e6d565b6020908102919091010152505060010161232d565b5f6109ac82611425565b6001600160a01b039182165f90815260016020908152604080832093909416825291909152205490565b6008546001600160a01b031633146124145760405163ea8e4eb560e01b815260040160405180910390fd5b61241f600b82612f9f565b5060205460ff16610d50575f80612437601d84612a08565b915091508161244557505050565b612450601d84612b09565b505f306001600160a01b03166338d52e0f6040518163ffffffff1660e01b8152600401602060405180830381865afa15801561248e573d5f5f3e3d5ffd5b505050506040513d601f19601f820116820180604052508101906124b2919061420c565b90505f806124c1601d84612a08565b9150915081156124e8576124e2836124d98684614095565b601d9190612a2e565b506124f6565b6124f4601d8486612a2e565b505b505050505050565b5f5f61250983612fb3565b90505f61251682856140a8565b90505f6125228261307d565b905061252e8184614095565b95945050505050565b600a546001600160a01b0316331461256257604051631a27eac360e11b815260040160405180910390fd5b61256a6129de565b5f612575600e612af1565b90508063ffffffff165f0361258a57506113f0565b5f8163ffffffff166001600160401b038111156125a9576125a9613f24565b6040519080825280602002602001820160405280156125d2578160200160208202803683370190505b5090505f8263ffffffff166001600160401b038111156125f4576125f4613f24565b60405190808252806020026020018201604052801561261d578160200160208202803683370190505b5090505f5b8363ffffffff168163ffffffff1610156126b7575f8061264c600e63ffffffff80861690612afb16565b9150915081858463ffffffff168151811061266957612669613e6d565b60200260200101906001600160a01b031690816001600160a01b03168152505080848463ffffffff16815181106126a2576126a2613e6d565b60209081029190910101525050600101612622565b505f601481905560095460408051630a58ce2d60e11b815290516001600160a01b03909216916314b19c5a916004808201926020929091908290030181865afa158015612706573d5f5f3e3d5ffd5b505050506040513d601f19601f8201168201806040525081019061272a91906140bb565b90505f5b8463ffffffff168163ffffffff1610156113ea575f848263ffffffff168151811061275b5761275b613e6d565b602002602001015190505f848363ffffffff168151811061277e5761277e613e6d565b6020026020010151905061279c82600e612b0990919063ffffffff16565b505f6127a9828a5f61143f565b90506127b58382613116565b604080518381526020810183905261ffff8716916001600160a01b0386169130917f4e2ca0515ed1aef1395f66b5303bb5d6f1bf9d61a353fa53f73f8ac9973fa9f6910160405180910390a450505080600101905061272e565b610d508161314a565b5f610ebb836001600160a01b0384166131a3565b5f610ebb612839600d5490565b612844906001614095565b61284c612b5d565b61285790600a6141d2565b6002546128649190614095565b85919085612bd9565b61287a83838360016131ea565b505050565b5f610ebb61288b612b5d565b61289690600a6141d2565b6002546128a39190614095565b600d54612864906001614095565b6007546001600160a01b03163b5f036128d1576020805460ff1916905550565b6007546040516301ffc9a760e01b81526313ee8de160e11b60048201526001600160a01b03909116906301ffc9a790602401602060405180830381865afa92505050801561293c575060408051601f3d908101601f1916820190925261293991810190613e81565b60015b6129595760405163298febe360e01b815260040160405180910390fd5b80156129c5576020805460ff1916600117905560075460405163c653526b60e01b81526001600160a01b039091169063c653526b9061299c908590600401613bde565b5f604051808303815f87803b1580156129b3575f5ffd5b505af11580156124f6573d5f5f3e3d5ffd5b60405163298febe360e01b815260040160405180910390fd5b600260055403612a0157604051633ee5aeb560e01b815260040160405180910390fd5b6002600555565b5f808080612a1f866001600160a01b0387166132bc565b909450925050505b9250929050565b5f611477846001600160a01b038516846132f4565b5f612a4e84846123bf565b90505f19811015612a8e5781811015612a8057828183604051637dc7a0d960e11b815260040161082993929190614242565b612a8e84848484035f6131ea565b50505050565b6001600160a01b038316612abd575f604051634b637e8f60e11b81526004016108299190613ae4565b6001600160a01b038216612ae6575f60405163ec442f0560e01b81526004016108299190613ae4565b61287a838383613310565b5f6109ac82613423565b5f808080612a1f868661342d565b5f610ebb836001600160a01b038416613456565b6001600160a01b038216612b46575f604051634b637e8f60e11b81526004016108299190613ae4565b610dca825f83613310565b60605f610ebb83613472565b5f5f612b67610ec2565b6001600160a01b031663313ce5676040518163ffffffff1660e01b8152600401602060405180830381865afa158015612ba2573d5f5f3e3d5ffd5b505050506040513d601f19601f82011682018060405250810190612bc69190614227565b9050612bd3816012614263565b91505090565b5f612c06612be6836134cb565b8015612c0157505f8480612bfc57612bfc61427c565b868809115b151590565b612c118686866134f7565b61252e9190614095565b610d50816135a7565b5f5b8151811015610dca57612c5c828281518110612c4457612c44613e6d565b6020026020010151600b6135f090919063ffffffff16565b612c9457818181518110612c7257612c72613e6d565b602002602001015160405163751dff9760e11b81526004016108299190613ae4565b600101612c26565b6060805f306001600160a01b0316634e85b1356040518163ffffffff1660e01b81526004015f60405180830381865afa158015612cdb573d5f5f3e3d5ffd5b505050506040513d5f823e601f3d908101601f19168201604052612d029190810190613fb2565b604080515f808252602082019092529192509081612d41565b604080518082019091525f8082526020820152815260200190600190039081612d1b5790505b5060075460405163701a818560e01b81529192506001600160a01b03169063701a818590612d73908590600401613bde565b5f60405180830381865afa925050508015612daf57506040513d5f823e601f3d908101601f19168201604052612dac9190810190614290565b60015b612e485760075f9054906101000a90046001600160a01b03166001600160a01b0316639194c82c6040518163ffffffff1660e01b81526004015f60405180830381865afa925050508015612e2457506040513d5f823e601f3d908101601f19168201604052612e219190810190614290565b60015b612e4157604051632711b74d60e11b815260040160405180910390fd5b9050612e4b565b90505b80516001600160401b03811115612e6457612e64613f24565b604051908082528060200260200182016040528015612e8d578160200160208202803683370190505b50935080516001600160401b03811115612ea957612ea9613f24565b604051908082528060200260200182016040528015612ed2578160200160208202803683370190505b5092505f5b81518161ffff161015612f9857818161ffff1681518110612efa57612efa613e6d565b60200260200101515f0151858261ffff1681518110612f1b57612f1b613e6d565b60200260200101906001600160a01b031690816001600160a01b031681525050818161ffff1681518110612f5157612f51613e6d565b602002602001015160200151848261ffff1681518110612f7357612f73613e6d565b63ffffffff90921660209283029190910190910152612f9181614351565b9050612ed7565b5050509091565b5f610ebb836001600160a01b038416613604565b6017545f906301000000900461ffff168103612fd057505f919050565b6017545f90612fed906301000000900461ffff16846127106134f7565b9050610ebb60095f9054906101000a90046001600160a01b03166001600160a01b0316634ff0876a6040518163ffffffff1660e01b8152600401602060405180830381865afa158015613042573d5f5f3e3d5ffd5b505050506040513d601f19601f820116820180604052508101906130669190614371565b829063ffffffff908116906301e13380906134f716565b6017545f90610100900461ffff16810361309857505f919050565b5f6130af6130a86012600a6141d2565b845f61159b565b6017549091505f9081906130c59060ff166136e7565b91509150818310806130d5575080155b156130e457505f949350505050565b6017545f906130fd90610100900461ffff1685846134f7565b905061310c81876127106134f7565b9695505050505050565b6001600160a01b03821661313f575f60405163ec442f0560e01b81526004016108299190613ae4565b610dca5f8383613310565b5f613153825490565b90505f5b8181101561319c57826001015f845f01838154811061317857613178613e6d565b905f5260205f20015481526020019081526020015f205f9055806001019050613157565b50505f9055565b5f6131ae83836137d1565b6131e357508154600181810184555f8481526020808220909301849055845484825282860190935260409020919091556109ac565b505f6109ac565b6001600160a01b038416613213575f60405163e602df0560e01b81526004016108299190613ae4565b6001600160a01b03831661323c575f604051634a1406b160e11b81526004016108299190613ae4565b6001600160a01b038085165f9081526001602090815260408083209387168352929052208290558015612a8e57826001600160a01b0316846001600160a01b03167f8c5be1e5ebec7d5bd14f71427d1e84f3dd0314c0f7b2291e5b200ac8c7c3b925846040516132ae91815260200190565b60405180910390a350505050565b5f8181526002830160205260408120548190806132e9576132dd85856137e8565b92505f9150612a279050565b600192509050612a27565b5f828152600284016020526040812082905561147784846137f3565b6001600160a01b03831661333a578060025f82825461332f9190614095565b909155506133979050565b6001600160a01b0383165f90815260208190526040902054818110156133795783818360405163391434e360e21b815260040161082993929190614242565b6001600160a01b0384165f9081526020819052604090209082900390555b6001600160a01b0382166133b3576002805482900390556133d1565b6001600160a01b0382165f9081526020819052604090208054820190555b816001600160a01b0316836001600160a01b03167fddf252ad1be2c89b69c2b068fc378daa952ba7f163c4a11628f55a4df523b3ef8360405161341691815260200190565b60405180910390a3505050565b5f6109ac826137fe565b5f808061343a8585613807565b5f81815260029690960160205260409095205494959350505050565b5f8181526002830160205260408120819055610ebb8383613812565b6060815f018054806020026020016040519081016040528092919081815260200182805480156134bf57602002820191905f5260205f20905b8154815260200190600101908083116134ab575b50505050509050919050565b5f60028260038111156134e0576134e0613c4c565b6134ea919061438c565b60ff166001149050919050565b5f5f5f613504868661381d565b91509150815f036135285783818161351e5761351e61427c565b0492505050610ebb565b81841161353f5761353f6003851502601118613839565b5f848688095f868103871696879004966002600389028118808a02820302808a02820302808a02820302808a02820302808a02820302808a02909103029181900381900460010185841190960395909502919093039390930492909217029150509392505050565b5f6135b182613423565b90505f5b818110156135e657600283015f6135cc8584613807565b815260208101919091526040015f908120556001016135b5565b50610dca8261280f565b5f610ebb836001600160a01b0384166137d1565b5f81815260018301602052604081205480156136de575f6136266001836140a8565b85549091505f90613639906001906140a8565b9050808214613698575f865f01828154811061365757613657613e6d565b905f5260205f200154905080875f01848154811061367757613677613e6d565b5f918252602080832090910192909255918252600188019052604090208390555b85548690806136a9576136a96143b9565b600190038181905f5260205f20015f90559055856001015f8681526020019081526020015f205f9055600193505050506109ac565b5f9150506109ac565b5f80806136f46012611547565b90505f84600481111561370957613709613c4c565b03613719578092508291506137cb565b600384600481111561372d5761372d613c4c565b0361373f5760185492508291506137cb565b600184600481111561375357613753613c4c565b0361376b576137618161384a565b92508091506137cb565b600284600481111561377f5761377f613c4c565b036137975761378d8161384a565b92508291506137cb565b60048460048111156137ab576137ab613c4c565b036137cb576018546137c5906137c08361384a565b613970565b92508291505b50915091565b5f9081526001919091016020526040902054151590565b5f610ebb838361397f565b5f610ebb83836131a3565b5f6109ac825490565b5f610ebb838361398a565b5f610ebb8383613604565b5f805f1983850993909202808410938190039390930393915050565b634e487b715f52806020526024601cfd5b5f5f60085f9054906101000a90046001600160a01b03166001600160a01b031663f3cc69936040518163ffffffff1660e01b8152600401602060405180830381865afa15801561389c573d5f5f3e3d5ffd5b505050506040513d601f19601f820116820180604052508101906138c091906140bb565b61ffff1690505f61395560095f9054906101000a90046001600160a01b03166001600160a01b0316634ff0876a6040518163ffffffff1660e01b8152600401602060405180830381865afa15801561391a573d5f5f3e3d5ffd5b505050506040513d601f19601f8201168201806040525081019061393e9190614371565b839063ffffffff908116906301e13380906134f716565b905061147761396682612710614095565b85906127106134f7565b5f828218828411028218610ebb565b5f610ebb83836137d1565b5f825f01828154811061399f5761399f613e6d565b905f5260205f200154905092915050565b5f5f602083850312156139c1575f5ffd5b82356001600160401b038111156139d6575f5ffd5b8301601f810185136139e6575f5ffd5b80356001600160401b038111156139fb575f5ffd5b8560208260051b8401011115613a0f575f5ffd5b6020919091019590945092505050565b602081525f82518060208401528060208501604085015e5f604082850101526040601f19601f83011684010191505092915050565b5f60208284031215613a64575f5ffd5b5035919050565b6001600160a01b0381168114610d50575f5ffd5b5f5f60408385031215613a90575f5ffd5b8235613a9b81613a6b565b946020939093013593505050565b5f60208284031215613ab9575f5ffd5b8135610ebb81613a6b565b5f5f60408385031215613ad5575f5ffd5b50508035926020909101359150565b6001600160a01b0391909116815260200190565b5f5f5f60608486031215613b0a575f5ffd5b8335613b1581613a6b565b92506020840135613b2581613a6b565b929592945050506040919091013590565b60ff81168114610d50575f5ffd5b61ffff81168114610d50575f5ffd5b5f5f5f60608486031215613b65575f5ffd5b8335613b7081613b36565b92506020840135613b8081613b44565b91506040840135613b9081613b44565b809150509250925092565b5f8151808452602084019350602083015f5b82811015613bd45781516001600160a01b0316865260209586019590910190600101613bad565b5093949350505050565b602081525f610ebb6020830184613b9b565b5f5f60408385031215613c01575f5ffd5b823591506020830135613c1381613a6b565b809150509250929050565b5f5f5f60608486031215613c30575f5ffd5b8335925060208401359150604084013560048110613b90575f5ffd5b634e487b7160e01b5f52602160045260245ffd5b6080810160058610613c8057634e487b7160e01b5f52602160045260245ffd5b94815261ffff93841660208201529190921660408201526060015290565b5f5f83601f840112613cae575f5ffd5b5081356001600160401b03811115613cc4575f5ffd5b6020830191508360208260061b8501011115612a27575f5ffd5b5f5f5f60408486031215613cf0575f5ffd5b83356001600160401b03811115613d05575f5ffd5b613d1186828701613c9e565b909790965060209590950135949350505050565b5f5f60208385031215613d36575f5ffd5b82356001600160401b03811115613d4b575f5ffd5b613d5785828601613c9e565b90969095509350505050565b5f5f5f60608486031215613d75575f5ffd5b833592506020840135613d8781613a6b565b91506040840135613b9081613a6b565b604081525f613da96040830185613b9b565b82810360208401528084518083526020830191506020860192505f5b81811015613de957835163ffffffff16835260209384019390920191600101613dc5565b50909695505050505050565b604081525f613e076040830185613b9b565b82810360208401528084518083526020830191506020860192505f5b81811015613de9578351835260209384019390920191600101613e23565b5f5f60408385031215613e52575f5ffd5b8235613e5d81613a6b565b91506020830135613c1381613a6b565b634e487b7160e01b5f52603260045260245ffd5b5f60208284031215613e91575f5ffd5b81518015158114610ebb575f5ffd5b602080825281018290525f8360408301825b85811015613ee2578235613ec581613a6b565b6001600160a01b0316825260209283019290910190600101613eb2565b5095945050505050565b600181811c90821680613f0057607f821691505b602082108103613f1e57634e487b7160e01b5f52602260045260245ffd5b50919050565b634e487b7160e01b5f52604160045260245ffd5b604080519081016001600160401b0381118282101715613f5a57613f5a613f24565b60405290565b604051601f8201601f191681016001600160401b0381118282101715613f8857613f88613f24565b604052919050565b5f6001600160401b03821115613fa857613fa8613f24565b5060051b60200190565b5f60208284031215613fc2575f5ffd5b81516001600160401b03811115613fd7575f5ffd5b8201601f81018413613fe7575f5ffd5b8051613ffa613ff582613f90565b613f60565b8082825260208201915060208360051b85010192508683111561401b575f5ffd5b6020840193505b8284101561310c57835161403581613a6b565b825260209384019390910190614022565b5f60208284031215614056575f5ffd5b5051919050565b6001600160a01b039384168152919092166020820152604081019190915260600190565b634e487b7160e01b5f52601160045260245ffd5b808201808211156109ac576109ac614081565b818103818111156109ac576109ac614081565b5f602082840312156140cb575f5ffd5b8151610ebb81613b44565b6001600160a01b03929092168252602082015260400190565b6001815b600184111561412a5780850481111561410e5761410e614081565b600184161561411c57908102905b60019390931c9280026140f3565b935093915050565b5f82614140575060016109ac565b8161414c57505f6109ac565b8160018114614162576002811461416c57614188565b60019150506109ac565b60ff84111561417d5761417d614081565b50506001821b6109ac565b5060208310610133831016604e8410600b84101617156141ab575081810a6109ac565b6141b75f1984846140ef565b805f19048211156141ca576141ca614081565b029392505050565b5f610ebb60ff841683614132565b63ffffffff81168114610d50575f5ffd5b5f60208284031215614201575f5ffd5b8135610ebb816141e0565b5f6020828403121561421c575f5ffd5b8151610ebb81613a6b565b5f60208284031215614237575f5ffd5b8151610ebb81613b36565b6001600160a01b039390931683526020830191909152604082015260600190565b60ff82811682821603908111156109ac576109ac614081565b634e487b7160e01b5f52601260045260245ffd5b5f602082840312156142a0575f5ffd5b81516001600160401b038111156142b5575f5ffd5b8201601f810184136142c5575f5ffd5b80516142d3613ff582613f90565b8082825260208201915060208360061b8501019250868311156142f4575f5ffd5b6020840193505b8284101561310c5760408488031215614312575f5ffd5b61431a613f38565b845161432581613a6b565b81526020850151614335816141e0565b80602083015250808352506020820191506040840193506142fb565b5f61ffff821661ffff810361436857614368614081565b60010192915050565b5f60208284031215614381575f5ffd5b8151610ebb816141e0565b5f60ff8316806143aa57634e487b7160e01b5f52601260045260245ffd5b8060ff84160691505092915050565b634e487b7160e01b5f52603160045260245ffdfea2646970667358221220770f90133554edddc1bc516c9e5b17dca6afeaf3a38048253ae70baa59b2428064736f6c634300081c0033",
  "linkReferences": {},
  "deployedLinkReferences": {}
}