{
  "_format": "hh-sol-artifact-1",
  "contractName": "OrionTransparentVault",
  "sourceName": "contracts/vaults/OrionTransparentVault.sol",
  "abi": [
    {
      "inputs": [
        {
          "internalType": "address",
          "name": "vaultOwner",
          "type": "address"
        },
        {
          "internalType": "address",
          "name": "curator",
          "type": "address"
        },
        {
          "internalType": "contract IOrionConfig",
          "name": "configAddress",
          "type": "address"
        },
        {
          "internalType": "string",
          "name": "name",
          "type": "string"
        },
        {
          "internalType": "string",
          "name": "symbol",
          "type": "string"
        },
        {
          "internalType": "uint8",
          "name": "feeType",
          "type": "uint8"
        },
        {
          "internalType": "uint16",
          "name": "performanceFee",
          "type": "uint16"
        },
        {
          "internalType": "uint16",
          "name": "managementFee",
          "type": "uint16"
        }
      ],
      "stateMutability": "nonpayable",
      "type": "constructor"
    },
    {
      "inputs": [],
      "name": "AlreadyRegistered",
      "type": "error"
    },
    {
      "inputs": [
        {
          "internalType": "address",
          "name": "asset",
          "type": "address"
        }
      ],
      "name": "AmountMustBeGreaterThanZero",
      "type": "error"
    },
    {
      "inputs": [
        {
          "internalType": "address",
          "name": "spender",
          "type": "address"
        },
        {
          "internalType": "uint256",
          "name": "allowance",
          "type": "uint256"
        },
        {
          "internalType": "uint256",
          "name": "needed",
          "type": "uint256"
        }
      ],
      "name": "ERC20InsufficientAllowance",
      "type": "error"
    },
    {
      "inputs": [
        {
          "internalType": "address",
          "name": "sender",
          "type": "address"
        },
        {
          "internalType": "uint256",
          "name": "balance",
          "type": "uint256"
        },
        {
          "internalType": "uint256",
          "name": "needed",
          "type": "uint256"
        }
      ],
      "name": "ERC20InsufficientBalance",
      "type": "error"
    },
    {
      "inputs": [
        {
          "internalType": "address",
          "name": "approver",
          "type": "address"
        }
      ],
      "name": "ERC20InvalidApprover",
      "type": "error"
    },
    {
      "inputs": [
        {
          "internalType": "address",
          "name": "receiver",
          "type": "address"
        }
      ],
      "name": "ERC20InvalidReceiver",
      "type": "error"
    },
    {
      "inputs": [
        {
          "internalType": "address",
          "name": "sender",
          "type": "address"
        }
      ],
      "name": "ERC20InvalidSender",
      "type": "error"
    },
    {
      "inputs": [
        {
          "internalType": "address",
          "name": "spender",
          "type": "address"
        }
      ],
      "name": "ERC20InvalidSpender",
      "type": "error"
    },
    {
      "inputs": [
        {
          "internalType": "address",
          "name": "receiver",
          "type": "address"
        },
        {
          "internalType": "uint256",
          "name": "assets",
          "type": "uint256"
        },
        {
          "internalType": "uint256",
          "name": "max",
          "type": "uint256"
        }
      ],
      "name": "ERC4626ExceededMaxDeposit",
      "type": "error"
    },
    {
      "inputs": [
        {
          "internalType": "address",
          "name": "receiver",
          "type": "address"
        },
        {
          "internalType": "uint256",
          "name": "shares",
          "type": "uint256"
        },
        {
          "internalType": "uint256",
          "name": "max",
          "type": "uint256"
        }
      ],
      "name": "ERC4626ExceededMaxMint",
      "type": "error"
    },
    {
      "inputs": [
        {
          "internalType": "address",
          "name": "owner",
          "type": "address"
        },
        {
          "internalType": "uint256",
          "name": "shares",
          "type": "uint256"
        },
        {
          "internalType": "uint256",
          "name": "max",
          "type": "uint256"
        }
      ],
      "name": "ERC4626ExceededMaxRedeem",
      "type": "error"
    },
    {
      "inputs": [
        {
          "internalType": "address",
          "name": "owner",
          "type": "address"
        },
        {
          "internalType": "uint256",
          "name": "assets",
          "type": "uint256"
        },
        {
          "internalType": "uint256",
          "name": "max",
          "type": "uint256"
        }
      ],
      "name": "ERC4626ExceededMaxWithdraw",
      "type": "error"
    },
    {
      "inputs": [
        {
          "internalType": "address",
          "name": "sender",
          "type": "address"
        },
        {
          "internalType": "uint256",
          "name": "balance",
          "type": "uint256"
        },
        {
          "internalType": "uint256",
          "name": "amount",
          "type": "uint256"
        }
      ],
      "name": "InsufficientFunds",
      "type": "error"
    },
    {
      "inputs": [],
      "name": "InvalidAddress",
      "type": "error"
    },
    {
      "inputs": [],
      "name": "InvalidArguments",
      "type": "error"
    },
    {
      "inputs": [],
      "name": "InvalidTotalWeight",
      "type": "error"
    },
    {
      "inputs": [],
      "name": "InvalidUnderlyingDecimals",
      "type": "error"
    },
    {
      "inputs": [],
      "name": "NotEnoughDepositRequest",
      "type": "error"
    },
    {
      "inputs": [],
      "name": "NotEnoughWithdrawRequest",
      "type": "error"
    },
    {
      "inputs": [],
      "name": "OrderIntentCannotBeEmpty",
      "type": "error"
    },
    {
      "inputs": [],
      "name": "ReentrancyGuardReentrantCall",
      "type": "error"
    },
    {
      "inputs": [],
      "name": "SynchronousCallDisabled",
      "type": "error"
    },
    {
      "inputs": [],
      "name": "SystemNotIdle",
      "type": "error"
    },
    {
      "inputs": [
        {
          "internalType": "address",
          "name": "token",
          "type": "address"
        }
      ],
      "name": "TokenAlreadyInOrder",
      "type": "error"
    },
    {
      "inputs": [
        {
          "internalType": "address",
          "name": "token",
          "type": "address"
        }
      ],
      "name": "TokenNotWhitelisted",
      "type": "error"
    },
    {
      "inputs": [],
      "name": "TransferFailed",
      "type": "error"
    },
    {
      "inputs": [],
      "name": "UnauthorizedAccess",
      "type": "error"
    },
    {
      "anonymous": false,
      "inputs": [
        {
          "indexed": true,
          "internalType": "address",
          "name": "owner",
          "type": "address"
        },
        {
          "indexed": true,
          "internalType": "address",
          "name": "spender",
          "type": "address"
        },
        {
          "indexed": false,
          "internalType": "uint256",
          "name": "value",
          "type": "uint256"
        }
      ],
      "name": "Approval",
      "type": "event"
    },
    {
      "anonymous": false,
      "inputs": [
        {
          "indexed": true,
          "internalType": "uint256",
          "name": "epoch",
          "type": "uint256"
        },
        {
          "indexed": false,
          "internalType": "uint256",
          "name": "feeAmount",
          "type": "uint256"
        },
        {
          "indexed": false,
          "internalType": "uint256",
          "name": "pendingCuratorFees",
          "type": "uint256"
        }
      ],
      "name": "CuratorFeesAccrued",
      "type": "event"
    },
    {
      "anonymous": false,
      "inputs": [
        {
          "indexed": true,
          "internalType": "address",
          "name": "sender",
          "type": "address"
        },
        {
          "indexed": true,
          "internalType": "address",
          "name": "owner",
          "type": "address"
        },
        {
          "indexed": false,
          "internalType": "uint256",
          "name": "assets",
          "type": "uint256"
        },
        {
          "indexed": false,
          "internalType": "uint256",
          "name": "shares",
          "type": "uint256"
        }
      ],
      "name": "Deposit",
      "type": "event"
    },
    {
      "anonymous": false,
      "inputs": [
        {
          "indexed": true,
          "internalType": "address",
          "name": "user",
          "type": "address"
        },
        {
          "indexed": false,
          "internalType": "uint256",
          "name": "amount",
          "type": "uint256"
        }
      ],
      "name": "DepositProcessed",
      "type": "event"
    },
    {
      "anonymous": false,
      "inputs": [
        {
          "indexed": true,
          "internalType": "address",
          "name": "user",
          "type": "address"
        },
        {
          "indexed": false,
          "internalType": "uint256",
          "name": "amount",
          "type": "uint256"
        }
      ],
      "name": "DepositRequestCancelled",
      "type": "event"
    },
    {
      "anonymous": false,
      "inputs": [
        {
          "indexed": true,
          "internalType": "address",
          "name": "user",
          "type": "address"
        },
        {
          "indexed": false,
          "internalType": "uint256",
          "name": "amount",
          "type": "uint256"
        }
      ],
      "name": "DepositRequested",
      "type": "event"
    },
    {
      "anonymous": false,
      "inputs": [
        {
          "indexed": false,
          "internalType": "uint8",
          "name": "mode",
          "type": "uint8"
        },
        {
          "indexed": false,
          "internalType": "uint16",
          "name": "performanceFee",
          "type": "uint16"
        },
        {
          "indexed": false,
          "internalType": "uint16",
          "name": "managementFee",
          "type": "uint16"
        }
      ],
      "name": "FeeModelUpdated",
      "type": "event"
    },
    {
      "anonymous": false,
      "inputs": [
        {
          "indexed": true,
          "internalType": "address",
          "name": "curator",
          "type": "address"
        }
      ],
      "name": "OrderSubmitted",
      "type": "event"
    },
    {
      "anonymous": false,
      "inputs": [
        {
          "indexed": true,
          "internalType": "address",
          "name": "from",
          "type": "address"
        },
        {
          "indexed": true,
          "internalType": "address",
          "name": "to",
          "type": "address"
        },
        {
          "indexed": false,
          "internalType": "uint256",
          "name": "value",
          "type": "uint256"
        }
      ],
      "name": "Transfer",
      "type": "event"
    },
    {
      "anonymous": false,
      "inputs": [
        {
          "indexed": false,
          "internalType": "uint256",
          "name": "newTotalAssets",
          "type": "uint256"
        }
      ],
      "name": "VaultStateUpdated",
      "type": "event"
    },
    {
      "anonymous": false,
      "inputs": [
        {
          "indexed": true,
          "internalType": "address",
          "name": "sender",
          "type": "address"
        },
        {
          "indexed": true,
          "internalType": "address",
          "name": "receiver",
          "type": "address"
        },
        {
          "indexed": true,
          "internalType": "address",
          "name": "owner",
          "type": "address"
        },
        {
          "indexed": false,
          "internalType": "uint256",
          "name": "assets",
          "type": "uint256"
        },
        {
          "indexed": false,
          "internalType": "uint256",
          "name": "shares",
          "type": "uint256"
        }
      ],
      "name": "Withdraw",
      "type": "event"
    },
    {
      "anonymous": false,
      "inputs": [
        {
          "indexed": true,
          "internalType": "address",
          "name": "user",
          "type": "address"
        },
        {
          "indexed": false,
          "internalType": "uint256",
          "name": "shares",
          "type": "uint256"
        }
      ],
      "name": "WithdrawProcessed",
      "type": "event"
    },
    {
      "anonymous": false,
      "inputs": [
        {
          "indexed": true,
          "internalType": "address",
          "name": "user",
          "type": "address"
        },
        {
          "indexed": false,
          "internalType": "uint256",
          "name": "shares",
          "type": "uint256"
        }
      ],
      "name": "WithdrawRequestCancelled",
      "type": "event"
    },
    {
      "anonymous": false,
      "inputs": [
        {
          "indexed": true,
          "internalType": "address",
          "name": "user",
          "type": "address"
        },
        {
          "indexed": false,
          "internalType": "uint256",
          "name": "shares",
          "type": "uint256"
        }
      ],
      "name": "WithdrawRequested",
      "type": "event"
    },
    {
      "inputs": [],
      "name": "BASIS_POINTS_FACTOR",
      "outputs": [
        {
          "internalType": "uint16",
          "name": "",
          "type": "uint16"
        }
      ],
      "stateMutability": "view",
      "type": "function"
    },
    {
      "inputs": [],
      "name": "MAX_MANAGEMENT_FEE",
      "outputs": [
        {
          "internalType": "uint16",
          "name": "",
          "type": "uint16"
        }
      ],
      "stateMutability": "view",
      "type": "function"
    },
    {
      "inputs": [],
      "name": "MAX_PERFORMANCE_FEE",
      "outputs": [
        {
          "internalType": "uint16",
          "name": "",
          "type": "uint16"
        }
      ],
      "stateMutability": "view",
      "type": "function"
    },
    {
      "inputs": [],
      "name": "SHARE_DECIMALS",
      "outputs": [
        {
          "internalType": "uint8",
          "name": "",
          "type": "uint8"
        }
      ],
      "stateMutability": "view",
      "type": "function"
    },
    {
      "inputs": [],
      "name": "YEAR_IN_SECONDS",
      "outputs": [
        {
          "internalType": "uint32",
          "name": "",
          "type": "uint32"
        }
      ],
      "stateMutability": "view",
      "type": "function"
    },
    {
      "inputs": [
        {
          "internalType": "uint256",
          "name": "epoch",
          "type": "uint256"
        },
        {
          "internalType": "uint256",
          "name": "feeAmount",
          "type": "uint256"
        }
      ],
      "name": "accrueCuratorFees",
      "outputs": [],
      "stateMutability": "nonpayable",
      "type": "function"
    },
    {
      "inputs": [
        {
          "internalType": "address",
          "name": "owner",
          "type": "address"
        },
        {
          "internalType": "address",
          "name": "spender",
          "type": "address"
        }
      ],
      "name": "allowance",
      "outputs": [
        {
          "internalType": "uint256",
          "name": "",
          "type": "uint256"
        }
      ],
      "stateMutability": "view",
      "type": "function"
    },
    {
      "inputs": [
        {
          "internalType": "address",
          "name": "spender",
          "type": "address"
        },
        {
          "internalType": "uint256",
          "name": "value",
          "type": "uint256"
        }
      ],
      "name": "approve",
      "outputs": [
        {
          "internalType": "bool",
          "name": "",
          "type": "bool"
        }
      ],
      "stateMutability": "nonpayable",
      "type": "function"
    },
    {
      "inputs": [],
      "name": "asset",
      "outputs": [
        {
          "internalType": "address",
          "name": "",
          "type": "address"
        }
      ],
      "stateMutability": "view",
      "type": "function"
    },
    {
      "inputs": [
        {
          "internalType": "address",
          "name": "account",
          "type": "address"
        }
      ],
      "name": "balanceOf",
      "outputs": [
        {
          "internalType": "uint256",
          "name": "",
          "type": "uint256"
        }
      ],
      "stateMutability": "view",
      "type": "function"
    },
    {
      "inputs": [
        {
          "internalType": "uint256",
          "name": "amount",
          "type": "uint256"
        }
      ],
      "name": "cancelDepositRequest",
      "outputs": [],
      "stateMutability": "nonpayable",
      "type": "function"
    },
    {
      "inputs": [
        {
          "internalType": "uint256",
          "name": "shares",
          "type": "uint256"
        }
      ],
      "name": "cancelWithdrawRequest",
      "outputs": [],
      "stateMutability": "nonpayable",
      "type": "function"
    },
    {
      "inputs": [
        {
          "internalType": "uint256",
          "name": "amount",
          "type": "uint256"
        }
      ],
      "name": "claimCuratorFees",
      "outputs": [],
      "stateMutability": "nonpayable",
      "type": "function"
    },
    {
      "inputs": [],
      "name": "config",
      "outputs": [
        {
          "internalType": "contract IOrionConfig",
          "name": "",
          "type": "address"
        }
      ],
      "stateMutability": "view",
      "type": "function"
    },
    {
      "inputs": [
        {
          "internalType": "uint256",
          "name": "shares",
          "type": "uint256"
        }
      ],
      "name": "convertToAssets",
      "outputs": [
        {
          "internalType": "uint256",
          "name": "",
          "type": "uint256"
        }
      ],
      "stateMutability": "view",
      "type": "function"
    },
    {
      "inputs": [
        {
          "internalType": "uint256",
          "name": "shares",
          "type": "uint256"
        },
        {
          "internalType": "uint256",
          "name": "pointInTimeTotalAssets",
          "type": "uint256"
        },
        {
          "internalType": "enum Math.Rounding",
          "name": "rounding",
          "type": "uint8"
        }
      ],
      "name": "convertToAssetsWithPITTotalAssets",
      "outputs": [
        {
          "internalType": "uint256",
          "name": "",
          "type": "uint256"
        }
      ],
      "stateMutability": "view",
      "type": "function"
    },
    {
      "inputs": [
        {
          "internalType": "uint256",
          "name": "assets",
          "type": "uint256"
        }
      ],
      "name": "convertToShares",
      "outputs": [
        {
          "internalType": "uint256",
          "name": "",
          "type": "uint256"
        }
      ],
      "stateMutability": "view",
      "type": "function"
    },
    {
      "inputs": [],
      "name": "curator",
      "outputs": [
        {
          "internalType": "address",
          "name": "",
          "type": "address"
        }
      ],
      "stateMutability": "view",
      "type": "function"
    },
    {
      "inputs": [
        {
          "internalType": "uint256",
          "name": "activeTotalAssets",
          "type": "uint256"
        }
      ],
      "name": "curatorFee",
      "outputs": [
        {
          "internalType": "uint256",
          "name": "",
          "type": "uint256"
        }
      ],
      "stateMutability": "view",
      "type": "function"
    },
    {
      "inputs": [],
      "name": "curatorIntentDecimals",
      "outputs": [
        {
          "internalType": "uint8",
          "name": "",
          "type": "uint8"
        }
      ],
      "stateMutability": "view",
      "type": "function"
    },
    {
      "inputs": [],
      "name": "decimals",
      "outputs": [
        {
          "internalType": "uint8",
          "name": "",
          "type": "uint8"
        }
      ],
      "stateMutability": "view",
      "type": "function"
    },
    {
      "inputs": [
        {
          "internalType": "uint256",
          "name": "",
          "type": "uint256"
        },
        {
          "internalType": "address",
          "name": "",
          "type": "address"
        }
      ],
      "name": "deposit",
      "outputs": [
        {
          "internalType": "uint256",
          "name": "",
          "type": "uint256"
        }
      ],
      "stateMutability": "pure",
      "type": "function"
    },
    {
      "inputs": [],
      "name": "feeModel",
      "outputs": [
        {
          "internalType": "enum OrionVault.FeeType",
          "name": "feeType",
          "type": "uint8"
        },
        {
          "internalType": "uint16",
          "name": "performanceFee",
          "type": "uint16"
        },
        {
          "internalType": "uint16",
          "name": "managementFee",
          "type": "uint16"
        },
        {
          "internalType": "uint256",
          "name": "highWaterMark",
          "type": "uint256"
        }
      ],
      "stateMutability": "view",
      "type": "function"
    },
    {
      "inputs": [],
      "name": "getIntent",
      "outputs": [
        {
          "internalType": "address[]",
          "name": "tokens",
          "type": "address[]"
        },
        {
          "internalType": "uint32[]",
          "name": "weights",
          "type": "uint32[]"
        }
      ],
      "stateMutability": "view",
      "type": "function"
    },
    {
      "inputs": [],
      "name": "getPendingDeposits",
      "outputs": [
        {
          "internalType": "uint256",
          "name": "",
          "type": "uint256"
        }
      ],
      "stateMutability": "view",
      "type": "function"
    },
    {
      "inputs": [],
      "name": "getPendingWithdrawals",
      "outputs": [
        {
          "internalType": "uint256",
          "name": "",
          "type": "uint256"
        }
      ],
      "stateMutability": "view",
      "type": "function"
    },
    {
      "inputs": [],
      "name": "getPortfolio",
      "outputs": [
        {
          "internalType": "address[]",
          "name": "tokens",
          "type": "address[]"
        },
        {
          "internalType": "uint256[]",
          "name": "sharesPerAsset",
          "type": "uint256[]"
        }
      ],
      "stateMutability": "view",
      "type": "function"
    },
    {
      "inputs": [],
      "name": "getVaultWhitelist",
      "outputs": [
        {
          "internalType": "address[]",
          "name": "",
          "type": "address[]"
        }
      ],
      "stateMutability": "view",
      "type": "function"
    },
    {
      "inputs": [],
      "name": "internalStatesOrchestrator",
      "outputs": [
        {
          "internalType": "contract IInternalStateOrchestrator",
          "name": "",
          "type": "address"
        }
      ],
      "stateMutability": "view",
      "type": "function"
    },
    {
      "inputs": [],
      "name": "liquidityOrchestrator",
      "outputs": [
        {
          "internalType": "contract ILiquidityOrchestrator",
          "name": "",
          "type": "address"
        }
      ],
      "stateMutability": "view",
      "type": "function"
    },
    {
      "inputs": [
        {
          "internalType": "address",
          "name": "",
          "type": "address"
        }
      ],
      "name": "maxDeposit",
      "outputs": [
        {
          "internalType": "uint256",
          "name": "",
          "type": "uint256"
        }
      ],
      "stateMutability": "view",
      "type": "function"
    },
    {
      "inputs": [
        {
          "internalType": "address",
          "name": "",
          "type": "address"
        }
      ],
      "name": "maxMint",
      "outputs": [
        {
          "internalType": "uint256",
          "name": "",
          "type": "uint256"
        }
      ],
      "stateMutability": "view",
      "type": "function"
    },
    {
      "inputs": [
        {
          "internalType": "address",
          "name": "owner",
          "type": "address"
        }
      ],
      "name": "maxRedeem",
      "outputs": [
        {
          "internalType": "uint256",
          "name": "",
          "type": "uint256"
        }
      ],
      "stateMutability": "view",
      "type": "function"
    },
    {
      "inputs": [
        {
          "internalType": "address",
          "name": "owner",
          "type": "address"
        }
      ],
      "name": "maxWithdraw",
      "outputs": [
        {
          "internalType": "uint256",
          "name": "",
          "type": "uint256"
        }
      ],
      "stateMutability": "view",
      "type": "function"
    },
    {
      "inputs": [
        {
          "internalType": "uint256",
          "name": "",
          "type": "uint256"
        },
        {
          "internalType": "address",
          "name": "",
          "type": "address"
        }
      ],
      "name": "mint",
      "outputs": [
        {
          "internalType": "uint256",
          "name": "",
          "type": "uint256"
        }
      ],
      "stateMutability": "pure",
      "type": "function"
    },
    {
      "inputs": [],
      "name": "name",
      "outputs": [
        {
          "internalType": "string",
          "name": "",
          "type": "string"
        }
      ],
      "stateMutability": "view",
      "type": "function"
    },
    {
      "inputs": [],
      "name": "pendingCuratorFees",
      "outputs": [
        {
          "internalType": "uint256",
          "name": "",
          "type": "uint256"
        }
      ],
      "stateMutability": "view",
      "type": "function"
    },
    {
      "inputs": [
        {
          "internalType": "uint256",
          "name": "assets",
          "type": "uint256"
        }
      ],
      "name": "previewDeposit",
      "outputs": [
        {
          "internalType": "uint256",
          "name": "",
          "type": "uint256"
        }
      ],
      "stateMutability": "view",
      "type": "function"
    },
    {
      "inputs": [
        {
          "internalType": "uint256",
          "name": "shares",
          "type": "uint256"
        }
      ],
      "name": "previewMint",
      "outputs": [
        {
          "internalType": "uint256",
          "name": "",
          "type": "uint256"
        }
      ],
      "stateMutability": "view",
      "type": "function"
    },
    {
      "inputs": [
        {
          "internalType": "uint256",
          "name": "shares",
          "type": "uint256"
        }
      ],
      "name": "previewRedeem",
      "outputs": [
        {
          "internalType": "uint256",
          "name": "",
          "type": "uint256"
        }
      ],
      "stateMutability": "view",
      "type": "function"
    },
    {
      "inputs": [
        {
          "internalType": "uint256",
          "name": "assets",
          "type": "uint256"
        }
      ],
      "name": "previewWithdraw",
      "outputs": [
        {
          "internalType": "uint256",
          "name": "",
          "type": "uint256"
        }
      ],
      "stateMutability": "view",
      "type": "function"
    },
    {
      "inputs": [],
      "name": "processDepositRequests",
      "outputs": [],
      "stateMutability": "nonpayable",
      "type": "function"
    },
    {
      "inputs": [],
      "name": "processWithdrawRequests",
      "outputs": [],
      "stateMutability": "nonpayable",
      "type": "function"
    },
    {
      "inputs": [
        {
          "internalType": "uint256",
          "name": "",
          "type": "uint256"
        },
        {
          "internalType": "address",
          "name": "",
          "type": "address"
        },
        {
          "internalType": "address",
          "name": "",
          "type": "address"
        }
      ],
      "name": "redeem",
      "outputs": [
        {
          "internalType": "uint256",
          "name": "",
          "type": "uint256"
        }
      ],
      "stateMutability": "pure",
      "type": "function"
    },
    {
      "inputs": [
        {
          "internalType": "uint256",
          "name": "amount",
          "type": "uint256"
        }
      ],
      "name": "requestDeposit",
      "outputs": [],
      "stateMutability": "nonpayable",
      "type": "function"
    },
    {
      "inputs": [
        {
          "internalType": "uint256",
          "name": "shares",
          "type": "uint256"
        }
      ],
      "name": "requestWithdraw",
      "outputs": [],
      "stateMutability": "nonpayable",
      "type": "function"
    },
    {
      "inputs": [
        {
          "components": [
            {
              "internalType": "address",
              "name": "token",
              "type": "address"
            },
            {
              "internalType": "uint32",
              "name": "value",
              "type": "uint32"
            }
          ],
          "internalType": "struct IOrionTransparentVault.Position[]",
          "name": "intent",
          "type": "tuple[]"
        }
      ],
      "name": "submitIntent",
      "outputs": [],
      "stateMutability": "nonpayable",
      "type": "function"
    },
    {
      "inputs": [],
      "name": "symbol",
      "outputs": [
        {
          "internalType": "string",
          "name": "",
          "type": "string"
        }
      ],
      "stateMutability": "view",
      "type": "function"
    },
    {
      "inputs": [],
      "name": "totalAssets",
      "outputs": [
        {
          "internalType": "uint256",
          "name": "",
          "type": "uint256"
        }
      ],
      "stateMutability": "view",
      "type": "function"
    },
    {
      "inputs": [],
      "name": "totalSupply",
      "outputs": [
        {
          "internalType": "uint256",
          "name": "",
          "type": "uint256"
        }
      ],
      "stateMutability": "view",
      "type": "function"
    },
    {
      "inputs": [
        {
          "internalType": "address",
          "name": "to",
          "type": "address"
        },
        {
          "internalType": "uint256",
          "name": "value",
          "type": "uint256"
        }
      ],
      "name": "transfer",
      "outputs": [
        {
          "internalType": "bool",
          "name": "",
          "type": "bool"
        }
      ],
      "stateMutability": "nonpayable",
      "type": "function"
    },
    {
      "inputs": [
        {
          "internalType": "address",
          "name": "from",
          "type": "address"
        },
        {
          "internalType": "address",
          "name": "to",
          "type": "address"
        },
        {
          "internalType": "uint256",
          "name": "value",
          "type": "uint256"
        }
      ],
      "name": "transferFrom",
      "outputs": [
        {
          "internalType": "bool",
          "name": "",
          "type": "bool"
        }
      ],
      "stateMutability": "nonpayable",
      "type": "function"
    },
    {
      "inputs": [
        {
          "internalType": "address",
          "name": "newCurator",
          "type": "address"
        }
      ],
      "name": "updateCurator",
      "outputs": [],
      "stateMutability": "nonpayable",
      "type": "function"
    },
    {
      "inputs": [
        {
          "internalType": "uint8",
          "name": "feeType",
          "type": "uint8"
        },
        {
          "internalType": "uint16",
          "name": "performanceFee",
          "type": "uint16"
        },
        {
          "internalType": "uint16",
          "name": "managementFee",
          "type": "uint16"
        }
      ],
      "name": "updateFeeModel",
      "outputs": [],
      "stateMutability": "nonpayable",
      "type": "function"
    },
    {
      "inputs": [],
      "name": "updateHighWaterMark",
      "outputs": [],
      "stateMutability": "nonpayable",
      "type": "function"
    },
    {
      "inputs": [
        {
          "components": [
            {
              "internalType": "address",
              "name": "token",
              "type": "address"
            },
            {
              "internalType": "uint32",
              "name": "value",
              "type": "uint32"
            }
          ],
          "internalType": "struct IOrionTransparentVault.Position[]",
          "name": "portfolio",
          "type": "tuple[]"
        },
        {
          "internalType": "uint256",
          "name": "newTotalAssets",
          "type": "uint256"
        }
      ],
      "name": "updateVaultState",
      "outputs": [],
      "stateMutability": "nonpayable",
      "type": "function"
    },
    {
      "inputs": [
        {
          "internalType": "address[]",
          "name": "assets",
          "type": "address[]"
        }
      ],
      "name": "updateVaultWhitelist",
      "outputs": [],
      "stateMutability": "nonpayable",
      "type": "function"
    },
    {
      "inputs": [],
      "name": "vaultOwner",
      "outputs": [
        {
          "internalType": "address",
          "name": "",
          "type": "address"
        }
      ],
      "stateMutability": "view",
      "type": "function"
    },
    {
      "inputs": [
        {
          "internalType": "uint256",
          "name": "",
          "type": "uint256"
        },
        {
          "internalType": "address",
          "name": "",
          "type": "address"
        },
        {
          "internalType": "address",
          "name": "",
          "type": "address"
        }
      ],
      "name": "withdraw",
      "outputs": [
        {
          "internalType": "uint256",
          "name": "",
          "type": "uint256"
        }
      ],
      "stateMutability": "pure",
      "type": "function"
    }
  ],
  "bytecode": "0x60c060405234801561000f575f5ffd5b5060405161430938038061430983398101604081905261002e916107f9565b8787878787878787856001600160a01b0316637158da7c6040518163ffffffff1660e01b8152600401602060405180830381865afa158015610072573d5f5f3e3d5ffd5b505050506040513d601f19601f8201168201806040525081019061009691906108c8565b858560036100a4838261096e565b5060046100b1828261096e565b5050505f5f6100c5836104f960201b60201c565b91509150816100d55760126100d7565b805b60ff1660a05250506001600160a01b03908116608052600160055587166101115760405163e6c4247b60e01b815260040160405180910390fd5b6001600160a01b0386166101385760405163e6c4247b60e01b815260040160405180910390fd5b600680546001600160a01b03808b166001600160a01b031992831617909255600780548a841690831617905560088054928916929091168217905560408051630691d8b960e31b8152905163348ec5c8916004808201926020929091908290030181865afa1580156101ac573d5f5f3e3d5ffd5b505050506040513d601f19601f820116820180604052508101906101d091906108c8565b60095f6101000a8154816001600160a01b0302191690836001600160a01b03160217905550856001600160a01b0316633a0dad8e6040518163ffffffff1660e01b8152600401602060405180830381865afa158015610231573d5f5f3e3d5ffd5b505050506040513d601f19601f8201168201806040525081019061025591906108c8565b600a5f6101000a8154816001600160a01b0302191690836001600160a01b03160217905550856001600160a01b031663d1717c7d6040518163ffffffff1660e01b8152600401602060405180830381865afa1580156102b6573d5f5f3e3d5ffd5b505050506040513d601f19601f820116820180604052508101906102da9190610a28565b600a60146101000a81548160ff021916908360ff1602179055505f600d819055505f6014819055505f6015819055505f866001600160a01b0316637158da7c6040518163ffffffff1660e01b8152600401602060405180830381865afa158015610346573d5f5f3e3d5ffd5b505050506040513d601f19601f8201168201806040525081019061036a91906108c8565b6001600160a01b031663313ce5676040518163ffffffff1660e01b8152600401602060405180830381865afa1580156103a5573d5f5f3e3d5ffd5b505050506040513d601f19601f820116820180604052508101906103c99190610a28565b9050601260ff821611156103f057604051631c03248960e11b815260040160405180910390fd5b600460ff85161115610415576040516317dbc4cb60e21b815260040160405180910390fd5b610bb861ffff8416111561043c576040516317dbc4cb60e21b815260040160405180910390fd5b61012c61ffff83161115610463576040516317dbc4cb60e21b815260040160405180910390fd5b8360ff16600481111561047857610478610a41565b6017805460ff1916600183600481111561049457610494610a41565b02179055506017805461ffff84811663010000000264ffff00000019918716610100029190911664ffffffff0019909216919091171790556104d86012600a610b4c565b6018556104e36105cf565b5050505050505050505050505050505050610c4d565b60408051600481526024810182526020810180516001600160e01b031663313ce56760e01b17905290515f918291829182916001600160a01b0387169161053f91610b5a565b5f60405180830381855afa9150503d805f8114610577576040519150601f19603f3d011682016040523d82523d5f602084013e61057c565b606091505b509150915081801561059057506020815110155b156105c3575f818060200190518101906105aa9190610b70565b905060ff81116105c1576001969095509350505050565b505b505f9485945092505050565b60085460408051636c366a2760e11b815290515f926001600160a01b03169163d86cd44e91600480830192869291908290030181865afa158015610615573d5f5f3e3d5ffd5b505050506040513d5f823e601f3d908101601f1916820160405261063c9190810190610b87565b90505f5b81518110156106a0575f61067783838151811061065f5761065f610c39565b6020026020010151600b6106a460201b90919060201c565b90508061069757604051630ea075bf60e21b815260040160405180910390fd5b50600101610640565b5050565b5f6106b8836001600160a01b0384166106c1565b90505b92915050565b5f81815260018301602052604081205461070657508154600181810184555f8481526020808220909301849055845484825282860190935260409020919091556106bb565b505f6106bb565b6001600160a01b0381168114610721575f5ffd5b50565b634e487b7160e01b5f52604160045260245ffd5b604051601f8201601f191681016001600160401b038111828210171561076057610760610724565b604052919050565b5f82601f830112610777575f5ffd5b81516001600160401b0381111561079057610790610724565b6107a3601f8201601f1916602001610738565b8181528460208386010111156107b7575f5ffd5b8160208501602083015e5f918101602001919091529392505050565b805160ff811681146107e3575f5ffd5b919050565b805161ffff811681146107e3575f5ffd5b5f5f5f5f5f5f5f5f610100898b031215610811575f5ffd5b885161081c8161070d565b60208a015190985061082d8161070d565b60408a015190975061083e8161070d565b60608a01519096506001600160401b03811115610859575f5ffd5b6108658b828c01610768565b60808b015190965090506001600160401b03811115610882575f5ffd5b61088e8b828c01610768565b94505061089d60a08a016107d3565b92506108ab60c08a016107e8565b91506108b960e08a016107e8565b90509295985092959890939650565b5f602082840312156108d8575f5ffd5b81516108e38161070d565b9392505050565b600181811c908216806108fe57607f821691505b60208210810361091c57634e487b7160e01b5f52602260045260245ffd5b50919050565b601f82111561096957805f5260205f20601f840160051c810160208510156109475750805b601f840160051c820191505b81811015610966575f8155600101610953565b50505b505050565b81516001600160401b0381111561098757610987610724565b61099b8161099584546108ea565b84610922565b6020601f8211600181146109cd575f83156109b65750848201515b5f19600385901b1c1916600184901b178455610966565b5f84815260208120601f198516915b828110156109fc57878501518255602094850194600190920191016109dc565b5084821015610a1957868401515f19600387901b60f8161c191681555b50505050600190811b01905550565b5f60208284031215610a38575f5ffd5b6106b8826107d3565b634e487b7160e01b5f52602160045260245ffd5b634e487b7160e01b5f52601160045260245ffd5b6001815b6001841115610aa457808504811115610a8857610a88610a55565b6001841615610a9657908102905b60019390931c928002610a6d565b935093915050565b5f82610aba575060016106bb565b81610ac657505f6106bb565b8160018114610adc5760028114610ae657610b02565b60019150506106bb565b60ff841115610af757610af7610a55565b50506001821b6106bb565b5060208310610133831016604e8410600b8410161715610b25575081810a6106bb565b610b315f198484610a69565b805f1904821115610b4457610b44610a55565b029392505050565b5f6106b860ff841683610aac565b5f82518060208501845e5f920191825250919050565b5f60208284031215610b80575f5ffd5b5051919050565b5f60208284031215610b97575f5ffd5b81516001600160401b03811115610bac575f5ffd5b8201601f81018413610bbc575f5ffd5b80516001600160401b03811115610bd557610bd5610724565b8060051b610be560208201610738565b91825260208184018101929081019087841115610c00575f5ffd5b6020850194505b83851015610c2e5784519250610c1c8361070d565b82825260209485019490910190610c07565b979650505050505050565b634e487b7160e01b5f52603260045260245ffd5b60805160a05161369e610c6b5f395f50505f6110b1015261369e5ff3fe608060405234801561000f575f5ffd5b50600436106102a7575f3560e01c806301e1d114146102ab57806303d44854146102c257806306fdde03146102d757806307a2d13a146102ec578063095ea7b3146102ff5780630a28a477146103225780630c6a62dd146103355780630d1e6667146103485780630df571f71461035b578063105444941461036e57806318160ddd1461038157806318c21949146103895780631f52692b1461039c57806323b872dd146103bc5780632dae2967146103cf578063313ce567146103d757806333fdc592146103ec578063348ec5c8146103f457806338d52e0f146104075780633a0dad8e1461040f5780633ab6d27c14610422578063402d267d146104355780634cdad506146102ec5780636e553f651461044957806370a082311461045c578063745400c91461046f5780637847ea531461048257806379502c55146104a25780638f5c9465146104b557806394bf804d1461044957806395d89b41146104d157806397ee1144146104d95780639908840c1461050f578063a68a526714610518578063a9059cbb1461052b578063aa9d3a601461053e578063acdb3d5114610546578063b1bd7e2e1461054f578063b3d7f6b914610562578063b460af9414610575578063b6eba65314610583578063ba08765214610575578063bdca916514610599578063c0b568e1146105a2578063c37fc8a8146105b5578063c63d75b614610435578063c6e6f592146105bd578063cce4705b146105d0578063ce96cb77146105e3578063d1699c26146105f6578063d1717c7d146105fe578063d3d0345814610612578063d853365f14610628578063d905777e14610630578063dd62ed3e14610643578063e51a85f614610656578063e66f53b714610669578063e9c30a1a1461067c578063ef8b30f7146105bd575b5f5ffd5b600d545b6040519081526020015b60405180910390f35b6102d56102d0366004612e79565b610691565b005b6102df6107c1565b6040516102b99190612f43565b6102af6102fa366004612f78565b610851565b61031261030d366004612f8f565b610862565b60405190151581526020016102b9565b6102af610330366004612f78565b610879565b6102d5610343366004612fb7565b610885565b6102d5610356366004612f78565b6108f9565b6102d5610369366004612fd0565b610b7a565b6102d561037c366004613030565b610c09565b6002546102af565b6102d5610397366004612f78565b610d0d565b6006546103af906001600160a01b031681565b6040516102b99190613077565b6103126103ca36600461308b565b610de3565b6102d5610e08565b60125b60405160ff90911681526020016102b9565b6102d5610e57565b6009546103af906001600160a01b031681565b6103af6110af565b600a546103af906001600160a01b031681565b6102d56104303660046130e2565b6110d3565b6102af610443366004612fb7565b505f1990565b6102af61045736600461312a565b6112b2565b6102af61046a366004612fb7565b6112cc565b6102d561047d366004612f78565b6112e6565b61048d6301e1338081565b60405163ffffffff90911681526020016102b9565b6008546103af906001600160a01b031681565b6104be61271081565b60405161ffff90911681526020016102b9565b6102df6114ce565b6017546018546104ff9160ff81169161ffff610100830481169263010000009004169084565b6040516102b99493929190613168565b6104be61012c81565b6102af6105263660046131a6565b6114dd565b610312610539366004612f8f565b61151d565b6102d561152a565b6102af60165481565b6102d561055d3660046131d4565b6117d1565b6102af610570366004612f78565b611a0e565b6102af610457366004613212565b61058b611a1a565b6040516102b992919061328e565b6104be610bb881565b6102d56105b0366004612f78565b611b54565b6015546102af565b6102af6105cb366004612f78565b611d17565b6102d56105de366004612f78565b611d22565b6102af6105f1366004612fb7565b611f0f565b6014546102af565b600a546103da90600160a01b900460ff1681565b61061a611f22565b6040516102b99291906132ec565b6103da601281565b6102af61063e366004612fb7565b61204c565b6102af610651366004613338565b612056565b6102af610664366004612f78565b612080565b6007546103af906001600160a01b031681565b6106846120b9565b6040516102b99190613360565b6006546001600160a01b031633146106bc57604051631a27eac360e11b815260040160405180910390fd5b6106c6600b6120ca565b5f5b81518110156107bd575f8282815181106106e4576106e4613372565b6020908102919091010151600854604051633af32abf60e01b81529192506001600160a01b031690633af32abf90610720908490600401613077565b602060405180830381865afa15801561073b573d5f5f3e3d5ffd5b505050506040513d601f19601f8201168201806040525081019061075f9190613386565b610787578060405163751dff9760e11b815260040161077e9190613077565b60405180910390fd5b5f610793600b836120d3565b9050806107b357604051630ea075bf60e21b815260040160405180910390fd5b50506001016106c8565b5050565b6060600380546107d0906133a5565b80601f01602080910402602001604051908101604052809291908181526020018280546107fc906133a5565b80156108475780601f1061081e57610100808354040283529160200191610847565b820191905f5260205f20905b81548152906001019060200180831161082a57829003601f168201915b5050505050905090565b5f61085c825f6120e7565b92915050565b5f3361086f818585612128565b5060019392505050565b5f61085c82600161213a565b6006546001600160a01b031633146108b057604051631a27eac360e11b815260040160405180910390fd5b6001600160a01b0381166108d75760405163e6c4247b60e01b815260040160405180910390fd5b600780546001600160a01b0319166001600160a01b0392909216919091179055565b61090161216c565b60085f9054906101000a90046001600160a01b03166001600160a01b031663edcf9c1f6040518163ffffffff1660e01b8152600401602060405180830381865afa158015610951573d5f5f3e3d5ffd5b505050506040513d601f19601f820116820180604052508101906109759190613386565b610992576040516312aecd8160e01b815260040160405180910390fd5b805f036109bb576109a16110af565b604051636b30633560e01b815260040161077e9190613077565b5f6109c46110af565b6001600160a01b03166370a08231336040518263ffffffff1660e01b81526004016109ef9190613077565b602060405180830381865afa158015610a0a573d5f5f3e3d5ffd5b505050506040513d601f19601f82011682018060405250810190610a2e91906133dd565b905080821115610a5757338183604051632e2a182f60e11b815260040161077e939291906133f4565b5f610a606110af565b600a546040516323b872dd60e01b81526001600160a01b03928316926323b872dd92610a96923392909116908890600401613415565b6020604051808303815f875af1158015610ab2573d5f5f3e3d5ffd5b505050506040513d601f19601f82011682018060405250810190610ad69190613386565b905080610af6576040516312171d8360e31b815260040160405180910390fd5b5f610b02600e33612196565b9150610b1d905033610b14868461344d565b600e91906121bc565b508360145f828254610b2f919061344d565b909155505060405184815233907f08d79f77ab5f78e7e780abb1f7ac9e9923340d5bae78f6e83e7999905b248ea2906020015b60405180910390a2505050610b776001600555565b50565b600a546001600160a01b03163314610ba557604051631a27eac360e11b815260040160405180910390fd5b80156107bd578060165f828254610bbc919061344d565b909155505060165460405183917f8b8789cf9157fe7b016901e4ed3a5d0971caa8b7c031da0b25638ccf65841b2a91610bfd91858252602082015260400190565b60405180910390a25050565b600a546001600160a01b03163314610c3457604051631a27eac360e11b815260040160405180910390fd5b610c3e60196121d1565b815f5b8161ffff168161ffff161015610cce57610cc585858361ffff16818110610c6a57610c6a613372565b610c809260206040909202019081019150612fb7565b86868461ffff16818110610c9657610c96613372565b9050604002016020016020810190610cae9190613471565b63ffffffff1660196121bc9092919063ffffffff16565b50600101610c41565b50600d8290556040518281527f5e1ff954b5e5257e9ee5d4cb07059e8f5e69b1aaaf9911e5d8d90a6894de9c219060200160405180910390a150505050565b6006546001600160a01b03163314610d3857604051631a27eac360e11b815260040160405180910390fd5b805f03610d47576109a16110af565b601654811115610d7157601654604051632e2a182f60e11b815261077e91309184906004016133f4565b8060165f828254610d82919061348c565b9091555050600a5460405163741fca4b60e01b8152600481018390526001600160a01b039091169063741fca4b906024015f604051808303815f87803b158015610dca575f5ffd5b505af1158015610ddc573d5f5f3e3d5ffd5b5050505050565b5f33610df08582856121da565b610dfb85858561222b565b60019150505b9392505050565b600a546001600160a01b03163314610e3357604051631a27eac360e11b815260040160405180910390fd5b5f610e4560125b6102fa90600a613582565b601854909150811115610b7757601855565b600a546001600160a01b03163314610e8257604051631a27eac360e11b815260040160405180910390fd5b610e8a61216c565b5f610e95600e612288565b90505f8163ffffffff166001600160401b03811115610eb657610eb6612e4a565b604051908082528060200260200182016040528015610edf578160200160208202803683370190505b5090505f8263ffffffff166001600160401b03811115610f0157610f01612e4a565b604051908082528060200260200182016040528015610f2a578160200160208202803683370190505b5090505f5b8363ffffffff168163ffffffff161015610fc4575f80610f59600e63ffffffff8086169061229216565b9150915081858463ffffffff1681518110610f7657610f76613372565b60200260200101906001600160a01b031690816001600160a01b03168152505080848463ffffffff1681518110610faf57610faf613372565b60209081029190910101525050600101610f2f565b505f60148190555b8363ffffffff168163ffffffff16101561109f575f838263ffffffff1681518110610ff957610ff9613372565b602002602001015190505f838363ffffffff168151811061101c5761101c613372565b6020026020010151905061103a82600e6122a090919063ffffffff16565b505f61104582611d17565b905061105183826122b4565b826001600160a01b03167f85a190caa61692b36b63a55e069330d18ab9af179fed7a25c16a4262bc63b7d28360405161108c91815260200190565b60405180910390a2505050600101610fcc565b505050506110ad6001600555565b565b7f000000000000000000000000000000000000000000000000000000000000000090565b6006546001600160a01b031633146110fe57604051631a27eac360e11b815260040160405180910390fd5b60085f9054906101000a90046001600160a01b03166001600160a01b031663edcf9c1f6040518163ffffffff1660e01b8152600401602060405180830381865afa15801561114e573d5f5f3e3d5ffd5b505050506040513d601f19601f820116820180604052508101906111729190613386565b61118f576040516312aecd8160e01b815260040160405180910390fd5b600460ff841611156111b4576040516317dbc4cb60e21b815260040160405180910390fd5b610bb861ffff831611156111db576040516317dbc4cb60e21b815260040160405180910390fd5b61012c61ffff82161115611202576040516317dbc4cb60e21b815260040160405180910390fd5b8260ff16600481111561121757611217613154565b6017805460ff1916600183600481111561123357611233613154565b02179055506017805464ffffffff00191661010061ffff85811691820264ffff0000001916929092176301000000928516928302179092556040805160ff8716815260208101939093528201527fd24f39e523bfa412fa391702710dc62e1c82d87a8e83228a37c42be1b4870f459060600160405180910390a1505050565b5f60405163125ad87760e31b815260040160405180910390fd5b6001600160a01b03165f9081526020819052604090205490565b60085f9054906101000a90046001600160a01b03166001600160a01b031663edcf9c1f6040518163ffffffff1660e01b8152600401602060405180830381865afa158015611336573d5f5f3e3d5ffd5b505050506040513d601f19601f8201168201806040525081019061135a9190613386565b611377576040516312aecd8160e01b815260040160405180910390fd5b805f036113995730604051636b30633560e01b815260040161077e9190613077565b5f6113a3336112cc565b9050808211156113cc57338183604051632e2a182f60e11b815260040161077e939291906133f4565b6040516323b872dd60e01b81525f9030906323b872dd906113f590339084908890600401613415565b6020604051808303815f875af1158015611411573d5f5f3e3d5ffd5b505050506040513d601f19601f820116820180604052508101906114359190613386565b905080611455576040516312171d8360e31b815260040160405180910390fd5b5f611461601133612196565b915061147c905033611473868461344d565b601191906121bc565b508360155f82825461148e919061344d565b909155505060405184815233907ff7774b688d56120b783560a913ee60792a73dfd511812b7be5eccf10d08c66899060200160405180910390a250505050565b6060600480546107d0906133a5565b5f6115156114ec84600161344d565b6114f46122e8565b6114ff90600a613582565b60025461150c919061344d565b86919085612364565b949350505050565b5f3361086f81858561222b565b600a546001600160a01b0316331461155557604051631a27eac360e11b815260040160405180910390fd5b61155d61216c565b5f6115686011612288565b90505f8163ffffffff166001600160401b0381111561158957611589612e4a565b6040519080825280602002602001820160405280156115b2578160200160208202803683370190505b5090505f8263ffffffff166001600160401b038111156115d4576115d4612e4a565b6040519080825280602002602001820160405280156115fd578160200160208202803683370190505b5090505f5b8363ffffffff168163ffffffff161015611697575f8061162c601163ffffffff8086169061229216565b9150915081858463ffffffff168151811061164957611649613372565b60200260200101906001600160a01b031690816001600160a01b03168152505080848463ffffffff168151811061168257611682613372565b60209081029190910101525050600101611602565b505f60158190555b8363ffffffff168163ffffffff16101561109f575f838263ffffffff16815181106116cc576116cc613372565b602002602001015190505f838363ffffffff16815181106116ef576116ef613372565b6020026020010151905061170d8260116122a090919063ffffffff16565b505f61171882610851565b905061172430836123a6565b600a54604051632eea26bd60e11b81526001600160a01b0390911690635dd44d7a906117569086908590600401613590565b5f604051808303815f87803b15801561176d575f5ffd5b505af115801561177f573d5f5f3e3d5ffd5b50505050826001600160a01b03167f44b2ff9ffcefe2052a8afdbed44a04bf3db4592ae90c6b96c818bd28573e41e8836040516117be91815260200190565b60405180910390a250505060010161169f565b6007546001600160a01b031633146117fc57604051631a27eac360e11b815260040160405180910390fd5b5f81900361181d57604051631121aa8d60e01b815260040160405180910390fd5b611827601c6121d1565b5f816001600160401b0381111561184057611840612e4a565b604051908082528060200260200182016040528015611869578160200160208202803683370190505b5090505f82815b8161ffff168161ffff161015611998575f86868361ffff1681811061189757611897613372565b6118ad9260206040909202019081019150612fb7565b90505f87878461ffff168181106118c6576118c6613372565b90506040020160200160208101906118de9190613471565b905081868461ffff16815181106118f7576118f7613372565b60200260200101906001600160a01b031690816001600160a01b0316815250508063ffffffff165f0361193f5781604051636b30633560e01b815260040161077e9190613077565b5f611955601c8463ffffffff808616906121bc16565b90508061197757826040516346bdabe160e01b815260040161077e9190613077565b61198763ffffffff83168761344d565b955050600190920191506118709050565b506119a2836123da565b600a60149054906101000a900460ff16600a6119be9190613582565b82146119dd57604051639006dd2760e01b815260040160405180910390fd5b60405133907f2d47a742b8d7df7c1fc5a9a631b206b364e6cb2722490759f63bb3ab14b132e0905f90a25050505050565b5f61085c8260016120e7565b6060805f611a28601c612288565b90508061ffff166001600160401b03811115611a4657611a46612e4a565b604051908082528060200260200182016040528015611a6f578160200160208202803683370190505b5092508061ffff166001600160401b03811115611a8e57611a8e612e4a565b604051908082528060200260200182016040528015611ab7578160200160208202803683370190505b5091505f5b8161ffff168161ffff161015611b4e575f80611add601c61ffff8516612292565b9150915081868461ffff1681518110611af857611af8613372565b60200260200101906001600160a01b031690816001600160a01b03168152505080858461ffff1681518110611b2f57611b2f613372565b63ffffffff909216602092830291909101909101525050600101611abc565b50509091565b611b5c61216c565b60085f9054906101000a90046001600160a01b03166001600160a01b031663edcf9c1f6040518163ffffffff1660e01b8152600401602060405180830381865afa158015611bac573d5f5f3e3d5ffd5b505050506040513d601f19601f82011682018060405250810190611bd09190613386565b611bed576040516312aecd8160e01b815260040160405180910390fd5b805f03611bfc576109a16110af565b5f611c08600e33612196565b91505081811015611c2c576040516332194fd360e21b815260040160405180910390fd5b600a546040516351edffb160e01b81526001600160a01b03909116906351edffb190611c5e9033908690600401613590565b5f604051808303815f87803b158015611c75575f5ffd5b505af1158015611c87573d5f5f3e3d5ffd5b505050505f8282611c98919061348c565b9050805f03611cb257611cac600e336122a0565b50611cc0565b611cbe600e33836121bc565b505b8260145f828254611cd1919061348c565b909155505060405183815233907f96a9a6886cdf3047a125454218a23d3961fd3a78643123b248a9d106d0ac94fd9060200160405180910390a25050610b776001600555565b5f61085c825f61213a565b611d2a61216c565b60085f9054906101000a90046001600160a01b03166001600160a01b031663edcf9c1f6040518163ffffffff1660e01b8152600401602060405180830381865afa158015611d7a573d5f5f3e3d5ffd5b505050506040513d601f19601f82011682018060405250810190611d9e9190613386565b611dbb576040516312aecd8160e01b815260040160405180910390fd5b805f03611ddd5730604051636b30633560e01b815260040161077e9190613077565b5f611de9601133612196565b91505081811015611e0d576040516312ea1f4960e11b815260040160405180910390fd5b5f611e18838361348c565b9050805f03611e3257611e2c6011336122a0565b50611e40565b611e3e601133836121bc565b505b8260155f828254611e51919061348c565b909155505060405163a9059cbb60e01b81525f90309063a9059cbb90611e7d9033908890600401613590565b6020604051808303815f875af1158015611e99573d5f5f3e3d5ffd5b505050506040513d601f19601f82011682018060405250810190611ebd9190613386565b905080611edd576040516312171d8360e31b815260040160405180910390fd5b60405184815233907f9cf37535785001dcc9767688232fcbc8698b3002d1207b50bc2afec3ff8934dc90602001610b62565b5f61085c611f1c836112cc565b5f6120e7565b6060805f611f306019612288565b90508061ffff166001600160401b03811115611f4e57611f4e612e4a565b604051908082528060200260200182016040528015611f77578160200160208202803683370190505b5092508061ffff166001600160401b03811115611f9657611f96612e4a565b604051908082528060200260200182016040528015611fbf578160200160208202803683370190505b5091505f5b8161ffff168161ffff161015611b4e575f80611fe5601961ffff8516612292565b9150915081868461ffff168151811061200057612000613372565b60200260200101906001600160a01b031690816001600160a01b03168152505080858461ffff168151811061203757612037613372565b60209081029190910101525050600101611fc4565b5f61085c826112cc565b6001600160a01b039182165f90815260016020908152604080832093909416825291909152205490565b5f5f61208b83612452565b90505f612098828561348c565b90505f6120a48261251c565b90506120b0818461344d565b95945050505050565b60606120c5600b6125d8565b905090565b610b77816125e4565b5f610e01836001600160a01b03841661263d565b5f610e016120f4600d5490565b6120ff90600161344d565b6121076122e8565b61211290600a613582565b60025461211f919061344d565b85919085612364565b6121358383836001612684565b505050565b5f610e016121466122e8565b61215190600a613582565b60025461215e919061344d565b600d5461211f90600161344d565b60026005540361218f57604051633ee5aeb560e01b815260040160405180910390fd5b6002600555565b5f8080806121ad866001600160a01b038716612756565b909450925050505b9250929050565b5f611515846001600160a01b0385168461278e565b610b77816127aa565b5f6121e58484612056565b90505f19811015612225578181101561221757828183604051637dc7a0d960e11b815260040161077e939291906133f4565b61222584848484035f612684565b50505050565b6001600160a01b038316612254575f604051634b637e8f60e11b815260040161077e9190613077565b6001600160a01b03821661227d575f60405163ec442f0560e01b815260040161077e9190613077565b6121358383836127f3565b5f61085c82612906565b5f8080806121ad8686612910565b5f610e01836001600160a01b038416612939565b6001600160a01b0382166122dd575f60405163ec442f0560e01b815260040161077e9190613077565b6107bd5f83836127f3565b5f5f6122f26110af565b6001600160a01b031663313ce5676040518163ffffffff1660e01b8152600401602060405180830381865afa15801561232d573d5f5f3e3d5ffd5b505050506040513d601f19601f8201168201806040525081019061235191906135a9565b905061235e8160126135c4565b91505090565b5f61239161237183612955565b801561238c57505f8480612387576123876135dd565b868809115b151590565b61239c868686612981565b6120b0919061344d565b6001600160a01b0382166123cf575f604051634b637e8f60e11b815260040161077e9190613077565b6107bd825f836127f3565b5f5b81518110156107bd576124128282815181106123fa576123fa613372565b6020026020010151600b612a3190919063ffffffff16565b61244a5781818151811061242857612428613372565b602002602001015160405163751dff9760e11b815260040161077e9190613077565b6001016123dc565b6017545f906301000000900461ffff16810361246f57505f919050565b6017545f9061248c906301000000900461ffff1684612710612981565b9050610e0160095f9054906101000a90046001600160a01b03166001600160a01b0316634ff0876a6040518163ffffffff1660e01b8152600401602060405180830381865afa1580156124e1573d5f5f3e3d5ffd5b505050506040513d601f19601f8201168201806040525081019061250591906135f1565b829063ffffffff908116906301e133809061298116565b6017545f90610100900461ffff16810361253757505f919050565b5f61257b61254684600161344d565b61254e6122e8565b61255990600a613582565b600254612566919061344d565b5f6125736012600a613582565b929190612364565b6017549091505f9081906125919060ff16612a45565b915091508183116125a657505f949350505050565b6017545f906125bf90610100900461ffff168584612981565b90506125ce8187612710612981565b9695505050505050565b60605f610e0183612b2f565b5f6125ed825490565b90505f5b8181101561263657826001015f845f01838154811061261257612612613372565b905f5260205f20015481526020019081526020015f205f90558060010190506125f1565b50505f9055565b5f6126488383612b88565b61267d57508154600181810184555f84815260208082209093018490558454848252828601909352604090209190915561085c565b505f61085c565b6001600160a01b0384166126ad575f60405163e602df0560e01b815260040161077e9190613077565b6001600160a01b0383166126d6575f604051634a1406b160e11b815260040161077e9190613077565b6001600160a01b038085165f908152600160209081526040808320938716835292905220829055801561222557826001600160a01b0316846001600160a01b03167f8c5be1e5ebec7d5bd14f71427d1e84f3dd0314c0f7b2291e5b200ac8c7c3b9258460405161274891815260200190565b60405180910390a350505050565b5f818152600283016020526040812054819080612783576127778585612b9f565b92505f91506121b59050565b6001925090506121b5565b5f82815260028401602052604081208290556115158484612baa565b5f6127b482612906565b90505f5b818110156127e957600283015f6127cf8584612bb5565b815260208101919091526040015f908120556001016127b8565b506107bd826120ca565b6001600160a01b03831661281d578060025f828254612812919061344d565b9091555061287a9050565b6001600160a01b0383165f908152602081905260409020548181101561285c5783818360405163391434e360e21b815260040161077e939291906133f4565b6001600160a01b0384165f9081526020819052604090209082900390555b6001600160a01b038216612896576002805482900390556128b4565b6001600160a01b0382165f9081526020819052604090208054820190555b816001600160a01b0316836001600160a01b03167fddf252ad1be2c89b69c2b068fc378daa952ba7f163c4a11628f55a4df523b3ef836040516128f991815260200190565b60405180910390a3505050565b5f61085c82612bc0565b5f808061291d8585612bb5565b5f81815260029690960160205260409095205494959350505050565b5f8181526002830160205260408120819055610e018383612bc9565b5f600282600381111561296a5761296a613154565b612974919061360c565b60ff166001149050919050565b5f5f5f61298e8686612bd4565b91509150815f036129b2578381816129a8576129a86135dd565b0492505050610e01565b8184116129c9576129c96003851502601118612bf0565b5f848688095f868103871696879004966002600389028118808a02820302808a02820302808a02820302808a02820302808a02820302808a02909103029181900381900460010185841190960395909502919093039390930492909217029150509392505050565b5f610e01836001600160a01b038416612b88565b5f8080612a526012610e3a565b90505f846004811115612a6757612a67613154565b03612a7757809250829150612b29565b6003846004811115612a8b57612a8b613154565b03612a9d576018549250829150612b29565b6001846004811115612ab157612ab1613154565b03612ac957612abf81612c01565b9250809150612b29565b6002846004811115612add57612add613154565b03612af557612aeb81612c01565b9250829150612b29565b6004846004811115612b0957612b09613154565b03612b2957601854612b2390612b1e83612c01565b612d27565b92508291505b50915091565b6060815f01805480602002602001604051908101604052809291908181526020018280548015612b7c57602002820191905f5260205f20905b815481526020019060010190808311612b68575b50505050509050919050565b5f9081526001919091016020526040902054151590565b5f610e018383612d36565b5f610e01838361263d565b5f610e018383612d41565b5f61085c825490565b5f610e018383612d67565b5f805f1983850993909202808410938190039390930393915050565b634e487b715f52806020526024601cfd5b5f5f60085f9054906101000a90046001600160a01b03166001600160a01b031663f3cc69936040518163ffffffff1660e01b8152600401602060405180830381865afa158015612c53573d5f5f3e3d5ffd5b505050506040513d601f19601f82011682018060405250810190612c779190613639565b61ffff1690505f612d0c60095f9054906101000a90046001600160a01b03166001600160a01b0316634ff0876a6040518163ffffffff1660e01b8152600401602060405180830381865afa158015612cd1573d5f5f3e3d5ffd5b505050506040513d601f19601f82011682018060405250810190612cf591906135f1565b839063ffffffff908116906301e133809061298116565b9050611515612d1d8261271061344d565b8590612710612981565b5f828218828411028218610e01565b5f610e018383612b88565b5f825f018281548110612d5657612d56613372565b905f5260205f200154905092915050565b5f8181526001830160205260408120548015612e41575f612d8960018361348c565b85549091505f90612d9c9060019061348c565b9050808214612dfb575f865f018281548110612dba57612dba613372565b905f5260205f200154905080875f018481548110612dda57612dda613372565b5f918252602080832090910192909255918252600188019052604090208390555b8554869080612e0c57612e0c613654565b600190038181905f5260205f20015f90559055856001015f8681526020019081526020015f205f90556001935050505061085c565b5f91505061085c565b634e487b7160e01b5f52604160045260245ffd5b80356001600160a01b0381168114612e74575f5ffd5b919050565b5f60208284031215612e89575f5ffd5b81356001600160401b03811115612e9e575f5ffd5b8201601f81018413612eae575f5ffd5b80356001600160401b03811115612ec757612ec7612e4a565b604051600582901b90603f8201601f191681016001600160401b0381118282101715612ef557612ef5612e4a565b604052918252602081840181019290810187841115612f12575f5ffd5b6020850194505b83851015612f3857612f2a85612e5e565b815260209485019401612f19565b509695505050505050565b602081525f82518060208401528060208501604085015e5f604082850101526040601f19601f83011684010191505092915050565b5f60208284031215612f88575f5ffd5b5035919050565b5f5f60408385031215612fa0575f5ffd5b612fa983612e5e565b946020939093013593505050565b5f60208284031215612fc7575f5ffd5b610e0182612e5e565b5f5f60408385031215612fe1575f5ffd5b50508035926020909101359150565b5f5f83601f840112613000575f5ffd5b5081356001600160401b03811115613016575f5ffd5b6020830191508360208260061b85010111156121b5575f5ffd5b5f5f5f60408486031215613042575f5ffd5b83356001600160401b03811115613057575f5ffd5b61306386828701612ff0565b909790965060209590950135949350505050565b6001600160a01b0391909116815260200190565b5f5f5f6060848603121561309d575f5ffd5b6130a684612e5e565b92506130b460208501612e5e565b929592945050506040919091013590565b60ff81168114610b77575f5ffd5b61ffff81168114610b77575f5ffd5b5f5f5f606084860312156130f4575f5ffd5b83356130ff816130c5565b9250602084013561310f816130d3565b9150604084013561311f816130d3565b809150509250925092565b5f5f6040838503121561313b575f5ffd5b8235915061314b60208401612e5e565b90509250929050565b634e487b7160e01b5f52602160045260245ffd5b608081016005861061318857634e487b7160e01b5f52602160045260245ffd5b94815261ffff93841660208201529190921660408201526060015290565b5f5f5f606084860312156131b8575f5ffd5b833592506020840135915060408401356004811061311f575f5ffd5b5f5f602083850312156131e5575f5ffd5b82356001600160401b038111156131fa575f5ffd5b61320685828601612ff0565b90969095509350505050565b5f5f5f60608486031215613224575f5ffd5b8335925061323460208501612e5e565b915061324260408501612e5e565b90509250925092565b5f8151808452602084019350602083015f5b828110156132845781516001600160a01b031686526020958601959091019060010161325d565b5093949350505050565b604081525f6132a0604083018561324b565b82810360208401528084518083526020830191506020860192505f5b818110156132e057835163ffffffff168352602093840193909201916001016132bc565b50909695505050505050565b604081525f6132fe604083018561324b565b82810360208401528084518083526020830191506020860192505f5b818110156132e057835183526020938401939092019160010161331a565b5f5f60408385031215613349575f5ffd5b61335283612e5e565b915061314b60208401612e5e565b602081525f610e01602083018461324b565b634e487b7160e01b5f52603260045260245ffd5b5f60208284031215613396575f5ffd5b81518015158114610e01575f5ffd5b600181811c908216806133b957607f821691505b6020821081036133d757634e487b7160e01b5f52602260045260245ffd5b50919050565b5f602082840312156133ed575f5ffd5b5051919050565b6001600160a01b039390931683526020830191909152604082015260600190565b6001600160a01b039384168152919092166020820152604081019190915260600190565b634e487b7160e01b5f52601160045260245ffd5b8082018082111561085c5761085c613439565b63ffffffff81168114610b77575f5ffd5b5f60208284031215613481575f5ffd5b8135610e0181613460565b8181038181111561085c5761085c613439565b6001815b60018411156134da578085048111156134be576134be613439565b60018416156134cc57908102905b60019390931c9280026134a3565b935093915050565b5f826134f05750600161085c565b816134fc57505f61085c565b8160018114613512576002811461351c57613538565b600191505061085c565b60ff84111561352d5761352d613439565b50506001821b61085c565b5060208310610133831016604e8410600b841016171561355b575081810a61085c565b6135675f19848461349f565b805f190482111561357a5761357a613439565b029392505050565b5f610e0160ff8416836134e2565b6001600160a01b03929092168252602082015260400190565b5f602082840312156135b9575f5ffd5b8151610e01816130c5565b60ff828116828216039081111561085c5761085c613439565b634e487b7160e01b5f52601260045260245ffd5b5f60208284031215613601575f5ffd5b8151610e0181613460565b5f60ff83168061362a57634e487b7160e01b5f52601260045260245ffd5b8060ff84160691505092915050565b5f60208284031215613649575f5ffd5b8151610e01816130d3565b634e487b7160e01b5f52603160045260245ffdfea2646970667358221220f34e385fe9e9d91d83569ca092d518b4274eee41654602e9b4771e2fa291fff364736f6c634300081c0033",
  "linkReferences": {},
  "deployedLinkReferences": {}
}