{
  "_format": "hh-sol-artifact-1",
  "contractName": "OrionTransparentVault",
  "sourceName": "contracts/vaults/OrionTransparentVault.sol",
  "abi": [
    {
      "inputs": [
        {
          "internalType": "address",
          "name": "vaultOwner",
          "type": "address"
        },
        {
          "internalType": "address",
          "name": "curator",
          "type": "address"
        },
        {
          "internalType": "contract IOrionConfig",
          "name": "configAddress",
          "type": "address"
        },
        {
          "internalType": "string",
          "name": "name",
          "type": "string"
        },
        {
          "internalType": "string",
          "name": "symbol",
          "type": "string"
        },
        {
          "internalType": "uint8",
          "name": "feeType",
          "type": "uint8"
        },
        {
          "internalType": "uint16",
          "name": "performanceFee",
          "type": "uint16"
        },
        {
          "internalType": "uint16",
          "name": "managementFee",
          "type": "uint16"
        }
      ],
      "stateMutability": "nonpayable",
      "type": "constructor"
    },
    {
      "inputs": [],
      "name": "AlreadyRegistered",
      "type": "error"
    },
    {
      "inputs": [
        {
          "internalType": "address",
          "name": "asset",
          "type": "address"
        }
      ],
      "name": "AmountMustBeGreaterThanZero",
      "type": "error"
    },
    {
      "inputs": [
        {
          "internalType": "uint256",
          "name": "amount",
          "type": "uint256"
        },
        {
          "internalType": "uint256",
          "name": "minimum",
          "type": "uint256"
        }
      ],
      "name": "BelowMinimumDeposit",
      "type": "error"
    },
    {
      "inputs": [
        {
          "internalType": "uint256",
          "name": "amount",
          "type": "uint256"
        },
        {
          "internalType": "uint256",
          "name": "minimum",
          "type": "uint256"
        }
      ],
      "name": "BelowMinimumRedeem",
      "type": "error"
    },
    {
      "inputs": [
        {
          "internalType": "address",
          "name": "spender",
          "type": "address"
        },
        {
          "internalType": "uint256",
          "name": "allowance",
          "type": "uint256"
        },
        {
          "internalType": "uint256",
          "name": "needed",
          "type": "uint256"
        }
      ],
      "name": "ERC20InsufficientAllowance",
      "type": "error"
    },
    {
      "inputs": [
        {
          "internalType": "address",
          "name": "sender",
          "type": "address"
        },
        {
          "internalType": "uint256",
          "name": "balance",
          "type": "uint256"
        },
        {
          "internalType": "uint256",
          "name": "needed",
          "type": "uint256"
        }
      ],
      "name": "ERC20InsufficientBalance",
      "type": "error"
    },
    {
      "inputs": [
        {
          "internalType": "address",
          "name": "approver",
          "type": "address"
        }
      ],
      "name": "ERC20InvalidApprover",
      "type": "error"
    },
    {
      "inputs": [
        {
          "internalType": "address",
          "name": "receiver",
          "type": "address"
        }
      ],
      "name": "ERC20InvalidReceiver",
      "type": "error"
    },
    {
      "inputs": [
        {
          "internalType": "address",
          "name": "sender",
          "type": "address"
        }
      ],
      "name": "ERC20InvalidSender",
      "type": "error"
    },
    {
      "inputs": [
        {
          "internalType": "address",
          "name": "spender",
          "type": "address"
        }
      ],
      "name": "ERC20InvalidSpender",
      "type": "error"
    },
    {
      "inputs": [
        {
          "internalType": "address",
          "name": "receiver",
          "type": "address"
        },
        {
          "internalType": "uint256",
          "name": "assets",
          "type": "uint256"
        },
        {
          "internalType": "uint256",
          "name": "max",
          "type": "uint256"
        }
      ],
      "name": "ERC4626ExceededMaxDeposit",
      "type": "error"
    },
    {
      "inputs": [
        {
          "internalType": "address",
          "name": "receiver",
          "type": "address"
        },
        {
          "internalType": "uint256",
          "name": "shares",
          "type": "uint256"
        },
        {
          "internalType": "uint256",
          "name": "max",
          "type": "uint256"
        }
      ],
      "name": "ERC4626ExceededMaxMint",
      "type": "error"
    },
    {
      "inputs": [
        {
          "internalType": "address",
          "name": "owner",
          "type": "address"
        },
        {
          "internalType": "uint256",
          "name": "shares",
          "type": "uint256"
        },
        {
          "internalType": "uint256",
          "name": "max",
          "type": "uint256"
        }
      ],
      "name": "ERC4626ExceededMaxRedeem",
      "type": "error"
    },
    {
      "inputs": [
        {
          "internalType": "address",
          "name": "owner",
          "type": "address"
        },
        {
          "internalType": "uint256",
          "name": "assets",
          "type": "uint256"
        },
        {
          "internalType": "uint256",
          "name": "max",
          "type": "uint256"
        }
      ],
      "name": "ERC4626ExceededMaxWithdraw",
      "type": "error"
    },
    {
      "inputs": [],
      "name": "EnforcedPause",
      "type": "error"
    },
    {
      "inputs": [],
      "name": "ExpectedPause",
      "type": "error"
    },
    {
      "inputs": [],
      "name": "InsufficientAmount",
      "type": "error"
    },
    {
      "inputs": [],
      "name": "InvalidAddress",
      "type": "error"
    },
    {
      "inputs": [],
      "name": "InvalidArguments",
      "type": "error"
    },
    {
      "inputs": [],
      "name": "InvalidTotalWeight",
      "type": "error"
    },
    {
      "inputs": [],
      "name": "InvalidUnderlyingDecimals",
      "type": "error"
    },
    {
      "inputs": [],
      "name": "NotAuthorized",
      "type": "error"
    },
    {
      "inputs": [],
      "name": "OrderIntentCannotBeEmpty",
      "type": "error"
    },
    {
      "inputs": [],
      "name": "ReentrancyGuardReentrantCall",
      "type": "error"
    },
    {
      "inputs": [
        {
          "internalType": "address",
          "name": "token",
          "type": "address"
        }
      ],
      "name": "SafeERC20FailedOperation",
      "type": "error"
    },
    {
      "inputs": [],
      "name": "SynchronousCallDisabled",
      "type": "error"
    },
    {
      "inputs": [],
      "name": "SystemNotIdle",
      "type": "error"
    },
    {
      "inputs": [
        {
          "internalType": "address",
          "name": "token",
          "type": "address"
        }
      ],
      "name": "TokenAlreadyInOrder",
      "type": "error"
    },
    {
      "inputs": [
        {
          "internalType": "address",
          "name": "token",
          "type": "address"
        }
      ],
      "name": "TokenNotWhitelisted",
      "type": "error"
    },
    {
      "inputs": [],
      "name": "VaultDecommissioned",
      "type": "error"
    },
    {
      "anonymous": false,
      "inputs": [
        {
          "indexed": true,
          "internalType": "address",
          "name": "owner",
          "type": "address"
        },
        {
          "indexed": true,
          "internalType": "address",
          "name": "spender",
          "type": "address"
        },
        {
          "indexed": false,
          "internalType": "uint256",
          "name": "value",
          "type": "uint256"
        }
      ],
      "name": "Approval",
      "type": "event"
    },
    {
      "anonymous": false,
      "inputs": [
        {
          "indexed": true,
          "internalType": "uint256",
          "name": "epoch",
          "type": "uint256"
        },
        {
          "indexed": true,
          "internalType": "uint256",
          "name": "feeAmount",
          "type": "uint256"
        },
        {
          "indexed": true,
          "internalType": "uint256",
          "name": "pendingCuratorFees",
          "type": "uint256"
        }
      ],
      "name": "CuratorFeesAccrued",
      "type": "event"
    },
    {
      "anonymous": false,
      "inputs": [
        {
          "indexed": true,
          "internalType": "address",
          "name": "newCurator",
          "type": "address"
        }
      ],
      "name": "CuratorUpdated",
      "type": "event"
    },
    {
      "anonymous": false,
      "inputs": [
        {
          "indexed": true,
          "internalType": "address",
          "name": "sender",
          "type": "address"
        },
        {
          "indexed": true,
          "internalType": "address",
          "name": "owner",
          "type": "address"
        },
        {
          "indexed": false,
          "internalType": "uint256",
          "name": "assets",
          "type": "uint256"
        },
        {
          "indexed": false,
          "internalType": "uint256",
          "name": "shares",
          "type": "uint256"
        }
      ],
      "name": "Deposit",
      "type": "event"
    },
    {
      "anonymous": false,
      "inputs": [
        {
          "indexed": true,
          "internalType": "address",
          "name": "vault",
          "type": "address"
        },
        {
          "indexed": true,
          "internalType": "address",
          "name": "user",
          "type": "address"
        },
        {
          "indexed": true,
          "internalType": "uint256",
          "name": "epoch",
          "type": "uint256"
        },
        {
          "indexed": false,
          "internalType": "uint256",
          "name": "depositAmount",
          "type": "uint256"
        },
        {
          "indexed": false,
          "internalType": "uint256",
          "name": "sharesMinted",
          "type": "uint256"
        }
      ],
      "name": "Deposit",
      "type": "event"
    },
    {
      "anonymous": false,
      "inputs": [
        {
          "indexed": true,
          "internalType": "address",
          "name": "sender",
          "type": "address"
        },
        {
          "indexed": true,
          "internalType": "uint256",
          "name": "assets",
          "type": "uint256"
        }
      ],
      "name": "DepositRequest",
      "type": "event"
    },
    {
      "anonymous": false,
      "inputs": [
        {
          "indexed": true,
          "internalType": "address",
          "name": "user",
          "type": "address"
        },
        {
          "indexed": true,
          "internalType": "uint256",
          "name": "amount",
          "type": "uint256"
        }
      ],
      "name": "DepositRequestCancelled",
      "type": "event"
    },
    {
      "anonymous": false,
      "inputs": [
        {
          "indexed": true,
          "internalType": "uint8",
          "name": "mode",
          "type": "uint8"
        },
        {
          "indexed": true,
          "internalType": "uint16",
          "name": "performanceFee",
          "type": "uint16"
        },
        {
          "indexed": true,
          "internalType": "uint16",
          "name": "managementFee",
          "type": "uint16"
        }
      ],
      "name": "FeeModelUpdated",
      "type": "event"
    },
    {
      "anonymous": false,
      "inputs": [
        {
          "indexed": true,
          "internalType": "address",
          "name": "curator",
          "type": "address"
        }
      ],
      "name": "OrderSubmitted",
      "type": "event"
    },
    {
      "anonymous": false,
      "inputs": [
        {
          "indexed": false,
          "internalType": "address",
          "name": "account",
          "type": "address"
        }
      ],
      "name": "Paused",
      "type": "event"
    },
    {
      "anonymous": false,
      "inputs": [
        {
          "indexed": true,
          "internalType": "address",
          "name": "vault",
          "type": "address"
        },
        {
          "indexed": true,
          "internalType": "address",
          "name": "user",
          "type": "address"
        },
        {
          "indexed": true,
          "internalType": "uint256",
          "name": "epoch",
          "type": "uint256"
        },
        {
          "indexed": false,
          "internalType": "uint256",
          "name": "redeemAmount",
          "type": "uint256"
        },
        {
          "indexed": false,
          "internalType": "uint256",
          "name": "sharesBurned",
          "type": "uint256"
        }
      ],
      "name": "Redeem",
      "type": "event"
    },
    {
      "anonymous": false,
      "inputs": [
        {
          "indexed": true,
          "internalType": "address",
          "name": "sender",
          "type": "address"
        },
        {
          "indexed": true,
          "internalType": "uint256",
          "name": "shares",
          "type": "uint256"
        }
      ],
      "name": "RedeemRequest",
      "type": "event"
    },
    {
      "anonymous": false,
      "inputs": [
        {
          "indexed": true,
          "internalType": "address",
          "name": "user",
          "type": "address"
        },
        {
          "indexed": true,
          "internalType": "uint256",
          "name": "shares",
          "type": "uint256"
        }
      ],
      "name": "RedeemRequestCancelled",
      "type": "event"
    },
    {
      "anonymous": false,
      "inputs": [
        {
          "indexed": true,
          "internalType": "address",
          "name": "from",
          "type": "address"
        },
        {
          "indexed": true,
          "internalType": "address",
          "name": "to",
          "type": "address"
        },
        {
          "indexed": false,
          "internalType": "uint256",
          "name": "value",
          "type": "uint256"
        }
      ],
      "name": "Transfer",
      "type": "event"
    },
    {
      "anonymous": false,
      "inputs": [
        {
          "indexed": false,
          "internalType": "address",
          "name": "account",
          "type": "address"
        }
      ],
      "name": "Unpaused",
      "type": "event"
    },
    {
      "anonymous": false,
      "inputs": [
        {
          "indexed": true,
          "internalType": "address",
          "name": "vault",
          "type": "address"
        }
      ],
      "name": "VaultFeeChangeScheduled",
      "type": "event"
    },
    {
      "anonymous": false,
      "inputs": [
        {
          "indexed": true,
          "internalType": "uint256",
          "name": "newTotalAssets",
          "type": "uint256"
        }
      ],
      "name": "VaultStateUpdated",
      "type": "event"
    },
    {
      "anonymous": false,
      "inputs": [
        {
          "indexed": false,
          "internalType": "address[]",
          "name": "assets",
          "type": "address[]"
        }
      ],
      "name": "VaultWhitelistUpdated",
      "type": "event"
    },
    {
      "anonymous": false,
      "inputs": [
        {
          "indexed": true,
          "internalType": "address",
          "name": "sender",
          "type": "address"
        },
        {
          "indexed": true,
          "internalType": "address",
          "name": "receiver",
          "type": "address"
        },
        {
          "indexed": true,
          "internalType": "address",
          "name": "owner",
          "type": "address"
        },
        {
          "indexed": false,
          "internalType": "uint256",
          "name": "assets",
          "type": "uint256"
        },
        {
          "indexed": false,
          "internalType": "uint256",
          "name": "shares",
          "type": "uint256"
        }
      ],
      "name": "Withdraw",
      "type": "event"
    },
    {
      "inputs": [],
      "name": "BASIS_POINTS_FACTOR",
      "outputs": [
        {
          "internalType": "uint16",
          "name": "",
          "type": "uint16"
        }
      ],
      "stateMutability": "view",
      "type": "function"
    },
    {
      "inputs": [],
      "name": "MAX_FULFILL_BATCH_SIZE",
      "outputs": [
        {
          "internalType": "uint16",
          "name": "",
          "type": "uint16"
        }
      ],
      "stateMutability": "view",
      "type": "function"
    },
    {
      "inputs": [],
      "name": "MAX_MANAGEMENT_FEE",
      "outputs": [
        {
          "internalType": "uint16",
          "name": "",
          "type": "uint16"
        }
      ],
      "stateMutability": "view",
      "type": "function"
    },
    {
      "inputs": [],
      "name": "MAX_PERFORMANCE_FEE",
      "outputs": [
        {
          "internalType": "uint16",
          "name": "",
          "type": "uint16"
        }
      ],
      "stateMutability": "view",
      "type": "function"
    },
    {
      "inputs": [],
      "name": "SHARE_DECIMALS",
      "outputs": [
        {
          "internalType": "uint8",
          "name": "",
          "type": "uint8"
        }
      ],
      "stateMutability": "view",
      "type": "function"
    },
    {
      "inputs": [],
      "name": "YEAR_IN_SECONDS",
      "outputs": [
        {
          "internalType": "uint32",
          "name": "",
          "type": "uint32"
        }
      ],
      "stateMutability": "view",
      "type": "function"
    },
    {
      "inputs": [
        {
          "internalType": "uint256",
          "name": "epoch",
          "type": "uint256"
        },
        {
          "internalType": "uint256",
          "name": "feeAmount",
          "type": "uint256"
        }
      ],
      "name": "accrueCuratorFees",
      "outputs": [],
      "stateMutability": "nonpayable",
      "type": "function"
    },
    {
      "inputs": [
        {
          "internalType": "address",
          "name": "owner",
          "type": "address"
        },
        {
          "internalType": "address",
          "name": "spender",
          "type": "address"
        }
      ],
      "name": "allowance",
      "outputs": [
        {
          "internalType": "uint256",
          "name": "",
          "type": "uint256"
        }
      ],
      "stateMutability": "view",
      "type": "function"
    },
    {
      "inputs": [
        {
          "internalType": "address",
          "name": "spender",
          "type": "address"
        },
        {
          "internalType": "uint256",
          "name": "value",
          "type": "uint256"
        }
      ],
      "name": "approve",
      "outputs": [
        {
          "internalType": "bool",
          "name": "",
          "type": "bool"
        }
      ],
      "stateMutability": "nonpayable",
      "type": "function"
    },
    {
      "inputs": [],
      "name": "asset",
      "outputs": [
        {
          "internalType": "address",
          "name": "",
          "type": "address"
        }
      ],
      "stateMutability": "view",
      "type": "function"
    },
    {
      "inputs": [
        {
          "internalType": "address",
          "name": "account",
          "type": "address"
        }
      ],
      "name": "balanceOf",
      "outputs": [
        {
          "internalType": "uint256",
          "name": "",
          "type": "uint256"
        }
      ],
      "stateMutability": "view",
      "type": "function"
    },
    {
      "inputs": [
        {
          "internalType": "uint256",
          "name": "amount",
          "type": "uint256"
        }
      ],
      "name": "cancelDepositRequest",
      "outputs": [],
      "stateMutability": "nonpayable",
      "type": "function"
    },
    {
      "inputs": [
        {
          "internalType": "uint256",
          "name": "shares",
          "type": "uint256"
        }
      ],
      "name": "cancelRedeemRequest",
      "outputs": [],
      "stateMutability": "nonpayable",
      "type": "function"
    },
    {
      "inputs": [
        {
          "internalType": "uint256",
          "name": "amount",
          "type": "uint256"
        }
      ],
      "name": "claimCuratorFees",
      "outputs": [],
      "stateMutability": "nonpayable",
      "type": "function"
    },
    {
      "inputs": [],
      "name": "config",
      "outputs": [
        {
          "internalType": "contract IOrionConfig",
          "name": "",
          "type": "address"
        }
      ],
      "stateMutability": "view",
      "type": "function"
    },
    {
      "inputs": [
        {
          "internalType": "uint256",
          "name": "shares",
          "type": "uint256"
        }
      ],
      "name": "convertToAssets",
      "outputs": [
        {
          "internalType": "uint256",
          "name": "",
          "type": "uint256"
        }
      ],
      "stateMutability": "view",
      "type": "function"
    },
    {
      "inputs": [
        {
          "internalType": "uint256",
          "name": "shares",
          "type": "uint256"
        },
        {
          "internalType": "uint256",
          "name": "pointInTimeTotalAssets",
          "type": "uint256"
        },
        {
          "internalType": "enum Math.Rounding",
          "name": "rounding",
          "type": "uint8"
        }
      ],
      "name": "convertToAssetsWithPITTotalAssets",
      "outputs": [
        {
          "internalType": "uint256",
          "name": "",
          "type": "uint256"
        }
      ],
      "stateMutability": "view",
      "type": "function"
    },
    {
      "inputs": [
        {
          "internalType": "uint256",
          "name": "assets",
          "type": "uint256"
        }
      ],
      "name": "convertToShares",
      "outputs": [
        {
          "internalType": "uint256",
          "name": "",
          "type": "uint256"
        }
      ],
      "stateMutability": "view",
      "type": "function"
    },
    {
      "inputs": [],
      "name": "curator",
      "outputs": [
        {
          "internalType": "address",
          "name": "",
          "type": "address"
        }
      ],
      "stateMutability": "view",
      "type": "function"
    },
    {
      "inputs": [
        {
          "internalType": "uint256",
          "name": "activeTotalAssets",
          "type": "uint256"
        }
      ],
      "name": "curatorFee",
      "outputs": [
        {
          "internalType": "uint256",
          "name": "",
          "type": "uint256"
        }
      ],
      "stateMutability": "view",
      "type": "function"
    },
    {
      "inputs": [],
      "name": "curatorIntentDecimals",
      "outputs": [
        {
          "internalType": "uint8",
          "name": "",
          "type": "uint8"
        }
      ],
      "stateMutability": "view",
      "type": "function"
    },
    {
      "inputs": [],
      "name": "decimals",
      "outputs": [
        {
          "internalType": "uint8",
          "name": "",
          "type": "uint8"
        }
      ],
      "stateMutability": "view",
      "type": "function"
    },
    {
      "inputs": [
        {
          "internalType": "uint256",
          "name": "",
          "type": "uint256"
        },
        {
          "internalType": "address",
          "name": "",
          "type": "address"
        }
      ],
      "name": "deposit",
      "outputs": [
        {
          "internalType": "uint256",
          "name": "",
          "type": "uint256"
        }
      ],
      "stateMutability": "pure",
      "type": "function"
    },
    {
      "inputs": [],
      "name": "feeModel",
      "outputs": [
        {
          "internalType": "enum OrionVault.FeeType",
          "name": "feeType",
          "type": "uint8"
        },
        {
          "internalType": "uint16",
          "name": "performanceFee",
          "type": "uint16"
        },
        {
          "internalType": "uint16",
          "name": "managementFee",
          "type": "uint16"
        },
        {
          "internalType": "uint256",
          "name": "highWaterMark",
          "type": "uint256"
        }
      ],
      "stateMutability": "view",
      "type": "function"
    },
    {
      "inputs": [
        {
          "internalType": "uint256",
          "name": "depositTotalAssets",
          "type": "uint256"
        }
      ],
      "name": "fulfillDeposit",
      "outputs": [],
      "stateMutability": "nonpayable",
      "type": "function"
    },
    {
      "inputs": [
        {
          "internalType": "uint256",
          "name": "redeemTotalAssets",
          "type": "uint256"
        }
      ],
      "name": "fulfillRedeem",
      "outputs": [],
      "stateMutability": "nonpayable",
      "type": "function"
    },
    {
      "inputs": [],
      "name": "getIntent",
      "outputs": [
        {
          "internalType": "address[]",
          "name": "tokens",
          "type": "address[]"
        },
        {
          "internalType": "uint32[]",
          "name": "weights",
          "type": "uint32[]"
        }
      ],
      "stateMutability": "view",
      "type": "function"
    },
    {
      "inputs": [],
      "name": "getPortfolio",
      "outputs": [
        {
          "internalType": "address[]",
          "name": "tokens",
          "type": "address[]"
        },
        {
          "internalType": "uint256[]",
          "name": "sharesPerAsset",
          "type": "uint256[]"
        }
      ],
      "stateMutability": "view",
      "type": "function"
    },
    {
      "inputs": [],
      "name": "internalStatesOrchestrator",
      "outputs": [
        {
          "internalType": "contract IInternalStateOrchestrator",
          "name": "",
          "type": "address"
        }
      ],
      "stateMutability": "view",
      "type": "function"
    },
    {
      "inputs": [],
      "name": "isDecommissioning",
      "outputs": [
        {
          "internalType": "bool",
          "name": "",
          "type": "bool"
        }
      ],
      "stateMutability": "view",
      "type": "function"
    },
    {
      "inputs": [],
      "name": "liquidityOrchestrator",
      "outputs": [
        {
          "internalType": "contract ILiquidityOrchestrator",
          "name": "",
          "type": "address"
        }
      ],
      "stateMutability": "view",
      "type": "function"
    },
    {
      "inputs": [
        {
          "internalType": "address",
          "name": "",
          "type": "address"
        }
      ],
      "name": "maxDeposit",
      "outputs": [
        {
          "internalType": "uint256",
          "name": "",
          "type": "uint256"
        }
      ],
      "stateMutability": "view",
      "type": "function"
    },
    {
      "inputs": [
        {
          "internalType": "address",
          "name": "",
          "type": "address"
        }
      ],
      "name": "maxMint",
      "outputs": [
        {
          "internalType": "uint256",
          "name": "",
          "type": "uint256"
        }
      ],
      "stateMutability": "view",
      "type": "function"
    },
    {
      "inputs": [
        {
          "internalType": "address",
          "name": "owner",
          "type": "address"
        }
      ],
      "name": "maxRedeem",
      "outputs": [
        {
          "internalType": "uint256",
          "name": "",
          "type": "uint256"
        }
      ],
      "stateMutability": "view",
      "type": "function"
    },
    {
      "inputs": [
        {
          "internalType": "address",
          "name": "owner",
          "type": "address"
        }
      ],
      "name": "maxWithdraw",
      "outputs": [
        {
          "internalType": "uint256",
          "name": "",
          "type": "uint256"
        }
      ],
      "stateMutability": "view",
      "type": "function"
    },
    {
      "inputs": [
        {
          "internalType": "uint256",
          "name": "",
          "type": "uint256"
        },
        {
          "internalType": "address",
          "name": "",
          "type": "address"
        }
      ],
      "name": "mint",
      "outputs": [
        {
          "internalType": "uint256",
          "name": "",
          "type": "uint256"
        }
      ],
      "stateMutability": "pure",
      "type": "function"
    },
    {
      "inputs": [],
      "name": "name",
      "outputs": [
        {
          "internalType": "string",
          "name": "",
          "type": "string"
        }
      ],
      "stateMutability": "view",
      "type": "function"
    },
    {
      "inputs": [],
      "name": "newFeeRatesTimestamp",
      "outputs": [
        {
          "internalType": "uint256",
          "name": "",
          "type": "uint256"
        }
      ],
      "stateMutability": "view",
      "type": "function"
    },
    {
      "inputs": [],
      "name": "overrideIntentForDecommissioning",
      "outputs": [],
      "stateMutability": "nonpayable",
      "type": "function"
    },
    {
      "inputs": [],
      "name": "pause",
      "outputs": [],
      "stateMutability": "nonpayable",
      "type": "function"
    },
    {
      "inputs": [],
      "name": "paused",
      "outputs": [
        {
          "internalType": "bool",
          "name": "",
          "type": "bool"
        }
      ],
      "stateMutability": "view",
      "type": "function"
    },
    {
      "inputs": [],
      "name": "pendingCuratorFees",
      "outputs": [
        {
          "internalType": "uint256",
          "name": "",
          "type": "uint256"
        }
      ],
      "stateMutability": "view",
      "type": "function"
    },
    {
      "inputs": [],
      "name": "pendingDeposit",
      "outputs": [
        {
          "internalType": "uint256",
          "name": "",
          "type": "uint256"
        }
      ],
      "stateMutability": "view",
      "type": "function"
    },
    {
      "inputs": [],
      "name": "pendingRedeem",
      "outputs": [
        {
          "internalType": "uint256",
          "name": "",
          "type": "uint256"
        }
      ],
      "stateMutability": "view",
      "type": "function"
    },
    {
      "inputs": [
        {
          "internalType": "uint256",
          "name": "assets",
          "type": "uint256"
        }
      ],
      "name": "previewDeposit",
      "outputs": [
        {
          "internalType": "uint256",
          "name": "",
          "type": "uint256"
        }
      ],
      "stateMutability": "view",
      "type": "function"
    },
    {
      "inputs": [
        {
          "internalType": "uint256",
          "name": "shares",
          "type": "uint256"
        }
      ],
      "name": "previewMint",
      "outputs": [
        {
          "internalType": "uint256",
          "name": "",
          "type": "uint256"
        }
      ],
      "stateMutability": "view",
      "type": "function"
    },
    {
      "inputs": [
        {
          "internalType": "uint256",
          "name": "shares",
          "type": "uint256"
        }
      ],
      "name": "previewRedeem",
      "outputs": [
        {
          "internalType": "uint256",
          "name": "",
          "type": "uint256"
        }
      ],
      "stateMutability": "view",
      "type": "function"
    },
    {
      "inputs": [
        {
          "internalType": "uint256",
          "name": "assets",
          "type": "uint256"
        }
      ],
      "name": "previewWithdraw",
      "outputs": [
        {
          "internalType": "uint256",
          "name": "",
          "type": "uint256"
        }
      ],
      "stateMutability": "view",
      "type": "function"
    },
    {
      "inputs": [
        {
          "internalType": "uint256",
          "name": "shares",
          "type": "uint256"
        },
        {
          "internalType": "address",
          "name": "receiver",
          "type": "address"
        },
        {
          "internalType": "address",
          "name": "owner",
          "type": "address"
        }
      ],
      "name": "redeem",
      "outputs": [
        {
          "internalType": "uint256",
          "name": "",
          "type": "uint256"
        }
      ],
      "stateMutability": "nonpayable",
      "type": "function"
    },
    {
      "inputs": [
        {
          "internalType": "address",
          "name": "asset",
          "type": "address"
        }
      ],
      "name": "removeFromVaultWhitelist",
      "outputs": [],
      "stateMutability": "nonpayable",
      "type": "function"
    },
    {
      "inputs": [
        {
          "internalType": "uint256",
          "name": "assets",
          "type": "uint256"
        }
      ],
      "name": "requestDeposit",
      "outputs": [],
      "stateMutability": "nonpayable",
      "type": "function"
    },
    {
      "inputs": [
        {
          "internalType": "uint256",
          "name": "shares",
          "type": "uint256"
        }
      ],
      "name": "requestRedeem",
      "outputs": [],
      "stateMutability": "nonpayable",
      "type": "function"
    },
    {
      "inputs": [
        {
          "components": [
            {
              "internalType": "address",
              "name": "token",
              "type": "address"
            },
            {
              "internalType": "uint32",
              "name": "weight",
              "type": "uint32"
            }
          ],
          "internalType": "struct IOrionTransparentVault.IntentPosition[]",
          "name": "intent",
          "type": "tuple[]"
        }
      ],
      "name": "submitIntent",
      "outputs": [],
      "stateMutability": "nonpayable",
      "type": "function"
    },
    {
      "inputs": [],
      "name": "symbol",
      "outputs": [
        {
          "internalType": "string",
          "name": "",
          "type": "string"
        }
      ],
      "stateMutability": "view",
      "type": "function"
    },
    {
      "inputs": [],
      "name": "totalAssets",
      "outputs": [
        {
          "internalType": "uint256",
          "name": "",
          "type": "uint256"
        }
      ],
      "stateMutability": "view",
      "type": "function"
    },
    {
      "inputs": [],
      "name": "totalSupply",
      "outputs": [
        {
          "internalType": "uint256",
          "name": "",
          "type": "uint256"
        }
      ],
      "stateMutability": "view",
      "type": "function"
    },
    {
      "inputs": [
        {
          "internalType": "address",
          "name": "to",
          "type": "address"
        },
        {
          "internalType": "uint256",
          "name": "value",
          "type": "uint256"
        }
      ],
      "name": "transfer",
      "outputs": [
        {
          "internalType": "bool",
          "name": "",
          "type": "bool"
        }
      ],
      "stateMutability": "nonpayable",
      "type": "function"
    },
    {
      "inputs": [
        {
          "internalType": "address",
          "name": "from",
          "type": "address"
        },
        {
          "internalType": "address",
          "name": "to",
          "type": "address"
        },
        {
          "internalType": "uint256",
          "name": "value",
          "type": "uint256"
        }
      ],
      "name": "transferFrom",
      "outputs": [
        {
          "internalType": "bool",
          "name": "",
          "type": "bool"
        }
      ],
      "stateMutability": "nonpayable",
      "type": "function"
    },
    {
      "inputs": [],
      "name": "unpause",
      "outputs": [],
      "stateMutability": "nonpayable",
      "type": "function"
    },
    {
      "inputs": [
        {
          "internalType": "address",
          "name": "newCurator",
          "type": "address"
        }
      ],
      "name": "updateCurator",
      "outputs": [],
      "stateMutability": "nonpayable",
      "type": "function"
    },
    {
      "inputs": [
        {
          "internalType": "uint8",
          "name": "feeType",
          "type": "uint8"
        },
        {
          "internalType": "uint16",
          "name": "performanceFee",
          "type": "uint16"
        },
        {
          "internalType": "uint16",
          "name": "managementFee",
          "type": "uint16"
        }
      ],
      "name": "updateFeeModel",
      "outputs": [],
      "stateMutability": "nonpayable",
      "type": "function"
    },
    {
      "inputs": [
        {
          "components": [
            {
              "internalType": "address",
              "name": "token",
              "type": "address"
            },
            {
              "internalType": "uint256",
              "name": "shares",
              "type": "uint256"
            }
          ],
          "internalType": "struct IOrionTransparentVault.PortfolioPosition[]",
          "name": "portfolio",
          "type": "tuple[]"
        },
        {
          "internalType": "uint256",
          "name": "newTotalAssets",
          "type": "uint256"
        }
      ],
      "name": "updateVaultState",
      "outputs": [],
      "stateMutability": "nonpayable",
      "type": "function"
    },
    {
      "inputs": [
        {
          "internalType": "address[]",
          "name": "assets",
          "type": "address[]"
        }
      ],
      "name": "updateVaultWhitelist",
      "outputs": [],
      "stateMutability": "nonpayable",
      "type": "function"
    },
    {
      "inputs": [],
      "name": "vaultOwner",
      "outputs": [
        {
          "internalType": "address",
          "name": "",
          "type": "address"
        }
      ],
      "stateMutability": "view",
      "type": "function"
    },
    {
      "inputs": [],
      "name": "vaultWhitelist",
      "outputs": [
        {
          "internalType": "address[]",
          "name": "",
          "type": "address[]"
        }
      ],
      "stateMutability": "view",
      "type": "function"
    },
    {
      "inputs": [
        {
          "internalType": "uint256",
          "name": "",
          "type": "uint256"
        },
        {
          "internalType": "address",
          "name": "",
          "type": "address"
        },
        {
          "internalType": "address",
          "name": "",
          "type": "address"
        }
      ],
      "name": "withdraw",
      "outputs": [
        {
          "internalType": "uint256",
          "name": "",
          "type": "uint256"
        }
      ],
      "stateMutability": "pure",
      "type": "function"
    }
  ],
  "bytecode": "0x60c060405234801561000f575f5ffd5b506040516150c13803806150c183398101604081905261002e916109c0565b8787878787878787856001600160a01b0316637158da7c6040518163ffffffff1660e01b8152600401602060405180830381865afa158015610072573d5f5f3e3d5ffd5b505050506040513d601f19601f820116820180604052508101906100969190610a8f565b858560036100a48382610b35565b5060046100b18282610b35565b5050505f5f6100c58361067c60201b60201c565b91509150816100d55760126100d7565b805b60ff1660a05250506001600160a01b03908116608052600160055587166101115760405163e6c4247b60e01b815260040160405180910390fd5b6001600160a01b0386166101385760405163e6c4247b60e01b815260040160405180910390fd5b600680546001600160a01b03808b1661010002610100600160a81b031990921691909117909155600780548983166001600160a01b03199182161790915560088054928916929091168217905560408051630691d8b960e31b8152905163348ec5c8916004808201926020929091908290030181865afa1580156101be573d5f5f3e3d5ffd5b505050506040513d601f19601f820116820180604052508101906101e29190610a8f565b60095f6101000a8154816001600160a01b0302191690836001600160a01b03160217905550856001600160a01b0316633a0dad8e6040518163ffffffff1660e01b8152600401602060405180830381865afa158015610243573d5f5f3e3d5ffd5b505050506040513d601f19601f820116820180604052508101906102679190610a8f565b600a5f6101000a8154816001600160a01b0302191690836001600160a01b03160217905550856001600160a01b031663d1717c7d6040518163ffffffff1660e01b8152600401602060405180830381865afa1580156102c8573d5f5f3e3d5ffd5b505050506040513d601f19601f820116820180604052508101906102ec9190610bef565b600a60146101000a81548160ff021916908360ff1602179055505f866001600160a01b0316637158da7c6040518163ffffffff1660e01b8152600401602060405180830381865afa158015610343573d5f5f3e3d5ffd5b505050506040513d601f19601f820116820180604052508101906103679190610a8f565b6001600160a01b031663313ce5676040518163ffffffff1660e01b8152600401602060405180830381865afa1580156103a2573d5f5f3e3d5ffd5b505050506040513d601f19601f820116820180604052508101906103c69190610bef565b9050601260ff821611156103ed57604051631c03248960e11b815260040160405180910390fd5b600460ff85161115610412576040516317dbc4cb60e21b815260040160405180910390fd5b610bb861ffff84161115610439576040516317dbc4cb60e21b815260040160405180910390fd5b61012c61ffff83161115610460576040516317dbc4cb60e21b815260040160405180910390fd5b8360ff16600481111561047557610475610c08565b6017805460ff1916600183600481111561049157610491610c08565b02179055506017805461ffff84811663010000000264ffff00000019918716610100029190911664ffffffff0019909216919091171790556104d481600a610d13565b60185560178054601a8054909160ff1690829060ff191660018360048111156104ff576104ff610c08565b02179055508154815461ffff61010092839004811690920262ffff0019821681178455845463010000009081900490931690920264ffff0000001990921664ffffffff00199091161717815560019182015491015542601955610560610752565b50505050505050505061066e60085f9054906101000a90046001600160a01b03166001600160a01b0316637158da7c6040518163ffffffff1660e01b8152600401602060405180830381865afa1580156105bc573d5f5f3e3d5ffd5b505050506040513d601f19601f820116820180604052508101906105e09190610a8f565b60085f9054906101000a90046001600160a01b03166001600160a01b031663d1717c7d6040518163ffffffff1660e01b8152600401602060405180830381865afa158015610630573d5f5f3e3d5ffd5b505050506040513d601f19601f820116820180604052508101906106549190610bef565b61065f90600a610d13565b6020919063ffffffff16610827565b505050505050505050610e14565b60408051600481526024810182526020810180516001600160e01b031663313ce56760e01b17905290515f918291829182916001600160a01b038716916106c291610d21565b5f60405180830381855afa9150503d805f81146106fa576040519150601f19603f3d011682016040523d82523d5f602084013e6106ff565b606091505b509150915081801561071357506020815110155b15610746575f8180602001905181019061072d9190610d37565b905060ff8111610744576001969095509350505050565b505b505f9485945092505050565b60085460408051636c366a2760e11b815290515f926001600160a01b03169163d86cd44e91600480830192869291908290030181865afa158015610798573d5f5f3e3d5ffd5b505050506040513d5f823e601f3d908101601f191682016040526107bf9190810190610d4e565b90505f5b8151811015610823575f6107fa8383815181106107e2576107e2610e00565b6020026020010151600b61084460201b90919060201c565b90508061081a57604051630ea075bf60e21b815260040160405180910390fd5b506001016107c3565b5050565b5f61083c846001600160a01b03851684610861565b949350505050565b5f610858836001600160a01b03841661087d565b90505b92915050565b5f828152600284016020526040812082905561083c84846108c9565b5f8181526001830160205260408120546108c257508154600181810184555f84815260208082209093018490558454848252828601909352604090209190915561085b565b505f61085b565b5f610858838361087d565b6001600160a01b03811681146108e8575f5ffd5b50565b634e487b7160e01b5f52604160045260245ffd5b604051601f8201601f191681016001600160401b0381118282101715610927576109276108eb565b604052919050565b5f82601f83011261093e575f5ffd5b81516001600160401b03811115610957576109576108eb565b61096a601f8201601f19166020016108ff565b81815284602083860101111561097e575f5ffd5b8160208501602083015e5f918101602001919091529392505050565b805160ff811681146109aa575f5ffd5b919050565b805161ffff811681146109aa575f5ffd5b5f5f5f5f5f5f5f5f610100898b0312156109d8575f5ffd5b88516109e3816108d4565b60208a01519098506109f4816108d4565b60408a0151909750610a05816108d4565b60608a01519096506001600160401b03811115610a20575f5ffd5b610a2c8b828c0161092f565b60808b015190965090506001600160401b03811115610a49575f5ffd5b610a558b828c0161092f565b945050610a6460a08a0161099a565b9250610a7260c08a016109af565b9150610a8060e08a016109af565b90509295985092959890939650565b5f60208284031215610a9f575f5ffd5b8151610aaa816108d4565b9392505050565b600181811c90821680610ac557607f821691505b602082108103610ae357634e487b7160e01b5f52602260045260245ffd5b50919050565b601f821115610b3057805f5260205f20601f840160051c81016020851015610b0e5750805b601f840160051c820191505b81811015610b2d575f8155600101610b1a565b50505b505050565b81516001600160401b03811115610b4e57610b4e6108eb565b610b6281610b5c8454610ab1565b84610ae9565b6020601f821160018114610b94575f8315610b7d5750848201515b5f19600385901b1c1916600184901b178455610b2d565b5f84815260208120601f198516915b82811015610bc35787850151825560209485019460019092019101610ba3565b5084821015610be057868401515f19600387901b60f8161c191681555b50505050600190811b01905550565b5f60208284031215610bff575f5ffd5b6108588261099a565b634e487b7160e01b5f52602160045260245ffd5b634e487b7160e01b5f52601160045260245ffd5b6001815b6001841115610c6b57808504811115610c4f57610c4f610c1c565b6001841615610c5d57908102905b60019390931c928002610c34565b935093915050565b5f82610c815750600161085b565b81610c8d57505f61085b565b8160018114610ca35760028114610cad57610cc9565b600191505061085b565b60ff841115610cbe57610cbe610c1c565b50506001821b61085b565b5060208310610133831016604e8410600b8410161715610cec575081810a61085b565b610cf85f198484610c30565b805f1904821115610d0b57610d0b610c1c565b029392505050565b5f61085860ff841683610c73565b5f82518060208501845e5f920191825250919050565b5f60208284031215610d47575f5ffd5b5051919050565b5f60208284031215610d5e575f5ffd5b81516001600160401b03811115610d73575f5ffd5b8201601f81018413610d83575f5ffd5b80516001600160401b03811115610d9c57610d9c6108eb565b8060051b610dac602082016108ff565b91825260208184018101929081019087841115610dc7575f5ffd5b6020850194505b83851015610df55784519250610de3836108d4565b82825260209485019490910190610dce565b979650505050505050565b634e487b7160e01b5f52603260045260245ffd5b60805160a05161428f610e325f395f50505f6110ab015261428f5ff3fe608060405234801561000f575f5ffd5b5060043610610303575f3560e01c806394bf804d1161019757806394bf804d146104e057806395d89b411461055d57806397ee114414610565578063985ba4ae1461059b5780639908840c146105ae578063a68a5267146105b7578063a9059cbb146105ca578063aa2f892d146105dd578063acdb3d51146105f0578063b1bd7e2e146105f9578063b3d7f6b91461060c578063b460af941461061f578063b6eba6531461062d578063ba08765214610643578063bdca916514610656578063c0b568e11461065f578063c3f0d30e14610672578063c63d75b61461048c578063c6e6f59214610685578063ca78e83914610698578063ce96cb77146106a0578063d1717c7d146106b3578063d3d03458146106c7578063d8279548146106dd578063d853365f146106e5578063d905777e146106ed578063dd62ed3e14610700578063e3352c4c14610713578063e51a85f614610726578063e5e9719314610739578063e66f53b71461074c578063ef8b30f714610685578063f64c6f321461075f575f5ffd5b806301e1d1141461030757806303d448541461031e57806306fdde031461033357806307a2d13a14610348578063095ea7b31461035b5780630a28a4771461037e5780630a605c6d146103915780630c6a62dd146103995780630d1e6667146103ac5780630df571f7146103bf57806318160ddd146103d257806318c21949146103da5780631f52692b146103ed57806323b872dd14610412578063283c816814610425578063313ce5671461042e578063348ec5c81461044357806338d52e0f146104565780633a0dad8e1461045e5780633ab6d27c146104715780633f4ba83a14610484578063402d267d1461048c578063493a6e21146104a05780634cdad506146103485780634e85b135146104b357806353a0bfdf146104c85780635c975abb146104d55780636e553f65146104e057806370a08231146104f35780637847ea531461050657806379502c55146105265780638456cb59146105395780638f5c946514610541575b5f5ffd5b600d545b6040519081526020015b60405180910390f35b61033161032c366004613a41565b610767565b005b61033b6109bb565b6040516103159190613ab0565b61030b610356366004613ae5565b610a4b565b61036e610369366004613b10565b610a5c565b6040519015158152602001610315565b61030b61038c366004613ae5565b610a73565b61030b610a7f565b6103316103a7366004613b3a565b610aff565b6103316103ba366004613ae5565b610c04565b6103316103cd366004613b55565b610f35565b60025461030b565b6103316103e8366004613ae5565b610fb0565b6006546104059061010090046001600160a01b031681565b6040516103159190613b75565b61036e610420366004613b89565b611084565b61030b60195481565b60125b60405160ff9091168152602001610315565b600954610405906001600160a01b031681565b6104056110a9565b600a54610405906001600160a01b031681565b61033161047f366004613be4565b6110cd565b610331611384565b61030b61049a366004613b3a565b505f1990565b6103316104ae366004613ae5565b6113b9565b6104bb6115e4565b6040516103159190613c6f565b601c5461036e9060ff1681565b60065460ff1661036e565b61030b6104ee366004613c81565b6115f5565b61030b610501366004613b3a565b61160f565b6105116301e1338081565b60405163ffffffff9091168152602001610315565b600854610405906001600160a01b031681565b610331611629565b61054a61271081565b60405161ffff9091168152602001610315565b61033b61165c565b60175460185461058b9160ff81169161ffff610100830481169263010000009004169084565b6040516103159493929190613cc3565b6103316105a9366004613d41565b61166b565b61054a61012c81565b61030b6105c5366004613d88565b611778565b61036e6105d8366004613b10565b6117b8565b6103316105eb366004613ae5565b6117c5565b61030b60165481565b610331610607366004613db6565b611a63565b61030b61061a366004613ae5565b611c6e565b61030b6104ee366004613df4565b610635611c7a565b604051610315929190613e28565b61030b610651366004613df4565b611f34565b61054a610bb881565b61033161066d366004613ae5565b61212a565b610331610680366004613ae5565b6122ea565b61030b610693366004613ae5565b61246a565b610331612475565b61030b6106ae366004613b3a565b6124af565b600a5461043190600160a01b900460ff1681565b6106cf6124c2565b604051610315929190613e86565b61054a609681565b610431601281565b61030b6106fb366004613b3a565b6125ec565b61030b61070e366004613ed2565b6125f6565b610331610721366004613b3a565b612620565b61030b610734366004613ae5565b61272b565b610331610747366004613ae5565b612764565b600754610405906001600160a01b031681565b61030b61291c565b60065461010090046001600160a01b031633146107975760405163ea8e4eb560e01b815260040160405180910390fd5b6107a1600b612994565b5f5b818110156108a1575f8383838181106107be576107be613efe565b90506020020160208101906107d39190613b3a565b600854604051633af32abf60e01b81529192506001600160a01b031690633af32abf90610804908490600401613b75565b602060405180830381865afa15801561081f573d5f5f3e3d5ffd5b505050506040513d601f19601f820116820180604052508101906108439190613f12565b61086b578060405163751dff9760e11b81526004016108629190613b75565b60405180910390fd5b5f610877600b8361299d565b90508061089757604051630ea075bf60e21b815260040160405180910390fd5b50506001016107a3565b5061090d306001600160a01b03166338d52e0f6040518163ffffffff1660e01b8152600401602060405180830381865afa1580156108e1573d5f5f3e3d5ffd5b505050506040513d601f19601f820116820180604052508101906109059190613f31565b600b906129b1565b61097e5761097c306001600160a01b03166338d52e0f6040518163ffffffff1660e01b8152600401602060405180830381865afa158015610950573d5f5f3e3d5ffd5b505050506040513d601f19601f820116820180604052508101906109749190613f31565b600b9061299d565b505b7fa975983c7a4dcf80477a447433240de322f36428f1b3864e50d7a45e14c68b6682826040516109af929190613f4c565b60405180910390a15050565b6060600380546109ca90613f98565b80601f01602080910402602001604051908101604052809291908181526020018280546109f690613f98565b8015610a415780601f10610a1857610100808354040283529160200191610a41565b820191905f5260205f20905b815481529060010190602001808311610a2457829003601f168201915b5050505050905090565b5f610a56825f6129c5565b92915050565b5f33610a69818585612a06565b5060019392505050565b5f610a56826001612a18565b5f5f610a8b6011612a4a565b90508063ffffffff165f03610aa1575f91505090565b5f609663ffffffff831611610ab65781610ab9565b60965b90505f805b8261ffff168161ffff161015610af7575f610ade601161ffff8416612a54565b9150610aec90508184613fe4565b925050600101610abe565b509392505050565b60065461010090046001600160a01b03163314610b2f5760405163ea8e4eb560e01b815260040160405180910390fd5b600854604051633c17975360e21b81526001600160a01b039091169063f05e5d4c90610b5f908490600401613b75565b602060405180830381865afa158015610b7a573d5f5f3e3d5ffd5b505050506040513d601f19601f82011682018060405250810190610b9e9190613f12565b610bbb5760405163ea8e4eb560e01b815260040160405180910390fd5b600780546001600160a01b0319166001600160a01b0383169081179091556040517f83293ffeebb677b167941693470018acf300605df266a35e9fdb66f24ff00fe0905f90a250565b610c0c612a71565b610c14612a9b565b60085f9054906101000a90046001600160a01b03166001600160a01b031663edcf9c1f6040518163ffffffff1660e01b8152600401602060405180830381865afa158015610c64573d5f5f3e3d5ffd5b505050506040513d601f19601f82011682018060405250810190610c889190613f12565b610ca5576040516312aecd8160e01b815260040160405180910390fd5b601c5460ff1680610d20575060085460405163f764eb4560e01b81526001600160a01b039091169063f764eb4590610ce1903090600401613b75565b602060405180830381865afa158015610cfc573d5f5f3e3d5ffd5b505050506040513d601f19601f82011682018060405250810190610d209190613f12565b15610d3e576040516304b1e71160e41b815260040160405180910390fd5b805f03610d6757610d4d6110a9565b604051636b30633560e01b81526004016108629190613b75565b60085460408051633228036560e11b815290515f926001600160a01b03169163645006ca9160048083019260209291908290030181865afa158015610dae573d5f5f3e3d5ffd5b505050506040513d601f19601f82011682018060405250810190610dd29190613ff7565b905080821015610df9578181604051631e2be21160e01b815260040161086292919061400e565b5f610e026110a9565b6001600160a01b03166370a08231336040518263ffffffff1660e01b8152600401610e2d9190613b75565b602060405180830381865afa158015610e48573d5f5f3e3d5ffd5b505050506040513d601f19601f82011682018060405250810190610e6c9190613ff7565b905080831115610e8f57604051632ca2f52b60e11b815260040160405180910390fd5b600a54610ebb9033906001600160a01b031685610eaa6110a9565b6001600160a01b0316929190612abf565b5f610ec7600e33612b2c565b9150610ee2905033610ed98684613fe4565b600e9190612b43565b508360145f828254610ef49190613fe4565b9091555050604051849033907f55896b30a78fc55b78937f8014dde3f0035e9d37a4f6ac36841fb8b62f7e2b13905f90a3505050610f326001600555565b50565b6009546001600160a01b03163314610f605760405163ea8e4eb560e01b815260040160405180910390fd5b8015610fac578060165f828254610f779190613fe4565b9091555050601654604051829084907f8b8789cf9157fe7b016901e4ed3a5d0971caa8b7c031da0b25638ccf65841b2a905f90a45b5050565b60065461010090046001600160a01b03163314610fe05760405163ea8e4eb560e01b815260040160405180910390fd5b805f03610fef57610d4d6110a9565b60165481111561101257604051632ca2f52b60e11b815260040160405180910390fd5b8060165f828254611023919061401c565b9091555050600a5460405163741fca4b60e01b8152600481018390526001600160a01b039091169063741fca4b906024015f604051808303815f87803b15801561106b575f5ffd5b505af115801561107d573d5f5f3e3d5ffd5b5050505050565b5f33611091858285612b58565b61109c858585612ba3565b60019150505b9392505050565b7f000000000000000000000000000000000000000000000000000000000000000090565b60065461010090046001600160a01b031633146110fd5760405163ea8e4eb560e01b815260040160405180910390fd5b60085f9054906101000a90046001600160a01b03166001600160a01b031663edcf9c1f6040518163ffffffff1660e01b8152600401602060405180830381865afa15801561114d573d5f5f3e3d5ffd5b505050506040513d601f19601f820116820180604052508101906111719190613f12565b61118e576040516312aecd8160e01b815260040160405180910390fd5b600460ff841611156111b3576040516317dbc4cb60e21b815260040160405180910390fd5b610bb861ffff831611156111da576040516317dbc4cb60e21b815260040160405180910390fd5b61012c61ffff82161115611201576040516317dbc4cb60e21b815260040160405180910390fd5b611209612c00565b8051601a8054909190829060ff1916600183600481111561122c5761122c613caf565b021790555060208201518154604084015161ffff90811663010000000264ffff0000001991909316610100021664ffffffff00199091161717815560609091015160019091015560ff8316600481111561128857611288613caf565b6017805460ff191660018360048111156112a4576112a4613caf565b02179055506017805461ffff83811663010000000264ffff00000019918616610100029190911664ffffffff00199092169190911717905560085460408051630df1aa5760e31b815290516001600160a01b0390921691636f8d52b8916004808201926020929091908290030181865afa158015611324573d5f5f3e3d5ffd5b505050506040513d601f19601f820116820180604052508101906113489190613ff7565b6113529042613fe4565b60195560405130907fb31d0e1c8c885e6966984333ce964f4a58ad72b6c4e89e688ecc4549ad97558e905f90a2505050565b6008546001600160a01b031633146113af5760405163ea8e4eb560e01b815260040160405180910390fd5b6113b7612cba565b565b600a546001600160a01b031633146113e45760405163ea8e4eb560e01b815260040160405180910390fd5b6113ec612a71565b5f6113f76011612a4a565b90508063ffffffff165f0361140c57506115da565b5f609663ffffffff8316116114215781611424565b60965b90505f60095f9054906101000a90046001600160a01b03166001600160a01b03166314b19c5a6040518163ffffffff1660e01b8152600401602060405180830381865afa158015611477573d5f5f3e3d5ffd5b505050506040513d601f19601f8201168201806040525081019061149b919061402f565b90505f6114a760025490565b90505f805b8461ffff168161ffff1610156115bd575f806114c9601182612a54565b90925090506114d9601183612d06565b505f6114e7828b885f612d1a565b90506114f33083612d4f565b6114fd8286613fe4565b600a54604051634adfc2e760e01b81529196506001600160a01b031690634adfc2e790611530908690859060040161404a565b5f604051808303815f87803b158015611547575f5ffd5b505af1158015611559573d5f5f3e3d5ffd5b505050508661ffff16836001600160a01b0316306001600160a01b03167f215abfcd108b85fbee47f26fda2de66f90f14fa5fcaf0201698ad8ac9323545f84866040516115a792919061400e565b60405180910390a45050508060010190506114ac565b508060155f8282546115cf919061401c565b909155505050505050505b610f326001600555565b60606115f0600b612d83565b905090565b5f60405163125ad87760e31b815260040160405180910390fd5b6001600160a01b03165f9081526020819052604090205490565b6008546001600160a01b031633146116545760405163ea8e4eb560e01b815260040160405180910390fd5b6113b7612d8f565b6060600480546109ca90613f98565b6009546001600160a01b031633146116965760405163ea8e4eb560e01b815260040160405180910390fd5b6116a0601d612dcc565b815f5b8161ffff168161ffff16101561171c5761171385858361ffff168181106116cc576116cc613efe565b6116e29260206040909202019081019150613b3a565b86868461ffff168181106116f8576116f8613efe565b90506040020160200135601d612b439092919063ffffffff16565b506001016116a3565b505f61172f60125b61035690600a614146565b6018549091508111156117425760188190555b600d83905560405183907f5e1ff954b5e5257e9ee5d4cb07059e8f5e69b1aaaf9911e5d8d90a6894de9c21905f90a25050505050565b5f6117b0611787846001613fe4565b61178f612dd5565b61179a90600a614146565b6002546117a79190613fe4565b86919085612e51565b949350505050565b5f33610a69818585612ba3565b6117cd612a71565b6117d5612a9b565b60085f9054906101000a90046001600160a01b03166001600160a01b031663edcf9c1f6040518163ffffffff1660e01b8152600401602060405180830381865afa158015611825573d5f5f3e3d5ffd5b505050506040513d601f19601f820116820180604052508101906118499190613f12565b611866576040516312aecd8160e01b815260040160405180910390fd5b601c5460ff16806118e1575060085460405163f764eb4560e01b81526001600160a01b039091169063f764eb45906118a2903090600401613b75565b602060405180830381865afa1580156118bd573d5f5f3e3d5ffd5b505050506040513d601f19601f820116820180604052508101906118e19190613f12565b156118ff576040516304b1e71160e41b815260040160405180910390fd5b805f036119215730604051636b30633560e01b81526004016108629190613b75565b60085460408051630912ae6d60e01b815290515f926001600160a01b031691630912ae6d9160048083019260209291908290030181865afa158015611968573d5f5f3e3d5ffd5b505050506040513d601f19601f8201168201806040525081019061198c9190613ff7565b9050808210156119b3578181604051631f29a4af60e31b815260040161086292919061400e565b5f6119bd3361160f565b9050808311156119e057604051632ca2f52b60e11b815260040160405180910390fd5b6119ec30338186612abf565b5f6119f8601133612b2c565b9150611a13905033611a0a8684613fe4565b60119190612b43565b508360155f828254611a259190613fe4565b9091555050604051849033907f222dc200773fe9b45015bf792e8fee37d651e3590c215806a5042404b6d741d2905f90a3505050610f326001600555565b6007546001600160a01b03163314611a8e5760405163ea8e4eb560e01b815260040160405180910390fd5b5f819003611aaf57604051631121aa8d60e01b815260040160405180910390fd5b611ab96020612dcc565b5f816001600160401b03811115611ad257611ad2614154565b604051908082528060200260200182016040528015611afb578160200160208202803683370190505b5090505f82815b8161ffff168161ffff161015611bf8575f86868361ffff16818110611b2957611b29613efe565b611b3f9260206040909202019081019150613b3a565b90505f87878461ffff16818110611b5857611b58613efe565b9050604002016020016020810190611b709190614179565b905081868461ffff1681518110611b8957611b89613efe565b6001600160a01b039092166020928302919091018201525f90611bb6908463ffffffff80861690612b4316565b905080611bd857826040516346bdabe160e01b81526004016108629190613b75565b611be863ffffffff831687613fe4565b9550505050806001019050611b02565b50611c0283612e93565b600a60149054906101000a900460ff16600a611c1e9190614146565b8214611c3d57604051639006dd2760e01b815260040160405180910390fd5b60405133907f2d47a742b8d7df7c1fc5a9a631b206b364e6cb2722490759f63bb3ab14b132e0905f90a25050505050565b5f610a568260016129c5565b601c54606090819060ff1615611dfd5760408051600180825281830190925290602080830190803683375050604080516001808252818301909252929450905060208083019080368337505060085460408051631c56369f60e21b815290519394506001600160a01b0390911692637158da7c925060048083019260209291908290030181865afa158015611d11573d5f5f3e3d5ffd5b505050506040513d601f19601f82011682018060405250810190611d359190613f31565b825f81518110611d4757611d47613efe565b6001600160a01b039283166020918202929092018101919091526008546040805163d1717c7d60e01b81529051919093169263d1717c7d9260048083019391928290030181865afa158015611d9e573d5f5f3e3d5ffd5b505050506040513d601f19601f82011682018060405250810190611dc29190614194565b611dcd90600a614146565b815f81518110611ddf57611ddf613efe565b602002602001019063ffffffff16908163ffffffff16815250509091565b5f611e086020612a4a565b90508061ffff166001600160401b03811115611e2657611e26614154565b604051908082528060200260200182016040528015611e4f578160200160208202803683370190505b5092508061ffff166001600160401b03811115611e6e57611e6e614154565b604051908082528060200260200182016040528015611e97578160200160208202803683370190505b5091505f5b8161ffff168161ffff161015611f2e575f80611ebd602061ffff8516612a54565b9150915081868461ffff1681518110611ed857611ed8613efe565b60200260200101906001600160a01b031690816001600160a01b03168152505080858461ffff1681518110611f0f57611f0f613efe565b63ffffffff909216602092830291909101909101525050600101611e9c565b50509091565b5f611f3d612a71565b60085460405163f764eb4560e01b81526001600160a01b039091169063f764eb4590611f6d903090600401613b75565b602060405180830381865afa158015611f88573d5f5f3e3d5ffd5b505050506040513d601f19601f82011682018060405250810190611fac9190613f12565b611fc95760405163125ad87760e31b815260040160405180910390fd5b5f611fd3836125ec565b905080851115611ffc57828582604051632e52afbb60e21b8152600401610862939291906141af565b845f0361201e5730604051636b30633560e01b81526004016108629190613b75565b336001600160a01b0384161461203957612039833387612b58565b5f61204386610a4b565b905080600d5f828254612056919061401c565b9091555061206690508487612d4f565b836001600160a01b0316856001600160a01b0316336001600160a01b03167ffbde797d201c681b91056529119e0b02407c7bb96a4a2c75c01fc9667232c8db848a6040516120b592919061400e565b60405180910390a4600a54604051627b8a6760e11b8152600481018390526001600160a01b0387811660248301529091169062f714ce906044015f604051808303815f87803b158015612106575f5ffd5b505af1158015612118573d5f5f3e3d5ffd5b50929450505050506110a26001600555565b612132612a71565b61213a612a9b565b60085f9054906101000a90046001600160a01b03166001600160a01b031663edcf9c1f6040518163ffffffff1660e01b8152600401602060405180830381865afa15801561218a573d5f5f3e3d5ffd5b505050506040513d601f19601f820116820180604052508101906121ae9190613f12565b6121cb576040516312aecd8160e01b815260040160405180910390fd5b805f036121da57610d4d6110a9565b5f6121e6600e33612b2c565b9150508181101561220a57604051632ca2f52b60e11b815260040160405180910390fd5b5f612215838361401c565b9050805f0361222f57612229600e33612d06565b5061223d565b61223b600e3383612b43565b505b8260145f82825461224e919061401c565b9091555050600a546040516351edffb160e01b81526001600160a01b03909116906351edffb190612285903390879060040161404a565b5f604051808303815f87803b15801561229c575f5ffd5b505af11580156122ae573d5f5f3e3d5ffd5b50506040518592503391507f96a9a6886cdf3047a125454218a23d3961fd3a78643123b248a9d106d0ac94fd905f90a35050610f326001600555565b6122f2612a71565b6122fa612a9b565b60085f9054906101000a90046001600160a01b03166001600160a01b031663edcf9c1f6040518163ffffffff1660e01b8152600401602060405180830381865afa15801561234a573d5f5f3e3d5ffd5b505050506040513d601f19601f8201168201806040525081019061236e9190613f12565b61238b576040516312aecd8160e01b815260040160405180910390fd5b805f036123ad5730604051636b30633560e01b81526004016108629190613b75565b5f6123b9601133612b2c565b915050818110156123dd57604051632ca2f52b60e11b815260040160405180910390fd5b5f6123e8838361401c565b9050805f03612402576123fc601133612d06565b50612410565b61240e60113383612b43565b505b8260155f828254612421919061401c565b909155506124329050303385612f0b565b604051839033907f046d3e17087d323298991516e3fdec36fe1204d6bff7fb6e2b8eca77b80a22ad905f90a35050610f326001600555565b5f610a56825f612a18565b6008546001600160a01b031633146124a05760405163ea8e4eb560e01b815260040160405180910390fd5b601c805460ff19166001179055565b5f610a566124bc8361160f565b5f6129c5565b6060805f6124d0601d612a4a565b90508061ffff166001600160401b038111156124ee576124ee614154565b604051908082528060200260200182016040528015612517578160200160208202803683370190505b5092508061ffff166001600160401b0381111561253657612536614154565b60405190808252806020026020018201604052801561255f578160200160208202803683370190505b5091505f5b8161ffff168161ffff161015611f2e575f80612585601d61ffff8516612a54565b9150915081868461ffff16815181106125a0576125a0613efe565b60200260200101906001600160a01b031690816001600160a01b03168152505080858461ffff16815181106125d7576125d7613efe565b60209081029190910101525050600101612564565b5f610a568261160f565b6001600160a01b039182165f90815260016020908152604080832093909416825291909152205490565b6008546001600160a01b0316331461264b5760405163ea8e4eb560e01b815260040160405180910390fd5b612656600b82612f31565b505f80612664602084612b2c565b915091508161267257505050565b61267d602084612d06565b505f306001600160a01b03166338d52e0f6040518163ffffffff1660e01b8152600401602060405180830381865afa1580156126bb573d5f5f3e3d5ffd5b505050506040513d601f19601f820116820180604052508101906126df9190613f31565b90505f806126ee602084612b2c565b9150915081156127155761270f836127068684613fe4565b60209190612b43565b50612723565b61272160208486612b43565b505b505050505050565b5f5f61273683612f45565b90505f612743828561401c565b90505f61274f82613010565b905061275b8184613fe4565b95945050505050565b600a546001600160a01b0316331461278f5760405163ea8e4eb560e01b815260040160405180910390fd5b612797612a71565b5f6127a2600e612a4a565b90508063ffffffff165f036127b757506115da565b5f609663ffffffff8316116127cc57816127cf565b60965b90505f60095f9054906101000a90046001600160a01b03166001600160a01b03166314b19c5a6040518163ffffffff1660e01b8152600401602060405180830381865afa158015612822573d5f5f3e3d5ffd5b505050506040513d601f19601f82011682018060405250810190612846919061402f565b90505f61285260025490565b90505f805b8461ffff168161ffff16101561290a575f80612874600e82612a54565b9092509050612884600e83612d06565b505f612892828b885f613109565b905061289e8382613135565b6128a88286613fe4565b94508661ffff16836001600160a01b0316306001600160a01b03167f4e2ca0515ed1aef1395f66b5303bb5d6f1bf9d61a353fa53f73f8ac9973fa9f685856040516128f492919061400e565b60405180910390a4505050806001019050612857565b508060145f8282546115cf919061401c565b5f5f612928600e612a4a565b90508063ffffffff165f0361293e575f91505090565b5f609663ffffffff8316116129535781612956565b60965b90505f805b8261ffff168161ffff161015610af7575f61297b600e61ffff8416612a54565b915061298990508184613fe4565b92505060010161295b565b610f3281613169565b5f6110a2836001600160a01b0384166131c2565b5f6110a2836001600160a01b038416613209565b5f6110a26129d2600d5490565b6129dd906001613fe4565b6129e5612dd5565b6129f090600a614146565b6002546129fd9190613fe4565b85919085612e51565b612a138383836001613220565b505050565b5f6110a2612a24612dd5565b612a2f90600a614146565b600254612a3c9190613fe4565b600d546129fd906001613fe4565b5f610a56826132f2565b5f808080612a6286866132fc565b909450925050505b9250929050565b600260055403612a9457604051633ee5aeb560e01b815260040160405180910390fd5b6002600555565b60065460ff16156113b75760405163d93c066560e01b815260040160405180910390fd5b6040516001600160a01b038481166024830152838116604483015260648201839052612b269186918216906323b872dd906084015b604051602081830303815290604052915060e01b6020820180516001600160e01b038381831617835250505050613325565b50505050565b5f808080612a62866001600160a01b038716613388565b5f6117b0846001600160a01b038516846133c0565b5f612b6384846125f6565b90505f19811015612b265781811015612b9557828183604051637dc7a0d960e11b8152600401610862939291906141af565b612b2684848484035f613220565b6001600160a01b038316612bcc575f604051634b637e8f60e11b81526004016108629190613b75565b6001600160a01b038216612bf5575f60405163ec442f0560e01b81526004016108629190613b75565b612a138383836133dc565b604080516080810182525f808252602082018190529181018290526060810191909152426019541115612c95576040805160808101909152601a8054829060ff166004811115612c5257612c52613caf565b6004811115612c6357612c63613caf565b8152815461ffff6101008204811660208401526301000000909104166040820152600190910154606090910152919050565b604080516080810190915260178054829060ff166004811115612c5257612c52613caf565b612cc26134ef565b6006805460ff191690557f5db9ee0a495bf2e6ff9c91a7834c1ba4fdd244a5e8aa4e537bd38aeae4b073aa335b604051612cfc9190613b75565b60405180910390a1565b5f6110a2836001600160a01b038416613512565b5f61275b612d29856001613fe4565b612d31612dd5565b612d3c90600a614146565b612d469086613fe4565b87919085612e51565b6001600160a01b038216612d78575f604051634b637e8f60e11b81526004016108629190613b75565b610fac825f836133dc565b60605f6110a28361352e565b612d97612a9b565b6006805460ff191660011790557f62e78cea01bee320cd4e420270b5ea74000d11b0c9f74754ebdbfc544b05a258612cef3390565b610f3281613587565b5f5f612ddf6110a9565b6001600160a01b031663313ce5676040518163ffffffff1660e01b8152600401602060405180830381865afa158015612e1a573d5f5f3e3d5ffd5b505050506040513d601f19601f82011682018060405250810190612e3e9190614194565b9050612e4b8160126141d0565b91505090565b5f612e7e612e5e836135d0565b8015612e7957505f8480612e7457612e746141e9565b868809115b151590565b612e898686866135fc565b61275b9190613fe4565b5f5b8151811015610fac57612ecb828281518110612eb357612eb3613efe565b6020026020010151600b6129b190919063ffffffff16565b612f0357818181518110612ee157612ee1613efe565b602002602001015160405163751dff9760e11b81526004016108629190613b75565b600101612e95565b612a1383846001600160a01b031663a9059cbb8585604051602401612af492919061404a565b5f6110a2836001600160a01b0384166136ac565b5f5f612f4f612c00565b9050806040015161ffff165f03612f6857505f92915050565b60408101515f90612f809061ffff16856127106135fc565b90506117b060095f9054906101000a90046001600160a01b03166001600160a01b0316634ff0876a6040518163ffffffff1660e01b8152600401602060405180830381865afa158015612fd5573d5f5f3e3d5ffd5b505050506040513d601f19601f82011682018060405250810190612ff991906141fd565b829063ffffffff908116906301e13380906135fc16565b5f5f61301a612c00565b9050806020015161ffff165f0361303357505f92915050565b5f61304a6130436012600a614146565b855f611778565b90505f5f61305a845f015161378f565b915091508183108061306a575080155b1561307a57505f95945050505050565b5f613098613088838661401c565b602087015161ffff1690846135fc565b90505f6130a882896127106135fc565b90506130fd60095f9054906101000a90046001600160a01b03166001600160a01b0316634ff0876a6040518163ffffffff1660e01b8152600401602060405180830381865afa158015612fd5573d5f5f3e3d5ffd5b98975050505050505050565b5f61275b613115612dd5565b61312090600a614146565b61312a9085613fe4565b612d46866001613fe4565b6001600160a01b03821661315e575f60405163ec442f0560e01b81526004016108629190613b75565b610fac5f83836133dc565b5f613172825490565b90505f5b818110156131bb57826001015f845f01838154811061319757613197613efe565b905f5260205f20015481526020019081526020015f205f9055806001019050613176565b50505f9055565b5f6131cd8383613209565b61320257508154600181810184555f848152602080822090930184905584548482528286019093526040902091909155610a56565b505f610a56565b5f9081526001919091016020526040902054151590565b6001600160a01b038416613249575f60405163e602df0560e01b81526004016108629190613b75565b6001600160a01b038316613272575f604051634a1406b160e11b81526004016108629190613b75565b6001600160a01b038085165f9081526001602090815260408083209387168352929052208290558015612b2657826001600160a01b0316846001600160a01b03167f8c5be1e5ebec7d5bd14f71427d1e84f3dd0314c0f7b2291e5b200ac8c7c3b925846040516132e491815260200190565b60405180910390a350505050565b5f610a5682613879565b5f80806133098585613882565b5f81815260029690960160205260409095205494959350505050565b5f5f60205f8451602086015f885af180613344576040513d5f823e3d81fd5b50505f513d9150811561335b578060011415613368565b6001600160a01b0384163b155b15612b265783604051635274afe760e01b81526004016108629190613b75565b5f8181526002830160205260408120548190806133b5576133a9858561388d565b92505f9150612a6a9050565b600192509050612a6a565b5f82815260028401602052604081208290556117b08484613898565b6001600160a01b038316613406578060025f8282546133fb9190613fe4565b909155506134639050565b6001600160a01b0383165f90815260208190526040902054818110156134455783818360405163391434e360e21b8152600401610862939291906141af565b6001600160a01b0384165f9081526020819052604090209082900390555b6001600160a01b03821661347f5760028054829003905561349d565b6001600160a01b0382165f9081526020819052604090208054820190555b816001600160a01b0316836001600160a01b03167fddf252ad1be2c89b69c2b068fc378daa952ba7f163c4a11628f55a4df523b3ef836040516134e291815260200190565b60405180910390a3505050565b60065460ff166113b757604051638dfc202b60e01b815260040160405180910390fd5b5f81815260028301602052604081208190556110a283836138a3565b6060815f0180548060200260200160405190810160405280929190818152602001828054801561357b57602002820191905f5260205f20905b815481526020019060010190808311613567575b50505050509050919050565b5f613591826132f2565b90505f5b818110156135c657600283015f6135ac8584613882565b815260208101919091526040015f90812055600101613595565b50610fac82612994565b5f60028260038111156135e5576135e5613caf565b6135ef9190614218565b60ff166001149050919050565b5f5f5f61360986866138ae565b91509150815f0361362d57838181613623576136236141e9565b04925050506110a2565b8184116136445761364460038515026011186138ca565b5f848688095f868103871696879004966002600389028118808a02820302808a02820302808a02820302808a02820302808a02820302808a02909103029181900381900460010185841190960395909502919093039390930492909217029150509392505050565b5f8181526001830160205260408120548015613786575f6136ce60018361401c565b85549091505f906136e19060019061401c565b9050808214613740575f865f0182815481106136ff576136ff613efe565b905f5260205f200154905080875f01848154811061371f5761371f613efe565b5f918252602080832090910192909255918252600188019052604090208390555b855486908061375157613751614245565b600190038181905f5260205f20015f90559055856001015f8681526020019081526020015f205f905560019350505050610a56565b5f915050610a56565b5f808061379c6012611724565b90505f8460048111156137b1576137b1613caf565b036137c157809250829150613873565b60038460048111156137d5576137d5613caf565b036137e7576018549250829150613873565b60018460048111156137fb576137fb613caf565b0361381357613809816138db565b9250809150613873565b600284600481111561382757613827613caf565b0361383f57613835816138db565b9250829150613873565b600484600481111561385357613853613caf565b036138735760185461386d90613868836138db565b613a01565b92508291505b50915091565b5f610a56825490565b5f6110a28383613a10565b5f6110a28383613a36565b5f6110a283836131c2565b5f6110a283836136ac565b5f805f1983850993909202808410938190039390930393915050565b634e487b715f52806020526024601cfd5b5f5f60085f9054906101000a90046001600160a01b03166001600160a01b031663f3cc69936040518163ffffffff1660e01b8152600401602060405180830381865afa15801561392d573d5f5f3e3d5ffd5b505050506040513d601f19601f82011682018060405250810190613951919061402f565b61ffff1690505f6139e660095f9054906101000a90046001600160a01b03166001600160a01b0316634ff0876a6040518163ffffffff1660e01b8152600401602060405180830381865afa1580156139ab573d5f5f3e3d5ffd5b505050506040513d601f19601f820116820180604052508101906139cf91906141fd565b839063ffffffff908116906301e13380906135fc16565b90506117b06139f782612710613fe4565b85906127106135fc565b5f8282188284110282186110a2565b5f825f018281548110613a2557613a25613efe565b905f5260205f200154905092915050565b5f6110a28383613209565b5f5f60208385031215613a52575f5ffd5b82356001600160401b03811115613a67575f5ffd5b8301601f81018513613a77575f5ffd5b80356001600160401b03811115613a8c575f5ffd5b8560208260051b8401011115613aa0575f5ffd5b6020919091019590945092505050565b602081525f82518060208401528060208501604085015e5f604082850101526040601f19601f83011684010191505092915050565b5f60208284031215613af5575f5ffd5b5035919050565b6001600160a01b0381168114610f32575f5ffd5b5f5f60408385031215613b21575f5ffd5b8235613b2c81613afc565b946020939093013593505050565b5f60208284031215613b4a575f5ffd5b81356110a281613afc565b5f5f60408385031215613b66575f5ffd5b50508035926020909101359150565b6001600160a01b0391909116815260200190565b5f5f5f60608486031215613b9b575f5ffd5b8335613ba681613afc565b92506020840135613bb681613afc565b929592945050506040919091013590565b60ff81168114610f32575f5ffd5b61ffff81168114610f32575f5ffd5b5f5f5f60608486031215613bf6575f5ffd5b8335613c0181613bc7565b92506020840135613c1181613bd5565b91506040840135613c2181613bd5565b809150509250925092565b5f8151808452602084019350602083015f5b82811015613c655781516001600160a01b0316865260209586019590910190600101613c3e565b5093949350505050565b602081525f6110a26020830184613c2c565b5f5f60408385031215613c92575f5ffd5b823591506020830135613ca481613afc565b809150509250929050565b634e487b7160e01b5f52602160045260245ffd5b6080810160058610613ce357634e487b7160e01b5f52602160045260245ffd5b94815261ffff93841660208201529190921660408201526060015290565b5f5f83601f840112613d11575f5ffd5b5081356001600160401b03811115613d27575f5ffd5b6020830191508360208260061b8501011115612a6a575f5ffd5b5f5f5f60408486031215613d53575f5ffd5b83356001600160401b03811115613d68575f5ffd5b613d7486828701613d01565b909790965060209590950135949350505050565b5f5f5f60608486031215613d9a575f5ffd5b8335925060208401359150604084013560048110613c21575f5ffd5b5f5f60208385031215613dc7575f5ffd5b82356001600160401b03811115613ddc575f5ffd5b613de885828601613d01565b90969095509350505050565b5f5f5f60608486031215613e06575f5ffd5b833592506020840135613e1881613afc565b91506040840135613c2181613afc565b604081525f613e3a6040830185613c2c565b82810360208401528084518083526020830191506020860192505f5b81811015613e7a57835163ffffffff16835260209384019390920191600101613e56565b50909695505050505050565b604081525f613e986040830185613c2c565b82810360208401528084518083526020830191506020860192505f5b81811015613e7a578351835260209384019390920191600101613eb4565b5f5f60408385031215613ee3575f5ffd5b8235613eee81613afc565b91506020830135613ca481613afc565b634e487b7160e01b5f52603260045260245ffd5b5f60208284031215613f22575f5ffd5b815180151581146110a2575f5ffd5b5f60208284031215613f41575f5ffd5b81516110a281613afc565b602080825281018290525f8360408301825b85811015613f8e578235613f7181613afc565b6001600160a01b0316825260209283019290910190600101613f5e565b5095945050505050565b600181811c90821680613fac57607f821691505b602082108103613fca57634e487b7160e01b5f52602260045260245ffd5b50919050565b634e487b7160e01b5f52601160045260245ffd5b80820180821115610a5657610a56613fd0565b5f60208284031215614007575f5ffd5b5051919050565b918252602082015260400190565b81810381811115610a5657610a56613fd0565b5f6020828403121561403f575f5ffd5b81516110a281613bd5565b6001600160a01b03929092168252602082015260400190565b6001815b600184111561409e5780850481111561408257614082613fd0565b600184161561409057908102905b60019390931c928002614067565b935093915050565b5f826140b457506001610a56565b816140c057505f610a56565b81600181146140d657600281146140e0576140fc565b6001915050610a56565b60ff8411156140f1576140f1613fd0565b50506001821b610a56565b5060208310610133831016604e8410600b841016171561411f575081810a610a56565b61412b5f198484614063565b805f190482111561413e5761413e613fd0565b029392505050565b5f6110a260ff8416836140a6565b634e487b7160e01b5f52604160045260245ffd5b63ffffffff81168114610f32575f5ffd5b5f60208284031215614189575f5ffd5b81356110a281614168565b5f602082840312156141a4575f5ffd5b81516110a281613bc7565b6001600160a01b039390931683526020830191909152604082015260600190565b60ff8281168282160390811115610a5657610a56613fd0565b634e487b7160e01b5f52601260045260245ffd5b5f6020828403121561420d575f5ffd5b81516110a281614168565b5f60ff83168061423657634e487b7160e01b5f52601260045260245ffd5b8060ff84160691505092915050565b634e487b7160e01b5f52603160045260245ffdfea264697066735822122065514a0a5df60c2266828a21a622a2feb2e9d66f5974052ec1afb8ee081d3bad64736f6c634300081c0033",
  "linkReferences": {},
  "deployedLinkReferences": {}
}