{
  "_format": "hh-sol-artifact-1",
  "contractName": "OrionTransparentVault",
  "sourceName": "contracts/vaults/OrionTransparentVault.sol",
  "abi": [
    {
      "inputs": [
        {
          "internalType": "address",
          "name": "vaultOwner",
          "type": "address"
        },
        {
          "internalType": "address",
          "name": "curator",
          "type": "address"
        },
        {
          "internalType": "contract IOrionConfig",
          "name": "configAddress",
          "type": "address"
        },
        {
          "internalType": "string",
          "name": "name",
          "type": "string"
        },
        {
          "internalType": "string",
          "name": "symbol",
          "type": "string"
        },
        {
          "internalType": "uint8",
          "name": "feeType",
          "type": "uint8"
        },
        {
          "internalType": "uint16",
          "name": "performanceFee",
          "type": "uint16"
        },
        {
          "internalType": "uint16",
          "name": "managementFee",
          "type": "uint16"
        }
      ],
      "stateMutability": "nonpayable",
      "type": "constructor"
    },
    {
      "inputs": [],
      "name": "AlreadyRegistered",
      "type": "error"
    },
    {
      "inputs": [
        {
          "internalType": "address",
          "name": "asset",
          "type": "address"
        }
      ],
      "name": "AmountMustBeGreaterThanZero",
      "type": "error"
    },
    {
      "inputs": [
        {
          "internalType": "address",
          "name": "spender",
          "type": "address"
        },
        {
          "internalType": "uint256",
          "name": "allowance",
          "type": "uint256"
        },
        {
          "internalType": "uint256",
          "name": "needed",
          "type": "uint256"
        }
      ],
      "name": "ERC20InsufficientAllowance",
      "type": "error"
    },
    {
      "inputs": [
        {
          "internalType": "address",
          "name": "sender",
          "type": "address"
        },
        {
          "internalType": "uint256",
          "name": "balance",
          "type": "uint256"
        },
        {
          "internalType": "uint256",
          "name": "needed",
          "type": "uint256"
        }
      ],
      "name": "ERC20InsufficientBalance",
      "type": "error"
    },
    {
      "inputs": [
        {
          "internalType": "address",
          "name": "approver",
          "type": "address"
        }
      ],
      "name": "ERC20InvalidApprover",
      "type": "error"
    },
    {
      "inputs": [
        {
          "internalType": "address",
          "name": "receiver",
          "type": "address"
        }
      ],
      "name": "ERC20InvalidReceiver",
      "type": "error"
    },
    {
      "inputs": [
        {
          "internalType": "address",
          "name": "sender",
          "type": "address"
        }
      ],
      "name": "ERC20InvalidSender",
      "type": "error"
    },
    {
      "inputs": [
        {
          "internalType": "address",
          "name": "spender",
          "type": "address"
        }
      ],
      "name": "ERC20InvalidSpender",
      "type": "error"
    },
    {
      "inputs": [
        {
          "internalType": "address",
          "name": "receiver",
          "type": "address"
        },
        {
          "internalType": "uint256",
          "name": "assets",
          "type": "uint256"
        },
        {
          "internalType": "uint256",
          "name": "max",
          "type": "uint256"
        }
      ],
      "name": "ERC4626ExceededMaxDeposit",
      "type": "error"
    },
    {
      "inputs": [
        {
          "internalType": "address",
          "name": "receiver",
          "type": "address"
        },
        {
          "internalType": "uint256",
          "name": "shares",
          "type": "uint256"
        },
        {
          "internalType": "uint256",
          "name": "max",
          "type": "uint256"
        }
      ],
      "name": "ERC4626ExceededMaxMint",
      "type": "error"
    },
    {
      "inputs": [
        {
          "internalType": "address",
          "name": "owner",
          "type": "address"
        },
        {
          "internalType": "uint256",
          "name": "shares",
          "type": "uint256"
        },
        {
          "internalType": "uint256",
          "name": "max",
          "type": "uint256"
        }
      ],
      "name": "ERC4626ExceededMaxRedeem",
      "type": "error"
    },
    {
      "inputs": [
        {
          "internalType": "address",
          "name": "owner",
          "type": "address"
        },
        {
          "internalType": "uint256",
          "name": "assets",
          "type": "uint256"
        },
        {
          "internalType": "uint256",
          "name": "max",
          "type": "uint256"
        }
      ],
      "name": "ERC4626ExceededMaxWithdraw",
      "type": "error"
    },
    {
      "inputs": [],
      "name": "InsufficientAmount",
      "type": "error"
    },
    {
      "inputs": [],
      "name": "InvalidAddress",
      "type": "error"
    },
    {
      "inputs": [],
      "name": "InvalidArguments",
      "type": "error"
    },
    {
      "inputs": [],
      "name": "InvalidCuratorContract",
      "type": "error"
    },
    {
      "inputs": [],
      "name": "InvalidTotalWeight",
      "type": "error"
    },
    {
      "inputs": [],
      "name": "InvalidUnderlyingDecimals",
      "type": "error"
    },
    {
      "inputs": [],
      "name": "OrderIntentCannotBeEmpty",
      "type": "error"
    },
    {
      "inputs": [],
      "name": "ReentrancyGuardReentrantCall",
      "type": "error"
    },
    {
      "inputs": [],
      "name": "SynchronousCallDisabled",
      "type": "error"
    },
    {
      "inputs": [],
      "name": "SystemNotIdle",
      "type": "error"
    },
    {
      "inputs": [
        {
          "internalType": "address",
          "name": "token",
          "type": "address"
        }
      ],
      "name": "TokenAlreadyInOrder",
      "type": "error"
    },
    {
      "inputs": [
        {
          "internalType": "address",
          "name": "token",
          "type": "address"
        }
      ],
      "name": "TokenNotWhitelisted",
      "type": "error"
    },
    {
      "inputs": [],
      "name": "TransferFailed",
      "type": "error"
    },
    {
      "inputs": [],
      "name": "UnauthorizedAccess",
      "type": "error"
    },
    {
      "anonymous": false,
      "inputs": [
        {
          "indexed": true,
          "internalType": "address",
          "name": "owner",
          "type": "address"
        },
        {
          "indexed": true,
          "internalType": "address",
          "name": "spender",
          "type": "address"
        },
        {
          "indexed": false,
          "internalType": "uint256",
          "name": "value",
          "type": "uint256"
        }
      ],
      "name": "Approval",
      "type": "event"
    },
    {
      "anonymous": false,
      "inputs": [
        {
          "indexed": true,
          "internalType": "uint256",
          "name": "epoch",
          "type": "uint256"
        },
        {
          "indexed": true,
          "internalType": "uint256",
          "name": "feeAmount",
          "type": "uint256"
        },
        {
          "indexed": true,
          "internalType": "uint256",
          "name": "pendingCuratorFees",
          "type": "uint256"
        }
      ],
      "name": "CuratorFeesAccrued",
      "type": "event"
    },
    {
      "anonymous": false,
      "inputs": [
        {
          "indexed": true,
          "internalType": "address",
          "name": "newCurator",
          "type": "address"
        }
      ],
      "name": "CuratorUpdated",
      "type": "event"
    },
    {
      "anonymous": false,
      "inputs": [
        {
          "indexed": true,
          "internalType": "address",
          "name": "sender",
          "type": "address"
        },
        {
          "indexed": true,
          "internalType": "address",
          "name": "owner",
          "type": "address"
        },
        {
          "indexed": false,
          "internalType": "uint256",
          "name": "assets",
          "type": "uint256"
        },
        {
          "indexed": false,
          "internalType": "uint256",
          "name": "shares",
          "type": "uint256"
        }
      ],
      "name": "Deposit",
      "type": "event"
    },
    {
      "anonymous": false,
      "inputs": [
        {
          "indexed": true,
          "internalType": "address",
          "name": "vault",
          "type": "address"
        },
        {
          "indexed": true,
          "internalType": "address",
          "name": "user",
          "type": "address"
        },
        {
          "indexed": true,
          "internalType": "uint256",
          "name": "epoch",
          "type": "uint256"
        },
        {
          "indexed": false,
          "internalType": "uint256",
          "name": "depositAmount",
          "type": "uint256"
        },
        {
          "indexed": false,
          "internalType": "uint256",
          "name": "sharesMinted",
          "type": "uint256"
        }
      ],
      "name": "Deposit",
      "type": "event"
    },
    {
      "anonymous": false,
      "inputs": [
        {
          "indexed": true,
          "internalType": "address",
          "name": "sender",
          "type": "address"
        },
        {
          "indexed": true,
          "internalType": "uint256",
          "name": "assets",
          "type": "uint256"
        }
      ],
      "name": "DepositRequest",
      "type": "event"
    },
    {
      "anonymous": false,
      "inputs": [
        {
          "indexed": true,
          "internalType": "address",
          "name": "user",
          "type": "address"
        },
        {
          "indexed": true,
          "internalType": "uint256",
          "name": "amount",
          "type": "uint256"
        }
      ],
      "name": "DepositRequestCancelled",
      "type": "event"
    },
    {
      "anonymous": false,
      "inputs": [
        {
          "indexed": true,
          "internalType": "uint8",
          "name": "mode",
          "type": "uint8"
        },
        {
          "indexed": true,
          "internalType": "uint16",
          "name": "performanceFee",
          "type": "uint16"
        },
        {
          "indexed": true,
          "internalType": "uint16",
          "name": "managementFee",
          "type": "uint16"
        }
      ],
      "name": "FeeModelUpdated",
      "type": "event"
    },
    {
      "anonymous": false,
      "inputs": [
        {
          "indexed": true,
          "internalType": "address",
          "name": "curator",
          "type": "address"
        }
      ],
      "name": "OrderSubmitted",
      "type": "event"
    },
    {
      "anonymous": false,
      "inputs": [
        {
          "indexed": true,
          "internalType": "address",
          "name": "vault",
          "type": "address"
        },
        {
          "indexed": true,
          "internalType": "address",
          "name": "user",
          "type": "address"
        },
        {
          "indexed": true,
          "internalType": "uint256",
          "name": "epoch",
          "type": "uint256"
        },
        {
          "indexed": false,
          "internalType": "uint256",
          "name": "redeemAmount",
          "type": "uint256"
        },
        {
          "indexed": false,
          "internalType": "uint256",
          "name": "sharesBurned",
          "type": "uint256"
        }
      ],
      "name": "Redeem",
      "type": "event"
    },
    {
      "anonymous": false,
      "inputs": [
        {
          "indexed": true,
          "internalType": "address",
          "name": "sender",
          "type": "address"
        },
        {
          "indexed": true,
          "internalType": "uint256",
          "name": "shares",
          "type": "uint256"
        }
      ],
      "name": "RedeemRequest",
      "type": "event"
    },
    {
      "anonymous": false,
      "inputs": [
        {
          "indexed": true,
          "internalType": "address",
          "name": "user",
          "type": "address"
        },
        {
          "indexed": true,
          "internalType": "uint256",
          "name": "shares",
          "type": "uint256"
        }
      ],
      "name": "RedeemRequestCancelled",
      "type": "event"
    },
    {
      "anonymous": false,
      "inputs": [
        {
          "indexed": true,
          "internalType": "address",
          "name": "from",
          "type": "address"
        },
        {
          "indexed": true,
          "internalType": "address",
          "name": "to",
          "type": "address"
        },
        {
          "indexed": false,
          "internalType": "uint256",
          "name": "value",
          "type": "uint256"
        }
      ],
      "name": "Transfer",
      "type": "event"
    },
    {
      "anonymous": false,
      "inputs": [
        {
          "indexed": true,
          "internalType": "uint256",
          "name": "newTotalAssets",
          "type": "uint256"
        }
      ],
      "name": "VaultStateUpdated",
      "type": "event"
    },
    {
      "anonymous": false,
      "inputs": [
        {
          "indexed": true,
          "internalType": "address[]",
          "name": "assets",
          "type": "address[]"
        }
      ],
      "name": "VaultWhitelistUpdated",
      "type": "event"
    },
    {
      "anonymous": false,
      "inputs": [
        {
          "indexed": true,
          "internalType": "address",
          "name": "sender",
          "type": "address"
        },
        {
          "indexed": true,
          "internalType": "address",
          "name": "receiver",
          "type": "address"
        },
        {
          "indexed": true,
          "internalType": "address",
          "name": "owner",
          "type": "address"
        },
        {
          "indexed": false,
          "internalType": "uint256",
          "name": "assets",
          "type": "uint256"
        },
        {
          "indexed": false,
          "internalType": "uint256",
          "name": "shares",
          "type": "uint256"
        }
      ],
      "name": "Withdraw",
      "type": "event"
    },
    {
      "inputs": [],
      "name": "BASIS_POINTS_FACTOR",
      "outputs": [
        {
          "internalType": "uint16",
          "name": "",
          "type": "uint16"
        }
      ],
      "stateMutability": "view",
      "type": "function"
    },
    {
      "inputs": [],
      "name": "MAX_MANAGEMENT_FEE",
      "outputs": [
        {
          "internalType": "uint16",
          "name": "",
          "type": "uint16"
        }
      ],
      "stateMutability": "view",
      "type": "function"
    },
    {
      "inputs": [],
      "name": "MAX_PERFORMANCE_FEE",
      "outputs": [
        {
          "internalType": "uint16",
          "name": "",
          "type": "uint16"
        }
      ],
      "stateMutability": "view",
      "type": "function"
    },
    {
      "inputs": [],
      "name": "SHARE_DECIMALS",
      "outputs": [
        {
          "internalType": "uint8",
          "name": "",
          "type": "uint8"
        }
      ],
      "stateMutability": "view",
      "type": "function"
    },
    {
      "inputs": [],
      "name": "YEAR_IN_SECONDS",
      "outputs": [
        {
          "internalType": "uint32",
          "name": "",
          "type": "uint32"
        }
      ],
      "stateMutability": "view",
      "type": "function"
    },
    {
      "inputs": [
        {
          "internalType": "uint256",
          "name": "epoch",
          "type": "uint256"
        },
        {
          "internalType": "uint256",
          "name": "feeAmount",
          "type": "uint256"
        }
      ],
      "name": "accrueCuratorFees",
      "outputs": [],
      "stateMutability": "nonpayable",
      "type": "function"
    },
    {
      "inputs": [
        {
          "internalType": "address",
          "name": "owner",
          "type": "address"
        },
        {
          "internalType": "address",
          "name": "spender",
          "type": "address"
        }
      ],
      "name": "allowance",
      "outputs": [
        {
          "internalType": "uint256",
          "name": "",
          "type": "uint256"
        }
      ],
      "stateMutability": "view",
      "type": "function"
    },
    {
      "inputs": [
        {
          "internalType": "address",
          "name": "spender",
          "type": "address"
        },
        {
          "internalType": "uint256",
          "name": "value",
          "type": "uint256"
        }
      ],
      "name": "approve",
      "outputs": [
        {
          "internalType": "bool",
          "name": "",
          "type": "bool"
        }
      ],
      "stateMutability": "nonpayable",
      "type": "function"
    },
    {
      "inputs": [],
      "name": "asset",
      "outputs": [
        {
          "internalType": "address",
          "name": "",
          "type": "address"
        }
      ],
      "stateMutability": "view",
      "type": "function"
    },
    {
      "inputs": [
        {
          "internalType": "address",
          "name": "account",
          "type": "address"
        }
      ],
      "name": "balanceOf",
      "outputs": [
        {
          "internalType": "uint256",
          "name": "",
          "type": "uint256"
        }
      ],
      "stateMutability": "view",
      "type": "function"
    },
    {
      "inputs": [
        {
          "internalType": "uint256",
          "name": "amount",
          "type": "uint256"
        }
      ],
      "name": "cancelDepositRequest",
      "outputs": [],
      "stateMutability": "nonpayable",
      "type": "function"
    },
    {
      "inputs": [
        {
          "internalType": "uint256",
          "name": "shares",
          "type": "uint256"
        }
      ],
      "name": "cancelRedeemRequest",
      "outputs": [],
      "stateMutability": "nonpayable",
      "type": "function"
    },
    {
      "inputs": [
        {
          "internalType": "uint256",
          "name": "amount",
          "type": "uint256"
        }
      ],
      "name": "claimCuratorFees",
      "outputs": [],
      "stateMutability": "nonpayable",
      "type": "function"
    },
    {
      "inputs": [],
      "name": "config",
      "outputs": [
        {
          "internalType": "contract IOrionConfig",
          "name": "",
          "type": "address"
        }
      ],
      "stateMutability": "view",
      "type": "function"
    },
    {
      "inputs": [
        {
          "internalType": "uint256",
          "name": "shares",
          "type": "uint256"
        }
      ],
      "name": "convertToAssets",
      "outputs": [
        {
          "internalType": "uint256",
          "name": "",
          "type": "uint256"
        }
      ],
      "stateMutability": "view",
      "type": "function"
    },
    {
      "inputs": [
        {
          "internalType": "uint256",
          "name": "shares",
          "type": "uint256"
        },
        {
          "internalType": "uint256",
          "name": "pointInTimeTotalAssets",
          "type": "uint256"
        },
        {
          "internalType": "enum Math.Rounding",
          "name": "rounding",
          "type": "uint8"
        }
      ],
      "name": "convertToAssetsWithPITTotalAssets",
      "outputs": [
        {
          "internalType": "uint256",
          "name": "",
          "type": "uint256"
        }
      ],
      "stateMutability": "view",
      "type": "function"
    },
    {
      "inputs": [
        {
          "internalType": "uint256",
          "name": "assets",
          "type": "uint256"
        }
      ],
      "name": "convertToShares",
      "outputs": [
        {
          "internalType": "uint256",
          "name": "",
          "type": "uint256"
        }
      ],
      "stateMutability": "view",
      "type": "function"
    },
    {
      "inputs": [
        {
          "internalType": "uint256",
          "name": "assets",
          "type": "uint256"
        },
        {
          "internalType": "uint256",
          "name": "pointInTimeTotalAssets",
          "type": "uint256"
        },
        {
          "internalType": "enum Math.Rounding",
          "name": "rounding",
          "type": "uint8"
        }
      ],
      "name": "convertToSharesWithPITTotalAssets",
      "outputs": [
        {
          "internalType": "uint256",
          "name": "",
          "type": "uint256"
        }
      ],
      "stateMutability": "view",
      "type": "function"
    },
    {
      "inputs": [],
      "name": "curator",
      "outputs": [
        {
          "internalType": "address",
          "name": "",
          "type": "address"
        }
      ],
      "stateMutability": "view",
      "type": "function"
    },
    {
      "inputs": [
        {
          "internalType": "uint256",
          "name": "activeTotalAssets",
          "type": "uint256"
        }
      ],
      "name": "curatorFee",
      "outputs": [
        {
          "internalType": "uint256",
          "name": "",
          "type": "uint256"
        }
      ],
      "stateMutability": "view",
      "type": "function"
    },
    {
      "inputs": [],
      "name": "curatorIntentDecimals",
      "outputs": [
        {
          "internalType": "uint8",
          "name": "",
          "type": "uint8"
        }
      ],
      "stateMutability": "view",
      "type": "function"
    },
    {
      "inputs": [],
      "name": "decimals",
      "outputs": [
        {
          "internalType": "uint8",
          "name": "",
          "type": "uint8"
        }
      ],
      "stateMutability": "view",
      "type": "function"
    },
    {
      "inputs": [
        {
          "internalType": "uint256",
          "name": "",
          "type": "uint256"
        },
        {
          "internalType": "address",
          "name": "",
          "type": "address"
        }
      ],
      "name": "deposit",
      "outputs": [
        {
          "internalType": "uint256",
          "name": "",
          "type": "uint256"
        }
      ],
      "stateMutability": "pure",
      "type": "function"
    },
    {
      "inputs": [],
      "name": "feeModel",
      "outputs": [
        {
          "internalType": "enum OrionVault.FeeType",
          "name": "feeType",
          "type": "uint8"
        },
        {
          "internalType": "uint16",
          "name": "performanceFee",
          "type": "uint16"
        },
        {
          "internalType": "uint16",
          "name": "managementFee",
          "type": "uint16"
        },
        {
          "internalType": "uint256",
          "name": "highWaterMark",
          "type": "uint256"
        }
      ],
      "stateMutability": "view",
      "type": "function"
    },
    {
      "inputs": [
        {
          "internalType": "uint256",
          "name": "depositTotalAssets",
          "type": "uint256"
        }
      ],
      "name": "fulfillDeposit",
      "outputs": [],
      "stateMutability": "nonpayable",
      "type": "function"
    },
    {
      "inputs": [
        {
          "internalType": "uint256",
          "name": "redeemTotalAssets",
          "type": "uint256"
        }
      ],
      "name": "fulfillRedeem",
      "outputs": [],
      "stateMutability": "nonpayable",
      "type": "function"
    },
    {
      "inputs": [],
      "name": "getIntent",
      "outputs": [
        {
          "internalType": "address[]",
          "name": "tokens",
          "type": "address[]"
        },
        {
          "internalType": "uint32[]",
          "name": "weights",
          "type": "uint32[]"
        }
      ],
      "stateMutability": "view",
      "type": "function"
    },
    {
      "inputs": [],
      "name": "getPortfolio",
      "outputs": [
        {
          "internalType": "address[]",
          "name": "tokens",
          "type": "address[]"
        },
        {
          "internalType": "uint256[]",
          "name": "sharesPerAsset",
          "type": "uint256[]"
        }
      ],
      "stateMutability": "view",
      "type": "function"
    },
    {
      "inputs": [],
      "name": "internalStatesOrchestrator",
      "outputs": [
        {
          "internalType": "contract IInternalStateOrchestrator",
          "name": "",
          "type": "address"
        }
      ],
      "stateMutability": "view",
      "type": "function"
    },
    {
      "inputs": [],
      "name": "isPassiveCurator",
      "outputs": [
        {
          "internalType": "bool",
          "name": "isPassive",
          "type": "bool"
        }
      ],
      "stateMutability": "view",
      "type": "function"
    },
    {
      "inputs": [],
      "name": "liquidityOrchestrator",
      "outputs": [
        {
          "internalType": "contract ILiquidityOrchestrator",
          "name": "",
          "type": "address"
        }
      ],
      "stateMutability": "view",
      "type": "function"
    },
    {
      "inputs": [
        {
          "internalType": "address",
          "name": "",
          "type": "address"
        }
      ],
      "name": "maxDeposit",
      "outputs": [
        {
          "internalType": "uint256",
          "name": "",
          "type": "uint256"
        }
      ],
      "stateMutability": "view",
      "type": "function"
    },
    {
      "inputs": [
        {
          "internalType": "address",
          "name": "",
          "type": "address"
        }
      ],
      "name": "maxMint",
      "outputs": [
        {
          "internalType": "uint256",
          "name": "",
          "type": "uint256"
        }
      ],
      "stateMutability": "view",
      "type": "function"
    },
    {
      "inputs": [
        {
          "internalType": "address",
          "name": "owner",
          "type": "address"
        }
      ],
      "name": "maxRedeem",
      "outputs": [
        {
          "internalType": "uint256",
          "name": "",
          "type": "uint256"
        }
      ],
      "stateMutability": "view",
      "type": "function"
    },
    {
      "inputs": [
        {
          "internalType": "address",
          "name": "owner",
          "type": "address"
        }
      ],
      "name": "maxWithdraw",
      "outputs": [
        {
          "internalType": "uint256",
          "name": "",
          "type": "uint256"
        }
      ],
      "stateMutability": "view",
      "type": "function"
    },
    {
      "inputs": [
        {
          "internalType": "uint256",
          "name": "",
          "type": "uint256"
        },
        {
          "internalType": "address",
          "name": "",
          "type": "address"
        }
      ],
      "name": "mint",
      "outputs": [
        {
          "internalType": "uint256",
          "name": "",
          "type": "uint256"
        }
      ],
      "stateMutability": "pure",
      "type": "function"
    },
    {
      "inputs": [],
      "name": "name",
      "outputs": [
        {
          "internalType": "string",
          "name": "",
          "type": "string"
        }
      ],
      "stateMutability": "view",
      "type": "function"
    },
    {
      "inputs": [],
      "name": "pendingCuratorFees",
      "outputs": [
        {
          "internalType": "uint256",
          "name": "",
          "type": "uint256"
        }
      ],
      "stateMutability": "view",
      "type": "function"
    },
    {
      "inputs": [],
      "name": "pendingDeposit",
      "outputs": [
        {
          "internalType": "uint256",
          "name": "",
          "type": "uint256"
        }
      ],
      "stateMutability": "view",
      "type": "function"
    },
    {
      "inputs": [],
      "name": "pendingRedeem",
      "outputs": [
        {
          "internalType": "uint256",
          "name": "",
          "type": "uint256"
        }
      ],
      "stateMutability": "view",
      "type": "function"
    },
    {
      "inputs": [
        {
          "internalType": "uint256",
          "name": "",
          "type": "uint256"
        }
      ],
      "name": "previewDeposit",
      "outputs": [
        {
          "internalType": "uint256",
          "name": "",
          "type": "uint256"
        }
      ],
      "stateMutability": "pure",
      "type": "function"
    },
    {
      "inputs": [
        {
          "internalType": "uint256",
          "name": "",
          "type": "uint256"
        }
      ],
      "name": "previewMint",
      "outputs": [
        {
          "internalType": "uint256",
          "name": "",
          "type": "uint256"
        }
      ],
      "stateMutability": "pure",
      "type": "function"
    },
    {
      "inputs": [
        {
          "internalType": "uint256",
          "name": "",
          "type": "uint256"
        }
      ],
      "name": "previewRedeem",
      "outputs": [
        {
          "internalType": "uint256",
          "name": "",
          "type": "uint256"
        }
      ],
      "stateMutability": "pure",
      "type": "function"
    },
    {
      "inputs": [
        {
          "internalType": "uint256",
          "name": "",
          "type": "uint256"
        }
      ],
      "name": "previewWithdraw",
      "outputs": [
        {
          "internalType": "uint256",
          "name": "",
          "type": "uint256"
        }
      ],
      "stateMutability": "pure",
      "type": "function"
    },
    {
      "inputs": [
        {
          "internalType": "uint256",
          "name": "",
          "type": "uint256"
        },
        {
          "internalType": "address",
          "name": "",
          "type": "address"
        },
        {
          "internalType": "address",
          "name": "",
          "type": "address"
        }
      ],
      "name": "redeem",
      "outputs": [
        {
          "internalType": "uint256",
          "name": "",
          "type": "uint256"
        }
      ],
      "stateMutability": "pure",
      "type": "function"
    },
    {
      "inputs": [
        {
          "internalType": "uint256",
          "name": "assets",
          "type": "uint256"
        }
      ],
      "name": "requestDeposit",
      "outputs": [],
      "stateMutability": "nonpayable",
      "type": "function"
    },
    {
      "inputs": [
        {
          "internalType": "uint256",
          "name": "shares",
          "type": "uint256"
        }
      ],
      "name": "requestRedeem",
      "outputs": [],
      "stateMutability": "nonpayable",
      "type": "function"
    },
    {
      "inputs": [
        {
          "components": [
            {
              "internalType": "address",
              "name": "token",
              "type": "address"
            },
            {
              "internalType": "uint32",
              "name": "value",
              "type": "uint32"
            }
          ],
          "internalType": "struct IOrionTransparentVault.Position[]",
          "name": "intent",
          "type": "tuple[]"
        }
      ],
      "name": "submitIntent",
      "outputs": [],
      "stateMutability": "nonpayable",
      "type": "function"
    },
    {
      "inputs": [],
      "name": "symbol",
      "outputs": [
        {
          "internalType": "string",
          "name": "",
          "type": "string"
        }
      ],
      "stateMutability": "view",
      "type": "function"
    },
    {
      "inputs": [],
      "name": "totalAssets",
      "outputs": [
        {
          "internalType": "uint256",
          "name": "",
          "type": "uint256"
        }
      ],
      "stateMutability": "view",
      "type": "function"
    },
    {
      "inputs": [],
      "name": "totalSupply",
      "outputs": [
        {
          "internalType": "uint256",
          "name": "",
          "type": "uint256"
        }
      ],
      "stateMutability": "view",
      "type": "function"
    },
    {
      "inputs": [
        {
          "internalType": "address",
          "name": "to",
          "type": "address"
        },
        {
          "internalType": "uint256",
          "name": "value",
          "type": "uint256"
        }
      ],
      "name": "transfer",
      "outputs": [
        {
          "internalType": "bool",
          "name": "",
          "type": "bool"
        }
      ],
      "stateMutability": "nonpayable",
      "type": "function"
    },
    {
      "inputs": [
        {
          "internalType": "address",
          "name": "from",
          "type": "address"
        },
        {
          "internalType": "address",
          "name": "to",
          "type": "address"
        },
        {
          "internalType": "uint256",
          "name": "value",
          "type": "uint256"
        }
      ],
      "name": "transferFrom",
      "outputs": [
        {
          "internalType": "bool",
          "name": "",
          "type": "bool"
        }
      ],
      "stateMutability": "nonpayable",
      "type": "function"
    },
    {
      "inputs": [
        {
          "internalType": "address",
          "name": "newCurator",
          "type": "address"
        }
      ],
      "name": "updateCurator",
      "outputs": [],
      "stateMutability": "nonpayable",
      "type": "function"
    },
    {
      "inputs": [
        {
          "internalType": "uint8",
          "name": "feeType",
          "type": "uint8"
        },
        {
          "internalType": "uint16",
          "name": "performanceFee",
          "type": "uint16"
        },
        {
          "internalType": "uint16",
          "name": "managementFee",
          "type": "uint16"
        }
      ],
      "name": "updateFeeModel",
      "outputs": [],
      "stateMutability": "nonpayable",
      "type": "function"
    },
    {
      "inputs": [
        {
          "components": [
            {
              "internalType": "address",
              "name": "token",
              "type": "address"
            },
            {
              "internalType": "uint32",
              "name": "value",
              "type": "uint32"
            }
          ],
          "internalType": "struct IOrionTransparentVault.Position[]",
          "name": "portfolio",
          "type": "tuple[]"
        },
        {
          "internalType": "uint256",
          "name": "newTotalAssets",
          "type": "uint256"
        }
      ],
      "name": "updateVaultState",
      "outputs": [],
      "stateMutability": "nonpayable",
      "type": "function"
    },
    {
      "inputs": [
        {
          "internalType": "address[]",
          "name": "assets",
          "type": "address[]"
        }
      ],
      "name": "updateVaultWhitelist",
      "outputs": [],
      "stateMutability": "nonpayable",
      "type": "function"
    },
    {
      "inputs": [],
      "name": "vaultOwner",
      "outputs": [
        {
          "internalType": "address",
          "name": "",
          "type": "address"
        }
      ],
      "stateMutability": "view",
      "type": "function"
    },
    {
      "inputs": [],
      "name": "vaultWhitelist",
      "outputs": [
        {
          "internalType": "address[]",
          "name": "",
          "type": "address[]"
        }
      ],
      "stateMutability": "view",
      "type": "function"
    },
    {
      "inputs": [
        {
          "internalType": "uint256",
          "name": "",
          "type": "uint256"
        },
        {
          "internalType": "address",
          "name": "",
          "type": "address"
        },
        {
          "internalType": "address",
          "name": "",
          "type": "address"
        }
      ],
      "name": "withdraw",
      "outputs": [
        {
          "internalType": "uint256",
          "name": "",
          "type": "uint256"
        }
      ],
      "stateMutability": "pure",
      "type": "function"
    }
  ],
  "bytecode": "0x60c060405234801561000f575f5ffd5b50604051614cb5380380614cb583398101604081905261002e916109aa565b8787878787878787856001600160a01b0316637158da7c6040518163ffffffff1660e01b8152600401602060405180830381865afa158015610072573d5f5f3e3d5ffd5b505050506040513d601f19601f820116820180604052508101906100969190610a79565b858560036100a48382610b1f565b5060046100b18282610b1f565b5050505f5f6100c58361057660201b60201c565b91509150816100d55760126100d7565b805b60ff1660a05250506001600160a01b03908116608052600160055587166101115760405163e6c4247b60e01b815260040160405180910390fd5b6001600160a01b0386166101385760405163e6c4247b60e01b815260040160405180910390fd5b600680546001600160a01b03808b166001600160a01b031992831617909255600780548a841690831617905560088054928916929091168217905560408051630691d8b960e31b8152905163348ec5c8916004808201926020929091908290030181865afa1580156101ac573d5f5f3e3d5ffd5b505050506040513d601f19601f820116820180604052508101906101d09190610a79565b60095f6101000a8154816001600160a01b0302191690836001600160a01b03160217905550856001600160a01b0316633a0dad8e6040518163ffffffff1660e01b8152600401602060405180830381865afa158015610231573d5f5f3e3d5ffd5b505050506040513d601f19601f820116820180604052508101906102559190610a79565b600a5f6101000a8154816001600160a01b0302191690836001600160a01b03160217905550856001600160a01b031663d1717c7d6040518163ffffffff1660e01b8152600401602060405180830381865afa1580156102b6573d5f5f3e3d5ffd5b505050506040513d601f19601f820116820180604052508101906102da9190610bd9565b600a60146101000a81548160ff021916908360ff1602179055505f600d819055505f6014819055505f6015819055505f866001600160a01b0316637158da7c6040518163ffffffff1660e01b8152600401602060405180830381865afa158015610346573d5f5f3e3d5ffd5b505050506040513d601f19601f8201168201806040525081019061036a9190610a79565b6001600160a01b031663313ce5676040518163ffffffff1660e01b8152600401602060405180830381865afa1580156103a5573d5f5f3e3d5ffd5b505050506040513d601f19601f820116820180604052508101906103c99190610bd9565b9050601260ff821611156103f057604051631c03248960e11b815260040160405180910390fd5b600460ff85161115610415576040516317dbc4cb60e21b815260040160405180910390fd5b610bb861ffff8416111561043c576040516317dbc4cb60e21b815260040160405180910390fd5b61012c61ffff83161115610463576040516317dbc4cb60e21b815260040160405180910390fd5b8360ff16600481111561047857610478610bf2565b6017805460ff1916600183600481111561049457610494610bf2565b02179055506017805461ffff84811663010000000264ffff00000019918716610100029190911664ffffffff0019909216919091171790556104d781600a610cfd565b6018556104e261064c565b50505050505050505061056960085f9054906101000a90046001600160a01b03166001600160a01b031663d86cd44e6040518163ffffffff1660e01b81526004015f60405180830381865afa15801561053d573d5f5f3e3d5ffd5b505050506040513d5f823e601f3d908101601f191682016040526105649190810190610d0b565b610721565b5050505050505050610e68565b60408051600481526024810182526020810180516001600160e01b031663313ce56760e01b17905290515f918291829182916001600160a01b038716916105bc91610dbd565b5f60405180830381855afa9150503d805f81146105f4576040519150601f19603f3d011682016040523d82523d5f602084013e6105f9565b606091505b509150915081801561060d57506020815110155b15610640575f818060200190518101906106279190610dd3565b905060ff811161063e576001969095509350505050565b505b505f9485945092505050565b60085460408051636c366a2760e11b815290515f926001600160a01b03169163d86cd44e91600480830192869291908290030181865afa158015610692573d5f5f3e3d5ffd5b505050506040513d5f823e601f3d908101601f191682016040526106b99190810190610d0b565b90505f5b815181101561071d575f6106f48383815181106106dc576106dc610dea565b6020026020010151600b61085860201b90919060201c565b90508061071457604051630ea075bf60e21b815260040160405180910390fd5b506001016106bd565b5050565b6007546001600160a01b03163b5f0361074157601f805460ff1916905550565b6007546040516301ffc9a760e01b8152635b24e9f760e11b60048201526001600160a01b03909116906301ffc9a790602401602060405180830381865afa9250505080156107ac575060408051601f3d908101601f191682019092526107a991810190610dfe565b60015b6107c95760405163298febe360e01b815260040160405180910390fd5b801561083c57601f805460ff1916600117905560075460405163c653526b60e01b81526001600160a01b039091169063c653526b9061080c908590600401610e1d565b5f6040518083038186803b158015610822575f5ffd5b505afa158015610834573d5f5f3e3d5ffd5b505050505050565b60405163298febe360e01b815260040160405180910390fd5b50565b5f61086c836001600160a01b038416610875565b90505b92915050565b5f8181526001830160205260408120546108ba57508154600181810184555f84815260208082209093018490558454848252828601909352604090209190915561086f565b505f61086f565b6001600160a01b0381168114610855575f5ffd5b634e487b7160e01b5f52604160045260245ffd5b604051601f8201601f191681016001600160401b0381118282101715610911576109116108d5565b604052919050565b5f82601f830112610928575f5ffd5b81516001600160401b03811115610941576109416108d5565b610954601f8201601f19166020016108e9565b818152846020838601011115610968575f5ffd5b8160208501602083015e5f918101602001919091529392505050565b805160ff81168114610994575f5ffd5b919050565b805161ffff81168114610994575f5ffd5b5f5f5f5f5f5f5f5f610100898b0312156109c2575f5ffd5b88516109cd816108c1565b60208a01519098506109de816108c1565b60408a01519097506109ef816108c1565b60608a01519096506001600160401b03811115610a0a575f5ffd5b610a168b828c01610919565b60808b015190965090506001600160401b03811115610a33575f5ffd5b610a3f8b828c01610919565b945050610a4e60a08a01610984565b9250610a5c60c08a01610999565b9150610a6a60e08a01610999565b90509295985092959890939650565b5f60208284031215610a89575f5ffd5b8151610a94816108c1565b9392505050565b600181811c90821680610aaf57607f821691505b602082108103610acd57634e487b7160e01b5f52602260045260245ffd5b50919050565b601f821115610b1a57805f5260205f20601f840160051c81016020851015610af85750805b601f840160051c820191505b81811015610b17575f8155600101610b04565b50505b505050565b81516001600160401b03811115610b3857610b386108d5565b610b4c81610b468454610a9b565b84610ad3565b6020601f821160018114610b7e575f8315610b675750848201515b5f19600385901b1c1916600184901b178455610b17565b5f84815260208120601f198516915b82811015610bad5787850151825560209485019460019092019101610b8d565b5084821015610bca57868401515f19600387901b60f8161c191681555b50505050600190811b01905550565b5f60208284031215610be9575f5ffd5b61086c82610984565b634e487b7160e01b5f52602160045260245ffd5b634e487b7160e01b5f52601160045260245ffd5b6001815b6001841115610c5557808504811115610c3957610c39610c06565b6001841615610c4757908102905b60019390931c928002610c1e565b935093915050565b5f82610c6b5750600161086f565b81610c7757505f61086f565b8160018114610c8d5760028114610c9757610cb3565b600191505061086f565b60ff841115610ca857610ca8610c06565b50506001821b61086f565b5060208310610133831016604e8410600b8410161715610cd6575081810a61086f565b610ce25f198484610c1a565b805f1904821115610cf557610cf5610c06565b029392505050565b5f61086c60ff841683610c5d565b5f60208284031215610d1b575f5ffd5b81516001600160401b03811115610d30575f5ffd5b8201601f81018413610d40575f5ffd5b80516001600160401b03811115610d5957610d596108d5565b8060051b610d69602082016108e9565b91825260208184018101929081019087841115610d84575f5ffd5b6020850194505b83851015610db25784519250610da0836108c1565b82825260209485019490910190610d8b565b979650505050505050565b5f82518060208501845e5f920191825250919050565b5f60208284031215610de3575f5ffd5b5051919050565b634e487b7160e01b5f52603260045260245ffd5b5f60208284031215610e0e575f5ffd5b81518015158114610a94575f5ffd5b602080825282518282018190525f918401906040840190835b81811015610e5d5783516001600160a01b0316835260209384019390920191600101610e36565b509095945050505050565b60805160a051613e2f610e865f395f50505f610f750152613e2f5ff3fe608060405234801561000f575f5ffd5b50600436106102b2575f3560e01c806301e1d114146102b657806303d44854146102cd57806306fdde03146102e257806307a2d13a146102f7578063095ea7b31461030a5780630a28a4771461032d5780630a605c6d146103405780630c6a62dd146103485780630d1e66671461035b5780630df571f71461036e578063105444941461038157806318160ddd1461039457806318c219491461039c5780631f52692b146103af57806323b872dd146103cf578063313ce567146103e2578063348ec5c8146103f757806338d52e0f1461040a5780633a0dad8e146104125780633ab6d27c14610425578063402d267d14610438578063493a6e211461044c5780634cdad5061461032d5780634e85b1351461045f5780635de3dfdc146104745780636e553f651461047f57806370a082311461048d5780637847ea53146104a057806379502c55146104c057806380ceebfe146104d35780638f5c9465146104e657806394bf804d1461047f57806395d89b411461050257806397ee11441461050a5780639908840c14610540578063a68a526714610549578063a9059cbb1461055c578063aa2f892d1461056f578063acdb3d5114610582578063b1bd7e2e1461058b578063b3d7f6b91461032d578063b460af941461059e578063b6eba653146105ac578063ba0876521461059e578063bdca9165146105c2578063c0b568e1146105cb578063c3f0d30e146105de578063c63d75b614610438578063c6e6f592146105f1578063ce96cb7714610604578063d1717c7d14610617578063d3d034581461062b578063d853365f14610641578063d905777e14610649578063dd62ed3e1461065c578063e51a85f61461066f578063e5e9719314610682578063e66f53b714610695578063ef8b30f71461032d578063f64c6f32146106a8575b5f5ffd5b600d545b6040519081526020015b60405180910390f35b6102e06102db3660046133b6565b6106b0565b005b6102ea610893565b6040516102c49190613425565b6102ba61030536600461345a565b610923565b61031d610318366004613485565b610934565b60405190151581526020016102c4565b6102ba61033b36600461345a565b61094b565b6015546102ba565b6102e06103563660046134af565b610965565b6102e061036936600461345a565b610a72565b6102e061037c3660046134ca565b610ce3565b6102e061038f36600461352a565b610d5e565b6002546102ba565b6102e06103aa36600461345a565b610e7f565b6006546103c2906001600160a01b031681565b6040516102c49190613571565b61031d6103dd366004613585565b610f4e565b60125b60405160ff90911681526020016102c4565b6009546103c2906001600160a01b031681565b6103c2610f73565b600a546103c2906001600160a01b031681565b6102e06104333660046135e0565b610f97565b6102ba6104463660046134af565b505f1990565b6102e061045a36600461345a565b611164565b6104676114ab565b6040516102c4919061366b565b601f5460ff1661031d565b6102ba61033b36600461367d565b6102ba61049b3660046134af565b6114bc565b6104ab6301e1338081565b60405163ffffffff90911681526020016102c4565b6008546103c2906001600160a01b031681565b6102ba6104e13660046136ab565b6114d6565b6104ef61271081565b60405161ffff90911681526020016102c4565b6102ea611516565b6017546018546105309160ff81169161ffff610100830481169263010000009004169084565b6040516102c494939291906136ed565b6104ef61012c81565b6102ba6105573660046136ab565b611525565b61031d61056a366004613485565b611554565b6102e061057d36600461345a565b611561565b6102ba60165481565b6102e061059936600461372b565b61173a565b6102ba61033b366004613769565b6105b461196a565b6040516102c492919061379d565b6104ef610bb881565b6102e06105d936600461345a565b611ac1565b6102e06105ec36600461345a565b611c7b565b6102ba6105ff36600461345a565b611e6f565b6102ba6106123660046134af565b611e7a565b600a546103e590600160a01b900460ff1681565b610633611e8d565b6040516102c49291906137fb565b6103e5601281565b6102ba6106573660046134af565b611fb7565b6102ba61066a366004613847565b611fc1565b6102ba61067d36600461345a565b611feb565b6102e061069036600461345a565b612024565b6007546103c2906001600160a01b031681565b6014546102ba565b6006546001600160a01b031633146106db57604051631a27eac360e11b815260040160405180910390fd5b6106e5600b6122fc565b5f5b818110156107e5575f83838381811061070257610702613873565b905060200201602081019061071791906134af565b600854604051633af32abf60e01b81529192506001600160a01b031690633af32abf90610748908490600401613571565b602060405180830381865afa158015610763573d5f5f3e3d5ffd5b505050506040513d601f19601f820116820180604052508101906107879190613887565b6107af578060405163751dff9760e11b81526004016107a69190613571565b60405180910390fd5b5f6107bb600b83612305565b9050806107db57604051630ea075bf60e21b815260040160405180910390fd5b50506001016106e7565b50601f5460ff16156108505760075460405163c653526b60e01b81526001600160a01b039091169063c653526b9061082390859085906004016138a6565b5f6040518083038186803b158015610839575f5ffd5b505afa15801561084b573d5f5f3e3d5ffd5b505050505b81816040516108609291906138f2565b604051908190038120907fa975983c7a4dcf80477a447433240de322f36428f1b3864e50d7a45e14c68b66905f90a25050565b6060600380546108a290613933565b80601f01602080910402602001604051908101604052809291908181526020018280546108ce90613933565b80156109195780601f106108f057610100808354040283529160200191610919565b820191905f5260205f20905b8154815290600101906020018083116108fc57829003601f168201915b5050505050905090565b5f61092e825f612319565b92915050565b5f3361094181858561235a565b5060019392505050565b5f60405163125ad87760e31b815260040160405180910390fd5b6006546001600160a01b0316331461099057604051631a27eac360e11b815260040160405180910390fd5b6001600160a01b0381166109b75760405163e6c4247b60e01b815260040160405180910390fd5b600780546001600160a01b0319166001600160a01b03831617905560408051634e85b13560e01b81529051610a3c913091634e85b135916004808201925f929091908290030181865afa158015610a10573d5f5f3e3d5ffd5b505050506040513d5f823e601f3d908101601f19168201604052610a3791908101906139f9565b61236c565b6040516001600160a01b038216907f83293ffeebb677b167941693470018acf300605df266a35e9fdb66f24ff00fe0905f90a250565b610a7a6124a0565b60085f9054906101000a90046001600160a01b03166001600160a01b031663edcf9c1f6040518163ffffffff1660e01b8152600401602060405180830381865afa158015610aca573d5f5f3e3d5ffd5b505050506040513d601f19601f82011682018060405250810190610aee9190613887565b610b0b576040516312aecd8160e01b815260040160405180910390fd5b805f03610b3457610b1a610f73565b604051636b30633560e01b81526004016107a69190613571565b5f610b3d610f73565b6001600160a01b03166370a08231336040518263ffffffff1660e01b8152600401610b689190613571565b602060405180830381865afa158015610b83573d5f5f3e3d5ffd5b505050506040513d601f19601f82011682018060405250810190610ba79190613a8d565b905080821115610bca57604051632ca2f52b60e11b815260040160405180910390fd5b5f610bd3610f73565b600a546040516323b872dd60e01b81526001600160a01b03928316926323b872dd92610c09923392909116908890600401613aa4565b6020604051808303815f875af1158015610c25573d5f5f3e3d5ffd5b505050506040513d601f19601f82011682018060405250810190610c499190613887565b905080610c69576040516312171d8360e31b815260040160405180910390fd5b5f610c75600e336124ca565b9150610c90905033610c878684613adc565b600e91906124f0565b508360145f828254610ca29190613adc565b9091555050604051849033907f55896b30a78fc55b78937f8014dde3f0035e9d37a4f6ac36841fb8b62f7e2b13905f90a3505050610ce06001600555565b50565b6009546001600160a01b03163314610d0e57604051631a27eac360e11b815260040160405180910390fd5b8015610d5a578060165f828254610d259190613adc565b9091555050601654604051829084907f8b8789cf9157fe7b016901e4ed3a5d0971caa8b7c031da0b25638ccf65841b2a905f90a45b5050565b6009546001600160a01b03163314610d8957604051631a27eac360e11b815260040160405180910390fd5b610d936019612505565b815f5b8161ffff168161ffff161015610e2357610e1a85858361ffff16818110610dbf57610dbf613873565b610dd592602060409092020190810191506134af565b86868461ffff16818110610deb57610deb613873565b9050604002016020016020810190610e039190613b00565b63ffffffff1660196124f09092919063ffffffff16565b50600101610d96565b50600d8290555f610e3b60125b61030590600a613bfe565b601854909150811115610e4e5760188190555b60405183907f5e1ff954b5e5257e9ee5d4cb07059e8f5e69b1aaaf9911e5d8d90a6894de9c21905f90a25050505050565b6006546001600160a01b03163314610eaa57604051631a27eac360e11b815260040160405180910390fd5b805f03610eb957610b1a610f73565b601654811115610edc57604051632ca2f52b60e11b815260040160405180910390fd5b8060165f828254610eed9190613c0c565b9091555050600a5460405163741fca4b60e01b8152600481018390526001600160a01b039091169063741fca4b906024015f604051808303815f87803b158015610f35575f5ffd5b505af1158015610f47573d5f5f3e3d5ffd5b5050505050565b5f33610f5b85828561250e565b610f6685858561255f565b60019150505b9392505050565b7f000000000000000000000000000000000000000000000000000000000000000090565b6006546001600160a01b03163314610fc257604051631a27eac360e11b815260040160405180910390fd5b60085f9054906101000a90046001600160a01b03166001600160a01b031663edcf9c1f6040518163ffffffff1660e01b8152600401602060405180830381865afa158015611012573d5f5f3e3d5ffd5b505050506040513d601f19601f820116820180604052508101906110369190613887565b611053576040516312aecd8160e01b815260040160405180910390fd5b600460ff84161115611078576040516317dbc4cb60e21b815260040160405180910390fd5b610bb861ffff8316111561109f576040516317dbc4cb60e21b815260040160405180910390fd5b61012c61ffff821611156110c6576040516317dbc4cb60e21b815260040160405180910390fd5b8260ff1660048111156110db576110db6136d9565b6017805460ff191660018360048111156110f7576110f76136d9565b02179055506017805464ffffffff00191661010061ffff85811691820264ffff00000019169290921763010000009285169283021790925560405190919060ff8616907fd24f39e523bfa412fa391702710dc62e1c82d87a8e83228a37c42be1b4870f45905f90a4505050565b600a546001600160a01b0316331461118f57604051631a27eac360e11b815260040160405180910390fd5b6111976124a0565b5f6111a260116125bc565b90508063ffffffff165f036111b757506114a1565b5f8163ffffffff166001600160401b038111156111d6576111d661396b565b6040519080825280602002602001820160405280156111ff578160200160208202803683370190505b5090505f8263ffffffff166001600160401b038111156112215761122161396b565b60405190808252806020026020018201604052801561124a578160200160208202803683370190505b5090505f5b8363ffffffff168163ffffffff1610156112e4575f80611279601163ffffffff808616906125c616565b9150915081858463ffffffff168151811061129657611296613873565b60200260200101906001600160a01b031690816001600160a01b03168152505080848463ffffffff16815181106112cf576112cf613873565b6020908102919091010152505060010161124f565b505f601581905560095460408051630a58ce2d60e11b815290516001600160a01b03909216916314b19c5a916004808201926020929091908290030181865afa158015611333573d5f5f3e3d5ffd5b505050506040513d601f19601f820116820180604052508101906113579190613c1f565b90505f5b8463ffffffff168163ffffffff16101561149b575f848263ffffffff168151811061138857611388613873565b602002602001015190505f848363ffffffff16815181106113ab576113ab613873565b602002602001015190506113c98260116125d490919063ffffffff16565b505f6113d6828a5f611525565b90506113e230836125e8565b600a54604051634adfc2e760e01b81526001600160a01b0390911690634adfc2e7906114149086908590600401613c3a565b5f604051808303815f87803b15801561142b575f5ffd5b505af115801561143d573d5f5f3e3d5ffd5b5050604080518481526020810186905261ffff891693506001600160a01b038716925030917f215abfcd108b85fbee47f26fda2de66f90f14fa5fcaf0201698ad8ac9323545f910160405180910390a450505080600101905061135b565b50505050505b610ce06001600555565b60606114b7600b61261c565b905090565b6001600160a01b03165f9081526020819052604090205490565b5f61150e6114e2612628565b6114ed90600a613bfe565b6002546114fa9190613adc565b611505856001613adc565b869190856126a4565b949350505050565b6060600480546108a290613933565b5f61150e611534846001613adc565b61153c612628565b61154790600a613bfe565b6002546115059190613adc565b5f3361094181858561255f565b60085f9054906101000a90046001600160a01b03166001600160a01b031663edcf9c1f6040518163ffffffff1660e01b8152600401602060405180830381865afa1580156115b1573d5f5f3e3d5ffd5b505050506040513d601f19601f820116820180604052508101906115d59190613887565b6115f2576040516312aecd8160e01b815260040160405180910390fd5b805f036116145730604051636b30633560e01b81526004016107a69190613571565b5f61161e336114bc565b90508082111561164157604051632ca2f52b60e11b815260040160405180910390fd5b6040516323b872dd60e01b81525f9030906323b872dd9061166a90339084908890600401613aa4565b6020604051808303815f875af1158015611686573d5f5f3e3d5ffd5b505050506040513d601f19601f820116820180604052508101906116aa9190613887565b9050806116ca576040516312171d8360e31b815260040160405180910390fd5b5f6116d66011336124ca565b91506116f19050336116e88684613adc565b601191906124f0565b508360155f8282546117039190613adc565b9091555050604051849033907f222dc200773fe9b45015bf792e8fee37d651e3590c215806a5042404b6d741d2905f90a350505050565b6007546001600160a01b0316331461176557604051631a27eac360e11b815260040160405180910390fd5b601f5460ff1615611789576040516317dbc4cb60e21b815260040160405180910390fd5b5f8190036117aa57604051631121aa8d60e01b815260040160405180910390fd5b6117b4601c612505565b5f816001600160401b038111156117cd576117cd61396b565b6040519080825280602002602001820160405280156117f6578160200160208202803683370190505b5090505f82815b8161ffff168161ffff1610156118f4575f86868361ffff1681811061182457611824613873565b61183a92602060409092020190810191506134af565b90505f87878461ffff1681811061185357611853613873565b905060400201602001602081019061186b9190613b00565b905081868461ffff168151811061188457611884613873565b6001600160a01b03909216602092830291909101909101525f6118b2601c8463ffffffff808616906124f016565b9050806118d457826040516346bdabe160e01b81526004016107a69190613571565b6118e463ffffffff831687613adc565b95505050508060010190506117fd565b506118fe836126e6565b600a60149054906101000a900460ff16600a61191a9190613bfe565b821461193957604051639006dd2760e01b815260040160405180910390fd5b60405133907f2d47a742b8d7df7c1fc5a9a631b206b364e6cb2722490759f63bb3ab14b132e0905f90a25050505050565b601f54606090819060ff161561198a5761198261275e565b915091509091565b5f611995601c6125bc565b90508061ffff166001600160401b038111156119b3576119b361396b565b6040519080825280602002602001820160405280156119dc578160200160208202803683370190505b5092508061ffff166001600160401b038111156119fb576119fb61396b565b604051908082528060200260200182016040528015611a24578160200160208202803683370190505b5091505f5b8161ffff168161ffff161015611abb575f80611a4a601c61ffff85166125c6565b9150915081868461ffff1681518110611a6557611a65613873565b60200260200101906001600160a01b031690816001600160a01b03168152505080858461ffff1681518110611a9c57611a9c613873565b63ffffffff909216602092830291909101909101525050600101611a29565b50509091565b611ac96124a0565b60085f9054906101000a90046001600160a01b03166001600160a01b031663edcf9c1f6040518163ffffffff1660e01b8152600401602060405180830381865afa158015611b19573d5f5f3e3d5ffd5b505050506040513d601f19601f82011682018060405250810190611b3d9190613887565b611b5a576040516312aecd8160e01b815260040160405180910390fd5b805f03611b6957610b1a610f73565b5f611b75600e336124ca565b91505081811015611b9957604051632ca2f52b60e11b815260040160405180910390fd5b600a546040516351edffb160e01b81526001600160a01b03909116906351edffb190611bcb9033908690600401613c3a565b5f604051808303815f87803b158015611be2575f5ffd5b505af1158015611bf4573d5f5f3e3d5ffd5b505050505f8282611c059190613c0c565b9050805f03611c1f57611c19600e336125d4565b50611c2d565b611c2b600e33836124f0565b505b8260145f828254611c3e9190613c0c565b9091555050604051839033907f96a9a6886cdf3047a125454218a23d3961fd3a78643123b248a9d106d0ac94fd905f90a35050610ce06001600555565b611c836124a0565b60085f9054906101000a90046001600160a01b03166001600160a01b031663edcf9c1f6040518163ffffffff1660e01b8152600401602060405180830381865afa158015611cd3573d5f5f3e3d5ffd5b505050506040513d601f19601f82011682018060405250810190611cf79190613887565b611d14576040516312aecd8160e01b815260040160405180910390fd5b805f03611d365730604051636b30633560e01b81526004016107a69190613571565b5f611d426011336124ca565b91505081811015611d6657604051632ca2f52b60e11b815260040160405180910390fd5b5f611d718383613c0c565b9050805f03611d8b57611d856011336125d4565b50611d99565b611d97601133836124f0565b505b8260155f828254611daa9190613c0c565b909155505060405163a9059cbb60e01b81525f90309063a9059cbb90611dd69033908890600401613c3a565b6020604051808303815f875af1158015611df2573d5f5f3e3d5ffd5b505050506040513d601f19601f82011682018060405250810190611e169190613887565b905080611e36576040516312171d8360e31b815260040160405180910390fd5b604051849033907f046d3e17087d323298991516e3fdec36fe1204d6bff7fb6e2b8eca77b80a22ad905f90a3505050610ce06001600555565b5f61092e825f612990565b5f61092e611e87836114bc565b5f612319565b6060805f611e9b60196125bc565b90508061ffff166001600160401b03811115611eb957611eb961396b565b604051908082528060200260200182016040528015611ee2578160200160208202803683370190505b5092508061ffff166001600160401b03811115611f0157611f0161396b565b604051908082528060200260200182016040528015611f2a578160200160208202803683370190505b5091505f5b8161ffff168161ffff161015611abb575f80611f50601961ffff85166125c6565b9150915081868461ffff1681518110611f6b57611f6b613873565b60200260200101906001600160a01b031690816001600160a01b03168152505080858461ffff1681518110611fa257611fa2613873565b60209081029190910101525050600101611f2f565b5f61092e826114bc565b6001600160a01b039182165f90815260016020908152604080832093909416825291909152205490565b5f5f611ff6836129c2565b90505f6120038285613c0c565b90505f61200f82612a8c565b905061201b8184613adc565b95945050505050565b600a546001600160a01b0316331461204f57604051631a27eac360e11b815260040160405180910390fd5b6120576124a0565b5f612062600e6125bc565b90508063ffffffff165f0361207757506114a1565b5f8163ffffffff166001600160401b038111156120965761209661396b565b6040519080825280602002602001820160405280156120bf578160200160208202803683370190505b5090505f8263ffffffff166001600160401b038111156120e1576120e161396b565b60405190808252806020026020018201604052801561210a578160200160208202803683370190505b5090505f5b8363ffffffff168163ffffffff1610156121a4575f80612139600e63ffffffff808616906125c616565b9150915081858463ffffffff168151811061215657612156613873565b60200260200101906001600160a01b031690816001600160a01b03168152505080848463ffffffff168151811061218f5761218f613873565b6020908102919091010152505060010161210f565b505f601481905560095460408051630a58ce2d60e11b815290516001600160a01b03909216916314b19c5a916004808201926020929091908290030181865afa1580156121f3573d5f5f3e3d5ffd5b505050506040513d601f19601f820116820180604052508101906122179190613c1f565b90505f5b8463ffffffff168163ffffffff16101561149b575f848263ffffffff168151811061224857612248613873565b602002602001015190505f848363ffffffff168151811061226b5761226b613873565b6020026020010151905061228982600e6125d490919063ffffffff16565b505f612296828a5f6114d6565b90506122a28382612b1c565b604080518381526020810183905261ffff8716916001600160a01b0386169130917f4e2ca0515ed1aef1395f66b5303bb5d6f1bf9d61a353fa53f73f8ac9973fa9f6910160405180910390a450505080600101905061221b565b610ce081612b50565b5f610f6c836001600160a01b038416612ba9565b5f610f6c612326600d5490565b612331906001613adc565b612339612628565b61234490600a613bfe565b6002546123519190613adc565b859190856126a4565b6123678383836001612bf0565b505050565b6007546001600160a01b03163b5f0361238c57601f805460ff1916905550565b6007546040516301ffc9a760e01b8152635b24e9f760e11b60048201526001600160a01b03909116906301ffc9a790602401602060405180830381865afa9250505080156123f7575060408051601f3d908101601f191682019092526123f491810190613887565b60015b6124145760405163298febe360e01b815260040160405180910390fd5b801561248757601f805460ff1916600117905560075460405163c653526b60e01b81526001600160a01b039091169063c653526b9061245790859060040161366b565b5f6040518083038186803b15801561246d575f5ffd5b505afa15801561247f573d5f5f3e3d5ffd5b505050505050565b60405163298febe360e01b815260040160405180910390fd5b6002600554036124c357604051633ee5aeb560e01b815260040160405180910390fd5b6002600555565b5f8080806124e1866001600160a01b038716612cc2565b909450925050505b9250929050565b5f61150e846001600160a01b03851684612cfa565b610ce081612d16565b5f6125198484611fc1565b90505f19811015612559578181101561254b57828183604051637dc7a0d960e11b81526004016107a693929190613c53565b61255984848484035f612bf0565b50505050565b6001600160a01b038316612588575f604051634b637e8f60e11b81526004016107a69190613571565b6001600160a01b0382166125b1575f60405163ec442f0560e01b81526004016107a69190613571565b612367838383612d5f565b5f61092e82612e72565b5f8080806124e18686612e7c565b5f610f6c836001600160a01b038416612ea5565b6001600160a01b038216612611575f604051634b637e8f60e11b81526004016107a69190613571565b610d5a825f83612d5f565b60605f610f6c83612ec1565b5f5f612632610f73565b6001600160a01b031663313ce5676040518163ffffffff1660e01b8152600401602060405180830381865afa15801561266d573d5f5f3e3d5ffd5b505050506040513d601f19601f820116820180604052508101906126919190613c74565b905061269e816012613c8f565b91505090565b5f6126d16126b183612f1a565b80156126cc57505f84806126c7576126c7613ca8565b868809115b151590565b6126dc868686612f46565b61201b9190613adc565b5f5b8151811015610d5a5761271e82828151811061270657612706613873565b6020026020010151600b612ff690919063ffffffff16565b6127565781818151811061273457612734613873565b602002602001015160405163751dff9760e11b81526004016107a69190613571565b6001016126e8565b6060805f306001600160a01b0316634e85b1356040518163ffffffff1660e01b81526004015f60405180830381865afa15801561279d573d5f5f3e3d5ffd5b505050506040513d5f823e601f3d908101601f191682016040526127c491908101906139f9565b60075460405163701a818560e01b81529192505f916001600160a01b039091169063701a8185906127f990859060040161366b565b5f60405180830381865afa158015612813573d5f5f3e3d5ffd5b505050506040513d5f823e601f3d908101601f1916820160405261283a9190810190613cbc565b905080516001600160401b038111156128555761285561396b565b60405190808252806020026020018201604052801561287e578160200160208202803683370190505b50935080516001600160401b0381111561289a5761289a61396b565b6040519080825280602002602001820160405280156128c3578160200160208202803683370190505b5092505f5b81518161ffff16101561298957818161ffff16815181106128eb576128eb613873565b60200260200101515f0151858261ffff168151811061290c5761290c613873565b60200260200101906001600160a01b031690816001600160a01b031681525050818161ffff168151811061294257612942613873565b602002602001015160200151848261ffff168151811061296457612964613873565b63ffffffff9092166020928302919091019091015261298281613d7d565b90506128c8565b5050509091565b5f610f6c61299c612628565b6129a790600a613bfe565b6002546129b49190613adc565b600d54612351906001613adc565b6017545f906301000000900461ffff1681036129df57505f919050565b6017545f906129fc906301000000900461ffff1684612710612f46565b9050610f6c60095f9054906101000a90046001600160a01b03166001600160a01b0316634ff0876a6040518163ffffffff1660e01b8152600401602060405180830381865afa158015612a51573d5f5f3e3d5ffd5b505050506040513d601f19601f82011682018060405250810190612a759190613d9d565b829063ffffffff908116906301e1338090612f4616565b6017545f90610100900461ffff168103612aa757505f919050565b5f612abe612ab76012600a613bfe565b845f611525565b6017549091505f908190612ad49060ff1661300a565b9150915081831015612aea57505f949350505050565b6017545f90612b0390610100900461ffff168584612f46565b9050612b128187612710612f46565b9695505050505050565b6001600160a01b038216612b45575f60405163ec442f0560e01b81526004016107a69190613571565b610d5a5f8383612d5f565b5f612b59825490565b90505f5b81811015612ba257826001015f845f018381548110612b7e57612b7e613873565b905f5260205f20015481526020019081526020015f205f9055806001019050612b5d565b50505f9055565b5f612bb483836130f4565b612be957508154600181810184555f84815260208082209093018490558454848252828601909352604090209190915561092e565b505f61092e565b6001600160a01b038416612c19575f60405163e602df0560e01b81526004016107a69190613571565b6001600160a01b038316612c42575f604051634a1406b160e11b81526004016107a69190613571565b6001600160a01b038085165f908152600160209081526040808320938716835292905220829055801561255957826001600160a01b0316846001600160a01b03167f8c5be1e5ebec7d5bd14f71427d1e84f3dd0314c0f7b2291e5b200ac8c7c3b92584604051612cb491815260200190565b60405180910390a350505050565b5f818152600283016020526040812054819080612cef57612ce3858561310b565b92505f91506124e99050565b6001925090506124e9565b5f828152600284016020526040812082905561150e8484613116565b5f612d2082612e72565b90505f5b81811015612d5557600283015f612d3b8584613121565b815260208101919091526040015f90812055600101612d24565b50610d5a826122fc565b6001600160a01b038316612d89578060025f828254612d7e9190613adc565b90915550612de69050565b6001600160a01b0383165f9081526020819052604090205481811015612dc85783818360405163391434e360e21b81526004016107a693929190613c53565b6001600160a01b0384165f9081526020819052604090209082900390555b6001600160a01b038216612e0257600280548290039055612e20565b6001600160a01b0382165f9081526020819052604090208054820190555b816001600160a01b0316836001600160a01b03167fddf252ad1be2c89b69c2b068fc378daa952ba7f163c4a11628f55a4df523b3ef83604051612e6591815260200190565b60405180910390a3505050565b5f61092e8261312c565b5f8080612e898585613121565b5f81815260029690960160205260409095205494959350505050565b5f8181526002830160205260408120819055610f6c8383613135565b6060815f01805480602002602001604051908101604052809291908181526020018280548015612f0e57602002820191905f5260205f20905b815481526020019060010190808311612efa575b50505050509050919050565b5f6002826003811115612f2f57612f2f6136d9565b612f399190613db8565b60ff166001149050919050565b5f5f5f612f538686613140565b91509150815f03612f7757838181612f6d57612f6d613ca8565b0492505050610f6c565b818411612f8e57612f8e600385150260111861315c565b5f848688095f868103871696879004966002600389028118808a02820302808a02820302808a02820302808a02820302808a02820302808a02909103029181900381900460010185841190960395909502919093039390930492909217029150509392505050565b5f610f6c836001600160a01b0384166130f4565b5f80806130176012610e30565b90505f84600481111561302c5761302c6136d9565b0361303c578092508291506130ee565b6003846004811115613050576130506136d9565b036130625760185492508291506130ee565b6001846004811115613076576130766136d9565b0361308e576130848161316d565b92508091506130ee565b60028460048111156130a2576130a26136d9565b036130ba576130b08161316d565b92508291506130ee565b60048460048111156130ce576130ce6136d9565b036130ee576018546130e8906130e38361316d565b613293565b92508291505b50915091565b5f9081526001919091016020526040902054151590565b5f610f6c83836132a2565b5f610f6c8383612ba9565b5f610f6c83836132ad565b5f61092e825490565b5f610f6c83836132d3565b5f805f1983850993909202808410938190039390930393915050565b634e487b715f52806020526024601cfd5b5f5f60085f9054906101000a90046001600160a01b03166001600160a01b031663f3cc69936040518163ffffffff1660e01b8152600401602060405180830381865afa1580156131bf573d5f5f3e3d5ffd5b505050506040513d601f19601f820116820180604052508101906131e39190613c1f565b61ffff1690505f61327860095f9054906101000a90046001600160a01b03166001600160a01b0316634ff0876a6040518163ffffffff1660e01b8152600401602060405180830381865afa15801561323d573d5f5f3e3d5ffd5b505050506040513d601f19601f820116820180604052508101906132619190613d9d565b839063ffffffff908116906301e1338090612f4616565b905061150e61328982612710613adc565b8590612710612f46565b5f828218828411028218610f6c565b5f610f6c83836130f4565b5f825f0182815481106132c2576132c2613873565b905f5260205f200154905092915050565b5f81815260018301602052604081205480156133ad575f6132f5600183613c0c565b85549091505f9061330890600190613c0c565b9050808214613367575f865f01828154811061332657613326613873565b905f5260205f200154905080875f01848154811061334657613346613873565b5f918252602080832090910192909255918252600188019052604090208390555b855486908061337857613378613de5565b600190038181905f5260205f20015f90559055856001015f8681526020019081526020015f205f90556001935050505061092e565b5f91505061092e565b5f5f602083850312156133c7575f5ffd5b82356001600160401b038111156133dc575f5ffd5b8301601f810185136133ec575f5ffd5b80356001600160401b03811115613401575f5ffd5b8560208260051b8401011115613415575f5ffd5b6020919091019590945092505050565b602081525f82518060208401528060208501604085015e5f604082850101526040601f19601f83011684010191505092915050565b5f6020828403121561346a575f5ffd5b5035919050565b6001600160a01b0381168114610ce0575f5ffd5b5f5f60408385031215613496575f5ffd5b82356134a181613471565b946020939093013593505050565b5f602082840312156134bf575f5ffd5b8135610f6c81613471565b5f5f604083850312156134db575f5ffd5b50508035926020909101359150565b5f5f83601f8401126134fa575f5ffd5b5081356001600160401b03811115613510575f5ffd5b6020830191508360208260061b85010111156124e9575f5ffd5b5f5f5f6040848603121561353c575f5ffd5b83356001600160401b03811115613551575f5ffd5b61355d868287016134ea565b909790965060209590950135949350505050565b6001600160a01b0391909116815260200190565b5f5f5f60608486031215613597575f5ffd5b83356135a281613471565b925060208401356135b281613471565b929592945050506040919091013590565b60ff81168114610ce0575f5ffd5b61ffff81168114610ce0575f5ffd5b5f5f5f606084860312156135f2575f5ffd5b83356135fd816135c3565b9250602084013561360d816135d1565b9150604084013561361d816135d1565b809150509250925092565b5f8151808452602084019350602083015f5b828110156136615781516001600160a01b031686526020958601959091019060010161363a565b5093949350505050565b602081525f610f6c6020830184613628565b5f5f6040838503121561368e575f5ffd5b8235915060208301356136a081613471565b809150509250929050565b5f5f5f606084860312156136bd575f5ffd5b833592506020840135915060408401356004811061361d575f5ffd5b634e487b7160e01b5f52602160045260245ffd5b608081016005861061370d57634e487b7160e01b5f52602160045260245ffd5b94815261ffff93841660208201529190921660408201526060015290565b5f5f6020838503121561373c575f5ffd5b82356001600160401b03811115613751575f5ffd5b61375d858286016134ea565b90969095509350505050565b5f5f5f6060848603121561377b575f5ffd5b83359250602084013561378d81613471565b9150604084013561361d81613471565b604081525f6137af6040830185613628565b82810360208401528084518083526020830191506020860192505f5b818110156137ef57835163ffffffff168352602093840193909201916001016137cb565b50909695505050505050565b604081525f61380d6040830185613628565b82810360208401528084518083526020830191506020860192505f5b818110156137ef578351835260209384019390920191600101613829565b5f5f60408385031215613858575f5ffd5b823561386381613471565b915060208301356136a081613471565b634e487b7160e01b5f52603260045260245ffd5b5f60208284031215613897575f5ffd5b81518015158114610f6c575f5ffd5b602080825281018290525f8360408301825b858110156138e85782356138cb81613471565b6001600160a01b03168252602092830192909101906001016138b8565b5095945050505050565b5f8184825b8581101561392857813561390a81613471565b6001600160a01b0316835260209283019291909101906001016138f7565b509095945050505050565b600181811c9082168061394757607f821691505b60208210810361396557634e487b7160e01b5f52602260045260245ffd5b50919050565b634e487b7160e01b5f52604160045260245ffd5b604080519081016001600160401b03811182821017156139a1576139a161396b565b60405290565b604051601f8201601f191681016001600160401b03811182821017156139cf576139cf61396b565b604052919050565b5f6001600160401b038211156139ef576139ef61396b565b5060051b60200190565b5f60208284031215613a09575f5ffd5b81516001600160401b03811115613a1e575f5ffd5b8201601f81018413613a2e575f5ffd5b8051613a41613a3c826139d7565b6139a7565b8082825260208201915060208360051b850101925086831115613a62575f5ffd5b6020840193505b82841015612b12578351613a7c81613471565b825260209384019390910190613a69565b5f60208284031215613a9d575f5ffd5b5051919050565b6001600160a01b039384168152919092166020820152604081019190915260600190565b634e487b7160e01b5f52601160045260245ffd5b8082018082111561092e5761092e613ac8565b63ffffffff81168114610ce0575f5ffd5b5f60208284031215613b10575f5ffd5b8135610f6c81613aef565b6001815b6001841115613b5657808504811115613b3a57613b3a613ac8565b6001841615613b4857908102905b60019390931c928002613b1f565b935093915050565b5f82613b6c5750600161092e565b81613b7857505f61092e565b8160018114613b8e5760028114613b9857613bb4565b600191505061092e565b60ff841115613ba957613ba9613ac8565b50506001821b61092e565b5060208310610133831016604e8410600b8410161715613bd7575081810a61092e565b613be35f198484613b1b565b805f1904821115613bf657613bf6613ac8565b029392505050565b5f610f6c60ff841683613b5e565b8181038181111561092e5761092e613ac8565b5f60208284031215613c2f575f5ffd5b8151610f6c816135d1565b6001600160a01b03929092168252602082015260400190565b6001600160a01b039390931683526020830191909152604082015260600190565b5f60208284031215613c84575f5ffd5b8151610f6c816135c3565b60ff828116828216039081111561092e5761092e613ac8565b634e487b7160e01b5f52601260045260245ffd5b5f60208284031215613ccc575f5ffd5b81516001600160401b03811115613ce1575f5ffd5b8201601f81018413613cf1575f5ffd5b8051613cff613a3c826139d7565b8082825260208201915060208360061b850101925086831115613d20575f5ffd5b6020840193505b82841015612b125760408488031215613d3e575f5ffd5b613d4661397f565b8451613d5181613471565b81526020850151613d6181613aef565b8060208301525080835250602082019150604084019350613d27565b5f61ffff821661ffff8103613d9457613d94613ac8565b60010192915050565b5f60208284031215613dad575f5ffd5b8151610f6c81613aef565b5f60ff831680613dd657634e487b7160e01b5f52601260045260245ffd5b8060ff84160691505092915050565b634e487b7160e01b5f52603160045260245ffdfea26469706673582212202adca4528e879ae5ae2b6f30561933d6f6e0ae2a6c32405ec1e4730bbd879e3964736f6c634300081c0033",
  "linkReferences": {},
  "deployedLinkReferences": {}
}