{
  "_format": "hh-sol-artifact-1",
  "contractName": "OrionTransparentVault",
  "sourceName": "contracts/vaults/OrionTransparentVault.sol",
  "abi": [
    {
      "inputs": [
        {
          "internalType": "address",
          "name": "target",
          "type": "address"
        }
      ],
      "name": "AddressEmptyCode",
      "type": "error"
    },
    {
      "inputs": [
        {
          "internalType": "address",
          "name": "asset",
          "type": "address"
        }
      ],
      "name": "AmountMustBeGreaterThanZero",
      "type": "error"
    },
    {
      "inputs": [
        {
          "internalType": "address",
          "name": "implementation",
          "type": "address"
        }
      ],
      "name": "ERC1967InvalidImplementation",
      "type": "error"
    },
    {
      "inputs": [],
      "name": "ERC1967NonPayable",
      "type": "error"
    },
    {
      "inputs": [
        {
          "internalType": "address",
          "name": "spender",
          "type": "address"
        },
        {
          "internalType": "uint256",
          "name": "allowance",
          "type": "uint256"
        },
        {
          "internalType": "uint256",
          "name": "needed",
          "type": "uint256"
        }
      ],
      "name": "ERC20InsufficientAllowance",
      "type": "error"
    },
    {
      "inputs": [
        {
          "internalType": "address",
          "name": "sender",
          "type": "address"
        },
        {
          "internalType": "uint256",
          "name": "balance",
          "type": "uint256"
        },
        {
          "internalType": "uint256",
          "name": "needed",
          "type": "uint256"
        }
      ],
      "name": "ERC20InsufficientBalance",
      "type": "error"
    },
    {
      "inputs": [
        {
          "internalType": "address",
          "name": "approver",
          "type": "address"
        }
      ],
      "name": "ERC20InvalidApprover",
      "type": "error"
    },
    {
      "inputs": [
        {
          "internalType": "address",
          "name": "receiver",
          "type": "address"
        }
      ],
      "name": "ERC20InvalidReceiver",
      "type": "error"
    },
    {
      "inputs": [
        {
          "internalType": "address",
          "name": "sender",
          "type": "address"
        }
      ],
      "name": "ERC20InvalidSender",
      "type": "error"
    },
    {
      "inputs": [
        {
          "internalType": "address",
          "name": "spender",
          "type": "address"
        }
      ],
      "name": "ERC20InvalidSpender",
      "type": "error"
    },
    {
      "inputs": [
        {
          "internalType": "address",
          "name": "receiver",
          "type": "address"
        },
        {
          "internalType": "uint256",
          "name": "assets",
          "type": "uint256"
        },
        {
          "internalType": "uint256",
          "name": "max",
          "type": "uint256"
        }
      ],
      "name": "ERC4626ExceededMaxDeposit",
      "type": "error"
    },
    {
      "inputs": [
        {
          "internalType": "address",
          "name": "receiver",
          "type": "address"
        },
        {
          "internalType": "uint256",
          "name": "shares",
          "type": "uint256"
        },
        {
          "internalType": "uint256",
          "name": "max",
          "type": "uint256"
        }
      ],
      "name": "ERC4626ExceededMaxMint",
      "type": "error"
    },
    {
      "inputs": [
        {
          "internalType": "address",
          "name": "owner",
          "type": "address"
        },
        {
          "internalType": "uint256",
          "name": "shares",
          "type": "uint256"
        },
        {
          "internalType": "uint256",
          "name": "max",
          "type": "uint256"
        }
      ],
      "name": "ERC4626ExceededMaxRedeem",
      "type": "error"
    },
    {
      "inputs": [
        {
          "internalType": "address",
          "name": "owner",
          "type": "address"
        },
        {
          "internalType": "uint256",
          "name": "assets",
          "type": "uint256"
        },
        {
          "internalType": "uint256",
          "name": "max",
          "type": "uint256"
        }
      ],
      "name": "ERC4626ExceededMaxWithdraw",
      "type": "error"
    },
    {
      "inputs": [],
      "name": "FailedCall",
      "type": "error"
    },
    {
      "inputs": [
        {
          "internalType": "address",
          "name": "sender",
          "type": "address"
        },
        {
          "internalType": "uint256",
          "name": "balance",
          "type": "uint256"
        },
        {
          "internalType": "uint256",
          "name": "amount",
          "type": "uint256"
        }
      ],
      "name": "InsufficientFunds",
      "type": "error"
    },
    {
      "inputs": [],
      "name": "InvalidConfigAddress",
      "type": "error"
    },
    {
      "inputs": [],
      "name": "InvalidCuratorAddress",
      "type": "error"
    },
    {
      "inputs": [],
      "name": "InvalidInitialization",
      "type": "error"
    },
    {
      "inputs": [],
      "name": "InvalidTotalWeight",
      "type": "error"
    },
    {
      "inputs": [],
      "name": "InvalidUnderlyingDecimals",
      "type": "error"
    },
    {
      "inputs": [],
      "name": "NotCurator",
      "type": "error"
    },
    {
      "inputs": [],
      "name": "NotEnoughDepositRequest",
      "type": "error"
    },
    {
      "inputs": [],
      "name": "NotEnoughWithdrawRequest",
      "type": "error"
    },
    {
      "inputs": [],
      "name": "NotInitializing",
      "type": "error"
    },
    {
      "inputs": [],
      "name": "NotLiquidityOrchestrator",
      "type": "error"
    },
    {
      "inputs": [],
      "name": "OrderIntentCannotBeEmpty",
      "type": "error"
    },
    {
      "inputs": [
        {
          "internalType": "address",
          "name": "owner",
          "type": "address"
        }
      ],
      "name": "OwnableInvalidOwner",
      "type": "error"
    },
    {
      "inputs": [
        {
          "internalType": "address",
          "name": "account",
          "type": "address"
        }
      ],
      "name": "OwnableUnauthorizedAccount",
      "type": "error"
    },
    {
      "inputs": [],
      "name": "ReentrancyGuardReentrantCall",
      "type": "error"
    },
    {
      "inputs": [],
      "name": "SharesMustBeGreaterThanZero",
      "type": "error"
    },
    {
      "inputs": [],
      "name": "SynchronousCallDisabled",
      "type": "error"
    },
    {
      "inputs": [
        {
          "internalType": "address",
          "name": "token",
          "type": "address"
        }
      ],
      "name": "TokenAlreadyInOrder",
      "type": "error"
    },
    {
      "inputs": [
        {
          "internalType": "address",
          "name": "token",
          "type": "address"
        }
      ],
      "name": "TokenNotWhitelisted",
      "type": "error"
    },
    {
      "inputs": [],
      "name": "TransferFailed",
      "type": "error"
    },
    {
      "inputs": [],
      "name": "UUPSUnauthorizedCallContext",
      "type": "error"
    },
    {
      "inputs": [
        {
          "internalType": "bytes32",
          "name": "slot",
          "type": "bytes32"
        }
      ],
      "name": "UUPSUnsupportedProxiableUUID",
      "type": "error"
    },
    {
      "anonymous": false,
      "inputs": [
        {
          "indexed": true,
          "internalType": "address",
          "name": "owner",
          "type": "address"
        },
        {
          "indexed": true,
          "internalType": "address",
          "name": "spender",
          "type": "address"
        },
        {
          "indexed": false,
          "internalType": "uint256",
          "name": "value",
          "type": "uint256"
        }
      ],
      "name": "Approval",
      "type": "event"
    },
    {
      "anonymous": false,
      "inputs": [
        {
          "indexed": true,
          "internalType": "address",
          "name": "sender",
          "type": "address"
        },
        {
          "indexed": true,
          "internalType": "address",
          "name": "owner",
          "type": "address"
        },
        {
          "indexed": false,
          "internalType": "uint256",
          "name": "assets",
          "type": "uint256"
        },
        {
          "indexed": false,
          "internalType": "uint256",
          "name": "shares",
          "type": "uint256"
        }
      ],
      "name": "Deposit",
      "type": "event"
    },
    {
      "anonymous": false,
      "inputs": [
        {
          "indexed": true,
          "internalType": "address",
          "name": "user",
          "type": "address"
        },
        {
          "indexed": false,
          "internalType": "uint256",
          "name": "amount",
          "type": "uint256"
        }
      ],
      "name": "DepositProcessed",
      "type": "event"
    },
    {
      "anonymous": false,
      "inputs": [
        {
          "indexed": true,
          "internalType": "address",
          "name": "user",
          "type": "address"
        },
        {
          "indexed": false,
          "internalType": "uint256",
          "name": "amount",
          "type": "uint256"
        }
      ],
      "name": "DepositRequestCancelled",
      "type": "event"
    },
    {
      "anonymous": false,
      "inputs": [
        {
          "indexed": true,
          "internalType": "address",
          "name": "user",
          "type": "address"
        },
        {
          "indexed": false,
          "internalType": "uint256",
          "name": "amount",
          "type": "uint256"
        }
      ],
      "name": "DepositRequested",
      "type": "event"
    },
    {
      "anonymous": false,
      "inputs": [
        {
          "indexed": false,
          "internalType": "uint64",
          "name": "version",
          "type": "uint64"
        }
      ],
      "name": "Initialized",
      "type": "event"
    },
    {
      "anonymous": false,
      "inputs": [
        {
          "indexed": true,
          "internalType": "address",
          "name": "curator",
          "type": "address"
        }
      ],
      "name": "OrderSubmitted",
      "type": "event"
    },
    {
      "anonymous": false,
      "inputs": [
        {
          "indexed": true,
          "internalType": "address",
          "name": "previousOwner",
          "type": "address"
        },
        {
          "indexed": true,
          "internalType": "address",
          "name": "newOwner",
          "type": "address"
        }
      ],
      "name": "OwnershipTransferStarted",
      "type": "event"
    },
    {
      "anonymous": false,
      "inputs": [
        {
          "indexed": true,
          "internalType": "address",
          "name": "previousOwner",
          "type": "address"
        },
        {
          "indexed": true,
          "internalType": "address",
          "name": "newOwner",
          "type": "address"
        }
      ],
      "name": "OwnershipTransferred",
      "type": "event"
    },
    {
      "anonymous": false,
      "inputs": [
        {
          "indexed": true,
          "internalType": "address",
          "name": "from",
          "type": "address"
        },
        {
          "indexed": true,
          "internalType": "address",
          "name": "to",
          "type": "address"
        },
        {
          "indexed": false,
          "internalType": "uint256",
          "name": "value",
          "type": "uint256"
        }
      ],
      "name": "Transfer",
      "type": "event"
    },
    {
      "anonymous": false,
      "inputs": [
        {
          "indexed": true,
          "internalType": "address",
          "name": "implementation",
          "type": "address"
        }
      ],
      "name": "Upgraded",
      "type": "event"
    },
    {
      "anonymous": false,
      "inputs": [
        {
          "indexed": false,
          "internalType": "uint256",
          "name": "newTotalAssets",
          "type": "uint256"
        }
      ],
      "name": "VaultStateUpdated",
      "type": "event"
    },
    {
      "anonymous": false,
      "inputs": [
        {
          "indexed": true,
          "internalType": "address",
          "name": "sender",
          "type": "address"
        },
        {
          "indexed": true,
          "internalType": "address",
          "name": "receiver",
          "type": "address"
        },
        {
          "indexed": true,
          "internalType": "address",
          "name": "owner",
          "type": "address"
        },
        {
          "indexed": false,
          "internalType": "uint256",
          "name": "assets",
          "type": "uint256"
        },
        {
          "indexed": false,
          "internalType": "uint256",
          "name": "shares",
          "type": "uint256"
        }
      ],
      "name": "Withdraw",
      "type": "event"
    },
    {
      "anonymous": false,
      "inputs": [
        {
          "indexed": true,
          "internalType": "address",
          "name": "user",
          "type": "address"
        },
        {
          "indexed": false,
          "internalType": "uint256",
          "name": "shares",
          "type": "uint256"
        }
      ],
      "name": "WithdrawProcessed",
      "type": "event"
    },
    {
      "anonymous": false,
      "inputs": [
        {
          "indexed": true,
          "internalType": "address",
          "name": "user",
          "type": "address"
        },
        {
          "indexed": false,
          "internalType": "uint256",
          "name": "shares",
          "type": "uint256"
        }
      ],
      "name": "WithdrawRequestCancelled",
      "type": "event"
    },
    {
      "anonymous": false,
      "inputs": [
        {
          "indexed": true,
          "internalType": "address",
          "name": "user",
          "type": "address"
        },
        {
          "indexed": false,
          "internalType": "uint256",
          "name": "shares",
          "type": "uint256"
        }
      ],
      "name": "WithdrawRequested",
      "type": "event"
    },
    {
      "inputs": [],
      "name": "UPGRADE_INTERFACE_VERSION",
      "outputs": [
        {
          "internalType": "string",
          "name": "",
          "type": "string"
        }
      ],
      "stateMutability": "view",
      "type": "function"
    },
    {
      "inputs": [],
      "name": "acceptOwnership",
      "outputs": [],
      "stateMutability": "nonpayable",
      "type": "function"
    },
    {
      "inputs": [
        {
          "internalType": "address",
          "name": "owner",
          "type": "address"
        },
        {
          "internalType": "address",
          "name": "spender",
          "type": "address"
        }
      ],
      "name": "allowance",
      "outputs": [
        {
          "internalType": "uint256",
          "name": "",
          "type": "uint256"
        }
      ],
      "stateMutability": "view",
      "type": "function"
    },
    {
      "inputs": [
        {
          "internalType": "address",
          "name": "spender",
          "type": "address"
        },
        {
          "internalType": "uint256",
          "name": "value",
          "type": "uint256"
        }
      ],
      "name": "approve",
      "outputs": [
        {
          "internalType": "bool",
          "name": "",
          "type": "bool"
        }
      ],
      "stateMutability": "nonpayable",
      "type": "function"
    },
    {
      "inputs": [],
      "name": "asset",
      "outputs": [
        {
          "internalType": "address",
          "name": "",
          "type": "address"
        }
      ],
      "stateMutability": "view",
      "type": "function"
    },
    {
      "inputs": [
        {
          "internalType": "address",
          "name": "account",
          "type": "address"
        }
      ],
      "name": "balanceOf",
      "outputs": [
        {
          "internalType": "uint256",
          "name": "",
          "type": "uint256"
        }
      ],
      "stateMutability": "view",
      "type": "function"
    },
    {
      "inputs": [
        {
          "internalType": "uint256",
          "name": "amount",
          "type": "uint256"
        }
      ],
      "name": "cancelDepositRequest",
      "outputs": [],
      "stateMutability": "nonpayable",
      "type": "function"
    },
    {
      "inputs": [
        {
          "internalType": "uint256",
          "name": "shares",
          "type": "uint256"
        }
      ],
      "name": "cancelWithdrawRequest",
      "outputs": [],
      "stateMutability": "nonpayable",
      "type": "function"
    },
    {
      "inputs": [],
      "name": "config",
      "outputs": [
        {
          "internalType": "contract IOrionConfig",
          "name": "",
          "type": "address"
        }
      ],
      "stateMutability": "view",
      "type": "function"
    },
    {
      "inputs": [
        {
          "internalType": "uint256",
          "name": "shares",
          "type": "uint256"
        }
      ],
      "name": "convertToAssets",
      "outputs": [
        {
          "internalType": "uint256",
          "name": "",
          "type": "uint256"
        }
      ],
      "stateMutability": "view",
      "type": "function"
    },
    {
      "inputs": [
        {
          "internalType": "uint256",
          "name": "shares",
          "type": "uint256"
        },
        {
          "internalType": "uint256",
          "name": "pointInTimeTotalAssets",
          "type": "uint256"
        },
        {
          "internalType": "enum Math.Rounding",
          "name": "rounding",
          "type": "uint8"
        }
      ],
      "name": "convertToAssetsWithPITTotalAssets",
      "outputs": [
        {
          "internalType": "uint256",
          "name": "",
          "type": "uint256"
        }
      ],
      "stateMutability": "view",
      "type": "function"
    },
    {
      "inputs": [
        {
          "internalType": "uint256",
          "name": "assets",
          "type": "uint256"
        }
      ],
      "name": "convertToShares",
      "outputs": [
        {
          "internalType": "uint256",
          "name": "",
          "type": "uint256"
        }
      ],
      "stateMutability": "view",
      "type": "function"
    },
    {
      "inputs": [],
      "name": "curator",
      "outputs": [
        {
          "internalType": "address",
          "name": "",
          "type": "address"
        }
      ],
      "stateMutability": "view",
      "type": "function"
    },
    {
      "inputs": [],
      "name": "decimals",
      "outputs": [
        {
          "internalType": "uint8",
          "name": "",
          "type": "uint8"
        }
      ],
      "stateMutability": "view",
      "type": "function"
    },
    {
      "inputs": [],
      "name": "deployer",
      "outputs": [
        {
          "internalType": "address",
          "name": "",
          "type": "address"
        }
      ],
      "stateMutability": "view",
      "type": "function"
    },
    {
      "inputs": [
        {
          "internalType": "uint256",
          "name": "",
          "type": "uint256"
        },
        {
          "internalType": "address",
          "name": "",
          "type": "address"
        }
      ],
      "name": "deposit",
      "outputs": [
        {
          "internalType": "uint256",
          "name": "",
          "type": "uint256"
        }
      ],
      "stateMutability": "pure",
      "type": "function"
    },
    {
      "inputs": [],
      "name": "getIntent",
      "outputs": [
        {
          "internalType": "address[]",
          "name": "tokens",
          "type": "address[]"
        },
        {
          "internalType": "uint256[]",
          "name": "weights",
          "type": "uint256[]"
        }
      ],
      "stateMutability": "view",
      "type": "function"
    },
    {
      "inputs": [],
      "name": "getPendingDeposits",
      "outputs": [
        {
          "internalType": "uint256",
          "name": "",
          "type": "uint256"
        }
      ],
      "stateMutability": "view",
      "type": "function"
    },
    {
      "inputs": [],
      "name": "getPendingWithdrawals",
      "outputs": [
        {
          "internalType": "uint256",
          "name": "",
          "type": "uint256"
        }
      ],
      "stateMutability": "view",
      "type": "function"
    },
    {
      "inputs": [],
      "name": "getPortfolio",
      "outputs": [
        {
          "internalType": "address[]",
          "name": "tokens",
          "type": "address[]"
        },
        {
          "internalType": "uint256[]",
          "name": "sharesPerAsset",
          "type": "uint256[]"
        }
      ],
      "stateMutability": "view",
      "type": "function"
    },
    {
      "inputs": [
        {
          "internalType": "address",
          "name": "curatorAddress",
          "type": "address"
        },
        {
          "internalType": "contract IOrionConfig",
          "name": "configAddress",
          "type": "address"
        },
        {
          "internalType": "string",
          "name": "name",
          "type": "string"
        },
        {
          "internalType": "string",
          "name": "symbol",
          "type": "string"
        }
      ],
      "name": "initialize",
      "outputs": [],
      "stateMutability": "nonpayable",
      "type": "function"
    },
    {
      "inputs": [
        {
          "internalType": "address",
          "name": "",
          "type": "address"
        }
      ],
      "name": "maxDeposit",
      "outputs": [
        {
          "internalType": "uint256",
          "name": "",
          "type": "uint256"
        }
      ],
      "stateMutability": "view",
      "type": "function"
    },
    {
      "inputs": [
        {
          "internalType": "address",
          "name": "",
          "type": "address"
        }
      ],
      "name": "maxMint",
      "outputs": [
        {
          "internalType": "uint256",
          "name": "",
          "type": "uint256"
        }
      ],
      "stateMutability": "view",
      "type": "function"
    },
    {
      "inputs": [
        {
          "internalType": "address",
          "name": "owner",
          "type": "address"
        }
      ],
      "name": "maxRedeem",
      "outputs": [
        {
          "internalType": "uint256",
          "name": "",
          "type": "uint256"
        }
      ],
      "stateMutability": "view",
      "type": "function"
    },
    {
      "inputs": [
        {
          "internalType": "address",
          "name": "owner",
          "type": "address"
        }
      ],
      "name": "maxWithdraw",
      "outputs": [
        {
          "internalType": "uint256",
          "name": "",
          "type": "uint256"
        }
      ],
      "stateMutability": "view",
      "type": "function"
    },
    {
      "inputs": [
        {
          "internalType": "uint256",
          "name": "",
          "type": "uint256"
        },
        {
          "internalType": "address",
          "name": "",
          "type": "address"
        }
      ],
      "name": "mint",
      "outputs": [
        {
          "internalType": "uint256",
          "name": "",
          "type": "uint256"
        }
      ],
      "stateMutability": "pure",
      "type": "function"
    },
    {
      "inputs": [],
      "name": "name",
      "outputs": [
        {
          "internalType": "string",
          "name": "",
          "type": "string"
        }
      ],
      "stateMutability": "view",
      "type": "function"
    },
    {
      "inputs": [],
      "name": "owner",
      "outputs": [
        {
          "internalType": "address",
          "name": "",
          "type": "address"
        }
      ],
      "stateMutability": "view",
      "type": "function"
    },
    {
      "inputs": [],
      "name": "pendingOwner",
      "outputs": [
        {
          "internalType": "address",
          "name": "",
          "type": "address"
        }
      ],
      "stateMutability": "view",
      "type": "function"
    },
    {
      "inputs": [
        {
          "internalType": "uint256",
          "name": "assets",
          "type": "uint256"
        }
      ],
      "name": "previewDeposit",
      "outputs": [
        {
          "internalType": "uint256",
          "name": "",
          "type": "uint256"
        }
      ],
      "stateMutability": "view",
      "type": "function"
    },
    {
      "inputs": [
        {
          "internalType": "uint256",
          "name": "shares",
          "type": "uint256"
        }
      ],
      "name": "previewMint",
      "outputs": [
        {
          "internalType": "uint256",
          "name": "",
          "type": "uint256"
        }
      ],
      "stateMutability": "view",
      "type": "function"
    },
    {
      "inputs": [
        {
          "internalType": "uint256",
          "name": "shares",
          "type": "uint256"
        }
      ],
      "name": "previewRedeem",
      "outputs": [
        {
          "internalType": "uint256",
          "name": "",
          "type": "uint256"
        }
      ],
      "stateMutability": "view",
      "type": "function"
    },
    {
      "inputs": [
        {
          "internalType": "uint256",
          "name": "assets",
          "type": "uint256"
        }
      ],
      "name": "previewWithdraw",
      "outputs": [
        {
          "internalType": "uint256",
          "name": "",
          "type": "uint256"
        }
      ],
      "stateMutability": "view",
      "type": "function"
    },
    {
      "inputs": [],
      "name": "processDepositRequests",
      "outputs": [],
      "stateMutability": "nonpayable",
      "type": "function"
    },
    {
      "inputs": [],
      "name": "processWithdrawRequests",
      "outputs": [],
      "stateMutability": "nonpayable",
      "type": "function"
    },
    {
      "inputs": [],
      "name": "proxiableUUID",
      "outputs": [
        {
          "internalType": "bytes32",
          "name": "",
          "type": "bytes32"
        }
      ],
      "stateMutability": "view",
      "type": "function"
    },
    {
      "inputs": [
        {
          "internalType": "uint256",
          "name": "",
          "type": "uint256"
        },
        {
          "internalType": "address",
          "name": "",
          "type": "address"
        },
        {
          "internalType": "address",
          "name": "",
          "type": "address"
        }
      ],
      "name": "redeem",
      "outputs": [
        {
          "internalType": "uint256",
          "name": "",
          "type": "uint256"
        }
      ],
      "stateMutability": "pure",
      "type": "function"
    },
    {
      "inputs": [],
      "name": "renounceOwnership",
      "outputs": [],
      "stateMutability": "nonpayable",
      "type": "function"
    },
    {
      "inputs": [
        {
          "internalType": "uint256",
          "name": "amount",
          "type": "uint256"
        }
      ],
      "name": "requestDeposit",
      "outputs": [],
      "stateMutability": "nonpayable",
      "type": "function"
    },
    {
      "inputs": [
        {
          "internalType": "uint256",
          "name": "shares",
          "type": "uint256"
        }
      ],
      "name": "requestWithdraw",
      "outputs": [],
      "stateMutability": "nonpayable",
      "type": "function"
    },
    {
      "inputs": [
        {
          "components": [
            {
              "internalType": "address",
              "name": "token",
              "type": "address"
            },
            {
              "internalType": "uint32",
              "name": "value",
              "type": "uint32"
            }
          ],
          "internalType": "struct IOrionTransparentVault.Position[]",
          "name": "order",
          "type": "tuple[]"
        }
      ],
      "name": "submitIntent",
      "outputs": [],
      "stateMutability": "nonpayable",
      "type": "function"
    },
    {
      "inputs": [],
      "name": "symbol",
      "outputs": [
        {
          "internalType": "string",
          "name": "",
          "type": "string"
        }
      ],
      "stateMutability": "view",
      "type": "function"
    },
    {
      "inputs": [],
      "name": "totalAssets",
      "outputs": [
        {
          "internalType": "uint256",
          "name": "",
          "type": "uint256"
        }
      ],
      "stateMutability": "view",
      "type": "function"
    },
    {
      "inputs": [],
      "name": "totalSupply",
      "outputs": [
        {
          "internalType": "uint256",
          "name": "",
          "type": "uint256"
        }
      ],
      "stateMutability": "view",
      "type": "function"
    },
    {
      "inputs": [
        {
          "internalType": "address",
          "name": "to",
          "type": "address"
        },
        {
          "internalType": "uint256",
          "name": "value",
          "type": "uint256"
        }
      ],
      "name": "transfer",
      "outputs": [
        {
          "internalType": "bool",
          "name": "",
          "type": "bool"
        }
      ],
      "stateMutability": "nonpayable",
      "type": "function"
    },
    {
      "inputs": [
        {
          "internalType": "address",
          "name": "from",
          "type": "address"
        },
        {
          "internalType": "address",
          "name": "to",
          "type": "address"
        },
        {
          "internalType": "uint256",
          "name": "value",
          "type": "uint256"
        }
      ],
      "name": "transferFrom",
      "outputs": [
        {
          "internalType": "bool",
          "name": "",
          "type": "bool"
        }
      ],
      "stateMutability": "nonpayable",
      "type": "function"
    },
    {
      "inputs": [
        {
          "internalType": "address",
          "name": "newOwner",
          "type": "address"
        }
      ],
      "name": "transferOwnership",
      "outputs": [],
      "stateMutability": "nonpayable",
      "type": "function"
    },
    {
      "inputs": [
        {
          "components": [
            {
              "internalType": "address",
              "name": "token",
              "type": "address"
            },
            {
              "internalType": "uint32",
              "name": "value",
              "type": "uint32"
            }
          ],
          "internalType": "struct IOrionTransparentVault.Position[]",
          "name": "portfolio",
          "type": "tuple[]"
        },
        {
          "internalType": "uint256",
          "name": "newTotalAssets",
          "type": "uint256"
        }
      ],
      "name": "updateVaultState",
      "outputs": [],
      "stateMutability": "nonpayable",
      "type": "function"
    },
    {
      "inputs": [
        {
          "internalType": "address",
          "name": "newImplementation",
          "type": "address"
        },
        {
          "internalType": "bytes",
          "name": "data",
          "type": "bytes"
        }
      ],
      "name": "upgradeToAndCall",
      "outputs": [],
      "stateMutability": "payable",
      "type": "function"
    },
    {
      "inputs": [
        {
          "internalType": "uint256",
          "name": "",
          "type": "uint256"
        },
        {
          "internalType": "address",
          "name": "",
          "type": "address"
        },
        {
          "internalType": "address",
          "name": "",
          "type": "address"
        }
      ],
      "name": "withdraw",
      "outputs": [
        {
          "internalType": "uint256",
          "name": "",
          "type": "uint256"
        }
      ],
      "stateMutability": "pure",
      "type": "function"
    }
  ],
  "bytecode": "0x60a0604052306080523480156012575f5ffd5b50608051613c736100395f395f81816126180152818161264101526127a30152613c735ff3fe6080604052600436106102bf575f3560e01c806395d89b411161016f578063c63d75b6116100d8578063d5f3948811610092578063e30c39781161006d578063e30c3978146107ae578063e66f53b7146107c2578063ef8b30f7146106cc578063f2fde38b146107e1575f5ffd5b8063d5f3948814610751578063d905777e14610770578063dd62ed3e1461078f575f5ffd5b8063c63d75b61461048b578063c6e6f592146106cc578063cce4705b146106eb578063ce96cb771461070a578063d1699c2614610729578063d3d034581461073d575f5ffd5b8063b3d7f6b911610129578063b3d7f6b91461063e578063b460af941461065d578063b6eba65314610677578063ba0876521461065d578063c0b568e114610699578063c37fc8a8146106b8575f5ffd5b806395d89b4114610589578063a68a52671461059d578063a9059cbb146105bc578063aa9d3a60146105db578063ad3cb1cc146105ef578063b1bd7e2e1461061f575f5ffd5b806338d52e0f1161022b57806370a08231116101e557806379502c55116101c057806379502c551461054357806379ba5097146105615780638da5cb5b1461057557806394bf804d146104d2575f5ffd5b806370a08231146104f1578063715018a614610510578063745400c914610524575f5ffd5b806338d52e0f1461045f578063402d267d1461048b5780634cdad506146103075780634f1ef286146104ab57806352d1902d146104be5780636e553f65146104d2575f5ffd5b8063105444941161027c578063105444941461039557806318160ddd146103b45780632016a0d2146103e757806323b872dd14610406578063313ce5671461042557806333fdc5921461044b575f5ffd5b806301e1d114146102c357806306fdde03146102e657806307a2d13a14610307578063095ea7b3146103265780630a28a477146103555780630d1e666714610374575b5f5ffd5b3480156102ce575f5ffd5b506003545b6040519081526020015b60405180910390f35b3480156102f1575f5ffd5b506102fa610800565b6040516102dd9190613364565b348015610312575f5ffd5b506102d3610321366004613399565b6108c0565b348015610331575f5ffd5b506103456103403660046133c4565b6108d1565b60405190151581526020016102dd565b348015610360575f5ffd5b506102d361036f366004613399565b6108e8565b34801561037f575f5ffd5b5061039361038e366004613399565b6108f4565b005b3480156103a0575f5ffd5b506103936103af36600461342e565b610b7e565b3480156103bf575f5ffd5b507f52c63247e1f47db19d5ce0460030c497f067ca4cebf71ba98eeadabe20bace02546102d3565b3480156103f2575f5ffd5b506103936104013660046134b2565b610ceb565b348015610411575f5ffd5b50610345610420366004613544565b610e51565b348015610430575f5ffd5b50610439610e76565b60405160ff90911681526020016102dd565b348015610456575f5ffd5b50610393610eb8565b34801561046a575f5ffd5b50610473611143565b6040516001600160a01b0390911681526020016102dd565b348015610496575f5ffd5b506102d36104a5366004613582565b505f1990565b6103936104b93660046135b1565b611177565b3480156104c9575f5ffd5b506102d3611196565b3480156104dd575f5ffd5b506102d36104ec366004613674565b6111b1565b3480156104fc575f5ffd5b506102d361050b366004613582565b6111cb565b34801561051b575f5ffd5b506103936111f1565b34801561052f575f5ffd5b5061039361053e366004613399565b611202565b34801561054e575f5ffd5b505f54610473906001600160a01b031681565b34801561056c575f5ffd5b506103936113e7565b348015610580575f5ffd5b5061047361142c565b348015610594575f5ffd5b506102fa611454565b3480156105a8575f5ffd5b506102d36105b73660046136a2565b611492565b3480156105c7575f5ffd5b506103456105d63660046133c4565b6114f9565b3480156105e6575f5ffd5b50610393611506565b3480156105fa575f5ffd5b506102fa604051806040016040528060058152602001640352e302e360dc1b81525081565b34801561062a575f5ffd5b506103936106393660046136db565b61182f565b348015610649575f5ffd5b506102d3610658366004613399565b611ae1565b348015610668575f5ffd5b506102d36104ec366004613719565b348015610682575f5ffd5b5061068b611aed565b6040516102dd92919061374d565b3480156106a4575f5ffd5b506103936106b3366004613399565b611c01565b3480156106c3575f5ffd5b50600b546102d3565b3480156106d7575f5ffd5b506102d36106e6366004613399565b611db1565b3480156106f6575f5ffd5b50610393610705366004613399565b611dbc565b348015610715575f5ffd5b506102d3610724366004613582565b611f61565b348015610734575f5ffd5b50600a546102d3565b348015610748575f5ffd5b5061068b611f74565b34801561075c575f5ffd5b50600254610473906001600160a01b031681565b34801561077b575f5ffd5b506102d361078a366004613582565b612082565b34801561079a575f5ffd5b506102d36107a93660046137d6565b61208c565b3480156107b9575f5ffd5b506104736120d5565b3480156107cd575f5ffd5b50600154610473906001600160a01b031681565b3480156107ec575f5ffd5b506103936107fb366004613582565b6120fd565b7f52c63247e1f47db19d5ce0460030c497f067ca4cebf71ba98eeadabe20bace0380546060915f516020613bde5f395f51905f529161083e90613802565b80601f016020809104026020016040519081016040528092919081815260200182805461086a90613802565b80156108b55780601f1061088c576101008083540402835291602001916108b5565b820191905f5260205f20905b81548152906001019060200180831161089857829003601f168201915b505050505091505090565b5f6108cb825f612182565b92915050565b5f336108de818585612190565b5060019392505050565b5f6108cb8260016121a2565b6108fc61220d565b805f036109355761090b611143565b604051636b30633560e01b81526001600160a01b0390911660048201526024015b60405180910390fd5b5f61093e611143565b6040516370a0823160e01b81523360048201526001600160a01b0391909116906370a0823190602401602060405180830381865afa158015610982573d5f5f3e3d5ffd5b505050506040513d601f19601f820116820180604052508101906109a6919061383a565b9050808211156109cf57338183604051632e2a182f60e11b815260040161092c93929190613851565b5f6109d8611143565b6001600160a01b03166323b872dd335f5f9054906101000a90046001600160a01b03166001600160a01b0316633a0dad8e6040518163ffffffff1660e01b8152600401602060405180830381865afa158015610a36573d5f5f3e3d5ffd5b505050506040513d601f19601f82011682018060405250810190610a5a9190613872565b6040516001600160e01b031960e085901b1681526001600160a01b03928316600482015291166024820152604481018690526064016020604051808303815f875af1158015610aab573d5f5f3e3d5ffd5b505050506040513d601f19601f82011682018060405250810190610acf919061388d565b905080610aef576040516312171d8360e31b815260040160405180910390fd5b5f610afb600433612244565b9150610b16905033610b0d86846138c0565b6004919061226a565b5083600a5f828254610b2891906138c0565b909155505060405184815233907f08d79f77ab5f78e7e780abb1f7ac9e9923340d5bae78f6e83e7999905b248ea29060200160405180910390a2505050610b7b60015f516020613c1e5f395f51905f5255565b50565b5f5f9054906101000a90046001600160a01b03166001600160a01b0316633a0dad8e6040518163ffffffff1660e01b8152600401602060405180830381865afa158015610bcd573d5f5f3e3d5ffd5b505050506040513d601f19601f82011682018060405250810190610bf19190613872565b6001600160a01b0316336001600160a01b031614610c2257604051631af2ab4f60e31b815260040160405180910390fd5b610c2c600d612292565b815f5b81811015610cac57610ca3858583818110610c4c57610c4c6138d3565b610c629260206040909202019081019150613582565b868684818110610c7457610c746138d3565b9050604002016020016020810190610c8c91906138e7565b63ffffffff16600d61226a9092919063ffffffff16565b50600101610c2f565b5060038290556040518281527f5e1ff954b5e5257e9ee5d4cb07059e8f5e69b1aaaf9911e5d8d90a6894de9c219060200160405180910390a150505050565b5f610cf461229b565b805490915060ff600160401b82041615906001600160401b03165f81158015610d1a5750825b90505f826001600160401b03166001148015610d355750303b155b905081158015610d43575080155b15610d615760405163f92ee8a960e01b815260040160405180910390fd5b845467ffffffffffffffff191660011785558315610d8b57845460ff60401b1916600160401b1785555b610dfe8b8b8b8b8080601f0160208091040260200160405190810160405280939291908181526020018383808284375f9201919091525050604080516020601f8f018190048102820181019092528d815292508d91508c90819084018382808284375f920191909152506122c392505050565b8315610e4457845460ff60401b19168555604051600181527fc7f505b2f371ae2175ee4913f4499e1f2633a7b5936321eed1cdaeb6115181d29060200160405180910390a15b5050505050505050505050565b5f33610e5e8582856124ff565b610e69858585612550565b60019150505b9392505050565b5f807f0773e532dfede91f04b12a73d3d2acd361424f41f76b4fb79f090161e36b4e0090505f8154610eb29190600160a01b900460ff1661390a565b91505090565b5f5f9054906101000a90046001600160a01b03166001600160a01b0316633a0dad8e6040518163ffffffff1660e01b8152600401602060405180830381865afa158015610f07573d5f5f3e3d5ffd5b505050506040513d601f19601f82011682018060405250810190610f2b9190613872565b6001600160a01b0316336001600160a01b031614610f5c57604051631af2ab4f60e31b815260040160405180910390fd5b610f6461220d565b5f610f6f60046125ad565b90505f816001600160401b03811115610f8a57610f8a61359d565b604051908082528060200260200182016040528015610fb3578160200160208202803683370190505b5090505f826001600160401b03811115610fcf57610fcf61359d565b604051908082528060200260200182016040528015610ff8578160200160208202803683370190505b5090505f5b83811015611071575f806110126004846125b7565b9150915081858481518110611029576110296138d3565b60200260200101906001600160a01b031690816001600160a01b0316815250508084848151811061105c5761105c6138d3565b60209081029190910101525050600101610ffd565b505f5b83811015611126575f83828151811061108f5761108f6138d3565b602002602001015190505f8383815181106110ac576110ac6138d3565b602002602001015190505f6110c082611db1565b90506110cd6004846125c5565b506110d883826125d9565b826001600160a01b03167f85a190caa61692b36b63a55e069330d18ab9af179fed7a25c16a4262bc63b7d28360405161111391815260200190565b60405180910390a2505050600101611074565b50505f600a55505060015f516020613c1e5f395f51905f5255565b565b5f807f0773e532dfede91f04b12a73d3d2acd361424f41f76b4fb79f090161e36b4e005b546001600160a01b031692915050565b61117f61260d565b611188826126b1565b61119282826126dc565b5050565b5f61119f612798565b505f516020613bfe5f395f51905f5290565b5f60405163125ad87760e31b815260040160405180910390fd5b6001600160a01b03165f9081525f516020613bde5f395f51905f52602052604090205490565b6111f96127e1565b6111415f612813565b805f03611222576040516314e6cbb960e11b815260040160405180910390fd5b5f61122c336111cb565b90508082111561125557338183604051632e2a182f60e11b815260040161092c93929190613851565b5f306001600160a01b03166323b872dd335f5f9054906101000a90046001600160a01b03166001600160a01b0316633a0dad8e6040518163ffffffff1660e01b8152600401602060405180830381865afa1580156112b5573d5f5f3e3d5ffd5b505050506040513d601f19601f820116820180604052508101906112d99190613872565b6040516001600160e01b031960e085901b1681526001600160a01b03928316600482015291166024820152604481018690526064016020604051808303815f875af115801561132a573d5f5f3e3d5ffd5b505050506040513d601f19601f8201168201806040525081019061134e919061388d565b90508061136e576040516312171d8360e31b815260040160405180910390fd5b5f61137a600733612244565b915061139590503361138c86846138c0565b6007919061226a565b5083600b5f8282546113a791906138c0565b909155505060405184815233907ff7774b688d56120b783560a913ee60792a73dfd511812b7be5eccf10d08c66899060200160405180910390a250505050565b33806113f16120d5565b6001600160a01b0316146114235760405163118cdaa760e01b81526001600160a01b038216600482015260240161092c565b610b7b81612813565b5f807f9016d09d72d40fdae2fd8ceac6b6234c7706214fd39c1cd1e609a0528c199300611167565b7f52c63247e1f47db19d5ce0460030c497f067ca4cebf71ba98eeadabe20bace0480546060915f516020613bde5f395f51905f529161083e90613802565b5f5f6114bc7f52c63247e1f47db19d5ce0460030c497f067ca4cebf71ba98eeadabe20bace025490565b90506114f06114cc8560016138c0565b600c546114dd9060ff16600a613a06565b6114e790846138c0565b8791908661284b565b95945050505050565b5f336108de818585612550565b5f5f9054906101000a90046001600160a01b03166001600160a01b0316633a0dad8e6040518163ffffffff1660e01b8152600401602060405180830381865afa158015611555573d5f5f3e3d5ffd5b505050506040513d601f19601f820116820180604052508101906115799190613872565b6001600160a01b0316336001600160a01b0316146115aa57604051631af2ab4f60e31b815260040160405180910390fd5b6115b261220d565b5f6115bd60076125ad565b90505f816001600160401b038111156115d8576115d861359d565b604051908082528060200260200182016040528015611601578160200160208202803683370190505b5090505f826001600160401b0381111561161d5761161d61359d565b604051908082528060200260200182016040528015611646578160200160208202803683370190505b5090505f5b838110156116bf575f806116606007846125b7565b9150915081858481518110611677576116776138d3565b60200260200101906001600160a01b031690816001600160a01b031681525050808484815181106116aa576116aa6138d3565b6020908102919091010152505060010161164b565b505f5b83811015611814575f8382815181106116dd576116dd6138d3565b602002602001015190505f8383815181106116fa576116fa6138d3565b602002602001015190506117188260076125c590919063ffffffff16565b50611723308261288d565b5f61172d826108c0565b9050611737611143565b60405163a9059cbb60e01b81526001600160a01b03858116600483015260248201849052919091169063a9059cbb906044016020604051808303815f875af1158015611785573d5f5f3e3d5ffd5b505050506040513d601f19601f820116820180604052508101906117a9919061388d565b6117c6576040516312171d8360e31b815260040160405180910390fd5b826001600160a01b03167f44b2ff9ffcefe2052a8afdbed44a04bf3db4592ae90c6b96c818bd28573e41e88360405161180191815260200190565b60405180910390a25050506001016116c2565b50505f600b55505060015f516020613c1e5f395f51905f5255565b6001546001600160a01b0316331461185a576040516356b381a560e01b815260040160405180910390fd5b5f81900361187b57604051631121aa8d60e01b815260040160405180910390fd5b6118856010612292565b5f81815b81811015611a0f575f8585838181106118a4576118a46138d3565b6118ba9260206040909202019081019150613582565b90505f8686848181106118cf576118cf6138d3565b90506040020160200160208101906118e791906138e7565b5f54604051633af32abf60e01b81526001600160a01b038581166004830152929350911690633af32abf90602401602060405180830381865afa158015611930573d5f5f3e3d5ffd5b505050506040513d601f19601f82011682018060405250810190611954919061388d565b61197c5760405163751dff9760e11b81526001600160a01b038316600482015260240161092c565b8063ffffffff165f036119ad57604051636b30633560e01b81526001600160a01b038316600482015260240161092c565b5f6119c360108463ffffffff8086169061226a16565b9050806119ee576040516346bdabe160e01b81526001600160a01b038416600482015260240161092c565b6119fe63ffffffff8316876138c0565b955050600190920191506118899050565b505f5f5f9054906101000a90046001600160a01b03166001600160a01b031663d1717c7d6040518163ffffffff1660e01b8152600401602060405180830381865afa158015611a60573d5f5f3e3d5ffd5b505050506040513d601f19601f82011682018060405250810190611a849190613a14565b9050611a9181600a613a06565b8314611ab057604051639006dd2760e01b815260040160405180910390fd5b60405133907f2d47a742b8d7df7c1fc5a9a631b206b364e6cb2722490759f63bb3ab14b132e0905f90a25050505050565b5f6108cb826001612182565b6060805f611afb60106125ad565b9050806001600160401b03811115611b1557611b1561359d565b604051908082528060200260200182016040528015611b3e578160200160208202803683370190505b509250806001600160401b03811115611b5957611b5961359d565b604051908082528060200260200182016040528015611b82578160200160208202803683370190505b5091505f5b81811015611bfb575f80611b9c6010846125b7565b9150915081868481518110611bb357611bb36138d3565b60200260200101906001600160a01b031690816001600160a01b03168152505080858481518110611be657611be66138d3565b60209081029190910101525050600101611b87565b50509091565b611c0961220d565b805f03611c185761090b611143565b5f611c24600433612244565b91505081811015611c48576040516332194fd360e21b815260040160405180910390fd5b5f5f9054906101000a90046001600160a01b03166001600160a01b0316633a0dad8e6040518163ffffffff1660e01b8152600401602060405180830381865afa158015611c97573d5f5f3e3d5ffd5b505050506040513d601f19601f82011682018060405250810190611cbb9190613872565b6040516351edffb160e01b8152336004820152602481018490526001600160a01b0391909116906351edffb1906044015f604051808303815f87803b158015611d02575f5ffd5b505af1158015611d14573d5f5f3e3d5ffd5b505050505f8282611d259190613a34565b9050805f03611d3f57611d396004336125c5565b50611d4d565b611d4b6004338361226a565b505b82600a5f828254611d5e9190613a34565b909155505060405183815233907f96a9a6886cdf3047a125454218a23d3961fd3a78643123b248a9d106d0ac94fd906020015b60405180910390a25050610b7b60015f516020613c1e5f395f51905f5255565b5f6108cb825f6121a2565b611dc461220d565b805f03611de4576040516314e6cbb960e11b815260040160405180910390fd5b5f611df0600733612244565b91505081811015611e14576040516312ea1f4960e11b815260040160405180910390fd5b5f5f9054906101000a90046001600160a01b03166001600160a01b0316633a0dad8e6040518163ffffffff1660e01b8152600401602060405180830381865afa158015611e63573d5f5f3e3d5ffd5b505050506040513d601f19601f82011682018060405250810190611e879190613872565b6040516305f0c35960e51b8152336004820152602481018490526001600160a01b03919091169063be186b20906044015f604051808303815f87803b158015611ece575f5ffd5b505af1158015611ee0573d5f5f3e3d5ffd5b505050505f8282611ef19190613a34565b9050805f03611f0b57611f056007336125c5565b50611f19565b611f176007338361226a565b505b82600b5f828254611f2a9190613a34565b909155505060405183815233907f9cf37535785001dcc9767688232fcbc8698b3002d1207b50bc2afec3ff8934dc90602001611d91565b5f6108cb611f6e836111cb565b5f612182565b6060805f611f82600d6125ad565b9050806001600160401b03811115611f9c57611f9c61359d565b604051908082528060200260200182016040528015611fc5578160200160208202803683370190505b509250806001600160401b03811115611fe057611fe061359d565b604051908082528060200260200182016040528015612009578160200160208202803683370190505b5091505f5b81811015611bfb575f80612023600d846125b7565b915091508186848151811061203a5761203a6138d3565b60200260200101906001600160a01b031690816001600160a01b0316815250508085848151811061206d5761206d6138d3565b6020908102919091010152505060010161200e565b5f6108cb826111cb565b6001600160a01b039182165f9081527f52c63247e1f47db19d5ce0460030c497f067ca4cebf71ba98eeadabe20bace016020908152604080832093909416825291909152205490565b5f807f237e158222e3e6968b72b9db0d8043aacf074ad9f650f0d1606b4d82ee432c00611167565b6121056127e1565b7f237e158222e3e6968b72b9db0d8043aacf074ad9f650f0d1606b4d82ee432c0080546001600160a01b0319166001600160a01b038316908117825561214961142c565b6001600160a01b03167f38d16b8cac22d99fc7c124b9cd0de2d3fa1faef420bfe791d8c362d765e2270060405160405180910390a35050565b5f610e6f8360035484611492565b61219d83838360016128c1565b505050565b5f5f6121cc7f52c63247e1f47db19d5ce0460030c497f067ca4cebf71ba98eeadabe20bace025490565b600c54909150612205906121e49060ff16600a613a06565b6121ee90836138c0565b6003546121fc9060016138c0565b8691908661284b565b949350505050565b5f516020613c1e5f395f51905f5280546001190161223e57604051633ee5aeb560e01b815260040160405180910390fd5b60029055565b5f80808061225b866001600160a01b0387166129a5565b909450925050505b9250929050565b5f612205846001600160a01b038516846129dd565b60015f516020613c1e5f395f51905f5255565b610b7b816129f9565b5f807ff0c57e16840df040f15088dc2f81fe391c3923bec73e23a9662efc9c229c6a006108cb565b6122cb612a42565b6001600160a01b0384166122f257604051639c6bb9f560e01b815260040160405180910390fd5b6001600160a01b03831661231957604051636a485a5b60e11b815260040160405180910390fd5b6123238282612a67565b61238b836001600160a01b0316637158da7c6040518163ffffffff1660e01b8152600401602060405180830381865afa158015612362573d5f5f3e3d5ffd5b505050506040513d601f19601f820116820180604052508101906123869190613872565b612a79565b612393612a8a565b61239c84612a9a565b6123a4612aab565b6123ac612aab565b60028054336001600160a01b0319918216179091556001805482166001600160a01b03878116919091179091555f805490921690851690811782556003829055600a829055600b82905560408051631c56369f60e21b81529051637158da7c916004808201926020929091908290030181865afa15801561242f573d5f5f3e3d5ffd5b505050506040513d601f19601f820116820180604052508101906124539190613872565b6001600160a01b031663313ce5676040518163ffffffff1660e01b8152600401602060405180830381865afa15801561248e573d5f5f3e3d5ffd5b505050506040513d601f19601f820116820180604052508101906124b29190613a14565b905060128160ff1611156124d957604051631c03248960e11b815260040160405180910390fd5b6124e4816012613a47565b600c805460ff191660ff929092169190911790555050505050565b5f61250a848461208c565b90505f1981101561254a578181101561253c57828183604051637dc7a0d960e11b815260040161092c93929190613851565b61254a84848484035f6128c1565b50505050565b6001600160a01b03831661257957604051634b637e8f60e11b81525f600482015260240161092c565b6001600160a01b0382166125a25760405163ec442f0560e01b81525f600482015260240161092c565b61219d838383612ab3565b5f6108cb82612bd9565b5f80808061225b8686612be3565b5f610e6f836001600160a01b038416612c0c565b6001600160a01b0382166126025760405163ec442f0560e01b81525f600482015260240161092c565b6111925f8383612ab3565b306001600160a01b037f000000000000000000000000000000000000000000000000000000000000000016148061269357507f00000000000000000000000000000000000000000000000000000000000000006001600160a01b03166126875f516020613bfe5f395f51905f52546001600160a01b031690565b6001600160a01b031614155b156111415760405163703e46dd60e11b815260040160405180910390fd5b6001546001600160a01b03163314610b7b576040516356b381a560e01b815260040160405180910390fd5b816001600160a01b03166352d1902d6040518163ffffffff1660e01b8152600401602060405180830381865afa925050508015612736575060408051601f3d908101601f191682019092526127339181019061383a565b60015b61275e57604051634c9c8ce360e01b81526001600160a01b038316600482015260240161092c565b5f516020613bfe5f395f51905f52811461278e57604051632a87526960e21b81526004810182905260240161092c565b61219d8383612c28565b306001600160a01b037f000000000000000000000000000000000000000000000000000000000000000016146111415760405163703e46dd60e11b815260040160405180910390fd5b336127ea61142c565b6001600160a01b0316146111415760405163118cdaa760e01b815233600482015260240161092c565b7f237e158222e3e6968b72b9db0d8043aacf074ad9f650f0d1606b4d82ee432c0080546001600160a01b031916815561119282612c7d565b5f61287861285883612ced565b801561287357505f848061286e5761286e613a60565b868809115b151590565b612883868686612d19565b6114f091906138c0565b6001600160a01b0382166128b657604051634b637e8f60e11b81525f600482015260240161092c565b611192825f83612ab3565b5f516020613bde5f395f51905f526001600160a01b0385166128f85760405163e602df0560e01b81525f600482015260240161092c565b6001600160a01b03841661292157604051634a1406b160e11b81525f600482015260240161092c565b6001600160a01b038086165f9081526001830160209081526040808320938816835292905220839055811561299e57836001600160a01b0316856001600160a01b03167f8c5be1e5ebec7d5bd14f71427d1e84f3dd0314c0f7b2291e5b200ac8c7c3b9258560405161299591815260200190565b60405180910390a35b5050505050565b5f8181526002830160205260408120548190806129d2576129c68585612dc9565b92505f91506122639050565b600192509050612263565b5f82815260028401602052604081208290556122058484612dd4565b5f612a0382612bd9565b90505f5b81811015612a3857600283015f612a1e8584612ddf565b815260208101919091526040015f90812055600101612a07565b5061119282612dea565b612a4a612df3565b61114157604051631afcd79f60e31b815260040160405180910390fd5b612a6f612a42565b6111928282612e0c565b612a81612a42565b610b7b81612e5c565b612a92612a42565b611141612edf565b612aa2612a42565b610b7b81612ee7565b611141612a42565b5f516020613bde5f395f51905f526001600160a01b038416612aed5781816002015f828254612ae291906138c0565b90915550612b4a9050565b6001600160a01b0384165f9081526020829052604090205482811015612b2c5784818460405163391434e360e21b815260040161092c93929190613851565b6001600160a01b0385165f9081526020839052604090209083900390555b6001600160a01b038316612b68576002810180548390039055612b86565b6001600160a01b0383165f9081526020829052604090208054830190555b826001600160a01b0316846001600160a01b03167fddf252ad1be2c89b69c2b068fc378daa952ba7f163c4a11628f55a4df523b3ef84604051612bcb91815260200190565b60405180910390a350505050565b5f6108cb82612f18565b5f8080612bf08585612ddf565b5f81815260029690960160205260409095205494959350505050565b5f8181526002830160205260408120819055610e6f8383612f21565b612c3182612f2c565b6040516001600160a01b038316907fbc7cd75a20ee27fd9adebab32041f755214dbc6bffa90cc0225b39da2e5c2d3b905f90a2805115612c755761219d8282612f8f565b611192612ff8565b7f9016d09d72d40fdae2fd8ceac6b6234c7706214fd39c1cd1e609a0528c19930080546001600160a01b031981166001600160a01b03848116918217845560405192169182907f8be0079c531659141344cd1fd0a4f28419497f9722a3daafe3b4186f6b6457e0905f90a3505050565b5f6002826003811115612d0257612d02613a74565b612d0c9190613a88565b60ff166001149050919050565b5f5f5f612d268686613017565b91509150815f03612d4a57838181612d4057612d40613a60565b0492505050610e6f565b818411612d6157612d616003851502601118613033565b5f848688095f868103871696879004966002600389028118808a02820302808a02820302808a02820302808a02820302808a02820302808a02909103029181900381900460010185841190960395909502919093039390930492909217029150509392505050565b5f610e6f8383613044565b5f610e6f838361305b565b5f610e6f83836130a7565b610b7b816130cd565b5f612dfc61229b565b54600160401b900460ff16919050565b612e14612a42565b5f516020613bde5f395f51905f527f52c63247e1f47db19d5ce0460030c497f067ca4cebf71ba98eeadabe20bace03612e4d8482613af9565b506004810161254a8382613af9565b612e64612a42565b7f0773e532dfede91f04b12a73d3d2acd361424f41f76b4fb79f090161e36b4e005f80612e9084613126565b9150915081612ea0576012612ea2565b805b83546001600160a81b031916600160a01b60ff92909216919091026001600160a01b031916176001600160a01b0394909416939093179091555050565b61227f612a42565b612eef612a42565b6001600160a01b03811661142357604051631e4fbdf760e01b81525f600482015260240161092c565b5f6108cb825490565b5f610e6f83836131fc565b806001600160a01b03163b5f03612f6157604051634c9c8ce360e01b81526001600160a01b038216600482015260240161092c565b5f516020613bfe5f395f51905f5280546001600160a01b0319166001600160a01b0392909216919091179055565b60605f5f846001600160a01b031684604051612fab9190613bb3565b5f60405180830381855af49150503d805f8114612fe3576040519150601f19603f3d011682016040523d82523d5f602084013e612fe8565b606091505b50915091506114f08583836132df565b34156111415760405163b398979f60e01b815260040160405180910390fd5b5f805f1983850993909202808410938190039390930393915050565b634e487b715f52806020526024601cfd5b5f8181526001830160205260408120541515610e6f565b5f8181526001830160205260408120546130a057508154600181810184555f8481526020808220909301849055845484825282860190935260409020919091556108cb565b505f6108cb565b5f825f0182815481106130bc576130bc6138d3565b905f5260205f200154905092915050565b5f6130d6825490565b90505f5b8181101561311f57826001015f845f0183815481106130fb576130fb6138d3565b905f5260205f20015481526020019081526020015f205f90558060010190506130da565b50505f9055565b60408051600481526024810182526020810180516001600160e01b031663313ce56760e01b17905290515f918291829182916001600160a01b0387169161316c91613bb3565b5f60405180830381855afa9150503d805f81146131a4576040519150601f19603f3d011682016040523d82523d5f602084013e6131a9565b606091505b50915091508180156131bd57506020815110155b156131f0575f818060200190518101906131d7919061383a565b905060ff81116131ee576001969095509350505050565b505b505f9485945092505050565b5f81815260018301602052604081205480156132d6575f61321e600183613a34565b85549091505f9061323190600190613a34565b9050808214613290575f865f01828154811061324f5761324f6138d3565b905f5260205f200154905080875f01848154811061326f5761326f6138d3565b5f918252602080832090910192909255918252600188019052604090208390555b85548690806132a1576132a1613bc9565b600190038181905f5260205f20015f90559055856001015f8681526020019081526020015f205f9055600193505050506108cb565b5f9150506108cb565b6060826132f4576132ef8261333b565b610e6f565b815115801561330b57506001600160a01b0384163b155b1561333457604051639996b31560e01b81526001600160a01b038516600482015260240161092c565b5080610e6f565b80511561334b5780518082602001fd5b60405163d6bda27560e01b815260040160405180910390fd5b602081525f82518060208401528060208501604085015e5f604082850101526040601f19601f83011684010191505092915050565b5f602082840312156133a9575f5ffd5b5035919050565b6001600160a01b0381168114610b7b575f5ffd5b5f5f604083850312156133d5575f5ffd5b82356133e0816133b0565b946020939093013593505050565b5f5f83601f8401126133fe575f5ffd5b5081356001600160401b03811115613414575f5ffd5b6020830191508360208260061b8501011115612263575f5ffd5b5f5f5f60408486031215613440575f5ffd5b83356001600160401b03811115613455575f5ffd5b613461868287016133ee565b909790965060209590950135949350505050565b5f5f83601f840112613485575f5ffd5b5081356001600160401b0381111561349b575f5ffd5b602083019150836020828501011115612263575f5ffd5b5f5f5f5f5f5f608087890312156134c7575f5ffd5b86356134d2816133b0565b955060208701356134e2816133b0565b945060408701356001600160401b038111156134fc575f5ffd5b61350889828a01613475565b90955093505060608701356001600160401b03811115613526575f5ffd5b61353289828a01613475565b979a9699509497509295939492505050565b5f5f5f60608486031215613556575f5ffd5b8335613561816133b0565b92506020840135613571816133b0565b929592945050506040919091013590565b5f60208284031215613592575f5ffd5b8135610e6f816133b0565b634e487b7160e01b5f52604160045260245ffd5b5f5f604083850312156135c2575f5ffd5b82356135cd816133b0565b915060208301356001600160401b038111156135e7575f5ffd5b8301601f810185136135f7575f5ffd5b80356001600160401b038111156136105761361061359d565b604051601f8201601f19908116603f011681016001600160401b038111828210171561363e5761363e61359d565b604052818152828201602001871015613655575f5ffd5b816020840160208301375f602083830101528093505050509250929050565b5f5f60408385031215613685575f5ffd5b823591506020830135613697816133b0565b809150509250929050565b5f5f5f606084860312156136b4575f5ffd5b83359250602084013591506040840135600481106136d0575f5ffd5b809150509250925092565b5f5f602083850312156136ec575f5ffd5b82356001600160401b03811115613701575f5ffd5b61370d858286016133ee565b90969095509350505050565b5f5f5f6060848603121561372b575f5ffd5b83359250602084013561373d816133b0565b915060408401356136d0816133b0565b604080825283519082018190525f9060208501906060840190835b8181101561378f5783516001600160a01b0316835260209384019390920191600101613768565b5050838103602080860191909152855180835291810192508501905f5b818110156137ca5782518452602093840193909201916001016137ac565b50919695505050505050565b5f5f604083850312156137e7575f5ffd5b82356137f2816133b0565b91506020830135613697816133b0565b600181811c9082168061381657607f821691505b60208210810361383457634e487b7160e01b5f52602260045260245ffd5b50919050565b5f6020828403121561384a575f5ffd5b5051919050565b6001600160a01b039390931683526020830191909152604082015260600190565b5f60208284031215613882575f5ffd5b8151610e6f816133b0565b5f6020828403121561389d575f5ffd5b81518015158114610e6f575f5ffd5b634e487b7160e01b5f52601160045260245ffd5b808201808211156108cb576108cb6138ac565b634e487b7160e01b5f52603260045260245ffd5b5f602082840312156138f7575f5ffd5b813563ffffffff81168114610e6f575f5ffd5b60ff81811683821601908111156108cb576108cb6138ac565b6001815b600184111561395e57808504811115613942576139426138ac565b600184161561395057908102905b60019390931c928002613927565b935093915050565b5f82613974575060016108cb565b8161398057505f6108cb565b816001811461399657600281146139a0576139bc565b60019150506108cb565b60ff8411156139b1576139b16138ac565b50506001821b6108cb565b5060208310610133831016604e8410600b84101617156139df575081810a6108cb565b6139eb5f198484613923565b805f19048211156139fe576139fe6138ac565b029392505050565b5f610e6f60ff841683613966565b5f60208284031215613a24575f5ffd5b815160ff81168114610e6f575f5ffd5b818103818111156108cb576108cb6138ac565b60ff82811682821603908111156108cb576108cb6138ac565b634e487b7160e01b5f52601260045260245ffd5b634e487b7160e01b5f52602160045260245ffd5b5f60ff831680613aa657634e487b7160e01b5f52601260045260245ffd5b8060ff84160691505092915050565b601f82111561219d57805f5260205f20601f840160051c81016020851015613ada5750805b601f840160051c820191505b8181101561299e575f8155600101613ae6565b81516001600160401b03811115613b1257613b1261359d565b613b2681613b208454613802565b84613ab5565b6020601f821160018114613b58575f8315613b415750848201515b5f19600385901b1c1916600184901b17845561299e565b5f84815260208120601f198516915b82811015613b875787850151825560209485019460019092019101613b67565b5084821015613ba457868401515f19600387901b60f8161c191681555b50505050600190811b01905550565b5f82518060208501845e5f920191825250919050565b634e487b7160e01b5f52603160045260245ffdfe52c63247e1f47db19d5ce0460030c497f067ca4cebf71ba98eeadabe20bace00360894a13ba1a3210667c828492db98dca3e2076cc3735a920a3ca505d382bbc9b779b17422d0df92223018b32b4d1fa46e071723d6817e2486d003becc55f00a2646970667358221220471afafb39da1331a267654b2691a4d10a843d810bf4f5a30f93c115b453acdf64736f6c634300081c0033",
  "linkReferences": {},
  "deployedLinkReferences": {}
}