{
  "_format": "hh-sol-artifact-1",
  "contractName": "OrionTransparentVault",
  "sourceName": "contracts/vaults/OrionTransparentVault.sol",
  "abi": [
    {
      "inputs": [
        {
          "internalType": "address",
          "name": "vaultOwner",
          "type": "address"
        },
        {
          "internalType": "address",
          "name": "curator",
          "type": "address"
        },
        {
          "internalType": "contract IOrionConfig",
          "name": "configAddress",
          "type": "address"
        },
        {
          "internalType": "string",
          "name": "name",
          "type": "string"
        },
        {
          "internalType": "string",
          "name": "symbol",
          "type": "string"
        },
        {
          "internalType": "uint8",
          "name": "feeType",
          "type": "uint8"
        },
        {
          "internalType": "uint16",
          "name": "performanceFee",
          "type": "uint16"
        },
        {
          "internalType": "uint16",
          "name": "managementFee",
          "type": "uint16"
        }
      ],
      "stateMutability": "nonpayable",
      "type": "constructor"
    },
    {
      "inputs": [],
      "name": "AlreadyRegistered",
      "type": "error"
    },
    {
      "inputs": [
        {
          "internalType": "address",
          "name": "asset",
          "type": "address"
        }
      ],
      "name": "AmountMustBeGreaterThanZero",
      "type": "error"
    },
    {
      "inputs": [
        {
          "internalType": "address",
          "name": "spender",
          "type": "address"
        },
        {
          "internalType": "uint256",
          "name": "allowance",
          "type": "uint256"
        },
        {
          "internalType": "uint256",
          "name": "needed",
          "type": "uint256"
        }
      ],
      "name": "ERC20InsufficientAllowance",
      "type": "error"
    },
    {
      "inputs": [
        {
          "internalType": "address",
          "name": "sender",
          "type": "address"
        },
        {
          "internalType": "uint256",
          "name": "balance",
          "type": "uint256"
        },
        {
          "internalType": "uint256",
          "name": "needed",
          "type": "uint256"
        }
      ],
      "name": "ERC20InsufficientBalance",
      "type": "error"
    },
    {
      "inputs": [
        {
          "internalType": "address",
          "name": "approver",
          "type": "address"
        }
      ],
      "name": "ERC20InvalidApprover",
      "type": "error"
    },
    {
      "inputs": [
        {
          "internalType": "address",
          "name": "receiver",
          "type": "address"
        }
      ],
      "name": "ERC20InvalidReceiver",
      "type": "error"
    },
    {
      "inputs": [
        {
          "internalType": "address",
          "name": "sender",
          "type": "address"
        }
      ],
      "name": "ERC20InvalidSender",
      "type": "error"
    },
    {
      "inputs": [
        {
          "internalType": "address",
          "name": "spender",
          "type": "address"
        }
      ],
      "name": "ERC20InvalidSpender",
      "type": "error"
    },
    {
      "inputs": [
        {
          "internalType": "address",
          "name": "receiver",
          "type": "address"
        },
        {
          "internalType": "uint256",
          "name": "assets",
          "type": "uint256"
        },
        {
          "internalType": "uint256",
          "name": "max",
          "type": "uint256"
        }
      ],
      "name": "ERC4626ExceededMaxDeposit",
      "type": "error"
    },
    {
      "inputs": [
        {
          "internalType": "address",
          "name": "receiver",
          "type": "address"
        },
        {
          "internalType": "uint256",
          "name": "shares",
          "type": "uint256"
        },
        {
          "internalType": "uint256",
          "name": "max",
          "type": "uint256"
        }
      ],
      "name": "ERC4626ExceededMaxMint",
      "type": "error"
    },
    {
      "inputs": [
        {
          "internalType": "address",
          "name": "owner",
          "type": "address"
        },
        {
          "internalType": "uint256",
          "name": "shares",
          "type": "uint256"
        },
        {
          "internalType": "uint256",
          "name": "max",
          "type": "uint256"
        }
      ],
      "name": "ERC4626ExceededMaxRedeem",
      "type": "error"
    },
    {
      "inputs": [
        {
          "internalType": "address",
          "name": "owner",
          "type": "address"
        },
        {
          "internalType": "uint256",
          "name": "assets",
          "type": "uint256"
        },
        {
          "internalType": "uint256",
          "name": "max",
          "type": "uint256"
        }
      ],
      "name": "ERC4626ExceededMaxWithdraw",
      "type": "error"
    },
    {
      "inputs": [],
      "name": "InsufficientAmount",
      "type": "error"
    },
    {
      "inputs": [],
      "name": "InvalidAddress",
      "type": "error"
    },
    {
      "inputs": [],
      "name": "InvalidArguments",
      "type": "error"
    },
    {
      "inputs": [],
      "name": "InvalidCuratorContract",
      "type": "error"
    },
    {
      "inputs": [],
      "name": "InvalidTotalWeight",
      "type": "error"
    },
    {
      "inputs": [],
      "name": "InvalidUnderlyingDecimals",
      "type": "error"
    },
    {
      "inputs": [],
      "name": "OrderIntentCannotBeEmpty",
      "type": "error"
    },
    {
      "inputs": [],
      "name": "ReentrancyGuardReentrantCall",
      "type": "error"
    },
    {
      "inputs": [],
      "name": "SynchronousCallDisabled",
      "type": "error"
    },
    {
      "inputs": [],
      "name": "SystemNotIdle",
      "type": "error"
    },
    {
      "inputs": [
        {
          "internalType": "address",
          "name": "token",
          "type": "address"
        }
      ],
      "name": "TokenAlreadyInOrder",
      "type": "error"
    },
    {
      "inputs": [
        {
          "internalType": "address",
          "name": "token",
          "type": "address"
        }
      ],
      "name": "TokenNotWhitelisted",
      "type": "error"
    },
    {
      "inputs": [],
      "name": "TransferFailed",
      "type": "error"
    },
    {
      "inputs": [],
      "name": "UnauthorizedAccess",
      "type": "error"
    },
    {
      "anonymous": false,
      "inputs": [
        {
          "indexed": true,
          "internalType": "address",
          "name": "owner",
          "type": "address"
        },
        {
          "indexed": true,
          "internalType": "address",
          "name": "spender",
          "type": "address"
        },
        {
          "indexed": false,
          "internalType": "uint256",
          "name": "value",
          "type": "uint256"
        }
      ],
      "name": "Approval",
      "type": "event"
    },
    {
      "anonymous": false,
      "inputs": [
        {
          "indexed": true,
          "internalType": "uint256",
          "name": "epoch",
          "type": "uint256"
        },
        {
          "indexed": true,
          "internalType": "uint256",
          "name": "feeAmount",
          "type": "uint256"
        },
        {
          "indexed": true,
          "internalType": "uint256",
          "name": "pendingCuratorFees",
          "type": "uint256"
        }
      ],
      "name": "CuratorFeesAccrued",
      "type": "event"
    },
    {
      "anonymous": false,
      "inputs": [
        {
          "indexed": true,
          "internalType": "address",
          "name": "newCurator",
          "type": "address"
        }
      ],
      "name": "CuratorUpdated",
      "type": "event"
    },
    {
      "anonymous": false,
      "inputs": [
        {
          "indexed": true,
          "internalType": "address",
          "name": "sender",
          "type": "address"
        },
        {
          "indexed": true,
          "internalType": "address",
          "name": "owner",
          "type": "address"
        },
        {
          "indexed": false,
          "internalType": "uint256",
          "name": "assets",
          "type": "uint256"
        },
        {
          "indexed": false,
          "internalType": "uint256",
          "name": "shares",
          "type": "uint256"
        }
      ],
      "name": "Deposit",
      "type": "event"
    },
    {
      "anonymous": false,
      "inputs": [
        {
          "indexed": true,
          "internalType": "address",
          "name": "vault",
          "type": "address"
        },
        {
          "indexed": true,
          "internalType": "address",
          "name": "user",
          "type": "address"
        },
        {
          "indexed": true,
          "internalType": "uint256",
          "name": "epoch",
          "type": "uint256"
        },
        {
          "indexed": false,
          "internalType": "uint256",
          "name": "depositAmount",
          "type": "uint256"
        },
        {
          "indexed": false,
          "internalType": "uint256",
          "name": "sharesMinted",
          "type": "uint256"
        }
      ],
      "name": "Deposit",
      "type": "event"
    },
    {
      "anonymous": false,
      "inputs": [
        {
          "indexed": true,
          "internalType": "address",
          "name": "sender",
          "type": "address"
        },
        {
          "indexed": true,
          "internalType": "uint256",
          "name": "assets",
          "type": "uint256"
        }
      ],
      "name": "DepositRequest",
      "type": "event"
    },
    {
      "anonymous": false,
      "inputs": [
        {
          "indexed": true,
          "internalType": "address",
          "name": "user",
          "type": "address"
        },
        {
          "indexed": true,
          "internalType": "uint256",
          "name": "amount",
          "type": "uint256"
        }
      ],
      "name": "DepositRequestCancelled",
      "type": "event"
    },
    {
      "anonymous": false,
      "inputs": [
        {
          "indexed": true,
          "internalType": "uint8",
          "name": "mode",
          "type": "uint8"
        },
        {
          "indexed": true,
          "internalType": "uint16",
          "name": "performanceFee",
          "type": "uint16"
        },
        {
          "indexed": true,
          "internalType": "uint16",
          "name": "managementFee",
          "type": "uint16"
        }
      ],
      "name": "FeeModelUpdated",
      "type": "event"
    },
    {
      "anonymous": false,
      "inputs": [
        {
          "indexed": true,
          "internalType": "address",
          "name": "curator",
          "type": "address"
        }
      ],
      "name": "OrderSubmitted",
      "type": "event"
    },
    {
      "anonymous": false,
      "inputs": [
        {
          "indexed": true,
          "internalType": "address",
          "name": "vault",
          "type": "address"
        },
        {
          "indexed": true,
          "internalType": "address",
          "name": "user",
          "type": "address"
        },
        {
          "indexed": true,
          "internalType": "uint256",
          "name": "epoch",
          "type": "uint256"
        },
        {
          "indexed": false,
          "internalType": "uint256",
          "name": "redeemAmount",
          "type": "uint256"
        },
        {
          "indexed": false,
          "internalType": "uint256",
          "name": "sharesBurned",
          "type": "uint256"
        }
      ],
      "name": "Redeem",
      "type": "event"
    },
    {
      "anonymous": false,
      "inputs": [
        {
          "indexed": true,
          "internalType": "address",
          "name": "sender",
          "type": "address"
        },
        {
          "indexed": true,
          "internalType": "uint256",
          "name": "shares",
          "type": "uint256"
        }
      ],
      "name": "RedeemRequest",
      "type": "event"
    },
    {
      "anonymous": false,
      "inputs": [
        {
          "indexed": true,
          "internalType": "address",
          "name": "user",
          "type": "address"
        },
        {
          "indexed": true,
          "internalType": "uint256",
          "name": "shares",
          "type": "uint256"
        }
      ],
      "name": "RedeemRequestCancelled",
      "type": "event"
    },
    {
      "anonymous": false,
      "inputs": [
        {
          "indexed": true,
          "internalType": "address",
          "name": "from",
          "type": "address"
        },
        {
          "indexed": true,
          "internalType": "address",
          "name": "to",
          "type": "address"
        },
        {
          "indexed": false,
          "internalType": "uint256",
          "name": "value",
          "type": "uint256"
        }
      ],
      "name": "Transfer",
      "type": "event"
    },
    {
      "anonymous": false,
      "inputs": [
        {
          "indexed": true,
          "internalType": "uint256",
          "name": "newTotalAssets",
          "type": "uint256"
        }
      ],
      "name": "VaultStateUpdated",
      "type": "event"
    },
    {
      "anonymous": false,
      "inputs": [
        {
          "indexed": true,
          "internalType": "address[]",
          "name": "assets",
          "type": "address[]"
        }
      ],
      "name": "VaultWhitelistUpdated",
      "type": "event"
    },
    {
      "anonymous": false,
      "inputs": [
        {
          "indexed": true,
          "internalType": "address",
          "name": "sender",
          "type": "address"
        },
        {
          "indexed": true,
          "internalType": "address",
          "name": "receiver",
          "type": "address"
        },
        {
          "indexed": true,
          "internalType": "address",
          "name": "owner",
          "type": "address"
        },
        {
          "indexed": false,
          "internalType": "uint256",
          "name": "assets",
          "type": "uint256"
        },
        {
          "indexed": false,
          "internalType": "uint256",
          "name": "shares",
          "type": "uint256"
        }
      ],
      "name": "Withdraw",
      "type": "event"
    },
    {
      "inputs": [],
      "name": "BASIS_POINTS_FACTOR",
      "outputs": [
        {
          "internalType": "uint16",
          "name": "",
          "type": "uint16"
        }
      ],
      "stateMutability": "view",
      "type": "function"
    },
    {
      "inputs": [],
      "name": "MAX_MANAGEMENT_FEE",
      "outputs": [
        {
          "internalType": "uint16",
          "name": "",
          "type": "uint16"
        }
      ],
      "stateMutability": "view",
      "type": "function"
    },
    {
      "inputs": [],
      "name": "MAX_PERFORMANCE_FEE",
      "outputs": [
        {
          "internalType": "uint16",
          "name": "",
          "type": "uint16"
        }
      ],
      "stateMutability": "view",
      "type": "function"
    },
    {
      "inputs": [],
      "name": "SHARE_DECIMALS",
      "outputs": [
        {
          "internalType": "uint8",
          "name": "",
          "type": "uint8"
        }
      ],
      "stateMutability": "view",
      "type": "function"
    },
    {
      "inputs": [],
      "name": "YEAR_IN_SECONDS",
      "outputs": [
        {
          "internalType": "uint32",
          "name": "",
          "type": "uint32"
        }
      ],
      "stateMutability": "view",
      "type": "function"
    },
    {
      "inputs": [
        {
          "internalType": "uint256",
          "name": "epoch",
          "type": "uint256"
        },
        {
          "internalType": "uint256",
          "name": "feeAmount",
          "type": "uint256"
        }
      ],
      "name": "accrueCuratorFees",
      "outputs": [],
      "stateMutability": "nonpayable",
      "type": "function"
    },
    {
      "inputs": [
        {
          "internalType": "address",
          "name": "owner",
          "type": "address"
        },
        {
          "internalType": "address",
          "name": "spender",
          "type": "address"
        }
      ],
      "name": "allowance",
      "outputs": [
        {
          "internalType": "uint256",
          "name": "",
          "type": "uint256"
        }
      ],
      "stateMutability": "view",
      "type": "function"
    },
    {
      "inputs": [
        {
          "internalType": "address",
          "name": "spender",
          "type": "address"
        },
        {
          "internalType": "uint256",
          "name": "value",
          "type": "uint256"
        }
      ],
      "name": "approve",
      "outputs": [
        {
          "internalType": "bool",
          "name": "",
          "type": "bool"
        }
      ],
      "stateMutability": "nonpayable",
      "type": "function"
    },
    {
      "inputs": [],
      "name": "asset",
      "outputs": [
        {
          "internalType": "address",
          "name": "",
          "type": "address"
        }
      ],
      "stateMutability": "view",
      "type": "function"
    },
    {
      "inputs": [
        {
          "internalType": "address",
          "name": "account",
          "type": "address"
        }
      ],
      "name": "balanceOf",
      "outputs": [
        {
          "internalType": "uint256",
          "name": "",
          "type": "uint256"
        }
      ],
      "stateMutability": "view",
      "type": "function"
    },
    {
      "inputs": [
        {
          "internalType": "uint256",
          "name": "amount",
          "type": "uint256"
        }
      ],
      "name": "cancelDepositRequest",
      "outputs": [],
      "stateMutability": "nonpayable",
      "type": "function"
    },
    {
      "inputs": [
        {
          "internalType": "uint256",
          "name": "shares",
          "type": "uint256"
        }
      ],
      "name": "cancelRedeemRequest",
      "outputs": [],
      "stateMutability": "nonpayable",
      "type": "function"
    },
    {
      "inputs": [
        {
          "internalType": "uint256",
          "name": "amount",
          "type": "uint256"
        }
      ],
      "name": "claimCuratorFees",
      "outputs": [],
      "stateMutability": "nonpayable",
      "type": "function"
    },
    {
      "inputs": [],
      "name": "config",
      "outputs": [
        {
          "internalType": "contract IOrionConfig",
          "name": "",
          "type": "address"
        }
      ],
      "stateMutability": "view",
      "type": "function"
    },
    {
      "inputs": [
        {
          "internalType": "uint256",
          "name": "shares",
          "type": "uint256"
        }
      ],
      "name": "convertToAssets",
      "outputs": [
        {
          "internalType": "uint256",
          "name": "",
          "type": "uint256"
        }
      ],
      "stateMutability": "view",
      "type": "function"
    },
    {
      "inputs": [
        {
          "internalType": "uint256",
          "name": "shares",
          "type": "uint256"
        },
        {
          "internalType": "uint256",
          "name": "pointInTimeTotalAssets",
          "type": "uint256"
        },
        {
          "internalType": "enum Math.Rounding",
          "name": "rounding",
          "type": "uint8"
        }
      ],
      "name": "convertToAssetsWithPITTotalAssets",
      "outputs": [
        {
          "internalType": "uint256",
          "name": "",
          "type": "uint256"
        }
      ],
      "stateMutability": "view",
      "type": "function"
    },
    {
      "inputs": [
        {
          "internalType": "uint256",
          "name": "assets",
          "type": "uint256"
        }
      ],
      "name": "convertToShares",
      "outputs": [
        {
          "internalType": "uint256",
          "name": "",
          "type": "uint256"
        }
      ],
      "stateMutability": "view",
      "type": "function"
    },
    {
      "inputs": [
        {
          "internalType": "uint256",
          "name": "assets",
          "type": "uint256"
        },
        {
          "internalType": "uint256",
          "name": "pointInTimeTotalAssets",
          "type": "uint256"
        },
        {
          "internalType": "enum Math.Rounding",
          "name": "rounding",
          "type": "uint8"
        }
      ],
      "name": "convertToSharesWithPITTotalAssets",
      "outputs": [
        {
          "internalType": "uint256",
          "name": "",
          "type": "uint256"
        }
      ],
      "stateMutability": "view",
      "type": "function"
    },
    {
      "inputs": [],
      "name": "curator",
      "outputs": [
        {
          "internalType": "address",
          "name": "",
          "type": "address"
        }
      ],
      "stateMutability": "view",
      "type": "function"
    },
    {
      "inputs": [
        {
          "internalType": "uint256",
          "name": "activeTotalAssets",
          "type": "uint256"
        }
      ],
      "name": "curatorFee",
      "outputs": [
        {
          "internalType": "uint256",
          "name": "",
          "type": "uint256"
        }
      ],
      "stateMutability": "view",
      "type": "function"
    },
    {
      "inputs": [],
      "name": "curatorIntentDecimals",
      "outputs": [
        {
          "internalType": "uint8",
          "name": "",
          "type": "uint8"
        }
      ],
      "stateMutability": "view",
      "type": "function"
    },
    {
      "inputs": [],
      "name": "decimals",
      "outputs": [
        {
          "internalType": "uint8",
          "name": "",
          "type": "uint8"
        }
      ],
      "stateMutability": "view",
      "type": "function"
    },
    {
      "inputs": [
        {
          "internalType": "uint256",
          "name": "",
          "type": "uint256"
        },
        {
          "internalType": "address",
          "name": "",
          "type": "address"
        }
      ],
      "name": "deposit",
      "outputs": [
        {
          "internalType": "uint256",
          "name": "",
          "type": "uint256"
        }
      ],
      "stateMutability": "pure",
      "type": "function"
    },
    {
      "inputs": [],
      "name": "feeModel",
      "outputs": [
        {
          "internalType": "enum OrionVault.FeeType",
          "name": "feeType",
          "type": "uint8"
        },
        {
          "internalType": "uint16",
          "name": "performanceFee",
          "type": "uint16"
        },
        {
          "internalType": "uint16",
          "name": "managementFee",
          "type": "uint16"
        },
        {
          "internalType": "uint256",
          "name": "highWaterMark",
          "type": "uint256"
        }
      ],
      "stateMutability": "view",
      "type": "function"
    },
    {
      "inputs": [
        {
          "internalType": "uint256",
          "name": "depositTotalAssets",
          "type": "uint256"
        }
      ],
      "name": "fulfillDeposit",
      "outputs": [],
      "stateMutability": "nonpayable",
      "type": "function"
    },
    {
      "inputs": [
        {
          "internalType": "uint256",
          "name": "redeemTotalAssets",
          "type": "uint256"
        }
      ],
      "name": "fulfillRedeem",
      "outputs": [],
      "stateMutability": "nonpayable",
      "type": "function"
    },
    {
      "inputs": [],
      "name": "getIntent",
      "outputs": [
        {
          "internalType": "address[]",
          "name": "tokens",
          "type": "address[]"
        },
        {
          "internalType": "uint32[]",
          "name": "weights",
          "type": "uint32[]"
        }
      ],
      "stateMutability": "view",
      "type": "function"
    },
    {
      "inputs": [],
      "name": "getPortfolio",
      "outputs": [
        {
          "internalType": "address[]",
          "name": "tokens",
          "type": "address[]"
        },
        {
          "internalType": "uint256[]",
          "name": "sharesPerAsset",
          "type": "uint256[]"
        }
      ],
      "stateMutability": "view",
      "type": "function"
    },
    {
      "inputs": [],
      "name": "internalStatesOrchestrator",
      "outputs": [
        {
          "internalType": "contract IInternalStateOrchestrator",
          "name": "",
          "type": "address"
        }
      ],
      "stateMutability": "view",
      "type": "function"
    },
    {
      "inputs": [],
      "name": "isPassiveCurator",
      "outputs": [
        {
          "internalType": "bool",
          "name": "isPassive",
          "type": "bool"
        }
      ],
      "stateMutability": "view",
      "type": "function"
    },
    {
      "inputs": [],
      "name": "liquidityOrchestrator",
      "outputs": [
        {
          "internalType": "contract ILiquidityOrchestrator",
          "name": "",
          "type": "address"
        }
      ],
      "stateMutability": "view",
      "type": "function"
    },
    {
      "inputs": [
        {
          "internalType": "address",
          "name": "",
          "type": "address"
        }
      ],
      "name": "maxDeposit",
      "outputs": [
        {
          "internalType": "uint256",
          "name": "",
          "type": "uint256"
        }
      ],
      "stateMutability": "view",
      "type": "function"
    },
    {
      "inputs": [
        {
          "internalType": "address",
          "name": "",
          "type": "address"
        }
      ],
      "name": "maxMint",
      "outputs": [
        {
          "internalType": "uint256",
          "name": "",
          "type": "uint256"
        }
      ],
      "stateMutability": "view",
      "type": "function"
    },
    {
      "inputs": [
        {
          "internalType": "address",
          "name": "owner",
          "type": "address"
        }
      ],
      "name": "maxRedeem",
      "outputs": [
        {
          "internalType": "uint256",
          "name": "",
          "type": "uint256"
        }
      ],
      "stateMutability": "view",
      "type": "function"
    },
    {
      "inputs": [
        {
          "internalType": "address",
          "name": "owner",
          "type": "address"
        }
      ],
      "name": "maxWithdraw",
      "outputs": [
        {
          "internalType": "uint256",
          "name": "",
          "type": "uint256"
        }
      ],
      "stateMutability": "view",
      "type": "function"
    },
    {
      "inputs": [
        {
          "internalType": "uint256",
          "name": "",
          "type": "uint256"
        },
        {
          "internalType": "address",
          "name": "",
          "type": "address"
        }
      ],
      "name": "mint",
      "outputs": [
        {
          "internalType": "uint256",
          "name": "",
          "type": "uint256"
        }
      ],
      "stateMutability": "pure",
      "type": "function"
    },
    {
      "inputs": [],
      "name": "name",
      "outputs": [
        {
          "internalType": "string",
          "name": "",
          "type": "string"
        }
      ],
      "stateMutability": "view",
      "type": "function"
    },
    {
      "inputs": [],
      "name": "pendingCuratorFees",
      "outputs": [
        {
          "internalType": "uint256",
          "name": "",
          "type": "uint256"
        }
      ],
      "stateMutability": "view",
      "type": "function"
    },
    {
      "inputs": [],
      "name": "pendingDeposit",
      "outputs": [
        {
          "internalType": "uint256",
          "name": "",
          "type": "uint256"
        }
      ],
      "stateMutability": "view",
      "type": "function"
    },
    {
      "inputs": [],
      "name": "pendingRedeem",
      "outputs": [
        {
          "internalType": "uint256",
          "name": "",
          "type": "uint256"
        }
      ],
      "stateMutability": "view",
      "type": "function"
    },
    {
      "inputs": [
        {
          "internalType": "uint256",
          "name": "assets",
          "type": "uint256"
        }
      ],
      "name": "previewDeposit",
      "outputs": [
        {
          "internalType": "uint256",
          "name": "",
          "type": "uint256"
        }
      ],
      "stateMutability": "view",
      "type": "function"
    },
    {
      "inputs": [
        {
          "internalType": "uint256",
          "name": "shares",
          "type": "uint256"
        }
      ],
      "name": "previewMint",
      "outputs": [
        {
          "internalType": "uint256",
          "name": "",
          "type": "uint256"
        }
      ],
      "stateMutability": "view",
      "type": "function"
    },
    {
      "inputs": [
        {
          "internalType": "uint256",
          "name": "shares",
          "type": "uint256"
        }
      ],
      "name": "previewRedeem",
      "outputs": [
        {
          "internalType": "uint256",
          "name": "",
          "type": "uint256"
        }
      ],
      "stateMutability": "view",
      "type": "function"
    },
    {
      "inputs": [
        {
          "internalType": "uint256",
          "name": "assets",
          "type": "uint256"
        }
      ],
      "name": "previewWithdraw",
      "outputs": [
        {
          "internalType": "uint256",
          "name": "",
          "type": "uint256"
        }
      ],
      "stateMutability": "view",
      "type": "function"
    },
    {
      "inputs": [
        {
          "internalType": "uint256",
          "name": "shares",
          "type": "uint256"
        },
        {
          "internalType": "address",
          "name": "receiver",
          "type": "address"
        },
        {
          "internalType": "address",
          "name": "owner",
          "type": "address"
        }
      ],
      "name": "redeem",
      "outputs": [
        {
          "internalType": "uint256",
          "name": "",
          "type": "uint256"
        }
      ],
      "stateMutability": "nonpayable",
      "type": "function"
    },
    {
      "inputs": [
        {
          "internalType": "address",
          "name": "asset",
          "type": "address"
        }
      ],
      "name": "removeFromVaultWhitelist",
      "outputs": [],
      "stateMutability": "nonpayable",
      "type": "function"
    },
    {
      "inputs": [
        {
          "internalType": "uint256",
          "name": "assets",
          "type": "uint256"
        }
      ],
      "name": "requestDeposit",
      "outputs": [],
      "stateMutability": "nonpayable",
      "type": "function"
    },
    {
      "inputs": [
        {
          "internalType": "uint256",
          "name": "shares",
          "type": "uint256"
        }
      ],
      "name": "requestRedeem",
      "outputs": [],
      "stateMutability": "nonpayable",
      "type": "function"
    },
    {
      "inputs": [
        {
          "components": [
            {
              "internalType": "address",
              "name": "token",
              "type": "address"
            },
            {
              "internalType": "uint32",
              "name": "weight",
              "type": "uint32"
            }
          ],
          "internalType": "struct IOrionTransparentVault.IntentPosition[]",
          "name": "intent",
          "type": "tuple[]"
        }
      ],
      "name": "submitIntent",
      "outputs": [],
      "stateMutability": "nonpayable",
      "type": "function"
    },
    {
      "inputs": [],
      "name": "symbol",
      "outputs": [
        {
          "internalType": "string",
          "name": "",
          "type": "string"
        }
      ],
      "stateMutability": "view",
      "type": "function"
    },
    {
      "inputs": [],
      "name": "totalAssets",
      "outputs": [
        {
          "internalType": "uint256",
          "name": "",
          "type": "uint256"
        }
      ],
      "stateMutability": "view",
      "type": "function"
    },
    {
      "inputs": [],
      "name": "totalSupply",
      "outputs": [
        {
          "internalType": "uint256",
          "name": "",
          "type": "uint256"
        }
      ],
      "stateMutability": "view",
      "type": "function"
    },
    {
      "inputs": [
        {
          "internalType": "address",
          "name": "to",
          "type": "address"
        },
        {
          "internalType": "uint256",
          "name": "value",
          "type": "uint256"
        }
      ],
      "name": "transfer",
      "outputs": [
        {
          "internalType": "bool",
          "name": "",
          "type": "bool"
        }
      ],
      "stateMutability": "nonpayable",
      "type": "function"
    },
    {
      "inputs": [
        {
          "internalType": "address",
          "name": "from",
          "type": "address"
        },
        {
          "internalType": "address",
          "name": "to",
          "type": "address"
        },
        {
          "internalType": "uint256",
          "name": "value",
          "type": "uint256"
        }
      ],
      "name": "transferFrom",
      "outputs": [
        {
          "internalType": "bool",
          "name": "",
          "type": "bool"
        }
      ],
      "stateMutability": "nonpayable",
      "type": "function"
    },
    {
      "inputs": [
        {
          "internalType": "address",
          "name": "newCurator",
          "type": "address"
        }
      ],
      "name": "updateCurator",
      "outputs": [],
      "stateMutability": "nonpayable",
      "type": "function"
    },
    {
      "inputs": [
        {
          "internalType": "uint8",
          "name": "feeType",
          "type": "uint8"
        },
        {
          "internalType": "uint16",
          "name": "performanceFee",
          "type": "uint16"
        },
        {
          "internalType": "uint16",
          "name": "managementFee",
          "type": "uint16"
        }
      ],
      "name": "updateFeeModel",
      "outputs": [],
      "stateMutability": "nonpayable",
      "type": "function"
    },
    {
      "inputs": [
        {
          "components": [
            {
              "internalType": "address",
              "name": "token",
              "type": "address"
            },
            {
              "internalType": "uint256",
              "name": "shares",
              "type": "uint256"
            }
          ],
          "internalType": "struct IOrionTransparentVault.PortfolioPosition[]",
          "name": "portfolio",
          "type": "tuple[]"
        },
        {
          "internalType": "uint256",
          "name": "newTotalAssets",
          "type": "uint256"
        }
      ],
      "name": "updateVaultState",
      "outputs": [],
      "stateMutability": "nonpayable",
      "type": "function"
    },
    {
      "inputs": [
        {
          "internalType": "address[]",
          "name": "assets",
          "type": "address[]"
        }
      ],
      "name": "updateVaultWhitelist",
      "outputs": [],
      "stateMutability": "nonpayable",
      "type": "function"
    },
    {
      "inputs": [],
      "name": "vaultOwner",
      "outputs": [
        {
          "internalType": "address",
          "name": "",
          "type": "address"
        }
      ],
      "stateMutability": "view",
      "type": "function"
    },
    {
      "inputs": [],
      "name": "vaultWhitelist",
      "outputs": [
        {
          "internalType": "address[]",
          "name": "",
          "type": "address[]"
        }
      ],
      "stateMutability": "view",
      "type": "function"
    },
    {
      "inputs": [
        {
          "internalType": "uint256",
          "name": "",
          "type": "uint256"
        },
        {
          "internalType": "address",
          "name": "",
          "type": "address"
        },
        {
          "internalType": "address",
          "name": "",
          "type": "address"
        }
      ],
      "name": "withdraw",
      "outputs": [
        {
          "internalType": "uint256",
          "name": "",
          "type": "uint256"
        }
      ],
      "stateMutability": "pure",
      "type": "function"
    }
  ],
  "bytecode": "0x60c060405234801561000f575f5ffd5b50604051614fca380380614fca83398101604081905261002e916109aa565b8787878787878787856001600160a01b0316637158da7c6040518163ffffffff1660e01b8152600401602060405180830381865afa158015610072573d5f5f3e3d5ffd5b505050506040513d601f19601f820116820180604052508101906100969190610a79565b858560036100a48382610b1f565b5060046100b18282610b1f565b5050505f5f6100c58361057660201b60201c565b91509150816100d55760126100d7565b805b60ff1660a05250506001600160a01b03908116608052600160055587166101115760405163e6c4247b60e01b815260040160405180910390fd5b6001600160a01b0386166101385760405163e6c4247b60e01b815260040160405180910390fd5b600680546001600160a01b03808b166001600160a01b031992831617909255600780548a841690831617905560088054928916929091168217905560408051630691d8b960e31b8152905163348ec5c8916004808201926020929091908290030181865afa1580156101ac573d5f5f3e3d5ffd5b505050506040513d601f19601f820116820180604052508101906101d09190610a79565b60095f6101000a8154816001600160a01b0302191690836001600160a01b03160217905550856001600160a01b0316633a0dad8e6040518163ffffffff1660e01b8152600401602060405180830381865afa158015610231573d5f5f3e3d5ffd5b505050506040513d601f19601f820116820180604052508101906102559190610a79565b600a5f6101000a8154816001600160a01b0302191690836001600160a01b03160217905550856001600160a01b031663d1717c7d6040518163ffffffff1660e01b8152600401602060405180830381865afa1580156102b6573d5f5f3e3d5ffd5b505050506040513d601f19601f820116820180604052508101906102da9190610bd9565b600a60146101000a81548160ff021916908360ff1602179055505f600d819055505f6014819055505f6015819055505f866001600160a01b0316637158da7c6040518163ffffffff1660e01b8152600401602060405180830381865afa158015610346573d5f5f3e3d5ffd5b505050506040513d601f19601f8201168201806040525081019061036a9190610a79565b6001600160a01b031663313ce5676040518163ffffffff1660e01b8152600401602060405180830381865afa1580156103a5573d5f5f3e3d5ffd5b505050506040513d601f19601f820116820180604052508101906103c99190610bd9565b9050601260ff821611156103f057604051631c03248960e11b815260040160405180910390fd5b600460ff85161115610415576040516317dbc4cb60e21b815260040160405180910390fd5b610bb861ffff8416111561043c576040516317dbc4cb60e21b815260040160405180910390fd5b61012c61ffff83161115610463576040516317dbc4cb60e21b815260040160405180910390fd5b8360ff16600481111561047857610478610bf2565b6017805460ff1916600183600481111561049457610494610bf2565b02179055506017805461ffff84811663010000000264ffff00000019918716610100029190911664ffffffff0019909216919091171790556104d781600a610cfd565b6018556104e261064c565b50505050505050505061056960085f9054906101000a90046001600160a01b03166001600160a01b031663d86cd44e6040518163ffffffff1660e01b81526004015f60405180830381865afa15801561053d573d5f5f3e3d5ffd5b505050506040513d5f823e601f3d908101601f191682016040526105649190810190610d0b565b610721565b5050505050505050610e68565b60408051600481526024810182526020810180516001600160e01b031663313ce56760e01b17905290515f918291829182916001600160a01b038716916105bc91610dbd565b5f60405180830381855afa9150503d805f81146105f4576040519150601f19603f3d011682016040523d82523d5f602084013e6105f9565b606091505b509150915081801561060d57506020815110155b15610640575f818060200190518101906106279190610dd3565b905060ff811161063e576001969095509350505050565b505b505f9485945092505050565b60085460408051636c366a2760e11b815290515f926001600160a01b03169163d86cd44e91600480830192869291908290030181865afa158015610692573d5f5f3e3d5ffd5b505050506040513d5f823e601f3d908101601f191682016040526106b99190810190610d0b565b90505f5b815181101561071d575f6106f48383815181106106dc576106dc610dea565b6020026020010151600b61085860201b90919060201c565b90508061071457604051630ea075bf60e21b815260040160405180910390fd5b506001016106bd565b5050565b6007546001600160a01b03163b5f0361074157601f805460ff1916905550565b6007546040516301ffc9a760e01b8152635b24e9f760e11b60048201526001600160a01b03909116906301ffc9a790602401602060405180830381865afa9250505080156107ac575060408051601f3d908101601f191682019092526107a991810190610dfe565b60015b6107c95760405163298febe360e01b815260040160405180910390fd5b801561083c57601f805460ff1916600117905560075460405163c653526b60e01b81526001600160a01b039091169063c653526b9061080c908590600401610e1d565b5f6040518083038186803b158015610822575f5ffd5b505afa158015610834573d5f5f3e3d5ffd5b505050505050565b60405163298febe360e01b815260040160405180910390fd5b50565b5f61086c836001600160a01b038416610875565b90505b92915050565b5f8181526001830160205260408120546108ba57508154600181810184555f84815260208082209093018490558454848252828601909352604090209190915561086f565b505f61086f565b6001600160a01b0381168114610855575f5ffd5b634e487b7160e01b5f52604160045260245ffd5b604051601f8201601f191681016001600160401b0381118282101715610911576109116108d5565b604052919050565b5f82601f830112610928575f5ffd5b81516001600160401b03811115610941576109416108d5565b610954601f8201601f19166020016108e9565b818152846020838601011115610968575f5ffd5b8160208501602083015e5f918101602001919091529392505050565b805160ff81168114610994575f5ffd5b919050565b805161ffff81168114610994575f5ffd5b5f5f5f5f5f5f5f5f610100898b0312156109c2575f5ffd5b88516109cd816108c1565b60208a01519098506109de816108c1565b60408a01519097506109ef816108c1565b60608a01519096506001600160401b03811115610a0a575f5ffd5b610a168b828c01610919565b60808b015190965090506001600160401b03811115610a33575f5ffd5b610a3f8b828c01610919565b945050610a4e60a08a01610984565b9250610a5c60c08a01610999565b9150610a6a60e08a01610999565b90509295985092959890939650565b5f60208284031215610a89575f5ffd5b8151610a94816108c1565b9392505050565b600181811c90821680610aaf57607f821691505b602082108103610acd57634e487b7160e01b5f52602260045260245ffd5b50919050565b601f821115610b1a57805f5260205f20601f840160051c81016020851015610af85750805b601f840160051c820191505b81811015610b17575f8155600101610b04565b50505b505050565b81516001600160401b03811115610b3857610b386108d5565b610b4c81610b468454610a9b565b84610ad3565b6020601f821160018114610b7e575f8315610b675750848201515b5f19600385901b1c1916600184901b178455610b17565b5f84815260208120601f198516915b82811015610bad5787850151825560209485019460019092019101610b8d565b5084821015610bca57868401515f19600387901b60f8161c191681555b50505050600190811b01905550565b5f60208284031215610be9575f5ffd5b61086c82610984565b634e487b7160e01b5f52602160045260245ffd5b634e487b7160e01b5f52601160045260245ffd5b6001815b6001841115610c5557808504811115610c3957610c39610c06565b6001841615610c4757908102905b60019390931c928002610c1e565b935093915050565b5f82610c6b5750600161086f565b81610c7757505f61086f565b8160018114610c8d5760028114610c9757610cb3565b600191505061086f565b60ff841115610ca857610ca8610c06565b50506001821b61086f565b5060208310610133831016604e8410600b8410161715610cd6575081810a61086f565b610ce25f198484610c1a565b805f1904821115610cf557610cf5610c06565b029392505050565b5f61086c60ff841683610c5d565b5f60208284031215610d1b575f5ffd5b81516001600160401b03811115610d30575f5ffd5b8201601f81018413610d40575f5ffd5b80516001600160401b03811115610d5957610d596108d5565b8060051b610d69602082016108e9565b91825260208184018101929081019087841115610d84575f5ffd5b6020850194505b83851015610db25784519250610da0836108c1565b82825260209485019490910190610d8b565b979650505050505050565b5f82518060208501845e5f920191825250919050565b5f60208284031215610de3575f5ffd5b5051919050565b634e487b7160e01b5f52603260045260245ffd5b5f60208284031215610e0e575f5ffd5b81518015158114610a94575f5ffd5b602080825282518282018190525f918401906040840190835b81811015610e5d5783516001600160a01b0316835260209384019390920191600101610e36565b509095945050505050565b60805160a051614144610e865f395f50505f610e9e01526141445ff3fe608060405234801561000f575f5ffd5b50600436106102cc575f3560e01c806394bf804d1161018157806394bf804d1461048657806395d89b411461050e57806397ee114414610516578063985ba4ae1461054c5780639908840c1461055f578063a68a526714610568578063a9059cbb1461057b578063aa2f892d1461058e578063acdb3d51146105a1578063b1bd7e2e146105aa578063b3d7f6b9146105bd578063b460af94146105d0578063b6eba653146105de578063ba087652146105f4578063bdca916514610607578063c0b568e114610610578063c3f0d30e14610623578063c63d75b61461043f578063c6e6f59214610636578063ce96cb7714610649578063d1717c7d1461065c578063d3d0345814610670578063d853365f14610686578063d905777e1461068e578063dd62ed3e146106a1578063e3352c4c146106b4578063e51a85f6146106c7578063e5e97193146106da578063e66f53b7146106ed578063ef8b30f714610636578063f64c6f3214610700575f5ffd5b806301e1d114146102d057806303d44854146102e757806306fdde03146102fc57806307a2d13a14610311578063095ea7b3146103245780630a28a477146103475780630a605c6d1461035a5780630c6a62dd146103625780630d1e6667146103755780630df571f71461038857806318160ddd1461039b57806318c21949146103a35780631f52692b146103b657806323b872dd146103d6578063313ce567146103e9578063348ec5c8146103fe57806338d52e0f146104115780633a0dad8e146104195780633ab6d27c1461042c578063402d267d1461043f578063493a6e21146104535780634cdad506146103115780634e85b135146104665780635de3dfdc1461047b5780636e553f651461048657806370a08231146104995780637847ea53146104ac57806379502c55146104cc57806380ceebfe146104df5780638f5c9465146104f2575b5f5ffd5b600d545b6040519081526020015b60405180910390f35b6102fa6102f53660046136b0565b610708565b005b6103046108eb565b6040516102de919061371f565b6102d461031f366004613754565b61097b565b61033761033236600461377f565b61098c565b60405190151581526020016102de565b6102d4610355366004613754565b6109a3565b6015546102d4565b6102fa6103703660046137a9565b6109af565b6102fa610383366004613754565b610abc565b6102fa6103963660046137c4565b610d2d565b6002546102d4565b6102fa6103b1366004613754565b610da8565b6006546103c9906001600160a01b031681565b6040516102de91906137e4565b6103376103e43660046137f8565b610e77565b60125b60405160ff90911681526020016102de565b6009546103c9906001600160a01b031681565b6103c9610e9c565b600a546103c9906001600160a01b031681565b6102fa61043a366004613853565b610ec0565b6102d461044d3660046137a9565b505f1990565b6102fa610461366004613754565b61108d565b61046e6113d4565b6040516102de91906138de565b601f5460ff16610337565b6102d46104943660046138f0565b6113e5565b6102d46104a73660046137a9565b6113ff565b6104b76301e1338081565b60405163ffffffff90911681526020016102de565b6008546103c9906001600160a01b031681565b6102d46104ed36600461391e565b611419565b6104fb61271081565b60405161ffff90911681526020016102de565b610304611459565b60175460185461053c9160ff81169161ffff610100830481169263010000009004169084565b6040516102de9493929190613960565b6102fa61055a3660046139de565b611468565b6104fb61012c81565b6102d461057636600461391e565b611575565b61033761058936600461377f565b6115a4565b6102fa61059c366004613754565b6115b1565b6102d460165481565b6102fa6105b8366004613a25565b61178a565b6102d46105cb366004613754565b6119ba565b6102d4610494366004613a63565b6105e66119c6565b6040516102de929190613a97565b6102d4610602366004613a63565b611b1d565b6104fb610bb881565b6102fa61061e366004613754565b611c8d565b6102fa610631366004613754565b611e47565b6102d4610644366004613754565b61203b565b6102d46106573660046137a9565b612046565b600a546103ec90600160a01b900460ff1681565b610678612059565b6040516102de929190613af5565b6103ec601281565b6102d461069c3660046137a9565b612183565b6102d46106af366004613b41565b61218d565b6102fa6106c23660046137a9565b6121b7565b6102d46106d5366004613754565b6122d0565b6102fa6106e8366004613754565b612309565b6007546103c9906001600160a01b031681565b6014546102d4565b6006546001600160a01b0316331461073357604051631a27eac360e11b815260040160405180910390fd5b61073d600b6125e1565b5f5b8181101561083d575f83838381811061075a5761075a613b6d565b905060200201602081019061076f91906137a9565b600854604051633af32abf60e01b81529192506001600160a01b031690633af32abf906107a09084906004016137e4565b602060405180830381865afa1580156107bb573d5f5f3e3d5ffd5b505050506040513d601f19601f820116820180604052508101906107df9190613b81565b610807578060405163751dff9760e11b81526004016107fe91906137e4565b60405180910390fd5b5f610813600b836125ea565b90508061083357604051630ea075bf60e21b815260040160405180910390fd5b505060010161073f565b50601f5460ff16156108a85760075460405163c653526b60e01b81526001600160a01b039091169063c653526b9061087b9085908590600401613ba0565b5f6040518083038186803b158015610891575f5ffd5b505afa1580156108a3573d5f5f3e3d5ffd5b505050505b81816040516108b8929190613bec565b604051908190038120907fa975983c7a4dcf80477a447433240de322f36428f1b3864e50d7a45e14c68b66905f90a25050565b6060600380546108fa90613c2d565b80601f016020809104026020016040519081016040528092919081815260200182805461092690613c2d565b80156109715780601f1061094857610100808354040283529160200191610971565b820191905f5260205f20905b81548152906001019060200180831161095457829003601f168201915b5050505050905090565b5f610986825f6125fe565b92915050565b5f3361099981858561263f565b5060019392505050565b5f610986826001612651565b6006546001600160a01b031633146109da57604051631a27eac360e11b815260040160405180910390fd5b6001600160a01b038116610a015760405163e6c4247b60e01b815260040160405180910390fd5b600780546001600160a01b0319166001600160a01b03831617905560408051634e85b13560e01b81529051610a86913091634e85b135916004808201925f929091908290030181865afa158015610a5a573d5f5f3e3d5ffd5b505050506040513d5f823e601f3d908101601f19168201604052610a819190810190613cf3565b612683565b6040516001600160a01b038216907f83293ffeebb677b167941693470018acf300605df266a35e9fdb66f24ff00fe0905f90a250565b610ac46127af565b60085f9054906101000a90046001600160a01b03166001600160a01b031663edcf9c1f6040518163ffffffff1660e01b8152600401602060405180830381865afa158015610b14573d5f5f3e3d5ffd5b505050506040513d601f19601f82011682018060405250810190610b389190613b81565b610b55576040516312aecd8160e01b815260040160405180910390fd5b805f03610b7e57610b64610e9c565b604051636b30633560e01b81526004016107fe91906137e4565b5f610b87610e9c565b6001600160a01b03166370a08231336040518263ffffffff1660e01b8152600401610bb291906137e4565b602060405180830381865afa158015610bcd573d5f5f3e3d5ffd5b505050506040513d601f19601f82011682018060405250810190610bf19190613d87565b905080821115610c1457604051632ca2f52b60e11b815260040160405180910390fd5b5f610c1d610e9c565b600a546040516323b872dd60e01b81526001600160a01b03928316926323b872dd92610c53923392909116908890600401613d9e565b6020604051808303815f875af1158015610c6f573d5f5f3e3d5ffd5b505050506040513d601f19601f82011682018060405250810190610c939190613b81565b905080610cb3576040516312171d8360e31b815260040160405180910390fd5b5f610cbf600e336127d9565b9150610cda905033610cd18684613dd6565b600e91906127ff565b508360145f828254610cec9190613dd6565b9091555050604051849033907f55896b30a78fc55b78937f8014dde3f0035e9d37a4f6ac36841fb8b62f7e2b13905f90a3505050610d2a6001600555565b50565b6009546001600160a01b03163314610d5857604051631a27eac360e11b815260040160405180910390fd5b8015610da4578060165f828254610d6f9190613dd6565b9091555050601654604051829084907f8b8789cf9157fe7b016901e4ed3a5d0971caa8b7c031da0b25638ccf65841b2a905f90a45b5050565b6006546001600160a01b03163314610dd357604051631a27eac360e11b815260040160405180910390fd5b805f03610de257610b64610e9c565b601654811115610e0557604051632ca2f52b60e11b815260040160405180910390fd5b8060165f828254610e169190613de9565b9091555050600a5460405163741fca4b60e01b8152600481018390526001600160a01b039091169063741fca4b906024015f604051808303815f87803b158015610e5e575f5ffd5b505af1158015610e70573d5f5f3e3d5ffd5b5050505050565b5f33610e84858285612814565b610e8f858585612865565b60019150505b9392505050565b7f000000000000000000000000000000000000000000000000000000000000000090565b6006546001600160a01b03163314610eeb57604051631a27eac360e11b815260040160405180910390fd5b60085f9054906101000a90046001600160a01b03166001600160a01b031663edcf9c1f6040518163ffffffff1660e01b8152600401602060405180830381865afa158015610f3b573d5f5f3e3d5ffd5b505050506040513d601f19601f82011682018060405250810190610f5f9190613b81565b610f7c576040516312aecd8160e01b815260040160405180910390fd5b600460ff84161115610fa1576040516317dbc4cb60e21b815260040160405180910390fd5b610bb861ffff83161115610fc8576040516317dbc4cb60e21b815260040160405180910390fd5b61012c61ffff82161115610fef576040516317dbc4cb60e21b815260040160405180910390fd5b8260ff1660048111156110045761100461394c565b6017805460ff191660018360048111156110205761102061394c565b02179055506017805464ffffffff00191661010061ffff85811691820264ffff00000019169290921763010000009285169283021790925560405190919060ff8616907fd24f39e523bfa412fa391702710dc62e1c82d87a8e83228a37c42be1b4870f45905f90a4505050565b600a546001600160a01b031633146110b857604051631a27eac360e11b815260040160405180910390fd5b6110c06127af565b5f6110cb60116128c2565b90508063ffffffff165f036110e057506113ca565b5f8163ffffffff166001600160401b038111156110ff576110ff613c65565b604051908082528060200260200182016040528015611128578160200160208202803683370190505b5090505f8263ffffffff166001600160401b0381111561114a5761114a613c65565b604051908082528060200260200182016040528015611173578160200160208202803683370190505b5090505f5b8363ffffffff168163ffffffff16101561120d575f806111a2601163ffffffff808616906128cc16565b9150915081858463ffffffff16815181106111bf576111bf613b6d565b60200260200101906001600160a01b031690816001600160a01b03168152505080848463ffffffff16815181106111f8576111f8613b6d565b60209081029190910101525050600101611178565b505f601581905560095460408051630a58ce2d60e11b815290516001600160a01b03909216916314b19c5a916004808201926020929091908290030181865afa15801561125c573d5f5f3e3d5ffd5b505050506040513d601f19601f820116820180604052508101906112809190613dfc565b90505f5b8463ffffffff168163ffffffff1610156113c4575f848263ffffffff16815181106112b1576112b1613b6d565b602002602001015190505f848363ffffffff16815181106112d4576112d4613b6d565b602002602001015190506112f28260116128da90919063ffffffff16565b505f6112ff828a5f611575565b905061130b30836128ee565b600a54604051634adfc2e760e01b81526001600160a01b0390911690634adfc2e79061133d9086908590600401613e17565b5f604051808303815f87803b158015611354575f5ffd5b505af1158015611366573d5f5f3e3d5ffd5b5050604080518481526020810186905261ffff891693506001600160a01b038716925030917f215abfcd108b85fbee47f26fda2de66f90f14fa5fcaf0201698ad8ac9323545f910160405180910390a4505050806001019050611284565b50505050505b610d2a6001600555565b60606113e0600b612922565b905090565b5f60405163125ad87760e31b815260040160405180910390fd5b6001600160a01b03165f9081526020819052604090205490565b5f61145161142561292e565b61143090600a613f13565b60025461143d9190613dd6565b611448856001613dd6565b869190856129aa565b949350505050565b6060600480546108fa90613c2d565b6009546001600160a01b0316331461149357604051631a27eac360e11b815260040160405180910390fd5b61149d60196129ec565b815f5b8161ffff168161ffff1610156115195761151085858361ffff168181106114c9576114c9613b6d565b6114df92602060409092020190810191506137a9565b86868461ffff168181106114f5576114f5613b6d565b9050604002016020013560196127ff9092919063ffffffff16565b506001016114a0565b50600d8290555f61153160125b61031f90600a613f13565b6018549091508111156115445760188190555b60405183907f5e1ff954b5e5257e9ee5d4cb07059e8f5e69b1aaaf9911e5d8d90a6894de9c21905f90a25050505050565b5f611451611584846001613dd6565b61158c61292e565b61159790600a613f13565b6002546114489190613dd6565b5f33610999818585612865565b60085f9054906101000a90046001600160a01b03166001600160a01b031663edcf9c1f6040518163ffffffff1660e01b8152600401602060405180830381865afa158015611601573d5f5f3e3d5ffd5b505050506040513d601f19601f820116820180604052508101906116259190613b81565b611642576040516312aecd8160e01b815260040160405180910390fd5b805f036116645730604051636b30633560e01b81526004016107fe91906137e4565b5f61166e336113ff565b90508082111561169157604051632ca2f52b60e11b815260040160405180910390fd5b6040516323b872dd60e01b81525f9030906323b872dd906116ba90339084908890600401613d9e565b6020604051808303815f875af11580156116d6573d5f5f3e3d5ffd5b505050506040513d601f19601f820116820180604052508101906116fa9190613b81565b90508061171a576040516312171d8360e31b815260040160405180910390fd5b5f6117266011336127d9565b91506117419050336117388684613dd6565b601191906127ff565b508360155f8282546117539190613dd6565b9091555050604051849033907f222dc200773fe9b45015bf792e8fee37d651e3590c215806a5042404b6d741d2905f90a350505050565b6007546001600160a01b031633146117b557604051631a27eac360e11b815260040160405180910390fd5b601f5460ff16156117d9576040516317dbc4cb60e21b815260040160405180910390fd5b5f8190036117fa57604051631121aa8d60e01b815260040160405180910390fd5b611804601c6129ec565b5f816001600160401b0381111561181d5761181d613c65565b604051908082528060200260200182016040528015611846578160200160208202803683370190505b5090505f82815b8161ffff168161ffff161015611944575f86868361ffff1681811061187457611874613b6d565b61188a92602060409092020190810191506137a9565b90505f87878461ffff168181106118a3576118a3613b6d565b90506040020160200160208101906118bb9190613f32565b905081868461ffff16815181106118d4576118d4613b6d565b6001600160a01b03909216602092830291909101909101525f611902601c8463ffffffff808616906127ff16565b90508061192457826040516346bdabe160e01b81526004016107fe91906137e4565b61193463ffffffff831687613dd6565b955050505080600101905061184d565b5061194e836129f5565b600a60149054906101000a900460ff16600a61196a9190613f13565b821461198957604051639006dd2760e01b815260040160405180910390fd5b60405133907f2d47a742b8d7df7c1fc5a9a631b206b364e6cb2722490759f63bb3ab14b132e0905f90a25050505050565b5f6109868260016125fe565b601f54606090819060ff16156119e6576119de612a6d565b915091509091565b5f6119f1601c6128c2565b90508061ffff166001600160401b03811115611a0f57611a0f613c65565b604051908082528060200260200182016040528015611a38578160200160208202803683370190505b5092508061ffff166001600160401b03811115611a5757611a57613c65565b604051908082528060200260200182016040528015611a80578160200160208202803683370190505b5091505f5b8161ffff168161ffff161015611b17575f80611aa6601c61ffff85166128cc565b9150915081868461ffff1681518110611ac157611ac1613b6d565b60200260200101906001600160a01b031690816001600160a01b03168152505080858461ffff1681518110611af857611af8613b6d565b63ffffffff909216602092830291909101909101525050600101611a85565b50509091565b60085460405163f764eb4560e01b81525f916001600160a01b03169063f764eb4590611b4d9030906004016137e4565b602060405180830381865afa158015611b68573d5f5f3e3d5ffd5b505050506040513d601f19601f82011682018060405250810190611b8c9190613b81565b611ba95760405163125ad87760e31b815260040160405180910390fd5b5f611bb383612183565b905080851115611bdc57828582604051632e52afbb60e21b81526004016107fe93929190613f4d565b336001600160a01b03841614611bf757611bf7833387612814565b5f611c018661097b565b905080600d5f828254611c149190613de9565b90915550611c24905084876128ee565b600a54604051627b8a6760e11b8152600481018390526001600160a01b0387811660248301529091169062f714ce906044015f604051808303815f87803b158015611c6d575f5ffd5b505af1158015611c7f573d5f5f3e3d5ffd5b509298975050505050505050565b611c956127af565b60085f9054906101000a90046001600160a01b03166001600160a01b031663edcf9c1f6040518163ffffffff1660e01b8152600401602060405180830381865afa158015611ce5573d5f5f3e3d5ffd5b505050506040513d601f19601f82011682018060405250810190611d099190613b81565b611d26576040516312aecd8160e01b815260040160405180910390fd5b805f03611d3557610b64610e9c565b5f611d41600e336127d9565b91505081811015611d6557604051632ca2f52b60e11b815260040160405180910390fd5b600a546040516351edffb160e01b81526001600160a01b03909116906351edffb190611d979033908690600401613e17565b5f604051808303815f87803b158015611dae575f5ffd5b505af1158015611dc0573d5f5f3e3d5ffd5b505050505f8282611dd19190613de9565b9050805f03611deb57611de5600e336128da565b50611df9565b611df7600e33836127ff565b505b8260145f828254611e0a9190613de9565b9091555050604051839033907f96a9a6886cdf3047a125454218a23d3961fd3a78643123b248a9d106d0ac94fd905f90a35050610d2a6001600555565b611e4f6127af565b60085f9054906101000a90046001600160a01b03166001600160a01b031663edcf9c1f6040518163ffffffff1660e01b8152600401602060405180830381865afa158015611e9f573d5f5f3e3d5ffd5b505050506040513d601f19601f82011682018060405250810190611ec39190613b81565b611ee0576040516312aecd8160e01b815260040160405180910390fd5b805f03611f025730604051636b30633560e01b81526004016107fe91906137e4565b5f611f0e6011336127d9565b91505081811015611f3257604051632ca2f52b60e11b815260040160405180910390fd5b5f611f3d8383613de9565b9050805f03611f5757611f516011336128da565b50611f65565b611f63601133836127ff565b505b8260155f828254611f769190613de9565b909155505060405163a9059cbb60e01b81525f90309063a9059cbb90611fa29033908890600401613e17565b6020604051808303815f875af1158015611fbe573d5f5f3e3d5ffd5b505050506040513d601f19601f82011682018060405250810190611fe29190613b81565b905080612002576040516312171d8360e31b815260040160405180910390fd5b604051849033907f046d3e17087d323298991516e3fdec36fe1204d6bff7fb6e2b8eca77b80a22ad905f90a3505050610d2a6001600555565b5f610986825f612651565b5f610986612053836113ff565b5f6125fe565b6060805f61206760196128c2565b90508061ffff166001600160401b0381111561208557612085613c65565b6040519080825280602002602001820160405280156120ae578160200160208202803683370190505b5092508061ffff166001600160401b038111156120cd576120cd613c65565b6040519080825280602002602001820160405280156120f6578160200160208202803683370190505b5091505f5b8161ffff168161ffff161015611b17575f8061211c601961ffff85166128cc565b9150915081868461ffff168151811061213757612137613b6d565b60200260200101906001600160a01b031690816001600160a01b03168152505080858461ffff168151811061216e5761216e613b6d565b602090810291909101015250506001016120fb565b5f610986826113ff565b6001600160a01b039182165f90815260016020908152604080832093909416825291909152205490565b6008546001600160a01b031633146121e257604051631a27eac360e11b815260040160405180910390fd5b6121ed600b82612c9f565b50601f5460ff16156121fc5750565b5f80612209601c846127d9565b915091508161221757505050565b612222601c846128da565b505f306001600160a01b03166338d52e0f6040518163ffffffff1660e01b8152600401602060405180830381865afa158015612260573d5f5f3e3d5ffd5b505050506040513d601f19601f820116820180604052508101906122849190613f6e565b90505f80612293601c846127d9565b9150915081156122ba576122b4836122ab8684613dd6565b601c91906127ff565b506122c8565b6122c6601c84866127ff565b505b505050505050565b5f5f6122db83612cb3565b90505f6122e88285613de9565b90505f6122f482612d7d565b90506123008184613dd6565b95945050505050565b600a546001600160a01b0316331461233457604051631a27eac360e11b815260040160405180910390fd5b61233c6127af565b5f612347600e6128c2565b90508063ffffffff165f0361235c57506113ca565b5f8163ffffffff166001600160401b0381111561237b5761237b613c65565b6040519080825280602002602001820160405280156123a4578160200160208202803683370190505b5090505f8263ffffffff166001600160401b038111156123c6576123c6613c65565b6040519080825280602002602001820160405280156123ef578160200160208202803683370190505b5090505f5b8363ffffffff168163ffffffff161015612489575f8061241e600e63ffffffff808616906128cc16565b9150915081858463ffffffff168151811061243b5761243b613b6d565b60200260200101906001600160a01b031690816001600160a01b03168152505080848463ffffffff168151811061247457612474613b6d565b602090810291909101015250506001016123f4565b505f601481905560095460408051630a58ce2d60e11b815290516001600160a01b03909216916314b19c5a916004808201926020929091908290030181865afa1580156124d8573d5f5f3e3d5ffd5b505050506040513d601f19601f820116820180604052508101906124fc9190613dfc565b90505f5b8463ffffffff168163ffffffff1610156113c4575f848263ffffffff168151811061252d5761252d613b6d565b602002602001015190505f848363ffffffff168151811061255057612550613b6d565b6020026020010151905061256e82600e6128da90919063ffffffff16565b505f61257b828a5f611419565b90506125878382612e16565b604080518381526020810183905261ffff8716916001600160a01b0386169130917f4e2ca0515ed1aef1395f66b5303bb5d6f1bf9d61a353fa53f73f8ac9973fa9f6910160405180910390a4505050806001019050612500565b610d2a81612e4a565b5f610e95836001600160a01b038416612ea3565b5f610e9561260b600d5490565b612616906001613dd6565b61261e61292e565b61262990600a613f13565b6002546126369190613dd6565b859190856129aa565b61264c8383836001612eea565b505050565b5f610e9561265d61292e565b61266890600a613f13565b6002546126759190613dd6565b600d54612636906001613dd6565b6007546001600160a01b03163b5f036126a357601f805460ff1916905550565b6007546040516301ffc9a760e01b8152635b24e9f760e11b60048201526001600160a01b03909116906301ffc9a790602401602060405180830381865afa92505050801561270e575060408051601f3d908101601f1916820190925261270b91810190613b81565b60015b61272b5760405163298febe360e01b815260040160405180910390fd5b801561279657601f805460ff1916600117905560075460405163c653526b60e01b81526001600160a01b039091169063c653526b9061276e9085906004016138de565b5f6040518083038186803b158015612784575f5ffd5b505afa1580156122c8573d5f5f3e3d5ffd5b60405163298febe360e01b815260040160405180910390fd5b6002600554036127d257604051633ee5aeb560e01b815260040160405180910390fd5b6002600555565b5f8080806127f0866001600160a01b038716612fbc565b909450925050505b9250929050565b5f611451846001600160a01b03851684612ff4565b5f61281f848461218d565b90505f1981101561285f578181101561285157828183604051637dc7a0d960e11b81526004016107fe93929190613f4d565b61285f84848484035f612eea565b50505050565b6001600160a01b03831661288e575f604051634b637e8f60e11b81526004016107fe91906137e4565b6001600160a01b0382166128b7575f60405163ec442f0560e01b81526004016107fe91906137e4565b61264c838383613010565b5f61098682613123565b5f8080806127f0868661312d565b5f610e95836001600160a01b038416613156565b6001600160a01b038216612917575f604051634b637e8f60e11b81526004016107fe91906137e4565b610da4825f83613010565b60605f610e9583613172565b5f5f612938610e9c565b6001600160a01b031663313ce5676040518163ffffffff1660e01b8152600401602060405180830381865afa158015612973573d5f5f3e3d5ffd5b505050506040513d601f19601f820116820180604052508101906129979190613f89565b90506129a4816012613fa4565b91505090565b5f6129d76129b7836131cb565b80156129d257505f84806129cd576129cd613fbd565b868809115b151590565b6129e28686866131f7565b6123009190613dd6565b610d2a816132a7565b5f5b8151811015610da457612a2d828281518110612a1557612a15613b6d565b6020026020010151600b6132f090919063ffffffff16565b612a6557818181518110612a4357612a43613b6d565b602002602001015160405163751dff9760e11b81526004016107fe91906137e4565b6001016129f7565b6060805f306001600160a01b0316634e85b1356040518163ffffffff1660e01b81526004015f60405180830381865afa158015612aac573d5f5f3e3d5ffd5b505050506040513d5f823e601f3d908101601f19168201604052612ad39190810190613cf3565b60075460405163701a818560e01b81529192505f916001600160a01b039091169063701a818590612b089085906004016138de565b5f60405180830381865afa158015612b22573d5f5f3e3d5ffd5b505050506040513d5f823e601f3d908101601f19168201604052612b499190810190613fd1565b905080516001600160401b03811115612b6457612b64613c65565b604051908082528060200260200182016040528015612b8d578160200160208202803683370190505b50935080516001600160401b03811115612ba957612ba9613c65565b604051908082528060200260200182016040528015612bd2578160200160208202803683370190505b5092505f5b81518161ffff161015612c9857818161ffff1681518110612bfa57612bfa613b6d565b60200260200101515f0151858261ffff1681518110612c1b57612c1b613b6d565b60200260200101906001600160a01b031690816001600160a01b031681525050818161ffff1681518110612c5157612c51613b6d565b602002602001015160200151848261ffff1681518110612c7357612c73613b6d565b63ffffffff90921660209283029190910190910152612c9181614092565b9050612bd7565b5050509091565b5f610e95836001600160a01b038416613304565b6017545f906301000000900461ffff168103612cd057505f919050565b6017545f90612ced906301000000900461ffff16846127106131f7565b9050610e9560095f9054906101000a90046001600160a01b03166001600160a01b0316634ff0876a6040518163ffffffff1660e01b8152600401602060405180830381865afa158015612d42573d5f5f3e3d5ffd5b505050506040513d601f19601f82011682018060405250810190612d6691906140b2565b829063ffffffff908116906301e13380906131f716565b6017545f90610100900461ffff168103612d9857505f919050565b5f612daf612da86012600a613f13565b845f611575565b6017549091505f908190612dc59060ff166133e7565b9150915081831080612dd5575080155b15612de457505f949350505050565b6017545f90612dfd90610100900461ffff1685846131f7565b9050612e0c81876127106131f7565b9695505050505050565b6001600160a01b038216612e3f575f60405163ec442f0560e01b81526004016107fe91906137e4565b610da45f8383613010565b5f612e53825490565b90505f5b81811015612e9c57826001015f845f018381548110612e7857612e78613b6d565b905f5260205f20015481526020019081526020015f205f9055806001019050612e57565b50505f9055565b5f612eae83836134d1565b612ee357508154600181810184555f848152602080822090930184905584548482528286019093526040902091909155610986565b505f610986565b6001600160a01b038416612f13575f60405163e602df0560e01b81526004016107fe91906137e4565b6001600160a01b038316612f3c575f604051634a1406b160e11b81526004016107fe91906137e4565b6001600160a01b038085165f908152600160209081526040808320938716835292905220829055801561285f57826001600160a01b0316846001600160a01b03167f8c5be1e5ebec7d5bd14f71427d1e84f3dd0314c0f7b2291e5b200ac8c7c3b92584604051612fae91815260200190565b60405180910390a350505050565b5f818152600283016020526040812054819080612fe957612fdd85856134e8565b92505f91506127f89050565b6001925090506127f8565b5f828152600284016020526040812082905561145184846134f3565b6001600160a01b03831661303a578060025f82825461302f9190613dd6565b909155506130979050565b6001600160a01b0383165f90815260208190526040902054818110156130795783818360405163391434e360e21b81526004016107fe93929190613f4d565b6001600160a01b0384165f9081526020819052604090209082900390555b6001600160a01b0382166130b3576002805482900390556130d1565b6001600160a01b0382165f9081526020819052604090208054820190555b816001600160a01b0316836001600160a01b03167fddf252ad1be2c89b69c2b068fc378daa952ba7f163c4a11628f55a4df523b3ef8360405161311691815260200190565b60405180910390a3505050565b5f610986826134fe565b5f808061313a8585613507565b5f81815260029690960160205260409095205494959350505050565b5f8181526002830160205260408120819055610e958383613512565b6060815f018054806020026020016040519081016040528092919081815260200182805480156131bf57602002820191905f5260205f20905b8154815260200190600101908083116131ab575b50505050509050919050565b5f60028260038111156131e0576131e061394c565b6131ea91906140cd565b60ff166001149050919050565b5f5f5f613204868661351d565b91509150815f036132285783818161321e5761321e613fbd565b0492505050610e95565b81841161323f5761323f6003851502601118613539565b5f848688095f868103871696879004966002600389028118808a02820302808a02820302808a02820302808a02820302808a02820302808a02909103029181900381900460010185841190960395909502919093039390930492909217029150509392505050565b5f6132b182613123565b90505f5b818110156132e657600283015f6132cc8584613507565b815260208101919091526040015f908120556001016132b5565b50610da4826125e1565b5f610e95836001600160a01b0384166134d1565b5f81815260018301602052604081205480156133de575f613326600183613de9565b85549091505f9061333990600190613de9565b9050808214613398575f865f01828154811061335757613357613b6d565b905f5260205f200154905080875f01848154811061337757613377613b6d565b5f918252602080832090910192909255918252600188019052604090208390555b85548690806133a9576133a96140fa565b600190038181905f5260205f20015f90559055856001015f8681526020019081526020015f205f905560019350505050610986565b5f915050610986565b5f80806133f46012611526565b90505f8460048111156134095761340961394c565b03613419578092508291506134cb565b600384600481111561342d5761342d61394c565b0361343f5760185492508291506134cb565b60018460048111156134535761345361394c565b0361346b576134618161354a565b92508091506134cb565b600284600481111561347f5761347f61394c565b036134975761348d8161354a565b92508291506134cb565b60048460048111156134ab576134ab61394c565b036134cb576018546134c5906134c08361354a565b613670565b92508291505b50915091565b5f9081526001919091016020526040902054151590565b5f610e95838361367f565b5f610e958383612ea3565b5f610986825490565b5f610e95838361368a565b5f610e958383613304565b5f805f1983850993909202808410938190039390930393915050565b634e487b715f52806020526024601cfd5b5f5f60085f9054906101000a90046001600160a01b03166001600160a01b031663f3cc69936040518163ffffffff1660e01b8152600401602060405180830381865afa15801561359c573d5f5f3e3d5ffd5b505050506040513d601f19601f820116820180604052508101906135c09190613dfc565b61ffff1690505f61365560095f9054906101000a90046001600160a01b03166001600160a01b0316634ff0876a6040518163ffffffff1660e01b8152600401602060405180830381865afa15801561361a573d5f5f3e3d5ffd5b505050506040513d601f19601f8201168201806040525081019061363e91906140b2565b839063ffffffff908116906301e13380906131f716565b905061145161366682612710613dd6565b85906127106131f7565b5f828218828411028218610e95565b5f610e9583836134d1565b5f825f01828154811061369f5761369f613b6d565b905f5260205f200154905092915050565b5f5f602083850312156136c1575f5ffd5b82356001600160401b038111156136d6575f5ffd5b8301601f810185136136e6575f5ffd5b80356001600160401b038111156136fb575f5ffd5b8560208260051b840101111561370f575f5ffd5b6020919091019590945092505050565b602081525f82518060208401528060208501604085015e5f604082850101526040601f19601f83011684010191505092915050565b5f60208284031215613764575f5ffd5b5035919050565b6001600160a01b0381168114610d2a575f5ffd5b5f5f60408385031215613790575f5ffd5b823561379b8161376b565b946020939093013593505050565b5f602082840312156137b9575f5ffd5b8135610e958161376b565b5f5f604083850312156137d5575f5ffd5b50508035926020909101359150565b6001600160a01b0391909116815260200190565b5f5f5f6060848603121561380a575f5ffd5b83356138158161376b565b925060208401356138258161376b565b929592945050506040919091013590565b60ff81168114610d2a575f5ffd5b61ffff81168114610d2a575f5ffd5b5f5f5f60608486031215613865575f5ffd5b833561387081613836565b9250602084013561388081613844565b9150604084013561389081613844565b809150509250925092565b5f8151808452602084019350602083015f5b828110156138d45781516001600160a01b03168652602095860195909101906001016138ad565b5093949350505050565b602081525f610e95602083018461389b565b5f5f60408385031215613901575f5ffd5b8235915060208301356139138161376b565b809150509250929050565b5f5f5f60608486031215613930575f5ffd5b8335925060208401359150604084013560048110613890575f5ffd5b634e487b7160e01b5f52602160045260245ffd5b608081016005861061398057634e487b7160e01b5f52602160045260245ffd5b94815261ffff93841660208201529190921660408201526060015290565b5f5f83601f8401126139ae575f5ffd5b5081356001600160401b038111156139c4575f5ffd5b6020830191508360208260061b85010111156127f8575f5ffd5b5f5f5f604084860312156139f0575f5ffd5b83356001600160401b03811115613a05575f5ffd5b613a118682870161399e565b909790965060209590950135949350505050565b5f5f60208385031215613a36575f5ffd5b82356001600160401b03811115613a4b575f5ffd5b613a578582860161399e565b90969095509350505050565b5f5f5f60608486031215613a75575f5ffd5b833592506020840135613a878161376b565b915060408401356138908161376b565b604081525f613aa9604083018561389b565b82810360208401528084518083526020830191506020860192505f5b81811015613ae957835163ffffffff16835260209384019390920191600101613ac5565b50909695505050505050565b604081525f613b07604083018561389b565b82810360208401528084518083526020830191506020860192505f5b81811015613ae9578351835260209384019390920191600101613b23565b5f5f60408385031215613b52575f5ffd5b8235613b5d8161376b565b915060208301356139138161376b565b634e487b7160e01b5f52603260045260245ffd5b5f60208284031215613b91575f5ffd5b81518015158114610e95575f5ffd5b602080825281018290525f8360408301825b85811015613be2578235613bc58161376b565b6001600160a01b0316825260209283019290910190600101613bb2565b5095945050505050565b5f8184825b85811015613c22578135613c048161376b565b6001600160a01b031683526020928301929190910190600101613bf1565b509095945050505050565b600181811c90821680613c4157607f821691505b602082108103613c5f57634e487b7160e01b5f52602260045260245ffd5b50919050565b634e487b7160e01b5f52604160045260245ffd5b604080519081016001600160401b0381118282101715613c9b57613c9b613c65565b60405290565b604051601f8201601f191681016001600160401b0381118282101715613cc957613cc9613c65565b604052919050565b5f6001600160401b03821115613ce957613ce9613c65565b5060051b60200190565b5f60208284031215613d03575f5ffd5b81516001600160401b03811115613d18575f5ffd5b8201601f81018413613d28575f5ffd5b8051613d3b613d3682613cd1565b613ca1565b8082825260208201915060208360051b850101925086831115613d5c575f5ffd5b6020840193505b82841015612e0c578351613d768161376b565b825260209384019390910190613d63565b5f60208284031215613d97575f5ffd5b5051919050565b6001600160a01b039384168152919092166020820152604081019190915260600190565b634e487b7160e01b5f52601160045260245ffd5b8082018082111561098657610986613dc2565b8181038181111561098657610986613dc2565b5f60208284031215613e0c575f5ffd5b8151610e9581613844565b6001600160a01b03929092168252602082015260400190565b6001815b6001841115613e6b57808504811115613e4f57613e4f613dc2565b6001841615613e5d57908102905b60019390931c928002613e34565b935093915050565b5f82613e8157506001610986565b81613e8d57505f610986565b8160018114613ea35760028114613ead57613ec9565b6001915050610986565b60ff841115613ebe57613ebe613dc2565b50506001821b610986565b5060208310610133831016604e8410600b8410161715613eec575081810a610986565b613ef85f198484613e30565b805f1904821115613f0b57613f0b613dc2565b029392505050565b5f610e9560ff841683613e73565b63ffffffff81168114610d2a575f5ffd5b5f60208284031215613f42575f5ffd5b8135610e9581613f21565b6001600160a01b039390931683526020830191909152604082015260600190565b5f60208284031215613f7e575f5ffd5b8151610e958161376b565b5f60208284031215613f99575f5ffd5b8151610e9581613836565b60ff828116828216039081111561098657610986613dc2565b634e487b7160e01b5f52601260045260245ffd5b5f60208284031215613fe1575f5ffd5b81516001600160401b03811115613ff6575f5ffd5b8201601f81018413614006575f5ffd5b8051614014613d3682613cd1565b8082825260208201915060208360061b850101925086831115614035575f5ffd5b6020840193505b82841015612e0c5760408488031215614053575f5ffd5b61405b613c79565b84516140668161376b565b8152602085015161407681613f21565b806020830152508083525060208201915060408401935061403c565b5f61ffff821661ffff81036140a9576140a9613dc2565b60010192915050565b5f602082840312156140c2575f5ffd5b8151610e9581613f21565b5f60ff8316806140eb57634e487b7160e01b5f52601260045260245ffd5b8060ff84160691505092915050565b634e487b7160e01b5f52603160045260245ffdfea26469706673582212208d7354b2a276a70e6325647205c8cd0a980c3d3d4ba7f5dfe682e4051d0addcc64736f6c634300081c0033",
  "linkReferences": {},
  "deployedLinkReferences": {}
}