{
  "_format": "hh-sol-artifact-1",
  "contractName": "OrionTransparentVault",
  "sourceName": "contracts/vaults/OrionTransparentVault.sol",
  "abi": [
    {
      "inputs": [
        {
          "internalType": "address",
          "name": "vaultOwner",
          "type": "address"
        },
        {
          "internalType": "address",
          "name": "curator",
          "type": "address"
        },
        {
          "internalType": "contract IOrionConfig",
          "name": "configAddress",
          "type": "address"
        },
        {
          "internalType": "string",
          "name": "name",
          "type": "string"
        },
        {
          "internalType": "string",
          "name": "symbol",
          "type": "string"
        }
      ],
      "stateMutability": "nonpayable",
      "type": "constructor"
    },
    {
      "inputs": [
        {
          "internalType": "address",
          "name": "asset",
          "type": "address"
        }
      ],
      "name": "AmountMustBeGreaterThanZero",
      "type": "error"
    },
    {
      "inputs": [
        {
          "internalType": "address",
          "name": "spender",
          "type": "address"
        },
        {
          "internalType": "uint256",
          "name": "allowance",
          "type": "uint256"
        },
        {
          "internalType": "uint256",
          "name": "needed",
          "type": "uint256"
        }
      ],
      "name": "ERC20InsufficientAllowance",
      "type": "error"
    },
    {
      "inputs": [
        {
          "internalType": "address",
          "name": "sender",
          "type": "address"
        },
        {
          "internalType": "uint256",
          "name": "balance",
          "type": "uint256"
        },
        {
          "internalType": "uint256",
          "name": "needed",
          "type": "uint256"
        }
      ],
      "name": "ERC20InsufficientBalance",
      "type": "error"
    },
    {
      "inputs": [
        {
          "internalType": "address",
          "name": "approver",
          "type": "address"
        }
      ],
      "name": "ERC20InvalidApprover",
      "type": "error"
    },
    {
      "inputs": [
        {
          "internalType": "address",
          "name": "receiver",
          "type": "address"
        }
      ],
      "name": "ERC20InvalidReceiver",
      "type": "error"
    },
    {
      "inputs": [
        {
          "internalType": "address",
          "name": "sender",
          "type": "address"
        }
      ],
      "name": "ERC20InvalidSender",
      "type": "error"
    },
    {
      "inputs": [
        {
          "internalType": "address",
          "name": "spender",
          "type": "address"
        }
      ],
      "name": "ERC20InvalidSpender",
      "type": "error"
    },
    {
      "inputs": [
        {
          "internalType": "address",
          "name": "receiver",
          "type": "address"
        },
        {
          "internalType": "uint256",
          "name": "assets",
          "type": "uint256"
        },
        {
          "internalType": "uint256",
          "name": "max",
          "type": "uint256"
        }
      ],
      "name": "ERC4626ExceededMaxDeposit",
      "type": "error"
    },
    {
      "inputs": [
        {
          "internalType": "address",
          "name": "receiver",
          "type": "address"
        },
        {
          "internalType": "uint256",
          "name": "shares",
          "type": "uint256"
        },
        {
          "internalType": "uint256",
          "name": "max",
          "type": "uint256"
        }
      ],
      "name": "ERC4626ExceededMaxMint",
      "type": "error"
    },
    {
      "inputs": [
        {
          "internalType": "address",
          "name": "owner",
          "type": "address"
        },
        {
          "internalType": "uint256",
          "name": "shares",
          "type": "uint256"
        },
        {
          "internalType": "uint256",
          "name": "max",
          "type": "uint256"
        }
      ],
      "name": "ERC4626ExceededMaxRedeem",
      "type": "error"
    },
    {
      "inputs": [
        {
          "internalType": "address",
          "name": "owner",
          "type": "address"
        },
        {
          "internalType": "uint256",
          "name": "assets",
          "type": "uint256"
        },
        {
          "internalType": "uint256",
          "name": "max",
          "type": "uint256"
        }
      ],
      "name": "ERC4626ExceededMaxWithdraw",
      "type": "error"
    },
    {
      "inputs": [
        {
          "internalType": "address",
          "name": "sender",
          "type": "address"
        },
        {
          "internalType": "uint256",
          "name": "balance",
          "type": "uint256"
        },
        {
          "internalType": "uint256",
          "name": "amount",
          "type": "uint256"
        }
      ],
      "name": "InsufficientFunds",
      "type": "error"
    },
    {
      "inputs": [],
      "name": "InvalidAddress",
      "type": "error"
    },
    {
      "inputs": [],
      "name": "InvalidTotalWeight",
      "type": "error"
    },
    {
      "inputs": [],
      "name": "InvalidUnderlyingDecimals",
      "type": "error"
    },
    {
      "inputs": [],
      "name": "NotEnoughDepositRequest",
      "type": "error"
    },
    {
      "inputs": [],
      "name": "NotEnoughWithdrawRequest",
      "type": "error"
    },
    {
      "inputs": [],
      "name": "OrderIntentCannotBeEmpty",
      "type": "error"
    },
    {
      "inputs": [],
      "name": "ReentrancyGuardReentrantCall",
      "type": "error"
    },
    {
      "inputs": [],
      "name": "SynchronousCallDisabled",
      "type": "error"
    },
    {
      "inputs": [
        {
          "internalType": "address",
          "name": "token",
          "type": "address"
        }
      ],
      "name": "TokenAlreadyInOrder",
      "type": "error"
    },
    {
      "inputs": [
        {
          "internalType": "address",
          "name": "token",
          "type": "address"
        }
      ],
      "name": "TokenNotWhitelisted",
      "type": "error"
    },
    {
      "inputs": [],
      "name": "TransferFailed",
      "type": "error"
    },
    {
      "inputs": [],
      "name": "UnauthorizedAccess",
      "type": "error"
    },
    {
      "anonymous": false,
      "inputs": [
        {
          "indexed": true,
          "internalType": "address",
          "name": "owner",
          "type": "address"
        },
        {
          "indexed": true,
          "internalType": "address",
          "name": "spender",
          "type": "address"
        },
        {
          "indexed": false,
          "internalType": "uint256",
          "name": "value",
          "type": "uint256"
        }
      ],
      "name": "Approval",
      "type": "event"
    },
    {
      "anonymous": false,
      "inputs": [
        {
          "indexed": true,
          "internalType": "address",
          "name": "sender",
          "type": "address"
        },
        {
          "indexed": true,
          "internalType": "address",
          "name": "owner",
          "type": "address"
        },
        {
          "indexed": false,
          "internalType": "uint256",
          "name": "assets",
          "type": "uint256"
        },
        {
          "indexed": false,
          "internalType": "uint256",
          "name": "shares",
          "type": "uint256"
        }
      ],
      "name": "Deposit",
      "type": "event"
    },
    {
      "anonymous": false,
      "inputs": [
        {
          "indexed": true,
          "internalType": "address",
          "name": "user",
          "type": "address"
        },
        {
          "indexed": false,
          "internalType": "uint256",
          "name": "amount",
          "type": "uint256"
        }
      ],
      "name": "DepositProcessed",
      "type": "event"
    },
    {
      "anonymous": false,
      "inputs": [
        {
          "indexed": true,
          "internalType": "address",
          "name": "user",
          "type": "address"
        },
        {
          "indexed": false,
          "internalType": "uint256",
          "name": "amount",
          "type": "uint256"
        }
      ],
      "name": "DepositRequestCancelled",
      "type": "event"
    },
    {
      "anonymous": false,
      "inputs": [
        {
          "indexed": true,
          "internalType": "address",
          "name": "user",
          "type": "address"
        },
        {
          "indexed": false,
          "internalType": "uint256",
          "name": "amount",
          "type": "uint256"
        }
      ],
      "name": "DepositRequested",
      "type": "event"
    },
    {
      "anonymous": false,
      "inputs": [
        {
          "indexed": true,
          "internalType": "address",
          "name": "curator",
          "type": "address"
        }
      ],
      "name": "OrderSubmitted",
      "type": "event"
    },
    {
      "anonymous": false,
      "inputs": [
        {
          "indexed": true,
          "internalType": "address",
          "name": "from",
          "type": "address"
        },
        {
          "indexed": true,
          "internalType": "address",
          "name": "to",
          "type": "address"
        },
        {
          "indexed": false,
          "internalType": "uint256",
          "name": "value",
          "type": "uint256"
        }
      ],
      "name": "Transfer",
      "type": "event"
    },
    {
      "anonymous": false,
      "inputs": [
        {
          "indexed": false,
          "internalType": "uint256",
          "name": "newTotalAssets",
          "type": "uint256"
        }
      ],
      "name": "VaultStateUpdated",
      "type": "event"
    },
    {
      "anonymous": false,
      "inputs": [
        {
          "indexed": true,
          "internalType": "address",
          "name": "sender",
          "type": "address"
        },
        {
          "indexed": true,
          "internalType": "address",
          "name": "receiver",
          "type": "address"
        },
        {
          "indexed": true,
          "internalType": "address",
          "name": "owner",
          "type": "address"
        },
        {
          "indexed": false,
          "internalType": "uint256",
          "name": "assets",
          "type": "uint256"
        },
        {
          "indexed": false,
          "internalType": "uint256",
          "name": "shares",
          "type": "uint256"
        }
      ],
      "name": "Withdraw",
      "type": "event"
    },
    {
      "anonymous": false,
      "inputs": [
        {
          "indexed": true,
          "internalType": "address",
          "name": "user",
          "type": "address"
        },
        {
          "indexed": false,
          "internalType": "uint256",
          "name": "shares",
          "type": "uint256"
        }
      ],
      "name": "WithdrawProcessed",
      "type": "event"
    },
    {
      "anonymous": false,
      "inputs": [
        {
          "indexed": true,
          "internalType": "address",
          "name": "user",
          "type": "address"
        },
        {
          "indexed": false,
          "internalType": "uint256",
          "name": "shares",
          "type": "uint256"
        }
      ],
      "name": "WithdrawRequestCancelled",
      "type": "event"
    },
    {
      "anonymous": false,
      "inputs": [
        {
          "indexed": true,
          "internalType": "address",
          "name": "user",
          "type": "address"
        },
        {
          "indexed": false,
          "internalType": "uint256",
          "name": "shares",
          "type": "uint256"
        }
      ],
      "name": "WithdrawRequested",
      "type": "event"
    },
    {
      "inputs": [
        {
          "internalType": "address",
          "name": "owner",
          "type": "address"
        },
        {
          "internalType": "address",
          "name": "spender",
          "type": "address"
        }
      ],
      "name": "allowance",
      "outputs": [
        {
          "internalType": "uint256",
          "name": "",
          "type": "uint256"
        }
      ],
      "stateMutability": "view",
      "type": "function"
    },
    {
      "inputs": [
        {
          "internalType": "address",
          "name": "spender",
          "type": "address"
        },
        {
          "internalType": "uint256",
          "name": "value",
          "type": "uint256"
        }
      ],
      "name": "approve",
      "outputs": [
        {
          "internalType": "bool",
          "name": "",
          "type": "bool"
        }
      ],
      "stateMutability": "nonpayable",
      "type": "function"
    },
    {
      "inputs": [],
      "name": "asset",
      "outputs": [
        {
          "internalType": "address",
          "name": "",
          "type": "address"
        }
      ],
      "stateMutability": "view",
      "type": "function"
    },
    {
      "inputs": [
        {
          "internalType": "address",
          "name": "account",
          "type": "address"
        }
      ],
      "name": "balanceOf",
      "outputs": [
        {
          "internalType": "uint256",
          "name": "",
          "type": "uint256"
        }
      ],
      "stateMutability": "view",
      "type": "function"
    },
    {
      "inputs": [
        {
          "internalType": "uint256",
          "name": "amount",
          "type": "uint256"
        }
      ],
      "name": "cancelDepositRequest",
      "outputs": [],
      "stateMutability": "nonpayable",
      "type": "function"
    },
    {
      "inputs": [
        {
          "internalType": "uint256",
          "name": "shares",
          "type": "uint256"
        }
      ],
      "name": "cancelWithdrawRequest",
      "outputs": [],
      "stateMutability": "nonpayable",
      "type": "function"
    },
    {
      "inputs": [],
      "name": "config",
      "outputs": [
        {
          "internalType": "contract IOrionConfig",
          "name": "",
          "type": "address"
        }
      ],
      "stateMutability": "view",
      "type": "function"
    },
    {
      "inputs": [
        {
          "internalType": "uint256",
          "name": "shares",
          "type": "uint256"
        }
      ],
      "name": "convertToAssets",
      "outputs": [
        {
          "internalType": "uint256",
          "name": "",
          "type": "uint256"
        }
      ],
      "stateMutability": "view",
      "type": "function"
    },
    {
      "inputs": [
        {
          "internalType": "uint256",
          "name": "shares",
          "type": "uint256"
        },
        {
          "internalType": "uint256",
          "name": "pointInTimeTotalAssets",
          "type": "uint256"
        },
        {
          "internalType": "enum Math.Rounding",
          "name": "rounding",
          "type": "uint8"
        }
      ],
      "name": "convertToAssetsWithPITTotalAssets",
      "outputs": [
        {
          "internalType": "uint256",
          "name": "",
          "type": "uint256"
        }
      ],
      "stateMutability": "view",
      "type": "function"
    },
    {
      "inputs": [
        {
          "internalType": "uint256",
          "name": "assets",
          "type": "uint256"
        }
      ],
      "name": "convertToShares",
      "outputs": [
        {
          "internalType": "uint256",
          "name": "",
          "type": "uint256"
        }
      ],
      "stateMutability": "view",
      "type": "function"
    },
    {
      "inputs": [],
      "name": "curator",
      "outputs": [
        {
          "internalType": "address",
          "name": "",
          "type": "address"
        }
      ],
      "stateMutability": "view",
      "type": "function"
    },
    {
      "inputs": [],
      "name": "decimals",
      "outputs": [
        {
          "internalType": "uint8",
          "name": "",
          "type": "uint8"
        }
      ],
      "stateMutability": "view",
      "type": "function"
    },
    {
      "inputs": [
        {
          "internalType": "uint256",
          "name": "",
          "type": "uint256"
        },
        {
          "internalType": "address",
          "name": "",
          "type": "address"
        }
      ],
      "name": "deposit",
      "outputs": [
        {
          "internalType": "uint256",
          "name": "",
          "type": "uint256"
        }
      ],
      "stateMutability": "pure",
      "type": "function"
    },
    {
      "inputs": [],
      "name": "getIntent",
      "outputs": [
        {
          "internalType": "address[]",
          "name": "tokens",
          "type": "address[]"
        },
        {
          "internalType": "uint256[]",
          "name": "weights",
          "type": "uint256[]"
        }
      ],
      "stateMutability": "view",
      "type": "function"
    },
    {
      "inputs": [],
      "name": "getPendingDeposits",
      "outputs": [
        {
          "internalType": "uint256",
          "name": "",
          "type": "uint256"
        }
      ],
      "stateMutability": "view",
      "type": "function"
    },
    {
      "inputs": [],
      "name": "getPendingWithdrawals",
      "outputs": [
        {
          "internalType": "uint256",
          "name": "",
          "type": "uint256"
        }
      ],
      "stateMutability": "view",
      "type": "function"
    },
    {
      "inputs": [],
      "name": "getPortfolio",
      "outputs": [
        {
          "internalType": "address[]",
          "name": "tokens",
          "type": "address[]"
        },
        {
          "internalType": "uint256[]",
          "name": "sharesPerAsset",
          "type": "uint256[]"
        }
      ],
      "stateMutability": "view",
      "type": "function"
    },
    {
      "inputs": [
        {
          "internalType": "address",
          "name": "",
          "type": "address"
        }
      ],
      "name": "maxDeposit",
      "outputs": [
        {
          "internalType": "uint256",
          "name": "",
          "type": "uint256"
        }
      ],
      "stateMutability": "view",
      "type": "function"
    },
    {
      "inputs": [
        {
          "internalType": "address",
          "name": "",
          "type": "address"
        }
      ],
      "name": "maxMint",
      "outputs": [
        {
          "internalType": "uint256",
          "name": "",
          "type": "uint256"
        }
      ],
      "stateMutability": "view",
      "type": "function"
    },
    {
      "inputs": [
        {
          "internalType": "address",
          "name": "owner",
          "type": "address"
        }
      ],
      "name": "maxRedeem",
      "outputs": [
        {
          "internalType": "uint256",
          "name": "",
          "type": "uint256"
        }
      ],
      "stateMutability": "view",
      "type": "function"
    },
    {
      "inputs": [
        {
          "internalType": "address",
          "name": "owner",
          "type": "address"
        }
      ],
      "name": "maxWithdraw",
      "outputs": [
        {
          "internalType": "uint256",
          "name": "",
          "type": "uint256"
        }
      ],
      "stateMutability": "view",
      "type": "function"
    },
    {
      "inputs": [
        {
          "internalType": "uint256",
          "name": "",
          "type": "uint256"
        },
        {
          "internalType": "address",
          "name": "",
          "type": "address"
        }
      ],
      "name": "mint",
      "outputs": [
        {
          "internalType": "uint256",
          "name": "",
          "type": "uint256"
        }
      ],
      "stateMutability": "pure",
      "type": "function"
    },
    {
      "inputs": [],
      "name": "name",
      "outputs": [
        {
          "internalType": "string",
          "name": "",
          "type": "string"
        }
      ],
      "stateMutability": "view",
      "type": "function"
    },
    {
      "inputs": [
        {
          "internalType": "uint256",
          "name": "assets",
          "type": "uint256"
        }
      ],
      "name": "previewDeposit",
      "outputs": [
        {
          "internalType": "uint256",
          "name": "",
          "type": "uint256"
        }
      ],
      "stateMutability": "view",
      "type": "function"
    },
    {
      "inputs": [
        {
          "internalType": "uint256",
          "name": "shares",
          "type": "uint256"
        }
      ],
      "name": "previewMint",
      "outputs": [
        {
          "internalType": "uint256",
          "name": "",
          "type": "uint256"
        }
      ],
      "stateMutability": "view",
      "type": "function"
    },
    {
      "inputs": [
        {
          "internalType": "uint256",
          "name": "shares",
          "type": "uint256"
        }
      ],
      "name": "previewRedeem",
      "outputs": [
        {
          "internalType": "uint256",
          "name": "",
          "type": "uint256"
        }
      ],
      "stateMutability": "view",
      "type": "function"
    },
    {
      "inputs": [
        {
          "internalType": "uint256",
          "name": "assets",
          "type": "uint256"
        }
      ],
      "name": "previewWithdraw",
      "outputs": [
        {
          "internalType": "uint256",
          "name": "",
          "type": "uint256"
        }
      ],
      "stateMutability": "view",
      "type": "function"
    },
    {
      "inputs": [],
      "name": "processDepositRequests",
      "outputs": [],
      "stateMutability": "nonpayable",
      "type": "function"
    },
    {
      "inputs": [],
      "name": "processWithdrawRequests",
      "outputs": [],
      "stateMutability": "nonpayable",
      "type": "function"
    },
    {
      "inputs": [
        {
          "internalType": "uint256",
          "name": "",
          "type": "uint256"
        },
        {
          "internalType": "address",
          "name": "",
          "type": "address"
        },
        {
          "internalType": "address",
          "name": "",
          "type": "address"
        }
      ],
      "name": "redeem",
      "outputs": [
        {
          "internalType": "uint256",
          "name": "",
          "type": "uint256"
        }
      ],
      "stateMutability": "pure",
      "type": "function"
    },
    {
      "inputs": [
        {
          "internalType": "uint256",
          "name": "amount",
          "type": "uint256"
        }
      ],
      "name": "requestDeposit",
      "outputs": [],
      "stateMutability": "nonpayable",
      "type": "function"
    },
    {
      "inputs": [
        {
          "internalType": "uint256",
          "name": "shares",
          "type": "uint256"
        }
      ],
      "name": "requestWithdraw",
      "outputs": [],
      "stateMutability": "nonpayable",
      "type": "function"
    },
    {
      "inputs": [
        {
          "components": [
            {
              "internalType": "address",
              "name": "token",
              "type": "address"
            },
            {
              "internalType": "uint32",
              "name": "value",
              "type": "uint32"
            }
          ],
          "internalType": "struct IOrionTransparentVault.Position[]",
          "name": "order",
          "type": "tuple[]"
        }
      ],
      "name": "submitIntent",
      "outputs": [],
      "stateMutability": "nonpayable",
      "type": "function"
    },
    {
      "inputs": [],
      "name": "symbol",
      "outputs": [
        {
          "internalType": "string",
          "name": "",
          "type": "string"
        }
      ],
      "stateMutability": "view",
      "type": "function"
    },
    {
      "inputs": [],
      "name": "totalAssets",
      "outputs": [
        {
          "internalType": "uint256",
          "name": "",
          "type": "uint256"
        }
      ],
      "stateMutability": "view",
      "type": "function"
    },
    {
      "inputs": [],
      "name": "totalSupply",
      "outputs": [
        {
          "internalType": "uint256",
          "name": "",
          "type": "uint256"
        }
      ],
      "stateMutability": "view",
      "type": "function"
    },
    {
      "inputs": [
        {
          "internalType": "address",
          "name": "to",
          "type": "address"
        },
        {
          "internalType": "uint256",
          "name": "value",
          "type": "uint256"
        }
      ],
      "name": "transfer",
      "outputs": [
        {
          "internalType": "bool",
          "name": "",
          "type": "bool"
        }
      ],
      "stateMutability": "nonpayable",
      "type": "function"
    },
    {
      "inputs": [
        {
          "internalType": "address",
          "name": "from",
          "type": "address"
        },
        {
          "internalType": "address",
          "name": "to",
          "type": "address"
        },
        {
          "internalType": "uint256",
          "name": "value",
          "type": "uint256"
        }
      ],
      "name": "transferFrom",
      "outputs": [
        {
          "internalType": "bool",
          "name": "",
          "type": "bool"
        }
      ],
      "stateMutability": "nonpayable",
      "type": "function"
    },
    {
      "inputs": [
        {
          "internalType": "address",
          "name": "newCurator",
          "type": "address"
        }
      ],
      "name": "updateCurator",
      "outputs": [],
      "stateMutability": "nonpayable",
      "type": "function"
    },
    {
      "inputs": [
        {
          "components": [
            {
              "internalType": "address",
              "name": "token",
              "type": "address"
            },
            {
              "internalType": "uint32",
              "name": "value",
              "type": "uint32"
            }
          ],
          "internalType": "struct IOrionTransparentVault.Position[]",
          "name": "portfolio",
          "type": "tuple[]"
        },
        {
          "internalType": "uint256",
          "name": "newTotalAssets",
          "type": "uint256"
        }
      ],
      "name": "updateVaultState",
      "outputs": [],
      "stateMutability": "nonpayable",
      "type": "function"
    },
    {
      "inputs": [],
      "name": "vaultOwner",
      "outputs": [
        {
          "internalType": "address",
          "name": "",
          "type": "address"
        }
      ],
      "stateMutability": "view",
      "type": "function"
    },
    {
      "inputs": [
        {
          "internalType": "uint256",
          "name": "",
          "type": "uint256"
        },
        {
          "internalType": "address",
          "name": "",
          "type": "address"
        },
        {
          "internalType": "address",
          "name": "",
          "type": "address"
        }
      ],
      "name": "withdraw",
      "outputs": [
        {
          "internalType": "uint256",
          "name": "",
          "type": "uint256"
        }
      ],
      "stateMutability": "pure",
      "type": "function"
    }
  ],
  "bytecode": "0x60c060405234801561000f575f5ffd5b5060405161306b38038061306b83398101604081905261002e9161041e565b8484848484826001600160a01b0316637158da7c6040518163ffffffff1660e01b8152600401602060405180830381865afa15801561006f573d5f5f3e3d5ffd5b505050506040513d601f19601f8201168201806040525081019061009391906104bc565b828260036100a18382610562565b5060046100ae8282610562565b5050505f5f6100c28361029460201b60201c565b91509150816100d25760126100d4565b805b60ff1660a05250506001600160a01b039081166080526001600555841661010e5760405163e6c4247b60e01b815260040160405180910390fd5b6001600160a01b0383166101355760405163e6c4247b60e01b815260040160405180910390fd5b600780546001600160a01b038088166001600160a01b031992831617909255600880548784169083161790556006805492861692909116821790555f60098190556010819055601181905560408051631c56369f60e21b81529051919291637158da7c916004808201926020929091908290030181865afa1580156101bc573d5f5f3e3d5ffd5b505050506040513d601f19601f820116820180604052508101906101e091906104bc565b6001600160a01b031663313ce5676040518163ffffffff1660e01b8152600401602060405180830381865afa15801561021b573d5f5f3e3d5ffd5b505050506040513d601f19601f8201168201806040525081019061023f919061061c565b905060128160ff16111561026657604051631c03248960e11b815260040160405180910390fd5b5f610272826012610650565b905061027f81600a610752565b6012555061078d9a5050505050505050505050565b60408051600481526024810182526020810180516001600160e01b031663313ce56760e01b17905290515f918291829182916001600160a01b038716916102da91610760565b5f60405180830381855afa9150503d805f8114610312576040519150601f19603f3d011682016040523d82523d5f602084013e610317565b606091505b509150915081801561032b57506020815110155b1561035e575f818060200190518101906103459190610776565b905060ff811161035c576001969095509350505050565b505b505f9485945092505050565b6001600160a01b038116811461037e575f5ffd5b50565b634e487b7160e01b5f52604160045260245ffd5b5f82601f8301126103a4575f5ffd5b81516001600160401b038111156103bd576103bd610381565b604051601f8201601f19908116603f011681016001600160401b03811182821017156103eb576103eb610381565b604052818152838201602001851015610402575f5ffd5b8160208501602083015e5f918101602001919091529392505050565b5f5f5f5f5f60a08688031215610432575f5ffd5b855161043d8161036a565b602087015190955061044e8161036a565b604087015190945061045f8161036a565b60608701519093506001600160401b0381111561047a575f5ffd5b61048688828901610395565b608088015190935090506001600160401b038111156104a3575f5ffd5b6104af88828901610395565b9150509295509295909350565b5f602082840312156104cc575f5ffd5b81516104d78161036a565b9392505050565b600181811c908216806104f257607f821691505b60208210810361051057634e487b7160e01b5f52602260045260245ffd5b50919050565b601f82111561055d57805f5260205f20601f840160051c8101602085101561053b5750805b601f840160051c820191505b8181101561055a575f8155600101610547565b50505b505050565b81516001600160401b0381111561057b5761057b610381565b61058f8161058984546104de565b84610516565b6020601f8211600181146105c1575f83156105aa5750848201515b5f19600385901b1c1916600184901b17845561055a565b5f84815260208120601f198516915b828110156105f057878501518255602094850194600190920191016105d0565b508482101561060d57868401515f19600387901b60f8161c191681555b50505050600190811b01905550565b5f6020828403121561062c575f5ffd5b815160ff811681146104d7575f5ffd5b634e487b7160e01b5f52601160045260245ffd5b60ff82811682821603908111156106695761066961063c565b92915050565b6001815b60018411156106aa5780850481111561068e5761068e61063c565b600184161561069c57908102905b60019390931c928002610673565b935093915050565b5f826106c057506001610669565b816106cc57505f610669565b81600181146106e257600281146106ec57610708565b6001915050610669565b60ff8411156106fd576106fd61063c565b50506001821b610669565b5060208310610133831016604e8410600b841016171561072b575081810a610669565b6107375f19848461066f565b805f190482111561074a5761074a61063c565b029392505050565b5f6104d760ff8416836106b2565b5f82518060208501845e5f920191825250919050565b5f60208284031215610786575f5ffd5b5051919050565b60805160a0516128bd6107ae5f395f6109b801525f610c6301526128bd5ff3fe608060405234801561000f575f5ffd5b50600436106101ec575f3560e01c806301e1d114146101f057806306fdde031461020757806307a2d13a1461021c578063095ea7b31461022f5780630a28a477146102525780630c6a62dd146102655780630d1e66671461027a578063105444941461028d57806318160ddd146102a05780631f52692b146102a857806323b872dd146102c8578063313ce567146102db57806333fdc592146102f557806338d52e0f146102fd578063402d267d146103055780634cdad5061461021c5780636e553f651461031957806370a082311461032c578063745400c91461033f57806379502c551461035257806394bf804d1461031957806395d89b4114610365578063a68a52671461036d578063a9059cbb14610380578063aa9d3a6014610393578063b1bd7e2e1461039b578063b3d7f6b9146103ae578063b460af94146103c1578063b6eba653146103cf578063ba087652146103c1578063c0b568e1146103e5578063c37fc8a8146103f8578063c63d75b614610305578063c6e6f59214610400578063cce4705b14610413578063ce96cb7714610426578063d1699c2614610439578063d3d0345814610441578063d905777e14610449578063dd62ed3e1461045c578063e66f53b71461046f578063ef8b30f714610400575b5f5ffd5b6009545b6040519081526020015b60405180910390f35b61020f610482565b6040516101fe919061227c565b6101f461022a3660046122b1565b610512565b61024261023d3660046122dc565b610523565b60405190151581526020016101fe565b6101f46102603660046122b1565b61053a565b610278610273366004612306565b610546565b005b6102786102883660046122b1565b6105ba565b61027861029b366004612361565b61081e565b6002546101f4565b6007546102bb906001600160a01b031681565b6040516101fe91906123a8565b6102426102d63660046123bc565b61098c565b6102e36109b1565b60405160ff90911681526020016101fe565b6102786109e1565b6102bb610c61565b6101f4610313366004612306565b505f1990565b6101f46103273660046123fa565b610c85565b6101f461033a366004612306565b610c9f565b61027861034d3660046122b1565b610cb9565b6006546102bb906001600160a01b031681565b61020f610e7b565b6101f461037b366004612428565b610e8a565b61024261038e3660046122dc565b610ec4565b610278610ed1565b6102786103a9366004612461565b6111ee565b6101f46103bc3660046122b1565b61147f565b6101f461032736600461249f565b6103d761148b565b6040516101fe9291906124d3565b6102786103f33660046122b1565b61159f565b6011546101f4565b6101f461040e3660046122b1565b611741565b6102786104213660046122b1565b61174c565b6101f4610434366004612306565b6118f1565b6010546101f4565b6103d7611904565b6101f4610457366004612306565b611a12565b6101f461046a36600461255c565b611a1c565b6008546102bb906001600160a01b031681565b60606003805461049190612588565b80601f01602080910402602001604051908101604052809291908181526020018280546104bd90612588565b80156105085780601f106104df57610100808354040283529160200191610508565b820191905f5260205f20905b8154815290600101906020018083116104eb57829003601f168201915b5050505050905090565b5f61051d825f611a46565b92915050565b5f33610530818585611a54565b5060019392505050565b5f61051d826001611a66565b6007546001600160a01b0316331461057157604051631a27eac360e11b815260040160405180910390fd5b6001600160a01b0381166105985760405163e6c4247b60e01b815260040160405180910390fd5b600880546001600160a01b0319166001600160a01b0392909216919091179055565b6105c2611aa3565b805f036105f4576105d1610c61565b604051636b30633560e01b81526004016105eb91906123a8565b60405180910390fd5b5f6105fd610c61565b6001600160a01b03166370a08231336040518263ffffffff1660e01b815260040161062891906123a8565b602060405180830381865afa158015610643573d5f5f3e3d5ffd5b505050506040513d601f19601f8201168201806040525081019061066791906125c0565b90508082111561069057338183604051632e2a182f60e11b81526004016105eb939291906125d7565b5f610699610c61565b6001600160a01b03166323b872dd3360065f9054906101000a90046001600160a01b03166001600160a01b0316633a0dad8e6040518163ffffffff1660e01b8152600401602060405180830381865afa1580156106f8573d5f5f3e3d5ffd5b505050506040513d601f19601f8201168201806040525081019061071c91906125f8565b866040518463ffffffff1660e01b815260040161073b93929190612613565b6020604051808303815f875af1158015610757573d5f5f3e3d5ffd5b505050506040513d601f19601f8201168201806040525081019061077b9190612637565b90508061079b576040516312171d8360e31b815260040160405180910390fd5b5f6107a7600a33611acd565b91506107c29050336107b9868461266a565b600a9190611af3565b508360105f8282546107d4919061266a565b909155505060405184815233907f08d79f77ab5f78e7e780abb1f7ac9e9923340d5bae78f6e83e7999905b248ea29060200160405180910390a250505061081b6001600555565b50565b60065f9054906101000a90046001600160a01b03166001600160a01b0316633a0dad8e6040518163ffffffff1660e01b8152600401602060405180830381865afa15801561086e573d5f5f3e3d5ffd5b505050506040513d601f19601f8201168201806040525081019061089291906125f8565b6001600160a01b0316336001600160a01b0316146108c357604051631a27eac360e11b815260040160405180910390fd5b6108cd6013611b08565b815f5b8181101561094d576109448585838181106108ed576108ed61267d565b6109039260206040909202019081019150612306565b8686848181106109155761091561267d565b905060400201602001602081019061092d9190612691565b63ffffffff166013611af39092919063ffffffff16565b506001016108d0565b5060098290556040518281527f5e1ff954b5e5257e9ee5d4cb07059e8f5e69b1aaaf9911e5d8d90a6894de9c219060200160405180910390a150505050565b5f33610999858285611b11565b6109a4858585611b62565b60019150505b9392505050565b5f6109dc817f00000000000000000000000000000000000000000000000000000000000000006126b4565b905090565b60065f9054906101000a90046001600160a01b03166001600160a01b0316633a0dad8e6040518163ffffffff1660e01b8152600401602060405180830381865afa158015610a31573d5f5f3e3d5ffd5b505050506040513d601f19601f82011682018060405250810190610a5591906125f8565b6001600160a01b0316336001600160a01b031614610a8657604051631a27eac360e11b815260040160405180910390fd5b610a8e611aa3565b5f610a99600a611bbf565b90505f816001600160401b03811115610ab457610ab46126cd565b604051908082528060200260200182016040528015610add578160200160208202803683370190505b5090505f826001600160401b03811115610af957610af96126cd565b604051908082528060200260200182016040528015610b22578160200160208202803683370190505b5090505f5b83811015610b9b575f80610b3c600a84611bc9565b9150915081858481518110610b5357610b5361267d565b60200260200101906001600160a01b031690816001600160a01b03168152505080848481518110610b8657610b8661267d565b60209081029190910101525050600101610b27565b505f5b83811015610c50575f838281518110610bb957610bb961267d565b602002602001015190505f838381518110610bd657610bd661267d565b602002602001015190505f610bea82611741565b9050610bf7600a84611bd7565b50610c028382611beb565b826001600160a01b03167f85a190caa61692b36b63a55e069330d18ab9af179fed7a25c16a4262bc63b7d283604051610c3d91815260200190565b60405180910390a2505050600101610b9e565b50505f60105550506001600555565b565b7f000000000000000000000000000000000000000000000000000000000000000090565b5f60405163125ad87760e31b815260040160405180910390fd5b6001600160a01b03165f9081526020819052604090205490565b805f03610cdb5730604051636b30633560e01b81526004016105eb91906123a8565b5f610ce533610c9f565b905080821115610d0e57338183604051632e2a182f60e11b81526004016105eb939291906125d7565b60065460408051631d06d6c760e11b815290515f9230926323b872dd9233926001600160a01b031691633a0dad8e9160048083019260209291908290030181865afa158015610d5f573d5f5f3e3d5ffd5b505050506040513d601f19601f82011682018060405250810190610d8391906125f8565b866040518463ffffffff1660e01b8152600401610da293929190612613565b6020604051808303815f875af1158015610dbe573d5f5f3e3d5ffd5b505050506040513d601f19601f82011682018060405250810190610de29190612637565b905080610e02576040516312171d8360e31b815260040160405180910390fd5b5f610e0e600d33611acd565b9150610e29905033610e20868461266a565b600d9190611af3565b508360115f828254610e3b919061266a565b909155505060405184815233907ff7774b688d56120b783560a913ee60792a73dfd511812b7be5eccf10d08c66899060200160405180910390a250505050565b60606004805461049190612588565b5f5f610e9560025490565b9050610ebb610ea585600161266a565b601254610eb2908461266a565b87919086611c23565b95945050505050565b5f33610530818585611b62565b60065f9054906101000a90046001600160a01b03166001600160a01b0316633a0dad8e6040518163ffffffff1660e01b8152600401602060405180830381865afa158015610f21573d5f5f3e3d5ffd5b505050506040513d601f19601f82011682018060405250810190610f4591906125f8565b6001600160a01b0316336001600160a01b031614610f7657604051631a27eac360e11b815260040160405180910390fd5b610f7e611aa3565b5f610f89600d611bbf565b90505f816001600160401b03811115610fa457610fa46126cd565b604051908082528060200260200182016040528015610fcd578160200160208202803683370190505b5090505f826001600160401b03811115610fe957610fe96126cd565b604051908082528060200260200182016040528015611012578160200160208202803683370190505b5090505f5b8381101561108b575f8061102c600d84611bc9565b91509150818584815181106110435761104361267d565b60200260200101906001600160a01b031690816001600160a01b031681525050808484815181106110765761107661267d565b60209081029190910101525050600101611017565b505f60118190555b838110156111e0575f8382815181106110ae576110ae61267d565b602002602001015190505f8383815181106110cb576110cb61267d565b602002602001015190506110e982600d611bd790919063ffffffff16565b506110f43082611c65565b5f6110fe82610512565b9050611108610c61565b6001600160a01b031663a9059cbb84836040518363ffffffff1660e01b81526004016111359291906126e1565b6020604051808303815f875af1158015611151573d5f5f3e3d5ffd5b505050506040513d601f19601f820116820180604052508101906111759190612637565b611192576040516312171d8360e31b815260040160405180910390fd5b826001600160a01b03167f44b2ff9ffcefe2052a8afdbed44a04bf3db4592ae90c6b96c818bd28573e41e8836040516111cd91815260200190565b60405180910390a2505050600101611093565b50505050610c5f6001600555565b6008546001600160a01b0316331461121957604051631a27eac360e11b815260040160405180910390fd5b5f81900361123a57604051631121aa8d60e01b815260040160405180910390fd5b6112446016611b08565b5f81815b818110156113b6575f8585838181106112635761126361267d565b6112799260206040909202019081019150612306565b90505f86868481811061128e5761128e61267d565b90506040020160200160208101906112a69190612691565b600654604051633af32abf60e01b81529192506001600160a01b031690633af32abf906112d79085906004016123a8565b602060405180830381865afa1580156112f2573d5f5f3e3d5ffd5b505050506040513d601f19601f820116820180604052508101906113169190612637565b611335578160405163751dff9760e11b81526004016105eb91906123a8565b8063ffffffff165f0361135d5781604051636b30633560e01b81526004016105eb91906123a8565b5f61137360168463ffffffff80861690611af316565b90508061139557826040516346bdabe160e01b81526004016105eb91906123a8565b6113a563ffffffff83168761266a565b955050600190920191506112489050565b506006546040805163d1717c7d60e01b815290515f926001600160a01b03169163d1717c7d9160048083019260209291908290030181865afa1580156113fe573d5f5f3e3d5ffd5b505050506040513d601f19601f8201168201806040525081019061142291906126fa565b905061142f81600a6127fd565b831461144e57604051639006dd2760e01b815260040160405180910390fd5b60405133907f2d47a742b8d7df7c1fc5a9a631b206b364e6cb2722490759f63bb3ab14b132e0905f90a25050505050565b5f61051d826001611a46565b6060805f6114996016611bbf565b9050806001600160401b038111156114b3576114b36126cd565b6040519080825280602002602001820160405280156114dc578160200160208202803683370190505b509250806001600160401b038111156114f7576114f76126cd565b604051908082528060200260200182016040528015611520578160200160208202803683370190505b5091505f5b81811015611599575f8061153a601684611bc9565b91509150818684815181106115515761155161267d565b60200260200101906001600160a01b031690816001600160a01b031681525050808584815181106115845761158461267d565b60209081029190910101525050600101611525565b50509091565b6115a7611aa3565b805f036115b6576105d1610c61565b5f6115c2600a33611acd565b915050818110156115e6576040516332194fd360e21b815260040160405180910390fd5b60065f9054906101000a90046001600160a01b03166001600160a01b0316633a0dad8e6040518163ffffffff1660e01b8152600401602060405180830381865afa158015611636573d5f5f3e3d5ffd5b505050506040513d601f19601f8201168201806040525081019061165a91906125f8565b6001600160a01b03166351edffb133846040518363ffffffff1660e01b81526004016116879291906126e1565b5f604051808303815f87803b15801561169e575f5ffd5b505af11580156116b0573d5f5f3e3d5ffd5b505050505f82826116c1919061280b565b9050805f036116db576116d5600a33611bd7565b506116e9565b6116e7600a3383611af3565b505b8260105f8282546116fa919061280b565b909155505060405183815233907f96a9a6886cdf3047a125454218a23d3961fd3a78643123b248a9d106d0ac94fd906020015b60405180910390a2505061081b6001600555565b5f61051d825f611a66565b611754611aa3565b805f036117765730604051636b30633560e01b81526004016105eb91906123a8565b5f611782600d33611acd565b915050818110156117a6576040516312ea1f4960e11b815260040160405180910390fd5b60065f9054906101000a90046001600160a01b03166001600160a01b0316633a0dad8e6040518163ffffffff1660e01b8152600401602060405180830381865afa1580156117f6573d5f5f3e3d5ffd5b505050506040513d601f19601f8201168201806040525081019061181a91906125f8565b6001600160a01b031663be186b2033846040518363ffffffff1660e01b81526004016118479291906126e1565b5f604051808303815f87803b15801561185e575f5ffd5b505af1158015611870573d5f5f3e3d5ffd5b505050505f8282611881919061280b565b9050805f0361189b57611895600d33611bd7565b506118a9565b6118a7600d3383611af3565b505b8260115f8282546118ba919061280b565b909155505060405183815233907f9cf37535785001dcc9767688232fcbc8698b3002d1207b50bc2afec3ff8934dc9060200161172d565b5f61051d6118fe83610c9f565b5f611a46565b6060805f6119126013611bbf565b9050806001600160401b0381111561192c5761192c6126cd565b604051908082528060200260200182016040528015611955578160200160208202803683370190505b509250806001600160401b03811115611970576119706126cd565b604051908082528060200260200182016040528015611999578160200160208202803683370190505b5091505f5b81811015611599575f806119b3601384611bc9565b91509150818684815181106119ca576119ca61267d565b60200260200101906001600160a01b031690816001600160a01b031681525050808584815181106119fd576119fd61267d565b6020908102919091010152505060010161199e565b5f61051d82610c9f565b6001600160a01b039182165f90815260016020908152604080832093909416825291909152205490565b5f6109aa8360095484610e8a565b611a618383836001611c99565b505050565b5f5f611a7160025490565b9050611a9b60125482611a84919061266a565b600954611a9290600161266a565b86919086611c23565b949350505050565b600260055403611ac657604051633ee5aeb560e01b815260040160405180910390fd5b6002600555565b5f808080611ae4866001600160a01b038716611d6b565b909450925050505b9250929050565b5f611a9b846001600160a01b03851684611da3565b61081b81611dbf565b5f611b1c8484611a1c565b90505f19811015611b5c5781811015611b4e57828183604051637dc7a0d960e11b81526004016105eb939291906125d7565b611b5c84848484035f611c99565b50505050565b6001600160a01b038316611b8b575f604051634b637e8f60e11b81526004016105eb91906123a8565b6001600160a01b038216611bb4575f60405163ec442f0560e01b81526004016105eb91906123a8565b611a61838383611e08565b5f61051d82611f1b565b5f808080611ae48686611f25565b5f6109aa836001600160a01b038416611f4e565b6001600160a01b038216611c14575f60405163ec442f0560e01b81526004016105eb91906123a8565b611c1f5f8383611e08565b5050565b5f611c50611c3083611f6a565b8015611c4b57505f8480611c4657611c4661281e565b868809115b151590565b611c5b868686611f96565b610ebb919061266a565b6001600160a01b038216611c8e575f604051634b637e8f60e11b81526004016105eb91906123a8565b611c1f825f83611e08565b6001600160a01b038416611cc2575f60405163e602df0560e01b81526004016105eb91906123a8565b6001600160a01b038316611ceb575f604051634a1406b160e11b81526004016105eb91906123a8565b6001600160a01b038085165f9081526001602090815260408083209387168352929052208290558015611b5c57826001600160a01b0316846001600160a01b03167f8c5be1e5ebec7d5bd14f71427d1e84f3dd0314c0f7b2291e5b200ac8c7c3b92584604051611d5d91815260200190565b60405180910390a350505050565b5f818152600283016020526040812054819080611d9857611d8c8585612046565b92505f9150611aec9050565b600192509050611aec565b5f8281526002840160205260408120829055611a9b8484612051565b5f611dc982611f1b565b90505f5b81811015611dfe57600283015f611de4858461205c565b815260208101919091526040015f90812055600101611dcd565b50611c1f82612067565b6001600160a01b038316611e32578060025f828254611e27919061266a565b90915550611e8f9050565b6001600160a01b0383165f9081526020819052604090205481811015611e715783818360405163391434e360e21b81526004016105eb939291906125d7565b6001600160a01b0384165f9081526020819052604090209082900390555b6001600160a01b038216611eab57600280548290039055611ec9565b6001600160a01b0382165f9081526020819052604090208054820190555b816001600160a01b0316836001600160a01b03167fddf252ad1be2c89b69c2b068fc378daa952ba7f163c4a11628f55a4df523b3ef83604051611f0e91815260200190565b60405180910390a3505050565b5f61051d82612070565b5f8080611f32858561205c565b5f81815260029690960160205260409095205494959350505050565b5f81815260028301602052604081208190556109aa8383612079565b5f6002826003811115611f7f57611f7f612832565b611f899190612846565b60ff166001149050919050565b5f5f5f611fa38686612084565b91509150815f03611fc757838181611fbd57611fbd61281e565b04925050506109aa565b818411611fde57611fde60038515026011186120a0565b5f848688095f868103871696879004966002600389028118808a02820302808a02820302808a02820302808a02820302808a02820302808a02909103029181900381900460010185841190960395909502919093039390930492909217029150509392505050565b5f6109aa83836120b1565b5f6109aa83836120bc565b5f6109aa8383612103565b61081b81612129565b5f61051d825490565b5f6109aa8383612182565b5f805f1983850993909202808410938190039390930393915050565b634e487b715f52806020526024601cfd5b5f6109aa8383612265565b5f6120c78383612265565b6120fc57508154600181810184555f84815260208082209093018490558454848252828601909352604090209190915561051d565b505f61051d565b5f825f0182815481106121185761211861267d565b905f5260205f200154905092915050565b5f612132825490565b90505f5b8181101561217b57826001015f845f0183815481106121575761215761267d565b905f5260205f20015481526020019081526020015f205f9055806001019050612136565b50505f9055565b5f818152600183016020526040812054801561225c575f6121a460018361280b565b85549091505f906121b79060019061280b565b9050808214612216575f865f0182815481106121d5576121d561267d565b905f5260205f200154905080875f0184815481106121f5576121f561267d565b5f918252602080832090910192909255918252600188019052604090208390555b855486908061222757612227612873565b600190038181905f5260205f20015f90559055856001015f8681526020019081526020015f205f90556001935050505061051d565b5f91505061051d565b5f9081526001919091016020526040902054151590565b602081525f82518060208401528060208501604085015e5f604082850101526040601f19601f83011684010191505092915050565b5f602082840312156122c1575f5ffd5b5035919050565b6001600160a01b038116811461081b575f5ffd5b5f5f604083850312156122ed575f5ffd5b82356122f8816122c8565b946020939093013593505050565b5f60208284031215612316575f5ffd5b81356109aa816122c8565b5f5f83601f840112612331575f5ffd5b5081356001600160401b03811115612347575f5ffd5b6020830191508360208260061b8501011115611aec575f5ffd5b5f5f5f60408486031215612373575f5ffd5b83356001600160401b03811115612388575f5ffd5b61239486828701612321565b909790965060209590950135949350505050565b6001600160a01b0391909116815260200190565b5f5f5f606084860312156123ce575f5ffd5b83356123d9816122c8565b925060208401356123e9816122c8565b929592945050506040919091013590565b5f5f6040838503121561240b575f5ffd5b82359150602083013561241d816122c8565b809150509250929050565b5f5f5f6060848603121561243a575f5ffd5b8335925060208401359150604084013560048110612456575f5ffd5b809150509250925092565b5f5f60208385031215612472575f5ffd5b82356001600160401b03811115612487575f5ffd5b61249385828601612321565b90969095509350505050565b5f5f5f606084860312156124b1575f5ffd5b8335925060208401356124c3816122c8565b91506040840135612456816122c8565b604080825283519082018190525f9060208501906060840190835b818110156125155783516001600160a01b03168352602093840193909201916001016124ee565b5050838103602080860191909152855180835291810192508501905f5b81811015612550578251845260209384019390920191600101612532565b50919695505050505050565b5f5f6040838503121561256d575f5ffd5b8235612578816122c8565b9150602083013561241d816122c8565b600181811c9082168061259c57607f821691505b6020821081036125ba57634e487b7160e01b5f52602260045260245ffd5b50919050565b5f602082840312156125d0575f5ffd5b5051919050565b6001600160a01b039390931683526020830191909152604082015260600190565b5f60208284031215612608575f5ffd5b81516109aa816122c8565b6001600160a01b039384168152919092166020820152604081019190915260600190565b5f60208284031215612647575f5ffd5b815180151581146109aa575f5ffd5b634e487b7160e01b5f52601160045260245ffd5b8082018082111561051d5761051d612656565b634e487b7160e01b5f52603260045260245ffd5b5f602082840312156126a1575f5ffd5b813563ffffffff811681146109aa575f5ffd5b60ff818116838216019081111561051d5761051d612656565b634e487b7160e01b5f52604160045260245ffd5b6001600160a01b03929092168252602082015260400190565b5f6020828403121561270a575f5ffd5b815160ff811681146109aa575f5ffd5b6001815b60018411156127555780850481111561273957612739612656565b600184161561274757908102905b60019390931c92800261271e565b935093915050565b5f8261276b5750600161051d565b8161277757505f61051d565b816001811461278d5760028114612797576127b3565b600191505061051d565b60ff8411156127a8576127a8612656565b50506001821b61051d565b5060208310610133831016604e8410600b84101617156127d6575081810a61051d565b6127e25f19848461271a565b805f19048211156127f5576127f5612656565b029392505050565b5f6109aa60ff84168361275d565b8181038181111561051d5761051d612656565b634e487b7160e01b5f52601260045260245ffd5b634e487b7160e01b5f52602160045260245ffd5b5f60ff83168061286457634e487b7160e01b5f52601260045260245ffd5b8060ff84160691505092915050565b634e487b7160e01b5f52603160045260245ffdfea264697066735822122081f246cabf1f205c90f84b2d2aee32bef021afa04abdeb5836cb09cd5b710d8264736f6c634300081c0033",
  "linkReferences": {},
  "deployedLinkReferences": {}
}