{
  "_format": "hh-sol-artifact-1",
  "contractName": "OrionTransparentVault",
  "sourceName": "contracts/vaults/OrionTransparentVault.sol",
  "abi": [
    {
      "inputs": [
        {
          "internalType": "address",
          "name": "vaultOwner",
          "type": "address"
        },
        {
          "internalType": "address",
          "name": "curator",
          "type": "address"
        },
        {
          "internalType": "contract IOrionConfig",
          "name": "configAddress",
          "type": "address"
        },
        {
          "internalType": "string",
          "name": "name",
          "type": "string"
        },
        {
          "internalType": "string",
          "name": "symbol",
          "type": "string"
        },
        {
          "internalType": "uint8",
          "name": "feeType",
          "type": "uint8"
        },
        {
          "internalType": "uint16",
          "name": "performanceFee",
          "type": "uint16"
        },
        {
          "internalType": "uint16",
          "name": "managementFee",
          "type": "uint16"
        }
      ],
      "stateMutability": "nonpayable",
      "type": "constructor"
    },
    {
      "inputs": [],
      "name": "AlreadyRegistered",
      "type": "error"
    },
    {
      "inputs": [
        {
          "internalType": "address",
          "name": "asset",
          "type": "address"
        }
      ],
      "name": "AmountMustBeGreaterThanZero",
      "type": "error"
    },
    {
      "inputs": [
        {
          "internalType": "address",
          "name": "spender",
          "type": "address"
        },
        {
          "internalType": "uint256",
          "name": "allowance",
          "type": "uint256"
        },
        {
          "internalType": "uint256",
          "name": "needed",
          "type": "uint256"
        }
      ],
      "name": "ERC20InsufficientAllowance",
      "type": "error"
    },
    {
      "inputs": [
        {
          "internalType": "address",
          "name": "sender",
          "type": "address"
        },
        {
          "internalType": "uint256",
          "name": "balance",
          "type": "uint256"
        },
        {
          "internalType": "uint256",
          "name": "needed",
          "type": "uint256"
        }
      ],
      "name": "ERC20InsufficientBalance",
      "type": "error"
    },
    {
      "inputs": [
        {
          "internalType": "address",
          "name": "approver",
          "type": "address"
        }
      ],
      "name": "ERC20InvalidApprover",
      "type": "error"
    },
    {
      "inputs": [
        {
          "internalType": "address",
          "name": "receiver",
          "type": "address"
        }
      ],
      "name": "ERC20InvalidReceiver",
      "type": "error"
    },
    {
      "inputs": [
        {
          "internalType": "address",
          "name": "sender",
          "type": "address"
        }
      ],
      "name": "ERC20InvalidSender",
      "type": "error"
    },
    {
      "inputs": [
        {
          "internalType": "address",
          "name": "spender",
          "type": "address"
        }
      ],
      "name": "ERC20InvalidSpender",
      "type": "error"
    },
    {
      "inputs": [
        {
          "internalType": "address",
          "name": "receiver",
          "type": "address"
        },
        {
          "internalType": "uint256",
          "name": "assets",
          "type": "uint256"
        },
        {
          "internalType": "uint256",
          "name": "max",
          "type": "uint256"
        }
      ],
      "name": "ERC4626ExceededMaxDeposit",
      "type": "error"
    },
    {
      "inputs": [
        {
          "internalType": "address",
          "name": "receiver",
          "type": "address"
        },
        {
          "internalType": "uint256",
          "name": "shares",
          "type": "uint256"
        },
        {
          "internalType": "uint256",
          "name": "max",
          "type": "uint256"
        }
      ],
      "name": "ERC4626ExceededMaxMint",
      "type": "error"
    },
    {
      "inputs": [
        {
          "internalType": "address",
          "name": "owner",
          "type": "address"
        },
        {
          "internalType": "uint256",
          "name": "shares",
          "type": "uint256"
        },
        {
          "internalType": "uint256",
          "name": "max",
          "type": "uint256"
        }
      ],
      "name": "ERC4626ExceededMaxRedeem",
      "type": "error"
    },
    {
      "inputs": [
        {
          "internalType": "address",
          "name": "owner",
          "type": "address"
        },
        {
          "internalType": "uint256",
          "name": "assets",
          "type": "uint256"
        },
        {
          "internalType": "uint256",
          "name": "max",
          "type": "uint256"
        }
      ],
      "name": "ERC4626ExceededMaxWithdraw",
      "type": "error"
    },
    {
      "inputs": [],
      "name": "InsufficientAmount",
      "type": "error"
    },
    {
      "inputs": [],
      "name": "InvalidAddress",
      "type": "error"
    },
    {
      "inputs": [],
      "name": "InvalidArguments",
      "type": "error"
    },
    {
      "inputs": [],
      "name": "InvalidCuratorContract",
      "type": "error"
    },
    {
      "inputs": [],
      "name": "InvalidTotalWeight",
      "type": "error"
    },
    {
      "inputs": [],
      "name": "InvalidUnderlyingDecimals",
      "type": "error"
    },
    {
      "inputs": [],
      "name": "OrderIntentCannotBeEmpty",
      "type": "error"
    },
    {
      "inputs": [],
      "name": "ReentrancyGuardReentrantCall",
      "type": "error"
    },
    {
      "inputs": [],
      "name": "SynchronousCallDisabled",
      "type": "error"
    },
    {
      "inputs": [],
      "name": "SystemNotIdle",
      "type": "error"
    },
    {
      "inputs": [
        {
          "internalType": "address",
          "name": "token",
          "type": "address"
        }
      ],
      "name": "TokenAlreadyInOrder",
      "type": "error"
    },
    {
      "inputs": [
        {
          "internalType": "address",
          "name": "token",
          "type": "address"
        }
      ],
      "name": "TokenNotWhitelisted",
      "type": "error"
    },
    {
      "inputs": [],
      "name": "TransferFailed",
      "type": "error"
    },
    {
      "inputs": [],
      "name": "UnauthorizedAccess",
      "type": "error"
    },
    {
      "anonymous": false,
      "inputs": [
        {
          "indexed": true,
          "internalType": "address",
          "name": "owner",
          "type": "address"
        },
        {
          "indexed": true,
          "internalType": "address",
          "name": "spender",
          "type": "address"
        },
        {
          "indexed": false,
          "internalType": "uint256",
          "name": "value",
          "type": "uint256"
        }
      ],
      "name": "Approval",
      "type": "event"
    },
    {
      "anonymous": false,
      "inputs": [
        {
          "indexed": true,
          "internalType": "uint256",
          "name": "epoch",
          "type": "uint256"
        },
        {
          "indexed": true,
          "internalType": "uint256",
          "name": "feeAmount",
          "type": "uint256"
        },
        {
          "indexed": true,
          "internalType": "uint256",
          "name": "pendingCuratorFees",
          "type": "uint256"
        }
      ],
      "name": "CuratorFeesAccrued",
      "type": "event"
    },
    {
      "anonymous": false,
      "inputs": [
        {
          "indexed": true,
          "internalType": "address",
          "name": "newCurator",
          "type": "address"
        }
      ],
      "name": "CuratorUpdated",
      "type": "event"
    },
    {
      "anonymous": false,
      "inputs": [
        {
          "indexed": true,
          "internalType": "address",
          "name": "sender",
          "type": "address"
        },
        {
          "indexed": true,
          "internalType": "address",
          "name": "owner",
          "type": "address"
        },
        {
          "indexed": false,
          "internalType": "uint256",
          "name": "assets",
          "type": "uint256"
        },
        {
          "indexed": false,
          "internalType": "uint256",
          "name": "shares",
          "type": "uint256"
        }
      ],
      "name": "Deposit",
      "type": "event"
    },
    {
      "anonymous": false,
      "inputs": [
        {
          "indexed": true,
          "internalType": "address",
          "name": "vault",
          "type": "address"
        },
        {
          "indexed": true,
          "internalType": "address",
          "name": "user",
          "type": "address"
        },
        {
          "indexed": true,
          "internalType": "uint256",
          "name": "epoch",
          "type": "uint256"
        },
        {
          "indexed": false,
          "internalType": "uint256",
          "name": "depositAmount",
          "type": "uint256"
        },
        {
          "indexed": false,
          "internalType": "uint256",
          "name": "sharesMinted",
          "type": "uint256"
        }
      ],
      "name": "Deposit",
      "type": "event"
    },
    {
      "anonymous": false,
      "inputs": [
        {
          "indexed": true,
          "internalType": "address",
          "name": "sender",
          "type": "address"
        },
        {
          "indexed": true,
          "internalType": "uint256",
          "name": "assets",
          "type": "uint256"
        }
      ],
      "name": "DepositRequest",
      "type": "event"
    },
    {
      "anonymous": false,
      "inputs": [
        {
          "indexed": true,
          "internalType": "address",
          "name": "user",
          "type": "address"
        },
        {
          "indexed": true,
          "internalType": "uint256",
          "name": "amount",
          "type": "uint256"
        }
      ],
      "name": "DepositRequestCancelled",
      "type": "event"
    },
    {
      "anonymous": false,
      "inputs": [
        {
          "indexed": true,
          "internalType": "uint8",
          "name": "mode",
          "type": "uint8"
        },
        {
          "indexed": true,
          "internalType": "uint16",
          "name": "performanceFee",
          "type": "uint16"
        },
        {
          "indexed": true,
          "internalType": "uint16",
          "name": "managementFee",
          "type": "uint16"
        }
      ],
      "name": "FeeModelUpdated",
      "type": "event"
    },
    {
      "anonymous": false,
      "inputs": [
        {
          "indexed": true,
          "internalType": "address",
          "name": "curator",
          "type": "address"
        }
      ],
      "name": "OrderSubmitted",
      "type": "event"
    },
    {
      "anonymous": false,
      "inputs": [
        {
          "indexed": true,
          "internalType": "address",
          "name": "vault",
          "type": "address"
        },
        {
          "indexed": true,
          "internalType": "address",
          "name": "user",
          "type": "address"
        },
        {
          "indexed": true,
          "internalType": "uint256",
          "name": "epoch",
          "type": "uint256"
        },
        {
          "indexed": false,
          "internalType": "uint256",
          "name": "redeemAmount",
          "type": "uint256"
        },
        {
          "indexed": false,
          "internalType": "uint256",
          "name": "sharesBurned",
          "type": "uint256"
        }
      ],
      "name": "Redeem",
      "type": "event"
    },
    {
      "anonymous": false,
      "inputs": [
        {
          "indexed": true,
          "internalType": "address",
          "name": "sender",
          "type": "address"
        },
        {
          "indexed": true,
          "internalType": "uint256",
          "name": "shares",
          "type": "uint256"
        }
      ],
      "name": "RedeemRequest",
      "type": "event"
    },
    {
      "anonymous": false,
      "inputs": [
        {
          "indexed": true,
          "internalType": "address",
          "name": "user",
          "type": "address"
        },
        {
          "indexed": true,
          "internalType": "uint256",
          "name": "shares",
          "type": "uint256"
        }
      ],
      "name": "RedeemRequestCancelled",
      "type": "event"
    },
    {
      "anonymous": false,
      "inputs": [
        {
          "indexed": true,
          "internalType": "address",
          "name": "from",
          "type": "address"
        },
        {
          "indexed": true,
          "internalType": "address",
          "name": "to",
          "type": "address"
        },
        {
          "indexed": false,
          "internalType": "uint256",
          "name": "value",
          "type": "uint256"
        }
      ],
      "name": "Transfer",
      "type": "event"
    },
    {
      "anonymous": false,
      "inputs": [
        {
          "indexed": true,
          "internalType": "uint256",
          "name": "newTotalAssets",
          "type": "uint256"
        }
      ],
      "name": "VaultStateUpdated",
      "type": "event"
    },
    {
      "anonymous": false,
      "inputs": [
        {
          "indexed": true,
          "internalType": "address",
          "name": "sender",
          "type": "address"
        },
        {
          "indexed": true,
          "internalType": "address",
          "name": "receiver",
          "type": "address"
        },
        {
          "indexed": true,
          "internalType": "address",
          "name": "owner",
          "type": "address"
        },
        {
          "indexed": false,
          "internalType": "uint256",
          "name": "assets",
          "type": "uint256"
        },
        {
          "indexed": false,
          "internalType": "uint256",
          "name": "shares",
          "type": "uint256"
        }
      ],
      "name": "Withdraw",
      "type": "event"
    },
    {
      "inputs": [],
      "name": "BASIS_POINTS_FACTOR",
      "outputs": [
        {
          "internalType": "uint16",
          "name": "",
          "type": "uint16"
        }
      ],
      "stateMutability": "view",
      "type": "function"
    },
    {
      "inputs": [],
      "name": "MAX_MANAGEMENT_FEE",
      "outputs": [
        {
          "internalType": "uint16",
          "name": "",
          "type": "uint16"
        }
      ],
      "stateMutability": "view",
      "type": "function"
    },
    {
      "inputs": [],
      "name": "MAX_PERFORMANCE_FEE",
      "outputs": [
        {
          "internalType": "uint16",
          "name": "",
          "type": "uint16"
        }
      ],
      "stateMutability": "view",
      "type": "function"
    },
    {
      "inputs": [],
      "name": "SHARE_DECIMALS",
      "outputs": [
        {
          "internalType": "uint8",
          "name": "",
          "type": "uint8"
        }
      ],
      "stateMutability": "view",
      "type": "function"
    },
    {
      "inputs": [],
      "name": "YEAR_IN_SECONDS",
      "outputs": [
        {
          "internalType": "uint32",
          "name": "",
          "type": "uint32"
        }
      ],
      "stateMutability": "view",
      "type": "function"
    },
    {
      "inputs": [
        {
          "internalType": "uint256",
          "name": "epoch",
          "type": "uint256"
        },
        {
          "internalType": "uint256",
          "name": "feeAmount",
          "type": "uint256"
        }
      ],
      "name": "accrueCuratorFees",
      "outputs": [],
      "stateMutability": "nonpayable",
      "type": "function"
    },
    {
      "inputs": [
        {
          "internalType": "address",
          "name": "owner",
          "type": "address"
        },
        {
          "internalType": "address",
          "name": "spender",
          "type": "address"
        }
      ],
      "name": "allowance",
      "outputs": [
        {
          "internalType": "uint256",
          "name": "",
          "type": "uint256"
        }
      ],
      "stateMutability": "view",
      "type": "function"
    },
    {
      "inputs": [
        {
          "internalType": "address",
          "name": "spender",
          "type": "address"
        },
        {
          "internalType": "uint256",
          "name": "value",
          "type": "uint256"
        }
      ],
      "name": "approve",
      "outputs": [
        {
          "internalType": "bool",
          "name": "",
          "type": "bool"
        }
      ],
      "stateMutability": "nonpayable",
      "type": "function"
    },
    {
      "inputs": [],
      "name": "asset",
      "outputs": [
        {
          "internalType": "address",
          "name": "",
          "type": "address"
        }
      ],
      "stateMutability": "view",
      "type": "function"
    },
    {
      "inputs": [
        {
          "internalType": "address",
          "name": "account",
          "type": "address"
        }
      ],
      "name": "balanceOf",
      "outputs": [
        {
          "internalType": "uint256",
          "name": "",
          "type": "uint256"
        }
      ],
      "stateMutability": "view",
      "type": "function"
    },
    {
      "inputs": [
        {
          "internalType": "uint256",
          "name": "amount",
          "type": "uint256"
        }
      ],
      "name": "cancelDepositRequest",
      "outputs": [],
      "stateMutability": "nonpayable",
      "type": "function"
    },
    {
      "inputs": [
        {
          "internalType": "uint256",
          "name": "shares",
          "type": "uint256"
        }
      ],
      "name": "cancelRedeemRequest",
      "outputs": [],
      "stateMutability": "nonpayable",
      "type": "function"
    },
    {
      "inputs": [
        {
          "internalType": "uint256",
          "name": "amount",
          "type": "uint256"
        }
      ],
      "name": "claimCuratorFees",
      "outputs": [],
      "stateMutability": "nonpayable",
      "type": "function"
    },
    {
      "inputs": [],
      "name": "config",
      "outputs": [
        {
          "internalType": "contract IOrionConfig",
          "name": "",
          "type": "address"
        }
      ],
      "stateMutability": "view",
      "type": "function"
    },
    {
      "inputs": [
        {
          "internalType": "uint256",
          "name": "shares",
          "type": "uint256"
        }
      ],
      "name": "convertToAssets",
      "outputs": [
        {
          "internalType": "uint256",
          "name": "",
          "type": "uint256"
        }
      ],
      "stateMutability": "view",
      "type": "function"
    },
    {
      "inputs": [
        {
          "internalType": "uint256",
          "name": "shares",
          "type": "uint256"
        },
        {
          "internalType": "uint256",
          "name": "pointInTimeTotalAssets",
          "type": "uint256"
        },
        {
          "internalType": "enum Math.Rounding",
          "name": "rounding",
          "type": "uint8"
        }
      ],
      "name": "convertToAssetsWithPITTotalAssets",
      "outputs": [
        {
          "internalType": "uint256",
          "name": "",
          "type": "uint256"
        }
      ],
      "stateMutability": "view",
      "type": "function"
    },
    {
      "inputs": [
        {
          "internalType": "uint256",
          "name": "assets",
          "type": "uint256"
        }
      ],
      "name": "convertToShares",
      "outputs": [
        {
          "internalType": "uint256",
          "name": "",
          "type": "uint256"
        }
      ],
      "stateMutability": "view",
      "type": "function"
    },
    {
      "inputs": [
        {
          "internalType": "uint256",
          "name": "assets",
          "type": "uint256"
        },
        {
          "internalType": "uint256",
          "name": "pointInTimeTotalAssets",
          "type": "uint256"
        },
        {
          "internalType": "enum Math.Rounding",
          "name": "rounding",
          "type": "uint8"
        }
      ],
      "name": "convertToSharesWithPITTotalAssets",
      "outputs": [
        {
          "internalType": "uint256",
          "name": "",
          "type": "uint256"
        }
      ],
      "stateMutability": "view",
      "type": "function"
    },
    {
      "inputs": [],
      "name": "curator",
      "outputs": [
        {
          "internalType": "address",
          "name": "",
          "type": "address"
        }
      ],
      "stateMutability": "view",
      "type": "function"
    },
    {
      "inputs": [
        {
          "internalType": "uint256",
          "name": "activeTotalAssets",
          "type": "uint256"
        }
      ],
      "name": "curatorFee",
      "outputs": [
        {
          "internalType": "uint256",
          "name": "",
          "type": "uint256"
        }
      ],
      "stateMutability": "view",
      "type": "function"
    },
    {
      "inputs": [],
      "name": "curatorIntentDecimals",
      "outputs": [
        {
          "internalType": "uint8",
          "name": "",
          "type": "uint8"
        }
      ],
      "stateMutability": "view",
      "type": "function"
    },
    {
      "inputs": [],
      "name": "decimals",
      "outputs": [
        {
          "internalType": "uint8",
          "name": "",
          "type": "uint8"
        }
      ],
      "stateMutability": "view",
      "type": "function"
    },
    {
      "inputs": [
        {
          "internalType": "uint256",
          "name": "",
          "type": "uint256"
        },
        {
          "internalType": "address",
          "name": "",
          "type": "address"
        }
      ],
      "name": "deposit",
      "outputs": [
        {
          "internalType": "uint256",
          "name": "",
          "type": "uint256"
        }
      ],
      "stateMutability": "pure",
      "type": "function"
    },
    {
      "inputs": [],
      "name": "feeModel",
      "outputs": [
        {
          "internalType": "enum OrionVault.FeeType",
          "name": "feeType",
          "type": "uint8"
        },
        {
          "internalType": "uint16",
          "name": "performanceFee",
          "type": "uint16"
        },
        {
          "internalType": "uint16",
          "name": "managementFee",
          "type": "uint16"
        },
        {
          "internalType": "uint256",
          "name": "highWaterMark",
          "type": "uint256"
        }
      ],
      "stateMutability": "view",
      "type": "function"
    },
    {
      "inputs": [
        {
          "internalType": "uint256",
          "name": "depositTotalAssets",
          "type": "uint256"
        }
      ],
      "name": "fulfillDeposit",
      "outputs": [],
      "stateMutability": "nonpayable",
      "type": "function"
    },
    {
      "inputs": [
        {
          "internalType": "uint256",
          "name": "redeemTotalAssets",
          "type": "uint256"
        }
      ],
      "name": "fulfillRedeem",
      "outputs": [],
      "stateMutability": "nonpayable",
      "type": "function"
    },
    {
      "inputs": [],
      "name": "getIntent",
      "outputs": [
        {
          "internalType": "address[]",
          "name": "tokens",
          "type": "address[]"
        },
        {
          "internalType": "uint32[]",
          "name": "weights",
          "type": "uint32[]"
        }
      ],
      "stateMutability": "view",
      "type": "function"
    },
    {
      "inputs": [],
      "name": "getPortfolio",
      "outputs": [
        {
          "internalType": "address[]",
          "name": "tokens",
          "type": "address[]"
        },
        {
          "internalType": "uint256[]",
          "name": "sharesPerAsset",
          "type": "uint256[]"
        }
      ],
      "stateMutability": "view",
      "type": "function"
    },
    {
      "inputs": [],
      "name": "internalStatesOrchestrator",
      "outputs": [
        {
          "internalType": "contract IInternalStateOrchestrator",
          "name": "",
          "type": "address"
        }
      ],
      "stateMutability": "view",
      "type": "function"
    },
    {
      "inputs": [],
      "name": "isPassiveCurator",
      "outputs": [
        {
          "internalType": "bool",
          "name": "isPassive",
          "type": "bool"
        }
      ],
      "stateMutability": "view",
      "type": "function"
    },
    {
      "inputs": [],
      "name": "liquidityOrchestrator",
      "outputs": [
        {
          "internalType": "contract ILiquidityOrchestrator",
          "name": "",
          "type": "address"
        }
      ],
      "stateMutability": "view",
      "type": "function"
    },
    {
      "inputs": [
        {
          "internalType": "address",
          "name": "",
          "type": "address"
        }
      ],
      "name": "maxDeposit",
      "outputs": [
        {
          "internalType": "uint256",
          "name": "",
          "type": "uint256"
        }
      ],
      "stateMutability": "view",
      "type": "function"
    },
    {
      "inputs": [
        {
          "internalType": "address",
          "name": "",
          "type": "address"
        }
      ],
      "name": "maxMint",
      "outputs": [
        {
          "internalType": "uint256",
          "name": "",
          "type": "uint256"
        }
      ],
      "stateMutability": "view",
      "type": "function"
    },
    {
      "inputs": [
        {
          "internalType": "address",
          "name": "owner",
          "type": "address"
        }
      ],
      "name": "maxRedeem",
      "outputs": [
        {
          "internalType": "uint256",
          "name": "",
          "type": "uint256"
        }
      ],
      "stateMutability": "view",
      "type": "function"
    },
    {
      "inputs": [
        {
          "internalType": "address",
          "name": "owner",
          "type": "address"
        }
      ],
      "name": "maxWithdraw",
      "outputs": [
        {
          "internalType": "uint256",
          "name": "",
          "type": "uint256"
        }
      ],
      "stateMutability": "view",
      "type": "function"
    },
    {
      "inputs": [
        {
          "internalType": "uint256",
          "name": "",
          "type": "uint256"
        },
        {
          "internalType": "address",
          "name": "",
          "type": "address"
        }
      ],
      "name": "mint",
      "outputs": [
        {
          "internalType": "uint256",
          "name": "",
          "type": "uint256"
        }
      ],
      "stateMutability": "pure",
      "type": "function"
    },
    {
      "inputs": [],
      "name": "name",
      "outputs": [
        {
          "internalType": "string",
          "name": "",
          "type": "string"
        }
      ],
      "stateMutability": "view",
      "type": "function"
    },
    {
      "inputs": [],
      "name": "pendingCuratorFees",
      "outputs": [
        {
          "internalType": "uint256",
          "name": "",
          "type": "uint256"
        }
      ],
      "stateMutability": "view",
      "type": "function"
    },
    {
      "inputs": [],
      "name": "pendingDeposit",
      "outputs": [
        {
          "internalType": "uint256",
          "name": "",
          "type": "uint256"
        }
      ],
      "stateMutability": "view",
      "type": "function"
    },
    {
      "inputs": [],
      "name": "pendingRedeem",
      "outputs": [
        {
          "internalType": "uint256",
          "name": "",
          "type": "uint256"
        }
      ],
      "stateMutability": "view",
      "type": "function"
    },
    {
      "inputs": [
        {
          "internalType": "uint256",
          "name": "",
          "type": "uint256"
        }
      ],
      "name": "previewDeposit",
      "outputs": [
        {
          "internalType": "uint256",
          "name": "",
          "type": "uint256"
        }
      ],
      "stateMutability": "pure",
      "type": "function"
    },
    {
      "inputs": [
        {
          "internalType": "uint256",
          "name": "",
          "type": "uint256"
        }
      ],
      "name": "previewMint",
      "outputs": [
        {
          "internalType": "uint256",
          "name": "",
          "type": "uint256"
        }
      ],
      "stateMutability": "pure",
      "type": "function"
    },
    {
      "inputs": [
        {
          "internalType": "uint256",
          "name": "",
          "type": "uint256"
        }
      ],
      "name": "previewRedeem",
      "outputs": [
        {
          "internalType": "uint256",
          "name": "",
          "type": "uint256"
        }
      ],
      "stateMutability": "pure",
      "type": "function"
    },
    {
      "inputs": [
        {
          "internalType": "uint256",
          "name": "",
          "type": "uint256"
        }
      ],
      "name": "previewWithdraw",
      "outputs": [
        {
          "internalType": "uint256",
          "name": "",
          "type": "uint256"
        }
      ],
      "stateMutability": "pure",
      "type": "function"
    },
    {
      "inputs": [
        {
          "internalType": "uint256",
          "name": "",
          "type": "uint256"
        },
        {
          "internalType": "address",
          "name": "",
          "type": "address"
        },
        {
          "internalType": "address",
          "name": "",
          "type": "address"
        }
      ],
      "name": "redeem",
      "outputs": [
        {
          "internalType": "uint256",
          "name": "",
          "type": "uint256"
        }
      ],
      "stateMutability": "pure",
      "type": "function"
    },
    {
      "inputs": [
        {
          "internalType": "uint256",
          "name": "assets",
          "type": "uint256"
        }
      ],
      "name": "requestDeposit",
      "outputs": [],
      "stateMutability": "nonpayable",
      "type": "function"
    },
    {
      "inputs": [
        {
          "internalType": "uint256",
          "name": "shares",
          "type": "uint256"
        }
      ],
      "name": "requestRedeem",
      "outputs": [],
      "stateMutability": "nonpayable",
      "type": "function"
    },
    {
      "inputs": [
        {
          "components": [
            {
              "internalType": "address",
              "name": "token",
              "type": "address"
            },
            {
              "internalType": "uint32",
              "name": "value",
              "type": "uint32"
            }
          ],
          "internalType": "struct IOrionTransparentVault.Position[]",
          "name": "intent",
          "type": "tuple[]"
        }
      ],
      "name": "submitIntent",
      "outputs": [],
      "stateMutability": "nonpayable",
      "type": "function"
    },
    {
      "inputs": [],
      "name": "symbol",
      "outputs": [
        {
          "internalType": "string",
          "name": "",
          "type": "string"
        }
      ],
      "stateMutability": "view",
      "type": "function"
    },
    {
      "inputs": [],
      "name": "totalAssets",
      "outputs": [
        {
          "internalType": "uint256",
          "name": "",
          "type": "uint256"
        }
      ],
      "stateMutability": "view",
      "type": "function"
    },
    {
      "inputs": [],
      "name": "totalSupply",
      "outputs": [
        {
          "internalType": "uint256",
          "name": "",
          "type": "uint256"
        }
      ],
      "stateMutability": "view",
      "type": "function"
    },
    {
      "inputs": [
        {
          "internalType": "address",
          "name": "to",
          "type": "address"
        },
        {
          "internalType": "uint256",
          "name": "value",
          "type": "uint256"
        }
      ],
      "name": "transfer",
      "outputs": [
        {
          "internalType": "bool",
          "name": "",
          "type": "bool"
        }
      ],
      "stateMutability": "nonpayable",
      "type": "function"
    },
    {
      "inputs": [
        {
          "internalType": "address",
          "name": "from",
          "type": "address"
        },
        {
          "internalType": "address",
          "name": "to",
          "type": "address"
        },
        {
          "internalType": "uint256",
          "name": "value",
          "type": "uint256"
        }
      ],
      "name": "transferFrom",
      "outputs": [
        {
          "internalType": "bool",
          "name": "",
          "type": "bool"
        }
      ],
      "stateMutability": "nonpayable",
      "type": "function"
    },
    {
      "inputs": [
        {
          "internalType": "address",
          "name": "newCurator",
          "type": "address"
        }
      ],
      "name": "updateCurator",
      "outputs": [],
      "stateMutability": "nonpayable",
      "type": "function"
    },
    {
      "inputs": [
        {
          "internalType": "uint8",
          "name": "feeType",
          "type": "uint8"
        },
        {
          "internalType": "uint16",
          "name": "performanceFee",
          "type": "uint16"
        },
        {
          "internalType": "uint16",
          "name": "managementFee",
          "type": "uint16"
        }
      ],
      "name": "updateFeeModel",
      "outputs": [],
      "stateMutability": "nonpayable",
      "type": "function"
    },
    {
      "inputs": [
        {
          "components": [
            {
              "internalType": "address",
              "name": "token",
              "type": "address"
            },
            {
              "internalType": "uint32",
              "name": "value",
              "type": "uint32"
            }
          ],
          "internalType": "struct IOrionTransparentVault.Position[]",
          "name": "portfolio",
          "type": "tuple[]"
        },
        {
          "internalType": "uint256",
          "name": "newTotalAssets",
          "type": "uint256"
        }
      ],
      "name": "updateVaultState",
      "outputs": [],
      "stateMutability": "nonpayable",
      "type": "function"
    },
    {
      "inputs": [
        {
          "internalType": "address[]",
          "name": "assets",
          "type": "address[]"
        }
      ],
      "name": "updateVaultWhitelist",
      "outputs": [],
      "stateMutability": "nonpayable",
      "type": "function"
    },
    {
      "inputs": [],
      "name": "vaultOwner",
      "outputs": [
        {
          "internalType": "address",
          "name": "",
          "type": "address"
        }
      ],
      "stateMutability": "view",
      "type": "function"
    },
    {
      "inputs": [],
      "name": "vaultWhitelist",
      "outputs": [
        {
          "internalType": "address[]",
          "name": "",
          "type": "address[]"
        }
      ],
      "stateMutability": "view",
      "type": "function"
    },
    {
      "inputs": [
        {
          "internalType": "uint256",
          "name": "",
          "type": "uint256"
        },
        {
          "internalType": "address",
          "name": "",
          "type": "address"
        },
        {
          "internalType": "address",
          "name": "",
          "type": "address"
        }
      ],
      "name": "withdraw",
      "outputs": [
        {
          "internalType": "uint256",
          "name": "",
          "type": "uint256"
        }
      ],
      "stateMutability": "pure",
      "type": "function"
    }
  ],
  "bytecode": "0x60c060405234801561000f575f5ffd5b50604051614c04380380614c0483398101604081905261002e916109aa565b8787878787878787856001600160a01b0316637158da7c6040518163ffffffff1660e01b8152600401602060405180830381865afa158015610072573d5f5f3e3d5ffd5b505050506040513d601f19601f820116820180604052508101906100969190610a79565b858560036100a48382610b1f565b5060046100b18282610b1f565b5050505f5f6100c58361057660201b60201c565b91509150816100d55760126100d7565b805b60ff1660a05250506001600160a01b03908116608052600160055587166101115760405163e6c4247b60e01b815260040160405180910390fd5b6001600160a01b0386166101385760405163e6c4247b60e01b815260040160405180910390fd5b600680546001600160a01b03808b166001600160a01b031992831617909255600780548a841690831617905560088054928916929091168217905560408051630691d8b960e31b8152905163348ec5c8916004808201926020929091908290030181865afa1580156101ac573d5f5f3e3d5ffd5b505050506040513d601f19601f820116820180604052508101906101d09190610a79565b60095f6101000a8154816001600160a01b0302191690836001600160a01b03160217905550856001600160a01b0316633a0dad8e6040518163ffffffff1660e01b8152600401602060405180830381865afa158015610231573d5f5f3e3d5ffd5b505050506040513d601f19601f820116820180604052508101906102559190610a79565b600a5f6101000a8154816001600160a01b0302191690836001600160a01b03160217905550856001600160a01b031663d1717c7d6040518163ffffffff1660e01b8152600401602060405180830381865afa1580156102b6573d5f5f3e3d5ffd5b505050506040513d601f19601f820116820180604052508101906102da9190610bd9565b600a60146101000a81548160ff021916908360ff1602179055505f600d819055505f6014819055505f6015819055505f866001600160a01b0316637158da7c6040518163ffffffff1660e01b8152600401602060405180830381865afa158015610346573d5f5f3e3d5ffd5b505050506040513d601f19601f8201168201806040525081019061036a9190610a79565b6001600160a01b031663313ce5676040518163ffffffff1660e01b8152600401602060405180830381865afa1580156103a5573d5f5f3e3d5ffd5b505050506040513d601f19601f820116820180604052508101906103c99190610bd9565b9050601260ff821611156103f057604051631c03248960e11b815260040160405180910390fd5b600460ff85161115610415576040516317dbc4cb60e21b815260040160405180910390fd5b610bb861ffff8416111561043c576040516317dbc4cb60e21b815260040160405180910390fd5b61012c61ffff83161115610463576040516317dbc4cb60e21b815260040160405180910390fd5b8360ff16600481111561047857610478610bf2565b6017805460ff1916600183600481111561049457610494610bf2565b02179055506017805461ffff84811663010000000264ffff00000019918716610100029190911664ffffffff0019909216919091171790556104d781600a610cfd565b6018556104e261064c565b50505050505050505061056960085f9054906101000a90046001600160a01b03166001600160a01b031663d86cd44e6040518163ffffffff1660e01b81526004015f60405180830381865afa15801561053d573d5f5f3e3d5ffd5b505050506040513d5f823e601f3d908101601f191682016040526105649190810190610d0b565b610721565b5050505050505050610e68565b60408051600481526024810182526020810180516001600160e01b031663313ce56760e01b17905290515f918291829182916001600160a01b038716916105bc91610dbd565b5f60405180830381855afa9150503d805f81146105f4576040519150601f19603f3d011682016040523d82523d5f602084013e6105f9565b606091505b509150915081801561060d57506020815110155b15610640575f818060200190518101906106279190610dd3565b905060ff811161063e576001969095509350505050565b505b505f9485945092505050565b60085460408051636c366a2760e11b815290515f926001600160a01b03169163d86cd44e91600480830192869291908290030181865afa158015610692573d5f5f3e3d5ffd5b505050506040513d5f823e601f3d908101601f191682016040526106b99190810190610d0b565b90505f5b815181101561071d575f6106f48383815181106106dc576106dc610dea565b6020026020010151600b61085860201b90919060201c565b90508061071457604051630ea075bf60e21b815260040160405180910390fd5b506001016106bd565b5050565b6007546001600160a01b03163b5f0361074157601f805460ff1916905550565b6007546040516301ffc9a760e01b8152635b24e9f760e11b60048201526001600160a01b03909116906301ffc9a790602401602060405180830381865afa9250505080156107ac575060408051601f3d908101601f191682019092526107a991810190610dfe565b60015b6107c95760405163298febe360e01b815260040160405180910390fd5b801561083c57601f805460ff1916600117905560075460405163c653526b60e01b81526001600160a01b039091169063c653526b9061080c908590600401610e1d565b5f6040518083038186803b158015610822575f5ffd5b505afa158015610834573d5f5f3e3d5ffd5b505050505050565b60405163298febe360e01b815260040160405180910390fd5b50565b5f61086c836001600160a01b038416610875565b90505b92915050565b5f8181526001830160205260408120546108ba57508154600181810184555f84815260208082209093018490558454848252828601909352604090209190915561086f565b505f61086f565b6001600160a01b0381168114610855575f5ffd5b634e487b7160e01b5f52604160045260245ffd5b604051601f8201601f191681016001600160401b0381118282101715610911576109116108d5565b604052919050565b5f82601f830112610928575f5ffd5b81516001600160401b03811115610941576109416108d5565b610954601f8201601f19166020016108e9565b818152846020838601011115610968575f5ffd5b8160208501602083015e5f918101602001919091529392505050565b805160ff81168114610994575f5ffd5b919050565b805161ffff81168114610994575f5ffd5b5f5f5f5f5f5f5f5f610100898b0312156109c2575f5ffd5b88516109cd816108c1565b60208a01519098506109de816108c1565b60408a01519097506109ef816108c1565b60608a01519096506001600160401b03811115610a0a575f5ffd5b610a168b828c01610919565b60808b015190965090506001600160401b03811115610a33575f5ffd5b610a3f8b828c01610919565b945050610a4e60a08a01610984565b9250610a5c60c08a01610999565b9150610a6a60e08a01610999565b90509295985092959890939650565b5f60208284031215610a89575f5ffd5b8151610a94816108c1565b9392505050565b600181811c90821680610aaf57607f821691505b602082108103610acd57634e487b7160e01b5f52602260045260245ffd5b50919050565b601f821115610b1a57805f5260205f20601f840160051c81016020851015610af85750805b601f840160051c820191505b81811015610b17575f8155600101610b04565b50505b505050565b81516001600160401b03811115610b3857610b386108d5565b610b4c81610b468454610a9b565b84610ad3565b6020601f821160018114610b7e575f8315610b675750848201515b5f19600385901b1c1916600184901b178455610b17565b5f84815260208120601f198516915b82811015610bad5787850151825560209485019460019092019101610b8d565b5084821015610bca57868401515f19600387901b60f8161c191681555b50505050600190811b01905550565b5f60208284031215610be9575f5ffd5b61086c82610984565b634e487b7160e01b5f52602160045260245ffd5b634e487b7160e01b5f52601160045260245ffd5b6001815b6001841115610c5557808504811115610c3957610c39610c06565b6001841615610c4757908102905b60019390931c928002610c1e565b935093915050565b5f82610c6b5750600161086f565b81610c7757505f61086f565b8160018114610c8d5760028114610c9757610cb3565b600191505061086f565b60ff841115610ca857610ca8610c06565b50506001821b61086f565b5060208310610133831016604e8410600b8410161715610cd6575081810a61086f565b610ce25f198484610c1a565b805f1904821115610cf557610cf5610c06565b029392505050565b5f61086c60ff841683610c5d565b5f60208284031215610d1b575f5ffd5b81516001600160401b03811115610d30575f5ffd5b8201601f81018413610d40575f5ffd5b80516001600160401b03811115610d5957610d596108d5565b8060051b610d69602082016108e9565b91825260208184018101929081019087841115610d84575f5ffd5b6020850194505b83851015610db25784519250610da0836108c1565b82825260209485019490910190610d8b565b979650505050505050565b5f82518060208501845e5f920191825250919050565b5f60208284031215610de3575f5ffd5b5051919050565b634e487b7160e01b5f52603260045260245ffd5b5f60208284031215610e0e575f5ffd5b81518015158114610a94575f5ffd5b602080825282518282018190525f918401906040840190835b81811015610e5d5783516001600160a01b0316835260209384019390920191600101610e36565b509095945050505050565b60805160a051613d7e610e865f395f50505f610f350152613d7e5ff3fe608060405234801561000f575f5ffd5b50600436106102b2575f3560e01c806301e1d114146102b657806303d44854146102cd57806306fdde03146102e257806307a2d13a146102f7578063095ea7b31461030a5780630a28a4771461032d5780630a605c6d146103405780630c6a62dd146103485780630d1e66671461035b5780630df571f71461036e578063105444941461038157806318160ddd1461039457806318c219491461039c5780631f52692b146103af57806323b872dd146103cf578063313ce567146103e2578063348ec5c8146103f757806338d52e0f1461040a5780633a0dad8e146104125780633ab6d27c14610425578063402d267d14610438578063493a6e211461044c5780634cdad5061461032d5780634e85b1351461045f5780635de3dfdc146104745780636e553f651461047f57806370a082311461048d5780637847ea53146104a057806379502c55146104c057806380ceebfe146104d35780638f5c9465146104e657806394bf804d1461047f57806395d89b411461050257806397ee11441461050a5780639908840c14610540578063a68a526714610549578063a9059cbb1461055c578063aa2f892d1461056f578063acdb3d5114610582578063b1bd7e2e1461058b578063b3d7f6b91461032d578063b460af941461059e578063b6eba653146105ac578063ba0876521461059e578063bdca9165146105c2578063c0b568e1146105cb578063c3f0d30e146105de578063c63d75b614610438578063c6e6f592146105f1578063ce96cb7714610604578063d1717c7d14610617578063d3d034581461062b578063d853365f14610641578063d905777e14610649578063dd62ed3e1461065c578063e51a85f61461066f578063e5e9719314610682578063e66f53b714610695578063ef8b30f71461032d578063f64c6f32146106a8575b5f5ffd5b600d545b6040519081526020015b60405180910390f35b6102e06102db366004613346565b6106b0565b005b6102ea610854565b6040516102c491906133b5565b6102ba6103053660046133ea565b6108e4565b61031d610318366004613415565b6108f5565b60405190151581526020016102c4565b6102ba61033b3660046133ea565b61090c565b6015546102ba565b6102e061035636600461343f565b610926565b6102e06103693660046133ea565b610a33565b6102e061037c36600461345a565b610ca4565b6102e061038f3660046134ba565b610d1e565b6002546102ba565b6102e06103aa3660046133ea565b610e3f565b6006546103c2906001600160a01b031681565b6040516102c49190613501565b61031d6103dd366004613515565b610f0e565b60125b60405160ff90911681526020016102c4565b6009546103c2906001600160a01b031681565b6103c2610f33565b600a546103c2906001600160a01b031681565b6102e0610433366004613570565b610f57565b6102ba61044636600461343f565b505f1990565b6102e061045a3660046133ea565b611124565b61046761146b565b6040516102c491906135fb565b601f5460ff1661031d565b6102ba61033b36600461360d565b6102ba61049b36600461343f565b61147c565b6104ab6301e1338081565b60405163ffffffff90911681526020016102c4565b6008546103c2906001600160a01b031681565b6102ba6104e136600461363b565b611496565b6104ef61271081565b60405161ffff90911681526020016102c4565b6102ea6114d6565b6017546018546105309160ff81169161ffff610100830481169263010000009004169084565b6040516102c4949392919061367d565b6104ef61012c81565b6102ba61055736600461363b565b6114e5565b61031d61056a366004613415565b611514565b6102e061057d3660046133ea565b611521565b6102ba60165481565b6102e06105993660046136bb565b6116fa565b6102ba61033b3660046136f9565b6105b461192a565b6040516102c492919061372d565b6104ef610bb881565b6102e06105d93660046133ea565b611a81565b6102e06105ec3660046133ea565b611c3b565b6102ba6105ff3660046133ea565b611e2f565b6102ba61061236600461343f565b611e3a565b600a546103e590600160a01b900460ff1681565b610633611e4d565b6040516102c492919061378b565b6103e5601281565b6102ba61065736600461343f565b611f77565b6102ba61066a3660046137d7565b611f81565b6102ba61067d3660046133ea565b611fab565b6102e06106903660046133ea565b611fe4565b6007546103c2906001600160a01b031681565b6014546102ba565b6006546001600160a01b031633146106db57604051631a27eac360e11b815260040160405180910390fd5b6106e5600b6122bc565b5f5b818110156107e5575f83838381811061070257610702613803565b9050602002016020810190610717919061343f565b600854604051633af32abf60e01b81529192506001600160a01b031690633af32abf90610748908490600401613501565b602060405180830381865afa158015610763573d5f5f3e3d5ffd5b505050506040513d601f19601f820116820180604052508101906107879190613817565b6107af578060405163751dff9760e11b81526004016107a69190613501565b60405180910390fd5b5f6107bb600b836122c5565b9050806107db57604051630ea075bf60e21b815260040160405180910390fd5b50506001016106e7565b50601f5460ff16156108505760075460405163c653526b60e01b81526001600160a01b039091169063c653526b906108239085908590600401613836565b5f6040518083038186803b158015610839575f5ffd5b505afa15801561084b573d5f5f3e3d5ffd5b505050505b5050565b60606003805461086390613882565b80601f016020809104026020016040519081016040528092919081815260200182805461088f90613882565b80156108da5780601f106108b1576101008083540402835291602001916108da565b820191905f5260205f20905b8154815290600101906020018083116108bd57829003601f168201915b5050505050905090565b5f6108ef825f6122d9565b92915050565b5f3361090281858561231a565b5060019392505050565b5f60405163125ad87760e31b815260040160405180910390fd5b6006546001600160a01b0316331461095157604051631a27eac360e11b815260040160405180910390fd5b6001600160a01b0381166109785760405163e6c4247b60e01b815260040160405180910390fd5b600780546001600160a01b0319166001600160a01b03831617905560408051634e85b13560e01b815290516109fd913091634e85b135916004808201925f929091908290030181865afa1580156109d1573d5f5f3e3d5ffd5b505050506040513d5f823e601f3d908101601f191682016040526109f89190810190613948565b61232c565b6040516001600160a01b038216907f83293ffeebb677b167941693470018acf300605df266a35e9fdb66f24ff00fe0905f90a250565b610a3b612430565b60085f9054906101000a90046001600160a01b03166001600160a01b031663edcf9c1f6040518163ffffffff1660e01b8152600401602060405180830381865afa158015610a8b573d5f5f3e3d5ffd5b505050506040513d601f19601f82011682018060405250810190610aaf9190613817565b610acc576040516312aecd8160e01b815260040160405180910390fd5b805f03610af557610adb610f33565b604051636b30633560e01b81526004016107a69190613501565b5f610afe610f33565b6001600160a01b03166370a08231336040518263ffffffff1660e01b8152600401610b299190613501565b602060405180830381865afa158015610b44573d5f5f3e3d5ffd5b505050506040513d601f19601f82011682018060405250810190610b6891906139dc565b905080821115610b8b57604051632ca2f52b60e11b815260040160405180910390fd5b5f610b94610f33565b600a546040516323b872dd60e01b81526001600160a01b03928316926323b872dd92610bca9233929091169088906004016139f3565b6020604051808303815f875af1158015610be6573d5f5f3e3d5ffd5b505050506040513d601f19601f82011682018060405250810190610c0a9190613817565b905080610c2a576040516312171d8360e31b815260040160405180910390fd5b5f610c36600e3361245a565b9150610c51905033610c488684613a2b565b600e9190612480565b508360145f828254610c639190613a2b565b9091555050604051849033907f55896b30a78fc55b78937f8014dde3f0035e9d37a4f6ac36841fb8b62f7e2b13905f90a3505050610ca16001600555565b50565b6009546001600160a01b03163314610ccf57604051631a27eac360e11b815260040160405180910390fd5b8015610850578060165f828254610ce69190613a2b565b9091555050601654604051829084907f8b8789cf9157fe7b016901e4ed3a5d0971caa8b7c031da0b25638ccf65841b2a905f90a45050565b6009546001600160a01b03163314610d4957604051631a27eac360e11b815260040160405180910390fd5b610d536019612495565b815f5b8161ffff168161ffff161015610de357610dda85858361ffff16818110610d7f57610d7f613803565b610d95926020604090920201908101915061343f565b86868461ffff16818110610dab57610dab613803565b9050604002016020016020810190610dc39190613a4f565b63ffffffff1660196124809092919063ffffffff16565b50600101610d56565b50600d8290555f610dfb60125b61030590600a613b4d565b601854909150811115610e0e5760188190555b60405183907f5e1ff954b5e5257e9ee5d4cb07059e8f5e69b1aaaf9911e5d8d90a6894de9c21905f90a25050505050565b6006546001600160a01b03163314610e6a57604051631a27eac360e11b815260040160405180910390fd5b805f03610e7957610adb610f33565b601654811115610e9c57604051632ca2f52b60e11b815260040160405180910390fd5b8060165f828254610ead9190613b5b565b9091555050600a5460405163741fca4b60e01b8152600481018390526001600160a01b039091169063741fca4b906024015f604051808303815f87803b158015610ef5575f5ffd5b505af1158015610f07573d5f5f3e3d5ffd5b5050505050565b5f33610f1b85828561249e565b610f268585856124ef565b60019150505b9392505050565b7f000000000000000000000000000000000000000000000000000000000000000090565b6006546001600160a01b03163314610f8257604051631a27eac360e11b815260040160405180910390fd5b60085f9054906101000a90046001600160a01b03166001600160a01b031663edcf9c1f6040518163ffffffff1660e01b8152600401602060405180830381865afa158015610fd2573d5f5f3e3d5ffd5b505050506040513d601f19601f82011682018060405250810190610ff69190613817565b611013576040516312aecd8160e01b815260040160405180910390fd5b600460ff84161115611038576040516317dbc4cb60e21b815260040160405180910390fd5b610bb861ffff8316111561105f576040516317dbc4cb60e21b815260040160405180910390fd5b61012c61ffff82161115611086576040516317dbc4cb60e21b815260040160405180910390fd5b8260ff16600481111561109b5761109b613669565b6017805460ff191660018360048111156110b7576110b7613669565b02179055506017805464ffffffff00191661010061ffff85811691820264ffff00000019169290921763010000009285169283021790925560405190919060ff8616907fd24f39e523bfa412fa391702710dc62e1c82d87a8e83228a37c42be1b4870f45905f90a4505050565b600a546001600160a01b0316331461114f57604051631a27eac360e11b815260040160405180910390fd5b611157612430565b5f611162601161254c565b90508063ffffffff165f036111775750611461565b5f8163ffffffff166001600160401b03811115611196576111966138ba565b6040519080825280602002602001820160405280156111bf578160200160208202803683370190505b5090505f8263ffffffff166001600160401b038111156111e1576111e16138ba565b60405190808252806020026020018201604052801561120a578160200160208202803683370190505b5090505f5b8363ffffffff168163ffffffff1610156112a4575f80611239601163ffffffff8086169061255616565b9150915081858463ffffffff168151811061125657611256613803565b60200260200101906001600160a01b031690816001600160a01b03168152505080848463ffffffff168151811061128f5761128f613803565b6020908102919091010152505060010161120f565b505f601581905560095460408051630a58ce2d60e11b815290516001600160a01b03909216916314b19c5a916004808201926020929091908290030181865afa1580156112f3573d5f5f3e3d5ffd5b505050506040513d601f19601f820116820180604052508101906113179190613b6e565b90505f5b8463ffffffff168163ffffffff16101561145b575f848263ffffffff168151811061134857611348613803565b602002602001015190505f848363ffffffff168151811061136b5761136b613803565b6020026020010151905061138982601161256490919063ffffffff16565b505f611396828a5f6114e5565b90506113a23083612578565b600a54604051634adfc2e760e01b81526001600160a01b0390911690634adfc2e7906113d49086908590600401613b89565b5f604051808303815f87803b1580156113eb575f5ffd5b505af11580156113fd573d5f5f3e3d5ffd5b5050604080518481526020810186905261ffff891693506001600160a01b038716925030917f215abfcd108b85fbee47f26fda2de66f90f14fa5fcaf0201698ad8ac9323545f910160405180910390a450505080600101905061131b565b50505050505b610ca16001600555565b6060611477600b6125ac565b905090565b6001600160a01b03165f9081526020819052604090205490565b5f6114ce6114a26125b8565b6114ad90600a613b4d565b6002546114ba9190613a2b565b6114c5856001613a2b565b86919085612634565b949350505050565b60606004805461086390613882565b5f6114ce6114f4846001613a2b565b6114fc6125b8565b61150790600a613b4d565b6002546114c59190613a2b565b5f336109028185856124ef565b60085f9054906101000a90046001600160a01b03166001600160a01b031663edcf9c1f6040518163ffffffff1660e01b8152600401602060405180830381865afa158015611571573d5f5f3e3d5ffd5b505050506040513d601f19601f820116820180604052508101906115959190613817565b6115b2576040516312aecd8160e01b815260040160405180910390fd5b805f036115d45730604051636b30633560e01b81526004016107a69190613501565b5f6115de3361147c565b90508082111561160157604051632ca2f52b60e11b815260040160405180910390fd5b6040516323b872dd60e01b81525f9030906323b872dd9061162a903390849088906004016139f3565b6020604051808303815f875af1158015611646573d5f5f3e3d5ffd5b505050506040513d601f19601f8201168201806040525081019061166a9190613817565b90508061168a576040516312171d8360e31b815260040160405180910390fd5b5f61169660113361245a565b91506116b19050336116a88684613a2b565b60119190612480565b508360155f8282546116c39190613a2b565b9091555050604051849033907f222dc200773fe9b45015bf792e8fee37d651e3590c215806a5042404b6d741d2905f90a350505050565b6007546001600160a01b0316331461172557604051631a27eac360e11b815260040160405180910390fd5b601f5460ff1615611749576040516317dbc4cb60e21b815260040160405180910390fd5b5f81900361176a57604051631121aa8d60e01b815260040160405180910390fd5b611774601c612495565b5f816001600160401b0381111561178d5761178d6138ba565b6040519080825280602002602001820160405280156117b6578160200160208202803683370190505b5090505f82815b8161ffff168161ffff1610156118b4575f86868361ffff168181106117e4576117e4613803565b6117fa926020604090920201908101915061343f565b90505f87878461ffff1681811061181357611813613803565b905060400201602001602081019061182b9190613a4f565b905081868461ffff168151811061184457611844613803565b6001600160a01b03909216602092830291909101909101525f611872601c8463ffffffff8086169061248016565b90508061189457826040516346bdabe160e01b81526004016107a69190613501565b6118a463ffffffff831687613a2b565b95505050508060010190506117bd565b506118be83612676565b600a60149054906101000a900460ff16600a6118da9190613b4d565b82146118f957604051639006dd2760e01b815260040160405180910390fd5b60405133907f2d47a742b8d7df7c1fc5a9a631b206b364e6cb2722490759f63bb3ab14b132e0905f90a25050505050565b601f54606090819060ff161561194a576119426126ee565b915091509091565b5f611955601c61254c565b90508061ffff166001600160401b03811115611973576119736138ba565b60405190808252806020026020018201604052801561199c578160200160208202803683370190505b5092508061ffff166001600160401b038111156119bb576119bb6138ba565b6040519080825280602002602001820160405280156119e4578160200160208202803683370190505b5091505f5b8161ffff168161ffff161015611a7b575f80611a0a601c61ffff8516612556565b9150915081868461ffff1681518110611a2557611a25613803565b60200260200101906001600160a01b031690816001600160a01b03168152505080858461ffff1681518110611a5c57611a5c613803565b63ffffffff9092166020928302919091019091015250506001016119e9565b50509091565b611a89612430565b60085f9054906101000a90046001600160a01b03166001600160a01b031663edcf9c1f6040518163ffffffff1660e01b8152600401602060405180830381865afa158015611ad9573d5f5f3e3d5ffd5b505050506040513d601f19601f82011682018060405250810190611afd9190613817565b611b1a576040516312aecd8160e01b815260040160405180910390fd5b805f03611b2957610adb610f33565b5f611b35600e3361245a565b91505081811015611b5957604051632ca2f52b60e11b815260040160405180910390fd5b600a546040516351edffb160e01b81526001600160a01b03909116906351edffb190611b8b9033908690600401613b89565b5f604051808303815f87803b158015611ba2575f5ffd5b505af1158015611bb4573d5f5f3e3d5ffd5b505050505f8282611bc59190613b5b565b9050805f03611bdf57611bd9600e33612564565b50611bed565b611beb600e3383612480565b505b8260145f828254611bfe9190613b5b565b9091555050604051839033907f96a9a6886cdf3047a125454218a23d3961fd3a78643123b248a9d106d0ac94fd905f90a35050610ca16001600555565b611c43612430565b60085f9054906101000a90046001600160a01b03166001600160a01b031663edcf9c1f6040518163ffffffff1660e01b8152600401602060405180830381865afa158015611c93573d5f5f3e3d5ffd5b505050506040513d601f19601f82011682018060405250810190611cb79190613817565b611cd4576040516312aecd8160e01b815260040160405180910390fd5b805f03611cf65730604051636b30633560e01b81526004016107a69190613501565b5f611d0260113361245a565b91505081811015611d2657604051632ca2f52b60e11b815260040160405180910390fd5b5f611d318383613b5b565b9050805f03611d4b57611d45601133612564565b50611d59565b611d5760113383612480565b505b8260155f828254611d6a9190613b5b565b909155505060405163a9059cbb60e01b81525f90309063a9059cbb90611d969033908890600401613b89565b6020604051808303815f875af1158015611db2573d5f5f3e3d5ffd5b505050506040513d601f19601f82011682018060405250810190611dd69190613817565b905080611df6576040516312171d8360e31b815260040160405180910390fd5b604051849033907f046d3e17087d323298991516e3fdec36fe1204d6bff7fb6e2b8eca77b80a22ad905f90a3505050610ca16001600555565b5f6108ef825f612920565b5f6108ef611e478361147c565b5f6122d9565b6060805f611e5b601961254c565b90508061ffff166001600160401b03811115611e7957611e796138ba565b604051908082528060200260200182016040528015611ea2578160200160208202803683370190505b5092508061ffff166001600160401b03811115611ec157611ec16138ba565b604051908082528060200260200182016040528015611eea578160200160208202803683370190505b5091505f5b8161ffff168161ffff161015611a7b575f80611f10601961ffff8516612556565b9150915081868461ffff1681518110611f2b57611f2b613803565b60200260200101906001600160a01b031690816001600160a01b03168152505080858461ffff1681518110611f6257611f62613803565b60209081029190910101525050600101611eef565b5f6108ef8261147c565b6001600160a01b039182165f90815260016020908152604080832093909416825291909152205490565b5f5f611fb683612952565b90505f611fc38285613b5b565b90505f611fcf82612a1c565b9050611fdb8184613a2b565b95945050505050565b600a546001600160a01b0316331461200f57604051631a27eac360e11b815260040160405180910390fd5b612017612430565b5f612022600e61254c565b90508063ffffffff165f036120375750611461565b5f8163ffffffff166001600160401b03811115612056576120566138ba565b60405190808252806020026020018201604052801561207f578160200160208202803683370190505b5090505f8263ffffffff166001600160401b038111156120a1576120a16138ba565b6040519080825280602002602001820160405280156120ca578160200160208202803683370190505b5090505f5b8363ffffffff168163ffffffff161015612164575f806120f9600e63ffffffff8086169061255616565b9150915081858463ffffffff168151811061211657612116613803565b60200260200101906001600160a01b031690816001600160a01b03168152505080848463ffffffff168151811061214f5761214f613803565b602090810291909101015250506001016120cf565b505f601481905560095460408051630a58ce2d60e11b815290516001600160a01b03909216916314b19c5a916004808201926020929091908290030181865afa1580156121b3573d5f5f3e3d5ffd5b505050506040513d601f19601f820116820180604052508101906121d79190613b6e565b90505f5b8463ffffffff168163ffffffff16101561145b575f848263ffffffff168151811061220857612208613803565b602002602001015190505f848363ffffffff168151811061222b5761222b613803565b6020026020010151905061224982600e61256490919063ffffffff16565b505f612256828a5f611496565b90506122628382612aac565b604080518381526020810183905261ffff8716916001600160a01b0386169130917f4e2ca0515ed1aef1395f66b5303bb5d6f1bf9d61a353fa53f73f8ac9973fa9f6910160405180910390a45050508060010190506121db565b610ca181612ae0565b5f610f2c836001600160a01b038416612b39565b5f610f2c6122e6600d5490565b6122f1906001613a2b565b6122f96125b8565b61230490600a613b4d565b6002546123119190613a2b565b85919085612634565b6123278383836001612b80565b505050565b6007546001600160a01b03163b5f0361234c57601f805460ff1916905550565b6007546040516301ffc9a760e01b8152635b24e9f760e11b60048201526001600160a01b03909116906301ffc9a790602401602060405180830381865afa9250505080156123b7575060408051601f3d908101601f191682019092526123b491810190613817565b60015b6123d45760405163298febe360e01b815260040160405180910390fd5b801561241757601f805460ff1916600117905560075460405163c653526b60e01b81526001600160a01b039091169063c653526b906108239085906004016135fb565b60405163298febe360e01b815260040160405180910390fd5b60026005540361245357604051633ee5aeb560e01b815260040160405180910390fd5b6002600555565b5f808080612471866001600160a01b038716612c52565b909450925050505b9250929050565b5f6114ce846001600160a01b03851684612c8a565b610ca181612ca6565b5f6124a98484611f81565b90505f198110156124e957818110156124db57828183604051637dc7a0d960e11b81526004016107a693929190613ba2565b6124e984848484035f612b80565b50505050565b6001600160a01b038316612518575f604051634b637e8f60e11b81526004016107a69190613501565b6001600160a01b038216612541575f60405163ec442f0560e01b81526004016107a69190613501565b612327838383612cef565b5f6108ef82612e02565b5f8080806124718686612e0c565b5f610f2c836001600160a01b038416612e35565b6001600160a01b0382166125a1575f604051634b637e8f60e11b81526004016107a69190613501565b610850825f83612cef565b60605f610f2c83612e51565b5f5f6125c2610f33565b6001600160a01b031663313ce5676040518163ffffffff1660e01b8152600401602060405180830381865afa1580156125fd573d5f5f3e3d5ffd5b505050506040513d601f19601f820116820180604052508101906126219190613bc3565b905061262e816012613bde565b91505090565b5f61266161264183612eaa565b801561265c57505f848061265757612657613bf7565b868809115b151590565b61266c868686612ed6565b611fdb9190613a2b565b5f5b8151811015610850576126ae82828151811061269657612696613803565b6020026020010151600b612f8690919063ffffffff16565b6126e6578181815181106126c4576126c4613803565b602002602001015160405163751dff9760e11b81526004016107a69190613501565b600101612678565b6060805f306001600160a01b0316634e85b1356040518163ffffffff1660e01b81526004015f60405180830381865afa15801561272d573d5f5f3e3d5ffd5b505050506040513d5f823e601f3d908101601f191682016040526127549190810190613948565b60075460405163701a818560e01b81529192505f916001600160a01b039091169063701a8185906127899085906004016135fb565b5f60405180830381865afa1580156127a3573d5f5f3e3d5ffd5b505050506040513d5f823e601f3d908101601f191682016040526127ca9190810190613c0b565b905080516001600160401b038111156127e5576127e56138ba565b60405190808252806020026020018201604052801561280e578160200160208202803683370190505b50935080516001600160401b0381111561282a5761282a6138ba565b604051908082528060200260200182016040528015612853578160200160208202803683370190505b5092505f5b81518161ffff16101561291957818161ffff168151811061287b5761287b613803565b60200260200101515f0151858261ffff168151811061289c5761289c613803565b60200260200101906001600160a01b031690816001600160a01b031681525050818161ffff16815181106128d2576128d2613803565b602002602001015160200151848261ffff16815181106128f4576128f4613803565b63ffffffff9092166020928302919091019091015261291281613ccc565b9050612858565b5050509091565b5f610f2c61292c6125b8565b61293790600a613b4d565b6002546129449190613a2b565b600d54612311906001613a2b565b6017545f906301000000900461ffff16810361296f57505f919050565b6017545f9061298c906301000000900461ffff1684612710612ed6565b9050610f2c60095f9054906101000a90046001600160a01b03166001600160a01b0316634ff0876a6040518163ffffffff1660e01b8152600401602060405180830381865afa1580156129e1573d5f5f3e3d5ffd5b505050506040513d601f19601f82011682018060405250810190612a059190613cec565b829063ffffffff908116906301e1338090612ed616565b6017545f90610100900461ffff168103612a3757505f919050565b5f612a4e612a476012600a613b4d565b845f6114e5565b6017549091505f908190612a649060ff16612f9a565b9150915081831015612a7a57505f949350505050565b6017545f90612a9390610100900461ffff168584612ed6565b9050612aa28187612710612ed6565b9695505050505050565b6001600160a01b038216612ad5575f60405163ec442f0560e01b81526004016107a69190613501565b6108505f8383612cef565b5f612ae9825490565b90505f5b81811015612b3257826001015f845f018381548110612b0e57612b0e613803565b905f5260205f20015481526020019081526020015f205f9055806001019050612aed565b50505f9055565b5f612b448383613084565b612b7957508154600181810184555f8481526020808220909301849055845484825282860190935260409020919091556108ef565b505f6108ef565b6001600160a01b038416612ba9575f60405163e602df0560e01b81526004016107a69190613501565b6001600160a01b038316612bd2575f604051634a1406b160e11b81526004016107a69190613501565b6001600160a01b038085165f90815260016020908152604080832093871683529290522082905580156124e957826001600160a01b0316846001600160a01b03167f8c5be1e5ebec7d5bd14f71427d1e84f3dd0314c0f7b2291e5b200ac8c7c3b92584604051612c4491815260200190565b60405180910390a350505050565b5f818152600283016020526040812054819080612c7f57612c73858561309b565b92505f91506124799050565b600192509050612479565b5f82815260028401602052604081208290556114ce84846130a6565b5f612cb082612e02565b90505f5b81811015612ce557600283015f612ccb85846130b1565b815260208101919091526040015f90812055600101612cb4565b50610850826122bc565b6001600160a01b038316612d19578060025f828254612d0e9190613a2b565b90915550612d769050565b6001600160a01b0383165f9081526020819052604090205481811015612d585783818360405163391434e360e21b81526004016107a693929190613ba2565b6001600160a01b0384165f9081526020819052604090209082900390555b6001600160a01b038216612d9257600280548290039055612db0565b6001600160a01b0382165f9081526020819052604090208054820190555b816001600160a01b0316836001600160a01b03167fddf252ad1be2c89b69c2b068fc378daa952ba7f163c4a11628f55a4df523b3ef83604051612df591815260200190565b60405180910390a3505050565b5f6108ef826130bc565b5f8080612e1985856130b1565b5f81815260029690960160205260409095205494959350505050565b5f8181526002830160205260408120819055610f2c83836130c5565b6060815f01805480602002602001604051908101604052809291908181526020018280548015612e9e57602002820191905f5260205f20905b815481526020019060010190808311612e8a575b50505050509050919050565b5f6002826003811115612ebf57612ebf613669565b612ec99190613d07565b60ff166001149050919050565b5f5f5f612ee386866130d0565b91509150815f03612f0757838181612efd57612efd613bf7565b0492505050610f2c565b818411612f1e57612f1e60038515026011186130ec565b5f848688095f868103871696879004966002600389028118808a02820302808a02820302808a02820302808a02820302808a02820302808a02909103029181900381900460010185841190960395909502919093039390930492909217029150509392505050565b5f610f2c836001600160a01b038416613084565b5f8080612fa76012610df0565b90505f846004811115612fbc57612fbc613669565b03612fcc5780925082915061307e565b6003846004811115612fe057612fe0613669565b03612ff257601854925082915061307e565b600184600481111561300657613006613669565b0361301e57613014816130fd565b925080915061307e565b600284600481111561303257613032613669565b0361304a57613040816130fd565b925082915061307e565b600484600481111561305e5761305e613669565b0361307e5760185461307890613073836130fd565b613223565b92508291505b50915091565b5f9081526001919091016020526040902054151590565b5f610f2c8383613232565b5f610f2c8383612b39565b5f610f2c838361323d565b5f6108ef825490565b5f610f2c8383613263565b5f805f1983850993909202808410938190039390930393915050565b634e487b715f52806020526024601cfd5b5f5f60085f9054906101000a90046001600160a01b03166001600160a01b031663f3cc69936040518163ffffffff1660e01b8152600401602060405180830381865afa15801561314f573d5f5f3e3d5ffd5b505050506040513d601f19601f820116820180604052508101906131739190613b6e565b61ffff1690505f61320860095f9054906101000a90046001600160a01b03166001600160a01b0316634ff0876a6040518163ffffffff1660e01b8152600401602060405180830381865afa1580156131cd573d5f5f3e3d5ffd5b505050506040513d601f19601f820116820180604052508101906131f19190613cec565b839063ffffffff908116906301e1338090612ed616565b90506114ce61321982612710613a2b565b8590612710612ed6565b5f828218828411028218610f2c565b5f610f2c8383613084565b5f825f01828154811061325257613252613803565b905f5260205f200154905092915050565b5f818152600183016020526040812054801561333d575f613285600183613b5b565b85549091505f9061329890600190613b5b565b90508082146132f7575f865f0182815481106132b6576132b6613803565b905f5260205f200154905080875f0184815481106132d6576132d6613803565b5f918252602080832090910192909255918252600188019052604090208390555b855486908061330857613308613d34565b600190038181905f5260205f20015f90559055856001015f8681526020019081526020015f205f9055600193505050506108ef565b5f9150506108ef565b5f5f60208385031215613357575f5ffd5b82356001600160401b0381111561336c575f5ffd5b8301601f8101851361337c575f5ffd5b80356001600160401b03811115613391575f5ffd5b8560208260051b84010111156133a5575f5ffd5b6020919091019590945092505050565b602081525f82518060208401528060208501604085015e5f604082850101526040601f19601f83011684010191505092915050565b5f602082840312156133fa575f5ffd5b5035919050565b6001600160a01b0381168114610ca1575f5ffd5b5f5f60408385031215613426575f5ffd5b823561343181613401565b946020939093013593505050565b5f6020828403121561344f575f5ffd5b8135610f2c81613401565b5f5f6040838503121561346b575f5ffd5b50508035926020909101359150565b5f5f83601f84011261348a575f5ffd5b5081356001600160401b038111156134a0575f5ffd5b6020830191508360208260061b8501011115612479575f5ffd5b5f5f5f604084860312156134cc575f5ffd5b83356001600160401b038111156134e1575f5ffd5b6134ed8682870161347a565b909790965060209590950135949350505050565b6001600160a01b0391909116815260200190565b5f5f5f60608486031215613527575f5ffd5b833561353281613401565b9250602084013561354281613401565b929592945050506040919091013590565b60ff81168114610ca1575f5ffd5b61ffff81168114610ca1575f5ffd5b5f5f5f60608486031215613582575f5ffd5b833561358d81613553565b9250602084013561359d81613561565b915060408401356135ad81613561565b809150509250925092565b5f8151808452602084019350602083015f5b828110156135f15781516001600160a01b03168652602095860195909101906001016135ca565b5093949350505050565b602081525f610f2c60208301846135b8565b5f5f6040838503121561361e575f5ffd5b82359150602083013561363081613401565b809150509250929050565b5f5f5f6060848603121561364d575f5ffd5b83359250602084013591506040840135600481106135ad575f5ffd5b634e487b7160e01b5f52602160045260245ffd5b608081016005861061369d57634e487b7160e01b5f52602160045260245ffd5b94815261ffff93841660208201529190921660408201526060015290565b5f5f602083850312156136cc575f5ffd5b82356001600160401b038111156136e1575f5ffd5b6136ed8582860161347a565b90969095509350505050565b5f5f5f6060848603121561370b575f5ffd5b83359250602084013561371d81613401565b915060408401356135ad81613401565b604081525f61373f60408301856135b8565b82810360208401528084518083526020830191506020860192505f5b8181101561377f57835163ffffffff1683526020938401939092019160010161375b565b50909695505050505050565b604081525f61379d60408301856135b8565b82810360208401528084518083526020830191506020860192505f5b8181101561377f5783518352602093840193909201916001016137b9565b5f5f604083850312156137e8575f5ffd5b82356137f381613401565b9150602083013561363081613401565b634e487b7160e01b5f52603260045260245ffd5b5f60208284031215613827575f5ffd5b81518015158114610f2c575f5ffd5b602080825281018290525f8360408301825b8581101561387857823561385b81613401565b6001600160a01b0316825260209283019290910190600101613848565b5095945050505050565b600181811c9082168061389657607f821691505b6020821081036138b457634e487b7160e01b5f52602260045260245ffd5b50919050565b634e487b7160e01b5f52604160045260245ffd5b604080519081016001600160401b03811182821017156138f0576138f06138ba565b60405290565b604051601f8201601f191681016001600160401b038111828210171561391e5761391e6138ba565b604052919050565b5f6001600160401b0382111561393e5761393e6138ba565b5060051b60200190565b5f60208284031215613958575f5ffd5b81516001600160401b0381111561396d575f5ffd5b8201601f8101841361397d575f5ffd5b805161399061398b82613926565b6138f6565b8082825260208201915060208360051b8501019250868311156139b1575f5ffd5b6020840193505b82841015612aa25783516139cb81613401565b8252602093840193909101906139b8565b5f602082840312156139ec575f5ffd5b5051919050565b6001600160a01b039384168152919092166020820152604081019190915260600190565b634e487b7160e01b5f52601160045260245ffd5b808201808211156108ef576108ef613a17565b63ffffffff81168114610ca1575f5ffd5b5f60208284031215613a5f575f5ffd5b8135610f2c81613a3e565b6001815b6001841115613aa557808504811115613a8957613a89613a17565b6001841615613a9757908102905b60019390931c928002613a6e565b935093915050565b5f82613abb575060016108ef565b81613ac757505f6108ef565b8160018114613add5760028114613ae757613b03565b60019150506108ef565b60ff841115613af857613af8613a17565b50506001821b6108ef565b5060208310610133831016604e8410600b8410161715613b26575081810a6108ef565b613b325f198484613a6a565b805f1904821115613b4557613b45613a17565b029392505050565b5f610f2c60ff841683613aad565b818103818111156108ef576108ef613a17565b5f60208284031215613b7e575f5ffd5b8151610f2c81613561565b6001600160a01b03929092168252602082015260400190565b6001600160a01b039390931683526020830191909152604082015260600190565b5f60208284031215613bd3575f5ffd5b8151610f2c81613553565b60ff82811682821603908111156108ef576108ef613a17565b634e487b7160e01b5f52601260045260245ffd5b5f60208284031215613c1b575f5ffd5b81516001600160401b03811115613c30575f5ffd5b8201601f81018413613c40575f5ffd5b8051613c4e61398b82613926565b8082825260208201915060208360061b850101925086831115613c6f575f5ffd5b6020840193505b82841015612aa25760408488031215613c8d575f5ffd5b613c956138ce565b8451613ca081613401565b81526020850151613cb081613a3e565b8060208301525080835250602082019150604084019350613c76565b5f61ffff821661ffff8103613ce357613ce3613a17565b60010192915050565b5f60208284031215613cfc575f5ffd5b8151610f2c81613a3e565b5f60ff831680613d2557634e487b7160e01b5f52601260045260245ffd5b8060ff84160691505092915050565b634e487b7160e01b5f52603160045260245ffdfea26469706673582212200d70214623a93ebb7a0339ea717e4efff25fc707b0bf49637db2a645e64d536164736f6c634300081c0033",
  "linkReferences": {},
  "deployedLinkReferences": {}
}