{
  "_format": "hh-sol-artifact-1",
  "contractName": "OrionTransparentVault",
  "sourceName": "contracts/vaults/OrionTransparentVault.sol",
  "abi": [
    {
      "inputs": [
        {
          "internalType": "address",
          "name": "vaultOwner",
          "type": "address"
        },
        {
          "internalType": "address",
          "name": "curator",
          "type": "address"
        },
        {
          "internalType": "contract IOrionConfig",
          "name": "configAddress",
          "type": "address"
        },
        {
          "internalType": "string",
          "name": "name",
          "type": "string"
        },
        {
          "internalType": "string",
          "name": "symbol",
          "type": "string"
        },
        {
          "internalType": "uint8",
          "name": "feeType",
          "type": "uint8"
        },
        {
          "internalType": "uint16",
          "name": "performanceFee",
          "type": "uint16"
        },
        {
          "internalType": "uint16",
          "name": "managementFee",
          "type": "uint16"
        }
      ],
      "stateMutability": "nonpayable",
      "type": "constructor"
    },
    {
      "inputs": [],
      "name": "AlreadyRegistered",
      "type": "error"
    },
    {
      "inputs": [
        {
          "internalType": "address",
          "name": "asset",
          "type": "address"
        }
      ],
      "name": "AmountMustBeGreaterThanZero",
      "type": "error"
    },
    {
      "inputs": [
        {
          "internalType": "uint256",
          "name": "amount",
          "type": "uint256"
        },
        {
          "internalType": "uint256",
          "name": "minimum",
          "type": "uint256"
        }
      ],
      "name": "BelowMinimumDeposit",
      "type": "error"
    },
    {
      "inputs": [
        {
          "internalType": "uint256",
          "name": "amount",
          "type": "uint256"
        },
        {
          "internalType": "uint256",
          "name": "minimum",
          "type": "uint256"
        }
      ],
      "name": "BelowMinimumRedeem",
      "type": "error"
    },
    {
      "inputs": [
        {
          "internalType": "address",
          "name": "spender",
          "type": "address"
        },
        {
          "internalType": "uint256",
          "name": "allowance",
          "type": "uint256"
        },
        {
          "internalType": "uint256",
          "name": "needed",
          "type": "uint256"
        }
      ],
      "name": "ERC20InsufficientAllowance",
      "type": "error"
    },
    {
      "inputs": [
        {
          "internalType": "address",
          "name": "sender",
          "type": "address"
        },
        {
          "internalType": "uint256",
          "name": "balance",
          "type": "uint256"
        },
        {
          "internalType": "uint256",
          "name": "needed",
          "type": "uint256"
        }
      ],
      "name": "ERC20InsufficientBalance",
      "type": "error"
    },
    {
      "inputs": [
        {
          "internalType": "address",
          "name": "approver",
          "type": "address"
        }
      ],
      "name": "ERC20InvalidApprover",
      "type": "error"
    },
    {
      "inputs": [
        {
          "internalType": "address",
          "name": "receiver",
          "type": "address"
        }
      ],
      "name": "ERC20InvalidReceiver",
      "type": "error"
    },
    {
      "inputs": [
        {
          "internalType": "address",
          "name": "sender",
          "type": "address"
        }
      ],
      "name": "ERC20InvalidSender",
      "type": "error"
    },
    {
      "inputs": [
        {
          "internalType": "address",
          "name": "spender",
          "type": "address"
        }
      ],
      "name": "ERC20InvalidSpender",
      "type": "error"
    },
    {
      "inputs": [
        {
          "internalType": "address",
          "name": "receiver",
          "type": "address"
        },
        {
          "internalType": "uint256",
          "name": "assets",
          "type": "uint256"
        },
        {
          "internalType": "uint256",
          "name": "max",
          "type": "uint256"
        }
      ],
      "name": "ERC4626ExceededMaxDeposit",
      "type": "error"
    },
    {
      "inputs": [
        {
          "internalType": "address",
          "name": "receiver",
          "type": "address"
        },
        {
          "internalType": "uint256",
          "name": "shares",
          "type": "uint256"
        },
        {
          "internalType": "uint256",
          "name": "max",
          "type": "uint256"
        }
      ],
      "name": "ERC4626ExceededMaxMint",
      "type": "error"
    },
    {
      "inputs": [
        {
          "internalType": "address",
          "name": "owner",
          "type": "address"
        },
        {
          "internalType": "uint256",
          "name": "shares",
          "type": "uint256"
        },
        {
          "internalType": "uint256",
          "name": "max",
          "type": "uint256"
        }
      ],
      "name": "ERC4626ExceededMaxRedeem",
      "type": "error"
    },
    {
      "inputs": [
        {
          "internalType": "address",
          "name": "owner",
          "type": "address"
        },
        {
          "internalType": "uint256",
          "name": "assets",
          "type": "uint256"
        },
        {
          "internalType": "uint256",
          "name": "max",
          "type": "uint256"
        }
      ],
      "name": "ERC4626ExceededMaxWithdraw",
      "type": "error"
    },
    {
      "inputs": [],
      "name": "InsufficientAmount",
      "type": "error"
    },
    {
      "inputs": [],
      "name": "InvalidAddress",
      "type": "error"
    },
    {
      "inputs": [],
      "name": "InvalidArguments",
      "type": "error"
    },
    {
      "inputs": [],
      "name": "InvalidTotalWeight",
      "type": "error"
    },
    {
      "inputs": [],
      "name": "InvalidUnderlyingDecimals",
      "type": "error"
    },
    {
      "inputs": [],
      "name": "NotAuthorized",
      "type": "error"
    },
    {
      "inputs": [],
      "name": "OrderIntentCannotBeEmpty",
      "type": "error"
    },
    {
      "inputs": [],
      "name": "ReentrancyGuardReentrantCall",
      "type": "error"
    },
    {
      "inputs": [
        {
          "internalType": "address",
          "name": "token",
          "type": "address"
        }
      ],
      "name": "SafeERC20FailedOperation",
      "type": "error"
    },
    {
      "inputs": [],
      "name": "SynchronousCallDisabled",
      "type": "error"
    },
    {
      "inputs": [],
      "name": "SystemNotIdle",
      "type": "error"
    },
    {
      "inputs": [
        {
          "internalType": "address",
          "name": "token",
          "type": "address"
        }
      ],
      "name": "TokenAlreadyInOrder",
      "type": "error"
    },
    {
      "inputs": [
        {
          "internalType": "address",
          "name": "token",
          "type": "address"
        }
      ],
      "name": "TokenNotWhitelisted",
      "type": "error"
    },
    {
      "inputs": [],
      "name": "UnauthorizedAccess",
      "type": "error"
    },
    {
      "anonymous": false,
      "inputs": [
        {
          "indexed": true,
          "internalType": "address",
          "name": "owner",
          "type": "address"
        },
        {
          "indexed": true,
          "internalType": "address",
          "name": "spender",
          "type": "address"
        },
        {
          "indexed": false,
          "internalType": "uint256",
          "name": "value",
          "type": "uint256"
        }
      ],
      "name": "Approval",
      "type": "event"
    },
    {
      "anonymous": false,
      "inputs": [
        {
          "indexed": true,
          "internalType": "uint256",
          "name": "epoch",
          "type": "uint256"
        },
        {
          "indexed": true,
          "internalType": "uint256",
          "name": "feeAmount",
          "type": "uint256"
        },
        {
          "indexed": true,
          "internalType": "uint256",
          "name": "pendingCuratorFees",
          "type": "uint256"
        }
      ],
      "name": "CuratorFeesAccrued",
      "type": "event"
    },
    {
      "anonymous": false,
      "inputs": [
        {
          "indexed": true,
          "internalType": "address",
          "name": "newCurator",
          "type": "address"
        }
      ],
      "name": "CuratorUpdated",
      "type": "event"
    },
    {
      "anonymous": false,
      "inputs": [
        {
          "indexed": true,
          "internalType": "address",
          "name": "sender",
          "type": "address"
        },
        {
          "indexed": true,
          "internalType": "address",
          "name": "owner",
          "type": "address"
        },
        {
          "indexed": false,
          "internalType": "uint256",
          "name": "assets",
          "type": "uint256"
        },
        {
          "indexed": false,
          "internalType": "uint256",
          "name": "shares",
          "type": "uint256"
        }
      ],
      "name": "Deposit",
      "type": "event"
    },
    {
      "anonymous": false,
      "inputs": [
        {
          "indexed": true,
          "internalType": "address",
          "name": "vault",
          "type": "address"
        },
        {
          "indexed": true,
          "internalType": "address",
          "name": "user",
          "type": "address"
        },
        {
          "indexed": true,
          "internalType": "uint256",
          "name": "epoch",
          "type": "uint256"
        },
        {
          "indexed": false,
          "internalType": "uint256",
          "name": "depositAmount",
          "type": "uint256"
        },
        {
          "indexed": false,
          "internalType": "uint256",
          "name": "sharesMinted",
          "type": "uint256"
        }
      ],
      "name": "Deposit",
      "type": "event"
    },
    {
      "anonymous": false,
      "inputs": [
        {
          "indexed": true,
          "internalType": "address",
          "name": "sender",
          "type": "address"
        },
        {
          "indexed": true,
          "internalType": "uint256",
          "name": "assets",
          "type": "uint256"
        }
      ],
      "name": "DepositRequest",
      "type": "event"
    },
    {
      "anonymous": false,
      "inputs": [
        {
          "indexed": true,
          "internalType": "address",
          "name": "user",
          "type": "address"
        },
        {
          "indexed": true,
          "internalType": "uint256",
          "name": "amount",
          "type": "uint256"
        }
      ],
      "name": "DepositRequestCancelled",
      "type": "event"
    },
    {
      "anonymous": false,
      "inputs": [
        {
          "indexed": true,
          "internalType": "uint8",
          "name": "mode",
          "type": "uint8"
        },
        {
          "indexed": true,
          "internalType": "uint16",
          "name": "performanceFee",
          "type": "uint16"
        },
        {
          "indexed": true,
          "internalType": "uint16",
          "name": "managementFee",
          "type": "uint16"
        }
      ],
      "name": "FeeModelUpdated",
      "type": "event"
    },
    {
      "anonymous": false,
      "inputs": [
        {
          "indexed": true,
          "internalType": "address",
          "name": "curator",
          "type": "address"
        }
      ],
      "name": "OrderSubmitted",
      "type": "event"
    },
    {
      "anonymous": false,
      "inputs": [
        {
          "indexed": true,
          "internalType": "address",
          "name": "vault",
          "type": "address"
        },
        {
          "indexed": true,
          "internalType": "address",
          "name": "user",
          "type": "address"
        },
        {
          "indexed": true,
          "internalType": "uint256",
          "name": "epoch",
          "type": "uint256"
        },
        {
          "indexed": false,
          "internalType": "uint256",
          "name": "redeemAmount",
          "type": "uint256"
        },
        {
          "indexed": false,
          "internalType": "uint256",
          "name": "sharesBurned",
          "type": "uint256"
        }
      ],
      "name": "Redeem",
      "type": "event"
    },
    {
      "anonymous": false,
      "inputs": [
        {
          "indexed": true,
          "internalType": "address",
          "name": "sender",
          "type": "address"
        },
        {
          "indexed": true,
          "internalType": "uint256",
          "name": "shares",
          "type": "uint256"
        }
      ],
      "name": "RedeemRequest",
      "type": "event"
    },
    {
      "anonymous": false,
      "inputs": [
        {
          "indexed": true,
          "internalType": "address",
          "name": "user",
          "type": "address"
        },
        {
          "indexed": true,
          "internalType": "uint256",
          "name": "shares",
          "type": "uint256"
        }
      ],
      "name": "RedeemRequestCancelled",
      "type": "event"
    },
    {
      "anonymous": false,
      "inputs": [
        {
          "indexed": true,
          "internalType": "address",
          "name": "from",
          "type": "address"
        },
        {
          "indexed": true,
          "internalType": "address",
          "name": "to",
          "type": "address"
        },
        {
          "indexed": false,
          "internalType": "uint256",
          "name": "value",
          "type": "uint256"
        }
      ],
      "name": "Transfer",
      "type": "event"
    },
    {
      "anonymous": false,
      "inputs": [
        {
          "indexed": true,
          "internalType": "address",
          "name": "vault",
          "type": "address"
        }
      ],
      "name": "VaultFeeChangeScheduled",
      "type": "event"
    },
    {
      "anonymous": false,
      "inputs": [
        {
          "indexed": true,
          "internalType": "uint256",
          "name": "newTotalAssets",
          "type": "uint256"
        }
      ],
      "name": "VaultStateUpdated",
      "type": "event"
    },
    {
      "anonymous": false,
      "inputs": [
        {
          "indexed": false,
          "internalType": "address[]",
          "name": "assets",
          "type": "address[]"
        }
      ],
      "name": "VaultWhitelistUpdated",
      "type": "event"
    },
    {
      "anonymous": false,
      "inputs": [
        {
          "indexed": true,
          "internalType": "address",
          "name": "sender",
          "type": "address"
        },
        {
          "indexed": true,
          "internalType": "address",
          "name": "receiver",
          "type": "address"
        },
        {
          "indexed": true,
          "internalType": "address",
          "name": "owner",
          "type": "address"
        },
        {
          "indexed": false,
          "internalType": "uint256",
          "name": "assets",
          "type": "uint256"
        },
        {
          "indexed": false,
          "internalType": "uint256",
          "name": "shares",
          "type": "uint256"
        }
      ],
      "name": "Withdraw",
      "type": "event"
    },
    {
      "inputs": [],
      "name": "BASIS_POINTS_FACTOR",
      "outputs": [
        {
          "internalType": "uint16",
          "name": "",
          "type": "uint16"
        }
      ],
      "stateMutability": "view",
      "type": "function"
    },
    {
      "inputs": [],
      "name": "MAX_FULFILL_BATCH_SIZE",
      "outputs": [
        {
          "internalType": "uint16",
          "name": "",
          "type": "uint16"
        }
      ],
      "stateMutability": "view",
      "type": "function"
    },
    {
      "inputs": [],
      "name": "MAX_MANAGEMENT_FEE",
      "outputs": [
        {
          "internalType": "uint16",
          "name": "",
          "type": "uint16"
        }
      ],
      "stateMutability": "view",
      "type": "function"
    },
    {
      "inputs": [],
      "name": "MAX_PERFORMANCE_FEE",
      "outputs": [
        {
          "internalType": "uint16",
          "name": "",
          "type": "uint16"
        }
      ],
      "stateMutability": "view",
      "type": "function"
    },
    {
      "inputs": [],
      "name": "SHARE_DECIMALS",
      "outputs": [
        {
          "internalType": "uint8",
          "name": "",
          "type": "uint8"
        }
      ],
      "stateMutability": "view",
      "type": "function"
    },
    {
      "inputs": [],
      "name": "YEAR_IN_SECONDS",
      "outputs": [
        {
          "internalType": "uint32",
          "name": "",
          "type": "uint32"
        }
      ],
      "stateMutability": "view",
      "type": "function"
    },
    {
      "inputs": [
        {
          "internalType": "uint256",
          "name": "epoch",
          "type": "uint256"
        },
        {
          "internalType": "uint256",
          "name": "feeAmount",
          "type": "uint256"
        }
      ],
      "name": "accrueCuratorFees",
      "outputs": [],
      "stateMutability": "nonpayable",
      "type": "function"
    },
    {
      "inputs": [
        {
          "internalType": "address",
          "name": "owner",
          "type": "address"
        },
        {
          "internalType": "address",
          "name": "spender",
          "type": "address"
        }
      ],
      "name": "allowance",
      "outputs": [
        {
          "internalType": "uint256",
          "name": "",
          "type": "uint256"
        }
      ],
      "stateMutability": "view",
      "type": "function"
    },
    {
      "inputs": [
        {
          "internalType": "address",
          "name": "spender",
          "type": "address"
        },
        {
          "internalType": "uint256",
          "name": "value",
          "type": "uint256"
        }
      ],
      "name": "approve",
      "outputs": [
        {
          "internalType": "bool",
          "name": "",
          "type": "bool"
        }
      ],
      "stateMutability": "nonpayable",
      "type": "function"
    },
    {
      "inputs": [],
      "name": "asset",
      "outputs": [
        {
          "internalType": "address",
          "name": "",
          "type": "address"
        }
      ],
      "stateMutability": "view",
      "type": "function"
    },
    {
      "inputs": [
        {
          "internalType": "address",
          "name": "account",
          "type": "address"
        }
      ],
      "name": "balanceOf",
      "outputs": [
        {
          "internalType": "uint256",
          "name": "",
          "type": "uint256"
        }
      ],
      "stateMutability": "view",
      "type": "function"
    },
    {
      "inputs": [
        {
          "internalType": "uint256",
          "name": "amount",
          "type": "uint256"
        }
      ],
      "name": "cancelDepositRequest",
      "outputs": [],
      "stateMutability": "nonpayable",
      "type": "function"
    },
    {
      "inputs": [
        {
          "internalType": "uint256",
          "name": "shares",
          "type": "uint256"
        }
      ],
      "name": "cancelRedeemRequest",
      "outputs": [],
      "stateMutability": "nonpayable",
      "type": "function"
    },
    {
      "inputs": [
        {
          "internalType": "uint256",
          "name": "amount",
          "type": "uint256"
        }
      ],
      "name": "claimCuratorFees",
      "outputs": [],
      "stateMutability": "nonpayable",
      "type": "function"
    },
    {
      "inputs": [],
      "name": "config",
      "outputs": [
        {
          "internalType": "contract IOrionConfig",
          "name": "",
          "type": "address"
        }
      ],
      "stateMutability": "view",
      "type": "function"
    },
    {
      "inputs": [
        {
          "internalType": "uint256",
          "name": "shares",
          "type": "uint256"
        }
      ],
      "name": "convertToAssets",
      "outputs": [
        {
          "internalType": "uint256",
          "name": "",
          "type": "uint256"
        }
      ],
      "stateMutability": "view",
      "type": "function"
    },
    {
      "inputs": [
        {
          "internalType": "uint256",
          "name": "shares",
          "type": "uint256"
        },
        {
          "internalType": "uint256",
          "name": "pointInTimeTotalAssets",
          "type": "uint256"
        },
        {
          "internalType": "enum Math.Rounding",
          "name": "rounding",
          "type": "uint8"
        }
      ],
      "name": "convertToAssetsWithPITTotalAssets",
      "outputs": [
        {
          "internalType": "uint256",
          "name": "",
          "type": "uint256"
        }
      ],
      "stateMutability": "view",
      "type": "function"
    },
    {
      "inputs": [
        {
          "internalType": "uint256",
          "name": "assets",
          "type": "uint256"
        }
      ],
      "name": "convertToShares",
      "outputs": [
        {
          "internalType": "uint256",
          "name": "",
          "type": "uint256"
        }
      ],
      "stateMutability": "view",
      "type": "function"
    },
    {
      "inputs": [],
      "name": "curator",
      "outputs": [
        {
          "internalType": "address",
          "name": "",
          "type": "address"
        }
      ],
      "stateMutability": "view",
      "type": "function"
    },
    {
      "inputs": [
        {
          "internalType": "uint256",
          "name": "activeTotalAssets",
          "type": "uint256"
        }
      ],
      "name": "curatorFee",
      "outputs": [
        {
          "internalType": "uint256",
          "name": "",
          "type": "uint256"
        }
      ],
      "stateMutability": "view",
      "type": "function"
    },
    {
      "inputs": [],
      "name": "curatorIntentDecimals",
      "outputs": [
        {
          "internalType": "uint8",
          "name": "",
          "type": "uint8"
        }
      ],
      "stateMutability": "view",
      "type": "function"
    },
    {
      "inputs": [],
      "name": "decimals",
      "outputs": [
        {
          "internalType": "uint8",
          "name": "",
          "type": "uint8"
        }
      ],
      "stateMutability": "view",
      "type": "function"
    },
    {
      "inputs": [
        {
          "internalType": "uint256",
          "name": "",
          "type": "uint256"
        },
        {
          "internalType": "address",
          "name": "",
          "type": "address"
        }
      ],
      "name": "deposit",
      "outputs": [
        {
          "internalType": "uint256",
          "name": "",
          "type": "uint256"
        }
      ],
      "stateMutability": "pure",
      "type": "function"
    },
    {
      "inputs": [],
      "name": "feeModel",
      "outputs": [
        {
          "internalType": "enum OrionVault.FeeType",
          "name": "feeType",
          "type": "uint8"
        },
        {
          "internalType": "uint16",
          "name": "performanceFee",
          "type": "uint16"
        },
        {
          "internalType": "uint16",
          "name": "managementFee",
          "type": "uint16"
        },
        {
          "internalType": "uint256",
          "name": "highWaterMark",
          "type": "uint256"
        }
      ],
      "stateMutability": "view",
      "type": "function"
    },
    {
      "inputs": [
        {
          "internalType": "uint256",
          "name": "depositTotalAssets",
          "type": "uint256"
        }
      ],
      "name": "fulfillDeposit",
      "outputs": [],
      "stateMutability": "nonpayable",
      "type": "function"
    },
    {
      "inputs": [
        {
          "internalType": "uint256",
          "name": "redeemTotalAssets",
          "type": "uint256"
        }
      ],
      "name": "fulfillRedeem",
      "outputs": [],
      "stateMutability": "nonpayable",
      "type": "function"
    },
    {
      "inputs": [],
      "name": "getIntent",
      "outputs": [
        {
          "internalType": "address[]",
          "name": "tokens",
          "type": "address[]"
        },
        {
          "internalType": "uint32[]",
          "name": "weights",
          "type": "uint32[]"
        }
      ],
      "stateMutability": "view",
      "type": "function"
    },
    {
      "inputs": [],
      "name": "getPortfolio",
      "outputs": [
        {
          "internalType": "address[]",
          "name": "tokens",
          "type": "address[]"
        },
        {
          "internalType": "uint256[]",
          "name": "sharesPerAsset",
          "type": "uint256[]"
        }
      ],
      "stateMutability": "view",
      "type": "function"
    },
    {
      "inputs": [],
      "name": "internalStatesOrchestrator",
      "outputs": [
        {
          "internalType": "contract IInternalStateOrchestrator",
          "name": "",
          "type": "address"
        }
      ],
      "stateMutability": "view",
      "type": "function"
    },
    {
      "inputs": [],
      "name": "isDecommissioning",
      "outputs": [
        {
          "internalType": "bool",
          "name": "",
          "type": "bool"
        }
      ],
      "stateMutability": "view",
      "type": "function"
    },
    {
      "inputs": [],
      "name": "liquidityOrchestrator",
      "outputs": [
        {
          "internalType": "contract ILiquidityOrchestrator",
          "name": "",
          "type": "address"
        }
      ],
      "stateMutability": "view",
      "type": "function"
    },
    {
      "inputs": [
        {
          "internalType": "address",
          "name": "",
          "type": "address"
        }
      ],
      "name": "maxDeposit",
      "outputs": [
        {
          "internalType": "uint256",
          "name": "",
          "type": "uint256"
        }
      ],
      "stateMutability": "view",
      "type": "function"
    },
    {
      "inputs": [
        {
          "internalType": "address",
          "name": "",
          "type": "address"
        }
      ],
      "name": "maxMint",
      "outputs": [
        {
          "internalType": "uint256",
          "name": "",
          "type": "uint256"
        }
      ],
      "stateMutability": "view",
      "type": "function"
    },
    {
      "inputs": [
        {
          "internalType": "address",
          "name": "owner",
          "type": "address"
        }
      ],
      "name": "maxRedeem",
      "outputs": [
        {
          "internalType": "uint256",
          "name": "",
          "type": "uint256"
        }
      ],
      "stateMutability": "view",
      "type": "function"
    },
    {
      "inputs": [
        {
          "internalType": "address",
          "name": "owner",
          "type": "address"
        }
      ],
      "name": "maxWithdraw",
      "outputs": [
        {
          "internalType": "uint256",
          "name": "",
          "type": "uint256"
        }
      ],
      "stateMutability": "view",
      "type": "function"
    },
    {
      "inputs": [
        {
          "internalType": "uint256",
          "name": "",
          "type": "uint256"
        },
        {
          "internalType": "address",
          "name": "",
          "type": "address"
        }
      ],
      "name": "mint",
      "outputs": [
        {
          "internalType": "uint256",
          "name": "",
          "type": "uint256"
        }
      ],
      "stateMutability": "pure",
      "type": "function"
    },
    {
      "inputs": [],
      "name": "name",
      "outputs": [
        {
          "internalType": "string",
          "name": "",
          "type": "string"
        }
      ],
      "stateMutability": "view",
      "type": "function"
    },
    {
      "inputs": [],
      "name": "newFeeRatesTimestamp",
      "outputs": [
        {
          "internalType": "uint256",
          "name": "",
          "type": "uint256"
        }
      ],
      "stateMutability": "view",
      "type": "function"
    },
    {
      "inputs": [],
      "name": "overrideIntentForDecommissioning",
      "outputs": [],
      "stateMutability": "nonpayable",
      "type": "function"
    },
    {
      "inputs": [],
      "name": "pendingCuratorFees",
      "outputs": [
        {
          "internalType": "uint256",
          "name": "",
          "type": "uint256"
        }
      ],
      "stateMutability": "view",
      "type": "function"
    },
    {
      "inputs": [],
      "name": "pendingDeposit",
      "outputs": [
        {
          "internalType": "uint256",
          "name": "",
          "type": "uint256"
        }
      ],
      "stateMutability": "view",
      "type": "function"
    },
    {
      "inputs": [],
      "name": "pendingRedeem",
      "outputs": [
        {
          "internalType": "uint256",
          "name": "",
          "type": "uint256"
        }
      ],
      "stateMutability": "view",
      "type": "function"
    },
    {
      "inputs": [
        {
          "internalType": "uint256",
          "name": "assets",
          "type": "uint256"
        }
      ],
      "name": "previewDeposit",
      "outputs": [
        {
          "internalType": "uint256",
          "name": "",
          "type": "uint256"
        }
      ],
      "stateMutability": "view",
      "type": "function"
    },
    {
      "inputs": [
        {
          "internalType": "uint256",
          "name": "shares",
          "type": "uint256"
        }
      ],
      "name": "previewMint",
      "outputs": [
        {
          "internalType": "uint256",
          "name": "",
          "type": "uint256"
        }
      ],
      "stateMutability": "view",
      "type": "function"
    },
    {
      "inputs": [
        {
          "internalType": "uint256",
          "name": "shares",
          "type": "uint256"
        }
      ],
      "name": "previewRedeem",
      "outputs": [
        {
          "internalType": "uint256",
          "name": "",
          "type": "uint256"
        }
      ],
      "stateMutability": "view",
      "type": "function"
    },
    {
      "inputs": [
        {
          "internalType": "uint256",
          "name": "assets",
          "type": "uint256"
        }
      ],
      "name": "previewWithdraw",
      "outputs": [
        {
          "internalType": "uint256",
          "name": "",
          "type": "uint256"
        }
      ],
      "stateMutability": "view",
      "type": "function"
    },
    {
      "inputs": [
        {
          "internalType": "uint256",
          "name": "shares",
          "type": "uint256"
        },
        {
          "internalType": "address",
          "name": "receiver",
          "type": "address"
        },
        {
          "internalType": "address",
          "name": "owner",
          "type": "address"
        }
      ],
      "name": "redeem",
      "outputs": [
        {
          "internalType": "uint256",
          "name": "",
          "type": "uint256"
        }
      ],
      "stateMutability": "nonpayable",
      "type": "function"
    },
    {
      "inputs": [
        {
          "internalType": "address",
          "name": "asset",
          "type": "address"
        }
      ],
      "name": "removeFromVaultWhitelist",
      "outputs": [],
      "stateMutability": "nonpayable",
      "type": "function"
    },
    {
      "inputs": [
        {
          "internalType": "uint256",
          "name": "assets",
          "type": "uint256"
        }
      ],
      "name": "requestDeposit",
      "outputs": [],
      "stateMutability": "nonpayable",
      "type": "function"
    },
    {
      "inputs": [
        {
          "internalType": "uint256",
          "name": "shares",
          "type": "uint256"
        }
      ],
      "name": "requestRedeem",
      "outputs": [],
      "stateMutability": "nonpayable",
      "type": "function"
    },
    {
      "inputs": [
        {
          "components": [
            {
              "internalType": "address",
              "name": "token",
              "type": "address"
            },
            {
              "internalType": "uint32",
              "name": "weight",
              "type": "uint32"
            }
          ],
          "internalType": "struct IOrionTransparentVault.IntentPosition[]",
          "name": "intent",
          "type": "tuple[]"
        }
      ],
      "name": "submitIntent",
      "outputs": [],
      "stateMutability": "nonpayable",
      "type": "function"
    },
    {
      "inputs": [],
      "name": "symbol",
      "outputs": [
        {
          "internalType": "string",
          "name": "",
          "type": "string"
        }
      ],
      "stateMutability": "view",
      "type": "function"
    },
    {
      "inputs": [],
      "name": "totalAssets",
      "outputs": [
        {
          "internalType": "uint256",
          "name": "",
          "type": "uint256"
        }
      ],
      "stateMutability": "view",
      "type": "function"
    },
    {
      "inputs": [],
      "name": "totalSupply",
      "outputs": [
        {
          "internalType": "uint256",
          "name": "",
          "type": "uint256"
        }
      ],
      "stateMutability": "view",
      "type": "function"
    },
    {
      "inputs": [
        {
          "internalType": "address",
          "name": "to",
          "type": "address"
        },
        {
          "internalType": "uint256",
          "name": "value",
          "type": "uint256"
        }
      ],
      "name": "transfer",
      "outputs": [
        {
          "internalType": "bool",
          "name": "",
          "type": "bool"
        }
      ],
      "stateMutability": "nonpayable",
      "type": "function"
    },
    {
      "inputs": [
        {
          "internalType": "address",
          "name": "from",
          "type": "address"
        },
        {
          "internalType": "address",
          "name": "to",
          "type": "address"
        },
        {
          "internalType": "uint256",
          "name": "value",
          "type": "uint256"
        }
      ],
      "name": "transferFrom",
      "outputs": [
        {
          "internalType": "bool",
          "name": "",
          "type": "bool"
        }
      ],
      "stateMutability": "nonpayable",
      "type": "function"
    },
    {
      "inputs": [
        {
          "internalType": "address",
          "name": "newCurator",
          "type": "address"
        }
      ],
      "name": "updateCurator",
      "outputs": [],
      "stateMutability": "nonpayable",
      "type": "function"
    },
    {
      "inputs": [
        {
          "internalType": "uint8",
          "name": "feeType",
          "type": "uint8"
        },
        {
          "internalType": "uint16",
          "name": "performanceFee",
          "type": "uint16"
        },
        {
          "internalType": "uint16",
          "name": "managementFee",
          "type": "uint16"
        }
      ],
      "name": "updateFeeModel",
      "outputs": [],
      "stateMutability": "nonpayable",
      "type": "function"
    },
    {
      "inputs": [
        {
          "components": [
            {
              "internalType": "address",
              "name": "token",
              "type": "address"
            },
            {
              "internalType": "uint256",
              "name": "shares",
              "type": "uint256"
            }
          ],
          "internalType": "struct IOrionTransparentVault.PortfolioPosition[]",
          "name": "portfolio",
          "type": "tuple[]"
        },
        {
          "internalType": "uint256",
          "name": "newTotalAssets",
          "type": "uint256"
        }
      ],
      "name": "updateVaultState",
      "outputs": [],
      "stateMutability": "nonpayable",
      "type": "function"
    },
    {
      "inputs": [
        {
          "internalType": "address[]",
          "name": "assets",
          "type": "address[]"
        }
      ],
      "name": "updateVaultWhitelist",
      "outputs": [],
      "stateMutability": "nonpayable",
      "type": "function"
    },
    {
      "inputs": [],
      "name": "vaultOwner",
      "outputs": [
        {
          "internalType": "address",
          "name": "",
          "type": "address"
        }
      ],
      "stateMutability": "view",
      "type": "function"
    },
    {
      "inputs": [],
      "name": "vaultWhitelist",
      "outputs": [
        {
          "internalType": "address[]",
          "name": "",
          "type": "address[]"
        }
      ],
      "stateMutability": "view",
      "type": "function"
    },
    {
      "inputs": [
        {
          "internalType": "uint256",
          "name": "",
          "type": "uint256"
        },
        {
          "internalType": "address",
          "name": "",
          "type": "address"
        },
        {
          "internalType": "address",
          "name": "",
          "type": "address"
        }
      ],
      "name": "withdraw",
      "outputs": [
        {
          "internalType": "uint256",
          "name": "",
          "type": "uint256"
        }
      ],
      "stateMutability": "pure",
      "type": "function"
    }
  ],
  "bytecode": "0x60c060405234801561000f575f5ffd5b50604051614cde380380614cde83398101604081905261002e916109c3565b8787878787878787856001600160a01b0316637158da7c6040518163ffffffff1660e01b8152600401602060405180830381865afa158015610072573d5f5f3e3d5ffd5b505050506040513d601f19601f820116820180604052508101906100969190610a92565b858560036100a48382610b38565b5060046100b18282610b38565b5050505f5f6100c58361067f60201b60201c565b91509150816100d55760126100d7565b805b60ff1660a05250506001600160a01b03908116608052600160055587166101115760405163e6c4247b60e01b815260040160405180910390fd5b6001600160a01b0386166101385760405163e6c4247b60e01b815260040160405180910390fd5b600680546001600160a01b03808b166001600160a01b031992831617909255600780548a841690831617905560088054928916929091168217905560408051630691d8b960e31b8152905163348ec5c8916004808201926020929091908290030181865afa1580156101ac573d5f5f3e3d5ffd5b505050506040513d601f19601f820116820180604052508101906101d09190610a92565b60095f6101000a8154816001600160a01b0302191690836001600160a01b03160217905550856001600160a01b0316633a0dad8e6040518163ffffffff1660e01b8152600401602060405180830381865afa158015610231573d5f5f3e3d5ffd5b505050506040513d601f19601f820116820180604052508101906102559190610a92565b600a5f6101000a8154816001600160a01b0302191690836001600160a01b03160217905550856001600160a01b031663d1717c7d6040518163ffffffff1660e01b8152600401602060405180830381865afa1580156102b6573d5f5f3e3d5ffd5b505050506040513d601f19601f820116820180604052508101906102da9190610bf2565b600a60146101000a81548160ff021916908360ff1602179055505f600d819055505f6014819055505f6015819055505f866001600160a01b0316637158da7c6040518163ffffffff1660e01b8152600401602060405180830381865afa158015610346573d5f5f3e3d5ffd5b505050506040513d601f19601f8201168201806040525081019061036a9190610a92565b6001600160a01b031663313ce5676040518163ffffffff1660e01b8152600401602060405180830381865afa1580156103a5573d5f5f3e3d5ffd5b505050506040513d601f19601f820116820180604052508101906103c99190610bf2565b9050601260ff821611156103f057604051631c03248960e11b815260040160405180910390fd5b600460ff85161115610415576040516317dbc4cb60e21b815260040160405180910390fd5b610bb861ffff8416111561043c576040516317dbc4cb60e21b815260040160405180910390fd5b61012c61ffff83161115610463576040516317dbc4cb60e21b815260040160405180910390fd5b8360ff16600481111561047857610478610c0b565b6017805460ff1916600183600481111561049457610494610c0b565b02179055506017805461ffff84811663010000000264ffff00000019918716610100029190911664ffffffff0019909216919091171790556104d781600a610d16565b60185560178054601a8054909160ff1690829060ff1916600183600481111561050257610502610c0b565b02179055508154815461ffff61010092839004811690920262ffff0019821681178455845463010000009081900490931690920264ffff0000001990921664ffffffff00199091161717815560019182015491015542601955610563610755565b50505050505050505061067160085f9054906101000a90046001600160a01b03166001600160a01b0316637158da7c6040518163ffffffff1660e01b8152600401602060405180830381865afa1580156105bf573d5f5f3e3d5ffd5b505050506040513d601f19601f820116820180604052508101906105e39190610a92565b60085f9054906101000a90046001600160a01b03166001600160a01b031663d1717c7d6040518163ffffffff1660e01b8152600401602060405180830381865afa158015610633573d5f5f3e3d5ffd5b505050506040513d601f19601f820116820180604052508101906106579190610bf2565b61066290600a610d16565b6020919063ffffffff1661082a565b505050505050505050610e17565b60408051600481526024810182526020810180516001600160e01b031663313ce56760e01b17905290515f918291829182916001600160a01b038716916106c591610d24565b5f60405180830381855afa9150503d805f81146106fd576040519150601f19603f3d011682016040523d82523d5f602084013e610702565b606091505b509150915081801561071657506020815110155b15610749575f818060200190518101906107309190610d3a565b905060ff8111610747576001969095509350505050565b505b505f9485945092505050565b60085460408051636c366a2760e11b815290515f926001600160a01b03169163d86cd44e91600480830192869291908290030181865afa15801561079b573d5f5f3e3d5ffd5b505050506040513d5f823e601f3d908101601f191682016040526107c29190810190610d51565b90505f5b8151811015610826575f6107fd8383815181106107e5576107e5610e03565b6020026020010151600b61084760201b90919060201c565b90508061081d57604051630ea075bf60e21b815260040160405180910390fd5b506001016107c6565b5050565b5f61083f846001600160a01b03851684610864565b949350505050565b5f61085b836001600160a01b038416610880565b90505b92915050565b5f828152600284016020526040812082905561083f84846108cc565b5f8181526001830160205260408120546108c557508154600181810184555f84815260208082209093018490558454848252828601909352604090209190915561085e565b505f61085e565b5f61085b8383610880565b6001600160a01b03811681146108eb575f5ffd5b50565b634e487b7160e01b5f52604160045260245ffd5b604051601f8201601f191681016001600160401b038111828210171561092a5761092a6108ee565b604052919050565b5f82601f830112610941575f5ffd5b81516001600160401b0381111561095a5761095a6108ee565b61096d601f8201601f1916602001610902565b818152846020838601011115610981575f5ffd5b8160208501602083015e5f918101602001919091529392505050565b805160ff811681146109ad575f5ffd5b919050565b805161ffff811681146109ad575f5ffd5b5f5f5f5f5f5f5f5f610100898b0312156109db575f5ffd5b88516109e6816108d7565b60208a01519098506109f7816108d7565b60408a0151909750610a08816108d7565b60608a01519096506001600160401b03811115610a23575f5ffd5b610a2f8b828c01610932565b60808b015190965090506001600160401b03811115610a4c575f5ffd5b610a588b828c01610932565b945050610a6760a08a0161099d565b9250610a7560c08a016109b2565b9150610a8360e08a016109b2565b90509295985092959890939650565b5f60208284031215610aa2575f5ffd5b8151610aad816108d7565b9392505050565b600181811c90821680610ac857607f821691505b602082108103610ae657634e487b7160e01b5f52602260045260245ffd5b50919050565b601f821115610b3357805f5260205f20601f840160051c81016020851015610b115750805b601f840160051c820191505b81811015610b30575f8155600101610b1d565b50505b505050565b81516001600160401b03811115610b5157610b516108ee565b610b6581610b5f8454610ab4565b84610aec565b6020601f821160018114610b97575f8315610b805750848201515b5f19600385901b1c1916600184901b178455610b30565b5f84815260208120601f198516915b82811015610bc65787850151825560209485019460019092019101610ba6565b5084821015610be357868401515f19600387901b60f8161c191681555b50505050600190811b01905550565b5f60208284031215610c02575f5ffd5b61085b8261099d565b634e487b7160e01b5f52602160045260245ffd5b634e487b7160e01b5f52601160045260245ffd5b6001815b6001841115610c6e57808504811115610c5257610c52610c1f565b6001841615610c6057908102905b60019390931c928002610c37565b935093915050565b5f82610c845750600161085e565b81610c9057505f61085e565b8160018114610ca65760028114610cb057610ccc565b600191505061085e565b60ff841115610cc157610cc1610c1f565b50506001821b61085e565b5060208310610133831016604e8410600b8410161715610cef575081810a61085e565b610cfb5f198484610c33565b805f1904821115610d0e57610d0e610c1f565b029392505050565b5f61085b60ff841683610c76565b5f82518060208501845e5f920191825250919050565b5f60208284031215610d4a575f5ffd5b5051919050565b5f60208284031215610d61575f5ffd5b81516001600160401b03811115610d76575f5ffd5b8201601f81018413610d86575f5ffd5b80516001600160401b03811115610d9f57610d9f6108ee565b8060051b610daf60208201610902565b91825260208184018101929081019087841115610dca575f5ffd5b6020850194505b83851015610df85784519250610de6836108d7565b82825260209485019490910190610dd1565b979650505050505050565b634e487b7160e01b5f52603260045260245ffd5b60805160a051613ea9610e355f395f50505f610f3a0152613ea95ff3fe608060405234801561000f575f5ffd5b50600436106102e2575f3560e01c806395d89b411161018c57806395d89b411461051c57806397ee114414610524578063985ba4ae1461055a5780639908840c1461056d578063a68a526714610576578063a9059cbb14610589578063aa2f892d1461059c578063acdb3d51146105af578063b1bd7e2e146105b8578063b3d7f6b9146105cb578063b460af94146105de578063b6eba653146105ec578063ba08765214610602578063bdca916514610615578063c0b568e11461061e578063c3f0d30e14610631578063c63d75b61461045e578063c6e6f59214610644578063ca78e83914610657578063ce96cb771461065f578063d1717c7d14610672578063d3d0345814610686578063d82795481461069c578063d853365f146106a4578063d905777e146106ac578063dd62ed3e146106bf578063e3352c4c146106d2578063e51a85f6146106e5578063e5e97193146106f8578063e66f53b71461070b578063ef8b30f714610644578063f64c6f321461071e575f5ffd5b806301e1d114146102e657806303d44854146102fd57806306fdde031461031257806307a2d13a14610327578063095ea7b31461033a5780630a28a4771461035d5780630a605c6d146103705780630c6a62dd146103785780630d1e66671461038b5780630df571f71461039e57806318160ddd146103b157806318c21949146103b95780631f52692b146103cc57806323b872dd146103ec578063283c8168146103ff578063313ce56714610408578063348ec5c81461041d57806338d52e0f146104305780633a0dad8e146104385780633ab6d27c1461044b578063402d267d1461045e578063493a6e21146104725780634cdad506146103275780634e85b1351461048557806353a0bfdf1461049a5780636e553f65146104a757806370a08231146104ba5780637847ea53146104cd57806379502c55146104ed5780638f5c94651461050057806394bf804d146104a7575b5f5ffd5b600d545b6040519081526020015b60405180910390f35b61031061030b36600461365b565b610726565b005b61031a610975565b6040516102f491906136ca565b6102ea6103353660046136ff565b610a05565b61034d61034836600461372a565b610a16565b60405190151581526020016102f4565b6102ea61036b3660046136ff565b610a2d565b6015546102ea565b610310610386366004613754565b610a39565b6103106103993660046136ff565b610b39565b6103106103ac36600461376f565b610dc9565b6002546102ea565b6103106103c73660046136ff565b610e44565b6006546103df906001600160a01b031681565b6040516102f4919061378f565b61034d6103fa3660046137a3565b610f13565b6102ea60195481565b60125b60405160ff90911681526020016102f4565b6009546103df906001600160a01b031681565b6103df610f38565b600a546103df906001600160a01b031681565b6103106104593660046137fe565b610f5c565b6102ea61046c366004613754565b505f1990565b6103106104803660046136ff565b61120e565b61048d611439565b6040516102f49190613889565b601c5461034d9060ff1681565b6102ea6104b536600461389b565b61144a565b6102ea6104c8366004613754565b611464565b6104d86301e1338081565b60405163ffffffff90911681526020016102f4565b6008546103df906001600160a01b031681565b61050961271081565b60405161ffff90911681526020016102f4565b61031a61147e565b60175460185461054a9160ff81169161ffff610100830481169263010000009004169084565b6040516102f494939291906138dd565b61031061056836600461395b565b61148d565b61050961012c81565b6102ea6105843660046139a2565b61159a565b61034d61059736600461372a565b6115da565b6103106105aa3660046136ff565b6115e7565b6102ea60165481565b6103106105c63660046139d0565b6117d5565b6102ea6105d93660046136ff565b6119e0565b6102ea6104b5366004613a0e565b6105f46119ec565b6040516102f4929190613a42565b6102ea610610366004613a0e565b611ca6565b610509610bb881565b61031061062c3660046136ff565b611e9c565b61031061063f3660046136ff565b612054565b6102ea6106523660046136ff565b6121cc565b6103106121d7565b6102ea61066d366004613754565b612211565b600a5461040b90600160a01b900460ff1681565b61068e612224565b6040516102f4929190613aa0565b610509609681565b61040b601281565b6102ea6106ba366004613754565b61234e565b6102ea6106cd366004613aec565b612358565b6103106106e0366004613754565b612382565b6102ea6106f33660046136ff565b61248d565b6103106107063660046136ff565b6124c6565b6007546103df906001600160a01b031681565b6014546102ea565b6006546001600160a01b0316331461075157604051631a27eac360e11b815260040160405180910390fd5b61075b600b61267e565b5f5b8181101561085b575f83838381811061077857610778613b18565b905060200201602081019061078d9190613754565b600854604051633af32abf60e01b81529192506001600160a01b031690633af32abf906107be90849060040161378f565b602060405180830381865afa1580156107d9573d5f5f3e3d5ffd5b505050506040513d601f19601f820116820180604052508101906107fd9190613b2c565b610825578060405163751dff9760e11b815260040161081c919061378f565b60405180910390fd5b5f610831600b83612687565b90508061085157604051630ea075bf60e21b815260040160405180910390fd5b505060010161075d565b506108c7306001600160a01b03166338d52e0f6040518163ffffffff1660e01b8152600401602060405180830381865afa15801561089b573d5f5f3e3d5ffd5b505050506040513d601f19601f820116820180604052508101906108bf9190613b4b565b600b9061269b565b61093857610936306001600160a01b03166338d52e0f6040518163ffffffff1660e01b8152600401602060405180830381865afa15801561090a573d5f5f3e3d5ffd5b505050506040513d601f19601f8201168201806040525081019061092e9190613b4b565b600b90612687565b505b7fa975983c7a4dcf80477a447433240de322f36428f1b3864e50d7a45e14c68b668282604051610969929190613b66565b60405180910390a15050565b60606003805461098490613bb2565b80601f01602080910402602001604051908101604052809291908181526020018280546109b090613bb2565b80156109fb5780601f106109d2576101008083540402835291602001916109fb565b820191905f5260205f20905b8154815290600101906020018083116109de57829003601f168201915b5050505050905090565b5f610a10825f6126af565b92915050565b5f33610a238185856126f0565b5060019392505050565b5f610a10826001612702565b6006546001600160a01b03163314610a6457604051631a27eac360e11b815260040160405180910390fd5b600854604051633c17975360e21b81526001600160a01b039091169063f05e5d4c90610a9490849060040161378f565b602060405180830381865afa158015610aaf573d5f5f3e3d5ffd5b505050506040513d601f19601f82011682018060405250810190610ad39190613b2c565b610af057604051631a27eac360e11b815260040160405180910390fd5b600780546001600160a01b0319166001600160a01b0383169081179091556040517f83293ffeebb677b167941693470018acf300605df266a35e9fdb66f24ff00fe0905f90a250565b610b41612734565b60085f9054906101000a90046001600160a01b03166001600160a01b031663edcf9c1f6040518163ffffffff1660e01b8152600401602060405180830381865afa158015610b91573d5f5f3e3d5ffd5b505050506040513d601f19601f82011682018060405250810190610bb59190613b2c565b610bd2576040516312aecd8160e01b815260040160405180910390fd5b805f03610bfb57610be1610f38565b604051636b30633560e01b815260040161081c919061378f565b60085460408051633228036560e11b815290515f926001600160a01b03169163645006ca9160048083019260209291908290030181865afa158015610c42573d5f5f3e3d5ffd5b505050506040513d601f19601f82011682018060405250810190610c669190613bea565b905080821015610c8d578181604051631e2be21160e01b815260040161081c929190613c01565b5f610c96610f38565b6001600160a01b03166370a08231336040518263ffffffff1660e01b8152600401610cc1919061378f565b602060405180830381865afa158015610cdc573d5f5f3e3d5ffd5b505050506040513d601f19601f82011682018060405250810190610d009190613bea565b905080831115610d2357604051632ca2f52b60e11b815260040160405180910390fd5b600a54610d4f9033906001600160a01b031685610d3e610f38565b6001600160a01b031692919061275e565b5f610d5b600e336127cb565b9150610d76905033610d6d8684613c23565b600e91906127f1565b508360145f828254610d889190613c23565b9091555050604051849033907f55896b30a78fc55b78937f8014dde3f0035e9d37a4f6ac36841fb8b62f7e2b13905f90a3505050610dc66001600555565b50565b6009546001600160a01b03163314610df457604051631a27eac360e11b815260040160405180910390fd5b8015610e40578060165f828254610e0b9190613c23565b9091555050601654604051829084907f8b8789cf9157fe7b016901e4ed3a5d0971caa8b7c031da0b25638ccf65841b2a905f90a45b5050565b6006546001600160a01b03163314610e6f57604051631a27eac360e11b815260040160405180910390fd5b805f03610e7e57610be1610f38565b601654811115610ea157604051632ca2f52b60e11b815260040160405180910390fd5b8060165f828254610eb29190613c36565b9091555050600a5460405163741fca4b60e01b8152600481018390526001600160a01b039091169063741fca4b906024015f604051808303815f87803b158015610efa575f5ffd5b505af1158015610f0c573d5f5f3e3d5ffd5b5050505050565b5f33610f20858285612806565b610f2b858585612851565b60019150505b9392505050565b7f000000000000000000000000000000000000000000000000000000000000000090565b6006546001600160a01b03163314610f8757604051631a27eac360e11b815260040160405180910390fd5b60085f9054906101000a90046001600160a01b03166001600160a01b031663edcf9c1f6040518163ffffffff1660e01b8152600401602060405180830381865afa158015610fd7573d5f5f3e3d5ffd5b505050506040513d601f19601f82011682018060405250810190610ffb9190613b2c565b611018576040516312aecd8160e01b815260040160405180910390fd5b600460ff8416111561103d576040516317dbc4cb60e21b815260040160405180910390fd5b610bb861ffff83161115611064576040516317dbc4cb60e21b815260040160405180910390fd5b61012c61ffff8216111561108b576040516317dbc4cb60e21b815260040160405180910390fd5b6110936128ae565b8051601a8054909190829060ff191660018360048111156110b6576110b66138c9565b021790555060208201518154604084015161ffff90811663010000000264ffff0000001991909316610100021664ffffffff00199091161717815560609091015160019091015560ff83166004811115611112576111126138c9565b6017805460ff1916600183600481111561112e5761112e6138c9565b02179055506017805461ffff83811663010000000264ffff00000019918616610100029190911664ffffffff00199092169190911717905560085460408051630df1aa5760e31b815290516001600160a01b0390921691636f8d52b8916004808201926020929091908290030181865afa1580156111ae573d5f5f3e3d5ffd5b505050506040513d601f19601f820116820180604052508101906111d29190613bea565b6111dc9042613c23565b60195560405130907fb31d0e1c8c885e6966984333ce964f4a58ad72b6c4e89e688ecc4549ad97558e905f90a2505050565b600a546001600160a01b0316331461123957604051631a27eac360e11b815260040160405180910390fd5b611241612734565b5f61124c6011612968565b90508063ffffffff165f03611261575061142f565b5f609663ffffffff8316116112765781611279565b60965b90505f60095f9054906101000a90046001600160a01b03166001600160a01b03166314b19c5a6040518163ffffffff1660e01b8152600401602060405180830381865afa1580156112cc573d5f5f3e3d5ffd5b505050506040513d601f19601f820116820180604052508101906112f09190613c49565b90505f6112fc60025490565b90505f805b8461ffff168161ffff161015611412575f8061131e601182612972565b909250905061132e601183612980565b505f61133c828b885f612994565b905061134830836129c9565b6113528286613c23565b600a54604051634adfc2e760e01b81529196506001600160a01b031690634adfc2e7906113859086908590600401613c64565b5f604051808303815f87803b15801561139c575f5ffd5b505af11580156113ae573d5f5f3e3d5ffd5b505050508661ffff16836001600160a01b0316306001600160a01b03167f215abfcd108b85fbee47f26fda2de66f90f14fa5fcaf0201698ad8ac9323545f84866040516113fc929190613c01565b60405180910390a4505050806001019050611301565b508060155f8282546114249190613c36565b909155505050505050505b610dc66001600555565b6060611445600b6129fd565b905090565b5f60405163125ad87760e31b815260040160405180910390fd5b6001600160a01b03165f9081526020819052604090205490565b60606004805461098490613bb2565b6009546001600160a01b031633146114b857604051631a27eac360e11b815260040160405180910390fd5b6114c2601d612a09565b815f5b8161ffff168161ffff16101561153e5761153585858361ffff168181106114ee576114ee613b18565b6115049260206040909202019081019150613754565b86868461ffff1681811061151a5761151a613b18565b90506040020160200135601d6127f19092919063ffffffff16565b506001016114c5565b505f61155160125b61033590600a613d60565b6018549091508111156115645760188190555b600d83905560405183907f5e1ff954b5e5257e9ee5d4cb07059e8f5e69b1aaaf9911e5d8d90a6894de9c21905f90a25050505050565b5f6115d26115a9846001613c23565b6115b1612a12565b6115bc90600a613d60565b6002546115c99190613c23565b86919085612a8e565b949350505050565b5f33610a23818585612851565b60085f9054906101000a90046001600160a01b03166001600160a01b031663edcf9c1f6040518163ffffffff1660e01b8152600401602060405180830381865afa158015611637573d5f5f3e3d5ffd5b505050506040513d601f19601f8201168201806040525081019061165b9190613b2c565b611678576040516312aecd8160e01b815260040160405180910390fd5b805f0361169a5730604051636b30633560e01b815260040161081c919061378f565b60085460408051630912ae6d60e01b815290515f926001600160a01b031691630912ae6d9160048083019260209291908290030181865afa1580156116e1573d5f5f3e3d5ffd5b505050506040513d601f19601f820116820180604052508101906117059190613bea565b90508082101561172c578181604051631f29a4af60e31b815260040161081c929190613c01565b5f61173633611464565b90508083111561175957604051632ca2f52b60e11b815260040160405180910390fd5b6117653033818661275e565b5f6117716011336127cb565b915061178c9050336117838684613c23565b601191906127f1565b508360155f82825461179e9190613c23565b9091555050604051849033907f222dc200773fe9b45015bf792e8fee37d651e3590c215806a5042404b6d741d2905f90a350505050565b6007546001600160a01b0316331461180057604051631a27eac360e11b815260040160405180910390fd5b5f81900361182157604051631121aa8d60e01b815260040160405180910390fd5b61182b6020612a09565b5f816001600160401b0381111561184457611844613d6e565b60405190808252806020026020018201604052801561186d578160200160208202803683370190505b5090505f82815b8161ffff168161ffff16101561196a575f86868361ffff1681811061189b5761189b613b18565b6118b19260206040909202019081019150613754565b90505f87878461ffff168181106118ca576118ca613b18565b90506040020160200160208101906118e29190613d93565b905081868461ffff16815181106118fb576118fb613b18565b6001600160a01b039092166020928302919091018201525f90611928908463ffffffff808616906127f116565b90508061194a57826040516346bdabe160e01b815260040161081c919061378f565b61195a63ffffffff831687613c23565b9550505050806001019050611874565b5061197483612ad0565b600a60149054906101000a900460ff16600a6119909190613d60565b82146119af57604051639006dd2760e01b815260040160405180910390fd5b60405133907f2d47a742b8d7df7c1fc5a9a631b206b364e6cb2722490759f63bb3ab14b132e0905f90a25050505050565b5f610a108260016126af565b601c54606090819060ff1615611b6f5760408051600180825281830190925290602080830190803683375050604080516001808252818301909252929450905060208083019080368337505060085460408051631c56369f60e21b815290519394506001600160a01b0390911692637158da7c925060048083019260209291908290030181865afa158015611a83573d5f5f3e3d5ffd5b505050506040513d601f19601f82011682018060405250810190611aa79190613b4b565b825f81518110611ab957611ab9613b18565b6001600160a01b039283166020918202929092018101919091526008546040805163d1717c7d60e01b81529051919093169263d1717c7d9260048083019391928290030181865afa158015611b10573d5f5f3e3d5ffd5b505050506040513d601f19601f82011682018060405250810190611b349190613dae565b611b3f90600a613d60565b815f81518110611b5157611b51613b18565b602002602001019063ffffffff16908163ffffffff16815250509091565b5f611b7a6020612968565b90508061ffff166001600160401b03811115611b9857611b98613d6e565b604051908082528060200260200182016040528015611bc1578160200160208202803683370190505b5092508061ffff166001600160401b03811115611be057611be0613d6e565b604051908082528060200260200182016040528015611c09578160200160208202803683370190505b5091505f5b8161ffff168161ffff161015611ca0575f80611c2f602061ffff8516612972565b9150915081868461ffff1681518110611c4a57611c4a613b18565b60200260200101906001600160a01b031690816001600160a01b03168152505080858461ffff1681518110611c8157611c81613b18565b63ffffffff909216602092830291909101909101525050600101611c0e565b50509091565b5f611caf612734565b60085460405163f764eb4560e01b81526001600160a01b039091169063f764eb4590611cdf90309060040161378f565b602060405180830381865afa158015611cfa573d5f5f3e3d5ffd5b505050506040513d601f19601f82011682018060405250810190611d1e9190613b2c565b611d3b5760405163125ad87760e31b815260040160405180910390fd5b5f611d458361234e565b905080851115611d6e57828582604051632e52afbb60e21b815260040161081c93929190613dc9565b845f03611d905730604051636b30633560e01b815260040161081c919061378f565b336001600160a01b03841614611dab57611dab833387612806565b5f611db586610a05565b905080600d5f828254611dc89190613c36565b90915550611dd8905084876129c9565b836001600160a01b0316856001600160a01b0316336001600160a01b03167ffbde797d201c681b91056529119e0b02407c7bb96a4a2c75c01fc9667232c8db848a604051611e27929190613c01565b60405180910390a4600a54604051627b8a6760e11b8152600481018390526001600160a01b0387811660248301529091169062f714ce906044015f604051808303815f87803b158015611e78575f5ffd5b505af1158015611e8a573d5f5f3e3d5ffd5b5092945050505050610f316001600555565b611ea4612734565b60085f9054906101000a90046001600160a01b03166001600160a01b031663edcf9c1f6040518163ffffffff1660e01b8152600401602060405180830381865afa158015611ef4573d5f5f3e3d5ffd5b505050506040513d601f19601f82011682018060405250810190611f189190613b2c565b611f35576040516312aecd8160e01b815260040160405180910390fd5b805f03611f4457610be1610f38565b5f611f50600e336127cb565b91505081811015611f7457604051632ca2f52b60e11b815260040160405180910390fd5b5f611f7f8383613c36565b9050805f03611f9957611f93600e33612980565b50611fa7565b611fa5600e33836127f1565b505b8260145f828254611fb89190613c36565b9091555050600a546040516351edffb160e01b81526001600160a01b03909116906351edffb190611fef9033908790600401613c64565b5f604051808303815f87803b158015612006575f5ffd5b505af1158015612018573d5f5f3e3d5ffd5b50506040518592503391507f96a9a6886cdf3047a125454218a23d3961fd3a78643123b248a9d106d0ac94fd905f90a35050610dc66001600555565b61205c612734565b60085f9054906101000a90046001600160a01b03166001600160a01b031663edcf9c1f6040518163ffffffff1660e01b8152600401602060405180830381865afa1580156120ac573d5f5f3e3d5ffd5b505050506040513d601f19601f820116820180604052508101906120d09190613b2c565b6120ed576040516312aecd8160e01b815260040160405180910390fd5b805f0361210f5730604051636b30633560e01b815260040161081c919061378f565b5f61211b6011336127cb565b9150508181101561213f57604051632ca2f52b60e11b815260040160405180910390fd5b5f61214a8383613c36565b9050805f036121645761215e601133612980565b50612172565b612170601133836127f1565b505b8260155f8282546121839190613c36565b909155506121949050303385612b48565b604051839033907f046d3e17087d323298991516e3fdec36fe1204d6bff7fb6e2b8eca77b80a22ad905f90a35050610dc66001600555565b5f610a10825f612702565b6008546001600160a01b031633146122025760405163ea8e4eb560e01b815260040160405180910390fd5b601c805460ff19166001179055565b5f610a1061221e83611464565b5f6126af565b6060805f612232601d612968565b90508061ffff166001600160401b0381111561225057612250613d6e565b604051908082528060200260200182016040528015612279578160200160208202803683370190505b5092508061ffff166001600160401b0381111561229857612298613d6e565b6040519080825280602002602001820160405280156122c1578160200160208202803683370190505b5091505f5b8161ffff168161ffff161015611ca0575f806122e7601d61ffff8516612972565b9150915081868461ffff168151811061230257612302613b18565b60200260200101906001600160a01b031690816001600160a01b03168152505080858461ffff168151811061233957612339613b18565b602090810291909101015250506001016122c6565b5f610a1082611464565b6001600160a01b039182165f90815260016020908152604080832093909416825291909152205490565b6008546001600160a01b031633146123ad5760405163ea8e4eb560e01b815260040160405180910390fd5b6123b8600b82612b6e565b505f806123c66020846127cb565b91509150816123d457505050565b6123df602084612980565b505f306001600160a01b03166338d52e0f6040518163ffffffff1660e01b8152600401602060405180830381865afa15801561241d573d5f5f3e3d5ffd5b505050506040513d601f19601f820116820180604052508101906124419190613b4b565b90505f806124506020846127cb565b91509150811561247757612471836124688684613c23565b602091906127f1565b50612485565b612483602084866127f1565b505b505050505050565b5f5f61249883612b82565b90505f6124a58285613c36565b90505f6124b182612c4d565b90506124bd8184613c23565b95945050505050565b600a546001600160a01b031633146124f157604051631a27eac360e11b815260040160405180910390fd5b6124f9612734565b5f612504600e612968565b90508063ffffffff165f03612519575061142f565b5f609663ffffffff83161161252e5781612531565b60965b90505f60095f9054906101000a90046001600160a01b03166001600160a01b03166314b19c5a6040518163ffffffff1660e01b8152600401602060405180830381865afa158015612584573d5f5f3e3d5ffd5b505050506040513d601f19601f820116820180604052508101906125a89190613c49565b90505f6125b460025490565b90505f805b8461ffff168161ffff16101561266c575f806125d6600e82612972565b90925090506125e6600e83612980565b505f6125f4828b885f612d46565b90506126008382612d72565b61260a8286613c23565b94508661ffff16836001600160a01b0316306001600160a01b03167f4e2ca0515ed1aef1395f66b5303bb5d6f1bf9d61a353fa53f73f8ac9973fa9f68585604051612656929190613c01565b60405180910390a45050508060010190506125b9565b508060145f8282546114249190613c36565b610dc681612da6565b5f610f31836001600160a01b038416612dff565b5f610f31836001600160a01b038416612e46565b5f610f316126bc600d5490565b6126c7906001613c23565b6126cf612a12565b6126da90600a613d60565b6002546126e79190613c23565b85919085612a8e565b6126fd8383836001612e5d565b505050565b5f610f3161270e612a12565b61271990600a613d60565b6002546127269190613c23565b600d546126e7906001613c23565b60026005540361275757604051633ee5aeb560e01b815260040160405180910390fd5b6002600555565b6040516001600160a01b0384811660248301528381166044830152606482018390526127c59186918216906323b872dd906084015b604051602081830303815290604052915060e01b6020820180516001600160e01b038381831617835250505050612f2f565b50505050565b5f8080806127e2866001600160a01b038716612f92565b909450925050505b9250929050565b5f6115d2846001600160a01b03851684612fca565b5f6128118484612358565b90505f198110156127c5578181101561284357828183604051637dc7a0d960e11b815260040161081c93929190613dc9565b6127c584848484035f612e5d565b6001600160a01b03831661287a575f604051634b637e8f60e11b815260040161081c919061378f565b6001600160a01b0382166128a3575f60405163ec442f0560e01b815260040161081c919061378f565b6126fd838383612fe6565b604080516080810182525f808252602082018190529181018290526060810191909152426019541115612943576040805160808101909152601a8054829060ff166004811115612900576129006138c9565b6004811115612911576129116138c9565b8152815461ffff6101008204811660208401526301000000909104166040820152600190910154606090910152919050565b604080516080810190915260178054829060ff166004811115612900576129006138c9565b5f610a10826130f9565b5f8080806127e28686613103565b5f610f31836001600160a01b03841661312c565b5f6124bd6129a3856001613c23565b6129ab612a12565b6129b690600a613d60565b6129c09086613c23565b87919085612a8e565b6001600160a01b0382166129f2575f604051634b637e8f60e11b815260040161081c919061378f565b610e40825f83612fe6565b60605f610f3183613148565b610dc6816131a1565b5f5f612a1c610f38565b6001600160a01b031663313ce5676040518163ffffffff1660e01b8152600401602060405180830381865afa158015612a57573d5f5f3e3d5ffd5b505050506040513d601f19601f82011682018060405250810190612a7b9190613dae565b9050612a88816012613dea565b91505090565b5f612abb612a9b836131ea565b8015612ab657505f8480612ab157612ab1613e03565b868809115b151590565b612ac6868686613216565b6124bd9190613c23565b5f5b8151811015610e4057612b08828281518110612af057612af0613b18565b6020026020010151600b61269b90919063ffffffff16565b612b4057818181518110612b1e57612b1e613b18565b602002602001015160405163751dff9760e11b815260040161081c919061378f565b600101612ad2565b6126fd83846001600160a01b031663a9059cbb8585604051602401612793929190613c64565b5f610f31836001600160a01b0384166132c6565b5f5f612b8c6128ae565b9050806040015161ffff165f03612ba557505f92915050565b60408101515f90612bbd9061ffff1685612710613216565b90506115d260095f9054906101000a90046001600160a01b03166001600160a01b0316634ff0876a6040518163ffffffff1660e01b8152600401602060405180830381865afa158015612c12573d5f5f3e3d5ffd5b505050506040513d601f19601f82011682018060405250810190612c369190613e17565b829063ffffffff908116906301e133809061321616565b5f5f612c576128ae565b9050806020015161ffff165f03612c7057505f92915050565b5f612c87612c806012600a613d60565b855f61159a565b90505f5f612c97845f01516133a9565b9150915081831080612ca7575080155b15612cb757505f95945050505050565b5f612cd5612cc58386613c36565b602087015161ffff169084613216565b90505f612ce58289612710613216565b9050612d3a60095f9054906101000a90046001600160a01b03166001600160a01b0316634ff0876a6040518163ffffffff1660e01b8152600401602060405180830381865afa158015612c12573d5f5f3e3d5ffd5b98975050505050505050565b5f6124bd612d52612a12565b612d5d90600a613d60565b612d679085613c23565b6129c0866001613c23565b6001600160a01b038216612d9b575f60405163ec442f0560e01b815260040161081c919061378f565b610e405f8383612fe6565b5f612daf825490565b90505f5b81811015612df857826001015f845f018381548110612dd457612dd4613b18565b905f5260205f20015481526020019081526020015f205f9055806001019050612db3565b50505f9055565b5f612e0a8383612e46565b612e3f57508154600181810184555f848152602080822090930184905584548482528286019093526040902091909155610a10565b505f610a10565b5f9081526001919091016020526040902054151590565b6001600160a01b038416612e86575f60405163e602df0560e01b815260040161081c919061378f565b6001600160a01b038316612eaf575f604051634a1406b160e11b815260040161081c919061378f565b6001600160a01b038085165f90815260016020908152604080832093871683529290522082905580156127c557826001600160a01b0316846001600160a01b03167f8c5be1e5ebec7d5bd14f71427d1e84f3dd0314c0f7b2291e5b200ac8c7c3b92584604051612f2191815260200190565b60405180910390a350505050565b5f5f60205f8451602086015f885af180612f4e576040513d5f823e3d81fd5b50505f513d91508115612f65578060011415612f72565b6001600160a01b0384163b155b156127c55783604051635274afe760e01b815260040161081c919061378f565b5f818152600283016020526040812054819080612fbf57612fb38585613493565b92505f91506127ea9050565b6001925090506127ea565b5f82815260028401602052604081208290556115d2848461349e565b6001600160a01b038316613010578060025f8282546130059190613c23565b9091555061306d9050565b6001600160a01b0383165f908152602081905260409020548181101561304f5783818360405163391434e360e21b815260040161081c93929190613dc9565b6001600160a01b0384165f9081526020819052604090209082900390555b6001600160a01b038216613089576002805482900390556130a7565b6001600160a01b0382165f9081526020819052604090208054820190555b816001600160a01b0316836001600160a01b03167fddf252ad1be2c89b69c2b068fc378daa952ba7f163c4a11628f55a4df523b3ef836040516130ec91815260200190565b60405180910390a3505050565b5f610a10826134a9565b5f808061311085856134b2565b5f81815260029690960160205260409095205494959350505050565b5f8181526002830160205260408120819055610f3183836134bd565b6060815f0180548060200260200160405190810160405280929190818152602001828054801561319557602002820191905f5260205f20905b815481526020019060010190808311613181575b50505050509050919050565b5f6131ab826130f9565b90505f5b818110156131e057600283015f6131c685846134b2565b815260208101919091526040015f908120556001016131af565b50610e408261267e565b5f60028260038111156131ff576131ff6138c9565b6132099190613e32565b60ff166001149050919050565b5f5f5f61322386866134c8565b91509150815f036132475783818161323d5761323d613e03565b0492505050610f31565b81841161325e5761325e60038515026011186134e4565b5f848688095f868103871696879004966002600389028118808a02820302808a02820302808a02820302808a02820302808a02820302808a02909103029181900381900460010185841190960395909502919093039390930492909217029150509392505050565b5f81815260018301602052604081205480156133a0575f6132e8600183613c36565b85549091505f906132fb90600190613c36565b905080821461335a575f865f01828154811061331957613319613b18565b905f5260205f200154905080875f01848154811061333957613339613b18565b5f918252602080832090910192909255918252600188019052604090208390555b855486908061336b5761336b613e5f565b600190038181905f5260205f20015f90559055856001015f8681526020019081526020015f205f905560019350505050610a10565b5f915050610a10565b5f80806133b66012611546565b90505f8460048111156133cb576133cb6138c9565b036133db5780925082915061348d565b60038460048111156133ef576133ef6138c9565b0361340157601854925082915061348d565b6001846004811115613415576134156138c9565b0361342d57613423816134f5565b925080915061348d565b6002846004811115613441576134416138c9565b036134595761344f816134f5565b925082915061348d565b600484600481111561346d5761346d6138c9565b0361348d5760185461348790613482836134f5565b61361b565b92508291505b50915091565b5f610f31838361362a565b5f610f318383612dff565b5f610a10825490565b5f610f318383613635565b5f610f3183836132c6565b5f805f1983850993909202808410938190039390930393915050565b634e487b715f52806020526024601cfd5b5f5f60085f9054906101000a90046001600160a01b03166001600160a01b031663f3cc69936040518163ffffffff1660e01b8152600401602060405180830381865afa158015613547573d5f5f3e3d5ffd5b505050506040513d601f19601f8201168201806040525081019061356b9190613c49565b61ffff1690505f61360060095f9054906101000a90046001600160a01b03166001600160a01b0316634ff0876a6040518163ffffffff1660e01b8152600401602060405180830381865afa1580156135c5573d5f5f3e3d5ffd5b505050506040513d601f19601f820116820180604052508101906135e99190613e17565b839063ffffffff908116906301e133809061321616565b90506115d261361182612710613c23565b8590612710613216565b5f828218828411028218610f31565b5f610f318383612e46565b5f825f01828154811061364a5761364a613b18565b905f5260205f200154905092915050565b5f5f6020838503121561366c575f5ffd5b82356001600160401b03811115613681575f5ffd5b8301601f81018513613691575f5ffd5b80356001600160401b038111156136a6575f5ffd5b8560208260051b84010111156136ba575f5ffd5b6020919091019590945092505050565b602081525f82518060208401528060208501604085015e5f604082850101526040601f19601f83011684010191505092915050565b5f6020828403121561370f575f5ffd5b5035919050565b6001600160a01b0381168114610dc6575f5ffd5b5f5f6040838503121561373b575f5ffd5b823561374681613716565b946020939093013593505050565b5f60208284031215613764575f5ffd5b8135610f3181613716565b5f5f60408385031215613780575f5ffd5b50508035926020909101359150565b6001600160a01b0391909116815260200190565b5f5f5f606084860312156137b5575f5ffd5b83356137c081613716565b925060208401356137d081613716565b929592945050506040919091013590565b60ff81168114610dc6575f5ffd5b61ffff81168114610dc6575f5ffd5b5f5f5f60608486031215613810575f5ffd5b833561381b816137e1565b9250602084013561382b816137ef565b9150604084013561383b816137ef565b809150509250925092565b5f8151808452602084019350602083015f5b8281101561387f5781516001600160a01b0316865260209586019590910190600101613858565b5093949350505050565b602081525f610f316020830184613846565b5f5f604083850312156138ac575f5ffd5b8235915060208301356138be81613716565b809150509250929050565b634e487b7160e01b5f52602160045260245ffd5b60808101600586106138fd57634e487b7160e01b5f52602160045260245ffd5b94815261ffff93841660208201529190921660408201526060015290565b5f5f83601f84011261392b575f5ffd5b5081356001600160401b03811115613941575f5ffd5b6020830191508360208260061b85010111156127ea575f5ffd5b5f5f5f6040848603121561396d575f5ffd5b83356001600160401b03811115613982575f5ffd5b61398e8682870161391b565b909790965060209590950135949350505050565b5f5f5f606084860312156139b4575f5ffd5b833592506020840135915060408401356004811061383b575f5ffd5b5f5f602083850312156139e1575f5ffd5b82356001600160401b038111156139f6575f5ffd5b613a028582860161391b565b90969095509350505050565b5f5f5f60608486031215613a20575f5ffd5b833592506020840135613a3281613716565b9150604084013561383b81613716565b604081525f613a546040830185613846565b82810360208401528084518083526020830191506020860192505f5b81811015613a9457835163ffffffff16835260209384019390920191600101613a70565b50909695505050505050565b604081525f613ab26040830185613846565b82810360208401528084518083526020830191506020860192505f5b81811015613a94578351835260209384019390920191600101613ace565b5f5f60408385031215613afd575f5ffd5b8235613b0881613716565b915060208301356138be81613716565b634e487b7160e01b5f52603260045260245ffd5b5f60208284031215613b3c575f5ffd5b81518015158114610f31575f5ffd5b5f60208284031215613b5b575f5ffd5b8151610f3181613716565b602080825281018290525f8360408301825b85811015613ba8578235613b8b81613716565b6001600160a01b0316825260209283019290910190600101613b78565b5095945050505050565b600181811c90821680613bc657607f821691505b602082108103613be457634e487b7160e01b5f52602260045260245ffd5b50919050565b5f60208284031215613bfa575f5ffd5b5051919050565b918252602082015260400190565b634e487b7160e01b5f52601160045260245ffd5b80820180821115610a1057610a10613c0f565b81810381811115610a1057610a10613c0f565b5f60208284031215613c59575f5ffd5b8151610f31816137ef565b6001600160a01b03929092168252602082015260400190565b6001815b6001841115613cb857808504811115613c9c57613c9c613c0f565b6001841615613caa57908102905b60019390931c928002613c81565b935093915050565b5f82613cce57506001610a10565b81613cda57505f610a10565b8160018114613cf05760028114613cfa57613d16565b6001915050610a10565b60ff841115613d0b57613d0b613c0f565b50506001821b610a10565b5060208310610133831016604e8410600b8410161715613d39575081810a610a10565b613d455f198484613c7d565b805f1904821115613d5857613d58613c0f565b029392505050565b5f610f3160ff841683613cc0565b634e487b7160e01b5f52604160045260245ffd5b63ffffffff81168114610dc6575f5ffd5b5f60208284031215613da3575f5ffd5b8135610f3181613d82565b5f60208284031215613dbe575f5ffd5b8151610f31816137e1565b6001600160a01b039390931683526020830191909152604082015260600190565b60ff8281168282160390811115610a1057610a10613c0f565b634e487b7160e01b5f52601260045260245ffd5b5f60208284031215613e27575f5ffd5b8151610f3181613d82565b5f60ff831680613e5057634e487b7160e01b5f52601260045260245ffd5b8060ff84160691505092915050565b634e487b7160e01b5f52603160045260245ffdfea264697066735822122048ba7a863e7bc30a6ea2a8e930c1611010e9bf2182d1758bf75440e03c2ad65664736f6c634300081c0033",
  "linkReferences": {},
  "deployedLinkReferences": {}
}