{
  "_format": "hh-sol-artifact-1",
  "contractName": "OrionTransparentVault",
  "sourceName": "contracts/vaults/OrionTransparentVault.sol",
  "abi": [
    {
      "inputs": [
        {
          "internalType": "address",
          "name": "vaultOwner",
          "type": "address"
        },
        {
          "internalType": "address",
          "name": "curator",
          "type": "address"
        },
        {
          "internalType": "contract IOrionConfig",
          "name": "configAddress",
          "type": "address"
        },
        {
          "internalType": "string",
          "name": "name",
          "type": "string"
        },
        {
          "internalType": "string",
          "name": "symbol",
          "type": "string"
        }
      ],
      "stateMutability": "nonpayable",
      "type": "constructor"
    },
    {
      "inputs": [],
      "name": "AlreadyRegistered",
      "type": "error"
    },
    {
      "inputs": [
        {
          "internalType": "address",
          "name": "asset",
          "type": "address"
        }
      ],
      "name": "AmountMustBeGreaterThanZero",
      "type": "error"
    },
    {
      "inputs": [
        {
          "internalType": "address",
          "name": "spender",
          "type": "address"
        },
        {
          "internalType": "uint256",
          "name": "allowance",
          "type": "uint256"
        },
        {
          "internalType": "uint256",
          "name": "needed",
          "type": "uint256"
        }
      ],
      "name": "ERC20InsufficientAllowance",
      "type": "error"
    },
    {
      "inputs": [
        {
          "internalType": "address",
          "name": "sender",
          "type": "address"
        },
        {
          "internalType": "uint256",
          "name": "balance",
          "type": "uint256"
        },
        {
          "internalType": "uint256",
          "name": "needed",
          "type": "uint256"
        }
      ],
      "name": "ERC20InsufficientBalance",
      "type": "error"
    },
    {
      "inputs": [
        {
          "internalType": "address",
          "name": "approver",
          "type": "address"
        }
      ],
      "name": "ERC20InvalidApprover",
      "type": "error"
    },
    {
      "inputs": [
        {
          "internalType": "address",
          "name": "receiver",
          "type": "address"
        }
      ],
      "name": "ERC20InvalidReceiver",
      "type": "error"
    },
    {
      "inputs": [
        {
          "internalType": "address",
          "name": "sender",
          "type": "address"
        }
      ],
      "name": "ERC20InvalidSender",
      "type": "error"
    },
    {
      "inputs": [
        {
          "internalType": "address",
          "name": "spender",
          "type": "address"
        }
      ],
      "name": "ERC20InvalidSpender",
      "type": "error"
    },
    {
      "inputs": [
        {
          "internalType": "address",
          "name": "receiver",
          "type": "address"
        },
        {
          "internalType": "uint256",
          "name": "assets",
          "type": "uint256"
        },
        {
          "internalType": "uint256",
          "name": "max",
          "type": "uint256"
        }
      ],
      "name": "ERC4626ExceededMaxDeposit",
      "type": "error"
    },
    {
      "inputs": [
        {
          "internalType": "address",
          "name": "receiver",
          "type": "address"
        },
        {
          "internalType": "uint256",
          "name": "shares",
          "type": "uint256"
        },
        {
          "internalType": "uint256",
          "name": "max",
          "type": "uint256"
        }
      ],
      "name": "ERC4626ExceededMaxMint",
      "type": "error"
    },
    {
      "inputs": [
        {
          "internalType": "address",
          "name": "owner",
          "type": "address"
        },
        {
          "internalType": "uint256",
          "name": "shares",
          "type": "uint256"
        },
        {
          "internalType": "uint256",
          "name": "max",
          "type": "uint256"
        }
      ],
      "name": "ERC4626ExceededMaxRedeem",
      "type": "error"
    },
    {
      "inputs": [
        {
          "internalType": "address",
          "name": "owner",
          "type": "address"
        },
        {
          "internalType": "uint256",
          "name": "assets",
          "type": "uint256"
        },
        {
          "internalType": "uint256",
          "name": "max",
          "type": "uint256"
        }
      ],
      "name": "ERC4626ExceededMaxWithdraw",
      "type": "error"
    },
    {
      "inputs": [
        {
          "internalType": "address",
          "name": "sender",
          "type": "address"
        },
        {
          "internalType": "uint256",
          "name": "balance",
          "type": "uint256"
        },
        {
          "internalType": "uint256",
          "name": "amount",
          "type": "uint256"
        }
      ],
      "name": "InsufficientFunds",
      "type": "error"
    },
    {
      "inputs": [],
      "name": "InvalidAddress",
      "type": "error"
    },
    {
      "inputs": [],
      "name": "InvalidArguments",
      "type": "error"
    },
    {
      "inputs": [],
      "name": "InvalidTotalWeight",
      "type": "error"
    },
    {
      "inputs": [],
      "name": "InvalidUnderlyingDecimals",
      "type": "error"
    },
    {
      "inputs": [],
      "name": "NotEnoughDepositRequest",
      "type": "error"
    },
    {
      "inputs": [],
      "name": "NotEnoughWithdrawRequest",
      "type": "error"
    },
    {
      "inputs": [],
      "name": "OrderIntentCannotBeEmpty",
      "type": "error"
    },
    {
      "inputs": [],
      "name": "ReentrancyGuardReentrantCall",
      "type": "error"
    },
    {
      "inputs": [],
      "name": "SynchronousCallDisabled",
      "type": "error"
    },
    {
      "inputs": [
        {
          "internalType": "address",
          "name": "token",
          "type": "address"
        }
      ],
      "name": "TokenAlreadyInOrder",
      "type": "error"
    },
    {
      "inputs": [
        {
          "internalType": "address",
          "name": "token",
          "type": "address"
        }
      ],
      "name": "TokenNotWhitelisted",
      "type": "error"
    },
    {
      "inputs": [],
      "name": "TransferFailed",
      "type": "error"
    },
    {
      "inputs": [],
      "name": "UnauthorizedAccess",
      "type": "error"
    },
    {
      "anonymous": false,
      "inputs": [
        {
          "indexed": true,
          "internalType": "address",
          "name": "owner",
          "type": "address"
        },
        {
          "indexed": true,
          "internalType": "address",
          "name": "spender",
          "type": "address"
        },
        {
          "indexed": false,
          "internalType": "uint256",
          "name": "value",
          "type": "uint256"
        }
      ],
      "name": "Approval",
      "type": "event"
    },
    {
      "anonymous": false,
      "inputs": [
        {
          "indexed": true,
          "internalType": "address",
          "name": "sender",
          "type": "address"
        },
        {
          "indexed": true,
          "internalType": "address",
          "name": "owner",
          "type": "address"
        },
        {
          "indexed": false,
          "internalType": "uint256",
          "name": "assets",
          "type": "uint256"
        },
        {
          "indexed": false,
          "internalType": "uint256",
          "name": "shares",
          "type": "uint256"
        }
      ],
      "name": "Deposit",
      "type": "event"
    },
    {
      "anonymous": false,
      "inputs": [
        {
          "indexed": true,
          "internalType": "address",
          "name": "user",
          "type": "address"
        },
        {
          "indexed": false,
          "internalType": "uint256",
          "name": "amount",
          "type": "uint256"
        }
      ],
      "name": "DepositProcessed",
      "type": "event"
    },
    {
      "anonymous": false,
      "inputs": [
        {
          "indexed": true,
          "internalType": "address",
          "name": "user",
          "type": "address"
        },
        {
          "indexed": false,
          "internalType": "uint256",
          "name": "amount",
          "type": "uint256"
        }
      ],
      "name": "DepositRequestCancelled",
      "type": "event"
    },
    {
      "anonymous": false,
      "inputs": [
        {
          "indexed": true,
          "internalType": "address",
          "name": "user",
          "type": "address"
        },
        {
          "indexed": false,
          "internalType": "uint256",
          "name": "amount",
          "type": "uint256"
        }
      ],
      "name": "DepositRequested",
      "type": "event"
    },
    {
      "anonymous": false,
      "inputs": [
        {
          "indexed": false,
          "internalType": "uint8",
          "name": "mode",
          "type": "uint8"
        },
        {
          "indexed": false,
          "internalType": "uint16",
          "name": "performanceFee",
          "type": "uint16"
        },
        {
          "indexed": false,
          "internalType": "uint16",
          "name": "managementFee",
          "type": "uint16"
        }
      ],
      "name": "FeeModelUpdated",
      "type": "event"
    },
    {
      "anonymous": false,
      "inputs": [
        {
          "indexed": true,
          "internalType": "address",
          "name": "curator",
          "type": "address"
        }
      ],
      "name": "OrderSubmitted",
      "type": "event"
    },
    {
      "anonymous": false,
      "inputs": [
        {
          "indexed": true,
          "internalType": "address",
          "name": "from",
          "type": "address"
        },
        {
          "indexed": true,
          "internalType": "address",
          "name": "to",
          "type": "address"
        },
        {
          "indexed": false,
          "internalType": "uint256",
          "name": "value",
          "type": "uint256"
        }
      ],
      "name": "Transfer",
      "type": "event"
    },
    {
      "anonymous": false,
      "inputs": [
        {
          "indexed": false,
          "internalType": "uint256",
          "name": "newTotalAssets",
          "type": "uint256"
        }
      ],
      "name": "VaultStateUpdated",
      "type": "event"
    },
    {
      "anonymous": false,
      "inputs": [
        {
          "indexed": true,
          "internalType": "address",
          "name": "sender",
          "type": "address"
        },
        {
          "indexed": true,
          "internalType": "address",
          "name": "receiver",
          "type": "address"
        },
        {
          "indexed": true,
          "internalType": "address",
          "name": "owner",
          "type": "address"
        },
        {
          "indexed": false,
          "internalType": "uint256",
          "name": "assets",
          "type": "uint256"
        },
        {
          "indexed": false,
          "internalType": "uint256",
          "name": "shares",
          "type": "uint256"
        }
      ],
      "name": "Withdraw",
      "type": "event"
    },
    {
      "anonymous": false,
      "inputs": [
        {
          "indexed": true,
          "internalType": "address",
          "name": "user",
          "type": "address"
        },
        {
          "indexed": false,
          "internalType": "uint256",
          "name": "shares",
          "type": "uint256"
        }
      ],
      "name": "WithdrawProcessed",
      "type": "event"
    },
    {
      "anonymous": false,
      "inputs": [
        {
          "indexed": true,
          "internalType": "address",
          "name": "user",
          "type": "address"
        },
        {
          "indexed": false,
          "internalType": "uint256",
          "name": "shares",
          "type": "uint256"
        }
      ],
      "name": "WithdrawRequestCancelled",
      "type": "event"
    },
    {
      "anonymous": false,
      "inputs": [
        {
          "indexed": true,
          "internalType": "address",
          "name": "user",
          "type": "address"
        },
        {
          "indexed": false,
          "internalType": "uint256",
          "name": "shares",
          "type": "uint256"
        }
      ],
      "name": "WithdrawRequested",
      "type": "event"
    },
    {
      "inputs": [],
      "name": "CURATOR_FEE_FACTOR",
      "outputs": [
        {
          "internalType": "uint16",
          "name": "",
          "type": "uint16"
        }
      ],
      "stateMutability": "view",
      "type": "function"
    },
    {
      "inputs": [],
      "name": "MAX_MANAGEMENT_FEE",
      "outputs": [
        {
          "internalType": "uint16",
          "name": "",
          "type": "uint16"
        }
      ],
      "stateMutability": "view",
      "type": "function"
    },
    {
      "inputs": [],
      "name": "MAX_PERFORMANCE_FEE",
      "outputs": [
        {
          "internalType": "uint16",
          "name": "",
          "type": "uint16"
        }
      ],
      "stateMutability": "view",
      "type": "function"
    },
    {
      "inputs": [],
      "name": "SHARE_DECIMALS",
      "outputs": [
        {
          "internalType": "uint8",
          "name": "",
          "type": "uint8"
        }
      ],
      "stateMutability": "view",
      "type": "function"
    },
    {
      "inputs": [],
      "name": "YEAR_IN_SECONDS",
      "outputs": [
        {
          "internalType": "uint32",
          "name": "",
          "type": "uint32"
        }
      ],
      "stateMutability": "view",
      "type": "function"
    },
    {
      "inputs": [
        {
          "internalType": "address",
          "name": "owner",
          "type": "address"
        },
        {
          "internalType": "address",
          "name": "spender",
          "type": "address"
        }
      ],
      "name": "allowance",
      "outputs": [
        {
          "internalType": "uint256",
          "name": "",
          "type": "uint256"
        }
      ],
      "stateMutability": "view",
      "type": "function"
    },
    {
      "inputs": [
        {
          "internalType": "address",
          "name": "spender",
          "type": "address"
        },
        {
          "internalType": "uint256",
          "name": "value",
          "type": "uint256"
        }
      ],
      "name": "approve",
      "outputs": [
        {
          "internalType": "bool",
          "name": "",
          "type": "bool"
        }
      ],
      "stateMutability": "nonpayable",
      "type": "function"
    },
    {
      "inputs": [],
      "name": "asset",
      "outputs": [
        {
          "internalType": "address",
          "name": "",
          "type": "address"
        }
      ],
      "stateMutability": "view",
      "type": "function"
    },
    {
      "inputs": [
        {
          "internalType": "address",
          "name": "account",
          "type": "address"
        }
      ],
      "name": "balanceOf",
      "outputs": [
        {
          "internalType": "uint256",
          "name": "",
          "type": "uint256"
        }
      ],
      "stateMutability": "view",
      "type": "function"
    },
    {
      "inputs": [
        {
          "internalType": "uint256",
          "name": "amount",
          "type": "uint256"
        }
      ],
      "name": "cancelDepositRequest",
      "outputs": [],
      "stateMutability": "nonpayable",
      "type": "function"
    },
    {
      "inputs": [
        {
          "internalType": "uint256",
          "name": "shares",
          "type": "uint256"
        }
      ],
      "name": "cancelWithdrawRequest",
      "outputs": [],
      "stateMutability": "nonpayable",
      "type": "function"
    },
    {
      "inputs": [],
      "name": "config",
      "outputs": [
        {
          "internalType": "contract IOrionConfig",
          "name": "",
          "type": "address"
        }
      ],
      "stateMutability": "view",
      "type": "function"
    },
    {
      "inputs": [
        {
          "internalType": "uint256",
          "name": "shares",
          "type": "uint256"
        }
      ],
      "name": "convertToAssets",
      "outputs": [
        {
          "internalType": "uint256",
          "name": "",
          "type": "uint256"
        }
      ],
      "stateMutability": "view",
      "type": "function"
    },
    {
      "inputs": [
        {
          "internalType": "uint256",
          "name": "shares",
          "type": "uint256"
        },
        {
          "internalType": "uint256",
          "name": "pointInTimeTotalAssets",
          "type": "uint256"
        },
        {
          "internalType": "enum Math.Rounding",
          "name": "rounding",
          "type": "uint8"
        }
      ],
      "name": "convertToAssetsWithPITTotalAssets",
      "outputs": [
        {
          "internalType": "uint256",
          "name": "",
          "type": "uint256"
        }
      ],
      "stateMutability": "view",
      "type": "function"
    },
    {
      "inputs": [
        {
          "internalType": "uint256",
          "name": "assets",
          "type": "uint256"
        }
      ],
      "name": "convertToShares",
      "outputs": [
        {
          "internalType": "uint256",
          "name": "",
          "type": "uint256"
        }
      ],
      "stateMutability": "view",
      "type": "function"
    },
    {
      "inputs": [],
      "name": "curator",
      "outputs": [
        {
          "internalType": "address",
          "name": "",
          "type": "address"
        }
      ],
      "stateMutability": "view",
      "type": "function"
    },
    {
      "inputs": [
        {
          "internalType": "uint256",
          "name": "activeTotalAssets",
          "type": "uint256"
        }
      ],
      "name": "curatorFee",
      "outputs": [
        {
          "internalType": "uint256",
          "name": "",
          "type": "uint256"
        }
      ],
      "stateMutability": "view",
      "type": "function"
    },
    {
      "inputs": [],
      "name": "decimals",
      "outputs": [
        {
          "internalType": "uint8",
          "name": "",
          "type": "uint8"
        }
      ],
      "stateMutability": "view",
      "type": "function"
    },
    {
      "inputs": [
        {
          "internalType": "uint256",
          "name": "",
          "type": "uint256"
        },
        {
          "internalType": "address",
          "name": "",
          "type": "address"
        }
      ],
      "name": "deposit",
      "outputs": [
        {
          "internalType": "uint256",
          "name": "",
          "type": "uint256"
        }
      ],
      "stateMutability": "pure",
      "type": "function"
    },
    {
      "inputs": [],
      "name": "feeModel",
      "outputs": [
        {
          "internalType": "enum OrionVault.CalcMode",
          "name": "mode",
          "type": "uint8"
        },
        {
          "internalType": "uint16",
          "name": "performanceFee",
          "type": "uint16"
        },
        {
          "internalType": "uint16",
          "name": "managementFee",
          "type": "uint16"
        },
        {
          "internalType": "uint256",
          "name": "highWaterMark",
          "type": "uint256"
        }
      ],
      "stateMutability": "view",
      "type": "function"
    },
    {
      "inputs": [],
      "name": "getIntent",
      "outputs": [
        {
          "internalType": "address[]",
          "name": "tokens",
          "type": "address[]"
        },
        {
          "internalType": "uint32[]",
          "name": "weights",
          "type": "uint32[]"
        }
      ],
      "stateMutability": "view",
      "type": "function"
    },
    {
      "inputs": [],
      "name": "getPendingDeposits",
      "outputs": [
        {
          "internalType": "uint256",
          "name": "",
          "type": "uint256"
        }
      ],
      "stateMutability": "view",
      "type": "function"
    },
    {
      "inputs": [],
      "name": "getPendingWithdrawals",
      "outputs": [
        {
          "internalType": "uint256",
          "name": "",
          "type": "uint256"
        }
      ],
      "stateMutability": "view",
      "type": "function"
    },
    {
      "inputs": [],
      "name": "getPortfolio",
      "outputs": [
        {
          "internalType": "address[]",
          "name": "tokens",
          "type": "address[]"
        },
        {
          "internalType": "uint256[]",
          "name": "sharesPerAsset",
          "type": "uint256[]"
        }
      ],
      "stateMutability": "view",
      "type": "function"
    },
    {
      "inputs": [
        {
          "internalType": "address",
          "name": "",
          "type": "address"
        }
      ],
      "name": "maxDeposit",
      "outputs": [
        {
          "internalType": "uint256",
          "name": "",
          "type": "uint256"
        }
      ],
      "stateMutability": "view",
      "type": "function"
    },
    {
      "inputs": [
        {
          "internalType": "address",
          "name": "",
          "type": "address"
        }
      ],
      "name": "maxMint",
      "outputs": [
        {
          "internalType": "uint256",
          "name": "",
          "type": "uint256"
        }
      ],
      "stateMutability": "view",
      "type": "function"
    },
    {
      "inputs": [
        {
          "internalType": "address",
          "name": "owner",
          "type": "address"
        }
      ],
      "name": "maxRedeem",
      "outputs": [
        {
          "internalType": "uint256",
          "name": "",
          "type": "uint256"
        }
      ],
      "stateMutability": "view",
      "type": "function"
    },
    {
      "inputs": [
        {
          "internalType": "address",
          "name": "owner",
          "type": "address"
        }
      ],
      "name": "maxWithdraw",
      "outputs": [
        {
          "internalType": "uint256",
          "name": "",
          "type": "uint256"
        }
      ],
      "stateMutability": "view",
      "type": "function"
    },
    {
      "inputs": [
        {
          "internalType": "uint256",
          "name": "",
          "type": "uint256"
        },
        {
          "internalType": "address",
          "name": "",
          "type": "address"
        }
      ],
      "name": "mint",
      "outputs": [
        {
          "internalType": "uint256",
          "name": "",
          "type": "uint256"
        }
      ],
      "stateMutability": "pure",
      "type": "function"
    },
    {
      "inputs": [],
      "name": "name",
      "outputs": [
        {
          "internalType": "string",
          "name": "",
          "type": "string"
        }
      ],
      "stateMutability": "view",
      "type": "function"
    },
    {
      "inputs": [
        {
          "internalType": "uint256",
          "name": "assets",
          "type": "uint256"
        }
      ],
      "name": "previewDeposit",
      "outputs": [
        {
          "internalType": "uint256",
          "name": "",
          "type": "uint256"
        }
      ],
      "stateMutability": "view",
      "type": "function"
    },
    {
      "inputs": [
        {
          "internalType": "uint256",
          "name": "shares",
          "type": "uint256"
        }
      ],
      "name": "previewMint",
      "outputs": [
        {
          "internalType": "uint256",
          "name": "",
          "type": "uint256"
        }
      ],
      "stateMutability": "view",
      "type": "function"
    },
    {
      "inputs": [
        {
          "internalType": "uint256",
          "name": "shares",
          "type": "uint256"
        }
      ],
      "name": "previewRedeem",
      "outputs": [
        {
          "internalType": "uint256",
          "name": "",
          "type": "uint256"
        }
      ],
      "stateMutability": "view",
      "type": "function"
    },
    {
      "inputs": [
        {
          "internalType": "uint256",
          "name": "assets",
          "type": "uint256"
        }
      ],
      "name": "previewWithdraw",
      "outputs": [
        {
          "internalType": "uint256",
          "name": "",
          "type": "uint256"
        }
      ],
      "stateMutability": "view",
      "type": "function"
    },
    {
      "inputs": [],
      "name": "processDepositRequests",
      "outputs": [],
      "stateMutability": "nonpayable",
      "type": "function"
    },
    {
      "inputs": [],
      "name": "processWithdrawRequests",
      "outputs": [],
      "stateMutability": "nonpayable",
      "type": "function"
    },
    {
      "inputs": [
        {
          "internalType": "uint256",
          "name": "",
          "type": "uint256"
        },
        {
          "internalType": "address",
          "name": "",
          "type": "address"
        },
        {
          "internalType": "address",
          "name": "",
          "type": "address"
        }
      ],
      "name": "redeem",
      "outputs": [
        {
          "internalType": "uint256",
          "name": "",
          "type": "uint256"
        }
      ],
      "stateMutability": "pure",
      "type": "function"
    },
    {
      "inputs": [
        {
          "internalType": "uint256",
          "name": "amount",
          "type": "uint256"
        }
      ],
      "name": "requestDeposit",
      "outputs": [],
      "stateMutability": "nonpayable",
      "type": "function"
    },
    {
      "inputs": [
        {
          "internalType": "uint256",
          "name": "shares",
          "type": "uint256"
        }
      ],
      "name": "requestWithdraw",
      "outputs": [],
      "stateMutability": "nonpayable",
      "type": "function"
    },
    {
      "inputs": [
        {
          "components": [
            {
              "internalType": "address",
              "name": "token",
              "type": "address"
            },
            {
              "internalType": "uint32",
              "name": "value",
              "type": "uint32"
            }
          ],
          "internalType": "struct IOrionTransparentVault.Position[]",
          "name": "intent",
          "type": "tuple[]"
        }
      ],
      "name": "submitIntent",
      "outputs": [],
      "stateMutability": "nonpayable",
      "type": "function"
    },
    {
      "inputs": [],
      "name": "symbol",
      "outputs": [
        {
          "internalType": "string",
          "name": "",
          "type": "string"
        }
      ],
      "stateMutability": "view",
      "type": "function"
    },
    {
      "inputs": [],
      "name": "totalAssets",
      "outputs": [
        {
          "internalType": "uint256",
          "name": "",
          "type": "uint256"
        }
      ],
      "stateMutability": "view",
      "type": "function"
    },
    {
      "inputs": [],
      "name": "totalSupply",
      "outputs": [
        {
          "internalType": "uint256",
          "name": "",
          "type": "uint256"
        }
      ],
      "stateMutability": "view",
      "type": "function"
    },
    {
      "inputs": [
        {
          "internalType": "address",
          "name": "to",
          "type": "address"
        },
        {
          "internalType": "uint256",
          "name": "value",
          "type": "uint256"
        }
      ],
      "name": "transfer",
      "outputs": [
        {
          "internalType": "bool",
          "name": "",
          "type": "bool"
        }
      ],
      "stateMutability": "nonpayable",
      "type": "function"
    },
    {
      "inputs": [
        {
          "internalType": "address",
          "name": "from",
          "type": "address"
        },
        {
          "internalType": "address",
          "name": "to",
          "type": "address"
        },
        {
          "internalType": "uint256",
          "name": "value",
          "type": "uint256"
        }
      ],
      "name": "transferFrom",
      "outputs": [
        {
          "internalType": "bool",
          "name": "",
          "type": "bool"
        }
      ],
      "stateMutability": "nonpayable",
      "type": "function"
    },
    {
      "inputs": [
        {
          "internalType": "address",
          "name": "newCurator",
          "type": "address"
        }
      ],
      "name": "updateCurator",
      "outputs": [],
      "stateMutability": "nonpayable",
      "type": "function"
    },
    {
      "inputs": [
        {
          "internalType": "uint8",
          "name": "mode",
          "type": "uint8"
        },
        {
          "internalType": "uint16",
          "name": "performanceFee",
          "type": "uint16"
        },
        {
          "internalType": "uint16",
          "name": "managementFee",
          "type": "uint16"
        }
      ],
      "name": "updateFeeModel",
      "outputs": [],
      "stateMutability": "nonpayable",
      "type": "function"
    },
    {
      "inputs": [],
      "name": "updateHighWaterMark",
      "outputs": [],
      "stateMutability": "nonpayable",
      "type": "function"
    },
    {
      "inputs": [
        {
          "components": [
            {
              "internalType": "address",
              "name": "token",
              "type": "address"
            },
            {
              "internalType": "uint32",
              "name": "value",
              "type": "uint32"
            }
          ],
          "internalType": "struct IOrionTransparentVault.Position[]",
          "name": "portfolio",
          "type": "tuple[]"
        },
        {
          "internalType": "uint256",
          "name": "newTotalAssets",
          "type": "uint256"
        }
      ],
      "name": "updateVaultState",
      "outputs": [],
      "stateMutability": "nonpayable",
      "type": "function"
    },
    {
      "inputs": [
        {
          "internalType": "address[]",
          "name": "assets",
          "type": "address[]"
        }
      ],
      "name": "updateVaultWhitelist",
      "outputs": [],
      "stateMutability": "nonpayable",
      "type": "function"
    },
    {
      "inputs": [],
      "name": "vaultOwner",
      "outputs": [
        {
          "internalType": "address",
          "name": "",
          "type": "address"
        }
      ],
      "stateMutability": "view",
      "type": "function"
    },
    {
      "inputs": [
        {
          "internalType": "uint256",
          "name": "",
          "type": "uint256"
        },
        {
          "internalType": "address",
          "name": "",
          "type": "address"
        },
        {
          "internalType": "address",
          "name": "",
          "type": "address"
        }
      ],
      "name": "withdraw",
      "outputs": [
        {
          "internalType": "uint256",
          "name": "",
          "type": "uint256"
        }
      ],
      "stateMutability": "pure",
      "type": "function"
    }
  ],
  "bytecode": "0x60c060405234801561000f575f5ffd5b50604051613ff7380380613ff783398101604081905261002e916105ef565b8484848484826001600160a01b0316637158da7c6040518163ffffffff1660e01b8152600401602060405180830381865afa15801561006f573d5f5f3e3d5ffd5b505050506040513d601f19601f82011682018060405250810190610093919061068d565b828260036100a18382610733565b5060046100ae8282610733565b5050505f5f6100c28361031560201b60201c565b91509150816100d25760126100d4565b805b60ff1660a05250506001600160a01b039081166080526001600555841661010e5760405163e6c4247b60e01b815260040160405180910390fd5b6001600160a01b0383166101355760405163e6c4247b60e01b815260040160405180910390fd5b600780546001600160a01b038088166001600160a01b031992831617909255600880548784169083161790556006805492861692909116821790555f600b8190556012819055601381905560408051631c56369f60e21b81529051919291637158da7c916004808201926020929091908290030181865afa1580156101bc573d5f5f3e3d5ffd5b505050506040513d601f19601f820116820180604052508101906101e0919061068d565b6001600160a01b031663313ce5676040518163ffffffff1660e01b8152600401602060405180830381865afa15801561021b573d5f5f3e3d5ffd5b505050506040513d601f19601f8201168201806040525081019061023f91906107ed565b9050601260ff8216111561026657604051631c03248960e11b815260040160405180910390fd5b6040805160808101909152805f81525f6020820181905260408201526060016102916012600a610918565b9052805160148054909190829060ff191660018360038111156102b6576102b661080d565b021790555060208201518154604084015161ffff90811663010000000264ffff0000001991909316610100021664ffffffff0019909116171781556060909101516001909101556103056103eb565b5050505050505050505050610a19565b60408051600481526024810182526020810180516001600160e01b031663313ce56760e01b17905290515f918291829182916001600160a01b0387169161035b91610926565b5f60405180830381855afa9150503d805f8114610393576040519150601f19603f3d011682016040523d82523d5f602084013e610398565b606091505b50915091508180156103ac57506020815110155b156103df575f818060200190518101906103c6919061093c565b905060ff81116103dd576001969095509350505050565b505b505f9485945092505050565b60065460408051636c366a2760e11b815290515f926001600160a01b03169163d86cd44e91600480830192869291908290030181865afa158015610431573d5f5f3e3d5ffd5b505050506040513d5f823e601f3d908101601f191682016040526104589190810190610953565b90505f5b81518110156104bc575f61049383838151811061047b5761047b610a05565b602002602001015160096104c060201b90919060201c565b9050806104b357604051630ea075bf60e21b815260040160405180910390fd5b5060010161045c565b5050565b5f6104d4836001600160a01b0384166104dd565b90505b92915050565b5f81815260018301602052604081205461052257508154600181810184555f8481526020808220909301849055845484825282860190935260409020919091556104d7565b505f6104d7565b6001600160a01b038116811461053d575f5ffd5b50565b634e487b7160e01b5f52604160045260245ffd5b604051601f8201601f191681016001600160401b038111828210171561057c5761057c610540565b604052919050565b5f82601f830112610593575f5ffd5b81516001600160401b038111156105ac576105ac610540565b6105bf601f8201601f1916602001610554565b8181528460208386010111156105d3575f5ffd5b8160208501602083015e5f918101602001919091529392505050565b5f5f5f5f5f60a08688031215610603575f5ffd5b855161060e81610529565b602087015190955061061f81610529565b604087015190945061063081610529565b60608701519093506001600160401b0381111561064b575f5ffd5b61065788828901610584565b608088015190935090506001600160401b03811115610674575f5ffd5b61068088828901610584565b9150509295509295909350565b5f6020828403121561069d575f5ffd5b81516106a881610529565b9392505050565b600181811c908216806106c357607f821691505b6020821081036106e157634e487b7160e01b5f52602260045260245ffd5b50919050565b601f82111561072e57805f5260205f20601f840160051c8101602085101561070c5750805b601f840160051c820191505b8181101561072b575f8155600101610718565b50505b505050565b81516001600160401b0381111561074c5761074c610540565b6107608161075a84546106af565b846106e7565b6020601f821160018114610792575f831561077b5750848201515b5f19600385901b1c1916600184901b17845561072b565b5f84815260208120601f198516915b828110156107c157878501518255602094850194600190920191016107a1565b50848210156107de57868401515f19600387901b60f8161c191681555b50505050600190811b01905550565b5f602082840312156107fd575f5ffd5b815160ff811681146106a8575f5ffd5b634e487b7160e01b5f52602160045260245ffd5b634e487b7160e01b5f52601160045260245ffd5b6001815b60018411156108705780850481111561085457610854610821565b600184161561086257908102905b60019390931c928002610839565b935093915050565b5f82610886575060016104d7565b8161089257505f6104d7565b81600181146108a857600281146108b2576108ce565b60019150506104d7565b60ff8411156108c3576108c3610821565b50506001821b6104d7565b5060208310610133831016604e8410600b84101617156108f1575081810a6104d7565b6108fd5f198484610835565b805f190482111561091057610910610821565b029392505050565b5f6104d460ff841683610878565b5f82518060208501845e5f920191825250919050565b5f6020828403121561094c575f5ffd5b5051919050565b5f60208284031215610963575f5ffd5b81516001600160401b03811115610978575f5ffd5b8201601f81018413610988575f5ffd5b80516001600160401b038111156109a1576109a1610540565b8060051b6109b160208201610554565b918252602081840181019290810190878411156109cc575f5ffd5b6020850194505b838510156109fa57845192506109e883610529565b828252602094850194909101906109d3565b979650505050505050565b634e487b7160e01b5f52603260045260245ffd5b60805160a0516135c0610a375f395f50505f610fb301526135c05ff3fe608060405234801561000f575f5ffd5b506004361061025a575f3560e01c806301e1d1141461025e57806303d448541461027557806306fdde031461028a57806307a2d13a1461029f578063095ea7b3146102b25780630a28a477146102d55780630c6a62dd146102e85780630d1e6667146102fb578063105444941461030e57806318160ddd146103215780631f52692b1461032957806323b872dd146103495780632dae29671461035c578063313ce5671461036457806333fdc5921461037957806338d52e0f146103815780633ab6d27c14610389578063402d267d1461039c5780634cdad5061461029f5780636e553f65146103b057806370a08231146103c357806373d8057d146103d6578063745400c9146103f25780637847ea531461040557806379502c551461042557806394bf804d146103b057806395d89b411461043857806397ee1144146104405780639908840c14610476578063a68a52671461047f578063a9059cbb14610492578063aa9d3a60146104a5578063b1bd7e2e146104ad578063b3d7f6b9146104c0578063b460af94146104d3578063b6eba653146104e1578063ba087652146104d3578063bdca9165146104f7578063c0b568e114610500578063c37fc8a814610513578063c63d75b61461039c578063c6e6f5921461051b578063cce4705b1461052e578063ce96cb7714610541578063d1699c2614610554578063d3d034581461055c578063d853365f14610572578063d905777e1461057a578063dd62ed3e1461058d578063e51a85f6146105a0578063e66f53b7146105b3578063ef8b30f71461051b575b5f5ffd5b600b545b6040519081526020015b60405180910390f35b610288610283366004612d94565b6105c6565b005b6102926106f6565b60405161026c9190612e5e565b6102626102ad366004612e93565b610786565b6102c56102c0366004612eaa565b610797565b604051901515815260200161026c565b6102626102e3366004612e93565b6107ae565b6102886102f6366004612ed4565b6107ba565b610288610309366004612e93565b61082e565b61028861031c366004612f2f565b610a89565b600254610262565b60075461033c906001600160a01b031681565b60405161026c9190612f76565b6102c5610357366004612f8a565b610c07565b610288610c2c565b60125b60405160ff909116815260200161026c565b610288610cec565b61033c610fb1565b610288610397366004612fe5565b610fd5565b6102626103aa366004612ed4565b505f1990565b6102626103be36600461302d565b611123565b6102626103d1366004612ed4565b61113d565b6103df61271081565b60405161ffff909116815260200161026c565b610288610400366004612e93565b611157565b6104106301e1338081565b60405163ffffffff909116815260200161026c565b60065461033c906001600160a01b031681565b610292611319565b6014546015546104669160ff81169161ffff610100830481169263010000009004169084565b60405161026c949392919061306f565b6103df61012c81565b61026261048d3660046130ad565b611328565b6102c56104a0366004612eaa565b611372565b61028861137f565b6102886104bb3660046130db565b6116e1565b6102626104ce366004612e93565b611981565b6102626103be366004613119565b6104e961198d565b60405161026c929190613190565b6103df610bb881565b61028861050e366004612e93565b611ac7565b601354610262565b610262610529366004612e93565b611c69565b61028861053c366004612e93565b611c74565b61026261054f366004612ed4565b611e19565b601254610262565b610564611e2c565b60405161026c9291906131ee565b610367601281565b610262610588366004612ed4565b611f56565b61026261059b36600461323a565b611f60565b6102626105ae366004612e93565b611f8a565b60085461033c906001600160a01b031681565b6007546001600160a01b031633146105f157604051631a27eac360e11b815260040160405180910390fd5b6105fb6009611fae565b5f5b81518110156106f2575f82828151811061061957610619613266565b6020908102919091010151600654604051633af32abf60e01b81529192506001600160a01b031690633af32abf90610655908490600401612f76565b602060405180830381865afa158015610670573d5f5f3e3d5ffd5b505050506040513d601f19601f82011682018060405250810190610694919061327a565b6106bc578060405163751dff9760e11b81526004016106b39190612f76565b60405180910390fd5b5f6106c8600983611fb7565b9050806106e857604051630ea075bf60e21b815260040160405180910390fd5b50506001016105fd565b5050565b60606003805461070590613299565b80601f016020809104026020016040519081016040528092919081815260200182805461073190613299565b801561077c5780601f106107535761010080835404028352916020019161077c565b820191905f5260205f20905b81548152906001019060200180831161075f57829003601f168201915b5050505050905090565b5f610791825f611fcb565b92915050565b5f336107a481858561200c565b5060019392505050565b5f61079182600161201e565b6007546001600160a01b031633146107e557604051631a27eac360e11b815260040160405180910390fd5b6001600160a01b03811661080c5760405163e6c4247b60e01b815260040160405180910390fd5b600880546001600160a01b0319166001600160a01b0392909216919091179055565b610836612050565b805f0361085f57610845610fb1565b604051636b30633560e01b81526004016106b39190612f76565b5f610868610fb1565b6001600160a01b03166370a08231336040518263ffffffff1660e01b81526004016108939190612f76565b602060405180830381865afa1580156108ae573d5f5f3e3d5ffd5b505050506040513d601f19601f820116820180604052508101906108d291906132cb565b9050808211156108fb57338183604051632e2a182f60e11b81526004016106b3939291906132e2565b5f610904610fb1565b6001600160a01b03166323b872dd3360065f9054906101000a90046001600160a01b03166001600160a01b0316633a0dad8e6040518163ffffffff1660e01b8152600401602060405180830381865afa158015610963573d5f5f3e3d5ffd5b505050506040513d601f19601f820116820180604052508101906109879190613303565b866040518463ffffffff1660e01b81526004016109a69392919061331e565b6020604051808303815f875af11580156109c2573d5f5f3e3d5ffd5b505050506040513d601f19601f820116820180604052508101906109e6919061327a565b905080610a06576040516312171d8360e31b815260040160405180910390fd5b5f610a12600c3361207a565b9150610a2d905033610a248684613356565b600c91906120a0565b508360125f828254610a3f9190613356565b909155505060405184815233907f08d79f77ab5f78e7e780abb1f7ac9e9923340d5bae78f6e83e7999905b248ea29060200160405180910390a2505050610a866001600555565b50565b60065f9054906101000a90046001600160a01b03166001600160a01b0316633a0dad8e6040518163ffffffff1660e01b8152600401602060405180830381865afa158015610ad9573d5f5f3e3d5ffd5b505050506040513d601f19601f82011682018060405250810190610afd9190613303565b6001600160a01b0316336001600160a01b031614610b2e57604051631a27eac360e11b815260040160405180910390fd5b610b3860166120bd565b815f5b8161ffff168161ffff161015610bc857610bbf85858361ffff16818110610b6457610b64613266565b610b7a9260206040909202019081019150612ed4565b86868461ffff16818110610b9057610b90613266565b9050604002016020016020810190610ba89190613369565b63ffffffff1660166120a09092919063ffffffff16565b50600101610b3b565b50600b8290556040518281527f5e1ff954b5e5257e9ee5d4cb07059e8f5e69b1aaaf9911e5d8d90a6894de9c219060200160405180910390a150505050565b5f33610c148582856120c6565b610c1f858585612117565b60019150505b9392505050565b60065f9054906101000a90046001600160a01b03166001600160a01b0316633a0dad8e6040518163ffffffff1660e01b8152600401602060405180830381865afa158015610c7c573d5f5f3e3d5ffd5b505050506040513d601f19601f82011682018060405250810190610ca09190613303565b6001600160a01b0316336001600160a01b031614610cd157604051631a27eac360e11b815260040160405180910390fd5b5f610cda612174565b601554909150811115610a8657601555565b60065f9054906101000a90046001600160a01b03166001600160a01b0316633a0dad8e6040518163ffffffff1660e01b8152600401602060405180830381865afa158015610d3c573d5f5f3e3d5ffd5b505050506040513d601f19601f82011682018060405250810190610d609190613303565b6001600160a01b0316336001600160a01b031614610d9157604051631a27eac360e11b815260040160405180910390fd5b610d99612050565b5f610da4600c61227c565b90505f8163ffffffff166001600160401b03811115610dc557610dc5612d5c565b604051908082528060200260200182016040528015610dee578160200160208202803683370190505b5090505f8263ffffffff166001600160401b03811115610e1057610e10612d5c565b604051908082528060200260200182016040528015610e39578160200160208202803683370190505b5090505f5b8363ffffffff168163ffffffff161015610ed3575f80610e68600c63ffffffff8086169061228616565b9150915081858463ffffffff1681518110610e8557610e85613266565b60200260200101906001600160a01b031690816001600160a01b03168152505080848463ffffffff1681518110610ebe57610ebe613266565b60209081029190910101525050600101610e3e565b505f5b8363ffffffff168163ffffffff161015610fa0575f838263ffffffff1681518110610f0357610f03613266565b602002602001015190505f838363ffffffff1681518110610f2657610f26613266565b602002602001015190505f610f3a82611c69565b9050610f47600c84612294565b50610f5283826122a8565b826001600160a01b03167f85a190caa61692b36b63a55e069330d18ab9af179fed7a25c16a4262bc63b7d283604051610f8d91815260200190565b60405180910390a2505050600101610ed6565b50505f60125550506001600555565b565b7f000000000000000000000000000000000000000000000000000000000000000090565b6007546001600160a01b0316331461100057604051631a27eac360e11b815260040160405180910390fd5b600360ff84161115611025576040516317dbc4cb60e21b815260040160405180910390fd5b610bb861ffff8316111561104c576040516317dbc4cb60e21b815260040160405180910390fd5b61012c61ffff82161115611073576040516317dbc4cb60e21b815260040160405180910390fd5b8260ff1660038111156110885761108861305b565b6014805460ff191660018360038111156110a4576110a461305b565b02179055506014805464ffffffff00191661010061ffff85811691820264ffff0000001916929092176301000000928516928302179092556040805160ff8716815260208101939093528201527fd24f39e523bfa412fa391702710dc62e1c82d87a8e83228a37c42be1b4870f459060600160405180910390a1505050565b5f60405163125ad87760e31b815260040160405180910390fd5b6001600160a01b03165f9081526020819052604090205490565b805f036111795730604051636b30633560e01b81526004016106b39190612f76565b5f6111833361113d565b9050808211156111ac57338183604051632e2a182f60e11b81526004016106b3939291906132e2565b60065460408051631d06d6c760e11b815290515f9230926323b872dd9233926001600160a01b031691633a0dad8e9160048083019260209291908290030181865afa1580156111fd573d5f5f3e3d5ffd5b505050506040513d601f19601f820116820180604052508101906112219190613303565b866040518463ffffffff1660e01b81526004016112409392919061331e565b6020604051808303815f875af115801561125c573d5f5f3e3d5ffd5b505050506040513d601f19601f82011682018060405250810190611280919061327a565b9050806112a0576040516312171d8360e31b815260040160405180910390fd5b5f6112ac600f3361207a565b91506112c79050336112be8684613356565b600f91906120a0565b508360135f8282546112d99190613356565b909155505060405184815233907ff7774b688d56120b783560a913ee60792a73dfd511812b7be5eccf10d08c66899060200160405180910390a250505050565b60606004805461070590613299565b5f5f61133360025490565b9050611369611343856001613356565b61134b6122dc565b61135690600a61346f565b6113609084613356565b87919086612352565b95945050505050565b5f336107a4818585612117565b60065f9054906101000a90046001600160a01b03166001600160a01b0316633a0dad8e6040518163ffffffff1660e01b8152600401602060405180830381865afa1580156113cf573d5f5f3e3d5ffd5b505050506040513d601f19601f820116820180604052508101906113f39190613303565b6001600160a01b0316336001600160a01b03161461142457604051631a27eac360e11b815260040160405180910390fd5b61142c612050565b5f611437600f61227c565b90505f8163ffffffff166001600160401b0381111561145857611458612d5c565b604051908082528060200260200182016040528015611481578160200160208202803683370190505b5090505f8263ffffffff166001600160401b038111156114a3576114a3612d5c565b6040519080825280602002602001820160405280156114cc578160200160208202803683370190505b5090505f5b8363ffffffff168163ffffffff161015611566575f806114fb600f63ffffffff8086169061228616565b9150915081858463ffffffff168151811061151857611518613266565b60200260200101906001600160a01b031690816001600160a01b03168152505080848463ffffffff168151811061155157611551613266565b602090810291909101015250506001016114d1565b505f60138190555b8363ffffffff168163ffffffff1610156116d3575f838263ffffffff168151811061159b5761159b613266565b602002602001015190505f838363ffffffff16815181106115be576115be613266565b602002602001015190506115dc82600f61229490919063ffffffff16565b506115e73082612394565b5f6115f182610786565b90506115fb610fb1565b6001600160a01b031663a9059cbb84836040518363ffffffff1660e01b815260040161162892919061347d565b6020604051808303815f875af1158015611644573d5f5f3e3d5ffd5b505050506040513d601f19601f82011682018060405250810190611668919061327a565b611685576040516312171d8360e31b815260040160405180910390fd5b826001600160a01b03167f44b2ff9ffcefe2052a8afdbed44a04bf3db4592ae90c6b96c818bd28573e41e8836040516116c091815260200190565b60405180910390a250505060010161156e565b50505050610faf6001600555565b6008546001600160a01b0316331461170c57604051631a27eac360e11b815260040160405180910390fd5b5f81900361172d57604051631121aa8d60e01b815260040160405180910390fd5b61173760196120bd565b5f816001600160401b0381111561175057611750612d5c565b604051908082528060200260200182016040528015611779578160200160208202803683370190505b5090505f82815b8161ffff168161ffff1610156118a8575f86868361ffff168181106117a7576117a7613266565b6117bd9260206040909202019081019150612ed4565b90505f87878461ffff168181106117d6576117d6613266565b90506040020160200160208101906117ee9190613369565b905081868461ffff168151811061180757611807613266565b60200260200101906001600160a01b031690816001600160a01b0316815250508063ffffffff165f0361184f5781604051636b30633560e01b81526004016106b39190612f76565b5f61186560198463ffffffff808616906120a016565b90508061188757826040516346bdabe160e01b81526004016106b39190612f76565b61189763ffffffff831687613356565b955050600190920191506117809050565b506118b2836123c8565b60065f9054906101000a90046001600160a01b03166001600160a01b031663d1717c7d6040518163ffffffff1660e01b8152600401602060405180830381865afa158015611902573d5f5f3e3d5ffd5b505050506040513d601f19601f820116820180604052508101906119269190613496565b61193190600a61346f565b821461195057604051639006dd2760e01b815260040160405180910390fd5b60405133907f2d47a742b8d7df7c1fc5a9a631b206b364e6cb2722490759f63bb3ab14b132e0905f90a25050505050565b5f610791826001611fcb565b6060805f61199b601961227c565b90508061ffff166001600160401b038111156119b9576119b9612d5c565b6040519080825280602002602001820160405280156119e2578160200160208202803683370190505b5092508061ffff166001600160401b03811115611a0157611a01612d5c565b604051908082528060200260200182016040528015611a2a578160200160208202803683370190505b5091505f5b8161ffff168161ffff161015611ac1575f80611a50601961ffff8516612286565b9150915081868461ffff1681518110611a6b57611a6b613266565b60200260200101906001600160a01b031690816001600160a01b03168152505080858461ffff1681518110611aa257611aa2613266565b63ffffffff909216602092830291909101909101525050600101611a2f565b50509091565b611acf612050565b805f03611ade57610845610fb1565b5f611aea600c3361207a565b91505081811015611b0e576040516332194fd360e21b815260040160405180910390fd5b60065f9054906101000a90046001600160a01b03166001600160a01b0316633a0dad8e6040518163ffffffff1660e01b8152600401602060405180830381865afa158015611b5e573d5f5f3e3d5ffd5b505050506040513d601f19601f82011682018060405250810190611b829190613303565b6001600160a01b03166351edffb133846040518363ffffffff1660e01b8152600401611baf92919061347d565b5f604051808303815f87803b158015611bc6575f5ffd5b505af1158015611bd8573d5f5f3e3d5ffd5b505050505f8282611be991906134b1565b9050805f03611c0357611bfd600c33612294565b50611c11565b611c0f600c33836120a0565b505b8260125f828254611c2291906134b1565b909155505060405183815233907f96a9a6886cdf3047a125454218a23d3961fd3a78643123b248a9d106d0ac94fd906020015b60405180910390a25050610a866001600555565b5f610791825f61201e565b611c7c612050565b805f03611c9e5730604051636b30633560e01b81526004016106b39190612f76565b5f611caa600f3361207a565b91505081811015611cce576040516312ea1f4960e11b815260040160405180910390fd5b60065f9054906101000a90046001600160a01b03166001600160a01b0316633a0dad8e6040518163ffffffff1660e01b8152600401602060405180830381865afa158015611d1e573d5f5f3e3d5ffd5b505050506040513d601f19601f82011682018060405250810190611d429190613303565b6001600160a01b031663be186b2033846040518363ffffffff1660e01b8152600401611d6f92919061347d565b5f604051808303815f87803b158015611d86575f5ffd5b505af1158015611d98573d5f5f3e3d5ffd5b505050505f8282611da991906134b1565b9050805f03611dc357611dbd600f33612294565b50611dd1565b611dcf600f33836120a0565b505b8260135f828254611de291906134b1565b909155505060405183815233907f9cf37535785001dcc9767688232fcbc8698b3002d1207b50bc2afec3ff8934dc90602001611c55565b5f610791611e268361113d565b5f611fcb565b6060805f611e3a601661227c565b90508061ffff166001600160401b03811115611e5857611e58612d5c565b604051908082528060200260200182016040528015611e81578160200160208202803683370190505b5092508061ffff166001600160401b03811115611ea057611ea0612d5c565b604051908082528060200260200182016040528015611ec9578160200160208202803683370190505b5091505f5b8161ffff168161ffff161015611ac1575f80611eef601661ffff8516612286565b9150915081868461ffff1681518110611f0a57611f0a613266565b60200260200101906001600160a01b031690816001600160a01b03168152505080858461ffff1681518110611f4157611f41613266565b60209081029190910101525050600101611ece565b5f6107918261113d565b6001600160a01b039182165f90815260016020908152604080832093909416825291909152205490565b5f5f611f9583612440565b90505f611fa184612507565b90505f6113698284613356565b610a868161252b565b5f610c25836001600160a01b038416612584565b5f610c25611fd8600b5490565b611fe3906001613356565b611feb6122dc565b611ff690600a61346f565b6002546120039190613356565b85919085612352565b61201983838360016125cb565b505050565b5f610c2561202a6122dc565b61203590600a61346f565b6002546120429190613356565b600b54612003906001613356565b60026005540361207357604051633ee5aeb560e01b815260040160405180910390fd5b6002600555565b5f808080612091866001600160a01b03871661269d565b909450925050505b9250929050565b5f6120b5846001600160a01b038516846126d5565b949350505050565b610a86816126f1565b5f6120d18484611f60565b90505f19811015612111578181101561210357828183604051637dc7a0d960e11b81526004016106b3939291906132e2565b61211184848484035f6125cb565b50505050565b6001600160a01b038316612140575f604051634b637e8f60e11b81526004016106b39190612f76565b6001600160a01b038216612169575f60405163ec442f0560e01b81526004016106b39190612f76565b61201983838361273a565b5f5f61217f60025490565b9050805f036121f957306001600160a01b031663313ce5676040518163ffffffff1660e01b8152600401602060405180830381865afa1580156121c4573d5f5f3e3d5ffd5b505050506040513d601f19601f820116820180604052508101906121e89190613496565b6121f390600a61346f565b91505090565b80306001600160a01b031663313ce5676040518163ffffffff1660e01b8152600401602060405180830381865afa158015612236573d5f5f3e3d5ffd5b505050506040513d601f19601f8201168201806040525081019061225a9190613496565b61226590600a61346f565b600b5461227291906134c4565b6121f391906134ef565b5f6107918261284d565b5f8080806120918686612857565b5f610c25836001600160a01b038416612880565b6001600160a01b0382166122d1575f60405163ec442f0560e01b81526004016106b39190612f76565b6106f25f838361273a565b5f5f6122e6610fb1565b6001600160a01b031663313ce5676040518163ffffffff1660e01b8152600401602060405180830381865afa158015612321573d5f5f3e3d5ffd5b505050506040513d601f19601f820116820180604052508101906123459190613496565b90506121f3816012613502565b5f61237f61235f8361289c565b801561237a57505f8480612375576123756134db565b868809115b151590565b61238a8686866128c8565b6113699190613356565b6001600160a01b0382166123bd575f604051634b637e8f60e11b81526004016106b39190612f76565b6106f2825f8361273a565b5f5b81518110156106f2576124008282815181106123e8576123e8613266565b6020026020010151600961297890919063ffffffff16565b6124385781818151811061241657612416613266565b602002602001015160405163751dff9760e11b81526004016106b39190612f76565b6001016123ca565b6014545f90610100900461ffff16810361245b57505f919050565b5f60145460ff1660038111156124735761247361305b565b03612481576107918261298c565b5f61248a612174565b9050600260145460ff1660038111156124a5576124a561305b565b036124b357610c25816129b3565b600160145460ff1660038111156124cc576124cc61305b565b036124da57610c25816129db565b600360145460ff1660038111156124f3576124f361305b565b0361250157610c2581612a03565b50919050565b6014545f906301000000900461ffff16810361252457505f919050565b5f92915050565b5f612534825490565b90505f5b8181101561257d57826001015f845f01838154811061255957612559613266565b905f5260205f20015481526020019081526020015f205f9055806001019050612538565b50505f9055565b5f61258f8383612a45565b6125c457508154600181810184555f848152602080822090930184905584548482528286019093526040902091909155610791565b505f610791565b6001600160a01b0384166125f4575f60405163e602df0560e01b81526004016106b39190612f76565b6001600160a01b03831661261d575f604051634a1406b160e11b81526004016106b39190612f76565b6001600160a01b038085165f908152600160209081526040808320938716835292905220829055801561211157826001600160a01b0316846001600160a01b03167f8c5be1e5ebec7d5bd14f71427d1e84f3dd0314c0f7b2291e5b200ac8c7c3b9258460405161268f91815260200190565b60405180910390a350505050565b5f8181526002830160205260408120548190806126ca576126be8585612a5c565b92505f91506120999050565b600192509050612099565b5f82815260028401602052604081208290556120b58484612a67565b5f6126fb8261284d565b90505f5b8181101561273057600283015f6127168584612a72565b815260208101919091526040015f908120556001016126ff565b506106f282611fae565b6001600160a01b038316612764578060025f8282546127599190613356565b909155506127c19050565b6001600160a01b0383165f90815260208190526040902054818110156127a35783818360405163391434e360e21b81526004016106b3939291906132e2565b6001600160a01b0384165f9081526020819052604090209082900390555b6001600160a01b0382166127dd576002805482900390556127fb565b6001600160a01b0382165f9081526020819052604090208054820190555b816001600160a01b0316836001600160a01b03167fddf252ad1be2c89b69c2b068fc378daa952ba7f163c4a11628f55a4df523b3ef8360405161284091815260200190565b60405180910390a3505050565b5f61079182612a7d565b5f80806128648585612a72565b5f81815260029690960160205260409095205494959350505050565b5f8181526002830160205260408120819055610c258383612a86565b5f60028260038111156128b1576128b161305b565b6128bb919061351b565b60ff166001149050919050565b5f5f5f6128d58686612a91565b91509150815f036128f9578381816128ef576128ef6134db565b0492505050610c25565b818411612910576129106003851502601118612aad565b5f848688095f868103871696879004966002600389028118808a02820302808a02820302808a02820302808a02820302808a02820302808a02909103029181900381900460010185841190960395909502919093039390930492909217029150509392505050565b5f610c25836001600160a01b038416612a45565b6014545f90612710906129a9908490610100900461ffff166134c4565b61079191906134ef565b6015545f9082116129c557505f919050565b601554610791906129d690846134b1565b612abe565b5f5f6129e5612b6e565b90508083116129f657505f92915050565b610c256129d682856134b1565b5f5f612a0d612b6e565b90505f6014600101548211612a2457601554612a26565b815b9050808411612a3857505f9392505050565b6120b56129d682866134b1565b5f9081526001919091016020526040902054151590565b5f610c258383612c41565b5f610c258383612584565b5f610c258383612c4c565b5f610791825490565b5f610c258383612c72565b5f805f1983850993909202808410938190039390930393915050565b634e487b715f52806020526024601cfd5b5f5f612ac960025490565b9050805f03612ada57505f92915050565b5f612b5282306001600160a01b031663313ce5676040518163ffffffff1660e01b8152600401602060405180830381865afa158015612b1b573d5f5f3e3d5ffd5b505050506040513d601f19601f82011682018060405250810190612b3f9190613496565b612b4a90600a61346f565b8691906128c8565b6014549091506120b590610100900461ffff16826127106128c8565b5f5f60065f9054906101000a90046001600160a01b03166001600160a01b031663f3cc69936040518163ffffffff1660e01b8152600401602060405180830381865afa158015612bc0573d5f5f3e3d5ffd5b505050506040513d601f19601f82011682018060405250810190612be4919061353c565b61ffff1690505f80612bfc6301e13380612710613557565b63ffffffff168260146001015485612c1491906134c4565b612c1e91906134c4565b612c2891906134ef565b601554909150612c39908290613356565b935050505090565b5f610c258383612a45565b5f825f018281548110612c6157612c61613266565b905f5260205f200154905092915050565b5f8181526001830160205260408120548015612d4c575f612c946001836134b1565b85549091505f90612ca7906001906134b1565b9050808214612d06575f865f018281548110612cc557612cc5613266565b905f5260205f200154905080875f018481548110612ce557612ce5613266565b5f918252602080832090910192909255918252600188019052604090208390555b8554869080612d1757612d17613576565b600190038181905f5260205f20015f90559055856001015f8681526020019081526020015f205f905560019350505050610791565b5f915050610791565b5092915050565b634e487b7160e01b5f52604160045260245ffd5b6001600160a01b0381168114610a86575f5ffd5b8035612d8f81612d70565b919050565b5f60208284031215612da4575f5ffd5b81356001600160401b03811115612db9575f5ffd5b8201601f81018413612dc9575f5ffd5b80356001600160401b03811115612de257612de2612d5c565b604051600582901b90603f8201601f191681016001600160401b0381118282101715612e1057612e10612d5c565b604052918252602081840181019290810187841115612e2d575f5ffd5b6020850194505b83851015612e5357612e4585612d84565b815260209485019401612e34565b509695505050505050565b602081525f82518060208401528060208501604085015e5f604082850101526040601f19601f83011684010191505092915050565b5f60208284031215612ea3575f5ffd5b5035919050565b5f5f60408385031215612ebb575f5ffd5b8235612ec681612d70565b946020939093013593505050565b5f60208284031215612ee4575f5ffd5b8135610c2581612d70565b5f5f83601f840112612eff575f5ffd5b5081356001600160401b03811115612f15575f5ffd5b6020830191508360208260061b8501011115612099575f5ffd5b5f5f5f60408486031215612f41575f5ffd5b83356001600160401b03811115612f56575f5ffd5b612f6286828701612eef565b909790965060209590950135949350505050565b6001600160a01b0391909116815260200190565b5f5f5f60608486031215612f9c575f5ffd5b8335612fa781612d70565b92506020840135612fb781612d70565b929592945050506040919091013590565b60ff81168114610a86575f5ffd5b61ffff81168114610a86575f5ffd5b5f5f5f60608486031215612ff7575f5ffd5b833561300281612fc8565b9250602084013561301281612fd6565b9150604084013561302281612fd6565b809150509250925092565b5f5f6040838503121561303e575f5ffd5b82359150602083013561305081612d70565b809150509250929050565b634e487b7160e01b5f52602160045260245ffd5b608081016004861061308f57634e487b7160e01b5f52602160045260245ffd5b94815261ffff93841660208201529190921660408201526060015290565b5f5f5f606084860312156130bf575f5ffd5b8335925060208401359150604084013560048110613022575f5ffd5b5f5f602083850312156130ec575f5ffd5b82356001600160401b03811115613101575f5ffd5b61310d85828601612eef565b90969095509350505050565b5f5f5f6060848603121561312b575f5ffd5b83359250602084013561313d81612d70565b9150604084013561302281612d70565b5f8151808452602084019350602083015f5b828110156131865781516001600160a01b031686526020958601959091019060010161315f565b5093949350505050565b604081525f6131a2604083018561314d565b82810360208401528084518083526020830191506020860192505f5b818110156131e257835163ffffffff168352602093840193909201916001016131be565b50909695505050505050565b604081525f613200604083018561314d565b82810360208401528084518083526020830191506020860192505f5b818110156131e257835183526020938401939092019160010161321c565b5f5f6040838503121561324b575f5ffd5b823561325681612d70565b9150602083013561305081612d70565b634e487b7160e01b5f52603260045260245ffd5b5f6020828403121561328a575f5ffd5b81518015158114610c25575f5ffd5b600181811c908216806132ad57607f821691505b60208210810361250157634e487b7160e01b5f52602260045260245ffd5b5f602082840312156132db575f5ffd5b5051919050565b6001600160a01b039390931683526020830191909152604082015260600190565b5f60208284031215613313575f5ffd5b8151610c2581612d70565b6001600160a01b039384168152919092166020820152604081019190915260600190565b634e487b7160e01b5f52601160045260245ffd5b8082018082111561079157610791613342565b5f60208284031215613379575f5ffd5b813563ffffffff81168114610c25575f5ffd5b6001815b60018411156133c7578085048111156133ab576133ab613342565b60018416156133b957908102905b60019390931c928002613390565b935093915050565b5f826133dd57506001610791565b816133e957505f610791565b81600181146133ff576002811461340957613425565b6001915050610791565b60ff84111561341a5761341a613342565b50506001821b610791565b5060208310610133831016604e8410600b8410161715613448575081810a610791565b6134545f19848461338c565b805f190482111561346757613467613342565b029392505050565b5f610c2560ff8416836133cf565b6001600160a01b03929092168252602082015260400190565b5f602082840312156134a6575f5ffd5b8151610c2581612fc8565b8181038181111561079157610791613342565b808202811582820484141761079157610791613342565b634e487b7160e01b5f52601260045260245ffd5b5f826134fd576134fd6134db565b500490565b60ff828116828216039081111561079157610791613342565b5f60ff83168061352d5761352d6134db565b8060ff84160691505092915050565b5f6020828403121561354c575f5ffd5b8151610c2581612fd6565b63ffffffff8181168382160290811690818114612d5557612d55613342565b634e487b7160e01b5f52603160045260245ffdfea264697066735822122026e0f00acaafa1a0ebdcd92562aa15482519293d74685ee5b044b535c6350ae164736f6c634300081c0033",
  "linkReferences": {},
  "deployedLinkReferences": {}
}