{
  "_format": "hh-sol-artifact-1",
  "contractName": "OrionTransparentVault",
  "sourceName": "contracts/vaults/OrionTransparentVault.sol",
  "abi": [
    {
      "inputs": [
        {
          "internalType": "address",
          "name": "vaultOwner",
          "type": "address"
        },
        {
          "internalType": "address",
          "name": "curator",
          "type": "address"
        },
        {
          "internalType": "contract IOrionConfig",
          "name": "configAddress",
          "type": "address"
        },
        {
          "internalType": "string",
          "name": "name",
          "type": "string"
        },
        {
          "internalType": "string",
          "name": "symbol",
          "type": "string"
        }
      ],
      "stateMutability": "nonpayable",
      "type": "constructor"
    },
    {
      "inputs": [],
      "name": "AlreadyRegistered",
      "type": "error"
    },
    {
      "inputs": [
        {
          "internalType": "address",
          "name": "asset",
          "type": "address"
        }
      ],
      "name": "AmountMustBeGreaterThanZero",
      "type": "error"
    },
    {
      "inputs": [
        {
          "internalType": "address",
          "name": "spender",
          "type": "address"
        },
        {
          "internalType": "uint256",
          "name": "allowance",
          "type": "uint256"
        },
        {
          "internalType": "uint256",
          "name": "needed",
          "type": "uint256"
        }
      ],
      "name": "ERC20InsufficientAllowance",
      "type": "error"
    },
    {
      "inputs": [
        {
          "internalType": "address",
          "name": "sender",
          "type": "address"
        },
        {
          "internalType": "uint256",
          "name": "balance",
          "type": "uint256"
        },
        {
          "internalType": "uint256",
          "name": "needed",
          "type": "uint256"
        }
      ],
      "name": "ERC20InsufficientBalance",
      "type": "error"
    },
    {
      "inputs": [
        {
          "internalType": "address",
          "name": "approver",
          "type": "address"
        }
      ],
      "name": "ERC20InvalidApprover",
      "type": "error"
    },
    {
      "inputs": [
        {
          "internalType": "address",
          "name": "receiver",
          "type": "address"
        }
      ],
      "name": "ERC20InvalidReceiver",
      "type": "error"
    },
    {
      "inputs": [
        {
          "internalType": "address",
          "name": "sender",
          "type": "address"
        }
      ],
      "name": "ERC20InvalidSender",
      "type": "error"
    },
    {
      "inputs": [
        {
          "internalType": "address",
          "name": "spender",
          "type": "address"
        }
      ],
      "name": "ERC20InvalidSpender",
      "type": "error"
    },
    {
      "inputs": [
        {
          "internalType": "address",
          "name": "receiver",
          "type": "address"
        },
        {
          "internalType": "uint256",
          "name": "assets",
          "type": "uint256"
        },
        {
          "internalType": "uint256",
          "name": "max",
          "type": "uint256"
        }
      ],
      "name": "ERC4626ExceededMaxDeposit",
      "type": "error"
    },
    {
      "inputs": [
        {
          "internalType": "address",
          "name": "receiver",
          "type": "address"
        },
        {
          "internalType": "uint256",
          "name": "shares",
          "type": "uint256"
        },
        {
          "internalType": "uint256",
          "name": "max",
          "type": "uint256"
        }
      ],
      "name": "ERC4626ExceededMaxMint",
      "type": "error"
    },
    {
      "inputs": [
        {
          "internalType": "address",
          "name": "owner",
          "type": "address"
        },
        {
          "internalType": "uint256",
          "name": "shares",
          "type": "uint256"
        },
        {
          "internalType": "uint256",
          "name": "max",
          "type": "uint256"
        }
      ],
      "name": "ERC4626ExceededMaxRedeem",
      "type": "error"
    },
    {
      "inputs": [
        {
          "internalType": "address",
          "name": "owner",
          "type": "address"
        },
        {
          "internalType": "uint256",
          "name": "assets",
          "type": "uint256"
        },
        {
          "internalType": "uint256",
          "name": "max",
          "type": "uint256"
        }
      ],
      "name": "ERC4626ExceededMaxWithdraw",
      "type": "error"
    },
    {
      "inputs": [
        {
          "internalType": "address",
          "name": "sender",
          "type": "address"
        },
        {
          "internalType": "uint256",
          "name": "balance",
          "type": "uint256"
        },
        {
          "internalType": "uint256",
          "name": "amount",
          "type": "uint256"
        }
      ],
      "name": "InsufficientFunds",
      "type": "error"
    },
    {
      "inputs": [],
      "name": "InvalidAddress",
      "type": "error"
    },
    {
      "inputs": [],
      "name": "InvalidArguments",
      "type": "error"
    },
    {
      "inputs": [],
      "name": "InvalidTotalWeight",
      "type": "error"
    },
    {
      "inputs": [],
      "name": "InvalidUnderlyingDecimals",
      "type": "error"
    },
    {
      "inputs": [],
      "name": "NotEnoughDepositRequest",
      "type": "error"
    },
    {
      "inputs": [],
      "name": "NotEnoughWithdrawRequest",
      "type": "error"
    },
    {
      "inputs": [],
      "name": "OrderIntentCannotBeEmpty",
      "type": "error"
    },
    {
      "inputs": [],
      "name": "ReentrancyGuardReentrantCall",
      "type": "error"
    },
    {
      "inputs": [],
      "name": "SynchronousCallDisabled",
      "type": "error"
    },
    {
      "inputs": [],
      "name": "SystemNotIdle",
      "type": "error"
    },
    {
      "inputs": [
        {
          "internalType": "address",
          "name": "token",
          "type": "address"
        }
      ],
      "name": "TokenAlreadyInOrder",
      "type": "error"
    },
    {
      "inputs": [
        {
          "internalType": "address",
          "name": "token",
          "type": "address"
        }
      ],
      "name": "TokenNotWhitelisted",
      "type": "error"
    },
    {
      "inputs": [],
      "name": "TransferFailed",
      "type": "error"
    },
    {
      "inputs": [],
      "name": "UnauthorizedAccess",
      "type": "error"
    },
    {
      "anonymous": false,
      "inputs": [
        {
          "indexed": true,
          "internalType": "address",
          "name": "owner",
          "type": "address"
        },
        {
          "indexed": true,
          "internalType": "address",
          "name": "spender",
          "type": "address"
        },
        {
          "indexed": false,
          "internalType": "uint256",
          "name": "value",
          "type": "uint256"
        }
      ],
      "name": "Approval",
      "type": "event"
    },
    {
      "anonymous": false,
      "inputs": [
        {
          "indexed": true,
          "internalType": "uint256",
          "name": "epoch",
          "type": "uint256"
        },
        {
          "indexed": false,
          "internalType": "uint256",
          "name": "feeAmount",
          "type": "uint256"
        },
        {
          "indexed": false,
          "internalType": "uint256",
          "name": "pendingCuratorFees",
          "type": "uint256"
        }
      ],
      "name": "CuratorFeesAccrued",
      "type": "event"
    },
    {
      "anonymous": false,
      "inputs": [
        {
          "indexed": true,
          "internalType": "address",
          "name": "sender",
          "type": "address"
        },
        {
          "indexed": true,
          "internalType": "address",
          "name": "owner",
          "type": "address"
        },
        {
          "indexed": false,
          "internalType": "uint256",
          "name": "assets",
          "type": "uint256"
        },
        {
          "indexed": false,
          "internalType": "uint256",
          "name": "shares",
          "type": "uint256"
        }
      ],
      "name": "Deposit",
      "type": "event"
    },
    {
      "anonymous": false,
      "inputs": [
        {
          "indexed": true,
          "internalType": "address",
          "name": "user",
          "type": "address"
        },
        {
          "indexed": false,
          "internalType": "uint256",
          "name": "amount",
          "type": "uint256"
        }
      ],
      "name": "DepositProcessed",
      "type": "event"
    },
    {
      "anonymous": false,
      "inputs": [
        {
          "indexed": true,
          "internalType": "address",
          "name": "user",
          "type": "address"
        },
        {
          "indexed": false,
          "internalType": "uint256",
          "name": "amount",
          "type": "uint256"
        }
      ],
      "name": "DepositRequestCancelled",
      "type": "event"
    },
    {
      "anonymous": false,
      "inputs": [
        {
          "indexed": true,
          "internalType": "address",
          "name": "user",
          "type": "address"
        },
        {
          "indexed": false,
          "internalType": "uint256",
          "name": "amount",
          "type": "uint256"
        }
      ],
      "name": "DepositRequested",
      "type": "event"
    },
    {
      "anonymous": false,
      "inputs": [
        {
          "indexed": false,
          "internalType": "uint8",
          "name": "mode",
          "type": "uint8"
        },
        {
          "indexed": false,
          "internalType": "uint16",
          "name": "performanceFee",
          "type": "uint16"
        },
        {
          "indexed": false,
          "internalType": "uint16",
          "name": "managementFee",
          "type": "uint16"
        }
      ],
      "name": "FeeModelUpdated",
      "type": "event"
    },
    {
      "anonymous": false,
      "inputs": [
        {
          "indexed": true,
          "internalType": "address",
          "name": "curator",
          "type": "address"
        }
      ],
      "name": "OrderSubmitted",
      "type": "event"
    },
    {
      "anonymous": false,
      "inputs": [
        {
          "indexed": true,
          "internalType": "address",
          "name": "from",
          "type": "address"
        },
        {
          "indexed": true,
          "internalType": "address",
          "name": "to",
          "type": "address"
        },
        {
          "indexed": false,
          "internalType": "uint256",
          "name": "value",
          "type": "uint256"
        }
      ],
      "name": "Transfer",
      "type": "event"
    },
    {
      "anonymous": false,
      "inputs": [
        {
          "indexed": false,
          "internalType": "uint256",
          "name": "newTotalAssets",
          "type": "uint256"
        }
      ],
      "name": "VaultStateUpdated",
      "type": "event"
    },
    {
      "anonymous": false,
      "inputs": [
        {
          "indexed": true,
          "internalType": "address",
          "name": "sender",
          "type": "address"
        },
        {
          "indexed": true,
          "internalType": "address",
          "name": "receiver",
          "type": "address"
        },
        {
          "indexed": true,
          "internalType": "address",
          "name": "owner",
          "type": "address"
        },
        {
          "indexed": false,
          "internalType": "uint256",
          "name": "assets",
          "type": "uint256"
        },
        {
          "indexed": false,
          "internalType": "uint256",
          "name": "shares",
          "type": "uint256"
        }
      ],
      "name": "Withdraw",
      "type": "event"
    },
    {
      "anonymous": false,
      "inputs": [
        {
          "indexed": true,
          "internalType": "address",
          "name": "user",
          "type": "address"
        },
        {
          "indexed": false,
          "internalType": "uint256",
          "name": "shares",
          "type": "uint256"
        }
      ],
      "name": "WithdrawProcessed",
      "type": "event"
    },
    {
      "anonymous": false,
      "inputs": [
        {
          "indexed": true,
          "internalType": "address",
          "name": "user",
          "type": "address"
        },
        {
          "indexed": false,
          "internalType": "uint256",
          "name": "shares",
          "type": "uint256"
        }
      ],
      "name": "WithdrawRequestCancelled",
      "type": "event"
    },
    {
      "anonymous": false,
      "inputs": [
        {
          "indexed": true,
          "internalType": "address",
          "name": "user",
          "type": "address"
        },
        {
          "indexed": false,
          "internalType": "uint256",
          "name": "shares",
          "type": "uint256"
        }
      ],
      "name": "WithdrawRequested",
      "type": "event"
    },
    {
      "inputs": [],
      "name": "CURATOR_FEE_FACTOR",
      "outputs": [
        {
          "internalType": "uint16",
          "name": "",
          "type": "uint16"
        }
      ],
      "stateMutability": "view",
      "type": "function"
    },
    {
      "inputs": [],
      "name": "MAX_MANAGEMENT_FEE",
      "outputs": [
        {
          "internalType": "uint16",
          "name": "",
          "type": "uint16"
        }
      ],
      "stateMutability": "view",
      "type": "function"
    },
    {
      "inputs": [],
      "name": "MAX_PERFORMANCE_FEE",
      "outputs": [
        {
          "internalType": "uint16",
          "name": "",
          "type": "uint16"
        }
      ],
      "stateMutability": "view",
      "type": "function"
    },
    {
      "inputs": [],
      "name": "SHARE_DECIMALS",
      "outputs": [
        {
          "internalType": "uint8",
          "name": "",
          "type": "uint8"
        }
      ],
      "stateMutability": "view",
      "type": "function"
    },
    {
      "inputs": [],
      "name": "YEAR_IN_SECONDS",
      "outputs": [
        {
          "internalType": "uint32",
          "name": "",
          "type": "uint32"
        }
      ],
      "stateMutability": "view",
      "type": "function"
    },
    {
      "inputs": [
        {
          "internalType": "uint256",
          "name": "epoch",
          "type": "uint256"
        },
        {
          "internalType": "uint256",
          "name": "feeAmount",
          "type": "uint256"
        }
      ],
      "name": "accrueCuratorFees",
      "outputs": [],
      "stateMutability": "nonpayable",
      "type": "function"
    },
    {
      "inputs": [
        {
          "internalType": "address",
          "name": "owner",
          "type": "address"
        },
        {
          "internalType": "address",
          "name": "spender",
          "type": "address"
        }
      ],
      "name": "allowance",
      "outputs": [
        {
          "internalType": "uint256",
          "name": "",
          "type": "uint256"
        }
      ],
      "stateMutability": "view",
      "type": "function"
    },
    {
      "inputs": [
        {
          "internalType": "address",
          "name": "spender",
          "type": "address"
        },
        {
          "internalType": "uint256",
          "name": "value",
          "type": "uint256"
        }
      ],
      "name": "approve",
      "outputs": [
        {
          "internalType": "bool",
          "name": "",
          "type": "bool"
        }
      ],
      "stateMutability": "nonpayable",
      "type": "function"
    },
    {
      "inputs": [],
      "name": "asset",
      "outputs": [
        {
          "internalType": "address",
          "name": "",
          "type": "address"
        }
      ],
      "stateMutability": "view",
      "type": "function"
    },
    {
      "inputs": [
        {
          "internalType": "address",
          "name": "account",
          "type": "address"
        }
      ],
      "name": "balanceOf",
      "outputs": [
        {
          "internalType": "uint256",
          "name": "",
          "type": "uint256"
        }
      ],
      "stateMutability": "view",
      "type": "function"
    },
    {
      "inputs": [
        {
          "internalType": "uint256",
          "name": "amount",
          "type": "uint256"
        }
      ],
      "name": "cancelDepositRequest",
      "outputs": [],
      "stateMutability": "nonpayable",
      "type": "function"
    },
    {
      "inputs": [
        {
          "internalType": "uint256",
          "name": "shares",
          "type": "uint256"
        }
      ],
      "name": "cancelWithdrawRequest",
      "outputs": [],
      "stateMutability": "nonpayable",
      "type": "function"
    },
    {
      "inputs": [],
      "name": "claimCuratorFees",
      "outputs": [],
      "stateMutability": "nonpayable",
      "type": "function"
    },
    {
      "inputs": [],
      "name": "config",
      "outputs": [
        {
          "internalType": "contract IOrionConfig",
          "name": "",
          "type": "address"
        }
      ],
      "stateMutability": "view",
      "type": "function"
    },
    {
      "inputs": [
        {
          "internalType": "uint256",
          "name": "shares",
          "type": "uint256"
        }
      ],
      "name": "convertToAssets",
      "outputs": [
        {
          "internalType": "uint256",
          "name": "",
          "type": "uint256"
        }
      ],
      "stateMutability": "view",
      "type": "function"
    },
    {
      "inputs": [
        {
          "internalType": "uint256",
          "name": "shares",
          "type": "uint256"
        },
        {
          "internalType": "uint256",
          "name": "pointInTimeTotalAssets",
          "type": "uint256"
        },
        {
          "internalType": "enum Math.Rounding",
          "name": "rounding",
          "type": "uint8"
        }
      ],
      "name": "convertToAssetsWithPITTotalAssets",
      "outputs": [
        {
          "internalType": "uint256",
          "name": "",
          "type": "uint256"
        }
      ],
      "stateMutability": "view",
      "type": "function"
    },
    {
      "inputs": [
        {
          "internalType": "uint256",
          "name": "assets",
          "type": "uint256"
        }
      ],
      "name": "convertToShares",
      "outputs": [
        {
          "internalType": "uint256",
          "name": "",
          "type": "uint256"
        }
      ],
      "stateMutability": "view",
      "type": "function"
    },
    {
      "inputs": [],
      "name": "curator",
      "outputs": [
        {
          "internalType": "address",
          "name": "",
          "type": "address"
        }
      ],
      "stateMutability": "view",
      "type": "function"
    },
    {
      "inputs": [
        {
          "internalType": "uint256",
          "name": "activeTotalAssets",
          "type": "uint256"
        }
      ],
      "name": "curatorFee",
      "outputs": [
        {
          "internalType": "uint256",
          "name": "",
          "type": "uint256"
        }
      ],
      "stateMutability": "view",
      "type": "function"
    },
    {
      "inputs": [],
      "name": "curatorIntentDecimals",
      "outputs": [
        {
          "internalType": "uint8",
          "name": "",
          "type": "uint8"
        }
      ],
      "stateMutability": "view",
      "type": "function"
    },
    {
      "inputs": [],
      "name": "decimals",
      "outputs": [
        {
          "internalType": "uint8",
          "name": "",
          "type": "uint8"
        }
      ],
      "stateMutability": "view",
      "type": "function"
    },
    {
      "inputs": [
        {
          "internalType": "uint256",
          "name": "",
          "type": "uint256"
        },
        {
          "internalType": "address",
          "name": "",
          "type": "address"
        }
      ],
      "name": "deposit",
      "outputs": [
        {
          "internalType": "uint256",
          "name": "",
          "type": "uint256"
        }
      ],
      "stateMutability": "pure",
      "type": "function"
    },
    {
      "inputs": [],
      "name": "feeModel",
      "outputs": [
        {
          "internalType": "enum OrionVault.CalcMode",
          "name": "mode",
          "type": "uint8"
        },
        {
          "internalType": "uint16",
          "name": "performanceFee",
          "type": "uint16"
        },
        {
          "internalType": "uint16",
          "name": "managementFee",
          "type": "uint16"
        },
        {
          "internalType": "uint256",
          "name": "highWaterMark",
          "type": "uint256"
        }
      ],
      "stateMutability": "view",
      "type": "function"
    },
    {
      "inputs": [],
      "name": "getIntent",
      "outputs": [
        {
          "internalType": "address[]",
          "name": "tokens",
          "type": "address[]"
        },
        {
          "internalType": "uint32[]",
          "name": "weights",
          "type": "uint32[]"
        }
      ],
      "stateMutability": "view",
      "type": "function"
    },
    {
      "inputs": [],
      "name": "getPendingDeposits",
      "outputs": [
        {
          "internalType": "uint256",
          "name": "",
          "type": "uint256"
        }
      ],
      "stateMutability": "view",
      "type": "function"
    },
    {
      "inputs": [],
      "name": "getPendingWithdrawals",
      "outputs": [
        {
          "internalType": "uint256",
          "name": "",
          "type": "uint256"
        }
      ],
      "stateMutability": "view",
      "type": "function"
    },
    {
      "inputs": [],
      "name": "getPortfolio",
      "outputs": [
        {
          "internalType": "address[]",
          "name": "tokens",
          "type": "address[]"
        },
        {
          "internalType": "uint256[]",
          "name": "sharesPerAsset",
          "type": "uint256[]"
        }
      ],
      "stateMutability": "view",
      "type": "function"
    },
    {
      "inputs": [],
      "name": "internalStatesOrchestrator",
      "outputs": [
        {
          "internalType": "contract IInternalStateOrchestrator",
          "name": "",
          "type": "address"
        }
      ],
      "stateMutability": "view",
      "type": "function"
    },
    {
      "inputs": [],
      "name": "liquidityOrchestrator",
      "outputs": [
        {
          "internalType": "contract ILiquidityOrchestrator",
          "name": "",
          "type": "address"
        }
      ],
      "stateMutability": "view",
      "type": "function"
    },
    {
      "inputs": [
        {
          "internalType": "address",
          "name": "",
          "type": "address"
        }
      ],
      "name": "maxDeposit",
      "outputs": [
        {
          "internalType": "uint256",
          "name": "",
          "type": "uint256"
        }
      ],
      "stateMutability": "view",
      "type": "function"
    },
    {
      "inputs": [
        {
          "internalType": "address",
          "name": "",
          "type": "address"
        }
      ],
      "name": "maxMint",
      "outputs": [
        {
          "internalType": "uint256",
          "name": "",
          "type": "uint256"
        }
      ],
      "stateMutability": "view",
      "type": "function"
    },
    {
      "inputs": [
        {
          "internalType": "address",
          "name": "owner",
          "type": "address"
        }
      ],
      "name": "maxRedeem",
      "outputs": [
        {
          "internalType": "uint256",
          "name": "",
          "type": "uint256"
        }
      ],
      "stateMutability": "view",
      "type": "function"
    },
    {
      "inputs": [
        {
          "internalType": "address",
          "name": "owner",
          "type": "address"
        }
      ],
      "name": "maxWithdraw",
      "outputs": [
        {
          "internalType": "uint256",
          "name": "",
          "type": "uint256"
        }
      ],
      "stateMutability": "view",
      "type": "function"
    },
    {
      "inputs": [
        {
          "internalType": "uint256",
          "name": "",
          "type": "uint256"
        },
        {
          "internalType": "address",
          "name": "",
          "type": "address"
        }
      ],
      "name": "mint",
      "outputs": [
        {
          "internalType": "uint256",
          "name": "",
          "type": "uint256"
        }
      ],
      "stateMutability": "pure",
      "type": "function"
    },
    {
      "inputs": [],
      "name": "name",
      "outputs": [
        {
          "internalType": "string",
          "name": "",
          "type": "string"
        }
      ],
      "stateMutability": "view",
      "type": "function"
    },
    {
      "inputs": [],
      "name": "pendingCuratorFees",
      "outputs": [
        {
          "internalType": "uint256",
          "name": "",
          "type": "uint256"
        }
      ],
      "stateMutability": "view",
      "type": "function"
    },
    {
      "inputs": [
        {
          "internalType": "uint256",
          "name": "assets",
          "type": "uint256"
        }
      ],
      "name": "previewDeposit",
      "outputs": [
        {
          "internalType": "uint256",
          "name": "",
          "type": "uint256"
        }
      ],
      "stateMutability": "view",
      "type": "function"
    },
    {
      "inputs": [
        {
          "internalType": "uint256",
          "name": "shares",
          "type": "uint256"
        }
      ],
      "name": "previewMint",
      "outputs": [
        {
          "internalType": "uint256",
          "name": "",
          "type": "uint256"
        }
      ],
      "stateMutability": "view",
      "type": "function"
    },
    {
      "inputs": [
        {
          "internalType": "uint256",
          "name": "shares",
          "type": "uint256"
        }
      ],
      "name": "previewRedeem",
      "outputs": [
        {
          "internalType": "uint256",
          "name": "",
          "type": "uint256"
        }
      ],
      "stateMutability": "view",
      "type": "function"
    },
    {
      "inputs": [
        {
          "internalType": "uint256",
          "name": "assets",
          "type": "uint256"
        }
      ],
      "name": "previewWithdraw",
      "outputs": [
        {
          "internalType": "uint256",
          "name": "",
          "type": "uint256"
        }
      ],
      "stateMutability": "view",
      "type": "function"
    },
    {
      "inputs": [],
      "name": "processDepositRequests",
      "outputs": [],
      "stateMutability": "nonpayable",
      "type": "function"
    },
    {
      "inputs": [],
      "name": "processWithdrawRequests",
      "outputs": [],
      "stateMutability": "nonpayable",
      "type": "function"
    },
    {
      "inputs": [
        {
          "internalType": "uint256",
          "name": "",
          "type": "uint256"
        },
        {
          "internalType": "address",
          "name": "",
          "type": "address"
        },
        {
          "internalType": "address",
          "name": "",
          "type": "address"
        }
      ],
      "name": "redeem",
      "outputs": [
        {
          "internalType": "uint256",
          "name": "",
          "type": "uint256"
        }
      ],
      "stateMutability": "pure",
      "type": "function"
    },
    {
      "inputs": [
        {
          "internalType": "uint256",
          "name": "amount",
          "type": "uint256"
        }
      ],
      "name": "requestDeposit",
      "outputs": [],
      "stateMutability": "nonpayable",
      "type": "function"
    },
    {
      "inputs": [
        {
          "internalType": "uint256",
          "name": "shares",
          "type": "uint256"
        }
      ],
      "name": "requestWithdraw",
      "outputs": [],
      "stateMutability": "nonpayable",
      "type": "function"
    },
    {
      "inputs": [
        {
          "components": [
            {
              "internalType": "address",
              "name": "token",
              "type": "address"
            },
            {
              "internalType": "uint32",
              "name": "value",
              "type": "uint32"
            }
          ],
          "internalType": "struct IOrionTransparentVault.Position[]",
          "name": "intent",
          "type": "tuple[]"
        }
      ],
      "name": "submitIntent",
      "outputs": [],
      "stateMutability": "nonpayable",
      "type": "function"
    },
    {
      "inputs": [],
      "name": "symbol",
      "outputs": [
        {
          "internalType": "string",
          "name": "",
          "type": "string"
        }
      ],
      "stateMutability": "view",
      "type": "function"
    },
    {
      "inputs": [],
      "name": "totalAssets",
      "outputs": [
        {
          "internalType": "uint256",
          "name": "",
          "type": "uint256"
        }
      ],
      "stateMutability": "view",
      "type": "function"
    },
    {
      "inputs": [],
      "name": "totalSupply",
      "outputs": [
        {
          "internalType": "uint256",
          "name": "",
          "type": "uint256"
        }
      ],
      "stateMutability": "view",
      "type": "function"
    },
    {
      "inputs": [
        {
          "internalType": "address",
          "name": "to",
          "type": "address"
        },
        {
          "internalType": "uint256",
          "name": "value",
          "type": "uint256"
        }
      ],
      "name": "transfer",
      "outputs": [
        {
          "internalType": "bool",
          "name": "",
          "type": "bool"
        }
      ],
      "stateMutability": "nonpayable",
      "type": "function"
    },
    {
      "inputs": [
        {
          "internalType": "address",
          "name": "from",
          "type": "address"
        },
        {
          "internalType": "address",
          "name": "to",
          "type": "address"
        },
        {
          "internalType": "uint256",
          "name": "value",
          "type": "uint256"
        }
      ],
      "name": "transferFrom",
      "outputs": [
        {
          "internalType": "bool",
          "name": "",
          "type": "bool"
        }
      ],
      "stateMutability": "nonpayable",
      "type": "function"
    },
    {
      "inputs": [
        {
          "internalType": "address",
          "name": "newCurator",
          "type": "address"
        }
      ],
      "name": "updateCurator",
      "outputs": [],
      "stateMutability": "nonpayable",
      "type": "function"
    },
    {
      "inputs": [
        {
          "internalType": "uint8",
          "name": "mode",
          "type": "uint8"
        },
        {
          "internalType": "uint16",
          "name": "performanceFee",
          "type": "uint16"
        },
        {
          "internalType": "uint16",
          "name": "managementFee",
          "type": "uint16"
        }
      ],
      "name": "updateFeeModel",
      "outputs": [],
      "stateMutability": "nonpayable",
      "type": "function"
    },
    {
      "inputs": [],
      "name": "updateHighWaterMark",
      "outputs": [],
      "stateMutability": "nonpayable",
      "type": "function"
    },
    {
      "inputs": [
        {
          "components": [
            {
              "internalType": "address",
              "name": "token",
              "type": "address"
            },
            {
              "internalType": "uint32",
              "name": "value",
              "type": "uint32"
            }
          ],
          "internalType": "struct IOrionTransparentVault.Position[]",
          "name": "portfolio",
          "type": "tuple[]"
        },
        {
          "internalType": "uint256",
          "name": "newTotalAssets",
          "type": "uint256"
        }
      ],
      "name": "updateVaultState",
      "outputs": [],
      "stateMutability": "nonpayable",
      "type": "function"
    },
    {
      "inputs": [
        {
          "internalType": "address[]",
          "name": "assets",
          "type": "address[]"
        }
      ],
      "name": "updateVaultWhitelist",
      "outputs": [],
      "stateMutability": "nonpayable",
      "type": "function"
    },
    {
      "inputs": [],
      "name": "vaultOwner",
      "outputs": [
        {
          "internalType": "address",
          "name": "",
          "type": "address"
        }
      ],
      "stateMutability": "view",
      "type": "function"
    },
    {
      "inputs": [
        {
          "internalType": "uint256",
          "name": "",
          "type": "uint256"
        },
        {
          "internalType": "address",
          "name": "",
          "type": "address"
        },
        {
          "internalType": "address",
          "name": "",
          "type": "address"
        }
      ],
      "name": "withdraw",
      "outputs": [
        {
          "internalType": "uint256",
          "name": "",
          "type": "uint256"
        }
      ],
      "stateMutability": "pure",
      "type": "function"
    }
  ],
  "bytecode": "0x60c060405234801561000f575f5ffd5b5060405161429538038061429583398101604081905261002e91610776565b8484848484826001600160a01b0316637158da7c6040518163ffffffff1660e01b8152600401602060405180830381865afa15801561006f573d5f5f3e3d5ffd5b505050506040513d601f19601f820116820180604052508101906100939190610814565b828260036100a183826108ba565b5060046100ae82826108ba565b5050505f5f6100c28361049c60201b60201c565b91509150816100d25760126100d4565b805b60ff1660a05250506001600160a01b039081166080526001600555841661010e5760405163e6c4247b60e01b815260040160405180910390fd5b6001600160a01b0383166101355760405163e6c4247b60e01b815260040160405180910390fd5b600680546001600160a01b038088166001600160a01b0319928316179092556007805487841690831617905560088054928616929091168217905560408051630691d8b960e31b8152905163348ec5c8916004808201926020929091908290030181865afa1580156101a9573d5f5f3e3d5ffd5b505050506040513d601f19601f820116820180604052508101906101cd9190610814565b60095f6101000a8154816001600160a01b0302191690836001600160a01b03160217905550826001600160a01b0316633a0dad8e6040518163ffffffff1660e01b8152600401602060405180830381865afa15801561022e573d5f5f3e3d5ffd5b505050506040513d601f19601f820116820180604052508101906102529190610814565b600a5f6101000a8154816001600160a01b0302191690836001600160a01b03160217905550826001600160a01b031663d1717c7d6040518163ffffffff1660e01b8152600401602060405180830381865afa1580156102b3573d5f5f3e3d5ffd5b505050506040513d601f19601f820116820180604052508101906102d79190610974565b600a60146101000a81548160ff021916908360ff1602179055505f600d819055505f6014819055505f6015819055505f836001600160a01b0316637158da7c6040518163ffffffff1660e01b8152600401602060405180830381865afa158015610343573d5f5f3e3d5ffd5b505050506040513d601f19601f820116820180604052508101906103679190610814565b6001600160a01b031663313ce5676040518163ffffffff1660e01b8152600401602060405180830381865afa1580156103a2573d5f5f3e3d5ffd5b505050506040513d601f19601f820116820180604052508101906103c69190610974565b9050601260ff821611156103ed57604051631c03248960e11b815260040160405180910390fd5b6040805160808101909152805f81525f6020820181905260408201526060016104186012600a610a9f565b9052805160178054909190829060ff1916600183600481111561043d5761043d610994565b021790555060208201518154604084015161ffff90811663010000000264ffff0000001991909316610100021664ffffffff00199091161717815560609091015160019091015561048c610572565b5050505050505050505050610ba0565b60408051600481526024810182526020810180516001600160e01b031663313ce56760e01b17905290515f918291829182916001600160a01b038716916104e291610aad565b5f60405180830381855afa9150503d805f811461051a576040519150601f19603f3d011682016040523d82523d5f602084013e61051f565b606091505b509150915081801561053357506020815110155b15610566575f8180602001905181019061054d9190610ac3565b905060ff8111610564576001969095509350505050565b505b505f9485945092505050565b60085460408051636c366a2760e11b815290515f926001600160a01b03169163d86cd44e91600480830192869291908290030181865afa1580156105b8573d5f5f3e3d5ffd5b505050506040513d5f823e601f3d908101601f191682016040526105df9190810190610ada565b90505f5b8151811015610643575f61061a83838151811061060257610602610b8c565b6020026020010151600b61064760201b90919060201c565b90508061063a57604051630ea075bf60e21b815260040160405180910390fd5b506001016105e3565b5050565b5f61065b836001600160a01b038416610664565b90505b92915050565b5f8181526001830160205260408120546106a957508154600181810184555f84815260208082209093018490558454848252828601909352604090209190915561065e565b505f61065e565b6001600160a01b03811681146106c4575f5ffd5b50565b634e487b7160e01b5f52604160045260245ffd5b604051601f8201601f191681016001600160401b0381118282101715610703576107036106c7565b604052919050565b5f82601f83011261071a575f5ffd5b81516001600160401b03811115610733576107336106c7565b610746601f8201601f19166020016106db565b81815284602083860101111561075a575f5ffd5b8160208501602083015e5f918101602001919091529392505050565b5f5f5f5f5f60a0868803121561078a575f5ffd5b8551610795816106b0565b60208701519095506107a6816106b0565b60408701519094506107b7816106b0565b60608701519093506001600160401b038111156107d2575f5ffd5b6107de8882890161070b565b608088015190935090506001600160401b038111156107fb575f5ffd5b6108078882890161070b565b9150509295509295909350565b5f60208284031215610824575f5ffd5b815161082f816106b0565b9392505050565b600181811c9082168061084a57607f821691505b60208210810361086857634e487b7160e01b5f52602260045260245ffd5b50919050565b601f8211156108b557805f5260205f20601f840160051c810160208510156108935750805b601f840160051c820191505b818110156108b2575f815560010161089f565b50505b505050565b81516001600160401b038111156108d3576108d36106c7565b6108e7816108e18454610836565b8461086e565b6020601f821160018114610919575f83156109025750848201515b5f19600385901b1c1916600184901b1784556108b2565b5f84815260208120601f198516915b828110156109485787850151825560209485019460019092019101610928565b508482101561096557868401515f19600387901b60f8161c191681555b50505050600190811b01905550565b5f60208284031215610984575f5ffd5b815160ff8116811461082f575f5ffd5b634e487b7160e01b5f52602160045260245ffd5b634e487b7160e01b5f52601160045260245ffd5b6001815b60018411156109f7578085048111156109db576109db6109a8565b60018416156109e957908102905b60019390931c9280026109c0565b935093915050565b5f82610a0d5750600161065e565b81610a1957505f61065e565b8160018114610a2f5760028114610a3957610a55565b600191505061065e565b60ff841115610a4a57610a4a6109a8565b50506001821b61065e565b5060208310610133831016604e8410600b8410161715610a78575081810a61065e565b610a845f1984846109bc565b805f1904821115610a9757610a976109a8565b029392505050565b5f61065b60ff8416836109ff565b5f82518060208501845e5f920191825250919050565b5f60208284031215610ad3575f5ffd5b5051919050565b5f60208284031215610aea575f5ffd5b81516001600160401b03811115610aff575f5ffd5b8201601f81018413610b0f575f5ffd5b80516001600160401b03811115610b2857610b286106c7565b8060051b610b38602082016106db565b91825260208184018101929081019087841115610b53575f5ffd5b6020850194505b83851015610b815784519250610b6f836106b0565b82825260209485019490910190610b5a565b979650505050505050565b634e487b7160e01b5f52603260045260245ffd5b60805160a0516136d7610bbe5f395f50505f61104101526136d75ff3fe608060405234801561000f575f5ffd5b506004361061029c575f3560e01c806301e1d114146102a057806303d44854146102b757806306fdde03146102cc57806307a2d13a146102e1578063095ea7b3146102f45780630a28a477146103175780630c6a62dd1461032a5780630d1e66671461033d5780630df571f714610350578063105444941461036357806318160ddd146103765780631f52692b1461037e57806323b872dd1461039e5780632dae2967146103b1578063313ce567146103b957806333fdc592146103ce578063348ec5c8146103d657806338d52e0f146103e95780633a0dad8e146103f15780633ab6d27c14610404578063402d267d146104175780634cdad506146102e15780636e553f651461042b57806370a082311461043e57806373d8057d14610451578063745400c91461046d5780637847ea531461048057806379502c55146104a057806394bf804d1461042b57806395d89b41146104b357806397ee1144146104bb5780639908840c146104f1578063a68a5267146104fa578063a9059cbb1461050d578063aa9d3a6014610520578063acdb3d5114610528578063b1bd7e2e14610531578063b3d7f6b914610544578063b460af9414610557578063b6eba65314610565578063b76b720e1461057b578063ba08765214610557578063bdca916514610583578063c0b568e11461058c578063c37fc8a81461059f578063c63d75b614610417578063c6e6f592146105a7578063cce4705b146105ba578063ce96cb77146105cd578063d1699c26146105e0578063d1717c7d146105e8578063d3d03458146105fc578063d853365f14610612578063d905777e1461061a578063dd62ed3e1461062d578063e51a85f614610640578063e66f53b714610653578063ef8b30f7146105a7575b5f5ffd5b600d545b6040519081526020015b60405180910390f35b6102ca6102c5366004612ec4565b610666565b005b6102d4610827565b6040516102ae9190612f8e565b6102a46102ef366004612fc3565b6108b7565b610307610302366004612fda565b6108c8565b60405190151581526020016102ae565b6102a4610325366004612fc3565b6108df565b6102ca610338366004613002565b6108eb565b6102ca61034b366004612fc3565b61095f565b6102ca61035e36600461301b565b610be0565b6102ca61037136600461307b565b610c6f565b6002546102a4565b600654610391906001600160a01b031681565b6040516102ae91906130c2565b6103076103ac3660046130d6565b610d73565b6102ca610d98565b60125b60405160ff90911681526020016102ae565b6102ca610de7565b600954610391906001600160a01b031681565b61039161103f565b600a54610391906001600160a01b031681565b6102ca61041236600461312d565b611063565b6102a4610425366004613002565b505f1990565b6102a4610439366004613175565b611242565b6102a461044c366004613002565b61125c565b61045a61271081565b60405161ffff90911681526020016102ae565b6102ca61047b366004612fc3565b611276565b61048b6301e1338081565b60405163ffffffff90911681526020016102ae565b600854610391906001600160a01b031681565b6102d461145e565b6017546018546104e19160ff81169161ffff610100830481169263010000009004169084565b6040516102ae94939291906131b3565b61045a61012c81565b6102a46105083660046131f1565b61146d565b61030761051b366004612fda565b6114ad565b6102ca6114ba565b6102a460165481565b6102ca61053f36600461321f565b611761565b6102a4610552366004612fc3565b61199e565b6102a461043936600461325d565b61056d6119aa565b6040516102ae9291906132d9565b6102ca611ae4565b61045a610bb881565b6102ca61059a366004612fc3565b611c15565b6015546102a4565b6102a46105b5366004612fc3565b611dd8565b6102ca6105c8366004612fc3565b611de3565b6102a46105db366004613002565b611fd0565b6014546102a4565b600a546103bc90600160a01b900460ff1681565b610604611fe3565b6040516102ae929190613337565b6103bc601281565b6102a4610628366004613002565b61210d565b6102a461063b366004613383565b612117565b6102a461064e366004612fc3565b612141565b600754610391906001600160a01b031681565b6006546001600160a01b0316331461069157604051631a27eac360e11b815260040160405180910390fd5b60085f9054906101000a90046001600160a01b03166001600160a01b031663edcf9c1f6040518163ffffffff1660e01b8152600401602060405180830381865afa1580156106e1573d5f5f3e3d5ffd5b505050506040513d601f19601f8201168201806040525081019061070591906133ab565b610722576040516312aecd8160e01b815260040160405180910390fd5b61072c600b61217a565b5f5b8151811015610823575f82828151811061074a5761074a6133ca565b6020908102919091010151600854604051633af32abf60e01b81529192506001600160a01b031690633af32abf906107869084906004016130c2565b602060405180830381865afa1580156107a1573d5f5f3e3d5ffd5b505050506040513d601f19601f820116820180604052508101906107c591906133ab565b6107ed578060405163751dff9760e11b81526004016107e491906130c2565b60405180910390fd5b5f6107f9600b83612183565b90508061081957604051630ea075bf60e21b815260040160405180910390fd5b505060010161072e565b5050565b606060038054610836906133de565b80601f0160208091040260200160405190810160405280929190818152602001828054610862906133de565b80156108ad5780601f10610884576101008083540402835291602001916108ad565b820191905f5260205f20905b81548152906001019060200180831161089057829003601f168201915b5050505050905090565b5f6108c2825f612197565b92915050565b5f336108d58185856121d8565b5060019392505050565b5f6108c28260016121ea565b6006546001600160a01b0316331461091657604051631a27eac360e11b815260040160405180910390fd5b6001600160a01b03811661093d5760405163e6c4247b60e01b815260040160405180910390fd5b600780546001600160a01b0319166001600160a01b0392909216919091179055565b61096761221c565b60085f9054906101000a90046001600160a01b03166001600160a01b031663edcf9c1f6040518163ffffffff1660e01b8152600401602060405180830381865afa1580156109b7573d5f5f3e3d5ffd5b505050506040513d601f19601f820116820180604052508101906109db91906133ab565b6109f8576040516312aecd8160e01b815260040160405180910390fd5b805f03610a2157610a0761103f565b604051636b30633560e01b81526004016107e491906130c2565b5f610a2a61103f565b6001600160a01b03166370a08231336040518263ffffffff1660e01b8152600401610a5591906130c2565b602060405180830381865afa158015610a70573d5f5f3e3d5ffd5b505050506040513d601f19601f82011682018060405250810190610a949190613416565b905080821115610abd57338183604051632e2a182f60e11b81526004016107e49392919061342d565b5f610ac661103f565b600a546040516323b872dd60e01b81526001600160a01b03928316926323b872dd92610afc92339290911690889060040161344e565b6020604051808303815f875af1158015610b18573d5f5f3e3d5ffd5b505050506040513d601f19601f82011682018060405250810190610b3c91906133ab565b905080610b5c576040516312171d8360e31b815260040160405180910390fd5b5f610b68600e33612246565b9150610b83905033610b7a8684613486565b600e919061226c565b508360145f828254610b959190613486565b909155505060405184815233907f08d79f77ab5f78e7e780abb1f7ac9e9923340d5bae78f6e83e7999905b248ea2906020015b60405180910390a2505050610bdd6001600555565b50565b600a546001600160a01b03163314610c0b57604051631a27eac360e11b815260040160405180910390fd5b8015610823578060165f828254610c229190613486565b909155505060165460405183917f8b8789cf9157fe7b016901e4ed3a5d0971caa8b7c031da0b25638ccf65841b2a91610c6391858252602082015260400190565b60405180910390a25050565b600a546001600160a01b03163314610c9a57604051631a27eac360e11b815260040160405180910390fd5b610ca46019612281565b815f5b8161ffff168161ffff161015610d3457610d2b85858361ffff16818110610cd057610cd06133ca565b610ce69260206040909202019081019150613002565b86868461ffff16818110610cfc57610cfc6133ca565b9050604002016020016020810190610d1491906134aa565b63ffffffff16601961226c9092919063ffffffff16565b50600101610ca7565b50600d8290556040518281527f5e1ff954b5e5257e9ee5d4cb07059e8f5e69b1aaaf9911e5d8d90a6894de9c219060200160405180910390a150505050565b5f33610d8085828561228a565b610d8b8585856122db565b60019150505b9392505050565b600a546001600160a01b03163314610dc357604051631a27eac360e11b815260040160405180910390fd5b5f610dd560125b6102ef90600a6135a8565b601854909150811115610bdd57601855565b600a546001600160a01b03163314610e1257604051631a27eac360e11b815260040160405180910390fd5b610e1a61221c565b5f610e25600e612338565b90505f8163ffffffff166001600160401b03811115610e4657610e46612e95565b604051908082528060200260200182016040528015610e6f578160200160208202803683370190505b5090505f8263ffffffff166001600160401b03811115610e9157610e91612e95565b604051908082528060200260200182016040528015610eba578160200160208202803683370190505b5090505f5b8363ffffffff168163ffffffff161015610f54575f80610ee9600e63ffffffff8086169061234216565b9150915081858463ffffffff1681518110610f0657610f066133ca565b60200260200101906001600160a01b031690816001600160a01b03168152505080848463ffffffff1681518110610f3f57610f3f6133ca565b60209081029190910101525050600101610ebf565b505f60148190555b8363ffffffff168163ffffffff16101561102f575f838263ffffffff1681518110610f8957610f896133ca565b602002602001015190505f838363ffffffff1681518110610fac57610fac6133ca565b60200260200101519050610fca82600e61235090919063ffffffff16565b505f610fd582611dd8565b9050610fe18382612364565b826001600160a01b03167f85a190caa61692b36b63a55e069330d18ab9af179fed7a25c16a4262bc63b7d28360405161101c91815260200190565b60405180910390a2505050600101610f5c565b5050505061103d6001600555565b565b7f000000000000000000000000000000000000000000000000000000000000000090565b6006546001600160a01b0316331461108e57604051631a27eac360e11b815260040160405180910390fd5b60085f9054906101000a90046001600160a01b03166001600160a01b031663edcf9c1f6040518163ffffffff1660e01b8152600401602060405180830381865afa1580156110de573d5f5f3e3d5ffd5b505050506040513d601f19601f8201168201806040525081019061110291906133ab565b61111f576040516312aecd8160e01b815260040160405180910390fd5b600460ff84161115611144576040516317dbc4cb60e21b815260040160405180910390fd5b610bb861ffff8316111561116b576040516317dbc4cb60e21b815260040160405180910390fd5b61012c61ffff82161115611192576040516317dbc4cb60e21b815260040160405180910390fd5b8260ff1660048111156111a7576111a761319f565b6017805460ff191660018360048111156111c3576111c361319f565b02179055506017805464ffffffff00191661010061ffff85811691820264ffff0000001916929092176301000000928516928302179092556040805160ff8716815260208101939093528201527fd24f39e523bfa412fa391702710dc62e1c82d87a8e83228a37c42be1b4870f459060600160405180910390a1505050565b5f60405163125ad87760e31b815260040160405180910390fd5b6001600160a01b03165f9081526020819052604090205490565b60085f9054906101000a90046001600160a01b03166001600160a01b031663edcf9c1f6040518163ffffffff1660e01b8152600401602060405180830381865afa1580156112c6573d5f5f3e3d5ffd5b505050506040513d601f19601f820116820180604052508101906112ea91906133ab565b611307576040516312aecd8160e01b815260040160405180910390fd5b805f036113295730604051636b30633560e01b81526004016107e491906130c2565b5f6113333361125c565b90508082111561135c57338183604051632e2a182f60e11b81526004016107e49392919061342d565b6040516323b872dd60e01b81525f9030906323b872dd906113859033908490889060040161344e565b6020604051808303815f875af11580156113a1573d5f5f3e3d5ffd5b505050506040513d601f19601f820116820180604052508101906113c591906133ab565b9050806113e5576040516312171d8360e31b815260040160405180910390fd5b5f6113f1601133612246565b915061140c9050336114038684613486565b6011919061226c565b508360155f82825461141e9190613486565b909155505060405184815233907ff7774b688d56120b783560a913ee60792a73dfd511812b7be5eccf10d08c66899060200160405180910390a250505050565b606060048054610836906133de565b5f6114a561147c846001613486565b611484612398565b61148f90600a6135a8565b60025461149c9190613486565b86919085612414565b949350505050565b5f336108d58185856122db565b600a546001600160a01b031633146114e557604051631a27eac360e11b815260040160405180910390fd5b6114ed61221c565b5f6114f86011612338565b90505f8163ffffffff166001600160401b0381111561151957611519612e95565b604051908082528060200260200182016040528015611542578160200160208202803683370190505b5090505f8263ffffffff166001600160401b0381111561156457611564612e95565b60405190808252806020026020018201604052801561158d578160200160208202803683370190505b5090505f5b8363ffffffff168163ffffffff161015611627575f806115bc601163ffffffff8086169061234216565b9150915081858463ffffffff16815181106115d9576115d96133ca565b60200260200101906001600160a01b031690816001600160a01b03168152505080848463ffffffff1681518110611612576116126133ca565b60209081029190910101525050600101611592565b505f60158190555b8363ffffffff168163ffffffff16101561102f575f838263ffffffff168151811061165c5761165c6133ca565b602002602001015190505f838363ffffffff168151811061167f5761167f6133ca565b6020026020010151905061169d82601161235090919063ffffffff16565b505f6116a8826108b7565b90506116b43083612456565b600a54604051632eea26bd60e11b81526001600160a01b0390911690635dd44d7a906116e690869085906004016135b6565b5f604051808303815f87803b1580156116fd575f5ffd5b505af115801561170f573d5f5f3e3d5ffd5b50505050826001600160a01b03167f44b2ff9ffcefe2052a8afdbed44a04bf3db4592ae90c6b96c818bd28573e41e88360405161174e91815260200190565b60405180910390a250505060010161162f565b6007546001600160a01b0316331461178c57604051631a27eac360e11b815260040160405180910390fd5b5f8190036117ad57604051631121aa8d60e01b815260040160405180910390fd5b6117b7601c612281565b5f816001600160401b038111156117d0576117d0612e95565b6040519080825280602002602001820160405280156117f9578160200160208202803683370190505b5090505f82815b8161ffff168161ffff161015611928575f86868361ffff16818110611827576118276133ca565b61183d9260206040909202019081019150613002565b90505f87878461ffff16818110611856576118566133ca565b905060400201602001602081019061186e91906134aa565b905081868461ffff1681518110611887576118876133ca565b60200260200101906001600160a01b031690816001600160a01b0316815250508063ffffffff165f036118cf5781604051636b30633560e01b81526004016107e491906130c2565b5f6118e5601c8463ffffffff8086169061226c16565b90508061190757826040516346bdabe160e01b81526004016107e491906130c2565b61191763ffffffff831687613486565b955050600190920191506118009050565b506119328361248a565b600a60149054906101000a900460ff16600a61194e91906135a8565b821461196d57604051639006dd2760e01b815260040160405180910390fd5b60405133907f2d47a742b8d7df7c1fc5a9a631b206b364e6cb2722490759f63bb3ab14b132e0905f90a25050505050565b5f6108c2826001612197565b6060805f6119b8601c612338565b90508061ffff166001600160401b038111156119d6576119d6612e95565b6040519080825280602002602001820160405280156119ff578160200160208202803683370190505b5092508061ffff166001600160401b03811115611a1e57611a1e612e95565b604051908082528060200260200182016040528015611a47578160200160208202803683370190505b5091505f5b8161ffff168161ffff161015611ade575f80611a6d601c61ffff8516612342565b9150915081868461ffff1681518110611a8857611a886133ca565b60200260200101906001600160a01b031690816001600160a01b03168152505080858461ffff1681518110611abf57611abf6133ca565b63ffffffff909216602092830291909101909101525050600101611a4c565b50509091565b6006546001600160a01b03163314611b0f57604051631a27eac360e11b815260040160405180910390fd5b60085f9054906101000a90046001600160a01b03166001600160a01b031663edcf9c1f6040518163ffffffff1660e01b8152600401602060405180830381865afa158015611b5f573d5f5f3e3d5ffd5b505050506040513d601f19601f82011682018060405250810190611b8391906133ab565b611ba0576040516312aecd8160e01b815260040160405180910390fd5b6016545f03611bb157610a0761103f565b601680545f909155600a5460405163741fca4b60e01b8152600481018390526001600160a01b039091169063741fca4b906024015f604051808303815f87803b158015611bfc575f5ffd5b505af1158015611c0e573d5f5f3e3d5ffd5b5050505050565b611c1d61221c565b60085f9054906101000a90046001600160a01b03166001600160a01b031663edcf9c1f6040518163ffffffff1660e01b8152600401602060405180830381865afa158015611c6d573d5f5f3e3d5ffd5b505050506040513d601f19601f82011682018060405250810190611c9191906133ab565b611cae576040516312aecd8160e01b815260040160405180910390fd5b805f03611cbd57610a0761103f565b5f611cc9600e33612246565b91505081811015611ced576040516332194fd360e21b815260040160405180910390fd5b600a546040516351edffb160e01b81526001600160a01b03909116906351edffb190611d1f90339086906004016135b6565b5f604051808303815f87803b158015611d36575f5ffd5b505af1158015611d48573d5f5f3e3d5ffd5b505050505f8282611d5991906135cf565b9050805f03611d7357611d6d600e33612350565b50611d81565b611d7f600e338361226c565b505b8260145f828254611d9291906135cf565b909155505060405183815233907f96a9a6886cdf3047a125454218a23d3961fd3a78643123b248a9d106d0ac94fd9060200160405180910390a25050610bdd6001600555565b5f6108c2825f6121ea565b611deb61221c565b60085f9054906101000a90046001600160a01b03166001600160a01b031663edcf9c1f6040518163ffffffff1660e01b8152600401602060405180830381865afa158015611e3b573d5f5f3e3d5ffd5b505050506040513d601f19601f82011682018060405250810190611e5f91906133ab565b611e7c576040516312aecd8160e01b815260040160405180910390fd5b805f03611e9e5730604051636b30633560e01b81526004016107e491906130c2565b5f611eaa601133612246565b91505081811015611ece576040516312ea1f4960e11b815260040160405180910390fd5b5f611ed983836135cf565b9050805f03611ef357611eed601133612350565b50611f01565b611eff6011338361226c565b505b8260155f828254611f1291906135cf565b909155505060405163a9059cbb60e01b81525f90309063a9059cbb90611f3e90339088906004016135b6565b6020604051808303815f875af1158015611f5a573d5f5f3e3d5ffd5b505050506040513d601f19601f82011682018060405250810190611f7e91906133ab565b905080611f9e576040516312171d8360e31b815260040160405180910390fd5b60405184815233907f9cf37535785001dcc9767688232fcbc8698b3002d1207b50bc2afec3ff8934dc90602001610bc8565b5f6108c2611fdd8361125c565b5f612197565b6060805f611ff16019612338565b90508061ffff166001600160401b0381111561200f5761200f612e95565b604051908082528060200260200182016040528015612038578160200160208202803683370190505b5092508061ffff166001600160401b0381111561205757612057612e95565b604051908082528060200260200182016040528015612080578160200160208202803683370190505b5091505f5b8161ffff168161ffff161015611ade575f806120a6601961ffff8516612342565b9150915081868461ffff16815181106120c1576120c16133ca565b60200260200101906001600160a01b031690816001600160a01b03168152505080858461ffff16815181106120f8576120f86133ca565b60209081029190910101525050600101612085565b5f6108c28261125c565b6001600160a01b039182165f90815260016020908152604080832093909416825291909152205490565b5f5f61214c83612502565b90505f61215982856135cf565b90505f612165826125cc565b90506121718184613486565b95945050505050565b610bdd81612688565b5f610d91836001600160a01b0384166126e1565b5f610d916121a4600d5490565b6121af906001613486565b6121b7612398565b6121c290600a6135a8565b6002546121cf9190613486565b85919085612414565b6121e58383836001612728565b505050565b5f610d916121f6612398565b61220190600a6135a8565b60025461220e9190613486565b600d546121cf906001613486565b60026005540361223f57604051633ee5aeb560e01b815260040160405180910390fd5b6002600555565b5f80808061225d866001600160a01b0387166127fa565b909450925050505b9250929050565b5f6114a5846001600160a01b03851684612832565b610bdd8161284e565b5f6122958484612117565b90505f198110156122d557818110156122c757828183604051637dc7a0d960e11b81526004016107e49392919061342d565b6122d584848484035f612728565b50505050565b6001600160a01b038316612304575f604051634b637e8f60e11b81526004016107e491906130c2565b6001600160a01b03821661232d575f60405163ec442f0560e01b81526004016107e491906130c2565b6121e5838383612897565b5f6108c2826129aa565b5f80808061225d86866129b4565b5f610d91836001600160a01b0384166129dd565b6001600160a01b03821661238d575f60405163ec442f0560e01b81526004016107e491906130c2565b6108235f8383612897565b5f5f6123a261103f565b6001600160a01b031663313ce5676040518163ffffffff1660e01b8152600401602060405180830381865afa1580156123dd573d5f5f3e3d5ffd5b505050506040513d601f19601f8201168201806040525081019061240191906135e2565b905061240e8160126135fd565b91505090565b5f612441612421836129f9565b801561243c57505f848061243757612437613616565b868809115b151590565b61244c868686612a25565b6121719190613486565b6001600160a01b03821661247f575f604051634b637e8f60e11b81526004016107e491906130c2565b610823825f83612897565b5f5b8151811015610823576124c28282815181106124aa576124aa6133ca565b6020026020010151600b612ad590919063ffffffff16565b6124fa578181815181106124d8576124d86133ca565b602002602001015160405163751dff9760e11b81526004016107e491906130c2565b60010161248c565b6017545f906301000000900461ffff16810361251f57505f919050565b6017545f9061253c906301000000900461ffff1684612710612a25565b9050610d9160095f9054906101000a90046001600160a01b03166001600160a01b0316634ff0876a6040518163ffffffff1660e01b8152600401602060405180830381865afa158015612591573d5f5f3e3d5ffd5b505050506040513d601f19601f820116820180604052508101906125b5919061362a565b829063ffffffff908116906301e1338090612a2516565b6017545f90610100900461ffff1681036125e757505f919050565b5f61262b6125f6846001613486565b6125fe612398565b61260990600a6135a8565b6002546126169190613486565b5f6126236012600a6135a8565b929190612414565b6017549091505f9081906126419060ff16612ae9565b9150915081831161265657505f949350505050565b6017545f9061266f90610100900461ffff168584612a25565b905061267e8187612710612a25565b9695505050505050565b5f612691825490565b90505f5b818110156126da57826001015f845f0183815481106126b6576126b66133ca565b905f5260205f20015481526020019081526020015f205f9055806001019050612695565b50505f9055565b5f6126ec8383612bd3565b61272157508154600181810184555f8481526020808220909301849055845484825282860190935260409020919091556108c2565b505f6108c2565b6001600160a01b038416612751575f60405163e602df0560e01b81526004016107e491906130c2565b6001600160a01b03831661277a575f604051634a1406b160e11b81526004016107e491906130c2565b6001600160a01b038085165f90815260016020908152604080832093871683529290522082905580156122d557826001600160a01b0316846001600160a01b03167f8c5be1e5ebec7d5bd14f71427d1e84f3dd0314c0f7b2291e5b200ac8c7c3b925846040516127ec91815260200190565b60405180910390a350505050565b5f8181526002830160205260408120548190806128275761281b8585612bea565b92505f91506122659050565b600192509050612265565b5f82815260028401602052604081208290556114a58484612bf5565b5f612858826129aa565b90505f5b8181101561288d57600283015f6128738584612c00565b815260208101919091526040015f9081205560010161285c565b506108238261217a565b6001600160a01b0383166128c1578060025f8282546128b69190613486565b9091555061291e9050565b6001600160a01b0383165f90815260208190526040902054818110156129005783818360405163391434e360e21b81526004016107e49392919061342d565b6001600160a01b0384165f9081526020819052604090209082900390555b6001600160a01b03821661293a57600280548290039055612958565b6001600160a01b0382165f9081526020819052604090208054820190555b816001600160a01b0316836001600160a01b03167fddf252ad1be2c89b69c2b068fc378daa952ba7f163c4a11628f55a4df523b3ef8360405161299d91815260200190565b60405180910390a3505050565b5f6108c282612c0b565b5f80806129c18585612c00565b5f81815260029690960160205260409095205494959350505050565b5f8181526002830160205260408120819055610d918383612c14565b5f6002826003811115612a0e57612a0e61319f565b612a189190613645565b60ff166001149050919050565b5f5f5f612a328686612c1f565b91509150815f03612a5657838181612a4c57612a4c613616565b0492505050610d91565b818411612a6d57612a6d6003851502601118612c3b565b5f848688095f868103871696879004966002600389028118808a02820302808a02820302808a02820302808a02820302808a02820302808a02909103029181900381900460010185841190960395909502919093039390930492909217029150509392505050565b5f610d91836001600160a01b038416612bd3565b5f8080612af66012610dca565b90505f846004811115612b0b57612b0b61319f565b03612b1b57809250829150612bcd565b6003846004811115612b2f57612b2f61319f565b03612b41576018549250829150612bcd565b6001846004811115612b5557612b5561319f565b03612b6d57612b6381612c4c565b9250809150612bcd565b6002846004811115612b8157612b8161319f565b03612b9957612b8f81612c4c565b9250829150612bcd565b6004846004811115612bad57612bad61319f565b03612bcd57601854612bc790612bc283612c4c565b612d72565b92508291505b50915091565b5f9081526001919091016020526040902054151590565b5f610d918383612d81565b5f610d9183836126e1565b5f610d918383612d8c565b5f6108c2825490565b5f610d918383612db2565b5f805f1983850993909202808410938190039390930393915050565b634e487b715f52806020526024601cfd5b5f5f60085f9054906101000a90046001600160a01b03166001600160a01b031663f3cc69936040518163ffffffff1660e01b8152600401602060405180830381865afa158015612c9e573d5f5f3e3d5ffd5b505050506040513d601f19601f82011682018060405250810190612cc29190613672565b61ffff1690505f612d5760095f9054906101000a90046001600160a01b03166001600160a01b0316634ff0876a6040518163ffffffff1660e01b8152600401602060405180830381865afa158015612d1c573d5f5f3e3d5ffd5b505050506040513d601f19601f82011682018060405250810190612d40919061362a565b839063ffffffff908116906301e1338090612a2516565b90506114a5612d6882612710613486565b8590612710612a25565b5f828218828411028218610d91565b5f610d918383612bd3565b5f825f018281548110612da157612da16133ca565b905f5260205f200154905092915050565b5f8181526001830160205260408120548015612e8c575f612dd46001836135cf565b85549091505f90612de7906001906135cf565b9050808214612e46575f865f018281548110612e0557612e056133ca565b905f5260205f200154905080875f018481548110612e2557612e256133ca565b5f918252602080832090910192909255918252600188019052604090208390555b8554869080612e5757612e5761368d565b600190038181905f5260205f20015f90559055856001015f8681526020019081526020015f205f9055600193505050506108c2565b5f9150506108c2565b634e487b7160e01b5f52604160045260245ffd5b80356001600160a01b0381168114612ebf575f5ffd5b919050565b5f60208284031215612ed4575f5ffd5b81356001600160401b03811115612ee9575f5ffd5b8201601f81018413612ef9575f5ffd5b80356001600160401b03811115612f1257612f12612e95565b604051600582901b90603f8201601f191681016001600160401b0381118282101715612f4057612f40612e95565b604052918252602081840181019290810187841115612f5d575f5ffd5b6020850194505b83851015612f8357612f7585612ea9565b815260209485019401612f64565b509695505050505050565b602081525f82518060208401528060208501604085015e5f604082850101526040601f19601f83011684010191505092915050565b5f60208284031215612fd3575f5ffd5b5035919050565b5f5f60408385031215612feb575f5ffd5b612ff483612ea9565b946020939093013593505050565b5f60208284031215613012575f5ffd5b610d9182612ea9565b5f5f6040838503121561302c575f5ffd5b50508035926020909101359150565b5f5f83601f84011261304b575f5ffd5b5081356001600160401b03811115613061575f5ffd5b6020830191508360208260061b8501011115612265575f5ffd5b5f5f5f6040848603121561308d575f5ffd5b83356001600160401b038111156130a2575f5ffd5b6130ae8682870161303b565b909790965060209590950135949350505050565b6001600160a01b0391909116815260200190565b5f5f5f606084860312156130e8575f5ffd5b6130f184612ea9565b92506130ff60208501612ea9565b929592945050506040919091013590565b60ff81168114610bdd575f5ffd5b61ffff81168114610bdd575f5ffd5b5f5f5f6060848603121561313f575f5ffd5b833561314a81613110565b9250602084013561315a8161311e565b9150604084013561316a8161311e565b809150509250925092565b5f5f60408385031215613186575f5ffd5b8235915061319660208401612ea9565b90509250929050565b634e487b7160e01b5f52602160045260245ffd5b60808101600586106131d357634e487b7160e01b5f52602160045260245ffd5b94815261ffff93841660208201529190921660408201526060015290565b5f5f5f60608486031215613203575f5ffd5b833592506020840135915060408401356004811061316a575f5ffd5b5f5f60208385031215613230575f5ffd5b82356001600160401b03811115613245575f5ffd5b6132518582860161303b565b90969095509350505050565b5f5f5f6060848603121561326f575f5ffd5b8335925061327f60208501612ea9565b915061328d60408501612ea9565b90509250925092565b5f8151808452602084019350602083015f5b828110156132cf5781516001600160a01b03168652602095860195909101906001016132a8565b5093949350505050565b604081525f6132eb6040830185613296565b82810360208401528084518083526020830191506020860192505f5b8181101561332b57835163ffffffff16835260209384019390920191600101613307565b50909695505050505050565b604081525f6133496040830185613296565b82810360208401528084518083526020830191506020860192505f5b8181101561332b578351835260209384019390920191600101613365565b5f5f60408385031215613394575f5ffd5b61339d83612ea9565b915061319660208401612ea9565b5f602082840312156133bb575f5ffd5b81518015158114610d91575f5ffd5b634e487b7160e01b5f52603260045260245ffd5b600181811c908216806133f257607f821691505b60208210810361341057634e487b7160e01b5f52602260045260245ffd5b50919050565b5f60208284031215613426575f5ffd5b5051919050565b6001600160a01b039390931683526020830191909152604082015260600190565b6001600160a01b039384168152919092166020820152604081019190915260600190565b634e487b7160e01b5f52601160045260245ffd5b808201808211156108c2576108c2613472565b63ffffffff81168114610bdd575f5ffd5b5f602082840312156134ba575f5ffd5b8135610d9181613499565b6001815b6001841115613500578085048111156134e4576134e4613472565b60018416156134f257908102905b60019390931c9280026134c9565b935093915050565b5f82613516575060016108c2565b8161352257505f6108c2565b816001811461353857600281146135425761355e565b60019150506108c2565b60ff84111561355357613553613472565b50506001821b6108c2565b5060208310610133831016604e8410600b8410161715613581575081810a6108c2565b61358d5f1984846134c5565b805f19048211156135a0576135a0613472565b029392505050565b5f610d9160ff841683613508565b6001600160a01b03929092168252602082015260400190565b818103818111156108c2576108c2613472565b5f602082840312156135f2575f5ffd5b8151610d9181613110565b60ff82811682821603908111156108c2576108c2613472565b634e487b7160e01b5f52601260045260245ffd5b5f6020828403121561363a575f5ffd5b8151610d9181613499565b5f60ff83168061366357634e487b7160e01b5f52601260045260245ffd5b8060ff84160691505092915050565b5f60208284031215613682575f5ffd5b8151610d918161311e565b634e487b7160e01b5f52603160045260245ffdfea2646970667358221220bab4a7012821606831abc0bcb82ebb04f2c40c278028e255d26c934522ad913e64736f6c634300081c0033",
  "linkReferences": {},
  "deployedLinkReferences": {}
}