{
  "_format": "hh-sol-artifact-1",
  "contractName": "OrionTransparentVault",
  "sourceName": "contracts/vaults/OrionTransparentVault.sol",
  "abi": [
    {
      "inputs": [
        {
          "internalType": "address",
          "name": "vaultOwner",
          "type": "address"
        },
        {
          "internalType": "address",
          "name": "curator",
          "type": "address"
        },
        {
          "internalType": "contract IOrionConfig",
          "name": "configAddress",
          "type": "address"
        },
        {
          "internalType": "string",
          "name": "name",
          "type": "string"
        },
        {
          "internalType": "string",
          "name": "symbol",
          "type": "string"
        },
        {
          "internalType": "uint8",
          "name": "feeType",
          "type": "uint8"
        },
        {
          "internalType": "uint16",
          "name": "performanceFee",
          "type": "uint16"
        },
        {
          "internalType": "uint16",
          "name": "managementFee",
          "type": "uint16"
        }
      ],
      "stateMutability": "nonpayable",
      "type": "constructor"
    },
    {
      "inputs": [],
      "name": "AlreadyRegistered",
      "type": "error"
    },
    {
      "inputs": [
        {
          "internalType": "address",
          "name": "asset",
          "type": "address"
        }
      ],
      "name": "AmountMustBeGreaterThanZero",
      "type": "error"
    },
    {
      "inputs": [
        {
          "internalType": "address",
          "name": "spender",
          "type": "address"
        },
        {
          "internalType": "uint256",
          "name": "allowance",
          "type": "uint256"
        },
        {
          "internalType": "uint256",
          "name": "needed",
          "type": "uint256"
        }
      ],
      "name": "ERC20InsufficientAllowance",
      "type": "error"
    },
    {
      "inputs": [
        {
          "internalType": "address",
          "name": "sender",
          "type": "address"
        },
        {
          "internalType": "uint256",
          "name": "balance",
          "type": "uint256"
        },
        {
          "internalType": "uint256",
          "name": "needed",
          "type": "uint256"
        }
      ],
      "name": "ERC20InsufficientBalance",
      "type": "error"
    },
    {
      "inputs": [
        {
          "internalType": "address",
          "name": "approver",
          "type": "address"
        }
      ],
      "name": "ERC20InvalidApprover",
      "type": "error"
    },
    {
      "inputs": [
        {
          "internalType": "address",
          "name": "receiver",
          "type": "address"
        }
      ],
      "name": "ERC20InvalidReceiver",
      "type": "error"
    },
    {
      "inputs": [
        {
          "internalType": "address",
          "name": "sender",
          "type": "address"
        }
      ],
      "name": "ERC20InvalidSender",
      "type": "error"
    },
    {
      "inputs": [
        {
          "internalType": "address",
          "name": "spender",
          "type": "address"
        }
      ],
      "name": "ERC20InvalidSpender",
      "type": "error"
    },
    {
      "inputs": [
        {
          "internalType": "address",
          "name": "receiver",
          "type": "address"
        },
        {
          "internalType": "uint256",
          "name": "assets",
          "type": "uint256"
        },
        {
          "internalType": "uint256",
          "name": "max",
          "type": "uint256"
        }
      ],
      "name": "ERC4626ExceededMaxDeposit",
      "type": "error"
    },
    {
      "inputs": [
        {
          "internalType": "address",
          "name": "receiver",
          "type": "address"
        },
        {
          "internalType": "uint256",
          "name": "shares",
          "type": "uint256"
        },
        {
          "internalType": "uint256",
          "name": "max",
          "type": "uint256"
        }
      ],
      "name": "ERC4626ExceededMaxMint",
      "type": "error"
    },
    {
      "inputs": [
        {
          "internalType": "address",
          "name": "owner",
          "type": "address"
        },
        {
          "internalType": "uint256",
          "name": "shares",
          "type": "uint256"
        },
        {
          "internalType": "uint256",
          "name": "max",
          "type": "uint256"
        }
      ],
      "name": "ERC4626ExceededMaxRedeem",
      "type": "error"
    },
    {
      "inputs": [
        {
          "internalType": "address",
          "name": "owner",
          "type": "address"
        },
        {
          "internalType": "uint256",
          "name": "assets",
          "type": "uint256"
        },
        {
          "internalType": "uint256",
          "name": "max",
          "type": "uint256"
        }
      ],
      "name": "ERC4626ExceededMaxWithdraw",
      "type": "error"
    },
    {
      "inputs": [],
      "name": "InsufficientAmount",
      "type": "error"
    },
    {
      "inputs": [],
      "name": "InvalidAddress",
      "type": "error"
    },
    {
      "inputs": [],
      "name": "InvalidArguments",
      "type": "error"
    },
    {
      "inputs": [],
      "name": "InvalidCuratorContract",
      "type": "error"
    },
    {
      "inputs": [],
      "name": "InvalidStrategy",
      "type": "error"
    },
    {
      "inputs": [],
      "name": "InvalidTotalWeight",
      "type": "error"
    },
    {
      "inputs": [],
      "name": "InvalidUnderlyingDecimals",
      "type": "error"
    },
    {
      "inputs": [],
      "name": "NotAuthorized",
      "type": "error"
    },
    {
      "inputs": [],
      "name": "OrderIntentCannotBeEmpty",
      "type": "error"
    },
    {
      "inputs": [],
      "name": "ReentrancyGuardReentrantCall",
      "type": "error"
    },
    {
      "inputs": [],
      "name": "SynchronousCallDisabled",
      "type": "error"
    },
    {
      "inputs": [],
      "name": "SystemNotIdle",
      "type": "error"
    },
    {
      "inputs": [
        {
          "internalType": "address",
          "name": "token",
          "type": "address"
        }
      ],
      "name": "TokenAlreadyInOrder",
      "type": "error"
    },
    {
      "inputs": [
        {
          "internalType": "address",
          "name": "token",
          "type": "address"
        }
      ],
      "name": "TokenNotWhitelisted",
      "type": "error"
    },
    {
      "inputs": [],
      "name": "TransferFailed",
      "type": "error"
    },
    {
      "inputs": [],
      "name": "UnauthorizedAccess",
      "type": "error"
    },
    {
      "anonymous": false,
      "inputs": [
        {
          "indexed": true,
          "internalType": "address",
          "name": "owner",
          "type": "address"
        },
        {
          "indexed": true,
          "internalType": "address",
          "name": "spender",
          "type": "address"
        },
        {
          "indexed": false,
          "internalType": "uint256",
          "name": "value",
          "type": "uint256"
        }
      ],
      "name": "Approval",
      "type": "event"
    },
    {
      "anonymous": false,
      "inputs": [
        {
          "indexed": true,
          "internalType": "uint256",
          "name": "epoch",
          "type": "uint256"
        },
        {
          "indexed": true,
          "internalType": "uint256",
          "name": "feeAmount",
          "type": "uint256"
        },
        {
          "indexed": true,
          "internalType": "uint256",
          "name": "pendingCuratorFees",
          "type": "uint256"
        }
      ],
      "name": "CuratorFeesAccrued",
      "type": "event"
    },
    {
      "anonymous": false,
      "inputs": [
        {
          "indexed": true,
          "internalType": "address",
          "name": "newCurator",
          "type": "address"
        }
      ],
      "name": "CuratorUpdated",
      "type": "event"
    },
    {
      "anonymous": false,
      "inputs": [
        {
          "indexed": true,
          "internalType": "address",
          "name": "sender",
          "type": "address"
        },
        {
          "indexed": true,
          "internalType": "address",
          "name": "owner",
          "type": "address"
        },
        {
          "indexed": false,
          "internalType": "uint256",
          "name": "assets",
          "type": "uint256"
        },
        {
          "indexed": false,
          "internalType": "uint256",
          "name": "shares",
          "type": "uint256"
        }
      ],
      "name": "Deposit",
      "type": "event"
    },
    {
      "anonymous": false,
      "inputs": [
        {
          "indexed": true,
          "internalType": "address",
          "name": "vault",
          "type": "address"
        },
        {
          "indexed": true,
          "internalType": "address",
          "name": "user",
          "type": "address"
        },
        {
          "indexed": true,
          "internalType": "uint256",
          "name": "epoch",
          "type": "uint256"
        },
        {
          "indexed": false,
          "internalType": "uint256",
          "name": "depositAmount",
          "type": "uint256"
        },
        {
          "indexed": false,
          "internalType": "uint256",
          "name": "sharesMinted",
          "type": "uint256"
        }
      ],
      "name": "Deposit",
      "type": "event"
    },
    {
      "anonymous": false,
      "inputs": [
        {
          "indexed": true,
          "internalType": "address",
          "name": "sender",
          "type": "address"
        },
        {
          "indexed": true,
          "internalType": "uint256",
          "name": "assets",
          "type": "uint256"
        }
      ],
      "name": "DepositRequest",
      "type": "event"
    },
    {
      "anonymous": false,
      "inputs": [
        {
          "indexed": true,
          "internalType": "address",
          "name": "user",
          "type": "address"
        },
        {
          "indexed": true,
          "internalType": "uint256",
          "name": "amount",
          "type": "uint256"
        }
      ],
      "name": "DepositRequestCancelled",
      "type": "event"
    },
    {
      "anonymous": false,
      "inputs": [
        {
          "indexed": true,
          "internalType": "uint8",
          "name": "mode",
          "type": "uint8"
        },
        {
          "indexed": true,
          "internalType": "uint16",
          "name": "performanceFee",
          "type": "uint16"
        },
        {
          "indexed": true,
          "internalType": "uint16",
          "name": "managementFee",
          "type": "uint16"
        }
      ],
      "name": "FeeModelUpdated",
      "type": "event"
    },
    {
      "anonymous": false,
      "inputs": [
        {
          "indexed": true,
          "internalType": "address",
          "name": "curator",
          "type": "address"
        }
      ],
      "name": "OrderSubmitted",
      "type": "event"
    },
    {
      "anonymous": false,
      "inputs": [
        {
          "indexed": true,
          "internalType": "address",
          "name": "vault",
          "type": "address"
        },
        {
          "indexed": true,
          "internalType": "address",
          "name": "user",
          "type": "address"
        },
        {
          "indexed": true,
          "internalType": "uint256",
          "name": "epoch",
          "type": "uint256"
        },
        {
          "indexed": false,
          "internalType": "uint256",
          "name": "redeemAmount",
          "type": "uint256"
        },
        {
          "indexed": false,
          "internalType": "uint256",
          "name": "sharesBurned",
          "type": "uint256"
        }
      ],
      "name": "Redeem",
      "type": "event"
    },
    {
      "anonymous": false,
      "inputs": [
        {
          "indexed": true,
          "internalType": "address",
          "name": "sender",
          "type": "address"
        },
        {
          "indexed": true,
          "internalType": "uint256",
          "name": "shares",
          "type": "uint256"
        }
      ],
      "name": "RedeemRequest",
      "type": "event"
    },
    {
      "anonymous": false,
      "inputs": [
        {
          "indexed": true,
          "internalType": "address",
          "name": "user",
          "type": "address"
        },
        {
          "indexed": true,
          "internalType": "uint256",
          "name": "shares",
          "type": "uint256"
        }
      ],
      "name": "RedeemRequestCancelled",
      "type": "event"
    },
    {
      "anonymous": false,
      "inputs": [
        {
          "indexed": true,
          "internalType": "address",
          "name": "from",
          "type": "address"
        },
        {
          "indexed": true,
          "internalType": "address",
          "name": "to",
          "type": "address"
        },
        {
          "indexed": false,
          "internalType": "uint256",
          "name": "value",
          "type": "uint256"
        }
      ],
      "name": "Transfer",
      "type": "event"
    },
    {
      "anonymous": false,
      "inputs": [
        {
          "indexed": true,
          "internalType": "uint256",
          "name": "newTotalAssets",
          "type": "uint256"
        }
      ],
      "name": "VaultStateUpdated",
      "type": "event"
    },
    {
      "anonymous": false,
      "inputs": [
        {
          "indexed": false,
          "internalType": "address[]",
          "name": "assets",
          "type": "address[]"
        }
      ],
      "name": "VaultWhitelistUpdated",
      "type": "event"
    },
    {
      "anonymous": false,
      "inputs": [
        {
          "indexed": true,
          "internalType": "address",
          "name": "sender",
          "type": "address"
        },
        {
          "indexed": true,
          "internalType": "address",
          "name": "receiver",
          "type": "address"
        },
        {
          "indexed": true,
          "internalType": "address",
          "name": "owner",
          "type": "address"
        },
        {
          "indexed": false,
          "internalType": "uint256",
          "name": "assets",
          "type": "uint256"
        },
        {
          "indexed": false,
          "internalType": "uint256",
          "name": "shares",
          "type": "uint256"
        }
      ],
      "name": "Withdraw",
      "type": "event"
    },
    {
      "inputs": [],
      "name": "BASIS_POINTS_FACTOR",
      "outputs": [
        {
          "internalType": "uint16",
          "name": "",
          "type": "uint16"
        }
      ],
      "stateMutability": "view",
      "type": "function"
    },
    {
      "inputs": [],
      "name": "MAX_MANAGEMENT_FEE",
      "outputs": [
        {
          "internalType": "uint16",
          "name": "",
          "type": "uint16"
        }
      ],
      "stateMutability": "view",
      "type": "function"
    },
    {
      "inputs": [],
      "name": "MAX_PERFORMANCE_FEE",
      "outputs": [
        {
          "internalType": "uint16",
          "name": "",
          "type": "uint16"
        }
      ],
      "stateMutability": "view",
      "type": "function"
    },
    {
      "inputs": [],
      "name": "SHARE_DECIMALS",
      "outputs": [
        {
          "internalType": "uint8",
          "name": "",
          "type": "uint8"
        }
      ],
      "stateMutability": "view",
      "type": "function"
    },
    {
      "inputs": [],
      "name": "YEAR_IN_SECONDS",
      "outputs": [
        {
          "internalType": "uint32",
          "name": "",
          "type": "uint32"
        }
      ],
      "stateMutability": "view",
      "type": "function"
    },
    {
      "inputs": [
        {
          "internalType": "uint256",
          "name": "epoch",
          "type": "uint256"
        },
        {
          "internalType": "uint256",
          "name": "feeAmount",
          "type": "uint256"
        }
      ],
      "name": "accrueCuratorFees",
      "outputs": [],
      "stateMutability": "nonpayable",
      "type": "function"
    },
    {
      "inputs": [
        {
          "internalType": "address",
          "name": "owner",
          "type": "address"
        },
        {
          "internalType": "address",
          "name": "spender",
          "type": "address"
        }
      ],
      "name": "allowance",
      "outputs": [
        {
          "internalType": "uint256",
          "name": "",
          "type": "uint256"
        }
      ],
      "stateMutability": "view",
      "type": "function"
    },
    {
      "inputs": [
        {
          "internalType": "address",
          "name": "spender",
          "type": "address"
        },
        {
          "internalType": "uint256",
          "name": "value",
          "type": "uint256"
        }
      ],
      "name": "approve",
      "outputs": [
        {
          "internalType": "bool",
          "name": "",
          "type": "bool"
        }
      ],
      "stateMutability": "nonpayable",
      "type": "function"
    },
    {
      "inputs": [],
      "name": "asset",
      "outputs": [
        {
          "internalType": "address",
          "name": "",
          "type": "address"
        }
      ],
      "stateMutability": "view",
      "type": "function"
    },
    {
      "inputs": [
        {
          "internalType": "address",
          "name": "account",
          "type": "address"
        }
      ],
      "name": "balanceOf",
      "outputs": [
        {
          "internalType": "uint256",
          "name": "",
          "type": "uint256"
        }
      ],
      "stateMutability": "view",
      "type": "function"
    },
    {
      "inputs": [
        {
          "internalType": "uint256",
          "name": "amount",
          "type": "uint256"
        }
      ],
      "name": "cancelDepositRequest",
      "outputs": [],
      "stateMutability": "nonpayable",
      "type": "function"
    },
    {
      "inputs": [
        {
          "internalType": "uint256",
          "name": "shares",
          "type": "uint256"
        }
      ],
      "name": "cancelRedeemRequest",
      "outputs": [],
      "stateMutability": "nonpayable",
      "type": "function"
    },
    {
      "inputs": [
        {
          "internalType": "uint256",
          "name": "amount",
          "type": "uint256"
        }
      ],
      "name": "claimCuratorFees",
      "outputs": [],
      "stateMutability": "nonpayable",
      "type": "function"
    },
    {
      "inputs": [],
      "name": "config",
      "outputs": [
        {
          "internalType": "contract IOrionConfig",
          "name": "",
          "type": "address"
        }
      ],
      "stateMutability": "view",
      "type": "function"
    },
    {
      "inputs": [
        {
          "internalType": "uint256",
          "name": "shares",
          "type": "uint256"
        }
      ],
      "name": "convertToAssets",
      "outputs": [
        {
          "internalType": "uint256",
          "name": "",
          "type": "uint256"
        }
      ],
      "stateMutability": "view",
      "type": "function"
    },
    {
      "inputs": [
        {
          "internalType": "uint256",
          "name": "shares",
          "type": "uint256"
        },
        {
          "internalType": "uint256",
          "name": "pointInTimeTotalAssets",
          "type": "uint256"
        },
        {
          "internalType": "enum Math.Rounding",
          "name": "rounding",
          "type": "uint8"
        }
      ],
      "name": "convertToAssetsWithPITTotalAssets",
      "outputs": [
        {
          "internalType": "uint256",
          "name": "",
          "type": "uint256"
        }
      ],
      "stateMutability": "view",
      "type": "function"
    },
    {
      "inputs": [
        {
          "internalType": "uint256",
          "name": "assets",
          "type": "uint256"
        }
      ],
      "name": "convertToShares",
      "outputs": [
        {
          "internalType": "uint256",
          "name": "",
          "type": "uint256"
        }
      ],
      "stateMutability": "view",
      "type": "function"
    },
    {
      "inputs": [
        {
          "internalType": "uint256",
          "name": "assets",
          "type": "uint256"
        },
        {
          "internalType": "uint256",
          "name": "pointInTimeTotalAssets",
          "type": "uint256"
        },
        {
          "internalType": "enum Math.Rounding",
          "name": "rounding",
          "type": "uint8"
        }
      ],
      "name": "convertToSharesWithPITTotalAssets",
      "outputs": [
        {
          "internalType": "uint256",
          "name": "",
          "type": "uint256"
        }
      ],
      "stateMutability": "view",
      "type": "function"
    },
    {
      "inputs": [],
      "name": "curator",
      "outputs": [
        {
          "internalType": "address",
          "name": "",
          "type": "address"
        }
      ],
      "stateMutability": "view",
      "type": "function"
    },
    {
      "inputs": [
        {
          "internalType": "uint256",
          "name": "activeTotalAssets",
          "type": "uint256"
        }
      ],
      "name": "curatorFee",
      "outputs": [
        {
          "internalType": "uint256",
          "name": "",
          "type": "uint256"
        }
      ],
      "stateMutability": "view",
      "type": "function"
    },
    {
      "inputs": [],
      "name": "curatorIntentDecimals",
      "outputs": [
        {
          "internalType": "uint8",
          "name": "",
          "type": "uint8"
        }
      ],
      "stateMutability": "view",
      "type": "function"
    },
    {
      "inputs": [],
      "name": "decimals",
      "outputs": [
        {
          "internalType": "uint8",
          "name": "",
          "type": "uint8"
        }
      ],
      "stateMutability": "view",
      "type": "function"
    },
    {
      "inputs": [
        {
          "internalType": "uint256",
          "name": "",
          "type": "uint256"
        },
        {
          "internalType": "address",
          "name": "",
          "type": "address"
        }
      ],
      "name": "deposit",
      "outputs": [
        {
          "internalType": "uint256",
          "name": "",
          "type": "uint256"
        }
      ],
      "stateMutability": "pure",
      "type": "function"
    },
    {
      "inputs": [],
      "name": "feeModel",
      "outputs": [
        {
          "internalType": "enum OrionVault.FeeType",
          "name": "feeType",
          "type": "uint8"
        },
        {
          "internalType": "uint16",
          "name": "performanceFee",
          "type": "uint16"
        },
        {
          "internalType": "uint16",
          "name": "managementFee",
          "type": "uint16"
        },
        {
          "internalType": "uint256",
          "name": "highWaterMark",
          "type": "uint256"
        }
      ],
      "stateMutability": "view",
      "type": "function"
    },
    {
      "inputs": [
        {
          "internalType": "uint256",
          "name": "depositTotalAssets",
          "type": "uint256"
        }
      ],
      "name": "fulfillDeposit",
      "outputs": [],
      "stateMutability": "nonpayable",
      "type": "function"
    },
    {
      "inputs": [
        {
          "internalType": "uint256",
          "name": "redeemTotalAssets",
          "type": "uint256"
        }
      ],
      "name": "fulfillRedeem",
      "outputs": [],
      "stateMutability": "nonpayable",
      "type": "function"
    },
    {
      "inputs": [],
      "name": "getIntent",
      "outputs": [
        {
          "internalType": "address[]",
          "name": "tokens",
          "type": "address[]"
        },
        {
          "internalType": "uint32[]",
          "name": "weights",
          "type": "uint32[]"
        }
      ],
      "stateMutability": "view",
      "type": "function"
    },
    {
      "inputs": [],
      "name": "getPortfolio",
      "outputs": [
        {
          "internalType": "address[]",
          "name": "tokens",
          "type": "address[]"
        },
        {
          "internalType": "uint256[]",
          "name": "sharesPerAsset",
          "type": "uint256[]"
        }
      ],
      "stateMutability": "view",
      "type": "function"
    },
    {
      "inputs": [],
      "name": "internalStatesOrchestrator",
      "outputs": [
        {
          "internalType": "contract IInternalStateOrchestrator",
          "name": "",
          "type": "address"
        }
      ],
      "stateMutability": "view",
      "type": "function"
    },
    {
      "inputs": [],
      "name": "isDecommissioning",
      "outputs": [
        {
          "internalType": "bool",
          "name": "",
          "type": "bool"
        }
      ],
      "stateMutability": "view",
      "type": "function"
    },
    {
      "inputs": [],
      "name": "isPassiveCurator",
      "outputs": [
        {
          "internalType": "bool",
          "name": "isPassive",
          "type": "bool"
        }
      ],
      "stateMutability": "view",
      "type": "function"
    },
    {
      "inputs": [],
      "name": "liquidityOrchestrator",
      "outputs": [
        {
          "internalType": "contract ILiquidityOrchestrator",
          "name": "",
          "type": "address"
        }
      ],
      "stateMutability": "view",
      "type": "function"
    },
    {
      "inputs": [
        {
          "internalType": "address",
          "name": "",
          "type": "address"
        }
      ],
      "name": "maxDeposit",
      "outputs": [
        {
          "internalType": "uint256",
          "name": "",
          "type": "uint256"
        }
      ],
      "stateMutability": "view",
      "type": "function"
    },
    {
      "inputs": [
        {
          "internalType": "address",
          "name": "",
          "type": "address"
        }
      ],
      "name": "maxMint",
      "outputs": [
        {
          "internalType": "uint256",
          "name": "",
          "type": "uint256"
        }
      ],
      "stateMutability": "view",
      "type": "function"
    },
    {
      "inputs": [
        {
          "internalType": "address",
          "name": "owner",
          "type": "address"
        }
      ],
      "name": "maxRedeem",
      "outputs": [
        {
          "internalType": "uint256",
          "name": "",
          "type": "uint256"
        }
      ],
      "stateMutability": "view",
      "type": "function"
    },
    {
      "inputs": [
        {
          "internalType": "address",
          "name": "owner",
          "type": "address"
        }
      ],
      "name": "maxWithdraw",
      "outputs": [
        {
          "internalType": "uint256",
          "name": "",
          "type": "uint256"
        }
      ],
      "stateMutability": "view",
      "type": "function"
    },
    {
      "inputs": [
        {
          "internalType": "uint256",
          "name": "",
          "type": "uint256"
        },
        {
          "internalType": "address",
          "name": "",
          "type": "address"
        }
      ],
      "name": "mint",
      "outputs": [
        {
          "internalType": "uint256",
          "name": "",
          "type": "uint256"
        }
      ],
      "stateMutability": "pure",
      "type": "function"
    },
    {
      "inputs": [],
      "name": "name",
      "outputs": [
        {
          "internalType": "string",
          "name": "",
          "type": "string"
        }
      ],
      "stateMutability": "view",
      "type": "function"
    },
    {
      "inputs": [],
      "name": "overrideIntentForDecommissioning",
      "outputs": [],
      "stateMutability": "nonpayable",
      "type": "function"
    },
    {
      "inputs": [],
      "name": "pendingCuratorFees",
      "outputs": [
        {
          "internalType": "uint256",
          "name": "",
          "type": "uint256"
        }
      ],
      "stateMutability": "view",
      "type": "function"
    },
    {
      "inputs": [],
      "name": "pendingDeposit",
      "outputs": [
        {
          "internalType": "uint256",
          "name": "",
          "type": "uint256"
        }
      ],
      "stateMutability": "view",
      "type": "function"
    },
    {
      "inputs": [],
      "name": "pendingRedeem",
      "outputs": [
        {
          "internalType": "uint256",
          "name": "",
          "type": "uint256"
        }
      ],
      "stateMutability": "view",
      "type": "function"
    },
    {
      "inputs": [
        {
          "internalType": "uint256",
          "name": "assets",
          "type": "uint256"
        }
      ],
      "name": "previewDeposit",
      "outputs": [
        {
          "internalType": "uint256",
          "name": "",
          "type": "uint256"
        }
      ],
      "stateMutability": "view",
      "type": "function"
    },
    {
      "inputs": [
        {
          "internalType": "uint256",
          "name": "shares",
          "type": "uint256"
        }
      ],
      "name": "previewMint",
      "outputs": [
        {
          "internalType": "uint256",
          "name": "",
          "type": "uint256"
        }
      ],
      "stateMutability": "view",
      "type": "function"
    },
    {
      "inputs": [
        {
          "internalType": "uint256",
          "name": "shares",
          "type": "uint256"
        }
      ],
      "name": "previewRedeem",
      "outputs": [
        {
          "internalType": "uint256",
          "name": "",
          "type": "uint256"
        }
      ],
      "stateMutability": "view",
      "type": "function"
    },
    {
      "inputs": [
        {
          "internalType": "uint256",
          "name": "assets",
          "type": "uint256"
        }
      ],
      "name": "previewWithdraw",
      "outputs": [
        {
          "internalType": "uint256",
          "name": "",
          "type": "uint256"
        }
      ],
      "stateMutability": "view",
      "type": "function"
    },
    {
      "inputs": [
        {
          "internalType": "uint256",
          "name": "shares",
          "type": "uint256"
        },
        {
          "internalType": "address",
          "name": "receiver",
          "type": "address"
        },
        {
          "internalType": "address",
          "name": "owner",
          "type": "address"
        }
      ],
      "name": "redeem",
      "outputs": [
        {
          "internalType": "uint256",
          "name": "",
          "type": "uint256"
        }
      ],
      "stateMutability": "nonpayable",
      "type": "function"
    },
    {
      "inputs": [
        {
          "internalType": "address",
          "name": "asset",
          "type": "address"
        }
      ],
      "name": "removeFromVaultWhitelist",
      "outputs": [],
      "stateMutability": "nonpayable",
      "type": "function"
    },
    {
      "inputs": [
        {
          "internalType": "uint256",
          "name": "assets",
          "type": "uint256"
        }
      ],
      "name": "requestDeposit",
      "outputs": [],
      "stateMutability": "nonpayable",
      "type": "function"
    },
    {
      "inputs": [
        {
          "internalType": "uint256",
          "name": "shares",
          "type": "uint256"
        }
      ],
      "name": "requestRedeem",
      "outputs": [],
      "stateMutability": "nonpayable",
      "type": "function"
    },
    {
      "inputs": [
        {
          "components": [
            {
              "internalType": "address",
              "name": "token",
              "type": "address"
            },
            {
              "internalType": "uint32",
              "name": "weight",
              "type": "uint32"
            }
          ],
          "internalType": "struct IOrionTransparentVault.IntentPosition[]",
          "name": "intent",
          "type": "tuple[]"
        }
      ],
      "name": "submitIntent",
      "outputs": [],
      "stateMutability": "nonpayable",
      "type": "function"
    },
    {
      "inputs": [],
      "name": "symbol",
      "outputs": [
        {
          "internalType": "string",
          "name": "",
          "type": "string"
        }
      ],
      "stateMutability": "view",
      "type": "function"
    },
    {
      "inputs": [],
      "name": "totalAssets",
      "outputs": [
        {
          "internalType": "uint256",
          "name": "",
          "type": "uint256"
        }
      ],
      "stateMutability": "view",
      "type": "function"
    },
    {
      "inputs": [],
      "name": "totalSupply",
      "outputs": [
        {
          "internalType": "uint256",
          "name": "",
          "type": "uint256"
        }
      ],
      "stateMutability": "view",
      "type": "function"
    },
    {
      "inputs": [
        {
          "internalType": "address",
          "name": "to",
          "type": "address"
        },
        {
          "internalType": "uint256",
          "name": "value",
          "type": "uint256"
        }
      ],
      "name": "transfer",
      "outputs": [
        {
          "internalType": "bool",
          "name": "",
          "type": "bool"
        }
      ],
      "stateMutability": "nonpayable",
      "type": "function"
    },
    {
      "inputs": [
        {
          "internalType": "address",
          "name": "from",
          "type": "address"
        },
        {
          "internalType": "address",
          "name": "to",
          "type": "address"
        },
        {
          "internalType": "uint256",
          "name": "value",
          "type": "uint256"
        }
      ],
      "name": "transferFrom",
      "outputs": [
        {
          "internalType": "bool",
          "name": "",
          "type": "bool"
        }
      ],
      "stateMutability": "nonpayable",
      "type": "function"
    },
    {
      "inputs": [
        {
          "internalType": "address",
          "name": "newCurator",
          "type": "address"
        }
      ],
      "name": "updateCurator",
      "outputs": [],
      "stateMutability": "nonpayable",
      "type": "function"
    },
    {
      "inputs": [
        {
          "internalType": "uint8",
          "name": "feeType",
          "type": "uint8"
        },
        {
          "internalType": "uint16",
          "name": "performanceFee",
          "type": "uint16"
        },
        {
          "internalType": "uint16",
          "name": "managementFee",
          "type": "uint16"
        }
      ],
      "name": "updateFeeModel",
      "outputs": [],
      "stateMutability": "nonpayable",
      "type": "function"
    },
    {
      "inputs": [
        {
          "components": [
            {
              "internalType": "address",
              "name": "token",
              "type": "address"
            },
            {
              "internalType": "uint256",
              "name": "shares",
              "type": "uint256"
            }
          ],
          "internalType": "struct IOrionTransparentVault.PortfolioPosition[]",
          "name": "portfolio",
          "type": "tuple[]"
        },
        {
          "internalType": "uint256",
          "name": "newTotalAssets",
          "type": "uint256"
        }
      ],
      "name": "updateVaultState",
      "outputs": [],
      "stateMutability": "nonpayable",
      "type": "function"
    },
    {
      "inputs": [
        {
          "internalType": "address[]",
          "name": "assets",
          "type": "address[]"
        }
      ],
      "name": "updateVaultWhitelist",
      "outputs": [],
      "stateMutability": "nonpayable",
      "type": "function"
    },
    {
      "inputs": [],
      "name": "vaultOwner",
      "outputs": [
        {
          "internalType": "address",
          "name": "",
          "type": "address"
        }
      ],
      "stateMutability": "view",
      "type": "function"
    },
    {
      "inputs": [],
      "name": "vaultWhitelist",
      "outputs": [
        {
          "internalType": "address[]",
          "name": "",
          "type": "address[]"
        }
      ],
      "stateMutability": "view",
      "type": "function"
    },
    {
      "inputs": [
        {
          "internalType": "uint256",
          "name": "",
          "type": "uint256"
        },
        {
          "internalType": "address",
          "name": "",
          "type": "address"
        },
        {
          "internalType": "address",
          "name": "",
          "type": "address"
        }
      ],
      "name": "withdraw",
      "outputs": [
        {
          "internalType": "uint256",
          "name": "",
          "type": "uint256"
        }
      ],
      "stateMutability": "pure",
      "type": "function"
    }
  ],
  "bytecode": "0x60c060405234801561000f575f5ffd5b506040516152b03803806152b083398101604081905261002e916109ab565b8787878787878787856001600160a01b0316637158da7c6040518163ffffffff1660e01b8152600401602060405180830381865afa158015610072573d5f5f3e3d5ffd5b505050506040513d601f19601f820116820180604052508101906100969190610a7a565b858560036100a48382610b20565b5060046100b18282610b20565b5050505f5f6100c58361057660201b60201c565b91509150816100d55760126100d7565b805b60ff1660a05250506001600160a01b03908116608052600160055587166101115760405163e6c4247b60e01b815260040160405180910390fd5b6001600160a01b0386166101385760405163e6c4247b60e01b815260040160405180910390fd5b600680546001600160a01b03808b166001600160a01b031992831617909255600780548a841690831617905560088054928916929091168217905560408051630691d8b960e31b8152905163348ec5c8916004808201926020929091908290030181865afa1580156101ac573d5f5f3e3d5ffd5b505050506040513d601f19601f820116820180604052508101906101d09190610a7a565b60095f6101000a8154816001600160a01b0302191690836001600160a01b03160217905550856001600160a01b0316633a0dad8e6040518163ffffffff1660e01b8152600401602060405180830381865afa158015610231573d5f5f3e3d5ffd5b505050506040513d601f19601f820116820180604052508101906102559190610a7a565b600a5f6101000a8154816001600160a01b0302191690836001600160a01b03160217905550856001600160a01b031663d1717c7d6040518163ffffffff1660e01b8152600401602060405180830381865afa1580156102b6573d5f5f3e3d5ffd5b505050506040513d601f19601f820116820180604052508101906102da9190610bda565b600a60146101000a81548160ff021916908360ff1602179055505f600d819055505f6014819055505f6015819055505f866001600160a01b0316637158da7c6040518163ffffffff1660e01b8152600401602060405180830381865afa158015610346573d5f5f3e3d5ffd5b505050506040513d601f19601f8201168201806040525081019061036a9190610a7a565b6001600160a01b031663313ce5676040518163ffffffff1660e01b8152600401602060405180830381865afa1580156103a5573d5f5f3e3d5ffd5b505050506040513d601f19601f820116820180604052508101906103c99190610bda565b9050601260ff821611156103f057604051631c03248960e11b815260040160405180910390fd5b600460ff85161115610415576040516317dbc4cb60e21b815260040160405180910390fd5b610bb861ffff8416111561043c576040516317dbc4cb60e21b815260040160405180910390fd5b61012c61ffff83161115610463576040516317dbc4cb60e21b815260040160405180910390fd5b8360ff16600481111561047857610478610bf3565b6017805460ff1916600183600481111561049457610494610bf3565b02179055506017805461ffff84811663010000000264ffff00000019918716610100029190911664ffffffff0019909216919091171790556104d781600a610cfe565b6018556104e261064c565b50505050505050505061056960085f9054906101000a90046001600160a01b03166001600160a01b031663d86cd44e6040518163ffffffff1660e01b81526004015f60405180830381865afa15801561053d573d5f5f3e3d5ffd5b505050506040513d5f823e601f3d908101601f191682016040526105649190810190610d0c565b610721565b5050505050505050610e69565b60408051600481526024810182526020810180516001600160e01b031663313ce56760e01b17905290515f918291829182916001600160a01b038716916105bc91610dbe565b5f60405180830381855afa9150503d805f81146105f4576040519150601f19603f3d011682016040523d82523d5f602084013e6105f9565b606091505b509150915081801561060d57506020815110155b15610640575f818060200190518101906106279190610dd4565b905060ff811161063e576001969095509350505050565b505b505f9485945092505050565b60085460408051636c366a2760e11b815290515f926001600160a01b03169163d86cd44e91600480830192869291908290030181865afa158015610692573d5f5f3e3d5ffd5b505050506040513d5f823e601f3d908101601f191682016040526106b99190810190610d0c565b90505f5b815181101561071d575f6106f48383815181106106dc576106dc610deb565b6020026020010151600b61085960201b90919060201c565b90508061071457604051630ea075bf60e21b815260040160405180910390fd5b506001016106bd565b5050565b6007546001600160a01b03163b5f03610741576020805460ff1916905550565b6007546040516301ffc9a760e01b81526313ee8de160e11b60048201526001600160a01b03909116906301ffc9a790602401602060405180830381865afa9250505080156107ac575060408051601f3d908101601f191682019092526107a991810190610dff565b60015b6107c95760405163298febe360e01b815260040160405180910390fd5b801561083d576020805460ff1916600117905560075460405163c653526b60e01b81526001600160a01b039091169063c653526b9061080c908590600401610e1e565b5f604051808303815f87803b158015610823575f5ffd5b505af1158015610835573d5f5f3e3d5ffd5b505050505050565b60405163298febe360e01b815260040160405180910390fd5b50565b5f61086d836001600160a01b038416610876565b90505b92915050565b5f8181526001830160205260408120546108bb57508154600181810184555f848152602080822090930184905584548482528286019093526040902091909155610870565b505f610870565b6001600160a01b0381168114610856575f5ffd5b634e487b7160e01b5f52604160045260245ffd5b604051601f8201601f191681016001600160401b0381118282101715610912576109126108d6565b604052919050565b5f82601f830112610929575f5ffd5b81516001600160401b03811115610942576109426108d6565b610955601f8201601f19166020016108ea565b818152846020838601011115610969575f5ffd5b8160208501602083015e5f918101602001919091529392505050565b805160ff81168114610995575f5ffd5b919050565b805161ffff81168114610995575f5ffd5b5f5f5f5f5f5f5f5f610100898b0312156109c3575f5ffd5b88516109ce816108c2565b60208a01519098506109df816108c2565b60408a01519097506109f0816108c2565b60608a01519096506001600160401b03811115610a0b575f5ffd5b610a178b828c0161091a565b60808b015190965090506001600160401b03811115610a34575f5ffd5b610a408b828c0161091a565b945050610a4f60a08a01610985565b9250610a5d60c08a0161099a565b9150610a6b60e08a0161099a565b90509295985092959890939650565b5f60208284031215610a8a575f5ffd5b8151610a95816108c2565b9392505050565b600181811c90821680610ab057607f821691505b602082108103610ace57634e487b7160e01b5f52602260045260245ffd5b50919050565b601f821115610b1b57805f5260205f20601f840160051c81016020851015610af95750805b601f840160051c820191505b81811015610b18575f8155600101610b05565b50505b505050565b81516001600160401b03811115610b3957610b396108d6565b610b4d81610b478454610a9c565b84610ad4565b6020601f821160018114610b7f575f8315610b685750848201515b5f19600385901b1c1916600184901b178455610b18565b5f84815260208120601f198516915b82811015610bae5787850151825560209485019460019092019101610b8e565b5084821015610bcb57868401515f19600387901b60f8161c191681555b50505050600190811b01905550565b5f60208284031215610bea575f5ffd5b61086d82610985565b634e487b7160e01b5f52602160045260245ffd5b634e487b7160e01b5f52601160045260245ffd5b6001815b6001841115610c5657808504811115610c3a57610c3a610c07565b6001841615610c4857908102905b60019390931c928002610c1f565b935093915050565b5f82610c6c57506001610870565b81610c7857505f610870565b8160018114610c8e5760028114610c9857610cb4565b6001915050610870565b60ff841115610ca957610ca9610c07565b50506001821b610870565b5060208310610133831016604e8410600b8410161715610cd7575081810a610870565b610ce35f198484610c1b565b805f1904821115610cf657610cf6610c07565b029392505050565b5f61086d60ff841683610c5e565b5f60208284031215610d1c575f5ffd5b81516001600160401b03811115610d31575f5ffd5b8201601f81018413610d41575f5ffd5b80516001600160401b03811115610d5a57610d5a6108d6565b8060051b610d6a602082016108ea565b91825260208184018101929081019087841115610d85575f5ffd5b6020850194505b83851015610db35784519250610da1836108c2565b82825260209485019490910190610d8c565b979650505050505050565b5f82518060208501845e5f920191825250919050565b5f60208284031215610de4575f5ffd5b5051919050565b634e487b7160e01b5f52603260045260245ffd5b5f60208284031215610e0f575f5ffd5b81518015158114610a95575f5ffd5b602080825282518282018190525f918401906040840190835b81811015610e5e5783516001600160a01b0316835260209384019390920191600101610e37565b509095945050505050565b60805160a051614429610e875f395f50505f610ec401526144295ff3fe608060405234801561000f575f5ffd5b50600436106102e2575f3560e01c806394bf804d1161018c57806394bf804d146104a957806395d89b411461053157806397ee114414610539578063985ba4ae1461056f5780639908840c14610582578063a68a52671461058b578063a9059cbb1461059e578063aa2f892d146105b1578063acdb3d51146105c4578063b1bd7e2e146105cd578063b3d7f6b9146105e0578063b460af94146105f3578063b6eba65314610601578063ba08765214610617578063bdca91651461062a578063c0b568e114610633578063c3f0d30e14610646578063c63d75b614610455578063c6e6f59214610659578063ca78e8391461066c578063ce96cb7714610674578063d1717c7d14610687578063d3d034581461069b578063d853365f146106b1578063d905777e146106b9578063dd62ed3e146106cc578063e3352c4c146106df578063e51a85f6146106f2578063e5e9719314610705578063e66f53b714610718578063ef8b30f714610659578063f64c6f321461072b575f5ffd5b806301e1d114146102e657806303d44854146102fd57806306fdde031461031257806307a2d13a14610327578063095ea7b31461033a5780630a28a4771461035d5780630a605c6d146103705780630c6a62dd146103785780630d1e66671461038b5780630df571f71461039e57806318160ddd146103b157806318c21949146103b95780631f52692b146103cc57806323b872dd146103ec578063313ce567146103ff578063348ec5c81461041457806338d52e0f146104275780633a0dad8e1461042f5780633ab6d27c14610442578063402d267d14610455578063493a6e21146104695780634cdad506146103275780634e85b1351461047c57806353a0bfdf146104915780635de3dfdc1461049e5780636e553f65146104a957806370a08231146104bc5780637847ea53146104cf57806379502c55146104ef57806380ceebfe146105025780638f5c946514610515575b5f5ffd5b600d545b6040519081526020015b60405180910390f35b61031061030b3660046139d6565b610733565b005b61031a610911565b6040516102f49190613a45565b6102ea610335366004613a7a565b6109a1565b61034d610348366004613aa5565b6109b2565b60405190151581526020016102f4565b6102ea61036b366004613a7a565b6109c9565b6015546102ea565b610310610386366004613acf565b6109d5565b610310610399366004613a7a565b610ae2565b6103106103ac366004613aea565b610d53565b6002546102ea565b6103106103c7366004613a7a565b610dce565b6006546103df906001600160a01b031681565b6040516102f49190613b0a565b61034d6103fa366004613b1e565b610e9d565b60125b60405160ff90911681526020016102f4565b6009546103df906001600160a01b031681565b6103df610ec2565b600a546103df906001600160a01b031681565b610310610450366004613b79565b610ee6565b6102ea610463366004613acf565b505f1990565b610310610477366004613a7a565b6110b3565b6104846113fa565b6040516102f49190613c04565b60195461034d9060ff1681565b60205460ff1661034d565b6102ea6104b7366004613c16565b61140b565b6102ea6104ca366004613acf565b611425565b6104da6301e1338081565b60405163ffffffff90911681526020016102f4565b6008546103df906001600160a01b031681565b6102ea610510366004613c44565b61143f565b61051e61271081565b60405161ffff90911681526020016102f4565b61031a61147f565b60175460185461055f9160ff81169161ffff610100830481169263010000009004169084565b6040516102f49493929190613c86565b61031061057d366004613d04565b61148e565b61051e61012c81565b6102ea610599366004613c44565b61159b565b61034d6105ac366004613aa5565b6115ca565b6103106105bf366004613a7a565b6115d7565b6102ea60165481565b6103106105db366004613d4b565b6117b0565b6102ea6105ee366004613a7a565b6119e0565b6102ea6104b7366004613d89565b6106096119ec565b6040516102f4929190613dbd565b6102ea610625366004613d89565b611cc1565b61051e610bb881565b610310610641366004613a7a565b611eab565b610310610654366004613a7a565b612065565b6102ea610667366004613a7a565b612259565b610310612264565b6102ea610682366004613acf565b61229e565b600a5461040290600160a01b900460ff1681565b6106a36122b1565b6040516102f4929190613e1b565b610402601281565b6102ea6106c7366004613acf565b6123db565b6102ea6106da366004613e67565b6123e5565b6103106106ed366004613acf565b61240f565b6102ea610700366004613a7a565b612524565b610310610713366004613a7a565b61255d565b6007546103df906001600160a01b031681565b6014546102ea565b6006546001600160a01b0316331461075e57604051631a27eac360e11b815260040160405180910390fd5b610768600b612835565b5f5b81811015610868575f83838381811061078557610785613e93565b905060200201602081019061079a9190613acf565b600854604051633af32abf60e01b81529192506001600160a01b031690633af32abf906107cb908490600401613b0a565b602060405180830381865afa1580156107e6573d5f5f3e3d5ffd5b505050506040513d601f19601f8201168201806040525081019061080a9190613ea7565b610832578060405163751dff9760e11b81526004016108299190613b0a565b60405180910390fd5b5f61083e600b8361283e565b90508061085e57604051630ea075bf60e21b815260040160405180910390fd5b505060010161076a565b5060205460ff16156108d45760075460405163c653526b60e01b81526001600160a01b039091169063c653526b906108a69085908590600401613ec6565b5f604051808303815f87803b1580156108bd575f5ffd5b505af11580156108cf573d5f5f3e3d5ffd5b505050505b7fa975983c7a4dcf80477a447433240de322f36428f1b3864e50d7a45e14c68b668282604051610905929190613ec6565b60405180910390a15050565b60606003805461092090613f12565b80601f016020809104026020016040519081016040528092919081815260200182805461094c90613f12565b80156109975780601f1061096e57610100808354040283529160200191610997565b820191905f5260205f20905b81548152906001019060200180831161097a57829003601f168201915b5050505050905090565b5f6109ac825f612852565b92915050565b5f336109bf818585612893565b5060019392505050565b5f6109ac8260016128a5565b6006546001600160a01b03163314610a0057604051631a27eac360e11b815260040160405180910390fd5b6001600160a01b038116610a275760405163e6c4247b60e01b815260040160405180910390fd5b600780546001600160a01b0319166001600160a01b03831617905560408051634e85b13560e01b81529051610aac913091634e85b135916004808201925f929091908290030181865afa158015610a80573d5f5f3e3d5ffd5b505050506040513d5f823e601f3d908101601f19168201604052610aa79190810190613fd8565b6128d7565b6040516001600160a01b038216907f83293ffeebb677b167941693470018acf300605df266a35e9fdb66f24ff00fe0905f90a250565b610aea612a04565b60085f9054906101000a90046001600160a01b03166001600160a01b031663edcf9c1f6040518163ffffffff1660e01b8152600401602060405180830381865afa158015610b3a573d5f5f3e3d5ffd5b505050506040513d601f19601f82011682018060405250810190610b5e9190613ea7565b610b7b576040516312aecd8160e01b815260040160405180910390fd5b805f03610ba457610b8a610ec2565b604051636b30633560e01b81526004016108299190613b0a565b5f610bad610ec2565b6001600160a01b03166370a08231336040518263ffffffff1660e01b8152600401610bd89190613b0a565b602060405180830381865afa158015610bf3573d5f5f3e3d5ffd5b505050506040513d601f19601f82011682018060405250810190610c17919061406c565b905080821115610c3a57604051632ca2f52b60e11b815260040160405180910390fd5b5f610c43610ec2565b600a546040516323b872dd60e01b81526001600160a01b03928316926323b872dd92610c79923392909116908890600401614083565b6020604051808303815f875af1158015610c95573d5f5f3e3d5ffd5b505050506040513d601f19601f82011682018060405250810190610cb99190613ea7565b905080610cd9576040516312171d8360e31b815260040160405180910390fd5b5f610ce5600e33612a2e565b9150610d00905033610cf786846140bb565b600e9190612a54565b508360145f828254610d1291906140bb565b9091555050604051849033907f55896b30a78fc55b78937f8014dde3f0035e9d37a4f6ac36841fb8b62f7e2b13905f90a3505050610d506001600555565b50565b6009546001600160a01b03163314610d7e57604051631a27eac360e11b815260040160405180910390fd5b8015610dca578060165f828254610d9591906140bb565b9091555050601654604051829084907f8b8789cf9157fe7b016901e4ed3a5d0971caa8b7c031da0b25638ccf65841b2a905f90a45b5050565b6006546001600160a01b03163314610df957604051631a27eac360e11b815260040160405180910390fd5b805f03610e0857610b8a610ec2565b601654811115610e2b57604051632ca2f52b60e11b815260040160405180910390fd5b8060165f828254610e3c91906140ce565b9091555050600a5460405163741fca4b60e01b8152600481018390526001600160a01b039091169063741fca4b906024015f604051808303815f87803b158015610e84575f5ffd5b505af1158015610e96573d5f5f3e3d5ffd5b5050505050565b5f33610eaa858285612a69565b610eb5858585612aba565b60019150505b9392505050565b7f000000000000000000000000000000000000000000000000000000000000000090565b6006546001600160a01b03163314610f1157604051631a27eac360e11b815260040160405180910390fd5b60085f9054906101000a90046001600160a01b03166001600160a01b031663edcf9c1f6040518163ffffffff1660e01b8152600401602060405180830381865afa158015610f61573d5f5f3e3d5ffd5b505050506040513d601f19601f82011682018060405250810190610f859190613ea7565b610fa2576040516312aecd8160e01b815260040160405180910390fd5b600460ff84161115610fc7576040516317dbc4cb60e21b815260040160405180910390fd5b610bb861ffff83161115610fee576040516317dbc4cb60e21b815260040160405180910390fd5b61012c61ffff82161115611015576040516317dbc4cb60e21b815260040160405180910390fd5b8260ff16600481111561102a5761102a613c72565b6017805460ff1916600183600481111561104657611046613c72565b02179055506017805464ffffffff00191661010061ffff85811691820264ffff00000019169290921763010000009285169283021790925560405190919060ff8616907fd24f39e523bfa412fa391702710dc62e1c82d87a8e83228a37c42be1b4870f45905f90a4505050565b600a546001600160a01b031633146110de57604051631a27eac360e11b815260040160405180910390fd5b6110e6612a04565b5f6110f16011612b17565b90508063ffffffff165f0361110657506113f0565b5f8163ffffffff166001600160401b0381111561112557611125613f4a565b60405190808252806020026020018201604052801561114e578160200160208202803683370190505b5090505f8263ffffffff166001600160401b0381111561117057611170613f4a565b604051908082528060200260200182016040528015611199578160200160208202803683370190505b5090505f5b8363ffffffff168163ffffffff161015611233575f806111c8601163ffffffff80861690612b2116565b9150915081858463ffffffff16815181106111e5576111e5613e93565b60200260200101906001600160a01b031690816001600160a01b03168152505080848463ffffffff168151811061121e5761121e613e93565b6020908102919091010152505060010161119e565b505f601581905560095460408051630a58ce2d60e11b815290516001600160a01b03909216916314b19c5a916004808201926020929091908290030181865afa158015611282573d5f5f3e3d5ffd5b505050506040513d601f19601f820116820180604052508101906112a691906140e1565b90505f5b8463ffffffff168163ffffffff1610156113ea575f848263ffffffff16815181106112d7576112d7613e93565b602002602001015190505f848363ffffffff16815181106112fa576112fa613e93565b60200260200101519050611318826011612b2f90919063ffffffff16565b505f611325828a5f61159b565b90506113313083612b43565b600a54604051634adfc2e760e01b81526001600160a01b0390911690634adfc2e79061136390869085906004016140fc565b5f604051808303815f87803b15801561137a575f5ffd5b505af115801561138c573d5f5f3e3d5ffd5b5050604080518481526020810186905261ffff891693506001600160a01b038716925030917f215abfcd108b85fbee47f26fda2de66f90f14fa5fcaf0201698ad8ac9323545f910160405180910390a45050508060010190506112aa565b50505050505b610d506001600555565b6060611406600b612b77565b905090565b5f60405163125ad87760e31b815260040160405180910390fd5b6001600160a01b03165f9081526020819052604090205490565b5f61147761144b612b83565b61145690600a6141f8565b60025461146391906140bb565b61146e8560016140bb565b86919085612bff565b949350505050565b60606004805461092090613f12565b6009546001600160a01b031633146114b957604051631a27eac360e11b815260040160405180910390fd5b6114c3601a612c41565b815f5b8161ffff168161ffff16101561153f5761153685858361ffff168181106114ef576114ef613e93565b6115059260206040909202019081019150613acf565b86868461ffff1681811061151b5761151b613e93565b90506040020160200135601a612a549092919063ffffffff16565b506001016114c6565b505f61155260125b61033590600a6141f8565b6018549091508111156115655760188190555b600d83905560405183907f5e1ff954b5e5257e9ee5d4cb07059e8f5e69b1aaaf9911e5d8d90a6894de9c21905f90a25050505050565b5f6114776115aa8460016140bb565b6115b2612b83565b6115bd90600a6141f8565b60025461146e91906140bb565b5f336109bf818585612aba565b60085f9054906101000a90046001600160a01b03166001600160a01b031663edcf9c1f6040518163ffffffff1660e01b8152600401602060405180830381865afa158015611627573d5f5f3e3d5ffd5b505050506040513d601f19601f8201168201806040525081019061164b9190613ea7565b611668576040516312aecd8160e01b815260040160405180910390fd5b805f0361168a5730604051636b30633560e01b81526004016108299190613b0a565b5f61169433611425565b9050808211156116b757604051632ca2f52b60e11b815260040160405180910390fd5b6040516323b872dd60e01b81525f9030906323b872dd906116e090339084908890600401614083565b6020604051808303815f875af11580156116fc573d5f5f3e3d5ffd5b505050506040513d601f19601f820116820180604052508101906117209190613ea7565b905080611740576040516312171d8360e31b815260040160405180910390fd5b5f61174c601133612a2e565b915061176790503361175e86846140bb565b60119190612a54565b508360155f82825461177991906140bb565b9091555050604051849033907f222dc200773fe9b45015bf792e8fee37d651e3590c215806a5042404b6d741d2905f90a350505050565b6007546001600160a01b031633146117db57604051631a27eac360e11b815260040160405180910390fd5b60205460ff16156117ff576040516317dbc4cb60e21b815260040160405180910390fd5b5f81900361182057604051631121aa8d60e01b815260040160405180910390fd5b61182a601d612c41565b5f816001600160401b0381111561184357611843613f4a565b60405190808252806020026020018201604052801561186c578160200160208202803683370190505b5090505f82815b8161ffff168161ffff16101561196a575f86868361ffff1681811061189a5761189a613e93565b6118b09260206040909202019081019150613acf565b90505f87878461ffff168181106118c9576118c9613e93565b90506040020160200160208101906118e19190614217565b905081868461ffff16815181106118fa576118fa613e93565b6001600160a01b03909216602092830291909101909101525f611928601d8463ffffffff80861690612a5416565b90508061194a57826040516346bdabe160e01b81526004016108299190613b0a565b61195a63ffffffff8316876140bb565b9550505050806001019050611873565b5061197483612c4a565b600a60149054906101000a900460ff16600a61199091906141f8565b82146119af57604051639006dd2760e01b815260040160405180910390fd5b60405133907f2d47a742b8d7df7c1fc5a9a631b206b364e6cb2722490759f63bb3ab14b132e0905f90a25050505050565b5f6109ac826001612852565b601954606090819060ff1615611b6f5760408051600180825281830190925290602080830190803683375050604080516001808252818301909252929450905060208083019080368337505060085460408051631c56369f60e21b815290519394506001600160a01b0390911692637158da7c925060048083019260209291908290030181865afa158015611a83573d5f5f3e3d5ffd5b505050506040513d601f19601f82011682018060405250810190611aa79190614232565b825f81518110611ab957611ab9613e93565b6001600160a01b039283166020918202929092018101919091526008546040805163d1717c7d60e01b81529051919093169263d1717c7d9260048083019391928290030181865afa158015611b10573d5f5f3e3d5ffd5b505050506040513d601f19601f82011682018060405250810190611b34919061424d565b611b3f90600a6141f8565b815f81518110611b5157611b51613e93565b602002602001019063ffffffff16908163ffffffff16815250509091565b60205460ff1615611b8a57611b82612cc2565b915091509091565b5f611b95601d612b17565b90508061ffff166001600160401b03811115611bb357611bb3613f4a565b604051908082528060200260200182016040528015611bdc578160200160208202803683370190505b5092508061ffff166001600160401b03811115611bfb57611bfb613f4a565b604051908082528060200260200182016040528015611c24578160200160208202803683370190505b5091505f5b8161ffff168161ffff161015611cbb575f80611c4a601d61ffff8516612b21565b9150915081868461ffff1681518110611c6557611c65613e93565b60200260200101906001600160a01b031690816001600160a01b03168152505080858461ffff1681518110611c9c57611c9c613e93565b63ffffffff909216602092830291909101909101525050600101611c29565b50509091565b5f611cca612a04565b60085460405163f764eb4560e01b81526001600160a01b039091169063f764eb4590611cfa903090600401613b0a565b602060405180830381865afa158015611d15573d5f5f3e3d5ffd5b505050506040513d601f19601f82011682018060405250810190611d399190613ea7565b611d565760405163125ad87760e31b815260040160405180910390fd5b5f611d60836123db565b905080851115611d8957828582604051632e52afbb60e21b815260040161082993929190614268565b845f03611dab5730604051636b30633560e01b81526004016108299190613b0a565b336001600160a01b03841614611dc657611dc6833387612a69565b5f611dd0866109a1565b905080600d5f828254611de391906140ce565b90915550611df390508487612b43565b60408051828152602081018890526001600160a01b03808716929088169133917ffbde797d201c681b91056529119e0b02407c7bb96a4a2c75c01fc9667232c8db910160405180910390a4600a54604051627b8a6760e11b8152600481018390526001600160a01b0387811660248301529091169062f714ce906044015f604051808303815f87803b158015611e87575f5ffd5b505af1158015611e99573d5f5f3e3d5ffd5b5092945050505050610ebb6001600555565b611eb3612a04565b60085f9054906101000a90046001600160a01b03166001600160a01b031663edcf9c1f6040518163ffffffff1660e01b8152600401602060405180830381865afa158015611f03573d5f5f3e3d5ffd5b505050506040513d601f19601f82011682018060405250810190611f279190613ea7565b611f44576040516312aecd8160e01b815260040160405180910390fd5b805f03611f5357610b8a610ec2565b5f611f5f600e33612a2e565b91505081811015611f8357604051632ca2f52b60e11b815260040160405180910390fd5b600a546040516351edffb160e01b81526001600160a01b03909116906351edffb190611fb590339086906004016140fc565b5f604051808303815f87803b158015611fcc575f5ffd5b505af1158015611fde573d5f5f3e3d5ffd5b505050505f8282611fef91906140ce565b9050805f0361200957612003600e33612b2f565b50612017565b612015600e3383612a54565b505b8260145f82825461202891906140ce565b9091555050604051839033907f96a9a6886cdf3047a125454218a23d3961fd3a78643123b248a9d106d0ac94fd905f90a35050610d506001600555565b61206d612a04565b60085f9054906101000a90046001600160a01b03166001600160a01b031663edcf9c1f6040518163ffffffff1660e01b8152600401602060405180830381865afa1580156120bd573d5f5f3e3d5ffd5b505050506040513d601f19601f820116820180604052508101906120e19190613ea7565b6120fe576040516312aecd8160e01b815260040160405180910390fd5b805f036121205730604051636b30633560e01b81526004016108299190613b0a565b5f61212c601133612a2e565b9150508181101561215057604051632ca2f52b60e11b815260040160405180910390fd5b5f61215b83836140ce565b9050805f036121755761216f601133612b2f565b50612183565b61218160113383612a54565b505b8260155f82825461219491906140ce565b909155505060405163a9059cbb60e01b81525f90309063a9059cbb906121c090339088906004016140fc565b6020604051808303815f875af11580156121dc573d5f5f3e3d5ffd5b505050506040513d601f19601f820116820180604052508101906122009190613ea7565b905080612220576040516312171d8360e31b815260040160405180910390fd5b604051849033907f046d3e17087d323298991516e3fdec36fe1204d6bff7fb6e2b8eca77b80a22ad905f90a3505050610d506001600555565b5f6109ac825f6128a5565b6008546001600160a01b0316331461228f5760405163ea8e4eb560e01b815260040160405180910390fd5b6019805460ff19166001179055565b5f6109ac6122ab83611425565b5f612852565b6060805f6122bf601a612b17565b90508061ffff166001600160401b038111156122dd576122dd613f4a565b604051908082528060200260200182016040528015612306578160200160208202803683370190505b5092508061ffff166001600160401b0381111561232557612325613f4a565b60405190808252806020026020018201604052801561234e578160200160208202803683370190505b5091505f5b8161ffff168161ffff161015611cbb575f80612374601a61ffff8516612b21565b9150915081868461ffff168151811061238f5761238f613e93565b60200260200101906001600160a01b031690816001600160a01b03168152505080858461ffff16815181106123c6576123c6613e93565b60209081029190910101525050600101612353565b5f6109ac82611425565b6001600160a01b039182165f90815260016020908152604080832093909416825291909152205490565b6008546001600160a01b0316331461243a5760405163ea8e4eb560e01b815260040160405180910390fd5b612445600b82612fc5565b5060205460ff16610d50575f8061245d601d84612a2e565b915091508161246b57505050565b612476601d84612b2f565b505f306001600160a01b03166338d52e0f6040518163ffffffff1660e01b8152600401602060405180830381865afa1580156124b4573d5f5f3e3d5ffd5b505050506040513d601f19601f820116820180604052508101906124d89190614232565b90505f806124e7601d84612a2e565b91509150811561250e57612508836124ff86846140bb565b601d9190612a54565b5061251c565b61251a601d8486612a54565b505b505050505050565b5f5f61252f83612fd9565b90505f61253c82856140ce565b90505f612548826130a3565b905061255481846140bb565b95945050505050565b600a546001600160a01b0316331461258857604051631a27eac360e11b815260040160405180910390fd5b612590612a04565b5f61259b600e612b17565b90508063ffffffff165f036125b057506113f0565b5f8163ffffffff166001600160401b038111156125cf576125cf613f4a565b6040519080825280602002602001820160405280156125f8578160200160208202803683370190505b5090505f8263ffffffff166001600160401b0381111561261a5761261a613f4a565b604051908082528060200260200182016040528015612643578160200160208202803683370190505b5090505f5b8363ffffffff168163ffffffff1610156126dd575f80612672600e63ffffffff80861690612b2116565b9150915081858463ffffffff168151811061268f5761268f613e93565b60200260200101906001600160a01b031690816001600160a01b03168152505080848463ffffffff16815181106126c8576126c8613e93565b60209081029190910101525050600101612648565b505f601481905560095460408051630a58ce2d60e11b815290516001600160a01b03909216916314b19c5a916004808201926020929091908290030181865afa15801561272c573d5f5f3e3d5ffd5b505050506040513d601f19601f8201168201806040525081019061275091906140e1565b90505f5b8463ffffffff168163ffffffff1610156113ea575f848263ffffffff168151811061278157612781613e93565b602002602001015190505f848363ffffffff16815181106127a4576127a4613e93565b602002602001015190506127c282600e612b2f90919063ffffffff16565b505f6127cf828a5f61143f565b90506127db838261313c565b604080518381526020810183905261ffff8716916001600160a01b0386169130917f4e2ca0515ed1aef1395f66b5303bb5d6f1bf9d61a353fa53f73f8ac9973fa9f6910160405180910390a4505050806001019050612754565b610d5081613170565b5f610ebb836001600160a01b0384166131c9565b5f610ebb61285f600d5490565b61286a9060016140bb565b612872612b83565b61287d90600a6141f8565b60025461288a91906140bb565b85919085612bff565b6128a08383836001613210565b505050565b5f610ebb6128b1612b83565b6128bc90600a6141f8565b6002546128c991906140bb565b600d5461288a9060016140bb565b6007546001600160a01b03163b5f036128f7576020805460ff1916905550565b6007546040516301ffc9a760e01b81526313ee8de160e11b60048201526001600160a01b03909116906301ffc9a790602401602060405180830381865afa925050508015612962575060408051601f3d908101601f1916820190925261295f91810190613ea7565b60015b61297f5760405163298febe360e01b815260040160405180910390fd5b80156129eb576020805460ff1916600117905560075460405163c653526b60e01b81526001600160a01b039091169063c653526b906129c2908590600401613c04565b5f604051808303815f87803b1580156129d9575f5ffd5b505af115801561251c573d5f5f3e3d5ffd5b60405163298febe360e01b815260040160405180910390fd5b600260055403612a2757604051633ee5aeb560e01b815260040160405180910390fd5b6002600555565b5f808080612a45866001600160a01b0387166132e2565b909450925050505b9250929050565b5f611477846001600160a01b0385168461331a565b5f612a7484846123e5565b90505f19811015612ab45781811015612aa657828183604051637dc7a0d960e11b815260040161082993929190614268565b612ab484848484035f613210565b50505050565b6001600160a01b038316612ae3575f604051634b637e8f60e11b81526004016108299190613b0a565b6001600160a01b038216612b0c575f60405163ec442f0560e01b81526004016108299190613b0a565b6128a0838383613336565b5f6109ac82613449565b5f808080612a458686613453565b5f610ebb836001600160a01b03841661347c565b6001600160a01b038216612b6c575f604051634b637e8f60e11b81526004016108299190613b0a565b610dca825f83613336565b60605f610ebb83613498565b5f5f612b8d610ec2565b6001600160a01b031663313ce5676040518163ffffffff1660e01b8152600401602060405180830381865afa158015612bc8573d5f5f3e3d5ffd5b505050506040513d601f19601f82011682018060405250810190612bec919061424d565b9050612bf9816012614289565b91505090565b5f612c2c612c0c836134f1565b8015612c2757505f8480612c2257612c226142a2565b868809115b151590565b612c3786868661351d565b61255491906140bb565b610d50816135cd565b5f5b8151811015610dca57612c82828281518110612c6a57612c6a613e93565b6020026020010151600b61361690919063ffffffff16565b612cba57818181518110612c9857612c98613e93565b602002602001015160405163751dff9760e11b81526004016108299190613b0a565b600101612c4c565b6060805f306001600160a01b0316634e85b1356040518163ffffffff1660e01b81526004015f60405180830381865afa158015612d01573d5f5f3e3d5ffd5b505050506040513d5f823e601f3d908101601f19168201604052612d289190810190613fd8565b604080515f808252602082019092529192509081612d67565b604080518082019091525f8082526020820152815260200190600190039081612d415790505b5060075460405163701a818560e01b81529192506001600160a01b03169063701a818590612d99908590600401613c04565b5f60405180830381865afa925050508015612dd557506040513d5f823e601f3d908101601f19168201604052612dd291908101906142b6565b60015b612e6e5760075f9054906101000a90046001600160a01b03166001600160a01b0316639194c82c6040518163ffffffff1660e01b81526004015f60405180830381865afa925050508015612e4a57506040513d5f823e601f3d908101601f19168201604052612e4791908101906142b6565b60015b612e6757604051632711b74d60e11b815260040160405180910390fd5b9050612e71565b90505b80516001600160401b03811115612e8a57612e8a613f4a565b604051908082528060200260200182016040528015612eb3578160200160208202803683370190505b50935080516001600160401b03811115612ecf57612ecf613f4a565b604051908082528060200260200182016040528015612ef8578160200160208202803683370190505b5092505f5b81518161ffff161015612fbe57818161ffff1681518110612f2057612f20613e93565b60200260200101515f0151858261ffff1681518110612f4157612f41613e93565b60200260200101906001600160a01b031690816001600160a01b031681525050818161ffff1681518110612f7757612f77613e93565b602002602001015160200151848261ffff1681518110612f9957612f99613e93565b63ffffffff90921660209283029190910190910152612fb781614377565b9050612efd565b5050509091565b5f610ebb836001600160a01b03841661362a565b6017545f906301000000900461ffff168103612ff657505f919050565b6017545f90613013906301000000900461ffff168461271061351d565b9050610ebb60095f9054906101000a90046001600160a01b03166001600160a01b0316634ff0876a6040518163ffffffff1660e01b8152600401602060405180830381865afa158015613068573d5f5f3e3d5ffd5b505050506040513d601f19601f8201168201806040525081019061308c9190614397565b829063ffffffff908116906301e133809061351d16565b6017545f90610100900461ffff1681036130be57505f919050565b5f6130d56130ce6012600a6141f8565b845f61159b565b6017549091505f9081906130eb9060ff1661370d565b91509150818310806130fb575080155b1561310a57505f949350505050565b6017545f9061312390610100900461ffff16858461351d565b9050613132818761271061351d565b9695505050505050565b6001600160a01b038216613165575f60405163ec442f0560e01b81526004016108299190613b0a565b610dca5f8383613336565b5f613179825490565b90505f5b818110156131c257826001015f845f01838154811061319e5761319e613e93565b905f5260205f20015481526020019081526020015f205f905580600101905061317d565b50505f9055565b5f6131d483836137f7565b61320957508154600181810184555f8481526020808220909301849055845484825282860190935260409020919091556109ac565b505f6109ac565b6001600160a01b038416613239575f60405163e602df0560e01b81526004016108299190613b0a565b6001600160a01b038316613262575f604051634a1406b160e11b81526004016108299190613b0a565b6001600160a01b038085165f9081526001602090815260408083209387168352929052208290558015612ab457826001600160a01b0316846001600160a01b03167f8c5be1e5ebec7d5bd14f71427d1e84f3dd0314c0f7b2291e5b200ac8c7c3b925846040516132d491815260200190565b60405180910390a350505050565b5f81815260028301602052604081205481908061330f57613303858561380e565b92505f9150612a4d9050565b600192509050612a4d565b5f82815260028401602052604081208290556114778484613819565b6001600160a01b038316613360578060025f82825461335591906140bb565b909155506133bd9050565b6001600160a01b0383165f908152602081905260409020548181101561339f5783818360405163391434e360e21b815260040161082993929190614268565b6001600160a01b0384165f9081526020819052604090209082900390555b6001600160a01b0382166133d9576002805482900390556133f7565b6001600160a01b0382165f9081526020819052604090208054820190555b816001600160a01b0316836001600160a01b03167fddf252ad1be2c89b69c2b068fc378daa952ba7f163c4a11628f55a4df523b3ef8360405161343c91815260200190565b60405180910390a3505050565b5f6109ac82613824565b5f8080613460858561382d565b5f81815260029690960160205260409095205494959350505050565b5f8181526002830160205260408120819055610ebb8383613838565b6060815f018054806020026020016040519081016040528092919081815260200182805480156134e557602002820191905f5260205f20905b8154815260200190600101908083116134d1575b50505050509050919050565b5f600282600381111561350657613506613c72565b61351091906143b2565b60ff166001149050919050565b5f5f5f61352a8686613843565b91509150815f0361354e57838181613544576135446142a2565b0492505050610ebb565b81841161356557613565600385150260111861385f565b5f848688095f868103871696879004966002600389028118808a02820302808a02820302808a02820302808a02820302808a02820302808a02909103029181900381900460010185841190960395909502919093039390930492909217029150509392505050565b5f6135d782613449565b90505f5b8181101561360c57600283015f6135f2858461382d565b815260208101919091526040015f908120556001016135db565b50610dca82612835565b5f610ebb836001600160a01b0384166137f7565b5f8181526001830160205260408120548015613704575f61364c6001836140ce565b85549091505f9061365f906001906140ce565b90508082146136be575f865f01828154811061367d5761367d613e93565b905f5260205f200154905080875f01848154811061369d5761369d613e93565b5f918252602080832090910192909255918252600188019052604090208390555b85548690806136cf576136cf6143df565b600190038181905f5260205f20015f90559055856001015f8681526020019081526020015f205f9055600193505050506109ac565b5f9150506109ac565b5f808061371a6012611547565b90505f84600481111561372f5761372f613c72565b0361373f578092508291506137f1565b600384600481111561375357613753613c72565b036137655760185492508291506137f1565b600184600481111561377957613779613c72565b036137915761378781613870565b92508091506137f1565b60028460048111156137a5576137a5613c72565b036137bd576137b381613870565b92508291506137f1565b60048460048111156137d1576137d1613c72565b036137f1576018546137eb906137e683613870565b613996565b92508291505b50915091565b5f9081526001919091016020526040902054151590565b5f610ebb83836139a5565b5f610ebb83836131c9565b5f6109ac825490565b5f610ebb83836139b0565b5f610ebb838361362a565b5f805f1983850993909202808410938190039390930393915050565b634e487b715f52806020526024601cfd5b5f5f60085f9054906101000a90046001600160a01b03166001600160a01b031663f3cc69936040518163ffffffff1660e01b8152600401602060405180830381865afa1580156138c2573d5f5f3e3d5ffd5b505050506040513d601f19601f820116820180604052508101906138e691906140e1565b61ffff1690505f61397b60095f9054906101000a90046001600160a01b03166001600160a01b0316634ff0876a6040518163ffffffff1660e01b8152600401602060405180830381865afa158015613940573d5f5f3e3d5ffd5b505050506040513d601f19601f820116820180604052508101906139649190614397565b839063ffffffff908116906301e133809061351d16565b905061147761398c826127106140bb565b859061271061351d565b5f828218828411028218610ebb565b5f610ebb83836137f7565b5f825f0182815481106139c5576139c5613e93565b905f5260205f200154905092915050565b5f5f602083850312156139e7575f5ffd5b82356001600160401b038111156139fc575f5ffd5b8301601f81018513613a0c575f5ffd5b80356001600160401b03811115613a21575f5ffd5b8560208260051b8401011115613a35575f5ffd5b6020919091019590945092505050565b602081525f82518060208401528060208501604085015e5f604082850101526040601f19601f83011684010191505092915050565b5f60208284031215613a8a575f5ffd5b5035919050565b6001600160a01b0381168114610d50575f5ffd5b5f5f60408385031215613ab6575f5ffd5b8235613ac181613a91565b946020939093013593505050565b5f60208284031215613adf575f5ffd5b8135610ebb81613a91565b5f5f60408385031215613afb575f5ffd5b50508035926020909101359150565b6001600160a01b0391909116815260200190565b5f5f5f60608486031215613b30575f5ffd5b8335613b3b81613a91565b92506020840135613b4b81613a91565b929592945050506040919091013590565b60ff81168114610d50575f5ffd5b61ffff81168114610d50575f5ffd5b5f5f5f60608486031215613b8b575f5ffd5b8335613b9681613b5c565b92506020840135613ba681613b6a565b91506040840135613bb681613b6a565b809150509250925092565b5f8151808452602084019350602083015f5b82811015613bfa5781516001600160a01b0316865260209586019590910190600101613bd3565b5093949350505050565b602081525f610ebb6020830184613bc1565b5f5f60408385031215613c27575f5ffd5b823591506020830135613c3981613a91565b809150509250929050565b5f5f5f60608486031215613c56575f5ffd5b8335925060208401359150604084013560048110613bb6575f5ffd5b634e487b7160e01b5f52602160045260245ffd5b6080810160058610613ca657634e487b7160e01b5f52602160045260245ffd5b94815261ffff93841660208201529190921660408201526060015290565b5f5f83601f840112613cd4575f5ffd5b5081356001600160401b03811115613cea575f5ffd5b6020830191508360208260061b8501011115612a4d575f5ffd5b5f5f5f60408486031215613d16575f5ffd5b83356001600160401b03811115613d2b575f5ffd5b613d3786828701613cc4565b909790965060209590950135949350505050565b5f5f60208385031215613d5c575f5ffd5b82356001600160401b03811115613d71575f5ffd5b613d7d85828601613cc4565b90969095509350505050565b5f5f5f60608486031215613d9b575f5ffd5b833592506020840135613dad81613a91565b91506040840135613bb681613a91565b604081525f613dcf6040830185613bc1565b82810360208401528084518083526020830191506020860192505f5b81811015613e0f57835163ffffffff16835260209384019390920191600101613deb565b50909695505050505050565b604081525f613e2d6040830185613bc1565b82810360208401528084518083526020830191506020860192505f5b81811015613e0f578351835260209384019390920191600101613e49565b5f5f60408385031215613e78575f5ffd5b8235613e8381613a91565b91506020830135613c3981613a91565b634e487b7160e01b5f52603260045260245ffd5b5f60208284031215613eb7575f5ffd5b81518015158114610ebb575f5ffd5b602080825281018290525f8360408301825b85811015613f08578235613eeb81613a91565b6001600160a01b0316825260209283019290910190600101613ed8565b5095945050505050565b600181811c90821680613f2657607f821691505b602082108103613f4457634e487b7160e01b5f52602260045260245ffd5b50919050565b634e487b7160e01b5f52604160045260245ffd5b604080519081016001600160401b0381118282101715613f8057613f80613f4a565b60405290565b604051601f8201601f191681016001600160401b0381118282101715613fae57613fae613f4a565b604052919050565b5f6001600160401b03821115613fce57613fce613f4a565b5060051b60200190565b5f60208284031215613fe8575f5ffd5b81516001600160401b03811115613ffd575f5ffd5b8201601f8101841361400d575f5ffd5b805161402061401b82613fb6565b613f86565b8082825260208201915060208360051b850101925086831115614041575f5ffd5b6020840193505b8284101561313257835161405b81613a91565b825260209384019390910190614048565b5f6020828403121561407c575f5ffd5b5051919050565b6001600160a01b039384168152919092166020820152604081019190915260600190565b634e487b7160e01b5f52601160045260245ffd5b808201808211156109ac576109ac6140a7565b818103818111156109ac576109ac6140a7565b5f602082840312156140f1575f5ffd5b8151610ebb81613b6a565b6001600160a01b03929092168252602082015260400190565b6001815b600184111561415057808504811115614134576141346140a7565b600184161561414257908102905b60019390931c928002614119565b935093915050565b5f82614166575060016109ac565b8161417257505f6109ac565b81600181146141885760028114614192576141ae565b60019150506109ac565b60ff8411156141a3576141a36140a7565b50506001821b6109ac565b5060208310610133831016604e8410600b84101617156141d1575081810a6109ac565b6141dd5f198484614115565b805f19048211156141f0576141f06140a7565b029392505050565b5f610ebb60ff841683614158565b63ffffffff81168114610d50575f5ffd5b5f60208284031215614227575f5ffd5b8135610ebb81614206565b5f60208284031215614242575f5ffd5b8151610ebb81613a91565b5f6020828403121561425d575f5ffd5b8151610ebb81613b5c565b6001600160a01b039390931683526020830191909152604082015260600190565b60ff82811682821603908111156109ac576109ac6140a7565b634e487b7160e01b5f52601260045260245ffd5b5f602082840312156142c6575f5ffd5b81516001600160401b038111156142db575f5ffd5b8201601f810184136142eb575f5ffd5b80516142f961401b82613fb6565b8082825260208201915060208360061b85010192508683111561431a575f5ffd5b6020840193505b828410156131325760408488031215614338575f5ffd5b614340613f5e565b845161434b81613a91565b8152602085015161435b81614206565b8060208301525080835250602082019150604084019350614321565b5f61ffff821661ffff810361438e5761438e6140a7565b60010192915050565b5f602082840312156143a7575f5ffd5b8151610ebb81614206565b5f60ff8316806143d057634e487b7160e01b5f52601260045260245ffd5b8060ff84160691505092915050565b634e487b7160e01b5f52603160045260245ffdfea2646970667358221220274b6ad3f7bd8b11be5c09cc8a013599e7d8440503d1e0c548b5fc4bee19377e64736f6c634300081c0033",
  "linkReferences": {},
  "deployedLinkReferences": {}
}