{
  "_format": "hh-sol-artifact-1",
  "contractName": "OrionTransparentVault",
  "sourceName": "contracts/vaults/OrionTransparentVault.sol",
  "abi": [
    {
      "inputs": [
        {
          "internalType": "address",
          "name": "vaultOwner",
          "type": "address"
        },
        {
          "internalType": "address",
          "name": "curator",
          "type": "address"
        },
        {
          "internalType": "contract IOrionConfig",
          "name": "configAddress",
          "type": "address"
        },
        {
          "internalType": "string",
          "name": "name",
          "type": "string"
        },
        {
          "internalType": "string",
          "name": "symbol",
          "type": "string"
        }
      ],
      "stateMutability": "nonpayable",
      "type": "constructor"
    },
    {
      "inputs": [],
      "name": "AlreadyRegistered",
      "type": "error"
    },
    {
      "inputs": [
        {
          "internalType": "address",
          "name": "asset",
          "type": "address"
        }
      ],
      "name": "AmountMustBeGreaterThanZero",
      "type": "error"
    },
    {
      "inputs": [
        {
          "internalType": "address",
          "name": "spender",
          "type": "address"
        },
        {
          "internalType": "uint256",
          "name": "allowance",
          "type": "uint256"
        },
        {
          "internalType": "uint256",
          "name": "needed",
          "type": "uint256"
        }
      ],
      "name": "ERC20InsufficientAllowance",
      "type": "error"
    },
    {
      "inputs": [
        {
          "internalType": "address",
          "name": "sender",
          "type": "address"
        },
        {
          "internalType": "uint256",
          "name": "balance",
          "type": "uint256"
        },
        {
          "internalType": "uint256",
          "name": "needed",
          "type": "uint256"
        }
      ],
      "name": "ERC20InsufficientBalance",
      "type": "error"
    },
    {
      "inputs": [
        {
          "internalType": "address",
          "name": "approver",
          "type": "address"
        }
      ],
      "name": "ERC20InvalidApprover",
      "type": "error"
    },
    {
      "inputs": [
        {
          "internalType": "address",
          "name": "receiver",
          "type": "address"
        }
      ],
      "name": "ERC20InvalidReceiver",
      "type": "error"
    },
    {
      "inputs": [
        {
          "internalType": "address",
          "name": "sender",
          "type": "address"
        }
      ],
      "name": "ERC20InvalidSender",
      "type": "error"
    },
    {
      "inputs": [
        {
          "internalType": "address",
          "name": "spender",
          "type": "address"
        }
      ],
      "name": "ERC20InvalidSpender",
      "type": "error"
    },
    {
      "inputs": [
        {
          "internalType": "address",
          "name": "receiver",
          "type": "address"
        },
        {
          "internalType": "uint256",
          "name": "assets",
          "type": "uint256"
        },
        {
          "internalType": "uint256",
          "name": "max",
          "type": "uint256"
        }
      ],
      "name": "ERC4626ExceededMaxDeposit",
      "type": "error"
    },
    {
      "inputs": [
        {
          "internalType": "address",
          "name": "receiver",
          "type": "address"
        },
        {
          "internalType": "uint256",
          "name": "shares",
          "type": "uint256"
        },
        {
          "internalType": "uint256",
          "name": "max",
          "type": "uint256"
        }
      ],
      "name": "ERC4626ExceededMaxMint",
      "type": "error"
    },
    {
      "inputs": [
        {
          "internalType": "address",
          "name": "owner",
          "type": "address"
        },
        {
          "internalType": "uint256",
          "name": "shares",
          "type": "uint256"
        },
        {
          "internalType": "uint256",
          "name": "max",
          "type": "uint256"
        }
      ],
      "name": "ERC4626ExceededMaxRedeem",
      "type": "error"
    },
    {
      "inputs": [
        {
          "internalType": "address",
          "name": "owner",
          "type": "address"
        },
        {
          "internalType": "uint256",
          "name": "assets",
          "type": "uint256"
        },
        {
          "internalType": "uint256",
          "name": "max",
          "type": "uint256"
        }
      ],
      "name": "ERC4626ExceededMaxWithdraw",
      "type": "error"
    },
    {
      "inputs": [
        {
          "internalType": "address",
          "name": "sender",
          "type": "address"
        },
        {
          "internalType": "uint256",
          "name": "balance",
          "type": "uint256"
        },
        {
          "internalType": "uint256",
          "name": "amount",
          "type": "uint256"
        }
      ],
      "name": "InsufficientFunds",
      "type": "error"
    },
    {
      "inputs": [],
      "name": "InvalidAddress",
      "type": "error"
    },
    {
      "inputs": [],
      "name": "InvalidArguments",
      "type": "error"
    },
    {
      "inputs": [],
      "name": "InvalidTotalWeight",
      "type": "error"
    },
    {
      "inputs": [],
      "name": "InvalidUnderlyingDecimals",
      "type": "error"
    },
    {
      "inputs": [],
      "name": "NotEnoughDepositRequest",
      "type": "error"
    },
    {
      "inputs": [],
      "name": "NotEnoughWithdrawRequest",
      "type": "error"
    },
    {
      "inputs": [],
      "name": "OrderIntentCannotBeEmpty",
      "type": "error"
    },
    {
      "inputs": [],
      "name": "ReentrancyGuardReentrantCall",
      "type": "error"
    },
    {
      "inputs": [],
      "name": "SynchronousCallDisabled",
      "type": "error"
    },
    {
      "inputs": [
        {
          "internalType": "address",
          "name": "token",
          "type": "address"
        }
      ],
      "name": "TokenAlreadyInOrder",
      "type": "error"
    },
    {
      "inputs": [
        {
          "internalType": "address",
          "name": "token",
          "type": "address"
        }
      ],
      "name": "TokenNotWhitelisted",
      "type": "error"
    },
    {
      "inputs": [],
      "name": "TransferFailed",
      "type": "error"
    },
    {
      "inputs": [],
      "name": "UnauthorizedAccess",
      "type": "error"
    },
    {
      "anonymous": false,
      "inputs": [
        {
          "indexed": true,
          "internalType": "address",
          "name": "owner",
          "type": "address"
        },
        {
          "indexed": true,
          "internalType": "address",
          "name": "spender",
          "type": "address"
        },
        {
          "indexed": false,
          "internalType": "uint256",
          "name": "value",
          "type": "uint256"
        }
      ],
      "name": "Approval",
      "type": "event"
    },
    {
      "anonymous": false,
      "inputs": [
        {
          "indexed": true,
          "internalType": "address",
          "name": "sender",
          "type": "address"
        },
        {
          "indexed": true,
          "internalType": "address",
          "name": "owner",
          "type": "address"
        },
        {
          "indexed": false,
          "internalType": "uint256",
          "name": "assets",
          "type": "uint256"
        },
        {
          "indexed": false,
          "internalType": "uint256",
          "name": "shares",
          "type": "uint256"
        }
      ],
      "name": "Deposit",
      "type": "event"
    },
    {
      "anonymous": false,
      "inputs": [
        {
          "indexed": true,
          "internalType": "address",
          "name": "user",
          "type": "address"
        },
        {
          "indexed": false,
          "internalType": "uint256",
          "name": "amount",
          "type": "uint256"
        }
      ],
      "name": "DepositProcessed",
      "type": "event"
    },
    {
      "anonymous": false,
      "inputs": [
        {
          "indexed": true,
          "internalType": "address",
          "name": "user",
          "type": "address"
        },
        {
          "indexed": false,
          "internalType": "uint256",
          "name": "amount",
          "type": "uint256"
        }
      ],
      "name": "DepositRequestCancelled",
      "type": "event"
    },
    {
      "anonymous": false,
      "inputs": [
        {
          "indexed": true,
          "internalType": "address",
          "name": "user",
          "type": "address"
        },
        {
          "indexed": false,
          "internalType": "uint256",
          "name": "amount",
          "type": "uint256"
        }
      ],
      "name": "DepositRequested",
      "type": "event"
    },
    {
      "anonymous": false,
      "inputs": [
        {
          "indexed": false,
          "internalType": "uint8",
          "name": "mode",
          "type": "uint8"
        },
        {
          "indexed": false,
          "internalType": "uint16",
          "name": "performanceFee",
          "type": "uint16"
        },
        {
          "indexed": false,
          "internalType": "uint16",
          "name": "managementFee",
          "type": "uint16"
        }
      ],
      "name": "FeeModelUpdated",
      "type": "event"
    },
    {
      "anonymous": false,
      "inputs": [
        {
          "indexed": true,
          "internalType": "address",
          "name": "curator",
          "type": "address"
        }
      ],
      "name": "OrderSubmitted",
      "type": "event"
    },
    {
      "anonymous": false,
      "inputs": [
        {
          "indexed": true,
          "internalType": "address",
          "name": "from",
          "type": "address"
        },
        {
          "indexed": true,
          "internalType": "address",
          "name": "to",
          "type": "address"
        },
        {
          "indexed": false,
          "internalType": "uint256",
          "name": "value",
          "type": "uint256"
        }
      ],
      "name": "Transfer",
      "type": "event"
    },
    {
      "anonymous": false,
      "inputs": [
        {
          "indexed": false,
          "internalType": "uint256",
          "name": "newTotalAssets",
          "type": "uint256"
        }
      ],
      "name": "VaultStateUpdated",
      "type": "event"
    },
    {
      "anonymous": false,
      "inputs": [
        {
          "indexed": true,
          "internalType": "address",
          "name": "sender",
          "type": "address"
        },
        {
          "indexed": true,
          "internalType": "address",
          "name": "receiver",
          "type": "address"
        },
        {
          "indexed": true,
          "internalType": "address",
          "name": "owner",
          "type": "address"
        },
        {
          "indexed": false,
          "internalType": "uint256",
          "name": "assets",
          "type": "uint256"
        },
        {
          "indexed": false,
          "internalType": "uint256",
          "name": "shares",
          "type": "uint256"
        }
      ],
      "name": "Withdraw",
      "type": "event"
    },
    {
      "anonymous": false,
      "inputs": [
        {
          "indexed": true,
          "internalType": "address",
          "name": "user",
          "type": "address"
        },
        {
          "indexed": false,
          "internalType": "uint256",
          "name": "shares",
          "type": "uint256"
        }
      ],
      "name": "WithdrawProcessed",
      "type": "event"
    },
    {
      "anonymous": false,
      "inputs": [
        {
          "indexed": true,
          "internalType": "address",
          "name": "user",
          "type": "address"
        },
        {
          "indexed": false,
          "internalType": "uint256",
          "name": "shares",
          "type": "uint256"
        }
      ],
      "name": "WithdrawRequestCancelled",
      "type": "event"
    },
    {
      "anonymous": false,
      "inputs": [
        {
          "indexed": true,
          "internalType": "address",
          "name": "user",
          "type": "address"
        },
        {
          "indexed": false,
          "internalType": "uint256",
          "name": "shares",
          "type": "uint256"
        }
      ],
      "name": "WithdrawRequested",
      "type": "event"
    },
    {
      "inputs": [],
      "name": "CURATOR_FEE_FACTOR",
      "outputs": [
        {
          "internalType": "uint16",
          "name": "",
          "type": "uint16"
        }
      ],
      "stateMutability": "view",
      "type": "function"
    },
    {
      "inputs": [],
      "name": "MAX_MANAGEMENT_FEE",
      "outputs": [
        {
          "internalType": "uint16",
          "name": "",
          "type": "uint16"
        }
      ],
      "stateMutability": "view",
      "type": "function"
    },
    {
      "inputs": [],
      "name": "MAX_PERFORMANCE_FEE",
      "outputs": [
        {
          "internalType": "uint16",
          "name": "",
          "type": "uint16"
        }
      ],
      "stateMutability": "view",
      "type": "function"
    },
    {
      "inputs": [],
      "name": "SHARE_DECIMALS",
      "outputs": [
        {
          "internalType": "uint8",
          "name": "",
          "type": "uint8"
        }
      ],
      "stateMutability": "view",
      "type": "function"
    },
    {
      "inputs": [],
      "name": "YEAR_IN_SECONDS",
      "outputs": [
        {
          "internalType": "uint32",
          "name": "",
          "type": "uint32"
        }
      ],
      "stateMutability": "view",
      "type": "function"
    },
    {
      "inputs": [
        {
          "internalType": "address",
          "name": "owner",
          "type": "address"
        },
        {
          "internalType": "address",
          "name": "spender",
          "type": "address"
        }
      ],
      "name": "allowance",
      "outputs": [
        {
          "internalType": "uint256",
          "name": "",
          "type": "uint256"
        }
      ],
      "stateMutability": "view",
      "type": "function"
    },
    {
      "inputs": [
        {
          "internalType": "address",
          "name": "spender",
          "type": "address"
        },
        {
          "internalType": "uint256",
          "name": "value",
          "type": "uint256"
        }
      ],
      "name": "approve",
      "outputs": [
        {
          "internalType": "bool",
          "name": "",
          "type": "bool"
        }
      ],
      "stateMutability": "nonpayable",
      "type": "function"
    },
    {
      "inputs": [],
      "name": "asset",
      "outputs": [
        {
          "internalType": "address",
          "name": "",
          "type": "address"
        }
      ],
      "stateMutability": "view",
      "type": "function"
    },
    {
      "inputs": [
        {
          "internalType": "address",
          "name": "account",
          "type": "address"
        }
      ],
      "name": "balanceOf",
      "outputs": [
        {
          "internalType": "uint256",
          "name": "",
          "type": "uint256"
        }
      ],
      "stateMutability": "view",
      "type": "function"
    },
    {
      "inputs": [
        {
          "internalType": "uint256",
          "name": "amount",
          "type": "uint256"
        }
      ],
      "name": "cancelDepositRequest",
      "outputs": [],
      "stateMutability": "nonpayable",
      "type": "function"
    },
    {
      "inputs": [
        {
          "internalType": "uint256",
          "name": "shares",
          "type": "uint256"
        }
      ],
      "name": "cancelWithdrawRequest",
      "outputs": [],
      "stateMutability": "nonpayable",
      "type": "function"
    },
    {
      "inputs": [],
      "name": "config",
      "outputs": [
        {
          "internalType": "contract IOrionConfig",
          "name": "",
          "type": "address"
        }
      ],
      "stateMutability": "view",
      "type": "function"
    },
    {
      "inputs": [
        {
          "internalType": "uint256",
          "name": "shares",
          "type": "uint256"
        }
      ],
      "name": "convertToAssets",
      "outputs": [
        {
          "internalType": "uint256",
          "name": "",
          "type": "uint256"
        }
      ],
      "stateMutability": "view",
      "type": "function"
    },
    {
      "inputs": [
        {
          "internalType": "uint256",
          "name": "shares",
          "type": "uint256"
        },
        {
          "internalType": "uint256",
          "name": "pointInTimeTotalAssets",
          "type": "uint256"
        },
        {
          "internalType": "enum Math.Rounding",
          "name": "rounding",
          "type": "uint8"
        }
      ],
      "name": "convertToAssetsWithPITTotalAssets",
      "outputs": [
        {
          "internalType": "uint256",
          "name": "",
          "type": "uint256"
        }
      ],
      "stateMutability": "view",
      "type": "function"
    },
    {
      "inputs": [
        {
          "internalType": "uint256",
          "name": "assets",
          "type": "uint256"
        }
      ],
      "name": "convertToShares",
      "outputs": [
        {
          "internalType": "uint256",
          "name": "",
          "type": "uint256"
        }
      ],
      "stateMutability": "view",
      "type": "function"
    },
    {
      "inputs": [],
      "name": "curator",
      "outputs": [
        {
          "internalType": "address",
          "name": "",
          "type": "address"
        }
      ],
      "stateMutability": "view",
      "type": "function"
    },
    {
      "inputs": [
        {
          "internalType": "uint256",
          "name": "activeTotalAssets",
          "type": "uint256"
        }
      ],
      "name": "curatorFee",
      "outputs": [
        {
          "internalType": "uint256",
          "name": "",
          "type": "uint256"
        }
      ],
      "stateMutability": "view",
      "type": "function"
    },
    {
      "inputs": [],
      "name": "decimals",
      "outputs": [
        {
          "internalType": "uint8",
          "name": "",
          "type": "uint8"
        }
      ],
      "stateMutability": "view",
      "type": "function"
    },
    {
      "inputs": [
        {
          "internalType": "uint256",
          "name": "",
          "type": "uint256"
        },
        {
          "internalType": "address",
          "name": "",
          "type": "address"
        }
      ],
      "name": "deposit",
      "outputs": [
        {
          "internalType": "uint256",
          "name": "",
          "type": "uint256"
        }
      ],
      "stateMutability": "pure",
      "type": "function"
    },
    {
      "inputs": [],
      "name": "feeModel",
      "outputs": [
        {
          "internalType": "enum OrionVault.CalcMode",
          "name": "mode",
          "type": "uint8"
        },
        {
          "internalType": "uint16",
          "name": "performanceFee",
          "type": "uint16"
        },
        {
          "internalType": "uint16",
          "name": "managementFee",
          "type": "uint16"
        },
        {
          "internalType": "uint256",
          "name": "highWaterMark",
          "type": "uint256"
        }
      ],
      "stateMutability": "view",
      "type": "function"
    },
    {
      "inputs": [],
      "name": "getIntent",
      "outputs": [
        {
          "internalType": "address[]",
          "name": "tokens",
          "type": "address[]"
        },
        {
          "internalType": "uint32[]",
          "name": "weights",
          "type": "uint32[]"
        }
      ],
      "stateMutability": "view",
      "type": "function"
    },
    {
      "inputs": [],
      "name": "getPendingDeposits",
      "outputs": [
        {
          "internalType": "uint256",
          "name": "",
          "type": "uint256"
        }
      ],
      "stateMutability": "view",
      "type": "function"
    },
    {
      "inputs": [],
      "name": "getPendingWithdrawals",
      "outputs": [
        {
          "internalType": "uint256",
          "name": "",
          "type": "uint256"
        }
      ],
      "stateMutability": "view",
      "type": "function"
    },
    {
      "inputs": [],
      "name": "getPortfolio",
      "outputs": [
        {
          "internalType": "address[]",
          "name": "tokens",
          "type": "address[]"
        },
        {
          "internalType": "uint256[]",
          "name": "sharesPerAsset",
          "type": "uint256[]"
        }
      ],
      "stateMutability": "view",
      "type": "function"
    },
    {
      "inputs": [],
      "name": "internalStatesOrchestrator",
      "outputs": [
        {
          "internalType": "contract IInternalStateOrchestrator",
          "name": "",
          "type": "address"
        }
      ],
      "stateMutability": "view",
      "type": "function"
    },
    {
      "inputs": [
        {
          "internalType": "address",
          "name": "",
          "type": "address"
        }
      ],
      "name": "maxDeposit",
      "outputs": [
        {
          "internalType": "uint256",
          "name": "",
          "type": "uint256"
        }
      ],
      "stateMutability": "view",
      "type": "function"
    },
    {
      "inputs": [
        {
          "internalType": "address",
          "name": "",
          "type": "address"
        }
      ],
      "name": "maxMint",
      "outputs": [
        {
          "internalType": "uint256",
          "name": "",
          "type": "uint256"
        }
      ],
      "stateMutability": "view",
      "type": "function"
    },
    {
      "inputs": [
        {
          "internalType": "address",
          "name": "owner",
          "type": "address"
        }
      ],
      "name": "maxRedeem",
      "outputs": [
        {
          "internalType": "uint256",
          "name": "",
          "type": "uint256"
        }
      ],
      "stateMutability": "view",
      "type": "function"
    },
    {
      "inputs": [
        {
          "internalType": "address",
          "name": "owner",
          "type": "address"
        }
      ],
      "name": "maxWithdraw",
      "outputs": [
        {
          "internalType": "uint256",
          "name": "",
          "type": "uint256"
        }
      ],
      "stateMutability": "view",
      "type": "function"
    },
    {
      "inputs": [
        {
          "internalType": "uint256",
          "name": "",
          "type": "uint256"
        },
        {
          "internalType": "address",
          "name": "",
          "type": "address"
        }
      ],
      "name": "mint",
      "outputs": [
        {
          "internalType": "uint256",
          "name": "",
          "type": "uint256"
        }
      ],
      "stateMutability": "pure",
      "type": "function"
    },
    {
      "inputs": [],
      "name": "name",
      "outputs": [
        {
          "internalType": "string",
          "name": "",
          "type": "string"
        }
      ],
      "stateMutability": "view",
      "type": "function"
    },
    {
      "inputs": [
        {
          "internalType": "uint256",
          "name": "assets",
          "type": "uint256"
        }
      ],
      "name": "previewDeposit",
      "outputs": [
        {
          "internalType": "uint256",
          "name": "",
          "type": "uint256"
        }
      ],
      "stateMutability": "view",
      "type": "function"
    },
    {
      "inputs": [
        {
          "internalType": "uint256",
          "name": "shares",
          "type": "uint256"
        }
      ],
      "name": "previewMint",
      "outputs": [
        {
          "internalType": "uint256",
          "name": "",
          "type": "uint256"
        }
      ],
      "stateMutability": "view",
      "type": "function"
    },
    {
      "inputs": [
        {
          "internalType": "uint256",
          "name": "shares",
          "type": "uint256"
        }
      ],
      "name": "previewRedeem",
      "outputs": [
        {
          "internalType": "uint256",
          "name": "",
          "type": "uint256"
        }
      ],
      "stateMutability": "view",
      "type": "function"
    },
    {
      "inputs": [
        {
          "internalType": "uint256",
          "name": "assets",
          "type": "uint256"
        }
      ],
      "name": "previewWithdraw",
      "outputs": [
        {
          "internalType": "uint256",
          "name": "",
          "type": "uint256"
        }
      ],
      "stateMutability": "view",
      "type": "function"
    },
    {
      "inputs": [],
      "name": "processDepositRequests",
      "outputs": [],
      "stateMutability": "nonpayable",
      "type": "function"
    },
    {
      "inputs": [],
      "name": "processWithdrawRequests",
      "outputs": [],
      "stateMutability": "nonpayable",
      "type": "function"
    },
    {
      "inputs": [
        {
          "internalType": "uint256",
          "name": "",
          "type": "uint256"
        },
        {
          "internalType": "address",
          "name": "",
          "type": "address"
        },
        {
          "internalType": "address",
          "name": "",
          "type": "address"
        }
      ],
      "name": "redeem",
      "outputs": [
        {
          "internalType": "uint256",
          "name": "",
          "type": "uint256"
        }
      ],
      "stateMutability": "pure",
      "type": "function"
    },
    {
      "inputs": [
        {
          "internalType": "uint256",
          "name": "amount",
          "type": "uint256"
        }
      ],
      "name": "requestDeposit",
      "outputs": [],
      "stateMutability": "nonpayable",
      "type": "function"
    },
    {
      "inputs": [
        {
          "internalType": "uint256",
          "name": "shares",
          "type": "uint256"
        }
      ],
      "name": "requestWithdraw",
      "outputs": [],
      "stateMutability": "nonpayable",
      "type": "function"
    },
    {
      "inputs": [
        {
          "components": [
            {
              "internalType": "address",
              "name": "token",
              "type": "address"
            },
            {
              "internalType": "uint32",
              "name": "value",
              "type": "uint32"
            }
          ],
          "internalType": "struct IOrionTransparentVault.Position[]",
          "name": "intent",
          "type": "tuple[]"
        }
      ],
      "name": "submitIntent",
      "outputs": [],
      "stateMutability": "nonpayable",
      "type": "function"
    },
    {
      "inputs": [],
      "name": "symbol",
      "outputs": [
        {
          "internalType": "string",
          "name": "",
          "type": "string"
        }
      ],
      "stateMutability": "view",
      "type": "function"
    },
    {
      "inputs": [],
      "name": "totalAssets",
      "outputs": [
        {
          "internalType": "uint256",
          "name": "",
          "type": "uint256"
        }
      ],
      "stateMutability": "view",
      "type": "function"
    },
    {
      "inputs": [],
      "name": "totalSupply",
      "outputs": [
        {
          "internalType": "uint256",
          "name": "",
          "type": "uint256"
        }
      ],
      "stateMutability": "view",
      "type": "function"
    },
    {
      "inputs": [
        {
          "internalType": "address",
          "name": "to",
          "type": "address"
        },
        {
          "internalType": "uint256",
          "name": "value",
          "type": "uint256"
        }
      ],
      "name": "transfer",
      "outputs": [
        {
          "internalType": "bool",
          "name": "",
          "type": "bool"
        }
      ],
      "stateMutability": "nonpayable",
      "type": "function"
    },
    {
      "inputs": [
        {
          "internalType": "address",
          "name": "from",
          "type": "address"
        },
        {
          "internalType": "address",
          "name": "to",
          "type": "address"
        },
        {
          "internalType": "uint256",
          "name": "value",
          "type": "uint256"
        }
      ],
      "name": "transferFrom",
      "outputs": [
        {
          "internalType": "bool",
          "name": "",
          "type": "bool"
        }
      ],
      "stateMutability": "nonpayable",
      "type": "function"
    },
    {
      "inputs": [
        {
          "internalType": "address",
          "name": "newCurator",
          "type": "address"
        }
      ],
      "name": "updateCurator",
      "outputs": [],
      "stateMutability": "nonpayable",
      "type": "function"
    },
    {
      "inputs": [
        {
          "internalType": "uint8",
          "name": "mode",
          "type": "uint8"
        },
        {
          "internalType": "uint16",
          "name": "performanceFee",
          "type": "uint16"
        },
        {
          "internalType": "uint16",
          "name": "managementFee",
          "type": "uint16"
        }
      ],
      "name": "updateFeeModel",
      "outputs": [],
      "stateMutability": "nonpayable",
      "type": "function"
    },
    {
      "inputs": [],
      "name": "updateHighWaterMark",
      "outputs": [],
      "stateMutability": "nonpayable",
      "type": "function"
    },
    {
      "inputs": [
        {
          "components": [
            {
              "internalType": "address",
              "name": "token",
              "type": "address"
            },
            {
              "internalType": "uint32",
              "name": "value",
              "type": "uint32"
            }
          ],
          "internalType": "struct IOrionTransparentVault.Position[]",
          "name": "portfolio",
          "type": "tuple[]"
        },
        {
          "internalType": "uint256",
          "name": "newTotalAssets",
          "type": "uint256"
        }
      ],
      "name": "updateVaultState",
      "outputs": [],
      "stateMutability": "nonpayable",
      "type": "function"
    },
    {
      "inputs": [
        {
          "internalType": "address[]",
          "name": "assets",
          "type": "address[]"
        }
      ],
      "name": "updateVaultWhitelist",
      "outputs": [],
      "stateMutability": "nonpayable",
      "type": "function"
    },
    {
      "inputs": [],
      "name": "vaultOwner",
      "outputs": [
        {
          "internalType": "address",
          "name": "",
          "type": "address"
        }
      ],
      "stateMutability": "view",
      "type": "function"
    },
    {
      "inputs": [
        {
          "internalType": "uint256",
          "name": "",
          "type": "uint256"
        },
        {
          "internalType": "address",
          "name": "",
          "type": "address"
        },
        {
          "internalType": "address",
          "name": "",
          "type": "address"
        }
      ],
      "name": "withdraw",
      "outputs": [
        {
          "internalType": "uint256",
          "name": "",
          "type": "uint256"
        }
      ],
      "stateMutability": "pure",
      "type": "function"
    }
  ],
  "bytecode": "0x60c060405234801561000f575f5ffd5b50604051613ffe380380613ffe83398101604081905261002e9161066a565b8484848484826001600160a01b0316637158da7c6040518163ffffffff1660e01b8152600401602060405180830381865afa15801561006f573d5f5f3e3d5ffd5b505050506040513d601f19601f820116820180604052508101906100939190610708565b828260036100a183826107ae565b5060046100ae82826107ae565b5050505f5f6100c28361039060201b60201c565b91509150816100d25760126100d4565b805b60ff1660a05250506001600160a01b039081166080526001600555841661010e5760405163e6c4247b60e01b815260040160405180910390fd5b6001600160a01b0383166101355760405163e6c4247b60e01b815260040160405180910390fd5b600680546001600160a01b038088166001600160a01b0319928316179092556007805487841690831617905560088054928616929091168217905560408051630691d8b960e31b8152905163348ec5c8916004808201926020929091908290030181865afa1580156101a9573d5f5f3e3d5ffd5b505050506040513d601f19601f820116820180604052508101906101cd9190610708565b600980546001600160a01b0319166001600160a01b039283161790555f600c8190556013819055601481905560408051631c56369f60e21b815290519192861691637158da7c916004808201926020929091908290030181865afa158015610237573d5f5f3e3d5ffd5b505050506040513d601f19601f8201168201806040525081019061025b9190610708565b6001600160a01b031663313ce5676040518163ffffffff1660e01b8152600401602060405180830381865afa158015610296573d5f5f3e3d5ffd5b505050506040513d601f19601f820116820180604052508101906102ba9190610868565b9050601260ff821611156102e157604051631c03248960e11b815260040160405180910390fd5b6040805160808101909152805f81525f60208201819052604082015260600161030c6012600a610993565b9052805160158054909190829060ff1916600183600481111561033157610331610888565b021790555060208201518154604084015161ffff90811663010000000264ffff0000001991909316610100021664ffffffff001990911617178155606090910151600190910155610380610466565b5050505050505050505050610a94565b60408051600481526024810182526020810180516001600160e01b031663313ce56760e01b17905290515f918291829182916001600160a01b038716916103d6916109a1565b5f60405180830381855afa9150503d805f811461040e576040519150601f19603f3d011682016040523d82523d5f602084013e610413565b606091505b509150915081801561042757506020815110155b1561045a575f8180602001905181019061044191906109b7565b905060ff8111610458576001969095509350505050565b505b505f9485945092505050565b60085460408051636c366a2760e11b815290515f926001600160a01b03169163d86cd44e91600480830192869291908290030181865afa1580156104ac573d5f5f3e3d5ffd5b505050506040513d5f823e601f3d908101601f191682016040526104d391908101906109ce565b90505f5b8151811015610537575f61050e8383815181106104f6576104f6610a80565b6020026020010151600a61053b60201b90919060201c565b90508061052e57604051630ea075bf60e21b815260040160405180910390fd5b506001016104d7565b5050565b5f61054f836001600160a01b038416610558565b90505b92915050565b5f81815260018301602052604081205461059d57508154600181810184555f848152602080822090930184905584548482528286019093526040902091909155610552565b505f610552565b6001600160a01b03811681146105b8575f5ffd5b50565b634e487b7160e01b5f52604160045260245ffd5b604051601f8201601f191681016001600160401b03811182821017156105f7576105f76105bb565b604052919050565b5f82601f83011261060e575f5ffd5b81516001600160401b03811115610627576106276105bb565b61063a601f8201601f19166020016105cf565b81815284602083860101111561064e575f5ffd5b8160208501602083015e5f918101602001919091529392505050565b5f5f5f5f5f60a0868803121561067e575f5ffd5b8551610689816105a4565b602087015190955061069a816105a4565b60408701519094506106ab816105a4565b60608701519093506001600160401b038111156106c6575f5ffd5b6106d2888289016105ff565b608088015190935090506001600160401b038111156106ef575f5ffd5b6106fb888289016105ff565b9150509295509295909350565b5f60208284031215610718575f5ffd5b8151610723816105a4565b9392505050565b600181811c9082168061073e57607f821691505b60208210810361075c57634e487b7160e01b5f52602260045260245ffd5b50919050565b601f8211156107a957805f5260205f20601f840160051c810160208510156107875750805b601f840160051c820191505b818110156107a6575f8155600101610793565b50505b505050565b81516001600160401b038111156107c7576107c76105bb565b6107db816107d5845461072a565b84610762565b6020601f82116001811461080d575f83156107f65750848201515b5f19600385901b1c1916600184901b1784556107a6565b5f84815260208120601f198516915b8281101561083c578785015182556020948501946001909201910161081c565b508482101561085957868401515f19600387901b60f8161c191681555b50505050600190811b01905550565b5f60208284031215610878575f5ffd5b815160ff81168114610723575f5ffd5b634e487b7160e01b5f52602160045260245ffd5b634e487b7160e01b5f52601160045260245ffd5b6001815b60018411156108eb578085048111156108cf576108cf61089c565b60018416156108dd57908102905b60019390931c9280026108b4565b935093915050565b5f8261090157506001610552565b8161090d57505f610552565b8160018114610923576002811461092d57610949565b6001915050610552565b60ff84111561093e5761093e61089c565b50506001821b610552565b5060208310610133831016604e8410600b841016171561096c575081810a610552565b6109785f1984846108b0565b805f190482111561098b5761098b61089c565b029392505050565b5f61054f60ff8416836108f3565b5f82518060208501845e5f920191825250919050565b5f602082840312156109c7575f5ffd5b5051919050565b5f602082840312156109de575f5ffd5b81516001600160401b038111156109f3575f5ffd5b8201601f81018413610a03575f5ffd5b80516001600160401b03811115610a1c57610a1c6105bb565b8060051b610a2c602082016105cf565b91825260208184018101929081019087841115610a47575f5ffd5b6020850194505b83851015610a755784519250610a63836105a4565b82825260209485019490910190610a4e565b979650505050505050565b634e487b7160e01b5f52603260045260245ffd5b60805160a05161354c610ab25f395f50505f610fda015261354c5ff3fe608060405234801561000f575f5ffd5b5060043610610265575f3560e01c806301e1d1141461026957806303d448541461028057806306fdde031461029557806307a2d13a146102aa578063095ea7b3146102bd5780630a28a477146102e05780630c6a62dd146102f35780630d1e666714610306578063105444941461031957806318160ddd1461032c5780631f52692b1461033457806323b872dd146103545780632dae296714610367578063313ce5671461036f57806333fdc59214610384578063348ec5c81461038c57806338d52e0f1461039f5780633ab6d27c146103a7578063402d267d146103ba5780634cdad506146102aa5780636e553f65146103ce57806370a08231146103e157806373d8057d146103f4578063745400c9146104105780637847ea531461042357806379502c551461044357806394bf804d146103ce57806395d89b411461045657806397ee11441461045e5780639908840c14610494578063a68a52671461049d578063a9059cbb146104b0578063aa9d3a60146104c3578063b1bd7e2e146104cb578063b3d7f6b9146104de578063b460af94146104f1578063b6eba653146104ff578063ba087652146104f1578063bdca916514610515578063c0b568e11461051e578063c37fc8a814610531578063c63d75b6146103ba578063c6e6f59214610539578063cce4705b1461054c578063ce96cb771461055f578063d1699c2614610572578063d3d034581461057a578063d853365f14610590578063d905777e14610598578063dd62ed3e146105ab578063e51a85f6146105be578063e66f53b7146105d1578063ef8b30f714610539575b5f5ffd5b600c545b6040519081526020015b60405180910390f35b61029361028e366004612d33565b6105e4565b005b61029d610714565b6040516102779190612dfd565b61026d6102b8366004612e32565b6107a4565b6102d06102cb366004612e49565b6107b5565b6040519015158152602001610277565b61026d6102ee366004612e32565b6107cc565b610293610301366004612e73565b6107d8565b610293610314366004612e32565b61084c565b610293610327366004612ece565b610aa7565b60025461026d565b600654610347906001600160a01b031681565b6040516102779190612f15565b6102d0610362366004612f29565b610c25565b610293610c4a565b60125b60405160ff9091168152602001610277565b610293610d13565b600954610347906001600160a01b031681565b610347610fd8565b6102936103b5366004612f84565b610ffc565b61026d6103c8366004612e73565b505f1990565b61026d6103dc366004612fcc565b61114a565b61026d6103ef366004612e73565b611164565b6103fd61271081565b60405161ffff9091168152602001610277565b61029361041e366004612e32565b61117e565b61042e6301e1338081565b60405163ffffffff9091168152602001610277565b600854610347906001600160a01b031681565b61029d611340565b6015546016546104849160ff81169161ffff610100830481169263010000009004169084565b604051610277949392919061300e565b6103fd61012c81565b61026d6104ab36600461304c565b61134f565b6102d06104be366004612e49565b61138f565b61029361139c565b6102936104d936600461307a565b6116fe565b61026d6104ec366004612e32565b61199e565b61026d6103dc3660046130b8565b6105076119aa565b60405161027792919061312f565b6103fd610bb881565b61029361052c366004612e32565b611ae4565b60145461026d565b61026d610547366004612e32565b611c86565b61029361055a366004612e32565b611c91565b61026d61056d366004612e73565b611e36565b60135461026d565b610582611e49565b60405161027792919061318d565b610372601281565b61026d6105a6366004612e73565b611f73565b61026d6105b93660046131d9565b611f7d565b61026d6105cc366004612e32565b611fa7565b600754610347906001600160a01b031681565b6006546001600160a01b0316331461060f57604051631a27eac360e11b815260040160405180910390fd5b610619600a611fe0565b5f5b8151811015610710575f82828151811061063757610637613205565b6020908102919091010151600854604051633af32abf60e01b81529192506001600160a01b031690633af32abf90610673908490600401612f15565b602060405180830381865afa15801561068e573d5f5f3e3d5ffd5b505050506040513d601f19601f820116820180604052508101906106b29190613219565b6106da578060405163751dff9760e11b81526004016106d19190612f15565b60405180910390fd5b5f6106e6600a83611fe9565b90508061070657604051630ea075bf60e21b815260040160405180910390fd5b505060010161061b565b5050565b60606003805461072390613238565b80601f016020809104026020016040519081016040528092919081815260200182805461074f90613238565b801561079a5780601f106107715761010080835404028352916020019161079a565b820191905f5260205f20905b81548152906001019060200180831161077d57829003601f168201915b5050505050905090565b5f6107af825f611ffd565b92915050565b5f336107c281858561203e565b5060019392505050565b5f6107af826001612050565b6006546001600160a01b0316331461080357604051631a27eac360e11b815260040160405180910390fd5b6001600160a01b03811661082a5760405163e6c4247b60e01b815260040160405180910390fd5b600780546001600160a01b0319166001600160a01b0392909216919091179055565b610854612082565b805f0361087d57610863610fd8565b604051636b30633560e01b81526004016106d19190612f15565b5f610886610fd8565b6001600160a01b03166370a08231336040518263ffffffff1660e01b81526004016108b19190612f15565b602060405180830381865afa1580156108cc573d5f5f3e3d5ffd5b505050506040513d601f19601f820116820180604052508101906108f09190613270565b90508082111561091957338183604051632e2a182f60e11b81526004016106d193929190613287565b5f610922610fd8565b6001600160a01b03166323b872dd3360085f9054906101000a90046001600160a01b03166001600160a01b0316633a0dad8e6040518163ffffffff1660e01b8152600401602060405180830381865afa158015610981573d5f5f3e3d5ffd5b505050506040513d601f19601f820116820180604052508101906109a591906132a8565b866040518463ffffffff1660e01b81526004016109c4939291906132c3565b6020604051808303815f875af11580156109e0573d5f5f3e3d5ffd5b505050506040513d601f19601f82011682018060405250810190610a049190613219565b905080610a24576040516312171d8360e31b815260040160405180910390fd5b5f610a30600d336120ac565b9150610a4b905033610a4286846132fb565b600d91906120d2565b508360135f828254610a5d91906132fb565b909155505060405184815233907f08d79f77ab5f78e7e780abb1f7ac9e9923340d5bae78f6e83e7999905b248ea29060200160405180910390a2505050610aa46001600555565b50565b60085f9054906101000a90046001600160a01b03166001600160a01b0316633a0dad8e6040518163ffffffff1660e01b8152600401602060405180830381865afa158015610af7573d5f5f3e3d5ffd5b505050506040513d601f19601f82011682018060405250810190610b1b91906132a8565b6001600160a01b0316336001600160a01b031614610b4c57604051631a27eac360e11b815260040160405180910390fd5b610b5660176120e7565b815f5b8161ffff168161ffff161015610be657610bdd85858361ffff16818110610b8257610b82613205565b610b989260206040909202019081019150612e73565b86868461ffff16818110610bae57610bae613205565b9050604002016020016020810190610bc6919061331f565b63ffffffff1660176120d29092919063ffffffff16565b50600101610b59565b50600c8290556040518281527f5e1ff954b5e5257e9ee5d4cb07059e8f5e69b1aaaf9911e5d8d90a6894de9c219060200160405180910390a150505050565b5f33610c328582856120f0565b610c3d858585612141565b60019150505b9392505050565b60085f9054906101000a90046001600160a01b03166001600160a01b0316633a0dad8e6040518163ffffffff1660e01b8152600401602060405180830381865afa158015610c9a573d5f5f3e3d5ffd5b505050506040513d601f19601f82011682018060405250810190610cbe91906132a8565b6001600160a01b0316336001600160a01b031614610cef57604051631a27eac360e11b815260040160405180910390fd5b5f610d0160125b6102b890600a61341d565b601654909150811115610aa457601655565b60085f9054906101000a90046001600160a01b03166001600160a01b0316633a0dad8e6040518163ffffffff1660e01b8152600401602060405180830381865afa158015610d63573d5f5f3e3d5ffd5b505050506040513d601f19601f82011682018060405250810190610d8791906132a8565b6001600160a01b0316336001600160a01b031614610db857604051631a27eac360e11b815260040160405180910390fd5b610dc0612082565b5f610dcb600d61219e565b90505f8163ffffffff166001600160401b03811115610dec57610dec612cfb565b604051908082528060200260200182016040528015610e15578160200160208202803683370190505b5090505f8263ffffffff166001600160401b03811115610e3757610e37612cfb565b604051908082528060200260200182016040528015610e60578160200160208202803683370190505b5090505f5b8363ffffffff168163ffffffff161015610efa575f80610e8f600d63ffffffff808616906121a816565b9150915081858463ffffffff1681518110610eac57610eac613205565b60200260200101906001600160a01b031690816001600160a01b03168152505080848463ffffffff1681518110610ee557610ee5613205565b60209081029190910101525050600101610e65565b505f5b8363ffffffff168163ffffffff161015610fc7575f838263ffffffff1681518110610f2a57610f2a613205565b602002602001015190505f838363ffffffff1681518110610f4d57610f4d613205565b602002602001015190505f610f6182611c86565b9050610f6e600d846121b6565b50610f7983826121ca565b826001600160a01b03167f85a190caa61692b36b63a55e069330d18ab9af179fed7a25c16a4262bc63b7d283604051610fb491815260200190565b60405180910390a2505050600101610efd565b50505f60135550506001600555565b565b7f000000000000000000000000000000000000000000000000000000000000000090565b6006546001600160a01b0316331461102757604051631a27eac360e11b815260040160405180910390fd5b600460ff8416111561104c576040516317dbc4cb60e21b815260040160405180910390fd5b610bb861ffff83161115611073576040516317dbc4cb60e21b815260040160405180910390fd5b61012c61ffff8216111561109a576040516317dbc4cb60e21b815260040160405180910390fd5b8260ff1660048111156110af576110af612ffa565b6015805460ff191660018360048111156110cb576110cb612ffa565b02179055506015805464ffffffff00191661010061ffff85811691820264ffff0000001916929092176301000000928516928302179092556040805160ff8716815260208101939093528201527fd24f39e523bfa412fa391702710dc62e1c82d87a8e83228a37c42be1b4870f459060600160405180910390a1505050565b5f60405163125ad87760e31b815260040160405180910390fd5b6001600160a01b03165f9081526020819052604090205490565b805f036111a05730604051636b30633560e01b81526004016106d19190612f15565b5f6111aa33611164565b9050808211156111d357338183604051632e2a182f60e11b81526004016106d193929190613287565b60085460408051631d06d6c760e11b815290515f9230926323b872dd9233926001600160a01b031691633a0dad8e9160048083019260209291908290030181865afa158015611224573d5f5f3e3d5ffd5b505050506040513d601f19601f8201168201806040525081019061124891906132a8565b866040518463ffffffff1660e01b8152600401611267939291906132c3565b6020604051808303815f875af1158015611283573d5f5f3e3d5ffd5b505050506040513d601f19601f820116820180604052508101906112a79190613219565b9050806112c7576040516312171d8360e31b815260040160405180910390fd5b5f6112d36010336120ac565b91506112ee9050336112e586846132fb565b601091906120d2565b508360145f82825461130091906132fb565b909155505060405184815233907ff7774b688d56120b783560a913ee60792a73dfd511812b7be5eccf10d08c66899060200160405180910390a250505050565b60606004805461072390613238565b5f61138761135e8460016132fb565b6113666121fe565b61137190600a61341d565b60025461137e91906132fb565b8691908561227a565b949350505050565b5f336107c2818585612141565b60085f9054906101000a90046001600160a01b03166001600160a01b0316633a0dad8e6040518163ffffffff1660e01b8152600401602060405180830381865afa1580156113ec573d5f5f3e3d5ffd5b505050506040513d601f19601f8201168201806040525081019061141091906132a8565b6001600160a01b0316336001600160a01b03161461144157604051631a27eac360e11b815260040160405180910390fd5b611449612082565b5f611454601061219e565b90505f8163ffffffff166001600160401b0381111561147557611475612cfb565b60405190808252806020026020018201604052801561149e578160200160208202803683370190505b5090505f8263ffffffff166001600160401b038111156114c0576114c0612cfb565b6040519080825280602002602001820160405280156114e9578160200160208202803683370190505b5090505f5b8363ffffffff168163ffffffff161015611583575f80611518601063ffffffff808616906121a816565b9150915081858463ffffffff168151811061153557611535613205565b60200260200101906001600160a01b031690816001600160a01b03168152505080848463ffffffff168151811061156e5761156e613205565b602090810291909101015250506001016114ee565b505f60148190555b8363ffffffff168163ffffffff1610156116f0575f838263ffffffff16815181106115b8576115b8613205565b602002602001015190505f838363ffffffff16815181106115db576115db613205565b602002602001015190506115f98260106121b690919063ffffffff16565b5061160430826122bc565b5f61160e826107a4565b9050611618610fd8565b6001600160a01b031663a9059cbb84836040518363ffffffff1660e01b815260040161164592919061342b565b6020604051808303815f875af1158015611661573d5f5f3e3d5ffd5b505050506040513d601f19601f820116820180604052508101906116859190613219565b6116a2576040516312171d8360e31b815260040160405180910390fd5b826001600160a01b03167f44b2ff9ffcefe2052a8afdbed44a04bf3db4592ae90c6b96c818bd28573e41e8836040516116dd91815260200190565b60405180910390a250505060010161158b565b50505050610fd66001600555565b6007546001600160a01b0316331461172957604051631a27eac360e11b815260040160405180910390fd5b5f81900361174a57604051631121aa8d60e01b815260040160405180910390fd5b611754601a6120e7565b5f816001600160401b0381111561176d5761176d612cfb565b604051908082528060200260200182016040528015611796578160200160208202803683370190505b5090505f82815b8161ffff168161ffff1610156118c5575f86868361ffff168181106117c4576117c4613205565b6117da9260206040909202019081019150612e73565b90505f87878461ffff168181106117f3576117f3613205565b905060400201602001602081019061180b919061331f565b905081868461ffff168151811061182457611824613205565b60200260200101906001600160a01b031690816001600160a01b0316815250508063ffffffff165f0361186c5781604051636b30633560e01b81526004016106d19190612f15565b5f611882601a8463ffffffff808616906120d216565b9050806118a457826040516346bdabe160e01b81526004016106d19190612f15565b6118b463ffffffff8316876132fb565b9550506001909201915061179d9050565b506118cf836122f0565b60085f9054906101000a90046001600160a01b03166001600160a01b031663d1717c7d6040518163ffffffff1660e01b8152600401602060405180830381865afa15801561191f573d5f5f3e3d5ffd5b505050506040513d601f19601f820116820180604052508101906119439190613444565b61194e90600a61341d565b821461196d57604051639006dd2760e01b815260040160405180910390fd5b60405133907f2d47a742b8d7df7c1fc5a9a631b206b364e6cb2722490759f63bb3ab14b132e0905f90a25050505050565b5f6107af826001611ffd565b6060805f6119b8601a61219e565b90508061ffff166001600160401b038111156119d6576119d6612cfb565b6040519080825280602002602001820160405280156119ff578160200160208202803683370190505b5092508061ffff166001600160401b03811115611a1e57611a1e612cfb565b604051908082528060200260200182016040528015611a47578160200160208202803683370190505b5091505f5b8161ffff168161ffff161015611ade575f80611a6d601a61ffff85166121a8565b9150915081868461ffff1681518110611a8857611a88613205565b60200260200101906001600160a01b031690816001600160a01b03168152505080858461ffff1681518110611abf57611abf613205565b63ffffffff909216602092830291909101909101525050600101611a4c565b50509091565b611aec612082565b805f03611afb57610863610fd8565b5f611b07600d336120ac565b91505081811015611b2b576040516332194fd360e21b815260040160405180910390fd5b60085f9054906101000a90046001600160a01b03166001600160a01b0316633a0dad8e6040518163ffffffff1660e01b8152600401602060405180830381865afa158015611b7b573d5f5f3e3d5ffd5b505050506040513d601f19601f82011682018060405250810190611b9f91906132a8565b6001600160a01b03166351edffb133846040518363ffffffff1660e01b8152600401611bcc92919061342b565b5f604051808303815f87803b158015611be3575f5ffd5b505af1158015611bf5573d5f5f3e3d5ffd5b505050505f8282611c06919061345f565b9050805f03611c2057611c1a600d336121b6565b50611c2e565b611c2c600d33836120d2565b505b8260135f828254611c3f919061345f565b909155505060405183815233907f96a9a6886cdf3047a125454218a23d3961fd3a78643123b248a9d106d0ac94fd906020015b60405180910390a25050610aa46001600555565b5f6107af825f612050565b611c99612082565b805f03611cbb5730604051636b30633560e01b81526004016106d19190612f15565b5f611cc76010336120ac565b91505081811015611ceb576040516312ea1f4960e11b815260040160405180910390fd5b60085f9054906101000a90046001600160a01b03166001600160a01b0316633a0dad8e6040518163ffffffff1660e01b8152600401602060405180830381865afa158015611d3b573d5f5f3e3d5ffd5b505050506040513d601f19601f82011682018060405250810190611d5f91906132a8565b6001600160a01b031663be186b2033846040518363ffffffff1660e01b8152600401611d8c92919061342b565b5f604051808303815f87803b158015611da3575f5ffd5b505af1158015611db5573d5f5f3e3d5ffd5b505050505f8282611dc6919061345f565b9050805f03611de057611dda6010336121b6565b50611dee565b611dec601033836120d2565b505b8260145f828254611dff919061345f565b909155505060405183815233907f9cf37535785001dcc9767688232fcbc8698b3002d1207b50bc2afec3ff8934dc90602001611c72565b5f6107af611e4383611164565b5f611ffd565b6060805f611e57601761219e565b90508061ffff166001600160401b03811115611e7557611e75612cfb565b604051908082528060200260200182016040528015611e9e578160200160208202803683370190505b5092508061ffff166001600160401b03811115611ebd57611ebd612cfb565b604051908082528060200260200182016040528015611ee6578160200160208202803683370190505b5091505f5b8161ffff168161ffff161015611ade575f80611f0c601761ffff85166121a8565b9150915081868461ffff1681518110611f2757611f27613205565b60200260200101906001600160a01b031690816001600160a01b03168152505080858461ffff1681518110611f5e57611f5e613205565b60209081029190910101525050600101611eeb565b5f6107af82611164565b6001600160a01b039182165f90815260016020908152604080832093909416825291909152205490565b5f5f611fb283612368565b90505f611fbf828561345f565b90505f611fcb82612432565b9050611fd781846132fb565b95945050505050565b610aa4816124ee565b5f610c43836001600160a01b038416612547565b5f610c4361200a600c5490565b6120159060016132fb565b61201d6121fe565b61202890600a61341d565b60025461203591906132fb565b8591908561227a565b61204b838383600161258e565b505050565b5f610c4361205c6121fe565b61206790600a61341d565b60025461207491906132fb565b600c546120359060016132fb565b6002600554036120a557604051633ee5aeb560e01b815260040160405180910390fd5b6002600555565b5f8080806120c3866001600160a01b038716612660565b909450925050505b9250929050565b5f611387846001600160a01b03851684612698565b610aa4816126b4565b5f6120fb8484611f7d565b90505f1981101561213b578181101561212d57828183604051637dc7a0d960e11b81526004016106d193929190613287565b61213b84848484035f61258e565b50505050565b6001600160a01b03831661216a575f604051634b637e8f60e11b81526004016106d19190612f15565b6001600160a01b038216612193575f60405163ec442f0560e01b81526004016106d19190612f15565b61204b8383836126fd565b5f6107af82612810565b5f8080806120c3868661281a565b5f610c43836001600160a01b038416612843565b6001600160a01b0382166121f3575f60405163ec442f0560e01b81526004016106d19190612f15565b6107105f83836126fd565b5f5f612208610fd8565b6001600160a01b031663313ce5676040518163ffffffff1660e01b8152600401602060405180830381865afa158015612243573d5f5f3e3d5ffd5b505050506040513d601f19601f820116820180604052508101906122679190613444565b9050612274816012613472565b91505090565b5f6122a76122878361285f565b80156122a257505f848061229d5761229d61348b565b868809115b151590565b6122b286868661288b565b611fd791906132fb565b6001600160a01b0382166122e5575f604051634b637e8f60e11b81526004016106d19190612f15565b610710825f836126fd565b5f5b81518110156107105761232882828151811061231057612310613205565b6020026020010151600a61293b90919063ffffffff16565b6123605781818151811061233e5761233e613205565b602002602001015160405163751dff9760e11b81526004016106d19190612f15565b6001016122f2565b6015545f906301000000900461ffff16810361238557505f919050565b6015545f906123a2906301000000900461ffff168461271061288b565b9050610c4360095f9054906101000a90046001600160a01b03166001600160a01b0316634ff0876a6040518163ffffffff1660e01b8152600401602060405180830381865afa1580156123f7573d5f5f3e3d5ffd5b505050506040513d601f19601f8201168201806040525081019061241b919061349f565b829063ffffffff908116906301e133809061288b16565b6015545f90610100900461ffff16810361244d57505f919050565b5f61249161245c8460016132fb565b6124646121fe565b61246f90600a61341d565b60025461247c91906132fb565b5f6124896012600a61341d565b92919061227a565b6015549091505f9081906124a79060ff1661294f565b915091508183116124bc57505f949350505050565b6015545f906124d590610100900461ffff16858461288b565b90506124e4818761271061288b565b9695505050505050565b5f6124f7825490565b90505f5b8181101561254057826001015f845f01838154811061251c5761251c613205565b905f5260205f20015481526020019081526020015f205f90558060010190506124fb565b50505f9055565b5f6125528383612a39565b61258757508154600181810184555f8481526020808220909301849055845484825282860190935260409020919091556107af565b505f6107af565b6001600160a01b0384166125b7575f60405163e602df0560e01b81526004016106d19190612f15565b6001600160a01b0383166125e0575f604051634a1406b160e11b81526004016106d19190612f15565b6001600160a01b038085165f908152600160209081526040808320938716835292905220829055801561213b57826001600160a01b0316846001600160a01b03167f8c5be1e5ebec7d5bd14f71427d1e84f3dd0314c0f7b2291e5b200ac8c7c3b9258460405161265291815260200190565b60405180910390a350505050565b5f81815260028301602052604081205481908061268d576126818585612a50565b92505f91506120cb9050565b6001925090506120cb565b5f82815260028401602052604081208290556113878484612a5b565b5f6126be82612810565b90505f5b818110156126f357600283015f6126d98584612a66565b815260208101919091526040015f908120556001016126c2565b5061071082611fe0565b6001600160a01b038316612727578060025f82825461271c91906132fb565b909155506127849050565b6001600160a01b0383165f90815260208190526040902054818110156127665783818360405163391434e360e21b81526004016106d193929190613287565b6001600160a01b0384165f9081526020819052604090209082900390555b6001600160a01b0382166127a0576002805482900390556127be565b6001600160a01b0382165f9081526020819052604090208054820190555b816001600160a01b0316836001600160a01b03167fddf252ad1be2c89b69c2b068fc378daa952ba7f163c4a11628f55a4df523b3ef8360405161280391815260200190565b60405180910390a3505050565b5f6107af82612a71565b5f80806128278585612a66565b5f81815260029690960160205260409095205494959350505050565b5f8181526002830160205260408120819055610c438383612a7a565b5f600282600381111561287457612874612ffa565b61287e91906134ba565b60ff166001149050919050565b5f5f5f6128988686612a85565b91509150815f036128bc578381816128b2576128b261348b565b0492505050610c43565b8184116128d3576128d36003851502601118612aa1565b5f848688095f868103871696879004966002600389028118808a02820302808a02820302808a02820302808a02820302808a02820302808a02909103029181900381900460010185841190960395909502919093039390930492909217029150509392505050565b5f610c43836001600160a01b038416612a39565b5f808061295c6012610cf6565b90505f84600481111561297157612971612ffa565b0361298157809250829150612a33565b600384600481111561299557612995612ffa565b036129a7576016549250829150612a33565b60018460048111156129bb576129bb612ffa565b036129d3576129c981612ab2565b9250809150612a33565b60028460048111156129e7576129e7612ffa565b036129ff576129f581612ab2565b9250829150612a33565b6004846004811115612a1357612a13612ffa565b03612a3357601654612a2d90612a2883612ab2565b612bd8565b92508291505b50915091565b5f9081526001919091016020526040902054151590565b5f610c438383612be7565b5f610c438383612547565b5f610c438383612bf2565b5f6107af825490565b5f610c438383612c18565b5f805f1983850993909202808410938190039390930393915050565b634e487b715f52806020526024601cfd5b5f5f60085f9054906101000a90046001600160a01b03166001600160a01b031663f3cc69936040518163ffffffff1660e01b8152600401602060405180830381865afa158015612b04573d5f5f3e3d5ffd5b505050506040513d601f19601f82011682018060405250810190612b2891906134e7565b61ffff1690505f612bbd60095f9054906101000a90046001600160a01b03166001600160a01b0316634ff0876a6040518163ffffffff1660e01b8152600401602060405180830381865afa158015612b82573d5f5f3e3d5ffd5b505050506040513d601f19601f82011682018060405250810190612ba6919061349f565b839063ffffffff908116906301e133809061288b16565b9050611387612bce826127106132fb565b859061271061288b565b5f828218828411028218610c43565b5f610c438383612a39565b5f825f018281548110612c0757612c07613205565b905f5260205f200154905092915050565b5f8181526001830160205260408120548015612cf2575f612c3a60018361345f565b85549091505f90612c4d9060019061345f565b9050808214612cac575f865f018281548110612c6b57612c6b613205565b905f5260205f200154905080875f018481548110612c8b57612c8b613205565b5f918252602080832090910192909255918252600188019052604090208390555b8554869080612cbd57612cbd613502565b600190038181905f5260205f20015f90559055856001015f8681526020019081526020015f205f9055600193505050506107af565b5f9150506107af565b634e487b7160e01b5f52604160045260245ffd5b6001600160a01b0381168114610aa4575f5ffd5b8035612d2e81612d0f565b919050565b5f60208284031215612d43575f5ffd5b81356001600160401b03811115612d58575f5ffd5b8201601f81018413612d68575f5ffd5b80356001600160401b03811115612d8157612d81612cfb565b604051600582901b90603f8201601f191681016001600160401b0381118282101715612daf57612daf612cfb565b604052918252602081840181019290810187841115612dcc575f5ffd5b6020850194505b83851015612df257612de485612d23565b815260209485019401612dd3565b509695505050505050565b602081525f82518060208401528060208501604085015e5f604082850101526040601f19601f83011684010191505092915050565b5f60208284031215612e42575f5ffd5b5035919050565b5f5f60408385031215612e5a575f5ffd5b8235612e6581612d0f565b946020939093013593505050565b5f60208284031215612e83575f5ffd5b8135610c4381612d0f565b5f5f83601f840112612e9e575f5ffd5b5081356001600160401b03811115612eb4575f5ffd5b6020830191508360208260061b85010111156120cb575f5ffd5b5f5f5f60408486031215612ee0575f5ffd5b83356001600160401b03811115612ef5575f5ffd5b612f0186828701612e8e565b909790965060209590950135949350505050565b6001600160a01b0391909116815260200190565b5f5f5f60608486031215612f3b575f5ffd5b8335612f4681612d0f565b92506020840135612f5681612d0f565b929592945050506040919091013590565b60ff81168114610aa4575f5ffd5b61ffff81168114610aa4575f5ffd5b5f5f5f60608486031215612f96575f5ffd5b8335612fa181612f67565b92506020840135612fb181612f75565b91506040840135612fc181612f75565b809150509250925092565b5f5f60408385031215612fdd575f5ffd5b823591506020830135612fef81612d0f565b809150509250929050565b634e487b7160e01b5f52602160045260245ffd5b608081016005861061302e57634e487b7160e01b5f52602160045260245ffd5b94815261ffff93841660208201529190921660408201526060015290565b5f5f5f6060848603121561305e575f5ffd5b8335925060208401359150604084013560048110612fc1575f5ffd5b5f5f6020838503121561308b575f5ffd5b82356001600160401b038111156130a0575f5ffd5b6130ac85828601612e8e565b90969095509350505050565b5f5f5f606084860312156130ca575f5ffd5b8335925060208401356130dc81612d0f565b91506040840135612fc181612d0f565b5f8151808452602084019350602083015f5b828110156131255781516001600160a01b03168652602095860195909101906001016130fe565b5093949350505050565b604081525f61314160408301856130ec565b82810360208401528084518083526020830191506020860192505f5b8181101561318157835163ffffffff1683526020938401939092019160010161315d565b50909695505050505050565b604081525f61319f60408301856130ec565b82810360208401528084518083526020830191506020860192505f5b818110156131815783518352602093840193909201916001016131bb565b5f5f604083850312156131ea575f5ffd5b82356131f581612d0f565b91506020830135612fef81612d0f565b634e487b7160e01b5f52603260045260245ffd5b5f60208284031215613229575f5ffd5b81518015158114610c43575f5ffd5b600181811c9082168061324c57607f821691505b60208210810361326a57634e487b7160e01b5f52602260045260245ffd5b50919050565b5f60208284031215613280575f5ffd5b5051919050565b6001600160a01b039390931683526020830191909152604082015260600190565b5f602082840312156132b8575f5ffd5b8151610c4381612d0f565b6001600160a01b039384168152919092166020820152604081019190915260600190565b634e487b7160e01b5f52601160045260245ffd5b808201808211156107af576107af6132e7565b63ffffffff81168114610aa4575f5ffd5b5f6020828403121561332f575f5ffd5b8135610c438161330e565b6001815b600184111561337557808504811115613359576133596132e7565b600184161561336757908102905b60019390931c92800261333e565b935093915050565b5f8261338b575060016107af565b8161339757505f6107af565b81600181146133ad57600281146133b7576133d3565b60019150506107af565b60ff8411156133c8576133c86132e7565b50506001821b6107af565b5060208310610133831016604e8410600b84101617156133f6575081810a6107af565b6134025f19848461333a565b805f1904821115613415576134156132e7565b029392505050565b5f610c4360ff84168361337d565b6001600160a01b03929092168252602082015260400190565b5f60208284031215613454575f5ffd5b8151610c4381612f67565b818103818111156107af576107af6132e7565b60ff82811682821603908111156107af576107af6132e7565b634e487b7160e01b5f52601260045260245ffd5b5f602082840312156134af575f5ffd5b8151610c438161330e565b5f60ff8316806134d857634e487b7160e01b5f52601260045260245ffd5b8060ff84160691505092915050565b5f602082840312156134f7575f5ffd5b8151610c4381612f75565b634e487b7160e01b5f52603160045260245ffdfea2646970667358221220a1a3164c7b1397be4a5aab44ebe3cfc9c893dd3d9d421774d07eaf1ae647ab5164736f6c634300081c0033",
  "linkReferences": {},
  "deployedLinkReferences": {}
}