{
  "_format": "hh-sol-artifact-1",
  "contractName": "PriceAdapterRegistry",
  "sourceName": "contracts/price/PriceAdapterRegistry.sol",
  "abi": [
    {
      "inputs": [
        {
          "internalType": "address",
          "name": "initialOwner_",
          "type": "address"
        },
        {
          "internalType": "address",
          "name": "configAddress_",
          "type": "address"
        }
      ],
      "stateMutability": "nonpayable",
      "type": "constructor"
    },
    {
      "inputs": [],
      "name": "AdapterNotSet",
      "type": "error"
    },
    {
      "inputs": [],
      "name": "NotAuthorized",
      "type": "error"
    },
    {
      "inputs": [
        {
          "internalType": "address",
          "name": "owner",
          "type": "address"
        }
      ],
      "name": "OwnableInvalidOwner",
      "type": "error"
    },
    {
      "inputs": [
        {
          "internalType": "address",
          "name": "account",
          "type": "address"
        }
      ],
      "name": "OwnableUnauthorizedAccount",
      "type": "error"
    },
    {
      "inputs": [],
      "name": "ZeroAddress",
      "type": "error"
    },
    {
      "anonymous": false,
      "inputs": [
        {
          "indexed": true,
          "internalType": "address",
          "name": "previousOwner",
          "type": "address"
        },
        {
          "indexed": true,
          "internalType": "address",
          "name": "newOwner",
          "type": "address"
        }
      ],
      "name": "OwnershipTransferred",
      "type": "event"
    },
    {
      "anonymous": false,
      "inputs": [
        {
          "indexed": true,
          "internalType": "address",
          "name": "asset",
          "type": "address"
        },
        {
          "indexed": true,
          "internalType": "address",
          "name": "adapter",
          "type": "address"
        }
      ],
      "name": "PriceAdapterSet",
      "type": "event"
    },
    {
      "inputs": [
        {
          "internalType": "address",
          "name": "",
          "type": "address"
        }
      ],
      "name": "adapterOf",
      "outputs": [
        {
          "internalType": "contract IPriceAdapter",
          "name": "",
          "type": "address"
        }
      ],
      "stateMutability": "view",
      "type": "function"
    },
    {
      "inputs": [],
      "name": "configAddress",
      "outputs": [
        {
          "internalType": "address",
          "name": "",
          "type": "address"
        }
      ],
      "stateMutability": "view",
      "type": "function"
    },
    {
      "inputs": [
        {
          "internalType": "address",
          "name": "asset",
          "type": "address"
        }
      ],
      "name": "getPrice",
      "outputs": [
        {
          "internalType": "uint256",
          "name": "",
          "type": "uint256"
        }
      ],
      "stateMutability": "view",
      "type": "function"
    },
    {
      "inputs": [],
      "name": "owner",
      "outputs": [
        {
          "internalType": "address",
          "name": "",
          "type": "address"
        }
      ],
      "stateMutability": "view",
      "type": "function"
    },
    {
      "inputs": [],
      "name": "priceAdapterDecimals",
      "outputs": [
        {
          "internalType": "uint8",
          "name": "",
          "type": "uint8"
        }
      ],
      "stateMutability": "view",
      "type": "function"
    },
    {
      "inputs": [],
      "name": "renounceOwnership",
      "outputs": [],
      "stateMutability": "nonpayable",
      "type": "function"
    },
    {
      "inputs": [
        {
          "internalType": "address",
          "name": "asset",
          "type": "address"
        },
        {
          "internalType": "contract IPriceAdapter",
          "name": "adapter",
          "type": "address"
        }
      ],
      "name": "setPriceAdapter",
      "outputs": [],
      "stateMutability": "nonpayable",
      "type": "function"
    },
    {
      "inputs": [
        {
          "internalType": "address",
          "name": "newOwner",
          "type": "address"
        }
      ],
      "name": "transferOwnership",
      "outputs": [],
      "stateMutability": "nonpayable",
      "type": "function"
    },
    {
      "inputs": [
        {
          "internalType": "address",
          "name": "asset",
          "type": "address"
        }
      ],
      "name": "unsetPriceAdapter",
      "outputs": [],
      "stateMutability": "nonpayable",
      "type": "function"
    },
    {
      "inputs": [],
      "name": "updateFromConfig",
      "outputs": [],
      "stateMutability": "nonpayable",
      "type": "function"
    }
  ],
  "bytecode": "0x608060405234801561000f575f5ffd5b50604051610a63380380610a6383398101604081905261002e9161020f565b816001600160a01b03811661005d57604051631e4fbdf760e01b81525f60048201526024015b60405180910390fd5b610066816100df565b506001600160a01b03821661008e5760405163d92e233d60e01b815260040160405180910390fd5b6001600160a01b0381166100b55760405163d92e233d60e01b815260040160405180910390fd5b600180546001600160a01b0319166001600160a01b0383161790556100d861012e565b5050610267565b5f80546001600160a01b038381166001600160a01b0319831681178455604051919092169283917f8be0079c531659141344cd1fd0a4f28419497f9722a3daafe3b4186f6b6457e09190a35050565b6101366101c6565b60015f9054906101000a90046001600160a01b03166001600160a01b031663567ba7136040518163ffffffff1660e01b8152600401602060405180830381865afa158015610186573d5f5f3e3d5ffd5b505050506040513d601f19601f820116820180604052508101906101aa9190610240565b600160146101000a81548160ff021916908360ff160217905550565b5f546001600160a01b031633146101f25760405163118cdaa760e01b8152336004820152602401610054565b565b80516001600160a01b038116811461020a575f5ffd5b919050565b5f5f60408385031215610220575f5ffd5b610229836101f4565b9150610237602084016101f4565b90509250929050565b5f60208284031215610250575f5ffd5b815160ff81168114610260575f5ffd5b9392505050565b6107ef806102745f395ff3fe608060405234801561000f575f5ffd5b506004361061008c575f3560e01c8063288157e91461009057806341976e091461009a57806343860175146100c05780634e0fdde0146100d3578063567ba713146100e6578063715018a61461010c5780638da5cb5b14610114578063c2b7a3e614610129578063d6c3187114610151578063f2fde38b14610164575b5f5ffd5b610098610177565b005b6100ad6100a8366004610581565b61020f565b6040519081526020015b60405180910390f35b6100986100ce366004610581565b6102dc565b6100986100e136600461059c565b61036d565b6001546100fa90600160a01b900460ff1681565b60405160ff90911681526020016100b7565b610098610416565b61011c610429565b6040516100b791906105d3565b61011c610137366004610581565b60026020525f90815260409020546001600160a01b031681565b60015461011c906001600160a01b031681565b610098610172366004610581565b610437565b61017f61047d565b60015f9054906101000a90046001600160a01b03166001600160a01b031663567ba7136040518163ffffffff1660e01b8152600401602060405180830381865afa1580156101cf573d5f5f3e3d5ffd5b505050506040513d601f19601f820116820180604052508101906101f391906105fc565b600160146101000a81548160ff021916908360ff160217905550565b6001600160a01b038082165f908152600260205260408120549091168061024957604051635048c2af60e11b815260040160405180910390fd5b5f5f826001600160a01b03166372279ba1866040518263ffffffff1660e01b815260040161027791906105d3565b6040805180830381865afa158015610291573d5f5f3e3d5ffd5b505050506040513d601f19601f820116820180604052508101906102b59190610615565b915091506102d38282600160149054906101000a900460ff166104af565b95945050505050565b6001546001600160a01b031633146103075760405163ea8e4eb560e01b815260040160405180910390fd5b6001600160a01b03811661032e5760405163d92e233d60e01b815260040160405180910390fd5b6001600160a01b0381165f8181526002602052604080822080546001600160a01b0319169055519091905f51602061079a5f395f51905f52908390a350565b6001546001600160a01b031633146103985760405163ea8e4eb560e01b815260040160405180910390fd5b6001600160a01b03821615806103b557506001600160a01b038116155b156103d35760405163d92e233d60e01b815260040160405180910390fd5b6001600160a01b038281165f8181526002602052604080822080546001600160a01b0319169486169485179055515f51602061079a5f395f51905f529190a35050565b61041e61047d565b6104275f61051e565b565b5f546001600160a01b031690565b61043f61047d565b6001600160a01b038116610471575f604051631e4fbdf760e01b815260040161046891906105d3565b60405180910390fd5b61047a8161051e565b50565b33610486610429565b6001600160a01b031614610427573360405163118cdaa760e01b815260040161046891906105d3565b5f8160ff168360ff16036104c4575082610517565b8160ff168360ff1610156104f8576104dc8383610653565b6104e790600a610755565b6104f19085610763565b9050610517565b6105028284610653565b61050d90600a610755565b6104f1908561077a565b9392505050565b5f80546001600160a01b038381166001600160a01b0319831681178455604051919092169283917f8be0079c531659141344cd1fd0a4f28419497f9722a3daafe3b4186f6b6457e09190a35050565b6001600160a01b038116811461047a575f5ffd5b5f60208284031215610591575f5ffd5b81356105178161056d565b5f5f604083850312156105ad575f5ffd5b82356105b88161056d565b915060208301356105c88161056d565b809150509250929050565b6001600160a01b0391909116815260200190565b805160ff811681146105f7575f5ffd5b919050565b5f6020828403121561060c575f5ffd5b610517826105e7565b5f5f60408385031215610626575f5ffd5b82519150610636602084016105e7565b90509250929050565b634e487b7160e01b5f52601160045260245ffd5b60ff828116828216039081111561066c5761066c61063f565b92915050565b6001815b60018411156106ad578085048111156106915761069161063f565b600184161561069f57908102905b60019390931c928002610676565b935093915050565b5f826106c35750600161066c565b816106cf57505f61066c565b81600181146106e557600281146106ef5761070b565b600191505061066c565b60ff8411156107005761070061063f565b50506001821b61066c565b5060208310610133831016604e8410600b841016171561072e575081810a61066c565b61073a5f198484610672565b805f190482111561074d5761074d61063f565b029392505050565b5f61051760ff8416836106b5565b808202811582820484141761066c5761066c61063f565b5f8261079457634e487b7160e01b5f52601260045260245ffd5b50049056fe53a93b0b200b6adfbf749bc775b2872ba3ff61fb09c81a53a5d0c4723c169f25a2646970667358221220f95e29fc69dab966af89e812eedd834bbe820e6118ef72c833639f296899720f64736f6c634300081c0033",
  "linkReferences": {},
  "deployedLinkReferences": {}
}