{
  "_format": "hh-sol-artifact-1",
  "contractName": "PriceAdapterRegistry",
  "sourceName": "contracts/price/PriceAdapterRegistry.sol",
  "abi": [
    {
      "inputs": [
        {
          "internalType": "address",
          "name": "initialOwner_",
          "type": "address"
        },
        {
          "internalType": "address",
          "name": "configAddress_",
          "type": "address"
        }
      ],
      "stateMutability": "nonpayable",
      "type": "constructor"
    },
    {
      "inputs": [],
      "name": "AdapterNotSet",
      "type": "error"
    },
    {
      "inputs": [],
      "name": "NotAuthorized",
      "type": "error"
    },
    {
      "inputs": [
        {
          "internalType": "address",
          "name": "owner",
          "type": "address"
        }
      ],
      "name": "OwnableInvalidOwner",
      "type": "error"
    },
    {
      "inputs": [
        {
          "internalType": "address",
          "name": "account",
          "type": "address"
        }
      ],
      "name": "OwnableUnauthorizedAccount",
      "type": "error"
    },
    {
      "inputs": [],
      "name": "ZeroAddress",
      "type": "error"
    },
    {
      "anonymous": false,
      "inputs": [
        {
          "indexed": true,
          "internalType": "address",
          "name": "previousOwner",
          "type": "address"
        },
        {
          "indexed": true,
          "internalType": "address",
          "name": "newOwner",
          "type": "address"
        }
      ],
      "name": "OwnershipTransferStarted",
      "type": "event"
    },
    {
      "anonymous": false,
      "inputs": [
        {
          "indexed": true,
          "internalType": "address",
          "name": "previousOwner",
          "type": "address"
        },
        {
          "indexed": true,
          "internalType": "address",
          "name": "newOwner",
          "type": "address"
        }
      ],
      "name": "OwnershipTransferred",
      "type": "event"
    },
    {
      "anonymous": false,
      "inputs": [
        {
          "indexed": true,
          "internalType": "address",
          "name": "asset",
          "type": "address"
        },
        {
          "indexed": true,
          "internalType": "address",
          "name": "adapter",
          "type": "address"
        }
      ],
      "name": "PriceAdapterSet",
      "type": "event"
    },
    {
      "inputs": [],
      "name": "acceptOwnership",
      "outputs": [],
      "stateMutability": "nonpayable",
      "type": "function"
    },
    {
      "inputs": [
        {
          "internalType": "address",
          "name": "",
          "type": "address"
        }
      ],
      "name": "adapterOf",
      "outputs": [
        {
          "internalType": "contract IPriceAdapter",
          "name": "",
          "type": "address"
        }
      ],
      "stateMutability": "view",
      "type": "function"
    },
    {
      "inputs": [],
      "name": "configAddress",
      "outputs": [
        {
          "internalType": "address",
          "name": "",
          "type": "address"
        }
      ],
      "stateMutability": "view",
      "type": "function"
    },
    {
      "inputs": [
        {
          "internalType": "address",
          "name": "asset",
          "type": "address"
        }
      ],
      "name": "getPrice",
      "outputs": [
        {
          "internalType": "uint256",
          "name": "",
          "type": "uint256"
        }
      ],
      "stateMutability": "view",
      "type": "function"
    },
    {
      "inputs": [],
      "name": "owner",
      "outputs": [
        {
          "internalType": "address",
          "name": "",
          "type": "address"
        }
      ],
      "stateMutability": "view",
      "type": "function"
    },
    {
      "inputs": [],
      "name": "pendingOwner",
      "outputs": [
        {
          "internalType": "address",
          "name": "",
          "type": "address"
        }
      ],
      "stateMutability": "view",
      "type": "function"
    },
    {
      "inputs": [],
      "name": "priceAdapterDecimals",
      "outputs": [
        {
          "internalType": "uint8",
          "name": "",
          "type": "uint8"
        }
      ],
      "stateMutability": "view",
      "type": "function"
    },
    {
      "inputs": [],
      "name": "renounceOwnership",
      "outputs": [],
      "stateMutability": "nonpayable",
      "type": "function"
    },
    {
      "inputs": [
        {
          "internalType": "address",
          "name": "asset",
          "type": "address"
        },
        {
          "internalType": "contract IPriceAdapter",
          "name": "adapter",
          "type": "address"
        }
      ],
      "name": "setPriceAdapter",
      "outputs": [],
      "stateMutability": "nonpayable",
      "type": "function"
    },
    {
      "inputs": [
        {
          "internalType": "address",
          "name": "newOwner",
          "type": "address"
        }
      ],
      "name": "transferOwnership",
      "outputs": [],
      "stateMutability": "nonpayable",
      "type": "function"
    }
  ],
  "bytecode": "0x608060405234801561000f575f5ffd5b5060405161097238038061097283398101604081905261002e916101af565b816001600160a01b03811661005c57604051631e4fbdf760e01b81525f600482015260240160405180910390fd5b61006581610129565b506001600160a01b03811661008d5760405163d92e233d60e01b815260040160405180910390fd5b600280546001600160a01b0319166001600160a01b0383169081179091556040805163567ba71360e01b8152905163567ba713916004808201926020929091908290030181865afa1580156100e4573d5f5f3e3d5ffd5b505050506040513d601f19601f8201168201806040525081019061010891906101e0565b600260146101000a81548160ff021916908360ff1602179055505050610207565b600180546001600160a01b031916905561014281610145565b50565b5f80546001600160a01b038381166001600160a01b0319831681178455604051919092169283917f8be0079c531659141344cd1fd0a4f28419497f9722a3daafe3b4186f6b6457e09190a35050565b80516001600160a01b03811681146101aa575f5ffd5b919050565b5f5f604083850312156101c0575f5ffd5b6101c983610194565b91506101d760208401610194565b90509250929050565b5f602082840312156101f0575f5ffd5b815160ff81168114610200575f5ffd5b9392505050565b61075e806102145f395ff3fe608060405234801561000f575f5ffd5b506004361061008c575f3560e01c806341976e09146100905780634e0fdde0146100b6578063567ba713146100cb578063715018a6146100f157806379ba5097146100f95780638da5cb5b14610101578063c2b7a3e614610116578063d6c318711461013e578063e30c397814610151578063f2fde38b14610159575b5f5ffd5b6100a361009e366004610540565b61016c565b6040519081526020015b60405180910390f35b6100c96100c436600461055b565b610239565b005b6002546100df90600160a01b900460ff1681565b60405160ff90911681526020016100ad565b6100c961034d565b6100c9610360565b6101096103a8565b6040516100ad9190610592565b610109610124366004610540565b60036020525f90815260409020546001600160a01b031681565b600254610109906001600160a01b031681565b6101096103b6565b6100c9610167366004610540565b6103c5565b6001600160a01b038082165f90815260036020526040812054909116806101a657604051635048c2af60e11b815260040160405180910390fd5b5f5f826001600160a01b03166372279ba1866040518263ffffffff1660e01b81526004016101d49190610592565b6040805180830381865afa1580156101ee573d5f5f3e3d5ffd5b505050506040513d601f19601f8201168201806040525081019061021291906105a6565b915091506102308282600260149054906101000a900460ff1661042b565b95945050505050565b6002546001600160a01b031633146102645760405163ea8e4eb560e01b815260040160405180910390fd5b6001600160a01b038216158061028157506001600160a01b038116155b1561029f5760405163d92e233d60e01b815260040160405180910390fd5b604051636ab8bdef60e01b81526001600160a01b03821690636ab8bdef906102cb908590600401610592565b5f6040518083038186803b1580156102e1575f5ffd5b505afa1580156102f3573d5f5f3e3d5ffd5b505050506001600160a01b038281165f8181526003602052604080822080546001600160a01b0319169486169485179055517f53a93b0b200b6adfbf749bc775b2872ba3ff61fb09c81a53a5d0c4723c169f259190a35050565b610355610497565b61035e5f6104c9565b565b338061036a6103b6565b6001600160a01b03161461039c578060405163118cdaa760e01b81526004016103939190610592565b60405180910390fd5b6103a5816104c9565b50565b5f546001600160a01b031690565b6001546001600160a01b031690565b6103cd610497565b600180546001600160a01b0319166001600160a01b0383169081179091556103f36103a8565b6001600160a01b03167f38d16b8cac22d99fc7c124b9cd0de2d3fa1faef420bfe791d8c362d765e2270060405160405180910390a350565b5f8260ff168260ff1611156104605761044483836105e2565b61044f90600a6106e4565b61045990856106f2565b9050610490565b8260ff168260ff16101561048d5761047882846105e2565b61048390600a6106e4565b6104599085610709565b50825b9392505050565b336104a06103a8565b6001600160a01b03161461035e573360405163118cdaa760e01b81526004016103939190610592565b600180546001600160a01b03191690556103a5815f80546001600160a01b038381166001600160a01b0319831681178455604051919092169283917f8be0079c531659141344cd1fd0a4f28419497f9722a3daafe3b4186f6b6457e09190a35050565b6001600160a01b03811681146103a5575f5ffd5b5f60208284031215610550575f5ffd5b81356104908161052c565b5f5f6040838503121561056c575f5ffd5b82356105778161052c565b915060208301356105878161052c565b809150509250929050565b6001600160a01b0391909116815260200190565b5f5f604083850312156105b7575f5ffd5b82519150602083015160ff81168114610587575f5ffd5b634e487b7160e01b5f52601160045260245ffd5b60ff82811682821603908111156105fb576105fb6105ce565b92915050565b6001815b600184111561063c57808504811115610620576106206105ce565b600184161561062e57908102905b60019390931c928002610605565b935093915050565b5f82610652575060016105fb565b8161065e57505f6105fb565b8160018114610674576002811461067e5761069a565b60019150506105fb565b60ff84111561068f5761068f6105ce565b50506001821b6105fb565b5060208310610133831016604e8410600b84101617156106bd575081810a6105fb565b6106c95f198484610601565b805f19048211156106dc576106dc6105ce565b029392505050565b5f61049060ff841683610644565b80820281158282048414176105fb576105fb6105ce565b5f8261072357634e487b7160e01b5f52601260045260245ffd5b50049056fea26469706673582212203efdff893ad9a64316e4833894f097d96b7fa7fb2ea5b9637eeeac9fce74b24764736f6c634300081c0033",
  "linkReferences": {},
  "deployedLinkReferences": {}
}