{
  "_format": "hh-sol-artifact-1",
  "contractName": "PriceAdapterRegistry",
  "sourceName": "contracts/price/PriceAdapterRegistry.sol",
  "abi": [
    {
      "inputs": [
        {
          "internalType": "address",
          "name": "initialOwner_",
          "type": "address"
        },
        {
          "internalType": "address",
          "name": "configAddress_",
          "type": "address"
        }
      ],
      "stateMutability": "nonpayable",
      "type": "constructor"
    },
    {
      "inputs": [],
      "name": "AdapterNotSet",
      "type": "error"
    },
    {
      "inputs": [],
      "name": "InvalidAdapter",
      "type": "error"
    },
    {
      "inputs": [],
      "name": "NotAuthorized",
      "type": "error"
    },
    {
      "inputs": [
        {
          "internalType": "address",
          "name": "owner",
          "type": "address"
        }
      ],
      "name": "OwnableInvalidOwner",
      "type": "error"
    },
    {
      "inputs": [
        {
          "internalType": "address",
          "name": "account",
          "type": "address"
        }
      ],
      "name": "OwnableUnauthorizedAccount",
      "type": "error"
    },
    {
      "inputs": [],
      "name": "ZeroAddress",
      "type": "error"
    },
    {
      "anonymous": false,
      "inputs": [
        {
          "indexed": true,
          "internalType": "address",
          "name": "previousOwner",
          "type": "address"
        },
        {
          "indexed": true,
          "internalType": "address",
          "name": "newOwner",
          "type": "address"
        }
      ],
      "name": "OwnershipTransferred",
      "type": "event"
    },
    {
      "anonymous": false,
      "inputs": [
        {
          "indexed": true,
          "internalType": "address",
          "name": "asset",
          "type": "address"
        },
        {
          "indexed": true,
          "internalType": "address",
          "name": "adapter",
          "type": "address"
        }
      ],
      "name": "PriceAdapterSet",
      "type": "event"
    },
    {
      "inputs": [
        {
          "internalType": "address",
          "name": "",
          "type": "address"
        }
      ],
      "name": "adapterOf",
      "outputs": [
        {
          "internalType": "contract IPriceAdapter",
          "name": "",
          "type": "address"
        }
      ],
      "stateMutability": "view",
      "type": "function"
    },
    {
      "inputs": [],
      "name": "configAddress",
      "outputs": [
        {
          "internalType": "address",
          "name": "",
          "type": "address"
        }
      ],
      "stateMutability": "view",
      "type": "function"
    },
    {
      "inputs": [
        {
          "internalType": "address",
          "name": "asset",
          "type": "address"
        }
      ],
      "name": "getPrice",
      "outputs": [
        {
          "internalType": "uint256",
          "name": "",
          "type": "uint256"
        }
      ],
      "stateMutability": "view",
      "type": "function"
    },
    {
      "inputs": [],
      "name": "owner",
      "outputs": [
        {
          "internalType": "address",
          "name": "",
          "type": "address"
        }
      ],
      "stateMutability": "view",
      "type": "function"
    },
    {
      "inputs": [],
      "name": "priceAdapterDecimals",
      "outputs": [
        {
          "internalType": "uint8",
          "name": "",
          "type": "uint8"
        }
      ],
      "stateMutability": "view",
      "type": "function"
    },
    {
      "inputs": [],
      "name": "renounceOwnership",
      "outputs": [],
      "stateMutability": "nonpayable",
      "type": "function"
    },
    {
      "inputs": [
        {
          "internalType": "address",
          "name": "asset",
          "type": "address"
        },
        {
          "internalType": "contract IPriceAdapter",
          "name": "adapter",
          "type": "address"
        }
      ],
      "name": "setPriceAdapter",
      "outputs": [],
      "stateMutability": "nonpayable",
      "type": "function"
    },
    {
      "inputs": [
        {
          "internalType": "address",
          "name": "newOwner",
          "type": "address"
        }
      ],
      "name": "transferOwnership",
      "outputs": [],
      "stateMutability": "nonpayable",
      "type": "function"
    },
    {
      "inputs": [
        {
          "internalType": "address",
          "name": "asset",
          "type": "address"
        }
      ],
      "name": "unsetPriceAdapter",
      "outputs": [],
      "stateMutability": "nonpayable",
      "type": "function"
    }
  ],
  "bytecode": "0x608060405234801561000f575f5ffd5b506040516109d73803806109d783398101604081905261002e916101ba565b816001600160a01b03811661005c57604051631e4fbdf760e01b81525f600482015260240160405180910390fd5b61006581610150565b506001600160a01b03821661008d5760405163d92e233d60e01b815260040160405180910390fd5b6001600160a01b0381166100b45760405163d92e233d60e01b815260040160405180910390fd5b600180546001600160a01b0319166001600160a01b0383169081179091556040805163567ba71360e01b8152905163567ba713916004808201926020929091908290030181865afa15801561010b573d5f5f3e3d5ffd5b505050506040513d601f19601f8201168201806040525081019061012f91906101eb565b600160146101000a81548160ff021916908360ff1602179055505050610212565b5f80546001600160a01b038381166001600160a01b0319831681178455604051919092169283917f8be0079c531659141344cd1fd0a4f28419497f9722a3daafe3b4186f6b6457e09190a35050565b80516001600160a01b03811681146101b5575f5ffd5b919050565b5f5f604083850312156101cb575f5ffd5b6101d48361019f565b91506101e26020840161019f565b90509250929050565b5f602082840312156101fb575f5ffd5b815160ff8116811461020b575f5ffd5b9392505050565b6107b88061021f5f395ff3fe608060405234801561000f575f5ffd5b5060043610610081575f3560e01c806341976e091461008557806343860175146100ab5780634e0fdde0146100c0578063567ba713146100d3578063715018a6146100f95780638da5cb5b14610101578063c2b7a3e614610116578063d6c318711461013e578063f2fde38b14610151575b5f5ffd5b61009861009336600461055b565b610164565b6040519081526020015b60405180910390f35b6100be6100b936600461055b565b610231565b005b6100be6100ce366004610576565b6102c2565b6001546100e790600160a01b900460ff1681565b60405160ff90911681526020016100a2565b6100be6103f3565b610109610406565b6040516100a291906105ad565b61010961012436600461055b565b60026020525f90815260409020546001600160a01b031681565b600154610109906001600160a01b031681565b6100be61015f36600461055b565b610414565b6001600160a01b038082165f908152600260205260408120549091168061019e57604051635048c2af60e11b815260040160405180910390fd5b5f5f826001600160a01b03166372279ba1866040518263ffffffff1660e01b81526004016101cc91906105ad565b6040805180830381865afa1580156101e6573d5f5f3e3d5ffd5b505050506040513d601f19601f8201168201806040525081019061020a91906105c1565b915091506102288282600160149054906101000a900460ff1661045a565b95945050505050565b6001546001600160a01b0316331461025c5760405163ea8e4eb560e01b815260040160405180910390fd5b6001600160a01b0381166102835760405163d92e233d60e01b815260040160405180910390fd5b6001600160a01b0381165f8181526002602052604080822080546001600160a01b0319169055519091905f5160206107635f395f51905f52908390a350565b6001546001600160a01b031633146102ed5760405163ea8e4eb560e01b815260040160405180910390fd5b6001600160a01b038216158061030a57506001600160a01b038116155b156103285760405163d92e233d60e01b815260040160405180910390fd5b604051636ab8bdef60e01b81526001600160a01b03821690636ab8bdef906103549085906004016105ad565b602060405180830381865afa15801561036f573d5f5f3e3d5ffd5b505050506040513d601f19601f8201168201806040525081019061039391906105e9565b6103b05760405163fbf66df160e01b815260040160405180910390fd5b6001600160a01b038281165f8181526002602052604080822080546001600160a01b0319169486169485179055515f5160206107635f395f51905f529190a35050565b6103fb6104c6565b6104045f6104f8565b565b5f546001600160a01b031690565b61041c6104c6565b6001600160a01b03811661044e575f604051631e4fbdf760e01b815260040161044591906105ad565b60405180910390fd5b610457816104f8565b50565b5f8260ff168260ff16111561048f57610473838361061c565b61047e90600a61071e565b610488908561072c565b90506104bf565b8260ff168260ff1610156104bc576104a7828461061c565b6104b290600a61071e565b6104889085610743565b50825b9392505050565b336104cf610406565b6001600160a01b031614610404573360405163118cdaa760e01b815260040161044591906105ad565b5f80546001600160a01b038381166001600160a01b0319831681178455604051919092169283917f8be0079c531659141344cd1fd0a4f28419497f9722a3daafe3b4186f6b6457e09190a35050565b6001600160a01b0381168114610457575f5ffd5b5f6020828403121561056b575f5ffd5b81356104bf81610547565b5f5f60408385031215610587575f5ffd5b823561059281610547565b915060208301356105a281610547565b809150509250929050565b6001600160a01b0391909116815260200190565b5f5f604083850312156105d2575f5ffd5b82519150602083015160ff811681146105a2575f5ffd5b5f602082840312156105f9575f5ffd5b815180151581146104bf575f5ffd5b634e487b7160e01b5f52601160045260245ffd5b60ff828116828216039081111561063557610635610608565b92915050565b6001815b60018411156106765780850481111561065a5761065a610608565b600184161561066857908102905b60019390931c92800261063f565b935093915050565b5f8261068c57506001610635565b8161069857505f610635565b81600181146106ae57600281146106b8576106d4565b6001915050610635565b60ff8411156106c9576106c9610608565b50506001821b610635565b5060208310610133831016604e8410600b84101617156106f7575081810a610635565b6107035f19848461063b565b805f190482111561071657610716610608565b029392505050565b5f6104bf60ff84168361067e565b808202811582820484141761063557610635610608565b5f8261075d57634e487b7160e01b5f52601260045260245ffd5b50049056fe53a93b0b200b6adfbf749bc775b2872ba3ff61fb09c81a53a5d0c4723c169f25a26469706673582212203e1c4dda9f17b52a0de460497aa5a3ec8fe74c934a41c14d6b43db94088ac24164736f6c634300081c0033",
  "linkReferences": {},
  "deployedLinkReferences": {}
}