{
  "_format": "hh-sol-artifact-1",
  "contractName": "PriceAdapterRegistry",
  "sourceName": "contracts/price/PriceAdapterRegistry.sol",
  "abi": [
    {
      "inputs": [],
      "name": "AdapterNotSet",
      "type": "error"
    },
    {
      "inputs": [
        {
          "internalType": "address",
          "name": "target",
          "type": "address"
        }
      ],
      "name": "AddressEmptyCode",
      "type": "error"
    },
    {
      "inputs": [
        {
          "internalType": "address",
          "name": "implementation",
          "type": "address"
        }
      ],
      "name": "ERC1967InvalidImplementation",
      "type": "error"
    },
    {
      "inputs": [],
      "name": "ERC1967NonPayable",
      "type": "error"
    },
    {
      "inputs": [],
      "name": "FailedCall",
      "type": "error"
    },
    {
      "inputs": [],
      "name": "InvalidInitialization",
      "type": "error"
    },
    {
      "inputs": [],
      "name": "NotAuthorized",
      "type": "error"
    },
    {
      "inputs": [],
      "name": "NotInitializing",
      "type": "error"
    },
    {
      "inputs": [
        {
          "internalType": "address",
          "name": "owner",
          "type": "address"
        }
      ],
      "name": "OwnableInvalidOwner",
      "type": "error"
    },
    {
      "inputs": [
        {
          "internalType": "address",
          "name": "account",
          "type": "address"
        }
      ],
      "name": "OwnableUnauthorizedAccount",
      "type": "error"
    },
    {
      "inputs": [],
      "name": "UUPSUnauthorizedCallContext",
      "type": "error"
    },
    {
      "inputs": [
        {
          "internalType": "bytes32",
          "name": "slot",
          "type": "bytes32"
        }
      ],
      "name": "UUPSUnsupportedProxiableUUID",
      "type": "error"
    },
    {
      "inputs": [],
      "name": "ZeroAddress",
      "type": "error"
    },
    {
      "anonymous": false,
      "inputs": [
        {
          "indexed": false,
          "internalType": "uint64",
          "name": "version",
          "type": "uint64"
        }
      ],
      "name": "Initialized",
      "type": "event"
    },
    {
      "anonymous": false,
      "inputs": [
        {
          "indexed": true,
          "internalType": "address",
          "name": "previousOwner",
          "type": "address"
        },
        {
          "indexed": true,
          "internalType": "address",
          "name": "newOwner",
          "type": "address"
        }
      ],
      "name": "OwnershipTransferStarted",
      "type": "event"
    },
    {
      "anonymous": false,
      "inputs": [
        {
          "indexed": true,
          "internalType": "address",
          "name": "previousOwner",
          "type": "address"
        },
        {
          "indexed": true,
          "internalType": "address",
          "name": "newOwner",
          "type": "address"
        }
      ],
      "name": "OwnershipTransferred",
      "type": "event"
    },
    {
      "anonymous": false,
      "inputs": [
        {
          "indexed": true,
          "internalType": "address",
          "name": "asset",
          "type": "address"
        },
        {
          "indexed": true,
          "internalType": "address",
          "name": "adapter",
          "type": "address"
        }
      ],
      "name": "PriceAdapterSet",
      "type": "event"
    },
    {
      "anonymous": false,
      "inputs": [
        {
          "indexed": true,
          "internalType": "address",
          "name": "implementation",
          "type": "address"
        }
      ],
      "name": "Upgraded",
      "type": "event"
    },
    {
      "inputs": [],
      "name": "UPGRADE_INTERFACE_VERSION",
      "outputs": [
        {
          "internalType": "string",
          "name": "",
          "type": "string"
        }
      ],
      "stateMutability": "view",
      "type": "function"
    },
    {
      "inputs": [],
      "name": "acceptOwnership",
      "outputs": [],
      "stateMutability": "nonpayable",
      "type": "function"
    },
    {
      "inputs": [
        {
          "internalType": "address",
          "name": "",
          "type": "address"
        }
      ],
      "name": "adapterOf",
      "outputs": [
        {
          "internalType": "contract IPriceAdapter",
          "name": "",
          "type": "address"
        }
      ],
      "stateMutability": "view",
      "type": "function"
    },
    {
      "inputs": [],
      "name": "configAddress",
      "outputs": [
        {
          "internalType": "address",
          "name": "",
          "type": "address"
        }
      ],
      "stateMutability": "view",
      "type": "function"
    },
    {
      "inputs": [
        {
          "internalType": "address",
          "name": "asset",
          "type": "address"
        }
      ],
      "name": "getPrice",
      "outputs": [
        {
          "internalType": "uint256",
          "name": "",
          "type": "uint256"
        }
      ],
      "stateMutability": "view",
      "type": "function"
    },
    {
      "inputs": [
        {
          "internalType": "address",
          "name": "initialOwner",
          "type": "address"
        },
        {
          "internalType": "address",
          "name": "_configAddress",
          "type": "address"
        }
      ],
      "name": "initialize",
      "outputs": [],
      "stateMutability": "nonpayable",
      "type": "function"
    },
    {
      "inputs": [],
      "name": "owner",
      "outputs": [
        {
          "internalType": "address",
          "name": "",
          "type": "address"
        }
      ],
      "stateMutability": "view",
      "type": "function"
    },
    {
      "inputs": [],
      "name": "pendingOwner",
      "outputs": [
        {
          "internalType": "address",
          "name": "",
          "type": "address"
        }
      ],
      "stateMutability": "view",
      "type": "function"
    },
    {
      "inputs": [],
      "name": "proxiableUUID",
      "outputs": [
        {
          "internalType": "bytes32",
          "name": "",
          "type": "bytes32"
        }
      ],
      "stateMutability": "view",
      "type": "function"
    },
    {
      "inputs": [],
      "name": "renounceOwnership",
      "outputs": [],
      "stateMutability": "nonpayable",
      "type": "function"
    },
    {
      "inputs": [
        {
          "internalType": "address",
          "name": "asset",
          "type": "address"
        },
        {
          "internalType": "contract IPriceAdapter",
          "name": "adapter",
          "type": "address"
        }
      ],
      "name": "setPriceAdapter",
      "outputs": [],
      "stateMutability": "nonpayable",
      "type": "function"
    },
    {
      "inputs": [
        {
          "internalType": "address",
          "name": "newOwner",
          "type": "address"
        }
      ],
      "name": "transferOwnership",
      "outputs": [],
      "stateMutability": "nonpayable",
      "type": "function"
    },
    {
      "inputs": [
        {
          "internalType": "address",
          "name": "asset",
          "type": "address"
        }
      ],
      "name": "unsetPriceAdapter",
      "outputs": [],
      "stateMutability": "nonpayable",
      "type": "function"
    },
    {
      "inputs": [
        {
          "internalType": "address",
          "name": "newImplementation",
          "type": "address"
        },
        {
          "internalType": "bytes",
          "name": "data",
          "type": "bytes"
        }
      ],
      "name": "upgradeToAndCall",
      "outputs": [],
      "stateMutability": "payable",
      "type": "function"
    }
  ],
  "bytecode": "0x60a0604052306080523480156012575f5ffd5b50608051610e526100395f395f818161078e015281816107b701526108fb0152610e525ff3fe6080604052600436106100d9575f3560e01c806379ba50971161007c578063c2b7a3e611610057578063c2b7a3e614610226578063d6c318711461025a578063e30c397814610279578063f2fde38b1461028d575f5ffd5b806379ba5097146101a95780638da5cb5b146101bd578063ad3cb1cc146101e9575f5ffd5b80634e0fdde0116100b75780634e0fdde01461014f5780634f1ef2861461016e57806352d1902d14610181578063715018a614610195575f5ffd5b806341976e09146100dd578063438601751461010f578063485cc95514610130575b5f5ffd5b3480156100e8575f5ffd5b506100fc6100f7366004610c6e565b6102ac565b6040519081526020015b60405180910390f35b34801561011a575f5ffd5b5061012e610129366004610c6e565b610355565b005b34801561013b575f5ffd5b5061012e61014a366004610c89565b6103f9565b34801561015a575f5ffd5b5061012e610169366004610c89565b610533565b61012e61017c366004610cd4565b6105ef565b34801561018c575f5ffd5b506100fc61060e565b3480156101a0575f5ffd5b5061012e610629565b3480156101b4575f5ffd5b5061012e61063c565b3480156101c8575f5ffd5b506101d1610689565b6040516001600160a01b039091168152602001610106565b3480156101f4575f5ffd5b50610219604051806040016040528060058152602001640352e302e360dc1b81525081565b6040516101069190610d9a565b348015610231575f5ffd5b506101d1610240366004610c6e565b5f602081905290815260409020546001600160a01b031681565b348015610265575f5ffd5b506001546101d1906001600160a01b031681565b348015610284575f5ffd5b506101d16106bd565b348015610298575f5ffd5b5061012e6102a7366004610c6e565b6106e5565b6001600160a01b038082165f90815260208190526040812054909116806102e657604051635048c2af60e11b815260040160405180910390fd5b6040516315d5220f60e31b81526001600160a01b03848116600483015282169063aea9107890602401602060405180830381865afa15801561032a573d5f5f3e3d5ffd5b505050506040513d601f19601f8201168201806040525081019061034e9190610dcf565b9392505050565b6001546001600160a01b031633146103805760405163ea8e4eb560e01b815260040160405180910390fd5b6001600160a01b0381166103a75760405163d92e233d60e01b815260040160405180910390fd5b6001600160a01b0381165f8181526020819052604080822080546001600160a01b0319169055519091907f53a93b0b200b6adfbf749bc775b2872ba3ff61fb09c81a53a5d0c4723c169f25908390a350565b7ff0c57e16840df040f15088dc2f81fe391c3923bec73e23a9662efc9c229c6a008054600160401b810460ff16159067ffffffffffffffff165f8115801561043e5750825b90505f8267ffffffffffffffff16600114801561045a5750303b155b905081158015610468575080155b156104865760405163f92ee8a960e01b815260040160405180910390fd5b845467ffffffffffffffff1916600117855583156104b057845460ff60401b1916600160401b1785555b6104b98761076a565b6104c161077b565b6104c961077b565b600180546001600160a01b0319166001600160a01b038816179055831561052a57845460ff60401b19168555604051600181527fc7f505b2f371ae2175ee4913f4499e1f2633a7b5936321eed1cdaeb6115181d29060200160405180910390a15b50505050505050565b6001546001600160a01b0316331461055e5760405163ea8e4eb560e01b815260040160405180910390fd5b6001600160a01b038216158061057b57506001600160a01b038116155b156105995760405163d92e233d60e01b815260040160405180910390fd5b6001600160a01b038281165f8181526020819052604080822080546001600160a01b0319169486169485179055517f53a93b0b200b6adfbf749bc775b2872ba3ff61fb09c81a53a5d0c4723c169f259190a35050565b6105f7610783565b61060082610827565b61060a828261082f565b5050565b5f6106176108f0565b505f516020610dfd5f395f51905f5290565b610631610939565b61063a5f61096b565b565b33806106466106bd565b6001600160a01b03161461067d5760405163118cdaa760e01b81526001600160a01b03821660048201526024015b60405180910390fd5b6106868161096b565b50565b5f807f9016d09d72d40fdae2fd8ceac6b6234c7706214fd39c1cd1e609a0528c1993005b546001600160a01b031692915050565b5f807f237e158222e3e6968b72b9db0d8043aacf074ad9f650f0d1606b4d82ee432c006106ad565b6106ed610939565b7f237e158222e3e6968b72b9db0d8043aacf074ad9f650f0d1606b4d82ee432c0080546001600160a01b0319166001600160a01b0383169081178255610731610689565b6001600160a01b03167f38d16b8cac22d99fc7c124b9cd0de2d3fa1faef420bfe791d8c362d765e2270060405160405180910390a35050565b6107726109a3565b610686816109ec565b61063a6109a3565b306001600160a01b037f000000000000000000000000000000000000000000000000000000000000000016148061080957507f00000000000000000000000000000000000000000000000000000000000000006001600160a01b03166107fd5f516020610dfd5f395f51905f52546001600160a01b031690565b6001600160a01b031614155b1561063a5760405163703e46dd60e11b815260040160405180910390fd5b610686610939565b816001600160a01b03166352d1902d6040518163ffffffff1660e01b8152600401602060405180830381865afa925050508015610889575060408051601f3d908101601f1916820190925261088691810190610dcf565b60015b6108b157604051634c9c8ce360e01b81526001600160a01b0383166004820152602401610674565b5f516020610dfd5f395f51905f5281146108e157604051632a87526960e21b815260048101829052602401610674565b6108eb8383610a1d565b505050565b306001600160a01b037f0000000000000000000000000000000000000000000000000000000000000000161461063a5760405163703e46dd60e11b815260040160405180910390fd5b33610942610689565b6001600160a01b03161461063a5760405163118cdaa760e01b8152336004820152602401610674565b7f237e158222e3e6968b72b9db0d8043aacf074ad9f650f0d1606b4d82ee432c0080546001600160a01b031916815561060a82610a72565b7ff0c57e16840df040f15088dc2f81fe391c3923bec73e23a9662efc9c229c6a0054600160401b900460ff1661063a57604051631afcd79f60e31b815260040160405180910390fd5b6109f46109a3565b6001600160a01b03811661067d57604051631e4fbdf760e01b81525f6004820152602401610674565b610a2682610ae2565b6040516001600160a01b038316907fbc7cd75a20ee27fd9adebab32041f755214dbc6bffa90cc0225b39da2e5c2d3b905f90a2805115610a6a576108eb8282610b45565b61060a610bb7565b7f9016d09d72d40fdae2fd8ceac6b6234c7706214fd39c1cd1e609a0528c19930080546001600160a01b031981166001600160a01b03848116918217845560405192169182907f8be0079c531659141344cd1fd0a4f28419497f9722a3daafe3b4186f6b6457e0905f90a3505050565b806001600160a01b03163b5f03610b1757604051634c9c8ce360e01b81526001600160a01b0382166004820152602401610674565b5f516020610dfd5f395f51905f5280546001600160a01b0319166001600160a01b0392909216919091179055565b60605f5f846001600160a01b031684604051610b619190610de6565b5f60405180830381855af49150503d805f8114610b99576040519150601f19603f3d011682016040523d82523d5f602084013e610b9e565b606091505b5091509150610bae858383610bd6565b95945050505050565b341561063a5760405163b398979f60e01b815260040160405180910390fd5b606082610beb57610be682610c32565b61034e565b8151158015610c0257506001600160a01b0384163b155b15610c2b57604051639996b31560e01b81526001600160a01b0385166004820152602401610674565b5092915050565b805115610c4157805160208201fd5b60405163d6bda27560e01b815260040160405180910390fd5b6001600160a01b0381168114610686575f5ffd5b5f60208284031215610c7e575f5ffd5b813561034e81610c5a565b5f5f60408385031215610c9a575f5ffd5b8235610ca581610c5a565b91506020830135610cb581610c5a565b809150509250929050565b634e487b7160e01b5f52604160045260245ffd5b5f5f60408385031215610ce5575f5ffd5b8235610cf081610c5a565b9150602083013567ffffffffffffffff811115610d0b575f5ffd5b8301601f81018513610d1b575f5ffd5b803567ffffffffffffffff811115610d3557610d35610cc0565b604051601f8201601f19908116603f0116810167ffffffffffffffff81118282101715610d6457610d64610cc0565b604052818152828201602001871015610d7b575f5ffd5b816020840160208301375f602083830101528093505050509250929050565b602081525f82518060208401528060208501604085015e5f604082850101526040601f19601f83011684010191505092915050565b5f60208284031215610ddf575f5ffd5b5051919050565b5f82518060208501845e5f92019182525091905056fe360894a13ba1a3210667c828492db98dca3e2076cc3735a920a3ca505d382bbca26469706673582212207915a9c11fd06f416ce4fbb3c3184ade790dbd23d4bde28e521cd775609eb5ae64736f6c634300081c0033",
  "linkReferences": {},
  "deployedLinkReferences": {}
}