{
  "_format": "hh-sol-artifact-1",
  "contractName": "PriceAdapterRegistry",
  "sourceName": "contracts/price/PriceAdapterRegistry.sol",
  "abi": [
    {
      "inputs": [
        {
          "internalType": "address",
          "name": "initialOwner",
          "type": "address"
        },
        {
          "internalType": "address",
          "name": "configAddress_",
          "type": "address"
        }
      ],
      "stateMutability": "nonpayable",
      "type": "constructor"
    },
    {
      "inputs": [],
      "name": "AdapterNotSet",
      "type": "error"
    },
    {
      "inputs": [],
      "name": "NotAuthorized",
      "type": "error"
    },
    {
      "inputs": [
        {
          "internalType": "address",
          "name": "owner",
          "type": "address"
        }
      ],
      "name": "OwnableInvalidOwner",
      "type": "error"
    },
    {
      "inputs": [
        {
          "internalType": "address",
          "name": "account",
          "type": "address"
        }
      ],
      "name": "OwnableUnauthorizedAccount",
      "type": "error"
    },
    {
      "inputs": [],
      "name": "ZeroAddress",
      "type": "error"
    },
    {
      "anonymous": false,
      "inputs": [
        {
          "indexed": true,
          "internalType": "address",
          "name": "previousOwner",
          "type": "address"
        },
        {
          "indexed": true,
          "internalType": "address",
          "name": "newOwner",
          "type": "address"
        }
      ],
      "name": "OwnershipTransferred",
      "type": "event"
    },
    {
      "anonymous": false,
      "inputs": [
        {
          "indexed": true,
          "internalType": "address",
          "name": "asset",
          "type": "address"
        },
        {
          "indexed": true,
          "internalType": "address",
          "name": "adapter",
          "type": "address"
        }
      ],
      "name": "PriceAdapterSet",
      "type": "event"
    },
    {
      "inputs": [
        {
          "internalType": "address",
          "name": "",
          "type": "address"
        }
      ],
      "name": "adapterOf",
      "outputs": [
        {
          "internalType": "contract IPriceAdapter",
          "name": "",
          "type": "address"
        }
      ],
      "stateMutability": "view",
      "type": "function"
    },
    {
      "inputs": [],
      "name": "configAddress",
      "outputs": [
        {
          "internalType": "address",
          "name": "",
          "type": "address"
        }
      ],
      "stateMutability": "view",
      "type": "function"
    },
    {
      "inputs": [
        {
          "internalType": "address",
          "name": "asset",
          "type": "address"
        }
      ],
      "name": "getPrice",
      "outputs": [
        {
          "internalType": "uint256",
          "name": "",
          "type": "uint256"
        }
      ],
      "stateMutability": "view",
      "type": "function"
    },
    {
      "inputs": [],
      "name": "owner",
      "outputs": [
        {
          "internalType": "address",
          "name": "",
          "type": "address"
        }
      ],
      "stateMutability": "view",
      "type": "function"
    },
    {
      "inputs": [],
      "name": "renounceOwnership",
      "outputs": [],
      "stateMutability": "nonpayable",
      "type": "function"
    },
    {
      "inputs": [
        {
          "internalType": "address",
          "name": "asset",
          "type": "address"
        },
        {
          "internalType": "contract IPriceAdapter",
          "name": "adapter",
          "type": "address"
        }
      ],
      "name": "setPriceAdapter",
      "outputs": [],
      "stateMutability": "nonpayable",
      "type": "function"
    },
    {
      "inputs": [
        {
          "internalType": "address",
          "name": "newOwner",
          "type": "address"
        }
      ],
      "name": "transferOwnership",
      "outputs": [],
      "stateMutability": "nonpayable",
      "type": "function"
    },
    {
      "inputs": [
        {
          "internalType": "address",
          "name": "asset",
          "type": "address"
        }
      ],
      "name": "unsetPriceAdapter",
      "outputs": [],
      "stateMutability": "nonpayable",
      "type": "function"
    }
  ],
  "bytecode": "0x608060405234801561000f575f5ffd5b5060405161064338038061064383398101604081905261002e9161011d565b816001600160a01b03811661005c57604051631e4fbdf760e01b81525f600482015260240160405180910390fd5b610065816100b3565b506001600160a01b03811661008d5760405163d92e233d60e01b815260040160405180910390fd5b600180546001600160a01b0319166001600160a01b03929092169190911790555061014e565b5f80546001600160a01b038381166001600160a01b0319831681178455604051919092169283917f8be0079c531659141344cd1fd0a4f28419497f9722a3daafe3b4186f6b6457e09190a35050565b80516001600160a01b0381168114610118575f5ffd5b919050565b5f5f6040838503121561012e575f5ffd5b61013783610102565b915061014560208401610102565b90509250929050565b6104e88061015b5f395ff3fe608060405234801561000f575f5ffd5b5060043610610076575f3560e01c806341976e091461007a57806343860175146100a05780634e0fdde0146100b5578063715018a6146100c85780638da5cb5b146100d0578063c2b7a3e6146100e5578063d6c318711461010d578063f2fde38b14610120575b5f5ffd5b61008d610088366004610415565b610133565b6040519081526020015b60405180910390f35b6100b36100ae366004610415565b6101df565b005b6100b36100c3366004610430565b610270565b6100b3610319565b6100d861032c565b6040516100979190610467565b6100d86100f3366004610415565b60026020525f90815260409020546001600160a01b031681565b6001546100d8906001600160a01b031681565b6100b361012e366004610415565b61033a565b6001600160a01b038082165f908152600260205260408120549091168061016d57604051635048c2af60e11b815260040160405180910390fd5b6040516315d5220f60e31b81526001600160a01b0382169063aea9107890610199908690600401610467565b602060405180830381865afa1580156101b4573d5f5f3e3d5ffd5b505050506040513d601f19601f820116820180604052508101906101d8919061047b565b9392505050565b6001546001600160a01b0316331461020a5760405163ea8e4eb560e01b815260040160405180910390fd5b6001600160a01b0381166102315760405163d92e233d60e01b815260040160405180910390fd5b6001600160a01b0381165f8181526002602052604080822080546001600160a01b0319169055519091905f5160206104935f395f51905f52908390a350565b6001546001600160a01b0316331461029b5760405163ea8e4eb560e01b815260040160405180910390fd5b6001600160a01b03821615806102b857506001600160a01b038116155b156102d65760405163d92e233d60e01b815260040160405180910390fd5b6001600160a01b038281165f8181526002602052604080822080546001600160a01b0319169486169485179055515f5160206104935f395f51905f529190a35050565b610321610380565b61032a5f6103b2565b565b5f546001600160a01b031690565b610342610380565b6001600160a01b038116610374575f604051631e4fbdf760e01b815260040161036b9190610467565b60405180910390fd5b61037d816103b2565b50565b3361038961032c565b6001600160a01b03161461032a573360405163118cdaa760e01b815260040161036b9190610467565b5f80546001600160a01b038381166001600160a01b0319831681178455604051919092169283917f8be0079c531659141344cd1fd0a4f28419497f9722a3daafe3b4186f6b6457e09190a35050565b6001600160a01b038116811461037d575f5ffd5b5f60208284031215610425575f5ffd5b81356101d881610401565b5f5f60408385031215610441575f5ffd5b823561044c81610401565b9150602083013561045c81610401565b809150509250929050565b6001600160a01b0391909116815260200190565b5f6020828403121561048b575f5ffd5b505191905056fe53a93b0b200b6adfbf749bc775b2872ba3ff61fb09c81a53a5d0c4723c169f25a26469706673582212202df17ce9da2ec8e76bd3e0969cbb0166796ffff4784ea01e9fc67f0f1dce83a264736f6c634300081c0033",
  "linkReferences": {},
  "deployedLinkReferences": {}
}