{
  "_format": "hh-sol-artifact-1",
  "contractName": "PriceAdapterRegistry",
  "sourceName": "contracts/price/PriceAdapterRegistry.sol",
  "abi": [
    {
      "inputs": [
        {
          "internalType": "address",
          "name": "initialOwner_",
          "type": "address"
        },
        {
          "internalType": "address",
          "name": "configAddress_",
          "type": "address"
        }
      ],
      "stateMutability": "nonpayable",
      "type": "constructor"
    },
    {
      "inputs": [],
      "name": "AdapterNotSet",
      "type": "error"
    },
    {
      "inputs": [],
      "name": "InvalidAdapter",
      "type": "error"
    },
    {
      "inputs": [],
      "name": "NotAuthorized",
      "type": "error"
    },
    {
      "inputs": [
        {
          "internalType": "address",
          "name": "owner",
          "type": "address"
        }
      ],
      "name": "OwnableInvalidOwner",
      "type": "error"
    },
    {
      "inputs": [
        {
          "internalType": "address",
          "name": "account",
          "type": "address"
        }
      ],
      "name": "OwnableUnauthorizedAccount",
      "type": "error"
    },
    {
      "inputs": [],
      "name": "ZeroAddress",
      "type": "error"
    },
    {
      "anonymous": false,
      "inputs": [
        {
          "indexed": true,
          "internalType": "address",
          "name": "previousOwner",
          "type": "address"
        },
        {
          "indexed": true,
          "internalType": "address",
          "name": "newOwner",
          "type": "address"
        }
      ],
      "name": "OwnershipTransferred",
      "type": "event"
    },
    {
      "anonymous": false,
      "inputs": [
        {
          "indexed": true,
          "internalType": "address",
          "name": "asset",
          "type": "address"
        },
        {
          "indexed": true,
          "internalType": "address",
          "name": "adapter",
          "type": "address"
        }
      ],
      "name": "PriceAdapterSet",
      "type": "event"
    },
    {
      "inputs": [
        {
          "internalType": "address",
          "name": "",
          "type": "address"
        }
      ],
      "name": "adapterOf",
      "outputs": [
        {
          "internalType": "contract IPriceAdapter",
          "name": "",
          "type": "address"
        }
      ],
      "stateMutability": "view",
      "type": "function"
    },
    {
      "inputs": [],
      "name": "configAddress",
      "outputs": [
        {
          "internalType": "address",
          "name": "",
          "type": "address"
        }
      ],
      "stateMutability": "view",
      "type": "function"
    },
    {
      "inputs": [
        {
          "internalType": "address",
          "name": "asset",
          "type": "address"
        }
      ],
      "name": "getPrice",
      "outputs": [
        {
          "internalType": "uint256",
          "name": "",
          "type": "uint256"
        }
      ],
      "stateMutability": "view",
      "type": "function"
    },
    {
      "inputs": [],
      "name": "owner",
      "outputs": [
        {
          "internalType": "address",
          "name": "",
          "type": "address"
        }
      ],
      "stateMutability": "view",
      "type": "function"
    },
    {
      "inputs": [],
      "name": "priceAdapterDecimals",
      "outputs": [
        {
          "internalType": "uint8",
          "name": "",
          "type": "uint8"
        }
      ],
      "stateMutability": "view",
      "type": "function"
    },
    {
      "inputs": [],
      "name": "renounceOwnership",
      "outputs": [],
      "stateMutability": "nonpayable",
      "type": "function"
    },
    {
      "inputs": [
        {
          "internalType": "address",
          "name": "asset",
          "type": "address"
        },
        {
          "internalType": "contract IPriceAdapter",
          "name": "adapter",
          "type": "address"
        }
      ],
      "name": "setPriceAdapter",
      "outputs": [],
      "stateMutability": "nonpayable",
      "type": "function"
    },
    {
      "inputs": [
        {
          "internalType": "address",
          "name": "newOwner",
          "type": "address"
        }
      ],
      "name": "transferOwnership",
      "outputs": [],
      "stateMutability": "nonpayable",
      "type": "function"
    }
  ],
  "bytecode": "0x608060405234801561000f575f5ffd5b5060405161091b38038061091b83398101604081905261002e916101ba565b816001600160a01b03811661005c57604051631e4fbdf760e01b81525f600482015260240160405180910390fd5b61006581610150565b506001600160a01b03821661008d5760405163d92e233d60e01b815260040160405180910390fd5b6001600160a01b0381166100b45760405163d92e233d60e01b815260040160405180910390fd5b600180546001600160a01b0319166001600160a01b0383169081179091556040805163567ba71360e01b8152905163567ba713916004808201926020929091908290030181865afa15801561010b573d5f5f3e3d5ffd5b505050506040513d601f19601f8201168201806040525081019061012f91906101eb565b600160146101000a81548160ff021916908360ff1602179055505050610212565b5f80546001600160a01b038381166001600160a01b0319831681178455604051919092169283917f8be0079c531659141344cd1fd0a4f28419497f9722a3daafe3b4186f6b6457e09190a35050565b80516001600160a01b03811681146101b5575f5ffd5b919050565b5f5f604083850312156101cb575f5ffd5b6101d48361019f565b91506101e26020840161019f565b90509250929050565b5f602082840312156101fb575f5ffd5b815160ff8116811461020b575f5ffd5b9392505050565b6106fc8061021f5f395ff3fe608060405234801561000f575f5ffd5b5060043610610076575f3560e01c806341976e091461007a5780634e0fdde0146100a0578063567ba713146100b5578063715018a6146100db5780638da5cb5b146100e3578063c2b7a3e6146100f8578063d6c3187114610120578063f2fde38b14610133575b5f5ffd5b61008d6100883660046104bf565b610146565b6040519081526020015b60405180910390f35b6100b36100ae3660046104da565b610213565b005b6001546100c990600160a01b900460ff1681565b60405160ff9091168152602001610097565b6100b3610357565b6100eb61036a565b6040516100979190610511565b6100eb6101063660046104bf565b60026020525f90815260409020546001600160a01b031681565b6001546100eb906001600160a01b031681565b6100b36101413660046104bf565b610378565b6001600160a01b038082165f908152600260205260408120549091168061018057604051635048c2af60e11b815260040160405180910390fd5b5f5f826001600160a01b03166372279ba1866040518263ffffffff1660e01b81526004016101ae9190610511565b6040805180830381865afa1580156101c8573d5f5f3e3d5ffd5b505050506040513d601f19601f820116820180604052508101906101ec9190610525565b9150915061020a8282600160149054906101000a900460ff166103be565b95945050505050565b6001546001600160a01b0316331461023e5760405163ea8e4eb560e01b815260040160405180910390fd5b6001600160a01b038216158061025b57506001600160a01b038116155b156102795760405163d92e233d60e01b815260040160405180910390fd5b604051636ab8bdef60e01b81526001600160a01b03821690636ab8bdef906102a5908590600401610511565b602060405180830381865afa1580156102c0573d5f5f3e3d5ffd5b505050506040513d601f19601f820116820180604052508101906102e4919061054d565b6103015760405163fbf66df160e01b815260040160405180910390fd5b6001600160a01b038281165f8181526002602052604080822080546001600160a01b0319169486169485179055517f53a93b0b200b6adfbf749bc775b2872ba3ff61fb09c81a53a5d0c4723c169f259190a35050565b61035f61042a565b6103685f61045c565b565b5f546001600160a01b031690565b61038061042a565b6001600160a01b0381166103b2575f604051631e4fbdf760e01b81526004016103a99190610511565b60405180910390fd5b6103bb8161045c565b50565b5f8260ff168260ff1611156103f3576103d78383610580565b6103e290600a610682565b6103ec9085610690565b9050610423565b8260ff168260ff1610156104205761040b8284610580565b61041690600a610682565b6103ec90856106a7565b50825b9392505050565b3361043361036a565b6001600160a01b031614610368573360405163118cdaa760e01b81526004016103a99190610511565b5f80546001600160a01b038381166001600160a01b0319831681178455604051919092169283917f8be0079c531659141344cd1fd0a4f28419497f9722a3daafe3b4186f6b6457e09190a35050565b6001600160a01b03811681146103bb575f5ffd5b5f602082840312156104cf575f5ffd5b8135610423816104ab565b5f5f604083850312156104eb575f5ffd5b82356104f6816104ab565b91506020830135610506816104ab565b809150509250929050565b6001600160a01b0391909116815260200190565b5f5f60408385031215610536575f5ffd5b82519150602083015160ff81168114610506575f5ffd5b5f6020828403121561055d575f5ffd5b81518015158114610423575f5ffd5b634e487b7160e01b5f52601160045260245ffd5b60ff82811682821603908111156105995761059961056c565b92915050565b6001815b60018411156105da578085048111156105be576105be61056c565b60018416156105cc57908102905b60019390931c9280026105a3565b935093915050565b5f826105f057506001610599565b816105fc57505f610599565b8160018114610612576002811461061c57610638565b6001915050610599565b60ff84111561062d5761062d61056c565b50506001821b610599565b5060208310610133831016604e8410600b841016171561065b575081810a610599565b6106675f19848461059f565b805f190482111561067a5761067a61056c565b029392505050565b5f61042360ff8416836105e2565b80820281158282048414176105995761059961056c565b5f826106c157634e487b7160e01b5f52601260045260245ffd5b50049056fea2646970667358221220f36d653d6799cdd39fffbb7c6ad4f32734efea9d0525a187f253ad4ed9a9313f64736f6c634300081c0033",
  "linkReferences": {},
  "deployedLinkReferences": {}
}