{
  "_format": "hh-sol-artifact-1",
  "contractName": "PriceAdapterRegistry",
  "sourceName": "contracts/price/PriceAdapterRegistry.sol",
  "abi": [
    {
      "inputs": [
        {
          "internalType": "address",
          "name": "initialOwner",
          "type": "address"
        },
        {
          "internalType": "address",
          "name": "configAddress_",
          "type": "address"
        }
      ],
      "stateMutability": "nonpayable",
      "type": "constructor"
    },
    {
      "inputs": [],
      "name": "AdapterNotSet",
      "type": "error"
    },
    {
      "inputs": [],
      "name": "NotAuthorized",
      "type": "error"
    },
    {
      "inputs": [
        {
          "internalType": "address",
          "name": "owner",
          "type": "address"
        }
      ],
      "name": "OwnableInvalidOwner",
      "type": "error"
    },
    {
      "inputs": [
        {
          "internalType": "address",
          "name": "account",
          "type": "address"
        }
      ],
      "name": "OwnableUnauthorizedAccount",
      "type": "error"
    },
    {
      "inputs": [],
      "name": "ZeroAddress",
      "type": "error"
    },
    {
      "anonymous": false,
      "inputs": [
        {
          "indexed": true,
          "internalType": "address",
          "name": "previousOwner",
          "type": "address"
        },
        {
          "indexed": true,
          "internalType": "address",
          "name": "newOwner",
          "type": "address"
        }
      ],
      "name": "OwnershipTransferred",
      "type": "event"
    },
    {
      "anonymous": false,
      "inputs": [
        {
          "indexed": true,
          "internalType": "address",
          "name": "asset",
          "type": "address"
        },
        {
          "indexed": true,
          "internalType": "address",
          "name": "adapter",
          "type": "address"
        }
      ],
      "name": "PriceAdapterSet",
      "type": "event"
    },
    {
      "inputs": [
        {
          "internalType": "address",
          "name": "",
          "type": "address"
        }
      ],
      "name": "adapterOf",
      "outputs": [
        {
          "internalType": "contract IPriceAdapter",
          "name": "",
          "type": "address"
        }
      ],
      "stateMutability": "view",
      "type": "function"
    },
    {
      "inputs": [],
      "name": "configAddress",
      "outputs": [
        {
          "internalType": "address",
          "name": "",
          "type": "address"
        }
      ],
      "stateMutability": "view",
      "type": "function"
    },
    {
      "inputs": [
        {
          "internalType": "address",
          "name": "asset",
          "type": "address"
        }
      ],
      "name": "getPrice",
      "outputs": [
        {
          "internalType": "uint256",
          "name": "",
          "type": "uint256"
        }
      ],
      "stateMutability": "view",
      "type": "function"
    },
    {
      "inputs": [],
      "name": "owner",
      "outputs": [
        {
          "internalType": "address",
          "name": "",
          "type": "address"
        }
      ],
      "stateMutability": "view",
      "type": "function"
    },
    {
      "inputs": [],
      "name": "renounceOwnership",
      "outputs": [],
      "stateMutability": "nonpayable",
      "type": "function"
    },
    {
      "inputs": [
        {
          "internalType": "address",
          "name": "asset",
          "type": "address"
        },
        {
          "internalType": "contract IPriceAdapter",
          "name": "adapter",
          "type": "address"
        }
      ],
      "name": "setPriceAdapter",
      "outputs": [],
      "stateMutability": "nonpayable",
      "type": "function"
    },
    {
      "inputs": [
        {
          "internalType": "address",
          "name": "newOwner",
          "type": "address"
        }
      ],
      "name": "transferOwnership",
      "outputs": [],
      "stateMutability": "nonpayable",
      "type": "function"
    },
    {
      "inputs": [
        {
          "internalType": "address",
          "name": "asset",
          "type": "address"
        }
      ],
      "name": "unsetPriceAdapter",
      "outputs": [],
      "stateMutability": "nonpayable",
      "type": "function"
    }
  ],
  "bytecode": "0x608060405234801561000f575f5ffd5b506040516112303803806112308339818101604052810190610031919061031c565b815f73ffffffffffffffffffffffffffffffffffffffff168173ffffffffffffffffffffffffffffffffffffffff16036100a2575f6040517f1e4fbdf70000000000000000000000000000000000000000000000000000000081526004016100999190610369565b60405180910390fd5b6100b1816101fa60201b60201c565b506100cc67072dc4ad2d43a63e60c01b6102bb60201b60201c565b6100e667697885f84f5c78e060c01b6102bb60201b60201c565b61010067b6bdcf24b17170f960c01b6102bb60201b60201c565b5f73ffffffffffffffffffffffffffffffffffffffff168173ffffffffffffffffffffffffffffffffffffffff160361017f5761014d67c58600c226aa188e60c01b6102bb60201b60201c565b6040517fd92e233d00000000000000000000000000000000000000000000000000000000815260040160405180910390fd5b610199672f9fcf3fa186a53760c01b6102bb60201b60201c565b6101b367cb1c573036c954c060c01b6102bb60201b60201c565b8060015f6101000a81548173ffffffffffffffffffffffffffffffffffffffff021916908373ffffffffffffffffffffffffffffffffffffffff1602179055505050610382565b5f5f5f9054906101000a900473ffffffffffffffffffffffffffffffffffffffff169050815f5f6101000a81548173ffffffffffffffffffffffffffffffffffffffff021916908373ffffffffffffffffffffffffffffffffffffffff1602179055508173ffffffffffffffffffffffffffffffffffffffff168173ffffffffffffffffffffffffffffffffffffffff167f8be0079c531659141344cd1fd0a4f28419497f9722a3daafe3b4186f6b6457e060405160405180910390a35050565b50565b5f5ffd5b5f73ffffffffffffffffffffffffffffffffffffffff82169050919050565b5f6102eb826102c2565b9050919050565b6102fb816102e1565b8114610305575f5ffd5b50565b5f81519050610316816102f2565b92915050565b5f5f60408385031215610332576103316102be565b5b5f61033f85828601610308565b925050602061035085828601610308565b9150509250929050565b610363816102e1565b82525050565b5f60208201905061037c5f83018461035a565b92915050565b610ea18061038f5f395ff3fe608060405234801561000f575f5ffd5b5060043610610086575f3560e01c80638da5cb5b116100595780638da5cb5b146100fc578063c2b7a3e61461011a578063d6c318711461014a578063f2fde38b1461016857610086565b806341976e091461008a57806343860175146100ba5780634e0fdde0146100d6578063715018a6146100f2575b5f5ffd5b6100a4600480360381019061009f9190610ca5565b610184565b6040516100b19190610ce8565b60405180910390f35b6100d460048036038101906100cf9190610ca5565b61037e565b005b6100f060048036038101906100eb9190610d3c565b610665565b005b6100fa6109d8565b005b6101046109eb565b6040516101119190610d89565b60405180910390f35b610134600480360381019061012f9190610ca5565b610a12565b6040516101419190610dfd565b60405180910390f35b610152610a42565b60405161015f9190610d89565b60405180910390f35b610182600480360381019061017d9190610ca5565b610a67565b005b5f61019967bf11dea27bdf132060c01b610aeb565b6101ad671069a29d883d77d460c01b610aeb565b6101c167c33ba78bb88374ee60c01b610aeb565b5f60025f8473ffffffffffffffffffffffffffffffffffffffff1673ffffffffffffffffffffffffffffffffffffffff1681526020019081526020015f205f9054906101000a900473ffffffffffffffffffffffffffffffffffffffff169050610235677e8cb649839e849f60c01b610aeb565b61024967b1a2cd68bd89bd5e60c01b610aeb565b5f73ffffffffffffffffffffffffffffffffffffffff168173ffffffffffffffffffffffffffffffffffffffff16036102c257610290677033f818465f778e60c01b610aeb565b6040517fa091855e00000000000000000000000000000000000000000000000000000000815260040160405180910390fd5b6102d66734c4f85b9ac951f060c01b610aeb565b6102ea673f23b00c701c7ae160c01b610aeb565b6102fe671ff595b70fdadb2760c01b610aeb565b8073ffffffffffffffffffffffffffffffffffffffff1663aea91078846040518263ffffffff1660e01b81526004016103379190610d89565b602060405180830381865afa158015610352573d5f5f3e3d5ffd5b505050506040513d601f19601f820116820180604052508101906103769190610e40565b915050919050565b610392677a924261ca72a75260c01b610aeb565b6103a66785cb9c2f896e13cb60c01b610aeb565b6103ba67752a553fac330af160c01b610aeb565b6103ce670f112847d023f38f60c01b610aeb565b60015f9054906101000a900473ffffffffffffffffffffffffffffffffffffffff1673ffffffffffffffffffffffffffffffffffffffff163373ffffffffffffffffffffffffffffffffffffffff161461046857610436679ccc4d5b14ccc9d760c01b610aeb565b6040517fea8e4eb500000000000000000000000000000000000000000000000000000000815260040160405180910390fd5b61047c67bc0280d5fb84204360c01b610aeb565b610490672d2e8a8beb89233d60c01b610aeb565b6104a467482c39c81106e9c260c01b610aeb565b6104b86712bcef1a04fb5b2860c01b610aeb565b6104cc679f77746786a72f1560c01b610aeb565b6104e0672bb9f6ec1bed756760c01b610aeb565b5f73ffffffffffffffffffffffffffffffffffffffff168173ffffffffffffffffffffffffffffffffffffffff160361055957610527675633be279ef364ab60c01b610aeb565b6040517fd92e233d00000000000000000000000000000000000000000000000000000000815260040160405180910390fd5b61056d67638ccb73b3b02e0260c01b610aeb565b6105816768cbaec2723afe1460c01b610aeb565b60025f8273ffffffffffffffffffffffffffffffffffffffff1673ffffffffffffffffffffffffffffffffffffffff1681526020019081526020015f205f6101000a81549073ffffffffffffffffffffffffffffffffffffffff02191690556105f4671a8945e2daaf50eb60c01b610aeb565b61060867f836e9aca6cd202960c01b610aeb565b5f73ffffffffffffffffffffffffffffffffffffffff168173ffffffffffffffffffffffffffffffffffffffff167f53a93b0b200b6adfbf749bc775b2872ba3ff61fb09c81a53a5d0c4723c169f2560405160405180910390a350565b61067967763db6eb1986f1da60c01b610aeb565b61068d6785cb9c2f896e13cb60c01b610aeb565b6106a167752a553fac330af160c01b610aeb565b6106b5670f112847d023f38f60c01b610aeb565b60015f9054906101000a900473ffffffffffffffffffffffffffffffffffffffff1673ffffffffffffffffffffffffffffffffffffffff163373ffffffffffffffffffffffffffffffffffffffff161461074f5761071d679ccc4d5b14ccc9d760c01b610aeb565b6040517fea8e4eb500000000000000000000000000000000000000000000000000000000815260040160405180910390fd5b61076367bc0280d5fb84204360c01b610aeb565b610777672d2e8a8beb89233d60c01b610aeb565b61078b673d284d4e8d666a7760c01b610aeb565b61079f671e37b3dbb68e675e60c01b610aeb565b6107b367cfe128f7044d589a60c01b610aeb565b6107c7676d7c6ccd4cc1efbd60c01b610aeb565b5f73ffffffffffffffffffffffffffffffffffffffff168273ffffffffffffffffffffffffffffffffffffffff161480156108125750610811670b7d31dd4fab6d2c60c01b610aee565b5b8061086457505f73ffffffffffffffffffffffffffffffffffffffff168173ffffffffffffffffffffffffffffffffffffffff1614801561086357506108626775f35b2ce28b65d560c01b610aee565b5b5b156108af5761087d67835269f8536d2e6e60c01b610aeb565b6040517fd92e233d00000000000000000000000000000000000000000000000000000000815260040160405180910390fd5b6108c367facd9056810f3c6060c01b610aeb565b6108d767ca6d59986881541e60c01b610aeb565b8060025f8473ffffffffffffffffffffffffffffffffffffffff1673ffffffffffffffffffffffffffffffffffffffff1681526020019081526020015f205f6101000a81548173ffffffffffffffffffffffffffffffffffffffff021916908373ffffffffffffffffffffffffffffffffffffffff16021790555061096667492ea7e7384d0b1a60c01b610aeb565b61097a67ee827f0ced17abae60c01b610aeb565b8073ffffffffffffffffffffffffffffffffffffffff168273ffffffffffffffffffffffffffffffffffffffff167f53a93b0b200b6adfbf749bc775b2872ba3ff61fb09c81a53a5d0c4723c169f2560405160405180910390a35050565b6109e0610af8565b6109e95f610b7f565b565b5f5f5f9054906101000a900473ffffffffffffffffffffffffffffffffffffffff16905090565b6002602052805f5260405f205f915054906101000a900473ffffffffffffffffffffffffffffffffffffffff1681565b60015f9054906101000a900473ffffffffffffffffffffffffffffffffffffffff1681565b610a6f610af8565b5f73ffffffffffffffffffffffffffffffffffffffff168173ffffffffffffffffffffffffffffffffffffffff1603610adf575f6040517f1e4fbdf7000000000000000000000000000000000000000000000000000000008152600401610ad69190610d89565b60405180910390fd5b610ae881610b7f565b50565b50565b5f60019050919050565b610b00610c40565b73ffffffffffffffffffffffffffffffffffffffff16610b1e6109eb565b73ffffffffffffffffffffffffffffffffffffffff1614610b7d57610b41610c40565b6040517f118cdaa7000000000000000000000000000000000000000000000000000000008152600401610b749190610d89565b60405180910390fd5b565b5f5f5f9054906101000a900473ffffffffffffffffffffffffffffffffffffffff169050815f5f6101000a81548173ffffffffffffffffffffffffffffffffffffffff021916908373ffffffffffffffffffffffffffffffffffffffff1602179055508173ffffffffffffffffffffffffffffffffffffffff168173ffffffffffffffffffffffffffffffffffffffff167f8be0079c531659141344cd1fd0a4f28419497f9722a3daafe3b4186f6b6457e060405160405180910390a35050565b5f33905090565b5f5ffd5b5f73ffffffffffffffffffffffffffffffffffffffff82169050919050565b5f610c7482610c4b565b9050919050565b610c8481610c6a565b8114610c8e575f5ffd5b50565b5f81359050610c9f81610c7b565b92915050565b5f60208284031215610cba57610cb9610c47565b5b5f610cc784828501610c91565b91505092915050565b5f819050919050565b610ce281610cd0565b82525050565b5f602082019050610cfb5f830184610cd9565b92915050565b5f610d0b82610c6a565b9050919050565b610d1b81610d01565b8114610d25575f5ffd5b50565b5f81359050610d3681610d12565b92915050565b5f5f60408385031215610d5257610d51610c47565b5b5f610d5f85828601610c91565b9250506020610d7085828601610d28565b9150509250929050565b610d8381610c6a565b82525050565b5f602082019050610d9c5f830184610d7a565b92915050565b5f819050919050565b5f610dc5610dc0610dbb84610c4b565b610da2565b610c4b565b9050919050565b5f610dd682610dab565b9050919050565b5f610de782610dcc565b9050919050565b610df781610ddd565b82525050565b5f602082019050610e105f830184610dee565b92915050565b610e1f81610cd0565b8114610e29575f5ffd5b50565b5f81519050610e3a81610e16565b92915050565b5f60208284031215610e5557610e54610c47565b5b5f610e6284828501610e2c565b9150509291505056fea2646970667358221220034bbce1a6d5f493341db4aa3dc4e8219e9495ba953878d20440e5666074f40f64736f6c634300081c0033",
  "linkReferences": {},
  "deployedLinkReferences": {}
}