{
  "_format": "hh-sol-artifact-1",
  "contractName": "OrionEncryptedVault",
  "sourceName": "contracts/vaults/OrionEncryptedVault.sol",
  "abi": [
    {
      "inputs": [
        {
          "internalType": "address",
          "name": "vaultOwner",
          "type": "address"
        },
        {
          "internalType": "address",
          "name": "curator",
          "type": "address"
        },
        {
          "internalType": "contract IOrionConfig",
          "name": "configAddress",
          "type": "address"
        },
        {
          "internalType": "string",
          "name": "name",
          "type": "string"
        },
        {
          "internalType": "string",
          "name": "symbol",
          "type": "string"
        },
        {
          "internalType": "uint8",
          "name": "feeType",
          "type": "uint8"
        },
        {
          "internalType": "uint16",
          "name": "performanceFee",
          "type": "uint16"
        },
        {
          "internalType": "uint16",
          "name": "managementFee",
          "type": "uint16"
        }
      ],
      "stateMutability": "nonpayable",
      "type": "constructor"
    },
    {
      "inputs": [],
      "name": "AlreadyRegistered",
      "type": "error"
    },
    {
      "inputs": [
        {
          "internalType": "address",
          "name": "asset",
          "type": "address"
        }
      ],
      "name": "AmountMustBeGreaterThanZero",
      "type": "error"
    },
    {
      "inputs": [
        {
          "internalType": "address",
          "name": "spender",
          "type": "address"
        },
        {
          "internalType": "uint256",
          "name": "allowance",
          "type": "uint256"
        },
        {
          "internalType": "uint256",
          "name": "needed",
          "type": "uint256"
        }
      ],
      "name": "ERC20InsufficientAllowance",
      "type": "error"
    },
    {
      "inputs": [
        {
          "internalType": "address",
          "name": "sender",
          "type": "address"
        },
        {
          "internalType": "uint256",
          "name": "balance",
          "type": "uint256"
        },
        {
          "internalType": "uint256",
          "name": "needed",
          "type": "uint256"
        }
      ],
      "name": "ERC20InsufficientBalance",
      "type": "error"
    },
    {
      "inputs": [
        {
          "internalType": "address",
          "name": "approver",
          "type": "address"
        }
      ],
      "name": "ERC20InvalidApprover",
      "type": "error"
    },
    {
      "inputs": [
        {
          "internalType": "address",
          "name": "receiver",
          "type": "address"
        }
      ],
      "name": "ERC20InvalidReceiver",
      "type": "error"
    },
    {
      "inputs": [
        {
          "internalType": "address",
          "name": "sender",
          "type": "address"
        }
      ],
      "name": "ERC20InvalidSender",
      "type": "error"
    },
    {
      "inputs": [
        {
          "internalType": "address",
          "name": "spender",
          "type": "address"
        }
      ],
      "name": "ERC20InvalidSpender",
      "type": "error"
    },
    {
      "inputs": [
        {
          "internalType": "address",
          "name": "receiver",
          "type": "address"
        },
        {
          "internalType": "uint256",
          "name": "assets",
          "type": "uint256"
        },
        {
          "internalType": "uint256",
          "name": "max",
          "type": "uint256"
        }
      ],
      "name": "ERC4626ExceededMaxDeposit",
      "type": "error"
    },
    {
      "inputs": [
        {
          "internalType": "address",
          "name": "receiver",
          "type": "address"
        },
        {
          "internalType": "uint256",
          "name": "shares",
          "type": "uint256"
        },
        {
          "internalType": "uint256",
          "name": "max",
          "type": "uint256"
        }
      ],
      "name": "ERC4626ExceededMaxMint",
      "type": "error"
    },
    {
      "inputs": [
        {
          "internalType": "address",
          "name": "owner",
          "type": "address"
        },
        {
          "internalType": "uint256",
          "name": "shares",
          "type": "uint256"
        },
        {
          "internalType": "uint256",
          "name": "max",
          "type": "uint256"
        }
      ],
      "name": "ERC4626ExceededMaxRedeem",
      "type": "error"
    },
    {
      "inputs": [
        {
          "internalType": "address",
          "name": "owner",
          "type": "address"
        },
        {
          "internalType": "uint256",
          "name": "assets",
          "type": "uint256"
        },
        {
          "internalType": "uint256",
          "name": "max",
          "type": "uint256"
        }
      ],
      "name": "ERC4626ExceededMaxWithdraw",
      "type": "error"
    },
    {
      "inputs": [],
      "name": "HandlesAlreadySavedForRequestID",
      "type": "error"
    },
    {
      "inputs": [],
      "name": "InsufficientAmount",
      "type": "error"
    },
    {
      "inputs": [],
      "name": "InvalidAddress",
      "type": "error"
    },
    {
      "inputs": [],
      "name": "InvalidArguments",
      "type": "error"
    },
    {
      "inputs": [],
      "name": "InvalidKMSSignatures",
      "type": "error"
    },
    {
      "inputs": [],
      "name": "InvalidUnderlyingDecimals",
      "type": "error"
    },
    {
      "inputs": [],
      "name": "NoHandleFoundForRequestID",
      "type": "error"
    },
    {
      "inputs": [],
      "name": "OrderIntentCannotBeEmpty",
      "type": "error"
    },
    {
      "inputs": [],
      "name": "ReentrancyGuardReentrantCall",
      "type": "error"
    },
    {
      "inputs": [],
      "name": "SynchronousCallDisabled",
      "type": "error"
    },
    {
      "inputs": [],
      "name": "SystemNotIdle",
      "type": "error"
    },
    {
      "inputs": [
        {
          "internalType": "address",
          "name": "token",
          "type": "address"
        }
      ],
      "name": "TokenAlreadyInOrder",
      "type": "error"
    },
    {
      "inputs": [
        {
          "internalType": "address",
          "name": "token",
          "type": "address"
        }
      ],
      "name": "TokenNotWhitelisted",
      "type": "error"
    },
    {
      "inputs": [],
      "name": "TransferFailed",
      "type": "error"
    },
    {
      "inputs": [],
      "name": "UnauthorizedAccess",
      "type": "error"
    },
    {
      "inputs": [],
      "name": "UnsupportedHandleType",
      "type": "error"
    },
    {
      "anonymous": false,
      "inputs": [
        {
          "indexed": true,
          "internalType": "address",
          "name": "owner",
          "type": "address"
        },
        {
          "indexed": true,
          "internalType": "address",
          "name": "spender",
          "type": "address"
        },
        {
          "indexed": false,
          "internalType": "uint256",
          "name": "value",
          "type": "uint256"
        }
      ],
      "name": "Approval",
      "type": "event"
    },
    {
      "anonymous": false,
      "inputs": [
        {
          "indexed": true,
          "internalType": "uint256",
          "name": "epoch",
          "type": "uint256"
        },
        {
          "indexed": true,
          "internalType": "uint256",
          "name": "feeAmount",
          "type": "uint256"
        },
        {
          "indexed": true,
          "internalType": "uint256",
          "name": "pendingCuratorFees",
          "type": "uint256"
        }
      ],
      "name": "CuratorFeesAccrued",
      "type": "event"
    },
    {
      "anonymous": false,
      "inputs": [
        {
          "indexed": true,
          "internalType": "address",
          "name": "newCurator",
          "type": "address"
        }
      ],
      "name": "CuratorUpdated",
      "type": "event"
    },
    {
      "anonymous": false,
      "inputs": [
        {
          "indexed": true,
          "internalType": "uint256",
          "name": "requestID",
          "type": "uint256"
        }
      ],
      "name": "DecryptionFulfilled",
      "type": "event"
    },
    {
      "anonymous": false,
      "inputs": [
        {
          "indexed": true,
          "internalType": "address",
          "name": "sender",
          "type": "address"
        },
        {
          "indexed": true,
          "internalType": "address",
          "name": "owner",
          "type": "address"
        },
        {
          "indexed": false,
          "internalType": "uint256",
          "name": "assets",
          "type": "uint256"
        },
        {
          "indexed": false,
          "internalType": "uint256",
          "name": "shares",
          "type": "uint256"
        }
      ],
      "name": "Deposit",
      "type": "event"
    },
    {
      "anonymous": false,
      "inputs": [
        {
          "indexed": true,
          "internalType": "address",
          "name": "user",
          "type": "address"
        },
        {
          "indexed": true,
          "internalType": "uint256",
          "name": "amount",
          "type": "uint256"
        },
        {
          "indexed": true,
          "internalType": "uint256",
          "name": "shares",
          "type": "uint256"
        }
      ],
      "name": "Deposit",
      "type": "event"
    },
    {
      "anonymous": false,
      "inputs": [
        {
          "indexed": true,
          "internalType": "address",
          "name": "sender",
          "type": "address"
        },
        {
          "indexed": true,
          "internalType": "uint256",
          "name": "assets",
          "type": "uint256"
        }
      ],
      "name": "DepositRequest",
      "type": "event"
    },
    {
      "anonymous": false,
      "inputs": [
        {
          "indexed": true,
          "internalType": "address",
          "name": "user",
          "type": "address"
        },
        {
          "indexed": true,
          "internalType": "uint256",
          "name": "amount",
          "type": "uint256"
        }
      ],
      "name": "DepositRequestCancelled",
      "type": "event"
    },
    {
      "anonymous": false,
      "inputs": [
        {
          "indexed": true,
          "internalType": "uint8",
          "name": "mode",
          "type": "uint8"
        },
        {
          "indexed": true,
          "internalType": "uint16",
          "name": "performanceFee",
          "type": "uint16"
        },
        {
          "indexed": true,
          "internalType": "uint16",
          "name": "managementFee",
          "type": "uint16"
        }
      ],
      "name": "FeeModelUpdated",
      "type": "event"
    },
    {
      "anonymous": false,
      "inputs": [
        {
          "indexed": true,
          "internalType": "address",
          "name": "curator",
          "type": "address"
        }
      ],
      "name": "OrderSubmitted",
      "type": "event"
    },
    {
      "anonymous": false,
      "inputs": [
        {
          "indexed": true,
          "internalType": "address",
          "name": "sender",
          "type": "address"
        },
        {
          "indexed": true,
          "internalType": "uint256",
          "name": "shares",
          "type": "uint256"
        }
      ],
      "name": "RedeemRequest",
      "type": "event"
    },
    {
      "anonymous": false,
      "inputs": [
        {
          "indexed": true,
          "internalType": "address",
          "name": "user",
          "type": "address"
        },
        {
          "indexed": true,
          "internalType": "uint256",
          "name": "shares",
          "type": "uint256"
        }
      ],
      "name": "RedeemRequestCancelled",
      "type": "event"
    },
    {
      "anonymous": false,
      "inputs": [
        {
          "indexed": true,
          "internalType": "address",
          "name": "from",
          "type": "address"
        },
        {
          "indexed": true,
          "internalType": "address",
          "name": "to",
          "type": "address"
        },
        {
          "indexed": false,
          "internalType": "uint256",
          "name": "value",
          "type": "uint256"
        }
      ],
      "name": "Transfer",
      "type": "event"
    },
    {
      "anonymous": false,
      "inputs": [
        {
          "indexed": true,
          "internalType": "uint256",
          "name": "newTotalAssets",
          "type": "uint256"
        }
      ],
      "name": "VaultStateUpdated",
      "type": "event"
    },
    {
      "anonymous": false,
      "inputs": [
        {
          "indexed": true,
          "internalType": "address",
          "name": "sender",
          "type": "address"
        },
        {
          "indexed": true,
          "internalType": "address",
          "name": "receiver",
          "type": "address"
        },
        {
          "indexed": true,
          "internalType": "address",
          "name": "owner",
          "type": "address"
        },
        {
          "indexed": false,
          "internalType": "uint256",
          "name": "assets",
          "type": "uint256"
        },
        {
          "indexed": false,
          "internalType": "uint256",
          "name": "shares",
          "type": "uint256"
        }
      ],
      "name": "Withdraw",
      "type": "event"
    },
    {
      "anonymous": false,
      "inputs": [
        {
          "indexed": true,
          "internalType": "address",
          "name": "user",
          "type": "address"
        },
        {
          "indexed": true,
          "internalType": "uint256",
          "name": "assets",
          "type": "uint256"
        },
        {
          "indexed": true,
          "internalType": "uint256",
          "name": "shares",
          "type": "uint256"
        }
      ],
      "name": "Withdraw",
      "type": "event"
    },
    {
      "inputs": [],
      "name": "BASIS_POINTS_FACTOR",
      "outputs": [
        {
          "internalType": "uint16",
          "name": "",
          "type": "uint16"
        }
      ],
      "stateMutability": "view",
      "type": "function"
    },
    {
      "inputs": [],
      "name": "MAX_MANAGEMENT_FEE",
      "outputs": [
        {
          "internalType": "uint16",
          "name": "",
          "type": "uint16"
        }
      ],
      "stateMutability": "view",
      "type": "function"
    },
    {
      "inputs": [],
      "name": "MAX_PERFORMANCE_FEE",
      "outputs": [
        {
          "internalType": "uint16",
          "name": "",
          "type": "uint16"
        }
      ],
      "stateMutability": "view",
      "type": "function"
    },
    {
      "inputs": [],
      "name": "SHARE_DECIMALS",
      "outputs": [
        {
          "internalType": "uint8",
          "name": "",
          "type": "uint8"
        }
      ],
      "stateMutability": "view",
      "type": "function"
    },
    {
      "inputs": [],
      "name": "YEAR_IN_SECONDS",
      "outputs": [
        {
          "internalType": "uint32",
          "name": "",
          "type": "uint32"
        }
      ],
      "stateMutability": "view",
      "type": "function"
    },
    {
      "inputs": [
        {
          "internalType": "uint256",
          "name": "epoch",
          "type": "uint256"
        },
        {
          "internalType": "uint256",
          "name": "feeAmount",
          "type": "uint256"
        }
      ],
      "name": "accrueCuratorFees",
      "outputs": [],
      "stateMutability": "nonpayable",
      "type": "function"
    },
    {
      "inputs": [
        {
          "internalType": "address",
          "name": "owner",
          "type": "address"
        },
        {
          "internalType": "address",
          "name": "spender",
          "type": "address"
        }
      ],
      "name": "allowance",
      "outputs": [
        {
          "internalType": "uint256",
          "name": "",
          "type": "uint256"
        }
      ],
      "stateMutability": "view",
      "type": "function"
    },
    {
      "inputs": [
        {
          "internalType": "address",
          "name": "spender",
          "type": "address"
        },
        {
          "internalType": "uint256",
          "name": "value",
          "type": "uint256"
        }
      ],
      "name": "approve",
      "outputs": [
        {
          "internalType": "bool",
          "name": "",
          "type": "bool"
        }
      ],
      "stateMutability": "nonpayable",
      "type": "function"
    },
    {
      "inputs": [],
      "name": "asset",
      "outputs": [
        {
          "internalType": "address",
          "name": "",
          "type": "address"
        }
      ],
      "stateMutability": "view",
      "type": "function"
    },
    {
      "inputs": [
        {
          "internalType": "address",
          "name": "account",
          "type": "address"
        }
      ],
      "name": "balanceOf",
      "outputs": [
        {
          "internalType": "uint256",
          "name": "",
          "type": "uint256"
        }
      ],
      "stateMutability": "view",
      "type": "function"
    },
    {
      "inputs": [
        {
          "internalType": "uint256",
          "name": "requestID",
          "type": "uint256"
        },
        {
          "internalType": "bool",
          "name": "decryptedInput",
          "type": "bool"
        },
        {
          "internalType": "bytes[]",
          "name": "signatures",
          "type": "bytes[]"
        }
      ],
      "name": "callbackDecryptSingleEbool",
      "outputs": [],
      "stateMutability": "nonpayable",
      "type": "function"
    },
    {
      "inputs": [
        {
          "internalType": "uint256",
          "name": "amount",
          "type": "uint256"
        }
      ],
      "name": "cancelDepositRequest",
      "outputs": [],
      "stateMutability": "nonpayable",
      "type": "function"
    },
    {
      "inputs": [
        {
          "internalType": "uint256",
          "name": "shares",
          "type": "uint256"
        }
      ],
      "name": "cancelRedeemRequest",
      "outputs": [],
      "stateMutability": "nonpayable",
      "type": "function"
    },
    {
      "inputs": [
        {
          "internalType": "uint256",
          "name": "amount",
          "type": "uint256"
        }
      ],
      "name": "claimCuratorFees",
      "outputs": [],
      "stateMutability": "nonpayable",
      "type": "function"
    },
    {
      "inputs": [],
      "name": "config",
      "outputs": [
        {
          "internalType": "contract IOrionConfig",
          "name": "",
          "type": "address"
        }
      ],
      "stateMutability": "view",
      "type": "function"
    },
    {
      "inputs": [
        {
          "internalType": "uint256",
          "name": "shares",
          "type": "uint256"
        }
      ],
      "name": "convertToAssets",
      "outputs": [
        {
          "internalType": "uint256",
          "name": "",
          "type": "uint256"
        }
      ],
      "stateMutability": "view",
      "type": "function"
    },
    {
      "inputs": [
        {
          "internalType": "uint256",
          "name": "shares",
          "type": "uint256"
        },
        {
          "internalType": "uint256",
          "name": "pointInTimeTotalAssets",
          "type": "uint256"
        },
        {
          "internalType": "enum Math.Rounding",
          "name": "rounding",
          "type": "uint8"
        }
      ],
      "name": "convertToAssetsWithPITTotalAssets",
      "outputs": [
        {
          "internalType": "uint256",
          "name": "",
          "type": "uint256"
        }
      ],
      "stateMutability": "view",
      "type": "function"
    },
    {
      "inputs": [
        {
          "internalType": "uint256",
          "name": "assets",
          "type": "uint256"
        }
      ],
      "name": "convertToShares",
      "outputs": [
        {
          "internalType": "uint256",
          "name": "",
          "type": "uint256"
        }
      ],
      "stateMutability": "view",
      "type": "function"
    },
    {
      "inputs": [],
      "name": "curator",
      "outputs": [
        {
          "internalType": "address",
          "name": "",
          "type": "address"
        }
      ],
      "stateMutability": "view",
      "type": "function"
    },
    {
      "inputs": [
        {
          "internalType": "uint256",
          "name": "activeTotalAssets",
          "type": "uint256"
        }
      ],
      "name": "curatorFee",
      "outputs": [
        {
          "internalType": "uint256",
          "name": "",
          "type": "uint256"
        }
      ],
      "stateMutability": "view",
      "type": "function"
    },
    {
      "inputs": [],
      "name": "curatorIntentDecimals",
      "outputs": [
        {
          "internalType": "uint8",
          "name": "",
          "type": "uint8"
        }
      ],
      "stateMutability": "view",
      "type": "function"
    },
    {
      "inputs": [],
      "name": "decimals",
      "outputs": [
        {
          "internalType": "uint8",
          "name": "",
          "type": "uint8"
        }
      ],
      "stateMutability": "view",
      "type": "function"
    },
    {
      "inputs": [
        {
          "internalType": "uint256",
          "name": "",
          "type": "uint256"
        },
        {
          "internalType": "address",
          "name": "",
          "type": "address"
        }
      ],
      "name": "deposit",
      "outputs": [
        {
          "internalType": "uint256",
          "name": "",
          "type": "uint256"
        }
      ],
      "stateMutability": "pure",
      "type": "function"
    },
    {
      "inputs": [],
      "name": "feeModel",
      "outputs": [
        {
          "internalType": "enum OrionVault.FeeType",
          "name": "feeType",
          "type": "uint8"
        },
        {
          "internalType": "uint16",
          "name": "performanceFee",
          "type": "uint16"
        },
        {
          "internalType": "uint16",
          "name": "managementFee",
          "type": "uint16"
        },
        {
          "internalType": "uint256",
          "name": "highWaterMark",
          "type": "uint256"
        }
      ],
      "stateMutability": "view",
      "type": "function"
    },
    {
      "inputs": [],
      "name": "fulfillDeposit",
      "outputs": [],
      "stateMutability": "nonpayable",
      "type": "function"
    },
    {
      "inputs": [],
      "name": "fulfillRedeem",
      "outputs": [],
      "stateMutability": "nonpayable",
      "type": "function"
    },
    {
      "inputs": [],
      "name": "getIntent",
      "outputs": [
        {
          "internalType": "address[]",
          "name": "tokens",
          "type": "address[]"
        },
        {
          "internalType": "euint32[]",
          "name": "weights",
          "type": "bytes32[]"
        }
      ],
      "stateMutability": "view",
      "type": "function"
    },
    {
      "inputs": [],
      "name": "getPortfolio",
      "outputs": [
        {
          "internalType": "address[]",
          "name": "tokens",
          "type": "address[]"
        },
        {
          "internalType": "euint32[]",
          "name": "sharesPerAsset",
          "type": "bytes32[]"
        }
      ],
      "stateMutability": "view",
      "type": "function"
    },
    {
      "inputs": [],
      "name": "internalStatesOrchestrator",
      "outputs": [
        {
          "internalType": "contract IInternalStateOrchestrator",
          "name": "",
          "type": "address"
        }
      ],
      "stateMutability": "view",
      "type": "function"
    },
    {
      "inputs": [],
      "name": "isIntentValid",
      "outputs": [
        {
          "internalType": "bool",
          "name": "",
          "type": "bool"
        }
      ],
      "stateMutability": "view",
      "type": "function"
    },
    {
      "inputs": [],
      "name": "liquidityOrchestrator",
      "outputs": [
        {
          "internalType": "contract ILiquidityOrchestrator",
          "name": "",
          "type": "address"
        }
      ],
      "stateMutability": "view",
      "type": "function"
    },
    {
      "inputs": [
        {
          "internalType": "address",
          "name": "",
          "type": "address"
        }
      ],
      "name": "maxDeposit",
      "outputs": [
        {
          "internalType": "uint256",
          "name": "",
          "type": "uint256"
        }
      ],
      "stateMutability": "view",
      "type": "function"
    },
    {
      "inputs": [
        {
          "internalType": "address",
          "name": "",
          "type": "address"
        }
      ],
      "name": "maxMint",
      "outputs": [
        {
          "internalType": "uint256",
          "name": "",
          "type": "uint256"
        }
      ],
      "stateMutability": "view",
      "type": "function"
    },
    {
      "inputs": [
        {
          "internalType": "address",
          "name": "owner",
          "type": "address"
        }
      ],
      "name": "maxRedeem",
      "outputs": [
        {
          "internalType": "uint256",
          "name": "",
          "type": "uint256"
        }
      ],
      "stateMutability": "view",
      "type": "function"
    },
    {
      "inputs": [
        {
          "internalType": "address",
          "name": "owner",
          "type": "address"
        }
      ],
      "name": "maxWithdraw",
      "outputs": [
        {
          "internalType": "uint256",
          "name": "",
          "type": "uint256"
        }
      ],
      "stateMutability": "view",
      "type": "function"
    },
    {
      "inputs": [
        {
          "internalType": "uint256",
          "name": "",
          "type": "uint256"
        },
        {
          "internalType": "address",
          "name": "",
          "type": "address"
        }
      ],
      "name": "mint",
      "outputs": [
        {
          "internalType": "uint256",
          "name": "",
          "type": "uint256"
        }
      ],
      "stateMutability": "pure",
      "type": "function"
    },
    {
      "inputs": [],
      "name": "name",
      "outputs": [
        {
          "internalType": "string",
          "name": "",
          "type": "string"
        }
      ],
      "stateMutability": "view",
      "type": "function"
    },
    {
      "inputs": [],
      "name": "pendingCuratorFees",
      "outputs": [
        {
          "internalType": "uint256",
          "name": "",
          "type": "uint256"
        }
      ],
      "stateMutability": "view",
      "type": "function"
    },
    {
      "inputs": [],
      "name": "pendingDeposit",
      "outputs": [
        {
          "internalType": "uint256",
          "name": "",
          "type": "uint256"
        }
      ],
      "stateMutability": "view",
      "type": "function"
    },
    {
      "inputs": [],
      "name": "pendingRedeem",
      "outputs": [
        {
          "internalType": "uint256",
          "name": "",
          "type": "uint256"
        }
      ],
      "stateMutability": "view",
      "type": "function"
    },
    {
      "inputs": [
        {
          "internalType": "uint256",
          "name": "",
          "type": "uint256"
        }
      ],
      "name": "previewDeposit",
      "outputs": [
        {
          "internalType": "uint256",
          "name": "",
          "type": "uint256"
        }
      ],
      "stateMutability": "pure",
      "type": "function"
    },
    {
      "inputs": [
        {
          "internalType": "uint256",
          "name": "",
          "type": "uint256"
        }
      ],
      "name": "previewMint",
      "outputs": [
        {
          "internalType": "uint256",
          "name": "",
          "type": "uint256"
        }
      ],
      "stateMutability": "pure",
      "type": "function"
    },
    {
      "inputs": [
        {
          "internalType": "uint256",
          "name": "",
          "type": "uint256"
        }
      ],
      "name": "previewRedeem",
      "outputs": [
        {
          "internalType": "uint256",
          "name": "",
          "type": "uint256"
        }
      ],
      "stateMutability": "pure",
      "type": "function"
    },
    {
      "inputs": [
        {
          "internalType": "uint256",
          "name": "",
          "type": "uint256"
        }
      ],
      "name": "previewWithdraw",
      "outputs": [
        {
          "internalType": "uint256",
          "name": "",
          "type": "uint256"
        }
      ],
      "stateMutability": "pure",
      "type": "function"
    },
    {
      "inputs": [
        {
          "internalType": "uint256",
          "name": "",
          "type": "uint256"
        },
        {
          "internalType": "address",
          "name": "",
          "type": "address"
        },
        {
          "internalType": "address",
          "name": "",
          "type": "address"
        }
      ],
      "name": "redeem",
      "outputs": [
        {
          "internalType": "uint256",
          "name": "",
          "type": "uint256"
        }
      ],
      "stateMutability": "pure",
      "type": "function"
    },
    {
      "inputs": [
        {
          "internalType": "uint256",
          "name": "assets",
          "type": "uint256"
        }
      ],
      "name": "requestDeposit",
      "outputs": [],
      "stateMutability": "nonpayable",
      "type": "function"
    },
    {
      "inputs": [
        {
          "internalType": "uint256",
          "name": "shares",
          "type": "uint256"
        }
      ],
      "name": "requestRedeem",
      "outputs": [],
      "stateMutability": "nonpayable",
      "type": "function"
    },
    {
      "inputs": [
        {
          "components": [
            {
              "internalType": "address",
              "name": "token",
              "type": "address"
            },
            {
              "internalType": "externalEuint32",
              "name": "weight",
              "type": "bytes32"
            }
          ],
          "internalType": "struct IOrionEncryptedVault.EncryptedIntent[]",
          "name": "intent",
          "type": "tuple[]"
        },
        {
          "internalType": "bytes",
          "name": "inputProof",
          "type": "bytes"
        }
      ],
      "name": "submitIntent",
      "outputs": [],
      "stateMutability": "nonpayable",
      "type": "function"
    },
    {
      "inputs": [],
      "name": "symbol",
      "outputs": [
        {
          "internalType": "string",
          "name": "",
          "type": "string"
        }
      ],
      "stateMutability": "view",
      "type": "function"
    },
    {
      "inputs": [],
      "name": "totalAssets",
      "outputs": [
        {
          "internalType": "uint256",
          "name": "",
          "type": "uint256"
        }
      ],
      "stateMutability": "view",
      "type": "function"
    },
    {
      "inputs": [],
      "name": "totalSupply",
      "outputs": [
        {
          "internalType": "uint256",
          "name": "",
          "type": "uint256"
        }
      ],
      "stateMutability": "view",
      "type": "function"
    },
    {
      "inputs": [
        {
          "internalType": "address",
          "name": "to",
          "type": "address"
        },
        {
          "internalType": "uint256",
          "name": "value",
          "type": "uint256"
        }
      ],
      "name": "transfer",
      "outputs": [
        {
          "internalType": "bool",
          "name": "",
          "type": "bool"
        }
      ],
      "stateMutability": "nonpayable",
      "type": "function"
    },
    {
      "inputs": [
        {
          "internalType": "address",
          "name": "from",
          "type": "address"
        },
        {
          "internalType": "address",
          "name": "to",
          "type": "address"
        },
        {
          "internalType": "uint256",
          "name": "value",
          "type": "uint256"
        }
      ],
      "name": "transferFrom",
      "outputs": [
        {
          "internalType": "bool",
          "name": "",
          "type": "bool"
        }
      ],
      "stateMutability": "nonpayable",
      "type": "function"
    },
    {
      "inputs": [
        {
          "internalType": "address",
          "name": "newCurator",
          "type": "address"
        }
      ],
      "name": "updateCurator",
      "outputs": [],
      "stateMutability": "nonpayable",
      "type": "function"
    },
    {
      "inputs": [
        {
          "internalType": "uint8",
          "name": "feeType",
          "type": "uint8"
        },
        {
          "internalType": "uint16",
          "name": "performanceFee",
          "type": "uint16"
        },
        {
          "internalType": "uint16",
          "name": "managementFee",
          "type": "uint16"
        }
      ],
      "name": "updateFeeModel",
      "outputs": [],
      "stateMutability": "nonpayable",
      "type": "function"
    },
    {
      "inputs": [],
      "name": "updateHighWaterMark",
      "outputs": [],
      "stateMutability": "nonpayable",
      "type": "function"
    },
    {
      "inputs": [
        {
          "components": [
            {
              "internalType": "address",
              "name": "token",
              "type": "address"
            },
            {
              "internalType": "euint32",
              "name": "value",
              "type": "bytes32"
            }
          ],
          "internalType": "struct IOrionEncryptedVault.EncryptedPortfolio[]",
          "name": "portfolio",
          "type": "tuple[]"
        },
        {
          "internalType": "uint256",
          "name": "newTotalAssets",
          "type": "uint256"
        }
      ],
      "name": "updateVaultState",
      "outputs": [],
      "stateMutability": "nonpayable",
      "type": "function"
    },
    {
      "inputs": [
        {
          "internalType": "address[]",
          "name": "assets",
          "type": "address[]"
        }
      ],
      "name": "updateVaultWhitelist",
      "outputs": [],
      "stateMutability": "nonpayable",
      "type": "function"
    },
    {
      "inputs": [],
      "name": "vaultOwner",
      "outputs": [
        {
          "internalType": "address",
          "name": "",
          "type": "address"
        }
      ],
      "stateMutability": "view",
      "type": "function"
    },
    {
      "inputs": [],
      "name": "vaultWhitelist",
      "outputs": [
        {
          "internalType": "address[]",
          "name": "",
          "type": "address[]"
        }
      ],
      "stateMutability": "view",
      "type": "function"
    },
    {
      "inputs": [
        {
          "internalType": "uint256",
          "name": "",
          "type": "uint256"
        },
        {
          "internalType": "address",
          "name": "",
          "type": "address"
        },
        {
          "internalType": "address",
          "name": "",
          "type": "address"
        }
      ],
      "name": "withdraw",
      "outputs": [
        {
          "internalType": "uint256",
          "name": "",
          "type": "uint256"
        }
      ],
      "stateMutability": "pure",
      "type": "function"
    }
  ],
  "bytecode": "0x60c060405234801561000f575f5ffd5b5060405161565f38038061565f83398101604081905261002e91610b63565b8787878787878787856001600160a01b0316637158da7c6040518163ffffffff1660e01b8152600401602060405180830381865afa158015610072573d5f5f3e3d5ffd5b505050506040513d601f19601f820116820180604052508101906100969190610c32565b858561013b610136604080516080810182525f80825260208201819052918101829052606081019190915250604080516080810182527350157cffd6bbfa2dece204a89ec419c23ef5755d815273cd3ab3bd6bcc0c0bf3e27912a92043e817b1cf696020820152731364cbbf2cdf5032c47d8226a6f6fbd2afcdacac9181019190915273901f8942346f7ab3a01f6d7613119bca447bb030606082015290565b610623565b61015873a02cda4ca3a71d7c46997716f4283aa851c288126106dc565b60036101648382610cd1565b5060046101718282610cd1565b5050505f5f6101858361071960201b60201c565b9150915081610195576012610197565b805b60ff1660a05250506001600160a01b03908116608052600160055587166101d15760405163e6c4247b60e01b815260040160405180910390fd5b6001600160a01b0386166101f85760405163e6c4247b60e01b815260040160405180910390fd5b600680546001600160a01b03808b166001600160a01b031992831617909255600780548a841690831617905560088054928916929091168217905560408051630691d8b960e31b8152905163348ec5c8916004808201926020929091908290030181865afa15801561026c573d5f5f3e3d5ffd5b505050506040513d601f19601f820116820180604052508101906102909190610c32565b60095f6101000a8154816001600160a01b0302191690836001600160a01b03160217905550856001600160a01b0316633a0dad8e6040518163ffffffff1660e01b8152600401602060405180830381865afa1580156102f1573d5f5f3e3d5ffd5b505050506040513d601f19601f820116820180604052508101906103159190610c32565b600a5f6101000a8154816001600160a01b0302191690836001600160a01b03160217905550856001600160a01b031663d1717c7d6040518163ffffffff1660e01b8152600401602060405180830381865afa158015610376573d5f5f3e3d5ffd5b505050506040513d601f19601f8201168201806040525081019061039a9190610d8b565b600a60146101000a81548160ff021916908360ff1602179055505f600d819055505f6014819055505f6015819055505f866001600160a01b0316637158da7c6040518163ffffffff1660e01b8152600401602060405180830381865afa158015610406573d5f5f3e3d5ffd5b505050506040513d601f19601f8201168201806040525081019061042a9190610c32565b6001600160a01b031663313ce5676040518163ffffffff1660e01b8152600401602060405180830381865afa158015610465573d5f5f3e3d5ffd5b505050506040513d601f19601f820116820180604052508101906104899190610d8b565b9050601260ff821611156104b057604051631c03248960e11b815260040160405180910390fd5b600460ff851611156104d5576040516317dbc4cb60e21b815260040160405180910390fd5b610bb861ffff841611156104fc576040516317dbc4cb60e21b815260040160405180910390fd5b61012c61ffff83161115610523576040516317dbc4cb60e21b815260040160405180910390fd5b8360ff16600481111561053857610538610da4565b6017805460ff1916600183600481111561055457610554610da4565b02179055506017805461ffff84811663010000000264ffff00000019918716610100029190911664ffffffff0019909216919091171790556105986012600a610eaf565b6018556105a36107ef565b5050505050505050506105bb5f6108c460201b60201c565b601e556105c860016108dc565b601f55600a80546105ec916105e791600160a01b900460ff1690610eaf565b6108c4565b602055601e546105fb906108f7565b50601f54610608906108f7565b50602054610615906108f7565b505050505050505050610fe0565b80515f51602061561f5f395f51905f5280546001600160a01b03199081166001600160a01b039384161790915560208301515f51602061563f5f395f51905f528054831691841691909117905560408301517fed8d60e34876f751cc8b014c560745351147d9de11b9347c854e881b128ea6028054831691841691909117905560608301517fed8d60e34876f751cc8b014c560745351147d9de11b9347c854e881b128ea6038054909216921691909117905550565b50565b7f5ea69329017273582817d320489fbd94f775580e90c092699ca6f3d12fdf7d0080546001600160a01b0319166001600160a01b03831617905550565b60408051600481526024810182526020810180516001600160e01b031663313ce56760e01b17905290515f918291829182916001600160a01b0387169161075f91610ebd565b5f60405180830381855afa9150503d805f8114610797576040519150601f19603f3d011682016040523d82523d5f602084013e61079c565b606091505b50915091508180156107b057506020815110155b156107e3575f818060200190518101906107ca9190610ed3565b905060ff81116107e1576001969095509350505050565b505b505f9485945092505050565b60085460408051636c366a2760e11b815290515f926001600160a01b03169163d86cd44e91600480830192869291908290030181865afa158015610835573d5f5f3e3d5ffd5b505050506040513d5f823e601f3d908101601f1916820160405261085c9190810190610eea565b90505f5b81518110156108c0575f61089783838151811061087f5761087f610f9c565b6020026020010151600b61090660201b90919060201c565b9050806108b757604051630ea075bf60e21b815260040160405180910390fd5b50600101610860565b5050565b5f6108d663ffffffff83166004610921565b92915050565b5f6108d6826108eb575f6108ee565b60015b60ff165f610921565b5f61090282306109b8565b5090565b5f61091a836001600160a01b038416610a2e565b9392505050565b5f51602061563f5f395f51905f5254604051639cd07acb60e01b81525f915f51602061561f5f395f51905f52916001600160a01b0390911690639cd07acb906109709087908790600401610fb0565b6020604051808303815f875af115801561098c573d5f5f3e3d5ffd5b505050506040513d601f19601f820116820180604052508101906109b09190610ed3565b949350505050565b5f5f51602061561f5f395f51905f528054604051635ca4b5b160e11b8152600481018690526001600160a01b03858116602483015292935091169063b9496b62906044015f604051808303815f87803b158015610a13575f5ffd5b505af1158015610a25573d5f5f3e3d5ffd5b50505050505050565b5f818152600183016020526040812054610a7357508154600181810184555f8481526020808220909301849055845484825282860190935260409020919091556108d6565b505f6108d6565b6001600160a01b03811681146106d9575f5ffd5b634e487b7160e01b5f52604160045260245ffd5b604051601f8201601f191681016001600160401b0381118282101715610aca57610aca610a8e565b604052919050565b5f82601f830112610ae1575f5ffd5b81516001600160401b03811115610afa57610afa610a8e565b610b0d601f8201601f1916602001610aa2565b818152846020838601011115610b21575f5ffd5b8160208501602083015e5f918101602001919091529392505050565b805160ff81168114610b4d575f5ffd5b919050565b805161ffff81168114610b4d575f5ffd5b5f5f5f5f5f5f5f5f610100898b031215610b7b575f5ffd5b8851610b8681610a7a565b60208a0151909850610b9781610a7a565b60408a0151909750610ba881610a7a565b60608a01519096506001600160401b03811115610bc3575f5ffd5b610bcf8b828c01610ad2565b60808b015190965090506001600160401b03811115610bec575f5ffd5b610bf88b828c01610ad2565b945050610c0760a08a01610b3d565b9250610c1560c08a01610b52565b9150610c2360e08a01610b52565b90509295985092959890939650565b5f60208284031215610c42575f5ffd5b815161091a81610a7a565b600181811c90821680610c6157607f821691505b602082108103610c7f57634e487b7160e01b5f52602260045260245ffd5b50919050565b601f821115610ccc57805f5260205f20601f840160051c81016020851015610caa5750805b601f840160051c820191505b81811015610cc9575f8155600101610cb6565b50505b505050565b81516001600160401b03811115610cea57610cea610a8e565b610cfe81610cf88454610c4d565b84610c85565b6020601f821160018114610d30575f8315610d195750848201515b5f19600385901b1c1916600184901b178455610cc9565b5f84815260208120601f198516915b82811015610d5f5787850151825560209485019460019092019101610d3f565b5084821015610d7c57868401515f19600387901b60f8161c191681555b50505050600190811b01905550565b5f60208284031215610d9b575f5ffd5b61091a82610b3d565b634e487b7160e01b5f52602160045260245ffd5b634e487b7160e01b5f52601160045260245ffd5b6001815b6001841115610e0757808504811115610deb57610deb610db8565b6001841615610df957908102905b60019390931c928002610dd0565b935093915050565b5f82610e1d575060016108d6565b81610e2957505f6108d6565b8160018114610e3f5760028114610e4957610e65565b60019150506108d6565b60ff841115610e5a57610e5a610db8565b50506001821b6108d6565b5060208310610133831016604e8410600b8410161715610e88575081810a6108d6565b610e945f198484610dcc565b805f1904821115610ea757610ea7610db8565b029392505050565b5f61091a60ff841683610e0f565b5f82518060208501845e5f920191825250919050565b5f60208284031215610ee3575f5ffd5b5051919050565b5f60208284031215610efa575f5ffd5b81516001600160401b03811115610f0f575f5ffd5b8201601f81018413610f1f575f5ffd5b80516001600160401b03811115610f3857610f38610a8e565b8060051b610f4860208201610aa2565b91825260208184018101929081019087841115610f63575f5ffd5b6020850194505b83851015610f915784519250610f7f83610a7a565b82825260209485019490910190610f6a565b979650505050505050565b634e487b7160e01b5f52603260045260245ffd5b8281526040810160548310610fd357634e487b7160e01b5f52602160045260245ffd5b8260208301529392505050565b60805160a051614621610ffe5f395f50505f61103701526146215ff3fe608060405234801561000f575f5ffd5b50600436106102cc575f3560e01c806394bf804d1161018157806394bf804d1461048b5780639531a485146104fb57806395d89b411461050357806397ee11441461050b5780639908840c146105415780639adb29811461054a578063a68a52671461055d578063a9059cbb14610570578063aa2f892d14610583578063acdb3d5114610596578063b3d7f6b914610347578063b460af941461059f578063b6eba653146105ad578063ba0876521461059f578063bdca9165146105c3578063c0b568e1146105cc578063c392e58c146105df578063c3f0d30e146105f2578063c63d75b61461044f578063c6e6f59214610605578063ce96cb7714610618578063d1717c7d1461062b578063d3d034581461063f578063d853365f14610647578063d905777e1461064f578063dceb7e2814610662578063dd62ed3e1461066f578063e51a85f614610682578063e66f53b714610695578063ef8b30f714610347578063f64c6f32146106a8575f5ffd5b806301e1d114146102d057806303d44854146102e757806306fdde03146102fc57806307a2d13a14610311578063095ea7b3146103245780630a28a477146103475780630a605c6d1461035a5780630c6a62dd146103625780630d1e6667146103755780630df571f71461038857806310121fed1461039b57806318160ddd146103a357806318c21949146103ab5780631f52692b146103be57806323b872dd146103de5780632dae2967146103f1578063313ce567146103f9578063348ec5c81461040e57806338d52e0f146104215780633a0dad8e146104295780633ab6d27c1461043c578063402d267d1461044f5780634cdad506146103475780634e85b1351461046357806358df8301146104785780636e553f651461048b57806370a08231146104995780637847ea53146104ac57806379502c55146104cc5780638f5c9465146104df575b5f5ffd5b600d545b6040519081526020015b60405180910390f35b6102fa6102f5366004613b5a565b6106b0565b005b6103046107ea565b6040516102de9190613bc6565b6102d461031f366004613bd8565b61087a565b610337610332366004613c0a565b61088b565b60405190151581526020016102de565b6102d4610355366004613bd8565b6108a2565b6015546102d4565b6102fa610370366004613c32565b6108bc565b6102fa610383366004613bd8565b610957565b6102fa610396366004613c4b565b610bc8565b6102fa610c43565b6002546102d4565b6102fa6103b9366004613bd8565b610ef2565b6006546103d1906001600160a01b031681565b6040516102de9190613c6b565b6103376103ec366004613c7f565b610fc1565b6102fa610fe6565b60125b60405160ff90911681526020016102de565b6009546103d1906001600160a01b031681565b6103d1611035565b600a546103d1906001600160a01b031681565b6102fa61044a366004613cd6565b611059565b6102d461045d366004613c32565b505f1990565b61046b611226565b6040516102de9190613d61565b6102fa610486366004613d80565b611237565b6102d4610355366004613dd7565b6102d46104a7366004613c32565b611260565b6104b76301e1338081565b60405163ffffffff90911681526020016102de565b6008546103d1906001600160a01b031681565b6104e861271081565b60405161ffff90911681526020016102de565b6102fa61127a565b6103046114ba565b6017546018546105319160ff81169161ffff610100830481169263010000009004169084565b6040516102de9493929190613e15565b6104e861012c81565b6102fa610558366004613e87565b6114c9565b6102d461056b366004613ece565b611673565b61033761057e366004613c0a565b6116b3565b6102fa610591366004613bd8565b6116c0565b6102d460165481565b6102d4610355366004613efc565b6105b5611899565b6040516102de929190613f35565b6104e8610bb881565b6102fa6105da366004613bd8565b611a1a565b6102fa6105ed366004613f8d565b611bd4565b6102fa610600366004613bd8565b612067565b6102d4610613366004613bd8565b61225b565b6102d4610626366004613c32565b612266565b600a546103fc90600160a01b900460ff1681565b6105b5612279565b6103fc601281565b6102d461065d366004613c32565b6123dd565b6021546103379060ff1681565b6102d461067d366004614023565b6123e7565b6102d4610690366004613bd8565b612411565b6007546103d1906001600160a01b031681565b6014546102d4565b6006546001600160a01b031633146106db57604051631a27eac360e11b815260040160405180910390fd5b6106e5600b61244a565b5f5b818110156107e5575f8383838181106107025761070261404b565b90506020020160208101906107179190613c32565b600854604051633af32abf60e01b81529192506001600160a01b031690633af32abf90610748908490600401613c6b565b602060405180830381865afa158015610763573d5f5f3e3d5ffd5b505050506040513d601f19601f82011682018060405250810190610787919061405f565b6107af578060405163751dff9760e11b81526004016107a69190613c6b565b60405180910390fd5b5f6107bb600b83612453565b9050806107db57604051630ea075bf60e21b815260040160405180910390fd5b50506001016106e7565b505050565b6060600380546107f99061407a565b80601f01602080910402602001604051908101604052809291908181526020018280546108259061407a565b80156108705780601f1061084757610100808354040283529160200191610870565b820191905f5260205f20905b81548152906001019060200180831161085357829003601f168201915b5050505050905090565b5f610885825f612467565b92915050565b5f336108988185856124a8565b5060019392505050565b5f60405163125ad87760e31b815260040160405180910390fd5b6006546001600160a01b031633146108e757604051631a27eac360e11b815260040160405180910390fd5b6001600160a01b03811661090e5760405163e6c4247b60e01b815260040160405180910390fd5b600780546001600160a01b0319166001600160a01b0383169081179091556040517f83293ffeebb677b167941693470018acf300605df266a35e9fdb66f24ff00fe0905f90a250565b61095f6124b5565b60085f9054906101000a90046001600160a01b03166001600160a01b031663edcf9c1f6040518163ffffffff1660e01b8152600401602060405180830381865afa1580156109af573d5f5f3e3d5ffd5b505050506040513d601f19601f820116820180604052508101906109d3919061405f565b6109f0576040516312aecd8160e01b815260040160405180910390fd5b805f03610a19576109ff611035565b604051636b30633560e01b81526004016107a69190613c6b565b5f610a22611035565b6001600160a01b03166370a08231336040518263ffffffff1660e01b8152600401610a4d9190613c6b565b602060405180830381865afa158015610a68573d5f5f3e3d5ffd5b505050506040513d601f19601f82011682018060405250810190610a8c91906140b2565b905080821115610aaf57604051632ca2f52b60e11b815260040160405180910390fd5b5f610ab8611035565b600a546040516323b872dd60e01b81526001600160a01b03928316926323b872dd92610aee9233929091169088906004016140c9565b6020604051808303815f875af1158015610b0a573d5f5f3e3d5ffd5b505050506040513d601f19601f82011682018060405250810190610b2e919061405f565b905080610b4e576040516312171d8360e31b815260040160405180910390fd5b5f610b5a600e336124df565b9150610b75905033610b6c8684614101565b600e9190612505565b508360145f828254610b879190614101565b9091555050604051849033907f55896b30a78fc55b78937f8014dde3f0035e9d37a4f6ac36841fb8b62f7e2b13905f90a3505050610bc56001600555565b50565b600a546001600160a01b03163314610bf357604051631a27eac360e11b815260040160405180910390fd5b8015610c3f578060165f828254610c0a9190614101565b9091555050601654604051829084907f8b8789cf9157fe7b016901e4ed3a5d0971caa8b7c031da0b25638ccf65841b2a905f90a45b5050565b600a546001600160a01b03163314610c6e57604051631a27eac360e11b815260040160405180910390fd5b610c766124b5565b5f610c81601161251a565b90505f8163ffffffff166001600160401b03811115610ca257610ca2614114565b604051908082528060200260200182016040528015610ccb578160200160208202803683370190505b5090505f8263ffffffff166001600160401b03811115610ced57610ced614114565b604051908082528060200260200182016040528015610d16578160200160208202803683370190505b5090505f5b8363ffffffff168163ffffffff161015610db0575f80610d45601163ffffffff8086169061252416565b9150915081858463ffffffff1681518110610d6257610d6261404b565b60200260200101906001600160a01b031690816001600160a01b03168152505080848463ffffffff1681518110610d9b57610d9b61404b565b60209081029190910101525050600101610d1b565b505f60158190555b8363ffffffff168163ffffffff161015610ee2575f838263ffffffff1681518110610de557610de561404b565b602002602001015190505f838363ffffffff1681518110610e0857610e0861404b565b60200260200101519050610e2682601161253290919063ffffffff16565b505f610e318261087a565b9050610e3d3083612546565b600a54604051634adfc2e760e01b81526001600160a01b0390911690634adfc2e790610e6f9086908590600401614128565b5f604051808303815f87803b158015610e86575f5ffd5b505af1158015610e98573d5f5f3e3d5ffd5b505050508181846001600160a01b03167ff279e6a1f5e320cca91135676d9cb6e44ca8a08c0b88342bcdb1144f6511b56860405160405180910390a4505050806001019050610db8565b50505050610ef06001600555565b565b6006546001600160a01b03163314610f1d57604051631a27eac360e11b815260040160405180910390fd5b805f03610f2c576109ff611035565b601654811115610f4f57604051632ca2f52b60e11b815260040160405180910390fd5b8060165f828254610f609190614141565b9091555050600a5460405163741fca4b60e01b8152600481018390526001600160a01b039091169063741fca4b906024015f604051808303815f87803b158015610fa8575f5ffd5b505af1158015610fba573d5f5f3e3d5ffd5b5050505050565b5f33610fce85828561257a565b610fd98585856125c5565b60019150505b9392505050565b600a546001600160a01b0316331461101157604051631a27eac360e11b815260040160405180910390fd5b5f61102360125b61031f90600a614237565b601854909150811115610bc557601855565b7f000000000000000000000000000000000000000000000000000000000000000090565b6006546001600160a01b0316331461108457604051631a27eac360e11b815260040160405180910390fd5b60085f9054906101000a90046001600160a01b03166001600160a01b031663edcf9c1f6040518163ffffffff1660e01b8152600401602060405180830381865afa1580156110d4573d5f5f3e3d5ffd5b505050506040513d601f19601f820116820180604052508101906110f8919061405f565b611115576040516312aecd8160e01b815260040160405180910390fd5b600460ff8416111561113a576040516317dbc4cb60e21b815260040160405180910390fd5b610bb861ffff83161115611161576040516317dbc4cb60e21b815260040160405180910390fd5b61012c61ffff82161115611188576040516317dbc4cb60e21b815260040160405180910390fd5b8260ff16600481111561119d5761119d613e01565b6017805460ff191660018360048111156111b9576111b9613e01565b02179055506017805464ffffffff00191661010061ffff85811691820264ffff00000019169290921763010000009285169283021790925560405190919060ff8616907fd24f39e523bfa412fa391702710dc62e1c82d87a8e83228a37c42be1b4870f45905f90a4505050565b6060611232600b612622565b905090565b61124a846112458385614275565b61262e565b50506021805460ff191691151591909117905550565b6001600160a01b03165f9081526020819052604090205490565b600a546001600160a01b031633146112a557604051631a27eac360e11b815260040160405180910390fd5b6112ad6124b5565b5f6112b8600e61251a565b90505f8163ffffffff166001600160401b038111156112d9576112d9614114565b604051908082528060200260200182016040528015611302578160200160208202803683370190505b5090505f8263ffffffff166001600160401b0381111561132457611324614114565b60405190808252806020026020018201604052801561134d578160200160208202803683370190505b5090505f5b8363ffffffff168163ffffffff1610156113e7575f8061137c600e63ffffffff8086169061252416565b9150915081858463ffffffff16815181106113995761139961404b565b60200260200101906001600160a01b031690816001600160a01b03168152505080848463ffffffff16815181106113d2576113d261404b565b60209081029190910101525050600101611352565b505f60148190555b8363ffffffff168163ffffffff161015610ee2575f838263ffffffff168151811061141c5761141c61404b565b602002602001015190505f838363ffffffff168151811061143f5761143f61404b565b6020026020010151905061145d82600e61253290919063ffffffff16565b505f6114688261225b565b90506114748382612695565b8082846001600160a01b03167f90890809c654f11d6e72a28fa60149770a0d11ec6c92319d6ceb2bb0a4ea1a1560405160405180910390a45050508060010190506113ef565b6060600480546107f99061407a565b600a546001600160a01b031633146114f457604051631a27eac360e11b815260040160405180910390fd5b601a545f5b8161ffff168161ffff16101561155257601e5460195f601a8461ffff16815481106115265761152661404b565b5f9182526020808320909101546001600160a01b031683528201929092526040019020556001016114f9565b5061155e601a5f613aaa565b5f5b8161ffff168161ffff16101561163d5784848261ffff168181106115865761158661404b565b9050604002016020013560195f87878561ffff168181106115a9576115a961404b565b6115bf9260206040909202019081019150613c32565b6001600160a01b0316815260208101919091526040015f2055601a858561ffff84168181106115f0576115f061404b565b6116069260206040909202019081019150613c32565b8154600180820184555f93845260209093200180546001600160a01b0319166001600160a01b039290921691909117905501611560565b50600d82905560405182907f5e1ff954b5e5257e9ee5d4cb07059e8f5e69b1aaaf9911e5d8d90a6894de9c21905f90a250505050565b5f6116ab611682846001614101565b61168a6126c9565b61169590600a614237565b6002546116a29190614101565b86919085612745565b949350505050565b5f336108988185856125c5565b60085f9054906101000a90046001600160a01b03166001600160a01b031663edcf9c1f6040518163ffffffff1660e01b8152600401602060405180830381865afa158015611710573d5f5f3e3d5ffd5b505050506040513d601f19601f82011682018060405250810190611734919061405f565b611751576040516312aecd8160e01b815260040160405180910390fd5b805f036117735730604051636b30633560e01b81526004016107a69190613c6b565b5f61177d33611260565b9050808211156117a057604051632ca2f52b60e11b815260040160405180910390fd5b6040516323b872dd60e01b81525f9030906323b872dd906117c9903390849088906004016140c9565b6020604051808303815f875af11580156117e5573d5f5f3e3d5ffd5b505050506040513d601f19601f82011682018060405250810190611809919061405f565b905080611829576040516312171d8360e31b815260040160405180910390fd5b5f6118356011336124df565b91506118509050336118478684614101565b60119190612505565b508360155f8282546118629190614101565b9091555050604051849033907f222dc200773fe9b45015bf792e8fee37d651e3590c215806a5042404b6d741d2905f90a350505050565b601c54606090819061ffff81166001600160401b038111156118bd576118bd614114565b6040519080825280602002602001820160405280156118e6578160200160208202803683370190505b5092508061ffff166001600160401b0381111561190557611905614114565b60405190808252806020026020018201604052801561192e578160200160208202803683370190505b5091505f5b8161ffff168161ffff161015611a1457601c8161ffff168154811061195a5761195a61404b565b905f5260205f20015f9054906101000a90046001600160a01b0316848261ffff168151811061198b5761198b61404b565b60200260200101906001600160a01b031690816001600160a01b031681525050601b5f601c8361ffff16815481106119c5576119c561404b565b5f9182526020808320909101546001600160a01b031683528201929092526040019020548351849061ffff8416908110611a0157611a0161404b565b6020908102919091010152600101611933565b50509091565b611a226124b5565b60085f9054906101000a90046001600160a01b03166001600160a01b031663edcf9c1f6040518163ffffffff1660e01b8152600401602060405180830381865afa158015611a72573d5f5f3e3d5ffd5b505050506040513d601f19601f82011682018060405250810190611a96919061405f565b611ab3576040516312aecd8160e01b815260040160405180910390fd5b805f03611ac2576109ff611035565b5f611ace600e336124df565b91505081811015611af257604051632ca2f52b60e11b815260040160405180910390fd5b600a546040516351edffb160e01b81526001600160a01b03909116906351edffb190611b249033908690600401614128565b5f604051808303815f87803b158015611b3b575f5ffd5b505af1158015611b4d573d5f5f3e3d5ffd5b505050505f8282611b5e9190614141565b9050805f03611b7857611b72600e33612532565b50611b86565b611b84600e3383612505565b505b8260145f828254611b979190614141565b9091555050604051839033907f96a9a6886cdf3047a125454218a23d3961fd3a78643123b248a9d106d0ac94fd905f90a35050610bc56001600555565b6007546001600160a01b03163314611bff57604051631a27eac360e11b815260040160405180910390fd5b611c076124b5565b5f839003611c2857604051631121aa8d60e01b815260040160405180910390fd5b6021805460ff19169055601e5483905f61ffff83166001600160401b03811115611c5457611c54614114565b604051908082528060200260200182016040528015611c7d578160200160208202803683370190505b5090505f8361ffff166001600160401b03811115611c9d57611c9d614114565b604051908082528060200260200182016040528015611cc6578160200160208202803683370190505b50601f549091505f61ffff86166001600160401b03811115611cea57611cea614114565b604051908082528060200260200182016040528015611d13578160200160208202803683370190505b5090505f5b8661ffff168161ffff161015611ee9575f8b8b8361ffff16818110611d3f57611d3f61404b565b611d559260206040909202019081019150613c32565b905080838361ffff1681518110611d6e57611d6e61404b565b60200260200101906001600160a01b031690816001600160a01b0316815250505f611ded8d8d8561ffff16818110611da857611da861404b565b905060400201602001358c8c8080601f0160208091040260200160405190810160405280939291908181526020018383808284375f9201919091525061278792505050565b9050611df881612794565b505f611e0682601e546127a3565b9050611e1286826127d1565b6001600160a01b0384165f908152601d602052604090205490965060ff1615611e5057826040516346bdabe160e01b81526004016107a69190613c6b565b6001600160a01b0383165f908152601d60205260409020805460ff1916600117905587518390899061ffff8716908110611e8c57611e8c61404b565b60200260200101906001600160a01b031690816001600160a01b03168152505081878561ffff1681518110611ec357611ec361404b565b602002602001018181525050611ed989836127ff565b9850505050806001019050611d18565b50611ef581868461282d565b5f5b601c5461ffff9081169082161015611f5257601e54601b5f601c8461ffff1681548110611f2657611f2661404b565b5f9182526020808320909101546001600160a01b03168352820192909252604001902055600101611ef7565b50611f5e601c5f613aaa565b5f5b8661ffff168161ffff161015612026575f858261ffff1681518110611f8757611f8761404b565b60200260200101519050848261ffff1681518110611fa757611fa761404b565b6020908102919091018101516001600160a01b039092165f818152601b8352604080822094909455601c805460018181019092557f0e4562a10381dec21b205ed72637e6b1b523bdd0e4d4d50af5cd23dd4500a2110180546001600160a01b03191684179055918152601d909252919020805460ff1916905501611f60565b5060405133907f2d47a742b8d7df7c1fc5a9a631b206b364e6cb2722490759f63bb3ab14b132e0905f90a25050505050506120616001600555565b50505050565b61206f6124b5565b60085f9054906101000a90046001600160a01b03166001600160a01b031663edcf9c1f6040518163ffffffff1660e01b8152600401602060405180830381865afa1580156120bf573d5f5f3e3d5ffd5b505050506040513d601f19601f820116820180604052508101906120e3919061405f565b612100576040516312aecd8160e01b815260040160405180910390fd5b805f036121225730604051636b30633560e01b81526004016107a69190613c6b565b5f61212e6011336124df565b9150508181101561215257604051632ca2f52b60e11b815260040160405180910390fd5b5f61215d8383614141565b9050805f0361217757612171601133612532565b50612185565b61218360113383612505565b505b8260155f8282546121969190614141565b909155505060405163a9059cbb60e01b81525f90309063a9059cbb906121c29033908890600401614128565b6020604051808303815f875af11580156121de573d5f5f3e3d5ffd5b505050506040513d601f19601f82011682018060405250810190612202919061405f565b905080612222576040516312171d8360e31b815260040160405180910390fd5b604051849033907f046d3e17087d323298991516e3fdec36fe1204d6bff7fb6e2b8eca77b80a22ad905f90a3505050610bc56001600555565b5f610885825f6128b0565b5f61088561227383611260565b5f612467565b601a54606090819061ffff81166001600160401b0381111561229d5761229d614114565b6040519080825280602002602001820160405280156122c6578160200160208202803683370190505b5092508061ffff166001600160401b038111156122e5576122e5614114565b60405190808252806020026020018201604052801561230e578160200160208202803683370190505b5091505f5b8161ffff168161ffff161015611a14575f601a8261ffff168154811061233b5761233b61404b565b905f5260205f20015f9054906101000a90046001600160a01b0316905080858361ffff168151811061236f5761236f61404b565b60200260200101906001600160a01b031690816001600160a01b03168152505060195f826001600160a01b03166001600160a01b031681526020019081526020015f2054848361ffff16815181106123c9576123c961404b565b602090810291909101015250600101612313565b5f61088582611260565b6001600160a01b039182165f90815260016020908152604080832093909416825291909152205490565b5f5f61241c836128e2565b90505f6124298285614141565b90505f612435826129ac565b90506124418184614101565b95945050505050565b610bc581612a69565b5f610fdf836001600160a01b038416612ac2565b5f610fdf612474600d5490565b61247f906001614101565b6124876126c9565b61249290600a614237565b60025461249f9190614101565b85919085612745565b6107e58383836001612b09565b6002600554036124d857604051633ee5aeb560e01b815260040160405180910390fd5b6002600555565b5f8080806124f6866001600160a01b038716612bdb565b909450925050505b9250929050565b5f6116ab846001600160a01b03851684612c13565b5f61088582612c2f565b5f8080806124f68686612c39565b5f610fdf836001600160a01b038416612c62565b6001600160a01b03821661256f575f604051634b637e8f60e11b81526004016107a69190613c6b565b610c3f825f83612c7e565b5f61258584846123e7565b90505f1981101561206157818110156125b757828183604051637dc7a0d960e11b81526004016107a693929190614357565b61206184848484035f612b09565b6001600160a01b0383166125ee575f604051634b637e8f60e11b81526004016107a69190613c6b565b6001600160a01b038216612617575f60405163ec442f0560e01b81526004016107a69190613c6b565b6107e5838383612c7e565b60605f610fdf83612d91565b5f61263883612dea565b90505f6126458284612e86565b9050806126655760405163cf6c44e960e01b815260040160405180910390fd5b60405184907f1af0453083661051f6e56e5c070792320652e612154bf9af8637bb1e7655b99d905f90a250505050565b6001600160a01b0382166126be575f60405163ec442f0560e01b81526004016107a69190613c6b565b610c3f5f8383612c7e565b5f5f6126d3611035565b6001600160a01b031663313ce5676040518163ffffffff1660e01b8152600401602060405180830381865afa15801561270e573d5f5f3e3d5ffd5b505050506040513d601f19601f820116820180604052508101906127329190614378565b905061273f816012614393565b91505090565b5f61277261275283612f6d565b801561276d57505f8480612768576127686143ac565b868809115b151590565b61277d868686612f99565b6124419190614101565b5f610fdf83836004613049565b5f61279f8230613133565b5090565b5f826127b5576127b25f6131a0565b92505b816127c6576127c35f6131a0565b91505b610fdf83835f6131b2565b5f826127e3576127e05f613248565b92505b816127f4576127f15f613248565b91505b610fdf83835f613263565b5f826128115761280e5f6131a0565b92505b816128225761281f5f6131a0565b91505b610fdf83835f6132b9565b6128368361330f565b5f61284c8261284785602054613387565b6127d1565b905061285781612794565b506040805160018082528183019092525f916020808301908036833701905050905081815f8151811061288c5761288c61404b565b60209081029190910101526128a8816358df830160e01b6133b5565b505050505050565b5f610fdf6128bc6126c9565b6128c790600a614237565b6002546128d49190614101565b600d5461249f906001614101565b6017545f906301000000900461ffff1681036128ff57505f919050565b6017545f9061291c906301000000900461ffff1684612710612f99565b9050610fdf60095f9054906101000a90046001600160a01b03166001600160a01b0316634ff0876a6040518163ffffffff1660e01b8152600401602060405180830381865afa158015612971573d5f5f3e3d5ffd5b505050506040513d601f19601f8201168201806040525081019061299591906143c0565b829063ffffffff908116906301e1338090612f9916565b6017545f90610100900461ffff1681036129c757505f919050565b5f612a0b6129d6846001614101565b6129de6126c9565b6129e990600a614237565b6002546129f69190614101565b5f612a036012600a614237565b929190612745565b6017549091505f908190612a219060ff166133c1565b9150915081831015612a3757505f949350505050565b6017545f90612a5090610100900461ffff168584612f99565b9050612a5f8187612710612f99565b9695505050505050565b5f612a72825490565b90505f5b81811015612abb57826001015f845f018381548110612a9757612a9761404b565b905f5260205f20015481526020019081526020015f205f9055806001019050612a76565b50505f9055565b5f612acd83836134ab565b612b0257508154600181810184555f848152602080822090930184905584548482528286019093526040902091909155610885565b505f610885565b6001600160a01b038416612b32575f60405163e602df0560e01b81526004016107a69190613c6b565b6001600160a01b038316612b5b575f604051634a1406b160e11b81526004016107a69190613c6b565b6001600160a01b038085165f908152600160209081526040808320938716835292905220829055801561206157826001600160a01b0316846001600160a01b03167f8c5be1e5ebec7d5bd14f71427d1e84f3dd0314c0f7b2291e5b200ac8c7c3b92584604051612bcd91815260200190565b60405180910390a350505050565b5f818152600283016020526040812054819080612c0857612bfc85856134c2565b92505f91506124fe9050565b6001925090506124fe565b5f82815260028401602052604081208290556116ab84846134cd565b5f610885826134d8565b5f8080612c4685856134e1565b5f81815260029690960160205260409095205494959350505050565b5f8181526002830160205260408120819055610fdf83836134ec565b6001600160a01b038316612ca8578060025f828254612c9d9190614101565b90915550612d059050565b6001600160a01b0383165f9081526020819052604090205481811015612ce75783818360405163391434e360e21b81526004016107a693929190614357565b6001600160a01b0384165f9081526020819052604090209082900390555b6001600160a01b038216612d2157600280548290039055612d3f565b6001600160a01b0382165f9081526020819052604090208054820190555b816001600160a01b0316836001600160a01b03167fddf252ad1be2c89b69c2b068fc378daa952ba7f163c4a11628f55a4df523b3ef83604051612d8491815260200190565b60405180910390a3505050565b6060815f01805480602002602001604051908101604052809291908181526020018280548015612dde57602002820191905f5260205f20905b815481526020019060010190808311612dca575b50505050509050919050565b60605f612df56134f7565b5f84815260028201602052604081205491925003612e265760405163d66ca67560e01b815260040160405180910390fd5b5f83815260028201602090815260409182902080548351818402810184019094528084529091830182828015612e7957602002820191905f5260205f20905b815481526020019060010190808311612e65575b5050505050915050919050565b5f602481612e938561351b565b90505f816001600160401b03811115612eae57612eae614114565b6040519080825280601f01601f191660200182016040528015612ed8576020820181803683370190505b509050818360208301375f612eeb6135c8565b6002810154604051632c027b1360e21b81529192506001600160a01b03169063b009ec4c90612f22908a9086908b90600401614413565b6020604051808303815f875af1158015612f3e573d5f5f3e3d5ffd5b505050506040513d601f19601f82011682018060405250810190612f62919061405f565b979650505050505050565b5f6002826003811115612f8257612f82613e01565b612f8c919061449d565b60ff166001149050919050565b5f5f5f612fa686866135ec565b91509150815f03612fca57838181612fc057612fc06143ac565b0492505050610fdf565b818411612fe157612fe16003851502601118613608565b5f848688095f868103871696879004966002600389028118808a02820302808a02820302808a02820302808a02820302808a02820302808a02909103029181900381900460010185841190960395909502919093039390930492909217029150509392505050565b5f5f6130536135c8565b600181015460405163196d0b9b60e01b81529192506001600160a01b03169063196d0b9b9061308c9088903390899089906004016144de565b6020604051808303815f875af11580156130a8573d5f5f3e3d5ffd5b505050506040513d601f19601f820116820180604052508101906130cc91906140b2565b8154604051630f8e573b60e21b81529193506001600160a01b031690633e395cec906130fe9085903390600401614516565b5f604051808303815f87803b158015613115575f5ffd5b505af1158015613127573d5f5f3e3d5ffd5b50505050509392505050565b5f61313c6135c8565b8054604051635ca4b5b160e11b81529192506001600160a01b03169063b9496b629061316e9086908690600401614516565b5f604051808303815f87803b158015613185575f5ffd5b505af1158015613197573d5f5f3e3d5ffd5b50505050505050565b5f6108858263ffffffff166004613619565b5f5f82156131c55750600160f81b6131c8565b505f5b5f6131d16135c8565b60018101546040516385362ee760e01b81529192506001600160a01b0316906385362ee7906132089089908990879060040161452d565b6020604051808303815f875af1158015613224573d5f5f3e3d5ffd5b505050506040513d601f19601f82011682018060405250810190612a5f91906140b2565b5f61088582613257575f61325a565b60015b60ff165f613619565b5f5f82156132765750600160f81b613279565b505f5b5f6132826135c8565b600181015460405163d99882d560e01b81529192506001600160a01b03169063d99882d5906132089089908990879060040161452d565b5f5f82156132cc5750600160f81b6132cf565b505f5b5f6132d86135c8565b600181015460405163022f65e760e31b81529192506001600160a01b03169063117b2f38906132089089908990879060040161452d565b5f5b8151811015610c3f5761334782828151811061332f5761332f61404b565b6020026020010151600b61369890919063ffffffff16565b61337f5781818151811061335d5761335d61404b565b602002602001015160405163751dff9760e11b81526004016107a69190613c6b565b600101613311565b5f82613399576133965f6131a0565b92505b816133aa576133a75f6131a0565b91505b610fdf83835f6136ac565b5f610fdf83835f613702565b5f80806133ce6012611018565b90505f8460048111156133e3576133e3613e01565b036133f3578092508291506134a5565b600384600481111561340757613407613e01565b036134195760185492508291506134a5565b600184600481111561342d5761342d613e01565b036134455761343b81613807565b92508091506134a5565b600284600481111561345957613459613e01565b036134715761346781613807565b92508291506134a5565b600484600481111561348557613485613e01565b036134a55760185461349f9061349a83613807565b61392d565b92508291505b50915091565b5f9081526001919091016020526040902054151590565b5f610fdf838361393c565b5f610fdf8383612ac2565b5f610885825490565b5f610fdf8383613947565b5f610fdf838361396d565b7f5ea69329017273582817d320489fbd94f775580e90c092699ca6f3d12fdf7d0090565b80515f9081805b828110156135bc575f85828151811061353d5761353d61404b565b6020026020010151601e602081106135575761355761404b565b1a605381111561356957613569613e01565b9050600981605381111561357f5761357f613e01565b60ff16101561359a57613593602084614101565b92506135b3565b60405163ce54a8d160e01b815260040160405180910390fd5b50600101613522565b506116ab602082614101565b7fed8d60e34876f751cc8b014c560745351147d9de11b9347c854e881b128ea60090565b5f805f1983850993909202808410938190039390930393915050565b634e487b715f52806020526024601cfd5b5f5f6136236135c8565b6001810154604051639cd07acb60e01b81529192506001600160a01b031690639cd07acb90613658908790879060040161454d565b6020604051808303815f875af1158015613674573d5f5f3e3d5ffd5b505050506040513d601f19601f820116820180604052508101906116ab91906140b2565b5f610fdf836001600160a01b0384166134ab565b5f5f82156136bf5750600160f81b6136c2565b505f5b5f6136cb6135c8565b600181015460405163f77f3f1d60e01b81529192506001600160a01b03169063f77f3f1d906132089089908990879060040161452d565b5f5f61370c6134f7565b9050806001015491505f61371e6135c8565b8054604051637d6e912360e11b81529192506001600160a01b03169063fadd22469061374e908990600401614561565b5f604051808303815f87803b158015613765575f5ffd5b505af1158015613777573d5f5f3e3d5ffd5b50508354604051633263b83b60e01b81526001600160a01b039091169250633263b83b915086906137b09087908b908b90600401614573565b5f604051808303818588803b1580156137c7575f5ffd5b505af11580156137d9573d5f5f3e3d5ffd5b50505050506137e88387613a50565b600182018054905f6137f9836145a4565b919050555050509392505050565b5f5f60085f9054906101000a90046001600160a01b03166001600160a01b031663f3cc69936040518163ffffffff1660e01b8152600401602060405180830381865afa158015613859573d5f5f3e3d5ffd5b505050506040513d601f19601f8201168201806040525081019061387d91906145bc565b61ffff1690505f61391260095f9054906101000a90046001600160a01b03166001600160a01b0316634ff0876a6040518163ffffffff1660e01b8152600401602060405180830381865afa1580156138d7573d5f5f3e3d5ffd5b505050506040513d601f19601f820116820180604052508101906138fb91906143c0565b839063ffffffff908116906301e1338090612f9916565b90506116ab61392382612710614101565b8590612710612f99565b5f828218828411028218610fdf565b5f610fdf83836134ab565b5f825f01828154811061395c5761395c61404b565b905f5260205f200154905092915050565b5f8181526001830160205260408120548015613a47575f61398f600183614141565b85549091505f906139a290600190614141565b9050808214613a01575f865f0182815481106139c0576139c061404b565b905f5260205f200154905080875f0184815481106139e0576139e061404b565b5f918252602080832090910192909255918252600188019052604090208390555b8554869080613a1257613a126145d7565b600190038181905f5260205f20015f90559055856001015f8681526020019081526020015f205f905560019350505050610885565b5f915050610885565b5f613a596134f7565b5f84815260028201602052604090205490915015613a8a57604051633f06d22b60e01b815260040160405180910390fd5b5f8381526002820160209081526040909120835161206192850190613ac5565b5080545f8255905f5260205f2090810190610bc59190613b06565b828054828255905f5260205f20908101928215613afe579160200282015b82811115613afe578251825591602001919060010190613ae3565b5061279f9291505b5b8082111561279f575f8155600101613b07565b5f5f83601f840112613b2a575f5ffd5b5081356001600160401b03811115613b40575f5ffd5b6020830191508360208260051b85010111156124fe575f5ffd5b5f5f60208385031215613b6b575f5ffd5b82356001600160401b03811115613b80575f5ffd5b613b8c85828601613b1a565b90969095509350505050565b5f81518084528060208401602086015e5f602082860101526020601f19601f83011685010191505092915050565b602081525f610fdf6020830184613b98565b5f60208284031215613be8575f5ffd5b5035919050565b80356001600160a01b0381168114613c05575f5ffd5b919050565b5f5f60408385031215613c1b575f5ffd5b613c2483613bef565b946020939093013593505050565b5f60208284031215613c42575f5ffd5b610fdf82613bef565b5f5f60408385031215613c5c575f5ffd5b50508035926020909101359150565b6001600160a01b0391909116815260200190565b5f5f5f60608486031215613c91575f5ffd5b613c9a84613bef565b9250613ca860208501613bef565b929592945050506040919091013590565b60ff81168114610bc5575f5ffd5b61ffff81168114610bc5575f5ffd5b5f5f5f60608486031215613ce8575f5ffd5b8335613cf381613cb9565b92506020840135613d0381613cc7565b91506040840135613d1381613cc7565b809150509250925092565b5f8151808452602084019350602083015f5b82811015613d575781516001600160a01b0316865260209586019590910190600101613d30565b5093949350505050565b602081525f610fdf6020830184613d1e565b8015158114610bc5575f5ffd5b5f5f5f5f60608587031215613d93575f5ffd5b843593506020850135613da581613d73565b925060408501356001600160401b03811115613dbf575f5ffd5b613dcb87828801613b1a565b95989497509550505050565b5f5f60408385031215613de8575f5ffd5b82359150613df860208401613bef565b90509250929050565b634e487b7160e01b5f52602160045260245ffd5b6080810160058610613e2957613e29613e01565b94815261ffff93841660208201529190921660408201526060015290565b5f5f83601f840112613e57575f5ffd5b5081356001600160401b03811115613e6d575f5ffd5b6020830191508360208260061b85010111156124fe575f5ffd5b5f5f5f60408486031215613e99575f5ffd5b83356001600160401b03811115613eae575f5ffd5b613eba86828701613e47565b909790965060209590950135949350505050565b5f5f5f60608486031215613ee0575f5ffd5b8335925060208401359150604084013560048110613d13575f5ffd5b5f5f5f60608486031215613f0e575f5ffd5b83359250613f1e60208501613bef565b9150613f2c60408501613bef565b90509250925092565b604081525f613f476040830185613d1e565b82810360208401528084518083526020830191506020860192505f5b81811015613f81578351835260209384019390920191600101613f63565b50909695505050505050565b5f5f5f5f60408587031215613fa0575f5ffd5b84356001600160401b03811115613fb5575f5ffd5b613fc187828801613e47565b90955093505060208501356001600160401b03811115613fdf575f5ffd5b8501601f81018713613fef575f5ffd5b80356001600160401b03811115614004575f5ffd5b876020828401011115614015575f5ffd5b949793965060200194505050565b5f5f60408385031215614034575f5ffd5b61403d83613bef565b9150613df860208401613bef565b634e487b7160e01b5f52603260045260245ffd5b5f6020828403121561406f575f5ffd5b8151610fdf81613d73565b600181811c9082168061408e57607f821691505b6020821081036140ac57634e487b7160e01b5f52602260045260245ffd5b50919050565b5f602082840312156140c2575f5ffd5b5051919050565b6001600160a01b039384168152919092166020820152604081019190915260600190565b634e487b7160e01b5f52601160045260245ffd5b80820180821115610885576108856140ed565b634e487b7160e01b5f52604160045260245ffd5b6001600160a01b03929092168252602082015260400190565b81810381811115610885576108856140ed565b6001815b600184111561418f57808504811115614173576141736140ed565b600184161561418157908102905b60019390931c928002614158565b935093915050565b5f826141a557506001610885565b816141b157505f610885565b81600181146141c757600281146141d1576141ed565b6001915050610885565b60ff8411156141e2576141e26140ed565b50506001821b610885565b5060208310610133831016604e8410600b8410161715614210575081810a610885565b61421c5f198484614154565b805f190482111561422f5761422f6140ed565b029392505050565b5f610fdf60ff841683614197565b604051601f8201601f191681016001600160401b038111828210171561426d5761426d614114565b604052919050565b5f6001600160401b0383111561428d5761428d614114565b8260051b61429d60208201614245565b848152908301906020810190368311156142b5575f5ffd5b845b8381101561434d5780356001600160401b038111156142d4575f5ffd5b860136601f8201126142e4575f5ffd5b80356001600160401b038111156142fd576142fd614114565b614310601f8201601f1916602001614245565b818152366020838501011115614324575f5ffd5b816020840160208301375f602083830101528086525050506020830192506020810190506142b7565b5095945050505050565b6001600160a01b039390931683526020830191909152604082015260600190565b5f60208284031215614388575f5ffd5b8151610fdf81613cb9565b60ff8281168282160390811115610885576108856140ed565b634e487b7160e01b5f52601260045260245ffd5b5f602082840312156143d0575f5ffd5b815163ffffffff81168114610fdf575f5ffd5b5f8151808452602084019350602083015f5b82811015613d575781518652602095860195909101906001016143f5565b606081525f61442560608301866143e3565b82810360208401526144378186613b98565b9050828103604084015280845180835260208301915060208160051b840101602087015f5b8381101561448e57601f19868403018552614478838351613b98565b602095860195909350919091019060010161445c565b50909998505050505050505050565b5f60ff8316806144bb57634e487b7160e01b5f52601260045260245ffd5b8060ff84160691505092915050565b605481106144da576144da613e01565b9052565b8481526001600160a01b03841660208201526080604082018190525f9061450790830185613b98565b905061244160608301846144ca565b9182526001600160a01b0316602082015260400190565b92835260208301919091526001600160f81b031916604082015260600190565b82815260408101610fdf60208301846144ca565b602081525f610fdf60208301846143e3565b838152606060208201525f61458b60608301856143e3565b905063ffffffff60e01b83166040830152949350505050565b5f600182016145b5576145b56140ed565b5060010190565b5f602082840312156145cc575f5ffd5b8151610fdf81613cc7565b634e487b7160e01b5f52603160045260245ffdfea26469706673582212209518fed20f44d7c8c5b460b85d36884f3de28d00fc072da79e0cbace5c5cae7b64736f6c634300081c0033ed8d60e34876f751cc8b014c560745351147d9de11b9347c854e881b128ea600ed8d60e34876f751cc8b014c560745351147d9de11b9347c854e881b128ea601",
  "linkReferences": {},
  "deployedLinkReferences": {}
}