{
  "_format": "hh-sol-artifact-1",
  "contractName": "OrionEncryptedVault",
  "sourceName": "contracts/vaults/OrionEncryptedVault.sol",
  "abi": [
    {
      "inputs": [
        {
          "internalType": "address",
          "name": "vaultOwner",
          "type": "address"
        },
        {
          "internalType": "address",
          "name": "curator",
          "type": "address"
        },
        {
          "internalType": "contract IOrionConfig",
          "name": "configAddress",
          "type": "address"
        },
        {
          "internalType": "string",
          "name": "name",
          "type": "string"
        },
        {
          "internalType": "string",
          "name": "symbol",
          "type": "string"
        },
        {
          "internalType": "uint8",
          "name": "feeType",
          "type": "uint8"
        },
        {
          "internalType": "uint16",
          "name": "performanceFee",
          "type": "uint16"
        },
        {
          "internalType": "uint16",
          "name": "managementFee",
          "type": "uint16"
        }
      ],
      "stateMutability": "nonpayable",
      "type": "constructor"
    },
    {
      "inputs": [],
      "name": "AlreadyRegistered",
      "type": "error"
    },
    {
      "inputs": [
        {
          "internalType": "address",
          "name": "asset",
          "type": "address"
        }
      ],
      "name": "AmountMustBeGreaterThanZero",
      "type": "error"
    },
    {
      "inputs": [
        {
          "internalType": "address",
          "name": "spender",
          "type": "address"
        },
        {
          "internalType": "uint256",
          "name": "allowance",
          "type": "uint256"
        },
        {
          "internalType": "uint256",
          "name": "needed",
          "type": "uint256"
        }
      ],
      "name": "ERC20InsufficientAllowance",
      "type": "error"
    },
    {
      "inputs": [
        {
          "internalType": "address",
          "name": "sender",
          "type": "address"
        },
        {
          "internalType": "uint256",
          "name": "balance",
          "type": "uint256"
        },
        {
          "internalType": "uint256",
          "name": "needed",
          "type": "uint256"
        }
      ],
      "name": "ERC20InsufficientBalance",
      "type": "error"
    },
    {
      "inputs": [
        {
          "internalType": "address",
          "name": "approver",
          "type": "address"
        }
      ],
      "name": "ERC20InvalidApprover",
      "type": "error"
    },
    {
      "inputs": [
        {
          "internalType": "address",
          "name": "receiver",
          "type": "address"
        }
      ],
      "name": "ERC20InvalidReceiver",
      "type": "error"
    },
    {
      "inputs": [
        {
          "internalType": "address",
          "name": "sender",
          "type": "address"
        }
      ],
      "name": "ERC20InvalidSender",
      "type": "error"
    },
    {
      "inputs": [
        {
          "internalType": "address",
          "name": "spender",
          "type": "address"
        }
      ],
      "name": "ERC20InvalidSpender",
      "type": "error"
    },
    {
      "inputs": [
        {
          "internalType": "address",
          "name": "receiver",
          "type": "address"
        },
        {
          "internalType": "uint256",
          "name": "assets",
          "type": "uint256"
        },
        {
          "internalType": "uint256",
          "name": "max",
          "type": "uint256"
        }
      ],
      "name": "ERC4626ExceededMaxDeposit",
      "type": "error"
    },
    {
      "inputs": [
        {
          "internalType": "address",
          "name": "receiver",
          "type": "address"
        },
        {
          "internalType": "uint256",
          "name": "shares",
          "type": "uint256"
        },
        {
          "internalType": "uint256",
          "name": "max",
          "type": "uint256"
        }
      ],
      "name": "ERC4626ExceededMaxMint",
      "type": "error"
    },
    {
      "inputs": [
        {
          "internalType": "address",
          "name": "owner",
          "type": "address"
        },
        {
          "internalType": "uint256",
          "name": "shares",
          "type": "uint256"
        },
        {
          "internalType": "uint256",
          "name": "max",
          "type": "uint256"
        }
      ],
      "name": "ERC4626ExceededMaxRedeem",
      "type": "error"
    },
    {
      "inputs": [
        {
          "internalType": "address",
          "name": "owner",
          "type": "address"
        },
        {
          "internalType": "uint256",
          "name": "assets",
          "type": "uint256"
        },
        {
          "internalType": "uint256",
          "name": "max",
          "type": "uint256"
        }
      ],
      "name": "ERC4626ExceededMaxWithdraw",
      "type": "error"
    },
    {
      "inputs": [],
      "name": "HandlesAlreadySavedForRequestID",
      "type": "error"
    },
    {
      "inputs": [
        {
          "internalType": "address",
          "name": "sender",
          "type": "address"
        },
        {
          "internalType": "uint256",
          "name": "balance",
          "type": "uint256"
        },
        {
          "internalType": "uint256",
          "name": "amount",
          "type": "uint256"
        }
      ],
      "name": "InsufficientFunds",
      "type": "error"
    },
    {
      "inputs": [],
      "name": "InvalidAddress",
      "type": "error"
    },
    {
      "inputs": [],
      "name": "InvalidArguments",
      "type": "error"
    },
    {
      "inputs": [],
      "name": "InvalidKMSSignatures",
      "type": "error"
    },
    {
      "inputs": [],
      "name": "InvalidUnderlyingDecimals",
      "type": "error"
    },
    {
      "inputs": [],
      "name": "NoHandleFoundForRequestID",
      "type": "error"
    },
    {
      "inputs": [],
      "name": "NotEnoughDepositRequest",
      "type": "error"
    },
    {
      "inputs": [],
      "name": "NotEnoughWithdrawRequest",
      "type": "error"
    },
    {
      "inputs": [],
      "name": "OrderIntentCannotBeEmpty",
      "type": "error"
    },
    {
      "inputs": [],
      "name": "ReentrancyGuardReentrantCall",
      "type": "error"
    },
    {
      "inputs": [],
      "name": "SynchronousCallDisabled",
      "type": "error"
    },
    {
      "inputs": [],
      "name": "SystemNotIdle",
      "type": "error"
    },
    {
      "inputs": [
        {
          "internalType": "address",
          "name": "token",
          "type": "address"
        }
      ],
      "name": "TokenAlreadyInOrder",
      "type": "error"
    },
    {
      "inputs": [
        {
          "internalType": "address",
          "name": "token",
          "type": "address"
        }
      ],
      "name": "TokenNotWhitelisted",
      "type": "error"
    },
    {
      "inputs": [],
      "name": "TransferFailed",
      "type": "error"
    },
    {
      "inputs": [],
      "name": "UnauthorizedAccess",
      "type": "error"
    },
    {
      "inputs": [],
      "name": "UnsupportedHandleType",
      "type": "error"
    },
    {
      "anonymous": false,
      "inputs": [
        {
          "indexed": true,
          "internalType": "address",
          "name": "owner",
          "type": "address"
        },
        {
          "indexed": true,
          "internalType": "address",
          "name": "spender",
          "type": "address"
        },
        {
          "indexed": false,
          "internalType": "uint256",
          "name": "value",
          "type": "uint256"
        }
      ],
      "name": "Approval",
      "type": "event"
    },
    {
      "anonymous": false,
      "inputs": [
        {
          "indexed": true,
          "internalType": "uint256",
          "name": "epoch",
          "type": "uint256"
        },
        {
          "indexed": false,
          "internalType": "uint256",
          "name": "feeAmount",
          "type": "uint256"
        },
        {
          "indexed": false,
          "internalType": "uint256",
          "name": "pendingCuratorFees",
          "type": "uint256"
        }
      ],
      "name": "CuratorFeesAccrued",
      "type": "event"
    },
    {
      "anonymous": false,
      "inputs": [
        {
          "indexed": true,
          "internalType": "uint256",
          "name": "requestID",
          "type": "uint256"
        }
      ],
      "name": "DecryptionFulfilled",
      "type": "event"
    },
    {
      "anonymous": false,
      "inputs": [
        {
          "indexed": true,
          "internalType": "address",
          "name": "sender",
          "type": "address"
        },
        {
          "indexed": true,
          "internalType": "address",
          "name": "owner",
          "type": "address"
        },
        {
          "indexed": false,
          "internalType": "uint256",
          "name": "assets",
          "type": "uint256"
        },
        {
          "indexed": false,
          "internalType": "uint256",
          "name": "shares",
          "type": "uint256"
        }
      ],
      "name": "Deposit",
      "type": "event"
    },
    {
      "anonymous": false,
      "inputs": [
        {
          "indexed": true,
          "internalType": "address",
          "name": "user",
          "type": "address"
        },
        {
          "indexed": false,
          "internalType": "uint256",
          "name": "amount",
          "type": "uint256"
        }
      ],
      "name": "DepositProcessed",
      "type": "event"
    },
    {
      "anonymous": false,
      "inputs": [
        {
          "indexed": true,
          "internalType": "address",
          "name": "user",
          "type": "address"
        },
        {
          "indexed": false,
          "internalType": "uint256",
          "name": "amount",
          "type": "uint256"
        }
      ],
      "name": "DepositRequestCancelled",
      "type": "event"
    },
    {
      "anonymous": false,
      "inputs": [
        {
          "indexed": true,
          "internalType": "address",
          "name": "user",
          "type": "address"
        },
        {
          "indexed": false,
          "internalType": "uint256",
          "name": "amount",
          "type": "uint256"
        }
      ],
      "name": "DepositRequested",
      "type": "event"
    },
    {
      "anonymous": false,
      "inputs": [
        {
          "indexed": false,
          "internalType": "uint8",
          "name": "mode",
          "type": "uint8"
        },
        {
          "indexed": false,
          "internalType": "uint16",
          "name": "performanceFee",
          "type": "uint16"
        },
        {
          "indexed": false,
          "internalType": "uint16",
          "name": "managementFee",
          "type": "uint16"
        }
      ],
      "name": "FeeModelUpdated",
      "type": "event"
    },
    {
      "anonymous": false,
      "inputs": [
        {
          "indexed": true,
          "internalType": "address",
          "name": "curator",
          "type": "address"
        }
      ],
      "name": "OrderSubmitted",
      "type": "event"
    },
    {
      "anonymous": false,
      "inputs": [
        {
          "indexed": true,
          "internalType": "address",
          "name": "from",
          "type": "address"
        },
        {
          "indexed": true,
          "internalType": "address",
          "name": "to",
          "type": "address"
        },
        {
          "indexed": false,
          "internalType": "uint256",
          "name": "value",
          "type": "uint256"
        }
      ],
      "name": "Transfer",
      "type": "event"
    },
    {
      "anonymous": false,
      "inputs": [
        {
          "indexed": false,
          "internalType": "uint256",
          "name": "newTotalAssets",
          "type": "uint256"
        }
      ],
      "name": "VaultStateUpdated",
      "type": "event"
    },
    {
      "anonymous": false,
      "inputs": [
        {
          "indexed": true,
          "internalType": "address",
          "name": "sender",
          "type": "address"
        },
        {
          "indexed": true,
          "internalType": "address",
          "name": "receiver",
          "type": "address"
        },
        {
          "indexed": true,
          "internalType": "address",
          "name": "owner",
          "type": "address"
        },
        {
          "indexed": false,
          "internalType": "uint256",
          "name": "assets",
          "type": "uint256"
        },
        {
          "indexed": false,
          "internalType": "uint256",
          "name": "shares",
          "type": "uint256"
        }
      ],
      "name": "Withdraw",
      "type": "event"
    },
    {
      "anonymous": false,
      "inputs": [
        {
          "indexed": true,
          "internalType": "address",
          "name": "user",
          "type": "address"
        },
        {
          "indexed": false,
          "internalType": "uint256",
          "name": "shares",
          "type": "uint256"
        }
      ],
      "name": "WithdrawProcessed",
      "type": "event"
    },
    {
      "anonymous": false,
      "inputs": [
        {
          "indexed": true,
          "internalType": "address",
          "name": "user",
          "type": "address"
        },
        {
          "indexed": false,
          "internalType": "uint256",
          "name": "shares",
          "type": "uint256"
        }
      ],
      "name": "WithdrawRequestCancelled",
      "type": "event"
    },
    {
      "anonymous": false,
      "inputs": [
        {
          "indexed": true,
          "internalType": "address",
          "name": "user",
          "type": "address"
        },
        {
          "indexed": false,
          "internalType": "uint256",
          "name": "shares",
          "type": "uint256"
        }
      ],
      "name": "WithdrawRequested",
      "type": "event"
    },
    {
      "inputs": [],
      "name": "BASIS_POINTS_FACTOR",
      "outputs": [
        {
          "internalType": "uint16",
          "name": "",
          "type": "uint16"
        }
      ],
      "stateMutability": "view",
      "type": "function"
    },
    {
      "inputs": [],
      "name": "MAX_MANAGEMENT_FEE",
      "outputs": [
        {
          "internalType": "uint16",
          "name": "",
          "type": "uint16"
        }
      ],
      "stateMutability": "view",
      "type": "function"
    },
    {
      "inputs": [],
      "name": "MAX_PERFORMANCE_FEE",
      "outputs": [
        {
          "internalType": "uint16",
          "name": "",
          "type": "uint16"
        }
      ],
      "stateMutability": "view",
      "type": "function"
    },
    {
      "inputs": [],
      "name": "SHARE_DECIMALS",
      "outputs": [
        {
          "internalType": "uint8",
          "name": "",
          "type": "uint8"
        }
      ],
      "stateMutability": "view",
      "type": "function"
    },
    {
      "inputs": [],
      "name": "YEAR_IN_SECONDS",
      "outputs": [
        {
          "internalType": "uint32",
          "name": "",
          "type": "uint32"
        }
      ],
      "stateMutability": "view",
      "type": "function"
    },
    {
      "inputs": [
        {
          "internalType": "uint256",
          "name": "epoch",
          "type": "uint256"
        },
        {
          "internalType": "uint256",
          "name": "feeAmount",
          "type": "uint256"
        }
      ],
      "name": "accrueCuratorFees",
      "outputs": [],
      "stateMutability": "nonpayable",
      "type": "function"
    },
    {
      "inputs": [
        {
          "internalType": "address",
          "name": "owner",
          "type": "address"
        },
        {
          "internalType": "address",
          "name": "spender",
          "type": "address"
        }
      ],
      "name": "allowance",
      "outputs": [
        {
          "internalType": "uint256",
          "name": "",
          "type": "uint256"
        }
      ],
      "stateMutability": "view",
      "type": "function"
    },
    {
      "inputs": [
        {
          "internalType": "address",
          "name": "spender",
          "type": "address"
        },
        {
          "internalType": "uint256",
          "name": "value",
          "type": "uint256"
        }
      ],
      "name": "approve",
      "outputs": [
        {
          "internalType": "bool",
          "name": "",
          "type": "bool"
        }
      ],
      "stateMutability": "nonpayable",
      "type": "function"
    },
    {
      "inputs": [],
      "name": "asset",
      "outputs": [
        {
          "internalType": "address",
          "name": "",
          "type": "address"
        }
      ],
      "stateMutability": "view",
      "type": "function"
    },
    {
      "inputs": [
        {
          "internalType": "address",
          "name": "account",
          "type": "address"
        }
      ],
      "name": "balanceOf",
      "outputs": [
        {
          "internalType": "uint256",
          "name": "",
          "type": "uint256"
        }
      ],
      "stateMutability": "view",
      "type": "function"
    },
    {
      "inputs": [
        {
          "internalType": "uint256",
          "name": "requestID",
          "type": "uint256"
        },
        {
          "internalType": "bool",
          "name": "decryptedInput",
          "type": "bool"
        },
        {
          "internalType": "bytes[]",
          "name": "signatures",
          "type": "bytes[]"
        }
      ],
      "name": "callbackDecryptSingleEbool",
      "outputs": [],
      "stateMutability": "nonpayable",
      "type": "function"
    },
    {
      "inputs": [
        {
          "internalType": "uint256",
          "name": "amount",
          "type": "uint256"
        }
      ],
      "name": "cancelDepositRequest",
      "outputs": [],
      "stateMutability": "nonpayable",
      "type": "function"
    },
    {
      "inputs": [
        {
          "internalType": "uint256",
          "name": "shares",
          "type": "uint256"
        }
      ],
      "name": "cancelWithdrawRequest",
      "outputs": [],
      "stateMutability": "nonpayable",
      "type": "function"
    },
    {
      "inputs": [
        {
          "internalType": "uint256",
          "name": "amount",
          "type": "uint256"
        }
      ],
      "name": "claimCuratorFees",
      "outputs": [],
      "stateMutability": "nonpayable",
      "type": "function"
    },
    {
      "inputs": [],
      "name": "config",
      "outputs": [
        {
          "internalType": "contract IOrionConfig",
          "name": "",
          "type": "address"
        }
      ],
      "stateMutability": "view",
      "type": "function"
    },
    {
      "inputs": [
        {
          "internalType": "uint256",
          "name": "shares",
          "type": "uint256"
        }
      ],
      "name": "convertToAssets",
      "outputs": [
        {
          "internalType": "uint256",
          "name": "",
          "type": "uint256"
        }
      ],
      "stateMutability": "view",
      "type": "function"
    },
    {
      "inputs": [
        {
          "internalType": "uint256",
          "name": "shares",
          "type": "uint256"
        },
        {
          "internalType": "uint256",
          "name": "pointInTimeTotalAssets",
          "type": "uint256"
        },
        {
          "internalType": "enum Math.Rounding",
          "name": "rounding",
          "type": "uint8"
        }
      ],
      "name": "convertToAssetsWithPITTotalAssets",
      "outputs": [
        {
          "internalType": "uint256",
          "name": "",
          "type": "uint256"
        }
      ],
      "stateMutability": "view",
      "type": "function"
    },
    {
      "inputs": [
        {
          "internalType": "uint256",
          "name": "assets",
          "type": "uint256"
        }
      ],
      "name": "convertToShares",
      "outputs": [
        {
          "internalType": "uint256",
          "name": "",
          "type": "uint256"
        }
      ],
      "stateMutability": "view",
      "type": "function"
    },
    {
      "inputs": [],
      "name": "curator",
      "outputs": [
        {
          "internalType": "address",
          "name": "",
          "type": "address"
        }
      ],
      "stateMutability": "view",
      "type": "function"
    },
    {
      "inputs": [
        {
          "internalType": "uint256",
          "name": "activeTotalAssets",
          "type": "uint256"
        }
      ],
      "name": "curatorFee",
      "outputs": [
        {
          "internalType": "uint256",
          "name": "",
          "type": "uint256"
        }
      ],
      "stateMutability": "view",
      "type": "function"
    },
    {
      "inputs": [],
      "name": "curatorIntentDecimals",
      "outputs": [
        {
          "internalType": "uint8",
          "name": "",
          "type": "uint8"
        }
      ],
      "stateMutability": "view",
      "type": "function"
    },
    {
      "inputs": [],
      "name": "decimals",
      "outputs": [
        {
          "internalType": "uint8",
          "name": "",
          "type": "uint8"
        }
      ],
      "stateMutability": "view",
      "type": "function"
    },
    {
      "inputs": [
        {
          "internalType": "uint256",
          "name": "",
          "type": "uint256"
        },
        {
          "internalType": "address",
          "name": "",
          "type": "address"
        }
      ],
      "name": "deposit",
      "outputs": [
        {
          "internalType": "uint256",
          "name": "",
          "type": "uint256"
        }
      ],
      "stateMutability": "pure",
      "type": "function"
    },
    {
      "inputs": [],
      "name": "feeModel",
      "outputs": [
        {
          "internalType": "enum OrionVault.FeeType",
          "name": "feeType",
          "type": "uint8"
        },
        {
          "internalType": "uint16",
          "name": "performanceFee",
          "type": "uint16"
        },
        {
          "internalType": "uint16",
          "name": "managementFee",
          "type": "uint16"
        },
        {
          "internalType": "uint256",
          "name": "highWaterMark",
          "type": "uint256"
        }
      ],
      "stateMutability": "view",
      "type": "function"
    },
    {
      "inputs": [],
      "name": "getIntent",
      "outputs": [
        {
          "internalType": "address[]",
          "name": "tokens",
          "type": "address[]"
        },
        {
          "internalType": "euint32[]",
          "name": "weights",
          "type": "bytes32[]"
        }
      ],
      "stateMutability": "view",
      "type": "function"
    },
    {
      "inputs": [],
      "name": "getPendingDeposits",
      "outputs": [
        {
          "internalType": "uint256",
          "name": "",
          "type": "uint256"
        }
      ],
      "stateMutability": "view",
      "type": "function"
    },
    {
      "inputs": [],
      "name": "getPendingWithdrawals",
      "outputs": [
        {
          "internalType": "uint256",
          "name": "",
          "type": "uint256"
        }
      ],
      "stateMutability": "view",
      "type": "function"
    },
    {
      "inputs": [],
      "name": "getPortfolio",
      "outputs": [
        {
          "internalType": "address[]",
          "name": "tokens",
          "type": "address[]"
        },
        {
          "internalType": "euint32[]",
          "name": "sharesPerAsset",
          "type": "bytes32[]"
        }
      ],
      "stateMutability": "view",
      "type": "function"
    },
    {
      "inputs": [],
      "name": "getVaultWhitelist",
      "outputs": [
        {
          "internalType": "address[]",
          "name": "",
          "type": "address[]"
        }
      ],
      "stateMutability": "view",
      "type": "function"
    },
    {
      "inputs": [],
      "name": "internalStatesOrchestrator",
      "outputs": [
        {
          "internalType": "contract IInternalStateOrchestrator",
          "name": "",
          "type": "address"
        }
      ],
      "stateMutability": "view",
      "type": "function"
    },
    {
      "inputs": [],
      "name": "isIntentValid",
      "outputs": [
        {
          "internalType": "bool",
          "name": "",
          "type": "bool"
        }
      ],
      "stateMutability": "view",
      "type": "function"
    },
    {
      "inputs": [],
      "name": "liquidityOrchestrator",
      "outputs": [
        {
          "internalType": "contract ILiquidityOrchestrator",
          "name": "",
          "type": "address"
        }
      ],
      "stateMutability": "view",
      "type": "function"
    },
    {
      "inputs": [
        {
          "internalType": "address",
          "name": "",
          "type": "address"
        }
      ],
      "name": "maxDeposit",
      "outputs": [
        {
          "internalType": "uint256",
          "name": "",
          "type": "uint256"
        }
      ],
      "stateMutability": "view",
      "type": "function"
    },
    {
      "inputs": [
        {
          "internalType": "address",
          "name": "",
          "type": "address"
        }
      ],
      "name": "maxMint",
      "outputs": [
        {
          "internalType": "uint256",
          "name": "",
          "type": "uint256"
        }
      ],
      "stateMutability": "view",
      "type": "function"
    },
    {
      "inputs": [
        {
          "internalType": "address",
          "name": "owner",
          "type": "address"
        }
      ],
      "name": "maxRedeem",
      "outputs": [
        {
          "internalType": "uint256",
          "name": "",
          "type": "uint256"
        }
      ],
      "stateMutability": "view",
      "type": "function"
    },
    {
      "inputs": [
        {
          "internalType": "address",
          "name": "owner",
          "type": "address"
        }
      ],
      "name": "maxWithdraw",
      "outputs": [
        {
          "internalType": "uint256",
          "name": "",
          "type": "uint256"
        }
      ],
      "stateMutability": "view",
      "type": "function"
    },
    {
      "inputs": [
        {
          "internalType": "uint256",
          "name": "",
          "type": "uint256"
        },
        {
          "internalType": "address",
          "name": "",
          "type": "address"
        }
      ],
      "name": "mint",
      "outputs": [
        {
          "internalType": "uint256",
          "name": "",
          "type": "uint256"
        }
      ],
      "stateMutability": "pure",
      "type": "function"
    },
    {
      "inputs": [],
      "name": "name",
      "outputs": [
        {
          "internalType": "string",
          "name": "",
          "type": "string"
        }
      ],
      "stateMutability": "view",
      "type": "function"
    },
    {
      "inputs": [],
      "name": "pendingCuratorFees",
      "outputs": [
        {
          "internalType": "uint256",
          "name": "",
          "type": "uint256"
        }
      ],
      "stateMutability": "view",
      "type": "function"
    },
    {
      "inputs": [
        {
          "internalType": "uint256",
          "name": "assets",
          "type": "uint256"
        }
      ],
      "name": "previewDeposit",
      "outputs": [
        {
          "internalType": "uint256",
          "name": "",
          "type": "uint256"
        }
      ],
      "stateMutability": "view",
      "type": "function"
    },
    {
      "inputs": [
        {
          "internalType": "uint256",
          "name": "shares",
          "type": "uint256"
        }
      ],
      "name": "previewMint",
      "outputs": [
        {
          "internalType": "uint256",
          "name": "",
          "type": "uint256"
        }
      ],
      "stateMutability": "view",
      "type": "function"
    },
    {
      "inputs": [
        {
          "internalType": "uint256",
          "name": "shares",
          "type": "uint256"
        }
      ],
      "name": "previewRedeem",
      "outputs": [
        {
          "internalType": "uint256",
          "name": "",
          "type": "uint256"
        }
      ],
      "stateMutability": "view",
      "type": "function"
    },
    {
      "inputs": [
        {
          "internalType": "uint256",
          "name": "assets",
          "type": "uint256"
        }
      ],
      "name": "previewWithdraw",
      "outputs": [
        {
          "internalType": "uint256",
          "name": "",
          "type": "uint256"
        }
      ],
      "stateMutability": "view",
      "type": "function"
    },
    {
      "inputs": [],
      "name": "processDepositRequests",
      "outputs": [],
      "stateMutability": "nonpayable",
      "type": "function"
    },
    {
      "inputs": [],
      "name": "processWithdrawRequests",
      "outputs": [],
      "stateMutability": "nonpayable",
      "type": "function"
    },
    {
      "inputs": [
        {
          "internalType": "uint256",
          "name": "",
          "type": "uint256"
        },
        {
          "internalType": "address",
          "name": "",
          "type": "address"
        },
        {
          "internalType": "address",
          "name": "",
          "type": "address"
        }
      ],
      "name": "redeem",
      "outputs": [
        {
          "internalType": "uint256",
          "name": "",
          "type": "uint256"
        }
      ],
      "stateMutability": "pure",
      "type": "function"
    },
    {
      "inputs": [
        {
          "internalType": "uint256",
          "name": "amount",
          "type": "uint256"
        }
      ],
      "name": "requestDeposit",
      "outputs": [],
      "stateMutability": "nonpayable",
      "type": "function"
    },
    {
      "inputs": [
        {
          "internalType": "uint256",
          "name": "shares",
          "type": "uint256"
        }
      ],
      "name": "requestWithdraw",
      "outputs": [],
      "stateMutability": "nonpayable",
      "type": "function"
    },
    {
      "inputs": [
        {
          "components": [
            {
              "internalType": "address",
              "name": "token",
              "type": "address"
            },
            {
              "internalType": "externalEuint32",
              "name": "weight",
              "type": "bytes32"
            }
          ],
          "internalType": "struct IOrionEncryptedVault.EncryptedIntent[]",
          "name": "intent",
          "type": "tuple[]"
        },
        {
          "internalType": "bytes",
          "name": "inputProof",
          "type": "bytes"
        }
      ],
      "name": "submitIntent",
      "outputs": [],
      "stateMutability": "nonpayable",
      "type": "function"
    },
    {
      "inputs": [],
      "name": "symbol",
      "outputs": [
        {
          "internalType": "string",
          "name": "",
          "type": "string"
        }
      ],
      "stateMutability": "view",
      "type": "function"
    },
    {
      "inputs": [],
      "name": "totalAssets",
      "outputs": [
        {
          "internalType": "uint256",
          "name": "",
          "type": "uint256"
        }
      ],
      "stateMutability": "view",
      "type": "function"
    },
    {
      "inputs": [],
      "name": "totalSupply",
      "outputs": [
        {
          "internalType": "uint256",
          "name": "",
          "type": "uint256"
        }
      ],
      "stateMutability": "view",
      "type": "function"
    },
    {
      "inputs": [
        {
          "internalType": "address",
          "name": "to",
          "type": "address"
        },
        {
          "internalType": "uint256",
          "name": "value",
          "type": "uint256"
        }
      ],
      "name": "transfer",
      "outputs": [
        {
          "internalType": "bool",
          "name": "",
          "type": "bool"
        }
      ],
      "stateMutability": "nonpayable",
      "type": "function"
    },
    {
      "inputs": [
        {
          "internalType": "address",
          "name": "from",
          "type": "address"
        },
        {
          "internalType": "address",
          "name": "to",
          "type": "address"
        },
        {
          "internalType": "uint256",
          "name": "value",
          "type": "uint256"
        }
      ],
      "name": "transferFrom",
      "outputs": [
        {
          "internalType": "bool",
          "name": "",
          "type": "bool"
        }
      ],
      "stateMutability": "nonpayable",
      "type": "function"
    },
    {
      "inputs": [
        {
          "internalType": "address",
          "name": "newCurator",
          "type": "address"
        }
      ],
      "name": "updateCurator",
      "outputs": [],
      "stateMutability": "nonpayable",
      "type": "function"
    },
    {
      "inputs": [
        {
          "internalType": "uint8",
          "name": "feeType",
          "type": "uint8"
        },
        {
          "internalType": "uint16",
          "name": "performanceFee",
          "type": "uint16"
        },
        {
          "internalType": "uint16",
          "name": "managementFee",
          "type": "uint16"
        }
      ],
      "name": "updateFeeModel",
      "outputs": [],
      "stateMutability": "nonpayable",
      "type": "function"
    },
    {
      "inputs": [],
      "name": "updateHighWaterMark",
      "outputs": [],
      "stateMutability": "nonpayable",
      "type": "function"
    },
    {
      "inputs": [
        {
          "components": [
            {
              "internalType": "address",
              "name": "token",
              "type": "address"
            },
            {
              "internalType": "euint32",
              "name": "value",
              "type": "bytes32"
            }
          ],
          "internalType": "struct IOrionEncryptedVault.EncryptedPortfolio[]",
          "name": "portfolio",
          "type": "tuple[]"
        },
        {
          "internalType": "uint256",
          "name": "newTotalAssets",
          "type": "uint256"
        }
      ],
      "name": "updateVaultState",
      "outputs": [],
      "stateMutability": "nonpayable",
      "type": "function"
    },
    {
      "inputs": [
        {
          "internalType": "address[]",
          "name": "assets",
          "type": "address[]"
        }
      ],
      "name": "updateVaultWhitelist",
      "outputs": [],
      "stateMutability": "nonpayable",
      "type": "function"
    },
    {
      "inputs": [],
      "name": "vaultOwner",
      "outputs": [
        {
          "internalType": "address",
          "name": "",
          "type": "address"
        }
      ],
      "stateMutability": "view",
      "type": "function"
    },
    {
      "inputs": [
        {
          "internalType": "uint256",
          "name": "",
          "type": "uint256"
        },
        {
          "internalType": "address",
          "name": "",
          "type": "address"
        },
        {
          "internalType": "address",
          "name": "",
          "type": "address"
        }
      ],
      "name": "withdraw",
      "outputs": [
        {
          "internalType": "uint256",
          "name": "",
          "type": "uint256"
        }
      ],
      "stateMutability": "pure",
      "type": "function"
    }
  ],
  "bytecode": "0x60c060405234801561000f575f5ffd5b506040516156d13803806156d183398101604081905261002e91610b32565b8787878787878787856001600160a01b0316637158da7c6040518163ffffffff1660e01b8152600401602060405180830381865afa158015610072573d5f5f3e3d5ffd5b505050506040513d601f19601f820116820180604052508101906100969190610c01565b858561013b610136604080516080810182525f80825260208201819052918101829052606081019190915250604080516080810182527350157cffd6bbfa2dece204a89ec419c23ef5755d815273cd3ab3bd6bcc0c0bf3e27912a92043e817b1cf696020820152731364cbbf2cdf5032c47d8226a6f6fbd2afcdacac9181019190915273901f8942346f7ab3a01f6d7613119bca447bb030606082015290565b6105f2565b61015873a02cda4ca3a71d7c46997716f4283aa851c288126106ab565b60036101648382610ca0565b5060046101718282610ca0565b5050505f5f610185836106e860201b60201c565b9150915081610195576012610197565b805b60ff1660a05250506001600160a01b03908116608052600160055587166101d15760405163e6c4247b60e01b815260040160405180910390fd5b6001600160a01b0386166101f85760405163e6c4247b60e01b815260040160405180910390fd5b600680546001600160a01b03808b166001600160a01b031992831617909255600780548a841690831617905560088054928916929091168217905560408051630691d8b960e31b8152905163348ec5c8916004808201926020929091908290030181865afa15801561026c573d5f5f3e3d5ffd5b505050506040513d601f19601f820116820180604052508101906102909190610c01565b60095f6101000a8154816001600160a01b0302191690836001600160a01b03160217905550856001600160a01b0316633a0dad8e6040518163ffffffff1660e01b8152600401602060405180830381865afa1580156102f1573d5f5f3e3d5ffd5b505050506040513d601f19601f820116820180604052508101906103159190610c01565b600a5f6101000a8154816001600160a01b0302191690836001600160a01b03160217905550856001600160a01b031663d1717c7d6040518163ffffffff1660e01b8152600401602060405180830381865afa158015610376573d5f5f3e3d5ffd5b505050506040513d601f19601f8201168201806040525081019061039a9190610d5a565b600a60146101000a81548160ff021916908360ff1602179055505f600d819055505f6014819055505f6015819055505f866001600160a01b0316637158da7c6040518163ffffffff1660e01b8152600401602060405180830381865afa158015610406573d5f5f3e3d5ffd5b505050506040513d601f19601f8201168201806040525081019061042a9190610c01565b6001600160a01b031663313ce5676040518163ffffffff1660e01b8152600401602060405180830381865afa158015610465573d5f5f3e3d5ffd5b505050506040513d601f19601f820116820180604052508101906104899190610d5a565b9050601260ff821611156104b057604051631c03248960e11b815260040160405180910390fd5b600460ff851611156104d5576040516317dbc4cb60e21b815260040160405180910390fd5b610bb861ffff841611156104fc576040516317dbc4cb60e21b815260040160405180910390fd5b61012c61ffff83161115610523576040516317dbc4cb60e21b815260040160405180910390fd5b8360ff16600481111561053857610538610d73565b6017805460ff1916600183600481111561055457610554610d73565b02179055506017805461ffff84811663010000000264ffff00000019918716610100029190911664ffffffff0019909216919091171790556105986012600a610e7e565b6018556105a36107be565b5050505050505050506105bb5f61089360201b60201c565b601e556105c860016108ab565b601f55601e546105d7906108c6565b50601f546105e4906108c6565b505050505050505050610faf565b80515f5160206156915f395f51905f5280546001600160a01b03199081166001600160a01b039384161790915560208301515f5160206156b15f395f51905f528054831691841691909117905560408301517fed8d60e34876f751cc8b014c560745351147d9de11b9347c854e881b128ea6028054831691841691909117905560608301517fed8d60e34876f751cc8b014c560745351147d9de11b9347c854e881b128ea6038054909216921691909117905550565b50565b7f5ea69329017273582817d320489fbd94f775580e90c092699ca6f3d12fdf7d0080546001600160a01b0319166001600160a01b03831617905550565b60408051600481526024810182526020810180516001600160e01b031663313ce56760e01b17905290515f918291829182916001600160a01b0387169161072e91610e8c565b5f60405180830381855afa9150503d805f8114610766576040519150601f19603f3d011682016040523d82523d5f602084013e61076b565b606091505b509150915081801561077f57506020815110155b156107b2575f818060200190518101906107999190610ea2565b905060ff81116107b0576001969095509350505050565b505b505f9485945092505050565b60085460408051636c366a2760e11b815290515f926001600160a01b03169163d86cd44e91600480830192869291908290030181865afa158015610804573d5f5f3e3d5ffd5b505050506040513d5f823e601f3d908101601f1916820160405261082b9190810190610eb9565b90505f5b815181101561088f575f61086683838151811061084e5761084e610f6b565b6020026020010151600b6108d560201b90919060201c565b90508061088657604051630ea075bf60e21b815260040160405180910390fd5b5060010161082f565b5050565b5f6108a563ffffffff831660046108f0565b92915050565b5f6108a5826108ba575f6108bd565b60015b60ff165f6108f0565b5f6108d18230610987565b5090565b5f6108e9836001600160a01b0384166109fd565b9392505050565b5f5160206156b15f395f51905f5254604051639cd07acb60e01b81525f915f5160206156915f395f51905f52916001600160a01b0390911690639cd07acb9061093f9087908790600401610f7f565b6020604051808303815f875af115801561095b573d5f5f3e3d5ffd5b505050506040513d601f19601f8201168201806040525081019061097f9190610ea2565b949350505050565b5f5f5160206156915f395f51905f528054604051635ca4b5b160e11b8152600481018690526001600160a01b03858116602483015292935091169063b9496b62906044015f604051808303815f87803b1580156109e2575f5ffd5b505af11580156109f4573d5f5f3e3d5ffd5b50505050505050565b5f818152600183016020526040812054610a4257508154600181810184555f8481526020808220909301849055845484825282860190935260409020919091556108a5565b505f6108a5565b6001600160a01b03811681146106a8575f5ffd5b634e487b7160e01b5f52604160045260245ffd5b604051601f8201601f191681016001600160401b0381118282101715610a9957610a99610a5d565b604052919050565b5f82601f830112610ab0575f5ffd5b81516001600160401b03811115610ac957610ac9610a5d565b610adc601f8201601f1916602001610a71565b818152846020838601011115610af0575f5ffd5b8160208501602083015e5f918101602001919091529392505050565b805160ff81168114610b1c575f5ffd5b919050565b805161ffff81168114610b1c575f5ffd5b5f5f5f5f5f5f5f5f610100898b031215610b4a575f5ffd5b8851610b5581610a49565b60208a0151909850610b6681610a49565b60408a0151909750610b7781610a49565b60608a01519096506001600160401b03811115610b92575f5ffd5b610b9e8b828c01610aa1565b60808b015190965090506001600160401b03811115610bbb575f5ffd5b610bc78b828c01610aa1565b945050610bd660a08a01610b0c565b9250610be460c08a01610b21565b9150610bf260e08a01610b21565b90509295985092959890939650565b5f60208284031215610c11575f5ffd5b81516108e981610a49565b600181811c90821680610c3057607f821691505b602082108103610c4e57634e487b7160e01b5f52602260045260245ffd5b50919050565b601f821115610c9b57805f5260205f20601f840160051c81016020851015610c795750805b601f840160051c820191505b81811015610c98575f8155600101610c85565b50505b505050565b81516001600160401b03811115610cb957610cb9610a5d565b610ccd81610cc78454610c1c565b84610c54565b6020601f821160018114610cff575f8315610ce85750848201515b5f19600385901b1c1916600184901b178455610c98565b5f84815260208120601f198516915b82811015610d2e5787850151825560209485019460019092019101610d0e565b5084821015610d4b57868401515f19600387901b60f8161c191681555b50505050600190811b01905550565b5f60208284031215610d6a575f5ffd5b6108e982610b0c565b634e487b7160e01b5f52602160045260245ffd5b634e487b7160e01b5f52601160045260245ffd5b6001815b6001841115610dd657808504811115610dba57610dba610d87565b6001841615610dc857908102905b60019390931c928002610d9f565b935093915050565b5f82610dec575060016108a5565b81610df857505f6108a5565b8160018114610e0e5760028114610e1857610e34565b60019150506108a5565b60ff841115610e2957610e29610d87565b50506001821b6108a5565b5060208310610133831016604e8410600b8410161715610e57575081810a6108a5565b610e635f198484610d9b565b805f1904821115610e7657610e76610d87565b029392505050565b5f6108e960ff841683610dde565b5f82518060208501845e5f920191825250919050565b5f60208284031215610eb2575f5ffd5b5051919050565b5f60208284031215610ec9575f5ffd5b81516001600160401b03811115610ede575f5ffd5b8201601f81018413610eee575f5ffd5b80516001600160401b03811115610f0757610f07610a5d565b8060051b610f1760208201610a71565b91825260208184018101929081019087841115610f32575f5ffd5b6020850194505b83851015610f605784519250610f4e83610a49565b82825260209485019490910190610f39565b979650505050505050565b634e487b7160e01b5f52603260045260245ffd5b8281526040810160548310610fa257634e487b7160e01b5f52602160045260245ffd5b8260208301529392505050565b60805160a0516146c4610fcd5f395f50505f610fe401526146c45ff3fe608060405234801561000f575f5ffd5b50600436106102cc575f3560e01c806395d89b411161018157806395d89b41146104f657806397ee1144146104fe5780639908840c146105345780639adb29811461053d578063a68a526714610550578063a9059cbb14610563578063aa9d3a6014610576578063acdb3d511461057e578063b3d7f6b914610587578063b460af941461059a578063b6eba653146105a8578063ba0876521461059a578063bdca9165146105be578063c0b568e1146105c7578063c37fc8a8146105da578063c392e58c146105e2578063c63d75b614610447578063c6e6f592146105f5578063cce4705b14610608578063ce96cb771461061b578063d1699c261461062e578063d1717c7d14610636578063d3d034581461064a578063d853365f14610652578063d905777e1461065a578063dceb7e281461066d578063dd62ed3e1461067a578063e51a85f61461068d578063e66f53b7146106a0578063e9c30a1a146106b3578063ef8b30f7146105f5575f5ffd5b806301e1d114146102d057806303d44854146102e757806306fdde03146102fc57806307a2d13a14610311578063095ea7b3146103245780630a28a477146103475780630c6a62dd1461035a5780630d1e66671461036d5780630df571f71461038057806318160ddd1461039357806318c219491461039b5780631f52692b146103ae57806323b872dd146103ce5780632dae2967146103e1578063313ce567146103e957806333fdc592146103fe578063348ec5c81461040657806338d52e0f146104195780633a0dad8e146104215780633ab6d27c14610434578063402d267d146104475780634cdad5061461031157806358df83011461045b5780636e553f651461046e57806370a0823114610481578063745400c9146104945780637847ea53146104a757806379502c55146104c75780638f5c9465146104da57806394bf804d1461046e575b5f5ffd5b600d545b6040519081526020015b60405180910390f35b6102fa6102f5366004613c17565b6106c8565b005b6103046107f8565b6040516102de9190613cd7565b6102d461031f366004613ce9565b610888565b610337610332366004613d00565b610899565b60405190151581526020016102de565b6102d4610355366004613ce9565b6108b0565b6102fa610368366004613d28565b6108bc565b6102fa61037b366004613ce9565b610930565b6102fa61038e366004613d41565b610bb1565b6002546102d4565b6102fa6103a9366004613ce9565b610c40565b6006546103c1906001600160a01b031681565b6040516102de9190613d61565b6103376103dc366004613d75565b610d16565b6102fa610d3b565b60125b60405160ff90911681526020016102de565b6102fa610d8a565b6009546103c1906001600160a01b031681565b6103c1610fe2565b600a546103c1906001600160a01b031681565b6102fa610442366004613dcc565b611006565b6102d4610455366004613d28565b505f1990565b6102fa610469366004613e21565b6111e5565b6102d461047c366004613f4b565b611204565b6102d461048f366004613d28565b61121e565b6102fa6104a2366004613ce9565b611238565b6104b26301e1338081565b60405163ffffffff90911681526020016102de565b6008546103c1906001600160a01b031681565b6104e361271081565b60405161ffff90911681526020016102de565b610304611420565b6017546018546105249160ff81169161ffff610100830481169263010000009004169084565b6040516102de9493929190613f89565b6104e361012c81565b6102fa61054b366004613ffb565b61142f565b6102d461055e366004614042565b6115e2565b610337610571366004613d00565b611622565b6102fa61162f565b6102d460165481565b6102d4610595366004613ce9565b6118d6565b6102d461047c366004614070565b6105b06118e2565b6040516102de9291906140ec565b6104e3610bb881565b6102fa6105d5366004613ce9565b611a63565b6015546102d4565b6102fa6105f0366004614144565b611c26565b6102d4610603366004613ce9565b612158565b6102fa610616366004613ce9565b612163565b6102d4610629366004613d28565b612350565b6014546102d4565b600a546103ec90600160a01b900460ff1681565b6105b0612363565b6103ec601281565b6102d4610668366004613d28565b6124c7565b6020546103379060ff1681565b6102d46106883660046141da565b6124d1565b6102d461069b366004613ce9565b6124fb565b6007546103c1906001600160a01b031681565b6106bb612534565b6040516102de9190614202565b6006546001600160a01b031633146106f357604051631a27eac360e11b815260040160405180910390fd5b6106fd600b612545565b5f5b81518110156107f4575f82828151811061071b5761071b614214565b6020908102919091010151600854604051633af32abf60e01b81529192506001600160a01b031690633af32abf90610757908490600401613d61565b602060405180830381865afa158015610772573d5f5f3e3d5ffd5b505050506040513d601f19601f820116820180604052508101906107969190614228565b6107be578060405163751dff9760e11b81526004016107b59190613d61565b60405180910390fd5b5f6107ca600b8361254e565b9050806107ea57604051630ea075bf60e21b815260040160405180910390fd5b50506001016106ff565b5050565b60606003805461080790614243565b80601f016020809104026020016040519081016040528092919081815260200182805461083390614243565b801561087e5780601f106108555761010080835404028352916020019161087e565b820191905f5260205f20905b81548152906001019060200180831161086157829003601f168201915b5050505050905090565b5f610893825f612562565b92915050565b5f336108a68185856125a3565b5060019392505050565b5f6108938260016125b5565b6006546001600160a01b031633146108e757604051631a27eac360e11b815260040160405180910390fd5b6001600160a01b03811661090e5760405163e6c4247b60e01b815260040160405180910390fd5b600780546001600160a01b0319166001600160a01b0392909216919091179055565b6109386125e7565b60085f9054906101000a90046001600160a01b03166001600160a01b031663edcf9c1f6040518163ffffffff1660e01b8152600401602060405180830381865afa158015610988573d5f5f3e3d5ffd5b505050506040513d601f19601f820116820180604052508101906109ac9190614228565b6109c9576040516312aecd8160e01b815260040160405180910390fd5b805f036109f2576109d8610fe2565b604051636b30633560e01b81526004016107b59190613d61565b5f6109fb610fe2565b6001600160a01b03166370a08231336040518263ffffffff1660e01b8152600401610a269190613d61565b602060405180830381865afa158015610a41573d5f5f3e3d5ffd5b505050506040513d601f19601f82011682018060405250810190610a65919061427b565b905080821115610a8e57338183604051632e2a182f60e11b81526004016107b593929190614292565b5f610a97610fe2565b600a546040516323b872dd60e01b81526001600160a01b03928316926323b872dd92610acd9233929091169088906004016142b3565b6020604051808303815f875af1158015610ae9573d5f5f3e3d5ffd5b505050506040513d601f19601f82011682018060405250810190610b0d9190614228565b905080610b2d576040516312171d8360e31b815260040160405180910390fd5b5f610b39600e33612611565b9150610b54905033610b4b86846142eb565b600e9190612637565b508360145f828254610b6691906142eb565b909155505060405184815233907f08d79f77ab5f78e7e780abb1f7ac9e9923340d5bae78f6e83e7999905b248ea2906020015b60405180910390a2505050610bae6001600555565b50565b600a546001600160a01b03163314610bdc57604051631a27eac360e11b815260040160405180910390fd5b80156107f4578060165f828254610bf391906142eb565b909155505060165460405183917f8b8789cf9157fe7b016901e4ed3a5d0971caa8b7c031da0b25638ccf65841b2a91610c3491858252602082015260400190565b60405180910390a25050565b6006546001600160a01b03163314610c6b57604051631a27eac360e11b815260040160405180910390fd5b805f03610c7a576109d8610fe2565b601654811115610ca457601654604051632e2a182f60e11b81526107b59130918490600401614292565b8060165f828254610cb591906142fe565b9091555050600a5460405163741fca4b60e01b8152600481018390526001600160a01b039091169063741fca4b906024015f604051808303815f87803b158015610cfd575f5ffd5b505af1158015610d0f573d5f5f3e3d5ffd5b5050505050565b5f33610d2385828561264c565b610d2e858585612697565b60019150505b9392505050565b600a546001600160a01b03163314610d6657604051631a27eac360e11b815260040160405180910390fd5b5f610d7860125b61031f90600a6143f4565b601854909150811115610bae57601855565b600a546001600160a01b03163314610db557604051631a27eac360e11b815260040160405180910390fd5b610dbd6125e7565b5f610dc8600e6126f4565b90505f8163ffffffff166001600160401b03811115610de957610de9613b96565b604051908082528060200260200182016040528015610e12578160200160208202803683370190505b5090505f8263ffffffff166001600160401b03811115610e3457610e34613b96565b604051908082528060200260200182016040528015610e5d578160200160208202803683370190505b5090505f5b8363ffffffff168163ffffffff161015610ef7575f80610e8c600e63ffffffff808616906126fe16565b9150915081858463ffffffff1681518110610ea957610ea9614214565b60200260200101906001600160a01b031690816001600160a01b03168152505080848463ffffffff1681518110610ee257610ee2614214565b60209081029190910101525050600101610e62565b505f60148190555b8363ffffffff168163ffffffff161015610fd2575f838263ffffffff1681518110610f2c57610f2c614214565b602002602001015190505f838363ffffffff1681518110610f4f57610f4f614214565b60200260200101519050610f6d82600e61270c90919063ffffffff16565b505f610f7882612158565b9050610f848382612720565b826001600160a01b03167f85a190caa61692b36b63a55e069330d18ab9af179fed7a25c16a4262bc63b7d283604051610fbf91815260200190565b60405180910390a2505050600101610eff565b50505050610fe06001600555565b565b7f000000000000000000000000000000000000000000000000000000000000000090565b6006546001600160a01b0316331461103157604051631a27eac360e11b815260040160405180910390fd5b60085f9054906101000a90046001600160a01b03166001600160a01b031663edcf9c1f6040518163ffffffff1660e01b8152600401602060405180830381865afa158015611081573d5f5f3e3d5ffd5b505050506040513d601f19601f820116820180604052508101906110a59190614228565b6110c2576040516312aecd8160e01b815260040160405180910390fd5b600460ff841611156110e7576040516317dbc4cb60e21b815260040160405180910390fd5b610bb861ffff8316111561110e576040516317dbc4cb60e21b815260040160405180910390fd5b61012c61ffff82161115611135576040516317dbc4cb60e21b815260040160405180910390fd5b8260ff16600481111561114a5761114a613f75565b6017805460ff1916600183600481111561116657611166613f75565b02179055506017805464ffffffff00191661010061ffff85811691820264ffff0000001916929092176301000000928516928302179092556040805160ff8716815260208101939093528201527fd24f39e523bfa412fa391702710dc62e1c82d87a8e83228a37c42be1b4870f459060600160405180910390a1505050565b6111ef8382612754565b506020805460ff191691151591909117905550565b5f60405163125ad87760e31b815260040160405180910390fd5b6001600160a01b03165f9081526020819052604090205490565b60085f9054906101000a90046001600160a01b03166001600160a01b031663edcf9c1f6040518163ffffffff1660e01b8152600401602060405180830381865afa158015611288573d5f5f3e3d5ffd5b505050506040513d601f19601f820116820180604052508101906112ac9190614228565b6112c9576040516312aecd8160e01b815260040160405180910390fd5b805f036112eb5730604051636b30633560e01b81526004016107b59190613d61565b5f6112f53361121e565b90508082111561131e57338183604051632e2a182f60e11b81526004016107b593929190614292565b6040516323b872dd60e01b81525f9030906323b872dd90611347903390849088906004016142b3565b6020604051808303815f875af1158015611363573d5f5f3e3d5ffd5b505050506040513d601f19601f820116820180604052508101906113879190614228565b9050806113a7576040516312171d8360e31b815260040160405180910390fd5b5f6113b3601133612611565b91506113ce9050336113c586846142eb565b60119190612637565b508360155f8282546113e091906142eb565b909155505060405184815233907ff7774b688d56120b783560a913ee60792a73dfd511812b7be5eccf10d08c66899060200160405180910390a250505050565b60606004805461080790614243565b600a546001600160a01b0316331461145a57604051631a27eac360e11b815260040160405180910390fd5b601a545f5b8161ffff168161ffff1610156114b857601e5460195f601a8461ffff168154811061148c5761148c614214565b5f9182526020808320909101546001600160a01b0316835282019290925260400190205560010161145f565b506114c4601a5f613b26565b5f5b8161ffff168161ffff1610156115a35784848261ffff168181106114ec576114ec614214565b9050604002016020013560195f87878561ffff1681811061150f5761150f614214565b6115259260206040909202019081019150613d28565b6001600160a01b0316815260208101919091526040015f2055601a858561ffff841681811061155657611556614214565b61156c9260206040909202019081019150613d28565b8154600180820184555f93845260209093200180546001600160a01b0319166001600160a01b0392909216919091179055016114c6565b50600d8290556040518281527f5e1ff954b5e5257e9ee5d4cb07059e8f5e69b1aaaf9911e5d8d90a6894de9c219060200160405180910390a150505050565b5f61161a6115f18460016142eb565b6115f96127bb565b61160490600a6143f4565b60025461161191906142eb565b86919085612837565b949350505050565b5f336108a6818585612697565b600a546001600160a01b0316331461165a57604051631a27eac360e11b815260040160405180910390fd5b6116626125e7565b5f61166d60116126f4565b90505f8163ffffffff166001600160401b0381111561168e5761168e613b96565b6040519080825280602002602001820160405280156116b7578160200160208202803683370190505b5090505f8263ffffffff166001600160401b038111156116d9576116d9613b96565b604051908082528060200260200182016040528015611702578160200160208202803683370190505b5090505f5b8363ffffffff168163ffffffff16101561179c575f80611731601163ffffffff808616906126fe16565b9150915081858463ffffffff168151811061174e5761174e614214565b60200260200101906001600160a01b031690816001600160a01b03168152505080848463ffffffff168151811061178757611787614214565b60209081029190910101525050600101611707565b505f60158190555b8363ffffffff168163ffffffff161015610fd2575f838263ffffffff16815181106117d1576117d1614214565b602002602001015190505f838363ffffffff16815181106117f4576117f4614214565b6020026020010151905061181282601161270c90919063ffffffff16565b505f61181d82610888565b90506118293083612879565b600a54604051632eea26bd60e11b81526001600160a01b0390911690635dd44d7a9061185b9086908590600401614402565b5f604051808303815f87803b158015611872575f5ffd5b505af1158015611884573d5f5f3e3d5ffd5b50505050826001600160a01b03167f44b2ff9ffcefe2052a8afdbed44a04bf3db4592ae90c6b96c818bd28573e41e8836040516118c391815260200190565b60405180910390a25050506001016117a4565b5f610893826001612562565b601c54606090819061ffff81166001600160401b0381111561190657611906613b96565b60405190808252806020026020018201604052801561192f578160200160208202803683370190505b5092508061ffff166001600160401b0381111561194e5761194e613b96565b604051908082528060200260200182016040528015611977578160200160208202803683370190505b5091505f5b8161ffff168161ffff161015611a5d57601c8161ffff16815481106119a3576119a3614214565b905f5260205f20015f9054906101000a90046001600160a01b0316848261ffff16815181106119d4576119d4614214565b60200260200101906001600160a01b031690816001600160a01b031681525050601b5f601c8361ffff1681548110611a0e57611a0e614214565b5f9182526020808320909101546001600160a01b031683528201929092526040019020548351849061ffff8416908110611a4a57611a4a614214565b602090810291909101015260010161197c565b50509091565b611a6b6125e7565b60085f9054906101000a90046001600160a01b03166001600160a01b031663edcf9c1f6040518163ffffffff1660e01b8152600401602060405180830381865afa158015611abb573d5f5f3e3d5ffd5b505050506040513d601f19601f82011682018060405250810190611adf9190614228565b611afc576040516312aecd8160e01b815260040160405180910390fd5b805f03611b0b576109d8610fe2565b5f611b17600e33612611565b91505081811015611b3b576040516332194fd360e21b815260040160405180910390fd5b600a546040516351edffb160e01b81526001600160a01b03909116906351edffb190611b6d9033908690600401614402565b5f604051808303815f87803b158015611b84575f5ffd5b505af1158015611b96573d5f5f3e3d5ffd5b505050505f8282611ba791906142fe565b9050805f03611bc157611bbb600e3361270c565b50611bcf565b611bcd600e3383612637565b505b8260145f828254611be091906142fe565b909155505060405183815233907f96a9a6886cdf3047a125454218a23d3961fd3a78643123b248a9d106d0ac94fd9060200160405180910390a25050610bae6001600555565b6007546001600160a01b03163314611c5157604051631a27eac360e11b815260040160405180910390fd5b611c596125e7565b5f839003611c7a57604051631121aa8d60e01b815260040160405180910390fd5b6020805460ff19169055601e5483905f61ffff83166001600160401b03811115611ca657611ca6613b96565b604051908082528060200260200182016040528015611ccf578160200160208202803683370190505b5090505f8361ffff166001600160401b03811115611cef57611cef613b96565b604051908082528060200260200182016040528015611d18578160200160208202803683370190505b50601f549091505f61ffff86166001600160401b03811115611d3c57611d3c613b96565b604051908082528060200260200182016040528015611d65578160200160208202803683370190505b5090505f5b8661ffff168161ffff161015611f3c575f8b8b8361ffff16818110611d9157611d91614214565b611da79260206040909202019081019150613d28565b905080838361ffff1681518110611dc057611dc0614214565b60200260200101906001600160a01b031690816001600160a01b0316815250505f611e3f8d8d8561ffff16818110611dfa57611dfa614214565b905060400201602001358c8c8080601f0160208091040260200160405190810160405280939291908181526020018383808284375f920191909152506128ad92505050565b9050611e4a816128ba565b505f611e5882601e546128c9565b9050611e6486826128f7565b6001600160a01b0384165f908152601d602052604090205490965060ff1615611ea257826040516346bdabe160e01b81526004016107b59190613d61565b6001600160a01b0383165f908152601d60205260409020805460ff1916600117905587518390899061ffff8716908110611ede57611ede614214565b60200260200101906001600160a01b031690816001600160a01b03168152505081878561ffff1681518110611f1557611f15614214565b602002602001018181525050611f2b8983612925565b98505060019092019150611d6a9050565b50611f4681612953565b5f611f6b600a60149054906101000a900460ff16600a611f6691906143f4565b6129cb565b90505f611f7887836129dd565b90505f611f8585836128f7565b9050611f90816128ba565b506040805160018082528183019092525f916020808301908036833701905050905081815f81518110611fc557611fc5614214565b6020908102919091010152611fe1816358df830160e01b612a0b565b505f5b601c5461ffff908116908216101561203f57601e54601b5f601c8461ffff168154811061201357612013614214565b5f9182526020808320909101546001600160a01b03168352820192909252604001902055600101611fe4565b5061204b601c5f613b26565b5f5b8a61ffff168161ffff161015612113575f898261ffff168151811061207457612074614214565b60200260200101519050888261ffff168151811061209457612094614214565b6020908102919091018101516001600160a01b039092165f818152601b8352604080822094909455601c805460018181019092557f0e4562a10381dec21b205ed72637e6b1b523bdd0e4d4d50af5cd23dd4500a2110180546001600160a01b03191684179055918152601d909252919020805460ff191690550161204d565b5060405133907f2d47a742b8d7df7c1fc5a9a631b206b364e6cb2722490759f63bb3ab14b132e0905f90a2505050505050505050506121526001600555565b50505050565b5f610893825f6125b5565b61216b6125e7565b60085f9054906101000a90046001600160a01b03166001600160a01b031663edcf9c1f6040518163ffffffff1660e01b8152600401602060405180830381865afa1580156121bb573d5f5f3e3d5ffd5b505050506040513d601f19601f820116820180604052508101906121df9190614228565b6121fc576040516312aecd8160e01b815260040160405180910390fd5b805f0361221e5730604051636b30633560e01b81526004016107b59190613d61565b5f61222a601133612611565b9150508181101561224e576040516312ea1f4960e11b815260040160405180910390fd5b5f61225983836142fe565b9050805f036122735761226d60113361270c565b50612281565b61227f60113383612637565b505b8260155f82825461229291906142fe565b909155505060405163a9059cbb60e01b81525f90309063a9059cbb906122be9033908890600401614402565b6020604051808303815f875af11580156122da573d5f5f3e3d5ffd5b505050506040513d601f19601f820116820180604052508101906122fe9190614228565b90508061231e576040516312171d8360e31b815260040160405180910390fd5b60405184815233907f9cf37535785001dcc9767688232fcbc8698b3002d1207b50bc2afec3ff8934dc90602001610b99565b5f61089361235d8361121e565b5f612562565b601a54606090819061ffff81166001600160401b0381111561238757612387613b96565b6040519080825280602002602001820160405280156123b0578160200160208202803683370190505b5092508061ffff166001600160401b038111156123cf576123cf613b96565b6040519080825280602002602001820160405280156123f8578160200160208202803683370190505b5091505f5b8161ffff168161ffff161015611a5d575f601a8261ffff168154811061242557612425614214565b905f5260205f20015f9054906101000a90046001600160a01b0316905080858361ffff168151811061245957612459614214565b60200260200101906001600160a01b031690816001600160a01b03168152505060195f826001600160a01b03166001600160a01b031681526020019081526020015f2054848361ffff16815181106124b3576124b3614214565b6020908102919091010152506001016123fd565b5f6108938261121e565b6001600160a01b039182165f90815260016020908152604080832093909416825291909152205490565b5f5f61250683612a17565b90505f61251382856142fe565b90505f61251f82612ae1565b905061252b81846142eb565b95945050505050565b6060612540600b612b9d565b905090565b610bae81612ba9565b5f610d34836001600160a01b038416612c02565b5f610d3461256f600d5490565b61257a9060016142eb565b6125826127bb565b61258d90600a6143f4565b60025461259a91906142eb565b85919085612837565b6125b08383836001612c49565b505050565b5f610d346125c16127bb565b6125cc90600a6143f4565b6002546125d991906142eb565b600d5461259a9060016142eb565b60026005540361260a57604051633ee5aeb560e01b815260040160405180910390fd5b6002600555565b5f808080612628866001600160a01b038716612d1b565b909450925050505b9250929050565b5f61161a846001600160a01b03851684612d53565b5f61265784846124d1565b90505f19811015612152578181101561268957828183604051637dc7a0d960e11b81526004016107b593929190614292565b61215284848484035f612c49565b6001600160a01b0383166126c0575f604051634b637e8f60e11b81526004016107b59190613d61565b6001600160a01b0382166126e9575f60405163ec442f0560e01b81526004016107b59190613d61565b6125b0838383612d6f565b5f61089382612e82565b5f8080806126288686612e8c565b5f610d34836001600160a01b038416612eb5565b6001600160a01b038216612749575f60405163ec442f0560e01b81526004016107b59190613d61565b6107f45f8383612d6f565b5f61275e83612ed1565b90505f61276b8284612f6d565b90508061278b5760405163cf6c44e960e01b815260040160405180910390fd5b60405184907f1af0453083661051f6e56e5c070792320652e612154bf9af8637bb1e7655b99d905f90a250505050565b5f5f6127c5610fe2565b6001600160a01b031663313ce5676040518163ffffffff1660e01b8152600401602060405180830381865afa158015612800573d5f5f3e3d5ffd5b505050506040513d601f19601f82011682018060405250810190612824919061441b565b9050612831816012614436565b91505090565b5f61286461284483613054565b801561285f57505f848061285a5761285a61444f565b868809115b151590565b61286f868686613080565b61252b91906142eb565b6001600160a01b0382166128a2575f604051634b637e8f60e11b81526004016107b59190613d61565b6107f4825f83612d6f565b5f610d3483836004613130565b5f6128c5823061321a565b5090565b5f826128db576128d85f6129cb565b92505b816128ec576128e95f6129cb565b91505b610d3483835f613287565b5f82612909576129065f61331d565b92505b8161291a576129175f61331d565b91505b610d3483835f613338565b5f82612937576129345f6129cb565b92505b81612948576129455f6129cb565b91505b610d3483835f61338e565b5f5b81518110156107f45761298b82828151811061297357612973614214565b6020026020010151600b6133e490919063ffffffff16565b6129c3578181815181106129a1576129a1614214565b602002602001015160405163751dff9760e11b81526004016107b59190613d61565b600101612955565b5f6108938263ffffffff1660046133f8565b5f826129ef576129ec5f6129cb565b92505b81612a00576129fd5f6129cb565b91505b610d3483835f613477565b5f610d3483835f6134cd565b6017545f906301000000900461ffff168103612a3457505f919050565b6017545f90612a51906301000000900461ffff1684612710613080565b9050610d3460095f9054906101000a90046001600160a01b03166001600160a01b0316634ff0876a6040518163ffffffff1660e01b8152600401602060405180830381865afa158015612aa6573d5f5f3e3d5ffd5b505050506040513d601f19601f82011682018060405250810190612aca9190614463565b829063ffffffff908116906301e133809061308016565b6017545f90610100900461ffff168103612afc57505f919050565b5f612b40612b0b8460016142eb565b612b136127bb565b612b1e90600a6143f4565b600254612b2b91906142eb565b5f612b386012600a6143f4565b929190612837565b6017549091505f908190612b569060ff166135d2565b91509150818311612b6b57505f949350505050565b6017545f90612b8490610100900461ffff168584613080565b9050612b938187612710613080565b9695505050505050565b60605f610d34836136bc565b5f612bb2825490565b90505f5b81811015612bfb57826001015f845f018381548110612bd757612bd7614214565b905f5260205f20015481526020019081526020015f205f9055806001019050612bb6565b50505f9055565b5f612c0d8383613715565b612c4257508154600181810184555f848152602080822090930184905584548482528286019093526040902091909155610893565b505f610893565b6001600160a01b038416612c72575f60405163e602df0560e01b81526004016107b59190613d61565b6001600160a01b038316612c9b575f604051634a1406b160e11b81526004016107b59190613d61565b6001600160a01b038085165f908152600160209081526040808320938716835292905220829055801561215257826001600160a01b0316846001600160a01b03167f8c5be1e5ebec7d5bd14f71427d1e84f3dd0314c0f7b2291e5b200ac8c7c3b92584604051612d0d91815260200190565b60405180910390a350505050565b5f818152600283016020526040812054819080612d4857612d3c858561372c565b92505f91506126309050565b600192509050612630565b5f828152600284016020526040812082905561161a8484613737565b6001600160a01b038316612d99578060025f828254612d8e91906142eb565b90915550612df69050565b6001600160a01b0383165f9081526020819052604090205481811015612dd85783818360405163391434e360e21b81526004016107b593929190614292565b6001600160a01b0384165f9081526020819052604090209082900390555b6001600160a01b038216612e1257600280548290039055612e30565b6001600160a01b0382165f9081526020819052604090208054820190555b816001600160a01b0316836001600160a01b03167fddf252ad1be2c89b69c2b068fc378daa952ba7f163c4a11628f55a4df523b3ef83604051612e7591815260200190565b60405180910390a3505050565b5f61089382613742565b5f8080612e99858561374b565b5f81815260029690960160205260409095205494959350505050565b5f8181526002830160205260408120819055610d348383613756565b60605f612edc613761565b5f84815260028201602052604081205491925003612f0d5760405163d66ca67560e01b815260040160405180910390fd5b5f83815260028201602090815260409182902080548351818402810184019094528084529091830182828015612f6057602002820191905f5260205f20905b815481526020019060010190808311612f4c575b5050505050915050919050565b5f602481612f7a85613785565b90505f816001600160401b03811115612f9557612f95613b96565b6040519080825280601f01601f191660200182016040528015612fbf576020820181803683370190505b509050818360208301375f612fd2613832565b6002810154604051632c027b1360e21b81529192506001600160a01b03169063b009ec4c90613009908a9086908b906004016144b6565b6020604051808303815f875af1158015613025573d5f5f3e3d5ffd5b505050506040513d601f19601f820116820180604052508101906130499190614228565b979650505050505050565b5f600282600381111561306957613069613f75565b6130739190614540565b60ff166001149050919050565b5f5f5f61308d8686613856565b91509150815f036130b1578381816130a7576130a761444f565b0492505050610d34565b8184116130c8576130c86003851502601118613872565b5f848688095f868103871696879004966002600389028118808a02820302808a02820302808a02820302808a02820302808a02820302808a02909103029181900381900460010185841190960395909502919093039390930492909217029150509392505050565b5f5f61313a613832565b600181015460405163196d0b9b60e01b81529192506001600160a01b03169063196d0b9b90613173908890339089908990600401614581565b6020604051808303815f875af115801561318f573d5f5f3e3d5ffd5b505050506040513d601f19601f820116820180604052508101906131b3919061427b565b8154604051630f8e573b60e21b81529193506001600160a01b031690633e395cec906131e590859033906004016145b9565b5f604051808303815f87803b1580156131fc575f5ffd5b505af115801561320e573d5f5f3e3d5ffd5b50505050509392505050565b5f613223613832565b8054604051635ca4b5b160e11b81529192506001600160a01b03169063b9496b629061325590869086906004016145b9565b5f604051808303815f87803b15801561326c575f5ffd5b505af115801561327e573d5f5f3e3d5ffd5b50505050505050565b5f5f821561329a5750600160f81b61329d565b505f5b5f6132a6613832565b60018101546040516385362ee760e01b81529192506001600160a01b0316906385362ee7906132dd908990899087906004016145d0565b6020604051808303815f875af11580156132f9573d5f5f3e3d5ffd5b505050506040513d601f19601f82011682018060405250810190612b93919061427b565b5f6108938261332c575f61332f565b60015b60ff165f6133f8565b5f5f821561334b5750600160f81b61334e565b505f5b5f613357613832565b600181015460405163d99882d560e01b81529192506001600160a01b03169063d99882d5906132dd908990899087906004016145d0565b5f5f82156133a15750600160f81b6133a4565b505f5b5f6133ad613832565b600181015460405163022f65e760e31b81529192506001600160a01b03169063117b2f38906132dd908990899087906004016145d0565b5f610d34836001600160a01b038416613715565b5f5f613402613832565b6001810154604051639cd07acb60e01b81529192506001600160a01b031690639cd07acb9061343790879087906004016145f0565b6020604051808303815f875af1158015613453573d5f5f3e3d5ffd5b505050506040513d601f19601f8201168201806040525081019061161a919061427b565b5f5f821561348a5750600160f81b61348d565b505f5b5f613496613832565b600181015460405163f77f3f1d60e01b81529192506001600160a01b03169063f77f3f1d906132dd908990899087906004016145d0565b5f5f6134d7613761565b9050806001015491505f6134e9613832565b8054604051637d6e912360e11b81529192506001600160a01b03169063fadd224690613519908990600401614604565b5f604051808303815f87803b158015613530575f5ffd5b505af1158015613542573d5f5f3e3d5ffd5b50508354604051633263b83b60e01b81526001600160a01b039091169250633263b83b9150869061357b9087908b908b90600401614616565b5f604051808303818588803b158015613592575f5ffd5b505af11580156135a4573d5f5f3e3d5ffd5b50505050506135b38387613883565b600182018054905f6135c483614647565b919050555050509392505050565b5f80806135df6012610d6d565b90505f8460048111156135f4576135f4613f75565b03613604578092508291506136b6565b600384600481111561361857613618613f75565b0361362a5760185492508291506136b6565b600184600481111561363e5761363e613f75565b036136565761364c816138dd565b92508091506136b6565b600284600481111561366a5761366a613f75565b0361368257613678816138dd565b92508291506136b6565b600484600481111561369657613696613f75565b036136b6576018546136b0906136ab836138dd565b613a03565b92508291505b50915091565b6060815f0180548060200260200160405190810160405280929190818152602001828054801561370957602002820191905f5260205f20905b8154815260200190600101908083116136f5575b50505050509050919050565b5f9081526001919091016020526040902054151590565b5f610d348383613a12565b5f610d348383612c02565b5f610893825490565b5f610d348383613a1d565b5f610d348383613a43565b7f5ea69329017273582817d320489fbd94f775580e90c092699ca6f3d12fdf7d0090565b80515f9081805b82811015613826575f8582815181106137a7576137a7614214565b6020026020010151601e602081106137c1576137c1614214565b1a60538111156137d3576137d3613f75565b905060098160538111156137e9576137e9613f75565b60ff161015613804576137fd6020846142eb565b925061381d565b60405163ce54a8d160e01b815260040160405180910390fd5b5060010161378c565b5061161a6020826142eb565b7fed8d60e34876f751cc8b014c560745351147d9de11b9347c854e881b128ea60090565b5f805f1983850993909202808410938190039390930393915050565b634e487b715f52806020526024601cfd5b5f61388c613761565b5f848152600282016020526040902054909150156138bd57604051633f06d22b60e01b815260040160405180910390fd5b5f8381526002820160209081526040909120835161215292850190613b41565b5f5f60085f9054906101000a90046001600160a01b03166001600160a01b031663f3cc69936040518163ffffffff1660e01b8152600401602060405180830381865afa15801561392f573d5f5f3e3d5ffd5b505050506040513d601f19601f82011682018060405250810190613953919061465f565b61ffff1690505f6139e860095f9054906101000a90046001600160a01b03166001600160a01b0316634ff0876a6040518163ffffffff1660e01b8152600401602060405180830381865afa1580156139ad573d5f5f3e3d5ffd5b505050506040513d601f19601f820116820180604052508101906139d19190614463565b839063ffffffff908116906301e133809061308016565b905061161a6139f9826127106142eb565b8590612710613080565b5f828218828411028218610d34565b5f610d348383613715565b5f825f018281548110613a3257613a32614214565b905f5260205f200154905092915050565b5f8181526001830160205260408120548015613b1d575f613a656001836142fe565b85549091505f90613a78906001906142fe565b9050808214613ad7575f865f018281548110613a9657613a96614214565b905f5260205f200154905080875f018481548110613ab657613ab6614214565b5f918252602080832090910192909255918252600188019052604090208390555b8554869080613ae857613ae861467a565b600190038181905f5260205f20015f90559055856001015f8681526020019081526020015f205f905560019350505050610893565b5f915050610893565b5080545f8255905f5260205f2090810190610bae9190613b82565b828054828255905f5260205f20908101928215613b7a579160200282015b82811115613b7a578251825591602001919060010190613b5f565b506128c59291505b5b808211156128c5575f8155600101613b83565b634e487b7160e01b5f52604160045260245ffd5b604051601f8201601f191681016001600160401b0381118282101715613bd257613bd2613b96565b604052919050565b5f6001600160401b03821115613bf257613bf2613b96565b5060051b60200190565b80356001600160a01b0381168114613c12575f5ffd5b919050565b5f60208284031215613c27575f5ffd5b81356001600160401b03811115613c3c575f5ffd5b8201601f81018413613c4c575f5ffd5b8035613c5f613c5a82613bda565b613baa565b8082825260208201915060208360051b850101925086831115613c80575f5ffd5b6020840193505b82841015612b9357613c9884613bfc565b825260209384019390910190613c87565b5f81518084528060208401602086015e5f602082860101526020601f19601f83011685010191505092915050565b602081525f610d346020830184613ca9565b5f60208284031215613cf9575f5ffd5b5035919050565b5f5f60408385031215613d11575f5ffd5b613d1a83613bfc565b946020939093013593505050565b5f60208284031215613d38575f5ffd5b610d3482613bfc565b5f5f60408385031215613d52575f5ffd5b50508035926020909101359150565b6001600160a01b0391909116815260200190565b5f5f5f60608486031215613d87575f5ffd5b613d9084613bfc565b9250613d9e60208501613bfc565b929592945050506040919091013590565b60ff81168114610bae575f5ffd5b61ffff81168114610bae575f5ffd5b5f5f5f60608486031215613dde575f5ffd5b8335613de981613daf565b92506020840135613df981613dbd565b91506040840135613e0981613dbd565b809150509250925092565b8015158114610bae575f5ffd5b5f5f5f60608486031215613e33575f5ffd5b833592506020840135613e4581613e14565b915060408401356001600160401b03811115613e5f575f5ffd5b8401601f81018613613e6f575f5ffd5b8035613e7d613c5a82613bda565b8082825260208201915060208360051b850101925088831115613e9e575f5ffd5b602084015b83811015613f3c5780356001600160401b03811115613ec0575f5ffd5b8501603f81018b13613ed0575f5ffd5b60208101356001600160401b03811115613eec57613eec613b96565b613eff601f8201601f1916602001613baa565b8181526040838301018d1015613f13575f5ffd5b816040840160208301375f60208383010152808652505050602083019250602081019050613ea3565b50809450505050509250925092565b5f5f60408385031215613f5c575f5ffd5b82359150613f6c60208401613bfc565b90509250929050565b634e487b7160e01b5f52602160045260245ffd5b6080810160058610613f9d57613f9d613f75565b94815261ffff93841660208201529190921660408201526060015290565b5f5f83601f840112613fcb575f5ffd5b5081356001600160401b03811115613fe1575f5ffd5b6020830191508360208260061b8501011115612630575f5ffd5b5f5f5f6040848603121561400d575f5ffd5b83356001600160401b03811115614022575f5ffd5b61402e86828701613fbb565b909790965060209590950135949350505050565b5f5f5f60608486031215614054575f5ffd5b8335925060208401359150604084013560048110613e09575f5ffd5b5f5f5f60608486031215614082575f5ffd5b8335925061409260208501613bfc565b91506140a060408501613bfc565b90509250925092565b5f8151808452602084019350602083015f5b828110156140e25781516001600160a01b03168652602095860195909101906001016140bb565b5093949350505050565b604081525f6140fe60408301856140a9565b82810360208401528084518083526020830191506020860192505f5b8181101561413857835183526020938401939092019160010161411a565b50909695505050505050565b5f5f5f5f60408587031215614157575f5ffd5b84356001600160401b0381111561416c575f5ffd5b61417887828801613fbb565b90955093505060208501356001600160401b03811115614196575f5ffd5b8501601f810187136141a6575f5ffd5b80356001600160401b038111156141bb575f5ffd5b8760208284010111156141cc575f5ffd5b949793965060200194505050565b5f5f604083850312156141eb575f5ffd5b6141f483613bfc565b9150613f6c60208401613bfc565b602081525f610d3460208301846140a9565b634e487b7160e01b5f52603260045260245ffd5b5f60208284031215614238575f5ffd5b8151610d3481613e14565b600181811c9082168061425757607f821691505b60208210810361427557634e487b7160e01b5f52602260045260245ffd5b50919050565b5f6020828403121561428b575f5ffd5b5051919050565b6001600160a01b039390931683526020830191909152604082015260600190565b6001600160a01b039384168152919092166020820152604081019190915260600190565b634e487b7160e01b5f52601160045260245ffd5b80820180821115610893576108936142d7565b81810381811115610893576108936142d7565b6001815b600184111561434c57808504811115614330576143306142d7565b600184161561433e57908102905b60019390931c928002614315565b935093915050565b5f8261436257506001610893565b8161436e57505f610893565b8160018114614384576002811461438e576143aa565b6001915050610893565b60ff84111561439f5761439f6142d7565b50506001821b610893565b5060208310610133831016604e8410600b84101617156143cd575081810a610893565b6143d95f198484614311565b805f19048211156143ec576143ec6142d7565b029392505050565b5f610d3460ff841683614354565b6001600160a01b03929092168252602082015260400190565b5f6020828403121561442b575f5ffd5b8151610d3481613daf565b60ff8281168282160390811115610893576108936142d7565b634e487b7160e01b5f52601260045260245ffd5b5f60208284031215614473575f5ffd5b815163ffffffff81168114610d34575f5ffd5b5f8151808452602084019350602083015f5b828110156140e2578151865260209586019590910190600101614498565b606081525f6144c86060830186614486565b82810360208401526144da8186613ca9565b9050828103604084015280845180835260208301915060208160051b840101602087015f5b8381101561453157601f1986840301855261451b838351613ca9565b60209586019590935091909101906001016144ff565b50909998505050505050505050565b5f60ff83168061455e57634e487b7160e01b5f52601260045260245ffd5b8060ff84160691505092915050565b6054811061457d5761457d613f75565b9052565b8481526001600160a01b03841660208201526080604082018190525f906145aa90830185613ca9565b905061252b606083018461456d565b9182526001600160a01b0316602082015260400190565b92835260208301919091526001600160f81b031916604082015260600190565b82815260408101610d34602083018461456d565b602081525f610d346020830184614486565b838152606060208201525f61462e6060830185614486565b905063ffffffff60e01b83166040830152949350505050565b5f60018201614658576146586142d7565b5060010190565b5f6020828403121561466f575f5ffd5b8151610d3481613dbd565b634e487b7160e01b5f52603160045260245ffdfea2646970667358221220a7ae1fcd7475b143e83f910c6ef8dca479604dbcce967a4d4cf5a0285b2d449264736f6c634300081c0033ed8d60e34876f751cc8b014c560745351147d9de11b9347c854e881b128ea600ed8d60e34876f751cc8b014c560745351147d9de11b9347c854e881b128ea601",
  "linkReferences": {},
  "deployedLinkReferences": {}
}