{
  "_format": "hh-sol-artifact-1",
  "contractName": "OrionEncryptedVault",
  "sourceName": "contracts/vaults/OrionEncryptedVault.sol",
  "abi": [
    {
      "inputs": [
        {
          "internalType": "address",
          "name": "target",
          "type": "address"
        }
      ],
      "name": "AddressEmptyCode",
      "type": "error"
    },
    {
      "inputs": [
        {
          "internalType": "address",
          "name": "asset",
          "type": "address"
        }
      ],
      "name": "AmountMustBeGreaterThanZero",
      "type": "error"
    },
    {
      "inputs": [
        {
          "internalType": "address",
          "name": "implementation",
          "type": "address"
        }
      ],
      "name": "ERC1967InvalidImplementation",
      "type": "error"
    },
    {
      "inputs": [],
      "name": "ERC1967NonPayable",
      "type": "error"
    },
    {
      "inputs": [
        {
          "internalType": "address",
          "name": "spender",
          "type": "address"
        },
        {
          "internalType": "uint256",
          "name": "allowance",
          "type": "uint256"
        },
        {
          "internalType": "uint256",
          "name": "needed",
          "type": "uint256"
        }
      ],
      "name": "ERC20InsufficientAllowance",
      "type": "error"
    },
    {
      "inputs": [
        {
          "internalType": "address",
          "name": "sender",
          "type": "address"
        },
        {
          "internalType": "uint256",
          "name": "balance",
          "type": "uint256"
        },
        {
          "internalType": "uint256",
          "name": "needed",
          "type": "uint256"
        }
      ],
      "name": "ERC20InsufficientBalance",
      "type": "error"
    },
    {
      "inputs": [
        {
          "internalType": "address",
          "name": "approver",
          "type": "address"
        }
      ],
      "name": "ERC20InvalidApprover",
      "type": "error"
    },
    {
      "inputs": [
        {
          "internalType": "address",
          "name": "receiver",
          "type": "address"
        }
      ],
      "name": "ERC20InvalidReceiver",
      "type": "error"
    },
    {
      "inputs": [
        {
          "internalType": "address",
          "name": "sender",
          "type": "address"
        }
      ],
      "name": "ERC20InvalidSender",
      "type": "error"
    },
    {
      "inputs": [
        {
          "internalType": "address",
          "name": "spender",
          "type": "address"
        }
      ],
      "name": "ERC20InvalidSpender",
      "type": "error"
    },
    {
      "inputs": [
        {
          "internalType": "address",
          "name": "receiver",
          "type": "address"
        },
        {
          "internalType": "uint256",
          "name": "assets",
          "type": "uint256"
        },
        {
          "internalType": "uint256",
          "name": "max",
          "type": "uint256"
        }
      ],
      "name": "ERC4626ExceededMaxDeposit",
      "type": "error"
    },
    {
      "inputs": [
        {
          "internalType": "address",
          "name": "receiver",
          "type": "address"
        },
        {
          "internalType": "uint256",
          "name": "shares",
          "type": "uint256"
        },
        {
          "internalType": "uint256",
          "name": "max",
          "type": "uint256"
        }
      ],
      "name": "ERC4626ExceededMaxMint",
      "type": "error"
    },
    {
      "inputs": [
        {
          "internalType": "address",
          "name": "owner",
          "type": "address"
        },
        {
          "internalType": "uint256",
          "name": "shares",
          "type": "uint256"
        },
        {
          "internalType": "uint256",
          "name": "max",
          "type": "uint256"
        }
      ],
      "name": "ERC4626ExceededMaxRedeem",
      "type": "error"
    },
    {
      "inputs": [
        {
          "internalType": "address",
          "name": "owner",
          "type": "address"
        },
        {
          "internalType": "uint256",
          "name": "assets",
          "type": "uint256"
        },
        {
          "internalType": "uint256",
          "name": "max",
          "type": "uint256"
        }
      ],
      "name": "ERC4626ExceededMaxWithdraw",
      "type": "error"
    },
    {
      "inputs": [],
      "name": "FailedCall",
      "type": "error"
    },
    {
      "inputs": [],
      "name": "InvalidConfigAddress",
      "type": "error"
    },
    {
      "inputs": [],
      "name": "InvalidCuratorAddress",
      "type": "error"
    },
    {
      "inputs": [],
      "name": "InvalidInitialization",
      "type": "error"
    },
    {
      "inputs": [],
      "name": "NotCurator",
      "type": "error"
    },
    {
      "inputs": [],
      "name": "NotEnoughDepositRequest",
      "type": "error"
    },
    {
      "inputs": [],
      "name": "NotEnoughShares",
      "type": "error"
    },
    {
      "inputs": [],
      "name": "NotInitializing",
      "type": "error"
    },
    {
      "inputs": [],
      "name": "NotLiquidityOrchestrator",
      "type": "error"
    },
    {
      "inputs": [],
      "name": "OrderIntentCannotBeEmpty",
      "type": "error"
    },
    {
      "inputs": [
        {
          "internalType": "address",
          "name": "owner",
          "type": "address"
        }
      ],
      "name": "OwnableInvalidOwner",
      "type": "error"
    },
    {
      "inputs": [
        {
          "internalType": "address",
          "name": "account",
          "type": "address"
        }
      ],
      "name": "OwnableUnauthorizedAccount",
      "type": "error"
    },
    {
      "inputs": [],
      "name": "ReentrancyGuardReentrantCall",
      "type": "error"
    },
    {
      "inputs": [],
      "name": "SharesMustBeGreaterThanZero",
      "type": "error"
    },
    {
      "inputs": [],
      "name": "SynchronousDepositsDisabled",
      "type": "error"
    },
    {
      "inputs": [],
      "name": "SynchronousRedemptionsDisabled",
      "type": "error"
    },
    {
      "inputs": [],
      "name": "SynchronousWithdrawalsDisabled",
      "type": "error"
    },
    {
      "inputs": [
        {
          "internalType": "address",
          "name": "token",
          "type": "address"
        }
      ],
      "name": "TokenNotWhitelisted",
      "type": "error"
    },
    {
      "inputs": [],
      "name": "TransferFailed",
      "type": "error"
    },
    {
      "inputs": [],
      "name": "UUPSUnauthorizedCallContext",
      "type": "error"
    },
    {
      "inputs": [
        {
          "internalType": "bytes32",
          "name": "slot",
          "type": "bytes32"
        }
      ],
      "name": "UUPSUnsupportedProxiableUUID",
      "type": "error"
    },
    {
      "anonymous": false,
      "inputs": [
        {
          "indexed": true,
          "internalType": "address",
          "name": "owner",
          "type": "address"
        },
        {
          "indexed": true,
          "internalType": "address",
          "name": "spender",
          "type": "address"
        },
        {
          "indexed": false,
          "internalType": "uint256",
          "name": "value",
          "type": "uint256"
        }
      ],
      "name": "Approval",
      "type": "event"
    },
    {
      "anonymous": false,
      "inputs": [
        {
          "indexed": true,
          "internalType": "address",
          "name": "sender",
          "type": "address"
        },
        {
          "indexed": true,
          "internalType": "address",
          "name": "owner",
          "type": "address"
        },
        {
          "indexed": false,
          "internalType": "uint256",
          "name": "assets",
          "type": "uint256"
        },
        {
          "indexed": false,
          "internalType": "uint256",
          "name": "shares",
          "type": "uint256"
        }
      ],
      "name": "Deposit",
      "type": "event"
    },
    {
      "anonymous": false,
      "inputs": [
        {
          "indexed": true,
          "internalType": "address",
          "name": "user",
          "type": "address"
        },
        {
          "indexed": false,
          "internalType": "uint256",
          "name": "amount",
          "type": "uint256"
        },
        {
          "indexed": false,
          "internalType": "uint256",
          "name": "requestId",
          "type": "uint256"
        }
      ],
      "name": "DepositProcessed",
      "type": "event"
    },
    {
      "anonymous": false,
      "inputs": [
        {
          "indexed": true,
          "internalType": "address",
          "name": "user",
          "type": "address"
        },
        {
          "indexed": false,
          "internalType": "uint256",
          "name": "amount",
          "type": "uint256"
        },
        {
          "indexed": false,
          "internalType": "uint256",
          "name": "depositorCount",
          "type": "uint256"
        }
      ],
      "name": "DepositRequestCancelled",
      "type": "event"
    },
    {
      "anonymous": false,
      "inputs": [
        {
          "indexed": true,
          "internalType": "address",
          "name": "user",
          "type": "address"
        },
        {
          "indexed": false,
          "internalType": "uint256",
          "name": "amount",
          "type": "uint256"
        },
        {
          "indexed": false,
          "internalType": "uint256",
          "name": "requestId",
          "type": "uint256"
        }
      ],
      "name": "DepositRequested",
      "type": "event"
    },
    {
      "anonymous": false,
      "inputs": [
        {
          "indexed": false,
          "internalType": "uint64",
          "name": "version",
          "type": "uint64"
        }
      ],
      "name": "Initialized",
      "type": "event"
    },
    {
      "anonymous": false,
      "inputs": [
        {
          "indexed": true,
          "internalType": "address",
          "name": "curator",
          "type": "address"
        }
      ],
      "name": "OrderSubmitted",
      "type": "event"
    },
    {
      "anonymous": false,
      "inputs": [
        {
          "indexed": true,
          "internalType": "address",
          "name": "previousOwner",
          "type": "address"
        },
        {
          "indexed": true,
          "internalType": "address",
          "name": "newOwner",
          "type": "address"
        }
      ],
      "name": "OwnershipTransferStarted",
      "type": "event"
    },
    {
      "anonymous": false,
      "inputs": [
        {
          "indexed": true,
          "internalType": "address",
          "name": "previousOwner",
          "type": "address"
        },
        {
          "indexed": true,
          "internalType": "address",
          "name": "newOwner",
          "type": "address"
        }
      ],
      "name": "OwnershipTransferred",
      "type": "event"
    },
    {
      "anonymous": false,
      "inputs": [
        {
          "indexed": true,
          "internalType": "address",
          "name": "from",
          "type": "address"
        },
        {
          "indexed": true,
          "internalType": "address",
          "name": "to",
          "type": "address"
        },
        {
          "indexed": false,
          "internalType": "uint256",
          "name": "value",
          "type": "uint256"
        }
      ],
      "name": "Transfer",
      "type": "event"
    },
    {
      "anonymous": false,
      "inputs": [
        {
          "indexed": true,
          "internalType": "address",
          "name": "implementation",
          "type": "address"
        }
      ],
      "name": "Upgraded",
      "type": "event"
    },
    {
      "anonymous": false,
      "inputs": [
        {
          "indexed": false,
          "internalType": "uint256",
          "name": "newTotalAssets",
          "type": "uint256"
        }
      ],
      "name": "VaultStateUpdated",
      "type": "event"
    },
    {
      "anonymous": false,
      "inputs": [
        {
          "indexed": true,
          "internalType": "address",
          "name": "sender",
          "type": "address"
        },
        {
          "indexed": true,
          "internalType": "address",
          "name": "receiver",
          "type": "address"
        },
        {
          "indexed": true,
          "internalType": "address",
          "name": "owner",
          "type": "address"
        },
        {
          "indexed": false,
          "internalType": "uint256",
          "name": "assets",
          "type": "uint256"
        },
        {
          "indexed": false,
          "internalType": "uint256",
          "name": "shares",
          "type": "uint256"
        }
      ],
      "name": "Withdraw",
      "type": "event"
    },
    {
      "anonymous": false,
      "inputs": [
        {
          "indexed": true,
          "internalType": "address",
          "name": "user",
          "type": "address"
        },
        {
          "indexed": false,
          "internalType": "uint256",
          "name": "shares",
          "type": "uint256"
        },
        {
          "indexed": false,
          "internalType": "uint256",
          "name": "requestId",
          "type": "uint256"
        }
      ],
      "name": "WithdrawProcessed",
      "type": "event"
    },
    {
      "anonymous": false,
      "inputs": [
        {
          "indexed": true,
          "internalType": "address",
          "name": "user",
          "type": "address"
        },
        {
          "indexed": false,
          "internalType": "uint256",
          "name": "shares",
          "type": "uint256"
        },
        {
          "indexed": false,
          "internalType": "uint256",
          "name": "requestId",
          "type": "uint256"
        }
      ],
      "name": "WithdrawRequested",
      "type": "event"
    },
    {
      "inputs": [],
      "name": "UPGRADE_INTERFACE_VERSION",
      "outputs": [
        {
          "internalType": "string",
          "name": "",
          "type": "string"
        }
      ],
      "stateMutability": "view",
      "type": "function"
    },
    {
      "inputs": [],
      "name": "acceptOwnership",
      "outputs": [],
      "stateMutability": "nonpayable",
      "type": "function"
    },
    {
      "inputs": [
        {
          "internalType": "address",
          "name": "owner",
          "type": "address"
        },
        {
          "internalType": "address",
          "name": "spender",
          "type": "address"
        }
      ],
      "name": "allowance",
      "outputs": [
        {
          "internalType": "uint256",
          "name": "",
          "type": "uint256"
        }
      ],
      "stateMutability": "view",
      "type": "function"
    },
    {
      "inputs": [
        {
          "internalType": "address",
          "name": "spender",
          "type": "address"
        },
        {
          "internalType": "uint256",
          "name": "value",
          "type": "uint256"
        }
      ],
      "name": "approve",
      "outputs": [
        {
          "internalType": "bool",
          "name": "",
          "type": "bool"
        }
      ],
      "stateMutability": "nonpayable",
      "type": "function"
    },
    {
      "inputs": [],
      "name": "asset",
      "outputs": [
        {
          "internalType": "address",
          "name": "",
          "type": "address"
        }
      ],
      "stateMutability": "view",
      "type": "function"
    },
    {
      "inputs": [
        {
          "internalType": "address",
          "name": "account",
          "type": "address"
        }
      ],
      "name": "balanceOf",
      "outputs": [
        {
          "internalType": "uint256",
          "name": "",
          "type": "uint256"
        }
      ],
      "stateMutability": "view",
      "type": "function"
    },
    {
      "inputs": [
        {
          "internalType": "uint256",
          "name": "amount",
          "type": "uint256"
        }
      ],
      "name": "cancelDepositRequest",
      "outputs": [],
      "stateMutability": "nonpayable",
      "type": "function"
    },
    {
      "inputs": [],
      "name": "config",
      "outputs": [
        {
          "internalType": "contract IOrionConfig",
          "name": "",
          "type": "address"
        }
      ],
      "stateMutability": "view",
      "type": "function"
    },
    {
      "inputs": [
        {
          "internalType": "uint256",
          "name": "shares",
          "type": "uint256"
        }
      ],
      "name": "convertToAssets",
      "outputs": [
        {
          "internalType": "uint256",
          "name": "",
          "type": "uint256"
        }
      ],
      "stateMutability": "view",
      "type": "function"
    },
    {
      "inputs": [
        {
          "internalType": "uint256",
          "name": "shares",
          "type": "uint256"
        },
        {
          "internalType": "uint256",
          "name": "pointInTimeTotalAssets",
          "type": "uint256"
        },
        {
          "internalType": "enum Math.Rounding",
          "name": "rounding",
          "type": "uint8"
        }
      ],
      "name": "convertToAssetsWithPITTotalAssets",
      "outputs": [
        {
          "internalType": "uint256",
          "name": "",
          "type": "uint256"
        }
      ],
      "stateMutability": "view",
      "type": "function"
    },
    {
      "inputs": [
        {
          "internalType": "uint256",
          "name": "assets",
          "type": "uint256"
        }
      ],
      "name": "convertToShares",
      "outputs": [
        {
          "internalType": "uint256",
          "name": "",
          "type": "uint256"
        }
      ],
      "stateMutability": "view",
      "type": "function"
    },
    {
      "inputs": [],
      "name": "curator",
      "outputs": [
        {
          "internalType": "address",
          "name": "",
          "type": "address"
        }
      ],
      "stateMutability": "view",
      "type": "function"
    },
    {
      "inputs": [],
      "name": "decimals",
      "outputs": [
        {
          "internalType": "uint8",
          "name": "",
          "type": "uint8"
        }
      ],
      "stateMutability": "view",
      "type": "function"
    },
    {
      "inputs": [],
      "name": "deployer",
      "outputs": [
        {
          "internalType": "address",
          "name": "",
          "type": "address"
        }
      ],
      "stateMutability": "view",
      "type": "function"
    },
    {
      "inputs": [
        {
          "internalType": "uint256",
          "name": "",
          "type": "uint256"
        },
        {
          "internalType": "address",
          "name": "",
          "type": "address"
        }
      ],
      "name": "deposit",
      "outputs": [
        {
          "internalType": "uint256",
          "name": "",
          "type": "uint256"
        }
      ],
      "stateMutability": "pure",
      "type": "function"
    },
    {
      "inputs": [],
      "name": "getIntent",
      "outputs": [
        {
          "internalType": "address[]",
          "name": "tokens",
          "type": "address[]"
        },
        {
          "internalType": "euint32[]",
          "name": "weights",
          "type": "uint256[]"
        }
      ],
      "stateMutability": "view",
      "type": "function"
    },
    {
      "inputs": [],
      "name": "getPendingDeposits",
      "outputs": [
        {
          "internalType": "uint256",
          "name": "",
          "type": "uint256"
        }
      ],
      "stateMutability": "view",
      "type": "function"
    },
    {
      "inputs": [],
      "name": "getPendingWithdrawals",
      "outputs": [
        {
          "internalType": "uint256",
          "name": "",
          "type": "uint256"
        }
      ],
      "stateMutability": "view",
      "type": "function"
    },
    {
      "inputs": [],
      "name": "getPortfolio",
      "outputs": [
        {
          "internalType": "address[]",
          "name": "tokens",
          "type": "address[]"
        },
        {
          "internalType": "euint32[]",
          "name": "sharesPerAsset",
          "type": "uint256[]"
        }
      ],
      "stateMutability": "view",
      "type": "function"
    },
    {
      "inputs": [
        {
          "internalType": "address",
          "name": "curatorAddress",
          "type": "address"
        },
        {
          "internalType": "contract IOrionConfig",
          "name": "configAddress",
          "type": "address"
        },
        {
          "internalType": "string",
          "name": "name",
          "type": "string"
        },
        {
          "internalType": "string",
          "name": "symbol",
          "type": "string"
        }
      ],
      "name": "initialize",
      "outputs": [],
      "stateMutability": "nonpayable",
      "type": "function"
    },
    {
      "inputs": [
        {
          "internalType": "address",
          "name": "",
          "type": "address"
        }
      ],
      "name": "maxDeposit",
      "outputs": [
        {
          "internalType": "uint256",
          "name": "",
          "type": "uint256"
        }
      ],
      "stateMutability": "view",
      "type": "function"
    },
    {
      "inputs": [
        {
          "internalType": "address",
          "name": "",
          "type": "address"
        }
      ],
      "name": "maxMint",
      "outputs": [
        {
          "internalType": "uint256",
          "name": "",
          "type": "uint256"
        }
      ],
      "stateMutability": "view",
      "type": "function"
    },
    {
      "inputs": [
        {
          "internalType": "address",
          "name": "owner",
          "type": "address"
        }
      ],
      "name": "maxRedeem",
      "outputs": [
        {
          "internalType": "uint256",
          "name": "",
          "type": "uint256"
        }
      ],
      "stateMutability": "view",
      "type": "function"
    },
    {
      "inputs": [
        {
          "internalType": "address",
          "name": "owner",
          "type": "address"
        }
      ],
      "name": "maxWithdraw",
      "outputs": [
        {
          "internalType": "uint256",
          "name": "",
          "type": "uint256"
        }
      ],
      "stateMutability": "view",
      "type": "function"
    },
    {
      "inputs": [
        {
          "internalType": "uint256",
          "name": "",
          "type": "uint256"
        },
        {
          "internalType": "address",
          "name": "",
          "type": "address"
        }
      ],
      "name": "mint",
      "outputs": [
        {
          "internalType": "uint256",
          "name": "",
          "type": "uint256"
        }
      ],
      "stateMutability": "pure",
      "type": "function"
    },
    {
      "inputs": [],
      "name": "name",
      "outputs": [
        {
          "internalType": "string",
          "name": "",
          "type": "string"
        }
      ],
      "stateMutability": "view",
      "type": "function"
    },
    {
      "inputs": [],
      "name": "owner",
      "outputs": [
        {
          "internalType": "address",
          "name": "",
          "type": "address"
        }
      ],
      "stateMutability": "view",
      "type": "function"
    },
    {
      "inputs": [],
      "name": "pendingOwner",
      "outputs": [
        {
          "internalType": "address",
          "name": "",
          "type": "address"
        }
      ],
      "stateMutability": "view",
      "type": "function"
    },
    {
      "inputs": [
        {
          "internalType": "uint256",
          "name": "assets",
          "type": "uint256"
        }
      ],
      "name": "previewDeposit",
      "outputs": [
        {
          "internalType": "uint256",
          "name": "",
          "type": "uint256"
        }
      ],
      "stateMutability": "view",
      "type": "function"
    },
    {
      "inputs": [
        {
          "internalType": "uint256",
          "name": "shares",
          "type": "uint256"
        }
      ],
      "name": "previewMint",
      "outputs": [
        {
          "internalType": "uint256",
          "name": "",
          "type": "uint256"
        }
      ],
      "stateMutability": "view",
      "type": "function"
    },
    {
      "inputs": [
        {
          "internalType": "uint256",
          "name": "shares",
          "type": "uint256"
        }
      ],
      "name": "previewRedeem",
      "outputs": [
        {
          "internalType": "uint256",
          "name": "",
          "type": "uint256"
        }
      ],
      "stateMutability": "view",
      "type": "function"
    },
    {
      "inputs": [
        {
          "internalType": "uint256",
          "name": "assets",
          "type": "uint256"
        }
      ],
      "name": "previewWithdraw",
      "outputs": [
        {
          "internalType": "uint256",
          "name": "",
          "type": "uint256"
        }
      ],
      "stateMutability": "view",
      "type": "function"
    },
    {
      "inputs": [],
      "name": "processDepositRequests",
      "outputs": [],
      "stateMutability": "nonpayable",
      "type": "function"
    },
    {
      "inputs": [],
      "name": "processWithdrawRequests",
      "outputs": [],
      "stateMutability": "nonpayable",
      "type": "function"
    },
    {
      "inputs": [],
      "name": "proxiableUUID",
      "outputs": [
        {
          "internalType": "bytes32",
          "name": "",
          "type": "bytes32"
        }
      ],
      "stateMutability": "view",
      "type": "function"
    },
    {
      "inputs": [
        {
          "internalType": "uint256",
          "name": "",
          "type": "uint256"
        },
        {
          "internalType": "address",
          "name": "",
          "type": "address"
        },
        {
          "internalType": "address",
          "name": "",
          "type": "address"
        }
      ],
      "name": "redeem",
      "outputs": [
        {
          "internalType": "uint256",
          "name": "",
          "type": "uint256"
        }
      ],
      "stateMutability": "pure",
      "type": "function"
    },
    {
      "inputs": [],
      "name": "renounceOwnership",
      "outputs": [],
      "stateMutability": "nonpayable",
      "type": "function"
    },
    {
      "inputs": [
        {
          "internalType": "uint256",
          "name": "amount",
          "type": "uint256"
        }
      ],
      "name": "requestDeposit",
      "outputs": [],
      "stateMutability": "nonpayable",
      "type": "function"
    },
    {
      "inputs": [
        {
          "internalType": "uint256",
          "name": "shares",
          "type": "uint256"
        }
      ],
      "name": "requestWithdraw",
      "outputs": [],
      "stateMutability": "nonpayable",
      "type": "function"
    },
    {
      "inputs": [
        {
          "components": [
            {
              "internalType": "address",
              "name": "token",
              "type": "address"
            },
            {
              "internalType": "euint32",
              "name": "weight",
              "type": "uint256"
            }
          ],
          "internalType": "struct IOrionEncryptedVault.EncryptedPosition[]",
          "name": "order",
          "type": "tuple[]"
        }
      ],
      "name": "submitIntent",
      "outputs": [],
      "stateMutability": "nonpayable",
      "type": "function"
    },
    {
      "inputs": [],
      "name": "symbol",
      "outputs": [
        {
          "internalType": "string",
          "name": "",
          "type": "string"
        }
      ],
      "stateMutability": "view",
      "type": "function"
    },
    {
      "inputs": [],
      "name": "totalAssets",
      "outputs": [
        {
          "internalType": "uint256",
          "name": "",
          "type": "uint256"
        }
      ],
      "stateMutability": "view",
      "type": "function"
    },
    {
      "inputs": [],
      "name": "totalSupply",
      "outputs": [
        {
          "internalType": "uint256",
          "name": "",
          "type": "uint256"
        }
      ],
      "stateMutability": "view",
      "type": "function"
    },
    {
      "inputs": [
        {
          "internalType": "address",
          "name": "to",
          "type": "address"
        },
        {
          "internalType": "uint256",
          "name": "value",
          "type": "uint256"
        }
      ],
      "name": "transfer",
      "outputs": [
        {
          "internalType": "bool",
          "name": "",
          "type": "bool"
        }
      ],
      "stateMutability": "nonpayable",
      "type": "function"
    },
    {
      "inputs": [
        {
          "internalType": "address",
          "name": "from",
          "type": "address"
        },
        {
          "internalType": "address",
          "name": "to",
          "type": "address"
        },
        {
          "internalType": "uint256",
          "name": "value",
          "type": "uint256"
        }
      ],
      "name": "transferFrom",
      "outputs": [
        {
          "internalType": "bool",
          "name": "",
          "type": "bool"
        }
      ],
      "stateMutability": "nonpayable",
      "type": "function"
    },
    {
      "inputs": [
        {
          "internalType": "address",
          "name": "newOwner",
          "type": "address"
        }
      ],
      "name": "transferOwnership",
      "outputs": [],
      "stateMutability": "nonpayable",
      "type": "function"
    },
    {
      "inputs": [
        {
          "components": [
            {
              "internalType": "address",
              "name": "token",
              "type": "address"
            },
            {
              "internalType": "euint32",
              "name": "weight",
              "type": "uint256"
            }
          ],
          "internalType": "struct IOrionEncryptedVault.EncryptedPosition[]",
          "name": "portfolio",
          "type": "tuple[]"
        },
        {
          "internalType": "uint256",
          "name": "newTotalAssets",
          "type": "uint256"
        }
      ],
      "name": "updateVaultState",
      "outputs": [],
      "stateMutability": "nonpayable",
      "type": "function"
    },
    {
      "inputs": [
        {
          "internalType": "address",
          "name": "newImplementation",
          "type": "address"
        },
        {
          "internalType": "bytes",
          "name": "data",
          "type": "bytes"
        }
      ],
      "name": "upgradeToAndCall",
      "outputs": [],
      "stateMutability": "payable",
      "type": "function"
    },
    {
      "inputs": [
        {
          "internalType": "uint256",
          "name": "",
          "type": "uint256"
        },
        {
          "internalType": "address",
          "name": "",
          "type": "address"
        },
        {
          "internalType": "address",
          "name": "",
          "type": "address"
        }
      ],
      "name": "withdraw",
      "outputs": [
        {
          "internalType": "uint256",
          "name": "",
          "type": "uint256"
        }
      ],
      "stateMutability": "pure",
      "type": "function"
    }
  ],
  "bytecode": "0x60a0604052306080523480156012575f5ffd5b506080516135486100395f395f818161214b0152818161217401526122d601526135485ff3fe6080604052600436106102a5575f3560e01c806394bf804d1161016f578063c37fc8a8116100d8578063d5f3948811610092578063e30c39781161006d578063e30c397814610799578063e66f53b7146107ad578063ef8b30f7146106d6578063f2fde38b146107cc575f5ffd5b8063d5f394881461073c578063d905777e1461075b578063dd62ed3e1461077a575f5ffd5b8063c37fc8a8146106c2578063c63d75b614610452578063c6e6f592146106d6578063ce96cb77146106f5578063d1699c2614610714578063d3d0345814610728575f5ffd5b8063ad3cb1cc11610129578063ad3cb1cc146105f4578063b3d7f6b914610624578063b460af9414610643578063b6eba65314610662578063ba08765214610684578063c0b568e1146106a3575f5ffd5b806394bf804d1461049957806395d89b411461056f578063985ba4ae14610583578063a68a5267146105a2578063a9059cbb146105c1578063aa9d3a60146105e0575f5ffd5b8063402d267d11610211578063715018a6116101cb578063715018a6146104d7578063745400c9146104eb57806379502c551461050a57806379ba5097146105285780637f5fc5f91461053c5780638da5cb5b1461055b575f5ffd5b8063402d267d146104525780634cdad506146102ed5780634f1ef2861461047257806352d1902d146104855780636e553f651461049957806370a08231146104b8575f5ffd5b806318160ddd1161026257806318160ddd1461037b5780632016a0d2146103ae57806323b872dd146103cd578063313ce567146103ec57806333fdc5921461041257806338d52e0f14610426575f5ffd5b806301e1d114146102a957806306fdde03146102cc57806307a2d13a146102ed578063095ea7b31461030c5780630a28a4771461033b5780630d1e66671461035a575b5f5ffd5b3480156102b4575f5ffd5b506003545b6040519081526020015b60405180910390f35b3480156102d7575f5ffd5b506102e06107eb565b6040516102c39190612ca3565b3480156102f8575f5ffd5b506102b9610307366004612cd8565b6108ab565b348015610317575f5ffd5b5061032b610326366004612d03565b6108bc565b60405190151581526020016102c3565b348015610346575f5ffd5b506102b9610355366004612cd8565b6108d3565b348015610365575f5ffd5b50610379610374366004612cd8565b6108df565b005b348015610386575f5ffd5b507f52c63247e1f47db19d5ce0460030c497f067ca4cebf71ba98eeadabe20bace02546102b9565b3480156103b9575f5ffd5b506103796103c8366004612d71565b610a98565b3480156103d8575f5ffd5b5061032b6103e7366004612e03565b610bfe565b3480156103f7575f5ffd5b50610400610c23565b60405160ff90911681526020016102c3565b34801561041d575f5ffd5b50610379610c65565b348015610431575f5ffd5b5061043a610def565b6040516001600160a01b0390911681526020016102c3565b34801561045d575f5ffd5b506102b961046c366004612e41565b505f1990565b610379610480366004612e70565b610e23565b348015610490575f5ffd5b506102b9610e42565b3480156104a4575f5ffd5b506102b96104b3366004612f33565b610e5d565b3480156104c3575f5ffd5b506102b96104d2366004612e41565b610e77565b3480156104e2575f5ffd5b50610379610e9d565b3480156104f6575f5ffd5b50610379610505366004612cd8565b610eae565b348015610515575f5ffd5b505f5461043a906001600160a01b031681565b348015610533575f5ffd5b50610379610fc4565b348015610547575f5ffd5b50610379610556366004612fa1565b611009565b348015610566575f5ffd5b5061043a611240565b34801561057a575f5ffd5b506102e0611268565b34801561058e575f5ffd5b5061037961059d366004612fdf565b6112a6565b3480156105ad575f5ffd5b506102b96105bc366004613026565b6114be565b3480156105cc575f5ffd5b5061032b6105db366004612d03565b611596565b3480156105eb575f5ffd5b506103796115a3565b3480156105ff575f5ffd5b506102e0604051806040016040528060058152602001640352e302e360dc1b81525081565b34801561062f575f5ffd5b506102b961063e366004612cd8565b611795565b34801561064e575f5ffd5b506102b961065d36600461305f565b6117a1565b34801561066d575f5ffd5b506106766117ba565b6040516102c3929190613093565b34801561068f575f5ffd5b506102b961069e36600461305f565b61191b565b3480156106ae575f5ffd5b506103796106bd366004612cd8565b611935565b3480156106cd575f5ffd5b506102b9611a8d565b3480156106e1575f5ffd5b506102b96106f0366004612cd8565b611af4565b348015610700575f5ffd5b506102b961070f366004612e41565b611aff565b34801561071f575f5ffd5b506102b9611b12565b348015610733575f5ffd5b50610676611b71565b348015610747575f5ffd5b5060025461043a906001600160a01b031681565b348015610766575f5ffd5b506102b9610775366004612e41565b611cb9565b348015610785575f5ffd5b506102b961079436600461311c565b611cc3565b3480156107a4575f5ffd5b5061043a611d0c565b3480156107b8575f5ffd5b5060015461043a906001600160a01b031681565b3480156107d7575f5ffd5b506103796107e6366004612e41565b611d34565b7f52c63247e1f47db19d5ce0460030c497f067ca4cebf71ba98eeadabe20bace0380546060915f5160206134b35f395f51905f529161082990613148565b80601f016020809104026020016040519081016040528092919081815260200182805461085590613148565b80156108a05780601f10610877576101008083540402835291602001916108a0565b820191905f5260205f20905b81548152906001019060200180831161088357829003601f168201915b505050505091505090565b5f6108b6825f611db9565b92915050565b5f336108c9818585611dc7565b5060019392505050565b5f6108b6826001611dd9565b6108e7611eb3565b805f03610920576108f6610def565b604051636b30633560e01b81526001600160a01b0390911660048201526024015b60405180910390fd5b335f90815260046020526040812054900361097757600680546001810182555f919091527ff652222313e28459528d920b65115c16c04f3efc82aaedc97be59f3f377c0d3f0180546001600160a01b031916331790555b335f9081526004602052604081208054839290610995908490613194565b909155505f90506109a4610def565b6040516323b872dd60e01b8152336004820152306024820152604481018490526001600160a01b0391909116906323b872dd906064016020604051808303815f875af11580156109f6573d5f5f3e3d5ffd5b505050506040513d601f19601f82011682018060405250810190610a1a91906131a7565b905080610a3a576040516312171d8360e31b815260040160405180910390fd5b60065460405133917f03979a8c481a9e9c06938045cfd5c28535255cb003b10a8fe84ebb3cb4d440f291610a7691868252602082015260400190565b60405180910390a250610a9560015f5160206134f35f395f51905f5255565b50565b5f610aa1611efd565b805490915060ff600160401b82041615906001600160401b03165f81158015610ac75750825b90505f826001600160401b03166001148015610ae25750303b155b905081158015610af0575080155b15610b0e5760405163f92ee8a960e01b815260040160405180910390fd5b845467ffffffffffffffff191660011785558315610b3857845460ff60401b1916600160401b1785555b610bab8b8b8b8b8080601f0160208091040260200160405190810160405280939291908181526020018383808284375f9201919091525050604080516020601f8f018190048102820181019092528d815292508d91508c90819084018382808284375f92019190915250611f2592505050565b8315610bf157845460ff60401b19168555604051600181527fc7f505b2f371ae2175ee4913f4499e1f2633a7b5936321eed1cdaeb6115181d29060200160405180910390a15b5050505050505050505050565b5f33610c0b85828561204b565b610c168585856120af565b60019150505b9392505050565b5f807f0773e532dfede91f04b12a73d3d2acd361424f41f76b4fb79f090161e36b4e0090505f8154610c5f9190600160a01b900460ff166131c6565b91505090565b5f5f9054906101000a90046001600160a01b03166001600160a01b0316633a0dad8e6040518163ffffffff1660e01b8152600401602060405180830381865afa158015610cb4573d5f5f3e3d5ffd5b505050506040513d601f19601f82011682018060405250810190610cd891906131df565b6001600160a01b0316336001600160a01b031614610d0957604051631af2ab4f60e31b815260040160405180910390fd5b610d11611eb3565b6006545f5b81811015610dd5575f60068281548110610d3257610d326131fa565b5f9182526020808320909101546001600160a01b03168083526004909152604082205490925090610d6282611af4565b6001600160a01b0384165f908152600460205260408120559050610d86838261210c565b60408051838152602081018690526001600160a01b038516917f782ea2005b7f873a0190a1ccb553c732171348d6e16d2b7d3d493c0677dc296e910160405180910390a2505050600101610d16565b5050610ded60015f5160206134f35f395f51905f5255565b565b5f807f0773e532dfede91f04b12a73d3d2acd361424f41f76b4fb79f090161e36b4e005b546001600160a01b031692915050565b610e2b612140565b610e34826121e4565b610e3e828261220f565b5050565b5f610e4b6122cb565b505f5160206134d35f395f51905f5290565b5f6040516318f2e47360e11b815260040160405180910390fd5b6001600160a01b03165f9081525f5160206134b35f395f51905f52602052604090205490565b610ea5612314565b610ded5f612346565b805f03610ece576040516314e6cbb960e11b815260040160405180910390fd5b80610ed833610e77565b1015610ef757604051633c57b48560e21b815260040160405180910390fd5b335f908152600560205260408120549003610f4e57600780546001810182555f919091527fa66cc928b5edb82af9bd49922954155ab7b0942694bea4ce44661d9a8736c6880180546001600160a01b031916331790555b335f9081526005602052604081208054839290610f6c908490613194565b90915550610f7d90503330836120af565b60075460405133917fd72eb5d043f24a0168ae744d5c44f9596fd673a26bf74d9646bff4b844882d1491610fb991858252602082015260400190565b60405180910390a250565b3380610fce611d0c565b6001600160a01b0316146110005760405163118cdaa760e01b81526001600160a01b0382166004820152602401610917565b610a9581612346565b6001546001600160a01b03163314611034576040516356b381a560e01b815260040160405180910390fd5b5f81900361105557604051631121aa8d60e01b815260040160405180910390fd5b5f61105f5f61237e565b600b549091505f5b818110156110b25782600a5f600b8481548110611086576110866131fa565b5f9182526020808320909101546001600160a01b03168352820192909252604001902055600101611067565b506110be600b5f612c75565b825f5b8181101561120e575f8686838181106110dc576110dc6131fa565b6110f29260206040909202019081019150612e41565b5f54604051633af32abf60e01b81526001600160a01b038084166004830152929350911690633af32abf90602401602060405180830381865afa15801561113b573d5f5f3e3d5ffd5b505050506040513d601f19601f8201168201806040525081019061115f91906131a7565b6111875760405163751dff9760e11b81526001600160a01b0382166004820152602401610917565b868683818110611199576111996131fa565b6001600160a01b039093165f818152600a60209081526040808320960294909401939093013590935550600b805460018181018355919092527f0175b7a638427703f0dbe7bb9bbf987a2551717b34e79f33b5b1008d1fa01db990910180546001600160a01b031916909217909155016110c1565b5060405133907f2d47a742b8d7df7c1fc5a9a631b206b364e6cb2722490759f63bb3ab14b132e0905f90a25050505050565b5f807f9016d09d72d40fdae2fd8ceac6b6234c7706214fd39c1cd1e609a0528c199300610e13565b7f52c63247e1f47db19d5ce0460030c497f067ca4cebf71ba98eeadabe20bace0480546060915f5160206134b35f395f51905f529161082990613148565b5f5f9054906101000a90046001600160a01b03166001600160a01b0316633a0dad8e6040518163ffffffff1660e01b8152600401602060405180830381865afa1580156112f5573d5f5f3e3d5ffd5b505050506040513d601f19601f8201168201806040525081019061131991906131df565b6001600160a01b0316336001600160a01b03161461134a57604051631af2ab4f60e31b815260040160405180910390fd5b5f6113545f61237e565b6009549091505f5b818110156113a7578260085f6009848154811061137b5761137b6131fa565b5f9182526020808320909101546001600160a01b0316835282019290925260400190205560010161135c565b506113b360095f612c75565b5f5b8181101561147e578585828181106113cf576113cf6131fa565b9050604002016020013560085f8888858181106113ee576113ee6131fa565b6114049260206040909202019081019150612e41565b6001600160a01b0316815260208101919091526040015f20556009868683818110611431576114316131fa565b6114479260206040909202019081019150612e41565b8154600180820184555f93845260209093200180546001600160a01b0319166001600160a01b0392909216919091179055016113b5565b5060038390556040518381527f5e1ff954b5e5257e9ee5d4cb07059e8f5e69b1aaaf9911e5d8d90a6894de9c219060200160405180910390a15050505050565b5f5f6114e87f52c63247e1f47db19d5ce0460030c497f067ca4cebf71ba98eeadabe20bace025490565b90505f5f5f9054906101000a90046001600160a01b03166001600160a01b031663b71ee4fc6040518163ffffffff1660e01b8152600401602060405180830381865afa15801561153a573d5f5f3e3d5ffd5b505050506040513d601f19601f8201168201806040525081019061155e919061320e565b905061158c61156e866001613194565b61157983600a613311565b6115839085613194565b8891908761238a565b9695505050505050565b5f336108c98185856120af565b5f5f9054906101000a90046001600160a01b03166001600160a01b0316633a0dad8e6040518163ffffffff1660e01b8152600401602060405180830381865afa1580156115f2573d5f5f3e3d5ffd5b505050506040513d601f19601f8201168201806040525081019061161691906131df565b6001600160a01b0316336001600160a01b03161461164757604051631af2ab4f60e31b815260040160405180910390fd5b61164f611eb3565b6007545f5b81811015610dd5575f60078281548110611670576116706131fa565b5f9182526020808320909101546001600160a01b0316808352600590915260408220805492905591506116a330826123cc565b5f6116ad826108ab565b90506116b7610def565b60405163a9059cbb60e01b81526001600160a01b03858116600483015260248201849052919091169063a9059cbb906044016020604051808303815f875af1158015611705573d5f5f3e3d5ffd5b505050506040513d601f19601f8201168201806040525081019061172991906131a7565b611746576040516312171d8360e31b815260040160405180910390fd5b60408051838152602081018690526001600160a01b038516917febad37b830b1857ef9af5983fc20dc0ded12dc472ba1e22e06fd3a9465b4506c910160405180910390a2505050600101611654565b5f6108b6826001611db9565b5f604051628a595160e01b815260040160405180910390fd5b600b546060908190806001600160401b038111156117da576117da612e5c565b604051908082528060200260200182016040528015611803578160200160208202803683370190505b509250806001600160401b0381111561181e5761181e612e5c565b604051908082528060200260200182016040528015611847578160200160208202803683370190505b5091505f5b8181101561191557600b8181548110611867576118676131fa565b905f5260205f20015f9054906101000a90046001600160a01b0316848281518110611894576118946131fa565b60200260200101906001600160a01b031690816001600160a01b031681525050600a5f600b83815481106118ca576118ca6131fa565b5f9182526020808320909101546001600160a01b031683528201929092526040019020548351849083908110611902576119026131fa565b602090810291909101015260010161184c565b50509091565b5f604051630ad8521960e31b815260040160405180910390fd5b61193d611eb3565b805f0361194c576108f6610def565b335f9081526004602052604090205481111561197b576040516332194fd360e21b815260040160405180910390fd5b335f908152600460205260408120805483929061199990849061331f565b90915550506006545f6119aa610def565b60405163a9059cbb60e01b8152336004820152602481018590526001600160a01b03919091169063a9059cbb906044016020604051808303815f875af11580156119f6573d5f5f3e3d5ffd5b505050506040513d601f19601f82011682018060405250810190611a1a91906131a7565b905080611a3a576040516312171d8360e31b815260040160405180910390fd5b604080518481526020810184905233917f2b19ac8271899522bfff26e405c20643af4cdf99b525ef2cd8cde689644874ae910160405180910390a25050610a9560015f5160206134f35f395f51905f5255565b6007545f908190815b81811015611aec5760055f60078381548110611ab457611ab46131fa565b5f9182526020808320909101546001600160a01b03168352820192909252604001902054611ae29084613194565b9250600101611a96565b509092915050565b5f6108b6825f611dd9565b5f6108b6611b0c83610e77565b5f611db9565b6006545f908190815b81811015611aec5760045f60068381548110611b3957611b396131fa565b5f9182526020808320909101546001600160a01b03168352820192909252604001902054611b679084613194565b9250600101611b1b565b6009546060908190806001600160401b03811115611b9157611b91612e5c565b604051908082528060200260200182016040528015611bba578160200160208202803683370190505b509250806001600160401b03811115611bd557611bd5612e5c565b604051908082528060200260200182016040528015611bfe578160200160208202803683370190505b5091505f5b81811015611915575f60098281548110611c1f57611c1f6131fa565b905f5260205f20015f9054906101000a90046001600160a01b0316905080858381518110611c4f57611c4f6131fa565b60200260200101906001600160a01b031690816001600160a01b03168152505060085f826001600160a01b03166001600160a01b031681526020019081526020015f2054848381518110611ca557611ca56131fa565b602090810291909101015250600101611c03565b5f6108b682610e77565b6001600160a01b039182165f9081527f52c63247e1f47db19d5ce0460030c497f067ca4cebf71ba98eeadabe20bace016020908152604080832093909416825291909152205490565b5f807f237e158222e3e6968b72b9db0d8043aacf074ad9f650f0d1606b4d82ee432c00610e13565b611d3c612314565b7f237e158222e3e6968b72b9db0d8043aacf074ad9f650f0d1606b4d82ee432c0080546001600160a01b0319166001600160a01b0383169081178255611d80611240565b6001600160a01b03167f38d16b8cac22d99fc7c124b9cd0de2d3fa1faef420bfe791d8c362d765e2270060405160405180910390a35050565b5f610c1c83600354846114be565b611dd48383836001612400565b505050565b5f5f611e037f52c63247e1f47db19d5ce0460030c497f067ca4cebf71ba98eeadabe20bace025490565b90505f5f5f9054906101000a90046001600160a01b03166001600160a01b031663b71ee4fc6040518163ffffffff1660e01b8152600401602060405180830381865afa158015611e55573d5f5f3e3d5ffd5b505050506040513d601f19601f82011682018060405250810190611e79919061320e565b9050611eaa611e8982600a613311565b611e939084613194565b600354611ea1906001613194565b8791908761238a565b95945050505050565b5f5160206134f35f395f51905f52805460011901611ee457604051633ee5aeb560e01b815260040160405180910390fd5b60029055565b60015f5160206134f35f395f51905f5255565b5f807ff0c57e16840df040f15088dc2f81fe391c3923bec73e23a9662efc9c229c6a006108b6565b611f2d6124e4565b6001600160a01b038416611f5457604051639c6bb9f560e01b815260040160405180910390fd5b6001600160a01b038316611f7b57604051636a485a5b60e11b815260040160405180910390fd5b611f858282612509565b611fed836001600160a01b0316637158da7c6040518163ffffffff1660e01b8152600401602060405180830381865afa158015611fc4573d5f5f3e3d5ffd5b505050506040513d601f19601f82011682018060405250810190611fe891906131df565b61251b565b611ff561252c565b611ffe8461253c565b61200661254d565b61200e61254d565b5050600280546001600160a01b03199081163317909155600180546001600160a01b039485169083161790555f8054929093169116178155600355565b5f6120568484611cc3565b90505f198110156120a9578181101561209b57604051637dc7a0d960e11b81526001600160a01b03841660048201526024810182905260448101839052606401610917565b6120a984848484035f612400565b50505050565b6001600160a01b0383166120d857604051634b637e8f60e11b81525f6004820152602401610917565b6001600160a01b0382166121015760405163ec442f0560e01b81525f6004820152602401610917565b611dd4838383612555565b6001600160a01b0382166121355760405163ec442f0560e01b81525f6004820152602401610917565b610e3e5f8383612555565b306001600160a01b037f00000000000000000000000000000000000000000000000000000000000000001614806121c657507f00000000000000000000000000000000000000000000000000000000000000006001600160a01b03166121ba5f5160206134d35f395f51905f52546001600160a01b031690565b6001600160a01b031614155b15610ded5760405163703e46dd60e11b815260040160405180910390fd5b6001546001600160a01b03163314610a95576040516356b381a560e01b815260040160405180910390fd5b816001600160a01b03166352d1902d6040518163ffffffff1660e01b8152600401602060405180830381865afa925050508015612269575060408051601f3d908101601f1916820190925261226691810190613332565b60015b61229157604051634c9c8ce360e01b81526001600160a01b0383166004820152602401610917565b5f5160206134d35f395f51905f5281146122c157604051632a87526960e21b815260048101829052602401610917565b611dd4838361268e565b306001600160a01b037f00000000000000000000000000000000000000000000000000000000000000001614610ded5760405163703e46dd60e11b815260040160405180910390fd5b3361231d611240565b6001600160a01b031614610ded5760405163118cdaa760e01b8152336004820152602401610917565b7f237e158222e3e6968b72b9db0d8043aacf074ad9f650f0d1606b4d82ee432c0080546001600160a01b0319168155610e3e826126e3565b5f6108b6826004612753565b5f6123b761239783612801565b80156123b257505f84806123ad576123ad613349565b868809115b151590565b6123c286868661282d565b611eaa9190613194565b6001600160a01b0382166123f557604051634b637e8f60e11b81525f6004820152602401610917565b610e3e825f83612555565b5f5160206134b35f395f51905f526001600160a01b0385166124375760405163e602df0560e01b81525f6004820152602401610917565b6001600160a01b03841661246057604051634a1406b160e11b81525f6004820152602401610917565b6001600160a01b038086165f908152600183016020908152604080832093881683529290522083905581156124dd57836001600160a01b0316856001600160a01b03167f8c5be1e5ebec7d5bd14f71427d1e84f3dd0314c0f7b2291e5b200ac8c7c3b925856040516124d491815260200190565b60405180910390a35b5050505050565b6124ec6128dd565b610ded57604051631afcd79f60e31b815260040160405180910390fd5b6125116124e4565b610e3e82826128f6565b6125236124e4565b610a9581612946565b6125346124e4565b610ded6129c9565b6125446124e4565b610a95816129d1565b610ded6124e4565b5f5160206134b35f395f51905f526001600160a01b03841661258f5781816002015f8282546125849190613194565b909155506125ff9050565b6001600160a01b0384165f90815260208290526040902054828110156125e15760405163391434e360e21b81526001600160a01b03861660048201526024810182905260448101849052606401610917565b6001600160a01b0385165f9081526020839052604090209083900390555b6001600160a01b03831661261d57600281018054839003905561263b565b6001600160a01b0383165f9081526020829052604090208054830190555b826001600160a01b0316846001600160a01b03167fddf252ad1be2c89b69c2b068fc378daa952ba7f163c4a11628f55a4df523b3ef8460405161268091815260200190565b60405180910390a350505050565b61269782612a02565b6040516001600160a01b038316907fbc7cd75a20ee27fd9adebab32041f755214dbc6bffa90cc0225b39da2e5c2d3b905f90a28051156126db57611dd48282612a65565b610e3e612ace565b7f9016d09d72d40fdae2fd8ceac6b6234c7706214fd39c1cd1e609a0528c19930080546001600160a01b031981166001600160a01b03848116918217845560405192169182907f8be0079c531659141344cd1fd0a4f28419497f9722a3daafe3b4186f6b6457e0905f90a3505050565b5f807fed8d60e34876f751cc8b014c560745351147d9de11b9347c854e881b128ea6006001810154604051631ce2e8d760e31b8152600481018790526001600160f81b031960f887901b1660248201529192506001600160a01b03169063e71746b8906044016020604051808303815f875af11580156127d5573d5f5f3e3d5ffd5b505050506040513d601f19601f820116820180604052508101906127f99190613332565b949350505050565b5f60028260038111156128165761281661335d565b6128209190613371565b60ff166001149050919050565b5f5f5f61283a8686612aed565b91509150815f0361285e5783818161285457612854613349565b0492505050610c1c565b818411612875576128756003851502601118612b09565b5f848688095f868103871696879004966002600389028118808a02820302808a02820302808a02820302808a02820302808a02820302808a02909103029181900381900460010185841190960395909502919093039390930492909217029150509392505050565b5f6128e6611efd565b54600160401b900460ff16919050565b6128fe6124e4565b5f5160206134b35f395f51905f527f52c63247e1f47db19d5ce0460030c497f067ca4cebf71ba98eeadabe20bace0361293784826133e2565b50600481016120a983826133e2565b61294e6124e4565b7f0773e532dfede91f04b12a73d3d2acd361424f41f76b4fb79f090161e36b4e005f8061297a84612b1a565b915091508161298a57601261298c565b805b83546001600160a81b031916600160a01b60ff92909216919091026001600160a01b031916176001600160a01b0394909416939093179091555050565b611eea6124e4565b6129d96124e4565b6001600160a01b03811661100057604051631e4fbdf760e01b81525f6004820152602401610917565b806001600160a01b03163b5f03612a3757604051634c9c8ce360e01b81526001600160a01b0382166004820152602401610917565b5f5160206134d35f395f51905f5280546001600160a01b0319166001600160a01b0392909216919091179055565b60605f5f846001600160a01b031684604051612a81919061349c565b5f60405180830381855af49150503d805f8114612ab9576040519150601f19603f3d011682016040523d82523d5f602084013e612abe565b606091505b5091509150611eaa858383612bf0565b3415610ded5760405163b398979f60e01b815260040160405180910390fd5b5f805f1983850993909202808410938190039390930393915050565b634e487b715f52806020526024601cfd5b60408051600481526024810182526020810180516001600160e01b031663313ce56760e01b17905290515f918291829182916001600160a01b03871691612b609161349c565b5f60405180830381855afa9150503d805f8114612b98576040519150601f19603f3d011682016040523d82523d5f602084013e612b9d565b606091505b5091509150818015612bb157506020815110155b15612be4575f81806020019051810190612bcb9190613332565b905060ff8111612be2576001969095509350505050565b505b505f9485945092505050565b606082612c0557612c0082612c4c565b610c1c565b8151158015612c1c57506001600160a01b0384163b155b15612c4557604051639996b31560e01b81526001600160a01b0385166004820152602401610917565b5080610c1c565b805115612c5c5780518082602001fd5b60405163d6bda27560e01b815260040160405180910390fd5b5080545f8255905f5260205f2090810190610a9591905b80821115612c9f575f8155600101612c8c565b5090565b602081525f82518060208401528060208501604085015e5f604082850101526040601f19601f83011684010191505092915050565b5f60208284031215612ce8575f5ffd5b5035919050565b6001600160a01b0381168114610a95575f5ffd5b5f5f60408385031215612d14575f5ffd5b8235612d1f81612cef565b946020939093013593505050565b5f5f83601f840112612d3d575f5ffd5b5081356001600160401b03811115612d53575f5ffd5b602083019150836020828501011115612d6a575f5ffd5b9250929050565b5f5f5f5f5f5f60808789031215612d86575f5ffd5b8635612d9181612cef565b95506020870135612da181612cef565b945060408701356001600160401b03811115612dbb575f5ffd5b612dc789828a01612d2d565b90955093505060608701356001600160401b03811115612de5575f5ffd5b612df189828a01612d2d565b979a9699509497509295939492505050565b5f5f5f60608486031215612e15575f5ffd5b8335612e2081612cef565b92506020840135612e3081612cef565b929592945050506040919091013590565b5f60208284031215612e51575f5ffd5b8135610c1c81612cef565b634e487b7160e01b5f52604160045260245ffd5b5f5f60408385031215612e81575f5ffd5b8235612e8c81612cef565b915060208301356001600160401b03811115612ea6575f5ffd5b8301601f81018513612eb6575f5ffd5b80356001600160401b03811115612ecf57612ecf612e5c565b604051601f8201601f19908116603f011681016001600160401b0381118282101715612efd57612efd612e5c565b604052818152828201602001871015612f14575f5ffd5b816020840160208301375f602083830101528093505050509250929050565b5f5f60408385031215612f44575f5ffd5b823591506020830135612f5681612cef565b809150509250929050565b5f5f83601f840112612f71575f5ffd5b5081356001600160401b03811115612f87575f5ffd5b6020830191508360208260061b8501011115612d6a575f5ffd5b5f5f60208385031215612fb2575f5ffd5b82356001600160401b03811115612fc7575f5ffd5b612fd385828601612f61565b90969095509350505050565b5f5f5f60408486031215612ff1575f5ffd5b83356001600160401b03811115613006575f5ffd5b61301286828701612f61565b909790965060209590950135949350505050565b5f5f5f60608486031215613038575f5ffd5b8335925060208401359150604084013560048110613054575f5ffd5b809150509250925092565b5f5f5f60608486031215613071575f5ffd5b83359250602084013561308381612cef565b9150604084013561305481612cef565b604080825283519082018190525f9060208501906060840190835b818110156130d55783516001600160a01b03168352602093840193909201916001016130ae565b5050838103602080860191909152855180835291810192508501905f5b818110156131105782518452602093840193909201916001016130f2565b50919695505050505050565b5f5f6040838503121561312d575f5ffd5b823561313881612cef565b91506020830135612f5681612cef565b600181811c9082168061315c57607f821691505b60208210810361317a57634e487b7160e01b5f52602260045260245ffd5b50919050565b634e487b7160e01b5f52601160045260245ffd5b808201808211156108b6576108b6613180565b5f602082840312156131b7575f5ffd5b81518015158114610c1c575f5ffd5b60ff81811683821601908111156108b6576108b6613180565b5f602082840312156131ef575f5ffd5b8151610c1c81612cef565b634e487b7160e01b5f52603260045260245ffd5b5f6020828403121561321e575f5ffd5b815160ff81168114610c1c575f5ffd5b6001815b60018411156132695780850481111561324d5761324d613180565b600184161561325b57908102905b60019390931c928002613232565b935093915050565b5f8261327f575060016108b6565b8161328b57505f6108b6565b81600181146132a157600281146132ab576132c7565b60019150506108b6565b60ff8411156132bc576132bc613180565b50506001821b6108b6565b5060208310610133831016604e8410600b84101617156132ea575081810a6108b6565b6132f65f19848461322e565b805f190482111561330957613309613180565b029392505050565b5f610c1c60ff841683613271565b818103818111156108b6576108b6613180565b5f60208284031215613342575f5ffd5b5051919050565b634e487b7160e01b5f52601260045260245ffd5b634e487b7160e01b5f52602160045260245ffd5b5f60ff83168061338f57634e487b7160e01b5f52601260045260245ffd5b8060ff84160691505092915050565b601f821115611dd457805f5260205f20601f840160051c810160208510156133c35750805b601f840160051c820191505b818110156124dd575f81556001016133cf565b81516001600160401b038111156133fb576133fb612e5c565b61340f816134098454613148565b8461339e565b6020601f821160018114613441575f831561342a5750848201515b5f19600385901b1c1916600184901b1784556124dd565b5f84815260208120601f198516915b828110156134705787850151825560209485019460019092019101613450565b508482101561348d57868401515f19600387901b60f8161c191681555b50505050600190811b01905550565b5f82518060208501845e5f92019182525091905056fe52c63247e1f47db19d5ce0460030c497f067ca4cebf71ba98eeadabe20bace00360894a13ba1a3210667c828492db98dca3e2076cc3735a920a3ca505d382bbc9b779b17422d0df92223018b32b4d1fa46e071723d6817e2486d003becc55f00a26469706673582212209e5d447040ad98f989f05608f3bb10dcf8814fb80c4c272e796f2787b74b902b64736f6c634300081c0033",
  "linkReferences": {},
  "deployedLinkReferences": {}
}