{
  "_format": "hh-sol-artifact-1",
  "contractName": "OrionEncryptedVault",
  "sourceName": "contracts/vaults/OrionEncryptedVault.sol",
  "abi": [
    {
      "inputs": [
        {
          "internalType": "address",
          "name": "vaultOwner",
          "type": "address"
        },
        {
          "internalType": "address",
          "name": "curator",
          "type": "address"
        },
        {
          "internalType": "contract IOrionConfig",
          "name": "configAddress",
          "type": "address"
        },
        {
          "internalType": "string",
          "name": "name",
          "type": "string"
        },
        {
          "internalType": "string",
          "name": "symbol",
          "type": "string"
        }
      ],
      "stateMutability": "nonpayable",
      "type": "constructor"
    },
    {
      "inputs": [],
      "name": "AlreadyRegistered",
      "type": "error"
    },
    {
      "inputs": [
        {
          "internalType": "address",
          "name": "asset",
          "type": "address"
        }
      ],
      "name": "AmountMustBeGreaterThanZero",
      "type": "error"
    },
    {
      "inputs": [
        {
          "internalType": "address",
          "name": "spender",
          "type": "address"
        },
        {
          "internalType": "uint256",
          "name": "allowance",
          "type": "uint256"
        },
        {
          "internalType": "uint256",
          "name": "needed",
          "type": "uint256"
        }
      ],
      "name": "ERC20InsufficientAllowance",
      "type": "error"
    },
    {
      "inputs": [
        {
          "internalType": "address",
          "name": "sender",
          "type": "address"
        },
        {
          "internalType": "uint256",
          "name": "balance",
          "type": "uint256"
        },
        {
          "internalType": "uint256",
          "name": "needed",
          "type": "uint256"
        }
      ],
      "name": "ERC20InsufficientBalance",
      "type": "error"
    },
    {
      "inputs": [
        {
          "internalType": "address",
          "name": "approver",
          "type": "address"
        }
      ],
      "name": "ERC20InvalidApprover",
      "type": "error"
    },
    {
      "inputs": [
        {
          "internalType": "address",
          "name": "receiver",
          "type": "address"
        }
      ],
      "name": "ERC20InvalidReceiver",
      "type": "error"
    },
    {
      "inputs": [
        {
          "internalType": "address",
          "name": "sender",
          "type": "address"
        }
      ],
      "name": "ERC20InvalidSender",
      "type": "error"
    },
    {
      "inputs": [
        {
          "internalType": "address",
          "name": "spender",
          "type": "address"
        }
      ],
      "name": "ERC20InvalidSpender",
      "type": "error"
    },
    {
      "inputs": [
        {
          "internalType": "address",
          "name": "receiver",
          "type": "address"
        },
        {
          "internalType": "uint256",
          "name": "assets",
          "type": "uint256"
        },
        {
          "internalType": "uint256",
          "name": "max",
          "type": "uint256"
        }
      ],
      "name": "ERC4626ExceededMaxDeposit",
      "type": "error"
    },
    {
      "inputs": [
        {
          "internalType": "address",
          "name": "receiver",
          "type": "address"
        },
        {
          "internalType": "uint256",
          "name": "shares",
          "type": "uint256"
        },
        {
          "internalType": "uint256",
          "name": "max",
          "type": "uint256"
        }
      ],
      "name": "ERC4626ExceededMaxMint",
      "type": "error"
    },
    {
      "inputs": [
        {
          "internalType": "address",
          "name": "owner",
          "type": "address"
        },
        {
          "internalType": "uint256",
          "name": "shares",
          "type": "uint256"
        },
        {
          "internalType": "uint256",
          "name": "max",
          "type": "uint256"
        }
      ],
      "name": "ERC4626ExceededMaxRedeem",
      "type": "error"
    },
    {
      "inputs": [
        {
          "internalType": "address",
          "name": "owner",
          "type": "address"
        },
        {
          "internalType": "uint256",
          "name": "assets",
          "type": "uint256"
        },
        {
          "internalType": "uint256",
          "name": "max",
          "type": "uint256"
        }
      ],
      "name": "ERC4626ExceededMaxWithdraw",
      "type": "error"
    },
    {
      "inputs": [],
      "name": "HandlesAlreadySavedForRequestID",
      "type": "error"
    },
    {
      "inputs": [
        {
          "internalType": "address",
          "name": "sender",
          "type": "address"
        },
        {
          "internalType": "uint256",
          "name": "balance",
          "type": "uint256"
        },
        {
          "internalType": "uint256",
          "name": "amount",
          "type": "uint256"
        }
      ],
      "name": "InsufficientFunds",
      "type": "error"
    },
    {
      "inputs": [],
      "name": "InvalidAddress",
      "type": "error"
    },
    {
      "inputs": [],
      "name": "InvalidArguments",
      "type": "error"
    },
    {
      "inputs": [],
      "name": "InvalidKMSSignatures",
      "type": "error"
    },
    {
      "inputs": [],
      "name": "InvalidUnderlyingDecimals",
      "type": "error"
    },
    {
      "inputs": [],
      "name": "NoHandleFoundForRequestID",
      "type": "error"
    },
    {
      "inputs": [],
      "name": "NotEnoughDepositRequest",
      "type": "error"
    },
    {
      "inputs": [],
      "name": "NotEnoughWithdrawRequest",
      "type": "error"
    },
    {
      "inputs": [],
      "name": "OrderIntentCannotBeEmpty",
      "type": "error"
    },
    {
      "inputs": [],
      "name": "ReentrancyGuardReentrantCall",
      "type": "error"
    },
    {
      "inputs": [],
      "name": "SynchronousCallDisabled",
      "type": "error"
    },
    {
      "inputs": [],
      "name": "SystemNotIdle",
      "type": "error"
    },
    {
      "inputs": [
        {
          "internalType": "address",
          "name": "token",
          "type": "address"
        }
      ],
      "name": "TokenAlreadyInOrder",
      "type": "error"
    },
    {
      "inputs": [
        {
          "internalType": "address",
          "name": "token",
          "type": "address"
        }
      ],
      "name": "TokenNotWhitelisted",
      "type": "error"
    },
    {
      "inputs": [],
      "name": "TransferFailed",
      "type": "error"
    },
    {
      "inputs": [],
      "name": "UnauthorizedAccess",
      "type": "error"
    },
    {
      "inputs": [],
      "name": "UnsupportedHandleType",
      "type": "error"
    },
    {
      "anonymous": false,
      "inputs": [
        {
          "indexed": true,
          "internalType": "address",
          "name": "owner",
          "type": "address"
        },
        {
          "indexed": true,
          "internalType": "address",
          "name": "spender",
          "type": "address"
        },
        {
          "indexed": false,
          "internalType": "uint256",
          "name": "value",
          "type": "uint256"
        }
      ],
      "name": "Approval",
      "type": "event"
    },
    {
      "anonymous": false,
      "inputs": [
        {
          "indexed": true,
          "internalType": "uint256",
          "name": "epoch",
          "type": "uint256"
        },
        {
          "indexed": false,
          "internalType": "uint256",
          "name": "feeAmount",
          "type": "uint256"
        },
        {
          "indexed": false,
          "internalType": "uint256",
          "name": "pendingCuratorFees",
          "type": "uint256"
        }
      ],
      "name": "CuratorFeesAccrued",
      "type": "event"
    },
    {
      "anonymous": false,
      "inputs": [
        {
          "indexed": true,
          "internalType": "uint256",
          "name": "requestID",
          "type": "uint256"
        }
      ],
      "name": "DecryptionFulfilled",
      "type": "event"
    },
    {
      "anonymous": false,
      "inputs": [
        {
          "indexed": true,
          "internalType": "address",
          "name": "sender",
          "type": "address"
        },
        {
          "indexed": true,
          "internalType": "address",
          "name": "owner",
          "type": "address"
        },
        {
          "indexed": false,
          "internalType": "uint256",
          "name": "assets",
          "type": "uint256"
        },
        {
          "indexed": false,
          "internalType": "uint256",
          "name": "shares",
          "type": "uint256"
        }
      ],
      "name": "Deposit",
      "type": "event"
    },
    {
      "anonymous": false,
      "inputs": [
        {
          "indexed": true,
          "internalType": "address",
          "name": "user",
          "type": "address"
        },
        {
          "indexed": false,
          "internalType": "uint256",
          "name": "amount",
          "type": "uint256"
        }
      ],
      "name": "DepositProcessed",
      "type": "event"
    },
    {
      "anonymous": false,
      "inputs": [
        {
          "indexed": true,
          "internalType": "address",
          "name": "user",
          "type": "address"
        },
        {
          "indexed": false,
          "internalType": "uint256",
          "name": "amount",
          "type": "uint256"
        }
      ],
      "name": "DepositRequestCancelled",
      "type": "event"
    },
    {
      "anonymous": false,
      "inputs": [
        {
          "indexed": true,
          "internalType": "address",
          "name": "user",
          "type": "address"
        },
        {
          "indexed": false,
          "internalType": "uint256",
          "name": "amount",
          "type": "uint256"
        }
      ],
      "name": "DepositRequested",
      "type": "event"
    },
    {
      "anonymous": false,
      "inputs": [
        {
          "indexed": false,
          "internalType": "uint8",
          "name": "mode",
          "type": "uint8"
        },
        {
          "indexed": false,
          "internalType": "uint16",
          "name": "performanceFee",
          "type": "uint16"
        },
        {
          "indexed": false,
          "internalType": "uint16",
          "name": "managementFee",
          "type": "uint16"
        }
      ],
      "name": "FeeModelUpdated",
      "type": "event"
    },
    {
      "anonymous": false,
      "inputs": [
        {
          "indexed": true,
          "internalType": "address",
          "name": "curator",
          "type": "address"
        }
      ],
      "name": "OrderSubmitted",
      "type": "event"
    },
    {
      "anonymous": false,
      "inputs": [
        {
          "indexed": true,
          "internalType": "address",
          "name": "from",
          "type": "address"
        },
        {
          "indexed": true,
          "internalType": "address",
          "name": "to",
          "type": "address"
        },
        {
          "indexed": false,
          "internalType": "uint256",
          "name": "value",
          "type": "uint256"
        }
      ],
      "name": "Transfer",
      "type": "event"
    },
    {
      "anonymous": false,
      "inputs": [
        {
          "indexed": false,
          "internalType": "uint256",
          "name": "newTotalAssets",
          "type": "uint256"
        }
      ],
      "name": "VaultStateUpdated",
      "type": "event"
    },
    {
      "anonymous": false,
      "inputs": [
        {
          "indexed": true,
          "internalType": "address",
          "name": "sender",
          "type": "address"
        },
        {
          "indexed": true,
          "internalType": "address",
          "name": "receiver",
          "type": "address"
        },
        {
          "indexed": true,
          "internalType": "address",
          "name": "owner",
          "type": "address"
        },
        {
          "indexed": false,
          "internalType": "uint256",
          "name": "assets",
          "type": "uint256"
        },
        {
          "indexed": false,
          "internalType": "uint256",
          "name": "shares",
          "type": "uint256"
        }
      ],
      "name": "Withdraw",
      "type": "event"
    },
    {
      "anonymous": false,
      "inputs": [
        {
          "indexed": true,
          "internalType": "address",
          "name": "user",
          "type": "address"
        },
        {
          "indexed": false,
          "internalType": "uint256",
          "name": "shares",
          "type": "uint256"
        }
      ],
      "name": "WithdrawProcessed",
      "type": "event"
    },
    {
      "anonymous": false,
      "inputs": [
        {
          "indexed": true,
          "internalType": "address",
          "name": "user",
          "type": "address"
        },
        {
          "indexed": false,
          "internalType": "uint256",
          "name": "shares",
          "type": "uint256"
        }
      ],
      "name": "WithdrawRequestCancelled",
      "type": "event"
    },
    {
      "anonymous": false,
      "inputs": [
        {
          "indexed": true,
          "internalType": "address",
          "name": "user",
          "type": "address"
        },
        {
          "indexed": false,
          "internalType": "uint256",
          "name": "shares",
          "type": "uint256"
        }
      ],
      "name": "WithdrawRequested",
      "type": "event"
    },
    {
      "inputs": [],
      "name": "CURATOR_FEE_FACTOR",
      "outputs": [
        {
          "internalType": "uint16",
          "name": "",
          "type": "uint16"
        }
      ],
      "stateMutability": "view",
      "type": "function"
    },
    {
      "inputs": [],
      "name": "MAX_MANAGEMENT_FEE",
      "outputs": [
        {
          "internalType": "uint16",
          "name": "",
          "type": "uint16"
        }
      ],
      "stateMutability": "view",
      "type": "function"
    },
    {
      "inputs": [],
      "name": "MAX_PERFORMANCE_FEE",
      "outputs": [
        {
          "internalType": "uint16",
          "name": "",
          "type": "uint16"
        }
      ],
      "stateMutability": "view",
      "type": "function"
    },
    {
      "inputs": [],
      "name": "SHARE_DECIMALS",
      "outputs": [
        {
          "internalType": "uint8",
          "name": "",
          "type": "uint8"
        }
      ],
      "stateMutability": "view",
      "type": "function"
    },
    {
      "inputs": [],
      "name": "YEAR_IN_SECONDS",
      "outputs": [
        {
          "internalType": "uint32",
          "name": "",
          "type": "uint32"
        }
      ],
      "stateMutability": "view",
      "type": "function"
    },
    {
      "inputs": [
        {
          "internalType": "uint256",
          "name": "epoch",
          "type": "uint256"
        },
        {
          "internalType": "uint256",
          "name": "feeAmount",
          "type": "uint256"
        }
      ],
      "name": "accrueCuratorFees",
      "outputs": [],
      "stateMutability": "nonpayable",
      "type": "function"
    },
    {
      "inputs": [
        {
          "internalType": "address",
          "name": "owner",
          "type": "address"
        },
        {
          "internalType": "address",
          "name": "spender",
          "type": "address"
        }
      ],
      "name": "allowance",
      "outputs": [
        {
          "internalType": "uint256",
          "name": "",
          "type": "uint256"
        }
      ],
      "stateMutability": "view",
      "type": "function"
    },
    {
      "inputs": [
        {
          "internalType": "address",
          "name": "spender",
          "type": "address"
        },
        {
          "internalType": "uint256",
          "name": "value",
          "type": "uint256"
        }
      ],
      "name": "approve",
      "outputs": [
        {
          "internalType": "bool",
          "name": "",
          "type": "bool"
        }
      ],
      "stateMutability": "nonpayable",
      "type": "function"
    },
    {
      "inputs": [],
      "name": "asset",
      "outputs": [
        {
          "internalType": "address",
          "name": "",
          "type": "address"
        }
      ],
      "stateMutability": "view",
      "type": "function"
    },
    {
      "inputs": [
        {
          "internalType": "address",
          "name": "account",
          "type": "address"
        }
      ],
      "name": "balanceOf",
      "outputs": [
        {
          "internalType": "uint256",
          "name": "",
          "type": "uint256"
        }
      ],
      "stateMutability": "view",
      "type": "function"
    },
    {
      "inputs": [
        {
          "internalType": "uint256",
          "name": "requestID",
          "type": "uint256"
        },
        {
          "internalType": "bool",
          "name": "decryptedInput",
          "type": "bool"
        },
        {
          "internalType": "bytes[]",
          "name": "signatures",
          "type": "bytes[]"
        }
      ],
      "name": "callbackDecryptSingleEbool",
      "outputs": [],
      "stateMutability": "nonpayable",
      "type": "function"
    },
    {
      "inputs": [
        {
          "internalType": "uint256",
          "name": "amount",
          "type": "uint256"
        }
      ],
      "name": "cancelDepositRequest",
      "outputs": [],
      "stateMutability": "nonpayable",
      "type": "function"
    },
    {
      "inputs": [
        {
          "internalType": "uint256",
          "name": "shares",
          "type": "uint256"
        }
      ],
      "name": "cancelWithdrawRequest",
      "outputs": [],
      "stateMutability": "nonpayable",
      "type": "function"
    },
    {
      "inputs": [],
      "name": "claimCuratorFees",
      "outputs": [],
      "stateMutability": "nonpayable",
      "type": "function"
    },
    {
      "inputs": [],
      "name": "config",
      "outputs": [
        {
          "internalType": "contract IOrionConfig",
          "name": "",
          "type": "address"
        }
      ],
      "stateMutability": "view",
      "type": "function"
    },
    {
      "inputs": [
        {
          "internalType": "uint256",
          "name": "shares",
          "type": "uint256"
        }
      ],
      "name": "convertToAssets",
      "outputs": [
        {
          "internalType": "uint256",
          "name": "",
          "type": "uint256"
        }
      ],
      "stateMutability": "view",
      "type": "function"
    },
    {
      "inputs": [
        {
          "internalType": "uint256",
          "name": "shares",
          "type": "uint256"
        },
        {
          "internalType": "uint256",
          "name": "pointInTimeTotalAssets",
          "type": "uint256"
        },
        {
          "internalType": "enum Math.Rounding",
          "name": "rounding",
          "type": "uint8"
        }
      ],
      "name": "convertToAssetsWithPITTotalAssets",
      "outputs": [
        {
          "internalType": "uint256",
          "name": "",
          "type": "uint256"
        }
      ],
      "stateMutability": "view",
      "type": "function"
    },
    {
      "inputs": [
        {
          "internalType": "uint256",
          "name": "assets",
          "type": "uint256"
        }
      ],
      "name": "convertToShares",
      "outputs": [
        {
          "internalType": "uint256",
          "name": "",
          "type": "uint256"
        }
      ],
      "stateMutability": "view",
      "type": "function"
    },
    {
      "inputs": [],
      "name": "curator",
      "outputs": [
        {
          "internalType": "address",
          "name": "",
          "type": "address"
        }
      ],
      "stateMutability": "view",
      "type": "function"
    },
    {
      "inputs": [
        {
          "internalType": "uint256",
          "name": "activeTotalAssets",
          "type": "uint256"
        }
      ],
      "name": "curatorFee",
      "outputs": [
        {
          "internalType": "uint256",
          "name": "",
          "type": "uint256"
        }
      ],
      "stateMutability": "view",
      "type": "function"
    },
    {
      "inputs": [],
      "name": "decimals",
      "outputs": [
        {
          "internalType": "uint8",
          "name": "",
          "type": "uint8"
        }
      ],
      "stateMutability": "view",
      "type": "function"
    },
    {
      "inputs": [
        {
          "internalType": "uint256",
          "name": "",
          "type": "uint256"
        },
        {
          "internalType": "address",
          "name": "",
          "type": "address"
        }
      ],
      "name": "deposit",
      "outputs": [
        {
          "internalType": "uint256",
          "name": "",
          "type": "uint256"
        }
      ],
      "stateMutability": "pure",
      "type": "function"
    },
    {
      "inputs": [],
      "name": "feeModel",
      "outputs": [
        {
          "internalType": "enum OrionVault.CalcMode",
          "name": "mode",
          "type": "uint8"
        },
        {
          "internalType": "uint16",
          "name": "performanceFee",
          "type": "uint16"
        },
        {
          "internalType": "uint16",
          "name": "managementFee",
          "type": "uint16"
        },
        {
          "internalType": "uint256",
          "name": "highWaterMark",
          "type": "uint256"
        }
      ],
      "stateMutability": "view",
      "type": "function"
    },
    {
      "inputs": [],
      "name": "getIntent",
      "outputs": [
        {
          "internalType": "address[]",
          "name": "tokens",
          "type": "address[]"
        },
        {
          "internalType": "euint32[]",
          "name": "weights",
          "type": "bytes32[]"
        }
      ],
      "stateMutability": "view",
      "type": "function"
    },
    {
      "inputs": [],
      "name": "getPendingDeposits",
      "outputs": [
        {
          "internalType": "uint256",
          "name": "",
          "type": "uint256"
        }
      ],
      "stateMutability": "view",
      "type": "function"
    },
    {
      "inputs": [],
      "name": "getPendingWithdrawals",
      "outputs": [
        {
          "internalType": "uint256",
          "name": "",
          "type": "uint256"
        }
      ],
      "stateMutability": "view",
      "type": "function"
    },
    {
      "inputs": [],
      "name": "getPortfolio",
      "outputs": [
        {
          "internalType": "address[]",
          "name": "tokens",
          "type": "address[]"
        },
        {
          "internalType": "euint32[]",
          "name": "sharesPerAsset",
          "type": "bytes32[]"
        }
      ],
      "stateMutability": "view",
      "type": "function"
    },
    {
      "inputs": [],
      "name": "internalStatesOrchestrator",
      "outputs": [
        {
          "internalType": "contract IInternalStateOrchestrator",
          "name": "",
          "type": "address"
        }
      ],
      "stateMutability": "view",
      "type": "function"
    },
    {
      "inputs": [
        {
          "internalType": "address",
          "name": "",
          "type": "address"
        }
      ],
      "name": "maxDeposit",
      "outputs": [
        {
          "internalType": "uint256",
          "name": "",
          "type": "uint256"
        }
      ],
      "stateMutability": "view",
      "type": "function"
    },
    {
      "inputs": [
        {
          "internalType": "address",
          "name": "",
          "type": "address"
        }
      ],
      "name": "maxMint",
      "outputs": [
        {
          "internalType": "uint256",
          "name": "",
          "type": "uint256"
        }
      ],
      "stateMutability": "view",
      "type": "function"
    },
    {
      "inputs": [
        {
          "internalType": "address",
          "name": "owner",
          "type": "address"
        }
      ],
      "name": "maxRedeem",
      "outputs": [
        {
          "internalType": "uint256",
          "name": "",
          "type": "uint256"
        }
      ],
      "stateMutability": "view",
      "type": "function"
    },
    {
      "inputs": [
        {
          "internalType": "address",
          "name": "owner",
          "type": "address"
        }
      ],
      "name": "maxWithdraw",
      "outputs": [
        {
          "internalType": "uint256",
          "name": "",
          "type": "uint256"
        }
      ],
      "stateMutability": "view",
      "type": "function"
    },
    {
      "inputs": [
        {
          "internalType": "uint256",
          "name": "",
          "type": "uint256"
        },
        {
          "internalType": "address",
          "name": "",
          "type": "address"
        }
      ],
      "name": "mint",
      "outputs": [
        {
          "internalType": "uint256",
          "name": "",
          "type": "uint256"
        }
      ],
      "stateMutability": "pure",
      "type": "function"
    },
    {
      "inputs": [],
      "name": "name",
      "outputs": [
        {
          "internalType": "string",
          "name": "",
          "type": "string"
        }
      ],
      "stateMutability": "view",
      "type": "function"
    },
    {
      "inputs": [],
      "name": "pendingCuratorFees",
      "outputs": [
        {
          "internalType": "uint256",
          "name": "",
          "type": "uint256"
        }
      ],
      "stateMutability": "view",
      "type": "function"
    },
    {
      "inputs": [
        {
          "internalType": "uint256",
          "name": "assets",
          "type": "uint256"
        }
      ],
      "name": "previewDeposit",
      "outputs": [
        {
          "internalType": "uint256",
          "name": "",
          "type": "uint256"
        }
      ],
      "stateMutability": "view",
      "type": "function"
    },
    {
      "inputs": [
        {
          "internalType": "uint256",
          "name": "shares",
          "type": "uint256"
        }
      ],
      "name": "previewMint",
      "outputs": [
        {
          "internalType": "uint256",
          "name": "",
          "type": "uint256"
        }
      ],
      "stateMutability": "view",
      "type": "function"
    },
    {
      "inputs": [
        {
          "internalType": "uint256",
          "name": "shares",
          "type": "uint256"
        }
      ],
      "name": "previewRedeem",
      "outputs": [
        {
          "internalType": "uint256",
          "name": "",
          "type": "uint256"
        }
      ],
      "stateMutability": "view",
      "type": "function"
    },
    {
      "inputs": [
        {
          "internalType": "uint256",
          "name": "assets",
          "type": "uint256"
        }
      ],
      "name": "previewWithdraw",
      "outputs": [
        {
          "internalType": "uint256",
          "name": "",
          "type": "uint256"
        }
      ],
      "stateMutability": "view",
      "type": "function"
    },
    {
      "inputs": [],
      "name": "processDepositRequests",
      "outputs": [],
      "stateMutability": "nonpayable",
      "type": "function"
    },
    {
      "inputs": [],
      "name": "processWithdrawRequests",
      "outputs": [],
      "stateMutability": "nonpayable",
      "type": "function"
    },
    {
      "inputs": [
        {
          "internalType": "uint256",
          "name": "",
          "type": "uint256"
        },
        {
          "internalType": "address",
          "name": "",
          "type": "address"
        },
        {
          "internalType": "address",
          "name": "",
          "type": "address"
        }
      ],
      "name": "redeem",
      "outputs": [
        {
          "internalType": "uint256",
          "name": "",
          "type": "uint256"
        }
      ],
      "stateMutability": "pure",
      "type": "function"
    },
    {
      "inputs": [
        {
          "internalType": "uint256",
          "name": "amount",
          "type": "uint256"
        }
      ],
      "name": "requestDeposit",
      "outputs": [],
      "stateMutability": "nonpayable",
      "type": "function"
    },
    {
      "inputs": [
        {
          "internalType": "uint256",
          "name": "shares",
          "type": "uint256"
        }
      ],
      "name": "requestWithdraw",
      "outputs": [],
      "stateMutability": "nonpayable",
      "type": "function"
    },
    {
      "inputs": [
        {
          "components": [
            {
              "internalType": "address",
              "name": "token",
              "type": "address"
            },
            {
              "internalType": "externalEuint32",
              "name": "weight",
              "type": "bytes32"
            }
          ],
          "internalType": "struct IOrionEncryptedVault.EncryptedIntent[]",
          "name": "intent",
          "type": "tuple[]"
        },
        {
          "internalType": "bytes",
          "name": "inputProof",
          "type": "bytes"
        }
      ],
      "name": "submitIntent",
      "outputs": [],
      "stateMutability": "nonpayable",
      "type": "function"
    },
    {
      "inputs": [],
      "name": "symbol",
      "outputs": [
        {
          "internalType": "string",
          "name": "",
          "type": "string"
        }
      ],
      "stateMutability": "view",
      "type": "function"
    },
    {
      "inputs": [],
      "name": "totalAssets",
      "outputs": [
        {
          "internalType": "uint256",
          "name": "",
          "type": "uint256"
        }
      ],
      "stateMutability": "view",
      "type": "function"
    },
    {
      "inputs": [],
      "name": "totalSupply",
      "outputs": [
        {
          "internalType": "uint256",
          "name": "",
          "type": "uint256"
        }
      ],
      "stateMutability": "view",
      "type": "function"
    },
    {
      "inputs": [
        {
          "internalType": "address",
          "name": "to",
          "type": "address"
        },
        {
          "internalType": "uint256",
          "name": "value",
          "type": "uint256"
        }
      ],
      "name": "transfer",
      "outputs": [
        {
          "internalType": "bool",
          "name": "",
          "type": "bool"
        }
      ],
      "stateMutability": "nonpayable",
      "type": "function"
    },
    {
      "inputs": [
        {
          "internalType": "address",
          "name": "from",
          "type": "address"
        },
        {
          "internalType": "address",
          "name": "to",
          "type": "address"
        },
        {
          "internalType": "uint256",
          "name": "value",
          "type": "uint256"
        }
      ],
      "name": "transferFrom",
      "outputs": [
        {
          "internalType": "bool",
          "name": "",
          "type": "bool"
        }
      ],
      "stateMutability": "nonpayable",
      "type": "function"
    },
    {
      "inputs": [
        {
          "internalType": "address",
          "name": "newCurator",
          "type": "address"
        }
      ],
      "name": "updateCurator",
      "outputs": [],
      "stateMutability": "nonpayable",
      "type": "function"
    },
    {
      "inputs": [
        {
          "internalType": "uint8",
          "name": "mode",
          "type": "uint8"
        },
        {
          "internalType": "uint16",
          "name": "performanceFee",
          "type": "uint16"
        },
        {
          "internalType": "uint16",
          "name": "managementFee",
          "type": "uint16"
        }
      ],
      "name": "updateFeeModel",
      "outputs": [],
      "stateMutability": "nonpayable",
      "type": "function"
    },
    {
      "inputs": [],
      "name": "updateHighWaterMark",
      "outputs": [],
      "stateMutability": "nonpayable",
      "type": "function"
    },
    {
      "inputs": [
        {
          "components": [
            {
              "internalType": "address",
              "name": "token",
              "type": "address"
            },
            {
              "internalType": "euint32",
              "name": "value",
              "type": "bytes32"
            }
          ],
          "internalType": "struct IOrionEncryptedVault.EncryptedPortfolio[]",
          "name": "portfolio",
          "type": "tuple[]"
        },
        {
          "internalType": "uint256",
          "name": "newTotalAssets",
          "type": "uint256"
        }
      ],
      "name": "updateVaultState",
      "outputs": [],
      "stateMutability": "nonpayable",
      "type": "function"
    },
    {
      "inputs": [
        {
          "internalType": "address[]",
          "name": "assets",
          "type": "address[]"
        }
      ],
      "name": "updateVaultWhitelist",
      "outputs": [],
      "stateMutability": "nonpayable",
      "type": "function"
    },
    {
      "inputs": [],
      "name": "vaultOwner",
      "outputs": [
        {
          "internalType": "address",
          "name": "",
          "type": "address"
        }
      ],
      "stateMutability": "view",
      "type": "function"
    },
    {
      "inputs": [
        {
          "internalType": "uint256",
          "name": "",
          "type": "uint256"
        },
        {
          "internalType": "address",
          "name": "",
          "type": "address"
        },
        {
          "internalType": "address",
          "name": "",
          "type": "address"
        }
      ],
      "name": "withdraw",
      "outputs": [
        {
          "internalType": "uint256",
          "name": "",
          "type": "uint256"
        }
      ],
      "stateMutability": "pure",
      "type": "function"
    }
  ],
  "bytecode": "0x60c060405234801561000f575f5ffd5b5060405161552238038061552283398101604081905261002e91610905565b8484848484826001600160a01b0316637158da7c6040518163ffffffff1660e01b8152600401602060405180830381865afa15801561006f573d5f5f3e3d5ffd5b505050506040513d601f19601f8201168201806040525081019061009391906109a3565b8282610138610133604080516080810182525f808252602082018190529181018290526060810191909152506040805160808101825273687820221192c5b662b25367f70076a37bc79b6c815273848b0066793bcc60346da1f49049357399b8d5956020820152731364cbbf2cdf5032c47d8226a6f6fbd2afcdacac9181019190915273bc91f3dad1a5f19f8390c400196e58073b6a0bc4606082015290565b610470565b61015573a02cda4ca3a71d7c46997716f4283aa851c28812610529565b60036101618382610a42565b50600461016e8282610a42565b5050505f5f6101828361056660201b60201c565b9150915081610192576012610194565b805b60ff1660a05250506001600160a01b03908116608052600160055584166101ce5760405163e6c4247b60e01b815260040160405180910390fd5b6001600160a01b0383166101f55760405163e6c4247b60e01b815260040160405180910390fd5b600680546001600160a01b038088166001600160a01b0319928316179092556007805487841690831617905560088054928616929091168217905560408051630691d8b960e31b8152905163348ec5c8916004808201926020929091908290030181865afa158015610269573d5f5f3e3d5ffd5b505050506040513d601f19601f8201168201806040525081019061028d91906109a3565b600980546001600160a01b0319166001600160a01b039283161790555f600c8190556013819055601481905560408051631c56369f60e21b815290519192861691637158da7c916004808201926020929091908290030181865afa1580156102f7573d5f5f3e3d5ffd5b505050506040513d601f19601f8201168201806040525081019061031b91906109a3565b6001600160a01b031663313ce5676040518163ffffffff1660e01b8152600401602060405180830381865afa158015610356573d5f5f3e3d5ffd5b505050506040513d601f19601f8201168201806040525081019061037a9190610afc565b9050601260ff821611156103a157604051631c03248960e11b815260040160405180910390fd5b6040805160808101909152805f81525f6020820181905260408201526060016103cc6012600a610c27565b9052805160168054909190829060ff191660018360048111156103f1576103f1610b1c565b021790555060208201518154604084015161ffff90811663010000000264ffff0000001991909316610100021664ffffffff00199091161717815560609091015160019091015561044061063c565b5050505050506104555f61071160201b60201c565b601d556104626001610729565b601e5550610d589350505050565b80515f5160206154e25f395f51905f5280546001600160a01b03199081166001600160a01b039384161790915560208301515f5160206155025f395f51905f528054831691841691909117905560408301517fed8d60e34876f751cc8b014c560745351147d9de11b9347c854e881b128ea6028054831691841691909117905560608301517fed8d60e34876f751cc8b014c560745351147d9de11b9347c854e881b128ea6038054909216921691909117905550565b50565b7f5ea69329017273582817d320489fbd94f775580e90c092699ca6f3d12fdf7d0080546001600160a01b0319166001600160a01b03831617905550565b60408051600481526024810182526020810180516001600160e01b031663313ce56760e01b17905290515f918291829182916001600160a01b038716916105ac91610c35565b5f60405180830381855afa9150503d805f81146105e4576040519150601f19603f3d011682016040523d82523d5f602084013e6105e9565b606091505b50915091508180156105fd57506020815110155b15610630575f818060200190518101906106179190610c4b565b905060ff811161062e576001969095509350505050565b505b505f9485945092505050565b60085460408051636c366a2760e11b815290515f926001600160a01b03169163d86cd44e91600480830192869291908290030181865afa158015610682573d5f5f3e3d5ffd5b505050506040513d5f823e601f3d908101601f191682016040526106a99190810190610c62565b90505f5b815181101561070d575f6106e48383815181106106cc576106cc610d14565b6020026020010151600a61074460201b90919060201c565b90508061070457604051630ea075bf60e21b815260040160405180910390fd5b506001016106ad565b5050565b5f61072363ffffffff8316600461075f565b92915050565b5f61072382610738575f61073b565b60015b60ff165f61075f565b5f610758836001600160a01b0384166107f6565b9392505050565b5f5160206155025f395f51905f5254604051639cd07acb60e01b81525f915f5160206154e25f395f51905f52916001600160a01b0390911690639cd07acb906107ae9087908790600401610d28565b6020604051808303815f875af11580156107ca573d5f5f3e3d5ffd5b505050506040513d601f19601f820116820180604052508101906107ee9190610c4b565b949350505050565b5f81815260018301602052604081205461083b57508154600181810184555f848152602080822090930184905584548482528286019093526040902091909155610723565b505f610723565b6001600160a01b0381168114610526575f5ffd5b634e487b7160e01b5f52604160045260245ffd5b604051601f8201601f191681016001600160401b038111828210171561089257610892610856565b604052919050565b5f82601f8301126108a9575f5ffd5b81516001600160401b038111156108c2576108c2610856565b6108d5601f8201601f191660200161086a565b8181528460208386010111156108e9575f5ffd5b8160208501602083015e5f918101602001919091529392505050565b5f5f5f5f5f60a08688031215610919575f5ffd5b855161092481610842565b602087015190955061093581610842565b604087015190945061094681610842565b60608701519093506001600160401b03811115610961575f5ffd5b61096d8882890161089a565b608088015190935090506001600160401b0381111561098a575f5ffd5b6109968882890161089a565b9150509295509295909350565b5f602082840312156109b3575f5ffd5b815161075881610842565b600181811c908216806109d257607f821691505b6020821081036109f057634e487b7160e01b5f52602260045260245ffd5b50919050565b601f821115610a3d57805f5260205f20601f840160051c81016020851015610a1b5750805b601f840160051c820191505b81811015610a3a575f8155600101610a27565b50505b505050565b81516001600160401b03811115610a5b57610a5b610856565b610a6f81610a6984546109be565b846109f6565b6020601f821160018114610aa1575f8315610a8a5750848201515b5f19600385901b1c1916600184901b178455610a3a565b5f84815260208120601f198516915b82811015610ad05787850151825560209485019460019092019101610ab0565b5084821015610aed57868401515f19600387901b60f8161c191681555b50505050600190811b01905550565b5f60208284031215610b0c575f5ffd5b815160ff81168114610758575f5ffd5b634e487b7160e01b5f52602160045260245ffd5b634e487b7160e01b5f52601160045260245ffd5b6001815b6001841115610b7f57808504811115610b6357610b63610b30565b6001841615610b7157908102905b60019390931c928002610b48565b935093915050565b5f82610b9557506001610723565b81610ba157505f610723565b8160018114610bb75760028114610bc157610bdd565b6001915050610723565b60ff841115610bd257610bd2610b30565b50506001821b610723565b5060208310610133831016604e8410600b8410161715610c00575081810a610723565b610c0c5f198484610b44565b805f1904821115610c1f57610c1f610b30565b029392505050565b5f61075860ff841683610b87565b5f82518060208501845e5f920191825250919050565b5f60208284031215610c5b575f5ffd5b5051919050565b5f60208284031215610c72575f5ffd5b81516001600160401b03811115610c87575f5ffd5b8201601f81018413610c97575f5ffd5b80516001600160401b03811115610cb057610cb0610856565b8060051b610cc06020820161086a565b91825260208184018101929081019087841115610cdb575f5ffd5b6020850194505b83851015610d095784519250610cf783610842565b82825260209485019490910190610ce2565b979650505050505050565b634e487b7160e01b5f52603260045260245ffd5b8281526040810160548310610d4b57634e487b7160e01b5f52602160045260245ffd5b8260208301529392505050565b60805160a05161476c610d765f395f50505f610fba015261476c5ff3fe608060405234801561000f575f5ffd5b5060043610610291575f3560e01c806301e1d1141461029557806303d44854146102ac57806306fdde03146102c157806307a2d13a146102d6578063095ea7b3146102e95780630a28a4771461030c5780630c6a62dd1461031f5780630d1e6667146103325780630df571f71461034557806318160ddd146103585780631f52692b1461036057806323b872dd146103805780632dae296714610393578063313ce5671461039b57806333fdc592146103b0578063348ec5c8146103b857806338d52e0f146103cb5780633ab6d27c146103d3578063402d267d146103e65780634cdad506146102d657806358df8301146103fa5780636e553f651461040d57806370a082311461042057806373d8057d14610433578063745400c91461044f5780637847ea531461046257806379502c551461048257806394bf804d1461040d57806395d89b411461049557806397ee11441461049d5780639908840c146104d35780639adb2981146104dc578063a68a5267146104ef578063a9059cbb14610502578063aa9d3a6014610515578063acdb3d511461051d578063b3d7f6b914610526578063b460af9414610539578063b6eba65314610547578063b76b720e1461055d578063ba08765214610539578063bdca916514610565578063c0b568e11461056e578063c37fc8a814610581578063c392e58c14610589578063c63d75b6146103e6578063c6e6f5921461059c578063cce4705b146105af578063ce96cb77146105c2578063d1699c26146105d5578063d3d03458146105dd578063d853365f146105e5578063d905777e146105ed578063dd62ed3e14610600578063e51a85f614610613578063e66f53b714610626578063ef8b30f71461059c575b5f5ffd5b600c545b6040519081526020015b60405180910390f35b6102bf6102ba366004613cb1565b610639565b005b6102c9610769565b6040516102a39190613d73565b6102996102e4366004613d85565b6107f9565b6102fc6102f7366004613d9c565b61080a565b60405190151581526020016102a3565b61029961031a366004613d85565b610821565b6102bf61032d366004613dc6565b61082d565b6102bf610340366004613d85565b6108a1565b6102bf610353366004613de1565b610afc565b600254610299565b600654610373906001600160a01b031681565b6040516102a39190613e01565b6102fc61038e366004613e15565b610c05565b6102bf610c2a565b60125b60405160ff90911681526020016102a3565b6102bf610cf3565b600954610373906001600160a01b031681565b610373610fb8565b6102bf6103e1366004613e70565b610fdc565b6102996103f4366004613dc6565b505f1990565b6102bf610408366004613ec5565b61112a565b61029961041b366004613fef565b611149565b61029961042e366004613dc6565b611163565b61043c61271081565b60405161ffff90911681526020016102a3565b6102bf61045d366004613d85565b61117d565b61046d6301e1338081565b60405163ffffffff90911681526020016102a3565b600854610373906001600160a01b031681565b6102c961133f565b6016546017546104c39160ff81169161ffff610100830481169263010000009004169084565b6040516102a39493929190614031565b61043c61012c81565b6102bf6104ea3660046140a3565b61134e565b6102996104fd3660046140ea565b61157b565b6102fc610510366004613d9c565b6115bb565b6102bf6115c8565b61029960155481565b610299610534366004613d85565b61192a565b61029961041b366004614118565b61054f611936565b6040516102a392919061414c565b6102bf611ab7565b61043c610bb881565b6102bf61057c366004613d85565b611b8a565b601454610299565b6102bf6105973660046141d5565b611d2c565b6102996105aa366004613d85565b6122b7565b6102bf6105bd366004613d85565b6122c2565b6102996105d0366004613dc6565b612467565b601354610299565b61054f61247a565b61039e601281565b6102996105fb366004613dc6565b6125de565b61029961060e36600461426b565b6125e8565b610299610621366004613d85565b612612565b600754610373906001600160a01b031681565b6006546001600160a01b0316331461066457604051631a27eac360e11b815260040160405180910390fd5b61066e600a61264b565b5f5b8151811015610765575f82828151811061068c5761068c614297565b6020908102919091010151600854604051633af32abf60e01b81529192506001600160a01b031690633af32abf906106c8908490600401613e01565b602060405180830381865afa1580156106e3573d5f5f3e3d5ffd5b505050506040513d601f19601f8201168201806040525081019061070791906142ab565b61072f578060405163751dff9760e11b81526004016107269190613e01565b60405180910390fd5b5f61073b600a83612654565b90508061075b57604051630ea075bf60e21b815260040160405180910390fd5b5050600101610670565b5050565b606060038054610778906142c6565b80601f01602080910402602001604051908101604052809291908181526020018280546107a4906142c6565b80156107ef5780601f106107c6576101008083540402835291602001916107ef565b820191905f5260205f20905b8154815290600101906020018083116107d257829003601f168201915b5050505050905090565b5f610804825f612668565b92915050565b5f336108178185856126a9565b5060019392505050565b5f6108048260016126bb565b6006546001600160a01b0316331461085857604051631a27eac360e11b815260040160405180910390fd5b6001600160a01b03811661087f5760405163e6c4247b60e01b815260040160405180910390fd5b600780546001600160a01b0319166001600160a01b0392909216919091179055565b6108a96126ed565b805f036108d2576108b8610fb8565b604051636b30633560e01b81526004016107269190613e01565b5f6108db610fb8565b6001600160a01b03166370a08231336040518263ffffffff1660e01b81526004016109069190613e01565b602060405180830381865afa158015610921573d5f5f3e3d5ffd5b505050506040513d601f19601f8201168201806040525081019061094591906142fe565b90508082111561096e57338183604051632e2a182f60e11b815260040161072693929190614315565b5f610977610fb8565b6001600160a01b03166323b872dd3360085f9054906101000a90046001600160a01b03166001600160a01b0316633a0dad8e6040518163ffffffff1660e01b8152600401602060405180830381865afa1580156109d6573d5f5f3e3d5ffd5b505050506040513d601f19601f820116820180604052508101906109fa9190614336565b866040518463ffffffff1660e01b8152600401610a1993929190614351565b6020604051808303815f875af1158015610a35573d5f5f3e3d5ffd5b505050506040513d601f19601f82011682018060405250810190610a5991906142ab565b905080610a79576040516312171d8360e31b815260040160405180910390fd5b5f610a85600d33612717565b9150610aa0905033610a978684614389565b600d919061273d565b508360135f828254610ab29190614389565b909155505060405184815233907f08d79f77ab5f78e7e780abb1f7ac9e9923340d5bae78f6e83e7999905b248ea29060200160405180910390a2505050610af96001600555565b50565b60085f9054906101000a90046001600160a01b03166001600160a01b0316633a0dad8e6040518163ffffffff1660e01b8152600401602060405180830381865afa158015610b4c573d5f5f3e3d5ffd5b505050506040513d601f19601f82011682018060405250810190610b709190614336565b6001600160a01b0316336001600160a01b031614610ba157604051631a27eac360e11b815260040160405180910390fd5b8015610765578060155f828254610bb89190614389565b909155505060155460405183917f8b8789cf9157fe7b016901e4ed3a5d0971caa8b7c031da0b25638ccf65841b2a91610bf991858252602082015260400190565b60405180910390a25050565b5f33610c12858285612752565b610c1d85858561279d565b60019150505b9392505050565b60085f9054906101000a90046001600160a01b03166001600160a01b0316633a0dad8e6040518163ffffffff1660e01b8152600401602060405180830381865afa158015610c7a573d5f5f3e3d5ffd5b505050506040513d601f19601f82011682018060405250810190610c9e9190614336565b6001600160a01b0316336001600160a01b031614610ccf57604051631a27eac360e11b815260040160405180910390fd5b5f610ce160125b6102e490600a61447f565b601754909150811115610af957601755565b60085f9054906101000a90046001600160a01b03166001600160a01b0316633a0dad8e6040518163ffffffff1660e01b8152600401602060405180830381865afa158015610d43573d5f5f3e3d5ffd5b505050506040513d601f19601f82011682018060405250810190610d679190614336565b6001600160a01b0316336001600160a01b031614610d9857604051631a27eac360e11b815260040160405180910390fd5b610da06126ed565b5f610dab600d6127fa565b90505f8163ffffffff166001600160401b03811115610dcc57610dcc613c37565b604051908082528060200260200182016040528015610df5578160200160208202803683370190505b5090505f8263ffffffff166001600160401b03811115610e1757610e17613c37565b604051908082528060200260200182016040528015610e40578160200160208202803683370190505b5090505f5b8363ffffffff168163ffffffff161015610eda575f80610e6f600d63ffffffff8086169061280416565b9150915081858463ffffffff1681518110610e8c57610e8c614297565b60200260200101906001600160a01b031690816001600160a01b03168152505080848463ffffffff1681518110610ec557610ec5614297565b60209081029190910101525050600101610e45565b505f5b8363ffffffff168163ffffffff161015610fa7575f838263ffffffff1681518110610f0a57610f0a614297565b602002602001015190505f838363ffffffff1681518110610f2d57610f2d614297565b602002602001015190505f610f41826122b7565b9050610f4e600d84612812565b50610f598382612826565b826001600160a01b03167f85a190caa61692b36b63a55e069330d18ab9af179fed7a25c16a4262bc63b7d283604051610f9491815260200190565b60405180910390a2505050600101610edd565b50505f60135550506001600555565b565b7f000000000000000000000000000000000000000000000000000000000000000090565b6006546001600160a01b0316331461100757604051631a27eac360e11b815260040160405180910390fd5b600460ff8416111561102c576040516317dbc4cb60e21b815260040160405180910390fd5b610bb861ffff83161115611053576040516317dbc4cb60e21b815260040160405180910390fd5b61012c61ffff8216111561107a576040516317dbc4cb60e21b815260040160405180910390fd5b8260ff16600481111561108f5761108f61401d565b6016805460ff191660018360048111156110ab576110ab61401d565b02179055506016805464ffffffff00191661010061ffff85811691820264ffff0000001916929092176301000000928516928302179092556040805160ff8716815260208101939093528201527fd24f39e523bfa412fa391702710dc62e1c82d87a8e83228a37c42be1b4870f459060600160405180910390a1505050565b611134838261285a565b50601f805460ff191691151591909117905550565b5f60405163125ad87760e31b815260040160405180910390fd5b6001600160a01b03165f9081526020819052604090205490565b805f0361119f5730604051636b30633560e01b81526004016107269190613e01565b5f6111a933611163565b9050808211156111d257338183604051632e2a182f60e11b815260040161072693929190614315565b60085460408051631d06d6c760e11b815290515f9230926323b872dd9233926001600160a01b031691633a0dad8e9160048083019260209291908290030181865afa158015611223573d5f5f3e3d5ffd5b505050506040513d601f19601f820116820180604052508101906112479190614336565b866040518463ffffffff1660e01b815260040161126693929190614351565b6020604051808303815f875af1158015611282573d5f5f3e3d5ffd5b505050506040513d601f19601f820116820180604052508101906112a691906142ab565b9050806112c6576040516312171d8360e31b815260040160405180910390fd5b5f6112d2601033612717565b91506112ed9050336112e48684614389565b6010919061273d565b508360145f8282546112ff9190614389565b909155505060405184815233907ff7774b688d56120b783560a913ee60792a73dfd511812b7be5eccf10d08c66899060200160405180910390a250505050565b606060048054610778906142c6565b60085f9054906101000a90046001600160a01b03166001600160a01b0316633a0dad8e6040518163ffffffff1660e01b8152600401602060405180830381865afa15801561139e573d5f5f3e3d5ffd5b505050506040513d601f19601f820116820180604052508101906113c29190614336565b6001600160a01b0316336001600160a01b0316146113f357604051631a27eac360e11b815260040160405180910390fd5b6019545f5b8161ffff168161ffff16101561145157601d5460185f60198461ffff168154811061142557611425614297565b5f9182526020808320909101546001600160a01b031683528201929092526040019020556001016113f8565b5061145d60195f613bc7565b5f5b8161ffff168161ffff16101561153c5784848261ffff1681811061148557611485614297565b9050604002016020013560185f87878561ffff168181106114a8576114a8614297565b6114be9260206040909202019081019150613dc6565b6001600160a01b0316815260208101919091526040015f20556019858561ffff84168181106114ef576114ef614297565b6115059260206040909202019081019150613dc6565b8154600180820184555f93845260209093200180546001600160a01b0319166001600160a01b03929092169190911790550161145f565b50600c8290556040518281527f5e1ff954b5e5257e9ee5d4cb07059e8f5e69b1aaaf9911e5d8d90a6894de9c219060200160405180910390a150505050565b5f6115b361158a846001614389565b6115926128c1565b61159d90600a61447f565b6002546115aa9190614389565b8691908561293d565b949350505050565b5f3361081781858561279d565b60085f9054906101000a90046001600160a01b03166001600160a01b0316633a0dad8e6040518163ffffffff1660e01b8152600401602060405180830381865afa158015611618573d5f5f3e3d5ffd5b505050506040513d601f19601f8201168201806040525081019061163c9190614336565b6001600160a01b0316336001600160a01b03161461166d57604051631a27eac360e11b815260040160405180910390fd5b6116756126ed565b5f61168060106127fa565b90505f8163ffffffff166001600160401b038111156116a1576116a1613c37565b6040519080825280602002602001820160405280156116ca578160200160208202803683370190505b5090505f8263ffffffff166001600160401b038111156116ec576116ec613c37565b604051908082528060200260200182016040528015611715578160200160208202803683370190505b5090505f5b8363ffffffff168163ffffffff1610156117af575f80611744601063ffffffff8086169061280416565b9150915081858463ffffffff168151811061176157611761614297565b60200260200101906001600160a01b031690816001600160a01b03168152505080848463ffffffff168151811061179a5761179a614297565b6020908102919091010152505060010161171a565b505f60148190555b8363ffffffff168163ffffffff16101561191c575f838263ffffffff16815181106117e4576117e4614297565b602002602001015190505f838363ffffffff168151811061180757611807614297565b6020026020010151905061182582601061281290919063ffffffff16565b50611830308261297f565b5f61183a826107f9565b9050611844610fb8565b6001600160a01b031663a9059cbb84836040518363ffffffff1660e01b815260040161187192919061448d565b6020604051808303815f875af115801561188d573d5f5f3e3d5ffd5b505050506040513d601f19601f820116820180604052508101906118b191906142ab565b6118ce576040516312171d8360e31b815260040160405180910390fd5b826001600160a01b03167f44b2ff9ffcefe2052a8afdbed44a04bf3db4592ae90c6b96c818bd28573e41e88360405161190991815260200190565b60405180910390a25050506001016117b7565b50505050610fb66001600555565b5f610804826001612668565b601b54606090819061ffff81166001600160401b0381111561195a5761195a613c37565b604051908082528060200260200182016040528015611983578160200160208202803683370190505b5092508061ffff166001600160401b038111156119a2576119a2613c37565b6040519080825280602002602001820160405280156119cb578160200160208202803683370190505b5091505f5b8161ffff168161ffff161015611ab157601b8161ffff16815481106119f7576119f7614297565b905f5260205f20015f9054906101000a90046001600160a01b0316848261ffff1681518110611a2857611a28614297565b60200260200101906001600160a01b031690816001600160a01b031681525050601a5f601b8361ffff1681548110611a6257611a62614297565b5f9182526020808320909101546001600160a01b031683528201929092526040019020548351849061ffff8416908110611a9e57611a9e614297565b60209081029190910101526001016119d0565b50509091565b6006546001600160a01b03163314611ae257604051631a27eac360e11b815260040160405180910390fd5b60085f9054906101000a90046001600160a01b03166001600160a01b031663edcf9c1f6040518163ffffffff1660e01b8152600401602060405180830381865afa158015611b32573d5f5f3e3d5ffd5b505050506040513d601f19601f82011682018060405250810190611b5691906142ab565b611b73576040516312aecd8160e01b815260040160405180910390fd5b6015545f03611b84576108b8610fb8565b5f601555565b611b926126ed565b805f03611ba1576108b8610fb8565b5f611bad600d33612717565b91505081811015611bd1576040516332194fd360e21b815260040160405180910390fd5b60085f9054906101000a90046001600160a01b03166001600160a01b0316633a0dad8e6040518163ffffffff1660e01b8152600401602060405180830381865afa158015611c21573d5f5f3e3d5ffd5b505050506040513d601f19601f82011682018060405250810190611c459190614336565b6001600160a01b03166351edffb133846040518363ffffffff1660e01b8152600401611c7292919061448d565b5f604051808303815f87803b158015611c89575f5ffd5b505af1158015611c9b573d5f5f3e3d5ffd5b505050505f8282611cac91906144a6565b9050805f03611cc657611cc0600d33612812565b50611cd4565b611cd2600d338361273d565b505b8260135f828254611ce591906144a6565b909155505060405183815233907f96a9a6886cdf3047a125454218a23d3961fd3a78643123b248a9d106d0ac94fd906020015b60405180910390a25050610af96001600555565b6007546001600160a01b03163314611d5757604051631a27eac360e11b815260040160405180910390fd5b611d5f6126ed565b5f839003611d8057604051631121aa8d60e01b815260040160405180910390fd5b601d5483905f61ffff83166001600160401b03811115611da257611da2613c37565b604051908082528060200260200182016040528015611dcb578160200160208202803683370190505b5090505f8361ffff166001600160401b03811115611deb57611deb613c37565b604051908082528060200260200182016040528015611e14578160200160208202803683370190505b50601e549091505f61ffff86166001600160401b03811115611e3857611e38613c37565b604051908082528060200260200182016040528015611e61578160200160208202803683370190505b5090505f5b8661ffff168161ffff161015612038575f8b8b8361ffff16818110611e8d57611e8d614297565b611ea39260206040909202019081019150613dc6565b905080838361ffff1681518110611ebc57611ebc614297565b60200260200101906001600160a01b031690816001600160a01b0316815250505f611f3b8d8d8561ffff16818110611ef657611ef6614297565b905060400201602001358c8c8080601f0160208091040260200160405190810160405280939291908181526020018383808284375f920191909152506129b392505050565b9050611f46816129c0565b505f611f5482601d546129cf565b9050611f6086826129fd565b6001600160a01b0384165f908152601c602052604090205490965060ff1615611f9e57826040516346bdabe160e01b81526004016107269190613e01565b6001600160a01b0383165f908152601c60205260409020805460ff1916600117905587518390899061ffff8716908110611fda57611fda614297565b60200260200101906001600160a01b031690816001600160a01b03168152505081878561ffff168151811061201157612011614297565b6020026020010181815250506120278983612a2b565b98505060019092019150611e669050565b5061204281612a59565b5f6120ca60085f9054906101000a90046001600160a01b03166001600160a01b031663d1717c7d6040518163ffffffff1660e01b8152600401602060405180830381865afa158015612096573d5f5f3e3d5ffd5b505050506040513d601f19601f820116820180604052508101906120ba91906144b9565b6120c590600a61447f565b612ad1565b90505f6120d78783612ae3565b90505f6120e485836129fd565b90506120ef816129c0565b506040805160018082528183019092525f916020808301908036833701905050905081815f8151811061212457612124614297565b6020908102919091010152612140816358df830160e01b612b11565b505f5b601b5461ffff908116908216101561219e57601d54601a5f601b8461ffff168154811061217257612172614297565b5f9182526020808320909101546001600160a01b03168352820192909252604001902055600101612143565b506121aa601b5f613bc7565b5f5b8a61ffff168161ffff161015612272575f898261ffff16815181106121d3576121d3614297565b60200260200101519050888261ffff16815181106121f3576121f3614297565b6020908102919091018101516001600160a01b039092165f818152601a8352604080822094909455601b805460018181019092557f3ad8aa4f87544323a9d1e5dd902f40c356527a7955687113db5f9a85ad579dc10180546001600160a01b03191684179055918152601c909252919020805460ff19169055016121ac565b5060405133907f2d47a742b8d7df7c1fc5a9a631b206b364e6cb2722490759f63bb3ab14b132e0905f90a2505050505050505050506122b16001600555565b50505050565b5f610804825f6126bb565b6122ca6126ed565b805f036122ec5730604051636b30633560e01b81526004016107269190613e01565b5f6122f8601033612717565b9150508181101561231c576040516312ea1f4960e11b815260040160405180910390fd5b60085f9054906101000a90046001600160a01b03166001600160a01b0316633a0dad8e6040518163ffffffff1660e01b8152600401602060405180830381865afa15801561236c573d5f5f3e3d5ffd5b505050506040513d601f19601f820116820180604052508101906123909190614336565b6001600160a01b031663be186b2033846040518363ffffffff1660e01b81526004016123bd92919061448d565b5f604051808303815f87803b1580156123d4575f5ffd5b505af11580156123e6573d5f5f3e3d5ffd5b505050505f82826123f791906144a6565b9050805f036124115761240b601033612812565b5061241f565b61241d6010338361273d565b505b8260145f82825461243091906144a6565b909155505060405183815233907f9cf37535785001dcc9767688232fcbc8698b3002d1207b50bc2afec3ff8934dc90602001611d18565b5f61080461247483611163565b5f612668565b601954606090819061ffff81166001600160401b0381111561249e5761249e613c37565b6040519080825280602002602001820160405280156124c7578160200160208202803683370190505b5092508061ffff166001600160401b038111156124e6576124e6613c37565b60405190808252806020026020018201604052801561250f578160200160208202803683370190505b5091505f5b8161ffff168161ffff161015611ab1575f60198261ffff168154811061253c5761253c614297565b905f5260205f20015f9054906101000a90046001600160a01b0316905080858361ffff168151811061257057612570614297565b60200260200101906001600160a01b031690816001600160a01b03168152505060185f826001600160a01b03166001600160a01b031681526020019081526020015f2054848361ffff16815181106125ca576125ca614297565b602090810291909101015250600101612514565b5f61080482611163565b6001600160a01b039182165f90815260016020908152604080832093909416825291909152205490565b5f5f61261d83612b1d565b90505f61262a82856144a6565b90505f61263682612be7565b90506126428184614389565b95945050505050565b610af981612ca3565b5f610c23836001600160a01b038416612cfc565b5f610c23612675600c5490565b612680906001614389565b6126886128c1565b61269390600a61447f565b6002546126a09190614389565b8591908561293d565b6126b68383836001612d43565b505050565b5f610c236126c76128c1565b6126d290600a61447f565b6002546126df9190614389565b600c546126a0906001614389565b60026005540361271057604051633ee5aeb560e01b815260040160405180910390fd5b6002600555565b5f80808061272e866001600160a01b038716612e15565b909450925050505b9250929050565b5f6115b3846001600160a01b03851684612e4d565b5f61275d84846125e8565b90505f198110156122b1578181101561278f57828183604051637dc7a0d960e11b815260040161072693929190614315565b6122b184848484035f612d43565b6001600160a01b0383166127c6575f604051634b637e8f60e11b81526004016107269190613e01565b6001600160a01b0382166127ef575f60405163ec442f0560e01b81526004016107269190613e01565b6126b6838383612e69565b5f61080482612f7c565b5f80808061272e8686612f86565b5f610c23836001600160a01b038416612faf565b6001600160a01b03821661284f575f60405163ec442f0560e01b81526004016107269190613e01565b6107655f8383612e69565b5f61286483612fcb565b90505f6128718284613067565b9050806128915760405163cf6c44e960e01b815260040160405180910390fd5b60405184907f1af0453083661051f6e56e5c070792320652e612154bf9af8637bb1e7655b99d905f90a250505050565b5f5f6128cb610fb8565b6001600160a01b031663313ce5676040518163ffffffff1660e01b8152600401602060405180830381865afa158015612906573d5f5f3e3d5ffd5b505050506040513d601f19601f8201168201806040525081019061292a91906144b9565b90506129378160126144d4565b91505090565b5f61296a61294a8361314e565b801561296557505f8480612960576129606144ed565b868809115b151590565b61297586868661317a565b6126429190614389565b6001600160a01b0382166129a8575f604051634b637e8f60e11b81526004016107269190613e01565b610765825f83612e69565b5f610c238383600461322a565b5f6129cb8230613314565b5090565b5f826129e1576129de5f612ad1565b92505b816129f2576129ef5f612ad1565b91505b610c2383835f613381565b5f82612a0f57612a0c5f613417565b92505b81612a2057612a1d5f613417565b91505b610c2383835f613432565b5f82612a3d57612a3a5f612ad1565b92505b81612a4e57612a4b5f612ad1565b91505b610c2383835f613488565b5f5b815181101561076557612a91828281518110612a7957612a79614297565b6020026020010151600a6134de90919063ffffffff16565b612ac957818181518110612aa757612aa7614297565b602002602001015160405163751dff9760e11b81526004016107269190613e01565b600101612a5b565b5f6108048263ffffffff1660046134f2565b5f82612af557612af25f612ad1565b92505b81612b0657612b035f612ad1565b91505b610c2383835f613571565b5f610c2383835f6135c7565b6016545f906301000000900461ffff168103612b3a57505f919050565b6016545f90612b57906301000000900461ffff168461271061317a565b9050610c2360095f9054906101000a90046001600160a01b03166001600160a01b0316634ff0876a6040518163ffffffff1660e01b8152600401602060405180830381865afa158015612bac573d5f5f3e3d5ffd5b505050506040513d601f19601f82011682018060405250810190612bd09190614501565b829063ffffffff908116906301e133809061317a16565b6016545f90610100900461ffff168103612c0257505f919050565b5f612c46612c11846001614389565b612c196128c1565b612c2490600a61447f565b600254612c319190614389565b5f612c3e6012600a61447f565b92919061293d565b6016549091505f908190612c5c9060ff166136cc565b91509150818311612c7157505f949350505050565b6016545f90612c8a90610100900461ffff16858461317a565b9050612c99818761271061317a565b9695505050505050565b5f612cac825490565b90505f5b81811015612cf557826001015f845f018381548110612cd157612cd1614297565b905f5260205f20015481526020019081526020015f205f9055806001019050612cb0565b50505f9055565b5f612d0783836137b6565b612d3c57508154600181810184555f848152602080822090930184905584548482528286019093526040902091909155610804565b505f610804565b6001600160a01b038416612d6c575f60405163e602df0560e01b81526004016107269190613e01565b6001600160a01b038316612d95575f604051634a1406b160e11b81526004016107269190613e01565b6001600160a01b038085165f90815260016020908152604080832093871683529290522082905580156122b157826001600160a01b0316846001600160a01b03167f8c5be1e5ebec7d5bd14f71427d1e84f3dd0314c0f7b2291e5b200ac8c7c3b92584604051612e0791815260200190565b60405180910390a350505050565b5f818152600283016020526040812054819080612e4257612e3685856137cd565b92505f91506127369050565b600192509050612736565b5f82815260028401602052604081208290556115b384846137d8565b6001600160a01b038316612e93578060025f828254612e889190614389565b90915550612ef09050565b6001600160a01b0383165f9081526020819052604090205481811015612ed25783818360405163391434e360e21b815260040161072693929190614315565b6001600160a01b0384165f9081526020819052604090209082900390555b6001600160a01b038216612f0c57600280548290039055612f2a565b6001600160a01b0382165f9081526020819052604090208054820190555b816001600160a01b0316836001600160a01b03167fddf252ad1be2c89b69c2b068fc378daa952ba7f163c4a11628f55a4df523b3ef83604051612f6f91815260200190565b60405180910390a3505050565b5f610804826137e3565b5f8080612f9385856137ec565b5f81815260029690960160205260409095205494959350505050565b5f8181526002830160205260408120819055610c2383836137f7565b60605f612fd6613802565b5f848152600282016020526040812054919250036130075760405163d66ca67560e01b815260040160405180910390fd5b5f8381526002820160209081526040918290208054835181840281018401909452808452909183018282801561305a57602002820191905f5260205f20905b815481526020019060010190808311613046575b5050505050915050919050565b5f60248161307485613826565b90505f816001600160401b0381111561308f5761308f613c37565b6040519080825280601f01601f1916602001820160405280156130b9576020820181803683370190505b509050818360208301375f6130cc6138d3565b6002810154604051632c027b1360e21b81529192506001600160a01b03169063b009ec4c90613103908a9086908b9060040161455e565b6020604051808303815f875af115801561311f573d5f5f3e3d5ffd5b505050506040513d601f19601f8201168201806040525081019061314391906142ab565b979650505050505050565b5f60028260038111156131635761316361401d565b61316d91906145e8565b60ff166001149050919050565b5f5f5f61318786866138f7565b91509150815f036131ab578381816131a1576131a16144ed565b0492505050610c23565b8184116131c2576131c26003851502601118613913565b5f848688095f868103871696879004966002600389028118808a02820302808a02820302808a02820302808a02820302808a02820302808a02909103029181900381900460010185841190960395909502919093039390930492909217029150509392505050565b5f5f6132346138d3565b600181015460405163196d0b9b60e01b81529192506001600160a01b03169063196d0b9b9061326d908890339089908990600401614629565b6020604051808303815f875af1158015613289573d5f5f3e3d5ffd5b505050506040513d601f19601f820116820180604052508101906132ad91906142fe565b8154604051630f8e573b60e21b81529193506001600160a01b031690633e395cec906132df9085903390600401614661565b5f604051808303815f87803b1580156132f6575f5ffd5b505af1158015613308573d5f5f3e3d5ffd5b50505050509392505050565b5f61331d6138d3565b8054604051635ca4b5b160e11b81529192506001600160a01b03169063b9496b629061334f9086908690600401614661565b5f604051808303815f87803b158015613366575f5ffd5b505af1158015613378573d5f5f3e3d5ffd5b50505050505050565b5f5f82156133945750600160f81b613397565b505f5b5f6133a06138d3565b60018101546040516385362ee760e01b81529192506001600160a01b0316906385362ee7906133d790899089908790600401614678565b6020604051808303815f875af11580156133f3573d5f5f3e3d5ffd5b505050506040513d601f19601f82011682018060405250810190612c9991906142fe565b5f61080482613426575f613429565b60015b60ff165f6134f2565b5f5f82156134455750600160f81b613448565b505f5b5f6134516138d3565b600181015460405163d99882d560e01b81529192506001600160a01b03169063d99882d5906133d790899089908790600401614678565b5f5f821561349b5750600160f81b61349e565b505f5b5f6134a76138d3565b600181015460405163022f65e760e31b81529192506001600160a01b03169063117b2f38906133d790899089908790600401614678565b5f610c23836001600160a01b0384166137b6565b5f5f6134fc6138d3565b6001810154604051639cd07acb60e01b81529192506001600160a01b031690639cd07acb906135319087908790600401614698565b6020604051808303815f875af115801561354d573d5f5f3e3d5ffd5b505050506040513d601f19601f820116820180604052508101906115b391906142fe565b5f5f82156135845750600160f81b613587565b505f5b5f6135906138d3565b600181015460405163f77f3f1d60e01b81529192506001600160a01b03169063f77f3f1d906133d790899089908790600401614678565b5f5f6135d1613802565b9050806001015491505f6135e36138d3565b8054604051637d6e912360e11b81529192506001600160a01b03169063fadd2246906136139089906004016146ac565b5f604051808303815f87803b15801561362a575f5ffd5b505af115801561363c573d5f5f3e3d5ffd5b50508354604051633263b83b60e01b81526001600160a01b039091169250633263b83b915086906136759087908b908b906004016146be565b5f604051808303818588803b15801561368c575f5ffd5b505af115801561369e573d5f5f3e3d5ffd5b50505050506136ad8387613924565b600182018054905f6136be836146ef565b919050555050509392505050565b5f80806136d96012610cd6565b90505f8460048111156136ee576136ee61401d565b036136fe578092508291506137b0565b60038460048111156137125761371261401d565b036137245760175492508291506137b0565b60018460048111156137385761373861401d565b03613750576137468161397e565b92508091506137b0565b60028460048111156137645761376461401d565b0361377c576137728161397e565b92508291506137b0565b60048460048111156137905761379061401d565b036137b0576017546137aa906137a58361397e565b613aa4565b92508291505b50915091565b5f9081526001919091016020526040902054151590565b5f610c238383613ab3565b5f610c238383612cfc565b5f610804825490565b5f610c238383613abe565b5f610c238383613ae4565b7f5ea69329017273582817d320489fbd94f775580e90c092699ca6f3d12fdf7d0090565b80515f9081805b828110156138c7575f85828151811061384857613848614297565b6020026020010151601e6020811061386257613862614297565b1a60538111156138745761387461401d565b9050600981605381111561388a5761388a61401d565b60ff1610156138a55761389e602084614389565b92506138be565b60405163ce54a8d160e01b815260040160405180910390fd5b5060010161382d565b506115b3602082614389565b7fed8d60e34876f751cc8b014c560745351147d9de11b9347c854e881b128ea60090565b5f805f1983850993909202808410938190039390930393915050565b634e487b715f52806020526024601cfd5b5f61392d613802565b5f8481526002820160205260409020549091501561395e57604051633f06d22b60e01b815260040160405180910390fd5b5f838152600282016020908152604090912083516122b192850190613be2565b5f5f60085f9054906101000a90046001600160a01b03166001600160a01b031663f3cc69936040518163ffffffff1660e01b8152600401602060405180830381865afa1580156139d0573d5f5f3e3d5ffd5b505050506040513d601f19601f820116820180604052508101906139f49190614707565b61ffff1690505f613a8960095f9054906101000a90046001600160a01b03166001600160a01b0316634ff0876a6040518163ffffffff1660e01b8152600401602060405180830381865afa158015613a4e573d5f5f3e3d5ffd5b505050506040513d601f19601f82011682018060405250810190613a729190614501565b839063ffffffff908116906301e133809061317a16565b90506115b3613a9a82612710614389565b859061271061317a565b5f828218828411028218610c23565b5f610c2383836137b6565b5f825f018281548110613ad357613ad3614297565b905f5260205f200154905092915050565b5f8181526001830160205260408120548015613bbe575f613b066001836144a6565b85549091505f90613b19906001906144a6565b9050808214613b78575f865f018281548110613b3757613b37614297565b905f5260205f200154905080875f018481548110613b5757613b57614297565b5f918252602080832090910192909255918252600188019052604090208390555b8554869080613b8957613b89614722565b600190038181905f5260205f20015f90559055856001015f8681526020019081526020015f205f905560019350505050610804565b5f915050610804565b5080545f8255905f5260205f2090810190610af99190613c23565b828054828255905f5260205f20908101928215613c1b579160200282015b82811115613c1b578251825591602001919060010190613c00565b506129cb9291505b5b808211156129cb575f8155600101613c24565b634e487b7160e01b5f52604160045260245ffd5b604051601f8201601f191681016001600160401b0381118282101715613c7357613c73613c37565b604052919050565b5f6001600160401b03821115613c9357613c93613c37565b5060051b60200190565b6001600160a01b0381168114610af9575f5ffd5b5f60208284031215613cc1575f5ffd5b81356001600160401b03811115613cd6575f5ffd5b8201601f81018413613ce6575f5ffd5b8035613cf9613cf482613c7b565b613c4b565b8082825260208201915060208360051b850101925086831115613d1a575f5ffd5b6020840193505b82841015612c99578335613d3481613c9d565b825260209384019390910190613d21565b5f81518084528060208401602086015e5f602082860101526020601f19601f83011685010191505092915050565b602081525f610c236020830184613d45565b5f60208284031215613d95575f5ffd5b5035919050565b5f5f60408385031215613dad575f5ffd5b8235613db881613c9d565b946020939093013593505050565b5f60208284031215613dd6575f5ffd5b8135610c2381613c9d565b5f5f60408385031215613df2575f5ffd5b50508035926020909101359150565b6001600160a01b0391909116815260200190565b5f5f5f60608486031215613e27575f5ffd5b8335613e3281613c9d565b92506020840135613e4281613c9d565b929592945050506040919091013590565b60ff81168114610af9575f5ffd5b61ffff81168114610af9575f5ffd5b5f5f5f60608486031215613e82575f5ffd5b8335613e8d81613e53565b92506020840135613e9d81613e61565b91506040840135613ead81613e61565b809150509250925092565b8015158114610af9575f5ffd5b5f5f5f60608486031215613ed7575f5ffd5b833592506020840135613ee981613eb8565b915060408401356001600160401b03811115613f03575f5ffd5b8401601f81018613613f13575f5ffd5b8035613f21613cf482613c7b565b8082825260208201915060208360051b850101925088831115613f42575f5ffd5b602084015b83811015613fe05780356001600160401b03811115613f64575f5ffd5b8501603f81018b13613f74575f5ffd5b60208101356001600160401b03811115613f9057613f90613c37565b613fa3601f8201601f1916602001613c4b565b8181526040838301018d1015613fb7575f5ffd5b816040840160208301375f60208383010152808652505050602083019250602081019050613f47565b50809450505050509250925092565b5f5f60408385031215614000575f5ffd5b82359150602083013561401281613c9d565b809150509250929050565b634e487b7160e01b5f52602160045260245ffd5b60808101600586106140455761404561401d565b94815261ffff93841660208201529190921660408201526060015290565b5f5f83601f840112614073575f5ffd5b5081356001600160401b03811115614089575f5ffd5b6020830191508360208260061b8501011115612736575f5ffd5b5f5f5f604084860312156140b5575f5ffd5b83356001600160401b038111156140ca575f5ffd5b6140d686828701614063565b909790965060209590950135949350505050565b5f5f5f606084860312156140fc575f5ffd5b8335925060208401359150604084013560048110613ead575f5ffd5b5f5f5f6060848603121561412a575f5ffd5b83359250602084013561413c81613c9d565b91506040840135613ead81613c9d565b604080825283519082018190525f9060208501906060840190835b8181101561418e5783516001600160a01b0316835260209384019390920191600101614167565b5050838103602080860191909152855180835291810192508501905f5b818110156141c95782518452602093840193909201916001016141ab565b50919695505050505050565b5f5f5f5f604085870312156141e8575f5ffd5b84356001600160401b038111156141fd575f5ffd5b61420987828801614063565b90955093505060208501356001600160401b03811115614227575f5ffd5b8501601f81018713614237575f5ffd5b80356001600160401b0381111561424c575f5ffd5b87602082840101111561425d575f5ffd5b949793965060200194505050565b5f5f6040838503121561427c575f5ffd5b823561428781613c9d565b9150602083013561401281613c9d565b634e487b7160e01b5f52603260045260245ffd5b5f602082840312156142bb575f5ffd5b8151610c2381613eb8565b600181811c908216806142da57607f821691505b6020821081036142f857634e487b7160e01b5f52602260045260245ffd5b50919050565b5f6020828403121561430e575f5ffd5b5051919050565b6001600160a01b039390931683526020830191909152604082015260600190565b5f60208284031215614346575f5ffd5b8151610c2381613c9d565b6001600160a01b039384168152919092166020820152604081019190915260600190565b634e487b7160e01b5f52601160045260245ffd5b8082018082111561080457610804614375565b6001815b60018411156143d7578085048111156143bb576143bb614375565b60018416156143c957908102905b60019390931c9280026143a0565b935093915050565b5f826143ed57506001610804565b816143f957505f610804565b816001811461440f576002811461441957614435565b6001915050610804565b60ff84111561442a5761442a614375565b50506001821b610804565b5060208310610133831016604e8410600b8410161715614458575081810a610804565b6144645f19848461439c565b805f190482111561447757614477614375565b029392505050565b5f610c2360ff8416836143df565b6001600160a01b03929092168252602082015260400190565b8181038181111561080457610804614375565b5f602082840312156144c9575f5ffd5b8151610c2381613e53565b60ff828116828216039081111561080457610804614375565b634e487b7160e01b5f52601260045260245ffd5b5f60208284031215614511575f5ffd5b815163ffffffff81168114610c23575f5ffd5b5f8151808452602084019350602083015f5b82811015614554578151865260209586019590910190600101614536565b5093949350505050565b606081525f6145706060830186614524565b82810360208401526145828186613d45565b9050828103604084015280845180835260208301915060208160051b840101602087015f5b838110156145d957601f198684030185526145c3838351613d45565b60209586019590935091909101906001016145a7565b50909998505050505050505050565b5f60ff83168061460657634e487b7160e01b5f52601260045260245ffd5b8060ff84160691505092915050565b605481106146255761462561401d565b9052565b8481526001600160a01b03841660208201526080604082018190525f9061465290830185613d45565b90506126426060830184614615565b9182526001600160a01b0316602082015260400190565b92835260208301919091526001600160f81b031916604082015260600190565b82815260408101610c236020830184614615565b602081525f610c236020830184614524565b838152606060208201525f6146d66060830185614524565b905063ffffffff60e01b83166040830152949350505050565b5f6001820161470057614700614375565b5060010190565b5f60208284031215614717575f5ffd5b8151610c2381613e61565b634e487b7160e01b5f52603160045260245ffdfea2646970667358221220e3e8b0e85970b3c163a7b87d6c3d5b50059ec126937448aa6f010401749cd75964736f6c634300081c0033ed8d60e34876f751cc8b014c560745351147d9de11b9347c854e881b128ea600ed8d60e34876f751cc8b014c560745351147d9de11b9347c854e881b128ea601",
  "linkReferences": {},
  "deployedLinkReferences": {}
}