{
  "_format": "hh-sol-artifact-1",
  "contractName": "OrionEncryptedVault",
  "sourceName": "contracts/vaults/OrionEncryptedVault.sol",
  "abi": [
    {
      "inputs": [
        {
          "internalType": "address",
          "name": "vaultOwner",
          "type": "address"
        },
        {
          "internalType": "address",
          "name": "curator",
          "type": "address"
        },
        {
          "internalType": "contract IOrionConfig",
          "name": "configAddress",
          "type": "address"
        },
        {
          "internalType": "string",
          "name": "name",
          "type": "string"
        },
        {
          "internalType": "string",
          "name": "symbol",
          "type": "string"
        }
      ],
      "stateMutability": "nonpayable",
      "type": "constructor"
    },
    {
      "inputs": [],
      "name": "AlreadyRegistered",
      "type": "error"
    },
    {
      "inputs": [
        {
          "internalType": "address",
          "name": "asset",
          "type": "address"
        }
      ],
      "name": "AmountMustBeGreaterThanZero",
      "type": "error"
    },
    {
      "inputs": [
        {
          "internalType": "address",
          "name": "spender",
          "type": "address"
        },
        {
          "internalType": "uint256",
          "name": "allowance",
          "type": "uint256"
        },
        {
          "internalType": "uint256",
          "name": "needed",
          "type": "uint256"
        }
      ],
      "name": "ERC20InsufficientAllowance",
      "type": "error"
    },
    {
      "inputs": [
        {
          "internalType": "address",
          "name": "sender",
          "type": "address"
        },
        {
          "internalType": "uint256",
          "name": "balance",
          "type": "uint256"
        },
        {
          "internalType": "uint256",
          "name": "needed",
          "type": "uint256"
        }
      ],
      "name": "ERC20InsufficientBalance",
      "type": "error"
    },
    {
      "inputs": [
        {
          "internalType": "address",
          "name": "approver",
          "type": "address"
        }
      ],
      "name": "ERC20InvalidApprover",
      "type": "error"
    },
    {
      "inputs": [
        {
          "internalType": "address",
          "name": "receiver",
          "type": "address"
        }
      ],
      "name": "ERC20InvalidReceiver",
      "type": "error"
    },
    {
      "inputs": [
        {
          "internalType": "address",
          "name": "sender",
          "type": "address"
        }
      ],
      "name": "ERC20InvalidSender",
      "type": "error"
    },
    {
      "inputs": [
        {
          "internalType": "address",
          "name": "spender",
          "type": "address"
        }
      ],
      "name": "ERC20InvalidSpender",
      "type": "error"
    },
    {
      "inputs": [
        {
          "internalType": "address",
          "name": "receiver",
          "type": "address"
        },
        {
          "internalType": "uint256",
          "name": "assets",
          "type": "uint256"
        },
        {
          "internalType": "uint256",
          "name": "max",
          "type": "uint256"
        }
      ],
      "name": "ERC4626ExceededMaxDeposit",
      "type": "error"
    },
    {
      "inputs": [
        {
          "internalType": "address",
          "name": "receiver",
          "type": "address"
        },
        {
          "internalType": "uint256",
          "name": "shares",
          "type": "uint256"
        },
        {
          "internalType": "uint256",
          "name": "max",
          "type": "uint256"
        }
      ],
      "name": "ERC4626ExceededMaxMint",
      "type": "error"
    },
    {
      "inputs": [
        {
          "internalType": "address",
          "name": "owner",
          "type": "address"
        },
        {
          "internalType": "uint256",
          "name": "shares",
          "type": "uint256"
        },
        {
          "internalType": "uint256",
          "name": "max",
          "type": "uint256"
        }
      ],
      "name": "ERC4626ExceededMaxRedeem",
      "type": "error"
    },
    {
      "inputs": [
        {
          "internalType": "address",
          "name": "owner",
          "type": "address"
        },
        {
          "internalType": "uint256",
          "name": "assets",
          "type": "uint256"
        },
        {
          "internalType": "uint256",
          "name": "max",
          "type": "uint256"
        }
      ],
      "name": "ERC4626ExceededMaxWithdraw",
      "type": "error"
    },
    {
      "inputs": [],
      "name": "HandlesAlreadySavedForRequestID",
      "type": "error"
    },
    {
      "inputs": [
        {
          "internalType": "address",
          "name": "sender",
          "type": "address"
        },
        {
          "internalType": "uint256",
          "name": "balance",
          "type": "uint256"
        },
        {
          "internalType": "uint256",
          "name": "amount",
          "type": "uint256"
        }
      ],
      "name": "InsufficientFunds",
      "type": "error"
    },
    {
      "inputs": [],
      "name": "InvalidAddress",
      "type": "error"
    },
    {
      "inputs": [],
      "name": "InvalidArguments",
      "type": "error"
    },
    {
      "inputs": [],
      "name": "InvalidKMSSignatures",
      "type": "error"
    },
    {
      "inputs": [],
      "name": "InvalidUnderlyingDecimals",
      "type": "error"
    },
    {
      "inputs": [],
      "name": "NoHandleFoundForRequestID",
      "type": "error"
    },
    {
      "inputs": [],
      "name": "NotEnoughDepositRequest",
      "type": "error"
    },
    {
      "inputs": [],
      "name": "NotEnoughWithdrawRequest",
      "type": "error"
    },
    {
      "inputs": [],
      "name": "OrderIntentCannotBeEmpty",
      "type": "error"
    },
    {
      "inputs": [],
      "name": "ReentrancyGuardReentrantCall",
      "type": "error"
    },
    {
      "inputs": [],
      "name": "SynchronousCallDisabled",
      "type": "error"
    },
    {
      "inputs": [
        {
          "internalType": "address",
          "name": "token",
          "type": "address"
        }
      ],
      "name": "TokenAlreadyInOrder",
      "type": "error"
    },
    {
      "inputs": [
        {
          "internalType": "address",
          "name": "token",
          "type": "address"
        }
      ],
      "name": "TokenNotWhitelisted",
      "type": "error"
    },
    {
      "inputs": [],
      "name": "TransferFailed",
      "type": "error"
    },
    {
      "inputs": [],
      "name": "UnauthorizedAccess",
      "type": "error"
    },
    {
      "inputs": [],
      "name": "UnsupportedHandleType",
      "type": "error"
    },
    {
      "anonymous": false,
      "inputs": [
        {
          "indexed": true,
          "internalType": "address",
          "name": "owner",
          "type": "address"
        },
        {
          "indexed": true,
          "internalType": "address",
          "name": "spender",
          "type": "address"
        },
        {
          "indexed": false,
          "internalType": "uint256",
          "name": "value",
          "type": "uint256"
        }
      ],
      "name": "Approval",
      "type": "event"
    },
    {
      "anonymous": false,
      "inputs": [
        {
          "indexed": true,
          "internalType": "uint256",
          "name": "requestID",
          "type": "uint256"
        }
      ],
      "name": "DecryptionFulfilled",
      "type": "event"
    },
    {
      "anonymous": false,
      "inputs": [
        {
          "indexed": true,
          "internalType": "address",
          "name": "sender",
          "type": "address"
        },
        {
          "indexed": true,
          "internalType": "address",
          "name": "owner",
          "type": "address"
        },
        {
          "indexed": false,
          "internalType": "uint256",
          "name": "assets",
          "type": "uint256"
        },
        {
          "indexed": false,
          "internalType": "uint256",
          "name": "shares",
          "type": "uint256"
        }
      ],
      "name": "Deposit",
      "type": "event"
    },
    {
      "anonymous": false,
      "inputs": [
        {
          "indexed": true,
          "internalType": "address",
          "name": "user",
          "type": "address"
        },
        {
          "indexed": false,
          "internalType": "uint256",
          "name": "amount",
          "type": "uint256"
        }
      ],
      "name": "DepositProcessed",
      "type": "event"
    },
    {
      "anonymous": false,
      "inputs": [
        {
          "indexed": true,
          "internalType": "address",
          "name": "user",
          "type": "address"
        },
        {
          "indexed": false,
          "internalType": "uint256",
          "name": "amount",
          "type": "uint256"
        }
      ],
      "name": "DepositRequestCancelled",
      "type": "event"
    },
    {
      "anonymous": false,
      "inputs": [
        {
          "indexed": true,
          "internalType": "address",
          "name": "user",
          "type": "address"
        },
        {
          "indexed": false,
          "internalType": "uint256",
          "name": "amount",
          "type": "uint256"
        }
      ],
      "name": "DepositRequested",
      "type": "event"
    },
    {
      "anonymous": false,
      "inputs": [
        {
          "indexed": false,
          "internalType": "uint8",
          "name": "mode",
          "type": "uint8"
        },
        {
          "indexed": false,
          "internalType": "uint16",
          "name": "performanceFee",
          "type": "uint16"
        },
        {
          "indexed": false,
          "internalType": "uint16",
          "name": "managementFee",
          "type": "uint16"
        }
      ],
      "name": "FeeModelUpdated",
      "type": "event"
    },
    {
      "anonymous": false,
      "inputs": [
        {
          "indexed": true,
          "internalType": "address",
          "name": "curator",
          "type": "address"
        }
      ],
      "name": "OrderSubmitted",
      "type": "event"
    },
    {
      "anonymous": false,
      "inputs": [
        {
          "indexed": true,
          "internalType": "address",
          "name": "from",
          "type": "address"
        },
        {
          "indexed": true,
          "internalType": "address",
          "name": "to",
          "type": "address"
        },
        {
          "indexed": false,
          "internalType": "uint256",
          "name": "value",
          "type": "uint256"
        }
      ],
      "name": "Transfer",
      "type": "event"
    },
    {
      "anonymous": false,
      "inputs": [
        {
          "indexed": false,
          "internalType": "uint256",
          "name": "newTotalAssets",
          "type": "uint256"
        }
      ],
      "name": "VaultStateUpdated",
      "type": "event"
    },
    {
      "anonymous": false,
      "inputs": [
        {
          "indexed": true,
          "internalType": "address",
          "name": "sender",
          "type": "address"
        },
        {
          "indexed": true,
          "internalType": "address",
          "name": "receiver",
          "type": "address"
        },
        {
          "indexed": true,
          "internalType": "address",
          "name": "owner",
          "type": "address"
        },
        {
          "indexed": false,
          "internalType": "uint256",
          "name": "assets",
          "type": "uint256"
        },
        {
          "indexed": false,
          "internalType": "uint256",
          "name": "shares",
          "type": "uint256"
        }
      ],
      "name": "Withdraw",
      "type": "event"
    },
    {
      "anonymous": false,
      "inputs": [
        {
          "indexed": true,
          "internalType": "address",
          "name": "user",
          "type": "address"
        },
        {
          "indexed": false,
          "internalType": "uint256",
          "name": "shares",
          "type": "uint256"
        }
      ],
      "name": "WithdrawProcessed",
      "type": "event"
    },
    {
      "anonymous": false,
      "inputs": [
        {
          "indexed": true,
          "internalType": "address",
          "name": "user",
          "type": "address"
        },
        {
          "indexed": false,
          "internalType": "uint256",
          "name": "shares",
          "type": "uint256"
        }
      ],
      "name": "WithdrawRequestCancelled",
      "type": "event"
    },
    {
      "anonymous": false,
      "inputs": [
        {
          "indexed": true,
          "internalType": "address",
          "name": "user",
          "type": "address"
        },
        {
          "indexed": false,
          "internalType": "uint256",
          "name": "shares",
          "type": "uint256"
        }
      ],
      "name": "WithdrawRequested",
      "type": "event"
    },
    {
      "inputs": [],
      "name": "CURATOR_FEE_FACTOR",
      "outputs": [
        {
          "internalType": "uint16",
          "name": "",
          "type": "uint16"
        }
      ],
      "stateMutability": "view",
      "type": "function"
    },
    {
      "inputs": [],
      "name": "MAX_MANAGEMENT_FEE",
      "outputs": [
        {
          "internalType": "uint16",
          "name": "",
          "type": "uint16"
        }
      ],
      "stateMutability": "view",
      "type": "function"
    },
    {
      "inputs": [],
      "name": "MAX_PERFORMANCE_FEE",
      "outputs": [
        {
          "internalType": "uint16",
          "name": "",
          "type": "uint16"
        }
      ],
      "stateMutability": "view",
      "type": "function"
    },
    {
      "inputs": [],
      "name": "SHARE_DECIMALS",
      "outputs": [
        {
          "internalType": "uint8",
          "name": "",
          "type": "uint8"
        }
      ],
      "stateMutability": "view",
      "type": "function"
    },
    {
      "inputs": [],
      "name": "YEAR_IN_SECONDS",
      "outputs": [
        {
          "internalType": "uint32",
          "name": "",
          "type": "uint32"
        }
      ],
      "stateMutability": "view",
      "type": "function"
    },
    {
      "inputs": [
        {
          "internalType": "address",
          "name": "owner",
          "type": "address"
        },
        {
          "internalType": "address",
          "name": "spender",
          "type": "address"
        }
      ],
      "name": "allowance",
      "outputs": [
        {
          "internalType": "uint256",
          "name": "",
          "type": "uint256"
        }
      ],
      "stateMutability": "view",
      "type": "function"
    },
    {
      "inputs": [
        {
          "internalType": "address",
          "name": "spender",
          "type": "address"
        },
        {
          "internalType": "uint256",
          "name": "value",
          "type": "uint256"
        }
      ],
      "name": "approve",
      "outputs": [
        {
          "internalType": "bool",
          "name": "",
          "type": "bool"
        }
      ],
      "stateMutability": "nonpayable",
      "type": "function"
    },
    {
      "inputs": [],
      "name": "asset",
      "outputs": [
        {
          "internalType": "address",
          "name": "",
          "type": "address"
        }
      ],
      "stateMutability": "view",
      "type": "function"
    },
    {
      "inputs": [
        {
          "internalType": "address",
          "name": "account",
          "type": "address"
        }
      ],
      "name": "balanceOf",
      "outputs": [
        {
          "internalType": "uint256",
          "name": "",
          "type": "uint256"
        }
      ],
      "stateMutability": "view",
      "type": "function"
    },
    {
      "inputs": [
        {
          "internalType": "uint256",
          "name": "requestID",
          "type": "uint256"
        },
        {
          "internalType": "bool",
          "name": "decryptedInput",
          "type": "bool"
        },
        {
          "internalType": "bytes[]",
          "name": "signatures",
          "type": "bytes[]"
        }
      ],
      "name": "callbackDecryptSingleEbool",
      "outputs": [],
      "stateMutability": "nonpayable",
      "type": "function"
    },
    {
      "inputs": [
        {
          "internalType": "uint256",
          "name": "amount",
          "type": "uint256"
        }
      ],
      "name": "cancelDepositRequest",
      "outputs": [],
      "stateMutability": "nonpayable",
      "type": "function"
    },
    {
      "inputs": [
        {
          "internalType": "uint256",
          "name": "shares",
          "type": "uint256"
        }
      ],
      "name": "cancelWithdrawRequest",
      "outputs": [],
      "stateMutability": "nonpayable",
      "type": "function"
    },
    {
      "inputs": [],
      "name": "config",
      "outputs": [
        {
          "internalType": "contract IOrionConfig",
          "name": "",
          "type": "address"
        }
      ],
      "stateMutability": "view",
      "type": "function"
    },
    {
      "inputs": [
        {
          "internalType": "uint256",
          "name": "shares",
          "type": "uint256"
        }
      ],
      "name": "convertToAssets",
      "outputs": [
        {
          "internalType": "uint256",
          "name": "",
          "type": "uint256"
        }
      ],
      "stateMutability": "view",
      "type": "function"
    },
    {
      "inputs": [
        {
          "internalType": "uint256",
          "name": "shares",
          "type": "uint256"
        },
        {
          "internalType": "uint256",
          "name": "pointInTimeTotalAssets",
          "type": "uint256"
        },
        {
          "internalType": "enum Math.Rounding",
          "name": "rounding",
          "type": "uint8"
        }
      ],
      "name": "convertToAssetsWithPITTotalAssets",
      "outputs": [
        {
          "internalType": "uint256",
          "name": "",
          "type": "uint256"
        }
      ],
      "stateMutability": "view",
      "type": "function"
    },
    {
      "inputs": [
        {
          "internalType": "uint256",
          "name": "assets",
          "type": "uint256"
        }
      ],
      "name": "convertToShares",
      "outputs": [
        {
          "internalType": "uint256",
          "name": "",
          "type": "uint256"
        }
      ],
      "stateMutability": "view",
      "type": "function"
    },
    {
      "inputs": [],
      "name": "curator",
      "outputs": [
        {
          "internalType": "address",
          "name": "",
          "type": "address"
        }
      ],
      "stateMutability": "view",
      "type": "function"
    },
    {
      "inputs": [
        {
          "internalType": "uint256",
          "name": "activeTotalAssets",
          "type": "uint256"
        }
      ],
      "name": "curatorFee",
      "outputs": [
        {
          "internalType": "uint256",
          "name": "",
          "type": "uint256"
        }
      ],
      "stateMutability": "view",
      "type": "function"
    },
    {
      "inputs": [],
      "name": "decimals",
      "outputs": [
        {
          "internalType": "uint8",
          "name": "",
          "type": "uint8"
        }
      ],
      "stateMutability": "view",
      "type": "function"
    },
    {
      "inputs": [
        {
          "internalType": "uint256",
          "name": "",
          "type": "uint256"
        },
        {
          "internalType": "address",
          "name": "",
          "type": "address"
        }
      ],
      "name": "deposit",
      "outputs": [
        {
          "internalType": "uint256",
          "name": "",
          "type": "uint256"
        }
      ],
      "stateMutability": "pure",
      "type": "function"
    },
    {
      "inputs": [],
      "name": "feeModel",
      "outputs": [
        {
          "internalType": "enum OrionVault.CalcMode",
          "name": "mode",
          "type": "uint8"
        },
        {
          "internalType": "uint16",
          "name": "performanceFee",
          "type": "uint16"
        },
        {
          "internalType": "uint16",
          "name": "managementFee",
          "type": "uint16"
        },
        {
          "internalType": "uint256",
          "name": "highWaterMark",
          "type": "uint256"
        }
      ],
      "stateMutability": "view",
      "type": "function"
    },
    {
      "inputs": [],
      "name": "getIntent",
      "outputs": [
        {
          "internalType": "address[]",
          "name": "tokens",
          "type": "address[]"
        },
        {
          "internalType": "euint32[]",
          "name": "weights",
          "type": "bytes32[]"
        }
      ],
      "stateMutability": "view",
      "type": "function"
    },
    {
      "inputs": [],
      "name": "getPendingDeposits",
      "outputs": [
        {
          "internalType": "uint256",
          "name": "",
          "type": "uint256"
        }
      ],
      "stateMutability": "view",
      "type": "function"
    },
    {
      "inputs": [],
      "name": "getPendingWithdrawals",
      "outputs": [
        {
          "internalType": "uint256",
          "name": "",
          "type": "uint256"
        }
      ],
      "stateMutability": "view",
      "type": "function"
    },
    {
      "inputs": [],
      "name": "getPortfolio",
      "outputs": [
        {
          "internalType": "address[]",
          "name": "tokens",
          "type": "address[]"
        },
        {
          "internalType": "euint32[]",
          "name": "sharesPerAsset",
          "type": "bytes32[]"
        }
      ],
      "stateMutability": "view",
      "type": "function"
    },
    {
      "inputs": [
        {
          "internalType": "address",
          "name": "",
          "type": "address"
        }
      ],
      "name": "maxDeposit",
      "outputs": [
        {
          "internalType": "uint256",
          "name": "",
          "type": "uint256"
        }
      ],
      "stateMutability": "view",
      "type": "function"
    },
    {
      "inputs": [
        {
          "internalType": "address",
          "name": "",
          "type": "address"
        }
      ],
      "name": "maxMint",
      "outputs": [
        {
          "internalType": "uint256",
          "name": "",
          "type": "uint256"
        }
      ],
      "stateMutability": "view",
      "type": "function"
    },
    {
      "inputs": [
        {
          "internalType": "address",
          "name": "owner",
          "type": "address"
        }
      ],
      "name": "maxRedeem",
      "outputs": [
        {
          "internalType": "uint256",
          "name": "",
          "type": "uint256"
        }
      ],
      "stateMutability": "view",
      "type": "function"
    },
    {
      "inputs": [
        {
          "internalType": "address",
          "name": "owner",
          "type": "address"
        }
      ],
      "name": "maxWithdraw",
      "outputs": [
        {
          "internalType": "uint256",
          "name": "",
          "type": "uint256"
        }
      ],
      "stateMutability": "view",
      "type": "function"
    },
    {
      "inputs": [
        {
          "internalType": "uint256",
          "name": "",
          "type": "uint256"
        },
        {
          "internalType": "address",
          "name": "",
          "type": "address"
        }
      ],
      "name": "mint",
      "outputs": [
        {
          "internalType": "uint256",
          "name": "",
          "type": "uint256"
        }
      ],
      "stateMutability": "pure",
      "type": "function"
    },
    {
      "inputs": [],
      "name": "name",
      "outputs": [
        {
          "internalType": "string",
          "name": "",
          "type": "string"
        }
      ],
      "stateMutability": "view",
      "type": "function"
    },
    {
      "inputs": [
        {
          "internalType": "uint256",
          "name": "assets",
          "type": "uint256"
        }
      ],
      "name": "previewDeposit",
      "outputs": [
        {
          "internalType": "uint256",
          "name": "",
          "type": "uint256"
        }
      ],
      "stateMutability": "view",
      "type": "function"
    },
    {
      "inputs": [
        {
          "internalType": "uint256",
          "name": "shares",
          "type": "uint256"
        }
      ],
      "name": "previewMint",
      "outputs": [
        {
          "internalType": "uint256",
          "name": "",
          "type": "uint256"
        }
      ],
      "stateMutability": "view",
      "type": "function"
    },
    {
      "inputs": [
        {
          "internalType": "uint256",
          "name": "shares",
          "type": "uint256"
        }
      ],
      "name": "previewRedeem",
      "outputs": [
        {
          "internalType": "uint256",
          "name": "",
          "type": "uint256"
        }
      ],
      "stateMutability": "view",
      "type": "function"
    },
    {
      "inputs": [
        {
          "internalType": "uint256",
          "name": "assets",
          "type": "uint256"
        }
      ],
      "name": "previewWithdraw",
      "outputs": [
        {
          "internalType": "uint256",
          "name": "",
          "type": "uint256"
        }
      ],
      "stateMutability": "view",
      "type": "function"
    },
    {
      "inputs": [],
      "name": "processDepositRequests",
      "outputs": [],
      "stateMutability": "nonpayable",
      "type": "function"
    },
    {
      "inputs": [],
      "name": "processWithdrawRequests",
      "outputs": [],
      "stateMutability": "nonpayable",
      "type": "function"
    },
    {
      "inputs": [
        {
          "internalType": "uint256",
          "name": "",
          "type": "uint256"
        },
        {
          "internalType": "address",
          "name": "",
          "type": "address"
        },
        {
          "internalType": "address",
          "name": "",
          "type": "address"
        }
      ],
      "name": "redeem",
      "outputs": [
        {
          "internalType": "uint256",
          "name": "",
          "type": "uint256"
        }
      ],
      "stateMutability": "pure",
      "type": "function"
    },
    {
      "inputs": [
        {
          "internalType": "uint256",
          "name": "amount",
          "type": "uint256"
        }
      ],
      "name": "requestDeposit",
      "outputs": [],
      "stateMutability": "nonpayable",
      "type": "function"
    },
    {
      "inputs": [
        {
          "internalType": "uint256",
          "name": "shares",
          "type": "uint256"
        }
      ],
      "name": "requestWithdraw",
      "outputs": [],
      "stateMutability": "nonpayable",
      "type": "function"
    },
    {
      "inputs": [
        {
          "components": [
            {
              "internalType": "address",
              "name": "token",
              "type": "address"
            },
            {
              "internalType": "externalEuint32",
              "name": "weight",
              "type": "bytes32"
            }
          ],
          "internalType": "struct IOrionEncryptedVault.EncryptedIntent[]",
          "name": "intent",
          "type": "tuple[]"
        },
        {
          "internalType": "bytes",
          "name": "inputProof",
          "type": "bytes"
        }
      ],
      "name": "submitIntent",
      "outputs": [],
      "stateMutability": "nonpayable",
      "type": "function"
    },
    {
      "inputs": [],
      "name": "symbol",
      "outputs": [
        {
          "internalType": "string",
          "name": "",
          "type": "string"
        }
      ],
      "stateMutability": "view",
      "type": "function"
    },
    {
      "inputs": [],
      "name": "totalAssets",
      "outputs": [
        {
          "internalType": "uint256",
          "name": "",
          "type": "uint256"
        }
      ],
      "stateMutability": "view",
      "type": "function"
    },
    {
      "inputs": [],
      "name": "totalSupply",
      "outputs": [
        {
          "internalType": "uint256",
          "name": "",
          "type": "uint256"
        }
      ],
      "stateMutability": "view",
      "type": "function"
    },
    {
      "inputs": [
        {
          "internalType": "address",
          "name": "to",
          "type": "address"
        },
        {
          "internalType": "uint256",
          "name": "value",
          "type": "uint256"
        }
      ],
      "name": "transfer",
      "outputs": [
        {
          "internalType": "bool",
          "name": "",
          "type": "bool"
        }
      ],
      "stateMutability": "nonpayable",
      "type": "function"
    },
    {
      "inputs": [
        {
          "internalType": "address",
          "name": "from",
          "type": "address"
        },
        {
          "internalType": "address",
          "name": "to",
          "type": "address"
        },
        {
          "internalType": "uint256",
          "name": "value",
          "type": "uint256"
        }
      ],
      "name": "transferFrom",
      "outputs": [
        {
          "internalType": "bool",
          "name": "",
          "type": "bool"
        }
      ],
      "stateMutability": "nonpayable",
      "type": "function"
    },
    {
      "inputs": [
        {
          "internalType": "address",
          "name": "newCurator",
          "type": "address"
        }
      ],
      "name": "updateCurator",
      "outputs": [],
      "stateMutability": "nonpayable",
      "type": "function"
    },
    {
      "inputs": [
        {
          "internalType": "uint8",
          "name": "mode",
          "type": "uint8"
        },
        {
          "internalType": "uint16",
          "name": "performanceFee",
          "type": "uint16"
        },
        {
          "internalType": "uint16",
          "name": "managementFee",
          "type": "uint16"
        }
      ],
      "name": "updateFeeModel",
      "outputs": [],
      "stateMutability": "nonpayable",
      "type": "function"
    },
    {
      "inputs": [],
      "name": "updateHighWaterMark",
      "outputs": [],
      "stateMutability": "nonpayable",
      "type": "function"
    },
    {
      "inputs": [
        {
          "components": [
            {
              "internalType": "address",
              "name": "token",
              "type": "address"
            },
            {
              "internalType": "euint32",
              "name": "value",
              "type": "bytes32"
            }
          ],
          "internalType": "struct IOrionEncryptedVault.EncryptedPortfolio[]",
          "name": "portfolio",
          "type": "tuple[]"
        },
        {
          "internalType": "uint256",
          "name": "newTotalAssets",
          "type": "uint256"
        }
      ],
      "name": "updateVaultState",
      "outputs": [],
      "stateMutability": "nonpayable",
      "type": "function"
    },
    {
      "inputs": [
        {
          "internalType": "address[]",
          "name": "assets",
          "type": "address[]"
        }
      ],
      "name": "updateVaultWhitelist",
      "outputs": [],
      "stateMutability": "nonpayable",
      "type": "function"
    },
    {
      "inputs": [],
      "name": "vaultOwner",
      "outputs": [
        {
          "internalType": "address",
          "name": "",
          "type": "address"
        }
      ],
      "stateMutability": "view",
      "type": "function"
    },
    {
      "inputs": [
        {
          "internalType": "uint256",
          "name": "",
          "type": "uint256"
        },
        {
          "internalType": "address",
          "name": "",
          "type": "address"
        },
        {
          "internalType": "address",
          "name": "",
          "type": "address"
        }
      ],
      "name": "withdraw",
      "outputs": [
        {
          "internalType": "uint256",
          "name": "",
          "type": "uint256"
        }
      ],
      "stateMutability": "pure",
      "type": "function"
    }
  ],
  "bytecode": "0x60c060405234801561000f575f5ffd5b506040516152d53803806152d583398101604081905261002e9161088a565b8484848484826001600160a01b0316637158da7c6040518163ffffffff1660e01b8152600401602060405180830381865afa15801561006f573d5f5f3e3d5ffd5b505050506040513d601f19601f820116820180604052508101906100939190610928565b8282610138610133604080516080810182525f80825260208201819052918101829052606081019190915250604080516080810182527350157cffd6bbfa2dece204a89ec419c23ef5755d815273cd3ab3bd6bcc0c0bf3e27912a92043e817b1cf696020820152731364cbbf2cdf5032c47d8226a6f6fbd2afcdacac9181019190915273901f8942346f7ab3a01f6d7613119bca447bb030606082015290565b6103f5565b61015573a02cda4ca3a71d7c46997716f4283aa851c288126104ae565b600361016183826109c7565b50600461016e82826109c7565b5050505f5f610182836104eb60201b60201c565b9150915081610192576012610194565b805b60ff1660a05250506001600160a01b03908116608052600160055584166101ce5760405163e6c4247b60e01b815260040160405180910390fd5b6001600160a01b0383166101f55760405163e6c4247b60e01b815260040160405180910390fd5b600780546001600160a01b038088166001600160a01b031992831617909255600880548784169083161790556006805492861692909116821790555f600b8190556012819055601381905560408051631c56369f60e21b81529051919291637158da7c916004808201926020929091908290030181865afa15801561027c573d5f5f3e3d5ffd5b505050506040513d601f19601f820116820180604052508101906102a09190610928565b6001600160a01b031663313ce5676040518163ffffffff1660e01b8152600401602060405180830381865afa1580156102db573d5f5f3e3d5ffd5b505050506040513d601f19601f820116820180604052508101906102ff9190610a81565b9050601260ff8216111561032657604051631c03248960e11b815260040160405180910390fd5b6040805160808101909152805f81525f6020820181905260408201526060016103516012600a610bac565b9052805160148054909190829060ff1916600183600381111561037657610376610aa1565b021790555060208201518154604084015161ffff90811663010000000264ffff0000001991909316610100021664ffffffff0019909116171781556060909101516001909101556103c56105c1565b5050505050506103da5f61069660201b60201c565b601b556103e760016106ae565b601c5550610cdd9350505050565b80515f5160206152955f395f51905f5280546001600160a01b03199081166001600160a01b039384161790915560208301515f5160206152b55f395f51905f528054831691841691909117905560408301517fed8d60e34876f751cc8b014c560745351147d9de11b9347c854e881b128ea6028054831691841691909117905560608301517fed8d60e34876f751cc8b014c560745351147d9de11b9347c854e881b128ea6038054909216921691909117905550565b50565b7f5ea69329017273582817d320489fbd94f775580e90c092699ca6f3d12fdf7d0080546001600160a01b0319166001600160a01b03831617905550565b60408051600481526024810182526020810180516001600160e01b031663313ce56760e01b17905290515f918291829182916001600160a01b0387169161053191610bba565b5f60405180830381855afa9150503d805f8114610569576040519150601f19603f3d011682016040523d82523d5f602084013e61056e565b606091505b509150915081801561058257506020815110155b156105b5575f8180602001905181019061059c9190610bd0565b905060ff81116105b3576001969095509350505050565b505b505f9485945092505050565b60065460408051636c366a2760e11b815290515f926001600160a01b03169163d86cd44e91600480830192869291908290030181865afa158015610607573d5f5f3e3d5ffd5b505050506040513d5f823e601f3d908101601f1916820160405261062e9190810190610be7565b90505f5b8151811015610692575f61066983838151811061065157610651610c99565b602002602001015160096106c960201b90919060201c565b90508061068957604051630ea075bf60e21b815260040160405180910390fd5b50600101610632565b5050565b5f6106a863ffffffff831660046106e4565b92915050565b5f6106a8826106bd575f6106c0565b60015b60ff165f6106e4565b5f6106dd836001600160a01b03841661077b565b9392505050565b5f5160206152b55f395f51905f5254604051639cd07acb60e01b81525f915f5160206152955f395f51905f52916001600160a01b0390911690639cd07acb906107339087908790600401610cad565b6020604051808303815f875af115801561074f573d5f5f3e3d5ffd5b505050506040513d601f19601f820116820180604052508101906107739190610bd0565b949350505050565b5f8181526001830160205260408120546107c057508154600181810184555f8481526020808220909301849055845484825282860190935260409020919091556106a8565b505f6106a8565b6001600160a01b03811681146104ab575f5ffd5b634e487b7160e01b5f52604160045260245ffd5b604051601f8201601f191681016001600160401b0381118282101715610817576108176107db565b604052919050565b5f82601f83011261082e575f5ffd5b81516001600160401b03811115610847576108476107db565b61085a601f8201601f19166020016107ef565b81815284602083860101111561086e575f5ffd5b8160208501602083015e5f918101602001919091529392505050565b5f5f5f5f5f60a0868803121561089e575f5ffd5b85516108a9816107c7565b60208701519095506108ba816107c7565b60408701519094506108cb816107c7565b60608701519093506001600160401b038111156108e6575f5ffd5b6108f28882890161081f565b608088015190935090506001600160401b0381111561090f575f5ffd5b61091b8882890161081f565b9150509295509295909350565b5f60208284031215610938575f5ffd5b81516106dd816107c7565b600181811c9082168061095757607f821691505b60208210810361097557634e487b7160e01b5f52602260045260245ffd5b50919050565b601f8211156109c257805f5260205f20601f840160051c810160208510156109a05750805b601f840160051c820191505b818110156109bf575f81556001016109ac565b50505b505050565b81516001600160401b038111156109e0576109e06107db565b6109f4816109ee8454610943565b8461097b565b6020601f821160018114610a26575f8315610a0f5750848201515b5f19600385901b1c1916600184901b1784556109bf565b5f84815260208120601f198516915b82811015610a555787850151825560209485019460019092019101610a35565b5084821015610a7257868401515f19600387901b60f8161c191681555b50505050600190811b01905550565b5f60208284031215610a91575f5ffd5b815160ff811681146106dd575f5ffd5b634e487b7160e01b5f52602160045260245ffd5b634e487b7160e01b5f52601160045260245ffd5b6001815b6001841115610b0457808504811115610ae857610ae8610ab5565b6001841615610af657908102905b60019390931c928002610acd565b935093915050565b5f82610b1a575060016106a8565b81610b2657505f6106a8565b8160018114610b3c5760028114610b4657610b62565b60019150506106a8565b60ff841115610b5757610b57610ab5565b50506001821b6106a8565b5060208310610133831016604e8410600b8410161715610b85575081810a6106a8565b610b915f198484610ac9565b805f1904821115610ba457610ba4610ab5565b029392505050565b5f6106dd60ff841683610b0c565b5f82518060208501845e5f920191825250919050565b5f60208284031215610be0575f5ffd5b5051919050565b5f60208284031215610bf7575f5ffd5b81516001600160401b03811115610c0c575f5ffd5b8201601f81018413610c1c575f5ffd5b80516001600160401b03811115610c3557610c356107db565b8060051b610c45602082016107ef565b91825260208184018101929081019087841115610c60575f5ffd5b6020850194505b83851015610c8e5784519250610c7c836107c7565b82825260209485019490910190610c67565b979650505050505050565b634e487b7160e01b5f52603260045260245ffd5b8281526040810160548310610cd057634e487b7160e01b5f52602160045260245ffd5b8260208301529392505050565b60805160a05161459a610cfb5f395f50505f610e45015261459a5ff3fe608060405234801561000f575f5ffd5b5060043610610265575f3560e01c806301e1d1141461026957806303d448541461028057806306fdde031461029557806307a2d13a146102aa578063095ea7b3146102bd5780630a28a477146102e05780630c6a62dd146102f35780630d1e66671461030657806318160ddd146103195780631f52692b1461032157806323b872dd146103415780632dae296714610354578063313ce5671461035c57806333fdc5921461037157806338d52e0f146103795780633ab6d27c14610381578063402d267d146103945780634cdad506146102aa57806358df8301146103a85780636e553f65146103bb57806370a08231146103ce57806373d8057d146103e1578063745400c9146103fd5780637847ea531461041057806379502c551461043057806394bf804d146103bb57806395d89b411461044357806397ee11441461044b5780639908840c146104815780639adb29811461048a578063a68a52671461049d578063a9059cbb146104b0578063aa9d3a60146104c3578063b3d7f6b9146104cb578063b460af94146104de578063b6eba653146104ec578063ba087652146104de578063bdca916514610502578063c0b568e11461050b578063c37fc8a81461051e578063c392e58c14610526578063c63d75b614610394578063c6e6f59214610539578063cce4705b1461054c578063ce96cb771461055f578063d1699c2614610572578063d3d034581461057a578063d853365f14610582578063d905777e1461058a578063dd62ed3e1461059d578063e51a85f6146105b0578063e66f53b7146105c3578063ef8b30f714610539575b5f5ffd5b600b545b6040519081526020015b60405180910390f35b61029361028e366004613aeb565b6105d6565b005b61029d610706565b6040516102779190613bad565b61026d6102b8366004613bbf565b610796565b6102d06102cb366004613bd6565b6107a7565b6040519015158152602001610277565b61026d6102ee366004613bbf565b6107be565b610293610301366004613c00565b6107ca565b610293610314366004613bbf565b61083e565b60025461026d565b600754610334906001600160a01b031681565b6040516102779190613c1b565b6102d061034f366004613c2f565b610a99565b610293610abe565b60125b60405160ff9091168152602001610277565b610293610b7e565b610334610e43565b61029361038f366004613c8a565b610e67565b61026d6103a2366004613c00565b505f1990565b6102936103b6366004613cdf565b610fb5565b61026d6103c9366004613e09565b610fd4565b61026d6103dc366004613c00565b610fee565b6103ea61271081565b60405161ffff9091168152602001610277565b61029361040b366004613bbf565b611008565b61041b6301e1338081565b60405163ffffffff9091168152602001610277565b600654610334906001600160a01b031681565b61029d6111ca565b6014546015546104719160ff81169161ffff610100830481169263010000009004169084565b6040516102779493929190613e4b565b6103ea61012c81565b610293610498366004613ebd565b6111d9565b61026d6104ab366004613f04565b611406565b6102d06104be366004613bd6565b611446565b610293611453565b61026d6104d9366004613bbf565b6117b5565b61026d6103c9366004613f32565b6104f46117c1565b604051610277929190613f66565b6103ea610bb881565b610293610519366004613bbf565b611942565b60135461026d565b610293610534366004613fef565b611ae4565b61026d610547366004613bbf565b61206f565b61029361055a366004613bbf565b61207a565b61026d61056d366004613c00565b61221f565b60125461026d565b6104f4612232565b61035f601281565b61026d610598366004613c00565b612396565b61026d6105ab366004614085565b6123a0565b61026d6105be366004613bbf565b6123ca565b600854610334906001600160a01b031681565b6007546001600160a01b0316331461060157604051631a27eac360e11b815260040160405180910390fd5b61060b60096123e7565b5f5b8151811015610702575f828281518110610629576106296140b1565b6020908102919091010151600654604051633af32abf60e01b81529192506001600160a01b031690633af32abf90610665908490600401613c1b565b602060405180830381865afa158015610680573d5f5f3e3d5ffd5b505050506040513d601f19601f820116820180604052508101906106a491906140c5565b6106cc578060405163751dff9760e11b81526004016106c39190613c1b565b60405180910390fd5b5f6106d86009836123f0565b9050806106f857604051630ea075bf60e21b815260040160405180910390fd5b505060010161060d565b5050565b606060038054610715906140e0565b80601f0160208091040260200160405190810160405280929190818152602001828054610741906140e0565b801561078c5780601f106107635761010080835404028352916020019161078c565b820191905f5260205f20905b81548152906001019060200180831161076f57829003601f168201915b5050505050905090565b5f6107a1825f612404565b92915050565b5f336107b4818585612445565b5060019392505050565b5f6107a1826001612457565b6007546001600160a01b031633146107f557604051631a27eac360e11b815260040160405180910390fd5b6001600160a01b03811661081c5760405163e6c4247b60e01b815260040160405180910390fd5b600880546001600160a01b0319166001600160a01b0392909216919091179055565b610846612489565b805f0361086f57610855610e43565b604051636b30633560e01b81526004016106c39190613c1b565b5f610878610e43565b6001600160a01b03166370a08231336040518263ffffffff1660e01b81526004016108a39190613c1b565b602060405180830381865afa1580156108be573d5f5f3e3d5ffd5b505050506040513d601f19601f820116820180604052508101906108e29190614112565b90508082111561090b57338183604051632e2a182f60e11b81526004016106c393929190614129565b5f610914610e43565b6001600160a01b03166323b872dd3360065f9054906101000a90046001600160a01b03166001600160a01b0316633a0dad8e6040518163ffffffff1660e01b8152600401602060405180830381865afa158015610973573d5f5f3e3d5ffd5b505050506040513d601f19601f82011682018060405250810190610997919061414a565b866040518463ffffffff1660e01b81526004016109b693929190614165565b6020604051808303815f875af11580156109d2573d5f5f3e3d5ffd5b505050506040513d601f19601f820116820180604052508101906109f691906140c5565b905080610a16576040516312171d8360e31b815260040160405180910390fd5b5f610a22600c336124b3565b9150610a3d905033610a34868461419d565b600c91906124d9565b508360125f828254610a4f919061419d565b909155505060405184815233907f08d79f77ab5f78e7e780abb1f7ac9e9923340d5bae78f6e83e7999905b248ea29060200160405180910390a2505050610a966001600555565b50565b5f33610aa68582856124ee565b610ab1858585612539565b60019150505b9392505050565b60065f9054906101000a90046001600160a01b03166001600160a01b0316633a0dad8e6040518163ffffffff1660e01b8152600401602060405180830381865afa158015610b0e573d5f5f3e3d5ffd5b505050506040513d601f19601f82011682018060405250810190610b32919061414a565b6001600160a01b0316336001600160a01b031614610b6357604051631a27eac360e11b815260040160405180910390fd5b5f610b6c612596565b601554909150811115610a9657601555565b60065f9054906101000a90046001600160a01b03166001600160a01b0316633a0dad8e6040518163ffffffff1660e01b8152600401602060405180830381865afa158015610bce573d5f5f3e3d5ffd5b505050506040513d601f19601f82011682018060405250810190610bf2919061414a565b6001600160a01b0316336001600160a01b031614610c2357604051631a27eac360e11b815260040160405180910390fd5b610c2b612489565b5f610c36600c61269e565b90505f8163ffffffff166001600160401b03811115610c5757610c57613a71565b604051908082528060200260200182016040528015610c80578160200160208202803683370190505b5090505f8263ffffffff166001600160401b03811115610ca257610ca2613a71565b604051908082528060200260200182016040528015610ccb578160200160208202803683370190505b5090505f5b8363ffffffff168163ffffffff161015610d65575f80610cfa600c63ffffffff808616906126a816565b9150915081858463ffffffff1681518110610d1757610d176140b1565b60200260200101906001600160a01b031690816001600160a01b03168152505080848463ffffffff1681518110610d5057610d506140b1565b60209081029190910101525050600101610cd0565b505f5b8363ffffffff168163ffffffff161015610e32575f838263ffffffff1681518110610d9557610d956140b1565b602002602001015190505f838363ffffffff1681518110610db857610db86140b1565b602002602001015190505f610dcc8261206f565b9050610dd9600c846126b6565b50610de483826126ca565b826001600160a01b03167f85a190caa61692b36b63a55e069330d18ab9af179fed7a25c16a4262bc63b7d283604051610e1f91815260200190565b60405180910390a2505050600101610d68565b50505f60125550506001600555565b565b7f000000000000000000000000000000000000000000000000000000000000000090565b6007546001600160a01b03163314610e9257604051631a27eac360e11b815260040160405180910390fd5b600360ff84161115610eb7576040516317dbc4cb60e21b815260040160405180910390fd5b610bb861ffff83161115610ede576040516317dbc4cb60e21b815260040160405180910390fd5b61012c61ffff82161115610f05576040516317dbc4cb60e21b815260040160405180910390fd5b8260ff166003811115610f1a57610f1a613e37565b6014805460ff19166001836003811115610f3657610f36613e37565b02179055506014805464ffffffff00191661010061ffff85811691820264ffff0000001916929092176301000000928516928302179092556040805160ff8716815260208101939093528201527fd24f39e523bfa412fa391702710dc62e1c82d87a8e83228a37c42be1b4870f459060600160405180910390a1505050565b610fbf83826126fe565b50601d805460ff191691151591909117905550565b5f60405163125ad87760e31b815260040160405180910390fd5b6001600160a01b03165f9081526020819052604090205490565b805f0361102a5730604051636b30633560e01b81526004016106c39190613c1b565b5f61103433610fee565b90508082111561105d57338183604051632e2a182f60e11b81526004016106c393929190614129565b60065460408051631d06d6c760e11b815290515f9230926323b872dd9233926001600160a01b031691633a0dad8e9160048083019260209291908290030181865afa1580156110ae573d5f5f3e3d5ffd5b505050506040513d601f19601f820116820180604052508101906110d2919061414a565b866040518463ffffffff1660e01b81526004016110f193929190614165565b6020604051808303815f875af115801561110d573d5f5f3e3d5ffd5b505050506040513d601f19601f8201168201806040525081019061113191906140c5565b905080611151576040516312171d8360e31b815260040160405180910390fd5b5f61115d600f336124b3565b915061117890503361116f868461419d565b600f91906124d9565b508360135f82825461118a919061419d565b909155505060405184815233907ff7774b688d56120b783560a913ee60792a73dfd511812b7be5eccf10d08c66899060200160405180910390a250505050565b606060048054610715906140e0565b60065f9054906101000a90046001600160a01b03166001600160a01b0316633a0dad8e6040518163ffffffff1660e01b8152600401602060405180830381865afa158015611229573d5f5f3e3d5ffd5b505050506040513d601f19601f8201168201806040525081019061124d919061414a565b6001600160a01b0316336001600160a01b03161461127e57604051631a27eac360e11b815260040160405180910390fd5b6017545f5b8161ffff168161ffff1610156112dc57601b5460165f60178461ffff16815481106112b0576112b06140b1565b5f9182526020808320909101546001600160a01b03168352820192909252604001902055600101611283565b506112e860175f613a01565b5f5b8161ffff168161ffff1610156113c75784848261ffff16818110611310576113106140b1565b9050604002016020013560165f87878561ffff16818110611333576113336140b1565b6113499260206040909202019081019150613c00565b6001600160a01b0316815260208101919091526040015f20556017858561ffff841681811061137a5761137a6140b1565b6113909260206040909202019081019150613c00565b8154600180820184555f93845260209093200180546001600160a01b0319166001600160a01b0392909216919091179055016112ea565b50600b8290556040518281527f5e1ff954b5e5257e9ee5d4cb07059e8f5e69b1aaaf9911e5d8d90a6894de9c219060200160405180910390a150505050565b5f61143e61141584600161419d565b61141d612765565b61142890600a614293565b600254611435919061419d565b869190856127db565b949350505050565b5f336107b4818585612539565b60065f9054906101000a90046001600160a01b03166001600160a01b0316633a0dad8e6040518163ffffffff1660e01b8152600401602060405180830381865afa1580156114a3573d5f5f3e3d5ffd5b505050506040513d601f19601f820116820180604052508101906114c7919061414a565b6001600160a01b0316336001600160a01b0316146114f857604051631a27eac360e11b815260040160405180910390fd5b611500612489565b5f61150b600f61269e565b90505f8163ffffffff166001600160401b0381111561152c5761152c613a71565b604051908082528060200260200182016040528015611555578160200160208202803683370190505b5090505f8263ffffffff166001600160401b0381111561157757611577613a71565b6040519080825280602002602001820160405280156115a0578160200160208202803683370190505b5090505f5b8363ffffffff168163ffffffff16101561163a575f806115cf600f63ffffffff808616906126a816565b9150915081858463ffffffff16815181106115ec576115ec6140b1565b60200260200101906001600160a01b031690816001600160a01b03168152505080848463ffffffff1681518110611625576116256140b1565b602090810291909101015250506001016115a5565b505f60138190555b8363ffffffff168163ffffffff1610156117a7575f838263ffffffff168151811061166f5761166f6140b1565b602002602001015190505f838363ffffffff1681518110611692576116926140b1565b602002602001015190506116b082600f6126b690919063ffffffff16565b506116bb3082612826565b5f6116c582610796565b90506116cf610e43565b6001600160a01b031663a9059cbb84836040518363ffffffff1660e01b81526004016116fc9291906142a1565b6020604051808303815f875af1158015611718573d5f5f3e3d5ffd5b505050506040513d601f19601f8201168201806040525081019061173c91906140c5565b611759576040516312171d8360e31b815260040160405180910390fd5b826001600160a01b03167f44b2ff9ffcefe2052a8afdbed44a04bf3db4592ae90c6b96c818bd28573e41e88360405161179491815260200190565b60405180910390a2505050600101611642565b50505050610e416001600555565b5f6107a1826001612404565b601954606090819061ffff81166001600160401b038111156117e5576117e5613a71565b60405190808252806020026020018201604052801561180e578160200160208202803683370190505b5092508061ffff166001600160401b0381111561182d5761182d613a71565b604051908082528060200260200182016040528015611856578160200160208202803683370190505b5091505f5b8161ffff168161ffff16101561193c5760198161ffff1681548110611882576118826140b1565b905f5260205f20015f9054906101000a90046001600160a01b0316848261ffff16815181106118b3576118b36140b1565b60200260200101906001600160a01b031690816001600160a01b03168152505060185f60198361ffff16815481106118ed576118ed6140b1565b5f9182526020808320909101546001600160a01b031683528201929092526040019020548351849061ffff8416908110611929576119296140b1565b602090810291909101015260010161185b565b50509091565b61194a612489565b805f0361195957610855610e43565b5f611965600c336124b3565b91505081811015611989576040516332194fd360e21b815260040160405180910390fd5b60065f9054906101000a90046001600160a01b03166001600160a01b0316633a0dad8e6040518163ffffffff1660e01b8152600401602060405180830381865afa1580156119d9573d5f5f3e3d5ffd5b505050506040513d601f19601f820116820180604052508101906119fd919061414a565b6001600160a01b03166351edffb133846040518363ffffffff1660e01b8152600401611a2a9291906142a1565b5f604051808303815f87803b158015611a41575f5ffd5b505af1158015611a53573d5f5f3e3d5ffd5b505050505f8282611a6491906142ba565b9050805f03611a7e57611a78600c336126b6565b50611a8c565b611a8a600c33836124d9565b505b8260125f828254611a9d91906142ba565b909155505060405183815233907f96a9a6886cdf3047a125454218a23d3961fd3a78643123b248a9d106d0ac94fd906020015b60405180910390a25050610a966001600555565b6008546001600160a01b03163314611b0f57604051631a27eac360e11b815260040160405180910390fd5b611b17612489565b5f839003611b3857604051631121aa8d60e01b815260040160405180910390fd5b601b5483905f61ffff83166001600160401b03811115611b5a57611b5a613a71565b604051908082528060200260200182016040528015611b83578160200160208202803683370190505b5090505f8361ffff166001600160401b03811115611ba357611ba3613a71565b604051908082528060200260200182016040528015611bcc578160200160208202803683370190505b50601c549091505f61ffff86166001600160401b03811115611bf057611bf0613a71565b604051908082528060200260200182016040528015611c19578160200160208202803683370190505b5090505f5b8661ffff168161ffff161015611df0575f8b8b8361ffff16818110611c4557611c456140b1565b611c5b9260206040909202019081019150613c00565b905080838361ffff1681518110611c7457611c746140b1565b60200260200101906001600160a01b031690816001600160a01b0316815250505f611cf38d8d8561ffff16818110611cae57611cae6140b1565b905060400201602001358c8c8080601f0160208091040260200160405190810160405280939291908181526020018383808284375f9201919091525061285a92505050565b9050611cfe81612867565b505f611d0c82601b54612876565b9050611d1886826128a4565b6001600160a01b0384165f908152601a602052604090205490965060ff1615611d5657826040516346bdabe160e01b81526004016106c39190613c1b565b6001600160a01b0383165f908152601a60205260409020805460ff1916600117905587518390899061ffff8716908110611d9257611d926140b1565b60200260200101906001600160a01b031690816001600160a01b03168152505081878561ffff1681518110611dc957611dc96140b1565b602002602001018181525050611ddf89836128d2565b98505060019092019150611c1e9050565b50611dfa81612900565b5f611e8260065f9054906101000a90046001600160a01b03166001600160a01b031663d1717c7d6040518163ffffffff1660e01b8152600401602060405180830381865afa158015611e4e573d5f5f3e3d5ffd5b505050506040513d601f19601f82011682018060405250810190611e7291906142cd565b611e7d90600a614293565b612978565b90505f611e8f878361298a565b90505f611e9c85836128a4565b9050611ea781612867565b506040805160018082528183019092525f916020808301908036833701905050905081815f81518110611edc57611edc6140b1565b6020908102919091010152611ef8816358df830160e01b6129b8565b505f5b60195461ffff9081169082161015611f5657601b5460185f60198461ffff1681548110611f2a57611f2a6140b1565b5f9182526020808320909101546001600160a01b03168352820192909252604001902055600101611efb565b50611f6260195f613a01565b5f5b8a61ffff168161ffff16101561202a575f898261ffff1681518110611f8b57611f8b6140b1565b60200260200101519050888261ffff1681518110611fab57611fab6140b1565b6020908102919091018101516001600160a01b039092165f818152601883526040808220949094556019805460018181019092557f944998273e477b495144fb8794c914197f3ccb46be2900f4698fd0ef743c96950180546001600160a01b03191684179055918152601a909252919020805460ff1916905501611f64565b5060405133907f2d47a742b8d7df7c1fc5a9a631b206b364e6cb2722490759f63bb3ab14b132e0905f90a2505050505050505050506120696001600555565b50505050565b5f6107a1825f612457565b612082612489565b805f036120a45730604051636b30633560e01b81526004016106c39190613c1b565b5f6120b0600f336124b3565b915050818110156120d4576040516312ea1f4960e11b815260040160405180910390fd5b60065f9054906101000a90046001600160a01b03166001600160a01b0316633a0dad8e6040518163ffffffff1660e01b8152600401602060405180830381865afa158015612124573d5f5f3e3d5ffd5b505050506040513d601f19601f82011682018060405250810190612148919061414a565b6001600160a01b031663be186b2033846040518363ffffffff1660e01b81526004016121759291906142a1565b5f604051808303815f87803b15801561218c575f5ffd5b505af115801561219e573d5f5f3e3d5ffd5b505050505f82826121af91906142ba565b9050805f036121c9576121c3600f336126b6565b506121d7565b6121d5600f33836124d9565b505b8260135f8282546121e891906142ba565b909155505060405183815233907f9cf37535785001dcc9767688232fcbc8698b3002d1207b50bc2afec3ff8934dc90602001611ad0565b5f6107a161222c83610fee565b5f612404565b601754606090819061ffff81166001600160401b0381111561225657612256613a71565b60405190808252806020026020018201604052801561227f578160200160208202803683370190505b5092508061ffff166001600160401b0381111561229e5761229e613a71565b6040519080825280602002602001820160405280156122c7578160200160208202803683370190505b5091505f5b8161ffff168161ffff16101561193c575f60178261ffff16815481106122f4576122f46140b1565b905f5260205f20015f9054906101000a90046001600160a01b0316905080858361ffff1681518110612328576123286140b1565b60200260200101906001600160a01b031690816001600160a01b03168152505060165f826001600160a01b03166001600160a01b031681526020019081526020015f2054848361ffff1681518110612382576123826140b1565b6020908102919091010152506001016122cc565b5f6107a182610fee565b6001600160a01b039182165f90815260016020908152604080832093909416825291909152205490565b5f6123d4826129c4565b6123dd83612a8b565b6107a1919061419d565b610a9681612aaf565b5f610ab7836001600160a01b038416612b08565b5f610ab7612411600b5490565b61241c90600161419d565b612424612765565b61242f90600a614293565b60025461243c919061419d565b859190856127db565b6124528383836001612b4f565b505050565b5f610ab7612463612765565b61246e90600a614293565b60025461247b919061419d565b600b5461243c90600161419d565b6002600554036124ac57604051633ee5aeb560e01b815260040160405180910390fd5b6002600555565b5f8080806124ca866001600160a01b038716612c21565b909450925050505b9250929050565b5f61143e846001600160a01b03851684612c59565b5f6124f984846123a0565b90505f19811015612069578181101561252b57828183604051637dc7a0d960e11b81526004016106c393929190614129565b61206984848484035f612b4f565b6001600160a01b038316612562575f604051634b637e8f60e11b81526004016106c39190613c1b565b6001600160a01b03821661258b575f60405163ec442f0560e01b81526004016106c39190613c1b565b612452838383612c75565b5f5f6125a160025490565b9050805f0361261b57306001600160a01b031663313ce5676040518163ffffffff1660e01b8152600401602060405180830381865afa1580156125e6573d5f5f3e3d5ffd5b505050506040513d601f19601f8201168201806040525081019061260a91906142cd565b61261590600a614293565b91505090565b80306001600160a01b031663313ce5676040518163ffffffff1660e01b8152600401602060405180830381865afa158015612658573d5f5f3e3d5ffd5b505050506040513d601f19601f8201168201806040525081019061267c91906142cd565b61268790600a614293565b600b5461269491906142e8565b6126159190614313565b5f6107a182612d88565b5f8080806124ca8686612d92565b5f610ab7836001600160a01b038416612dbb565b6001600160a01b0382166126f3575f60405163ec442f0560e01b81526004016106c39190613c1b565b6107025f8383612c75565b5f61270883612dd7565b90505f6127158284612e73565b9050806127355760405163cf6c44e960e01b815260040160405180910390fd5b60405184907f1af0453083661051f6e56e5c070792320652e612154bf9af8637bb1e7655b99d905f90a250505050565b5f5f61276f610e43565b6001600160a01b031663313ce5676040518163ffffffff1660e01b8152600401602060405180830381865afa1580156127aa573d5f5f3e3d5ffd5b505050506040513d601f19601f820116820180604052508101906127ce91906142cd565b9050612615816012614326565b5f6128086127e883612f5a565b801561280357505f84806127fe576127fe6142ff565b868809115b151590565b612813868686612f86565b61281d919061419d565b95945050505050565b6001600160a01b03821661284f575f604051634b637e8f60e11b81526004016106c39190613c1b565b610702825f83612c75565b5f610ab783836004613036565b5f6128728230613120565b5090565b5f82612888576128855f612978565b92505b81612899576128965f612978565b91505b610ab783835f61318d565b5f826128b6576128b35f61322d565b92505b816128c7576128c45f61322d565b91505b610ab783835f613248565b5f826128e4576128e15f612978565b92505b816128f5576128f25f612978565b91505b610ab783835f61329e565b5f5b815181101561070257612938828281518110612920576129206140b1565b602002602001015160096132f490919063ffffffff16565b6129705781818151811061294e5761294e6140b1565b602002602001015160405163751dff9760e11b81526004016106c39190613c1b565b600101612902565b5f6107a18263ffffffff166004613308565b5f8261299c576129995f612978565b92505b816129ad576129aa5f612978565b91505b610ab783835f613387565b5f610ab783835f6133dd565b6014545f90610100900461ffff1681036129df57505f919050565b5f60145460ff1660038111156129f7576129f7613e37565b03612a05576107a1826134e2565b5f612a0e612596565b9050600260145460ff166003811115612a2957612a29613e37565b03612a3757610ab781613509565b600160145460ff166003811115612a5057612a50613e37565b03612a5e57610ab781613531565b600360145460ff166003811115612a7757612a77613e37565b03612a8557610ab781613559565b50919050565b6014545f906301000000900461ffff168103612aa857505f919050565b5f92915050565b5f612ab8825490565b90505f5b81811015612b0157826001015f845f018381548110612add57612add6140b1565b905f5260205f20015481526020019081526020015f205f9055806001019050612abc565b50505f9055565b5f612b13838361359b565b612b4857508154600181810184555f8481526020808220909301849055845484825282860190935260409020919091556107a1565b505f6107a1565b6001600160a01b038416612b78575f60405163e602df0560e01b81526004016106c39190613c1b565b6001600160a01b038316612ba1575f604051634a1406b160e11b81526004016106c39190613c1b565b6001600160a01b038085165f908152600160209081526040808320938716835292905220829055801561206957826001600160a01b0316846001600160a01b03167f8c5be1e5ebec7d5bd14f71427d1e84f3dd0314c0f7b2291e5b200ac8c7c3b92584604051612c1391815260200190565b60405180910390a350505050565b5f818152600283016020526040812054819080612c4e57612c4285856135b2565b92505f91506124d29050565b6001925090506124d2565b5f828152600284016020526040812082905561143e84846135bd565b6001600160a01b038316612c9f578060025f828254612c94919061419d565b90915550612cfc9050565b6001600160a01b0383165f9081526020819052604090205481811015612cde5783818360405163391434e360e21b81526004016106c393929190614129565b6001600160a01b0384165f9081526020819052604090209082900390555b6001600160a01b038216612d1857600280548290039055612d36565b6001600160a01b0382165f9081526020819052604090208054820190555b816001600160a01b0316836001600160a01b03167fddf252ad1be2c89b69c2b068fc378daa952ba7f163c4a11628f55a4df523b3ef83604051612d7b91815260200190565b60405180910390a3505050565b5f6107a1826135c8565b5f8080612d9f85856135d1565b5f81815260029690960160205260409095205494959350505050565b5f8181526002830160205260408120819055610ab783836135dc565b60605f612de26135e7565b5f84815260028201602052604081205491925003612e135760405163d66ca67560e01b815260040160405180910390fd5b5f83815260028201602090815260409182902080548351818402810184019094528084529091830182828015612e6657602002820191905f5260205f20905b815481526020019060010190808311612e52575b5050505050915050919050565b5f602481612e808561360b565b90505f816001600160401b03811115612e9b57612e9b613a71565b6040519080825280601f01601f191660200182016040528015612ec5576020820181803683370190505b509050818360208301375f612ed86136b8565b6002810154604051632c027b1360e21b81529192506001600160a01b03169063b009ec4c90612f0f908a9086908b90600401614379565b6020604051808303815f875af1158015612f2b573d5f5f3e3d5ffd5b505050506040513d601f19601f82011682018060405250810190612f4f91906140c5565b979650505050505050565b5f6002826003811115612f6f57612f6f613e37565b612f799190614403565b60ff166001149050919050565b5f5f5f612f9386866136dc565b91509150815f03612fb757838181612fad57612fad6142ff565b0492505050610ab7565b818411612fce57612fce60038515026011186136f8565b5f848688095f868103871696879004966002600389028118808a02820302808a02820302808a02820302808a02820302808a02820302808a02909103029181900381900460010185841190960395909502919093039390930492909217029150509392505050565b5f5f6130406136b8565b600181015460405163196d0b9b60e01b81529192506001600160a01b03169063196d0b9b90613079908890339089908990600401614438565b6020604051808303815f875af1158015613095573d5f5f3e3d5ffd5b505050506040513d601f19601f820116820180604052508101906130b99190614112565b8154604051630f8e573b60e21b81529193506001600160a01b031690633e395cec906130eb9085903390600401614470565b5f604051808303815f87803b158015613102575f5ffd5b505af1158015613114573d5f5f3e3d5ffd5b50505050509392505050565b5f6131296136b8565b8054604051635ca4b5b160e11b81529192506001600160a01b03169063b9496b629061315b9086908690600401614470565b5f604051808303815f87803b158015613172575f5ffd5b505af1158015613184573d5f5f3e3d5ffd5b50505050505050565b5f5f82156131a05750600160f81b6131a3565b505f5b5f6131ac6136b8565b60018101546040516385362ee760e01b81529192506001600160a01b0316906385362ee7906131e390899089908790600401614487565b6020604051808303815f875af11580156131ff573d5f5f3e3d5ffd5b505050506040513d601f19601f820116820180604052508101906132239190614112565b9695505050505050565b5f6107a18261323c575f61323f565b60015b60ff165f613308565b5f5f821561325b5750600160f81b61325e565b505f5b5f6132676136b8565b600181015460405163d99882d560e01b81529192506001600160a01b03169063d99882d5906131e390899089908790600401614487565b5f5f82156132b15750600160f81b6132b4565b505f5b5f6132bd6136b8565b600181015460405163022f65e760e31b81529192506001600160a01b03169063117b2f38906131e390899089908790600401614487565b5f610ab7836001600160a01b03841661359b565b5f5f6133126136b8565b6001810154604051639cd07acb60e01b81529192506001600160a01b031690639cd07acb9061334790879087906004016144a7565b6020604051808303815f875af1158015613363573d5f5f3e3d5ffd5b505050506040513d601f19601f8201168201806040525081019061143e9190614112565b5f5f821561339a5750600160f81b61339d565b505f5b5f6133a66136b8565b600181015460405163f77f3f1d60e01b81529192506001600160a01b03169063f77f3f1d906131e390899089908790600401614487565b5f5f6133e76135e7565b9050806001015491505f6133f96136b8565b8054604051637d6e912360e11b81529192506001600160a01b03169063fadd2246906134299089906004016144bb565b5f604051808303815f87803b158015613440575f5ffd5b505af1158015613452573d5f5f3e3d5ffd5b50508354604051633263b83b60e01b81526001600160a01b039091169250633263b83b9150869061348b9087908b908b906004016144cd565b5f604051808303818588803b1580156134a2575f5ffd5b505af11580156134b4573d5f5f3e3d5ffd5b50505050506134c38387613709565b600182018054905f6134d4836144fe565b919050555050509392505050565b6014545f90612710906134ff908490610100900461ffff166142e8565b6107a19190614313565b6015545f90821161351b57505f919050565b6015546107a19061352c90846142ba565b613763565b5f5f61353b613813565b905080831161354c57505f92915050565b610ab761352c82856142ba565b5f5f613563613813565b90505f601460010154821161357a5760155461357c565b815b905080841161358e57505f9392505050565b61143e61352c82866142ba565b5f9081526001919091016020526040902054151590565b5f610ab783836138e6565b5f610ab78383612b08565b5f6107a1825490565b5f610ab783836138f1565b5f610ab78383613917565b7f5ea69329017273582817d320489fbd94f775580e90c092699ca6f3d12fdf7d0090565b80515f9081805b828110156136ac575f85828151811061362d5761362d6140b1565b6020026020010151601e60208110613647576136476140b1565b1a605381111561365957613659613e37565b9050600981605381111561366f5761366f613e37565b60ff16101561368a5761368360208461419d565b92506136a3565b60405163ce54a8d160e01b815260040160405180910390fd5b50600101613612565b5061143e60208261419d565b7fed8d60e34876f751cc8b014c560745351147d9de11b9347c854e881b128ea60090565b5f805f1983850993909202808410938190039390930393915050565b634e487b715f52806020526024601cfd5b5f6137126135e7565b5f8481526002820160205260409020549091501561374357604051633f06d22b60e01b815260040160405180910390fd5b5f8381526002820160209081526040909120835161206992850190613a1c565b5f5f61376e60025490565b9050805f0361377f57505f92915050565b5f6137f782306001600160a01b031663313ce5676040518163ffffffff1660e01b8152600401602060405180830381865afa1580156137c0573d5f5f3e3d5ffd5b505050506040513d601f19601f820116820180604052508101906137e491906142cd565b6137ef90600a614293565b869190612f86565b60145490915061143e90610100900461ffff1682612710612f86565b5f5f60065f9054906101000a90046001600160a01b03166001600160a01b031663f3cc69936040518163ffffffff1660e01b8152600401602060405180830381865afa158015613865573d5f5f3e3d5ffd5b505050506040513d601f19601f820116820180604052508101906138899190614516565b61ffff1690505f806138a16301e13380612710614531565b63ffffffff1682601460010154856138b991906142e8565b6138c391906142e8565b6138cd9190614313565b6015549091506138de90829061419d565b935050505090565b5f610ab7838361359b565b5f825f018281548110613906576139066140b1565b905f5260205f200154905092915050565b5f81815260018301602052604081205480156139f1575f6139396001836142ba565b85549091505f9061394c906001906142ba565b90508082146139ab575f865f01828154811061396a5761396a6140b1565b905f5260205f200154905080875f01848154811061398a5761398a6140b1565b5f918252602080832090910192909255918252600188019052604090208390555b85548690806139bc576139bc614550565b600190038181905f5260205f20015f90559055856001015f8681526020019081526020015f205f9055600193505050506107a1565b5f9150506107a1565b5092915050565b5080545f8255905f5260205f2090810190610a969190613a5d565b828054828255905f5260205f20908101928215613a55579160200282015b82811115613a55578251825591602001919060010190613a3a565b506128729291505b5b80821115612872575f8155600101613a5e565b634e487b7160e01b5f52604160045260245ffd5b604051601f8201601f191681016001600160401b0381118282101715613aad57613aad613a71565b604052919050565b5f6001600160401b03821115613acd57613acd613a71565b5060051b60200190565b6001600160a01b0381168114610a96575f5ffd5b5f60208284031215613afb575f5ffd5b81356001600160401b03811115613b10575f5ffd5b8201601f81018413613b20575f5ffd5b8035613b33613b2e82613ab5565b613a85565b8082825260208201915060208360051b850101925086831115613b54575f5ffd5b6020840193505b82841015613223578335613b6e81613ad7565b825260209384019390910190613b5b565b5f81518084528060208401602086015e5f602082860101526020601f19601f83011685010191505092915050565b602081525f610ab76020830184613b7f565b5f60208284031215613bcf575f5ffd5b5035919050565b5f5f60408385031215613be7575f5ffd5b8235613bf281613ad7565b946020939093013593505050565b5f60208284031215613c10575f5ffd5b8135610ab781613ad7565b6001600160a01b0391909116815260200190565b5f5f5f60608486031215613c41575f5ffd5b8335613c4c81613ad7565b92506020840135613c5c81613ad7565b929592945050506040919091013590565b60ff81168114610a96575f5ffd5b61ffff81168114610a96575f5ffd5b5f5f5f60608486031215613c9c575f5ffd5b8335613ca781613c6d565b92506020840135613cb781613c7b565b91506040840135613cc781613c7b565b809150509250925092565b8015158114610a96575f5ffd5b5f5f5f60608486031215613cf1575f5ffd5b833592506020840135613d0381613cd2565b915060408401356001600160401b03811115613d1d575f5ffd5b8401601f81018613613d2d575f5ffd5b8035613d3b613b2e82613ab5565b8082825260208201915060208360051b850101925088831115613d5c575f5ffd5b602084015b83811015613dfa5780356001600160401b03811115613d7e575f5ffd5b8501603f81018b13613d8e575f5ffd5b60208101356001600160401b03811115613daa57613daa613a71565b613dbd601f8201601f1916602001613a85565b8181526040838301018d1015613dd1575f5ffd5b816040840160208301375f60208383010152808652505050602083019250602081019050613d61565b50809450505050509250925092565b5f5f60408385031215613e1a575f5ffd5b823591506020830135613e2c81613ad7565b809150509250929050565b634e487b7160e01b5f52602160045260245ffd5b6080810160048610613e5f57613e5f613e37565b94815261ffff93841660208201529190921660408201526060015290565b5f5f83601f840112613e8d575f5ffd5b5081356001600160401b03811115613ea3575f5ffd5b6020830191508360208260061b85010111156124d2575f5ffd5b5f5f5f60408486031215613ecf575f5ffd5b83356001600160401b03811115613ee4575f5ffd5b613ef086828701613e7d565b909790965060209590950135949350505050565b5f5f5f60608486031215613f16575f5ffd5b8335925060208401359150604084013560048110613cc7575f5ffd5b5f5f5f60608486031215613f44575f5ffd5b833592506020840135613f5681613ad7565b91506040840135613cc781613ad7565b604080825283519082018190525f9060208501906060840190835b81811015613fa85783516001600160a01b0316835260209384019390920191600101613f81565b5050838103602080860191909152855180835291810192508501905f5b81811015613fe3578251845260209384019390920191600101613fc5565b50919695505050505050565b5f5f5f5f60408587031215614002575f5ffd5b84356001600160401b03811115614017575f5ffd5b61402387828801613e7d565b90955093505060208501356001600160401b03811115614041575f5ffd5b8501601f81018713614051575f5ffd5b80356001600160401b03811115614066575f5ffd5b876020828401011115614077575f5ffd5b949793965060200194505050565b5f5f60408385031215614096575f5ffd5b82356140a181613ad7565b91506020830135613e2c81613ad7565b634e487b7160e01b5f52603260045260245ffd5b5f602082840312156140d5575f5ffd5b8151610ab781613cd2565b600181811c908216806140f457607f821691505b602082108103612a8557634e487b7160e01b5f52602260045260245ffd5b5f60208284031215614122575f5ffd5b5051919050565b6001600160a01b039390931683526020830191909152604082015260600190565b5f6020828403121561415a575f5ffd5b8151610ab781613ad7565b6001600160a01b039384168152919092166020820152604081019190915260600190565b634e487b7160e01b5f52601160045260245ffd5b808201808211156107a1576107a1614189565b6001815b60018411156141eb578085048111156141cf576141cf614189565b60018416156141dd57908102905b60019390931c9280026141b4565b935093915050565b5f82614201575060016107a1565b8161420d57505f6107a1565b8160018114614223576002811461422d57614249565b60019150506107a1565b60ff84111561423e5761423e614189565b50506001821b6107a1565b5060208310610133831016604e8410600b841016171561426c575081810a6107a1565b6142785f1984846141b0565b805f190482111561428b5761428b614189565b029392505050565b5f610ab760ff8416836141f3565b6001600160a01b03929092168252602082015260400190565b818103818111156107a1576107a1614189565b5f602082840312156142dd575f5ffd5b8151610ab781613c6d565b80820281158282048414176107a1576107a1614189565b634e487b7160e01b5f52601260045260245ffd5b5f82614321576143216142ff565b500490565b60ff82811682821603908111156107a1576107a1614189565b5f8151808452602084019350602083015f5b8281101561436f578151865260209586019590910190600101614351565b5093949350505050565b606081525f61438b606083018661433f565b828103602084015261439d8186613b7f565b9050828103604084015280845180835260208301915060208160051b840101602087015f5b838110156143f457601f198684030185526143de838351613b7f565b60209586019590935091909101906001016143c2565b50909998505050505050505050565b5f60ff831680614415576144156142ff565b8060ff84160691505092915050565b6054811061443457614434613e37565b9052565b8481526001600160a01b03841660208201526080604082018190525f9061446190830185613b7f565b905061281d6060830184614424565b9182526001600160a01b0316602082015260400190565b92835260208301919091526001600160f81b031916604082015260600190565b82815260408101610ab76020830184614424565b602081525f610ab7602083018461433f565b838152606060208201525f6144e5606083018561433f565b905063ffffffff60e01b83166040830152949350505050565b5f6001820161450f5761450f614189565b5060010190565b5f60208284031215614526575f5ffd5b8151610ab781613c7b565b63ffffffff81811683821602908116908181146139fa576139fa614189565b634e487b7160e01b5f52603160045260245ffdfea2646970667358221220e26f1ba062d61e4d89a65546d16213fc461c309707aad3a34652f4fa2c9f8d9364736f6c634300081c0033ed8d60e34876f751cc8b014c560745351147d9de11b9347c854e881b128ea600ed8d60e34876f751cc8b014c560745351147d9de11b9347c854e881b128ea601",
  "linkReferences": {},
  "deployedLinkReferences": {}
}