{
  "_format": "hh-sol-artifact-1",
  "contractName": "OrionEncryptedVault",
  "sourceName": "contracts/vaults/OrionEncryptedVault.sol",
  "abi": [
    {
      "inputs": [
        {
          "internalType": "address",
          "name": "target",
          "type": "address"
        }
      ],
      "name": "AddressEmptyCode",
      "type": "error"
    },
    {
      "inputs": [
        {
          "internalType": "address",
          "name": "asset",
          "type": "address"
        }
      ],
      "name": "AmountMustBeGreaterThanZero",
      "type": "error"
    },
    {
      "inputs": [
        {
          "internalType": "address",
          "name": "implementation",
          "type": "address"
        }
      ],
      "name": "ERC1967InvalidImplementation",
      "type": "error"
    },
    {
      "inputs": [],
      "name": "ERC1967NonPayable",
      "type": "error"
    },
    {
      "inputs": [
        {
          "internalType": "address",
          "name": "spender",
          "type": "address"
        },
        {
          "internalType": "uint256",
          "name": "allowance",
          "type": "uint256"
        },
        {
          "internalType": "uint256",
          "name": "needed",
          "type": "uint256"
        }
      ],
      "name": "ERC20InsufficientAllowance",
      "type": "error"
    },
    {
      "inputs": [
        {
          "internalType": "address",
          "name": "sender",
          "type": "address"
        },
        {
          "internalType": "uint256",
          "name": "balance",
          "type": "uint256"
        },
        {
          "internalType": "uint256",
          "name": "needed",
          "type": "uint256"
        }
      ],
      "name": "ERC20InsufficientBalance",
      "type": "error"
    },
    {
      "inputs": [
        {
          "internalType": "address",
          "name": "approver",
          "type": "address"
        }
      ],
      "name": "ERC20InvalidApprover",
      "type": "error"
    },
    {
      "inputs": [
        {
          "internalType": "address",
          "name": "receiver",
          "type": "address"
        }
      ],
      "name": "ERC20InvalidReceiver",
      "type": "error"
    },
    {
      "inputs": [
        {
          "internalType": "address",
          "name": "sender",
          "type": "address"
        }
      ],
      "name": "ERC20InvalidSender",
      "type": "error"
    },
    {
      "inputs": [
        {
          "internalType": "address",
          "name": "spender",
          "type": "address"
        }
      ],
      "name": "ERC20InvalidSpender",
      "type": "error"
    },
    {
      "inputs": [
        {
          "internalType": "address",
          "name": "receiver",
          "type": "address"
        },
        {
          "internalType": "uint256",
          "name": "assets",
          "type": "uint256"
        },
        {
          "internalType": "uint256",
          "name": "max",
          "type": "uint256"
        }
      ],
      "name": "ERC4626ExceededMaxDeposit",
      "type": "error"
    },
    {
      "inputs": [
        {
          "internalType": "address",
          "name": "receiver",
          "type": "address"
        },
        {
          "internalType": "uint256",
          "name": "shares",
          "type": "uint256"
        },
        {
          "internalType": "uint256",
          "name": "max",
          "type": "uint256"
        }
      ],
      "name": "ERC4626ExceededMaxMint",
      "type": "error"
    },
    {
      "inputs": [
        {
          "internalType": "address",
          "name": "owner",
          "type": "address"
        },
        {
          "internalType": "uint256",
          "name": "shares",
          "type": "uint256"
        },
        {
          "internalType": "uint256",
          "name": "max",
          "type": "uint256"
        }
      ],
      "name": "ERC4626ExceededMaxRedeem",
      "type": "error"
    },
    {
      "inputs": [
        {
          "internalType": "address",
          "name": "owner",
          "type": "address"
        },
        {
          "internalType": "uint256",
          "name": "assets",
          "type": "uint256"
        },
        {
          "internalType": "uint256",
          "name": "max",
          "type": "uint256"
        }
      ],
      "name": "ERC4626ExceededMaxWithdraw",
      "type": "error"
    },
    {
      "inputs": [],
      "name": "FailedCall",
      "type": "error"
    },
    {
      "inputs": [],
      "name": "InvalidConfigAddress",
      "type": "error"
    },
    {
      "inputs": [],
      "name": "InvalidCuratorAddress",
      "type": "error"
    },
    {
      "inputs": [],
      "name": "InvalidInitialization",
      "type": "error"
    },
    {
      "inputs": [],
      "name": "NotCurator",
      "type": "error"
    },
    {
      "inputs": [],
      "name": "NotEnoughDepositRequest",
      "type": "error"
    },
    {
      "inputs": [],
      "name": "NotEnoughShares",
      "type": "error"
    },
    {
      "inputs": [],
      "name": "NotInitializing",
      "type": "error"
    },
    {
      "inputs": [],
      "name": "NotLiquidityOrchestrator",
      "type": "error"
    },
    {
      "inputs": [],
      "name": "OrderIntentCannotBeEmpty",
      "type": "error"
    },
    {
      "inputs": [
        {
          "internalType": "address",
          "name": "owner",
          "type": "address"
        }
      ],
      "name": "OwnableInvalidOwner",
      "type": "error"
    },
    {
      "inputs": [
        {
          "internalType": "address",
          "name": "account",
          "type": "address"
        }
      ],
      "name": "OwnableUnauthorizedAccount",
      "type": "error"
    },
    {
      "inputs": [],
      "name": "ReentrancyGuardReentrantCall",
      "type": "error"
    },
    {
      "inputs": [],
      "name": "SharesMustBeGreaterThanZero",
      "type": "error"
    },
    {
      "inputs": [],
      "name": "SynchronousDepositsDisabled",
      "type": "error"
    },
    {
      "inputs": [],
      "name": "SynchronousRedemptionsDisabled",
      "type": "error"
    },
    {
      "inputs": [],
      "name": "SynchronousWithdrawalsDisabled",
      "type": "error"
    },
    {
      "inputs": [
        {
          "internalType": "address",
          "name": "token",
          "type": "address"
        }
      ],
      "name": "TokenNotWhitelisted",
      "type": "error"
    },
    {
      "inputs": [],
      "name": "TransferFailed",
      "type": "error"
    },
    {
      "inputs": [],
      "name": "UUPSUnauthorizedCallContext",
      "type": "error"
    },
    {
      "inputs": [
        {
          "internalType": "bytes32",
          "name": "slot",
          "type": "bytes32"
        }
      ],
      "name": "UUPSUnsupportedProxiableUUID",
      "type": "error"
    },
    {
      "anonymous": false,
      "inputs": [
        {
          "indexed": true,
          "internalType": "address",
          "name": "owner",
          "type": "address"
        },
        {
          "indexed": true,
          "internalType": "address",
          "name": "spender",
          "type": "address"
        },
        {
          "indexed": false,
          "internalType": "uint256",
          "name": "value",
          "type": "uint256"
        }
      ],
      "name": "Approval",
      "type": "event"
    },
    {
      "anonymous": false,
      "inputs": [
        {
          "indexed": true,
          "internalType": "address",
          "name": "sender",
          "type": "address"
        },
        {
          "indexed": true,
          "internalType": "address",
          "name": "owner",
          "type": "address"
        },
        {
          "indexed": false,
          "internalType": "uint256",
          "name": "assets",
          "type": "uint256"
        },
        {
          "indexed": false,
          "internalType": "uint256",
          "name": "shares",
          "type": "uint256"
        }
      ],
      "name": "Deposit",
      "type": "event"
    },
    {
      "anonymous": false,
      "inputs": [
        {
          "indexed": true,
          "internalType": "address",
          "name": "user",
          "type": "address"
        },
        {
          "indexed": false,
          "internalType": "uint256",
          "name": "amount",
          "type": "uint256"
        },
        {
          "indexed": false,
          "internalType": "uint256",
          "name": "requestId",
          "type": "uint256"
        }
      ],
      "name": "DepositProcessed",
      "type": "event"
    },
    {
      "anonymous": false,
      "inputs": [
        {
          "indexed": true,
          "internalType": "address",
          "name": "user",
          "type": "address"
        },
        {
          "indexed": false,
          "internalType": "uint256",
          "name": "amount",
          "type": "uint256"
        },
        {
          "indexed": false,
          "internalType": "uint256",
          "name": "depositorCount",
          "type": "uint256"
        }
      ],
      "name": "DepositRequestCancelled",
      "type": "event"
    },
    {
      "anonymous": false,
      "inputs": [
        {
          "indexed": true,
          "internalType": "address",
          "name": "user",
          "type": "address"
        },
        {
          "indexed": false,
          "internalType": "uint256",
          "name": "amount",
          "type": "uint256"
        },
        {
          "indexed": false,
          "internalType": "uint256",
          "name": "requestId",
          "type": "uint256"
        }
      ],
      "name": "DepositRequested",
      "type": "event"
    },
    {
      "anonymous": false,
      "inputs": [
        {
          "indexed": false,
          "internalType": "uint64",
          "name": "version",
          "type": "uint64"
        }
      ],
      "name": "Initialized",
      "type": "event"
    },
    {
      "anonymous": false,
      "inputs": [
        {
          "indexed": true,
          "internalType": "address",
          "name": "curator",
          "type": "address"
        }
      ],
      "name": "OrderSubmitted",
      "type": "event"
    },
    {
      "anonymous": false,
      "inputs": [
        {
          "indexed": true,
          "internalType": "address",
          "name": "previousOwner",
          "type": "address"
        },
        {
          "indexed": true,
          "internalType": "address",
          "name": "newOwner",
          "type": "address"
        }
      ],
      "name": "OwnershipTransferStarted",
      "type": "event"
    },
    {
      "anonymous": false,
      "inputs": [
        {
          "indexed": true,
          "internalType": "address",
          "name": "previousOwner",
          "type": "address"
        },
        {
          "indexed": true,
          "internalType": "address",
          "name": "newOwner",
          "type": "address"
        }
      ],
      "name": "OwnershipTransferred",
      "type": "event"
    },
    {
      "anonymous": false,
      "inputs": [
        {
          "indexed": true,
          "internalType": "address",
          "name": "from",
          "type": "address"
        },
        {
          "indexed": true,
          "internalType": "address",
          "name": "to",
          "type": "address"
        },
        {
          "indexed": false,
          "internalType": "uint256",
          "name": "value",
          "type": "uint256"
        }
      ],
      "name": "Transfer",
      "type": "event"
    },
    {
      "anonymous": false,
      "inputs": [
        {
          "indexed": true,
          "internalType": "address",
          "name": "implementation",
          "type": "address"
        }
      ],
      "name": "Upgraded",
      "type": "event"
    },
    {
      "anonymous": false,
      "inputs": [
        {
          "indexed": false,
          "internalType": "uint256",
          "name": "newTotalAssets",
          "type": "uint256"
        }
      ],
      "name": "VaultStateUpdated",
      "type": "event"
    },
    {
      "anonymous": false,
      "inputs": [
        {
          "indexed": true,
          "internalType": "address",
          "name": "sender",
          "type": "address"
        },
        {
          "indexed": true,
          "internalType": "address",
          "name": "receiver",
          "type": "address"
        },
        {
          "indexed": true,
          "internalType": "address",
          "name": "owner",
          "type": "address"
        },
        {
          "indexed": false,
          "internalType": "uint256",
          "name": "assets",
          "type": "uint256"
        },
        {
          "indexed": false,
          "internalType": "uint256",
          "name": "shares",
          "type": "uint256"
        }
      ],
      "name": "Withdraw",
      "type": "event"
    },
    {
      "anonymous": false,
      "inputs": [
        {
          "indexed": true,
          "internalType": "address",
          "name": "user",
          "type": "address"
        },
        {
          "indexed": false,
          "internalType": "uint256",
          "name": "shares",
          "type": "uint256"
        },
        {
          "indexed": false,
          "internalType": "uint256",
          "name": "requestId",
          "type": "uint256"
        }
      ],
      "name": "WithdrawProcessed",
      "type": "event"
    },
    {
      "anonymous": false,
      "inputs": [
        {
          "indexed": true,
          "internalType": "address",
          "name": "user",
          "type": "address"
        },
        {
          "indexed": false,
          "internalType": "uint256",
          "name": "shares",
          "type": "uint256"
        },
        {
          "indexed": false,
          "internalType": "uint256",
          "name": "requestId",
          "type": "uint256"
        }
      ],
      "name": "WithdrawRequested",
      "type": "event"
    },
    {
      "inputs": [],
      "name": "UPGRADE_INTERFACE_VERSION",
      "outputs": [
        {
          "internalType": "string",
          "name": "",
          "type": "string"
        }
      ],
      "stateMutability": "view",
      "type": "function"
    },
    {
      "inputs": [],
      "name": "acceptOwnership",
      "outputs": [],
      "stateMutability": "nonpayable",
      "type": "function"
    },
    {
      "inputs": [
        {
          "internalType": "address",
          "name": "owner",
          "type": "address"
        },
        {
          "internalType": "address",
          "name": "spender",
          "type": "address"
        }
      ],
      "name": "allowance",
      "outputs": [
        {
          "internalType": "uint256",
          "name": "",
          "type": "uint256"
        }
      ],
      "stateMutability": "view",
      "type": "function"
    },
    {
      "inputs": [
        {
          "internalType": "address",
          "name": "spender",
          "type": "address"
        },
        {
          "internalType": "uint256",
          "name": "value",
          "type": "uint256"
        }
      ],
      "name": "approve",
      "outputs": [
        {
          "internalType": "bool",
          "name": "",
          "type": "bool"
        }
      ],
      "stateMutability": "nonpayable",
      "type": "function"
    },
    {
      "inputs": [],
      "name": "asset",
      "outputs": [
        {
          "internalType": "address",
          "name": "",
          "type": "address"
        }
      ],
      "stateMutability": "view",
      "type": "function"
    },
    {
      "inputs": [
        {
          "internalType": "address",
          "name": "account",
          "type": "address"
        }
      ],
      "name": "balanceOf",
      "outputs": [
        {
          "internalType": "uint256",
          "name": "",
          "type": "uint256"
        }
      ],
      "stateMutability": "view",
      "type": "function"
    },
    {
      "inputs": [
        {
          "internalType": "uint256",
          "name": "amount",
          "type": "uint256"
        }
      ],
      "name": "cancelDepositRequest",
      "outputs": [],
      "stateMutability": "nonpayable",
      "type": "function"
    },
    {
      "inputs": [],
      "name": "config",
      "outputs": [
        {
          "internalType": "contract IOrionConfig",
          "name": "",
          "type": "address"
        }
      ],
      "stateMutability": "view",
      "type": "function"
    },
    {
      "inputs": [
        {
          "internalType": "uint256",
          "name": "shares",
          "type": "uint256"
        }
      ],
      "name": "convertToAssets",
      "outputs": [
        {
          "internalType": "uint256",
          "name": "",
          "type": "uint256"
        }
      ],
      "stateMutability": "view",
      "type": "function"
    },
    {
      "inputs": [
        {
          "internalType": "uint256",
          "name": "shares",
          "type": "uint256"
        },
        {
          "internalType": "uint256",
          "name": "pointInTimeTotalAssets",
          "type": "uint256"
        },
        {
          "internalType": "enum Math.Rounding",
          "name": "rounding",
          "type": "uint8"
        }
      ],
      "name": "convertToAssetsWithPITTotalAssets",
      "outputs": [
        {
          "internalType": "uint256",
          "name": "",
          "type": "uint256"
        }
      ],
      "stateMutability": "view",
      "type": "function"
    },
    {
      "inputs": [
        {
          "internalType": "uint256",
          "name": "assets",
          "type": "uint256"
        }
      ],
      "name": "convertToShares",
      "outputs": [
        {
          "internalType": "uint256",
          "name": "",
          "type": "uint256"
        }
      ],
      "stateMutability": "view",
      "type": "function"
    },
    {
      "inputs": [],
      "name": "curator",
      "outputs": [
        {
          "internalType": "address",
          "name": "",
          "type": "address"
        }
      ],
      "stateMutability": "view",
      "type": "function"
    },
    {
      "inputs": [],
      "name": "decimals",
      "outputs": [
        {
          "internalType": "uint8",
          "name": "",
          "type": "uint8"
        }
      ],
      "stateMutability": "view",
      "type": "function"
    },
    {
      "inputs": [],
      "name": "deployer",
      "outputs": [
        {
          "internalType": "address",
          "name": "",
          "type": "address"
        }
      ],
      "stateMutability": "view",
      "type": "function"
    },
    {
      "inputs": [
        {
          "internalType": "uint256",
          "name": "",
          "type": "uint256"
        },
        {
          "internalType": "address",
          "name": "",
          "type": "address"
        }
      ],
      "name": "deposit",
      "outputs": [
        {
          "internalType": "uint256",
          "name": "",
          "type": "uint256"
        }
      ],
      "stateMutability": "pure",
      "type": "function"
    },
    {
      "inputs": [],
      "name": "getPendingDeposits",
      "outputs": [
        {
          "internalType": "uint256",
          "name": "",
          "type": "uint256"
        }
      ],
      "stateMutability": "view",
      "type": "function"
    },
    {
      "inputs": [],
      "name": "getPendingWithdrawals",
      "outputs": [
        {
          "internalType": "uint256",
          "name": "",
          "type": "uint256"
        }
      ],
      "stateMutability": "view",
      "type": "function"
    },
    {
      "inputs": [],
      "name": "getPortfolio",
      "outputs": [
        {
          "internalType": "address[]",
          "name": "tokens",
          "type": "address[]"
        },
        {
          "internalType": "euint32[]",
          "name": "sharesPerAsset",
          "type": "uint256[]"
        }
      ],
      "stateMutability": "view",
      "type": "function"
    },
    {
      "inputs": [
        {
          "internalType": "address",
          "name": "curatorAddress",
          "type": "address"
        },
        {
          "internalType": "contract IOrionConfig",
          "name": "configAddress",
          "type": "address"
        },
        {
          "internalType": "string",
          "name": "name",
          "type": "string"
        },
        {
          "internalType": "string",
          "name": "symbol",
          "type": "string"
        }
      ],
      "name": "initialize",
      "outputs": [],
      "stateMutability": "nonpayable",
      "type": "function"
    },
    {
      "inputs": [
        {
          "internalType": "address",
          "name": "",
          "type": "address"
        }
      ],
      "name": "maxDeposit",
      "outputs": [
        {
          "internalType": "uint256",
          "name": "",
          "type": "uint256"
        }
      ],
      "stateMutability": "view",
      "type": "function"
    },
    {
      "inputs": [
        {
          "internalType": "address",
          "name": "",
          "type": "address"
        }
      ],
      "name": "maxMint",
      "outputs": [
        {
          "internalType": "uint256",
          "name": "",
          "type": "uint256"
        }
      ],
      "stateMutability": "view",
      "type": "function"
    },
    {
      "inputs": [
        {
          "internalType": "address",
          "name": "owner",
          "type": "address"
        }
      ],
      "name": "maxRedeem",
      "outputs": [
        {
          "internalType": "uint256",
          "name": "",
          "type": "uint256"
        }
      ],
      "stateMutability": "view",
      "type": "function"
    },
    {
      "inputs": [
        {
          "internalType": "address",
          "name": "owner",
          "type": "address"
        }
      ],
      "name": "maxWithdraw",
      "outputs": [
        {
          "internalType": "uint256",
          "name": "",
          "type": "uint256"
        }
      ],
      "stateMutability": "view",
      "type": "function"
    },
    {
      "inputs": [
        {
          "internalType": "uint256",
          "name": "",
          "type": "uint256"
        },
        {
          "internalType": "address",
          "name": "",
          "type": "address"
        }
      ],
      "name": "mint",
      "outputs": [
        {
          "internalType": "uint256",
          "name": "",
          "type": "uint256"
        }
      ],
      "stateMutability": "pure",
      "type": "function"
    },
    {
      "inputs": [],
      "name": "name",
      "outputs": [
        {
          "internalType": "string",
          "name": "",
          "type": "string"
        }
      ],
      "stateMutability": "view",
      "type": "function"
    },
    {
      "inputs": [],
      "name": "owner",
      "outputs": [
        {
          "internalType": "address",
          "name": "",
          "type": "address"
        }
      ],
      "stateMutability": "view",
      "type": "function"
    },
    {
      "inputs": [],
      "name": "pendingOwner",
      "outputs": [
        {
          "internalType": "address",
          "name": "",
          "type": "address"
        }
      ],
      "stateMutability": "view",
      "type": "function"
    },
    {
      "inputs": [
        {
          "internalType": "uint256",
          "name": "assets",
          "type": "uint256"
        }
      ],
      "name": "previewDeposit",
      "outputs": [
        {
          "internalType": "uint256",
          "name": "",
          "type": "uint256"
        }
      ],
      "stateMutability": "view",
      "type": "function"
    },
    {
      "inputs": [
        {
          "internalType": "uint256",
          "name": "shares",
          "type": "uint256"
        }
      ],
      "name": "previewMint",
      "outputs": [
        {
          "internalType": "uint256",
          "name": "",
          "type": "uint256"
        }
      ],
      "stateMutability": "view",
      "type": "function"
    },
    {
      "inputs": [
        {
          "internalType": "uint256",
          "name": "shares",
          "type": "uint256"
        }
      ],
      "name": "previewRedeem",
      "outputs": [
        {
          "internalType": "uint256",
          "name": "",
          "type": "uint256"
        }
      ],
      "stateMutability": "view",
      "type": "function"
    },
    {
      "inputs": [
        {
          "internalType": "uint256",
          "name": "assets",
          "type": "uint256"
        }
      ],
      "name": "previewWithdraw",
      "outputs": [
        {
          "internalType": "uint256",
          "name": "",
          "type": "uint256"
        }
      ],
      "stateMutability": "view",
      "type": "function"
    },
    {
      "inputs": [],
      "name": "processDepositRequests",
      "outputs": [],
      "stateMutability": "nonpayable",
      "type": "function"
    },
    {
      "inputs": [],
      "name": "processWithdrawRequests",
      "outputs": [],
      "stateMutability": "nonpayable",
      "type": "function"
    },
    {
      "inputs": [],
      "name": "proxiableUUID",
      "outputs": [
        {
          "internalType": "bytes32",
          "name": "",
          "type": "bytes32"
        }
      ],
      "stateMutability": "view",
      "type": "function"
    },
    {
      "inputs": [
        {
          "internalType": "uint256",
          "name": "",
          "type": "uint256"
        },
        {
          "internalType": "address",
          "name": "",
          "type": "address"
        },
        {
          "internalType": "address",
          "name": "",
          "type": "address"
        }
      ],
      "name": "redeem",
      "outputs": [
        {
          "internalType": "uint256",
          "name": "",
          "type": "uint256"
        }
      ],
      "stateMutability": "pure",
      "type": "function"
    },
    {
      "inputs": [],
      "name": "renounceOwnership",
      "outputs": [],
      "stateMutability": "nonpayable",
      "type": "function"
    },
    {
      "inputs": [
        {
          "internalType": "uint256",
          "name": "amount",
          "type": "uint256"
        }
      ],
      "name": "requestDeposit",
      "outputs": [],
      "stateMutability": "nonpayable",
      "type": "function"
    },
    {
      "inputs": [
        {
          "internalType": "uint256",
          "name": "shares",
          "type": "uint256"
        }
      ],
      "name": "requestWithdraw",
      "outputs": [],
      "stateMutability": "nonpayable",
      "type": "function"
    },
    {
      "inputs": [
        {
          "components": [
            {
              "internalType": "address",
              "name": "token",
              "type": "address"
            },
            {
              "internalType": "euint32",
              "name": "weight",
              "type": "uint256"
            }
          ],
          "internalType": "struct IOrionEncryptedVault.EncryptedPosition[]",
          "name": "order",
          "type": "tuple[]"
        }
      ],
      "name": "submitIntent",
      "outputs": [],
      "stateMutability": "nonpayable",
      "type": "function"
    },
    {
      "inputs": [],
      "name": "symbol",
      "outputs": [
        {
          "internalType": "string",
          "name": "",
          "type": "string"
        }
      ],
      "stateMutability": "view",
      "type": "function"
    },
    {
      "inputs": [],
      "name": "totalAssets",
      "outputs": [
        {
          "internalType": "uint256",
          "name": "",
          "type": "uint256"
        }
      ],
      "stateMutability": "view",
      "type": "function"
    },
    {
      "inputs": [],
      "name": "totalSupply",
      "outputs": [
        {
          "internalType": "uint256",
          "name": "",
          "type": "uint256"
        }
      ],
      "stateMutability": "view",
      "type": "function"
    },
    {
      "inputs": [
        {
          "internalType": "address",
          "name": "to",
          "type": "address"
        },
        {
          "internalType": "uint256",
          "name": "value",
          "type": "uint256"
        }
      ],
      "name": "transfer",
      "outputs": [
        {
          "internalType": "bool",
          "name": "",
          "type": "bool"
        }
      ],
      "stateMutability": "nonpayable",
      "type": "function"
    },
    {
      "inputs": [
        {
          "internalType": "address",
          "name": "from",
          "type": "address"
        },
        {
          "internalType": "address",
          "name": "to",
          "type": "address"
        },
        {
          "internalType": "uint256",
          "name": "value",
          "type": "uint256"
        }
      ],
      "name": "transferFrom",
      "outputs": [
        {
          "internalType": "bool",
          "name": "",
          "type": "bool"
        }
      ],
      "stateMutability": "nonpayable",
      "type": "function"
    },
    {
      "inputs": [
        {
          "internalType": "address",
          "name": "newOwner",
          "type": "address"
        }
      ],
      "name": "transferOwnership",
      "outputs": [],
      "stateMutability": "nonpayable",
      "type": "function"
    },
    {
      "inputs": [
        {
          "components": [
            {
              "internalType": "address",
              "name": "token",
              "type": "address"
            },
            {
              "internalType": "euint32",
              "name": "weight",
              "type": "uint256"
            }
          ],
          "internalType": "struct IOrionEncryptedVault.EncryptedPosition[]",
          "name": "portfolio",
          "type": "tuple[]"
        },
        {
          "internalType": "uint256",
          "name": "newTotalAssets",
          "type": "uint256"
        }
      ],
      "name": "updateVaultState",
      "outputs": [],
      "stateMutability": "nonpayable",
      "type": "function"
    },
    {
      "inputs": [
        {
          "internalType": "address",
          "name": "newImplementation",
          "type": "address"
        },
        {
          "internalType": "bytes",
          "name": "data",
          "type": "bytes"
        }
      ],
      "name": "upgradeToAndCall",
      "outputs": [],
      "stateMutability": "payable",
      "type": "function"
    },
    {
      "inputs": [
        {
          "internalType": "uint256",
          "name": "",
          "type": "uint256"
        },
        {
          "internalType": "address",
          "name": "",
          "type": "address"
        },
        {
          "internalType": "address",
          "name": "",
          "type": "address"
        }
      ],
      "name": "withdraw",
      "outputs": [
        {
          "internalType": "uint256",
          "name": "",
          "type": "uint256"
        }
      ],
      "stateMutability": "pure",
      "type": "function"
    }
  ],
  "bytecode": "0x60a0604052306080523480156012575f5ffd5b506080516133bf6100395f395f8181611fc201528181611feb015261214d01526133bf5ff3fe60806040526004361061028b575f3560e01c806394bf804d11610155578063c63d75b6116100be578063d905777e11610078578063d905777e1461072d578063dd62ed3e1461074c578063e30c39781461076b578063e66f53b71461077f578063ef8b30f71461069a578063f2fde38b1461079e575f5ffd5b8063c63d75b614610438578063c6e6f5921461069a578063ce96cb77146106b9578063d1699c26146106d8578063d3d03458146106ec578063d5f394881461070e575f5ffd5b8063ad3cb1cc1161010f578063ad3cb1cc146105da578063b3d7f6b91461060a578063b460af9414610629578063ba08765214610648578063c0b568e114610667578063c37fc8a814610686575f5ffd5b806394bf804d1461047f57806395d89b4114610555578063985ba4ae14610569578063a68a526714610588578063a9059cbb146105a7578063aa9d3a60146105c6575f5ffd5b8063402d267d116101f7578063715018a6116101b1578063715018a6146104bd578063745400c9146104d157806379502c55146104f057806379ba50971461050e5780637f5fc5f9146105225780638da5cb5b14610541575f5ffd5b8063402d267d146104385780634cdad506146102d35780634f1ef2861461045857806352d1902d1461046b5780636e553f651461047f57806370a082311461049e575f5ffd5b806318160ddd1161024857806318160ddd146103615780632016a0d21461039457806323b872dd146103b3578063313ce567146103d257806333fdc592146103f857806338d52e0f1461040c575f5ffd5b806301e1d1141461028f57806306fdde03146102b257806307a2d13a146102d3578063095ea7b3146102f25780630a28a477146103215780630d1e666714610340575b5f5ffd5b34801561029a575f5ffd5b506003545b6040519081526020015b60405180910390f35b3480156102bd575f5ffd5b506102c66107bd565b6040516102a99190612b1a565b3480156102de575f5ffd5b5061029f6102ed366004612b4f565b61087d565b3480156102fd575f5ffd5b5061031161030c366004612b7a565b61088e565b60405190151581526020016102a9565b34801561032c575f5ffd5b5061029f61033b366004612b4f565b6108a5565b34801561034b575f5ffd5b5061035f61035a366004612b4f565b6108b1565b005b34801561036c575f5ffd5b507f52c63247e1f47db19d5ce0460030c497f067ca4cebf71ba98eeadabe20bace025461029f565b34801561039f575f5ffd5b5061035f6103ae366004612be8565b610a6a565b3480156103be575f5ffd5b506103116103cd366004612c7a565b610bd0565b3480156103dd575f5ffd5b506103e6610bf5565b60405160ff90911681526020016102a9565b348015610403575f5ffd5b5061035f610c37565b348015610417575f5ffd5b50610420610dc1565b6040516001600160a01b0390911681526020016102a9565b348015610443575f5ffd5b5061029f610452366004612cb8565b505f1990565b61035f610466366004612ce7565b610df5565b348015610476575f5ffd5b5061029f610e14565b34801561048a575f5ffd5b5061029f610499366004612daa565b610e2f565b3480156104a9575f5ffd5b5061029f6104b8366004612cb8565b610e49565b3480156104c8575f5ffd5b5061035f610e6f565b3480156104dc575f5ffd5b5061035f6104eb366004612b4f565b610e80565b3480156104fb575f5ffd5b505f54610420906001600160a01b031681565b348015610519575f5ffd5b5061035f610f96565b34801561052d575f5ffd5b5061035f61053c366004612e18565b610fdb565b34801561054c575f5ffd5b50610420611212565b348015610560575f5ffd5b506102c661123a565b348015610574575f5ffd5b5061035f610583366004612e56565b611278565b348015610593575f5ffd5b5061029f6105a2366004612e9d565b611490565b3480156105b2575f5ffd5b506103116105c1366004612b7a565b611568565b3480156105d1575f5ffd5b5061035f611575565b3480156105e5575f5ffd5b506102c6604051806040016040528060058152602001640352e302e360dc1b81525081565b348015610615575f5ffd5b5061029f610624366004612b4f565b611767565b348015610634575f5ffd5b5061029f610643366004612ed6565b611773565b348015610653575f5ffd5b5061029f610662366004612ed6565b61178c565b348015610672575f5ffd5b5061035f610681366004612b4f565b6117a6565b348015610691575f5ffd5b5061029f6118fe565b3480156106a5575f5ffd5b5061029f6106b4366004612b4f565b611965565b3480156106c4575f5ffd5b5061029f6106d3366004612cb8565b611970565b3480156106e3575f5ffd5b5061029f611983565b3480156106f7575f5ffd5b506107006119e2565b6040516102a9929190612f0a565b348015610719575f5ffd5b50600254610420906001600160a01b031681565b348015610738575f5ffd5b5061029f610747366004612cb8565b611b30565b348015610757575f5ffd5b5061029f610766366004612f93565b611b3a565b348015610776575f5ffd5b50610420611b83565b34801561078a575f5ffd5b50600154610420906001600160a01b031681565b3480156107a9575f5ffd5b5061035f6107b8366004612cb8565b611bab565b7f52c63247e1f47db19d5ce0460030c497f067ca4cebf71ba98eeadabe20bace0380546060915f51602061332a5f395f51905f52916107fb90612fbf565b80601f016020809104026020016040519081016040528092919081815260200182805461082790612fbf565b80156108725780601f1061084957610100808354040283529160200191610872565b820191905f5260205f20905b81548152906001019060200180831161085557829003601f168201915b505050505091505090565b5f610888825f611c30565b92915050565b5f3361089b818585611c3e565b5060019392505050565b5f610888826001611c50565b6108b9611d2a565b805f036108f2576108c8610dc1565b604051636b30633560e01b81526001600160a01b0390911660048201526024015b60405180910390fd5b335f90815260046020526040812054900361094957600680546001810182555f919091527ff652222313e28459528d920b65115c16c04f3efc82aaedc97be59f3f377c0d3f0180546001600160a01b031916331790555b335f908152600460205260408120805483929061096790849061300b565b909155505f9050610976610dc1565b6040516323b872dd60e01b8152336004820152306024820152604481018490526001600160a01b0391909116906323b872dd906064016020604051808303815f875af11580156109c8573d5f5f3e3d5ffd5b505050506040513d601f19601f820116820180604052508101906109ec919061301e565b905080610a0c576040516312171d8360e31b815260040160405180910390fd5b60065460405133917f03979a8c481a9e9c06938045cfd5c28535255cb003b10a8fe84ebb3cb4d440f291610a4891868252602082015260400190565b60405180910390a250610a6760015f51602061336a5f395f51905f5255565b50565b5f610a73611d74565b805490915060ff600160401b82041615906001600160401b03165f81158015610a995750825b90505f826001600160401b03166001148015610ab45750303b155b905081158015610ac2575080155b15610ae05760405163f92ee8a960e01b815260040160405180910390fd5b845467ffffffffffffffff191660011785558315610b0a57845460ff60401b1916600160401b1785555b610b7d8b8b8b8b8080601f0160208091040260200160405190810160405280939291908181526020018383808284375f9201919091525050604080516020601f8f018190048102820181019092528d815292508d91508c90819084018382808284375f92019190915250611d9c92505050565b8315610bc357845460ff60401b19168555604051600181527fc7f505b2f371ae2175ee4913f4499e1f2633a7b5936321eed1cdaeb6115181d29060200160405180910390a15b5050505050505050505050565b5f33610bdd858285611ec2565b610be8858585611f26565b60019150505b9392505050565b5f807f0773e532dfede91f04b12a73d3d2acd361424f41f76b4fb79f090161e36b4e0090505f8154610c319190600160a01b900460ff1661303d565b91505090565b5f5f9054906101000a90046001600160a01b03166001600160a01b0316633a0dad8e6040518163ffffffff1660e01b8152600401602060405180830381865afa158015610c86573d5f5f3e3d5ffd5b505050506040513d601f19601f82011682018060405250810190610caa9190613056565b6001600160a01b0316336001600160a01b031614610cdb57604051631af2ab4f60e31b815260040160405180910390fd5b610ce3611d2a565b6006545f5b81811015610da7575f60068281548110610d0457610d04613071565b5f9182526020808320909101546001600160a01b03168083526004909152604082205490925090610d3482611965565b6001600160a01b0384165f908152600460205260408120559050610d588382611f83565b60408051838152602081018690526001600160a01b038516917f782ea2005b7f873a0190a1ccb553c732171348d6e16d2b7d3d493c0677dc296e910160405180910390a2505050600101610ce8565b5050610dbf60015f51602061336a5f395f51905f5255565b565b5f807f0773e532dfede91f04b12a73d3d2acd361424f41f76b4fb79f090161e36b4e005b546001600160a01b031692915050565b610dfd611fb7565b610e068261205b565b610e108282612086565b5050565b5f610e1d612142565b505f51602061334a5f395f51905f5290565b5f6040516318f2e47360e11b815260040160405180910390fd5b6001600160a01b03165f9081525f51602061332a5f395f51905f52602052604090205490565b610e7761218b565b610dbf5f6121bd565b805f03610ea0576040516314e6cbb960e11b815260040160405180910390fd5b80610eaa33610e49565b1015610ec957604051633c57b48560e21b815260040160405180910390fd5b335f908152600560205260408120549003610f2057600780546001810182555f919091527fa66cc928b5edb82af9bd49922954155ab7b0942694bea4ce44661d9a8736c6880180546001600160a01b031916331790555b335f9081526005602052604081208054839290610f3e90849061300b565b90915550610f4f9050333083611f26565b60075460405133917fd72eb5d043f24a0168ae744d5c44f9596fd673a26bf74d9646bff4b844882d1491610f8b91858252602082015260400190565b60405180910390a250565b3380610fa0611b83565b6001600160a01b031614610fd25760405163118cdaa760e01b81526001600160a01b03821660048201526024016108e9565b610a67816121bd565b6001546001600160a01b03163314611006576040516356b381a560e01b815260040160405180910390fd5b5f81900361102757604051631121aa8d60e01b815260040160405180910390fd5b5f6110315f6121f5565b600b549091505f5b818110156110845782600a5f600b848154811061105857611058613071565b5f9182526020808320909101546001600160a01b03168352820192909252604001902055600101611039565b50611090600b5f612aec565b825f5b818110156111e0575f8686838181106110ae576110ae613071565b6110c49260206040909202019081019150612cb8565b5f54604051633af32abf60e01b81526001600160a01b038084166004830152929350911690633af32abf90602401602060405180830381865afa15801561110d573d5f5f3e3d5ffd5b505050506040513d601f19601f82011682018060405250810190611131919061301e565b6111595760405163751dff9760e11b81526001600160a01b03821660048201526024016108e9565b86868381811061116b5761116b613071565b6001600160a01b039093165f818152600a60209081526040808320960294909401939093013590935550600b805460018181018355919092527f0175b7a638427703f0dbe7bb9bbf987a2551717b34e79f33b5b1008d1fa01db990910180546001600160a01b03191690921790915501611093565b5060405133907f2d47a742b8d7df7c1fc5a9a631b206b364e6cb2722490759f63bb3ab14b132e0905f90a25050505050565b5f807f9016d09d72d40fdae2fd8ceac6b6234c7706214fd39c1cd1e609a0528c199300610de5565b7f52c63247e1f47db19d5ce0460030c497f067ca4cebf71ba98eeadabe20bace0480546060915f51602061332a5f395f51905f52916107fb90612fbf565b5f5f9054906101000a90046001600160a01b03166001600160a01b0316633a0dad8e6040518163ffffffff1660e01b8152600401602060405180830381865afa1580156112c7573d5f5f3e3d5ffd5b505050506040513d601f19601f820116820180604052508101906112eb9190613056565b6001600160a01b0316336001600160a01b03161461131c57604051631af2ab4f60e31b815260040160405180910390fd5b5f6113265f6121f5565b6009549091505f5b81811015611379578260085f6009848154811061134d5761134d613071565b5f9182526020808320909101546001600160a01b0316835282019290925260400190205560010161132e565b5061138560095f612aec565b5f5b81811015611450578585828181106113a1576113a1613071565b9050604002016020013560085f8888858181106113c0576113c0613071565b6113d69260206040909202019081019150612cb8565b6001600160a01b0316815260208101919091526040015f2055600986868381811061140357611403613071565b6114199260206040909202019081019150612cb8565b8154600180820184555f93845260209093200180546001600160a01b0319166001600160a01b039290921691909117905501611387565b5060038390556040518381527f5e1ff954b5e5257e9ee5d4cb07059e8f5e69b1aaaf9911e5d8d90a6894de9c219060200160405180910390a15050505050565b5f5f6114ba7f52c63247e1f47db19d5ce0460030c497f067ca4cebf71ba98eeadabe20bace025490565b90505f5f5f9054906101000a90046001600160a01b03166001600160a01b031663b71ee4fc6040518163ffffffff1660e01b8152600401602060405180830381865afa15801561150c573d5f5f3e3d5ffd5b505050506040513d601f19601f820116820180604052508101906115309190613085565b905061155e61154086600161300b565b61154b83600a613188565b611555908561300b565b88919087612201565b9695505050505050565b5f3361089b818585611f26565b5f5f9054906101000a90046001600160a01b03166001600160a01b0316633a0dad8e6040518163ffffffff1660e01b8152600401602060405180830381865afa1580156115c4573d5f5f3e3d5ffd5b505050506040513d601f19601f820116820180604052508101906115e89190613056565b6001600160a01b0316336001600160a01b03161461161957604051631af2ab4f60e31b815260040160405180910390fd5b611621611d2a565b6007545f5b81811015610da7575f6007828154811061164257611642613071565b5f9182526020808320909101546001600160a01b0316808352600590915260408220805492905591506116753082612243565b5f61167f8261087d565b9050611689610dc1565b60405163a9059cbb60e01b81526001600160a01b03858116600483015260248201849052919091169063a9059cbb906044016020604051808303815f875af11580156116d7573d5f5f3e3d5ffd5b505050506040513d601f19601f820116820180604052508101906116fb919061301e565b611718576040516312171d8360e31b815260040160405180910390fd5b60408051838152602081018690526001600160a01b038516917febad37b830b1857ef9af5983fc20dc0ded12dc472ba1e22e06fd3a9465b4506c910160405180910390a2505050600101611626565b5f610888826001611c30565b5f604051628a595160e01b815260040160405180910390fd5b5f604051630ad8521960e31b815260040160405180910390fd5b6117ae611d2a565b805f036117bd576108c8610dc1565b335f908152600460205260409020548111156117ec576040516332194fd360e21b815260040160405180910390fd5b335f908152600460205260408120805483929061180a908490613196565b90915550506006545f61181b610dc1565b60405163a9059cbb60e01b8152336004820152602481018590526001600160a01b03919091169063a9059cbb906044016020604051808303815f875af1158015611867573d5f5f3e3d5ffd5b505050506040513d601f19601f8201168201806040525081019061188b919061301e565b9050806118ab576040516312171d8360e31b815260040160405180910390fd5b604080518481526020810184905233917f2b19ac8271899522bfff26e405c20643af4cdf99b525ef2cd8cde689644874ae910160405180910390a25050610a6760015f51602061336a5f395f51905f5255565b6007545f908190815b8181101561195d5760055f6007838154811061192557611925613071565b5f9182526020808320909101546001600160a01b03168352820192909252604001902054611953908461300b565b9250600101611907565b509092915050565b5f610888825f611c50565b5f61088861197d83610e49565b5f611c30565b6006545f908190815b8181101561195d5760045f600683815481106119aa576119aa613071565b5f9182526020808320909101546001600160a01b031683528201929092526040019020546119d8908461300b565b925060010161198c565b6009546060908190806001600160401b03811115611a0257611a02612cd3565b604051908082528060200260200182016040528015611a2b578160200160208202803683370190505b509250806001600160401b03811115611a4657611a46612cd3565b604051908082528060200260200182016040528015611a6f578160200160208202803683370190505b5091505f5b81811015611b2a575f60098281548110611a9057611a90613071565b905f5260205f20015f9054906101000a90046001600160a01b0316905080858381518110611ac057611ac0613071565b60200260200101906001600160a01b031690816001600160a01b03168152505060085f826001600160a01b03166001600160a01b031681526020019081526020015f2054848381518110611b1657611b16613071565b602090810291909101015250600101611a74565b50509091565b5f61088882610e49565b6001600160a01b039182165f9081527f52c63247e1f47db19d5ce0460030c497f067ca4cebf71ba98eeadabe20bace016020908152604080832093909416825291909152205490565b5f807f237e158222e3e6968b72b9db0d8043aacf074ad9f650f0d1606b4d82ee432c00610de5565b611bb361218b565b7f237e158222e3e6968b72b9db0d8043aacf074ad9f650f0d1606b4d82ee432c0080546001600160a01b0319166001600160a01b0383169081178255611bf7611212565b6001600160a01b03167f38d16b8cac22d99fc7c124b9cd0de2d3fa1faef420bfe791d8c362d765e2270060405160405180910390a35050565b5f610bee8360035484611490565b611c4b8383836001612277565b505050565b5f5f611c7a7f52c63247e1f47db19d5ce0460030c497f067ca4cebf71ba98eeadabe20bace025490565b90505f5f5f9054906101000a90046001600160a01b03166001600160a01b031663b71ee4fc6040518163ffffffff1660e01b8152600401602060405180830381865afa158015611ccc573d5f5f3e3d5ffd5b505050506040513d601f19601f82011682018060405250810190611cf09190613085565b9050611d21611d0082600a613188565b611d0a908461300b565b600354611d1890600161300b565b87919087612201565b95945050505050565b5f51602061336a5f395f51905f52805460011901611d5b57604051633ee5aeb560e01b815260040160405180910390fd5b60029055565b60015f51602061336a5f395f51905f5255565b5f807ff0c57e16840df040f15088dc2f81fe391c3923bec73e23a9662efc9c229c6a00610888565b611da461235b565b6001600160a01b038416611dcb57604051639c6bb9f560e01b815260040160405180910390fd5b6001600160a01b038316611df257604051636a485a5b60e11b815260040160405180910390fd5b611dfc8282612380565b611e64836001600160a01b0316637158da7c6040518163ffffffff1660e01b8152600401602060405180830381865afa158015611e3b573d5f5f3e3d5ffd5b505050506040513d601f19601f82011682018060405250810190611e5f9190613056565b612392565b611e6c6123a3565b611e75846123b3565b611e7d6123c4565b611e856123c4565b5050600280546001600160a01b03199081163317909155600180546001600160a01b039485169083161790555f8054929093169116178155600355565b5f611ecd8484611b3a565b90505f19811015611f205781811015611f1257604051637dc7a0d960e11b81526001600160a01b038416600482015260248101829052604481018390526064016108e9565b611f2084848484035f612277565b50505050565b6001600160a01b038316611f4f57604051634b637e8f60e11b81525f60048201526024016108e9565b6001600160a01b038216611f785760405163ec442f0560e01b81525f60048201526024016108e9565b611c4b8383836123cc565b6001600160a01b038216611fac5760405163ec442f0560e01b81525f60048201526024016108e9565b610e105f83836123cc565b306001600160a01b037f000000000000000000000000000000000000000000000000000000000000000016148061203d57507f00000000000000000000000000000000000000000000000000000000000000006001600160a01b03166120315f51602061334a5f395f51905f52546001600160a01b031690565b6001600160a01b031614155b15610dbf5760405163703e46dd60e11b815260040160405180910390fd5b6001546001600160a01b03163314610a67576040516356b381a560e01b815260040160405180910390fd5b816001600160a01b03166352d1902d6040518163ffffffff1660e01b8152600401602060405180830381865afa9250505080156120e0575060408051601f3d908101601f191682019092526120dd918101906131a9565b60015b61210857604051634c9c8ce360e01b81526001600160a01b03831660048201526024016108e9565b5f51602061334a5f395f51905f52811461213857604051632a87526960e21b8152600481018290526024016108e9565b611c4b8383612505565b306001600160a01b037f00000000000000000000000000000000000000000000000000000000000000001614610dbf5760405163703e46dd60e11b815260040160405180910390fd5b33612194611212565b6001600160a01b031614610dbf5760405163118cdaa760e01b81523360048201526024016108e9565b7f237e158222e3e6968b72b9db0d8043aacf074ad9f650f0d1606b4d82ee432c0080546001600160a01b0319168155610e108261255a565b5f6108888260046125ca565b5f61222e61220e83612678565b801561222957505f8480612224576122246131c0565b868809115b151590565b6122398686866126a4565b611d21919061300b565b6001600160a01b03821661226c57604051634b637e8f60e11b81525f60048201526024016108e9565b610e10825f836123cc565b5f51602061332a5f395f51905f526001600160a01b0385166122ae5760405163e602df0560e01b81525f60048201526024016108e9565b6001600160a01b0384166122d757604051634a1406b160e11b81525f60048201526024016108e9565b6001600160a01b038086165f9081526001830160209081526040808320938816835292905220839055811561235457836001600160a01b0316856001600160a01b03167f8c5be1e5ebec7d5bd14f71427d1e84f3dd0314c0f7b2291e5b200ac8c7c3b9258560405161234b91815260200190565b60405180910390a35b5050505050565b612363612754565b610dbf57604051631afcd79f60e31b815260040160405180910390fd5b61238861235b565b610e10828261276d565b61239a61235b565b610a67816127bd565b6123ab61235b565b610dbf612840565b6123bb61235b565b610a6781612848565b610dbf61235b565b5f51602061332a5f395f51905f526001600160a01b0384166124065781816002015f8282546123fb919061300b565b909155506124769050565b6001600160a01b0384165f90815260208290526040902054828110156124585760405163391434e360e21b81526001600160a01b038616600482015260248101829052604481018490526064016108e9565b6001600160a01b0385165f9081526020839052604090209083900390555b6001600160a01b0383166124945760028101805483900390556124b2565b6001600160a01b0383165f9081526020829052604090208054830190555b826001600160a01b0316846001600160a01b03167fddf252ad1be2c89b69c2b068fc378daa952ba7f163c4a11628f55a4df523b3ef846040516124f791815260200190565b60405180910390a350505050565b61250e82612879565b6040516001600160a01b038316907fbc7cd75a20ee27fd9adebab32041f755214dbc6bffa90cc0225b39da2e5c2d3b905f90a280511561255257611c4b82826128dc565b610e10612945565b7f9016d09d72d40fdae2fd8ceac6b6234c7706214fd39c1cd1e609a0528c19930080546001600160a01b031981166001600160a01b03848116918217845560405192169182907f8be0079c531659141344cd1fd0a4f28419497f9722a3daafe3b4186f6b6457e0905f90a3505050565b5f807fed8d60e34876f751cc8b014c560745351147d9de11b9347c854e881b128ea6006001810154604051631ce2e8d760e31b8152600481018790526001600160f81b031960f887901b1660248201529192506001600160a01b03169063e71746b8906044016020604051808303815f875af115801561264c573d5f5f3e3d5ffd5b505050506040513d601f19601f8201168201806040525081019061267091906131a9565b949350505050565b5f600282600381111561268d5761268d6131d4565b61269791906131e8565b60ff166001149050919050565b5f5f5f6126b18686612964565b91509150815f036126d5578381816126cb576126cb6131c0565b0492505050610bee565b8184116126ec576126ec6003851502601118612980565b5f848688095f868103871696879004966002600389028118808a02820302808a02820302808a02820302808a02820302808a02820302808a02909103029181900381900460010185841190960395909502919093039390930492909217029150509392505050565b5f61275d611d74565b54600160401b900460ff16919050565b61277561235b565b5f51602061332a5f395f51905f527f52c63247e1f47db19d5ce0460030c497f067ca4cebf71ba98eeadabe20bace036127ae8482613259565b5060048101611f208382613259565b6127c561235b565b7f0773e532dfede91f04b12a73d3d2acd361424f41f76b4fb79f090161e36b4e005f806127f184612991565b9150915081612801576012612803565b805b83546001600160a81b031916600160a01b60ff92909216919091026001600160a01b031916176001600160a01b0394909416939093179091555050565b611d6161235b565b61285061235b565b6001600160a01b038116610fd257604051631e4fbdf760e01b81525f60048201526024016108e9565b806001600160a01b03163b5f036128ae57604051634c9c8ce360e01b81526001600160a01b03821660048201526024016108e9565b5f51602061334a5f395f51905f5280546001600160a01b0319166001600160a01b0392909216919091179055565b60605f5f846001600160a01b0316846040516128f89190613313565b5f60405180830381855af49150503d805f8114612930576040519150601f19603f3d011682016040523d82523d5f602084013e612935565b606091505b5091509150611d21858383612a67565b3415610dbf5760405163b398979f60e01b815260040160405180910390fd5b5f805f1983850993909202808410938190039390930393915050565b634e487b715f52806020526024601cfd5b60408051600481526024810182526020810180516001600160e01b031663313ce56760e01b17905290515f918291829182916001600160a01b038716916129d791613313565b5f60405180830381855afa9150503d805f8114612a0f576040519150601f19603f3d011682016040523d82523d5f602084013e612a14565b606091505b5091509150818015612a2857506020815110155b15612a5b575f81806020019051810190612a4291906131a9565b905060ff8111612a59576001969095509350505050565b505b505f9485945092505050565b606082612a7c57612a7782612ac3565b610bee565b8151158015612a9357506001600160a01b0384163b155b15612abc57604051639996b31560e01b81526001600160a01b03851660048201526024016108e9565b5080610bee565b805115612ad35780518082602001fd5b60405163d6bda27560e01b815260040160405180910390fd5b5080545f8255905f5260205f2090810190610a6791905b80821115612b16575f8155600101612b03565b5090565b602081525f82518060208401528060208501604085015e5f604082850101526040601f19601f83011684010191505092915050565b5f60208284031215612b5f575f5ffd5b5035919050565b6001600160a01b0381168114610a67575f5ffd5b5f5f60408385031215612b8b575f5ffd5b8235612b9681612b66565b946020939093013593505050565b5f5f83601f840112612bb4575f5ffd5b5081356001600160401b03811115612bca575f5ffd5b602083019150836020828501011115612be1575f5ffd5b9250929050565b5f5f5f5f5f5f60808789031215612bfd575f5ffd5b8635612c0881612b66565b95506020870135612c1881612b66565b945060408701356001600160401b03811115612c32575f5ffd5b612c3e89828a01612ba4565b90955093505060608701356001600160401b03811115612c5c575f5ffd5b612c6889828a01612ba4565b979a9699509497509295939492505050565b5f5f5f60608486031215612c8c575f5ffd5b8335612c9781612b66565b92506020840135612ca781612b66565b929592945050506040919091013590565b5f60208284031215612cc8575f5ffd5b8135610bee81612b66565b634e487b7160e01b5f52604160045260245ffd5b5f5f60408385031215612cf8575f5ffd5b8235612d0381612b66565b915060208301356001600160401b03811115612d1d575f5ffd5b8301601f81018513612d2d575f5ffd5b80356001600160401b03811115612d4657612d46612cd3565b604051601f8201601f19908116603f011681016001600160401b0381118282101715612d7457612d74612cd3565b604052818152828201602001871015612d8b575f5ffd5b816020840160208301375f602083830101528093505050509250929050565b5f5f60408385031215612dbb575f5ffd5b823591506020830135612dcd81612b66565b809150509250929050565b5f5f83601f840112612de8575f5ffd5b5081356001600160401b03811115612dfe575f5ffd5b6020830191508360208260061b8501011115612be1575f5ffd5b5f5f60208385031215612e29575f5ffd5b82356001600160401b03811115612e3e575f5ffd5b612e4a85828601612dd8565b90969095509350505050565b5f5f5f60408486031215612e68575f5ffd5b83356001600160401b03811115612e7d575f5ffd5b612e8986828701612dd8565b909790965060209590950135949350505050565b5f5f5f60608486031215612eaf575f5ffd5b8335925060208401359150604084013560048110612ecb575f5ffd5b809150509250925092565b5f5f5f60608486031215612ee8575f5ffd5b833592506020840135612efa81612b66565b91506040840135612ecb81612b66565b604080825283519082018190525f9060208501906060840190835b81811015612f4c5783516001600160a01b0316835260209384019390920191600101612f25565b5050838103602080860191909152855180835291810192508501905f5b81811015612f87578251845260209384019390920191600101612f69565b50919695505050505050565b5f5f60408385031215612fa4575f5ffd5b8235612faf81612b66565b91506020830135612dcd81612b66565b600181811c90821680612fd357607f821691505b602082108103612ff157634e487b7160e01b5f52602260045260245ffd5b50919050565b634e487b7160e01b5f52601160045260245ffd5b8082018082111561088857610888612ff7565b5f6020828403121561302e575f5ffd5b81518015158114610bee575f5ffd5b60ff818116838216019081111561088857610888612ff7565b5f60208284031215613066575f5ffd5b8151610bee81612b66565b634e487b7160e01b5f52603260045260245ffd5b5f60208284031215613095575f5ffd5b815160ff81168114610bee575f5ffd5b6001815b60018411156130e0578085048111156130c4576130c4612ff7565b60018416156130d257908102905b60019390931c9280026130a9565b935093915050565b5f826130f657506001610888565b8161310257505f610888565b816001811461311857600281146131225761313e565b6001915050610888565b60ff84111561313357613133612ff7565b50506001821b610888565b5060208310610133831016604e8410600b8410161715613161575081810a610888565b61316d5f1984846130a5565b805f190482111561318057613180612ff7565b029392505050565b5f610bee60ff8416836130e8565b8181038181111561088857610888612ff7565b5f602082840312156131b9575f5ffd5b5051919050565b634e487b7160e01b5f52601260045260245ffd5b634e487b7160e01b5f52602160045260245ffd5b5f60ff83168061320657634e487b7160e01b5f52601260045260245ffd5b8060ff84160691505092915050565b601f821115611c4b57805f5260205f20601f840160051c8101602085101561323a5750805b601f840160051c820191505b81811015612354575f8155600101613246565b81516001600160401b0381111561327257613272612cd3565b613286816132808454612fbf565b84613215565b6020601f8211600181146132b8575f83156132a15750848201515b5f19600385901b1c1916600184901b178455612354565b5f84815260208120601f198516915b828110156132e757878501518255602094850194600190920191016132c7565b508482101561330457868401515f19600387901b60f8161c191681555b50505050600190811b01905550565b5f82518060208501845e5f92019182525091905056fe52c63247e1f47db19d5ce0460030c497f067ca4cebf71ba98eeadabe20bace00360894a13ba1a3210667c828492db98dca3e2076cc3735a920a3ca505d382bbc9b779b17422d0df92223018b32b4d1fa46e071723d6817e2486d003becc55f00a2646970667358221220701fe048155f55538568fe2c3f424dc7f80d4506662a430ba1f5c628bec7d65964736f6c634300081c0033",
  "linkReferences": {},
  "deployedLinkReferences": {}
}