{
  "_format": "hh-sol-artifact-1",
  "contractName": "OrionEncryptedVault",
  "sourceName": "contracts/vaults/OrionEncryptedVault.sol",
  "abi": [
    {
      "inputs": [
        {
          "internalType": "address",
          "name": "vaultOwner",
          "type": "address"
        },
        {
          "internalType": "address",
          "name": "curator",
          "type": "address"
        },
        {
          "internalType": "contract IOrionConfig",
          "name": "configAddress",
          "type": "address"
        },
        {
          "internalType": "string",
          "name": "name",
          "type": "string"
        },
        {
          "internalType": "string",
          "name": "symbol",
          "type": "string"
        }
      ],
      "stateMutability": "nonpayable",
      "type": "constructor"
    },
    {
      "inputs": [
        {
          "internalType": "address",
          "name": "asset",
          "type": "address"
        }
      ],
      "name": "AmountMustBeGreaterThanZero",
      "type": "error"
    },
    {
      "inputs": [
        {
          "internalType": "address",
          "name": "spender",
          "type": "address"
        },
        {
          "internalType": "uint256",
          "name": "allowance",
          "type": "uint256"
        },
        {
          "internalType": "uint256",
          "name": "needed",
          "type": "uint256"
        }
      ],
      "name": "ERC20InsufficientAllowance",
      "type": "error"
    },
    {
      "inputs": [
        {
          "internalType": "address",
          "name": "sender",
          "type": "address"
        },
        {
          "internalType": "uint256",
          "name": "balance",
          "type": "uint256"
        },
        {
          "internalType": "uint256",
          "name": "needed",
          "type": "uint256"
        }
      ],
      "name": "ERC20InsufficientBalance",
      "type": "error"
    },
    {
      "inputs": [
        {
          "internalType": "address",
          "name": "approver",
          "type": "address"
        }
      ],
      "name": "ERC20InvalidApprover",
      "type": "error"
    },
    {
      "inputs": [
        {
          "internalType": "address",
          "name": "receiver",
          "type": "address"
        }
      ],
      "name": "ERC20InvalidReceiver",
      "type": "error"
    },
    {
      "inputs": [
        {
          "internalType": "address",
          "name": "sender",
          "type": "address"
        }
      ],
      "name": "ERC20InvalidSender",
      "type": "error"
    },
    {
      "inputs": [
        {
          "internalType": "address",
          "name": "spender",
          "type": "address"
        }
      ],
      "name": "ERC20InvalidSpender",
      "type": "error"
    },
    {
      "inputs": [
        {
          "internalType": "address",
          "name": "receiver",
          "type": "address"
        },
        {
          "internalType": "uint256",
          "name": "assets",
          "type": "uint256"
        },
        {
          "internalType": "uint256",
          "name": "max",
          "type": "uint256"
        }
      ],
      "name": "ERC4626ExceededMaxDeposit",
      "type": "error"
    },
    {
      "inputs": [
        {
          "internalType": "address",
          "name": "receiver",
          "type": "address"
        },
        {
          "internalType": "uint256",
          "name": "shares",
          "type": "uint256"
        },
        {
          "internalType": "uint256",
          "name": "max",
          "type": "uint256"
        }
      ],
      "name": "ERC4626ExceededMaxMint",
      "type": "error"
    },
    {
      "inputs": [
        {
          "internalType": "address",
          "name": "owner",
          "type": "address"
        },
        {
          "internalType": "uint256",
          "name": "shares",
          "type": "uint256"
        },
        {
          "internalType": "uint256",
          "name": "max",
          "type": "uint256"
        }
      ],
      "name": "ERC4626ExceededMaxRedeem",
      "type": "error"
    },
    {
      "inputs": [
        {
          "internalType": "address",
          "name": "owner",
          "type": "address"
        },
        {
          "internalType": "uint256",
          "name": "assets",
          "type": "uint256"
        },
        {
          "internalType": "uint256",
          "name": "max",
          "type": "uint256"
        }
      ],
      "name": "ERC4626ExceededMaxWithdraw",
      "type": "error"
    },
    {
      "inputs": [],
      "name": "HandlesAlreadySavedForRequestID",
      "type": "error"
    },
    {
      "inputs": [
        {
          "internalType": "address",
          "name": "sender",
          "type": "address"
        },
        {
          "internalType": "uint256",
          "name": "balance",
          "type": "uint256"
        },
        {
          "internalType": "uint256",
          "name": "amount",
          "type": "uint256"
        }
      ],
      "name": "InsufficientFunds",
      "type": "error"
    },
    {
      "inputs": [],
      "name": "InvalidAddress",
      "type": "error"
    },
    {
      "inputs": [],
      "name": "InvalidKMSSignatures",
      "type": "error"
    },
    {
      "inputs": [],
      "name": "InvalidUnderlyingDecimals",
      "type": "error"
    },
    {
      "inputs": [],
      "name": "NoHandleFoundForRequestID",
      "type": "error"
    },
    {
      "inputs": [],
      "name": "NotEnoughDepositRequest",
      "type": "error"
    },
    {
      "inputs": [],
      "name": "NotEnoughWithdrawRequest",
      "type": "error"
    },
    {
      "inputs": [],
      "name": "OrderIntentCannotBeEmpty",
      "type": "error"
    },
    {
      "inputs": [],
      "name": "ReentrancyGuardReentrantCall",
      "type": "error"
    },
    {
      "inputs": [],
      "name": "SynchronousCallDisabled",
      "type": "error"
    },
    {
      "inputs": [
        {
          "internalType": "address",
          "name": "token",
          "type": "address"
        }
      ],
      "name": "TokenAlreadyInOrder",
      "type": "error"
    },
    {
      "inputs": [
        {
          "internalType": "address",
          "name": "token",
          "type": "address"
        }
      ],
      "name": "TokenNotWhitelisted",
      "type": "error"
    },
    {
      "inputs": [],
      "name": "TransferFailed",
      "type": "error"
    },
    {
      "inputs": [],
      "name": "UnauthorizedAccess",
      "type": "error"
    },
    {
      "inputs": [],
      "name": "UnsupportedHandleType",
      "type": "error"
    },
    {
      "anonymous": false,
      "inputs": [
        {
          "indexed": true,
          "internalType": "address",
          "name": "owner",
          "type": "address"
        },
        {
          "indexed": true,
          "internalType": "address",
          "name": "spender",
          "type": "address"
        },
        {
          "indexed": false,
          "internalType": "uint256",
          "name": "value",
          "type": "uint256"
        }
      ],
      "name": "Approval",
      "type": "event"
    },
    {
      "anonymous": false,
      "inputs": [
        {
          "indexed": true,
          "internalType": "uint256",
          "name": "requestID",
          "type": "uint256"
        }
      ],
      "name": "DecryptionFulfilled",
      "type": "event"
    },
    {
      "anonymous": false,
      "inputs": [
        {
          "indexed": true,
          "internalType": "address",
          "name": "sender",
          "type": "address"
        },
        {
          "indexed": true,
          "internalType": "address",
          "name": "owner",
          "type": "address"
        },
        {
          "indexed": false,
          "internalType": "uint256",
          "name": "assets",
          "type": "uint256"
        },
        {
          "indexed": false,
          "internalType": "uint256",
          "name": "shares",
          "type": "uint256"
        }
      ],
      "name": "Deposit",
      "type": "event"
    },
    {
      "anonymous": false,
      "inputs": [
        {
          "indexed": true,
          "internalType": "address",
          "name": "user",
          "type": "address"
        },
        {
          "indexed": false,
          "internalType": "uint256",
          "name": "amount",
          "type": "uint256"
        }
      ],
      "name": "DepositProcessed",
      "type": "event"
    },
    {
      "anonymous": false,
      "inputs": [
        {
          "indexed": true,
          "internalType": "address",
          "name": "user",
          "type": "address"
        },
        {
          "indexed": false,
          "internalType": "uint256",
          "name": "amount",
          "type": "uint256"
        }
      ],
      "name": "DepositRequestCancelled",
      "type": "event"
    },
    {
      "anonymous": false,
      "inputs": [
        {
          "indexed": true,
          "internalType": "address",
          "name": "user",
          "type": "address"
        },
        {
          "indexed": false,
          "internalType": "uint256",
          "name": "amount",
          "type": "uint256"
        }
      ],
      "name": "DepositRequested",
      "type": "event"
    },
    {
      "anonymous": false,
      "inputs": [
        {
          "indexed": true,
          "internalType": "address",
          "name": "curator",
          "type": "address"
        }
      ],
      "name": "OrderSubmitted",
      "type": "event"
    },
    {
      "anonymous": false,
      "inputs": [
        {
          "indexed": true,
          "internalType": "address",
          "name": "from",
          "type": "address"
        },
        {
          "indexed": true,
          "internalType": "address",
          "name": "to",
          "type": "address"
        },
        {
          "indexed": false,
          "internalType": "uint256",
          "name": "value",
          "type": "uint256"
        }
      ],
      "name": "Transfer",
      "type": "event"
    },
    {
      "anonymous": false,
      "inputs": [
        {
          "indexed": false,
          "internalType": "uint256",
          "name": "newTotalAssets",
          "type": "uint256"
        }
      ],
      "name": "VaultStateUpdated",
      "type": "event"
    },
    {
      "anonymous": false,
      "inputs": [
        {
          "indexed": true,
          "internalType": "address",
          "name": "sender",
          "type": "address"
        },
        {
          "indexed": true,
          "internalType": "address",
          "name": "receiver",
          "type": "address"
        },
        {
          "indexed": true,
          "internalType": "address",
          "name": "owner",
          "type": "address"
        },
        {
          "indexed": false,
          "internalType": "uint256",
          "name": "assets",
          "type": "uint256"
        },
        {
          "indexed": false,
          "internalType": "uint256",
          "name": "shares",
          "type": "uint256"
        }
      ],
      "name": "Withdraw",
      "type": "event"
    },
    {
      "anonymous": false,
      "inputs": [
        {
          "indexed": true,
          "internalType": "address",
          "name": "user",
          "type": "address"
        },
        {
          "indexed": false,
          "internalType": "uint256",
          "name": "shares",
          "type": "uint256"
        }
      ],
      "name": "WithdrawProcessed",
      "type": "event"
    },
    {
      "anonymous": false,
      "inputs": [
        {
          "indexed": true,
          "internalType": "address",
          "name": "user",
          "type": "address"
        },
        {
          "indexed": false,
          "internalType": "uint256",
          "name": "shares",
          "type": "uint256"
        }
      ],
      "name": "WithdrawRequestCancelled",
      "type": "event"
    },
    {
      "anonymous": false,
      "inputs": [
        {
          "indexed": true,
          "internalType": "address",
          "name": "user",
          "type": "address"
        },
        {
          "indexed": false,
          "internalType": "uint256",
          "name": "shares",
          "type": "uint256"
        }
      ],
      "name": "WithdrawRequested",
      "type": "event"
    },
    {
      "inputs": [
        {
          "internalType": "address",
          "name": "owner",
          "type": "address"
        },
        {
          "internalType": "address",
          "name": "spender",
          "type": "address"
        }
      ],
      "name": "allowance",
      "outputs": [
        {
          "internalType": "uint256",
          "name": "",
          "type": "uint256"
        }
      ],
      "stateMutability": "view",
      "type": "function"
    },
    {
      "inputs": [
        {
          "internalType": "address",
          "name": "spender",
          "type": "address"
        },
        {
          "internalType": "uint256",
          "name": "value",
          "type": "uint256"
        }
      ],
      "name": "approve",
      "outputs": [
        {
          "internalType": "bool",
          "name": "",
          "type": "bool"
        }
      ],
      "stateMutability": "nonpayable",
      "type": "function"
    },
    {
      "inputs": [],
      "name": "asset",
      "outputs": [
        {
          "internalType": "address",
          "name": "",
          "type": "address"
        }
      ],
      "stateMutability": "view",
      "type": "function"
    },
    {
      "inputs": [
        {
          "internalType": "address",
          "name": "account",
          "type": "address"
        }
      ],
      "name": "balanceOf",
      "outputs": [
        {
          "internalType": "uint256",
          "name": "",
          "type": "uint256"
        }
      ],
      "stateMutability": "view",
      "type": "function"
    },
    {
      "inputs": [
        {
          "internalType": "uint256",
          "name": "requestID",
          "type": "uint256"
        },
        {
          "internalType": "bool",
          "name": "decryptedInput",
          "type": "bool"
        },
        {
          "internalType": "bytes[]",
          "name": "signatures",
          "type": "bytes[]"
        }
      ],
      "name": "callbackDecryptSingleEbool",
      "outputs": [],
      "stateMutability": "nonpayable",
      "type": "function"
    },
    {
      "inputs": [
        {
          "internalType": "uint256",
          "name": "amount",
          "type": "uint256"
        }
      ],
      "name": "cancelDepositRequest",
      "outputs": [],
      "stateMutability": "nonpayable",
      "type": "function"
    },
    {
      "inputs": [
        {
          "internalType": "uint256",
          "name": "shares",
          "type": "uint256"
        }
      ],
      "name": "cancelWithdrawRequest",
      "outputs": [],
      "stateMutability": "nonpayable",
      "type": "function"
    },
    {
      "inputs": [],
      "name": "config",
      "outputs": [
        {
          "internalType": "contract IOrionConfig",
          "name": "",
          "type": "address"
        }
      ],
      "stateMutability": "view",
      "type": "function"
    },
    {
      "inputs": [
        {
          "internalType": "uint256",
          "name": "shares",
          "type": "uint256"
        }
      ],
      "name": "convertToAssets",
      "outputs": [
        {
          "internalType": "uint256",
          "name": "",
          "type": "uint256"
        }
      ],
      "stateMutability": "view",
      "type": "function"
    },
    {
      "inputs": [
        {
          "internalType": "uint256",
          "name": "shares",
          "type": "uint256"
        },
        {
          "internalType": "uint256",
          "name": "pointInTimeTotalAssets",
          "type": "uint256"
        },
        {
          "internalType": "enum Math.Rounding",
          "name": "rounding",
          "type": "uint8"
        }
      ],
      "name": "convertToAssetsWithPITTotalAssets",
      "outputs": [
        {
          "internalType": "uint256",
          "name": "",
          "type": "uint256"
        }
      ],
      "stateMutability": "view",
      "type": "function"
    },
    {
      "inputs": [
        {
          "internalType": "uint256",
          "name": "assets",
          "type": "uint256"
        }
      ],
      "name": "convertToShares",
      "outputs": [
        {
          "internalType": "uint256",
          "name": "",
          "type": "uint256"
        }
      ],
      "stateMutability": "view",
      "type": "function"
    },
    {
      "inputs": [],
      "name": "curator",
      "outputs": [
        {
          "internalType": "address",
          "name": "",
          "type": "address"
        }
      ],
      "stateMutability": "view",
      "type": "function"
    },
    {
      "inputs": [],
      "name": "decimals",
      "outputs": [
        {
          "internalType": "uint8",
          "name": "",
          "type": "uint8"
        }
      ],
      "stateMutability": "view",
      "type": "function"
    },
    {
      "inputs": [
        {
          "internalType": "uint256",
          "name": "",
          "type": "uint256"
        },
        {
          "internalType": "address",
          "name": "",
          "type": "address"
        }
      ],
      "name": "deposit",
      "outputs": [
        {
          "internalType": "uint256",
          "name": "",
          "type": "uint256"
        }
      ],
      "stateMutability": "pure",
      "type": "function"
    },
    {
      "inputs": [],
      "name": "getIntent",
      "outputs": [
        {
          "internalType": "address[]",
          "name": "tokens",
          "type": "address[]"
        },
        {
          "internalType": "euint32[]",
          "name": "weights",
          "type": "bytes32[]"
        }
      ],
      "stateMutability": "view",
      "type": "function"
    },
    {
      "inputs": [],
      "name": "getPendingDeposits",
      "outputs": [
        {
          "internalType": "uint256",
          "name": "",
          "type": "uint256"
        }
      ],
      "stateMutability": "view",
      "type": "function"
    },
    {
      "inputs": [],
      "name": "getPendingWithdrawals",
      "outputs": [
        {
          "internalType": "uint256",
          "name": "",
          "type": "uint256"
        }
      ],
      "stateMutability": "view",
      "type": "function"
    },
    {
      "inputs": [],
      "name": "getPortfolio",
      "outputs": [
        {
          "internalType": "address[]",
          "name": "tokens",
          "type": "address[]"
        },
        {
          "internalType": "euint32[]",
          "name": "sharesPerAsset",
          "type": "bytes32[]"
        }
      ],
      "stateMutability": "view",
      "type": "function"
    },
    {
      "inputs": [
        {
          "internalType": "address",
          "name": "",
          "type": "address"
        }
      ],
      "name": "maxDeposit",
      "outputs": [
        {
          "internalType": "uint256",
          "name": "",
          "type": "uint256"
        }
      ],
      "stateMutability": "view",
      "type": "function"
    },
    {
      "inputs": [
        {
          "internalType": "address",
          "name": "",
          "type": "address"
        }
      ],
      "name": "maxMint",
      "outputs": [
        {
          "internalType": "uint256",
          "name": "",
          "type": "uint256"
        }
      ],
      "stateMutability": "view",
      "type": "function"
    },
    {
      "inputs": [
        {
          "internalType": "address",
          "name": "owner",
          "type": "address"
        }
      ],
      "name": "maxRedeem",
      "outputs": [
        {
          "internalType": "uint256",
          "name": "",
          "type": "uint256"
        }
      ],
      "stateMutability": "view",
      "type": "function"
    },
    {
      "inputs": [
        {
          "internalType": "address",
          "name": "owner",
          "type": "address"
        }
      ],
      "name": "maxWithdraw",
      "outputs": [
        {
          "internalType": "uint256",
          "name": "",
          "type": "uint256"
        }
      ],
      "stateMutability": "view",
      "type": "function"
    },
    {
      "inputs": [
        {
          "internalType": "uint256",
          "name": "",
          "type": "uint256"
        },
        {
          "internalType": "address",
          "name": "",
          "type": "address"
        }
      ],
      "name": "mint",
      "outputs": [
        {
          "internalType": "uint256",
          "name": "",
          "type": "uint256"
        }
      ],
      "stateMutability": "pure",
      "type": "function"
    },
    {
      "inputs": [],
      "name": "name",
      "outputs": [
        {
          "internalType": "string",
          "name": "",
          "type": "string"
        }
      ],
      "stateMutability": "view",
      "type": "function"
    },
    {
      "inputs": [
        {
          "internalType": "uint256",
          "name": "assets",
          "type": "uint256"
        }
      ],
      "name": "previewDeposit",
      "outputs": [
        {
          "internalType": "uint256",
          "name": "",
          "type": "uint256"
        }
      ],
      "stateMutability": "view",
      "type": "function"
    },
    {
      "inputs": [
        {
          "internalType": "uint256",
          "name": "shares",
          "type": "uint256"
        }
      ],
      "name": "previewMint",
      "outputs": [
        {
          "internalType": "uint256",
          "name": "",
          "type": "uint256"
        }
      ],
      "stateMutability": "view",
      "type": "function"
    },
    {
      "inputs": [
        {
          "internalType": "uint256",
          "name": "shares",
          "type": "uint256"
        }
      ],
      "name": "previewRedeem",
      "outputs": [
        {
          "internalType": "uint256",
          "name": "",
          "type": "uint256"
        }
      ],
      "stateMutability": "view",
      "type": "function"
    },
    {
      "inputs": [
        {
          "internalType": "uint256",
          "name": "assets",
          "type": "uint256"
        }
      ],
      "name": "previewWithdraw",
      "outputs": [
        {
          "internalType": "uint256",
          "name": "",
          "type": "uint256"
        }
      ],
      "stateMutability": "view",
      "type": "function"
    },
    {
      "inputs": [],
      "name": "processDepositRequests",
      "outputs": [],
      "stateMutability": "nonpayable",
      "type": "function"
    },
    {
      "inputs": [],
      "name": "processWithdrawRequests",
      "outputs": [],
      "stateMutability": "nonpayable",
      "type": "function"
    },
    {
      "inputs": [
        {
          "internalType": "uint256",
          "name": "",
          "type": "uint256"
        },
        {
          "internalType": "address",
          "name": "",
          "type": "address"
        },
        {
          "internalType": "address",
          "name": "",
          "type": "address"
        }
      ],
      "name": "redeem",
      "outputs": [
        {
          "internalType": "uint256",
          "name": "",
          "type": "uint256"
        }
      ],
      "stateMutability": "pure",
      "type": "function"
    },
    {
      "inputs": [
        {
          "internalType": "uint256",
          "name": "amount",
          "type": "uint256"
        }
      ],
      "name": "requestDeposit",
      "outputs": [],
      "stateMutability": "nonpayable",
      "type": "function"
    },
    {
      "inputs": [
        {
          "internalType": "uint256",
          "name": "shares",
          "type": "uint256"
        }
      ],
      "name": "requestWithdraw",
      "outputs": [],
      "stateMutability": "nonpayable",
      "type": "function"
    },
    {
      "inputs": [
        {
          "components": [
            {
              "internalType": "address",
              "name": "token",
              "type": "address"
            },
            {
              "internalType": "externalEuint32",
              "name": "weight",
              "type": "bytes32"
            }
          ],
          "internalType": "struct IOrionEncryptedVault.EncryptedIntent[]",
          "name": "intent",
          "type": "tuple[]"
        },
        {
          "internalType": "bytes",
          "name": "inputProof",
          "type": "bytes"
        }
      ],
      "name": "submitIntent",
      "outputs": [],
      "stateMutability": "nonpayable",
      "type": "function"
    },
    {
      "inputs": [],
      "name": "symbol",
      "outputs": [
        {
          "internalType": "string",
          "name": "",
          "type": "string"
        }
      ],
      "stateMutability": "view",
      "type": "function"
    },
    {
      "inputs": [],
      "name": "totalAssets",
      "outputs": [
        {
          "internalType": "uint256",
          "name": "",
          "type": "uint256"
        }
      ],
      "stateMutability": "view",
      "type": "function"
    },
    {
      "inputs": [],
      "name": "totalSupply",
      "outputs": [
        {
          "internalType": "uint256",
          "name": "",
          "type": "uint256"
        }
      ],
      "stateMutability": "view",
      "type": "function"
    },
    {
      "inputs": [
        {
          "internalType": "address",
          "name": "to",
          "type": "address"
        },
        {
          "internalType": "uint256",
          "name": "value",
          "type": "uint256"
        }
      ],
      "name": "transfer",
      "outputs": [
        {
          "internalType": "bool",
          "name": "",
          "type": "bool"
        }
      ],
      "stateMutability": "nonpayable",
      "type": "function"
    },
    {
      "inputs": [
        {
          "internalType": "address",
          "name": "from",
          "type": "address"
        },
        {
          "internalType": "address",
          "name": "to",
          "type": "address"
        },
        {
          "internalType": "uint256",
          "name": "value",
          "type": "uint256"
        }
      ],
      "name": "transferFrom",
      "outputs": [
        {
          "internalType": "bool",
          "name": "",
          "type": "bool"
        }
      ],
      "stateMutability": "nonpayable",
      "type": "function"
    },
    {
      "inputs": [
        {
          "internalType": "address",
          "name": "newCurator",
          "type": "address"
        }
      ],
      "name": "updateCurator",
      "outputs": [],
      "stateMutability": "nonpayable",
      "type": "function"
    },
    {
      "inputs": [
        {
          "components": [
            {
              "internalType": "address",
              "name": "token",
              "type": "address"
            },
            {
              "internalType": "euint32",
              "name": "value",
              "type": "bytes32"
            }
          ],
          "internalType": "struct IOrionEncryptedVault.EncryptedPortfolio[]",
          "name": "portfolio",
          "type": "tuple[]"
        },
        {
          "internalType": "uint256",
          "name": "newTotalAssets",
          "type": "uint256"
        }
      ],
      "name": "updateVaultState",
      "outputs": [],
      "stateMutability": "nonpayable",
      "type": "function"
    },
    {
      "inputs": [],
      "name": "vaultOwner",
      "outputs": [
        {
          "internalType": "address",
          "name": "",
          "type": "address"
        }
      ],
      "stateMutability": "view",
      "type": "function"
    },
    {
      "inputs": [
        {
          "internalType": "uint256",
          "name": "",
          "type": "uint256"
        },
        {
          "internalType": "address",
          "name": "",
          "type": "address"
        },
        {
          "internalType": "address",
          "name": "",
          "type": "address"
        }
      ],
      "name": "withdraw",
      "outputs": [
        {
          "internalType": "uint256",
          "name": "",
          "type": "uint256"
        }
      ],
      "stateMutability": "pure",
      "type": "function"
    }
  ],
  "bytecode": "0x60c060405234801561000f575f5ffd5b506040516144a53803806144a583398101604081905261002e916106b3565b8484848484826001600160a01b0316637158da7c6040518163ffffffff1660e01b8152600401602060405180830381865afa15801561006f573d5f5f3e3d5ffd5b505050506040513d601f19601f820116820180604052508101906100939190610751565b8282610138610133604080516080810182525f808252602082018190529181018290526060810191909152506040805160808101825273687820221192c5b662b25367f70076a37bc79b6c815273848b0066793bcc60346da1f49049357399b8d5956020820152731364cbbf2cdf5032c47d8226a6f6fbd2afcdacac9181019190915273bc91f3dad1a5f19f8390c400196e58073b6a0bc4606082015290565b610370565b61015573a02cda4ca3a71d7c46997716f4283aa851c28812610429565b600361016183826107f7565b50600461016e82826107f7565b5050505f5f6101828361046660201b60201c565b9150915081610192576012610194565b805b60ff1660a05250506001600160a01b03908116608052600160055584166101ce5760405163e6c4247b60e01b815260040160405180910390fd5b6001600160a01b0383166101f55760405163e6c4247b60e01b815260040160405180910390fd5b600780546001600160a01b038088166001600160a01b031992831617909255600880548784169083161790556006805492861692909116821790555f60098190556010819055601181905560408051631c56369f60e21b81529051919291637158da7c916004808201926020929091908290030181865afa15801561027c573d5f5f3e3d5ffd5b505050506040513d601f19601f820116820180604052508101906102a09190610751565b6001600160a01b031663313ce5676040518163ffffffff1660e01b8152600401602060405180830381865afa1580156102db573d5f5f3e3d5ffd5b505050506040513d601f19601f820116820180604052508101906102ff91906108b1565b905060128160ff16111561032657604051631c03248960e11b815260040160405180910390fd5b5f6103328260126108e5565b905061033f81600a6109e1565b6012555061035595505f94505061053c92505050565b6018556103626001610554565b60195550610a4c9350505050565b80515f5160206144655f395f51905f5280546001600160a01b03199081166001600160a01b039384161790915560208301515f5160206144855f395f51905f528054831691841691909117905560408301517fed8d60e34876f751cc8b014c560745351147d9de11b9347c854e881b128ea6028054831691841691909117905560608301517fed8d60e34876f751cc8b014c560745351147d9de11b9347c854e881b128ea6038054909216921691909117905550565b50565b7f5ea69329017273582817d320489fbd94f775580e90c092699ca6f3d12fdf7d0080546001600160a01b0319166001600160a01b03831617905550565b60408051600481526024810182526020810180516001600160e01b031663313ce56760e01b17905290515f918291829182916001600160a01b038716916104ac916109ef565b5f60405180830381855afa9150503d805f81146104e4576040519150601f19603f3d011682016040523d82523d5f602084013e6104e9565b606091505b50915091508180156104fd57506020815110155b15610530575f818060200190518101906105179190610a05565b905060ff811161052e576001969095509350505050565b505b505f9485945092505050565b5f61054e63ffffffff8316600461056b565b92915050565b5f61054e82610563575f610566565b60015b60ff165f5b5f5160206144855f395f51905f5254604051639cd07acb60e01b81525f915f5160206144655f395f51905f52916001600160a01b0390911690639cd07acb906105ba9087908790600401610a1c565b6020604051808303815f875af11580156105d6573d5f5f3e3d5ffd5b505050506040513d601f19601f820116820180604052508101906105fa9190610a05565b949350505050565b6001600160a01b0381168114610426575f5ffd5b634e487b7160e01b5f52604160045260245ffd5b5f82601f830112610639575f5ffd5b81516001600160401b0381111561065257610652610616565b604051601f8201601f19908116603f011681016001600160401b038111828210171561068057610680610616565b604052818152838201602001851015610697575f5ffd5b8160208501602083015e5f918101602001919091529392505050565b5f5f5f5f5f60a086880312156106c7575f5ffd5b85516106d281610602565b60208701519095506106e381610602565b60408701519094506106f481610602565b60608701519093506001600160401b0381111561070f575f5ffd5b61071b8882890161062a565b608088015190935090506001600160401b03811115610738575f5ffd5b6107448882890161062a565b9150509295509295909350565b5f60208284031215610761575f5ffd5b815161076c81610602565b9392505050565b600181811c9082168061078757607f821691505b6020821081036107a557634e487b7160e01b5f52602260045260245ffd5b50919050565b601f8211156107f257805f5260205f20601f840160051c810160208510156107d05750805b601f840160051c820191505b818110156107ef575f81556001016107dc565b50505b505050565b81516001600160401b0381111561081057610810610616565b6108248161081e8454610773565b846107ab565b6020601f821160018114610856575f831561083f5750848201515b5f19600385901b1c1916600184901b1784556107ef565b5f84815260208120601f198516915b828110156108855787850151825560209485019460019092019101610865565b50848210156108a257868401515f19600387901b60f8161c191681555b50505050600190811b01905550565b5f602082840312156108c1575f5ffd5b815160ff8116811461076c575f5ffd5b634e487b7160e01b5f52601160045260245ffd5b60ff828116828216039081111561054e5761054e6108d1565b6001815b60018411156109395780850481111561091d5761091d6108d1565b600184161561092b57908102905b60019390931c928002610902565b935093915050565b5f8261094f5750600161054e565b8161095b57505f61054e565b8160018114610971576002811461097b57610997565b600191505061054e565b60ff84111561098c5761098c6108d1565b50506001821b61054e565b5060208310610133831016604e8410600b84101617156109ba575081810a61054e565b6109c65f1984846108fe565b805f19048211156109d9576109d96108d1565b029392505050565b5f61076c60ff841683610941565b5f82518060208501845e5f920191825250919050565b5f60208284031215610a15575f5ffd5b5051919050565b8281526040810160548310610a3f57634e487b7160e01b5f52602160045260245ffd5b8260208301529392505050565b60805160a0516139f8610a6d5f395f61086801525f610b5801526139f85ff3fe608060405234801561000f575f5ffd5b50600436106101f7575f3560e01c806301e1d114146101fb57806306fdde031461021257806307a2d13a14610227578063095ea7b31461023a5780630a28a4771461025d5780630c6a62dd146102705780630d1e66671461028557806318160ddd146102985780631f52692b146102a057806323b872dd146102c0578063313ce567146102d357806333fdc592146102ed57806338d52e0f146102f5578063402d267d146102fd5780634cdad5061461022757806358df8301146103115780636e553f651461032457806370a0823114610337578063745400c91461034a57806379502c551461035d57806394bf804d1461032457806395d89b41146103705780639adb298114610378578063a68a52671461038b578063a9059cbb1461039e578063aa9d3a60146103b1578063b3d7f6b9146103b9578063b460af94146103cc578063b6eba653146103da578063ba087652146103cc578063c0b568e1146103f0578063c37fc8a814610403578063c392e58c1461040b578063c63d75b6146102fd578063c6e6f5921461041e578063cce4705b14610431578063ce96cb7714610444578063d1699c2614610457578063d3d034581461045f578063d905777e14610467578063dd62ed3e1461047a578063e66f53b71461048d578063ef8b30f71461041e575b5f5ffd5b6009545b6040519081526020015b60405180910390f35b61021a6104a0565b6040516102099190613069565b6101ff61023536600461307b565b610530565b61024d6102483660046130a6565b610541565b6040519015158152602001610209565b6101ff61026b36600461307b565b610558565b61028361027e3660046130d0565b610564565b005b61028361029336600461307b565b6105d8565b6002546101ff565b6007546102b3906001600160a01b031681565b60405161020991906130eb565b61024d6102ce3660046130ff565b61083c565b6102db610861565b60405160ff9091168152602001610209565b610283610891565b6102b3610b56565b6101ff61030b3660046130d0565b505f1990565b61028361031f36600461318e565b610b7a565b6101ff6103323660046132cf565b610b99565b6101ff6103453660046130d0565b610bb3565b61028361035836600461307b565b610bcd565b6006546102b3906001600160a01b031681565b61021a610d8f565b61028361038636600461333d565b610d9e565b6101ff610399366004613384565b610fcb565b61024d6103ac3660046130a6565b611005565b610283611012565b6101ff6103c736600461307b565b611374565b6101ff6103323660046133bd565b6103e2611380565b6040516102099291906133f1565b6102836103fe36600461307b565b611501565b6011546101ff565b61028361041936600461347a565b6116a3565b6101ff61042c36600461307b565b611c31565b61028361043f36600461307b565b611c3c565b6101ff6104523660046130d0565b611de1565b6010546101ff565b6103e2611df4565b6101ff6104753660046130d0565b611f58565b6101ff610488366004613510565b611f62565b6008546102b3906001600160a01b031681565b6060600380546104af9061353c565b80601f01602080910402602001604051908101604052809291908181526020018280546104db9061353c565b80156105265780601f106104fd57610100808354040283529160200191610526565b820191905f5260205f20905b81548152906001019060200180831161050957829003601f168201915b5050505050905090565b5f61053b825f611f8c565b92915050565b5f3361054e818585611f9a565b5060019392505050565b5f61053b826001611fac565b6007546001600160a01b0316331461058f57604051631a27eac360e11b815260040160405180910390fd5b6001600160a01b0381166105b65760405163e6c4247b60e01b815260040160405180910390fd5b600880546001600160a01b0319166001600160a01b0392909216919091179055565b6105e0611fe9565b805f03610612576105ef610b56565b604051636b30633560e01b815260040161060991906130eb565b60405180910390fd5b5f61061b610b56565b6001600160a01b03166370a08231336040518263ffffffff1660e01b815260040161064691906130eb565b602060405180830381865afa158015610661573d5f5f3e3d5ffd5b505050506040513d601f19601f820116820180604052508101906106859190613574565b9050808211156106ae57338183604051632e2a182f60e11b81526004016106099392919061358b565b5f6106b7610b56565b6001600160a01b03166323b872dd3360065f9054906101000a90046001600160a01b03166001600160a01b0316633a0dad8e6040518163ffffffff1660e01b8152600401602060405180830381865afa158015610716573d5f5f3e3d5ffd5b505050506040513d601f19601f8201168201806040525081019061073a91906135ac565b866040518463ffffffff1660e01b8152600401610759939291906135c7565b6020604051808303815f875af1158015610775573d5f5f3e3d5ffd5b505050506040513d601f19601f8201168201806040525081019061079991906135eb565b9050806107b9576040516312171d8360e31b815260040160405180910390fd5b5f6107c5600a33612013565b91506107e09050336107d7868461361a565b600a9190612039565b508360105f8282546107f2919061361a565b909155505060405184815233907f08d79f77ab5f78e7e780abb1f7ac9e9923340d5bae78f6e83e7999905b248ea29060200160405180910390a25050506108396001600555565b50565b5f3361084985828561204e565b610854858585612099565b60019150505b9392505050565b5f61088c817f000000000000000000000000000000000000000000000000000000000000000061362d565b905090565b60065f9054906101000a90046001600160a01b03166001600160a01b0316633a0dad8e6040518163ffffffff1660e01b8152600401602060405180830381865afa1580156108e1573d5f5f3e3d5ffd5b505050506040513d601f19601f8201168201806040525081019061090591906135ac565b6001600160a01b0316336001600160a01b03161461093657604051631a27eac360e11b815260040160405180910390fd5b61093e611fe9565b5f610949600a6120f6565b90505f8163ffffffff166001600160401b0381111561096a5761096a61314a565b604051908082528060200260200182016040528015610993578160200160208202803683370190505b5090505f8263ffffffff166001600160401b038111156109b5576109b561314a565b6040519080825280602002602001820160405280156109de578160200160208202803683370190505b5090505f5b8363ffffffff168163ffffffff161015610a78575f80610a0d600a63ffffffff8086169061210016565b9150915081858463ffffffff1681518110610a2a57610a2a613646565b60200260200101906001600160a01b031690816001600160a01b03168152505080848463ffffffff1681518110610a6357610a63613646565b602090810291909101015250506001016109e3565b505f5b8363ffffffff168163ffffffff161015610b45575f838263ffffffff1681518110610aa857610aa8613646565b602002602001015190505f838363ffffffff1681518110610acb57610acb613646565b602002602001015190505f610adf82611c31565b9050610aec600a8461210e565b50610af78382612122565b826001600160a01b03167f85a190caa61692b36b63a55e069330d18ab9af179fed7a25c16a4262bc63b7d283604051610b3291815260200190565b60405180910390a2505050600101610a7b565b50505f60105550506001600555565b565b7f000000000000000000000000000000000000000000000000000000000000000090565b610b84838261215a565b50601a805460ff191691151591909117905550565b5f60405163125ad87760e31b815260040160405180910390fd5b6001600160a01b03165f9081526020819052604090205490565b805f03610bef5730604051636b30633560e01b815260040161060991906130eb565b5f610bf933610bb3565b905080821115610c2257338183604051632e2a182f60e11b81526004016106099392919061358b565b60065460408051631d06d6c760e11b815290515f9230926323b872dd9233926001600160a01b031691633a0dad8e9160048083019260209291908290030181865afa158015610c73573d5f5f3e3d5ffd5b505050506040513d601f19601f82011682018060405250810190610c9791906135ac565b866040518463ffffffff1660e01b8152600401610cb6939291906135c7565b6020604051808303815f875af1158015610cd2573d5f5f3e3d5ffd5b505050506040513d601f19601f82011682018060405250810190610cf691906135eb565b905080610d16576040516312171d8360e31b815260040160405180910390fd5b5f610d22600d33612013565b9150610d3d905033610d34868461361a565b600d9190612039565b508360115f828254610d4f919061361a565b909155505060405184815233907ff7774b688d56120b783560a913ee60792a73dfd511812b7be5eccf10d08c66899060200160405180910390a250505050565b6060600480546104af9061353c565b60065f9054906101000a90046001600160a01b03166001600160a01b0316633a0dad8e6040518163ffffffff1660e01b8152600401602060405180830381865afa158015610dee573d5f5f3e3d5ffd5b505050506040513d601f19601f82011682018060405250810190610e1291906135ac565b6001600160a01b0316336001600160a01b031614610e4357604051631a27eac360e11b815260040160405180910390fd5b6014545f5b8161ffff168161ffff161015610ea15760185460135f60148461ffff1681548110610e7557610e75613646565b5f9182526020808320909101546001600160a01b03168352820192909252604001902055600101610e48565b50610ead60145f612fcb565b5f5b8161ffff168161ffff161015610f8c5784848261ffff16818110610ed557610ed5613646565b9050604002016020013560135f87878561ffff16818110610ef857610ef8613646565b610f0e92602060409092020190810191506130d0565b6001600160a01b0316815260208101919091526040015f20556014858561ffff8416818110610f3f57610f3f613646565b610f5592602060409092020190810191506130d0565b8154600180820184555f93845260209093200180546001600160a01b0319166001600160a01b039290921691909117905501610eaf565b5060098290556040518281527f5e1ff954b5e5257e9ee5d4cb07059e8f5e69b1aaaf9911e5d8d90a6894de9c219060200160405180910390a150505050565b5f5f610fd660025490565b9050610ffc610fe685600161361a565b601254610ff3908461361a565b879190866121c1565b95945050505050565b5f3361054e818585612099565b60065f9054906101000a90046001600160a01b03166001600160a01b0316633a0dad8e6040518163ffffffff1660e01b8152600401602060405180830381865afa158015611062573d5f5f3e3d5ffd5b505050506040513d601f19601f8201168201806040525081019061108691906135ac565b6001600160a01b0316336001600160a01b0316146110b757604051631a27eac360e11b815260040160405180910390fd5b6110bf611fe9565b5f6110ca600d6120f6565b90505f8163ffffffff166001600160401b038111156110eb576110eb61314a565b604051908082528060200260200182016040528015611114578160200160208202803683370190505b5090505f8263ffffffff166001600160401b038111156111365761113661314a565b60405190808252806020026020018201604052801561115f578160200160208202803683370190505b5090505f5b8363ffffffff168163ffffffff1610156111f9575f8061118e600d63ffffffff8086169061210016565b9150915081858463ffffffff16815181106111ab576111ab613646565b60200260200101906001600160a01b031690816001600160a01b03168152505080848463ffffffff16815181106111e4576111e4613646565b60209081029190910101525050600101611164565b505f60118190555b8363ffffffff168163ffffffff161015611366575f838263ffffffff168151811061122e5761122e613646565b602002602001015190505f838363ffffffff168151811061125157611251613646565b6020026020010151905061126f82600d61210e90919063ffffffff16565b5061127a3082612203565b5f61128482610530565b905061128e610b56565b6001600160a01b031663a9059cbb84836040518363ffffffff1660e01b81526004016112bb92919061365a565b6020604051808303815f875af11580156112d7573d5f5f3e3d5ffd5b505050506040513d601f19601f820116820180604052508101906112fb91906135eb565b611318576040516312171d8360e31b815260040160405180910390fd5b826001600160a01b03167f44b2ff9ffcefe2052a8afdbed44a04bf3db4592ae90c6b96c818bd28573e41e88360405161135391815260200190565b60405180910390a2505050600101611201565b50505050610b546001600555565b5f61053b826001611f8c565b601654606090819061ffff81166001600160401b038111156113a4576113a461314a565b6040519080825280602002602001820160405280156113cd578160200160208202803683370190505b5092508061ffff166001600160401b038111156113ec576113ec61314a565b604051908082528060200260200182016040528015611415578160200160208202803683370190505b5091505f5b8161ffff168161ffff1610156114fb5760168161ffff168154811061144157611441613646565b905f5260205f20015f9054906101000a90046001600160a01b0316848261ffff168151811061147257611472613646565b60200260200101906001600160a01b031690816001600160a01b03168152505060155f60168361ffff16815481106114ac576114ac613646565b5f9182526020808320909101546001600160a01b031683528201929092526040019020548351849061ffff84169081106114e8576114e8613646565b602090810291909101015260010161141a565b50509091565b611509611fe9565b805f03611518576105ef610b56565b5f611524600a33612013565b91505081811015611548576040516332194fd360e21b815260040160405180910390fd5b60065f9054906101000a90046001600160a01b03166001600160a01b0316633a0dad8e6040518163ffffffff1660e01b8152600401602060405180830381865afa158015611598573d5f5f3e3d5ffd5b505050506040513d601f19601f820116820180604052508101906115bc91906135ac565b6001600160a01b03166351edffb133846040518363ffffffff1660e01b81526004016115e992919061365a565b5f604051808303815f87803b158015611600575f5ffd5b505af1158015611612573d5f5f3e3d5ffd5b505050505f82826116239190613673565b9050805f0361163d57611637600a3361210e565b5061164b565b611649600a3383612039565b505b8260105f82825461165c9190613673565b909155505060405183815233907f96a9a6886cdf3047a125454218a23d3961fd3a78643123b248a9d106d0ac94fd906020015b60405180910390a250506108396001600555565b6008546001600160a01b031633146116ce57604051631a27eac360e11b815260040160405180910390fd5b6116d6611fe9565b5f8390036116f757604051631121aa8d60e01b815260040160405180910390fd5b60185483905f61ffff83166001600160401b038111156117195761171961314a565b604051908082528060200260200182016040528015611742578160200160208202803683370190505b5090505f8361ffff166001600160401b038111156117625761176261314a565b60405190808252806020026020018201604052801561178b578160200160208202803683370190505b506019549091505f5b8561ffff168161ffff1610156119bc575f8a8a8361ffff168181106117bb576117bb613646565b6117d192602060409092020190810191506130d0565b600654604051633af32abf60e01b81529192506001600160a01b031690633af32abf906118029084906004016130eb565b602060405180830381865afa15801561181d573d5f5f3e3d5ffd5b505050506040513d601f19601f8201168201806040525081019061184191906135eb565b611860578060405163751dff9760e11b815260040161060991906130eb565b5f6118bf8c8c8561ffff1681811061187a5761187a613646565b905060400201602001358b8b8080601f0160208091040260200160405190810160405280939291908181526020018383808284375f9201919091525061223792505050565b90506118ca81612244565b505f6118d882601854612253565b90506118e48582612281565b6001600160a01b0384165f9081526017602052604090205490955060ff161561192257826040516346bdabe160e01b815260040161060991906130eb565b6001600160a01b0383165f908152601760205260409020805460ff1916600117905586518390889061ffff871690811061195e5761195e613646565b60200260200101906001600160a01b031690816001600160a01b03168152505081868561ffff168151811061199557611995613646565b6020026020010181815250506119ab88836122af565b975050600190920191506117949050565b505f611a4560065f9054906101000a90046001600160a01b03166001600160a01b031663d1717c7d6040518163ffffffff1660e01b8152600401602060405180830381865afa158015611a11573d5f5f3e3d5ffd5b505050506040513d601f19601f82011682018060405250810190611a359190613686565b611a4090600a613789565b6122dd565b90505f611a5286836122ef565b90505f611a5f8483612281565b9050611a6a81612244565b506040805160018082528183019092525f916020808301908036833701905050905081815f81518110611a9f57611a9f613646565b6020908102919091010152611abb816358df830160e01b61231d565b505f5b60165461ffff9081169082161015611b195760185460155f60168461ffff1681548110611aed57611aed613646565b5f9182526020808320909101546001600160a01b03168352820192909252604001902055600101611abe565b50611b2560165f612fcb565b5f5b8961ffff168161ffff161015611bed575f888261ffff1681518110611b4e57611b4e613646565b60200260200101519050878261ffff1681518110611b6e57611b6e613646565b6020908102919091018101516001600160a01b039092165f818152601583526040808220949094556016805460018181019092557fd833147d7dc355ba459fc788f669e58cfaf9dc25ddcd0702e87d69c7b51242890180546001600160a01b031916841790559181526017909252919020805460ff1916905501611b27565b5060405133907f2d47a742b8d7df7c1fc5a9a631b206b364e6cb2722490759f63bb3ab14b132e0905f90a2505050505050505050611c2b6001600555565b50505050565b5f61053b825f611fac565b611c44611fe9565b805f03611c665730604051636b30633560e01b815260040161060991906130eb565b5f611c72600d33612013565b91505081811015611c96576040516312ea1f4960e11b815260040160405180910390fd5b60065f9054906101000a90046001600160a01b03166001600160a01b0316633a0dad8e6040518163ffffffff1660e01b8152600401602060405180830381865afa158015611ce6573d5f5f3e3d5ffd5b505050506040513d601f19601f82011682018060405250810190611d0a91906135ac565b6001600160a01b031663be186b2033846040518363ffffffff1660e01b8152600401611d3792919061365a565b5f604051808303815f87803b158015611d4e575f5ffd5b505af1158015611d60573d5f5f3e3d5ffd5b505050505f8282611d719190613673565b9050805f03611d8b57611d85600d3361210e565b50611d99565b611d97600d3383612039565b505b8260115f828254611daa9190613673565b909155505060405183815233907f9cf37535785001dcc9767688232fcbc8698b3002d1207b50bc2afec3ff8934dc9060200161168f565b5f61053b611dee83610bb3565b5f611f8c565b601454606090819061ffff81166001600160401b03811115611e1857611e1861314a565b604051908082528060200260200182016040528015611e41578160200160208202803683370190505b5092508061ffff166001600160401b03811115611e6057611e6061314a565b604051908082528060200260200182016040528015611e89578160200160208202803683370190505b5091505f5b8161ffff168161ffff1610156114fb575f60148261ffff1681548110611eb657611eb6613646565b905f5260205f20015f9054906101000a90046001600160a01b0316905080858361ffff1681518110611eea57611eea613646565b60200260200101906001600160a01b031690816001600160a01b03168152505060135f826001600160a01b03166001600160a01b031681526020019081526020015f2054848361ffff1681518110611f4457611f44613646565b602090810291909101015250600101611e8e565b5f61053b82610bb3565b6001600160a01b039182165f90815260016020908152604080832093909416825291909152205490565b5f61085a8360095484610fcb565b611fa78383836001612329565b505050565b5f5f611fb760025490565b9050611fe160125482611fca919061361a565b600954611fd890600161361a565b869190866121c1565b949350505050565b60026005540361200c57604051633ee5aeb560e01b815260040160405180910390fd5b6002600555565b5f80808061202a866001600160a01b0387166123fb565b909450925050505b9250929050565b5f611fe1846001600160a01b03851684612433565b5f6120598484611f62565b90505f19811015611c2b578181101561208b57828183604051637dc7a0d960e11b81526004016106099392919061358b565b611c2b84848484035f612329565b6001600160a01b0383166120c2575f604051634b637e8f60e11b815260040161060991906130eb565b6001600160a01b0382166120eb575f60405163ec442f0560e01b815260040161060991906130eb565b611fa783838361244f565b5f61053b82612562565b5f80808061202a868661256c565b5f61085a836001600160a01b038416612595565b6001600160a01b03821661214b575f60405163ec442f0560e01b815260040161060991906130eb565b6121565f838361244f565b5050565b5f612164836125b1565b90505f612171828461264d565b9050806121915760405163cf6c44e960e01b815260040160405180910390fd5b60405184907f1af0453083661051f6e56e5c070792320652e612154bf9af8637bb1e7655b99d905f90a250505050565b5f6121ee6121ce83612734565b80156121e957505f84806121e4576121e4613797565b868809115b151590565b6121f9868686612760565b610ffc919061361a565b6001600160a01b03821661222c575f604051634b637e8f60e11b815260040161060991906130eb565b612156825f8361244f565b5f61085a83836004612810565b5f61224f82306128fa565b5090565b5f82612265576122625f6122dd565b92505b81612276576122735f6122dd565b91505b61085a83835f612967565b5f82612293576122905f612a07565b92505b816122a4576122a15f612a07565b91505b61085a83835f612a22565b5f826122c1576122be5f6122dd565b92505b816122d2576122cf5f6122dd565b91505b61085a83835f612a78565b5f61053b8263ffffffff166004612ace565b5f82612301576122fe5f6122dd565b92505b816123125761230f5f6122dd565b91505b61085a83835f612b4d565b5f61085a83835f612ba3565b6001600160a01b038416612352575f60405163e602df0560e01b815260040161060991906130eb565b6001600160a01b03831661237b575f604051634a1406b160e11b815260040161060991906130eb565b6001600160a01b038085165f9081526001602090815260408083209387168352929052208290558015611c2b57826001600160a01b0316846001600160a01b03167f8c5be1e5ebec7d5bd14f71427d1e84f3dd0314c0f7b2291e5b200ac8c7c3b925846040516123ed91815260200190565b60405180910390a350505050565b5f8181526002830160205260408120548190806124285761241c8585612ca8565b92505f91506120329050565b600192509050612032565b5f8281526002840160205260408120829055611fe18484612cb3565b6001600160a01b038316612479578060025f82825461246e919061361a565b909155506124d69050565b6001600160a01b0383165f90815260208190526040902054818110156124b85783818360405163391434e360e21b81526004016106099392919061358b565b6001600160a01b0384165f9081526020819052604090209082900390555b6001600160a01b0382166124f257600280548290039055612510565b6001600160a01b0382165f9081526020819052604090208054820190555b816001600160a01b0316836001600160a01b03167fddf252ad1be2c89b69c2b068fc378daa952ba7f163c4a11628f55a4df523b3ef8360405161255591815260200190565b60405180910390a3505050565b5f61053b82612cbe565b5f80806125798585612cc7565b5f81815260029690960160205260409095205494959350505050565b5f818152600283016020526040812081905561085a8383612cd2565b60605f6125bc612cdd565b5f848152600282016020526040812054919250036125ed5760405163d66ca67560e01b815260040160405180910390fd5b5f8381526002820160209081526040918290208054835181840281018401909452808452909183018282801561264057602002820191905f5260205f20905b81548152602001906001019080831161262c575b5050505050915050919050565b5f60248161265a85612d01565b90505f816001600160401b038111156126755761267561314a565b6040519080825280601f01601f19166020018201604052801561269f576020820181803683370190505b509050818360208301375f6126b2612dae565b6002810154604051632c027b1360e21b81529192506001600160a01b03169063b009ec4c906126e9908a9086908b906004016137e5565b6020604051808303815f875af1158015612705573d5f5f3e3d5ffd5b505050506040513d601f19601f8201168201806040525081019061272991906135eb565b979650505050505050565b5f60028260038111156127495761274961386f565b6127539190613883565b60ff166001149050919050565b5f5f5f61276d8686612dd2565b91509150815f036127915783818161278757612787613797565b049250505061085a565b8184116127a8576127a86003851502601118612dee565b5f848688095f868103871696879004966002600389028118808a02820302808a02820302808a02820302808a02820302808a02820302808a02909103029181900381900460010185841190960395909502919093039390930492909217029150509392505050565b5f5f61281a612dae565b600181015460405163196d0b9b60e01b81529192506001600160a01b03169063196d0b9b906128539088903390899089906004016138d0565b6020604051808303815f875af115801561286f573d5f5f3e3d5ffd5b505050506040513d601f19601f820116820180604052508101906128939190613574565b8154604051630f8e573b60e21b81529193506001600160a01b031690633e395cec906128c59085903390600401613908565b5f604051808303815f87803b1580156128dc575f5ffd5b505af11580156128ee573d5f5f3e3d5ffd5b50505050509392505050565b5f612903612dae565b8054604051635ca4b5b160e11b81529192506001600160a01b03169063b9496b62906129359086908690600401613908565b5f604051808303815f87803b15801561294c575f5ffd5b505af115801561295e573d5f5f3e3d5ffd5b50505050505050565b5f5f821561297a5750600160f81b61297d565b505f5b5f612986612dae565b60018101546040516385362ee760e01b81529192506001600160a01b0316906385362ee7906129bd9089908990879060040161391f565b6020604051808303815f875af11580156129d9573d5f5f3e3d5ffd5b505050506040513d601f19601f820116820180604052508101906129fd9190613574565b9695505050505050565b5f61053b82612a16575f612a19565b60015b60ff165f612ace565b5f5f8215612a355750600160f81b612a38565b505f5b5f612a41612dae565b600181015460405163d99882d560e01b81529192506001600160a01b03169063d99882d5906129bd9089908990879060040161391f565b5f5f8215612a8b5750600160f81b612a8e565b505f5b5f612a97612dae565b600181015460405163022f65e760e31b81529192506001600160a01b03169063117b2f38906129bd9089908990879060040161391f565b5f5f612ad8612dae565b6001810154604051639cd07acb60e01b81529192506001600160a01b031690639cd07acb90612b0d908790879060040161393f565b6020604051808303815f875af1158015612b29573d5f5f3e3d5ffd5b505050506040513d601f19601f82011682018060405250810190611fe19190613574565b5f5f8215612b605750600160f81b612b63565b505f5b5f612b6c612dae565b600181015460405163f77f3f1d60e01b81529192506001600160a01b03169063f77f3f1d906129bd9089908990879060040161391f565b5f5f612bad612cdd565b9050806001015491505f612bbf612dae565b8054604051637d6e912360e11b81529192506001600160a01b03169063fadd224690612bef908990600401613953565b5f604051808303815f87803b158015612c06575f5ffd5b505af1158015612c18573d5f5f3e3d5ffd5b50508354604051633263b83b60e01b81526001600160a01b039091169250633263b83b91508690612c519087908b908b90600401613965565b5f604051808303818588803b158015612c68575f5ffd5b505af1158015612c7a573d5f5f3e3d5ffd5b5050505050612c898387612dff565b600182018054905f612c9a83613996565b919050555050509392505050565b5f61085a8383612e59565b5f61085a8383612e64565b5f61053b825490565b5f61085a8383612eab565b5f61085a8383612ed1565b7f5ea69329017273582817d320489fbd94f775580e90c092699ca6f3d12fdf7d0090565b80515f9081805b82811015612da2575f858281518110612d2357612d23613646565b6020026020010151601e60208110612d3d57612d3d613646565b1a6053811115612d4f57612d4f61386f565b90506009816053811115612d6557612d6561386f565b60ff161015612d8057612d7960208461361a565b9250612d99565b60405163ce54a8d160e01b815260040160405180910390fd5b50600101612d08565b50611fe160208261361a565b7fed8d60e34876f751cc8b014c560745351147d9de11b9347c854e881b128ea60090565b5f805f1983850993909202808410938190039390930393915050565b634e487b715f52806020526024601cfd5b5f612e08612cdd565b5f84815260028201602052604090205490915015612e3957604051633f06d22b60e01b815260040160405180910390fd5b5f83815260028201602090815260409091208351611c2b92850190612fe6565b5f61085a8383612fb4565b5f612e6f8383612fb4565b612ea457508154600181810184555f84815260208082209093018490558454848252828601909352604090209190915561053b565b505f61053b565b5f825f018281548110612ec057612ec0613646565b905f5260205f200154905092915050565b5f8181526001830160205260408120548015612fab575f612ef3600183613673565b85549091505f90612f0690600190613673565b9050808214612f65575f865f018281548110612f2457612f24613646565b905f5260205f200154905080875f018481548110612f4457612f44613646565b5f918252602080832090910192909255918252600188019052604090208390555b8554869080612f7657612f766139ae565b600190038181905f5260205f20015f90559055856001015f8681526020019081526020015f205f90556001935050505061053b565b5f91505061053b565b5f9081526001919091016020526040902054151590565b5080545f8255905f5260205f20908101906108399190613027565b828054828255905f5260205f2090810192821561301f579160200282015b8281111561301f578251825591602001919060010190613004565b5061224f9291505b5b8082111561224f575f8155600101613028565b5f81518084528060208401602086015e5f602082860101526020601f19601f83011685010191505092915050565b602081525f61085a602083018461303b565b5f6020828403121561308b575f5ffd5b5035919050565b6001600160a01b0381168114610839575f5ffd5b5f5f604083850312156130b7575f5ffd5b82356130c281613092565b946020939093013593505050565b5f602082840312156130e0575f5ffd5b813561085a81613092565b6001600160a01b0391909116815260200190565b5f5f5f60608486031215613111575f5ffd5b833561311c81613092565b9250602084013561312c81613092565b929592945050506040919091013590565b8015158114610839575f5ffd5b634e487b7160e01b5f52604160045260245ffd5b604051601f8201601f191681016001600160401b03811182821017156131865761318661314a565b604052919050565b5f5f5f606084860312156131a0575f5ffd5b8335925060208401356131b28161313d565b915060408401356001600160401b038111156131cc575f5ffd5b8401601f810186136131dc575f5ffd5b80356001600160401b038111156131f5576131f561314a565b8060051b6132056020820161315e565b91825260208184018101929081019089841115613220575f5ffd5b6020850192505b838310156132c05782356001600160401b03811115613244575f5ffd5b8501603f81018b13613254575f5ffd5b60208101356001600160401b038111156132705761327061314a565b613283601f8201601f191660200161315e565b8181526040838301018d1015613297575f5ffd5b816040840160208301375f60208383010152808552505050602082019150602083019250613227565b80955050505050509250925092565b5f5f604083850312156132e0575f5ffd5b8235915060208301356132f281613092565b809150509250929050565b5f5f83601f84011261330d575f5ffd5b5081356001600160401b03811115613323575f5ffd5b6020830191508360208260061b8501011115612032575f5ffd5b5f5f5f6040848603121561334f575f5ffd5b83356001600160401b03811115613364575f5ffd5b613370868287016132fd565b909790965060209590950135949350505050565b5f5f5f60608486031215613396575f5ffd5b83359250602084013591506040840135600481106133b2575f5ffd5b809150509250925092565b5f5f5f606084860312156133cf575f5ffd5b8335925060208401356133e181613092565b915060408401356133b281613092565b604080825283519082018190525f9060208501906060840190835b818110156134335783516001600160a01b031683526020938401939092019160010161340c565b5050838103602080860191909152855180835291810192508501905f5b8181101561346e578251845260209384019390920191600101613450565b50919695505050505050565b5f5f5f5f6040858703121561348d575f5ffd5b84356001600160401b038111156134a2575f5ffd5b6134ae878288016132fd565b90955093505060208501356001600160401b038111156134cc575f5ffd5b8501601f810187136134dc575f5ffd5b80356001600160401b038111156134f1575f5ffd5b876020828401011115613502575f5ffd5b949793965060200194505050565b5f5f60408385031215613521575f5ffd5b823561352c81613092565b915060208301356132f281613092565b600181811c9082168061355057607f821691505b60208210810361356e57634e487b7160e01b5f52602260045260245ffd5b50919050565b5f60208284031215613584575f5ffd5b5051919050565b6001600160a01b039390931683526020830191909152604082015260600190565b5f602082840312156135bc575f5ffd5b815161085a81613092565b6001600160a01b039384168152919092166020820152604081019190915260600190565b5f602082840312156135fb575f5ffd5b815161085a8161313d565b634e487b7160e01b5f52601160045260245ffd5b8082018082111561053b5761053b613606565b60ff818116838216019081111561053b5761053b613606565b634e487b7160e01b5f52603260045260245ffd5b6001600160a01b03929092168252602082015260400190565b8181038181111561053b5761053b613606565b5f60208284031215613696575f5ffd5b815160ff8116811461085a575f5ffd5b6001815b60018411156136e1578085048111156136c5576136c5613606565b60018416156136d357908102905b60019390931c9280026136aa565b935093915050565b5f826136f75750600161053b565b8161370357505f61053b565b816001811461371957600281146137235761373f565b600191505061053b565b60ff84111561373457613734613606565b50506001821b61053b565b5060208310610133831016604e8410600b8410161715613762575081810a61053b565b61376e5f1984846136a6565b805f190482111561378157613781613606565b029392505050565b5f61085a60ff8416836136e9565b634e487b7160e01b5f52601260045260245ffd5b5f8151808452602084019350602083015f5b828110156137db5781518652602095860195909101906001016137bd565b5093949350505050565b606081525f6137f760608301866137ab565b8281036020840152613809818661303b565b9050828103604084015280845180835260208301915060208160051b840101602087015f5b8381101561386057601f1986840301855261384a83835161303b565b602095860195909350919091019060010161382e565b50909998505050505050505050565b634e487b7160e01b5f52602160045260245ffd5b5f60ff8316806138a157634e487b7160e01b5f52601260045260245ffd5b8060ff84160691505092915050565b605481106138cc57634e487b7160e01b5f52602160045260245ffd5b9052565b8481526001600160a01b03841660208201526080604082018190525f906138f99083018561303b565b9050610ffc60608301846138b0565b9182526001600160a01b0316602082015260400190565b92835260208301919091526001600160f81b031916604082015260600190565b8281526040810161085a60208301846138b0565b602081525f61085a60208301846137ab565b838152606060208201525f61397d60608301856137ab565b905063ffffffff60e01b83166040830152949350505050565b5f600182016139a7576139a7613606565b5060010190565b634e487b7160e01b5f52603160045260245ffdfea264697066735822122016c8734b166e1625f5ddf0516f3329826fa7ca743de6d015a1929c31ebcdb52164736f6c634300081c0033ed8d60e34876f751cc8b014c560745351147d9de11b9347c854e881b128ea600ed8d60e34876f751cc8b014c560745351147d9de11b9347c854e881b128ea601",
  "linkReferences": {},
  "deployedLinkReferences": {}
}