{
  "_format": "hh-sol-artifact-1",
  "contractName": "OrionEncryptedVault",
  "sourceName": "contracts/vaults/OrionEncryptedVault.sol",
  "abi": [
    {
      "inputs": [
        {
          "internalType": "address",
          "name": "vaultOwner",
          "type": "address"
        },
        {
          "internalType": "address",
          "name": "curator",
          "type": "address"
        },
        {
          "internalType": "contract IOrionConfig",
          "name": "configAddress",
          "type": "address"
        },
        {
          "internalType": "string",
          "name": "name",
          "type": "string"
        },
        {
          "internalType": "string",
          "name": "symbol",
          "type": "string"
        }
      ],
      "stateMutability": "nonpayable",
      "type": "constructor"
    },
    {
      "inputs": [],
      "name": "AlreadyRegistered",
      "type": "error"
    },
    {
      "inputs": [
        {
          "internalType": "address",
          "name": "asset",
          "type": "address"
        }
      ],
      "name": "AmountMustBeGreaterThanZero",
      "type": "error"
    },
    {
      "inputs": [
        {
          "internalType": "address",
          "name": "spender",
          "type": "address"
        },
        {
          "internalType": "uint256",
          "name": "allowance",
          "type": "uint256"
        },
        {
          "internalType": "uint256",
          "name": "needed",
          "type": "uint256"
        }
      ],
      "name": "ERC20InsufficientAllowance",
      "type": "error"
    },
    {
      "inputs": [
        {
          "internalType": "address",
          "name": "sender",
          "type": "address"
        },
        {
          "internalType": "uint256",
          "name": "balance",
          "type": "uint256"
        },
        {
          "internalType": "uint256",
          "name": "needed",
          "type": "uint256"
        }
      ],
      "name": "ERC20InsufficientBalance",
      "type": "error"
    },
    {
      "inputs": [
        {
          "internalType": "address",
          "name": "approver",
          "type": "address"
        }
      ],
      "name": "ERC20InvalidApprover",
      "type": "error"
    },
    {
      "inputs": [
        {
          "internalType": "address",
          "name": "receiver",
          "type": "address"
        }
      ],
      "name": "ERC20InvalidReceiver",
      "type": "error"
    },
    {
      "inputs": [
        {
          "internalType": "address",
          "name": "sender",
          "type": "address"
        }
      ],
      "name": "ERC20InvalidSender",
      "type": "error"
    },
    {
      "inputs": [
        {
          "internalType": "address",
          "name": "spender",
          "type": "address"
        }
      ],
      "name": "ERC20InvalidSpender",
      "type": "error"
    },
    {
      "inputs": [
        {
          "internalType": "address",
          "name": "receiver",
          "type": "address"
        },
        {
          "internalType": "uint256",
          "name": "assets",
          "type": "uint256"
        },
        {
          "internalType": "uint256",
          "name": "max",
          "type": "uint256"
        }
      ],
      "name": "ERC4626ExceededMaxDeposit",
      "type": "error"
    },
    {
      "inputs": [
        {
          "internalType": "address",
          "name": "receiver",
          "type": "address"
        },
        {
          "internalType": "uint256",
          "name": "shares",
          "type": "uint256"
        },
        {
          "internalType": "uint256",
          "name": "max",
          "type": "uint256"
        }
      ],
      "name": "ERC4626ExceededMaxMint",
      "type": "error"
    },
    {
      "inputs": [
        {
          "internalType": "address",
          "name": "owner",
          "type": "address"
        },
        {
          "internalType": "uint256",
          "name": "shares",
          "type": "uint256"
        },
        {
          "internalType": "uint256",
          "name": "max",
          "type": "uint256"
        }
      ],
      "name": "ERC4626ExceededMaxRedeem",
      "type": "error"
    },
    {
      "inputs": [
        {
          "internalType": "address",
          "name": "owner",
          "type": "address"
        },
        {
          "internalType": "uint256",
          "name": "assets",
          "type": "uint256"
        },
        {
          "internalType": "uint256",
          "name": "max",
          "type": "uint256"
        }
      ],
      "name": "ERC4626ExceededMaxWithdraw",
      "type": "error"
    },
    {
      "inputs": [],
      "name": "HandlesAlreadySavedForRequestID",
      "type": "error"
    },
    {
      "inputs": [
        {
          "internalType": "address",
          "name": "sender",
          "type": "address"
        },
        {
          "internalType": "uint256",
          "name": "balance",
          "type": "uint256"
        },
        {
          "internalType": "uint256",
          "name": "amount",
          "type": "uint256"
        }
      ],
      "name": "InsufficientFunds",
      "type": "error"
    },
    {
      "inputs": [],
      "name": "InvalidAddress",
      "type": "error"
    },
    {
      "inputs": [],
      "name": "InvalidArguments",
      "type": "error"
    },
    {
      "inputs": [],
      "name": "InvalidKMSSignatures",
      "type": "error"
    },
    {
      "inputs": [],
      "name": "InvalidUnderlyingDecimals",
      "type": "error"
    },
    {
      "inputs": [],
      "name": "NoHandleFoundForRequestID",
      "type": "error"
    },
    {
      "inputs": [],
      "name": "NotEnoughDepositRequest",
      "type": "error"
    },
    {
      "inputs": [],
      "name": "NotEnoughWithdrawRequest",
      "type": "error"
    },
    {
      "inputs": [],
      "name": "OrderIntentCannotBeEmpty",
      "type": "error"
    },
    {
      "inputs": [],
      "name": "ReentrancyGuardReentrantCall",
      "type": "error"
    },
    {
      "inputs": [],
      "name": "SynchronousCallDisabled",
      "type": "error"
    },
    {
      "inputs": [],
      "name": "SystemNotIdle",
      "type": "error"
    },
    {
      "inputs": [
        {
          "internalType": "address",
          "name": "token",
          "type": "address"
        }
      ],
      "name": "TokenAlreadyInOrder",
      "type": "error"
    },
    {
      "inputs": [
        {
          "internalType": "address",
          "name": "token",
          "type": "address"
        }
      ],
      "name": "TokenNotWhitelisted",
      "type": "error"
    },
    {
      "inputs": [],
      "name": "TransferFailed",
      "type": "error"
    },
    {
      "inputs": [],
      "name": "UnauthorizedAccess",
      "type": "error"
    },
    {
      "inputs": [],
      "name": "UnsupportedHandleType",
      "type": "error"
    },
    {
      "anonymous": false,
      "inputs": [
        {
          "indexed": true,
          "internalType": "address",
          "name": "owner",
          "type": "address"
        },
        {
          "indexed": true,
          "internalType": "address",
          "name": "spender",
          "type": "address"
        },
        {
          "indexed": false,
          "internalType": "uint256",
          "name": "value",
          "type": "uint256"
        }
      ],
      "name": "Approval",
      "type": "event"
    },
    {
      "anonymous": false,
      "inputs": [
        {
          "indexed": true,
          "internalType": "uint256",
          "name": "epoch",
          "type": "uint256"
        },
        {
          "indexed": false,
          "internalType": "uint256",
          "name": "feeAmount",
          "type": "uint256"
        },
        {
          "indexed": false,
          "internalType": "uint256",
          "name": "pendingCuratorFees",
          "type": "uint256"
        }
      ],
      "name": "CuratorFeesAccrued",
      "type": "event"
    },
    {
      "anonymous": false,
      "inputs": [
        {
          "indexed": true,
          "internalType": "uint256",
          "name": "requestID",
          "type": "uint256"
        }
      ],
      "name": "DecryptionFulfilled",
      "type": "event"
    },
    {
      "anonymous": false,
      "inputs": [
        {
          "indexed": true,
          "internalType": "address",
          "name": "sender",
          "type": "address"
        },
        {
          "indexed": true,
          "internalType": "address",
          "name": "owner",
          "type": "address"
        },
        {
          "indexed": false,
          "internalType": "uint256",
          "name": "assets",
          "type": "uint256"
        },
        {
          "indexed": false,
          "internalType": "uint256",
          "name": "shares",
          "type": "uint256"
        }
      ],
      "name": "Deposit",
      "type": "event"
    },
    {
      "anonymous": false,
      "inputs": [
        {
          "indexed": true,
          "internalType": "address",
          "name": "user",
          "type": "address"
        },
        {
          "indexed": false,
          "internalType": "uint256",
          "name": "amount",
          "type": "uint256"
        }
      ],
      "name": "DepositProcessed",
      "type": "event"
    },
    {
      "anonymous": false,
      "inputs": [
        {
          "indexed": true,
          "internalType": "address",
          "name": "user",
          "type": "address"
        },
        {
          "indexed": false,
          "internalType": "uint256",
          "name": "amount",
          "type": "uint256"
        }
      ],
      "name": "DepositRequestCancelled",
      "type": "event"
    },
    {
      "anonymous": false,
      "inputs": [
        {
          "indexed": true,
          "internalType": "address",
          "name": "user",
          "type": "address"
        },
        {
          "indexed": false,
          "internalType": "uint256",
          "name": "amount",
          "type": "uint256"
        }
      ],
      "name": "DepositRequested",
      "type": "event"
    },
    {
      "anonymous": false,
      "inputs": [
        {
          "indexed": false,
          "internalType": "uint8",
          "name": "mode",
          "type": "uint8"
        },
        {
          "indexed": false,
          "internalType": "uint16",
          "name": "performanceFee",
          "type": "uint16"
        },
        {
          "indexed": false,
          "internalType": "uint16",
          "name": "managementFee",
          "type": "uint16"
        }
      ],
      "name": "FeeModelUpdated",
      "type": "event"
    },
    {
      "anonymous": false,
      "inputs": [
        {
          "indexed": true,
          "internalType": "address",
          "name": "curator",
          "type": "address"
        }
      ],
      "name": "OrderSubmitted",
      "type": "event"
    },
    {
      "anonymous": false,
      "inputs": [
        {
          "indexed": true,
          "internalType": "address",
          "name": "from",
          "type": "address"
        },
        {
          "indexed": true,
          "internalType": "address",
          "name": "to",
          "type": "address"
        },
        {
          "indexed": false,
          "internalType": "uint256",
          "name": "value",
          "type": "uint256"
        }
      ],
      "name": "Transfer",
      "type": "event"
    },
    {
      "anonymous": false,
      "inputs": [
        {
          "indexed": false,
          "internalType": "uint256",
          "name": "newTotalAssets",
          "type": "uint256"
        }
      ],
      "name": "VaultStateUpdated",
      "type": "event"
    },
    {
      "anonymous": false,
      "inputs": [
        {
          "indexed": true,
          "internalType": "address",
          "name": "sender",
          "type": "address"
        },
        {
          "indexed": true,
          "internalType": "address",
          "name": "receiver",
          "type": "address"
        },
        {
          "indexed": true,
          "internalType": "address",
          "name": "owner",
          "type": "address"
        },
        {
          "indexed": false,
          "internalType": "uint256",
          "name": "assets",
          "type": "uint256"
        },
        {
          "indexed": false,
          "internalType": "uint256",
          "name": "shares",
          "type": "uint256"
        }
      ],
      "name": "Withdraw",
      "type": "event"
    },
    {
      "anonymous": false,
      "inputs": [
        {
          "indexed": true,
          "internalType": "address",
          "name": "user",
          "type": "address"
        },
        {
          "indexed": false,
          "internalType": "uint256",
          "name": "shares",
          "type": "uint256"
        }
      ],
      "name": "WithdrawProcessed",
      "type": "event"
    },
    {
      "anonymous": false,
      "inputs": [
        {
          "indexed": true,
          "internalType": "address",
          "name": "user",
          "type": "address"
        },
        {
          "indexed": false,
          "internalType": "uint256",
          "name": "shares",
          "type": "uint256"
        }
      ],
      "name": "WithdrawRequestCancelled",
      "type": "event"
    },
    {
      "anonymous": false,
      "inputs": [
        {
          "indexed": true,
          "internalType": "address",
          "name": "user",
          "type": "address"
        },
        {
          "indexed": false,
          "internalType": "uint256",
          "name": "shares",
          "type": "uint256"
        }
      ],
      "name": "WithdrawRequested",
      "type": "event"
    },
    {
      "inputs": [],
      "name": "CURATOR_FEE_FACTOR",
      "outputs": [
        {
          "internalType": "uint16",
          "name": "",
          "type": "uint16"
        }
      ],
      "stateMutability": "view",
      "type": "function"
    },
    {
      "inputs": [],
      "name": "MAX_MANAGEMENT_FEE",
      "outputs": [
        {
          "internalType": "uint16",
          "name": "",
          "type": "uint16"
        }
      ],
      "stateMutability": "view",
      "type": "function"
    },
    {
      "inputs": [],
      "name": "MAX_PERFORMANCE_FEE",
      "outputs": [
        {
          "internalType": "uint16",
          "name": "",
          "type": "uint16"
        }
      ],
      "stateMutability": "view",
      "type": "function"
    },
    {
      "inputs": [],
      "name": "SHARE_DECIMALS",
      "outputs": [
        {
          "internalType": "uint8",
          "name": "",
          "type": "uint8"
        }
      ],
      "stateMutability": "view",
      "type": "function"
    },
    {
      "inputs": [],
      "name": "YEAR_IN_SECONDS",
      "outputs": [
        {
          "internalType": "uint32",
          "name": "",
          "type": "uint32"
        }
      ],
      "stateMutability": "view",
      "type": "function"
    },
    {
      "inputs": [
        {
          "internalType": "uint256",
          "name": "epoch",
          "type": "uint256"
        },
        {
          "internalType": "uint256",
          "name": "feeAmount",
          "type": "uint256"
        }
      ],
      "name": "accrueCuratorFees",
      "outputs": [],
      "stateMutability": "nonpayable",
      "type": "function"
    },
    {
      "inputs": [
        {
          "internalType": "address",
          "name": "owner",
          "type": "address"
        },
        {
          "internalType": "address",
          "name": "spender",
          "type": "address"
        }
      ],
      "name": "allowance",
      "outputs": [
        {
          "internalType": "uint256",
          "name": "",
          "type": "uint256"
        }
      ],
      "stateMutability": "view",
      "type": "function"
    },
    {
      "inputs": [
        {
          "internalType": "address",
          "name": "spender",
          "type": "address"
        },
        {
          "internalType": "uint256",
          "name": "value",
          "type": "uint256"
        }
      ],
      "name": "approve",
      "outputs": [
        {
          "internalType": "bool",
          "name": "",
          "type": "bool"
        }
      ],
      "stateMutability": "nonpayable",
      "type": "function"
    },
    {
      "inputs": [],
      "name": "asset",
      "outputs": [
        {
          "internalType": "address",
          "name": "",
          "type": "address"
        }
      ],
      "stateMutability": "view",
      "type": "function"
    },
    {
      "inputs": [
        {
          "internalType": "address",
          "name": "account",
          "type": "address"
        }
      ],
      "name": "balanceOf",
      "outputs": [
        {
          "internalType": "uint256",
          "name": "",
          "type": "uint256"
        }
      ],
      "stateMutability": "view",
      "type": "function"
    },
    {
      "inputs": [
        {
          "internalType": "uint256",
          "name": "requestID",
          "type": "uint256"
        },
        {
          "internalType": "bool",
          "name": "decryptedInput",
          "type": "bool"
        },
        {
          "internalType": "bytes[]",
          "name": "signatures",
          "type": "bytes[]"
        }
      ],
      "name": "callbackDecryptSingleEbool",
      "outputs": [],
      "stateMutability": "nonpayable",
      "type": "function"
    },
    {
      "inputs": [
        {
          "internalType": "uint256",
          "name": "amount",
          "type": "uint256"
        }
      ],
      "name": "cancelDepositRequest",
      "outputs": [],
      "stateMutability": "nonpayable",
      "type": "function"
    },
    {
      "inputs": [
        {
          "internalType": "uint256",
          "name": "shares",
          "type": "uint256"
        }
      ],
      "name": "cancelWithdrawRequest",
      "outputs": [],
      "stateMutability": "nonpayable",
      "type": "function"
    },
    {
      "inputs": [],
      "name": "claimCuratorFees",
      "outputs": [],
      "stateMutability": "nonpayable",
      "type": "function"
    },
    {
      "inputs": [],
      "name": "config",
      "outputs": [
        {
          "internalType": "contract IOrionConfig",
          "name": "",
          "type": "address"
        }
      ],
      "stateMutability": "view",
      "type": "function"
    },
    {
      "inputs": [
        {
          "internalType": "uint256",
          "name": "shares",
          "type": "uint256"
        }
      ],
      "name": "convertToAssets",
      "outputs": [
        {
          "internalType": "uint256",
          "name": "",
          "type": "uint256"
        }
      ],
      "stateMutability": "view",
      "type": "function"
    },
    {
      "inputs": [
        {
          "internalType": "uint256",
          "name": "shares",
          "type": "uint256"
        },
        {
          "internalType": "uint256",
          "name": "pointInTimeTotalAssets",
          "type": "uint256"
        },
        {
          "internalType": "enum Math.Rounding",
          "name": "rounding",
          "type": "uint8"
        }
      ],
      "name": "convertToAssetsWithPITTotalAssets",
      "outputs": [
        {
          "internalType": "uint256",
          "name": "",
          "type": "uint256"
        }
      ],
      "stateMutability": "view",
      "type": "function"
    },
    {
      "inputs": [
        {
          "internalType": "uint256",
          "name": "assets",
          "type": "uint256"
        }
      ],
      "name": "convertToShares",
      "outputs": [
        {
          "internalType": "uint256",
          "name": "",
          "type": "uint256"
        }
      ],
      "stateMutability": "view",
      "type": "function"
    },
    {
      "inputs": [],
      "name": "curator",
      "outputs": [
        {
          "internalType": "address",
          "name": "",
          "type": "address"
        }
      ],
      "stateMutability": "view",
      "type": "function"
    },
    {
      "inputs": [
        {
          "internalType": "uint256",
          "name": "activeTotalAssets",
          "type": "uint256"
        }
      ],
      "name": "curatorFee",
      "outputs": [
        {
          "internalType": "uint256",
          "name": "",
          "type": "uint256"
        }
      ],
      "stateMutability": "view",
      "type": "function"
    },
    {
      "inputs": [],
      "name": "decimals",
      "outputs": [
        {
          "internalType": "uint8",
          "name": "",
          "type": "uint8"
        }
      ],
      "stateMutability": "view",
      "type": "function"
    },
    {
      "inputs": [
        {
          "internalType": "uint256",
          "name": "",
          "type": "uint256"
        },
        {
          "internalType": "address",
          "name": "",
          "type": "address"
        }
      ],
      "name": "deposit",
      "outputs": [
        {
          "internalType": "uint256",
          "name": "",
          "type": "uint256"
        }
      ],
      "stateMutability": "pure",
      "type": "function"
    },
    {
      "inputs": [],
      "name": "feeModel",
      "outputs": [
        {
          "internalType": "enum OrionVault.CalcMode",
          "name": "mode",
          "type": "uint8"
        },
        {
          "internalType": "uint16",
          "name": "performanceFee",
          "type": "uint16"
        },
        {
          "internalType": "uint16",
          "name": "managementFee",
          "type": "uint16"
        },
        {
          "internalType": "uint256",
          "name": "highWaterMark",
          "type": "uint256"
        }
      ],
      "stateMutability": "view",
      "type": "function"
    },
    {
      "inputs": [],
      "name": "getIntent",
      "outputs": [
        {
          "internalType": "address[]",
          "name": "tokens",
          "type": "address[]"
        },
        {
          "internalType": "euint32[]",
          "name": "weights",
          "type": "bytes32[]"
        }
      ],
      "stateMutability": "view",
      "type": "function"
    },
    {
      "inputs": [],
      "name": "getPendingDeposits",
      "outputs": [
        {
          "internalType": "uint256",
          "name": "",
          "type": "uint256"
        }
      ],
      "stateMutability": "view",
      "type": "function"
    },
    {
      "inputs": [],
      "name": "getPendingWithdrawals",
      "outputs": [
        {
          "internalType": "uint256",
          "name": "",
          "type": "uint256"
        }
      ],
      "stateMutability": "view",
      "type": "function"
    },
    {
      "inputs": [],
      "name": "getPortfolio",
      "outputs": [
        {
          "internalType": "address[]",
          "name": "tokens",
          "type": "address[]"
        },
        {
          "internalType": "euint32[]",
          "name": "sharesPerAsset",
          "type": "bytes32[]"
        }
      ],
      "stateMutability": "view",
      "type": "function"
    },
    {
      "inputs": [],
      "name": "internalStatesOrchestrator",
      "outputs": [
        {
          "internalType": "contract IInternalStateOrchestrator",
          "name": "",
          "type": "address"
        }
      ],
      "stateMutability": "view",
      "type": "function"
    },
    {
      "inputs": [
        {
          "internalType": "address",
          "name": "",
          "type": "address"
        }
      ],
      "name": "maxDeposit",
      "outputs": [
        {
          "internalType": "uint256",
          "name": "",
          "type": "uint256"
        }
      ],
      "stateMutability": "view",
      "type": "function"
    },
    {
      "inputs": [
        {
          "internalType": "address",
          "name": "",
          "type": "address"
        }
      ],
      "name": "maxMint",
      "outputs": [
        {
          "internalType": "uint256",
          "name": "",
          "type": "uint256"
        }
      ],
      "stateMutability": "view",
      "type": "function"
    },
    {
      "inputs": [
        {
          "internalType": "address",
          "name": "owner",
          "type": "address"
        }
      ],
      "name": "maxRedeem",
      "outputs": [
        {
          "internalType": "uint256",
          "name": "",
          "type": "uint256"
        }
      ],
      "stateMutability": "view",
      "type": "function"
    },
    {
      "inputs": [
        {
          "internalType": "address",
          "name": "owner",
          "type": "address"
        }
      ],
      "name": "maxWithdraw",
      "outputs": [
        {
          "internalType": "uint256",
          "name": "",
          "type": "uint256"
        }
      ],
      "stateMutability": "view",
      "type": "function"
    },
    {
      "inputs": [
        {
          "internalType": "uint256",
          "name": "",
          "type": "uint256"
        },
        {
          "internalType": "address",
          "name": "",
          "type": "address"
        }
      ],
      "name": "mint",
      "outputs": [
        {
          "internalType": "uint256",
          "name": "",
          "type": "uint256"
        }
      ],
      "stateMutability": "pure",
      "type": "function"
    },
    {
      "inputs": [],
      "name": "name",
      "outputs": [
        {
          "internalType": "string",
          "name": "",
          "type": "string"
        }
      ],
      "stateMutability": "view",
      "type": "function"
    },
    {
      "inputs": [],
      "name": "pendingCuratorFees",
      "outputs": [
        {
          "internalType": "uint256",
          "name": "",
          "type": "uint256"
        }
      ],
      "stateMutability": "view",
      "type": "function"
    },
    {
      "inputs": [
        {
          "internalType": "uint256",
          "name": "assets",
          "type": "uint256"
        }
      ],
      "name": "previewDeposit",
      "outputs": [
        {
          "internalType": "uint256",
          "name": "",
          "type": "uint256"
        }
      ],
      "stateMutability": "view",
      "type": "function"
    },
    {
      "inputs": [
        {
          "internalType": "uint256",
          "name": "shares",
          "type": "uint256"
        }
      ],
      "name": "previewMint",
      "outputs": [
        {
          "internalType": "uint256",
          "name": "",
          "type": "uint256"
        }
      ],
      "stateMutability": "view",
      "type": "function"
    },
    {
      "inputs": [
        {
          "internalType": "uint256",
          "name": "shares",
          "type": "uint256"
        }
      ],
      "name": "previewRedeem",
      "outputs": [
        {
          "internalType": "uint256",
          "name": "",
          "type": "uint256"
        }
      ],
      "stateMutability": "view",
      "type": "function"
    },
    {
      "inputs": [
        {
          "internalType": "uint256",
          "name": "assets",
          "type": "uint256"
        }
      ],
      "name": "previewWithdraw",
      "outputs": [
        {
          "internalType": "uint256",
          "name": "",
          "type": "uint256"
        }
      ],
      "stateMutability": "view",
      "type": "function"
    },
    {
      "inputs": [],
      "name": "processDepositRequests",
      "outputs": [],
      "stateMutability": "nonpayable",
      "type": "function"
    },
    {
      "inputs": [],
      "name": "processWithdrawRequests",
      "outputs": [],
      "stateMutability": "nonpayable",
      "type": "function"
    },
    {
      "inputs": [
        {
          "internalType": "uint256",
          "name": "",
          "type": "uint256"
        },
        {
          "internalType": "address",
          "name": "",
          "type": "address"
        },
        {
          "internalType": "address",
          "name": "",
          "type": "address"
        }
      ],
      "name": "redeem",
      "outputs": [
        {
          "internalType": "uint256",
          "name": "",
          "type": "uint256"
        }
      ],
      "stateMutability": "pure",
      "type": "function"
    },
    {
      "inputs": [
        {
          "internalType": "uint256",
          "name": "amount",
          "type": "uint256"
        }
      ],
      "name": "requestDeposit",
      "outputs": [],
      "stateMutability": "nonpayable",
      "type": "function"
    },
    {
      "inputs": [
        {
          "internalType": "uint256",
          "name": "shares",
          "type": "uint256"
        }
      ],
      "name": "requestWithdraw",
      "outputs": [],
      "stateMutability": "nonpayable",
      "type": "function"
    },
    {
      "inputs": [
        {
          "components": [
            {
              "internalType": "address",
              "name": "token",
              "type": "address"
            },
            {
              "internalType": "externalEuint32",
              "name": "weight",
              "type": "bytes32"
            }
          ],
          "internalType": "struct IOrionEncryptedVault.EncryptedIntent[]",
          "name": "intent",
          "type": "tuple[]"
        },
        {
          "internalType": "bytes",
          "name": "inputProof",
          "type": "bytes"
        }
      ],
      "name": "submitIntent",
      "outputs": [],
      "stateMutability": "nonpayable",
      "type": "function"
    },
    {
      "inputs": [],
      "name": "symbol",
      "outputs": [
        {
          "internalType": "string",
          "name": "",
          "type": "string"
        }
      ],
      "stateMutability": "view",
      "type": "function"
    },
    {
      "inputs": [],
      "name": "totalAssets",
      "outputs": [
        {
          "internalType": "uint256",
          "name": "",
          "type": "uint256"
        }
      ],
      "stateMutability": "view",
      "type": "function"
    },
    {
      "inputs": [],
      "name": "totalSupply",
      "outputs": [
        {
          "internalType": "uint256",
          "name": "",
          "type": "uint256"
        }
      ],
      "stateMutability": "view",
      "type": "function"
    },
    {
      "inputs": [
        {
          "internalType": "address",
          "name": "to",
          "type": "address"
        },
        {
          "internalType": "uint256",
          "name": "value",
          "type": "uint256"
        }
      ],
      "name": "transfer",
      "outputs": [
        {
          "internalType": "bool",
          "name": "",
          "type": "bool"
        }
      ],
      "stateMutability": "nonpayable",
      "type": "function"
    },
    {
      "inputs": [
        {
          "internalType": "address",
          "name": "from",
          "type": "address"
        },
        {
          "internalType": "address",
          "name": "to",
          "type": "address"
        },
        {
          "internalType": "uint256",
          "name": "value",
          "type": "uint256"
        }
      ],
      "name": "transferFrom",
      "outputs": [
        {
          "internalType": "bool",
          "name": "",
          "type": "bool"
        }
      ],
      "stateMutability": "nonpayable",
      "type": "function"
    },
    {
      "inputs": [
        {
          "internalType": "address",
          "name": "newCurator",
          "type": "address"
        }
      ],
      "name": "updateCurator",
      "outputs": [],
      "stateMutability": "nonpayable",
      "type": "function"
    },
    {
      "inputs": [
        {
          "internalType": "uint8",
          "name": "mode",
          "type": "uint8"
        },
        {
          "internalType": "uint16",
          "name": "performanceFee",
          "type": "uint16"
        },
        {
          "internalType": "uint16",
          "name": "managementFee",
          "type": "uint16"
        }
      ],
      "name": "updateFeeModel",
      "outputs": [],
      "stateMutability": "nonpayable",
      "type": "function"
    },
    {
      "inputs": [],
      "name": "updateHighWaterMark",
      "outputs": [],
      "stateMutability": "nonpayable",
      "type": "function"
    },
    {
      "inputs": [
        {
          "components": [
            {
              "internalType": "address",
              "name": "token",
              "type": "address"
            },
            {
              "internalType": "euint32",
              "name": "value",
              "type": "bytes32"
            }
          ],
          "internalType": "struct IOrionEncryptedVault.EncryptedPortfolio[]",
          "name": "portfolio",
          "type": "tuple[]"
        },
        {
          "internalType": "uint256",
          "name": "newTotalAssets",
          "type": "uint256"
        }
      ],
      "name": "updateVaultState",
      "outputs": [],
      "stateMutability": "nonpayable",
      "type": "function"
    },
    {
      "inputs": [
        {
          "internalType": "address[]",
          "name": "assets",
          "type": "address[]"
        }
      ],
      "name": "updateVaultWhitelist",
      "outputs": [],
      "stateMutability": "nonpayable",
      "type": "function"
    },
    {
      "inputs": [],
      "name": "vaultOwner",
      "outputs": [
        {
          "internalType": "address",
          "name": "",
          "type": "address"
        }
      ],
      "stateMutability": "view",
      "type": "function"
    },
    {
      "inputs": [
        {
          "internalType": "uint256",
          "name": "",
          "type": "uint256"
        },
        {
          "internalType": "address",
          "name": "",
          "type": "address"
        },
        {
          "internalType": "address",
          "name": "",
          "type": "address"
        }
      ],
      "name": "withdraw",
      "outputs": [
        {
          "internalType": "uint256",
          "name": "",
          "type": "uint256"
        }
      ],
      "stateMutability": "pure",
      "type": "function"
    }
  ],
  "bytecode": "0x60c060405234801561000f575f5ffd5b506040516158da3803806158da83398101604081905261002e91610905565b8484848484826001600160a01b0316637158da7c6040518163ffffffff1660e01b8152600401602060405180830381865afa15801561006f573d5f5f3e3d5ffd5b505050506040513d601f19601f8201168201806040525081019061009391906109a3565b8282610138610133604080516080810182525f808252602082018190529181018290526060810191909152506040805160808101825273687820221192c5b662b25367f70076a37bc79b6c815273848b0066793bcc60346da1f49049357399b8d5956020820152731364cbbf2cdf5032c47d8226a6f6fbd2afcdacac9181019190915273bc91f3dad1a5f19f8390c400196e58073b6a0bc4606082015290565b610470565b61015573a02cda4ca3a71d7c46997716f4283aa851c28812610529565b60036101618382610a42565b50600461016e8282610a42565b5050505f5f6101828361056660201b60201c565b9150915081610192576012610194565b805b60ff1660a05250506001600160a01b03908116608052600160055584166101ce5760405163e6c4247b60e01b815260040160405180910390fd5b6001600160a01b0383166101f55760405163e6c4247b60e01b815260040160405180910390fd5b600680546001600160a01b038088166001600160a01b0319928316179092556007805487841690831617905560088054928616929091168217905560408051630691d8b960e31b8152905163348ec5c8916004808201926020929091908290030181865afa158015610269573d5f5f3e3d5ffd5b505050506040513d601f19601f8201168201806040525081019061028d91906109a3565b600980546001600160a01b0319166001600160a01b039283161790555f600c8190556013819055601481905560408051631c56369f60e21b815290519192861691637158da7c916004808201926020929091908290030181865afa1580156102f7573d5f5f3e3d5ffd5b505050506040513d601f19601f8201168201806040525081019061031b91906109a3565b6001600160a01b031663313ce5676040518163ffffffff1660e01b8152600401602060405180830381865afa158015610356573d5f5f3e3d5ffd5b505050506040513d601f19601f8201168201806040525081019061037a9190610afc565b9050601260ff821611156103a157604051631c03248960e11b815260040160405180910390fd5b6040805160808101909152805f81525f6020820181905260408201526060016103cc6012600a610c27565b9052805160168054909190829060ff191660018360048111156103f1576103f1610b1c565b021790555060208201518154604084015161ffff90811663010000000264ffff0000001991909316610100021664ffffffff00199091161717815560609091015160019091015561044061063c565b5050505050506104555f61071160201b60201c565b601d556104626001610729565b601e5550610d589350505050565b80515f51602061589a5f395f51905f5280546001600160a01b03199081166001600160a01b039384161790915560208301515f5160206158ba5f395f51905f528054831691841691909117905560408301517fed8d60e34876f751cc8b014c560745351147d9de11b9347c854e881b128ea6028054831691841691909117905560608301517fed8d60e34876f751cc8b014c560745351147d9de11b9347c854e881b128ea6038054909216921691909117905550565b50565b7f5ea69329017273582817d320489fbd94f775580e90c092699ca6f3d12fdf7d0080546001600160a01b0319166001600160a01b03831617905550565b60408051600481526024810182526020810180516001600160e01b031663313ce56760e01b17905290515f918291829182916001600160a01b038716916105ac91610c35565b5f60405180830381855afa9150503d805f81146105e4576040519150601f19603f3d011682016040523d82523d5f602084013e6105e9565b606091505b50915091508180156105fd57506020815110155b15610630575f818060200190518101906106179190610c4b565b905060ff811161062e576001969095509350505050565b505b505f9485945092505050565b60085460408051636c366a2760e11b815290515f926001600160a01b03169163d86cd44e91600480830192869291908290030181865afa158015610682573d5f5f3e3d5ffd5b505050506040513d5f823e601f3d908101601f191682016040526106a99190810190610c62565b90505f5b815181101561070d575f6106e48383815181106106cc576106cc610d14565b6020026020010151600a61074460201b90919060201c565b90508061070457604051630ea075bf60e21b815260040160405180910390fd5b506001016106ad565b5050565b5f61072363ffffffff8316600461075f565b92915050565b5f61072382610738575f61073b565b60015b60ff165f61075f565b5f610758836001600160a01b0384166107f6565b9392505050565b5f5160206158ba5f395f51905f5254604051639cd07acb60e01b81525f915f51602061589a5f395f51905f52916001600160a01b0390911690639cd07acb906107ae9087908790600401610d28565b6020604051808303815f875af11580156107ca573d5f5f3e3d5ffd5b505050506040513d601f19601f820116820180604052508101906107ee9190610c4b565b949350505050565b5f81815260018301602052604081205461083b57508154600181810184555f848152602080822090930184905584548482528286019093526040902091909155610723565b505f610723565b6001600160a01b0381168114610526575f5ffd5b634e487b7160e01b5f52604160045260245ffd5b604051601f8201601f191681016001600160401b038111828210171561089257610892610856565b604052919050565b5f82601f8301126108a9575f5ffd5b81516001600160401b038111156108c2576108c2610856565b6108d5601f8201601f191660200161086a565b8181528460208386010111156108e9575f5ffd5b8160208501602083015e5f918101602001919091529392505050565b5f5f5f5f5f60a08688031215610919575f5ffd5b855161092481610842565b602087015190955061093581610842565b604087015190945061094681610842565b60608701519093506001600160401b03811115610961575f5ffd5b61096d8882890161089a565b608088015190935090506001600160401b0381111561098a575f5ffd5b6109968882890161089a565b9150509295509295909350565b5f602082840312156109b3575f5ffd5b815161075881610842565b600181811c908216806109d257607f821691505b6020821081036109f057634e487b7160e01b5f52602260045260245ffd5b50919050565b601f821115610a3d57805f5260205f20601f840160051c81016020851015610a1b5750805b601f840160051c820191505b81811015610a3a575f8155600101610a27565b50505b505050565b81516001600160401b03811115610a5b57610a5b610856565b610a6f81610a6984546109be565b846109f6565b6020601f821160018114610aa1575f8315610a8a5750848201515b5f19600385901b1c1916600184901b178455610a3a565b5f84815260208120601f198516915b82811015610ad05787850151825560209485019460019092019101610ab0565b5084821015610aed57868401515f19600387901b60f8161c191681555b50505050600190811b01905550565b5f60208284031215610b0c575f5ffd5b815160ff81168114610758575f5ffd5b634e487b7160e01b5f52602160045260245ffd5b634e487b7160e01b5f52601160045260245ffd5b6001815b6001841115610b7f57808504811115610b6357610b63610b30565b6001841615610b7157908102905b60019390931c928002610b48565b935093915050565b5f82610b9557506001610723565b81610ba157505f610723565b8160018114610bb75760028114610bc157610bdd565b6001915050610723565b60ff841115610bd257610bd2610b30565b50506001821b610723565b5060208310610133831016604e8410600b8410161715610c00575081810a610723565b610c0c5f198484610b44565b805f1904821115610c1f57610c1f610b30565b029392505050565b5f61075860ff841683610b87565b5f82518060208501845e5f920191825250919050565b5f60208284031215610c5b575f5ffd5b5051919050565b5f60208284031215610c72575f5ffd5b81516001600160401b03811115610c87575f5ffd5b8201601f81018413610c97575f5ffd5b80516001600160401b03811115610cb057610cb0610856565b8060051b610cc06020820161086a565b91825260208184018101929081019087841115610cdb575f5ffd5b6020850194505b83851015610d095784519250610cf783610842565b82825260209485019490910190610ce2565b979650505050505050565b634e487b7160e01b5f52603260045260245ffd5b8281526040810160548310610d4b57634e487b7160e01b5f52602160045260245ffd5b8260208301529392505050565b60805160a051614b24610d765f395f50505f6110ea0152614b245ff3fe608060405234801561000f575f5ffd5b5060043610610291575f3560e01c806301e1d1141461029557806303d44854146102ac57806306fdde03146102c157806307a2d13a146102d6578063095ea7b3146102e95780630a28a4771461030c5780630c6a62dd1461031f5780630d1e6667146103325780630df571f71461034557806318160ddd146103585780631f52692b1461036057806323b872dd146103805780632dae296714610393578063313ce5671461039b57806333fdc592146103b0578063348ec5c8146103b857806338d52e0f146103cb5780633ab6d27c146103d3578063402d267d146103e65780634cdad506146102d657806358df8301146103fa5780636e553f651461040d57806370a082311461042057806373d8057d14610433578063745400c91461044f5780637847ea531461046257806379502c551461048257806394bf804d1461040d57806395d89b411461049557806397ee11441461049d5780639908840c146104d35780639adb2981146104dc578063a68a5267146104ef578063a9059cbb14610502578063aa9d3a6014610515578063acdb3d511461051d578063b3d7f6b914610526578063b460af9414610539578063b6eba65314610547578063b76b720e1461055d578063ba08765214610539578063bdca916514610565578063c0b568e11461056e578063c37fc8a814610581578063c392e58c14610589578063c63d75b6146103e6578063c6e6f5921461059c578063cce4705b146105af578063ce96cb77146105c2578063d1699c26146105d5578063d3d03458146105dd578063d853365f146105e5578063d905777e146105ed578063dd62ed3e14610600578063e51a85f614610613578063e66f53b714610626578063ef8b30f71461059c575b5f5ffd5b600c545b6040519081526020015b60405180910390f35b6102bf6102ba366004614069565b610639565b005b6102c96107fa565b6040516102a3919061412b565b6102996102e436600461413d565b61088a565b6102fc6102f7366004614154565b61089b565b60405190151581526020016102a3565b61029961031a36600461413d565b6108b2565b6102bf61032d36600461417e565b6108be565b6102bf61034036600461413d565b610932565b6102bf610353366004614199565b610c1f565b600254610299565b600654610373906001600160a01b031681565b6040516102a391906141b9565b6102fc61038e3660046141cd565b610d28565b6102bf610d4d565b60125b60405160ff90911681526020016102a3565b6102bf610e16565b600954610373906001600160a01b031681565b6103736110e8565b6102bf6103e1366004614228565b61110c565b6102996103f436600461417e565b505f1990565b6102bf61040836600461427d565b6112eb565b61029961041b3660046143a7565b61130a565b61029961042e36600461417e565b611324565b61043c61271081565b60405161ffff90911681526020016102a3565b6102bf61045d36600461413d565b61133e565b61046d6301e1338081565b60405163ffffffff90911681526020016102a3565b600854610373906001600160a01b031681565b6102c9611526565b6016546017546104c39160ff81169161ffff610100830481169263010000009004169084565b6040516102a394939291906143e9565b61043c61012c81565b6102bf6104ea36600461445b565b611535565b6102996104fd3660046144a2565b611762565b6102fc610510366004614154565b6117a2565b6102bf6117af565b61029960155481565b61029961053436600461413d565b611b3f565b61029961041b3660046144d0565b61054f611b4b565b6040516102a3929190614504565b6102bf611ccc565b61043c610bb881565b6102bf61057c36600461413d565b611e6a565b601454610299565b6102bf61059736600461458d565b61209c565b6102996105aa36600461413d565b612627565b6102bf6105bd36600461413d565b612632565b6102996105d036600461417e565b61281f565b601354610299565b61054f612832565b61039e601281565b6102996105fb36600461417e565b612996565b61029961060e366004614623565b6129a0565b61029961062136600461413d565b6129ca565b600754610373906001600160a01b031681565b6006546001600160a01b0316331461066457604051631a27eac360e11b815260040160405180910390fd5b60085f9054906101000a90046001600160a01b03166001600160a01b031663edcf9c1f6040518163ffffffff1660e01b8152600401602060405180830381865afa1580156106b4573d5f5f3e3d5ffd5b505050506040513d601f19601f820116820180604052508101906106d8919061464f565b6106f5576040516312aecd8160e01b815260040160405180910390fd5b6106ff600a612a03565b5f5b81518110156107f6575f82828151811061071d5761071d61466a565b6020908102919091010151600854604051633af32abf60e01b81529192506001600160a01b031690633af32abf906107599084906004016141b9565b602060405180830381865afa158015610774573d5f5f3e3d5ffd5b505050506040513d601f19601f82011682018060405250810190610798919061464f565b6107c0578060405163751dff9760e11b81526004016107b791906141b9565b60405180910390fd5b5f6107cc600a83612a0c565b9050806107ec57604051630ea075bf60e21b815260040160405180910390fd5b5050600101610701565b5050565b6060600380546108099061467e565b80601f01602080910402602001604051908101604052809291908181526020018280546108359061467e565b80156108805780601f1061085757610100808354040283529160200191610880565b820191905f5260205f20905b81548152906001019060200180831161086357829003601f168201915b5050505050905090565b5f610895825f612a20565b92915050565b5f336108a8818585612a61565b5060019392505050565b5f610895826001612a73565b6006546001600160a01b031633146108e957604051631a27eac360e11b815260040160405180910390fd5b6001600160a01b0381166109105760405163e6c4247b60e01b815260040160405180910390fd5b600780546001600160a01b0319166001600160a01b0392909216919091179055565b61093a612aa5565b60085f9054906101000a90046001600160a01b03166001600160a01b031663edcf9c1f6040518163ffffffff1660e01b8152600401602060405180830381865afa15801561098a573d5f5f3e3d5ffd5b505050506040513d601f19601f820116820180604052508101906109ae919061464f565b6109cb576040516312aecd8160e01b815260040160405180910390fd5b805f036109f4576109da6110e8565b604051636b30633560e01b81526004016107b791906141b9565b5f6109fd6110e8565b6001600160a01b03166370a08231336040518263ffffffff1660e01b8152600401610a2891906141b9565b602060405180830381865afa158015610a43573d5f5f3e3d5ffd5b505050506040513d601f19601f82011682018060405250810190610a6791906146b6565b905080821115610a9057338183604051632e2a182f60e11b81526004016107b7939291906146cd565b5f610a996110e8565b6001600160a01b03166323b872dd3360085f9054906101000a90046001600160a01b03166001600160a01b0316633a0dad8e6040518163ffffffff1660e01b8152600401602060405180830381865afa158015610af8573d5f5f3e3d5ffd5b505050506040513d601f19601f82011682018060405250810190610b1c91906146ee565b866040518463ffffffff1660e01b8152600401610b3b93929190614709565b6020604051808303815f875af1158015610b57573d5f5f3e3d5ffd5b505050506040513d601f19601f82011682018060405250810190610b7b919061464f565b905080610b9b576040516312171d8360e31b815260040160405180910390fd5b5f610ba7600d33612acf565b9150610bc2905033610bb98684614741565b600d9190612af5565b508360135f828254610bd49190614741565b909155505060405184815233907f08d79f77ab5f78e7e780abb1f7ac9e9923340d5bae78f6e83e7999905b248ea2906020015b60405180910390a2505050610c1c6001600555565b50565b60085f9054906101000a90046001600160a01b03166001600160a01b0316633a0dad8e6040518163ffffffff1660e01b8152600401602060405180830381865afa158015610c6f573d5f5f3e3d5ffd5b505050506040513d601f19601f82011682018060405250810190610c9391906146ee565b6001600160a01b0316336001600160a01b031614610cc457604051631a27eac360e11b815260040160405180910390fd5b80156107f6578060155f828254610cdb9190614741565b909155505060155460405183917f8b8789cf9157fe7b016901e4ed3a5d0971caa8b7c031da0b25638ccf65841b2a91610d1c91858252602082015260400190565b60405180910390a25050565b5f33610d35858285612b0a565b610d40858585612b55565b60019150505b9392505050565b60085f9054906101000a90046001600160a01b03166001600160a01b0316633a0dad8e6040518163ffffffff1660e01b8152600401602060405180830381865afa158015610d9d573d5f5f3e3d5ffd5b505050506040513d601f19601f82011682018060405250810190610dc191906146ee565b6001600160a01b0316336001600160a01b031614610df257604051631a27eac360e11b815260040160405180910390fd5b5f610e0460125b6102e490600a614837565b601754909150811115610c1c57601755565b60085f9054906101000a90046001600160a01b03166001600160a01b0316633a0dad8e6040518163ffffffff1660e01b8152600401602060405180830381865afa158015610e66573d5f5f3e3d5ffd5b505050506040513d601f19601f82011682018060405250810190610e8a91906146ee565b6001600160a01b0316336001600160a01b031614610ebb57604051631a27eac360e11b815260040160405180910390fd5b610ec3612aa5565b5f610ece600d612bb2565b90505f8163ffffffff166001600160401b03811115610eef57610eef613fef565b604051908082528060200260200182016040528015610f18578160200160208202803683370190505b5090505f8263ffffffff166001600160401b03811115610f3a57610f3a613fef565b604051908082528060200260200182016040528015610f63578160200160208202803683370190505b5090505f5b8363ffffffff168163ffffffff161015610ffd575f80610f92600d63ffffffff80861690612bbc16565b9150915081858463ffffffff1681518110610faf57610faf61466a565b60200260200101906001600160a01b031690816001600160a01b03168152505080848463ffffffff1681518110610fe857610fe861466a565b60209081029190910101525050600101610f68565b505f60138190555b8363ffffffff168163ffffffff1610156110d8575f838263ffffffff16815181106110325761103261466a565b602002602001015190505f838363ffffffff16815181106110555761105561466a565b6020026020010151905061107382600d612bca90919063ffffffff16565b505f61107e82612627565b905061108a8382612bde565b826001600160a01b03167f85a190caa61692b36b63a55e069330d18ab9af179fed7a25c16a4262bc63b7d2836040516110c591815260200190565b60405180910390a2505050600101611005565b505050506110e66001600555565b565b7f000000000000000000000000000000000000000000000000000000000000000090565b6006546001600160a01b0316331461113757604051631a27eac360e11b815260040160405180910390fd5b60085f9054906101000a90046001600160a01b03166001600160a01b031663edcf9c1f6040518163ffffffff1660e01b8152600401602060405180830381865afa158015611187573d5f5f3e3d5ffd5b505050506040513d601f19601f820116820180604052508101906111ab919061464f565b6111c8576040516312aecd8160e01b815260040160405180910390fd5b600460ff841611156111ed576040516317dbc4cb60e21b815260040160405180910390fd5b610bb861ffff83161115611214576040516317dbc4cb60e21b815260040160405180910390fd5b61012c61ffff8216111561123b576040516317dbc4cb60e21b815260040160405180910390fd5b8260ff166004811115611250576112506143d5565b6016805460ff1916600183600481111561126c5761126c6143d5565b02179055506016805464ffffffff00191661010061ffff85811691820264ffff0000001916929092176301000000928516928302179092556040805160ff8716815260208101939093528201527fd24f39e523bfa412fa391702710dc62e1c82d87a8e83228a37c42be1b4870f459060600160405180910390a1505050565b6112f58382612c12565b50601f805460ff191691151591909117905550565b5f60405163125ad87760e31b815260040160405180910390fd5b6001600160a01b03165f9081526020819052604090205490565b60085f9054906101000a90046001600160a01b03166001600160a01b031663edcf9c1f6040518163ffffffff1660e01b8152600401602060405180830381865afa15801561138e573d5f5f3e3d5ffd5b505050506040513d601f19601f820116820180604052508101906113b2919061464f565b6113cf576040516312aecd8160e01b815260040160405180910390fd5b805f036113f15730604051636b30633560e01b81526004016107b791906141b9565b5f6113fb33611324565b90508082111561142457338183604051632e2a182f60e11b81526004016107b7939291906146cd565b6040516323b872dd60e01b81525f9030906323b872dd9061144d90339084908890600401614709565b6020604051808303815f875af1158015611469573d5f5f3e3d5ffd5b505050506040513d601f19601f8201168201806040525081019061148d919061464f565b9050806114ad576040516312171d8360e31b815260040160405180910390fd5b5f6114b9601033612acf565b91506114d49050336114cb8684614741565b60109190612af5565b508360145f8282546114e69190614741565b909155505060405184815233907ff7774b688d56120b783560a913ee60792a73dfd511812b7be5eccf10d08c66899060200160405180910390a250505050565b6060600480546108099061467e565b60085f9054906101000a90046001600160a01b03166001600160a01b0316633a0dad8e6040518163ffffffff1660e01b8152600401602060405180830381865afa158015611585573d5f5f3e3d5ffd5b505050506040513d601f19601f820116820180604052508101906115a991906146ee565b6001600160a01b0316336001600160a01b0316146115da57604051631a27eac360e11b815260040160405180910390fd5b6019545f5b8161ffff168161ffff16101561163857601d5460185f60198461ffff168154811061160c5761160c61466a565b5f9182526020808320909101546001600160a01b031683528201929092526040019020556001016115df565b5061164460195f613f7f565b5f5b8161ffff168161ffff1610156117235784848261ffff1681811061166c5761166c61466a565b9050604002016020013560185f87878561ffff1681811061168f5761168f61466a565b6116a5926020604090920201908101915061417e565b6001600160a01b0316815260208101919091526040015f20556019858561ffff84168181106116d6576116d661466a565b6116ec926020604090920201908101915061417e565b8154600180820184555f93845260209093200180546001600160a01b0319166001600160a01b039290921691909117905501611646565b50600c8290556040518281527f5e1ff954b5e5257e9ee5d4cb07059e8f5e69b1aaaf9911e5d8d90a6894de9c219060200160405180910390a150505050565b5f61179a611771846001614741565b611779612c79565b61178490600a614837565b6002546117919190614741565b86919085612cf5565b949350505050565b5f336108a8818585612b55565b60085f9054906101000a90046001600160a01b03166001600160a01b0316633a0dad8e6040518163ffffffff1660e01b8152600401602060405180830381865afa1580156117ff573d5f5f3e3d5ffd5b505050506040513d601f19601f8201168201806040525081019061182391906146ee565b6001600160a01b0316336001600160a01b03161461185457604051631a27eac360e11b815260040160405180910390fd5b61185c612aa5565b5f6118676010612bb2565b90505f8163ffffffff166001600160401b0381111561188857611888613fef565b6040519080825280602002602001820160405280156118b1578160200160208202803683370190505b5090505f8263ffffffff166001600160401b038111156118d3576118d3613fef565b6040519080825280602002602001820160405280156118fc578160200160208202803683370190505b5090505f5b8363ffffffff168163ffffffff161015611996575f8061192b601063ffffffff80861690612bbc16565b9150915081858463ffffffff16815181106119485761194861466a565b60200260200101906001600160a01b031690816001600160a01b03168152505080848463ffffffff16815181106119815761198161466a565b60209081029190910101525050600101611901565b505f60148190555b8363ffffffff168163ffffffff1610156110d8575f838263ffffffff16815181106119cb576119cb61466a565b602002602001015190505f838363ffffffff16815181106119ee576119ee61466a565b60200260200101519050611a0c826010612bca90919063ffffffff16565b505f611a178261088a565b9050611a233083612d37565b60085f9054906101000a90046001600160a01b03166001600160a01b0316633a0dad8e6040518163ffffffff1660e01b8152600401602060405180830381865afa158015611a73573d5f5f3e3d5ffd5b505050506040513d601f19601f82011682018060405250810190611a9791906146ee565b6001600160a01b0316635dd44d7a84836040518363ffffffff1660e01b8152600401611ac4929190614845565b5f604051808303815f87803b158015611adb575f5ffd5b505af1158015611aed573d5f5f3e3d5ffd5b50505050826001600160a01b03167f44b2ff9ffcefe2052a8afdbed44a04bf3db4592ae90c6b96c818bd28573e41e883604051611b2c91815260200190565b60405180910390a250505060010161199e565b5f610895826001612a20565b601b54606090819061ffff81166001600160401b03811115611b6f57611b6f613fef565b604051908082528060200260200182016040528015611b98578160200160208202803683370190505b5092508061ffff166001600160401b03811115611bb757611bb7613fef565b604051908082528060200260200182016040528015611be0578160200160208202803683370190505b5091505f5b8161ffff168161ffff161015611cc657601b8161ffff1681548110611c0c57611c0c61466a565b905f5260205f20015f9054906101000a90046001600160a01b0316848261ffff1681518110611c3d57611c3d61466a565b60200260200101906001600160a01b031690816001600160a01b031681525050601a5f601b8361ffff1681548110611c7757611c7761466a565b5f9182526020808320909101546001600160a01b031683528201929092526040019020548351849061ffff8416908110611cb357611cb361466a565b6020908102919091010152600101611be5565b50509091565b6006546001600160a01b03163314611cf757604051631a27eac360e11b815260040160405180910390fd5b60085f9054906101000a90046001600160a01b03166001600160a01b031663edcf9c1f6040518163ffffffff1660e01b8152600401602060405180830381865afa158015611d47573d5f5f3e3d5ffd5b505050506040513d601f19601f82011682018060405250810190611d6b919061464f565b611d88576040516312aecd8160e01b815260040160405180910390fd5b6015545f03611d99576109da6110e8565b601580545f90915560085460408051631d06d6c760e11b815290516001600160a01b0390921691633a0dad8e916004808201926020929091908290030181865afa158015611de9573d5f5f3e3d5ffd5b505050506040513d601f19601f82011682018060405250810190611e0d91906146ee565b6001600160a01b031663741fca4b826040518263ffffffff1660e01b8152600401611e3a91815260200190565b5f604051808303815f87803b158015611e51575f5ffd5b505af1158015611e63573d5f5f3e3d5ffd5b5050505050565b611e72612aa5565b60085f9054906101000a90046001600160a01b03166001600160a01b031663edcf9c1f6040518163ffffffff1660e01b8152600401602060405180830381865afa158015611ec2573d5f5f3e3d5ffd5b505050506040513d601f19601f82011682018060405250810190611ee6919061464f565b611f03576040516312aecd8160e01b815260040160405180910390fd5b805f03611f12576109da6110e8565b5f611f1e600d33612acf565b91505081811015611f42576040516332194fd360e21b815260040160405180910390fd5b60085f9054906101000a90046001600160a01b03166001600160a01b0316633a0dad8e6040518163ffffffff1660e01b8152600401602060405180830381865afa158015611f92573d5f5f3e3d5ffd5b505050506040513d601f19601f82011682018060405250810190611fb691906146ee565b6001600160a01b03166351edffb133846040518363ffffffff1660e01b8152600401611fe3929190614845565b5f604051808303815f87803b158015611ffa575f5ffd5b505af115801561200c573d5f5f3e3d5ffd5b505050505f828261201d919061485e565b9050805f0361203757612031600d33612bca565b50612045565b612043600d3383612af5565b505b8260135f828254612056919061485e565b909155505060405183815233907f96a9a6886cdf3047a125454218a23d3961fd3a78643123b248a9d106d0ac94fd9060200160405180910390a25050610c1c6001600555565b6007546001600160a01b031633146120c757604051631a27eac360e11b815260040160405180910390fd5b6120cf612aa5565b5f8390036120f057604051631121aa8d60e01b815260040160405180910390fd5b601d5483905f61ffff83166001600160401b0381111561211257612112613fef565b60405190808252806020026020018201604052801561213b578160200160208202803683370190505b5090505f8361ffff166001600160401b0381111561215b5761215b613fef565b604051908082528060200260200182016040528015612184578160200160208202803683370190505b50601e549091505f61ffff86166001600160401b038111156121a8576121a8613fef565b6040519080825280602002602001820160405280156121d1578160200160208202803683370190505b5090505f5b8661ffff168161ffff1610156123a8575f8b8b8361ffff168181106121fd576121fd61466a565b612213926020604090920201908101915061417e565b905080838361ffff168151811061222c5761222c61466a565b60200260200101906001600160a01b031690816001600160a01b0316815250505f6122ab8d8d8561ffff168181106122665761226661466a565b905060400201602001358c8c8080601f0160208091040260200160405190810160405280939291908181526020018383808284375f92019190915250612d6b92505050565b90506122b681612d78565b505f6122c482601d54612d87565b90506122d08682612db5565b6001600160a01b0384165f908152601c602052604090205490965060ff161561230e57826040516346bdabe160e01b81526004016107b791906141b9565b6001600160a01b0383165f908152601c60205260409020805460ff1916600117905587518390899061ffff871690811061234a5761234a61466a565b60200260200101906001600160a01b031690816001600160a01b03168152505081878561ffff16815181106123815761238161466a565b6020026020010181815250506123978983612de3565b985050600190920191506121d69050565b506123b281612e11565b5f61243a60085f9054906101000a90046001600160a01b03166001600160a01b031663d1717c7d6040518163ffffffff1660e01b8152600401602060405180830381865afa158015612406573d5f5f3e3d5ffd5b505050506040513d601f19601f8201168201806040525081019061242a9190614871565b61243590600a614837565b612e89565b90505f6124478783612e9b565b90505f6124548583612db5565b905061245f81612d78565b506040805160018082528183019092525f916020808301908036833701905050905081815f815181106124945761249461466a565b60209081029190910101526124b0816358df830160e01b612ec9565b505f5b601b5461ffff908116908216101561250e57601d54601a5f601b8461ffff16815481106124e2576124e261466a565b5f9182526020808320909101546001600160a01b031683528201929092526040019020556001016124b3565b5061251a601b5f613f7f565b5f5b8a61ffff168161ffff1610156125e2575f898261ffff16815181106125435761254361466a565b60200260200101519050888261ffff16815181106125635761256361466a565b6020908102919091018101516001600160a01b039092165f818152601a8352604080822094909455601b805460018181019092557f3ad8aa4f87544323a9d1e5dd902f40c356527a7955687113db5f9a85ad579dc10180546001600160a01b03191684179055918152601c909252919020805460ff191690550161251c565b5060405133907f2d47a742b8d7df7c1fc5a9a631b206b364e6cb2722490759f63bb3ab14b132e0905f90a2505050505050505050506126216001600555565b50505050565b5f610895825f612a73565b61263a612aa5565b60085f9054906101000a90046001600160a01b03166001600160a01b031663edcf9c1f6040518163ffffffff1660e01b8152600401602060405180830381865afa15801561268a573d5f5f3e3d5ffd5b505050506040513d601f19601f820116820180604052508101906126ae919061464f565b6126cb576040516312aecd8160e01b815260040160405180910390fd5b805f036126ed5730604051636b30633560e01b81526004016107b791906141b9565b5f6126f9601033612acf565b9150508181101561271d576040516312ea1f4960e11b815260040160405180910390fd5b5f612728838361485e565b9050805f036127425761273c601033612bca565b50612750565b61274e60103383612af5565b505b8260145f828254612761919061485e565b909155505060405163a9059cbb60e01b81525f90309063a9059cbb9061278d9033908890600401614845565b6020604051808303815f875af11580156127a9573d5f5f3e3d5ffd5b505050506040513d601f19601f820116820180604052508101906127cd919061464f565b9050806127ed576040516312171d8360e31b815260040160405180910390fd5b60405184815233907f9cf37535785001dcc9767688232fcbc8698b3002d1207b50bc2afec3ff8934dc90602001610c07565b5f61089561282c83611324565b5f612a20565b601954606090819061ffff81166001600160401b0381111561285657612856613fef565b60405190808252806020026020018201604052801561287f578160200160208202803683370190505b5092508061ffff166001600160401b0381111561289e5761289e613fef565b6040519080825280602002602001820160405280156128c7578160200160208202803683370190505b5091505f5b8161ffff168161ffff161015611cc6575f60198261ffff16815481106128f4576128f461466a565b905f5260205f20015f9054906101000a90046001600160a01b0316905080858361ffff16815181106129285761292861466a565b60200260200101906001600160a01b031690816001600160a01b03168152505060185f826001600160a01b03166001600160a01b031681526020019081526020015f2054848361ffff16815181106129825761298261466a565b6020908102919091010152506001016128cc565b5f61089582611324565b6001600160a01b039182165f90815260016020908152604080832093909416825291909152205490565b5f5f6129d583612ed5565b90505f6129e2828561485e565b90505f6129ee82612f9f565b90506129fa8184614741565b95945050505050565b610c1c8161305b565b5f610d46836001600160a01b0384166130b4565b5f610d46612a2d600c5490565b612a38906001614741565b612a40612c79565b612a4b90600a614837565b600254612a589190614741565b85919085612cf5565b612a6e83838360016130fb565b505050565b5f610d46612a7f612c79565b612a8a90600a614837565b600254612a979190614741565b600c54612a58906001614741565b600260055403612ac857604051633ee5aeb560e01b815260040160405180910390fd5b6002600555565b5f808080612ae6866001600160a01b0387166131cd565b909450925050505b9250929050565b5f61179a846001600160a01b03851684613205565b5f612b1584846129a0565b90505f198110156126215781811015612b4757828183604051637dc7a0d960e11b81526004016107b7939291906146cd565b61262184848484035f6130fb565b6001600160a01b038316612b7e575f604051634b637e8f60e11b81526004016107b791906141b9565b6001600160a01b038216612ba7575f60405163ec442f0560e01b81526004016107b791906141b9565b612a6e838383613221565b5f61089582613334565b5f808080612ae6868661333e565b5f610d46836001600160a01b038416613367565b6001600160a01b038216612c07575f60405163ec442f0560e01b81526004016107b791906141b9565b6107f65f8383613221565b5f612c1c83613383565b90505f612c29828461341f565b905080612c495760405163cf6c44e960e01b815260040160405180910390fd5b60405184907f1af0453083661051f6e56e5c070792320652e612154bf9af8637bb1e7655b99d905f90a250505050565b5f5f612c836110e8565b6001600160a01b031663313ce5676040518163ffffffff1660e01b8152600401602060405180830381865afa158015612cbe573d5f5f3e3d5ffd5b505050506040513d601f19601f82011682018060405250810190612ce29190614871565b9050612cef81601261488c565b91505090565b5f612d22612d0283613506565b8015612d1d57505f8480612d1857612d186148a5565b868809115b151590565b612d2d868686613532565b6129fa9190614741565b6001600160a01b038216612d60575f604051634b637e8f60e11b81526004016107b791906141b9565b6107f6825f83613221565b5f610d46838360046135e2565b5f612d8382306136cc565b5090565b5f82612d9957612d965f612e89565b92505b81612daa57612da75f612e89565b91505b610d4683835f613739565b5f82612dc757612dc45f6137cf565b92505b81612dd857612dd55f6137cf565b91505b610d4683835f6137ea565b5f82612df557612df25f612e89565b92505b81612e0657612e035f612e89565b91505b610d4683835f613840565b5f5b81518110156107f657612e49828281518110612e3157612e3161466a565b6020026020010151600a61389690919063ffffffff16565b612e8157818181518110612e5f57612e5f61466a565b602002602001015160405163751dff9760e11b81526004016107b791906141b9565b600101612e13565b5f6108958263ffffffff1660046138aa565b5f82612ead57612eaa5f612e89565b92505b81612ebe57612ebb5f612e89565b91505b610d4683835f613929565b5f610d4683835f61397f565b6016545f906301000000900461ffff168103612ef257505f919050565b6016545f90612f0f906301000000900461ffff1684612710613532565b9050610d4660095f9054906101000a90046001600160a01b03166001600160a01b0316634ff0876a6040518163ffffffff1660e01b8152600401602060405180830381865afa158015612f64573d5f5f3e3d5ffd5b505050506040513d601f19601f82011682018060405250810190612f8891906148b9565b829063ffffffff908116906301e133809061353216565b6016545f90610100900461ffff168103612fba57505f919050565b5f612ffe612fc9846001614741565b612fd1612c79565b612fdc90600a614837565b600254612fe99190614741565b5f612ff66012600a614837565b929190612cf5565b6016549091505f9081906130149060ff16613a84565b9150915081831161302957505f949350505050565b6016545f9061304290610100900461ffff168584613532565b90506130518187612710613532565b9695505050505050565b5f613064825490565b90505f5b818110156130ad57826001015f845f0183815481106130895761308961466a565b905f5260205f20015481526020019081526020015f205f9055806001019050613068565b50505f9055565b5f6130bf8383613b6e565b6130f457508154600181810184555f848152602080822090930184905584548482528286019093526040902091909155610895565b505f610895565b6001600160a01b038416613124575f60405163e602df0560e01b81526004016107b791906141b9565b6001600160a01b03831661314d575f604051634a1406b160e11b81526004016107b791906141b9565b6001600160a01b038085165f908152600160209081526040808320938716835292905220829055801561262157826001600160a01b0316846001600160a01b03167f8c5be1e5ebec7d5bd14f71427d1e84f3dd0314c0f7b2291e5b200ac8c7c3b925846040516131bf91815260200190565b60405180910390a350505050565b5f8181526002830160205260408120548190806131fa576131ee8585613b85565b92505f9150612aee9050565b600192509050612aee565b5f828152600284016020526040812082905561179a8484613b90565b6001600160a01b03831661324b578060025f8282546132409190614741565b909155506132a89050565b6001600160a01b0383165f908152602081905260409020548181101561328a5783818360405163391434e360e21b81526004016107b7939291906146cd565b6001600160a01b0384165f9081526020819052604090209082900390555b6001600160a01b0382166132c4576002805482900390556132e2565b6001600160a01b0382165f9081526020819052604090208054820190555b816001600160a01b0316836001600160a01b03167fddf252ad1be2c89b69c2b068fc378daa952ba7f163c4a11628f55a4df523b3ef8360405161332791815260200190565b60405180910390a3505050565b5f61089582613b9b565b5f808061334b8585613ba4565b5f81815260029690960160205260409095205494959350505050565b5f8181526002830160205260408120819055610d468383613baf565b60605f61338e613bba565b5f848152600282016020526040812054919250036133bf5760405163d66ca67560e01b815260040160405180910390fd5b5f8381526002820160209081526040918290208054835181840281018401909452808452909183018282801561341257602002820191905f5260205f20905b8154815260200190600101908083116133fe575b5050505050915050919050565b5f60248161342c85613bde565b90505f816001600160401b0381111561344757613447613fef565b6040519080825280601f01601f191660200182016040528015613471576020820181803683370190505b509050818360208301375f613484613c8b565b6002810154604051632c027b1360e21b81529192506001600160a01b03169063b009ec4c906134bb908a9086908b90600401614916565b6020604051808303815f875af11580156134d7573d5f5f3e3d5ffd5b505050506040513d601f19601f820116820180604052508101906134fb919061464f565b979650505050505050565b5f600282600381111561351b5761351b6143d5565b61352591906149a0565b60ff166001149050919050565b5f5f5f61353f8686613caf565b91509150815f0361356357838181613559576135596148a5565b0492505050610d46565b81841161357a5761357a6003851502601118613ccb565b5f848688095f868103871696879004966002600389028118808a02820302808a02820302808a02820302808a02820302808a02820302808a02909103029181900381900460010185841190960395909502919093039390930492909217029150509392505050565b5f5f6135ec613c8b565b600181015460405163196d0b9b60e01b81529192506001600160a01b03169063196d0b9b906136259088903390899089906004016149e1565b6020604051808303815f875af1158015613641573d5f5f3e3d5ffd5b505050506040513d601f19601f8201168201806040525081019061366591906146b6565b8154604051630f8e573b60e21b81529193506001600160a01b031690633e395cec906136979085903390600401614a19565b5f604051808303815f87803b1580156136ae575f5ffd5b505af11580156136c0573d5f5f3e3d5ffd5b50505050509392505050565b5f6136d5613c8b565b8054604051635ca4b5b160e11b81529192506001600160a01b03169063b9496b62906137079086908690600401614a19565b5f604051808303815f87803b15801561371e575f5ffd5b505af1158015613730573d5f5f3e3d5ffd5b50505050505050565b5f5f821561374c5750600160f81b61374f565b505f5b5f613758613c8b565b60018101546040516385362ee760e01b81529192506001600160a01b0316906385362ee79061378f90899089908790600401614a30565b6020604051808303815f875af11580156137ab573d5f5f3e3d5ffd5b505050506040513d601f19601f8201168201806040525081019061305191906146b6565b5f610895826137de575f6137e1565b60015b60ff165f6138aa565b5f5f82156137fd5750600160f81b613800565b505f5b5f613809613c8b565b600181015460405163d99882d560e01b81529192506001600160a01b03169063d99882d59061378f90899089908790600401614a30565b5f5f82156138535750600160f81b613856565b505f5b5f61385f613c8b565b600181015460405163022f65e760e31b81529192506001600160a01b03169063117b2f389061378f90899089908790600401614a30565b5f610d46836001600160a01b038416613b6e565b5f5f6138b4613c8b565b6001810154604051639cd07acb60e01b81529192506001600160a01b031690639cd07acb906138e99087908790600401614a50565b6020604051808303815f875af1158015613905573d5f5f3e3d5ffd5b505050506040513d601f19601f8201168201806040525081019061179a91906146b6565b5f5f821561393c5750600160f81b61393f565b505f5b5f613948613c8b565b600181015460405163f77f3f1d60e01b81529192506001600160a01b03169063f77f3f1d9061378f90899089908790600401614a30565b5f5f613989613bba565b9050806001015491505f61399b613c8b565b8054604051637d6e912360e11b81529192506001600160a01b03169063fadd2246906139cb908990600401614a64565b5f604051808303815f87803b1580156139e2575f5ffd5b505af11580156139f4573d5f5f3e3d5ffd5b50508354604051633263b83b60e01b81526001600160a01b039091169250633263b83b91508690613a2d9087908b908b90600401614a76565b5f604051808303818588803b158015613a44575f5ffd5b505af1158015613a56573d5f5f3e3d5ffd5b5050505050613a658387613cdc565b600182018054905f613a7683614aa7565b919050555050509392505050565b5f8080613a916012610df9565b90505f846004811115613aa657613aa66143d5565b03613ab657809250829150613b68565b6003846004811115613aca57613aca6143d5565b03613adc576017549250829150613b68565b6001846004811115613af057613af06143d5565b03613b0857613afe81613d36565b9250809150613b68565b6002846004811115613b1c57613b1c6143d5565b03613b3457613b2a81613d36565b9250829150613b68565b6004846004811115613b4857613b486143d5565b03613b6857601754613b6290613b5d83613d36565b613e5c565b92508291505b50915091565b5f9081526001919091016020526040902054151590565b5f610d468383613e6b565b5f610d4683836130b4565b5f610895825490565b5f610d468383613e76565b5f610d468383613e9c565b7f5ea69329017273582817d320489fbd94f775580e90c092699ca6f3d12fdf7d0090565b80515f9081805b82811015613c7f575f858281518110613c0057613c0061466a565b6020026020010151601e60208110613c1a57613c1a61466a565b1a6053811115613c2c57613c2c6143d5565b90506009816053811115613c4257613c426143d5565b60ff161015613c5d57613c56602084614741565b9250613c76565b60405163ce54a8d160e01b815260040160405180910390fd5b50600101613be5565b5061179a602082614741565b7fed8d60e34876f751cc8b014c560745351147d9de11b9347c854e881b128ea60090565b5f805f1983850993909202808410938190039390930393915050565b634e487b715f52806020526024601cfd5b5f613ce5613bba565b5f84815260028201602052604090205490915015613d1657604051633f06d22b60e01b815260040160405180910390fd5b5f8381526002820160209081526040909120835161262192850190613f9a565b5f5f60085f9054906101000a90046001600160a01b03166001600160a01b031663f3cc69936040518163ffffffff1660e01b8152600401602060405180830381865afa158015613d88573d5f5f3e3d5ffd5b505050506040513d601f19601f82011682018060405250810190613dac9190614abf565b61ffff1690505f613e4160095f9054906101000a90046001600160a01b03166001600160a01b0316634ff0876a6040518163ffffffff1660e01b8152600401602060405180830381865afa158015613e06573d5f5f3e3d5ffd5b505050506040513d601f19601f82011682018060405250810190613e2a91906148b9565b839063ffffffff908116906301e133809061353216565b905061179a613e5282612710614741565b8590612710613532565b5f828218828411028218610d46565b5f610d468383613b6e565b5f825f018281548110613e8b57613e8b61466a565b905f5260205f200154905092915050565b5f8181526001830160205260408120548015613f76575f613ebe60018361485e565b85549091505f90613ed19060019061485e565b9050808214613f30575f865f018281548110613eef57613eef61466a565b905f5260205f200154905080875f018481548110613f0f57613f0f61466a565b5f918252602080832090910192909255918252600188019052604090208390555b8554869080613f4157613f41614ada565b600190038181905f5260205f20015f90559055856001015f8681526020019081526020015f205f905560019350505050610895565b5f915050610895565b5080545f8255905f5260205f2090810190610c1c9190613fdb565b828054828255905f5260205f20908101928215613fd3579160200282015b82811115613fd3578251825591602001919060010190613fb8565b50612d839291505b5b80821115612d83575f8155600101613fdc565b634e487b7160e01b5f52604160045260245ffd5b604051601f8201601f191681016001600160401b038111828210171561402b5761402b613fef565b604052919050565b5f6001600160401b0382111561404b5761404b613fef565b5060051b60200190565b6001600160a01b0381168114610c1c575f5ffd5b5f60208284031215614079575f5ffd5b81356001600160401b0381111561408e575f5ffd5b8201601f8101841361409e575f5ffd5b80356140b16140ac82614033565b614003565b8082825260208201915060208360051b8501019250868311156140d2575f5ffd5b6020840193505b828410156130515783356140ec81614055565b8252602093840193909101906140d9565b5f81518084528060208401602086015e5f602082860101526020601f19601f83011685010191505092915050565b602081525f610d4660208301846140fd565b5f6020828403121561414d575f5ffd5b5035919050565b5f5f60408385031215614165575f5ffd5b823561417081614055565b946020939093013593505050565b5f6020828403121561418e575f5ffd5b8135610d4681614055565b5f5f604083850312156141aa575f5ffd5b50508035926020909101359150565b6001600160a01b0391909116815260200190565b5f5f5f606084860312156141df575f5ffd5b83356141ea81614055565b925060208401356141fa81614055565b929592945050506040919091013590565b60ff81168114610c1c575f5ffd5b61ffff81168114610c1c575f5ffd5b5f5f5f6060848603121561423a575f5ffd5b83356142458161420b565b9250602084013561425581614219565b9150604084013561426581614219565b809150509250925092565b8015158114610c1c575f5ffd5b5f5f5f6060848603121561428f575f5ffd5b8335925060208401356142a181614270565b915060408401356001600160401b038111156142bb575f5ffd5b8401601f810186136142cb575f5ffd5b80356142d96140ac82614033565b8082825260208201915060208360051b8501019250888311156142fa575f5ffd5b602084015b838110156143985780356001600160401b0381111561431c575f5ffd5b8501603f81018b1361432c575f5ffd5b60208101356001600160401b0381111561434857614348613fef565b61435b601f8201601f1916602001614003565b8181526040838301018d101561436f575f5ffd5b816040840160208301375f602083830101528086525050506020830192506020810190506142ff565b50809450505050509250925092565b5f5f604083850312156143b8575f5ffd5b8235915060208301356143ca81614055565b809150509250929050565b634e487b7160e01b5f52602160045260245ffd5b60808101600586106143fd576143fd6143d5565b94815261ffff93841660208201529190921660408201526060015290565b5f5f83601f84011261442b575f5ffd5b5081356001600160401b03811115614441575f5ffd5b6020830191508360208260061b8501011115612aee575f5ffd5b5f5f5f6040848603121561446d575f5ffd5b83356001600160401b03811115614482575f5ffd5b61448e8682870161441b565b909790965060209590950135949350505050565b5f5f5f606084860312156144b4575f5ffd5b8335925060208401359150604084013560048110614265575f5ffd5b5f5f5f606084860312156144e2575f5ffd5b8335925060208401356144f481614055565b9150604084013561426581614055565b604080825283519082018190525f9060208501906060840190835b818110156145465783516001600160a01b031683526020938401939092019160010161451f565b5050838103602080860191909152855180835291810192508501905f5b81811015614581578251845260209384019390920191600101614563565b50919695505050505050565b5f5f5f5f604085870312156145a0575f5ffd5b84356001600160401b038111156145b5575f5ffd5b6145c18782880161441b565b90955093505060208501356001600160401b038111156145df575f5ffd5b8501601f810187136145ef575f5ffd5b80356001600160401b03811115614604575f5ffd5b876020828401011115614615575f5ffd5b949793965060200194505050565b5f5f60408385031215614634575f5ffd5b823561463f81614055565b915060208301356143ca81614055565b5f6020828403121561465f575f5ffd5b8151610d4681614270565b634e487b7160e01b5f52603260045260245ffd5b600181811c9082168061469257607f821691505b6020821081036146b057634e487b7160e01b5f52602260045260245ffd5b50919050565b5f602082840312156146c6575f5ffd5b5051919050565b6001600160a01b039390931683526020830191909152604082015260600190565b5f602082840312156146fe575f5ffd5b8151610d4681614055565b6001600160a01b039384168152919092166020820152604081019190915260600190565b634e487b7160e01b5f52601160045260245ffd5b808201808211156108955761089561472d565b6001815b600184111561478f578085048111156147735761477361472d565b600184161561478157908102905b60019390931c928002614758565b935093915050565b5f826147a557506001610895565b816147b157505f610895565b81600181146147c757600281146147d1576147ed565b6001915050610895565b60ff8411156147e2576147e261472d565b50506001821b610895565b5060208310610133831016604e8410600b8410161715614810575081810a610895565b61481c5f198484614754565b805f190482111561482f5761482f61472d565b029392505050565b5f610d4660ff841683614797565b6001600160a01b03929092168252602082015260400190565b818103818111156108955761089561472d565b5f60208284031215614881575f5ffd5b8151610d468161420b565b60ff82811682821603908111156108955761089561472d565b634e487b7160e01b5f52601260045260245ffd5b5f602082840312156148c9575f5ffd5b815163ffffffff81168114610d46575f5ffd5b5f8151808452602084019350602083015f5b8281101561490c5781518652602095860195909101906001016148ee565b5093949350505050565b606081525f61492860608301866148dc565b828103602084015261493a81866140fd565b9050828103604084015280845180835260208301915060208160051b840101602087015f5b8381101561499157601f1986840301855261497b8383516140fd565b602095860195909350919091019060010161495f565b50909998505050505050505050565b5f60ff8316806149be57634e487b7160e01b5f52601260045260245ffd5b8060ff84160691505092915050565b605481106149dd576149dd6143d5565b9052565b8481526001600160a01b03841660208201526080604082018190525f90614a0a908301856140fd565b90506129fa60608301846149cd565b9182526001600160a01b0316602082015260400190565b92835260208301919091526001600160f81b031916604082015260600190565b82815260408101610d4660208301846149cd565b602081525f610d4660208301846148dc565b838152606060208201525f614a8e60608301856148dc565b905063ffffffff60e01b83166040830152949350505050565b5f60018201614ab857614ab861472d565b5060010190565b5f60208284031215614acf575f5ffd5b8151610d4681614219565b634e487b7160e01b5f52603160045260245ffdfea264697066735822122001cee16f51480bd0d6a93532a2b63b9cb1195cc0c00e8473c00540d89dd616d364736f6c634300081c0033ed8d60e34876f751cc8b014c560745351147d9de11b9347c854e881b128ea600ed8d60e34876f751cc8b014c560745351147d9de11b9347c854e881b128ea601",
  "linkReferences": {},
  "deployedLinkReferences": {}
}