{
  "_format": "hh-sol-artifact-1",
  "contractName": "OrionEncryptedVault",
  "sourceName": "contracts/vaults/OrionEncryptedVault.sol",
  "abi": [
    {
      "inputs": [
        {
          "internalType": "address",
          "name": "vaultOwner",
          "type": "address"
        },
        {
          "internalType": "address",
          "name": "curator",
          "type": "address"
        },
        {
          "internalType": "contract IOrionConfig",
          "name": "configAddress",
          "type": "address"
        },
        {
          "internalType": "string",
          "name": "name",
          "type": "string"
        },
        {
          "internalType": "string",
          "name": "symbol",
          "type": "string"
        }
      ],
      "stateMutability": "nonpayable",
      "type": "constructor"
    },
    {
      "inputs": [
        {
          "internalType": "address",
          "name": "asset",
          "type": "address"
        }
      ],
      "name": "AmountMustBeGreaterThanZero",
      "type": "error"
    },
    {
      "inputs": [
        {
          "internalType": "address",
          "name": "spender",
          "type": "address"
        },
        {
          "internalType": "uint256",
          "name": "allowance",
          "type": "uint256"
        },
        {
          "internalType": "uint256",
          "name": "needed",
          "type": "uint256"
        }
      ],
      "name": "ERC20InsufficientAllowance",
      "type": "error"
    },
    {
      "inputs": [
        {
          "internalType": "address",
          "name": "sender",
          "type": "address"
        },
        {
          "internalType": "uint256",
          "name": "balance",
          "type": "uint256"
        },
        {
          "internalType": "uint256",
          "name": "needed",
          "type": "uint256"
        }
      ],
      "name": "ERC20InsufficientBalance",
      "type": "error"
    },
    {
      "inputs": [
        {
          "internalType": "address",
          "name": "approver",
          "type": "address"
        }
      ],
      "name": "ERC20InvalidApprover",
      "type": "error"
    },
    {
      "inputs": [
        {
          "internalType": "address",
          "name": "receiver",
          "type": "address"
        }
      ],
      "name": "ERC20InvalidReceiver",
      "type": "error"
    },
    {
      "inputs": [
        {
          "internalType": "address",
          "name": "sender",
          "type": "address"
        }
      ],
      "name": "ERC20InvalidSender",
      "type": "error"
    },
    {
      "inputs": [
        {
          "internalType": "address",
          "name": "spender",
          "type": "address"
        }
      ],
      "name": "ERC20InvalidSpender",
      "type": "error"
    },
    {
      "inputs": [
        {
          "internalType": "address",
          "name": "receiver",
          "type": "address"
        },
        {
          "internalType": "uint256",
          "name": "assets",
          "type": "uint256"
        },
        {
          "internalType": "uint256",
          "name": "max",
          "type": "uint256"
        }
      ],
      "name": "ERC4626ExceededMaxDeposit",
      "type": "error"
    },
    {
      "inputs": [
        {
          "internalType": "address",
          "name": "receiver",
          "type": "address"
        },
        {
          "internalType": "uint256",
          "name": "shares",
          "type": "uint256"
        },
        {
          "internalType": "uint256",
          "name": "max",
          "type": "uint256"
        }
      ],
      "name": "ERC4626ExceededMaxMint",
      "type": "error"
    },
    {
      "inputs": [
        {
          "internalType": "address",
          "name": "owner",
          "type": "address"
        },
        {
          "internalType": "uint256",
          "name": "shares",
          "type": "uint256"
        },
        {
          "internalType": "uint256",
          "name": "max",
          "type": "uint256"
        }
      ],
      "name": "ERC4626ExceededMaxRedeem",
      "type": "error"
    },
    {
      "inputs": [
        {
          "internalType": "address",
          "name": "owner",
          "type": "address"
        },
        {
          "internalType": "uint256",
          "name": "assets",
          "type": "uint256"
        },
        {
          "internalType": "uint256",
          "name": "max",
          "type": "uint256"
        }
      ],
      "name": "ERC4626ExceededMaxWithdraw",
      "type": "error"
    },
    {
      "inputs": [
        {
          "internalType": "address",
          "name": "sender",
          "type": "address"
        },
        {
          "internalType": "uint256",
          "name": "balance",
          "type": "uint256"
        },
        {
          "internalType": "uint256",
          "name": "amount",
          "type": "uint256"
        }
      ],
      "name": "InsufficientFunds",
      "type": "error"
    },
    {
      "inputs": [],
      "name": "InvalidAddress",
      "type": "error"
    },
    {
      "inputs": [],
      "name": "InvalidUnderlyingDecimals",
      "type": "error"
    },
    {
      "inputs": [],
      "name": "NotEnoughDepositRequest",
      "type": "error"
    },
    {
      "inputs": [],
      "name": "NotEnoughWithdrawRequest",
      "type": "error"
    },
    {
      "inputs": [],
      "name": "OrderIntentCannotBeEmpty",
      "type": "error"
    },
    {
      "inputs": [],
      "name": "ReentrancyGuardReentrantCall",
      "type": "error"
    },
    {
      "inputs": [],
      "name": "SynchronousCallDisabled",
      "type": "error"
    },
    {
      "inputs": [
        {
          "internalType": "address",
          "name": "token",
          "type": "address"
        }
      ],
      "name": "TokenAlreadyInOrder",
      "type": "error"
    },
    {
      "inputs": [
        {
          "internalType": "address",
          "name": "token",
          "type": "address"
        }
      ],
      "name": "TokenNotWhitelisted",
      "type": "error"
    },
    {
      "inputs": [],
      "name": "TransferFailed",
      "type": "error"
    },
    {
      "inputs": [],
      "name": "UnauthorizedAccess",
      "type": "error"
    },
    {
      "anonymous": false,
      "inputs": [
        {
          "indexed": true,
          "internalType": "address",
          "name": "owner",
          "type": "address"
        },
        {
          "indexed": true,
          "internalType": "address",
          "name": "spender",
          "type": "address"
        },
        {
          "indexed": false,
          "internalType": "uint256",
          "name": "value",
          "type": "uint256"
        }
      ],
      "name": "Approval",
      "type": "event"
    },
    {
      "anonymous": false,
      "inputs": [
        {
          "indexed": true,
          "internalType": "address",
          "name": "sender",
          "type": "address"
        },
        {
          "indexed": true,
          "internalType": "address",
          "name": "owner",
          "type": "address"
        },
        {
          "indexed": false,
          "internalType": "uint256",
          "name": "assets",
          "type": "uint256"
        },
        {
          "indexed": false,
          "internalType": "uint256",
          "name": "shares",
          "type": "uint256"
        }
      ],
      "name": "Deposit",
      "type": "event"
    },
    {
      "anonymous": false,
      "inputs": [
        {
          "indexed": true,
          "internalType": "address",
          "name": "user",
          "type": "address"
        },
        {
          "indexed": false,
          "internalType": "uint256",
          "name": "amount",
          "type": "uint256"
        }
      ],
      "name": "DepositProcessed",
      "type": "event"
    },
    {
      "anonymous": false,
      "inputs": [
        {
          "indexed": true,
          "internalType": "address",
          "name": "user",
          "type": "address"
        },
        {
          "indexed": false,
          "internalType": "uint256",
          "name": "amount",
          "type": "uint256"
        }
      ],
      "name": "DepositRequestCancelled",
      "type": "event"
    },
    {
      "anonymous": false,
      "inputs": [
        {
          "indexed": true,
          "internalType": "address",
          "name": "user",
          "type": "address"
        },
        {
          "indexed": false,
          "internalType": "uint256",
          "name": "amount",
          "type": "uint256"
        }
      ],
      "name": "DepositRequested",
      "type": "event"
    },
    {
      "anonymous": false,
      "inputs": [
        {
          "indexed": true,
          "internalType": "address",
          "name": "curator",
          "type": "address"
        }
      ],
      "name": "OrderSubmitted",
      "type": "event"
    },
    {
      "anonymous": false,
      "inputs": [
        {
          "indexed": true,
          "internalType": "address",
          "name": "from",
          "type": "address"
        },
        {
          "indexed": true,
          "internalType": "address",
          "name": "to",
          "type": "address"
        },
        {
          "indexed": false,
          "internalType": "uint256",
          "name": "value",
          "type": "uint256"
        }
      ],
      "name": "Transfer",
      "type": "event"
    },
    {
      "anonymous": false,
      "inputs": [
        {
          "indexed": false,
          "internalType": "uint256",
          "name": "newTotalAssets",
          "type": "uint256"
        }
      ],
      "name": "VaultStateUpdated",
      "type": "event"
    },
    {
      "anonymous": false,
      "inputs": [
        {
          "indexed": true,
          "internalType": "address",
          "name": "sender",
          "type": "address"
        },
        {
          "indexed": true,
          "internalType": "address",
          "name": "receiver",
          "type": "address"
        },
        {
          "indexed": true,
          "internalType": "address",
          "name": "owner",
          "type": "address"
        },
        {
          "indexed": false,
          "internalType": "uint256",
          "name": "assets",
          "type": "uint256"
        },
        {
          "indexed": false,
          "internalType": "uint256",
          "name": "shares",
          "type": "uint256"
        }
      ],
      "name": "Withdraw",
      "type": "event"
    },
    {
      "anonymous": false,
      "inputs": [
        {
          "indexed": true,
          "internalType": "address",
          "name": "user",
          "type": "address"
        },
        {
          "indexed": false,
          "internalType": "uint256",
          "name": "shares",
          "type": "uint256"
        }
      ],
      "name": "WithdrawProcessed",
      "type": "event"
    },
    {
      "anonymous": false,
      "inputs": [
        {
          "indexed": true,
          "internalType": "address",
          "name": "user",
          "type": "address"
        },
        {
          "indexed": false,
          "internalType": "uint256",
          "name": "shares",
          "type": "uint256"
        }
      ],
      "name": "WithdrawRequestCancelled",
      "type": "event"
    },
    {
      "anonymous": false,
      "inputs": [
        {
          "indexed": true,
          "internalType": "address",
          "name": "user",
          "type": "address"
        },
        {
          "indexed": false,
          "internalType": "uint256",
          "name": "shares",
          "type": "uint256"
        }
      ],
      "name": "WithdrawRequested",
      "type": "event"
    },
    {
      "inputs": [
        {
          "internalType": "address",
          "name": "owner",
          "type": "address"
        },
        {
          "internalType": "address",
          "name": "spender",
          "type": "address"
        }
      ],
      "name": "allowance",
      "outputs": [
        {
          "internalType": "uint256",
          "name": "",
          "type": "uint256"
        }
      ],
      "stateMutability": "view",
      "type": "function"
    },
    {
      "inputs": [
        {
          "internalType": "address",
          "name": "spender",
          "type": "address"
        },
        {
          "internalType": "uint256",
          "name": "value",
          "type": "uint256"
        }
      ],
      "name": "approve",
      "outputs": [
        {
          "internalType": "bool",
          "name": "",
          "type": "bool"
        }
      ],
      "stateMutability": "nonpayable",
      "type": "function"
    },
    {
      "inputs": [],
      "name": "asset",
      "outputs": [
        {
          "internalType": "address",
          "name": "",
          "type": "address"
        }
      ],
      "stateMutability": "view",
      "type": "function"
    },
    {
      "inputs": [
        {
          "internalType": "address",
          "name": "account",
          "type": "address"
        }
      ],
      "name": "balanceOf",
      "outputs": [
        {
          "internalType": "uint256",
          "name": "",
          "type": "uint256"
        }
      ],
      "stateMutability": "view",
      "type": "function"
    },
    {
      "inputs": [
        {
          "internalType": "uint256",
          "name": "amount",
          "type": "uint256"
        }
      ],
      "name": "cancelDepositRequest",
      "outputs": [],
      "stateMutability": "nonpayable",
      "type": "function"
    },
    {
      "inputs": [
        {
          "internalType": "uint256",
          "name": "shares",
          "type": "uint256"
        }
      ],
      "name": "cancelWithdrawRequest",
      "outputs": [],
      "stateMutability": "nonpayable",
      "type": "function"
    },
    {
      "inputs": [],
      "name": "config",
      "outputs": [
        {
          "internalType": "contract IOrionConfig",
          "name": "",
          "type": "address"
        }
      ],
      "stateMutability": "view",
      "type": "function"
    },
    {
      "inputs": [
        {
          "internalType": "uint256",
          "name": "shares",
          "type": "uint256"
        }
      ],
      "name": "convertToAssets",
      "outputs": [
        {
          "internalType": "uint256",
          "name": "",
          "type": "uint256"
        }
      ],
      "stateMutability": "view",
      "type": "function"
    },
    {
      "inputs": [
        {
          "internalType": "uint256",
          "name": "shares",
          "type": "uint256"
        },
        {
          "internalType": "uint256",
          "name": "pointInTimeTotalAssets",
          "type": "uint256"
        },
        {
          "internalType": "enum Math.Rounding",
          "name": "rounding",
          "type": "uint8"
        }
      ],
      "name": "convertToAssetsWithPITTotalAssets",
      "outputs": [
        {
          "internalType": "uint256",
          "name": "",
          "type": "uint256"
        }
      ],
      "stateMutability": "view",
      "type": "function"
    },
    {
      "inputs": [
        {
          "internalType": "uint256",
          "name": "assets",
          "type": "uint256"
        }
      ],
      "name": "convertToShares",
      "outputs": [
        {
          "internalType": "uint256",
          "name": "",
          "type": "uint256"
        }
      ],
      "stateMutability": "view",
      "type": "function"
    },
    {
      "inputs": [],
      "name": "curator",
      "outputs": [
        {
          "internalType": "address",
          "name": "",
          "type": "address"
        }
      ],
      "stateMutability": "view",
      "type": "function"
    },
    {
      "inputs": [],
      "name": "decimals",
      "outputs": [
        {
          "internalType": "uint8",
          "name": "",
          "type": "uint8"
        }
      ],
      "stateMutability": "view",
      "type": "function"
    },
    {
      "inputs": [
        {
          "internalType": "uint256",
          "name": "",
          "type": "uint256"
        },
        {
          "internalType": "address",
          "name": "",
          "type": "address"
        }
      ],
      "name": "deposit",
      "outputs": [
        {
          "internalType": "uint256",
          "name": "",
          "type": "uint256"
        }
      ],
      "stateMutability": "pure",
      "type": "function"
    },
    {
      "inputs": [],
      "name": "getIntent",
      "outputs": [
        {
          "internalType": "address[]",
          "name": "tokens",
          "type": "address[]"
        },
        {
          "internalType": "euint32[]",
          "name": "weights",
          "type": "bytes32[]"
        }
      ],
      "stateMutability": "view",
      "type": "function"
    },
    {
      "inputs": [],
      "name": "getPendingDeposits",
      "outputs": [
        {
          "internalType": "uint256",
          "name": "",
          "type": "uint256"
        }
      ],
      "stateMutability": "view",
      "type": "function"
    },
    {
      "inputs": [],
      "name": "getPendingWithdrawals",
      "outputs": [
        {
          "internalType": "uint256",
          "name": "",
          "type": "uint256"
        }
      ],
      "stateMutability": "view",
      "type": "function"
    },
    {
      "inputs": [],
      "name": "getPortfolio",
      "outputs": [
        {
          "internalType": "address[]",
          "name": "tokens",
          "type": "address[]"
        },
        {
          "internalType": "euint32[]",
          "name": "sharesPerAsset",
          "type": "bytes32[]"
        }
      ],
      "stateMutability": "view",
      "type": "function"
    },
    {
      "inputs": [
        {
          "internalType": "address",
          "name": "",
          "type": "address"
        }
      ],
      "name": "maxDeposit",
      "outputs": [
        {
          "internalType": "uint256",
          "name": "",
          "type": "uint256"
        }
      ],
      "stateMutability": "view",
      "type": "function"
    },
    {
      "inputs": [
        {
          "internalType": "address",
          "name": "",
          "type": "address"
        }
      ],
      "name": "maxMint",
      "outputs": [
        {
          "internalType": "uint256",
          "name": "",
          "type": "uint256"
        }
      ],
      "stateMutability": "view",
      "type": "function"
    },
    {
      "inputs": [
        {
          "internalType": "address",
          "name": "owner",
          "type": "address"
        }
      ],
      "name": "maxRedeem",
      "outputs": [
        {
          "internalType": "uint256",
          "name": "",
          "type": "uint256"
        }
      ],
      "stateMutability": "view",
      "type": "function"
    },
    {
      "inputs": [
        {
          "internalType": "address",
          "name": "owner",
          "type": "address"
        }
      ],
      "name": "maxWithdraw",
      "outputs": [
        {
          "internalType": "uint256",
          "name": "",
          "type": "uint256"
        }
      ],
      "stateMutability": "view",
      "type": "function"
    },
    {
      "inputs": [
        {
          "internalType": "uint256",
          "name": "",
          "type": "uint256"
        },
        {
          "internalType": "address",
          "name": "",
          "type": "address"
        }
      ],
      "name": "mint",
      "outputs": [
        {
          "internalType": "uint256",
          "name": "",
          "type": "uint256"
        }
      ],
      "stateMutability": "pure",
      "type": "function"
    },
    {
      "inputs": [],
      "name": "name",
      "outputs": [
        {
          "internalType": "string",
          "name": "",
          "type": "string"
        }
      ],
      "stateMutability": "view",
      "type": "function"
    },
    {
      "inputs": [
        {
          "internalType": "uint256",
          "name": "assets",
          "type": "uint256"
        }
      ],
      "name": "previewDeposit",
      "outputs": [
        {
          "internalType": "uint256",
          "name": "",
          "type": "uint256"
        }
      ],
      "stateMutability": "view",
      "type": "function"
    },
    {
      "inputs": [
        {
          "internalType": "uint256",
          "name": "shares",
          "type": "uint256"
        }
      ],
      "name": "previewMint",
      "outputs": [
        {
          "internalType": "uint256",
          "name": "",
          "type": "uint256"
        }
      ],
      "stateMutability": "view",
      "type": "function"
    },
    {
      "inputs": [
        {
          "internalType": "uint256",
          "name": "shares",
          "type": "uint256"
        }
      ],
      "name": "previewRedeem",
      "outputs": [
        {
          "internalType": "uint256",
          "name": "",
          "type": "uint256"
        }
      ],
      "stateMutability": "view",
      "type": "function"
    },
    {
      "inputs": [
        {
          "internalType": "uint256",
          "name": "assets",
          "type": "uint256"
        }
      ],
      "name": "previewWithdraw",
      "outputs": [
        {
          "internalType": "uint256",
          "name": "",
          "type": "uint256"
        }
      ],
      "stateMutability": "view",
      "type": "function"
    },
    {
      "inputs": [],
      "name": "processDepositRequests",
      "outputs": [],
      "stateMutability": "nonpayable",
      "type": "function"
    },
    {
      "inputs": [],
      "name": "processWithdrawRequests",
      "outputs": [],
      "stateMutability": "nonpayable",
      "type": "function"
    },
    {
      "inputs": [
        {
          "internalType": "uint256",
          "name": "",
          "type": "uint256"
        },
        {
          "internalType": "address",
          "name": "",
          "type": "address"
        },
        {
          "internalType": "address",
          "name": "",
          "type": "address"
        }
      ],
      "name": "redeem",
      "outputs": [
        {
          "internalType": "uint256",
          "name": "",
          "type": "uint256"
        }
      ],
      "stateMutability": "pure",
      "type": "function"
    },
    {
      "inputs": [
        {
          "internalType": "uint256",
          "name": "amount",
          "type": "uint256"
        }
      ],
      "name": "requestDeposit",
      "outputs": [],
      "stateMutability": "nonpayable",
      "type": "function"
    },
    {
      "inputs": [
        {
          "internalType": "uint256",
          "name": "shares",
          "type": "uint256"
        }
      ],
      "name": "requestWithdraw",
      "outputs": [],
      "stateMutability": "nonpayable",
      "type": "function"
    },
    {
      "inputs": [
        {
          "components": [
            {
              "internalType": "address",
              "name": "token",
              "type": "address"
            },
            {
              "internalType": "euint32",
              "name": "value",
              "type": "bytes32"
            }
          ],
          "internalType": "struct IOrionEncryptedVault.EncryptedPosition[]",
          "name": "order",
          "type": "tuple[]"
        }
      ],
      "name": "submitIntent",
      "outputs": [],
      "stateMutability": "nonpayable",
      "type": "function"
    },
    {
      "inputs": [],
      "name": "symbol",
      "outputs": [
        {
          "internalType": "string",
          "name": "",
          "type": "string"
        }
      ],
      "stateMutability": "view",
      "type": "function"
    },
    {
      "inputs": [],
      "name": "totalAssets",
      "outputs": [
        {
          "internalType": "uint256",
          "name": "",
          "type": "uint256"
        }
      ],
      "stateMutability": "view",
      "type": "function"
    },
    {
      "inputs": [],
      "name": "totalSupply",
      "outputs": [
        {
          "internalType": "uint256",
          "name": "",
          "type": "uint256"
        }
      ],
      "stateMutability": "view",
      "type": "function"
    },
    {
      "inputs": [
        {
          "internalType": "address",
          "name": "to",
          "type": "address"
        },
        {
          "internalType": "uint256",
          "name": "value",
          "type": "uint256"
        }
      ],
      "name": "transfer",
      "outputs": [
        {
          "internalType": "bool",
          "name": "",
          "type": "bool"
        }
      ],
      "stateMutability": "nonpayable",
      "type": "function"
    },
    {
      "inputs": [
        {
          "internalType": "address",
          "name": "from",
          "type": "address"
        },
        {
          "internalType": "address",
          "name": "to",
          "type": "address"
        },
        {
          "internalType": "uint256",
          "name": "value",
          "type": "uint256"
        }
      ],
      "name": "transferFrom",
      "outputs": [
        {
          "internalType": "bool",
          "name": "",
          "type": "bool"
        }
      ],
      "stateMutability": "nonpayable",
      "type": "function"
    },
    {
      "inputs": [
        {
          "internalType": "address",
          "name": "newCurator",
          "type": "address"
        }
      ],
      "name": "updateCurator",
      "outputs": [],
      "stateMutability": "nonpayable",
      "type": "function"
    },
    {
      "inputs": [
        {
          "components": [
            {
              "internalType": "address",
              "name": "token",
              "type": "address"
            },
            {
              "internalType": "euint32",
              "name": "value",
              "type": "bytes32"
            }
          ],
          "internalType": "struct IOrionEncryptedVault.EncryptedPosition[]",
          "name": "portfolio",
          "type": "tuple[]"
        },
        {
          "internalType": "uint256",
          "name": "newTotalAssets",
          "type": "uint256"
        }
      ],
      "name": "updateVaultState",
      "outputs": [],
      "stateMutability": "nonpayable",
      "type": "function"
    },
    {
      "inputs": [],
      "name": "vaultOwner",
      "outputs": [
        {
          "internalType": "address",
          "name": "",
          "type": "address"
        }
      ],
      "stateMutability": "view",
      "type": "function"
    },
    {
      "inputs": [
        {
          "internalType": "uint256",
          "name": "",
          "type": "uint256"
        },
        {
          "internalType": "address",
          "name": "",
          "type": "address"
        },
        {
          "internalType": "address",
          "name": "",
          "type": "address"
        }
      ],
      "name": "withdraw",
      "outputs": [
        {
          "internalType": "uint256",
          "name": "",
          "type": "uint256"
        }
      ],
      "stateMutability": "pure",
      "type": "function"
    }
  ],
  "bytecode": "0x60c060405234801561000f575f5ffd5b5060405161363638038061363683398101604081905261002e91610502565b8484848484826001600160a01b0316637158da7c6040518163ffffffff1660e01b8152600401602060405180830381865afa15801561006f573d5f5f3e3d5ffd5b505050506040513d601f19601f8201168201806040525081019061009391906105a0565b828260036100a18382610646565b5060046100ae8282610646565b5050505f5f6100c2836102a360201b60201c565b91509150816100d25760126100d4565b805b60ff1660a05250506001600160a01b039081166080526001600555841661010e5760405163e6c4247b60e01b815260040160405180910390fd5b6001600160a01b0383166101355760405163e6c4247b60e01b815260040160405180910390fd5b600780546001600160a01b038088166001600160a01b031992831617909255600880548784169083161790556006805492861692909116821790555f60098190556010819055601181905560408051631c56369f60e21b81529051919291637158da7c916004808201926020929091908290030181865afa1580156101bc573d5f5f3e3d5ffd5b505050506040513d601f19601f820116820180604052508101906101e091906105a0565b6001600160a01b031663313ce5676040518163ffffffff1660e01b8152600401602060405180830381865afa15801561021b573d5f5f3e3d5ffd5b505050506040513d601f19601f8201168201806040525081019061023f9190610700565b905060128160ff16111561026657604051631c03248960e11b815260040160405180910390fd5b5f610272826012610734565b905061027f81600a610830565b6012555061029595505f94505061037992505050565b6018555061089b9350505050565b60408051600481526024810182526020810180516001600160e01b031663313ce56760e01b17905290515f918291829182916001600160a01b038716916102e99161083e565b5f60405180830381855afa9150503d805f8114610321576040519150601f19603f3d011682016040523d82523d5f602084013e610326565b606091505b509150915081801561033a57506020815110155b1561036d575f818060200190518101906103549190610854565b905060ff811161036b576001969095509350505050565b505b505f9485945092505050565b5f61038b63ffffffff83166004610391565b92915050565b7fed8d60e34876f751cc8b014c560745351147d9de11b9347c854e881b128ea60154604051639cd07acb60e01b81525f917fed8d60e34876f751cc8b014c560745351147d9de11b9347c854e881b128ea600916001600160a01b0390911690639cd07acb90610406908790879060040161086b565b6020604051808303815f875af1158015610422573d5f5f3e3d5ffd5b505050506040513d601f19601f820116820180604052508101906104469190610854565b949350505050565b6001600160a01b0381168114610462575f5ffd5b50565b634e487b7160e01b5f52604160045260245ffd5b5f82601f830112610488575f5ffd5b81516001600160401b038111156104a1576104a1610465565b604051601f8201601f19908116603f011681016001600160401b03811182821017156104cf576104cf610465565b6040528181528382016020018510156104e6575f5ffd5b8160208501602083015e5f918101602001919091529392505050565b5f5f5f5f5f60a08688031215610516575f5ffd5b85516105218161044e565b60208701519095506105328161044e565b60408701519094506105438161044e565b60608701519093506001600160401b0381111561055e575f5ffd5b61056a88828901610479565b608088015190935090506001600160401b03811115610587575f5ffd5b61059388828901610479565b9150509295509295909350565b5f602082840312156105b0575f5ffd5b81516105bb8161044e565b9392505050565b600181811c908216806105d657607f821691505b6020821081036105f457634e487b7160e01b5f52602260045260245ffd5b50919050565b601f82111561064157805f5260205f20601f840160051c8101602085101561061f5750805b601f840160051c820191505b8181101561063e575f815560010161062b565b50505b505050565b81516001600160401b0381111561065f5761065f610465565b6106738161066d84546105c2565b846105fa565b6020601f8211600181146106a5575f831561068e5750848201515b5f19600385901b1c1916600184901b17845561063e565b5f84815260208120601f198516915b828110156106d457878501518255602094850194600190920191016106b4565b50848210156106f157868401515f19600387901b60f8161c191681555b50505050600190811b01905550565b5f60208284031215610710575f5ffd5b815160ff811681146105bb575f5ffd5b634e487b7160e01b5f52601160045260245ffd5b60ff828116828216039081111561038b5761038b610720565b6001815b60018411156107885780850481111561076c5761076c610720565b600184161561077a57908102905b60019390931c928002610751565b935093915050565b5f8261079e5750600161038b565b816107aa57505f61038b565b81600181146107c057600281146107ca576107e6565b600191505061038b565b60ff8411156107db576107db610720565b50506001821b61038b565b5060208310610133831016604e8410600b8410161715610809575081810a61038b565b6108155f19848461074d565b805f190482111561082857610828610720565b029392505050565b5f6105bb60ff841683610790565b5f82518060208501845e5f920191825250919050565b5f60208284031215610864575f5ffd5b5051919050565b828152604081016054831061088e57634e487b7160e01b5f52602160045260245ffd5b8260208301529392505050565b60805160a051612d7a6108bc5f395f610cc801525f610f730152612d7a5ff3fe608060405234801561000f575f5ffd5b50600436106101ec575f3560e01c806301e1d114146101f057806306fdde031461020757806307a2d13a1461021c578063083883051461022f578063095ea7b3146102445780630a28a477146102675780630c6a62dd1461027a5780630d1e66671461028d57806318160ddd146102a05780631f52692b146102a857806323b872dd146102c8578063313ce567146102db57806333fdc592146102f557806338d52e0f146102fd578063402d267d146103055780634cdad5061461021c5780636e553f651461031957806370a082311461032c578063745400c91461033f57806379502c551461035257806394bf804d1461031957806395d89b41146103655780639adb29811461036d578063a68a526714610380578063a9059cbb14610393578063aa9d3a60146103a6578063b3d7f6b9146103ae578063b460af94146103c1578063b6eba653146103cf578063ba087652146103c1578063c0b568e1146103e5578063c37fc8a8146103f8578063c63d75b614610305578063c6e6f59214610400578063cce4705b14610413578063ce96cb7714610426578063d1699c2614610439578063d3d0345814610441578063d905777e14610449578063dd62ed3e1461045c578063e66f53b71461046f578063ef8b30f714610400575b5f5ffd5b6009545b6040519081526020015b60405180910390f35b61020f610482565b6040516101fe919061270c565b6101f461022a366004612741565b610512565b61024261023d366004612798565b610523565b005b6102576102523660046127ea565b6109aa565b60405190151581526020016101fe565b6101f4610275366004612741565b6109c1565b610242610288366004612814565b6109cd565b61024261029b366004612741565b610a41565b6002546101f4565b6007546102bb906001600160a01b031681565b6040516101fe919061282f565b6102576102d6366004612843565b610c9c565b6102e3610cc1565b60405160ff90911681526020016101fe565b610242610cf1565b6102bb610f71565b6101f4610313366004612814565b505f1990565b6101f4610327366004612881565b610f95565b6101f461033a366004612814565b610faf565b61024261034d366004612741565b610fc9565b6006546102bb906001600160a01b031681565b61020f61118b565b61024261037b3660046128af565b61119a565b6101f461038e3660046128f6565b6113a7565b6102576103a13660046127ea565b6113e1565b6102426113ee565b6101f46103bc366004612741565b61170b565b6101f461032736600461292f565b6103d7611717565b6040516101fe929190612963565b6102426103f3366004612741565b611878565b6011546101f4565b6101f461040e366004612741565b611a1a565b610242610421366004612741565b611a25565b6101f4610434366004612814565b611bca565b6010546101f4565b6103d7611bdd565b6101f4610457366004612814565b611d25565b6101f461046a3660046129ec565b611d2f565b6008546102bb906001600160a01b031681565b60606003805461049190612a18565b80601f01602080910402602001604051908101604052809291908181526020018280546104bd90612a18565b80156105085780601f106104df57610100808354040283529160200191610508565b820191905f5260205f20905b8154815290600101906020018083116104eb57829003601f168201915b5050505050905090565b5f61051d825f611d59565b92915050565b6008546001600160a01b0316331461054e57604051631a27eac360e11b815260040160405180910390fd5b610556611d67565b5f81900361057757604051631121aa8d60e01b815260040160405180910390fd5b60185481905f826001600160401b0381111561059557610595612a50565b6040519080825280602002602001820160405280156105be578160200160208202803683370190505b5090505f836001600160401b038111156105da576105da612a50565b604051908082528060200260200182016040528015610603578160200160208202803683370190505b5090505f5b848110156107bb575f87878381811061062357610623612a64565b6106399260206040909202019081019150612814565b90505f88888481811061064e5761064e612a64565b60065460408051633af32abf60e01b81529202939093016020013593506001600160a01b0390921691633af32abf915061068c90859060040161282f565b602060405180830381865afa1580156106a7573d5f5f3e3d5ffd5b505050506040513d601f19601f820116820180604052508101906106cb9190612a78565b6106f3578160405163751dff9760e11b81526004016106ea919061282f565b60405180910390fd5b6001600160a01b0382165f9081526017602052604090205460ff161561072e57816040516346bdabe160e01b81526004016106ea919061282f565b6001600160a01b0382165f908152601760205260409020805460ff191660011790558451829086908590811061076657610766612a64565b60200260200101906001600160a01b031690816001600160a01b0316815250508084848151811061079957610799612a64565b6020026020010181815250506107af8682611d91565b95505050600101610608565b505f61084460065f9054906101000a90046001600160a01b03166001600160a01b031663d1717c7d6040518163ffffffff1660e01b8152600401602060405180830381865afa158015610810573d5f5f3e3d5ffd5b505050506040513d601f19601f820116820180604052508101906108349190612a97565b61083f90600a612bae565b611dbf565b90505f6108518583611dd1565b6016549091505f5b818110156108a65760185460155f6016848154811061087a5761087a612a64565b5f9182526020808320909101546001600160a01b03168352820192909252604001902055600101610859565b506108b260165f6126de565b5f5b8781101561096a575f8682815181106108cf576108cf612a64565b602002602001015190508582815181106108eb576108eb612a64565b6020908102919091018101516001600160a01b039092165f818152601583526040808220949094556016805460018181019092557fd833147d7dc355ba459fc788f669e58cfaf9dc25ddcd0702e87d69c7b51242890180546001600160a01b031916841790559181526017909252919020805460ff19169055016108b4565b5060405133907f2d47a742b8d7df7c1fc5a9a631b206b364e6cb2722490759f63bb3ab14b132e0905f90a2505050505050506109a66001600555565b5050565b5f336109b7818585611dff565b5060019392505050565b5f61051d826001611e11565b6007546001600160a01b031633146109f857604051631a27eac360e11b815260040160405180910390fd5b6001600160a01b038116610a1f5760405163e6c4247b60e01b815260040160405180910390fd5b600880546001600160a01b0319166001600160a01b0392909216919091179055565b610a49611d67565b805f03610a7257610a58610f71565b604051636b30633560e01b81526004016106ea919061282f565b5f610a7b610f71565b6001600160a01b03166370a08231336040518263ffffffff1660e01b8152600401610aa6919061282f565b602060405180830381865afa158015610ac1573d5f5f3e3d5ffd5b505050506040513d601f19601f82011682018060405250810190610ae59190612bbc565b905080821115610b0e57338183604051632e2a182f60e11b81526004016106ea93929190612bd3565b5f610b17610f71565b6001600160a01b03166323b872dd3360065f9054906101000a90046001600160a01b03166001600160a01b0316633a0dad8e6040518163ffffffff1660e01b8152600401602060405180830381865afa158015610b76573d5f5f3e3d5ffd5b505050506040513d601f19601f82011682018060405250810190610b9a9190612bf4565b866040518463ffffffff1660e01b8152600401610bb993929190612c0f565b6020604051808303815f875af1158015610bd5573d5f5f3e3d5ffd5b505050506040513d601f19601f82011682018060405250810190610bf99190612a78565b905080610c19576040516312171d8360e31b815260040160405180910390fd5b5f610c25600a33611e4e565b9150610c40905033610c378684612c33565b600a9190611e74565b508360105f828254610c529190612c33565b909155505060405184815233907f08d79f77ab5f78e7e780abb1f7ac9e9923340d5bae78f6e83e7999905b248ea29060200160405180910390a2505050610c996001600555565b50565b5f33610ca9858285611e89565b610cb4858585611eda565b60019150505b9392505050565b5f610cec817f0000000000000000000000000000000000000000000000000000000000000000612c46565b905090565b60065f9054906101000a90046001600160a01b03166001600160a01b0316633a0dad8e6040518163ffffffff1660e01b8152600401602060405180830381865afa158015610d41573d5f5f3e3d5ffd5b505050506040513d601f19601f82011682018060405250810190610d659190612bf4565b6001600160a01b0316336001600160a01b031614610d9657604051631a27eac360e11b815260040160405180910390fd5b610d9e611d67565b5f610da9600a611f37565b90505f816001600160401b03811115610dc457610dc4612a50565b604051908082528060200260200182016040528015610ded578160200160208202803683370190505b5090505f826001600160401b03811115610e0957610e09612a50565b604051908082528060200260200182016040528015610e32578160200160208202803683370190505b5090505f5b83811015610eab575f80610e4c600a84611f41565b9150915081858481518110610e6357610e63612a64565b60200260200101906001600160a01b031690816001600160a01b03168152505080848481518110610e9657610e96612a64565b60209081029190910101525050600101610e37565b505f5b83811015610f60575f838281518110610ec957610ec9612a64565b602002602001015190505f838381518110610ee657610ee6612a64565b602002602001015190505f610efa82611a1a565b9050610f07600a84611f4f565b50610f128382611f63565b826001600160a01b03167f85a190caa61692b36b63a55e069330d18ab9af179fed7a25c16a4262bc63b7d283604051610f4d91815260200190565b60405180910390a2505050600101610eae565b50505f60105550506001600555565b565b7f000000000000000000000000000000000000000000000000000000000000000090565b5f60405163125ad87760e31b815260040160405180910390fd5b6001600160a01b03165f9081526020819052604090205490565b805f03610feb5730604051636b30633560e01b81526004016106ea919061282f565b5f610ff533610faf565b90508082111561101e57338183604051632e2a182f60e11b81526004016106ea93929190612bd3565b60065460408051631d06d6c760e11b815290515f9230926323b872dd9233926001600160a01b031691633a0dad8e9160048083019260209291908290030181865afa15801561106f573d5f5f3e3d5ffd5b505050506040513d601f19601f820116820180604052508101906110939190612bf4565b866040518463ffffffff1660e01b81526004016110b293929190612c0f565b6020604051808303815f875af11580156110ce573d5f5f3e3d5ffd5b505050506040513d601f19601f820116820180604052508101906110f29190612a78565b905080611112576040516312171d8360e31b815260040160405180910390fd5b5f61111e600d33611e4e565b91506111399050336111308684612c33565b600d9190611e74565b508360115f82825461114b9190612c33565b909155505060405184815233907ff7774b688d56120b783560a913ee60792a73dfd511812b7be5eccf10d08c66899060200160405180910390a250505050565b60606004805461049190612a18565b60065f9054906101000a90046001600160a01b03166001600160a01b0316633a0dad8e6040518163ffffffff1660e01b8152600401602060405180830381865afa1580156111ea573d5f5f3e3d5ffd5b505050506040513d601f19601f8201168201806040525081019061120e9190612bf4565b6001600160a01b0316336001600160a01b03161461123f57604051631a27eac360e11b815260040160405180910390fd5b6014545f5b818110156112915760185460135f6014848154811061126557611265612a64565b5f9182526020808320909101546001600160a01b03168352820192909252604001902055600101611244565b5061129d60145f6126de565b5f5b81811015611368578484828181106112b9576112b9612a64565b9050604002016020013560135f8787858181106112d8576112d8612a64565b6112ee9260206040909202019081019150612814565b6001600160a01b0316815260208101919091526040015f2055601485858381811061131b5761131b612a64565b6113319260206040909202019081019150612814565b8154600180820184555f93845260209093200180546001600160a01b0319166001600160a01b03929092169190911790550161129f565b5060098290556040518281527f5e1ff954b5e5257e9ee5d4cb07059e8f5e69b1aaaf9911e5d8d90a6894de9c219060200160405180910390a150505050565b5f5f6113b260025490565b90506113d86113c2856001612c33565b6012546113cf9084612c33565b87919086611f97565b95945050505050565b5f336109b7818585611eda565b60065f9054906101000a90046001600160a01b03166001600160a01b0316633a0dad8e6040518163ffffffff1660e01b8152600401602060405180830381865afa15801561143e573d5f5f3e3d5ffd5b505050506040513d601f19601f820116820180604052508101906114629190612bf4565b6001600160a01b0316336001600160a01b03161461149357604051631a27eac360e11b815260040160405180910390fd5b61149b611d67565b5f6114a6600d611f37565b90505f816001600160401b038111156114c1576114c1612a50565b6040519080825280602002602001820160405280156114ea578160200160208202803683370190505b5090505f826001600160401b0381111561150657611506612a50565b60405190808252806020026020018201604052801561152f578160200160208202803683370190505b5090505f5b838110156115a8575f80611549600d84611f41565b915091508185848151811061156057611560612a64565b60200260200101906001600160a01b031690816001600160a01b0316815250508084848151811061159357611593612a64565b60209081029190910101525050600101611534565b505f60118190555b838110156116fd575f8382815181106115cb576115cb612a64565b602002602001015190505f8383815181106115e8576115e8612a64565b6020026020010151905061160682600d611f4f90919063ffffffff16565b506116113082611fd9565b5f61161b82610512565b9050611625610f71565b6001600160a01b031663a9059cbb84836040518363ffffffff1660e01b8152600401611652929190612c5f565b6020604051808303815f875af115801561166e573d5f5f3e3d5ffd5b505050506040513d601f19601f820116820180604052508101906116929190612a78565b6116af576040516312171d8360e31b815260040160405180910390fd5b826001600160a01b03167f44b2ff9ffcefe2052a8afdbed44a04bf3db4592ae90c6b96c818bd28573e41e8836040516116ea91815260200190565b60405180910390a25050506001016115b0565b50505050610f6f6001600555565b5f61051d826001611d59565b6016546060908190806001600160401b0381111561173757611737612a50565b604051908082528060200260200182016040528015611760578160200160208202803683370190505b509250806001600160401b0381111561177b5761177b612a50565b6040519080825280602002602001820160405280156117a4578160200160208202803683370190505b5091505f5b8181101561187257601681815481106117c4576117c4612a64565b905f5260205f20015f9054906101000a90046001600160a01b03168482815181106117f1576117f1612a64565b60200260200101906001600160a01b031690816001600160a01b03168152505060155f6016838154811061182757611827612a64565b5f9182526020808320909101546001600160a01b03168352820192909252604001902054835184908390811061185f5761185f612a64565b60209081029190910101526001016117a9565b50509091565b611880611d67565b805f0361188f57610a58610f71565b5f61189b600a33611e4e565b915050818110156118bf576040516332194fd360e21b815260040160405180910390fd5b60065f9054906101000a90046001600160a01b03166001600160a01b0316633a0dad8e6040518163ffffffff1660e01b8152600401602060405180830381865afa15801561190f573d5f5f3e3d5ffd5b505050506040513d601f19601f820116820180604052508101906119339190612bf4565b6001600160a01b03166351edffb133846040518363ffffffff1660e01b8152600401611960929190612c5f565b5f604051808303815f87803b158015611977575f5ffd5b505af1158015611989573d5f5f3e3d5ffd5b505050505f828261199a9190612c78565b9050805f036119b4576119ae600a33611f4f565b506119c2565b6119c0600a3383611e74565b505b8260105f8282546119d39190612c78565b909155505060405183815233907f96a9a6886cdf3047a125454218a23d3961fd3a78643123b248a9d106d0ac94fd906020015b60405180910390a25050610c996001600555565b5f61051d825f611e11565b611a2d611d67565b805f03611a4f5730604051636b30633560e01b81526004016106ea919061282f565b5f611a5b600d33611e4e565b91505081811015611a7f576040516312ea1f4960e11b815260040160405180910390fd5b60065f9054906101000a90046001600160a01b03166001600160a01b0316633a0dad8e6040518163ffffffff1660e01b8152600401602060405180830381865afa158015611acf573d5f5f3e3d5ffd5b505050506040513d601f19601f82011682018060405250810190611af39190612bf4565b6001600160a01b031663be186b2033846040518363ffffffff1660e01b8152600401611b20929190612c5f565b5f604051808303815f87803b158015611b37575f5ffd5b505af1158015611b49573d5f5f3e3d5ffd5b505050505f8282611b5a9190612c78565b9050805f03611b7457611b6e600d33611f4f565b50611b82565b611b80600d3383611e74565b505b8260115f828254611b939190612c78565b909155505060405183815233907f9cf37535785001dcc9767688232fcbc8698b3002d1207b50bc2afec3ff8934dc90602001611a06565b5f61051d611bd783610faf565b5f611d59565b6014546060908190806001600160401b03811115611bfd57611bfd612a50565b604051908082528060200260200182016040528015611c26578160200160208202803683370190505b509250806001600160401b03811115611c4157611c41612a50565b604051908082528060200260200182016040528015611c6a578160200160208202803683370190505b5091505f5b81811015611872575f60148281548110611c8b57611c8b612a64565b905f5260205f20015f9054906101000a90046001600160a01b0316905080858381518110611cbb57611cbb612a64565b60200260200101906001600160a01b031690816001600160a01b03168152505060135f826001600160a01b03166001600160a01b031681526020019081526020015f2054848381518110611d1157611d11612a64565b602090810291909101015250600101611c6f565b5f61051d82610faf565b6001600160a01b039182165f90815260016020908152604080832093909416825291909152205490565b5f610cba83600954846113a7565b600260055403611d8a57604051633ee5aeb560e01b815260040160405180910390fd5b6002600555565b5f82611da357611da05f611dbf565b92505b81611db457611db15f611dbf565b91505b610cba83835f61200d565b5f61051d8263ffffffff1660046120ad565b5f82611de357611de05f611dbf565b92505b81611df457611df15f611dbf565b91505b610cba83835f61212c565b611e0c8383836001612182565b505050565b5f5f611e1c60025490565b9050611e4660125482611e2f9190612c33565b600954611e3d906001612c33565b86919086611f97565b949350505050565b5f808080611e65866001600160a01b038716612254565b909450925050505b9250929050565b5f611e46846001600160a01b0385168461228c565b5f611e948484611d2f565b90505f19811015611ed45781811015611ec657828183604051637dc7a0d960e11b81526004016106ea93929190612bd3565b611ed484848484035f612182565b50505050565b6001600160a01b038316611f03575f604051634b637e8f60e11b81526004016106ea919061282f565b6001600160a01b038216611f2c575f60405163ec442f0560e01b81526004016106ea919061282f565b611e0c8383836122a8565b5f61051d826123bb565b5f808080611e6586866123c5565b5f610cba836001600160a01b0384166123ee565b6001600160a01b038216611f8c575f60405163ec442f0560e01b81526004016106ea919061282f565b6109a65f83836122a8565b5f611fc4611fa48361240a565b8015611fbf57505f8480611fba57611fba612c8b565b868809115b151590565b611fcf868686612436565b6113d89190612c33565b6001600160a01b038216612002575f604051634b637e8f60e11b81526004016106ea919061282f565b6109a6825f836122a8565b5f5f82156120205750600160f81b612023565b505f5b5f61202c6124e6565b600181015460405163022f65e760e31b81529192506001600160a01b03169063117b2f389061206390899089908790600401612c9f565b6020604051808303815f875af115801561207f573d5f5f3e3d5ffd5b505050506040513d601f19601f820116820180604052508101906120a39190612bbc565b9695505050505050565b5f5f6120b76124e6565b6001810154604051639cd07acb60e01b81529192506001600160a01b031690639cd07acb906120ec9087908790600401612cd3565b6020604051808303815f875af1158015612108573d5f5f3e3d5ffd5b505050506040513d601f19601f82011682018060405250810190611e469190612bbc565b5f5f821561213f5750600160f81b612142565b505f5b5f61214b6124e6565b600181015460405163f77f3f1d60e01b81529192506001600160a01b03169063f77f3f1d9061206390899089908790600401612c9f565b6001600160a01b0384166121ab575f60405163e602df0560e01b81526004016106ea919061282f565b6001600160a01b0383166121d4575f604051634a1406b160e11b81526004016106ea919061282f565b6001600160a01b038085165f9081526001602090815260408083209387168352929052208290558015611ed457826001600160a01b0316846001600160a01b03167f8c5be1e5ebec7d5bd14f71427d1e84f3dd0314c0f7b2291e5b200ac8c7c3b9258460405161224691815260200190565b60405180910390a350505050565b5f81815260028301602052604081205481908061228157612275858561250a565b92505f9150611e6d9050565b600192509050611e6d565b5f8281526002840160205260408120829055611e468484612515565b6001600160a01b0383166122d2578060025f8282546122c79190612c33565b9091555061232f9050565b6001600160a01b0383165f90815260208190526040902054818110156123115783818360405163391434e360e21b81526004016106ea93929190612bd3565b6001600160a01b0384165f9081526020819052604090209082900390555b6001600160a01b03821661234b57600280548290039055612369565b6001600160a01b0382165f9081526020819052604090208054820190555b816001600160a01b0316836001600160a01b03167fddf252ad1be2c89b69c2b068fc378daa952ba7f163c4a11628f55a4df523b3ef836040516123ae91815260200190565b60405180910390a3505050565b5f61051d82612520565b5f80806123d28585612529565b5f81815260029690960160205260409095205494959350505050565b5f8181526002830160205260408120819055610cba8383612534565b5f600282600381111561241f5761241f612cbf565b6124299190612d03565b60ff166001149050919050565b5f5f5f612443868661253f565b91509150815f036124675783818161245d5761245d612c8b565b0492505050610cba565b81841161247e5761247e600385150260111861255b565b5f848688095f868103871696879004966002600389028118808a02820302808a02820302808a02820302808a02820302808a02820302808a02909103029181900381900460010185841190960395909502919093039390930492909217029150509392505050565b7fed8d60e34876f751cc8b014c560745351147d9de11b9347c854e881b128ea60090565b5f610cba838361256c565b5f610cba8383612577565b5f61051d825490565b5f610cba83836125be565b5f610cba83836125e4565b5f805f1983850993909202808410938190039390930393915050565b634e487b715f52806020526024601cfd5b5f610cba83836126c7565b5f61258283836126c7565b6125b757508154600181810184555f84815260208082209093018490558454848252828601909352604090209190915561051d565b505f61051d565b5f825f0182815481106125d3576125d3612a64565b905f5260205f200154905092915050565b5f81815260018301602052604081205480156126be575f612606600183612c78565b85549091505f9061261990600190612c78565b9050808214612678575f865f01828154811061263757612637612a64565b905f5260205f200154905080875f01848154811061265757612657612a64565b5f918252602080832090910192909255918252600188019052604090208390555b855486908061268957612689612d30565b600190038181905f5260205f20015f90559055856001015f8681526020019081526020015f205f90556001935050505061051d565b5f91505061051d565b5f9081526001919091016020526040902054151590565b5080545f8255905f5260205f2090810190610c9991905b80821115612708575f81556001016126f5565b5090565b602081525f82518060208401528060208501604085015e5f604082850101526040601f19601f83011684010191505092915050565b5f60208284031215612751575f5ffd5b5035919050565b5f5f83601f840112612768575f5ffd5b5081356001600160401b0381111561277e575f5ffd5b6020830191508360208260061b8501011115611e6d575f5ffd5b5f5f602083850312156127a9575f5ffd5b82356001600160401b038111156127be575f5ffd5b6127ca85828601612758565b90969095509350505050565b6001600160a01b0381168114610c99575f5ffd5b5f5f604083850312156127fb575f5ffd5b8235612806816127d6565b946020939093013593505050565b5f60208284031215612824575f5ffd5b8135610cba816127d6565b6001600160a01b0391909116815260200190565b5f5f5f60608486031215612855575f5ffd5b8335612860816127d6565b92506020840135612870816127d6565b929592945050506040919091013590565b5f5f60408385031215612892575f5ffd5b8235915060208301356128a4816127d6565b809150509250929050565b5f5f5f604084860312156128c1575f5ffd5b83356001600160401b038111156128d6575f5ffd5b6128e286828701612758565b909790965060209590950135949350505050565b5f5f5f60608486031215612908575f5ffd5b8335925060208401359150604084013560048110612924575f5ffd5b809150509250925092565b5f5f5f60608486031215612941575f5ffd5b833592506020840135612953816127d6565b91506040840135612924816127d6565b604080825283519082018190525f9060208501906060840190835b818110156129a55783516001600160a01b031683526020938401939092019160010161297e565b5050838103602080860191909152855180835291810192508501905f5b818110156129e05782518452602093840193909201916001016129c2565b50919695505050505050565b5f5f604083850312156129fd575f5ffd5b8235612a08816127d6565b915060208301356128a4816127d6565b600181811c90821680612a2c57607f821691505b602082108103612a4a57634e487b7160e01b5f52602260045260245ffd5b50919050565b634e487b7160e01b5f52604160045260245ffd5b634e487b7160e01b5f52603260045260245ffd5b5f60208284031215612a88575f5ffd5b81518015158114610cba575f5ffd5b5f60208284031215612aa7575f5ffd5b815160ff81168114610cba575f5ffd5b634e487b7160e01b5f52601160045260245ffd5b6001815b6001841115612b0657808504811115612aea57612aea612ab7565b6001841615612af857908102905b60019390931c928002612acf565b935093915050565b5f82612b1c5750600161051d565b81612b2857505f61051d565b8160018114612b3e5760028114612b4857612b64565b600191505061051d565b60ff841115612b5957612b59612ab7565b50506001821b61051d565b5060208310610133831016604e8410600b8410161715612b87575081810a61051d565b612b935f198484612acb565b805f1904821115612ba657612ba6612ab7565b029392505050565b5f610cba60ff841683612b0e565b5f60208284031215612bcc575f5ffd5b5051919050565b6001600160a01b039390931683526020830191909152604082015260600190565b5f60208284031215612c04575f5ffd5b8151610cba816127d6565b6001600160a01b039384168152919092166020820152604081019190915260600190565b8082018082111561051d5761051d612ab7565b60ff818116838216019081111561051d5761051d612ab7565b6001600160a01b03929092168252602082015260400190565b8181038181111561051d5761051d612ab7565b634e487b7160e01b5f52601260045260245ffd5b92835260208301919091526001600160f81b031916604082015260600190565b634e487b7160e01b5f52602160045260245ffd5b8281526040810160548310612cf657634e487b7160e01b5f52602160045260245ffd5b8260208301529392505050565b5f60ff831680612d2157634e487b7160e01b5f52601260045260245ffd5b8060ff84160691505092915050565b634e487b7160e01b5f52603160045260245ffdfea2646970667358221220425b9b4e3718cd55c247c3feccec954f0e98155c32f66273850ba40afdad7e5c64736f6c634300081c0033",
  "linkReferences": {},
  "deployedLinkReferences": {}
}