{
  "_format": "hh-sol-artifact-1",
  "contractName": "OrionEncryptedVault",
  "sourceName": "contracts/vaults/OrionEncryptedVault.sol",
  "abi": [
    {
      "inputs": [
        {
          "internalType": "address",
          "name": "vaultOwner",
          "type": "address"
        },
        {
          "internalType": "address",
          "name": "curator",
          "type": "address"
        },
        {
          "internalType": "contract IOrionConfig",
          "name": "configAddress",
          "type": "address"
        },
        {
          "internalType": "string",
          "name": "name",
          "type": "string"
        },
        {
          "internalType": "string",
          "name": "symbol",
          "type": "string"
        }
      ],
      "stateMutability": "nonpayable",
      "type": "constructor"
    },
    {
      "inputs": [],
      "name": "AlreadyRegistered",
      "type": "error"
    },
    {
      "inputs": [
        {
          "internalType": "address",
          "name": "asset",
          "type": "address"
        }
      ],
      "name": "AmountMustBeGreaterThanZero",
      "type": "error"
    },
    {
      "inputs": [
        {
          "internalType": "address",
          "name": "spender",
          "type": "address"
        },
        {
          "internalType": "uint256",
          "name": "allowance",
          "type": "uint256"
        },
        {
          "internalType": "uint256",
          "name": "needed",
          "type": "uint256"
        }
      ],
      "name": "ERC20InsufficientAllowance",
      "type": "error"
    },
    {
      "inputs": [
        {
          "internalType": "address",
          "name": "sender",
          "type": "address"
        },
        {
          "internalType": "uint256",
          "name": "balance",
          "type": "uint256"
        },
        {
          "internalType": "uint256",
          "name": "needed",
          "type": "uint256"
        }
      ],
      "name": "ERC20InsufficientBalance",
      "type": "error"
    },
    {
      "inputs": [
        {
          "internalType": "address",
          "name": "approver",
          "type": "address"
        }
      ],
      "name": "ERC20InvalidApprover",
      "type": "error"
    },
    {
      "inputs": [
        {
          "internalType": "address",
          "name": "receiver",
          "type": "address"
        }
      ],
      "name": "ERC20InvalidReceiver",
      "type": "error"
    },
    {
      "inputs": [
        {
          "internalType": "address",
          "name": "sender",
          "type": "address"
        }
      ],
      "name": "ERC20InvalidSender",
      "type": "error"
    },
    {
      "inputs": [
        {
          "internalType": "address",
          "name": "spender",
          "type": "address"
        }
      ],
      "name": "ERC20InvalidSpender",
      "type": "error"
    },
    {
      "inputs": [
        {
          "internalType": "address",
          "name": "receiver",
          "type": "address"
        },
        {
          "internalType": "uint256",
          "name": "assets",
          "type": "uint256"
        },
        {
          "internalType": "uint256",
          "name": "max",
          "type": "uint256"
        }
      ],
      "name": "ERC4626ExceededMaxDeposit",
      "type": "error"
    },
    {
      "inputs": [
        {
          "internalType": "address",
          "name": "receiver",
          "type": "address"
        },
        {
          "internalType": "uint256",
          "name": "shares",
          "type": "uint256"
        },
        {
          "internalType": "uint256",
          "name": "max",
          "type": "uint256"
        }
      ],
      "name": "ERC4626ExceededMaxMint",
      "type": "error"
    },
    {
      "inputs": [
        {
          "internalType": "address",
          "name": "owner",
          "type": "address"
        },
        {
          "internalType": "uint256",
          "name": "shares",
          "type": "uint256"
        },
        {
          "internalType": "uint256",
          "name": "max",
          "type": "uint256"
        }
      ],
      "name": "ERC4626ExceededMaxRedeem",
      "type": "error"
    },
    {
      "inputs": [
        {
          "internalType": "address",
          "name": "owner",
          "type": "address"
        },
        {
          "internalType": "uint256",
          "name": "assets",
          "type": "uint256"
        },
        {
          "internalType": "uint256",
          "name": "max",
          "type": "uint256"
        }
      ],
      "name": "ERC4626ExceededMaxWithdraw",
      "type": "error"
    },
    {
      "inputs": [],
      "name": "HandlesAlreadySavedForRequestID",
      "type": "error"
    },
    {
      "inputs": [
        {
          "internalType": "address",
          "name": "sender",
          "type": "address"
        },
        {
          "internalType": "uint256",
          "name": "balance",
          "type": "uint256"
        },
        {
          "internalType": "uint256",
          "name": "amount",
          "type": "uint256"
        }
      ],
      "name": "InsufficientFunds",
      "type": "error"
    },
    {
      "inputs": [],
      "name": "InvalidAddress",
      "type": "error"
    },
    {
      "inputs": [],
      "name": "InvalidArguments",
      "type": "error"
    },
    {
      "inputs": [],
      "name": "InvalidKMSSignatures",
      "type": "error"
    },
    {
      "inputs": [],
      "name": "InvalidUnderlyingDecimals",
      "type": "error"
    },
    {
      "inputs": [],
      "name": "NoHandleFoundForRequestID",
      "type": "error"
    },
    {
      "inputs": [],
      "name": "NotEnoughDepositRequest",
      "type": "error"
    },
    {
      "inputs": [],
      "name": "NotEnoughWithdrawRequest",
      "type": "error"
    },
    {
      "inputs": [],
      "name": "OrderIntentCannotBeEmpty",
      "type": "error"
    },
    {
      "inputs": [],
      "name": "ReentrancyGuardReentrantCall",
      "type": "error"
    },
    {
      "inputs": [],
      "name": "SynchronousCallDisabled",
      "type": "error"
    },
    {
      "inputs": [
        {
          "internalType": "address",
          "name": "token",
          "type": "address"
        }
      ],
      "name": "TokenAlreadyInOrder",
      "type": "error"
    },
    {
      "inputs": [
        {
          "internalType": "address",
          "name": "token",
          "type": "address"
        }
      ],
      "name": "TokenNotWhitelisted",
      "type": "error"
    },
    {
      "inputs": [],
      "name": "TransferFailed",
      "type": "error"
    },
    {
      "inputs": [],
      "name": "UnauthorizedAccess",
      "type": "error"
    },
    {
      "inputs": [],
      "name": "UnsupportedHandleType",
      "type": "error"
    },
    {
      "anonymous": false,
      "inputs": [
        {
          "indexed": true,
          "internalType": "address",
          "name": "owner",
          "type": "address"
        },
        {
          "indexed": true,
          "internalType": "address",
          "name": "spender",
          "type": "address"
        },
        {
          "indexed": false,
          "internalType": "uint256",
          "name": "value",
          "type": "uint256"
        }
      ],
      "name": "Approval",
      "type": "event"
    },
    {
      "anonymous": false,
      "inputs": [
        {
          "indexed": true,
          "internalType": "uint256",
          "name": "requestID",
          "type": "uint256"
        }
      ],
      "name": "DecryptionFulfilled",
      "type": "event"
    },
    {
      "anonymous": false,
      "inputs": [
        {
          "indexed": true,
          "internalType": "address",
          "name": "sender",
          "type": "address"
        },
        {
          "indexed": true,
          "internalType": "address",
          "name": "owner",
          "type": "address"
        },
        {
          "indexed": false,
          "internalType": "uint256",
          "name": "assets",
          "type": "uint256"
        },
        {
          "indexed": false,
          "internalType": "uint256",
          "name": "shares",
          "type": "uint256"
        }
      ],
      "name": "Deposit",
      "type": "event"
    },
    {
      "anonymous": false,
      "inputs": [
        {
          "indexed": true,
          "internalType": "address",
          "name": "user",
          "type": "address"
        },
        {
          "indexed": false,
          "internalType": "uint256",
          "name": "amount",
          "type": "uint256"
        }
      ],
      "name": "DepositProcessed",
      "type": "event"
    },
    {
      "anonymous": false,
      "inputs": [
        {
          "indexed": true,
          "internalType": "address",
          "name": "user",
          "type": "address"
        },
        {
          "indexed": false,
          "internalType": "uint256",
          "name": "amount",
          "type": "uint256"
        }
      ],
      "name": "DepositRequestCancelled",
      "type": "event"
    },
    {
      "anonymous": false,
      "inputs": [
        {
          "indexed": true,
          "internalType": "address",
          "name": "user",
          "type": "address"
        },
        {
          "indexed": false,
          "internalType": "uint256",
          "name": "amount",
          "type": "uint256"
        }
      ],
      "name": "DepositRequested",
      "type": "event"
    },
    {
      "anonymous": false,
      "inputs": [
        {
          "indexed": false,
          "internalType": "uint8",
          "name": "mode",
          "type": "uint8"
        },
        {
          "indexed": false,
          "internalType": "uint16",
          "name": "performanceFee",
          "type": "uint16"
        },
        {
          "indexed": false,
          "internalType": "uint16",
          "name": "managementFee",
          "type": "uint16"
        }
      ],
      "name": "FeeModelUpdated",
      "type": "event"
    },
    {
      "anonymous": false,
      "inputs": [
        {
          "indexed": true,
          "internalType": "address",
          "name": "curator",
          "type": "address"
        }
      ],
      "name": "OrderSubmitted",
      "type": "event"
    },
    {
      "anonymous": false,
      "inputs": [
        {
          "indexed": true,
          "internalType": "address",
          "name": "from",
          "type": "address"
        },
        {
          "indexed": true,
          "internalType": "address",
          "name": "to",
          "type": "address"
        },
        {
          "indexed": false,
          "internalType": "uint256",
          "name": "value",
          "type": "uint256"
        }
      ],
      "name": "Transfer",
      "type": "event"
    },
    {
      "anonymous": false,
      "inputs": [
        {
          "indexed": false,
          "internalType": "uint256",
          "name": "newTotalAssets",
          "type": "uint256"
        }
      ],
      "name": "VaultStateUpdated",
      "type": "event"
    },
    {
      "anonymous": false,
      "inputs": [
        {
          "indexed": true,
          "internalType": "address",
          "name": "sender",
          "type": "address"
        },
        {
          "indexed": true,
          "internalType": "address",
          "name": "receiver",
          "type": "address"
        },
        {
          "indexed": true,
          "internalType": "address",
          "name": "owner",
          "type": "address"
        },
        {
          "indexed": false,
          "internalType": "uint256",
          "name": "assets",
          "type": "uint256"
        },
        {
          "indexed": false,
          "internalType": "uint256",
          "name": "shares",
          "type": "uint256"
        }
      ],
      "name": "Withdraw",
      "type": "event"
    },
    {
      "anonymous": false,
      "inputs": [
        {
          "indexed": true,
          "internalType": "address",
          "name": "user",
          "type": "address"
        },
        {
          "indexed": false,
          "internalType": "uint256",
          "name": "shares",
          "type": "uint256"
        }
      ],
      "name": "WithdrawProcessed",
      "type": "event"
    },
    {
      "anonymous": false,
      "inputs": [
        {
          "indexed": true,
          "internalType": "address",
          "name": "user",
          "type": "address"
        },
        {
          "indexed": false,
          "internalType": "uint256",
          "name": "shares",
          "type": "uint256"
        }
      ],
      "name": "WithdrawRequestCancelled",
      "type": "event"
    },
    {
      "anonymous": false,
      "inputs": [
        {
          "indexed": true,
          "internalType": "address",
          "name": "user",
          "type": "address"
        },
        {
          "indexed": false,
          "internalType": "uint256",
          "name": "shares",
          "type": "uint256"
        }
      ],
      "name": "WithdrawRequested",
      "type": "event"
    },
    {
      "inputs": [],
      "name": "CURATOR_FEE_FACTOR",
      "outputs": [
        {
          "internalType": "uint16",
          "name": "",
          "type": "uint16"
        }
      ],
      "stateMutability": "view",
      "type": "function"
    },
    {
      "inputs": [],
      "name": "MAX_MANAGEMENT_FEE",
      "outputs": [
        {
          "internalType": "uint16",
          "name": "",
          "type": "uint16"
        }
      ],
      "stateMutability": "view",
      "type": "function"
    },
    {
      "inputs": [],
      "name": "MAX_PERFORMANCE_FEE",
      "outputs": [
        {
          "internalType": "uint16",
          "name": "",
          "type": "uint16"
        }
      ],
      "stateMutability": "view",
      "type": "function"
    },
    {
      "inputs": [],
      "name": "SHARE_DECIMALS",
      "outputs": [
        {
          "internalType": "uint8",
          "name": "",
          "type": "uint8"
        }
      ],
      "stateMutability": "view",
      "type": "function"
    },
    {
      "inputs": [],
      "name": "YEAR_IN_SECONDS",
      "outputs": [
        {
          "internalType": "uint32",
          "name": "",
          "type": "uint32"
        }
      ],
      "stateMutability": "view",
      "type": "function"
    },
    {
      "inputs": [
        {
          "internalType": "address",
          "name": "owner",
          "type": "address"
        },
        {
          "internalType": "address",
          "name": "spender",
          "type": "address"
        }
      ],
      "name": "allowance",
      "outputs": [
        {
          "internalType": "uint256",
          "name": "",
          "type": "uint256"
        }
      ],
      "stateMutability": "view",
      "type": "function"
    },
    {
      "inputs": [
        {
          "internalType": "address",
          "name": "spender",
          "type": "address"
        },
        {
          "internalType": "uint256",
          "name": "value",
          "type": "uint256"
        }
      ],
      "name": "approve",
      "outputs": [
        {
          "internalType": "bool",
          "name": "",
          "type": "bool"
        }
      ],
      "stateMutability": "nonpayable",
      "type": "function"
    },
    {
      "inputs": [],
      "name": "asset",
      "outputs": [
        {
          "internalType": "address",
          "name": "",
          "type": "address"
        }
      ],
      "stateMutability": "view",
      "type": "function"
    },
    {
      "inputs": [
        {
          "internalType": "address",
          "name": "account",
          "type": "address"
        }
      ],
      "name": "balanceOf",
      "outputs": [
        {
          "internalType": "uint256",
          "name": "",
          "type": "uint256"
        }
      ],
      "stateMutability": "view",
      "type": "function"
    },
    {
      "inputs": [
        {
          "internalType": "uint256",
          "name": "requestID",
          "type": "uint256"
        },
        {
          "internalType": "bool",
          "name": "decryptedInput",
          "type": "bool"
        },
        {
          "internalType": "bytes[]",
          "name": "signatures",
          "type": "bytes[]"
        }
      ],
      "name": "callbackDecryptSingleEbool",
      "outputs": [],
      "stateMutability": "nonpayable",
      "type": "function"
    },
    {
      "inputs": [
        {
          "internalType": "uint256",
          "name": "amount",
          "type": "uint256"
        }
      ],
      "name": "cancelDepositRequest",
      "outputs": [],
      "stateMutability": "nonpayable",
      "type": "function"
    },
    {
      "inputs": [
        {
          "internalType": "uint256",
          "name": "shares",
          "type": "uint256"
        }
      ],
      "name": "cancelWithdrawRequest",
      "outputs": [],
      "stateMutability": "nonpayable",
      "type": "function"
    },
    {
      "inputs": [],
      "name": "config",
      "outputs": [
        {
          "internalType": "contract IOrionConfig",
          "name": "",
          "type": "address"
        }
      ],
      "stateMutability": "view",
      "type": "function"
    },
    {
      "inputs": [
        {
          "internalType": "uint256",
          "name": "shares",
          "type": "uint256"
        }
      ],
      "name": "convertToAssets",
      "outputs": [
        {
          "internalType": "uint256",
          "name": "",
          "type": "uint256"
        }
      ],
      "stateMutability": "view",
      "type": "function"
    },
    {
      "inputs": [
        {
          "internalType": "uint256",
          "name": "shares",
          "type": "uint256"
        },
        {
          "internalType": "uint256",
          "name": "pointInTimeTotalAssets",
          "type": "uint256"
        },
        {
          "internalType": "enum Math.Rounding",
          "name": "rounding",
          "type": "uint8"
        }
      ],
      "name": "convertToAssetsWithPITTotalAssets",
      "outputs": [
        {
          "internalType": "uint256",
          "name": "",
          "type": "uint256"
        }
      ],
      "stateMutability": "view",
      "type": "function"
    },
    {
      "inputs": [
        {
          "internalType": "uint256",
          "name": "assets",
          "type": "uint256"
        }
      ],
      "name": "convertToShares",
      "outputs": [
        {
          "internalType": "uint256",
          "name": "",
          "type": "uint256"
        }
      ],
      "stateMutability": "view",
      "type": "function"
    },
    {
      "inputs": [],
      "name": "curator",
      "outputs": [
        {
          "internalType": "address",
          "name": "",
          "type": "address"
        }
      ],
      "stateMutability": "view",
      "type": "function"
    },
    {
      "inputs": [
        {
          "internalType": "uint256",
          "name": "activeTotalAssets",
          "type": "uint256"
        }
      ],
      "name": "curatorFee",
      "outputs": [
        {
          "internalType": "uint256",
          "name": "",
          "type": "uint256"
        }
      ],
      "stateMutability": "view",
      "type": "function"
    },
    {
      "inputs": [],
      "name": "decimals",
      "outputs": [
        {
          "internalType": "uint8",
          "name": "",
          "type": "uint8"
        }
      ],
      "stateMutability": "view",
      "type": "function"
    },
    {
      "inputs": [
        {
          "internalType": "uint256",
          "name": "",
          "type": "uint256"
        },
        {
          "internalType": "address",
          "name": "",
          "type": "address"
        }
      ],
      "name": "deposit",
      "outputs": [
        {
          "internalType": "uint256",
          "name": "",
          "type": "uint256"
        }
      ],
      "stateMutability": "pure",
      "type": "function"
    },
    {
      "inputs": [],
      "name": "feeModel",
      "outputs": [
        {
          "internalType": "enum OrionVault.CalcMode",
          "name": "mode",
          "type": "uint8"
        },
        {
          "internalType": "uint16",
          "name": "performanceFee",
          "type": "uint16"
        },
        {
          "internalType": "uint16",
          "name": "managementFee",
          "type": "uint16"
        },
        {
          "internalType": "uint256",
          "name": "highWaterMark",
          "type": "uint256"
        }
      ],
      "stateMutability": "view",
      "type": "function"
    },
    {
      "inputs": [],
      "name": "getIntent",
      "outputs": [
        {
          "internalType": "address[]",
          "name": "tokens",
          "type": "address[]"
        },
        {
          "internalType": "euint32[]",
          "name": "weights",
          "type": "bytes32[]"
        }
      ],
      "stateMutability": "view",
      "type": "function"
    },
    {
      "inputs": [],
      "name": "getPendingDeposits",
      "outputs": [
        {
          "internalType": "uint256",
          "name": "",
          "type": "uint256"
        }
      ],
      "stateMutability": "view",
      "type": "function"
    },
    {
      "inputs": [],
      "name": "getPendingWithdrawals",
      "outputs": [
        {
          "internalType": "uint256",
          "name": "",
          "type": "uint256"
        }
      ],
      "stateMutability": "view",
      "type": "function"
    },
    {
      "inputs": [],
      "name": "getPortfolio",
      "outputs": [
        {
          "internalType": "address[]",
          "name": "tokens",
          "type": "address[]"
        },
        {
          "internalType": "euint32[]",
          "name": "sharesPerAsset",
          "type": "bytes32[]"
        }
      ],
      "stateMutability": "view",
      "type": "function"
    },
    {
      "inputs": [
        {
          "internalType": "address",
          "name": "",
          "type": "address"
        }
      ],
      "name": "maxDeposit",
      "outputs": [
        {
          "internalType": "uint256",
          "name": "",
          "type": "uint256"
        }
      ],
      "stateMutability": "view",
      "type": "function"
    },
    {
      "inputs": [
        {
          "internalType": "address",
          "name": "",
          "type": "address"
        }
      ],
      "name": "maxMint",
      "outputs": [
        {
          "internalType": "uint256",
          "name": "",
          "type": "uint256"
        }
      ],
      "stateMutability": "view",
      "type": "function"
    },
    {
      "inputs": [
        {
          "internalType": "address",
          "name": "owner",
          "type": "address"
        }
      ],
      "name": "maxRedeem",
      "outputs": [
        {
          "internalType": "uint256",
          "name": "",
          "type": "uint256"
        }
      ],
      "stateMutability": "view",
      "type": "function"
    },
    {
      "inputs": [
        {
          "internalType": "address",
          "name": "owner",
          "type": "address"
        }
      ],
      "name": "maxWithdraw",
      "outputs": [
        {
          "internalType": "uint256",
          "name": "",
          "type": "uint256"
        }
      ],
      "stateMutability": "view",
      "type": "function"
    },
    {
      "inputs": [
        {
          "internalType": "uint256",
          "name": "",
          "type": "uint256"
        },
        {
          "internalType": "address",
          "name": "",
          "type": "address"
        }
      ],
      "name": "mint",
      "outputs": [
        {
          "internalType": "uint256",
          "name": "",
          "type": "uint256"
        }
      ],
      "stateMutability": "pure",
      "type": "function"
    },
    {
      "inputs": [],
      "name": "name",
      "outputs": [
        {
          "internalType": "string",
          "name": "",
          "type": "string"
        }
      ],
      "stateMutability": "view",
      "type": "function"
    },
    {
      "inputs": [
        {
          "internalType": "uint256",
          "name": "assets",
          "type": "uint256"
        }
      ],
      "name": "previewDeposit",
      "outputs": [
        {
          "internalType": "uint256",
          "name": "",
          "type": "uint256"
        }
      ],
      "stateMutability": "view",
      "type": "function"
    },
    {
      "inputs": [
        {
          "internalType": "uint256",
          "name": "shares",
          "type": "uint256"
        }
      ],
      "name": "previewMint",
      "outputs": [
        {
          "internalType": "uint256",
          "name": "",
          "type": "uint256"
        }
      ],
      "stateMutability": "view",
      "type": "function"
    },
    {
      "inputs": [
        {
          "internalType": "uint256",
          "name": "shares",
          "type": "uint256"
        }
      ],
      "name": "previewRedeem",
      "outputs": [
        {
          "internalType": "uint256",
          "name": "",
          "type": "uint256"
        }
      ],
      "stateMutability": "view",
      "type": "function"
    },
    {
      "inputs": [
        {
          "internalType": "uint256",
          "name": "assets",
          "type": "uint256"
        }
      ],
      "name": "previewWithdraw",
      "outputs": [
        {
          "internalType": "uint256",
          "name": "",
          "type": "uint256"
        }
      ],
      "stateMutability": "view",
      "type": "function"
    },
    {
      "inputs": [],
      "name": "processDepositRequests",
      "outputs": [],
      "stateMutability": "nonpayable",
      "type": "function"
    },
    {
      "inputs": [],
      "name": "processWithdrawRequests",
      "outputs": [],
      "stateMutability": "nonpayable",
      "type": "function"
    },
    {
      "inputs": [
        {
          "internalType": "uint256",
          "name": "",
          "type": "uint256"
        },
        {
          "internalType": "address",
          "name": "",
          "type": "address"
        },
        {
          "internalType": "address",
          "name": "",
          "type": "address"
        }
      ],
      "name": "redeem",
      "outputs": [
        {
          "internalType": "uint256",
          "name": "",
          "type": "uint256"
        }
      ],
      "stateMutability": "pure",
      "type": "function"
    },
    {
      "inputs": [
        {
          "internalType": "uint256",
          "name": "amount",
          "type": "uint256"
        }
      ],
      "name": "requestDeposit",
      "outputs": [],
      "stateMutability": "nonpayable",
      "type": "function"
    },
    {
      "inputs": [
        {
          "internalType": "uint256",
          "name": "shares",
          "type": "uint256"
        }
      ],
      "name": "requestWithdraw",
      "outputs": [],
      "stateMutability": "nonpayable",
      "type": "function"
    },
    {
      "inputs": [
        {
          "components": [
            {
              "internalType": "address",
              "name": "token",
              "type": "address"
            },
            {
              "internalType": "externalEuint32",
              "name": "weight",
              "type": "bytes32"
            }
          ],
          "internalType": "struct IOrionEncryptedVault.EncryptedIntent[]",
          "name": "intent",
          "type": "tuple[]"
        },
        {
          "internalType": "bytes",
          "name": "inputProof",
          "type": "bytes"
        }
      ],
      "name": "submitIntent",
      "outputs": [],
      "stateMutability": "nonpayable",
      "type": "function"
    },
    {
      "inputs": [],
      "name": "symbol",
      "outputs": [
        {
          "internalType": "string",
          "name": "",
          "type": "string"
        }
      ],
      "stateMutability": "view",
      "type": "function"
    },
    {
      "inputs": [],
      "name": "totalAssets",
      "outputs": [
        {
          "internalType": "uint256",
          "name": "",
          "type": "uint256"
        }
      ],
      "stateMutability": "view",
      "type": "function"
    },
    {
      "inputs": [],
      "name": "totalSupply",
      "outputs": [
        {
          "internalType": "uint256",
          "name": "",
          "type": "uint256"
        }
      ],
      "stateMutability": "view",
      "type": "function"
    },
    {
      "inputs": [
        {
          "internalType": "address",
          "name": "to",
          "type": "address"
        },
        {
          "internalType": "uint256",
          "name": "value",
          "type": "uint256"
        }
      ],
      "name": "transfer",
      "outputs": [
        {
          "internalType": "bool",
          "name": "",
          "type": "bool"
        }
      ],
      "stateMutability": "nonpayable",
      "type": "function"
    },
    {
      "inputs": [
        {
          "internalType": "address",
          "name": "from",
          "type": "address"
        },
        {
          "internalType": "address",
          "name": "to",
          "type": "address"
        },
        {
          "internalType": "uint256",
          "name": "value",
          "type": "uint256"
        }
      ],
      "name": "transferFrom",
      "outputs": [
        {
          "internalType": "bool",
          "name": "",
          "type": "bool"
        }
      ],
      "stateMutability": "nonpayable",
      "type": "function"
    },
    {
      "inputs": [
        {
          "internalType": "address",
          "name": "newCurator",
          "type": "address"
        }
      ],
      "name": "updateCurator",
      "outputs": [],
      "stateMutability": "nonpayable",
      "type": "function"
    },
    {
      "inputs": [
        {
          "internalType": "uint8",
          "name": "mode",
          "type": "uint8"
        },
        {
          "internalType": "uint16",
          "name": "performanceFee",
          "type": "uint16"
        },
        {
          "internalType": "uint16",
          "name": "managementFee",
          "type": "uint16"
        }
      ],
      "name": "updateFeeModel",
      "outputs": [],
      "stateMutability": "nonpayable",
      "type": "function"
    },
    {
      "inputs": [],
      "name": "updateHighWaterMark",
      "outputs": [],
      "stateMutability": "nonpayable",
      "type": "function"
    },
    {
      "inputs": [
        {
          "components": [
            {
              "internalType": "address",
              "name": "token",
              "type": "address"
            },
            {
              "internalType": "euint32",
              "name": "value",
              "type": "bytes32"
            }
          ],
          "internalType": "struct IOrionEncryptedVault.EncryptedPortfolio[]",
          "name": "portfolio",
          "type": "tuple[]"
        },
        {
          "internalType": "uint256",
          "name": "newTotalAssets",
          "type": "uint256"
        }
      ],
      "name": "updateVaultState",
      "outputs": [],
      "stateMutability": "nonpayable",
      "type": "function"
    },
    {
      "inputs": [
        {
          "internalType": "address[]",
          "name": "assets",
          "type": "address[]"
        }
      ],
      "name": "updateVaultWhitelist",
      "outputs": [],
      "stateMutability": "nonpayable",
      "type": "function"
    },
    {
      "inputs": [],
      "name": "vaultOwner",
      "outputs": [
        {
          "internalType": "address",
          "name": "",
          "type": "address"
        }
      ],
      "stateMutability": "view",
      "type": "function"
    },
    {
      "inputs": [
        {
          "internalType": "uint256",
          "name": "",
          "type": "uint256"
        },
        {
          "internalType": "address",
          "name": "",
          "type": "address"
        },
        {
          "internalType": "address",
          "name": "",
          "type": "address"
        }
      ],
      "name": "withdraw",
      "outputs": [
        {
          "internalType": "uint256",
          "name": "",
          "type": "uint256"
        }
      ],
      "stateMutability": "pure",
      "type": "function"
    }
  ],
  "bytecode": "0x60c060405234801561000f575f5ffd5b506040516152e53803806152e583398101604081905261002e9161088a565b8484848484826001600160a01b0316637158da7c6040518163ffffffff1660e01b8152600401602060405180830381865afa15801561006f573d5f5f3e3d5ffd5b505050506040513d601f19601f820116820180604052508101906100939190610928565b8282610138610133604080516080810182525f808252602082018190529181018290526060810191909152506040805160808101825273687820221192c5b662b25367f70076a37bc79b6c815273848b0066793bcc60346da1f49049357399b8d5956020820152731364cbbf2cdf5032c47d8226a6f6fbd2afcdacac9181019190915273bc91f3dad1a5f19f8390c400196e58073b6a0bc4606082015290565b6103f5565b61015573a02cda4ca3a71d7c46997716f4283aa851c288126104ae565b600361016183826109c7565b50600461016e82826109c7565b5050505f5f610182836104eb60201b60201c565b9150915081610192576012610194565b805b60ff1660a05250506001600160a01b03908116608052600160055584166101ce5760405163e6c4247b60e01b815260040160405180910390fd5b6001600160a01b0383166101f55760405163e6c4247b60e01b815260040160405180910390fd5b600780546001600160a01b038088166001600160a01b031992831617909255600880548784169083161790556006805492861692909116821790555f600b8190556012819055601381905560408051631c56369f60e21b81529051919291637158da7c916004808201926020929091908290030181865afa15801561027c573d5f5f3e3d5ffd5b505050506040513d601f19601f820116820180604052508101906102a09190610928565b6001600160a01b031663313ce5676040518163ffffffff1660e01b8152600401602060405180830381865afa1580156102db573d5f5f3e3d5ffd5b505050506040513d601f19601f820116820180604052508101906102ff9190610a81565b9050601260ff8216111561032657604051631c03248960e11b815260040160405180910390fd5b6040805160808101909152805f81525f6020820181905260408201526060016103516012600a610bac565b9052805160148054909190829060ff1916600183600381111561037657610376610aa1565b021790555060208201518154604084015161ffff90811663010000000264ffff0000001991909316610100021664ffffffff0019909116171781556060909101516001909101556103c56105c1565b5050505050506103da5f61069660201b60201c565b601b556103e760016106ae565b601c5550610cdd9350505050565b80515f5160206152a55f395f51905f5280546001600160a01b03199081166001600160a01b039384161790915560208301515f5160206152c55f395f51905f528054831691841691909117905560408301517fed8d60e34876f751cc8b014c560745351147d9de11b9347c854e881b128ea6028054831691841691909117905560608301517fed8d60e34876f751cc8b014c560745351147d9de11b9347c854e881b128ea6038054909216921691909117905550565b50565b7f5ea69329017273582817d320489fbd94f775580e90c092699ca6f3d12fdf7d0080546001600160a01b0319166001600160a01b03831617905550565b60408051600481526024810182526020810180516001600160e01b031663313ce56760e01b17905290515f918291829182916001600160a01b0387169161053191610bba565b5f60405180830381855afa9150503d805f8114610569576040519150601f19603f3d011682016040523d82523d5f602084013e61056e565b606091505b509150915081801561058257506020815110155b156105b5575f8180602001905181019061059c9190610bd0565b905060ff81116105b3576001969095509350505050565b505b505f9485945092505050565b60065460408051636c366a2760e11b815290515f926001600160a01b03169163d86cd44e91600480830192869291908290030181865afa158015610607573d5f5f3e3d5ffd5b505050506040513d5f823e601f3d908101601f1916820160405261062e9190810190610be7565b90505f5b8151811015610692575f61066983838151811061065157610651610c99565b602002602001015160096106c960201b90919060201c565b90508061068957604051630ea075bf60e21b815260040160405180910390fd5b50600101610632565b5050565b5f6106a863ffffffff831660046106e4565b92915050565b5f6106a8826106bd575f6106c0565b60015b60ff165f6106e4565b5f6106dd836001600160a01b03841661077b565b9392505050565b5f5160206152c55f395f51905f5254604051639cd07acb60e01b81525f915f5160206152a55f395f51905f52916001600160a01b0390911690639cd07acb906107339087908790600401610cad565b6020604051808303815f875af115801561074f573d5f5f3e3d5ffd5b505050506040513d601f19601f820116820180604052508101906107739190610bd0565b949350505050565b5f8181526001830160205260408120546107c057508154600181810184555f8481526020808220909301849055845484825282860190935260409020919091556106a8565b505f6106a8565b6001600160a01b03811681146104ab575f5ffd5b634e487b7160e01b5f52604160045260245ffd5b604051601f8201601f191681016001600160401b0381118282101715610817576108176107db565b604052919050565b5f82601f83011261082e575f5ffd5b81516001600160401b03811115610847576108476107db565b61085a601f8201601f19166020016107ef565b81815284602083860101111561086e575f5ffd5b8160208501602083015e5f918101602001919091529392505050565b5f5f5f5f5f60a0868803121561089e575f5ffd5b85516108a9816107c7565b60208701519095506108ba816107c7565b60408701519094506108cb816107c7565b60608701519093506001600160401b038111156108e6575f5ffd5b6108f28882890161081f565b608088015190935090506001600160401b0381111561090f575f5ffd5b61091b8882890161081f565b9150509295509295909350565b5f60208284031215610938575f5ffd5b81516106dd816107c7565b600181811c9082168061095757607f821691505b60208210810361097557634e487b7160e01b5f52602260045260245ffd5b50919050565b601f8211156109c257805f5260205f20601f840160051c810160208510156109a05750805b601f840160051c820191505b818110156109bf575f81556001016109ac565b50505b505050565b81516001600160401b038111156109e0576109e06107db565b6109f4816109ee8454610943565b8461097b565b6020601f821160018114610a26575f8315610a0f5750848201515b5f19600385901b1c1916600184901b1784556109bf565b5f84815260208120601f198516915b82811015610a555787850151825560209485019460019092019101610a35565b5084821015610a7257868401515f19600387901b60f8161c191681555b50505050600190811b01905550565b5f60208284031215610a91575f5ffd5b815160ff811681146106dd575f5ffd5b634e487b7160e01b5f52602160045260245ffd5b634e487b7160e01b5f52601160045260245ffd5b6001815b6001841115610b0457808504811115610ae857610ae8610ab5565b6001841615610af657908102905b60019390931c928002610acd565b935093915050565b5f82610b1a575060016106a8565b81610b2657505f6106a8565b8160018114610b3c5760028114610b4657610b62565b60019150506106a8565b60ff841115610b5757610b57610ab5565b50506001821b6106a8565b5060208310610133831016604e8410600b8410161715610b85575081810a6106a8565b610b915f198484610ac9565b805f1904821115610ba457610ba4610ab5565b029392505050565b5f6106dd60ff841683610b0c565b5f82518060208501845e5f920191825250919050565b5f60208284031215610be0575f5ffd5b5051919050565b5f60208284031215610bf7575f5ffd5b81516001600160401b03811115610c0c575f5ffd5b8201601f81018413610c1c575f5ffd5b80516001600160401b03811115610c3557610c356107db565b8060051b610c45602082016107ef565b91825260208184018101929081019087841115610c60575f5ffd5b6020850194505b83851015610c8e5784519250610c7c836107c7565b82825260209485019490910190610c67565b979650505050505050565b634e487b7160e01b5f52603260045260245ffd5b8281526040810160548310610cd057634e487b7160e01b5f52602160045260245ffd5b8260208301529392505050565b60805160a0516145aa610cfb5f395f50505f610e4501526145aa5ff3fe608060405234801561000f575f5ffd5b5060043610610265575f3560e01c806301e1d1141461026957806303d448541461028057806306fdde031461029557806307a2d13a146102aa578063095ea7b3146102bd5780630a28a477146102e05780630c6a62dd146102f35780630d1e66671461030657806318160ddd146103195780631f52692b1461032157806323b872dd146103415780632dae296714610354578063313ce5671461035c57806333fdc5921461037157806338d52e0f146103795780633ab6d27c14610381578063402d267d146103945780634cdad506146102aa57806358df8301146103a85780636e553f65146103bb57806370a08231146103ce57806373d8057d146103e1578063745400c9146103fd5780637847ea531461041057806379502c551461043057806394bf804d146103bb57806395d89b411461044357806397ee11441461044b5780639908840c146104815780639adb29811461048a578063a68a52671461049d578063a9059cbb146104b0578063aa9d3a60146104c3578063b3d7f6b9146104cb578063b460af94146104de578063b6eba653146104ec578063ba087652146104de578063bdca916514610502578063c0b568e11461050b578063c37fc8a81461051e578063c392e58c14610526578063c63d75b614610394578063c6e6f59214610539578063cce4705b1461054c578063ce96cb771461055f578063d1699c2614610572578063d3d034581461057a578063d853365f14610582578063d905777e1461058a578063dd62ed3e1461059d578063e51a85f6146105b0578063e66f53b7146105c3578063ef8b30f714610539575b5f5ffd5b600b545b6040519081526020015b60405180910390f35b61029361028e366004613afb565b6105d6565b005b61029d610706565b6040516102779190613bbd565b61026d6102b8366004613bcf565b610796565b6102d06102cb366004613be6565b6107a7565b6040519015158152602001610277565b61026d6102ee366004613bcf565b6107be565b610293610301366004613c10565b6107ca565b610293610314366004613bcf565b61083e565b60025461026d565b600754610334906001600160a01b031681565b6040516102779190613c2b565b6102d061034f366004613c3f565b610a99565b610293610abe565b60125b60405160ff9091168152602001610277565b610293610b7e565b610334610e43565b61029361038f366004613c9a565b610e67565b61026d6103a2366004613c10565b505f1990565b6102936103b6366004613cef565b610fb5565b61026d6103c9366004613e19565b610fd4565b61026d6103dc366004613c10565b610fee565b6103ea61271081565b60405161ffff9091168152602001610277565b61029361040b366004613bcf565b611008565b61041b6301e1338081565b60405163ffffffff9091168152602001610277565b600654610334906001600160a01b031681565b61029d6111ca565b6014546015546104719160ff81169161ffff610100830481169263010000009004169084565b6040516102779493929190613e5b565b6103ea61012c81565b610293610498366004613ecd565b6111d9565b61026d6104ab366004613f14565b611406565b6102d06104be366004613be6565b611450565b61029361145d565b61026d6104d9366004613bcf565b6117bf565b61026d6103c9366004613f42565b6104f46117cb565b604051610277929190613f76565b6103ea610bb881565b610293610519366004613bcf565b61194c565b60135461026d565b610293610534366004613fff565b611aee565b61026d610547366004613bcf565b612079565b61029361055a366004613bcf565b612084565b61026d61056d366004613c10565b612229565b60125461026d565b6104f461223c565b61035f601281565b61026d610598366004613c10565b6123a0565b61026d6105ab366004614095565b6123aa565b61026d6105be366004613bcf565b6123d4565b600854610334906001600160a01b031681565b6007546001600160a01b0316331461060157604051631a27eac360e11b815260040160405180910390fd5b61060b60096123f8565b5f5b8151811015610702575f828281518110610629576106296140c1565b6020908102919091010151600654604051633af32abf60e01b81529192506001600160a01b031690633af32abf90610665908490600401613c2b565b602060405180830381865afa158015610680573d5f5f3e3d5ffd5b505050506040513d601f19601f820116820180604052508101906106a491906140d5565b6106cc578060405163751dff9760e11b81526004016106c39190613c2b565b60405180910390fd5b5f6106d8600983612401565b9050806106f857604051630ea075bf60e21b815260040160405180910390fd5b505060010161060d565b5050565b606060038054610715906140f0565b80601f0160208091040260200160405190810160405280929190818152602001828054610741906140f0565b801561078c5780601f106107635761010080835404028352916020019161078c565b820191905f5260205f20905b81548152906001019060200180831161076f57829003601f168201915b5050505050905090565b5f6107a1825f612415565b92915050565b5f336107b4818585612456565b5060019392505050565b5f6107a1826001612468565b6007546001600160a01b031633146107f557604051631a27eac360e11b815260040160405180910390fd5b6001600160a01b03811661081c5760405163e6c4247b60e01b815260040160405180910390fd5b600880546001600160a01b0319166001600160a01b0392909216919091179055565b61084661249a565b805f0361086f57610855610e43565b604051636b30633560e01b81526004016106c39190613c2b565b5f610878610e43565b6001600160a01b03166370a08231336040518263ffffffff1660e01b81526004016108a39190613c2b565b602060405180830381865afa1580156108be573d5f5f3e3d5ffd5b505050506040513d601f19601f820116820180604052508101906108e29190614122565b90508082111561090b57338183604051632e2a182f60e11b81526004016106c393929190614139565b5f610914610e43565b6001600160a01b03166323b872dd3360065f9054906101000a90046001600160a01b03166001600160a01b0316633a0dad8e6040518163ffffffff1660e01b8152600401602060405180830381865afa158015610973573d5f5f3e3d5ffd5b505050506040513d601f19601f82011682018060405250810190610997919061415a565b866040518463ffffffff1660e01b81526004016109b693929190614175565b6020604051808303815f875af11580156109d2573d5f5f3e3d5ffd5b505050506040513d601f19601f820116820180604052508101906109f691906140d5565b905080610a16576040516312171d8360e31b815260040160405180910390fd5b5f610a22600c336124c4565b9150610a3d905033610a3486846141ad565b600c91906124ea565b508360125f828254610a4f91906141ad565b909155505060405184815233907f08d79f77ab5f78e7e780abb1f7ac9e9923340d5bae78f6e83e7999905b248ea29060200160405180910390a2505050610a966001600555565b50565b5f33610aa6858285612507565b610ab1858585612552565b60019150505b9392505050565b60065f9054906101000a90046001600160a01b03166001600160a01b0316633a0dad8e6040518163ffffffff1660e01b8152600401602060405180830381865afa158015610b0e573d5f5f3e3d5ffd5b505050506040513d601f19601f82011682018060405250810190610b32919061415a565b6001600160a01b0316336001600160a01b031614610b6357604051631a27eac360e11b815260040160405180910390fd5b5f610b6c6125af565b601554909150811115610a9657601555565b60065f9054906101000a90046001600160a01b03166001600160a01b0316633a0dad8e6040518163ffffffff1660e01b8152600401602060405180830381865afa158015610bce573d5f5f3e3d5ffd5b505050506040513d601f19601f82011682018060405250810190610bf2919061415a565b6001600160a01b0316336001600160a01b031614610c2357604051631a27eac360e11b815260040160405180910390fd5b610c2b61249a565b5f610c36600c6126b7565b90505f8163ffffffff166001600160401b03811115610c5757610c57613a81565b604051908082528060200260200182016040528015610c80578160200160208202803683370190505b5090505f8263ffffffff166001600160401b03811115610ca257610ca2613a81565b604051908082528060200260200182016040528015610ccb578160200160208202803683370190505b5090505f5b8363ffffffff168163ffffffff161015610d65575f80610cfa600c63ffffffff808616906126c116565b9150915081858463ffffffff1681518110610d1757610d176140c1565b60200260200101906001600160a01b031690816001600160a01b03168152505080848463ffffffff1681518110610d5057610d506140c1565b60209081029190910101525050600101610cd0565b505f5b8363ffffffff168163ffffffff161015610e32575f838263ffffffff1681518110610d9557610d956140c1565b602002602001015190505f838363ffffffff1681518110610db857610db86140c1565b602002602001015190505f610dcc82612079565b9050610dd9600c846126cf565b50610de483826126e3565b826001600160a01b03167f85a190caa61692b36b63a55e069330d18ab9af179fed7a25c16a4262bc63b7d283604051610e1f91815260200190565b60405180910390a2505050600101610d68565b50505f60125550506001600555565b565b7f000000000000000000000000000000000000000000000000000000000000000090565b6007546001600160a01b03163314610e9257604051631a27eac360e11b815260040160405180910390fd5b600360ff84161115610eb7576040516317dbc4cb60e21b815260040160405180910390fd5b610bb861ffff83161115610ede576040516317dbc4cb60e21b815260040160405180910390fd5b61012c61ffff82161115610f05576040516317dbc4cb60e21b815260040160405180910390fd5b8260ff166003811115610f1a57610f1a613e47565b6014805460ff19166001836003811115610f3657610f36613e47565b02179055506014805464ffffffff00191661010061ffff85811691820264ffff0000001916929092176301000000928516928302179092556040805160ff8716815260208101939093528201527fd24f39e523bfa412fa391702710dc62e1c82d87a8e83228a37c42be1b4870f459060600160405180910390a1505050565b610fbf8382612717565b50601d805460ff191691151591909117905550565b5f60405163125ad87760e31b815260040160405180910390fd5b6001600160a01b03165f9081526020819052604090205490565b805f0361102a5730604051636b30633560e01b81526004016106c39190613c2b565b5f61103433610fee565b90508082111561105d57338183604051632e2a182f60e11b81526004016106c393929190614139565b60065460408051631d06d6c760e11b815290515f9230926323b872dd9233926001600160a01b031691633a0dad8e9160048083019260209291908290030181865afa1580156110ae573d5f5f3e3d5ffd5b505050506040513d601f19601f820116820180604052508101906110d2919061415a565b866040518463ffffffff1660e01b81526004016110f193929190614175565b6020604051808303815f875af115801561110d573d5f5f3e3d5ffd5b505050506040513d601f19601f8201168201806040525081019061113191906140d5565b905080611151576040516312171d8360e31b815260040160405180910390fd5b5f61115d600f336124c4565b915061117890503361116f86846141ad565b600f91906124ea565b508360135f82825461118a91906141ad565b909155505060405184815233907ff7774b688d56120b783560a913ee60792a73dfd511812b7be5eccf10d08c66899060200160405180910390a250505050565b606060048054610715906140f0565b60065f9054906101000a90046001600160a01b03166001600160a01b0316633a0dad8e6040518163ffffffff1660e01b8152600401602060405180830381865afa158015611229573d5f5f3e3d5ffd5b505050506040513d601f19601f8201168201806040525081019061124d919061415a565b6001600160a01b0316336001600160a01b03161461127e57604051631a27eac360e11b815260040160405180910390fd5b6017545f5b8161ffff168161ffff1610156112dc57601b5460165f60178461ffff16815481106112b0576112b06140c1565b5f9182526020808320909101546001600160a01b03168352820192909252604001902055600101611283565b506112e860175f613a11565b5f5b8161ffff168161ffff1610156113c75784848261ffff16818110611310576113106140c1565b9050604002016020013560165f87878561ffff16818110611333576113336140c1565b6113499260206040909202019081019150613c10565b6001600160a01b0316815260208101919091526040015f20556017858561ffff841681811061137a5761137a6140c1565b6113909260206040909202019081019150613c10565b8154600180820184555f93845260209093200180546001600160a01b0319166001600160a01b0392909216919091179055016112ea565b50600b8290556040518281527f5e1ff954b5e5257e9ee5d4cb07059e8f5e69b1aaaf9911e5d8d90a6894de9c219060200160405180910390a150505050565b5f5f61141160025490565b90506114476114218560016141ad565b61142961277e565b61143490600a6142a3565b61143e90846141ad565b879190866127f4565b95945050505050565b5f336107b4818585612552565b60065f9054906101000a90046001600160a01b03166001600160a01b0316633a0dad8e6040518163ffffffff1660e01b8152600401602060405180830381865afa1580156114ad573d5f5f3e3d5ffd5b505050506040513d601f19601f820116820180604052508101906114d1919061415a565b6001600160a01b0316336001600160a01b03161461150257604051631a27eac360e11b815260040160405180910390fd5b61150a61249a565b5f611515600f6126b7565b90505f8163ffffffff166001600160401b0381111561153657611536613a81565b60405190808252806020026020018201604052801561155f578160200160208202803683370190505b5090505f8263ffffffff166001600160401b0381111561158157611581613a81565b6040519080825280602002602001820160405280156115aa578160200160208202803683370190505b5090505f5b8363ffffffff168163ffffffff161015611644575f806115d9600f63ffffffff808616906126c116565b9150915081858463ffffffff16815181106115f6576115f66140c1565b60200260200101906001600160a01b031690816001600160a01b03168152505080848463ffffffff168151811061162f5761162f6140c1565b602090810291909101015250506001016115af565b505f60138190555b8363ffffffff168163ffffffff1610156117b1575f838263ffffffff1681518110611679576116796140c1565b602002602001015190505f838363ffffffff168151811061169c5761169c6140c1565b602002602001015190506116ba82600f6126cf90919063ffffffff16565b506116c53082612836565b5f6116cf82610796565b90506116d9610e43565b6001600160a01b031663a9059cbb84836040518363ffffffff1660e01b81526004016117069291906142b1565b6020604051808303815f875af1158015611722573d5f5f3e3d5ffd5b505050506040513d601f19601f8201168201806040525081019061174691906140d5565b611763576040516312171d8360e31b815260040160405180910390fd5b826001600160a01b03167f44b2ff9ffcefe2052a8afdbed44a04bf3db4592ae90c6b96c818bd28573e41e88360405161179e91815260200190565b60405180910390a250505060010161164c565b50505050610e416001600555565b5f6107a1826001612415565b601954606090819061ffff81166001600160401b038111156117ef576117ef613a81565b604051908082528060200260200182016040528015611818578160200160208202803683370190505b5092508061ffff166001600160401b0381111561183757611837613a81565b604051908082528060200260200182016040528015611860578160200160208202803683370190505b5091505f5b8161ffff168161ffff1610156119465760198161ffff168154811061188c5761188c6140c1565b905f5260205f20015f9054906101000a90046001600160a01b0316848261ffff16815181106118bd576118bd6140c1565b60200260200101906001600160a01b031690816001600160a01b03168152505060185f60198361ffff16815481106118f7576118f76140c1565b5f9182526020808320909101546001600160a01b031683528201929092526040019020548351849061ffff8416908110611933576119336140c1565b6020908102919091010152600101611865565b50509091565b61195461249a565b805f0361196357610855610e43565b5f61196f600c336124c4565b91505081811015611993576040516332194fd360e21b815260040160405180910390fd5b60065f9054906101000a90046001600160a01b03166001600160a01b0316633a0dad8e6040518163ffffffff1660e01b8152600401602060405180830381865afa1580156119e3573d5f5f3e3d5ffd5b505050506040513d601f19601f82011682018060405250810190611a07919061415a565b6001600160a01b03166351edffb133846040518363ffffffff1660e01b8152600401611a349291906142b1565b5f604051808303815f87803b158015611a4b575f5ffd5b505af1158015611a5d573d5f5f3e3d5ffd5b505050505f8282611a6e91906142ca565b9050805f03611a8857611a82600c336126cf565b50611a96565b611a94600c33836124ea565b505b8260125f828254611aa791906142ca565b909155505060405183815233907f96a9a6886cdf3047a125454218a23d3961fd3a78643123b248a9d106d0ac94fd906020015b60405180910390a25050610a966001600555565b6008546001600160a01b03163314611b1957604051631a27eac360e11b815260040160405180910390fd5b611b2161249a565b5f839003611b4257604051631121aa8d60e01b815260040160405180910390fd5b601b5483905f61ffff83166001600160401b03811115611b6457611b64613a81565b604051908082528060200260200182016040528015611b8d578160200160208202803683370190505b5090505f8361ffff166001600160401b03811115611bad57611bad613a81565b604051908082528060200260200182016040528015611bd6578160200160208202803683370190505b50601c549091505f61ffff86166001600160401b03811115611bfa57611bfa613a81565b604051908082528060200260200182016040528015611c23578160200160208202803683370190505b5090505f5b8661ffff168161ffff161015611dfa575f8b8b8361ffff16818110611c4f57611c4f6140c1565b611c659260206040909202019081019150613c10565b905080838361ffff1681518110611c7e57611c7e6140c1565b60200260200101906001600160a01b031690816001600160a01b0316815250505f611cfd8d8d8561ffff16818110611cb857611cb86140c1565b905060400201602001358c8c8080601f0160208091040260200160405190810160405280939291908181526020018383808284375f9201919091525061286a92505050565b9050611d0881612877565b505f611d1682601b54612886565b9050611d2286826128b4565b6001600160a01b0384165f908152601a602052604090205490965060ff1615611d6057826040516346bdabe160e01b81526004016106c39190613c2b565b6001600160a01b0383165f908152601a60205260409020805460ff1916600117905587518390899061ffff8716908110611d9c57611d9c6140c1565b60200260200101906001600160a01b031690816001600160a01b03168152505081878561ffff1681518110611dd357611dd36140c1565b602002602001018181525050611de989836128e2565b98505060019092019150611c289050565b50611e0481612910565b5f611e8c60065f9054906101000a90046001600160a01b03166001600160a01b031663d1717c7d6040518163ffffffff1660e01b8152600401602060405180830381865afa158015611e58573d5f5f3e3d5ffd5b505050506040513d601f19601f82011682018060405250810190611e7c91906142dd565b611e8790600a6142a3565b612988565b90505f611e99878361299a565b90505f611ea685836128b4565b9050611eb181612877565b506040805160018082528183019092525f916020808301908036833701905050905081815f81518110611ee657611ee66140c1565b6020908102919091010152611f02816358df830160e01b6129c8565b505f5b60195461ffff9081169082161015611f6057601b5460185f60198461ffff1681548110611f3457611f346140c1565b5f9182526020808320909101546001600160a01b03168352820192909252604001902055600101611f05565b50611f6c60195f613a11565b5f5b8a61ffff168161ffff161015612034575f898261ffff1681518110611f9557611f956140c1565b60200260200101519050888261ffff1681518110611fb557611fb56140c1565b6020908102919091018101516001600160a01b039092165f818152601883526040808220949094556019805460018181019092557f944998273e477b495144fb8794c914197f3ccb46be2900f4698fd0ef743c96950180546001600160a01b03191684179055918152601a909252919020805460ff1916905501611f6e565b5060405133907f2d47a742b8d7df7c1fc5a9a631b206b364e6cb2722490759f63bb3ab14b132e0905f90a2505050505050505050506120736001600555565b50505050565b5f6107a1825f612468565b61208c61249a565b805f036120ae5730604051636b30633560e01b81526004016106c39190613c2b565b5f6120ba600f336124c4565b915050818110156120de576040516312ea1f4960e11b815260040160405180910390fd5b60065f9054906101000a90046001600160a01b03166001600160a01b0316633a0dad8e6040518163ffffffff1660e01b8152600401602060405180830381865afa15801561212e573d5f5f3e3d5ffd5b505050506040513d601f19601f82011682018060405250810190612152919061415a565b6001600160a01b031663be186b2033846040518363ffffffff1660e01b815260040161217f9291906142b1565b5f604051808303815f87803b158015612196575f5ffd5b505af11580156121a8573d5f5f3e3d5ffd5b505050505f82826121b991906142ca565b9050805f036121d3576121cd600f336126cf565b506121e1565b6121df600f33836124ea565b505b8260135f8282546121f291906142ca565b909155505060405183815233907f9cf37535785001dcc9767688232fcbc8698b3002d1207b50bc2afec3ff8934dc90602001611ada565b5f6107a161223683610fee565b5f612415565b601754606090819061ffff81166001600160401b0381111561226057612260613a81565b604051908082528060200260200182016040528015612289578160200160208202803683370190505b5092508061ffff166001600160401b038111156122a8576122a8613a81565b6040519080825280602002602001820160405280156122d1578160200160208202803683370190505b5091505f5b8161ffff168161ffff161015611946575f60178261ffff16815481106122fe576122fe6140c1565b905f5260205f20015f9054906101000a90046001600160a01b0316905080858361ffff1681518110612332576123326140c1565b60200260200101906001600160a01b031690816001600160a01b03168152505060165f826001600160a01b03166001600160a01b031681526020019081526020015f2054848361ffff168151811061238c5761238c6140c1565b6020908102919091010152506001016122d6565b5f6107a182610fee565b6001600160a01b039182165f90815260016020908152604080832093909416825291909152205490565b5f5f6123df836129d4565b90505f6123eb84612a9b565b90505f61144782846141ad565b610a9681612abf565b5f610ab7836001600160a01b038416612b18565b5f610ab7612422600b5490565b61242d9060016141ad565b61243561277e565b61244090600a6142a3565b60025461244d91906141ad565b859190856127f4565b6124638383836001612b5f565b505050565b5f610ab761247461277e565b61247f90600a6142a3565b60025461248c91906141ad565b600b5461244d9060016141ad565b6002600554036124bd57604051633ee5aeb560e01b815260040160405180910390fd5b6002600555565b5f8080806124db866001600160a01b038716612c31565b909450925050505b9250929050565b5f6124ff846001600160a01b03851684612c69565b949350505050565b5f61251284846123aa565b90505f19811015612073578181101561254457828183604051637dc7a0d960e11b81526004016106c393929190614139565b61207384848484035f612b5f565b6001600160a01b03831661257b575f604051634b637e8f60e11b81526004016106c39190613c2b565b6001600160a01b0382166125a4575f60405163ec442f0560e01b81526004016106c39190613c2b565b612463838383612c85565b5f5f6125ba60025490565b9050805f0361263457306001600160a01b031663313ce5676040518163ffffffff1660e01b8152600401602060405180830381865afa1580156125ff573d5f5f3e3d5ffd5b505050506040513d601f19601f8201168201806040525081019061262391906142dd565b61262e90600a6142a3565b91505090565b80306001600160a01b031663313ce5676040518163ffffffff1660e01b8152600401602060405180830381865afa158015612671573d5f5f3e3d5ffd5b505050506040513d601f19601f8201168201806040525081019061269591906142dd565b6126a090600a6142a3565b600b546126ad91906142f8565b61262e9190614323565b5f6107a182612d98565b5f8080806124db8686612da2565b5f610ab7836001600160a01b038416612dcb565b6001600160a01b03821661270c575f60405163ec442f0560e01b81526004016106c39190613c2b565b6107025f8383612c85565b5f61272183612de7565b90505f61272e8284612e83565b90508061274e5760405163cf6c44e960e01b815260040160405180910390fd5b60405184907f1af0453083661051f6e56e5c070792320652e612154bf9af8637bb1e7655b99d905f90a250505050565b5f5f612788610e43565b6001600160a01b031663313ce5676040518163ffffffff1660e01b8152600401602060405180830381865afa1580156127c3573d5f5f3e3d5ffd5b505050506040513d601f19601f820116820180604052508101906127e791906142dd565b905061262e816012614336565b5f61282161280183612f6a565b801561281c57505f84806128175761281761430f565b868809115b151590565b61282c868686612f96565b61144791906141ad565b6001600160a01b03821661285f575f604051634b637e8f60e11b81526004016106c39190613c2b565b610702825f83612c85565b5f610ab783836004613046565b5f6128828230613130565b5090565b5f82612898576128955f612988565b92505b816128a9576128a65f612988565b91505b610ab783835f61319d565b5f826128c6576128c35f61323d565b92505b816128d7576128d45f61323d565b91505b610ab783835f613258565b5f826128f4576128f15f612988565b92505b81612905576129025f612988565b91505b610ab783835f6132ae565b5f5b815181101561070257612948828281518110612930576129306140c1565b6020026020010151600961330490919063ffffffff16565b6129805781818151811061295e5761295e6140c1565b602002602001015160405163751dff9760e11b81526004016106c39190613c2b565b600101612912565b5f6107a18263ffffffff166004613318565b5f826129ac576129a95f612988565b92505b816129bd576129ba5f612988565b91505b610ab783835f613397565b5f610ab783835f6133ed565b6014545f90610100900461ffff1681036129ef57505f919050565b5f60145460ff166003811115612a0757612a07613e47565b03612a15576107a1826134f2565b5f612a1e6125af565b9050600260145460ff166003811115612a3957612a39613e47565b03612a4757610ab781613519565b600160145460ff166003811115612a6057612a60613e47565b03612a6e57610ab781613541565b600360145460ff166003811115612a8757612a87613e47565b03612a9557610ab781613569565b50919050565b6014545f906301000000900461ffff168103612ab857505f919050565b5f92915050565b5f612ac8825490565b90505f5b81811015612b1157826001015f845f018381548110612aed57612aed6140c1565b905f5260205f20015481526020019081526020015f205f9055806001019050612acc565b50505f9055565b5f612b2383836135ab565b612b5857508154600181810184555f8481526020808220909301849055845484825282860190935260409020919091556107a1565b505f6107a1565b6001600160a01b038416612b88575f60405163e602df0560e01b81526004016106c39190613c2b565b6001600160a01b038316612bb1575f604051634a1406b160e11b81526004016106c39190613c2b565b6001600160a01b038085165f908152600160209081526040808320938716835292905220829055801561207357826001600160a01b0316846001600160a01b03167f8c5be1e5ebec7d5bd14f71427d1e84f3dd0314c0f7b2291e5b200ac8c7c3b92584604051612c2391815260200190565b60405180910390a350505050565b5f818152600283016020526040812054819080612c5e57612c5285856135c2565b92505f91506124e39050565b6001925090506124e3565b5f82815260028401602052604081208290556124ff84846135cd565b6001600160a01b038316612caf578060025f828254612ca491906141ad565b90915550612d0c9050565b6001600160a01b0383165f9081526020819052604090205481811015612cee5783818360405163391434e360e21b81526004016106c393929190614139565b6001600160a01b0384165f9081526020819052604090209082900390555b6001600160a01b038216612d2857600280548290039055612d46565b6001600160a01b0382165f9081526020819052604090208054820190555b816001600160a01b0316836001600160a01b03167fddf252ad1be2c89b69c2b068fc378daa952ba7f163c4a11628f55a4df523b3ef83604051612d8b91815260200190565b60405180910390a3505050565b5f6107a1826135d8565b5f8080612daf85856135e1565b5f81815260029690960160205260409095205494959350505050565b5f8181526002830160205260408120819055610ab783836135ec565b60605f612df26135f7565b5f84815260028201602052604081205491925003612e235760405163d66ca67560e01b815260040160405180910390fd5b5f83815260028201602090815260409182902080548351818402810184019094528084529091830182828015612e7657602002820191905f5260205f20905b815481526020019060010190808311612e62575b5050505050915050919050565b5f602481612e908561361b565b90505f816001600160401b03811115612eab57612eab613a81565b6040519080825280601f01601f191660200182016040528015612ed5576020820181803683370190505b509050818360208301375f612ee86136c8565b6002810154604051632c027b1360e21b81529192506001600160a01b03169063b009ec4c90612f1f908a9086908b90600401614389565b6020604051808303815f875af1158015612f3b573d5f5f3e3d5ffd5b505050506040513d601f19601f82011682018060405250810190612f5f91906140d5565b979650505050505050565b5f6002826003811115612f7f57612f7f613e47565b612f899190614413565b60ff166001149050919050565b5f5f5f612fa386866136ec565b91509150815f03612fc757838181612fbd57612fbd61430f565b0492505050610ab7565b818411612fde57612fde6003851502601118613708565b5f848688095f868103871696879004966002600389028118808a02820302808a02820302808a02820302808a02820302808a02820302808a02909103029181900381900460010185841190960395909502919093039390930492909217029150509392505050565b5f5f6130506136c8565b600181015460405163196d0b9b60e01b81529192506001600160a01b03169063196d0b9b90613089908890339089908990600401614448565b6020604051808303815f875af11580156130a5573d5f5f3e3d5ffd5b505050506040513d601f19601f820116820180604052508101906130c99190614122565b8154604051630f8e573b60e21b81529193506001600160a01b031690633e395cec906130fb9085903390600401614480565b5f604051808303815f87803b158015613112575f5ffd5b505af1158015613124573d5f5f3e3d5ffd5b50505050509392505050565b5f6131396136c8565b8054604051635ca4b5b160e11b81529192506001600160a01b03169063b9496b629061316b9086908690600401614480565b5f604051808303815f87803b158015613182575f5ffd5b505af1158015613194573d5f5f3e3d5ffd5b50505050505050565b5f5f82156131b05750600160f81b6131b3565b505f5b5f6131bc6136c8565b60018101546040516385362ee760e01b81529192506001600160a01b0316906385362ee7906131f390899089908790600401614497565b6020604051808303815f875af115801561320f573d5f5f3e3d5ffd5b505050506040513d601f19601f820116820180604052508101906132339190614122565b9695505050505050565b5f6107a18261324c575f61324f565b60015b60ff165f613318565b5f5f821561326b5750600160f81b61326e565b505f5b5f6132776136c8565b600181015460405163d99882d560e01b81529192506001600160a01b03169063d99882d5906131f390899089908790600401614497565b5f5f82156132c15750600160f81b6132c4565b505f5b5f6132cd6136c8565b600181015460405163022f65e760e31b81529192506001600160a01b03169063117b2f38906131f390899089908790600401614497565b5f610ab7836001600160a01b0384166135ab565b5f5f6133226136c8565b6001810154604051639cd07acb60e01b81529192506001600160a01b031690639cd07acb9061335790879087906004016144b7565b6020604051808303815f875af1158015613373573d5f5f3e3d5ffd5b505050506040513d601f19601f820116820180604052508101906124ff9190614122565b5f5f82156133aa5750600160f81b6133ad565b505f5b5f6133b66136c8565b600181015460405163f77f3f1d60e01b81529192506001600160a01b03169063f77f3f1d906131f390899089908790600401614497565b5f5f6133f76135f7565b9050806001015491505f6134096136c8565b8054604051637d6e912360e11b81529192506001600160a01b03169063fadd2246906134399089906004016144cb565b5f604051808303815f87803b158015613450575f5ffd5b505af1158015613462573d5f5f3e3d5ffd5b50508354604051633263b83b60e01b81526001600160a01b039091169250633263b83b9150869061349b9087908b908b906004016144dd565b5f604051808303818588803b1580156134b2575f5ffd5b505af11580156134c4573d5f5f3e3d5ffd5b50505050506134d38387613719565b600182018054905f6134e48361450e565b919050555050509392505050565b6014545f906127109061350f908490610100900461ffff166142f8565b6107a19190614323565b6015545f90821161352b57505f919050565b6015546107a19061353c90846142ca565b613773565b5f5f61354b613823565b905080831161355c57505f92915050565b610ab761353c82856142ca565b5f5f613573613823565b90505f601460010154821161358a5760155461358c565b815b905080841161359e57505f9392505050565b6124ff61353c82866142ca565b5f9081526001919091016020526040902054151590565b5f610ab783836138f6565b5f610ab78383612b18565b5f6107a1825490565b5f610ab78383613901565b5f610ab78383613927565b7f5ea69329017273582817d320489fbd94f775580e90c092699ca6f3d12fdf7d0090565b80515f9081805b828110156136bc575f85828151811061363d5761363d6140c1565b6020026020010151601e60208110613657576136576140c1565b1a605381111561366957613669613e47565b9050600981605381111561367f5761367f613e47565b60ff16101561369a576136936020846141ad565b92506136b3565b60405163ce54a8d160e01b815260040160405180910390fd5b50600101613622565b506124ff6020826141ad565b7fed8d60e34876f751cc8b014c560745351147d9de11b9347c854e881b128ea60090565b5f805f1983850993909202808410938190039390930393915050565b634e487b715f52806020526024601cfd5b5f6137226135f7565b5f8481526002820160205260409020549091501561375357604051633f06d22b60e01b815260040160405180910390fd5b5f8381526002820160209081526040909120835161207392850190613a2c565b5f5f61377e60025490565b9050805f0361378f57505f92915050565b5f61380782306001600160a01b031663313ce5676040518163ffffffff1660e01b8152600401602060405180830381865afa1580156137d0573d5f5f3e3d5ffd5b505050506040513d601f19601f820116820180604052508101906137f491906142dd565b6137ff90600a6142a3565b869190612f96565b6014549091506124ff90610100900461ffff1682612710612f96565b5f5f60065f9054906101000a90046001600160a01b03166001600160a01b031663f3cc69936040518163ffffffff1660e01b8152600401602060405180830381865afa158015613875573d5f5f3e3d5ffd5b505050506040513d601f19601f820116820180604052508101906138999190614526565b61ffff1690505f806138b16301e13380612710614541565b63ffffffff1682601460010154856138c991906142f8565b6138d391906142f8565b6138dd9190614323565b6015549091506138ee9082906141ad565b935050505090565b5f610ab783836135ab565b5f825f018281548110613916576139166140c1565b905f5260205f200154905092915050565b5f8181526001830160205260408120548015613a01575f6139496001836142ca565b85549091505f9061395c906001906142ca565b90508082146139bb575f865f01828154811061397a5761397a6140c1565b905f5260205f200154905080875f01848154811061399a5761399a6140c1565b5f918252602080832090910192909255918252600188019052604090208390555b85548690806139cc576139cc614560565b600190038181905f5260205f20015f90559055856001015f8681526020019081526020015f205f9055600193505050506107a1565b5f9150506107a1565b5092915050565b5080545f8255905f5260205f2090810190610a969190613a6d565b828054828255905f5260205f20908101928215613a65579160200282015b82811115613a65578251825591602001919060010190613a4a565b506128829291505b5b80821115612882575f8155600101613a6e565b634e487b7160e01b5f52604160045260245ffd5b604051601f8201601f191681016001600160401b0381118282101715613abd57613abd613a81565b604052919050565b5f6001600160401b03821115613add57613add613a81565b5060051b60200190565b6001600160a01b0381168114610a96575f5ffd5b5f60208284031215613b0b575f5ffd5b81356001600160401b03811115613b20575f5ffd5b8201601f81018413613b30575f5ffd5b8035613b43613b3e82613ac5565b613a95565b8082825260208201915060208360051b850101925086831115613b64575f5ffd5b6020840193505b82841015613233578335613b7e81613ae7565b825260209384019390910190613b6b565b5f81518084528060208401602086015e5f602082860101526020601f19601f83011685010191505092915050565b602081525f610ab76020830184613b8f565b5f60208284031215613bdf575f5ffd5b5035919050565b5f5f60408385031215613bf7575f5ffd5b8235613c0281613ae7565b946020939093013593505050565b5f60208284031215613c20575f5ffd5b8135610ab781613ae7565b6001600160a01b0391909116815260200190565b5f5f5f60608486031215613c51575f5ffd5b8335613c5c81613ae7565b92506020840135613c6c81613ae7565b929592945050506040919091013590565b60ff81168114610a96575f5ffd5b61ffff81168114610a96575f5ffd5b5f5f5f60608486031215613cac575f5ffd5b8335613cb781613c7d565b92506020840135613cc781613c8b565b91506040840135613cd781613c8b565b809150509250925092565b8015158114610a96575f5ffd5b5f5f5f60608486031215613d01575f5ffd5b833592506020840135613d1381613ce2565b915060408401356001600160401b03811115613d2d575f5ffd5b8401601f81018613613d3d575f5ffd5b8035613d4b613b3e82613ac5565b8082825260208201915060208360051b850101925088831115613d6c575f5ffd5b602084015b83811015613e0a5780356001600160401b03811115613d8e575f5ffd5b8501603f81018b13613d9e575f5ffd5b60208101356001600160401b03811115613dba57613dba613a81565b613dcd601f8201601f1916602001613a95565b8181526040838301018d1015613de1575f5ffd5b816040840160208301375f60208383010152808652505050602083019250602081019050613d71565b50809450505050509250925092565b5f5f60408385031215613e2a575f5ffd5b823591506020830135613e3c81613ae7565b809150509250929050565b634e487b7160e01b5f52602160045260245ffd5b6080810160048610613e6f57613e6f613e47565b94815261ffff93841660208201529190921660408201526060015290565b5f5f83601f840112613e9d575f5ffd5b5081356001600160401b03811115613eb3575f5ffd5b6020830191508360208260061b85010111156124e3575f5ffd5b5f5f5f60408486031215613edf575f5ffd5b83356001600160401b03811115613ef4575f5ffd5b613f0086828701613e8d565b909790965060209590950135949350505050565b5f5f5f60608486031215613f26575f5ffd5b8335925060208401359150604084013560048110613cd7575f5ffd5b5f5f5f60608486031215613f54575f5ffd5b833592506020840135613f6681613ae7565b91506040840135613cd781613ae7565b604080825283519082018190525f9060208501906060840190835b81811015613fb85783516001600160a01b0316835260209384019390920191600101613f91565b5050838103602080860191909152855180835291810192508501905f5b81811015613ff3578251845260209384019390920191600101613fd5565b50919695505050505050565b5f5f5f5f60408587031215614012575f5ffd5b84356001600160401b03811115614027575f5ffd5b61403387828801613e8d565b90955093505060208501356001600160401b03811115614051575f5ffd5b8501601f81018713614061575f5ffd5b80356001600160401b03811115614076575f5ffd5b876020828401011115614087575f5ffd5b949793965060200194505050565b5f5f604083850312156140a6575f5ffd5b82356140b181613ae7565b91506020830135613e3c81613ae7565b634e487b7160e01b5f52603260045260245ffd5b5f602082840312156140e5575f5ffd5b8151610ab781613ce2565b600181811c9082168061410457607f821691505b602082108103612a9557634e487b7160e01b5f52602260045260245ffd5b5f60208284031215614132575f5ffd5b5051919050565b6001600160a01b039390931683526020830191909152604082015260600190565b5f6020828403121561416a575f5ffd5b8151610ab781613ae7565b6001600160a01b039384168152919092166020820152604081019190915260600190565b634e487b7160e01b5f52601160045260245ffd5b808201808211156107a1576107a1614199565b6001815b60018411156141fb578085048111156141df576141df614199565b60018416156141ed57908102905b60019390931c9280026141c4565b935093915050565b5f82614211575060016107a1565b8161421d57505f6107a1565b8160018114614233576002811461423d57614259565b60019150506107a1565b60ff84111561424e5761424e614199565b50506001821b6107a1565b5060208310610133831016604e8410600b841016171561427c575081810a6107a1565b6142885f1984846141c0565b805f190482111561429b5761429b614199565b029392505050565b5f610ab760ff841683614203565b6001600160a01b03929092168252602082015260400190565b818103818111156107a1576107a1614199565b5f602082840312156142ed575f5ffd5b8151610ab781613c7d565b80820281158282048414176107a1576107a1614199565b634e487b7160e01b5f52601260045260245ffd5b5f826143315761433161430f565b500490565b60ff82811682821603908111156107a1576107a1614199565b5f8151808452602084019350602083015f5b8281101561437f578151865260209586019590910190600101614361565b5093949350505050565b606081525f61439b606083018661434f565b82810360208401526143ad8186613b8f565b9050828103604084015280845180835260208301915060208160051b840101602087015f5b8381101561440457601f198684030185526143ee838351613b8f565b60209586019590935091909101906001016143d2565b50909998505050505050505050565b5f60ff8316806144255761442561430f565b8060ff84160691505092915050565b6054811061444457614444613e47565b9052565b8481526001600160a01b03841660208201526080604082018190525f9061447190830185613b8f565b90506114476060830184614434565b9182526001600160a01b0316602082015260400190565b92835260208301919091526001600160f81b031916604082015260600190565b82815260408101610ab76020830184614434565b602081525f610ab7602083018461434f565b838152606060208201525f6144f5606083018561434f565b905063ffffffff60e01b83166040830152949350505050565b5f6001820161451f5761451f614199565b5060010190565b5f60208284031215614536575f5ffd5b8151610ab781613c8b565b63ffffffff8181168382160290811690818114613a0a57613a0a614199565b634e487b7160e01b5f52603160045260245ffdfea26469706673582212205c0a7e71dd6bac85b93e1e1765938902dcc39247258967151f15a2ef178cf0eb64736f6c634300081c0033ed8d60e34876f751cc8b014c560745351147d9de11b9347c854e881b128ea600ed8d60e34876f751cc8b014c560745351147d9de11b9347c854e881b128ea601",
  "linkReferences": {},
  "deployedLinkReferences": {}
}