{
  "_format": "hh-sol-artifact-1",
  "contractName": "OrionEncryptedVault",
  "sourceName": "contracts/vaults/OrionEncryptedVault.sol",
  "abi": [
    {
      "inputs": [
        {
          "internalType": "address",
          "name": "curatorAddress",
          "type": "address"
        },
        {
          "internalType": "contract IOrionConfig",
          "name": "configAddress",
          "type": "address"
        },
        {
          "internalType": "string",
          "name": "name",
          "type": "string"
        },
        {
          "internalType": "string",
          "name": "symbol",
          "type": "string"
        }
      ],
      "stateMutability": "nonpayable",
      "type": "constructor"
    },
    {
      "inputs": [
        {
          "internalType": "address",
          "name": "asset",
          "type": "address"
        }
      ],
      "name": "AmountMustBeGreaterThanZero",
      "type": "error"
    },
    {
      "inputs": [
        {
          "internalType": "address",
          "name": "spender",
          "type": "address"
        },
        {
          "internalType": "uint256",
          "name": "allowance",
          "type": "uint256"
        },
        {
          "internalType": "uint256",
          "name": "needed",
          "type": "uint256"
        }
      ],
      "name": "ERC20InsufficientAllowance",
      "type": "error"
    },
    {
      "inputs": [
        {
          "internalType": "address",
          "name": "sender",
          "type": "address"
        },
        {
          "internalType": "uint256",
          "name": "balance",
          "type": "uint256"
        },
        {
          "internalType": "uint256",
          "name": "needed",
          "type": "uint256"
        }
      ],
      "name": "ERC20InsufficientBalance",
      "type": "error"
    },
    {
      "inputs": [
        {
          "internalType": "address",
          "name": "approver",
          "type": "address"
        }
      ],
      "name": "ERC20InvalidApprover",
      "type": "error"
    },
    {
      "inputs": [
        {
          "internalType": "address",
          "name": "receiver",
          "type": "address"
        }
      ],
      "name": "ERC20InvalidReceiver",
      "type": "error"
    },
    {
      "inputs": [
        {
          "internalType": "address",
          "name": "sender",
          "type": "address"
        }
      ],
      "name": "ERC20InvalidSender",
      "type": "error"
    },
    {
      "inputs": [
        {
          "internalType": "address",
          "name": "spender",
          "type": "address"
        }
      ],
      "name": "ERC20InvalidSpender",
      "type": "error"
    },
    {
      "inputs": [
        {
          "internalType": "address",
          "name": "receiver",
          "type": "address"
        },
        {
          "internalType": "uint256",
          "name": "assets",
          "type": "uint256"
        },
        {
          "internalType": "uint256",
          "name": "max",
          "type": "uint256"
        }
      ],
      "name": "ERC4626ExceededMaxDeposit",
      "type": "error"
    },
    {
      "inputs": [
        {
          "internalType": "address",
          "name": "receiver",
          "type": "address"
        },
        {
          "internalType": "uint256",
          "name": "shares",
          "type": "uint256"
        },
        {
          "internalType": "uint256",
          "name": "max",
          "type": "uint256"
        }
      ],
      "name": "ERC4626ExceededMaxMint",
      "type": "error"
    },
    {
      "inputs": [
        {
          "internalType": "address",
          "name": "owner",
          "type": "address"
        },
        {
          "internalType": "uint256",
          "name": "shares",
          "type": "uint256"
        },
        {
          "internalType": "uint256",
          "name": "max",
          "type": "uint256"
        }
      ],
      "name": "ERC4626ExceededMaxRedeem",
      "type": "error"
    },
    {
      "inputs": [
        {
          "internalType": "address",
          "name": "owner",
          "type": "address"
        },
        {
          "internalType": "uint256",
          "name": "assets",
          "type": "uint256"
        },
        {
          "internalType": "uint256",
          "name": "max",
          "type": "uint256"
        }
      ],
      "name": "ERC4626ExceededMaxWithdraw",
      "type": "error"
    },
    {
      "inputs": [
        {
          "internalType": "address",
          "name": "sender",
          "type": "address"
        },
        {
          "internalType": "uint256",
          "name": "balance",
          "type": "uint256"
        },
        {
          "internalType": "uint256",
          "name": "amount",
          "type": "uint256"
        }
      ],
      "name": "InsufficientFunds",
      "type": "error"
    },
    {
      "inputs": [],
      "name": "InvalidAddress",
      "type": "error"
    },
    {
      "inputs": [],
      "name": "InvalidUnderlyingDecimals",
      "type": "error"
    },
    {
      "inputs": [],
      "name": "NotEnoughDepositRequest",
      "type": "error"
    },
    {
      "inputs": [],
      "name": "NotEnoughWithdrawRequest",
      "type": "error"
    },
    {
      "inputs": [],
      "name": "OrderIntentCannotBeEmpty",
      "type": "error"
    },
    {
      "inputs": [
        {
          "internalType": "address",
          "name": "owner",
          "type": "address"
        }
      ],
      "name": "OwnableInvalidOwner",
      "type": "error"
    },
    {
      "inputs": [
        {
          "internalType": "address",
          "name": "account",
          "type": "address"
        }
      ],
      "name": "OwnableUnauthorizedAccount",
      "type": "error"
    },
    {
      "inputs": [],
      "name": "ReentrancyGuardReentrantCall",
      "type": "error"
    },
    {
      "inputs": [],
      "name": "SynchronousCallDisabled",
      "type": "error"
    },
    {
      "inputs": [
        {
          "internalType": "address",
          "name": "token",
          "type": "address"
        }
      ],
      "name": "TokenAlreadyInOrder",
      "type": "error"
    },
    {
      "inputs": [
        {
          "internalType": "address",
          "name": "token",
          "type": "address"
        }
      ],
      "name": "TokenNotWhitelisted",
      "type": "error"
    },
    {
      "inputs": [],
      "name": "TransferFailed",
      "type": "error"
    },
    {
      "inputs": [],
      "name": "UnauthorizedAccess",
      "type": "error"
    },
    {
      "anonymous": false,
      "inputs": [
        {
          "indexed": true,
          "internalType": "address",
          "name": "owner",
          "type": "address"
        },
        {
          "indexed": true,
          "internalType": "address",
          "name": "spender",
          "type": "address"
        },
        {
          "indexed": false,
          "internalType": "uint256",
          "name": "value",
          "type": "uint256"
        }
      ],
      "name": "Approval",
      "type": "event"
    },
    {
      "anonymous": false,
      "inputs": [
        {
          "indexed": true,
          "internalType": "address",
          "name": "sender",
          "type": "address"
        },
        {
          "indexed": true,
          "internalType": "address",
          "name": "owner",
          "type": "address"
        },
        {
          "indexed": false,
          "internalType": "uint256",
          "name": "assets",
          "type": "uint256"
        },
        {
          "indexed": false,
          "internalType": "uint256",
          "name": "shares",
          "type": "uint256"
        }
      ],
      "name": "Deposit",
      "type": "event"
    },
    {
      "anonymous": false,
      "inputs": [
        {
          "indexed": true,
          "internalType": "address",
          "name": "user",
          "type": "address"
        },
        {
          "indexed": false,
          "internalType": "uint256",
          "name": "amount",
          "type": "uint256"
        }
      ],
      "name": "DepositProcessed",
      "type": "event"
    },
    {
      "anonymous": false,
      "inputs": [
        {
          "indexed": true,
          "internalType": "address",
          "name": "user",
          "type": "address"
        },
        {
          "indexed": false,
          "internalType": "uint256",
          "name": "amount",
          "type": "uint256"
        }
      ],
      "name": "DepositRequestCancelled",
      "type": "event"
    },
    {
      "anonymous": false,
      "inputs": [
        {
          "indexed": true,
          "internalType": "address",
          "name": "user",
          "type": "address"
        },
        {
          "indexed": false,
          "internalType": "uint256",
          "name": "amount",
          "type": "uint256"
        }
      ],
      "name": "DepositRequested",
      "type": "event"
    },
    {
      "anonymous": false,
      "inputs": [
        {
          "indexed": true,
          "internalType": "address",
          "name": "curator",
          "type": "address"
        }
      ],
      "name": "OrderSubmitted",
      "type": "event"
    },
    {
      "anonymous": false,
      "inputs": [
        {
          "indexed": true,
          "internalType": "address",
          "name": "previousOwner",
          "type": "address"
        },
        {
          "indexed": true,
          "internalType": "address",
          "name": "newOwner",
          "type": "address"
        }
      ],
      "name": "OwnershipTransferred",
      "type": "event"
    },
    {
      "anonymous": false,
      "inputs": [
        {
          "indexed": true,
          "internalType": "address",
          "name": "from",
          "type": "address"
        },
        {
          "indexed": true,
          "internalType": "address",
          "name": "to",
          "type": "address"
        },
        {
          "indexed": false,
          "internalType": "uint256",
          "name": "value",
          "type": "uint256"
        }
      ],
      "name": "Transfer",
      "type": "event"
    },
    {
      "anonymous": false,
      "inputs": [
        {
          "indexed": false,
          "internalType": "uint256",
          "name": "newTotalAssets",
          "type": "uint256"
        }
      ],
      "name": "VaultStateUpdated",
      "type": "event"
    },
    {
      "anonymous": false,
      "inputs": [
        {
          "indexed": true,
          "internalType": "address",
          "name": "sender",
          "type": "address"
        },
        {
          "indexed": true,
          "internalType": "address",
          "name": "receiver",
          "type": "address"
        },
        {
          "indexed": true,
          "internalType": "address",
          "name": "owner",
          "type": "address"
        },
        {
          "indexed": false,
          "internalType": "uint256",
          "name": "assets",
          "type": "uint256"
        },
        {
          "indexed": false,
          "internalType": "uint256",
          "name": "shares",
          "type": "uint256"
        }
      ],
      "name": "Withdraw",
      "type": "event"
    },
    {
      "anonymous": false,
      "inputs": [
        {
          "indexed": true,
          "internalType": "address",
          "name": "user",
          "type": "address"
        },
        {
          "indexed": false,
          "internalType": "uint256",
          "name": "shares",
          "type": "uint256"
        }
      ],
      "name": "WithdrawProcessed",
      "type": "event"
    },
    {
      "anonymous": false,
      "inputs": [
        {
          "indexed": true,
          "internalType": "address",
          "name": "user",
          "type": "address"
        },
        {
          "indexed": false,
          "internalType": "uint256",
          "name": "shares",
          "type": "uint256"
        }
      ],
      "name": "WithdrawRequestCancelled",
      "type": "event"
    },
    {
      "anonymous": false,
      "inputs": [
        {
          "indexed": true,
          "internalType": "address",
          "name": "user",
          "type": "address"
        },
        {
          "indexed": false,
          "internalType": "uint256",
          "name": "shares",
          "type": "uint256"
        }
      ],
      "name": "WithdrawRequested",
      "type": "event"
    },
    {
      "inputs": [
        {
          "internalType": "address",
          "name": "owner",
          "type": "address"
        },
        {
          "internalType": "address",
          "name": "spender",
          "type": "address"
        }
      ],
      "name": "allowance",
      "outputs": [
        {
          "internalType": "uint256",
          "name": "",
          "type": "uint256"
        }
      ],
      "stateMutability": "view",
      "type": "function"
    },
    {
      "inputs": [
        {
          "internalType": "address",
          "name": "spender",
          "type": "address"
        },
        {
          "internalType": "uint256",
          "name": "value",
          "type": "uint256"
        }
      ],
      "name": "approve",
      "outputs": [
        {
          "internalType": "bool",
          "name": "",
          "type": "bool"
        }
      ],
      "stateMutability": "nonpayable",
      "type": "function"
    },
    {
      "inputs": [],
      "name": "asset",
      "outputs": [
        {
          "internalType": "address",
          "name": "",
          "type": "address"
        }
      ],
      "stateMutability": "view",
      "type": "function"
    },
    {
      "inputs": [
        {
          "internalType": "address",
          "name": "account",
          "type": "address"
        }
      ],
      "name": "balanceOf",
      "outputs": [
        {
          "internalType": "uint256",
          "name": "",
          "type": "uint256"
        }
      ],
      "stateMutability": "view",
      "type": "function"
    },
    {
      "inputs": [
        {
          "internalType": "uint256",
          "name": "amount",
          "type": "uint256"
        }
      ],
      "name": "cancelDepositRequest",
      "outputs": [],
      "stateMutability": "nonpayable",
      "type": "function"
    },
    {
      "inputs": [
        {
          "internalType": "uint256",
          "name": "shares",
          "type": "uint256"
        }
      ],
      "name": "cancelWithdrawRequest",
      "outputs": [],
      "stateMutability": "nonpayable",
      "type": "function"
    },
    {
      "inputs": [],
      "name": "config",
      "outputs": [
        {
          "internalType": "contract IOrionConfig",
          "name": "",
          "type": "address"
        }
      ],
      "stateMutability": "view",
      "type": "function"
    },
    {
      "inputs": [
        {
          "internalType": "uint256",
          "name": "shares",
          "type": "uint256"
        }
      ],
      "name": "convertToAssets",
      "outputs": [
        {
          "internalType": "uint256",
          "name": "",
          "type": "uint256"
        }
      ],
      "stateMutability": "view",
      "type": "function"
    },
    {
      "inputs": [
        {
          "internalType": "uint256",
          "name": "shares",
          "type": "uint256"
        },
        {
          "internalType": "uint256",
          "name": "pointInTimeTotalAssets",
          "type": "uint256"
        },
        {
          "internalType": "enum Math.Rounding",
          "name": "rounding",
          "type": "uint8"
        }
      ],
      "name": "convertToAssetsWithPITTotalAssets",
      "outputs": [
        {
          "internalType": "uint256",
          "name": "",
          "type": "uint256"
        }
      ],
      "stateMutability": "view",
      "type": "function"
    },
    {
      "inputs": [
        {
          "internalType": "uint256",
          "name": "assets",
          "type": "uint256"
        }
      ],
      "name": "convertToShares",
      "outputs": [
        {
          "internalType": "uint256",
          "name": "",
          "type": "uint256"
        }
      ],
      "stateMutability": "view",
      "type": "function"
    },
    {
      "inputs": [],
      "name": "curator",
      "outputs": [
        {
          "internalType": "address",
          "name": "",
          "type": "address"
        }
      ],
      "stateMutability": "view",
      "type": "function"
    },
    {
      "inputs": [],
      "name": "decimals",
      "outputs": [
        {
          "internalType": "uint8",
          "name": "",
          "type": "uint8"
        }
      ],
      "stateMutability": "view",
      "type": "function"
    },
    {
      "inputs": [],
      "name": "deployer",
      "outputs": [
        {
          "internalType": "address",
          "name": "",
          "type": "address"
        }
      ],
      "stateMutability": "view",
      "type": "function"
    },
    {
      "inputs": [
        {
          "internalType": "uint256",
          "name": "",
          "type": "uint256"
        },
        {
          "internalType": "address",
          "name": "",
          "type": "address"
        }
      ],
      "name": "deposit",
      "outputs": [
        {
          "internalType": "uint256",
          "name": "",
          "type": "uint256"
        }
      ],
      "stateMutability": "pure",
      "type": "function"
    },
    {
      "inputs": [],
      "name": "getIntent",
      "outputs": [
        {
          "internalType": "address[]",
          "name": "tokens",
          "type": "address[]"
        },
        {
          "internalType": "euint32[]",
          "name": "weights",
          "type": "bytes32[]"
        }
      ],
      "stateMutability": "view",
      "type": "function"
    },
    {
      "inputs": [],
      "name": "getPendingDeposits",
      "outputs": [
        {
          "internalType": "uint256",
          "name": "",
          "type": "uint256"
        }
      ],
      "stateMutability": "view",
      "type": "function"
    },
    {
      "inputs": [],
      "name": "getPendingWithdrawals",
      "outputs": [
        {
          "internalType": "uint256",
          "name": "",
          "type": "uint256"
        }
      ],
      "stateMutability": "view",
      "type": "function"
    },
    {
      "inputs": [],
      "name": "getPortfolio",
      "outputs": [
        {
          "internalType": "address[]",
          "name": "tokens",
          "type": "address[]"
        },
        {
          "internalType": "euint32[]",
          "name": "sharesPerAsset",
          "type": "bytes32[]"
        }
      ],
      "stateMutability": "view",
      "type": "function"
    },
    {
      "inputs": [
        {
          "internalType": "address",
          "name": "",
          "type": "address"
        }
      ],
      "name": "maxDeposit",
      "outputs": [
        {
          "internalType": "uint256",
          "name": "",
          "type": "uint256"
        }
      ],
      "stateMutability": "view",
      "type": "function"
    },
    {
      "inputs": [
        {
          "internalType": "address",
          "name": "",
          "type": "address"
        }
      ],
      "name": "maxMint",
      "outputs": [
        {
          "internalType": "uint256",
          "name": "",
          "type": "uint256"
        }
      ],
      "stateMutability": "view",
      "type": "function"
    },
    {
      "inputs": [
        {
          "internalType": "address",
          "name": "owner",
          "type": "address"
        }
      ],
      "name": "maxRedeem",
      "outputs": [
        {
          "internalType": "uint256",
          "name": "",
          "type": "uint256"
        }
      ],
      "stateMutability": "view",
      "type": "function"
    },
    {
      "inputs": [
        {
          "internalType": "address",
          "name": "owner",
          "type": "address"
        }
      ],
      "name": "maxWithdraw",
      "outputs": [
        {
          "internalType": "uint256",
          "name": "",
          "type": "uint256"
        }
      ],
      "stateMutability": "view",
      "type": "function"
    },
    {
      "inputs": [
        {
          "internalType": "uint256",
          "name": "",
          "type": "uint256"
        },
        {
          "internalType": "address",
          "name": "",
          "type": "address"
        }
      ],
      "name": "mint",
      "outputs": [
        {
          "internalType": "uint256",
          "name": "",
          "type": "uint256"
        }
      ],
      "stateMutability": "pure",
      "type": "function"
    },
    {
      "inputs": [],
      "name": "name",
      "outputs": [
        {
          "internalType": "string",
          "name": "",
          "type": "string"
        }
      ],
      "stateMutability": "view",
      "type": "function"
    },
    {
      "inputs": [],
      "name": "owner",
      "outputs": [
        {
          "internalType": "address",
          "name": "",
          "type": "address"
        }
      ],
      "stateMutability": "view",
      "type": "function"
    },
    {
      "inputs": [
        {
          "internalType": "uint256",
          "name": "assets",
          "type": "uint256"
        }
      ],
      "name": "previewDeposit",
      "outputs": [
        {
          "internalType": "uint256",
          "name": "",
          "type": "uint256"
        }
      ],
      "stateMutability": "view",
      "type": "function"
    },
    {
      "inputs": [
        {
          "internalType": "uint256",
          "name": "shares",
          "type": "uint256"
        }
      ],
      "name": "previewMint",
      "outputs": [
        {
          "internalType": "uint256",
          "name": "",
          "type": "uint256"
        }
      ],
      "stateMutability": "view",
      "type": "function"
    },
    {
      "inputs": [
        {
          "internalType": "uint256",
          "name": "shares",
          "type": "uint256"
        }
      ],
      "name": "previewRedeem",
      "outputs": [
        {
          "internalType": "uint256",
          "name": "",
          "type": "uint256"
        }
      ],
      "stateMutability": "view",
      "type": "function"
    },
    {
      "inputs": [
        {
          "internalType": "uint256",
          "name": "assets",
          "type": "uint256"
        }
      ],
      "name": "previewWithdraw",
      "outputs": [
        {
          "internalType": "uint256",
          "name": "",
          "type": "uint256"
        }
      ],
      "stateMutability": "view",
      "type": "function"
    },
    {
      "inputs": [],
      "name": "processDepositRequests",
      "outputs": [],
      "stateMutability": "nonpayable",
      "type": "function"
    },
    {
      "inputs": [],
      "name": "processWithdrawRequests",
      "outputs": [],
      "stateMutability": "nonpayable",
      "type": "function"
    },
    {
      "inputs": [
        {
          "internalType": "uint256",
          "name": "",
          "type": "uint256"
        },
        {
          "internalType": "address",
          "name": "",
          "type": "address"
        },
        {
          "internalType": "address",
          "name": "",
          "type": "address"
        }
      ],
      "name": "redeem",
      "outputs": [
        {
          "internalType": "uint256",
          "name": "",
          "type": "uint256"
        }
      ],
      "stateMutability": "pure",
      "type": "function"
    },
    {
      "inputs": [],
      "name": "renounceOwnership",
      "outputs": [],
      "stateMutability": "nonpayable",
      "type": "function"
    },
    {
      "inputs": [
        {
          "internalType": "uint256",
          "name": "amount",
          "type": "uint256"
        }
      ],
      "name": "requestDeposit",
      "outputs": [],
      "stateMutability": "nonpayable",
      "type": "function"
    },
    {
      "inputs": [
        {
          "internalType": "uint256",
          "name": "shares",
          "type": "uint256"
        }
      ],
      "name": "requestWithdraw",
      "outputs": [],
      "stateMutability": "nonpayable",
      "type": "function"
    },
    {
      "inputs": [
        {
          "components": [
            {
              "internalType": "address",
              "name": "token",
              "type": "address"
            },
            {
              "internalType": "euint32",
              "name": "value",
              "type": "bytes32"
            }
          ],
          "internalType": "struct IOrionEncryptedVault.EncryptedPosition[]",
          "name": "order",
          "type": "tuple[]"
        }
      ],
      "name": "submitIntent",
      "outputs": [],
      "stateMutability": "nonpayable",
      "type": "function"
    },
    {
      "inputs": [],
      "name": "symbol",
      "outputs": [
        {
          "internalType": "string",
          "name": "",
          "type": "string"
        }
      ],
      "stateMutability": "view",
      "type": "function"
    },
    {
      "inputs": [],
      "name": "totalAssets",
      "outputs": [
        {
          "internalType": "uint256",
          "name": "",
          "type": "uint256"
        }
      ],
      "stateMutability": "view",
      "type": "function"
    },
    {
      "inputs": [],
      "name": "totalSupply",
      "outputs": [
        {
          "internalType": "uint256",
          "name": "",
          "type": "uint256"
        }
      ],
      "stateMutability": "view",
      "type": "function"
    },
    {
      "inputs": [
        {
          "internalType": "address",
          "name": "to",
          "type": "address"
        },
        {
          "internalType": "uint256",
          "name": "value",
          "type": "uint256"
        }
      ],
      "name": "transfer",
      "outputs": [
        {
          "internalType": "bool",
          "name": "",
          "type": "bool"
        }
      ],
      "stateMutability": "nonpayable",
      "type": "function"
    },
    {
      "inputs": [
        {
          "internalType": "address",
          "name": "from",
          "type": "address"
        },
        {
          "internalType": "address",
          "name": "to",
          "type": "address"
        },
        {
          "internalType": "uint256",
          "name": "value",
          "type": "uint256"
        }
      ],
      "name": "transferFrom",
      "outputs": [
        {
          "internalType": "bool",
          "name": "",
          "type": "bool"
        }
      ],
      "stateMutability": "nonpayable",
      "type": "function"
    },
    {
      "inputs": [
        {
          "internalType": "address",
          "name": "newOwner",
          "type": "address"
        }
      ],
      "name": "transferOwnership",
      "outputs": [],
      "stateMutability": "nonpayable",
      "type": "function"
    },
    {
      "inputs": [
        {
          "components": [
            {
              "internalType": "address",
              "name": "token",
              "type": "address"
            },
            {
              "internalType": "euint32",
              "name": "value",
              "type": "bytes32"
            }
          ],
          "internalType": "struct IOrionEncryptedVault.EncryptedPosition[]",
          "name": "portfolio",
          "type": "tuple[]"
        },
        {
          "internalType": "uint256",
          "name": "newTotalAssets",
          "type": "uint256"
        }
      ],
      "name": "updateVaultState",
      "outputs": [],
      "stateMutability": "nonpayable",
      "type": "function"
    },
    {
      "inputs": [
        {
          "internalType": "uint256",
          "name": "",
          "type": "uint256"
        },
        {
          "internalType": "address",
          "name": "",
          "type": "address"
        },
        {
          "internalType": "address",
          "name": "",
          "type": "address"
        }
      ],
      "name": "withdraw",
      "outputs": [
        {
          "internalType": "uint256",
          "name": "",
          "type": "uint256"
        }
      ],
      "stateMutability": "pure",
      "type": "function"
    }
  ],
  "bytecode": "0x60c060405234801561000f575f5ffd5b5060405161373a38038061373a83398101604081905261002e9161058a565b8383838383836001600160a01b0316637158da7c6040518163ffffffff1660e01b8152600401602060405180830381865afa15801561006f573d5f5f3e3d5ffd5b505050506040513d601f19601f820116820180604052508101906100939190610615565b838360036100a183826106bb565b5060046100ae82826106bb565b5050505f5f6100c2836102da60201b60201c565b91509150816100d25760126100d4565b805b60ff1660a05250506001600160a01b039081166080526001600555811661011457604051631e4fbdf760e01b81525f600482015260240160405180910390fd5b61011d816103b0565b506001600160a01b0384166101455760405163e6c4247b60e01b815260040160405180910390fd5b6001600160a01b03831661016c5760405163e6c4247b60e01b815260040160405180910390fd5b60098054336001600160a01b0319918216179091556008805482166001600160a01b0387811691909117909155600780549092169085169081179091555f600a8190556011819055601281905560408051631c56369f60e21b81529051919291637158da7c916004808201926020929091908290030181865afa1580156101f5573d5f5f3e3d5ffd5b505050506040513d601f19601f820116820180604052508101906102199190610615565b6001600160a01b031663313ce5676040518163ffffffff1660e01b8152600401602060405180830381865afa158015610254573d5f5f3e3d5ffd5b505050506040513d601f19601f820116820180604052508101906102789190610775565b905060128160ff16111561029f57604051631c03248960e11b815260040160405180910390fd5b5f6102ab8260126107a9565b90506102b881600a6108a5565b601355506102cd94505f935050610401915050565b6019555061091092505050565b60408051600481526024810182526020810180516001600160e01b031663313ce56760e01b17905290515f918291829182916001600160a01b03871691610320916108b3565b5f60405180830381855afa9150503d805f8114610358576040519150601f19603f3d011682016040523d82523d5f602084013e61035d565b606091505b509150915081801561037157506020815110155b156103a4575f8180602001905181019061038b91906108c9565b905060ff81116103a2576001969095509350505050565b505b505f9485945092505050565b600680546001600160a01b038381166001600160a01b0319831681179093556040519116919082907f8be0079c531659141344cd1fd0a4f28419497f9722a3daafe3b4186f6b6457e0905f90a35050565b5f61041363ffffffff83166004610419565b92915050565b7fed8d60e34876f751cc8b014c560745351147d9de11b9347c854e881b128ea60154604051639cd07acb60e01b81525f917fed8d60e34876f751cc8b014c560745351147d9de11b9347c854e881b128ea600916001600160a01b0390911690639cd07acb9061048e90879087906004016108e0565b6020604051808303815f875af11580156104aa573d5f5f3e3d5ffd5b505050506040513d601f19601f820116820180604052508101906104ce91906108c9565b949350505050565b6001600160a01b03811681146104ea575f5ffd5b50565b634e487b7160e01b5f52604160045260245ffd5b5f82601f830112610510575f5ffd5b81516001600160401b03811115610529576105296104ed565b604051601f8201601f19908116603f011681016001600160401b0381118282101715610557576105576104ed565b60405281815283820160200185101561056e575f5ffd5b8160208501602083015e5f918101602001919091529392505050565b5f5f5f5f6080858703121561059d575f5ffd5b84516105a8816104d6565b60208601519094506105b9816104d6565b60408601519093506001600160401b038111156105d4575f5ffd5b6105e087828801610501565b606087015190935090506001600160401b038111156105fd575f5ffd5b61060987828801610501565b91505092959194509250565b5f60208284031215610625575f5ffd5b8151610630816104d6565b9392505050565b600181811c9082168061064b57607f821691505b60208210810361066957634e487b7160e01b5f52602260045260245ffd5b50919050565b601f8211156106b657805f5260205f20601f840160051c810160208510156106945750805b601f840160051c820191505b818110156106b3575f81556001016106a0565b50505b505050565b81516001600160401b038111156106d4576106d46104ed565b6106e8816106e28454610637565b8461066f565b6020601f82116001811461071a575f83156107035750848201515b5f19600385901b1c1916600184901b1784556106b3565b5f84815260208120601f198516915b828110156107495787850151825560209485019460019092019101610729565b508482101561076657868401515f19600387901b60f8161c191681555b50505050600190811b01905550565b5f60208284031215610785575f5ffd5b815160ff81168114610630575f5ffd5b634e487b7160e01b5f52601160045260245ffd5b60ff828116828216039081111561041357610413610795565b6001815b60018411156107fd578085048111156107e1576107e1610795565b60018416156107ef57908102905b60019390931c9280026107c6565b935093915050565b5f8261081357506001610413565b8161081f57505f610413565b8160018114610835576002811461083f5761085b565b6001915050610413565b60ff84111561085057610850610795565b50506001821b610413565b5060208310610133831016604e8410600b841016171561087e575081810a610413565b61088a5f1984846107c2565b805f190482111561089d5761089d610795565b029392505050565b5f61063060ff841683610805565b5f82518060208501845e5f920191825250919050565b5f602082840312156108d9575f5ffd5b5051919050565b828152604081016054831061090357634e487b7160e01b5f52602160045260245ffd5b8260208301529392505050565b60805160a051612e096109315f395f610c7a01525f610f250152612e095ff3fe608060405234801561000f575f5ffd5b5060043610610202575f3560e01c806301e1d1141461020657806306fdde031461021d57806307a2d13a146102325780630838830514610245578063095ea7b31461025a5780630a28a4771461027d5780630d1e66671461029057806318160ddd146102a357806323b872dd146102ab578063313ce567146102be57806333fdc592146102d857806338d52e0f146102e0578063402d267d146102f55780634cdad506146102325780636e553f651461030957806370a082311461031c578063715018a61461032f578063745400c91461033757806379502c551461034a5780638da5cb5b1461035d57806394bf804d1461030957806395d89b41146103655780639adb29811461036d578063a68a526714610380578063a9059cbb14610393578063aa9d3a60146103a6578063b3d7f6b9146103ae578063b460af94146103c1578063b6eba653146103cf578063ba087652146103c1578063c0b568e1146103e5578063c37fc8a8146103f8578063c63d75b6146102f5578063c6e6f59214610400578063cce4705b14610413578063ce96cb7714610426578063d1699c2614610439578063d3d0345814610441578063d5f3948814610449578063d905777e1461045c578063dd62ed3e1461046f578063e66f53b714610482578063ef8b30f714610400578063f2fde38b14610495575b5f5ffd5b600a545b6040519081526020015b60405180910390f35b6102256104a8565b604051610214919061279b565b61020a6102403660046127d0565b610538565b610258610253366004612827565b610549565b005b61026d610268366004612879565b6109d0565b6040519015158152602001610214565b61020a61028b3660046127d0565b6109e7565b61025861029e3660046127d0565b6109f3565b60025461020a565b61026d6102b93660046128a3565b610c4e565b6102c6610c73565b60405160ff9091168152602001610214565b610258610ca3565b6102e8610f23565b60405161021491906128e1565b61020a6103033660046128f5565b505f1990565b61020a610317366004612910565b610f47565b61020a61032a3660046128f5565b610f61565b610258610f7b565b6102586103453660046127d0565b610f8c565b6007546102e8906001600160a01b031681565b6102e861114e565b61022561115d565b61025861037b36600461293e565b61116c565b61020a61038e366004612985565b611379565b61026d6103a1366004612879565b6113b3565b6102586113c0565b61020a6103bc3660046127d0565b6116dd565b61020a6103173660046129be565b6103d76116e9565b6040516102149291906129f2565b6102586103f33660046127d0565b61184a565b60125461020a565b61020a61040e3660046127d0565b6119ec565b6102586104213660046127d0565b6119f7565b61020a6104343660046128f5565b611b9c565b60115461020a565b6103d7611baf565b6009546102e8906001600160a01b031681565b61020a61046a3660046128f5565b611cf7565b61020a61047d366004612a7b565b611d01565b6008546102e8906001600160a01b031681565b6102586104a33660046128f5565b611d2b565b6060600380546104b790612aa7565b80601f01602080910402602001604051908101604052809291908181526020018280546104e390612aa7565b801561052e5780601f106105055761010080835404028352916020019161052e565b820191905f5260205f20905b81548152906001019060200180831161051157829003601f168201915b5050505050905090565b5f610543825f611d65565b92915050565b6008546001600160a01b0316331461057457604051631a27eac360e11b815260040160405180910390fd5b61057c611d73565b5f81900361059d57604051631121aa8d60e01b815260040160405180910390fd5b60195481905f826001600160401b038111156105bb576105bb612adf565b6040519080825280602002602001820160405280156105e4578160200160208202803683370190505b5090505f836001600160401b0381111561060057610600612adf565b604051908082528060200260200182016040528015610629578160200160208202803683370190505b5090505f5b848110156107e1575f87878381811061064957610649612af3565b61065f92602060409092020190810191506128f5565b90505f88888481811061067457610674612af3565b60075460408051633af32abf60e01b81529202939093016020013593506001600160a01b0390921691633af32abf91506106b29085906004016128e1565b602060405180830381865afa1580156106cd573d5f5f3e3d5ffd5b505050506040513d601f19601f820116820180604052508101906106f19190612b07565b610719578160405163751dff9760e11b815260040161071091906128e1565b60405180910390fd5b6001600160a01b0382165f9081526018602052604090205460ff161561075457816040516346bdabe160e01b815260040161071091906128e1565b6001600160a01b0382165f908152601860205260409020805460ff191660011790558451829086908590811061078c5761078c612af3565b60200260200101906001600160a01b031690816001600160a01b031681525050808484815181106107bf576107bf612af3565b6020026020010181815250506107d58682611d9d565b9550505060010161062e565b505f61086a60075f9054906101000a90046001600160a01b03166001600160a01b031663d1717c7d6040518163ffffffff1660e01b8152600401602060405180830381865afa158015610836573d5f5f3e3d5ffd5b505050506040513d601f19601f8201168201806040525081019061085a9190612b26565b61086590600a612c3d565b611dcb565b90505f6108778583611ddd565b6017549091505f5b818110156108cc5760195460165f601784815481106108a0576108a0612af3565b5f9182526020808320909101546001600160a01b0316835282019290925260400190205560010161087f565b506108d860175f61276d565b5f5b87811015610990575f8682815181106108f5576108f5612af3565b6020026020010151905085828151811061091157610911612af3565b6020908102919091018101516001600160a01b039092165f818152601683526040808220949094556017805460018181019092557fc624b66cc0138b8fabc209247f72d758e1cf3343756d543badbf24212bed8c150180546001600160a01b031916841790559181526018909252919020805460ff19169055016108da565b5060405133907f2d47a742b8d7df7c1fc5a9a631b206b364e6cb2722490759f63bb3ab14b132e0905f90a2505050505050506109cc6001600555565b5050565b5f336109dd818585611e0b565b5060019392505050565b5f610543826001611e1d565b6109fb611d73565b805f03610a2457610a0a610f23565b604051636b30633560e01b815260040161071091906128e1565b5f610a2d610f23565b6001600160a01b03166370a08231336040518263ffffffff1660e01b8152600401610a5891906128e1565b602060405180830381865afa158015610a73573d5f5f3e3d5ffd5b505050506040513d601f19601f82011682018060405250810190610a979190612c4b565b905080821115610ac057338183604051632e2a182f60e11b815260040161071093929190612c62565b5f610ac9610f23565b6001600160a01b03166323b872dd3360075f9054906101000a90046001600160a01b03166001600160a01b0316633a0dad8e6040518163ffffffff1660e01b8152600401602060405180830381865afa158015610b28573d5f5f3e3d5ffd5b505050506040513d601f19601f82011682018060405250810190610b4c9190612c83565b866040518463ffffffff1660e01b8152600401610b6b93929190612c9e565b6020604051808303815f875af1158015610b87573d5f5f3e3d5ffd5b505050506040513d601f19601f82011682018060405250810190610bab9190612b07565b905080610bcb576040516312171d8360e31b815260040160405180910390fd5b5f610bd7600b33611e5a565b9150610bf2905033610be98684612cc2565b600b9190611e80565b508360115f828254610c049190612cc2565b909155505060405184815233907f08d79f77ab5f78e7e780abb1f7ac9e9923340d5bae78f6e83e7999905b248ea29060200160405180910390a2505050610c4b6001600555565b50565b5f33610c5b858285611e95565b610c66858585611ee6565b60019150505b9392505050565b5f610c9e817f0000000000000000000000000000000000000000000000000000000000000000612cd5565b905090565b60075f9054906101000a90046001600160a01b03166001600160a01b0316633a0dad8e6040518163ffffffff1660e01b8152600401602060405180830381865afa158015610cf3573d5f5f3e3d5ffd5b505050506040513d601f19601f82011682018060405250810190610d179190612c83565b6001600160a01b0316336001600160a01b031614610d4857604051631a27eac360e11b815260040160405180910390fd5b610d50611d73565b5f610d5b600b611f43565b90505f816001600160401b03811115610d7657610d76612adf565b604051908082528060200260200182016040528015610d9f578160200160208202803683370190505b5090505f826001600160401b03811115610dbb57610dbb612adf565b604051908082528060200260200182016040528015610de4578160200160208202803683370190505b5090505f5b83811015610e5d575f80610dfe600b84611f4d565b9150915081858481518110610e1557610e15612af3565b60200260200101906001600160a01b031690816001600160a01b03168152505080848481518110610e4857610e48612af3565b60209081029190910101525050600101610de9565b505f5b83811015610f12575f838281518110610e7b57610e7b612af3565b602002602001015190505f838381518110610e9857610e98612af3565b602002602001015190505f610eac826119ec565b9050610eb9600b84611f5b565b50610ec48382611f6f565b826001600160a01b03167f85a190caa61692b36b63a55e069330d18ab9af179fed7a25c16a4262bc63b7d283604051610eff91815260200190565b60405180910390a2505050600101610e60565b50505f60115550506001600555565b565b7f000000000000000000000000000000000000000000000000000000000000000090565b5f60405163125ad87760e31b815260040160405180910390fd5b6001600160a01b03165f9081526020819052604090205490565b610f83611fa3565b610f215f611fd5565b805f03610fae5730604051636b30633560e01b815260040161071091906128e1565b5f610fb833610f61565b905080821115610fe157338183604051632e2a182f60e11b815260040161071093929190612c62565b60075460408051631d06d6c760e11b815290515f9230926323b872dd9233926001600160a01b031691633a0dad8e9160048083019260209291908290030181865afa158015611032573d5f5f3e3d5ffd5b505050506040513d601f19601f820116820180604052508101906110569190612c83565b866040518463ffffffff1660e01b815260040161107593929190612c9e565b6020604051808303815f875af1158015611091573d5f5f3e3d5ffd5b505050506040513d601f19601f820116820180604052508101906110b59190612b07565b9050806110d5576040516312171d8360e31b815260040160405180910390fd5b5f6110e1600e33611e5a565b91506110fc9050336110f38684612cc2565b600e9190611e80565b508360125f82825461110e9190612cc2565b909155505060405184815233907ff7774b688d56120b783560a913ee60792a73dfd511812b7be5eccf10d08c66899060200160405180910390a250505050565b6006546001600160a01b031690565b6060600480546104b790612aa7565b60075f9054906101000a90046001600160a01b03166001600160a01b0316633a0dad8e6040518163ffffffff1660e01b8152600401602060405180830381865afa1580156111bc573d5f5f3e3d5ffd5b505050506040513d601f19601f820116820180604052508101906111e09190612c83565b6001600160a01b0316336001600160a01b03161461121157604051631a27eac360e11b815260040160405180910390fd5b6015545f5b818110156112635760195460145f6015848154811061123757611237612af3565b5f9182526020808320909101546001600160a01b03168352820192909252604001902055600101611216565b5061126f60155f61276d565b5f5b8181101561133a5784848281811061128b5761128b612af3565b9050604002016020013560145f8787858181106112aa576112aa612af3565b6112c092602060409092020190810191506128f5565b6001600160a01b0316815260208101919091526040015f205560158585838181106112ed576112ed612af3565b61130392602060409092020190810191506128f5565b8154600180820184555f93845260209093200180546001600160a01b0319166001600160a01b039290921691909117905501611271565b50600a8290556040518281527f5e1ff954b5e5257e9ee5d4cb07059e8f5e69b1aaaf9911e5d8d90a6894de9c219060200160405180910390a150505050565b5f5f61138460025490565b90506113aa611394856001612cc2565b6013546113a19084612cc2565b87919086612026565b95945050505050565b5f336109dd818585611ee6565b60075f9054906101000a90046001600160a01b03166001600160a01b0316633a0dad8e6040518163ffffffff1660e01b8152600401602060405180830381865afa158015611410573d5f5f3e3d5ffd5b505050506040513d601f19601f820116820180604052508101906114349190612c83565b6001600160a01b0316336001600160a01b03161461146557604051631a27eac360e11b815260040160405180910390fd5b61146d611d73565b5f611478600e611f43565b90505f816001600160401b0381111561149357611493612adf565b6040519080825280602002602001820160405280156114bc578160200160208202803683370190505b5090505f826001600160401b038111156114d8576114d8612adf565b604051908082528060200260200182016040528015611501578160200160208202803683370190505b5090505f5b8381101561157a575f8061151b600e84611f4d565b915091508185848151811061153257611532612af3565b60200260200101906001600160a01b031690816001600160a01b0316815250508084848151811061156557611565612af3565b60209081029190910101525050600101611506565b505f60128190555b838110156116cf575f83828151811061159d5761159d612af3565b602002602001015190505f8383815181106115ba576115ba612af3565b602002602001015190506115d882600e611f5b90919063ffffffff16565b506115e33082612068565b5f6115ed82610538565b90506115f7610f23565b6001600160a01b031663a9059cbb84836040518363ffffffff1660e01b8152600401611624929190612cee565b6020604051808303815f875af1158015611640573d5f5f3e3d5ffd5b505050506040513d601f19601f820116820180604052508101906116649190612b07565b611681576040516312171d8360e31b815260040160405180910390fd5b826001600160a01b03167f44b2ff9ffcefe2052a8afdbed44a04bf3db4592ae90c6b96c818bd28573e41e8836040516116bc91815260200190565b60405180910390a2505050600101611582565b50505050610f216001600555565b5f610543826001611d65565b6017546060908190806001600160401b0381111561170957611709612adf565b604051908082528060200260200182016040528015611732578160200160208202803683370190505b509250806001600160401b0381111561174d5761174d612adf565b604051908082528060200260200182016040528015611776578160200160208202803683370190505b5091505f5b81811015611844576017818154811061179657611796612af3565b905f5260205f20015f9054906101000a90046001600160a01b03168482815181106117c3576117c3612af3565b60200260200101906001600160a01b031690816001600160a01b03168152505060165f601783815481106117f9576117f9612af3565b5f9182526020808320909101546001600160a01b03168352820192909252604001902054835184908390811061183157611831612af3565b602090810291909101015260010161177b565b50509091565b611852611d73565b805f0361186157610a0a610f23565b5f61186d600b33611e5a565b91505081811015611891576040516332194fd360e21b815260040160405180910390fd5b60075f9054906101000a90046001600160a01b03166001600160a01b0316633a0dad8e6040518163ffffffff1660e01b8152600401602060405180830381865afa1580156118e1573d5f5f3e3d5ffd5b505050506040513d601f19601f820116820180604052508101906119059190612c83565b6001600160a01b03166351edffb133846040518363ffffffff1660e01b8152600401611932929190612cee565b5f604051808303815f87803b158015611949575f5ffd5b505af115801561195b573d5f5f3e3d5ffd5b505050505f828261196c9190612d07565b9050805f0361198657611980600b33611f5b565b50611994565b611992600b3383611e80565b505b8260115f8282546119a59190612d07565b909155505060405183815233907f96a9a6886cdf3047a125454218a23d3961fd3a78643123b248a9d106d0ac94fd906020015b60405180910390a25050610c4b6001600555565b5f610543825f611e1d565b6119ff611d73565b805f03611a215730604051636b30633560e01b815260040161071091906128e1565b5f611a2d600e33611e5a565b91505081811015611a51576040516312ea1f4960e11b815260040160405180910390fd5b60075f9054906101000a90046001600160a01b03166001600160a01b0316633a0dad8e6040518163ffffffff1660e01b8152600401602060405180830381865afa158015611aa1573d5f5f3e3d5ffd5b505050506040513d601f19601f82011682018060405250810190611ac59190612c83565b6001600160a01b031663be186b2033846040518363ffffffff1660e01b8152600401611af2929190612cee565b5f604051808303815f87803b158015611b09575f5ffd5b505af1158015611b1b573d5f5f3e3d5ffd5b505050505f8282611b2c9190612d07565b9050805f03611b4657611b40600e33611f5b565b50611b54565b611b52600e3383611e80565b505b8260125f828254611b659190612d07565b909155505060405183815233907f9cf37535785001dcc9767688232fcbc8698b3002d1207b50bc2afec3ff8934dc906020016119d8565b5f610543611ba983610f61565b5f611d65565b6015546060908190806001600160401b03811115611bcf57611bcf612adf565b604051908082528060200260200182016040528015611bf8578160200160208202803683370190505b509250806001600160401b03811115611c1357611c13612adf565b604051908082528060200260200182016040528015611c3c578160200160208202803683370190505b5091505f5b81811015611844575f60158281548110611c5d57611c5d612af3565b905f5260205f20015f9054906101000a90046001600160a01b0316905080858381518110611c8d57611c8d612af3565b60200260200101906001600160a01b031690816001600160a01b03168152505060145f826001600160a01b03166001600160a01b031681526020019081526020015f2054848381518110611ce357611ce3612af3565b602090810291909101015250600101611c41565b5f61054382610f61565b6001600160a01b039182165f90815260016020908152604080832093909416825291909152205490565b611d33611fa3565b6001600160a01b038116611d5c575f604051631e4fbdf760e01b815260040161071091906128e1565b610c4b81611fd5565b5f610c6c83600a5484611379565b600260055403611d9657604051633ee5aeb560e01b815260040160405180910390fd5b6002600555565b5f82611daf57611dac5f611dcb565b92505b81611dc057611dbd5f611dcb565b91505b610c6c83835f61209c565b5f6105438263ffffffff16600461213c565b5f82611def57611dec5f611dcb565b92505b81611e0057611dfd5f611dcb565b91505b610c6c83835f6121bb565b611e188383836001612211565b505050565b5f5f611e2860025490565b9050611e5260135482611e3b9190612cc2565b600a54611e49906001612cc2565b86919086612026565b949350505050565b5f808080611e71866001600160a01b0387166122e3565b909450925050505b9250929050565b5f611e52846001600160a01b0385168461231b565b5f611ea08484611d01565b90505f19811015611ee05781811015611ed257828183604051637dc7a0d960e11b815260040161071093929190612c62565b611ee084848484035f612211565b50505050565b6001600160a01b038316611f0f575f604051634b637e8f60e11b815260040161071091906128e1565b6001600160a01b038216611f38575f60405163ec442f0560e01b815260040161071091906128e1565b611e18838383612337565b5f6105438261244a565b5f808080611e718686612454565b5f610c6c836001600160a01b03841661247d565b6001600160a01b038216611f98575f60405163ec442f0560e01b815260040161071091906128e1565b6109cc5f8383612337565b33611fac61114e565b6001600160a01b031614610f21573360405163118cdaa760e01b815260040161071091906128e1565b600680546001600160a01b038381166001600160a01b0319831681179093556040519116919082907f8be0079c531659141344cd1fd0a4f28419497f9722a3daafe3b4186f6b6457e0905f90a35050565b5f61205361203383612499565b801561204e57505f848061204957612049612d1a565b868809115b151590565b61205e8686866124c5565b6113aa9190612cc2565b6001600160a01b038216612091575f604051634b637e8f60e11b815260040161071091906128e1565b6109cc825f83612337565b5f5f82156120af5750600160f81b6120b2565b505f5b5f6120bb612575565b600181015460405163022f65e760e31b81529192506001600160a01b03169063117b2f38906120f290899089908790600401612d2e565b6020604051808303815f875af115801561210e573d5f5f3e3d5ffd5b505050506040513d601f19601f820116820180604052508101906121329190612c4b565b9695505050505050565b5f5f612146612575565b6001810154604051639cd07acb60e01b81529192506001600160a01b031690639cd07acb9061217b9087908790600401612d62565b6020604051808303815f875af1158015612197573d5f5f3e3d5ffd5b505050506040513d601f19601f82011682018060405250810190611e529190612c4b565b5f5f82156121ce5750600160f81b6121d1565b505f5b5f6121da612575565b600181015460405163f77f3f1d60e01b81529192506001600160a01b03169063f77f3f1d906120f290899089908790600401612d2e565b6001600160a01b03841661223a575f60405163e602df0560e01b815260040161071091906128e1565b6001600160a01b038316612263575f604051634a1406b160e11b815260040161071091906128e1565b6001600160a01b038085165f9081526001602090815260408083209387168352929052208290558015611ee057826001600160a01b0316846001600160a01b03167f8c5be1e5ebec7d5bd14f71427d1e84f3dd0314c0f7b2291e5b200ac8c7c3b925846040516122d591815260200190565b60405180910390a350505050565b5f818152600283016020526040812054819080612310576123048585612599565b92505f9150611e799050565b600192509050611e79565b5f8281526002840160205260408120829055611e5284846125a4565b6001600160a01b038316612361578060025f8282546123569190612cc2565b909155506123be9050565b6001600160a01b0383165f90815260208190526040902054818110156123a05783818360405163391434e360e21b815260040161071093929190612c62565b6001600160a01b0384165f9081526020819052604090209082900390555b6001600160a01b0382166123da576002805482900390556123f8565b6001600160a01b0382165f9081526020819052604090208054820190555b816001600160a01b0316836001600160a01b03167fddf252ad1be2c89b69c2b068fc378daa952ba7f163c4a11628f55a4df523b3ef8360405161243d91815260200190565b60405180910390a3505050565b5f610543826125af565b5f808061246185856125b8565b5f81815260029690960160205260409095205494959350505050565b5f8181526002830160205260408120819055610c6c83836125c3565b5f60028260038111156124ae576124ae612d4e565b6124b89190612d92565b60ff166001149050919050565b5f5f5f6124d286866125ce565b91509150815f036124f6578381816124ec576124ec612d1a565b0492505050610c6c565b81841161250d5761250d60038515026011186125ea565b5f848688095f868103871696879004966002600389028118808a02820302808a02820302808a02820302808a02820302808a02820302808a02909103029181900381900460010185841190960395909502919093039390930492909217029150509392505050565b7fed8d60e34876f751cc8b014c560745351147d9de11b9347c854e881b128ea60090565b5f610c6c83836125fb565b5f610c6c8383612606565b5f610543825490565b5f610c6c838361264d565b5f610c6c8383612673565b5f805f1983850993909202808410938190039390930393915050565b634e487b715f52806020526024601cfd5b5f610c6c8383612756565b5f6126118383612756565b61264657508154600181810184555f848152602080822090930184905584548482528286019093526040902091909155610543565b505f610543565b5f825f01828154811061266257612662612af3565b905f5260205f200154905092915050565b5f818152600183016020526040812054801561274d575f612695600183612d07565b85549091505f906126a890600190612d07565b9050808214612707575f865f0182815481106126c6576126c6612af3565b905f5260205f200154905080875f0184815481106126e6576126e6612af3565b5f918252602080832090910192909255918252600188019052604090208390555b855486908061271857612718612dbf565b600190038181905f5260205f20015f90559055856001015f8681526020019081526020015f205f905560019350505050610543565b5f915050610543565b5f9081526001919091016020526040902054151590565b5080545f8255905f5260205f2090810190610c4b91905b80821115612797575f8155600101612784565b5090565b602081525f82518060208401528060208501604085015e5f604082850101526040601f19601f83011684010191505092915050565b5f602082840312156127e0575f5ffd5b5035919050565b5f5f83601f8401126127f7575f5ffd5b5081356001600160401b0381111561280d575f5ffd5b6020830191508360208260061b8501011115611e79575f5ffd5b5f5f60208385031215612838575f5ffd5b82356001600160401b0381111561284d575f5ffd5b612859858286016127e7565b90969095509350505050565b6001600160a01b0381168114610c4b575f5ffd5b5f5f6040838503121561288a575f5ffd5b823561289581612865565b946020939093013593505050565b5f5f5f606084860312156128b5575f5ffd5b83356128c081612865565b925060208401356128d081612865565b929592945050506040919091013590565b6001600160a01b0391909116815260200190565b5f60208284031215612905575f5ffd5b8135610c6c81612865565b5f5f60408385031215612921575f5ffd5b82359150602083013561293381612865565b809150509250929050565b5f5f5f60408486031215612950575f5ffd5b83356001600160401b03811115612965575f5ffd5b612971868287016127e7565b909790965060209590950135949350505050565b5f5f5f60608486031215612997575f5ffd5b83359250602084013591506040840135600481106129b3575f5ffd5b809150509250925092565b5f5f5f606084860312156129d0575f5ffd5b8335925060208401356129e281612865565b915060408401356129b381612865565b604080825283519082018190525f9060208501906060840190835b81811015612a345783516001600160a01b0316835260209384019390920191600101612a0d565b5050838103602080860191909152855180835291810192508501905f5b81811015612a6f578251845260209384019390920191600101612a51565b50919695505050505050565b5f5f60408385031215612a8c575f5ffd5b8235612a9781612865565b9150602083013561293381612865565b600181811c90821680612abb57607f821691505b602082108103612ad957634e487b7160e01b5f52602260045260245ffd5b50919050565b634e487b7160e01b5f52604160045260245ffd5b634e487b7160e01b5f52603260045260245ffd5b5f60208284031215612b17575f5ffd5b81518015158114610c6c575f5ffd5b5f60208284031215612b36575f5ffd5b815160ff81168114610c6c575f5ffd5b634e487b7160e01b5f52601160045260245ffd5b6001815b6001841115612b9557808504811115612b7957612b79612b46565b6001841615612b8757908102905b60019390931c928002612b5e565b935093915050565b5f82612bab57506001610543565b81612bb757505f610543565b8160018114612bcd5760028114612bd757612bf3565b6001915050610543565b60ff841115612be857612be8612b46565b50506001821b610543565b5060208310610133831016604e8410600b8410161715612c16575081810a610543565b612c225f198484612b5a565b805f1904821115612c3557612c35612b46565b029392505050565b5f610c6c60ff841683612b9d565b5f60208284031215612c5b575f5ffd5b5051919050565b6001600160a01b039390931683526020830191909152604082015260600190565b5f60208284031215612c93575f5ffd5b8151610c6c81612865565b6001600160a01b039384168152919092166020820152604081019190915260600190565b8082018082111561054357610543612b46565b60ff818116838216019081111561054357610543612b46565b6001600160a01b03929092168252602082015260400190565b8181038181111561054357610543612b46565b634e487b7160e01b5f52601260045260245ffd5b92835260208301919091526001600160f81b031916604082015260600190565b634e487b7160e01b5f52602160045260245ffd5b8281526040810160548310612d8557634e487b7160e01b5f52602160045260245ffd5b8260208301529392505050565b5f60ff831680612db057634e487b7160e01b5f52601260045260245ffd5b8060ff84160691505092915050565b634e487b7160e01b5f52603160045260245ffdfea26469706673582212203d84ab849463111391ee597eacebf9cf3141f46592e276727e8ecf6f129824a264736f6c634300081c0033",
  "linkReferences": {},
  "deployedLinkReferences": {}
}