{
  "_format": "hh-sol-artifact-1",
  "contractName": "OrionEncryptedVault",
  "sourceName": "contracts/vaults/OrionEncryptedVault.sol",
  "abi": [
    {
      "inputs": [
        {
          "internalType": "address",
          "name": "vaultOwner",
          "type": "address"
        },
        {
          "internalType": "address",
          "name": "curator",
          "type": "address"
        },
        {
          "internalType": "contract IOrionConfig",
          "name": "configAddress",
          "type": "address"
        },
        {
          "internalType": "string",
          "name": "name",
          "type": "string"
        },
        {
          "internalType": "string",
          "name": "symbol",
          "type": "string"
        }
      ],
      "stateMutability": "nonpayable",
      "type": "constructor"
    },
    {
      "inputs": [],
      "name": "AlreadyRegistered",
      "type": "error"
    },
    {
      "inputs": [
        {
          "internalType": "address",
          "name": "asset",
          "type": "address"
        }
      ],
      "name": "AmountMustBeGreaterThanZero",
      "type": "error"
    },
    {
      "inputs": [
        {
          "internalType": "address",
          "name": "spender",
          "type": "address"
        },
        {
          "internalType": "uint256",
          "name": "allowance",
          "type": "uint256"
        },
        {
          "internalType": "uint256",
          "name": "needed",
          "type": "uint256"
        }
      ],
      "name": "ERC20InsufficientAllowance",
      "type": "error"
    },
    {
      "inputs": [
        {
          "internalType": "address",
          "name": "sender",
          "type": "address"
        },
        {
          "internalType": "uint256",
          "name": "balance",
          "type": "uint256"
        },
        {
          "internalType": "uint256",
          "name": "needed",
          "type": "uint256"
        }
      ],
      "name": "ERC20InsufficientBalance",
      "type": "error"
    },
    {
      "inputs": [
        {
          "internalType": "address",
          "name": "approver",
          "type": "address"
        }
      ],
      "name": "ERC20InvalidApprover",
      "type": "error"
    },
    {
      "inputs": [
        {
          "internalType": "address",
          "name": "receiver",
          "type": "address"
        }
      ],
      "name": "ERC20InvalidReceiver",
      "type": "error"
    },
    {
      "inputs": [
        {
          "internalType": "address",
          "name": "sender",
          "type": "address"
        }
      ],
      "name": "ERC20InvalidSender",
      "type": "error"
    },
    {
      "inputs": [
        {
          "internalType": "address",
          "name": "spender",
          "type": "address"
        }
      ],
      "name": "ERC20InvalidSpender",
      "type": "error"
    },
    {
      "inputs": [
        {
          "internalType": "address",
          "name": "receiver",
          "type": "address"
        },
        {
          "internalType": "uint256",
          "name": "assets",
          "type": "uint256"
        },
        {
          "internalType": "uint256",
          "name": "max",
          "type": "uint256"
        }
      ],
      "name": "ERC4626ExceededMaxDeposit",
      "type": "error"
    },
    {
      "inputs": [
        {
          "internalType": "address",
          "name": "receiver",
          "type": "address"
        },
        {
          "internalType": "uint256",
          "name": "shares",
          "type": "uint256"
        },
        {
          "internalType": "uint256",
          "name": "max",
          "type": "uint256"
        }
      ],
      "name": "ERC4626ExceededMaxMint",
      "type": "error"
    },
    {
      "inputs": [
        {
          "internalType": "address",
          "name": "owner",
          "type": "address"
        },
        {
          "internalType": "uint256",
          "name": "shares",
          "type": "uint256"
        },
        {
          "internalType": "uint256",
          "name": "max",
          "type": "uint256"
        }
      ],
      "name": "ERC4626ExceededMaxRedeem",
      "type": "error"
    },
    {
      "inputs": [
        {
          "internalType": "address",
          "name": "owner",
          "type": "address"
        },
        {
          "internalType": "uint256",
          "name": "assets",
          "type": "uint256"
        },
        {
          "internalType": "uint256",
          "name": "max",
          "type": "uint256"
        }
      ],
      "name": "ERC4626ExceededMaxWithdraw",
      "type": "error"
    },
    {
      "inputs": [],
      "name": "HandlesAlreadySavedForRequestID",
      "type": "error"
    },
    {
      "inputs": [
        {
          "internalType": "address",
          "name": "sender",
          "type": "address"
        },
        {
          "internalType": "uint256",
          "name": "balance",
          "type": "uint256"
        },
        {
          "internalType": "uint256",
          "name": "amount",
          "type": "uint256"
        }
      ],
      "name": "InsufficientFunds",
      "type": "error"
    },
    {
      "inputs": [],
      "name": "InvalidAddress",
      "type": "error"
    },
    {
      "inputs": [],
      "name": "InvalidArguments",
      "type": "error"
    },
    {
      "inputs": [],
      "name": "InvalidKMSSignatures",
      "type": "error"
    },
    {
      "inputs": [],
      "name": "InvalidUnderlyingDecimals",
      "type": "error"
    },
    {
      "inputs": [],
      "name": "NoHandleFoundForRequestID",
      "type": "error"
    },
    {
      "inputs": [],
      "name": "NotEnoughDepositRequest",
      "type": "error"
    },
    {
      "inputs": [],
      "name": "NotEnoughWithdrawRequest",
      "type": "error"
    },
    {
      "inputs": [],
      "name": "OrderIntentCannotBeEmpty",
      "type": "error"
    },
    {
      "inputs": [],
      "name": "ReentrancyGuardReentrantCall",
      "type": "error"
    },
    {
      "inputs": [],
      "name": "SynchronousCallDisabled",
      "type": "error"
    },
    {
      "inputs": [],
      "name": "SystemNotIdle",
      "type": "error"
    },
    {
      "inputs": [
        {
          "internalType": "address",
          "name": "token",
          "type": "address"
        }
      ],
      "name": "TokenAlreadyInOrder",
      "type": "error"
    },
    {
      "inputs": [
        {
          "internalType": "address",
          "name": "token",
          "type": "address"
        }
      ],
      "name": "TokenNotWhitelisted",
      "type": "error"
    },
    {
      "inputs": [],
      "name": "TransferFailed",
      "type": "error"
    },
    {
      "inputs": [],
      "name": "UnauthorizedAccess",
      "type": "error"
    },
    {
      "inputs": [],
      "name": "UnsupportedHandleType",
      "type": "error"
    },
    {
      "anonymous": false,
      "inputs": [
        {
          "indexed": true,
          "internalType": "address",
          "name": "owner",
          "type": "address"
        },
        {
          "indexed": true,
          "internalType": "address",
          "name": "spender",
          "type": "address"
        },
        {
          "indexed": false,
          "internalType": "uint256",
          "name": "value",
          "type": "uint256"
        }
      ],
      "name": "Approval",
      "type": "event"
    },
    {
      "anonymous": false,
      "inputs": [
        {
          "indexed": true,
          "internalType": "uint256",
          "name": "epoch",
          "type": "uint256"
        },
        {
          "indexed": false,
          "internalType": "uint256",
          "name": "feeAmount",
          "type": "uint256"
        },
        {
          "indexed": false,
          "internalType": "uint256",
          "name": "pendingCuratorFees",
          "type": "uint256"
        }
      ],
      "name": "CuratorFeesAccrued",
      "type": "event"
    },
    {
      "anonymous": false,
      "inputs": [
        {
          "indexed": true,
          "internalType": "uint256",
          "name": "requestID",
          "type": "uint256"
        }
      ],
      "name": "DecryptionFulfilled",
      "type": "event"
    },
    {
      "anonymous": false,
      "inputs": [
        {
          "indexed": true,
          "internalType": "address",
          "name": "sender",
          "type": "address"
        },
        {
          "indexed": true,
          "internalType": "address",
          "name": "owner",
          "type": "address"
        },
        {
          "indexed": false,
          "internalType": "uint256",
          "name": "assets",
          "type": "uint256"
        },
        {
          "indexed": false,
          "internalType": "uint256",
          "name": "shares",
          "type": "uint256"
        }
      ],
      "name": "Deposit",
      "type": "event"
    },
    {
      "anonymous": false,
      "inputs": [
        {
          "indexed": true,
          "internalType": "address",
          "name": "user",
          "type": "address"
        },
        {
          "indexed": false,
          "internalType": "uint256",
          "name": "amount",
          "type": "uint256"
        }
      ],
      "name": "DepositProcessed",
      "type": "event"
    },
    {
      "anonymous": false,
      "inputs": [
        {
          "indexed": true,
          "internalType": "address",
          "name": "user",
          "type": "address"
        },
        {
          "indexed": false,
          "internalType": "uint256",
          "name": "amount",
          "type": "uint256"
        }
      ],
      "name": "DepositRequestCancelled",
      "type": "event"
    },
    {
      "anonymous": false,
      "inputs": [
        {
          "indexed": true,
          "internalType": "address",
          "name": "user",
          "type": "address"
        },
        {
          "indexed": false,
          "internalType": "uint256",
          "name": "amount",
          "type": "uint256"
        }
      ],
      "name": "DepositRequested",
      "type": "event"
    },
    {
      "anonymous": false,
      "inputs": [
        {
          "indexed": false,
          "internalType": "uint8",
          "name": "mode",
          "type": "uint8"
        },
        {
          "indexed": false,
          "internalType": "uint16",
          "name": "performanceFee",
          "type": "uint16"
        },
        {
          "indexed": false,
          "internalType": "uint16",
          "name": "managementFee",
          "type": "uint16"
        }
      ],
      "name": "FeeModelUpdated",
      "type": "event"
    },
    {
      "anonymous": false,
      "inputs": [
        {
          "indexed": true,
          "internalType": "address",
          "name": "curator",
          "type": "address"
        }
      ],
      "name": "OrderSubmitted",
      "type": "event"
    },
    {
      "anonymous": false,
      "inputs": [
        {
          "indexed": true,
          "internalType": "address",
          "name": "from",
          "type": "address"
        },
        {
          "indexed": true,
          "internalType": "address",
          "name": "to",
          "type": "address"
        },
        {
          "indexed": false,
          "internalType": "uint256",
          "name": "value",
          "type": "uint256"
        }
      ],
      "name": "Transfer",
      "type": "event"
    },
    {
      "anonymous": false,
      "inputs": [
        {
          "indexed": false,
          "internalType": "uint256",
          "name": "newTotalAssets",
          "type": "uint256"
        }
      ],
      "name": "VaultStateUpdated",
      "type": "event"
    },
    {
      "anonymous": false,
      "inputs": [
        {
          "indexed": true,
          "internalType": "address",
          "name": "sender",
          "type": "address"
        },
        {
          "indexed": true,
          "internalType": "address",
          "name": "receiver",
          "type": "address"
        },
        {
          "indexed": true,
          "internalType": "address",
          "name": "owner",
          "type": "address"
        },
        {
          "indexed": false,
          "internalType": "uint256",
          "name": "assets",
          "type": "uint256"
        },
        {
          "indexed": false,
          "internalType": "uint256",
          "name": "shares",
          "type": "uint256"
        }
      ],
      "name": "Withdraw",
      "type": "event"
    },
    {
      "anonymous": false,
      "inputs": [
        {
          "indexed": true,
          "internalType": "address",
          "name": "user",
          "type": "address"
        },
        {
          "indexed": false,
          "internalType": "uint256",
          "name": "shares",
          "type": "uint256"
        }
      ],
      "name": "WithdrawProcessed",
      "type": "event"
    },
    {
      "anonymous": false,
      "inputs": [
        {
          "indexed": true,
          "internalType": "address",
          "name": "user",
          "type": "address"
        },
        {
          "indexed": false,
          "internalType": "uint256",
          "name": "shares",
          "type": "uint256"
        }
      ],
      "name": "WithdrawRequestCancelled",
      "type": "event"
    },
    {
      "anonymous": false,
      "inputs": [
        {
          "indexed": true,
          "internalType": "address",
          "name": "user",
          "type": "address"
        },
        {
          "indexed": false,
          "internalType": "uint256",
          "name": "shares",
          "type": "uint256"
        }
      ],
      "name": "WithdrawRequested",
      "type": "event"
    },
    {
      "inputs": [],
      "name": "CURATOR_FEE_FACTOR",
      "outputs": [
        {
          "internalType": "uint16",
          "name": "",
          "type": "uint16"
        }
      ],
      "stateMutability": "view",
      "type": "function"
    },
    {
      "inputs": [],
      "name": "MAX_MANAGEMENT_FEE",
      "outputs": [
        {
          "internalType": "uint16",
          "name": "",
          "type": "uint16"
        }
      ],
      "stateMutability": "view",
      "type": "function"
    },
    {
      "inputs": [],
      "name": "MAX_PERFORMANCE_FEE",
      "outputs": [
        {
          "internalType": "uint16",
          "name": "",
          "type": "uint16"
        }
      ],
      "stateMutability": "view",
      "type": "function"
    },
    {
      "inputs": [],
      "name": "SHARE_DECIMALS",
      "outputs": [
        {
          "internalType": "uint8",
          "name": "",
          "type": "uint8"
        }
      ],
      "stateMutability": "view",
      "type": "function"
    },
    {
      "inputs": [],
      "name": "YEAR_IN_SECONDS",
      "outputs": [
        {
          "internalType": "uint32",
          "name": "",
          "type": "uint32"
        }
      ],
      "stateMutability": "view",
      "type": "function"
    },
    {
      "inputs": [
        {
          "internalType": "uint256",
          "name": "epoch",
          "type": "uint256"
        },
        {
          "internalType": "uint256",
          "name": "feeAmount",
          "type": "uint256"
        }
      ],
      "name": "accrueCuratorFees",
      "outputs": [],
      "stateMutability": "nonpayable",
      "type": "function"
    },
    {
      "inputs": [
        {
          "internalType": "address",
          "name": "owner",
          "type": "address"
        },
        {
          "internalType": "address",
          "name": "spender",
          "type": "address"
        }
      ],
      "name": "allowance",
      "outputs": [
        {
          "internalType": "uint256",
          "name": "",
          "type": "uint256"
        }
      ],
      "stateMutability": "view",
      "type": "function"
    },
    {
      "inputs": [
        {
          "internalType": "address",
          "name": "spender",
          "type": "address"
        },
        {
          "internalType": "uint256",
          "name": "value",
          "type": "uint256"
        }
      ],
      "name": "approve",
      "outputs": [
        {
          "internalType": "bool",
          "name": "",
          "type": "bool"
        }
      ],
      "stateMutability": "nonpayable",
      "type": "function"
    },
    {
      "inputs": [],
      "name": "asset",
      "outputs": [
        {
          "internalType": "address",
          "name": "",
          "type": "address"
        }
      ],
      "stateMutability": "view",
      "type": "function"
    },
    {
      "inputs": [
        {
          "internalType": "address",
          "name": "account",
          "type": "address"
        }
      ],
      "name": "balanceOf",
      "outputs": [
        {
          "internalType": "uint256",
          "name": "",
          "type": "uint256"
        }
      ],
      "stateMutability": "view",
      "type": "function"
    },
    {
      "inputs": [
        {
          "internalType": "uint256",
          "name": "requestID",
          "type": "uint256"
        },
        {
          "internalType": "bool",
          "name": "decryptedInput",
          "type": "bool"
        },
        {
          "internalType": "bytes[]",
          "name": "signatures",
          "type": "bytes[]"
        }
      ],
      "name": "callbackDecryptSingleEbool",
      "outputs": [],
      "stateMutability": "nonpayable",
      "type": "function"
    },
    {
      "inputs": [
        {
          "internalType": "uint256",
          "name": "amount",
          "type": "uint256"
        }
      ],
      "name": "cancelDepositRequest",
      "outputs": [],
      "stateMutability": "nonpayable",
      "type": "function"
    },
    {
      "inputs": [
        {
          "internalType": "uint256",
          "name": "shares",
          "type": "uint256"
        }
      ],
      "name": "cancelWithdrawRequest",
      "outputs": [],
      "stateMutability": "nonpayable",
      "type": "function"
    },
    {
      "inputs": [],
      "name": "claimCuratorFees",
      "outputs": [],
      "stateMutability": "nonpayable",
      "type": "function"
    },
    {
      "inputs": [],
      "name": "config",
      "outputs": [
        {
          "internalType": "contract IOrionConfig",
          "name": "",
          "type": "address"
        }
      ],
      "stateMutability": "view",
      "type": "function"
    },
    {
      "inputs": [
        {
          "internalType": "uint256",
          "name": "shares",
          "type": "uint256"
        }
      ],
      "name": "convertToAssets",
      "outputs": [
        {
          "internalType": "uint256",
          "name": "",
          "type": "uint256"
        }
      ],
      "stateMutability": "view",
      "type": "function"
    },
    {
      "inputs": [
        {
          "internalType": "uint256",
          "name": "shares",
          "type": "uint256"
        },
        {
          "internalType": "uint256",
          "name": "pointInTimeTotalAssets",
          "type": "uint256"
        },
        {
          "internalType": "enum Math.Rounding",
          "name": "rounding",
          "type": "uint8"
        }
      ],
      "name": "convertToAssetsWithPITTotalAssets",
      "outputs": [
        {
          "internalType": "uint256",
          "name": "",
          "type": "uint256"
        }
      ],
      "stateMutability": "view",
      "type": "function"
    },
    {
      "inputs": [
        {
          "internalType": "uint256",
          "name": "assets",
          "type": "uint256"
        }
      ],
      "name": "convertToShares",
      "outputs": [
        {
          "internalType": "uint256",
          "name": "",
          "type": "uint256"
        }
      ],
      "stateMutability": "view",
      "type": "function"
    },
    {
      "inputs": [],
      "name": "curator",
      "outputs": [
        {
          "internalType": "address",
          "name": "",
          "type": "address"
        }
      ],
      "stateMutability": "view",
      "type": "function"
    },
    {
      "inputs": [
        {
          "internalType": "uint256",
          "name": "activeTotalAssets",
          "type": "uint256"
        }
      ],
      "name": "curatorFee",
      "outputs": [
        {
          "internalType": "uint256",
          "name": "",
          "type": "uint256"
        }
      ],
      "stateMutability": "view",
      "type": "function"
    },
    {
      "inputs": [],
      "name": "curatorIntentDecimals",
      "outputs": [
        {
          "internalType": "uint8",
          "name": "",
          "type": "uint8"
        }
      ],
      "stateMutability": "view",
      "type": "function"
    },
    {
      "inputs": [],
      "name": "decimals",
      "outputs": [
        {
          "internalType": "uint8",
          "name": "",
          "type": "uint8"
        }
      ],
      "stateMutability": "view",
      "type": "function"
    },
    {
      "inputs": [
        {
          "internalType": "uint256",
          "name": "",
          "type": "uint256"
        },
        {
          "internalType": "address",
          "name": "",
          "type": "address"
        }
      ],
      "name": "deposit",
      "outputs": [
        {
          "internalType": "uint256",
          "name": "",
          "type": "uint256"
        }
      ],
      "stateMutability": "pure",
      "type": "function"
    },
    {
      "inputs": [],
      "name": "feeModel",
      "outputs": [
        {
          "internalType": "enum OrionVault.CalcMode",
          "name": "mode",
          "type": "uint8"
        },
        {
          "internalType": "uint16",
          "name": "performanceFee",
          "type": "uint16"
        },
        {
          "internalType": "uint16",
          "name": "managementFee",
          "type": "uint16"
        },
        {
          "internalType": "uint256",
          "name": "highWaterMark",
          "type": "uint256"
        }
      ],
      "stateMutability": "view",
      "type": "function"
    },
    {
      "inputs": [],
      "name": "getIntent",
      "outputs": [
        {
          "internalType": "address[]",
          "name": "tokens",
          "type": "address[]"
        },
        {
          "internalType": "euint32[]",
          "name": "weights",
          "type": "bytes32[]"
        }
      ],
      "stateMutability": "view",
      "type": "function"
    },
    {
      "inputs": [],
      "name": "getPendingDeposits",
      "outputs": [
        {
          "internalType": "uint256",
          "name": "",
          "type": "uint256"
        }
      ],
      "stateMutability": "view",
      "type": "function"
    },
    {
      "inputs": [],
      "name": "getPendingWithdrawals",
      "outputs": [
        {
          "internalType": "uint256",
          "name": "",
          "type": "uint256"
        }
      ],
      "stateMutability": "view",
      "type": "function"
    },
    {
      "inputs": [],
      "name": "getPortfolio",
      "outputs": [
        {
          "internalType": "address[]",
          "name": "tokens",
          "type": "address[]"
        },
        {
          "internalType": "euint32[]",
          "name": "sharesPerAsset",
          "type": "bytes32[]"
        }
      ],
      "stateMutability": "view",
      "type": "function"
    },
    {
      "inputs": [],
      "name": "internalStatesOrchestrator",
      "outputs": [
        {
          "internalType": "contract IInternalStateOrchestrator",
          "name": "",
          "type": "address"
        }
      ],
      "stateMutability": "view",
      "type": "function"
    },
    {
      "inputs": [],
      "name": "liquidityOrchestrator",
      "outputs": [
        {
          "internalType": "contract ILiquidityOrchestrator",
          "name": "",
          "type": "address"
        }
      ],
      "stateMutability": "view",
      "type": "function"
    },
    {
      "inputs": [
        {
          "internalType": "address",
          "name": "",
          "type": "address"
        }
      ],
      "name": "maxDeposit",
      "outputs": [
        {
          "internalType": "uint256",
          "name": "",
          "type": "uint256"
        }
      ],
      "stateMutability": "view",
      "type": "function"
    },
    {
      "inputs": [
        {
          "internalType": "address",
          "name": "",
          "type": "address"
        }
      ],
      "name": "maxMint",
      "outputs": [
        {
          "internalType": "uint256",
          "name": "",
          "type": "uint256"
        }
      ],
      "stateMutability": "view",
      "type": "function"
    },
    {
      "inputs": [
        {
          "internalType": "address",
          "name": "owner",
          "type": "address"
        }
      ],
      "name": "maxRedeem",
      "outputs": [
        {
          "internalType": "uint256",
          "name": "",
          "type": "uint256"
        }
      ],
      "stateMutability": "view",
      "type": "function"
    },
    {
      "inputs": [
        {
          "internalType": "address",
          "name": "owner",
          "type": "address"
        }
      ],
      "name": "maxWithdraw",
      "outputs": [
        {
          "internalType": "uint256",
          "name": "",
          "type": "uint256"
        }
      ],
      "stateMutability": "view",
      "type": "function"
    },
    {
      "inputs": [
        {
          "internalType": "uint256",
          "name": "",
          "type": "uint256"
        },
        {
          "internalType": "address",
          "name": "",
          "type": "address"
        }
      ],
      "name": "mint",
      "outputs": [
        {
          "internalType": "uint256",
          "name": "",
          "type": "uint256"
        }
      ],
      "stateMutability": "pure",
      "type": "function"
    },
    {
      "inputs": [],
      "name": "name",
      "outputs": [
        {
          "internalType": "string",
          "name": "",
          "type": "string"
        }
      ],
      "stateMutability": "view",
      "type": "function"
    },
    {
      "inputs": [],
      "name": "pendingCuratorFees",
      "outputs": [
        {
          "internalType": "uint256",
          "name": "",
          "type": "uint256"
        }
      ],
      "stateMutability": "view",
      "type": "function"
    },
    {
      "inputs": [
        {
          "internalType": "uint256",
          "name": "assets",
          "type": "uint256"
        }
      ],
      "name": "previewDeposit",
      "outputs": [
        {
          "internalType": "uint256",
          "name": "",
          "type": "uint256"
        }
      ],
      "stateMutability": "view",
      "type": "function"
    },
    {
      "inputs": [
        {
          "internalType": "uint256",
          "name": "shares",
          "type": "uint256"
        }
      ],
      "name": "previewMint",
      "outputs": [
        {
          "internalType": "uint256",
          "name": "",
          "type": "uint256"
        }
      ],
      "stateMutability": "view",
      "type": "function"
    },
    {
      "inputs": [
        {
          "internalType": "uint256",
          "name": "shares",
          "type": "uint256"
        }
      ],
      "name": "previewRedeem",
      "outputs": [
        {
          "internalType": "uint256",
          "name": "",
          "type": "uint256"
        }
      ],
      "stateMutability": "view",
      "type": "function"
    },
    {
      "inputs": [
        {
          "internalType": "uint256",
          "name": "assets",
          "type": "uint256"
        }
      ],
      "name": "previewWithdraw",
      "outputs": [
        {
          "internalType": "uint256",
          "name": "",
          "type": "uint256"
        }
      ],
      "stateMutability": "view",
      "type": "function"
    },
    {
      "inputs": [],
      "name": "processDepositRequests",
      "outputs": [],
      "stateMutability": "nonpayable",
      "type": "function"
    },
    {
      "inputs": [],
      "name": "processWithdrawRequests",
      "outputs": [],
      "stateMutability": "nonpayable",
      "type": "function"
    },
    {
      "inputs": [
        {
          "internalType": "uint256",
          "name": "",
          "type": "uint256"
        },
        {
          "internalType": "address",
          "name": "",
          "type": "address"
        },
        {
          "internalType": "address",
          "name": "",
          "type": "address"
        }
      ],
      "name": "redeem",
      "outputs": [
        {
          "internalType": "uint256",
          "name": "",
          "type": "uint256"
        }
      ],
      "stateMutability": "pure",
      "type": "function"
    },
    {
      "inputs": [
        {
          "internalType": "uint256",
          "name": "amount",
          "type": "uint256"
        }
      ],
      "name": "requestDeposit",
      "outputs": [],
      "stateMutability": "nonpayable",
      "type": "function"
    },
    {
      "inputs": [
        {
          "internalType": "uint256",
          "name": "shares",
          "type": "uint256"
        }
      ],
      "name": "requestWithdraw",
      "outputs": [],
      "stateMutability": "nonpayable",
      "type": "function"
    },
    {
      "inputs": [
        {
          "components": [
            {
              "internalType": "address",
              "name": "token",
              "type": "address"
            },
            {
              "internalType": "externalEuint32",
              "name": "weight",
              "type": "bytes32"
            }
          ],
          "internalType": "struct IOrionEncryptedVault.EncryptedIntent[]",
          "name": "intent",
          "type": "tuple[]"
        },
        {
          "internalType": "bytes",
          "name": "inputProof",
          "type": "bytes"
        }
      ],
      "name": "submitIntent",
      "outputs": [],
      "stateMutability": "nonpayable",
      "type": "function"
    },
    {
      "inputs": [],
      "name": "symbol",
      "outputs": [
        {
          "internalType": "string",
          "name": "",
          "type": "string"
        }
      ],
      "stateMutability": "view",
      "type": "function"
    },
    {
      "inputs": [],
      "name": "totalAssets",
      "outputs": [
        {
          "internalType": "uint256",
          "name": "",
          "type": "uint256"
        }
      ],
      "stateMutability": "view",
      "type": "function"
    },
    {
      "inputs": [],
      "name": "totalSupply",
      "outputs": [
        {
          "internalType": "uint256",
          "name": "",
          "type": "uint256"
        }
      ],
      "stateMutability": "view",
      "type": "function"
    },
    {
      "inputs": [
        {
          "internalType": "address",
          "name": "to",
          "type": "address"
        },
        {
          "internalType": "uint256",
          "name": "value",
          "type": "uint256"
        }
      ],
      "name": "transfer",
      "outputs": [
        {
          "internalType": "bool",
          "name": "",
          "type": "bool"
        }
      ],
      "stateMutability": "nonpayable",
      "type": "function"
    },
    {
      "inputs": [
        {
          "internalType": "address",
          "name": "from",
          "type": "address"
        },
        {
          "internalType": "address",
          "name": "to",
          "type": "address"
        },
        {
          "internalType": "uint256",
          "name": "value",
          "type": "uint256"
        }
      ],
      "name": "transferFrom",
      "outputs": [
        {
          "internalType": "bool",
          "name": "",
          "type": "bool"
        }
      ],
      "stateMutability": "nonpayable",
      "type": "function"
    },
    {
      "inputs": [
        {
          "internalType": "address",
          "name": "newCurator",
          "type": "address"
        }
      ],
      "name": "updateCurator",
      "outputs": [],
      "stateMutability": "nonpayable",
      "type": "function"
    },
    {
      "inputs": [
        {
          "internalType": "uint8",
          "name": "mode",
          "type": "uint8"
        },
        {
          "internalType": "uint16",
          "name": "performanceFee",
          "type": "uint16"
        },
        {
          "internalType": "uint16",
          "name": "managementFee",
          "type": "uint16"
        }
      ],
      "name": "updateFeeModel",
      "outputs": [],
      "stateMutability": "nonpayable",
      "type": "function"
    },
    {
      "inputs": [],
      "name": "updateHighWaterMark",
      "outputs": [],
      "stateMutability": "nonpayable",
      "type": "function"
    },
    {
      "inputs": [
        {
          "components": [
            {
              "internalType": "address",
              "name": "token",
              "type": "address"
            },
            {
              "internalType": "euint32",
              "name": "value",
              "type": "bytes32"
            }
          ],
          "internalType": "struct IOrionEncryptedVault.EncryptedPortfolio[]",
          "name": "portfolio",
          "type": "tuple[]"
        },
        {
          "internalType": "uint256",
          "name": "newTotalAssets",
          "type": "uint256"
        }
      ],
      "name": "updateVaultState",
      "outputs": [],
      "stateMutability": "nonpayable",
      "type": "function"
    },
    {
      "inputs": [
        {
          "internalType": "address[]",
          "name": "assets",
          "type": "address[]"
        }
      ],
      "name": "updateVaultWhitelist",
      "outputs": [],
      "stateMutability": "nonpayable",
      "type": "function"
    },
    {
      "inputs": [],
      "name": "vaultOwner",
      "outputs": [
        {
          "internalType": "address",
          "name": "",
          "type": "address"
        }
      ],
      "stateMutability": "view",
      "type": "function"
    },
    {
      "inputs": [
        {
          "internalType": "uint256",
          "name": "",
          "type": "uint256"
        },
        {
          "internalType": "address",
          "name": "",
          "type": "address"
        },
        {
          "internalType": "address",
          "name": "",
          "type": "address"
        }
      ],
      "name": "withdraw",
      "outputs": [
        {
          "internalType": "uint256",
          "name": "",
          "type": "uint256"
        }
      ],
      "stateMutability": "pure",
      "type": "function"
    }
  ],
  "bytecode": "0x60c060405234801561000f575f5ffd5b5060405161558638038061558683398101604081905261002e91610a11565b8484848484826001600160a01b0316637158da7c6040518163ffffffff1660e01b8152600401602060405180830381865afa15801561006f573d5f5f3e3d5ffd5b505050506040513d601f19601f820116820180604052508101906100939190610aaf565b8282610138610133604080516080810182525f808252602082018190529181018290526060810191909152506040805160808101825273687820221192c5b662b25367f70076a37bc79b6c815273848b0066793bcc60346da1f49049357399b8d5956020820152731364cbbf2cdf5032c47d8226a6f6fbd2afcdacac9181019190915273bc91f3dad1a5f19f8390c400196e58073b6a0bc4606082015290565b61057c565b61015573a02cda4ca3a71d7c46997716f4283aa851c28812610635565b60036101618382610b4e565b50600461016e8282610b4e565b5050505f5f6101828361067260201b60201c565b9150915081610192576012610194565b805b60ff1660a05250506001600160a01b03908116608052600160055584166101ce5760405163e6c4247b60e01b815260040160405180910390fd5b6001600160a01b0383166101f55760405163e6c4247b60e01b815260040160405180910390fd5b600680546001600160a01b038088166001600160a01b0319928316179092556007805487841690831617905560088054928616929091168217905560408051630691d8b960e31b8152905163348ec5c8916004808201926020929091908290030181865afa158015610269573d5f5f3e3d5ffd5b505050506040513d601f19601f8201168201806040525081019061028d9190610aaf565b60095f6101000a8154816001600160a01b0302191690836001600160a01b03160217905550826001600160a01b0316633a0dad8e6040518163ffffffff1660e01b8152600401602060405180830381865afa1580156102ee573d5f5f3e3d5ffd5b505050506040513d601f19601f820116820180604052508101906103129190610aaf565b600a5f6101000a8154816001600160a01b0302191690836001600160a01b03160217905550826001600160a01b031663d1717c7d6040518163ffffffff1660e01b8152600401602060405180830381865afa158015610373573d5f5f3e3d5ffd5b505050506040513d601f19601f820116820180604052508101906103979190610c08565b600a60146101000a81548160ff021916908360ff1602179055505f600d819055505f6014819055505f6015819055505f836001600160a01b0316637158da7c6040518163ffffffff1660e01b8152600401602060405180830381865afa158015610403573d5f5f3e3d5ffd5b505050506040513d601f19601f820116820180604052508101906104279190610aaf565b6001600160a01b031663313ce5676040518163ffffffff1660e01b8152600401602060405180830381865afa158015610462573d5f5f3e3d5ffd5b505050506040513d601f19601f820116820180604052508101906104869190610c08565b9050601260ff821611156104ad57604051631c03248960e11b815260040160405180910390fd5b6040805160808101909152805f81525f6020820181905260408201526060016104d86012600a610d33565b9052805160178054909190829060ff191660018360048111156104fd576104fd610c28565b021790555060208201518154604084015161ffff90811663010000000264ffff0000001991909316610100021664ffffffff00199091161717815560609091015160019091015561054c610748565b5050505050506105615f61081d60201b60201c565b601e5561056e6001610835565b601f5550610e649350505050565b80515f5160206155465f395f51905f5280546001600160a01b03199081166001600160a01b039384161790915560208301515f5160206155665f395f51905f528054831691841691909117905560408301517fed8d60e34876f751cc8b014c560745351147d9de11b9347c854e881b128ea6028054831691841691909117905560608301517fed8d60e34876f751cc8b014c560745351147d9de11b9347c854e881b128ea6038054909216921691909117905550565b50565b7f5ea69329017273582817d320489fbd94f775580e90c092699ca6f3d12fdf7d0080546001600160a01b0319166001600160a01b03831617905550565b60408051600481526024810182526020810180516001600160e01b031663313ce56760e01b17905290515f918291829182916001600160a01b038716916106b891610d41565b5f60405180830381855afa9150503d805f81146106f0576040519150601f19603f3d011682016040523d82523d5f602084013e6106f5565b606091505b509150915081801561070957506020815110155b1561073c575f818060200190518101906107239190610d57565b905060ff811161073a576001969095509350505050565b505b505f9485945092505050565b60085460408051636c366a2760e11b815290515f926001600160a01b03169163d86cd44e91600480830192869291908290030181865afa15801561078e573d5f5f3e3d5ffd5b505050506040513d5f823e601f3d908101601f191682016040526107b59190810190610d6e565b90505f5b8151811015610819575f6107f08383815181106107d8576107d8610e20565b6020026020010151600b61085060201b90919060201c565b90508061081057604051630ea075bf60e21b815260040160405180910390fd5b506001016107b9565b5050565b5f61082f63ffffffff8316600461086b565b92915050565b5f61082f82610844575f610847565b60015b60ff165f61086b565b5f610864836001600160a01b038416610902565b9392505050565b5f5160206155665f395f51905f5254604051639cd07acb60e01b81525f915f5160206155465f395f51905f52916001600160a01b0390911690639cd07acb906108ba9087908790600401610e34565b6020604051808303815f875af11580156108d6573d5f5f3e3d5ffd5b505050506040513d601f19601f820116820180604052508101906108fa9190610d57565b949350505050565b5f81815260018301602052604081205461094757508154600181810184555f84815260208082209093018490558454848252828601909352604090209190915561082f565b505f61082f565b6001600160a01b0381168114610632575f5ffd5b634e487b7160e01b5f52604160045260245ffd5b604051601f8201601f191681016001600160401b038111828210171561099e5761099e610962565b604052919050565b5f82601f8301126109b5575f5ffd5b81516001600160401b038111156109ce576109ce610962565b6109e1601f8201601f1916602001610976565b8181528460208386010111156109f5575f5ffd5b8160208501602083015e5f918101602001919091529392505050565b5f5f5f5f5f60a08688031215610a25575f5ffd5b8551610a308161094e565b6020870151909550610a418161094e565b6040870151909450610a528161094e565b60608701519093506001600160401b03811115610a6d575f5ffd5b610a79888289016109a6565b608088015190935090506001600160401b03811115610a96575f5ffd5b610aa2888289016109a6565b9150509295509295909350565b5f60208284031215610abf575f5ffd5b81516108648161094e565b600181811c90821680610ade57607f821691505b602082108103610afc57634e487b7160e01b5f52602260045260245ffd5b50919050565b601f821115610b4957805f5260205f20601f840160051c81016020851015610b275750805b601f840160051c820191505b81811015610b46575f8155600101610b33565b50505b505050565b81516001600160401b03811115610b6757610b67610962565b610b7b81610b758454610aca565b84610b02565b6020601f821160018114610bad575f8315610b965750848201515b5f19600385901b1c1916600184901b178455610b46565b5f84815260208120601f198516915b82811015610bdc5787850151825560209485019460019092019101610bbc565b5084821015610bf957868401515f19600387901b60f8161c191681555b50505050600190811b01905550565b5f60208284031215610c18575f5ffd5b815160ff81168114610864575f5ffd5b634e487b7160e01b5f52602160045260245ffd5b634e487b7160e01b5f52601160045260245ffd5b6001815b6001841115610c8b57808504811115610c6f57610c6f610c3c565b6001841615610c7d57908102905b60019390931c928002610c54565b935093915050565b5f82610ca15750600161082f565b81610cad57505f61082f565b8160018114610cc35760028114610ccd57610ce9565b600191505061082f565b60ff841115610cde57610cde610c3c565b50506001821b61082f565b5060208310610133831016604e8410600b8410161715610d0c575081810a61082f565b610d185f198484610c50565b805f1904821115610d2b57610d2b610c3c565b029392505050565b5f61086460ff841683610c93565b5f82518060208501845e5f920191825250919050565b5f60208284031215610d67575f5ffd5b5051919050565b5f60208284031215610d7e575f5ffd5b81516001600160401b03811115610d93575f5ffd5b8201601f81018413610da3575f5ffd5b80516001600160401b03811115610dbc57610dbc610962565b8060051b610dcc60208201610976565b91825260208184018101929081019087841115610de7575f5ffd5b6020850194505b83851015610e155784519250610e038361094e565b82825260209485019490910190610dee565b979650505050505050565b634e487b7160e01b5f52603260045260245ffd5b8281526040810160548310610e5757634e487b7160e01b5f52602160045260245ffd5b8260208301529392505050565b60805160a0516146c4610e825f395f50505f610f4d01526146c45ff3fe608060405234801561000f575f5ffd5b50600436106102a7575f3560e01c806301e1d114146102ab57806303d44854146102c257806306fdde03146102d757806307a2d13a146102ec578063095ea7b3146102ff5780630a28a477146103225780630c6a62dd146103355780630d1e6667146103485780630df571f71461035b57806318160ddd1461036e5780631f52692b1461037657806323b872dd146103965780632dae2967146103a9578063313ce567146103b157806333fdc592146103c6578063348ec5c8146103ce57806338d52e0f146103e15780633a0dad8e146103e95780633ab6d27c146103fc578063402d267d1461040f5780634cdad506146102ec57806358df8301146104235780636e553f651461043657806370a082311461044957806373d8057d1461045c578063745400c9146104785780637847ea531461048b57806379502c55146104ab57806394bf804d1461043657806395d89b41146104be57806397ee1144146104c65780639908840c146104fc5780639adb298114610505578063a68a526714610518578063a9059cbb1461052b578063aa9d3a601461053e578063acdb3d5114610546578063b3d7f6b91461054f578063b460af9414610562578063b6eba65314610570578063b76b720e14610586578063ba08765214610562578063bdca91651461058e578063c0b568e114610597578063c37fc8a8146105aa578063c392e58c146105b2578063c63d75b61461040f578063c6e6f592146105c5578063cce4705b146105d8578063ce96cb77146105eb578063d1699c26146105fe578063d1717c7d14610606578063d3d034581461061a578063d853365f14610622578063d905777e1461062a578063dd62ed3e1461063d578063e51a85f614610650578063e66f53b714610663578063ef8b30f7146105c5575b5f5ffd5b600d545b6040519081526020015b60405180910390f35b6102d56102d0366004613c31565b610676565b005b6102df610837565b6040516102b99190613cf1565b6102af6102fa366004613d03565b6108c7565b61031261030d366004613d1a565b6108d8565b60405190151581526020016102b9565b6102af610330366004613d03565b6108ef565b6102d5610343366004613d42565b6108fb565b6102d5610356366004613d03565b61096f565b6102d5610369366004613d5b565b610bf0565b6002546102af565b600654610389906001600160a01b031681565b6040516102b99190613d7b565b6103126103a4366004613d8f565b610c7f565b6102d5610ca4565b60125b60405160ff90911681526020016102b9565b6102d5610cf3565b600954610389906001600160a01b031681565b610389610f4b565b600a54610389906001600160a01b031681565b6102d561040a366004613de6565b610f6f565b6102af61041d366004613d42565b505f1990565b6102d5610431366004613e3b565b61114e565b6102af610444366004613f65565b61116d565b6102af610457366004613d42565b611187565b61046561271081565b60405161ffff90911681526020016102b9565b6102d5610486366004613d03565b6111a1565b6104966301e1338081565b60405163ffffffff90911681526020016102b9565b600854610389906001600160a01b031681565b6102df611389565b6017546018546104ec9160ff81169161ffff610100830481169263010000009004169084565b6040516102b99493929190613fa3565b61046561012c81565b6102d5610513366004614015565b611398565b6102af61052636600461405c565b61154b565b610312610539366004613d1a565b61158b565b6102d5611598565b6102af60165481565b6102af61055d366004613d03565b61183f565b6102af61044436600461408a565b61057861184b565b6040516102b99291906140c3565b6102d56119cc565b610465610bb881565b6102d56105a5366004613d03565b611afd565b6015546102af565b6102d56105c036600461414c565b611cc0565b6102af6105d3366004613d03565b6121e8565b6102d56105e6366004613d03565b6121f3565b6102af6105f9366004613d42565b6123e0565b6014546102af565b600a546103b490600160a01b900460ff1681565b6105786123f3565b6103b4601281565b6102af610638366004613d42565b612557565b6102af61064b3660046141e2565b612561565b6102af61065e366004613d03565b61258b565b600754610389906001600160a01b031681565b6006546001600160a01b031633146106a157604051631a27eac360e11b815260040160405180910390fd5b60085f9054906101000a90046001600160a01b03166001600160a01b031663edcf9c1f6040518163ffffffff1660e01b8152600401602060405180830381865afa1580156106f1573d5f5f3e3d5ffd5b505050506040513d601f19601f82011682018060405250810190610715919061420a565b610732576040516312aecd8160e01b815260040160405180910390fd5b61073c600b6125c4565b5f5b8151811015610833575f82828151811061075a5761075a614225565b6020908102919091010151600854604051633af32abf60e01b81529192506001600160a01b031690633af32abf90610796908490600401613d7b565b602060405180830381865afa1580156107b1573d5f5f3e3d5ffd5b505050506040513d601f19601f820116820180604052508101906107d5919061420a565b6107fd578060405163751dff9760e11b81526004016107f49190613d7b565b60405180910390fd5b5f610809600b836125cd565b90508061082957604051630ea075bf60e21b815260040160405180910390fd5b505060010161073e565b5050565b60606003805461084690614239565b80601f016020809104026020016040519081016040528092919081815260200182805461087290614239565b80156108bd5780601f10610894576101008083540402835291602001916108bd565b820191905f5260205f20905b8154815290600101906020018083116108a057829003601f168201915b5050505050905090565b5f6108d2825f6125e1565b92915050565b5f336108e5818585612622565b5060019392505050565b5f6108d2826001612634565b6006546001600160a01b0316331461092657604051631a27eac360e11b815260040160405180910390fd5b6001600160a01b03811661094d5760405163e6c4247b60e01b815260040160405180910390fd5b600780546001600160a01b0319166001600160a01b0392909216919091179055565b610977612666565b60085f9054906101000a90046001600160a01b03166001600160a01b031663edcf9c1f6040518163ffffffff1660e01b8152600401602060405180830381865afa1580156109c7573d5f5f3e3d5ffd5b505050506040513d601f19601f820116820180604052508101906109eb919061420a565b610a08576040516312aecd8160e01b815260040160405180910390fd5b805f03610a3157610a17610f4b565b604051636b30633560e01b81526004016107f49190613d7b565b5f610a3a610f4b565b6001600160a01b03166370a08231336040518263ffffffff1660e01b8152600401610a659190613d7b565b602060405180830381865afa158015610a80573d5f5f3e3d5ffd5b505050506040513d601f19601f82011682018060405250810190610aa49190614271565b905080821115610acd57338183604051632e2a182f60e11b81526004016107f493929190614288565b5f610ad6610f4b565b600a546040516323b872dd60e01b81526001600160a01b03928316926323b872dd92610b0c9233929091169088906004016142a9565b6020604051808303815f875af1158015610b28573d5f5f3e3d5ffd5b505050506040513d601f19601f82011682018060405250810190610b4c919061420a565b905080610b6c576040516312171d8360e31b815260040160405180910390fd5b5f610b78600e33612690565b9150610b93905033610b8a86846142e1565b600e91906126b6565b508360145f828254610ba591906142e1565b909155505060405184815233907f08d79f77ab5f78e7e780abb1f7ac9e9923340d5bae78f6e83e7999905b248ea2906020015b60405180910390a2505050610bed6001600555565b50565b600a546001600160a01b03163314610c1b57604051631a27eac360e11b815260040160405180910390fd5b8015610833578060165f828254610c3291906142e1565b909155505060165460405183917f8b8789cf9157fe7b016901e4ed3a5d0971caa8b7c031da0b25638ccf65841b2a91610c7391858252602082015260400190565b60405180910390a25050565b5f33610c8c8582856126cb565b610c97858585612716565b60019150505b9392505050565b600a546001600160a01b03163314610ccf57604051631a27eac360e11b815260040160405180910390fd5b5f610ce160125b6102fa90600a6143d7565b601854909150811115610bed57601855565b600a546001600160a01b03163314610d1e57604051631a27eac360e11b815260040160405180910390fd5b610d26612666565b5f610d31600e612773565b90505f8163ffffffff166001600160401b03811115610d5257610d52613bb0565b604051908082528060200260200182016040528015610d7b578160200160208202803683370190505b5090505f8263ffffffff166001600160401b03811115610d9d57610d9d613bb0565b604051908082528060200260200182016040528015610dc6578160200160208202803683370190505b5090505f5b8363ffffffff168163ffffffff161015610e60575f80610df5600e63ffffffff8086169061277d16565b9150915081858463ffffffff1681518110610e1257610e12614225565b60200260200101906001600160a01b031690816001600160a01b03168152505080848463ffffffff1681518110610e4b57610e4b614225565b60209081029190910101525050600101610dcb565b505f60148190555b8363ffffffff168163ffffffff161015610f3b575f838263ffffffff1681518110610e9557610e95614225565b602002602001015190505f838363ffffffff1681518110610eb857610eb8614225565b60200260200101519050610ed682600e61278b90919063ffffffff16565b505f610ee1826121e8565b9050610eed838261279f565b826001600160a01b03167f85a190caa61692b36b63a55e069330d18ab9af179fed7a25c16a4262bc63b7d283604051610f2891815260200190565b60405180910390a2505050600101610e68565b50505050610f496001600555565b565b7f000000000000000000000000000000000000000000000000000000000000000090565b6006546001600160a01b03163314610f9a57604051631a27eac360e11b815260040160405180910390fd5b60085f9054906101000a90046001600160a01b03166001600160a01b031663edcf9c1f6040518163ffffffff1660e01b8152600401602060405180830381865afa158015610fea573d5f5f3e3d5ffd5b505050506040513d601f19601f8201168201806040525081019061100e919061420a565b61102b576040516312aecd8160e01b815260040160405180910390fd5b600460ff84161115611050576040516317dbc4cb60e21b815260040160405180910390fd5b610bb861ffff83161115611077576040516317dbc4cb60e21b815260040160405180910390fd5b61012c61ffff8216111561109e576040516317dbc4cb60e21b815260040160405180910390fd5b8260ff1660048111156110b3576110b3613f8f565b6017805460ff191660018360048111156110cf576110cf613f8f565b02179055506017805464ffffffff00191661010061ffff85811691820264ffff0000001916929092176301000000928516928302179092556040805160ff8716815260208101939093528201527fd24f39e523bfa412fa391702710dc62e1c82d87a8e83228a37c42be1b4870f459060600160405180910390a1505050565b61115883826127d3565b506020805460ff191691151591909117905550565b5f60405163125ad87760e31b815260040160405180910390fd5b6001600160a01b03165f9081526020819052604090205490565b60085f9054906101000a90046001600160a01b03166001600160a01b031663edcf9c1f6040518163ffffffff1660e01b8152600401602060405180830381865afa1580156111f1573d5f5f3e3d5ffd5b505050506040513d601f19601f82011682018060405250810190611215919061420a565b611232576040516312aecd8160e01b815260040160405180910390fd5b805f036112545730604051636b30633560e01b81526004016107f49190613d7b565b5f61125e33611187565b90508082111561128757338183604051632e2a182f60e11b81526004016107f493929190614288565b6040516323b872dd60e01b81525f9030906323b872dd906112b0903390849088906004016142a9565b6020604051808303815f875af11580156112cc573d5f5f3e3d5ffd5b505050506040513d601f19601f820116820180604052508101906112f0919061420a565b905080611310576040516312171d8360e31b815260040160405180910390fd5b5f61131c601133612690565b915061133790503361132e86846142e1565b601191906126b6565b508360155f82825461134991906142e1565b909155505060405184815233907ff7774b688d56120b783560a913ee60792a73dfd511812b7be5eccf10d08c66899060200160405180910390a250505050565b60606004805461084690614239565b600a546001600160a01b031633146113c357604051631a27eac360e11b815260040160405180910390fd5b601a545f5b8161ffff168161ffff16101561142157601e5460195f601a8461ffff16815481106113f5576113f5614225565b5f9182526020808320909101546001600160a01b031683528201929092526040019020556001016113c8565b5061142d601a5f613b40565b5f5b8161ffff168161ffff16101561150c5784848261ffff1681811061145557611455614225565b9050604002016020013560195f87878561ffff1681811061147857611478614225565b61148e9260206040909202019081019150613d42565b6001600160a01b0316815260208101919091526040015f2055601a858561ffff84168181106114bf576114bf614225565b6114d59260206040909202019081019150613d42565b8154600180820184555f93845260209093200180546001600160a01b0319166001600160a01b03929092169190911790550161142f565b50600d8290556040518281527f5e1ff954b5e5257e9ee5d4cb07059e8f5e69b1aaaf9911e5d8d90a6894de9c219060200160405180910390a150505050565b5f61158361155a8460016142e1565b61156261283a565b61156d90600a6143d7565b60025461157a91906142e1565b869190856128b6565b949350505050565b5f336108e5818585612716565b600a546001600160a01b031633146115c357604051631a27eac360e11b815260040160405180910390fd5b6115cb612666565b5f6115d66011612773565b90505f8163ffffffff166001600160401b038111156115f7576115f7613bb0565b604051908082528060200260200182016040528015611620578160200160208202803683370190505b5090505f8263ffffffff166001600160401b0381111561164257611642613bb0565b60405190808252806020026020018201604052801561166b578160200160208202803683370190505b5090505f5b8363ffffffff168163ffffffff161015611705575f8061169a601163ffffffff8086169061277d16565b9150915081858463ffffffff16815181106116b7576116b7614225565b60200260200101906001600160a01b031690816001600160a01b03168152505080848463ffffffff16815181106116f0576116f0614225565b60209081029190910101525050600101611670565b505f60158190555b8363ffffffff168163ffffffff161015610f3b575f838263ffffffff168151811061173a5761173a614225565b602002602001015190505f838363ffffffff168151811061175d5761175d614225565b6020026020010151905061177b82601161278b90919063ffffffff16565b505f611786826108c7565b905061179230836128f8565b600a54604051632eea26bd60e11b81526001600160a01b0390911690635dd44d7a906117c490869085906004016143e5565b5f604051808303815f87803b1580156117db575f5ffd5b505af11580156117ed573d5f5f3e3d5ffd5b50505050826001600160a01b03167f44b2ff9ffcefe2052a8afdbed44a04bf3db4592ae90c6b96c818bd28573e41e88360405161182c91815260200190565b60405180910390a250505060010161170d565b5f6108d28260016125e1565b601c54606090819061ffff81166001600160401b0381111561186f5761186f613bb0565b604051908082528060200260200182016040528015611898578160200160208202803683370190505b5092508061ffff166001600160401b038111156118b7576118b7613bb0565b6040519080825280602002602001820160405280156118e0578160200160208202803683370190505b5091505f5b8161ffff168161ffff1610156119c657601c8161ffff168154811061190c5761190c614225565b905f5260205f20015f9054906101000a90046001600160a01b0316848261ffff168151811061193d5761193d614225565b60200260200101906001600160a01b031690816001600160a01b031681525050601b5f601c8361ffff168154811061197757611977614225565b5f9182526020808320909101546001600160a01b031683528201929092526040019020548351849061ffff84169081106119b3576119b3614225565b60209081029190910101526001016118e5565b50509091565b6006546001600160a01b031633146119f757604051631a27eac360e11b815260040160405180910390fd5b60085f9054906101000a90046001600160a01b03166001600160a01b031663edcf9c1f6040518163ffffffff1660e01b8152600401602060405180830381865afa158015611a47573d5f5f3e3d5ffd5b505050506040513d601f19601f82011682018060405250810190611a6b919061420a565b611a88576040516312aecd8160e01b815260040160405180910390fd5b6016545f03611a9957610a17610f4b565b601680545f909155600a5460405163741fca4b60e01b8152600481018390526001600160a01b039091169063741fca4b906024015f604051808303815f87803b158015611ae4575f5ffd5b505af1158015611af6573d5f5f3e3d5ffd5b5050505050565b611b05612666565b60085f9054906101000a90046001600160a01b03166001600160a01b031663edcf9c1f6040518163ffffffff1660e01b8152600401602060405180830381865afa158015611b55573d5f5f3e3d5ffd5b505050506040513d601f19601f82011682018060405250810190611b79919061420a565b611b96576040516312aecd8160e01b815260040160405180910390fd5b805f03611ba557610a17610f4b565b5f611bb1600e33612690565b91505081811015611bd5576040516332194fd360e21b815260040160405180910390fd5b600a546040516351edffb160e01b81526001600160a01b03909116906351edffb190611c0790339086906004016143e5565b5f604051808303815f87803b158015611c1e575f5ffd5b505af1158015611c30573d5f5f3e3d5ffd5b505050505f8282611c4191906143fe565b9050805f03611c5b57611c55600e3361278b565b50611c69565b611c67600e33836126b6565b505b8260145f828254611c7a91906143fe565b909155505060405183815233907f96a9a6886cdf3047a125454218a23d3961fd3a78643123b248a9d106d0ac94fd9060200160405180910390a25050610bed6001600555565b6007546001600160a01b03163314611ceb57604051631a27eac360e11b815260040160405180910390fd5b611cf3612666565b5f839003611d1457604051631121aa8d60e01b815260040160405180910390fd5b601e5483905f61ffff83166001600160401b03811115611d3657611d36613bb0565b604051908082528060200260200182016040528015611d5f578160200160208202803683370190505b5090505f8361ffff166001600160401b03811115611d7f57611d7f613bb0565b604051908082528060200260200182016040528015611da8578160200160208202803683370190505b50601f549091505f61ffff86166001600160401b03811115611dcc57611dcc613bb0565b604051908082528060200260200182016040528015611df5578160200160208202803683370190505b5090505f5b8661ffff168161ffff161015611fcc575f8b8b8361ffff16818110611e2157611e21614225565b611e379260206040909202019081019150613d42565b905080838361ffff1681518110611e5057611e50614225565b60200260200101906001600160a01b031690816001600160a01b0316815250505f611ecf8d8d8561ffff16818110611e8a57611e8a614225565b905060400201602001358c8c8080601f0160208091040260200160405190810160405280939291908181526020018383808284375f9201919091525061292c92505050565b9050611eda81612939565b505f611ee882601e54612948565b9050611ef48682612976565b6001600160a01b0384165f908152601d602052604090205490965060ff1615611f3257826040516346bdabe160e01b81526004016107f49190613d7b565b6001600160a01b0383165f908152601d60205260409020805460ff1916600117905587518390899061ffff8716908110611f6e57611f6e614225565b60200260200101906001600160a01b031690816001600160a01b03168152505081878561ffff1681518110611fa557611fa5614225565b602002602001018181525050611fbb89836129a4565b98505060019092019150611dfa9050565b50611fd6816129d2565b5f611ffb600a60149054906101000a900460ff16600a611ff691906143d7565b612a4a565b90505f6120088783612a5c565b90505f6120158583612976565b905061202081612939565b506040805160018082528183019092525f916020808301908036833701905050905081815f8151811061205557612055614225565b6020908102919091010152612071816358df830160e01b612a8a565b505f5b601c5461ffff90811690821610156120cf57601e54601b5f601c8461ffff16815481106120a3576120a3614225565b5f9182526020808320909101546001600160a01b03168352820192909252604001902055600101612074565b506120db601c5f613b40565b5f5b8a61ffff168161ffff1610156121a3575f898261ffff168151811061210457612104614225565b60200260200101519050888261ffff168151811061212457612124614225565b6020908102919091018101516001600160a01b039092165f818152601b8352604080822094909455601c805460018181019092557f0e4562a10381dec21b205ed72637e6b1b523bdd0e4d4d50af5cd23dd4500a2110180546001600160a01b03191684179055918152601d909252919020805460ff19169055016120dd565b5060405133907f2d47a742b8d7df7c1fc5a9a631b206b364e6cb2722490759f63bb3ab14b132e0905f90a2505050505050505050506121e26001600555565b50505050565b5f6108d2825f612634565b6121fb612666565b60085f9054906101000a90046001600160a01b03166001600160a01b031663edcf9c1f6040518163ffffffff1660e01b8152600401602060405180830381865afa15801561224b573d5f5f3e3d5ffd5b505050506040513d601f19601f8201168201806040525081019061226f919061420a565b61228c576040516312aecd8160e01b815260040160405180910390fd5b805f036122ae5730604051636b30633560e01b81526004016107f49190613d7b565b5f6122ba601133612690565b915050818110156122de576040516312ea1f4960e11b815260040160405180910390fd5b5f6122e983836143fe565b9050805f03612303576122fd60113361278b565b50612311565b61230f601133836126b6565b505b8260155f82825461232291906143fe565b909155505060405163a9059cbb60e01b81525f90309063a9059cbb9061234e90339088906004016143e5565b6020604051808303815f875af115801561236a573d5f5f3e3d5ffd5b505050506040513d601f19601f8201168201806040525081019061238e919061420a565b9050806123ae576040516312171d8360e31b815260040160405180910390fd5b60405184815233907f9cf37535785001dcc9767688232fcbc8698b3002d1207b50bc2afec3ff8934dc90602001610bd8565b5f6108d26123ed83611187565b5f6125e1565b601a54606090819061ffff81166001600160401b0381111561241757612417613bb0565b604051908082528060200260200182016040528015612440578160200160208202803683370190505b5092508061ffff166001600160401b0381111561245f5761245f613bb0565b604051908082528060200260200182016040528015612488578160200160208202803683370190505b5091505f5b8161ffff168161ffff1610156119c6575f601a8261ffff16815481106124b5576124b5614225565b905f5260205f20015f9054906101000a90046001600160a01b0316905080858361ffff16815181106124e9576124e9614225565b60200260200101906001600160a01b031690816001600160a01b03168152505060195f826001600160a01b03166001600160a01b031681526020019081526020015f2054848361ffff168151811061254357612543614225565b60209081029190910101525060010161248d565b5f6108d282611187565b6001600160a01b039182165f90815260016020908152604080832093909416825291909152205490565b5f5f61259683612a96565b90505f6125a382856143fe565b90505f6125af82612b60565b90506125bb81846142e1565b95945050505050565b610bed81612c1c565b5f610c9d836001600160a01b038416612c75565b5f610c9d6125ee600d5490565b6125f99060016142e1565b61260161283a565b61260c90600a6143d7565b60025461261991906142e1565b859190856128b6565b61262f8383836001612cbc565b505050565b5f610c9d61264061283a565b61264b90600a6143d7565b60025461265891906142e1565b600d546126199060016142e1565b60026005540361268957604051633ee5aeb560e01b815260040160405180910390fd5b6002600555565b5f8080806126a7866001600160a01b038716612d8e565b909450925050505b9250929050565b5f611583846001600160a01b03851684612dc6565b5f6126d68484612561565b90505f198110156121e2578181101561270857828183604051637dc7a0d960e11b81526004016107f493929190614288565b6121e284848484035f612cbc565b6001600160a01b03831661273f575f604051634b637e8f60e11b81526004016107f49190613d7b565b6001600160a01b038216612768575f60405163ec442f0560e01b81526004016107f49190613d7b565b61262f838383612de2565b5f6108d282612ef5565b5f8080806126a78686612eff565b5f610c9d836001600160a01b038416612f28565b6001600160a01b0382166127c8575f60405163ec442f0560e01b81526004016107f49190613d7b565b6108335f8383612de2565b5f6127dd83612f44565b90505f6127ea8284612fe0565b90508061280a5760405163cf6c44e960e01b815260040160405180910390fd5b60405184907f1af0453083661051f6e56e5c070792320652e612154bf9af8637bb1e7655b99d905f90a250505050565b5f5f612844610f4b565b6001600160a01b031663313ce5676040518163ffffffff1660e01b8152600401602060405180830381865afa15801561287f573d5f5f3e3d5ffd5b505050506040513d601f19601f820116820180604052508101906128a39190614411565b90506128b081601261442c565b91505090565b5f6128e36128c3836130c7565b80156128de57505f84806128d9576128d9614445565b868809115b151590565b6128ee8686866130f3565b6125bb91906142e1565b6001600160a01b038216612921575f604051634b637e8f60e11b81526004016107f49190613d7b565b610833825f83612de2565b5f610c9d838360046131a3565b5f612944823061328d565b5090565b5f8261295a576129575f612a4a565b92505b8161296b576129685f612a4a565b91505b610c9d83835f6132fa565b5f82612988576129855f613390565b92505b81612999576129965f613390565b91505b610c9d83835f6133ab565b5f826129b6576129b35f612a4a565b92505b816129c7576129c45f612a4a565b91505b610c9d83835f613401565b5f5b815181101561083357612a0a8282815181106129f2576129f2614225565b6020026020010151600b61345790919063ffffffff16565b612a4257818181518110612a2057612a20614225565b602002602001015160405163751dff9760e11b81526004016107f49190613d7b565b6001016129d4565b5f6108d28263ffffffff16600461346b565b5f82612a6e57612a6b5f612a4a565b92505b81612a7f57612a7c5f612a4a565b91505b610c9d83835f6134ea565b5f610c9d83835f613540565b6017545f906301000000900461ffff168103612ab357505f919050565b6017545f90612ad0906301000000900461ffff16846127106130f3565b9050610c9d60095f9054906101000a90046001600160a01b03166001600160a01b0316634ff0876a6040518163ffffffff1660e01b8152600401602060405180830381865afa158015612b25573d5f5f3e3d5ffd5b505050506040513d601f19601f82011682018060405250810190612b499190614459565b829063ffffffff908116906301e13380906130f316565b6017545f90610100900461ffff168103612b7b57505f919050565b5f612bbf612b8a8460016142e1565b612b9261283a565b612b9d90600a6143d7565b600254612baa91906142e1565b5f612bb76012600a6143d7565b9291906128b6565b6017549091505f908190612bd59060ff16613645565b91509150818311612bea57505f949350505050565b6017545f90612c0390610100900461ffff1685846130f3565b9050612c1281876127106130f3565b9695505050505050565b5f612c25825490565b90505f5b81811015612c6e57826001015f845f018381548110612c4a57612c4a614225565b905f5260205f20015481526020019081526020015f205f9055806001019050612c29565b50505f9055565b5f612c80838361372f565b612cb557508154600181810184555f8481526020808220909301849055845484825282860190935260409020919091556108d2565b505f6108d2565b6001600160a01b038416612ce5575f60405163e602df0560e01b81526004016107f49190613d7b565b6001600160a01b038316612d0e575f604051634a1406b160e11b81526004016107f49190613d7b565b6001600160a01b038085165f90815260016020908152604080832093871683529290522082905580156121e257826001600160a01b0316846001600160a01b03167f8c5be1e5ebec7d5bd14f71427d1e84f3dd0314c0f7b2291e5b200ac8c7c3b92584604051612d8091815260200190565b60405180910390a350505050565b5f818152600283016020526040812054819080612dbb57612daf8585613746565b92505f91506126af9050565b6001925090506126af565b5f82815260028401602052604081208290556115838484613751565b6001600160a01b038316612e0c578060025f828254612e0191906142e1565b90915550612e699050565b6001600160a01b0383165f9081526020819052604090205481811015612e4b5783818360405163391434e360e21b81526004016107f493929190614288565b6001600160a01b0384165f9081526020819052604090209082900390555b6001600160a01b038216612e8557600280548290039055612ea3565b6001600160a01b0382165f9081526020819052604090208054820190555b816001600160a01b0316836001600160a01b03167fddf252ad1be2c89b69c2b068fc378daa952ba7f163c4a11628f55a4df523b3ef83604051612ee891815260200190565b60405180910390a3505050565b5f6108d28261375c565b5f8080612f0c8585613765565b5f81815260029690960160205260409095205494959350505050565b5f8181526002830160205260408120819055610c9d8383613770565b60605f612f4f61377b565b5f84815260028201602052604081205491925003612f805760405163d66ca67560e01b815260040160405180910390fd5b5f83815260028201602090815260409182902080548351818402810184019094528084529091830182828015612fd357602002820191905f5260205f20905b815481526020019060010190808311612fbf575b5050505050915050919050565b5f602481612fed8561379f565b90505f816001600160401b0381111561300857613008613bb0565b6040519080825280601f01601f191660200182016040528015613032576020820181803683370190505b509050818360208301375f61304561384c565b6002810154604051632c027b1360e21b81529192506001600160a01b03169063b009ec4c9061307c908a9086908b906004016144b6565b6020604051808303815f875af1158015613098573d5f5f3e3d5ffd5b505050506040513d601f19601f820116820180604052508101906130bc919061420a565b979650505050505050565b5f60028260038111156130dc576130dc613f8f565b6130e69190614540565b60ff166001149050919050565b5f5f5f6131008686613870565b91509150815f036131245783818161311a5761311a614445565b0492505050610c9d565b81841161313b5761313b600385150260111861388c565b5f848688095f868103871696879004966002600389028118808a02820302808a02820302808a02820302808a02820302808a02820302808a02909103029181900381900460010185841190960395909502919093039390930492909217029150509392505050565b5f5f6131ad61384c565b600181015460405163196d0b9b60e01b81529192506001600160a01b03169063196d0b9b906131e6908890339089908990600401614581565b6020604051808303815f875af1158015613202573d5f5f3e3d5ffd5b505050506040513d601f19601f820116820180604052508101906132269190614271565b8154604051630f8e573b60e21b81529193506001600160a01b031690633e395cec9061325890859033906004016145b9565b5f604051808303815f87803b15801561326f575f5ffd5b505af1158015613281573d5f5f3e3d5ffd5b50505050509392505050565b5f61329661384c565b8054604051635ca4b5b160e11b81529192506001600160a01b03169063b9496b62906132c890869086906004016145b9565b5f604051808303815f87803b1580156132df575f5ffd5b505af11580156132f1573d5f5f3e3d5ffd5b50505050505050565b5f5f821561330d5750600160f81b613310565b505f5b5f61331961384c565b60018101546040516385362ee760e01b81529192506001600160a01b0316906385362ee790613350908990899087906004016145d0565b6020604051808303815f875af115801561336c573d5f5f3e3d5ffd5b505050506040513d601f19601f82011682018060405250810190612c129190614271565b5f6108d28261339f575f6133a2565b60015b60ff165f61346b565b5f5f82156133be5750600160f81b6133c1565b505f5b5f6133ca61384c565b600181015460405163d99882d560e01b81529192506001600160a01b03169063d99882d590613350908990899087906004016145d0565b5f5f82156134145750600160f81b613417565b505f5b5f61342061384c565b600181015460405163022f65e760e31b81529192506001600160a01b03169063117b2f3890613350908990899087906004016145d0565b5f610c9d836001600160a01b03841661372f565b5f5f61347561384c565b6001810154604051639cd07acb60e01b81529192506001600160a01b031690639cd07acb906134aa90879087906004016145f0565b6020604051808303815f875af11580156134c6573d5f5f3e3d5ffd5b505050506040513d601f19601f820116820180604052508101906115839190614271565b5f5f82156134fd5750600160f81b613500565b505f5b5f61350961384c565b600181015460405163f77f3f1d60e01b81529192506001600160a01b03169063f77f3f1d90613350908990899087906004016145d0565b5f5f61354a61377b565b9050806001015491505f61355c61384c565b8054604051637d6e912360e11b81529192506001600160a01b03169063fadd22469061358c908990600401614604565b5f604051808303815f87803b1580156135a3575f5ffd5b505af11580156135b5573d5f5f3e3d5ffd5b50508354604051633263b83b60e01b81526001600160a01b039091169250633263b83b915086906135ee9087908b908b90600401614616565b5f604051808303818588803b158015613605575f5ffd5b505af1158015613617573d5f5f3e3d5ffd5b5050505050613626838761389d565b600182018054905f61363783614647565b919050555050509392505050565b5f80806136526012610cd6565b90505f84600481111561366757613667613f8f565b0361367757809250829150613729565b600384600481111561368b5761368b613f8f565b0361369d576018549250829150613729565b60018460048111156136b1576136b1613f8f565b036136c9576136bf816138f7565b9250809150613729565b60028460048111156136dd576136dd613f8f565b036136f5576136eb816138f7565b9250829150613729565b600484600481111561370957613709613f8f565b03613729576018546137239061371e836138f7565b613a1d565b92508291505b50915091565b5f9081526001919091016020526040902054151590565b5f610c9d8383613a2c565b5f610c9d8383612c75565b5f6108d2825490565b5f610c9d8383613a37565b5f610c9d8383613a5d565b7f5ea69329017273582817d320489fbd94f775580e90c092699ca6f3d12fdf7d0090565b80515f9081805b82811015613840575f8582815181106137c1576137c1614225565b6020026020010151601e602081106137db576137db614225565b1a60538111156137ed576137ed613f8f565b9050600981605381111561380357613803613f8f565b60ff16101561381e576138176020846142e1565b9250613837565b60405163ce54a8d160e01b815260040160405180910390fd5b506001016137a6565b506115836020826142e1565b7fed8d60e34876f751cc8b014c560745351147d9de11b9347c854e881b128ea60090565b5f805f1983850993909202808410938190039390930393915050565b634e487b715f52806020526024601cfd5b5f6138a661377b565b5f848152600282016020526040902054909150156138d757604051633f06d22b60e01b815260040160405180910390fd5b5f838152600282016020908152604090912083516121e292850190613b5b565b5f5f60085f9054906101000a90046001600160a01b03166001600160a01b031663f3cc69936040518163ffffffff1660e01b8152600401602060405180830381865afa158015613949573d5f5f3e3d5ffd5b505050506040513d601f19601f8201168201806040525081019061396d919061465f565b61ffff1690505f613a0260095f9054906101000a90046001600160a01b03166001600160a01b0316634ff0876a6040518163ffffffff1660e01b8152600401602060405180830381865afa1580156139c7573d5f5f3e3d5ffd5b505050506040513d601f19601f820116820180604052508101906139eb9190614459565b839063ffffffff908116906301e13380906130f316565b9050611583613a13826127106142e1565b85906127106130f3565b5f828218828411028218610c9d565b5f610c9d838361372f565b5f825f018281548110613a4c57613a4c614225565b905f5260205f200154905092915050565b5f8181526001830160205260408120548015613b37575f613a7f6001836143fe565b85549091505f90613a92906001906143fe565b9050808214613af1575f865f018281548110613ab057613ab0614225565b905f5260205f200154905080875f018481548110613ad057613ad0614225565b5f918252602080832090910192909255918252600188019052604090208390555b8554869080613b0257613b0261467a565b600190038181905f5260205f20015f90559055856001015f8681526020019081526020015f205f9055600193505050506108d2565b5f9150506108d2565b5080545f8255905f5260205f2090810190610bed9190613b9c565b828054828255905f5260205f20908101928215613b94579160200282015b82811115613b94578251825591602001919060010190613b79565b506129449291505b5b80821115612944575f8155600101613b9d565b634e487b7160e01b5f52604160045260245ffd5b604051601f8201601f191681016001600160401b0381118282101715613bec57613bec613bb0565b604052919050565b5f6001600160401b03821115613c0c57613c0c613bb0565b5060051b60200190565b80356001600160a01b0381168114613c2c575f5ffd5b919050565b5f60208284031215613c41575f5ffd5b81356001600160401b03811115613c56575f5ffd5b8201601f81018413613c66575f5ffd5b8035613c79613c7482613bf4565b613bc4565b8082825260208201915060208360051b850101925086831115613c9a575f5ffd5b6020840193505b82841015612c1257613cb284613c16565b825260209384019390910190613ca1565b5f81518084528060208401602086015e5f602082860101526020601f19601f83011685010191505092915050565b602081525f610c9d6020830184613cc3565b5f60208284031215613d13575f5ffd5b5035919050565b5f5f60408385031215613d2b575f5ffd5b613d3483613c16565b946020939093013593505050565b5f60208284031215613d52575f5ffd5b610c9d82613c16565b5f5f60408385031215613d6c575f5ffd5b50508035926020909101359150565b6001600160a01b0391909116815260200190565b5f5f5f60608486031215613da1575f5ffd5b613daa84613c16565b9250613db860208501613c16565b929592945050506040919091013590565b60ff81168114610bed575f5ffd5b61ffff81168114610bed575f5ffd5b5f5f5f60608486031215613df8575f5ffd5b8335613e0381613dc9565b92506020840135613e1381613dd7565b91506040840135613e2381613dd7565b809150509250925092565b8015158114610bed575f5ffd5b5f5f5f60608486031215613e4d575f5ffd5b833592506020840135613e5f81613e2e565b915060408401356001600160401b03811115613e79575f5ffd5b8401601f81018613613e89575f5ffd5b8035613e97613c7482613bf4565b8082825260208201915060208360051b850101925088831115613eb8575f5ffd5b602084015b83811015613f565780356001600160401b03811115613eda575f5ffd5b8501603f81018b13613eea575f5ffd5b60208101356001600160401b03811115613f0657613f06613bb0565b613f19601f8201601f1916602001613bc4565b8181526040838301018d1015613f2d575f5ffd5b816040840160208301375f60208383010152808652505050602083019250602081019050613ebd565b50809450505050509250925092565b5f5f60408385031215613f76575f5ffd5b82359150613f8660208401613c16565b90509250929050565b634e487b7160e01b5f52602160045260245ffd5b6080810160058610613fb757613fb7613f8f565b94815261ffff93841660208201529190921660408201526060015290565b5f5f83601f840112613fe5575f5ffd5b5081356001600160401b03811115613ffb575f5ffd5b6020830191508360208260061b85010111156126af575f5ffd5b5f5f5f60408486031215614027575f5ffd5b83356001600160401b0381111561403c575f5ffd5b61404886828701613fd5565b909790965060209590950135949350505050565b5f5f5f6060848603121561406e575f5ffd5b8335925060208401359150604084013560048110613e23575f5ffd5b5f5f5f6060848603121561409c575f5ffd5b833592506140ac60208501613c16565b91506140ba60408501613c16565b90509250925092565b604080825283519082018190525f9060208501906060840190835b818110156141055783516001600160a01b03168352602093840193909201916001016140de565b5050838103602080860191909152855180835291810192508501905f5b81811015614140578251845260209384019390920191600101614122565b50919695505050505050565b5f5f5f5f6040858703121561415f575f5ffd5b84356001600160401b03811115614174575f5ffd5b61418087828801613fd5565b90955093505060208501356001600160401b0381111561419e575f5ffd5b8501601f810187136141ae575f5ffd5b80356001600160401b038111156141c3575f5ffd5b8760208284010111156141d4575f5ffd5b949793965060200194505050565b5f5f604083850312156141f3575f5ffd5b6141fc83613c16565b9150613f8660208401613c16565b5f6020828403121561421a575f5ffd5b8151610c9d81613e2e565b634e487b7160e01b5f52603260045260245ffd5b600181811c9082168061424d57607f821691505b60208210810361426b57634e487b7160e01b5f52602260045260245ffd5b50919050565b5f60208284031215614281575f5ffd5b5051919050565b6001600160a01b039390931683526020830191909152604082015260600190565b6001600160a01b039384168152919092166020820152604081019190915260600190565b634e487b7160e01b5f52601160045260245ffd5b808201808211156108d2576108d26142cd565b6001815b600184111561432f57808504811115614313576143136142cd565b600184161561432157908102905b60019390931c9280026142f8565b935093915050565b5f82614345575060016108d2565b8161435157505f6108d2565b816001811461436757600281146143715761438d565b60019150506108d2565b60ff841115614382576143826142cd565b50506001821b6108d2565b5060208310610133831016604e8410600b84101617156143b0575081810a6108d2565b6143bc5f1984846142f4565b805f19048211156143cf576143cf6142cd565b029392505050565b5f610c9d60ff841683614337565b6001600160a01b03929092168252602082015260400190565b818103818111156108d2576108d26142cd565b5f60208284031215614421575f5ffd5b8151610c9d81613dc9565b60ff82811682821603908111156108d2576108d26142cd565b634e487b7160e01b5f52601260045260245ffd5b5f60208284031215614469575f5ffd5b815163ffffffff81168114610c9d575f5ffd5b5f8151808452602084019350602083015f5b828110156144ac57815186526020958601959091019060010161448e565b5093949350505050565b606081525f6144c8606083018661447c565b82810360208401526144da8186613cc3565b9050828103604084015280845180835260208301915060208160051b840101602087015f5b8381101561453157601f1986840301855261451b838351613cc3565b60209586019590935091909101906001016144ff565b50909998505050505050505050565b5f60ff83168061455e57634e487b7160e01b5f52601260045260245ffd5b8060ff84160691505092915050565b6054811061457d5761457d613f8f565b9052565b8481526001600160a01b03841660208201526080604082018190525f906145aa90830185613cc3565b90506125bb606083018461456d565b9182526001600160a01b0316602082015260400190565b92835260208301919091526001600160f81b031916604082015260600190565b82815260408101610c9d602083018461456d565b602081525f610c9d602083018461447c565b838152606060208201525f61462e606083018561447c565b905063ffffffff60e01b83166040830152949350505050565b5f60018201614658576146586142cd565b5060010190565b5f6020828403121561466f575f5ffd5b8151610c9d81613dd7565b634e487b7160e01b5f52603160045260245ffdfea2646970667358221220bf3a6aab028e4be992f4c4bd7b1dbad36ab42587ff061af844348853cd20772364736f6c634300081c0033ed8d60e34876f751cc8b014c560745351147d9de11b9347c854e881b128ea600ed8d60e34876f751cc8b014c560745351147d9de11b9347c854e881b128ea601",
  "linkReferences": {},
  "deployedLinkReferences": {}
}