{
  "_format": "hh-sol-artifact-1",
  "contractName": "InternalStatesOrchestrator",
  "sourceName": "contracts/InternalStatesOrchestrator.sol",
  "abi": [
    {
      "inputs": [
        {
          "internalType": "address",
          "name": "target",
          "type": "address"
        }
      ],
      "name": "AddressEmptyCode",
      "type": "error"
    },
    {
      "inputs": [
        {
          "internalType": "address",
          "name": "implementation",
          "type": "address"
        }
      ],
      "name": "ERC1967InvalidImplementation",
      "type": "error"
    },
    {
      "inputs": [],
      "name": "ERC1967NonPayable",
      "type": "error"
    },
    {
      "inputs": [],
      "name": "FailedCall",
      "type": "error"
    },
    {
      "inputs": [],
      "name": "InvalidInitialization",
      "type": "error"
    },
    {
      "inputs": [],
      "name": "NotAuthorized",
      "type": "error"
    },
    {
      "inputs": [],
      "name": "NotInitializing",
      "type": "error"
    },
    {
      "inputs": [
        {
          "internalType": "address",
          "name": "owner",
          "type": "address"
        }
      ],
      "name": "OwnableInvalidOwner",
      "type": "error"
    },
    {
      "inputs": [
        {
          "internalType": "address",
          "name": "account",
          "type": "address"
        }
      ],
      "name": "OwnableUnauthorizedAccount",
      "type": "error"
    },
    {
      "inputs": [],
      "name": "ReentrancyGuardReentrantCall",
      "type": "error"
    },
    {
      "inputs": [],
      "name": "TooEarly",
      "type": "error"
    },
    {
      "inputs": [],
      "name": "UUPSUnauthorizedCallContext",
      "type": "error"
    },
    {
      "inputs": [
        {
          "internalType": "bytes32",
          "name": "slot",
          "type": "bytes32"
        }
      ],
      "name": "UUPSUnsupportedProxiableUUID",
      "type": "error"
    },
    {
      "inputs": [],
      "name": "ZeroAddress",
      "type": "error"
    },
    {
      "anonymous": false,
      "inputs": [
        {
          "indexed": true,
          "internalType": "address",
          "name": "newAutomationRegistry",
          "type": "address"
        }
      ],
      "name": "AutomationRegistryUpdated",
      "type": "event"
    },
    {
      "anonymous": false,
      "inputs": [
        {
          "indexed": false,
          "internalType": "uint64",
          "name": "version",
          "type": "uint64"
        }
      ],
      "name": "Initialized",
      "type": "event"
    },
    {
      "anonymous": false,
      "inputs": [
        {
          "indexed": false,
          "internalType": "uint256",
          "name": "timestamp",
          "type": "uint256"
        }
      ],
      "name": "InternalStateProcessed",
      "type": "event"
    },
    {
      "anonymous": false,
      "inputs": [
        {
          "indexed": true,
          "internalType": "address",
          "name": "previousOwner",
          "type": "address"
        },
        {
          "indexed": true,
          "internalType": "address",
          "name": "newOwner",
          "type": "address"
        }
      ],
      "name": "OwnershipTransferStarted",
      "type": "event"
    },
    {
      "anonymous": false,
      "inputs": [
        {
          "indexed": true,
          "internalType": "address",
          "name": "previousOwner",
          "type": "address"
        },
        {
          "indexed": true,
          "internalType": "address",
          "name": "newOwner",
          "type": "address"
        }
      ],
      "name": "OwnershipTransferred",
      "type": "event"
    },
    {
      "anonymous": false,
      "inputs": [
        {
          "indexed": true,
          "internalType": "address",
          "name": "implementation",
          "type": "address"
        }
      ],
      "name": "Upgraded",
      "type": "event"
    },
    {
      "inputs": [],
      "name": "UPDATE_INTERVAL",
      "outputs": [
        {
          "internalType": "uint256",
          "name": "",
          "type": "uint256"
        }
      ],
      "stateMutability": "view",
      "type": "function"
    },
    {
      "inputs": [],
      "name": "UPGRADE_INTERFACE_VERSION",
      "outputs": [
        {
          "internalType": "string",
          "name": "",
          "type": "string"
        }
      ],
      "stateMutability": "view",
      "type": "function"
    },
    {
      "inputs": [],
      "name": "acceptOwnership",
      "outputs": [],
      "stateMutability": "nonpayable",
      "type": "function"
    },
    {
      "inputs": [],
      "name": "automationRegistry",
      "outputs": [
        {
          "internalType": "address",
          "name": "",
          "type": "address"
        }
      ],
      "stateMutability": "view",
      "type": "function"
    },
    {
      "inputs": [
        {
          "internalType": "bytes",
          "name": "",
          "type": "bytes"
        }
      ],
      "name": "checkUpkeep",
      "outputs": [
        {
          "internalType": "bool",
          "name": "upkeepNeeded",
          "type": "bool"
        },
        {
          "internalType": "bytes",
          "name": "performData",
          "type": "bytes"
        }
      ],
      "stateMutability": "view",
      "type": "function"
    },
    {
      "inputs": [],
      "name": "config",
      "outputs": [
        {
          "internalType": "contract IOrionConfig",
          "name": "",
          "type": "address"
        }
      ],
      "stateMutability": "view",
      "type": "function"
    },
    {
      "inputs": [
        {
          "internalType": "address",
          "name": "initialOwner",
          "type": "address"
        },
        {
          "internalType": "address",
          "name": "automationRegistry_",
          "type": "address"
        },
        {
          "internalType": "address",
          "name": "config_",
          "type": "address"
        }
      ],
      "name": "initialize",
      "outputs": [],
      "stateMutability": "nonpayable",
      "type": "function"
    },
    {
      "inputs": [],
      "name": "nextUpdateTime",
      "outputs": [
        {
          "internalType": "uint256",
          "name": "",
          "type": "uint256"
        }
      ],
      "stateMutability": "view",
      "type": "function"
    },
    {
      "inputs": [],
      "name": "owner",
      "outputs": [
        {
          "internalType": "address",
          "name": "",
          "type": "address"
        }
      ],
      "stateMutability": "view",
      "type": "function"
    },
    {
      "inputs": [],
      "name": "pendingOwner",
      "outputs": [
        {
          "internalType": "address",
          "name": "",
          "type": "address"
        }
      ],
      "stateMutability": "view",
      "type": "function"
    },
    {
      "inputs": [
        {
          "internalType": "bytes",
          "name": "",
          "type": "bytes"
        }
      ],
      "name": "performUpkeep",
      "outputs": [],
      "stateMutability": "nonpayable",
      "type": "function"
    },
    {
      "inputs": [
        {
          "internalType": "uint256",
          "name": "",
          "type": "uint256"
        }
      ],
      "name": "pnlArray",
      "outputs": [
        {
          "internalType": "uint256",
          "name": "pctChange",
          "type": "uint256"
        },
        {
          "internalType": "bool",
          "name": "isPositive",
          "type": "bool"
        }
      ],
      "stateMutability": "view",
      "type": "function"
    },
    {
      "inputs": [],
      "name": "proxiableUUID",
      "outputs": [
        {
          "internalType": "bytes32",
          "name": "",
          "type": "bytes32"
        }
      ],
      "stateMutability": "view",
      "type": "function"
    },
    {
      "inputs": [],
      "name": "renounceOwnership",
      "outputs": [],
      "stateMutability": "nonpayable",
      "type": "function"
    },
    {
      "inputs": [
        {
          "internalType": "address",
          "name": "newOwner",
          "type": "address"
        }
      ],
      "name": "transferOwnership",
      "outputs": [],
      "stateMutability": "nonpayable",
      "type": "function"
    },
    {
      "inputs": [
        {
          "internalType": "address",
          "name": "newAutomationRegistry",
          "type": "address"
        }
      ],
      "name": "updateAutomationRegistry",
      "outputs": [],
      "stateMutability": "nonpayable",
      "type": "function"
    },
    {
      "inputs": [
        {
          "internalType": "address",
          "name": "newConfig",
          "type": "address"
        }
      ],
      "name": "updateConfig",
      "outputs": [],
      "stateMutability": "nonpayable",
      "type": "function"
    },
    {
      "inputs": [
        {
          "internalType": "address",
          "name": "newImplementation",
          "type": "address"
        },
        {
          "internalType": "bytes",
          "name": "data",
          "type": "bytes"
        }
      ],
      "name": "upgradeToAndCall",
      "outputs": [],
      "stateMutability": "payable",
      "type": "function"
    }
  ],
  "bytecode": "0x60a0604052306080523480156012575f80fd5b506080516118066100395f395f8181610c3401528181610c5d0152610da101526118065ff3fe608060405260043610610105575f3560e01c8063715018a6116100925780638da5cb5b116100625780638da5cb5b146102a9578063ad3cb1cc146102bd578063c0c53b8b146102fa578063e30c397814610319578063f2fde38b1461032d575f80fd5b8063715018a61461024e57806379502c551461026257806379ba50971461028157806389ac414714610295575f80fd5b806352d1902d116100d857806352d1902d146101835780635dc228a01461019757806364ca89cd146101ce5780636cc919c8146102025780636e04ff0d14610221575f80fd5b806314b5d07f1461010957806335238fb81461012a5780634585e33b146101515780634f1ef28614610170575b5f80fd5b348015610114575f80fd5b506101286101233660046112e9565b61034c565b005b348015610135575f80fd5b5061013e5f5481565b6040519081526020015b60405180910390f35b34801561015c575f80fd5b5061012861016b366004611304565b6103c4565b61012861017e3660046113b7565b6104ff565b34801561018e575f80fd5b5061013e61051a565b3480156101a2575f80fd5b506001546101b6906001600160a01b031681565b6040516001600160a01b039091168152602001610148565b3480156101d9575f80fd5b506101ed6101e836600461145e565b610535565b60408051928352901515602083015201610148565b34801561020d575f80fd5b5061012861021c3660046112e9565b610564565b34801561022c575f80fd5b5061024061023b366004611304565b61058e565b6040516101489291906114a3565b348015610259575f80fd5b506101286105b6565b34801561026d575f80fd5b506002546101b6906001600160a01b031681565b34801561028c575f80fd5b506101286105c9565b3480156102a0575f80fd5b5061013e603c81565b3480156102b4575f80fd5b506101b6610616565b3480156102c8575f80fd5b506102ed604051806040016040528060058152602001640352e302e360dc1b81525081565b60405161014891906114c5565b348015610305575f80fd5b506101286103143660046114d7565b61064a565b348015610324575f80fd5b506101b66107bf565b348015610338575f80fd5b506101286103473660046112e9565b6107e7565b61035461086c565b6001600160a01b03811661037b5760405163d92e233d60e01b815260040160405180910390fd5b600180546001600160a01b0319166001600160a01b0383169081179091556040517f6cc7ebdb6c8c53291c5ae16148cab9b049d23bf5bde5632900b40edff56fcb43905f90a250565b6001546001600160a01b031633146103ef5760405163ea8e4eb560e01b815260040160405180910390fd5b6103f761089e565b5f544210156104195760405163085de62560e01b815260040160405180910390fd5b610422426108e8565b5f90815561042e6108fa565b905061043b60035f611298565b5f5b815181101561049d57600382828151811061045a5761045a61151f565b6020908102919091018101518254600180820185555f948552938390208251600290920201908155910151908201805460ff19169115159190911790550161043d565b506040514281527f9375d658f91055a030c54d5cf460d6f12968b10b80b0797c1aa5c02e4dca94039060200160405180910390a1506104fb60017f9b779b17422d0df92223018b32b4d1fa46e071723d6817e2486d003becc55f0055565b5050565b610507610c29565b61051082610ccd565b6104fb8282610cd5565b5f610523610d96565b505f805160206117b183398151915290565b60038181548110610544575f80fd5b5f9182526020909120600290910201805460019091015490915060ff1682565b61056c61086c565b600280546001600160a01b0319166001600160a01b0392909216919091179055565b5f606061059c5f5442101590565b915060405180602001604052805f81525090509250929050565b6105be61086c565b6105c75f610ddf565b565b33806105d36107bf565b6001600160a01b03161461060a5760405163118cdaa760e01b81526001600160a01b03821660048201526024015b60405180910390fd5b61061381610ddf565b50565b5f807f9016d09d72d40fdae2fd8ceac6b6234c7706214fd39c1cd1e609a0528c1993005b546001600160a01b031692915050565b5f610653610e17565b805490915060ff600160401b820416159067ffffffffffffffff165f8115801561067a5750825b90505f8267ffffffffffffffff1660011480156106965750303b155b9050811580156106a4575080155b156106c25760405163f92ee8a960e01b815260040160405180910390fd5b845467ffffffffffffffff1916600117855583156106ec57845460ff60401b1916600160401b1785555b6106f4610e3f565b6106fc610e3f565b610704610e47565b61070d88610ddf565b6001600160a01b0387166107345760405163d92e233d60e01b815260040160405180910390fd5b600180546001600160a01b03808a166001600160a01b031992831617909255600280549289169290911691909117905561076d426108e8565b5f5583156107b557845460ff60401b19168555604051600181527fc7f505b2f371ae2175ee4913f4499e1f2633a7b5936321eed1cdaeb6115181d29060200160405180910390a15b5050505050505050565b5f807f237e158222e3e6968b72b9db0d8043aacf074ad9f650f0d1606b4d82ee432c0061063a565b6107ef61086c565b7f237e158222e3e6968b72b9db0d8043aacf074ad9f650f0d1606b4d82ee432c0080546001600160a01b0319166001600160a01b0383169081178255610833610616565b6001600160a01b03167f38d16b8cac22d99fc7c124b9cd0de2d3fa1faef420bfe791d8c362d765e2270060405160405180910390a35050565b33610875610616565b6001600160a01b0316146105c75760405163118cdaa760e01b8152336004820152602401610601565b7f9b779b17422d0df92223018b32b4d1fa46e071723d6817e2486d003becc55f008054600119016108e257604051633ee5aeb560e01b815260040160405180910390fd5b60029055565b5f6108f4603c83611547565b92915050565b60605f60025f9054906101000a90046001600160a01b03166001600160a01b031663d86cd44e6040518163ffffffff1660e01b81526004015f60405180830381865afa15801561094c573d5f803e3d5ffd5b505050506040513d5f823e601f3d908101601f19168201604052610973919081019061155a565b90505f60025f9054906101000a90046001600160a01b03166001600160a01b0316634bb93ab16040518163ffffffff1660e01b8152600401602060405180830381865afa1580156109c6573d5f803e3d5ffd5b505050506040513d601f19601f820116820180604052508101906109ea919061160e565b90505f825167ffffffffffffffff811115610a0757610a07611372565b604051908082528060200260200182016040528015610a30578160200160208202803683370190505b5090505f835167ffffffffffffffff811115610a4e57610a4e611372565b604051908082528060200260200182016040528015610a77578160200160208202803683370190505b5090505f5b8451811015610bef57836001600160a01b031663aea91078868381518110610aa657610aa661151f565b60200260200101516040518263ffffffff1660e01b8152600401610ad991906001600160a01b0391909116815260200190565b602060405180830381865afa158015610af4573d5f803e3d5ffd5b505050506040513d601f19601f82011682018060405250810190610b189190611629565b838281518110610b2a57610b2a61151f565b602002602001018181525050836001600160a01b0316631c1b8772868381518110610b5757610b5761151f565b60200260200101516040518263ffffffff1660e01b8152600401610b8a91906001600160a01b0391909116815260200190565b6020604051808303815f875af1158015610ba6573d5f803e3d5ffd5b505050506040513d601f19601f82011682018060405250810190610bca9190611629565b828281518110610bdc57610bdc61151f565b6020908102919091010152600101610a7c565b50610bfa8282610e57565b94505050505090565b60017f9b779b17422d0df92223018b32b4d1fa46e071723d6817e2486d003becc55f0055565b306001600160a01b037f0000000000000000000000000000000000000000000000000000000000000000161480610caf57507f00000000000000000000000000000000000000000000000000000000000000006001600160a01b0316610ca35f805160206117b1833981519152546001600160a01b031690565b6001600160a01b031614155b156105c75760405163703e46dd60e11b815260040160405180910390fd5b61061361086c565b816001600160a01b03166352d1902d6040518163ffffffff1660e01b8152600401602060405180830381865afa925050508015610d2f575060408051601f3d908101601f19168201909252610d2c91810190611629565b60015b610d5757604051634c9c8ce360e01b81526001600160a01b0383166004820152602401610601565b5f805160206117b18339815191528114610d8757604051632a87526960e21b815260048101829052602401610601565b610d918383611011565b505050565b306001600160a01b037f000000000000000000000000000000000000000000000000000000000000000016146105c75760405163703e46dd60e11b815260040160405180910390fd5b7f237e158222e3e6968b72b9db0d8043aacf074ad9f650f0d1606b4d82ee432c0080546001600160a01b03191681556104fb82611066565b5f807ff0c57e16840df040f15088dc2f81fe391c3923bec73e23a9662efc9c229c6a006108f4565b6105c76110d6565b610e4f6110d6565b6105c76110fb565b81516060908067ffffffffffffffff811115610e7557610e75611372565b604051908082528060200260200182016040528015610eb957816020015b604080518082019091525f8082526020820152815260200190600190039081610e935790505b5091505f60025f9054906101000a90046001600160a01b03166001600160a01b031663b71ee4fc6040518163ffffffff1660e01b8152600401602060405180830381865afa158015610f0d573d5f803e3d5ffd5b505050506040513d601f19601f82011682018060405250810190610f319190611640565b90505f5b82811015611008575f868281518110610f5057610f5061151f565b602002602001015190505f868381518110610f6d57610f6d61151f565b602002602001015190505f8282101590505f81610f9357610f8e8385611660565b610f9d565b610f9d8484611660565b90505f84610fac88600a611756565b610fb69084611764565b610fc0919061177b565b90506040518060400160405280828152602001841515815250898781518110610feb57610feb61151f565b602002602001018190525050505050508080600101915050610f35565b50505092915050565b61101a82611103565b6040516001600160a01b038316907fbc7cd75a20ee27fd9adebab32041f755214dbc6bffa90cc0225b39da2e5c2d3b905f90a280511561105e57610d918282611166565b6104fb6111d8565b7f9016d09d72d40fdae2fd8ceac6b6234c7706214fd39c1cd1e609a0528c19930080546001600160a01b031981166001600160a01b03848116918217845560405192169182907f8be0079c531659141344cd1fd0a4f28419497f9722a3daafe3b4186f6b6457e0905f90a3505050565b6110de6111f7565b6105c757604051631afcd79f60e31b815260040160405180910390fd5b610c036110d6565b806001600160a01b03163b5f0361113857604051634c9c8ce360e01b81526001600160a01b0382166004820152602401610601565b5f805160206117b183398151915280546001600160a01b0319166001600160a01b0392909216919091179055565b60605f80846001600160a01b031684604051611182919061179a565b5f60405180830381855af49150503d805f81146111ba576040519150601f19603f3d011682016040523d82523d5f602084013e6111bf565b606091505b50915091506111cf858383611210565b95945050505050565b34156105c75760405163b398979f60e01b815260040160405180910390fd5b5f611200610e17565b54600160401b900460ff16919050565b606082611225576112208261126f565b611268565b815115801561123c57506001600160a01b0384163b155b1561126557604051639996b31560e01b81526001600160a01b0385166004820152602401610601565b50805b9392505050565b80511561127f5780518082602001fd5b60405163d6bda27560e01b815260040160405180910390fd5b5080545f8255600202905f5260205f209081019061061391905b808211156112d1575f815560018101805460ff191690556002016112b2565b5090565b6001600160a01b0381168114610613575f80fd5b5f602082840312156112f9575f80fd5b8135611268816112d5565b5f8060208385031215611315575f80fd5b823567ffffffffffffffff81111561132b575f80fd5b8301601f8101851361133b575f80fd5b803567ffffffffffffffff811115611351575f80fd5b856020828401011115611362575f80fd5b6020919091019590945092505050565b634e487b7160e01b5f52604160045260245ffd5b604051601f8201601f1916810167ffffffffffffffff811182821017156113af576113af611372565b604052919050565b5f80604083850312156113c8575f80fd5b82356113d3816112d5565b9150602083013567ffffffffffffffff8111156113ee575f80fd5b8301601f810185136113fe575f80fd5b803567ffffffffffffffff81111561141857611418611372565b61142b601f8201601f1916602001611386565b81815286602083850101111561143f575f80fd5b816020840160208301375f602083830101528093505050509250929050565b5f6020828403121561146e575f80fd5b5035919050565b5f81518084528060208401602086015e5f602082860101526020601f19601f83011685010191505092915050565b8215158152604060208201525f6114bd6040830184611475565b949350505050565b602081525f6112686020830184611475565b5f805f606084860312156114e9575f80fd5b83356114f4816112d5565b92506020840135611504816112d5565b91506040840135611514816112d5565b809150509250925092565b634e487b7160e01b5f52603260045260245ffd5b634e487b7160e01b5f52601160045260245ffd5b808201808211156108f4576108f4611533565b5f6020828403121561156a575f80fd5b815167ffffffffffffffff811115611580575f80fd5b8201601f81018413611590575f80fd5b805167ffffffffffffffff8111156115aa576115aa611372565b8060051b6115ba60208201611386565b918252602081840181019290810190878411156115d5575f80fd5b6020850194505b8385101561160357845192506115f1836112d5565b828252602094850194909101906115dc565b979650505050505050565b5f6020828403121561161e575f80fd5b8151611268816112d5565b5f60208284031215611639575f80fd5b5051919050565b5f60208284031215611650575f80fd5b815160ff81168114611268575f80fd5b818103818111156108f4576108f4611533565b6001815b60018411156116ae5780850481111561169257611692611533565b60018416156116a057908102905b60019390931c928002611677565b935093915050565b5f826116c4575060016108f4565b816116d057505f6108f4565b81600181146116e657600281146116f05761170c565b60019150506108f4565b60ff84111561170157611701611533565b50506001821b6108f4565b5060208310610133831016604e8410600b841016171561172f575081810a6108f4565b61173b5f198484611673565b805f190482111561174e5761174e611533565b029392505050565b5f61126860ff8416836116b6565b80820281158282048414176108f4576108f4611533565b5f8261179557634e487b7160e01b5f52601260045260245ffd5b500490565b5f82518060208501845e5f92019182525091905056fe360894a13ba1a3210667c828492db98dca3e2076cc3735a920a3ca505d382bbca2646970667358221220ebd8ee529e3c1465f3de9d689528b81d8becc9b3c927fdac4a84b7414acce12764736f6c634300081a0033",
  "linkReferences": {},
  "deployedLinkReferences": {}
}