{
  "_format": "hh-sol-artifact-1",
  "contractName": "InternalStatesOrchestrator",
  "sourceName": "contracts/InternalStatesOrchestrator.sol",
  "abi": [
    {
      "inputs": [
        {
          "internalType": "address",
          "name": "target",
          "type": "address"
        }
      ],
      "name": "AddressEmptyCode",
      "type": "error"
    },
    {
      "inputs": [
        {
          "internalType": "address",
          "name": "implementation",
          "type": "address"
        }
      ],
      "name": "ERC1967InvalidImplementation",
      "type": "error"
    },
    {
      "inputs": [],
      "name": "ERC1967NonPayable",
      "type": "error"
    },
    {
      "inputs": [],
      "name": "FailedCall",
      "type": "error"
    },
    {
      "inputs": [],
      "name": "InvalidInitialization",
      "type": "error"
    },
    {
      "inputs": [],
      "name": "NotAuthorized",
      "type": "error"
    },
    {
      "inputs": [],
      "name": "NotInitializing",
      "type": "error"
    },
    {
      "inputs": [
        {
          "internalType": "address",
          "name": "owner",
          "type": "address"
        }
      ],
      "name": "OwnableInvalidOwner",
      "type": "error"
    },
    {
      "inputs": [
        {
          "internalType": "address",
          "name": "account",
          "type": "address"
        }
      ],
      "name": "OwnableUnauthorizedAccount",
      "type": "error"
    },
    {
      "inputs": [],
      "name": "ReentrancyGuardReentrantCall",
      "type": "error"
    },
    {
      "inputs": [],
      "name": "TooEarly",
      "type": "error"
    },
    {
      "inputs": [],
      "name": "UUPSUnauthorizedCallContext",
      "type": "error"
    },
    {
      "inputs": [
        {
          "internalType": "bytes32",
          "name": "slot",
          "type": "bytes32"
        }
      ],
      "name": "UUPSUnsupportedProxiableUUID",
      "type": "error"
    },
    {
      "inputs": [],
      "name": "Underflow",
      "type": "error"
    },
    {
      "inputs": [],
      "name": "ZeroAddress",
      "type": "error"
    },
    {
      "anonymous": false,
      "inputs": [
        {
          "indexed": true,
          "internalType": "address",
          "name": "newAutomationRegistry",
          "type": "address"
        }
      ],
      "name": "AutomationRegistryUpdated",
      "type": "event"
    },
    {
      "anonymous": false,
      "inputs": [
        {
          "indexed": false,
          "internalType": "uint64",
          "name": "version",
          "type": "uint64"
        }
      ],
      "name": "Initialized",
      "type": "event"
    },
    {
      "anonymous": false,
      "inputs": [
        {
          "indexed": false,
          "internalType": "uint256",
          "name": "timestamp",
          "type": "uint256"
        }
      ],
      "name": "InternalStateProcessed",
      "type": "event"
    },
    {
      "anonymous": false,
      "inputs": [
        {
          "indexed": true,
          "internalType": "address",
          "name": "previousOwner",
          "type": "address"
        },
        {
          "indexed": true,
          "internalType": "address",
          "name": "newOwner",
          "type": "address"
        }
      ],
      "name": "OwnershipTransferStarted",
      "type": "event"
    },
    {
      "anonymous": false,
      "inputs": [
        {
          "indexed": true,
          "internalType": "address",
          "name": "previousOwner",
          "type": "address"
        },
        {
          "indexed": true,
          "internalType": "address",
          "name": "newOwner",
          "type": "address"
        }
      ],
      "name": "OwnershipTransferred",
      "type": "event"
    },
    {
      "anonymous": false,
      "inputs": [
        {
          "indexed": true,
          "internalType": "address",
          "name": "implementation",
          "type": "address"
        }
      ],
      "name": "Upgraded",
      "type": "event"
    },
    {
      "inputs": [],
      "name": "UPDATE_INTERVAL",
      "outputs": [
        {
          "internalType": "uint256",
          "name": "",
          "type": "uint256"
        }
      ],
      "stateMutability": "view",
      "type": "function"
    },
    {
      "inputs": [],
      "name": "UPGRADE_INTERFACE_VERSION",
      "outputs": [
        {
          "internalType": "string",
          "name": "",
          "type": "string"
        }
      ],
      "stateMutability": "view",
      "type": "function"
    },
    {
      "inputs": [],
      "name": "acceptOwnership",
      "outputs": [],
      "stateMutability": "nonpayable",
      "type": "function"
    },
    {
      "inputs": [],
      "name": "automationRegistry",
      "outputs": [
        {
          "internalType": "address",
          "name": "",
          "type": "address"
        }
      ],
      "stateMutability": "view",
      "type": "function"
    },
    {
      "inputs": [
        {
          "internalType": "bytes",
          "name": "",
          "type": "bytes"
        }
      ],
      "name": "checkUpkeep",
      "outputs": [
        {
          "internalType": "bool",
          "name": "upkeepNeeded",
          "type": "bool"
        },
        {
          "internalType": "bytes",
          "name": "performData",
          "type": "bytes"
        }
      ],
      "stateMutability": "view",
      "type": "function"
    },
    {
      "inputs": [],
      "name": "config",
      "outputs": [
        {
          "internalType": "contract IOrionConfig",
          "name": "",
          "type": "address"
        }
      ],
      "stateMutability": "view",
      "type": "function"
    },
    {
      "inputs": [
        {
          "internalType": "address",
          "name": "initialOwner",
          "type": "address"
        },
        {
          "internalType": "address",
          "name": "automationRegistry_",
          "type": "address"
        },
        {
          "internalType": "address",
          "name": "config_",
          "type": "address"
        }
      ],
      "name": "initialize",
      "outputs": [],
      "stateMutability": "nonpayable",
      "type": "function"
    },
    {
      "inputs": [
        {
          "internalType": "address",
          "name": "",
          "type": "address"
        }
      ],
      "name": "isPositive",
      "outputs": [
        {
          "internalType": "bool",
          "name": "",
          "type": "bool"
        }
      ],
      "stateMutability": "view",
      "type": "function"
    },
    {
      "inputs": [],
      "name": "nextUpdateTime",
      "outputs": [
        {
          "internalType": "uint256",
          "name": "",
          "type": "uint256"
        }
      ],
      "stateMutability": "view",
      "type": "function"
    },
    {
      "inputs": [],
      "name": "owner",
      "outputs": [
        {
          "internalType": "address",
          "name": "",
          "type": "address"
        }
      ],
      "stateMutability": "view",
      "type": "function"
    },
    {
      "inputs": [
        {
          "internalType": "address",
          "name": "",
          "type": "address"
        }
      ],
      "name": "pctChange",
      "outputs": [
        {
          "internalType": "uint256",
          "name": "",
          "type": "uint256"
        }
      ],
      "stateMutability": "view",
      "type": "function"
    },
    {
      "inputs": [],
      "name": "pendingOwner",
      "outputs": [
        {
          "internalType": "address",
          "name": "",
          "type": "address"
        }
      ],
      "stateMutability": "view",
      "type": "function"
    },
    {
      "inputs": [
        {
          "internalType": "bytes",
          "name": "",
          "type": "bytes"
        }
      ],
      "name": "performUpkeep",
      "outputs": [],
      "stateMutability": "nonpayable",
      "type": "function"
    },
    {
      "inputs": [],
      "name": "proxiableUUID",
      "outputs": [
        {
          "internalType": "bytes32",
          "name": "",
          "type": "bytes32"
        }
      ],
      "stateMutability": "view",
      "type": "function"
    },
    {
      "inputs": [],
      "name": "renounceOwnership",
      "outputs": [],
      "stateMutability": "nonpayable",
      "type": "function"
    },
    {
      "inputs": [
        {
          "internalType": "address",
          "name": "newOwner",
          "type": "address"
        }
      ],
      "name": "transferOwnership",
      "outputs": [],
      "stateMutability": "nonpayable",
      "type": "function"
    },
    {
      "inputs": [
        {
          "internalType": "address",
          "name": "newAutomationRegistry",
          "type": "address"
        }
      ],
      "name": "updateAutomationRegistry",
      "outputs": [],
      "stateMutability": "nonpayable",
      "type": "function"
    },
    {
      "inputs": [
        {
          "internalType": "address",
          "name": "newConfig",
          "type": "address"
        }
      ],
      "name": "updateConfig",
      "outputs": [],
      "stateMutability": "nonpayable",
      "type": "function"
    },
    {
      "inputs": [
        {
          "internalType": "address",
          "name": "newImplementation",
          "type": "address"
        },
        {
          "internalType": "bytes",
          "name": "data",
          "type": "bytes"
        }
      ],
      "name": "upgradeToAndCall",
      "outputs": [],
      "stateMutability": "payable",
      "type": "function"
    }
  ],
  "bytecode": "0x60a0604052306080523480156012575f80fd5b50608051611ae46100395f395f8181610eab01528181610ed401526110180152611ae45ff3fe608060405260043610610110575f3560e01c8063728fb55d1161009d578063ad3cb1cc11610062578063ad3cb1cc146102bf578063ae019b49146102fc578063c0c53b8b1461033a578063e30c397814610359578063f2fde38b1461036d575f80fd5b8063728fb55d1461023957806379502c551461026457806379ba50971461028357806389ac4147146102975780638da5cb5b146102ab575f80fd5b806352d1902d116100e357806352d1902d1461018e5780635dc228a0146101a25780636cc919c8146101d95780636e04ff0d146101f8578063715018a614610225575f80fd5b806314b5d07f1461011457806335238fb8146101355780634585e33b1461015c5780634f1ef2861461017b575b5f80fd5b34801561011f575f80fd5b5061013361012e366004611515565b61038c565b005b348015610140575f80fd5b506101495f5481565b6040519081526020015b60405180910390f35b348015610167575f80fd5b50610133610176366004611530565b610404565b6101336101893660046115e0565b610657565b348015610199575f80fd5b50610149610672565b3480156101ad575f80fd5b506001546101c1906001600160a01b031681565b6040516001600160a01b039091168152602001610153565b3480156101e4575f80fd5b506101336101f3366004611515565b61068d565b348015610203575f80fd5b50610217610212366004611530565b6106b7565b6040516101539291906116b3565b348015610230575f80fd5b506101336106df565b348015610244575f80fd5b50610149610253366004611515565b60036020525f908152604090205481565b34801561026f575f80fd5b506002546101c1906001600160a01b031681565b34801561028e575f80fd5b506101336106f2565b3480156102a2575f80fd5b50610149603c81565b3480156102b6575f80fd5b506101c161073f565b3480156102ca575f80fd5b506102ef604051806040016040528060058152602001640352e302e360dc1b81525081565b60405161015391906116d5565b348015610307575f80fd5b5061032a610316366004611515565b60046020525f908152604090205460ff1681565b6040519015158152602001610153565b348015610345575f80fd5b506101336103543660046116e7565b610773565b348015610364575f80fd5b506101c16108e6565b348015610378575f80fd5b50610133610387366004611515565b61090e565b610394610993565b6001600160a01b0381166103bb5760405163d92e233d60e01b815260040160405180910390fd5b600180546001600160a01b0319166001600160a01b0383169081179091556040517f6cc7ebdb6c8c53291c5ae16148cab9b049d23bf5bde5632900b40edff56fcb43905f90a250565b6001546001600160a01b0316331461042f5760405163ea8e4eb560e01b815260040160405180910390fd5b6104376109c5565b5f544210156104595760405163085de62560e01b815260040160405180910390fd5b61046242610a0f565b5f5561046c610a21565b600254604051638cf3564960e01b81525f60048201819052916001600160a01b031690638cf35649906024015f60405180830381865afa1580156104b2573d5f803e3d5ffd5b505050506040513d5f823e601f3d908101601f191682016040526104d991908101906117c4565b90505f5b81518110156105f5575f8282815181106104f9576104f96117f5565b602002602001015190505f816001600160a01b03166301e1d1146040518163ffffffff1660e01b8152600401602060405180830381865afa158015610540573d5f803e3d5ffd5b505050506040513d601f19601f820116820180604052508101906105649190611809565b90505f80836001600160a01b031663d3d034586040518163ffffffff1660e01b81526004015f60405180830381865afa1580156105a3573d5f803e3d5ffd5b505050506040513d5f823e601f3d908101601f191682016040526105ca9190810190611820565b915091505f6105d98383610d1a565b6105e390856118f0565b5050600190940193506104dd92505050565b506040514281527f9375d658f91055a030c54d5cf460d6f12968b10b80b0797c1aa5c02e4dca94039060200160405180910390a15061065360017f9b779b17422d0df92223018b32b4d1fa46e071723d6817e2486d003becc55f0055565b5050565b61065f610ea0565b61066882610f44565b6106538282610f4c565b5f61067b61100d565b505f80516020611a8f83398151915290565b610695610993565b600280546001600160a01b0319166001600160a01b0392909216919091179055565b5f60606106c55f5442101590565b915060405180602001604052805f81525090509250929050565b6106e7610993565b6106f05f611056565b565b33806106fc6108e6565b6001600160a01b0316146107335760405163118cdaa760e01b81526001600160a01b03821660048201526024015b60405180910390fd5b61073c81611056565b50565b5f807f9016d09d72d40fdae2fd8ceac6b6234c7706214fd39c1cd1e609a0528c1993005b546001600160a01b031692915050565b5f61077c61108e565b805490915060ff600160401b82041615906001600160401b03165f811580156107a25750825b90505f826001600160401b031660011480156107bd5750303b155b9050811580156107cb575080155b156107e95760405163f92ee8a960e01b815260040160405180910390fd5b845467ffffffffffffffff19166001178555831561081357845460ff60401b1916600160401b1785555b61081b6110b6565b6108236110b6565b61082b6110be565b61083488611056565b6001600160a01b03871661085b5760405163d92e233d60e01b815260040160405180910390fd5b600180546001600160a01b03808a166001600160a01b031992831617909255600280549289169290911691909117905561089442610a0f565b5f5583156108dc57845460ff60401b19168555604051600181527fc7f505b2f371ae2175ee4913f4499e1f2633a7b5936321eed1cdaeb6115181d29060200160405180910390a15b5050505050505050565b5f807f237e158222e3e6968b72b9db0d8043aacf074ad9f650f0d1606b4d82ee432c00610763565b610916610993565b7f237e158222e3e6968b72b9db0d8043aacf074ad9f650f0d1606b4d82ee432c0080546001600160a01b0319166001600160a01b038316908117825561095a61073f565b6001600160a01b03167f38d16b8cac22d99fc7c124b9cd0de2d3fa1faef420bfe791d8c362d765e2270060405160405180910390a35050565b3361099c61073f565b6001600160a01b0316146106f05760405163118cdaa760e01b815233600482015260240161072a565b7f9b779b17422d0df92223018b32b4d1fa46e071723d6817e2486d003becc55f00805460011901610a0957604051633ee5aeb560e01b815260040160405180910390fd5b60029055565b5f610a1b603c83611907565b92915050565b60025460408051636c366a2760e11b815290515f926001600160a01b03169163d86cd44e91600480830192869291908290030181865afa158015610a67573d5f803e3d5ffd5b505050506040513d5f823e601f3d908101601f19168201604052610a8e91908101906117c4565b90505f60025f9054906101000a90046001600160a01b03166001600160a01b0316634bb93ab16040518163ffffffff1660e01b8152600401602060405180830381865afa158015610ae1573d5f803e3d5ffd5b505050506040513d601f19601f82011682018060405250810190610b05919061191a565b90505f82516001600160401b03811115610b2157610b2161159c565b604051908082528060200260200182016040528015610b4a578160200160208202803683370190505b5090505f83516001600160401b03811115610b6757610b6761159c565b604051908082528060200260200182016040528015610b90578160200160208202803683370190505b5090505f5b8451811015610d0857836001600160a01b031663aea91078868381518110610bbf57610bbf6117f5565b60200260200101516040518263ffffffff1660e01b8152600401610bf291906001600160a01b0391909116815260200190565b602060405180830381865afa158015610c0d573d5f803e3d5ffd5b505050506040513d601f19601f82011682018060405250810190610c319190611809565b838281518110610c4357610c436117f5565b602002602001018181525050836001600160a01b0316631c1b8772868381518110610c7057610c706117f5565b60200260200101516040518263ffffffff1660e01b8152600401610ca391906001600160a01b0391909116815260200190565b6020604051808303815f875af1158015610cbf573d5f803e3d5ffd5b505050506040513d601f19601f82011682018060405250810190610ce39190611809565b828281518110610cf557610cf56117f5565b6020908102919091010152600101610b95565b50610d148483836110ce565b50505050565b5f8060025f9054906101000a90046001600160a01b03166001600160a01b031663b71ee4fc6040518163ffffffff1660e01b8152600401602060405180830381865afa158015610d6c573d5f803e3d5ffd5b505050506040513d601f19601f82011682018060405250810190610d909190611935565b60ff1690505f5b8351811015610e72575f858281518110610db357610db36117f5565b602002602001015190505f60035f836001600160a01b03166001600160a01b031681526020019081526020015f2054868481518110610df457610df46117f5565b6020026020010151610e0691906118f0565b6001600160a01b0383165f9081526004602052604090205490915060ff1615610e3a57610e338185611907565b9350610e68565b80841015610e5b5760405163caccb6d960e01b815260040160405180910390fd5b610e658185611955565b93505b5050600101610d97565b509392505050565b60017f9b779b17422d0df92223018b32b4d1fa46e071723d6817e2486d003becc55f0055565b306001600160a01b037f0000000000000000000000000000000000000000000000000000000000000000161480610f2657507f00000000000000000000000000000000000000000000000000000000000000006001600160a01b0316610f1a5f80516020611a8f833981519152546001600160a01b031690565b6001600160a01b031614155b156106f05760405163703e46dd60e11b815260040160405180910390fd5b61073c610993565b816001600160a01b03166352d1902d6040518163ffffffff1660e01b8152600401602060405180830381865afa925050508015610fa6575060408051601f3d908101601f19168201909252610fa391810190611809565b60015b610fce57604051634c9c8ce360e01b81526001600160a01b038316600482015260240161072a565b5f80516020611a8f8339815191528114610ffe57604051632a87526960e21b81526004810182905260240161072a565b611008838361127a565b505050565b306001600160a01b037f000000000000000000000000000000000000000000000000000000000000000016146106f05760405163703e46dd60e11b815260040160405180910390fd5b7f237e158222e3e6968b72b9db0d8043aacf074ad9f650f0d1606b4d82ee432c0080546001600160a01b0319168155610653826112cf565b5f807ff0c57e16840df040f15088dc2f81fe391c3923bec73e23a9662efc9c229c6a00610a1b565b6106f061133f565b6110c661133f565b6106f0611364565b825160025460408051632dc7b93f60e21b815290515f926001600160a01b03169163b71ee4fc9160048083019260209291908290030181865afa158015611117573d5f803e3d5ffd5b505050506040513d601f19601f8201168201806040525081019061113b9190611935565b90505f5b82811015611272575f85828151811061115a5761115a6117f5565b602002602001015190505f858381518110611177576111776117f5565b602002602001015190505f8282101590505f8161119d576111988385611955565b6111a7565b6111a78484611955565b90505f846111b688600a611a4b565b6111c090846118f0565b6111ca9190611a59565b90508060035f8d89815181106111e2576111e26117f5565b60200260200101516001600160a01b03166001600160a01b031681526020019081526020015f20819055508260045f8d8981518110611223576112236117f5565b60200260200101516001600160a01b03166001600160a01b031681526020019081526020015f205f6101000a81548160ff0219169083151502179055505050505050808060010191505061113f565b505050505050565b6112838261136c565b6040516001600160a01b038316907fbc7cd75a20ee27fd9adebab32041f755214dbc6bffa90cc0225b39da2e5c2d3b905f90a28051156112c75761100882826113cf565b610653611441565b7f9016d09d72d40fdae2fd8ceac6b6234c7706214fd39c1cd1e609a0528c19930080546001600160a01b031981166001600160a01b03848116918217845560405192169182907f8be0079c531659141344cd1fd0a4f28419497f9722a3daafe3b4186f6b6457e0905f90a3505050565b611347611460565b6106f057604051631afcd79f60e31b815260040160405180910390fd5b610e7a61133f565b806001600160a01b03163b5f036113a157604051634c9c8ce360e01b81526001600160a01b038216600482015260240161072a565b5f80516020611a8f83398151915280546001600160a01b0319166001600160a01b0392909216919091179055565b60605f80846001600160a01b0316846040516113eb9190611a78565b5f60405180830381855af49150503d805f8114611423576040519150601f19603f3d011682016040523d82523d5f602084013e611428565b606091505b5091509150611438858383611479565b95945050505050565b34156106f05760405163b398979f60e01b815260040160405180910390fd5b5f61146961108e565b54600160401b900460ff16919050565b60608261148e57611489826114d8565b6114d1565b81511580156114a557506001600160a01b0384163b155b156114ce57604051639996b31560e01b81526001600160a01b038516600482015260240161072a565b50805b9392505050565b8051156114e85780518082602001fd5b60405163d6bda27560e01b815260040160405180910390fd5b6001600160a01b038116811461073c575f80fd5b5f60208284031215611525575f80fd5b81356114d181611501565b5f8060208385031215611541575f80fd5b82356001600160401b03811115611556575f80fd5b8301601f81018513611566575f80fd5b80356001600160401b0381111561157b575f80fd5b85602082840101111561158c575f80fd5b6020919091019590945092505050565b634e487b7160e01b5f52604160045260245ffd5b604051601f8201601f191681016001600160401b03811182821017156115d8576115d861159c565b604052919050565b5f80604083850312156115f1575f80fd5b82356115fc81611501565b915060208301356001600160401b03811115611616575f80fd5b8301601f81018513611626575f80fd5b80356001600160401b0381111561163f5761163f61159c565b611652601f8201601f19166020016115b0565b818152866020838501011115611666575f80fd5b816020840160208301375f602083830101528093505050509250929050565b5f81518084528060208401602086015e5f602082860101526020601f19601f83011685010191505092915050565b8215158152604060208201525f6116cd6040830184611685565b949350505050565b602081525f6114d16020830184611685565b5f805f606084860312156116f9575f80fd5b833561170481611501565b9250602084013561171481611501565b9150604084013561172481611501565b809150509250925092565b5f6001600160401b038211156117475761174761159c565b5060051b60200190565b5f82601f830112611760575f80fd5b815161177361176e8261172f565b6115b0565b8082825260208201915060208360051b860101925085831115611794575f80fd5b602085015b838110156117ba5780516117ac81611501565b835260209283019201611799565b5095945050505050565b5f602082840312156117d4575f80fd5b81516001600160401b038111156117e9575f80fd5b6116cd84828501611751565b634e487b7160e01b5f52603260045260245ffd5b5f60208284031215611819575f80fd5b5051919050565b5f8060408385031215611831575f80fd5b82516001600160401b03811115611846575f80fd5b61185285828601611751565b92505060208301516001600160401b0381111561186d575f80fd5b8301601f8101851361187d575f80fd5b805161188b61176e8261172f565b8082825260208201915060208360051b8501019250878311156118ac575f80fd5b6020840193505b828410156118ce5783518252602093840193909101906118b3565b809450505050509250929050565b634e487b7160e01b5f52601160045260245ffd5b8082028115828204841417610a1b57610a1b6118dc565b80820180821115610a1b57610a1b6118dc565b5f6020828403121561192a575f80fd5b81516114d181611501565b5f60208284031215611945575f80fd5b815160ff811681146114d1575f80fd5b81810381811115610a1b57610a1b6118dc565b6001815b60018411156119a357808504811115611987576119876118dc565b600184161561199557908102905b60019390931c92800261196c565b935093915050565b5f826119b957506001610a1b565b816119c557505f610a1b565b81600181146119db57600281146119e557611a01565b6001915050610a1b565b60ff8411156119f6576119f66118dc565b50506001821b610a1b565b5060208310610133831016604e8410600b8410161715611a24575081810a610a1b565b611a305f198484611968565b805f1904821115611a4357611a436118dc565b029392505050565b5f6114d160ff8416836119ab565b5f82611a7357634e487b7160e01b5f52601260045260245ffd5b500490565b5f82518060208501845e5f92019182525091905056fe360894a13ba1a3210667c828492db98dca3e2076cc3735a920a3ca505d382bbca2646970667358221220571f0c4be666e5879c7ff67507883df7457c9aa9448b230908bb8251162cde8a64736f6c634300081a0033",
  "linkReferences": {},
  "deployedLinkReferences": {}
}