{
  "_format": "hh-sol-artifact-1",
  "contractName": "InternalStatesOrchestrator",
  "sourceName": "contracts/InternalStatesOrchestrator.sol",
  "abi": [
    {
      "inputs": [
        {
          "internalType": "address",
          "name": "_registry",
          "type": "address"
        },
        {
          "internalType": "address",
          "name": "_config",
          "type": "address"
        }
      ],
      "stateMutability": "nonpayable",
      "type": "constructor"
    },
    {
      "inputs": [
        {
          "internalType": "address",
          "name": "owner",
          "type": "address"
        }
      ],
      "name": "OwnableInvalidOwner",
      "type": "error"
    },
    {
      "inputs": [
        {
          "internalType": "address",
          "name": "account",
          "type": "address"
        }
      ],
      "name": "OwnableUnauthorizedAccount",
      "type": "error"
    },
    {
      "anonymous": false,
      "inputs": [
        {
          "indexed": false,
          "internalType": "uint256",
          "name": "timestamp",
          "type": "uint256"
        }
      ],
      "name": "InternalStateProcessed",
      "type": "event"
    },
    {
      "anonymous": false,
      "inputs": [
        {
          "indexed": true,
          "internalType": "address",
          "name": "previousOwner",
          "type": "address"
        },
        {
          "indexed": true,
          "internalType": "address",
          "name": "newOwner",
          "type": "address"
        }
      ],
      "name": "OwnershipTransferStarted",
      "type": "event"
    },
    {
      "anonymous": false,
      "inputs": [
        {
          "indexed": true,
          "internalType": "address",
          "name": "previousOwner",
          "type": "address"
        },
        {
          "indexed": true,
          "internalType": "address",
          "name": "newOwner",
          "type": "address"
        }
      ],
      "name": "OwnershipTransferred",
      "type": "event"
    },
    {
      "inputs": [],
      "name": "UPDATE_INTERVAL",
      "outputs": [
        {
          "internalType": "uint256",
          "name": "",
          "type": "uint256"
        }
      ],
      "stateMutability": "view",
      "type": "function"
    },
    {
      "inputs": [],
      "name": "acceptOwnership",
      "outputs": [],
      "stateMutability": "nonpayable",
      "type": "function"
    },
    {
      "inputs": [
        {
          "internalType": "bytes",
          "name": "",
          "type": "bytes"
        }
      ],
      "name": "checkUpkeep",
      "outputs": [
        {
          "internalType": "bool",
          "name": "upkeepNeeded",
          "type": "bool"
        },
        {
          "internalType": "bytes",
          "name": "performData",
          "type": "bytes"
        }
      ],
      "stateMutability": "view",
      "type": "function"
    },
    {
      "inputs": [],
      "name": "config",
      "outputs": [
        {
          "internalType": "contract IOrionConfig",
          "name": "",
          "type": "address"
        }
      ],
      "stateMutability": "view",
      "type": "function"
    },
    {
      "inputs": [],
      "name": "nextUpdateTime",
      "outputs": [
        {
          "internalType": "uint256",
          "name": "",
          "type": "uint256"
        }
      ],
      "stateMutability": "view",
      "type": "function"
    },
    {
      "inputs": [],
      "name": "owner",
      "outputs": [
        {
          "internalType": "address",
          "name": "",
          "type": "address"
        }
      ],
      "stateMutability": "view",
      "type": "function"
    },
    {
      "inputs": [],
      "name": "pendingOwner",
      "outputs": [
        {
          "internalType": "address",
          "name": "",
          "type": "address"
        }
      ],
      "stateMutability": "view",
      "type": "function"
    },
    {
      "inputs": [
        {
          "internalType": "bytes",
          "name": "",
          "type": "bytes"
        }
      ],
      "name": "performUpkeep",
      "outputs": [],
      "stateMutability": "nonpayable",
      "type": "function"
    },
    {
      "inputs": [],
      "name": "registry",
      "outputs": [
        {
          "internalType": "address",
          "name": "",
          "type": "address"
        }
      ],
      "stateMutability": "view",
      "type": "function"
    },
    {
      "inputs": [],
      "name": "renounceOwnership",
      "outputs": [],
      "stateMutability": "nonpayable",
      "type": "function"
    },
    {
      "inputs": [
        {
          "internalType": "address",
          "name": "newOwner",
          "type": "address"
        }
      ],
      "name": "transferOwnership",
      "outputs": [],
      "stateMutability": "nonpayable",
      "type": "function"
    }
  ],
  "bytecode": "0x60a060405234801561000f575f80fd5b50604051610ab8380380610ab883398101604081905261002e9161011e565b338061005357604051631e4fbdf760e01b81525f600482015260240160405180910390fd5b61005c81610098565b506001600160a01b03828116608052600380546001600160a01b03191691831691909117905561008d603c4261014f565b600255506101749050565b600180546001600160a01b03191690556100b1816100b4565b50565b5f80546001600160a01b038381166001600160a01b0319831681178455604051919092169283917f8be0079c531659141344cd1fd0a4f28419497f9722a3daafe3b4186f6b6457e09190a35050565b80516001600160a01b0381168114610119575f80fd5b919050565b5f806040838503121561012f575f80fd5b61013883610103565b915061014660208401610103565b90509250929050565b8082018082111561016e57634e487b7160e01b5f52601160045260245ffd5b92915050565b6080516109256101935f395f818161015301526101bc01526109255ff3fe608060405234801561000f575f80fd5b50600436106100a6575f3560e01c806379ba50971161006e57806379ba5097146101465780637b1039991461014e57806389ac4147146101755780638da5cb5b1461017d578063e30c39781461018d578063f2fde38b1461019e575f80fd5b806335238fb8146100aa5780634585e33b146100c65780636e04ff0d146100db578063715018a61461011357806379502c551461011b575b5f80fd5b6100b360025481565b6040519081526020015b60405180910390f35b6100d96100d43660046106a1565b6101b1565b005b6101056100e93660046106a1565b505060025460408051602081019091525f815242919091101591565b6040516100bd92919061070f565b6100d961054b565b60035461012e906001600160a01b031681565b6040516001600160a01b0390911681526020016100bd565b6100d961055e565b61012e7f000000000000000000000000000000000000000000000000000000000000000081565b6100b3603c81565b5f546001600160a01b031661012e565b6001546001600160a01b031661012e565b6100d96101ac366004610761565b6105a2565b336001600160a01b037f000000000000000000000000000000000000000000000000000000000000000016146102275760405162461bcd60e51b81526020600482015260166024820152754e6f7420436861696e6c696e6b20526567697374727960501b60448201526064015b60405180910390fd5b6002544210156102655760405162461bcd60e51b8152602060048201526009602482015268546f6f206561726c7960b81b604482015260640161021e565b60035460408051630c12c2a560e31b815290515f926001600160a01b03169163609615289160048083019260209291908290030181865afa1580156102ac573d5f803e3d5ffd5b505050506040513d601f19601f820116820180604052508101906102d09190610783565b90505f80826001600160a01b031663bd9a548b6040518163ffffffff1660e01b81526004015f60405180830381865afa15801561030f573d5f803e3d5ffd5b505050506040513d5f823e601f3d908101601f19168201604052610336919081019061084e565b915091505f60035f9054906101000a90046001600160a01b03166001600160a01b031663aa360c166040518163ffffffff1660e01b8152600401602060405180830381865afa15801561038b573d5f803e3d5ffd5b505050506040513d601f19601f820116820180604052508101906103af91906108b3565b90505f5b81811015610501576003546040516301d03cab60e21b8152600481018390525f916001600160a01b031690630740f2ac90602401602060405180830381865afa158015610402573d5f803e3d5ffd5b505050506040513d601f19601f820116820180604052508101906104269190610783565b90505f8190505f816001600160a01b031663872697296040518163ffffffff1660e01b8152600401602060405180830381865afa158015610469573d5f803e3d5ffd5b505050506040513d601f19601f8201168201806040525081019061048d91906108b3565b90505f826001600160a01b03166301e1d1146040518163ffffffff1660e01b8152600401602060405180830381865afa1580156104cc573d5f803e3d5ffd5b505050506040513d601f19601f820116820180604052508101906104f091906108b3565b5050600190930192506103b3915050565b506040514281527f9375d658f91055a030c54d5cf460d6f12968b10b80b0797c1aa5c02e4dca94039060200160405180910390a1610540603c426108ca565b600255505050505050565b610553610612565b61055c5f61063e565b565b60015433906001600160a01b031681146105965760405163118cdaa760e01b81526001600160a01b038216600482015260240161021e565b61059f8161063e565b50565b6105aa610612565b600180546001600160a01b0383166001600160a01b031990911681179091556105da5f546001600160a01b031690565b6001600160a01b03167f38d16b8cac22d99fc7c124b9cd0de2d3fa1faef420bfe791d8c362d765e2270060405160405180910390a350565b5f546001600160a01b0316331461055c5760405163118cdaa760e01b815233600482015260240161021e565b600180546001600160a01b031916905561059f815f80546001600160a01b038381166001600160a01b0319831681178455604051919092169283917f8be0079c531659141344cd1fd0a4f28419497f9722a3daafe3b4186f6b6457e09190a35050565b5f80602083850312156106b2575f80fd5b823567ffffffffffffffff8111156106c8575f80fd5b8301601f810185136106d8575f80fd5b803567ffffffffffffffff8111156106ee575f80fd5b8560208284010111156106ff575f80fd5b6020919091019590945092505050565b8215158152604060208201525f82518060408401528060208501606085015e5f606082850101526060601f19601f8301168401019150509392505050565b6001600160a01b038116811461059f575f80fd5b5f60208284031215610771575f80fd5b813561077c8161074d565b9392505050565b5f60208284031215610793575f80fd5b815161077c8161074d565b634e487b7160e01b5f52604160045260245ffd5b5f82601f8301126107c1575f80fd5b815167ffffffffffffffff8111156107db576107db61079e565b8060051b604051601f19603f830116810181811067ffffffffffffffff821117156108085761080861079e565b604052918252602081850181019290810186841115610825575f80fd5b6020860192505b8383101561084457825181526020928301920161082c565b5095945050505050565b5f806040838503121561085f575f80fd5b825167ffffffffffffffff811115610875575f80fd5b610881858286016107b2565b925050602083015167ffffffffffffffff81111561089d575f80fd5b6108a9858286016107b2565b9150509250929050565b5f602082840312156108c3575f80fd5b5051919050565b808201808211156108e957634e487b7160e01b5f52601160045260245ffd5b9291505056fea26469706673582212202b0cf17145a3a76484cda127971b136800e8dffb107d867c34ffae297c85599e64736f6c634300081a0033",
  "linkReferences": {},
  "deployedLinkReferences": {}
}