{
  "_format": "hh-sol-artifact-1",
  "contractName": "InternalStatesOrchestrator",
  "sourceName": "contracts/InternalStatesOrchestrator.sol",
  "abi": [
    {
      "inputs": [],
      "stateMutability": "nonpayable",
      "type": "constructor"
    },
    {
      "inputs": [
        {
          "internalType": "address",
          "name": "owner",
          "type": "address"
        }
      ],
      "name": "OwnableInvalidOwner",
      "type": "error"
    },
    {
      "inputs": [
        {
          "internalType": "address",
          "name": "account",
          "type": "address"
        }
      ],
      "name": "OwnableUnauthorizedAccount",
      "type": "error"
    },
    {
      "anonymous": false,
      "inputs": [
        {
          "indexed": true,
          "internalType": "address",
          "name": "previousOwner",
          "type": "address"
        },
        {
          "indexed": true,
          "internalType": "address",
          "name": "newOwner",
          "type": "address"
        }
      ],
      "name": "OwnershipTransferStarted",
      "type": "event"
    },
    {
      "anonymous": false,
      "inputs": [
        {
          "indexed": true,
          "internalType": "address",
          "name": "previousOwner",
          "type": "address"
        },
        {
          "indexed": true,
          "internalType": "address",
          "name": "newOwner",
          "type": "address"
        }
      ],
      "name": "OwnershipTransferred",
      "type": "event"
    },
    {
      "inputs": [],
      "name": "acceptOwnership",
      "outputs": [],
      "stateMutability": "nonpayable",
      "type": "function"
    },
    {
      "inputs": [],
      "name": "owner",
      "outputs": [
        {
          "internalType": "address",
          "name": "",
          "type": "address"
        }
      ],
      "stateMutability": "view",
      "type": "function"
    },
    {
      "inputs": [],
      "name": "pendingOwner",
      "outputs": [
        {
          "internalType": "address",
          "name": "",
          "type": "address"
        }
      ],
      "stateMutability": "view",
      "type": "function"
    },
    {
      "inputs": [],
      "name": "renounceOwnership",
      "outputs": [],
      "stateMutability": "nonpayable",
      "type": "function"
    },
    {
      "inputs": [
        {
          "internalType": "address",
          "name": "newOwner",
          "type": "address"
        }
      ],
      "name": "transferOwnership",
      "outputs": [],
      "stateMutability": "nonpayable",
      "type": "function"
    }
  ],
  "bytecode": "0x6080604052348015600e575f80fd5b503380603357604051631e4fbdf760e01b81525f600482015260240160405180910390fd5b603a81603f565b5060a8565b600180546001600160a01b03191690556056816059565b50565b5f80546001600160a01b038381166001600160a01b0319831681178455604051919092169283917f8be0079c531659141344cd1fd0a4f28419497f9722a3daafe3b4186f6b6457e09190a35050565b610275806100b55f395ff3fe608060405234801561000f575f80fd5b5060043610610055575f3560e01c8063715018a61461005957806379ba5097146100635780638da5cb5b1461006b578063e30c397814610093578063f2fde38b146100a4575b5f80fd5b6100616100b7565b005b6100616100ca565b5f546001600160a01b03165b6040516001600160a01b03909116815260200160405180910390f35b6001546001600160a01b0316610077565b6100616100b2366004610212565b610113565b6100bf610183565b6100c85f6101af565b565b60015433906001600160a01b031681146101075760405163118cdaa760e01b81526001600160a01b03821660048201526024015b60405180910390fd5b610110816101af565b50565b61011b610183565b600180546001600160a01b0383166001600160a01b0319909116811790915561014b5f546001600160a01b031690565b6001600160a01b03167f38d16b8cac22d99fc7c124b9cd0de2d3fa1faef420bfe791d8c362d765e2270060405160405180910390a350565b5f546001600160a01b031633146100c85760405163118cdaa760e01b81523360048201526024016100fe565b600180546001600160a01b0319169055610110815f80546001600160a01b038381166001600160a01b0319831681178455604051919092169283917f8be0079c531659141344cd1fd0a4f28419497f9722a3daafe3b4186f6b6457e09190a35050565b5f60208284031215610222575f80fd5b81356001600160a01b0381168114610238575f80fd5b939250505056fea264697066735822122043fa558106ef7b5f5a51f2456a36ee280e894dcb68a1aae9be34d3dc892d122b64736f6c634300081a0033",
  "linkReferences": {},
  "deployedLinkReferences": {}
}