{
  "_format": "hh-sol-artifact-1",
  "contractName": "InternalStatesOrchestrator",
  "sourceName": "contracts/InternalStatesOrchestrator.sol",
  "abi": [
    {
      "inputs": [
        {
          "internalType": "address",
          "name": "target",
          "type": "address"
        }
      ],
      "name": "AddressEmptyCode",
      "type": "error"
    },
    {
      "inputs": [
        {
          "internalType": "address",
          "name": "implementation",
          "type": "address"
        }
      ],
      "name": "ERC1967InvalidImplementation",
      "type": "error"
    },
    {
      "inputs": [],
      "name": "ERC1967NonPayable",
      "type": "error"
    },
    {
      "inputs": [],
      "name": "FailedCall",
      "type": "error"
    },
    {
      "inputs": [],
      "name": "InvalidInitialization",
      "type": "error"
    },
    {
      "inputs": [],
      "name": "NotAuthorized",
      "type": "error"
    },
    {
      "inputs": [],
      "name": "NotInitializing",
      "type": "error"
    },
    {
      "inputs": [
        {
          "internalType": "address",
          "name": "owner",
          "type": "address"
        }
      ],
      "name": "OwnableInvalidOwner",
      "type": "error"
    },
    {
      "inputs": [
        {
          "internalType": "address",
          "name": "account",
          "type": "address"
        }
      ],
      "name": "OwnableUnauthorizedAccount",
      "type": "error"
    },
    {
      "inputs": [],
      "name": "ReentrancyGuardReentrantCall",
      "type": "error"
    },
    {
      "inputs": [],
      "name": "TooEarly",
      "type": "error"
    },
    {
      "inputs": [],
      "name": "UUPSUnauthorizedCallContext",
      "type": "error"
    },
    {
      "inputs": [
        {
          "internalType": "bytes32",
          "name": "slot",
          "type": "bytes32"
        }
      ],
      "name": "UUPSUnsupportedProxiableUUID",
      "type": "error"
    },
    {
      "inputs": [],
      "name": "ZeroAddress",
      "type": "error"
    },
    {
      "anonymous": false,
      "inputs": [
        {
          "indexed": true,
          "internalType": "address",
          "name": "newAutomationRegistry",
          "type": "address"
        }
      ],
      "name": "AutomationRegistryUpdated",
      "type": "event"
    },
    {
      "anonymous": false,
      "inputs": [
        {
          "indexed": false,
          "internalType": "uint64",
          "name": "version",
          "type": "uint64"
        }
      ],
      "name": "Initialized",
      "type": "event"
    },
    {
      "anonymous": false,
      "inputs": [
        {
          "indexed": false,
          "internalType": "uint256",
          "name": "timestamp",
          "type": "uint256"
        }
      ],
      "name": "InternalStateProcessed",
      "type": "event"
    },
    {
      "anonymous": false,
      "inputs": [
        {
          "indexed": true,
          "internalType": "address",
          "name": "previousOwner",
          "type": "address"
        },
        {
          "indexed": true,
          "internalType": "address",
          "name": "newOwner",
          "type": "address"
        }
      ],
      "name": "OwnershipTransferStarted",
      "type": "event"
    },
    {
      "anonymous": false,
      "inputs": [
        {
          "indexed": true,
          "internalType": "address",
          "name": "previousOwner",
          "type": "address"
        },
        {
          "indexed": true,
          "internalType": "address",
          "name": "newOwner",
          "type": "address"
        }
      ],
      "name": "OwnershipTransferred",
      "type": "event"
    },
    {
      "anonymous": false,
      "inputs": [
        {
          "indexed": true,
          "internalType": "address",
          "name": "implementation",
          "type": "address"
        }
      ],
      "name": "Upgraded",
      "type": "event"
    },
    {
      "inputs": [],
      "name": "UPGRADE_INTERFACE_VERSION",
      "outputs": [
        {
          "internalType": "string",
          "name": "",
          "type": "string"
        }
      ],
      "stateMutability": "view",
      "type": "function"
    },
    {
      "inputs": [],
      "name": "acceptOwnership",
      "outputs": [],
      "stateMutability": "nonpayable",
      "type": "function"
    },
    {
      "inputs": [],
      "name": "automationRegistry",
      "outputs": [
        {
          "internalType": "address",
          "name": "",
          "type": "address"
        }
      ],
      "stateMutability": "view",
      "type": "function"
    },
    {
      "inputs": [
        {
          "internalType": "bytes",
          "name": "",
          "type": "bytes"
        }
      ],
      "name": "checkUpkeep",
      "outputs": [
        {
          "internalType": "bool",
          "name": "upkeepNeeded",
          "type": "bool"
        },
        {
          "internalType": "bytes",
          "name": "performData",
          "type": "bytes"
        }
      ],
      "stateMutability": "view",
      "type": "function"
    },
    {
      "inputs": [],
      "name": "config",
      "outputs": [
        {
          "internalType": "contract IOrionConfig",
          "name": "",
          "type": "address"
        }
      ],
      "stateMutability": "view",
      "type": "function"
    },
    {
      "inputs": [
        {
          "internalType": "address",
          "name": "initialOwner",
          "type": "address"
        },
        {
          "internalType": "address",
          "name": "automationRegistry_",
          "type": "address"
        },
        {
          "internalType": "address",
          "name": "config_",
          "type": "address"
        }
      ],
      "name": "initialize",
      "outputs": [],
      "stateMutability": "nonpayable",
      "type": "function"
    },
    {
      "inputs": [],
      "name": "nextUpdateTime",
      "outputs": [
        {
          "internalType": "uint256",
          "name": "",
          "type": "uint256"
        }
      ],
      "stateMutability": "view",
      "type": "function"
    },
    {
      "inputs": [],
      "name": "owner",
      "outputs": [
        {
          "internalType": "address",
          "name": "",
          "type": "address"
        }
      ],
      "stateMutability": "view",
      "type": "function"
    },
    {
      "inputs": [
        {
          "internalType": "address",
          "name": "",
          "type": "address"
        }
      ],
      "name": "pctChange",
      "outputs": [
        {
          "internalType": "int256",
          "name": "",
          "type": "int256"
        }
      ],
      "stateMutability": "view",
      "type": "function"
    },
    {
      "inputs": [],
      "name": "pendingOwner",
      "outputs": [
        {
          "internalType": "address",
          "name": "",
          "type": "address"
        }
      ],
      "stateMutability": "view",
      "type": "function"
    },
    {
      "inputs": [
        {
          "internalType": "bytes",
          "name": "",
          "type": "bytes"
        }
      ],
      "name": "performUpkeep",
      "outputs": [],
      "stateMutability": "nonpayable",
      "type": "function"
    },
    {
      "inputs": [],
      "name": "proxiableUUID",
      "outputs": [
        {
          "internalType": "bytes32",
          "name": "",
          "type": "bytes32"
        }
      ],
      "stateMutability": "view",
      "type": "function"
    },
    {
      "inputs": [],
      "name": "renounceOwnership",
      "outputs": [],
      "stateMutability": "nonpayable",
      "type": "function"
    },
    {
      "inputs": [
        {
          "internalType": "address",
          "name": "newOwner",
          "type": "address"
        }
      ],
      "name": "transferOwnership",
      "outputs": [],
      "stateMutability": "nonpayable",
      "type": "function"
    },
    {
      "inputs": [
        {
          "internalType": "address",
          "name": "newAutomationRegistry",
          "type": "address"
        }
      ],
      "name": "updateAutomationRegistry",
      "outputs": [],
      "stateMutability": "nonpayable",
      "type": "function"
    },
    {
      "inputs": [
        {
          "internalType": "address",
          "name": "newConfig",
          "type": "address"
        }
      ],
      "name": "updateConfig",
      "outputs": [],
      "stateMutability": "nonpayable",
      "type": "function"
    },
    {
      "inputs": [],
      "name": "updateInterval",
      "outputs": [
        {
          "internalType": "uint256",
          "name": "",
          "type": "uint256"
        }
      ],
      "stateMutability": "view",
      "type": "function"
    },
    {
      "inputs": [
        {
          "internalType": "address",
          "name": "newImplementation",
          "type": "address"
        },
        {
          "internalType": "bytes",
          "name": "data",
          "type": "bytes"
        }
      ],
      "name": "upgradeToAndCall",
      "outputs": [],
      "stateMutability": "payable",
      "type": "function"
    }
  ],
  "bytecode": "0x60a0604052306080523480156012575f80fd5b506080516114426100395f395f8181610b0301528181610b2c0152610c7001526114425ff3fe608060405260043610610105575f3560e01c8063728fb55d11610092578063ad3cb1cc11610062578063ad3cb1cc146102a0578063c0c53b8b146102dd578063e30c3978146102fc578063f2fde38b14610310578063fd2c80ae1461032f575f80fd5b8063728fb55d1461022e57806379502c551461025957806379ba5097146102785780638da5cb5b1461028c575f80fd5b806352d1902d116100d857806352d1902d146101835780635dc228a0146101975780636cc919c8146101ce5780636e04ff0d146101ed578063715018a61461021a575f80fd5b806314b5d07f1461010957806335238fb81461012a5780634585e33b146101515780634f1ef28614610170575b5f80fd5b348015610114575f80fd5b50610128610123366004610fc1565b610343565b005b348015610135575f80fd5b5061013e5f5481565b6040519081526020015b60405180910390f35b34801561015c575f80fd5b5061012861016b366004610fdc565b6103bb565b61012861017e36600461108f565b610706565b34801561018e575f80fd5b5061013e610721565b3480156101a2575f80fd5b506001546101b6906001600160a01b031681565b6040516001600160a01b039091168152602001610148565b3480156101d9575f80fd5b506101286101e8366004610fc1565b61073c565b3480156101f8575f80fd5b5061020c610207366004610fdc565b610766565b604051610148929190611164565b348015610225575f80fd5b5061012861078e565b348015610239575f80fd5b5061013e610248366004610fc1565b60036020525f908152604090205481565b348015610264575f80fd5b506002546101b6906001600160a01b031681565b348015610283575f80fd5b506101286107a1565b348015610297575f80fd5b506101b66107ee565b3480156102ab575f80fd5b506102d0604051806040016040528060058152602001640352e302e360dc1b81525081565b6040516101489190611186565b3480156102e8575f80fd5b506101286102f7366004611198565b610822565b348015610307575f80fd5b506101b6610997565b34801561031b575f80fd5b5061012861032a366004610fc1565b6109bf565b34801561033a575f80fd5b5061013e603c81565b61034b610a44565b6001600160a01b0381166103725760405163d92e233d60e01b815260040160405180910390fd5b600180546001600160a01b0319166001600160a01b0383169081179091556040517f6cc7ebdb6c8c53291c5ae16148cab9b049d23bf5bde5632900b40edff56fcb43905f90a250565b6001546001600160a01b031633146103e65760405163ea8e4eb560e01b815260040160405180910390fd5b6103ee610a76565b5f544210156104105760405163085de62560e01b815260040160405180910390fd5b61041942610ac0565b5f908155600254604051631da09e4360e31b81526001600160a01b039091169063ed04f2189061044d9084906004016111e0565b5f60405180830381865afa158015610467573d5f803e3d5ffd5b505050506040513d5f823e601f3d908101601f1916820160405261048e919081019061129c565b90505f5b8151811015610591575f8282815181106104ae576104ae6112ce565b602002602001015190505f816001600160a01b03166301e1d1146040518163ffffffff1660e01b8152600401602060405180830381865afa1580156104f5573d5f803e3d5ffd5b505050506040513d601f19601f8201168201806040525081019061051991906112e2565b90505f80836001600160a01b031663d3d034586040518163ffffffff1660e01b81526004015f60405180830381865afa158015610558573d5f803e3d5ffd5b505050506040513d5f823e601f3d908101601f1916820160405261057f91908101906112f9565b50506001909401935061049292505050565b50600254604051631da09e4360e31b81525f916001600160a01b03169063ed04f218906105c3906001906004016111e0565b5f60405180830381865afa1580156105dd573d5f803e3d5ffd5b505050506040513d5f823e601f3d908101601f19168201604052610604919081019061129c565b90505f5b81518110156106a3575f828281518110610624576106246112ce565b602002602001015190505f80826001600160a01b031663d3d034586040518163ffffffff1660e01b81526004015f60405180830381865afa15801561066b573d5f803e3d5ffd5b505050506040513d5f823e601f3d908101601f1916820160405261069291908101906112f9565b505060019093019250610608915050565b506040514281527f9375d658f91055a030c54d5cf460d6f12968b10b80b0797c1aa5c02e4dca94039060200160405180910390a1505061070260017f9b779b17422d0df92223018b32b4d1fa46e071723d6817e2486d003becc55f0055565b5050565b61070e610af8565b61071782610b9c565b6107028282610ba4565b5f61072a610c65565b505f805160206113ed83398151915290565b610744610a44565b600280546001600160a01b0319166001600160a01b0392909216919091179055565b5f60606107745f5442101590565b915060405180602001604052805f81525090509250929050565b610796610a44565b61079f5f610cae565b565b33806107ab610997565b6001600160a01b0316146107e25760405163118cdaa760e01b81526001600160a01b03821660048201526024015b60405180910390fd5b6107eb81610cae565b50565b5f807f9016d09d72d40fdae2fd8ceac6b6234c7706214fd39c1cd1e609a0528c1993005b546001600160a01b031692915050565b5f61082b610ce6565b805490915060ff600160401b820416159067ffffffffffffffff165f811580156108525750825b90505f8267ffffffffffffffff16600114801561086e5750303b155b90508115801561087c575080155b1561089a5760405163f92ee8a960e01b815260040160405180910390fd5b845467ffffffffffffffff1916600117855583156108c457845460ff60401b1916600160401b1785555b6108cc610d0e565b6108d4610d0e565b6108dc610d16565b6108e588610cae565b6001600160a01b03871661090c5760405163d92e233d60e01b815260040160405180910390fd5b600180546001600160a01b03808a166001600160a01b031992831617909255600280549289169290911691909117905561094542610ac0565b5f55831561098d57845460ff60401b19168555604051600181527fc7f505b2f371ae2175ee4913f4499e1f2633a7b5936321eed1cdaeb6115181d29060200160405180910390a15b5050505050505050565b5f807f237e158222e3e6968b72b9db0d8043aacf074ad9f650f0d1606b4d82ee432c00610812565b6109c7610a44565b7f237e158222e3e6968b72b9db0d8043aacf074ad9f650f0d1606b4d82ee432c0080546001600160a01b0319166001600160a01b0383169081178255610a0b6107ee565b6001600160a01b03167f38d16b8cac22d99fc7c124b9cd0de2d3fa1faef420bfe791d8c362d765e2270060405160405180910390a35050565b33610a4d6107ee565b6001600160a01b03161461079f5760405163118cdaa760e01b81523360048201526024016107d9565b7f9b779b17422d0df92223018b32b4d1fa46e071723d6817e2486d003becc55f00805460011901610aba57604051633ee5aeb560e01b815260040160405180910390fd5b60029055565b5f610acc603c836113b7565b92915050565b60017f9b779b17422d0df92223018b32b4d1fa46e071723d6817e2486d003becc55f0055565b306001600160a01b037f0000000000000000000000000000000000000000000000000000000000000000161480610b7e57507f00000000000000000000000000000000000000000000000000000000000000006001600160a01b0316610b725f805160206113ed833981519152546001600160a01b031690565b6001600160a01b031614155b1561079f5760405163703e46dd60e11b815260040160405180910390fd5b6107eb610a44565b816001600160a01b03166352d1902d6040518163ffffffff1660e01b8152600401602060405180830381865afa925050508015610bfe575060408051601f3d908101601f19168201909252610bfb918101906112e2565b60015b610c2657604051634c9c8ce360e01b81526001600160a01b03831660048201526024016107d9565b5f805160206113ed8339815191528114610c5657604051632a87526960e21b8152600481018290526024016107d9565b610c608383610d26565b505050565b306001600160a01b037f0000000000000000000000000000000000000000000000000000000000000000161461079f5760405163703e46dd60e11b815260040160405180910390fd5b7f237e158222e3e6968b72b9db0d8043aacf074ad9f650f0d1606b4d82ee432c0080546001600160a01b031916815561070282610d7b565b5f807ff0c57e16840df040f15088dc2f81fe391c3923bec73e23a9662efc9c229c6a00610acc565b61079f610deb565b610d1e610deb565b61079f610e10565b610d2f82610e18565b6040516001600160a01b038316907fbc7cd75a20ee27fd9adebab32041f755214dbc6bffa90cc0225b39da2e5c2d3b905f90a2805115610d7357610c608282610e7b565b610702610eed565b7f9016d09d72d40fdae2fd8ceac6b6234c7706214fd39c1cd1e609a0528c19930080546001600160a01b031981166001600160a01b03848116918217845560405192169182907f8be0079c531659141344cd1fd0a4f28419497f9722a3daafe3b4186f6b6457e0905f90a3505050565b610df3610f0c565b61079f57604051631afcd79f60e31b815260040160405180910390fd5b610ad2610deb565b806001600160a01b03163b5f03610e4d57604051634c9c8ce360e01b81526001600160a01b03821660048201526024016107d9565b5f805160206113ed83398151915280546001600160a01b0319166001600160a01b0392909216919091179055565b60605f80846001600160a01b031684604051610e9791906113d6565b5f60405180830381855af49150503d805f8114610ecf576040519150601f19603f3d011682016040523d82523d5f602084013e610ed4565b606091505b5091509150610ee4858383610f25565b95945050505050565b341561079f5760405163b398979f60e01b815260040160405180910390fd5b5f610f15610ce6565b54600160401b900460ff16919050565b606082610f3a57610f3582610f84565b610f7d565b8151158015610f5157506001600160a01b0384163b155b15610f7a57604051639996b31560e01b81526001600160a01b03851660048201526024016107d9565b50805b9392505050565b805115610f945780518082602001fd5b60405163d6bda27560e01b815260040160405180910390fd5b6001600160a01b03811681146107eb575f80fd5b5f60208284031215610fd1575f80fd5b8135610f7d81610fad565b5f8060208385031215610fed575f80fd5b823567ffffffffffffffff811115611003575f80fd5b8301601f81018513611013575f80fd5b803567ffffffffffffffff811115611029575f80fd5b85602082840101111561103a575f80fd5b6020919091019590945092505050565b634e487b7160e01b5f52604160045260245ffd5b604051601f8201601f1916810167ffffffffffffffff811182821017156110875761108761104a565b604052919050565b5f80604083850312156110a0575f80fd5b82356110ab81610fad565b9150602083013567ffffffffffffffff8111156110c6575f80fd5b8301601f810185136110d6575f80fd5b803567ffffffffffffffff8111156110f0576110f061104a565b611103601f8201601f191660200161105e565b818152866020838501011115611117575f80fd5b816020840160208301375f602083830101528093505050509250929050565b5f81518084528060208401602086015e5f602082860101526020601f19601f83011685010191505092915050565b8215158152604060208201525f61117e6040830184611136565b949350505050565b602081525f610f7d6020830184611136565b5f805f606084860312156111aa575f80fd5b83356111b581610fad565b925060208401356111c581610fad565b915060408401356111d581610fad565b809150509250925092565b602081016002831061120057634e487b7160e01b5f52602160045260245ffd5b91905290565b5f67ffffffffffffffff82111561121f5761121f61104a565b5060051b60200190565b5f82601f830112611238575f80fd5b815161124b61124682611206565b61105e565b8082825260208201915060208360051b86010192508583111561126c575f80fd5b602085015b8381101561129257805161128481610fad565b835260209283019201611271565b5095945050505050565b5f602082840312156112ac575f80fd5b815167ffffffffffffffff8111156112c2575f80fd5b61117e84828501611229565b634e487b7160e01b5f52603260045260245ffd5b5f602082840312156112f2575f80fd5b5051919050565b5f806040838503121561130a575f80fd5b825167ffffffffffffffff811115611320575f80fd5b61132c85828601611229565b925050602083015167ffffffffffffffff811115611348575f80fd5b8301601f81018513611358575f80fd5b805161136661124682611206565b8082825260208201915060208360051b850101925087831115611387575f80fd5b6020840193505b828410156113a957835182526020938401939091019061138e565b809450505050509250929050565b80820180821115610acc57634e487b7160e01b5f52601160045260245ffd5b5f82518060208501845e5f92019182525091905056fe360894a13ba1a3210667c828492db98dca3e2076cc3735a920a3ca505d382bbca2646970667358221220a29eb0def8d61f2df1c62781e0f72b95a91e66a899e7737aa82e19ca61c3199b64736f6c634300081a0033",
  "linkReferences": {},
  "deployedLinkReferences": {}
}