{
  "_format": "hh-sol-artifact-1",
  "contractName": "InternalStatesOrchestrator",
  "sourceName": "contracts/InternalStatesOrchestrator.sol",
  "abi": [
    {
      "inputs": [
        {
          "internalType": "address",
          "name": "target",
          "type": "address"
        }
      ],
      "name": "AddressEmptyCode",
      "type": "error"
    },
    {
      "inputs": [
        {
          "internalType": "address",
          "name": "implementation",
          "type": "address"
        }
      ],
      "name": "ERC1967InvalidImplementation",
      "type": "error"
    },
    {
      "inputs": [],
      "name": "ERC1967NonPayable",
      "type": "error"
    },
    {
      "inputs": [],
      "name": "FailedCall",
      "type": "error"
    },
    {
      "inputs": [],
      "name": "InvalidInitialization",
      "type": "error"
    },
    {
      "inputs": [],
      "name": "NotAuthorized",
      "type": "error"
    },
    {
      "inputs": [],
      "name": "NotInitializing",
      "type": "error"
    },
    {
      "inputs": [
        {
          "internalType": "address",
          "name": "owner",
          "type": "address"
        }
      ],
      "name": "OwnableInvalidOwner",
      "type": "error"
    },
    {
      "inputs": [
        {
          "internalType": "address",
          "name": "account",
          "type": "address"
        }
      ],
      "name": "OwnableUnauthorizedAccount",
      "type": "error"
    },
    {
      "inputs": [],
      "name": "ReentrancyGuardReentrantCall",
      "type": "error"
    },
    {
      "inputs": [],
      "name": "TooEarly",
      "type": "error"
    },
    {
      "inputs": [],
      "name": "UUPSUnauthorizedCallContext",
      "type": "error"
    },
    {
      "inputs": [
        {
          "internalType": "bytes32",
          "name": "slot",
          "type": "bytes32"
        }
      ],
      "name": "UUPSUnsupportedProxiableUUID",
      "type": "error"
    },
    {
      "inputs": [],
      "name": "ZeroAddress",
      "type": "error"
    },
    {
      "anonymous": false,
      "inputs": [
        {
          "indexed": true,
          "internalType": "address",
          "name": "newAutomationRegistry",
          "type": "address"
        }
      ],
      "name": "AutomationRegistryUpdated",
      "type": "event"
    },
    {
      "anonymous": false,
      "inputs": [
        {
          "indexed": false,
          "internalType": "uint64",
          "name": "version",
          "type": "uint64"
        }
      ],
      "name": "Initialized",
      "type": "event"
    },
    {
      "anonymous": false,
      "inputs": [
        {
          "indexed": false,
          "internalType": "uint256",
          "name": "epochCounter",
          "type": "uint256"
        }
      ],
      "name": "InternalStateProcessed",
      "type": "event"
    },
    {
      "anonymous": false,
      "inputs": [
        {
          "indexed": true,
          "internalType": "address",
          "name": "previousOwner",
          "type": "address"
        },
        {
          "indexed": true,
          "internalType": "address",
          "name": "newOwner",
          "type": "address"
        }
      ],
      "name": "OwnershipTransferStarted",
      "type": "event"
    },
    {
      "anonymous": false,
      "inputs": [
        {
          "indexed": true,
          "internalType": "address",
          "name": "previousOwner",
          "type": "address"
        },
        {
          "indexed": true,
          "internalType": "address",
          "name": "newOwner",
          "type": "address"
        }
      ],
      "name": "OwnershipTransferred",
      "type": "event"
    },
    {
      "anonymous": false,
      "inputs": [
        {
          "indexed": true,
          "internalType": "address",
          "name": "implementation",
          "type": "address"
        }
      ],
      "name": "Upgraded",
      "type": "event"
    },
    {
      "inputs": [],
      "name": "UPGRADE_INTERFACE_VERSION",
      "outputs": [
        {
          "internalType": "string",
          "name": "",
          "type": "string"
        }
      ],
      "stateMutability": "view",
      "type": "function"
    },
    {
      "inputs": [],
      "name": "acceptOwnership",
      "outputs": [],
      "stateMutability": "nonpayable",
      "type": "function"
    },
    {
      "inputs": [],
      "name": "automationRegistry",
      "outputs": [
        {
          "internalType": "address",
          "name": "",
          "type": "address"
        }
      ],
      "stateMutability": "view",
      "type": "function"
    },
    {
      "inputs": [
        {
          "internalType": "bytes",
          "name": "",
          "type": "bytes"
        }
      ],
      "name": "checkUpkeep",
      "outputs": [
        {
          "internalType": "bool",
          "name": "upkeepNeeded",
          "type": "bool"
        },
        {
          "internalType": "bytes",
          "name": "performData",
          "type": "bytes"
        }
      ],
      "stateMutability": "view",
      "type": "function"
    },
    {
      "inputs": [],
      "name": "config",
      "outputs": [
        {
          "internalType": "contract IOrionConfig",
          "name": "",
          "type": "address"
        }
      ],
      "stateMutability": "view",
      "type": "function"
    },
    {
      "inputs": [],
      "name": "epochCounter",
      "outputs": [
        {
          "internalType": "uint256",
          "name": "",
          "type": "uint256"
        }
      ],
      "stateMutability": "view",
      "type": "function"
    },
    {
      "inputs": [
        {
          "internalType": "address",
          "name": "initialOwner",
          "type": "address"
        },
        {
          "internalType": "address",
          "name": "automationRegistry_",
          "type": "address"
        },
        {
          "internalType": "address",
          "name": "config_",
          "type": "address"
        }
      ],
      "name": "initialize",
      "outputs": [],
      "stateMutability": "nonpayable",
      "type": "function"
    },
    {
      "inputs": [],
      "name": "nextUpdateTime",
      "outputs": [
        {
          "internalType": "uint256",
          "name": "",
          "type": "uint256"
        }
      ],
      "stateMutability": "view",
      "type": "function"
    },
    {
      "inputs": [],
      "name": "owner",
      "outputs": [
        {
          "internalType": "address",
          "name": "",
          "type": "address"
        }
      ],
      "stateMutability": "view",
      "type": "function"
    },
    {
      "inputs": [],
      "name": "pendingOwner",
      "outputs": [
        {
          "internalType": "address",
          "name": "",
          "type": "address"
        }
      ],
      "stateMutability": "view",
      "type": "function"
    },
    {
      "inputs": [
        {
          "internalType": "bytes",
          "name": "",
          "type": "bytes"
        }
      ],
      "name": "performUpkeep",
      "outputs": [],
      "stateMutability": "nonpayable",
      "type": "function"
    },
    {
      "inputs": [],
      "name": "proxiableUUID",
      "outputs": [
        {
          "internalType": "bytes32",
          "name": "",
          "type": "bytes32"
        }
      ],
      "stateMutability": "view",
      "type": "function"
    },
    {
      "inputs": [],
      "name": "renounceOwnership",
      "outputs": [],
      "stateMutability": "nonpayable",
      "type": "function"
    },
    {
      "inputs": [
        {
          "internalType": "address",
          "name": "newOwner",
          "type": "address"
        }
      ],
      "name": "transferOwnership",
      "outputs": [],
      "stateMutability": "nonpayable",
      "type": "function"
    },
    {
      "inputs": [
        {
          "internalType": "address",
          "name": "newAutomationRegistry",
          "type": "address"
        }
      ],
      "name": "updateAutomationRegistry",
      "outputs": [],
      "stateMutability": "nonpayable",
      "type": "function"
    },
    {
      "inputs": [
        {
          "internalType": "address",
          "name": "newConfig",
          "type": "address"
        }
      ],
      "name": "updateConfig",
      "outputs": [],
      "stateMutability": "nonpayable",
      "type": "function"
    },
    {
      "inputs": [],
      "name": "updateInterval",
      "outputs": [
        {
          "internalType": "uint256",
          "name": "",
          "type": "uint256"
        }
      ],
      "stateMutability": "view",
      "type": "function"
    },
    {
      "inputs": [
        {
          "internalType": "address",
          "name": "newImplementation",
          "type": "address"
        },
        {
          "internalType": "bytes",
          "name": "data",
          "type": "bytes"
        }
      ],
      "name": "upgradeToAndCall",
      "outputs": [],
      "stateMutability": "payable",
      "type": "function"
    }
  ],
  "bytecode": "0x60a0604052306080523480156012575f80fd5b506080516115cf6100395f395f8181610bfc01528181610c250152610d6901526115cf5ff3fe608060405260043610610105575f3560e01c8063715018a611610092578063ad3cb1cc11610062578063ad3cb1cc1461028a578063c0c53b8b146102c7578063e30c3978146102e6578063f2fde38b146102fa578063fd2c80ae14610319575f80fd5b8063715018a61461022f57806379502c551461024357806379ba5097146102625780638da5cb5b14610276575f80fd5b80634f1ef286116100d85780634f1ef2861461018557806352d1902d146101985780635dc228a0146101ac5780636cc919c8146101e35780636e04ff0d14610202575f80fd5b806314b19c5a1461010957806314b5d07f1461013157806335238fb8146101525780634585e33b14610166575b5f80fd5b348015610114575f80fd5b5061011e60035481565b6040519081526020015b60405180910390f35b34801561013c575f80fd5b5061015061014b3660046110fc565b61032d565b005b34801561015d575f80fd5b5061011e5f5481565b348015610171575f80fd5b50610150610180366004611117565b6103a5565b6101506101933660046111ca565b6107fa565b3480156101a3575f80fd5b5061011e610815565b3480156101b7575f80fd5b506001546101cb906001600160a01b031681565b6040516001600160a01b039091168152602001610128565b3480156101ee575f80fd5b506101506101fd3660046110fc565b610830565b34801561020d575f80fd5b5061022161021c366004611117565b61085a565b60405161012892919061129f565b34801561023a575f80fd5b50610150610882565b34801561024e575f80fd5b506002546101cb906001600160a01b031681565b34801561026d575f80fd5b50610150610895565b348015610281575f80fd5b506101cb6108e2565b348015610295575f80fd5b506102ba604051806040016040528060058152602001640352e302e360dc1b81525081565b60405161012891906112c1565b3480156102d2575f80fd5b506101506102e13660046112d3565b610916565b3480156102f1575f80fd5b506101cb610a90565b348015610305575f80fd5b506101506103143660046110fc565b610ab8565b348015610324575f80fd5b5061011e603c81565b610335610b3d565b6001600160a01b03811661035c5760405163d92e233d60e01b815260040160405180910390fd5b600180546001600160a01b0319166001600160a01b0383169081179091556040517f6cc7ebdb6c8c53291c5ae16148cab9b049d23bf5bde5632900b40edff56fcb43905f90a250565b6001546001600160a01b031633146103d05760405163ea8e4eb560e01b815260040160405180910390fd5b6103d8610b6f565b5f544210156103fa5760405163085de62560e01b815260040160405180910390fd5b61040342610bb9565b5f90815560038054916104158361132f565b909155505060025460408051634bb93ab160e01b815290515f926001600160a01b031691634bb93ab19160048083019260209291908290030181865afa158015610461573d5f803e3d5ffd5b505050506040513d601f19601f820116820180604052508101906104859190611347565b600254604051631da09e4360e31b81529192505f916001600160a01b039091169063ed04f218906104ba908490600401611362565b5f60405180830381865afa1580156104d4573d5f803e3d5ffd5b505050506040513d5f823e601f3d908101601f191682016040526104fb919081019061141e565b80519091505f5b81811015610678575f83828151811061051d5761051d611450565b602002602001015190505f80826001600160a01b031663d3d034586040518163ffffffff1660e01b81526004015f60405180830381865afa158015610564573d5f803e3d5ffd5b505050506040513d5f823e601f3d908101601f1916820160405261058b9190810190611464565b815191935091505f90815b81811015610666575f8582815181106105b1576105b1611450565b602002602001015190505f8583815181106105ce576105ce611450565b60209081029190910101516040516315d5220f60e31b81526001600160a01b03848116600483015291925082918e169063aea9107890602401602060405180830381865afa158015610622573d5f803e3d5ffd5b505050506040513d601f19601f820116820180604052508101906106469190611522565b6106509190611539565b61065a9086611550565b94505050600101610596565b50506001909401935061050292505050565b50600254604051631da09e4360e31b81525f916001600160a01b03169063ed04f218906106aa90600190600401611362565b5f60405180830381865afa1580156106c4573d5f803e3d5ffd5b505050506040513d5f823e601f3d908101601f191682016040526106eb919081019061141e565b9050805191505f5b8281101561078d575f82828151811061070e5761070e611450565b602002602001015190505f80826001600160a01b031663d3d034586040518163ffffffff1660e01b81526004015f60405180830381865afa158015610755573d5f803e3d5ffd5b505050506040513d5f823e601f3d908101601f1916820160405261077c9190810190611464565b5050600190930192506106f3915050565b507f9375d658f91055a030c54d5cf460d6f12968b10b80b0797c1aa5c02e4dca94036003546040516107c191815260200190565b60405180910390a1505050506107f660017f9b779b17422d0df92223018b32b4d1fa46e071723d6817e2486d003becc55f0055565b5050565b610802610bf1565b61080b82610c95565b6107f68282610c9d565b5f61081e610d5e565b505f8051602061157a83398151915290565b610838610b3d565b600280546001600160a01b0319166001600160a01b0392909216919091179055565b5f60606108685f5442101590565b915060405180602001604052805f81525090509250929050565b61088a610b3d565b6108935f610da7565b565b338061089f610a90565b6001600160a01b0316146108d65760405163118cdaa760e01b81526001600160a01b03821660048201526024015b60405180910390fd5b6108df81610da7565b50565b5f807f9016d09d72d40fdae2fd8ceac6b6234c7706214fd39c1cd1e609a0528c1993005b546001600160a01b031692915050565b5f61091f610ddf565b805490915060ff600160401b820416159067ffffffffffffffff165f811580156109465750825b90505f8267ffffffffffffffff1660011480156109625750303b155b905081158015610970575080155b1561098e5760405163f92ee8a960e01b815260040160405180910390fd5b845467ffffffffffffffff1916600117855583156109b857845460ff60401b1916600160401b1785555b6109c188610e07565b6109c9610e18565b6109d1610e20565b6109d9610e18565b6001600160a01b038716610a005760405163d92e233d60e01b815260040160405180910390fd5b600180546001600160a01b03808a166001600160a01b0319928316179092556002805492891692909116919091179055610a3942610bb9565b5f9081556003558315610a8657845460ff60401b19168555604051600181527fc7f505b2f371ae2175ee4913f4499e1f2633a7b5936321eed1cdaeb6115181d29060200160405180910390a15b5050505050505050565b5f807f237e158222e3e6968b72b9db0d8043aacf074ad9f650f0d1606b4d82ee432c00610906565b610ac0610b3d565b7f237e158222e3e6968b72b9db0d8043aacf074ad9f650f0d1606b4d82ee432c0080546001600160a01b0319166001600160a01b0383169081178255610b046108e2565b6001600160a01b03167f38d16b8cac22d99fc7c124b9cd0de2d3fa1faef420bfe791d8c362d765e2270060405160405180910390a35050565b33610b466108e2565b6001600160a01b0316146108935760405163118cdaa760e01b81523360048201526024016108cd565b7f9b779b17422d0df92223018b32b4d1fa46e071723d6817e2486d003becc55f00805460011901610bb357604051633ee5aeb560e01b815260040160405180910390fd5b60029055565b5f610bc5603c83611550565b92915050565b60017f9b779b17422d0df92223018b32b4d1fa46e071723d6817e2486d003becc55f0055565b306001600160a01b037f0000000000000000000000000000000000000000000000000000000000000000161480610c7757507f00000000000000000000000000000000000000000000000000000000000000006001600160a01b0316610c6b5f8051602061157a833981519152546001600160a01b031690565b6001600160a01b031614155b156108935760405163703e46dd60e11b815260040160405180910390fd5b6108df610b3d565b816001600160a01b03166352d1902d6040518163ffffffff1660e01b8152600401602060405180830381865afa925050508015610cf7575060408051601f3d908101601f19168201909252610cf491810190611522565b60015b610d1f57604051634c9c8ce360e01b81526001600160a01b03831660048201526024016108cd565b5f8051602061157a8339815191528114610d4f57604051632a87526960e21b8152600481018290526024016108cd565b610d598383610e30565b505050565b306001600160a01b037f000000000000000000000000000000000000000000000000000000000000000016146108935760405163703e46dd60e11b815260040160405180910390fd5b7f237e158222e3e6968b72b9db0d8043aacf074ad9f650f0d1606b4d82ee432c0080546001600160a01b03191681556107f682610e85565b5f807ff0c57e16840df040f15088dc2f81fe391c3923bec73e23a9662efc9c229c6a00610bc5565b610e0f610ef5565b6108df81610f1a565b610893610ef5565b610e28610ef5565b610893610f4b565b610e3982610f53565b6040516001600160a01b038316907fbc7cd75a20ee27fd9adebab32041f755214dbc6bffa90cc0225b39da2e5c2d3b905f90a2805115610e7d57610d598282610fb6565b6107f6611028565b7f9016d09d72d40fdae2fd8ceac6b6234c7706214fd39c1cd1e609a0528c19930080546001600160a01b031981166001600160a01b03848116918217845560405192169182907f8be0079c531659141344cd1fd0a4f28419497f9722a3daafe3b4186f6b6457e0905f90a3505050565b610efd611047565b61089357604051631afcd79f60e31b815260040160405180910390fd5b610f22610ef5565b6001600160a01b0381166108d657604051631e4fbdf760e01b81525f60048201526024016108cd565b610bcb610ef5565b806001600160a01b03163b5f03610f8857604051634c9c8ce360e01b81526001600160a01b03821660048201526024016108cd565b5f8051602061157a83398151915280546001600160a01b0319166001600160a01b0392909216919091179055565b60605f80846001600160a01b031684604051610fd29190611563565b5f60405180830381855af49150503d805f811461100a576040519150601f19603f3d011682016040523d82523d5f602084013e61100f565b606091505b509150915061101f858383611060565b95945050505050565b34156108935760405163b398979f60e01b815260040160405180910390fd5b5f611050610ddf565b54600160401b900460ff16919050565b60608261107557611070826110bf565b6110b8565b815115801561108c57506001600160a01b0384163b155b156110b557604051639996b31560e01b81526001600160a01b03851660048201526024016108cd565b50805b9392505050565b8051156110cf5780518082602001fd5b60405163d6bda27560e01b815260040160405180910390fd5b6001600160a01b03811681146108df575f80fd5b5f6020828403121561110c575f80fd5b81356110b8816110e8565b5f8060208385031215611128575f80fd5b823567ffffffffffffffff81111561113e575f80fd5b8301601f8101851361114e575f80fd5b803567ffffffffffffffff811115611164575f80fd5b856020828401011115611175575f80fd5b6020919091019590945092505050565b634e487b7160e01b5f52604160045260245ffd5b604051601f8201601f1916810167ffffffffffffffff811182821017156111c2576111c2611185565b604052919050565b5f80604083850312156111db575f80fd5b82356111e6816110e8565b9150602083013567ffffffffffffffff811115611201575f80fd5b8301601f81018513611211575f80fd5b803567ffffffffffffffff81111561122b5761122b611185565b61123e601f8201601f1916602001611199565b818152866020838501011115611252575f80fd5b816020840160208301375f602083830101528093505050509250929050565b5f81518084528060208401602086015e5f602082860101526020601f19601f83011685010191505092915050565b8215158152604060208201525f6112b96040830184611271565b949350505050565b602081525f6110b86020830184611271565b5f805f606084860312156112e5575f80fd5b83356112f0816110e8565b92506020840135611300816110e8565b91506040840135611310816110e8565b809150509250925092565b634e487b7160e01b5f52601160045260245ffd5b5f600182016113405761134061131b565b5060010190565b5f60208284031215611357575f80fd5b81516110b8816110e8565b602081016002831061138257634e487b7160e01b5f52602160045260245ffd5b91905290565b5f67ffffffffffffffff8211156113a1576113a1611185565b5060051b60200190565b5f82601f8301126113ba575f80fd5b81516113cd6113c882611388565b611199565b8082825260208201915060208360051b8601019250858311156113ee575f80fd5b602085015b83811015611414578051611406816110e8565b8352602092830192016113f3565b5095945050505050565b5f6020828403121561142e575f80fd5b815167ffffffffffffffff811115611444575f80fd5b6112b9848285016113ab565b634e487b7160e01b5f52603260045260245ffd5b5f8060408385031215611475575f80fd5b825167ffffffffffffffff81111561148b575f80fd5b611497858286016113ab565b925050602083015167ffffffffffffffff8111156114b3575f80fd5b8301601f810185136114c3575f80fd5b80516114d16113c882611388565b8082825260208201915060208360051b8501019250878311156114f2575f80fd5b6020840193505b828410156115145783518252602093840193909101906114f9565b809450505050509250929050565b5f60208284031215611532575f80fd5b5051919050565b8082028115828204841417610bc557610bc561131b565b80820180821115610bc557610bc561131b565b5f82518060208501845e5f92019182525091905056fe360894a13ba1a3210667c828492db98dca3e2076cc3735a920a3ca505d382bbca2646970667358221220e665f03ad7baf7463318a2bf53baec52dbf6f1a50120e120746359970fc6cb3b64736f6c634300081a0033",
  "linkReferences": {},
  "deployedLinkReferences": {}
}