{
  "_format": "hh-sol-artifact-1",
  "contractName": "InternalStatesOrchestrator",
  "sourceName": "contracts/InternalStatesOrchestrator.sol",
  "abi": [
    {
      "inputs": [
        {
          "internalType": "address",
          "name": "target",
          "type": "address"
        }
      ],
      "name": "AddressEmptyCode",
      "type": "error"
    },
    {
      "inputs": [
        {
          "internalType": "address",
          "name": "implementation",
          "type": "address"
        }
      ],
      "name": "ERC1967InvalidImplementation",
      "type": "error"
    },
    {
      "inputs": [],
      "name": "ERC1967NonPayable",
      "type": "error"
    },
    {
      "inputs": [],
      "name": "FailedCall",
      "type": "error"
    },
    {
      "inputs": [],
      "name": "InvalidInitialization",
      "type": "error"
    },
    {
      "inputs": [],
      "name": "NotAuthorized",
      "type": "error"
    },
    {
      "inputs": [],
      "name": "NotInitializing",
      "type": "error"
    },
    {
      "inputs": [
        {
          "internalType": "address",
          "name": "owner",
          "type": "address"
        }
      ],
      "name": "OwnableInvalidOwner",
      "type": "error"
    },
    {
      "inputs": [
        {
          "internalType": "address",
          "name": "account",
          "type": "address"
        }
      ],
      "name": "OwnableUnauthorizedAccount",
      "type": "error"
    },
    {
      "inputs": [],
      "name": "ReentrancyGuardReentrantCall",
      "type": "error"
    },
    {
      "inputs": [],
      "name": "TooEarly",
      "type": "error"
    },
    {
      "inputs": [],
      "name": "UUPSUnauthorizedCallContext",
      "type": "error"
    },
    {
      "inputs": [
        {
          "internalType": "bytes32",
          "name": "slot",
          "type": "bytes32"
        }
      ],
      "name": "UUPSUnsupportedProxiableUUID",
      "type": "error"
    },
    {
      "inputs": [],
      "name": "ZeroAddress",
      "type": "error"
    },
    {
      "anonymous": false,
      "inputs": [
        {
          "indexed": true,
          "internalType": "address",
          "name": "newAutomationRegistry",
          "type": "address"
        }
      ],
      "name": "AutomationRegistryUpdated",
      "type": "event"
    },
    {
      "anonymous": false,
      "inputs": [
        {
          "indexed": false,
          "internalType": "uint64",
          "name": "version",
          "type": "uint64"
        }
      ],
      "name": "Initialized",
      "type": "event"
    },
    {
      "anonymous": false,
      "inputs": [
        {
          "indexed": false,
          "internalType": "uint256",
          "name": "epochCounter",
          "type": "uint256"
        }
      ],
      "name": "InternalStateProcessed",
      "type": "event"
    },
    {
      "anonymous": false,
      "inputs": [
        {
          "indexed": true,
          "internalType": "address",
          "name": "previousOwner",
          "type": "address"
        },
        {
          "indexed": true,
          "internalType": "address",
          "name": "newOwner",
          "type": "address"
        }
      ],
      "name": "OwnershipTransferStarted",
      "type": "event"
    },
    {
      "anonymous": false,
      "inputs": [
        {
          "indexed": true,
          "internalType": "address",
          "name": "previousOwner",
          "type": "address"
        },
        {
          "indexed": true,
          "internalType": "address",
          "name": "newOwner",
          "type": "address"
        }
      ],
      "name": "OwnershipTransferred",
      "type": "event"
    },
    {
      "anonymous": false,
      "inputs": [
        {
          "indexed": true,
          "internalType": "address",
          "name": "implementation",
          "type": "address"
        }
      ],
      "name": "Upgraded",
      "type": "event"
    },
    {
      "inputs": [],
      "name": "UPGRADE_INTERFACE_VERSION",
      "outputs": [
        {
          "internalType": "string",
          "name": "",
          "type": "string"
        }
      ],
      "stateMutability": "view",
      "type": "function"
    },
    {
      "inputs": [],
      "name": "acceptOwnership",
      "outputs": [],
      "stateMutability": "nonpayable",
      "type": "function"
    },
    {
      "inputs": [],
      "name": "automationRegistry",
      "outputs": [
        {
          "internalType": "address",
          "name": "",
          "type": "address"
        }
      ],
      "stateMutability": "view",
      "type": "function"
    },
    {
      "inputs": [
        {
          "internalType": "bytes",
          "name": "",
          "type": "bytes"
        }
      ],
      "name": "checkUpkeep",
      "outputs": [
        {
          "internalType": "bool",
          "name": "upkeepNeeded",
          "type": "bool"
        },
        {
          "internalType": "bytes",
          "name": "performData",
          "type": "bytes"
        }
      ],
      "stateMutability": "view",
      "type": "function"
    },
    {
      "inputs": [],
      "name": "config",
      "outputs": [
        {
          "internalType": "contract IOrionConfig",
          "name": "",
          "type": "address"
        }
      ],
      "stateMutability": "view",
      "type": "function"
    },
    {
      "inputs": [],
      "name": "epochCounter",
      "outputs": [
        {
          "internalType": "uint256",
          "name": "",
          "type": "uint256"
        }
      ],
      "stateMutability": "view",
      "type": "function"
    },
    {
      "inputs": [],
      "name": "getInitialBatchPortfolioHat",
      "outputs": [
        {
          "internalType": "address[]",
          "name": "tokens",
          "type": "address[]"
        },
        {
          "internalType": "uint256[]",
          "name": "values",
          "type": "uint256[]"
        }
      ],
      "stateMutability": "view",
      "type": "function"
    },
    {
      "inputs": [
        {
          "internalType": "address",
          "name": "initialOwner",
          "type": "address"
        },
        {
          "internalType": "address",
          "name": "automationRegistry_",
          "type": "address"
        },
        {
          "internalType": "address",
          "name": "config_",
          "type": "address"
        }
      ],
      "name": "initialize",
      "outputs": [],
      "stateMutability": "nonpayable",
      "type": "function"
    },
    {
      "inputs": [],
      "name": "nextUpdateTime",
      "outputs": [
        {
          "internalType": "uint256",
          "name": "",
          "type": "uint256"
        }
      ],
      "stateMutability": "view",
      "type": "function"
    },
    {
      "inputs": [],
      "name": "owner",
      "outputs": [
        {
          "internalType": "address",
          "name": "",
          "type": "address"
        }
      ],
      "stateMutability": "view",
      "type": "function"
    },
    {
      "inputs": [],
      "name": "pendingOwner",
      "outputs": [
        {
          "internalType": "address",
          "name": "",
          "type": "address"
        }
      ],
      "stateMutability": "view",
      "type": "function"
    },
    {
      "inputs": [
        {
          "internalType": "bytes",
          "name": "",
          "type": "bytes"
        }
      ],
      "name": "performUpkeep",
      "outputs": [],
      "stateMutability": "nonpayable",
      "type": "function"
    },
    {
      "inputs": [],
      "name": "proxiableUUID",
      "outputs": [
        {
          "internalType": "bytes32",
          "name": "",
          "type": "bytes32"
        }
      ],
      "stateMutability": "view",
      "type": "function"
    },
    {
      "inputs": [],
      "name": "renounceOwnership",
      "outputs": [],
      "stateMutability": "nonpayable",
      "type": "function"
    },
    {
      "inputs": [
        {
          "internalType": "address",
          "name": "newOwner",
          "type": "address"
        }
      ],
      "name": "transferOwnership",
      "outputs": [],
      "stateMutability": "nonpayable",
      "type": "function"
    },
    {
      "inputs": [
        {
          "internalType": "address",
          "name": "newAutomationRegistry",
          "type": "address"
        }
      ],
      "name": "updateAutomationRegistry",
      "outputs": [],
      "stateMutability": "nonpayable",
      "type": "function"
    },
    {
      "inputs": [
        {
          "internalType": "address",
          "name": "newConfig",
          "type": "address"
        }
      ],
      "name": "updateConfig",
      "outputs": [],
      "stateMutability": "nonpayable",
      "type": "function"
    },
    {
      "inputs": [],
      "name": "updateInterval",
      "outputs": [
        {
          "internalType": "uint256",
          "name": "",
          "type": "uint256"
        }
      ],
      "stateMutability": "view",
      "type": "function"
    },
    {
      "inputs": [
        {
          "internalType": "address",
          "name": "newImplementation",
          "type": "address"
        },
        {
          "internalType": "bytes",
          "name": "data",
          "type": "bytes"
        }
      ],
      "name": "upgradeToAndCall",
      "outputs": [],
      "stateMutability": "payable",
      "type": "function"
    }
  ],
  "bytecode": "0x60a06040523073ffffffffffffffffffffffffffffffffffffffff1660809073ffffffffffffffffffffffffffffffffffffffff168152503480156041575f80fd5b50608051613c776100685f395f818161221301528181612268015261245e0152613c775ff3fe608060405260043610610113575f3560e01c80636e04ff0d1161009f578063ad3cb1cc11610063578063ad3cb1cc1461033b578063c0c53b8b14610365578063e30c39781461038d578063f2fde38b146103b7578063fd2c80ae146103df57610113565b80636e04ff0d1461027e578063715018a6146102bb57806379502c55146102d157806379ba5097146102fb5780638da5cb5b1461031157610113565b80634585e33b116100e65780634585e33b146101be5780634f1ef286146101e657806352d1902d146102025780635dc228a01461022c5780636cc919c81461025657610113565b806314b19c5a1461011757806314b5d07f14610141578063160917161461016957806335238fb814610194575b5f80fd5b348015610122575f80fd5b5061012b610409565b6040516101389190612df0565b60405180910390f35b34801561014c575f80fd5b5061016760048036038101906101629190612e74565b61040f565b005b348015610174575f80fd5b5061017d6105ca565b60405161018b92919061300d565b60405180910390f35b34801561019f575f80fd5b506101a861084d565b6040516101b59190612df0565b60405180910390f35b3480156101c9575f80fd5b506101e460048036038101906101df91906130a3565b610852565b005b61020060048036038101906101fb9190613226565b611826565b005b34801561020d575f80fd5b50610216611845565b6040516102239190613298565b60405180910390f35b348015610237575f80fd5b50610240611876565b60405161024d91906132c0565b60405180910390f35b348015610261575f80fd5b5061027c60048036038101906102779190612e74565b61189b565b005b348015610289575f80fd5b506102a4600480360381019061029f91906130a3565b611935565b6040516102b2929190613353565b60405180910390f35b3480156102c6575f80fd5b506102cf611996565b005b3480156102dc575f80fd5b506102e56119a9565b6040516102f291906133dc565b60405180910390f35b348015610306575f80fd5b5061030f6119ce565b005b34801561031c575f80fd5b50610325611a5c565b60405161033291906132c0565b60405180910390f35b348015610346575f80fd5b5061034f611a91565b60405161035c9190613447565b60405180910390f35b348015610370575f80fd5b5061038b60048036038101906103869190613467565b611aca565b005b348015610398575f80fd5b506103a1611edb565b6040516103ae91906132c0565b60405180910390f35b3480156103c2575f80fd5b506103dd60048036038101906103d89190612e74565b611f10565b005b3480156103ea575f80fd5b506103f3611fc9565b6040516104009190612df0565b60405180910390f35b60035481565b610423677a2cd59c2ec941e560c01b611fce565b61042b611fd1565b61043f6715895cffa203882560c01b611fce565b6104536757e70e1a279fb60760c01b611fce565b610467676be04348e941260e60c01b611fce565b61047b673c88c366aaa9e47960c01b611fce565b5f73ffffffffffffffffffffffffffffffffffffffff168173ffffffffffffffffffffffffffffffffffffffff16036104f4576104c267213191c43c6c3e9e60c01b611fce565b6040517fd92e233d00000000000000000000000000000000000000000000000000000000815260040160405180910390fd5b610508674688cb640521b4be60c01b611fce565b61051c67f21d1506dd48993160c01b611fce565b8060015f6101000a81548173ffffffffffffffffffffffffffffffffffffffff021916908373ffffffffffffffffffffffffffffffffffffffff160217905550610570678143f0ef0da6a2a560c01b611fce565b6105846758cec9501cbaff4960c01b611fce565b8073ffffffffffffffffffffffffffffffffffffffff167f6cc7ebdb6c8c53291c5ae16148cab9b049d23bf5bde5632900b40edff56fcb4360405160405180910390a250565b6060806105e167dc804a407c9819fa60c01b611fce565b6105f56707f4df0f77cfc2b160c01b611fce565b61060967b6c37d9b5384fc7060c01b611fce565b5f6106146004612058565b905061062a67e08f3381908693cf60c01b611fce565b61063e6748a2447dca30655e60c01b611fce565b5f8167ffffffffffffffff81111561065957610658613102565b5b6040519080825280602002602001820160405280156106875781602001602082028036833780820191505090505b50905061069e67f2ded55b6345505260c01b611fce565b6106b2670b0e344bf569089660c01b611fce565b5f8267ffffffffffffffff8111156106cd576106cc613102565b5b6040519080825280602002602001820160405280156106fb5781602001602082028036833780820191505090505b50905061071267df82a89ea081ff3b60c01b611fce565b61072667ba9154dd95672d0e60c01b611fce565b5f5b838110156108175761074467b24b119d866b1a2c60c01b611fce565b6107586769d2f16db64505a060c01b611fce565b5f8061076e83600461206b90919063ffffffff16565b91509150610786673fdbb348e3b3f84b60c01b611fce565b8185848151811061079a576107996134b7565b5b602002602001019073ffffffffffffffffffffffffffffffffffffffff16908173ffffffffffffffffffffffffffffffffffffffff16815250506107e86735742392237fd88b60c01b611fce565b808484815181106107fc576107fb6134b7565b5b60200260200101818152505050508080600101915050610728565b5061082c67d78c3a8ec117cc5760c01b611fce565b6108406735cc056cc8673f7b60c01b611fce565b8181945094505050509091565b5f5481565b61086667edfa6cac0402881d60c01b611fce565b61087a67404bffa8023c883060c01b611fce565b61088e672afbc163d087609f60c01b611fce565b6108a2673f2144555d7a688660c01b611fce565b60015f9054906101000a900473ffffffffffffffffffffffffffffffffffffffff1673ffffffffffffffffffffffffffffffffffffffff163373ffffffffffffffffffffffffffffffffffffffff161461093c5761090a67dded79a63c37579760c01b611fce565b6040517fea8e4eb500000000000000000000000000000000000000000000000000000000815260040160405180910390fd5b61095067ee2966532897a1f960c01b611fce565b6109646730244aafe6a3294c60c01b611fce565b61097867dcc92748cd2038cb60c01b611fce565b61098c6714f6c156517ea2fb60c01b611fce565b610994612092565b6109a867328dccf29576e68f60c01b611fce565b6109bc67962607064e9071d660c01b611fce565b6109d067caa87ec9a8c79cad60c01b611fce565b6109e467fdee91e3ec02016760c01b611fce565b6109ec6120e6565b610a3657610a04675f906598d4b595f060c01b611fce565b6040517f085de62500000000000000000000000000000000000000000000000000000000815260040160405180910390fd5b610a4a678d7cf7a6d04ee30960c01b611fce565b610a5e67f2a56faff13d3fd660c01b611fce565b610a674261212d565b5f81905550610a80671259072af055de4260c01b611fce565b60035f815480929190610a9290613511565b9190505550610aab67871b8827993d8b7060c01b611fce565b610abf67cf275f2ed6d9e80160c01b611fce565b5f60025f9054906101000a900473ffffffffffffffffffffffffffffffffffffffff1673ffffffffffffffffffffffffffffffffffffffff16634bb93ab16040518163ffffffff1660e01b8152600401602060405180830381865afa158015610b2a573d5f803e3d5ffd5b505050506040513d601f19601f82011682018060405250810190610b4e919061356c565b9050610b6467dc9dde060d6ff6a460c01b611fce565b610b786789212ee8ab101b8f60c01b611fce565b610b82600461217e565b610b9667e7b19afefcfd736060c01b611fce565b610baa67d773d140b726180860c01b611fce565b610bb4600761217e565b610bc8676064816b2647c6d760c01b611fce565b610bdc67d7779ae6922ebb3e60c01b611fce565b5f60025f9054906101000a900473ffffffffffffffffffffffffffffffffffffffff1673ffffffffffffffffffffffffffffffffffffffff1663ed04f2185f6040518263ffffffff1660e01b8152600401610c37919061360a565b5f60405180830381865afa158015610c51573d5f803e3d5ffd5b505050506040513d5f823e3d601f19601f82011682018060405250810190610c7991906136e3565b9050610c8f67d24819443120441360c01b611fce565b610ca367835f73a4676992f660c01b611fce565b5f81519050610cbc677526e6438fd396ef60c01b611fce565b610cd0674de895f4f8045f3f60c01b611fce565b5f5b818110156115ad57610cee67f00dcda32621b1f960c01b611fce565b610d02676eeffda047d7397260c01b611fce565b5f838281518110610d1657610d156134b7565b5b60200260200101519050610d34675300f8cfb36d628160c01b611fce565b610d48677e46b62495217c9f60c01b611fce565b5f808273ffffffffffffffffffffffffffffffffffffffff1663d3d034586040518163ffffffff1660e01b81526004015f60405180830381865afa158015610d92573d5f803e3d5ffd5b505050506040513d5f823e3d601f19601f82011682018060405250810190610dba9190613814565b91509150610dd2678082677fea65033a60c01b611fce565b610de6679057d018a3dab03d60c01b611fce565b5f610dfb675759d016aabb5a1960c01b611fce565b610e0f67895281db2a6573d160c01b611fce565b5f83519050610e2867af7efcd025c9ec2c60c01b611fce565b610e3c67d24fbf2838eb4f3d60c01b611fce565b5f5b818110156110da57610e5a67b7350e9463603b4560c01b611fce565b610e6e67c5eb22ed288cdfef60c01b611fce565b5f858281518110610e8257610e816134b7565b5b60200260200101519050610ea0678a1b1483189c153860c01b611fce565b610eb4679db62dddca31fc3060c01b611fce565b5f8b73ffffffffffffffffffffffffffffffffffffffff1663aea91078836040518263ffffffff1660e01b8152600401610eee91906132c0565b602060405180830381865afa158015610f09573d5f803e3d5ffd5b505050506040513d601f19601f82011682018060405250810190610f2d919061388a565b9050610f4367a1ff098dbfe86abc60c01b611fce565b610f57678dbb4226c2fe948460c01b611fce565b5f868481518110610f6b57610f6a6134b7565b5b602002602001015182610f7e91906138b5565b9050610f946770a0186d8d6ddc2760c01b611fce565b8086610fa091906138f6565b9550610fb667915be00e876de29b60c01b611fce565b610fca6708fb69c962e90c9660c01b611fce565b5f80610fe085600461218c90919063ffffffff16565b91509150610ff8677faebb6b18e2857c60c01b611fce565b61100c67047cdea1e499885960c01b611fce565b811561107557611026671d705a2e4d48f01b60c01b611fce565b61103a67aab5d5cd6122b16a60c01b611fce565b61104e6710bd170d6aaaae8c60c01b611fce565b61106f85848361105e91906138f6565b60046121c99092919063ffffffff16565b506110c8565b611089674a85b4de276bb72d60c01b611fce565b61109c6617936da0e8ecfa60c01b611fce565b6110b06795cc6cb07653791f60c01b611fce565b6110c6858460046121c99092919063ffffffff16565b505b50505050508080600101915050610e3e565b506110ef67b1e12b73760bcf4460c01b611fce565b611103671295628fb16c83f360c01b611fce565b5f8573ffffffffffffffffffffffffffffffffffffffff1663a68a52678773ffffffffffffffffffffffffffffffffffffffff1663c37fc8a86040518163ffffffff1660e01b8152600401602060405180830381865afa158015611169573d5f803e3d5ffd5b505050506040513d601f19601f8201168201806040525081019061118d919061388a565b855f6040518463ffffffff1660e01b81526004016111ad9392919061396f565b602060405180830381865afa1580156111c8573d5f803e3d5ffd5b505050506040513d601f19601f820116820180604052508101906111ec919061388a565b90506112026715e4397250ebb14560c01b611fce565b61121667ca4db163dcdbbd3260c01b611fce565b5f818773ffffffffffffffffffffffffffffffffffffffff1663d1699c266040518163ffffffff1660e01b8152600401602060405180830381865afa158015611261573d5f803e3d5ffd5b505050506040513d601f19601f82011682018060405250810190611285919061388a565b8561129091906138f6565b61129a91906139a4565b90506112b06727a0617014146ba160c01b611fce565b6112c4679ab2c2c502ce42a060c01b611fce565b5f808873ffffffffffffffffffffffffffffffffffffffff1663b6eba6536040518163ffffffff1660e01b81526004015f60405180830381865afa15801561130e573d5f803e3d5ffd5b505050506040513d5f823e3d601f19601f820116820180604052508101906113369190613814565b9150915061134e67678035ad53f5844d60c01b611fce565b611362679d92a442cb213d8660c01b611fce565b5f8251905061137b678c3bc6744e109ee960c01b611fce565b61138f67db7829c9e9d6841860c01b611fce565b5f5b81811015611595576113ad67081fd80b27b3ee3560c01b611fce565b6113c16741d8901ccaf3d3aa60c01b611fce565b5f8482815181106113d5576113d46134b7565b5b602002602001015190506113f367e3d06d030180a11560c01b611fce565b61140767fdb98999d6d1f77960c01b611fce565b5f84838151811061141b5761141a6134b7565b5b60200260200101519050611439679a4cd7886cefcf9660c01b611fce565b61144d67fbc7b7f51814167e60c01b611fce565b5f818861145a91906138b5565b9050611470675aa68d358d61b64c60c01b611fce565b61148467bd29d946af261c8860c01b611fce565b5f8061149a85600761218c90919063ffffffff16565b915091506114b267def962dec003cd2660c01b611fce565b6114c667aa2adb05b819356960c01b611fce565b811561152f576114e0677765d5c43a87fb5c60c01b611fce565b6114f467e280440f723c32ee60c01b611fce565b611508670f723dda82f2abfc60c01b611fce565b61152985848361151891906138f6565b60076121c99092919063ffffffff16565b50611583565b61154367086d2de5ca0a99cf60c01b611fce565b611557674af56dc9e24db4e060c01b611fce565b61156b676819efdc7e88b05c60c01b611fce565b611581858460076121c99092919063ffffffff16565b505b50505050508080600101915050611391565b50505050505050505050508080600101915050610cd2565b506115c26713cade073748f14360c01b611fce565b6115d667dcabf27fd5ee7d1060c01b611fce565b5f60025f9054906101000a900473ffffffffffffffffffffffffffffffffffffffff1673ffffffffffffffffffffffffffffffffffffffff1663ed04f21860016040518263ffffffff1660e01b8152600401611632919061360a565b5f60405180830381865afa15801561164c573d5f803e3d5ffd5b505050506040513d5f823e3d601f19601f8201168201806040525081019061167491906136e3565b905061168a676769c75d321707e660c01b611fce565b805191506116a267d9a02c122f4bdcf960c01b611fce565b6116b667dbe3a1c4bb196f0460c01b611fce565b5f5b828110156117b4576116d467d2d510bc5a87583660c01b611fce565b6116e8677728413a21a4202260c01b611fce565b5f8282815181106116fc576116fb6134b7565b5b6020026020010151905061171a67d99722bec7f430a560c01b611fce565b61172e67c05ff679ef0404e360c01b611fce565b5f808273ffffffffffffffffffffffffffffffffffffffff1663d3d034586040518163ffffffff1660e01b81526004015f60405180830381865afa158015611778573d5f803e3d5ffd5b505050506040513d5f823e3d601f19601f820116820180604052508101906117a09190613ac1565b9150915050505080806001019150506116b8565b506117c9676d7d5b38a21582a760c01b611fce565b6117dd6790d833d5533bf4f760c01b611fce565b7f9375d658f91055a030c54d5cf460d6f12968b10b80b0797c1aa5c02e4dca940360035460405161180e9190612df0565b60405180910390a1505050506118226121fa565b5050565b61182e612211565b611837826122f7565b611841828261233e565b5050565b5f61184e61245c565b7f360894a13ba1a3210667c828492db98dca3e2076cc3735a920a3ca505d382bbc5f1b905090565b60015f9054906101000a900473ffffffffffffffffffffffffffffffffffffffff1681565b6118af67e0227b34f9aa8fe860c01b611fce565b6118b7611fd1565b6118cb6771c6d647554a12ae60c01b611fce565b6118de6692bc9381a77df460c01b611fce565b6118f267d3ebef38c884dfd160c01b611fce565b8060025f6101000a81548173ffffffffffffffffffffffffffffffffffffffff021916908373ffffffffffffffffffffffffffffffffffffffff16021790555050565b5f606061194c673b2bd6686447aa2960c01b611fce565b61196067b0c76706465daf1060c01b611fce565b6119686120e6565b915061197e67cb92fc2d74179abd60c01b611fce565b60405180602001604052805f81525090509250929050565b61199e611fd1565b6119a75f6124e3565b565b60025f9054906101000a900473ffffffffffffffffffffffffffffffffffffffff1681565b5f6119d7612520565b90508073ffffffffffffffffffffffffffffffffffffffff166119f8611edb565b73ffffffffffffffffffffffffffffffffffffffff1614611a5057806040517f118cdaa7000000000000000000000000000000000000000000000000000000008152600401611a4791906132c0565b60405180910390fd5b611a59816124e3565b50565b5f80611a66612527565b9050805f015f9054906101000a900473ffffffffffffffffffffffffffffffffffffffff1691505090565b6040518060400160405280600581526020017f352e302e3000000000000000000000000000000000000000000000000000000081525081565b611ade678ffe8c4a852c915d60c01b611fce565b5f611ae761254e565b90505f815f0160089054906101000a900460ff161590505f825f015f9054906101000a900467ffffffffffffffff1690505f808267ffffffffffffffff16148015611b2f5750825b90505f60018367ffffffffffffffff16148015611b6257505f3073ffffffffffffffffffffffffffffffffffffffff163b145b905081158015611b70575080155b15611ba7576040517ff92ee8a900000000000000000000000000000000000000000000000000000000815260040160405180910390fd5b6001855f015f6101000a81548167ffffffffffffffff021916908367ffffffffffffffff1602179055508315611bf4576001855f0160086101000a81548160ff0219169083151502179055505b611c08679c77cddfe955e4f860c01b611fce565b611c1c67772190196259e57960c01b611fce565b611c306740dc6760c00b7ee960c01b611fce565b611c44671bf58a9f5220936160c01b611fce565b611c4d88612561565b611c6167e49c682b3744d80d60c01b611fce565b611c7567a5354c7a69baed0960c01b611fce565b611c7d612575565b611c916718629daad017219460c01b611fce565b611ca5679b9c661a4d64bcfe60c01b611fce565b611cad61257f565b611cc1679f0324063d70afa560c01b611fce565b611cd5671919b959d3b2111260c01b611fce565b611cdd612591565b611cf1677127992c482b3f8160c01b611fce565b611d05675df6cdfbfbbdbee760c01b611fce565b5f73ffffffffffffffffffffffffffffffffffffffff168773ffffffffffffffffffffffffffffffffffffffff1603611d7e57611d4c67ffdb712cddf4f93e60c01b611fce565b6040517fd92e233d00000000000000000000000000000000000000000000000000000000815260040160405180910390fd5b611d9267701b0bd17fda7d4f60c01b611fce565b611da667fb0b0c9ec4a40dcc60c01b611fce565b8660015f6101000a81548173ffffffffffffffffffffffffffffffffffffffff021916908373ffffffffffffffffffffffffffffffffffffffff160217905550611dfa67cfb7c9edfe5fd55560c01b611fce565b8560025f6101000a81548173ffffffffffffffffffffffffffffffffffffffff021916908373ffffffffffffffffffffffffffffffffffffffff160217905550611e4e67b45825c541ddeb8c60c01b611fce565b611e574261212d565b5f81905550611e706729d1f5204191593660c01b611fce565b5f6003819055508315611ed1575f855f0160086101000a81548160ff0219169083151502179055507fc7f505b2f371ae2175ee4913f4499e1f2633a7b5936321eed1cdaeb6115181d26001604051611ec89190613b83565b60405180910390a15b5050505050505050565b5f80611ee561259b565b9050805f015f9054906101000a900473ffffffffffffffffffffffffffffffffffffffff1691505090565b611f18611fd1565b5f611f2161259b565b905081815f015f6101000a81548173ffffffffffffffffffffffffffffffffffffffff021916908373ffffffffffffffffffffffffffffffffffffffff1602179055508173ffffffffffffffffffffffffffffffffffffffff16611f83611a5c565b73ffffffffffffffffffffffffffffffffffffffff167f38d16b8cac22d99fc7c124b9cd0de2d3fa1faef420bfe791d8c362d765e2270060405160405180910390a35050565b603c81565b50565b611fd9612520565b73ffffffffffffffffffffffffffffffffffffffff16611ff7611a5c565b73ffffffffffffffffffffffffffffffffffffffff16146120565761201a612520565b6040517f118cdaa700000000000000000000000000000000000000000000000000000000815260040161204d91906132c0565b60405180910390fd5b565b5f612064825f016125c2565b9050919050565b5f805f8061207b865f01866125d5565b91509150815f1c815f1c9350935050509250929050565b5f61209b612610565b90506002815f0154036120da576040517f3ee5aeb500000000000000000000000000000000000000000000000000000000815260040160405180910390fd5b6002815f018190555050565b5f6120fb67937b759b53725c7160c01b611fce565b61210f672b56144bbbd2a5fc60c01b611fce565b6121236798f2bf763b0c202660c01b611fce565b5f54421015905090565b5f612142678ef193a2e16d031e60c01b611fce565b61215667cc7453318b45db1260c01b611fce565b61216a672fc24ef2ded7daa860c01b611fce565b603c8261217791906138f6565b9050919050565b612189815f01612637565b50565b5f805f806121b4865f018673ffffffffffffffffffffffffffffffffffffffff165f1b612692565b9150915081815f1c9350935050509250929050565b5f6121f1845f018473ffffffffffffffffffffffffffffffffffffffff165f1b845f1b6126db565b90509392505050565b5f612203612610565b90506001815f018190555050565b7f000000000000000000000000000000000000000000000000000000000000000073ffffffffffffffffffffffffffffffffffffffff163073ffffffffffffffffffffffffffffffffffffffff1614806122be57507f000000000000000000000000000000000000000000000000000000000000000073ffffffffffffffffffffffffffffffffffffffff166122a5612712565b73ffffffffffffffffffffffffffffffffffffffff1614155b156122f5576040517fe07c8dba00000000000000000000000000000000000000000000000000000000815260040160405180910390fd5b565b61230b67ac3f69cb8de88c1760c01b611fce565b612313611fd1565b61232767843bf98701f1b61160c01b611fce565b61233b677b27778b01390dc860c01b611fce565b50565b8173ffffffffffffffffffffffffffffffffffffffff166352d1902d6040518163ffffffff1660e01b8152600401602060405180830381865afa9250505080156123a657506040513d601f19601f820116820180604052508101906123a39190613bc6565b60015b6123e757816040517f4c9c8ce30000000000000000000000000000000000000000000000000000000081526004016123de91906132c0565b60405180910390fd5b7f360894a13ba1a3210667c828492db98dca3e2076cc3735a920a3ca505d382bbc5f1b811461244d57806040517faa1d49a40000000000000000000000000000000000000000000000000000000081526004016124449190613298565b60405180910390fd5b6124578383612765565b505050565b7f000000000000000000000000000000000000000000000000000000000000000073ffffffffffffffffffffffffffffffffffffffff163073ffffffffffffffffffffffffffffffffffffffff16146124e1576040517fe07c8dba00000000000000000000000000000000000000000000000000000000815260040160405180910390fd5b565b5f6124ec61259b565b9050805f015f6101000a81549073ffffffffffffffffffffffffffffffffffffffff021916905561251c826127d7565b5050565b5f33905090565b5f7f9016d09d72d40fdae2fd8ceac6b6234c7706214fd39c1cd1e609a0528c199300905090565b5f806125586128a8565b90508091505090565b6125696128d1565b61257281612911565b50565b61257d6128d1565b565b6125876128d1565b61258f612995565b565b6125996128d1565b565b5f7f237e158222e3e6968b72b9db0d8043aacf074ad9f650f0d1606b4d82ee432c00905090565b5f6125ce825f016129b4565b9050919050565b5f805f6125ed84865f016129c790919063ffffffff16565b905080856002015f8381526020019081526020015f205492509250509250929050565b5f7f9b779b17422d0df92223018b32b4d1fa46e071723d6817e2486d003becc55f00905090565b5f612641826125c2565b90505f5b8181101561268257826002015f61266783865f016129c790919063ffffffff16565b81526020019081526020015f205f9055806001019050612645565b5061268e825f016129dc565b5050565b5f805f846002015f8581526020019081526020015f205490505f801b81036126cb576126be85856129ea565b5f801b92509250506126d4565b60018192509250505b9250929050565b5f81846002015f8581526020019081526020015f208190555061270983855f01612a0890919063ffffffff16565b90509392505050565b5f61273e7f360894a13ba1a3210667c828492db98dca3e2076cc3735a920a3ca505d382bbc5f1b612a1d565b5f015f9054906101000a900473ffffffffffffffffffffffffffffffffffffffff16905090565b61276e82612a26565b8173ffffffffffffffffffffffffffffffffffffffff167fbc7cd75a20ee27fd9adebab32041f755214dbc6bffa90cc0225b39da2e5c2d3b60405160405180910390a25f815111156127ca576127c48282612aef565b506127d3565b6127d2612b6f565b5b5050565b5f6127e0612527565b90505f815f015f9054906101000a900473ffffffffffffffffffffffffffffffffffffffff16905082825f015f6101000a81548173ffffffffffffffffffffffffffffffffffffffff021916908373ffffffffffffffffffffffffffffffffffffffff1602179055508273ffffffffffffffffffffffffffffffffffffffff168173ffffffffffffffffffffffffffffffffffffffff167f8be0079c531659141344cd1fd0a4f28419497f9722a3daafe3b4186f6b6457e060405160405180910390a3505050565b5f7ff0c57e16840df040f15088dc2f81fe391c3923bec73e23a9662efc9c229c6a005f1b905090565b6128d9612bab565b61290f576040517fd7e6bcf800000000000000000000000000000000000000000000000000000000815260040160405180910390fd5b565b6129196128d1565b5f73ffffffffffffffffffffffffffffffffffffffff168173ffffffffffffffffffffffffffffffffffffffff1603612989575f6040517f1e4fbdf700000000000000000000000000000000000000000000000000000000815260040161298091906132c0565b60405180910390fd5b612992816124e3565b50565b61299d6128d1565b5f6129a6612610565b90506001815f018190555050565b5f6129c0825f01612bc9565b9050919050565b5f6129d4835f0183612bd8565b905092915050565b6129e7815f01612bff565b50565b5f612a0082845f01612c6490919063ffffffff16565b905092915050565b5f612a15835f0183612c79565b905092915050565b5f819050919050565b5f8173ffffffffffffffffffffffffffffffffffffffff163b03612a8157806040517f4c9c8ce3000000000000000000000000000000000000000000000000000000008152600401612a7891906132c0565b60405180910390fd5b80612aad7f360894a13ba1a3210667c828492db98dca3e2076cc3735a920a3ca505d382bbc5f1b612a1d565b5f015f6101000a81548173ffffffffffffffffffffffffffffffffffffffff021916908373ffffffffffffffffffffffffffffffffffffffff16021790555050565b60605f808473ffffffffffffffffffffffffffffffffffffffff1684604051612b189190613c2b565b5f60405180830381855af49150503d805f8114612b50576040519150601f19603f3d011682016040523d82523d5f602084013e612b55565b606091505b5091509150612b65858383612ce0565b9250505092915050565b5f341115612ba9576040517fb398979f00000000000000000000000000000000000000000000000000000000815260040160405180910390fd5b565b5f612bb461254e565b5f0160089054906101000a900460ff16905090565b5f815f01805490509050919050565b5f825f018281548110612bee57612bed6134b7565b5b905f5260205f200154905092915050565b5f612c0982612bc9565b90505f5b81811015612c5357826001015f845f018381548110612c2f57612c2e6134b7565b5b905f5260205f20015481526020019081526020015f205f9055806001019050612c0d565b50612c60825f015f612d6d565b5050565b5f612c71835f0183612d74565b905092915050565b5f612c848383612d74565b612cd657825f0182908060018154018082558091505060019003905f5260205f20015f9091909190915055825f0180549050836001015f8481526020019081526020015f208190555060019050612cda565b5f90505b92915050565b606082612cf557612cf082612d94565b612d65565b5f8251148015612d1b57505f8473ffffffffffffffffffffffffffffffffffffffff163b145b15612d5d57836040517f9996b315000000000000000000000000000000000000000000000000000000008152600401612d5491906132c0565b60405180910390fd5b819050612d66565b5b9392505050565b8082555050565b5f80836001015f8481526020019081526020015f20541415905092915050565b5f81511115612da65780518082602001fd5b6040517fd6bda27500000000000000000000000000000000000000000000000000000000815260040160405180910390fd5b5f819050919050565b612dea81612dd8565b82525050565b5f602082019050612e035f830184612de1565b92915050565b5f604051905090565b5f80fd5b5f80fd5b5f73ffffffffffffffffffffffffffffffffffffffff82169050919050565b5f612e4382612e1a565b9050919050565b612e5381612e39565b8114612e5d575f80fd5b50565b5f81359050612e6e81612e4a565b92915050565b5f60208284031215612e8957612e88612e12565b5b5f612e9684828501612e60565b91505092915050565b5f81519050919050565b5f82825260208201905092915050565b5f819050602082019050919050565b612ed181612e39565b82525050565b5f612ee28383612ec8565b60208301905092915050565b5f602082019050919050565b5f612f0482612e9f565b612f0e8185612ea9565b9350612f1983612eb9565b805f5b83811015612f49578151612f308882612ed7565b9750612f3b83612eee565b925050600181019050612f1c565b5085935050505092915050565b5f81519050919050565b5f82825260208201905092915050565b5f819050602082019050919050565b612f8881612dd8565b82525050565b5f612f998383612f7f565b60208301905092915050565b5f602082019050919050565b5f612fbb82612f56565b612fc58185612f60565b9350612fd083612f70565b805f5b83811015613000578151612fe78882612f8e565b9750612ff283612fa5565b925050600181019050612fd3565b5085935050505092915050565b5f6040820190508181035f8301526130258185612efa565b905081810360208301526130398184612fb1565b90509392505050565b5f80fd5b5f80fd5b5f80fd5b5f8083601f84011261306357613062613042565b5b8235905067ffffffffffffffff8111156130805761307f613046565b5b60208301915083600182028301111561309c5761309b61304a565b5b9250929050565b5f80602083850312156130b9576130b8612e12565b5b5f83013567ffffffffffffffff8111156130d6576130d5612e16565b5b6130e28582860161304e565b92509250509250929050565b5f80fd5b5f601f19601f8301169050919050565b7f4e487b71000000000000000000000000000000000000000000000000000000005f52604160045260245ffd5b613138826130f2565b810181811067ffffffffffffffff8211171561315757613156613102565b5b80604052505050565b5f613169612e09565b9050613175828261312f565b919050565b5f67ffffffffffffffff82111561319457613193613102565b5b61319d826130f2565b9050602081019050919050565b828183375f83830152505050565b5f6131ca6131c58461317a565b613160565b9050828152602081018484840111156131e6576131e56130ee565b5b6131f18482856131aa565b509392505050565b5f82601f83011261320d5761320c613042565b5b813561321d8482602086016131b8565b91505092915050565b5f806040838503121561323c5761323b612e12565b5b5f61324985828601612e60565b925050602083013567ffffffffffffffff81111561326a57613269612e16565b5b613276858286016131f9565b9150509250929050565b5f819050919050565b61329281613280565b82525050565b5f6020820190506132ab5f830184613289565b92915050565b6132ba81612e39565b82525050565b5f6020820190506132d35f8301846132b1565b92915050565b5f8115159050919050565b6132ed816132d9565b82525050565b5f81519050919050565b5f82825260208201905092915050565b8281835e5f83830152505050565b5f613325826132f3565b61332f81856132fd565b935061333f81856020860161330d565b613348816130f2565b840191505092915050565b5f6040820190506133665f8301856132e4565b8181036020830152613378818461331b565b90509392505050565b5f819050919050565b5f6133a461339f61339a84612e1a565b613381565b612e1a565b9050919050565b5f6133b58261338a565b9050919050565b5f6133c6826133ab565b9050919050565b6133d6816133bc565b82525050565b5f6020820190506133ef5f8301846133cd565b92915050565b5f81519050919050565b5f82825260208201905092915050565b5f613419826133f5565b61342381856133ff565b935061343381856020860161330d565b61343c816130f2565b840191505092915050565b5f6020820190508181035f83015261345f818461340f565b905092915050565b5f805f6060848603121561347e5761347d612e12565b5b5f61348b86828701612e60565b935050602061349c86828701612e60565b92505060406134ad86828701612e60565b9150509250925092565b7f4e487b71000000000000000000000000000000000000000000000000000000005f52603260045260245ffd5b7f4e487b71000000000000000000000000000000000000000000000000000000005f52601160045260245ffd5b5f61351b82612dd8565b91507fffffffffffffffffffffffffffffffffffffffffffffffffffffffffffffffff820361354d5761354c6134e4565b5b600182019050919050565b5f8151905061356681612e4a565b92915050565b5f6020828403121561358157613580612e12565b5b5f61358e84828501613558565b91505092915050565b7f4e487b71000000000000000000000000000000000000000000000000000000005f52602160045260245ffd5b600281106135d5576135d4613597565b5b50565b5f8190506135e5826135c4565b919050565b5f6135f4826135d8565b9050919050565b613604816135ea565b82525050565b5f60208201905061361d5f8301846135fb565b92915050565b5f67ffffffffffffffff82111561363d5761363c613102565b5b602082029050602081019050919050565b5f61366061365b84613623565b613160565b905080838252602082019050602084028301858111156136835761368261304a565b5b835b818110156136ac57806136988882613558565b845260208401935050602081019050613685565b5050509392505050565b5f82601f8301126136ca576136c9613042565b5b81516136da84826020860161364e565b91505092915050565b5f602082840312156136f8576136f7612e12565b5b5f82015167ffffffffffffffff81111561371557613714612e16565b5b613721848285016136b6565b91505092915050565b5f67ffffffffffffffff82111561374457613743613102565b5b602082029050602081019050919050565b61375e81612dd8565b8114613768575f80fd5b50565b5f8151905061377981613755565b92915050565b5f61379161378c8461372a565b613160565b905080838252602082019050602084028301858111156137b4576137b361304a565b5b835b818110156137dd57806137c9888261376b565b8452602084019350506020810190506137b6565b5050509392505050565b5f82601f8301126137fb576137fa613042565b5b815161380b84826020860161377f565b91505092915050565b5f806040838503121561382a57613829612e12565b5b5f83015167ffffffffffffffff81111561384757613846612e16565b5b613853858286016136b6565b925050602083015167ffffffffffffffff81111561387457613873612e16565b5b613880858286016137e7565b9150509250929050565b5f6020828403121561389f5761389e612e12565b5b5f6138ac8482850161376b565b91505092915050565b5f6138bf82612dd8565b91506138ca83612dd8565b92508282026138d881612dd8565b915082820484148315176138ef576138ee6134e4565b5b5092915050565b5f61390082612dd8565b915061390b83612dd8565b9250828201905080821115613923576139226134e4565b5b92915050565b6004811061393a57613939613597565b5b50565b5f81905061394a82613929565b919050565b5f6139598261393d565b9050919050565b6139698161394f565b82525050565b5f6060820190506139825f830186612de1565b61398f6020830185612de1565b61399c6040830184613960565b949350505050565b5f6139ae82612dd8565b91506139b983612dd8565b92508282039050818111156139d1576139d06134e4565b5b92915050565b5f67ffffffffffffffff8211156139f1576139f0613102565b5b602082029050602081019050919050565b613a0b81612dd8565b8114613a15575f80fd5b50565b5f81519050613a2681613a02565b92915050565b5f613a3e613a39846139d7565b613160565b90508083825260208201905060208402830185811115613a6157613a6061304a565b5b835b81811015613a8a5780613a768882613a18565b845260208401935050602081019050613a63565b5050509392505050565b5f82601f830112613aa857613aa7613042565b5b8151613ab8848260208601613a2c565b91505092915050565b5f8060408385031215613ad757613ad6612e12565b5b5f83015167ffffffffffffffff811115613af457613af3612e16565b5b613b00858286016136b6565b925050602083015167ffffffffffffffff811115613b2157613b20612e16565b5b613b2d85828601613a94565b9150509250929050565b5f819050919050565b5f67ffffffffffffffff82169050919050565b5f613b6d613b68613b6384613b37565b613381565b613b40565b9050919050565b613b7d81613b53565b82525050565b5f602082019050613b965f830184613b74565b92915050565b613ba581613280565b8114613baf575f80fd5b50565b5f81519050613bc081613b9c565b92915050565b5f60208284031215613bdb57613bda612e12565b5b5f613be884828501613bb2565b91505092915050565b5f81905092915050565b5f613c05826132f3565b613c0f8185613bf1565b9350613c1f81856020860161330d565b80840191505092915050565b5f613c368284613bfb565b91508190509291505056fea2646970667358221220868f793e62beddd02fe7d673076c93b4a455d7c283a9778d69df52ab791b392264736f6c634300081a0033",
  "linkReferences": {},
  "deployedLinkReferences": {}
}