{
  "_format": "hh-sol-artifact-1",
  "contractName": "InternalStatesOrchestrator",
  "sourceName": "contracts/InternalStatesOrchestrator.sol",
  "abi": [
    {
      "inputs": [
        {
          "internalType": "address",
          "name": "target",
          "type": "address"
        }
      ],
      "name": "AddressEmptyCode",
      "type": "error"
    },
    {
      "inputs": [
        {
          "internalType": "address",
          "name": "implementation",
          "type": "address"
        }
      ],
      "name": "ERC1967InvalidImplementation",
      "type": "error"
    },
    {
      "inputs": [],
      "name": "ERC1967NonPayable",
      "type": "error"
    },
    {
      "inputs": [],
      "name": "FailedCall",
      "type": "error"
    },
    {
      "inputs": [],
      "name": "InvalidInitialization",
      "type": "error"
    },
    {
      "inputs": [],
      "name": "NotAuthorized",
      "type": "error"
    },
    {
      "inputs": [],
      "name": "NotInitializing",
      "type": "error"
    },
    {
      "inputs": [
        {
          "internalType": "address",
          "name": "owner",
          "type": "address"
        }
      ],
      "name": "OwnableInvalidOwner",
      "type": "error"
    },
    {
      "inputs": [
        {
          "internalType": "address",
          "name": "account",
          "type": "address"
        }
      ],
      "name": "OwnableUnauthorizedAccount",
      "type": "error"
    },
    {
      "inputs": [],
      "name": "ReentrancyGuardReentrantCall",
      "type": "error"
    },
    {
      "inputs": [],
      "name": "TooEarly",
      "type": "error"
    },
    {
      "inputs": [],
      "name": "UUPSUnauthorizedCallContext",
      "type": "error"
    },
    {
      "inputs": [
        {
          "internalType": "bytes32",
          "name": "slot",
          "type": "bytes32"
        }
      ],
      "name": "UUPSUnsupportedProxiableUUID",
      "type": "error"
    },
    {
      "inputs": [],
      "name": "Underflow",
      "type": "error"
    },
    {
      "inputs": [],
      "name": "ZeroAddress",
      "type": "error"
    },
    {
      "anonymous": false,
      "inputs": [
        {
          "indexed": true,
          "internalType": "address",
          "name": "newAutomationRegistry",
          "type": "address"
        }
      ],
      "name": "AutomationRegistryUpdated",
      "type": "event"
    },
    {
      "anonymous": false,
      "inputs": [
        {
          "indexed": false,
          "internalType": "uint64",
          "name": "version",
          "type": "uint64"
        }
      ],
      "name": "Initialized",
      "type": "event"
    },
    {
      "anonymous": false,
      "inputs": [
        {
          "indexed": false,
          "internalType": "uint256",
          "name": "timestamp",
          "type": "uint256"
        }
      ],
      "name": "InternalStateProcessed",
      "type": "event"
    },
    {
      "anonymous": false,
      "inputs": [
        {
          "indexed": true,
          "internalType": "address",
          "name": "previousOwner",
          "type": "address"
        },
        {
          "indexed": true,
          "internalType": "address",
          "name": "newOwner",
          "type": "address"
        }
      ],
      "name": "OwnershipTransferStarted",
      "type": "event"
    },
    {
      "anonymous": false,
      "inputs": [
        {
          "indexed": true,
          "internalType": "address",
          "name": "previousOwner",
          "type": "address"
        },
        {
          "indexed": true,
          "internalType": "address",
          "name": "newOwner",
          "type": "address"
        }
      ],
      "name": "OwnershipTransferred",
      "type": "event"
    },
    {
      "anonymous": false,
      "inputs": [
        {
          "indexed": true,
          "internalType": "address",
          "name": "implementation",
          "type": "address"
        }
      ],
      "name": "Upgraded",
      "type": "event"
    },
    {
      "inputs": [],
      "name": "UPGRADE_INTERFACE_VERSION",
      "outputs": [
        {
          "internalType": "string",
          "name": "",
          "type": "string"
        }
      ],
      "stateMutability": "view",
      "type": "function"
    },
    {
      "inputs": [],
      "name": "acceptOwnership",
      "outputs": [],
      "stateMutability": "nonpayable",
      "type": "function"
    },
    {
      "inputs": [],
      "name": "automationRegistry",
      "outputs": [
        {
          "internalType": "address",
          "name": "",
          "type": "address"
        }
      ],
      "stateMutability": "view",
      "type": "function"
    },
    {
      "inputs": [
        {
          "internalType": "bytes",
          "name": "",
          "type": "bytes"
        }
      ],
      "name": "checkUpkeep",
      "outputs": [
        {
          "internalType": "bool",
          "name": "upkeepNeeded",
          "type": "bool"
        },
        {
          "internalType": "bytes",
          "name": "performData",
          "type": "bytes"
        }
      ],
      "stateMutability": "view",
      "type": "function"
    },
    {
      "inputs": [],
      "name": "config",
      "outputs": [
        {
          "internalType": "contract IOrionConfig",
          "name": "",
          "type": "address"
        }
      ],
      "stateMutability": "view",
      "type": "function"
    },
    {
      "inputs": [
        {
          "internalType": "address",
          "name": "initialOwner",
          "type": "address"
        },
        {
          "internalType": "address",
          "name": "automationRegistry_",
          "type": "address"
        },
        {
          "internalType": "address",
          "name": "config_",
          "type": "address"
        }
      ],
      "name": "initialize",
      "outputs": [],
      "stateMutability": "nonpayable",
      "type": "function"
    },
    {
      "inputs": [],
      "name": "nextUpdateTime",
      "outputs": [
        {
          "internalType": "uint256",
          "name": "",
          "type": "uint256"
        }
      ],
      "stateMutability": "view",
      "type": "function"
    },
    {
      "inputs": [],
      "name": "owner",
      "outputs": [
        {
          "internalType": "address",
          "name": "",
          "type": "address"
        }
      ],
      "stateMutability": "view",
      "type": "function"
    },
    {
      "inputs": [
        {
          "internalType": "address",
          "name": "",
          "type": "address"
        }
      ],
      "name": "pctChange",
      "outputs": [
        {
          "internalType": "int256",
          "name": "",
          "type": "int256"
        }
      ],
      "stateMutability": "view",
      "type": "function"
    },
    {
      "inputs": [],
      "name": "pendingOwner",
      "outputs": [
        {
          "internalType": "address",
          "name": "",
          "type": "address"
        }
      ],
      "stateMutability": "view",
      "type": "function"
    },
    {
      "inputs": [
        {
          "internalType": "bytes",
          "name": "",
          "type": "bytes"
        }
      ],
      "name": "performUpkeep",
      "outputs": [],
      "stateMutability": "nonpayable",
      "type": "function"
    },
    {
      "inputs": [],
      "name": "proxiableUUID",
      "outputs": [
        {
          "internalType": "bytes32",
          "name": "",
          "type": "bytes32"
        }
      ],
      "stateMutability": "view",
      "type": "function"
    },
    {
      "inputs": [],
      "name": "renounceOwnership",
      "outputs": [],
      "stateMutability": "nonpayable",
      "type": "function"
    },
    {
      "inputs": [
        {
          "internalType": "address",
          "name": "newOwner",
          "type": "address"
        }
      ],
      "name": "transferOwnership",
      "outputs": [],
      "stateMutability": "nonpayable",
      "type": "function"
    },
    {
      "inputs": [
        {
          "internalType": "address",
          "name": "newAutomationRegistry",
          "type": "address"
        }
      ],
      "name": "updateAutomationRegistry",
      "outputs": [],
      "stateMutability": "nonpayable",
      "type": "function"
    },
    {
      "inputs": [
        {
          "internalType": "address",
          "name": "newConfig",
          "type": "address"
        }
      ],
      "name": "updateConfig",
      "outputs": [],
      "stateMutability": "nonpayable",
      "type": "function"
    },
    {
      "inputs": [],
      "name": "updateInterval",
      "outputs": [
        {
          "internalType": "uint256",
          "name": "",
          "type": "uint256"
        }
      ],
      "stateMutability": "view",
      "type": "function"
    },
    {
      "inputs": [
        {
          "internalType": "address",
          "name": "newImplementation",
          "type": "address"
        },
        {
          "internalType": "bytes",
          "name": "data",
          "type": "bytes"
        }
      ],
      "name": "upgradeToAndCall",
      "outputs": [],
      "stateMutability": "payable",
      "type": "function"
    }
  ],
  "bytecode": "0x60a0604052306080523480156012575f80fd5b50608051611ac56100395f395f8181610e6e01528181610e970152610fdb0152611ac55ff3fe608060405260043610610105575f3560e01c8063728fb55d11610092578063ad3cb1cc11610062578063ad3cb1cc146102a0578063c0c53b8b146102dd578063e30c3978146102fc578063f2fde38b14610310578063fd2c80ae1461032f575f80fd5b8063728fb55d1461022e57806379502c551461025957806379ba5097146102785780638da5cb5b1461028c575f80fd5b806352d1902d116100d857806352d1902d146101835780635dc228a0146101975780636cc919c8146101ce5780636e04ff0d146101ed578063715018a61461021a575f80fd5b806314b5d07f1461010957806335238fb81461012a5780634585e33b146101515780634f1ef28614610170575b5f80fd5b348015610114575f80fd5b506101286101233660046114e9565b610343565b005b348015610135575f80fd5b5061013e5f5481565b6040519081526020015b60405180910390f35b34801561015c575f80fd5b5061012861016b366004611504565b6103bb565b61012861017e3660046115b4565b61060e565b34801561018e575f80fd5b5061013e610629565b3480156101a2575f80fd5b506001546101b6906001600160a01b031681565b6040516001600160a01b039091168152602001610148565b3480156101d9575f80fd5b506101286101e83660046114e9565b610644565b3480156101f8575f80fd5b5061020c610207366004611504565b61066e565b604051610148929190611687565b348015610225575f80fd5b50610128610696565b348015610239575f80fd5b5061013e6102483660046114e9565b60036020525f908152604090205481565b348015610264575f80fd5b506002546101b6906001600160a01b031681565b348015610283575f80fd5b506101286106a9565b348015610297575f80fd5b506101b66106f6565b3480156102ab575f80fd5b506102d0604051806040016040528060058152602001640352e302e360dc1b81525081565b60405161014891906116a9565b3480156102e8575f80fd5b506101286102f73660046116bb565b61072a565b348015610307575f80fd5b506101b661089d565b34801561031b575f80fd5b5061012861032a3660046114e9565b6108c5565b34801561033a575f80fd5b5061013e603c81565b61034b61094a565b6001600160a01b0381166103725760405163d92e233d60e01b815260040160405180910390fd5b600180546001600160a01b0319166001600160a01b0383169081179091556040517f6cc7ebdb6c8c53291c5ae16148cab9b049d23bf5bde5632900b40edff56fcb43905f90a250565b6001546001600160a01b031633146103e65760405163ea8e4eb560e01b815260040160405180910390fd5b6103ee61097c565b5f544210156104105760405163085de62560e01b815260040160405180910390fd5b610419426109c6565b5f556104236109d8565b600254604051638cf3564960e01b81525f60048201819052916001600160a01b031690638cf35649906024015f60405180830381865afa158015610469573d5f803e3d5ffd5b505050506040513d5f823e601f3d908101601f19168201604052610490919081019061178e565b90505f5b81518110156105ac575f8282815181106104b0576104b06117bf565b602002602001015190505f816001600160a01b03166301e1d1146040518163ffffffff1660e01b8152600401602060405180830381865afa1580156104f7573d5f803e3d5ffd5b505050506040513d601f19601f8201168201806040525081019061051b91906117d3565b90505f80836001600160a01b031663d3d034586040518163ffffffff1660e01b81526004015f60405180830381865afa15801561055a573d5f803e3d5ffd5b505050506040513d5f823e601f3d908101601f1916820160405261058191908101906117ea565b915091505f6105908383610cd1565b61059a90856118ba565b50506001909401935061049492505050565b506040514281527f9375d658f91055a030c54d5cf460d6f12968b10b80b0797c1aa5c02e4dca94039060200160405180910390a15061060a60017f9b779b17422d0df92223018b32b4d1fa46e071723d6817e2486d003becc55f0055565b5050565b610616610e63565b61061f82610f07565b61060a8282610f0f565b5f610632610fd0565b505f80516020611a7083398151915290565b61064c61094a565b600280546001600160a01b0319166001600160a01b0392909216919091179055565b5f606061067c5f5442101590565b915060405180602001604052805f81525090509250929050565b61069e61094a565b6106a75f611019565b565b33806106b361089d565b6001600160a01b0316146106ea5760405163118cdaa760e01b81526001600160a01b03821660048201526024015b60405180910390fd5b6106f381611019565b50565b5f807f9016d09d72d40fdae2fd8ceac6b6234c7706214fd39c1cd1e609a0528c1993005b546001600160a01b031692915050565b5f610733611051565b805490915060ff600160401b82041615906001600160401b03165f811580156107595750825b90505f826001600160401b031660011480156107745750303b155b905081158015610782575080155b156107a05760405163f92ee8a960e01b815260040160405180910390fd5b845467ffffffffffffffff1916600117855583156107ca57845460ff60401b1916600160401b1785555b6107d2611079565b6107da611079565b6107e2611081565b6107eb88611019565b6001600160a01b0387166108125760405163d92e233d60e01b815260040160405180910390fd5b600180546001600160a01b03808a166001600160a01b031992831617909255600280549289169290911691909117905561084b426109c6565b5f55831561089357845460ff60401b19168555604051600181527fc7f505b2f371ae2175ee4913f4499e1f2633a7b5936321eed1cdaeb6115181d29060200160405180910390a15b5050505050505050565b5f807f237e158222e3e6968b72b9db0d8043aacf074ad9f650f0d1606b4d82ee432c0061071a565b6108cd61094a565b7f237e158222e3e6968b72b9db0d8043aacf074ad9f650f0d1606b4d82ee432c0080546001600160a01b0319166001600160a01b03831690811782556109116106f6565b6001600160a01b03167f38d16b8cac22d99fc7c124b9cd0de2d3fa1faef420bfe791d8c362d765e2270060405160405180910390a35050565b336109536106f6565b6001600160a01b0316146106a75760405163118cdaa760e01b81523360048201526024016106e1565b7f9b779b17422d0df92223018b32b4d1fa46e071723d6817e2486d003becc55f008054600119016109c057604051633ee5aeb560e01b815260040160405180910390fd5b60029055565b5f6109d2603c836118d1565b92915050565b60025460408051636c366a2760e11b815290515f926001600160a01b03169163d86cd44e91600480830192869291908290030181865afa158015610a1e573d5f803e3d5ffd5b505050506040513d5f823e601f3d908101601f19168201604052610a45919081019061178e565b90505f60025f9054906101000a90046001600160a01b03166001600160a01b0316634bb93ab16040518163ffffffff1660e01b8152600401602060405180830381865afa158015610a98573d5f803e3d5ffd5b505050506040513d601f19601f82011682018060405250810190610abc91906118e4565b90505f82516001600160401b03811115610ad857610ad8611570565b604051908082528060200260200182016040528015610b01578160200160208202803683370190505b5090505f83516001600160401b03811115610b1e57610b1e611570565b604051908082528060200260200182016040528015610b47578160200160208202803683370190505b5090505f5b8451811015610cbf57836001600160a01b031663aea91078868381518110610b7657610b766117bf565b60200260200101516040518263ffffffff1660e01b8152600401610ba991906001600160a01b0391909116815260200190565b602060405180830381865afa158015610bc4573d5f803e3d5ffd5b505050506040513d601f19601f82011682018060405250810190610be891906117d3565b838281518110610bfa57610bfa6117bf565b602002602001018181525050836001600160a01b0316631c1b8772868381518110610c2757610c276117bf565b60200260200101516040518263ffffffff1660e01b8152600401610c5a91906001600160a01b0391909116815260200190565b6020604051808303815f875af1158015610c76573d5f803e3d5ffd5b505050506040513d601f19601f82011682018060405250810190610c9a91906117d3565b828281518110610cac57610cac6117bf565b6020908102919091010152600101610b4c565b50610ccb848383611091565b50505050565b5f8060025f9054906101000a90046001600160a01b03166001600160a01b031663b71ee4fc6040518163ffffffff1660e01b8152600401602060405180830381865afa158015610d23573d5f803e3d5ffd5b505050506040513d601f19601f82011682018060405250810190610d4791906118ff565b60ff1690505f610d5882600a611a02565b9050805f5b8551811015610e33575f878281518110610d7957610d796117bf565b602002602001015190505f878381518110610d9657610d966117bf565b6020908102919091018101516001600160a01b0384165f90815260039092526040822054909250908112610de3575f610dcf82846118ba565b9050610ddb81876118d1565b955050610e28565b5f610ded82611a0d565b610df790846118ba565b905080861015610e1a5760405163caccb6d960e01b815260040160405180910390fd5b610e248187611a27565b9550505b505050600101610d5d565b5095945050505050565b60017f9b779b17422d0df92223018b32b4d1fa46e071723d6817e2486d003becc55f0055565b306001600160a01b037f0000000000000000000000000000000000000000000000000000000000000000161480610ee957507f00000000000000000000000000000000000000000000000000000000000000006001600160a01b0316610edd5f80516020611a70833981519152546001600160a01b031690565b6001600160a01b031614155b156106a75760405163703e46dd60e11b815260040160405180910390fd5b6106f361094a565b816001600160a01b03166352d1902d6040518163ffffffff1660e01b8152600401602060405180830381865afa925050508015610f69575060408051601f3d908101601f19168201909252610f66918101906117d3565b60015b610f9157604051634c9c8ce360e01b81526001600160a01b03831660048201526024016106e1565b5f80516020611a708339815191528114610fc157604051632a87526960e21b8152600481018290526024016106e1565b610fcb838361124e565b505050565b306001600160a01b037f000000000000000000000000000000000000000000000000000000000000000016146106a75760405163703e46dd60e11b815260040160405180910390fd5b7f237e158222e3e6968b72b9db0d8043aacf074ad9f650f0d1606b4d82ee432c0080546001600160a01b031916815561060a826112a3565b5f807ff0c57e16840df040f15088dc2f81fe391c3923bec73e23a9662efc9c229c6a006109d2565b6106a7611313565b611089611313565b6106a7611338565b825160025460408051632dc7b93f60e21b815290515f926001600160a01b03169163b71ee4fc9160048083019260209291908290030181865afa1580156110da573d5f803e3d5ffd5b505050506040513d601f19601f820116820180604052508101906110fe91906118ff565b60ff1690505f61110f82600a611a02565b90505f5b83811015611245575f86828151811061112e5761112e6117bf565b602002602001015190505f86838151811061114b5761114b6117bf565b602002602001015190508181106111c9575f6111678383611a27565b90505f8361117587846118ba565b61117f9190611a3a565b90508060035f8d8881518110611197576111976117bf565b60200260200101516001600160a01b03166001600160a01b031681526020019081526020015f2081905550505061123b565b5f6111d48284611a27565b90505f836111e287846118ba565b6111ec9190611a3a565b6111f590611a0d565b90508060035f8d888151811061120d5761120d6117bf565b60200260200101516001600160a01b03166001600160a01b031681526020019081526020015f208190555050505b5050600101611113565b50505050505050565b61125782611340565b6040516001600160a01b038316907fbc7cd75a20ee27fd9adebab32041f755214dbc6bffa90cc0225b39da2e5c2d3b905f90a280511561129b57610fcb82826113a3565b61060a611415565b7f9016d09d72d40fdae2fd8ceac6b6234c7706214fd39c1cd1e609a0528c19930080546001600160a01b031981166001600160a01b03848116918217845560405192169182907f8be0079c531659141344cd1fd0a4f28419497f9722a3daafe3b4186f6b6457e0905f90a3505050565b61131b611434565b6106a757604051631afcd79f60e31b815260040160405180910390fd5b610e3d611313565b806001600160a01b03163b5f0361137557604051634c9c8ce360e01b81526001600160a01b03821660048201526024016106e1565b5f80516020611a7083398151915280546001600160a01b0319166001600160a01b0392909216919091179055565b60605f80846001600160a01b0316846040516113bf9190611a59565b5f60405180830381855af49150503d805f81146113f7576040519150601f19603f3d011682016040523d82523d5f602084013e6113fc565b606091505b509150915061140c85838361144d565b95945050505050565b34156106a75760405163b398979f60e01b815260040160405180910390fd5b5f61143d611051565b54600160401b900460ff16919050565b6060826114625761145d826114ac565b6114a5565b815115801561147957506001600160a01b0384163b155b156114a257604051639996b31560e01b81526001600160a01b03851660048201526024016106e1565b50805b9392505050565b8051156114bc5780518082602001fd5b60405163d6bda27560e01b815260040160405180910390fd5b6001600160a01b03811681146106f3575f80fd5b5f602082840312156114f9575f80fd5b81356114a5816114d5565b5f8060208385031215611515575f80fd5b82356001600160401b0381111561152a575f80fd5b8301601f8101851361153a575f80fd5b80356001600160401b0381111561154f575f80fd5b856020828401011115611560575f80fd5b6020919091019590945092505050565b634e487b7160e01b5f52604160045260245ffd5b604051601f8201601f191681016001600160401b03811182821017156115ac576115ac611570565b604052919050565b5f80604083850312156115c5575f80fd5b82356115d0816114d5565b915060208301356001600160401b038111156115ea575f80fd5b8301601f810185136115fa575f80fd5b80356001600160401b0381111561161357611613611570565b611626601f8201601f1916602001611584565b81815286602083850101111561163a575f80fd5b816020840160208301375f602083830101528093505050509250929050565b5f81518084528060208401602086015e5f602082860101526020601f19601f83011685010191505092915050565b8215158152604060208201525f6116a16040830184611659565b949350505050565b602081525f6114a56020830184611659565b5f805f606084860312156116cd575f80fd5b83356116d8816114d5565b925060208401356116e8816114d5565b915060408401356116f8816114d5565b809150509250925092565b5f6001600160401b0382111561171b5761171b611570565b5060051b60200190565b5f82601f830112611734575f80fd5b815161174761174282611703565b611584565b8082825260208201915060208360051b860101925085831115611768575f80fd5b602085015b83811015610e33578051611780816114d5565b83526020928301920161176d565b5f6020828403121561179e575f80fd5b81516001600160401b038111156117b3575f80fd5b6116a184828501611725565b634e487b7160e01b5f52603260045260245ffd5b5f602082840312156117e3575f80fd5b5051919050565b5f80604083850312156117fb575f80fd5b82516001600160401b03811115611810575f80fd5b61181c85828601611725565b92505060208301516001600160401b03811115611837575f80fd5b8301601f81018513611847575f80fd5b805161185561174282611703565b8082825260208201915060208360051b850101925087831115611876575f80fd5b6020840193505b8284101561189857835182526020938401939091019061187d565b809450505050509250929050565b634e487b7160e01b5f52601160045260245ffd5b80820281158282048414176109d2576109d26118a6565b808201808211156109d2576109d26118a6565b5f602082840312156118f4575f80fd5b81516114a5816114d5565b5f6020828403121561190f575f80fd5b815160ff811681146114a5575f80fd5b6001815b600184111561195a5780850481111561193e5761193e6118a6565b600184161561194c57908102905b60019390931c928002611923565b935093915050565b5f82611970575060016109d2565b8161197c57505f6109d2565b8160018114611992576002811461199c576119b8565b60019150506109d2565b60ff8411156119ad576119ad6118a6565b50506001821b6109d2565b5060208310610133831016604e8410600b84101617156119db575081810a6109d2565b6119e75f19848461191f565b805f19048211156119fa576119fa6118a6565b029392505050565b5f6114a58383611962565b5f600160ff1b8201611a2157611a216118a6565b505f0390565b818103818111156109d2576109d26118a6565b5f82611a5457634e487b7160e01b5f52601260045260245ffd5b500490565b5f82518060208501845e5f92019182525091905056fe360894a13ba1a3210667c828492db98dca3e2076cc3735a920a3ca505d382bbca2646970667358221220272f1bddaad991063987114eed6558f6db9cae6fbade72aa09e167e9ab8cf08464736f6c634300081a0033",
  "linkReferences": {},
  "deployedLinkReferences": {}
}