{
  "_format": "hh-sol-artifact-1",
  "contractName": "InternalStatesOrchestrator",
  "sourceName": "contracts/InternalStatesOrchestrator.sol",
  "abi": [
    {
      "inputs": [
        {
          "internalType": "address",
          "name": "target",
          "type": "address"
        }
      ],
      "name": "AddressEmptyCode",
      "type": "error"
    },
    {
      "inputs": [
        {
          "internalType": "address",
          "name": "implementation",
          "type": "address"
        }
      ],
      "name": "ERC1967InvalidImplementation",
      "type": "error"
    },
    {
      "inputs": [],
      "name": "ERC1967NonPayable",
      "type": "error"
    },
    {
      "inputs": [],
      "name": "FailedCall",
      "type": "error"
    },
    {
      "inputs": [],
      "name": "InvalidInitialization",
      "type": "error"
    },
    {
      "inputs": [],
      "name": "NotAuthorized",
      "type": "error"
    },
    {
      "inputs": [],
      "name": "NotInitializing",
      "type": "error"
    },
    {
      "inputs": [
        {
          "internalType": "address",
          "name": "owner",
          "type": "address"
        }
      ],
      "name": "OwnableInvalidOwner",
      "type": "error"
    },
    {
      "inputs": [
        {
          "internalType": "address",
          "name": "account",
          "type": "address"
        }
      ],
      "name": "OwnableUnauthorizedAccount",
      "type": "error"
    },
    {
      "inputs": [],
      "name": "ReentrancyGuardReentrantCall",
      "type": "error"
    },
    {
      "inputs": [],
      "name": "TooEarly",
      "type": "error"
    },
    {
      "inputs": [],
      "name": "UUPSUnauthorizedCallContext",
      "type": "error"
    },
    {
      "inputs": [
        {
          "internalType": "bytes32",
          "name": "slot",
          "type": "bytes32"
        }
      ],
      "name": "UUPSUnsupportedProxiableUUID",
      "type": "error"
    },
    {
      "inputs": [],
      "name": "ZeroAddress",
      "type": "error"
    },
    {
      "anonymous": false,
      "inputs": [
        {
          "indexed": true,
          "internalType": "address",
          "name": "newAutomationRegistry",
          "type": "address"
        }
      ],
      "name": "AutomationRegistryUpdated",
      "type": "event"
    },
    {
      "anonymous": false,
      "inputs": [
        {
          "indexed": false,
          "internalType": "uint64",
          "name": "version",
          "type": "uint64"
        }
      ],
      "name": "Initialized",
      "type": "event"
    },
    {
      "anonymous": false,
      "inputs": [
        {
          "indexed": false,
          "internalType": "uint256",
          "name": "epochCounter",
          "type": "uint256"
        }
      ],
      "name": "InternalStateProcessed",
      "type": "event"
    },
    {
      "anonymous": false,
      "inputs": [
        {
          "indexed": true,
          "internalType": "address",
          "name": "previousOwner",
          "type": "address"
        },
        {
          "indexed": true,
          "internalType": "address",
          "name": "newOwner",
          "type": "address"
        }
      ],
      "name": "OwnershipTransferStarted",
      "type": "event"
    },
    {
      "anonymous": false,
      "inputs": [
        {
          "indexed": true,
          "internalType": "address",
          "name": "previousOwner",
          "type": "address"
        },
        {
          "indexed": true,
          "internalType": "address",
          "name": "newOwner",
          "type": "address"
        }
      ],
      "name": "OwnershipTransferred",
      "type": "event"
    },
    {
      "anonymous": false,
      "inputs": [
        {
          "indexed": true,
          "internalType": "address",
          "name": "implementation",
          "type": "address"
        }
      ],
      "name": "Upgraded",
      "type": "event"
    },
    {
      "inputs": [],
      "name": "UPGRADE_INTERFACE_VERSION",
      "outputs": [
        {
          "internalType": "string",
          "name": "",
          "type": "string"
        }
      ],
      "stateMutability": "view",
      "type": "function"
    },
    {
      "inputs": [],
      "name": "acceptOwnership",
      "outputs": [],
      "stateMutability": "nonpayable",
      "type": "function"
    },
    {
      "inputs": [],
      "name": "automationRegistry",
      "outputs": [
        {
          "internalType": "address",
          "name": "",
          "type": "address"
        }
      ],
      "stateMutability": "view",
      "type": "function"
    },
    {
      "inputs": [
        {
          "internalType": "bytes",
          "name": "",
          "type": "bytes"
        }
      ],
      "name": "checkUpkeep",
      "outputs": [
        {
          "internalType": "bool",
          "name": "upkeepNeeded",
          "type": "bool"
        },
        {
          "internalType": "bytes",
          "name": "performData",
          "type": "bytes"
        }
      ],
      "stateMutability": "view",
      "type": "function"
    },
    {
      "inputs": [],
      "name": "config",
      "outputs": [
        {
          "internalType": "contract IOrionConfig",
          "name": "",
          "type": "address"
        }
      ],
      "stateMutability": "view",
      "type": "function"
    },
    {
      "inputs": [],
      "name": "epochCounter",
      "outputs": [
        {
          "internalType": "uint256",
          "name": "",
          "type": "uint256"
        }
      ],
      "stateMutability": "view",
      "type": "function"
    },
    {
      "inputs": [
        {
          "internalType": "address",
          "name": "initialOwner",
          "type": "address"
        },
        {
          "internalType": "address",
          "name": "automationRegistry_",
          "type": "address"
        },
        {
          "internalType": "address",
          "name": "config_",
          "type": "address"
        }
      ],
      "name": "initialize",
      "outputs": [],
      "stateMutability": "nonpayable",
      "type": "function"
    },
    {
      "inputs": [],
      "name": "nextUpdateTime",
      "outputs": [
        {
          "internalType": "uint256",
          "name": "",
          "type": "uint256"
        }
      ],
      "stateMutability": "view",
      "type": "function"
    },
    {
      "inputs": [],
      "name": "owner",
      "outputs": [
        {
          "internalType": "address",
          "name": "",
          "type": "address"
        }
      ],
      "stateMutability": "view",
      "type": "function"
    },
    {
      "inputs": [],
      "name": "pendingOwner",
      "outputs": [
        {
          "internalType": "address",
          "name": "",
          "type": "address"
        }
      ],
      "stateMutability": "view",
      "type": "function"
    },
    {
      "inputs": [
        {
          "internalType": "bytes",
          "name": "",
          "type": "bytes"
        }
      ],
      "name": "performUpkeep",
      "outputs": [],
      "stateMutability": "nonpayable",
      "type": "function"
    },
    {
      "inputs": [],
      "name": "proxiableUUID",
      "outputs": [
        {
          "internalType": "bytes32",
          "name": "",
          "type": "bytes32"
        }
      ],
      "stateMutability": "view",
      "type": "function"
    },
    {
      "inputs": [],
      "name": "renounceOwnership",
      "outputs": [],
      "stateMutability": "nonpayable",
      "type": "function"
    },
    {
      "inputs": [
        {
          "internalType": "address",
          "name": "newOwner",
          "type": "address"
        }
      ],
      "name": "transferOwnership",
      "outputs": [],
      "stateMutability": "nonpayable",
      "type": "function"
    },
    {
      "inputs": [
        {
          "internalType": "address",
          "name": "newAutomationRegistry",
          "type": "address"
        }
      ],
      "name": "updateAutomationRegistry",
      "outputs": [],
      "stateMutability": "nonpayable",
      "type": "function"
    },
    {
      "inputs": [
        {
          "internalType": "address",
          "name": "newConfig",
          "type": "address"
        }
      ],
      "name": "updateConfig",
      "outputs": [],
      "stateMutability": "nonpayable",
      "type": "function"
    },
    {
      "inputs": [],
      "name": "updateInterval",
      "outputs": [
        {
          "internalType": "uint256",
          "name": "",
          "type": "uint256"
        }
      ],
      "stateMutability": "view",
      "type": "function"
    },
    {
      "inputs": [
        {
          "internalType": "address",
          "name": "newImplementation",
          "type": "address"
        },
        {
          "internalType": "bytes",
          "name": "data",
          "type": "bytes"
        }
      ],
      "name": "upgradeToAndCall",
      "outputs": [],
      "stateMutability": "payable",
      "type": "function"
    }
  ],
  "bytecode": "0x60a0604052306080523480156012575f80fd5b506080516117606100395f395f8181610d4601528181610d6f0152610eb301526117605ff3fe608060405260043610610105575f3560e01c8063715018a611610092578063ad3cb1cc11610062578063ad3cb1cc1461028a578063c0c53b8b146102c7578063e30c3978146102e6578063f2fde38b146102fa578063fd2c80ae14610319575f80fd5b8063715018a61461022f57806379502c551461024357806379ba5097146102625780638da5cb5b14610276575f80fd5b80634f1ef286116100d85780634f1ef2861461018557806352d1902d146101985780635dc228a0146101ac5780636cc919c8146101e35780636e04ff0d14610202575f80fd5b806314b19c5a1461010957806314b5d07f1461013157806335238fb8146101525780634585e33b14610166575b5f80fd5b348015610114575f80fd5b5061011e60035481565b6040519081526020015b60405180910390f35b34801561013c575f80fd5b5061015061014b366004611246565b61032d565b005b34801561015d575f80fd5b5061011e5f5481565b348015610171575f80fd5b50610150610180366004611261565b6103a5565b610150610193366004611314565b610944565b3480156101a3575f80fd5b5061011e61095f565b3480156101b7575f80fd5b506001546101cb906001600160a01b031681565b6040516001600160a01b039091168152602001610128565b3480156101ee575f80fd5b506101506101fd366004611246565b61097a565b34801561020d575f80fd5b5061022161021c366004611261565b6109a4565b6040516101289291906113e9565b34801561023a575f80fd5b506101506109cc565b34801561024e575f80fd5b506002546101cb906001600160a01b031681565b34801561026d575f80fd5b506101506109df565b348015610281575f80fd5b506101cb610a2c565b348015610295575f80fd5b506102ba604051806040016040528060058152602001640352e302e360dc1b81525081565b604051610128919061140b565b3480156102d2575f80fd5b506101506102e136600461141d565b610a60565b3480156102f1575f80fd5b506101cb610bda565b348015610305575f80fd5b50610150610314366004611246565b610c02565b348015610324575f80fd5b5061011e603c81565b610335610c87565b6001600160a01b03811661035c5760405163d92e233d60e01b815260040160405180910390fd5b600180546001600160a01b0319166001600160a01b0383169081179091556040517f6cc7ebdb6c8c53291c5ae16148cab9b049d23bf5bde5632900b40edff56fcb43905f90a250565b6001546001600160a01b031633146103d05760405163ea8e4eb560e01b815260040160405180910390fd5b6103d8610cb9565b5f544210156103fa5760405163085de62560e01b815260040160405180910390fd5b61040342610d03565b5f908155600380549161041583611479565b909155505060025460408051634bb93ab160e01b815290515f926001600160a01b031691634bb93ab19160048083019260209291908290030181865afa158015610461573d5f803e3d5ffd5b505050506040513d601f19601f820116820180604052508101906104859190611491565b600254604051631da09e4360e31b81529192505f916001600160a01b039091169063ed04f218906104ba9084906004016114c0565b5f60405180830381865afa1580156104d4573d5f803e3d5ffd5b505050506040513d5f823e601f3d908101601f191682016040526104fb9190810190611570565b80519091505f5b818110156107c2575f83828151811061051d5761051d6115a2565b602002602001015190505f80826001600160a01b031663d3d034586040518163ffffffff1660e01b81526004015f60405180830381865afa158015610564573d5f803e3d5ffd5b505050506040513d5f823e601f3d908101601f1916820160405261058b91908101906115b6565b815191935091505f90815b81811015610666575f8582815181106105b1576105b16115a2565b602002602001015190505f8583815181106105ce576105ce6115a2565b60209081029190910101516040516315d5220f60e31b81526001600160a01b03848116600483015291925082918e169063aea9107890602401602060405180830381865afa158015610622573d5f803e3d5ffd5b505050506040513d601f19601f820116820180604052508101906106469190611674565b610650919061168b565b61065a90866116a2565b94505050600101610596565b505f856001600160a01b031663a68a5267876001600160a01b031663c37fc8a86040518163ffffffff1660e01b8152600401602060405180830381865afa1580156106b3573d5f803e3d5ffd5b505050506040513d601f19601f820116820180604052508101906106d79190611674565b855f6040518463ffffffff1660e01b81526004016106f7939291906116b5565b602060405180830381865afa158015610712573d5f803e3d5ffd5b505050506040513d601f19601f820116820180604052508101906107369190611674565b90505f81876001600160a01b031663d1699c266040518163ffffffff1660e01b8152600401602060405180830381865afa158015610776573d5f803e3d5ffd5b505050506040513d601f19601f8201168201806040525081019061079a9190611674565b6107a490866116a2565b6107ae91906116e1565b505060019096019550610502945050505050565b50600254604051631da09e4360e31b81525f916001600160a01b03169063ed04f218906107f4906001906004016114c0565b5f60405180830381865afa15801561080e573d5f803e3d5ffd5b505050506040513d5f823e601f3d908101601f191682016040526108359190810190611570565b9050805191505f5b828110156108d7575f828281518110610858576108586115a2565b602002602001015190505f80826001600160a01b031663d3d034586040518163ffffffff1660e01b81526004015f60405180830381865afa15801561089f573d5f803e3d5ffd5b505050506040513d5f823e601f3d908101601f191682016040526108c691908101906115b6565b50506001909301925061083d915050565b507f9375d658f91055a030c54d5cf460d6f12968b10b80b0797c1aa5c02e4dca940360035460405161090b91815260200190565b60405180910390a15050505061094060017f9b779b17422d0df92223018b32b4d1fa46e071723d6817e2486d003becc55f0055565b5050565b61094c610d3b565b61095582610ddf565b6109408282610de7565b5f610968610ea8565b505f8051602061170b83398151915290565b610982610c87565b600280546001600160a01b0319166001600160a01b0392909216919091179055565b5f60606109b25f5442101590565b915060405180602001604052805f81525090509250929050565b6109d4610c87565b6109dd5f610ef1565b565b33806109e9610bda565b6001600160a01b031614610a205760405163118cdaa760e01b81526001600160a01b03821660048201526024015b60405180910390fd5b610a2981610ef1565b50565b5f807f9016d09d72d40fdae2fd8ceac6b6234c7706214fd39c1cd1e609a0528c1993005b546001600160a01b031692915050565b5f610a69610f29565b805490915060ff600160401b820416159067ffffffffffffffff165f81158015610a905750825b90505f8267ffffffffffffffff166001148015610aac5750303b155b905081158015610aba575080155b15610ad85760405163f92ee8a960e01b815260040160405180910390fd5b845467ffffffffffffffff191660011785558315610b0257845460ff60401b1916600160401b1785555b610b0b88610f51565b610b13610f62565b610b1b610f6a565b610b23610f62565b6001600160a01b038716610b4a5760405163d92e233d60e01b815260040160405180910390fd5b600180546001600160a01b03808a166001600160a01b0319928316179092556002805492891692909116919091179055610b8342610d03565b5f9081556003558315610bd057845460ff60401b19168555604051600181527fc7f505b2f371ae2175ee4913f4499e1f2633a7b5936321eed1cdaeb6115181d29060200160405180910390a15b5050505050505050565b5f807f237e158222e3e6968b72b9db0d8043aacf074ad9f650f0d1606b4d82ee432c00610a50565b610c0a610c87565b7f237e158222e3e6968b72b9db0d8043aacf074ad9f650f0d1606b4d82ee432c0080546001600160a01b0319166001600160a01b0383169081178255610c4e610a2c565b6001600160a01b03167f38d16b8cac22d99fc7c124b9cd0de2d3fa1faef420bfe791d8c362d765e2270060405160405180910390a35050565b33610c90610a2c565b6001600160a01b0316146109dd5760405163118cdaa760e01b8152336004820152602401610a17565b7f9b779b17422d0df92223018b32b4d1fa46e071723d6817e2486d003becc55f00805460011901610cfd57604051633ee5aeb560e01b815260040160405180910390fd5b60029055565b5f610d0f603c836116a2565b92915050565b60017f9b779b17422d0df92223018b32b4d1fa46e071723d6817e2486d003becc55f0055565b306001600160a01b037f0000000000000000000000000000000000000000000000000000000000000000161480610dc157507f00000000000000000000000000000000000000000000000000000000000000006001600160a01b0316610db55f8051602061170b833981519152546001600160a01b031690565b6001600160a01b031614155b156109dd5760405163703e46dd60e11b815260040160405180910390fd5b610a29610c87565b816001600160a01b03166352d1902d6040518163ffffffff1660e01b8152600401602060405180830381865afa925050508015610e41575060408051601f3d908101601f19168201909252610e3e91810190611674565b60015b610e6957604051634c9c8ce360e01b81526001600160a01b0383166004820152602401610a17565b5f8051602061170b8339815191528114610e9957604051632a87526960e21b815260048101829052602401610a17565b610ea38383610f7a565b505050565b306001600160a01b037f000000000000000000000000000000000000000000000000000000000000000016146109dd5760405163703e46dd60e11b815260040160405180910390fd5b7f237e158222e3e6968b72b9db0d8043aacf074ad9f650f0d1606b4d82ee432c0080546001600160a01b031916815561094082610fcf565b5f807ff0c57e16840df040f15088dc2f81fe391c3923bec73e23a9662efc9c229c6a00610d0f565b610f5961103f565b610a2981611064565b6109dd61103f565b610f7261103f565b6109dd611095565b610f838261109d565b6040516001600160a01b038316907fbc7cd75a20ee27fd9adebab32041f755214dbc6bffa90cc0225b39da2e5c2d3b905f90a2805115610fc757610ea38282611100565b610940611172565b7f9016d09d72d40fdae2fd8ceac6b6234c7706214fd39c1cd1e609a0528c19930080546001600160a01b031981166001600160a01b03848116918217845560405192169182907f8be0079c531659141344cd1fd0a4f28419497f9722a3daafe3b4186f6b6457e0905f90a3505050565b611047611191565b6109dd57604051631afcd79f60e31b815260040160405180910390fd5b61106c61103f565b6001600160a01b038116610a2057604051631e4fbdf760e01b81525f6004820152602401610a17565b610d1561103f565b806001600160a01b03163b5f036110d257604051634c9c8ce360e01b81526001600160a01b0382166004820152602401610a17565b5f8051602061170b83398151915280546001600160a01b0319166001600160a01b0392909216919091179055565b60605f80846001600160a01b03168460405161111c91906116f4565b5f60405180830381855af49150503d805f8114611154576040519150601f19603f3d011682016040523d82523d5f602084013e611159565b606091505b50915091506111698583836111aa565b95945050505050565b34156109dd5760405163b398979f60e01b815260040160405180910390fd5b5f61119a610f29565b54600160401b900460ff16919050565b6060826111bf576111ba82611209565b611202565b81511580156111d657506001600160a01b0384163b155b156111ff57604051639996b31560e01b81526001600160a01b0385166004820152602401610a17565b50805b9392505050565b8051156112195780518082602001fd5b60405163d6bda27560e01b815260040160405180910390fd5b6001600160a01b0381168114610a29575f80fd5b5f60208284031215611256575f80fd5b813561120281611232565b5f8060208385031215611272575f80fd5b823567ffffffffffffffff811115611288575f80fd5b8301601f81018513611298575f80fd5b803567ffffffffffffffff8111156112ae575f80fd5b8560208284010111156112bf575f80fd5b6020919091019590945092505050565b634e487b7160e01b5f52604160045260245ffd5b604051601f8201601f1916810167ffffffffffffffff8111828210171561130c5761130c6112cf565b604052919050565b5f8060408385031215611325575f80fd5b823561133081611232565b9150602083013567ffffffffffffffff81111561134b575f80fd5b8301601f8101851361135b575f80fd5b803567ffffffffffffffff811115611375576113756112cf565b611388601f8201601f19166020016112e3565b81815286602083850101111561139c575f80fd5b816020840160208301375f602083830101528093505050509250929050565b5f81518084528060208401602086015e5f602082860101526020601f19601f83011685010191505092915050565b8215158152604060208201525f61140360408301846113bb565b949350505050565b602081525f61120260208301846113bb565b5f805f6060848603121561142f575f80fd5b833561143a81611232565b9250602084013561144a81611232565b9150604084013561145a81611232565b809150509250925092565b634e487b7160e01b5f52601160045260245ffd5b5f6001820161148a5761148a611465565b5060010190565b5f602082840312156114a1575f80fd5b815161120281611232565b634e487b7160e01b5f52602160045260245ffd5b60208101600283106114d4576114d46114ac565b91905290565b5f67ffffffffffffffff8211156114f3576114f36112cf565b5060051b60200190565b5f82601f83011261150c575f80fd5b815161151f61151a826114da565b6112e3565b8082825260208201915060208360051b860101925085831115611540575f80fd5b602085015b8381101561156657805161155881611232565b835260209283019201611545565b5095945050505050565b5f60208284031215611580575f80fd5b815167ffffffffffffffff811115611596575f80fd5b611403848285016114fd565b634e487b7160e01b5f52603260045260245ffd5b5f80604083850312156115c7575f80fd5b825167ffffffffffffffff8111156115dd575f80fd5b6115e9858286016114fd565b925050602083015167ffffffffffffffff811115611605575f80fd5b8301601f81018513611615575f80fd5b805161162361151a826114da565b8082825260208201915060208360051b850101925087831115611644575f80fd5b6020840193505b8284101561166657835182526020938401939091019061164b565b809450505050509250929050565b5f60208284031215611684575f80fd5b5051919050565b8082028115828204841417610d0f57610d0f611465565b80820180821115610d0f57610d0f611465565b8381526020810183905260608101600483106116d3576116d36114ac565b826040830152949350505050565b81810381811115610d0f57610d0f611465565b5f82518060208501845e5f92019182525091905056fe360894a13ba1a3210667c828492db98dca3e2076cc3735a920a3ca505d382bbca2646970667358221220f71e00dfbe235bc79837f8f45beeafee60e39e75fe3982c68b5da54c37f0127c64736f6c634300081a0033",
  "linkReferences": {},
  "deployedLinkReferences": {}
}