{
  "_format": "hh-sol-artifact-1",
  "contractName": "InternalStatesOrchestrator",
  "sourceName": "contracts/InternalStatesOrchestrator.sol",
  "abi": [
    {
      "inputs": [
        {
          "internalType": "address",
          "name": "target",
          "type": "address"
        }
      ],
      "name": "AddressEmptyCode",
      "type": "error"
    },
    {
      "inputs": [
        {
          "internalType": "address",
          "name": "implementation",
          "type": "address"
        }
      ],
      "name": "ERC1967InvalidImplementation",
      "type": "error"
    },
    {
      "inputs": [],
      "name": "ERC1967NonPayable",
      "type": "error"
    },
    {
      "inputs": [],
      "name": "FailedCall",
      "type": "error"
    },
    {
      "inputs": [],
      "name": "InvalidInitialization",
      "type": "error"
    },
    {
      "inputs": [],
      "name": "NotAuthorized",
      "type": "error"
    },
    {
      "inputs": [],
      "name": "NotInitializing",
      "type": "error"
    },
    {
      "inputs": [
        {
          "internalType": "address",
          "name": "owner",
          "type": "address"
        }
      ],
      "name": "OwnableInvalidOwner",
      "type": "error"
    },
    {
      "inputs": [
        {
          "internalType": "address",
          "name": "account",
          "type": "address"
        }
      ],
      "name": "OwnableUnauthorizedAccount",
      "type": "error"
    },
    {
      "inputs": [],
      "name": "ReentrancyGuardReentrantCall",
      "type": "error"
    },
    {
      "inputs": [],
      "name": "TooEarly",
      "type": "error"
    },
    {
      "inputs": [],
      "name": "UUPSUnauthorizedCallContext",
      "type": "error"
    },
    {
      "inputs": [
        {
          "internalType": "bytes32",
          "name": "slot",
          "type": "bytes32"
        }
      ],
      "name": "UUPSUnsupportedProxiableUUID",
      "type": "error"
    },
    {
      "inputs": [],
      "name": "ZeroAddress",
      "type": "error"
    },
    {
      "anonymous": false,
      "inputs": [
        {
          "indexed": true,
          "internalType": "address",
          "name": "newAutomationRegistry",
          "type": "address"
        }
      ],
      "name": "AutomationRegistryUpdated",
      "type": "event"
    },
    {
      "anonymous": false,
      "inputs": [
        {
          "indexed": false,
          "internalType": "uint64",
          "name": "version",
          "type": "uint64"
        }
      ],
      "name": "Initialized",
      "type": "event"
    },
    {
      "anonymous": false,
      "inputs": [
        {
          "indexed": false,
          "internalType": "uint256",
          "name": "timestamp",
          "type": "uint256"
        }
      ],
      "name": "InternalStateProcessed",
      "type": "event"
    },
    {
      "anonymous": false,
      "inputs": [
        {
          "indexed": true,
          "internalType": "address",
          "name": "previousOwner",
          "type": "address"
        },
        {
          "indexed": true,
          "internalType": "address",
          "name": "newOwner",
          "type": "address"
        }
      ],
      "name": "OwnershipTransferStarted",
      "type": "event"
    },
    {
      "anonymous": false,
      "inputs": [
        {
          "indexed": true,
          "internalType": "address",
          "name": "previousOwner",
          "type": "address"
        },
        {
          "indexed": true,
          "internalType": "address",
          "name": "newOwner",
          "type": "address"
        }
      ],
      "name": "OwnershipTransferred",
      "type": "event"
    },
    {
      "anonymous": false,
      "inputs": [
        {
          "indexed": true,
          "internalType": "address",
          "name": "implementation",
          "type": "address"
        }
      ],
      "name": "Upgraded",
      "type": "event"
    },
    {
      "inputs": [],
      "name": "UPDATE_INTERVAL",
      "outputs": [
        {
          "internalType": "uint256",
          "name": "",
          "type": "uint256"
        }
      ],
      "stateMutability": "view",
      "type": "function"
    },
    {
      "inputs": [],
      "name": "UPGRADE_INTERFACE_VERSION",
      "outputs": [
        {
          "internalType": "string",
          "name": "",
          "type": "string"
        }
      ],
      "stateMutability": "view",
      "type": "function"
    },
    {
      "inputs": [],
      "name": "acceptOwnership",
      "outputs": [],
      "stateMutability": "nonpayable",
      "type": "function"
    },
    {
      "inputs": [],
      "name": "automationRegistry",
      "outputs": [
        {
          "internalType": "address",
          "name": "",
          "type": "address"
        }
      ],
      "stateMutability": "view",
      "type": "function"
    },
    {
      "inputs": [
        {
          "internalType": "bytes",
          "name": "",
          "type": "bytes"
        }
      ],
      "name": "checkUpkeep",
      "outputs": [
        {
          "internalType": "bool",
          "name": "upkeepNeeded",
          "type": "bool"
        },
        {
          "internalType": "bytes",
          "name": "performData",
          "type": "bytes"
        }
      ],
      "stateMutability": "view",
      "type": "function"
    },
    {
      "inputs": [],
      "name": "config",
      "outputs": [
        {
          "internalType": "contract IOrionConfig",
          "name": "",
          "type": "address"
        }
      ],
      "stateMutability": "view",
      "type": "function"
    },
    {
      "inputs": [
        {
          "internalType": "address",
          "name": "initialOwner",
          "type": "address"
        },
        {
          "internalType": "address",
          "name": "automationRegistry_",
          "type": "address"
        },
        {
          "internalType": "address",
          "name": "config_",
          "type": "address"
        }
      ],
      "name": "initialize",
      "outputs": [],
      "stateMutability": "nonpayable",
      "type": "function"
    },
    {
      "inputs": [],
      "name": "nextUpdateTime",
      "outputs": [
        {
          "internalType": "uint256",
          "name": "",
          "type": "uint256"
        }
      ],
      "stateMutability": "view",
      "type": "function"
    },
    {
      "inputs": [],
      "name": "owner",
      "outputs": [
        {
          "internalType": "address",
          "name": "",
          "type": "address"
        }
      ],
      "stateMutability": "view",
      "type": "function"
    },
    {
      "inputs": [],
      "name": "pendingOwner",
      "outputs": [
        {
          "internalType": "address",
          "name": "",
          "type": "address"
        }
      ],
      "stateMutability": "view",
      "type": "function"
    },
    {
      "inputs": [
        {
          "internalType": "bytes",
          "name": "",
          "type": "bytes"
        }
      ],
      "name": "performUpkeep",
      "outputs": [],
      "stateMutability": "nonpayable",
      "type": "function"
    },
    {
      "inputs": [],
      "name": "proxiableUUID",
      "outputs": [
        {
          "internalType": "bytes32",
          "name": "",
          "type": "bytes32"
        }
      ],
      "stateMutability": "view",
      "type": "function"
    },
    {
      "inputs": [],
      "name": "renounceOwnership",
      "outputs": [],
      "stateMutability": "nonpayable",
      "type": "function"
    },
    {
      "inputs": [
        {
          "internalType": "address",
          "name": "newOwner",
          "type": "address"
        }
      ],
      "name": "transferOwnership",
      "outputs": [],
      "stateMutability": "nonpayable",
      "type": "function"
    },
    {
      "inputs": [
        {
          "internalType": "address",
          "name": "newAutomationRegistry",
          "type": "address"
        }
      ],
      "name": "updateAutomationRegistry",
      "outputs": [],
      "stateMutability": "nonpayable",
      "type": "function"
    },
    {
      "inputs": [
        {
          "internalType": "address",
          "name": "newConfig",
          "type": "address"
        }
      ],
      "name": "updateConfig",
      "outputs": [],
      "stateMutability": "nonpayable",
      "type": "function"
    },
    {
      "inputs": [
        {
          "internalType": "address",
          "name": "newImplementation",
          "type": "address"
        },
        {
          "internalType": "bytes",
          "name": "data",
          "type": "bytes"
        }
      ],
      "name": "upgradeToAndCall",
      "outputs": [],
      "stateMutability": "payable",
      "type": "function"
    }
  ],
  "bytecode": "0x60a0604052306080523480156012575f80fd5b506080516115076100395f395f81816108df015281816109080152610a4c01526115075ff3fe6080604052600436106100fa575f3560e01c8063715018a6116100925780638da5cb5b116100625780638da5cb5b1461026a578063ad3cb1cc1461027e578063c0c53b8b146102bb578063e30c3978146102da578063f2fde38b146102ee575f80fd5b8063715018a61461020f57806379502c551461022357806379ba50971461024257806389ac414714610256575f80fd5b806352d1902d116100cd57806352d1902d146101785780635dc228a01461018c5780636cc919c8146101c35780636e04ff0d146101e2575f80fd5b806314b5d07f146100fe57806335238fb81461011f5780634585e33b146101465780634f1ef28614610165575b5f80fd5b348015610109575f80fd5b5061011d61011836600461101d565b61030d565b005b34801561012a575f80fd5b506101335f5481565b6040519081526020015b60405180910390f35b348015610151575f80fd5b5061011d610160366004611038565b610385565b61011d6101733660046110e8565b61044d565b348015610183575f80fd5b50610133610468565b348015610197575f80fd5b506001546101ab906001600160a01b031681565b6040516001600160a01b03909116815260200161013d565b3480156101ce575f80fd5b5061011d6101dd36600461101d565b610483565b3480156101ed575f80fd5b506102016101fc366004611038565b6104ad565b60405161013d9291906111bb565b34801561021a575f80fd5b5061011d6104d5565b34801561022e575f80fd5b506002546101ab906001600160a01b031681565b34801561024d575f80fd5b5061011d6104e8565b348015610261575f80fd5b50610133603c81565b348015610275575f80fd5b506101ab610535565b348015610289575f80fd5b506102ae604051806040016040528060058152602001640352e302e360dc1b81525081565b60405161013d91906111dd565b3480156102c6575f80fd5b5061011d6102d53660046111ef565b610569565b3480156102e5575f80fd5b506101ab6106dc565b3480156102f9575f80fd5b5061011d61030836600461101d565b610704565b610315610789565b6001600160a01b03811661033c5760405163d92e233d60e01b815260040160405180910390fd5b600180546001600160a01b0319166001600160a01b0383169081179091556040517f6cc7ebdb6c8c53291c5ae16148cab9b049d23bf5bde5632900b40edff56fcb43905f90a250565b6001546001600160a01b031633146103b05760405163ea8e4eb560e01b815260040160405180910390fd5b6103b86107bb565b5f544210156103da5760405163085de62560e01b815260040160405180910390fd5b6103e342610805565b5f556103ed610817565b6040514281527f9375d658f91055a030c54d5cf460d6f12968b10b80b0797c1aa5c02e4dca94039060200160405180910390a161044960017f9b779b17422d0df92223018b32b4d1fa46e071723d6817e2486d003becc55f0055565b5050565b6104556108d4565b61045e82610978565b6104498282610980565b5f610471610a41565b505f805160206114b283398151915290565b61048b610789565b600280546001600160a01b0319166001600160a01b0392909216919091179055565b5f60606104bb5f5442101590565b915060405180602001604052805f81525090509250929050565b6104dd610789565b6104e65f610a8a565b565b33806104f26106dc565b6001600160a01b0316146105295760405163118cdaa760e01b81526001600160a01b03821660048201526024015b60405180910390fd5b61053281610a8a565b50565b5f807f9016d09d72d40fdae2fd8ceac6b6234c7706214fd39c1cd1e609a0528c1993005b546001600160a01b031692915050565b5f610572610ac2565b805490915060ff600160401b82041615906001600160401b03165f811580156105985750825b90505f826001600160401b031660011480156105b35750303b155b9050811580156105c1575080155b156105df5760405163f92ee8a960e01b815260040160405180910390fd5b845467ffffffffffffffff19166001178555831561060957845460ff60401b1916600160401b1785555b610611610aea565b610619610aea565b610621610af2565b61062a88610a8a565b6001600160a01b0387166106515760405163d92e233d60e01b815260040160405180910390fd5b600180546001600160a01b03808a166001600160a01b031992831617909255600280549289169290911691909117905561068a42610805565b5f5583156106d257845460ff60401b19168555604051600181527fc7f505b2f371ae2175ee4913f4499e1f2633a7b5936321eed1cdaeb6115181d29060200160405180910390a15b5050505050505050565b5f807f237e158222e3e6968b72b9db0d8043aacf074ad9f650f0d1606b4d82ee432c00610559565b61070c610789565b7f237e158222e3e6968b72b9db0d8043aacf074ad9f650f0d1606b4d82ee432c0080546001600160a01b0319166001600160a01b0383169081178255610750610535565b6001600160a01b03167f38d16b8cac22d99fc7c124b9cd0de2d3fa1faef420bfe791d8c362d765e2270060405160405180910390a35050565b33610792610535565b6001600160a01b0316146104e65760405163118cdaa760e01b8152336004820152602401610520565b7f9b779b17422d0df92223018b32b4d1fa46e071723d6817e2486d003becc55f008054600119016107ff57604051633ee5aeb560e01b815260040160405180910390fd5b60029055565b5f610811603c83611237565b92915050565b5f805f805f60025f9054906101000a90046001600160a01b03166001600160a01b031663309bfe4a6040518163ffffffff1660e01b81526004015f60405180830381865afa15801561086b573d5f803e3d5ffd5b505050506040513d5f823e601f3d908101601f191682016040526108929190810190611346565b945094509450945094505f6108a5610b02565b50505050505050565b60017f9b779b17422d0df92223018b32b4d1fa46e071723d6817e2486d003becc55f0055565b306001600160a01b037f000000000000000000000000000000000000000000000000000000000000000016148061095a57507f00000000000000000000000000000000000000000000000000000000000000006001600160a01b031661094e5f805160206114b2833981519152546001600160a01b031690565b6001600160a01b031614155b156104e65760405163703e46dd60e11b815260040160405180910390fd5b610532610789565b816001600160a01b03166352d1902d6040518163ffffffff1660e01b8152600401602060405180830381865afa9250505080156109da575060408051601f3d908101601f191682019092526109d791810190611424565b60015b610a0257604051634c9c8ce360e01b81526001600160a01b0383166004820152602401610520565b5f805160206114b28339815191528114610a3257604051632a87526960e21b815260048101829052602401610520565b610a3c8383610d82565b505050565b306001600160a01b037f000000000000000000000000000000000000000000000000000000000000000016146104e65760405163703e46dd60e11b815260040160405180910390fd5b7f237e158222e3e6968b72b9db0d8043aacf074ad9f650f0d1606b4d82ee432c0080546001600160a01b031916815561044982610dd7565b5f807ff0c57e16840df040f15088dc2f81fe391c3923bec73e23a9662efc9c229c6a00610811565b6104e6610e47565b610afa610e47565b6104e6610e6c565b60605f60025f9054906101000a90046001600160a01b03166001600160a01b031663d86cd44e6040518163ffffffff1660e01b81526004015f60405180830381865afa158015610b54573d5f803e3d5ffd5b505050506040513d5f823e601f3d908101601f19168201604052610b7b919081019061143b565b90505f60025f9054906101000a90046001600160a01b03166001600160a01b0316634bb93ab16040518163ffffffff1660e01b8152600401602060405180830381865afa158015610bce573d5f803e3d5ffd5b505050506040513d601f19601f82011682018060405250810190610bf2919061146c565b90505f82516001600160401b03811115610c0e57610c0e6110a4565b604051908082528060200260200182016040528015610c37578160200160208202803683370190505b5090505f83516001600160401b03811115610c5457610c546110a4565b604051908082528060200260200182016040528015610c7d578160200160208202803683370190505b5090505f5b8451811015610d6a57836001600160a01b031663aea91078868381518110610cac57610cac611487565b60200260200101516040518263ffffffff1660e01b8152600401610cdf91906001600160a01b0391909116815260200190565b602060405180830381865afa158015610cfa573d5f803e3d5ffd5b505050506040513d601f19601f82011682018060405250810190610d1e9190611424565b838281518110610d3057610d30611487565b602002602001018181525050670de0b6b3a7640000828281518110610d5757610d57611487565b6020908102919091010152600101610c82565b5050604080515f815260208101909152949350505050565b610d8b82610e74565b6040516001600160a01b038316907fbc7cd75a20ee27fd9adebab32041f755214dbc6bffa90cc0225b39da2e5c2d3b905f90a2805115610dcf57610a3c8282610ed7565b610449610f49565b7f9016d09d72d40fdae2fd8ceac6b6234c7706214fd39c1cd1e609a0528c19930080546001600160a01b031981166001600160a01b03848116918217845560405192169182907f8be0079c531659141344cd1fd0a4f28419497f9722a3daafe3b4186f6b6457e0905f90a3505050565b610e4f610f68565b6104e657604051631afcd79f60e31b815260040160405180910390fd5b6108ae610e47565b806001600160a01b03163b5f03610ea957604051634c9c8ce360e01b81526001600160a01b0382166004820152602401610520565b5f805160206114b283398151915280546001600160a01b0319166001600160a01b0392909216919091179055565b60605f80846001600160a01b031684604051610ef3919061149b565b5f60405180830381855af49150503d805f8114610f2b576040519150601f19603f3d011682016040523d82523d5f602084013e610f30565b606091505b5091509150610f40858383610f81565b95945050505050565b34156104e65760405163b398979f60e01b815260040160405180910390fd5b5f610f71610ac2565b54600160401b900460ff16919050565b606082610f9657610f9182610fe0565b610fd9565b8151158015610fad57506001600160a01b0384163b155b15610fd657604051639996b31560e01b81526001600160a01b0385166004820152602401610520565b50805b9392505050565b805115610ff05780518082602001fd5b60405163d6bda27560e01b815260040160405180910390fd5b6001600160a01b0381168114610532575f80fd5b5f6020828403121561102d575f80fd5b8135610fd981611009565b5f8060208385031215611049575f80fd5b82356001600160401b0381111561105e575f80fd5b8301601f8101851361106e575f80fd5b80356001600160401b03811115611083575f80fd5b856020828401011115611094575f80fd5b6020919091019590945092505050565b634e487b7160e01b5f52604160045260245ffd5b604051601f8201601f191681016001600160401b03811182821017156110e0576110e06110a4565b604052919050565b5f80604083850312156110f9575f80fd5b823561110481611009565b915060208301356001600160401b0381111561111e575f80fd5b8301601f8101851361112e575f80fd5b80356001600160401b03811115611147576111476110a4565b61115a601f8201601f19166020016110b8565b81815286602083850101111561116e575f80fd5b816020840160208301375f602083830101528093505050509250929050565b5f81518084528060208401602086015e5f602082860101526020601f19601f83011685010191505092915050565b8215158152604060208201525f6111d5604083018461118d565b949350505050565b602081525f610fd9602083018461118d565b5f805f60608486031215611201575f80fd5b833561120c81611009565b9250602084013561121c81611009565b9150604084013561122c81611009565b809150509250925092565b8082018082111561081157634e487b7160e01b5f52601160045260245ffd5b5f6001600160401b0382111561126e5761126e6110a4565b5060051b60200190565b5f82601f830112611287575f80fd5b815161129a61129582611256565b6110b8565b8082825260208201915060208360051b8601019250858311156112bb575f80fd5b602085015b838110156112e15780516112d381611009565b8352602092830192016112c0565b5095945050505050565b5f82601f8301126112fa575f80fd5b815161130861129582611256565b8082825260208201915060208360051b860101925085831115611329575f80fd5b602085015b838110156112e157805183526020928301920161132e565b5f805f805f60a0868803121561135a575f80fd5b85516001600160401b0381111561136f575f80fd5b61137b88828901611278565b95505060208601516001600160401b03811115611396575f80fd5b6113a2888289016112eb565b94505060408601516001600160401b038111156113bd575f80fd5b6113c9888289016112eb565b93505060608601516001600160401b038111156113e4575f80fd5b6113f0888289016112eb565b92505060808601516001600160401b0381111561140b575f80fd5b611417888289016112eb565b9150509295509295909350565b5f60208284031215611434575f80fd5b5051919050565b5f6020828403121561144b575f80fd5b81516001600160401b03811115611460575f80fd5b6111d584828501611278565b5f6020828403121561147c575f80fd5b8151610fd981611009565b634e487b7160e01b5f52603260045260245ffd5b5f82518060208501845e5f92019182525091905056fe360894a13ba1a3210667c828492db98dca3e2076cc3735a920a3ca505d382bbca264697066735822122059dab9bd43c2afe1576664172d6ba76115be772fb9a8e1b19f10d5fc56cba47f64736f6c634300081a0033",
  "linkReferences": {},
  "deployedLinkReferences": {}
}