{
  "_format": "hh-sol-artifact-1",
  "contractName": "InternalStatesOrchestrator",
  "sourceName": "contracts/InternalStatesOrchestrator.sol",
  "abi": [
    {
      "inputs": [
        {
          "internalType": "address",
          "name": "target",
          "type": "address"
        }
      ],
      "name": "AddressEmptyCode",
      "type": "error"
    },
    {
      "inputs": [
        {
          "internalType": "address",
          "name": "implementation",
          "type": "address"
        }
      ],
      "name": "ERC1967InvalidImplementation",
      "type": "error"
    },
    {
      "inputs": [],
      "name": "ERC1967NonPayable",
      "type": "error"
    },
    {
      "inputs": [],
      "name": "FailedCall",
      "type": "error"
    },
    {
      "inputs": [],
      "name": "InvalidInitialization",
      "type": "error"
    },
    {
      "inputs": [],
      "name": "NotAuthorized",
      "type": "error"
    },
    {
      "inputs": [],
      "name": "NotInitializing",
      "type": "error"
    },
    {
      "inputs": [
        {
          "internalType": "address",
          "name": "owner",
          "type": "address"
        }
      ],
      "name": "OwnableInvalidOwner",
      "type": "error"
    },
    {
      "inputs": [
        {
          "internalType": "address",
          "name": "account",
          "type": "address"
        }
      ],
      "name": "OwnableUnauthorizedAccount",
      "type": "error"
    },
    {
      "inputs": [],
      "name": "ReentrancyGuardReentrantCall",
      "type": "error"
    },
    {
      "inputs": [],
      "name": "TooEarly",
      "type": "error"
    },
    {
      "inputs": [],
      "name": "UUPSUnauthorizedCallContext",
      "type": "error"
    },
    {
      "inputs": [
        {
          "internalType": "bytes32",
          "name": "slot",
          "type": "bytes32"
        }
      ],
      "name": "UUPSUnsupportedProxiableUUID",
      "type": "error"
    },
    {
      "inputs": [],
      "name": "ZeroAddress",
      "type": "error"
    },
    {
      "anonymous": false,
      "inputs": [
        {
          "indexed": true,
          "internalType": "address",
          "name": "newAutomationRegistry",
          "type": "address"
        }
      ],
      "name": "AutomationRegistryUpdated",
      "type": "event"
    },
    {
      "anonymous": false,
      "inputs": [
        {
          "indexed": false,
          "internalType": "uint64",
          "name": "version",
          "type": "uint64"
        }
      ],
      "name": "Initialized",
      "type": "event"
    },
    {
      "anonymous": false,
      "inputs": [
        {
          "indexed": false,
          "internalType": "uint256",
          "name": "timestamp",
          "type": "uint256"
        }
      ],
      "name": "InternalStateProcessed",
      "type": "event"
    },
    {
      "anonymous": false,
      "inputs": [
        {
          "indexed": true,
          "internalType": "address",
          "name": "previousOwner",
          "type": "address"
        },
        {
          "indexed": true,
          "internalType": "address",
          "name": "newOwner",
          "type": "address"
        }
      ],
      "name": "OwnershipTransferStarted",
      "type": "event"
    },
    {
      "anonymous": false,
      "inputs": [
        {
          "indexed": true,
          "internalType": "address",
          "name": "previousOwner",
          "type": "address"
        },
        {
          "indexed": true,
          "internalType": "address",
          "name": "newOwner",
          "type": "address"
        }
      ],
      "name": "OwnershipTransferred",
      "type": "event"
    },
    {
      "anonymous": false,
      "inputs": [
        {
          "indexed": true,
          "internalType": "address",
          "name": "implementation",
          "type": "address"
        }
      ],
      "name": "Upgraded",
      "type": "event"
    },
    {
      "inputs": [],
      "name": "UPDATE_INTERVAL",
      "outputs": [
        {
          "internalType": "uint256",
          "name": "",
          "type": "uint256"
        }
      ],
      "stateMutability": "view",
      "type": "function"
    },
    {
      "inputs": [],
      "name": "UPGRADE_INTERFACE_VERSION",
      "outputs": [
        {
          "internalType": "string",
          "name": "",
          "type": "string"
        }
      ],
      "stateMutability": "view",
      "type": "function"
    },
    {
      "inputs": [],
      "name": "acceptOwnership",
      "outputs": [],
      "stateMutability": "nonpayable",
      "type": "function"
    },
    {
      "inputs": [],
      "name": "automationRegistry",
      "outputs": [
        {
          "internalType": "address",
          "name": "",
          "type": "address"
        }
      ],
      "stateMutability": "view",
      "type": "function"
    },
    {
      "inputs": [
        {
          "internalType": "bytes",
          "name": "",
          "type": "bytes"
        }
      ],
      "name": "checkUpkeep",
      "outputs": [
        {
          "internalType": "bool",
          "name": "upkeepNeeded",
          "type": "bool"
        },
        {
          "internalType": "bytes",
          "name": "performData",
          "type": "bytes"
        }
      ],
      "stateMutability": "view",
      "type": "function"
    },
    {
      "inputs": [],
      "name": "config",
      "outputs": [
        {
          "internalType": "contract IOrionConfig",
          "name": "",
          "type": "address"
        }
      ],
      "stateMutability": "view",
      "type": "function"
    },
    {
      "inputs": [
        {
          "internalType": "address",
          "name": "initialOwner",
          "type": "address"
        },
        {
          "internalType": "address",
          "name": "automationRegistry_",
          "type": "address"
        },
        {
          "internalType": "address",
          "name": "config_",
          "type": "address"
        }
      ],
      "name": "initialize",
      "outputs": [],
      "stateMutability": "nonpayable",
      "type": "function"
    },
    {
      "inputs": [],
      "name": "nextUpdateTime",
      "outputs": [
        {
          "internalType": "uint256",
          "name": "",
          "type": "uint256"
        }
      ],
      "stateMutability": "view",
      "type": "function"
    },
    {
      "inputs": [],
      "name": "owner",
      "outputs": [
        {
          "internalType": "address",
          "name": "",
          "type": "address"
        }
      ],
      "stateMutability": "view",
      "type": "function"
    },
    {
      "inputs": [],
      "name": "pendingOwner",
      "outputs": [
        {
          "internalType": "address",
          "name": "",
          "type": "address"
        }
      ],
      "stateMutability": "view",
      "type": "function"
    },
    {
      "inputs": [
        {
          "internalType": "bytes",
          "name": "",
          "type": "bytes"
        }
      ],
      "name": "performUpkeep",
      "outputs": [],
      "stateMutability": "nonpayable",
      "type": "function"
    },
    {
      "inputs": [
        {
          "internalType": "uint256",
          "name": "",
          "type": "uint256"
        }
      ],
      "name": "pnlArray",
      "outputs": [
        {
          "internalType": "uint256",
          "name": "pctChange",
          "type": "uint256"
        },
        {
          "internalType": "bool",
          "name": "isPositive",
          "type": "bool"
        }
      ],
      "stateMutability": "view",
      "type": "function"
    },
    {
      "inputs": [],
      "name": "proxiableUUID",
      "outputs": [
        {
          "internalType": "bytes32",
          "name": "",
          "type": "bytes32"
        }
      ],
      "stateMutability": "view",
      "type": "function"
    },
    {
      "inputs": [],
      "name": "renounceOwnership",
      "outputs": [],
      "stateMutability": "nonpayable",
      "type": "function"
    },
    {
      "inputs": [
        {
          "internalType": "address",
          "name": "newOwner",
          "type": "address"
        }
      ],
      "name": "transferOwnership",
      "outputs": [],
      "stateMutability": "nonpayable",
      "type": "function"
    },
    {
      "inputs": [
        {
          "internalType": "address",
          "name": "newAutomationRegistry",
          "type": "address"
        }
      ],
      "name": "updateAutomationRegistry",
      "outputs": [],
      "stateMutability": "nonpayable",
      "type": "function"
    },
    {
      "inputs": [
        {
          "internalType": "address",
          "name": "newConfig",
          "type": "address"
        }
      ],
      "name": "updateConfig",
      "outputs": [],
      "stateMutability": "nonpayable",
      "type": "function"
    },
    {
      "inputs": [
        {
          "internalType": "address",
          "name": "newImplementation",
          "type": "address"
        },
        {
          "internalType": "bytes",
          "name": "data",
          "type": "bytes"
        }
      ],
      "name": "upgradeToAndCall",
      "outputs": [],
      "stateMutability": "payable",
      "type": "function"
    }
  ],
  "bytecode": "0x60a0604052306080523480156012575f80fd5b50608051611ace6100395f395f8181610a3301528181610a5c0152610ba00152611ace5ff3fe608060405260043610610105575f3560e01c8063715018a6116100925780638da5cb5b116100625780638da5cb5b146102a9578063ad3cb1cc146102bd578063c0c53b8b146102fa578063e30c397814610319578063f2fde38b1461032d575f80fd5b8063715018a61461024e57806379502c551461026257806379ba50971461028157806389ac414714610295575f80fd5b806352d1902d116100d857806352d1902d146101835780635dc228a01461019757806364ca89cd146101ce5780636cc919c8146102025780636e04ff0d14610221575f80fd5b806314b5d07f1461010957806335238fb81461012a5780634585e33b146101515780634f1ef28614610170575b5f80fd5b348015610114575f80fd5b5061012861012336600461146b565b61034c565b005b348015610135575f80fd5b5061013e5f5481565b6040519081526020015b60405180910390f35b34801561015c575f80fd5b5061012861016b366004611486565b6103c4565b61012861017e366004611536565b61048c565b34801561018e575f80fd5b5061013e6104a7565b3480156101a2575f80fd5b506001546101b6906001600160a01b031681565b6040516001600160a01b039091168152602001610148565b3480156101d9575f80fd5b506101ed6101e83660046115db565b6104c2565b60408051928352901515602083015201610148565b34801561020d575f80fd5b5061012861021c36600461146b565b6104f1565b34801561022c575f80fd5b5061024061023b366004611486565b61051b565b604051610148929190611620565b348015610259575f80fd5b50610128610543565b34801561026d575f80fd5b506002546101b6906001600160a01b031681565b34801561028c575f80fd5b50610128610556565b3480156102a0575f80fd5b5061013e603c81565b3480156102b4575f80fd5b506101b66105a3565b3480156102c8575f80fd5b506102ed604051806040016040528060058152602001640352e302e360dc1b81525081565b6040516101489190611642565b348015610305575f80fd5b50610128610314366004611654565b6105d7565b348015610324575f80fd5b506101b661074a565b348015610338575f80fd5b5061012861034736600461146b565b610772565b6103546107f7565b6001600160a01b03811661037b5760405163d92e233d60e01b815260040160405180910390fd5b600180546001600160a01b0319166001600160a01b0383169081179091556040517f6cc7ebdb6c8c53291c5ae16148cab9b049d23bf5bde5632900b40edff56fcb43905f90a250565b6001546001600160a01b031633146103ef5760405163ea8e4eb560e01b815260040160405180910390fd5b6103f7610829565b5f544210156104195760405163085de62560e01b815260040160405180910390fd5b61042242610873565b5f5561042c610885565b6040514281527f9375d658f91055a030c54d5cf460d6f12968b10b80b0797c1aa5c02e4dca94039060200160405180910390a161048860017f9b779b17422d0df92223018b32b4d1fa46e071723d6817e2486d003becc55f0055565b5050565b610494610a28565b61049d82610acc565b6104888282610ad4565b5f6104b0610b95565b505f80516020611a7983398151915290565b600381815481106104d1575f80fd5b5f9182526020909120600290910201805460019091015490915060ff1682565b6104f96107f7565b600280546001600160a01b0319166001600160a01b0392909216919091179055565b5f60606105295f5442101590565b915060405180602001604052805f81525090509250929050565b61054b6107f7565b6105545f610bde565b565b338061056061074a565b6001600160a01b0316146105975760405163118cdaa760e01b81526001600160a01b03821660048201526024015b60405180910390fd5b6105a081610bde565b50565b5f807f9016d09d72d40fdae2fd8ceac6b6234c7706214fd39c1cd1e609a0528c1993005b546001600160a01b031692915050565b5f6105e0610c16565b805490915060ff600160401b82041615906001600160401b03165f811580156106065750825b90505f826001600160401b031660011480156106215750303b155b90508115801561062f575080155b1561064d5760405163f92ee8a960e01b815260040160405180910390fd5b845467ffffffffffffffff19166001178555831561067757845460ff60401b1916600160401b1785555b61067f610c3e565b610687610c3e565b61068f610c46565b61069888610bde565b6001600160a01b0387166106bf5760405163d92e233d60e01b815260040160405180910390fd5b600180546001600160a01b03808a166001600160a01b03199283161790925560028054928916929091169190911790556106f842610873565b5f55831561074057845460ff60401b19168555604051600181527fc7f505b2f371ae2175ee4913f4499e1f2633a7b5936321eed1cdaeb6115181d29060200160405180910390a15b5050505050505050565b5f807f237e158222e3e6968b72b9db0d8043aacf074ad9f650f0d1606b4d82ee432c006105c7565b61077a6107f7565b7f237e158222e3e6968b72b9db0d8043aacf074ad9f650f0d1606b4d82ee432c0080546001600160a01b0319166001600160a01b03831690811782556107be6105a3565b6001600160a01b03167f38d16b8cac22d99fc7c124b9cd0de2d3fa1faef420bfe791d8c362d765e2270060405160405180910390a35050565b336108006105a3565b6001600160a01b0316146105545760405163118cdaa760e01b815233600482015260240161058e565b7f9b779b17422d0df92223018b32b4d1fa46e071723d6817e2486d003becc55f0080546001190161086d57604051633ee5aeb560e01b815260040160405180910390fd5b60029055565b5f61087f603c836116b0565b92915050565b5f805f805f60025f9054906101000a90046001600160a01b03166001600160a01b031663309bfe4a6040518163ffffffff1660e01b81526004015f60405180830381865afa1580156108d9573d5f803e3d5ffd5b505050506040513d5f823e601f3d908101601f1916820160405261090091908101906117b3565b9450945094509450945060035f610917919061141a565b5f610920610c56565b90505f5b815181101561098457600382828151811061094157610941611891565b6020908102919091018101518254600180820185555f948552938390208251600290920201908155910151908201805460ff191691151591909117905501610924565b506109fa86868686866003805480602002602001604051908101604052809291908181526020015f905b828210156109f1575f84815260209081902060408051808201909152600285029091018054825260019081015460ff1615158284015290835290920191016109ae565b50505050610f5d565b505050505050565b60017f9b779b17422d0df92223018b32b4d1fa46e071723d6817e2486d003becc55f0055565b306001600160a01b037f0000000000000000000000000000000000000000000000000000000000000000161480610aae57507f00000000000000000000000000000000000000000000000000000000000000006001600160a01b0316610aa25f80516020611a79833981519152546001600160a01b031690565b6001600160a01b031614155b156105545760405163703e46dd60e11b815260040160405180910390fd5b6105a06107f7565b816001600160a01b03166352d1902d6040518163ffffffff1660e01b8152600401602060405180830381865afa925050508015610b2e575060408051601f3d908101601f19168201909252610b2b918101906118a5565b60015b610b5657604051634c9c8ce360e01b81526001600160a01b038316600482015260240161058e565b5f80516020611a798339815191528114610b8657604051632a87526960e21b81526004810182905260240161058e565b610b908383610fda565b505050565b306001600160a01b037f000000000000000000000000000000000000000000000000000000000000000016146105545760405163703e46dd60e11b815260040160405180910390fd5b7f237e158222e3e6968b72b9db0d8043aacf074ad9f650f0d1606b4d82ee432c0080546001600160a01b03191681556104888261102f565b5f807ff0c57e16840df040f15088dc2f81fe391c3923bec73e23a9662efc9c229c6a0061087f565b61055461109f565b610c4e61109f565b6105546110c4565b60605f60025f9054906101000a90046001600160a01b03166001600160a01b031663d86cd44e6040518163ffffffff1660e01b81526004015f60405180830381865afa158015610ca8573d5f803e3d5ffd5b505050506040513d5f823e601f3d908101601f19168201604052610ccf91908101906118bc565b90505f60025f9054906101000a90046001600160a01b03166001600160a01b0316634bb93ab16040518163ffffffff1660e01b8152600401602060405180830381865afa158015610d22573d5f803e3d5ffd5b505050506040513d601f19601f82011682018060405250810190610d4691906118ed565b90505f82516001600160401b03811115610d6257610d626114f2565b604051908082528060200260200182016040528015610d8b578160200160208202803683370190505b5090505f83516001600160401b03811115610da857610da86114f2565b604051908082528060200260200182016040528015610dd1578160200160208202803683370190505b5090505f5b8451811015610f4957836001600160a01b031663aea91078868381518110610e0057610e00611891565b60200260200101516040518263ffffffff1660e01b8152600401610e3391906001600160a01b0391909116815260200190565b602060405180830381865afa158015610e4e573d5f803e3d5ffd5b505050506040513d601f19601f82011682018060405250810190610e7291906118a5565b838281518110610e8457610e84611891565b602002602001018181525050836001600160a01b0316631c1b8772868381518110610eb157610eb1611891565b60200260200101516040518263ffffffff1660e01b8152600401610ee491906001600160a01b0391909116815260200190565b6020604051808303815f875af1158015610f00573d5f803e3d5ffd5b505050506040513d601f19601f82011682018060405250810190610f2491906118a5565b828281518110610f3657610f36611891565b6020908102919091010152600101610dd6565b50610f5482826110cc565b94505050505090565b5f5b8651811015610fd1575f6001600160a01b0316878281518110610f8457610f84611891565b60200260200101516001600160a01b031603610fb35760405163d92e233d60e01b815260040160405180910390fd5b5f878281518110610fc657610fc6611891565b505050600101610f5f565b50505050505050565b610fe382611285565b6040516001600160a01b038316907fbc7cd75a20ee27fd9adebab32041f755214dbc6bffa90cc0225b39da2e5c2d3b905f90a280511561102757610b9082826112e8565b61048861135a565b7f9016d09d72d40fdae2fd8ceac6b6234c7706214fd39c1cd1e609a0528c19930080546001600160a01b031981166001600160a01b03848116918217845560405192169182907f8be0079c531659141344cd1fd0a4f28419497f9722a3daafe3b4186f6b6457e0905f90a3505050565b6110a7611379565b61055457604051631afcd79f60e31b815260040160405180910390fd5b610a0261109f565b8151606090806001600160401b038111156110e9576110e96114f2565b60405190808252806020026020018201604052801561112d57816020015b604080518082019091525f80825260208201528152602001906001900390816111075790505b5091505f60025f9054906101000a90046001600160a01b03166001600160a01b031663b71ee4fc6040518163ffffffff1660e01b8152600401602060405180830381865afa158015611181573d5f803e3d5ffd5b505050506040513d601f19601f820116820180604052508101906111a59190611908565b90505f5b8281101561127c575f8682815181106111c4576111c4611891565b602002602001015190505f8683815181106111e1576111e1611891565b602002602001015190505f8282101590505f81611207576112028385611928565b611211565b6112118484611928565b90505f8461122088600a611a1e565b61122a9084611a2c565b6112349190611a43565b9050604051806040016040528082815260200184151581525089878151811061125f5761125f611891565b6020026020010181905250505050505080806001019150506111a9565b50505092915050565b806001600160a01b03163b5f036112ba57604051634c9c8ce360e01b81526001600160a01b038216600482015260240161058e565b5f80516020611a7983398151915280546001600160a01b0319166001600160a01b0392909216919091179055565b60605f80846001600160a01b0316846040516113049190611a62565b5f60405180830381855af49150503d805f811461133c576040519150601f19603f3d011682016040523d82523d5f602084013e611341565b606091505b5091509150611351858383611392565b95945050505050565b34156105545760405163b398979f60e01b815260040160405180910390fd5b5f611382610c16565b54600160401b900460ff16919050565b6060826113a7576113a2826113f1565b6113ea565b81511580156113be57506001600160a01b0384163b155b156113e757604051639996b31560e01b81526001600160a01b038516600482015260240161058e565b50805b9392505050565b8051156114015780518082602001fd5b60405163d6bda27560e01b815260040160405180910390fd5b5080545f8255600202905f5260205f20908101906105a091905b80821115611453575f815560018101805460ff19169055600201611434565b5090565b6001600160a01b03811681146105a0575f80fd5b5f6020828403121561147b575f80fd5b81356113ea81611457565b5f8060208385031215611497575f80fd5b82356001600160401b038111156114ac575f80fd5b8301601f810185136114bc575f80fd5b80356001600160401b038111156114d1575f80fd5b8560208284010111156114e2575f80fd5b6020919091019590945092505050565b634e487b7160e01b5f52604160045260245ffd5b604051601f8201601f191681016001600160401b038111828210171561152e5761152e6114f2565b604052919050565b5f8060408385031215611547575f80fd5b823561155281611457565b915060208301356001600160401b0381111561156c575f80fd5b8301601f8101851361157c575f80fd5b80356001600160401b03811115611595576115956114f2565b6115a8601f8201601f1916602001611506565b8181528660208385010111156115bc575f80fd5b816020840160208301375f602083830101528093505050509250929050565b5f602082840312156115eb575f80fd5b5035919050565b5f81518084528060208401602086015e5f602082860101526020601f19601f83011685010191505092915050565b8215158152604060208201525f61163a60408301846115f2565b949350505050565b602081525f6113ea60208301846115f2565b5f805f60608486031215611666575f80fd5b833561167181611457565b9250602084013561168181611457565b9150604084013561169181611457565b809150509250925092565b634e487b7160e01b5f52601160045260245ffd5b8082018082111561087f5761087f61169c565b5f6001600160401b038211156116db576116db6114f2565b5060051b60200190565b5f82601f8301126116f4575f80fd5b8151611707611702826116c3565b611506565b8082825260208201915060208360051b860101925085831115611728575f80fd5b602085015b8381101561174e57805161174081611457565b83526020928301920161172d565b5095945050505050565b5f82601f830112611767575f80fd5b8151611775611702826116c3565b8082825260208201915060208360051b860101925085831115611796575f80fd5b602085015b8381101561174e57805183526020928301920161179b565b5f805f805f60a086880312156117c7575f80fd5b85516001600160401b038111156117dc575f80fd5b6117e8888289016116e5565b95505060208601516001600160401b03811115611803575f80fd5b61180f88828901611758565b94505060408601516001600160401b0381111561182a575f80fd5b61183688828901611758565b93505060608601516001600160401b03811115611851575f80fd5b61185d88828901611758565b92505060808601516001600160401b03811115611878575f80fd5b61188488828901611758565b9150509295509295909350565b634e487b7160e01b5f52603260045260245ffd5b5f602082840312156118b5575f80fd5b5051919050565b5f602082840312156118cc575f80fd5b81516001600160401b038111156118e1575f80fd5b61163a848285016116e5565b5f602082840312156118fd575f80fd5b81516113ea81611457565b5f60208284031215611918575f80fd5b815160ff811681146113ea575f80fd5b8181038181111561087f5761087f61169c565b6001815b60018411156119765780850481111561195a5761195a61169c565b600184161561196857908102905b60019390931c92800261193f565b935093915050565b5f8261198c5750600161087f565b8161199857505f61087f565b81600181146119ae57600281146119b8576119d4565b600191505061087f565b60ff8411156119c9576119c961169c565b50506001821b61087f565b5060208310610133831016604e8410600b84101617156119f7575081810a61087f565b611a035f19848461193b565b805f1904821115611a1657611a1661169c565b029392505050565b5f6113ea60ff84168361197e565b808202811582820484141761087f5761087f61169c565b5f82611a5d57634e487b7160e01b5f52601260045260245ffd5b500490565b5f82518060208501845e5f92019182525091905056fe360894a13ba1a3210667c828492db98dca3e2076cc3735a920a3ca505d382bbca26469706673582212201a2960dce3167436fda40a7a40a916b266dc39d11ed3ec1c24ddedfe4380679a64736f6c634300081a0033",
  "linkReferences": {},
  "deployedLinkReferences": {}
}