{
  "_format": "hh-sol-artifact-1",
  "contractName": "InternalStatesOrchestrator",
  "sourceName": "contracts/InternalStatesOrchestrator.sol",
  "abi": [
    {
      "inputs": [
        {
          "internalType": "address",
          "name": "target",
          "type": "address"
        }
      ],
      "name": "AddressEmptyCode",
      "type": "error"
    },
    {
      "inputs": [
        {
          "internalType": "address",
          "name": "implementation",
          "type": "address"
        }
      ],
      "name": "ERC1967InvalidImplementation",
      "type": "error"
    },
    {
      "inputs": [],
      "name": "ERC1967NonPayable",
      "type": "error"
    },
    {
      "inputs": [],
      "name": "FailedCall",
      "type": "error"
    },
    {
      "inputs": [],
      "name": "InvalidInitialization",
      "type": "error"
    },
    {
      "inputs": [],
      "name": "NotInitializing",
      "type": "error"
    },
    {
      "inputs": [
        {
          "internalType": "address",
          "name": "owner",
          "type": "address"
        }
      ],
      "name": "OwnableInvalidOwner",
      "type": "error"
    },
    {
      "inputs": [
        {
          "internalType": "address",
          "name": "account",
          "type": "address"
        }
      ],
      "name": "OwnableUnauthorizedAccount",
      "type": "error"
    },
    {
      "inputs": [],
      "name": "UUPSUnauthorizedCallContext",
      "type": "error"
    },
    {
      "inputs": [
        {
          "internalType": "bytes32",
          "name": "slot",
          "type": "bytes32"
        }
      ],
      "name": "UUPSUnsupportedProxiableUUID",
      "type": "error"
    },
    {
      "anonymous": false,
      "inputs": [
        {
          "indexed": false,
          "internalType": "uint64",
          "name": "version",
          "type": "uint64"
        }
      ],
      "name": "Initialized",
      "type": "event"
    },
    {
      "anonymous": false,
      "inputs": [
        {
          "indexed": false,
          "internalType": "uint256",
          "name": "timestamp",
          "type": "uint256"
        }
      ],
      "name": "InternalStateProcessed",
      "type": "event"
    },
    {
      "anonymous": false,
      "inputs": [
        {
          "indexed": true,
          "internalType": "address",
          "name": "previousOwner",
          "type": "address"
        },
        {
          "indexed": true,
          "internalType": "address",
          "name": "newOwner",
          "type": "address"
        }
      ],
      "name": "OwnershipTransferStarted",
      "type": "event"
    },
    {
      "anonymous": false,
      "inputs": [
        {
          "indexed": true,
          "internalType": "address",
          "name": "previousOwner",
          "type": "address"
        },
        {
          "indexed": true,
          "internalType": "address",
          "name": "newOwner",
          "type": "address"
        }
      ],
      "name": "OwnershipTransferred",
      "type": "event"
    },
    {
      "anonymous": false,
      "inputs": [
        {
          "indexed": true,
          "internalType": "address",
          "name": "implementation",
          "type": "address"
        }
      ],
      "name": "Upgraded",
      "type": "event"
    },
    {
      "inputs": [],
      "name": "UPDATE_INTERVAL",
      "outputs": [
        {
          "internalType": "uint256",
          "name": "",
          "type": "uint256"
        }
      ],
      "stateMutability": "view",
      "type": "function"
    },
    {
      "inputs": [],
      "name": "UPGRADE_INTERFACE_VERSION",
      "outputs": [
        {
          "internalType": "string",
          "name": "",
          "type": "string"
        }
      ],
      "stateMutability": "view",
      "type": "function"
    },
    {
      "inputs": [],
      "name": "acceptOwnership",
      "outputs": [],
      "stateMutability": "nonpayable",
      "type": "function"
    },
    {
      "inputs": [
        {
          "internalType": "bytes",
          "name": "",
          "type": "bytes"
        }
      ],
      "name": "checkUpkeep",
      "outputs": [
        {
          "internalType": "bool",
          "name": "upkeepNeeded",
          "type": "bool"
        },
        {
          "internalType": "bytes",
          "name": "performData",
          "type": "bytes"
        }
      ],
      "stateMutability": "view",
      "type": "function"
    },
    {
      "inputs": [],
      "name": "config",
      "outputs": [
        {
          "internalType": "contract IOrionConfig",
          "name": "",
          "type": "address"
        }
      ],
      "stateMutability": "view",
      "type": "function"
    },
    {
      "inputs": [
        {
          "internalType": "address",
          "name": "initialOwner",
          "type": "address"
        },
        {
          "internalType": "address",
          "name": "_registry",
          "type": "address"
        },
        {
          "internalType": "address",
          "name": "_config",
          "type": "address"
        }
      ],
      "name": "initialize",
      "outputs": [],
      "stateMutability": "nonpayable",
      "type": "function"
    },
    {
      "inputs": [],
      "name": "nextUpdateTime",
      "outputs": [
        {
          "internalType": "uint256",
          "name": "",
          "type": "uint256"
        }
      ],
      "stateMutability": "view",
      "type": "function"
    },
    {
      "inputs": [],
      "name": "owner",
      "outputs": [
        {
          "internalType": "address",
          "name": "",
          "type": "address"
        }
      ],
      "stateMutability": "view",
      "type": "function"
    },
    {
      "inputs": [],
      "name": "pendingOwner",
      "outputs": [
        {
          "internalType": "address",
          "name": "",
          "type": "address"
        }
      ],
      "stateMutability": "view",
      "type": "function"
    },
    {
      "inputs": [
        {
          "internalType": "bytes",
          "name": "",
          "type": "bytes"
        }
      ],
      "name": "performUpkeep",
      "outputs": [],
      "stateMutability": "nonpayable",
      "type": "function"
    },
    {
      "inputs": [],
      "name": "proxiableUUID",
      "outputs": [
        {
          "internalType": "bytes32",
          "name": "",
          "type": "bytes32"
        }
      ],
      "stateMutability": "view",
      "type": "function"
    },
    {
      "inputs": [],
      "name": "registry",
      "outputs": [
        {
          "internalType": "address",
          "name": "",
          "type": "address"
        }
      ],
      "stateMutability": "view",
      "type": "function"
    },
    {
      "inputs": [],
      "name": "renounceOwnership",
      "outputs": [],
      "stateMutability": "nonpayable",
      "type": "function"
    },
    {
      "inputs": [
        {
          "internalType": "address",
          "name": "newOwner",
          "type": "address"
        }
      ],
      "name": "transferOwnership",
      "outputs": [],
      "stateMutability": "nonpayable",
      "type": "function"
    },
    {
      "inputs": [
        {
          "internalType": "address",
          "name": "_newConfig",
          "type": "address"
        }
      ],
      "name": "updateConfig",
      "outputs": [],
      "stateMutability": "nonpayable",
      "type": "function"
    },
    {
      "inputs": [
        {
          "internalType": "address",
          "name": "_newRegistry",
          "type": "address"
        }
      ],
      "name": "updateRegistry",
      "outputs": [],
      "stateMutability": "nonpayable",
      "type": "function"
    },
    {
      "inputs": [
        {
          "internalType": "address",
          "name": "newImplementation",
          "type": "address"
        },
        {
          "internalType": "bytes",
          "name": "data",
          "type": "bytes"
        }
      ],
      "name": "upgradeToAndCall",
      "outputs": [],
      "stateMutability": "payable",
      "type": "function"
    }
  ],
  "bytecode": "0x60a0604052306080523480156012575f80fd5b506080516112736100395f395f8181610a0c01528181610a350152610b7901526112735ff3fe6080604052600436106100fa575f3560e01c806379502c55116100925780638da5cb5b116100625780638da5cb5b1461026a578063ad3cb1cc1461027e578063c0c53b8b146102bb578063e30c3978146102da578063f2fde38b146102ee575f80fd5b806379502c55146101ec57806379ba5097146102235780637b1039991461023757806389ac414714610256575f80fd5b806352d1902d116100cd57806352d1902d146101785780636cc919c81461018c5780636e04ff0d146101ab578063715018a6146101d8575f80fd5b80631a5da6c8146100fe57806335238fb81461011f5780634585e33b146101465780634f1ef28614610165575b5f80fd5b348015610109575f80fd5b5061011d610118366004610eb2565b61030d565b005b34801561012a575f80fd5b506101335f5481565b6040519081526020015b60405180910390f35b348015610151575f80fd5b5061011d610160366004610ecd565b610337565b61011d610173366004610f80565b6106af565b348015610183575f80fd5b506101336106ce565b348015610197575f80fd5b5061011d6101a6366004610eb2565b6106e9565b3480156101b6575f80fd5b506101ca6101c5366004610ecd565b610713565b60405161013d929190611055565b3480156101e3575f80fd5b5061011d61073b565b3480156101f7575f80fd5b5060025461020b906001600160a01b031681565b6040516001600160a01b03909116815260200161013d565b34801561022e575f80fd5b5061011d61074e565b348015610242575f80fd5b5060015461020b906001600160a01b031681565b348015610261575f80fd5b50610133603c81565b348015610275575f80fd5b5061020b610796565b348015610289575f80fd5b506102ae604051806040016040528060058152602001640352e302e360dc1b81525081565b60405161013d9190611077565b3480156102c6575f80fd5b5061011d6102d5366004611089565b6107ca565b3480156102e5575f80fd5b5061020b610910565b3480156102f9575f80fd5b5061011d610308366004610eb2565b610938565b6103156109bd565b600180546001600160a01b0319166001600160a01b0392909216919091179055565b6001546001600160a01b0316331461038f5760405162461bcd60e51b81526020600482015260166024820152754e6f7420436861696e6c696e6b20526567697374727960501b60448201526064015b60405180910390fd5b5f544210156103cc5760405162461bcd60e51b8152602060048201526009602482015268546f6f206561726c7960b81b6044820152606401610386565b60025460408051630c12c2a560e31b815290515f926001600160a01b03169163609615289160048083019260209291908290030181865afa158015610413573d5f803e3d5ffd5b505050506040513d601f19601f8201168201806040525081019061043791906110d1565b90505f80826001600160a01b031663bd9a548b6040518163ffffffff1660e01b81526004015f60405180830381865afa158015610476573d5f803e3d5ffd5b505050506040513d5f823e601f3d908101601f1916820160405261049d919081019061116c565b915091505f60025f9054906101000a90046001600160a01b03166001600160a01b031663aa360c166040518163ffffffff1660e01b8152600401602060405180830381865afa1580156104f2573d5f803e3d5ffd5b505050506040513d601f19601f8201168201806040525081019061051691906111d1565b90505f5b81811015610668576002546040516301d03cab60e21b8152600481018390525f916001600160a01b031690630740f2ac90602401602060405180830381865afa158015610569573d5f803e3d5ffd5b505050506040513d601f19601f8201168201806040525081019061058d91906110d1565b90505f8190505f816001600160a01b031663872697296040518163ffffffff1660e01b8152600401602060405180830381865afa1580156105d0573d5f803e3d5ffd5b505050506040513d601f19601f820116820180604052508101906105f491906111d1565b90505f826001600160a01b03166301e1d1146040518163ffffffff1660e01b8152600401602060405180830381865afa158015610633573d5f803e3d5ffd5b505050506040513d601f19601f8201168201806040525081019061065791906111d1565b50506001909301925061051a915050565b506040514281527f9375d658f91055a030c54d5cf460d6f12968b10b80b0797c1aa5c02e4dca94039060200160405180910390a16106a5426109ef565b5f55505050505050565b6106b7610a01565b6106c082610aa5565b6106ca8282610aad565b5050565b5f6106d7610b6e565b505f8051602061121e83398151915290565b6106f16109bd565b600280546001600160a01b0319166001600160a01b0392909216919091179055565b5f60606107215f5442101590565b915060405180602001604052805f81525090509250929050565b6107436109bd565b61074c5f610bb7565b565b3380610758610910565b6001600160a01b03161461078a5760405163118cdaa760e01b81526001600160a01b0382166004820152602401610386565b61079381610bb7565b50565b5f807f9016d09d72d40fdae2fd8ceac6b6234c7706214fd39c1cd1e609a0528c1993005b546001600160a01b031692915050565b5f6107d3610bef565b805490915060ff600160401b820416159067ffffffffffffffff165f811580156107fa5750825b90505f8267ffffffffffffffff1660011480156108165750303b155b905081158015610824575080155b156108425760405163f92ee8a960e01b815260040160405180910390fd5b845467ffffffffffffffff19166001178555831561086c57845460ff60401b1916600160401b1785555b610874610c17565b61087c610c17565b61088588610bb7565b600180546001600160a01b03808a166001600160a01b03199283161790925560028054928916929091169190911790556108be426109ef565b5f55831561090657845460ff60401b19168555604051600181527fc7f505b2f371ae2175ee4913f4499e1f2633a7b5936321eed1cdaeb6115181d29060200160405180910390a15b5050505050505050565b5f807f237e158222e3e6968b72b9db0d8043aacf074ad9f650f0d1606b4d82ee432c006107ba565b6109406109bd565b7f237e158222e3e6968b72b9db0d8043aacf074ad9f650f0d1606b4d82ee432c0080546001600160a01b0319166001600160a01b0383169081178255610984610796565b6001600160a01b03167f38d16b8cac22d99fc7c124b9cd0de2d3fa1faef420bfe791d8c362d765e2270060405160405180910390a35050565b336109c6610796565b6001600160a01b03161461074c5760405163118cdaa760e01b8152336004820152602401610386565b5f6109fb603c836111e8565b92915050565b306001600160a01b037f0000000000000000000000000000000000000000000000000000000000000000161480610a8757507f00000000000000000000000000000000000000000000000000000000000000006001600160a01b0316610a7b5f8051602061121e833981519152546001600160a01b031690565b6001600160a01b031614155b1561074c5760405163703e46dd60e11b815260040160405180910390fd5b6107936109bd565b816001600160a01b03166352d1902d6040518163ffffffff1660e01b8152600401602060405180830381865afa925050508015610b07575060408051601f3d908101601f19168201909252610b04918101906111d1565b60015b610b2f57604051634c9c8ce360e01b81526001600160a01b0383166004820152602401610386565b5f8051602061121e8339815191528114610b5f57604051632a87526960e21b815260048101829052602401610386565b610b698383610c1f565b505050565b306001600160a01b037f0000000000000000000000000000000000000000000000000000000000000000161461074c5760405163703e46dd60e11b815260040160405180910390fd5b7f237e158222e3e6968b72b9db0d8043aacf074ad9f650f0d1606b4d82ee432c0080546001600160a01b03191681556106ca82610c74565b5f807ff0c57e16840df040f15088dc2f81fe391c3923bec73e23a9662efc9c229c6a006109fb565b61074c610ce4565b610c2882610d09565b6040516001600160a01b038316907fbc7cd75a20ee27fd9adebab32041f755214dbc6bffa90cc0225b39da2e5c2d3b905f90a2805115610c6c57610b698282610d6c565b6106ca610dde565b7f9016d09d72d40fdae2fd8ceac6b6234c7706214fd39c1cd1e609a0528c19930080546001600160a01b031981166001600160a01b03848116918217845560405192169182907f8be0079c531659141344cd1fd0a4f28419497f9722a3daafe3b4186f6b6457e0905f90a3505050565b610cec610dfd565b61074c57604051631afcd79f60e31b815260040160405180910390fd5b806001600160a01b03163b5f03610d3e57604051634c9c8ce360e01b81526001600160a01b0382166004820152602401610386565b5f8051602061121e83398151915280546001600160a01b0319166001600160a01b0392909216919091179055565b60605f80846001600160a01b031684604051610d889190611207565b5f60405180830381855af49150503d805f8114610dc0576040519150601f19603f3d011682016040523d82523d5f602084013e610dc5565b606091505b5091509150610dd5858383610e16565b95945050505050565b341561074c5760405163b398979f60e01b815260040160405180910390fd5b5f610e06610bef565b54600160401b900460ff16919050565b606082610e2b57610e2682610e75565b610e6e565b8151158015610e4257506001600160a01b0384163b155b15610e6b57604051639996b31560e01b81526001600160a01b0385166004820152602401610386565b50805b9392505050565b805115610e855780518082602001fd5b60405163d6bda27560e01b815260040160405180910390fd5b6001600160a01b0381168114610793575f80fd5b5f60208284031215610ec2575f80fd5b8135610e6e81610e9e565b5f8060208385031215610ede575f80fd5b823567ffffffffffffffff811115610ef4575f80fd5b8301601f81018513610f04575f80fd5b803567ffffffffffffffff811115610f1a575f80fd5b856020828401011115610f2b575f80fd5b6020919091019590945092505050565b634e487b7160e01b5f52604160045260245ffd5b604051601f8201601f1916810167ffffffffffffffff81118282101715610f7857610f78610f3b565b604052919050565b5f8060408385031215610f91575f80fd5b8235610f9c81610e9e565b9150602083013567ffffffffffffffff811115610fb7575f80fd5b8301601f81018513610fc7575f80fd5b803567ffffffffffffffff811115610fe157610fe1610f3b565b610ff4601f8201601f1916602001610f4f565b818152866020838501011115611008575f80fd5b816020840160208301375f602083830101528093505050509250929050565b5f81518084528060208401602086015e5f602082860101526020601f19601f83011685010191505092915050565b8215158152604060208201525f61106f6040830184611027565b949350505050565b602081525f610e6e6020830184611027565b5f805f6060848603121561109b575f80fd5b83356110a681610e9e565b925060208401356110b681610e9e565b915060408401356110c681610e9e565b809150509250925092565b5f602082840312156110e1575f80fd5b8151610e6e81610e9e565b5f82601f8301126110fb575f80fd5b815167ffffffffffffffff81111561111557611115610f3b565b8060051b61112560208201610f4f565b91825260208185018101929081019086841115611140575f80fd5b6020860192505b83831015611162578251825260209283019290910190611147565b9695505050505050565b5f806040838503121561117d575f80fd5b825167ffffffffffffffff811115611193575f80fd5b61119f858286016110ec565b925050602083015167ffffffffffffffff8111156111bb575f80fd5b6111c7858286016110ec565b9150509250929050565b5f602082840312156111e1575f80fd5b5051919050565b808201808211156109fb57634e487b7160e01b5f52601160045260245ffd5b5f82518060208501845e5f92019182525091905056fe360894a13ba1a3210667c828492db98dca3e2076cc3735a920a3ca505d382bbca264697066735822122023b88e8faad3c3d07778ab66f7c944aa1b5ea058bcef805fecbb593576b0ae4464736f6c634300081a0033",
  "linkReferences": {},
  "deployedLinkReferences": {}
}