{
  "_format": "hh-sol-artifact-1",
  "contractName": "InternalStatesOrchestrator",
  "sourceName": "contracts/InternalStatesOrchestrator.sol",
  "abi": [
    {
      "inputs": [
        {
          "internalType": "address",
          "name": "target",
          "type": "address"
        }
      ],
      "name": "AddressEmptyCode",
      "type": "error"
    },
    {
      "inputs": [
        {
          "internalType": "address",
          "name": "implementation",
          "type": "address"
        }
      ],
      "name": "ERC1967InvalidImplementation",
      "type": "error"
    },
    {
      "inputs": [],
      "name": "ERC1967NonPayable",
      "type": "error"
    },
    {
      "inputs": [],
      "name": "FailedCall",
      "type": "error"
    },
    {
      "inputs": [],
      "name": "InvalidInitialization",
      "type": "error"
    },
    {
      "inputs": [],
      "name": "NotAuthorized",
      "type": "error"
    },
    {
      "inputs": [],
      "name": "NotInitializing",
      "type": "error"
    },
    {
      "inputs": [
        {
          "internalType": "address",
          "name": "owner",
          "type": "address"
        }
      ],
      "name": "OwnableInvalidOwner",
      "type": "error"
    },
    {
      "inputs": [
        {
          "internalType": "address",
          "name": "account",
          "type": "address"
        }
      ],
      "name": "OwnableUnauthorizedAccount",
      "type": "error"
    },
    {
      "inputs": [],
      "name": "ReentrancyGuardReentrantCall",
      "type": "error"
    },
    {
      "inputs": [],
      "name": "TooEarly",
      "type": "error"
    },
    {
      "inputs": [],
      "name": "UUPSUnauthorizedCallContext",
      "type": "error"
    },
    {
      "inputs": [
        {
          "internalType": "bytes32",
          "name": "slot",
          "type": "bytes32"
        }
      ],
      "name": "UUPSUnsupportedProxiableUUID",
      "type": "error"
    },
    {
      "inputs": [],
      "name": "ZeroAddress",
      "type": "error"
    },
    {
      "anonymous": false,
      "inputs": [
        {
          "indexed": true,
          "internalType": "address",
          "name": "newAutomationRegistry",
          "type": "address"
        }
      ],
      "name": "AutomationRegistryUpdated",
      "type": "event"
    },
    {
      "anonymous": false,
      "inputs": [
        {
          "indexed": false,
          "internalType": "uint64",
          "name": "version",
          "type": "uint64"
        }
      ],
      "name": "Initialized",
      "type": "event"
    },
    {
      "anonymous": false,
      "inputs": [
        {
          "indexed": false,
          "internalType": "uint256",
          "name": "timestamp",
          "type": "uint256"
        }
      ],
      "name": "InternalStateProcessed",
      "type": "event"
    },
    {
      "anonymous": false,
      "inputs": [
        {
          "indexed": true,
          "internalType": "address",
          "name": "previousOwner",
          "type": "address"
        },
        {
          "indexed": true,
          "internalType": "address",
          "name": "newOwner",
          "type": "address"
        }
      ],
      "name": "OwnershipTransferStarted",
      "type": "event"
    },
    {
      "anonymous": false,
      "inputs": [
        {
          "indexed": true,
          "internalType": "address",
          "name": "previousOwner",
          "type": "address"
        },
        {
          "indexed": true,
          "internalType": "address",
          "name": "newOwner",
          "type": "address"
        }
      ],
      "name": "OwnershipTransferred",
      "type": "event"
    },
    {
      "anonymous": false,
      "inputs": [
        {
          "indexed": true,
          "internalType": "address",
          "name": "implementation",
          "type": "address"
        }
      ],
      "name": "Upgraded",
      "type": "event"
    },
    {
      "inputs": [],
      "name": "UPDATE_INTERVAL",
      "outputs": [
        {
          "internalType": "uint256",
          "name": "",
          "type": "uint256"
        }
      ],
      "stateMutability": "view",
      "type": "function"
    },
    {
      "inputs": [],
      "name": "UPGRADE_INTERFACE_VERSION",
      "outputs": [
        {
          "internalType": "string",
          "name": "",
          "type": "string"
        }
      ],
      "stateMutability": "view",
      "type": "function"
    },
    {
      "inputs": [],
      "name": "acceptOwnership",
      "outputs": [],
      "stateMutability": "nonpayable",
      "type": "function"
    },
    {
      "inputs": [],
      "name": "automationRegistry",
      "outputs": [
        {
          "internalType": "address",
          "name": "",
          "type": "address"
        }
      ],
      "stateMutability": "view",
      "type": "function"
    },
    {
      "inputs": [
        {
          "internalType": "bytes",
          "name": "",
          "type": "bytes"
        }
      ],
      "name": "checkUpkeep",
      "outputs": [
        {
          "internalType": "bool",
          "name": "upkeepNeeded",
          "type": "bool"
        },
        {
          "internalType": "bytes",
          "name": "performData",
          "type": "bytes"
        }
      ],
      "stateMutability": "view",
      "type": "function"
    },
    {
      "inputs": [],
      "name": "config",
      "outputs": [
        {
          "internalType": "contract IOrionConfig",
          "name": "",
          "type": "address"
        }
      ],
      "stateMutability": "view",
      "type": "function"
    },
    {
      "inputs": [
        {
          "internalType": "address",
          "name": "initialOwner",
          "type": "address"
        },
        {
          "internalType": "address",
          "name": "_automationRegistry",
          "type": "address"
        },
        {
          "internalType": "address",
          "name": "_config",
          "type": "address"
        }
      ],
      "name": "initialize",
      "outputs": [],
      "stateMutability": "nonpayable",
      "type": "function"
    },
    {
      "inputs": [],
      "name": "nextUpdateTime",
      "outputs": [
        {
          "internalType": "uint256",
          "name": "",
          "type": "uint256"
        }
      ],
      "stateMutability": "view",
      "type": "function"
    },
    {
      "inputs": [],
      "name": "owner",
      "outputs": [
        {
          "internalType": "address",
          "name": "",
          "type": "address"
        }
      ],
      "stateMutability": "view",
      "type": "function"
    },
    {
      "inputs": [],
      "name": "pendingOwner",
      "outputs": [
        {
          "internalType": "address",
          "name": "",
          "type": "address"
        }
      ],
      "stateMutability": "view",
      "type": "function"
    },
    {
      "inputs": [
        {
          "internalType": "bytes",
          "name": "",
          "type": "bytes"
        }
      ],
      "name": "performUpkeep",
      "outputs": [],
      "stateMutability": "nonpayable",
      "type": "function"
    },
    {
      "inputs": [],
      "name": "proxiableUUID",
      "outputs": [
        {
          "internalType": "bytes32",
          "name": "",
          "type": "bytes32"
        }
      ],
      "stateMutability": "view",
      "type": "function"
    },
    {
      "inputs": [],
      "name": "renounceOwnership",
      "outputs": [],
      "stateMutability": "nonpayable",
      "type": "function"
    },
    {
      "inputs": [
        {
          "internalType": "address",
          "name": "newOwner",
          "type": "address"
        }
      ],
      "name": "transferOwnership",
      "outputs": [],
      "stateMutability": "nonpayable",
      "type": "function"
    },
    {
      "inputs": [
        {
          "internalType": "address",
          "name": "_newAutomationRegistry",
          "type": "address"
        }
      ],
      "name": "updateAutomationRegistry",
      "outputs": [],
      "stateMutability": "nonpayable",
      "type": "function"
    },
    {
      "inputs": [
        {
          "internalType": "address",
          "name": "_newConfig",
          "type": "address"
        }
      ],
      "name": "updateConfig",
      "outputs": [],
      "stateMutability": "nonpayable",
      "type": "function"
    },
    {
      "inputs": [
        {
          "internalType": "address",
          "name": "newImplementation",
          "type": "address"
        },
        {
          "internalType": "bytes",
          "name": "data",
          "type": "bytes"
        }
      ],
      "name": "upgradeToAndCall",
      "outputs": [],
      "stateMutability": "payable",
      "type": "function"
    }
  ],
  "bytecode": "0x60a06040523073ffffffffffffffffffffffffffffffffffffffff1660809073ffffffffffffffffffffffffffffffffffffffff168152503480156041575f80fd5b50608051612ea26100685f395f8181611ad801528181611b2d0152611d230152612ea25ff3fe6080604052600436106100fd575f3560e01c8063715018a6116100945780638da5cb5b116100635780638da5cb5b146102d0578063ad3cb1cc146102fa578063c0c53b8b14610324578063e30c39781461034c578063f2fde38b14610376576100fd565b8063715018a61461025057806379502c551461026657806379ba50971461029057806389ac4147146102a6576100fd565b806352d1902d116100d057806352d1902d146101975780635dc228a0146101c15780636cc919c8146101eb5780636e04ff0d14610213576100fd565b806314b5d07f1461010157806335238fb8146101295780634585e33b146101535780634f1ef2861461017b575b5f80fd5b34801561010c575f80fd5b50610127600480360381019061012291906123a0565b61039e565b005b348015610134575f80fd5b5061013d610559565b60405161014a91906123e3565b60405180910390f35b34801561015e575f80fd5b506101796004803603810190610174919061245d565b61055e565b005b610195600480360381019061019091906125e0565b61103f565b005b3480156101a2575f80fd5b506101ab61105e565b6040516101b89190612652565b60405180910390f35b3480156101cc575f80fd5b506101d561108f565b6040516101e2919061267a565b60405180910390f35b3480156101f6575f80fd5b50610211600480360381019061020c91906123a0565b6110b4565b005b34801561021e575f80fd5b506102396004803603810190610234919061245d565b61114f565b60405161024792919061270d565b60405180910390f35b34801561025b575f80fd5b506102646111d7565b005b348015610271575f80fd5b5061027a6111ea565b6040516102879190612796565b60405180910390f35b34801561029b575f80fd5b506102a461120f565b005b3480156102b1575f80fd5b506102ba61129d565b6040516102c791906123e3565b60405180910390f35b3480156102db575f80fd5b506102e46112a2565b6040516102f1919061267a565b60405180910390f35b348015610305575f80fd5b5061030e6112d7565b60405161031b9190612801565b60405180910390f35b34801561032f575f80fd5b5061034a60048036038101906103459190612821565b611310565b005b348015610357575f80fd5b50610360611706565b60405161036d919061267a565b60405180910390f35b348015610381575f80fd5b5061039c600480360381019061039791906123a0565b61173b565b005b6103b267dd1bfe26457adbe060c01b6117f4565b6103ba6117f7565b6103ce674b31d59e3f6b6ba460c01b6117f4565b6103e2679db62dddca31fc3060c01b6117f4565b6103f667a1ff098dbfe86abc60c01b6117f4565b61040a678dbb4226c2fe948460c01b6117f4565b5f73ffffffffffffffffffffffffffffffffffffffff168173ffffffffffffffffffffffffffffffffffffffff1603610483576104516770a0186d8d6ddc2760c01b6117f4565b6040517fd92e233d00000000000000000000000000000000000000000000000000000000815260040160405180910390fd5b61049767915be00e876de29b60c01b6117f4565b6104ab6708fb69c962e90c9660c01b6117f4565b8060015f6101000a81548173ffffffffffffffffffffffffffffffffffffffff021916908373ffffffffffffffffffffffffffffffffffffffff1602179055506104ff677faebb6b18e2857c60c01b6117f4565b61051367047cdea1e499885960c01b6117f4565b8073ffffffffffffffffffffffffffffffffffffffff167f6cc7ebdb6c8c53291c5ae16148cab9b049d23bf5bde5632900b40edff56fcb4360405160405180910390a250565b5f5481565b6105726726844b530bd21b4260c01b6117f4565b610586679057d018a3dab03d60c01b6117f4565b61059a675759d016aabb5a1960c01b6117f4565b6105ae67895281db2a6573d160c01b6117f4565b60015f9054906101000a900473ffffffffffffffffffffffffffffffffffffffff1673ffffffffffffffffffffffffffffffffffffffff163373ffffffffffffffffffffffffffffffffffffffff16146106485761061667af7efcd025c9ec2c60c01b6117f4565b6040517fea8e4eb500000000000000000000000000000000000000000000000000000000815260040160405180910390fd5b61065c67d24fbf2838eb4f3d60c01b6117f4565b61067067b7350e9463603b4560c01b6117f4565b6106846751b02fea8fbd94fc60c01b6117f4565b6106986708e066ba40a04af660c01b6117f4565b6106a061187e565b6106b46707ca9b976ccdd77260c01b6117f4565b6106c8679d92a442cb213d8660c01b6117f4565b6106dc678c3bc6744e109ee960c01b6117f4565b6106f067db7829c9e9d6841860c01b6117f4565b6106f86118d2565b6107425761071067081fd80b27b3ee3560c01b6117f4565b6040517f085de62500000000000000000000000000000000000000000000000000000000815260040160405180910390fd5b6107566741d8901ccaf3d3aa60c01b6117f4565b61076a67e3d06d030180a11560c01b6117f4565b61077e67fdb98999d6d1f77960c01b6117f4565b5f60025f9054906101000a900473ffffffffffffffffffffffffffffffffffffffff1673ffffffffffffffffffffffffffffffffffffffff16634bb93ab16040518163ffffffff1660e01b8152600401602060405180830381865afa1580156107e9573d5f803e3d5ffd5b505050506040513d601f19601f8201168201806040525081019061080d9190612885565b9050610823679a4cd7886cefcf9660c01b6117f4565b61083767fbc7b7f51814167e60c01b6117f4565b5f60025f9054906101000a900473ffffffffffffffffffffffffffffffffffffffff1673ffffffffffffffffffffffffffffffffffffffff1663d86cd44e6040518163ffffffff1660e01b81526004015f60405180830381865afa1580156108a1573d5f803e3d5ffd5b505050506040513d5f823e3d601f19601f820116820180604052508101906108c99190612970565b90506108df675aa68d358d61b64c60c01b6117f4565b6108f367bd29d946af261c8860c01b6117f4565b5f815167ffffffffffffffff81111561090f5761090e6124bc565b5b60405190808252806020026020018201604052801561093d5781602001602082028036833780820191505090505b50905061095467def962dec003cd2660c01b6117f4565b61096867aa2adb05b819356960c01b6117f4565b5f825167ffffffffffffffff811115610984576109836124bc565b5b6040519080825280602002602001820160405280156109b25781602001602082028036833780820191505090505b5090506109c9677765d5c43a87fb5c60c01b6117f4565b6109dd67e280440f723c32ee60c01b6117f4565b5f5b8351811015610b80576109fc670f723dda82f2abfc60c01b6117f4565b8473ffffffffffffffffffffffffffffffffffffffff1663aea91078858381518110610a2b57610a2a6129b7565b5b60200260200101516040518263ffffffff1660e01b8152600401610a4f919061267a565b602060405180830381865afa158015610a6a573d5f803e3d5ffd5b505050506040513d601f19601f82011682018060405250810190610a8e9190612a0e565b838281518110610aa157610aa06129b7565b5b602002602001018181525050610ac167086d2de5ca0a99cf60c01b6117f4565b8473ffffffffffffffffffffffffffffffffffffffff16631c1b8772858381518110610af057610aef6129b7565b5b60200260200101516040518263ffffffff1660e01b8152600401610b14919061267a565b6020604051808303815f875af1158015610b30573d5f803e3d5ffd5b505050506040513d601f19601f82011682018060405250810190610b549190612a0e565b828281518110610b6757610b666129b7565b5b60200260200101818152505080806001019150506109df565b50610b95674af56dc9e24db4e060c01b6117f4565b610ba9676819efdc7e88b05c60c01b6117f4565b5f610bb48383611919565b9050610bca6713cade073748f14360c01b6117f4565b610bde67dcabf27fd5ee7d1060c01b6117f4565b5f805f805f60025f9054906101000a900473ffffffffffffffffffffffffffffffffffffffff1673ffffffffffffffffffffffffffffffffffffffff1663309bfe4a6040518163ffffffff1660e01b81526004015f60405180830381865afa158015610c4c573d5f803e3d5ffd5b505050506040513d5f823e3d601f19601f82011682018060405250810190610c749190612af9565b94509450945094509450610c92676769c75d321707e660c01b6117f4565b610c9b42611a6e565b5f81905550610cb467d9a02c122f4bdcf960c01b6117f4565b610cc867dbe3a1c4bb196f0460c01b6117f4565b5f5b8551811015610fc957610ce767d2d510bc5a87583660c01b6117f4565b610cfb677728413a21a4202260c01b6117f4565b5f73ffffffffffffffffffffffffffffffffffffffff16868281518110610d2557610d246129b7565b5b602002602001015173ffffffffffffffffffffffffffffffffffffffff1603610d8e57610d5c67d99722bec7f430a560c01b6117f4565b6040517fd92e233d00000000000000000000000000000000000000000000000000000000815260040160405180910390fd5b610da267c05ff679ef0404e360c01b6117f4565b610db6676d7d5b38a21582a760c01b6117f4565b610dca6790d833d5533bf4f760c01b6117f4565b5f868281518110610dde57610ddd6129b7565b5b60200260200101519050610dfc67dc804a407c9819fa60c01b6117f4565b610e106707f4df0f77cfc2b160c01b6117f4565b5f888381518110610e2457610e236129b7565b5b60200260200101519050610e4267b6c37d9b5384fc7060c01b6117f4565b610e5667e08f3381908693cf60c01b6117f4565b5f81858581518110610e6b57610e6a6129b7565b5b6020026020010151878681518110610e8657610e856129b7565b5b6020026020010151898781518110610ea157610ea06129b7565b5b6020026020010151610eb39190612c29565b610ebd9190612c5c565b610ec79190612c29565b9050610edd6748a2447dca30655e60c01b6117f4565b610ef167f2ded55b6345505260c01b6117f4565b5f826001610eff9190612c29565b898681518110610f1257610f116129b7565b5b6020026020010151610f249190612c8f565b9050610f3a670b0e344bf569089660c01b6117f4565b610f4e67df82a89ea081ff3b60c01b6117f4565b8373ffffffffffffffffffffffffffffffffffffffff1663c38fe2f28284866040518463ffffffff1660e01b8152600401610f8b93929190612cd0565b5f604051808303815f87803b158015610fa2575f80fd5b505af1158015610fb4573d5f803e3d5ffd5b50505050505050508080600101915050610cca565b50610fde67ba9154dd95672d0e60c01b6117f4565b610ff267b24b119d866b1a2c60c01b6117f4565b7f9375d658f91055a030c54d5cf460d6f12968b10b80b0797c1aa5c02e4dca94034260405161102191906123e3565b60405180910390a15050505050505050505061103b611abf565b5050565b611047611ad6565b61105082611bbc565b61105a8282611c03565b5050565b5f611067611d21565b7f360894a13ba1a3210667c828492db98dca3e2076cc3735a920a3ca505d382bbc5f1b905090565b60015f9054906101000a900473ffffffffffffffffffffffffffffffffffffffff1681565b6110c867217650570536746c60c01b6117f4565b6110d06117f7565b6110e46781970466af3f66dc60c01b6117f4565b6110f86710bd170d6aaaae8c60c01b6117f4565b61110c674a85b4de276bb72d60c01b6117f4565b8060025f6101000a81548173ffffffffffffffffffffffffffffffffffffffff021916908373ffffffffffffffffffffffffffffffffffffffff16021790555050565b5f60606111656617936da0e8ecfa60c01b6117f4565b6111796795cc6cb07653791f60c01b6117f4565b6111816118d2565b915061119767b1e12b73760bcf4460c01b6117f4565b60405180602001604052805f81525090506111bc671295628fb16c83f360c01b6117f4565b6111d06715e4397250ebb14560c01b6117f4565b9250929050565b6111df6117f7565b6111e85f611da8565b565b60025f9054906101000a900473ffffffffffffffffffffffffffffffffffffffff1681565b5f611218611de5565b90508073ffffffffffffffffffffffffffffffffffffffff16611239611706565b73ffffffffffffffffffffffffffffffffffffffff161461129157806040517f118cdaa7000000000000000000000000000000000000000000000000000000008152600401611288919061267a565b60405180910390fd5b61129a81611da8565b50565b603c81565b5f806112ac611dec565b9050805f015f9054906101000a900473ffffffffffffffffffffffffffffffffffffffff1691505090565b6040518060400160405280600581526020017f352e302e3000000000000000000000000000000000000000000000000000000081525081565b611324673dbc56fe22db192660c01b6117f4565b5f61132d611e13565b90505f815f0160089054906101000a900460ff161590505f825f015f9054906101000a900467ffffffffffffffff1690505f808267ffffffffffffffff161480156113755750825b90505f60018367ffffffffffffffff161480156113a857505f3073ffffffffffffffffffffffffffffffffffffffff163b145b9050811580156113b6575080155b156113ed576040517ff92ee8a900000000000000000000000000000000000000000000000000000000815260040160405180910390fd5b6001855f015f6101000a81548167ffffffffffffffff021916908367ffffffffffffffff160217905550831561143a576001855f0160086101000a81548160ff0219169083151502179055505b61144e674ddbf1304361b15a60c01b6117f4565b61146267f2a56faff13d3fd660c01b6117f4565b611476671259072af055de4260c01b6117f4565b61148a67871b8827993d8b7060c01b6117f4565b611492611e26565b6114a667cf275f2ed6d9e80160c01b6117f4565b6114ba67dc9dde060d6ff6a460c01b6117f4565b6114c2611e30565b6114d66789212ee8ab101b8f60c01b6117f4565b6114ea67e7b19afefcfd736060c01b6117f4565b6114f2611e3a565b61150667d773d140b726180860c01b6117f4565b61151a676064816b2647c6d760c01b6117f4565b61152388611da8565b61153767d7779ae6922ebb3e60c01b6117f4565b61154b67d24819443120441360c01b6117f4565b5f73ffffffffffffffffffffffffffffffffffffffff168773ffffffffffffffffffffffffffffffffffffffff16036115c45761159267835f73a4676992f660c01b6117f4565b6040517fd92e233d00000000000000000000000000000000000000000000000000000000815260040160405180910390fd5b6115d8677526e6438fd396ef60c01b6117f4565b6115ec674de895f4f8045f3f60c01b6117f4565b8660015f6101000a81548173ffffffffffffffffffffffffffffffffffffffff021916908373ffffffffffffffffffffffffffffffffffffffff16021790555061164067f00dcda32621b1f960c01b6117f4565b8560025f6101000a81548173ffffffffffffffffffffffffffffffffffffffff021916908373ffffffffffffffffffffffffffffffffffffffff160217905550611694676eeffda047d7397260c01b6117f4565b61169d42611a6e565b5f8190555083156116fc575f855f0160086101000a81548160ff0219169083151502179055507fc7f505b2f371ae2175ee4913f4499e1f2633a7b5936321eed1cdaeb6115181d260016040516116f39190612d51565b60405180910390a15b5050505050505050565b5f80611710611e4c565b9050805f015f9054906101000a900473ffffffffffffffffffffffffffffffffffffffff1691505090565b6117436117f7565b5f61174c611e4c565b905081815f015f6101000a81548173ffffffffffffffffffffffffffffffffffffffff021916908373ffffffffffffffffffffffffffffffffffffffff1602179055508173ffffffffffffffffffffffffffffffffffffffff166117ae6112a2565b73ffffffffffffffffffffffffffffffffffffffff167f38d16b8cac22d99fc7c124b9cd0de2d3fa1faef420bfe791d8c362d765e2270060405160405180910390a35050565b50565b6117ff611de5565b73ffffffffffffffffffffffffffffffffffffffff1661181d6112a2565b73ffffffffffffffffffffffffffffffffffffffff161461187c57611840611de5565b6040517f118cdaa7000000000000000000000000000000000000000000000000000000008152600401611873919061267a565b60405180910390fd5b565b5f611887611e73565b90506002815f0154036118c6576040517f3ee5aeb500000000000000000000000000000000000000000000000000000000815260040160405180910390fd5b6002815f018190555050565b5f6118e76769d2f16db64505a060c01b6117f4565b6118fb673fdbb348e3b3f84b60c01b6117f4565b61190f6735742392237fd88b60c01b6117f4565b5f54421015905090565b606061192f67cc7453318b45db1260c01b6117f4565b611943672fc24ef2ded7daa860c01b6117f4565b825167ffffffffffffffff81111561195e5761195d6124bc565b5b60405190808252806020026020018201604052801561198c5781602001602082028036833780820191505090505b5090506119a367937b759b53725c7160c01b6117f4565b6119b7672b56144bbbd2a5fc60c01b6117f4565b5f5b8351811015611a67576119d66798f2bf763b0c202660c01b6117f4565b8381815181106119e9576119e86129b7565b5b6020026020010151848281518110611a0457611a036129b7565b5b6020026020010151848381518110611a1f57611a1e6129b7565b5b6020026020010151611a319190612c5c565b611a3b9190612d97565b828281518110611a4e57611a4d6129b7565b5b60200260200101818152505080806001019150506119b9565b5092915050565b5f611a8367d78c3a8ec117cc5760c01b6117f4565b611a976735cc056cc8673f7b60c01b6117f4565b611aab678ef193a2e16d031e60c01b6117f4565b603c82611ab89190612c29565b9050919050565b5f611ac8611e73565b90506001815f018190555050565b7f000000000000000000000000000000000000000000000000000000000000000073ffffffffffffffffffffffffffffffffffffffff163073ffffffffffffffffffffffffffffffffffffffff161480611b8357507f000000000000000000000000000000000000000000000000000000000000000073ffffffffffffffffffffffffffffffffffffffff16611b6a611e9a565b73ffffffffffffffffffffffffffffffffffffffff1614155b15611bba576040517fe07c8dba00000000000000000000000000000000000000000000000000000000815260040160405180910390fd5b565b611bd067284e051ad4914fc960c01b6117f4565b611bd86117f7565b611bec6748eb560ba09fe2e460c01b6117f4565b611c00678082677fea65033a60c01b6117f4565b50565b8173ffffffffffffffffffffffffffffffffffffffff166352d1902d6040518163ffffffff1660e01b8152600401602060405180830381865afa925050508015611c6b57506040513d601f19601f82011682018060405250810190611c689190612df1565b60015b611cac57816040517f4c9c8ce3000000000000000000000000000000000000000000000000000000008152600401611ca3919061267a565b60405180910390fd5b7f360894a13ba1a3210667c828492db98dca3e2076cc3735a920a3ca505d382bbc5f1b8114611d1257806040517faa1d49a4000000000000000000000000000000000000000000000000000000008152600401611d099190612652565b60405180910390fd5b611d1c8383611eed565b505050565b7f000000000000000000000000000000000000000000000000000000000000000073ffffffffffffffffffffffffffffffffffffffff163073ffffffffffffffffffffffffffffffffffffffff1614611da6576040517fe07c8dba00000000000000000000000000000000000000000000000000000000815260040160405180910390fd5b565b5f611db1611e4c565b9050805f015f6101000a81549073ffffffffffffffffffffffffffffffffffffffff0219169055611de182611f5f565b5050565b5f33905090565b5f7f9016d09d72d40fdae2fd8ceac6b6234c7706214fd39c1cd1e609a0528c199300905090565b5f80611e1d612030565b90508091505090565b611e2e612059565b565b611e38612059565b565b611e42612059565b611e4a612099565b565b5f7f237e158222e3e6968b72b9db0d8043aacf074ad9f650f0d1606b4d82ee432c00905090565b5f7f9b779b17422d0df92223018b32b4d1fa46e071723d6817e2486d003becc55f00905090565b5f611ec67f360894a13ba1a3210667c828492db98dca3e2076cc3735a920a3ca505d382bbc5f1b6120b8565b5f015f9054906101000a900473ffffffffffffffffffffffffffffffffffffffff16905090565b611ef6826120c1565b8173ffffffffffffffffffffffffffffffffffffffff167fbc7cd75a20ee27fd9adebab32041f755214dbc6bffa90cc0225b39da2e5c2d3b60405160405180910390a25f81511115611f5257611f4c828261218a565b50611f5b565b611f5a61220a565b5b5050565b5f611f68611dec565b90505f815f015f9054906101000a900473ffffffffffffffffffffffffffffffffffffffff16905082825f015f6101000a81548173ffffffffffffffffffffffffffffffffffffffff021916908373ffffffffffffffffffffffffffffffffffffffff1602179055508273ffffffffffffffffffffffffffffffffffffffff168173ffffffffffffffffffffffffffffffffffffffff167f8be0079c531659141344cd1fd0a4f28419497f9722a3daafe3b4186f6b6457e060405160405180910390a3505050565b5f7ff0c57e16840df040f15088dc2f81fe391c3923bec73e23a9662efc9c229c6a005f1b905090565b612061612246565b612097576040517fd7e6bcf800000000000000000000000000000000000000000000000000000000815260040160405180910390fd5b565b6120a1612059565b5f6120aa611e73565b90506001815f018190555050565b5f819050919050565b5f8173ffffffffffffffffffffffffffffffffffffffff163b0361211c57806040517f4c9c8ce3000000000000000000000000000000000000000000000000000000008152600401612113919061267a565b60405180910390fd5b806121487f360894a13ba1a3210667c828492db98dca3e2076cc3735a920a3ca505d382bbc5f1b6120b8565b5f015f6101000a81548173ffffffffffffffffffffffffffffffffffffffff021916908373ffffffffffffffffffffffffffffffffffffffff16021790555050565b60605f808473ffffffffffffffffffffffffffffffffffffffff16846040516121b39190612e56565b5f60405180830381855af49150503d805f81146121eb576040519150601f19603f3d011682016040523d82523d5f602084013e6121f0565b606091505b5091509150612200858383612264565b9250505092915050565b5f341115612244576040517fb398979f00000000000000000000000000000000000000000000000000000000815260040160405180910390fd5b565b5f61224f611e13565b5f0160089054906101000a900460ff16905090565b60608261227957612274826122f1565b6122e9565b5f825114801561229f57505f8473ffffffffffffffffffffffffffffffffffffffff163b145b156122e157836040517f9996b3150000000000000000000000000000000000000000000000000000000081526004016122d8919061267a565b60405180910390fd5b8190506122ea565b5b9392505050565b5f815111156123035780518082602001fd5b6040517fd6bda27500000000000000000000000000000000000000000000000000000000815260040160405180910390fd5b5f604051905090565b5f80fd5b5f80fd5b5f73ffffffffffffffffffffffffffffffffffffffff82169050919050565b5f61236f82612346565b9050919050565b61237f81612365565b8114612389575f80fd5b50565b5f8135905061239a81612376565b92915050565b5f602082840312156123b5576123b461233e565b5b5f6123c28482850161238c565b91505092915050565b5f819050919050565b6123dd816123cb565b82525050565b5f6020820190506123f65f8301846123d4565b92915050565b5f80fd5b5f80fd5b5f80fd5b5f8083601f84011261241d5761241c6123fc565b5b8235905067ffffffffffffffff81111561243a57612439612400565b5b60208301915083600182028301111561245657612455612404565b5b9250929050565b5f80602083850312156124735761247261233e565b5b5f83013567ffffffffffffffff8111156124905761248f612342565b5b61249c85828601612408565b92509250509250929050565b5f80fd5b5f601f19601f8301169050919050565b7f4e487b71000000000000000000000000000000000000000000000000000000005f52604160045260245ffd5b6124f2826124ac565b810181811067ffffffffffffffff82111715612511576125106124bc565b5b80604052505050565b5f612523612335565b905061252f82826124e9565b919050565b5f67ffffffffffffffff82111561254e5761254d6124bc565b5b612557826124ac565b9050602081019050919050565b828183375f83830152505050565b5f61258461257f84612534565b61251a565b9050828152602081018484840111156125a05761259f6124a8565b5b6125ab848285612564565b509392505050565b5f82601f8301126125c7576125c66123fc565b5b81356125d7848260208601612572565b91505092915050565b5f80604083850312156125f6576125f561233e565b5b5f6126038582860161238c565b925050602083013567ffffffffffffffff81111561262457612623612342565b5b612630858286016125b3565b9150509250929050565b5f819050919050565b61264c8161263a565b82525050565b5f6020820190506126655f830184612643565b92915050565b61267481612365565b82525050565b5f60208201905061268d5f83018461266b565b92915050565b5f8115159050919050565b6126a781612693565b82525050565b5f81519050919050565b5f82825260208201905092915050565b8281835e5f83830152505050565b5f6126df826126ad565b6126e981856126b7565b93506126f98185602086016126c7565b612702816124ac565b840191505092915050565b5f6040820190506127205f83018561269e565b818103602083015261273281846126d5565b90509392505050565b5f819050919050565b5f61275e61275961275484612346565b61273b565b612346565b9050919050565b5f61276f82612744565b9050919050565b5f61278082612765565b9050919050565b61279081612776565b82525050565b5f6020820190506127a95f830184612787565b92915050565b5f81519050919050565b5f82825260208201905092915050565b5f6127d3826127af565b6127dd81856127b9565b93506127ed8185602086016126c7565b6127f6816124ac565b840191505092915050565b5f6020820190508181035f83015261281981846127c9565b905092915050565b5f805f606084860312156128385761283761233e565b5b5f6128458682870161238c565b93505060206128568682870161238c565b92505060406128678682870161238c565b9150509250925092565b5f8151905061287f81612376565b92915050565b5f6020828403121561289a5761289961233e565b5b5f6128a784828501612871565b91505092915050565b5f67ffffffffffffffff8211156128ca576128c96124bc565b5b602082029050602081019050919050565b5f6128ed6128e8846128b0565b61251a565b905080838252602082019050602084028301858111156129105761290f612404565b5b835b8181101561293957806129258882612871565b845260208401935050602081019050612912565b5050509392505050565b5f82601f830112612957576129566123fc565b5b81516129678482602086016128db565b91505092915050565b5f602082840312156129855761298461233e565b5b5f82015167ffffffffffffffff8111156129a2576129a1612342565b5b6129ae84828501612943565b91505092915050565b7f4e487b71000000000000000000000000000000000000000000000000000000005f52603260045260245ffd5b6129ed816123cb565b81146129f7575f80fd5b50565b5f81519050612a08816129e4565b92915050565b5f60208284031215612a2357612a2261233e565b5b5f612a30848285016129fa565b91505092915050565b5f67ffffffffffffffff821115612a5357612a526124bc565b5b602082029050602081019050919050565b5f612a76612a7184612a39565b61251a565b90508083825260208201905060208402830185811115612a9957612a98612404565b5b835b81811015612ac25780612aae88826129fa565b845260208401935050602081019050612a9b565b5050509392505050565b5f82601f830112612ae057612adf6123fc565b5b8151612af0848260208601612a64565b91505092915050565b5f805f805f60a08688031215612b1257612b1161233e565b5b5f86015167ffffffffffffffff811115612b2f57612b2e612342565b5b612b3b88828901612943565b955050602086015167ffffffffffffffff811115612b5c57612b5b612342565b5b612b6888828901612acc565b945050604086015167ffffffffffffffff811115612b8957612b88612342565b5b612b9588828901612acc565b935050606086015167ffffffffffffffff811115612bb657612bb5612342565b5b612bc288828901612acc565b925050608086015167ffffffffffffffff811115612be357612be2612342565b5b612bef88828901612acc565b9150509295509295909350565b7f4e487b71000000000000000000000000000000000000000000000000000000005f52601160045260245ffd5b5f612c33826123cb565b9150612c3e836123cb565b9250828201905080821115612c5657612c55612bfc565b5b92915050565b5f612c66826123cb565b9150612c71836123cb565b9250828203905081811115612c8957612c88612bfc565b5b92915050565b5f612c99826123cb565b9150612ca4836123cb565b9250828202612cb2816123cb565b91508282048414831517612cc957612cc8612bfc565b5b5092915050565b5f606082019050612ce35f8301866123d4565b612cf060208301856123d4565b612cfd60408301846123d4565b949350505050565b5f819050919050565b5f67ffffffffffffffff82169050919050565b5f612d3b612d36612d3184612d05565b61273b565b612d0e565b9050919050565b612d4b81612d21565b82525050565b5f602082019050612d645f830184612d42565b92915050565b7f4e487b71000000000000000000000000000000000000000000000000000000005f52601260045260245ffd5b5f612da1826123cb565b9150612dac836123cb565b925082612dbc57612dbb612d6a565b5b828204905092915050565b612dd08161263a565b8114612dda575f80fd5b50565b5f81519050612deb81612dc7565b92915050565b5f60208284031215612e0657612e0561233e565b5b5f612e1384828501612ddd565b91505092915050565b5f81905092915050565b5f612e30826126ad565b612e3a8185612e1c565b9350612e4a8185602086016126c7565b80840191505092915050565b5f612e618284612e26565b91508190509291505056fea26469706673582212209bd67b520c5cb4de0932bc06bf03212faa47385e181654ef7736ac578b66c0c464736f6c634300081a0033",
  "linkReferences": {},
  "deployedLinkReferences": {}
}