{
  "_format": "hh-sol-artifact-1",
  "contractName": "MockERC4626Asset",
  "sourceName": "contracts/mocks/MockERC4626Asset.sol",
  "abi": [
    {
      "inputs": [
        {
          "internalType": "contract ERC20",
          "name": "_underlyingAsset",
          "type": "address"
        },
        {
          "internalType": "string",
          "name": "_name",
          "type": "string"
        },
        {
          "internalType": "string",
          "name": "_symbol",
          "type": "string"
        },
        {
          "internalType": "uint8",
          "name": "_shareDecimals",
          "type": "uint8"
        }
      ],
      "stateMutability": "nonpayable",
      "type": "constructor"
    },
    {
      "inputs": [
        {
          "internalType": "address",
          "name": "spender",
          "type": "address"
        },
        {
          "internalType": "uint256",
          "name": "allowance",
          "type": "uint256"
        },
        {
          "internalType": "uint256",
          "name": "needed",
          "type": "uint256"
        }
      ],
      "name": "ERC20InsufficientAllowance",
      "type": "error"
    },
    {
      "inputs": [
        {
          "internalType": "address",
          "name": "sender",
          "type": "address"
        },
        {
          "internalType": "uint256",
          "name": "balance",
          "type": "uint256"
        },
        {
          "internalType": "uint256",
          "name": "needed",
          "type": "uint256"
        }
      ],
      "name": "ERC20InsufficientBalance",
      "type": "error"
    },
    {
      "inputs": [
        {
          "internalType": "address",
          "name": "approver",
          "type": "address"
        }
      ],
      "name": "ERC20InvalidApprover",
      "type": "error"
    },
    {
      "inputs": [
        {
          "internalType": "address",
          "name": "receiver",
          "type": "address"
        }
      ],
      "name": "ERC20InvalidReceiver",
      "type": "error"
    },
    {
      "inputs": [
        {
          "internalType": "address",
          "name": "sender",
          "type": "address"
        }
      ],
      "name": "ERC20InvalidSender",
      "type": "error"
    },
    {
      "inputs": [
        {
          "internalType": "address",
          "name": "spender",
          "type": "address"
        }
      ],
      "name": "ERC20InvalidSpender",
      "type": "error"
    },
    {
      "inputs": [
        {
          "internalType": "address",
          "name": "receiver",
          "type": "address"
        },
        {
          "internalType": "uint256",
          "name": "assets",
          "type": "uint256"
        },
        {
          "internalType": "uint256",
          "name": "max",
          "type": "uint256"
        }
      ],
      "name": "ERC4626ExceededMaxDeposit",
      "type": "error"
    },
    {
      "inputs": [
        {
          "internalType": "address",
          "name": "receiver",
          "type": "address"
        },
        {
          "internalType": "uint256",
          "name": "shares",
          "type": "uint256"
        },
        {
          "internalType": "uint256",
          "name": "max",
          "type": "uint256"
        }
      ],
      "name": "ERC4626ExceededMaxMint",
      "type": "error"
    },
    {
      "inputs": [
        {
          "internalType": "address",
          "name": "owner",
          "type": "address"
        },
        {
          "internalType": "uint256",
          "name": "shares",
          "type": "uint256"
        },
        {
          "internalType": "uint256",
          "name": "max",
          "type": "uint256"
        }
      ],
      "name": "ERC4626ExceededMaxRedeem",
      "type": "error"
    },
    {
      "inputs": [
        {
          "internalType": "address",
          "name": "owner",
          "type": "address"
        },
        {
          "internalType": "uint256",
          "name": "assets",
          "type": "uint256"
        },
        {
          "internalType": "uint256",
          "name": "max",
          "type": "uint256"
        }
      ],
      "name": "ERC4626ExceededMaxWithdraw",
      "type": "error"
    },
    {
      "inputs": [
        {
          "internalType": "address",
          "name": "token",
          "type": "address"
        }
      ],
      "name": "SafeERC20FailedOperation",
      "type": "error"
    },
    {
      "anonymous": false,
      "inputs": [
        {
          "indexed": true,
          "internalType": "address",
          "name": "owner",
          "type": "address"
        },
        {
          "indexed": true,
          "internalType": "address",
          "name": "spender",
          "type": "address"
        },
        {
          "indexed": false,
          "internalType": "uint256",
          "name": "value",
          "type": "uint256"
        }
      ],
      "name": "Approval",
      "type": "event"
    },
    {
      "anonymous": false,
      "inputs": [
        {
          "indexed": true,
          "internalType": "address",
          "name": "sender",
          "type": "address"
        },
        {
          "indexed": true,
          "internalType": "address",
          "name": "owner",
          "type": "address"
        },
        {
          "indexed": false,
          "internalType": "uint256",
          "name": "assets",
          "type": "uint256"
        },
        {
          "indexed": false,
          "internalType": "uint256",
          "name": "shares",
          "type": "uint256"
        }
      ],
      "name": "Deposit",
      "type": "event"
    },
    {
      "anonymous": false,
      "inputs": [
        {
          "indexed": true,
          "internalType": "address",
          "name": "from",
          "type": "address"
        },
        {
          "indexed": true,
          "internalType": "address",
          "name": "to",
          "type": "address"
        },
        {
          "indexed": false,
          "internalType": "uint256",
          "name": "value",
          "type": "uint256"
        }
      ],
      "name": "Transfer",
      "type": "event"
    },
    {
      "anonymous": false,
      "inputs": [
        {
          "indexed": true,
          "internalType": "address",
          "name": "sender",
          "type": "address"
        },
        {
          "indexed": true,
          "internalType": "address",
          "name": "receiver",
          "type": "address"
        },
        {
          "indexed": true,
          "internalType": "address",
          "name": "owner",
          "type": "address"
        },
        {
          "indexed": false,
          "internalType": "uint256",
          "name": "assets",
          "type": "uint256"
        },
        {
          "indexed": false,
          "internalType": "uint256",
          "name": "shares",
          "type": "uint256"
        }
      ],
      "name": "Withdraw",
      "type": "event"
    },
    {
      "inputs": [
        {
          "internalType": "address",
          "name": "owner",
          "type": "address"
        },
        {
          "internalType": "address",
          "name": "spender",
          "type": "address"
        }
      ],
      "name": "allowance",
      "outputs": [
        {
          "internalType": "uint256",
          "name": "",
          "type": "uint256"
        }
      ],
      "stateMutability": "view",
      "type": "function"
    },
    {
      "inputs": [
        {
          "internalType": "address",
          "name": "spender",
          "type": "address"
        },
        {
          "internalType": "uint256",
          "name": "value",
          "type": "uint256"
        }
      ],
      "name": "approve",
      "outputs": [
        {
          "internalType": "bool",
          "name": "",
          "type": "bool"
        }
      ],
      "stateMutability": "nonpayable",
      "type": "function"
    },
    {
      "inputs": [],
      "name": "asset",
      "outputs": [
        {
          "internalType": "address",
          "name": "",
          "type": "address"
        }
      ],
      "stateMutability": "view",
      "type": "function"
    },
    {
      "inputs": [
        {
          "internalType": "address",
          "name": "account",
          "type": "address"
        }
      ],
      "name": "balanceOf",
      "outputs": [
        {
          "internalType": "uint256",
          "name": "",
          "type": "uint256"
        }
      ],
      "stateMutability": "view",
      "type": "function"
    },
    {
      "inputs": [
        {
          "internalType": "uint256",
          "name": "shares",
          "type": "uint256"
        }
      ],
      "name": "convertToAssets",
      "outputs": [
        {
          "internalType": "uint256",
          "name": "",
          "type": "uint256"
        }
      ],
      "stateMutability": "view",
      "type": "function"
    },
    {
      "inputs": [
        {
          "internalType": "uint256",
          "name": "assets",
          "type": "uint256"
        }
      ],
      "name": "convertToShares",
      "outputs": [
        {
          "internalType": "uint256",
          "name": "",
          "type": "uint256"
        }
      ],
      "stateMutability": "view",
      "type": "function"
    },
    {
      "inputs": [],
      "name": "decimals",
      "outputs": [
        {
          "internalType": "uint8",
          "name": "",
          "type": "uint8"
        }
      ],
      "stateMutability": "view",
      "type": "function"
    },
    {
      "inputs": [
        {
          "internalType": "uint256",
          "name": "assets",
          "type": "uint256"
        },
        {
          "internalType": "address",
          "name": "receiver",
          "type": "address"
        }
      ],
      "name": "deposit",
      "outputs": [
        {
          "internalType": "uint256",
          "name": "",
          "type": "uint256"
        }
      ],
      "stateMutability": "nonpayable",
      "type": "function"
    },
    {
      "inputs": [
        {
          "internalType": "address",
          "name": "",
          "type": "address"
        }
      ],
      "name": "maxDeposit",
      "outputs": [
        {
          "internalType": "uint256",
          "name": "",
          "type": "uint256"
        }
      ],
      "stateMutability": "view",
      "type": "function"
    },
    {
      "inputs": [
        {
          "internalType": "address",
          "name": "",
          "type": "address"
        }
      ],
      "name": "maxMint",
      "outputs": [
        {
          "internalType": "uint256",
          "name": "",
          "type": "uint256"
        }
      ],
      "stateMutability": "view",
      "type": "function"
    },
    {
      "inputs": [
        {
          "internalType": "address",
          "name": "owner",
          "type": "address"
        }
      ],
      "name": "maxRedeem",
      "outputs": [
        {
          "internalType": "uint256",
          "name": "",
          "type": "uint256"
        }
      ],
      "stateMutability": "view",
      "type": "function"
    },
    {
      "inputs": [
        {
          "internalType": "address",
          "name": "owner",
          "type": "address"
        }
      ],
      "name": "maxWithdraw",
      "outputs": [
        {
          "internalType": "uint256",
          "name": "",
          "type": "uint256"
        }
      ],
      "stateMutability": "view",
      "type": "function"
    },
    {
      "inputs": [
        {
          "internalType": "uint256",
          "name": "shares",
          "type": "uint256"
        },
        {
          "internalType": "address",
          "name": "receiver",
          "type": "address"
        }
      ],
      "name": "mint",
      "outputs": [
        {
          "internalType": "uint256",
          "name": "",
          "type": "uint256"
        }
      ],
      "stateMutability": "nonpayable",
      "type": "function"
    },
    {
      "inputs": [],
      "name": "name",
      "outputs": [
        {
          "internalType": "string",
          "name": "",
          "type": "string"
        }
      ],
      "stateMutability": "view",
      "type": "function"
    },
    {
      "inputs": [
        {
          "internalType": "uint256",
          "name": "assets",
          "type": "uint256"
        }
      ],
      "name": "previewDeposit",
      "outputs": [
        {
          "internalType": "uint256",
          "name": "",
          "type": "uint256"
        }
      ],
      "stateMutability": "view",
      "type": "function"
    },
    {
      "inputs": [
        {
          "internalType": "uint256",
          "name": "shares",
          "type": "uint256"
        }
      ],
      "name": "previewMint",
      "outputs": [
        {
          "internalType": "uint256",
          "name": "",
          "type": "uint256"
        }
      ],
      "stateMutability": "view",
      "type": "function"
    },
    {
      "inputs": [
        {
          "internalType": "uint256",
          "name": "shares",
          "type": "uint256"
        }
      ],
      "name": "previewRedeem",
      "outputs": [
        {
          "internalType": "uint256",
          "name": "",
          "type": "uint256"
        }
      ],
      "stateMutability": "view",
      "type": "function"
    },
    {
      "inputs": [
        {
          "internalType": "uint256",
          "name": "assets",
          "type": "uint256"
        }
      ],
      "name": "previewWithdraw",
      "outputs": [
        {
          "internalType": "uint256",
          "name": "",
          "type": "uint256"
        }
      ],
      "stateMutability": "view",
      "type": "function"
    },
    {
      "inputs": [
        {
          "internalType": "uint256",
          "name": "shares",
          "type": "uint256"
        },
        {
          "internalType": "address",
          "name": "receiver",
          "type": "address"
        },
        {
          "internalType": "address",
          "name": "owner",
          "type": "address"
        }
      ],
      "name": "redeem",
      "outputs": [
        {
          "internalType": "uint256",
          "name": "",
          "type": "uint256"
        }
      ],
      "stateMutability": "nonpayable",
      "type": "function"
    },
    {
      "inputs": [],
      "name": "symbol",
      "outputs": [
        {
          "internalType": "string",
          "name": "",
          "type": "string"
        }
      ],
      "stateMutability": "view",
      "type": "function"
    },
    {
      "inputs": [],
      "name": "totalAssets",
      "outputs": [
        {
          "internalType": "uint256",
          "name": "",
          "type": "uint256"
        }
      ],
      "stateMutability": "view",
      "type": "function"
    },
    {
      "inputs": [],
      "name": "totalSupply",
      "outputs": [
        {
          "internalType": "uint256",
          "name": "",
          "type": "uint256"
        }
      ],
      "stateMutability": "view",
      "type": "function"
    },
    {
      "inputs": [
        {
          "internalType": "address",
          "name": "to",
          "type": "address"
        },
        {
          "internalType": "uint256",
          "name": "value",
          "type": "uint256"
        }
      ],
      "name": "transfer",
      "outputs": [
        {
          "internalType": "bool",
          "name": "",
          "type": "bool"
        }
      ],
      "stateMutability": "nonpayable",
      "type": "function"
    },
    {
      "inputs": [
        {
          "internalType": "address",
          "name": "from",
          "type": "address"
        },
        {
          "internalType": "address",
          "name": "to",
          "type": "address"
        },
        {
          "internalType": "uint256",
          "name": "value",
          "type": "uint256"
        }
      ],
      "name": "transferFrom",
      "outputs": [
        {
          "internalType": "bool",
          "name": "",
          "type": "bool"
        }
      ],
      "stateMutability": "nonpayable",
      "type": "function"
    },
    {
      "inputs": [
        {
          "internalType": "uint256",
          "name": "assets",
          "type": "uint256"
        },
        {
          "internalType": "address",
          "name": "receiver",
          "type": "address"
        },
        {
          "internalType": "address",
          "name": "owner",
          "type": "address"
        }
      ],
      "name": "withdraw",
      "outputs": [
        {
          "internalType": "uint256",
          "name": "",
          "type": "uint256"
        }
      ],
      "stateMutability": "nonpayable",
      "type": "function"
    }
  ],
  "bytecode": "0x60c060405234801561000f575f5ffd5b506040516114e83803806114e883398101604081905261002e91610217565b838383600361003d8382610335565b50600461004a8282610335565b5050505f5f61005e836100a460201b60201c565b915091508161006e576012610070565b805b60ff90811660a0526001600160a01b039390931660805250506005805460ff1916929091169190911790555061041c915050565b60408051600481526024810182526020810180516001600160e01b031663313ce56760e01b17905290515f918291829182916001600160a01b038716916100ea916103ef565b5f60405180830381855afa9150503d805f8114610122576040519150601f19603f3d011682016040523d82523d5f602084013e610127565b606091505b509150915081801561013b57506020815110155b1561016e575f818060200190518101906101559190610405565b905060ff811161016c576001969095509350505050565b505b505f9485945092505050565b634e487b7160e01b5f52604160045260245ffd5b5f82601f83011261019d575f5ffd5b81516001600160401b038111156101b6576101b661017a565b604051601f8201601f19908116603f011681016001600160401b03811182821017156101e4576101e461017a565b6040528181528382016020018510156101fb575f5ffd5b8160208501602083015e5f918101602001919091529392505050565b5f5f5f5f6080858703121561022a575f5ffd5b84516001600160a01b0381168114610240575f5ffd5b60208601519094506001600160401b0381111561025b575f5ffd5b6102678782880161018e565b604087015190945090506001600160401b03811115610284575f5ffd5b6102908782880161018e565b925050606085015160ff811681146102a6575f5ffd5b939692955090935050565b600181811c908216806102c557607f821691505b6020821081036102e357634e487b7160e01b5f52602260045260245ffd5b50919050565b601f82111561033057805f5260205f20601f840160051c8101602085101561030e5750805b601f840160051c820191505b8181101561032d575f815560010161031a565b50505b505050565b81516001600160401b0381111561034e5761034e61017a565b6103628161035c84546102b1565b846102e9565b6020601f821160018114610394575f831561037d5750848201515b5f19600385901b1c1916600184901b17845561032d565b5f84815260208120601f198516915b828110156103c357878501518255602094850194600190920191016103a3565b50848210156103e057868401515f19600387901b60f8161c191681555b50505050600190811b01905550565b5f82518060208501845e5f920191825250919050565b5f60208284031215610415575f5ffd5b5051919050565b60805160a0516110ae61043a5f395f50505f61044201526110ae5ff3fe608060405234801561000f575f5ffd5b5060043610610131575f3560e01c806301e1d1141461013557806306fdde031461015057806307a2d13a14610165578063095ea7b3146101785780630a28a4771461019b57806318160ddd146101ae57806323b872dd146101b6578063313ce567146101c957806338d52e0f146101de578063402d267d146101f35780634cdad506146101655780636e553f651461020657806370a082311461021957806394bf804d1461022c57806395d89b411461023f578063a9059cbb14610247578063b3d7f6b91461025a578063b460af941461026d578063ba08765214610280578063c63d75b6146101f3578063c6e6f59214610293578063ce96cb77146102a6578063d905777e146102b9578063dd62ed3e146102cc578063ef8b30f714610293575b5f5ffd5b61013d6102df565b6040519081526020015b60405180910390f35b610158610357565b6040516101479190610d1a565b61013d610173366004610d4f565b6103e7565b61018b610186366004610d81565b6103f8565b6040519015158152602001610147565b61013d6101a9366004610d4f565b61040f565b60025461013d565b61018b6101c4366004610da9565b61041b565b60055460405160ff9091168152602001610147565b6101e6610440565b6040516101479190610de3565b61013d610201366004610df7565b610464565b61013d610214366004610e10565b61046a565b61013d610227366004610df7565b6104c7565b61013d61023a366004610e10565b6104e1565b61015861052d565b61018b610255366004610d81565b61053c565b61013d610268366004610d4f565b610549565b61013d61027b366004610e3a565b610555565b61013d61028e366004610e3a565b6105ab565b61013d6102a1366004610d4f565b6105f8565b61013d6102b4366004610df7565b610603565b61013d6102c7366004610df7565b610616565b61013d6102da366004610e73565b610620565b5f6102e8610440565b6001600160a01b03166370a08231306040518263ffffffff1660e01b81526004016103139190610de3565b602060405180830381865afa15801561032e573d5f5f3e3d5ffd5b505050506040513d601f19601f820116820180604052508101906103529190610e9b565b905090565b60606003805461036690610eb2565b80601f016020809104026020016040519081016040528092919081815260200182805461039290610eb2565b80156103dd5780601f106103b4576101008083540402835291602001916103dd565b820191905f5260205f20905b8154815290600101906020018083116103c057829003601f168201915b5050505050905090565b5f6103f2825f61064a565b92915050565b5f33610405818585610682565b5060019392505050565b5f6103f2826001610694565b5f336104288582856106c3565b610433858585610714565b60019150505b9392505050565b7f000000000000000000000000000000000000000000000000000000000000000090565b505f1990565b5f5f61047583610464565b9050808411156104a757828482604051633c8097d960e11b815260040161049e93929190610eea565b60405180910390fd5b5f6104b1856105f8565b90506104bf33858784610771565b949350505050565b6001600160a01b03165f9081526020819052604090205490565b5f5f6104ec83610464565b9050808411156105155782848260405163284ff66760e01b815260040161049e93929190610eea565b5f61051f85610549565b90506104bf33858388610771565b60606004805461036690610eb2565b5f33610405818585610714565b5f6103f282600161064a565b5f5f61056083610603565b90508085111561058957828582604051633fa733bb60e21b815260040161049e93929190610eea565b5f6105938661040f565b90506105a233868689856107ea565b95945050505050565b5f5f6105b683610616565b9050808511156105df57828582604051632e52afbb60e21b815260040161049e93929190610eea565b5f6105e9866103e7565b90506105a2338686848a6107ea565b5f6103f2825f610694565b5f6103f2610610836104c7565b5f61064a565b5f6103f2826104c7565b6001600160a01b039182165f90815260016020908152604080832093909416825291909152205490565b5f6104396106566102df565b610661906001610f1f565b61066c5f600a611015565b6002546106799190610f1f565b85919085610891565b61068f83838360016108d3565b505050565b5f6104396106a382600a611015565b6002546106b09190610f1f565b6106b86102df565b610679906001610f1f565b5f6106ce8484610620565b90505f1981101561070e578181101561070057828183604051637dc7a0d960e11b815260040161049e93929190610eea565b61070e84848484035f6108d3565b50505050565b6001600160a01b03831661073d575f604051634b637e8f60e11b815260040161049e9190610de3565b6001600160a01b038216610766575f60405163ec442f0560e01b815260040161049e9190610de3565b61068f838383610997565b61078461077c610440565b853085610aaa565b61078e8382610b11565b826001600160a01b0316846001600160a01b03167fdcbc1c05240f31ff3ad067ef1ee35ce4997762752e3a095284754544f4c709d784846040516107dc929190918252602082015260400190565b60405180910390a350505050565b826001600160a01b0316856001600160a01b03161461080e5761080e8386836106c3565b6108188382610b49565b61082a610823610440565b8584610b7d565b826001600160a01b0316846001600160a01b0316866001600160a01b03167ffbde797d201c681b91056529119e0b02407c7bb96a4a2c75c01fc9667232c8db8585604051610882929190918252602082015260400190565b60405180910390a45050505050565b5f6108be61089e83610bae565b80156108b957505f84806108b4576108b4611023565b868809115b151590565b6108c9868686610bda565b6105a29190610f1f565b6001600160a01b0384166108fc575f60405163e602df0560e01b815260040161049e9190610de3565b6001600160a01b038316610925575f604051634a1406b160e11b815260040161049e9190610de3565b6001600160a01b038085165f908152600160209081526040808320938716835292905220829055801561070e57826001600160a01b0316846001600160a01b03167f8c5be1e5ebec7d5bd14f71427d1e84f3dd0314c0f7b2291e5b200ac8c7c3b925846040516107dc91815260200190565b6001600160a01b0383166109c1578060025f8282546109b69190610f1f565b90915550610a1e9050565b6001600160a01b0383165f9081526020819052604090205481811015610a005783818360405163391434e360e21b815260040161049e93929190610eea565b6001600160a01b0384165f9081526020819052604090209082900390555b6001600160a01b038216610a3a57600280548290039055610a58565b6001600160a01b0382165f9081526020819052604090208054820190555b816001600160a01b0316836001600160a01b03167fddf252ad1be2c89b69c2b068fc378daa952ba7f163c4a11628f55a4df523b3ef83604051610a9d91815260200190565b60405180910390a3505050565b6040516001600160a01b03848116602483015283811660448301526064820183905261070e9186918216906323b872dd906084015b604051602081830303815290604052915060e01b6020820180516001600160e01b038381831617835250505050610c8a565b6001600160a01b038216610b3a575f60405163ec442f0560e01b815260040161049e9190610de3565b610b455f8383610997565b5050565b6001600160a01b038216610b72575f604051634b637e8f60e11b815260040161049e9190610de3565b610b45825f83610997565b6040516001600160a01b0383811660248301526044820183905261068f91859182169063a9059cbb90606401610adf565b5f6002826003811115610bc357610bc3611037565b610bcd919061104b565b60ff166001149050919050565b5f5f5f610be78686610ced565b91509150815f03610c0b57838181610c0157610c01611023565b0492505050610439565b818411610c2257610c226003851502601118610d09565b5f848688095f868103871696879004966002600389028118808a02820302808a02820302808a02820302808a02820302808a02820302808a02909103029181900381900460010185841190960395909502919093039390930492909217029150509392505050565b5f5f60205f8451602086015f885af180610ca9576040513d5f823e3d81fd5b50505f513d91508115610cc0578060011415610ccd565b6001600160a01b0384163b155b1561070e5783604051635274afe760e01b815260040161049e9190610de3565b5f805f1983850993909202808410938190039390930393915050565b634e487b715f52806020526024601cfd5b602081525f82518060208401528060208501604085015e5f604082850101526040601f19601f83011684010191505092915050565b5f60208284031215610d5f575f5ffd5b5035919050565b80356001600160a01b0381168114610d7c575f5ffd5b919050565b5f5f60408385031215610d92575f5ffd5b610d9b83610d66565b946020939093013593505050565b5f5f5f60608486031215610dbb575f5ffd5b610dc484610d66565b9250610dd260208501610d66565b929592945050506040919091013590565b6001600160a01b0391909116815260200190565b5f60208284031215610e07575f5ffd5b61043982610d66565b5f5f60408385031215610e21575f5ffd5b82359150610e3160208401610d66565b90509250929050565b5f5f5f60608486031215610e4c575f5ffd5b83359250610e5c60208501610d66565b9150610e6a60408501610d66565b90509250925092565b5f5f60408385031215610e84575f5ffd5b610e8d83610d66565b9150610e3160208401610d66565b5f60208284031215610eab575f5ffd5b5051919050565b600181811c90821680610ec657607f821691505b602082108103610ee457634e487b7160e01b5f52602260045260245ffd5b50919050565b6001600160a01b039390931683526020830191909152604082015260600190565b634e487b7160e01b5f52601160045260245ffd5b808201808211156103f2576103f2610f0b565b6001815b6001841115610f6d57808504811115610f5157610f51610f0b565b6001841615610f5f57908102905b60019390931c928002610f36565b935093915050565b5f82610f83575060016103f2565b81610f8f57505f6103f2565b8160018114610fa55760028114610faf57610fcb565b60019150506103f2565b60ff841115610fc057610fc0610f0b565b50506001821b6103f2565b5060208310610133831016604e8410600b8410161715610fee575081810a6103f2565b610ffa5f198484610f32565b805f190482111561100d5761100d610f0b565b029392505050565b5f61043960ff841683610f75565b634e487b7160e01b5f52601260045260245ffd5b634e487b7160e01b5f52602160045260245ffd5b5f60ff83168061106957634e487b7160e01b5f52601260045260245ffd5b8060ff8416069150509291505056fea2646970667358221220038e4606506529eda915a2a75a2b5bd3a99d297c298de4860f513cd4ec93675a64736f6c634300081c0033",
  "linkReferences": {},
  "deployedLinkReferences": {}
}