{
  "_format": "hh-sol-artifact-1",
  "contractName": "MockERC4626Asset",
  "sourceName": "contracts/mocks/MockERC4626Asset.sol",
  "abi": [
    {
      "inputs": [
        {
          "internalType": "contract ERC20",
          "name": "_underlyingAsset",
          "type": "address"
        },
        {
          "internalType": "string",
          "name": "_name",
          "type": "string"
        },
        {
          "internalType": "string",
          "name": "_symbol",
          "type": "string"
        }
      ],
      "stateMutability": "nonpayable",
      "type": "constructor"
    },
    {
      "inputs": [
        {
          "internalType": "address",
          "name": "spender",
          "type": "address"
        },
        {
          "internalType": "uint256",
          "name": "allowance",
          "type": "uint256"
        },
        {
          "internalType": "uint256",
          "name": "needed",
          "type": "uint256"
        }
      ],
      "name": "ERC20InsufficientAllowance",
      "type": "error"
    },
    {
      "inputs": [
        {
          "internalType": "address",
          "name": "sender",
          "type": "address"
        },
        {
          "internalType": "uint256",
          "name": "balance",
          "type": "uint256"
        },
        {
          "internalType": "uint256",
          "name": "needed",
          "type": "uint256"
        }
      ],
      "name": "ERC20InsufficientBalance",
      "type": "error"
    },
    {
      "inputs": [
        {
          "internalType": "address",
          "name": "approver",
          "type": "address"
        }
      ],
      "name": "ERC20InvalidApprover",
      "type": "error"
    },
    {
      "inputs": [
        {
          "internalType": "address",
          "name": "receiver",
          "type": "address"
        }
      ],
      "name": "ERC20InvalidReceiver",
      "type": "error"
    },
    {
      "inputs": [
        {
          "internalType": "address",
          "name": "sender",
          "type": "address"
        }
      ],
      "name": "ERC20InvalidSender",
      "type": "error"
    },
    {
      "inputs": [
        {
          "internalType": "address",
          "name": "spender",
          "type": "address"
        }
      ],
      "name": "ERC20InvalidSpender",
      "type": "error"
    },
    {
      "inputs": [
        {
          "internalType": "address",
          "name": "receiver",
          "type": "address"
        },
        {
          "internalType": "uint256",
          "name": "assets",
          "type": "uint256"
        },
        {
          "internalType": "uint256",
          "name": "max",
          "type": "uint256"
        }
      ],
      "name": "ERC4626ExceededMaxDeposit",
      "type": "error"
    },
    {
      "inputs": [
        {
          "internalType": "address",
          "name": "receiver",
          "type": "address"
        },
        {
          "internalType": "uint256",
          "name": "shares",
          "type": "uint256"
        },
        {
          "internalType": "uint256",
          "name": "max",
          "type": "uint256"
        }
      ],
      "name": "ERC4626ExceededMaxMint",
      "type": "error"
    },
    {
      "inputs": [
        {
          "internalType": "address",
          "name": "owner",
          "type": "address"
        },
        {
          "internalType": "uint256",
          "name": "shares",
          "type": "uint256"
        },
        {
          "internalType": "uint256",
          "name": "max",
          "type": "uint256"
        }
      ],
      "name": "ERC4626ExceededMaxRedeem",
      "type": "error"
    },
    {
      "inputs": [
        {
          "internalType": "address",
          "name": "owner",
          "type": "address"
        },
        {
          "internalType": "uint256",
          "name": "assets",
          "type": "uint256"
        },
        {
          "internalType": "uint256",
          "name": "max",
          "type": "uint256"
        }
      ],
      "name": "ERC4626ExceededMaxWithdraw",
      "type": "error"
    },
    {
      "inputs": [
        {
          "internalType": "address",
          "name": "token",
          "type": "address"
        }
      ],
      "name": "SafeERC20FailedOperation",
      "type": "error"
    },
    {
      "anonymous": false,
      "inputs": [
        {
          "indexed": true,
          "internalType": "address",
          "name": "owner",
          "type": "address"
        },
        {
          "indexed": true,
          "internalType": "address",
          "name": "spender",
          "type": "address"
        },
        {
          "indexed": false,
          "internalType": "uint256",
          "name": "value",
          "type": "uint256"
        }
      ],
      "name": "Approval",
      "type": "event"
    },
    {
      "anonymous": false,
      "inputs": [
        {
          "indexed": true,
          "internalType": "address",
          "name": "sender",
          "type": "address"
        },
        {
          "indexed": true,
          "internalType": "address",
          "name": "owner",
          "type": "address"
        },
        {
          "indexed": false,
          "internalType": "uint256",
          "name": "assets",
          "type": "uint256"
        },
        {
          "indexed": false,
          "internalType": "uint256",
          "name": "shares",
          "type": "uint256"
        }
      ],
      "name": "Deposit",
      "type": "event"
    },
    {
      "anonymous": false,
      "inputs": [
        {
          "indexed": true,
          "internalType": "address",
          "name": "from",
          "type": "address"
        },
        {
          "indexed": true,
          "internalType": "address",
          "name": "to",
          "type": "address"
        },
        {
          "indexed": false,
          "internalType": "uint256",
          "name": "value",
          "type": "uint256"
        }
      ],
      "name": "Transfer",
      "type": "event"
    },
    {
      "anonymous": false,
      "inputs": [
        {
          "indexed": true,
          "internalType": "address",
          "name": "sender",
          "type": "address"
        },
        {
          "indexed": true,
          "internalType": "address",
          "name": "receiver",
          "type": "address"
        },
        {
          "indexed": true,
          "internalType": "address",
          "name": "owner",
          "type": "address"
        },
        {
          "indexed": false,
          "internalType": "uint256",
          "name": "assets",
          "type": "uint256"
        },
        {
          "indexed": false,
          "internalType": "uint256",
          "name": "shares",
          "type": "uint256"
        }
      ],
      "name": "Withdraw",
      "type": "event"
    },
    {
      "inputs": [
        {
          "internalType": "address",
          "name": "owner",
          "type": "address"
        },
        {
          "internalType": "address",
          "name": "spender",
          "type": "address"
        }
      ],
      "name": "allowance",
      "outputs": [
        {
          "internalType": "uint256",
          "name": "",
          "type": "uint256"
        }
      ],
      "stateMutability": "view",
      "type": "function"
    },
    {
      "inputs": [
        {
          "internalType": "address",
          "name": "spender",
          "type": "address"
        },
        {
          "internalType": "uint256",
          "name": "value",
          "type": "uint256"
        }
      ],
      "name": "approve",
      "outputs": [
        {
          "internalType": "bool",
          "name": "",
          "type": "bool"
        }
      ],
      "stateMutability": "nonpayable",
      "type": "function"
    },
    {
      "inputs": [],
      "name": "asset",
      "outputs": [
        {
          "internalType": "address",
          "name": "",
          "type": "address"
        }
      ],
      "stateMutability": "view",
      "type": "function"
    },
    {
      "inputs": [
        {
          "internalType": "address",
          "name": "account",
          "type": "address"
        }
      ],
      "name": "balanceOf",
      "outputs": [
        {
          "internalType": "uint256",
          "name": "",
          "type": "uint256"
        }
      ],
      "stateMutability": "view",
      "type": "function"
    },
    {
      "inputs": [
        {
          "internalType": "uint256",
          "name": "shares",
          "type": "uint256"
        }
      ],
      "name": "convertToAssets",
      "outputs": [
        {
          "internalType": "uint256",
          "name": "",
          "type": "uint256"
        }
      ],
      "stateMutability": "view",
      "type": "function"
    },
    {
      "inputs": [
        {
          "internalType": "uint256",
          "name": "assets",
          "type": "uint256"
        }
      ],
      "name": "convertToShares",
      "outputs": [
        {
          "internalType": "uint256",
          "name": "",
          "type": "uint256"
        }
      ],
      "stateMutability": "view",
      "type": "function"
    },
    {
      "inputs": [],
      "name": "decimals",
      "outputs": [
        {
          "internalType": "uint8",
          "name": "",
          "type": "uint8"
        }
      ],
      "stateMutability": "view",
      "type": "function"
    },
    {
      "inputs": [
        {
          "internalType": "uint256",
          "name": "assets",
          "type": "uint256"
        },
        {
          "internalType": "address",
          "name": "receiver",
          "type": "address"
        }
      ],
      "name": "deposit",
      "outputs": [
        {
          "internalType": "uint256",
          "name": "",
          "type": "uint256"
        }
      ],
      "stateMutability": "nonpayable",
      "type": "function"
    },
    {
      "inputs": [
        {
          "internalType": "address",
          "name": "",
          "type": "address"
        }
      ],
      "name": "maxDeposit",
      "outputs": [
        {
          "internalType": "uint256",
          "name": "",
          "type": "uint256"
        }
      ],
      "stateMutability": "view",
      "type": "function"
    },
    {
      "inputs": [
        {
          "internalType": "address",
          "name": "",
          "type": "address"
        }
      ],
      "name": "maxMint",
      "outputs": [
        {
          "internalType": "uint256",
          "name": "",
          "type": "uint256"
        }
      ],
      "stateMutability": "view",
      "type": "function"
    },
    {
      "inputs": [
        {
          "internalType": "address",
          "name": "owner",
          "type": "address"
        }
      ],
      "name": "maxRedeem",
      "outputs": [
        {
          "internalType": "uint256",
          "name": "",
          "type": "uint256"
        }
      ],
      "stateMutability": "view",
      "type": "function"
    },
    {
      "inputs": [
        {
          "internalType": "address",
          "name": "owner",
          "type": "address"
        }
      ],
      "name": "maxWithdraw",
      "outputs": [
        {
          "internalType": "uint256",
          "name": "",
          "type": "uint256"
        }
      ],
      "stateMutability": "view",
      "type": "function"
    },
    {
      "inputs": [
        {
          "internalType": "uint256",
          "name": "shares",
          "type": "uint256"
        },
        {
          "internalType": "address",
          "name": "receiver",
          "type": "address"
        }
      ],
      "name": "mint",
      "outputs": [
        {
          "internalType": "uint256",
          "name": "",
          "type": "uint256"
        }
      ],
      "stateMutability": "nonpayable",
      "type": "function"
    },
    {
      "inputs": [],
      "name": "name",
      "outputs": [
        {
          "internalType": "string",
          "name": "",
          "type": "string"
        }
      ],
      "stateMutability": "view",
      "type": "function"
    },
    {
      "inputs": [
        {
          "internalType": "uint256",
          "name": "assets",
          "type": "uint256"
        }
      ],
      "name": "previewDeposit",
      "outputs": [
        {
          "internalType": "uint256",
          "name": "",
          "type": "uint256"
        }
      ],
      "stateMutability": "view",
      "type": "function"
    },
    {
      "inputs": [
        {
          "internalType": "uint256",
          "name": "shares",
          "type": "uint256"
        }
      ],
      "name": "previewMint",
      "outputs": [
        {
          "internalType": "uint256",
          "name": "",
          "type": "uint256"
        }
      ],
      "stateMutability": "view",
      "type": "function"
    },
    {
      "inputs": [
        {
          "internalType": "uint256",
          "name": "shares",
          "type": "uint256"
        }
      ],
      "name": "previewRedeem",
      "outputs": [
        {
          "internalType": "uint256",
          "name": "",
          "type": "uint256"
        }
      ],
      "stateMutability": "view",
      "type": "function"
    },
    {
      "inputs": [
        {
          "internalType": "uint256",
          "name": "assets",
          "type": "uint256"
        }
      ],
      "name": "previewWithdraw",
      "outputs": [
        {
          "internalType": "uint256",
          "name": "",
          "type": "uint256"
        }
      ],
      "stateMutability": "view",
      "type": "function"
    },
    {
      "inputs": [
        {
          "internalType": "uint256",
          "name": "shares",
          "type": "uint256"
        },
        {
          "internalType": "address",
          "name": "receiver",
          "type": "address"
        },
        {
          "internalType": "address",
          "name": "owner",
          "type": "address"
        }
      ],
      "name": "redeem",
      "outputs": [
        {
          "internalType": "uint256",
          "name": "",
          "type": "uint256"
        }
      ],
      "stateMutability": "nonpayable",
      "type": "function"
    },
    {
      "inputs": [],
      "name": "symbol",
      "outputs": [
        {
          "internalType": "string",
          "name": "",
          "type": "string"
        }
      ],
      "stateMutability": "view",
      "type": "function"
    },
    {
      "inputs": [],
      "name": "totalAssets",
      "outputs": [
        {
          "internalType": "uint256",
          "name": "",
          "type": "uint256"
        }
      ],
      "stateMutability": "view",
      "type": "function"
    },
    {
      "inputs": [],
      "name": "totalSupply",
      "outputs": [
        {
          "internalType": "uint256",
          "name": "",
          "type": "uint256"
        }
      ],
      "stateMutability": "view",
      "type": "function"
    },
    {
      "inputs": [
        {
          "internalType": "address",
          "name": "to",
          "type": "address"
        },
        {
          "internalType": "uint256",
          "name": "value",
          "type": "uint256"
        }
      ],
      "name": "transfer",
      "outputs": [
        {
          "internalType": "bool",
          "name": "",
          "type": "bool"
        }
      ],
      "stateMutability": "nonpayable",
      "type": "function"
    },
    {
      "inputs": [
        {
          "internalType": "address",
          "name": "from",
          "type": "address"
        },
        {
          "internalType": "address",
          "name": "to",
          "type": "address"
        },
        {
          "internalType": "uint256",
          "name": "value",
          "type": "uint256"
        }
      ],
      "name": "transferFrom",
      "outputs": [
        {
          "internalType": "bool",
          "name": "",
          "type": "bool"
        }
      ],
      "stateMutability": "nonpayable",
      "type": "function"
    },
    {
      "inputs": [
        {
          "internalType": "uint256",
          "name": "assets",
          "type": "uint256"
        },
        {
          "internalType": "address",
          "name": "receiver",
          "type": "address"
        },
        {
          "internalType": "address",
          "name": "owner",
          "type": "address"
        }
      ],
      "name": "withdraw",
      "outputs": [
        {
          "internalType": "uint256",
          "name": "",
          "type": "uint256"
        }
      ],
      "stateMutability": "nonpayable",
      "type": "function"
    }
  ],
  "bytecode": "0x60c060405234801561000f575f5ffd5b5060405161150538038061150583398101604081905261002e91610200565b828282600361003d8382610306565b50600461004a8282610306565b5050505f5f61005e8361008d60201b60201c565b915091508161006e576012610070565b805b60ff1660a05250506001600160a01b0316608052506103ed915050565b60408051600481526024810182526020810180516001600160e01b031663313ce56760e01b17905290515f918291829182916001600160a01b038716916100d3916103c0565b5f60405180830381855afa9150503d805f811461010b576040519150601f19603f3d011682016040523d82523d5f602084013e610110565b606091505b509150915081801561012457506020815110155b15610157575f8180602001905181019061013e91906103d6565b905060ff8111610155576001969095509350505050565b505b505f9485945092505050565b634e487b7160e01b5f52604160045260245ffd5b5f82601f830112610186575f5ffd5b81516001600160401b0381111561019f5761019f610163565b604051601f8201601f19908116603f011681016001600160401b03811182821017156101cd576101cd610163565b6040528181528382016020018510156101e4575f5ffd5b8160208501602083015e5f918101602001919091529392505050565b5f5f5f60608486031215610212575f5ffd5b83516001600160a01b0381168114610228575f5ffd5b60208501519093506001600160401b03811115610243575f5ffd5b61024f86828701610177565b604086015190935090506001600160401b0381111561026c575f5ffd5b61027886828701610177565b9150509250925092565b600181811c9082168061029657607f821691505b6020821081036102b457634e487b7160e01b5f52602260045260245ffd5b50919050565b601f82111561030157805f5260205f20601f840160051c810160208510156102df5750805b601f840160051c820191505b818110156102fe575f81556001016102eb565b50505b505050565b81516001600160401b0381111561031f5761031f610163565b6103338161032d8454610282565b846102ba565b6020601f821160018114610365575f831561034e5750848201515b5f19600385901b1c1916600184901b1784556102fe565b5f84815260208120601f198516915b828110156103945787850151825560209485019460019092019101610374565b50848210156103b157868401515f19600387901b60f8161c191681555b50505050600190811b01905550565b5f82518060208501845e5f920191825250919050565b5f602082840312156103e6575f5ffd5b5051919050565b60805160a0516110f761040e5f395f61044c01525f61047201526110f75ff3fe608060405234801561000f575f5ffd5b5060043610610131575f3560e01c806301e1d1141461013557806306fdde031461015057806307a2d13a14610165578063095ea7b3146101785780630a28a4771461019b57806318160ddd146101ae57806323b872dd146101b6578063313ce567146101c957806338d52e0f146101e3578063402d267d146101f85780634cdad506146101655780636e553f651461020b57806370a082311461021e57806394bf804d1461023157806395d89b4114610244578063a9059cbb1461024c578063b3d7f6b91461025f578063b460af9414610272578063ba08765214610285578063c63d75b6146101f8578063c6e6f59214610298578063ce96cb77146102ab578063d905777e146102be578063dd62ed3e146102d1578063ef8b30f714610298575b5f5ffd5b61013d6102e4565b6040519081526020015b60405180910390f35b61015861035c565b6040516101479190610d4a565b61013d610173366004610d7f565b6103ec565b61018b610186366004610db1565b6103fd565b6040519015158152602001610147565b61013d6101a9366004610d7f565b610414565b60025461013d565b61018b6101c4366004610dd9565b610420565b6101d1610445565b60405160ff9091168152602001610147565b6101eb610470565b6040516101479190610e13565b61013d610206366004610e27565b610494565b61013d610219366004610e40565b61049a565b61013d61022c366004610e27565b6104f7565b61013d61023f366004610e40565b610511565b61015861055d565b61018b61025a366004610db1565b61056c565b61013d61026d366004610d7f565b610579565b61013d610280366004610e6a565b610585565b61013d610293366004610e6a565b6105db565b61013d6102a6366004610d7f565b610628565b61013d6102b9366004610e27565b610633565b61013d6102cc366004610e27565b610646565b61013d6102df366004610ea3565b610650565b5f6102ed610470565b6001600160a01b03166370a08231306040518263ffffffff1660e01b81526004016103189190610e13565b602060405180830381865afa158015610333573d5f5f3e3d5ffd5b505050506040513d601f19601f820116820180604052508101906103579190610ecb565b905090565b60606003805461036b90610ee2565b80601f016020809104026020016040519081016040528092919081815260200182805461039790610ee2565b80156103e25780601f106103b9576101008083540402835291602001916103e2565b820191905f5260205f20905b8154815290600101906020018083116103c557829003601f168201915b5050505050905090565b5f6103f7825f61067a565b92915050565b5f3361040a8185856106b2565b5060019392505050565b5f6103f78260016106c4565b5f3361042d8582856106f3565b610438858585610744565b60019150505b9392505050565b5f610357817f0000000000000000000000000000000000000000000000000000000000000000610f2e565b7f000000000000000000000000000000000000000000000000000000000000000090565b505f1990565b5f5f6104a583610494565b9050808411156104d757828482604051633c8097d960e11b81526004016104ce93929190610f47565b60405180910390fd5b5f6104e185610628565b90506104ef338587846107a1565b949350505050565b6001600160a01b03165f9081526020819052604090205490565b5f5f61051c83610494565b9050808411156105455782848260405163284ff66760e01b81526004016104ce93929190610f47565b5f61054f85610579565b90506104ef338583886107a1565b60606004805461036b90610ee2565b5f3361040a818585610744565b5f6103f782600161067a565b5f5f61059083610633565b9050808511156105b957828582604051633fa733bb60e21b81526004016104ce93929190610f47565b5f6105c386610414565b90506105d2338686898561081a565b95945050505050565b5f5f6105e683610646565b90508085111561060f57828582604051632e52afbb60e21b81526004016104ce93929190610f47565b5f610619866103ec565b90506105d2338686848a61081a565b5f6103f7825f6106c4565b5f6103f7610640836104f7565b5f61067a565b5f6103f7826104f7565b6001600160a01b039182165f90815260016020908152604080832093909416825291909152205490565b5f61043e6106866102e4565b610691906001610f68565b61069c5f600a61105e565b6002546106a99190610f68565b859190856108c1565b6106bf8383836001610903565b505050565b5f61043e6106d382600a61105e565b6002546106e09190610f68565b6106e86102e4565b6106a9906001610f68565b5f6106fe8484610650565b90505f1981101561073e578181101561073057828183604051637dc7a0d960e11b81526004016104ce93929190610f47565b61073e84848484035f610903565b50505050565b6001600160a01b03831661076d575f604051634b637e8f60e11b81526004016104ce9190610e13565b6001600160a01b038216610796575f60405163ec442f0560e01b81526004016104ce9190610e13565b6106bf8383836109c7565b6107b46107ac610470565b853085610ada565b6107be8382610b41565b826001600160a01b0316846001600160a01b03167fdcbc1c05240f31ff3ad067ef1ee35ce4997762752e3a095284754544f4c709d7848460405161080c929190918252602082015260400190565b60405180910390a350505050565b826001600160a01b0316856001600160a01b03161461083e5761083e8386836106f3565b6108488382610b79565b61085a610853610470565b8584610bad565b826001600160a01b0316846001600160a01b0316866001600160a01b03167ffbde797d201c681b91056529119e0b02407c7bb96a4a2c75c01fc9667232c8db85856040516108b2929190918252602082015260400190565b60405180910390a45050505050565b5f6108ee6108ce83610bde565b80156108e957505f84806108e4576108e461106c565b868809115b151590565b6108f9868686610c0a565b6105d29190610f68565b6001600160a01b03841661092c575f60405163e602df0560e01b81526004016104ce9190610e13565b6001600160a01b038316610955575f604051634a1406b160e11b81526004016104ce9190610e13565b6001600160a01b038085165f908152600160209081526040808320938716835292905220829055801561073e57826001600160a01b0316846001600160a01b03167f8c5be1e5ebec7d5bd14f71427d1e84f3dd0314c0f7b2291e5b200ac8c7c3b9258460405161080c91815260200190565b6001600160a01b0383166109f1578060025f8282546109e69190610f68565b90915550610a4e9050565b6001600160a01b0383165f9081526020819052604090205481811015610a305783818360405163391434e360e21b81526004016104ce93929190610f47565b6001600160a01b0384165f9081526020819052604090209082900390555b6001600160a01b038216610a6a57600280548290039055610a88565b6001600160a01b0382165f9081526020819052604090208054820190555b816001600160a01b0316836001600160a01b03167fddf252ad1be2c89b69c2b068fc378daa952ba7f163c4a11628f55a4df523b3ef83604051610acd91815260200190565b60405180910390a3505050565b6040516001600160a01b03848116602483015283811660448301526064820183905261073e9186918216906323b872dd906084015b604051602081830303815290604052915060e01b6020820180516001600160e01b038381831617835250505050610cba565b6001600160a01b038216610b6a575f60405163ec442f0560e01b81526004016104ce9190610e13565b610b755f83836109c7565b5050565b6001600160a01b038216610ba2575f604051634b637e8f60e11b81526004016104ce9190610e13565b610b75825f836109c7565b6040516001600160a01b038381166024830152604482018390526106bf91859182169063a9059cbb90606401610b0f565b5f6002826003811115610bf357610bf3611080565b610bfd9190611094565b60ff166001149050919050565b5f5f5f610c178686610d1d565b91509150815f03610c3b57838181610c3157610c3161106c565b049250505061043e565b818411610c5257610c526003851502601118610d39565b5f848688095f868103871696879004966002600389028118808a02820302808a02820302808a02820302808a02820302808a02820302808a02909103029181900381900460010185841190960395909502919093039390930492909217029150509392505050565b5f5f60205f8451602086015f885af180610cd9576040513d5f823e3d81fd5b50505f513d91508115610cf0578060011415610cfd565b6001600160a01b0384163b155b1561073e5783604051635274afe760e01b81526004016104ce9190610e13565b5f805f1983850993909202808410938190039390930393915050565b634e487b715f52806020526024601cfd5b602081525f82518060208401528060208501604085015e5f604082850101526040601f19601f83011684010191505092915050565b5f60208284031215610d8f575f5ffd5b5035919050565b80356001600160a01b0381168114610dac575f5ffd5b919050565b5f5f60408385031215610dc2575f5ffd5b610dcb83610d96565b946020939093013593505050565b5f5f5f60608486031215610deb575f5ffd5b610df484610d96565b9250610e0260208501610d96565b929592945050506040919091013590565b6001600160a01b0391909116815260200190565b5f60208284031215610e37575f5ffd5b61043e82610d96565b5f5f60408385031215610e51575f5ffd5b82359150610e6160208401610d96565b90509250929050565b5f5f5f60608486031215610e7c575f5ffd5b83359250610e8c60208501610d96565b9150610e9a60408501610d96565b90509250925092565b5f5f60408385031215610eb4575f5ffd5b610ebd83610d96565b9150610e6160208401610d96565b5f60208284031215610edb575f5ffd5b5051919050565b600181811c90821680610ef657607f821691505b602082108103610f1457634e487b7160e01b5f52602260045260245ffd5b50919050565b634e487b7160e01b5f52601160045260245ffd5b60ff81811683821601908111156103f7576103f7610f1a565b6001600160a01b039390931683526020830191909152604082015260600190565b808201808211156103f7576103f7610f1a565b6001815b6001841115610fb657808504811115610f9a57610f9a610f1a565b6001841615610fa857908102905b60019390931c928002610f7f565b935093915050565b5f82610fcc575060016103f7565b81610fd857505f6103f7565b8160018114610fee5760028114610ff857611014565b60019150506103f7565b60ff84111561100957611009610f1a565b50506001821b6103f7565b5060208310610133831016604e8410600b8410161715611037575081810a6103f7565b6110435f198484610f7b565b805f190482111561105657611056610f1a565b029392505050565b5f61043e60ff841683610fbe565b634e487b7160e01b5f52601260045260245ffd5b634e487b7160e01b5f52602160045260245ffd5b5f60ff8316806110b257634e487b7160e01b5f52601260045260245ffd5b8060ff8416069150509291505056fea26469706673582212204910248275f4ca6077edead8300d2c9a080a20f4619f05242e3a3954818b880664736f6c634300081c0033",
  "linkReferences": {},
  "deployedLinkReferences": {}
}