{
  "_format": "hh-sol-artifact-1",
  "contractName": "MockERC4626Asset",
  "sourceName": "contracts/mocks/MockERC4626Asset.sol",
  "abi": [
    {
      "inputs": [
        {
          "internalType": "contract ERC20",
          "name": "_underlyingAsset",
          "type": "address"
        },
        {
          "internalType": "string",
          "name": "_name",
          "type": "string"
        },
        {
          "internalType": "string",
          "name": "_symbol",
          "type": "string"
        }
      ],
      "stateMutability": "nonpayable",
      "type": "constructor"
    },
    {
      "inputs": [
        {
          "internalType": "address",
          "name": "spender",
          "type": "address"
        },
        {
          "internalType": "uint256",
          "name": "allowance",
          "type": "uint256"
        },
        {
          "internalType": "uint256",
          "name": "needed",
          "type": "uint256"
        }
      ],
      "name": "ERC20InsufficientAllowance",
      "type": "error"
    },
    {
      "inputs": [
        {
          "internalType": "address",
          "name": "sender",
          "type": "address"
        },
        {
          "internalType": "uint256",
          "name": "balance",
          "type": "uint256"
        },
        {
          "internalType": "uint256",
          "name": "needed",
          "type": "uint256"
        }
      ],
      "name": "ERC20InsufficientBalance",
      "type": "error"
    },
    {
      "inputs": [
        {
          "internalType": "address",
          "name": "approver",
          "type": "address"
        }
      ],
      "name": "ERC20InvalidApprover",
      "type": "error"
    },
    {
      "inputs": [
        {
          "internalType": "address",
          "name": "receiver",
          "type": "address"
        }
      ],
      "name": "ERC20InvalidReceiver",
      "type": "error"
    },
    {
      "inputs": [
        {
          "internalType": "address",
          "name": "sender",
          "type": "address"
        }
      ],
      "name": "ERC20InvalidSender",
      "type": "error"
    },
    {
      "inputs": [
        {
          "internalType": "address",
          "name": "spender",
          "type": "address"
        }
      ],
      "name": "ERC20InvalidSpender",
      "type": "error"
    },
    {
      "inputs": [
        {
          "internalType": "address",
          "name": "receiver",
          "type": "address"
        },
        {
          "internalType": "uint256",
          "name": "assets",
          "type": "uint256"
        },
        {
          "internalType": "uint256",
          "name": "max",
          "type": "uint256"
        }
      ],
      "name": "ERC4626ExceededMaxDeposit",
      "type": "error"
    },
    {
      "inputs": [
        {
          "internalType": "address",
          "name": "receiver",
          "type": "address"
        },
        {
          "internalType": "uint256",
          "name": "shares",
          "type": "uint256"
        },
        {
          "internalType": "uint256",
          "name": "max",
          "type": "uint256"
        }
      ],
      "name": "ERC4626ExceededMaxMint",
      "type": "error"
    },
    {
      "inputs": [
        {
          "internalType": "address",
          "name": "owner",
          "type": "address"
        },
        {
          "internalType": "uint256",
          "name": "shares",
          "type": "uint256"
        },
        {
          "internalType": "uint256",
          "name": "max",
          "type": "uint256"
        }
      ],
      "name": "ERC4626ExceededMaxRedeem",
      "type": "error"
    },
    {
      "inputs": [
        {
          "internalType": "address",
          "name": "owner",
          "type": "address"
        },
        {
          "internalType": "uint256",
          "name": "assets",
          "type": "uint256"
        },
        {
          "internalType": "uint256",
          "name": "max",
          "type": "uint256"
        }
      ],
      "name": "ERC4626ExceededMaxWithdraw",
      "type": "error"
    },
    {
      "inputs": [
        {
          "internalType": "address",
          "name": "token",
          "type": "address"
        }
      ],
      "name": "SafeERC20FailedOperation",
      "type": "error"
    },
    {
      "anonymous": false,
      "inputs": [
        {
          "indexed": true,
          "internalType": "address",
          "name": "owner",
          "type": "address"
        },
        {
          "indexed": true,
          "internalType": "address",
          "name": "spender",
          "type": "address"
        },
        {
          "indexed": false,
          "internalType": "uint256",
          "name": "value",
          "type": "uint256"
        }
      ],
      "name": "Approval",
      "type": "event"
    },
    {
      "anonymous": false,
      "inputs": [
        {
          "indexed": true,
          "internalType": "address",
          "name": "sender",
          "type": "address"
        },
        {
          "indexed": true,
          "internalType": "address",
          "name": "owner",
          "type": "address"
        },
        {
          "indexed": false,
          "internalType": "uint256",
          "name": "assets",
          "type": "uint256"
        },
        {
          "indexed": false,
          "internalType": "uint256",
          "name": "shares",
          "type": "uint256"
        }
      ],
      "name": "Deposit",
      "type": "event"
    },
    {
      "anonymous": false,
      "inputs": [
        {
          "indexed": true,
          "internalType": "address",
          "name": "from",
          "type": "address"
        },
        {
          "indexed": true,
          "internalType": "address",
          "name": "to",
          "type": "address"
        },
        {
          "indexed": false,
          "internalType": "uint256",
          "name": "value",
          "type": "uint256"
        }
      ],
      "name": "Transfer",
      "type": "event"
    },
    {
      "anonymous": false,
      "inputs": [
        {
          "indexed": true,
          "internalType": "address",
          "name": "sender",
          "type": "address"
        },
        {
          "indexed": true,
          "internalType": "address",
          "name": "receiver",
          "type": "address"
        },
        {
          "indexed": true,
          "internalType": "address",
          "name": "owner",
          "type": "address"
        },
        {
          "indexed": false,
          "internalType": "uint256",
          "name": "assets",
          "type": "uint256"
        },
        {
          "indexed": false,
          "internalType": "uint256",
          "name": "shares",
          "type": "uint256"
        }
      ],
      "name": "Withdraw",
      "type": "event"
    },
    {
      "inputs": [
        {
          "internalType": "address",
          "name": "owner",
          "type": "address"
        },
        {
          "internalType": "address",
          "name": "spender",
          "type": "address"
        }
      ],
      "name": "allowance",
      "outputs": [
        {
          "internalType": "uint256",
          "name": "",
          "type": "uint256"
        }
      ],
      "stateMutability": "view",
      "type": "function"
    },
    {
      "inputs": [
        {
          "internalType": "address",
          "name": "spender",
          "type": "address"
        },
        {
          "internalType": "uint256",
          "name": "value",
          "type": "uint256"
        }
      ],
      "name": "approve",
      "outputs": [
        {
          "internalType": "bool",
          "name": "",
          "type": "bool"
        }
      ],
      "stateMutability": "nonpayable",
      "type": "function"
    },
    {
      "inputs": [],
      "name": "asset",
      "outputs": [
        {
          "internalType": "address",
          "name": "",
          "type": "address"
        }
      ],
      "stateMutability": "view",
      "type": "function"
    },
    {
      "inputs": [
        {
          "internalType": "address",
          "name": "account",
          "type": "address"
        }
      ],
      "name": "balanceOf",
      "outputs": [
        {
          "internalType": "uint256",
          "name": "",
          "type": "uint256"
        }
      ],
      "stateMutability": "view",
      "type": "function"
    },
    {
      "inputs": [
        {
          "internalType": "uint256",
          "name": "shares",
          "type": "uint256"
        }
      ],
      "name": "convertToAssets",
      "outputs": [
        {
          "internalType": "uint256",
          "name": "",
          "type": "uint256"
        }
      ],
      "stateMutability": "view",
      "type": "function"
    },
    {
      "inputs": [
        {
          "internalType": "uint256",
          "name": "assets",
          "type": "uint256"
        }
      ],
      "name": "convertToShares",
      "outputs": [
        {
          "internalType": "uint256",
          "name": "",
          "type": "uint256"
        }
      ],
      "stateMutability": "view",
      "type": "function"
    },
    {
      "inputs": [],
      "name": "decimals",
      "outputs": [
        {
          "internalType": "uint8",
          "name": "",
          "type": "uint8"
        }
      ],
      "stateMutability": "view",
      "type": "function"
    },
    {
      "inputs": [
        {
          "internalType": "uint256",
          "name": "assets",
          "type": "uint256"
        },
        {
          "internalType": "address",
          "name": "receiver",
          "type": "address"
        }
      ],
      "name": "deposit",
      "outputs": [
        {
          "internalType": "uint256",
          "name": "",
          "type": "uint256"
        }
      ],
      "stateMutability": "nonpayable",
      "type": "function"
    },
    {
      "inputs": [
        {
          "internalType": "address",
          "name": "",
          "type": "address"
        }
      ],
      "name": "maxDeposit",
      "outputs": [
        {
          "internalType": "uint256",
          "name": "",
          "type": "uint256"
        }
      ],
      "stateMutability": "view",
      "type": "function"
    },
    {
      "inputs": [
        {
          "internalType": "address",
          "name": "",
          "type": "address"
        }
      ],
      "name": "maxMint",
      "outputs": [
        {
          "internalType": "uint256",
          "name": "",
          "type": "uint256"
        }
      ],
      "stateMutability": "view",
      "type": "function"
    },
    {
      "inputs": [
        {
          "internalType": "address",
          "name": "owner",
          "type": "address"
        }
      ],
      "name": "maxRedeem",
      "outputs": [
        {
          "internalType": "uint256",
          "name": "",
          "type": "uint256"
        }
      ],
      "stateMutability": "view",
      "type": "function"
    },
    {
      "inputs": [
        {
          "internalType": "address",
          "name": "owner",
          "type": "address"
        }
      ],
      "name": "maxWithdraw",
      "outputs": [
        {
          "internalType": "uint256",
          "name": "",
          "type": "uint256"
        }
      ],
      "stateMutability": "view",
      "type": "function"
    },
    {
      "inputs": [
        {
          "internalType": "uint256",
          "name": "shares",
          "type": "uint256"
        },
        {
          "internalType": "address",
          "name": "receiver",
          "type": "address"
        }
      ],
      "name": "mint",
      "outputs": [
        {
          "internalType": "uint256",
          "name": "",
          "type": "uint256"
        }
      ],
      "stateMutability": "nonpayable",
      "type": "function"
    },
    {
      "inputs": [],
      "name": "name",
      "outputs": [
        {
          "internalType": "string",
          "name": "",
          "type": "string"
        }
      ],
      "stateMutability": "view",
      "type": "function"
    },
    {
      "inputs": [
        {
          "internalType": "uint256",
          "name": "assets",
          "type": "uint256"
        }
      ],
      "name": "previewDeposit",
      "outputs": [
        {
          "internalType": "uint256",
          "name": "",
          "type": "uint256"
        }
      ],
      "stateMutability": "view",
      "type": "function"
    },
    {
      "inputs": [
        {
          "internalType": "uint256",
          "name": "shares",
          "type": "uint256"
        }
      ],
      "name": "previewMint",
      "outputs": [
        {
          "internalType": "uint256",
          "name": "",
          "type": "uint256"
        }
      ],
      "stateMutability": "view",
      "type": "function"
    },
    {
      "inputs": [
        {
          "internalType": "uint256",
          "name": "shares",
          "type": "uint256"
        }
      ],
      "name": "previewRedeem",
      "outputs": [
        {
          "internalType": "uint256",
          "name": "",
          "type": "uint256"
        }
      ],
      "stateMutability": "view",
      "type": "function"
    },
    {
      "inputs": [
        {
          "internalType": "uint256",
          "name": "assets",
          "type": "uint256"
        }
      ],
      "name": "previewWithdraw",
      "outputs": [
        {
          "internalType": "uint256",
          "name": "",
          "type": "uint256"
        }
      ],
      "stateMutability": "view",
      "type": "function"
    },
    {
      "inputs": [
        {
          "internalType": "uint256",
          "name": "shares",
          "type": "uint256"
        },
        {
          "internalType": "address",
          "name": "receiver",
          "type": "address"
        },
        {
          "internalType": "address",
          "name": "owner",
          "type": "address"
        }
      ],
      "name": "redeem",
      "outputs": [
        {
          "internalType": "uint256",
          "name": "",
          "type": "uint256"
        }
      ],
      "stateMutability": "nonpayable",
      "type": "function"
    },
    {
      "inputs": [
        {
          "internalType": "uint256",
          "name": "amount",
          "type": "uint256"
        }
      ],
      "name": "simulateGains",
      "outputs": [],
      "stateMutability": "nonpayable",
      "type": "function"
    },
    {
      "inputs": [
        {
          "internalType": "uint256",
          "name": "amount",
          "type": "uint256"
        },
        {
          "internalType": "address",
          "name": "to",
          "type": "address"
        }
      ],
      "name": "simulateLosses",
      "outputs": [],
      "stateMutability": "nonpayable",
      "type": "function"
    },
    {
      "inputs": [],
      "name": "symbol",
      "outputs": [
        {
          "internalType": "string",
          "name": "",
          "type": "string"
        }
      ],
      "stateMutability": "view",
      "type": "function"
    },
    {
      "inputs": [],
      "name": "totalAssets",
      "outputs": [
        {
          "internalType": "uint256",
          "name": "",
          "type": "uint256"
        }
      ],
      "stateMutability": "view",
      "type": "function"
    },
    {
      "inputs": [],
      "name": "totalSupply",
      "outputs": [
        {
          "internalType": "uint256",
          "name": "",
          "type": "uint256"
        }
      ],
      "stateMutability": "view",
      "type": "function"
    },
    {
      "inputs": [
        {
          "internalType": "address",
          "name": "to",
          "type": "address"
        },
        {
          "internalType": "uint256",
          "name": "value",
          "type": "uint256"
        }
      ],
      "name": "transfer",
      "outputs": [
        {
          "internalType": "bool",
          "name": "",
          "type": "bool"
        }
      ],
      "stateMutability": "nonpayable",
      "type": "function"
    },
    {
      "inputs": [
        {
          "internalType": "address",
          "name": "from",
          "type": "address"
        },
        {
          "internalType": "address",
          "name": "to",
          "type": "address"
        },
        {
          "internalType": "uint256",
          "name": "value",
          "type": "uint256"
        }
      ],
      "name": "transferFrom",
      "outputs": [
        {
          "internalType": "bool",
          "name": "",
          "type": "bool"
        }
      ],
      "stateMutability": "nonpayable",
      "type": "function"
    },
    {
      "inputs": [
        {
          "internalType": "uint256",
          "name": "assets",
          "type": "uint256"
        },
        {
          "internalType": "address",
          "name": "receiver",
          "type": "address"
        },
        {
          "internalType": "address",
          "name": "owner",
          "type": "address"
        }
      ],
      "name": "withdraw",
      "outputs": [
        {
          "internalType": "uint256",
          "name": "",
          "type": "uint256"
        }
      ],
      "stateMutability": "nonpayable",
      "type": "function"
    }
  ],
  "bytecode": "0x60c060405234801561000f575f5ffd5b5060405161167338038061167383398101604081905261002e91610200565b828282600361003d8382610306565b50600461004a8282610306565b5050505f5f61005e8361008d60201b60201c565b915091508161006e576012610070565b805b60ff1660a05250506001600160a01b0316608052506103ed915050565b60408051600481526024810182526020810180516001600160e01b031663313ce56760e01b17905290515f918291829182916001600160a01b038716916100d3916103c0565b5f60405180830381855afa9150503d805f811461010b576040519150601f19603f3d011682016040523d82523d5f602084013e610110565b606091505b509150915081801561012457506020815110155b15610157575f8180602001905181019061013e91906103d6565b905060ff8111610155576001969095509350505050565b505b505f9485945092505050565b634e487b7160e01b5f52604160045260245ffd5b5f82601f830112610186575f5ffd5b81516001600160401b0381111561019f5761019f610163565b604051601f8201601f19908116603f011681016001600160401b03811182821017156101cd576101cd610163565b6040528181528382016020018510156101e4575f5ffd5b8160208501602083015e5f918101602001919091529392505050565b5f5f5f60608486031215610212575f5ffd5b83516001600160a01b0381168114610228575f5ffd5b60208501519093506001600160401b03811115610243575f5ffd5b61024f86828701610177565b604086015190935090506001600160401b0381111561026c575f5ffd5b61027886828701610177565b9150509250925092565b600181811c9082168061029657607f821691505b6020821081036102b457634e487b7160e01b5f52602260045260245ffd5b50919050565b601f82111561030157805f5260205f20601f840160051c810160208510156102df5750805b601f840160051c820191505b818110156102fe575f81556001016102eb565b50505b505050565b81516001600160401b0381111561031f5761031f610163565b6103338161032d8454610282565b846102ba565b6020601f821160018114610365575f831561034e5750848201515b5f19600385901b1c1916600184901b1784556102fe565b5f84815260208120601f198516915b828110156103945787850151825560209485019460019092019101610374565b50848210156103b157868401515f19600387901b60f8161c191681555b50505050600190811b01905550565b5f82518060208501845e5f920191825250919050565b5f602082840312156103e6575f5ffd5b5051919050565b60805160a05161126561040e5f395f61048a01525f61052a01526112655ff3fe608060405234801561000f575f5ffd5b5060043610610147575f3560e01c806301e1d1141461014b57806306fdde031461016657806307a2d13a1461017b578063095ea7b31461018e5780630a28a477146101b157806318160ddd146101c457806323b872dd146101cc578063313ce567146101df57806338a34305146101f957806338d52e0f1461020e578063402d267d146102235780634cdad5061461017b5780636e553f651461023657806370a082311461024957806394bf804d1461025c57806395d89b411461026f578063a9059cbb14610277578063b3d7f6b91461028a578063b460af941461029d578063b820104d146102b0578063ba087652146102c3578063c63d75b614610223578063c6e6f592146102d6578063ce96cb77146102e9578063d905777e146102fc578063dd62ed3e1461030f578063ef8b30f7146102d6575b5f5ffd5b610153610322565b6040519081526020015b60405180910390f35b61016e61039a565b60405161015d9190610e5c565b610153610189366004610e91565b61042a565b6101a161019c366004610ec3565b61043b565b604051901515815260200161015d565b6101536101bf366004610e91565b610452565b600254610153565b6101a16101da366004610eeb565b61045e565b6101e7610483565b60405160ff909116815260200161015d565b61020c610207366004610f25565b6104ae565b005b610216610528565b60405161015d9190610f4f565b610153610231366004610f63565b61054c565b610153610244366004610f25565b610552565b610153610257366004610f63565b6105af565b61015361026a366004610f25565b6105c9565b61016e610615565b6101a1610285366004610ec3565b610624565b610153610298366004610e91565b610631565b6101536102ab366004610f7c565b61063d565b61020c6102be366004610e91565b610693565b6101536102d1366004610f7c565b61070e565b6101536102e4366004610e91565b61075b565b6101536102f7366004610f63565b610766565b61015361030a366004610f63565b610779565b61015361031d366004610fb5565b610783565b5f61032b610528565b6001600160a01b03166370a08231306040518263ffffffff1660e01b81526004016103569190610f4f565b602060405180830381865afa158015610371573d5f5f3e3d5ffd5b505050506040513d601f19601f820116820180604052508101906103959190610fdd565b905090565b6060600380546103a990610ff4565b80601f01602080910402602001604051908101604052809291908181526020018280546103d590610ff4565b80156104205780601f106103f757610100808354040283529160200191610420565b820191905f5260205f20905b81548152906001019060200180831161040357829003601f168201915b5050505050905090565b5f610435825f6107ad565b92915050565b5f336104488185856107e5565b5060019392505050565b5f6104358260016107f2565b5f3361046b858285610821565b610476858585610872565b60019150505b9392505050565b5f610395817f0000000000000000000000000000000000000000000000000000000000000000611040565b6104b6610528565b6001600160a01b031663a9059cbb82846040518363ffffffff1660e01b81526004016104e3929190611059565b6020604051808303815f875af11580156104ff573d5f5f3e3d5ffd5b505050506040513d601f19601f820116820180604052508101906105239190611072565b505050565b7f000000000000000000000000000000000000000000000000000000000000000090565b505f1990565b5f5f61055d8361054c565b90508084111561058f57828482604051633c8097d960e11b815260040161058693929190611091565b60405180910390fd5b5f6105998561075b565b90506105a7338587846108cf565b949350505050565b6001600160a01b03165f9081526020819052604090205490565b5f5f6105d48361054c565b9050808411156105fd5782848260405163284ff66760e01b815260040161058693929190611091565b5f61060785610631565b90506105a7338583886108cf565b6060600480546103a990610ff4565b5f33610448818585610872565b5f6104358260016107ad565b5f5f61064883610766565b90508085111561067157828582604051633fa733bb60e21b815260040161058693929190611091565b5f61067b86610452565b905061068a3386868985610948565b95945050505050565b61069b610528565b6001600160a01b03166323b872dd3330846040518463ffffffff1660e01b81526004016106ca939291906110b2565b6020604051808303815f875af11580156106e6573d5f5f3e3d5ffd5b505050506040513d601f19601f8201168201806040525081019061070a9190611072565b5050565b5f5f61071983610779565b90508085111561074257828582604051632e52afbb60e21b815260040161058693929190611091565b5f61074c8661042a565b905061068a338686848a610948565b5f610435825f6107f2565b5f610435610773836105af565b5f6107ad565b5f610435826105af565b6001600160a01b039182165f90815260016020908152604080832093909416825291909152205490565b5f61047c6107b9610322565b6107c49060016110d6565b6107cf5f600a6111cc565b6002546107dc91906110d6565b859190856109ef565b6105238383836001610a31565b5f61047c61080182600a6111cc565b60025461080e91906110d6565b610816610322565b6107dc9060016110d6565b5f61082c8484610783565b90505f1981101561086c578181101561085e57828183604051637dc7a0d960e11b815260040161058693929190611091565b61086c84848484035f610a31565b50505050565b6001600160a01b03831661089b575f604051634b637e8f60e11b81526004016105869190610f4f565b6001600160a01b0382166108c4575f60405163ec442f0560e01b81526004016105869190610f4f565b610523838383610af5565b6108e26108da610528565b853085610c08565b6108ec8382610c62565b826001600160a01b0316846001600160a01b03167fdcbc1c05240f31ff3ad067ef1ee35ce4997762752e3a095284754544f4c709d7848460405161093a929190918252602082015260400190565b60405180910390a350505050565b826001600160a01b0316856001600160a01b03161461096c5761096c838683610821565b6109768382610c96565b610988610981610528565b8584610cca565b826001600160a01b0316846001600160a01b0316866001600160a01b03167ffbde797d201c681b91056529119e0b02407c7bb96a4a2c75c01fc9667232c8db85856040516109e0929190918252602082015260400190565b60405180910390a45050505050565b5f610a1c6109fc83610cf0565b8015610a1757505f8480610a1257610a126111da565b868809115b151590565b610a27868686610d1c565b61068a91906110d6565b6001600160a01b038416610a5a575f60405163e602df0560e01b81526004016105869190610f4f565b6001600160a01b038316610a83575f604051634a1406b160e11b81526004016105869190610f4f565b6001600160a01b038085165f908152600160209081526040808320938716835292905220829055801561086c57826001600160a01b0316846001600160a01b03167f8c5be1e5ebec7d5bd14f71427d1e84f3dd0314c0f7b2291e5b200ac8c7c3b9258460405161093a91815260200190565b6001600160a01b038316610b1f578060025f828254610b1491906110d6565b90915550610b7c9050565b6001600160a01b0383165f9081526020819052604090205481811015610b5e5783818360405163391434e360e21b815260040161058693929190611091565b6001600160a01b0384165f9081526020819052604090209082900390555b6001600160a01b038216610b9857600280548290039055610bb6565b6001600160a01b0382165f9081526020819052604090208054820190555b816001600160a01b0316836001600160a01b03167fddf252ad1be2c89b69c2b068fc378daa952ba7f163c4a11628f55a4df523b3ef83604051610bfb91815260200190565b60405180910390a3505050565b61086c84856001600160a01b03166323b872dd868686604051602401610c30939291906110b2565b604051602081830303815290604052915060e01b6020820180516001600160e01b038381831617835250505050610dcc565b6001600160a01b038216610c8b575f60405163ec442f0560e01b81526004016105869190610f4f565b61070a5f8383610af5565b6001600160a01b038216610cbf575f604051634b637e8f60e11b81526004016105869190610f4f565b61070a825f83610af5565b61052383846001600160a01b031663a9059cbb8585604051602401610c30929190611059565b5f6002826003811115610d0557610d056111ee565b610d0f9190611202565b60ff166001149050919050565b5f5f5f610d298686610e2f565b91509150815f03610d4d57838181610d4357610d436111da565b049250505061047c565b818411610d6457610d646003851502601118610e4b565b5f848688095f868103871696879004966002600389028118808a02820302808a02820302808a02820302808a02820302808a02820302808a02909103029181900381900460010185841190960395909502919093039390930492909217029150509392505050565b5f5f60205f8451602086015f885af180610deb576040513d5f823e3d81fd5b50505f513d91508115610e02578060011415610e0f565b6001600160a01b0384163b155b1561086c5783604051635274afe760e01b81526004016105869190610f4f565b5f805f1983850993909202808410938190039390930393915050565b634e487b715f52806020526024601cfd5b602081525f82518060208401528060208501604085015e5f604082850101526040601f19601f83011684010191505092915050565b5f60208284031215610ea1575f5ffd5b5035919050565b80356001600160a01b0381168114610ebe575f5ffd5b919050565b5f5f60408385031215610ed4575f5ffd5b610edd83610ea8565b946020939093013593505050565b5f5f5f60608486031215610efd575f5ffd5b610f0684610ea8565b9250610f1460208501610ea8565b929592945050506040919091013590565b5f5f60408385031215610f36575f5ffd5b82359150610f4660208401610ea8565b90509250929050565b6001600160a01b0391909116815260200190565b5f60208284031215610f73575f5ffd5b61047c82610ea8565b5f5f5f60608486031215610f8e575f5ffd5b83359250610f9e60208501610ea8565b9150610fac60408501610ea8565b90509250925092565b5f5f60408385031215610fc6575f5ffd5b610fcf83610ea8565b9150610f4660208401610ea8565b5f60208284031215610fed575f5ffd5b5051919050565b600181811c9082168061100857607f821691505b60208210810361102657634e487b7160e01b5f52602260045260245ffd5b50919050565b634e487b7160e01b5f52601160045260245ffd5b60ff81811683821601908111156104355761043561102c565b6001600160a01b03929092168252602082015260400190565b5f60208284031215611082575f5ffd5b8151801515811461047c575f5ffd5b6001600160a01b039390931683526020830191909152604082015260600190565b6001600160a01b039384168152919092166020820152604081019190915260600190565b808201808211156104355761043561102c565b6001815b6001841115611124578085048111156111085761110861102c565b600184161561111657908102905b60019390931c9280026110ed565b935093915050565b5f8261113a57506001610435565b8161114657505f610435565b816001811461115c576002811461116657611182565b6001915050610435565b60ff8411156111775761117761102c565b50506001821b610435565b5060208310610133831016604e8410600b84101617156111a5575081810a610435565b6111b15f1984846110e9565b805f19048211156111c4576111c461102c565b029392505050565b5f61047c60ff84168361112c565b634e487b7160e01b5f52601260045260245ffd5b634e487b7160e01b5f52602160045260245ffd5b5f60ff83168061122057634e487b7160e01b5f52601260045260245ffd5b8060ff8416069150509291505056fea264697066735822122018ab9367ffdcfb1fd1a52a10528116d19722be7b62d8f5f9defedea1cee0e76964736f6c634300081c0033",
  "linkReferences": {},
  "deployedLinkReferences": {}
}