{
  "_format": "hh-sol-artifact-1",
  "contractName": "MarketOracle",
  "sourceName": "contracts/MarketOracle.sol",
  "abi": [
    {
      "inputs": [
        {
          "internalType": "address",
          "name": "target",
          "type": "address"
        }
      ],
      "name": "AddressEmptyCode",
      "type": "error"
    },
    {
      "inputs": [
        {
          "internalType": "address",
          "name": "implementation",
          "type": "address"
        }
      ],
      "name": "ERC1967InvalidImplementation",
      "type": "error"
    },
    {
      "inputs": [],
      "name": "ERC1967NonPayable",
      "type": "error"
    },
    {
      "inputs": [],
      "name": "FailedCall",
      "type": "error"
    },
    {
      "inputs": [],
      "name": "InvalidInitialization",
      "type": "error"
    },
    {
      "inputs": [],
      "name": "NotInitializing",
      "type": "error"
    },
    {
      "inputs": [
        {
          "internalType": "address",
          "name": "owner",
          "type": "address"
        }
      ],
      "name": "OwnableInvalidOwner",
      "type": "error"
    },
    {
      "inputs": [
        {
          "internalType": "address",
          "name": "account",
          "type": "address"
        }
      ],
      "name": "OwnableUnauthorizedAccount",
      "type": "error"
    },
    {
      "inputs": [],
      "name": "UUPSUnauthorizedCallContext",
      "type": "error"
    },
    {
      "inputs": [
        {
          "internalType": "bytes32",
          "name": "slot",
          "type": "bytes32"
        }
      ],
      "name": "UUPSUnsupportedProxiableUUID",
      "type": "error"
    },
    {
      "anonymous": false,
      "inputs": [
        {
          "indexed": false,
          "internalType": "uint64",
          "name": "version",
          "type": "uint64"
        }
      ],
      "name": "Initialized",
      "type": "event"
    },
    {
      "anonymous": false,
      "inputs": [
        {
          "indexed": true,
          "internalType": "address",
          "name": "previousOwner",
          "type": "address"
        },
        {
          "indexed": true,
          "internalType": "address",
          "name": "newOwner",
          "type": "address"
        }
      ],
      "name": "OwnershipTransferStarted",
      "type": "event"
    },
    {
      "anonymous": false,
      "inputs": [
        {
          "indexed": true,
          "internalType": "address",
          "name": "previousOwner",
          "type": "address"
        },
        {
          "indexed": true,
          "internalType": "address",
          "name": "newOwner",
          "type": "address"
        }
      ],
      "name": "OwnershipTransferred",
      "type": "event"
    },
    {
      "anonymous": false,
      "inputs": [
        {
          "indexed": true,
          "internalType": "address",
          "name": "implementation",
          "type": "address"
        }
      ],
      "name": "Upgraded",
      "type": "event"
    },
    {
      "inputs": [],
      "name": "UPGRADE_INTERFACE_VERSION",
      "outputs": [
        {
          "internalType": "string",
          "name": "",
          "type": "string"
        }
      ],
      "stateMutability": "view",
      "type": "function"
    },
    {
      "inputs": [],
      "name": "acceptOwnership",
      "outputs": [],
      "stateMutability": "nonpayable",
      "type": "function"
    },
    {
      "inputs": [],
      "name": "getPrices",
      "outputs": [
        {
          "internalType": "uint256[]",
          "name": "previousPriceArray",
          "type": "uint256[]"
        },
        {
          "internalType": "uint256[]",
          "name": "currentPriceArray",
          "type": "uint256[]"
        }
      ],
      "stateMutability": "view",
      "type": "function"
    },
    {
      "inputs": [
        {
          "internalType": "address",
          "name": "initialOwner",
          "type": "address"
        }
      ],
      "name": "initialize",
      "outputs": [],
      "stateMutability": "nonpayable",
      "type": "function"
    },
    {
      "inputs": [],
      "name": "owner",
      "outputs": [
        {
          "internalType": "address",
          "name": "",
          "type": "address"
        }
      ],
      "stateMutability": "view",
      "type": "function"
    },
    {
      "inputs": [],
      "name": "pendingOwner",
      "outputs": [
        {
          "internalType": "address",
          "name": "",
          "type": "address"
        }
      ],
      "stateMutability": "view",
      "type": "function"
    },
    {
      "inputs": [
        {
          "internalType": "uint256",
          "name": "",
          "type": "uint256"
        }
      ],
      "name": "prices",
      "outputs": [
        {
          "internalType": "uint256",
          "name": "previous",
          "type": "uint256"
        },
        {
          "internalType": "uint256",
          "name": "current",
          "type": "uint256"
        }
      ],
      "stateMutability": "view",
      "type": "function"
    },
    {
      "inputs": [],
      "name": "proxiableUUID",
      "outputs": [
        {
          "internalType": "bytes32",
          "name": "",
          "type": "bytes32"
        }
      ],
      "stateMutability": "view",
      "type": "function"
    },
    {
      "inputs": [],
      "name": "renounceOwnership",
      "outputs": [],
      "stateMutability": "nonpayable",
      "type": "function"
    },
    {
      "inputs": [
        {
          "internalType": "address",
          "name": "newOwner",
          "type": "address"
        }
      ],
      "name": "transferOwnership",
      "outputs": [],
      "stateMutability": "nonpayable",
      "type": "function"
    },
    {
      "inputs": [
        {
          "internalType": "address",
          "name": "newImplementation",
          "type": "address"
        },
        {
          "internalType": "bytes",
          "name": "data",
          "type": "bytes"
        }
      ],
      "name": "upgradeToAndCall",
      "outputs": [],
      "stateMutability": "payable",
      "type": "function"
    }
  ],
  "bytecode": "0x60a06040523073ffffffffffffffffffffffffffffffffffffffff1660809073ffffffffffffffffffffffffffffffffffffffff168152503480156041575f80fd5b506080516117926100685f395f81816108fe015281816109530152610b4901526117925ff3fe60806040526004361061009b575f3560e01c8063ad3cb1cc11610063578063ad3cb1cc1461013b578063bc31c1c114610165578063bd9a548b146101a2578063c4d66de8146101cd578063e30c3978146101f5578063f2fde38b1461021f5761009b565b80634f1ef2861461009f57806352d1902d146100bb578063715018a6146100e557806379ba5097146100fb5780638da5cb5b14610111575b5f80fd5b6100b960048036038101906100b49190611334565b610247565b005b3480156100c6575f80fd5b506100cf610266565b6040516100dc91906113a6565b60405180910390f35b3480156100f0575f80fd5b506100f9610297565b005b348015610106575f80fd5b5061010f6102aa565b005b34801561011c575f80fd5b50610125610338565b60405161013291906113ce565b60405180910390f35b348015610146575f80fd5b5061014f61036d565b60405161015c9190611447565b60405180910390f35b348015610170575f80fd5b5061018b6004803603810190610186919061149a565b6103a6565b6040516101999291906114d4565b60405180910390f35b3480156101ad575f80fd5b506101b66103d4565b6040516101c49291906115b2565b60405180910390f35b3480156101d8575f80fd5b506101f360048036038101906101ee91906115e7565b6105c9565b005b348015610200575f80fd5b5061020961080e565b60405161021691906113ce565b60405180910390f35b34801561022a575f80fd5b50610245600480360381019061024091906115e7565b610843565b005b61024f6108fc565b610258826109e2565b6102628282610a29565b5050565b5f61026f610b47565b7f360894a13ba1a3210667c828492db98dca3e2076cc3735a920a3ca505d382bbc5f1b905090565b61029f610bce565b6102a85f610c55565b565b5f6102b3610c92565b90508073ffffffffffffffffffffffffffffffffffffffff166102d461080e565b73ffffffffffffffffffffffffffffffffffffffff161461032c57806040517f118cdaa700000000000000000000000000000000000000000000000000000000815260040161032391906113ce565b60405180910390fd5b61033581610c55565b50565b5f80610342610c99565b9050805f015f9054906101000a900473ffffffffffffffffffffffffffffffffffffffff1691505090565b6040518060400160405280600581526020017f352e302e3000000000000000000000000000000000000000000000000000000081525081565b5f81815481106103b4575f80fd5b905f5260205f2090600202015f91509050805f0154908060010154905082565b6060806103eb6716b92fb04dfbbfa860c01b610cc0565b6103ff679c436a1a391f023560c01b610cc0565b600267ffffffffffffffff81111561041a57610419611210565b5b6040519080825280602002602001820160405280156104485781602001602082028036833780820191505090505b50915061045f670f643fb550469bbc60c01b610cc0565b600267ffffffffffffffff81111561047a57610479611210565b5b6040519080825280602002602001820160405280156104a85781602001602082028036833780820191505090505b5090506104bf674299bb6e82ead14c60c01b610cc0565b670de0b6b3a7640000825f815181106104db576104da611612565b5b6020026020010181815250506104fb67422a75b5a86ca31e60c01b610cc0565b670de0b6b3a76400008260018151811061051857610517611612565b5b60200260200101818152505061053867ddb8092430dac72660c01b610cc0565b670de0b6b3a7640000815f8151811061055457610553611612565b5b60200260200101818152505061057467b03a8640f54a996660c01b610cc0565b670de0b6b3a76400008160018151811061059157610590611612565b5b6020026020010181815250506105b167f7a051805b282ceb60c01b610cc0565b6105c56794fca8393a663ed560c01b610cc0565b9091565b6105dd67a0a8f43b55502b4660c01b610cc0565b5f6105e6610cc3565b90505f815f0160089054906101000a900460ff161590505f825f015f9054906101000a900467ffffffffffffffff1690505f808267ffffffffffffffff1614801561062e5750825b90505f60018367ffffffffffffffff1614801561066157505f3073ffffffffffffffffffffffffffffffffffffffff163b145b90508115801561066f575080155b156106a6576040517ff92ee8a900000000000000000000000000000000000000000000000000000000815260040160405180910390fd5b6001855f015f6101000a81548167ffffffffffffffff021916908367ffffffffffffffff16021790555083156106f3576001855f0160086101000a81548160ff0219169083151502179055505b61070767c5546749b5e4737460c01b610cc0565b61071b67d38ee85af541971a60c01b610cc0565b61072f673fa7fcb13cf83b5b60c01b610cc0565b61074367fae61d3392c6ffe860c01b610cc0565b61074b610cd6565b61075f67fc607f1da7f09ae560c01b610cc0565b610773671dbd8c416ff7e3ba60c01b610cc0565b61077b610ce0565b61078f67b6668dbb65493cf460c01b610cc0565b6107a3678466db999502103460c01b610cc0565b6107ac86610c55565b8315610806575f855f0160086101000a81548160ff0219169083151502179055507fc7f505b2f371ae2175ee4913f4499e1f2633a7b5936321eed1cdaeb6115181d260016040516107fd9190611694565b60405180910390a15b505050505050565b5f80610818610cea565b9050805f015f9054906101000a900473ffffffffffffffffffffffffffffffffffffffff1691505090565b61084b610bce565b5f610854610cea565b905081815f015f6101000a81548173ffffffffffffffffffffffffffffffffffffffff021916908373ffffffffffffffffffffffffffffffffffffffff1602179055508173ffffffffffffffffffffffffffffffffffffffff166108b6610338565b73ffffffffffffffffffffffffffffffffffffffff167f38d16b8cac22d99fc7c124b9cd0de2d3fa1faef420bfe791d8c362d765e2270060405160405180910390a35050565b7f000000000000000000000000000000000000000000000000000000000000000073ffffffffffffffffffffffffffffffffffffffff163073ffffffffffffffffffffffffffffffffffffffff1614806109a957507f000000000000000000000000000000000000000000000000000000000000000073ffffffffffffffffffffffffffffffffffffffff16610990610d11565b73ffffffffffffffffffffffffffffffffffffffff1614155b156109e0576040517fe07c8dba00000000000000000000000000000000000000000000000000000000815260040160405180910390fd5b565b6109f667b53b821dcd96f3e460c01b610cc0565b6109fe610bce565b610a12674f195ce57247c66360c01b610cc0565b610a26674b1076bc3c842d6160c01b610cc0565b50565b8173ffffffffffffffffffffffffffffffffffffffff166352d1902d6040518163ffffffff1660e01b8152600401602060405180830381865afa925050508015610a9157506040513d601f19601f82011682018060405250810190610a8e91906116d7565b60015b610ad257816040517f4c9c8ce3000000000000000000000000000000000000000000000000000000008152600401610ac991906113ce565b60405180910390fd5b7f360894a13ba1a3210667c828492db98dca3e2076cc3735a920a3ca505d382bbc5f1b8114610b3857806040517faa1d49a4000000000000000000000000000000000000000000000000000000008152600401610b2f91906113a6565b60405180910390fd5b610b428383610d64565b505050565b7f000000000000000000000000000000000000000000000000000000000000000073ffffffffffffffffffffffffffffffffffffffff163073ffffffffffffffffffffffffffffffffffffffff1614610bcc576040517fe07c8dba00000000000000000000000000000000000000000000000000000000815260040160405180910390fd5b565b610bd6610c92565b73ffffffffffffffffffffffffffffffffffffffff16610bf4610338565b73ffffffffffffffffffffffffffffffffffffffff1614610c5357610c17610c92565b6040517f118cdaa7000000000000000000000000000000000000000000000000000000008152600401610c4a91906113ce565b60405180910390fd5b565b5f610c5e610cea565b9050805f015f6101000a81549073ffffffffffffffffffffffffffffffffffffffff0219169055610c8e82610dd6565b5050565b5f33905090565b5f7f9016d09d72d40fdae2fd8ceac6b6234c7706214fd39c1cd1e609a0528c199300905090565b50565b5f80610ccd610ea7565b90508091505090565b610cde610ed0565b565b610ce8610ed0565b565b5f7f237e158222e3e6968b72b9db0d8043aacf074ad9f650f0d1606b4d82ee432c00905090565b5f610d3d7f360894a13ba1a3210667c828492db98dca3e2076cc3735a920a3ca505d382bbc5f1b610f10565b5f015f9054906101000a900473ffffffffffffffffffffffffffffffffffffffff16905090565b610d6d82610f19565b8173ffffffffffffffffffffffffffffffffffffffff167fbc7cd75a20ee27fd9adebab32041f755214dbc6bffa90cc0225b39da2e5c2d3b60405160405180910390a25f81511115610dc957610dc38282610fe2565b50610dd2565b610dd1611062565b5b5050565b5f610ddf610c99565b90505f815f015f9054906101000a900473ffffffffffffffffffffffffffffffffffffffff16905082825f015f6101000a81548173ffffffffffffffffffffffffffffffffffffffff021916908373ffffffffffffffffffffffffffffffffffffffff1602179055508273ffffffffffffffffffffffffffffffffffffffff168173ffffffffffffffffffffffffffffffffffffffff167f8be0079c531659141344cd1fd0a4f28419497f9722a3daafe3b4186f6b6457e060405160405180910390a3505050565b5f7ff0c57e16840df040f15088dc2f81fe391c3923bec73e23a9662efc9c229c6a005f1b905090565b610ed861109e565b610f0e576040517fd7e6bcf800000000000000000000000000000000000000000000000000000000815260040160405180910390fd5b565b5f819050919050565b5f8173ffffffffffffffffffffffffffffffffffffffff163b03610f7457806040517f4c9c8ce3000000000000000000000000000000000000000000000000000000008152600401610f6b91906113ce565b60405180910390fd5b80610fa07f360894a13ba1a3210667c828492db98dca3e2076cc3735a920a3ca505d382bbc5f1b610f10565b5f015f6101000a81548173ffffffffffffffffffffffffffffffffffffffff021916908373ffffffffffffffffffffffffffffffffffffffff16021790555050565b60605f808473ffffffffffffffffffffffffffffffffffffffff168460405161100b9190611746565b5f60405180830381855af49150503d805f8114611043576040519150601f19603f3d011682016040523d82523d5f602084013e611048565b606091505b50915091506110588583836110bc565b9250505092915050565b5f34111561109c576040517fb398979f00000000000000000000000000000000000000000000000000000000815260040160405180910390fd5b565b5f6110a7610cc3565b5f0160089054906101000a900460ff16905090565b6060826110d1576110cc82611149565b611141565b5f82511480156110f757505f8473ffffffffffffffffffffffffffffffffffffffff163b145b1561113957836040517f9996b31500000000000000000000000000000000000000000000000000000000815260040161113091906113ce565b60405180910390fd5b819050611142565b5b9392505050565b5f8151111561115b5780518082602001fd5b6040517fd6bda27500000000000000000000000000000000000000000000000000000000815260040160405180910390fd5b5f604051905090565b5f80fd5b5f80fd5b5f73ffffffffffffffffffffffffffffffffffffffff82169050919050565b5f6111c78261119e565b9050919050565b6111d7816111bd565b81146111e1575f80fd5b50565b5f813590506111f2816111ce565b92915050565b5f80fd5b5f80fd5b5f601f19601f8301169050919050565b7f4e487b71000000000000000000000000000000000000000000000000000000005f52604160045260245ffd5b61124682611200565b810181811067ffffffffffffffff8211171561126557611264611210565b5b80604052505050565b5f61127761118d565b9050611283828261123d565b919050565b5f67ffffffffffffffff8211156112a2576112a1611210565b5b6112ab82611200565b9050602081019050919050565b828183375f83830152505050565b5f6112d86112d384611288565b61126e565b9050828152602081018484840111156112f4576112f36111fc565b5b6112ff8482856112b8565b509392505050565b5f82601f83011261131b5761131a6111f8565b5b813561132b8482602086016112c6565b91505092915050565b5f806040838503121561134a57611349611196565b5b5f611357858286016111e4565b925050602083013567ffffffffffffffff8111156113785761137761119a565b5b61138485828601611307565b9150509250929050565b5f819050919050565b6113a08161138e565b82525050565b5f6020820190506113b95f830184611397565b92915050565b6113c8816111bd565b82525050565b5f6020820190506113e15f8301846113bf565b92915050565b5f81519050919050565b5f82825260208201905092915050565b8281835e5f83830152505050565b5f611419826113e7565b61142381856113f1565b9350611433818560208601611401565b61143c81611200565b840191505092915050565b5f6020820190508181035f83015261145f818461140f565b905092915050565b5f819050919050565b61147981611467565b8114611483575f80fd5b50565b5f8135905061149481611470565b92915050565b5f602082840312156114af576114ae611196565b5b5f6114bc84828501611486565b91505092915050565b6114ce81611467565b82525050565b5f6040820190506114e75f8301856114c5565b6114f460208301846114c5565b9392505050565b5f81519050919050565b5f82825260208201905092915050565b5f819050602082019050919050565b61152d81611467565b82525050565b5f61153e8383611524565b60208301905092915050565b5f602082019050919050565b5f611560826114fb565b61156a8185611505565b935061157583611515565b805f5b838110156115a557815161158c8882611533565b97506115978361154a565b925050600181019050611578565b5085935050505092915050565b5f6040820190508181035f8301526115ca8185611556565b905081810360208301526115de8184611556565b90509392505050565b5f602082840312156115fc576115fb611196565b5b5f611609848285016111e4565b91505092915050565b7f4e487b71000000000000000000000000000000000000000000000000000000005f52603260045260245ffd5b5f819050919050565b5f67ffffffffffffffff82169050919050565b5f819050919050565b5f61167e6116796116748461163f565b61165b565b611648565b9050919050565b61168e81611664565b82525050565b5f6020820190506116a75f830184611685565b92915050565b6116b68161138e565b81146116c0575f80fd5b50565b5f815190506116d1816116ad565b92915050565b5f602082840312156116ec576116eb611196565b5b5f6116f9848285016116c3565b91505092915050565b5f81519050919050565b5f81905092915050565b5f61172082611702565b61172a818561170c565b935061173a818560208601611401565b80840191505092915050565b5f6117518284611716565b91508190509291505056fea26469706673582212207a88d17ceba3ff7194fa493f75e7faec8ab0ada01c07d9ecaacbba0db9600d7864736f6c634300081a0033",
  "linkReferences": {},
  "deployedLinkReferences": {}
}