{
  "_format": "hh-sol-artifact-1",
  "contractName": "MarketOracle",
  "sourceName": "contracts/MarketOracle.sol",
  "abi": [
    {
      "inputs": [],
      "stateMutability": "nonpayable",
      "type": "constructor"
    },
    {
      "inputs": [
        {
          "internalType": "address",
          "name": "owner",
          "type": "address"
        }
      ],
      "name": "OwnableInvalidOwner",
      "type": "error"
    },
    {
      "inputs": [
        {
          "internalType": "address",
          "name": "account",
          "type": "address"
        }
      ],
      "name": "OwnableUnauthorizedAccount",
      "type": "error"
    },
    {
      "anonymous": false,
      "inputs": [
        {
          "indexed": true,
          "internalType": "address",
          "name": "previousOwner",
          "type": "address"
        },
        {
          "indexed": true,
          "internalType": "address",
          "name": "newOwner",
          "type": "address"
        }
      ],
      "name": "OwnershipTransferStarted",
      "type": "event"
    },
    {
      "anonymous": false,
      "inputs": [
        {
          "indexed": true,
          "internalType": "address",
          "name": "previousOwner",
          "type": "address"
        },
        {
          "indexed": true,
          "internalType": "address",
          "name": "newOwner",
          "type": "address"
        }
      ],
      "name": "OwnershipTransferred",
      "type": "event"
    },
    {
      "inputs": [],
      "name": "acceptOwnership",
      "outputs": [],
      "stateMutability": "nonpayable",
      "type": "function"
    },
    {
      "inputs": [],
      "name": "getPrices",
      "outputs": [
        {
          "components": [
            {
              "internalType": "uint256",
              "name": "previous",
              "type": "uint256"
            },
            {
              "internalType": "uint256",
              "name": "current",
              "type": "uint256"
            }
          ],
          "internalType": "struct MarketOracle.Price[]",
          "name": "",
          "type": "tuple[]"
        }
      ],
      "stateMutability": "view",
      "type": "function"
    },
    {
      "inputs": [],
      "name": "owner",
      "outputs": [
        {
          "internalType": "address",
          "name": "",
          "type": "address"
        }
      ],
      "stateMutability": "view",
      "type": "function"
    },
    {
      "inputs": [],
      "name": "pendingOwner",
      "outputs": [
        {
          "internalType": "address",
          "name": "",
          "type": "address"
        }
      ],
      "stateMutability": "view",
      "type": "function"
    },
    {
      "inputs": [
        {
          "internalType": "uint256",
          "name": "",
          "type": "uint256"
        }
      ],
      "name": "prices",
      "outputs": [
        {
          "internalType": "uint256",
          "name": "previous",
          "type": "uint256"
        },
        {
          "internalType": "uint256",
          "name": "current",
          "type": "uint256"
        }
      ],
      "stateMutability": "view",
      "type": "function"
    },
    {
      "inputs": [],
      "name": "renounceOwnership",
      "outputs": [],
      "stateMutability": "nonpayable",
      "type": "function"
    },
    {
      "inputs": [
        {
          "internalType": "address",
          "name": "newOwner",
          "type": "address"
        }
      ],
      "name": "transferOwnership",
      "outputs": [],
      "stateMutability": "nonpayable",
      "type": "function"
    }
  ],
  "bytecode": "0x6080604052348015600e575f80fd5b503380603357604051631e4fbdf760e01b81525f600482015260240160405180910390fd5b603a81603f565b5060a8565b600180546001600160a01b03191690556056816059565b50565b5f80546001600160a01b038381166001600160a01b0319831681178455604051919092169283917f8be0079c531659141344cd1fd0a4f28419497f9722a3daafe3b4186f6b6457e09190a35050565b610448806100b55f395ff3fe608060405234801561000f575f80fd5b506004361061007a575f3560e01c8063bc31c1c111610058578063bc31c1c1146100b9578063bd9a548b146100e1578063e30c3978146100f6578063f2fde38b14610107575f80fd5b8063715018a61461007e57806379ba5097146100885780638da5cb5b14610090575b5f80fd5b61008661011a565b005b61008661012d565b5f546001600160a01b03165b6040516001600160a01b0390911681526020015b60405180910390f35b6100cc6100c736600461036c565b610176565b604080519283526020830191909152016100b0565b6100e96101a2565b6040516100b09190610383565b6001546001600160a01b031661009c565b6100866101153660046103d1565b61026d565b6101226102dd565b61012b5f610309565b565b60015433906001600160a01b0316811461016a5760405163118cdaa760e01b81526001600160a01b03821660048201526024015b60405180910390fd5b61017381610309565b50565b60028181548110610185575f80fd5b5f9182526020909120600290910201805460019091015490915082565b60408051600280825260608281019093525f9190816020015b604080518082019091525f80825260208201528152602001906001900390816101bb5790505090506040518060400160405280670de0b6b3a76400008152602001670de0b6b3a7640000815250815f8151811061021a5761021a6103fe565b60200260200101819052506040518060400160405280670de0b6b3a76400008152602001670de0b6b3a76400008152508160018151811061025d5761025d6103fe565b6020908102919091010152919050565b6102756102dd565b600180546001600160a01b0383166001600160a01b031990911681179091556102a55f546001600160a01b031690565b6001600160a01b03167f38d16b8cac22d99fc7c124b9cd0de2d3fa1faef420bfe791d8c362d765e2270060405160405180910390a350565b5f546001600160a01b0316331461012b5760405163118cdaa760e01b8152336004820152602401610161565b600180546001600160a01b0319169055610173815f80546001600160a01b038381166001600160a01b0319831681178455604051919092169283917f8be0079c531659141344cd1fd0a4f28419497f9722a3daafe3b4186f6b6457e09190a35050565b5f6020828403121561037c575f80fd5b5035919050565b602080825282518282018190525f918401906040840190835b818110156103c657835180518452602090810151818501529093019260409092019160010161039c565b509095945050505050565b5f602082840312156103e1575f80fd5b81356001600160a01b03811681146103f7575f80fd5b9392505050565b634e487b7160e01b5f52603260045260245ffdfea26469706673582212208821c30f5ad89d719eac451fedc8548565f9da03fcef745a7f9c69287a14410564736f6c634300081a0033",
  "linkReferences": {},
  "deployedLinkReferences": {}
}