{
  "_format": "hh-sol-artifact-1",
  "contractName": "MarketOracle",
  "sourceName": "contracts/MarketOracle.sol",
  "abi": [
    {
      "inputs": [
        {
          "internalType": "address",
          "name": "target",
          "type": "address"
        }
      ],
      "name": "AddressEmptyCode",
      "type": "error"
    },
    {
      "inputs": [
        {
          "internalType": "address",
          "name": "implementation",
          "type": "address"
        }
      ],
      "name": "ERC1967InvalidImplementation",
      "type": "error"
    },
    {
      "inputs": [],
      "name": "ERC1967NonPayable",
      "type": "error"
    },
    {
      "inputs": [],
      "name": "FailedCall",
      "type": "error"
    },
    {
      "inputs": [],
      "name": "InvalidInitialization",
      "type": "error"
    },
    {
      "inputs": [],
      "name": "NotInitializing",
      "type": "error"
    },
    {
      "inputs": [
        {
          "internalType": "address",
          "name": "owner",
          "type": "address"
        }
      ],
      "name": "OwnableInvalidOwner",
      "type": "error"
    },
    {
      "inputs": [
        {
          "internalType": "address",
          "name": "account",
          "type": "address"
        }
      ],
      "name": "OwnableUnauthorizedAccount",
      "type": "error"
    },
    {
      "inputs": [],
      "name": "UUPSUnauthorizedCallContext",
      "type": "error"
    },
    {
      "inputs": [
        {
          "internalType": "bytes32",
          "name": "slot",
          "type": "bytes32"
        }
      ],
      "name": "UUPSUnsupportedProxiableUUID",
      "type": "error"
    },
    {
      "anonymous": false,
      "inputs": [
        {
          "indexed": false,
          "internalType": "uint64",
          "name": "version",
          "type": "uint64"
        }
      ],
      "name": "Initialized",
      "type": "event"
    },
    {
      "anonymous": false,
      "inputs": [
        {
          "indexed": true,
          "internalType": "address",
          "name": "previousOwner",
          "type": "address"
        },
        {
          "indexed": true,
          "internalType": "address",
          "name": "newOwner",
          "type": "address"
        }
      ],
      "name": "OwnershipTransferStarted",
      "type": "event"
    },
    {
      "anonymous": false,
      "inputs": [
        {
          "indexed": true,
          "internalType": "address",
          "name": "previousOwner",
          "type": "address"
        },
        {
          "indexed": true,
          "internalType": "address",
          "name": "newOwner",
          "type": "address"
        }
      ],
      "name": "OwnershipTransferred",
      "type": "event"
    },
    {
      "anonymous": false,
      "inputs": [
        {
          "indexed": true,
          "internalType": "address",
          "name": "implementation",
          "type": "address"
        }
      ],
      "name": "Upgraded",
      "type": "event"
    },
    {
      "inputs": [],
      "name": "UPGRADE_INTERFACE_VERSION",
      "outputs": [
        {
          "internalType": "string",
          "name": "",
          "type": "string"
        }
      ],
      "stateMutability": "view",
      "type": "function"
    },
    {
      "inputs": [],
      "name": "acceptOwnership",
      "outputs": [],
      "stateMutability": "nonpayable",
      "type": "function"
    },
    {
      "inputs": [],
      "name": "getPrices",
      "outputs": [
        {
          "internalType": "uint256[]",
          "name": "previousPriceArray",
          "type": "uint256[]"
        },
        {
          "internalType": "uint256[]",
          "name": "currentPriceArray",
          "type": "uint256[]"
        }
      ],
      "stateMutability": "pure",
      "type": "function"
    },
    {
      "inputs": [
        {
          "internalType": "address",
          "name": "initialOwner",
          "type": "address"
        }
      ],
      "name": "initialize",
      "outputs": [],
      "stateMutability": "nonpayable",
      "type": "function"
    },
    {
      "inputs": [],
      "name": "owner",
      "outputs": [
        {
          "internalType": "address",
          "name": "",
          "type": "address"
        }
      ],
      "stateMutability": "view",
      "type": "function"
    },
    {
      "inputs": [],
      "name": "pendingOwner",
      "outputs": [
        {
          "internalType": "address",
          "name": "",
          "type": "address"
        }
      ],
      "stateMutability": "view",
      "type": "function"
    },
    {
      "inputs": [
        {
          "internalType": "uint256",
          "name": "",
          "type": "uint256"
        }
      ],
      "name": "prices",
      "outputs": [
        {
          "internalType": "uint256",
          "name": "previous",
          "type": "uint256"
        },
        {
          "internalType": "uint256",
          "name": "current",
          "type": "uint256"
        }
      ],
      "stateMutability": "view",
      "type": "function"
    },
    {
      "inputs": [],
      "name": "proxiableUUID",
      "outputs": [
        {
          "internalType": "bytes32",
          "name": "",
          "type": "bytes32"
        }
      ],
      "stateMutability": "view",
      "type": "function"
    },
    {
      "inputs": [],
      "name": "renounceOwnership",
      "outputs": [],
      "stateMutability": "nonpayable",
      "type": "function"
    },
    {
      "inputs": [
        {
          "internalType": "address",
          "name": "newOwner",
          "type": "address"
        }
      ],
      "name": "transferOwnership",
      "outputs": [],
      "stateMutability": "nonpayable",
      "type": "function"
    },
    {
      "inputs": [
        {
          "internalType": "address",
          "name": "newImplementation",
          "type": "address"
        },
        {
          "internalType": "bytes",
          "name": "data",
          "type": "bytes"
        }
      ],
      "name": "upgradeToAndCall",
      "outputs": [],
      "stateMutability": "payable",
      "type": "function"
    }
  ],
  "bytecode": "0x60a0604052306080523480156012575f80fd5b50608051610cbc6100395f395f81816105c8015281816105f101526107350152610cbc5ff3fe60806040526004361061009a575f3560e01c8063ad3cb1cc11610062578063ad3cb1cc1461012e578063bc31c1c11461016b578063bd9a548b1461019f578063c4d66de8146101c1578063e30c3978146101e0578063f2fde38b146101f4575f80fd5b80634f1ef2861461009e57806352d1902d146100b3578063715018a6146100da57806379ba5097146100ee5780638da5cb5b14610102575b5f80fd5b6100b16100ac366004610a9e565b610213565b005b3480156100be575f80fd5b506100c7610232565b6040519081526020015b60405180910390f35b3480156100e5575f80fd5b506100b161024d565b3480156100f9575f80fd5b506100b1610260565b34801561010d575f80fd5b506101166102ad565b6040516001600160a01b0390911681526020016100d1565b348015610139575f80fd5b5061015e604051806040016040528060058152602001640352e302e360dc1b81525081565b6040516100d19190610b62565b348015610176575f80fd5b5061018a610185366004610b97565b6102e1565b604080519283526020830191909152016100d1565b3480156101aa575f80fd5b506101b361030c565b6040516100d1929190610be8565b3480156101cc575f80fd5b506100b16101db366004610c0c565b6103f2565b3480156101eb575f80fd5b50610116610510565b3480156101ff575f80fd5b506100b161020e366004610c0c565b610538565b61021b6105bd565b61022482610661565b61022e8282610669565b5050565b5f61023b61072a565b505f80516020610c6783398151915290565b610255610773565b61025e5f6107a5565b565b338061026a610510565b6001600160a01b0316146102a15760405163118cdaa760e01b81526001600160a01b03821660048201526024015b60405180910390fd5b6102aa816107a5565b50565b5f807f9016d09d72d40fdae2fd8ceac6b6234c7706214fd39c1cd1e609a0528c1993005b546001600160a01b031692915050565b5f81815481106102ef575f80fd5b5f9182526020909120600290910201805460019091015490915082565b6040805160028082526060808301845292839291906020830190803683375050604080516002808252606082018352939550929150602083019080368337019050509050670de0b6b3a7640000825f8151811061036b5761036b610c25565b602002602001018181525050670de0b6b3a76400008260018151811061039357610393610c25565b602002602001018181525050670de0b6b3a7640000815f815181106103ba576103ba610c25565b602002602001018181525050670de0b6b3a7640000816001815181106103e2576103e2610c25565b6020026020010181815250509091565b7ff0c57e16840df040f15088dc2f81fe391c3923bec73e23a9662efc9c229c6a008054600160401b810460ff16159067ffffffffffffffff165f811580156104375750825b90505f8267ffffffffffffffff1660011480156104535750303b155b905081158015610461575080155b1561047f5760405163f92ee8a960e01b815260040160405180910390fd5b845467ffffffffffffffff1916600117855583156104a957845460ff60401b1916600160401b1785555b6104b16107dd565b6104b96107dd565b6104c2866107a5565b831561050857845460ff60401b19168555604051600181527fc7f505b2f371ae2175ee4913f4499e1f2633a7b5936321eed1cdaeb6115181d29060200160405180910390a15b505050505050565b5f807f237e158222e3e6968b72b9db0d8043aacf074ad9f650f0d1606b4d82ee432c006102d1565b610540610773565b7f237e158222e3e6968b72b9db0d8043aacf074ad9f650f0d1606b4d82ee432c0080546001600160a01b0319166001600160a01b03831690811782556105846102ad565b6001600160a01b03167f38d16b8cac22d99fc7c124b9cd0de2d3fa1faef420bfe791d8c362d765e2270060405160405180910390a35050565b306001600160a01b037f000000000000000000000000000000000000000000000000000000000000000016148061064357507f00000000000000000000000000000000000000000000000000000000000000006001600160a01b03166106375f80516020610c67833981519152546001600160a01b031690565b6001600160a01b031614155b1561025e5760405163703e46dd60e11b815260040160405180910390fd5b6102aa610773565b816001600160a01b03166352d1902d6040518163ffffffff1660e01b8152600401602060405180830381865afa9250505080156106c3575060408051601f3d908101601f191682019092526106c091810190610c39565b60015b6106eb57604051634c9c8ce360e01b81526001600160a01b0383166004820152602401610298565b5f80516020610c67833981519152811461071b57604051632a87526960e21b815260048101829052602401610298565b61072583836107e5565b505050565b306001600160a01b037f0000000000000000000000000000000000000000000000000000000000000000161461025e5760405163703e46dd60e11b815260040160405180910390fd5b3361077c6102ad565b6001600160a01b03161461025e5760405163118cdaa760e01b8152336004820152602401610298565b7f237e158222e3e6968b72b9db0d8043aacf074ad9f650f0d1606b4d82ee432c0080546001600160a01b031916815561022e8261083a565b61025e6108aa565b6107ee826108f3565b6040516001600160a01b038316907fbc7cd75a20ee27fd9adebab32041f755214dbc6bffa90cc0225b39da2e5c2d3b905f90a2805115610832576107258282610956565b61022e6109c8565b7f9016d09d72d40fdae2fd8ceac6b6234c7706214fd39c1cd1e609a0528c19930080546001600160a01b031981166001600160a01b03848116918217845560405192169182907f8be0079c531659141344cd1fd0a4f28419497f9722a3daafe3b4186f6b6457e0905f90a3505050565b7ff0c57e16840df040f15088dc2f81fe391c3923bec73e23a9662efc9c229c6a0054600160401b900460ff1661025e57604051631afcd79f60e31b815260040160405180910390fd5b806001600160a01b03163b5f0361092857604051634c9c8ce360e01b81526001600160a01b0382166004820152602401610298565b5f80516020610c6783398151915280546001600160a01b0319166001600160a01b0392909216919091179055565b60605f80846001600160a01b0316846040516109729190610c50565b5f60405180830381855af49150503d805f81146109aa576040519150601f19603f3d011682016040523d82523d5f602084013e6109af565b606091505b50915091506109bf8583836109e7565b95945050505050565b341561025e5760405163b398979f60e01b815260040160405180910390fd5b6060826109fc576109f782610a46565b610a3f565b8151158015610a1357506001600160a01b0384163b155b15610a3c57604051639996b31560e01b81526001600160a01b0385166004820152602401610298565b50805b9392505050565b805115610a565780518082602001fd5b60405163d6bda27560e01b815260040160405180910390fd5b80356001600160a01b0381168114610a85575f80fd5b919050565b634e487b7160e01b5f52604160045260245ffd5b5f8060408385031215610aaf575f80fd5b610ab883610a6f565b9150602083013567ffffffffffffffff811115610ad3575f80fd5b8301601f81018513610ae3575f80fd5b803567ffffffffffffffff811115610afd57610afd610a8a565b604051601f8201601f19908116603f0116810167ffffffffffffffff81118282101715610b2c57610b2c610a8a565b604052818152828201602001871015610b43575f80fd5b816020840160208301375f602083830101528093505050509250929050565b602081525f82518060208401528060208501604085015e5f604082850101526040601f19601f83011684010191505092915050565b5f60208284031215610ba7575f80fd5b5035919050565b5f8151808452602084019350602083015f5b82811015610bde578151865260209586019590910190600101610bc0565b5093949350505050565b604081525f610bfa6040830185610bae565b82810360208401526109bf8185610bae565b5f60208284031215610c1c575f80fd5b610a3f82610a6f565b634e487b7160e01b5f52603260045260245ffd5b5f60208284031215610c49575f80fd5b5051919050565b5f82518060208501845e5f92019182525091905056fe360894a13ba1a3210667c828492db98dca3e2076cc3735a920a3ca505d382bbca26469706673582212208ccbe7527a868e236373c714709762dacae11564854dcb4ea832a2caa127fe3864736f6c634300081a0033",
  "linkReferences": {},
  "deployedLinkReferences": {}
}