{
  "_format": "hh-sol-artifact-1",
  "contractName": "MarketOracle",
  "sourceName": "contracts/MarketOracle.sol",
  "abi": [
    {
      "inputs": [],
      "stateMutability": "nonpayable",
      "type": "constructor"
    },
    {
      "inputs": [
        {
          "internalType": "address",
          "name": "owner",
          "type": "address"
        }
      ],
      "name": "OwnableInvalidOwner",
      "type": "error"
    },
    {
      "inputs": [
        {
          "internalType": "address",
          "name": "account",
          "type": "address"
        }
      ],
      "name": "OwnableUnauthorizedAccount",
      "type": "error"
    },
    {
      "anonymous": false,
      "inputs": [
        {
          "indexed": true,
          "internalType": "address",
          "name": "previousOwner",
          "type": "address"
        },
        {
          "indexed": true,
          "internalType": "address",
          "name": "newOwner",
          "type": "address"
        }
      ],
      "name": "OwnershipTransferStarted",
      "type": "event"
    },
    {
      "anonymous": false,
      "inputs": [
        {
          "indexed": true,
          "internalType": "address",
          "name": "previousOwner",
          "type": "address"
        },
        {
          "indexed": true,
          "internalType": "address",
          "name": "newOwner",
          "type": "address"
        }
      ],
      "name": "OwnershipTransferred",
      "type": "event"
    },
    {
      "inputs": [],
      "name": "acceptOwnership",
      "outputs": [],
      "stateMutability": "nonpayable",
      "type": "function"
    },
    {
      "inputs": [],
      "name": "getPrices",
      "outputs": [
        {
          "internalType": "uint256[]",
          "name": "previousPriceArray",
          "type": "uint256[]"
        },
        {
          "internalType": "uint256[]",
          "name": "currentPriceArray",
          "type": "uint256[]"
        }
      ],
      "stateMutability": "view",
      "type": "function"
    },
    {
      "inputs": [],
      "name": "owner",
      "outputs": [
        {
          "internalType": "address",
          "name": "",
          "type": "address"
        }
      ],
      "stateMutability": "view",
      "type": "function"
    },
    {
      "inputs": [],
      "name": "pendingOwner",
      "outputs": [
        {
          "internalType": "address",
          "name": "",
          "type": "address"
        }
      ],
      "stateMutability": "view",
      "type": "function"
    },
    {
      "inputs": [
        {
          "internalType": "uint256",
          "name": "",
          "type": "uint256"
        }
      ],
      "name": "prices",
      "outputs": [
        {
          "internalType": "uint256",
          "name": "previous",
          "type": "uint256"
        },
        {
          "internalType": "uint256",
          "name": "current",
          "type": "uint256"
        }
      ],
      "stateMutability": "view",
      "type": "function"
    },
    {
      "inputs": [],
      "name": "renounceOwnership",
      "outputs": [],
      "stateMutability": "nonpayable",
      "type": "function"
    },
    {
      "inputs": [
        {
          "internalType": "address",
          "name": "newOwner",
          "type": "address"
        }
      ],
      "name": "transferOwnership",
      "outputs": [],
      "stateMutability": "nonpayable",
      "type": "function"
    }
  ],
  "bytecode": "0x6080604052348015600e575f80fd5b503380603357604051631e4fbdf760e01b81525f600482015260240160405180910390fd5b603a81603f565b5060a8565b600180546001600160a01b03191690556056816059565b50565b5f80546001600160a01b038381166001600160a01b0319831681178455604051919092169283917f8be0079c531659141344cd1fd0a4f28419497f9722a3daafe3b4186f6b6457e09190a35050565b61047d806100b55f395ff3fe608060405234801561000f575f80fd5b506004361061007a575f3560e01c8063bc31c1c111610058578063bc31c1c1146100b9578063bd9a548b146100e1578063e30c3978146100f7578063f2fde38b14610108575f80fd5b8063715018a61461007e57806379ba5097146100885780638da5cb5b14610090575b5f80fd5b61008661011b565b005b61008661012e565b5f546001600160a01b03165b6040516001600160a01b0390911681526020015b60405180910390f35b6100cc6100c7366004610388565b610177565b604080519283526020830191909152016100b0565b6100e96101a3565b6040516100b09291906103d9565b6001546001600160a01b031661009c565b610086610116366004610406565b610289565b6101236102f9565b61012c5f610325565b565b60015433906001600160a01b0316811461016b5760405163118cdaa760e01b81526001600160a01b03821660048201526024015b60405180910390fd5b61017481610325565b50565b60028181548110610186575f80fd5b5f9182526020909120600290910201805460019091015490915082565b6040805160028082526060808301845292839291906020830190803683375050604080516002808252606082018352939550929150602083019080368337019050509050670de0b6b3a7640000825f8151811061020257610202610433565b602002602001018181525050670de0b6b3a76400008260018151811061022a5761022a610433565b602002602001018181525050670de0b6b3a7640000815f8151811061025157610251610433565b602002602001018181525050670de0b6b3a76400008160018151811061027957610279610433565b6020026020010181815250509091565b6102916102f9565b600180546001600160a01b0383166001600160a01b031990911681179091556102c15f546001600160a01b031690565b6001600160a01b03167f38d16b8cac22d99fc7c124b9cd0de2d3fa1faef420bfe791d8c362d765e2270060405160405180910390a350565b5f546001600160a01b0316331461012c5760405163118cdaa760e01b8152336004820152602401610162565b600180546001600160a01b0319169055610174815f80546001600160a01b038381166001600160a01b0319831681178455604051919092169283917f8be0079c531659141344cd1fd0a4f28419497f9722a3daafe3b4186f6b6457e09190a35050565b5f60208284031215610398575f80fd5b5035919050565b5f8151808452602084019350602083015f5b828110156103cf5781518652602095860195909101906001016103b1565b5093949350505050565b604081525f6103eb604083018561039f565b82810360208401526103fd818561039f565b95945050505050565b5f60208284031215610416575f80fd5b81356001600160a01b038116811461042c575f80fd5b9392505050565b634e487b7160e01b5f52603260045260245ffdfea2646970667358221220ffd577efa892ff8b26315e8d2770ea6aad37d62c86869cb0e212837e13416d5264736f6c634300081a0033",
  "linkReferences": {},
  "deployedLinkReferences": {}
}