{
  "_format": "hh-sol-artifact-1",
  "contractName": "MockPriceAdapter",
  "sourceName": "contracts/mocks/MockPriceAdapter.sol",
  "abi": [
    {
      "inputs": [],
      "stateMutability": "nonpayable",
      "type": "constructor"
    },
    {
      "inputs": [
        {
          "internalType": "address",
          "name": "asset",
          "type": "address"
        }
      ],
      "name": "getPriceData",
      "outputs": [
        {
          "internalType": "uint256",
          "name": "price",
          "type": "uint256"
        },
        {
          "internalType": "uint8",
          "name": "decimals",
          "type": "uint8"
        }
      ],
      "stateMutability": "view",
      "type": "function"
    }
  ],
  "bytecode": "0x6080604052348015600e575f5ffd5b5061018b8061001c5f395ff3fe608060405234801561000f575f5ffd5b5060043610610029575f3560e01c806372279ba11461002d575b5f5ffd5b61004061003b3660046100c9565b61005b565b6040805192835260ff90911660208301520160405180910390f35b5f8080606461006b60014361010a565b60408051914060208301524290820152606086811b6001600160601b03191690820152607401604051602081830303815290604052805190602001205f1c6100b39190610123565b6100be906001610142565b946012945092505050565b5f602082840312156100d9575f5ffd5b81356001600160a01b03811681146100ef575f5ffd5b9392505050565b634e487b7160e01b5f52601160045260245ffd5b8181038181111561011d5761011d6100f6565b92915050565b5f8261013d57634e487b7160e01b5f52601260045260245ffd5b500690565b8082018082111561011d5761011d6100f656fea26469706673582212203a7b38cc881d3677dcb82b1d8c68219989fcdfef028a85bb6d75b5163989384464736f6c634300081c0033",
  "linkReferences": {},
  "deployedLinkReferences": {}
}