{
  "_format": "hh-sol-artifact-1",
  "contractName": "MockPriceAdapter",
  "sourceName": "contracts/mocks/MockPriceAdapter.sol",
  "abi": [
    {
      "inputs": [
        {
          "internalType": "address",
          "name": "initialOwner",
          "type": "address"
        }
      ],
      "stateMutability": "nonpayable",
      "type": "constructor"
    },
    {
      "inputs": [
        {
          "internalType": "address",
          "name": "owner",
          "type": "address"
        }
      ],
      "name": "OwnableInvalidOwner",
      "type": "error"
    },
    {
      "inputs": [
        {
          "internalType": "address",
          "name": "account",
          "type": "address"
        }
      ],
      "name": "OwnableUnauthorizedAccount",
      "type": "error"
    },
    {
      "anonymous": false,
      "inputs": [
        {
          "indexed": true,
          "internalType": "address",
          "name": "previousOwner",
          "type": "address"
        },
        {
          "indexed": true,
          "internalType": "address",
          "name": "newOwner",
          "type": "address"
        }
      ],
      "name": "OwnershipTransferred",
      "type": "event"
    },
    {
      "inputs": [],
      "name": "owner",
      "outputs": [
        {
          "internalType": "address",
          "name": "",
          "type": "address"
        }
      ],
      "stateMutability": "view",
      "type": "function"
    },
    {
      "inputs": [
        {
          "internalType": "address",
          "name": "asset",
          "type": "address"
        }
      ],
      "name": "price",
      "outputs": [
        {
          "internalType": "uint256",
          "name": "",
          "type": "uint256"
        }
      ],
      "stateMutability": "view",
      "type": "function"
    },
    {
      "inputs": [],
      "name": "renounceOwnership",
      "outputs": [],
      "stateMutability": "nonpayable",
      "type": "function"
    },
    {
      "inputs": [
        {
          "internalType": "address",
          "name": "newOwner",
          "type": "address"
        }
      ],
      "name": "transferOwnership",
      "outputs": [],
      "stateMutability": "nonpayable",
      "type": "function"
    }
  ],
  "bytecode": "0x6080604052348015600e575f5ffd5b5060405161038f38038061038f833981016040819052602b9160b4565b806001600160a01b038116605857604051631e4fbdf760e01b81525f600482015260240160405180910390fd5b605f816065565b505060df565b5f80546001600160a01b038381166001600160a01b0319831681178455604051919092169283917f8be0079c531659141344cd1fd0a4f28419497f9722a3daafe3b4186f6b6457e09190a35050565b5f6020828403121560c3575f5ffd5b81516001600160a01b038116811460d8575f5ffd5b9392505050565b6102a3806100ec5f395ff3fe608060405234801561000f575f5ffd5b506004361061004a575f3560e01c8063715018a61461004e5780638da5cb5b14610058578063aea9107814610077578063f2fde38b14610098575b5f5ffd5b6100566100ab565b005b5f546040516001600160a01b0390911681526020015b60405180910390f35b61008a6100853660046101e7565b6100be565b60405190815260200161006e565b6100566100a63660046101e7565b61012a565b6100b361016c565b6100bc5f610198565b565b5f60646100cc600143610228565b60408051914060208301524290820152606084811b6bffffffffffffffffffffffff191690820152607401604051602081830303815290604052805190602001205f1c610119919061023b565b61012490600161025a565b92915050565b61013261016c565b6001600160a01b03811661016057604051631e4fbdf760e01b81525f60048201526024015b60405180910390fd5b61016981610198565b50565b5f546001600160a01b031633146100bc5760405163118cdaa760e01b8152336004820152602401610157565b5f80546001600160a01b038381166001600160a01b0319831681178455604051919092169283917f8be0079c531659141344cd1fd0a4f28419497f9722a3daafe3b4186f6b6457e09190a35050565b5f602082840312156101f7575f5ffd5b81356001600160a01b038116811461020d575f5ffd5b9392505050565b634e487b7160e01b5f52601160045260245ffd5b8181038181111561012457610124610214565b5f8261025557634e487b7160e01b5f52601260045260245ffd5b500690565b808201808211156101245761012461021456fea2646970667358221220dbdcc6194dfb347c02d7ae33447b43e3607f92710485d8e1fd289d593ed3f59364736f6c634300081c0033",
  "linkReferences": {},
  "deployedLinkReferences": {}
}