{
  "_format": "hh-sol-artifact-1",
  "contractName": "MockPriceAdapter",
  "sourceName": "contracts/mocks/MockPriceAdapter.sol",
  "abi": [
    {
      "inputs": [],
      "stateMutability": "nonpayable",
      "type": "constructor"
    },
    {
      "inputs": [
        {
          "internalType": "address",
          "name": "asset",
          "type": "address"
        }
      ],
      "name": "getPriceData",
      "outputs": [
        {
          "internalType": "uint256",
          "name": "price",
          "type": "uint256"
        },
        {
          "internalType": "uint8",
          "name": "decimals",
          "type": "uint8"
        }
      ],
      "stateMutability": "view",
      "type": "function"
    },
    {
      "inputs": [
        {
          "internalType": "address",
          "name": "",
          "type": "address"
        }
      ],
      "name": "validatePriceAdapter",
      "outputs": [
        {
          "internalType": "bool",
          "name": "",
          "type": "bool"
        }
      ],
      "stateMutability": "pure",
      "type": "function"
    }
  ],
  "bytecode": "0x6080604052348015600e575f5ffd5b506101bb8061001c5f395ff3fe608060405234801561000f575f5ffd5b5060043610610034575f3560e01c80636ab8bdef1461003857806372279ba114610061575b5f5ffd5b61004c6100463660046100f9565b50600190565b60405190151581526020015b60405180910390f35b61007461006f3660046100f9565b61008b565b6040805192835260ff909116602083015201610058565b5f8080606461009b60014361013a565b60408051914060208301524290820152606086811b6001600160601b03191690820152607401604051602081830303815290604052805190602001205f1c6100e39190610153565b6100ee906001610172565b94600e945092505050565b5f60208284031215610109575f5ffd5b81356001600160a01b038116811461011f575f5ffd5b9392505050565b634e487b7160e01b5f52601160045260245ffd5b8181038181111561014d5761014d610126565b92915050565b5f8261016d57634e487b7160e01b5f52601260045260245ffd5b500690565b8082018082111561014d5761014d61012656fea264697066735822122074ccd0188617606e63c9abe9c4911cd4c992b35460642ac43f3c2088431f5db864736f6c634300081c0033",
  "linkReferences": {},
  "deployedLinkReferences": {}
}