{
  "_format": "hh-sol-artifact-1",
  "contractName": "MockPriceAdapter",
  "sourceName": "contracts/mocks/MockPriceAdapter.sol",
  "abi": [
    {
      "inputs": [
        {
          "internalType": "address",
          "name": "initialOwner",
          "type": "address"
        }
      ],
      "stateMutability": "nonpayable",
      "type": "constructor"
    },
    {
      "inputs": [
        {
          "internalType": "address",
          "name": "owner",
          "type": "address"
        }
      ],
      "name": "OwnableInvalidOwner",
      "type": "error"
    },
    {
      "inputs": [
        {
          "internalType": "address",
          "name": "account",
          "type": "address"
        }
      ],
      "name": "OwnableUnauthorizedAccount",
      "type": "error"
    },
    {
      "anonymous": false,
      "inputs": [
        {
          "indexed": true,
          "internalType": "address",
          "name": "previousOwner",
          "type": "address"
        },
        {
          "indexed": true,
          "internalType": "address",
          "name": "newOwner",
          "type": "address"
        }
      ],
      "name": "OwnershipTransferred",
      "type": "event"
    },
    {
      "inputs": [],
      "name": "owner",
      "outputs": [
        {
          "internalType": "address",
          "name": "",
          "type": "address"
        }
      ],
      "stateMutability": "view",
      "type": "function"
    },
    {
      "inputs": [
        {
          "internalType": "address",
          "name": "asset",
          "type": "address"
        }
      ],
      "name": "price",
      "outputs": [
        {
          "internalType": "uint256",
          "name": "",
          "type": "uint256"
        }
      ],
      "stateMutability": "view",
      "type": "function"
    },
    {
      "inputs": [],
      "name": "renounceOwnership",
      "outputs": [],
      "stateMutability": "nonpayable",
      "type": "function"
    },
    {
      "inputs": [
        {
          "internalType": "address",
          "name": "newOwner",
          "type": "address"
        }
      ],
      "name": "transferOwnership",
      "outputs": [],
      "stateMutability": "nonpayable",
      "type": "function"
    }
  ],
  "bytecode": "0x608060405234801561000f575f5ffd5b5060405161088e38038061088e833981810160405281019061003191906101f4565b805f73ffffffffffffffffffffffffffffffffffffffff168173ffffffffffffffffffffffffffffffffffffffff16036100a2575f6040517f1e4fbdf7000000000000000000000000000000000000000000000000000000008152600401610099919061022e565b60405180910390fd5b6100b1816100d260201b60201c565b506100cc672175737a5ddf370e60c01b61019360201b60201c565b50610247565b5f5f5f9054906101000a900473ffffffffffffffffffffffffffffffffffffffff169050815f5f6101000a81548173ffffffffffffffffffffffffffffffffffffffff021916908373ffffffffffffffffffffffffffffffffffffffff1602179055508173ffffffffffffffffffffffffffffffffffffffff168173ffffffffffffffffffffffffffffffffffffffff167f8be0079c531659141344cd1fd0a4f28419497f9722a3daafe3b4186f6b6457e060405160405180910390a35050565b50565b5f5ffd5b5f73ffffffffffffffffffffffffffffffffffffffff82169050919050565b5f6101c38261019a565b9050919050565b6101d3816101b9565b81146101dd575f5ffd5b50565b5f815190506101ee816101ca565b92915050565b5f6020828403121561020957610208610196565b5b5f610216848285016101e0565b91505092915050565b610228816101b9565b82525050565b5f6020820190506102415f83018461021f565b92915050565b61063a806102545f395ff3fe608060405234801561000f575f5ffd5b506004361061004a575f3560e01c8063715018a61461004e5780638da5cb5b14610058578063aea9107814610076578063f2fde38b146100a6575b5f5ffd5b6100566100c2565b005b6100606100d5565b60405161006d91906103a7565b60405180910390f35b610090600480360381019061008b91906103ee565b6100fc565b60405161009d9190610431565b60405180910390f35b6100c060048036038101906100bb91906103ee565b610192565b005b6100ca610216565b6100d35f61029d565b565b5f5f5f9054906101000a900473ffffffffffffffffffffffffffffffffffffffff16905090565b5f61011167fc3c843ec0cb46a960c01b61035e565b61012567bc6f56156d61148560c01b61035e565b610139677436a3f11699acbc60c01b61035e565b6001606460014361014a9190610477565b40428560405160200161015f93929190610538565b604051602081830303815290604052805190602001205f1c61018191906105a1565b61018b91906105d1565b9050919050565b61019a610216565b5f73ffffffffffffffffffffffffffffffffffffffff168173ffffffffffffffffffffffffffffffffffffffff160361020a575f6040517f1e4fbdf700000000000000000000000000000000000000000000000000000000815260040161020191906103a7565b60405180910390fd5b6102138161029d565b50565b61021e610361565b73ffffffffffffffffffffffffffffffffffffffff1661023c6100d5565b73ffffffffffffffffffffffffffffffffffffffff161461029b5761025f610361565b6040517f118cdaa700000000000000000000000000000000000000000000000000000000815260040161029291906103a7565b60405180910390fd5b565b5f5f5f9054906101000a900473ffffffffffffffffffffffffffffffffffffffff169050815f5f6101000a81548173ffffffffffffffffffffffffffffffffffffffff021916908373ffffffffffffffffffffffffffffffffffffffff1602179055508173ffffffffffffffffffffffffffffffffffffffff168173ffffffffffffffffffffffffffffffffffffffff167f8be0079c531659141344cd1fd0a4f28419497f9722a3daafe3b4186f6b6457e060405160405180910390a35050565b50565b5f33905090565b5f73ffffffffffffffffffffffffffffffffffffffff82169050919050565b5f61039182610368565b9050919050565b6103a181610387565b82525050565b5f6020820190506103ba5f830184610398565b92915050565b5f5ffd5b6103cd81610387565b81146103d7575f5ffd5b50565b5f813590506103e8816103c4565b92915050565b5f60208284031215610403576104026103c0565b5b5f610410848285016103da565b91505092915050565b5f819050919050565b61042b81610419565b82525050565b5f6020820190506104445f830184610422565b92915050565b7f4e487b71000000000000000000000000000000000000000000000000000000005f52601160045260245ffd5b5f61048182610419565b915061048c83610419565b92508282039050818111156104a4576104a361044a565b5b92915050565b5f819050919050565b5f819050919050565b6104cd6104c8826104aa565b6104b3565b82525050565b5f819050919050565b6104ed6104e882610419565b6104d3565b82525050565b5f8160601b9050919050565b5f610509826104f3565b9050919050565b5f61051a826104ff565b9050919050565b61053261052d82610387565b610510565b82525050565b5f61054382866104bc565b60208201915061055382856104dc565b6020820191506105638284610521565b601482019150819050949350505050565b7f4e487b71000000000000000000000000000000000000000000000000000000005f52601260045260245ffd5b5f6105ab82610419565b91506105b683610419565b9250826105c6576105c5610574565b5b828206905092915050565b5f6105db82610419565b91506105e683610419565b92508282019050808211156105fe576105fd61044a565b5b9291505056fea26469706673582212208970ec97dbbf90035d0ccf305b8c1617376b6b92a8e294ed3ec45a0c31394f9864736f6c634300081c0033",
  "linkReferences": {},
  "deployedLinkReferences": {}
}