{
  "_format": "hh-sol-artifact-1",
  "contractName": "ERC4626ExecutionAdapter",
  "sourceName": "contracts/execution/ERC4626ExecutionAdapter.sol",
  "abi": [
    {
      "inputs": [
        {
          "internalType": "address",
          "name": "_vault",
          "type": "address"
        }
      ],
      "stateMutability": "nonpayable",
      "type": "constructor"
    },
    {
      "inputs": [
        {
          "internalType": "address",
          "name": "asset",
          "type": "address"
        }
      ],
      "name": "AmountMustBeGreaterThanZero",
      "type": "error"
    },
    {
      "inputs": [],
      "name": "InvalidAsset",
      "type": "error"
    },
    {
      "inputs": [
        {
          "internalType": "address",
          "name": "token",
          "type": "address"
        }
      ],
      "name": "SafeERC20FailedOperation",
      "type": "error"
    },
    {
      "inputs": [],
      "name": "SharesMustBeGreaterThanZero",
      "type": "error"
    },
    {
      "inputs": [],
      "name": "TransferFailed",
      "type": "error"
    },
    {
      "inputs": [],
      "name": "ZeroAddress",
      "type": "error"
    },
    {
      "inputs": [],
      "name": "UNDERLYING_ASSET",
      "outputs": [
        {
          "internalType": "contract IERC20",
          "name": "",
          "type": "address"
        }
      ],
      "stateMutability": "view",
      "type": "function"
    },
    {
      "inputs": [],
      "name": "VAULT",
      "outputs": [
        {
          "internalType": "contract IERC4626",
          "name": "",
          "type": "address"
        }
      ],
      "stateMutability": "view",
      "type": "function"
    },
    {
      "inputs": [
        {
          "internalType": "address",
          "name": "asset",
          "type": "address"
        },
        {
          "internalType": "uint256",
          "name": "amount",
          "type": "uint256"
        }
      ],
      "name": "buy",
      "outputs": [],
      "stateMutability": "nonpayable",
      "type": "function"
    },
    {
      "inputs": [
        {
          "internalType": "address",
          "name": "asset",
          "type": "address"
        },
        {
          "internalType": "uint256",
          "name": "amount",
          "type": "uint256"
        }
      ],
      "name": "sell",
      "outputs": [],
      "stateMutability": "nonpayable",
      "type": "function"
    }
  ],
  "bytecode": "0x60c060405234801561000f575f5ffd5b506040516109ec3803806109ec83398101604081905261002e916100d3565b6001600160a01b0381166100555760405163d92e233d60e01b815260040160405180910390fd5b6001600160a01b0381166080819052604080516338d52e0f60e01b815290516338d52e0f916004808201926020929091908290030181865afa15801561009d573d5f5f3e3d5ffd5b505050506040513d601f19601f820116820180604052508101906100c191906100d3565b6001600160a01b031660a05250610100565b5f602082840312156100e3575f5ffd5b81516001600160a01b03811681146100f9575f5ffd5b9392505050565b60805160a05161086c6101805f395f818160be015281816102bd015281816103bf015281816104080152818161049a015281816104d401526105ba01525f818160530152818160e2015281816101690152818161022201528181610351015281816104f601528181610539015281816105dc015261061f015261086c5ff3fe608060405234801561000f575f5ffd5b506004361061004a575f3560e01c8063411557d11461004e5780636c197ff514610091578063cce7ec13146100a6578063e6025393146100b9575b5f5ffd5b6100757f000000000000000000000000000000000000000000000000000000000000000081565b6040516001600160a01b03909116815260200160405180910390f35b6100a461009f3660046107c4565b6100e0565b005b6100a46100b43660046107c4565b61034f565b6100757f000000000000000000000000000000000000000000000000000000000000000081565b7f00000000000000000000000000000000000000000000000000000000000000006001600160a01b0316826001600160a01b03161461013257604051636448d6e960e11b815260040160405180910390fd5b805f03610152576040516314e6cbb960e11b815260040160405180910390fd5b6040516370a0823160e01b81523060048201525f907f00000000000000000000000000000000000000000000000000000000000000006001600160a01b0316906370a0823190602401602060405180830381865afa1580156101b6573d5f5f3e3d5ffd5b505050506040513d601f19601f820116820180604052508101906101da91906107f9565b9050818110156101fd576040516314e6cbb960e11b815260040160405180910390fd5b604051635d043b2960e11b815260048101839052306024820181905260448201525f907f00000000000000000000000000000000000000000000000000000000000000006001600160a01b03169063ba087652906064016020604051808303815f875af1158015610270573d5f5f3e3d5ffd5b505050506040513d601f19601f8201168201806040525081019061029491906107f9565b60405163a9059cbb60e01b8152336004820152602481018290529091505f906001600160a01b037f0000000000000000000000000000000000000000000000000000000000000000169063a9059cbb906044015b6020604051808303815f875af1158015610304573d5f5f3e3d5ffd5b505050506040513d601f19601f820116820180604052508101906103289190610810565b905080610348576040516312171d8360e31b815260040160405180910390fd5b5050505050565b7f00000000000000000000000000000000000000000000000000000000000000006001600160a01b0316826001600160a01b0316146103a157604051636448d6e960e11b815260040160405180910390fd5b805f036103f157604051636b30633560e01b81526001600160a01b037f00000000000000000000000000000000000000000000000000000000000000001660048201526024015b60405180910390fd5b6040516370a0823160e01b81523060048201525f907f00000000000000000000000000000000000000000000000000000000000000006001600160a01b0316906370a0823190602401602060405180830381865afa158015610455573d5f5f3e3d5ffd5b505050506040513d601f19601f8201168201806040525081019061047991906107f9565b9050818110156104c757604051636b30633560e01b81526001600160a01b037f00000000000000000000000000000000000000000000000000000000000000001660048201526024016103e8565b61051b6001600160a01b037f0000000000000000000000000000000000000000000000000000000000000000167f000000000000000000000000000000000000000000000000000000000000000084610656565b604051636e553f6560e01b8152600481018390523060248201525f907f00000000000000000000000000000000000000000000000000000000000000006001600160a01b031690636e553f65906044016020604051808303815f875af1158015610587573d5f5f3e3d5ffd5b505050506040513d601f19601f820116820180604052508101906105ab91906107f9565b90506106016001600160a01b037f0000000000000000000000000000000000000000000000000000000000000000167f00000000000000000000000000000000000000000000000000000000000000005f610656565b60405163a9059cbb60e01b8152336004820152602481018290525f907f00000000000000000000000000000000000000000000000000000000000000006001600160a01b03169063a9059cbb906044016102e8565b604080516001600160a01b038416602482015260448082018490528251808303909101815260649091019091526020810180516001600160e01b031663095ea7b360e01b1790526106a7848261070f565b61070957604080516001600160a01b03851660248201525f6044808301919091528251808303909101815260649091019091526020810180516001600160e01b031663095ea7b360e01b1790526106ff908590610758565b6107098482610758565b50505050565b5f5f5f5f60205f8651602088015f8a5af192503d91505f51905082801561074e57508115610740578060011461074e565b5f866001600160a01b03163b115b9695505050505050565b5f5f60205f8451602086015f885af180610777576040513d5f823e3d81fd5b50505f513d9150811561078e57806001141561079b565b6001600160a01b0384163b155b1561070957604051635274afe760e01b81526001600160a01b03851660048201526024016103e8565b5f5f604083850312156107d5575f5ffd5b82356001600160a01b03811681146107eb575f5ffd5b946020939093013593505050565b5f60208284031215610809575f5ffd5b5051919050565b5f60208284031215610820575f5ffd5b8151801515811461082f575f5ffd5b939250505056fea26469706673582212209a4e5fdcaaf8c4052a167deb052a3b8190754d8555ec3de9e399319e1cceef0764736f6c634300081c0033",
  "linkReferences": {},
  "deployedLinkReferences": {}
}