{
  "_format": "hh-sol-artifact-1",
  "contractName": "ERC4626ExecutionAdapter",
  "sourceName": "contracts/execution/ERC4626ExecutionAdapter.sol",
  "abi": [
    {
      "inputs": [
        {
          "internalType": "address",
          "name": "_vault",
          "type": "address"
        }
      ],
      "stateMutability": "nonpayable",
      "type": "constructor"
    },
    {
      "inputs": [
        {
          "internalType": "address",
          "name": "asset",
          "type": "address"
        }
      ],
      "name": "AmountMustBeGreaterThanZero",
      "type": "error"
    },
    {
      "inputs": [],
      "name": "InvalidAsset",
      "type": "error"
    },
    {
      "inputs": [
        {
          "internalType": "address",
          "name": "token",
          "type": "address"
        }
      ],
      "name": "SafeERC20FailedOperation",
      "type": "error"
    },
    {
      "inputs": [],
      "name": "SharesMustBeGreaterThanZero",
      "type": "error"
    },
    {
      "inputs": [],
      "name": "ZeroAddress",
      "type": "error"
    },
    {
      "inputs": [
        {
          "internalType": "address",
          "name": "asset",
          "type": "address"
        },
        {
          "internalType": "uint256",
          "name": "amount",
          "type": "uint256"
        }
      ],
      "name": "buy",
      "outputs": [],
      "stateMutability": "nonpayable",
      "type": "function"
    },
    {
      "inputs": [
        {
          "internalType": "address",
          "name": "asset",
          "type": "address"
        },
        {
          "internalType": "uint256",
          "name": "amount",
          "type": "uint256"
        }
      ],
      "name": "sell",
      "outputs": [],
      "stateMutability": "nonpayable",
      "type": "function"
    },
    {
      "inputs": [],
      "name": "underlyingAsset",
      "outputs": [
        {
          "internalType": "contract IERC20",
          "name": "",
          "type": "address"
        }
      ],
      "stateMutability": "view",
      "type": "function"
    },
    {
      "inputs": [],
      "name": "vault",
      "outputs": [
        {
          "internalType": "contract IERC4626",
          "name": "",
          "type": "address"
        }
      ],
      "stateMutability": "view",
      "type": "function"
    }
  ],
  "bytecode": "0x60c060405234801561000f575f5ffd5b5060405161085338038061085383398101604081905261002e916100d3565b6001600160a01b0381166100555760405163d92e233d60e01b815260040160405180910390fd5b6001600160a01b0381166080819052604080516338d52e0f60e01b815290516338d52e0f916004808201926020929091908290030181865afa15801561009d573d5f5f3e3d5ffd5b505050506040513d601f19601f820116820180604052508101906100c191906100d3565b6001600160a01b031660a05250610100565b5f602082840312156100e3575f5ffd5b81516001600160a01b03811681146100f9575f5ffd5b9392505050565b60805160a0516106e861016b5f395f81816068015281816102f30152818161033201528181610367015261044d01525f818160be0152818160e2015281816101740152818161020b0152818161028501528181610389015281816103cc015261046f01526106e85ff3fe608060405234801561000f575f5ffd5b506004361061004a575f3560e01c80636c197ff51461004e5780637158da7c14610063578063cce7ec13146100a6578063fbfa77cf146100b9575b5f5ffd5b61006161005c366004610640565b6100e0565b005b61008a7f000000000000000000000000000000000000000000000000000000000000000081565b6040516001600160a01b03909116815260200160405180910390f35b6100616100b4366004610640565b610283565b61008a7f000000000000000000000000000000000000000000000000000000000000000081565b7f00000000000000000000000000000000000000000000000000000000000000006001600160a01b0316826001600160a01b03161461013257604051636448d6e960e11b815260040160405180910390fd5b805f03610152576040516314e6cbb960e11b815260040160405180910390fd5b6040516323b872dd60e01b8152336004820152306024820152604481018290527f00000000000000000000000000000000000000000000000000000000000000006001600160a01b0316906323b872dd906064016020604051808303815f875af11580156101c2573d5f5f3e3d5ffd5b505050506040513d601f19601f820116820180604052508101906101e69190610675565b50604051635d043b2960e11b8152600481018290523360248201523060448201525f907f00000000000000000000000000000000000000000000000000000000000000006001600160a01b03169063ba087652906064016020604051808303815f875af1158015610259573d5f5f3e3d5ffd5b505050506040513d601f19601f8201168201806040525081019061027d919061069b565b50505050565b7f00000000000000000000000000000000000000000000000000000000000000006001600160a01b0316826001600160a01b0316146102d557604051636448d6e960e11b815260040160405180910390fd5b805f0361032557604051636b30633560e01b81526001600160a01b037f00000000000000000000000000000000000000000000000000000000000000001660048201526024015b60405180910390fd5b61035a6001600160a01b037f000000000000000000000000000000000000000000000000000000000000000016333084610499565b6103ae6001600160a01b037f0000000000000000000000000000000000000000000000000000000000000000167f000000000000000000000000000000000000000000000000000000000000000083610500565b604051636e553f6560e01b8152600481018290523360248201525f907f00000000000000000000000000000000000000000000000000000000000000006001600160a01b031690636e553f65906044016020604051808303815f875af115801561041a573d5f5f3e3d5ffd5b505050506040513d601f19601f8201168201806040525081019061043e919061069b565b90506104946001600160a01b037f0000000000000000000000000000000000000000000000000000000000000000167f00000000000000000000000000000000000000000000000000000000000000005f610500565b505050565b6040516001600160a01b03848116602483015283811660448301526064820183905261027d9186918216906323b872dd906084015b604051602081830303815290604052915060e01b6020820180516001600160e01b03838183161783525050505061058b565b604080516001600160a01b038416602482015260448082018490528251808303909101815260649091019091526020810180516001600160e01b031663095ea7b360e01b17905261055184826105f7565b61027d576040516001600160a01b0384811660248301525f604483015261058591869182169063095ea7b3906064016104ce565b61027d84825b5f5f60205f8451602086015f885af1806105aa576040513d5f823e3d81fd5b50505f513d915081156105c15780600114156105ce565b6001600160a01b0384163b155b1561027d57604051635274afe760e01b81526001600160a01b038516600482015260240161031c565b5f5f5f5f60205f8651602088015f8a5af192503d91505f519050828015610636575081156106285780600114610636565b5f866001600160a01b03163b115b9695505050505050565b5f5f60408385031215610651575f5ffd5b82356001600160a01b0381168114610667575f5ffd5b946020939093013593505050565b5f60208284031215610685575f5ffd5b81518015158114610694575f5ffd5b9392505050565b5f602082840312156106ab575f5ffd5b505191905056fea2646970667358221220376b116f8955a2fa06d6f78293c88e8b294c74936f2066df0ccbdef0876dc52664736f6c634300081c0033",
  "linkReferences": {},
  "deployedLinkReferences": {}
}