{
  "_format": "hh-sol-artifact-1",
  "contractName": "ERC4626ExecutionAdapter",
  "sourceName": "contracts/execution/ERC4626ExecutionAdapter.sol",
  "abi": [
    {
      "inputs": [
        {
          "internalType": "address",
          "name": "target",
          "type": "address"
        }
      ],
      "name": "AddressEmptyCode",
      "type": "error"
    },
    {
      "inputs": [
        {
          "internalType": "address",
          "name": "asset",
          "type": "address"
        }
      ],
      "name": "AmountMustBeGreaterThanZero",
      "type": "error"
    },
    {
      "inputs": [
        {
          "internalType": "address",
          "name": "implementation",
          "type": "address"
        }
      ],
      "name": "ERC1967InvalidImplementation",
      "type": "error"
    },
    {
      "inputs": [],
      "name": "ERC1967NonPayable",
      "type": "error"
    },
    {
      "inputs": [],
      "name": "FailedCall",
      "type": "error"
    },
    {
      "inputs": [],
      "name": "InvalidInitialization",
      "type": "error"
    },
    {
      "inputs": [],
      "name": "NotInitializing",
      "type": "error"
    },
    {
      "inputs": [
        {
          "internalType": "address",
          "name": "owner",
          "type": "address"
        }
      ],
      "name": "OwnableInvalidOwner",
      "type": "error"
    },
    {
      "inputs": [
        {
          "internalType": "address",
          "name": "account",
          "type": "address"
        }
      ],
      "name": "OwnableUnauthorizedAccount",
      "type": "error"
    },
    {
      "inputs": [
        {
          "internalType": "address",
          "name": "token",
          "type": "address"
        }
      ],
      "name": "SafeERC20FailedOperation",
      "type": "error"
    },
    {
      "inputs": [],
      "name": "SharesMustBeGreaterThanZero",
      "type": "error"
    },
    {
      "inputs": [],
      "name": "TransferFailed",
      "type": "error"
    },
    {
      "inputs": [],
      "name": "UUPSUnauthorizedCallContext",
      "type": "error"
    },
    {
      "inputs": [
        {
          "internalType": "bytes32",
          "name": "slot",
          "type": "bytes32"
        }
      ],
      "name": "UUPSUnsupportedProxiableUUID",
      "type": "error"
    },
    {
      "anonymous": false,
      "inputs": [
        {
          "indexed": false,
          "internalType": "uint64",
          "name": "version",
          "type": "uint64"
        }
      ],
      "name": "Initialized",
      "type": "event"
    },
    {
      "anonymous": false,
      "inputs": [
        {
          "indexed": true,
          "internalType": "address",
          "name": "previousOwner",
          "type": "address"
        },
        {
          "indexed": true,
          "internalType": "address",
          "name": "newOwner",
          "type": "address"
        }
      ],
      "name": "OwnershipTransferStarted",
      "type": "event"
    },
    {
      "anonymous": false,
      "inputs": [
        {
          "indexed": true,
          "internalType": "address",
          "name": "previousOwner",
          "type": "address"
        },
        {
          "indexed": true,
          "internalType": "address",
          "name": "newOwner",
          "type": "address"
        }
      ],
      "name": "OwnershipTransferred",
      "type": "event"
    },
    {
      "anonymous": false,
      "inputs": [
        {
          "indexed": true,
          "internalType": "address",
          "name": "implementation",
          "type": "address"
        }
      ],
      "name": "Upgraded",
      "type": "event"
    },
    {
      "inputs": [],
      "name": "UPGRADE_INTERFACE_VERSION",
      "outputs": [
        {
          "internalType": "string",
          "name": "",
          "type": "string"
        }
      ],
      "stateMutability": "view",
      "type": "function"
    },
    {
      "inputs": [],
      "name": "acceptOwnership",
      "outputs": [],
      "stateMutability": "nonpayable",
      "type": "function"
    },
    {
      "inputs": [
        {
          "internalType": "address",
          "name": "asset",
          "type": "address"
        },
        {
          "internalType": "uint256",
          "name": "amount",
          "type": "uint256"
        }
      ],
      "name": "buy",
      "outputs": [],
      "stateMutability": "nonpayable",
      "type": "function"
    },
    {
      "inputs": [
        {
          "internalType": "address",
          "name": "initialOwner",
          "type": "address"
        }
      ],
      "name": "initialize",
      "outputs": [],
      "stateMutability": "nonpayable",
      "type": "function"
    },
    {
      "inputs": [],
      "name": "owner",
      "outputs": [
        {
          "internalType": "address",
          "name": "",
          "type": "address"
        }
      ],
      "stateMutability": "view",
      "type": "function"
    },
    {
      "inputs": [],
      "name": "pendingOwner",
      "outputs": [
        {
          "internalType": "address",
          "name": "",
          "type": "address"
        }
      ],
      "stateMutability": "view",
      "type": "function"
    },
    {
      "inputs": [],
      "name": "proxiableUUID",
      "outputs": [
        {
          "internalType": "bytes32",
          "name": "",
          "type": "bytes32"
        }
      ],
      "stateMutability": "view",
      "type": "function"
    },
    {
      "inputs": [],
      "name": "renounceOwnership",
      "outputs": [],
      "stateMutability": "nonpayable",
      "type": "function"
    },
    {
      "inputs": [
        {
          "internalType": "address",
          "name": "asset",
          "type": "address"
        },
        {
          "internalType": "uint256",
          "name": "amount",
          "type": "uint256"
        }
      ],
      "name": "sell",
      "outputs": [],
      "stateMutability": "nonpayable",
      "type": "function"
    },
    {
      "inputs": [
        {
          "internalType": "address",
          "name": "newOwner",
          "type": "address"
        }
      ],
      "name": "transferOwnership",
      "outputs": [],
      "stateMutability": "nonpayable",
      "type": "function"
    },
    {
      "inputs": [
        {
          "internalType": "address",
          "name": "newImplementation",
          "type": "address"
        },
        {
          "internalType": "bytes",
          "name": "data",
          "type": "bytes"
        }
      ],
      "name": "upgradeToAndCall",
      "outputs": [],
      "stateMutability": "payable",
      "type": "function"
    }
  ],
  "bytecode": "0x60a0604052306080523480156012575f5ffd5b5060805161115a6100395f395f81816108de015281816109070152610a4b015261115a5ff3fe60806040526004361061009a575f3560e01c80638da5cb5b116100625780638da5cb5b14610121578063ad3cb1cc1461014d578063c4d66de81461018a578063cce7ec13146101a9578063e30c3978146101c8578063f2fde38b146101dc575f5ffd5b80634f1ef2861461009e57806352d1902d146100b35780636c197ff5146100da578063715018a6146100f957806379ba50971461010d575b5f5ffd5b6100b16100ac366004610f5d565b6101fb565b005b3480156100be575f5ffd5b506100c761021a565b6040519081526020015b60405180910390f35b3480156100e5575f5ffd5b506100b16100f4366004611023565b610235565b348015610104575f5ffd5b506100b1610418565b348015610118575f5ffd5b506100b161042b565b34801561012c575f5ffd5b50610135610478565b6040516001600160a01b0390911681526020016100d1565b348015610158575f5ffd5b5061017d604051806040016040528060058152602001640352e302e360dc1b81525081565b6040516100d1919061104d565b348015610195575f5ffd5b506100b16101a4366004611082565b6104ac565b3480156101b4575f5ffd5b506100b16101c3366004611023565b6105ca565b3480156101d3575f5ffd5b50610135610826565b3480156101e7575f5ffd5b506100b16101f6366004611082565b61084e565b6102036108d3565b61020c82610977565b610216828261097f565b5050565b5f610223610a40565b505f5160206111055f395f51905f5290565b805f03610255576040516314e6cbb960e11b815260040160405180910390fd5b6040516370a0823160e01b81523060048201525f906001600160a01b038416906370a0823190602401602060405180830381865afa158015610299573d5f5f3e3d5ffd5b505050506040513d601f19601f820116820180604052508101906102bd919061109d565b9050818110156102e0576040516314e6cbb960e11b815260040160405180910390fd5b6102f46001600160a01b0384168484610a89565b604051635d043b2960e11b815260048101839052306024820181905260448201525f906001600160a01b0385169063ba087652906064016020604051808303815f875af1158015610347573d5f5f3e3d5ffd5b505050506040513d601f19601f8201168201806040525081019061036b919061109d565b90506103816001600160a01b038516855f610a89565b60405163a9059cbb60e01b8152336004820152602481018290525f906001600160a01b0386169063a9059cbb906044016020604051808303815f875af11580156103cd573d5f5f3e3d5ffd5b505050506040513d601f19601f820116820180604052508101906103f191906110b4565b905080610411576040516312171d8360e31b815260040160405180910390fd5b5050505050565b610420610b42565b6104295f610b74565b565b3380610435610826565b6001600160a01b03161461046c5760405163118cdaa760e01b81526001600160a01b03821660048201526024015b60405180910390fd5b61047581610b74565b50565b5f807f9016d09d72d40fdae2fd8ceac6b6234c7706214fd39c1cd1e609a0528c1993005b546001600160a01b031692915050565b7ff0c57e16840df040f15088dc2f81fe391c3923bec73e23a9662efc9c229c6a008054600160401b810460ff16159067ffffffffffffffff165f811580156104f15750825b90505f8267ffffffffffffffff16600114801561050d5750303b155b90508115801561051b575080155b156105395760405163f92ee8a960e01b815260040160405180910390fd5b845467ffffffffffffffff19166001178555831561056357845460ff60401b1916600160401b1785555b61056c86610bac565b610574610bbd565b61057c610bbd565b83156105c257845460ff60401b19168555604051600181527fc7f505b2f371ae2175ee4913f4499e1f2633a7b5936321eed1cdaeb6115181d29060200160405180910390a15b505050505050565b805f036105f557604051636b30633560e01b81526001600160a01b0383166004820152602401610463565b5f8290505f816001600160a01b03166338d52e0f6040518163ffffffff1660e01b8152600401602060405180830381865afa158015610636573d5f5f3e3d5ffd5b505050506040513d601f19601f8201168201806040525081019061065a91906110d3565b6040516370a0823160e01b81523060048201529091505f906001600160a01b038316906370a0823190602401602060405180830381865afa1580156106a1573d5f5f3e3d5ffd5b505050506040513d601f19601f820116820180604052508101906106c5919061109d565b9050838110156106f357604051636b30633560e01b81526001600160a01b0383166004820152602401610463565b6107076001600160a01b0383168486610a89565b604051636e553f6560e01b8152600481018590523060248201525f906001600160a01b03851690636e553f65906044016020604051808303815f875af1158015610753573d5f5f3e3d5ffd5b505050506040513d601f19601f82011682018060405250810190610777919061109d565b905061078d6001600160a01b038416855f610a89565b60405163a9059cbb60e01b8152336004820152602481018290525f906001600160a01b0386169063a9059cbb906044016020604051808303815f875af11580156107d9573d5f5f3e3d5ffd5b505050506040513d601f19601f820116820180604052508101906107fd91906110b4565b90508061081d576040516312171d8360e31b815260040160405180910390fd5b50505050505050565b5f807f237e158222e3e6968b72b9db0d8043aacf074ad9f650f0d1606b4d82ee432c0061049c565b610856610b42565b7f237e158222e3e6968b72b9db0d8043aacf074ad9f650f0d1606b4d82ee432c0080546001600160a01b0319166001600160a01b038316908117825561089a610478565b6001600160a01b03167f38d16b8cac22d99fc7c124b9cd0de2d3fa1faef420bfe791d8c362d765e2270060405160405180910390a35050565b306001600160a01b037f000000000000000000000000000000000000000000000000000000000000000016148061095957507f00000000000000000000000000000000000000000000000000000000000000006001600160a01b031661094d5f5160206111055f395f51905f52546001600160a01b031690565b6001600160a01b031614155b156104295760405163703e46dd60e11b815260040160405180910390fd5b610475610b42565b816001600160a01b03166352d1902d6040518163ffffffff1660e01b8152600401602060405180830381865afa9250505080156109d9575060408051601f3d908101601f191682019092526109d69181019061109d565b60015b610a0157604051634c9c8ce360e01b81526001600160a01b0383166004820152602401610463565b5f5160206111055f395f51905f528114610a3157604051632a87526960e21b815260048101829052602401610463565b610a3b8383610bc5565b505050565b306001600160a01b037f000000000000000000000000000000000000000000000000000000000000000016146104295760405163703e46dd60e11b815260040160405180910390fd5b604080516001600160a01b038416602482015260448082018490528251808303909101815260649091019091526020810180516001600160e01b031663095ea7b360e01b179052610ada8482610c1a565b610b3c57604080516001600160a01b03851660248201525f6044808301919091528251808303909101815260649091019091526020810180516001600160e01b031663095ea7b360e01b179052610b32908590610c63565b610b3c8482610c63565b50505050565b33610b4b610478565b6001600160a01b0316146104295760405163118cdaa760e01b8152336004820152602401610463565b7f237e158222e3e6968b72b9db0d8043aacf074ad9f650f0d1606b4d82ee432c0080546001600160a01b031916815561021682610ccf565b610bb4610d3f565b61047581610d88565b610429610d3f565b610bce82610db9565b6040516001600160a01b038316907fbc7cd75a20ee27fd9adebab32041f755214dbc6bffa90cc0225b39da2e5c2d3b905f90a2805115610c1257610a3b8282610e1c565b610216610e8e565b5f5f5f5f60205f8651602088015f8a5af192503d91505f519050828015610c5957508115610c4b5780600114610c59565b5f866001600160a01b03163b115b9695505050505050565b5f5f60205f8451602086015f885af180610c82576040513d5f823e3d81fd5b50505f513d91508115610c99578060011415610ca6565b6001600160a01b0384163b155b15610b3c57604051635274afe760e01b81526001600160a01b0385166004820152602401610463565b7f9016d09d72d40fdae2fd8ceac6b6234c7706214fd39c1cd1e609a0528c19930080546001600160a01b031981166001600160a01b03848116918217845560405192169182907f8be0079c531659141344cd1fd0a4f28419497f9722a3daafe3b4186f6b6457e0905f90a3505050565b7ff0c57e16840df040f15088dc2f81fe391c3923bec73e23a9662efc9c229c6a0054600160401b900460ff1661042957604051631afcd79f60e31b815260040160405180910390fd5b610d90610d3f565b6001600160a01b03811661046c57604051631e4fbdf760e01b81525f6004820152602401610463565b806001600160a01b03163b5f03610dee57604051634c9c8ce360e01b81526001600160a01b0382166004820152602401610463565b5f5160206111055f395f51905f5280546001600160a01b0319166001600160a01b0392909216919091179055565b60605f5f846001600160a01b031684604051610e3891906110ee565b5f60405180830381855af49150503d805f8114610e70576040519150601f19603f3d011682016040523d82523d5f602084013e610e75565b606091505b5091509150610e85858383610ead565b95945050505050565b34156104295760405163b398979f60e01b815260040160405180910390fd5b606082610ec257610ebd82610f0c565b610f05565b8151158015610ed957506001600160a01b0384163b155b15610f0257604051639996b31560e01b81526001600160a01b0385166004820152602401610463565b50805b9392505050565b805115610f1c5780518082602001fd5b60405163d6bda27560e01b815260040160405180910390fd5b6001600160a01b0381168114610475575f5ffd5b634e487b7160e01b5f52604160045260245ffd5b5f5f60408385031215610f6e575f5ffd5b8235610f7981610f35565b9150602083013567ffffffffffffffff811115610f94575f5ffd5b8301601f81018513610fa4575f5ffd5b803567ffffffffffffffff811115610fbe57610fbe610f49565b604051601f8201601f19908116603f0116810167ffffffffffffffff81118282101715610fed57610fed610f49565b604052818152828201602001871015611004575f5ffd5b816020840160208301375f602083830101528093505050509250929050565b5f5f60408385031215611034575f5ffd5b823561103f81610f35565b946020939093013593505050565b602081525f82518060208401528060208501604085015e5f604082850101526040601f19601f83011684010191505092915050565b5f60208284031215611092575f5ffd5b8135610f0581610f35565b5f602082840312156110ad575f5ffd5b5051919050565b5f602082840312156110c4575f5ffd5b81518015158114610f05575f5ffd5b5f602082840312156110e3575f5ffd5b8151610f0581610f35565b5f82518060208501845e5f92019182525091905056fe360894a13ba1a3210667c828492db98dca3e2076cc3735a920a3ca505d382bbca2646970667358221220e7f5af80058b365ef27a972638abe58b748391b6d266d63db6066110b61477c964736f6c634300081c0033",
  "linkReferences": {},
  "deployedLinkReferences": {}
}