{
  "_format": "hh-sol-artifact-1",
  "contractName": "ERC4626ExecutionAdapter",
  "sourceName": "contracts/execution/ERC4626ExecutionAdapter.sol",
  "abi": [
    {
      "inputs": [
        {
          "internalType": "address",
          "name": "target",
          "type": "address"
        }
      ],
      "name": "AddressEmptyCode",
      "type": "error"
    },
    {
      "inputs": [
        {
          "internalType": "address",
          "name": "asset",
          "type": "address"
        }
      ],
      "name": "AmountMustBeGreaterThanZero",
      "type": "error"
    },
    {
      "inputs": [
        {
          "internalType": "address",
          "name": "implementation",
          "type": "address"
        }
      ],
      "name": "ERC1967InvalidImplementation",
      "type": "error"
    },
    {
      "inputs": [],
      "name": "ERC1967NonPayable",
      "type": "error"
    },
    {
      "inputs": [],
      "name": "FailedCall",
      "type": "error"
    },
    {
      "inputs": [],
      "name": "InvalidInitialization",
      "type": "error"
    },
    {
      "inputs": [],
      "name": "NotInitializing",
      "type": "error"
    },
    {
      "inputs": [
        {
          "internalType": "address",
          "name": "owner",
          "type": "address"
        }
      ],
      "name": "OwnableInvalidOwner",
      "type": "error"
    },
    {
      "inputs": [
        {
          "internalType": "address",
          "name": "account",
          "type": "address"
        }
      ],
      "name": "OwnableUnauthorizedAccount",
      "type": "error"
    },
    {
      "inputs": [
        {
          "internalType": "address",
          "name": "token",
          "type": "address"
        }
      ],
      "name": "SafeERC20FailedOperation",
      "type": "error"
    },
    {
      "inputs": [],
      "name": "SharesMustBeGreaterThanZero",
      "type": "error"
    },
    {
      "inputs": [],
      "name": "TransferFailed",
      "type": "error"
    },
    {
      "inputs": [],
      "name": "UUPSUnauthorizedCallContext",
      "type": "error"
    },
    {
      "inputs": [
        {
          "internalType": "bytes32",
          "name": "slot",
          "type": "bytes32"
        }
      ],
      "name": "UUPSUnsupportedProxiableUUID",
      "type": "error"
    },
    {
      "anonymous": false,
      "inputs": [
        {
          "indexed": false,
          "internalType": "uint64",
          "name": "version",
          "type": "uint64"
        }
      ],
      "name": "Initialized",
      "type": "event"
    },
    {
      "anonymous": false,
      "inputs": [
        {
          "indexed": true,
          "internalType": "address",
          "name": "previousOwner",
          "type": "address"
        },
        {
          "indexed": true,
          "internalType": "address",
          "name": "newOwner",
          "type": "address"
        }
      ],
      "name": "OwnershipTransferStarted",
      "type": "event"
    },
    {
      "anonymous": false,
      "inputs": [
        {
          "indexed": true,
          "internalType": "address",
          "name": "previousOwner",
          "type": "address"
        },
        {
          "indexed": true,
          "internalType": "address",
          "name": "newOwner",
          "type": "address"
        }
      ],
      "name": "OwnershipTransferred",
      "type": "event"
    },
    {
      "anonymous": false,
      "inputs": [
        {
          "indexed": true,
          "internalType": "address",
          "name": "implementation",
          "type": "address"
        }
      ],
      "name": "Upgraded",
      "type": "event"
    },
    {
      "inputs": [],
      "name": "UPGRADE_INTERFACE_VERSION",
      "outputs": [
        {
          "internalType": "string",
          "name": "",
          "type": "string"
        }
      ],
      "stateMutability": "view",
      "type": "function"
    },
    {
      "inputs": [],
      "name": "acceptOwnership",
      "outputs": [],
      "stateMutability": "nonpayable",
      "type": "function"
    },
    {
      "inputs": [
        {
          "internalType": "address",
          "name": "asset",
          "type": "address"
        },
        {
          "internalType": "uint256",
          "name": "amount",
          "type": "uint256"
        }
      ],
      "name": "buy",
      "outputs": [],
      "stateMutability": "nonpayable",
      "type": "function"
    },
    {
      "inputs": [
        {
          "internalType": "address",
          "name": "initialOwner",
          "type": "address"
        }
      ],
      "name": "initialize",
      "outputs": [],
      "stateMutability": "nonpayable",
      "type": "function"
    },
    {
      "inputs": [],
      "name": "owner",
      "outputs": [
        {
          "internalType": "address",
          "name": "",
          "type": "address"
        }
      ],
      "stateMutability": "view",
      "type": "function"
    },
    {
      "inputs": [],
      "name": "pendingOwner",
      "outputs": [
        {
          "internalType": "address",
          "name": "",
          "type": "address"
        }
      ],
      "stateMutability": "view",
      "type": "function"
    },
    {
      "inputs": [],
      "name": "proxiableUUID",
      "outputs": [
        {
          "internalType": "bytes32",
          "name": "",
          "type": "bytes32"
        }
      ],
      "stateMutability": "view",
      "type": "function"
    },
    {
      "inputs": [],
      "name": "renounceOwnership",
      "outputs": [],
      "stateMutability": "nonpayable",
      "type": "function"
    },
    {
      "inputs": [
        {
          "internalType": "address",
          "name": "asset",
          "type": "address"
        },
        {
          "internalType": "uint256",
          "name": "amount",
          "type": "uint256"
        }
      ],
      "name": "sell",
      "outputs": [],
      "stateMutability": "nonpayable",
      "type": "function"
    },
    {
      "inputs": [
        {
          "internalType": "address",
          "name": "newOwner",
          "type": "address"
        }
      ],
      "name": "transferOwnership",
      "outputs": [],
      "stateMutability": "nonpayable",
      "type": "function"
    },
    {
      "inputs": [
        {
          "internalType": "address",
          "name": "newImplementation",
          "type": "address"
        },
        {
          "internalType": "bytes",
          "name": "data",
          "type": "bytes"
        }
      ],
      "name": "upgradeToAndCall",
      "outputs": [],
      "stateMutability": "payable",
      "type": "function"
    }
  ],
  "bytecode": "0x60a06040523073ffffffffffffffffffffffffffffffffffffffff1660809073ffffffffffffffffffffffffffffffffffffffff168152503480156041575f5ffd5b506080516121356100685f395f8181610ebe01528181610f13015261110901526121355ff3fe60806040526004361061009b575f3560e01c80638da5cb5b116100635780638da5cb5b14610139578063ad3cb1cc14610163578063c4d66de81461018d578063cce7ec13146101b5578063e30c3978146101dd578063f2fde38b146102075761009b565b80634f1ef2861461009f57806352d1902d146100bb5780636c197ff5146100e5578063715018a61461010d57806379ba509714610123575b5f5ffd5b6100b960048036038101906100b49190611c0e565b61022f565b005b3480156100c6575f5ffd5b506100cf61024e565b6040516100dc9190611c80565b60405180910390f35b3480156100f0575f5ffd5b5061010b60048036038101906101069190611ccc565b61027f565b005b348015610118575f5ffd5b5061012161068b565b005b34801561012e575f5ffd5b5061013761069e565b005b348015610144575f5ffd5b5061014d61072c565b60405161015a9190611d19565b60405180910390f35b34801561016e575f5ffd5b50610177610761565b6040516101849190611d92565b60405180910390f35b348015610198575f5ffd5b506101b360048036038101906101ae9190611db2565b61079a565b005b3480156101c0575f5ffd5b506101db60048036038101906101d69190611ccc565b6109df565b005b3480156101e8575f5ffd5b506101f1610dce565b6040516101fe9190611d19565b60405180910390f35b348015610212575f5ffd5b5061022d60048036038101906102289190611db2565b610e03565b005b610237610ebc565b61024082610fa2565b61024a8282610fe9565b5050565b5f610257611107565b7f360894a13ba1a3210667c828492db98dca3e2076cc3735a920a3ca505d382bbc5f1b905090565b61029367d93b659c19605c6560c01b61118e565b6102a7674b29eb43428810a060c01b61118e565b6102bb67d19222d97b29380060c01b61118e565b5f8103610308576102d667713a4ac206d3f2b960c01b61118e565b6040517f29cd977200000000000000000000000000000000000000000000000000000000815260040160405180910390fd5b61031c671fa3dde4fb3fbd3460c01b61118e565b610330670be3a2ec3a84c19a60c01b61118e565b6103446749d2f5c4d330dddf60c01b61118e565b6103713330838573ffffffffffffffffffffffffffffffffffffffff16611191909392919063ffffffff16565b610385672cae1c2b100cd09560c01b61118e565b610399675b20dce69160e58060c01b61118e565b6103c482828473ffffffffffffffffffffffffffffffffffffffff166112139092919063ffffffff16565b6103d867983bf37bfc7f6d6160c01b61118e565b6103ec67c499eed2ee1e1bca60c01b61118e565b5f8273ffffffffffffffffffffffffffffffffffffffff1663ba0876528330306040518463ffffffff1660e01b815260040161042a93929190611dec565b6020604051808303815f875af1158015610446573d5f5f3e3d5ffd5b505050506040513d601f19601f8201168201806040525081019061046a9190611e35565b9050610480674095b3acc885a7cd60c01b61118e565b61049467934e507394d1b44760c01b61118e565b6104bf835f8573ffffffffffffffffffffffffffffffffffffffff166112139092919063ffffffff16565b6104d3670ec831048ae7f12b60c01b61118e565b6104e76797a3ed21ec985bf660c01b61118e565b5f8373ffffffffffffffffffffffffffffffffffffffff166338d52e0f6040518163ffffffff1660e01b8152600401602060405180830381865afa158015610531573d5f5f3e3d5ffd5b505050506040513d601f19601f820116820180604052508101906105559190611e74565b905061056b679964231c6b1f91a760c01b61118e565b61057f6770efd65800bbfb3b60c01b61118e565b5f8173ffffffffffffffffffffffffffffffffffffffff1663a9059cbb33856040518363ffffffff1660e01b81526004016105bb929190611e9f565b6020604051808303815f875af11580156105d7573d5f5f3e3d5ffd5b505050506040513d601f19601f820116820180604052508101906105fb9190611efb565b905061061167c877a27d77dec40b60c01b61118e565b61062567cd29e863db51923260c01b61118e565b806106705761063e67ccc586fb11b76bc460c01b61118e565b6040517f90b8ec1800000000000000000000000000000000000000000000000000000000815260040160405180910390fd5b61068467f490b1d379a3365460c01b61118e565b5050505050565b610693611320565b61069c5f6113a7565b565b5f6106a76113e4565b90508073ffffffffffffffffffffffffffffffffffffffff166106c8610dce565b73ffffffffffffffffffffffffffffffffffffffff161461072057806040517f118cdaa70000000000000000000000000000000000000000000000000000000081526004016107179190611d19565b60405180910390fd5b610729816113a7565b50565b5f5f6107366113eb565b9050805f015f9054906101000a900473ffffffffffffffffffffffffffffffffffffffff1691505090565b6040518060400160405280600581526020017f352e302e3000000000000000000000000000000000000000000000000000000081525081565b6107ae67a9d4c2b614a8584460c01b61118e565b5f6107b7611412565b90505f815f0160089054906101000a900460ff161590505f825f015f9054906101000a900467ffffffffffffffff1690505f5f8267ffffffffffffffff161480156107ff5750825b90505f60018367ffffffffffffffff1614801561083257505f3073ffffffffffffffffffffffffffffffffffffffff163b145b905081158015610840575080155b15610877576040517ff92ee8a900000000000000000000000000000000000000000000000000000000815260040160405180910390fd5b6001855f015f6101000a81548167ffffffffffffffff021916908367ffffffffffffffff16021790555083156108c4576001855f0160086101000a81548160ff0219169083151502179055505b6108d8678c57b0af7b0c98e860c01b61118e565b6108ec67ef05e89824e56e1d60c01b61118e565b61090067b9a87d368352b2fa60c01b61118e565b6109146725c7e20e9be641a160c01b61118e565b61091d86611425565b610931676dffa696813e4e4d60c01b61118e565b61094567ff71cfa0ab80286e60c01b61118e565b61094d611439565b610961674c2c95438be0379d60c01b61118e565b61097567afba8c85f9ab1e1960c01b61118e565b61097d611443565b83156109d7575f855f0160086101000a81548160ff0219169083151502179055507fc7f505b2f371ae2175ee4913f4499e1f2633a7b5936321eed1cdaeb6115181d260016040516109ce9190611f7b565b60405180910390a15b505050505050565b6109f36791c18e1a84cc7cff60c01b61118e565b610a0767426e48945eef874160c01b61118e565b610a1b6730dd232f38493dee60c01b61118e565b5f8103610a7357610a366734662a1223715d7560c01b61118e565b816040517f6b306335000000000000000000000000000000000000000000000000000000008152600401610a6a9190611d19565b60405180910390fd5b610a8767241ecfb4444162b160c01b61118e565b610a9b675f85780ce85ddd5c60c01b61118e565b610aaf67223df8c2f40ef1fb60c01b61118e565b5f829050610ac767ce1c48a3fc6b850760c01b61118e565b610adb676415c11793602bbe60c01b61118e565b5f8173ffffffffffffffffffffffffffffffffffffffff166338d52e0f6040518163ffffffff1660e01b8152600401602060405180830381865afa158015610b25573d5f5f3e3d5ffd5b505050506040513d601f19601f82011682018060405250810190610b499190611e74565b9050610b5f67305558ec466340ad60c01b61118e565b610b736741e61df0956ef8bb60c01b61118e565b610ba03330858473ffffffffffffffffffffffffffffffffffffffff16611191909392919063ffffffff16565b610bb4676dc3f8ef674e379560c01b61118e565b610bc867f379f5a41089196760c01b61118e565b610bf382848373ffffffffffffffffffffffffffffffffffffffff166112139092919063ffffffff16565b610c076721f79278e5aaf2e860c01b61118e565b610c1b67d8d350bb87c23db560c01b61118e565b5f8273ffffffffffffffffffffffffffffffffffffffff16636e553f6585306040518363ffffffff1660e01b8152600401610c57929190611f94565b6020604051808303815f875af1158015610c73573d5f5f3e3d5ffd5b505050506040513d601f19601f82011682018060405250810190610c979190611e35565b9050610cad6714800486091a4b3e60c01b61118e565b610cc1673f0e04cfc0b7a81660c01b61118e565b5f8373ffffffffffffffffffffffffffffffffffffffff1663a9059cbb33846040518363ffffffff1660e01b8152600401610cfd929190611e9f565b6020604051808303815f875af1158015610d19573d5f5f3e3d5ffd5b505050506040513d601f19601f82011682018060405250810190610d3d9190611efb565b9050610d536779c73026feb3921360c01b61118e565b610d67670fce8f1ad5f6544d60c01b61118e565b80610db257610d80673cfcf93451e0947960c01b61118e565b6040517f90b8ec1800000000000000000000000000000000000000000000000000000000815260040160405180910390fd5b610dc6678f0ac35c684a8fa060c01b61118e565b505050505050565b5f5f610dd861144d565b9050805f015f9054906101000a900473ffffffffffffffffffffffffffffffffffffffff1691505090565b610e0b611320565b5f610e1461144d565b905081815f015f6101000a81548173ffffffffffffffffffffffffffffffffffffffff021916908373ffffffffffffffffffffffffffffffffffffffff1602179055508173ffffffffffffffffffffffffffffffffffffffff16610e7661072c565b73ffffffffffffffffffffffffffffffffffffffff167f38d16b8cac22d99fc7c124b9cd0de2d3fa1faef420bfe791d8c362d765e2270060405160405180910390a35050565b7f000000000000000000000000000000000000000000000000000000000000000073ffffffffffffffffffffffffffffffffffffffff163073ffffffffffffffffffffffffffffffffffffffff161480610f6957507f000000000000000000000000000000000000000000000000000000000000000073ffffffffffffffffffffffffffffffffffffffff16610f50611474565b73ffffffffffffffffffffffffffffffffffffffff1614155b15610fa0576040517fe07c8dba00000000000000000000000000000000000000000000000000000000815260040160405180910390fd5b565b610fb66726213cf9a2412be060c01b61118e565b610fbe611320565b610fd267531e223305e8551560c01b61118e565b610fe667fe12816b299b5a2c60c01b61118e565b50565b8173ffffffffffffffffffffffffffffffffffffffff166352d1902d6040518163ffffffff1660e01b8152600401602060405180830381865afa92505050801561105157506040513d601f19601f8201168201806040525081019061104e9190611fe5565b60015b61109257816040517f4c9c8ce30000000000000000000000000000000000000000000000000000000081526004016110899190611d19565b60405180910390fd5b7f360894a13ba1a3210667c828492db98dca3e2076cc3735a920a3ca505d382bbc5f1b81146110f857806040517faa1d49a40000000000000000000000000000000000000000000000000000000081526004016110ef9190611c80565b60405180910390fd5b61110283836114c7565b505050565b7f000000000000000000000000000000000000000000000000000000000000000073ffffffffffffffffffffffffffffffffffffffff163073ffffffffffffffffffffffffffffffffffffffff161461118c576040517fe07c8dba00000000000000000000000000000000000000000000000000000000815260040160405180910390fd5b565b50565b61120d848573ffffffffffffffffffffffffffffffffffffffff166323b872dd8686866040516024016111c693929190612010565b604051602081830303815290604052915060e01b6020820180517bffffffffffffffffffffffffffffffffffffffffffffffffffffffff8381831617835250505050611539565b50505050565b5f8373ffffffffffffffffffffffffffffffffffffffff1663095ea7b38484604051602401611243929190611e9f565b604051602081830303815290604052915060e01b6020820180517bffffffffffffffffffffffffffffffffffffffffffffffffffffffff8381831617835250505050905061129184826115d4565b61131a5761130f848573ffffffffffffffffffffffffffffffffffffffff1663095ea7b3865f6040516024016112c892919061207e565b604051602081830303815290604052915060e01b6020820180517bffffffffffffffffffffffffffffffffffffffffffffffffffffffff8381831617835250505050611539565b6113198482611539565b5b50505050565b6113286113e4565b73ffffffffffffffffffffffffffffffffffffffff1661134661072c565b73ffffffffffffffffffffffffffffffffffffffff16146113a5576113696113e4565b6040517f118cdaa700000000000000000000000000000000000000000000000000000000815260040161139c9190611d19565b60405180910390fd5b565b5f6113b061144d565b9050805f015f6101000a81549073ffffffffffffffffffffffffffffffffffffffff02191690556113e08261162d565b5050565b5f33905090565b5f7f9016d09d72d40fdae2fd8ceac6b6234c7706214fd39c1cd1e609a0528c199300905090565b5f5f61141c6116fe565b90508091505090565b61142d611727565b61143681611767565b50565b611441611727565b565b61144b611727565b565b5f7f237e158222e3e6968b72b9db0d8043aacf074ad9f650f0d1606b4d82ee432c00905090565b5f6114a07f360894a13ba1a3210667c828492db98dca3e2076cc3735a920a3ca505d382bbc5f1b6117eb565b5f015f9054906101000a900473ffffffffffffffffffffffffffffffffffffffff16905090565b6114d0826117f4565b8173ffffffffffffffffffffffffffffffffffffffff167fbc7cd75a20ee27fd9adebab32041f755214dbc6bffa90cc0225b39da2e5c2d3b60405160405180910390a25f8151111561152c5761152682826118bd565b50611535565b61153461193d565b5b5050565b5f5f60205f8451602086015f885af180611558576040513d5f823e3d81fd5b3d92505f519150505f821461157157600181141561158c565b5f8473ffffffffffffffffffffffffffffffffffffffff163b145b156115ce57836040517f5274afe70000000000000000000000000000000000000000000000000000000081526004016115c59190611d19565b60405180910390fd5b50505050565b5f5f5f5f60205f8651602088015f8a5af192503d91505f51905082801561162257505f82146116065760018114611621565b5f8673ffffffffffffffffffffffffffffffffffffffff163b115b5b935050505092915050565b5f6116366113eb565b90505f815f015f9054906101000a900473ffffffffffffffffffffffffffffffffffffffff16905082825f015f6101000a81548173ffffffffffffffffffffffffffffffffffffffff021916908373ffffffffffffffffffffffffffffffffffffffff1602179055508273ffffffffffffffffffffffffffffffffffffffff168173ffffffffffffffffffffffffffffffffffffffff167f8be0079c531659141344cd1fd0a4f28419497f9722a3daafe3b4186f6b6457e060405160405180910390a3505050565b5f7ff0c57e16840df040f15088dc2f81fe391c3923bec73e23a9662efc9c229c6a005f1b905090565b61172f611979565b611765576040517fd7e6bcf800000000000000000000000000000000000000000000000000000000815260040160405180910390fd5b565b61176f611727565b5f73ffffffffffffffffffffffffffffffffffffffff168173ffffffffffffffffffffffffffffffffffffffff16036117df575f6040517f1e4fbdf70000000000000000000000000000000000000000000000000000000081526004016117d69190611d19565b60405180910390fd5b6117e8816113a7565b50565b5f819050919050565b5f8173ffffffffffffffffffffffffffffffffffffffff163b0361184f57806040517f4c9c8ce30000000000000000000000000000000000000000000000000000000081526004016118469190611d19565b60405180910390fd5b8061187b7f360894a13ba1a3210667c828492db98dca3e2076cc3735a920a3ca505d382bbc5f1b6117eb565b5f015f6101000a81548173ffffffffffffffffffffffffffffffffffffffff021916908373ffffffffffffffffffffffffffffffffffffffff16021790555050565b60605f5f8473ffffffffffffffffffffffffffffffffffffffff16846040516118e691906120e9565b5f60405180830381855af49150503d805f811461191e576040519150601f19603f3d011682016040523d82523d5f602084013e611923565b606091505b5091509150611933858383611997565b9250505092915050565b5f341115611977576040517fb398979f00000000000000000000000000000000000000000000000000000000815260040160405180910390fd5b565b5f611982611412565b5f0160089054906101000a900460ff16905090565b6060826119ac576119a782611a24565b611a1c565b5f82511480156119d257505f8473ffffffffffffffffffffffffffffffffffffffff163b145b15611a1457836040517f9996b315000000000000000000000000000000000000000000000000000000008152600401611a0b9190611d19565b60405180910390fd5b819050611a1d565b5b9392505050565b5f81511115611a3557805160208201fd5b6040517fd6bda27500000000000000000000000000000000000000000000000000000000815260040160405180910390fd5b5f604051905090565b5f5ffd5b5f5ffd5b5f73ffffffffffffffffffffffffffffffffffffffff82169050919050565b5f611aa182611a78565b9050919050565b611ab181611a97565b8114611abb575f5ffd5b50565b5f81359050611acc81611aa8565b92915050565b5f5ffd5b5f5ffd5b5f601f19601f8301169050919050565b7f4e487b71000000000000000000000000000000000000000000000000000000005f52604160045260245ffd5b611b2082611ada565b810181811067ffffffffffffffff82111715611b3f57611b3e611aea565b5b80604052505050565b5f611b51611a67565b9050611b5d8282611b17565b919050565b5f67ffffffffffffffff821115611b7c57611b7b611aea565b5b611b8582611ada565b9050602081019050919050565b828183375f83830152505050565b5f611bb2611bad84611b62565b611b48565b905082815260208101848484011115611bce57611bcd611ad6565b5b611bd9848285611b92565b509392505050565b5f82601f830112611bf557611bf4611ad2565b5b8135611c05848260208601611ba0565b91505092915050565b5f5f60408385031215611c2457611c23611a70565b5b5f611c3185828601611abe565b925050602083013567ffffffffffffffff811115611c5257611c51611a74565b5b611c5e85828601611be1565b9150509250929050565b5f819050919050565b611c7a81611c68565b82525050565b5f602082019050611c935f830184611c71565b92915050565b5f819050919050565b611cab81611c99565b8114611cb5575f5ffd5b50565b5f81359050611cc681611ca2565b92915050565b5f5f60408385031215611ce257611ce1611a70565b5b5f611cef85828601611abe565b9250506020611d0085828601611cb8565b9150509250929050565b611d1381611a97565b82525050565b5f602082019050611d2c5f830184611d0a565b92915050565b5f81519050919050565b5f82825260208201905092915050565b8281835e5f83830152505050565b5f611d6482611d32565b611d6e8185611d3c565b9350611d7e818560208601611d4c565b611d8781611ada565b840191505092915050565b5f6020820190508181035f830152611daa8184611d5a565b905092915050565b5f60208284031215611dc757611dc6611a70565b5b5f611dd484828501611abe565b91505092915050565b611de681611c99565b82525050565b5f606082019050611dff5f830186611ddd565b611e0c6020830185611d0a565b611e196040830184611d0a565b949350505050565b5f81519050611e2f81611ca2565b92915050565b5f60208284031215611e4a57611e49611a70565b5b5f611e5784828501611e21565b91505092915050565b5f81519050611e6e81611aa8565b92915050565b5f60208284031215611e8957611e88611a70565b5b5f611e9684828501611e60565b91505092915050565b5f604082019050611eb25f830185611d0a565b611ebf6020830184611ddd565b9392505050565b5f8115159050919050565b611eda81611ec6565b8114611ee4575f5ffd5b50565b5f81519050611ef581611ed1565b92915050565b5f60208284031215611f1057611f0f611a70565b5b5f611f1d84828501611ee7565b91505092915050565b5f819050919050565b5f67ffffffffffffffff82169050919050565b5f819050919050565b5f611f65611f60611f5b84611f26565b611f42565b611f2f565b9050919050565b611f7581611f4b565b82525050565b5f602082019050611f8e5f830184611f6c565b92915050565b5f604082019050611fa75f830185611ddd565b611fb46020830184611d0a565b9392505050565b611fc481611c68565b8114611fce575f5ffd5b50565b5f81519050611fdf81611fbb565b92915050565b5f60208284031215611ffa57611ff9611a70565b5b5f61200784828501611fd1565b91505092915050565b5f6060820190506120235f830186611d0a565b6120306020830185611d0a565b61203d6040830184611ddd565b949350505050565b5f819050919050565b5f61206861206361205e84612045565b611f42565b611c99565b9050919050565b6120788161204e565b82525050565b5f6040820190506120915f830185611d0a565b61209e602083018461206f565b9392505050565b5f81519050919050565b5f81905092915050565b5f6120c3826120a5565b6120cd81856120af565b93506120dd818560208601611d4c565b80840191505092915050565b5f6120f482846120b9565b91508190509291505056fea2646970667358221220cdda32488225bad92fb295064735305fb7fdabf5a2664fdf34d0f2fb22e36d7264736f6c634300081c0033",
  "linkReferences": {},
  "deployedLinkReferences": {}
}