{
  "_format": "hh-sol-artifact-1",
  "contractName": "ERC4626ExecutionAdapter",
  "sourceName": "contracts/execution/ERC4626ExecutionAdapter.sol",
  "abi": [
    {
      "inputs": [
        {
          "internalType": "address",
          "name": "_vault",
          "type": "address"
        }
      ],
      "stateMutability": "nonpayable",
      "type": "constructor"
    },
    {
      "inputs": [
        {
          "internalType": "address",
          "name": "asset",
          "type": "address"
        }
      ],
      "name": "AmountMustBeGreaterThanZero",
      "type": "error"
    },
    {
      "inputs": [],
      "name": "InvalidAsset",
      "type": "error"
    },
    {
      "inputs": [
        {
          "internalType": "address",
          "name": "token",
          "type": "address"
        }
      ],
      "name": "SafeERC20FailedOperation",
      "type": "error"
    },
    {
      "inputs": [],
      "name": "SharesMustBeGreaterThanZero",
      "type": "error"
    },
    {
      "inputs": [],
      "name": "TransferFailed",
      "type": "error"
    },
    {
      "inputs": [],
      "name": "ZeroAddress",
      "type": "error"
    },
    {
      "inputs": [],
      "name": "UNDERLYING_ASSET",
      "outputs": [
        {
          "internalType": "contract IERC20",
          "name": "",
          "type": "address"
        }
      ],
      "stateMutability": "view",
      "type": "function"
    },
    {
      "inputs": [],
      "name": "VAULT",
      "outputs": [
        {
          "internalType": "contract IERC4626",
          "name": "",
          "type": "address"
        }
      ],
      "stateMutability": "view",
      "type": "function"
    },
    {
      "inputs": [
        {
          "internalType": "address",
          "name": "asset",
          "type": "address"
        },
        {
          "internalType": "uint256",
          "name": "amount",
          "type": "uint256"
        }
      ],
      "name": "buy",
      "outputs": [],
      "stateMutability": "nonpayable",
      "type": "function"
    },
    {
      "inputs": [
        {
          "internalType": "address",
          "name": "asset",
          "type": "address"
        },
        {
          "internalType": "uint256",
          "name": "amount",
          "type": "uint256"
        }
      ],
      "name": "sell",
      "outputs": [],
      "stateMutability": "nonpayable",
      "type": "function"
    }
  ],
  "bytecode": "0x60c060405234801561000f575f5ffd5b5060405161087b38038061087b83398101604081905261002e916100d3565b6001600160a01b0381166100555760405163d92e233d60e01b815260040160405180910390fd5b6001600160a01b0381166080819052604080516338d52e0f60e01b815290516338d52e0f916004808201926020929091908290030181865afa15801561009d573d5f5f3e3d5ffd5b505050506040513d601f19601f820116820180604052508101906100c191906100d3565b6001600160a01b031660a05250610100565b5f602082840312156100e3575f5ffd5b81516001600160a01b03811681146100f9575f5ffd5b9392505050565b60805160a05161071061016b5f395f818160be015281816103150152818161035401528181610389015261046f01525f818160530152818160e2015281816101760152818161022c015281816102a7015281816103ab015281816103ee015261049101526107105ff3fe608060405234801561000f575f5ffd5b506004361061004a575f3560e01c8063411557d11461004e5780636c197ff514610091578063cce7ec13146100a6578063e6025393146100b9575b5f5ffd5b6100757f000000000000000000000000000000000000000000000000000000000000000081565b6040516001600160a01b03909116815260200160405180910390f35b6100a461009f366004610668565b6100e0565b005b6100a46100b4366004610668565b6102a5565b6100757f000000000000000000000000000000000000000000000000000000000000000081565b7f00000000000000000000000000000000000000000000000000000000000000006001600160a01b0316826001600160a01b03161461013257604051636448d6e960e11b815260040160405180910390fd5b805f03610152576040516314e6cbb960e11b815260040160405180910390fd5b6040516323b872dd60e01b8152336004820152306024820152604481018290525f907f00000000000000000000000000000000000000000000000000000000000000006001600160a01b0316906323b872dd906064016020604051808303815f875af11580156101c4573d5f5f3e3d5ffd5b505050506040513d601f19601f820116820180604052508101906101e8919061069d565b905080610208576040516312171d8360e31b815260040160405180910390fd5b604051635d043b2960e11b8152600481018390523360248201523060448201525f907f00000000000000000000000000000000000000000000000000000000000000006001600160a01b03169063ba087652906064016020604051808303815f875af115801561027a573d5f5f3e3d5ffd5b505050506040513d601f19601f8201168201806040525081019061029e91906106c3565b5050505050565b7f00000000000000000000000000000000000000000000000000000000000000006001600160a01b0316826001600160a01b0316146102f757604051636448d6e960e11b815260040160405180910390fd5b805f0361034757604051636b30633560e01b81526001600160a01b037f00000000000000000000000000000000000000000000000000000000000000001660048201526024015b60405180910390fd5b61037c6001600160a01b037f0000000000000000000000000000000000000000000000000000000000000000163330846104bb565b6103d06001600160a01b037f0000000000000000000000000000000000000000000000000000000000000000167f000000000000000000000000000000000000000000000000000000000000000083610528565b604051636e553f6560e01b8152600481018290523360248201525f907f00000000000000000000000000000000000000000000000000000000000000006001600160a01b031690636e553f65906044016020604051808303815f875af115801561043c573d5f5f3e3d5ffd5b505050506040513d601f19601f8201168201806040525081019061046091906106c3565b90506104b66001600160a01b037f0000000000000000000000000000000000000000000000000000000000000000167f00000000000000000000000000000000000000000000000000000000000000005f610528565b505050565b6040516001600160a01b0384811660248301528381166044830152606482018390526105229186918216906323b872dd906084015b604051602081830303815290604052915060e01b6020820180516001600160e01b0383818316178352505050506105b3565b50505050565b604080516001600160a01b038416602482015260448082018490528251808303909101815260649091019091526020810180516001600160e01b031663095ea7b360e01b179052610579848261061f565b610522576040516001600160a01b0384811660248301525f60448301526105ad91869182169063095ea7b3906064016104f0565b61052284825b5f5f60205f8451602086015f885af1806105d2576040513d5f823e3d81fd5b50505f513d915081156105e95780600114156105f6565b6001600160a01b0384163b155b1561052257604051635274afe760e01b81526001600160a01b038516600482015260240161033e565b5f5f5f5f60205f8651602088015f8a5af192503d91505f51905082801561065e57508115610650578060011461065e565b5f866001600160a01b03163b115b9695505050505050565b5f5f60408385031215610679575f5ffd5b82356001600160a01b038116811461068f575f5ffd5b946020939093013593505050565b5f602082840312156106ad575f5ffd5b815180151581146106bc575f5ffd5b9392505050565b5f602082840312156106d3575f5ffd5b505191905056fea2646970667358221220f3cc2f049b53804c22c695f54353a2899a59f30ed09dc7fab20b95874ca69e9264736f6c634300081c0033",
  "linkReferences": {},
  "deployedLinkReferences": {}
}