{
  "_format": "hh-sol-artifact-1",
  "contractName": "OrionVaultFactory",
  "sourceName": "contracts/vaults/OrionVaultFactory.sol",
  "abi": [
    {
      "inputs": [
        {
          "internalType": "address",
          "name": "target",
          "type": "address"
        }
      ],
      "name": "AddressEmptyCode",
      "type": "error"
    },
    {
      "inputs": [
        {
          "internalType": "address",
          "name": "implementation",
          "type": "address"
        }
      ],
      "name": "ERC1967InvalidImplementation",
      "type": "error"
    },
    {
      "inputs": [],
      "name": "ERC1967NonPayable",
      "type": "error"
    },
    {
      "inputs": [],
      "name": "FailedCall",
      "type": "error"
    },
    {
      "inputs": [],
      "name": "InvalidInitialization",
      "type": "error"
    },
    {
      "inputs": [],
      "name": "NotInitializing",
      "type": "error"
    },
    {
      "inputs": [
        {
          "internalType": "address",
          "name": "owner",
          "type": "address"
        }
      ],
      "name": "OwnableInvalidOwner",
      "type": "error"
    },
    {
      "inputs": [
        {
          "internalType": "address",
          "name": "account",
          "type": "address"
        }
      ],
      "name": "OwnableUnauthorizedAccount",
      "type": "error"
    },
    {
      "inputs": [],
      "name": "ReentrancyGuardReentrantCall",
      "type": "error"
    },
    {
      "inputs": [],
      "name": "SystemNotIdle",
      "type": "error"
    },
    {
      "inputs": [],
      "name": "UUPSUnauthorizedCallContext",
      "type": "error"
    },
    {
      "inputs": [
        {
          "internalType": "bytes32",
          "name": "slot",
          "type": "bytes32"
        }
      ],
      "name": "UUPSUnsupportedProxiableUUID",
      "type": "error"
    },
    {
      "inputs": [],
      "name": "ZeroAddress",
      "type": "error"
    },
    {
      "anonymous": false,
      "inputs": [
        {
          "indexed": false,
          "internalType": "uint64",
          "name": "version",
          "type": "uint64"
        }
      ],
      "name": "Initialized",
      "type": "event"
    },
    {
      "anonymous": false,
      "inputs": [
        {
          "indexed": true,
          "internalType": "address",
          "name": "vault",
          "type": "address"
        },
        {
          "indexed": true,
          "internalType": "address",
          "name": "curator",
          "type": "address"
        },
        {
          "indexed": true,
          "internalType": "address",
          "name": "deployer",
          "type": "address"
        },
        {
          "indexed": false,
          "internalType": "enum EventsLib.VaultType",
          "name": "vaultType",
          "type": "uint8"
        }
      ],
      "name": "OrionVaultCreated",
      "type": "event"
    },
    {
      "anonymous": false,
      "inputs": [
        {
          "indexed": true,
          "internalType": "address",
          "name": "previousOwner",
          "type": "address"
        },
        {
          "indexed": true,
          "internalType": "address",
          "name": "newOwner",
          "type": "address"
        }
      ],
      "name": "OwnershipTransferStarted",
      "type": "event"
    },
    {
      "anonymous": false,
      "inputs": [
        {
          "indexed": true,
          "internalType": "address",
          "name": "previousOwner",
          "type": "address"
        },
        {
          "indexed": true,
          "internalType": "address",
          "name": "newOwner",
          "type": "address"
        }
      ],
      "name": "OwnershipTransferred",
      "type": "event"
    },
    {
      "anonymous": false,
      "inputs": [
        {
          "indexed": true,
          "internalType": "address",
          "name": "implementation",
          "type": "address"
        }
      ],
      "name": "Upgraded",
      "type": "event"
    },
    {
      "inputs": [],
      "name": "UPGRADE_INTERFACE_VERSION",
      "outputs": [
        {
          "internalType": "string",
          "name": "",
          "type": "string"
        }
      ],
      "stateMutability": "view",
      "type": "function"
    },
    {
      "inputs": [],
      "name": "acceptOwnership",
      "outputs": [],
      "stateMutability": "nonpayable",
      "type": "function"
    },
    {
      "inputs": [],
      "name": "config",
      "outputs": [
        {
          "internalType": "contract IOrionConfig",
          "name": "",
          "type": "address"
        }
      ],
      "stateMutability": "view",
      "type": "function"
    },
    {
      "inputs": [
        {
          "internalType": "address",
          "name": "curator",
          "type": "address"
        },
        {
          "internalType": "string",
          "name": "name",
          "type": "string"
        },
        {
          "internalType": "string",
          "name": "symbol",
          "type": "string"
        }
      ],
      "name": "createOrionEncryptedVault",
      "outputs": [
        {
          "internalType": "address",
          "name": "vault",
          "type": "address"
        }
      ],
      "stateMutability": "nonpayable",
      "type": "function"
    },
    {
      "inputs": [
        {
          "internalType": "address",
          "name": "curator",
          "type": "address"
        },
        {
          "internalType": "string",
          "name": "name",
          "type": "string"
        },
        {
          "internalType": "string",
          "name": "symbol",
          "type": "string"
        }
      ],
      "name": "createOrionTransparentVault",
      "outputs": [
        {
          "internalType": "address",
          "name": "vault",
          "type": "address"
        }
      ],
      "stateMutability": "nonpayable",
      "type": "function"
    },
    {
      "inputs": [],
      "name": "deployer",
      "outputs": [
        {
          "internalType": "address",
          "name": "",
          "type": "address"
        }
      ],
      "stateMutability": "view",
      "type": "function"
    },
    {
      "inputs": [],
      "name": "encryptedVaultImplementation",
      "outputs": [
        {
          "internalType": "address",
          "name": "",
          "type": "address"
        }
      ],
      "stateMutability": "view",
      "type": "function"
    },
    {
      "inputs": [
        {
          "internalType": "address",
          "name": "initialOwner",
          "type": "address"
        },
        {
          "internalType": "address",
          "name": "configAddress",
          "type": "address"
        }
      ],
      "name": "initialize",
      "outputs": [],
      "stateMutability": "nonpayable",
      "type": "function"
    },
    {
      "inputs": [],
      "name": "owner",
      "outputs": [
        {
          "internalType": "address",
          "name": "",
          "type": "address"
        }
      ],
      "stateMutability": "view",
      "type": "function"
    },
    {
      "inputs": [],
      "name": "pendingOwner",
      "outputs": [
        {
          "internalType": "address",
          "name": "",
          "type": "address"
        }
      ],
      "stateMutability": "view",
      "type": "function"
    },
    {
      "inputs": [],
      "name": "proxiableUUID",
      "outputs": [
        {
          "internalType": "bytes32",
          "name": "",
          "type": "bytes32"
        }
      ],
      "stateMutability": "view",
      "type": "function"
    },
    {
      "inputs": [],
      "name": "renounceOwnership",
      "outputs": [],
      "stateMutability": "nonpayable",
      "type": "function"
    },
    {
      "inputs": [
        {
          "internalType": "address",
          "name": "transparentImpl",
          "type": "address"
        },
        {
          "internalType": "address",
          "name": "encryptedImpl",
          "type": "address"
        }
      ],
      "name": "setImplementations",
      "outputs": [],
      "stateMutability": "nonpayable",
      "type": "function"
    },
    {
      "inputs": [
        {
          "internalType": "address",
          "name": "newOwner",
          "type": "address"
        }
      ],
      "name": "transferOwnership",
      "outputs": [],
      "stateMutability": "nonpayable",
      "type": "function"
    },
    {
      "inputs": [],
      "name": "transparentVaultImplementation",
      "outputs": [
        {
          "internalType": "address",
          "name": "",
          "type": "address"
        }
      ],
      "stateMutability": "view",
      "type": "function"
    },
    {
      "inputs": [
        {
          "internalType": "address",
          "name": "newImplementation",
          "type": "address"
        },
        {
          "internalType": "bytes",
          "name": "data",
          "type": "bytes"
        }
      ],
      "name": "upgradeToAndCall",
      "outputs": [],
      "stateMutability": "payable",
      "type": "function"
    }
  ],
  "bytecode": "0x60a0604052306080523480156012575f5ffd5b506080516118316100395f395f8181610b5401528181610b7d0152610cc101526118315ff3fe6080604052600436106100ef575f3560e01c80638da5cb5b11610087578063c544d8dc11610057578063c544d8dc1461027a578063d5f3948814610299578063e30c3978146102b7578063f2fde38b146102cb575f5ffd5b80638da5cb5b146101eb5780639c6aac95146101ff578063ad3cb1cc1461021e578063c3983f691461025b575f5ffd5b8063715018a6116100c2578063715018a61461018557806379502c551461019957806379ba5097146101b857806385bff341146101cc575f5ffd5b806310e43b2d146100f3578063485cc9551461012f5780634f1ef2861461015057806352d1902d14610163575b5f5ffd5b3480156100fe575f5ffd5b50600254610112906001600160a01b031681565b6040516001600160a01b0390911681526020015b60405180910390f35b34801561013a575f5ffd5b5061014e6101493660046110af565b6102ea565b005b61014e61015e3660046110f4565b610424565b34801561016e575f5ffd5b50610177610443565b604051908152602001610126565b348015610190575f5ffd5b5061014e61045e565b3480156101a4575f5ffd5b50600154610112906001600160a01b031681565b3480156101c3575f5ffd5b5061014e610471565b3480156101d7575f5ffd5b5061014e6101e63660046110af565b6104be565b3480156101f6575f5ffd5b50610112610542565b34801561020a575f5ffd5b50600354610112906001600160a01b031681565b348015610229575f5ffd5b5061024e604051806040016040528060058152602001640352e302e360dc1b81525081565b60405161012691906111e6565b348015610266575f5ffd5b5061011261027536600461123d565b610576565b348015610285575f5ffd5b5061011261029436600461123d565b6107fe565b3480156102a4575f5ffd5b505f54610112906001600160a01b031681565b3480156102c2575f5ffd5b50610112610a49565b3480156102d6575f5ffd5b5061014e6102e53660046112bd565b610a71565b5f6102f3610af6565b805490915060ff600160401b820416159067ffffffffffffffff165f8115801561031a5750825b90505f8267ffffffffffffffff1660011480156103365750303b155b905081158015610344575080155b156103625760405163f92ee8a960e01b815260040160405180910390fd5b845467ffffffffffffffff19166001178555831561038c57845460ff60401b1916600160401b1785555b61039587610b20565b61039d610b31565b6103a5610b31565b6103ad610b39565b5f8054336001600160a01b031991821617909155600180549091166001600160a01b038816179055831561041b57845460ff60401b19168555604051600181527fc7f505b2f371ae2175ee4913f4499e1f2633a7b5936321eed1cdaeb6115181d29060200160405180910390a15b50505050505050565b61042c610b49565b61043582610bed565b61043f8282610bf5565b5050565b5f61044c610cb6565b505f5160206117dc5f395f51905f5290565b610466610cff565b61046f5f610d31565b565b338061047b610a49565b6001600160a01b0316146104b25760405163118cdaa760e01b81526001600160a01b03821660048201526024015b60405180910390fd5b6104bb81610d31565b50565b6104c6610cff565b6001600160a01b0382166104ed5760405163d92e233d60e01b815260040160405180910390fd5b6001600160a01b0381166105145760405163d92e233d60e01b815260040160405180910390fd5b600280546001600160a01b039384166001600160a01b03199182161790915560038054929093169116179055565b5f807f9016d09d72d40fdae2fd8ceac6b6234c7706214fd39c1cd1e609a0528c1993005b546001600160a01b031692915050565b5f61057f610d69565b610587610cff565b6001600160a01b0386166105ae5760405163d92e233d60e01b815260040160405180910390fd5b6003546001600160a01b03166105d75760405163d92e233d60e01b815260040160405180910390fd5b60015f9054906101000a90046001600160a01b03166001600160a01b031663edcf9c1f6040518163ffffffff1660e01b8152600401602060405180830381865afa158015610627573d5f5f3e3d5ffd5b505050506040513d601f19601f8201168201806040525081019061064b91906112d6565b610668576040516312aecd8160e01b815260040160405180910390fd5b6001546040515f9163100b506960e11b9161069b918a916001600160a01b03909116908a908a908a908a9060240161131d565b60408051601f198184030181529181526020820180516001600160e01b03166001600160e01b03199094169390931790925260035491519092505f916001600160a01b03169083906106ec90611087565b6106f7929190611369565b604051809103905ff080158015610710573d5f5f3e3d5ffd5b5060018054604051631e832de160e21b81529295508593506001600160a01b031691637a0cb78491610747918591906004016113b4565b5f604051808303815f87803b15801561075e575f5ffd5b505af1158015610770573d5f5f3e3d5ffd5b50505050336001600160a01b0316886001600160a01b0316846001600160a01b03167fe36cd15f95d58db8766da292a38b27881bfaf9bdb8c464d9855d4e56bc40e7bf60016040516107c291906113d1565b60405180910390a450506107f560017f9b779b17422d0df92223018b32b4d1fa46e071723d6817e2486d003becc55f0055565b95945050505050565b5f610807610d69565b61080f610cff565b6001600160a01b0386166108365760405163d92e233d60e01b815260040160405180910390fd5b6002546001600160a01b031661085f5760405163d92e233d60e01b815260040160405180910390fd5b60015f9054906101000a90046001600160a01b03166001600160a01b031663edcf9c1f6040518163ffffffff1660e01b8152600401602060405180830381865afa1580156108af573d5f5f3e3d5ffd5b505050506040513d601f19601f820116820180604052508101906108d391906112d6565b6108f0576040516312aecd8160e01b815260040160405180910390fd5b6001546040515f9163100b506960e11b91610923918a916001600160a01b03909116908a908a908a908a9060240161131d565b60408051601f198184030181529181526020820180516001600160e01b03166001600160e01b03199094169390931790925260025491519092505f916001600160a01b031690839061097490611087565b61097f929190611369565b604051809103905ff080158015610998573d5f5f3e3d5ffd5b50600154604051631e832de160e21b81529194508492506001600160a01b031690637a0cb784906109cf9084905f906004016113b4565b5f604051808303815f87803b1580156109e6575f5ffd5b505af11580156109f8573d5f5f3e3d5ffd5b50505050336001600160a01b0316886001600160a01b0316846001600160a01b03167fe36cd15f95d58db8766da292a38b27881bfaf9bdb8c464d9855d4e56bc40e7bf5f6040516107c291906113d1565b5f807f237e158222e3e6968b72b9db0d8043aacf074ad9f650f0d1606b4d82ee432c00610566565b610a79610cff565b7f237e158222e3e6968b72b9db0d8043aacf074ad9f650f0d1606b4d82ee432c0080546001600160a01b0319166001600160a01b0383169081178255610abd610542565b6001600160a01b03167f38d16b8cac22d99fc7c124b9cd0de2d3fa1faef420bfe791d8c362d765e2270060405160405180910390a35050565b5f807ff0c57e16840df040f15088dc2f81fe391c3923bec73e23a9662efc9c229c6a005b92915050565b610b28610dd9565b6104bb81610dfe565b61046f610dd9565b610b41610dd9565b61046f610e2f565b306001600160a01b037f0000000000000000000000000000000000000000000000000000000000000000161480610bcf57507f00000000000000000000000000000000000000000000000000000000000000006001600160a01b0316610bc35f5160206117dc5f395f51905f52546001600160a01b031690565b6001600160a01b031614155b1561046f5760405163703e46dd60e11b815260040160405180910390fd5b6104bb610cff565b816001600160a01b03166352d1902d6040518163ffffffff1660e01b8152600401602060405180830381865afa925050508015610c4f575060408051601f3d908101601f19168201909252610c4c918101906113df565b60015b610c7757604051634c9c8ce360e01b81526001600160a01b03831660048201526024016104a9565b5f5160206117dc5f395f51905f528114610ca757604051632a87526960e21b8152600481018290526024016104a9565b610cb18383610e37565b505050565b306001600160a01b037f0000000000000000000000000000000000000000000000000000000000000000161461046f5760405163703e46dd60e11b815260040160405180910390fd5b33610d08610542565b6001600160a01b03161461046f5760405163118cdaa760e01b81523360048201526024016104a9565b7f237e158222e3e6968b72b9db0d8043aacf074ad9f650f0d1606b4d82ee432c0080546001600160a01b031916815561043f82610e8c565b7f9b779b17422d0df92223018b32b4d1fa46e071723d6817e2486d003becc55f00805460011901610dad57604051633ee5aeb560e01b815260040160405180910390fd5b60029055565b60017f9b779b17422d0df92223018b32b4d1fa46e071723d6817e2486d003becc55f0055565b610de1610efc565b61046f57604051631afcd79f60e31b815260040160405180910390fd5b610e06610dd9565b6001600160a01b0381166104b257604051631e4fbdf760e01b81525f60048201526024016104a9565b610db3610dd9565b610e4082610f15565b6040516001600160a01b038316907fbc7cd75a20ee27fd9adebab32041f755214dbc6bffa90cc0225b39da2e5c2d3b905f90a2805115610e8457610cb18282610f78565b61043f610fe1565b7f9016d09d72d40fdae2fd8ceac6b6234c7706214fd39c1cd1e609a0528c19930080546001600160a01b031981166001600160a01b03848116918217845560405192169182907f8be0079c531659141344cd1fd0a4f28419497f9722a3daafe3b4186f6b6457e0905f90a3505050565b5f610f05610af6565b54600160401b900460ff16919050565b806001600160a01b03163b5f03610f4a57604051634c9c8ce360e01b81526001600160a01b03821660048201526024016104a9565b5f5160206117dc5f395f51905f5280546001600160a01b0319166001600160a01b0392909216919091179055565b60605f5f846001600160a01b031684604051610f9491906113f6565b5f60405180830381855af49150503d805f8114610fcc576040519150601f19603f3d011682016040523d82523d5f602084013e610fd1565b606091505b50915091506107f5858383611000565b341561046f5760405163b398979f60e01b815260040160405180910390fd5b606082611015576110108261105f565b611058565b815115801561102c57506001600160a01b0384163b155b1561105557604051639996b31560e01b81526001600160a01b03851660048201526024016104a9565b50805b9392505050565b80511561106e57805160208201fd5b60405163d6bda27560e01b815260040160405180910390fd5b6103cf8061140d83390190565b80356001600160a01b03811681146110aa575f5ffd5b919050565b5f5f604083850312156110c0575f5ffd5b6110c983611094565b91506110d760208401611094565b90509250929050565b634e487b7160e01b5f52604160045260245ffd5b5f5f60408385031215611105575f5ffd5b61110e83611094565b9150602083013567ffffffffffffffff811115611129575f5ffd5b8301601f81018513611139575f5ffd5b803567ffffffffffffffff811115611153576111536110e0565b604051601f8201601f19908116603f0116810167ffffffffffffffff81118282101715611182576111826110e0565b604052818152828201602001871015611199575f5ffd5b816020840160208301375f602083830101528093505050509250929050565b5f81518084528060208401602086015e5f602082860101526020601f19601f83011685010191505092915050565b602081525f61105860208301846111b8565b5f5f83601f840112611208575f5ffd5b50813567ffffffffffffffff81111561121f575f5ffd5b602083019150836020828501011115611236575f5ffd5b9250929050565b5f5f5f5f5f60608688031215611251575f5ffd5b61125a86611094565b9450602086013567ffffffffffffffff811115611275575f5ffd5b611281888289016111f8565b909550935050604086013567ffffffffffffffff8111156112a0575f5ffd5b6112ac888289016111f8565b969995985093965092949392505050565b5f602082840312156112cd575f5ffd5b61105882611094565b5f602082840312156112e6575f5ffd5b81518015158114611058575f5ffd5b81835281816020850137505f828201602090810191909152601f909101601f19169091010190565b6001600160a01b038781168252861660208201526080604082018190525f9061134990830186886112f5565b828103606084015261135c8185876112f5565b9998505050505050505050565b6001600160a01b03831681526040602082018190525f9061138c908301846111b8565b949350505050565b600281106113b057634e487b7160e01b5f52602160045260245ffd5b9052565b6001600160a01b0383168152604081016110586020830184611394565b60208101610b1a8284611394565b5f602082840312156113ef575f5ffd5b5051919050565b5f82518060208501845e5f92019182525091905056fe60806040526040516103cf3803806103cf8339810160408190526100229161023b565b61002c8282610033565b5050610320565b61003c82610091565b6040516001600160a01b038316907fbc7cd75a20ee27fd9adebab32041f755214dbc6bffa90cc0225b39da2e5c2d3b905f90a280511561008557610080828261010c565b505050565b61008d61017f565b5050565b806001600160a01b03163b5f036100cb57604051634c9c8ce360e01b81526001600160a01b03821660048201526024015b60405180910390fd5b7f360894a13ba1a3210667c828492db98dca3e2076cc3735a920a3ca505d382bbc80546001600160a01b0319166001600160a01b0392909216919091179055565b60605f5f846001600160a01b031684604051610128919061030a565b5f60405180830381855af49150503d805f8114610160576040519150601f19603f3d011682016040523d82523d5f602084013e610165565b606091505b5090925090506101768583836101a0565b95945050505050565b341561019e5760405163b398979f60e01b815260040160405180910390fd5b565b6060826101b5576101b0826101ff565b6101f8565b81511580156101cc57506001600160a01b0384163b155b156101f557604051639996b31560e01b81526001600160a01b03851660048201526024016100c2565b50805b9392505050565b80511561020e57805160208201fd5b60405163d6bda27560e01b815260040160405180910390fd5b634e487b7160e01b5f52604160045260245ffd5b5f5f6040838503121561024c575f5ffd5b82516001600160a01b0381168114610262575f5ffd5b60208401519092506001600160401b0381111561027d575f5ffd5b8301601f8101851361028d575f5ffd5b80516001600160401b038111156102a6576102a6610227565b604051601f8201601f19908116603f011681016001600160401b03811182821017156102d4576102d4610227565b6040528181528282016020018710156102eb575f5ffd5b8160208401602083015e5f602083830101528093505050509250929050565b5f82518060208501845e5f920191825250919050565b60a38061032c5f395ff3fe6080604052600a600c565b005b60186014601a565b6050565b565b5f604b7f360894a13ba1a3210667c828492db98dca3e2076cc3735a920a3ca505d382bbc546001600160a01b031690565b905090565b365f5f375f5f365f845af43d5f5f3e8080156069573d5ff35b3d5ffdfea2646970667358221220ff5162001e9dedf9e42510562d81cfc79e767838b6e5e1dce510f6cea022dae464736f6c634300081c0033360894a13ba1a3210667c828492db98dca3e2076cc3735a920a3ca505d382bbca2646970667358221220214b8b7f9519ed6a4966ce5cb6b2562646f424138a6c12f5ea80a83d3a48493464736f6c634300081c0033",
  "linkReferences": {},
  "deployedLinkReferences": {}
}