{
  "_format": "hh-sol-artifact-1",
  "contractName": "OrionVaultFactory",
  "sourceName": "contracts/vaults/OrionVaultFactory.sol",
  "abi": [
    {
      "inputs": [
        {
          "internalType": "address",
          "name": "target",
          "type": "address"
        }
      ],
      "name": "AddressEmptyCode",
      "type": "error"
    },
    {
      "inputs": [
        {
          "internalType": "address",
          "name": "implementation",
          "type": "address"
        }
      ],
      "name": "ERC1967InvalidImplementation",
      "type": "error"
    },
    {
      "inputs": [],
      "name": "ERC1967NonPayable",
      "type": "error"
    },
    {
      "inputs": [],
      "name": "FailedCall",
      "type": "error"
    },
    {
      "inputs": [],
      "name": "InvalidInitialization",
      "type": "error"
    },
    {
      "inputs": [],
      "name": "NotInitializing",
      "type": "error"
    },
    {
      "inputs": [
        {
          "internalType": "address",
          "name": "owner",
          "type": "address"
        }
      ],
      "name": "OwnableInvalidOwner",
      "type": "error"
    },
    {
      "inputs": [
        {
          "internalType": "address",
          "name": "account",
          "type": "address"
        }
      ],
      "name": "OwnableUnauthorizedAccount",
      "type": "error"
    },
    {
      "inputs": [],
      "name": "ReentrancyGuardReentrantCall",
      "type": "error"
    },
    {
      "inputs": [],
      "name": "SystemNotIdle",
      "type": "error"
    },
    {
      "inputs": [],
      "name": "UUPSUnauthorizedCallContext",
      "type": "error"
    },
    {
      "inputs": [
        {
          "internalType": "bytes32",
          "name": "slot",
          "type": "bytes32"
        }
      ],
      "name": "UUPSUnsupportedProxiableUUID",
      "type": "error"
    },
    {
      "inputs": [],
      "name": "ZeroAddress",
      "type": "error"
    },
    {
      "anonymous": false,
      "inputs": [
        {
          "indexed": false,
          "internalType": "uint64",
          "name": "version",
          "type": "uint64"
        }
      ],
      "name": "Initialized",
      "type": "event"
    },
    {
      "anonymous": false,
      "inputs": [
        {
          "indexed": true,
          "internalType": "address",
          "name": "vault",
          "type": "address"
        },
        {
          "indexed": true,
          "internalType": "address",
          "name": "curator",
          "type": "address"
        },
        {
          "indexed": true,
          "internalType": "address",
          "name": "deployer",
          "type": "address"
        },
        {
          "indexed": false,
          "internalType": "enum EventsLib.VaultType",
          "name": "vaultType",
          "type": "uint8"
        }
      ],
      "name": "OrionVaultCreated",
      "type": "event"
    },
    {
      "anonymous": false,
      "inputs": [
        {
          "indexed": true,
          "internalType": "address",
          "name": "previousOwner",
          "type": "address"
        },
        {
          "indexed": true,
          "internalType": "address",
          "name": "newOwner",
          "type": "address"
        }
      ],
      "name": "OwnershipTransferStarted",
      "type": "event"
    },
    {
      "anonymous": false,
      "inputs": [
        {
          "indexed": true,
          "internalType": "address",
          "name": "previousOwner",
          "type": "address"
        },
        {
          "indexed": true,
          "internalType": "address",
          "name": "newOwner",
          "type": "address"
        }
      ],
      "name": "OwnershipTransferred",
      "type": "event"
    },
    {
      "anonymous": false,
      "inputs": [
        {
          "indexed": true,
          "internalType": "address",
          "name": "implementation",
          "type": "address"
        }
      ],
      "name": "Upgraded",
      "type": "event"
    },
    {
      "inputs": [],
      "name": "UPGRADE_INTERFACE_VERSION",
      "outputs": [
        {
          "internalType": "string",
          "name": "",
          "type": "string"
        }
      ],
      "stateMutability": "view",
      "type": "function"
    },
    {
      "inputs": [],
      "name": "acceptOwnership",
      "outputs": [],
      "stateMutability": "nonpayable",
      "type": "function"
    },
    {
      "inputs": [],
      "name": "config",
      "outputs": [
        {
          "internalType": "contract IOrionConfig",
          "name": "",
          "type": "address"
        }
      ],
      "stateMutability": "view",
      "type": "function"
    },
    {
      "inputs": [
        {
          "internalType": "address",
          "name": "curator",
          "type": "address"
        },
        {
          "internalType": "string",
          "name": "name",
          "type": "string"
        },
        {
          "internalType": "string",
          "name": "symbol",
          "type": "string"
        }
      ],
      "name": "createOrionEncryptedVault",
      "outputs": [
        {
          "internalType": "address",
          "name": "vault",
          "type": "address"
        }
      ],
      "stateMutability": "nonpayable",
      "type": "function"
    },
    {
      "inputs": [
        {
          "internalType": "address",
          "name": "curator",
          "type": "address"
        },
        {
          "internalType": "string",
          "name": "name",
          "type": "string"
        },
        {
          "internalType": "string",
          "name": "symbol",
          "type": "string"
        }
      ],
      "name": "createOrionTransparentVault",
      "outputs": [
        {
          "internalType": "address",
          "name": "vault",
          "type": "address"
        }
      ],
      "stateMutability": "nonpayable",
      "type": "function"
    },
    {
      "inputs": [],
      "name": "deployer",
      "outputs": [
        {
          "internalType": "address",
          "name": "",
          "type": "address"
        }
      ],
      "stateMutability": "view",
      "type": "function"
    },
    {
      "inputs": [],
      "name": "encryptedVaultImplementation",
      "outputs": [
        {
          "internalType": "address",
          "name": "",
          "type": "address"
        }
      ],
      "stateMutability": "view",
      "type": "function"
    },
    {
      "inputs": [
        {
          "internalType": "address",
          "name": "initialOwner",
          "type": "address"
        },
        {
          "internalType": "address",
          "name": "configAddress",
          "type": "address"
        }
      ],
      "name": "initialize",
      "outputs": [],
      "stateMutability": "nonpayable",
      "type": "function"
    },
    {
      "inputs": [],
      "name": "owner",
      "outputs": [
        {
          "internalType": "address",
          "name": "",
          "type": "address"
        }
      ],
      "stateMutability": "view",
      "type": "function"
    },
    {
      "inputs": [],
      "name": "pendingOwner",
      "outputs": [
        {
          "internalType": "address",
          "name": "",
          "type": "address"
        }
      ],
      "stateMutability": "view",
      "type": "function"
    },
    {
      "inputs": [],
      "name": "proxiableUUID",
      "outputs": [
        {
          "internalType": "bytes32",
          "name": "",
          "type": "bytes32"
        }
      ],
      "stateMutability": "view",
      "type": "function"
    },
    {
      "inputs": [],
      "name": "renounceOwnership",
      "outputs": [],
      "stateMutability": "nonpayable",
      "type": "function"
    },
    {
      "inputs": [
        {
          "internalType": "address",
          "name": "transparentImpl",
          "type": "address"
        },
        {
          "internalType": "address",
          "name": "encryptedImpl",
          "type": "address"
        }
      ],
      "name": "setImplementations",
      "outputs": [],
      "stateMutability": "nonpayable",
      "type": "function"
    },
    {
      "inputs": [
        {
          "internalType": "address",
          "name": "newOwner",
          "type": "address"
        }
      ],
      "name": "transferOwnership",
      "outputs": [],
      "stateMutability": "nonpayable",
      "type": "function"
    },
    {
      "inputs": [],
      "name": "transparentVaultImplementation",
      "outputs": [
        {
          "internalType": "address",
          "name": "",
          "type": "address"
        }
      ],
      "stateMutability": "view",
      "type": "function"
    },
    {
      "inputs": [
        {
          "internalType": "address",
          "name": "newConfig",
          "type": "address"
        }
      ],
      "name": "updateConfig",
      "outputs": [],
      "stateMutability": "nonpayable",
      "type": "function"
    },
    {
      "inputs": [
        {
          "internalType": "address",
          "name": "newImplementation",
          "type": "address"
        },
        {
          "internalType": "bytes",
          "name": "data",
          "type": "bytes"
        }
      ],
      "name": "upgradeToAndCall",
      "outputs": [],
      "stateMutability": "payable",
      "type": "function"
    }
  ],
  "bytecode": "0x60a0604052306080523480156012575f5ffd5b5060805161193d6100395f395f8181610c6001528181610c890152610dcd015261193d5ff3fe6080604052600436106100fa575f3560e01c806385bff34111610092578063c3983f6911610062578063c3983f6914610285578063c544d8dc146102a4578063d5f39488146102c3578063e30c3978146102e1578063f2fde38b146102f5575f5ffd5b806385bff341146101f65780638da5cb5b146102155780639c6aac9514610229578063ad3cb1cc14610248575f5ffd5b80636cc919c8116100cd5780636cc919c814610190578063715018a6146101af57806379502c55146101c357806379ba5097146101e2575f5ffd5b806310e43b2d146100fe578063485cc9551461013a5780634f1ef2861461015b57806352d1902d1461016e575b5f5ffd5b348015610109575f5ffd5b5060025461011d906001600160a01b031681565b6040516001600160a01b0390911681526020015b60405180910390f35b348015610145575f5ffd5b506101596101543660046111bb565b610314565b005b610159610169366004611200565b61044e565b348015610179575f5ffd5b5061018261046d565b604051908152602001610131565b34801561019b575f5ffd5b506101596101aa3660046112c4565b610488565b3480156101ba575f5ffd5b5061015961056a565b3480156101ce575f5ffd5b5060015461011d906001600160a01b031681565b3480156101ed575f5ffd5b5061015961057d565b348015610201575f5ffd5b506101596102103660046111bb565b6105ca565b348015610220575f5ffd5b5061011d61064e565b348015610234575f5ffd5b5060035461011d906001600160a01b031681565b348015610253575f5ffd5b50610278604051806040016040528060058152602001640352e302e360dc1b81525081565b604051610131919061130b565b348015610290575f5ffd5b5061011d61029f366004611362565b610682565b3480156102af575f5ffd5b5061011d6102be366004611362565b61090a565b3480156102ce575f5ffd5b505f5461011d906001600160a01b031681565b3480156102ec575f5ffd5b5061011d610b55565b348015610300575f5ffd5b5061015961030f3660046112c4565b610b7d565b5f61031d610c02565b805490915060ff600160401b820416159067ffffffffffffffff165f811580156103445750825b90505f8267ffffffffffffffff1660011480156103605750303b155b90508115801561036e575080155b1561038c5760405163f92ee8a960e01b815260040160405180910390fd5b845467ffffffffffffffff1916600117855583156103b657845460ff60401b1916600160401b1785555b6103bf87610c2c565b6103c7610c3d565b6103cf610c3d565b6103d7610c45565b5f8054336001600160a01b031991821617909155600180549091166001600160a01b038816179055831561044557845460ff60401b19168555604051600181527fc7f505b2f371ae2175ee4913f4499e1f2633a7b5936321eed1cdaeb6115181d29060200160405180910390a15b50505050505050565b610456610c55565b61045f82610cf9565b6104698282610d01565b5050565b5f610476610dc2565b505f5160206118e85f395f51905f5290565b610490610e0b565b6001600160a01b0381166104b75760405163d92e233d60e01b815260040160405180910390fd5b60015f9054906101000a90046001600160a01b03166001600160a01b031663edcf9c1f6040518163ffffffff1660e01b8152600401602060405180830381865afa158015610507573d5f5f3e3d5ffd5b505050506040513d601f19601f8201168201806040525081019061052b91906113e2565b610548576040516312aecd8160e01b815260040160405180910390fd5b600180546001600160a01b0319166001600160a01b0392909216919091179055565b610572610e0b565b61057b5f610e3d565b565b3380610587610b55565b6001600160a01b0316146105be5760405163118cdaa760e01b81526001600160a01b03821660048201526024015b60405180910390fd5b6105c781610e3d565b50565b6105d2610e0b565b6001600160a01b0382166105f95760405163d92e233d60e01b815260040160405180910390fd5b6001600160a01b0381166106205760405163d92e233d60e01b815260040160405180910390fd5b600280546001600160a01b039384166001600160a01b03199182161790915560038054929093169116179055565b5f807f9016d09d72d40fdae2fd8ceac6b6234c7706214fd39c1cd1e609a0528c1993005b546001600160a01b031692915050565b5f61068b610e75565b610693610e0b565b6001600160a01b0386166106ba5760405163d92e233d60e01b815260040160405180910390fd5b6003546001600160a01b03166106e35760405163d92e233d60e01b815260040160405180910390fd5b60015f9054906101000a90046001600160a01b03166001600160a01b031663edcf9c1f6040518163ffffffff1660e01b8152600401602060405180830381865afa158015610733573d5f5f3e3d5ffd5b505050506040513d601f19601f8201168201806040525081019061075791906113e2565b610774576040516312aecd8160e01b815260040160405180910390fd5b6001546040515f9163100b506960e11b916107a7918a916001600160a01b03909116908a908a908a908a90602401611429565b60408051601f198184030181529181526020820180516001600160e01b03166001600160e01b03199094169390931790925260035491519092505f916001600160a01b03169083906107f890611193565b610803929190611475565b604051809103905ff08015801561081c573d5f5f3e3d5ffd5b5060018054604051631e832de160e21b81529295508593506001600160a01b031691637a0cb78491610853918591906004016114c0565b5f604051808303815f87803b15801561086a575f5ffd5b505af115801561087c573d5f5f3e3d5ffd5b50505050336001600160a01b0316886001600160a01b0316846001600160a01b03167fe36cd15f95d58db8766da292a38b27881bfaf9bdb8c464d9855d4e56bc40e7bf60016040516108ce91906114dd565b60405180910390a4505061090160017f9b779b17422d0df92223018b32b4d1fa46e071723d6817e2486d003becc55f0055565b95945050505050565b5f610913610e75565b61091b610e0b565b6001600160a01b0386166109425760405163d92e233d60e01b815260040160405180910390fd5b6002546001600160a01b031661096b5760405163d92e233d60e01b815260040160405180910390fd5b60015f9054906101000a90046001600160a01b03166001600160a01b031663edcf9c1f6040518163ffffffff1660e01b8152600401602060405180830381865afa1580156109bb573d5f5f3e3d5ffd5b505050506040513d601f19601f820116820180604052508101906109df91906113e2565b6109fc576040516312aecd8160e01b815260040160405180910390fd5b6001546040515f9163100b506960e11b91610a2f918a916001600160a01b03909116908a908a908a908a90602401611429565b60408051601f198184030181529181526020820180516001600160e01b03166001600160e01b03199094169390931790925260025491519092505f916001600160a01b0316908390610a8090611193565b610a8b929190611475565b604051809103905ff080158015610aa4573d5f5f3e3d5ffd5b50600154604051631e832de160e21b81529194508492506001600160a01b031690637a0cb78490610adb9084905f906004016114c0565b5f604051808303815f87803b158015610af2575f5ffd5b505af1158015610b04573d5f5f3e3d5ffd5b50505050336001600160a01b0316886001600160a01b0316846001600160a01b03167fe36cd15f95d58db8766da292a38b27881bfaf9bdb8c464d9855d4e56bc40e7bf5f6040516108ce91906114dd565b5f807f237e158222e3e6968b72b9db0d8043aacf074ad9f650f0d1606b4d82ee432c00610672565b610b85610e0b565b7f237e158222e3e6968b72b9db0d8043aacf074ad9f650f0d1606b4d82ee432c0080546001600160a01b0319166001600160a01b0383169081178255610bc961064e565b6001600160a01b03167f38d16b8cac22d99fc7c124b9cd0de2d3fa1faef420bfe791d8c362d765e2270060405160405180910390a35050565b5f807ff0c57e16840df040f15088dc2f81fe391c3923bec73e23a9662efc9c229c6a005b92915050565b610c34610ee5565b6105c781610f0a565b61057b610ee5565b610c4d610ee5565b61057b610f3b565b306001600160a01b037f0000000000000000000000000000000000000000000000000000000000000000161480610cdb57507f00000000000000000000000000000000000000000000000000000000000000006001600160a01b0316610ccf5f5160206118e85f395f51905f52546001600160a01b031690565b6001600160a01b031614155b1561057b5760405163703e46dd60e11b815260040160405180910390fd5b6105c7610e0b565b816001600160a01b03166352d1902d6040518163ffffffff1660e01b8152600401602060405180830381865afa925050508015610d5b575060408051601f3d908101601f19168201909252610d58918101906114eb565b60015b610d8357604051634c9c8ce360e01b81526001600160a01b03831660048201526024016105b5565b5f5160206118e85f395f51905f528114610db357604051632a87526960e21b8152600481018290526024016105b5565b610dbd8383610f43565b505050565b306001600160a01b037f0000000000000000000000000000000000000000000000000000000000000000161461057b5760405163703e46dd60e11b815260040160405180910390fd5b33610e1461064e565b6001600160a01b03161461057b5760405163118cdaa760e01b81523360048201526024016105b5565b7f237e158222e3e6968b72b9db0d8043aacf074ad9f650f0d1606b4d82ee432c0080546001600160a01b031916815561046982610f98565b7f9b779b17422d0df92223018b32b4d1fa46e071723d6817e2486d003becc55f00805460011901610eb957604051633ee5aeb560e01b815260040160405180910390fd5b60029055565b60017f9b779b17422d0df92223018b32b4d1fa46e071723d6817e2486d003becc55f0055565b610eed611008565b61057b57604051631afcd79f60e31b815260040160405180910390fd5b610f12610ee5565b6001600160a01b0381166105be57604051631e4fbdf760e01b81525f60048201526024016105b5565b610ebf610ee5565b610f4c82611021565b6040516001600160a01b038316907fbc7cd75a20ee27fd9adebab32041f755214dbc6bffa90cc0225b39da2e5c2d3b905f90a2805115610f9057610dbd8282611084565b6104696110ed565b7f9016d09d72d40fdae2fd8ceac6b6234c7706214fd39c1cd1e609a0528c19930080546001600160a01b031981166001600160a01b03848116918217845560405192169182907f8be0079c531659141344cd1fd0a4f28419497f9722a3daafe3b4186f6b6457e0905f90a3505050565b5f611011610c02565b54600160401b900460ff16919050565b806001600160a01b03163b5f0361105657604051634c9c8ce360e01b81526001600160a01b03821660048201526024016105b5565b5f5160206118e85f395f51905f5280546001600160a01b0319166001600160a01b0392909216919091179055565b60605f5f846001600160a01b0316846040516110a09190611502565b5f60405180830381855af49150503d805f81146110d8576040519150601f19603f3d011682016040523d82523d5f602084013e6110dd565b606091505b509150915061090185838361110c565b341561057b5760405163b398979f60e01b815260040160405180910390fd5b6060826111215761111c8261116b565b611164565b815115801561113857506001600160a01b0384163b155b1561116157604051639996b31560e01b81526001600160a01b03851660048201526024016105b5565b50805b9392505050565b80511561117a57805160208201fd5b60405163d6bda27560e01b815260040160405180910390fd5b6103cf8061151983390190565b80356001600160a01b03811681146111b6575f5ffd5b919050565b5f5f604083850312156111cc575f5ffd5b6111d5836111a0565b91506111e3602084016111a0565b90509250929050565b634e487b7160e01b5f52604160045260245ffd5b5f5f60408385031215611211575f5ffd5b61121a836111a0565b9150602083013567ffffffffffffffff811115611235575f5ffd5b8301601f81018513611245575f5ffd5b803567ffffffffffffffff81111561125f5761125f6111ec565b604051601f8201601f19908116603f0116810167ffffffffffffffff8111828210171561128e5761128e6111ec565b6040528181528282016020018710156112a5575f5ffd5b816020840160208301375f602083830101528093505050509250929050565b5f602082840312156112d4575f5ffd5b611164826111a0565b5f81518084528060208401602086015e5f602082860101526020601f19601f83011685010191505092915050565b602081525f61116460208301846112dd565b5f5f83601f84011261132d575f5ffd5b50813567ffffffffffffffff811115611344575f5ffd5b60208301915083602082850101111561135b575f5ffd5b9250929050565b5f5f5f5f5f60608688031215611376575f5ffd5b61137f866111a0565b9450602086013567ffffffffffffffff81111561139a575f5ffd5b6113a68882890161131d565b909550935050604086013567ffffffffffffffff8111156113c5575f5ffd5b6113d18882890161131d565b969995985093965092949392505050565b5f602082840312156113f2575f5ffd5b81518015158114611164575f5ffd5b81835281816020850137505f828201602090810191909152601f909101601f19169091010190565b6001600160a01b038781168252861660208201526080604082018190525f906114559083018688611401565b8281036060840152611468818587611401565b9998505050505050505050565b6001600160a01b03831681526040602082018190525f90611498908301846112dd565b949350505050565b600281106114bc57634e487b7160e01b5f52602160045260245ffd5b9052565b6001600160a01b03831681526040810161116460208301846114a0565b60208101610c2682846114a0565b5f602082840312156114fb575f5ffd5b5051919050565b5f82518060208501845e5f92019182525091905056fe60806040526040516103cf3803806103cf8339810160408190526100229161023b565b61002c8282610033565b5050610320565b61003c82610091565b6040516001600160a01b038316907fbc7cd75a20ee27fd9adebab32041f755214dbc6bffa90cc0225b39da2e5c2d3b905f90a280511561008557610080828261010c565b505050565b61008d61017f565b5050565b806001600160a01b03163b5f036100cb57604051634c9c8ce360e01b81526001600160a01b03821660048201526024015b60405180910390fd5b7f360894a13ba1a3210667c828492db98dca3e2076cc3735a920a3ca505d382bbc80546001600160a01b0319166001600160a01b0392909216919091179055565b60605f5f846001600160a01b031684604051610128919061030a565b5f60405180830381855af49150503d805f8114610160576040519150601f19603f3d011682016040523d82523d5f602084013e610165565b606091505b5090925090506101768583836101a0565b95945050505050565b341561019e5760405163b398979f60e01b815260040160405180910390fd5b565b6060826101b5576101b0826101ff565b6101f8565b81511580156101cc57506001600160a01b0384163b155b156101f557604051639996b31560e01b81526001600160a01b03851660048201526024016100c2565b50805b9392505050565b80511561020e57805160208201fd5b60405163d6bda27560e01b815260040160405180910390fd5b634e487b7160e01b5f52604160045260245ffd5b5f5f6040838503121561024c575f5ffd5b82516001600160a01b0381168114610262575f5ffd5b60208401519092506001600160401b0381111561027d575f5ffd5b8301601f8101851361028d575f5ffd5b80516001600160401b038111156102a6576102a6610227565b604051601f8201601f19908116603f011681016001600160401b03811182821017156102d4576102d4610227565b6040528181528282016020018710156102eb575f5ffd5b8160208401602083015e5f602083830101528093505050509250929050565b5f82518060208501845e5f920191825250919050565b60a38061032c5f395ff3fe6080604052600a600c565b005b60186014601a565b6050565b565b5f604b7f360894a13ba1a3210667c828492db98dca3e2076cc3735a920a3ca505d382bbc546001600160a01b031690565b905090565b365f5f375f5f365f845af43d5f5f3e8080156069573d5ff35b3d5ffdfea2646970667358221220ff5162001e9dedf9e42510562d81cfc79e767838b6e5e1dce510f6cea022dae464736f6c634300081c0033360894a13ba1a3210667c828492db98dca3e2076cc3735a920a3ca505d382bbca26469706673582212206726a860b2fa62c7371aae03a93940229f7c8f438c24713f6f09134f442e76dc64736f6c634300081c0033",
  "linkReferences": {},
  "deployedLinkReferences": {}
}