{
  "_format": "hh-sol-artifact-1",
  "contractName": "OrionVaultFactory",
  "sourceName": "contracts/vaults/OrionVaultFactory.sol",
  "abi": [
    {
      "inputs": [
        {
          "internalType": "address",
          "name": "initialOwner",
          "type": "address"
        },
        {
          "internalType": "address",
          "name": "configAddress",
          "type": "address"
        }
      ],
      "stateMutability": "nonpayable",
      "type": "constructor"
    },
    {
      "inputs": [
        {
          "internalType": "address",
          "name": "owner",
          "type": "address"
        }
      ],
      "name": "OwnableInvalidOwner",
      "type": "error"
    },
    {
      "inputs": [
        {
          "internalType": "address",
          "name": "account",
          "type": "address"
        }
      ],
      "name": "OwnableUnauthorizedAccount",
      "type": "error"
    },
    {
      "inputs": [],
      "name": "SystemNotIdle",
      "type": "error"
    },
    {
      "inputs": [],
      "name": "ZeroAddress",
      "type": "error"
    },
    {
      "anonymous": false,
      "inputs": [
        {
          "indexed": true,
          "internalType": "address",
          "name": "vault",
          "type": "address"
        },
        {
          "indexed": true,
          "internalType": "address",
          "name": "curator",
          "type": "address"
        },
        {
          "indexed": true,
          "internalType": "address",
          "name": "deployer",
          "type": "address"
        },
        {
          "indexed": false,
          "internalType": "enum EventsLib.VaultType",
          "name": "vaultType",
          "type": "uint8"
        }
      ],
      "name": "OrionVaultCreated",
      "type": "event"
    },
    {
      "anonymous": false,
      "inputs": [
        {
          "indexed": true,
          "internalType": "address",
          "name": "previousOwner",
          "type": "address"
        },
        {
          "indexed": true,
          "internalType": "address",
          "name": "newOwner",
          "type": "address"
        }
      ],
      "name": "OwnershipTransferred",
      "type": "event"
    },
    {
      "inputs": [],
      "name": "config",
      "outputs": [
        {
          "internalType": "contract IOrionConfig",
          "name": "",
          "type": "address"
        }
      ],
      "stateMutability": "view",
      "type": "function"
    },
    {
      "inputs": [
        {
          "internalType": "enum EventsLib.VaultType",
          "name": "vaultType",
          "type": "uint8"
        },
        {
          "internalType": "address",
          "name": "curator",
          "type": "address"
        },
        {
          "internalType": "string",
          "name": "name",
          "type": "string"
        },
        {
          "internalType": "string",
          "name": "symbol",
          "type": "string"
        }
      ],
      "name": "createVault",
      "outputs": [
        {
          "internalType": "address",
          "name": "vault",
          "type": "address"
        }
      ],
      "stateMutability": "nonpayable",
      "type": "function"
    },
    {
      "inputs": [],
      "name": "owner",
      "outputs": [
        {
          "internalType": "address",
          "name": "",
          "type": "address"
        }
      ],
      "stateMutability": "view",
      "type": "function"
    },
    {
      "inputs": [],
      "name": "renounceOwnership",
      "outputs": [],
      "stateMutability": "nonpayable",
      "type": "function"
    },
    {
      "inputs": [
        {
          "internalType": "address",
          "name": "newOwner",
          "type": "address"
        }
      ],
      "name": "transferOwnership",
      "outputs": [],
      "stateMutability": "nonpayable",
      "type": "function"
    }
  ],
  "bytecode": "0x608060405234801561000f575f5ffd5b506040516177ee3803806177ee83398101604081905261002e91610144565b816001600160a01b03811661005c57604051631e4fbdf760e01b81525f600482015260240160405180910390fd5b610065816100da565b506001600160a01b03821661008d5760405163d92e233d60e01b815260040160405180910390fd5b6001600160a01b0381166100b45760405163d92e233d60e01b815260040160405180910390fd5b600180546001600160a01b0319166001600160a01b039290921691909117905550610175565b5f80546001600160a01b038381166001600160a01b0319831681178455604051919092169283917f8be0079c531659141344cd1fd0a4f28419497f9722a3daafe3b4186f6b6457e09190a35050565b80516001600160a01b038116811461013f575f5ffd5b919050565b5f5f60408385031215610155575f5ffd5b61015e83610129565b915061016c60208401610129565b90509250929050565b61766c806101825f395ff3fe608060405234801561000f575f5ffd5b5060043610610055575f3560e01c80633904e60a14610059578063715018a61461008857806379502c55146100925780638da5cb5b146100a5578063f2fde38b146100b5575b5f5ffd5b61006c61006736600461046f565b6100c8565b6040516001600160a01b03909116815260200160405180910390f35b610090610325565b005b60015461006c906001600160a01b031681565b5f546001600160a01b031661006c565b6100906100c3366004610504565b610338565b5f6100d161037a565b6001600160a01b0386166100f85760405163d92e233d60e01b815260040160405180910390fd5b60015f9054906101000a90046001600160a01b03166001600160a01b031663edcf9c1f6040518163ffffffff1660e01b8152600401602060405180830381865afa158015610148573d5f5f3e3d5ffd5b505050506040513d601f19601f8201168201806040525081019061016c9190610524565b610189576040516312aecd8160e01b815260040160405180910390fd5b5f87600181111561019c5761019c610543565b036101fa575f8660015f9054906101000a90046001600160a01b0316878787876040516101c8906103f5565b6101d79695949392919061057f565b604051809103905ff0801580156101f0573d5f5f3e3d5ffd5b5091506102679050565b600187600181111561020e5761020e610543565b03610267575f8660015f9054906101000a90046001600160a01b03168787878760405161023a90610402565b6102499695949392919061057f565b604051809103905ff080158015610262573d5f5f3e3d5ffd5b509150505b600154604051631e832de160e21b81526001600160a01b0390911690637a0cb784906102999084908b906004016105eb565b5f604051808303815f87803b1580156102b0575f5ffd5b505af11580156102c2573d5f5f3e3d5ffd5b50505050336001600160a01b0316866001600160a01b0316826001600160a01b03167fe36cd15f95d58db8766da292a38b27881bfaf9bdb8c464d9855d4e56bc40e7bf8a6040516103139190610608565b60405180910390a49695505050505050565b61032d61037a565b6103365f6103a6565b565b61034061037a565b6001600160a01b03811661036e57604051631e4fbdf760e01b81525f60048201526024015b60405180910390fd5b610377816103a6565b50565b5f546001600160a01b031633146103365760405163118cdaa760e01b8152336004820152602401610365565b5f80546001600160a01b038381166001600160a01b0319831681178455604051919092169283917f8be0079c531659141344cd1fd0a4f28419497f9722a3daafe3b4186f6b6457e09190a35050565b6134f48061061d83390190565b613b2680613b1183390190565b80356001600160a01b0381168114610425575f5ffd5b919050565b5f5f83601f84011261043a575f5ffd5b50813567ffffffffffffffff811115610451575f5ffd5b602083019150836020828501011115610468575f5ffd5b9250929050565b5f5f5f5f5f5f60808789031215610484575f5ffd5b863560028110610492575f5ffd5b95506104a06020880161040f565b9450604087013567ffffffffffffffff8111156104bb575f5ffd5b6104c789828a0161042a565b909550935050606087013567ffffffffffffffff8111156104e6575f5ffd5b6104f289828a0161042a565b979a9699509497509295939492505050565b5f60208284031215610514575f5ffd5b61051d8261040f565b9392505050565b5f60208284031215610534575f5ffd5b8151801515811461051d575f5ffd5b634e487b7160e01b5f52602160045260245ffd5b81835281816020850137505f828201602090810191909152601f909101601f19169091010190565b6001600160a01b038781168252861660208201526080604082018190525f906105ab9083018688610557565b82810360608401526105be818587610557565b9998505050505050505050565b600281106105e757634e487b7160e01b5f52602160045260245ffd5b9052565b6001600160a01b03831681526040810161051d60208301846105cb565b6020810161061682846105cb565b9291505056fe60c060405234801561000f575f5ffd5b506040516134f43803806134f483398101604081905261002e916104a6565b8383838383836001600160a01b0316637158da7c6040518163ffffffff1660e01b8152600401602060405180830381865afa15801561006f573d5f5f3e3d5ffd5b505050506040513d601f19601f820116820180604052508101906100939190610531565b838360036100a183826105d7565b5060046100ae82826105d7565b5050505f5f6100c2836102cb60201b60201c565b91509150816100d25760126100d4565b805b60ff1660a05250506001600160a01b039081166080526001600555811661011457604051631e4fbdf760e01b81525f600482015260240160405180910390fd5b61011d816103a1565b506001600160a01b0384166101455760405163e6c4247b60e01b815260040160405180910390fd5b6001600160a01b03831661016c5760405163e6c4247b60e01b815260040160405180910390fd5b60098054336001600160a01b0319918216179091556008805482166001600160a01b0387811691909117909155600780549092169085169081179091555f600a8190556011819055601281905560408051631c56369f60e21b81529051919291637158da7c916004808201926020929091908290030181865afa1580156101f5573d5f5f3e3d5ffd5b505050506040513d601f19601f820116820180604052508101906102199190610531565b6001600160a01b031663313ce5676040518163ffffffff1660e01b8152600401602060405180830381865afa158015610254573d5f5f3e3d5ffd5b505050506040513d601f19601f820116820180604052508101906102789190610691565b905060128160ff16111561029f57604051631c03248960e11b815260040160405180910390fd5b5f6102ab8260126106c5565b90506102b881600a6107c7565b6013555061080298505050505050505050565b60408051600481526024810182526020810180516001600160e01b031663313ce56760e01b17905290515f918291829182916001600160a01b03871691610311916107d5565b5f60405180830381855afa9150503d805f8114610349576040519150601f19603f3d011682016040523d82523d5f602084013e61034e565b606091505b509150915081801561036257506020815110155b15610395575f8180602001905181019061037c91906107eb565b905060ff8111610393576001969095509350505050565b505b505f9485945092505050565b600680546001600160a01b038381166001600160a01b0319831681179093556040519116919082907f8be0079c531659141344cd1fd0a4f28419497f9722a3daafe3b4186f6b6457e0905f90a35050565b6001600160a01b0381168114610406575f5ffd5b50565b634e487b7160e01b5f52604160045260245ffd5b5f82601f83011261042c575f5ffd5b81516001600160401b0381111561044557610445610409565b604051601f8201601f19908116603f011681016001600160401b038111828210171561047357610473610409565b60405281815283820160200185101561048a575f5ffd5b8160208501602083015e5f918101602001919091529392505050565b5f5f5f5f608085870312156104b9575f5ffd5b84516104c4816103f2565b60208601519094506104d5816103f2565b60408601519093506001600160401b038111156104f0575f5ffd5b6104fc8782880161041d565b606087015190935090506001600160401b03811115610519575f5ffd5b6105258782880161041d565b91505092959194509250565b5f60208284031215610541575f5ffd5b815161054c816103f2565b9392505050565b600181811c9082168061056757607f821691505b60208210810361058557634e487b7160e01b5f52602260045260245ffd5b50919050565b601f8211156105d257805f5260205f20601f840160051c810160208510156105b05750805b601f840160051c820191505b818110156105cf575f81556001016105bc565b50505b505050565b81516001600160401b038111156105f0576105f0610409565b610604816105fe8454610553565b8461058b565b6020601f821160018114610636575f831561061f5750848201515b5f19600385901b1c1916600184901b1784556105cf565b5f84815260208120601f198516915b828110156106655787850151825560209485019460019092019101610645565b508482101561068257868401515f19600387901b60f8161c191681555b50505050600190811b01905550565b5f602082840312156106a1575f5ffd5b815160ff8116811461054c575f5ffd5b634e487b7160e01b5f52601160045260245ffd5b60ff82811682821603908111156106de576106de6106b1565b92915050565b6001815b600184111561071f57808504811115610703576107036106b1565b600184161561071157908102905b60019390931c9280026106e8565b935093915050565b5f82610735575060016106de565b8161074157505f6106de565b816001811461075757600281146107615761077d565b60019150506106de565b60ff841115610772576107726106b1565b50506001821b6106de565b5060208310610133831016604e8410600b84101617156107a0575081810a6106de565b6107ac5f1984846106e4565b805f19048211156107bf576107bf6106b1565b029392505050565b5f61054c60ff841683610727565b5f82518060208501845e5f920191825250919050565b5f602082840312156107fb575f5ffd5b5051919050565b60805160a051612cae6108465f395f610b3301525f818161034b0152818161064e0152818161072c015281816107df015281816112fe01526117e50152612cae5ff3fe608060405234801561000f575f5ffd5b506004361061026b575f3560e01c8063a68a52671161014b578063c6e6f592116100bf578063d5f3948811610084578063d5f39488146104f5578063d905777e14610508578063dd62ed3e1461051b578063e66f53b714610553578063ef8b30f7146104ac578063f2fde38b14610566575f5ffd5b8063c6e6f592146104ac578063cce4705b146104bf578063ce96cb77146104d2578063d1699c26146104e5578063d3d03458146104ed575f5ffd5b8063b460af9411610110578063b460af941461046d578063b6eba6531461047b578063ba0876521461046d578063c0b568e114610491578063c37fc8a8146104a4578063c63d75b614610383575f5ffd5b8063a68a526714610419578063a9059cbb1461042c578063aa9d3a601461043f578063b1bd7e2e14610447578063b3d7f6b91461045a575f5ffd5b806338d52e0f116101e2578063715018a6116101a7578063715018a6146103d2578063745400c9146103da57806379502c55146103ed5780638da5cb5b1461040057806394bf804d1461039757806395d89b4114610411575f5ffd5b806338d52e0f14610349578063402d267d146103835780634cdad5061461029b5780636e553f651461039757806370a08231146103aa575f5ffd5b80630d1e6667116102335780630d1e6667146102e457806310544494146102f957806318160ddd1461030c57806323b872dd14610314578063313ce5671461032757806333fdc59214610341575f5ffd5b806301e1d1141461026f57806306fdde031461028657806307a2d13a1461029b578063095ea7b3146102ae5780630a28a477146102d1575b5f5ffd5b600a545b6040519081526020015b60405180910390f35b61028e610579565b60405161027d91906126bb565b6102736102a93660046126f0565b610609565b6102c16102bc36600461271b565b61061a565b604051901515815260200161027d565b6102736102df3660046126f0565b610631565b6102f76102f23660046126f0565b61063d565b005b6102f7610307366004612786565b610999565b600254610273565b6102c16103223660046127ce565b610b07565b61032f610b2c565b60405160ff909116815260200161027d565b6102f7610b5c565b7f00000000000000000000000000000000000000000000000000000000000000005b6040516001600160a01b03909116815260200161027d565b61027361039136600461280c565b505f1990565b6102736103a5366004612827565b610dde565b6102736103b836600461280c565b6001600160a01b03165f9081526020819052604090205490565b6102f7610df8565b6102f76103e83660046126f0565b610e09565b60075461036b906001600160a01b031681565b6006546001600160a01b031661036b565b61028e611075565b610273610427366004612855565b611084565b6102c161043a36600461271b565b6110be565b6102f76110cb565b6102f761045536600461288e565b611408565b6102736104683660046126f0565b6116b2565b6102736103a53660046128cd565b6104836116be565b60405161027d929190612901565b6102f761049f3660046126f0565b6117d4565b601254610273565b6102736104ba3660046126f0565b611a28565b6102f76104cd3660046126f0565b611a33565b6102736104e036600461280c565b611c6c565b601154610273565b610483611c8e565b60095461036b906001600160a01b031681565b61027361051636600461280c565b611d9e565b61027361052936600461298a565b6001600160a01b039182165f90815260016020908152604080832093909416825291909152205490565b60085461036b906001600160a01b031681565b6102f761057436600461280c565b611dbb565b606060038054610588906129b6565b80601f01602080910402602001604051908101604052809291908181526020018280546105b4906129b6565b80156105ff5780601f106105d6576101008083540402835291602001916105ff565b820191905f5260205f20905b8154815290600101906020018083116105e257829003601f168201915b5050505050905090565b5f610614825f611df5565b92915050565b5f33610627818585611e03565b5060019392505050565b5f610614826001611e15565b610645611e52565b805f03610698577f00000000000000000000000000000000000000000000000000000000000000005b604051636b30633560e01b81526001600160a01b0390911660048201526024015b60405180910390fd5b60075f9054906101000a90046001600160a01b03166001600160a01b031663edcf9c1f6040518163ffffffff1660e01b8152600401602060405180830381865afa1580156106e8573d5f5f3e3d5ffd5b505050506040513d601f19601f8201168201806040525081019061070c91906129ee565b610729576040516312aecd8160e01b815260040160405180910390fd5b5f7f00000000000000000000000000000000000000000000000000000000000000006040516370a0823160e01b81523360048201526001600160a01b0391909116906370a0823190602401602060405180830381865afa15801561078f573d5f5f3e3d5ffd5b505050506040513d601f19601f820116820180604052508101906107b39190612a0d565b9050808211156107dc57338183604051632e2a182f60e11b815260040161068f93929190612a24565b5f7f00000000000000000000000000000000000000000000000000000000000000006001600160a01b03166323b872dd3360075f9054906101000a90046001600160a01b03166001600160a01b0316633a0dad8e6040518163ffffffff1660e01b8152600401602060405180830381865afa15801561085d573d5f5f3e3d5ffd5b505050506040513d601f19601f820116820180604052508101906108819190612a45565b6040516001600160e01b031960e085901b1681526001600160a01b03928316600482015291166024820152604481018690526064016020604051808303815f875af11580156108d2573d5f5f3e3d5ffd5b505050506040513d601f19601f820116820180604052508101906108f691906129ee565b905080610916576040516312171d8360e31b815260040160405180910390fd5b5f610922600b33611e7c565b915061093d9050336109348684612a74565b600b9190611ea2565b508360115f82825461094f9190612a74565b909155505060405184815233907f08d79f77ab5f78e7e780abb1f7ac9e9923340d5bae78f6e83e7999905b248ea29060200160405180910390a25050506109966001600555565b50565b60075f9054906101000a90046001600160a01b03166001600160a01b0316633a0dad8e6040518163ffffffff1660e01b8152600401602060405180830381865afa1580156109e9573d5f5f3e3d5ffd5b505050506040513d601f19601f82011682018060405250810190610a0d9190612a45565b6001600160a01b0316336001600160a01b031614610a3e57604051631a27eac360e11b815260040160405180910390fd5b610a486014611eb7565b815f5b81811015610ac857610abf858583818110610a6857610a68612a87565b610a7e926020604090920201908101915061280c565b868684818110610a9057610a90612a87565b9050604002016020016020810190610aa89190612a9b565b63ffffffff166014611ea29092919063ffffffff16565b50600101610a4b565b50600a8290556040518281527f5e1ff954b5e5257e9ee5d4cb07059e8f5e69b1aaaf9911e5d8d90a6894de9c219060200160405180910390a150505050565b5f33610b14858285611ec0565b610b1f858585611f29565b60019150505b9392505050565b5f610b57817f0000000000000000000000000000000000000000000000000000000000000000612abe565b905090565b60075f9054906101000a90046001600160a01b03166001600160a01b0316633a0dad8e6040518163ffffffff1660e01b8152600401602060405180830381865afa158015610bac573d5f5f3e3d5ffd5b505050506040513d601f19601f82011682018060405250810190610bd09190612a45565b6001600160a01b0316336001600160a01b031614610c0157604051631a27eac360e11b815260040160405180910390fd5b610c09611e52565b5f610c14600b611f86565b90505f8167ffffffffffffffff811115610c3057610c30612ad7565b604051908082528060200260200182016040528015610c59578160200160208202803683370190505b5090505f8267ffffffffffffffff811115610c7657610c76612ad7565b604051908082528060200260200182016040528015610c9f578160200160208202803683370190505b5090505f5b83811015610d18575f80610cb9600b84611f90565b9150915081858481518110610cd057610cd0612a87565b60200260200101906001600160a01b031690816001600160a01b03168152505080848481518110610d0357610d03612a87565b60209081029190910101525050600101610ca4565b505f5b83811015610dcd575f838281518110610d3657610d36612a87565b602002602001015190505f838381518110610d5357610d53612a87565b602002602001015190505f610d6782611a28565b9050610d74600b84611f9e565b50610d7f8382611fb2565b826001600160a01b03167f85a190caa61692b36b63a55e069330d18ab9af179fed7a25c16a4262bc63b7d283604051610dba91815260200190565b60405180910390a2505050600101610d1b565b50505f60115550506001600555565b565b5f60405163125ad87760e31b815260040160405180910390fd5b610e00611fea565b610ddc5f612017565b805f03610e2b57604051636b30633560e01b815230600482015260240161068f565b60075f9054906101000a90046001600160a01b03166001600160a01b031663edcf9c1f6040518163ffffffff1660e01b8152600401602060405180830381865afa158015610e7b573d5f5f3e3d5ffd5b505050506040513d601f19601f82011682018060405250810190610e9f91906129ee565b610ebc576040516312aecd8160e01b815260040160405180910390fd5b335f9081526020819052604090205480821115610ef257338183604051632e2a182f60e11b815260040161068f93929190612a24565b60075460408051631d06d6c760e11b815290515f9230926323b872dd9233926001600160a01b031691633a0dad8e9160048083019260209291908290030181865afa158015610f43573d5f5f3e3d5ffd5b505050506040513d601f19601f82011682018060405250810190610f679190612a45565b6040516001600160e01b031960e085901b1681526001600160a01b03928316600482015291166024820152604481018690526064016020604051808303815f875af1158015610fb8573d5f5f3e3d5ffd5b505050506040513d601f19601f82011682018060405250810190610fdc91906129ee565b905080610ffc576040516312171d8360e31b815260040160405180910390fd5b5f611008600e33611e7c565b915061102390503361101a8684612a74565b600e9190611ea2565b508360125f8282546110359190612a74565b909155505060405184815233907ff7774b688d56120b783560a913ee60792a73dfd511812b7be5eccf10d08c66899060200160405180910390a250505050565b606060048054610588906129b6565b5f5f61108f60025490565b90506110b561109f856001612a74565b6013546110ac9084612a74565b87919086612068565b95945050505050565b5f33610627818585611f29565b60075f9054906101000a90046001600160a01b03166001600160a01b0316633a0dad8e6040518163ffffffff1660e01b8152600401602060405180830381865afa15801561111b573d5f5f3e3d5ffd5b505050506040513d601f19601f8201168201806040525081019061113f9190612a45565b6001600160a01b0316336001600160a01b03161461117057604051631a27eac360e11b815260040160405180910390fd5b611178611e52565b5f611183600e611f86565b90505f8167ffffffffffffffff81111561119f5761119f612ad7565b6040519080825280602002602001820160405280156111c8578160200160208202803683370190505b5090505f8267ffffffffffffffff8111156111e5576111e5612ad7565b60405190808252806020026020018201604052801561120e578160200160208202803683370190505b5090505f5b83811015611287575f80611228600e84611f90565b915091508185848151811061123f5761123f612a87565b60200260200101906001600160a01b031690816001600160a01b0316815250508084848151811061127257611272612a87565b60209081029190910101525050600101611213565b505f60128190555b838110156113fa575f8382815181106112aa576112aa612a87565b602002602001015190505f8383815181106112c7576112c7612a87565b602002602001015190506112e582600e611f9e90919063ffffffff16565b506112f030826120aa565b5f6112fa82610609565b90507f000000000000000000000000000000000000000000000000000000000000000060405163a9059cbb60e01b81526001600160a01b03858116600483015260248201849052919091169063a9059cbb906044016020604051808303815f875af115801561136b573d5f5f3e3d5ffd5b505050506040513d601f19601f8201168201806040525081019061138f91906129ee565b6113ac576040516312171d8360e31b815260040160405180910390fd5b826001600160a01b03167f44b2ff9ffcefe2052a8afdbed44a04bf3db4592ae90c6b96c818bd28573e41e8836040516113e791815260200190565b60405180910390a250505060010161128f565b50505050610ddc6001600555565b6008546001600160a01b0316331461143357604051631a27eac360e11b815260040160405180910390fd5b5f81900361145457604051631121aa8d60e01b815260040160405180910390fd5b61145e6017611eb7565b5f81815b818110156115e9575f85858381811061147d5761147d612a87565b611493926020604090920201908101915061280c565b90505f8686848181106114a8576114a8612a87565b90506040020160200160208101906114c09190612a9b565b600754604051633af32abf60e01b81526001600160a01b038581166004830152929350911690633af32abf90602401602060405180830381865afa15801561150a573d5f5f3e3d5ffd5b505050506040513d601f19601f8201168201806040525081019061152e91906129ee565b6115565760405163751dff9760e11b81526001600160a01b038316600482015260240161068f565b8063ffffffff165f0361158757604051636b30633560e01b81526001600160a01b038316600482015260240161068f565b5f61159d60178463ffffffff80861690611ea216565b9050806115c8576040516346bdabe160e01b81526001600160a01b038416600482015260240161068f565b6115d863ffffffff831687612a74565b955050600190920191506114629050565b506007546040805163d1717c7d60e01b815290515f926001600160a01b03169163d1717c7d9160048083019260209291908290030181865afa158015611631573d5f5f3e3d5ffd5b505050506040513d601f19601f820116820180604052508101906116559190612aeb565b905061166281600a612bee565b831461168157604051639006dd2760e01b815260040160405180910390fd5b60405133907f2d47a742b8d7df7c1fc5a9a631b206b364e6cb2722490759f63bb3ab14b132e0905f90a25050505050565b5f610614826001611df5565b6060805f6116cc6017611f86565b90508067ffffffffffffffff8111156116e7576116e7612ad7565b604051908082528060200260200182016040528015611710578160200160208202803683370190505b5092508067ffffffffffffffff81111561172c5761172c612ad7565b604051908082528060200260200182016040528015611755578160200160208202803683370190505b5091505f5b818110156117ce575f8061176f601784611f90565b915091508186848151811061178657611786612a87565b60200260200101906001600160a01b031690816001600160a01b031681525050808584815181106117b9576117b9612a87565b6020908102919091010152505060010161175a565b50509091565b6117dc611e52565b805f03611809577f000000000000000000000000000000000000000000000000000000000000000061066e565b60075f9054906101000a90046001600160a01b03166001600160a01b031663edcf9c1f6040518163ffffffff1660e01b8152600401602060405180830381865afa158015611859573d5f5f3e3d5ffd5b505050506040513d601f19601f8201168201806040525081019061187d91906129ee565b61189a576040516312aecd8160e01b815260040160405180910390fd5b5f6118a6600b33611e7c565b915050818110156118ca576040516332194fd360e21b815260040160405180910390fd5b60075f9054906101000a90046001600160a01b03166001600160a01b0316633a0dad8e6040518163ffffffff1660e01b8152600401602060405180830381865afa15801561191a573d5f5f3e3d5ffd5b505050506040513d601f19601f8201168201806040525081019061193e9190612a45565b6040516351edffb160e01b8152336004820152602481018490526001600160a01b0391909116906351edffb1906044015f604051808303815f87803b158015611985575f5ffd5b505af1158015611997573d5f5f3e3d5ffd5b505050505f82826119a89190612bfc565b9050805f036119c2576119bc600b33611f9e565b506119d0565b6119ce600b3383611ea2565b505b8260115f8282546119e19190612bfc565b909155505060405183815233907f96a9a6886cdf3047a125454218a23d3961fd3a78643123b248a9d106d0ac94fd906020015b60405180910390a250506109966001600555565b5f610614825f611e15565b611a3b611e52565b805f03611a5d57604051636b30633560e01b815230600482015260240161068f565b60075f9054906101000a90046001600160a01b03166001600160a01b031663edcf9c1f6040518163ffffffff1660e01b8152600401602060405180830381865afa158015611aad573d5f5f3e3d5ffd5b505050506040513d601f19601f82011682018060405250810190611ad191906129ee565b611aee576040516312aecd8160e01b815260040160405180910390fd5b5f611afa600e33611e7c565b91505081811015611b1e576040516312ea1f4960e11b815260040160405180910390fd5b60075f9054906101000a90046001600160a01b03166001600160a01b0316633a0dad8e6040518163ffffffff1660e01b8152600401602060405180830381865afa158015611b6e573d5f5f3e3d5ffd5b505050506040513d601f19601f82011682018060405250810190611b929190612a45565b6040516305f0c35960e51b8152336004820152602481018490526001600160a01b03919091169063be186b20906044015f604051808303815f87803b158015611bd9575f5ffd5b505af1158015611beb573d5f5f3e3d5ffd5b505050505f8282611bfc9190612bfc565b9050805f03611c1657611c10600e33611f9e565b50611c24565b611c22600e3383611ea2565b505b8260125f828254611c359190612bfc565b909155505060405183815233907f9cf37535785001dcc9767688232fcbc8698b3002d1207b50bc2afec3ff8934dc90602001611a14565b6001600160a01b0381165f90815260208190526040812054610614905f611df5565b6060805f611c9c6014611f86565b90508067ffffffffffffffff811115611cb757611cb7612ad7565b604051908082528060200260200182016040528015611ce0578160200160208202803683370190505b5092508067ffffffffffffffff811115611cfc57611cfc612ad7565b604051908082528060200260200182016040528015611d25578160200160208202803683370190505b5091505f5b818110156117ce575f80611d3f601484611f90565b9150915081868481518110611d5657611d56612a87565b60200260200101906001600160a01b031690816001600160a01b03168152505080858481518110611d8957611d89612a87565b60209081029190910101525050600101611d2a565b6001600160a01b0381165f90815260208190526040812054610614565b611dc3611fea565b6001600160a01b038116611dec57604051631e4fbdf760e01b81525f600482015260240161068f565b61099681612017565b5f610b2583600a5484611084565b611e1083838360016120de565b505050565b5f5f611e2060025490565b9050611e4a60135482611e339190612a74565b600a54611e41906001612a74565b86919086612068565b949350505050565b600260055403611e7557604051633ee5aeb560e01b815260040160405180910390fd5b6002600555565b5f808080611e93866001600160a01b0387166121b0565b909450925050505b9250929050565b5f611e4a846001600160a01b038516846121e8565b61099681612204565b6001600160a01b038381165f908152600160209081526040808320938616835292905220545f19811015611f235781811015611f1557828183604051637dc7a0d960e11b815260040161068f93929190612a24565b611f2384848484035f6120de565b50505050565b6001600160a01b038316611f5257604051634b637e8f60e11b81525f600482015260240161068f565b6001600160a01b038216611f7b5760405163ec442f0560e01b81525f600482015260240161068f565b611e1083838361224d565b5f61061482612360565b5f808080611e93868661236a565b5f610b25836001600160a01b038416612393565b6001600160a01b038216611fdb5760405163ec442f0560e01b81525f600482015260240161068f565b611fe65f838361224d565b5050565b6006546001600160a01b03163314610ddc5760405163118cdaa760e01b815233600482015260240161068f565b600680546001600160a01b038381166001600160a01b0319831681179093556040519116919082907f8be0079c531659141344cd1fd0a4f28419497f9722a3daafe3b4186f6b6457e0905f90a35050565b5f612095612075836123af565b801561209057505f848061208b5761208b612c0f565b868809115b151590565b6120a08686866123db565b6110b59190612a74565b6001600160a01b0382166120d357604051634b637e8f60e11b81525f600482015260240161068f565b611fe6825f8361224d565b6001600160a01b0384166121075760405163e602df0560e01b81525f600482015260240161068f565b6001600160a01b03831661213057604051634a1406b160e11b81525f600482015260240161068f565b6001600160a01b038085165f9081526001602090815260408083209387168352929052208290558015611f2357826001600160a01b0316846001600160a01b03167f8c5be1e5ebec7d5bd14f71427d1e84f3dd0314c0f7b2291e5b200ac8c7c3b925846040516121a291815260200190565b60405180910390a350505050565b5f8181526002830160205260408120548190806121dd576121d1858561248b565b92505f9150611e9b9050565b600192509050611e9b565b5f8281526002840160205260408120829055611e4a8484612496565b5f61220e82612360565b90505f5b8181101561224357600283015f61222985846124a1565b815260208101919091526040015f90812055600101612212565b50611fe6826124ac565b6001600160a01b038316612277578060025f82825461226c9190612a74565b909155506122d49050565b6001600160a01b0383165f90815260208190526040902054818110156122b65783818360405163391434e360e21b815260040161068f93929190612a24565b6001600160a01b0384165f9081526020819052604090209082900390555b6001600160a01b0382166122f05760028054829003905561230e565b6001600160a01b0382165f9081526020819052604090208054820190555b816001600160a01b0316836001600160a01b03167fddf252ad1be2c89b69c2b068fc378daa952ba7f163c4a11628f55a4df523b3ef8360405161235391815260200190565b60405180910390a3505050565b5f610614826124b5565b5f808061237785856124a1565b5f81815260029690960160205260409095205494959350505050565b5f8181526002830160205260408120819055610b2583836124be565b5f60028260038111156123c4576123c4612c23565b6123ce9190612c37565b60ff166001149050919050565b5f5f5f6123e886866124c9565b91509150815f0361240c5783818161240257612402612c0f565b0492505050610b25565b8184116124235761242360038515026011186124e5565b5f848688095f868103871696879004966002600389028118808a02820302808a02820302808a02820302808a02820302808a02820302808a02909103029181900381900460010185841190960395909502919093039390930492909217029150509392505050565b5f610b2583836124f6565b5f610b25838361250d565b5f610b258383612559565b6109968161257f565b5f610614825490565b5f610b2583836125d8565b5f805f1983850993909202808410938190039390930393915050565b634e487b715f52806020526024601cfd5b5f8181526001830160205260408120541515610b25565b5f81815260018301602052604081205461255257508154600181810184555f848152602080822090930184905584548482528286019093526040902091909155610614565b505f610614565b5f825f01828154811061256e5761256e612a87565b905f5260205f200154905092915050565b5f612588825490565b90505f5b818110156125d157826001015f845f0183815481106125ad576125ad612a87565b905f5260205f20015481526020019081526020015f205f905580600101905061258c565b50505f9055565b5f81815260018301602052604081205480156126b2575f6125fa600183612bfc565b85549091505f9061260d90600190612bfc565b905080821461266c575f865f01828154811061262b5761262b612a87565b905f5260205f200154905080875f01848154811061264b5761264b612a87565b5f918252602080832090910192909255918252600188019052604090208390555b855486908061267d5761267d612c64565b600190038181905f5260205f20015f90559055856001015f8681526020019081526020015f205f905560019350505050610614565b5f915050610614565b602081525f82518060208401528060208501604085015e5f604082850101526040601f19601f83011684010191505092915050565b5f60208284031215612700575f5ffd5b5035919050565b6001600160a01b0381168114610996575f5ffd5b5f5f6040838503121561272c575f5ffd5b823561273781612707565b946020939093013593505050565b5f5f83601f840112612755575f5ffd5b50813567ffffffffffffffff81111561276c575f5ffd5b6020830191508360208260061b8501011115611e9b575f5ffd5b5f5f5f60408486031215612798575f5ffd5b833567ffffffffffffffff8111156127ae575f5ffd5b6127ba86828701612745565b909790965060209590950135949350505050565b5f5f5f606084860312156127e0575f5ffd5b83356127eb81612707565b925060208401356127fb81612707565b929592945050506040919091013590565b5f6020828403121561281c575f5ffd5b8135610b2581612707565b5f5f60408385031215612838575f5ffd5b82359150602083013561284a81612707565b809150509250929050565b5f5f5f60608486031215612867575f5ffd5b8335925060208401359150604084013560048110612883575f5ffd5b809150509250925092565b5f5f6020838503121561289f575f5ffd5b823567ffffffffffffffff8111156128b5575f5ffd5b6128c185828601612745565b90969095509350505050565b5f5f5f606084860312156128df575f5ffd5b8335925060208401356128f181612707565b9150604084013561288381612707565b604080825283519082018190525f9060208501906060840190835b818110156129435783516001600160a01b031683526020938401939092019160010161291c565b5050838103602080860191909152855180835291810192508501905f5b8181101561297e578251845260209384019390920191600101612960565b50919695505050505050565b5f5f6040838503121561299b575f5ffd5b82356129a681612707565b9150602083013561284a81612707565b600181811c908216806129ca57607f821691505b6020821081036129e857634e487b7160e01b5f52602260045260245ffd5b50919050565b5f602082840312156129fe575f5ffd5b81518015158114610b25575f5ffd5b5f60208284031215612a1d575f5ffd5b5051919050565b6001600160a01b039390931683526020830191909152604082015260600190565b5f60208284031215612a55575f5ffd5b8151610b2581612707565b634e487b7160e01b5f52601160045260245ffd5b8082018082111561061457610614612a60565b634e487b7160e01b5f52603260045260245ffd5b5f60208284031215612aab575f5ffd5b813563ffffffff81168114610b25575f5ffd5b60ff818116838216019081111561061457610614612a60565b634e487b7160e01b5f52604160045260245ffd5b5f60208284031215612afb575f5ffd5b815160ff81168114610b25575f5ffd5b6001815b6001841115612b4657808504811115612b2a57612b2a612a60565b6001841615612b3857908102905b60019390931c928002612b0f565b935093915050565b5f82612b5c57506001610614565b81612b6857505f610614565b8160018114612b7e5760028114612b8857612ba4565b6001915050610614565b60ff841115612b9957612b99612a60565b50506001821b610614565b5060208310610133831016604e8410600b8410161715612bc7575081810a610614565b612bd35f198484612b0b565b805f1904821115612be657612be6612a60565b029392505050565b5f610b2560ff841683612b4e565b8181038181111561061457610614612a60565b634e487b7160e01b5f52601260045260245ffd5b634e487b7160e01b5f52602160045260245ffd5b5f60ff831680612c5557634e487b7160e01b5f52601260045260245ffd5b8060ff84160691505092915050565b634e487b7160e01b5f52603160045260245ffdfea264697066735822122084f1a5b4bc2b65b91602c0f549c4af1bda69302b9b6b071afca577dfa89216a764736f6c634300081c003360c060405234801561000f575f5ffd5b50604051613b26380380613b2683398101604081905261002e9161058a565b8383838383836001600160a01b0316637158da7c6040518163ffffffff1660e01b8152600401602060405180830381865afa15801561006f573d5f5f3e3d5ffd5b505050506040513d601f19601f820116820180604052508101906100939190610615565b838360036100a183826106bb565b5060046100ae82826106bb565b5050505f5f6100c2836102da60201b60201c565b91509150816100d25760126100d4565b805b60ff1660a05250506001600160a01b039081166080526001600555811661011457604051631e4fbdf760e01b81525f600482015260240160405180910390fd5b61011d816103b0565b506001600160a01b0384166101455760405163e6c4247b60e01b815260040160405180910390fd5b6001600160a01b03831661016c5760405163e6c4247b60e01b815260040160405180910390fd5b60098054336001600160a01b0319918216179091556008805482166001600160a01b0387811691909117909155600780549092169085169081179091555f600a8190556011819055601281905560408051631c56369f60e21b81529051919291637158da7c916004808201926020929091908290030181865afa1580156101f5573d5f5f3e3d5ffd5b505050506040513d601f19601f820116820180604052508101906102199190610615565b6001600160a01b031663313ce5676040518163ffffffff1660e01b8152600401602060405180830381865afa158015610254573d5f5f3e3d5ffd5b505050506040513d601f19601f820116820180604052508101906102789190610775565b905060128160ff16111561029f57604051631c03248960e11b815260040160405180910390fd5b5f6102ab8260126107a9565b90506102b881600a6108a5565b601355506102cd94505f935050610401915050565b6019555061091092505050565b60408051600481526024810182526020810180516001600160e01b031663313ce56760e01b17905290515f918291829182916001600160a01b03871691610320916108b3565b5f60405180830381855afa9150503d805f8114610358576040519150601f19603f3d011682016040523d82523d5f602084013e61035d565b606091505b509150915081801561037157506020815110155b156103a4575f8180602001905181019061038b91906108c9565b905060ff81116103a2576001969095509350505050565b505b505f9485945092505050565b600680546001600160a01b038381166001600160a01b0319831681179093556040519116919082907f8be0079c531659141344cd1fd0a4f28419497f9722a3daafe3b4186f6b6457e0905f90a35050565b5f61041363ffffffff83166004610419565b92915050565b7fed8d60e34876f751cc8b014c560745351147d9de11b9347c854e881b128ea60154604051639cd07acb60e01b81525f917fed8d60e34876f751cc8b014c560745351147d9de11b9347c854e881b128ea600916001600160a01b0390911690639cd07acb9061048e90879087906004016108e0565b6020604051808303815f875af11580156104aa573d5f5f3e3d5ffd5b505050506040513d601f19601f820116820180604052508101906104ce91906108c9565b949350505050565b6001600160a01b03811681146104ea575f5ffd5b50565b634e487b7160e01b5f52604160045260245ffd5b5f82601f830112610510575f5ffd5b81516001600160401b03811115610529576105296104ed565b604051601f8201601f19908116603f011681016001600160401b0381118282101715610557576105576104ed565b60405281815283820160200185101561056e575f5ffd5b8160208501602083015e5f918101602001919091529392505050565b5f5f5f5f6080858703121561059d575f5ffd5b84516105a8816104d6565b60208601519094506105b9816104d6565b60408601519093506001600160401b038111156105d4575f5ffd5b6105e087828801610501565b606087015190935090506001600160401b038111156105fd575f5ffd5b61060987828801610501565b91505092959194509250565b5f60208284031215610625575f5ffd5b8151610630816104d6565b9392505050565b600181811c9082168061064b57607f821691505b60208210810361066957634e487b7160e01b5f52602260045260245ffd5b50919050565b601f8211156106b657805f5260205f20601f840160051c810160208510156106945750805b601f840160051c820191505b818110156106b3575f81556001016106a0565b50505b505050565b81516001600160401b038111156106d4576106d46104ed565b6106e8816106e28454610637565b8461066f565b6020601f82116001811461071a575f83156107035750848201515b5f19600385901b1c1916600184901b1784556106b3565b5f84815260208120601f198516915b828110156107495787850151825560209485019460019092019101610729565b508482101561076657868401515f19600387901b60f8161c191681555b50505050600190811b01905550565b5f60208284031215610785575f5ffd5b815160ff81168114610630575f5ffd5b634e487b7160e01b5f52601160045260245ffd5b60ff828116828216039081111561041357610413610795565b6001815b60018411156107fd578085048111156107e1576107e1610795565b60018416156107ef57908102905b60019390931c9280026107c6565b935093915050565b5f8261081357506001610413565b8161081f57505f610413565b8160018114610835576002811461083f5761085b565b6001915050610413565b60ff84111561085057610850610795565b50506001821b610413565b5060208310610133831016604e8410600b841016171561087e575081810a610413565b61088a5f1984846107c2565b805f190482111561089d5761089d610795565b029392505050565b5f61063060ff841683610805565b5f82518060208501845e5f920191825250919050565b5f602082840312156108d9575f5ffd5b5051919050565b828152604081016054831061090357634e487b7160e01b5f52602160045260245ffd5b8260208301529392505050565b60805160a0516131d26109545f395f610e5201525f818161034b01528181610ae001528181610bb901528181610c6c015281816118260152611aae01526131d25ff3fe608060405234801561000f575f5ffd5b506004361061026b575f3560e01c80639adb29811161014b578063c6e6f592116100bf578063d5f3948811610084578063d5f39488146104f5578063d905777e14610508578063dd62ed3e1461051b578063e66f53b714610553578063ef8b30f7146104ac578063f2fde38b14610566575f5ffd5b8063c6e6f592146104ac578063cce4705b146104bf578063ce96cb77146104d2578063d1699c26146104e5578063d3d03458146104ed575f5ffd5b8063b460af9411610110578063b460af941461046d578063b6eba6531461047b578063ba0876521461046d578063c0b568e114610491578063c37fc8a8146104a4578063c63d75b614610383575f5ffd5b80639adb298114610419578063a68a52671461042c578063a9059cbb1461043f578063aa9d3a6014610452578063b3d7f6b91461045a575f5ffd5b806338d52e0f116101e2578063715018a6116101a7578063715018a6146103d2578063745400c9146103da57806379502c55146103ed5780638da5cb5b1461040057806394bf804d1461039757806395d89b4114610411575f5ffd5b806338d52e0f14610349578063402d267d146103835780634cdad5061461029b5780636e553f651461039757806370a08231146103aa575f5ffd5b80630a28a477116102335780630a28a477146102e65780630d1e6667146102f957806318160ddd1461030c57806323b872dd14610314578063313ce5671461032757806333fdc59214610341575f5ffd5b806301e1d1141461026f57806306fdde031461028657806307a2d13a1461029b57806308388305146102ae578063095ea7b3146102c3575b5f5ffd5b600a545b6040519081526020015b60405180910390f35b61028e610579565b60405161027d9190612bd5565b6102736102a9366004612c0a565b610609565b6102c16102bc366004612c61565b61061a565b005b6102d66102d1366004612cb3565b610aac565b604051901515815260200161027d565b6102736102f4366004612c0a565b610ac3565b6102c1610307366004612c0a565b610acf565b600254610273565b6102d6610322366004612cdd565b610e26565b61032f610e4b565b60405160ff909116815260200161027d565b6102c1610e7b565b7f00000000000000000000000000000000000000000000000000000000000000005b6040516001600160a01b03909116815260200161027d565b610273610391366004612d1b565b505f1990565b6102736103a5366004612d36565b6110fb565b6102736103b8366004612d1b565b6001600160a01b03165f9081526020819052604090205490565b6102c1611115565b6102c16103e8366004612c0a565b611126565b60075461036b906001600160a01b031681565b6006546001600160a01b031661036b565b61028e611392565b6102c1610427366004612d64565b6113a1565b61027361043a366004612dab565b6115ae565b6102d661044d366004612cb3565b6115e8565b6102c16115f5565b610273610468366004612c0a565b611930565b6102736103a5366004612de4565b61048361193c565b60405161027d929190612e18565b6102c161049f366004612c0a565b611a9d565b601254610273565b6102736104ba366004612c0a565b611cf1565b6102c16104cd366004612c0a565b611cfc565b6102736104e0366004612d1b565b611f35565b601154610273565b610483611f57565b60095461036b906001600160a01b031681565b610273610516366004612d1b565b61209f565b610273610529366004612ea1565b6001600160a01b039182165f90815260016020908152604080832093909416825291909152205490565b60085461036b906001600160a01b031681565b6102c1610574366004612d1b565b6120bc565b60606003805461058890612ecd565b80601f01602080910402602001604051908101604052809291908181526020018280546105b490612ecd565b80156105ff5780601f106105d6576101008083540402835291602001916105ff565b820191905f5260205f20905b8154815290600101906020018083116105e257829003601f168201915b5050505050905090565b5f610614825f6120f6565b92915050565b6008546001600160a01b0316331461064557604051631a27eac360e11b815260040160405180910390fd5b61064d612104565b5f81900361066e57604051631121aa8d60e01b815260040160405180910390fd5b60195481905f826001600160401b0381111561068c5761068c612f05565b6040519080825280602002602001820160405280156106b5578160200160208202803683370190505b5090505f836001600160401b038111156106d1576106d1612f05565b6040519080825280602002602001820160405280156106fa578160200160208202803683370190505b5090505f5b848110156108bd575f87878381811061071a5761071a612f19565b6107309260206040909202019081019150612d1b565b90505f88888481811061074557610745612f19565b60075460408051633af32abf60e01b81526001600160a01b03888116600483015293909102949094016020013594501691633af32abf9150602401602060405180830381865afa15801561079b573d5f5f3e3d5ffd5b505050506040513d601f19601f820116820180604052508101906107bf9190612f2d565b6107ec5760405163751dff9760e11b81526001600160a01b03831660048201526024015b60405180910390fd5b6001600160a01b0382165f9081526018602052604090205460ff1615610830576040516346bdabe160e01b81526001600160a01b03831660048201526024016107e3565b6001600160a01b0382165f908152601860205260409020805460ff191660011790558451829086908590811061086857610868612f19565b60200260200101906001600160a01b031690816001600160a01b0316815250508084848151811061089b5761089b612f19565b6020026020010181815250506108b1868261212e565b955050506001016106ff565b505f61094660075f9054906101000a90046001600160a01b03166001600160a01b031663d1717c7d6040518163ffffffff1660e01b8152600401602060405180830381865afa158015610912573d5f5f3e3d5ffd5b505050506040513d601f19601f820116820180604052508101906109369190612f4c565b61094190600a613063565b61215c565b90505f610953858361216e565b6017549091505f5b818110156109a85760195460165f6017848154811061097c5761097c612f19565b5f9182526020808320909101546001600160a01b0316835282019290925260400190205560010161095b565b506109b460175f612ba7565b5f5b87811015610a6c575f8682815181106109d1576109d1612f19565b602002602001015190508582815181106109ed576109ed612f19565b6020908102919091018101516001600160a01b039092165f818152601683526040808220949094556017805460018181019092557fc624b66cc0138b8fabc209247f72d758e1cf3343756d543badbf24212bed8c150180546001600160a01b031916841790559181526018909252919020805460ff19169055016109b6565b5060405133907f2d47a742b8d7df7c1fc5a9a631b206b364e6cb2722490759f63bb3ab14b132e0905f90a250505050505050610aa86001600555565b5050565b5f33610ab981858561219c565b5060019392505050565b5f6106148260016121ae565b610ad7612104565b805f03610b25577f00000000000000000000000000000000000000000000000000000000000000005b604051636b30633560e01b81526001600160a01b0390911660048201526024016107e3565b60075f9054906101000a90046001600160a01b03166001600160a01b031663edcf9c1f6040518163ffffffff1660e01b8152600401602060405180830381865afa158015610b75573d5f5f3e3d5ffd5b505050506040513d601f19601f82011682018060405250810190610b999190612f2d565b610bb6576040516312aecd8160e01b815260040160405180910390fd5b5f7f00000000000000000000000000000000000000000000000000000000000000006040516370a0823160e01b81523360048201526001600160a01b0391909116906370a0823190602401602060405180830381865afa158015610c1c573d5f5f3e3d5ffd5b505050506040513d601f19601f82011682018060405250810190610c409190613071565b905080821115610c6957338183604051632e2a182f60e11b81526004016107e393929190613088565b5f7f00000000000000000000000000000000000000000000000000000000000000006001600160a01b03166323b872dd3360075f9054906101000a90046001600160a01b03166001600160a01b0316633a0dad8e6040518163ffffffff1660e01b8152600401602060405180830381865afa158015610cea573d5f5f3e3d5ffd5b505050506040513d601f19601f82011682018060405250810190610d0e91906130a9565b6040516001600160e01b031960e085901b1681526001600160a01b03928316600482015291166024820152604481018690526064016020604051808303815f875af1158015610d5f573d5f5f3e3d5ffd5b505050506040513d601f19601f82011682018060405250810190610d839190612f2d565b905080610da3576040516312171d8360e31b815260040160405180910390fd5b5f610daf600b336121eb565b9150610dca905033610dc186846130c4565b600b9190612211565b508360115f828254610ddc91906130c4565b909155505060405184815233907f08d79f77ab5f78e7e780abb1f7ac9e9923340d5bae78f6e83e7999905b248ea29060200160405180910390a2505050610e236001600555565b50565b5f33610e33858285612226565b610e3e85858561228f565b60019150505b9392505050565b5f610e76817f00000000000000000000000000000000000000000000000000000000000000006130d7565b905090565b60075f9054906101000a90046001600160a01b03166001600160a01b0316633a0dad8e6040518163ffffffff1660e01b8152600401602060405180830381865afa158015610ecb573d5f5f3e3d5ffd5b505050506040513d601f19601f82011682018060405250810190610eef91906130a9565b6001600160a01b0316336001600160a01b031614610f2057604051631a27eac360e11b815260040160405180910390fd5b610f28612104565b5f610f33600b6122ec565b90505f816001600160401b03811115610f4e57610f4e612f05565b604051908082528060200260200182016040528015610f77578160200160208202803683370190505b5090505f826001600160401b03811115610f9357610f93612f05565b604051908082528060200260200182016040528015610fbc578160200160208202803683370190505b5090505f5b83811015611035575f80610fd6600b846122f6565b9150915081858481518110610fed57610fed612f19565b60200260200101906001600160a01b031690816001600160a01b0316815250508084848151811061102057611020612f19565b60209081029190910101525050600101610fc1565b505f5b838110156110ea575f83828151811061105357611053612f19565b602002602001015190505f83838151811061107057611070612f19565b602002602001015190505f61108482611cf1565b9050611091600b84612304565b5061109c8382612318565b826001600160a01b03167f85a190caa61692b36b63a55e069330d18ab9af179fed7a25c16a4262bc63b7d2836040516110d791815260200190565b60405180910390a2505050600101611038565b50505f60115550506001600555565b565b5f60405163125ad87760e31b815260040160405180910390fd5b61111d61234c565b6110f95f612379565b805f0361114857604051636b30633560e01b81523060048201526024016107e3565b60075f9054906101000a90046001600160a01b03166001600160a01b031663edcf9c1f6040518163ffffffff1660e01b8152600401602060405180830381865afa158015611198573d5f5f3e3d5ffd5b505050506040513d601f19601f820116820180604052508101906111bc9190612f2d565b6111d9576040516312aecd8160e01b815260040160405180910390fd5b335f908152602081905260409020548082111561120f57338183604051632e2a182f60e11b81526004016107e393929190613088565b60075460408051631d06d6c760e11b815290515f9230926323b872dd9233926001600160a01b031691633a0dad8e9160048083019260209291908290030181865afa158015611260573d5f5f3e3d5ffd5b505050506040513d601f19601f8201168201806040525081019061128491906130a9565b6040516001600160e01b031960e085901b1681526001600160a01b03928316600482015291166024820152604481018690526064016020604051808303815f875af11580156112d5573d5f5f3e3d5ffd5b505050506040513d601f19601f820116820180604052508101906112f99190612f2d565b905080611319576040516312171d8360e31b815260040160405180910390fd5b5f611325600e336121eb565b915061134090503361133786846130c4565b600e9190612211565b508360125f82825461135291906130c4565b909155505060405184815233907ff7774b688d56120b783560a913ee60792a73dfd511812b7be5eccf10d08c66899060200160405180910390a250505050565b60606004805461058890612ecd565b60075f9054906101000a90046001600160a01b03166001600160a01b0316633a0dad8e6040518163ffffffff1660e01b8152600401602060405180830381865afa1580156113f1573d5f5f3e3d5ffd5b505050506040513d601f19601f8201168201806040525081019061141591906130a9565b6001600160a01b0316336001600160a01b03161461144657604051631a27eac360e11b815260040160405180910390fd5b6015545f5b818110156114985760195460145f6015848154811061146c5761146c612f19565b5f9182526020808320909101546001600160a01b0316835282019290925260400190205560010161144b565b506114a460155f612ba7565b5f5b8181101561156f578484828181106114c0576114c0612f19565b9050604002016020013560145f8787858181106114df576114df612f19565b6114f59260206040909202019081019150612d1b565b6001600160a01b0316815260208101919091526040015f2055601585858381811061152257611522612f19565b6115389260206040909202019081019150612d1b565b8154600180820184555f93845260209093200180546001600160a01b0319166001600160a01b0392909216919091179055016114a6565b50600a8290556040518281527f5e1ff954b5e5257e9ee5d4cb07059e8f5e69b1aaaf9911e5d8d90a6894de9c219060200160405180910390a150505050565b5f5f6115b960025490565b90506115df6115c98560016130c4565b6013546115d690846130c4565b879190866123ca565b95945050505050565b5f33610ab981858561228f565b60075f9054906101000a90046001600160a01b03166001600160a01b0316633a0dad8e6040518163ffffffff1660e01b8152600401602060405180830381865afa158015611645573d5f5f3e3d5ffd5b505050506040513d601f19601f8201168201806040525081019061166991906130a9565b6001600160a01b0316336001600160a01b03161461169a57604051631a27eac360e11b815260040160405180910390fd5b6116a2612104565b5f6116ad600e6122ec565b90505f816001600160401b038111156116c8576116c8612f05565b6040519080825280602002602001820160405280156116f1578160200160208202803683370190505b5090505f826001600160401b0381111561170d5761170d612f05565b604051908082528060200260200182016040528015611736578160200160208202803683370190505b5090505f5b838110156117af575f80611750600e846122f6565b915091508185848151811061176757611767612f19565b60200260200101906001600160a01b031690816001600160a01b0316815250508084848151811061179a5761179a612f19565b6020908102919091010152505060010161173b565b505f60128190555b83811015611922575f8382815181106117d2576117d2612f19565b602002602001015190505f8383815181106117ef576117ef612f19565b6020026020010151905061180d82600e61230490919063ffffffff16565b50611818308261240c565b5f61182282610609565b90507f000000000000000000000000000000000000000000000000000000000000000060405163a9059cbb60e01b81526001600160a01b03858116600483015260248201849052919091169063a9059cbb906044016020604051808303815f875af1158015611893573d5f5f3e3d5ffd5b505050506040513d601f19601f820116820180604052508101906118b79190612f2d565b6118d4576040516312171d8360e31b815260040160405180910390fd5b826001600160a01b03167f44b2ff9ffcefe2052a8afdbed44a04bf3db4592ae90c6b96c818bd28573e41e88360405161190f91815260200190565b60405180910390a25050506001016117b7565b505050506110f96001600555565b5f6106148260016120f6565b6017546060908190806001600160401b0381111561195c5761195c612f05565b604051908082528060200260200182016040528015611985578160200160208202803683370190505b509250806001600160401b038111156119a0576119a0612f05565b6040519080825280602002602001820160405280156119c9578160200160208202803683370190505b5091505f5b81811015611a9757601781815481106119e9576119e9612f19565b905f5260205f20015f9054906101000a90046001600160a01b0316848281518110611a1657611a16612f19565b60200260200101906001600160a01b031690816001600160a01b03168152505060165f60178381548110611a4c57611a4c612f19565b5f9182526020808320909101546001600160a01b031683528201929092526040019020548351849083908110611a8457611a84612f19565b60209081029190910101526001016119ce565b50509091565b611aa5612104565b805f03611ad2577f0000000000000000000000000000000000000000000000000000000000000000610b00565b60075f9054906101000a90046001600160a01b03166001600160a01b031663edcf9c1f6040518163ffffffff1660e01b8152600401602060405180830381865afa158015611b22573d5f5f3e3d5ffd5b505050506040513d601f19601f82011682018060405250810190611b469190612f2d565b611b63576040516312aecd8160e01b815260040160405180910390fd5b5f611b6f600b336121eb565b91505081811015611b93576040516332194fd360e21b815260040160405180910390fd5b60075f9054906101000a90046001600160a01b03166001600160a01b0316633a0dad8e6040518163ffffffff1660e01b8152600401602060405180830381865afa158015611be3573d5f5f3e3d5ffd5b505050506040513d601f19601f82011682018060405250810190611c0791906130a9565b6040516351edffb160e01b8152336004820152602481018490526001600160a01b0391909116906351edffb1906044015f604051808303815f87803b158015611c4e575f5ffd5b505af1158015611c60573d5f5f3e3d5ffd5b505050505f8282611c7191906130f0565b9050805f03611c8b57611c85600b33612304565b50611c99565b611c97600b3383612211565b505b8260115f828254611caa91906130f0565b909155505060405183815233907f96a9a6886cdf3047a125454218a23d3961fd3a78643123b248a9d106d0ac94fd906020015b60405180910390a25050610e236001600555565b5f610614825f6121ae565b611d04612104565b805f03611d2657604051636b30633560e01b81523060048201526024016107e3565b60075f9054906101000a90046001600160a01b03166001600160a01b031663edcf9c1f6040518163ffffffff1660e01b8152600401602060405180830381865afa158015611d76573d5f5f3e3d5ffd5b505050506040513d601f19601f82011682018060405250810190611d9a9190612f2d565b611db7576040516312aecd8160e01b815260040160405180910390fd5b5f611dc3600e336121eb565b91505081811015611de7576040516312ea1f4960e11b815260040160405180910390fd5b60075f9054906101000a90046001600160a01b03166001600160a01b0316633a0dad8e6040518163ffffffff1660e01b8152600401602060405180830381865afa158015611e37573d5f5f3e3d5ffd5b505050506040513d601f19601f82011682018060405250810190611e5b91906130a9565b6040516305f0c35960e51b8152336004820152602481018490526001600160a01b03919091169063be186b20906044015f604051808303815f87803b158015611ea2575f5ffd5b505af1158015611eb4573d5f5f3e3d5ffd5b505050505f8282611ec591906130f0565b9050805f03611edf57611ed9600e33612304565b50611eed565b611eeb600e3383612211565b505b8260125f828254611efe91906130f0565b909155505060405183815233907f9cf37535785001dcc9767688232fcbc8698b3002d1207b50bc2afec3ff8934dc90602001611cdd565b6001600160a01b0381165f90815260208190526040812054610614905f6120f6565b6015546060908190806001600160401b03811115611f7757611f77612f05565b604051908082528060200260200182016040528015611fa0578160200160208202803683370190505b509250806001600160401b03811115611fbb57611fbb612f05565b604051908082528060200260200182016040528015611fe4578160200160208202803683370190505b5091505f5b81811015611a97575f6015828154811061200557612005612f19565b905f5260205f20015f9054906101000a90046001600160a01b031690508085838151811061203557612035612f19565b60200260200101906001600160a01b031690816001600160a01b03168152505060145f826001600160a01b03166001600160a01b031681526020019081526020015f205484838151811061208b5761208b612f19565b602090810291909101015250600101611fe9565b6001600160a01b0381165f90815260208190526040812054610614565b6120c461234c565b6001600160a01b0381166120ed57604051631e4fbdf760e01b81525f60048201526024016107e3565b610e2381612379565b5f610e4483600a54846115ae565b60026005540361212757604051633ee5aeb560e01b815260040160405180910390fd5b6002600555565b5f826121405761213d5f61215c565b92505b816121515761214e5f61215c565b91505b610e4483835f612440565b5f6106148263ffffffff166004612523565b5f826121805761217d5f61215c565b92505b816121915761218e5f61215c565b91505b610e4483835f6125d8565b6121a98383836001612675565b505050565b5f5f6121b960025490565b90506121e3601354826121cc91906130c4565b600a546121da9060016130c4565b869190866123ca565b949350505050565b5f808080612202866001600160a01b038716612747565b909450925050505b9250929050565b5f6121e3846001600160a01b0385168461277f565b6001600160a01b038381165f908152600160209081526040808320938616835292905220545f19811015612289578181101561227b57828183604051637dc7a0d960e11b81526004016107e393929190613088565b61228984848484035f612675565b50505050565b6001600160a01b0383166122b857604051634b637e8f60e11b81525f60048201526024016107e3565b6001600160a01b0382166122e15760405163ec442f0560e01b81525f60048201526024016107e3565b6121a983838361279b565b5f610614826128ae565b5f80808061220286866128b8565b5f610e44836001600160a01b0384166128e1565b6001600160a01b0382166123415760405163ec442f0560e01b81525f60048201526024016107e3565b610aa85f838361279b565b6006546001600160a01b031633146110f95760405163118cdaa760e01b81523360048201526024016107e3565b600680546001600160a01b038381166001600160a01b0319831681179093556040519116919082907f8be0079c531659141344cd1fd0a4f28419497f9722a3daafe3b4186f6b6457e0905f90a35050565b5f6123f76123d7836128fd565b80156123f257505f84806123ed576123ed613103565b868809115b151590565b612402868686612929565b6115df91906130c4565b6001600160a01b03821661243557604051634b637e8f60e11b81525f60048201526024016107e3565b610aa8825f8361279b565b5f5f82156124535750600160f81b612456565b505f5b7fed8d60e34876f751cc8b014c560745351147d9de11b9347c854e881b128ea6015460405163022f65e760e31b815260048101879052602481018690526001600160f81b0319831660448201527fed8d60e34876f751cc8b014c560745351147d9de11b9347c854e881b128ea600916001600160a01b03169063117b2f38906064015b6020604051808303815f875af11580156124f5573d5f5f3e3d5ffd5b505050506040513d601f19601f820116820180604052508101906125199190613071565b9695505050505050565b7fed8d60e34876f751cc8b014c560745351147d9de11b9347c854e881b128ea60154604051639cd07acb60e01b81525f917fed8d60e34876f751cc8b014c560745351147d9de11b9347c854e881b128ea600916001600160a01b0390911690639cd07acb90612598908790879060040161312b565b6020604051808303815f875af11580156125b4573d5f5f3e3d5ffd5b505050506040513d601f19601f820116820180604052508101906121e39190613071565b5f5f82156125eb5750600160f81b6125ee565b505f5b7fed8d60e34876f751cc8b014c560745351147d9de11b9347c854e881b128ea6015460405163f77f3f1d60e01b815260048101879052602481018690526001600160f81b0319831660448201527fed8d60e34876f751cc8b014c560745351147d9de11b9347c854e881b128ea600916001600160a01b03169063f77f3f1d906064016124d9565b6001600160a01b03841661269e5760405163e602df0560e01b81525f60048201526024016107e3565b6001600160a01b0383166126c757604051634a1406b160e11b81525f60048201526024016107e3565b6001600160a01b038085165f908152600160209081526040808320938716835292905220829055801561228957826001600160a01b0316846001600160a01b03167f8c5be1e5ebec7d5bd14f71427d1e84f3dd0314c0f7b2291e5b200ac8c7c3b9258460405161273991815260200190565b60405180910390a350505050565b5f8181526002830160205260408120548190806127745761276885856129d9565b92505f915061220a9050565b60019250905061220a565b5f82815260028401602052604081208290556121e384846129e4565b6001600160a01b0383166127c5578060025f8282546127ba91906130c4565b909155506128229050565b6001600160a01b0383165f90815260208190526040902054818110156128045783818360405163391434e360e21b81526004016107e393929190613088565b6001600160a01b0384165f9081526020819052604090209082900390555b6001600160a01b03821661283e5760028054829003905561285c565b6001600160a01b0382165f9081526020819052604090208054820190555b816001600160a01b0316836001600160a01b03167fddf252ad1be2c89b69c2b068fc378daa952ba7f163c4a11628f55a4df523b3ef836040516128a191815260200190565b60405180910390a3505050565b5f610614826129ef565b5f80806128c585856129f8565b5f81815260029690960160205260409095205494959350505050565b5f8181526002830160205260408120819055610e448383612a03565b5f600282600381111561291257612912613117565b61291c919061315b565b60ff166001149050919050565b5f5f5f6129368686612a0e565b91509150815f0361295a5783818161295057612950613103565b0492505050610e44565b818411612971576129716003851502601118612a2a565b5f848688095f868103871696879004966002600389028118808a02820302808a02820302808a02820302808a02820302808a02820302808a02909103029181900381900460010185841190960395909502919093039390930492909217029150509392505050565b5f610e448383612a3b565b5f610e448383612a52565b5f610614825490565b5f610e448383612a9e565b5f610e448383612ac4565b5f805f1983850993909202808410938190039390930393915050565b634e487b715f52806020526024601cfd5b5f8181526001830160205260408120541515610e44565b5f818152600183016020526040812054612a9757508154600181810184555f848152602080822090930184905584548482528286019093526040902091909155610614565b505f610614565b5f825f018281548110612ab357612ab3612f19565b905f5260205f200154905092915050565b5f8181526001830160205260408120548015612b9e575f612ae66001836130f0565b85549091505f90612af9906001906130f0565b9050808214612b58575f865f018281548110612b1757612b17612f19565b905f5260205f200154905080875f018481548110612b3757612b37612f19565b5f918252602080832090910192909255918252600188019052604090208390555b8554869080612b6957612b69613188565b600190038181905f5260205f20015f90559055856001015f8681526020019081526020015f205f905560019350505050610614565b5f915050610614565b5080545f8255905f5260205f2090810190610e2391905b80821115612bd1575f8155600101612bbe565b5090565b602081525f82518060208401528060208501604085015e5f604082850101526040601f19601f83011684010191505092915050565b5f60208284031215612c1a575f5ffd5b5035919050565b5f5f83601f840112612c31575f5ffd5b5081356001600160401b03811115612c47575f5ffd5b6020830191508360208260061b850101111561220a575f5ffd5b5f5f60208385031215612c72575f5ffd5b82356001600160401b03811115612c87575f5ffd5b612c9385828601612c21565b90969095509350505050565b6001600160a01b0381168114610e23575f5ffd5b5f5f60408385031215612cc4575f5ffd5b8235612ccf81612c9f565b946020939093013593505050565b5f5f5f60608486031215612cef575f5ffd5b8335612cfa81612c9f565b92506020840135612d0a81612c9f565b929592945050506040919091013590565b5f60208284031215612d2b575f5ffd5b8135610e4481612c9f565b5f5f60408385031215612d47575f5ffd5b823591506020830135612d5981612c9f565b809150509250929050565b5f5f5f60408486031215612d76575f5ffd5b83356001600160401b03811115612d8b575f5ffd5b612d9786828701612c21565b909790965060209590950135949350505050565b5f5f5f60608486031215612dbd575f5ffd5b8335925060208401359150604084013560048110612dd9575f5ffd5b809150509250925092565b5f5f5f60608486031215612df6575f5ffd5b833592506020840135612e0881612c9f565b91506040840135612dd981612c9f565b604080825283519082018190525f9060208501906060840190835b81811015612e5a5783516001600160a01b0316835260209384019390920191600101612e33565b5050838103602080860191909152855180835291810192508501905f5b81811015612e95578251845260209384019390920191600101612e77565b50919695505050505050565b5f5f60408385031215612eb2575f5ffd5b8235612ebd81612c9f565b91506020830135612d5981612c9f565b600181811c90821680612ee157607f821691505b602082108103612eff57634e487b7160e01b5f52602260045260245ffd5b50919050565b634e487b7160e01b5f52604160045260245ffd5b634e487b7160e01b5f52603260045260245ffd5b5f60208284031215612f3d575f5ffd5b81518015158114610e44575f5ffd5b5f60208284031215612f5c575f5ffd5b815160ff81168114610e44575f5ffd5b634e487b7160e01b5f52601160045260245ffd5b6001815b6001841115612fbb57808504811115612f9f57612f9f612f6c565b6001841615612fad57908102905b60019390931c928002612f84565b935093915050565b5f82612fd157506001610614565b81612fdd57505f610614565b8160018114612ff35760028114612ffd57613019565b6001915050610614565b60ff84111561300e5761300e612f6c565b50506001821b610614565b5060208310610133831016604e8410600b841016171561303c575081810a610614565b6130485f198484612f80565b805f190482111561305b5761305b612f6c565b029392505050565b5f610e4460ff841683612fc3565b5f60208284031215613081575f5ffd5b5051919050565b6001600160a01b039390931683526020830191909152604082015260600190565b5f602082840312156130b9575f5ffd5b8151610e4481612c9f565b8082018082111561061457610614612f6c565b60ff818116838216019081111561061457610614612f6c565b8181038181111561061457610614612f6c565b634e487b7160e01b5f52601260045260245ffd5b634e487b7160e01b5f52602160045260245ffd5b828152604081016054831061314e57634e487b7160e01b5f52602160045260245ffd5b8260208301529392505050565b5f60ff83168061317957634e487b7160e01b5f52601260045260245ffd5b8060ff84160691505092915050565b634e487b7160e01b5f52603160045260245ffdfea2646970667358221220479a0087a81a16eaf391685cec4c1a5cb171157657b1539c2df5a6c7a65f9ffb64736f6c634300081c0033a2646970667358221220ff6932f90bd1e5eac98a1881fa76b3d4591f345fb6dc60f972aeae0dfa7b091864736f6c634300081c0033",
  "linkReferences": {},
  "deployedLinkReferences": {}
}