{
  "_format": "hh-sol-artifact-1",
  "contractName": "UnderlyingAsset",
  "sourceName": "contracts/mocks/UnderlyingAsset.sol",
  "abi": [
    {
      "inputs": [],
      "stateMutability": "nonpayable",
      "type": "constructor"
    },
    {
      "inputs": [
        {
          "internalType": "address",
          "name": "spender",
          "type": "address"
        },
        {
          "internalType": "uint256",
          "name": "allowance",
          "type": "uint256"
        },
        {
          "internalType": "uint256",
          "name": "needed",
          "type": "uint256"
        }
      ],
      "name": "ERC20InsufficientAllowance",
      "type": "error"
    },
    {
      "inputs": [
        {
          "internalType": "address",
          "name": "sender",
          "type": "address"
        },
        {
          "internalType": "uint256",
          "name": "balance",
          "type": "uint256"
        },
        {
          "internalType": "uint256",
          "name": "needed",
          "type": "uint256"
        }
      ],
      "name": "ERC20InsufficientBalance",
      "type": "error"
    },
    {
      "inputs": [
        {
          "internalType": "address",
          "name": "approver",
          "type": "address"
        }
      ],
      "name": "ERC20InvalidApprover",
      "type": "error"
    },
    {
      "inputs": [
        {
          "internalType": "address",
          "name": "receiver",
          "type": "address"
        }
      ],
      "name": "ERC20InvalidReceiver",
      "type": "error"
    },
    {
      "inputs": [
        {
          "internalType": "address",
          "name": "sender",
          "type": "address"
        }
      ],
      "name": "ERC20InvalidSender",
      "type": "error"
    },
    {
      "inputs": [
        {
          "internalType": "address",
          "name": "spender",
          "type": "address"
        }
      ],
      "name": "ERC20InvalidSpender",
      "type": "error"
    },
    {
      "inputs": [],
      "name": "NotAuthorized",
      "type": "error"
    },
    {
      "anonymous": false,
      "inputs": [
        {
          "indexed": true,
          "internalType": "address",
          "name": "owner",
          "type": "address"
        },
        {
          "indexed": true,
          "internalType": "address",
          "name": "spender",
          "type": "address"
        },
        {
          "indexed": false,
          "internalType": "uint256",
          "name": "value",
          "type": "uint256"
        }
      ],
      "name": "Approval",
      "type": "event"
    },
    {
      "anonymous": false,
      "inputs": [
        {
          "indexed": true,
          "internalType": "address",
          "name": "from",
          "type": "address"
        },
        {
          "indexed": true,
          "internalType": "address",
          "name": "to",
          "type": "address"
        },
        {
          "indexed": false,
          "internalType": "uint256",
          "name": "value",
          "type": "uint256"
        }
      ],
      "name": "Transfer",
      "type": "event"
    },
    {
      "inputs": [
        {
          "internalType": "address",
          "name": "owner",
          "type": "address"
        },
        {
          "internalType": "address",
          "name": "spender",
          "type": "address"
        }
      ],
      "name": "allowance",
      "outputs": [
        {
          "internalType": "uint256",
          "name": "",
          "type": "uint256"
        }
      ],
      "stateMutability": "view",
      "type": "function"
    },
    {
      "inputs": [
        {
          "internalType": "address",
          "name": "spender",
          "type": "address"
        },
        {
          "internalType": "uint256",
          "name": "value",
          "type": "uint256"
        }
      ],
      "name": "approve",
      "outputs": [
        {
          "internalType": "bool",
          "name": "",
          "type": "bool"
        }
      ],
      "stateMutability": "nonpayable",
      "type": "function"
    },
    {
      "inputs": [
        {
          "internalType": "address",
          "name": "account",
          "type": "address"
        }
      ],
      "name": "balanceOf",
      "outputs": [
        {
          "internalType": "uint256",
          "name": "",
          "type": "uint256"
        }
      ],
      "stateMutability": "view",
      "type": "function"
    },
    {
      "inputs": [],
      "name": "decimals",
      "outputs": [
        {
          "internalType": "uint8",
          "name": "",
          "type": "uint8"
        }
      ],
      "stateMutability": "pure",
      "type": "function"
    },
    {
      "inputs": [
        {
          "internalType": "address",
          "name": "to",
          "type": "address"
        },
        {
          "internalType": "uint256",
          "name": "amount",
          "type": "uint256"
        }
      ],
      "name": "mint",
      "outputs": [],
      "stateMutability": "nonpayable",
      "type": "function"
    },
    {
      "inputs": [],
      "name": "minter",
      "outputs": [
        {
          "internalType": "address",
          "name": "",
          "type": "address"
        }
      ],
      "stateMutability": "view",
      "type": "function"
    },
    {
      "inputs": [],
      "name": "name",
      "outputs": [
        {
          "internalType": "string",
          "name": "",
          "type": "string"
        }
      ],
      "stateMutability": "view",
      "type": "function"
    },
    {
      "inputs": [],
      "name": "symbol",
      "outputs": [
        {
          "internalType": "string",
          "name": "",
          "type": "string"
        }
      ],
      "stateMutability": "view",
      "type": "function"
    },
    {
      "inputs": [],
      "name": "totalSupply",
      "outputs": [
        {
          "internalType": "uint256",
          "name": "",
          "type": "uint256"
        }
      ],
      "stateMutability": "view",
      "type": "function"
    },
    {
      "inputs": [
        {
          "internalType": "address",
          "name": "to",
          "type": "address"
        },
        {
          "internalType": "uint256",
          "name": "value",
          "type": "uint256"
        }
      ],
      "name": "transfer",
      "outputs": [
        {
          "internalType": "bool",
          "name": "",
          "type": "bool"
        }
      ],
      "stateMutability": "nonpayable",
      "type": "function"
    },
    {
      "inputs": [
        {
          "internalType": "address",
          "name": "from",
          "type": "address"
        },
        {
          "internalType": "address",
          "name": "to",
          "type": "address"
        },
        {
          "internalType": "uint256",
          "name": "value",
          "type": "uint256"
        }
      ],
      "name": "transferFrom",
      "outputs": [
        {
          "internalType": "bool",
          "name": "",
          "type": "bool"
        }
      ],
      "stateMutability": "nonpayable",
      "type": "function"
    }
  ],
  "bytecode": "0x60a060405234801561000f575f80fd5b506040518060400160405280600881526020017f55534420436f696e0000000000000000000000000000000000000000000000008152506040518060400160405280600481526020017f5553444300000000000000000000000000000000000000000000000000000000815250816003908161008b9190610348565b50806004908161009b9190610348565b5050506100b867580920c23a442b4160c01b61010b60201b60201c565b6100d267f339da159046018160c01b61010b60201b60201c565b3373ffffffffffffffffffffffffffffffffffffffff1660808173ffffffffffffffffffffffffffffffffffffffff1681525050610417565b50565b5f81519050919050565b7f4e487b71000000000000000000000000000000000000000000000000000000005f52604160045260245ffd5b7f4e487b71000000000000000000000000000000000000000000000000000000005f52602260045260245ffd5b5f600282049050600182168061018957607f821691505b60208210810361019c5761019b610145565b5b50919050565b5f819050815f5260205f209050919050565b5f6020601f8301049050919050565b5f82821b905092915050565b5f600883026101fe7fffffffffffffffffffffffffffffffffffffffffffffffffffffffffffffffff826101c3565b61020886836101c3565b95508019841693508086168417925050509392505050565b5f819050919050565b5f819050919050565b5f61024c61024761024284610220565b610229565b610220565b9050919050565b5f819050919050565b61026583610232565b61027961027182610253565b8484546101cf565b825550505050565b5f90565b61028d610281565b61029881848461025c565b505050565b5b818110156102bb576102b05f82610285565b60018101905061029e565b5050565b601f821115610300576102d1816101a2565b6102da846101b4565b810160208510156102e9578190505b6102fd6102f5856101b4565b83018261029d565b50505b505050565b5f82821c905092915050565b5f6103205f1984600802610305565b1980831691505092915050565b5f6103388383610311565b9150826002028217905092915050565b6103518261010e565b67ffffffffffffffff81111561036a57610369610118565b5b6103748254610172565b61037f8282856102bf565b5f60209050601f8311600181146103b0575f841561039e578287015190505b6103a8858261032d565b86555061040f565b601f1984166103be866101a2565b5f5b828110156103e5578489015182556001820191506020850194506020810190506103c0565b8683101561040257848901516103fe601f891682610311565b8355505b6001600288020188555050505b505050505050565b6080516110336104365f395f81816102df01526103dc01526110335ff3fe608060405234801561000f575f80fd5b50600436106100a7575f3560e01c8063313ce5671161006f578063313ce5671461016557806340c10f191461018357806370a082311461019f57806395d89b41146101cf578063a9059cbb146101ed578063dd62ed3e1461021d576100a7565b806306fdde03146100ab57806307546172146100c9578063095ea7b3146100e757806318160ddd1461011757806323b872dd14610135575b5f80fd5b6100b361024d565b6040516100c09190610cac565b60405180910390f35b6100d16102dd565b6040516100de9190610d0b565b60405180910390f35b61010160048036038101906100fc9190610d85565b610301565b60405161010e9190610ddd565b60405180910390f35b61011f610323565b60405161012c9190610e05565b60405180910390f35b61014f600480360381019061014a9190610e1e565b61032c565b60405161015c9190610ddd565b60405180910390f35b61016d61035a565b60405161017a9190610e89565b60405180910390f35b61019d60048036038101906101989190610d85565b61039e565b005b6101b960048036038101906101b49190610ea2565b6104bd565b6040516101c69190610e05565b60405180910390f35b6101d7610502565b6040516101e49190610cac565b60405180910390f35b61020760048036038101906102029190610d85565b610592565b6040516102149190610ddd565b60405180910390f35b61023760048036038101906102329190610ecd565b6105b4565b6040516102449190610e05565b60405180910390f35b60606003805461025c90610f38565b80601f016020809104026020016040519081016040528092919081815260200182805461028890610f38565b80156102d35780601f106102aa576101008083540402835291602001916102d3565b820191905f5260205f20905b8154815290600101906020018083116102b657829003601f168201915b5050505050905090565b7f000000000000000000000000000000000000000000000000000000000000000081565b5f8061030b610636565b905061031881858561063d565b600191505092915050565b5f600254905090565b5f80610336610636565b905061034385828561064f565b61034e8585856106e2565b60019150509392505050565b5f61036f676e007fd11d9e99ac60c01b6107d2565b61038367aea5359879174b9960c01b6107d2565b61039767b22949ee7b6cc3af60c01b6107d2565b6006905090565b6103b26714786a85f6debb7f60c01b6107d2565b6103c66738cfd771f25d7d3f60c01b6107d2565b6103da679cc7a82832a1ad4760c01b6107d2565b7f000000000000000000000000000000000000000000000000000000000000000073ffffffffffffffffffffffffffffffffffffffff163373ffffffffffffffffffffffffffffffffffffffff16146104735761044167f561b8675c17ca9760c01b6107d2565b6040517fea8e4eb500000000000000000000000000000000000000000000000000000000815260040160405180910390fd5b610487672f7c55edc5cc33f760c01b6107d2565b61049b67e2bc44833fece5e560c01b6107d2565b6104af6712261a1a7b5ac7cf60c01b6107d2565b6104b982826107d5565b5050565b5f805f8373ffffffffffffffffffffffffffffffffffffffff1673ffffffffffffffffffffffffffffffffffffffff1681526020019081526020015f20549050919050565b60606004805461051190610f38565b80601f016020809104026020016040519081016040528092919081815260200182805461053d90610f38565b80156105885780601f1061055f57610100808354040283529160200191610588565b820191905f5260205f20905b81548152906001019060200180831161056b57829003601f168201915b5050505050905090565b5f8061059c610636565b90506105a98185856106e2565b600191505092915050565b5f60015f8473ffffffffffffffffffffffffffffffffffffffff1673ffffffffffffffffffffffffffffffffffffffff1681526020019081526020015f205f8373ffffffffffffffffffffffffffffffffffffffff1673ffffffffffffffffffffffffffffffffffffffff1681526020019081526020015f2054905092915050565b5f33905090565b61064a8383836001610854565b505050565b5f61065a84846105b4565b90507fffffffffffffffffffffffffffffffffffffffffffffffffffffffffffffffff8110156106dc57818110156106cd578281836040517ffb8f41b20000000000000000000000000000000000000000000000000000000081526004016106c493929190610f68565b60405180910390fd5b6106db84848484035f610854565b5b50505050565b5f73ffffffffffffffffffffffffffffffffffffffff168373ffffffffffffffffffffffffffffffffffffffff1603610752575f6040517f96c6fd1e0000000000000000000000000000000000000000000000000000000081526004016107499190610d0b565b60405180910390fd5b5f73ffffffffffffffffffffffffffffffffffffffff168273ffffffffffffffffffffffffffffffffffffffff16036107c2575f6040517fec442f050000000000000000000000000000000000000000000000000000000081526004016107b99190610d0b565b60405180910390fd5b6107cd838383610a23565b505050565b50565b5f73ffffffffffffffffffffffffffffffffffffffff168273ffffffffffffffffffffffffffffffffffffffff1603610845575f6040517fec442f0500000000000000000000000000000000000000000000000000000000815260040161083c9190610d0b565b60405180910390fd5b6108505f8383610a23565b5050565b5f73ffffffffffffffffffffffffffffffffffffffff168473ffffffffffffffffffffffffffffffffffffffff16036108c4575f6040517fe602df050000000000000000000000000000000000000000000000000000000081526004016108bb9190610d0b565b60405180910390fd5b5f73ffffffffffffffffffffffffffffffffffffffff168373ffffffffffffffffffffffffffffffffffffffff1603610934575f6040517f94280d6200000000000000000000000000000000000000000000000000000000815260040161092b9190610d0b565b60405180910390fd5b8160015f8673ffffffffffffffffffffffffffffffffffffffff1673ffffffffffffffffffffffffffffffffffffffff1681526020019081526020015f205f8573ffffffffffffffffffffffffffffffffffffffff1673ffffffffffffffffffffffffffffffffffffffff1681526020019081526020015f20819055508015610a1d578273ffffffffffffffffffffffffffffffffffffffff168473ffffffffffffffffffffffffffffffffffffffff167f8c5be1e5ebec7d5bd14f71427d1e84f3dd0314c0f7b2291e5b200ac8c7c3b92584604051610a149190610e05565b60405180910390a35b50505050565b5f73ffffffffffffffffffffffffffffffffffffffff168373ffffffffffffffffffffffffffffffffffffffff1603610a73578060025f828254610a679190610fca565b92505081905550610b41565b5f805f8573ffffffffffffffffffffffffffffffffffffffff1673ffffffffffffffffffffffffffffffffffffffff1681526020019081526020015f2054905081811015610afc578381836040517fe450d38c000000000000000000000000000000000000000000000000000000008152600401610af393929190610f68565b60405180910390fd5b8181035f808673ffffffffffffffffffffffffffffffffffffffff1673ffffffffffffffffffffffffffffffffffffffff1681526020019081526020015f2081905550505b5f73ffffffffffffffffffffffffffffffffffffffff168273ffffffffffffffffffffffffffffffffffffffff1603610b88578060025f8282540392505081905550610bd2565b805f808473ffffffffffffffffffffffffffffffffffffffff1673ffffffffffffffffffffffffffffffffffffffff1681526020019081526020015f205f82825401925050819055505b8173ffffffffffffffffffffffffffffffffffffffff168373ffffffffffffffffffffffffffffffffffffffff167fddf252ad1be2c89b69c2b068fc378daa952ba7f163c4a11628f55a4df523b3ef83604051610c2f9190610e05565b60405180910390a3505050565b5f81519050919050565b5f82825260208201905092915050565b8281835e5f83830152505050565b5f601f19601f8301169050919050565b5f610c7e82610c3c565b610c888185610c46565b9350610c98818560208601610c56565b610ca181610c64565b840191505092915050565b5f6020820190508181035f830152610cc48184610c74565b905092915050565b5f73ffffffffffffffffffffffffffffffffffffffff82169050919050565b5f610cf582610ccc565b9050919050565b610d0581610ceb565b82525050565b5f602082019050610d1e5f830184610cfc565b92915050565b5f80fd5b610d3181610ceb565b8114610d3b575f80fd5b50565b5f81359050610d4c81610d28565b92915050565b5f819050919050565b610d6481610d52565b8114610d6e575f80fd5b50565b5f81359050610d7f81610d5b565b92915050565b5f8060408385031215610d9b57610d9a610d24565b5b5f610da885828601610d3e565b9250506020610db985828601610d71565b9150509250929050565b5f8115159050919050565b610dd781610dc3565b82525050565b5f602082019050610df05f830184610dce565b92915050565b610dff81610d52565b82525050565b5f602082019050610e185f830184610df6565b92915050565b5f805f60608486031215610e3557610e34610d24565b5b5f610e4286828701610d3e565b9350506020610e5386828701610d3e565b9250506040610e6486828701610d71565b9150509250925092565b5f60ff82169050919050565b610e8381610e6e565b82525050565b5f602082019050610e9c5f830184610e7a565b92915050565b5f60208284031215610eb757610eb6610d24565b5b5f610ec484828501610d3e565b91505092915050565b5f8060408385031215610ee357610ee2610d24565b5b5f610ef085828601610d3e565b9250506020610f0185828601610d3e565b9150509250929050565b7f4e487b71000000000000000000000000000000000000000000000000000000005f52602260045260245ffd5b5f6002820490506001821680610f4f57607f821691505b602082108103610f6257610f61610f0b565b5b50919050565b5f606082019050610f7b5f830186610cfc565b610f886020830185610df6565b610f956040830184610df6565b949350505050565b7f4e487b71000000000000000000000000000000000000000000000000000000005f52601160045260245ffd5b5f610fd482610d52565b9150610fdf83610d52565b9250828201905080821115610ff757610ff6610f9d565b5b9291505056fea264697066735822122006a87181a6244bf4b1c4c9e1217ef0d9aedb181866a2bd9576d1804a9c60c8cf64736f6c634300081a0033",
  "linkReferences": {},
  "deployedLinkReferences": {}
}