{
  "_format": "hh-sol-artifact-1",
  "contractName": "UnderlyingAsset",
  "sourceName": "contracts/mocks/UnderlyingAsset.sol",
  "abi": [
    {
      "inputs": [],
      "stateMutability": "nonpayable",
      "type": "constructor"
    },
    {
      "inputs": [
        {
          "internalType": "address",
          "name": "spender",
          "type": "address"
        },
        {
          "internalType": "uint256",
          "name": "allowance",
          "type": "uint256"
        },
        {
          "internalType": "uint256",
          "name": "needed",
          "type": "uint256"
        }
      ],
      "name": "ERC20InsufficientAllowance",
      "type": "error"
    },
    {
      "inputs": [
        {
          "internalType": "address",
          "name": "sender",
          "type": "address"
        },
        {
          "internalType": "uint256",
          "name": "balance",
          "type": "uint256"
        },
        {
          "internalType": "uint256",
          "name": "needed",
          "type": "uint256"
        }
      ],
      "name": "ERC20InsufficientBalance",
      "type": "error"
    },
    {
      "inputs": [
        {
          "internalType": "address",
          "name": "approver",
          "type": "address"
        }
      ],
      "name": "ERC20InvalidApprover",
      "type": "error"
    },
    {
      "inputs": [
        {
          "internalType": "address",
          "name": "receiver",
          "type": "address"
        }
      ],
      "name": "ERC20InvalidReceiver",
      "type": "error"
    },
    {
      "inputs": [
        {
          "internalType": "address",
          "name": "sender",
          "type": "address"
        }
      ],
      "name": "ERC20InvalidSender",
      "type": "error"
    },
    {
      "inputs": [
        {
          "internalType": "address",
          "name": "spender",
          "type": "address"
        }
      ],
      "name": "ERC20InvalidSpender",
      "type": "error"
    },
    {
      "inputs": [],
      "name": "NotAuthorized",
      "type": "error"
    },
    {
      "anonymous": false,
      "inputs": [
        {
          "indexed": true,
          "internalType": "address",
          "name": "owner",
          "type": "address"
        },
        {
          "indexed": true,
          "internalType": "address",
          "name": "spender",
          "type": "address"
        },
        {
          "indexed": false,
          "internalType": "uint256",
          "name": "value",
          "type": "uint256"
        }
      ],
      "name": "Approval",
      "type": "event"
    },
    {
      "anonymous": false,
      "inputs": [
        {
          "indexed": true,
          "internalType": "address",
          "name": "from",
          "type": "address"
        },
        {
          "indexed": true,
          "internalType": "address",
          "name": "to",
          "type": "address"
        },
        {
          "indexed": false,
          "internalType": "uint256",
          "name": "value",
          "type": "uint256"
        }
      ],
      "name": "Transfer",
      "type": "event"
    },
    {
      "inputs": [
        {
          "internalType": "address",
          "name": "owner",
          "type": "address"
        },
        {
          "internalType": "address",
          "name": "spender",
          "type": "address"
        }
      ],
      "name": "allowance",
      "outputs": [
        {
          "internalType": "uint256",
          "name": "",
          "type": "uint256"
        }
      ],
      "stateMutability": "view",
      "type": "function"
    },
    {
      "inputs": [
        {
          "internalType": "address",
          "name": "spender",
          "type": "address"
        },
        {
          "internalType": "uint256",
          "name": "value",
          "type": "uint256"
        }
      ],
      "name": "approve",
      "outputs": [
        {
          "internalType": "bool",
          "name": "",
          "type": "bool"
        }
      ],
      "stateMutability": "nonpayable",
      "type": "function"
    },
    {
      "inputs": [
        {
          "internalType": "address",
          "name": "account",
          "type": "address"
        }
      ],
      "name": "balanceOf",
      "outputs": [
        {
          "internalType": "uint256",
          "name": "",
          "type": "uint256"
        }
      ],
      "stateMutability": "view",
      "type": "function"
    },
    {
      "inputs": [],
      "name": "decimals",
      "outputs": [
        {
          "internalType": "uint8",
          "name": "",
          "type": "uint8"
        }
      ],
      "stateMutability": "pure",
      "type": "function"
    },
    {
      "inputs": [
        {
          "internalType": "address",
          "name": "to",
          "type": "address"
        },
        {
          "internalType": "uint256",
          "name": "amount",
          "type": "uint256"
        }
      ],
      "name": "mint",
      "outputs": [],
      "stateMutability": "nonpayable",
      "type": "function"
    },
    {
      "inputs": [],
      "name": "minter",
      "outputs": [
        {
          "internalType": "address",
          "name": "",
          "type": "address"
        }
      ],
      "stateMutability": "view",
      "type": "function"
    },
    {
      "inputs": [],
      "name": "name",
      "outputs": [
        {
          "internalType": "string",
          "name": "",
          "type": "string"
        }
      ],
      "stateMutability": "view",
      "type": "function"
    },
    {
      "inputs": [],
      "name": "symbol",
      "outputs": [
        {
          "internalType": "string",
          "name": "",
          "type": "string"
        }
      ],
      "stateMutability": "view",
      "type": "function"
    },
    {
      "inputs": [],
      "name": "totalSupply",
      "outputs": [
        {
          "internalType": "uint256",
          "name": "",
          "type": "uint256"
        }
      ],
      "stateMutability": "view",
      "type": "function"
    },
    {
      "inputs": [
        {
          "internalType": "address",
          "name": "to",
          "type": "address"
        },
        {
          "internalType": "uint256",
          "name": "value",
          "type": "uint256"
        }
      ],
      "name": "transfer",
      "outputs": [
        {
          "internalType": "bool",
          "name": "",
          "type": "bool"
        }
      ],
      "stateMutability": "nonpayable",
      "type": "function"
    },
    {
      "inputs": [
        {
          "internalType": "address",
          "name": "from",
          "type": "address"
        },
        {
          "internalType": "address",
          "name": "to",
          "type": "address"
        },
        {
          "internalType": "uint256",
          "name": "value",
          "type": "uint256"
        }
      ],
      "name": "transferFrom",
      "outputs": [
        {
          "internalType": "bool",
          "name": "",
          "type": "bool"
        }
      ],
      "stateMutability": "nonpayable",
      "type": "function"
    }
  ],
  "bytecode": "0x608060405234801561000f575f80fd5b506040518060400160405280600881526020017f55534420436f696e0000000000000000000000000000000000000000000000008152506040518060400160405280600481526020017f5553444300000000000000000000000000000000000000000000000000000000815250816003908161008b9190610354565b50806004908161009b9190610354565b5050506100b867d58aa70ab53cb0b060c01b61011760201b60201c565b6100d267829092c01b4f868460c01b61011760201b60201c565b3360055f6101000a81548173ffffffffffffffffffffffffffffffffffffffff021916908373ffffffffffffffffffffffffffffffffffffffff160217905550610423565b50565b5f81519050919050565b7f4e487b71000000000000000000000000000000000000000000000000000000005f52604160045260245ffd5b7f4e487b71000000000000000000000000000000000000000000000000000000005f52602260045260245ffd5b5f600282049050600182168061019557607f821691505b6020821081036101a8576101a7610151565b5b50919050565b5f819050815f5260205f209050919050565b5f6020601f8301049050919050565b5f82821b905092915050565b5f6008830261020a7fffffffffffffffffffffffffffffffffffffffffffffffffffffffffffffffff826101cf565b61021486836101cf565b95508019841693508086168417925050509392505050565b5f819050919050565b5f819050919050565b5f61025861025361024e8461022c565b610235565b61022c565b9050919050565b5f819050919050565b6102718361023e565b61028561027d8261025f565b8484546101db565b825550505050565b5f90565b61029961028d565b6102a4818484610268565b505050565b5b818110156102c7576102bc5f82610291565b6001810190506102aa565b5050565b601f82111561030c576102dd816101ae565b6102e6846101c0565b810160208510156102f5578190505b610309610301856101c0565b8301826102a9565b50505b505050565b5f82821c905092915050565b5f61032c5f1984600802610311565b1980831691505092915050565b5f610344838361031d565b9150826002028217905092915050565b61035d8261011a565b67ffffffffffffffff81111561037657610375610124565b5b610380825461017e565b61038b8282856102cb565b5f60209050601f8311600181146103bc575f84156103aa578287015190505b6103b48582610339565b86555061041b565b601f1984166103ca866101ae565b5f5b828110156103f1578489015182556001820191506020850194506020810190506103cc565b8683101561040e578489015161040a601f89168261031d565b8355505b6001600288020188555050505b505050505050565b611035806104305f395ff3fe608060405234801561000f575f80fd5b50600436106100a7575f3560e01c8063313ce5671161006f578063313ce5671461016557806340c10f191461018357806370a082311461019f57806395d89b41146101cf578063a9059cbb146101ed578063dd62ed3e1461021d576100a7565b806306fdde03146100ab57806307546172146100c9578063095ea7b3146100e757806318160ddd1461011757806323b872dd14610135575b5f80fd5b6100b361024d565b6040516100c09190610cae565b60405180910390f35b6100d16102dd565b6040516100de9190610d0d565b60405180910390f35b61010160048036038101906100fc9190610d87565b610302565b60405161010e9190610ddf565b60405180910390f35b61011f610324565b60405161012c9190610e07565b60405180910390f35b61014f600480360381019061014a9190610e20565b61032d565b60405161015c9190610ddf565b60405180910390f35b61016d61035b565b60405161017a9190610e8b565b60405180910390f35b61019d60048036038101906101989190610d87565b61039f565b005b6101b960048036038101906101b49190610ea4565b6104bf565b6040516101c69190610e07565b60405180910390f35b6101d7610504565b6040516101e49190610cae565b60405180910390f35b61020760048036038101906102029190610d87565b610594565b6040516102149190610ddf565b60405180910390f35b61023760048036038101906102329190610ecf565b6105b6565b6040516102449190610e07565b60405180910390f35b60606003805461025c90610f3a565b80601f016020809104026020016040519081016040528092919081815260200182805461028890610f3a565b80156102d35780601f106102aa576101008083540402835291602001916102d3565b820191905f5260205f20905b8154815290600101906020018083116102b657829003601f168201915b5050505050905090565b60055f9054906101000a900473ffffffffffffffffffffffffffffffffffffffff1681565b5f8061030c610638565b905061031981858561063f565b600191505092915050565b5f600254905090565b5f80610337610638565b9050610344858285610651565b61034f8585856106e4565b60019150509392505050565b5f6103706747c95bda177b5a1660c01b6107d4565b610384677e87d8468d42cd7360c01b6107d4565b610398675e300082bc23ec4f60c01b6107d4565b6006905090565b6103b367456f2e0ec5b88ea860c01b6107d4565b6103c7673f96a1e61dad3da760c01b6107d4565b6103db67732e6e57c6ab84b860c01b6107d4565b60055f9054906101000a900473ffffffffffffffffffffffffffffffffffffffff1673ffffffffffffffffffffffffffffffffffffffff163373ffffffffffffffffffffffffffffffffffffffff16146104755761044367e7c170ffdce8951a60c01b6107d4565b6040517fea8e4eb500000000000000000000000000000000000000000000000000000000815260040160405180910390fd5b6104896737754c6e4213de0a60c01b6107d4565b61049d67432a0f27f05e892060c01b6107d4565b6104b167dc2d42b64bbf409760c01b6107d4565b6104bb82826107d7565b5050565b5f805f8373ffffffffffffffffffffffffffffffffffffffff1673ffffffffffffffffffffffffffffffffffffffff1681526020019081526020015f20549050919050565b60606004805461051390610f3a565b80601f016020809104026020016040519081016040528092919081815260200182805461053f90610f3a565b801561058a5780601f106105615761010080835404028352916020019161058a565b820191905f5260205f20905b81548152906001019060200180831161056d57829003601f168201915b5050505050905090565b5f8061059e610638565b90506105ab8185856106e4565b600191505092915050565b5f60015f8473ffffffffffffffffffffffffffffffffffffffff1673ffffffffffffffffffffffffffffffffffffffff1681526020019081526020015f205f8373ffffffffffffffffffffffffffffffffffffffff1673ffffffffffffffffffffffffffffffffffffffff1681526020019081526020015f2054905092915050565b5f33905090565b61064c8383836001610856565b505050565b5f61065c84846105b6565b90507fffffffffffffffffffffffffffffffffffffffffffffffffffffffffffffffff8110156106de57818110156106cf578281836040517ffb8f41b20000000000000000000000000000000000000000000000000000000081526004016106c693929190610f6a565b60405180910390fd5b6106dd84848484035f610856565b5b50505050565b5f73ffffffffffffffffffffffffffffffffffffffff168373ffffffffffffffffffffffffffffffffffffffff1603610754575f6040517f96c6fd1e00000000000000000000000000000000000000000000000000000000815260040161074b9190610d0d565b60405180910390fd5b5f73ffffffffffffffffffffffffffffffffffffffff168273ffffffffffffffffffffffffffffffffffffffff16036107c4575f6040517fec442f050000000000000000000000000000000000000000000000000000000081526004016107bb9190610d0d565b60405180910390fd5b6107cf838383610a25565b505050565b50565b5f73ffffffffffffffffffffffffffffffffffffffff168273ffffffffffffffffffffffffffffffffffffffff1603610847575f6040517fec442f0500000000000000000000000000000000000000000000000000000000815260040161083e9190610d0d565b60405180910390fd5b6108525f8383610a25565b5050565b5f73ffffffffffffffffffffffffffffffffffffffff168473ffffffffffffffffffffffffffffffffffffffff16036108c6575f6040517fe602df050000000000000000000000000000000000000000000000000000000081526004016108bd9190610d0d565b60405180910390fd5b5f73ffffffffffffffffffffffffffffffffffffffff168373ffffffffffffffffffffffffffffffffffffffff1603610936575f6040517f94280d6200000000000000000000000000000000000000000000000000000000815260040161092d9190610d0d565b60405180910390fd5b8160015f8673ffffffffffffffffffffffffffffffffffffffff1673ffffffffffffffffffffffffffffffffffffffff1681526020019081526020015f205f8573ffffffffffffffffffffffffffffffffffffffff1673ffffffffffffffffffffffffffffffffffffffff1681526020019081526020015f20819055508015610a1f578273ffffffffffffffffffffffffffffffffffffffff168473ffffffffffffffffffffffffffffffffffffffff167f8c5be1e5ebec7d5bd14f71427d1e84f3dd0314c0f7b2291e5b200ac8c7c3b92584604051610a169190610e07565b60405180910390a35b50505050565b5f73ffffffffffffffffffffffffffffffffffffffff168373ffffffffffffffffffffffffffffffffffffffff1603610a75578060025f828254610a699190610fcc565b92505081905550610b43565b5f805f8573ffffffffffffffffffffffffffffffffffffffff1673ffffffffffffffffffffffffffffffffffffffff1681526020019081526020015f2054905081811015610afe578381836040517fe450d38c000000000000000000000000000000000000000000000000000000008152600401610af593929190610f6a565b60405180910390fd5b8181035f808673ffffffffffffffffffffffffffffffffffffffff1673ffffffffffffffffffffffffffffffffffffffff1681526020019081526020015f2081905550505b5f73ffffffffffffffffffffffffffffffffffffffff168273ffffffffffffffffffffffffffffffffffffffff1603610b8a578060025f8282540392505081905550610bd4565b805f808473ffffffffffffffffffffffffffffffffffffffff1673ffffffffffffffffffffffffffffffffffffffff1681526020019081526020015f205f82825401925050819055505b8173ffffffffffffffffffffffffffffffffffffffff168373ffffffffffffffffffffffffffffffffffffffff167fddf252ad1be2c89b69c2b068fc378daa952ba7f163c4a11628f55a4df523b3ef83604051610c319190610e07565b60405180910390a3505050565b5f81519050919050565b5f82825260208201905092915050565b8281835e5f83830152505050565b5f601f19601f8301169050919050565b5f610c8082610c3e565b610c8a8185610c48565b9350610c9a818560208601610c58565b610ca381610c66565b840191505092915050565b5f6020820190508181035f830152610cc68184610c76565b905092915050565b5f73ffffffffffffffffffffffffffffffffffffffff82169050919050565b5f610cf782610cce565b9050919050565b610d0781610ced565b82525050565b5f602082019050610d205f830184610cfe565b92915050565b5f80fd5b610d3381610ced565b8114610d3d575f80fd5b50565b5f81359050610d4e81610d2a565b92915050565b5f819050919050565b610d6681610d54565b8114610d70575f80fd5b50565b5f81359050610d8181610d5d565b92915050565b5f8060408385031215610d9d57610d9c610d26565b5b5f610daa85828601610d40565b9250506020610dbb85828601610d73565b9150509250929050565b5f8115159050919050565b610dd981610dc5565b82525050565b5f602082019050610df25f830184610dd0565b92915050565b610e0181610d54565b82525050565b5f602082019050610e1a5f830184610df8565b92915050565b5f805f60608486031215610e3757610e36610d26565b5b5f610e4486828701610d40565b9350506020610e5586828701610d40565b9250506040610e6686828701610d73565b9150509250925092565b5f60ff82169050919050565b610e8581610e70565b82525050565b5f602082019050610e9e5f830184610e7c565b92915050565b5f60208284031215610eb957610eb8610d26565b5b5f610ec684828501610d40565b91505092915050565b5f8060408385031215610ee557610ee4610d26565b5b5f610ef285828601610d40565b9250506020610f0385828601610d40565b9150509250929050565b7f4e487b71000000000000000000000000000000000000000000000000000000005f52602260045260245ffd5b5f6002820490506001821680610f5157607f821691505b602082108103610f6457610f63610f0d565b5b50919050565b5f606082019050610f7d5f830186610cfe565b610f8a6020830185610df8565b610f976040830184610df8565b949350505050565b7f4e487b71000000000000000000000000000000000000000000000000000000005f52601160045260245ffd5b5f610fd682610d54565b9150610fe183610d54565b9250828201905080821115610ff957610ff8610f9f565b5b9291505056fea2646970667358221220169907817d0f21113d96706cc9e31dc6ff51c9c0e8f7ba3143ea7d377ca08a3f64736f6c634300081a0033",
  "linkReferences": {},
  "deployedLinkReferences": {}
}