{
  "_format": "hh-sol-artifact-1",
  "contractName": "KBestTvlWeightedAverage",
  "sourceName": "contracts/strategies/KBestTvlWeightedAverage.sol",
  "abi": [
    {
      "inputs": [
        {
          "internalType": "address",
          "name": "owner",
          "type": "address"
        },
        {
          "internalType": "address",
          "name": "_config",
          "type": "address"
        },
        {
          "internalType": "uint16",
          "name": "_k",
          "type": "uint16"
        }
      ],
      "stateMutability": "nonpayable",
      "type": "constructor"
    },
    {
      "inputs": [],
      "name": "InvalidStrategy",
      "type": "error"
    },
    {
      "inputs": [
        {
          "internalType": "address",
          "name": "owner",
          "type": "address"
        }
      ],
      "name": "OwnableInvalidOwner",
      "type": "error"
    },
    {
      "inputs": [
        {
          "internalType": "address",
          "name": "account",
          "type": "address"
        }
      ],
      "name": "OwnableUnauthorizedAccount",
      "type": "error"
    },
    {
      "inputs": [],
      "name": "ZeroAddress",
      "type": "error"
    },
    {
      "anonymous": false,
      "inputs": [
        {
          "indexed": true,
          "internalType": "address",
          "name": "previousOwner",
          "type": "address"
        },
        {
          "indexed": true,
          "internalType": "address",
          "name": "newOwner",
          "type": "address"
        }
      ],
      "name": "OwnershipTransferred",
      "type": "event"
    },
    {
      "inputs": [
        {
          "internalType": "address[]",
          "name": "vaultWhitelistedAssets",
          "type": "address[]"
        }
      ],
      "name": "computeIntent",
      "outputs": [
        {
          "components": [
            {
              "internalType": "address",
              "name": "token",
              "type": "address"
            },
            {
              "internalType": "uint32",
              "name": "weight",
              "type": "uint32"
            }
          ],
          "internalType": "struct IOrionTransparentVault.IntentPosition[]",
          "name": "intent",
          "type": "tuple[]"
        }
      ],
      "stateMutability": "view",
      "type": "function"
    },
    {
      "inputs": [],
      "name": "config",
      "outputs": [
        {
          "internalType": "contract IOrionConfig",
          "name": "",
          "type": "address"
        }
      ],
      "stateMutability": "view",
      "type": "function"
    },
    {
      "inputs": [],
      "name": "getStatefulIntent",
      "outputs": [
        {
          "components": [
            {
              "internalType": "address",
              "name": "token",
              "type": "address"
            },
            {
              "internalType": "uint32",
              "name": "weight",
              "type": "uint32"
            }
          ],
          "internalType": "struct IOrionTransparentVault.IntentPosition[]",
          "name": "intent",
          "type": "tuple[]"
        }
      ],
      "stateMutability": "view",
      "type": "function"
    },
    {
      "inputs": [],
      "name": "k",
      "outputs": [
        {
          "internalType": "uint16",
          "name": "",
          "type": "uint16"
        }
      ],
      "stateMutability": "view",
      "type": "function"
    },
    {
      "inputs": [],
      "name": "kMax",
      "outputs": [
        {
          "internalType": "uint16",
          "name": "",
          "type": "uint16"
        }
      ],
      "stateMutability": "view",
      "type": "function"
    },
    {
      "inputs": [],
      "name": "owner",
      "outputs": [
        {
          "internalType": "address",
          "name": "",
          "type": "address"
        }
      ],
      "stateMutability": "view",
      "type": "function"
    },
    {
      "inputs": [],
      "name": "renounceOwnership",
      "outputs": [],
      "stateMutability": "nonpayable",
      "type": "function"
    },
    {
      "inputs": [
        {
          "internalType": "bytes4",
          "name": "interfaceId",
          "type": "bytes4"
        }
      ],
      "name": "supportsInterface",
      "outputs": [
        {
          "internalType": "bool",
          "name": "",
          "type": "bool"
        }
      ],
      "stateMutability": "view",
      "type": "function"
    },
    {
      "inputs": [
        {
          "internalType": "address",
          "name": "newOwner",
          "type": "address"
        }
      ],
      "name": "transferOwnership",
      "outputs": [],
      "stateMutability": "nonpayable",
      "type": "function"
    },
    {
      "inputs": [
        {
          "internalType": "uint16",
          "name": "kNew",
          "type": "uint16"
        }
      ],
      "name": "updateParameters",
      "outputs": [],
      "stateMutability": "nonpayable",
      "type": "function"
    },
    {
      "inputs": [
        {
          "internalType": "address[]",
          "name": "vaultWhitelistedAssets",
          "type": "address[]"
        }
      ],
      "name": "validateStrategy",
      "outputs": [],
      "stateMutability": "nonpayable",
      "type": "function"
    }
  ],
  "bytecode": "0x608060405234801561000f575f5ffd5b5060405161137d38038061137d83398101604081905261002e9161013e565b826001600160a01b03811661005c57604051631e4fbdf760e01b81525f600482015260240160405180910390fd5b610065816100d4565b506001600160a01b03821661008d5760405163d92e233d60e01b815260040160405180910390fd5b600180546001600160a01b03939093166001600160b01b031990931692909217600160a01b61ffff92909216919091021761ffff60b01b1916601960b11b17905550610188565b5f80546001600160a01b038381166001600160a01b0319831681178455604051919092169283917f8be0079c531659141344cd1fd0a4f28419497f9722a3daafe3b4186f6b6457e09190a35050565b80516001600160a01b0381168114610139575f5ffd5b919050565b5f5f5f60608486031215610150575f5ffd5b61015984610123565b925061016760208501610123565b9150604084015161ffff8116811461017d575f5ffd5b809150509250925092565b6111e8806101955f395ff3fe608060405234801561000f575f5ffd5b5060043610610097575f3560e01c806301ffc9a71461009b5780632fc12f41146100c35780634564e0da146100d8578063701a818514610100578063715018a61461012057806379502c55146101285780638da5cb5b146101485780639194c82c14610150578063b4f40c6114610158578063c653526b1461016d578063f2fde38b14610180575b5f5ffd5b6100ae6100a9366004610cb0565b610193565b60405190151581526020015b60405180910390f35b6100d66100d1366004610cd7565b6101c9565b005b6001546100ed90600160b01b900461ffff1681565b60405161ffff90911681526020016100ba565b61011361010e366004610cf8565b6101f3565b6040516100ba9190610d67565b6100d6610269565b60015461013b906001600160a01b031681565b6040516100ba9190610dc4565b61013b61027c565b61011361028a565b6001546100ed90600160a01b900461ffff1681565b6100d661017b366004610cf8565b610324565b6100d661018e366004610dec565b6105e0565b5f6001600160e01b031982166313ee8de160e11b14806101c357506301ffc9a760e01b6001600160e01b03198316145b92915050565b6101d1610626565b6001805461ffff909216600160a01b0261ffff60a01b19909216919091179055565b6060815f610202858380610658565b90505f61023d61022a600160149054906101000a900461ffff1661ffff168561ffff1661076f565b600154600160b01b900461ffff1661076f565b90505f5f61024e8888868887610781565b9150915061025d8282856109d2565b98975050505050505050565b610271610626565b61027a5f610c28565b565b5f546001600160a01b031690565b6002546060905f036102af57604051632711b74d60e11b815260040160405180910390fd5b6002805480602002602001604051908101604052809291908181526020015f905b8282101561031b575f84815260209081902060408051808201909152908401546001600160a01b0381168252600160a01b900463ffffffff16818301528252600190920191016102d0565b50505050905090565b805f805b8261ffff168161ffff1610156104a7575f85858361ffff1681811061034f5761034f610e07565b90506020020160208101906103649190610dec565b9050806001600160a01b03166301e1d1146040518163ffffffff1660e01b8152600401602060405180830381865afa9250505080156103c0575060408051601f3d908101601f191682019092526103bd91810190610e1b565b60015b6103dd57604051632711b74d60e11b815260040160405180910390fd5b50806001600160a01b03166338d52e0f6040518163ffffffff1660e01b8152600401602060405180830381865afa925050508015610438575060408051601f3d908101601f1916820190925261043591810190610e32565b60015b61045557604051632711b74d60e11b815260040160405180910390fd5b6001600160a01b03841661046b5780935061049d565b836001600160a01b0316816001600160a01b03161461049d57604051632711b74d60e11b815260040160405180910390fd5b5050600101610328565b5060405163701a818560e01b81525f90309063701a8185906104cf9088908890600401610e4d565b5f60405180830381865afa1580156104e9573d5f5f3e3d5ffd5b505050506040513d5f823e601f3d908101601f191682016040526105109190810190610f05565b905061051d60025f610c77565b5f5b81518110156105d8576002604051806040016040528084848151811061054757610547610e07565b60200260200101515f01516001600160a01b0316815260200184848151811061057257610572610e07565b60209081029190910181015181015163ffffffff9081169092528354600181810186555f958652948290208451910180549490920151909216600160a01b026001600160c01b03199093166001600160a01b03909216919091179190911790550161051f565b505050505050565b6105e8610626565b6001600160a01b03811661061a575f604051631e4fbdf760e01b81526004016106119190610dc4565b60405180910390fd5b61062381610c28565b50565b3361062f61027c565b6001600160a01b03161461027a573360405163118cdaa760e01b81526004016106119190610dc4565b60608161ffff166001600160401b0381111561067657610676610e99565b60405190808252806020026020018201604052801561069f578160200160208202803683370190505b5090505f5b8261ffff168161ffff1610156107675784848261ffff168181106106ca576106ca610e07565b90506020020160208101906106df9190610dec565b6001600160a01b03166301e1d1146040518163ffffffff1660e01b8152600401602060405180830381865afa15801561071a573d5f5f3e3d5ffd5b505050506040513d601f19601f8201168201806040525081019061073e9190610e1b565b828261ffff168151811061075457610754610e07565b60209081029190910101526001016106a4565b509392505050565b5f8282188284100282185b9392505050565b6060808261ffff166001600160401b038111156107a0576107a0610e99565b6040519080825280602002602001820160405280156107c9578160200160208202803683370190505b5091508261ffff166001600160401b038111156107e8576107e8610e99565b604051908082528060200260200182016040528015610811578160200160208202803683370190505b5090505f8461ffff166001600160401b0381111561083157610831610e99565b60405190808252806020026020018201604052801561085a578160200160208202803683370190505b5090505f5b8461ffff168161ffff1610156109c6575f80805b8861ffff168161ffff1610156108ff57848161ffff168151811061089957610899610e07565b60200260200101511580156108ca5750828a8261ffff16815181106108c0576108c0610e07565b6020026020010151115b156108f757898161ffff16815181106108e5576108e5610e07565b602002602001015192508061ffff1691505b600101610873565b50600184828151811061091457610914610e07565b911515602092830291909101909101528a8a8281811061093657610936610e07565b905060200201602081019061094b9190610dec565b868461ffff168151811061096157610961610e07565b60200260200101906001600160a01b031690816001600160a01b03168152505088818151811061099357610993610e07565b6020026020010151858461ffff16815181106109b1576109b1610e07565b6020908102919091010152505060010161085f565b50509550959350505050565b60605f805b8361ffff168161ffff161015610a1a57848161ffff16815181106109fd576109fd610e07565b602002602001015182610a109190611006565b91506001016109d7565b506001546040805163d1717c7d60e01b815290515f926001600160a01b03169163d1717c7d9160048083019260209291908290030181865afa158015610a62573d5f5f3e3d5ffd5b505050506040513d601f19601f82011682018060405250810190610a869190611019565b610a9190600a61111c565b90508361ffff166001600160401b03811115610aaf57610aaf610e99565b604051908082528060200260200182016040528015610af357816020015b604080518082019091525f8082526020820152815260200190600190039081610acd5790505b5092505f805b8561ffff168161ffff161015610bbd575f848463ffffffff16898461ffff1681518110610b2857610b28610e07565b6020026020010151610b3a919061112a565b610b449190611141565b905060405180604001604052808a8461ffff1681518110610b6757610b67610e07565b60200260200101516001600160a01b031681526020018263ffffffff16815250868361ffff1681518110610b9d57610b9d610e07565b6020908102919091010152610bb28184611160565b925050600101610af9565b508163ffffffff168163ffffffff161015610c1e57610bdc818361117c565b84610be8600188611198565b61ffff1681518110610bfc57610bfc610e07565b6020026020010151602001818151610c149190611160565b63ffffffff169052505b5050509392505050565b5f80546001600160a01b038381166001600160a01b0319831681178455604051919092169283917f8be0079c531659141344cd1fd0a4f28419497f9722a3daafe3b4186f6b6457e09190a35050565b5080545f8255905f5260205f209081019061062391905b80821115610cac5780546001600160c01b0319168155600101610c8e565b5090565b5f60208284031215610cc0575f5ffd5b81356001600160e01b03198116811461077a575f5ffd5b5f60208284031215610ce7575f5ffd5b813561ffff8116811461077a575f5ffd5b5f5f60208385031215610d09575f5ffd5b82356001600160401b03811115610d1e575f5ffd5b8301601f81018513610d2e575f5ffd5b80356001600160401b03811115610d43575f5ffd5b8560208260051b8401011115610d57575f5ffd5b6020919091019590945092505050565b602080825282518282018190525f918401906040840190835b81811015610db957835180516001600160a01b0316845260209081015163ffffffff168185015290930192604090920191600101610d80565b509095945050505050565b6001600160a01b0391909116815260200190565b6001600160a01b0381168114610623575f5ffd5b5f60208284031215610dfc575f5ffd5b813561077a81610dd8565b634e487b7160e01b5f52603260045260245ffd5b5f60208284031215610e2b575f5ffd5b5051919050565b5f60208284031215610e42575f5ffd5b815161077a81610dd8565b602080825281018290525f8360408301825b85811015610e8f578235610e7281610dd8565b6001600160a01b0316825260209283019290910190600101610e5f565b5095945050505050565b634e487b7160e01b5f52604160045260245ffd5b604080519081016001600160401b0381118282101715610ecf57610ecf610e99565b60405290565b604051601f8201601f191681016001600160401b0381118282101715610efd57610efd610e99565b604052919050565b5f60208284031215610f15575f5ffd5b81516001600160401b03811115610f2a575f5ffd5b8201601f81018413610f3a575f5ffd5b80516001600160401b03811115610f5357610f53610e99565b610f6260208260051b01610ed5565b8082825260208201915060208360061b850101925086831115610f83575f5ffd5b6020840193505b82841015610fe85760408488031215610fa1575f5ffd5b610fa9610ead565b8451610fb481610dd8565b8152602085015163ffffffff81168114610fcc575f5ffd5b8060208301525080835250602082019150604084019350610f8a565b9695505050505050565b634e487b7160e01b5f52601160045260245ffd5b808201808211156101c3576101c3610ff2565b5f60208284031215611029575f5ffd5b815160ff8116811461077a575f5ffd5b6001815b60018411156110745780850481111561105857611058610ff2565b600184161561106657908102905b60019390931c92800261103d565b935093915050565b5f8261108a575060016101c3565b8161109657505f6101c3565b81600181146110ac57600281146110b6576110d2565b60019150506101c3565b60ff8411156110c7576110c7610ff2565b50506001821b6101c3565b5060208310610133831016604e8410600b84101617156110f5575081810a6101c3565b6111015f198484611039565b805f190482111561111457611114610ff2565b029392505050565b5f61077a60ff84168361107c565b80820281158282048414176101c3576101c3610ff2565b5f8261115b57634e487b7160e01b5f52601260045260245ffd5b500490565b63ffffffff81811683821601908111156101c3576101c3610ff2565b63ffffffff82811682821603908111156101c3576101c3610ff2565b61ffff82811682821603908111156101c3576101c3610ff256fea2646970667358221220db8adb57abf216148879a9a8583a87c0dfdcf55838fbdb859c93d9df9816b4d864736f6c634300081c0033",
  "linkReferences": {},
  "deployedLinkReferences": {}
}