{
  "_format": "hh-sol-artifact-1",
  "contractName": "KBestTvlWeightedAverage",
  "sourceName": "contracts/strategies/KBestTvlWeightedAverage.sol",
  "abi": [
    {
      "inputs": [
        {
          "internalType": "address",
          "name": "owner",
          "type": "address"
        },
        {
          "internalType": "address",
          "name": "_config",
          "type": "address"
        },
        {
          "internalType": "uint8",
          "name": "_k",
          "type": "uint8"
        }
      ],
      "stateMutability": "nonpayable",
      "type": "constructor"
    },
    {
      "inputs": [
        {
          "internalType": "address",
          "name": "owner",
          "type": "address"
        }
      ],
      "name": "OwnableInvalidOwner",
      "type": "error"
    },
    {
      "inputs": [
        {
          "internalType": "address",
          "name": "account",
          "type": "address"
        }
      ],
      "name": "OwnableUnauthorizedAccount",
      "type": "error"
    },
    {
      "inputs": [],
      "name": "ZeroAddress",
      "type": "error"
    },
    {
      "anonymous": false,
      "inputs": [
        {
          "indexed": true,
          "internalType": "address",
          "name": "previousOwner",
          "type": "address"
        },
        {
          "indexed": true,
          "internalType": "address",
          "name": "newOwner",
          "type": "address"
        }
      ],
      "name": "OwnershipTransferred",
      "type": "event"
    },
    {
      "inputs": [
        {
          "internalType": "address[]",
          "name": "vaultWhitelistedAssets",
          "type": "address[]"
        }
      ],
      "name": "computeIntent",
      "outputs": [
        {
          "components": [
            {
              "internalType": "address",
              "name": "token",
              "type": "address"
            },
            {
              "internalType": "uint32",
              "name": "value",
              "type": "uint32"
            }
          ],
          "internalType": "struct IOrionTransparentVault.Position[]",
          "name": "intent",
          "type": "tuple[]"
        }
      ],
      "stateMutability": "view",
      "type": "function"
    },
    {
      "inputs": [],
      "name": "config",
      "outputs": [
        {
          "internalType": "contract IOrionConfig",
          "name": "",
          "type": "address"
        }
      ],
      "stateMutability": "view",
      "type": "function"
    },
    {
      "inputs": [],
      "name": "k",
      "outputs": [
        {
          "internalType": "uint8",
          "name": "",
          "type": "uint8"
        }
      ],
      "stateMutability": "view",
      "type": "function"
    },
    {
      "inputs": [],
      "name": "owner",
      "outputs": [
        {
          "internalType": "address",
          "name": "",
          "type": "address"
        }
      ],
      "stateMutability": "view",
      "type": "function"
    },
    {
      "inputs": [],
      "name": "renounceOwnership",
      "outputs": [],
      "stateMutability": "nonpayable",
      "type": "function"
    },
    {
      "inputs": [
        {
          "internalType": "bytes4",
          "name": "interfaceId",
          "type": "bytes4"
        }
      ],
      "name": "supportsInterface",
      "outputs": [
        {
          "internalType": "bool",
          "name": "",
          "type": "bool"
        }
      ],
      "stateMutability": "view",
      "type": "function"
    },
    {
      "inputs": [
        {
          "internalType": "address",
          "name": "newOwner",
          "type": "address"
        }
      ],
      "name": "transferOwnership",
      "outputs": [],
      "stateMutability": "nonpayable",
      "type": "function"
    },
    {
      "inputs": [
        {
          "internalType": "uint8",
          "name": "kNew",
          "type": "uint8"
        }
      ],
      "name": "updateParameters",
      "outputs": [],
      "stateMutability": "nonpayable",
      "type": "function"
    }
  ],
  "bytecode": "0x608060405234801561000f575f5ffd5b50604051610dfd380380610dfd83398101604081905261002e9161012a565b826001600160a01b03811661005c57604051631e4fbdf760e01b81525f600482015260240160405180910390fd5b610065816100c0565b506001600160a01b03821661008d5760405163d92e233d60e01b815260040160405180910390fd5b6001805460ff909216600160a01b026001600160a81b03199092166001600160a01b039093169290921717905550610173565b5f80546001600160a01b038381166001600160a01b0319831681178455604051919092169283917f8be0079c531659141344cd1fd0a4f28419497f9722a3daafe3b4186f6b6457e09190a35050565b80516001600160a01b0381168114610125575f5ffd5b919050565b5f5f5f6060848603121561013c575f5ffd5b6101458461010f565b92506101536020850161010f565b9150604084015160ff81168114610168575f5ffd5b809150509250925092565b610c7d806101805f395ff3fe608060405234801561000f575f5ffd5b5060043610610076575f3560e01c806301ffc9a71461007a578063701a8185146100a2578063715018a6146100c257806379502c55146100cc5780638da5cb5b146100ec578063b4f40c61146100f4578063cbe307a21461011a578063f2fde38b1461012d575b5f5ffd5b61008d6100883660046108f8565b610140565b60405190151581526020015b60405180910390f35b6100b56100b036600461091f565b610176565b604051610099919061098e565b6100ca6101d1565b005b6001546100df906001600160a01b031681565b60405161009991906109eb565b6100df6101e4565b60015461010890600160a01b900460ff1681565b60405160ff9091168152602001610099565b6100ca610128366004610a0d565b6101f2565b6100ca61013b366004610a28565b61021a565b5f6001600160e01b0319821663701a818560e01b148061017057506301ffc9a760e01b6001600160e01b03198316145b92915050565b6060815f610185858380610260565b6001549091505f906101a59060ff600160a01b9091048116908516610372565b90505f5f6101b68888868887610384565b915091506101c58282856105c8565b98975050505050505050565b6101d9610877565b6101e25f6108a9565b565b5f546001600160a01b031690565b6101fa610877565b6001805460ff909216600160a01b0260ff60a01b19909216919091179055565b610222610877565b6001600160a01b038116610254575f604051631e4fbdf760e01b815260040161024b91906109eb565b60405180910390fd5b61025d816108a9565b50565b60608160ff166001600160401b0381111561027d5761027d610a4e565b6040519080825280602002602001820160405280156102a6578160200160208202803683370190505b5090505f5b8260ff168160ff16101561036a5784848260ff168181106102ce576102ce610a62565b90506020020160208101906102e39190610a28565b6001600160a01b03166301e1d1146040518163ffffffff1660e01b8152600401602060405180830381865afa15801561031e573d5f5f3e3d5ffd5b505050506040513d601f19601f820116820180604052508101906103429190610a76565b828260ff168151811061035757610357610a62565b60209081029190910101526001016102ab565b509392505050565b5f8282188284100282185b9392505050565b6060808260ff166001600160401b038111156103a2576103a2610a4e565b6040519080825280602002602001820160405280156103cb578160200160208202803683370190505b5091508260ff166001600160401b038111156103e9576103e9610a4e565b604051908082528060200260200182016040528015610412578160200160208202803683370190505b5090505f8460ff166001600160401b0381111561043157610431610a4e565b60405190808252806020026020018201604052801561045a578160200160208202803683370190505b5090505f5b8460ff168160ff1610156105bc575f80805b8860ff168160ff1610156104f757848160ff168151811061049457610494610a62565b60200260200101511580156104c45750828a8260ff16815181106104ba576104ba610a62565b6020026020010151115b156104ef57898160ff16815181106104de576104de610a62565b602002602001015192508060ff1691505b600101610471565b50600184828151811061050c5761050c610a62565b911515602092830291909101909101528a8a8281811061052e5761052e610a62565b90506020020160208101906105439190610a28565b868460ff168151811061055857610558610a62565b60200260200101906001600160a01b031690816001600160a01b03168152505088818151811061058a5761058a610a62565b6020026020010151858460ff16815181106105a7576105a7610a62565b6020908102919091010152505060010161045f565b50509550959350505050565b60605f805b8360ff168160ff16101561060d57848160ff16815181106105f0576105f0610a62565b6020026020010151826106039190610aa1565b91506001016105cd565b506001546040805163d1717c7d60e01b815290515f926001600160a01b03169163d1717c7d9160048083019260209291908290030181865afa158015610655573d5f5f3e3d5ffd5b505050506040513d601f19601f820116820180604052508101906106799190610ab4565b61068490600a610bb2565b90508360ff166001600160401b038111156106a1576106a1610a4e565b6040519080825280602002602001820160405280156106e557816020015b604080518082019091525f80825260208201528152602001906001900390816106bf5790505b5092505f805b8560ff168160ff1610156107aa575f848463ffffffff16898460ff168151811061071757610717610a62565b60200260200101516107299190610bc0565b6107339190610bd7565b905060405180604001604052808a8460ff168151811061075557610755610a62565b60200260200101516001600160a01b031681526020018263ffffffff16815250868360ff168151811061078a5761078a610a62565b602090810291909101015261079f8184610bf6565b9250506001016106eb565b508163ffffffff168163ffffffff16101561080e576107c98183610c12565b846107d5600188610c2e565b60ff16815181106107e8576107e8610a62565b60200260200101516020018181516108009190610bf6565b63ffffffff1690525061086d565b8163ffffffff168163ffffffff16111561086d5761082c8282610c12565b84610838600188610c2e565b60ff168151811061084b5761084b610a62565b60200260200101516020018181516108639190610c12565b63ffffffff169052505b5050509392505050565b336108806101e4565b6001600160a01b0316146101e2573360405163118cdaa760e01b815260040161024b91906109eb565b5f80546001600160a01b038381166001600160a01b0319831681178455604051919092169283917f8be0079c531659141344cd1fd0a4f28419497f9722a3daafe3b4186f6b6457e09190a35050565b5f60208284031215610908575f5ffd5b81356001600160e01b03198116811461037d575f5ffd5b5f5f60208385031215610930575f5ffd5b82356001600160401b03811115610945575f5ffd5b8301601f81018513610955575f5ffd5b80356001600160401b0381111561096a575f5ffd5b8560208260051b840101111561097e575f5ffd5b6020919091019590945092505050565b602080825282518282018190525f918401906040840190835b818110156109e057835180516001600160a01b0316845260209081015163ffffffff1681850152909301926040909201916001016109a7565b509095945050505050565b6001600160a01b0391909116815260200190565b60ff8116811461025d575f5ffd5b5f60208284031215610a1d575f5ffd5b813561037d816109ff565b5f60208284031215610a38575f5ffd5b81356001600160a01b038116811461037d575f5ffd5b634e487b7160e01b5f52604160045260245ffd5b634e487b7160e01b5f52603260045260245ffd5b5f60208284031215610a86575f5ffd5b5051919050565b634e487b7160e01b5f52601160045260245ffd5b8082018082111561017057610170610a8d565b5f60208284031215610ac4575f5ffd5b815161037d816109ff565b6001815b6001841115610b0a57808504811115610aee57610aee610a8d565b6001841615610afc57908102905b60019390931c928002610ad3565b935093915050565b5f82610b2057506001610170565b81610b2c57505f610170565b8160018114610b425760028114610b4c57610b68565b6001915050610170565b60ff841115610b5d57610b5d610a8d565b50506001821b610170565b5060208310610133831016604e8410600b8410161715610b8b575081810a610170565b610b975f198484610acf565b805f1904821115610baa57610baa610a8d565b029392505050565b5f61037d60ff841683610b12565b808202811582820484141761017057610170610a8d565b5f82610bf157634e487b7160e01b5f52601260045260245ffd5b500490565b63ffffffff818116838216019081111561017057610170610a8d565b63ffffffff828116828216039081111561017057610170610a8d565b60ff828116828216039081111561017057610170610a8d56fea2646970667358221220747be7e12117666e6e0f6c9f256a6bb904e86a677aaa01f4b11367fd5b1a28f764736f6c634300081c0033",
  "linkReferences": {},
  "deployedLinkReferences": {}
}