{
  "_format": "hh-sol-artifact-1",
  "contractName": "KBestTvlWeightedAverage",
  "sourceName": "contracts/strategies/KBestTvlWeightedAverage.sol",
  "abi": [
    {
      "inputs": [
        {
          "internalType": "address",
          "name": "owner",
          "type": "address"
        },
        {
          "internalType": "address",
          "name": "_config",
          "type": "address"
        },
        {
          "internalType": "uint8",
          "name": "_k",
          "type": "uint8"
        }
      ],
      "stateMutability": "nonpayable",
      "type": "constructor"
    },
    {
      "inputs": [
        {
          "internalType": "address",
          "name": "owner",
          "type": "address"
        }
      ],
      "name": "OwnableInvalidOwner",
      "type": "error"
    },
    {
      "inputs": [
        {
          "internalType": "address",
          "name": "account",
          "type": "address"
        }
      ],
      "name": "OwnableUnauthorizedAccount",
      "type": "error"
    },
    {
      "inputs": [],
      "name": "ZeroAddress",
      "type": "error"
    },
    {
      "anonymous": false,
      "inputs": [
        {
          "indexed": true,
          "internalType": "address",
          "name": "previousOwner",
          "type": "address"
        },
        {
          "indexed": true,
          "internalType": "address",
          "name": "newOwner",
          "type": "address"
        }
      ],
      "name": "OwnershipTransferred",
      "type": "event"
    },
    {
      "inputs": [
        {
          "internalType": "address[]",
          "name": "vaultWhitelistedAssets",
          "type": "address[]"
        }
      ],
      "name": "computeIntent",
      "outputs": [
        {
          "components": [
            {
              "internalType": "address",
              "name": "token",
              "type": "address"
            },
            {
              "internalType": "uint32",
              "name": "value",
              "type": "uint32"
            }
          ],
          "internalType": "struct IOrionTransparentVault.Position[]",
          "name": "intent",
          "type": "tuple[]"
        }
      ],
      "stateMutability": "view",
      "type": "function"
    },
    {
      "inputs": [],
      "name": "config",
      "outputs": [
        {
          "internalType": "contract IOrionConfig",
          "name": "",
          "type": "address"
        }
      ],
      "stateMutability": "view",
      "type": "function"
    },
    {
      "inputs": [],
      "name": "k",
      "outputs": [
        {
          "internalType": "uint8",
          "name": "",
          "type": "uint8"
        }
      ],
      "stateMutability": "view",
      "type": "function"
    },
    {
      "inputs": [],
      "name": "owner",
      "outputs": [
        {
          "internalType": "address",
          "name": "",
          "type": "address"
        }
      ],
      "stateMutability": "view",
      "type": "function"
    },
    {
      "inputs": [],
      "name": "renounceOwnership",
      "outputs": [],
      "stateMutability": "nonpayable",
      "type": "function"
    },
    {
      "inputs": [
        {
          "internalType": "address",
          "name": "newOwner",
          "type": "address"
        }
      ],
      "name": "transferOwnership",
      "outputs": [],
      "stateMutability": "nonpayable",
      "type": "function"
    },
    {
      "inputs": [
        {
          "internalType": "uint8",
          "name": "kNew",
          "type": "uint8"
        }
      ],
      "name": "updateParameters",
      "outputs": [],
      "stateMutability": "nonpayable",
      "type": "function"
    }
  ],
  "bytecode": "0x608060405234801561000f575f5ffd5b50604051610d3c380380610d3c83398101604081905261002e9161012a565b826001600160a01b03811661005c57604051631e4fbdf760e01b81525f600482015260240160405180910390fd5b610065816100c0565b506001600160a01b03821661008d5760405163d92e233d60e01b815260040160405180910390fd5b6001805460ff909216600160a01b026001600160a81b03199092166001600160a01b039093169290921717905550610173565b5f80546001600160a01b038381166001600160a01b0319831681178455604051919092169283917f8be0079c531659141344cd1fd0a4f28419497f9722a3daafe3b4186f6b6457e09190a35050565b80516001600160a01b0381168114610125575f5ffd5b919050565b5f5f5f6060848603121561013c575f5ffd5b6101458461010f565b92506101536020850161010f565b9150604084015160ff81168114610168575f5ffd5b809150509250925092565b610bbc806101805f395ff3fe608060405234801561000f575f5ffd5b506004361061006b575f3560e01c8063701a81851461006f578063715018a61461009857806379502c55146100a25780638da5cb5b146100c2578063b4f40c61146100ca578063cbe307a2146100f0578063f2fde38b14610103575b5f5ffd5b61008261007d366004610857565b610116565b60405161008f91906108c6565b60405180910390f35b6100a0610171565b005b6001546100b5906001600160a01b031681565b60405161008f9190610923565b6100b5610184565b6001546100de90600160a01b900460ff1681565b60405160ff909116815260200161008f565b6100a06100fe366004610945565b610192565b6100a0610111366004610967565b6101ba565b6060815f610125858380610200565b6001549091505f906101459060ff600160a01b9091048116908516610312565b90505f5f6101568888868887610326565b9150915061016582828561056a565b98975050505050505050565b6101796107d6565b6101825f610808565b565b5f546001600160a01b031690565b61019a6107d6565b6001805460ff909216600160a01b0260ff60a01b19909216919091179055565b6101c26107d6565b6001600160a01b0381166101f4575f604051631e4fbdf760e01b81526004016101eb9190610923565b60405180910390fd5b6101fd81610808565b50565b60608160ff166001600160401b0381111561021d5761021d61098d565b604051908082528060200260200182016040528015610246578160200160208202803683370190505b5090505f5b8260ff168160ff16101561030a5784848260ff1681811061026e5761026e6109a1565b90506020020160208101906102839190610967565b6001600160a01b03166301e1d1146040518163ffffffff1660e01b8152600401602060405180830381865afa1580156102be573d5f5f3e3d5ffd5b505050506040513d601f19601f820116820180604052508101906102e291906109b5565b828260ff16815181106102f7576102f76109a1565b602090810291909101015260010161024b565b509392505050565b5f8282188284100282185b90505b92915050565b6060808260ff166001600160401b038111156103445761034461098d565b60405190808252806020026020018201604052801561036d578160200160208202803683370190505b5091508260ff166001600160401b0381111561038b5761038b61098d565b6040519080825280602002602001820160405280156103b4578160200160208202803683370190505b5090505f8460ff166001600160401b038111156103d3576103d361098d565b6040519080825280602002602001820160405280156103fc578160200160208202803683370190505b5090505f5b8460ff168160ff16101561055e575f80805b8860ff168160ff16101561049957848160ff1681518110610436576104366109a1565b60200260200101511580156104665750828a8260ff168151811061045c5761045c6109a1565b6020026020010151115b1561049157898160ff1681518110610480576104806109a1565b602002602001015192508060ff1691505b600101610413565b5060018482815181106104ae576104ae6109a1565b911515602092830291909101909101528a8a828181106104d0576104d06109a1565b90506020020160208101906104e59190610967565b868460ff16815181106104fa576104fa6109a1565b60200260200101906001600160a01b031690816001600160a01b03168152505088818151811061052c5761052c6109a1565b6020026020010151858460ff1681518110610549576105496109a1565b60209081029190910101525050600101610401565b50509550959350505050565b60605f805b8360ff168160ff1610156105af57848160ff1681518110610592576105926109a1565b6020026020010151826105a591906109e0565b915060010161056f565b506001546040805163d1717c7d60e01b815290515f926001600160a01b03169163d1717c7d9160048083019260209291908290030181865afa1580156105f7573d5f5f3e3d5ffd5b505050506040513d601f19601f8201168201806040525081019061061b91906109f3565b61062690600a610af1565b90508360ff166001600160401b038111156106435761064361098d565b60405190808252806020026020018201604052801561068757816020015b604080518082019091525f80825260208201528152602001906001900390816106615790505b5092505f805b8560ff168160ff161015610768575f848463ffffffff16898460ff16815181106106b9576106b96109a1565b60200260200101516106cb9190610aff565b6106d59190610b16565b905060405180604001604052808a8460ff16815181106106f7576106f76109a1565b60200260200101516001600160a01b03168152602001898460ff1681518110610722576107226109a1565b602002602001015163ffffffff16815250868360ff1681518110610748576107486109a1565b602090810291909101015261075d8184610b35565b92505060010161068d565b508163ffffffff168163ffffffff16146107cc575f6107878284610b51565b90508085610796600189610b6d565b60ff16815181106107a9576107a96109a1565b60200260200101516020018181516107c19190610b51565b63ffffffff16905250505b5050509392505050565b336107df610184565b6001600160a01b031614610182573360405163118cdaa760e01b81526004016101eb9190610923565b5f80546001600160a01b038381166001600160a01b0319831681178455604051919092169283917f8be0079c531659141344cd1fd0a4f28419497f9722a3daafe3b4186f6b6457e09190a35050565b5f5f60208385031215610868575f5ffd5b82356001600160401b0381111561087d575f5ffd5b8301601f8101851361088d575f5ffd5b80356001600160401b038111156108a2575f5ffd5b8560208260051b84010111156108b6575f5ffd5b6020919091019590945092505050565b602080825282518282018190525f918401906040840190835b8181101561091857835180516001600160a01b0316845260209081015163ffffffff1681850152909301926040909201916001016108df565b509095945050505050565b6001600160a01b0391909116815260200190565b60ff811681146101fd575f5ffd5b5f60208284031215610955575f5ffd5b813561096081610937565b9392505050565b5f60208284031215610977575f5ffd5b81356001600160a01b0381168114610960575f5ffd5b634e487b7160e01b5f52604160045260245ffd5b634e487b7160e01b5f52603260045260245ffd5b5f602082840312156109c5575f5ffd5b5051919050565b634e487b7160e01b5f52601160045260245ffd5b80820180821115610320576103206109cc565b5f60208284031215610a03575f5ffd5b815161096081610937565b6001815b6001841115610a4957808504811115610a2d57610a2d6109cc565b6001841615610a3b57908102905b60019390931c928002610a12565b935093915050565b5f82610a5f57506001610320565b81610a6b57505f610320565b8160018114610a815760028114610a8b57610aa7565b6001915050610320565b60ff841115610a9c57610a9c6109cc565b50506001821b610320565b5060208310610133831016604e8410600b8410161715610aca575081810a610320565b610ad65f198484610a0e565b805f1904821115610ae957610ae96109cc565b029392505050565b5f61031d60ff841683610a51565b8082028115828204841417610320576103206109cc565b5f82610b3057634e487b7160e01b5f52601260045260245ffd5b500490565b63ffffffff8181168382160190811115610320576103206109cc565b63ffffffff8281168282160390811115610320576103206109cc565b60ff8281168282160390811115610320576103206109cc56fea264697066735822122030714bf3b3d830768ae1cd563153cf2d157e575c37ed761888361d6ced1bebb164736f6c634300081c0033",
  "linkReferences": {},
  "deployedLinkReferences": {}
}