{
  "_format": "hh-sol-artifact-1",
  "contractName": "KBestTvlWeightedAverage",
  "sourceName": "contracts/strategies/KBestTvlWeightedAverage.sol",
  "abi": [
    {
      "inputs": [
        {
          "internalType": "address",
          "name": "owner",
          "type": "address"
        },
        {
          "internalType": "address",
          "name": "_config",
          "type": "address"
        },
        {
          "internalType": "uint16",
          "name": "_k",
          "type": "uint16"
        }
      ],
      "stateMutability": "nonpayable",
      "type": "constructor"
    },
    {
      "inputs": [
        {
          "internalType": "address",
          "name": "owner",
          "type": "address"
        }
      ],
      "name": "OwnableInvalidOwner",
      "type": "error"
    },
    {
      "inputs": [
        {
          "internalType": "address",
          "name": "account",
          "type": "address"
        }
      ],
      "name": "OwnableUnauthorizedAccount",
      "type": "error"
    },
    {
      "inputs": [],
      "name": "ZeroAddress",
      "type": "error"
    },
    {
      "anonymous": false,
      "inputs": [
        {
          "indexed": true,
          "internalType": "address",
          "name": "previousOwner",
          "type": "address"
        },
        {
          "indexed": true,
          "internalType": "address",
          "name": "newOwner",
          "type": "address"
        }
      ],
      "name": "OwnershipTransferred",
      "type": "event"
    },
    {
      "inputs": [],
      "name": "config",
      "outputs": [
        {
          "internalType": "contract IOrionConfig",
          "name": "",
          "type": "address"
        }
      ],
      "stateMutability": "view",
      "type": "function"
    },
    {
      "inputs": [],
      "name": "k",
      "outputs": [
        {
          "internalType": "uint16",
          "name": "",
          "type": "uint16"
        }
      ],
      "stateMutability": "view",
      "type": "function"
    },
    {
      "inputs": [],
      "name": "owner",
      "outputs": [
        {
          "internalType": "address",
          "name": "",
          "type": "address"
        }
      ],
      "stateMutability": "view",
      "type": "function"
    },
    {
      "inputs": [],
      "name": "renounceOwnership",
      "outputs": [],
      "stateMutability": "nonpayable",
      "type": "function"
    },
    {
      "inputs": [
        {
          "internalType": "contract IOrionTransparentVault",
          "name": "vault",
          "type": "address"
        }
      ],
      "name": "submitIntent",
      "outputs": [],
      "stateMutability": "nonpayable",
      "type": "function"
    },
    {
      "inputs": [
        {
          "internalType": "bytes4",
          "name": "interfaceId",
          "type": "bytes4"
        }
      ],
      "name": "supportsInterface",
      "outputs": [
        {
          "internalType": "bool",
          "name": "",
          "type": "bool"
        }
      ],
      "stateMutability": "view",
      "type": "function"
    },
    {
      "inputs": [
        {
          "internalType": "address",
          "name": "newOwner",
          "type": "address"
        }
      ],
      "name": "transferOwnership",
      "outputs": [],
      "stateMutability": "nonpayable",
      "type": "function"
    },
    {
      "inputs": [
        {
          "internalType": "uint16",
          "name": "kNew",
          "type": "uint16"
        }
      ],
      "name": "updateParameters",
      "outputs": [],
      "stateMutability": "nonpayable",
      "type": "function"
    }
  ],
  "bytecode": "0x608060405234801561000f575f5ffd5b50604051610ec9380380610ec983398101604081905261002e9161012b565b826001600160a01b03811661005c57604051631e4fbdf760e01b81525f600482015260240160405180910390fd5b610065816100c1565b506001600160a01b03821661008d5760405163d92e233d60e01b815260040160405180910390fd5b6001805461ffff909216600160a01b026001600160b01b03199092166001600160a01b039093169290921717905550610175565b5f80546001600160a01b038381166001600160a01b0319831681178455604051919092169283917f8be0079c531659141344cd1fd0a4f28419497f9722a3daafe3b4186f6b6457e09190a35050565b80516001600160a01b0381168114610126575f5ffd5b919050565b5f5f5f6060848603121561013d575f5ffd5b61014684610110565b925061015460208501610110565b9150604084015161ffff8116811461016a575f5ffd5b809150509250925092565b610d47806101825f395ff3fe608060405234801561000f575f5ffd5b5060043610610076575f3560e01c806301ffc9a71461007a5780632fc12f41146100a2578063715018a6146100b757806379502c55146100bf5780638da5cb5b146100df5780639d2f7e84146100e7578063b4f40c61146100fa578063f2fde38b14610122575b5f5ffd5b61008d61008836600461096a565b610135565b60405190151581526020015b60405180910390f35b6100b56100b0366004610991565b61016b565b005b6100b5610195565b6001546100d2906001600160a01b031681565b60405161009991906109b2565b6100d26101a8565b6100b56100f53660046109da565b6101b6565b60015461010f90600160a01b900461ffff1681565b60405161ffff9091168152602001610099565b6100b56101303660046109da565b6102d0565b5f6001600160e01b0319821663274bdfa160e21b148061016557506301ffc9a760e01b6001600160e01b03198316145b92915050565b610173610316565b6001805461ffff909216600160a01b0261ffff60a01b19909216919091179055565b61019d610316565b6101a65f610348565b565b5f546001600160a01b031690565b5f816001600160a01b0316634e85b1356040518163ffffffff1660e01b81526004015f60405180830381865afa1580156101f2573d5f5f3e3d5ffd5b505050506040513d5f823e601f3d908101601f191682016040526102199190810190610a19565b80519091505f6102298383610397565b6001549091505f9061024a9061ffff600160a01b90910481169085166104cb565b90505f5f61025a868587866104dd565b915091505f61026a838386610722565b6040516358debf1760e11b81529091506001600160a01b0389169063b1bd7e2e90610299908490600401610ae3565b5f604051808303815f87803b1580156102b0575f5ffd5b505af11580156102c2573d5f5f3e3d5ffd5b505050505050505050505050565b6102d8610316565b6001600160a01b03811661030a575f604051631e4fbdf760e01b815260040161030191906109b2565b60405180910390fd5b61031381610348565b50565b3361031f6101a8565b6001600160a01b0316146101a6573360405163118cdaa760e01b815260040161030191906109b2565b5f80546001600160a01b038381166001600160a01b0319831681178455604051919092169283917f8be0079c531659141344cd1fd0a4f28419497f9722a3daafe3b4186f6b6457e09190a35050565b60608161ffff166001600160401b038111156103b5576103b56109f5565b6040519080825280602002602001820160405280156103de578160200160208202803683370190505b5090505f5b8261ffff168161ffff1610156104c457838161ffff168151811061040957610409610b40565b60200260200101516001600160a01b03166301e1d1146040518163ffffffff1660e01b8152600401602060405180830381865afa92505050801561046a575060408051601f3d908101601f1916820190925261046791810190610b54565b60015b610497576001828261ffff168151811061048657610486610b40565b6020026020010181815250506104bc565b80838361ffff16815181106104ae576104ae610b40565b602002602001018181525050505b6001016103e3565b5092915050565b5f8282188284100282185b9392505050565b6060808261ffff166001600160401b038111156104fc576104fc6109f5565b604051908082528060200260200182016040528015610525578160200160208202803683370190505b5091508261ffff166001600160401b03811115610544576105446109f5565b60405190808252806020026020018201604052801561056d578160200160208202803683370190505b5090505f8461ffff166001600160401b0381111561058d5761058d6109f5565b6040519080825280602002602001820160405280156105b6578160200160208202803683370190505b5090505f5b8461ffff168161ffff161015610717575f80805b8861ffff168161ffff16101561065b57848161ffff16815181106105f5576105f5610b40565b60200260200101511580156106265750828a8261ffff168151811061061c5761061c610b40565b6020026020010151115b1561065357898161ffff168151811061064157610641610b40565b602002602001015192508061ffff1691505b6001016105cf565b50600184828151811061067057610670610b40565b60200260200101901515908115158152505089818151811061069457610694610b40565b6020026020010151868461ffff16815181106106b2576106b2610b40565b60200260200101906001600160a01b031690816001600160a01b0316815250508881815181106106e4576106e4610b40565b6020026020010151858461ffff168151811061070257610702610b40565b602090810291909101015250506001016105bb565b505094509492505050565b60605f805b8361ffff168161ffff16101561076a57848161ffff168151811061074d5761074d610b40565b6020026020010151826107609190610b7f565b9150600101610727565b506001546040805163d1717c7d60e01b815290515f926001600160a01b03169163d1717c7d9160048083019260209291908290030181865afa1580156107b2573d5f5f3e3d5ffd5b505050506040513d601f19601f820116820180604052508101906107d69190610b92565b6107e190600a610c95565b90508361ffff166001600160401b038111156107ff576107ff6109f5565b60405190808252806020026020018201604052801561084357816020015b604080518082019091525f808252602082015281526020019060019003908161081d5790505b5092505f805b8561ffff168161ffff16101561090d575f848463ffffffff16898461ffff168151811061087857610878610b40565b602002602001015161088a9190610ca3565b6108949190610cba565b905060405180604001604052808a8461ffff16815181106108b7576108b7610b40565b60200260200101516001600160a01b031681526020018263ffffffff16815250868361ffff16815181106108ed576108ed610b40565b60209081029190910101526109028184610cd9565b925050600101610849565b508163ffffffff168163ffffffff1610156109605761092c8183610cf5565b845f8151811061093e5761093e610b40565b60200260200101516020018181516109569190610cd9565b63ffffffff169052505b5050509392505050565b5f6020828403121561097a575f5ffd5b81356001600160e01b0319811681146104d6575f5ffd5b5f602082840312156109a1575f5ffd5b813561ffff811681146104d6575f5ffd5b6001600160a01b0391909116815260200190565b6001600160a01b0381168114610313575f5ffd5b5f602082840312156109ea575f5ffd5b81356104d6816109c6565b634e487b7160e01b5f52604160045260245ffd5b8051610a14816109c6565b919050565b5f60208284031215610a29575f5ffd5b81516001600160401b03811115610a3e575f5ffd5b8201601f81018413610a4e575f5ffd5b80516001600160401b03811115610a6757610a676109f5565b604051600582901b90603f8201601f191681016001600160401b0381118282101715610a9557610a956109f5565b604052918252602081840181019290810187841115610ab2575f5ffd5b6020850194505b83851015610ad857610aca85610a09565b815260209485019401610ab9565b509695505050505050565b602080825282518282018190525f918401906040840190835b81811015610b3557835180516001600160a01b0316845260209081015163ffffffff168185015290930192604090920191600101610afc565b509095945050505050565b634e487b7160e01b5f52603260045260245ffd5b5f60208284031215610b64575f5ffd5b5051919050565b634e487b7160e01b5f52601160045260245ffd5b8082018082111561016557610165610b6b565b5f60208284031215610ba2575f5ffd5b815160ff811681146104d6575f5ffd5b6001815b6001841115610bed57808504811115610bd157610bd1610b6b565b6001841615610bdf57908102905b60019390931c928002610bb6565b935093915050565b5f82610c0357506001610165565b81610c0f57505f610165565b8160018114610c255760028114610c2f57610c4b565b6001915050610165565b60ff841115610c4057610c40610b6b565b50506001821b610165565b5060208310610133831016604e8410600b8410161715610c6e575081810a610165565b610c7a5f198484610bb2565b805f1904821115610c8d57610c8d610b6b565b029392505050565b5f6104d660ff841683610bf5565b808202811582820484141761016557610165610b6b565b5f82610cd457634e487b7160e01b5f52601260045260245ffd5b500490565b63ffffffff818116838216019081111561016557610165610b6b565b63ffffffff828116828216039081111561016557610165610b6b56fea2646970667358221220f2a122e34aafa069549112f4f24c5030ce758cfe6f9ed62f8ba88659d266b59164736f6c634300081c0033",
  "linkReferences": {},
  "deployedLinkReferences": {}
}