{
  "_format": "hh-sol-artifact-1",
  "contractName": "KBestTvlWeightedAverage",
  "sourceName": "contracts/strategies/KBestTvlWeightedAverage.sol",
  "abi": [
    {
      "inputs": [
        {
          "internalType": "address",
          "name": "owner",
          "type": "address"
        },
        {
          "internalType": "address",
          "name": "_config",
          "type": "address"
        },
        {
          "internalType": "uint16",
          "name": "_k",
          "type": "uint16"
        }
      ],
      "stateMutability": "nonpayable",
      "type": "constructor"
    },
    {
      "inputs": [],
      "name": "InvalidStrategy",
      "type": "error"
    },
    {
      "inputs": [
        {
          "internalType": "address",
          "name": "owner",
          "type": "address"
        }
      ],
      "name": "OwnableInvalidOwner",
      "type": "error"
    },
    {
      "inputs": [
        {
          "internalType": "address",
          "name": "account",
          "type": "address"
        }
      ],
      "name": "OwnableUnauthorizedAccount",
      "type": "error"
    },
    {
      "inputs": [],
      "name": "ZeroAddress",
      "type": "error"
    },
    {
      "anonymous": false,
      "inputs": [
        {
          "indexed": true,
          "internalType": "address",
          "name": "previousOwner",
          "type": "address"
        },
        {
          "indexed": true,
          "internalType": "address",
          "name": "newOwner",
          "type": "address"
        }
      ],
      "name": "OwnershipTransferred",
      "type": "event"
    },
    {
      "inputs": [
        {
          "internalType": "address[]",
          "name": "vaultWhitelistedAssets",
          "type": "address[]"
        }
      ],
      "name": "computeIntent",
      "outputs": [
        {
          "components": [
            {
              "internalType": "address",
              "name": "token",
              "type": "address"
            },
            {
              "internalType": "uint32",
              "name": "weight",
              "type": "uint32"
            }
          ],
          "internalType": "struct IOrionTransparentVault.IntentPosition[]",
          "name": "intent",
          "type": "tuple[]"
        }
      ],
      "stateMutability": "view",
      "type": "function"
    },
    {
      "inputs": [],
      "name": "config",
      "outputs": [
        {
          "internalType": "contract IOrionConfig",
          "name": "",
          "type": "address"
        }
      ],
      "stateMutability": "view",
      "type": "function"
    },
    {
      "inputs": [],
      "name": "k",
      "outputs": [
        {
          "internalType": "uint16",
          "name": "",
          "type": "uint16"
        }
      ],
      "stateMutability": "view",
      "type": "function"
    },
    {
      "inputs": [],
      "name": "owner",
      "outputs": [
        {
          "internalType": "address",
          "name": "",
          "type": "address"
        }
      ],
      "stateMutability": "view",
      "type": "function"
    },
    {
      "inputs": [],
      "name": "renounceOwnership",
      "outputs": [],
      "stateMutability": "nonpayable",
      "type": "function"
    },
    {
      "inputs": [
        {
          "internalType": "bytes4",
          "name": "interfaceId",
          "type": "bytes4"
        }
      ],
      "name": "supportsInterface",
      "outputs": [
        {
          "internalType": "bool",
          "name": "",
          "type": "bool"
        }
      ],
      "stateMutability": "view",
      "type": "function"
    },
    {
      "inputs": [
        {
          "internalType": "address",
          "name": "newOwner",
          "type": "address"
        }
      ],
      "name": "transferOwnership",
      "outputs": [],
      "stateMutability": "nonpayable",
      "type": "function"
    },
    {
      "inputs": [
        {
          "internalType": "uint16",
          "name": "kNew",
          "type": "uint16"
        }
      ],
      "name": "updateParameters",
      "outputs": [],
      "stateMutability": "nonpayable",
      "type": "function"
    },
    {
      "inputs": [
        {
          "internalType": "address[]",
          "name": "vaultWhitelistedAssets",
          "type": "address[]"
        }
      ],
      "name": "validateStrategy",
      "outputs": [],
      "stateMutability": "view",
      "type": "function"
    }
  ],
  "bytecode": "0x608060405234801561000f575f5ffd5b50604051610feb380380610feb83398101604081905261002e9161012b565b826001600160a01b03811661005c57604051631e4fbdf760e01b81525f600482015260240160405180910390fd5b610065816100c1565b506001600160a01b03821661008d5760405163d92e233d60e01b815260040160405180910390fd5b6001805461ffff909216600160a01b026001600160b01b03199092166001600160a01b039093169290921717905550610175565b5f80546001600160a01b038381166001600160a01b0319831681178455604051919092169283917f8be0079c531659141344cd1fd0a4f28419497f9722a3daafe3b4186f6b6457e09190a35050565b80516001600160a01b0381168114610126575f5ffd5b919050565b5f5f5f6060848603121561013d575f5ffd5b61014684610110565b925061015460208501610110565b9150604084015161ffff8116811461016a575f5ffd5b809150509250925092565b610e69806101825f395ff3fe608060405234801561000f575f5ffd5b5060043610610081575f3560e01c806301ffc9a7146100855780632fc12f41146100ad578063701a8185146100c2578063715018a6146100e257806379502c55146100ea5780638da5cb5b1461010a578063b4f40c6114610112578063c653526b1461013a578063f2fde38b1461014d575b5f5ffd5b610098610093366004610ac2565b610160565b60405190151581526020015b60405180910390f35b6100c06100bb366004610ae9565b610196565b005b6100d56100d0366004610b0a565b6101c0565b6040516100a49190610b79565b6100c061021c565b6001546100fd906001600160a01b031681565b6040516100a49190610bd6565b6100fd61022f565b60015461012790600160a01b900461ffff1681565b60405161ffff90911681526020016100a4565b6100c0610148366004610b0a565b61023d565b6100c061015b366004610bfe565b6103c7565b5f6001600160e01b03198216635b24e9f760e11b148061019057506301ffc9a760e01b6001600160e01b03198316145b92915050565b61019e61040d565b6001805461ffff909216600160a01b0261ffff60a01b19909216919091179055565b6060815f6101cf85838061043f565b6001549091505f906101f09061ffff600160a01b9091048116908516610556565b90505f5f6102018888868887610568565b915091506102108282856107b9565b98975050505050505050565b61022461040d565b61022d5f610a73565b565b5f546001600160a01b031690565b805f805b8261ffff168161ffff1610156103c0575f85858361ffff1681811061026857610268610c19565b905060200201602081019061027d9190610bfe565b9050806001600160a01b03166301e1d1146040518163ffffffff1660e01b8152600401602060405180830381865afa9250505080156102d9575060408051601f3d908101601f191682019092526102d691810190610c2d565b60015b6102f657604051632711b74d60e11b815260040160405180910390fd5b50806001600160a01b03166338d52e0f6040518163ffffffff1660e01b8152600401602060405180830381865afa925050508015610351575060408051601f3d908101601f1916820190925261034e91810190610c44565b60015b61036e57604051632711b74d60e11b815260040160405180910390fd5b6001600160a01b038416610384578093506103b6565b836001600160a01b0316816001600160a01b0316146103b657604051632711b74d60e11b815260040160405180910390fd5b5050600101610241565b5050505050565b6103cf61040d565b6001600160a01b038116610401575f604051631e4fbdf760e01b81526004016103f89190610bd6565b60405180910390fd5b61040a81610a73565b50565b3361041661022f565b6001600160a01b03161461022d573360405163118cdaa760e01b81526004016103f89190610bd6565b60608161ffff166001600160401b0381111561045d5761045d610c5f565b604051908082528060200260200182016040528015610486578160200160208202803683370190505b5090505f5b8261ffff168161ffff16101561054e5784848261ffff168181106104b1576104b1610c19565b90506020020160208101906104c69190610bfe565b6001600160a01b03166301e1d1146040518163ffffffff1660e01b8152600401602060405180830381865afa158015610501573d5f5f3e3d5ffd5b505050506040513d601f19601f820116820180604052508101906105259190610c2d565b828261ffff168151811061053b5761053b610c19565b602090810291909101015260010161048b565b509392505050565b5f8282188284100282185b9392505050565b6060808261ffff166001600160401b0381111561058757610587610c5f565b6040519080825280602002602001820160405280156105b0578160200160208202803683370190505b5091508261ffff166001600160401b038111156105cf576105cf610c5f565b6040519080825280602002602001820160405280156105f8578160200160208202803683370190505b5090505f8461ffff166001600160401b0381111561061857610618610c5f565b604051908082528060200260200182016040528015610641578160200160208202803683370190505b5090505f5b8461ffff168161ffff1610156107ad575f80805b8861ffff168161ffff1610156106e657848161ffff168151811061068057610680610c19565b60200260200101511580156106b15750828a8261ffff16815181106106a7576106a7610c19565b6020026020010151115b156106de57898161ffff16815181106106cc576106cc610c19565b602002602001015192508061ffff1691505b60010161065a565b5060018482815181106106fb576106fb610c19565b911515602092830291909101909101528a8a8281811061071d5761071d610c19565b90506020020160208101906107329190610bfe565b868461ffff168151811061074857610748610c19565b60200260200101906001600160a01b031690816001600160a01b03168152505088818151811061077a5761077a610c19565b6020026020010151858461ffff168151811061079857610798610c19565b60209081029190910101525050600101610646565b50509550959350505050565b60605f805b8361ffff168161ffff16101561080157848161ffff16815181106107e4576107e4610c19565b6020026020010151826107f79190610c87565b91506001016107be565b506001546040805163d1717c7d60e01b815290515f926001600160a01b03169163d1717c7d9160048083019260209291908290030181865afa158015610849573d5f5f3e3d5ffd5b505050506040513d601f19601f8201168201806040525081019061086d9190610c9a565b61087890600a610d9d565b90508361ffff166001600160401b0381111561089657610896610c5f565b6040519080825280602002602001820160405280156108da57816020015b604080518082019091525f80825260208201528152602001906001900390816108b45790505b5092505f805b8561ffff168161ffff1610156109a4575f848463ffffffff16898461ffff168151811061090f5761090f610c19565b60200260200101516109219190610dab565b61092b9190610dc2565b905060405180604001604052808a8461ffff168151811061094e5761094e610c19565b60200260200101516001600160a01b031681526020018263ffffffff16815250868361ffff168151811061098457610984610c19565b60209081029190910101526109998184610de1565b9250506001016108e0565b508163ffffffff168163ffffffff161015610a09576109c38183610dfd565b846109cf600188610e19565b61ffff16815181106109e3576109e3610c19565b60200260200101516020018181516109fb9190610de1565b63ffffffff16905250610a69565b8163ffffffff168163ffffffff161115610a6957610a278282610dfd565b84610a33600188610e19565b61ffff1681518110610a4757610a47610c19565b6020026020010151602001818151610a5f9190610dfd565b63ffffffff169052505b5050509392505050565b5f80546001600160a01b038381166001600160a01b0319831681178455604051919092169283917f8be0079c531659141344cd1fd0a4f28419497f9722a3daafe3b4186f6b6457e09190a35050565b5f60208284031215610ad2575f5ffd5b81356001600160e01b031981168114610561575f5ffd5b5f60208284031215610af9575f5ffd5b813561ffff81168114610561575f5ffd5b5f5f60208385031215610b1b575f5ffd5b82356001600160401b03811115610b30575f5ffd5b8301601f81018513610b40575f5ffd5b80356001600160401b03811115610b55575f5ffd5b8560208260051b8401011115610b69575f5ffd5b6020919091019590945092505050565b602080825282518282018190525f918401906040840190835b81811015610bcb57835180516001600160a01b0316845260209081015163ffffffff168185015290930192604090920191600101610b92565b509095945050505050565b6001600160a01b0391909116815260200190565b6001600160a01b038116811461040a575f5ffd5b5f60208284031215610c0e575f5ffd5b813561056181610bea565b634e487b7160e01b5f52603260045260245ffd5b5f60208284031215610c3d575f5ffd5b5051919050565b5f60208284031215610c54575f5ffd5b815161056181610bea565b634e487b7160e01b5f52604160045260245ffd5b634e487b7160e01b5f52601160045260245ffd5b8082018082111561019057610190610c73565b5f60208284031215610caa575f5ffd5b815160ff81168114610561575f5ffd5b6001815b6001841115610cf557808504811115610cd957610cd9610c73565b6001841615610ce757908102905b60019390931c928002610cbe565b935093915050565b5f82610d0b57506001610190565b81610d1757505f610190565b8160018114610d2d5760028114610d3757610d53565b6001915050610190565b60ff841115610d4857610d48610c73565b50506001821b610190565b5060208310610133831016604e8410600b8410161715610d76575081810a610190565b610d825f198484610cba565b805f1904821115610d9557610d95610c73565b029392505050565b5f61056160ff841683610cfd565b808202811582820484141761019057610190610c73565b5f82610ddc57634e487b7160e01b5f52601260045260245ffd5b500490565b63ffffffff818116838216019081111561019057610190610c73565b63ffffffff828116828216039081111561019057610190610c73565b61ffff828116828216039081111561019057610190610c7356fea2646970667358221220c7cd83a3b774b7218831bfeaad5690786a3d7c99429e6d1b885e1a378fb3c6c664736f6c634300081c0033",
  "linkReferences": {},
  "deployedLinkReferences": {}
}