{
  "_format": "hh-sol-artifact-1",
  "contractName": "KBestTvlWeightedAverage",
  "sourceName": "contracts/strategies/KBestTvlWeightedAverage.sol",
  "abi": [
    {
      "inputs": [
        {
          "internalType": "address",
          "name": "owner",
          "type": "address"
        },
        {
          "internalType": "address",
          "name": "_config",
          "type": "address"
        },
        {
          "internalType": "uint8",
          "name": "_k",
          "type": "uint8"
        }
      ],
      "stateMutability": "nonpayable",
      "type": "constructor"
    },
    {
      "inputs": [],
      "name": "InvalidStrategy",
      "type": "error"
    },
    {
      "inputs": [
        {
          "internalType": "address",
          "name": "owner",
          "type": "address"
        }
      ],
      "name": "OwnableInvalidOwner",
      "type": "error"
    },
    {
      "inputs": [
        {
          "internalType": "address",
          "name": "account",
          "type": "address"
        }
      ],
      "name": "OwnableUnauthorizedAccount",
      "type": "error"
    },
    {
      "inputs": [],
      "name": "ZeroAddress",
      "type": "error"
    },
    {
      "anonymous": false,
      "inputs": [
        {
          "indexed": true,
          "internalType": "address",
          "name": "previousOwner",
          "type": "address"
        },
        {
          "indexed": true,
          "internalType": "address",
          "name": "newOwner",
          "type": "address"
        }
      ],
      "name": "OwnershipTransferred",
      "type": "event"
    },
    {
      "inputs": [
        {
          "internalType": "address[]",
          "name": "vaultWhitelistedAssets",
          "type": "address[]"
        }
      ],
      "name": "computeIntent",
      "outputs": [
        {
          "components": [
            {
              "internalType": "address",
              "name": "token",
              "type": "address"
            },
            {
              "internalType": "uint32",
              "name": "value",
              "type": "uint32"
            }
          ],
          "internalType": "struct IOrionTransparentVault.Position[]",
          "name": "intent",
          "type": "tuple[]"
        }
      ],
      "stateMutability": "view",
      "type": "function"
    },
    {
      "inputs": [],
      "name": "config",
      "outputs": [
        {
          "internalType": "contract IOrionConfig",
          "name": "",
          "type": "address"
        }
      ],
      "stateMutability": "view",
      "type": "function"
    },
    {
      "inputs": [],
      "name": "k",
      "outputs": [
        {
          "internalType": "uint8",
          "name": "",
          "type": "uint8"
        }
      ],
      "stateMutability": "view",
      "type": "function"
    },
    {
      "inputs": [],
      "name": "owner",
      "outputs": [
        {
          "internalType": "address",
          "name": "",
          "type": "address"
        }
      ],
      "stateMutability": "view",
      "type": "function"
    },
    {
      "inputs": [],
      "name": "renounceOwnership",
      "outputs": [],
      "stateMutability": "nonpayable",
      "type": "function"
    },
    {
      "inputs": [
        {
          "internalType": "bytes4",
          "name": "interfaceId",
          "type": "bytes4"
        }
      ],
      "name": "supportsInterface",
      "outputs": [
        {
          "internalType": "bool",
          "name": "",
          "type": "bool"
        }
      ],
      "stateMutability": "view",
      "type": "function"
    },
    {
      "inputs": [
        {
          "internalType": "address",
          "name": "newOwner",
          "type": "address"
        }
      ],
      "name": "transferOwnership",
      "outputs": [],
      "stateMutability": "nonpayable",
      "type": "function"
    },
    {
      "inputs": [
        {
          "internalType": "uint8",
          "name": "kNew",
          "type": "uint8"
        }
      ],
      "name": "updateParameters",
      "outputs": [],
      "stateMutability": "nonpayable",
      "type": "function"
    },
    {
      "inputs": [
        {
          "internalType": "address[]",
          "name": "vaultWhitelistedAssets",
          "type": "address[]"
        }
      ],
      "name": "validateStrategy",
      "outputs": [],
      "stateMutability": "view",
      "type": "function"
    }
  ],
  "bytecode": "0x608060405234801561000f575f5ffd5b50604051610fc6380380610fc683398101604081905261002e9161012a565b826001600160a01b03811661005c57604051631e4fbdf760e01b81525f600482015260240160405180910390fd5b610065816100c0565b506001600160a01b03821661008d5760405163d92e233d60e01b815260040160405180910390fd5b6001805460ff909216600160a01b026001600160a81b03199092166001600160a01b039093169290921717905550610173565b5f80546001600160a01b038381166001600160a01b0319831681178455604051919092169283917f8be0079c531659141344cd1fd0a4f28419497f9722a3daafe3b4186f6b6457e09190a35050565b80516001600160a01b0381168114610125575f5ffd5b919050565b5f5f5f6060848603121561013c575f5ffd5b6101458461010f565b92506101536020850161010f565b9150604084015160ff81168114610168575f5ffd5b809150509250925092565b610e46806101805f395ff3fe608060405234801561000f575f5ffd5b5060043610610081575f3560e01c806301ffc9a714610085578063701a8185146100ad578063715018a6146100cd57806379502c55146100d75780638da5cb5b146100f7578063b4f40c61146100ff578063c653526b14610125578063cbe307a214610138578063f2fde38b1461014b575b5f5ffd5b610098610093366004610a9d565b61015e565b60405190151581526020015b60405180910390f35b6100c06100bb366004610ac4565b610194565b6040516100a49190610b33565b6100d56101ef565b005b6001546100ea906001600160a01b031681565b6040516100a49190610b90565b6100ea610202565b60015461011390600160a01b900460ff1681565b60405160ff90911681526020016100a4565b6100d5610133366004610ac4565b610210565b6100d5610146366004610bb2565b610397565b6100d5610159366004610be1565b6103bf565b5f6001600160e01b03198216635b24e9f760e11b148061018e57506301ffc9a760e01b6001600160e01b03198316145b92915050565b6060815f6101a3858380610405565b6001549091505f906101c39060ff600160a01b9091048116908516610517565b90505f5f6101d48888868887610529565b915091506101e382828561076d565b98975050505050505050565b6101f7610a1c565b6102005f610a4e565b565b5f546001600160a01b031690565b805f805b8260ff168160ff161015610390575f85858360ff1681811061023857610238610bfc565b905060200201602081019061024d9190610be1565b9050806001600160a01b03166301e1d1146040518163ffffffff1660e01b8152600401602060405180830381865afa9250505080156102a9575060408051601f3d908101601f191682019092526102a691810190610c10565b60015b6102c657604051632711b74d60e11b815260040160405180910390fd5b50806001600160a01b03166338d52e0f6040518163ffffffff1660e01b8152600401602060405180830381865afa925050508015610321575060408051601f3d908101601f1916820190925261031e91810190610c27565b60015b61033e57604051632711b74d60e11b815260040160405180910390fd5b6001600160a01b03841661035457809350610386565b836001600160a01b0316816001600160a01b03161461038657604051632711b74d60e11b815260040160405180910390fd5b5050600101610214565b5050505050565b61039f610a1c565b6001805460ff909216600160a01b0260ff60a01b19909216919091179055565b6103c7610a1c565b6001600160a01b0381166103f9575f604051631e4fbdf760e01b81526004016103f09190610b90565b60405180910390fd5b61040281610a4e565b50565b60608160ff166001600160401b0381111561042257610422610c42565b60405190808252806020026020018201604052801561044b578160200160208202803683370190505b5090505f5b8260ff168160ff16101561050f5784848260ff1681811061047357610473610bfc565b90506020020160208101906104889190610be1565b6001600160a01b03166301e1d1146040518163ffffffff1660e01b8152600401602060405180830381865afa1580156104c3573d5f5f3e3d5ffd5b505050506040513d601f19601f820116820180604052508101906104e79190610c10565b828260ff16815181106104fc576104fc610bfc565b6020908102919091010152600101610450565b509392505050565b5f8282188284100282185b9392505050565b6060808260ff166001600160401b0381111561054757610547610c42565b604051908082528060200260200182016040528015610570578160200160208202803683370190505b5091508260ff166001600160401b0381111561058e5761058e610c42565b6040519080825280602002602001820160405280156105b7578160200160208202803683370190505b5090505f8460ff166001600160401b038111156105d6576105d6610c42565b6040519080825280602002602001820160405280156105ff578160200160208202803683370190505b5090505f5b8460ff168160ff161015610761575f80805b8860ff168160ff16101561069c57848160ff168151811061063957610639610bfc565b60200260200101511580156106695750828a8260ff168151811061065f5761065f610bfc565b6020026020010151115b1561069457898160ff168151811061068357610683610bfc565b602002602001015192508060ff1691505b600101610616565b5060018482815181106106b1576106b1610bfc565b911515602092830291909101909101528a8a828181106106d3576106d3610bfc565b90506020020160208101906106e89190610be1565b868460ff16815181106106fd576106fd610bfc565b60200260200101906001600160a01b031690816001600160a01b03168152505088818151811061072f5761072f610bfc565b6020026020010151858460ff168151811061074c5761074c610bfc565b60209081029190910101525050600101610604565b50509550959350505050565b60605f805b8360ff168160ff1610156107b257848160ff168151811061079557610795610bfc565b6020026020010151826107a89190610c6a565b9150600101610772565b506001546040805163d1717c7d60e01b815290515f926001600160a01b03169163d1717c7d9160048083019260209291908290030181865afa1580156107fa573d5f5f3e3d5ffd5b505050506040513d601f19601f8201168201806040525081019061081e9190610c7d565b61082990600a610d7b565b90508360ff166001600160401b0381111561084657610846610c42565b60405190808252806020026020018201604052801561088a57816020015b604080518082019091525f80825260208201528152602001906001900390816108645790505b5092505f805b8560ff168160ff16101561094f575f848463ffffffff16898460ff16815181106108bc576108bc610bfc565b60200260200101516108ce9190610d89565b6108d89190610da0565b905060405180604001604052808a8460ff16815181106108fa576108fa610bfc565b60200260200101516001600160a01b031681526020018263ffffffff16815250868360ff168151811061092f5761092f610bfc565b60209081029190910101526109448184610dbf565b925050600101610890565b508163ffffffff168163ffffffff1610156109b35761096e8183610ddb565b8461097a600188610df7565b60ff168151811061098d5761098d610bfc565b60200260200101516020018181516109a59190610dbf565b63ffffffff16905250610a12565b8163ffffffff168163ffffffff161115610a12576109d18282610ddb565b846109dd600188610df7565b60ff16815181106109f0576109f0610bfc565b6020026020010151602001818151610a089190610ddb565b63ffffffff169052505b5050509392505050565b33610a25610202565b6001600160a01b031614610200573360405163118cdaa760e01b81526004016103f09190610b90565b5f80546001600160a01b038381166001600160a01b0319831681178455604051919092169283917f8be0079c531659141344cd1fd0a4f28419497f9722a3daafe3b4186f6b6457e09190a35050565b5f60208284031215610aad575f5ffd5b81356001600160e01b031981168114610522575f5ffd5b5f5f60208385031215610ad5575f5ffd5b82356001600160401b03811115610aea575f5ffd5b8301601f81018513610afa575f5ffd5b80356001600160401b03811115610b0f575f5ffd5b8560208260051b8401011115610b23575f5ffd5b6020919091019590945092505050565b602080825282518282018190525f918401906040840190835b81811015610b8557835180516001600160a01b0316845260209081015163ffffffff168185015290930192604090920191600101610b4c565b509095945050505050565b6001600160a01b0391909116815260200190565b60ff81168114610402575f5ffd5b5f60208284031215610bc2575f5ffd5b813561052281610ba4565b6001600160a01b0381168114610402575f5ffd5b5f60208284031215610bf1575f5ffd5b813561052281610bcd565b634e487b7160e01b5f52603260045260245ffd5b5f60208284031215610c20575f5ffd5b5051919050565b5f60208284031215610c37575f5ffd5b815161052281610bcd565b634e487b7160e01b5f52604160045260245ffd5b634e487b7160e01b5f52601160045260245ffd5b8082018082111561018e5761018e610c56565b5f60208284031215610c8d575f5ffd5b815161052281610ba4565b6001815b6001841115610cd357808504811115610cb757610cb7610c56565b6001841615610cc557908102905b60019390931c928002610c9c565b935093915050565b5f82610ce95750600161018e565b81610cf557505f61018e565b8160018114610d0b5760028114610d1557610d31565b600191505061018e565b60ff841115610d2657610d26610c56565b50506001821b61018e565b5060208310610133831016604e8410600b8410161715610d54575081810a61018e565b610d605f198484610c98565b805f1904821115610d7357610d73610c56565b029392505050565b5f61052260ff841683610cdb565b808202811582820484141761018e5761018e610c56565b5f82610dba57634e487b7160e01b5f52601260045260245ffd5b500490565b63ffffffff818116838216019081111561018e5761018e610c56565b63ffffffff828116828216039081111561018e5761018e610c56565b60ff828116828216039081111561018e5761018e610c5656fea264697066735822122079e50bed25460372d3fd3e2a2a60a3aac44a43f7c6bc46813e6d62ba3c2d879864736f6c634300081c0033",
  "linkReferences": {},
  "deployedLinkReferences": {}
}