{
  "_format": "hh-sol-artifact-1",
  "contractName": "KBestTvlWeightedAverage",
  "sourceName": "contracts/strategies/KBestTvlWeightedAverage.sol",
  "abi": [
    {
      "inputs": [
        {
          "internalType": "address",
          "name": "owner",
          "type": "address"
        },
        {
          "internalType": "address",
          "name": "_config",
          "type": "address"
        },
        {
          "internalType": "uint16",
          "name": "_k",
          "type": "uint16"
        }
      ],
      "stateMutability": "nonpayable",
      "type": "constructor"
    },
    {
      "inputs": [],
      "name": "OrderIntentCannotBeEmpty",
      "type": "error"
    },
    {
      "inputs": [
        {
          "internalType": "address",
          "name": "owner",
          "type": "address"
        }
      ],
      "name": "OwnableInvalidOwner",
      "type": "error"
    },
    {
      "inputs": [
        {
          "internalType": "address",
          "name": "account",
          "type": "address"
        }
      ],
      "name": "OwnableUnauthorizedAccount",
      "type": "error"
    },
    {
      "inputs": [],
      "name": "ZeroAddress",
      "type": "error"
    },
    {
      "anonymous": false,
      "inputs": [
        {
          "indexed": true,
          "internalType": "address",
          "name": "previousOwner",
          "type": "address"
        },
        {
          "indexed": true,
          "internalType": "address",
          "name": "newOwner",
          "type": "address"
        }
      ],
      "name": "OwnershipTransferred",
      "type": "event"
    },
    {
      "inputs": [],
      "name": "config",
      "outputs": [
        {
          "internalType": "contract IOrionConfig",
          "name": "",
          "type": "address"
        }
      ],
      "stateMutability": "view",
      "type": "function"
    },
    {
      "inputs": [],
      "name": "k",
      "outputs": [
        {
          "internalType": "uint16",
          "name": "",
          "type": "uint16"
        }
      ],
      "stateMutability": "view",
      "type": "function"
    },
    {
      "inputs": [],
      "name": "owner",
      "outputs": [
        {
          "internalType": "address",
          "name": "",
          "type": "address"
        }
      ],
      "stateMutability": "view",
      "type": "function"
    },
    {
      "inputs": [],
      "name": "renounceOwnership",
      "outputs": [],
      "stateMutability": "nonpayable",
      "type": "function"
    },
    {
      "inputs": [
        {
          "internalType": "contract IOrionTransparentVault",
          "name": "vault",
          "type": "address"
        }
      ],
      "name": "submitIntent",
      "outputs": [],
      "stateMutability": "nonpayable",
      "type": "function"
    },
    {
      "inputs": [
        {
          "internalType": "bytes4",
          "name": "interfaceId",
          "type": "bytes4"
        }
      ],
      "name": "supportsInterface",
      "outputs": [
        {
          "internalType": "bool",
          "name": "",
          "type": "bool"
        }
      ],
      "stateMutability": "view",
      "type": "function"
    },
    {
      "inputs": [
        {
          "internalType": "address",
          "name": "newOwner",
          "type": "address"
        }
      ],
      "name": "transferOwnership",
      "outputs": [],
      "stateMutability": "nonpayable",
      "type": "function"
    },
    {
      "inputs": [
        {
          "internalType": "uint16",
          "name": "kNew",
          "type": "uint16"
        }
      ],
      "name": "updateParameters",
      "outputs": [],
      "stateMutability": "nonpayable",
      "type": "function"
    }
  ],
  "bytecode": "0x608060405234801561000f575f5ffd5b50604051610efe380380610efe83398101604081905261002e9161012b565b826001600160a01b03811661005c57604051631e4fbdf760e01b81525f600482015260240160405180910390fd5b610065816100c1565b506001600160a01b03821661008d5760405163d92e233d60e01b815260040160405180910390fd5b6001805461ffff909216600160a01b026001600160b01b03199092166001600160a01b039093169290921717905550610175565b5f80546001600160a01b038381166001600160a01b0319831681178455604051919092169283917f8be0079c531659141344cd1fd0a4f28419497f9722a3daafe3b4186f6b6457e09190a35050565b80516001600160a01b0381168114610126575f5ffd5b919050565b5f5f5f6060848603121561013d575f5ffd5b61014684610110565b925061015460208501610110565b9150604084015161ffff8116811461016a575f5ffd5b809150509250925092565b610d7c806101825f395ff3fe608060405234801561000f575f5ffd5b5060043610610076575f3560e01c806301ffc9a71461007a5780632fc12f41146100a2578063715018a6146100b757806379502c55146100bf5780638da5cb5b146100df5780639d2f7e84146100e7578063b4f40c61146100fa578063f2fde38b14610122575b5f5ffd5b61008d61008836600461099f565b610135565b60405190151581526020015b60405180910390f35b6100b56100b03660046109c6565b61016b565b005b6100b5610195565b6001546100d2906001600160a01b031681565b60405161009991906109e7565b6100d26101a8565b6100b56100f5366004610a0f565b6101b6565b60015461010f90600160a01b900461ffff1681565b60405161ffff9091168152602001610099565b6100b5610130366004610a0f565b610305565b5f6001600160e01b0319821663274bdfa160e21b148061016557506301ffc9a760e01b6001600160e01b03198316145b92915050565b61017361034b565b6001805461ffff909216600160a01b0261ffff60a01b19909216919091179055565b61019d61034b565b6101a65f61037d565b565b5f546001600160a01b031690565b6101be61034b565b600154600160a01b900461ffff165f036101eb57604051631121aa8d60e01b815260040160405180910390fd5b5f816001600160a01b0316634e85b1356040518163ffffffff1660e01b81526004015f60405180830381865afa158015610227573d5f5f3e3d5ffd5b505050506040513d5f823e601f3d908101601f1916820160405261024e9190810190610a4e565b80519091505f61025e83836103cc565b6001549091505f9061027f9061ffff600160a01b9091048116908516610500565b90505f5f61028f86858786610512565b915091505f61029f838386610757565b6040516358debf1760e11b81529091506001600160a01b0389169063b1bd7e2e906102ce908490600401610b18565b5f604051808303815f87803b1580156102e5575f5ffd5b505af11580156102f7573d5f5f3e3d5ffd5b505050505050505050505050565b61030d61034b565b6001600160a01b03811661033f575f604051631e4fbdf760e01b815260040161033691906109e7565b60405180910390fd5b6103488161037d565b50565b336103546101a8565b6001600160a01b0316146101a6573360405163118cdaa760e01b815260040161033691906109e7565b5f80546001600160a01b038381166001600160a01b0319831681178455604051919092169283917f8be0079c531659141344cd1fd0a4f28419497f9722a3daafe3b4186f6b6457e09190a35050565b60608161ffff166001600160401b038111156103ea576103ea610a2a565b604051908082528060200260200182016040528015610413578160200160208202803683370190505b5090505f5b8261ffff168161ffff1610156104f957838161ffff168151811061043e5761043e610b75565b60200260200101516001600160a01b03166301e1d1146040518163ffffffff1660e01b8152600401602060405180830381865afa92505050801561049f575060408051601f3d908101601f1916820190925261049c91810190610b89565b60015b6104cc576001828261ffff16815181106104bb576104bb610b75565b6020026020010181815250506104f1565b80838361ffff16815181106104e3576104e3610b75565b602002602001018181525050505b600101610418565b5092915050565b5f8282188284100282185b9392505050565b6060808261ffff166001600160401b0381111561053157610531610a2a565b60405190808252806020026020018201604052801561055a578160200160208202803683370190505b5091508261ffff166001600160401b0381111561057957610579610a2a565b6040519080825280602002602001820160405280156105a2578160200160208202803683370190505b5090505f8461ffff166001600160401b038111156105c2576105c2610a2a565b6040519080825280602002602001820160405280156105eb578160200160208202803683370190505b5090505f5b8461ffff168161ffff16101561074c575f80805b8861ffff168161ffff16101561069057848161ffff168151811061062a5761062a610b75565b602002602001015115801561065b5750828a8261ffff168151811061065157610651610b75565b6020026020010151115b1561068857898161ffff168151811061067657610676610b75565b602002602001015192508061ffff1691505b600101610604565b5060018482815181106106a5576106a5610b75565b6020026020010190151590811515815250508981815181106106c9576106c9610b75565b6020026020010151868461ffff16815181106106e7576106e7610b75565b60200260200101906001600160a01b031690816001600160a01b03168152505088818151811061071957610719610b75565b6020026020010151858461ffff168151811061073757610737610b75565b602090810291909101015250506001016105f0565b505094509492505050565b60605f805b8361ffff168161ffff16101561079f57848161ffff168151811061078257610782610b75565b6020026020010151826107959190610bb4565b915060010161075c565b506001546040805163d1717c7d60e01b815290515f926001600160a01b03169163d1717c7d9160048083019260209291908290030181865afa1580156107e7573d5f5f3e3d5ffd5b505050506040513d601f19601f8201168201806040525081019061080b9190610bc7565b61081690600a610cca565b90508361ffff166001600160401b0381111561083457610834610a2a565b60405190808252806020026020018201604052801561087857816020015b604080518082019091525f80825260208201528152602001906001900390816108525790505b5092505f805b8561ffff168161ffff161015610942575f848463ffffffff16898461ffff16815181106108ad576108ad610b75565b60200260200101516108bf9190610cd8565b6108c99190610cef565b905060405180604001604052808a8461ffff16815181106108ec576108ec610b75565b60200260200101516001600160a01b031681526020018263ffffffff16815250868361ffff168151811061092257610922610b75565b60209081029190910101526109378184610d0e565b92505060010161087e565b508163ffffffff168163ffffffff161015610995576109618183610d2a565b845f8151811061097357610973610b75565b602002602001015160200181815161098b9190610d0e565b63ffffffff169052505b5050509392505050565b5f602082840312156109af575f5ffd5b81356001600160e01b03198116811461050b575f5ffd5b5f602082840312156109d6575f5ffd5b813561ffff8116811461050b575f5ffd5b6001600160a01b0391909116815260200190565b6001600160a01b0381168114610348575f5ffd5b5f60208284031215610a1f575f5ffd5b813561050b816109fb565b634e487b7160e01b5f52604160045260245ffd5b8051610a49816109fb565b919050565b5f60208284031215610a5e575f5ffd5b81516001600160401b03811115610a73575f5ffd5b8201601f81018413610a83575f5ffd5b80516001600160401b03811115610a9c57610a9c610a2a565b604051600582901b90603f8201601f191681016001600160401b0381118282101715610aca57610aca610a2a565b604052918252602081840181019290810187841115610ae7575f5ffd5b6020850194505b83851015610b0d57610aff85610a3e565b815260209485019401610aee565b509695505050505050565b602080825282518282018190525f918401906040840190835b81811015610b6a57835180516001600160a01b0316845260209081015163ffffffff168185015290930192604090920191600101610b31565b509095945050505050565b634e487b7160e01b5f52603260045260245ffd5b5f60208284031215610b99575f5ffd5b5051919050565b634e487b7160e01b5f52601160045260245ffd5b8082018082111561016557610165610ba0565b5f60208284031215610bd7575f5ffd5b815160ff8116811461050b575f5ffd5b6001815b6001841115610c2257808504811115610c0657610c06610ba0565b6001841615610c1457908102905b60019390931c928002610beb565b935093915050565b5f82610c3857506001610165565b81610c4457505f610165565b8160018114610c5a5760028114610c6457610c80565b6001915050610165565b60ff841115610c7557610c75610ba0565b50506001821b610165565b5060208310610133831016604e8410600b8410161715610ca3575081810a610165565b610caf5f198484610be7565b805f1904821115610cc257610cc2610ba0565b029392505050565b5f61050b60ff841683610c2a565b808202811582820484141761016557610165610ba0565b5f82610d0957634e487b7160e01b5f52601260045260245ffd5b500490565b63ffffffff818116838216019081111561016557610165610ba0565b63ffffffff828116828216039081111561016557610165610ba056fea264697066735822122082c1c539b7f6cfd4bceb2f62fc624732a63b2ac89221a075091b2b2c36989a6a64736f6c634300081c0033",
  "linkReferences": {},
  "deployedLinkReferences": {}
}