{
  "_format": "hh-sol-artifact-1",
  "contractName": "KBestTvlWeightedAverage",
  "sourceName": "contracts/strategies/KBestTvlWeightedAverage.sol",
  "abi": [
    {
      "inputs": [
        {
          "internalType": "address",
          "name": "owner",
          "type": "address"
        },
        {
          "internalType": "address",
          "name": "_config",
          "type": "address"
        },
        {
          "internalType": "uint16",
          "name": "_k",
          "type": "uint16"
        }
      ],
      "stateMutability": "nonpayable",
      "type": "constructor"
    },
    {
      "inputs": [],
      "name": "OrderIntentCannotBeEmpty",
      "type": "error"
    },
    {
      "inputs": [
        {
          "internalType": "address",
          "name": "owner",
          "type": "address"
        }
      ],
      "name": "OwnableInvalidOwner",
      "type": "error"
    },
    {
      "inputs": [
        {
          "internalType": "address",
          "name": "account",
          "type": "address"
        }
      ],
      "name": "OwnableUnauthorizedAccount",
      "type": "error"
    },
    {
      "inputs": [],
      "name": "ZeroAddress",
      "type": "error"
    },
    {
      "anonymous": false,
      "inputs": [
        {
          "indexed": true,
          "internalType": "address",
          "name": "previousOwner",
          "type": "address"
        },
        {
          "indexed": true,
          "internalType": "address",
          "name": "newOwner",
          "type": "address"
        }
      ],
      "name": "OwnershipTransferStarted",
      "type": "event"
    },
    {
      "anonymous": false,
      "inputs": [
        {
          "indexed": true,
          "internalType": "address",
          "name": "previousOwner",
          "type": "address"
        },
        {
          "indexed": true,
          "internalType": "address",
          "name": "newOwner",
          "type": "address"
        }
      ],
      "name": "OwnershipTransferred",
      "type": "event"
    },
    {
      "inputs": [],
      "name": "acceptOwnership",
      "outputs": [],
      "stateMutability": "nonpayable",
      "type": "function"
    },
    {
      "inputs": [],
      "name": "config",
      "outputs": [
        {
          "internalType": "contract IOrionConfig",
          "name": "",
          "type": "address"
        }
      ],
      "stateMutability": "view",
      "type": "function"
    },
    {
      "inputs": [],
      "name": "k",
      "outputs": [
        {
          "internalType": "uint16",
          "name": "",
          "type": "uint16"
        }
      ],
      "stateMutability": "view",
      "type": "function"
    },
    {
      "inputs": [],
      "name": "owner",
      "outputs": [
        {
          "internalType": "address",
          "name": "",
          "type": "address"
        }
      ],
      "stateMutability": "view",
      "type": "function"
    },
    {
      "inputs": [],
      "name": "pendingOwner",
      "outputs": [
        {
          "internalType": "address",
          "name": "",
          "type": "address"
        }
      ],
      "stateMutability": "view",
      "type": "function"
    },
    {
      "inputs": [],
      "name": "renounceOwnership",
      "outputs": [],
      "stateMutability": "nonpayable",
      "type": "function"
    },
    {
      "inputs": [
        {
          "internalType": "contract IOrionTransparentVault",
          "name": "vault",
          "type": "address"
        }
      ],
      "name": "submitIntent",
      "outputs": [],
      "stateMutability": "nonpayable",
      "type": "function"
    },
    {
      "inputs": [
        {
          "internalType": "bytes4",
          "name": "interfaceId",
          "type": "bytes4"
        }
      ],
      "name": "supportsInterface",
      "outputs": [
        {
          "internalType": "bool",
          "name": "",
          "type": "bool"
        }
      ],
      "stateMutability": "view",
      "type": "function"
    },
    {
      "inputs": [
        {
          "internalType": "address",
          "name": "newOwner",
          "type": "address"
        }
      ],
      "name": "transferOwnership",
      "outputs": [],
      "stateMutability": "nonpayable",
      "type": "function"
    },
    {
      "inputs": [
        {
          "internalType": "uint16",
          "name": "kNew",
          "type": "uint16"
        }
      ],
      "name": "updateParameters",
      "outputs": [],
      "stateMutability": "nonpayable",
      "type": "function"
    }
  ],
  "bytecode": "0x608060405234801561000f575f5ffd5b50604051610fd0380380610fd083398101604081905261002e91610147565b826001600160a01b03811661005c57604051631e4fbdf760e01b81525f600482015260240160405180910390fd5b610065816100c1565b506001600160a01b03821661008d5760405163d92e233d60e01b815260040160405180910390fd5b6002805461ffff909216600160a01b026001600160b01b03199092166001600160a01b039093169290921717905550610191565b600180546001600160a01b03191690556100da816100dd565b50565b5f80546001600160a01b038381166001600160a01b0319831681178455604051919092169283917f8be0079c531659141344cd1fd0a4f28419497f9722a3daafe3b4186f6b6457e09190a35050565b80516001600160a01b0381168114610142575f5ffd5b919050565b5f5f5f60608486031215610159575f5ffd5b6101628461012c565b92506101706020850161012c565b9150604084015161ffff81168114610186575f5ffd5b809150509250925092565b610e328061019e5f395ff3fe608060405234801561000f575f5ffd5b506004361061008c575f3560e01c806301ffc9a7146100905780632fc12f41146100b8578063715018a6146100cd57806379502c55146100d557806379ba5097146100f55780638da5cb5b146100fd5780639d2f7e8414610105578063b4f40c6114610118578063e30c397814610140578063f2fde38b14610148575b5f5ffd5b6100a361009e366004610a55565b61015b565b60405190151581526020015b60405180910390f35b6100cb6100c6366004610a7c565b610191565b005b6100cb6101bb565b6002546100e8906001600160a01b031681565b6040516100af9190610a9d565b6100cb6101ce565b6100e8610216565b6100cb610113366004610ac5565b610224565b60025461012d90600160a01b900461ffff1681565b60405161ffff90911681526020016100af565b6100e8610373565b6100cb610156366004610ac5565b610382565b5f6001600160e01b0319821663274bdfa160e21b148061018b57506301ffc9a760e01b6001600160e01b03198316145b92915050565b6101996103e8565b6002805461ffff909216600160a01b0261ffff60a01b19909216919091179055565b6101c36103e8565b6101cc5f61041a565b565b33806101d8610373565b6001600160a01b03161461020a578060405163118cdaa760e01b81526004016102019190610a9d565b60405180910390fd5b6102138161041a565b50565b5f546001600160a01b031690565b61022c6103e8565b600254600160a01b900461ffff165f0361025957604051631121aa8d60e01b815260040160405180910390fd5b5f816001600160a01b0316634e85b1356040518163ffffffff1660e01b81526004015f60405180830381865afa158015610295573d5f5f3e3d5ffd5b505050506040513d5f823e601f3d908101601f191682016040526102bc9190810190610b04565b80519091505f6102cc8383610433565b6002549091505f906102ed9061ffff600160a01b9091048116908516610567565b90505f5f6102fd86858786610579565b915091505f61030d8383866107be565b6040516358debf1760e11b81529091506001600160a01b0389169063b1bd7e2e9061033c908490600401610bce565b5f604051808303815f87803b158015610353575f5ffd5b505af1158015610365573d5f5f3e3d5ffd5b505050505050505050505050565b6001546001600160a01b031690565b61038a6103e8565b600180546001600160a01b0319166001600160a01b0383169081179091556103b0610216565b6001600160a01b03167f38d16b8cac22d99fc7c124b9cd0de2d3fa1faef420bfe791d8c362d765e2270060405160405180910390a350565b336103f1610216565b6001600160a01b0316146101cc573360405163118cdaa760e01b81526004016102019190610a9d565b600180546001600160a01b031916905561021381610a06565b60608161ffff166001600160401b0381111561045157610451610ae0565b60405190808252806020026020018201604052801561047a578160200160208202803683370190505b5090505f5b8261ffff168161ffff16101561056057838161ffff16815181106104a5576104a5610c2b565b60200260200101516001600160a01b03166301e1d1146040518163ffffffff1660e01b8152600401602060405180830381865afa925050508015610506575060408051601f3d908101601f1916820190925261050391810190610c3f565b60015b610533576001828261ffff168151811061052257610522610c2b565b602002602001018181525050610558565b80838361ffff168151811061054a5761054a610c2b565b602002602001018181525050505b60010161047f565b5092915050565b5f8282188284100282185b9392505050565b6060808261ffff166001600160401b0381111561059857610598610ae0565b6040519080825280602002602001820160405280156105c1578160200160208202803683370190505b5091508261ffff166001600160401b038111156105e0576105e0610ae0565b604051908082528060200260200182016040528015610609578160200160208202803683370190505b5090505f8461ffff166001600160401b0381111561062957610629610ae0565b604051908082528060200260200182016040528015610652578160200160208202803683370190505b5090505f5b8461ffff168161ffff1610156107b3575f80805b8861ffff168161ffff1610156106f757848161ffff168151811061069157610691610c2b565b60200260200101511580156106c25750828a8261ffff16815181106106b8576106b8610c2b565b6020026020010151115b156106ef57898161ffff16815181106106dd576106dd610c2b565b602002602001015192508061ffff1691505b60010161066b565b50600184828151811061070c5761070c610c2b565b60200260200101901515908115158152505089818151811061073057610730610c2b565b6020026020010151868461ffff168151811061074e5761074e610c2b565b60200260200101906001600160a01b031690816001600160a01b03168152505088818151811061078057610780610c2b565b6020026020010151858461ffff168151811061079e5761079e610c2b565b60209081029190910101525050600101610657565b505094509492505050565b60605f805b8361ffff168161ffff16101561080657848161ffff16815181106107e9576107e9610c2b565b6020026020010151826107fc9190610c6a565b91506001016107c3565b506002546040805163d1717c7d60e01b815290515f926001600160a01b03169163d1717c7d9160048083019260209291908290030181865afa15801561084e573d5f5f3e3d5ffd5b505050506040513d601f19601f820116820180604052508101906108729190610c7d565b61087d90600a610d80565b90508361ffff166001600160401b0381111561089b5761089b610ae0565b6040519080825280602002602001820160405280156108df57816020015b604080518082019091525f80825260208201528152602001906001900390816108b95790505b5092505f805b8561ffff168161ffff1610156109a9575f848463ffffffff16898461ffff168151811061091457610914610c2b565b60200260200101516109269190610d8e565b6109309190610da5565b905060405180604001604052808a8461ffff168151811061095357610953610c2b565b60200260200101516001600160a01b031681526020018263ffffffff16815250868361ffff168151811061098957610989610c2b565b602090810291909101015261099e8184610dc4565b9250506001016108e5565b508163ffffffff168163ffffffff1610156109fc576109c88183610de0565b845f815181106109da576109da610c2b565b60200260200101516020018181516109f29190610dc4565b63ffffffff169052505b5050509392505050565b5f80546001600160a01b038381166001600160a01b0319831681178455604051919092169283917f8be0079c531659141344cd1fd0a4f28419497f9722a3daafe3b4186f6b6457e09190a35050565b5f60208284031215610a65575f5ffd5b81356001600160e01b031981168114610572575f5ffd5b5f60208284031215610a8c575f5ffd5b813561ffff81168114610572575f5ffd5b6001600160a01b0391909116815260200190565b6001600160a01b0381168114610213575f5ffd5b5f60208284031215610ad5575f5ffd5b813561057281610ab1565b634e487b7160e01b5f52604160045260245ffd5b8051610aff81610ab1565b919050565b5f60208284031215610b14575f5ffd5b81516001600160401b03811115610b29575f5ffd5b8201601f81018413610b39575f5ffd5b80516001600160401b03811115610b5257610b52610ae0565b604051600582901b90603f8201601f191681016001600160401b0381118282101715610b8057610b80610ae0565b604052918252602081840181019290810187841115610b9d575f5ffd5b6020850194505b83851015610bc357610bb585610af4565b815260209485019401610ba4565b509695505050505050565b602080825282518282018190525f918401906040840190835b81811015610c2057835180516001600160a01b0316845260209081015163ffffffff168185015290930192604090920191600101610be7565b509095945050505050565b634e487b7160e01b5f52603260045260245ffd5b5f60208284031215610c4f575f5ffd5b5051919050565b634e487b7160e01b5f52601160045260245ffd5b8082018082111561018b5761018b610c56565b5f60208284031215610c8d575f5ffd5b815160ff81168114610572575f5ffd5b6001815b6001841115610cd857808504811115610cbc57610cbc610c56565b6001841615610cca57908102905b60019390931c928002610ca1565b935093915050565b5f82610cee5750600161018b565b81610cfa57505f61018b565b8160018114610d105760028114610d1a57610d36565b600191505061018b565b60ff841115610d2b57610d2b610c56565b50506001821b61018b565b5060208310610133831016604e8410600b8410161715610d59575081810a61018b565b610d655f198484610c9d565b805f1904821115610d7857610d78610c56565b029392505050565b5f61057260ff841683610ce0565b808202811582820484141761018b5761018b610c56565b5f82610dbf57634e487b7160e01b5f52601260045260245ffd5b500490565b63ffffffff818116838216019081111561018b5761018b610c56565b63ffffffff828116828216039081111561018b5761018b610c5656fea264697066735822122091439eb886736a7c3f1bbb9fa48bd7148d1c535ac936b17cf4184e5dd601a09164736f6c634300081c0033",
  "linkReferences": {},
  "deployedLinkReferences": {}
}