{
  "_format": "hh-sol-artifact-1",
  "contractName": "VaultImplementations",
  "sourceName": "contracts/helpers/VaultImplementations.sol",
  "abi": [
    {
      "inputs": [],
      "stateMutability": "nonpayable",
      "type": "constructor"
    },
    {
      "inputs": [],
      "name": "encryptedVaultImplementation",
      "outputs": [
        {
          "internalType": "address",
          "name": "",
          "type": "address"
        }
      ],
      "stateMutability": "view",
      "type": "function"
    },
    {
      "inputs": [],
      "name": "transparentVaultImplementation",
      "outputs": [
        {
          "internalType": "address",
          "name": "",
          "type": "address"
        }
      ],
      "stateMutability": "view",
      "type": "function"
    }
  ],
  "bytecode": "0x60c0604052348015600e575f80fd5b506040516019906071565b604051809103905ff0801580156031573d5f803e3d5ffd5b506001600160a01b0316608052604051604890607e565b604051809103905ff0801580156060573d5f803e3d5ffd5b506001600160a01b031660a052608b565b61325c8061017a83390190565b61311a806133d683390190565b60805160a05160d26100a85f395f607a01525f6038015260d25ff3fe6080604052348015600e575f80fd5b50600436106030575f3560e01c806310e43b2d1460345780639c6aac95146076575b5f80fd5b605a7f000000000000000000000000000000000000000000000000000000000000000081565b6040516001600160a01b03909116815260200160405180910390f35b605a7f00000000000000000000000000000000000000000000000000000000000000008156fea2646970667358221220023cca60c1ff95bfa21645f33ecd14663f822e78bdc845cb6edc1f53e76780e364736f6c634300081a003360a0604052306080523480156012575f80fd5b506080516132236100395f395f8181611d1c01528181611d450152611ea701526132235ff3fe60806040526004361061028b575f3560e01c80638726972911610155578063c63d75b6116100be578063dd62ed3e11610078578063dd62ed3e1461073f578063e30c39781461075e578063e66f53b714610772578063ef8b30f714610791578063f2fde38b146107b0578063fb12251b146107cf575f80fd5b8063c63d75b614610476578063c6e6f592146106af578063ce96cb77146106ce578063d1699c26146106ed578063d5f3948814610701578063d905777e14610720575f80fd5b8063ad3cb1cc1161010f578063ad3cb1cc146105ef578063b3d7f6b91461061f578063b460af941461063e578063ba0876521461065d578063c37fc8a81461067c578063c38fe2f214610690575f80fd5b8063872697291461057f5780638da5cb5b1461059457806394bf804d146104dc57806395d89b41146105a8578063a9059cbb146105bc578063aa9d3a60146105db575f80fd5b806333fdc592116101f75780636e553f65116101b15780636e553f65146104dc57806370a08231146104fb578063715018a61461051a578063745400c91461052e57806379502c551461054d57806379ba50971461056b575f80fd5b806333fdc5921461043657806338d52e0f1461044a578063402d267d146104765780634cdad506146104965780634f1ef286146104b557806352d1902d146104c8575f80fd5b806316b602491161024857806316b60249146103615780631765b3131461038057806318160ddd1461039f5780632016a0d2146103d257806323b872dd146103f1578063313ce56714610410575f80fd5b806301e1d1141461028f57806306fdde03146102b257806307a2d13a146102d3578063095ea7b3146102f25780630a28a477146103215780630d1e666714610340575b5f80fd5b34801561029a575f80fd5b506004545b6040519081526020015b60405180910390f35b3480156102bd575f80fd5b506102c66107ee565b6040516102a99190612a4b565b3480156102de575f80fd5b5061029f6102ed366004612a80565b6108ae565b3480156102fd575f80fd5b5061031161030c366004612aab565b6108d8565b60405190151581526020016102a9565b34801561032c575f80fd5b5061029f61033b366004612a80565b6108ef565b34801561034b575f80fd5b5061035f61035a366004612a80565b6108fb565b005b34801561036c575f80fd5b5061035f61037b366004612a80565b610a82565b34801561038b575f80fd5b5061035f61039a366004612a80565b610b4a565b3480156103aa575f80fd5b507f52c63247e1f47db19d5ce0460030c497f067ca4cebf71ba98eeadabe20bace025461029f565b3480156103dd575f80fd5b5061035f6103ec366004612b7e565b610bf2565b3480156103fc575f80fd5b5061031161040b366004612c07565b610cf1565b34801561041b575f80fd5b50610424610d16565b60405160ff90911681526020016102a9565b348015610441575f80fd5b5061035f610d58565b348015610455575f80fd5b5061045e610ee9565b6040516001600160a01b0390911681526020016102a9565b348015610481575f80fd5b5061029f610490366004612c45565b505f1990565b3480156104a1575f80fd5b5061029f6104b0366004612a80565b610f1d565b61035f6104c3366004612c60565b610f28565b3480156104d3575f80fd5b5061029f610f47565b3480156104e7575f80fd5b5061029f6104f6366004612cc0565b610f62565b348015610506575f80fd5b5061029f610515366004612c45565b610f7c565b348015610525575f80fd5b5061035f610fa2565b348015610539575f80fd5b5061035f610548366004612a80565b610fb3565b348015610558575f80fd5b505f5461045e906001600160a01b031681565b348015610576575f80fd5b5061035f6110b5565b34801561058a575f80fd5b5061029f60035481565b34801561059f575f80fd5b5061045e6110fd565b3480156105b3575f80fd5b506102c6611125565b3480156105c7575f80fd5b506103116105d6366004612aab565b611163565b3480156105e6575f80fd5b5061035f611170565b3480156105fa575f80fd5b506102c6604051806040016040528060058152602001640352e302e360dc1b81525081565b34801561062a575f80fd5b5061029f610639366004612a80565b61136d565b348015610649575f80fd5b5061029f610658366004612cee565b611379565b348015610668575f80fd5b5061029f610677366004612cee565b611392565b348015610687575f80fd5b5061029f6113ac565b34801561069b575f80fd5b5061035f6106aa366004612d2d565b6113ec565b3480156106ba575f80fd5b5061029f6106c9366004612a80565b6114ff565b3480156106d9575f80fd5b5061029f6106e8366004612c45565b611518565b3480156106f8575f80fd5b5061029f61152b565b34801561070c575f80fd5b5060025461045e906001600160a01b031681565b34801561072b575f80fd5b5061029f61073a366004612c45565b611565565b34801561074a575f80fd5b5061029f610759366004612d56565b61156f565b348015610769575f80fd5b5061045e6115b8565b34801561077d575f80fd5b5060015461045e906001600160a01b031681565b34801561079c575f80fd5b5061029f6107ab366004612a80565b6115e0565b3480156107bb575f80fd5b5061035f6107ca366004612c45565b6115eb565b3480156107da575f80fd5b5061035f6107e9366004612d82565b611670565b7f52c63247e1f47db19d5ce0460030c497f067ca4cebf71ba98eeadabe20bace0380546060915f805160206131ae8339815191529161082c90612df3565b80601f016020809104026020016040519081016040528092919081815260200182805461085890612df3565b80156108a35780601f1061087a576101008083540402835291602001916108a3565b820191905f5260205f20905b81548152906001019060200180831161088657829003601f168201915b505050505091505090565b5f6108b7610d16565b60ff16600354836108c89190612e39565b6108d29190612e64565b92915050565b5f336108e5818585611920565b5060019392505050565b5f6108d2826001611932565b805f036109345761090a610ee9565b604051636b30633560e01b81526001600160a01b0390911660048201526024015b60405180910390fd5b5f80610941600533611984565b915091505f821561096a576109633361095a8685612e77565b600591906119aa565b9050610979565b610976600533866119aa565b90505b8061099757604051637732292d60e01b815260040160405180910390fd5b5f6109a0610ee9565b6040516323b872dd60e01b8152336004820152306024820152604481018790526001600160a01b0391909116906323b872dd906064016020604051808303815f875af11580156109f2573d5f803e3d5ffd5b505050506040513d601f19601f82011682018060405250810190610a169190612e8a565b905080610a36576040516312171d8360e31b815260040160405180910390fd5b337f03979a8c481a9e9c06938045cfd5c28535255cb003b10a8fe84ebb3cb4d440f286610a6360056119c7565b6040805192835260208301919091520160405180910390a25050505050565b5f8054906101000a90046001600160a01b03166001600160a01b031663348ec5c86040518163ffffffff1660e01b8152600401602060405180830381865afa158015610ad0573d5f803e3d5ffd5b505050506040513d601f19601f82011682018060405250810190610af49190612ea9565b6001600160a01b0316336001600160a01b031614610b255760405163efb380d960e01b815260040160405180910390fd5b805f03610b4557604051634dfba02360e01b815260040160405180910390fd5b600355565b5f8054906101000a90046001600160a01b03166001600160a01b031663348ec5c86040518163ffffffff1660e01b8152600401602060405180830381865afa158015610b98573d5f803e3d5ffd5b505050506040513d601f19601f82011682018060405250810190610bbc9190612ea9565b6001600160a01b0316336001600160a01b031614610bed5760405163efb380d960e01b815260040160405180910390fd5b600455565b5f610bfb6119d1565b805490915060ff600160401b820416159067ffffffffffffffff165f81158015610c225750825b90505f8267ffffffffffffffff166001148015610c3e5750303b155b905081158015610c4c575080155b15610c6a5760405163f92ee8a960e01b815260040160405180910390fd5b845467ffffffffffffffff191660011785558315610c9457845460ff60401b1916600160401b1785555b610ca0898989896119f9565b8315610ce657845460ff60401b19168555604051600181527fc7f505b2f371ae2175ee4913f4499e1f2633a7b5936321eed1cdaeb6115181d29060200160405180910390a15b505050505050505050565b5f33610cfe858285611b3b565b610d09858585611b9f565b60019150505b9392505050565b5f807f0773e532dfede91f04b12a73d3d2acd361424f41f76b4fb79f090161e36b4e0090505f8154610d529190600160a01b900460ff16612ec4565b91505090565b5f8054906101000a90046001600160a01b03166001600160a01b0316633a0dad8e6040518163ffffffff1660e01b8152600401602060405180830381865afa158015610da6573d5f803e3d5ffd5b505050506040513d601f19601f82011682018060405250810190610dca9190612ea9565b6001600160a01b0316336001600160a01b031614610dfb57604051631af2ab4f60e31b815260040160405180910390fd5b610e03611bfc565b5f5b610e0f60056119c7565b811015610ebd575f80610e23600584611c46565b915091505f610e31826115e0565b90505f610e3f600585611c54565b905080610e5f57604051637732292d60e01b815260040160405180910390fd5b610e698483611c68565b60408051848152602081018790526001600160a01b038616917f782ea2005b7f873a0190a1ccb553c732171348d6e16d2b7d3d493c0677dc296e910160405180910390a2505060019092019150610e059050565b50610ee760017f9b779b17422d0df92223018b32b4d1fa46e071723d6817e2486d003becc55f0055565b565b5f807f0773e532dfede91f04b12a73d3d2acd361424f41f76b4fb79f090161e36b4e005b546001600160a01b031692915050565b5f6108d2825f611cc2565b610f30611d11565b610f3982611db5565b610f438282611de0565b5050565b5f610f50611e9c565b505f805160206131ce83398151915290565b5f6040516318f2e47360e11b815260040160405180910390fd5b6001600160a01b03165f9081525f805160206131ae833981519152602052604090205490565b610faa611ee5565b610ee75f611f17565b805f03610fd3576040516314e6cbb960e11b815260040160405180910390fd5b80610fdd33610f7c565b1015610ffc57604051633c57b48560e21b815260040160405180910390fd5b5f80611009600833611984565b915091505f82156110325761102b336110228685612e77565b600891906119aa565b9050611041565b61103e600833866119aa565b90505b8061105f57604051630d6600c560e01b815260040160405180910390fd5b61106a333086611b9f565b337fd72eb5d043f24a0168ae744d5c44f9596fd673a26bf74d9646bff4b844882d148561109760086119c7565b6040805192835260208301919091520160405180910390a250505050565b33806110bf6115b8565b6001600160a01b0316146110f15760405163118cdaa760e01b81526001600160a01b038216600482015260240161092b565b6110fa81611f17565b50565b5f807f9016d09d72d40fdae2fd8ceac6b6234c7706214fd39c1cd1e609a0528c199300610f0d565b7f52c63247e1f47db19d5ce0460030c497f067ca4cebf71ba98eeadabe20bace0480546060915f805160206131ae8339815191529161082c90612df3565b5f336108e5818585611b9f565b5f8054906101000a90046001600160a01b03166001600160a01b0316633a0dad8e6040518163ffffffff1660e01b8152600401602060405180830381865afa1580156111be573d5f803e3d5ffd5b505050506040513d601f19601f820116820180604052508101906111e29190612ea9565b6001600160a01b0316336001600160a01b03161461121357604051631af2ab4f60e31b815260040160405180910390fd5b61121b611bfc565b5f5b61122760086119c7565b811015610ebd575f8061123b600884611c46565b90925090505f61124c600884611c54565b90508061126c57604051630d6600c560e01b815260040160405180910390fd5b6112763083611f4f565b5f61128083610f1d565b905061128a610ee9565b60405163a9059cbb60e01b81526001600160a01b03868116600483015260248201849052919091169063a9059cbb906044016020604051808303815f875af11580156112d8573d5f803e3d5ffd5b505050506040513d601f19601f820116820180604052508101906112fc9190612e8a565b611319576040516312171d8360e31b815260040160405180910390fd5b60408051848152602081018790526001600160a01b038616917febad37b830b1857ef9af5983fc20dc0ded12dc472ba1e22e06fd3a9465b4506c910160405180910390a250506001909201915061121d9050565b5f6108d2826001611cc2565b5f604051628a595160e01b815260040160405180910390fd5b5f604051630ad8521960e31b815260040160405180910390fd5b5f80805b6113ba60086119c7565b8110156113e6575f6113cd600883611c46565b91506113db90508184612e77565b9250506001016113b0565b50919050565b5f8054906101000a90046001600160a01b03166001600160a01b031663348ec5c86040518163ffffffff1660e01b8152600401602060405180830381865afa15801561143a573d5f803e3d5ffd5b505050506040513d601f19601f8201168201806040525081019061145e9190612ea9565b6001600160a01b0316336001600160a01b03161461148f5760405163efb380d960e01b815260040160405180910390fd5b825f036114af57604051634dfba02360e01b815260040160405180910390fd5b6003839055600482905560408051848152602081018490529081018290527f22d59af29033337bec0a35c65d874599f3ea66c941052de217150498e780eb199060600160405180910390a1505050565b5f60035461150b610d16565b6108c89060ff1684612e39565b5f6108d261152583610f7c565b5f611cc2565b5f80805b61153960056119c7565b8110156113e6575f61154c600583611c46565b915061155a90508184612e77565b92505060010161152f565b5f6108d282610f7c565b6001600160a01b039182165f9081527f52c63247e1f47db19d5ce0460030c497f067ca4cebf71ba98eeadabe20bace016020908152604080832093909416825291909152205490565b5f807f237e158222e3e6968b72b9db0d8043aacf074ad9f650f0d1606b4d82ee432c00610f0d565b5f6108d2825f611932565b6115f3611ee5565b7f237e158222e3e6968b72b9db0d8043aacf074ad9f650f0d1606b4d82ee432c0080546001600160a01b0319166001600160a01b03831690811782556116376110fd565b6001600160a01b03167f38d16b8cac22d99fc7c124b9cd0de2d3fa1faef420bfe791d8c362d765e2270060405160405180910390a35050565b6001546001600160a01b0316331461169b576040516356b381a560e01b815260040160405180910390fd5b5f8190036116bc57604051631121aa8d60e01b815260040160405180910390fd5b6116c6600b611f83565b5f805b8281101561184f575f8484838181106116e4576116e4612edd565b6116fa9260206040909202019081019150612c45565b90505f85858481811061170f5761170f612edd565b90506040020160200160208101906117279190612ef1565b5f54604051633af32abf60e01b81526001600160a01b038581166004830152929350911690633af32abf90602401602060405180830381865afa158015611770573d5f803e3d5ffd5b505050506040513d601f19601f820116820180604052508101906117949190612e8a565b6117bc5760405163751dff9760e11b81526001600160a01b038316600482015260240161092b565b8063ffffffff165f036117ed57604051636b30633560e01b81526001600160a01b038316600482015260240161092b565b5f611803600b8463ffffffff808616906119aa16565b90508061182e576040516346bdabe160e01b81526001600160a01b038416600482015260240161092b565b61183e63ffffffff831686612e77565b945050600190920191506116c99050565b505f805f9054906101000a90046001600160a01b03166001600160a01b031663d1717c7d6040518163ffffffff1660e01b8152600401602060405180830381865afa1580156118a0573d5f803e3d5ffd5b505050506040513d601f19601f820116820180604052508101906118c49190612f14565b90506118d181600a613017565b82146118f0576040516324204a3560e21b815260040160405180910390fd5b60405133907f2d47a742b8d7df7c1fc5a9a631b206b364e6cb2722490759f63bb3ab14b132e0905f90a250505050565b61192d8383836001611f8c565b505050565b5f610d0f61194182600a613017565b7f52c63247e1f47db19d5ce0460030c497f067ca4cebf71ba98eeadabe20bace025461196d9190612e77565b60045461197b906001612e77565b85919085612070565b5f80808061199b866001600160a01b0387166120bb565b909450925050505b9250929050565b5f6119bf846001600160a01b038516846120f3565b949350505050565b5f6108d28261210f565b5f807ff0c57e16840df040f15088dc2f81fe391c3923bec73e23a9662efc9c229c6a006108d2565b611a01612119565b6001600160a01b038416611a2857604051639c6bb9f560e01b815260040160405180910390fd5b6001600160a01b038316611a4f57604051636a485a5b60e11b815260040160405180910390fd5b611a59828261213e565b611ac1836001600160a01b0316637158da7c6040518163ffffffff1660e01b8152600401602060405180830381865afa158015611a98573d5f803e3d5ffd5b505050506040513d601f19601f82011682018060405250810190611abc9190612ea9565b612150565b611ac9612161565b611ad1612171565b611ad9612171565b611ae284611f17565b60028054336001600160a01b0319918216179091556001805482166001600160a01b03878116919091179091555f8054909216908516179055611b23610d16565b611b2e90600a613017565b60035550505f6004555050565b5f611b46848461156f565b90505f19811015611b995781811015611b8b57604051637dc7a0d960e11b81526001600160a01b0384166004820152602481018290526044810183905260640161092b565b611b9984848484035f611f8c565b50505050565b6001600160a01b038316611bc857604051634b637e8f60e11b81525f600482015260240161092b565b6001600160a01b038216611bf15760405163ec442f0560e01b81525f600482015260240161092b565b61192d838383612179565b7f9b779b17422d0df92223018b32b4d1fa46e071723d6817e2486d003becc55f00805460011901611c4057604051633ee5aeb560e01b815260040160405180910390fd5b60029055565b5f80808061199b86866122b2565b5f610d0f836001600160a01b0384166122db565b6001600160a01b038216611c915760405163ec442f0560e01b81525f600482015260240161092b565b610f435f8383612179565b60017f9b779b17422d0df92223018b32b4d1fa46e071723d6817e2486d003becc55f0055565b5f610d0f611ccf60045490565b611cda906001612e77565b611ce55f600a613017565b7f52c63247e1f47db19d5ce0460030c497f067ca4cebf71ba98eeadabe20bace025461197b9190612e77565b306001600160a01b037f0000000000000000000000000000000000000000000000000000000000000000161480611d9757507f00000000000000000000000000000000000000000000000000000000000000006001600160a01b0316611d8b5f805160206131ce833981519152546001600160a01b031690565b6001600160a01b031614155b15610ee75760405163703e46dd60e11b815260040160405180910390fd5b6001546001600160a01b031633146110fa576040516356b381a560e01b815260040160405180910390fd5b816001600160a01b03166352d1902d6040518163ffffffff1660e01b8152600401602060405180830381865afa925050508015611e3a575060408051601f3d908101601f19168201909252611e3791810190613025565b60015b611e6257604051634c9c8ce360e01b81526001600160a01b038316600482015260240161092b565b5f805160206131ce8339815191528114611e9257604051632a87526960e21b81526004810182905260240161092b565b61192d83836122f7565b306001600160a01b037f00000000000000000000000000000000000000000000000000000000000000001614610ee75760405163703e46dd60e11b815260040160405180910390fd5b33611eee6110fd565b6001600160a01b031614610ee75760405163118cdaa760e01b815233600482015260240161092b565b7f237e158222e3e6968b72b9db0d8043aacf074ad9f650f0d1606b4d82ee432c0080546001600160a01b0319168155610f438261234c565b6001600160a01b038216611f7857604051634b637e8f60e11b81525f600482015260240161092b565b610f43825f83612179565b6110fa816123bc565b5f805160206131ae8339815191526001600160a01b038516611fc35760405163e602df0560e01b81525f600482015260240161092b565b6001600160a01b038416611fec57604051634a1406b160e11b81525f600482015260240161092b565b6001600160a01b038086165f9081526001830160209081526040808320938816835292905220839055811561206957836001600160a01b0316856001600160a01b03167f8c5be1e5ebec7d5bd14f71427d1e84f3dd0314c0f7b2291e5b200ac8c7c3b9258560405161206091815260200190565b60405180910390a35b5050505050565b5f61209d61207d83612405565b801561209857505f848061209357612093612e50565b868809115b151590565b6120a8868686612431565b6120b29190612e77565b95945050505050565b5f8181526002830160205260408120548190806120e8576120dc85856124e1565b92505f91506119a39050565b6001925090506119a3565b5f82815260028401602052604081208290556119bf84846124ec565b5f6108d2826124f7565b612121612500565b610ee757604051631afcd79f60e31b815260040160405180910390fd5b612146612119565b610f438282612519565b612158612119565b6110fa81612569565b612169612119565b610ee76125ec565b610ee7612119565b5f805160206131ae8339815191526001600160a01b0384166121b35781816002015f8282546121a89190612e77565b909155506122239050565b6001600160a01b0384165f90815260208290526040902054828110156122055760405163391434e360e21b81526001600160a01b0386166004820152602481018290526044810184905260640161092b565b6001600160a01b0385165f9081526020839052604090209083900390555b6001600160a01b03831661224157600281018054839003905561225f565b6001600160a01b0383165f9081526020829052604090208054830190555b826001600160a01b0316846001600160a01b03167fddf252ad1be2c89b69c2b068fc378daa952ba7f163c4a11628f55a4df523b3ef846040516122a491815260200190565b60405180910390a350505050565b5f80806122bf85856125f4565b5f81815260029690960160205260409095205494959350505050565b5f8181526002830160205260408120819055610d0f83836125ff565b6123008261260a565b6040516001600160a01b038316907fbc7cd75a20ee27fd9adebab32041f755214dbc6bffa90cc0225b39da2e5c2d3b905f90a28051156123445761192d828261266d565b610f436126d6565b7f9016d09d72d40fdae2fd8ceac6b6234c7706214fd39c1cd1e609a0528c19930080546001600160a01b031981166001600160a01b03848116918217845560405192169182907f8be0079c531659141344cd1fd0a4f28419497f9722a3daafe3b4186f6b6457e0905f90a3505050565b5f6123c68261210f565b90505f5b818110156123fb57600283015f6123e185846125f4565b815260208101919091526040015f908120556001016123ca565b50610f43826126f5565b5f600282600381111561241a5761241a61303c565b6124249190613050565b60ff166001149050919050565b5f805f61243e86866126fe565b91509150815f036124625783818161245857612458612e50565b0492505050610d0f565b81841161247957612479600385150260111861271a565b5f848688095f868103871696879004966002600389028118808a02820302808a02820302808a02820302808a02820302808a02820302808a02909103029181900381900460010185841190960395909502919093039390930492909217029150509392505050565b5f610d0f838361272b565b5f610d0f8383612742565b5f6108d2825490565b5f6125096119d1565b54600160401b900460ff16919050565b612521612119565b5f805160206131ae8339815191527f52c63247e1f47db19d5ce0460030c497f067ca4cebf71ba98eeadabe20bace0361255a84826130b5565b5060048101611b9983826130b5565b612571612119565b7f0773e532dfede91f04b12a73d3d2acd361424f41f76b4fb79f090161e36b4e005f8061259d8461278e565b91509150816125ad5760126125af565b805b83546001600160a81b031916600160a01b60ff92909216919091026001600160a01b031916176001600160a01b0394909416939093179091555050565b611c9c612119565b5f610d0f8383612864565b5f610d0f838361288a565b806001600160a01b03163b5f0361263f57604051634c9c8ce360e01b81526001600160a01b038216600482015260240161092b565b5f805160206131ce83398151915280546001600160a01b0319166001600160a01b0392909216919091179055565b60605f80846001600160a01b0316846040516126899190613170565b5f60405180830381855af49150503d805f81146126c1576040519150601f19603f3d011682016040523d82523d5f602084013e6126c6565b606091505b50915091506120b285838361296d565b3415610ee75760405163b398979f60e01b815260040160405180910390fd5b6110fa816129c9565b5f805f1983850993909202808410938190039390930393915050565b634e487b715f52806020526024601cfd5b5f8181526001830160205260408120541515610d0f565b5f81815260018301602052604081205461278757508154600181810184555f8481526020808220909301849055845484825282860190935260409020919091556108d2565b505f6108d2565b60408051600481526024810182526020810180516001600160e01b031663313ce56760e01b17905290515f918291829182916001600160a01b038716916127d491613170565b5f60405180830381855afa9150503d805f811461280c576040519150601f19603f3d011682016040523d82523d5f602084013e612811565b606091505b509150915081801561282557506020815110155b15612858575f8180602001905181019061283f9190613025565b905060ff8111612856576001969095509350505050565b505b505f9485945092505050565b5f825f01828154811061287957612879612edd565b905f5260205f200154905092915050565b5f8181526001830160205260408120548015612964575f6128ac600183613186565b85549091505f906128bf90600190613186565b905080821461291e575f865f0182815481106128dd576128dd612edd565b905f5260205f200154905080875f0184815481106128fd576128fd612edd565b5f918252602080832090910192909255918252600188019052604090208390555b855486908061292f5761292f613199565b600190038181905f5260205f20015f90559055856001015f8681526020019081526020015f205f9055600193505050506108d2565b5f9150506108d2565b6060826129825761297d82612a22565b610d0f565b815115801561299957506001600160a01b0384163b155b156129c257604051639996b31560e01b81526001600160a01b038516600482015260240161092b565b5080610d0f565b5f6129d2825490565b90505f5b81811015612a1b57826001015f845f0183815481106129f7576129f7612edd565b905f5260205f20015481526020019081526020015f205f90558060010190506129d6565b50505f9055565b805115612a325780518082602001fd5b60405163d6bda27560e01b815260040160405180910390fd5b602081525f82518060208401528060208501604085015e5f604082850101526040601f19601f83011684010191505092915050565b5f60208284031215612a90575f80fd5b5035919050565b6001600160a01b03811681146110fa575f80fd5b5f8060408385031215612abc575f80fd5b8235612ac781612a97565b946020939093013593505050565b634e487b7160e01b5f52604160045260245ffd5b5f8067ffffffffffffffff841115612b0357612b03612ad5565b50604051601f19601f85018116603f0116810181811067ffffffffffffffff82111715612b3257612b32612ad5565b604052838152905080828401851015612b49575f80fd5b838360208301375f60208583010152509392505050565b5f82601f830112612b6f575f80fd5b610d0f83833560208501612ae9565b5f805f8060808587031215612b91575f80fd5b8435612b9c81612a97565b93506020850135612bac81612a97565b9250604085013567ffffffffffffffff811115612bc7575f80fd5b612bd387828801612b60565b925050606085013567ffffffffffffffff811115612bef575f80fd5b612bfb87828801612b60565b91505092959194509250565b5f805f60608486031215612c19575f80fd5b8335612c2481612a97565b92506020840135612c3481612a97565b929592945050506040919091013590565b5f60208284031215612c55575f80fd5b8135610d0f81612a97565b5f8060408385031215612c71575f80fd5b8235612c7c81612a97565b9150602083013567ffffffffffffffff811115612c97575f80fd5b8301601f81018513612ca7575f80fd5b612cb685823560208401612ae9565b9150509250929050565b5f8060408385031215612cd1575f80fd5b823591506020830135612ce381612a97565b809150509250929050565b5f805f60608486031215612d00575f80fd5b833592506020840135612d1281612a97565b91506040840135612d2281612a97565b809150509250925092565b5f805f60608486031215612d3f575f80fd5b505081359360208301359350604090920135919050565b5f8060408385031215612d67575f80fd5b8235612d7281612a97565b91506020830135612ce381612a97565b5f8060208385031215612d93575f80fd5b823567ffffffffffffffff811115612da9575f80fd5b8301601f81018513612db9575f80fd5b803567ffffffffffffffff811115612dcf575f80fd5b8560208260061b8401011115612de3575f80fd5b6020919091019590945092505050565b600181811c90821680612e0757607f821691505b6020821081036113e657634e487b7160e01b5f52602260045260245ffd5b634e487b7160e01b5f52601160045260245ffd5b80820281158282048414176108d2576108d2612e25565b634e487b7160e01b5f52601260045260245ffd5b5f82612e7257612e72612e50565b500490565b808201808211156108d2576108d2612e25565b5f60208284031215612e9a575f80fd5b81518015158114610d0f575f80fd5b5f60208284031215612eb9575f80fd5b8151610d0f81612a97565b60ff81811683821601908111156108d2576108d2612e25565b634e487b7160e01b5f52603260045260245ffd5b5f60208284031215612f01575f80fd5b813563ffffffff81168114610d0f575f80fd5b5f60208284031215612f24575f80fd5b815160ff81168114610d0f575f80fd5b6001815b6001841115612f6f57808504811115612f5357612f53612e25565b6001841615612f6157908102905b60019390931c928002612f38565b935093915050565b5f82612f85575060016108d2565b81612f9157505f6108d2565b8160018114612fa75760028114612fb157612fcd565b60019150506108d2565b60ff841115612fc257612fc2612e25565b50506001821b6108d2565b5060208310610133831016604e8410600b8410161715612ff0575081810a6108d2565b612ffc5f198484612f34565b805f190482111561300f5761300f612e25565b029392505050565b5f610d0f60ff841683612f77565b5f60208284031215613035575f80fd5b5051919050565b634e487b7160e01b5f52602160045260245ffd5b5f60ff83168061306257613062612e50565b8060ff84160691505092915050565b601f82111561192d57805f5260205f20601f840160051c810160208510156130965750805b601f840160051c820191505b81811015612069575f81556001016130a2565b815167ffffffffffffffff8111156130cf576130cf612ad5565b6130e3816130dd8454612df3565b84613071565b6020601f821160018114613115575f83156130fe5750848201515b5f19600385901b1c1916600184901b178455612069565b5f84815260208120601f198516915b828110156131445787850151825560209485019460019092019101613124565b508482101561316157868401515f19600387901b60f8161c191681555b50505050600190811b01905550565b5f82518060208501845e5f920191825250919050565b818103818111156108d2576108d2612e25565b634e487b7160e01b5f52603160045260245ffdfe52c63247e1f47db19d5ce0460030c497f067ca4cebf71ba98eeadabe20bace00360894a13ba1a3210667c828492db98dca3e2076cc3735a920a3ca505d382bbca2646970667358221220cd55e49585e597052ca2e6feb519ff6564756d6b7714743cb71ae89d4561ea3564736f6c634300081a003360a0604052306080523480156012575f80fd5b506080516130e16100395f395f8181611c1d01528181611c460152611da801526130e15ff3fe60806040526004361061028b575f3560e01c80638726972911610155578063c38fe2f2116100be578063d905777e11610078578063d905777e1461073f578063dd62ed3e1461075e578063e30c39781461077d578063e66f53b714610791578063ef8b30f7146107b0578063f2fde38b146107cf575f80fd5b8063c38fe2f2146106af578063c63d75b614610476578063c6e6f592146106ce578063ce96cb77146106ed578063d1699c261461070c578063d5f3948814610720575f80fd5b8063aa9d3a601161010f578063aa9d3a60146105fa578063ad3cb1cc1461060e578063b3d7f6b91461063e578063b460af941461065d578063ba0876521461067c578063c37fc8a81461069b575f80fd5b8063872697291461057f5780638da5cb5b1461059457806394bf804d146104dc57806395d89b41146105a85780639c055a66146105bc578063a9059cbb146105db575f80fd5b806333fdc592116101f75780636e553f65116101b15780636e553f65146104dc57806370a08231146104fb578063715018a61461051a578063745400c91461052e57806379502c551461054d57806379ba50971461056b575f80fd5b806333fdc5921461043657806338d52e0f1461044a578063402d267d146104765780634cdad506146104965780634f1ef286146104b557806352d1902d146104c8575f80fd5b806316b602491161024857806316b60249146103615780631765b3131461038057806318160ddd1461039f5780632016a0d2146103d257806323b872dd146103f1578063313ce56714610410575f80fd5b806301e1d1141461028f57806306fdde03146102b257806307a2d13a146102d3578063095ea7b3146102f25780630a28a477146103215780630d1e666714610340575b5f80fd5b34801561029a575f80fd5b506004545b6040519081526020015b60405180910390f35b3480156102bd575f80fd5b506102c66107ee565b6040516102a9919061294c565b3480156102de575f80fd5b5061029f6102ed366004612981565b6108ae565b3480156102fd575f80fd5b5061031161030c3660046129ac565b6108d8565b60405190151581526020016102a9565b34801561032c575f80fd5b5061029f61033b366004612981565b6108ef565b34801561034b575f80fd5b5061035f61035a366004612981565b6108fb565b005b34801561036c575f80fd5b5061035f61037b366004612981565b610a82565b34801561038b575f80fd5b5061035f61039a366004612981565b610b4a565b3480156103aa575f80fd5b507f52c63247e1f47db19d5ce0460030c497f067ca4cebf71ba98eeadabe20bace025461029f565b3480156103dd575f80fd5b5061035f6103ec366004612a7f565b610bf2565b3480156103fc575f80fd5b5061031161040b366004612b08565b610cf1565b34801561041b575f80fd5b50610424610d16565b60405160ff90911681526020016102a9565b348015610441575f80fd5b5061035f610d58565b348015610455575f80fd5b5061045e610ee9565b6040516001600160a01b0390911681526020016102a9565b348015610481575f80fd5b5061029f610490366004612b46565b505f1990565b3480156104a1575f80fd5b5061029f6104b0366004612981565b610f1d565b61035f6104c3366004612b61565b610f28565b3480156104d3575f80fd5b5061029f610f47565b3480156104e7575f80fd5b5061029f6104f6366004612bc1565b610f62565b348015610506575f80fd5b5061029f610515366004612b46565b610f7c565b348015610525575f80fd5b5061035f610fa2565b348015610539575f80fd5b5061035f610548366004612981565b610fb3565b348015610558575f80fd5b505f5461045e906001600160a01b031681565b348015610576575f80fd5b5061035f6110b5565b34801561058a575f80fd5b5061029f60035481565b34801561059f575f80fd5b5061045e6110fd565b3480156105b3575f80fd5b506102c6611125565b3480156105c7575f80fd5b5061035f6105d6366004612bef565b611163565b3480156105e6575f80fd5b506103116105f53660046129ac565b611314565b348015610605575f80fd5b5061035f611321565b348015610619575f80fd5b506102c6604051806040016040528060058152602001640352e302e360dc1b81525081565b348015610649575f80fd5b5061029f610658366004612981565b61151e565b348015610668575f80fd5b5061029f610677366004612c60565b61152a565b348015610687575f80fd5b5061029f610696366004612c60565b611543565b3480156106a6575f80fd5b5061029f61155d565b3480156106ba575f80fd5b5061035f6106c9366004612c9f565b61159d565b3480156106d9575f80fd5b5061029f6106e8366004612981565b6116b0565b3480156106f8575f80fd5b5061029f610707366004612b46565b6116c9565b348015610717575f80fd5b5061029f6116dc565b34801561072b575f80fd5b5060025461045e906001600160a01b031681565b34801561074a575f80fd5b5061029f610759366004612b46565b611716565b348015610769575f80fd5b5061029f610778366004612cc8565b611720565b348015610788575f80fd5b5061045e611769565b34801561079c575f80fd5b5060015461045e906001600160a01b031681565b3480156107bb575f80fd5b5061029f6107ca366004612981565b611791565b3480156107da575f80fd5b5061035f6107e9366004612b46565b61179c565b7f52c63247e1f47db19d5ce0460030c497f067ca4cebf71ba98eeadabe20bace0380546060915f8051602061306c8339815191529161082c90612cf4565b80601f016020809104026020016040519081016040528092919081815260200182805461085890612cf4565b80156108a35780601f1061087a576101008083540402835291602001916108a3565b820191905f5260205f20905b81548152906001019060200180831161088657829003601f168201915b505050505091505090565b5f6108b7610d16565b60ff16600354836108c89190612d3a565b6108d29190612d65565b92915050565b5f336108e5818585611821565b5060019392505050565b5f6108d2826001611833565b805f036109345761090a610ee9565b604051636b30633560e01b81526001600160a01b0390911660048201526024015b60405180910390fd5b5f80610941600533611885565b915091505f821561096a576109633361095a8685612d78565b600591906118ab565b9050610979565b610976600533866118ab565b90505b8061099757604051637732292d60e01b815260040160405180910390fd5b5f6109a0610ee9565b6040516323b872dd60e01b8152336004820152306024820152604481018790526001600160a01b0391909116906323b872dd906064016020604051808303815f875af11580156109f2573d5f803e3d5ffd5b505050506040513d601f19601f82011682018060405250810190610a169190612d8b565b905080610a36576040516312171d8360e31b815260040160405180910390fd5b337f03979a8c481a9e9c06938045cfd5c28535255cb003b10a8fe84ebb3cb4d440f286610a6360056118c8565b6040805192835260208301919091520160405180910390a25050505050565b5f8054906101000a90046001600160a01b03166001600160a01b031663348ec5c86040518163ffffffff1660e01b8152600401602060405180830381865afa158015610ad0573d5f803e3d5ffd5b505050506040513d601f19601f82011682018060405250810190610af49190612daa565b6001600160a01b0316336001600160a01b031614610b255760405163efb380d960e01b815260040160405180910390fd5b805f03610b4557604051634dfba02360e01b815260040160405180910390fd5b600355565b5f8054906101000a90046001600160a01b03166001600160a01b031663348ec5c86040518163ffffffff1660e01b8152600401602060405180830381865afa158015610b98573d5f803e3d5ffd5b505050506040513d601f19601f82011682018060405250810190610bbc9190612daa565b6001600160a01b0316336001600160a01b031614610bed5760405163efb380d960e01b815260040160405180910390fd5b600455565b5f610bfb6118d2565b805490915060ff600160401b820416159067ffffffffffffffff165f81158015610c225750825b90505f8267ffffffffffffffff166001148015610c3e5750303b155b905081158015610c4c575080155b15610c6a5760405163f92ee8a960e01b815260040160405180910390fd5b845467ffffffffffffffff191660011785558315610c9457845460ff60401b1916600160401b1785555b610ca0898989896118fa565b8315610ce657845460ff60401b19168555604051600181527fc7f505b2f371ae2175ee4913f4499e1f2633a7b5936321eed1cdaeb6115181d29060200160405180910390a15b505050505050505050565b5f33610cfe858285611a3c565b610d09858585611aa0565b60019150505b9392505050565b5f807f0773e532dfede91f04b12a73d3d2acd361424f41f76b4fb79f090161e36b4e0090505f8154610d529190600160a01b900460ff16612dc5565b91505090565b5f8054906101000a90046001600160a01b03166001600160a01b0316633a0dad8e6040518163ffffffff1660e01b8152600401602060405180830381865afa158015610da6573d5f803e3d5ffd5b505050506040513d601f19601f82011682018060405250810190610dca9190612daa565b6001600160a01b0316336001600160a01b031614610dfb57604051631af2ab4f60e31b815260040160405180910390fd5b610e03611afd565b5f5b610e0f60056118c8565b811015610ebd575f80610e23600584611b47565b915091505f610e3182611791565b90505f610e3f600585611b55565b905080610e5f57604051637732292d60e01b815260040160405180910390fd5b610e698483611b69565b60408051848152602081018790526001600160a01b038616917f782ea2005b7f873a0190a1ccb553c732171348d6e16d2b7d3d493c0677dc296e910160405180910390a2505060019092019150610e059050565b50610ee760017f9b779b17422d0df92223018b32b4d1fa46e071723d6817e2486d003becc55f0055565b565b5f807f0773e532dfede91f04b12a73d3d2acd361424f41f76b4fb79f090161e36b4e005b546001600160a01b031692915050565b5f6108d2825f611bc3565b610f30611c12565b610f3982611cb6565b610f438282611ce1565b5050565b5f610f50611d9d565b505f8051602061308c83398151915290565b5f6040516318f2e47360e11b815260040160405180910390fd5b6001600160a01b03165f9081525f8051602061306c833981519152602052604090205490565b610faa611de6565b610ee75f611e18565b805f03610fd3576040516314e6cbb960e11b815260040160405180910390fd5b80610fdd33610f7c565b1015610ffc57604051633c57b48560e21b815260040160405180910390fd5b5f80611009600833611885565b915091505f82156110325761102b336110228685612d78565b600891906118ab565b9050611041565b61103e600833866118ab565b90505b8061105f57604051630d6600c560e01b815260040160405180910390fd5b61106a333086611aa0565b337fd72eb5d043f24a0168ae744d5c44f9596fd673a26bf74d9646bff4b844882d148561109760086118c8565b6040805192835260208301919091520160405180910390a250505050565b33806110bf611769565b6001600160a01b0316146110f15760405163118cdaa760e01b81526001600160a01b038216600482015260240161092b565b6110fa81611e18565b50565b5f807f9016d09d72d40fdae2fd8ceac6b6234c7706214fd39c1cd1e609a0528c199300610f0d565b7f52c63247e1f47db19d5ce0460030c497f067ca4cebf71ba98eeadabe20bace0480546060915f8051602061306c8339815191529161082c90612cf4565b6001546001600160a01b0316331461118e576040516356b381a560e01b815260040160405180910390fd5b5f8190036111af57604051631121aa8d60e01b815260040160405180910390fd5b6111b9600b611e50565b5f5b818110156112e5575f8383838181106111d6576111d6612dde565b6111ec9260206040909202019081019150612b46565b90505f84848481811061120157611201612dde565b5f5460408051633af32abf60e01b81526001600160a01b03888116600483015260209290940295909501013594501691633af32abf9150602401602060405180830381865afa158015611256573d5f803e3d5ffd5b505050506040513d601f19601f8201168201806040525081019061127a9190612d8b565b6112a25760405163751dff9760e11b81526001600160a01b038316600482015260240161092b565b5f6112af600b84846118ab565b9050806112da576040516346bdabe160e01b81526001600160a01b038416600482015260240161092b565b5050506001016111bb565b5060405133907f2d47a742b8d7df7c1fc5a9a631b206b364e6cb2722490759f63bb3ab14b132e0905f90a25050565b5f336108e5818585611aa0565b5f8054906101000a90046001600160a01b03166001600160a01b0316633a0dad8e6040518163ffffffff1660e01b8152600401602060405180830381865afa15801561136f573d5f803e3d5ffd5b505050506040513d601f19601f820116820180604052508101906113939190612daa565b6001600160a01b0316336001600160a01b0316146113c457604051631af2ab4f60e31b815260040160405180910390fd5b6113cc611afd565b5f5b6113d860086118c8565b811015610ebd575f806113ec600884611b47565b90925090505f6113fd600884611b55565b90508061141d57604051630d6600c560e01b815260040160405180910390fd5b6114273083611e59565b5f61143183610f1d565b905061143b610ee9565b60405163a9059cbb60e01b81526001600160a01b03868116600483015260248201849052919091169063a9059cbb906044016020604051808303815f875af1158015611489573d5f803e3d5ffd5b505050506040513d601f19601f820116820180604052508101906114ad9190612d8b565b6114ca576040516312171d8360e31b815260040160405180910390fd5b60408051848152602081018790526001600160a01b038616917febad37b830b1857ef9af5983fc20dc0ded12dc472ba1e22e06fd3a9465b4506c910160405180910390a25050600190920191506113ce9050565b5f6108d2826001611bc3565b5f604051628a595160e01b815260040160405180910390fd5b5f604051630ad8521960e31b815260040160405180910390fd5b5f80805b61156b60086118c8565b811015611597575f61157e600883611b47565b915061158c90508184612d78565b925050600101611561565b50919050565b5f8054906101000a90046001600160a01b03166001600160a01b031663348ec5c86040518163ffffffff1660e01b8152600401602060405180830381865afa1580156115eb573d5f803e3d5ffd5b505050506040513d601f19601f8201168201806040525081019061160f9190612daa565b6001600160a01b0316336001600160a01b0316146116405760405163efb380d960e01b815260040160405180910390fd5b825f0361166057604051634dfba02360e01b815260040160405180910390fd5b6003839055600482905560408051848152602081018490529081018290527f22d59af29033337bec0a35c65d874599f3ea66c941052de217150498e780eb199060600160405180910390a1505050565b5f6003546116bc610d16565b6108c89060ff1684612d3a565b5f6108d26116d683610f7c565b5f611bc3565b5f80805b6116ea60056118c8565b811015611597575f6116fd600583611b47565b915061170b90508184612d78565b9250506001016116e0565b5f6108d282610f7c565b6001600160a01b039182165f9081527f52c63247e1f47db19d5ce0460030c497f067ca4cebf71ba98eeadabe20bace016020908152604080832093909416825291909152205490565b5f807f237e158222e3e6968b72b9db0d8043aacf074ad9f650f0d1606b4d82ee432c00610f0d565b5f6108d2825f611833565b6117a4611de6565b7f237e158222e3e6968b72b9db0d8043aacf074ad9f650f0d1606b4d82ee432c0080546001600160a01b0319166001600160a01b03831690811782556117e86110fd565b6001600160a01b03167f38d16b8cac22d99fc7c124b9cd0de2d3fa1faef420bfe791d8c362d765e2270060405160405180910390a35050565b61182e8383836001611e8d565b505050565b5f610d0f61184282600a612ed5565b7f52c63247e1f47db19d5ce0460030c497f067ca4cebf71ba98eeadabe20bace025461186e9190612d78565b60045461187c906001612d78565b85919085611f71565b5f80808061189c866001600160a01b038716611fbc565b909450925050505b9250929050565b5f6118c0846001600160a01b03851684611ff4565b949350505050565b5f6108d282612010565b5f807ff0c57e16840df040f15088dc2f81fe391c3923bec73e23a9662efc9c229c6a006108d2565b61190261201a565b6001600160a01b03841661192957604051639c6bb9f560e01b815260040160405180910390fd5b6001600160a01b03831661195057604051636a485a5b60e11b815260040160405180910390fd5b61195a828261203f565b6119c2836001600160a01b0316637158da7c6040518163ffffffff1660e01b8152600401602060405180830381865afa158015611999573d5f803e3d5ffd5b505050506040513d601f19601f820116820180604052508101906119bd9190612daa565b612051565b6119ca612062565b6119d2612072565b6119da612072565b6119e384611e18565b60028054336001600160a01b0319918216179091556001805482166001600160a01b03878116919091179091555f8054909216908516179055611a24610d16565b611a2f90600a612ed5565b60035550505f6004555050565b5f611a478484611720565b90505f19811015611a9a5781811015611a8c57604051637dc7a0d960e11b81526001600160a01b0384166004820152602481018290526044810183905260640161092b565b611a9a84848484035f611e8d565b50505050565b6001600160a01b038316611ac957604051634b637e8f60e11b81525f600482015260240161092b565b6001600160a01b038216611af25760405163ec442f0560e01b81525f600482015260240161092b565b61182e83838361207a565b7f9b779b17422d0df92223018b32b4d1fa46e071723d6817e2486d003becc55f00805460011901611b4157604051633ee5aeb560e01b815260040160405180910390fd5b60029055565b5f80808061189c86866121b3565b5f610d0f836001600160a01b0384166121dc565b6001600160a01b038216611b925760405163ec442f0560e01b81525f600482015260240161092b565b610f435f838361207a565b60017f9b779b17422d0df92223018b32b4d1fa46e071723d6817e2486d003becc55f0055565b5f610d0f611bd060045490565b611bdb906001612d78565b611be65f600a612ed5565b7f52c63247e1f47db19d5ce0460030c497f067ca4cebf71ba98eeadabe20bace025461187c9190612d78565b306001600160a01b037f0000000000000000000000000000000000000000000000000000000000000000161480611c9857507f00000000000000000000000000000000000000000000000000000000000000006001600160a01b0316611c8c5f8051602061308c833981519152546001600160a01b031690565b6001600160a01b031614155b15610ee75760405163703e46dd60e11b815260040160405180910390fd5b6001546001600160a01b031633146110fa576040516356b381a560e01b815260040160405180910390fd5b816001600160a01b03166352d1902d6040518163ffffffff1660e01b8152600401602060405180830381865afa925050508015611d3b575060408051601f3d908101601f19168201909252611d3891810190612ee3565b60015b611d6357604051634c9c8ce360e01b81526001600160a01b038316600482015260240161092b565b5f8051602061308c8339815191528114611d9357604051632a87526960e21b81526004810182905260240161092b565b61182e83836121f8565b306001600160a01b037f00000000000000000000000000000000000000000000000000000000000000001614610ee75760405163703e46dd60e11b815260040160405180910390fd5b33611def6110fd565b6001600160a01b031614610ee75760405163118cdaa760e01b815233600482015260240161092b565b7f237e158222e3e6968b72b9db0d8043aacf074ad9f650f0d1606b4d82ee432c0080546001600160a01b0319168155610f438261224d565b6110fa816122bd565b6001600160a01b038216611e8257604051634b637e8f60e11b81525f600482015260240161092b565b610f43825f8361207a565b5f8051602061306c8339815191526001600160a01b038516611ec45760405163e602df0560e01b81525f600482015260240161092b565b6001600160a01b038416611eed57604051634a1406b160e11b81525f600482015260240161092b565b6001600160a01b038086165f90815260018301602090815260408083209388168352929052208390558115611f6a57836001600160a01b0316856001600160a01b03167f8c5be1e5ebec7d5bd14f71427d1e84f3dd0314c0f7b2291e5b200ac8c7c3b92585604051611f6191815260200190565b60405180910390a35b5050505050565b5f611f9e611f7e83612306565b8015611f9957505f8480611f9457611f94612d51565b868809115b151590565b611fa9868686612332565b611fb39190612d78565b95945050505050565b5f818152600283016020526040812054819080611fe957611fdd85856123e2565b92505f91506118a49050565b6001925090506118a4565b5f82815260028401602052604081208290556118c084846123ed565b5f6108d2826123f8565b612022612401565b610ee757604051631afcd79f60e31b815260040160405180910390fd5b61204761201a565b610f43828261241a565b61205961201a565b6110fa8161246a565b61206a61201a565b610ee76124ed565b610ee761201a565b5f8051602061306c8339815191526001600160a01b0384166120b45781816002015f8282546120a99190612d78565b909155506121249050565b6001600160a01b0384165f90815260208290526040902054828110156121065760405163391434e360e21b81526001600160a01b0386166004820152602481018290526044810184905260640161092b565b6001600160a01b0385165f9081526020839052604090209083900390555b6001600160a01b038316612142576002810180548390039055612160565b6001600160a01b0383165f9081526020829052604090208054830190555b826001600160a01b0316846001600160a01b03167fddf252ad1be2c89b69c2b068fc378daa952ba7f163c4a11628f55a4df523b3ef846040516121a591815260200190565b60405180910390a350505050565b5f80806121c085856124f5565b5f81815260029690960160205260409095205494959350505050565b5f8181526002830160205260408120819055610d0f8383612500565b6122018261250b565b6040516001600160a01b038316907fbc7cd75a20ee27fd9adebab32041f755214dbc6bffa90cc0225b39da2e5c2d3b905f90a28051156122455761182e828261256e565b610f436125d7565b7f9016d09d72d40fdae2fd8ceac6b6234c7706214fd39c1cd1e609a0528c19930080546001600160a01b031981166001600160a01b03848116918217845560405192169182907f8be0079c531659141344cd1fd0a4f28419497f9722a3daafe3b4186f6b6457e0905f90a3505050565b5f6122c782612010565b90505f5b818110156122fc57600283015f6122e285846124f5565b815260208101919091526040015f908120556001016122cb565b50610f43826125f6565b5f600282600381111561231b5761231b612efa565b6123259190612f0e565b60ff166001149050919050565b5f805f61233f86866125ff565b91509150815f036123635783818161235957612359612d51565b0492505050610d0f565b81841161237a5761237a600385150260111861261b565b5f848688095f868103871696879004966002600389028118808a02820302808a02820302808a02820302808a02820302808a02820302808a02909103029181900381900460010185841190960395909502919093039390930492909217029150509392505050565b5f610d0f838361262c565b5f610d0f8383612643565b5f6108d2825490565b5f61240a6118d2565b54600160401b900460ff16919050565b61242261201a565b5f8051602061306c8339815191527f52c63247e1f47db19d5ce0460030c497f067ca4cebf71ba98eeadabe20bace0361245b8482612f73565b5060048101611a9a8382612f73565b61247261201a565b7f0773e532dfede91f04b12a73d3d2acd361424f41f76b4fb79f090161e36b4e005f8061249e8461268f565b91509150816124ae5760126124b0565b805b83546001600160a81b031916600160a01b60ff92909216919091026001600160a01b031916176001600160a01b0394909416939093179091555050565b611b9d61201a565b5f610d0f8383612765565b5f610d0f838361278b565b806001600160a01b03163b5f0361254057604051634c9c8ce360e01b81526001600160a01b038216600482015260240161092b565b5f8051602061308c83398151915280546001600160a01b0319166001600160a01b0392909216919091179055565b60605f80846001600160a01b03168460405161258a919061302e565b5f60405180830381855af49150503d805f81146125c2576040519150601f19603f3d011682016040523d82523d5f602084013e6125c7565b606091505b5091509150611fb385838361286e565b3415610ee75760405163b398979f60e01b815260040160405180910390fd5b6110fa816128ca565b5f805f1983850993909202808410938190039390930393915050565b634e487b715f52806020526024601cfd5b5f8181526001830160205260408120541515610d0f565b5f81815260018301602052604081205461268857508154600181810184555f8481526020808220909301849055845484825282860190935260409020919091556108d2565b505f6108d2565b60408051600481526024810182526020810180516001600160e01b031663313ce56760e01b17905290515f918291829182916001600160a01b038716916126d59161302e565b5f60405180830381855afa9150503d805f811461270d576040519150601f19603f3d011682016040523d82523d5f602084013e612712565b606091505b509150915081801561272657506020815110155b15612759575f818060200190518101906127409190612ee3565b905060ff8111612757576001969095509350505050565b505b505f9485945092505050565b5f825f01828154811061277a5761277a612dde565b905f5260205f200154905092915050565b5f8181526001830160205260408120548015612865575f6127ad600183613044565b85549091505f906127c090600190613044565b905080821461281f575f865f0182815481106127de576127de612dde565b905f5260205f200154905080875f0184815481106127fe576127fe612dde565b5f918252602080832090910192909255918252600188019052604090208390555b855486908061283057612830613057565b600190038181905f5260205f20015f90559055856001015f8681526020019081526020015f205f9055600193505050506108d2565b5f9150506108d2565b6060826128835761287e82612923565b610d0f565b815115801561289a57506001600160a01b0384163b155b156128c357604051639996b31560e01b81526001600160a01b038516600482015260240161092b565b5080610d0f565b5f6128d3825490565b90505f5b8181101561291c57826001015f845f0183815481106128f8576128f8612dde565b905f5260205f20015481526020019081526020015f205f90558060010190506128d7565b50505f9055565b8051156129335780518082602001fd5b60405163d6bda27560e01b815260040160405180910390fd5b602081525f82518060208401528060208501604085015e5f604082850101526040601f19601f83011684010191505092915050565b5f60208284031215612991575f80fd5b5035919050565b6001600160a01b03811681146110fa575f80fd5b5f80604083850312156129bd575f80fd5b82356129c881612998565b946020939093013593505050565b634e487b7160e01b5f52604160045260245ffd5b5f8067ffffffffffffffff841115612a0457612a046129d6565b50604051601f19601f85018116603f0116810181811067ffffffffffffffff82111715612a3357612a336129d6565b604052838152905080828401851015612a4a575f80fd5b838360208301375f60208583010152509392505050565b5f82601f830112612a70575f80fd5b610d0f838335602085016129ea565b5f805f8060808587031215612a92575f80fd5b8435612a9d81612998565b93506020850135612aad81612998565b9250604085013567ffffffffffffffff811115612ac8575f80fd5b612ad487828801612a61565b925050606085013567ffffffffffffffff811115612af0575f80fd5b612afc87828801612a61565b91505092959194509250565b5f805f60608486031215612b1a575f80fd5b8335612b2581612998565b92506020840135612b3581612998565b929592945050506040919091013590565b5f60208284031215612b56575f80fd5b8135610d0f81612998565b5f8060408385031215612b72575f80fd5b8235612b7d81612998565b9150602083013567ffffffffffffffff811115612b98575f80fd5b8301601f81018513612ba8575f80fd5b612bb7858235602084016129ea565b9150509250929050565b5f8060408385031215612bd2575f80fd5b823591506020830135612be481612998565b809150509250929050565b5f8060208385031215612c00575f80fd5b823567ffffffffffffffff811115612c16575f80fd5b8301601f81018513612c26575f80fd5b803567ffffffffffffffff811115612c3c575f80fd5b8560208260061b8401011115612c50575f80fd5b6020919091019590945092505050565b5f805f60608486031215612c72575f80fd5b833592506020840135612c8481612998565b91506040840135612c9481612998565b809150509250925092565b5f805f60608486031215612cb1575f80fd5b505081359360208301359350604090920135919050565b5f8060408385031215612cd9575f80fd5b8235612ce481612998565b91506020830135612be481612998565b600181811c90821680612d0857607f821691505b60208210810361159757634e487b7160e01b5f52602260045260245ffd5b634e487b7160e01b5f52601160045260245ffd5b80820281158282048414176108d2576108d2612d26565b634e487b7160e01b5f52601260045260245ffd5b5f82612d7357612d73612d51565b500490565b808201808211156108d2576108d2612d26565b5f60208284031215612d9b575f80fd5b81518015158114610d0f575f80fd5b5f60208284031215612dba575f80fd5b8151610d0f81612998565b60ff81811683821601908111156108d2576108d2612d26565b634e487b7160e01b5f52603260045260245ffd5b6001815b6001841115612e2d57808504811115612e1157612e11612d26565b6001841615612e1f57908102905b60019390931c928002612df6565b935093915050565b5f82612e43575060016108d2565b81612e4f57505f6108d2565b8160018114612e655760028114612e6f57612e8b565b60019150506108d2565b60ff841115612e8057612e80612d26565b50506001821b6108d2565b5060208310610133831016604e8410600b8410161715612eae575081810a6108d2565b612eba5f198484612df2565b805f1904821115612ecd57612ecd612d26565b029392505050565b5f610d0f60ff841683612e35565b5f60208284031215612ef3575f80fd5b5051919050565b634e487b7160e01b5f52602160045260245ffd5b5f60ff831680612f2057612f20612d51565b8060ff84160691505092915050565b601f82111561182e57805f5260205f20601f840160051c81016020851015612f545750805b601f840160051c820191505b81811015611f6a575f8155600101612f60565b815167ffffffffffffffff811115612f8d57612f8d6129d6565b612fa181612f9b8454612cf4565b84612f2f565b6020601f821160018114612fd3575f8315612fbc5750848201515b5f19600385901b1c1916600184901b178455611f6a565b5f84815260208120601f198516915b828110156130025787850151825560209485019460019092019101612fe2565b508482101561301f57868401515f19600387901b60f8161c191681555b50505050600190811b01905550565b5f82518060208501845e5f920191825250919050565b818103818111156108d2576108d2612d26565b634e487b7160e01b5f52603160045260245ffdfe52c63247e1f47db19d5ce0460030c497f067ca4cebf71ba98eeadabe20bace00360894a13ba1a3210667c828492db98dca3e2076cc3735a920a3ca505d382bbca2646970667358221220909e071c17e40ca142737fb5d57b19a2d96a50d9292991d6f53347b8a787db5864736f6c634300081a0033",
  "linkReferences": {},
  "deployedLinkReferences": {}
}