{
  "_format": "hh-sol-artifact-1",
  "contractName": "VaultImplementations",
  "sourceName": "contracts/helpers/VaultImplementations.sol",
  "abi": [
    {
      "inputs": [],
      "stateMutability": "nonpayable",
      "type": "constructor"
    },
    {
      "inputs": [],
      "name": "ENCRYPTED_VAULT_IMPLEMENTATION",
      "outputs": [
        {
          "internalType": "address",
          "name": "",
          "type": "address"
        }
      ],
      "stateMutability": "view",
      "type": "function"
    },
    {
      "inputs": [],
      "name": "TRANSPARENT_VAULT_IMPLEMENTATION",
      "outputs": [
        {
          "internalType": "address",
          "name": "",
          "type": "address"
        }
      ],
      "stateMutability": "view",
      "type": "function"
    }
  ],
  "bytecode": "0x60c0604052348015600e575f5ffd5b506040516019906071565b604051809103905ff0801580156031573d5f5f3e3d5ffd5b506001600160a01b0316608052604051604890607e565b604051809103905ff0801580156060573d5f5f3e3d5ffd5b506001600160a01b031660a052608b565b613ed08061017a83390190565b61440b8061404a83390190565b60805160a05160d26100a85f395f607a01525f6038015260d25ff3fe6080604052348015600e575f5ffd5b50600436106030575f3560e01c8063292b2f86146034578063fb121699146076575b5f5ffd5b605a7f000000000000000000000000000000000000000000000000000000000000000081565b6040516001600160a01b03909116815260200160405180910390f35b605a7f00000000000000000000000000000000000000000000000000000000000000008156fea26469706673582212203952b137183cf149114ed1d2a43a45a3908bdffa591f2e1685d2d29eed2eed6164736f6c634300081c003360a0604052306080523480156012575f5ffd5b50608051613e976100395f395f818161283d0152818161286601526129c80152613e975ff3fe6080604052600436106102bf575f3560e01c806395d89b411161016f578063c63d75b6116100d8578063d5f3948811610092578063e30c39781161006d578063e30c3978146107ae578063e66f53b7146107c2578063ef8b30f7146106cc578063f2fde38b146107e1575f5ffd5b8063d5f3948814610751578063d905777e14610770578063dd62ed3e1461078f575f5ffd5b8063c63d75b61461048b578063c6e6f592146106cc578063cce4705b146106eb578063ce96cb771461070a578063d1699c2614610729578063d3d034581461073d575f5ffd5b8063b3d7f6b911610129578063b3d7f6b91461063e578063b460af941461065d578063b6eba65314610677578063ba0876521461065d578063c0b568e114610699578063c37fc8a8146106b8575f5ffd5b806395d89b4114610589578063a68a52671461059d578063a9059cbb146105bc578063aa9d3a60146105db578063ad3cb1cc146105ef578063b1bd7e2e1461061f575f5ffd5b806338d52e0f1161022b57806370a08231116101e557806379502c55116101c057806379502c551461054357806379ba5097146105615780638da5cb5b1461057557806394bf804d146104d2575f5ffd5b806370a08231146104f1578063715018a614610510578063745400c914610524575f5ffd5b806338d52e0f1461045f578063402d267d1461048b5780634cdad506146103075780634f1ef286146104ab57806352d1902d146104be5780636e553f65146104d2575f5ffd5b8063105444941161027c578063105444941461039557806318160ddd146103b45780632016a0d2146103e757806323b872dd14610406578063313ce5671461042557806333fdc5921461044b575f5ffd5b806301e1d114146102c357806306fdde03146102e657806307a2d13a14610307578063095ea7b3146103265780630a28a477146103555780630d1e666714610374575b5f5ffd5b3480156102ce575f5ffd5b506003545b6040519081526020015b60405180910390f35b3480156102f1575f5ffd5b506102fa610800565b6040516102dd9190613588565b348015610312575f5ffd5b506102d36103213660046135bd565b6108c0565b348015610331575f5ffd5b506103456103403660046135e8565b6108d1565b60405190151581526020016102dd565b348015610360575f5ffd5b506102d361036f3660046135bd565b6108e8565b34801561037f575f5ffd5b5061039361038e3660046135bd565b6108f4565b005b3480156103a0575f5ffd5b506103936103af366004613652565b610c0e565b3480156103bf575f5ffd5b507f52c63247e1f47db19d5ce0460030c497f067ca4cebf71ba98eeadabe20bace02546102d3565b3480156103f2575f5ffd5b506103936104013660046136d6565b610d7b565b348015610411575f5ffd5b50610345610420366004613768565b610ee1565b348015610430575f5ffd5b50610439610f06565b60405160ff90911681526020016102dd565b348015610456575f5ffd5b50610393610f48565b34801561046a575f5ffd5b506104736111d3565b6040516001600160a01b0390911681526020016102dd565b348015610496575f5ffd5b506102d36104a53660046137a6565b505f1990565b6103936104b93660046137d5565b611207565b3480156104c9575f5ffd5b506102d3611226565b3480156104dd575f5ffd5b506102d36104ec366004613898565b611241565b3480156104fc575f5ffd5b506102d361050b3660046137a6565b61125b565b34801561051b575f5ffd5b50610393611281565b34801561052f575f5ffd5b5061039361053e3660046135bd565b611292565b34801561054e575f5ffd5b505f54610473906001600160a01b031681565b34801561056c575f5ffd5b50610393611507565b348015610580575f5ffd5b5061047361154c565b348015610594575f5ffd5b506102fa611574565b3480156105a8575f5ffd5b506102d36105b73660046138c6565b6115b2565b3480156105c7575f5ffd5b506103456105d63660046135e8565b61160b565b3480156105e6575f5ffd5b50610393611618565b3480156105fa575f5ffd5b506102fa604051806040016040528060058152602001640352e302e360dc1b81525081565b34801561062a575f5ffd5b506103936106393660046138ff565b611945565b348015610649575f5ffd5b506102d36106583660046135bd565b611bf7565b348015610668575f5ffd5b506102d36104ec36600461393d565b348015610682575f5ffd5b5061068b611c03565b6040516102dd929190613971565b3480156106a4575f5ffd5b506103936106b33660046135bd565b611d17565b3480156106c3575f5ffd5b50600b546102d3565b3480156106d7575f5ffd5b506102d36106e63660046135bd565b611f57565b3480156106f6575f5ffd5b506103936107053660046135bd565b611f62565b348015610715575f5ffd5b506102d36107243660046137a6565b612197565b348015610734575f5ffd5b50600a546102d3565b348015610748575f5ffd5b5061068b6121aa565b34801561075c575f5ffd5b50600254610473906001600160a01b031681565b34801561077b575f5ffd5b506102d361078a3660046137a6565b6122b8565b34801561079a575f5ffd5b506102d36107a93660046139fa565b6122c2565b3480156107b9575f5ffd5b5061047361230b565b3480156107cd575f5ffd5b50600154610473906001600160a01b031681565b3480156107ec575f5ffd5b506103936107fb3660046137a6565b612333565b7f52c63247e1f47db19d5ce0460030c497f067ca4cebf71ba98eeadabe20bace0380546060915f516020613e025f395f51905f529161083e90613a26565b80601f016020809104026020016040519081016040528092919081815260200182805461086a90613a26565b80156108b55780601f1061088c576101008083540402835291602001916108b5565b820191905f5260205f20905b81548152906001019060200180831161089857829003601f168201915b505050505091505090565b5f6108cb825f6123b8565b92915050565b5f336108de8185856123c6565b5060019392505050565b5f6108cb8260016123d8565b6108fc612434565b805f036109355761090b6111d3565b604051636b30633560e01b81526001600160a01b0390911660048201526024015b60405180910390fd5b5f5f9054906101000a90046001600160a01b03166001600160a01b031663edcf9c1f6040518163ffffffff1660e01b8152600401602060405180830381865afa158015610984573d5f5f3e3d5ffd5b505050506040513d601f19601f820116820180604052508101906109a89190613a5e565b6109c5576040516312aecd8160e01b815260040160405180910390fd5b5f6109ce6111d3565b6040516370a0823160e01b81523360048201526001600160a01b0391909116906370a0823190602401602060405180830381865afa158015610a12573d5f5f3e3d5ffd5b505050506040513d601f19601f82011682018060405250810190610a369190613a7d565b905080821115610a5f57338183604051632e2a182f60e11b815260040161092c93929190613a94565b5f610a686111d3565b6001600160a01b03166323b872dd335f5f9054906101000a90046001600160a01b03166001600160a01b0316633a0dad8e6040518163ffffffff1660e01b8152600401602060405180830381865afa158015610ac6573d5f5f3e3d5ffd5b505050506040513d601f19601f82011682018060405250810190610aea9190613ab5565b6040516001600160e01b031960e085901b1681526001600160a01b03928316600482015291166024820152604481018690526064016020604051808303815f875af1158015610b3b573d5f5f3e3d5ffd5b505050506040513d601f19601f82011682018060405250810190610b5f9190613a5e565b905080610b7f576040516312171d8360e31b815260040160405180910390fd5b5f610b8b60043361246b565b9150610ba6905033610b9d8684613ae4565b60049190612491565b5083600a5f828254610bb89190613ae4565b909155505060405184815233907f08d79f77ab5f78e7e780abb1f7ac9e9923340d5bae78f6e83e7999905b248ea29060200160405180910390a2505050610c0b60015f516020613e425f395f51905f5255565b50565b5f5f9054906101000a90046001600160a01b03166001600160a01b0316633a0dad8e6040518163ffffffff1660e01b8152600401602060405180830381865afa158015610c5d573d5f5f3e3d5ffd5b505050506040513d601f19601f82011682018060405250810190610c819190613ab5565b6001600160a01b0316336001600160a01b031614610cb257604051631af2ab4f60e31b815260040160405180910390fd5b610cbc600d6124b9565b815f5b81811015610d3c57610d33858583818110610cdc57610cdc613af7565b610cf292602060409092020190810191506137a6565b868684818110610d0457610d04613af7565b9050604002016020016020810190610d1c9190613b0b565b63ffffffff16600d6124919092919063ffffffff16565b50600101610cbf565b5060038290556040518281527f5e1ff954b5e5257e9ee5d4cb07059e8f5e69b1aaaf9911e5d8d90a6894de9c219060200160405180910390a150505050565b5f610d846124c2565b805490915060ff600160401b82041615906001600160401b03165f81158015610daa5750825b90505f826001600160401b03166001148015610dc55750303b155b905081158015610dd3575080155b15610df15760405163f92ee8a960e01b815260040160405180910390fd5b845467ffffffffffffffff191660011785558315610e1b57845460ff60401b1916600160401b1785555b610e8e8b8b8b8b8080601f0160208091040260200160405190810160405280939291908181526020018383808284375f9201919091525050604080516020601f8f018190048102820181019092528d815292508d91508c90819084018382808284375f920191909152506124ea92505050565b8315610ed457845460ff60401b19168555604051600181527fc7f505b2f371ae2175ee4913f4499e1f2633a7b5936321eed1cdaeb6115181d29060200160405180910390a15b5050505050505050505050565b5f33610eee858285612724565b610ef9858585612775565b60019150505b9392505050565b5f807f0773e532dfede91f04b12a73d3d2acd361424f41f76b4fb79f090161e36b4e0090505f8154610f429190600160a01b900460ff16613b2e565b91505090565b5f5f9054906101000a90046001600160a01b03166001600160a01b0316633a0dad8e6040518163ffffffff1660e01b8152600401602060405180830381865afa158015610f97573d5f5f3e3d5ffd5b505050506040513d601f19601f82011682018060405250810190610fbb9190613ab5565b6001600160a01b0316336001600160a01b031614610fec57604051631af2ab4f60e31b815260040160405180910390fd5b610ff4612434565b5f610fff60046127d2565b90505f816001600160401b0381111561101a5761101a6137c1565b604051908082528060200260200182016040528015611043578160200160208202803683370190505b5090505f826001600160401b0381111561105f5761105f6137c1565b604051908082528060200260200182016040528015611088578160200160208202803683370190505b5090505f5b83811015611101575f806110a26004846127dc565b91509150818584815181106110b9576110b9613af7565b60200260200101906001600160a01b031690816001600160a01b031681525050808484815181106110ec576110ec613af7565b6020908102919091010152505060010161108d565b505f5b838110156111b6575f83828151811061111f5761111f613af7565b602002602001015190505f83838151811061113c5761113c613af7565b602002602001015190505f61115082611f57565b905061115d6004846127ea565b5061116883826127fe565b826001600160a01b03167f85a190caa61692b36b63a55e069330d18ab9af179fed7a25c16a4262bc63b7d2836040516111a391815260200190565b60405180910390a2505050600101611104565b50505f600a55505060015f516020613e425f395f51905f5255565b565b5f807f0773e532dfede91f04b12a73d3d2acd361424f41f76b4fb79f090161e36b4e005b546001600160a01b031692915050565b61120f612832565b611218826128d6565b6112228282612901565b5050565b5f61122f6129bd565b505f516020613e225f395f51905f5290565b5f60405163125ad87760e31b815260040160405180910390fd5b6001600160a01b03165f9081525f516020613e025f395f51905f52602052604090205490565b611289612a06565b6111d15f612a38565b805f036112b2576040516314e6cbb960e11b815260040160405180910390fd5b5f5f9054906101000a90046001600160a01b03166001600160a01b031663edcf9c1f6040518163ffffffff1660e01b8152600401602060405180830381865afa158015611301573d5f5f3e3d5ffd5b505050506040513d601f19601f820116820180604052508101906113259190613a5e565b611342576040516312aecd8160e01b815260040160405180910390fd5b5f61134c3361125b565b90508082111561137557338183604051632e2a182f60e11b815260040161092c93929190613a94565b5f306001600160a01b03166323b872dd335f5f9054906101000a90046001600160a01b03166001600160a01b0316633a0dad8e6040518163ffffffff1660e01b8152600401602060405180830381865afa1580156113d5573d5f5f3e3d5ffd5b505050506040513d601f19601f820116820180604052508101906113f99190613ab5565b6040516001600160e01b031960e085901b1681526001600160a01b03928316600482015291166024820152604481018690526064016020604051808303815f875af115801561144a573d5f5f3e3d5ffd5b505050506040513d601f19601f8201168201806040525081019061146e9190613a5e565b90508061148e576040516312171d8360e31b815260040160405180910390fd5b5f61149a60073361246b565b91506114b59050336114ac8684613ae4565b60079190612491565b5083600b5f8282546114c79190613ae4565b909155505060405184815233907ff7774b688d56120b783560a913ee60792a73dfd511812b7be5eccf10d08c66899060200160405180910390a250505050565b338061151161230b565b6001600160a01b0316146115435760405163118cdaa760e01b81526001600160a01b038216600482015260240161092c565b610c0b81612a38565b5f807f9016d09d72d40fdae2fd8ceac6b6234c7706214fd39c1cd1e609a0528c1993006111f7565b7f52c63247e1f47db19d5ce0460030c497f067ca4cebf71ba98eeadabe20bace0480546060915f516020613e025f395f51905f529161083e90613a26565b5f5f6115dc7f52c63247e1f47db19d5ce0460030c497f067ca4cebf71ba98eeadabe20bace025490565b90506116026115ec856001613ae4565b600c546115f99084613ae4565b87919086612a70565b95945050505050565b5f336108de818585612775565b5f5f9054906101000a90046001600160a01b03166001600160a01b0316633a0dad8e6040518163ffffffff1660e01b8152600401602060405180830381865afa158015611667573d5f5f3e3d5ffd5b505050506040513d601f19601f8201168201806040525081019061168b9190613ab5565b6001600160a01b0316336001600160a01b0316146116bc57604051631af2ab4f60e31b815260040160405180910390fd5b6116c4612434565b5f6116cf60076127d2565b90505f816001600160401b038111156116ea576116ea6137c1565b604051908082528060200260200182016040528015611713578160200160208202803683370190505b5090505f826001600160401b0381111561172f5761172f6137c1565b604051908082528060200260200182016040528015611758578160200160208202803683370190505b5090505f5b838110156117d1575f806117726007846127dc565b915091508185848151811061178957611789613af7565b60200260200101906001600160a01b031690816001600160a01b031681525050808484815181106117bc576117bc613af7565b6020908102919091010152505060010161175d565b505f600b8190555b8381101561192b575f8382815181106117f4576117f4613af7565b602002602001015190505f83838151811061181157611811613af7565b6020026020010151905061182f8260076127ea90919063ffffffff16565b5061183a3082612ab2565b5f611844826108c0565b905061184e6111d3565b60405163a9059cbb60e01b81526001600160a01b03858116600483015260248201849052919091169063a9059cbb906044016020604051808303815f875af115801561189c573d5f5f3e3d5ffd5b505050506040513d601f19601f820116820180604052508101906118c09190613a5e565b6118dd576040516312171d8360e31b815260040160405180910390fd5b826001600160a01b03167f44b2ff9ffcefe2052a8afdbed44a04bf3db4592ae90c6b96c818bd28573e41e88360405161191891815260200190565b60405180910390a25050506001016117d9565b505050506111d160015f516020613e425f395f51905f5255565b6001546001600160a01b03163314611970576040516356b381a560e01b815260040160405180910390fd5b5f81900361199157604051631121aa8d60e01b815260040160405180910390fd5b61199b60106124b9565b5f81815b81811015611b25575f8585838181106119ba576119ba613af7565b6119d092602060409092020190810191506137a6565b90505f8686848181106119e5576119e5613af7565b90506040020160200160208101906119fd9190613b0b565b5f54604051633af32abf60e01b81526001600160a01b038581166004830152929350911690633af32abf90602401602060405180830381865afa158015611a46573d5f5f3e3d5ffd5b505050506040513d601f19601f82011682018060405250810190611a6a9190613a5e565b611a925760405163751dff9760e11b81526001600160a01b038316600482015260240161092c565b8063ffffffff165f03611ac357604051636b30633560e01b81526001600160a01b038316600482015260240161092c565b5f611ad960108463ffffffff8086169061249116565b905080611b04576040516346bdabe160e01b81526001600160a01b038416600482015260240161092c565b611b1463ffffffff831687613ae4565b9550506001909201915061199f9050565b505f5f5f9054906101000a90046001600160a01b03166001600160a01b031663d1717c7d6040518163ffffffff1660e01b8152600401602060405180830381865afa158015611b76573d5f5f3e3d5ffd5b505050506040513d601f19601f82011682018060405250810190611b9a9190613b47565b9050611ba781600a613c4a565b8314611bc657604051639006dd2760e01b815260040160405180910390fd5b60405133907f2d47a742b8d7df7c1fc5a9a631b206b364e6cb2722490759f63bb3ab14b132e0905f90a25050505050565b5f6108cb8260016123b8565b6060805f611c1160106127d2565b9050806001600160401b03811115611c2b57611c2b6137c1565b604051908082528060200260200182016040528015611c54578160200160208202803683370190505b509250806001600160401b03811115611c6f57611c6f6137c1565b604051908082528060200260200182016040528015611c98578160200160208202803683370190505b5091505f5b81811015611d11575f80611cb26010846127dc565b9150915081868481518110611cc957611cc9613af7565b60200260200101906001600160a01b031690816001600160a01b03168152505080858481518110611cfc57611cfc613af7565b60209081029190910101525050600101611c9d565b50509091565b611d1f612434565b805f03611d2e5761090b6111d3565b5f5f9054906101000a90046001600160a01b03166001600160a01b031663edcf9c1f6040518163ffffffff1660e01b8152600401602060405180830381865afa158015611d7d573d5f5f3e3d5ffd5b505050506040513d601f19601f82011682018060405250810190611da19190613a5e565b611dbe576040516312aecd8160e01b815260040160405180910390fd5b5f611dca60043361246b565b91505081811015611dee576040516332194fd360e21b815260040160405180910390fd5b5f5f9054906101000a90046001600160a01b03166001600160a01b0316633a0dad8e6040518163ffffffff1660e01b8152600401602060405180830381865afa158015611e3d573d5f5f3e3d5ffd5b505050506040513d601f19601f82011682018060405250810190611e619190613ab5565b6040516351edffb160e01b8152336004820152602481018490526001600160a01b0391909116906351edffb1906044015f604051808303815f87803b158015611ea8575f5ffd5b505af1158015611eba573d5f5f3e3d5ffd5b505050505f8282611ecb9190613c58565b9050805f03611ee557611edf6004336127ea565b50611ef3565b611ef160043383612491565b505b82600a5f828254611f049190613c58565b909155505060405183815233907f96a9a6886cdf3047a125454218a23d3961fd3a78643123b248a9d106d0ac94fd906020015b60405180910390a25050610c0b60015f516020613e425f395f51905f5255565b5f6108cb825f6123d8565b611f6a612434565b805f03611f8a576040516314e6cbb960e11b815260040160405180910390fd5b5f5f9054906101000a90046001600160a01b03166001600160a01b031663edcf9c1f6040518163ffffffff1660e01b8152600401602060405180830381865afa158015611fd9573d5f5f3e3d5ffd5b505050506040513d601f19601f82011682018060405250810190611ffd9190613a5e565b61201a576040516312aecd8160e01b815260040160405180910390fd5b5f61202660073361246b565b9150508181101561204a576040516312ea1f4960e11b815260040160405180910390fd5b5f5f9054906101000a90046001600160a01b03166001600160a01b0316633a0dad8e6040518163ffffffff1660e01b8152600401602060405180830381865afa158015612099573d5f5f3e3d5ffd5b505050506040513d601f19601f820116820180604052508101906120bd9190613ab5565b6040516305f0c35960e51b8152336004820152602481018490526001600160a01b03919091169063be186b20906044015f604051808303815f87803b158015612104575f5ffd5b505af1158015612116573d5f5f3e3d5ffd5b505050505f82826121279190613c58565b9050805f036121415761213b6007336127ea565b5061214f565b61214d60073383612491565b505b82600b5f8282546121609190613c58565b909155505060405183815233907f9cf37535785001dcc9767688232fcbc8698b3002d1207b50bc2afec3ff8934dc90602001611f37565b5f6108cb6121a48361125b565b5f6123b8565b6060805f6121b8600d6127d2565b9050806001600160401b038111156121d2576121d26137c1565b6040519080825280602002602001820160405280156121fb578160200160208202803683370190505b509250806001600160401b03811115612216576122166137c1565b60405190808252806020026020018201604052801561223f578160200160208202803683370190505b5091505f5b81811015611d11575f80612259600d846127dc565b915091508186848151811061227057612270613af7565b60200260200101906001600160a01b031690816001600160a01b031681525050808584815181106122a3576122a3613af7565b60209081029190910101525050600101612244565b5f6108cb8261125b565b6001600160a01b039182165f9081527f52c63247e1f47db19d5ce0460030c497f067ca4cebf71ba98eeadabe20bace016020908152604080832093909416825291909152205490565b5f807f237e158222e3e6968b72b9db0d8043aacf074ad9f650f0d1606b4d82ee432c006111f7565b61233b612a06565b7f237e158222e3e6968b72b9db0d8043aacf074ad9f650f0d1606b4d82ee432c0080546001600160a01b0319166001600160a01b038316908117825561237f61154c565b6001600160a01b03167f38d16b8cac22d99fc7c124b9cd0de2d3fa1faef420bfe791d8c362d765e2270060405160405180910390a35050565b5f610eff83600354846115b2565b6123d38383836001612ae6565b505050565b5f5f6124027f52c63247e1f47db19d5ce0460030c497f067ca4cebf71ba98eeadabe20bace025490565b905061242c600c54826124159190613ae4565b600354612423906001613ae4565b86919086612a70565b949350505050565b5f516020613e425f395f51905f5280546001190161246557604051633ee5aeb560e01b815260040160405180910390fd5b60029055565b5f808080612482866001600160a01b038716612bca565b909450925050505b9250929050565b5f61242c846001600160a01b03851684612c02565b60015f516020613e425f395f51905f5255565b610c0b81612c1e565b5f807ff0c57e16840df040f15088dc2f81fe391c3923bec73e23a9662efc9c229c6a006108cb565b6124f2612c67565b6001600160a01b03841661251957604051639c6bb9f560e01b815260040160405180910390fd5b6001600160a01b03831661254057604051636a485a5b60e11b815260040160405180910390fd5b61254a8282612c8c565b6125b2836001600160a01b0316637158da7c6040518163ffffffff1660e01b8152600401602060405180830381865afa158015612589573d5f5f3e3d5ffd5b505050506040513d601f19601f820116820180604052508101906125ad9190613ab5565b612c9e565b6125ba612caf565b6125c384612cbf565b6125cb612cd0565b6125d3612cd0565b60028054336001600160a01b0319918216179091556001805482166001600160a01b03878116919091179091555f805490921690851690811782556003829055600a829055600b82905560408051631c56369f60e21b81529051637158da7c916004808201926020929091908290030181865afa158015612656573d5f5f3e3d5ffd5b505050506040513d601f19601f8201168201806040525081019061267a9190613ab5565b6001600160a01b031663313ce5676040518163ffffffff1660e01b8152600401602060405180830381865afa1580156126b5573d5f5f3e3d5ffd5b505050506040513d601f19601f820116820180604052508101906126d99190613b47565b905060128160ff16111561270057604051631c03248960e11b815260040160405180910390fd5b5f61270c826012613c6b565b905061271981600a613c4a565b600c55505050505050565b5f61272f84846122c2565b90505f1981101561276f578181101561276157828183604051637dc7a0d960e11b815260040161092c93929190613a94565b61276f84848484035f612ae6565b50505050565b6001600160a01b03831661279e57604051634b637e8f60e11b81525f600482015260240161092c565b6001600160a01b0382166127c75760405163ec442f0560e01b81525f600482015260240161092c565b6123d3838383612cd8565b5f6108cb82612dfe565b5f8080806124828686612e08565b5f610eff836001600160a01b038416612e31565b6001600160a01b0382166128275760405163ec442f0560e01b81525f600482015260240161092c565b6112225f8383612cd8565b306001600160a01b037f00000000000000000000000000000000000000000000000000000000000000001614806128b857507f00000000000000000000000000000000000000000000000000000000000000006001600160a01b03166128ac5f516020613e225f395f51905f52546001600160a01b031690565b6001600160a01b031614155b156111d15760405163703e46dd60e11b815260040160405180910390fd5b6001546001600160a01b03163314610c0b576040516356b381a560e01b815260040160405180910390fd5b816001600160a01b03166352d1902d6040518163ffffffff1660e01b8152600401602060405180830381865afa92505050801561295b575060408051601f3d908101601f1916820190925261295891810190613a7d565b60015b61298357604051634c9c8ce360e01b81526001600160a01b038316600482015260240161092c565b5f516020613e225f395f51905f5281146129b357604051632a87526960e21b81526004810182905260240161092c565b6123d38383612e4d565b306001600160a01b037f000000000000000000000000000000000000000000000000000000000000000016146111d15760405163703e46dd60e11b815260040160405180910390fd5b33612a0f61154c565b6001600160a01b0316146111d15760405163118cdaa760e01b815233600482015260240161092c565b7f237e158222e3e6968b72b9db0d8043aacf074ad9f650f0d1606b4d82ee432c0080546001600160a01b031916815561122282612ea2565b5f612a9d612a7d83612f12565b8015612a9857505f8480612a9357612a93613c84565b868809115b151590565b612aa8868686612f3e565b6116029190613ae4565b6001600160a01b038216612adb57604051634b637e8f60e11b81525f600482015260240161092c565b611222825f83612cd8565b5f516020613e025f395f51905f526001600160a01b038516612b1d5760405163e602df0560e01b81525f600482015260240161092c565b6001600160a01b038416612b4657604051634a1406b160e11b81525f600482015260240161092c565b6001600160a01b038086165f90815260018301602090815260408083209388168352929052208390558115612bc357836001600160a01b0316856001600160a01b03167f8c5be1e5ebec7d5bd14f71427d1e84f3dd0314c0f7b2291e5b200ac8c7c3b92585604051612bba91815260200190565b60405180910390a35b5050505050565b5f818152600283016020526040812054819080612bf757612beb8585612fee565b92505f915061248a9050565b60019250905061248a565b5f828152600284016020526040812082905561242c8484612ff9565b5f612c2882612dfe565b90505f5b81811015612c5d57600283015f612c438584613004565b815260208101919091526040015f90812055600101612c2c565b506112228261300f565b612c6f613018565b6111d157604051631afcd79f60e31b815260040160405180910390fd5b612c94612c67565b6112228282613031565b612ca6612c67565b610c0b81613081565b612cb7612c67565b6111d1613104565b612cc7612c67565b610c0b8161310c565b6111d1612c67565b5f516020613e025f395f51905f526001600160a01b038416612d125781816002015f828254612d079190613ae4565b90915550612d6f9050565b6001600160a01b0384165f9081526020829052604090205482811015612d515784818460405163391434e360e21b815260040161092c93929190613a94565b6001600160a01b0385165f9081526020839052604090209083900390555b6001600160a01b038316612d8d576002810180548390039055612dab565b6001600160a01b0383165f9081526020829052604090208054830190555b826001600160a01b0316846001600160a01b03167fddf252ad1be2c89b69c2b068fc378daa952ba7f163c4a11628f55a4df523b3ef84604051612df091815260200190565b60405180910390a350505050565b5f6108cb8261313d565b5f8080612e158585613004565b5f81815260029690960160205260409095205494959350505050565b5f8181526002830160205260408120819055610eff8383613146565b612e5682613151565b6040516001600160a01b038316907fbc7cd75a20ee27fd9adebab32041f755214dbc6bffa90cc0225b39da2e5c2d3b905f90a2805115612e9a576123d382826131b4565b61122261321d565b7f9016d09d72d40fdae2fd8ceac6b6234c7706214fd39c1cd1e609a0528c19930080546001600160a01b031981166001600160a01b03848116918217845560405192169182907f8be0079c531659141344cd1fd0a4f28419497f9722a3daafe3b4186f6b6457e0905f90a3505050565b5f6002826003811115612f2757612f27613c98565b612f319190613cac565b60ff166001149050919050565b5f5f5f612f4b868661323c565b91509150815f03612f6f57838181612f6557612f65613c84565b0492505050610eff565b818411612f8657612f866003851502601118613258565b5f848688095f868103871696879004966002600389028118808a02820302808a02820302808a02820302808a02820302808a02820302808a02909103029181900381900460010185841190960395909502919093039390930492909217029150509392505050565b5f610eff8383613269565b5f610eff8383613280565b5f610eff83836132cc565b610c0b816132f2565b5f6130216124c2565b54600160401b900460ff16919050565b613039612c67565b5f516020613e025f395f51905f527f52c63247e1f47db19d5ce0460030c497f067ca4cebf71ba98eeadabe20bace036130728482613d1d565b506004810161276f8382613d1d565b613089612c67565b7f0773e532dfede91f04b12a73d3d2acd361424f41f76b4fb79f090161e36b4e005f806130b58461334b565b91509150816130c55760126130c7565b805b83546001600160a81b031916600160a01b60ff92909216919091026001600160a01b031916176001600160a01b0394909416939093179091555050565b6124a6612c67565b613114612c67565b6001600160a01b03811661154357604051631e4fbdf760e01b81525f600482015260240161092c565b5f6108cb825490565b5f610eff8383613421565b806001600160a01b03163b5f0361318657604051634c9c8ce360e01b81526001600160a01b038216600482015260240161092c565b5f516020613e225f395f51905f5280546001600160a01b0319166001600160a01b0392909216919091179055565b60605f5f846001600160a01b0316846040516131d09190613dd7565b5f60405180830381855af49150503d805f8114613208576040519150601f19603f3d011682016040523d82523d5f602084013e61320d565b606091505b5091509150611602858383613504565b34156111d15760405163b398979f60e01b815260040160405180910390fd5b5f805f1983850993909202808410938190039390930393915050565b634e487b715f52806020526024601cfd5b5f8181526001830160205260408120541515610eff565b5f8181526001830160205260408120546132c557508154600181810184555f8481526020808220909301849055845484825282860190935260409020919091556108cb565b505f6108cb565b5f825f0182815481106132e1576132e1613af7565b905f5260205f200154905092915050565b5f6132fb825490565b90505f5b8181101561334457826001015f845f01838154811061332057613320613af7565b905f5260205f20015481526020019081526020015f205f90558060010190506132ff565b50505f9055565b60408051600481526024810182526020810180516001600160e01b031663313ce56760e01b17905290515f918291829182916001600160a01b0387169161339191613dd7565b5f60405180830381855afa9150503d805f81146133c9576040519150601f19603f3d011682016040523d82523d5f602084013e6133ce565b606091505b50915091508180156133e257506020815110155b15613415575f818060200190518101906133fc9190613a7d565b905060ff8111613413576001969095509350505050565b505b505f9485945092505050565b5f81815260018301602052604081205480156134fb575f613443600183613c58565b85549091505f9061345690600190613c58565b90508082146134b5575f865f01828154811061347457613474613af7565b905f5260205f200154905080875f01848154811061349457613494613af7565b5f918252602080832090910192909255918252600188019052604090208390555b85548690806134c6576134c6613ded565b600190038181905f5260205f20015f90559055856001015f8681526020019081526020015f205f9055600193505050506108cb565b5f9150506108cb565b6060826135195761351482613560565b610eff565b815115801561353057506001600160a01b0384163b155b1561355957604051639996b31560e01b81526001600160a01b038516600482015260240161092c565b5080610eff565b80511561356f57805160208201fd5b60405163d6bda27560e01b815260040160405180910390fd5b602081525f82518060208401528060208501604085015e5f604082850101526040601f19601f83011684010191505092915050565b5f602082840312156135cd575f5ffd5b5035919050565b6001600160a01b0381168114610c0b575f5ffd5b5f5f604083850312156135f9575f5ffd5b8235613604816135d4565b946020939093013593505050565b5f5f83601f840112613622575f5ffd5b5081356001600160401b03811115613638575f5ffd5b6020830191508360208260061b850101111561248a575f5ffd5b5f5f5f60408486031215613664575f5ffd5b83356001600160401b03811115613679575f5ffd5b61368586828701613612565b909790965060209590950135949350505050565b5f5f83601f8401126136a9575f5ffd5b5081356001600160401b038111156136bf575f5ffd5b60208301915083602082850101111561248a575f5ffd5b5f5f5f5f5f5f608087890312156136eb575f5ffd5b86356136f6816135d4565b95506020870135613706816135d4565b945060408701356001600160401b03811115613720575f5ffd5b61372c89828a01613699565b90955093505060608701356001600160401b0381111561374a575f5ffd5b61375689828a01613699565b979a9699509497509295939492505050565b5f5f5f6060848603121561377a575f5ffd5b8335613785816135d4565b92506020840135613795816135d4565b929592945050506040919091013590565b5f602082840312156137b6575f5ffd5b8135610eff816135d4565b634e487b7160e01b5f52604160045260245ffd5b5f5f604083850312156137e6575f5ffd5b82356137f1816135d4565b915060208301356001600160401b0381111561380b575f5ffd5b8301601f8101851361381b575f5ffd5b80356001600160401b03811115613834576138346137c1565b604051601f8201601f19908116603f011681016001600160401b0381118282101715613862576138626137c1565b604052818152828201602001871015613879575f5ffd5b816020840160208301375f602083830101528093505050509250929050565b5f5f604083850312156138a9575f5ffd5b8235915060208301356138bb816135d4565b809150509250929050565b5f5f5f606084860312156138d8575f5ffd5b83359250602084013591506040840135600481106138f4575f5ffd5b809150509250925092565b5f5f60208385031215613910575f5ffd5b82356001600160401b03811115613925575f5ffd5b61393185828601613612565b90969095509350505050565b5f5f5f6060848603121561394f575f5ffd5b833592506020840135613961816135d4565b915060408401356138f4816135d4565b604080825283519082018190525f9060208501906060840190835b818110156139b35783516001600160a01b031683526020938401939092019160010161398c565b5050838103602080860191909152855180835291810192508501905f5b818110156139ee5782518452602093840193909201916001016139d0565b50919695505050505050565b5f5f60408385031215613a0b575f5ffd5b8235613a16816135d4565b915060208301356138bb816135d4565b600181811c90821680613a3a57607f821691505b602082108103613a5857634e487b7160e01b5f52602260045260245ffd5b50919050565b5f60208284031215613a6e575f5ffd5b81518015158114610eff575f5ffd5b5f60208284031215613a8d575f5ffd5b5051919050565b6001600160a01b039390931683526020830191909152604082015260600190565b5f60208284031215613ac5575f5ffd5b8151610eff816135d4565b634e487b7160e01b5f52601160045260245ffd5b808201808211156108cb576108cb613ad0565b634e487b7160e01b5f52603260045260245ffd5b5f60208284031215613b1b575f5ffd5b813563ffffffff81168114610eff575f5ffd5b60ff81811683821601908111156108cb576108cb613ad0565b5f60208284031215613b57575f5ffd5b815160ff81168114610eff575f5ffd5b6001815b6001841115613ba257808504811115613b8657613b86613ad0565b6001841615613b9457908102905b60019390931c928002613b6b565b935093915050565b5f82613bb8575060016108cb565b81613bc457505f6108cb565b8160018114613bda5760028114613be457613c00565b60019150506108cb565b60ff841115613bf557613bf5613ad0565b50506001821b6108cb565b5060208310610133831016604e8410600b8410161715613c23575081810a6108cb565b613c2f5f198484613b67565b805f1904821115613c4257613c42613ad0565b029392505050565b5f610eff60ff841683613baa565b818103818111156108cb576108cb613ad0565b60ff82811682821603908111156108cb576108cb613ad0565b634e487b7160e01b5f52601260045260245ffd5b634e487b7160e01b5f52602160045260245ffd5b5f60ff831680613cca57634e487b7160e01b5f52601260045260245ffd5b8060ff84160691505092915050565b601f8211156123d357805f5260205f20601f840160051c81016020851015613cfe5750805b601f840160051c820191505b81811015612bc3575f8155600101613d0a565b81516001600160401b03811115613d3657613d366137c1565b613d4a81613d448454613a26565b84613cd9565b6020601f821160018114613d7c575f8315613d655750848201515b5f19600385901b1c1916600184901b178455612bc3565b5f84815260208120601f198516915b82811015613dab5787850151825560209485019460019092019101613d8b565b5084821015613dc857868401515f19600387901b60f8161c191681555b50505050600190811b01905550565b5f82518060208501845e5f920191825250919050565b634e487b7160e01b5f52603160045260245ffdfe52c63247e1f47db19d5ce0460030c497f067ca4cebf71ba98eeadabe20bace00360894a13ba1a3210667c828492db98dca3e2076cc3735a920a3ca505d382bbc9b779b17422d0df92223018b32b4d1fa46e071723d6817e2486d003becc55f00a264697066735822122000bbf01a5e4f54a20bc0ad075a3af9b7b0b3da70ab25c8b599b4074f132293f164736f6c634300081c003360a0604052306080523480156012575f5ffd5b506080516143d26100395f395f8181612bb301528181612bdc0152612d3e01526143d25ff3fe6080604052600436106102bf575f3560e01c806395d89b411161016f578063c63d75b6116100d8578063d5f3948811610092578063e30c39781161006d578063e30c3978146107ae578063e66f53b7146107c2578063ef8b30f7146106cc578063f2fde38b146107e1575f5ffd5b8063d5f3948814610751578063d905777e14610770578063dd62ed3e1461078f575f5ffd5b8063c63d75b61461048b578063c6e6f592146106cc578063cce4705b146106eb578063ce96cb771461070a578063d1699c2614610729578063d3d034581461073d575f5ffd5b8063b3d7f6b911610129578063b3d7f6b91461063e578063b460af941461065d578063b6eba65314610677578063ba0876521461065d578063c0b568e114610699578063c37fc8a8146106b8575f5ffd5b806395d89b41146105895780639adb29811461059d578063a68a5267146105bc578063a9059cbb146105db578063aa9d3a60146105fa578063ad3cb1cc1461060e575f5ffd5b806338d52e0f1161022b57806370a08231116101e557806379502c55116101c057806379502c551461054357806379ba5097146105615780638da5cb5b1461057557806394bf804d146104d2575f5ffd5b806370a08231146104f1578063715018a614610510578063745400c914610524575f5ffd5b806338d52e0f1461045f578063402d267d1461048b5780634cdad506146103075780634f1ef286146104ab57806352d1902d146104be5780636e553f65146104d2575f5ffd5b80630d1e66671161027c5780630d1e66671461039557806318160ddd146103b45780632016a0d2146103e757806323b872dd14610406578063313ce5671461042557806333fdc5921461044b575f5ffd5b806301e1d114146102c357806306fdde03146102e657806307a2d13a146103075780630838830514610326578063095ea7b3146103475780630a28a47714610376575b5f5ffd5b3480156102ce575f5ffd5b506003545b6040519081526020015b60405180910390f35b3480156102f1575f5ffd5b506102fa610800565b6040516102dd9190613ab6565b348015610312575f5ffd5b506102d3610321366004613aeb565b6108c0565b348015610331575f5ffd5b50610345610340366004613b42565b6108d1565b005b348015610352575f5ffd5b50610366610361366004613b94565b610d6b565b60405190151581526020016102dd565b348015610381575f5ffd5b506102d3610390366004613aeb565b610d82565b3480156103a0575f5ffd5b506103456103af366004613aeb565b610d8e565b3480156103bf575f5ffd5b507f52c63247e1f47db19d5ce0460030c497f067ca4cebf71ba98eeadabe20bace02546102d3565b3480156103f2575f5ffd5b50610345610401366004613bfb565b6110a3565b348015610411575f5ffd5b50610366610420366004613c8d565b611209565b348015610430575f5ffd5b5061043961122e565b60405160ff90911681526020016102dd565b348015610456575f5ffd5b50610345611270565b34801561046a575f5ffd5b506104736114fb565b6040516001600160a01b0390911681526020016102dd565b348015610496575f5ffd5b506102d36104a5366004613ccb565b505f1990565b6103456104b9366004613cfa565b61152f565b3480156104c9575f5ffd5b506102d361154a565b3480156104dd575f5ffd5b506102d36104ec366004613dbd565b611565565b3480156104fc575f5ffd5b506102d361050b366004613ccb565b61157f565b34801561051b575f5ffd5b506103456115a5565b34801561052f575f5ffd5b5061034561053e366004613aeb565b6115b6565b34801561054e575f5ffd5b505f54610473906001600160a01b031681565b34801561056c575f5ffd5b5061034561182b565b348015610580575f5ffd5b50610473611870565b348015610594575f5ffd5b506102fa611898565b3480156105a8575f5ffd5b506103456105b7366004613deb565b6118d6565b3480156105c7575f5ffd5b506102d36105d6366004613e32565b611aee565b3480156105e6575f5ffd5b506103666105f5366004613b94565b611b47565b348015610605575f5ffd5b50610345611b54565b348015610619575f5ffd5b506102fa604051806040016040528060058152602001640352e302e360dc1b81525081565b348015610649575f5ffd5b506102d3610658366004613aeb565b611e81565b348015610668575f5ffd5b506102d36104ec366004613e6b565b348015610682575f5ffd5b5061068b611e8d565b6040516102dd929190613e9f565b3480156106a4575f5ffd5b506103456106b3366004613aeb565b611fee565b3480156106c3575f5ffd5b50600b546102d3565b3480156106d7575f5ffd5b506102d36106e6366004613aeb565b61222e565b3480156106f6575f5ffd5b50610345610705366004613aeb565b612239565b348015610715575f5ffd5b506102d3610724366004613ccb565b61246e565b348015610734575f5ffd5b50600a546102d3565b348015610748575f5ffd5b5061068b612481565b34801561075c575f5ffd5b50600254610473906001600160a01b031681565b34801561077b575f5ffd5b506102d361078a366004613ccb565b6125c9565b34801561079a575f5ffd5b506102d36107a9366004613f28565b6125d3565b3480156107b9575f5ffd5b5061047361261c565b3480156107cd575f5ffd5b50600154610473906001600160a01b031681565b3480156107ec575f5ffd5b506103456107fb366004613ccb565b612644565b7f52c63247e1f47db19d5ce0460030c497f067ca4cebf71ba98eeadabe20bace0380546060915f51602061433d5f395f51905f529161083e90613f54565b80601f016020809104026020016040519081016040528092919081815260200182805461086a90613f54565b80156108b55780601f1061088c576101008083540402835291602001916108b5565b820191905f5260205f20905b81548152906001019060200180831161089857829003601f168201915b505050505091505090565b5f6108cb825f6126c9565b92915050565b6001546001600160a01b031633146108fc576040516356b381a560e01b815260040160405180910390fd5b6109046126d7565b5f81900361092557604051631121aa8d60e01b815260040160405180910390fd5b805f6109308161270e565b9050805f836001600160401b0381111561094c5761094c613ce6565b604051908082528060200260200182016040528015610975578160200160208202803683370190505b5090505f846001600160401b0381111561099157610991613ce6565b6040519080825280602002602001820160405280156109ba578160200160208202803683370190505b5090505f5b85811015610b7c575f8888838181106109da576109da613f8c565b6109f09260206040909202019081019150613ccb565b90505f898984818110610a0557610a05613f8c565b5f5460408051633af32abf60e01b81526001600160a01b03888116600483015293909102949094016020013594501691633af32abf9150602401602060405180830381865afa158015610a5a573d5f5f3e3d5ffd5b505050506040513d601f19601f82011682018060405250810190610a7e9190613fa0565b610aab5760405163751dff9760e11b81526001600160a01b03831660048201526024015b60405180910390fd5b6001600160a01b0382165f9081526011602052604090205460ff1615610aef576040516346bdabe160e01b81526001600160a01b0383166004820152602401610aa2565b6001600160a01b0382165f908152601160205260409020805460ff1916600117905584518290869085908110610b2757610b27613f8c565b60200260200101906001600160a01b031690816001600160a01b03168152505080848481518110610b5a57610b5a613f8c565b602002602001018181525050610b708682612720565b955050506001016109bf565b505f80546040805163d1717c7d60e01b81529051610bfa926001600160a01b03169163d1717c7d9160048083019260209291908290030181865afa158015610bc6573d5f5f3e3d5ffd5b505050506040513d601f19601f82011682018060405250810190610bea9190613fbf565b610bf590600a6140d6565b61270e565b90505f610c07858361274e565b6010549091505f5b81811015610c5a5787600f5f60108481548110610c2e57610c2e613f8c565b5f9182526020808320909101546001600160a01b03168352820192909252604001902055600101610c0f565b50610c6660105f613a88565b5f5b88811015610d1e575f868281518110610c8357610c83613f8c565b60200260200101519050858281518110610c9f57610c9f613f8c565b6020908102919091018101516001600160a01b039092165f818152600f83526040808220949094556010805460018181019092557f1b6847dc741a1b0cd08d278845f9d819d87b734759afb55fe2de5cb82a9ae6720180546001600160a01b031916841790559181526011909252919020805460ff1916905501610c68565b5060405133907f2d47a742b8d7df7c1fc5a9a631b206b364e6cb2722490759f63bb3ab14b132e0905f90a25050505050505050610d6760015f51602061437d5f395f51905f5255565b5050565b5f33610d7881858561278f565b5060019392505050565b5f6108cb8260016127a1565b610d966126d7565b805f03610dca57610da56114fb565b604051636b30633560e01b81526001600160a01b039091166004820152602401610aa2565b5f5f9054906101000a90046001600160a01b03166001600160a01b031663edcf9c1f6040518163ffffffff1660e01b8152600401602060405180830381865afa158015610e19573d5f5f3e3d5ffd5b505050506040513d601f19601f82011682018060405250810190610e3d9190613fa0565b610e5a576040516312aecd8160e01b815260040160405180910390fd5b5f610e636114fb565b6040516370a0823160e01b81523360048201526001600160a01b0391909116906370a0823190602401602060405180830381865afa158015610ea7573d5f5f3e3d5ffd5b505050506040513d601f19601f82011682018060405250810190610ecb91906140e4565b905080821115610ef457338183604051632e2a182f60e11b8152600401610aa2939291906140fb565b5f610efd6114fb565b6001600160a01b03166323b872dd335f5f9054906101000a90046001600160a01b03166001600160a01b0316633a0dad8e6040518163ffffffff1660e01b8152600401602060405180830381865afa158015610f5b573d5f5f3e3d5ffd5b505050506040513d601f19601f82011682018060405250810190610f7f919061411c565b6040516001600160e01b031960e085901b1681526001600160a01b03928316600482015291166024820152604481018690526064016020604051808303815f875af1158015610fd0573d5f5f3e3d5ffd5b505050506040513d601f19601f82011682018060405250810190610ff49190613fa0565b905080611014576040516312171d8360e31b815260040160405180910390fd5b5f6110206004336127fd565b915061103b9050336110328684614137565b60049190612823565b5083600a5f82825461104d9190614137565b909155505060405184815233907f08d79f77ab5f78e7e780abb1f7ac9e9923340d5bae78f6e83e7999905b248ea29060200160405180910390a25050506110a060015f51602061437d5f395f51905f5255565b50565b5f6110ac612838565b805490915060ff600160401b82041615906001600160401b03165f811580156110d25750825b90505f826001600160401b031660011480156110ed5750303b155b9050811580156110fb575080155b156111195760405163f92ee8a960e01b815260040160405180910390fd5b845467ffffffffffffffff19166001178555831561114357845460ff60401b1916600160401b1785555b6111b68b8b8b8b8080601f0160208091040260200160405190810160405280939291908181526020018383808284375f9201919091525050604080516020601f8f018190048102820181019092528d815292508d91508c90819084018382808284375f9201919091525061286092505050565b83156111fc57845460ff60401b19168555604051600181527fc7f505b2f371ae2175ee4913f4499e1f2633a7b5936321eed1cdaeb6115181d29060200160405180910390a15b5050505050505050505050565b5f33611216858285612a9a565b611221858585612aeb565b60019150505b9392505050565b5f807f0773e532dfede91f04b12a73d3d2acd361424f41f76b4fb79f090161e36b4e0090505f815461126a9190600160a01b900460ff1661414a565b91505090565b5f5f9054906101000a90046001600160a01b03166001600160a01b0316633a0dad8e6040518163ffffffff1660e01b8152600401602060405180830381865afa1580156112bf573d5f5f3e3d5ffd5b505050506040513d601f19601f820116820180604052508101906112e3919061411c565b6001600160a01b0316336001600160a01b03161461131457604051631af2ab4f60e31b815260040160405180910390fd5b61131c6126d7565b5f6113276004612b48565b90505f816001600160401b0381111561134257611342613ce6565b60405190808252806020026020018201604052801561136b578160200160208202803683370190505b5090505f826001600160401b0381111561138757611387613ce6565b6040519080825280602002602001820160405280156113b0578160200160208202803683370190505b5090505f5b83811015611429575f806113ca600484612b52565b91509150818584815181106113e1576113e1613f8c565b60200260200101906001600160a01b031690816001600160a01b0316815250508084848151811061141457611414613f8c565b602090810291909101015250506001016113b5565b505f5b838110156114de575f83828151811061144757611447613f8c565b602002602001015190505f83838151811061146457611464613f8c565b602002602001015190505f6114788261222e565b9050611485600484612b60565b506114908382612b74565b826001600160a01b03167f85a190caa61692b36b63a55e069330d18ab9af179fed7a25c16a4262bc63b7d2836040516114cb91815260200190565b60405180910390a250505060010161142c565b50505f600a55505060015f51602061437d5f395f51905f5255565b565b5f807f0773e532dfede91f04b12a73d3d2acd361424f41f76b4fb79f090161e36b4e005b546001600160a01b031692915050565b611537612ba8565b61154082612c4c565b610d678282612c77565b5f611553612d33565b505f51602061435d5f395f51905f5290565b5f60405163125ad87760e31b815260040160405180910390fd5b6001600160a01b03165f9081525f51602061433d5f395f51905f52602052604090205490565b6115ad612d7c565b6114f95f612dae565b805f036115d6576040516314e6cbb960e11b815260040160405180910390fd5b5f5f9054906101000a90046001600160a01b03166001600160a01b031663edcf9c1f6040518163ffffffff1660e01b8152600401602060405180830381865afa158015611625573d5f5f3e3d5ffd5b505050506040513d601f19601f820116820180604052508101906116499190613fa0565b611666576040516312aecd8160e01b815260040160405180910390fd5b5f6116703361157f565b90508082111561169957338183604051632e2a182f60e11b8152600401610aa2939291906140fb565b5f306001600160a01b03166323b872dd335f5f9054906101000a90046001600160a01b03166001600160a01b0316633a0dad8e6040518163ffffffff1660e01b8152600401602060405180830381865afa1580156116f9573d5f5f3e3d5ffd5b505050506040513d601f19601f8201168201806040525081019061171d919061411c565b6040516001600160e01b031960e085901b1681526001600160a01b03928316600482015291166024820152604481018690526064016020604051808303815f875af115801561176e573d5f5f3e3d5ffd5b505050506040513d601f19601f820116820180604052508101906117929190613fa0565b9050806117b2576040516312171d8360e31b815260040160405180910390fd5b5f6117be6007336127fd565b91506117d99050336117d08684614137565b60079190612823565b5083600b5f8282546117eb9190614137565b909155505060405184815233907ff7774b688d56120b783560a913ee60792a73dfd511812b7be5eccf10d08c66899060200160405180910390a250505050565b338061183561261c565b6001600160a01b0316146118675760405163118cdaa760e01b81526001600160a01b0382166004820152602401610aa2565b6110a081612dae565b5f807f9016d09d72d40fdae2fd8ceac6b6234c7706214fd39c1cd1e609a0528c19930061151f565b7f52c63247e1f47db19d5ce0460030c497f067ca4cebf71ba98eeadabe20bace0480546060915f51602061433d5f395f51905f529161083e90613f54565b5f5f9054906101000a90046001600160a01b03166001600160a01b0316633a0dad8e6040518163ffffffff1660e01b8152600401602060405180830381865afa158015611925573d5f5f3e3d5ffd5b505050506040513d601f19601f82011682018060405250810190611949919061411c565b6001600160a01b0316336001600160a01b03161461197a57604051631af2ab4f60e31b815260040160405180910390fd5b5f6119845f61270e565b600e549091505f5b818110156119d75782600d5f600e84815481106119ab576119ab613f8c565b5f9182526020808320909101546001600160a01b0316835282019290925260400190205560010161198c565b506119e3600e5f613a88565b5f5b81811015611aae578585828181106119ff576119ff613f8c565b90506040020160200135600d5f888885818110611a1e57611a1e613f8c565b611a349260206040909202019081019150613ccb565b6001600160a01b0316815260208101919091526040015f2055600e868683818110611a6157611a61613f8c565b611a779260206040909202019081019150613ccb565b8154600180820184555f93845260209093200180546001600160a01b0319166001600160a01b0392909216919091179055016119e5565b5060038390556040518381527f5e1ff954b5e5257e9ee5d4cb07059e8f5e69b1aaaf9911e5d8d90a6894de9c219060200160405180910390a15050505050565b5f5f611b187f52c63247e1f47db19d5ce0460030c497f067ca4cebf71ba98eeadabe20bace025490565b9050611b3e611b28856001614137565b600c54611b359084614137565b87919086612de6565b95945050505050565b5f33610d78818585612aeb565b5f5f9054906101000a90046001600160a01b03166001600160a01b0316633a0dad8e6040518163ffffffff1660e01b8152600401602060405180830381865afa158015611ba3573d5f5f3e3d5ffd5b505050506040513d601f19601f82011682018060405250810190611bc7919061411c565b6001600160a01b0316336001600160a01b031614611bf857604051631af2ab4f60e31b815260040160405180910390fd5b611c006126d7565b5f611c0b6007612b48565b90505f816001600160401b03811115611c2657611c26613ce6565b604051908082528060200260200182016040528015611c4f578160200160208202803683370190505b5090505f826001600160401b03811115611c6b57611c6b613ce6565b604051908082528060200260200182016040528015611c94578160200160208202803683370190505b5090505f5b83811015611d0d575f80611cae600784612b52565b9150915081858481518110611cc557611cc5613f8c565b60200260200101906001600160a01b031690816001600160a01b03168152505080848481518110611cf857611cf8613f8c565b60209081029190910101525050600101611c99565b505f600b8190555b83811015611e67575f838281518110611d3057611d30613f8c565b602002602001015190505f838381518110611d4d57611d4d613f8c565b60200260200101519050611d6b826007612b6090919063ffffffff16565b50611d763082612e28565b5f611d80826108c0565b9050611d8a6114fb565b60405163a9059cbb60e01b81526001600160a01b03858116600483015260248201849052919091169063a9059cbb906044016020604051808303815f875af1158015611dd8573d5f5f3e3d5ffd5b505050506040513d601f19601f82011682018060405250810190611dfc9190613fa0565b611e19576040516312171d8360e31b815260040160405180910390fd5b826001600160a01b03167f44b2ff9ffcefe2052a8afdbed44a04bf3db4592ae90c6b96c818bd28573e41e883604051611e5491815260200190565b60405180910390a2505050600101611d15565b505050506114f960015f51602061437d5f395f51905f5255565b5f6108cb8260016126c9565b6010546060908190806001600160401b03811115611ead57611ead613ce6565b604051908082528060200260200182016040528015611ed6578160200160208202803683370190505b509250806001600160401b03811115611ef157611ef1613ce6565b604051908082528060200260200182016040528015611f1a578160200160208202803683370190505b5091505f5b81811015611fe85760108181548110611f3a57611f3a613f8c565b905f5260205f20015f9054906101000a90046001600160a01b0316848281518110611f6757611f67613f8c565b60200260200101906001600160a01b031690816001600160a01b031681525050600f5f60108381548110611f9d57611f9d613f8c565b5f9182526020808320909101546001600160a01b031683528201929092526040019020548351849083908110611fd557611fd5613f8c565b6020908102919091010152600101611f1f565b50509091565b611ff66126d7565b805f0361200557610da56114fb565b5f5f9054906101000a90046001600160a01b03166001600160a01b031663edcf9c1f6040518163ffffffff1660e01b8152600401602060405180830381865afa158015612054573d5f5f3e3d5ffd5b505050506040513d601f19601f820116820180604052508101906120789190613fa0565b612095576040516312aecd8160e01b815260040160405180910390fd5b5f6120a16004336127fd565b915050818110156120c5576040516332194fd360e21b815260040160405180910390fd5b5f5f9054906101000a90046001600160a01b03166001600160a01b0316633a0dad8e6040518163ffffffff1660e01b8152600401602060405180830381865afa158015612114573d5f5f3e3d5ffd5b505050506040513d601f19601f82011682018060405250810190612138919061411c565b6040516351edffb160e01b8152336004820152602481018490526001600160a01b0391909116906351edffb1906044015f604051808303815f87803b15801561217f575f5ffd5b505af1158015612191573d5f5f3e3d5ffd5b505050505f82826121a29190614163565b9050805f036121bc576121b6600433612b60565b506121ca565b6121c860043383612823565b505b82600a5f8282546121db9190614163565b909155505060405183815233907f96a9a6886cdf3047a125454218a23d3961fd3a78643123b248a9d106d0ac94fd906020015b60405180910390a250506110a060015f51602061437d5f395f51905f5255565b5f6108cb825f6127a1565b6122416126d7565b805f03612261576040516314e6cbb960e11b815260040160405180910390fd5b5f5f9054906101000a90046001600160a01b03166001600160a01b031663edcf9c1f6040518163ffffffff1660e01b8152600401602060405180830381865afa1580156122b0573d5f5f3e3d5ffd5b505050506040513d601f19601f820116820180604052508101906122d49190613fa0565b6122f1576040516312aecd8160e01b815260040160405180910390fd5b5f6122fd6007336127fd565b91505081811015612321576040516312ea1f4960e11b815260040160405180910390fd5b5f5f9054906101000a90046001600160a01b03166001600160a01b0316633a0dad8e6040518163ffffffff1660e01b8152600401602060405180830381865afa158015612370573d5f5f3e3d5ffd5b505050506040513d601f19601f82011682018060405250810190612394919061411c565b6040516305f0c35960e51b8152336004820152602481018490526001600160a01b03919091169063be186b20906044015f604051808303815f87803b1580156123db575f5ffd5b505af11580156123ed573d5f5f3e3d5ffd5b505050505f82826123fe9190614163565b9050805f0361241857612412600733612b60565b50612426565b61242460073383612823565b505b82600b5f8282546124379190614163565b909155505060405183815233907f9cf37535785001dcc9767688232fcbc8698b3002d1207b50bc2afec3ff8934dc9060200161220e565b5f6108cb61247b8361157f565b5f6126c9565b600e546060908190806001600160401b038111156124a1576124a1613ce6565b6040519080825280602002602001820160405280156124ca578160200160208202803683370190505b509250806001600160401b038111156124e5576124e5613ce6565b60405190808252806020026020018201604052801561250e578160200160208202803683370190505b5091505f5b81811015611fe8575f600e828154811061252f5761252f613f8c565b905f5260205f20015f9054906101000a90046001600160a01b031690508085838151811061255f5761255f613f8c565b60200260200101906001600160a01b031690816001600160a01b031681525050600d5f826001600160a01b03166001600160a01b031681526020019081526020015f20548483815181106125b5576125b5613f8c565b602090810291909101015250600101612513565b5f6108cb8261157f565b6001600160a01b039182165f9081527f52c63247e1f47db19d5ce0460030c497f067ca4cebf71ba98eeadabe20bace016020908152604080832093909416825291909152205490565b5f807f237e158222e3e6968b72b9db0d8043aacf074ad9f650f0d1606b4d82ee432c0061151f565b61264c612d7c565b7f237e158222e3e6968b72b9db0d8043aacf074ad9f650f0d1606b4d82ee432c0080546001600160a01b0319166001600160a01b0383169081178255612690611870565b6001600160a01b03167f38d16b8cac22d99fc7c124b9cd0de2d3fa1faef420bfe791d8c362d765e2270060405160405180910390a35050565b5f6112278360035484611aee565b5f51602061437d5f395f51905f5280546001190161270857604051633ee5aeb560e01b815260040160405180910390fd5b60029055565b5f6108cb8263ffffffff166004612e5c565b5f826127325761272f5f61270e565b92505b81612743576127405f61270e565b91505b61122783835f612f11565b5f826127605761275d5f61270e565b92505b816127715761276e5f61270e565b91505b61122783835f612ff4565b60015f51602061437d5f395f51905f5255565b61279c8383836001613091565b505050565b5f5f6127cb7f52c63247e1f47db19d5ce0460030c497f067ca4cebf71ba98eeadabe20bace025490565b90506127f5600c54826127de9190614137565b6003546127ec906001614137565b86919086612de6565b949350505050565b5f808080612814866001600160a01b038716613175565b909450925050505b9250929050565b5f6127f5846001600160a01b038516846131ad565b5f807ff0c57e16840df040f15088dc2f81fe391c3923bec73e23a9662efc9c229c6a006108cb565b6128686131c9565b6001600160a01b03841661288f57604051639c6bb9f560e01b815260040160405180910390fd5b6001600160a01b0383166128b657604051636a485a5b60e11b815260040160405180910390fd5b6128c082826131ee565b612928836001600160a01b0316637158da7c6040518163ffffffff1660e01b8152600401602060405180830381865afa1580156128ff573d5f5f3e3d5ffd5b505050506040513d601f19601f82011682018060405250810190612923919061411c565b613200565b612930613211565b61293984613221565b612941613232565b612949613232565b60028054336001600160a01b0319918216179091556001805482166001600160a01b03878116919091179091555f805490921690851690811782556003829055600a829055600b82905560408051631c56369f60e21b81529051637158da7c916004808201926020929091908290030181865afa1580156129cc573d5f5f3e3d5ffd5b505050506040513d601f19601f820116820180604052508101906129f0919061411c565b6001600160a01b031663313ce5676040518163ffffffff1660e01b8152600401602060405180830381865afa158015612a2b573d5f5f3e3d5ffd5b505050506040513d601f19601f82011682018060405250810190612a4f9190613fbf565b905060128160ff161115612a7657604051631c03248960e11b815260040160405180910390fd5b5f612a82826012614176565b9050612a8f81600a6140d6565b600c55505050505050565b5f612aa584846125d3565b90505f19811015612ae55781811015612ad757828183604051637dc7a0d960e11b8152600401610aa2939291906140fb565b612ae584848484035f613091565b50505050565b6001600160a01b038316612b1457604051634b637e8f60e11b81525f6004820152602401610aa2565b6001600160a01b038216612b3d5760405163ec442f0560e01b81525f6004820152602401610aa2565b61279c83838361323a565b5f6108cb82613360565b5f808080612814868661336a565b5f611227836001600160a01b038416613393565b6001600160a01b038216612b9d5760405163ec442f0560e01b81525f6004820152602401610aa2565b610d675f838361323a565b306001600160a01b037f0000000000000000000000000000000000000000000000000000000000000000161480612c2e57507f00000000000000000000000000000000000000000000000000000000000000006001600160a01b0316612c225f51602061435d5f395f51905f52546001600160a01b031690565b6001600160a01b031614155b156114f95760405163703e46dd60e11b815260040160405180910390fd5b6001546001600160a01b031633146110a0576040516356b381a560e01b815260040160405180910390fd5b816001600160a01b03166352d1902d6040518163ffffffff1660e01b8152600401602060405180830381865afa925050508015612cd1575060408051601f3d908101601f19168201909252612cce918101906140e4565b60015b612cf957604051634c9c8ce360e01b81526001600160a01b0383166004820152602401610aa2565b5f51602061435d5f395f51905f528114612d2957604051632a87526960e21b815260048101829052602401610aa2565b61279c83836133af565b306001600160a01b037f000000000000000000000000000000000000000000000000000000000000000016146114f95760405163703e46dd60e11b815260040160405180910390fd5b33612d85611870565b6001600160a01b0316146114f95760405163118cdaa760e01b8152336004820152602401610aa2565b7f237e158222e3e6968b72b9db0d8043aacf074ad9f650f0d1606b4d82ee432c0080546001600160a01b0319168155610d6782613404565b5f612e13612df383613474565b8015612e0e57505f8480612e0957612e0961418f565b868809115b151590565b612e1e8686866134a0565b611b3e9190614137565b6001600160a01b038216612e5157604051634b637e8f60e11b81525f6004820152602401610aa2565b610d67825f8361323a565b7fed8d60e34876f751cc8b014c560745351147d9de11b9347c854e881b128ea60154604051639cd07acb60e01b81525f917fed8d60e34876f751cc8b014c560745351147d9de11b9347c854e881b128ea600916001600160a01b0390911690639cd07acb90612ed190879087906004016141b7565b6020604051808303815f875af1158015612eed573d5f5f3e3d5ffd5b505050506040513d601f19601f820116820180604052508101906127f591906140e4565b5f5f8215612f245750600160f81b612f27565b505f5b7fed8d60e34876f751cc8b014c560745351147d9de11b9347c854e881b128ea6015460405163022f65e760e31b815260048101879052602481018690526001600160f81b0319831660448201527fed8d60e34876f751cc8b014c560745351147d9de11b9347c854e881b128ea600916001600160a01b03169063117b2f38906064015b6020604051808303815f875af1158015612fc6573d5f5f3e3d5ffd5b505050506040513d601f19601f82011682018060405250810190612fea91906140e4565b9695505050505050565b5f5f82156130075750600160f81b61300a565b505f5b7fed8d60e34876f751cc8b014c560745351147d9de11b9347c854e881b128ea6015460405163f77f3f1d60e01b815260048101879052602481018690526001600160f81b0319831660448201527fed8d60e34876f751cc8b014c560745351147d9de11b9347c854e881b128ea600916001600160a01b03169063f77f3f1d90606401612faa565b5f51602061433d5f395f51905f526001600160a01b0385166130c85760405163e602df0560e01b81525f6004820152602401610aa2565b6001600160a01b0384166130f157604051634a1406b160e11b81525f6004820152602401610aa2565b6001600160a01b038086165f9081526001830160209081526040808320938816835292905220839055811561316e57836001600160a01b0316856001600160a01b03167f8c5be1e5ebec7d5bd14f71427d1e84f3dd0314c0f7b2291e5b200ac8c7c3b9258560405161316591815260200190565b60405180910390a35b5050505050565b5f8181526002830160205260408120548190806131a2576131968585613550565b92505f915061281c9050565b60019250905061281c565b5f82815260028401602052604081208290556127f5848461355b565b6131d1613566565b6114f957604051631afcd79f60e31b815260040160405180910390fd5b6131f66131c9565b610d67828261357f565b6132086131c9565b6110a0816135cf565b6132196131c9565b6114f9613652565b6132296131c9565b6110a08161365a565b6114f96131c9565b5f51602061433d5f395f51905f526001600160a01b0384166132745781816002015f8282546132699190614137565b909155506132d19050565b6001600160a01b0384165f90815260208290526040902054828110156132b35784818460405163391434e360e21b8152600401610aa2939291906140fb565b6001600160a01b0385165f9081526020839052604090209083900390555b6001600160a01b0383166132ef57600281018054839003905561330d565b6001600160a01b0383165f9081526020829052604090208054830190555b826001600160a01b0316846001600160a01b03167fddf252ad1be2c89b69c2b068fc378daa952ba7f163c4a11628f55a4df523b3ef8460405161335291815260200190565b60405180910390a350505050565b5f6108cb8261368b565b5f80806133778585613694565b5f81815260029690960160205260409095205494959350505050565b5f8181526002830160205260408120819055611227838361369f565b6133b8826136aa565b6040516001600160a01b038316907fbc7cd75a20ee27fd9adebab32041f755214dbc6bffa90cc0225b39da2e5c2d3b905f90a28051156133fc5761279c828261370d565b610d67613776565b7f9016d09d72d40fdae2fd8ceac6b6234c7706214fd39c1cd1e609a0528c19930080546001600160a01b031981166001600160a01b03848116918217845560405192169182907f8be0079c531659141344cd1fd0a4f28419497f9722a3daafe3b4186f6b6457e0905f90a3505050565b5f6002826003811115613489576134896141a3565b61349391906141e7565b60ff166001149050919050565b5f5f5f6134ad8686613795565b91509150815f036134d1578381816134c7576134c761418f565b0492505050611227565b8184116134e8576134e860038515026011186137b1565b5f848688095f868103871696879004966002600389028118808a02820302808a02820302808a02820302808a02820302808a02820302808a02909103029181900381900460010185841190960395909502919093039390930492909217029150509392505050565b5f61122783836137c2565b5f61122783836137d9565b5f61356f612838565b54600160401b900460ff16919050565b6135876131c9565b5f51602061433d5f395f51905f527f52c63247e1f47db19d5ce0460030c497f067ca4cebf71ba98eeadabe20bace036135c08482614258565b5060048101612ae58382614258565b6135d76131c9565b7f0773e532dfede91f04b12a73d3d2acd361424f41f76b4fb79f090161e36b4e005f8061360384613825565b9150915081613613576012613615565b805b83546001600160a81b031916600160a01b60ff92909216919091026001600160a01b031916176001600160a01b0394909416939093179091555050565b61277c6131c9565b6136626131c9565b6001600160a01b03811661186757604051631e4fbdf760e01b81525f6004820152602401610aa2565b5f6108cb825490565b5f61122783836138fb565b5f6112278383613921565b806001600160a01b03163b5f036136df57604051634c9c8ce360e01b81526001600160a01b0382166004820152602401610aa2565b5f51602061435d5f395f51905f5280546001600160a01b0319166001600160a01b0392909216919091179055565b60605f5f846001600160a01b0316846040516137299190614312565b5f60405180830381855af49150503d805f8114613761576040519150601f19603f3d011682016040523d82523d5f602084013e613766565b606091505b5091509150611b3e858383613a04565b34156114f95760405163b398979f60e01b815260040160405180910390fd5b5f805f1983850993909202808410938190039390930393915050565b634e487b715f52806020526024601cfd5b5f8181526001830160205260408120541515611227565b5f81815260018301602052604081205461381e57508154600181810184555f8481526020808220909301849055845484825282860190935260409020919091556108cb565b505f6108cb565b60408051600481526024810182526020810180516001600160e01b031663313ce56760e01b17905290515f918291829182916001600160a01b0387169161386b91614312565b5f60405180830381855afa9150503d805f81146138a3576040519150601f19603f3d011682016040523d82523d5f602084013e6138a8565b606091505b50915091508180156138bc57506020815110155b156138ef575f818060200190518101906138d691906140e4565b905060ff81116138ed576001969095509350505050565b505b505f9485945092505050565b5f825f01828154811061391057613910613f8c565b905f5260205f200154905092915050565b5f81815260018301602052604081205480156139fb575f613943600183614163565b85549091505f9061395690600190614163565b90508082146139b5575f865f01828154811061397457613974613f8c565b905f5260205f200154905080875f01848154811061399457613994613f8c565b5f918252602080832090910192909255918252600188019052604090208390555b85548690806139c6576139c6614328565b600190038181905f5260205f20015f90559055856001015f8681526020019081526020015f205f9055600193505050506108cb565b5f9150506108cb565b606082613a1957613a1482613a60565b611227565b8151158015613a3057506001600160a01b0384163b155b15613a5957604051639996b31560e01b81526001600160a01b0385166004820152602401610aa2565b5080611227565b805115613a6f57805160208201fd5b60405163d6bda27560e01b815260040160405180910390fd5b5080545f8255905f5260205f20908101906110a091905b80821115613ab2575f8155600101613a9f565b5090565b602081525f82518060208401528060208501604085015e5f604082850101526040601f19601f83011684010191505092915050565b5f60208284031215613afb575f5ffd5b5035919050565b5f5f83601f840112613b12575f5ffd5b5081356001600160401b03811115613b28575f5ffd5b6020830191508360208260061b850101111561281c575f5ffd5b5f5f60208385031215613b53575f5ffd5b82356001600160401b03811115613b68575f5ffd5b613b7485828601613b02565b90969095509350505050565b6001600160a01b03811681146110a0575f5ffd5b5f5f60408385031215613ba5575f5ffd5b8235613bb081613b80565b946020939093013593505050565b5f5f83601f840112613bce575f5ffd5b5081356001600160401b03811115613be4575f5ffd5b60208301915083602082850101111561281c575f5ffd5b5f5f5f5f5f5f60808789031215613c10575f5ffd5b8635613c1b81613b80565b95506020870135613c2b81613b80565b945060408701356001600160401b03811115613c45575f5ffd5b613c5189828a01613bbe565b90955093505060608701356001600160401b03811115613c6f575f5ffd5b613c7b89828a01613bbe565b979a9699509497509295939492505050565b5f5f5f60608486031215613c9f575f5ffd5b8335613caa81613b80565b92506020840135613cba81613b80565b929592945050506040919091013590565b5f60208284031215613cdb575f5ffd5b813561122781613b80565b634e487b7160e01b5f52604160045260245ffd5b5f5f60408385031215613d0b575f5ffd5b8235613d1681613b80565b915060208301356001600160401b03811115613d30575f5ffd5b8301601f81018513613d40575f5ffd5b80356001600160401b03811115613d5957613d59613ce6565b604051601f8201601f19908116603f011681016001600160401b0381118282101715613d8757613d87613ce6565b604052818152828201602001871015613d9e575f5ffd5b816020840160208301375f602083830101528093505050509250929050565b5f5f60408385031215613dce575f5ffd5b823591506020830135613de081613b80565b809150509250929050565b5f5f5f60408486031215613dfd575f5ffd5b83356001600160401b03811115613e12575f5ffd5b613e1e86828701613b02565b909790965060209590950135949350505050565b5f5f5f60608486031215613e44575f5ffd5b8335925060208401359150604084013560048110613e60575f5ffd5b809150509250925092565b5f5f5f60608486031215613e7d575f5ffd5b833592506020840135613e8f81613b80565b91506040840135613e6081613b80565b604080825283519082018190525f9060208501906060840190835b81811015613ee15783516001600160a01b0316835260209384019390920191600101613eba565b5050838103602080860191909152855180835291810192508501905f5b81811015613f1c578251845260209384019390920191600101613efe565b50919695505050505050565b5f5f60408385031215613f39575f5ffd5b8235613f4481613b80565b91506020830135613de081613b80565b600181811c90821680613f6857607f821691505b602082108103613f8657634e487b7160e01b5f52602260045260245ffd5b50919050565b634e487b7160e01b5f52603260045260245ffd5b5f60208284031215613fb0575f5ffd5b81518015158114611227575f5ffd5b5f60208284031215613fcf575f5ffd5b815160ff81168114611227575f5ffd5b634e487b7160e01b5f52601160045260245ffd5b6001815b600184111561402e5780850481111561401257614012613fdf565b600184161561402057908102905b60019390931c928002613ff7565b935093915050565b5f82614044575060016108cb565b8161405057505f6108cb565b816001811461406657600281146140705761408c565b60019150506108cb565b60ff84111561408157614081613fdf565b50506001821b6108cb565b5060208310610133831016604e8410600b84101617156140af575081810a6108cb565b6140bb5f198484613ff3565b805f19048211156140ce576140ce613fdf565b029392505050565b5f61122760ff841683614036565b5f602082840312156140f4575f5ffd5b5051919050565b6001600160a01b039390931683526020830191909152604082015260600190565b5f6020828403121561412c575f5ffd5b815161122781613b80565b808201808211156108cb576108cb613fdf565b60ff81811683821601908111156108cb576108cb613fdf565b818103818111156108cb576108cb613fdf565b60ff82811682821603908111156108cb576108cb613fdf565b634e487b7160e01b5f52601260045260245ffd5b634e487b7160e01b5f52602160045260245ffd5b82815260408101605483106141da57634e487b7160e01b5f52602160045260245ffd5b8260208301529392505050565b5f60ff83168061420557634e487b7160e01b5f52601260045260245ffd5b8060ff84160691505092915050565b601f82111561279c57805f5260205f20601f840160051c810160208510156142395750805b601f840160051c820191505b8181101561316e575f8155600101614245565b81516001600160401b0381111561427157614271613ce6565b6142858161427f8454613f54565b84614214565b6020601f8211600181146142b7575f83156142a05750848201515b5f19600385901b1c1916600184901b17845561316e565b5f84815260208120601f198516915b828110156142e657878501518255602094850194600190920191016142c6565b508482101561430357868401515f19600387901b60f8161c191681555b50505050600190811b01905550565b5f82518060208501845e5f920191825250919050565b634e487b7160e01b5f52603160045260245ffdfe52c63247e1f47db19d5ce0460030c497f067ca4cebf71ba98eeadabe20bace00360894a13ba1a3210667c828492db98dca3e2076cc3735a920a3ca505d382bbc9b779b17422d0df92223018b32b4d1fa46e071723d6817e2486d003becc55f00a26469706673582212207169fb4086ccc2bf42a7d48321677debb26db65ea7831e157ff59c2368fb1bc964736f6c634300081c0033",
  "linkReferences": {},
  "deployedLinkReferences": {}
}