{
  "_format": "hh-sol-artifact-1",
  "contractName": "VaultImplementations",
  "sourceName": "contracts/helpers/VaultImplementations.sol",
  "abi": [
    {
      "inputs": [],
      "stateMutability": "nonpayable",
      "type": "constructor"
    },
    {
      "inputs": [],
      "name": "ENCRYPTED_VAULT_IMPLEMENTATION",
      "outputs": [
        {
          "internalType": "address",
          "name": "",
          "type": "address"
        }
      ],
      "stateMutability": "view",
      "type": "function"
    },
    {
      "inputs": [],
      "name": "TRANSPARENT_VAULT_IMPLEMENTATION",
      "outputs": [
        {
          "internalType": "address",
          "name": "",
          "type": "address"
        }
      ],
      "stateMutability": "view",
      "type": "function"
    }
  ],
  "bytecode": "0x60c0604052348015600e575f5ffd5b506040516019906071565b604051809103905ff0801580156031573d5f5f3e3d5ffd5b506001600160a01b0316608052604051604890607e565b604051809103905ff0801580156060573d5f5f3e3d5ffd5b506001600160a01b031660a052608b565b6136048061017a83390190565b6137608061377e83390190565b60805160a05160d26100a85f395f607a01525f6038015260d25ff3fe6080604052348015600e575f5ffd5b50600436106030575f3560e01c8063292b2f86146034578063fb121699146076575b5f5ffd5b605a7f000000000000000000000000000000000000000000000000000000000000000081565b6040516001600160a01b03909116815260200160405180910390f35b605a7f00000000000000000000000000000000000000000000000000000000000000008156fea26469706673582212209139ed2374ccbe6073cf69b896ee540985099989e9911dacaaead63695eeb56b64736f6c634300081c003360a0604052306080523480156012575f5ffd5b506080516135cb6100395f395f81816120e801528181612111015261227301526135cb5ff3fe6080604052600436106102a5575f3560e01c806394bf804d1161016f578063c37fc8a8116100d8578063d5f3948811610092578063e30c39781161006d578063e30c397814610775578063e66f53b714610789578063ef8b30f7146106b2578063f2fde38b146107a8575f5ffd5b8063d5f3948814610718578063d905777e14610737578063dd62ed3e14610756575f5ffd5b8063c37fc8a81461069e578063c63d75b614610471578063c6e6f592146106b2578063ce96cb77146106d1578063d1699c26146106f0578063d3d0345814610704575f5ffd5b8063b1bd7e2e11610129578063b1bd7e2e14610605578063b3d7f6b914610624578063b460af9414610643578063b6eba6531461065d578063ba08765214610643578063c0b568e11461067f575f5ffd5b806394bf804d146104b857806395d89b411461056f578063a68a526714610583578063a9059cbb146105a2578063aa9d3a60146105c1578063ad3cb1cc146105d5575f5ffd5b806338d52e0f1161021157806370a08231116101cb57806370a08231146104d7578063715018a6146104f6578063745400c91461050a57806379502c551461052957806379ba5097146105475780638da5cb5b1461055b575f5ffd5b806338d52e0f14610445578063402d267d146104715780634cdad506146102ed5780634f1ef2861461049157806352d1902d146104a45780636e553f65146104b8575f5ffd5b80631054449411610262578063105444941461037b57806318160ddd1461039a5780632016a0d2146103cd57806323b872dd146103ec578063313ce5671461040b57806333fdc59214610431575f5ffd5b806301e1d114146102a957806306fdde03146102cc57806307a2d13a146102ed578063095ea7b31461030c5780630a28a4771461033b5780630d1e66671461035a575b5f5ffd5b3480156102b4575f5ffd5b506003545b6040519081526020015b60405180910390f35b3480156102d7575f5ffd5b506102e06107c7565b6040516102c39190612d0a565b3480156102f8575f5ffd5b506102b9610307366004612d3f565b610887565b348015610317575f5ffd5b5061032b610326366004612d6a565b610898565b60405190151581526020016102c3565b348015610346575f5ffd5b506102b9610355366004612d3f565b6108af565b348015610365575f5ffd5b50610379610374366004612d3f565b6108bb565b005b348015610386575f5ffd5b50610379610395366004612dd4565b610ae6565b3480156103a5575f5ffd5b507f52c63247e1f47db19d5ce0460030c497f067ca4cebf71ba98eeadabe20bace02546102b9565b3480156103d8575f5ffd5b506103796103e7366004612e58565b610c53565b3480156103f7575f5ffd5b5061032b610406366004612eea565b610db9565b348015610416575f5ffd5b5061041f610dde565b60405160ff90911681526020016102c3565b34801561043c575f5ffd5b50610379610e20565b348015610450575f5ffd5b50610459610fa9565b6040516001600160a01b0390911681526020016102c3565b34801561047c575f5ffd5b506102b961048b366004612f28565b505f1990565b61037961049f366004612f57565b610fdd565b3480156104af575f5ffd5b506102b9610ffc565b3480156104c3575f5ffd5b506102b96104d236600461301a565b611017565b3480156104e2575f5ffd5b506102b96104f1366004612f28565b611031565b348015610501575f5ffd5b50610379611057565b348015610515575f5ffd5b50610379610524366004612d3f565b611068565b348015610534575f5ffd5b505f54610459906001600160a01b031681565b348015610552575f5ffd5b5061037961116f565b348015610566575f5ffd5b506104596111b4565b34801561057a575f5ffd5b506102e06111dc565b34801561058e575f5ffd5b506102b961059d366004613048565b61121a565b3480156105ad575f5ffd5b5061032b6105bc366004612d6a565b6112f2565b3480156105cc575f5ffd5b506103796112ff565b3480156105e0575f5ffd5b506102e0604051806040016040528060058152602001640352e302e360dc1b81525081565b348015610610575f5ffd5b5061037961061f366004613081565b6114f0565b34801561062f575f5ffd5b506102b961063e366004612d3f565b6117a2565b34801561064e575f5ffd5b506102b96104d23660046130bf565b348015610668575f5ffd5b506106716117ae565b6040516102c39291906130f3565b34801561068a575f5ffd5b50610379610699366004612d3f565b6118c2565b3480156106a9575f5ffd5b506102b9611a3e565b3480156106bd575f5ffd5b506102b96106cc366004612d3f565b611aa5565b3480156106dc575f5ffd5b506102b96106eb366004612f28565b611ab0565b3480156106fb575f5ffd5b506102b9611ac3565b34801561070f575f5ffd5b50610671611b22565b348015610723575f5ffd5b50600254610459906001600160a01b031681565b348015610742575f5ffd5b506102b9610751366004612f28565b611c30565b348015610761575f5ffd5b506102b961077036600461317c565b611c3a565b348015610780575f5ffd5b50610459611c83565b348015610794575f5ffd5b50600154610459906001600160a01b031681565b3480156107b3575f5ffd5b506103796107c2366004612f28565b611cab565b7f52c63247e1f47db19d5ce0460030c497f067ca4cebf71ba98eeadabe20bace0380546060915f5160206135365f395f51905f5291610805906131a8565b80601f0160208091040260200160405190810160405280929190818152602001828054610831906131a8565b801561087c5780601f106108535761010080835404028352916020019161087c565b820191905f5260205f20905b81548152906001019060200180831161085f57829003601f168201915b505050505091505090565b5f610892825f611d30565b92915050565b5f336108a5818585611d3e565b5060019392505050565b5f610892826001611d50565b6108c3611e2a565b805f036108fc576108d2610fa9565b604051636b30633560e01b81526001600160a01b0390911660048201526024015b60405180910390fd5b335f90815260046020526040812054900361095357600680546001810182555f919091527ff652222313e28459528d920b65115c16c04f3efc82aaedc97be59f3f377c0d3f0180546001600160a01b031916331790555b335f90815260046020526040812080548392906109719084906131f4565b909155505f9050610980610fa9565b6001600160a01b03166323b872dd335f5f9054906101000a90046001600160a01b03166001600160a01b0316633a0dad8e6040518163ffffffff1660e01b8152600401602060405180830381865afa1580156109de573d5f5f3e3d5ffd5b505050506040513d601f19601f82011682018060405250810190610a029190613207565b6040516001600160e01b031960e085901b1681526001600160a01b03928316600482015291166024820152604481018590526064016020604051808303815f875af1158015610a53573d5f5f3e3d5ffd5b505050506040513d601f19601f82011682018060405250810190610a779190613222565b905080610a97576040516312171d8360e31b815260040160405180910390fd5b60405182815233907f08d79f77ab5f78e7e780abb1f7ac9e9923340d5bae78f6e83e7999905b248ea29060200160405180910390a250610ae360015f5160206135765f395f51905f5255565b50565b5f5f9054906101000a90046001600160a01b03166001600160a01b0316633a0dad8e6040518163ffffffff1660e01b8152600401602060405180830381865afa158015610b35573d5f5f3e3d5ffd5b505050506040513d601f19601f82011682018060405250810190610b599190613207565b6001600160a01b0316336001600160a01b031614610b8a57604051631af2ab4f60e31b815260040160405180910390fd5b610b946008611e74565b815f5b81811015610c1457610c0b858583818110610bb457610bb4613241565b610bca9260206040909202019081019150612f28565b868684818110610bdc57610bdc613241565b9050604002016020016020810190610bf49190613255565b63ffffffff166008611e7d9092919063ffffffff16565b50600101610b97565b5060038290556040518281527f5e1ff954b5e5257e9ee5d4cb07059e8f5e69b1aaaf9911e5d8d90a6894de9c219060200160405180910390a150505050565b5f610c5c611e9a565b805490915060ff600160401b82041615906001600160401b03165f81158015610c825750825b90505f826001600160401b03166001148015610c9d5750303b155b905081158015610cab575080155b15610cc95760405163f92ee8a960e01b815260040160405180910390fd5b845467ffffffffffffffff191660011785558315610cf357845460ff60401b1916600160401b1785555b610d668b8b8b8b8080601f0160208091040260200160405190810160405280939291908181526020018383808284375f9201919091525050604080516020601f8f018190048102820181019092528d815292508d91508c90819084018382808284375f92019190915250611ec292505050565b8315610dac57845460ff60401b19168555604051600181527fc7f505b2f371ae2175ee4913f4499e1f2633a7b5936321eed1cdaeb6115181d29060200160405180910390a15b5050505050505050505050565b5f33610dc6858285611fe8565b610dd185858561204c565b60019150505b9392505050565b5f807f0773e532dfede91f04b12a73d3d2acd361424f41f76b4fb79f090161e36b4e0090505f8154610e1a9190600160a01b900460ff16613278565b91505090565b5f5f9054906101000a90046001600160a01b03166001600160a01b0316633a0dad8e6040518163ffffffff1660e01b8152600401602060405180830381865afa158015610e6f573d5f5f3e3d5ffd5b505050506040513d601f19601f82011682018060405250810190610e939190613207565b6001600160a01b0316336001600160a01b031614610ec457604051631af2ab4f60e31b815260040160405180910390fd5b610ecc611e2a565b6006545f5b81811015610f8f575f60068281548110610eed57610eed613241565b5f9182526020808320909101546001600160a01b03168083526004909152604082205490925090610f1d82611aa5565b6001600160a01b0384165f908152600460205260408120559050610f4183826120a9565b826001600160a01b03167f85a190caa61692b36b63a55e069330d18ab9af179fed7a25c16a4262bc63b7d283604051610f7c91815260200190565b60405180910390a2505050600101610ed1565b5050610fa760015f5160206135765f395f51905f5255565b565b5f807f0773e532dfede91f04b12a73d3d2acd361424f41f76b4fb79f090161e36b4e005b546001600160a01b031692915050565b610fe56120dd565b610fee82612181565b610ff882826121ac565b5050565b5f611005612268565b505f5160206135565f395f51905f5290565b5f60405163125ad87760e31b815260040160405180910390fd5b6001600160a01b03165f9081525f5160206135365f395f51905f52602052604090205490565b61105f6122b1565b610fa75f6122e3565b805f03611088576040516314e6cbb960e11b815260040160405180910390fd5b8061109233611031565b10156110b157604051633c57b48560e21b815260040160405180910390fd5b335f90815260056020526040812054900361110857600780546001810182555f919091527fa66cc928b5edb82af9bd49922954155ab7b0942694bea4ce44661d9a8736c6880180546001600160a01b031916331790555b335f90815260056020526040812080548392906111269084906131f4565b90915550611137905033308361204c565b60405181815233907ff7774b688d56120b783560a913ee60792a73dfd511812b7be5eccf10d08c66899060200160405180910390a250565b3380611179611c83565b6001600160a01b0316146111ab5760405163118cdaa760e01b81526001600160a01b03821660048201526024016108f3565b610ae3816122e3565b5f807f9016d09d72d40fdae2fd8ceac6b6234c7706214fd39c1cd1e609a0528c199300610fcd565b7f52c63247e1f47db19d5ce0460030c497f067ca4cebf71ba98eeadabe20bace0480546060915f5160206135365f395f51905f5291610805906131a8565b5f5f6112447f52c63247e1f47db19d5ce0460030c497f067ca4cebf71ba98eeadabe20bace025490565b90505f5f5f9054906101000a90046001600160a01b03166001600160a01b031663b71ee4fc6040518163ffffffff1660e01b8152600401602060405180830381865afa158015611296573d5f5f3e3d5ffd5b505050506040513d601f19601f820116820180604052508101906112ba9190613291565b90506112e86112ca8660016131f4565b6112d583600a613394565b6112df90856131f4565b8891908761231b565b9695505050505050565b5f336108a581858561204c565b5f5f9054906101000a90046001600160a01b03166001600160a01b0316633a0dad8e6040518163ffffffff1660e01b8152600401602060405180830381865afa15801561134e573d5f5f3e3d5ffd5b505050506040513d601f19601f820116820180604052508101906113729190613207565b6001600160a01b0316336001600160a01b0316146113a357604051631af2ab4f60e31b815260040160405180910390fd5b6113ab611e2a565b6007545f5b81811015610f8f575f600782815481106113cc576113cc613241565b5f9182526020808320909101546001600160a01b0316808352600590915260408220805492905591506113ff308261235d565b5f61140982610887565b9050611413610fa9565b60405163a9059cbb60e01b81526001600160a01b03858116600483015260248201849052919091169063a9059cbb906044016020604051808303815f875af1158015611461573d5f5f3e3d5ffd5b505050506040513d601f19601f820116820180604052508101906114859190613222565b6114a2576040516312171d8360e31b815260040160405180910390fd5b826001600160a01b03167f44b2ff9ffcefe2052a8afdbed44a04bf3db4592ae90c6b96c818bd28573e41e8836040516114dd91815260200190565b60405180910390a25050506001016113b0565b6001546001600160a01b0316331461151b576040516356b381a560e01b815260040160405180910390fd5b5f81900361153c57604051631121aa8d60e01b815260040160405180910390fd5b611546600b611e74565b5f81815b818110156116d0575f85858381811061156557611565613241565b61157b9260206040909202019081019150612f28565b90505f86868481811061159057611590613241565b90506040020160200160208101906115a89190613255565b5f54604051633af32abf60e01b81526001600160a01b038581166004830152929350911690633af32abf90602401602060405180830381865afa1580156115f1573d5f5f3e3d5ffd5b505050506040513d601f19601f820116820180604052508101906116159190613222565b61163d5760405163751dff9760e11b81526001600160a01b03831660048201526024016108f3565b8063ffffffff165f0361166e57604051636b30633560e01b81526001600160a01b03831660048201526024016108f3565b5f611684600b8463ffffffff80861690611e7d16565b9050806116af576040516346bdabe160e01b81526001600160a01b03841660048201526024016108f3565b6116bf63ffffffff8316876131f4565b9550506001909201915061154a9050565b505f5f5f9054906101000a90046001600160a01b03166001600160a01b031663d1717c7d6040518163ffffffff1660e01b8152600401602060405180830381865afa158015611721573d5f5f3e3d5ffd5b505050506040513d601f19601f820116820180604052508101906117459190613291565b905061175281600a613394565b831461177157604051639006dd2760e01b815260040160405180910390fd5b60405133907f2d47a742b8d7df7c1fc5a9a631b206b364e6cb2722490759f63bb3ab14b132e0905f90a25050505050565b5f610892826001611d30565b6060805f6117bc600b612391565b9050806001600160401b038111156117d6576117d6612f43565b6040519080825280602002602001820160405280156117ff578160200160208202803683370190505b509250806001600160401b0381111561181a5761181a612f43565b604051908082528060200260200182016040528015611843578160200160208202803683370190505b5091505f5b818110156118bc575f8061185d600b8461239b565b915091508186848151811061187457611874613241565b60200260200101906001600160a01b031690816001600160a01b031681525050808584815181106118a7576118a7613241565b60209081029190910101525050600101611848565b50509091565b6118ca611e2a565b805f036118d9576108d2610fa9565b335f90815260046020526040902054811115611908576040516332194fd360e21b815260040160405180910390fd5b335f90815260046020526040812080548392906119269084906133a2565b90915550505f5460408051631d06d6c760e11b815290516001600160a01b0390921691633a0dad8e916004808201926020929091908290030181865afa158015611972573d5f5f3e3d5ffd5b505050506040513d601f19601f820116820180604052508101906119969190613207565b6040516351edffb160e01b8152336004820152602481018390526001600160a01b0391909116906351edffb1906044015f604051808303815f87803b1580156119dd575f5ffd5b505af11580156119ef573d5f5f3e3d5ffd5b50506040518381523392507f96a9a6886cdf3047a125454218a23d3961fd3a78643123b248a9d106d0ac94fd915060200160405180910390a2610ae360015f5160206135765f395f51905f5255565b6007545f908190815b81811015611a9d5760055f60078381548110611a6557611a65613241565b5f9182526020808320909101546001600160a01b03168352820192909252604001902054611a9390846131f4565b9250600101611a47565b509092915050565b5f610892825f611d50565b5f610892611abd83611031565b5f611d30565b6006545f908190815b81811015611a9d5760045f60068381548110611aea57611aea613241565b5f9182526020808320909101546001600160a01b03168352820192909252604001902054611b1890846131f4565b9250600101611acc565b6060805f611b306008612391565b9050806001600160401b03811115611b4a57611b4a612f43565b604051908082528060200260200182016040528015611b73578160200160208202803683370190505b509250806001600160401b03811115611b8e57611b8e612f43565b604051908082528060200260200182016040528015611bb7578160200160208202803683370190505b5091505f5b818110156118bc575f80611bd160088461239b565b9150915081868481518110611be857611be8613241565b60200260200101906001600160a01b031690816001600160a01b03168152505080858481518110611c1b57611c1b613241565b60209081029190910101525050600101611bbc565b5f61089282611031565b6001600160a01b039182165f9081527f52c63247e1f47db19d5ce0460030c497f067ca4cebf71ba98eeadabe20bace016020908152604080832093909416825291909152205490565b5f807f237e158222e3e6968b72b9db0d8043aacf074ad9f650f0d1606b4d82ee432c00610fcd565b611cb36122b1565b7f237e158222e3e6968b72b9db0d8043aacf074ad9f650f0d1606b4d82ee432c0080546001600160a01b0319166001600160a01b0383169081178255611cf76111b4565b6001600160a01b03167f38d16b8cac22d99fc7c124b9cd0de2d3fa1faef420bfe791d8c362d765e2270060405160405180910390a35050565b5f610dd7836003548461121a565b611d4b83838360016123b8565b505050565b5f5f611d7a7f52c63247e1f47db19d5ce0460030c497f067ca4cebf71ba98eeadabe20bace025490565b90505f5f5f9054906101000a90046001600160a01b03166001600160a01b031663b71ee4fc6040518163ffffffff1660e01b8152600401602060405180830381865afa158015611dcc573d5f5f3e3d5ffd5b505050506040513d601f19601f82011682018060405250810190611df09190613291565b9050611e21611e0082600a613394565b611e0a90846131f4565b600354611e189060016131f4565b8791908761231b565b95945050505050565b5f5160206135765f395f51905f52805460011901611e5b57604051633ee5aeb560e01b815260040160405180910390fd5b60029055565b60015f5160206135765f395f51905f5255565b610ae38161249c565b5f611e92846001600160a01b038516846124e5565b949350505050565b5f807ff0c57e16840df040f15088dc2f81fe391c3923bec73e23a9662efc9c229c6a00610892565b611eca612501565b6001600160a01b038416611ef157604051639c6bb9f560e01b815260040160405180910390fd5b6001600160a01b038316611f1857604051636a485a5b60e11b815260040160405180910390fd5b611f228282612526565b611f8a836001600160a01b0316637158da7c6040518163ffffffff1660e01b8152600401602060405180830381865afa158015611f61573d5f5f3e3d5ffd5b505050506040513d601f19601f82011682018060405250810190611f859190613207565b612538565b611f92612549565b611f9b84612559565b611fa361256a565b611fab61256a565b5050600280546001600160a01b03199081163317909155600180546001600160a01b039485169083161790555f8054929093169116178155600355565b5f611ff38484611c3a565b90505f19811015612046578181101561203857604051637dc7a0d960e11b81526001600160a01b038416600482015260248101829052604481018390526064016108f3565b61204684848484035f6123b8565b50505050565b6001600160a01b03831661207557604051634b637e8f60e11b81525f60048201526024016108f3565b6001600160a01b03821661209e5760405163ec442f0560e01b81525f60048201526024016108f3565b611d4b838383612572565b6001600160a01b0382166120d25760405163ec442f0560e01b81525f60048201526024016108f3565b610ff85f8383612572565b306001600160a01b037f000000000000000000000000000000000000000000000000000000000000000016148061216357507f00000000000000000000000000000000000000000000000000000000000000006001600160a01b03166121575f5160206135565f395f51905f52546001600160a01b031690565b6001600160a01b031614155b15610fa75760405163703e46dd60e11b815260040160405180910390fd5b6001546001600160a01b03163314610ae3576040516356b381a560e01b815260040160405180910390fd5b816001600160a01b03166352d1902d6040518163ffffffff1660e01b8152600401602060405180830381865afa925050508015612206575060408051601f3d908101601f19168201909252612203918101906133b5565b60015b61222e57604051634c9c8ce360e01b81526001600160a01b03831660048201526024016108f3565b5f5160206135565f395f51905f52811461225e57604051632a87526960e21b8152600481018290526024016108f3565b611d4b83836126ab565b306001600160a01b037f00000000000000000000000000000000000000000000000000000000000000001614610fa75760405163703e46dd60e11b815260040160405180910390fd5b336122ba6111b4565b6001600160a01b031614610fa75760405163118cdaa760e01b81523360048201526024016108f3565b7f237e158222e3e6968b72b9db0d8043aacf074ad9f650f0d1606b4d82ee432c0080546001600160a01b0319168155610ff882612700565b5f61234861232883612770565b801561234357505f848061233e5761233e6133cc565b868809115b151590565b61235386868661279c565b611e2191906131f4565b6001600160a01b03821661238657604051634b637e8f60e11b81525f60048201526024016108f3565b610ff8825f83612572565b5f6108928261284c565b5f8080806123a98686612856565b909450925050505b9250929050565b5f5160206135365f395f51905f526001600160a01b0385166123ef5760405163e602df0560e01b81525f60048201526024016108f3565b6001600160a01b03841661241857604051634a1406b160e11b81525f60048201526024016108f3565b6001600160a01b038086165f9081526001830160209081526040808320938816835292905220839055811561249557836001600160a01b0316856001600160a01b03167f8c5be1e5ebec7d5bd14f71427d1e84f3dd0314c0f7b2291e5b200ac8c7c3b9258560405161248c91815260200190565b60405180910390a35b5050505050565b5f6124a68261284c565b90505f5b818110156124db57600283015f6124c1858461287f565b815260208101919091526040015f908120556001016124aa565b50610ff88261288a565b5f8281526002840160205260408120829055611e928484612893565b61250961289e565b610fa757604051631afcd79f60e31b815260040160405180910390fd5b61252e612501565b610ff882826128b7565b612540612501565b610ae381612907565b612551612501565b610fa761298a565b612561612501565b610ae381612992565b610fa7612501565b5f5160206135365f395f51905f526001600160a01b0384166125ac5781816002015f8282546125a191906131f4565b9091555061261c9050565b6001600160a01b0384165f90815260208290526040902054828110156125fe5760405163391434e360e21b81526001600160a01b038616600482015260248101829052604481018490526064016108f3565b6001600160a01b0385165f9081526020839052604090209083900390555b6001600160a01b03831661263a576002810180548390039055612658565b6001600160a01b0383165f9081526020829052604090208054830190555b826001600160a01b0316846001600160a01b03167fddf252ad1be2c89b69c2b068fc378daa952ba7f163c4a11628f55a4df523b3ef8460405161269d91815260200190565b60405180910390a350505050565b6126b4826129c3565b6040516001600160a01b038316907fbc7cd75a20ee27fd9adebab32041f755214dbc6bffa90cc0225b39da2e5c2d3b905f90a28051156126f857611d4b8282612a26565b610ff8612a8f565b7f9016d09d72d40fdae2fd8ceac6b6234c7706214fd39c1cd1e609a0528c19930080546001600160a01b031981166001600160a01b03848116918217845560405192169182907f8be0079c531659141344cd1fd0a4f28419497f9722a3daafe3b4186f6b6457e0905f90a3505050565b5f6002826003811115612785576127856133e0565b61278f91906133f4565b60ff166001149050919050565b5f5f5f6127a98686612aae565b91509150815f036127cd578381816127c3576127c36133cc565b0492505050610dd7565b8184116127e4576127e46003851502601118612aca565b5f848688095f868103871696879004966002600389028118808a02820302808a02820302808a02820302808a02820302808a02820302808a02909103029181900381900460010185841190960395909502919093039390930492909217029150509392505050565b5f61089282612adb565b5f8080612863858561287f565b5f81815260029690960160205260409095205494959350505050565b5f610dd78383612ae4565b610ae381612b0a565b5f610dd78383612b63565b5f6128a7611e9a565b54600160401b900460ff16919050565b6128bf612501565b5f5160206135365f395f51905f527f52c63247e1f47db19d5ce0460030c497f067ca4cebf71ba98eeadabe20bace036128f88482613465565b50600481016120468382613465565b61290f612501565b7f0773e532dfede91f04b12a73d3d2acd361424f41f76b4fb79f090161e36b4e005f8061293b84612baf565b915091508161294b57601261294d565b805b83546001600160a81b031916600160a01b60ff92909216919091026001600160a01b031916176001600160a01b0394909416939093179091555050565b611e61612501565b61299a612501565b6001600160a01b0381166111ab57604051631e4fbdf760e01b81525f60048201526024016108f3565b806001600160a01b03163b5f036129f857604051634c9c8ce360e01b81526001600160a01b03821660048201526024016108f3565b5f5160206135565f395f51905f5280546001600160a01b0319166001600160a01b0392909216919091179055565b60605f5f846001600160a01b031684604051612a42919061351f565b5f60405180830381855af49150503d805f8114612a7a576040519150601f19603f3d011682016040523d82523d5f602084013e612a7f565b606091505b5091509150611e21858383612c85565b3415610fa75760405163b398979f60e01b815260040160405180910390fd5b5f805f1983850993909202808410938190039390930393915050565b634e487b715f52806020526024601cfd5b5f610892825490565b5f825f018281548110612af957612af9613241565b905f5260205f200154905092915050565b5f612b13825490565b90505f5b81811015612b5c57826001015f845f018381548110612b3857612b38613241565b905f5260205f20015481526020019081526020015f205f9055806001019050612b17565b50505f9055565b5f818152600183016020526040812054612ba857508154600181810184555f848152602080822090930184905584548482528286019093526040902091909155610892565b505f610892565b60408051600481526024810182526020810180516001600160e01b031663313ce56760e01b17905290515f918291829182916001600160a01b03871691612bf59161351f565b5f60405180830381855afa9150503d805f8114612c2d576040519150601f19603f3d011682016040523d82523d5f602084013e612c32565b606091505b5091509150818015612c4657506020815110155b15612c79575f81806020019051810190612c6091906133b5565b905060ff8111612c77576001969095509350505050565b505b505f9485945092505050565b606082612c9a57612c9582612ce1565b610dd7565b8151158015612cb157506001600160a01b0384163b155b15612cda57604051639996b31560e01b81526001600160a01b03851660048201526024016108f3565b5080610dd7565b805115612cf15780518082602001fd5b60405163d6bda27560e01b815260040160405180910390fd5b602081525f82518060208401528060208501604085015e5f604082850101526040601f19601f83011684010191505092915050565b5f60208284031215612d4f575f5ffd5b5035919050565b6001600160a01b0381168114610ae3575f5ffd5b5f5f60408385031215612d7b575f5ffd5b8235612d8681612d56565b946020939093013593505050565b5f5f83601f840112612da4575f5ffd5b5081356001600160401b03811115612dba575f5ffd5b6020830191508360208260061b85010111156123b1575f5ffd5b5f5f5f60408486031215612de6575f5ffd5b83356001600160401b03811115612dfb575f5ffd5b612e0786828701612d94565b909790965060209590950135949350505050565b5f5f83601f840112612e2b575f5ffd5b5081356001600160401b03811115612e41575f5ffd5b6020830191508360208285010111156123b1575f5ffd5b5f5f5f5f5f5f60808789031215612e6d575f5ffd5b8635612e7881612d56565b95506020870135612e8881612d56565b945060408701356001600160401b03811115612ea2575f5ffd5b612eae89828a01612e1b565b90955093505060608701356001600160401b03811115612ecc575f5ffd5b612ed889828a01612e1b565b979a9699509497509295939492505050565b5f5f5f60608486031215612efc575f5ffd5b8335612f0781612d56565b92506020840135612f1781612d56565b929592945050506040919091013590565b5f60208284031215612f38575f5ffd5b8135610dd781612d56565b634e487b7160e01b5f52604160045260245ffd5b5f5f60408385031215612f68575f5ffd5b8235612f7381612d56565b915060208301356001600160401b03811115612f8d575f5ffd5b8301601f81018513612f9d575f5ffd5b80356001600160401b03811115612fb657612fb6612f43565b604051601f8201601f19908116603f011681016001600160401b0381118282101715612fe457612fe4612f43565b604052818152828201602001871015612ffb575f5ffd5b816020840160208301375f602083830101528093505050509250929050565b5f5f6040838503121561302b575f5ffd5b82359150602083013561303d81612d56565b809150509250929050565b5f5f5f6060848603121561305a575f5ffd5b8335925060208401359150604084013560048110613076575f5ffd5b809150509250925092565b5f5f60208385031215613092575f5ffd5b82356001600160401b038111156130a7575f5ffd5b6130b385828601612d94565b90969095509350505050565b5f5f5f606084860312156130d1575f5ffd5b8335925060208401356130e381612d56565b9150604084013561307681612d56565b604080825283519082018190525f9060208501906060840190835b818110156131355783516001600160a01b031683526020938401939092019160010161310e565b5050838103602080860191909152855180835291810192508501905f5b81811015613170578251845260209384019390920191600101613152565b50919695505050505050565b5f5f6040838503121561318d575f5ffd5b823561319881612d56565b9150602083013561303d81612d56565b600181811c908216806131bc57607f821691505b6020821081036131da57634e487b7160e01b5f52602260045260245ffd5b50919050565b634e487b7160e01b5f52601160045260245ffd5b80820180821115610892576108926131e0565b5f60208284031215613217575f5ffd5b8151610dd781612d56565b5f60208284031215613232575f5ffd5b81518015158114610dd7575f5ffd5b634e487b7160e01b5f52603260045260245ffd5b5f60208284031215613265575f5ffd5b813563ffffffff81168114610dd7575f5ffd5b60ff8181168382160190811115610892576108926131e0565b5f602082840312156132a1575f5ffd5b815160ff81168114610dd7575f5ffd5b6001815b60018411156132ec578085048111156132d0576132d06131e0565b60018416156132de57908102905b60019390931c9280026132b5565b935093915050565b5f8261330257506001610892565b8161330e57505f610892565b8160018114613324576002811461332e5761334a565b6001915050610892565b60ff84111561333f5761333f6131e0565b50506001821b610892565b5060208310610133831016604e8410600b841016171561336d575081810a610892565b6133795f1984846132b1565b805f190482111561338c5761338c6131e0565b029392505050565b5f610dd760ff8416836132f4565b81810381811115610892576108926131e0565b5f602082840312156133c5575f5ffd5b5051919050565b634e487b7160e01b5f52601260045260245ffd5b634e487b7160e01b5f52602160045260245ffd5b5f60ff83168061341257634e487b7160e01b5f52601260045260245ffd5b8060ff84160691505092915050565b601f821115611d4b57805f5260205f20601f840160051c810160208510156134465750805b601f840160051c820191505b81811015612495575f8155600101613452565b81516001600160401b0381111561347e5761347e612f43565b6134928161348c84546131a8565b84613421565b6020601f8211600181146134c4575f83156134ad5750848201515b5f19600385901b1c1916600184901b178455612495565b5f84815260208120601f198516915b828110156134f357878501518255602094850194600190920191016134d3565b508482101561351057868401515f19600387901b60f8161c191681555b50505050600190811b01905550565b5f82518060208501845e5f92019182525091905056fe52c63247e1f47db19d5ce0460030c497f067ca4cebf71ba98eeadabe20bace00360894a13ba1a3210667c828492db98dca3e2076cc3735a920a3ca505d382bbc9b779b17422d0df92223018b32b4d1fa46e071723d6817e2486d003becc55f00a2646970667358221220545857e2bedf7d9de37ff5c93a0c4d7e057222f6deb17cb0280e249d395deddf64736f6c634300081c003360a0604052306080523480156012575f5ffd5b506080516137276100395f395f818161223e0152818161226701526123c901526137275ff3fe6080604052600436106102a5575f3560e01c806394bf804d1161016f578063c37fc8a8116100d8578063d5f3948811610092578063e30c39781161006d578063e30c397814610775578063e66f53b714610789578063ef8b30f7146106b2578063f2fde38b146107a8575f5ffd5b8063d5f3948814610718578063d905777e14610737578063dd62ed3e14610756575f5ffd5b8063c37fc8a81461069e578063c63d75b614610452578063c6e6f592146106b2578063ce96cb77146106d1578063d1699c26146106f0578063d3d0345814610704575f5ffd5b8063ad3cb1cc11610129578063ad3cb1cc146105f4578063b3d7f6b914610624578063b460af9414610643578063b6eba6531461065d578063ba08765214610643578063c0b568e11461067f575f5ffd5b806394bf804d1461049957806395d89b411461056f578063985ba4ae14610583578063a68a5267146105a2578063a9059cbb146105c1578063aa9d3a60146105e0575f5ffd5b8063402d267d11610211578063715018a6116101cb578063715018a6146104d7578063745400c9146104eb57806379502c551461050a57806379ba5097146105285780637f5fc5f91461053c5780638da5cb5b1461055b575f5ffd5b8063402d267d146104525780634cdad506146102ed5780634f1ef2861461047257806352d1902d146104855780636e553f651461049957806370a08231146104b8575f5ffd5b806318160ddd1161026257806318160ddd1461037b5780632016a0d2146103ae57806323b872dd146103cd578063313ce567146103ec57806333fdc5921461041257806338d52e0f14610426575f5ffd5b806301e1d114146102a957806306fdde03146102cc57806307a2d13a146102ed578063095ea7b31461030c5780630a28a4771461033b5780630d1e66671461035a575b5f5ffd5b3480156102b4575f5ffd5b506003545b6040519081526020015b60405180910390f35b3480156102d7575f5ffd5b506102e06107c7565b6040516102c39190612e82565b3480156102f8575f5ffd5b506102b9610307366004612eb7565b610887565b348015610317575f5ffd5b5061032b610326366004612ee2565b610898565b60405190151581526020016102c3565b348015610346575f5ffd5b506102b9610355366004612eb7565b6108af565b348015610365575f5ffd5b50610379610374366004612eb7565b6108bb565b005b348015610386575f5ffd5b507f52c63247e1f47db19d5ce0460030c497f067ca4cebf71ba98eeadabe20bace02546102b9565b3480156103b9575f5ffd5b506103796103c8366004612f50565b610ae6565b3480156103d8575f5ffd5b5061032b6103e7366004612fe2565b610c4c565b3480156103f7575f5ffd5b50610400610c71565b60405160ff90911681526020016102c3565b34801561041d575f5ffd5b50610379610cb3565b348015610431575f5ffd5b5061043a610e3c565b6040516001600160a01b0390911681526020016102c3565b34801561045d575f5ffd5b506102b961046c366004613020565b505f1990565b61037961048036600461304f565b610e70565b348015610490575f5ffd5b506102b9610e8f565b3480156104a4575f5ffd5b506102b96104b3366004613112565b610eaa565b3480156104c3575f5ffd5b506102b96104d2366004613020565b610ec4565b3480156104e2575f5ffd5b50610379610eea565b3480156104f6575f5ffd5b50610379610505366004612eb7565b610efb565b348015610515575f5ffd5b505f5461043a906001600160a01b031681565b348015610533575f5ffd5b50610379611002565b348015610547575f5ffd5b50610379610556366004613180565b611047565b348015610566575f5ffd5b5061043a611343565b34801561057a575f5ffd5b506102e061136b565b34801561058e575f5ffd5b5061037961059d3660046131be565b6113a9565b3480156105ad575f5ffd5b506102b96105bc366004613205565b6115c1565b3480156105cc575f5ffd5b5061032b6105db366004612ee2565b611699565b3480156105eb575f5ffd5b506103796116a6565b3480156105ff575f5ffd5b506102e0604051806040016040528060058152602001640352e302e360dc1b81525081565b34801561062f575f5ffd5b506102b961063e366004612eb7565b611897565b34801561064e575f5ffd5b506102b96104b336600461323e565b348015610668575f5ffd5b506106716118a3565b6040516102c3929190613272565b34801561068a575f5ffd5b50610379610699366004612eb7565b611a04565b3480156106a9575f5ffd5b506102b9611b80565b3480156106bd575f5ffd5b506102b96106cc366004612eb7565b611be7565b3480156106dc575f5ffd5b506102b96106eb366004613020565b611bf2565b3480156106fb575f5ffd5b506102b9611c05565b34801561070f575f5ffd5b50610671611c64565b348015610723575f5ffd5b5060025461043a906001600160a01b031681565b348015610742575f5ffd5b506102b9610751366004613020565b611dac565b348015610761575f5ffd5b506102b96107703660046132fb565b611db6565b348015610780575f5ffd5b5061043a611dff565b348015610794575f5ffd5b5060015461043a906001600160a01b031681565b3480156107b3575f5ffd5b506103796107c2366004613020565b611e27565b7f52c63247e1f47db19d5ce0460030c497f067ca4cebf71ba98eeadabe20bace0380546060915f5160206136925f395f51905f529161080590613327565b80601f016020809104026020016040519081016040528092919081815260200182805461083190613327565b801561087c5780601f106108535761010080835404028352916020019161087c565b820191905f5260205f20905b81548152906001019060200180831161085f57829003601f168201915b505050505091505090565b5f610892825f611eac565b92915050565b5f336108a5818585611eba565b5060019392505050565b5f610892826001611ecc565b6108c3611fa6565b805f036108fc576108d2610e3c565b604051636b30633560e01b81526001600160a01b0390911660048201526024015b60405180910390fd5b335f90815260046020526040812054900361095357600680546001810182555f919091527ff652222313e28459528d920b65115c16c04f3efc82aaedc97be59f3f377c0d3f0180546001600160a01b031916331790555b335f9081526004602052604081208054839290610971908490613373565b909155505f9050610980610e3c565b6001600160a01b03166323b872dd335f5f9054906101000a90046001600160a01b03166001600160a01b0316633a0dad8e6040518163ffffffff1660e01b8152600401602060405180830381865afa1580156109de573d5f5f3e3d5ffd5b505050506040513d601f19601f82011682018060405250810190610a029190613386565b6040516001600160e01b031960e085901b1681526001600160a01b03928316600482015291166024820152604481018590526064016020604051808303815f875af1158015610a53573d5f5f3e3d5ffd5b505050506040513d601f19601f82011682018060405250810190610a7791906133a1565b905080610a97576040516312171d8360e31b815260040160405180910390fd5b60405182815233907f08d79f77ab5f78e7e780abb1f7ac9e9923340d5bae78f6e83e7999905b248ea29060200160405180910390a250610ae360015f5160206136d25f395f51905f5255565b50565b5f610aef611ff0565b805490915060ff600160401b82041615906001600160401b03165f81158015610b155750825b90505f826001600160401b03166001148015610b305750303b155b905081158015610b3e575080155b15610b5c5760405163f92ee8a960e01b815260040160405180910390fd5b845467ffffffffffffffff191660011785558315610b8657845460ff60401b1916600160401b1785555b610bf98b8b8b8b8080601f0160208091040260200160405190810160405280939291908181526020018383808284375f9201919091525050604080516020601f8f018190048102820181019092528d815292508d91508c90819084018382808284375f9201919091525061201892505050565b8315610c3f57845460ff60401b19168555604051600181527fc7f505b2f371ae2175ee4913f4499e1f2633a7b5936321eed1cdaeb6115181d29060200160405180910390a15b5050505050505050505050565b5f33610c5985828561213e565b610c648585856121a2565b60019150505b9392505050565b5f807f0773e532dfede91f04b12a73d3d2acd361424f41f76b4fb79f090161e36b4e0090505f8154610cad9190600160a01b900460ff166133c0565b91505090565b5f5f9054906101000a90046001600160a01b03166001600160a01b0316633a0dad8e6040518163ffffffff1660e01b8152600401602060405180830381865afa158015610d02573d5f5f3e3d5ffd5b505050506040513d601f19601f82011682018060405250810190610d269190613386565b6001600160a01b0316336001600160a01b031614610d5757604051631af2ab4f60e31b815260040160405180910390fd5b610d5f611fa6565b6006545f5b81811015610e22575f60068281548110610d8057610d806133d9565b5f9182526020808320909101546001600160a01b03168083526004909152604082205490925090610db082611be7565b6001600160a01b0384165f908152600460205260408120559050610dd483826121ff565b826001600160a01b03167f85a190caa61692b36b63a55e069330d18ab9af179fed7a25c16a4262bc63b7d283604051610e0f91815260200190565b60405180910390a2505050600101610d64565b5050610e3a60015f5160206136d25f395f51905f5255565b565b5f807f0773e532dfede91f04b12a73d3d2acd361424f41f76b4fb79f090161e36b4e005b546001600160a01b031692915050565b610e78612233565b610e81826122d7565b610e8b8282612302565b5050565b5f610e986123be565b505f5160206136b25f395f51905f5290565b5f60405163125ad87760e31b815260040160405180910390fd5b6001600160a01b03165f9081525f5160206136925f395f51905f52602052604090205490565b610ef2612407565b610e3a5f612439565b805f03610f1b576040516314e6cbb960e11b815260040160405180910390fd5b80610f2533610ec4565b1015610f4457604051633c57b48560e21b815260040160405180910390fd5b335f908152600560205260408120549003610f9b57600780546001810182555f919091527fa66cc928b5edb82af9bd49922954155ab7b0942694bea4ce44661d9a8736c6880180546001600160a01b031916331790555b335f9081526005602052604081208054839290610fb9908490613373565b90915550610fca90503330836121a2565b60405181815233907ff7774b688d56120b783560a913ee60792a73dfd511812b7be5eccf10d08c66899060200160405180910390a250565b338061100c611dff565b6001600160a01b03161461103e5760405163118cdaa760e01b81526001600160a01b03821660048201526024016108f3565b610ae381612439565b6001546001600160a01b03163314611072576040516356b381a560e01b815260040160405180910390fd5b5f81900361109357604051631121aa8d60e01b815260040160405180910390fd5b5f61109d5f612471565b600b549091505f5b818110156110f05782600a5f600b84815481106110c4576110c46133d9565b5f9182526020808320909101546001600160a01b031683528201929092526040019020556001016110a5565b506110fc600b5f612e54565b81835f5b818110156112b2575f87878381811061111b5761111b6133d9565b6111319260206040909202019081019150613020565b90505f888884818110611146576111466133d9565b5f5460408051633af32abf60e01b81526001600160a01b03888116600483015293909102949094016020013594501691633af32abf9150602401602060405180830381865afa15801561119b573d5f5f3e3d5ffd5b505050506040513d601f19601f820116820180604052508101906111bf91906133a1565b6111e75760405163751dff9760e11b81526001600160a01b03831660048201526024016108f3565b6001600160a01b0382165f908152600c602052604090205460ff161561122b576040516346bdabe160e01b81526001600160a01b03831660048201526024016108f3565b6001600160a01b0382165f818152600c60209081526040808320805460ff19166001908117909155600a9092528220849055600b805491820181559091527f0175b7a638427703f0dbe7bb9bbf987a2551717b34e79f33b5b1008d1fa01db90180546001600160a01b03191690911790556112a6858261247d565b94505050600101611100565b505f5b8181101561131057600c5f8888848181106112d2576112d26133d9565b6112e89260206040909202019081019150613020565b6001600160a01b0316815260208101919091526040015f20805460ff191690556001016112b5565b5060405133907f2d47a742b8d7df7c1fc5a9a631b206b364e6cb2722490759f63bb3ab14b132e0905f90a2505050505050565b5f807f9016d09d72d40fdae2fd8ceac6b6234c7706214fd39c1cd1e609a0528c199300610e60565b7f52c63247e1f47db19d5ce0460030c497f067ca4cebf71ba98eeadabe20bace0480546060915f5160206136925f395f51905f529161080590613327565b5f5f9054906101000a90046001600160a01b03166001600160a01b0316633a0dad8e6040518163ffffffff1660e01b8152600401602060405180830381865afa1580156113f8573d5f5f3e3d5ffd5b505050506040513d601f19601f8201168201806040525081019061141c9190613386565b6001600160a01b0316336001600160a01b03161461144d57604051631af2ab4f60e31b815260040160405180910390fd5b5f6114575f612471565b6009549091505f5b818110156114aa578260085f6009848154811061147e5761147e6133d9565b5f9182526020808320909101546001600160a01b0316835282019290925260400190205560010161145f565b506114b660095f612e54565b5f5b81811015611581578585828181106114d2576114d26133d9565b9050604002016020013560085f8888858181106114f1576114f16133d9565b6115079260206040909202019081019150613020565b6001600160a01b0316815260208101919091526040015f20556009868683818110611534576115346133d9565b61154a9260206040909202019081019150613020565b8154600180820184555f93845260209093200180546001600160a01b0319166001600160a01b0392909216919091179055016114b8565b5060038390556040518381527f5e1ff954b5e5257e9ee5d4cb07059e8f5e69b1aaaf9911e5d8d90a6894de9c219060200160405180910390a15050505050565b5f5f6115eb7f52c63247e1f47db19d5ce0460030c497f067ca4cebf71ba98eeadabe20bace025490565b90505f5f5f9054906101000a90046001600160a01b03166001600160a01b031663b71ee4fc6040518163ffffffff1660e01b8152600401602060405180830381865afa15801561163d573d5f5f3e3d5ffd5b505050506040513d601f19601f8201168201806040525081019061166191906133ed565b905061168f611671866001613373565b61167c83600a6134f0565b6116869085613373565b889190876124ab565b9695505050505050565b5f336108a58185856121a2565b5f5f9054906101000a90046001600160a01b03166001600160a01b0316633a0dad8e6040518163ffffffff1660e01b8152600401602060405180830381865afa1580156116f5573d5f5f3e3d5ffd5b505050506040513d601f19601f820116820180604052508101906117199190613386565b6001600160a01b0316336001600160a01b03161461174a57604051631af2ab4f60e31b815260040160405180910390fd5b611752611fa6565b6007545f5b81811015610e22575f60078281548110611773576117736133d9565b5f9182526020808320909101546001600160a01b0316808352600590915260408220805492905591506117a630826124ed565b5f6117b082610887565b90506117ba610e3c565b60405163a9059cbb60e01b81526001600160a01b03858116600483015260248201849052919091169063a9059cbb906044016020604051808303815f875af1158015611808573d5f5f3e3d5ffd5b505050506040513d601f19601f8201168201806040525081019061182c91906133a1565b611849576040516312171d8360e31b815260040160405180910390fd5b826001600160a01b03167f44b2ff9ffcefe2052a8afdbed44a04bf3db4592ae90c6b96c818bd28573e41e88360405161188491815260200190565b60405180910390a2505050600101611757565b5f610892826001611eac565b600b546060908190806001600160401b038111156118c3576118c361303b565b6040519080825280602002602001820160405280156118ec578160200160208202803683370190505b509250806001600160401b038111156119075761190761303b565b604051908082528060200260200182016040528015611930578160200160208202803683370190505b5091505f5b818110156119fe57600b8181548110611950576119506133d9565b905f5260205f20015f9054906101000a90046001600160a01b031684828151811061197d5761197d6133d9565b60200260200101906001600160a01b031690816001600160a01b031681525050600a5f600b83815481106119b3576119b36133d9565b5f9182526020808320909101546001600160a01b0316835282019290925260400190205483518490839081106119eb576119eb6133d9565b6020908102919091010152600101611935565b50509091565b611a0c611fa6565b805f03611a1b576108d2610e3c565b335f90815260046020526040902054811115611a4a576040516332194fd360e21b815260040160405180910390fd5b335f9081526004602052604081208054839290611a689084906134fe565b90915550505f5460408051631d06d6c760e11b815290516001600160a01b0390921691633a0dad8e916004808201926020929091908290030181865afa158015611ab4573d5f5f3e3d5ffd5b505050506040513d601f19601f82011682018060405250810190611ad89190613386565b6040516351edffb160e01b8152336004820152602481018390526001600160a01b0391909116906351edffb1906044015f604051808303815f87803b158015611b1f575f5ffd5b505af1158015611b31573d5f5f3e3d5ffd5b50506040518381523392507f96a9a6886cdf3047a125454218a23d3961fd3a78643123b248a9d106d0ac94fd915060200160405180910390a2610ae360015f5160206136d25f395f51905f5255565b6007545f908190815b81811015611bdf5760055f60078381548110611ba757611ba76133d9565b5f9182526020808320909101546001600160a01b03168352820192909252604001902054611bd59084613373565b9250600101611b89565b509092915050565b5f610892825f611ecc565b5f610892611bff83610ec4565b5f611eac565b6006545f908190815b81811015611bdf5760045f60068381548110611c2c57611c2c6133d9565b5f9182526020808320909101546001600160a01b03168352820192909252604001902054611c5a9084613373565b9250600101611c0e565b6009546060908190806001600160401b03811115611c8457611c8461303b565b604051908082528060200260200182016040528015611cad578160200160208202803683370190505b509250806001600160401b03811115611cc857611cc861303b565b604051908082528060200260200182016040528015611cf1578160200160208202803683370190505b5091505f5b818110156119fe575f60098281548110611d1257611d126133d9565b905f5260205f20015f9054906101000a90046001600160a01b0316905080858381518110611d4257611d426133d9565b60200260200101906001600160a01b031690816001600160a01b03168152505060085f826001600160a01b03166001600160a01b031681526020019081526020015f2054848381518110611d9857611d986133d9565b602090810291909101015250600101611cf6565b5f61089282610ec4565b6001600160a01b039182165f9081527f52c63247e1f47db19d5ce0460030c497f067ca4cebf71ba98eeadabe20bace016020908152604080832093909416825291909152205490565b5f807f237e158222e3e6968b72b9db0d8043aacf074ad9f650f0d1606b4d82ee432c00610e60565b611e2f612407565b7f237e158222e3e6968b72b9db0d8043aacf074ad9f650f0d1606b4d82ee432c0080546001600160a01b0319166001600160a01b0383169081178255611e73611343565b6001600160a01b03167f38d16b8cac22d99fc7c124b9cd0de2d3fa1faef420bfe791d8c362d765e2270060405160405180910390a35050565b5f610c6a83600354846115c1565b611ec78383836001612521565b505050565b5f5f611ef67f52c63247e1f47db19d5ce0460030c497f067ca4cebf71ba98eeadabe20bace025490565b90505f5f5f9054906101000a90046001600160a01b03166001600160a01b031663b71ee4fc6040518163ffffffff1660e01b8152600401602060405180830381865afa158015611f48573d5f5f3e3d5ffd5b505050506040513d601f19601f82011682018060405250810190611f6c91906133ed565b9050611f9d611f7c82600a6134f0565b611f869084613373565b600354611f94906001613373565b879190876124ab565b95945050505050565b5f5160206136d25f395f51905f52805460011901611fd757604051633ee5aeb560e01b815260040160405180910390fd5b60029055565b60015f5160206136d25f395f51905f5255565b5f807ff0c57e16840df040f15088dc2f81fe391c3923bec73e23a9662efc9c229c6a00610892565b612020612605565b6001600160a01b03841661204757604051639c6bb9f560e01b815260040160405180910390fd5b6001600160a01b03831661206e57604051636a485a5b60e11b815260040160405180910390fd5b612078828261262a565b6120e0836001600160a01b0316637158da7c6040518163ffffffff1660e01b8152600401602060405180830381865afa1580156120b7573d5f5f3e3d5ffd5b505050506040513d601f19601f820116820180604052508101906120db9190613386565b61263c565b6120e861264d565b6120f18461265d565b6120f961266e565b61210161266e565b5050600280546001600160a01b03199081163317909155600180546001600160a01b039485169083161790555f8054929093169116178155600355565b5f6121498484611db6565b90505f1981101561219c578181101561218e57604051637dc7a0d960e11b81526001600160a01b038416600482015260248101829052604481018390526064016108f3565b61219c84848484035f612521565b50505050565b6001600160a01b0383166121cb57604051634b637e8f60e11b81525f60048201526024016108f3565b6001600160a01b0382166121f45760405163ec442f0560e01b81525f60048201526024016108f3565b611ec7838383612676565b6001600160a01b0382166122285760405163ec442f0560e01b81525f60048201526024016108f3565b610e8b5f8383612676565b306001600160a01b037f00000000000000000000000000000000000000000000000000000000000000001614806122b957507f00000000000000000000000000000000000000000000000000000000000000006001600160a01b03166122ad5f5160206136b25f395f51905f52546001600160a01b031690565b6001600160a01b031614155b15610e3a5760405163703e46dd60e11b815260040160405180910390fd5b6001546001600160a01b03163314610ae3576040516356b381a560e01b815260040160405180910390fd5b816001600160a01b03166352d1902d6040518163ffffffff1660e01b8152600401602060405180830381865afa92505050801561235c575060408051601f3d908101601f1916820190925261235991810190613511565b60015b61238457604051634c9c8ce360e01b81526001600160a01b03831660048201526024016108f3565b5f5160206136b25f395f51905f5281146123b457604051632a87526960e21b8152600481018290526024016108f3565b611ec783836127af565b306001600160a01b037f00000000000000000000000000000000000000000000000000000000000000001614610e3a5760405163703e46dd60e11b815260040160405180910390fd5b33612410611343565b6001600160a01b031614610e3a5760405163118cdaa760e01b81523360048201526024016108f3565b7f237e158222e3e6968b72b9db0d8043aacf074ad9f650f0d1606b4d82ee432c0080546001600160a01b0319168155610e8b82612804565b5f610892826004612874565b5f8261248f5761248c5f612471565b92505b816124a05761249d5f612471565b91505b610c6a83835f612922565b5f6124d86124b8836129e0565b80156124d357505f84806124ce576124ce613528565b868809115b151590565b6124e3868686612a0c565b611f9d9190613373565b6001600160a01b03821661251657604051634b637e8f60e11b81525f60048201526024016108f3565b610e8b825f83612676565b5f5160206136925f395f51905f526001600160a01b0385166125585760405163e602df0560e01b81525f60048201526024016108f3565b6001600160a01b03841661258157604051634a1406b160e11b81525f60048201526024016108f3565b6001600160a01b038086165f908152600183016020908152604080832093881683529290522083905581156125fe57836001600160a01b0316856001600160a01b03167f8c5be1e5ebec7d5bd14f71427d1e84f3dd0314c0f7b2291e5b200ac8c7c3b925856040516125f591815260200190565b60405180910390a35b5050505050565b61260d612abc565b610e3a57604051631afcd79f60e31b815260040160405180910390fd5b612632612605565b610e8b8282612ad5565b612644612605565b610ae381612b25565b612655612605565b610e3a612ba8565b612665612605565b610ae381612bb0565b610e3a612605565b5f5160206136925f395f51905f526001600160a01b0384166126b05781816002015f8282546126a59190613373565b909155506127209050565b6001600160a01b0384165f90815260208290526040902054828110156127025760405163391434e360e21b81526001600160a01b038616600482015260248101829052604481018490526064016108f3565b6001600160a01b0385165f9081526020839052604090209083900390555b6001600160a01b03831661273e57600281018054839003905561275c565b6001600160a01b0383165f9081526020829052604090208054830190555b826001600160a01b0316846001600160a01b03167fddf252ad1be2c89b69c2b068fc378daa952ba7f163c4a11628f55a4df523b3ef846040516127a191815260200190565b60405180910390a350505050565b6127b882612be1565b6040516001600160a01b038316907fbc7cd75a20ee27fd9adebab32041f755214dbc6bffa90cc0225b39da2e5c2d3b905f90a28051156127fc57611ec78282612c44565b610e8b612cad565b7f9016d09d72d40fdae2fd8ceac6b6234c7706214fd39c1cd1e609a0528c19930080546001600160a01b031981166001600160a01b03848116918217845560405192169182907f8be0079c531659141344cd1fd0a4f28419497f9722a3daafe3b4186f6b6457e0905f90a3505050565b5f807fed8d60e34876f751cc8b014c560745351147d9de11b9347c854e881b128ea6006001810154604051631ce2e8d760e31b8152600481018790526001600160f81b031960f887901b1660248201529192506001600160a01b03169063e71746b8906044016020604051808303815f875af11580156128f6573d5f5f3e3d5ffd5b505050506040513d601f19601f8201168201806040525081019061291a9190613511565b949350505050565b5f5f82156129355750600160f81b612938565b505f5b5f7fed8d60e34876f751cc8b014c560745351147d9de11b9347c854e881b128ea600600181015460405163f953e42760e01b815260048101899052602481018890526001600160f81b0319851660448201529192506001600160a01b03169063f953e427906064016020604051808303815f875af11580156129bc573d5f5f3e3d5ffd5b505050506040513d601f19601f8201168201806040525081019061168f9190613511565b5f60028260038111156129f5576129f561353c565b6129ff9190613550565b60ff166001149050919050565b5f5f5f612a198686612ccc565b91509150815f03612a3d57838181612a3357612a33613528565b0492505050610c6a565b818411612a5457612a546003851502601118612ce8565b5f848688095f868103871696879004966002600389028118808a02820302808a02820302808a02820302808a02820302808a02820302808a02909103029181900381900460010185841190960395909502919093039390930492909217029150509392505050565b5f612ac5611ff0565b54600160401b900460ff16919050565b612add612605565b5f5160206136925f395f51905f527f52c63247e1f47db19d5ce0460030c497f067ca4cebf71ba98eeadabe20bace03612b1684826135c1565b506004810161219c83826135c1565b612b2d612605565b7f0773e532dfede91f04b12a73d3d2acd361424f41f76b4fb79f090161e36b4e005f80612b5984612cf9565b9150915081612b69576012612b6b565b805b83546001600160a81b031916600160a01b60ff92909216919091026001600160a01b031916176001600160a01b0394909416939093179091555050565b611fdd612605565b612bb8612605565b6001600160a01b03811661103e57604051631e4fbdf760e01b81525f60048201526024016108f3565b806001600160a01b03163b5f03612c1657604051634c9c8ce360e01b81526001600160a01b03821660048201526024016108f3565b5f5160206136b25f395f51905f5280546001600160a01b0319166001600160a01b0392909216919091179055565b60605f5f846001600160a01b031684604051612c60919061367b565b5f60405180830381855af49150503d805f8114612c98576040519150601f19603f3d011682016040523d82523d5f602084013e612c9d565b606091505b5091509150611f9d858383612dcf565b3415610e3a5760405163b398979f60e01b815260040160405180910390fd5b5f805f1983850993909202808410938190039390930393915050565b634e487b715f52806020526024601cfd5b60408051600481526024810182526020810180516001600160e01b031663313ce56760e01b17905290515f918291829182916001600160a01b03871691612d3f9161367b565b5f60405180830381855afa9150503d805f8114612d77576040519150601f19603f3d011682016040523d82523d5f602084013e612d7c565b606091505b5091509150818015612d9057506020815110155b15612dc3575f81806020019051810190612daa9190613511565b905060ff8111612dc1576001969095509350505050565b505b505f9485945092505050565b606082612de457612ddf82612e2b565b610c6a565b8151158015612dfb57506001600160a01b0384163b155b15612e2457604051639996b31560e01b81526001600160a01b03851660048201526024016108f3565b5080610c6a565b805115612e3b5780518082602001fd5b60405163d6bda27560e01b815260040160405180910390fd5b5080545f8255905f5260205f2090810190610ae391905b80821115612e7e575f8155600101612e6b565b5090565b602081525f82518060208401528060208501604085015e5f604082850101526040601f19601f83011684010191505092915050565b5f60208284031215612ec7575f5ffd5b5035919050565b6001600160a01b0381168114610ae3575f5ffd5b5f5f60408385031215612ef3575f5ffd5b8235612efe81612ece565b946020939093013593505050565b5f5f83601f840112612f1c575f5ffd5b5081356001600160401b03811115612f32575f5ffd5b602083019150836020828501011115612f49575f5ffd5b9250929050565b5f5f5f5f5f5f60808789031215612f65575f5ffd5b8635612f7081612ece565b95506020870135612f8081612ece565b945060408701356001600160401b03811115612f9a575f5ffd5b612fa689828a01612f0c565b90955093505060608701356001600160401b03811115612fc4575f5ffd5b612fd089828a01612f0c565b979a9699509497509295939492505050565b5f5f5f60608486031215612ff4575f5ffd5b8335612fff81612ece565b9250602084013561300f81612ece565b929592945050506040919091013590565b5f60208284031215613030575f5ffd5b8135610c6a81612ece565b634e487b7160e01b5f52604160045260245ffd5b5f5f60408385031215613060575f5ffd5b823561306b81612ece565b915060208301356001600160401b03811115613085575f5ffd5b8301601f81018513613095575f5ffd5b80356001600160401b038111156130ae576130ae61303b565b604051601f8201601f19908116603f011681016001600160401b03811182821017156130dc576130dc61303b565b6040528181528282016020018710156130f3575f5ffd5b816020840160208301375f602083830101528093505050509250929050565b5f5f60408385031215613123575f5ffd5b82359150602083013561313581612ece565b809150509250929050565b5f5f83601f840112613150575f5ffd5b5081356001600160401b03811115613166575f5ffd5b6020830191508360208260061b8501011115612f49575f5ffd5b5f5f60208385031215613191575f5ffd5b82356001600160401b038111156131a6575f5ffd5b6131b285828601613140565b90969095509350505050565b5f5f5f604084860312156131d0575f5ffd5b83356001600160401b038111156131e5575f5ffd5b6131f186828701613140565b909790965060209590950135949350505050565b5f5f5f60608486031215613217575f5ffd5b8335925060208401359150604084013560048110613233575f5ffd5b809150509250925092565b5f5f5f60608486031215613250575f5ffd5b83359250602084013561326281612ece565b9150604084013561323381612ece565b604080825283519082018190525f9060208501906060840190835b818110156132b45783516001600160a01b031683526020938401939092019160010161328d565b5050838103602080860191909152855180835291810192508501905f5b818110156132ef5782518452602093840193909201916001016132d1565b50919695505050505050565b5f5f6040838503121561330c575f5ffd5b823561331781612ece565b9150602083013561313581612ece565b600181811c9082168061333b57607f821691505b60208210810361335957634e487b7160e01b5f52602260045260245ffd5b50919050565b634e487b7160e01b5f52601160045260245ffd5b808201808211156108925761089261335f565b5f60208284031215613396575f5ffd5b8151610c6a81612ece565b5f602082840312156133b1575f5ffd5b81518015158114610c6a575f5ffd5b60ff81811683821601908111156108925761089261335f565b634e487b7160e01b5f52603260045260245ffd5b5f602082840312156133fd575f5ffd5b815160ff81168114610c6a575f5ffd5b6001815b60018411156134485780850481111561342c5761342c61335f565b600184161561343a57908102905b60019390931c928002613411565b935093915050565b5f8261345e57506001610892565b8161346a57505f610892565b8160018114613480576002811461348a576134a6565b6001915050610892565b60ff84111561349b5761349b61335f565b50506001821b610892565b5060208310610133831016604e8410600b84101617156134c9575081810a610892565b6134d55f19848461340d565b805f19048211156134e8576134e861335f565b029392505050565b5f610c6a60ff841683613450565b818103818111156108925761089261335f565b5f60208284031215613521575f5ffd5b5051919050565b634e487b7160e01b5f52601260045260245ffd5b634e487b7160e01b5f52602160045260245ffd5b5f60ff83168061356e57634e487b7160e01b5f52601260045260245ffd5b8060ff84160691505092915050565b601f821115611ec757805f5260205f20601f840160051c810160208510156135a25750805b601f840160051c820191505b818110156125fe575f81556001016135ae565b81516001600160401b038111156135da576135da61303b565b6135ee816135e88454613327565b8461357d565b6020601f821160018114613620575f83156136095750848201515b5f19600385901b1c1916600184901b1784556125fe565b5f84815260208120601f198516915b8281101561364f578785015182556020948501946001909201910161362f565b508482101561366c57868401515f19600387901b60f8161c191681555b50505050600190811b01905550565b5f82518060208501845e5f92019182525091905056fe52c63247e1f47db19d5ce0460030c497f067ca4cebf71ba98eeadabe20bace00360894a13ba1a3210667c828492db98dca3e2076cc3735a920a3ca505d382bbc9b779b17422d0df92223018b32b4d1fa46e071723d6817e2486d003becc55f00a2646970667358221220f7633498b434ee54f7df3051a349bb0b47abb5471144f3e499f154b6e04ba89064736f6c634300081c0033",
  "linkReferences": {},
  "deployedLinkReferences": {}
}