{
  "_format": "hh-sol-artifact-1",
  "contractName": "VaultImplementations",
  "sourceName": "contracts/helpers/VaultImplementations.sol",
  "abi": [
    {
      "inputs": [],
      "stateMutability": "nonpayable",
      "type": "constructor"
    },
    {
      "inputs": [],
      "name": "ENCRYPTED_VAULT_IMPLEMENTATION",
      "outputs": [
        {
          "internalType": "address",
          "name": "",
          "type": "address"
        }
      ],
      "stateMutability": "view",
      "type": "function"
    },
    {
      "inputs": [],
      "name": "TRANSPARENT_VAULT_IMPLEMENTATION",
      "outputs": [
        {
          "internalType": "address",
          "name": "",
          "type": "address"
        }
      ],
      "stateMutability": "view",
      "type": "function"
    }
  ],
  "bytecode": "0x60c0604052348015600e575f5ffd5b506040516019906071565b604051809103905ff0801580156031573d5f5f3e3d5ffd5b506001600160a01b0316608052604051604890607e565b604051809103905ff0801580156060573d5f5f3e3d5ffd5b506001600160a01b031660a052608b565b613c8d8061017a83390190565b61411e80613e0783390190565b60805160a05160d26100a85f395f607a01525f6038015260d25ff3fe6080604052348015600e575f5ffd5b50600436106030575f3560e01c8063292b2f86146034578063fb121699146076575b5f5ffd5b605a7f000000000000000000000000000000000000000000000000000000000000000081565b6040516001600160a01b03909116815260200160405180910390f35b605a7f00000000000000000000000000000000000000000000000000000000000000008156fea2646970667358221220028003e7ea283c49ebb94a3653489ff03ad614f27083213d4552d3f8e82f9f9264736f6c634300081c003360a0604052306080523480156012575f5ffd5b50608051613c546100395f395f81816125f90152818161262201526127840152613c545ff3fe6080604052600436106102bf575f3560e01c806395d89b411161016f578063c63d75b6116100d8578063d5f3948811610092578063e30c39781161006d578063e30c3978146107ae578063e66f53b7146107c2578063ef8b30f7146106cc578063f2fde38b146107e1575f5ffd5b8063d5f3948814610751578063d905777e14610770578063dd62ed3e1461078f575f5ffd5b8063c63d75b61461048b578063c6e6f592146106cc578063cce4705b146106eb578063ce96cb771461070a578063d1699c2614610729578063d3d034581461073d575f5ffd5b8063b3d7f6b911610129578063b3d7f6b91461063e578063b460af941461065d578063b6eba65314610677578063ba0876521461065d578063c0b568e114610699578063c37fc8a8146106b8575f5ffd5b806395d89b4114610589578063a68a52671461059d578063a9059cbb146105bc578063aa9d3a60146105db578063ad3cb1cc146105ef578063b1bd7e2e1461061f575f5ffd5b806338d52e0f1161022b57806370a08231116101e557806379502c55116101c057806379502c551461054357806379ba5097146105615780638da5cb5b1461057557806394bf804d146104d2575f5ffd5b806370a08231146104f1578063715018a614610510578063745400c914610524575f5ffd5b806338d52e0f1461045f578063402d267d1461048b5780634cdad506146103075780634f1ef286146104ab57806352d1902d146104be5780636e553f65146104d2575f5ffd5b8063105444941161027c578063105444941461039557806318160ddd146103b45780632016a0d2146103e757806323b872dd14610406578063313ce5671461042557806333fdc5921461044b575f5ffd5b806301e1d114146102c357806306fdde03146102e657806307a2d13a14610307578063095ea7b3146103265780630a28a477146103555780630d1e666714610374575b5f5ffd5b3480156102ce575f5ffd5b506003545b6040519081526020015b60405180910390f35b3480156102f1575f5ffd5b506102fa610800565b6040516102dd9190613345565b348015610312575f5ffd5b506102d361032136600461337a565b6108c0565b348015610331575f5ffd5b506103456103403660046133a5565b6108d1565b60405190151581526020016102dd565b348015610360575f5ffd5b506102d361036f36600461337a565b6108e8565b34801561037f575f5ffd5b5061039361038e36600461337a565b6108f4565b005b3480156103a0575f5ffd5b506103936103af36600461340f565b610b7e565b3480156103bf575f5ffd5b507f52c63247e1f47db19d5ce0460030c497f067ca4cebf71ba98eeadabe20bace02546102d3565b3480156103f2575f5ffd5b50610393610401366004613493565b610ceb565b348015610411575f5ffd5b50610345610420366004613525565b610e51565b348015610430575f5ffd5b50610439610e76565b60405160ff90911681526020016102dd565b348015610456575f5ffd5b50610393610eb8565b34801561046a575f5ffd5b50610473611143565b6040516001600160a01b0390911681526020016102dd565b348015610496575f5ffd5b506102d36104a5366004613563565b505f1990565b6103936104b9366004613592565b611177565b3480156104c9575f5ffd5b506102d3611196565b3480156104dd575f5ffd5b506102d36104ec366004613655565b6111b1565b3480156104fc575f5ffd5b506102d361050b366004613563565b6111cb565b34801561051b575f5ffd5b506103936111f1565b34801561052f575f5ffd5b5061039361053e36600461337a565b611202565b34801561054e575f5ffd5b505f54610473906001600160a01b031681565b34801561056c575f5ffd5b506103936113e7565b348015610580575f5ffd5b5061047361142c565b348015610594575f5ffd5b506102fa611454565b3480156105a8575f5ffd5b506102d36105b7366004613683565b611492565b3480156105c7575f5ffd5b506103456105d63660046133a5565b6114eb565b3480156105e6575f5ffd5b506103936114f8565b3480156105fa575f5ffd5b506102fa604051806040016040528060058152602001640352e302e360dc1b81525081565b34801561062a575f5ffd5b506103936106393660046136bc565b611821565b348015610649575f5ffd5b506102d361065836600461337a565b611ad3565b348015610668575f5ffd5b506102d36104ec3660046136fa565b348015610682575f5ffd5b5061068b611adf565b6040516102dd92919061372e565b3480156106a4575f5ffd5b506103936106b336600461337a565b611bf3565b3480156106c3575f5ffd5b50600b546102d3565b3480156106d7575f5ffd5b506102d36106e636600461337a565b611da3565b3480156106f6575f5ffd5b5061039361070536600461337a565b611dae565b348015610715575f5ffd5b506102d3610724366004613563565b611f53565b348015610734575f5ffd5b50600a546102d3565b348015610748575f5ffd5b5061068b611f66565b34801561075c575f5ffd5b50600254610473906001600160a01b031681565b34801561077b575f5ffd5b506102d361078a366004613563565b612074565b34801561079a575f5ffd5b506102d36107a93660046137b7565b61207e565b3480156107b9575f5ffd5b506104736120c7565b3480156107cd575f5ffd5b50600154610473906001600160a01b031681565b3480156107ec575f5ffd5b506103936107fb366004613563565b6120ef565b7f52c63247e1f47db19d5ce0460030c497f067ca4cebf71ba98eeadabe20bace0380546060915f516020613bbf5f395f51905f529161083e906137e3565b80601f016020809104026020016040519081016040528092919081815260200182805461086a906137e3565b80156108b55780601f1061088c576101008083540402835291602001916108b5565b820191905f5260205f20905b81548152906001019060200180831161089857829003601f168201915b505050505091505090565b5f6108cb825f612174565b92915050565b5f336108de818585612182565b5060019392505050565b5f6108cb826001612194565b6108fc6121f0565b805f036109355761090b611143565b604051636b30633560e01b81526001600160a01b0390911660048201526024015b60405180910390fd5b5f61093e611143565b6040516370a0823160e01b81523360048201526001600160a01b0391909116906370a0823190602401602060405180830381865afa158015610982573d5f5f3e3d5ffd5b505050506040513d601f19601f820116820180604052508101906109a6919061381b565b9050808211156109cf57338183604051632e2a182f60e11b815260040161092c93929190613832565b5f6109d8611143565b6001600160a01b03166323b872dd335f5f9054906101000a90046001600160a01b03166001600160a01b0316633a0dad8e6040518163ffffffff1660e01b8152600401602060405180830381865afa158015610a36573d5f5f3e3d5ffd5b505050506040513d601f19601f82011682018060405250810190610a5a9190613853565b6040516001600160e01b031960e085901b1681526001600160a01b03928316600482015291166024820152604481018690526064016020604051808303815f875af1158015610aab573d5f5f3e3d5ffd5b505050506040513d601f19601f82011682018060405250810190610acf919061386e565b905080610aef576040516312171d8360e31b815260040160405180910390fd5b5f610afb600433612227565b9150610b16905033610b0d86846138a1565b6004919061224d565b5083600a5f828254610b2891906138a1565b909155505060405184815233907f08d79f77ab5f78e7e780abb1f7ac9e9923340d5bae78f6e83e7999905b248ea29060200160405180910390a2505050610b7b60015f516020613bff5f395f51905f5255565b50565b5f5f9054906101000a90046001600160a01b03166001600160a01b0316633a0dad8e6040518163ffffffff1660e01b8152600401602060405180830381865afa158015610bcd573d5f5f3e3d5ffd5b505050506040513d601f19601f82011682018060405250810190610bf19190613853565b6001600160a01b0316336001600160a01b031614610c2257604051631af2ab4f60e31b815260040160405180910390fd5b610c2c600d612275565b815f5b81811015610cac57610ca3858583818110610c4c57610c4c6138b4565b610c629260206040909202019081019150613563565b868684818110610c7457610c746138b4565b9050604002016020016020810190610c8c91906138c8565b63ffffffff16600d61224d9092919063ffffffff16565b50600101610c2f565b5060038290556040518281527f5e1ff954b5e5257e9ee5d4cb07059e8f5e69b1aaaf9911e5d8d90a6894de9c219060200160405180910390a150505050565b5f610cf461227e565b805490915060ff600160401b82041615906001600160401b03165f81158015610d1a5750825b90505f826001600160401b03166001148015610d355750303b155b905081158015610d43575080155b15610d615760405163f92ee8a960e01b815260040160405180910390fd5b845467ffffffffffffffff191660011785558315610d8b57845460ff60401b1916600160401b1785555b610dfe8b8b8b8b8080601f0160208091040260200160405190810160405280939291908181526020018383808284375f9201919091525050604080516020601f8f018190048102820181019092528d815292508d91508c90819084018382808284375f920191909152506122a692505050565b8315610e4457845460ff60401b19168555604051600181527fc7f505b2f371ae2175ee4913f4499e1f2633a7b5936321eed1cdaeb6115181d29060200160405180910390a15b5050505050505050505050565b5f33610e5e8582856124e0565b610e69858585612531565b60019150505b9392505050565b5f807f0773e532dfede91f04b12a73d3d2acd361424f41f76b4fb79f090161e36b4e0090505f8154610eb29190600160a01b900460ff166138eb565b91505090565b5f5f9054906101000a90046001600160a01b03166001600160a01b0316633a0dad8e6040518163ffffffff1660e01b8152600401602060405180830381865afa158015610f07573d5f5f3e3d5ffd5b505050506040513d601f19601f82011682018060405250810190610f2b9190613853565b6001600160a01b0316336001600160a01b031614610f5c57604051631af2ab4f60e31b815260040160405180910390fd5b610f646121f0565b5f610f6f600461258e565b90505f816001600160401b03811115610f8a57610f8a61357e565b604051908082528060200260200182016040528015610fb3578160200160208202803683370190505b5090505f826001600160401b03811115610fcf57610fcf61357e565b604051908082528060200260200182016040528015610ff8578160200160208202803683370190505b5090505f5b83811015611071575f80611012600484612598565b9150915081858481518110611029576110296138b4565b60200260200101906001600160a01b031690816001600160a01b0316815250508084848151811061105c5761105c6138b4565b60209081029190910101525050600101610ffd565b505f5b83811015611126575f83828151811061108f5761108f6138b4565b602002602001015190505f8383815181106110ac576110ac6138b4565b602002602001015190505f6110c082611da3565b90506110cd6004846125a6565b506110d883826125ba565b826001600160a01b03167f85a190caa61692b36b63a55e069330d18ab9af179fed7a25c16a4262bc63b7d28360405161111391815260200190565b60405180910390a2505050600101611074565b50505f600a55505060015f516020613bff5f395f51905f5255565b565b5f807f0773e532dfede91f04b12a73d3d2acd361424f41f76b4fb79f090161e36b4e005b546001600160a01b031692915050565b61117f6125ee565b61118882612692565b61119282826126bd565b5050565b5f61119f612779565b505f516020613bdf5f395f51905f5290565b5f60405163125ad87760e31b815260040160405180910390fd5b6001600160a01b03165f9081525f516020613bbf5f395f51905f52602052604090205490565b6111f96127c2565b6111415f6127f4565b805f03611222576040516314e6cbb960e11b815260040160405180910390fd5b5f61122c336111cb565b90508082111561125557338183604051632e2a182f60e11b815260040161092c93929190613832565b5f306001600160a01b03166323b872dd335f5f9054906101000a90046001600160a01b03166001600160a01b0316633a0dad8e6040518163ffffffff1660e01b8152600401602060405180830381865afa1580156112b5573d5f5f3e3d5ffd5b505050506040513d601f19601f820116820180604052508101906112d99190613853565b6040516001600160e01b031960e085901b1681526001600160a01b03928316600482015291166024820152604481018690526064016020604051808303815f875af115801561132a573d5f5f3e3d5ffd5b505050506040513d601f19601f8201168201806040525081019061134e919061386e565b90508061136e576040516312171d8360e31b815260040160405180910390fd5b5f61137a600733612227565b915061139590503361138c86846138a1565b6007919061224d565b5083600b5f8282546113a791906138a1565b909155505060405184815233907ff7774b688d56120b783560a913ee60792a73dfd511812b7be5eccf10d08c66899060200160405180910390a250505050565b33806113f16120c7565b6001600160a01b0316146114235760405163118cdaa760e01b81526001600160a01b038216600482015260240161092c565b610b7b816127f4565b5f807f9016d09d72d40fdae2fd8ceac6b6234c7706214fd39c1cd1e609a0528c199300611167565b7f52c63247e1f47db19d5ce0460030c497f067ca4cebf71ba98eeadabe20bace0480546060915f516020613bbf5f395f51905f529161083e906137e3565b5f5f6114bc7f52c63247e1f47db19d5ce0460030c497f067ca4cebf71ba98eeadabe20bace025490565b90506114e26114cc8560016138a1565b600c546114d990846138a1565b8791908661282c565b95945050505050565b5f336108de818585612531565b5f5f9054906101000a90046001600160a01b03166001600160a01b0316633a0dad8e6040518163ffffffff1660e01b8152600401602060405180830381865afa158015611547573d5f5f3e3d5ffd5b505050506040513d601f19601f8201168201806040525081019061156b9190613853565b6001600160a01b0316336001600160a01b03161461159c57604051631af2ab4f60e31b815260040160405180910390fd5b6115a46121f0565b5f6115af600761258e565b90505f816001600160401b038111156115ca576115ca61357e565b6040519080825280602002602001820160405280156115f3578160200160208202803683370190505b5090505f826001600160401b0381111561160f5761160f61357e565b604051908082528060200260200182016040528015611638578160200160208202803683370190505b5090505f5b838110156116b1575f80611652600784612598565b9150915081858481518110611669576116696138b4565b60200260200101906001600160a01b031690816001600160a01b0316815250508084848151811061169c5761169c6138b4565b6020908102919091010152505060010161163d565b505f5b83811015611806575f8382815181106116cf576116cf6138b4565b602002602001015190505f8383815181106116ec576116ec6138b4565b6020026020010151905061170a8260076125a690919063ffffffff16565b50611715308261286e565b5f61171f826108c0565b9050611729611143565b60405163a9059cbb60e01b81526001600160a01b03858116600483015260248201849052919091169063a9059cbb906044016020604051808303815f875af1158015611777573d5f5f3e3d5ffd5b505050506040513d601f19601f8201168201806040525081019061179b919061386e565b6117b8576040516312171d8360e31b815260040160405180910390fd5b826001600160a01b03167f44b2ff9ffcefe2052a8afdbed44a04bf3db4592ae90c6b96c818bd28573e41e8836040516117f391815260200190565b60405180910390a25050506001016116b4565b50505f600b55505060015f516020613bff5f395f51905f5255565b6001546001600160a01b0316331461184c576040516356b381a560e01b815260040160405180910390fd5b5f81900361186d57604051631121aa8d60e01b815260040160405180910390fd5b6118776010612275565b5f81815b81811015611a01575f858583818110611896576118966138b4565b6118ac9260206040909202019081019150613563565b90505f8686848181106118c1576118c16138b4565b90506040020160200160208101906118d991906138c8565b5f54604051633af32abf60e01b81526001600160a01b038581166004830152929350911690633af32abf90602401602060405180830381865afa158015611922573d5f5f3e3d5ffd5b505050506040513d601f19601f82011682018060405250810190611946919061386e565b61196e5760405163751dff9760e11b81526001600160a01b038316600482015260240161092c565b8063ffffffff165f0361199f57604051636b30633560e01b81526001600160a01b038316600482015260240161092c565b5f6119b560108463ffffffff8086169061224d16565b9050806119e0576040516346bdabe160e01b81526001600160a01b038416600482015260240161092c565b6119f063ffffffff8316876138a1565b9550506001909201915061187b9050565b505f5f5f9054906101000a90046001600160a01b03166001600160a01b031663d1717c7d6040518163ffffffff1660e01b8152600401602060405180830381865afa158015611a52573d5f5f3e3d5ffd5b505050506040513d601f19601f82011682018060405250810190611a769190613904565b9050611a8381600a613a07565b8314611aa257604051639006dd2760e01b815260040160405180910390fd5b60405133907f2d47a742b8d7df7c1fc5a9a631b206b364e6cb2722490759f63bb3ab14b132e0905f90a25050505050565b5f6108cb826001612174565b6060805f611aed601061258e565b9050806001600160401b03811115611b0757611b0761357e565b604051908082528060200260200182016040528015611b30578160200160208202803683370190505b509250806001600160401b03811115611b4b57611b4b61357e565b604051908082528060200260200182016040528015611b74578160200160208202803683370190505b5091505f5b81811015611bed575f80611b8e601084612598565b9150915081868481518110611ba557611ba56138b4565b60200260200101906001600160a01b031690816001600160a01b03168152505080858481518110611bd857611bd86138b4565b60209081029190910101525050600101611b79565b50509091565b611bfb6121f0565b805f03611c0a5761090b611143565b5f611c16600433612227565b91505081811015611c3a576040516332194fd360e21b815260040160405180910390fd5b5f5f9054906101000a90046001600160a01b03166001600160a01b0316633a0dad8e6040518163ffffffff1660e01b8152600401602060405180830381865afa158015611c89573d5f5f3e3d5ffd5b505050506040513d601f19601f82011682018060405250810190611cad9190613853565b6040516351edffb160e01b8152336004820152602481018490526001600160a01b0391909116906351edffb1906044015f604051808303815f87803b158015611cf4575f5ffd5b505af1158015611d06573d5f5f3e3d5ffd5b505050505f8282611d179190613a15565b9050805f03611d3157611d2b6004336125a6565b50611d3f565b611d3d6004338361224d565b505b82600a5f828254611d509190613a15565b909155505060405183815233907f96a9a6886cdf3047a125454218a23d3961fd3a78643123b248a9d106d0ac94fd906020015b60405180910390a25050610b7b60015f516020613bff5f395f51905f5255565b5f6108cb825f612194565b611db66121f0565b805f03611dd6576040516314e6cbb960e11b815260040160405180910390fd5b5f611de2600733612227565b91505081811015611e06576040516312ea1f4960e11b815260040160405180910390fd5b5f5f9054906101000a90046001600160a01b03166001600160a01b0316633a0dad8e6040518163ffffffff1660e01b8152600401602060405180830381865afa158015611e55573d5f5f3e3d5ffd5b505050506040513d601f19601f82011682018060405250810190611e799190613853565b6040516305f0c35960e51b8152336004820152602481018490526001600160a01b03919091169063be186b20906044015f604051808303815f87803b158015611ec0575f5ffd5b505af1158015611ed2573d5f5f3e3d5ffd5b505050505f8282611ee39190613a15565b9050805f03611efd57611ef76007336125a6565b50611f0b565b611f096007338361224d565b505b82600b5f828254611f1c9190613a15565b909155505060405183815233907f9cf37535785001dcc9767688232fcbc8698b3002d1207b50bc2afec3ff8934dc90602001611d83565b5f6108cb611f60836111cb565b5f612174565b6060805f611f74600d61258e565b9050806001600160401b03811115611f8e57611f8e61357e565b604051908082528060200260200182016040528015611fb7578160200160208202803683370190505b509250806001600160401b03811115611fd257611fd261357e565b604051908082528060200260200182016040528015611ffb578160200160208202803683370190505b5091505f5b81811015611bed575f80612015600d84612598565b915091508186848151811061202c5761202c6138b4565b60200260200101906001600160a01b031690816001600160a01b0316815250508085848151811061205f5761205f6138b4565b60209081029190910101525050600101612000565b5f6108cb826111cb565b6001600160a01b039182165f9081527f52c63247e1f47db19d5ce0460030c497f067ca4cebf71ba98eeadabe20bace016020908152604080832093909416825291909152205490565b5f807f237e158222e3e6968b72b9db0d8043aacf074ad9f650f0d1606b4d82ee432c00611167565b6120f76127c2565b7f237e158222e3e6968b72b9db0d8043aacf074ad9f650f0d1606b4d82ee432c0080546001600160a01b0319166001600160a01b038316908117825561213b61142c565b6001600160a01b03167f38d16b8cac22d99fc7c124b9cd0de2d3fa1faef420bfe791d8c362d765e2270060405160405180910390a35050565b5f610e6f8360035484611492565b61218f83838360016128a2565b505050565b5f5f6121be7f52c63247e1f47db19d5ce0460030c497f067ca4cebf71ba98eeadabe20bace025490565b90506121e8600c54826121d191906138a1565b6003546121df9060016138a1565b8691908661282c565b949350505050565b5f516020613bff5f395f51905f5280546001190161222157604051633ee5aeb560e01b815260040160405180910390fd5b60029055565b5f80808061223e866001600160a01b038716612986565b909450925050505b9250929050565b5f6121e8846001600160a01b038516846129be565b60015f516020613bff5f395f51905f5255565b610b7b816129da565b5f807ff0c57e16840df040f15088dc2f81fe391c3923bec73e23a9662efc9c229c6a006108cb565b6122ae612a23565b6001600160a01b0384166122d557604051639c6bb9f560e01b815260040160405180910390fd5b6001600160a01b0383166122fc57604051636a485a5b60e11b815260040160405180910390fd5b6123068282612a48565b61236e836001600160a01b0316637158da7c6040518163ffffffff1660e01b8152600401602060405180830381865afa158015612345573d5f5f3e3d5ffd5b505050506040513d601f19601f820116820180604052508101906123699190613853565b612a5a565b612376612a6b565b61237f84612a7b565b612387612a8c565b61238f612a8c565b60028054336001600160a01b0319918216179091556001805482166001600160a01b03878116919091179091555f805490921690851690811782556003829055600a829055600b82905560408051631c56369f60e21b81529051637158da7c916004808201926020929091908290030181865afa158015612412573d5f5f3e3d5ffd5b505050506040513d601f19601f820116820180604052508101906124369190613853565b6001600160a01b031663313ce5676040518163ffffffff1660e01b8152600401602060405180830381865afa158015612471573d5f5f3e3d5ffd5b505050506040513d601f19601f820116820180604052508101906124959190613904565b905060128160ff1611156124bc57604051631c03248960e11b815260040160405180910390fd5b5f6124c8826012613a28565b90506124d581600a613a07565b600c55505050505050565b5f6124eb848461207e565b90505f1981101561252b578181101561251d57828183604051637dc7a0d960e11b815260040161092c93929190613832565b61252b84848484035f6128a2565b50505050565b6001600160a01b03831661255a57604051634b637e8f60e11b81525f600482015260240161092c565b6001600160a01b0382166125835760405163ec442f0560e01b81525f600482015260240161092c565b61218f838383612a94565b5f6108cb82612bba565b5f80808061223e8686612bc4565b5f610e6f836001600160a01b038416612bed565b6001600160a01b0382166125e35760405163ec442f0560e01b81525f600482015260240161092c565b6111925f8383612a94565b306001600160a01b037f000000000000000000000000000000000000000000000000000000000000000016148061267457507f00000000000000000000000000000000000000000000000000000000000000006001600160a01b03166126685f516020613bdf5f395f51905f52546001600160a01b031690565b6001600160a01b031614155b156111415760405163703e46dd60e11b815260040160405180910390fd5b6001546001600160a01b03163314610b7b576040516356b381a560e01b815260040160405180910390fd5b816001600160a01b03166352d1902d6040518163ffffffff1660e01b8152600401602060405180830381865afa925050508015612717575060408051601f3d908101601f191682019092526127149181019061381b565b60015b61273f57604051634c9c8ce360e01b81526001600160a01b038316600482015260240161092c565b5f516020613bdf5f395f51905f52811461276f57604051632a87526960e21b81526004810182905260240161092c565b61218f8383612c09565b306001600160a01b037f000000000000000000000000000000000000000000000000000000000000000016146111415760405163703e46dd60e11b815260040160405180910390fd5b336127cb61142c565b6001600160a01b0316146111415760405163118cdaa760e01b815233600482015260240161092c565b7f237e158222e3e6968b72b9db0d8043aacf074ad9f650f0d1606b4d82ee432c0080546001600160a01b031916815561119282612c5e565b5f61285961283983612cce565b801561285457505f848061284f5761284f613a41565b868809115b151590565b612864868686612cfa565b6114e291906138a1565b6001600160a01b03821661289757604051634b637e8f60e11b81525f600482015260240161092c565b611192825f83612a94565b5f516020613bbf5f395f51905f526001600160a01b0385166128d95760405163e602df0560e01b81525f600482015260240161092c565b6001600160a01b03841661290257604051634a1406b160e11b81525f600482015260240161092c565b6001600160a01b038086165f9081526001830160209081526040808320938816835292905220839055811561297f57836001600160a01b0316856001600160a01b03167f8c5be1e5ebec7d5bd14f71427d1e84f3dd0314c0f7b2291e5b200ac8c7c3b9258560405161297691815260200190565b60405180910390a35b5050505050565b5f8181526002830160205260408120548190806129b3576129a78585612daa565b92505f91506122469050565b600192509050612246565b5f82815260028401602052604081208290556121e88484612db5565b5f6129e482612bba565b90505f5b81811015612a1957600283015f6129ff8584612dc0565b815260208101919091526040015f908120556001016129e8565b5061119282612dcb565b612a2b612dd4565b61114157604051631afcd79f60e31b815260040160405180910390fd5b612a50612a23565b6111928282612ded565b612a62612a23565b610b7b81612e3d565b612a73612a23565b611141612ec0565b612a83612a23565b610b7b81612ec8565b611141612a23565b5f516020613bbf5f395f51905f526001600160a01b038416612ace5781816002015f828254612ac391906138a1565b90915550612b2b9050565b6001600160a01b0384165f9081526020829052604090205482811015612b0d5784818460405163391434e360e21b815260040161092c93929190613832565b6001600160a01b0385165f9081526020839052604090209083900390555b6001600160a01b038316612b49576002810180548390039055612b67565b6001600160a01b0383165f9081526020829052604090208054830190555b826001600160a01b0316846001600160a01b03167fddf252ad1be2c89b69c2b068fc378daa952ba7f163c4a11628f55a4df523b3ef84604051612bac91815260200190565b60405180910390a350505050565b5f6108cb82612ef9565b5f8080612bd18585612dc0565b5f81815260029690960160205260409095205494959350505050565b5f8181526002830160205260408120819055610e6f8383612f02565b612c1282612f0d565b6040516001600160a01b038316907fbc7cd75a20ee27fd9adebab32041f755214dbc6bffa90cc0225b39da2e5c2d3b905f90a2805115612c565761218f8282612f70565b611192612fd9565b7f9016d09d72d40fdae2fd8ceac6b6234c7706214fd39c1cd1e609a0528c19930080546001600160a01b031981166001600160a01b03848116918217845560405192169182907f8be0079c531659141344cd1fd0a4f28419497f9722a3daafe3b4186f6b6457e0905f90a3505050565b5f6002826003811115612ce357612ce3613a55565b612ced9190613a69565b60ff166001149050919050565b5f5f5f612d078686612ff8565b91509150815f03612d2b57838181612d2157612d21613a41565b0492505050610e6f565b818411612d4257612d426003851502601118613014565b5f848688095f868103871696879004966002600389028118808a02820302808a02820302808a02820302808a02820302808a02820302808a02909103029181900381900460010185841190960395909502919093039390930492909217029150509392505050565b5f610e6f8383613025565b5f610e6f838361303c565b5f610e6f8383613088565b610b7b816130ae565b5f612ddd61227e565b54600160401b900460ff16919050565b612df5612a23565b5f516020613bbf5f395f51905f527f52c63247e1f47db19d5ce0460030c497f067ca4cebf71ba98eeadabe20bace03612e2e8482613ada565b506004810161252b8382613ada565b612e45612a23565b7f0773e532dfede91f04b12a73d3d2acd361424f41f76b4fb79f090161e36b4e005f80612e7184613107565b9150915081612e81576012612e83565b805b83546001600160a81b031916600160a01b60ff92909216919091026001600160a01b031916176001600160a01b0394909416939093179091555050565b612262612a23565b612ed0612a23565b6001600160a01b03811661142357604051631e4fbdf760e01b81525f600482015260240161092c565b5f6108cb825490565b5f610e6f83836131dd565b806001600160a01b03163b5f03612f4257604051634c9c8ce360e01b81526001600160a01b038216600482015260240161092c565b5f516020613bdf5f395f51905f5280546001600160a01b0319166001600160a01b0392909216919091179055565b60605f5f846001600160a01b031684604051612f8c9190613b94565b5f60405180830381855af49150503d805f8114612fc4576040519150601f19603f3d011682016040523d82523d5f602084013e612fc9565b606091505b50915091506114e28583836132c0565b34156111415760405163b398979f60e01b815260040160405180910390fd5b5f805f1983850993909202808410938190039390930393915050565b634e487b715f52806020526024601cfd5b5f8181526001830160205260408120541515610e6f565b5f81815260018301602052604081205461308157508154600181810184555f8481526020808220909301849055845484825282860190935260409020919091556108cb565b505f6108cb565b5f825f01828154811061309d5761309d6138b4565b905f5260205f200154905092915050565b5f6130b7825490565b90505f5b8181101561310057826001015f845f0183815481106130dc576130dc6138b4565b905f5260205f20015481526020019081526020015f205f90558060010190506130bb565b50505f9055565b60408051600481526024810182526020810180516001600160e01b031663313ce56760e01b17905290515f918291829182916001600160a01b0387169161314d91613b94565b5f60405180830381855afa9150503d805f8114613185576040519150601f19603f3d011682016040523d82523d5f602084013e61318a565b606091505b509150915081801561319e57506020815110155b156131d1575f818060200190518101906131b8919061381b565b905060ff81116131cf576001969095509350505050565b505b505f9485945092505050565b5f81815260018301602052604081205480156132b7575f6131ff600183613a15565b85549091505f9061321290600190613a15565b9050808214613271575f865f018281548110613230576132306138b4565b905f5260205f200154905080875f018481548110613250576132506138b4565b5f918252602080832090910192909255918252600188019052604090208390555b855486908061328257613282613baa565b600190038181905f5260205f20015f90559055856001015f8681526020019081526020015f205f9055600193505050506108cb565b5f9150506108cb565b6060826132d5576132d08261331c565b610e6f565b81511580156132ec57506001600160a01b0384163b155b1561331557604051639996b31560e01b81526001600160a01b038516600482015260240161092c565b5080610e6f565b80511561332c5780518082602001fd5b60405163d6bda27560e01b815260040160405180910390fd5b602081525f82518060208401528060208501604085015e5f604082850101526040601f19601f83011684010191505092915050565b5f6020828403121561338a575f5ffd5b5035919050565b6001600160a01b0381168114610b7b575f5ffd5b5f5f604083850312156133b6575f5ffd5b82356133c181613391565b946020939093013593505050565b5f5f83601f8401126133df575f5ffd5b5081356001600160401b038111156133f5575f5ffd5b6020830191508360208260061b8501011115612246575f5ffd5b5f5f5f60408486031215613421575f5ffd5b83356001600160401b03811115613436575f5ffd5b613442868287016133cf565b909790965060209590950135949350505050565b5f5f83601f840112613466575f5ffd5b5081356001600160401b0381111561347c575f5ffd5b602083019150836020828501011115612246575f5ffd5b5f5f5f5f5f5f608087890312156134a8575f5ffd5b86356134b381613391565b955060208701356134c381613391565b945060408701356001600160401b038111156134dd575f5ffd5b6134e989828a01613456565b90955093505060608701356001600160401b03811115613507575f5ffd5b61351389828a01613456565b979a9699509497509295939492505050565b5f5f5f60608486031215613537575f5ffd5b833561354281613391565b9250602084013561355281613391565b929592945050506040919091013590565b5f60208284031215613573575f5ffd5b8135610e6f81613391565b634e487b7160e01b5f52604160045260245ffd5b5f5f604083850312156135a3575f5ffd5b82356135ae81613391565b915060208301356001600160401b038111156135c8575f5ffd5b8301601f810185136135d8575f5ffd5b80356001600160401b038111156135f1576135f161357e565b604051601f8201601f19908116603f011681016001600160401b038111828210171561361f5761361f61357e565b604052818152828201602001871015613636575f5ffd5b816020840160208301375f602083830101528093505050509250929050565b5f5f60408385031215613666575f5ffd5b82359150602083013561367881613391565b809150509250929050565b5f5f5f60608486031215613695575f5ffd5b83359250602084013591506040840135600481106136b1575f5ffd5b809150509250925092565b5f5f602083850312156136cd575f5ffd5b82356001600160401b038111156136e2575f5ffd5b6136ee858286016133cf565b90969095509350505050565b5f5f5f6060848603121561370c575f5ffd5b83359250602084013561371e81613391565b915060408401356136b181613391565b604080825283519082018190525f9060208501906060840190835b818110156137705783516001600160a01b0316835260209384019390920191600101613749565b5050838103602080860191909152855180835291810192508501905f5b818110156137ab57825184526020938401939092019160010161378d565b50919695505050505050565b5f5f604083850312156137c8575f5ffd5b82356137d381613391565b9150602083013561367881613391565b600181811c908216806137f757607f821691505b60208210810361381557634e487b7160e01b5f52602260045260245ffd5b50919050565b5f6020828403121561382b575f5ffd5b5051919050565b6001600160a01b039390931683526020830191909152604082015260600190565b5f60208284031215613863575f5ffd5b8151610e6f81613391565b5f6020828403121561387e575f5ffd5b81518015158114610e6f575f5ffd5b634e487b7160e01b5f52601160045260245ffd5b808201808211156108cb576108cb61388d565b634e487b7160e01b5f52603260045260245ffd5b5f602082840312156138d8575f5ffd5b813563ffffffff81168114610e6f575f5ffd5b60ff81811683821601908111156108cb576108cb61388d565b5f60208284031215613914575f5ffd5b815160ff81168114610e6f575f5ffd5b6001815b600184111561395f578085048111156139435761394361388d565b600184161561395157908102905b60019390931c928002613928565b935093915050565b5f82613975575060016108cb565b8161398157505f6108cb565b816001811461399757600281146139a1576139bd565b60019150506108cb565b60ff8411156139b2576139b261388d565b50506001821b6108cb565b5060208310610133831016604e8410600b84101617156139e0575081810a6108cb565b6139ec5f198484613924565b805f19048211156139ff576139ff61388d565b029392505050565b5f610e6f60ff841683613967565b818103818111156108cb576108cb61388d565b60ff82811682821603908111156108cb576108cb61388d565b634e487b7160e01b5f52601260045260245ffd5b634e487b7160e01b5f52602160045260245ffd5b5f60ff831680613a8757634e487b7160e01b5f52601260045260245ffd5b8060ff84160691505092915050565b601f82111561218f57805f5260205f20601f840160051c81016020851015613abb5750805b601f840160051c820191505b8181101561297f575f8155600101613ac7565b81516001600160401b03811115613af357613af361357e565b613b0781613b0184546137e3565b84613a96565b6020601f821160018114613b39575f8315613b225750848201515b5f19600385901b1c1916600184901b17845561297f565b5f84815260208120601f198516915b82811015613b685787850151825560209485019460019092019101613b48565b5084821015613b8557868401515f19600387901b60f8161c191681555b50505050600190811b01905550565b5f82518060208501845e5f920191825250919050565b634e487b7160e01b5f52603160045260245ffdfe52c63247e1f47db19d5ce0460030c497f067ca4cebf71ba98eeadabe20bace00360894a13ba1a3210667c828492db98dca3e2076cc3735a920a3ca505d382bbc9b779b17422d0df92223018b32b4d1fa46e071723d6817e2486d003becc55f00a264697066735822122090a551c9e26fbcd0888415cd2a12bc9432b5fc2274349f3e97c92d93aa1025b864736f6c634300081c003360a0604052306080523480156012575f5ffd5b506080516140e56100395f395f81816128150152818161283e01526129a001526140e55ff3fe6080604052600436106102bf575f3560e01c806395d89b411161016f578063c63d75b6116100d8578063d5f3948811610092578063e30c39781161006d578063e30c3978146107ae578063e66f53b7146107c2578063ef8b30f7146106cc578063f2fde38b146107e1575f5ffd5b8063d5f3948814610751578063d905777e14610770578063dd62ed3e1461078f575f5ffd5b8063c63d75b61461046c578063c6e6f592146106cc578063cce4705b146106eb578063ce96cb771461070a578063d1699c2614610729578063d3d034581461073d575f5ffd5b8063b3d7f6b911610129578063b3d7f6b91461063e578063b460af941461065d578063b6eba65314610677578063ba0876521461065d578063c0b568e114610699578063c37fc8a8146106b8575f5ffd5b806395d89b4114610589578063985ba4ae1461059d578063a68a5267146105bc578063a9059cbb146105db578063aa9d3a60146105fa578063ad3cb1cc1461060e575f5ffd5b8063402d267d1161022b578063715018a6116101e557806379ba5097116101c057806379ba5097146105425780637f5fc5f9146105565780638da5cb5b1461057557806394bf804d146104b3575f5ffd5b8063715018a6146104f1578063745400c91461050557806379502c5514610524575f5ffd5b8063402d267d1461046c5780634cdad506146103075780634f1ef2861461048c57806352d1902d1461049f5780636e553f65146104b357806370a08231146104d2575f5ffd5b806318160ddd1161027c57806318160ddd146103955780632016a0d2146103c857806323b872dd146103e7578063313ce5671461040657806333fdc5921461042c57806338d52e0f14610440575f5ffd5b806301e1d114146102c357806306fdde03146102e657806307a2d13a14610307578063095ea7b3146103265780630a28a477146103555780630d1e666714610374575b5f5ffd5b3480156102ce575f5ffd5b506003545b6040519081526020015b60405180910390f35b3480156102f1575f5ffd5b506102fa610800565b6040516102dd91906137b9565b348015610312575f5ffd5b506102d36103213660046137ee565b6108c0565b348015610331575f5ffd5b50610345610340366004613819565b6108d1565b60405190151581526020016102dd565b348015610360575f5ffd5b506102d361036f3660046137ee565b6108e8565b34801561037f575f5ffd5b5061039361038e3660046137ee565b6108f4565b005b3480156103a0575f5ffd5b507f52c63247e1f47db19d5ce0460030c497f067ca4cebf71ba98eeadabe20bace02546102d3565b3480156103d3575f5ffd5b506103936103e2366004613880565b610b7e565b3480156103f2575f5ffd5b50610345610401366004613912565b610ce4565b348015610411575f5ffd5b5061041a610d09565b60405160ff90911681526020016102dd565b348015610437575f5ffd5b50610393610d4b565b34801561044b575f5ffd5b50610454610fd6565b6040516001600160a01b0390911681526020016102dd565b348015610477575f5ffd5b506102d3610486366004613950565b505f1990565b61039361049a36600461397f565b61100a565b3480156104aa575f5ffd5b506102d3611029565b3480156104be575f5ffd5b506102d36104cd366004613a42565b611044565b3480156104dd575f5ffd5b506102d36104ec366004613950565b61105e565b3480156104fc575f5ffd5b50610393611084565b348015610510575f5ffd5b5061039361051f3660046137ee565b611095565b34801561052f575f5ffd5b505f54610454906001600160a01b031681565b34801561054d575f5ffd5b5061039361127a565b348015610561575f5ffd5b50610393610570366004613ab0565b6112bf565b348015610580575f5ffd5b50610454611664565b348015610594575f5ffd5b506102fa61168c565b3480156105a8575f5ffd5b506103936105b7366004613aee565b6116ca565b3480156105c7575f5ffd5b506102d36105d6366004613b35565b6118e2565b3480156105e6575f5ffd5b506103456105f5366004613819565b61193b565b348015610605575f5ffd5b50610393611948565b348015610619575f5ffd5b506102fa604051806040016040528060058152602001640352e302e360dc1b81525081565b348015610649575f5ffd5b506102d36106583660046137ee565b611c71565b348015610668575f5ffd5b506102d36104cd366004613b6e565b348015610682575f5ffd5b5061068b611c7d565b6040516102dd929190613ba2565b3480156106a4575f5ffd5b506103936106b33660046137ee565b611dde565b3480156106c3575f5ffd5b50600b546102d3565b3480156106d7575f5ffd5b506102d36106e63660046137ee565b611f8e565b3480156106f6575f5ffd5b506103936107053660046137ee565b611f99565b348015610715575f5ffd5b506102d3610724366004613950565b61213e565b348015610734575f5ffd5b50600a546102d3565b348015610748575f5ffd5b5061068b612151565b34801561075c575f5ffd5b50600254610454906001600160a01b031681565b34801561077b575f5ffd5b506102d361078a366004613950565b612299565b34801561079a575f5ffd5b506102d36107a9366004613c2b565b6122a3565b3480156107b9575f5ffd5b506104546122ec565b3480156107cd575f5ffd5b50600154610454906001600160a01b031681565b3480156107ec575f5ffd5b506103936107fb366004613950565b612314565b7f52c63247e1f47db19d5ce0460030c497f067ca4cebf71ba98eeadabe20bace0380546060915f5160206140505f395f51905f529161083e90613c57565b80601f016020809104026020016040519081016040528092919081815260200182805461086a90613c57565b80156108b55780601f1061088c576101008083540402835291602001916108b5565b820191905f5260205f20905b81548152906001019060200180831161089857829003601f168201915b505050505091505090565b5f6108cb825f612399565b92915050565b5f336108de8185856123a7565b5060019392505050565b5f6108cb8260016123b9565b6108fc612415565b805f036109355761090b610fd6565b604051636b30633560e01b81526001600160a01b0390911660048201526024015b60405180910390fd5b5f61093e610fd6565b6040516370a0823160e01b81523360048201526001600160a01b0391909116906370a0823190602401602060405180830381865afa158015610982573d5f5f3e3d5ffd5b505050506040513d601f19601f820116820180604052508101906109a69190613c8f565b9050808211156109cf57338183604051632e2a182f60e11b815260040161092c93929190613ca6565b5f6109d8610fd6565b6001600160a01b03166323b872dd335f5f9054906101000a90046001600160a01b03166001600160a01b0316633a0dad8e6040518163ffffffff1660e01b8152600401602060405180830381865afa158015610a36573d5f5f3e3d5ffd5b505050506040513d601f19601f82011682018060405250810190610a5a9190613cc7565b6040516001600160e01b031960e085901b1681526001600160a01b03928316600482015291166024820152604481018690526064016020604051808303815f875af1158015610aab573d5f5f3e3d5ffd5b505050506040513d601f19601f82011682018060405250810190610acf9190613ce2565b905080610aef576040516312171d8360e31b815260040160405180910390fd5b5f610afb60043361244c565b9150610b16905033610b0d8684613d15565b60049190612472565b5083600a5f828254610b289190613d15565b909155505060405184815233907f08d79f77ab5f78e7e780abb1f7ac9e9923340d5bae78f6e83e7999905b248ea29060200160405180910390a2505050610b7b60015f5160206140905f395f51905f5255565b50565b5f610b8761249a565b805490915060ff600160401b82041615906001600160401b03165f81158015610bad5750825b90505f826001600160401b03166001148015610bc85750303b155b905081158015610bd6575080155b15610bf45760405163f92ee8a960e01b815260040160405180910390fd5b845467ffffffffffffffff191660011785558315610c1e57845460ff60401b1916600160401b1785555b610c918b8b8b8b8080601f0160208091040260200160405190810160405280939291908181526020018383808284375f9201919091525050604080516020601f8f018190048102820181019092528d815292508d91508c90819084018382808284375f920191909152506124c292505050565b8315610cd757845460ff60401b19168555604051600181527fc7f505b2f371ae2175ee4913f4499e1f2633a7b5936321eed1cdaeb6115181d29060200160405180910390a15b5050505050505050505050565b5f33610cf18582856126fc565b610cfc85858561274d565b60019150505b9392505050565b5f807f0773e532dfede91f04b12a73d3d2acd361424f41f76b4fb79f090161e36b4e0090505f8154610d459190600160a01b900460ff16613d28565b91505090565b5f5f9054906101000a90046001600160a01b03166001600160a01b0316633a0dad8e6040518163ffffffff1660e01b8152600401602060405180830381865afa158015610d9a573d5f5f3e3d5ffd5b505050506040513d601f19601f82011682018060405250810190610dbe9190613cc7565b6001600160a01b0316336001600160a01b031614610def57604051631af2ab4f60e31b815260040160405180910390fd5b610df7612415565b5f610e0260046127aa565b90505f816001600160401b03811115610e1d57610e1d61396b565b604051908082528060200260200182016040528015610e46578160200160208202803683370190505b5090505f826001600160401b03811115610e6257610e6261396b565b604051908082528060200260200182016040528015610e8b578160200160208202803683370190505b5090505f5b83811015610f04575f80610ea56004846127b4565b9150915081858481518110610ebc57610ebc613d41565b60200260200101906001600160a01b031690816001600160a01b03168152505080848481518110610eef57610eef613d41565b60209081029190910101525050600101610e90565b505f5b83811015610fb9575f838281518110610f2257610f22613d41565b602002602001015190505f838381518110610f3f57610f3f613d41565b602002602001015190505f610f5382611f8e565b9050610f606004846127c2565b50610f6b83826127d6565b826001600160a01b03167f85a190caa61692b36b63a55e069330d18ab9af179fed7a25c16a4262bc63b7d283604051610fa691815260200190565b60405180910390a2505050600101610f07565b50505f600a55505060015f5160206140905f395f51905f5255565b565b5f807f0773e532dfede91f04b12a73d3d2acd361424f41f76b4fb79f090161e36b4e005b546001600160a01b031692915050565b61101261280a565b61101b826128ae565b61102582826128d9565b5050565b5f611032612995565b505f5160206140705f395f51905f5290565b5f60405163125ad87760e31b815260040160405180910390fd5b6001600160a01b03165f9081525f5160206140505f395f51905f52602052604090205490565b61108c6129de565b610fd45f612a10565b805f036110b5576040516314e6cbb960e11b815260040160405180910390fd5b5f6110bf3361105e565b9050808211156110e857338183604051632e2a182f60e11b815260040161092c93929190613ca6565b5f306001600160a01b03166323b872dd335f5f9054906101000a90046001600160a01b03166001600160a01b0316633a0dad8e6040518163ffffffff1660e01b8152600401602060405180830381865afa158015611148573d5f5f3e3d5ffd5b505050506040513d601f19601f8201168201806040525081019061116c9190613cc7565b6040516001600160e01b031960e085901b1681526001600160a01b03928316600482015291166024820152604481018690526064016020604051808303815f875af11580156111bd573d5f5f3e3d5ffd5b505050506040513d601f19601f820116820180604052508101906111e19190613ce2565b905080611201576040516312171d8360e31b815260040160405180910390fd5b5f61120d60073361244c565b915061122890503361121f8684613d15565b60079190612472565b5083600b5f82825461123a9190613d15565b909155505060405184815233907ff7774b688d56120b783560a913ee60792a73dfd511812b7be5eccf10d08c66899060200160405180910390a250505050565b33806112846122ec565b6001600160a01b0316146112b65760405163118cdaa760e01b81526001600160a01b038216600482015260240161092c565b610b7b81612a10565b6001546001600160a01b031633146112ea576040516356b381a560e01b815260040160405180910390fd5b5f81900361130b57604051631121aa8d60e01b815260040160405180910390fd5b5f6113155f612a48565b6010549091505f5b818110156113685782600f5f6010848154811061133c5761133c613d41565b5f9182526020808320909101546001600160a01b0316835282019290925260400190205560010161131d565b5061137460105f61378b565b81835f5b81811015611545575f87878381811061139357611393613d41565b6113a99260206040909202019081019150613950565b90505f8888848181106113be576113be613d41565b5f5460408051633af32abf60e01b81526001600160a01b03888116600483015293909102949094016020013594501691633af32abf9150602401602060405180830381865afa158015611413573d5f5f3e3d5ffd5b505050506040513d601f19601f820116820180604052508101906114379190613ce2565b61145f5760405163751dff9760e11b81526001600160a01b038316600482015260240161092c565b6001600160a01b0382165f9081526011602052604090205460ff16156114a3576040516346bdabe160e01b81526001600160a01b038316600482015260240161092c565b6001600160a01b0382165f908152601160205260408120805460ff191660011790556114cf8289612a54565b6001600160a01b0384165f818152600f602052604081208590556010805460018101825591527f1b6847dc741a1b0cd08d278845f9d819d87b734759afb55fe2de5cb82a9ae6720180546001600160a01b031916909117905590506115348683612a82565b955050600190920191506113789050565b505f80546040805163d1717c7d60e01b815290516115c3926001600160a01b03169163d1717c7d9160048083019260209291908290030181865afa15801561158f573d5f5f3e3d5ffd5b505050506040513d601f19601f820116820180604052508101906115b39190613d55565b6115be90600a613e58565b612a48565b90505f6115d08483612ab0565b90505f5b8381101561162f5760115f8a8a848181106115f1576115f1613d41565b6116079260206040909202019081019150613950565b6001600160a01b0316815260208101919091526040015f20805460ff191690556001016115d4565b5060405133907f2d47a742b8d7df7c1fc5a9a631b206b364e6cb2722490759f63bb3ab14b132e0905f90a25050505050505050565b5f807f9016d09d72d40fdae2fd8ceac6b6234c7706214fd39c1cd1e609a0528c199300610ffa565b7f52c63247e1f47db19d5ce0460030c497f067ca4cebf71ba98eeadabe20bace0480546060915f5160206140505f395f51905f529161083e90613c57565b5f5f9054906101000a90046001600160a01b03166001600160a01b0316633a0dad8e6040518163ffffffff1660e01b8152600401602060405180830381865afa158015611719573d5f5f3e3d5ffd5b505050506040513d601f19601f8201168201806040525081019061173d9190613cc7565b6001600160a01b0316336001600160a01b03161461176e57604051631af2ab4f60e31b815260040160405180910390fd5b5f6117785f612a48565b600e549091505f5b818110156117cb5782600d5f600e848154811061179f5761179f613d41565b5f9182526020808320909101546001600160a01b03168352820192909252604001902055600101611780565b506117d7600e5f61378b565b5f5b818110156118a2578585828181106117f3576117f3613d41565b90506040020160200135600d5f88888581811061181257611812613d41565b6118289260206040909202019081019150613950565b6001600160a01b0316815260208101919091526040015f2055600e86868381811061185557611855613d41565b61186b9260206040909202019081019150613950565b8154600180820184555f93845260209093200180546001600160a01b0319166001600160a01b0392909216919091179055016117d9565b5060038390556040518381527f5e1ff954b5e5257e9ee5d4cb07059e8f5e69b1aaaf9911e5d8d90a6894de9c219060200160405180910390a15050505050565b5f5f61190c7f52c63247e1f47db19d5ce0460030c497f067ca4cebf71ba98eeadabe20bace025490565b905061193261191c856001613d15565b600c546119299084613d15565b87919086612ade565b95945050505050565b5f336108de81858561274d565b5f5f9054906101000a90046001600160a01b03166001600160a01b0316633a0dad8e6040518163ffffffff1660e01b8152600401602060405180830381865afa158015611997573d5f5f3e3d5ffd5b505050506040513d601f19601f820116820180604052508101906119bb9190613cc7565b6001600160a01b0316336001600160a01b0316146119ec57604051631af2ab4f60e31b815260040160405180910390fd5b6119f4612415565b5f6119ff60076127aa565b90505f816001600160401b03811115611a1a57611a1a61396b565b604051908082528060200260200182016040528015611a43578160200160208202803683370190505b5090505f826001600160401b03811115611a5f57611a5f61396b565b604051908082528060200260200182016040528015611a88578160200160208202803683370190505b5090505f5b83811015611b01575f80611aa26007846127b4565b9150915081858481518110611ab957611ab9613d41565b60200260200101906001600160a01b031690816001600160a01b03168152505080848481518110611aec57611aec613d41565b60209081029190910101525050600101611a8d565b505f5b83811015611c56575f838281518110611b1f57611b1f613d41565b602002602001015190505f838381518110611b3c57611b3c613d41565b60200260200101519050611b5a8260076127c290919063ffffffff16565b50611b653082612b20565b5f611b6f826108c0565b9050611b79610fd6565b60405163a9059cbb60e01b81526001600160a01b03858116600483015260248201849052919091169063a9059cbb906044016020604051808303815f875af1158015611bc7573d5f5f3e3d5ffd5b505050506040513d601f19601f82011682018060405250810190611beb9190613ce2565b611c08576040516312171d8360e31b815260040160405180910390fd5b826001600160a01b03167f44b2ff9ffcefe2052a8afdbed44a04bf3db4592ae90c6b96c818bd28573e41e883604051611c4391815260200190565b60405180910390a2505050600101611b04565b50505f600b55505060015f5160206140905f395f51905f5255565b5f6108cb826001612399565b6010546060908190806001600160401b03811115611c9d57611c9d61396b565b604051908082528060200260200182016040528015611cc6578160200160208202803683370190505b509250806001600160401b03811115611ce157611ce161396b565b604051908082528060200260200182016040528015611d0a578160200160208202803683370190505b5091505f5b81811015611dd85760108181548110611d2a57611d2a613d41565b905f5260205f20015f9054906101000a90046001600160a01b0316848281518110611d5757611d57613d41565b60200260200101906001600160a01b031690816001600160a01b031681525050600f5f60108381548110611d8d57611d8d613d41565b5f9182526020808320909101546001600160a01b031683528201929092526040019020548351849083908110611dc557611dc5613d41565b6020908102919091010152600101611d0f565b50509091565b611de6612415565b805f03611df55761090b610fd6565b5f611e0160043361244c565b91505081811015611e25576040516332194fd360e21b815260040160405180910390fd5b5f5f9054906101000a90046001600160a01b03166001600160a01b0316633a0dad8e6040518163ffffffff1660e01b8152600401602060405180830381865afa158015611e74573d5f5f3e3d5ffd5b505050506040513d601f19601f82011682018060405250810190611e989190613cc7565b6040516351edffb160e01b8152336004820152602481018490526001600160a01b0391909116906351edffb1906044015f604051808303815f87803b158015611edf575f5ffd5b505af1158015611ef1573d5f5f3e3d5ffd5b505050505f8282611f029190613e66565b9050805f03611f1c57611f166004336127c2565b50611f2a565b611f2860043383612472565b505b82600a5f828254611f3b9190613e66565b909155505060405183815233907f96a9a6886cdf3047a125454218a23d3961fd3a78643123b248a9d106d0ac94fd906020015b60405180910390a25050610b7b60015f5160206140905f395f51905f5255565b5f6108cb825f6123b9565b611fa1612415565b805f03611fc1576040516314e6cbb960e11b815260040160405180910390fd5b5f611fcd60073361244c565b91505081811015611ff1576040516312ea1f4960e11b815260040160405180910390fd5b5f5f9054906101000a90046001600160a01b03166001600160a01b0316633a0dad8e6040518163ffffffff1660e01b8152600401602060405180830381865afa158015612040573d5f5f3e3d5ffd5b505050506040513d601f19601f820116820180604052508101906120649190613cc7565b6040516305f0c35960e51b8152336004820152602481018490526001600160a01b03919091169063be186b20906044015f604051808303815f87803b1580156120ab575f5ffd5b505af11580156120bd573d5f5f3e3d5ffd5b505050505f82826120ce9190613e66565b9050805f036120e8576120e26007336127c2565b506120f6565b6120f460073383612472565b505b82600b5f8282546121079190613e66565b909155505060405183815233907f9cf37535785001dcc9767688232fcbc8698b3002d1207b50bc2afec3ff8934dc90602001611f6e565b5f6108cb61214b8361105e565b5f612399565b600e546060908190806001600160401b038111156121715761217161396b565b60405190808252806020026020018201604052801561219a578160200160208202803683370190505b509250806001600160401b038111156121b5576121b561396b565b6040519080825280602002602001820160405280156121de578160200160208202803683370190505b5091505f5b81811015611dd8575f600e82815481106121ff576121ff613d41565b905f5260205f20015f9054906101000a90046001600160a01b031690508085838151811061222f5761222f613d41565b60200260200101906001600160a01b031690816001600160a01b031681525050600d5f826001600160a01b03166001600160a01b031681526020019081526020015f205484838151811061228557612285613d41565b6020908102919091010152506001016121e3565b5f6108cb8261105e565b6001600160a01b039182165f9081527f52c63247e1f47db19d5ce0460030c497f067ca4cebf71ba98eeadabe20bace016020908152604080832093909416825291909152205490565b5f807f237e158222e3e6968b72b9db0d8043aacf074ad9f650f0d1606b4d82ee432c00610ffa565b61231c6129de565b7f237e158222e3e6968b72b9db0d8043aacf074ad9f650f0d1606b4d82ee432c0080546001600160a01b0319166001600160a01b0383169081178255612360611664565b6001600160a01b03167f38d16b8cac22d99fc7c124b9cd0de2d3fa1faef420bfe791d8c362d765e2270060405160405180910390a35050565b5f610d0283600354846118e2565b6123b48383836001612b54565b505050565b5f5f6123e37f52c63247e1f47db19d5ce0460030c497f067ca4cebf71ba98eeadabe20bace025490565b905061240d600c54826123f69190613d15565b600354612404906001613d15565b86919086612ade565b949350505050565b5f5160206140905f395f51905f5280546001190161244657604051633ee5aeb560e01b815260040160405180910390fd5b60029055565b5f808080612463866001600160a01b038716612c38565b909450925050505b9250929050565b5f61240d846001600160a01b03851684612c70565b60015f5160206140905f395f51905f5255565b5f807ff0c57e16840df040f15088dc2f81fe391c3923bec73e23a9662efc9c229c6a006108cb565b6124ca612c8c565b6001600160a01b0384166124f157604051639c6bb9f560e01b815260040160405180910390fd5b6001600160a01b03831661251857604051636a485a5b60e11b815260040160405180910390fd5b6125228282612cb1565b61258a836001600160a01b0316637158da7c6040518163ffffffff1660e01b8152600401602060405180830381865afa158015612561573d5f5f3e3d5ffd5b505050506040513d601f19601f820116820180604052508101906125859190613cc7565b612cc3565b612592612cd4565b61259b84612ce4565b6125a3612cf5565b6125ab612cf5565b60028054336001600160a01b0319918216179091556001805482166001600160a01b03878116919091179091555f805490921690851690811782556003829055600a829055600b82905560408051631c56369f60e21b81529051637158da7c916004808201926020929091908290030181865afa15801561262e573d5f5f3e3d5ffd5b505050506040513d601f19601f820116820180604052508101906126529190613cc7565b6001600160a01b031663313ce5676040518163ffffffff1660e01b8152600401602060405180830381865afa15801561268d573d5f5f3e3d5ffd5b505050506040513d601f19601f820116820180604052508101906126b19190613d55565b905060128160ff1611156126d857604051631c03248960e11b815260040160405180910390fd5b5f6126e4826012613e79565b90506126f181600a613e58565b600c55505050505050565b5f61270784846122a3565b90505f19811015612747578181101561273957828183604051637dc7a0d960e11b815260040161092c93929190613ca6565b61274784848484035f612b54565b50505050565b6001600160a01b03831661277657604051634b637e8f60e11b81525f600482015260240161092c565b6001600160a01b03821661279f5760405163ec442f0560e01b81525f600482015260240161092c565b6123b4838383612cfd565b5f6108cb82612e23565b5f8080806124638686612e2d565b5f610d02836001600160a01b038416612e56565b6001600160a01b0382166127ff5760405163ec442f0560e01b81525f600482015260240161092c565b6110255f8383612cfd565b306001600160a01b037f000000000000000000000000000000000000000000000000000000000000000016148061289057507f00000000000000000000000000000000000000000000000000000000000000006001600160a01b03166128845f5160206140705f395f51905f52546001600160a01b031690565b6001600160a01b031614155b15610fd45760405163703e46dd60e11b815260040160405180910390fd5b6001546001600160a01b03163314610b7b576040516356b381a560e01b815260040160405180910390fd5b816001600160a01b03166352d1902d6040518163ffffffff1660e01b8152600401602060405180830381865afa925050508015612933575060408051601f3d908101601f1916820190925261293091810190613c8f565b60015b61295b57604051634c9c8ce360e01b81526001600160a01b038316600482015260240161092c565b5f5160206140705f395f51905f52811461298b57604051632a87526960e21b81526004810182905260240161092c565b6123b48383612e72565b306001600160a01b037f00000000000000000000000000000000000000000000000000000000000000001614610fd45760405163703e46dd60e11b815260040160405180910390fd5b336129e7611664565b6001600160a01b031614610fd45760405163118cdaa760e01b815233600482015260240161092c565b7f237e158222e3e6968b72b9db0d8043aacf074ad9f650f0d1606b4d82ee432c0080546001600160a01b031916815561102582612ec7565b5f6108cb826004612f37565b5f82612a6657612a635f612a48565b92505b81612a7757612a745f612a48565b91505b610d0283835f612fca565b5f82612a9457612a915f612a48565b92505b81612aa557612aa25f612a48565b91505b610d0283835f61308a565b5f82612ac257612abf5f612a48565b92505b81612ad357612ad05f612a48565b91505b610d0283835f613100565b5f612b0b612aeb83613176565b8015612b0657505f8480612b0157612b01613e92565b868809115b151590565b612b168686866131a2565b6119329190613d15565b6001600160a01b038216612b4957604051634b637e8f60e11b81525f600482015260240161092c565b611025825f83612cfd565b5f5160206140505f395f51905f526001600160a01b038516612b8b5760405163e602df0560e01b81525f600482015260240161092c565b6001600160a01b038416612bb457604051634a1406b160e11b81525f600482015260240161092c565b6001600160a01b038086165f90815260018301602090815260408083209388168352929052208390558115612c3157836001600160a01b0316856001600160a01b03167f8c5be1e5ebec7d5bd14f71427d1e84f3dd0314c0f7b2291e5b200ac8c7c3b92585604051612c2891815260200190565b60405180910390a35b5050505050565b5f818152600283016020526040812054819080612c6557612c598585613252565b92505f915061246b9050565b60019250905061246b565b5f828152600284016020526040812082905561240d848461325d565b612c94613268565b610fd457604051631afcd79f60e31b815260040160405180910390fd5b612cb9612c8c565b6110258282613281565b612ccb612c8c565b610b7b816132d1565b612cdc612c8c565b610fd4613354565b612cec612c8c565b610b7b8161335c565b610fd4612c8c565b5f5160206140505f395f51905f526001600160a01b038416612d375781816002015f828254612d2c9190613d15565b90915550612d949050565b6001600160a01b0384165f9081526020829052604090205482811015612d765784818460405163391434e360e21b815260040161092c93929190613ca6565b6001600160a01b0385165f9081526020839052604090209083900390555b6001600160a01b038316612db2576002810180548390039055612dd0565b6001600160a01b0383165f9081526020829052604090208054830190555b826001600160a01b0316846001600160a01b03167fddf252ad1be2c89b69c2b068fc378daa952ba7f163c4a11628f55a4df523b3ef84604051612e1591815260200190565b60405180910390a350505050565b5f6108cb8261338d565b5f8080612e3a8585613396565b5f81815260029690960160205260409095205494959350505050565b5f8181526002830160205260408120819055610d0283836133a1565b612e7b826133ac565b6040516001600160a01b038316907fbc7cd75a20ee27fd9adebab32041f755214dbc6bffa90cc0225b39da2e5c2d3b905f90a2805115612ebf576123b4828261340f565b611025613478565b7f9016d09d72d40fdae2fd8ceac6b6234c7706214fd39c1cd1e609a0528c19930080546001600160a01b031981166001600160a01b03848116918217845560405192169182907f8be0079c531659141344cd1fd0a4f28419497f9722a3daafe3b4186f6b6457e0905f90a3505050565b5f805f5160206140305f395f51905f526001810154604051631ce2e8d760e31b8152600481018790526001600160f81b031960f887901b1660248201529192506001600160a01b03169063e71746b8906044016020604051808303815f875af1158015612fa6573d5f5f3e3d5ffd5b505050506040513d601f19601f8201168201806040525081019061240d9190613c8f565b5f5f8215612fdd5750600160f81b612fe0565b505f5b7fed8d60e34876f751cc8b014c560745351147d9de11b9347c854e881b128ea60154604051631f31e28560e11b81525f5160206140305f395f51905f52916001600160a01b031690633e63c50a9061304090899089908790600401613ea6565b6020604051808303815f875af115801561305c573d5f5f3e3d5ffd5b505050506040513d601f19601f820116820180604052508101906130809190613c8f565b9695505050505050565b5f5f821561309d5750600160f81b6130a0565b505f5b7fed8d60e34876f751cc8b014c560745351147d9de11b9347c854e881b128ea6015460405163f953e42760e01b81525f5160206140305f395f51905f52916001600160a01b03169063f953e4279061304090899089908790600401613ea6565b5f5f82156131135750600160f81b613116565b505f5b7fed8d60e34876f751cc8b014c560745351147d9de11b9347c854e881b128ea60154604051630d7c62eb60e31b81525f5160206140305f395f51905f52916001600160a01b031690636be317589061304090899089908790600401613ea6565b5f600282600381111561318b5761318b613ec6565b6131959190613eda565b60ff166001149050919050565b5f5f5f6131af8686613497565b91509150815f036131d3578381816131c9576131c9613e92565b0492505050610d02565b8184116131ea576131ea60038515026011186134b3565b5f848688095f868103871696879004966002600389028118808a02820302808a02820302808a02820302808a02820302808a02820302808a02909103029181900381900460010185841190960395909502919093039390930492909217029150509392505050565b5f610d0283836134c4565b5f610d0283836134db565b5f61327161249a565b54600160401b900460ff16919050565b613289612c8c565b5f5160206140505f395f51905f527f52c63247e1f47db19d5ce0460030c497f067ca4cebf71ba98eeadabe20bace036132c28482613f4b565b50600481016127478382613f4b565b6132d9612c8c565b7f0773e532dfede91f04b12a73d3d2acd361424f41f76b4fb79f090161e36b4e005f8061330584613527565b9150915081613315576012613317565b805b83546001600160a81b031916600160a01b60ff92909216919091026001600160a01b031916176001600160a01b0394909416939093179091555050565b612487612c8c565b613364612c8c565b6001600160a01b0381166112b657604051631e4fbdf760e01b81525f600482015260240161092c565b5f6108cb825490565b5f610d0283836135fd565b5f610d028383613623565b806001600160a01b03163b5f036133e157604051634c9c8ce360e01b81526001600160a01b038216600482015260240161092c565b5f5160206140705f395f51905f5280546001600160a01b0319166001600160a01b0392909216919091179055565b60605f5f846001600160a01b03168460405161342b9190614005565b5f60405180830381855af49150503d805f8114613463576040519150601f19603f3d011682016040523d82523d5f602084013e613468565b606091505b5091509150611932858383613706565b3415610fd45760405163b398979f60e01b815260040160405180910390fd5b5f805f1983850993909202808410938190039390930393915050565b634e487b715f52806020526024601cfd5b5f8181526001830160205260408120541515610d02565b5f81815260018301602052604081205461352057508154600181810184555f8481526020808220909301849055845484825282860190935260409020919091556108cb565b505f6108cb565b60408051600481526024810182526020810180516001600160e01b031663313ce56760e01b17905290515f918291829182916001600160a01b0387169161356d91614005565b5f60405180830381855afa9150503d805f81146135a5576040519150601f19603f3d011682016040523d82523d5f602084013e6135aa565b606091505b50915091508180156135be57506020815110155b156135f1575f818060200190518101906135d89190613c8f565b905060ff81116135ef576001969095509350505050565b505b505f9485945092505050565b5f825f01828154811061361257613612613d41565b905f5260205f200154905092915050565b5f81815260018301602052604081205480156136fd575f613645600183613e66565b85549091505f9061365890600190613e66565b90508082146136b7575f865f01828154811061367657613676613d41565b905f5260205f200154905080875f01848154811061369657613696613d41565b5f918252602080832090910192909255918252600188019052604090208390555b85548690806136c8576136c861401b565b600190038181905f5260205f20015f90559055856001015f8681526020019081526020015f205f9055600193505050506108cb565b5f9150506108cb565b60608261371b5761371682613762565b610d02565b815115801561373257506001600160a01b0384163b155b1561375b57604051639996b31560e01b81526001600160a01b038516600482015260240161092c565b5080610d02565b8051156137725780518082602001fd5b60405163d6bda27560e01b815260040160405180910390fd5b5080545f8255905f5260205f2090810190610b7b91905b808211156137b5575f81556001016137a2565b5090565b602081525f82518060208401528060208501604085015e5f604082850101526040601f19601f83011684010191505092915050565b5f602082840312156137fe575f5ffd5b5035919050565b6001600160a01b0381168114610b7b575f5ffd5b5f5f6040838503121561382a575f5ffd5b823561383581613805565b946020939093013593505050565b5f5f83601f840112613853575f5ffd5b5081356001600160401b03811115613869575f5ffd5b60208301915083602082850101111561246b575f5ffd5b5f5f5f5f5f5f60808789031215613895575f5ffd5b86356138a081613805565b955060208701356138b081613805565b945060408701356001600160401b038111156138ca575f5ffd5b6138d689828a01613843565b90955093505060608701356001600160401b038111156138f4575f5ffd5b61390089828a01613843565b979a9699509497509295939492505050565b5f5f5f60608486031215613924575f5ffd5b833561392f81613805565b9250602084013561393f81613805565b929592945050506040919091013590565b5f60208284031215613960575f5ffd5b8135610d0281613805565b634e487b7160e01b5f52604160045260245ffd5b5f5f60408385031215613990575f5ffd5b823561399b81613805565b915060208301356001600160401b038111156139b5575f5ffd5b8301601f810185136139c5575f5ffd5b80356001600160401b038111156139de576139de61396b565b604051601f8201601f19908116603f011681016001600160401b0381118282101715613a0c57613a0c61396b565b604052818152828201602001871015613a23575f5ffd5b816020840160208301375f602083830101528093505050509250929050565b5f5f60408385031215613a53575f5ffd5b823591506020830135613a6581613805565b809150509250929050565b5f5f83601f840112613a80575f5ffd5b5081356001600160401b03811115613a96575f5ffd5b6020830191508360208260061b850101111561246b575f5ffd5b5f5f60208385031215613ac1575f5ffd5b82356001600160401b03811115613ad6575f5ffd5b613ae285828601613a70565b90969095509350505050565b5f5f5f60408486031215613b00575f5ffd5b83356001600160401b03811115613b15575f5ffd5b613b2186828701613a70565b909790965060209590950135949350505050565b5f5f5f60608486031215613b47575f5ffd5b8335925060208401359150604084013560048110613b63575f5ffd5b809150509250925092565b5f5f5f60608486031215613b80575f5ffd5b833592506020840135613b9281613805565b91506040840135613b6381613805565b604080825283519082018190525f9060208501906060840190835b81811015613be45783516001600160a01b0316835260209384019390920191600101613bbd565b5050838103602080860191909152855180835291810192508501905f5b81811015613c1f578251845260209384019390920191600101613c01565b50919695505050505050565b5f5f60408385031215613c3c575f5ffd5b8235613c4781613805565b91506020830135613a6581613805565b600181811c90821680613c6b57607f821691505b602082108103613c8957634e487b7160e01b5f52602260045260245ffd5b50919050565b5f60208284031215613c9f575f5ffd5b5051919050565b6001600160a01b039390931683526020830191909152604082015260600190565b5f60208284031215613cd7575f5ffd5b8151610d0281613805565b5f60208284031215613cf2575f5ffd5b81518015158114610d02575f5ffd5b634e487b7160e01b5f52601160045260245ffd5b808201808211156108cb576108cb613d01565b60ff81811683821601908111156108cb576108cb613d01565b634e487b7160e01b5f52603260045260245ffd5b5f60208284031215613d65575f5ffd5b815160ff81168114610d02575f5ffd5b6001815b6001841115613db057808504811115613d9457613d94613d01565b6001841615613da257908102905b60019390931c928002613d79565b935093915050565b5f82613dc6575060016108cb565b81613dd257505f6108cb565b8160018114613de85760028114613df257613e0e565b60019150506108cb565b60ff841115613e0357613e03613d01565b50506001821b6108cb565b5060208310610133831016604e8410600b8410161715613e31575081810a6108cb565b613e3d5f198484613d75565b805f1904821115613e5057613e50613d01565b029392505050565b5f610d0260ff841683613db8565b818103818111156108cb576108cb613d01565b60ff82811682821603908111156108cb576108cb613d01565b634e487b7160e01b5f52601260045260245ffd5b92835260208301919091526001600160f81b031916604082015260600190565b634e487b7160e01b5f52602160045260245ffd5b5f60ff831680613ef857634e487b7160e01b5f52601260045260245ffd5b8060ff84160691505092915050565b601f8211156123b457805f5260205f20601f840160051c81016020851015613f2c5750805b601f840160051c820191505b81811015612c31575f8155600101613f38565b81516001600160401b03811115613f6457613f6461396b565b613f7881613f728454613c57565b84613f07565b6020601f821160018114613faa575f8315613f935750848201515b5f19600385901b1c1916600184901b178455612c31565b5f84815260208120601f198516915b82811015613fd95787850151825560209485019460019092019101613fb9565b5084821015613ff657868401515f19600387901b60f8161c191681555b50505050600190811b01905550565b5f82518060208501845e5f920191825250919050565b634e487b7160e01b5f52603160045260245ffdfeed8d60e34876f751cc8b014c560745351147d9de11b9347c854e881b128ea60052c63247e1f47db19d5ce0460030c497f067ca4cebf71ba98eeadabe20bace00360894a13ba1a3210667c828492db98dca3e2076cc3735a920a3ca505d382bbc9b779b17422d0df92223018b32b4d1fa46e071723d6817e2486d003becc55f00a26469706673582212205ddd57d93b819849234dab1981af3aef9f438cb490791f2656f042eddd4bf2ed64736f6c634300081c0033",
  "linkReferences": {},
  "deployedLinkReferences": {}
}