{
  "_format": "hh-sol-artifact-1",
  "contractName": "VaultImplementations",
  "sourceName": "contracts/helpers/VaultImplementations.sol",
  "abi": [
    {
      "inputs": [],
      "stateMutability": "nonpayable",
      "type": "constructor"
    },
    {
      "inputs": [],
      "name": "encryptedVaultImplementation",
      "outputs": [
        {
          "internalType": "address",
          "name": "",
          "type": "address"
        }
      ],
      "stateMutability": "view",
      "type": "function"
    },
    {
      "inputs": [],
      "name": "transparentVaultImplementation",
      "outputs": [
        {
          "internalType": "address",
          "name": "",
          "type": "address"
        }
      ],
      "stateMutability": "view",
      "type": "function"
    }
  ],
  "bytecode": "0x60c0604052348015600e575f80fd5b506040516019906071565b604051809103905ff0801580156031573d5f803e3d5ffd5b506001600160a01b0316608052604051604890607e565b604051809103905ff0801580156060573d5f803e3d5ffd5b506001600160a01b031660a052608b565b6132418061017a83390190565b6130ff806133bb83390190565b60805160a05160d26100a85f395f607a01525f6038015260d25ff3fe6080604052348015600e575f80fd5b50600436106030575f3560e01c806310e43b2d1460345780639c6aac95146076575b5f80fd5b605a7f000000000000000000000000000000000000000000000000000000000000000081565b6040516001600160a01b03909116815260200160405180910390f35b605a7f00000000000000000000000000000000000000000000000000000000000000008156fea264697066735822122017845497581e131a06d180983781f78f05b97a88af04c3d6120b9539ace848bc64736f6c634300081a003360a0604052306080523480156012575f80fd5b506080516132086100395f395f8181611e8501528181611eae015261201001526132085ff3fe6080604052600436106102a5575f3560e01c806379ba50971161016f578063c38fe2f2116100d8578063d905777e11610092578063e66f53b71161006d578063e66f53b7146107ab578063ef8b30f7146107ca578063f2fde38b146107e9578063fb12251b14610808575f80fd5b8063d905777e14610759578063dd62ed3e14610778578063e30c397814610797575f80fd5b8063c38fe2f2146106c9578063c63d75b614610490578063c6e6f592146106e8578063ce96cb7714610707578063d1699c2614610726578063d5f394881461073a575f80fd5b8063aa9d3a6011610129578063aa9d3a6014610614578063ad3cb1cc14610628578063b3d7f6b914610658578063b460af9414610677578063ba08765214610696578063c37fc8a8146106b5575f80fd5b806379ba5097146105a457806387269729146105b85780638da5cb5b146105cd57806394bf804d1461051557806395d89b41146105e1578063a9059cbb146105f5575f80fd5b806333fdc5921161021157806352d1902d116101cb57806352d1902d146105015780636e553f651461051557806370a0823114610534578063715018a614610553578063745400c91461056757806379502c5514610586575f80fd5b806333fdc5921461045057806338d52e0f14610464578063402d267d146104905780634368eb1c146104b05780634cdad506146104cf5780634f1ef286146104ee575f80fd5b806316b602491161026257806316b602491461037b5780631765b3131461039a57806318160ddd146103b95780632016a0d2146103ec57806323b872dd1461040b578063313ce5671461042a575f80fd5b806301e1d114146102a957806306fdde03146102cc57806307a2d13a146102ed578063095ea7b31461030c5780630a28a4771461033b5780630d1e66671461035a575b5f80fd5b3480156102b4575f80fd5b506004545b6040519081526020015b60405180910390f35b3480156102d7575f80fd5b506102e0610827565b6040516102c39190612a44565b3480156102f8575f80fd5b506102b9610307366004612a79565b6108e7565b348015610317575f80fd5b5061032b610326366004612aa4565b610911565b60405190151581526020016102c3565b348015610346575f80fd5b506102b9610355366004612a79565b610928565b348015610365575f80fd5b50610379610374366004612a79565b610934565b005b348015610386575f80fd5b50610379610395366004612a79565b610acf565b3480156103a5575f80fd5b506103796103b4366004612a79565b610b97565b3480156103c4575f80fd5b507f52c63247e1f47db19d5ce0460030c497f067ca4cebf71ba98eeadabe20bace02546102b9565b3480156103f7575f80fd5b50610379610406366004612b77565b610c3f565b348015610416575f80fd5b5061032b610425366004612c00565b610d3e565b348015610435575f80fd5b5061043e610d63565b60405160ff90911681526020016102c3565b34801561045b575f80fd5b50610379610da5565b34801561046f575f80fd5b50610478610f3f565b6040516001600160a01b0390911681526020016102c3565b34801561049b575f80fd5b506102b96104aa366004612c3e565b505f1990565b3480156104bb575f80fd5b506103796104ca366004612a79565b610f73565b3480156104da575f80fd5b506102b96104e9366004612a79565b6110aa565b6103796104fc366004612c59565b6110b5565b34801561050c575f80fd5b506102b96110d4565b348015610520575f80fd5b506102b961052f366004612cb9565b6110ef565b34801561053f575f80fd5b506102b961054e366004612c3e565b611109565b34801561055e575f80fd5b5061037961112f565b348015610572575f80fd5b50610379610581366004612a79565b611140565b348015610591575f80fd5b505f54610478906001600160a01b031681565b3480156105af575f80fd5b50610379611256565b3480156105c3575f80fd5b506102b960035481565b3480156105d8575f80fd5b5061047861129e565b3480156105ec575f80fd5b506102e06112c6565b348015610600575f80fd5b5061032b61060f366004612aa4565b611304565b34801561061f575f80fd5b50610379611311565b348015610633575f80fd5b506102e0604051806040016040528060058152602001640352e302e360dc1b81525081565b348015610663575f80fd5b506102b9610672366004612a79565b611501565b348015610682575f80fd5b506102b9610691366004612ce7565b61150d565b3480156106a1575f80fd5b506102b96106b0366004612ce7565b611526565b3480156106c0575f80fd5b506102b9611540565b3480156106d4575f80fd5b506103796106e3366004612d26565b6115a2565b3480156106f3575f80fd5b506102b9610702366004612a79565b6116b5565b348015610712575f80fd5b506102b9610721366004612c3e565b6116ce565b348015610731575f80fd5b506102b96116e1565b348015610745575f80fd5b50600254610478906001600160a01b031681565b348015610764575f80fd5b506102b9610773366004612c3e565b61173d565b348015610783575f80fd5b506102b9610792366004612d4f565b611747565b3480156107a2575f80fd5b50610478611790565b3480156107b6575f80fd5b50600154610478906001600160a01b031681565b3480156107d5575f80fd5b506102b96107e4366004612a79565b6117b8565b3480156107f4575f80fd5b50610379610803366004612c3e565b6117c3565b348015610813575f80fd5b50610379610822366004612d7b565b611848565b7f52c63247e1f47db19d5ce0460030c497f067ca4cebf71ba98eeadabe20bace0380546060915f805160206131938339815191529161086590612dec565b80601f016020809104026020016040519081016040528092919081815260200182805461089190612dec565b80156108dc5780601f106108b3576101008083540402835291602001916108dc565b820191905f5260205f20905b8154815290600101906020018083116108bf57829003601f168201915b505050505091505090565b5f6108f0610d63565b60ff16600354836109019190612e32565b61090b9190612e5d565b92915050565b5f3361091e818585611af8565b5060019392505050565b5f61090b826001611b0a565b805f0361096d57610943610f3f565b604051636b30633560e01b81526001600160a01b0390911660048201526024015b60405180910390fd5b335f9081526005602052604081205490036109c457600780546001810182555f919091527fa66cc928b5edb82af9bd49922954155ab7b0942694bea4ce44661d9a8736c6880180546001600160a01b031916331790555b335f90815260056020526040812080548392906109e2908490612e70565b909155505f90506109f1610f3f565b6040516323b872dd60e01b8152336004820152306024820152604481018490526001600160a01b0391909116906323b872dd906064016020604051808303815f875af1158015610a43573d5f803e3d5ffd5b505050506040513d601f19601f82011682018060405250810190610a679190612e83565b905080610a87576040516312171d8360e31b815260040160405180910390fd5b60075460405133917f03979a8c481a9e9c06938045cfd5c28535255cb003b10a8fe84ebb3cb4d440f291610ac391868252602082015260400190565b60405180910390a25050565b5f8054906101000a90046001600160a01b03166001600160a01b031663348ec5c86040518163ffffffff1660e01b8152600401602060405180830381865afa158015610b1d573d5f803e3d5ffd5b505050506040513d601f19601f82011682018060405250810190610b419190612ea2565b6001600160a01b0316336001600160a01b031614610b725760405163efb380d960e01b815260040160405180910390fd5b805f03610b9257604051634dfba02360e01b815260040160405180910390fd5b600355565b5f8054906101000a90046001600160a01b03166001600160a01b031663348ec5c86040518163ffffffff1660e01b8152600401602060405180830381865afa158015610be5573d5f803e3d5ffd5b505050506040513d601f19601f82011682018060405250810190610c099190612ea2565b6001600160a01b0316336001600160a01b031614610c3a5760405163efb380d960e01b815260040160405180910390fd5b600455565b5f610c48611b5c565b805490915060ff600160401b820416159067ffffffffffffffff165f81158015610c6f5750825b90505f8267ffffffffffffffff166001148015610c8b5750303b155b905081158015610c99575080155b15610cb75760405163f92ee8a960e01b815260040160405180910390fd5b845467ffffffffffffffff191660011785558315610ce157845460ff60401b1916600160401b1785555b610ced89898989611b84565b8315610d3357845460ff60401b19168555604051600181527fc7f505b2f371ae2175ee4913f4499e1f2633a7b5936321eed1cdaeb6115181d29060200160405180910390a15b505050505050505050565b5f33610d4b858285611cc6565b610d56858585611d2a565b60019150505b9392505050565b5f807f0773e532dfede91f04b12a73d3d2acd361424f41f76b4fb79f090161e36b4e0090505f8154610d9f9190600160a01b900460ff16612ebd565b91505090565b5f8054906101000a90046001600160a01b03166001600160a01b0316633a0dad8e6040518163ffffffff1660e01b8152600401602060405180830381865afa158015610df3573d5f803e3d5ffd5b505050506040513d601f19601f82011682018060405250810190610e179190612ea2565b6001600160a01b0316336001600160a01b031614610e4857604051631af2ab4f60e31b815260040160405180910390fd5b610e50611d87565b5f5b600754811015610f13575f60078281548110610e7057610e70612ed6565b5f9182526020808320909101546001600160a01b03168083526005909152604082205490925090610ea0826117b8565b6001600160a01b0384165f908152600560205260408120559050610ec48382611dd1565b60408051838152602081018690526001600160a01b038516917f782ea2005b7f873a0190a1ccb553c732171348d6e16d2b7d3d493c0677dc296e910160405180910390a2505050600101610e52565b50610f3d60017f9b779b17422d0df92223018b32b4d1fa46e071723d6817e2486d003becc55f0055565b565b5f807f0773e532dfede91f04b12a73d3d2acd361424f41f76b4fb79f090161e36b4e005b546001600160a01b031692915050565b805f03610f8257610943610f3f565b335f90815260056020526040902054811115610fb1576040516332194fd360e21b815260040160405180910390fd5b335f9081526005602052604081208054839290610fcf908490612eea565b909155505f9050610fde610f3f565b60405163a9059cbb60e01b8152336004820152602481018490526001600160a01b03919091169063a9059cbb906044016020604051808303815f875af115801561102a573d5f803e3d5ffd5b505050506040513d601f19601f8201168201806040525081019061104e9190612e83565b90508061106e576040516312171d8360e31b815260040160405180910390fd5b60075460405133917f3c121205405bd3a6cc45661cccddd03e333ae4ef37be94cfa3880f6d616a20c891610ac391868252602082015260400190565b5f61090b825f611e2b565b6110bd611e7a565b6110c682611f1e565b6110d08282611f49565b5050565b5f6110dd612005565b505f805160206131b383398151915290565b5f6040516318f2e47360e11b815260040160405180910390fd5b6001600160a01b03165f9081525f80516020613193833981519152602052604090205490565b61113761204e565b610f3d5f612080565b805f03611160576040516314e6cbb960e11b815260040160405180910390fd5b8061116a33611109565b101561118957604051633c57b48560e21b815260040160405180910390fd5b335f9081526006602052604081205490036111e057600880546001810182555f919091527ff3f7a9fe364faab93b216da50a3214154f22a0a2b415b23a84c8169e8b636ee30180546001600160a01b031916331790555b335f90815260066020526040812080548392906111fe908490612e70565b9091555061120f9050333083611d2a565b60085460405133917fd72eb5d043f24a0168ae744d5c44f9596fd673a26bf74d9646bff4b844882d149161124b91858252602082015260400190565b60405180910390a250565b3380611260611790565b6001600160a01b0316146112925760405163118cdaa760e01b81526001600160a01b0382166004820152602401610964565b61129b81612080565b50565b5f807f9016d09d72d40fdae2fd8ceac6b6234c7706214fd39c1cd1e609a0528c199300610f63565b7f52c63247e1f47db19d5ce0460030c497f067ca4cebf71ba98eeadabe20bace0480546060915f805160206131938339815191529161086590612dec565b5f3361091e818585611d2a565b5f8054906101000a90046001600160a01b03166001600160a01b0316633a0dad8e6040518163ffffffff1660e01b8152600401602060405180830381865afa15801561135f573d5f803e3d5ffd5b505050506040513d601f19601f820116820180604052508101906113839190612ea2565b6001600160a01b0316336001600160a01b0316146113b457604051631af2ab4f60e31b815260040160405180910390fd5b6113bc611d87565b5f5b600854811015610f13575f600882815481106113dc576113dc612ed6565b5f9182526020808320909101546001600160a01b03168083526006909152604082208054929055915061140f30826120b8565b5f611419826110aa565b9050611423610f3f565b60405163a9059cbb60e01b81526001600160a01b03858116600483015260248201849052919091169063a9059cbb906044016020604051808303815f875af1158015611471573d5f803e3d5ffd5b505050506040513d601f19601f820116820180604052508101906114959190612e83565b6114b2576040516312171d8360e31b815260040160405180910390fd5b60408051838152602081018690526001600160a01b038516917febad37b830b1857ef9af5983fc20dc0ded12dc472ba1e22e06fd3a9465b4506c910160405180910390a25050506001016113be565b5f61090b826001611e2b565b5f604051628a595160e01b815260040160405180910390fd5b5f604051630ad8521960e31b815260040160405180910390fd5b5f80805b60085481101561159c5760065f6008838154811061156457611564612ed6565b5f9182526020808320909101546001600160a01b031683528201929092526040019020546115929083612e70565b9150600101611544565b50919050565b5f8054906101000a90046001600160a01b03166001600160a01b031663348ec5c86040518163ffffffff1660e01b8152600401602060405180830381865afa1580156115f0573d5f803e3d5ffd5b505050506040513d601f19601f820116820180604052508101906116149190612ea2565b6001600160a01b0316336001600160a01b0316146116455760405163efb380d960e01b815260040160405180910390fd5b825f0361166557604051634dfba02360e01b815260040160405180910390fd5b6003839055600482905560408051848152602081018490529081018290527f22d59af29033337bec0a35c65d874599f3ea66c941052de217150498e780eb199060600160405180910390a1505050565b5f6003546116c1610d63565b6109019060ff1684612e32565b5f61090b6116db83611109565b5f611e2b565b5f80805b60075481101561159c5760055f6007838154811061170557611705612ed6565b5f9182526020808320909101546001600160a01b031683528201929092526040019020546117339083612e70565b91506001016116e5565b5f61090b82611109565b6001600160a01b039182165f9081527f52c63247e1f47db19d5ce0460030c497f067ca4cebf71ba98eeadabe20bace016020908152604080832093909416825291909152205490565b5f807f237e158222e3e6968b72b9db0d8043aacf074ad9f650f0d1606b4d82ee432c00610f63565b5f61090b825f611b0a565b6117cb61204e565b7f237e158222e3e6968b72b9db0d8043aacf074ad9f650f0d1606b4d82ee432c0080546001600160a01b0319166001600160a01b038316908117825561180f61129e565b6001600160a01b03167f38d16b8cac22d99fc7c124b9cd0de2d3fa1faef420bfe791d8c362d765e2270060405160405180910390a35050565b6001546001600160a01b03163314611873576040516356b381a560e01b815260040160405180910390fd5b5f81900361189457604051631121aa8d60e01b815260040160405180910390fd5b61189e60096120ec565b5f805b82811015611a27575f8484838181106118bc576118bc612ed6565b6118d29260206040909202019081019150612c3e565b90505f8585848181106118e7576118e7612ed6565b90506040020160200160208101906118ff9190612efd565b5f54604051633af32abf60e01b81526001600160a01b038581166004830152929350911690633af32abf90602401602060405180830381865afa158015611948573d5f803e3d5ffd5b505050506040513d601f19601f8201168201806040525081019061196c9190612e83565b6119945760405163751dff9760e11b81526001600160a01b0383166004820152602401610964565b8063ffffffff165f036119c557604051636b30633560e01b81526001600160a01b0383166004820152602401610964565b5f6119db60098463ffffffff808616906120f516565b905080611a06576040516346bdabe160e01b81526001600160a01b0384166004820152602401610964565b611a1663ffffffff831686612e70565b945050600190920191506118a19050565b505f805f9054906101000a90046001600160a01b03166001600160a01b031663d1717c7d6040518163ffffffff1660e01b8152600401602060405180830381865afa158015611a78573d5f803e3d5ffd5b505050506040513d601f19601f82011682018060405250810190611a9c9190612f20565b9050611aa981600a613023565b8214611ac8576040516324204a3560e21b815260040160405180910390fd5b60405133907f2d47a742b8d7df7c1fc5a9a631b206b364e6cb2722490759f63bb3ab14b132e0905f90a250505050565b611b058383836001612112565b505050565b5f610d5c611b1982600a613023565b7f52c63247e1f47db19d5ce0460030c497f067ca4cebf71ba98eeadabe20bace0254611b459190612e70565b600454611b53906001612e70565b859190856121f6565b5f807ff0c57e16840df040f15088dc2f81fe391c3923bec73e23a9662efc9c229c6a0061090b565b611b8c612241565b6001600160a01b038416611bb357604051639c6bb9f560e01b815260040160405180910390fd5b6001600160a01b038316611bda57604051636a485a5b60e11b815260040160405180910390fd5b611be48282612266565b611c4c836001600160a01b0316637158da7c6040518163ffffffff1660e01b8152600401602060405180830381865afa158015611c23573d5f803e3d5ffd5b505050506040513d601f19601f82011682018060405250810190611c479190612ea2565b612278565b611c54612289565b611c5c612299565b611c64612299565b611c6d84612080565b60028054336001600160a01b0319918216179091556001805482166001600160a01b03878116919091179091555f8054909216908516179055611cae610d63565b611cb990600a613023565b60035550505f6004555050565b5f611cd18484611747565b90505f19811015611d245781811015611d1657604051637dc7a0d960e11b81526001600160a01b03841660048201526024810182905260448101839052606401610964565b611d2484848484035f612112565b50505050565b6001600160a01b038316611d5357604051634b637e8f60e11b81525f6004820152602401610964565b6001600160a01b038216611d7c5760405163ec442f0560e01b81525f6004820152602401610964565b611b058383836122a1565b7f9b779b17422d0df92223018b32b4d1fa46e071723d6817e2486d003becc55f00805460011901611dcb57604051633ee5aeb560e01b815260040160405180910390fd5b60029055565b6001600160a01b038216611dfa5760405163ec442f0560e01b81525f6004820152602401610964565b6110d05f83836122a1565b60017f9b779b17422d0df92223018b32b4d1fa46e071723d6817e2486d003becc55f0055565b5f610d5c611e3860045490565b611e43906001612e70565b611e4e5f600a613023565b7f52c63247e1f47db19d5ce0460030c497f067ca4cebf71ba98eeadabe20bace0254611b539190612e70565b306001600160a01b037f0000000000000000000000000000000000000000000000000000000000000000161480611f0057507f00000000000000000000000000000000000000000000000000000000000000006001600160a01b0316611ef45f805160206131b3833981519152546001600160a01b031690565b6001600160a01b031614155b15610f3d5760405163703e46dd60e11b815260040160405180910390fd5b6001546001600160a01b0316331461129b576040516356b381a560e01b815260040160405180910390fd5b816001600160a01b03166352d1902d6040518163ffffffff1660e01b8152600401602060405180830381865afa925050508015611fa3575060408051601f3d908101601f19168201909252611fa091810190613031565b60015b611fcb57604051634c9c8ce360e01b81526001600160a01b0383166004820152602401610964565b5f805160206131b38339815191528114611ffb57604051632a87526960e21b815260048101829052602401610964565b611b0583836123da565b306001600160a01b037f00000000000000000000000000000000000000000000000000000000000000001614610f3d5760405163703e46dd60e11b815260040160405180910390fd5b3361205761129e565b6001600160a01b031614610f3d5760405163118cdaa760e01b8152336004820152602401610964565b7f237e158222e3e6968b72b9db0d8043aacf074ad9f650f0d1606b4d82ee432c0080546001600160a01b03191681556110d08261242f565b6001600160a01b0382166120e157604051634b637e8f60e11b81525f6004820152602401610964565b6110d0825f836122a1565b61129b8161249f565b5f61210a846001600160a01b038516846124e8565b949350505050565b5f805160206131938339815191526001600160a01b0385166121495760405163e602df0560e01b81525f6004820152602401610964565b6001600160a01b03841661217257604051634a1406b160e11b81525f6004820152602401610964565b6001600160a01b038086165f908152600183016020908152604080832093881683529290522083905581156121ef57836001600160a01b0316856001600160a01b03167f8c5be1e5ebec7d5bd14f71427d1e84f3dd0314c0f7b2291e5b200ac8c7c3b925856040516121e691815260200190565b60405180910390a35b5050505050565b5f61222361220383612504565b801561221e57505f848061221957612219612e49565b868809115b151590565b61222e868686612530565b6122389190612e70565b95945050505050565b6122496125e0565b610f3d57604051631afcd79f60e31b815260040160405180910390fd5b61226e612241565b6110d082826125f9565b612280612241565b61129b81612649565b612291612241565b610f3d6126cc565b610f3d612241565b5f805160206131938339815191526001600160a01b0384166122db5781816002015f8282546122d09190612e70565b9091555061234b9050565b6001600160a01b0384165f908152602082905260409020548281101561232d5760405163391434e360e21b81526001600160a01b03861660048201526024810182905260448101849052606401610964565b6001600160a01b0385165f9081526020839052604090209083900390555b6001600160a01b038316612369576002810180548390039055612387565b6001600160a01b0383165f9081526020829052604090208054830190555b826001600160a01b0316846001600160a01b03167fddf252ad1be2c89b69c2b068fc378daa952ba7f163c4a11628f55a4df523b3ef846040516123cc91815260200190565b60405180910390a350505050565b6123e3826126d4565b6040516001600160a01b038316907fbc7cd75a20ee27fd9adebab32041f755214dbc6bffa90cc0225b39da2e5c2d3b905f90a280511561242757611b058282612737565b6110d06127a0565b7f9016d09d72d40fdae2fd8ceac6b6234c7706214fd39c1cd1e609a0528c19930080546001600160a01b031981166001600160a01b03848116918217845560405192169182907f8be0079c531659141344cd1fd0a4f28419497f9722a3daafe3b4186f6b6457e0905f90a3505050565b5f6124a9826127bf565b90505f5b818110156124de57600283015f6124c485846127c9565b815260208101919091526040015f908120556001016124ad565b506110d0826127d4565b5f828152600284016020526040812082905561210a84846127dd565b5f600282600381111561251957612519613048565b612523919061305c565b60ff166001149050919050565b5f805f61253d86866127e8565b91509150815f036125615783818161255757612557612e49565b0492505050610d5c565b818411612578576125786003851502601118612804565b5f848688095f868103871696879004966002600389028118808a02820302808a02820302808a02820302808a02820302808a02820302808a02909103029181900381900460010185841190960395909502919093039390930492909217029150509392505050565b5f6125e9611b5c565b54600160401b900460ff16919050565b612601612241565b5f805160206131938339815191527f52c63247e1f47db19d5ce0460030c497f067ca4cebf71ba98eeadabe20bace0361263a84826130c1565b5060048101611d2483826130c1565b612651612241565b7f0773e532dfede91f04b12a73d3d2acd361424f41f76b4fb79f090161e36b4e005f8061267d84612815565b915091508161268d57601261268f565b805b83546001600160a81b031916600160a01b60ff92909216919091026001600160a01b031916176001600160a01b0394909416939093179091555050565b611e05612241565b806001600160a01b03163b5f0361270957604051634c9c8ce360e01b81526001600160a01b0382166004820152602401610964565b5f805160206131b383398151915280546001600160a01b0319166001600160a01b0392909216919091179055565b60605f80846001600160a01b031684604051612753919061317c565b5f60405180830381855af49150503d805f811461278b576040519150601f19603f3d011682016040523d82523d5f602084013e612790565b606091505b50915091506122388583836128eb565b3415610f3d5760405163b398979f60e01b815260040160405180910390fd5b5f61090b82612947565b5f610d5c8383612950565b61129b81612976565b5f610d5c83836129cf565b5f805f1983850993909202808410938190039390930393915050565b634e487b715f52806020526024601cfd5b60408051600481526024810182526020810180516001600160e01b031663313ce56760e01b17905290515f918291829182916001600160a01b0387169161285b9161317c565b5f60405180830381855afa9150503d805f8114612893576040519150601f19603f3d011682016040523d82523d5f602084013e612898565b606091505b50915091508180156128ac57506020815110155b156128df575f818060200190518101906128c69190613031565b905060ff81116128dd576001969095509350505050565b505b505f9485945092505050565b606082612900576128fb82612a1b565b610d5c565b815115801561291757506001600160a01b0384163b155b1561294057604051639996b31560e01b81526001600160a01b0385166004820152602401610964565b5080610d5c565b5f61090b825490565b5f825f01828154811061296557612965612ed6565b905f5260205f200154905092915050565b5f61297f825490565b90505f5b818110156129c857826001015f845f0183815481106129a4576129a4612ed6565b905f5260205f20015481526020019081526020015f205f9055806001019050612983565b50505f9055565b5f818152600183016020526040812054612a1457508154600181810184555f84815260208082209093018490558454848252828601909352604090209190915561090b565b505f61090b565b805115612a2b5780518082602001fd5b60405163d6bda27560e01b815260040160405180910390fd5b602081525f82518060208401528060208501604085015e5f604082850101526040601f19601f83011684010191505092915050565b5f60208284031215612a89575f80fd5b5035919050565b6001600160a01b038116811461129b575f80fd5b5f8060408385031215612ab5575f80fd5b8235612ac081612a90565b946020939093013593505050565b634e487b7160e01b5f52604160045260245ffd5b5f8067ffffffffffffffff841115612afc57612afc612ace565b50604051601f19601f85018116603f0116810181811067ffffffffffffffff82111715612b2b57612b2b612ace565b604052838152905080828401851015612b42575f80fd5b838360208301375f60208583010152509392505050565b5f82601f830112612b68575f80fd5b610d5c83833560208501612ae2565b5f805f8060808587031215612b8a575f80fd5b8435612b9581612a90565b93506020850135612ba581612a90565b9250604085013567ffffffffffffffff811115612bc0575f80fd5b612bcc87828801612b59565b925050606085013567ffffffffffffffff811115612be8575f80fd5b612bf487828801612b59565b91505092959194509250565b5f805f60608486031215612c12575f80fd5b8335612c1d81612a90565b92506020840135612c2d81612a90565b929592945050506040919091013590565b5f60208284031215612c4e575f80fd5b8135610d5c81612a90565b5f8060408385031215612c6a575f80fd5b8235612c7581612a90565b9150602083013567ffffffffffffffff811115612c90575f80fd5b8301601f81018513612ca0575f80fd5b612caf85823560208401612ae2565b9150509250929050565b5f8060408385031215612cca575f80fd5b823591506020830135612cdc81612a90565b809150509250929050565b5f805f60608486031215612cf9575f80fd5b833592506020840135612d0b81612a90565b91506040840135612d1b81612a90565b809150509250925092565b5f805f60608486031215612d38575f80fd5b505081359360208301359350604090920135919050565b5f8060408385031215612d60575f80fd5b8235612d6b81612a90565b91506020830135612cdc81612a90565b5f8060208385031215612d8c575f80fd5b823567ffffffffffffffff811115612da2575f80fd5b8301601f81018513612db2575f80fd5b803567ffffffffffffffff811115612dc8575f80fd5b8560208260061b8401011115612ddc575f80fd5b6020919091019590945092505050565b600181811c90821680612e0057607f821691505b60208210810361159c57634e487b7160e01b5f52602260045260245ffd5b634e487b7160e01b5f52601160045260245ffd5b808202811582820484141761090b5761090b612e1e565b634e487b7160e01b5f52601260045260245ffd5b5f82612e6b57612e6b612e49565b500490565b8082018082111561090b5761090b612e1e565b5f60208284031215612e93575f80fd5b81518015158114610d5c575f80fd5b5f60208284031215612eb2575f80fd5b8151610d5c81612a90565b60ff818116838216019081111561090b5761090b612e1e565b634e487b7160e01b5f52603260045260245ffd5b8181038181111561090b5761090b612e1e565b5f60208284031215612f0d575f80fd5b813563ffffffff81168114610d5c575f80fd5b5f60208284031215612f30575f80fd5b815160ff81168114610d5c575f80fd5b6001815b6001841115612f7b57808504811115612f5f57612f5f612e1e565b6001841615612f6d57908102905b60019390931c928002612f44565b935093915050565b5f82612f915750600161090b565b81612f9d57505f61090b565b8160018114612fb35760028114612fbd57612fd9565b600191505061090b565b60ff841115612fce57612fce612e1e565b50506001821b61090b565b5060208310610133831016604e8410600b8410161715612ffc575081810a61090b565b6130085f198484612f40565b805f190482111561301b5761301b612e1e565b029392505050565b5f610d5c60ff841683612f83565b5f60208284031215613041575f80fd5b5051919050565b634e487b7160e01b5f52602160045260245ffd5b5f60ff83168061306e5761306e612e49565b8060ff84160691505092915050565b601f821115611b0557805f5260205f20601f840160051c810160208510156130a25750805b601f840160051c820191505b818110156121ef575f81556001016130ae565b815167ffffffffffffffff8111156130db576130db612ace565b6130ef816130e98454612dec565b8461307d565b6020601f821160018114613121575f831561310a5750848201515b5f19600385901b1c1916600184901b1784556121ef565b5f84815260208120601f198516915b828110156131505787850151825560209485019460019092019101613130565b508482101561316d57868401515f19600387901b60f8161c191681555b50505050600190811b01905550565b5f82518060208501845e5f92019182525091905056fe52c63247e1f47db19d5ce0460030c497f067ca4cebf71ba98eeadabe20bace00360894a13ba1a3210667c828492db98dca3e2076cc3735a920a3ca505d382bbca2646970667358221220f1195b0f02e2f6d3cf269aeace3e9449ef62d26cc6c2f7e55529311b6d94764964736f6c634300081a003360a0604052306080523480156012575f80fd5b506080516130c66100395f395f8181611d8601528181611daf0152611f1101526130c65ff3fe6080604052600436106102a5575f3560e01c806379ba50971161016f578063c37fc8a8116100d8578063d5f3948811610092578063e30c39781161006d578063e30c3978146107b6578063e66f53b7146107ca578063ef8b30f7146107e9578063f2fde38b14610808575f80fd5b8063d5f3948814610759578063d905777e14610778578063dd62ed3e14610797575f80fd5b8063c37fc8a8146106d4578063c38fe2f2146106e8578063c63d75b614610490578063c6e6f59214610707578063ce96cb7714610726578063d1699c2614610745575f80fd5b8063a9059cbb11610129578063a9059cbb14610614578063aa9d3a6014610633578063ad3cb1cc14610647578063b3d7f6b914610677578063b460af9414610696578063ba087652146106b5575f80fd5b806379ba5097146105a457806387269729146105b85780638da5cb5b146105cd57806394bf804d1461051557806395d89b41146105e15780639c055a66146105f5575f80fd5b806333fdc5921161021157806352d1902d116101cb57806352d1902d146105015780636e553f651461051557806370a0823114610534578063715018a614610553578063745400c91461056757806379502c5514610586575f80fd5b806333fdc5921461045057806338d52e0f14610464578063402d267d146104905780634368eb1c146104b05780634cdad506146104cf5780634f1ef286146104ee575f80fd5b806316b602491161026257806316b602491461037b5780631765b3131461039a57806318160ddd146103b95780632016a0d2146103ec57806323b872dd1461040b578063313ce5671461042a575f80fd5b806301e1d114146102a957806306fdde03146102cc57806307a2d13a146102ed578063095ea7b31461030c5780630a28a4771461033b5780630d1e66671461035a575b5f80fd5b3480156102b4575f80fd5b506004545b6040519081526020015b60405180910390f35b3480156102d7575f80fd5b506102e0610827565b6040516102c39190612945565b3480156102f8575f80fd5b506102b961030736600461297a565b6108e7565b348015610317575f80fd5b5061032b6103263660046129a5565b610911565b60405190151581526020016102c3565b348015610346575f80fd5b506102b961035536600461297a565b610928565b348015610365575f80fd5b5061037961037436600461297a565b610934565b005b348015610386575f80fd5b5061037961039536600461297a565b610acf565b3480156103a5575f80fd5b506103796103b436600461297a565b610b97565b3480156103c4575f80fd5b507f52c63247e1f47db19d5ce0460030c497f067ca4cebf71ba98eeadabe20bace02546102b9565b3480156103f7575f80fd5b50610379610406366004612a78565b610c3f565b348015610416575f80fd5b5061032b610425366004612b01565b610d3e565b348015610435575f80fd5b5061043e610d63565b60405160ff90911681526020016102c3565b34801561045b575f80fd5b50610379610da5565b34801561046f575f80fd5b50610478610f3f565b6040516001600160a01b0390911681526020016102c3565b34801561049b575f80fd5b506102b96104aa366004612b3f565b505f1990565b3480156104bb575f80fd5b506103796104ca36600461297a565b610f73565b3480156104da575f80fd5b506102b96104e936600461297a565b6110aa565b6103796104fc366004612b5a565b6110b5565b34801561050c575f80fd5b506102b96110d4565b348015610520575f80fd5b506102b961052f366004612bba565b6110ef565b34801561053f575f80fd5b506102b961054e366004612b3f565b611109565b34801561055e575f80fd5b5061037961112f565b348015610572575f80fd5b5061037961058136600461297a565b611140565b348015610591575f80fd5b505f54610478906001600160a01b031681565b3480156105af575f80fd5b50610379611256565b3480156105c3575f80fd5b506102b960035481565b3480156105d8575f80fd5b5061047861129e565b3480156105ec575f80fd5b506102e06112c6565b348015610600575f80fd5b5061037961060f366004612be8565b611304565b34801561061f575f80fd5b5061032b61062e3660046129a5565b6114b5565b34801561063e575f80fd5b506103796114c2565b348015610652575f80fd5b506102e0604051806040016040528060058152602001640352e302e360dc1b81525081565b348015610682575f80fd5b506102b961069136600461297a565b6116b2565b3480156106a1575f80fd5b506102b96106b0366004612c59565b6116be565b3480156106c0575f80fd5b506102b96106cf366004612c59565b6116d7565b3480156106df575f80fd5b506102b96116f1565b3480156106f3575f80fd5b50610379610702366004612c98565b611753565b348015610712575f80fd5b506102b961072136600461297a565b611866565b348015610731575f80fd5b506102b9610740366004612b3f565b61187f565b348015610750575f80fd5b506102b9611892565b348015610764575f80fd5b50600254610478906001600160a01b031681565b348015610783575f80fd5b506102b9610792366004612b3f565b6118ee565b3480156107a2575f80fd5b506102b96107b1366004612cc1565b6118f8565b3480156107c1575f80fd5b50610478611941565b3480156107d5575f80fd5b50600154610478906001600160a01b031681565b3480156107f4575f80fd5b506102b961080336600461297a565b611969565b348015610813575f80fd5b50610379610822366004612b3f565b611974565b7f52c63247e1f47db19d5ce0460030c497f067ca4cebf71ba98eeadabe20bace0380546060915f805160206130518339815191529161086590612ced565b80601f016020809104026020016040519081016040528092919081815260200182805461089190612ced565b80156108dc5780601f106108b3576101008083540402835291602001916108dc565b820191905f5260205f20905b8154815290600101906020018083116108bf57829003601f168201915b505050505091505090565b5f6108f0610d63565b60ff16600354836109019190612d33565b61090b9190612d5e565b92915050565b5f3361091e8185856119f9565b5060019392505050565b5f61090b826001611a0b565b805f0361096d57610943610f3f565b604051636b30633560e01b81526001600160a01b0390911660048201526024015b60405180910390fd5b335f9081526005602052604081205490036109c457600780546001810182555f919091527fa66cc928b5edb82af9bd49922954155ab7b0942694bea4ce44661d9a8736c6880180546001600160a01b031916331790555b335f90815260056020526040812080548392906109e2908490612d71565b909155505f90506109f1610f3f565b6040516323b872dd60e01b8152336004820152306024820152604481018490526001600160a01b0391909116906323b872dd906064016020604051808303815f875af1158015610a43573d5f803e3d5ffd5b505050506040513d601f19601f82011682018060405250810190610a679190612d84565b905080610a87576040516312171d8360e31b815260040160405180910390fd5b60075460405133917f03979a8c481a9e9c06938045cfd5c28535255cb003b10a8fe84ebb3cb4d440f291610ac391868252602082015260400190565b60405180910390a25050565b5f8054906101000a90046001600160a01b03166001600160a01b031663348ec5c86040518163ffffffff1660e01b8152600401602060405180830381865afa158015610b1d573d5f803e3d5ffd5b505050506040513d601f19601f82011682018060405250810190610b419190612da3565b6001600160a01b0316336001600160a01b031614610b725760405163efb380d960e01b815260040160405180910390fd5b805f03610b9257604051634dfba02360e01b815260040160405180910390fd5b600355565b5f8054906101000a90046001600160a01b03166001600160a01b031663348ec5c86040518163ffffffff1660e01b8152600401602060405180830381865afa158015610be5573d5f803e3d5ffd5b505050506040513d601f19601f82011682018060405250810190610c099190612da3565b6001600160a01b0316336001600160a01b031614610c3a5760405163efb380d960e01b815260040160405180910390fd5b600455565b5f610c48611a5d565b805490915060ff600160401b820416159067ffffffffffffffff165f81158015610c6f5750825b90505f8267ffffffffffffffff166001148015610c8b5750303b155b905081158015610c99575080155b15610cb75760405163f92ee8a960e01b815260040160405180910390fd5b845467ffffffffffffffff191660011785558315610ce157845460ff60401b1916600160401b1785555b610ced89898989611a85565b8315610d3357845460ff60401b19168555604051600181527fc7f505b2f371ae2175ee4913f4499e1f2633a7b5936321eed1cdaeb6115181d29060200160405180910390a15b505050505050505050565b5f33610d4b858285611bc7565b610d56858585611c2b565b60019150505b9392505050565b5f807f0773e532dfede91f04b12a73d3d2acd361424f41f76b4fb79f090161e36b4e0090505f8154610d9f9190600160a01b900460ff16612dbe565b91505090565b5f8054906101000a90046001600160a01b03166001600160a01b0316633a0dad8e6040518163ffffffff1660e01b8152600401602060405180830381865afa158015610df3573d5f803e3d5ffd5b505050506040513d601f19601f82011682018060405250810190610e179190612da3565b6001600160a01b0316336001600160a01b031614610e4857604051631af2ab4f60e31b815260040160405180910390fd5b610e50611c88565b5f5b600754811015610f13575f60078281548110610e7057610e70612dd7565b5f9182526020808320909101546001600160a01b03168083526005909152604082205490925090610ea082611969565b6001600160a01b0384165f908152600560205260408120559050610ec48382611cd2565b60408051838152602081018690526001600160a01b038516917f782ea2005b7f873a0190a1ccb553c732171348d6e16d2b7d3d493c0677dc296e910160405180910390a2505050600101610e52565b50610f3d60017f9b779b17422d0df92223018b32b4d1fa46e071723d6817e2486d003becc55f0055565b565b5f807f0773e532dfede91f04b12a73d3d2acd361424f41f76b4fb79f090161e36b4e005b546001600160a01b031692915050565b805f03610f8257610943610f3f565b335f90815260056020526040902054811115610fb1576040516332194fd360e21b815260040160405180910390fd5b335f9081526005602052604081208054839290610fcf908490612deb565b909155505f9050610fde610f3f565b60405163a9059cbb60e01b8152336004820152602481018490526001600160a01b03919091169063a9059cbb906044016020604051808303815f875af115801561102a573d5f803e3d5ffd5b505050506040513d601f19601f8201168201806040525081019061104e9190612d84565b90508061106e576040516312171d8360e31b815260040160405180910390fd5b60075460405133917f3c121205405bd3a6cc45661cccddd03e333ae4ef37be94cfa3880f6d616a20c891610ac391868252602082015260400190565b5f61090b825f611d2c565b6110bd611d7b565b6110c682611e1f565b6110d08282611e4a565b5050565b5f6110dd611f06565b505f8051602061307183398151915290565b5f6040516318f2e47360e11b815260040160405180910390fd5b6001600160a01b03165f9081525f80516020613051833981519152602052604090205490565b611137611f4f565b610f3d5f611f81565b805f03611160576040516314e6cbb960e11b815260040160405180910390fd5b8061116a33611109565b101561118957604051633c57b48560e21b815260040160405180910390fd5b335f9081526006602052604081205490036111e057600880546001810182555f919091527ff3f7a9fe364faab93b216da50a3214154f22a0a2b415b23a84c8169e8b636ee30180546001600160a01b031916331790555b335f90815260066020526040812080548392906111fe908490612d71565b9091555061120f9050333083611c2b565b60085460405133917fd72eb5d043f24a0168ae744d5c44f9596fd673a26bf74d9646bff4b844882d149161124b91858252602082015260400190565b60405180910390a250565b3380611260611941565b6001600160a01b0316146112925760405163118cdaa760e01b81526001600160a01b0382166004820152602401610964565b61129b81611f81565b50565b5f807f9016d09d72d40fdae2fd8ceac6b6234c7706214fd39c1cd1e609a0528c199300610f63565b7f52c63247e1f47db19d5ce0460030c497f067ca4cebf71ba98eeadabe20bace0480546060915f805160206130518339815191529161086590612ced565b6001546001600160a01b0316331461132f576040516356b381a560e01b815260040160405180910390fd5b5f81900361135057604051631121aa8d60e01b815260040160405180910390fd5b61135a6009611fb9565b5f5b81811015611486575f83838381811061137757611377612dd7565b61138d9260206040909202019081019150612b3f565b90505f8484848181106113a2576113a2612dd7565b5f5460408051633af32abf60e01b81526001600160a01b03888116600483015260209290940295909501013594501691633af32abf9150602401602060405180830381865afa1580156113f7573d5f803e3d5ffd5b505050506040513d601f19601f8201168201806040525081019061141b9190612d84565b6114435760405163751dff9760e11b81526001600160a01b0383166004820152602401610964565b5f61145060098484611fc2565b90508061147b576040516346bdabe160e01b81526001600160a01b0384166004820152602401610964565b50505060010161135c565b5060405133907f2d47a742b8d7df7c1fc5a9a631b206b364e6cb2722490759f63bb3ab14b132e0905f90a25050565b5f3361091e818585611c2b565b5f8054906101000a90046001600160a01b03166001600160a01b0316633a0dad8e6040518163ffffffff1660e01b8152600401602060405180830381865afa158015611510573d5f803e3d5ffd5b505050506040513d601f19601f820116820180604052508101906115349190612da3565b6001600160a01b0316336001600160a01b03161461156557604051631af2ab4f60e31b815260040160405180910390fd5b61156d611c88565b5f5b600854811015610f13575f6008828154811061158d5761158d612dd7565b5f9182526020808320909101546001600160a01b0316808352600690915260408220805492905591506115c03082611fdf565b5f6115ca826110aa565b90506115d4610f3f565b60405163a9059cbb60e01b81526001600160a01b03858116600483015260248201849052919091169063a9059cbb906044016020604051808303815f875af1158015611622573d5f803e3d5ffd5b505050506040513d601f19601f820116820180604052508101906116469190612d84565b611663576040516312171d8360e31b815260040160405180910390fd5b60408051838152602081018690526001600160a01b038516917febad37b830b1857ef9af5983fc20dc0ded12dc472ba1e22e06fd3a9465b4506c910160405180910390a250505060010161156f565b5f61090b826001611d2c565b5f604051628a595160e01b815260040160405180910390fd5b5f604051630ad8521960e31b815260040160405180910390fd5b5f80805b60085481101561174d5760065f6008838154811061171557611715612dd7565b5f9182526020808320909101546001600160a01b031683528201929092526040019020546117439083612d71565b91506001016116f5565b50919050565b5f8054906101000a90046001600160a01b03166001600160a01b031663348ec5c86040518163ffffffff1660e01b8152600401602060405180830381865afa1580156117a1573d5f803e3d5ffd5b505050506040513d601f19601f820116820180604052508101906117c59190612da3565b6001600160a01b0316336001600160a01b0316146117f65760405163efb380d960e01b815260040160405180910390fd5b825f0361181657604051634dfba02360e01b815260040160405180910390fd5b6003839055600482905560408051848152602081018490529081018290527f22d59af29033337bec0a35c65d874599f3ea66c941052de217150498e780eb199060600160405180910390a1505050565b5f600354611872610d63565b6109019060ff1684612d33565b5f61090b61188c83611109565b5f611d2c565b5f80805b60075481101561174d5760055f600783815481106118b6576118b6612dd7565b5f9182526020808320909101546001600160a01b031683528201929092526040019020546118e49083612d71565b9150600101611896565b5f61090b82611109565b6001600160a01b039182165f9081527f52c63247e1f47db19d5ce0460030c497f067ca4cebf71ba98eeadabe20bace016020908152604080832093909416825291909152205490565b5f807f237e158222e3e6968b72b9db0d8043aacf074ad9f650f0d1606b4d82ee432c00610f63565b5f61090b825f611a0b565b61197c611f4f565b7f237e158222e3e6968b72b9db0d8043aacf074ad9f650f0d1606b4d82ee432c0080546001600160a01b0319166001600160a01b03831690811782556119c061129e565b6001600160a01b03167f38d16b8cac22d99fc7c124b9cd0de2d3fa1faef420bfe791d8c362d765e2270060405160405180910390a35050565b611a068383836001612013565b505050565b5f610d5c611a1a82600a612ee1565b7f52c63247e1f47db19d5ce0460030c497f067ca4cebf71ba98eeadabe20bace0254611a469190612d71565b600454611a54906001612d71565b859190856120f7565b5f807ff0c57e16840df040f15088dc2f81fe391c3923bec73e23a9662efc9c229c6a0061090b565b611a8d612142565b6001600160a01b038416611ab457604051639c6bb9f560e01b815260040160405180910390fd5b6001600160a01b038316611adb57604051636a485a5b60e11b815260040160405180910390fd5b611ae58282612167565b611b4d836001600160a01b0316637158da7c6040518163ffffffff1660e01b8152600401602060405180830381865afa158015611b24573d5f803e3d5ffd5b505050506040513d601f19601f82011682018060405250810190611b489190612da3565b612179565b611b5561218a565b611b5d61219a565b611b6561219a565b611b6e84611f81565b60028054336001600160a01b0319918216179091556001805482166001600160a01b03878116919091179091555f8054909216908516179055611baf610d63565b611bba90600a612ee1565b60035550505f6004555050565b5f611bd284846118f8565b90505f19811015611c255781811015611c1757604051637dc7a0d960e11b81526001600160a01b03841660048201526024810182905260448101839052606401610964565b611c2584848484035f612013565b50505050565b6001600160a01b038316611c5457604051634b637e8f60e11b81525f6004820152602401610964565b6001600160a01b038216611c7d5760405163ec442f0560e01b81525f6004820152602401610964565b611a068383836121a2565b7f9b779b17422d0df92223018b32b4d1fa46e071723d6817e2486d003becc55f00805460011901611ccc57604051633ee5aeb560e01b815260040160405180910390fd5b60029055565b6001600160a01b038216611cfb5760405163ec442f0560e01b81525f6004820152602401610964565b6110d05f83836121a2565b60017f9b779b17422d0df92223018b32b4d1fa46e071723d6817e2486d003becc55f0055565b5f610d5c611d3960045490565b611d44906001612d71565b611d4f5f600a612ee1565b7f52c63247e1f47db19d5ce0460030c497f067ca4cebf71ba98eeadabe20bace0254611a549190612d71565b306001600160a01b037f0000000000000000000000000000000000000000000000000000000000000000161480611e0157507f00000000000000000000000000000000000000000000000000000000000000006001600160a01b0316611df55f80516020613071833981519152546001600160a01b031690565b6001600160a01b031614155b15610f3d5760405163703e46dd60e11b815260040160405180910390fd5b6001546001600160a01b0316331461129b576040516356b381a560e01b815260040160405180910390fd5b816001600160a01b03166352d1902d6040518163ffffffff1660e01b8152600401602060405180830381865afa925050508015611ea4575060408051601f3d908101601f19168201909252611ea191810190612eef565b60015b611ecc57604051634c9c8ce360e01b81526001600160a01b0383166004820152602401610964565b5f805160206130718339815191528114611efc57604051632a87526960e21b815260048101829052602401610964565b611a0683836122db565b306001600160a01b037f00000000000000000000000000000000000000000000000000000000000000001614610f3d5760405163703e46dd60e11b815260040160405180910390fd5b33611f5861129e565b6001600160a01b031614610f3d5760405163118cdaa760e01b8152336004820152602401610964565b7f237e158222e3e6968b72b9db0d8043aacf074ad9f650f0d1606b4d82ee432c0080546001600160a01b03191681556110d082612330565b61129b816123a0565b5f611fd7846001600160a01b038516846123e9565b949350505050565b6001600160a01b03821661200857604051634b637e8f60e11b81525f6004820152602401610964565b6110d0825f836121a2565b5f805160206130518339815191526001600160a01b03851661204a5760405163e602df0560e01b81525f6004820152602401610964565b6001600160a01b03841661207357604051634a1406b160e11b81525f6004820152602401610964565b6001600160a01b038086165f908152600183016020908152604080832093881683529290522083905581156120f057836001600160a01b0316856001600160a01b03167f8c5be1e5ebec7d5bd14f71427d1e84f3dd0314c0f7b2291e5b200ac8c7c3b925856040516120e791815260200190565b60405180910390a35b5050505050565b5f61212461210483612405565b801561211f57505f848061211a5761211a612d4a565b868809115b151590565b61212f868686612431565b6121399190612d71565b95945050505050565b61214a6124e1565b610f3d57604051631afcd79f60e31b815260040160405180910390fd5b61216f612142565b6110d082826124fa565b612181612142565b61129b8161254a565b612192612142565b610f3d6125cd565b610f3d612142565b5f805160206130518339815191526001600160a01b0384166121dc5781816002015f8282546121d19190612d71565b9091555061224c9050565b6001600160a01b0384165f908152602082905260409020548281101561222e5760405163391434e360e21b81526001600160a01b03861660048201526024810182905260448101849052606401610964565b6001600160a01b0385165f9081526020839052604090209083900390555b6001600160a01b03831661226a576002810180548390039055612288565b6001600160a01b0383165f9081526020829052604090208054830190555b826001600160a01b0316846001600160a01b03167fddf252ad1be2c89b69c2b068fc378daa952ba7f163c4a11628f55a4df523b3ef846040516122cd91815260200190565b60405180910390a350505050565b6122e4826125d5565b6040516001600160a01b038316907fbc7cd75a20ee27fd9adebab32041f755214dbc6bffa90cc0225b39da2e5c2d3b905f90a280511561232857611a068282612638565b6110d06126a1565b7f9016d09d72d40fdae2fd8ceac6b6234c7706214fd39c1cd1e609a0528c19930080546001600160a01b031981166001600160a01b03848116918217845560405192169182907f8be0079c531659141344cd1fd0a4f28419497f9722a3daafe3b4186f6b6457e0905f90a3505050565b5f6123aa826126c0565b90505f5b818110156123df57600283015f6123c585846126ca565b815260208101919091526040015f908120556001016123ae565b506110d0826126d5565b5f8281526002840160205260408120829055611fd784846126de565b5f600282600381111561241a5761241a612f06565b6124249190612f1a565b60ff166001149050919050565b5f805f61243e86866126e9565b91509150815f036124625783818161245857612458612d4a565b0492505050610d5c565b818411612479576124796003851502601118612705565b5f848688095f868103871696879004966002600389028118808a02820302808a02820302808a02820302808a02820302808a02820302808a02909103029181900381900460010185841190960395909502919093039390930492909217029150509392505050565b5f6124ea611a5d565b54600160401b900460ff16919050565b612502612142565b5f805160206130518339815191527f52c63247e1f47db19d5ce0460030c497f067ca4cebf71ba98eeadabe20bace0361253b8482612f7f565b5060048101611c258382612f7f565b612552612142565b7f0773e532dfede91f04b12a73d3d2acd361424f41f76b4fb79f090161e36b4e005f8061257e84612716565b915091508161258e576012612590565b805b83546001600160a81b031916600160a01b60ff92909216919091026001600160a01b031916176001600160a01b0394909416939093179091555050565b611d06612142565b806001600160a01b03163b5f0361260a57604051634c9c8ce360e01b81526001600160a01b0382166004820152602401610964565b5f8051602061307183398151915280546001600160a01b0319166001600160a01b0392909216919091179055565b60605f80846001600160a01b031684604051612654919061303a565b5f60405180830381855af49150503d805f811461268c576040519150601f19603f3d011682016040523d82523d5f602084013e612691565b606091505b50915091506121398583836127ec565b3415610f3d5760405163b398979f60e01b815260040160405180910390fd5b5f61090b82612848565b5f610d5c8383612851565b61129b81612877565b5f610d5c83836128d0565b5f805f1983850993909202808410938190039390930393915050565b634e487b715f52806020526024601cfd5b60408051600481526024810182526020810180516001600160e01b031663313ce56760e01b17905290515f918291829182916001600160a01b0387169161275c9161303a565b5f60405180830381855afa9150503d805f8114612794576040519150601f19603f3d011682016040523d82523d5f602084013e612799565b606091505b50915091508180156127ad57506020815110155b156127e0575f818060200190518101906127c79190612eef565b905060ff81116127de576001969095509350505050565b505b505f9485945092505050565b606082612801576127fc8261291c565b610d5c565b815115801561281857506001600160a01b0384163b155b1561284157604051639996b31560e01b81526001600160a01b0385166004820152602401610964565b5080610d5c565b5f61090b825490565b5f825f01828154811061286657612866612dd7565b905f5260205f200154905092915050565b5f612880825490565b90505f5b818110156128c957826001015f845f0183815481106128a5576128a5612dd7565b905f5260205f20015481526020019081526020015f205f9055806001019050612884565b50505f9055565b5f81815260018301602052604081205461291557508154600181810184555f84815260208082209093018490558454848252828601909352604090209190915561090b565b505f61090b565b80511561292c5780518082602001fd5b60405163d6bda27560e01b815260040160405180910390fd5b602081525f82518060208401528060208501604085015e5f604082850101526040601f19601f83011684010191505092915050565b5f6020828403121561298a575f80fd5b5035919050565b6001600160a01b038116811461129b575f80fd5b5f80604083850312156129b6575f80fd5b82356129c181612991565b946020939093013593505050565b634e487b7160e01b5f52604160045260245ffd5b5f8067ffffffffffffffff8411156129fd576129fd6129cf565b50604051601f19601f85018116603f0116810181811067ffffffffffffffff82111715612a2c57612a2c6129cf565b604052838152905080828401851015612a43575f80fd5b838360208301375f60208583010152509392505050565b5f82601f830112612a69575f80fd5b610d5c838335602085016129e3565b5f805f8060808587031215612a8b575f80fd5b8435612a9681612991565b93506020850135612aa681612991565b9250604085013567ffffffffffffffff811115612ac1575f80fd5b612acd87828801612a5a565b925050606085013567ffffffffffffffff811115612ae9575f80fd5b612af587828801612a5a565b91505092959194509250565b5f805f60608486031215612b13575f80fd5b8335612b1e81612991565b92506020840135612b2e81612991565b929592945050506040919091013590565b5f60208284031215612b4f575f80fd5b8135610d5c81612991565b5f8060408385031215612b6b575f80fd5b8235612b7681612991565b9150602083013567ffffffffffffffff811115612b91575f80fd5b8301601f81018513612ba1575f80fd5b612bb0858235602084016129e3565b9150509250929050565b5f8060408385031215612bcb575f80fd5b823591506020830135612bdd81612991565b809150509250929050565b5f8060208385031215612bf9575f80fd5b823567ffffffffffffffff811115612c0f575f80fd5b8301601f81018513612c1f575f80fd5b803567ffffffffffffffff811115612c35575f80fd5b8560208260061b8401011115612c49575f80fd5b6020919091019590945092505050565b5f805f60608486031215612c6b575f80fd5b833592506020840135612c7d81612991565b91506040840135612c8d81612991565b809150509250925092565b5f805f60608486031215612caa575f80fd5b505081359360208301359350604090920135919050565b5f8060408385031215612cd2575f80fd5b8235612cdd81612991565b91506020830135612bdd81612991565b600181811c90821680612d0157607f821691505b60208210810361174d57634e487b7160e01b5f52602260045260245ffd5b634e487b7160e01b5f52601160045260245ffd5b808202811582820484141761090b5761090b612d1f565b634e487b7160e01b5f52601260045260245ffd5b5f82612d6c57612d6c612d4a565b500490565b8082018082111561090b5761090b612d1f565b5f60208284031215612d94575f80fd5b81518015158114610d5c575f80fd5b5f60208284031215612db3575f80fd5b8151610d5c81612991565b60ff818116838216019081111561090b5761090b612d1f565b634e487b7160e01b5f52603260045260245ffd5b8181038181111561090b5761090b612d1f565b6001815b6001841115612e3957808504811115612e1d57612e1d612d1f565b6001841615612e2b57908102905b60019390931c928002612e02565b935093915050565b5f82612e4f5750600161090b565b81612e5b57505f61090b565b8160018114612e715760028114612e7b57612e97565b600191505061090b565b60ff841115612e8c57612e8c612d1f565b50506001821b61090b565b5060208310610133831016604e8410600b8410161715612eba575081810a61090b565b612ec65f198484612dfe565b805f1904821115612ed957612ed9612d1f565b029392505050565b5f610d5c60ff841683612e41565b5f60208284031215612eff575f80fd5b5051919050565b634e487b7160e01b5f52602160045260245ffd5b5f60ff831680612f2c57612f2c612d4a565b8060ff84160691505092915050565b601f821115611a0657805f5260205f20601f840160051c81016020851015612f605750805b601f840160051c820191505b818110156120f0575f8155600101612f6c565b815167ffffffffffffffff811115612f9957612f996129cf565b612fad81612fa78454612ced565b84612f3b565b6020601f821160018114612fdf575f8315612fc85750848201515b5f19600385901b1c1916600184901b1784556120f0565b5f84815260208120601f198516915b8281101561300e5787850151825560209485019460019092019101612fee565b508482101561302b57868401515f19600387901b60f8161c191681555b50505050600190811b01905550565b5f82518060208501845e5f92019182525091905056fe52c63247e1f47db19d5ce0460030c497f067ca4cebf71ba98eeadabe20bace00360894a13ba1a3210667c828492db98dca3e2076cc3735a920a3ca505d382bbca2646970667358221220b9a91cdecf6bc3a7afc3363e393ba695025aa68af5755cb21c63b1b9784af32664736f6c634300081a0033",
  "linkReferences": {},
  "deployedLinkReferences": {}
}