{
  "_format": "hh-sol-artifact-1",
  "contractName": "VaultImplementations",
  "sourceName": "contracts/helpers/VaultImplementations.sol",
  "abi": [
    {
      "inputs": [],
      "stateMutability": "nonpayable",
      "type": "constructor"
    },
    {
      "inputs": [],
      "name": "encryptedVaultImplementation",
      "outputs": [
        {
          "internalType": "address",
          "name": "",
          "type": "address"
        }
      ],
      "stateMutability": "view",
      "type": "function"
    },
    {
      "inputs": [],
      "name": "transparentVaultImplementation",
      "outputs": [
        {
          "internalType": "address",
          "name": "",
          "type": "address"
        }
      ],
      "stateMutability": "view",
      "type": "function"
    }
  ],
  "bytecode": "0x608060405234801561000f575f80fd5b5061002a670bb2578dfa69c1d460c01b61012c60201b60201c565b610044673555c693d4277b5160c01b61012c60201b60201c565b6040516100509061012f565b604051809103905ff080158015610069573d5f803e3d5ffd5b505f806101000a81548173ffffffffffffffffffffffffffffffffffffffff021916908373ffffffffffffffffffffffffffffffffffffffff1602179055506100c2677714bfa675546b1060c01b61012c60201b60201c565b6040516100ce9061013c565b604051809103905ff0801580156100e7573d5f803e3d5ffd5b5060015f6101000a81548173ffffffffffffffffffffffffffffffffffffffff021916908373ffffffffffffffffffffffffffffffffffffffff160217905550610149565b50565b6161c8806102a083390190565b615ec28061646883390190565b61014a806101565f395ff3fe608060405234801561000f575f80fd5b5060043610610034575f3560e01c806310e43b2d146100385780639c6aac9514610056575b5f80fd5b610040610074565b60405161004d91906100fb565b60405180910390f35b61005e610097565b60405161006b91906100fb565b60405180910390f35b5f8054906101000a900473ffffffffffffffffffffffffffffffffffffffff1681565b60015f9054906101000a900473ffffffffffffffffffffffffffffffffffffffff1681565b5f73ffffffffffffffffffffffffffffffffffffffff82169050919050565b5f6100e5826100bc565b9050919050565b6100f5816100db565b82525050565b5f60208201905061010e5f8301846100ec565b9291505056fea2646970667358221220e2765a9228e974f931f24d35d76e6b18ba7226321c094b0fda91c9e62c30f56864736f6c634300081a003360a06040523073ffffffffffffffffffffffffffffffffffffffff1660809073ffffffffffffffffffffffffffffffffffffffff168152503480156041575f80fd5b506080516161606100685f395f8181613920015281816139750152613c6101526161605ff3fe608060405260043610610271575f3560e01c806379502c551161014e578063ba087652116100c0578063dd62ed3e11610079578063dd62ed3e146109a5578063e30c3978146109e1578063e66f53b714610a0b578063ef8b30f714610a35578063f2fde38b14610a71578063fb12251b14610a9957610271565b8063ba0876521461084f578063c63d75b61461088b578063c6e6f592146108c7578063ce96cb7714610903578063d5f394881461093f578063d905777e1461096957610271565b806395d89b411161011257806395d89b4114610731578063a9059cbb1461075b578063aa9d3a6014610797578063ad3cb1cc146107ad578063b3d7f6b9146107d7578063b460af941461081357610271565b806379502c551461066157806379ba50971461068b57806387269729146106a15780638da5cb5b146106cb57806394bf804d146106f557610271565b8063313ce567116101e75780634f1ef286116101ab5780634f1ef2861461056557806352d1902d146105815780636e553f65146105ab57806370a08231146105e7578063715018a614610623578063745400c91461063957610271565b8063313ce5671461048357806333fdc592146104ad57806338d52e0f146104c3578063402d267d146104ed5780634cdad5061461052957610271565b80630d1e6667116102395780630d1e66671461037d57806316b60249146103a55780631765b313146103cd57806318160ddd146103f55780632016a0d21461041f57806323b872dd1461044757610271565b806301e1d1141461027557806306fdde031461029f57806307a2d13a146102c9578063095ea7b3146103055780630a28a47714610341575b5f80fd5b348015610280575f80fd5b50610289610ac1565b6040516102969190614f52565b60405180910390f35b3480156102aa575f80fd5b506102b3610b06565b6040516102c09190614fdb565b60405180910390f35b3480156102d4575f80fd5b506102ef60048036038101906102ea9190615036565b610ba4565b6040516102fc9190614f52565b60405180910390f35b348015610310575f80fd5b5061032b600480360381019061032691906150bb565b610c0b565b6040516103389190615113565b60405180910390f35b34801561034c575f80fd5b5061036760048036038101906103629190615036565b610c2d565b6040516103749190614f52565b60405180910390f35b348015610388575f80fd5b506103a3600480360381019061039e9190615036565b610c40565b005b3480156103b0575f80fd5b506103cb60048036038101906103c69190615036565b610fab565b005b3480156103d8575f80fd5b506103f360048036038101906103ee9190615036565b6111f6565b005b348015610400575f80fd5b506104096113b8565b6040516104169190614f52565b60405180910390f35b34801561042a575f80fd5b5061044560048036038101906104409190615293565b6113cf565b005b348015610452575f80fd5b5061046d6004803603810190610468919061532f565b6115ba565b60405161047a9190615113565b60405180910390f35b34801561048e575f80fd5b506104976115e8565b6040516104a4919061539a565b60405180910390f35b3480156104b8575f80fd5b506104c161161d565b005b3480156104ce575f80fd5b506104d76119cf565b6040516104e491906153c2565b60405180910390f35b3480156104f8575f80fd5b50610513600480360381019061050e91906153db565b611a04565b6040516105209190614f52565b60405180910390f35b348015610534575f80fd5b5061054f600480360381019061054a9190615036565b611a2d565b60405161055c9190614f52565b60405180910390f35b61057f600480360381019061057a91906154a4565b611a3f565b005b34801561058c575f80fd5b50610595611a5e565b6040516105a29190615516565b60405180910390f35b3480156105b6575f80fd5b506105d160048036038101906105cc919061552f565b611a8f565b6040516105de9190614f52565b60405180910390f35b3480156105f2575f80fd5b5061060d600480360381019061060891906153db565b611aea565b60405161061a9190614f52565b60405180910390f35b34801561062e575f80fd5b50610637611b3d565b005b348015610644575f80fd5b5061065f600480360381019061065a9190615036565b611b50565b005b34801561066c575f80fd5b50610675611e37565b60405161068291906155c8565b60405180910390f35b348015610696575f80fd5b5061069f611e5a565b005b3480156106ac575f80fd5b506106b5611ee8565b6040516106c29190614f52565b60405180910390f35b3480156106d6575f80fd5b506106df611eee565b6040516106ec91906153c2565b60405180910390f35b348015610700575f80fd5b5061071b6004803603810190610716919061552f565b611f23565b6040516107289190614f52565b60405180910390f35b34801561073c575f80fd5b50610745611f7e565b6040516107529190614fdb565b60405180910390f35b348015610766575f80fd5b50610781600480360381019061077c91906150bb565b61201c565b60405161078e9190615113565b60405180910390f35b3480156107a2575f80fd5b506107ab61203e565b005b3480156107b8575f80fd5b506107c16124f8565b6040516107ce9190614fdb565b60405180910390f35b3480156107e2575f80fd5b506107fd60048036038101906107f89190615036565b612531565b60405161080a9190614f52565b60405180910390f35b34801561081e575f80fd5b50610839600480360381019061083491906155e1565b612544565b6040516108469190614f52565b60405180910390f35b34801561085a575f80fd5b50610875600480360381019061087091906155e1565b61259e565b6040516108829190614f52565b60405180910390f35b348015610896575f80fd5b506108b160048036038101906108ac91906153db565b6125f9565b6040516108be9190614f52565b60405180910390f35b3480156108d2575f80fd5b506108ed60048036038101906108e89190615036565b612622565b6040516108fa9190614f52565b60405180910390f35b34801561090e575f80fd5b50610929600480360381019061092491906153db565b612689565b6040516109369190614f52565b60405180910390f35b34801561094a575f80fd5b506109536126a3565b60405161096091906153c2565b60405180910390f35b348015610974575f80fd5b5061098f600480360381019061098a91906153db565b6126c8565b60405161099c9190614f52565b60405180910390f35b3480156109b0575f80fd5b506109cb60048036038101906109c69190615631565b6126d9565b6040516109d89190614f52565b60405180910390f35b3480156109ec575f80fd5b506109f5612769565b604051610a0291906153c2565b60405180910390f35b348015610a16575f80fd5b50610a1f61279e565b604051610a2c91906153c2565b60405180910390f35b348015610a40575f80fd5b50610a5b6004803603810190610a569190615036565b6127c3565b604051610a689190614f52565b60405180910390f35b348015610a7c575f80fd5b50610a976004803603810190610a9291906153db565b6127d5565b005b348015610aa4575f80fd5b50610abf6004803603810190610aba91906156cc565b61288e565b005b5f610ad6676ee03ca85ea3135d60c01b613020565b610aea67ea71ff8dc709024360c01b613020565b610afe67153898368093b1b660c01b613020565b600454905090565b60605f610b11613023565b9050806003018054610b2290615744565b80601f0160208091040260200160405190810160405280929190818152602001828054610b4e90615744565b8015610b995780601f10610b7057610100808354040283529160200191610b99565b820191905f5260205f20905b815481529060010190602001808311610b7c57829003601f168201915b505050505091505090565b5f610bb9674b0ebb8946b5578360c01b613020565b610bcd67c356e56bb375214960c01b613020565b610be16764f8b9ef4a9ab1b860c01b613020565b610be96115e8565b60ff1660035483610bfa91906157a1565b610c04919061580f565b9050919050565b5f80610c1561304a565b9050610c22818585613051565b600191505092915050565b5f610c39826001613063565b9050919050565b610c5467cc5c87dd194d46ec60c01b613020565b610c6867ff5d130b5f5aa92460c01b613020565b610c7c6756c33d31b64edfca60c01b613020565b5f8103610cdb57610c9767e350f1af24fe77ae60c01b613020565b610c9f6119cf565b6040517f6b306335000000000000000000000000000000000000000000000000000000008152600401610cd291906153c2565b60405180910390fd5b610cef67bd08f4463e94a26f60c01b613020565b610d0367d4f0d508e84145ef60c01b613020565b610d17670e960372cb95e61d60c01b613020565b5f80610d2d3360056130bb90919063ffffffff16565b91509150610d45675455428f3bb2e03d60c01b613020565b610d596792f436ec23194fbd60c01b613020565b8115610dae57610d7367ad596bd804a3cba960c01b613020565b610d87674d0add24bf28d32060c01b613020565b610da8338483610d97919061583f565b60056130f89092919063ffffffff16565b50610dee565b610dc267c9b55dd140a6e26360c01b613020565b610dd667238a163478978e3a60c01b613020565b610dec338460056130f89092919063ffffffff16565b505b610e0267140979f5d6eb104f60c01b613020565b610e166758ed7eb0ad09315060c01b613020565b5f610e1f6119cf565b73ffffffffffffffffffffffffffffffffffffffff166323b872dd3330876040518463ffffffff1660e01b8152600401610e5b93929190615872565b6020604051808303815f875af1158015610e77573d5f803e3d5ffd5b505050506040513d601f19601f82011682018060405250810190610e9b91906158d1565b9050610eb167c56cf467a89e28fe60c01b613020565b610ec56717fb428cad32134460c01b613020565b80610f1057610ede6715be4a97ff2b6ce560c01b613020565b6040517f90b8ec1800000000000000000000000000000000000000000000000000000000815260040160405180910390fd5b610f2467fd4d4e60c70bb48560c01b613020565b610f3867a12d127b2672bc7f60c01b613020565b610f4c6736e01ad619c43d2360c01b613020565b3373ffffffffffffffffffffffffffffffffffffffff167f03979a8c481a9e9c06938045cfd5c28535255cb003b10a8fe84ebb3cb4d440f285610f8f6005613129565b604051610f9d9291906158fc565b60405180910390a250505050565b610fbf67ce8bc6c330dd406260c01b613020565b610fd367d4e2e4dad3815b6a60c01b613020565b610fe767d2f493449134e8e460c01b613020565b610ffb678ec77d699364b74360c01b613020565b5f8054906101000a900473ffffffffffffffffffffffffffffffffffffffff1673ffffffffffffffffffffffffffffffffffffffff1663348ec5c86040518163ffffffff1660e01b8152600401602060405180830381865afa158015611063573d5f803e3d5ffd5b505050506040513d601f19601f820116820180604052508101906110879190615937565b73ffffffffffffffffffffffffffffffffffffffff163373ffffffffffffffffffffffffffffffffffffffff16146110ff576110cd67f58ee9ed235f3c2560c01b613020565b6040517fefb380d900000000000000000000000000000000000000000000000000000000815260040160405180910390fd5b6111136718471035c6e621ce60c01b613020565b611127675279bfc05b70624b60c01b613020565b61113b67d45bc83aa33edf6660c01b613020565b61114f67a90aff609f354f2c60c01b613020565b61116367ebb10f651a34a3fc60c01b613020565b61117767a9eb5c7612ab559c60c01b613020565b5f81036111c45761119267f6b6d98ce1731ea760c01b613020565b6040517f4dfba02300000000000000000000000000000000000000000000000000000000815260040160405180910390fd5b6111d867482860e4ed53012560c01b613020565b6111ec677ebe04a33f48482060c01b613020565b8060038190555050565b61120a672cba78a106afb57360c01b613020565b61121e67d4e2e4dad3815b6a60c01b613020565b61123267d2f493449134e8e460c01b613020565b611246678ec77d699364b74360c01b613020565b5f8054906101000a900473ffffffffffffffffffffffffffffffffffffffff1673ffffffffffffffffffffffffffffffffffffffff1663348ec5c86040518163ffffffff1660e01b8152600401602060405180830381865afa1580156112ae573d5f803e3d5ffd5b505050506040513d601f19601f820116820180604052508101906112d29190615937565b73ffffffffffffffffffffffffffffffffffffffff163373ffffffffffffffffffffffffffffffffffffffff161461134a5761131867f58ee9ed235f3c2560c01b613020565b6040517fefb380d900000000000000000000000000000000000000000000000000000000815260040160405180910390fd5b61135e6718471035c6e621ce60c01b613020565b611372675279bfc05b70624b60c01b613020565b61138667931c86717d44088660c01b613020565b61139a670b4aed6f747c0b8760c01b613020565b6113ae6714f75a0ff8908c2760c01b613020565b8060048190555050565b5f806113c2613023565b9050806002015491505090565b6113e367ad4c8a0bffdcb49060c01b61313c565b5f6113ec61313f565b90505f815f0160089054906101000a900460ff161590505f825f015f9054906101000a900467ffffffffffffffff1690505f808267ffffffffffffffff161480156114345750825b90505f60018367ffffffffffffffff1614801561146757505f3073ffffffffffffffffffffffffffffffffffffffff163b145b905081158015611475575080155b156114ac576040517ff92ee8a900000000000000000000000000000000000000000000000000000000815260040160405180910390fd5b6001855f015f6101000a81548167ffffffffffffffff021916908367ffffffffffffffff16021790555083156114f9576001855f0160086101000a81548160ff0219169083151502179055505b61150d6750bb9f272144556f60c01b61313c565b61152167f5197bc5ba2884b660c01b61313c565b61153567cff9a8516239840d60c01b61313c565b611549676a33c9b8ea340cd960c01b61313c565b61155589898989613152565b83156115af575f855f0160086101000a81548160ff0219169083151502179055507fc7f505b2f371ae2175ee4913f4499e1f2633a7b5936321eed1cdaeb6115181d260016040516115a691906159ae565b60405180910390a15b505050505050505050565b5f806115c461304a565b90506115d18582856135da565b6115dc85858561366d565b60019150509392505050565b5f806115f261375d565b90506115fc613784565b815f0160149054906101000a900460ff1661161791906159c7565b91505090565b61163167083df3069b9e9d2760c01b613020565b61164567b122ce11d9020f9e60c01b613020565b61165967843a07b52f962c6660c01b613020565b61166d671d5782730f5eb75460c01b613020565b5f8054906101000a900473ffffffffffffffffffffffffffffffffffffffff1673ffffffffffffffffffffffffffffffffffffffff16633a0dad8e6040518163ffffffff1660e01b8152600401602060405180830381865afa1580156116d5573d5f803e3d5ffd5b505050506040513d601f19601f820116820180604052508101906116f99190615937565b73ffffffffffffffffffffffffffffffffffffffff163373ffffffffffffffffffffffffffffffffffffffff16146117715761173f670f209e39aa656fe460c01b613020565b6040517fd7955a7800000000000000000000000000000000000000000000000000000000815260040160405180910390fd5b611785673a327b3cadfe337560c01b613020565b611799679065fdc87e4824e860c01b613020565b6117ad67de945c3d9e3920c460c01b613020565b6117c167b0629599164b2a7460c01b613020565b6117c9613788565b6117dd679742e98163b5976f60c01b613020565b6117f167a2c15733fae71b3760c01b613020565b6118056732a80c7fd4e7aacb60c01b613020565b6118196798d0177b3b7c2f0060c01b613020565b5f61182e67b66e76afadfd5e2560c01b613020565b61184267eec4c98161b2c7fa60c01b613020565b5f90505b6118506005613129565b8110156119c45761186b6731b7555f6647e1e060c01b613020565b61187f6702c364b6fc79683860c01b613020565b5f806118958360056137dc90919063ffffffff16565b915091506118ad6749d08f8224ab955160c01b613020565b6118c1670f049b32033e42ef60c01b613020565b5f6118cb826127c3565b90506118e1670854c4b781a4248760c01b613020565b6118f5674003944ffea0e5e660c01b613020565b61190983600561380390919063ffffffff16565b5061191e67d3dffdb5aa13304d60c01b613020565b61193267dae93c7d840151da60c01b613020565b61193c8382613830565b611950670afad24fd7d5105160c01b613020565b6119646714987f4aba489b3660c01b613020565b8273ffffffffffffffffffffffffffffffffffffffff167f782ea2005b7f873a0190a1ccb553c732171348d6e16d2b7d3d493c0677dc296e83866040516119ac9291906158fc565b60405180910390a25050508080600101915050611846565b506119cd6138af565b565b5f806119d961375d565b9050805f015f9054906101000a900473ffffffffffffffffffffffffffffffffffffffff1691505090565b5f7fffffffffffffffffffffffffffffffffffffffffffffffffffffffffffffffff9050919050565b5f611a38825f6138c6565b9050919050565b611a4761391e565b611a5082613a04565b611a5a8282613b41565b5050565b5f611a67613c5f565b7f360894a13ba1a3210667c828492db98dca3e2076cc3735a920a3ca505d382bbc5f1b905090565b5f611aa46760836f78f8dc541460c01b613020565b611ab867162668d5a685af8a60c01b613020565b6040517f31e5c8e600000000000000000000000000000000000000000000000000000000815260040160405180910390fd5b5f80611af4613023565b9050805f015f8473ffffffffffffffffffffffffffffffffffffffff1673ffffffffffffffffffffffffffffffffffffffff1681526020019081526020015f2054915050919050565b611b45613ce6565b611b4e5f613d6d565b565b611b64675358131250b2a71e60c01b613020565b611b7867bcd7ac99df260bf560c01b613020565b611b8c6763641f7adc6daef560c01b613020565b5f8103611bd957611ba767d7e4a6d4b0c3142260c01b613020565b6040517f29cd977200000000000000000000000000000000000000000000000000000000815260040160405180910390fd5b611bed672afbbf749420254d60c01b613020565b611c01670c2d36208e73eb4460c01b613020565b611c1567f208adb652c4b5ae60c01b613020565b80611c1f33611aea565b1015611c6b57611c396784ca8058afe47d8b60c01b613020565b6040517ff15ed21400000000000000000000000000000000000000000000000000000000815260040160405180910390fd5b611c7f6728ddd7dafa04e3c760c01b613020565b611c9367105a1ca60fd03e2960c01b613020565b611ca7673470eccb4401b74f60c01b613020565b5f80611cbd3360086130bb90919063ffffffff16565b91509150611cd567cd36804fa1c7c8c660c01b613020565b611ce96783e09782ceaba66b60c01b613020565b8115611d3e57611d03670997a408ce4475f260c01b613020565b611d176736c7052c49ab5c4160c01b613020565b611d38338483611d27919061583f565b60086130f89092919063ffffffff16565b50611d7e565b611d5267373f70957447027460c01b613020565b611d666726769dc9ececc73b60c01b613020565b611d7c338460086130f89092919063ffffffff16565b505b611d9267d15842177d29b57960c01b613020565b611da667d93e1453beb767f960c01b613020565b611db133308561366d565b611dc56795c257a2a3599fba60c01b613020565b611dd9674815008bffa4540960c01b613020565b3373ffffffffffffffffffffffffffffffffffffffff167fd72eb5d043f24a0168ae744d5c44f9596fd673a26bf74d9646bff4b844882d1484611e1c6008613129565b604051611e2a9291906158fc565b60405180910390a2505050565b5f8054906101000a900473ffffffffffffffffffffffffffffffffffffffff1681565b5f611e6361304a565b90508073ffffffffffffffffffffffffffffffffffffffff16611e84612769565b73ffffffffffffffffffffffffffffffffffffffff1614611edc57806040517f118cdaa7000000000000000000000000000000000000000000000000000000008152600401611ed391906153c2565b60405180910390fd5b611ee581613d6d565b50565b60035481565b5f80611ef8613daa565b9050805f015f9054906101000a900473ffffffffffffffffffffffffffffffffffffffff1691505090565b5f611f386729e6f186666629a560c01b613020565b611f4c672831c25f0a5133c260c01b613020565b6040517f31e5c8e600000000000000000000000000000000000000000000000000000000815260040160405180910390fd5b60605f611f89613023565b9050806004018054611f9a90615744565b80601f0160208091040260200160405190810160405280929190818152602001828054611fc690615744565b80156120115780601f10611fe857610100808354040283529160200191612011565b820191905f5260205f20905b815481529060010190602001808311611ff457829003601f168201915b505050505091505090565b5f8061202661304a565b905061203381858561366d565b600191505092915050565b61205267d2614d7fc6cc547d60c01b613020565b61206667b122ce11d9020f9e60c01b613020565b61207a67843a07b52f962c6660c01b613020565b61208e671d5782730f5eb75460c01b613020565b5f8054906101000a900473ffffffffffffffffffffffffffffffffffffffff1673ffffffffffffffffffffffffffffffffffffffff16633a0dad8e6040518163ffffffff1660e01b8152600401602060405180830381865afa1580156120f6573d5f803e3d5ffd5b505050506040513d601f19601f8201168201806040525081019061211a9190615937565b73ffffffffffffffffffffffffffffffffffffffff163373ffffffffffffffffffffffffffffffffffffffff161461219257612160670f209e39aa656fe460c01b613020565b6040517fd7955a7800000000000000000000000000000000000000000000000000000000815260040160405180910390fd5b6121a6673a327b3cadfe337560c01b613020565b6121ba679065fdc87e4824e860c01b613020565b6121ce6769293eabbb6eee7560c01b613020565b6121e26793ccfb1bbf2c7da960c01b613020565b6121ea613788565b6121fe671101ca9cc393bafd60c01b613020565b61221267ddb852d455e3622a60c01b613020565b6122266755f63d02553afee160c01b613020565b61223a6756e6c97551bdc85a60c01b613020565b5f61224f676e303fd1fe852d6f60c01b613020565b6122636707d9c7f63f4f3bff60c01b613020565b5f90505b6122716008613129565b8110156124ed5761228c67dfe5477584437fec60c01b613020565b6122a067f02f2c847724546260c01b613020565b5f806122b68360086137dc90919063ffffffff16565b915091506122ce670db04ad57e2846b660c01b613020565b6122e26755bdf7d56509f14f60c01b613020565b6122f682600861380390919063ffffffff16565b5061230b67f2a0305890dbfb5060c01b613020565b61231f6757b2224bf3aa6f6060c01b613020565b6123293082613dd1565b61233d6767d3bc7567e54ac260c01b613020565b61235167d85a7de72edb945960c01b613020565b5f61235b82611a2d565b9050612371677108e548840a321060c01b613020565b612385677256d7741137d67460c01b613020565b61238d6119cf565b73ffffffffffffffffffffffffffffffffffffffff1663a9059cbb84836040518363ffffffff1660e01b81526004016123c79291906159fb565b6020604051808303815f875af11580156123e3573d5f803e3d5ffd5b505050506040513d601f19601f8201168201806040525081019061240791906158d1565b6124515761241f67c87535c08934e81d60c01b613020565b6040517f90b8ec1800000000000000000000000000000000000000000000000000000000815260040160405180910390fd5b61246567673b1e45bcd0309260c01b613020565b61247967a699b7dd3c37969060c01b613020565b61248d677e1e9dfb3f4e72ae60c01b613020565b8273ffffffffffffffffffffffffffffffffffffffff167febad37b830b1857ef9af5983fc20dc0ded12dc472ba1e22e06fd3a9465b4506c83866040516124d59291906158fc565b60405180910390a25050508080600101915050612267565b506124f66138af565b565b6040518060400160405280600581526020017f352e302e3000000000000000000000000000000000000000000000000000000081525081565b5f61253d8260016138c6565b9050919050565b5f612559674b3f26d8023420e760c01b613020565b61256d67740e3280249ee67560c01b613020565b6040517e8a595100000000000000000000000000000000000000000000000000000000815260040160405180910390fd5b5f6125b3670b93f8cb93f3f27f60c01b613020565b6125c76725eb438a02adcc7f60c01b613020565b6040517f56c290c800000000000000000000000000000000000000000000000000000000815260040160405180910390fd5b5f7fffffffffffffffffffffffffffffffffffffffffffffffffffffffffffffffff9050919050565b5f61263767a6ba681864987fcd60c01b613020565b61264b679b72576798bca4eb60c01b613020565b61265f67cfc840f38094b3f260c01b613020565b60035461266a6115e8565b60ff168361267891906157a1565b612682919061580f565b9050919050565b5f61269c61269683611aea565b5f6138c6565b9050919050565b60025f9054906101000a900473ffffffffffffffffffffffffffffffffffffffff1681565b5f6126d282611aea565b9050919050565b5f806126e3613023565b9050806001015f8573ffffffffffffffffffffffffffffffffffffffff1673ffffffffffffffffffffffffffffffffffffffff1681526020019081526020015f205f8473ffffffffffffffffffffffffffffffffffffffff1673ffffffffffffffffffffffffffffffffffffffff1681526020019081526020015f205491505092915050565b5f80612773613e50565b9050805f015f9054906101000a900473ffffffffffffffffffffffffffffffffffffffff1691505090565b60015f9054906101000a900473ffffffffffffffffffffffffffffffffffffffff1681565b5f6127ce825f613063565b9050919050565b6127dd613ce6565b5f6127e6613e50565b905081815f015f6101000a81548173ffffffffffffffffffffffffffffffffffffffff021916908373ffffffffffffffffffffffffffffffffffffffff1602179055508173ffffffffffffffffffffffffffffffffffffffff16612848611eee565b73ffffffffffffffffffffffffffffffffffffffff167f38d16b8cac22d99fc7c124b9cd0de2d3fa1faef420bfe791d8c362d765e2270060405160405180910390a35050565b6128a2678d4a5a003974515660c01b61313c565b6128b667516af330a0417e0060c01b613020565b6128ca67dcdb33645b95a34260c01b613020565b6128de67c03c10387fb2e14760c01b613020565b60015f9054906101000a900473ffffffffffffffffffffffffffffffffffffffff1673ffffffffffffffffffffffffffffffffffffffff163373ffffffffffffffffffffffffffffffffffffffff16146129785761294667d1231cb0992939e460c01b613020565b6040517f56b381a500000000000000000000000000000000000000000000000000000000815260040160405180910390fd5b61298c67c676da3c8f839ffd60c01b613020565b6129a06774b3d9ea4910564060c01b613020565b6129b467a9e6a8527f6b725460c01b61313c565b6129c867090ca801f063d54a60c01b61313c565b6129dc67f6658b32500726e260c01b61313c565b6129f067163d7862b103936460c01b61313c565b5f8282905003612a4057612a0e67e4092acd8c4a34fe60c01b61313c565b6040517f1121aa8d00000000000000000000000000000000000000000000000000000000815260040160405180910390fd5b612a54672c8da7553dd9a5db60c01b61313c565b612a686759b62af01ccfac2560c01b61313c565b612a7c67e63ab4ac15d9162f60c01b61313c565b612a86600b613e77565b612a9a675728431619a49e6560c01b61313c565b612aae67fd6826446d45f50860c01b61313c565b5f612ac367720668c49dcd7a1060c01b61313c565b612ad767e8386c74b8af1e9460c01b61313c565b5f5b83839050811015612e6157612af8670df6a4f091496d6760c01b61313c565b612b0c67f74d82e8ffd8057360c01b61313c565b5f848483818110612b2057612b1f615a22565b5b9050604002015f016020810190612b3791906153db565b9050612b4d67437e932b3a6fe2d760c01b61313c565b612b6167ce971a47afc207e960c01b61313c565b5f858584818110612b7557612b74615a22565b5b9050604002016020016020810190612b8d9190615a88565b9050612ba367fc451a8695a597a860c01b61313c565b612bb7671b1961bd24dcfda060c01b61313c565b5f8054906101000a900473ffffffffffffffffffffffffffffffffffffffff1673ffffffffffffffffffffffffffffffffffffffff16633af32abf836040518263ffffffff1660e01b8152600401612c0f91906153c2565b602060405180830381865afa158015612c2a573d5f803e3d5ffd5b505050506040513d601f19601f82011682018060405250810190612c4e91906158d1565b612ca357612c666763ceeb8488696de060c01b61313c565b816040517fea3bff2e000000000000000000000000000000000000000000000000000000008152600401612c9a91906153c2565b60405180910390fd5b612cb76781c95ef904817d2160c01b61313c565b612ccb67036c96d419c4f65760c01b61313c565b612cdf67df35dcec0ccc805460c01b61313c565b5f8163ffffffff1603612d3d57612d00671498076195ac975b60c01b61313c565b816040517f6b306335000000000000000000000000000000000000000000000000000000008152600401612d3491906153c2565b60405180910390fd5b612d5167232fbe42857debcf60c01b61313c565b612d65676f0fa2a9d0a12dec60c01b61313c565b612d79675524a0add809337260c01b61313c565b5f612d96838363ffffffff16600b6130f89092919063ffffffff16565b9050612dab666f8e7a47f0b52460c01b61313c565b612dbf67b283788f032b40a360c01b61313c565b80612e1557612dd86797770e3b2d4e08df60c01b61313c565b826040517f46bdabe1000000000000000000000000000000000000000000000000000000008152600401612e0c91906153c2565b60405180910390fd5b612e29676b765eb756ac4f8260c01b61313c565b612e3d6771878810255b749160c01b61313c565b8163ffffffff1685612e4f919061583f565b94505050508080600101915050612ad9565b50612e76671585e207f7a3402260c01b61313c565b612e8a67b54f3717a146a11a60c01b61313c565b5f805f9054906101000a900473ffffffffffffffffffffffffffffffffffffffff1673ffffffffffffffffffffffffffffffffffffffff1663d1717c7d6040518163ffffffff1660e01b8152600401602060405180830381865afa158015612ef4573d5f803e3d5ffd5b505050506040513d601f19601f82011682018060405250810190612f189190615add565b9050612f2e67998186d83536dd4160c01b61313c565b612f4267f77c2333a845ddd960c01b61313c565b80600a612f4f9190615c37565b8214612f9b57612f69673678ae6451a6a49760c01b61313c565b6040517f908128d400000000000000000000000000000000000000000000000000000000815260040160405180910390fd5b612faf67601d117c7af1de1460c01b61313c565b612fc367c0b986fcf43f49e560c01b61313c565b612fd76701bf9a333b6626c660c01b61313c565b3373ffffffffffffffffffffffffffffffffffffffff167f2d47a742b8d7df7c1fc5a9a631b206b364e6cb2722490759f63bb3ab14b132e060405160405180910390a250505050565b50565b5f7f52c63247e1f47db19d5ce0460030c497f067ca4cebf71ba98eeadabe20bace00905090565b5f33905090565b61305e8383836001613e85565b505050565b5f6130b361306f613784565b600a61307b9190615c37565b6130836113b8565b61308d919061583f565b6001613097610ac1565b6130a1919061583f565b8486614062909392919063ffffffff16565b905092915050565b5f805f806130e3865f018673ffffffffffffffffffffffffffffffffffffffff165f1b6140af565b9150915081815f1c9350935050509250929050565b5f613120845f018473ffffffffffffffffffffffffffffffffffffffff165f1b845f1b6140f8565b90509392505050565b5f613135825f0161412f565b9050919050565b50565b5f80613149614142565b90508091505090565b6131666751c23eb2ba5b774a60c01b613020565b61316e61416b565b61318267ab8b9d31cd8a865860c01b613020565b61319667c5b6febfaa46dfa660c01b613020565b6131aa67c696d7c441fc19db60c01b613020565b6131be67052a81137408bec660c01b613020565b5f73ffffffffffffffffffffffffffffffffffffffff168473ffffffffffffffffffffffffffffffffffffffff1603613237576132056789bd3a1b83fd4d1b60c01b613020565b6040517f9c6bb9f500000000000000000000000000000000000000000000000000000000815260040160405180910390fd5b61324b67c128beb5839e09db60c01b613020565b61325f672f5a06091c8aeb6360c01b613020565b613273678bb971814ea39d8d60c01b613020565b5f73ffffffffffffffffffffffffffffffffffffffff168373ffffffffffffffffffffffffffffffffffffffff16036132ec576132ba67a632880eac2437dc60c01b613020565b6040517fd490b4b600000000000000000000000000000000000000000000000000000000815260040160405180910390fd5b61330067f8e6be0ae0b3ab2260c01b613020565b613314675ab91474dd314e2c60c01b613020565b6133286747511351fa9d37ea60c01b613020565b61333282826141ab565b61334667e53a27300dd3ae7860c01b613020565b61335a67f0b1c78f733afd6960c01b613020565b6133cf8373ffffffffffffffffffffffffffffffffffffffff16637158da7c6040518163ffffffff1660e01b8152600401602060405180830381865afa1580156133a6573d5f803e3d5ffd5b505050506040513d601f19601f820116820180604052508101906133ca9190615cbc565b6141c1565b6133e367213a624510e8d39a60c01b613020565b6133f7678bcf21285ecb76e760c01b613020565b6133ff6141d5565b613413678770544a5990fbca60c01b613020565b6134276730acf2a44067868260c01b613020565b61342f6141e7565b613443673edefc61991e7fa060c01b613020565b61345767ebc3862a7314f41660c01b613020565b61345f6141f1565b613473679ba1881c53661af960c01b613020565b61348767b3e39227d34c58dc60c01b613020565b61349084613d6d565b6134a4679e97501f9dc0922660c01b613020565b3360025f6101000a81548173ffffffffffffffffffffffffffffffffffffffff021916908373ffffffffffffffffffffffffffffffffffffffff1602179055506134f867382ff2bfc7e4ee9c60c01b613020565b8360015f6101000a81548173ffffffffffffffffffffffffffffffffffffffff021916908373ffffffffffffffffffffffffffffffffffffffff16021790555061354c677ec8f1d7afced3ab60c01b613020565b825f806101000a81548173ffffffffffffffffffffffffffffffffffffffff021916908373ffffffffffffffffffffffffffffffffffffffff16021790555061359f6762b2a87916bc564860c01b613020565b6135a76115e8565b600a6135b39190615c37565b6003819055506135cd673df13a9eb024617660c01b613020565b5f60048190555050505050565b5f6135e584846126d9565b90507fffffffffffffffffffffffffffffffffffffffffffffffffffffffffffffffff8110156136675781811015613658578281836040517ffb8f41b200000000000000000000000000000000000000000000000000000000815260040161364f93929190615ce7565b60405180910390fd5b61366684848484035f613e85565b5b50505050565b5f73ffffffffffffffffffffffffffffffffffffffff168373ffffffffffffffffffffffffffffffffffffffff16036136dd575f6040517f96c6fd1e0000000000000000000000000000000000000000000000000000000081526004016136d491906153c2565b60405180910390fd5b5f73ffffffffffffffffffffffffffffffffffffffff168273ffffffffffffffffffffffffffffffffffffffff160361374d575f6040517fec442f0500000000000000000000000000000000000000000000000000000000815260040161374491906153c2565b60405180910390fd5b6137588383836141fb565b505050565b5f7f0773e532dfede91f04b12a73d3d2acd361424f41f76b4fb79f090161e36b4e00905090565b5f90565b5f61379161442a565b90506002815f0154036137d0576040517f3ee5aeb500000000000000000000000000000000000000000000000000000000815260040160405180910390fd5b6002815f018190555050565b5f805f806137ec865f0186614451565b91509150815f1c815f1c9350935050509250929050565b5f613828835f018373ffffffffffffffffffffffffffffffffffffffff165f1b61448c565b905092915050565b5f73ffffffffffffffffffffffffffffffffffffffff168273ffffffffffffffffffffffffffffffffffffffff16036138a0575f6040517fec442f0500000000000000000000000000000000000000000000000000000000815260040161389791906153c2565b60405180910390fd5b6138ab5f83836141fb565b5050565b5f6138b861442a565b90506001815f018190555050565b5f61391660016138d4610ac1565b6138de919061583f565b6138e6613784565b600a6138f29190615c37565b6138fa6113b8565b613904919061583f565b8486614062909392919063ffffffff16565b905092915050565b7f000000000000000000000000000000000000000000000000000000000000000073ffffffffffffffffffffffffffffffffffffffff163073ffffffffffffffffffffffffffffffffffffffff1614806139cb57507f000000000000000000000000000000000000000000000000000000000000000073ffffffffffffffffffffffffffffffffffffffff166139b26144c0565b73ffffffffffffffffffffffffffffffffffffffff1614155b15613a02576040517fe07c8dba00000000000000000000000000000000000000000000000000000000815260040160405180910390fd5b565b613a186781493ec40615236160c01b613020565b613a2c67516af330a0417e0060c01b613020565b613a4067dcdb33645b95a34260c01b613020565b613a5467c03c10387fb2e14760c01b613020565b60015f9054906101000a900473ffffffffffffffffffffffffffffffffffffffff1673ffffffffffffffffffffffffffffffffffffffff163373ffffffffffffffffffffffffffffffffffffffff1614613aee57613abc67d1231cb0992939e460c01b613020565b6040517f56b381a500000000000000000000000000000000000000000000000000000000815260040160405180910390fd5b613b0267c676da3c8f839ffd60c01b613020565b613b166774b3d9ea4910564060c01b613020565b613b2a67687f7af4600d477760c01b613020565b613b3e6723944504339ee12560c01b613020565b50565b8173ffffffffffffffffffffffffffffffffffffffff166352d1902d6040518163ffffffff1660e01b8152600401602060405180830381865afa925050508015613ba957506040513d601f19601f82011682018060405250810190613ba69190615d46565b60015b613bea57816040517f4c9c8ce3000000000000000000000000000000000000000000000000000000008152600401613be191906153c2565b60405180910390fd5b7f360894a13ba1a3210667c828492db98dca3e2076cc3735a920a3ca505d382bbc5f1b8114613c5057806040517faa1d49a4000000000000000000000000000000000000000000000000000000008152600401613c479190615516565b60405180910390fd5b613c5a8383614513565b505050565b7f000000000000000000000000000000000000000000000000000000000000000073ffffffffffffffffffffffffffffffffffffffff163073ffffffffffffffffffffffffffffffffffffffff1614613ce4576040517fe07c8dba00000000000000000000000000000000000000000000000000000000815260040160405180910390fd5b565b613cee61304a565b73ffffffffffffffffffffffffffffffffffffffff16613d0c611eee565b73ffffffffffffffffffffffffffffffffffffffff1614613d6b57613d2f61304a565b6040517f118cdaa7000000000000000000000000000000000000000000000000000000008152600401613d6291906153c2565b60405180910390fd5b565b5f613d76613e50565b9050805f015f6101000a81549073ffffffffffffffffffffffffffffffffffffffff0219169055613da682614585565b5050565b5f7f9016d09d72d40fdae2fd8ceac6b6234c7706214fd39c1cd1e609a0528c199300905090565b5f73ffffffffffffffffffffffffffffffffffffffff168273ffffffffffffffffffffffffffffffffffffffff1603613e41575f6040517f96c6fd1e000000000000000000000000000000000000000000000000000000008152600401613e3891906153c2565b60405180910390fd5b613e4c825f836141fb565b5050565b5f7f237e158222e3e6968b72b9db0d8043aacf074ad9f650f0d1606b4d82ee432c00905090565b613e82815f01614656565b50565b5f613e8e613023565b90505f73ffffffffffffffffffffffffffffffffffffffff168573ffffffffffffffffffffffffffffffffffffffff1603613f00575f6040517fe602df05000000000000000000000000000000000000000000000000000000008152600401613ef791906153c2565b60405180910390fd5b5f73ffffffffffffffffffffffffffffffffffffffff168473ffffffffffffffffffffffffffffffffffffffff1603613f70575f6040517f94280d62000000000000000000000000000000000000000000000000000000008152600401613f6791906153c2565b60405180910390fd5b82816001015f8773ffffffffffffffffffffffffffffffffffffffff1673ffffffffffffffffffffffffffffffffffffffff1681526020019081526020015f205f8673ffffffffffffffffffffffffffffffffffffffff1673ffffffffffffffffffffffffffffffffffffffff1681526020019081526020015f2081905550811561405b578373ffffffffffffffffffffffffffffffffffffffff168573ffffffffffffffffffffffffffffffffffffffff167f8c5be1e5ebec7d5bd14f71427d1e84f3dd0314c0f7b2291e5b200ac8c7c3b925856040516140529190614f52565b60405180910390a35b5050505050565b5f61409061406f836146b1565b801561408b57505f8480614086576140856157e2565b5b868809115b6146de565b61409b8686866146e9565b6140a5919061583f565b9050949350505050565b5f805f846002015f8581526020019081526020015f205490505f801b81036140e8576140db85856147c8565b5f801b92509250506140f1565b60018192509250505b9250929050565b5f81846002015f8581526020019081526020015f208190555061412683855f016147e690919063ffffffff16565b90509392505050565b5f61413b825f016147fb565b9050919050565b5f7ff0c57e16840df040f15088dc2f81fe391c3923bec73e23a9662efc9c229c6a005f1b905090565b61417361480e565b6141a9576040517fd7e6bcf800000000000000000000000000000000000000000000000000000000815260040160405180910390fd5b565b6141b361416b565b6141bd828261482c565b5050565b6141c961416b565b6141d281614868565b50565b6141dd61416b565b6141e56148fa565b565b6141ef61416b565b565b6141f961416b565b565b5f614204613023565b90505f73ffffffffffffffffffffffffffffffffffffffff168473ffffffffffffffffffffffffffffffffffffffff16036142585781816002015f82825461424c919061583f565b9250508190555061432a565b5f815f015f8673ffffffffffffffffffffffffffffffffffffffff1673ffffffffffffffffffffffffffffffffffffffff1681526020019081526020015f20549050828110156142e3578481846040517fe450d38c0000000000000000000000000000000000000000000000000000000081526004016142da93929190615ce7565b60405180910390fd5b828103825f015f8773ffffffffffffffffffffffffffffffffffffffff1673ffffffffffffffffffffffffffffffffffffffff1681526020019081526020015f2081905550505b5f73ffffffffffffffffffffffffffffffffffffffff168373ffffffffffffffffffffffffffffffffffffffff16036143735781816002015f82825403925050819055506143bf565b81815f015f8573ffffffffffffffffffffffffffffffffffffffff1673ffffffffffffffffffffffffffffffffffffffff1681526020019081526020015f205f82825401925050819055505b8273ffffffffffffffffffffffffffffffffffffffff168473ffffffffffffffffffffffffffffffffffffffff167fddf252ad1be2c89b69c2b068fc378daa952ba7f163c4a11628f55a4df523b3ef8460405161441c9190614f52565b60405180910390a350505050565b5f7f9b779b17422d0df92223018b32b4d1fa46e071723d6817e2486d003becc55f00905090565b5f805f61446984865f0161491990919063ffffffff16565b905080856002015f8381526020019081526020015f205492509250509250929050565b5f826002015f8381526020019081526020015f205f90556144b882845f0161492e90919063ffffffff16565b905092915050565b5f6144ec7f360894a13ba1a3210667c828492db98dca3e2076cc3735a920a3ca505d382bbc5f1b614943565b5f015f9054906101000a900473ffffffffffffffffffffffffffffffffffffffff16905090565b61451c8261494c565b8173ffffffffffffffffffffffffffffffffffffffff167fbc7cd75a20ee27fd9adebab32041f755214dbc6bffa90cc0225b39da2e5c2d3b60405160405180910390a25f81511115614578576145728282614a15565b50614581565b614580614a95565b5b5050565b5f61458e613daa565b90505f815f015f9054906101000a900473ffffffffffffffffffffffffffffffffffffffff16905082825f015f6101000a81548173ffffffffffffffffffffffffffffffffffffffff021916908373ffffffffffffffffffffffffffffffffffffffff1602179055508273ffffffffffffffffffffffffffffffffffffffff168173ffffffffffffffffffffffffffffffffffffffff167f8be0079c531659141344cd1fd0a4f28419497f9722a3daafe3b4186f6b6457e060405160405180910390a3505050565b5f6146608261412f565b90505f5b818110156146a157826002015f61468683865f0161491990919063ffffffff16565b81526020019081526020015f205f9055806001019050614664565b506146ad825f01614ad1565b5050565b5f600160028360038111156146c9576146c8615d71565b5b6146d39190615d9e565b60ff16149050919050565b5f8115159050919050565b5f805f6146f68686614adf565b915091505f820361471b57838181614711576147106157e2565b5b04925050506147c1565b81841161473a576147396147345f861460126011614afc565b614b15565b5b5f8486880990508181118303925080820391505f855f038616905080860495508083049250600181825f0304019050808402831792505f600287600302189050808702600203810290508087026002038102905080870260020381029050808702600203810290508087026002038102905080870260020381029050808402955050505050505b9392505050565b5f6147de82845f01614b2690919063ffffffff16565b905092915050565b5f6147f3835f0183614b3b565b905092915050565b5f614807825f01614ba2565b9050919050565b5f61481761313f565b5f0160089054906101000a900460ff16905090565b61483461416b565b5f61483d613023565b9050828160030190816148509190615f62565b50818160040190816148629190615f62565b50505050565b61487061416b565b5f61487961375d565b90505f8061488684614bb1565b9150915081614896576012614898565b805b835f0160146101000a81548160ff021916908360ff16021790555083835f015f6101000a81548173ffffffffffffffffffffffffffffffffffffffff021916908373ffffffffffffffffffffffffffffffffffffffff16021790555050505050565b61490261416b565b5f61490b61442a565b90506001815f018190555050565b5f614926835f0183614cba565b905092915050565b5f61493b835f0183614ce1565b905092915050565b5f819050919050565b5f8173ffffffffffffffffffffffffffffffffffffffff163b036149a757806040517f4c9c8ce300000000000000000000000000000000000000000000000000000000815260040161499e91906153c2565b60405180910390fd5b806149d37f360894a13ba1a3210667c828492db98dca3e2076cc3735a920a3ca505d382bbc5f1b614943565b5f015f6101000a81548173ffffffffffffffffffffffffffffffffffffffff021916908373ffffffffffffffffffffffffffffffffffffffff16021790555050565b60605f808473ffffffffffffffffffffffffffffffffffffffff1684604051614a3e9190616075565b5f60405180830381855af49150503d805f8114614a76576040519150601f19603f3d011682016040523d82523d5f602084013e614a7b565b606091505b5091509150614a8b858383614ddd565b9250505092915050565b5f341115614acf576040517fb398979f00000000000000000000000000000000000000000000000000000000815260040160405180910390fd5b565b614adc815f01614e6a565b50565b5f805f198385098385029150818110828203039250509250929050565b5f614b06846146de565b82841802821890509392505050565b634e487b715f52806020526024601cfd5b5f614b33835f0183614ecf565b905092915050565b5f614b468383614ecf565b614b9857825f0182908060018154018082558091505060019003905f5260205f20015f9091909190915055825f0180549050836001015f8481526020019081526020015f208190555060019050614b9c565b5f90505b92915050565b5f815f01805490509050919050565b5f805f808473ffffffffffffffffffffffffffffffffffffffff1660405160240160405160208183030381529060405263313ce56760e01b6020820180517bffffffffffffffffffffffffffffffffffffffffffffffffffffffff8381831617835250505050604051614c249190616075565b5f60405180830381855afa9150503d805f8114614c5c576040519150601f19603f3d011682016040523d82523d5f602084013e614c61565b606091505b5091509150818015614c7557506020815110155b15614cac575f81806020019051810190614c8f919061609f565b905060ff80168111614caa5760018194509450505050614cb5565b505b5f809350935050505b915091565b5f825f018281548110614cd057614ccf615a22565b5b905f5260205f200154905092915050565b5f80836001015f8481526020019081526020015f205490505f8114614dd2575f600182614d0e91906160ca565b90505f6001865f0180549050614d2491906160ca565b9050808214614d8a575f865f018281548110614d4357614d42615a22565b5b905f5260205f200154905080875f018481548110614d6457614d63615a22565b5b905f5260205f20018190555083876001015f8381526020019081526020015f2081905550505b855f01805480614d9d57614d9c6160fd565b5b600190038181905f5260205f20015f90559055856001015f8681526020019081526020015f205f905560019350505050614dd7565b5f9150505b92915050565b606082614df257614ded82614eef565b614e62565b5f8251148015614e1857505f8473ffffffffffffffffffffffffffffffffffffffff163b145b15614e5a57836040517f9996b315000000000000000000000000000000000000000000000000000000008152600401614e5191906153c2565b60405180910390fd5b819050614e63565b5b9392505050565b5f614e7482614ba2565b90505f5b81811015614ebe57826001015f845f018381548110614e9a57614e99615a22565b5b905f5260205f20015481526020019081526020015f205f9055806001019050614e78565b50614ecb825f015f614f33565b5050565b5f80836001015f8481526020019081526020015f20541415905092915050565b5f81511115614f015780518082602001fd5b6040517fd6bda27500000000000000000000000000000000000000000000000000000000815260040160405180910390fd5b8082555050565b5f819050919050565b614f4c81614f3a565b82525050565b5f602082019050614f655f830184614f43565b92915050565b5f81519050919050565b5f82825260208201905092915050565b8281835e5f83830152505050565b5f601f19601f8301169050919050565b5f614fad82614f6b565b614fb78185614f75565b9350614fc7818560208601614f85565b614fd081614f93565b840191505092915050565b5f6020820190508181035f830152614ff38184614fa3565b905092915050565b5f604051905090565b5f80fd5b5f80fd5b61501581614f3a565b811461501f575f80fd5b50565b5f813590506150308161500c565b92915050565b5f6020828403121561504b5761504a615004565b5b5f61505884828501615022565b91505092915050565b5f73ffffffffffffffffffffffffffffffffffffffff82169050919050565b5f61508a82615061565b9050919050565b61509a81615080565b81146150a4575f80fd5b50565b5f813590506150b581615091565b92915050565b5f80604083850312156150d1576150d0615004565b5b5f6150de858286016150a7565b92505060206150ef85828601615022565b9150509250929050565b5f8115159050919050565b61510d816150f9565b82525050565b5f6020820190506151265f830184615104565b92915050565b5f61513682615080565b9050919050565b6151468161512c565b8114615150575f80fd5b50565b5f813590506151618161513d565b92915050565b5f80fd5b5f80fd5b7f4e487b71000000000000000000000000000000000000000000000000000000005f52604160045260245ffd5b6151a582614f93565b810181811067ffffffffffffffff821117156151c4576151c361516f565b5b80604052505050565b5f6151d6614ffb565b90506151e2828261519c565b919050565b5f67ffffffffffffffff8211156152015761520061516f565b5b61520a82614f93565b9050602081019050919050565b828183375f83830152505050565b5f615237615232846151e7565b6151cd565b9050828152602081018484840111156152535761525261516b565b5b61525e848285615217565b509392505050565b5f82601f83011261527a57615279615167565b5b813561528a848260208601615225565b91505092915050565b5f805f80608085870312156152ab576152aa615004565b5b5f6152b8878288016150a7565b94505060206152c987828801615153565b935050604085013567ffffffffffffffff8111156152ea576152e9615008565b5b6152f687828801615266565b925050606085013567ffffffffffffffff81111561531757615316615008565b5b61532387828801615266565b91505092959194509250565b5f805f6060848603121561534657615345615004565b5b5f615353868287016150a7565b9350506020615364868287016150a7565b925050604061537586828701615022565b9150509250925092565b5f60ff82169050919050565b6153948161537f565b82525050565b5f6020820190506153ad5f83018461538b565b92915050565b6153bc81615080565b82525050565b5f6020820190506153d55f8301846153b3565b92915050565b5f602082840312156153f0576153ef615004565b5b5f6153fd848285016150a7565b91505092915050565b5f67ffffffffffffffff8211156154205761541f61516f565b5b61542982614f93565b9050602081019050919050565b5f61544861544384615406565b6151cd565b9050828152602081018484840111156154645761546361516b565b5b61546f848285615217565b509392505050565b5f82601f83011261548b5761548a615167565b5b813561549b848260208601615436565b91505092915050565b5f80604083850312156154ba576154b9615004565b5b5f6154c7858286016150a7565b925050602083013567ffffffffffffffff8111156154e8576154e7615008565b5b6154f485828601615477565b9150509250929050565b5f819050919050565b615510816154fe565b82525050565b5f6020820190506155295f830184615507565b92915050565b5f806040838503121561554557615544615004565b5b5f61555285828601615022565b9250506020615563858286016150a7565b9150509250929050565b5f819050919050565b5f61559061558b61558684615061565b61556d565b615061565b9050919050565b5f6155a182615576565b9050919050565b5f6155b282615597565b9050919050565b6155c2816155a8565b82525050565b5f6020820190506155db5f8301846155b9565b92915050565b5f805f606084860312156155f8576155f7615004565b5b5f61560586828701615022565b9350506020615616868287016150a7565b9250506040615627868287016150a7565b9150509250925092565b5f806040838503121561564757615646615004565b5b5f615654858286016150a7565b9250506020615665858286016150a7565b9150509250929050565b5f80fd5b5f80fd5b5f8083601f84011261568c5761568b615167565b5b8235905067ffffffffffffffff8111156156a9576156a861566f565b5b6020830191508360408202830111156156c5576156c4615673565b5b9250929050565b5f80602083850312156156e2576156e1615004565b5b5f83013567ffffffffffffffff8111156156ff576156fe615008565b5b61570b85828601615677565b92509250509250929050565b7f4e487b71000000000000000000000000000000000000000000000000000000005f52602260045260245ffd5b5f600282049050600182168061575b57607f821691505b60208210810361576e5761576d615717565b5b50919050565b7f4e487b71000000000000000000000000000000000000000000000000000000005f52601160045260245ffd5b5f6157ab82614f3a565b91506157b683614f3a565b92508282026157c481614f3a565b915082820484148315176157db576157da615774565b5b5092915050565b7f4e487b71000000000000000000000000000000000000000000000000000000005f52601260045260245ffd5b5f61581982614f3a565b915061582483614f3a565b925082615834576158336157e2565b5b828204905092915050565b5f61584982614f3a565b915061585483614f3a565b925082820190508082111561586c5761586b615774565b5b92915050565b5f6060820190506158855f8301866153b3565b61589260208301856153b3565b61589f6040830184614f43565b949350505050565b6158b0816150f9565b81146158ba575f80fd5b50565b5f815190506158cb816158a7565b92915050565b5f602082840312156158e6576158e5615004565b5b5f6158f3848285016158bd565b91505092915050565b5f60408201905061590f5f830185614f43565b61591c6020830184614f43565b9392505050565b5f8151905061593181615091565b92915050565b5f6020828403121561594c5761594b615004565b5b5f61595984828501615923565b91505092915050565b5f819050919050565b5f67ffffffffffffffff82169050919050565b5f61599861599361598e84615962565b61556d565b61596b565b9050919050565b6159a88161597e565b82525050565b5f6020820190506159c15f83018461599f565b92915050565b5f6159d18261537f565b91506159dc8361537f565b9250828201905060ff8111156159f5576159f4615774565b5b92915050565b5f604082019050615a0e5f8301856153b3565b615a1b6020830184614f43565b9392505050565b7f4e487b71000000000000000000000000000000000000000000000000000000005f52603260045260245ffd5b5f63ffffffff82169050919050565b615a6781615a4f565b8114615a71575f80fd5b50565b5f81359050615a8281615a5e565b92915050565b5f60208284031215615a9d57615a9c615004565b5b5f615aaa84828501615a74565b91505092915050565b615abc8161537f565b8114615ac6575f80fd5b50565b5f81519050615ad781615ab3565b92915050565b5f60208284031215615af257615af1615004565b5b5f615aff84828501615ac9565b91505092915050565b5f8160011c9050919050565b5f808291508390505b6001851115615b5d57808604811115615b3957615b38615774565b5b6001851615615b485780820291505b8081029050615b5685615b08565b9450615b1d565b94509492505050565b5f82615b755760019050615c30565b81615b82575f9050615c30565b8160018114615b985760028114615ba257615bd1565b6001915050615c30565b60ff841115615bb457615bb3615774565b5b8360020a915084821115615bcb57615bca615774565b5b50615c30565b5060208310610133831016604e8410600b8410161715615c065782820a905083811115615c0157615c00615774565b5b615c30565b615c138484846001615b14565b92509050818404811115615c2a57615c29615774565b5b81810290505b9392505050565b5f615c4182614f3a565b9150615c4c8361537f565b9250615c797fffffffffffffffffffffffffffffffffffffffffffffffffffffffffffffffff8484615b66565b905092915050565b5f615c8b82615080565b9050919050565b615c9b81615c81565b8114615ca5575f80fd5b50565b5f81519050615cb681615c92565b92915050565b5f60208284031215615cd157615cd0615004565b5b5f615cde84828501615ca8565b91505092915050565b5f606082019050615cfa5f8301866153b3565b615d076020830185614f43565b615d146040830184614f43565b949350505050565b615d25816154fe565b8114615d2f575f80fd5b50565b5f81519050615d4081615d1c565b92915050565b5f60208284031215615d5b57615d5a615004565b5b5f615d6884828501615d32565b91505092915050565b7f4e487b71000000000000000000000000000000000000000000000000000000005f52602160045260245ffd5b5f615da88261537f565b9150615db38361537f565b925082615dc357615dc26157e2565b5b828206905092915050565b5f819050815f5260205f209050919050565b5f6020601f8301049050919050565b5f82821b905092915050565b5f60088302615e2a7fffffffffffffffffffffffffffffffffffffffffffffffffffffffffffffffff82615def565b615e348683615def565b95508019841693508086168417925050509392505050565b5f615e66615e61615e5c84614f3a565b61556d565b614f3a565b9050919050565b5f819050919050565b615e7f83615e4c565b615e93615e8b82615e6d565b848454615dfb565b825550505050565b5f90565b615ea7615e9b565b615eb2818484615e76565b505050565b5b81811015615ed557615eca5f82615e9f565b600181019050615eb8565b5050565b601f821115615f1a57615eeb81615dce565b615ef484615de0565b81016020851015615f03578190505b615f17615f0f85615de0565b830182615eb7565b50505b505050565b5f82821c905092915050565b5f615f3a5f1984600802615f1f565b1980831691505092915050565b5f615f528383615f2b565b9150826002028217905092915050565b615f6b82614f6b565b67ffffffffffffffff811115615f8457615f8361516f565b5b615f8e8254615744565b615f99828285615ed9565b5f60209050601f831160018114615fca575f8415615fb8578287015190505b615fc28582615f47565b865550616029565b601f198416615fd886615dce565b5f5b82811015615fff57848901518255600182019150602085019450602081019050615fda565b8683101561601c5784890151616018601f891682615f2b565b8355505b6001600288020188555050505b505050505050565b5f81519050919050565b5f81905092915050565b5f61604f82616031565b616059818561603b565b9350616069818560208601614f85565b80840191505092915050565b5f6160808284616045565b915081905092915050565b5f815190506160998161500c565b92915050565b5f602082840312156160b4576160b3615004565b5b5f6160c18482850161608b565b91505092915050565b5f6160d482614f3a565b91506160df83614f3a565b92508282039050818111156160f7576160f6615774565b5b92915050565b7f4e487b71000000000000000000000000000000000000000000000000000000005f52603160045260245ffdfea264697066735822122063f4def7e7b408e549a69bc5e6cc1918493953e34e6931a45ce8061fc631f50964736f6c634300081a003360a06040523073ffffffffffffffffffffffffffffffffffffffff1660809073ffffffffffffffffffffffffffffffffffffffff168152503480156041575f80fd5b50608051615e5a6100685f395f81816136d3015281816137280152613a140152615e5a5ff3fe608060405260043610610271575f3560e01c806379502c551161014e578063b460af94116100c0578063d905777e11610079578063d905777e14610991578063dd62ed3e146109cd578063e30c397814610a09578063e66f53b714610a33578063ef8b30f714610a5d578063f2fde38b14610a9957610271565b8063b460af941461083b578063ba08765214610877578063c63d75b6146108b3578063c6e6f592146108ef578063ce96cb771461092b578063d5f394881461096757610271565b806395d89b411161011257806395d89b41146107315780639c055a661461075b578063a9059cbb14610783578063aa9d3a60146107bf578063ad3cb1cc146107d5578063b3d7f6b9146107ff57610271565b806379502c551461066157806379ba50971461068b57806387269729146106a15780638da5cb5b146106cb57806394bf804d146106f557610271565b8063313ce567116101e75780634f1ef286116101ab5780634f1ef2861461056557806352d1902d146105815780636e553f65146105ab57806370a08231146105e7578063715018a614610623578063745400c91461063957610271565b8063313ce5671461048357806333fdc592146104ad57806338d52e0f146104c3578063402d267d146104ed5780634cdad5061461052957610271565b80630d1e6667116102395780630d1e66671461037d57806316b60249146103a55780631765b313146103cd57806318160ddd146103f55780632016a0d21461041f57806323b872dd1461044757610271565b806301e1d1141461027557806306fdde031461029f57806307a2d13a146102c9578063095ea7b3146103055780630a28a47714610341575b5f80fd5b348015610280575f80fd5b50610289610ac1565b6040516102969190614d05565b60405180910390f35b3480156102aa575f80fd5b506102b3610b06565b6040516102c09190614d8e565b60405180910390f35b3480156102d4575f80fd5b506102ef60048036038101906102ea9190614de9565b610ba4565b6040516102fc9190614d05565b60405180910390f35b348015610310575f80fd5b5061032b60048036038101906103269190614e6e565b610c0b565b6040516103389190614ec6565b60405180910390f35b34801561034c575f80fd5b5061036760048036038101906103629190614de9565b610c2d565b6040516103749190614d05565b60405180910390f35b348015610388575f80fd5b506103a3600480360381019061039e9190614de9565b610c40565b005b3480156103b0575f80fd5b506103cb60048036038101906103c69190614de9565b610fab565b005b3480156103d8575f80fd5b506103f360048036038101906103ee9190614de9565b6111f6565b005b348015610400575f80fd5b506104096113b8565b6040516104169190614d05565b60405180910390f35b34801561042a575f80fd5b5061044560048036038101906104409190615046565b6113cf565b005b348015610452575f80fd5b5061046d600480360381019061046891906150e2565b6115ba565b60405161047a9190614ec6565b60405180910390f35b34801561048e575f80fd5b506104976115e8565b6040516104a4919061514d565b60405180910390f35b3480156104b8575f80fd5b506104c161161d565b005b3480156104ce575f80fd5b506104d76119cf565b6040516104e49190615175565b60405180910390f35b3480156104f8575f80fd5b50610513600480360381019061050e919061518e565b611a04565b6040516105209190614d05565b60405180910390f35b348015610534575f80fd5b5061054f600480360381019061054a9190614de9565b611a2d565b60405161055c9190614d05565b60405180910390f35b61057f600480360381019061057a9190615257565b611a3f565b005b34801561058c575f80fd5b50610595611a5e565b6040516105a291906152c9565b60405180910390f35b3480156105b6575f80fd5b506105d160048036038101906105cc91906152e2565b611a8f565b6040516105de9190614d05565b60405180910390f35b3480156105f2575f80fd5b5061060d6004803603810190610608919061518e565b611aea565b60405161061a9190614d05565b60405180910390f35b34801561062e575f80fd5b50610637611b3d565b005b348015610644575f80fd5b5061065f600480360381019061065a9190614de9565b611b50565b005b34801561066c575f80fd5b50610675611e37565b604051610682919061537b565b60405180910390f35b348015610696575f80fd5b5061069f611e5a565b005b3480156106ac575f80fd5b506106b5611ee8565b6040516106c29190614d05565b60405180910390f35b3480156106d6575f80fd5b506106df611eee565b6040516106ec9190615175565b60405180910390f35b348015610700575f80fd5b5061071b600480360381019061071691906152e2565b611f23565b6040516107289190614d05565b60405180910390f35b34801561073c575f80fd5b50610745611f7e565b6040516107529190614d8e565b60405180910390f35b348015610766575f80fd5b50610781600480360381019061077c91906153f1565b61201c565b005b34801561078e575f80fd5b506107a960048036038101906107a49190614e6e565b612561565b6040516107b69190614ec6565b60405180910390f35b3480156107ca575f80fd5b506107d3612583565b005b3480156107e0575f80fd5b506107e9612a3d565b6040516107f69190614d8e565b60405180910390f35b34801561080a575f80fd5b5061082560048036038101906108209190614de9565b612a76565b6040516108329190614d05565b60405180910390f35b348015610846575f80fd5b50610861600480360381019061085c919061543c565b612a89565b60405161086e9190614d05565b60405180910390f35b348015610882575f80fd5b5061089d6004803603810190610898919061543c565b612ae3565b6040516108aa9190614d05565b60405180910390f35b3480156108be575f80fd5b506108d960048036038101906108d4919061518e565b612b3e565b6040516108e69190614d05565b60405180910390f35b3480156108fa575f80fd5b5061091560048036038101906109109190614de9565b612b67565b6040516109229190614d05565b60405180910390f35b348015610936575f80fd5b50610951600480360381019061094c919061518e565b612bce565b60405161095e9190614d05565b60405180910390f35b348015610972575f80fd5b5061097b612be8565b6040516109889190615175565b60405180910390f35b34801561099c575f80fd5b506109b760048036038101906109b2919061518e565b612c0d565b6040516109c49190614d05565b60405180910390f35b3480156109d8575f80fd5b506109f360048036038101906109ee919061548c565b612c1e565b604051610a009190614d05565b60405180910390f35b348015610a14575f80fd5b50610a1d612cae565b604051610a2a9190615175565b60405180910390f35b348015610a3e575f80fd5b50610a47612ce3565b604051610a549190615175565b60405180910390f35b348015610a68575f80fd5b50610a836004803603810190610a7e9190614de9565b612d08565b604051610a909190614d05565b60405180910390f35b348015610aa4575f80fd5b50610abf6004803603810190610aba919061518e565b612d1a565b005b5f610ad6676ee03ca85ea3135d60c01b612dd3565b610aea67ea71ff8dc709024360c01b612dd3565b610afe67153898368093b1b660c01b612dd3565b600454905090565b60605f610b11612dd6565b9050806003018054610b22906154f7565b80601f0160208091040260200160405190810160405280929190818152602001828054610b4e906154f7565b8015610b995780601f10610b7057610100808354040283529160200191610b99565b820191905f5260205f20905b815481529060010190602001808311610b7c57829003601f168201915b505050505091505090565b5f610bb9674b0ebb8946b5578360c01b612dd3565b610bcd67c356e56bb375214960c01b612dd3565b610be16764f8b9ef4a9ab1b860c01b612dd3565b610be96115e8565b60ff1660035483610bfa9190615554565b610c0491906155c2565b9050919050565b5f80610c15612dfd565b9050610c22818585612e04565b600191505092915050565b5f610c39826001612e16565b9050919050565b610c5467cc5c87dd194d46ec60c01b612dd3565b610c6867ff5d130b5f5aa92460c01b612dd3565b610c7c6756c33d31b64edfca60c01b612dd3565b5f8103610cdb57610c9767e350f1af24fe77ae60c01b612dd3565b610c9f6119cf565b6040517f6b306335000000000000000000000000000000000000000000000000000000008152600401610cd29190615175565b60405180910390fd5b610cef67bd08f4463e94a26f60c01b612dd3565b610d0367d4f0d508e84145ef60c01b612dd3565b610d17670e960372cb95e61d60c01b612dd3565b5f80610d2d336005612e6e90919063ffffffff16565b91509150610d45675455428f3bb2e03d60c01b612dd3565b610d596792f436ec23194fbd60c01b612dd3565b8115610dae57610d7367ad596bd804a3cba960c01b612dd3565b610d87674d0add24bf28d32060c01b612dd3565b610da8338483610d9791906155f2565b6005612eab9092919063ffffffff16565b50610dee565b610dc267c9b55dd140a6e26360c01b612dd3565b610dd667238a163478978e3a60c01b612dd3565b610dec33846005612eab9092919063ffffffff16565b505b610e0267140979f5d6eb104f60c01b612dd3565b610e166758ed7eb0ad09315060c01b612dd3565b5f610e1f6119cf565b73ffffffffffffffffffffffffffffffffffffffff166323b872dd3330876040518463ffffffff1660e01b8152600401610e5b93929190615625565b6020604051808303815f875af1158015610e77573d5f803e3d5ffd5b505050506040513d601f19601f82011682018060405250810190610e9b9190615684565b9050610eb167c56cf467a89e28fe60c01b612dd3565b610ec56717fb428cad32134460c01b612dd3565b80610f1057610ede6715be4a97ff2b6ce560c01b612dd3565b6040517f90b8ec1800000000000000000000000000000000000000000000000000000000815260040160405180910390fd5b610f2467fd4d4e60c70bb48560c01b612dd3565b610f3867a12d127b2672bc7f60c01b612dd3565b610f4c6736e01ad619c43d2360c01b612dd3565b3373ffffffffffffffffffffffffffffffffffffffff167f03979a8c481a9e9c06938045cfd5c28535255cb003b10a8fe84ebb3cb4d440f285610f8f6005612edc565b604051610f9d9291906156af565b60405180910390a250505050565b610fbf67ce8bc6c330dd406260c01b612dd3565b610fd367d4e2e4dad3815b6a60c01b612dd3565b610fe767d2f493449134e8e460c01b612dd3565b610ffb678ec77d699364b74360c01b612dd3565b5f8054906101000a900473ffffffffffffffffffffffffffffffffffffffff1673ffffffffffffffffffffffffffffffffffffffff1663348ec5c86040518163ffffffff1660e01b8152600401602060405180830381865afa158015611063573d5f803e3d5ffd5b505050506040513d601f19601f8201168201806040525081019061108791906156ea565b73ffffffffffffffffffffffffffffffffffffffff163373ffffffffffffffffffffffffffffffffffffffff16146110ff576110cd67f58ee9ed235f3c2560c01b612dd3565b6040517fefb380d900000000000000000000000000000000000000000000000000000000815260040160405180910390fd5b6111136718471035c6e621ce60c01b612dd3565b611127675279bfc05b70624b60c01b612dd3565b61113b67d45bc83aa33edf6660c01b612dd3565b61114f67a90aff609f354f2c60c01b612dd3565b61116367ebb10f651a34a3fc60c01b612dd3565b61117767a9eb5c7612ab559c60c01b612dd3565b5f81036111c45761119267f6b6d98ce1731ea760c01b612dd3565b6040517f4dfba02300000000000000000000000000000000000000000000000000000000815260040160405180910390fd5b6111d867482860e4ed53012560c01b612dd3565b6111ec677ebe04a33f48482060c01b612dd3565b8060038190555050565b61120a672cba78a106afb57360c01b612dd3565b61121e67d4e2e4dad3815b6a60c01b612dd3565b61123267d2f493449134e8e460c01b612dd3565b611246678ec77d699364b74360c01b612dd3565b5f8054906101000a900473ffffffffffffffffffffffffffffffffffffffff1673ffffffffffffffffffffffffffffffffffffffff1663348ec5c86040518163ffffffff1660e01b8152600401602060405180830381865afa1580156112ae573d5f803e3d5ffd5b505050506040513d601f19601f820116820180604052508101906112d291906156ea565b73ffffffffffffffffffffffffffffffffffffffff163373ffffffffffffffffffffffffffffffffffffffff161461134a5761131867f58ee9ed235f3c2560c01b612dd3565b6040517fefb380d900000000000000000000000000000000000000000000000000000000815260040160405180910390fd5b61135e6718471035c6e621ce60c01b612dd3565b611372675279bfc05b70624b60c01b612dd3565b61138667931c86717d44088660c01b612dd3565b61139a670b4aed6f747c0b8760c01b612dd3565b6113ae6714f75a0ff8908c2760c01b612dd3565b8060048190555050565b5f806113c2612dd6565b9050806002015491505090565b6113e36781e6651efafb521360c01b612eef565b5f6113ec612ef2565b90505f815f0160089054906101000a900460ff161590505f825f015f9054906101000a900467ffffffffffffffff1690505f808267ffffffffffffffff161480156114345750825b90505f60018367ffffffffffffffff1614801561146757505f3073ffffffffffffffffffffffffffffffffffffffff163b145b905081158015611475575080155b156114ac576040517ff92ee8a900000000000000000000000000000000000000000000000000000000815260040160405180910390fd5b6001855f015f6101000a81548167ffffffffffffffff021916908367ffffffffffffffff16021790555083156114f9576001855f0160086101000a81548160ff0219169083151502179055505b61150d675a4ac15e889783b860c01b612eef565b611521674ecb0452bf534cbb60c01b612eef565b611535677846b7897119070b60c01b612eef565b611549670ddaa40c3dfc362560c01b612eef565b61155589898989612f05565b83156115af575f855f0160086101000a81548160ff0219169083151502179055507fc7f505b2f371ae2175ee4913f4499e1f2633a7b5936321eed1cdaeb6115181d260016040516115a69190615761565b60405180910390a15b505050505050505050565b5f806115c4612dfd565b90506115d185828561338d565b6115dc858585613420565b60019150509392505050565b5f806115f2613510565b90506115fc613537565b815f0160149054906101000a900460ff16611617919061577a565b91505090565b61163167083df3069b9e9d2760c01b612dd3565b61164567b122ce11d9020f9e60c01b612dd3565b61165967843a07b52f962c6660c01b612dd3565b61166d671d5782730f5eb75460c01b612dd3565b5f8054906101000a900473ffffffffffffffffffffffffffffffffffffffff1673ffffffffffffffffffffffffffffffffffffffff16633a0dad8e6040518163ffffffff1660e01b8152600401602060405180830381865afa1580156116d5573d5f803e3d5ffd5b505050506040513d601f19601f820116820180604052508101906116f991906156ea565b73ffffffffffffffffffffffffffffffffffffffff163373ffffffffffffffffffffffffffffffffffffffff16146117715761173f670f209e39aa656fe460c01b612dd3565b6040517fd7955a7800000000000000000000000000000000000000000000000000000000815260040160405180910390fd5b611785673a327b3cadfe337560c01b612dd3565b611799679065fdc87e4824e860c01b612dd3565b6117ad67de945c3d9e3920c460c01b612dd3565b6117c167b0629599164b2a7460c01b612dd3565b6117c961353b565b6117dd679742e98163b5976f60c01b612dd3565b6117f167a2c15733fae71b3760c01b612dd3565b6118056732a80c7fd4e7aacb60c01b612dd3565b6118196798d0177b3b7c2f0060c01b612dd3565b5f61182e67b66e76afadfd5e2560c01b612dd3565b61184267eec4c98161b2c7fa60c01b612dd3565b5f90505b6118506005612edc565b8110156119c45761186b6731b7555f6647e1e060c01b612dd3565b61187f6702c364b6fc79683860c01b612dd3565b5f8061189583600561358f90919063ffffffff16565b915091506118ad6749d08f8224ab955160c01b612dd3565b6118c1670f049b32033e42ef60c01b612dd3565b5f6118cb82612d08565b90506118e1670854c4b781a4248760c01b612dd3565b6118f5674003944ffea0e5e660c01b612dd3565b6119098360056135b690919063ffffffff16565b5061191e67d3dffdb5aa13304d60c01b612dd3565b61193267dae93c7d840151da60c01b612dd3565b61193c83826135e3565b611950670afad24fd7d5105160c01b612dd3565b6119646714987f4aba489b3660c01b612dd3565b8273ffffffffffffffffffffffffffffffffffffffff167f782ea2005b7f873a0190a1ccb553c732171348d6e16d2b7d3d493c0677dc296e83866040516119ac9291906156af565b60405180910390a25050508080600101915050611846565b506119cd613662565b565b5f806119d9613510565b9050805f015f9054906101000a900473ffffffffffffffffffffffffffffffffffffffff1691505090565b5f7fffffffffffffffffffffffffffffffffffffffffffffffffffffffffffffffff9050919050565b5f611a38825f613679565b9050919050565b611a476136d1565b611a50826137b7565b611a5a82826138f4565b5050565b5f611a67613a12565b7f360894a13ba1a3210667c828492db98dca3e2076cc3735a920a3ca505d382bbc5f1b905090565b5f611aa46760836f78f8dc541460c01b612dd3565b611ab867162668d5a685af8a60c01b612dd3565b6040517f31e5c8e600000000000000000000000000000000000000000000000000000000815260040160405180910390fd5b5f80611af4612dd6565b9050805f015f8473ffffffffffffffffffffffffffffffffffffffff1673ffffffffffffffffffffffffffffffffffffffff1681526020019081526020015f2054915050919050565b611b45613a99565b611b4e5f613b20565b565b611b64675358131250b2a71e60c01b612dd3565b611b7867bcd7ac99df260bf560c01b612dd3565b611b8c6763641f7adc6daef560c01b612dd3565b5f8103611bd957611ba767d7e4a6d4b0c3142260c01b612dd3565b6040517f29cd977200000000000000000000000000000000000000000000000000000000815260040160405180910390fd5b611bed672afbbf749420254d60c01b612dd3565b611c01670c2d36208e73eb4460c01b612dd3565b611c1567f208adb652c4b5ae60c01b612dd3565b80611c1f33611aea565b1015611c6b57611c396784ca8058afe47d8b60c01b612dd3565b6040517ff15ed21400000000000000000000000000000000000000000000000000000000815260040160405180910390fd5b611c7f6728ddd7dafa04e3c760c01b612dd3565b611c9367105a1ca60fd03e2960c01b612dd3565b611ca7673470eccb4401b74f60c01b612dd3565b5f80611cbd336008612e6e90919063ffffffff16565b91509150611cd567cd36804fa1c7c8c660c01b612dd3565b611ce96783e09782ceaba66b60c01b612dd3565b8115611d3e57611d03670997a408ce4475f260c01b612dd3565b611d176736c7052c49ab5c4160c01b612dd3565b611d38338483611d2791906155f2565b6008612eab9092919063ffffffff16565b50611d7e565b611d5267373f70957447027460c01b612dd3565b611d666726769dc9ececc73b60c01b612dd3565b611d7c33846008612eab9092919063ffffffff16565b505b611d9267d15842177d29b57960c01b612dd3565b611da667d93e1453beb767f960c01b612dd3565b611db1333085613420565b611dc56795c257a2a3599fba60c01b612dd3565b611dd9674815008bffa4540960c01b612dd3565b3373ffffffffffffffffffffffffffffffffffffffff167fd72eb5d043f24a0168ae744d5c44f9596fd673a26bf74d9646bff4b844882d1484611e1c6008612edc565b604051611e2a9291906156af565b60405180910390a2505050565b5f8054906101000a900473ffffffffffffffffffffffffffffffffffffffff1681565b5f611e63612dfd565b90508073ffffffffffffffffffffffffffffffffffffffff16611e84612cae565b73ffffffffffffffffffffffffffffffffffffffff1614611edc57806040517f118cdaa7000000000000000000000000000000000000000000000000000000008152600401611ed39190615175565b60405180910390fd5b611ee581613b20565b50565b60035481565b5f80611ef8613b5d565b9050805f015f9054906101000a900473ffffffffffffffffffffffffffffffffffffffff1691505090565b5f611f386729e6f186666629a560c01b612dd3565b611f4c672831c25f0a5133c260c01b612dd3565b6040517f31e5c8e600000000000000000000000000000000000000000000000000000000815260040160405180910390fd5b60605f611f89612dd6565b9050806004018054611f9a906154f7565b80601f0160208091040260200160405190810160405280929190818152602001828054611fc6906154f7565b80156120115780601f10611fe857610100808354040283529160200191612011565b820191905f5260205f20905b815481529060010190602001808311611ff457829003601f168201915b505050505091505090565b6120306753ef3000be3aa20060c01b612eef565b61204467516af330a0417e0060c01b612dd3565b61205867dcdb33645b95a34260c01b612dd3565b61206c67c03c10387fb2e14760c01b612dd3565b60015f9054906101000a900473ffffffffffffffffffffffffffffffffffffffff1673ffffffffffffffffffffffffffffffffffffffff163373ffffffffffffffffffffffffffffffffffffffff1614612106576120d467d1231cb0992939e460c01b612dd3565b6040517f56b381a500000000000000000000000000000000000000000000000000000000815260040160405180910390fd5b61211a67c676da3c8f839ffd60c01b612dd3565b61212e6774b3d9ea4910564060c01b612dd3565b612142672a339e9dcb98f9ff60c01b612eef565b612156675c99625ca279ee3560c01b612eef565b61216a67195c43bfa3a320ac60c01b612eef565b61217e678971eb01de416cf060c01b612eef565b5f82829050036121ce5761219c671d44f78f75e4e05260c01b612eef565b6040517f1121aa8d00000000000000000000000000000000000000000000000000000000815260040160405180910390fd5b6121e267acc449361760583e60c01b612eef565b6121f66712c9f39e74a8e40260c01b612eef565b61220a6720f27f7f23d5d66860c01b612eef565b612214600b613b84565b6122286775fed01a3045c1a860c01b612eef565b61223c67775b5d768150cc0060c01b612eef565b5f5b828290508110156124f15761225d677169d0afb780910e60c01b612eef565b6122716721db35e04e3769ad60c01b612eef565b5f838383818110612285576122846157ae565b5b9050604002015f01602081019061229c919061518e565b90506122b267c911ab9eb98a9c0960c01b612eef565b6122c667b27be46284bee97f60c01b612eef565b5f8484848181106122da576122d96157ae565b5b9050604002016020013590506122fa67332b0f13466db23560c01b612eef565b61230e67c96804e9b01cc4f760c01b612eef565b5f8054906101000a900473ffffffffffffffffffffffffffffffffffffffff1673ffffffffffffffffffffffffffffffffffffffff16633af32abf836040518263ffffffff1660e01b81526004016123669190615175565b602060405180830381865afa158015612381573d5f803e3d5ffd5b505050506040513d601f19601f820116820180604052508101906123a59190615684565b6123fa576123bd6769dd9f0f5ff9a11660c01b612eef565b816040517fea3bff2e0000000000000000000000000000000000000000000000000000000081526004016123f19190615175565b60405180910390fd5b61240e67dfc1e03cddfc51ea60c01b612eef565b6124226708d4420d457ca95c60c01b612eef565b61243667de4bcc445f42037860c01b612eef565b5f61244d8383600b612eab9092919063ffffffff16565b905061246367a5965057c2a0dc9c60c01b612eef565b61247767f6639fbfd0121c3d60c01b612eef565b806124cd5761249067b6deccb451515c7560c01b612eef565b826040517f46bdabe10000000000000000000000000000000000000000000000000000000081526004016124c49190615175565b60405180910390fd5b6124e167e3d76fe0ffffcbd360c01b612eef565b505050808060010191505061223e565b5061250667de547493a5d57b9360c01b612eef565b61251a67abffe78db60016f860c01b612eef565b3373ffffffffffffffffffffffffffffffffffffffff167f2d47a742b8d7df7c1fc5a9a631b206b364e6cb2722490759f63bb3ab14b132e060405160405180910390a25050565b5f8061256b612dfd565b9050612578818585613420565b600191505092915050565b61259767d2614d7fc6cc547d60c01b612dd3565b6125ab67b122ce11d9020f9e60c01b612dd3565b6125bf67843a07b52f962c6660c01b612dd3565b6125d3671d5782730f5eb75460c01b612dd3565b5f8054906101000a900473ffffffffffffffffffffffffffffffffffffffff1673ffffffffffffffffffffffffffffffffffffffff16633a0dad8e6040518163ffffffff1660e01b8152600401602060405180830381865afa15801561263b573d5f803e3d5ffd5b505050506040513d601f19601f8201168201806040525081019061265f91906156ea565b73ffffffffffffffffffffffffffffffffffffffff163373ffffffffffffffffffffffffffffffffffffffff16146126d7576126a5670f209e39aa656fe460c01b612dd3565b6040517fd7955a7800000000000000000000000000000000000000000000000000000000815260040160405180910390fd5b6126eb673a327b3cadfe337560c01b612dd3565b6126ff679065fdc87e4824e860c01b612dd3565b6127136769293eabbb6eee7560c01b612dd3565b6127276793ccfb1bbf2c7da960c01b612dd3565b61272f61353b565b612743671101ca9cc393bafd60c01b612dd3565b61275767ddb852d455e3622a60c01b612dd3565b61276b6755f63d02553afee160c01b612dd3565b61277f6756e6c97551bdc85a60c01b612dd3565b5f612794676e303fd1fe852d6f60c01b612dd3565b6127a86707d9c7f63f4f3bff60c01b612dd3565b5f90505b6127b66008612edc565b811015612a32576127d167dfe5477584437fec60c01b612dd3565b6127e567f02f2c847724546260c01b612dd3565b5f806127fb83600861358f90919063ffffffff16565b91509150612813670db04ad57e2846b660c01b612dd3565b6128276755bdf7d56509f14f60c01b612dd3565b61283b8260086135b690919063ffffffff16565b5061285067f2a0305890dbfb5060c01b612dd3565b6128646757b2224bf3aa6f6060c01b612dd3565b61286e3082613b92565b6128826767d3bc7567e54ac260c01b612dd3565b61289667d85a7de72edb945960c01b612dd3565b5f6128a082611a2d565b90506128b6677108e548840a321060c01b612dd3565b6128ca677256d7741137d67460c01b612dd3565b6128d26119cf565b73ffffffffffffffffffffffffffffffffffffffff1663a9059cbb84836040518363ffffffff1660e01b815260040161290c9291906157db565b6020604051808303815f875af1158015612928573d5f803e3d5ffd5b505050506040513d601f19601f8201168201806040525081019061294c9190615684565b6129965761296467c87535c08934e81d60c01b612dd3565b6040517f90b8ec1800000000000000000000000000000000000000000000000000000000815260040160405180910390fd5b6129aa67673b1e45bcd0309260c01b612dd3565b6129be67a699b7dd3c37969060c01b612dd3565b6129d2677e1e9dfb3f4e72ae60c01b612dd3565b8273ffffffffffffffffffffffffffffffffffffffff167febad37b830b1857ef9af5983fc20dc0ded12dc472ba1e22e06fd3a9465b4506c8386604051612a1a9291906156af565b60405180910390a250505080806001019150506127ac565b50612a3b613662565b565b6040518060400160405280600581526020017f352e302e3000000000000000000000000000000000000000000000000000000081525081565b5f612a82826001613679565b9050919050565b5f612a9e674b3f26d8023420e760c01b612dd3565b612ab267740e3280249ee67560c01b612dd3565b6040517e8a595100000000000000000000000000000000000000000000000000000000815260040160405180910390fd5b5f612af8670b93f8cb93f3f27f60c01b612dd3565b612b0c6725eb438a02adcc7f60c01b612dd3565b6040517f56c290c800000000000000000000000000000000000000000000000000000000815260040160405180910390fd5b5f7fffffffffffffffffffffffffffffffffffffffffffffffffffffffffffffffff9050919050565b5f612b7c67a6ba681864987fcd60c01b612dd3565b612b90679b72576798bca4eb60c01b612dd3565b612ba467cfc840f38094b3f260c01b612dd3565b600354612baf6115e8565b60ff1683612bbd9190615554565b612bc791906155c2565b9050919050565b5f612be1612bdb83611aea565b5f613679565b9050919050565b60025f9054906101000a900473ffffffffffffffffffffffffffffffffffffffff1681565b5f612c1782611aea565b9050919050565b5f80612c28612dd6565b9050806001015f8573ffffffffffffffffffffffffffffffffffffffff1673ffffffffffffffffffffffffffffffffffffffff1681526020019081526020015f205f8473ffffffffffffffffffffffffffffffffffffffff1673ffffffffffffffffffffffffffffffffffffffff1681526020019081526020015f205491505092915050565b5f80612cb8613c11565b9050805f015f9054906101000a900473ffffffffffffffffffffffffffffffffffffffff1691505090565b60015f9054906101000a900473ffffffffffffffffffffffffffffffffffffffff1681565b5f612d13825f612e16565b9050919050565b612d22613a99565b5f612d2b613c11565b905081815f015f6101000a81548173ffffffffffffffffffffffffffffffffffffffff021916908373ffffffffffffffffffffffffffffffffffffffff1602179055508173ffffffffffffffffffffffffffffffffffffffff16612d8d611eee565b73ffffffffffffffffffffffffffffffffffffffff167f38d16b8cac22d99fc7c124b9cd0de2d3fa1faef420bfe791d8c362d765e2270060405160405180910390a35050565b50565b5f7f52c63247e1f47db19d5ce0460030c497f067ca4cebf71ba98eeadabe20bace00905090565b5f33905090565b612e118383836001613c38565b505050565b5f612e66612e22613537565b600a612e2e9190615931565b612e366113b8565b612e4091906155f2565b6001612e4a610ac1565b612e5491906155f2565b8486613e15909392919063ffffffff16565b905092915050565b5f805f80612e96865f018673ffffffffffffffffffffffffffffffffffffffff165f1b613e62565b9150915081815f1c9350935050509250929050565b5f612ed3845f018473ffffffffffffffffffffffffffffffffffffffff165f1b845f1b613eab565b90509392505050565b5f612ee8825f01613ee2565b9050919050565b50565b5f80612efc613ef5565b90508091505090565b612f196751c23eb2ba5b774a60c01b612dd3565b612f21613f1e565b612f3567ab8b9d31cd8a865860c01b612dd3565b612f4967c5b6febfaa46dfa660c01b612dd3565b612f5d67c696d7c441fc19db60c01b612dd3565b612f7167052a81137408bec660c01b612dd3565b5f73ffffffffffffffffffffffffffffffffffffffff168473ffffffffffffffffffffffffffffffffffffffff1603612fea57612fb86789bd3a1b83fd4d1b60c01b612dd3565b6040517f9c6bb9f500000000000000000000000000000000000000000000000000000000815260040160405180910390fd5b612ffe67c128beb5839e09db60c01b612dd3565b613012672f5a06091c8aeb6360c01b612dd3565b613026678bb971814ea39d8d60c01b612dd3565b5f73ffffffffffffffffffffffffffffffffffffffff168373ffffffffffffffffffffffffffffffffffffffff160361309f5761306d67a632880eac2437dc60c01b612dd3565b6040517fd490b4b600000000000000000000000000000000000000000000000000000000815260040160405180910390fd5b6130b367f8e6be0ae0b3ab2260c01b612dd3565b6130c7675ab91474dd314e2c60c01b612dd3565b6130db6747511351fa9d37ea60c01b612dd3565b6130e58282613f5e565b6130f967e53a27300dd3ae7860c01b612dd3565b61310d67f0b1c78f733afd6960c01b612dd3565b6131828373ffffffffffffffffffffffffffffffffffffffff16637158da7c6040518163ffffffff1660e01b8152600401602060405180830381865afa158015613159573d5f803e3d5ffd5b505050506040513d601f19601f8201168201806040525081019061317d91906159b6565b613f74565b61319667213a624510e8d39a60c01b612dd3565b6131aa678bcf21285ecb76e760c01b612dd3565b6131b2613f88565b6131c6678770544a5990fbca60c01b612dd3565b6131da6730acf2a44067868260c01b612dd3565b6131e2613f9a565b6131f6673edefc61991e7fa060c01b612dd3565b61320a67ebc3862a7314f41660c01b612dd3565b613212613fa4565b613226679ba1881c53661af960c01b612dd3565b61323a67b3e39227d34c58dc60c01b612dd3565b61324384613b20565b613257679e97501f9dc0922660c01b612dd3565b3360025f6101000a81548173ffffffffffffffffffffffffffffffffffffffff021916908373ffffffffffffffffffffffffffffffffffffffff1602179055506132ab67382ff2bfc7e4ee9c60c01b612dd3565b8360015f6101000a81548173ffffffffffffffffffffffffffffffffffffffff021916908373ffffffffffffffffffffffffffffffffffffffff1602179055506132ff677ec8f1d7afced3ab60c01b612dd3565b825f806101000a81548173ffffffffffffffffffffffffffffffffffffffff021916908373ffffffffffffffffffffffffffffffffffffffff1602179055506133526762b2a87916bc564860c01b612dd3565b61335a6115e8565b600a6133669190615931565b600381905550613380673df13a9eb024617660c01b612dd3565b5f60048190555050505050565b5f6133988484612c1e565b90507fffffffffffffffffffffffffffffffffffffffffffffffffffffffffffffffff81101561341a578181101561340b578281836040517ffb8f41b2000000000000000000000000000000000000000000000000000000008152600401613402939291906159e1565b60405180910390fd5b61341984848484035f613c38565b5b50505050565b5f73ffffffffffffffffffffffffffffffffffffffff168373ffffffffffffffffffffffffffffffffffffffff1603613490575f6040517f96c6fd1e0000000000000000000000000000000000000000000000000000000081526004016134879190615175565b60405180910390fd5b5f73ffffffffffffffffffffffffffffffffffffffff168273ffffffffffffffffffffffffffffffffffffffff1603613500575f6040517fec442f050000000000000000000000000000000000000000000000000000000081526004016134f79190615175565b60405180910390fd5b61350b838383613fae565b505050565b5f7f0773e532dfede91f04b12a73d3d2acd361424f41f76b4fb79f090161e36b4e00905090565b5f90565b5f6135446141dd565b90506002815f015403613583576040517f3ee5aeb500000000000000000000000000000000000000000000000000000000815260040160405180910390fd5b6002815f018190555050565b5f805f8061359f865f0186614204565b91509150815f1c815f1c9350935050509250929050565b5f6135db835f018373ffffffffffffffffffffffffffffffffffffffff165f1b61423f565b905092915050565b5f73ffffffffffffffffffffffffffffffffffffffff168273ffffffffffffffffffffffffffffffffffffffff1603613653575f6040517fec442f0500000000000000000000000000000000000000000000000000000000815260040161364a9190615175565b60405180910390fd5b61365e5f8383613fae565b5050565b5f61366b6141dd565b90506001815f018190555050565b5f6136c96001613687610ac1565b61369191906155f2565b613699613537565b600a6136a59190615931565b6136ad6113b8565b6136b791906155f2565b8486613e15909392919063ffffffff16565b905092915050565b7f000000000000000000000000000000000000000000000000000000000000000073ffffffffffffffffffffffffffffffffffffffff163073ffffffffffffffffffffffffffffffffffffffff16148061377e57507f000000000000000000000000000000000000000000000000000000000000000073ffffffffffffffffffffffffffffffffffffffff16613765614273565b73ffffffffffffffffffffffffffffffffffffffff1614155b156137b5576040517fe07c8dba00000000000000000000000000000000000000000000000000000000815260040160405180910390fd5b565b6137cb6781493ec40615236160c01b612dd3565b6137df67516af330a0417e0060c01b612dd3565b6137f367dcdb33645b95a34260c01b612dd3565b61380767c03c10387fb2e14760c01b612dd3565b60015f9054906101000a900473ffffffffffffffffffffffffffffffffffffffff1673ffffffffffffffffffffffffffffffffffffffff163373ffffffffffffffffffffffffffffffffffffffff16146138a15761386f67d1231cb0992939e460c01b612dd3565b6040517f56b381a500000000000000000000000000000000000000000000000000000000815260040160405180910390fd5b6138b567c676da3c8f839ffd60c01b612dd3565b6138c96774b3d9ea4910564060c01b612dd3565b6138dd67687f7af4600d477760c01b612dd3565b6138f16723944504339ee12560c01b612dd3565b50565b8173ffffffffffffffffffffffffffffffffffffffff166352d1902d6040518163ffffffff1660e01b8152600401602060405180830381865afa92505050801561395c57506040513d601f19601f820116820180604052508101906139599190615a40565b60015b61399d57816040517f4c9c8ce30000000000000000000000000000000000000000000000000000000081526004016139949190615175565b60405180910390fd5b7f360894a13ba1a3210667c828492db98dca3e2076cc3735a920a3ca505d382bbc5f1b8114613a0357806040517faa1d49a40000000000000000000000000000000000000000000000000000000081526004016139fa91906152c9565b60405180910390fd5b613a0d83836142c6565b505050565b7f000000000000000000000000000000000000000000000000000000000000000073ffffffffffffffffffffffffffffffffffffffff163073ffffffffffffffffffffffffffffffffffffffff1614613a97576040517fe07c8dba00000000000000000000000000000000000000000000000000000000815260040160405180910390fd5b565b613aa1612dfd565b73ffffffffffffffffffffffffffffffffffffffff16613abf611eee565b73ffffffffffffffffffffffffffffffffffffffff1614613b1e57613ae2612dfd565b6040517f118cdaa7000000000000000000000000000000000000000000000000000000008152600401613b159190615175565b60405180910390fd5b565b5f613b29613c11565b9050805f015f6101000a81549073ffffffffffffffffffffffffffffffffffffffff0219169055613b5982614338565b5050565b5f7f9016d09d72d40fdae2fd8ceac6b6234c7706214fd39c1cd1e609a0528c199300905090565b613b8f815f01614409565b50565b5f73ffffffffffffffffffffffffffffffffffffffff168273ffffffffffffffffffffffffffffffffffffffff1603613c02575f6040517f96c6fd1e000000000000000000000000000000000000000000000000000000008152600401613bf99190615175565b60405180910390fd5b613c0d825f83613fae565b5050565b5f7f237e158222e3e6968b72b9db0d8043aacf074ad9f650f0d1606b4d82ee432c00905090565b5f613c41612dd6565b90505f73ffffffffffffffffffffffffffffffffffffffff168573ffffffffffffffffffffffffffffffffffffffff1603613cb3575f6040517fe602df05000000000000000000000000000000000000000000000000000000008152600401613caa9190615175565b60405180910390fd5b5f73ffffffffffffffffffffffffffffffffffffffff168473ffffffffffffffffffffffffffffffffffffffff1603613d23575f6040517f94280d62000000000000000000000000000000000000000000000000000000008152600401613d1a9190615175565b60405180910390fd5b82816001015f8773ffffffffffffffffffffffffffffffffffffffff1673ffffffffffffffffffffffffffffffffffffffff1681526020019081526020015f205f8673ffffffffffffffffffffffffffffffffffffffff1673ffffffffffffffffffffffffffffffffffffffff1681526020019081526020015f20819055508115613e0e578373ffffffffffffffffffffffffffffffffffffffff168573ffffffffffffffffffffffffffffffffffffffff167f8c5be1e5ebec7d5bd14f71427d1e84f3dd0314c0f7b2291e5b200ac8c7c3b92585604051613e059190614d05565b60405180910390a35b5050505050565b5f613e43613e2283614464565b8015613e3e57505f8480613e3957613e38615595565b5b868809115b614491565b613e4e86868661449c565b613e5891906155f2565b9050949350505050565b5f805f846002015f8581526020019081526020015f205490505f801b8103613e9b57613e8e858561457b565b5f801b9250925050613ea4565b60018192509250505b9250929050565b5f81846002015f8581526020019081526020015f2081905550613ed983855f0161459990919063ffffffff16565b90509392505050565b5f613eee825f016145ae565b9050919050565b5f7ff0c57e16840df040f15088dc2f81fe391c3923bec73e23a9662efc9c229c6a005f1b905090565b613f266145c1565b613f5c576040517fd7e6bcf800000000000000000000000000000000000000000000000000000000815260040160405180910390fd5b565b613f66613f1e565b613f7082826145df565b5050565b613f7c613f1e565b613f858161461b565b50565b613f90613f1e565b613f986146ad565b565b613fa2613f1e565b565b613fac613f1e565b565b5f613fb7612dd6565b90505f73ffffffffffffffffffffffffffffffffffffffff168473ffffffffffffffffffffffffffffffffffffffff160361400b5781816002015f828254613fff91906155f2565b925050819055506140dd565b5f815f015f8673ffffffffffffffffffffffffffffffffffffffff1673ffffffffffffffffffffffffffffffffffffffff1681526020019081526020015f2054905082811015614096578481846040517fe450d38c00000000000000000000000000000000000000000000000000000000815260040161408d939291906159e1565b60405180910390fd5b828103825f015f8773ffffffffffffffffffffffffffffffffffffffff1673ffffffffffffffffffffffffffffffffffffffff1681526020019081526020015f2081905550505b5f73ffffffffffffffffffffffffffffffffffffffff168373ffffffffffffffffffffffffffffffffffffffff16036141265781816002015f8282540392505081905550614172565b81815f015f8573ffffffffffffffffffffffffffffffffffffffff1673ffffffffffffffffffffffffffffffffffffffff1681526020019081526020015f205f82825401925050819055505b8273ffffffffffffffffffffffffffffffffffffffff168473ffffffffffffffffffffffffffffffffffffffff167fddf252ad1be2c89b69c2b068fc378daa952ba7f163c4a11628f55a4df523b3ef846040516141cf9190614d05565b60405180910390a350505050565b5f7f9b779b17422d0df92223018b32b4d1fa46e071723d6817e2486d003becc55f00905090565b5f805f61421c84865f016146cc90919063ffffffff16565b905080856002015f8381526020019081526020015f205492509250509250929050565b5f826002015f8381526020019081526020015f205f905561426b82845f016146e190919063ffffffff16565b905092915050565b5f61429f7f360894a13ba1a3210667c828492db98dca3e2076cc3735a920a3ca505d382bbc5f1b6146f6565b5f015f9054906101000a900473ffffffffffffffffffffffffffffffffffffffff16905090565b6142cf826146ff565b8173ffffffffffffffffffffffffffffffffffffffff167fbc7cd75a20ee27fd9adebab32041f755214dbc6bffa90cc0225b39da2e5c2d3b60405160405180910390a25f8151111561432b5761432582826147c8565b50614334565b614333614848565b5b5050565b5f614341613b5d565b90505f815f015f9054906101000a900473ffffffffffffffffffffffffffffffffffffffff16905082825f015f6101000a81548173ffffffffffffffffffffffffffffffffffffffff021916908373ffffffffffffffffffffffffffffffffffffffff1602179055508273ffffffffffffffffffffffffffffffffffffffff168173ffffffffffffffffffffffffffffffffffffffff167f8be0079c531659141344cd1fd0a4f28419497f9722a3daafe3b4186f6b6457e060405160405180910390a3505050565b5f61441382613ee2565b90505f5b8181101561445457826002015f61443983865f016146cc90919063ffffffff16565b81526020019081526020015f205f9055806001019050614417565b50614460825f01614884565b5050565b5f6001600283600381111561447c5761447b615a6b565b5b6144869190615a98565b60ff16149050919050565b5f8115159050919050565b5f805f6144a98686614892565b915091505f82036144ce578381816144c4576144c3615595565b5b0492505050614574565b8184116144ed576144ec6144e75f8614601260116148af565b6148c8565b5b5f8486880990508181118303925080820391505f855f038616905080860495508083049250600181825f0304019050808402831792505f600287600302189050808702600203810290508087026002038102905080870260020381029050808702600203810290508087026002038102905080870260020381029050808402955050505050505b9392505050565b5f61459182845f016148d990919063ffffffff16565b905092915050565b5f6145a6835f01836148ee565b905092915050565b5f6145ba825f01614955565b9050919050565b5f6145ca612ef2565b5f0160089054906101000a900460ff16905090565b6145e7613f1e565b5f6145f0612dd6565b9050828160030190816146039190615c5c565b50818160040190816146159190615c5c565b50505050565b614623613f1e565b5f61462c613510565b90505f8061463984614964565b915091508161464957601261464b565b805b835f0160146101000a81548160ff021916908360ff16021790555083835f015f6101000a81548173ffffffffffffffffffffffffffffffffffffffff021916908373ffffffffffffffffffffffffffffffffffffffff16021790555050505050565b6146b5613f1e565b5f6146be6141dd565b90506001815f018190555050565b5f6146d9835f0183614a6d565b905092915050565b5f6146ee835f0183614a94565b905092915050565b5f819050919050565b5f8173ffffffffffffffffffffffffffffffffffffffff163b0361475a57806040517f4c9c8ce30000000000000000000000000000000000000000000000000000000081526004016147519190615175565b60405180910390fd5b806147867f360894a13ba1a3210667c828492db98dca3e2076cc3735a920a3ca505d382bbc5f1b6146f6565b5f015f6101000a81548173ffffffffffffffffffffffffffffffffffffffff021916908373ffffffffffffffffffffffffffffffffffffffff16021790555050565b60605f808473ffffffffffffffffffffffffffffffffffffffff16846040516147f19190615d6f565b5f60405180830381855af49150503d805f8114614829576040519150601f19603f3d011682016040523d82523d5f602084013e61482e565b606091505b509150915061483e858383614b90565b9250505092915050565b5f341115614882576040517fb398979f00000000000000000000000000000000000000000000000000000000815260040160405180910390fd5b565b61488f815f01614c1d565b50565b5f805f198385098385029150818110828203039250509250929050565b5f6148b984614491565b82841802821890509392505050565b634e487b715f52806020526024601cfd5b5f6148e6835f0183614c82565b905092915050565b5f6148f98383614c82565b61494b57825f0182908060018154018082558091505060019003905f5260205f20015f9091909190915055825f0180549050836001015f8481526020019081526020015f20819055506001905061494f565b5f90505b92915050565b5f815f01805490509050919050565b5f805f808473ffffffffffffffffffffffffffffffffffffffff1660405160240160405160208183030381529060405263313ce56760e01b6020820180517bffffffffffffffffffffffffffffffffffffffffffffffffffffffff83818316178352505050506040516149d79190615d6f565b5f60405180830381855afa9150503d805f8114614a0f576040519150601f19603f3d011682016040523d82523d5f602084013e614a14565b606091505b5091509150818015614a2857506020815110155b15614a5f575f81806020019051810190614a429190615d99565b905060ff80168111614a5d5760018194509450505050614a68565b505b5f809350935050505b915091565b5f825f018281548110614a8357614a826157ae565b5b905f5260205f200154905092915050565b5f80836001015f8481526020019081526020015f205490505f8114614b85575f600182614ac19190615dc4565b90505f6001865f0180549050614ad79190615dc4565b9050808214614b3d575f865f018281548110614af657614af56157ae565b5b905f5260205f200154905080875f018481548110614b1757614b166157ae565b5b905f5260205f20018190555083876001015f8381526020019081526020015f2081905550505b855f01805480614b5057614b4f615df7565b5b600190038181905f5260205f20015f90559055856001015f8681526020019081526020015f205f905560019350505050614b8a565b5f9150505b92915050565b606082614ba557614ba082614ca2565b614c15565b5f8251148015614bcb57505f8473ffffffffffffffffffffffffffffffffffffffff163b145b15614c0d57836040517f9996b315000000000000000000000000000000000000000000000000000000008152600401614c049190615175565b60405180910390fd5b819050614c16565b5b9392505050565b5f614c2782614955565b90505f5b81811015614c7157826001015f845f018381548110614c4d57614c4c6157ae565b5b905f5260205f20015481526020019081526020015f205f9055806001019050614c2b565b50614c7e825f015f614ce6565b5050565b5f80836001015f8481526020019081526020015f20541415905092915050565b5f81511115614cb45780518082602001fd5b6040517fd6bda27500000000000000000000000000000000000000000000000000000000815260040160405180910390fd5b8082555050565b5f819050919050565b614cff81614ced565b82525050565b5f602082019050614d185f830184614cf6565b92915050565b5f81519050919050565b5f82825260208201905092915050565b8281835e5f83830152505050565b5f601f19601f8301169050919050565b5f614d6082614d1e565b614d6a8185614d28565b9350614d7a818560208601614d38565b614d8381614d46565b840191505092915050565b5f6020820190508181035f830152614da68184614d56565b905092915050565b5f604051905090565b5f80fd5b5f80fd5b614dc881614ced565b8114614dd2575f80fd5b50565b5f81359050614de381614dbf565b92915050565b5f60208284031215614dfe57614dfd614db7565b5b5f614e0b84828501614dd5565b91505092915050565b5f73ffffffffffffffffffffffffffffffffffffffff82169050919050565b5f614e3d82614e14565b9050919050565b614e4d81614e33565b8114614e57575f80fd5b50565b5f81359050614e6881614e44565b92915050565b5f8060408385031215614e8457614e83614db7565b5b5f614e9185828601614e5a565b9250506020614ea285828601614dd5565b9150509250929050565b5f8115159050919050565b614ec081614eac565b82525050565b5f602082019050614ed95f830184614eb7565b92915050565b5f614ee982614e33565b9050919050565b614ef981614edf565b8114614f03575f80fd5b50565b5f81359050614f1481614ef0565b92915050565b5f80fd5b5f80fd5b7f4e487b71000000000000000000000000000000000000000000000000000000005f52604160045260245ffd5b614f5882614d46565b810181811067ffffffffffffffff82111715614f7757614f76614f22565b5b80604052505050565b5f614f89614dae565b9050614f958282614f4f565b919050565b5f67ffffffffffffffff821115614fb457614fb3614f22565b5b614fbd82614d46565b9050602081019050919050565b828183375f83830152505050565b5f614fea614fe584614f9a565b614f80565b90508281526020810184848401111561500657615005614f1e565b5b615011848285614fca565b509392505050565b5f82601f83011261502d5761502c614f1a565b5b813561503d848260208601614fd8565b91505092915050565b5f805f806080858703121561505e5761505d614db7565b5b5f61506b87828801614e5a565b945050602061507c87828801614f06565b935050604085013567ffffffffffffffff81111561509d5761509c614dbb565b5b6150a987828801615019565b925050606085013567ffffffffffffffff8111156150ca576150c9614dbb565b5b6150d687828801615019565b91505092959194509250565b5f805f606084860312156150f9576150f8614db7565b5b5f61510686828701614e5a565b935050602061511786828701614e5a565b925050604061512886828701614dd5565b9150509250925092565b5f60ff82169050919050565b61514781615132565b82525050565b5f6020820190506151605f83018461513e565b92915050565b61516f81614e33565b82525050565b5f6020820190506151885f830184615166565b92915050565b5f602082840312156151a3576151a2614db7565b5b5f6151b084828501614e5a565b91505092915050565b5f67ffffffffffffffff8211156151d3576151d2614f22565b5b6151dc82614d46565b9050602081019050919050565b5f6151fb6151f6846151b9565b614f80565b90508281526020810184848401111561521757615216614f1e565b5b615222848285614fca565b509392505050565b5f82601f83011261523e5761523d614f1a565b5b813561524e8482602086016151e9565b91505092915050565b5f806040838503121561526d5761526c614db7565b5b5f61527a85828601614e5a565b925050602083013567ffffffffffffffff81111561529b5761529a614dbb565b5b6152a78582860161522a565b9150509250929050565b5f819050919050565b6152c3816152b1565b82525050565b5f6020820190506152dc5f8301846152ba565b92915050565b5f80604083850312156152f8576152f7614db7565b5b5f61530585828601614dd5565b925050602061531685828601614e5a565b9150509250929050565b5f819050919050565b5f61534361533e61533984614e14565b615320565b614e14565b9050919050565b5f61535482615329565b9050919050565b5f6153658261534a565b9050919050565b6153758161535b565b82525050565b5f60208201905061538e5f83018461536c565b92915050565b5f80fd5b5f80fd5b5f8083601f8401126153b1576153b0614f1a565b5b8235905067ffffffffffffffff8111156153ce576153cd615394565b5b6020830191508360408202830111156153ea576153e9615398565b5b9250929050565b5f806020838503121561540757615406614db7565b5b5f83013567ffffffffffffffff81111561542457615423614dbb565b5b6154308582860161539c565b92509250509250929050565b5f805f6060848603121561545357615452614db7565b5b5f61546086828701614dd5565b935050602061547186828701614e5a565b925050604061548286828701614e5a565b9150509250925092565b5f80604083850312156154a2576154a1614db7565b5b5f6154af85828601614e5a565b92505060206154c085828601614e5a565b9150509250929050565b7f4e487b71000000000000000000000000000000000000000000000000000000005f52602260045260245ffd5b5f600282049050600182168061550e57607f821691505b602082108103615521576155206154ca565b5b50919050565b7f4e487b71000000000000000000000000000000000000000000000000000000005f52601160045260245ffd5b5f61555e82614ced565b915061556983614ced565b925082820261557781614ced565b9150828204841483151761558e5761558d615527565b5b5092915050565b7f4e487b71000000000000000000000000000000000000000000000000000000005f52601260045260245ffd5b5f6155cc82614ced565b91506155d783614ced565b9250826155e7576155e6615595565b5b828204905092915050565b5f6155fc82614ced565b915061560783614ced565b925082820190508082111561561f5761561e615527565b5b92915050565b5f6060820190506156385f830186615166565b6156456020830185615166565b6156526040830184614cf6565b949350505050565b61566381614eac565b811461566d575f80fd5b50565b5f8151905061567e8161565a565b92915050565b5f6020828403121561569957615698614db7565b5b5f6156a684828501615670565b91505092915050565b5f6040820190506156c25f830185614cf6565b6156cf6020830184614cf6565b9392505050565b5f815190506156e481614e44565b92915050565b5f602082840312156156ff576156fe614db7565b5b5f61570c848285016156d6565b91505092915050565b5f819050919050565b5f67ffffffffffffffff82169050919050565b5f61574b61574661574184615715565b615320565b61571e565b9050919050565b61575b81615731565b82525050565b5f6020820190506157745f830184615752565b92915050565b5f61578482615132565b915061578f83615132565b9250828201905060ff8111156157a8576157a7615527565b5b92915050565b7f4e487b71000000000000000000000000000000000000000000000000000000005f52603260045260245ffd5b5f6040820190506157ee5f830185615166565b6157fb6020830184614cf6565b9392505050565b5f8160011c9050919050565b5f808291508390505b60018511156158575780860481111561583357615832615527565b5b60018516156158425780820291505b808102905061585085615802565b9450615817565b94509492505050565b5f8261586f576001905061592a565b8161587c575f905061592a565b8160018114615892576002811461589c576158cb565b600191505061592a565b60ff8411156158ae576158ad615527565b5b8360020a9150848211156158c5576158c4615527565b5b5061592a565b5060208310610133831016604e8410600b84101617156159005782820a9050838111156158fb576158fa615527565b5b61592a565b61590d848484600161580e565b9250905081840481111561592457615923615527565b5b81810290505b9392505050565b5f61593b82614ced565b915061594683615132565b92506159737fffffffffffffffffffffffffffffffffffffffffffffffffffffffffffffffff8484615860565b905092915050565b5f61598582614e33565b9050919050565b6159958161597b565b811461599f575f80fd5b50565b5f815190506159b08161598c565b92915050565b5f602082840312156159cb576159ca614db7565b5b5f6159d8848285016159a2565b91505092915050565b5f6060820190506159f45f830186615166565b615a016020830185614cf6565b615a0e6040830184614cf6565b949350505050565b615a1f816152b1565b8114615a29575f80fd5b50565b5f81519050615a3a81615a16565b92915050565b5f60208284031215615a5557615a54614db7565b5b5f615a6284828501615a2c565b91505092915050565b7f4e487b71000000000000000000000000000000000000000000000000000000005f52602160045260245ffd5b5f615aa282615132565b9150615aad83615132565b925082615abd57615abc615595565b5b828206905092915050565b5f819050815f5260205f209050919050565b5f6020601f8301049050919050565b5f82821b905092915050565b5f60088302615b247fffffffffffffffffffffffffffffffffffffffffffffffffffffffffffffffff82615ae9565b615b2e8683615ae9565b95508019841693508086168417925050509392505050565b5f615b60615b5b615b5684614ced565b615320565b614ced565b9050919050565b5f819050919050565b615b7983615b46565b615b8d615b8582615b67565b848454615af5565b825550505050565b5f90565b615ba1615b95565b615bac818484615b70565b505050565b5b81811015615bcf57615bc45f82615b99565b600181019050615bb2565b5050565b601f821115615c1457615be581615ac8565b615bee84615ada565b81016020851015615bfd578190505b615c11615c0985615ada565b830182615bb1565b50505b505050565b5f82821c905092915050565b5f615c345f1984600802615c19565b1980831691505092915050565b5f615c4c8383615c25565b9150826002028217905092915050565b615c6582614d1e565b67ffffffffffffffff811115615c7e57615c7d614f22565b5b615c8882546154f7565b615c93828285615bd3565b5f60209050601f831160018114615cc4575f8415615cb2578287015190505b615cbc8582615c41565b865550615d23565b601f198416615cd286615ac8565b5f5b82811015615cf957848901518255600182019150602085019450602081019050615cd4565b86831015615d165784890151615d12601f891682615c25565b8355505b6001600288020188555050505b505050505050565b5f81519050919050565b5f81905092915050565b5f615d4982615d2b565b615d538185615d35565b9350615d63818560208601614d38565b80840191505092915050565b5f615d7a8284615d3f565b915081905092915050565b5f81519050615d9381614dbf565b92915050565b5f60208284031215615dae57615dad614db7565b5b5f615dbb84828501615d85565b91505092915050565b5f615dce82614ced565b9150615dd983614ced565b9250828203905081811115615df157615df0615527565b5b92915050565b7f4e487b71000000000000000000000000000000000000000000000000000000005f52603160045260245ffdfea264697066735822122061461025aa20fade4c19abe5998889ae3518251185541835975068851fdcea3d64736f6c634300081a0033",
  "linkReferences": {},
  "deployedLinkReferences": {}
}