{
  "_format": "hh-sol-artifact-1",
  "contractName": "VaultImplementations",
  "sourceName": "contracts/helpers/VaultImplementations.sol",
  "abi": [
    {
      "inputs": [],
      "stateMutability": "nonpayable",
      "type": "constructor"
    },
    {
      "inputs": [],
      "name": "encryptedVaultImplementation",
      "outputs": [
        {
          "internalType": "address",
          "name": "",
          "type": "address"
        }
      ],
      "stateMutability": "view",
      "type": "function"
    },
    {
      "inputs": [],
      "name": "transparentVaultImplementation",
      "outputs": [
        {
          "internalType": "address",
          "name": "",
          "type": "address"
        }
      ],
      "stateMutability": "view",
      "type": "function"
    }
  ],
  "bytecode": "0x60c0604052348015600e575f80fd5b506040516019906071565b604051809103905ff0801580156031573d5f803e3d5ffd5b506001600160a01b0316608052604051604890607e565b604051809103905ff0801580156060573d5f803e3d5ffd5b506001600160a01b031660a052608b565b6130448061017a83390190565b612f02806131be83390190565b60805160a05160d26100a85f395f607a01525f6038015260d25ff3fe6080604052348015600e575f80fd5b50600436106030575f3560e01c806310e43b2d1460345780639c6aac95146076575b5f80fd5b605a7f000000000000000000000000000000000000000000000000000000000000000081565b6040516001600160a01b03909116815260200160405180910390f35b605a7f00000000000000000000000000000000000000000000000000000000000000008156fea264697066735822122068fce9f114638bf2abaac95c3396e114f62bf3efb441ac1b79c1466e1053de7e64736f6c634300081a003360a0604052306080523480156012575f80fd5b5060805161300b6100395f395f8181611b2701528181611b500152611cb2015261300b5ff3fe60806040526004361061026a575f3560e01c806379502c551161014a578063ba087652116100be578063dd62ed3e11610078578063dd62ed3e146106d7578063e30c3978146106f6578063e66f53b71461070a578063ef8b30f714610729578063f2fde38b14610748578063fb12251b14610767575f80fd5b8063ba0876521461063c578063c63d75b614610455578063c6e6f5921461065b578063ce96cb771461067a578063d5f3948814610699578063d905777e146106b8575f80fd5b806395d89b411161010f57806395d89b4114610587578063a9059cbb1461059b578063aa9d3a60146105ba578063ad3cb1cc146105ce578063b3d7f6b9146105fe578063b460af941461061d575f80fd5b806379502c551461052c57806379ba50971461054a578063872697291461055e5780638da5cb5b1461057357806394bf804d146104bb575f80fd5b8063313ce567116101e15780634f1ef286116101a65780634f1ef2861461049457806352d1902d146104a75780636e553f65146104bb57806370a08231146104da578063715018a6146104f9578063745400c91461050d575f80fd5b8063313ce567146103ef57806333fdc5921461041557806338d52e0f14610429578063402d267d146104555780634cdad50614610475575f80fd5b80630d1e6667116102325780630d1e66671461031f57806316b60249146103405780631765b3131461035f57806318160ddd1461037e5780632016a0d2146103b157806323b872dd146103d0575f80fd5b806301e1d1141461026e57806306fdde031461029157806307a2d13a146102b2578063095ea7b3146102d15780630a28a47714610300575b5f80fd5b348015610279575f80fd5b506004545b6040519081526020015b60405180910390f35b34801561029c575f80fd5b506102a5610786565b6040516102889190612856565b3480156102bd575f80fd5b5061027e6102cc36600461288b565b610846565b3480156102dc575f80fd5b506102f06102eb3660046128b6565b610870565b6040519015158152602001610288565b34801561030b575f80fd5b5061027e61031a36600461288b565b610887565b34801561032a575f80fd5b5061033e61033936600461288b565b610893565b005b34801561034b575f80fd5b5061033e61035a36600461288b565b610a1a565b34801561036a575f80fd5b5061033e61037936600461288b565b610ae2565b348015610389575f80fd5b507f52c63247e1f47db19d5ce0460030c497f067ca4cebf71ba98eeadabe20bace025461027e565b3480156103bc575f80fd5b5061033e6103cb366004612989565b610b8a565b3480156103db575f80fd5b506102f06103ea366004612a12565b610c89565b3480156103fa575f80fd5b50610403610cae565b60405160ff9091168152602001610288565b348015610420575f80fd5b5061033e610cf0565b348015610434575f80fd5b5061043d610e81565b6040516001600160a01b039091168152602001610288565b348015610460575f80fd5b5061027e61046f366004612a50565b505f1990565b348015610480575f80fd5b5061027e61048f36600461288b565b610eb5565b61033e6104a2366004612a6b565b610ec0565b3480156104b2575f80fd5b5061027e610edf565b3480156104c6575f80fd5b5061027e6104d5366004612acb565b610efa565b3480156104e5575f80fd5b5061027e6104f4366004612a50565b610f14565b348015610504575f80fd5b5061033e610f3a565b348015610518575f80fd5b5061033e61052736600461288b565b610f4b565b348015610537575f80fd5b505f5461043d906001600160a01b031681565b348015610555575f80fd5b5061033e61104d565b348015610569575f80fd5b5061027e60035481565b34801561057e575f80fd5b5061043d611095565b348015610592575f80fd5b506102a56110bd565b3480156105a6575f80fd5b506102f06105b53660046128b6565b6110fb565b3480156105c5575f80fd5b5061033e611108565b3480156105d9575f80fd5b506102a5604051806040016040528060058152602001640352e302e360dc1b81525081565b348015610609575f80fd5b5061027e61061836600461288b565b611305565b348015610628575f80fd5b5061027e610637366004612af9565b611311565b348015610647575f80fd5b5061027e610656366004612af9565b61132a565b348015610666575f80fd5b5061027e61067536600461288b565b611344565b348015610685575f80fd5b5061027e610694366004612a50565b61135d565b3480156106a4575f80fd5b5060025461043d906001600160a01b031681565b3480156106c3575f80fd5b5061027e6106d2366004612a50565b611370565b3480156106e2575f80fd5b5061027e6106f1366004612b38565b61137a565b348015610701575f80fd5b5061043d6113c3565b348015610715575f80fd5b5060015461043d906001600160a01b031681565b348015610734575f80fd5b5061027e61074336600461288b565b6113eb565b348015610753575f80fd5b5061033e610762366004612a50565b6113f6565b348015610772575f80fd5b5061033e610781366004612b64565b61147b565b7f52c63247e1f47db19d5ce0460030c497f067ca4cebf71ba98eeadabe20bace0380546060915f80516020612f96833981519152916107c490612bd5565b80601f01602080910402602001604051908101604052809291908181526020018280546107f090612bd5565b801561083b5780601f106108125761010080835404028352916020019161083b565b820191905f5260205f20905b81548152906001019060200180831161081e57829003601f168201915b505050505091505090565b5f61084f610cae565b60ff16600354836108609190612c21565b61086a9190612c4c565b92915050565b5f3361087d81858561172b565b5060019392505050565b5f61086a82600161173d565b805f036108cc576108a2610e81565b604051636b30633560e01b81526001600160a01b0390911660048201526024015b60405180910390fd5b5f806108d960053361178f565b915091505f8215610902576108fb336108f28685612c5f565b600591906117b5565b9050610911565b61090e600533866117b5565b90505b8061092f57604051637732292d60e01b815260040160405180910390fd5b5f610938610e81565b6040516323b872dd60e01b8152336004820152306024820152604481018790526001600160a01b0391909116906323b872dd906064016020604051808303815f875af115801561098a573d5f803e3d5ffd5b505050506040513d601f19601f820116820180604052508101906109ae9190612c72565b9050806109ce576040516312171d8360e31b815260040160405180910390fd5b337f03979a8c481a9e9c06938045cfd5c28535255cb003b10a8fe84ebb3cb4d440f2866109fb60056117d2565b6040805192835260208301919091520160405180910390a25050505050565b5f8054906101000a90046001600160a01b03166001600160a01b031663348ec5c86040518163ffffffff1660e01b8152600401602060405180830381865afa158015610a68573d5f803e3d5ffd5b505050506040513d601f19601f82011682018060405250810190610a8c9190612c91565b6001600160a01b0316336001600160a01b031614610abd5760405163efb380d960e01b815260040160405180910390fd5b805f03610add57604051634dfba02360e01b815260040160405180910390fd5b600355565b5f8054906101000a90046001600160a01b03166001600160a01b031663348ec5c86040518163ffffffff1660e01b8152600401602060405180830381865afa158015610b30573d5f803e3d5ffd5b505050506040513d601f19601f82011682018060405250810190610b549190612c91565b6001600160a01b0316336001600160a01b031614610b855760405163efb380d960e01b815260040160405180910390fd5b600455565b5f610b936117dc565b805490915060ff600160401b820416159067ffffffffffffffff165f81158015610bba5750825b90505f8267ffffffffffffffff166001148015610bd65750303b155b905081158015610be4575080155b15610c025760405163f92ee8a960e01b815260040160405180910390fd5b845467ffffffffffffffff191660011785558315610c2c57845460ff60401b1916600160401b1785555b610c3889898989611804565b8315610c7e57845460ff60401b19168555604051600181527fc7f505b2f371ae2175ee4913f4499e1f2633a7b5936321eed1cdaeb6115181d29060200160405180910390a15b505050505050505050565b5f33610c96858285611946565b610ca18585856119aa565b60019150505b9392505050565b5f807f0773e532dfede91f04b12a73d3d2acd361424f41f76b4fb79f090161e36b4e0090505f8154610cea9190600160a01b900460ff16612cac565b91505090565b5f8054906101000a90046001600160a01b03166001600160a01b0316633a0dad8e6040518163ffffffff1660e01b8152600401602060405180830381865afa158015610d3e573d5f803e3d5ffd5b505050506040513d601f19601f82011682018060405250810190610d629190612c91565b6001600160a01b0316336001600160a01b031614610d9357604051631af2ab4f60e31b815260040160405180910390fd5b610d9b611a07565b5f5b610da760056117d2565b811015610e55575f80610dbb600584611a51565b915091505f610dc9826113eb565b90505f610dd7600585611a5f565b905080610df757604051637732292d60e01b815260040160405180910390fd5b610e018483611a73565b60408051848152602081018790526001600160a01b038616917f782ea2005b7f873a0190a1ccb553c732171348d6e16d2b7d3d493c0677dc296e910160405180910390a2505060019092019150610d9d9050565b50610e7f60017f9b779b17422d0df92223018b32b4d1fa46e071723d6817e2486d003becc55f0055565b565b5f807f0773e532dfede91f04b12a73d3d2acd361424f41f76b4fb79f090161e36b4e005b546001600160a01b031692915050565b5f61086a825f611acd565b610ec8611b1c565b610ed182611bc0565b610edb8282611beb565b5050565b5f610ee8611ca7565b505f80516020612fb683398151915290565b5f6040516318f2e47360e11b815260040160405180910390fd5b6001600160a01b03165f9081525f80516020612f96833981519152602052604090205490565b610f42611cf0565b610e7f5f611d22565b805f03610f6b576040516314e6cbb960e11b815260040160405180910390fd5b80610f7533610f14565b1015610f9457604051633c57b48560e21b815260040160405180910390fd5b5f80610fa160083361178f565b915091505f8215610fca57610fc333610fba8685612c5f565b600891906117b5565b9050610fd9565b610fd6600833866117b5565b90505b80610ff757604051630d6600c560e01b815260040160405180910390fd5b6110023330866119aa565b337fd72eb5d043f24a0168ae744d5c44f9596fd673a26bf74d9646bff4b844882d148561102f60086117d2565b6040805192835260208301919091520160405180910390a250505050565b33806110576113c3565b6001600160a01b0316146110895760405163118cdaa760e01b81526001600160a01b03821660048201526024016108c3565b61109281611d22565b50565b5f807f9016d09d72d40fdae2fd8ceac6b6234c7706214fd39c1cd1e609a0528c199300610ea5565b7f52c63247e1f47db19d5ce0460030c497f067ca4cebf71ba98eeadabe20bace0480546060915f80516020612f96833981519152916107c490612bd5565b5f3361087d8185856119aa565b5f8054906101000a90046001600160a01b03166001600160a01b0316633a0dad8e6040518163ffffffff1660e01b8152600401602060405180830381865afa158015611156573d5f803e3d5ffd5b505050506040513d601f19601f8201168201806040525081019061117a9190612c91565b6001600160a01b0316336001600160a01b0316146111ab57604051631af2ab4f60e31b815260040160405180910390fd5b6111b3611a07565b5f5b6111bf60086117d2565b811015610e55575f806111d3600884611a51565b90925090505f6111e4600884611a5f565b90508061120457604051630d6600c560e01b815260040160405180910390fd5b61120e3083611d5a565b5f61121883610eb5565b9050611222610e81565b60405163a9059cbb60e01b81526001600160a01b03868116600483015260248201849052919091169063a9059cbb906044016020604051808303815f875af1158015611270573d5f803e3d5ffd5b505050506040513d601f19601f820116820180604052508101906112949190612c72565b6112b1576040516312171d8360e31b815260040160405180910390fd5b60408051848152602081018790526001600160a01b038616917febad37b830b1857ef9af5983fc20dc0ded12dc472ba1e22e06fd3a9465b4506c910160405180910390a25050600190920191506111b59050565b5f61086a826001611acd565b5f604051628a595160e01b815260040160405180910390fd5b5f604051630ad8521960e31b815260040160405180910390fd5b5f600354611350610cae565b6108609060ff1684612c21565b5f61086a61136a83610f14565b5f611acd565b5f61086a82610f14565b6001600160a01b039182165f9081527f52c63247e1f47db19d5ce0460030c497f067ca4cebf71ba98eeadabe20bace016020908152604080832093909416825291909152205490565b5f807f237e158222e3e6968b72b9db0d8043aacf074ad9f650f0d1606b4d82ee432c00610ea5565b5f61086a825f61173d565b6113fe611cf0565b7f237e158222e3e6968b72b9db0d8043aacf074ad9f650f0d1606b4d82ee432c0080546001600160a01b0319166001600160a01b0383169081178255611442611095565b6001600160a01b03167f38d16b8cac22d99fc7c124b9cd0de2d3fa1faef420bfe791d8c362d765e2270060405160405180910390a35050565b6001546001600160a01b031633146114a6576040516356b381a560e01b815260040160405180910390fd5b5f8190036114c757604051631121aa8d60e01b815260040160405180910390fd5b6114d1600b611d8e565b5f805b8281101561165a575f8484838181106114ef576114ef612cc5565b6115059260206040909202019081019150612a50565b90505f85858481811061151a5761151a612cc5565b90506040020160200160208101906115329190612cd9565b5f54604051633af32abf60e01b81526001600160a01b038581166004830152929350911690633af32abf90602401602060405180830381865afa15801561157b573d5f803e3d5ffd5b505050506040513d601f19601f8201168201806040525081019061159f9190612c72565b6115c75760405163751dff9760e11b81526001600160a01b03831660048201526024016108c3565b8063ffffffff165f036115f857604051636b30633560e01b81526001600160a01b03831660048201526024016108c3565b5f61160e600b8463ffffffff808616906117b516565b905080611639576040516346bdabe160e01b81526001600160a01b03841660048201526024016108c3565b61164963ffffffff831686612c5f565b945050600190920191506114d49050565b505f805f9054906101000a90046001600160a01b03166001600160a01b031663d1717c7d6040518163ffffffff1660e01b8152600401602060405180830381865afa1580156116ab573d5f803e3d5ffd5b505050506040513d601f19601f820116820180604052508101906116cf9190612cfc565b90506116dc81600a612dff565b82146116fb576040516324204a3560e21b815260040160405180910390fd5b60405133907f2d47a742b8d7df7c1fc5a9a631b206b364e6cb2722490759f63bb3ab14b132e0905f90a250505050565b6117388383836001611d97565b505050565b5f610ca761174c82600a612dff565b7f52c63247e1f47db19d5ce0460030c497f067ca4cebf71ba98eeadabe20bace02546117789190612c5f565b600454611786906001612c5f565b85919085611e7b565b5f8080806117a6866001600160a01b038716611ec6565b909450925050505b9250929050565b5f6117ca846001600160a01b03851684611efe565b949350505050565b5f61086a82611f1a565b5f807ff0c57e16840df040f15088dc2f81fe391c3923bec73e23a9662efc9c229c6a0061086a565b61180c611f24565b6001600160a01b03841661183357604051639c6bb9f560e01b815260040160405180910390fd5b6001600160a01b03831661185a57604051636a485a5b60e11b815260040160405180910390fd5b6118648282611f49565b6118cc836001600160a01b0316637158da7c6040518163ffffffff1660e01b8152600401602060405180830381865afa1580156118a3573d5f803e3d5ffd5b505050506040513d601f19601f820116820180604052508101906118c79190612c91565b611f5b565b6118d4611f6c565b6118dc611f7c565b6118e4611f7c565b6118ed84611d22565b60028054336001600160a01b0319918216179091556001805482166001600160a01b03878116919091179091555f805490921690851617905561192e610cae565b61193990600a612dff565b60035550505f6004555050565b5f611951848461137a565b90505f198110156119a4578181101561199657604051637dc7a0d960e11b81526001600160a01b038416600482015260248101829052604481018390526064016108c3565b6119a484848484035f611d97565b50505050565b6001600160a01b0383166119d357604051634b637e8f60e11b81525f60048201526024016108c3565b6001600160a01b0382166119fc5760405163ec442f0560e01b81525f60048201526024016108c3565b611738838383611f84565b7f9b779b17422d0df92223018b32b4d1fa46e071723d6817e2486d003becc55f00805460011901611a4b57604051633ee5aeb560e01b815260040160405180910390fd5b60029055565b5f8080806117a686866120bd565b5f610ca7836001600160a01b0384166120e6565b6001600160a01b038216611a9c5760405163ec442f0560e01b81525f60048201526024016108c3565b610edb5f8383611f84565b60017f9b779b17422d0df92223018b32b4d1fa46e071723d6817e2486d003becc55f0055565b5f610ca7611ada60045490565b611ae5906001612c5f565b611af05f600a612dff565b7f52c63247e1f47db19d5ce0460030c497f067ca4cebf71ba98eeadabe20bace02546117869190612c5f565b306001600160a01b037f0000000000000000000000000000000000000000000000000000000000000000161480611ba257507f00000000000000000000000000000000000000000000000000000000000000006001600160a01b0316611b965f80516020612fb6833981519152546001600160a01b031690565b6001600160a01b031614155b15610e7f5760405163703e46dd60e11b815260040160405180910390fd5b6001546001600160a01b03163314611092576040516356b381a560e01b815260040160405180910390fd5b816001600160a01b03166352d1902d6040518163ffffffff1660e01b8152600401602060405180830381865afa925050508015611c45575060408051601f3d908101601f19168201909252611c4291810190612e0d565b60015b611c6d57604051634c9c8ce360e01b81526001600160a01b03831660048201526024016108c3565b5f80516020612fb68339815191528114611c9d57604051632a87526960e21b8152600481018290526024016108c3565b6117388383612102565b306001600160a01b037f00000000000000000000000000000000000000000000000000000000000000001614610e7f5760405163703e46dd60e11b815260040160405180910390fd5b33611cf9611095565b6001600160a01b031614610e7f5760405163118cdaa760e01b81523360048201526024016108c3565b7f237e158222e3e6968b72b9db0d8043aacf074ad9f650f0d1606b4d82ee432c0080546001600160a01b0319168155610edb82612157565b6001600160a01b038216611d8357604051634b637e8f60e11b81525f60048201526024016108c3565b610edb825f83611f84565b611092816121c7565b5f80516020612f968339815191526001600160a01b038516611dce5760405163e602df0560e01b81525f60048201526024016108c3565b6001600160a01b038416611df757604051634a1406b160e11b81525f60048201526024016108c3565b6001600160a01b038086165f90815260018301602090815260408083209388168352929052208390558115611e7457836001600160a01b0316856001600160a01b03167f8c5be1e5ebec7d5bd14f71427d1e84f3dd0314c0f7b2291e5b200ac8c7c3b92585604051611e6b91815260200190565b60405180910390a35b5050505050565b5f611ea8611e8883612210565b8015611ea357505f8480611e9e57611e9e612c38565b868809115b151590565b611eb386868661223c565b611ebd9190612c5f565b95945050505050565b5f818152600283016020526040812054819080611ef357611ee785856122ec565b92505f91506117ae9050565b6001925090506117ae565b5f82815260028401602052604081208290556117ca84846122f7565b5f61086a82612302565b611f2c61230b565b610e7f57604051631afcd79f60e31b815260040160405180910390fd5b611f51611f24565b610edb8282612324565b611f63611f24565b61109281612374565b611f74611f24565b610e7f6123f7565b610e7f611f24565b5f80516020612f968339815191526001600160a01b038416611fbe5781816002015f828254611fb39190612c5f565b9091555061202e9050565b6001600160a01b0384165f90815260208290526040902054828110156120105760405163391434e360e21b81526001600160a01b038616600482015260248101829052604481018490526064016108c3565b6001600160a01b0385165f9081526020839052604090209083900390555b6001600160a01b03831661204c57600281018054839003905561206a565b6001600160a01b0383165f9081526020829052604090208054830190555b826001600160a01b0316846001600160a01b03167fddf252ad1be2c89b69c2b068fc378daa952ba7f163c4a11628f55a4df523b3ef846040516120af91815260200190565b60405180910390a350505050565b5f80806120ca85856123ff565b5f81815260029690960160205260409095205494959350505050565b5f8181526002830160205260408120819055610ca7838361240a565b61210b82612415565b6040516001600160a01b038316907fbc7cd75a20ee27fd9adebab32041f755214dbc6bffa90cc0225b39da2e5c2d3b905f90a280511561214f576117388282612478565b610edb6124e1565b7f9016d09d72d40fdae2fd8ceac6b6234c7706214fd39c1cd1e609a0528c19930080546001600160a01b031981166001600160a01b03848116918217845560405192169182907f8be0079c531659141344cd1fd0a4f28419497f9722a3daafe3b4186f6b6457e0905f90a3505050565b5f6121d182611f1a565b90505f5b8181101561220657600283015f6121ec85846123ff565b815260208101919091526040015f908120556001016121d5565b50610edb82612500565b5f600282600381111561222557612225612e24565b61222f9190612e38565b60ff166001149050919050565b5f805f6122498686612509565b91509150815f0361226d5783818161226357612263612c38565b0492505050610ca7565b818411612284576122846003851502601118612525565b5f848688095f868103871696879004966002600389028118808a02820302808a02820302808a02820302808a02820302808a02820302808a02909103029181900381900460010185841190960395909502919093039390930492909217029150509392505050565b5f610ca78383612536565b5f610ca7838361254d565b5f61086a825490565b5f6123146117dc565b54600160401b900460ff16919050565b61232c611f24565b5f80516020612f968339815191527f52c63247e1f47db19d5ce0460030c497f067ca4cebf71ba98eeadabe20bace036123658482612e9d565b50600481016119a48382612e9d565b61237c611f24565b7f0773e532dfede91f04b12a73d3d2acd361424f41f76b4fb79f090161e36b4e005f806123a884612599565b91509150816123b85760126123ba565b805b83546001600160a81b031916600160a01b60ff92909216919091026001600160a01b031916176001600160a01b0394909416939093179091555050565b611aa7611f24565b5f610ca7838361266f565b5f610ca78383612695565b806001600160a01b03163b5f0361244a57604051634c9c8ce360e01b81526001600160a01b03821660048201526024016108c3565b5f80516020612fb683398151915280546001600160a01b0319166001600160a01b0392909216919091179055565b60605f80846001600160a01b0316846040516124949190612f58565b5f60405180830381855af49150503d805f81146124cc576040519150601f19603f3d011682016040523d82523d5f602084013e6124d1565b606091505b5091509150611ebd858383612778565b3415610e7f5760405163b398979f60e01b815260040160405180910390fd5b611092816127d4565b5f805f1983850993909202808410938190039390930393915050565b634e487b715f52806020526024601cfd5b5f8181526001830160205260408120541515610ca7565b5f81815260018301602052604081205461259257508154600181810184555f84815260208082209093018490558454848252828601909352604090209190915561086a565b505f61086a565b60408051600481526024810182526020810180516001600160e01b031663313ce56760e01b17905290515f918291829182916001600160a01b038716916125df91612f58565b5f60405180830381855afa9150503d805f8114612617576040519150601f19603f3d011682016040523d82523d5f602084013e61261c565b606091505b509150915081801561263057506020815110155b15612663575f8180602001905181019061264a9190612e0d565b905060ff8111612661576001969095509350505050565b505b505f9485945092505050565b5f825f01828154811061268457612684612cc5565b905f5260205f200154905092915050565b5f818152600183016020526040812054801561276f575f6126b7600183612f6e565b85549091505f906126ca90600190612f6e565b9050808214612729575f865f0182815481106126e8576126e8612cc5565b905f5260205f200154905080875f01848154811061270857612708612cc5565b5f918252602080832090910192909255918252600188019052604090208390555b855486908061273a5761273a612f81565b600190038181905f5260205f20015f90559055856001015f8681526020019081526020015f205f90556001935050505061086a565b5f91505061086a565b60608261278d576127888261282d565b610ca7565b81511580156127a457506001600160a01b0384163b155b156127cd57604051639996b31560e01b81526001600160a01b03851660048201526024016108c3565b5080610ca7565b5f6127dd825490565b90505f5b8181101561282657826001015f845f01838154811061280257612802612cc5565b905f5260205f20015481526020019081526020015f205f90558060010190506127e1565b50505f9055565b80511561283d5780518082602001fd5b60405163d6bda27560e01b815260040160405180910390fd5b602081525f82518060208401528060208501604085015e5f604082850101526040601f19601f83011684010191505092915050565b5f6020828403121561289b575f80fd5b5035919050565b6001600160a01b0381168114611092575f80fd5b5f80604083850312156128c7575f80fd5b82356128d2816128a2565b946020939093013593505050565b634e487b7160e01b5f52604160045260245ffd5b5f8067ffffffffffffffff84111561290e5761290e6128e0565b50604051601f19601f85018116603f0116810181811067ffffffffffffffff8211171561293d5761293d6128e0565b604052838152905080828401851015612954575f80fd5b838360208301375f60208583010152509392505050565b5f82601f83011261297a575f80fd5b610ca7838335602085016128f4565b5f805f806080858703121561299c575f80fd5b84356129a7816128a2565b935060208501356129b7816128a2565b9250604085013567ffffffffffffffff8111156129d2575f80fd5b6129de8782880161296b565b925050606085013567ffffffffffffffff8111156129fa575f80fd5b612a068782880161296b565b91505092959194509250565b5f805f60608486031215612a24575f80fd5b8335612a2f816128a2565b92506020840135612a3f816128a2565b929592945050506040919091013590565b5f60208284031215612a60575f80fd5b8135610ca7816128a2565b5f8060408385031215612a7c575f80fd5b8235612a87816128a2565b9150602083013567ffffffffffffffff811115612aa2575f80fd5b8301601f81018513612ab2575f80fd5b612ac1858235602084016128f4565b9150509250929050565b5f8060408385031215612adc575f80fd5b823591506020830135612aee816128a2565b809150509250929050565b5f805f60608486031215612b0b575f80fd5b833592506020840135612b1d816128a2565b91506040840135612b2d816128a2565b809150509250925092565b5f8060408385031215612b49575f80fd5b8235612b54816128a2565b91506020830135612aee816128a2565b5f8060208385031215612b75575f80fd5b823567ffffffffffffffff811115612b8b575f80fd5b8301601f81018513612b9b575f80fd5b803567ffffffffffffffff811115612bb1575f80fd5b8560208260061b8401011115612bc5575f80fd5b6020919091019590945092505050565b600181811c90821680612be957607f821691505b602082108103612c0757634e487b7160e01b5f52602260045260245ffd5b50919050565b634e487b7160e01b5f52601160045260245ffd5b808202811582820484141761086a5761086a612c0d565b634e487b7160e01b5f52601260045260245ffd5b5f82612c5a57612c5a612c38565b500490565b8082018082111561086a5761086a612c0d565b5f60208284031215612c82575f80fd5b81518015158114610ca7575f80fd5b5f60208284031215612ca1575f80fd5b8151610ca7816128a2565b60ff818116838216019081111561086a5761086a612c0d565b634e487b7160e01b5f52603260045260245ffd5b5f60208284031215612ce9575f80fd5b813563ffffffff81168114610ca7575f80fd5b5f60208284031215612d0c575f80fd5b815160ff81168114610ca7575f80fd5b6001815b6001841115612d5757808504811115612d3b57612d3b612c0d565b6001841615612d4957908102905b60019390931c928002612d20565b935093915050565b5f82612d6d5750600161086a565b81612d7957505f61086a565b8160018114612d8f5760028114612d9957612db5565b600191505061086a565b60ff841115612daa57612daa612c0d565b50506001821b61086a565b5060208310610133831016604e8410600b8410161715612dd8575081810a61086a565b612de45f198484612d1c565b805f1904821115612df757612df7612c0d565b029392505050565b5f610ca760ff841683612d5f565b5f60208284031215612e1d575f80fd5b5051919050565b634e487b7160e01b5f52602160045260245ffd5b5f60ff831680612e4a57612e4a612c38565b8060ff84160691505092915050565b601f82111561173857805f5260205f20601f840160051c81016020851015612e7e5750805b601f840160051c820191505b81811015611e74575f8155600101612e8a565b815167ffffffffffffffff811115612eb757612eb76128e0565b612ecb81612ec58454612bd5565b84612e59565b6020601f821160018114612efd575f8315612ee65750848201515b5f19600385901b1c1916600184901b178455611e74565b5f84815260208120601f198516915b82811015612f2c5787850151825560209485019460019092019101612f0c565b5084821015612f4957868401515f19600387901b60f8161c191681555b50505050600190811b01905550565b5f82518060208501845e5f920191825250919050565b8181038181111561086a5761086a612c0d565b634e487b7160e01b5f52603160045260245ffdfe52c63247e1f47db19d5ce0460030c497f067ca4cebf71ba98eeadabe20bace00360894a13ba1a3210667c828492db98dca3e2076cc3735a920a3ca505d382bbca2646970667358221220595eda50956434a3966d9114f0f3d4a1727fa3f1dbe827a4ab7084cde8587b1364736f6c634300081a003360a0604052306080523480156012575f80fd5b50608051612ec96100395f395f8181611a2801528181611a510152611bb30152612ec95ff3fe60806040526004361061026a575f3560e01c806379502c551161014a578063b460af94116100be578063d905777e11610078578063d905777e146106d7578063dd62ed3e146106f6578063e30c397814610715578063e66f53b714610729578063ef8b30f714610748578063f2fde38b14610767575f80fd5b8063b460af941461063c578063ba0876521461065b578063c63d75b614610455578063c6e6f5921461067a578063ce96cb7714610699578063d5f39488146106b8575f80fd5b806395d89b411161010f57806395d89b41146105875780639c055a661461059b578063a9059cbb146105ba578063aa9d3a60146105d9578063ad3cb1cc146105ed578063b3d7f6b91461061d575f80fd5b806379502c551461052c57806379ba50971461054a578063872697291461055e5780638da5cb5b1461057357806394bf804d146104bb575f80fd5b8063313ce567116101e15780634f1ef286116101a65780634f1ef2861461049457806352d1902d146104a75780636e553f65146104bb57806370a08231146104da578063715018a6146104f9578063745400c91461050d575f80fd5b8063313ce567146103ef57806333fdc5921461041557806338d52e0f14610429578063402d267d146104555780634cdad50614610475575f80fd5b80630d1e6667116102325780630d1e66671461031f57806316b60249146103405780631765b3131461035f57806318160ddd1461037e5780632016a0d2146103b157806323b872dd146103d0575f80fd5b806301e1d1141461026e57806306fdde031461029157806307a2d13a146102b2578063095ea7b3146102d15780630a28a47714610300575b5f80fd5b348015610279575f80fd5b506004545b6040519081526020015b60405180910390f35b34801561029c575f80fd5b506102a5610786565b6040516102889190612757565b3480156102bd575f80fd5b5061027e6102cc36600461278c565b610846565b3480156102dc575f80fd5b506102f06102eb3660046127b7565b610870565b6040519015158152602001610288565b34801561030b575f80fd5b5061027e61031a36600461278c565b610887565b34801561032a575f80fd5b5061033e61033936600461278c565b610893565b005b34801561034b575f80fd5b5061033e61035a36600461278c565b610a1a565b34801561036a575f80fd5b5061033e61037936600461278c565b610ae2565b348015610389575f80fd5b507f52c63247e1f47db19d5ce0460030c497f067ca4cebf71ba98eeadabe20bace025461027e565b3480156103bc575f80fd5b5061033e6103cb36600461288a565b610b8a565b3480156103db575f80fd5b506102f06103ea366004612913565b610c89565b3480156103fa575f80fd5b50610403610cae565b60405160ff9091168152602001610288565b348015610420575f80fd5b5061033e610cf0565b348015610434575f80fd5b5061043d610e81565b6040516001600160a01b039091168152602001610288565b348015610460575f80fd5b5061027e61046f366004612951565b505f1990565b348015610480575f80fd5b5061027e61048f36600461278c565b610eb5565b61033e6104a236600461296c565b610ec0565b3480156104b2575f80fd5b5061027e610edf565b3480156104c6575f80fd5b5061027e6104d53660046129cc565b610efa565b3480156104e5575f80fd5b5061027e6104f4366004612951565b610f14565b348015610504575f80fd5b5061033e610f3a565b348015610518575f80fd5b5061033e61052736600461278c565b610f4b565b348015610537575f80fd5b505f5461043d906001600160a01b031681565b348015610555575f80fd5b5061033e61104d565b348015610569575f80fd5b5061027e60035481565b34801561057e575f80fd5b5061043d611095565b348015610592575f80fd5b506102a56110bd565b3480156105a6575f80fd5b5061033e6105b53660046129fa565b6110fb565b3480156105c5575f80fd5b506102f06105d43660046127b7565b6112ac565b3480156105e4575f80fd5b5061033e6112b9565b3480156105f8575f80fd5b506102a5604051806040016040528060058152602001640352e302e360dc1b81525081565b348015610628575f80fd5b5061027e61063736600461278c565b6114b6565b348015610647575f80fd5b5061027e610656366004612a6b565b6114c2565b348015610666575f80fd5b5061027e610675366004612a6b565b6114db565b348015610685575f80fd5b5061027e61069436600461278c565b6114f5565b3480156106a4575f80fd5b5061027e6106b3366004612951565b61150e565b3480156106c3575f80fd5b5060025461043d906001600160a01b031681565b3480156106e2575f80fd5b5061027e6106f1366004612951565b611521565b348015610701575f80fd5b5061027e610710366004612aaa565b61152b565b348015610720575f80fd5b5061043d611574565b348015610734575f80fd5b5060015461043d906001600160a01b031681565b348015610753575f80fd5b5061027e61076236600461278c565b61159c565b348015610772575f80fd5b5061033e610781366004612951565b6115a7565b7f52c63247e1f47db19d5ce0460030c497f067ca4cebf71ba98eeadabe20bace0380546060915f80516020612e54833981519152916107c490612ad6565b80601f01602080910402602001604051908101604052809291908181526020018280546107f090612ad6565b801561083b5780601f106108125761010080835404028352916020019161083b565b820191905f5260205f20905b81548152906001019060200180831161081e57829003601f168201915b505050505091505090565b5f61084f610cae565b60ff16600354836108609190612b22565b61086a9190612b4d565b92915050565b5f3361087d81858561162c565b5060019392505050565b5f61086a82600161163e565b805f036108cc576108a2610e81565b604051636b30633560e01b81526001600160a01b0390911660048201526024015b60405180910390fd5b5f806108d9600533611690565b915091505f8215610902576108fb336108f28685612b60565b600591906116b6565b9050610911565b61090e600533866116b6565b90505b8061092f57604051637732292d60e01b815260040160405180910390fd5b5f610938610e81565b6040516323b872dd60e01b8152336004820152306024820152604481018790526001600160a01b0391909116906323b872dd906064016020604051808303815f875af115801561098a573d5f803e3d5ffd5b505050506040513d601f19601f820116820180604052508101906109ae9190612b73565b9050806109ce576040516312171d8360e31b815260040160405180910390fd5b337f03979a8c481a9e9c06938045cfd5c28535255cb003b10a8fe84ebb3cb4d440f2866109fb60056116d3565b6040805192835260208301919091520160405180910390a25050505050565b5f8054906101000a90046001600160a01b03166001600160a01b031663348ec5c86040518163ffffffff1660e01b8152600401602060405180830381865afa158015610a68573d5f803e3d5ffd5b505050506040513d601f19601f82011682018060405250810190610a8c9190612b92565b6001600160a01b0316336001600160a01b031614610abd5760405163efb380d960e01b815260040160405180910390fd5b805f03610add57604051634dfba02360e01b815260040160405180910390fd5b600355565b5f8054906101000a90046001600160a01b03166001600160a01b031663348ec5c86040518163ffffffff1660e01b8152600401602060405180830381865afa158015610b30573d5f803e3d5ffd5b505050506040513d601f19601f82011682018060405250810190610b549190612b92565b6001600160a01b0316336001600160a01b031614610b855760405163efb380d960e01b815260040160405180910390fd5b600455565b5f610b936116dd565b805490915060ff600160401b820416159067ffffffffffffffff165f81158015610bba5750825b90505f8267ffffffffffffffff166001148015610bd65750303b155b905081158015610be4575080155b15610c025760405163f92ee8a960e01b815260040160405180910390fd5b845467ffffffffffffffff191660011785558315610c2c57845460ff60401b1916600160401b1785555b610c3889898989611705565b8315610c7e57845460ff60401b19168555604051600181527fc7f505b2f371ae2175ee4913f4499e1f2633a7b5936321eed1cdaeb6115181d29060200160405180910390a15b505050505050505050565b5f33610c96858285611847565b610ca18585856118ab565b60019150505b9392505050565b5f807f0773e532dfede91f04b12a73d3d2acd361424f41f76b4fb79f090161e36b4e0090505f8154610cea9190600160a01b900460ff16612bad565b91505090565b5f8054906101000a90046001600160a01b03166001600160a01b0316633a0dad8e6040518163ffffffff1660e01b8152600401602060405180830381865afa158015610d3e573d5f803e3d5ffd5b505050506040513d601f19601f82011682018060405250810190610d629190612b92565b6001600160a01b0316336001600160a01b031614610d9357604051631af2ab4f60e31b815260040160405180910390fd5b610d9b611908565b5f5b610da760056116d3565b811015610e55575f80610dbb600584611952565b915091505f610dc98261159c565b90505f610dd7600585611960565b905080610df757604051637732292d60e01b815260040160405180910390fd5b610e018483611974565b60408051848152602081018790526001600160a01b038616917f782ea2005b7f873a0190a1ccb553c732171348d6e16d2b7d3d493c0677dc296e910160405180910390a2505060019092019150610d9d9050565b50610e7f60017f9b779b17422d0df92223018b32b4d1fa46e071723d6817e2486d003becc55f0055565b565b5f807f0773e532dfede91f04b12a73d3d2acd361424f41f76b4fb79f090161e36b4e005b546001600160a01b031692915050565b5f61086a825f6119ce565b610ec8611a1d565b610ed182611ac1565b610edb8282611aec565b5050565b5f610ee8611ba8565b505f80516020612e7483398151915290565b5f6040516318f2e47360e11b815260040160405180910390fd5b6001600160a01b03165f9081525f80516020612e54833981519152602052604090205490565b610f42611bf1565b610e7f5f611c23565b805f03610f6b576040516314e6cbb960e11b815260040160405180910390fd5b80610f7533610f14565b1015610f9457604051633c57b48560e21b815260040160405180910390fd5b5f80610fa1600833611690565b915091505f8215610fca57610fc333610fba8685612b60565b600891906116b6565b9050610fd9565b610fd6600833866116b6565b90505b80610ff757604051630d6600c560e01b815260040160405180910390fd5b6110023330866118ab565b337fd72eb5d043f24a0168ae744d5c44f9596fd673a26bf74d9646bff4b844882d148561102f60086116d3565b6040805192835260208301919091520160405180910390a250505050565b3380611057611574565b6001600160a01b0316146110895760405163118cdaa760e01b81526001600160a01b03821660048201526024016108c3565b61109281611c23565b50565b5f807f9016d09d72d40fdae2fd8ceac6b6234c7706214fd39c1cd1e609a0528c199300610ea5565b7f52c63247e1f47db19d5ce0460030c497f067ca4cebf71ba98eeadabe20bace0480546060915f80516020612e54833981519152916107c490612ad6565b6001546001600160a01b03163314611126576040516356b381a560e01b815260040160405180910390fd5b5f81900361114757604051631121aa8d60e01b815260040160405180910390fd5b611151600b611c5b565b5f5b8181101561127d575f83838381811061116e5761116e612bc6565b6111849260206040909202019081019150612951565b90505f84848481811061119957611199612bc6565b5f5460408051633af32abf60e01b81526001600160a01b03888116600483015260209290940295909501013594501691633af32abf9150602401602060405180830381865afa1580156111ee573d5f803e3d5ffd5b505050506040513d601f19601f820116820180604052508101906112129190612b73565b61123a5760405163751dff9760e11b81526001600160a01b03831660048201526024016108c3565b5f611247600b84846116b6565b905080611272576040516346bdabe160e01b81526001600160a01b03841660048201526024016108c3565b505050600101611153565b5060405133907f2d47a742b8d7df7c1fc5a9a631b206b364e6cb2722490759f63bb3ab14b132e0905f90a25050565b5f3361087d8185856118ab565b5f8054906101000a90046001600160a01b03166001600160a01b0316633a0dad8e6040518163ffffffff1660e01b8152600401602060405180830381865afa158015611307573d5f803e3d5ffd5b505050506040513d601f19601f8201168201806040525081019061132b9190612b92565b6001600160a01b0316336001600160a01b03161461135c57604051631af2ab4f60e31b815260040160405180910390fd5b611364611908565b5f5b61137060086116d3565b811015610e55575f80611384600884611952565b90925090505f611395600884611960565b9050806113b557604051630d6600c560e01b815260040160405180910390fd5b6113bf3083611c64565b5f6113c983610eb5565b90506113d3610e81565b60405163a9059cbb60e01b81526001600160a01b03868116600483015260248201849052919091169063a9059cbb906044016020604051808303815f875af1158015611421573d5f803e3d5ffd5b505050506040513d601f19601f820116820180604052508101906114459190612b73565b611462576040516312171d8360e31b815260040160405180910390fd5b60408051848152602081018790526001600160a01b038616917febad37b830b1857ef9af5983fc20dc0ded12dc472ba1e22e06fd3a9465b4506c910160405180910390a25050600190920191506113669050565b5f61086a8260016119ce565b5f604051628a595160e01b815260040160405180910390fd5b5f604051630ad8521960e31b815260040160405180910390fd5b5f600354611501610cae565b6108609060ff1684612b22565b5f61086a61151b83610f14565b5f6119ce565b5f61086a82610f14565b6001600160a01b039182165f9081527f52c63247e1f47db19d5ce0460030c497f067ca4cebf71ba98eeadabe20bace016020908152604080832093909416825291909152205490565b5f807f237e158222e3e6968b72b9db0d8043aacf074ad9f650f0d1606b4d82ee432c00610ea5565b5f61086a825f61163e565b6115af611bf1565b7f237e158222e3e6968b72b9db0d8043aacf074ad9f650f0d1606b4d82ee432c0080546001600160a01b0319166001600160a01b03831690811782556115f3611095565b6001600160a01b03167f38d16b8cac22d99fc7c124b9cd0de2d3fa1faef420bfe791d8c362d765e2270060405160405180910390a35050565b6116398383836001611c98565b505050565b5f610ca761164d82600a612cbd565b7f52c63247e1f47db19d5ce0460030c497f067ca4cebf71ba98eeadabe20bace02546116799190612b60565b600454611687906001612b60565b85919085611d7c565b5f8080806116a7866001600160a01b038716611dc7565b909450925050505b9250929050565b5f6116cb846001600160a01b03851684611dff565b949350505050565b5f61086a82611e1b565b5f807ff0c57e16840df040f15088dc2f81fe391c3923bec73e23a9662efc9c229c6a0061086a565b61170d611e25565b6001600160a01b03841661173457604051639c6bb9f560e01b815260040160405180910390fd5b6001600160a01b03831661175b57604051636a485a5b60e11b815260040160405180910390fd5b6117658282611e4a565b6117cd836001600160a01b0316637158da7c6040518163ffffffff1660e01b8152600401602060405180830381865afa1580156117a4573d5f803e3d5ffd5b505050506040513d601f19601f820116820180604052508101906117c89190612b92565b611e5c565b6117d5611e6d565b6117dd611e7d565b6117e5611e7d565b6117ee84611c23565b60028054336001600160a01b0319918216179091556001805482166001600160a01b03878116919091179091555f805490921690851617905561182f610cae565b61183a90600a612cbd565b60035550505f6004555050565b5f611852848461152b565b90505f198110156118a5578181101561189757604051637dc7a0d960e11b81526001600160a01b038416600482015260248101829052604481018390526064016108c3565b6118a584848484035f611c98565b50505050565b6001600160a01b0383166118d457604051634b637e8f60e11b81525f60048201526024016108c3565b6001600160a01b0382166118fd5760405163ec442f0560e01b81525f60048201526024016108c3565b611639838383611e85565b7f9b779b17422d0df92223018b32b4d1fa46e071723d6817e2486d003becc55f0080546001190161194c57604051633ee5aeb560e01b815260040160405180910390fd5b60029055565b5f8080806116a78686611fbe565b5f610ca7836001600160a01b038416611fe7565b6001600160a01b03821661199d5760405163ec442f0560e01b81525f60048201526024016108c3565b610edb5f8383611e85565b60017f9b779b17422d0df92223018b32b4d1fa46e071723d6817e2486d003becc55f0055565b5f610ca76119db60045490565b6119e6906001612b60565b6119f15f600a612cbd565b7f52c63247e1f47db19d5ce0460030c497f067ca4cebf71ba98eeadabe20bace02546116879190612b60565b306001600160a01b037f0000000000000000000000000000000000000000000000000000000000000000161480611aa357507f00000000000000000000000000000000000000000000000000000000000000006001600160a01b0316611a975f80516020612e74833981519152546001600160a01b031690565b6001600160a01b031614155b15610e7f5760405163703e46dd60e11b815260040160405180910390fd5b6001546001600160a01b03163314611092576040516356b381a560e01b815260040160405180910390fd5b816001600160a01b03166352d1902d6040518163ffffffff1660e01b8152600401602060405180830381865afa925050508015611b46575060408051601f3d908101601f19168201909252611b4391810190612ccb565b60015b611b6e57604051634c9c8ce360e01b81526001600160a01b03831660048201526024016108c3565b5f80516020612e748339815191528114611b9e57604051632a87526960e21b8152600481018290526024016108c3565b6116398383612003565b306001600160a01b037f00000000000000000000000000000000000000000000000000000000000000001614610e7f5760405163703e46dd60e11b815260040160405180910390fd5b33611bfa611095565b6001600160a01b031614610e7f5760405163118cdaa760e01b81523360048201526024016108c3565b7f237e158222e3e6968b72b9db0d8043aacf074ad9f650f0d1606b4d82ee432c0080546001600160a01b0319168155610edb82612058565b611092816120c8565b6001600160a01b038216611c8d57604051634b637e8f60e11b81525f60048201526024016108c3565b610edb825f83611e85565b5f80516020612e548339815191526001600160a01b038516611ccf5760405163e602df0560e01b81525f60048201526024016108c3565b6001600160a01b038416611cf857604051634a1406b160e11b81525f60048201526024016108c3565b6001600160a01b038086165f90815260018301602090815260408083209388168352929052208390558115611d7557836001600160a01b0316856001600160a01b03167f8c5be1e5ebec7d5bd14f71427d1e84f3dd0314c0f7b2291e5b200ac8c7c3b92585604051611d6c91815260200190565b60405180910390a35b5050505050565b5f611da9611d8983612111565b8015611da457505f8480611d9f57611d9f612b39565b868809115b151590565b611db486868661213d565b611dbe9190612b60565b95945050505050565b5f818152600283016020526040812054819080611df457611de885856121ed565b92505f91506116af9050565b6001925090506116af565b5f82815260028401602052604081208290556116cb84846121f8565b5f61086a82612203565b611e2d61220c565b610e7f57604051631afcd79f60e31b815260040160405180910390fd5b611e52611e25565b610edb8282612225565b611e64611e25565b61109281612275565b611e75611e25565b610e7f6122f8565b610e7f611e25565b5f80516020612e548339815191526001600160a01b038416611ebf5781816002015f828254611eb49190612b60565b90915550611f2f9050565b6001600160a01b0384165f9081526020829052604090205482811015611f115760405163391434e360e21b81526001600160a01b038616600482015260248101829052604481018490526064016108c3565b6001600160a01b0385165f9081526020839052604090209083900390555b6001600160a01b038316611f4d576002810180548390039055611f6b565b6001600160a01b0383165f9081526020829052604090208054830190555b826001600160a01b0316846001600160a01b03167fddf252ad1be2c89b69c2b068fc378daa952ba7f163c4a11628f55a4df523b3ef84604051611fb091815260200190565b60405180910390a350505050565b5f8080611fcb8585612300565b5f81815260029690960160205260409095205494959350505050565b5f8181526002830160205260408120819055610ca7838361230b565b61200c82612316565b6040516001600160a01b038316907fbc7cd75a20ee27fd9adebab32041f755214dbc6bffa90cc0225b39da2e5c2d3b905f90a2805115612050576116398282612379565b610edb6123e2565b7f9016d09d72d40fdae2fd8ceac6b6234c7706214fd39c1cd1e609a0528c19930080546001600160a01b031981166001600160a01b03848116918217845560405192169182907f8be0079c531659141344cd1fd0a4f28419497f9722a3daafe3b4186f6b6457e0905f90a3505050565b5f6120d282611e1b565b90505f5b8181101561210757600283015f6120ed8584612300565b815260208101919091526040015f908120556001016120d6565b50610edb82612401565b5f600282600381111561212657612126612ce2565b6121309190612cf6565b60ff166001149050919050565b5f805f61214a868661240a565b91509150815f0361216e5783818161216457612164612b39565b0492505050610ca7565b818411612185576121856003851502601118612426565b5f848688095f868103871696879004966002600389028118808a02820302808a02820302808a02820302808a02820302808a02820302808a02909103029181900381900460010185841190960395909502919093039390930492909217029150509392505050565b5f610ca78383612437565b5f610ca7838361244e565b5f61086a825490565b5f6122156116dd565b54600160401b900460ff16919050565b61222d611e25565b5f80516020612e548339815191527f52c63247e1f47db19d5ce0460030c497f067ca4cebf71ba98eeadabe20bace036122668482612d5b565b50600481016118a58382612d5b565b61227d611e25565b7f0773e532dfede91f04b12a73d3d2acd361424f41f76b4fb79f090161e36b4e005f806122a98461249a565b91509150816122b95760126122bb565b805b83546001600160a81b031916600160a01b60ff92909216919091026001600160a01b031916176001600160a01b0394909416939093179091555050565b6119a8611e25565b5f610ca78383612570565b5f610ca78383612596565b806001600160a01b03163b5f0361234b57604051634c9c8ce360e01b81526001600160a01b03821660048201526024016108c3565b5f80516020612e7483398151915280546001600160a01b0319166001600160a01b0392909216919091179055565b60605f80846001600160a01b0316846040516123959190612e16565b5f60405180830381855af49150503d805f81146123cd576040519150601f19603f3d011682016040523d82523d5f602084013e6123d2565b606091505b5091509150611dbe858383612679565b3415610e7f5760405163b398979f60e01b815260040160405180910390fd5b611092816126d5565b5f805f1983850993909202808410938190039390930393915050565b634e487b715f52806020526024601cfd5b5f8181526001830160205260408120541515610ca7565b5f81815260018301602052604081205461249357508154600181810184555f84815260208082209093018490558454848252828601909352604090209190915561086a565b505f61086a565b60408051600481526024810182526020810180516001600160e01b031663313ce56760e01b17905290515f918291829182916001600160a01b038716916124e091612e16565b5f60405180830381855afa9150503d805f8114612518576040519150601f19603f3d011682016040523d82523d5f602084013e61251d565b606091505b509150915081801561253157506020815110155b15612564575f8180602001905181019061254b9190612ccb565b905060ff8111612562576001969095509350505050565b505b505f9485945092505050565b5f825f01828154811061258557612585612bc6565b905f5260205f200154905092915050565b5f8181526001830160205260408120548015612670575f6125b8600183612e2c565b85549091505f906125cb90600190612e2c565b905080821461262a575f865f0182815481106125e9576125e9612bc6565b905f5260205f200154905080875f01848154811061260957612609612bc6565b5f918252602080832090910192909255918252600188019052604090208390555b855486908061263b5761263b612e3f565b600190038181905f5260205f20015f90559055856001015f8681526020019081526020015f205f90556001935050505061086a565b5f91505061086a565b60608261268e576126898261272e565b610ca7565b81511580156126a557506001600160a01b0384163b155b156126ce57604051639996b31560e01b81526001600160a01b03851660048201526024016108c3565b5080610ca7565b5f6126de825490565b90505f5b8181101561272757826001015f845f01838154811061270357612703612bc6565b905f5260205f20015481526020019081526020015f205f90558060010190506126e2565b50505f9055565b80511561273e5780518082602001fd5b60405163d6bda27560e01b815260040160405180910390fd5b602081525f82518060208401528060208501604085015e5f604082850101526040601f19601f83011684010191505092915050565b5f6020828403121561279c575f80fd5b5035919050565b6001600160a01b0381168114611092575f80fd5b5f80604083850312156127c8575f80fd5b82356127d3816127a3565b946020939093013593505050565b634e487b7160e01b5f52604160045260245ffd5b5f8067ffffffffffffffff84111561280f5761280f6127e1565b50604051601f19601f85018116603f0116810181811067ffffffffffffffff8211171561283e5761283e6127e1565b604052838152905080828401851015612855575f80fd5b838360208301375f60208583010152509392505050565b5f82601f83011261287b575f80fd5b610ca7838335602085016127f5565b5f805f806080858703121561289d575f80fd5b84356128a8816127a3565b935060208501356128b8816127a3565b9250604085013567ffffffffffffffff8111156128d3575f80fd5b6128df8782880161286c565b925050606085013567ffffffffffffffff8111156128fb575f80fd5b6129078782880161286c565b91505092959194509250565b5f805f60608486031215612925575f80fd5b8335612930816127a3565b92506020840135612940816127a3565b929592945050506040919091013590565b5f60208284031215612961575f80fd5b8135610ca7816127a3565b5f806040838503121561297d575f80fd5b8235612988816127a3565b9150602083013567ffffffffffffffff8111156129a3575f80fd5b8301601f810185136129b3575f80fd5b6129c2858235602084016127f5565b9150509250929050565b5f80604083850312156129dd575f80fd5b8235915060208301356129ef816127a3565b809150509250929050565b5f8060208385031215612a0b575f80fd5b823567ffffffffffffffff811115612a21575f80fd5b8301601f81018513612a31575f80fd5b803567ffffffffffffffff811115612a47575f80fd5b8560208260061b8401011115612a5b575f80fd5b6020919091019590945092505050565b5f805f60608486031215612a7d575f80fd5b833592506020840135612a8f816127a3565b91506040840135612a9f816127a3565b809150509250925092565b5f8060408385031215612abb575f80fd5b8235612ac6816127a3565b915060208301356129ef816127a3565b600181811c90821680612aea57607f821691505b602082108103612b0857634e487b7160e01b5f52602260045260245ffd5b50919050565b634e487b7160e01b5f52601160045260245ffd5b808202811582820484141761086a5761086a612b0e565b634e487b7160e01b5f52601260045260245ffd5b5f82612b5b57612b5b612b39565b500490565b8082018082111561086a5761086a612b0e565b5f60208284031215612b83575f80fd5b81518015158114610ca7575f80fd5b5f60208284031215612ba2575f80fd5b8151610ca7816127a3565b60ff818116838216019081111561086a5761086a612b0e565b634e487b7160e01b5f52603260045260245ffd5b6001815b6001841115612c1557808504811115612bf957612bf9612b0e565b6001841615612c0757908102905b60019390931c928002612bde565b935093915050565b5f82612c2b5750600161086a565b81612c3757505f61086a565b8160018114612c4d5760028114612c5757612c73565b600191505061086a565b60ff841115612c6857612c68612b0e565b50506001821b61086a565b5060208310610133831016604e8410600b8410161715612c96575081810a61086a565b612ca25f198484612bda565b805f1904821115612cb557612cb5612b0e565b029392505050565b5f610ca760ff841683612c1d565b5f60208284031215612cdb575f80fd5b5051919050565b634e487b7160e01b5f52602160045260245ffd5b5f60ff831680612d0857612d08612b39565b8060ff84160691505092915050565b601f82111561163957805f5260205f20601f840160051c81016020851015612d3c5750805b601f840160051c820191505b81811015611d75575f8155600101612d48565b815167ffffffffffffffff811115612d7557612d756127e1565b612d8981612d838454612ad6565b84612d17565b6020601f821160018114612dbb575f8315612da45750848201515b5f19600385901b1c1916600184901b178455611d75565b5f84815260208120601f198516915b82811015612dea5787850151825560209485019460019092019101612dca565b5084821015612e0757868401515f19600387901b60f8161c191681555b50505050600190811b01905550565b5f82518060208501845e5f920191825250919050565b8181038181111561086a5761086a612b0e565b634e487b7160e01b5f52603160045260245ffdfe52c63247e1f47db19d5ce0460030c497f067ca4cebf71ba98eeadabe20bace00360894a13ba1a3210667c828492db98dca3e2076cc3735a920a3ca505d382bbca26469706673582212205845e23235beebd3225a8aca45e227f99736c541c24af5de5fa2a99dda2a5ac964736f6c634300081a0033",
  "linkReferences": {},
  "deployedLinkReferences": {}
}