{
  "_format": "hh-sol-artifact-1",
  "contractName": "VaultImplementations",
  "sourceName": "contracts/helpers/VaultImplementations.sol",
  "abi": [
    {
      "inputs": [],
      "stateMutability": "nonpayable",
      "type": "constructor"
    },
    {
      "inputs": [],
      "name": "encryptedVaultImplementation",
      "outputs": [
        {
          "internalType": "address",
          "name": "",
          "type": "address"
        }
      ],
      "stateMutability": "view",
      "type": "function"
    },
    {
      "inputs": [],
      "name": "transparentVaultImplementation",
      "outputs": [
        {
          "internalType": "address",
          "name": "",
          "type": "address"
        }
      ],
      "stateMutability": "view",
      "type": "function"
    }
  ],
  "bytecode": "0x60c0604052348015600e575f80fd5b506040516019906071565b604051809103905ff0801580156031573d5f803e3d5ffd5b506001600160a01b0316608052604051604890607e565b604051809103905ff0801580156060573d5f803e3d5ffd5b506001600160a01b031660a052608b565b6131d28061017a83390190565b6130b08061334c83390190565b60805160a05160d26100a85f395f607a01525f6038015260d25ff3fe6080604052348015600e575f80fd5b50600436106030575f3560e01c806310e43b2d1460345780639c6aac95146076575b5f80fd5b605a7f000000000000000000000000000000000000000000000000000000000000000081565b6040516001600160a01b03909116815260200160405180910390f35b605a7f00000000000000000000000000000000000000000000000000000000000000008156fea2646970667358221220bc2fd4bce9185b8b158fafec5fd18ad9aa8644e72e0967794c50809eccea471c64736f6c634300081a003360a0604052306080523480156012575f80fd5b506080516131996100395f395f8181611dff01528181611e280152611f8a01526131995ff3fe608060405260043610610280575f3560e01c806379ba509711610155578063c63d75b6116100be578063dd62ed3e11610078578063dd62ed3e146106f6578063e30c397814610715578063e66f53b714610729578063ef8b30f714610666578063f2fde38b14610748578063fb12251b14610767575f80fd5b8063c63d75b61461044c578063c6e6f59214610666578063ce96cb7714610685578063d1699c26146106a4578063d5f39488146106b8578063d905777e146106d7575f80fd5b8063aa9d3a601161010f578063aa9d3a60146105b1578063ad3cb1cc146105c5578063b3d7f6b9146105f5578063b460af9414610614578063ba08765214610633578063c37fc8a814610652575f80fd5b806379ba50971461054157806387269729146105555780638da5cb5b1461056a57806394bf804d146104b257806395d89b411461057e578063a9059cbb14610592575f80fd5b806333fdc592116101f757806352d1902d116101b157806352d1902d1461049e5780636e553f65146104b257806370a08231146104d1578063715018a6146104f0578063745400c91461050457806379502c5514610523575f80fd5b806333fdc5921461040c57806338d52e0f14610420578063402d267d1461044c5780634368eb1c1461046c5780634cdad506146102c85780634f1ef2861461048b575f80fd5b80630d1e6667116102485780630d1e66671461033557806318160ddd146103565780632016a0d21461038957806323b872dd146103a8578063313ce567146103c7578063329f0123146103ed575f80fd5b806301e1d1141461028457806306fdde03146102a757806307a2d13a146102c8578063095ea7b3146102e75780630a28a47714610316575b5f80fd5b34801561028f575f80fd5b506004545b6040519081526020015b60405180910390f35b3480156102b2575f80fd5b506102bb610786565b60405161029e91906129b5565b3480156102d3575f80fd5b506102946102e23660046129ea565b610846565b3480156102f2575f80fd5b50610306610301366004612a15565b610857565b604051901515815260200161029e565b348015610321575f80fd5b506102946103303660046129ea565b61086e565b348015610340575f80fd5b5061035461034f3660046129ea565b61087a565b005b348015610361575f80fd5b507f52c63247e1f47db19d5ce0460030c497f067ca4cebf71ba98eeadabe20bace0254610294565b348015610394575f80fd5b506103546103a3366004612a84565b610a33565b3480156103b3575f80fd5b506103066103c2366004612b18565b610b9b565b3480156103d2575f80fd5b506103db610bc0565b60405160ff909116815260200161029e565b3480156103f8575f80fd5b50610354610407366004612b56565b610c02565b348015610417575f80fd5b50610354610d0c565b34801561042b575f80fd5b50610434610e95565b6040516001600160a01b03909116815260200161029e565b348015610457575f80fd5b50610294610466366004612b76565b505f1990565b348015610477575f80fd5b506103546104863660046129ea565b610ec9565b610354610499366004612ba5565b611021565b3480156104a9575f80fd5b50610294611040565b3480156104bd575f80fd5b506102946104cc366004612c6b565b61105b565b3480156104dc575f80fd5b506102946104eb366004612b76565b611075565b3480156104fb575f80fd5b5061035461109b565b34801561050f575f80fd5b5061035461051e3660046129ea565b6110ac565b34801561052e575f80fd5b505f54610434906001600160a01b031681565b34801561054c575f80fd5b506103546111c2565b348015610560575f80fd5b5061029460035481565b348015610575575f80fd5b50610434611207565b348015610589575f80fd5b506102bb61122f565b34801561059d575f80fd5b506103066105ac366004612a15565b61126d565b3480156105bc575f80fd5b5061035461127a565b3480156105d0575f80fd5b506102bb604051806040016040528060058152602001640352e302e360dc1b81525081565b348015610600575f80fd5b5061029461060f3660046129ea565b61146b565b34801561061f575f80fd5b5061029461062e366004612c99565b611477565b34801561063e575f80fd5b5061029461064d366004612c99565b611490565b34801561065d575f80fd5b506102946114aa565b348015610671575f80fd5b506102946106803660046129ea565b611511565b348015610690575f80fd5b5061029461069f366004612b76565b61151c565b3480156106af575f80fd5b5061029461152f565b3480156106c3575f80fd5b50600254610434906001600160a01b031681565b3480156106e2575f80fd5b506102946106f1366004612b76565b61158e565b348015610701575f80fd5b50610294610710366004612cd8565b611598565b348015610720575f80fd5b506104346115e1565b348015610734575f80fd5b50600154610434906001600160a01b031681565b348015610753575f80fd5b50610354610762366004612b76565b611609565b348015610772575f80fd5b50610354610781366004612d04565b61168e565b7f52c63247e1f47db19d5ce0460030c497f067ca4cebf71ba98eeadabe20bace0380546060915f80516020613104833981519152916107c490612d75565b80601f01602080910402602001604051908101604052809291908181526020018280546107f090612d75565b801561083b5780601f106108125761010080835404028352916020019161083b565b820191905f5260205f20905b81548152906001019060200180831161081e57829003601f168201915b505050505091505090565b5f610851825f61193e565b92915050565b5f33610864818585611a19565b5060019392505050565b5f610851826001611a2b565b610882611af3565b805f036108bb57610891610e95565b604051636b30633560e01b81526001600160a01b0390911660048201526024015b60405180910390fd5b335f90815260056020526040812054900361091257600780546001810182555f919091527fa66cc928b5edb82af9bd49922954155ab7b0942694bea4ce44661d9a8736c6880180546001600160a01b031916331790555b335f9081526005602052604081208054839290610930908490612dc1565b909155505f905061093f610e95565b6040516323b872dd60e01b8152336004820152306024820152604481018490526001600160a01b0391909116906323b872dd906064016020604051808303815f875af1158015610991573d5f803e3d5ffd5b505050506040513d601f19601f820116820180604052508101906109b59190612dd4565b9050806109d5576040516312171d8360e31b815260040160405180910390fd5b60075460405133917f03979a8c481a9e9c06938045cfd5c28535255cb003b10a8fe84ebb3cb4d440f291610a1191868252602082015260400190565b60405180910390a250610a3060015f8051602061314483398151915255565b50565b5f610a3c611b3d565b805490915060ff600160401b820416159067ffffffffffffffff165f81158015610a635750825b90505f8267ffffffffffffffff166001148015610a7f5750303b155b905081158015610a8d575080155b15610aab5760405163f92ee8a960e01b815260040160405180910390fd5b845467ffffffffffffffff191660011785558315610ad557845460ff60401b1916600160401b1785555b610b488b8b8b8b8080601f0160208091040260200160405190810160405280939291908181526020018383808284375f9201919091525050604080516020601f8f018190048102820181019092528d815292508d91508c90819084018382808284375f92019190915250611b6592505050565b8315610b8e57845460ff60401b19168555604051600181527fc7f505b2f371ae2175ee4913f4499e1f2633a7b5936321eed1cdaeb6115181d29060200160405180910390a15b5050505050505050505050565b5f33610ba8858285611cff565b610bb3858585611d63565b60019150505b9392505050565b5f807f0773e532dfede91f04b12a73d3d2acd361424f41f76b4fb79f090161e36b4e0090505f8154610bfc9190600160a01b900460ff16612df3565b91505090565b5f8054906101000a90046001600160a01b03166001600160a01b031663348ec5c86040518163ffffffff1660e01b8152600401602060405180830381865afa158015610c50573d5f803e3d5ffd5b505050506040513d601f19601f82011682018060405250810190610c749190612e0c565b6001600160a01b0316336001600160a01b031614610ca55760405163efb380d960e01b815260040160405180910390fd5b815f03610cc557604051634dfba02360e01b815260040160405180910390fd5b6003829055600481905560408051838152602081018390527f420468cf8110435de2f48db96f01d6a65a842cb7ac5852c11fcbac8dc93b46b3910160405180910390a15050565b5f8054906101000a90046001600160a01b03166001600160a01b0316633a0dad8e6040518163ffffffff1660e01b8152600401602060405180830381865afa158015610d5a573d5f803e3d5ffd5b505050506040513d601f19601f82011682018060405250810190610d7e9190612e0c565b6001600160a01b0316336001600160a01b031614610daf57604051631af2ab4f60e31b815260040160405180910390fd5b610db7611af3565b6007545f5b81811015610e7b575f60078281548110610dd857610dd8612e27565b5f9182526020808320909101546001600160a01b03168083526005909152604082205490925090610e0882611511565b6001600160a01b0384165f908152600560205260408120559050610e2c8382611dc0565b60408051838152602081018690526001600160a01b038516917f782ea2005b7f873a0190a1ccb553c732171348d6e16d2b7d3d493c0677dc296e910160405180910390a2505050600101610dbc565b5050610e9360015f8051602061314483398151915255565b565b5f807f0773e532dfede91f04b12a73d3d2acd361424f41f76b4fb79f090161e36b4e005b546001600160a01b031692915050565b610ed1611af3565b805f03610ee057610891610e95565b335f90815260056020526040902054811115610f0f576040516332194fd360e21b815260040160405180910390fd5b335f9081526005602052604081208054839290610f2d908490612e3b565b90915550506007545f610f3e610e95565b60405163a9059cbb60e01b8152336004820152602481018590526001600160a01b03919091169063a9059cbb906044016020604051808303815f875af1158015610f8a573d5f803e3d5ffd5b505050506040513d601f19601f82011682018060405250810190610fae9190612dd4565b905080610fce576040516312171d8360e31b815260040160405180910390fd5b604080518481526020810184905233917f3c121205405bd3a6cc45661cccddd03e333ae4ef37be94cfa3880f6d616a20c8910160405180910390a25050610a3060015f8051602061314483398151915255565b611029611df4565b61103282611e98565b61103c8282611ec3565b5050565b5f611049611f7f565b505f8051602061312483398151915290565b5f6040516318f2e47360e11b815260040160405180910390fd5b6001600160a01b03165f9081525f80516020613104833981519152602052604090205490565b6110a3611fc8565b610e935f611ffa565b805f036110cc576040516314e6cbb960e11b815260040160405180910390fd5b806110d633611075565b10156110f557604051633c57b48560e21b815260040160405180910390fd5b335f90815260066020526040812054900361114c57600880546001810182555f919091527ff3f7a9fe364faab93b216da50a3214154f22a0a2b415b23a84c8169e8b636ee30180546001600160a01b031916331790555b335f908152600660205260408120805483929061116a908490612dc1565b9091555061117b9050333083611d63565b60085460405133917fd72eb5d043f24a0168ae744d5c44f9596fd673a26bf74d9646bff4b844882d14916111b791858252602082015260400190565b60405180910390a250565b33806111cc6115e1565b6001600160a01b0316146111fe5760405163118cdaa760e01b81526001600160a01b03821660048201526024016108b2565b610a3081611ffa565b5f807f9016d09d72d40fdae2fd8ceac6b6234c7706214fd39c1cd1e609a0528c199300610eb9565b7f52c63247e1f47db19d5ce0460030c497f067ca4cebf71ba98eeadabe20bace0480546060915f80516020613104833981519152916107c490612d75565b5f33610864818585611d63565b5f8054906101000a90046001600160a01b03166001600160a01b0316633a0dad8e6040518163ffffffff1660e01b8152600401602060405180830381865afa1580156112c8573d5f803e3d5ffd5b505050506040513d601f19601f820116820180604052508101906112ec9190612e0c565b6001600160a01b0316336001600160a01b03161461131d57604051631af2ab4f60e31b815260040160405180910390fd5b611325611af3565b6008545f5b81811015610e7b575f6008828154811061134657611346612e27565b5f9182526020808320909101546001600160a01b0316808352600690915260408220805492905591506113793082612032565b5f61138382610846565b905061138d610e95565b60405163a9059cbb60e01b81526001600160a01b03858116600483015260248201849052919091169063a9059cbb906044016020604051808303815f875af11580156113db573d5f803e3d5ffd5b505050506040513d601f19601f820116820180604052508101906113ff9190612dd4565b61141c576040516312171d8360e31b815260040160405180910390fd5b60408051838152602081018690526001600160a01b038516917febad37b830b1857ef9af5983fc20dc0ded12dc472ba1e22e06fd3a9465b4506c910160405180910390a250505060010161132a565b5f61085182600161193e565b5f604051628a595160e01b815260040160405180910390fd5b5f604051630ad8521960e31b815260040160405180910390fd5b6008545f908190815b818110156115095760065f600883815481106114d1576114d1612e27565b5f9182526020808320909101546001600160a01b031683528201929092526040019020546114ff9084612dc1565b92506001016114b3565b509092915050565b5f610851825f611a2b565b5f61085161152983611075565b5f61193e565b6007545f908190815b818110156115095760055f6007838154811061155657611556612e27565b5f9182526020808320909101546001600160a01b031683528201929092526040019020546115849084612dc1565b9250600101611538565b5f61085182611075565b6001600160a01b039182165f9081527f52c63247e1f47db19d5ce0460030c497f067ca4cebf71ba98eeadabe20bace016020908152604080832093909416825291909152205490565b5f807f237e158222e3e6968b72b9db0d8043aacf074ad9f650f0d1606b4d82ee432c00610eb9565b611611611fc8565b7f237e158222e3e6968b72b9db0d8043aacf074ad9f650f0d1606b4d82ee432c0080546001600160a01b0319166001600160a01b0383169081178255611655611207565b6001600160a01b03167f38d16b8cac22d99fc7c124b9cd0de2d3fa1faef420bfe791d8c362d765e2270060405160405180910390a35050565b6001546001600160a01b031633146116b9576040516356b381a560e01b815260040160405180910390fd5b5f8190036116da57604051631121aa8d60e01b815260040160405180910390fd5b6116e46009612066565b5f805b8281101561186d575f84848381811061170257611702612e27565b6117189260206040909202019081019150612b76565b90505f85858481811061172d5761172d612e27565b90506040020160200160208101906117459190612e4e565b5f54604051633af32abf60e01b81526001600160a01b038581166004830152929350911690633af32abf90602401602060405180830381865afa15801561178e573d5f803e3d5ffd5b505050506040513d601f19601f820116820180604052508101906117b29190612dd4565b6117da5760405163751dff9760e11b81526001600160a01b03831660048201526024016108b2565b8063ffffffff165f0361180b57604051636b30633560e01b81526001600160a01b03831660048201526024016108b2565b5f61182160098463ffffffff8086169061206f16565b90508061184c576040516346bdabe160e01b81526001600160a01b03841660048201526024016108b2565b61185c63ffffffff831686612dc1565b945050600190920191506116e79050565b505f805f9054906101000a90046001600160a01b03166001600160a01b031663d1717c7d6040518163ffffffff1660e01b8152600401602060405180830381865afa1580156118be573d5f803e3d5ffd5b505050506040513d601f19601f820116820180604052508101906118e29190612e71565b90506118ef81600a612f74565b821461190e576040516324204a3560e21b815260040160405180910390fd5b60405133907f2d47a742b8d7df7c1fc5a9a631b206b364e6cb2722490759f63bb3ab14b132e0905f90a250505050565b5f806119687f52c63247e1f47db19d5ce0460030c497f067ca4cebf71ba98eeadabe20bace025490565b90505f805f9054906101000a90046001600160a01b03166001600160a01b031663b71ee4fc6040518163ffffffff1660e01b8152600401602060405180830381865afa1580156119ba573d5f803e3d5ffd5b505050506040513d601f19601f820116820180604052508101906119de9190612e71565b9050611a1060045460016119f29190612dc1565b6119fd83600a612f74565b611a079085612dc1565b8791908761208c565b95945050505050565b611a2683838360016120ce565b505050565b5f80611a557f52c63247e1f47db19d5ce0460030c497f067ca4cebf71ba98eeadabe20bace025490565b90505f805f9054906101000a90046001600160a01b03166001600160a01b031663b71ee4fc6040518163ffffffff1660e01b8152600401602060405180830381865afa158015611aa7573d5f803e3d5ffd5b505050506040513d601f19601f82011682018060405250810190611acb9190612e71565b9050611a10611adb82600a612f74565b611ae59084612dc1565b600454611a07906001612dc1565b5f80516020613144833981519152805460011901611b2457604051633ee5aeb560e01b815260040160405180910390fd5b60029055565b60015f8051602061314483398151915255565b5f807ff0c57e16840df040f15088dc2f81fe391c3923bec73e23a9662efc9c229c6a00610851565b611b6d6121b2565b6001600160a01b038416611b9457604051639c6bb9f560e01b815260040160405180910390fd5b6001600160a01b038316611bbb57604051636a485a5b60e11b815260040160405180910390fd5b611bc582826121d7565b611c2d836001600160a01b0316637158da7c6040518163ffffffff1660e01b8152600401602060405180830381865afa158015611c04573d5f803e3d5ffd5b505050506040513d601f19601f82011682018060405250810190611c289190612e0c565b6121e9565b611c356121fa565b611c3d61220a565b611c4561220a565b611c4e84611ffa565b60028054336001600160a01b0319918216179091556001805482166001600160a01b03878116919091179091555f805490921690851690811790915560408051632dc7b93f60e21b8152905163b71ee4fc916004808201926020929091908290030181865afa158015611cc3573d5f803e3d5ffd5b505050506040513d601f19601f82011682018060405250810190611ce79190612e71565b611cf290600a612f74565b60035550505f6004555050565b5f611d0a8484611598565b90505f19811015611d5d5781811015611d4f57604051637dc7a0d960e11b81526001600160a01b038416600482015260248101829052604481018390526064016108b2565b611d5d84848484035f6120ce565b50505050565b6001600160a01b038316611d8c57604051634b637e8f60e11b81525f60048201526024016108b2565b6001600160a01b038216611db55760405163ec442f0560e01b81525f60048201526024016108b2565b611a26838383612212565b6001600160a01b038216611de95760405163ec442f0560e01b81525f60048201526024016108b2565b61103c5f8383612212565b306001600160a01b037f0000000000000000000000000000000000000000000000000000000000000000161480611e7a57507f00000000000000000000000000000000000000000000000000000000000000006001600160a01b0316611e6e5f80516020613124833981519152546001600160a01b031690565b6001600160a01b031614155b15610e935760405163703e46dd60e11b815260040160405180910390fd5b6001546001600160a01b03163314610a30576040516356b381a560e01b815260040160405180910390fd5b816001600160a01b03166352d1902d6040518163ffffffff1660e01b8152600401602060405180830381865afa925050508015611f1d575060408051601f3d908101601f19168201909252611f1a91810190612f82565b60015b611f4557604051634c9c8ce360e01b81526001600160a01b03831660048201526024016108b2565b5f805160206131248339815191528114611f7557604051632a87526960e21b8152600481018290526024016108b2565b611a26838361234b565b306001600160a01b037f00000000000000000000000000000000000000000000000000000000000000001614610e935760405163703e46dd60e11b815260040160405180910390fd5b33611fd1611207565b6001600160a01b031614610e935760405163118cdaa760e01b81523360048201526024016108b2565b7f237e158222e3e6968b72b9db0d8043aacf074ad9f650f0d1606b4d82ee432c0080546001600160a01b031916815561103c826123a0565b6001600160a01b03821661205b57604051634b637e8f60e11b81525f60048201526024016108b2565b61103c825f83612212565b610a3081612410565b5f612084846001600160a01b03851684612459565b949350505050565b5f6120b961209983612475565b80156120b457505f84806120af576120af612f99565b868809115b151590565b6120c48686866124a1565b611a109190612dc1565b5f805160206131048339815191526001600160a01b0385166121055760405163e602df0560e01b81525f60048201526024016108b2565b6001600160a01b03841661212e57604051634a1406b160e11b81525f60048201526024016108b2565b6001600160a01b038086165f908152600183016020908152604080832093881683529290522083905581156121ab57836001600160a01b0316856001600160a01b03167f8c5be1e5ebec7d5bd14f71427d1e84f3dd0314c0f7b2291e5b200ac8c7c3b925856040516121a291815260200190565b60405180910390a35b5050505050565b6121ba612551565b610e9357604051631afcd79f60e31b815260040160405180910390fd5b6121df6121b2565b61103c828261256a565b6121f16121b2565b610a30816125ba565b6122026121b2565b610e9361263d565b610e936121b2565b5f805160206131048339815191526001600160a01b03841661224c5781816002015f8282546122419190612dc1565b909155506122bc9050565b6001600160a01b0384165f908152602082905260409020548281101561229e5760405163391434e360e21b81526001600160a01b038616600482015260248101829052604481018490526064016108b2565b6001600160a01b0385165f9081526020839052604090209083900390555b6001600160a01b0383166122da5760028101805483900390556122f8565b6001600160a01b0383165f9081526020829052604090208054830190555b826001600160a01b0316846001600160a01b03167fddf252ad1be2c89b69c2b068fc378daa952ba7f163c4a11628f55a4df523b3ef8460405161233d91815260200190565b60405180910390a350505050565b61235482612645565b6040516001600160a01b038316907fbc7cd75a20ee27fd9adebab32041f755214dbc6bffa90cc0225b39da2e5c2d3b905f90a280511561239857611a2682826126a8565b61103c612711565b7f9016d09d72d40fdae2fd8ceac6b6234c7706214fd39c1cd1e609a0528c19930080546001600160a01b031981166001600160a01b03848116918217845560405192169182907f8be0079c531659141344cd1fd0a4f28419497f9722a3daafe3b4186f6b6457e0905f90a3505050565b5f61241a82612730565b90505f5b8181101561244f57600283015f612435858461273a565b815260208101919091526040015f9081205560010161241e565b5061103c82612745565b5f8281526002840160205260408120829055612084848461274e565b5f600282600381111561248a5761248a612fad565b6124949190612fc1565b60ff166001149050919050565b5f805f6124ae8686612759565b91509150815f036124d2578381816124c8576124c8612f99565b0492505050610bb9565b8184116124e9576124e96003851502601118612775565b5f848688095f868103871696879004966002600389028118808a02820302808a02820302808a02820302808a02820302808a02820302808a02909103029181900381900460010185841190960395909502919093039390930492909217029150509392505050565b5f61255a611b3d565b54600160401b900460ff16919050565b6125726121b2565b5f805160206131048339815191527f52c63247e1f47db19d5ce0460030c497f067ca4cebf71ba98eeadabe20bace036125ab8482613032565b5060048101611d5d8382613032565b6125c26121b2565b7f0773e532dfede91f04b12a73d3d2acd361424f41f76b4fb79f090161e36b4e005f806125ee84612786565b91509150816125fe576012612600565b805b83546001600160a81b031916600160a01b60ff92909216919091026001600160a01b031916176001600160a01b0394909416939093179091555050565b611b2a6121b2565b806001600160a01b03163b5f0361267a57604051634c9c8ce360e01b81526001600160a01b03821660048201526024016108b2565b5f8051602061312483398151915280546001600160a01b0319166001600160a01b0392909216919091179055565b60605f80846001600160a01b0316846040516126c491906130ed565b5f60405180830381855af49150503d805f81146126fc576040519150601f19603f3d011682016040523d82523d5f602084013e612701565b606091505b5091509150611a1085838361285c565b3415610e935760405163b398979f60e01b815260040160405180910390fd5b5f610851826128b8565b5f610bb983836128c1565b610a30816128e7565b5f610bb98383612940565b5f805f1983850993909202808410938190039390930393915050565b634e487b715f52806020526024601cfd5b60408051600481526024810182526020810180516001600160e01b031663313ce56760e01b17905290515f918291829182916001600160a01b038716916127cc916130ed565b5f60405180830381855afa9150503d805f8114612804576040519150601f19603f3d011682016040523d82523d5f602084013e612809565b606091505b509150915081801561281d57506020815110155b15612850575f818060200190518101906128379190612f82565b905060ff811161284e576001969095509350505050565b505b505f9485945092505050565b6060826128715761286c8261298c565b610bb9565b815115801561288857506001600160a01b0384163b155b156128b157604051639996b31560e01b81526001600160a01b03851660048201526024016108b2565b5080610bb9565b5f610851825490565b5f825f0182815481106128d6576128d6612e27565b905f5260205f200154905092915050565b5f6128f0825490565b90505f5b8181101561293957826001015f845f01838154811061291557612915612e27565b905f5260205f20015481526020019081526020015f205f90558060010190506128f4565b50505f9055565b5f81815260018301602052604081205461298557508154600181810184555f848152602080822090930184905584548482528286019093526040902091909155610851565b505f610851565b80511561299c5780518082602001fd5b60405163d6bda27560e01b815260040160405180910390fd5b602081525f82518060208401528060208501604085015e5f604082850101526040601f19601f83011684010191505092915050565b5f602082840312156129fa575f80fd5b5035919050565b6001600160a01b0381168114610a30575f80fd5b5f8060408385031215612a26575f80fd5b8235612a3181612a01565b946020939093013593505050565b5f8083601f840112612a4f575f80fd5b50813567ffffffffffffffff811115612a66575f80fd5b602083019150836020828501011115612a7d575f80fd5b9250929050565b5f805f805f8060808789031215612a99575f80fd5b8635612aa481612a01565b95506020870135612ab481612a01565b9450604087013567ffffffffffffffff811115612acf575f80fd5b612adb89828a01612a3f565b909550935050606087013567ffffffffffffffff811115612afa575f80fd5b612b0689828a01612a3f565b979a9699509497509295939492505050565b5f805f60608486031215612b2a575f80fd5b8335612b3581612a01565b92506020840135612b4581612a01565b929592945050506040919091013590565b5f8060408385031215612b67575f80fd5b50508035926020909101359150565b5f60208284031215612b86575f80fd5b8135610bb981612a01565b634e487b7160e01b5f52604160045260245ffd5b5f8060408385031215612bb6575f80fd5b8235612bc181612a01565b9150602083013567ffffffffffffffff811115612bdc575f80fd5b8301601f81018513612bec575f80fd5b803567ffffffffffffffff811115612c0657612c06612b91565b604051601f8201601f19908116603f0116810167ffffffffffffffff81118282101715612c3557612c35612b91565b604052818152828201602001871015612c4c575f80fd5b816020840160208301375f602083830101528093505050509250929050565b5f8060408385031215612c7c575f80fd5b823591506020830135612c8e81612a01565b809150509250929050565b5f805f60608486031215612cab575f80fd5b833592506020840135612cbd81612a01565b91506040840135612ccd81612a01565b809150509250925092565b5f8060408385031215612ce9575f80fd5b8235612cf481612a01565b91506020830135612c8e81612a01565b5f8060208385031215612d15575f80fd5b823567ffffffffffffffff811115612d2b575f80fd5b8301601f81018513612d3b575f80fd5b803567ffffffffffffffff811115612d51575f80fd5b8560208260061b8401011115612d65575f80fd5b6020919091019590945092505050565b600181811c90821680612d8957607f821691505b602082108103612da757634e487b7160e01b5f52602260045260245ffd5b50919050565b634e487b7160e01b5f52601160045260245ffd5b8082018082111561085157610851612dad565b5f60208284031215612de4575f80fd5b81518015158114610bb9575f80fd5b60ff818116838216019081111561085157610851612dad565b5f60208284031215612e1c575f80fd5b8151610bb981612a01565b634e487b7160e01b5f52603260045260245ffd5b8181038181111561085157610851612dad565b5f60208284031215612e5e575f80fd5b813563ffffffff81168114610bb9575f80fd5b5f60208284031215612e81575f80fd5b815160ff81168114610bb9575f80fd5b6001815b6001841115612ecc57808504811115612eb057612eb0612dad565b6001841615612ebe57908102905b60019390931c928002612e95565b935093915050565b5f82612ee257506001610851565b81612eee57505f610851565b8160018114612f045760028114612f0e57612f2a565b6001915050610851565b60ff841115612f1f57612f1f612dad565b50506001821b610851565b5060208310610133831016604e8410600b8410161715612f4d575081810a610851565b612f595f198484612e91565b805f1904821115612f6c57612f6c612dad565b029392505050565b5f610bb960ff841683612ed4565b5f60208284031215612f92575f80fd5b5051919050565b634e487b7160e01b5f52601260045260245ffd5b634e487b7160e01b5f52602160045260245ffd5b5f60ff831680612fdf57634e487b7160e01b5f52601260045260245ffd5b8060ff84160691505092915050565b601f821115611a2657805f5260205f20601f840160051c810160208510156130135750805b601f840160051c820191505b818110156121ab575f815560010161301f565b815167ffffffffffffffff81111561304c5761304c612b91565b6130608161305a8454612d75565b84612fee565b6020601f821160018114613092575f831561307b5750848201515b5f19600385901b1c1916600184901b1784556121ab565b5f84815260208120601f198516915b828110156130c157878501518255602094850194600190920191016130a1565b50848210156130de57868401515f19600387901b60f8161c191681555b50505050600190811b01905550565b5f82518060208501845e5f92019182525091905056fe52c63247e1f47db19d5ce0460030c497f067ca4cebf71ba98eeadabe20bace00360894a13ba1a3210667c828492db98dca3e2076cc3735a920a3ca505d382bbc9b779b17422d0df92223018b32b4d1fa46e071723d6817e2486d003becc55f00a26469706673582212208c79dbe4107f4e882c786d0d5d0b858947892077e7699a62f3d6388a6138a43064736f6c634300081a003360a0604052306080523480156012575f80fd5b506080516130776100395f395f8181611d0001528181611d290152611e8b01526130775ff3fe608060405260043610610280575f3560e01c806379ba509711610155578063c37fc8a8116100be578063d905777e11610078578063d905777e146106f6578063dd62ed3e14610715578063e30c397814610734578063e66f53b714610748578063ef8b30f714610685578063f2fde38b14610767575f80fd5b8063c37fc8a814610671578063c63d75b61461044c578063c6e6f59214610685578063ce96cb77146106a4578063d1699c26146106c3578063d5f39488146106d7575f80fd5b8063a9059cbb1161010f578063a9059cbb146105b1578063aa9d3a60146105d0578063ad3cb1cc146105e4578063b3d7f6b914610614578063b460af9414610633578063ba08765214610652575f80fd5b806379ba50971461054157806387269729146105555780638da5cb5b1461056a57806394bf804d146104b257806395d89b411461057e5780639c055a6614610592575f80fd5b806333fdc592116101f757806352d1902d116101b157806352d1902d1461049e5780636e553f65146104b257806370a08231146104d1578063715018a6146104f0578063745400c91461050457806379502c5514610523575f80fd5b806333fdc5921461040c57806338d52e0f14610420578063402d267d1461044c5780634368eb1c1461046c5780634cdad506146102c85780634f1ef2861461048b575f80fd5b80630d1e6667116102485780630d1e66671461033557806318160ddd146103565780632016a0d21461038957806323b872dd146103a8578063313ce567146103c7578063329f0123146103ed575f80fd5b806301e1d1141461028457806306fdde03146102a757806307a2d13a146102c8578063095ea7b3146102e75780630a28a47714610316575b5f80fd5b34801561028f575f80fd5b506004545b6040519081526020015b60405180910390f35b3480156102b2575f80fd5b506102bb610786565b60405161029e91906128b6565b3480156102d3575f80fd5b506102946102e23660046128eb565b610846565b3480156102f2575f80fd5b50610306610301366004612916565b610857565b604051901515815260200161029e565b348015610321575f80fd5b506102946103303660046128eb565b61086e565b348015610340575f80fd5b5061035461034f3660046128eb565b61087a565b005b348015610361575f80fd5b507f52c63247e1f47db19d5ce0460030c497f067ca4cebf71ba98eeadabe20bace0254610294565b348015610394575f80fd5b506103546103a3366004612985565b610a33565b3480156103b3575f80fd5b506103066103c2366004612a19565b610b9b565b3480156103d2575f80fd5b506103db610bc0565b60405160ff909116815260200161029e565b3480156103f8575f80fd5b50610354610407366004612a57565b610c02565b348015610417575f80fd5b50610354610d0c565b34801561042b575f80fd5b50610434610e95565b6040516001600160a01b03909116815260200161029e565b348015610457575f80fd5b50610294610466366004612a77565b505f1990565b348015610477575f80fd5b506103546104863660046128eb565b610ec9565b610354610499366004612aa6565b611021565b3480156104a9575f80fd5b50610294611040565b3480156104bd575f80fd5b506102946104cc366004612b6c565b61105b565b3480156104dc575f80fd5b506102946104eb366004612a77565b611075565b3480156104fb575f80fd5b5061035461109b565b34801561050f575f80fd5b5061035461051e3660046128eb565b6110ac565b34801561052e575f80fd5b505f54610434906001600160a01b031681565b34801561054c575f80fd5b506103546111c2565b348015610560575f80fd5b5061029460035481565b348015610575575f80fd5b50610434611207565b348015610589575f80fd5b506102bb61122f565b34801561059d575f80fd5b506103546105ac366004612b9a565b61126d565b3480156105bc575f80fd5b506103066105cb366004612916565b61141e565b3480156105db575f80fd5b5061035461142b565b3480156105ef575f80fd5b506102bb604051806040016040528060058152602001640352e302e360dc1b81525081565b34801561061f575f80fd5b5061029461062e3660046128eb565b61161c565b34801561063e575f80fd5b5061029461064d366004612c0b565b611628565b34801561065d575f80fd5b5061029461066c366004612c0b565b611641565b34801561067c575f80fd5b5061029461165b565b348015610690575f80fd5b5061029461069f3660046128eb565b6116c2565b3480156106af575f80fd5b506102946106be366004612a77565b6116cd565b3480156106ce575f80fd5b506102946116e0565b3480156106e2575f80fd5b50600254610434906001600160a01b031681565b348015610701575f80fd5b50610294610710366004612a77565b61173f565b348015610720575f80fd5b5061029461072f366004612c4a565b611749565b34801561073f575f80fd5b50610434611792565b348015610753575f80fd5b50600154610434906001600160a01b031681565b348015610772575f80fd5b50610354610781366004612a77565b6117ba565b7f52c63247e1f47db19d5ce0460030c497f067ca4cebf71ba98eeadabe20bace0380546060915f80516020612fe2833981519152916107c490612c76565b80601f01602080910402602001604051908101604052809291908181526020018280546107f090612c76565b801561083b5780601f106108125761010080835404028352916020019161083b565b820191905f5260205f20905b81548152906001019060200180831161081e57829003601f168201915b505050505091505090565b5f610851825f61183f565b92915050565b5f3361086481858561191a565b5060019392505050565b5f61085182600161192c565b6108826119f4565b805f036108bb57610891610e95565b604051636b30633560e01b81526001600160a01b0390911660048201526024015b60405180910390fd5b335f90815260056020526040812054900361091257600780546001810182555f919091527fa66cc928b5edb82af9bd49922954155ab7b0942694bea4ce44661d9a8736c6880180546001600160a01b031916331790555b335f9081526005602052604081208054839290610930908490612cc2565b909155505f905061093f610e95565b6040516323b872dd60e01b8152336004820152306024820152604481018490526001600160a01b0391909116906323b872dd906064016020604051808303815f875af1158015610991573d5f803e3d5ffd5b505050506040513d601f19601f820116820180604052508101906109b59190612cd5565b9050806109d5576040516312171d8360e31b815260040160405180910390fd5b60075460405133917f03979a8c481a9e9c06938045cfd5c28535255cb003b10a8fe84ebb3cb4d440f291610a1191868252602082015260400190565b60405180910390a250610a3060015f8051602061302283398151915255565b50565b5f610a3c611a3e565b805490915060ff600160401b820416159067ffffffffffffffff165f81158015610a635750825b90505f8267ffffffffffffffff166001148015610a7f5750303b155b905081158015610a8d575080155b15610aab5760405163f92ee8a960e01b815260040160405180910390fd5b845467ffffffffffffffff191660011785558315610ad557845460ff60401b1916600160401b1785555b610b488b8b8b8b8080601f0160208091040260200160405190810160405280939291908181526020018383808284375f9201919091525050604080516020601f8f018190048102820181019092528d815292508d91508c90819084018382808284375f92019190915250611a6692505050565b8315610b8e57845460ff60401b19168555604051600181527fc7f505b2f371ae2175ee4913f4499e1f2633a7b5936321eed1cdaeb6115181d29060200160405180910390a15b5050505050505050505050565b5f33610ba8858285611c00565b610bb3858585611c64565b60019150505b9392505050565b5f807f0773e532dfede91f04b12a73d3d2acd361424f41f76b4fb79f090161e36b4e0090505f8154610bfc9190600160a01b900460ff16612cf4565b91505090565b5f8054906101000a90046001600160a01b03166001600160a01b031663348ec5c86040518163ffffffff1660e01b8152600401602060405180830381865afa158015610c50573d5f803e3d5ffd5b505050506040513d601f19601f82011682018060405250810190610c749190612d0d565b6001600160a01b0316336001600160a01b031614610ca55760405163efb380d960e01b815260040160405180910390fd5b815f03610cc557604051634dfba02360e01b815260040160405180910390fd5b6003829055600481905560408051838152602081018390527f420468cf8110435de2f48db96f01d6a65a842cb7ac5852c11fcbac8dc93b46b3910160405180910390a15050565b5f8054906101000a90046001600160a01b03166001600160a01b0316633a0dad8e6040518163ffffffff1660e01b8152600401602060405180830381865afa158015610d5a573d5f803e3d5ffd5b505050506040513d601f19601f82011682018060405250810190610d7e9190612d0d565b6001600160a01b0316336001600160a01b031614610daf57604051631af2ab4f60e31b815260040160405180910390fd5b610db76119f4565b6007545f5b81811015610e7b575f60078281548110610dd857610dd8612d28565b5f9182526020808320909101546001600160a01b03168083526005909152604082205490925090610e08826116c2565b6001600160a01b0384165f908152600560205260408120559050610e2c8382611cc1565b60408051838152602081018690526001600160a01b038516917f782ea2005b7f873a0190a1ccb553c732171348d6e16d2b7d3d493c0677dc296e910160405180910390a2505050600101610dbc565b5050610e9360015f8051602061302283398151915255565b565b5f807f0773e532dfede91f04b12a73d3d2acd361424f41f76b4fb79f090161e36b4e005b546001600160a01b031692915050565b610ed16119f4565b805f03610ee057610891610e95565b335f90815260056020526040902054811115610f0f576040516332194fd360e21b815260040160405180910390fd5b335f9081526005602052604081208054839290610f2d908490612d3c565b90915550506007545f610f3e610e95565b60405163a9059cbb60e01b8152336004820152602481018590526001600160a01b03919091169063a9059cbb906044016020604051808303815f875af1158015610f8a573d5f803e3d5ffd5b505050506040513d601f19601f82011682018060405250810190610fae9190612cd5565b905080610fce576040516312171d8360e31b815260040160405180910390fd5b604080518481526020810184905233917f3c121205405bd3a6cc45661cccddd03e333ae4ef37be94cfa3880f6d616a20c8910160405180910390a25050610a3060015f8051602061302283398151915255565b611029611cf5565b61103282611d99565b61103c8282611dc4565b5050565b5f611049611e80565b505f8051602061300283398151915290565b5f6040516318f2e47360e11b815260040160405180910390fd5b6001600160a01b03165f9081525f80516020612fe2833981519152602052604090205490565b6110a3611ec9565b610e935f611efb565b805f036110cc576040516314e6cbb960e11b815260040160405180910390fd5b806110d633611075565b10156110f557604051633c57b48560e21b815260040160405180910390fd5b335f90815260066020526040812054900361114c57600880546001810182555f919091527ff3f7a9fe364faab93b216da50a3214154f22a0a2b415b23a84c8169e8b636ee30180546001600160a01b031916331790555b335f908152600660205260408120805483929061116a908490612cc2565b9091555061117b9050333083611c64565b60085460405133917fd72eb5d043f24a0168ae744d5c44f9596fd673a26bf74d9646bff4b844882d14916111b791858252602082015260400190565b60405180910390a250565b33806111cc611792565b6001600160a01b0316146111fe5760405163118cdaa760e01b81526001600160a01b03821660048201526024016108b2565b610a3081611efb565b5f807f9016d09d72d40fdae2fd8ceac6b6234c7706214fd39c1cd1e609a0528c199300610eb9565b7f52c63247e1f47db19d5ce0460030c497f067ca4cebf71ba98eeadabe20bace0480546060915f80516020612fe2833981519152916107c490612c76565b6001546001600160a01b03163314611298576040516356b381a560e01b815260040160405180910390fd5b5f8190036112b957604051631121aa8d60e01b815260040160405180910390fd5b6112c36009611f33565b5f5b818110156113ef575f8383838181106112e0576112e0612d28565b6112f69260206040909202019081019150612a77565b90505f84848481811061130b5761130b612d28565b5f5460408051633af32abf60e01b81526001600160a01b03888116600483015260209290940295909501013594501691633af32abf9150602401602060405180830381865afa158015611360573d5f803e3d5ffd5b505050506040513d601f19601f820116820180604052508101906113849190612cd5565b6113ac5760405163751dff9760e11b81526001600160a01b03831660048201526024016108b2565b5f6113b960098484611f3c565b9050806113e4576040516346bdabe160e01b81526001600160a01b03841660048201526024016108b2565b5050506001016112c5565b5060405133907f2d47a742b8d7df7c1fc5a9a631b206b364e6cb2722490759f63bb3ab14b132e0905f90a25050565b5f33610864818585611c64565b5f8054906101000a90046001600160a01b03166001600160a01b0316633a0dad8e6040518163ffffffff1660e01b8152600401602060405180830381865afa158015611479573d5f803e3d5ffd5b505050506040513d601f19601f8201168201806040525081019061149d9190612d0d565b6001600160a01b0316336001600160a01b0316146114ce57604051631af2ab4f60e31b815260040160405180910390fd5b6114d66119f4565b6008545f5b81811015610e7b575f600882815481106114f7576114f7612d28565b5f9182526020808320909101546001600160a01b03168083526006909152604082208054929055915061152a3082611f59565b5f61153482610846565b905061153e610e95565b60405163a9059cbb60e01b81526001600160a01b03858116600483015260248201849052919091169063a9059cbb906044016020604051808303815f875af115801561158c573d5f803e3d5ffd5b505050506040513d601f19601f820116820180604052508101906115b09190612cd5565b6115cd576040516312171d8360e31b815260040160405180910390fd5b60408051838152602081018690526001600160a01b038516917febad37b830b1857ef9af5983fc20dc0ded12dc472ba1e22e06fd3a9465b4506c910160405180910390a25050506001016114db565b5f61085182600161183f565b5f604051628a595160e01b815260040160405180910390fd5b5f604051630ad8521960e31b815260040160405180910390fd5b6008545f908190815b818110156116ba5760065f6008838154811061168257611682612d28565b5f9182526020808320909101546001600160a01b031683528201929092526040019020546116b09084612cc2565b9250600101611664565b509092915050565b5f610851825f61192c565b5f6108516116da83611075565b5f61183f565b6007545f908190815b818110156116ba5760055f6007838154811061170757611707612d28565b5f9182526020808320909101546001600160a01b031683528201929092526040019020546117359084612cc2565b92506001016116e9565b5f61085182611075565b6001600160a01b039182165f9081527f52c63247e1f47db19d5ce0460030c497f067ca4cebf71ba98eeadabe20bace016020908152604080832093909416825291909152205490565b5f807f237e158222e3e6968b72b9db0d8043aacf074ad9f650f0d1606b4d82ee432c00610eb9565b6117c2611ec9565b7f237e158222e3e6968b72b9db0d8043aacf074ad9f650f0d1606b4d82ee432c0080546001600160a01b0319166001600160a01b0383169081178255611806611207565b6001600160a01b03167f38d16b8cac22d99fc7c124b9cd0de2d3fa1faef420bfe791d8c362d765e2270060405160405180910390a35050565b5f806118697f52c63247e1f47db19d5ce0460030c497f067ca4cebf71ba98eeadabe20bace025490565b90505f805f9054906101000a90046001600160a01b03166001600160a01b031663b71ee4fc6040518163ffffffff1660e01b8152600401602060405180830381865afa1580156118bb573d5f803e3d5ffd5b505050506040513d601f19601f820116820180604052508101906118df9190612d4f565b905061191160045460016118f39190612cc2565b6118fe83600a612e52565b6119089085612cc2565b87919087611f8d565b95945050505050565b6119278383836001611fcf565b505050565b5f806119567f52c63247e1f47db19d5ce0460030c497f067ca4cebf71ba98eeadabe20bace025490565b90505f805f9054906101000a90046001600160a01b03166001600160a01b031663b71ee4fc6040518163ffffffff1660e01b8152600401602060405180830381865afa1580156119a8573d5f803e3d5ffd5b505050506040513d601f19601f820116820180604052508101906119cc9190612d4f565b90506119116119dc82600a612e52565b6119e69084612cc2565b600454611908906001612cc2565b5f80516020613022833981519152805460011901611a2557604051633ee5aeb560e01b815260040160405180910390fd5b60029055565b60015f8051602061302283398151915255565b5f807ff0c57e16840df040f15088dc2f81fe391c3923bec73e23a9662efc9c229c6a00610851565b611a6e6120b3565b6001600160a01b038416611a9557604051639c6bb9f560e01b815260040160405180910390fd5b6001600160a01b038316611abc57604051636a485a5b60e11b815260040160405180910390fd5b611ac682826120d8565b611b2e836001600160a01b0316637158da7c6040518163ffffffff1660e01b8152600401602060405180830381865afa158015611b05573d5f803e3d5ffd5b505050506040513d601f19601f82011682018060405250810190611b299190612d0d565b6120ea565b611b366120fb565b611b3e61210b565b611b4661210b565b611b4f84611efb565b60028054336001600160a01b0319918216179091556001805482166001600160a01b03878116919091179091555f805490921690851690811790915560408051632dc7b93f60e21b8152905163b71ee4fc916004808201926020929091908290030181865afa158015611bc4573d5f803e3d5ffd5b505050506040513d601f19601f82011682018060405250810190611be89190612d4f565b611bf390600a612e52565b60035550505f6004555050565b5f611c0b8484611749565b90505f19811015611c5e5781811015611c5057604051637dc7a0d960e11b81526001600160a01b038416600482015260248101829052604481018390526064016108b2565b611c5e84848484035f611fcf565b50505050565b6001600160a01b038316611c8d57604051634b637e8f60e11b81525f60048201526024016108b2565b6001600160a01b038216611cb65760405163ec442f0560e01b81525f60048201526024016108b2565b611927838383612113565b6001600160a01b038216611cea5760405163ec442f0560e01b81525f60048201526024016108b2565b61103c5f8383612113565b306001600160a01b037f0000000000000000000000000000000000000000000000000000000000000000161480611d7b57507f00000000000000000000000000000000000000000000000000000000000000006001600160a01b0316611d6f5f80516020613002833981519152546001600160a01b031690565b6001600160a01b031614155b15610e935760405163703e46dd60e11b815260040160405180910390fd5b6001546001600160a01b03163314610a30576040516356b381a560e01b815260040160405180910390fd5b816001600160a01b03166352d1902d6040518163ffffffff1660e01b8152600401602060405180830381865afa925050508015611e1e575060408051601f3d908101601f19168201909252611e1b91810190612e60565b60015b611e4657604051634c9c8ce360e01b81526001600160a01b03831660048201526024016108b2565b5f805160206130028339815191528114611e7657604051632a87526960e21b8152600481018290526024016108b2565b611927838361224c565b306001600160a01b037f00000000000000000000000000000000000000000000000000000000000000001614610e935760405163703e46dd60e11b815260040160405180910390fd5b33611ed2611207565b6001600160a01b031614610e935760405163118cdaa760e01b81523360048201526024016108b2565b7f237e158222e3e6968b72b9db0d8043aacf074ad9f650f0d1606b4d82ee432c0080546001600160a01b031916815561103c826122a1565b610a3081612311565b5f611f51846001600160a01b0385168461235a565b949350505050565b6001600160a01b038216611f8257604051634b637e8f60e11b81525f60048201526024016108b2565b61103c825f83612113565b5f611fba611f9a83612376565b8015611fb557505f8480611fb057611fb0612e77565b868809115b151590565b611fc58686866123a2565b6119119190612cc2565b5f80516020612fe28339815191526001600160a01b0385166120065760405163e602df0560e01b81525f60048201526024016108b2565b6001600160a01b03841661202f57604051634a1406b160e11b81525f60048201526024016108b2565b6001600160a01b038086165f908152600183016020908152604080832093881683529290522083905581156120ac57836001600160a01b0316856001600160a01b03167f8c5be1e5ebec7d5bd14f71427d1e84f3dd0314c0f7b2291e5b200ac8c7c3b925856040516120a391815260200190565b60405180910390a35b5050505050565b6120bb612452565b610e9357604051631afcd79f60e31b815260040160405180910390fd5b6120e06120b3565b61103c828261246b565b6120f26120b3565b610a30816124bb565b6121036120b3565b610e9361253e565b610e936120b3565b5f80516020612fe28339815191526001600160a01b03841661214d5781816002015f8282546121429190612cc2565b909155506121bd9050565b6001600160a01b0384165f908152602082905260409020548281101561219f5760405163391434e360e21b81526001600160a01b038616600482015260248101829052604481018490526064016108b2565b6001600160a01b0385165f9081526020839052604090209083900390555b6001600160a01b0383166121db5760028101805483900390556121f9565b6001600160a01b0383165f9081526020829052604090208054830190555b826001600160a01b0316846001600160a01b03167fddf252ad1be2c89b69c2b068fc378daa952ba7f163c4a11628f55a4df523b3ef8460405161223e91815260200190565b60405180910390a350505050565b61225582612546565b6040516001600160a01b038316907fbc7cd75a20ee27fd9adebab32041f755214dbc6bffa90cc0225b39da2e5c2d3b905f90a28051156122995761192782826125a9565b61103c612612565b7f9016d09d72d40fdae2fd8ceac6b6234c7706214fd39c1cd1e609a0528c19930080546001600160a01b031981166001600160a01b03848116918217845560405192169182907f8be0079c531659141344cd1fd0a4f28419497f9722a3daafe3b4186f6b6457e0905f90a3505050565b5f61231b82612631565b90505f5b8181101561235057600283015f612336858461263b565b815260208101919091526040015f9081205560010161231f565b5061103c82612646565b5f8281526002840160205260408120829055611f51848461264f565b5f600282600381111561238b5761238b612e8b565b6123959190612e9f565b60ff166001149050919050565b5f805f6123af868661265a565b91509150815f036123d3578381816123c9576123c9612e77565b0492505050610bb9565b8184116123ea576123ea6003851502601118612676565b5f848688095f868103871696879004966002600389028118808a02820302808a02820302808a02820302808a02820302808a02820302808a02909103029181900381900460010185841190960395909502919093039390930492909217029150509392505050565b5f61245b611a3e565b54600160401b900460ff16919050565b6124736120b3565b5f80516020612fe28339815191527f52c63247e1f47db19d5ce0460030c497f067ca4cebf71ba98eeadabe20bace036124ac8482612f10565b5060048101611c5e8382612f10565b6124c36120b3565b7f0773e532dfede91f04b12a73d3d2acd361424f41f76b4fb79f090161e36b4e005f806124ef84612687565b91509150816124ff576012612501565b805b83546001600160a81b031916600160a01b60ff92909216919091026001600160a01b031916176001600160a01b0394909416939093179091555050565b611a2b6120b3565b806001600160a01b03163b5f0361257b57604051634c9c8ce360e01b81526001600160a01b03821660048201526024016108b2565b5f8051602061300283398151915280546001600160a01b0319166001600160a01b0392909216919091179055565b60605f80846001600160a01b0316846040516125c59190612fcb565b5f60405180830381855af49150503d805f81146125fd576040519150601f19603f3d011682016040523d82523d5f602084013e612602565b606091505b509150915061191185838361275d565b3415610e935760405163b398979f60e01b815260040160405180910390fd5b5f610851826127b9565b5f610bb983836127c2565b610a30816127e8565b5f610bb98383612841565b5f805f1983850993909202808410938190039390930393915050565b634e487b715f52806020526024601cfd5b60408051600481526024810182526020810180516001600160e01b031663313ce56760e01b17905290515f918291829182916001600160a01b038716916126cd91612fcb565b5f60405180830381855afa9150503d805f8114612705576040519150601f19603f3d011682016040523d82523d5f602084013e61270a565b606091505b509150915081801561271e57506020815110155b15612751575f818060200190518101906127389190612e60565b905060ff811161274f576001969095509350505050565b505b505f9485945092505050565b6060826127725761276d8261288d565b610bb9565b815115801561278957506001600160a01b0384163b155b156127b257604051639996b31560e01b81526001600160a01b03851660048201526024016108b2565b5080610bb9565b5f610851825490565b5f825f0182815481106127d7576127d7612d28565b905f5260205f200154905092915050565b5f6127f1825490565b90505f5b8181101561283a57826001015f845f01838154811061281657612816612d28565b905f5260205f20015481526020019081526020015f205f90558060010190506127f5565b50505f9055565b5f81815260018301602052604081205461288657508154600181810184555f848152602080822090930184905584548482528286019093526040902091909155610851565b505f610851565b80511561289d5780518082602001fd5b60405163d6bda27560e01b815260040160405180910390fd5b602081525f82518060208401528060208501604085015e5f604082850101526040601f19601f83011684010191505092915050565b5f602082840312156128fb575f80fd5b5035919050565b6001600160a01b0381168114610a30575f80fd5b5f8060408385031215612927575f80fd5b823561293281612902565b946020939093013593505050565b5f8083601f840112612950575f80fd5b50813567ffffffffffffffff811115612967575f80fd5b60208301915083602082850101111561297e575f80fd5b9250929050565b5f805f805f806080878903121561299a575f80fd5b86356129a581612902565b955060208701356129b581612902565b9450604087013567ffffffffffffffff8111156129d0575f80fd5b6129dc89828a01612940565b909550935050606087013567ffffffffffffffff8111156129fb575f80fd5b612a0789828a01612940565b979a9699509497509295939492505050565b5f805f60608486031215612a2b575f80fd5b8335612a3681612902565b92506020840135612a4681612902565b929592945050506040919091013590565b5f8060408385031215612a68575f80fd5b50508035926020909101359150565b5f60208284031215612a87575f80fd5b8135610bb981612902565b634e487b7160e01b5f52604160045260245ffd5b5f8060408385031215612ab7575f80fd5b8235612ac281612902565b9150602083013567ffffffffffffffff811115612add575f80fd5b8301601f81018513612aed575f80fd5b803567ffffffffffffffff811115612b0757612b07612a92565b604051601f8201601f19908116603f0116810167ffffffffffffffff81118282101715612b3657612b36612a92565b604052818152828201602001871015612b4d575f80fd5b816020840160208301375f602083830101528093505050509250929050565b5f8060408385031215612b7d575f80fd5b823591506020830135612b8f81612902565b809150509250929050565b5f8060208385031215612bab575f80fd5b823567ffffffffffffffff811115612bc1575f80fd5b8301601f81018513612bd1575f80fd5b803567ffffffffffffffff811115612be7575f80fd5b8560208260061b8401011115612bfb575f80fd5b6020919091019590945092505050565b5f805f60608486031215612c1d575f80fd5b833592506020840135612c2f81612902565b91506040840135612c3f81612902565b809150509250925092565b5f8060408385031215612c5b575f80fd5b8235612c6681612902565b91506020830135612b8f81612902565b600181811c90821680612c8a57607f821691505b602082108103612ca857634e487b7160e01b5f52602260045260245ffd5b50919050565b634e487b7160e01b5f52601160045260245ffd5b8082018082111561085157610851612cae565b5f60208284031215612ce5575f80fd5b81518015158114610bb9575f80fd5b60ff818116838216019081111561085157610851612cae565b5f60208284031215612d1d575f80fd5b8151610bb981612902565b634e487b7160e01b5f52603260045260245ffd5b8181038181111561085157610851612cae565b5f60208284031215612d5f575f80fd5b815160ff81168114610bb9575f80fd5b6001815b6001841115612daa57808504811115612d8e57612d8e612cae565b6001841615612d9c57908102905b60019390931c928002612d73565b935093915050565b5f82612dc057506001610851565b81612dcc57505f610851565b8160018114612de25760028114612dec57612e08565b6001915050610851565b60ff841115612dfd57612dfd612cae565b50506001821b610851565b5060208310610133831016604e8410600b8410161715612e2b575081810a610851565b612e375f198484612d6f565b805f1904821115612e4a57612e4a612cae565b029392505050565b5f610bb960ff841683612db2565b5f60208284031215612e70575f80fd5b5051919050565b634e487b7160e01b5f52601260045260245ffd5b634e487b7160e01b5f52602160045260245ffd5b5f60ff831680612ebd57634e487b7160e01b5f52601260045260245ffd5b8060ff84160691505092915050565b601f82111561192757805f5260205f20601f840160051c81016020851015612ef15750805b601f840160051c820191505b818110156120ac575f8155600101612efd565b815167ffffffffffffffff811115612f2a57612f2a612a92565b612f3e81612f388454612c76565b84612ecc565b6020601f821160018114612f70575f8315612f595750848201515b5f19600385901b1c1916600184901b1784556120ac565b5f84815260208120601f198516915b82811015612f9f5787850151825560209485019460019092019101612f7f565b5084821015612fbc57868401515f19600387901b60f8161c191681555b50505050600190811b01905550565b5f82518060208501845e5f92019182525091905056fe52c63247e1f47db19d5ce0460030c497f067ca4cebf71ba98eeadabe20bace00360894a13ba1a3210667c828492db98dca3e2076cc3735a920a3ca505d382bbc9b779b17422d0df92223018b32b4d1fa46e071723d6817e2486d003becc55f00a2646970667358221220febd21242cf3ad1b5a012f5b84690cf7ba642f37b35bf10c013cea291383b9e964736f6c634300081a0033",
  "linkReferences": {},
  "deployedLinkReferences": {}
}