{
  "_format": "hh-sol-artifact-1",
  "contractName": "VaultImplementations",
  "sourceName": "contracts/helpers/VaultImplementations.sol",
  "abi": [
    {
      "inputs": [],
      "stateMutability": "nonpayable",
      "type": "constructor"
    },
    {
      "inputs": [],
      "name": "ENCRYPTED_VAULT_IMPLEMENTATION",
      "outputs": [
        {
          "internalType": "address",
          "name": "",
          "type": "address"
        }
      ],
      "stateMutability": "view",
      "type": "function"
    },
    {
      "inputs": [],
      "name": "TRANSPARENT_VAULT_IMPLEMENTATION",
      "outputs": [
        {
          "internalType": "address",
          "name": "",
          "type": "address"
        }
      ],
      "stateMutability": "view",
      "type": "function"
    }
  ],
  "bytecode": "0x60c0604052348015600e575f80fd5b506040516019906071565b604051809103905ff0801580156031573d5f803e3d5ffd5b506001600160a01b0316608052604051604890607e565b604051809103905ff0801580156060573d5f803e3d5ffd5b506001600160a01b031660a052608b565b6134228061017a83390190565b6133808061359c83390190565b60805160a05160d26100a85f395f607a01525f6038015260d25ff3fe6080604052348015600e575f80fd5b50600436106030575f3560e01c8063292b2f86146034578063fb121699146076575b5f80fd5b605a7f000000000000000000000000000000000000000000000000000000000000000081565b6040516001600160a01b03909116815260200160405180910390f35b605a7f00000000000000000000000000000000000000000000000000000000000000008156fea2646970667358221220e767cdc26a1a4dadc65c6fb2bf38474ebd2fd2ae66e19ced000a8ba48fb9ce8564736f6c634300081a003360a0604052306080523480156012575f80fd5b506080516133e96100395f395f8181611f3401528181611f5d01526120bf01526133e95ff3fe608060405260043610610280575f3560e01c80638da5cb5b11610155578063c6e6f592116100be578063dd62ed3e11610078578063dd62ed3e14610703578063e30c397814610722578063e66f53b714610736578063ef8b30f714610651578063f2fde38b14610755578063fb12251b14610774575f80fd5b8063c6e6f59214610651578063ce96cb7714610670578063d1699c261461068f578063d3d03458146106a3578063d5f39488146106c5578063d905777e146106e4575f80fd5b8063b3d7f6b91161010f578063b3d7f6b9146105c1578063b460af94146105e0578063ba087652146105ff578063c0b568e11461061e578063c37fc8a81461063d578063c63d75b61461044c575f80fd5b80638da5cb5b1461053657806394bf804d1461049357806395d89b411461054a578063a9059cbb1461055e578063aa9d3a601461057d578063ad3cb1cc14610591575f80fd5b806333fdc592116101f75780636e553f65116101b15780636e553f651461049357806370a08231146104b2578063715018a6146104d1578063745400c9146104e557806379502c551461050457806379ba509714610522575f80fd5b806333fdc5921461040c57806338d52e0f14610420578063402d267d1461044c5780634cdad506146102c85780634f1ef2861461046c57806352d1902d1461047f575f80fd5b80630d1e6667116102485780630d1e666714610335578063105444941461035657806318160ddd146103755780632016a0d2146103a857806323b872dd146103c7578063313ce567146103e6575f80fd5b806301e1d1141461028457806306fdde03146102a757806307a2d13a146102c8578063095ea7b3146102e75780630a28a47714610316575b5f80fd5b34801561028f575f80fd5b506003545b6040519081526020015b60405180910390f35b3480156102b2575f80fd5b506102bb610793565b60405161029e9190612b56565b3480156102d3575f80fd5b506102946102e2366004612b8b565b610853565b3480156102f2575f80fd5b50610306610301366004612bb6565b610864565b604051901515815260200161029e565b348015610321575f80fd5b50610294610330366004612b8b565b61087b565b348015610340575f80fd5b5061035461034f366004612b8b565b610887565b005b348015610361575f80fd5b50610354610370366004612c20565b610a40565b348015610380575f80fd5b507f52c63247e1f47db19d5ce0460030c497f067ca4cebf71ba98eeadabe20bace0254610294565b3480156103b3575f80fd5b506103546103c2366004612ca4565b610bac565b3480156103d2575f80fd5b506103066103e1366004612d36565b610d12565b3480156103f1575f80fd5b506103fa610d37565b60405160ff909116815260200161029e565b348015610417575f80fd5b50610354610d79565b34801561042b575f80fd5b50610434610f02565b6040516001600160a01b03909116815260200161029e565b348015610457575f80fd5b50610294610466366004612d74565b505f1990565b61035461047a366004612da3565b610f36565b34801561048a575f80fd5b50610294610f55565b34801561049e575f80fd5b506102946104ad366004612e66565b610f70565b3480156104bd575f80fd5b506102946104cc366004612d74565b610f8a565b3480156104dc575f80fd5b50610354610fb0565b3480156104f0575f80fd5b506103546104ff366004612b8b565b610fc1565b34801561050f575f80fd5b505f54610434906001600160a01b031681565b34801561052d575f80fd5b506103546110d7565b348015610541575f80fd5b5061043461111c565b348015610555575f80fd5b506102bb611144565b348015610569575f80fd5b50610306610578366004612bb6565b611182565b348015610588575f80fd5b5061035461118f565b34801561059c575f80fd5b506102bb604051806040016040528060058152602001640352e302e360dc1b81525081565b3480156105cc575f80fd5b506102946105db366004612b8b565b611380565b3480156105eb575f80fd5b506102946105fa366004612e94565b61138c565b34801561060a575f80fd5b50610294610619366004612e94565b6113a5565b348015610629575f80fd5b50610354610638366004612b8b565b6113bf565b348015610648575f80fd5b50610294611517565b34801561065c575f80fd5b5061029461066b366004612b8b565b61157e565b34801561067b575f80fd5b5061029461068a366004612d74565b611589565b34801561069a575f80fd5b5061029461159c565b3480156106ae575f80fd5b506106b76115fb565b60405161029e929190612ed3565b3480156106d0575f80fd5b50600254610434906001600160a01b031681565b3480156106ef575f80fd5b506102946106fe366004612d74565b61170f565b34801561070e575f80fd5b5061029461071d366004612f5c565b611719565b34801561072d575f80fd5b50610434611762565b348015610741575f80fd5b50600154610434906001600160a01b031681565b348015610760575f80fd5b5061035461076f366004612d74565b61178a565b34801561077f575f80fd5b5061035461078e366004612f88565b61180f565b7f52c63247e1f47db19d5ce0460030c497f067ca4cebf71ba98eeadabe20bace0380546060915f80516020613354833981519152916107d190612fc6565b80601f01602080910402602001604051908101604052809291908181526020018280546107fd90612fc6565b80156108485780601f1061081f57610100808354040283529160200191610848565b820191905f5260205f20905b81548152906001019060200180831161082b57829003601f168201915b505050505091505090565b5f61085e825f611ac1565b92915050565b5f33610871818585611b9c565b5060019392505050565b5f61085e826001611bae565b61088f611c76565b805f036108c85761089e610f02565b604051636b30633560e01b81526001600160a01b0390911660048201526024015b60405180910390fd5b335f90815260046020526040812054900361091f57600680546001810182555f919091527ff652222313e28459528d920b65115c16c04f3efc82aaedc97be59f3f377c0d3f0180546001600160a01b031916331790555b335f908152600460205260408120805483929061093d908490613012565b909155505f905061094c610f02565b6040516323b872dd60e01b8152336004820152306024820152604481018490526001600160a01b0391909116906323b872dd906064016020604051808303815f875af115801561099e573d5f803e3d5ffd5b505050506040513d601f19601f820116820180604052508101906109c29190613025565b9050806109e2576040516312171d8360e31b815260040160405180910390fd5b60065460405133917f03979a8c481a9e9c06938045cfd5c28535255cb003b10a8fe84ebb3cb4d440f291610a1e91868252602082015260400190565b60405180910390a250610a3d60015f8051602061339483398151915255565b50565b5f8054906101000a90046001600160a01b03166001600160a01b0316633a0dad8e6040518163ffffffff1660e01b8152600401602060405180830381865afa158015610a8e573d5f803e3d5ffd5b505050506040513d601f19601f82011682018060405250810190610ab29190613044565b6001600160a01b0316336001600160a01b031614610ae357604051631af2ab4f60e31b815260040160405180910390fd5b610aed6008611cc0565b815f5b81811015610b6d57610b64858583818110610b0d57610b0d61305f565b610b239260206040909202019081019150612d74565b868684818110610b3557610b3561305f565b9050604002016020016020810190610b4d9190613073565b63ffffffff166008611cc99092919063ffffffff16565b50600101610af0565b5060038290556040518281527f5e1ff954b5e5257e9ee5d4cb07059e8f5e69b1aaaf9911e5d8d90a6894de9c219060200160405180910390a150505050565b5f610bb5611ce6565b805490915060ff600160401b82041615906001600160401b03165f81158015610bdb5750825b90505f826001600160401b03166001148015610bf65750303b155b905081158015610c04575080155b15610c225760405163f92ee8a960e01b815260040160405180910390fd5b845467ffffffffffffffff191660011785558315610c4c57845460ff60401b1916600160401b1785555b610cbf8b8b8b8b8080601f0160208091040260200160405190810160405280939291908181526020018383808284375f9201919091525050604080516020601f8f018190048102820181019092528d815292508d91508c90819084018382808284375f92019190915250611d0e92505050565b8315610d0557845460ff60401b19168555604051600181527fc7f505b2f371ae2175ee4913f4499e1f2633a7b5936321eed1cdaeb6115181d29060200160405180910390a15b5050505050505050505050565b5f33610d1f858285611e34565b610d2a858585611e98565b60019150505b9392505050565b5f807f0773e532dfede91f04b12a73d3d2acd361424f41f76b4fb79f090161e36b4e0090505f8154610d739190600160a01b900460ff16613096565b91505090565b5f8054906101000a90046001600160a01b03166001600160a01b0316633a0dad8e6040518163ffffffff1660e01b8152600401602060405180830381865afa158015610dc7573d5f803e3d5ffd5b505050506040513d601f19601f82011682018060405250810190610deb9190613044565b6001600160a01b0316336001600160a01b031614610e1c57604051631af2ab4f60e31b815260040160405180910390fd5b610e24611c76565b6006545f5b81811015610ee8575f60068281548110610e4557610e4561305f565b5f9182526020808320909101546001600160a01b03168083526004909152604082205490925090610e758261157e565b6001600160a01b0384165f908152600460205260408120559050610e998382611ef5565b60408051838152602081018690526001600160a01b038516917f782ea2005b7f873a0190a1ccb553c732171348d6e16d2b7d3d493c0677dc296e910160405180910390a2505050600101610e29565b5050610f0060015f8051602061339483398151915255565b565b5f807f0773e532dfede91f04b12a73d3d2acd361424f41f76b4fb79f090161e36b4e005b546001600160a01b031692915050565b610f3e611f29565b610f4782611fcd565b610f518282611ff8565b5050565b5f610f5e6120b4565b505f8051602061337483398151915290565b5f6040516318f2e47360e11b815260040160405180910390fd5b6001600160a01b03165f9081525f80516020613354833981519152602052604090205490565b610fb86120fd565b610f005f61212f565b805f03610fe1576040516314e6cbb960e11b815260040160405180910390fd5b80610feb33610f8a565b101561100a57604051633c57b48560e21b815260040160405180910390fd5b335f90815260056020526040812054900361106157600780546001810182555f919091527fa66cc928b5edb82af9bd49922954155ab7b0942694bea4ce44661d9a8736c6880180546001600160a01b031916331790555b335f908152600560205260408120805483929061107f908490613012565b909155506110909050333083611e98565b60075460405133917fd72eb5d043f24a0168ae744d5c44f9596fd673a26bf74d9646bff4b844882d14916110cc91858252602082015260400190565b60405180910390a250565b33806110e1611762565b6001600160a01b0316146111135760405163118cdaa760e01b81526001600160a01b03821660048201526024016108bf565b610a3d8161212f565b5f807f9016d09d72d40fdae2fd8ceac6b6234c7706214fd39c1cd1e609a0528c199300610f26565b7f52c63247e1f47db19d5ce0460030c497f067ca4cebf71ba98eeadabe20bace0480546060915f80516020613354833981519152916107d190612fc6565b5f33610871818585611e98565b5f8054906101000a90046001600160a01b03166001600160a01b0316633a0dad8e6040518163ffffffff1660e01b8152600401602060405180830381865afa1580156111dd573d5f803e3d5ffd5b505050506040513d601f19601f820116820180604052508101906112019190613044565b6001600160a01b0316336001600160a01b03161461123257604051631af2ab4f60e31b815260040160405180910390fd5b61123a611c76565b6007545f5b81811015610ee8575f6007828154811061125b5761125b61305f565b5f9182526020808320909101546001600160a01b03168083526005909152604082208054929055915061128e3082612167565b5f61129882610853565b90506112a2610f02565b60405163a9059cbb60e01b81526001600160a01b03858116600483015260248201849052919091169063a9059cbb906044016020604051808303815f875af11580156112f0573d5f803e3d5ffd5b505050506040513d601f19601f820116820180604052508101906113149190613025565b611331576040516312171d8360e31b815260040160405180910390fd5b60408051838152602081018690526001600160a01b038516917febad37b830b1857ef9af5983fc20dc0ded12dc472ba1e22e06fd3a9465b4506c910160405180910390a250505060010161123f565b5f61085e826001611ac1565b5f604051628a595160e01b815260040160405180910390fd5b5f604051630ad8521960e31b815260040160405180910390fd5b6113c7611c76565b805f036113d65761089e610f02565b335f90815260046020526040902054811115611405576040516332194fd360e21b815260040160405180910390fd5b335f90815260046020526040812080548392906114239084906130af565b90915550506006545f611434610f02565b60405163a9059cbb60e01b8152336004820152602481018590526001600160a01b03919091169063a9059cbb906044016020604051808303815f875af1158015611480573d5f803e3d5ffd5b505050506040513d601f19601f820116820180604052508101906114a49190613025565b9050806114c4576040516312171d8360e31b815260040160405180910390fd5b604080518481526020810184905233917f2b19ac8271899522bfff26e405c20643af4cdf99b525ef2cd8cde689644874ae910160405180910390a25050610a3d60015f8051602061339483398151915255565b6007545f908190815b818110156115765760055f6007838154811061153e5761153e61305f565b5f9182526020808320909101546001600160a01b0316835282019290925260400190205461156c9084613012565b9250600101611520565b509092915050565b5f61085e825f611bae565b5f61085e61159683610f8a565b5f611ac1565b6006545f908190815b818110156115765760045f600683815481106115c3576115c361305f565b5f9182526020808320909101546001600160a01b031683528201929092526040019020546115f19084613012565b92506001016115a5565b6060805f611609600861219b565b9050806001600160401b0381111561162357611623612d8f565b60405190808252806020026020018201604052801561164c578160200160208202803683370190505b509250806001600160401b0381111561166757611667612d8f565b604051908082528060200260200182016040528015611690578160200160208202803683370190505b5091505f5b81811015611709575f806116aa6008846121a5565b91509150818684815181106116c1576116c161305f565b60200260200101906001600160a01b031690816001600160a01b031681525050808584815181106116f4576116f461305f565b60209081029190910101525050600101611695565b50509091565b5f61085e82610f8a565b6001600160a01b039182165f9081527f52c63247e1f47db19d5ce0460030c497f067ca4cebf71ba98eeadabe20bace016020908152604080832093909416825291909152205490565b5f807f237e158222e3e6968b72b9db0d8043aacf074ad9f650f0d1606b4d82ee432c00610f26565b6117926120fd565b7f237e158222e3e6968b72b9db0d8043aacf074ad9f650f0d1606b4d82ee432c0080546001600160a01b0319166001600160a01b03831690811782556117d661111c565b6001600160a01b03167f38d16b8cac22d99fc7c124b9cd0de2d3fa1faef420bfe791d8c362d765e2270060405160405180910390a35050565b6001546001600160a01b0316331461183a576040516356b381a560e01b815260040160405180910390fd5b5f81900361185b57604051631121aa8d60e01b815260040160405180910390fd5b611865600b611cc0565b5f81815b818110156119ef575f8585838181106118845761188461305f565b61189a9260206040909202019081019150612d74565b90505f8686848181106118af576118af61305f565b90506040020160200160208101906118c79190613073565b5f54604051633af32abf60e01b81526001600160a01b038581166004830152929350911690633af32abf90602401602060405180830381865afa158015611910573d5f803e3d5ffd5b505050506040513d601f19601f820116820180604052508101906119349190613025565b61195c5760405163751dff9760e11b81526001600160a01b03831660048201526024016108bf565b8063ffffffff165f0361198d57604051636b30633560e01b81526001600160a01b03831660048201526024016108bf565b5f6119a3600b8463ffffffff80861690611cc916565b9050806119ce576040516346bdabe160e01b81526001600160a01b03841660048201526024016108bf565b6119de63ffffffff831687613012565b955050600190920191506118699050565b505f805f9054906101000a90046001600160a01b03166001600160a01b031663d1717c7d6040518163ffffffff1660e01b8152600401602060405180830381865afa158015611a40573d5f803e3d5ffd5b505050506040513d601f19601f82011682018060405250810190611a6491906130c2565b9050611a7181600a6131c5565b8314611a9057604051639006dd2760e01b815260040160405180910390fd5b60405133907f2d47a742b8d7df7c1fc5a9a631b206b364e6cb2722490759f63bb3ab14b132e0905f90a25050505050565b5f80611aeb7f52c63247e1f47db19d5ce0460030c497f067ca4cebf71ba98eeadabe20bace025490565b90505f805f9054906101000a90046001600160a01b03166001600160a01b031663b71ee4fc6040518163ffffffff1660e01b8152600401602060405180830381865afa158015611b3d573d5f803e3d5ffd5b505050506040513d601f19601f82011682018060405250810190611b6191906130c2565b9050611b936003546001611b759190613012565b611b8083600a6131c5565b611b8a9085613012565b879190876121c2565b95945050505050565b611ba98383836001612204565b505050565b5f80611bd87f52c63247e1f47db19d5ce0460030c497f067ca4cebf71ba98eeadabe20bace025490565b90505f805f9054906101000a90046001600160a01b03166001600160a01b031663b71ee4fc6040518163ffffffff1660e01b8152600401602060405180830381865afa158015611c2a573d5f803e3d5ffd5b505050506040513d601f19601f82011682018060405250810190611c4e91906130c2565b9050611b93611c5e82600a6131c5565b611c689084613012565b600354611b8a906001613012565b5f80516020613394833981519152805460011901611ca757604051633ee5aeb560e01b815260040160405180910390fd5b60029055565b60015f8051602061339483398151915255565b610a3d816122e8565b5f611cde846001600160a01b03851684612331565b949350505050565b5f807ff0c57e16840df040f15088dc2f81fe391c3923bec73e23a9662efc9c229c6a0061085e565b611d1661234d565b6001600160a01b038416611d3d57604051639c6bb9f560e01b815260040160405180910390fd5b6001600160a01b038316611d6457604051636a485a5b60e11b815260040160405180910390fd5b611d6e8282612372565b611dd6836001600160a01b0316637158da7c6040518163ffffffff1660e01b8152600401602060405180830381865afa158015611dad573d5f803e3d5ffd5b505050506040513d601f19601f82011682018060405250810190611dd19190613044565b612384565b611dde612395565b611de7846123a5565b611def6123b6565b611df76123b6565b5050600280546001600160a01b03199081163317909155600180546001600160a01b039485169083161790555f8054929093169116178155600355565b5f611e3f8484611719565b90505f19811015611e925781811015611e8457604051637dc7a0d960e11b81526001600160a01b038416600482015260248101829052604481018390526064016108bf565b611e9284848484035f612204565b50505050565b6001600160a01b038316611ec157604051634b637e8f60e11b81525f60048201526024016108bf565b6001600160a01b038216611eea5760405163ec442f0560e01b81525f60048201526024016108bf565b611ba98383836123be565b6001600160a01b038216611f1e5760405163ec442f0560e01b81525f60048201526024016108bf565b610f515f83836123be565b306001600160a01b037f0000000000000000000000000000000000000000000000000000000000000000161480611faf57507f00000000000000000000000000000000000000000000000000000000000000006001600160a01b0316611fa35f80516020613374833981519152546001600160a01b031690565b6001600160a01b031614155b15610f005760405163703e46dd60e11b815260040160405180910390fd5b6001546001600160a01b03163314610a3d576040516356b381a560e01b815260040160405180910390fd5b816001600160a01b03166352d1902d6040518163ffffffff1660e01b8152600401602060405180830381865afa925050508015612052575060408051601f3d908101601f1916820190925261204f918101906131d3565b60015b61207a57604051634c9c8ce360e01b81526001600160a01b03831660048201526024016108bf565b5f8051602061337483398151915281146120aa57604051632a87526960e21b8152600481018290526024016108bf565b611ba983836124f7565b306001600160a01b037f00000000000000000000000000000000000000000000000000000000000000001614610f005760405163703e46dd60e11b815260040160405180910390fd5b3361210661111c565b6001600160a01b031614610f005760405163118cdaa760e01b81523360048201526024016108bf565b7f237e158222e3e6968b72b9db0d8043aacf074ad9f650f0d1606b4d82ee432c0080546001600160a01b0319168155610f518261254c565b6001600160a01b03821661219057604051634b637e8f60e11b81525f60048201526024016108bf565b610f51825f836123be565b5f61085e826125bc565b5f8080806121b386866125c6565b909450925050505b9250929050565b5f6121ef6121cf836125ef565b80156121ea57505f84806121e5576121e56131ea565b868809115b151590565b6121fa86868661261b565b611b939190613012565b5f805160206133548339815191526001600160a01b03851661223b5760405163e602df0560e01b81525f60048201526024016108bf565b6001600160a01b03841661226457604051634a1406b160e11b81525f60048201526024016108bf565b6001600160a01b038086165f908152600183016020908152604080832093881683529290522083905581156122e157836001600160a01b0316856001600160a01b03167f8c5be1e5ebec7d5bd14f71427d1e84f3dd0314c0f7b2291e5b200ac8c7c3b925856040516122d891815260200190565b60405180910390a35b5050505050565b5f6122f2826125bc565b90505f5b8181101561232757600283015f61230d85846126cb565b815260208101919091526040015f908120556001016122f6565b50610f51826126d6565b5f8281526002840160205260408120829055611cde84846126df565b6123556126ea565b610f0057604051631afcd79f60e31b815260040160405180910390fd5b61237a61234d565b610f518282612703565b61238c61234d565b610a3d81612753565b61239d61234d565b610f006127d6565b6123ad61234d565b610a3d816127de565b610f0061234d565b5f805160206133548339815191526001600160a01b0384166123f85781816002015f8282546123ed9190613012565b909155506124689050565b6001600160a01b0384165f908152602082905260409020548281101561244a5760405163391434e360e21b81526001600160a01b038616600482015260248101829052604481018490526064016108bf565b6001600160a01b0385165f9081526020839052604090209083900390555b6001600160a01b0383166124865760028101805483900390556124a4565b6001600160a01b0383165f9081526020829052604090208054830190555b826001600160a01b0316846001600160a01b03167fddf252ad1be2c89b69c2b068fc378daa952ba7f163c4a11628f55a4df523b3ef846040516124e991815260200190565b60405180910390a350505050565b6125008261280f565b6040516001600160a01b038316907fbc7cd75a20ee27fd9adebab32041f755214dbc6bffa90cc0225b39da2e5c2d3b905f90a280511561254457611ba98282612872565b610f516128db565b7f9016d09d72d40fdae2fd8ceac6b6234c7706214fd39c1cd1e609a0528c19930080546001600160a01b031981166001600160a01b03848116918217845560405192169182907f8be0079c531659141344cd1fd0a4f28419497f9722a3daafe3b4186f6b6457e0905f90a3505050565b5f61085e826128fa565b5f80806125d385856126cb565b5f81815260029690960160205260409095205494959350505050565b5f6002826003811115612604576126046131fe565b61260e9190613212565b60ff166001149050919050565b5f805f6126288686612903565b91509150815f0361264c57838181612642576126426131ea565b0492505050610d30565b81841161266357612663600385150260111861291f565b5f848688095f868103871696879004966002600389028118808a02820302808a02820302808a02820302808a02820302808a02820302808a02909103029181900381900460010185841190960395909502919093039390930492909217029150509392505050565b5f610d308383612930565b610a3d81612956565b5f610d3083836129af565b5f6126f3611ce6565b54600160401b900460ff16919050565b61270b61234d565b5f805160206133548339815191527f52c63247e1f47db19d5ce0460030c497f067ca4cebf71ba98eeadabe20bace036127448482613283565b5060048101611e928382613283565b61275b61234d565b7f0773e532dfede91f04b12a73d3d2acd361424f41f76b4fb79f090161e36b4e005f80612787846129fb565b9150915081612797576012612799565b805b83546001600160a81b031916600160a01b60ff92909216919091026001600160a01b031916176001600160a01b0394909416939093179091555050565b611cad61234d565b6127e661234d565b6001600160a01b03811661111357604051631e4fbdf760e01b81525f60048201526024016108bf565b806001600160a01b03163b5f0361284457604051634c9c8ce360e01b81526001600160a01b03821660048201526024016108bf565b5f8051602061337483398151915280546001600160a01b0319166001600160a01b0392909216919091179055565b60605f80846001600160a01b03168460405161288e919061333d565b5f60405180830381855af49150503d805f81146128c6576040519150601f19603f3d011682016040523d82523d5f602084013e6128cb565b606091505b5091509150611b93858383612ad1565b3415610f005760405163b398979f60e01b815260040160405180910390fd5b5f61085e825490565b5f805f1983850993909202808410938190039390930393915050565b634e487b715f52806020526024601cfd5b5f825f0182815481106129455761294561305f565b905f5260205f200154905092915050565b5f61295f825490565b90505f5b818110156129a857826001015f845f0183815481106129845761298461305f565b905f5260205f20015481526020019081526020015f205f9055806001019050612963565b50505f9055565b5f8181526001830160205260408120546129f457508154600181810184555f84815260208082209093018490558454848252828601909352604090209190915561085e565b505f61085e565b60408051600481526024810182526020810180516001600160e01b031663313ce56760e01b17905290515f918291829182916001600160a01b03871691612a419161333d565b5f60405180830381855afa9150503d805f8114612a79576040519150601f19603f3d011682016040523d82523d5f602084013e612a7e565b606091505b5091509150818015612a9257506020815110155b15612ac5575f81806020019051810190612aac91906131d3565b905060ff8111612ac3576001969095509350505050565b505b505f9485945092505050565b606082612ae657612ae182612b2d565b610d30565b8151158015612afd57506001600160a01b0384163b155b15612b2657604051639996b31560e01b81526001600160a01b03851660048201526024016108bf565b5080610d30565b805115612b3d5780518082602001fd5b60405163d6bda27560e01b815260040160405180910390fd5b602081525f82518060208401528060208501604085015e5f604082850101526040601f19601f83011684010191505092915050565b5f60208284031215612b9b575f80fd5b5035919050565b6001600160a01b0381168114610a3d575f80fd5b5f8060408385031215612bc7575f80fd5b8235612bd281612ba2565b946020939093013593505050565b5f8083601f840112612bf0575f80fd5b5081356001600160401b03811115612c06575f80fd5b6020830191508360208260061b85010111156121bb575f80fd5b5f805f60408486031215612c32575f80fd5b83356001600160401b03811115612c47575f80fd5b612c5386828701612be0565b909790965060209590950135949350505050565b5f8083601f840112612c77575f80fd5b5081356001600160401b03811115612c8d575f80fd5b6020830191508360208285010111156121bb575f80fd5b5f805f805f8060808789031215612cb9575f80fd5b8635612cc481612ba2565b95506020870135612cd481612ba2565b945060408701356001600160401b03811115612cee575f80fd5b612cfa89828a01612c67565b90955093505060608701356001600160401b03811115612d18575f80fd5b612d2489828a01612c67565b979a9699509497509295939492505050565b5f805f60608486031215612d48575f80fd5b8335612d5381612ba2565b92506020840135612d6381612ba2565b929592945050506040919091013590565b5f60208284031215612d84575f80fd5b8135610d3081612ba2565b634e487b7160e01b5f52604160045260245ffd5b5f8060408385031215612db4575f80fd5b8235612dbf81612ba2565b915060208301356001600160401b03811115612dd9575f80fd5b8301601f81018513612de9575f80fd5b80356001600160401b03811115612e0257612e02612d8f565b604051601f8201601f19908116603f011681016001600160401b0381118282101715612e3057612e30612d8f565b604052818152828201602001871015612e47575f80fd5b816020840160208301375f602083830101528093505050509250929050565b5f8060408385031215612e77575f80fd5b823591506020830135612e8981612ba2565b809150509250929050565b5f805f60608486031215612ea6575f80fd5b833592506020840135612eb881612ba2565b91506040840135612ec881612ba2565b809150509250925092565b604080825283519082018190525f9060208501906060840190835b81811015612f155783516001600160a01b0316835260209384019390920191600101612eee565b5050838103602080860191909152855180835291810192508501905f5b81811015612f50578251845260209384019390920191600101612f32565b50919695505050505050565b5f8060408385031215612f6d575f80fd5b8235612f7881612ba2565b91506020830135612e8981612ba2565b5f8060208385031215612f99575f80fd5b82356001600160401b03811115612fae575f80fd5b612fba85828601612be0565b90969095509350505050565b600181811c90821680612fda57607f821691505b602082108103612ff857634e487b7160e01b5f52602260045260245ffd5b50919050565b634e487b7160e01b5f52601160045260245ffd5b8082018082111561085e5761085e612ffe565b5f60208284031215613035575f80fd5b81518015158114610d30575f80fd5b5f60208284031215613054575f80fd5b8151610d3081612ba2565b634e487b7160e01b5f52603260045260245ffd5b5f60208284031215613083575f80fd5b813563ffffffff81168114610d30575f80fd5b60ff818116838216019081111561085e5761085e612ffe565b8181038181111561085e5761085e612ffe565b5f602082840312156130d2575f80fd5b815160ff81168114610d30575f80fd5b6001815b600184111561311d5780850481111561310157613101612ffe565b600184161561310f57908102905b60019390931c9280026130e6565b935093915050565b5f826131335750600161085e565b8161313f57505f61085e565b8160018114613155576002811461315f5761317b565b600191505061085e565b60ff84111561317057613170612ffe565b50506001821b61085e565b5060208310610133831016604e8410600b841016171561319e575081810a61085e565b6131aa5f1984846130e2565b805f19048211156131bd576131bd612ffe565b029392505050565b5f610d3060ff841683613125565b5f602082840312156131e3575f80fd5b5051919050565b634e487b7160e01b5f52601260045260245ffd5b634e487b7160e01b5f52602160045260245ffd5b5f60ff83168061323057634e487b7160e01b5f52601260045260245ffd5b8060ff84160691505092915050565b601f821115611ba957805f5260205f20601f840160051c810160208510156132645750805b601f840160051c820191505b818110156122e1575f8155600101613270565b81516001600160401b0381111561329c5761329c612d8f565b6132b0816132aa8454612fc6565b8461323f565b6020601f8211600181146132e2575f83156132cb5750848201515b5f19600385901b1c1916600184901b1784556122e1565b5f84815260208120601f198516915b8281101561331157878501518255602094850194600190920191016132f1565b508482101561332e57868401515f19600387901b60f8161c191681555b50505050600190811b01905550565b5f82518060208501845e5f92019182525091905056fe52c63247e1f47db19d5ce0460030c497f067ca4cebf71ba98eeadabe20bace00360894a13ba1a3210667c828492db98dca3e2076cc3735a920a3ca505d382bbc9b779b17422d0df92223018b32b4d1fa46e071723d6817e2486d003becc55f00a2646970667358221220ca65f3394f6ce9cce52e8a1d36874fea34699e4a42c65edc44153342a818f64864736f6c634300081a003360a0604052306080523480156012575f80fd5b506080516133476100395f395f8181611f7801528181611fa1015261210301526133475ff3fe608060405260043610610280575f3560e01c806394bf804d11610155578063c63d75b6116100be578063d905777e11610078578063d905777e14610703578063dd62ed3e14610722578063e30c397814610741578063e66f53b714610755578063ef8b30f714610670578063f2fde38b14610774575f80fd5b8063c63d75b61461042d578063c6e6f59214610670578063ce96cb771461068f578063d1699c26146106ae578063d3d03458146106c2578063d5f39488146106e4575f80fd5b8063ad3cb1cc1161010f578063ad3cb1cc146105b0578063b3d7f6b9146105e0578063b460af94146105ff578063ba0876521461061e578063c0b568e11461063d578063c37fc8a81461065c575f80fd5b806394bf804d1461047457806395d89b411461052b578063985ba4ae1461053f5780639c055a661461055e578063a9059cbb1461057d578063aa9d3a601461059c575f80fd5b806338d52e0f116101f757806370a08231116101b157806370a0823114610493578063715018a6146104b2578063745400c9146104c657806379502c55146104e557806379ba5097146105035780638da5cb5b14610517575f80fd5b806338d52e0f14610401578063402d267d1461042d5780634cdad506146102c85780634f1ef2861461044d57806352d1902d146104605780636e553f6514610474575f80fd5b80630d1e6667116102485780630d1e66671461033557806318160ddd146103565780632016a0d21461038957806323b872dd146103a8578063313ce567146103c757806333fdc592146103ed575f80fd5b806301e1d1141461028457806306fdde03146102a757806307a2d13a146102c8578063095ea7b3146102e75780630a28a47714610316575b5f80fd5b34801561028f575f80fd5b506003545b6040519081526020015b60405180910390f35b3480156102b2575f80fd5b506102bb610793565b60405161029e9190612ad0565b3480156102d3575f80fd5b506102946102e2366004612b05565b610853565b3480156102f2575f80fd5b50610306610301366004612b30565b610864565b604051901515815260200161029e565b348015610321575f80fd5b50610294610330366004612b05565b61087b565b348015610340575f80fd5b5061035461034f366004612b05565b610887565b005b348015610361575f80fd5b507f52c63247e1f47db19d5ce0460030c497f067ca4cebf71ba98eeadabe20bace0254610294565b348015610394575f80fd5b506103546103a3366004612b9e565b610a40565b3480156103b3575f80fd5b506103066103c2366004612c30565b610ba6565b3480156103d2575f80fd5b506103db610bcb565b60405160ff909116815260200161029e565b3480156103f8575f80fd5b50610354610c0d565b34801561040c575f80fd5b50610415610d96565b6040516001600160a01b03909116815260200161029e565b348015610438575f80fd5b50610294610447366004612c6e565b505f1990565b61035461045b366004612c9d565b610dca565b34801561046b575f80fd5b50610294610de9565b34801561047f575f80fd5b5061029461048e366004612d60565b610e04565b34801561049e575f80fd5b506102946104ad366004612c6e565b610e1e565b3480156104bd575f80fd5b50610354610e44565b3480156104d1575f80fd5b506103546104e0366004612b05565b610e55565b3480156104f0575f80fd5b505f54610415906001600160a01b031681565b34801561050e575f80fd5b50610354610f6b565b348015610522575f80fd5b50610415610fb0565b348015610536575f80fd5b506102bb610fd8565b34801561054a575f80fd5b50610354610559366004612dce565b611016565b348015610569575f80fd5b50610354610578366004612e15565b61122d565b348015610588575f80fd5b50610306610597366004612b30565b611464565b3480156105a7575f80fd5b50610354611471565b3480156105bb575f80fd5b506102bb604051806040016040528060058152602001640352e302e360dc1b81525081565b3480156105eb575f80fd5b506102946105fa366004612b05565b611662565b34801561060a575f80fd5b50610294610619366004612e53565b61166e565b348015610629575f80fd5b50610294610638366004612e53565b611687565b348015610648575f80fd5b50610354610657366004612b05565b6116a1565b348015610667575f80fd5b506102946117f9565b34801561067b575f80fd5b5061029461068a366004612b05565b611860565b34801561069a575f80fd5b506102946106a9366004612c6e565b61186b565b3480156106b9575f80fd5b5061029461187e565b3480156106cd575f80fd5b506106d66118dd565b60405161029e929190612e92565b3480156106ef575f80fd5b50600254610415906001600160a01b031681565b34801561070e575f80fd5b5061029461071d366004612c6e565b611a2b565b34801561072d575f80fd5b5061029461073c366004612f1b565b611a35565b34801561074c575f80fd5b50610415611a7e565b348015610760575f80fd5b50600154610415906001600160a01b031681565b34801561077f575f80fd5b5061035461078e366004612c6e565b611aa6565b7f52c63247e1f47db19d5ce0460030c497f067ca4cebf71ba98eeadabe20bace0380546060915f805160206132b2833981519152916107d190612f47565b80601f01602080910402602001604051908101604052809291908181526020018280546107fd90612f47565b80156108485780601f1061081f57610100808354040283529160200191610848565b820191905f5260205f20905b81548152906001019060200180831161082b57829003601f168201915b505050505091505090565b5f61085e825f611b2b565b92915050565b5f33610871818585611c06565b5060019392505050565b5f61085e826001611c18565b61088f611ce0565b805f036108c85761089e610d96565b604051636b30633560e01b81526001600160a01b0390911660048201526024015b60405180910390fd5b335f90815260046020526040812054900361091f57600680546001810182555f919091527ff652222313e28459528d920b65115c16c04f3efc82aaedc97be59f3f377c0d3f0180546001600160a01b031916331790555b335f908152600460205260408120805483929061093d908490612f93565b909155505f905061094c610d96565b6040516323b872dd60e01b8152336004820152306024820152604481018490526001600160a01b0391909116906323b872dd906064016020604051808303815f875af115801561099e573d5f803e3d5ffd5b505050506040513d601f19601f820116820180604052508101906109c29190612fa6565b9050806109e2576040516312171d8360e31b815260040160405180910390fd5b60065460405133917f03979a8c481a9e9c06938045cfd5c28535255cb003b10a8fe84ebb3cb4d440f291610a1e91868252602082015260400190565b60405180910390a250610a3d60015f805160206132f283398151915255565b50565b5f610a49611d2a565b805490915060ff600160401b82041615906001600160401b03165f81158015610a6f5750825b90505f826001600160401b03166001148015610a8a5750303b155b905081158015610a98575080155b15610ab65760405163f92ee8a960e01b815260040160405180910390fd5b845467ffffffffffffffff191660011785558315610ae057845460ff60401b1916600160401b1785555b610b538b8b8b8b8080601f0160208091040260200160405190810160405280939291908181526020018383808284375f9201919091525050604080516020601f8f018190048102820181019092528d815292508d91508c90819084018382808284375f92019190915250611d5292505050565b8315610b9957845460ff60401b19168555604051600181527fc7f505b2f371ae2175ee4913f4499e1f2633a7b5936321eed1cdaeb6115181d29060200160405180910390a15b5050505050505050505050565b5f33610bb3858285611e78565b610bbe858585611edc565b60019150505b9392505050565b5f807f0773e532dfede91f04b12a73d3d2acd361424f41f76b4fb79f090161e36b4e0090505f8154610c079190600160a01b900460ff16612fc5565b91505090565b5f8054906101000a90046001600160a01b03166001600160a01b0316633a0dad8e6040518163ffffffff1660e01b8152600401602060405180830381865afa158015610c5b573d5f803e3d5ffd5b505050506040513d601f19601f82011682018060405250810190610c7f9190612fde565b6001600160a01b0316336001600160a01b031614610cb057604051631af2ab4f60e31b815260040160405180910390fd5b610cb8611ce0565b6006545f5b81811015610d7c575f60068281548110610cd957610cd9612ff9565b5f9182526020808320909101546001600160a01b03168083526004909152604082205490925090610d0982611860565b6001600160a01b0384165f908152600460205260408120559050610d2d8382611f39565b60408051838152602081018690526001600160a01b038516917f782ea2005b7f873a0190a1ccb553c732171348d6e16d2b7d3d493c0677dc296e910160405180910390a2505050600101610cbd565b5050610d9460015f805160206132f283398151915255565b565b5f807f0773e532dfede91f04b12a73d3d2acd361424f41f76b4fb79f090161e36b4e005b546001600160a01b031692915050565b610dd2611f6d565b610ddb82612011565b610de5828261203c565b5050565b5f610df26120f8565b505f805160206132d283398151915290565b5f6040516318f2e47360e11b815260040160405180910390fd5b6001600160a01b03165f9081525f805160206132b2833981519152602052604090205490565b610e4c612141565b610d945f612173565b805f03610e75576040516314e6cbb960e11b815260040160405180910390fd5b80610e7f33610e1e565b1015610e9e57604051633c57b48560e21b815260040160405180910390fd5b335f908152600560205260408120549003610ef557600780546001810182555f919091527fa66cc928b5edb82af9bd49922954155ab7b0942694bea4ce44661d9a8736c6880180546001600160a01b031916331790555b335f9081526005602052604081208054839290610f13908490612f93565b90915550610f249050333083611edc565b60075460405133917fd72eb5d043f24a0168ae744d5c44f9596fd673a26bf74d9646bff4b844882d1491610f6091858252602082015260400190565b60405180910390a250565b3380610f75611a7e565b6001600160a01b031614610fa75760405163118cdaa760e01b81526001600160a01b03821660048201526024016108bf565b610a3d81612173565b5f807f9016d09d72d40fdae2fd8ceac6b6234c7706214fd39c1cd1e609a0528c199300610dba565b7f52c63247e1f47db19d5ce0460030c497f067ca4cebf71ba98eeadabe20bace0480546060915f805160206132b2833981519152916107d190612f47565b5f8054906101000a90046001600160a01b03166001600160a01b0316633a0dad8e6040518163ffffffff1660e01b8152600401602060405180830381865afa158015611064573d5f803e3d5ffd5b505050506040513d601f19601f820116820180604052508101906110889190612fde565b6001600160a01b0316336001600160a01b0316146110b957604051631af2ab4f60e31b815260040160405180910390fd5b5f6110c35f6121ab565b6009549091505f5b81811015611116578260085f600984815481106110ea576110ea612ff9565b5f9182526020808320909101546001600160a01b031683528201929092526040019020556001016110cb565b5061112260095f612aa2565b5f5b818110156111ed5785858281811061113e5761113e612ff9565b9050604002016020013560085f88888581811061115d5761115d612ff9565b6111739260206040909202019081019150612c6e565b6001600160a01b0316815260208101919091526040015f205560098686838181106111a0576111a0612ff9565b6111b69260206040909202019081019150612c6e565b8154600180820184555f93845260209093200180546001600160a01b0319166001600160a01b039290921691909117905501611124565b5060038390556040518381527f5e1ff954b5e5257e9ee5d4cb07059e8f5e69b1aaaf9911e5d8d90a6894de9c219060200160405180910390a15050505050565b6001546001600160a01b03163314611258576040516356b381a560e01b815260040160405180910390fd5b5f81900361127957604051631121aa8d60e01b815260040160405180910390fd5b5f6112835f6121ab565b600b549091505f5b818110156112d65782600a5f600b84815481106112aa576112aa612ff9565b5f9182526020808320909101546001600160a01b0316835282019290925260400190205560010161128b565b506112e2600b5f612aa2565b825f5b81811015611432575f86868381811061130057611300612ff9565b6113169260206040909202019081019150612c6e565b5f54604051633af32abf60e01b81526001600160a01b038084166004830152929350911690633af32abf90602401602060405180830381865afa15801561135f573d5f803e3d5ffd5b505050506040513d601f19601f820116820180604052508101906113839190612fa6565b6113ab5760405163751dff9760e11b81526001600160a01b03821660048201526024016108bf565b8686838181106113bd576113bd612ff9565b6001600160a01b039093165f818152600a60209081526040808320960294909401939093013590935550600b805460018181018355919092527f0175b7a638427703f0dbe7bb9bbf987a2551717b34e79f33b5b1008d1fa01db990910180546001600160a01b031916909217909155016112e5565b5060405133907f2d47a742b8d7df7c1fc5a9a631b206b364e6cb2722490759f63bb3ab14b132e0905f90a25050505050565b5f33610871818585611edc565b5f8054906101000a90046001600160a01b03166001600160a01b0316633a0dad8e6040518163ffffffff1660e01b8152600401602060405180830381865afa1580156114bf573d5f803e3d5ffd5b505050506040513d601f19601f820116820180604052508101906114e39190612fde565b6001600160a01b0316336001600160a01b03161461151457604051631af2ab4f60e31b815260040160405180910390fd5b61151c611ce0565b6007545f5b81811015610d7c575f6007828154811061153d5761153d612ff9565b5f9182526020808320909101546001600160a01b03168083526005909152604082208054929055915061157030826121b7565b5f61157a82610853565b9050611584610d96565b60405163a9059cbb60e01b81526001600160a01b03858116600483015260248201849052919091169063a9059cbb906044016020604051808303815f875af11580156115d2573d5f803e3d5ffd5b505050506040513d601f19601f820116820180604052508101906115f69190612fa6565b611613576040516312171d8360e31b815260040160405180910390fd5b60408051838152602081018690526001600160a01b038516917febad37b830b1857ef9af5983fc20dc0ded12dc472ba1e22e06fd3a9465b4506c910160405180910390a2505050600101611521565b5f61085e826001611b2b565b5f604051628a595160e01b815260040160405180910390fd5b5f604051630ad8521960e31b815260040160405180910390fd5b6116a9611ce0565b805f036116b85761089e610d96565b335f908152600460205260409020548111156116e7576040516332194fd360e21b815260040160405180910390fd5b335f908152600460205260408120805483929061170590849061300d565b90915550506006545f611716610d96565b60405163a9059cbb60e01b8152336004820152602481018590526001600160a01b03919091169063a9059cbb906044016020604051808303815f875af1158015611762573d5f803e3d5ffd5b505050506040513d601f19601f820116820180604052508101906117869190612fa6565b9050806117a6576040516312171d8360e31b815260040160405180910390fd5b604080518481526020810184905233917f2b19ac8271899522bfff26e405c20643af4cdf99b525ef2cd8cde689644874ae910160405180910390a25050610a3d60015f805160206132f283398151915255565b6007545f908190815b818110156118585760055f6007838154811061182057611820612ff9565b5f9182526020808320909101546001600160a01b0316835282019290925260400190205461184e9084612f93565b9250600101611802565b509092915050565b5f61085e825f611c18565b5f61085e61187883610e1e565b5f611b2b565b6006545f908190815b818110156118585760045f600683815481106118a5576118a5612ff9565b5f9182526020808320909101546001600160a01b031683528201929092526040019020546118d39084612f93565b9250600101611887565b6009546060908190806001600160401b038111156118fd576118fd612c89565b604051908082528060200260200182016040528015611926578160200160208202803683370190505b509250806001600160401b0381111561194157611941612c89565b60405190808252806020026020018201604052801561196a578160200160208202803683370190505b5091505f5b81811015611a25575f6009828154811061198b5761198b612ff9565b905f5260205f20015f9054906101000a90046001600160a01b03169050808583815181106119bb576119bb612ff9565b60200260200101906001600160a01b031690816001600160a01b03168152505060085f826001600160a01b03166001600160a01b031681526020019081526020015f2054848381518110611a1157611a11612ff9565b60209081029190910101525060010161196f565b50509091565b5f61085e82610e1e565b6001600160a01b039182165f9081527f52c63247e1f47db19d5ce0460030c497f067ca4cebf71ba98eeadabe20bace016020908152604080832093909416825291909152205490565b5f807f237e158222e3e6968b72b9db0d8043aacf074ad9f650f0d1606b4d82ee432c00610dba565b611aae612141565b7f237e158222e3e6968b72b9db0d8043aacf074ad9f650f0d1606b4d82ee432c0080546001600160a01b0319166001600160a01b0383169081178255611af2610fb0565b6001600160a01b03167f38d16b8cac22d99fc7c124b9cd0de2d3fa1faef420bfe791d8c362d765e2270060405160405180910390a35050565b5f80611b557f52c63247e1f47db19d5ce0460030c497f067ca4cebf71ba98eeadabe20bace025490565b90505f805f9054906101000a90046001600160a01b03166001600160a01b031663b71ee4fc6040518163ffffffff1660e01b8152600401602060405180830381865afa158015611ba7573d5f803e3d5ffd5b505050506040513d601f19601f82011682018060405250810190611bcb9190613020565b9050611bfd6003546001611bdf9190612f93565b611bea83600a613123565b611bf49085612f93565b879190876121eb565b95945050505050565b611c13838383600161222d565b505050565b5f80611c427f52c63247e1f47db19d5ce0460030c497f067ca4cebf71ba98eeadabe20bace025490565b90505f805f9054906101000a90046001600160a01b03166001600160a01b031663b71ee4fc6040518163ffffffff1660e01b8152600401602060405180830381865afa158015611c94573d5f803e3d5ffd5b505050506040513d601f19601f82011682018060405250810190611cb89190613020565b9050611bfd611cc882600a613123565b611cd29084612f93565b600354611bf4906001612f93565b5f805160206132f2833981519152805460011901611d1157604051633ee5aeb560e01b815260040160405180910390fd5b60029055565b60015f805160206132f283398151915255565b5f807ff0c57e16840df040f15088dc2f81fe391c3923bec73e23a9662efc9c229c6a0061085e565b611d5a612311565b6001600160a01b038416611d8157604051639c6bb9f560e01b815260040160405180910390fd5b6001600160a01b038316611da857604051636a485a5b60e11b815260040160405180910390fd5b611db28282612336565b611e1a836001600160a01b0316637158da7c6040518163ffffffff1660e01b8152600401602060405180830381865afa158015611df1573d5f803e3d5ffd5b505050506040513d601f19601f82011682018060405250810190611e159190612fde565b612348565b611e22612359565b611e2b84612369565b611e3361237a565b611e3b61237a565b5050600280546001600160a01b03199081163317909155600180546001600160a01b039485169083161790555f8054929093169116178155600355565b5f611e838484611a35565b90505f19811015611ed65781811015611ec857604051637dc7a0d960e11b81526001600160a01b038416600482015260248101829052604481018390526064016108bf565b611ed684848484035f61222d565b50505050565b6001600160a01b038316611f0557604051634b637e8f60e11b81525f60048201526024016108bf565b6001600160a01b038216611f2e5760405163ec442f0560e01b81525f60048201526024016108bf565b611c13838383612382565b6001600160a01b038216611f625760405163ec442f0560e01b81525f60048201526024016108bf565b610de55f8383612382565b306001600160a01b037f0000000000000000000000000000000000000000000000000000000000000000161480611ff357507f00000000000000000000000000000000000000000000000000000000000000006001600160a01b0316611fe75f805160206132d2833981519152546001600160a01b031690565b6001600160a01b031614155b15610d945760405163703e46dd60e11b815260040160405180910390fd5b6001546001600160a01b03163314610a3d576040516356b381a560e01b815260040160405180910390fd5b816001600160a01b03166352d1902d6040518163ffffffff1660e01b8152600401602060405180830381865afa925050508015612096575060408051601f3d908101601f1916820190925261209391810190613131565b60015b6120be57604051634c9c8ce360e01b81526001600160a01b03831660048201526024016108bf565b5f805160206132d283398151915281146120ee57604051632a87526960e21b8152600481018290526024016108bf565b611c1383836124bb565b306001600160a01b037f00000000000000000000000000000000000000000000000000000000000000001614610d945760405163703e46dd60e11b815260040160405180910390fd5b3361214a610fb0565b6001600160a01b031614610d945760405163118cdaa760e01b81523360048201526024016108bf565b7f237e158222e3e6968b72b9db0d8043aacf074ad9f650f0d1606b4d82ee432c0080546001600160a01b0319168155610de582612510565b5f61085e826004612580565b6001600160a01b0382166121e057604051634b637e8f60e11b81525f60048201526024016108bf565b610de5825f83612382565b5f6122186121f88361262e565b801561221357505f848061220e5761220e613148565b868809115b151590565b61222386868661265a565b611bfd9190612f93565b5f805160206132b28339815191526001600160a01b0385166122645760405163e602df0560e01b81525f60048201526024016108bf565b6001600160a01b03841661228d57604051634a1406b160e11b81525f60048201526024016108bf565b6001600160a01b038086165f9081526001830160209081526040808320938816835292905220839055811561230a57836001600160a01b0316856001600160a01b03167f8c5be1e5ebec7d5bd14f71427d1e84f3dd0314c0f7b2291e5b200ac8c7c3b9258560405161230191815260200190565b60405180910390a35b5050505050565b61231961270a565b610d9457604051631afcd79f60e31b815260040160405180910390fd5b61233e612311565b610de58282612723565b612350612311565b610a3d81612773565b612361612311565b610d946127f6565b612371612311565b610a3d816127fe565b610d94612311565b5f805160206132b28339815191526001600160a01b0384166123bc5781816002015f8282546123b19190612f93565b9091555061242c9050565b6001600160a01b0384165f908152602082905260409020548281101561240e5760405163391434e360e21b81526001600160a01b038616600482015260248101829052604481018490526064016108bf565b6001600160a01b0385165f9081526020839052604090209083900390555b6001600160a01b03831661244a576002810180548390039055612468565b6001600160a01b0383165f9081526020829052604090208054830190555b826001600160a01b0316846001600160a01b03167fddf252ad1be2c89b69c2b068fc378daa952ba7f163c4a11628f55a4df523b3ef846040516124ad91815260200190565b60405180910390a350505050565b6124c48261282f565b6040516001600160a01b038316907fbc7cd75a20ee27fd9adebab32041f755214dbc6bffa90cc0225b39da2e5c2d3b905f90a280511561250857611c138282612892565b610de56128fb565b7f9016d09d72d40fdae2fd8ceac6b6234c7706214fd39c1cd1e609a0528c19930080546001600160a01b031981166001600160a01b03848116918217845560405192169182907f8be0079c531659141344cd1fd0a4f28419497f9722a3daafe3b4186f6b6457e0905f90a3505050565b5f807fed8d60e34876f751cc8b014c560745351147d9de11b9347c854e881b128ea6006001810154604051631ce2e8d760e31b8152600481018790526001600160f81b031960f887901b1660248201529192506001600160a01b03169063e71746b8906044016020604051808303815f875af1158015612602573d5f803e3d5ffd5b505050506040513d601f19601f820116820180604052508101906126269190613131565b949350505050565b5f60028260038111156126435761264361315c565b61264d9190613170565b60ff166001149050919050565b5f805f612667868661291a565b91509150815f0361268b5783818161268157612681613148565b0492505050610bc4565b8184116126a2576126a26003851502601118612936565b5f848688095f868103871696879004966002600389028118808a02820302808a02820302808a02820302808a02820302808a02820302808a02909103029181900381900460010185841190960395909502919093039390930492909217029150509392505050565b5f612713611d2a565b54600160401b900460ff16919050565b61272b612311565b5f805160206132b28339815191527f52c63247e1f47db19d5ce0460030c497f067ca4cebf71ba98eeadabe20bace0361276484826131e1565b5060048101611ed683826131e1565b61277b612311565b7f0773e532dfede91f04b12a73d3d2acd361424f41f76b4fb79f090161e36b4e005f806127a784612947565b91509150816127b75760126127b9565b805b83546001600160a81b031916600160a01b60ff92909216919091026001600160a01b031916176001600160a01b0394909416939093179091555050565b611d17612311565b612806612311565b6001600160a01b038116610fa757604051631e4fbdf760e01b81525f60048201526024016108bf565b806001600160a01b03163b5f0361286457604051634c9c8ce360e01b81526001600160a01b03821660048201526024016108bf565b5f805160206132d283398151915280546001600160a01b0319166001600160a01b0392909216919091179055565b60605f80846001600160a01b0316846040516128ae919061329b565b5f60405180830381855af49150503d805f81146128e6576040519150601f19603f3d011682016040523d82523d5f602084013e6128eb565b606091505b5091509150611bfd858383612a1d565b3415610d945760405163b398979f60e01b815260040160405180910390fd5b5f805f1983850993909202808410938190039390930393915050565b634e487b715f52806020526024601cfd5b60408051600481526024810182526020810180516001600160e01b031663313ce56760e01b17905290515f918291829182916001600160a01b0387169161298d9161329b565b5f60405180830381855afa9150503d805f81146129c5576040519150601f19603f3d011682016040523d82523d5f602084013e6129ca565b606091505b50915091508180156129de57506020815110155b15612a11575f818060200190518101906129f89190613131565b905060ff8111612a0f576001969095509350505050565b505b505f9485945092505050565b606082612a3257612a2d82612a79565b610bc4565b8151158015612a4957506001600160a01b0384163b155b15612a7257604051639996b31560e01b81526001600160a01b03851660048201526024016108bf565b5080610bc4565b805115612a895780518082602001fd5b60405163d6bda27560e01b815260040160405180910390fd5b5080545f8255905f5260205f2090810190610a3d91905b80821115612acc575f8155600101612ab9565b5090565b602081525f82518060208401528060208501604085015e5f604082850101526040601f19601f83011684010191505092915050565b5f60208284031215612b15575f80fd5b5035919050565b6001600160a01b0381168114610a3d575f80fd5b5f8060408385031215612b41575f80fd5b8235612b4c81612b1c565b946020939093013593505050565b5f8083601f840112612b6a575f80fd5b5081356001600160401b03811115612b80575f80fd5b602083019150836020828501011115612b97575f80fd5b9250929050565b5f805f805f8060808789031215612bb3575f80fd5b8635612bbe81612b1c565b95506020870135612bce81612b1c565b945060408701356001600160401b03811115612be8575f80fd5b612bf489828a01612b5a565b90955093505060608701356001600160401b03811115612c12575f80fd5b612c1e89828a01612b5a565b979a9699509497509295939492505050565b5f805f60608486031215612c42575f80fd5b8335612c4d81612b1c565b92506020840135612c5d81612b1c565b929592945050506040919091013590565b5f60208284031215612c7e575f80fd5b8135610bc481612b1c565b634e487b7160e01b5f52604160045260245ffd5b5f8060408385031215612cae575f80fd5b8235612cb981612b1c565b915060208301356001600160401b03811115612cd3575f80fd5b8301601f81018513612ce3575f80fd5b80356001600160401b03811115612cfc57612cfc612c89565b604051601f8201601f19908116603f011681016001600160401b0381118282101715612d2a57612d2a612c89565b604052818152828201602001871015612d41575f80fd5b816020840160208301375f602083830101528093505050509250929050565b5f8060408385031215612d71575f80fd5b823591506020830135612d8381612b1c565b809150509250929050565b5f8083601f840112612d9e575f80fd5b5081356001600160401b03811115612db4575f80fd5b6020830191508360208260061b8501011115612b97575f80fd5b5f805f60408486031215612de0575f80fd5b83356001600160401b03811115612df5575f80fd5b612e0186828701612d8e565b909790965060209590950135949350505050565b5f8060208385031215612e26575f80fd5b82356001600160401b03811115612e3b575f80fd5b612e4785828601612d8e565b90969095509350505050565b5f805f60608486031215612e65575f80fd5b833592506020840135612e7781612b1c565b91506040840135612e8781612b1c565b809150509250925092565b604080825283519082018190525f9060208501906060840190835b81811015612ed45783516001600160a01b0316835260209384019390920191600101612ead565b5050838103602080860191909152855180835291810192508501905f5b81811015612f0f578251845260209384019390920191600101612ef1565b50919695505050505050565b5f8060408385031215612f2c575f80fd5b8235612f3781612b1c565b91506020830135612d8381612b1c565b600181811c90821680612f5b57607f821691505b602082108103612f7957634e487b7160e01b5f52602260045260245ffd5b50919050565b634e487b7160e01b5f52601160045260245ffd5b8082018082111561085e5761085e612f7f565b5f60208284031215612fb6575f80fd5b81518015158114610bc4575f80fd5b60ff818116838216019081111561085e5761085e612f7f565b5f60208284031215612fee575f80fd5b8151610bc481612b1c565b634e487b7160e01b5f52603260045260245ffd5b8181038181111561085e5761085e612f7f565b5f60208284031215613030575f80fd5b815160ff81168114610bc4575f80fd5b6001815b600184111561307b5780850481111561305f5761305f612f7f565b600184161561306d57908102905b60019390931c928002613044565b935093915050565b5f826130915750600161085e565b8161309d57505f61085e565b81600181146130b357600281146130bd576130d9565b600191505061085e565b60ff8411156130ce576130ce612f7f565b50506001821b61085e565b5060208310610133831016604e8410600b84101617156130fc575081810a61085e565b6131085f198484613040565b805f190482111561311b5761311b612f7f565b029392505050565b5f610bc460ff841683613083565b5f60208284031215613141575f80fd5b5051919050565b634e487b7160e01b5f52601260045260245ffd5b634e487b7160e01b5f52602160045260245ffd5b5f60ff83168061318e57634e487b7160e01b5f52601260045260245ffd5b8060ff84160691505092915050565b601f821115611c1357805f5260205f20601f840160051c810160208510156131c25750805b601f840160051c820191505b8181101561230a575f81556001016131ce565b81516001600160401b038111156131fa576131fa612c89565b61320e816132088454612f47565b8461319d565b6020601f821160018114613240575f83156132295750848201515b5f19600385901b1c1916600184901b17845561230a565b5f84815260208120601f198516915b8281101561326f578785015182556020948501946001909201910161324f565b508482101561328c57868401515f19600387901b60f8161c191681555b50505050600190811b01905550565b5f82518060208501845e5f92019182525091905056fe52c63247e1f47db19d5ce0460030c497f067ca4cebf71ba98eeadabe20bace00360894a13ba1a3210667c828492db98dca3e2076cc3735a920a3ca505d382bbc9b779b17422d0df92223018b32b4d1fa46e071723d6817e2486d003becc55f00a264697066735822122083f72667874d7e69d721a80ccf5269e5952ffe876f347fb9406413be1b6141da64736f6c634300081a0033",
  "linkReferences": {},
  "deployedLinkReferences": {}
}