{
  "_format": "hh-sol-artifact-1",
  "contractName": "VaultImplementations",
  "sourceName": "contracts/helpers/VaultImplementations.sol",
  "abi": [
    {
      "inputs": [],
      "stateMutability": "nonpayable",
      "type": "constructor"
    },
    {
      "inputs": [],
      "name": "ENCRYPTED_VAULT_IMPLEMENTATION",
      "outputs": [
        {
          "internalType": "address",
          "name": "",
          "type": "address"
        }
      ],
      "stateMutability": "view",
      "type": "function"
    },
    {
      "inputs": [],
      "name": "TRANSPARENT_VAULT_IMPLEMENTATION",
      "outputs": [
        {
          "internalType": "address",
          "name": "",
          "type": "address"
        }
      ],
      "stateMutability": "view",
      "type": "function"
    }
  ],
  "bytecode": "0x60c0604052348015600e575f5ffd5b506040516019906071565b604051809103905ff0801580156031573d5f5f3e3d5ffd5b506001600160a01b0316608052604051604890607e565b604051809103905ff0801580156060573d5f5f3e3d5ffd5b506001600160a01b031660a052608b565b613ed48061017a83390190565b6144078061404e83390190565b60805160a05160d26100a85f395f607a01525f6038015260d25ff3fe6080604052348015600e575f5ffd5b50600436106030575f3560e01c8063292b2f86146034578063fb121699146076575b5f5ffd5b605a7f000000000000000000000000000000000000000000000000000000000000000081565b6040516001600160a01b03909116815260200160405180910390f35b605a7f00000000000000000000000000000000000000000000000000000000000000008156fea2646970667358221220f51e2082ea79e2b04bc53c23babdd9a16a47d7e77e5486dfc2747c0107bcce6e64736f6c634300081c003360a0604052306080523480156012575f5ffd5b50608051613e9b6100395f395f81816128410152818161286a01526129cc0152613e9b5ff3fe6080604052600436106102bf575f3560e01c806395d89b411161016f578063c63d75b6116100d8578063d5f3948811610092578063e30c39781161006d578063e30c3978146107ae578063e66f53b7146107c2578063ef8b30f7146106cc578063f2fde38b146107e1575f5ffd5b8063d5f3948814610751578063d905777e14610770578063dd62ed3e1461078f575f5ffd5b8063c63d75b61461048b578063c6e6f592146106cc578063cce4705b146106eb578063ce96cb771461070a578063d1699c2614610729578063d3d034581461073d575f5ffd5b8063b3d7f6b911610129578063b3d7f6b91461063e578063b460af941461065d578063b6eba65314610677578063ba0876521461065d578063c0b568e114610699578063c37fc8a8146106b8575f5ffd5b806395d89b4114610589578063a68a52671461059d578063a9059cbb146105bc578063aa9d3a60146105db578063ad3cb1cc146105ef578063b1bd7e2e1461061f575f5ffd5b806338d52e0f1161022b57806370a08231116101e557806379502c55116101c057806379502c551461054357806379ba5097146105615780638da5cb5b1461057557806394bf804d146104d2575f5ffd5b806370a08231146104f1578063715018a614610510578063745400c914610524575f5ffd5b806338d52e0f1461045f578063402d267d1461048b5780634cdad506146103075780634f1ef286146104ab57806352d1902d146104be5780636e553f65146104d2575f5ffd5b8063105444941161027c578063105444941461039557806318160ddd146103b45780632016a0d2146103e757806323b872dd14610406578063313ce5671461042557806333fdc5921461044b575f5ffd5b806301e1d114146102c357806306fdde03146102e657806307a2d13a14610307578063095ea7b3146103265780630a28a477146103555780630d1e666714610374575b5f5ffd5b3480156102ce575f5ffd5b506003545b6040519081526020015b60405180910390f35b3480156102f1575f5ffd5b506102fa610800565b6040516102dd919061358c565b348015610312575f5ffd5b506102d36103213660046135c1565b6108c0565b348015610331575f5ffd5b506103456103403660046135ec565b6108d1565b60405190151581526020016102dd565b348015610360575f5ffd5b506102d361036f3660046135c1565b6108e8565b34801561037f575f5ffd5b5061039361038e3660046135c1565b6108f4565b005b3480156103a0575f5ffd5b506103936103af366004613656565b610c0e565b3480156103bf575f5ffd5b507f52c63247e1f47db19d5ce0460030c497f067ca4cebf71ba98eeadabe20bace02546102d3565b3480156103f2575f5ffd5b506103936104013660046136da565b610d7b565b348015610411575f5ffd5b5061034561042036600461376c565b610ee1565b348015610430575f5ffd5b50610439610f06565b60405160ff90911681526020016102dd565b348015610456575f5ffd5b50610393610f48565b34801561046a575f5ffd5b506104736111d3565b6040516001600160a01b0390911681526020016102dd565b348015610496575f5ffd5b506102d36104a53660046137aa565b505f1990565b6103936104b93660046137d9565b611207565b3480156104c9575f5ffd5b506102d3611226565b3480156104dd575f5ffd5b506102d36104ec36600461389c565b611241565b3480156104fc575f5ffd5b506102d361050b3660046137aa565b61125b565b34801561051b575f5ffd5b50610393611281565b34801561052f575f5ffd5b5061039361053e3660046135c1565b611292565b34801561054e575f5ffd5b505f54610473906001600160a01b031681565b34801561056c575f5ffd5b50610393611509565b348015610580575f5ffd5b5061047361154e565b348015610594575f5ffd5b506102fa611576565b3480156105a8575f5ffd5b506102d36105b73660046138ca565b6115b4565b3480156105c7575f5ffd5b506103456105d63660046135ec565b61160d565b3480156105e6575f5ffd5b5061039361161a565b3480156105fa575f5ffd5b506102fa604051806040016040528060058152602001640352e302e360dc1b81525081565b34801561062a575f5ffd5b50610393610639366004613903565b611947565b348015610649575f5ffd5b506102d36106583660046135c1565b611bf9565b348015610668575f5ffd5b506102d36104ec366004613941565b348015610682575f5ffd5b5061068b611c05565b6040516102dd929190613975565b3480156106a4575f5ffd5b506103936106b33660046135c1565b611d19565b3480156106c3575f5ffd5b50600b546102d3565b3480156106d7575f5ffd5b506102d36106e63660046135c1565b611f59565b3480156106f6575f5ffd5b506103936107053660046135c1565b611f64565b348015610715575f5ffd5b506102d36107243660046137aa565b61219b565b348015610734575f5ffd5b50600a546102d3565b348015610748575f5ffd5b5061068b6121ae565b34801561075c575f5ffd5b50600254610473906001600160a01b031681565b34801561077b575f5ffd5b506102d361078a3660046137aa565b6122bc565b34801561079a575f5ffd5b506102d36107a93660046139fe565b6122c6565b3480156107b9575f5ffd5b5061047361230f565b3480156107cd575f5ffd5b50600154610473906001600160a01b031681565b3480156107ec575f5ffd5b506103936107fb3660046137aa565b612337565b7f52c63247e1f47db19d5ce0460030c497f067ca4cebf71ba98eeadabe20bace0380546060915f516020613e065f395f51905f529161083e90613a2a565b80601f016020809104026020016040519081016040528092919081815260200182805461086a90613a2a565b80156108b55780601f1061088c576101008083540402835291602001916108b5565b820191905f5260205f20905b81548152906001019060200180831161089857829003601f168201915b505050505091505090565b5f6108cb825f6123bc565b92915050565b5f336108de8185856123ca565b5060019392505050565b5f6108cb8260016123dc565b6108fc612438565b805f036109355761090b6111d3565b604051636b30633560e01b81526001600160a01b0390911660048201526024015b60405180910390fd5b5f5f9054906101000a90046001600160a01b03166001600160a01b031663edcf9c1f6040518163ffffffff1660e01b8152600401602060405180830381865afa158015610984573d5f5f3e3d5ffd5b505050506040513d601f19601f820116820180604052508101906109a89190613a62565b6109c5576040516312aecd8160e01b815260040160405180910390fd5b5f6109ce6111d3565b6040516370a0823160e01b81523360048201526001600160a01b0391909116906370a0823190602401602060405180830381865afa158015610a12573d5f5f3e3d5ffd5b505050506040513d601f19601f82011682018060405250810190610a369190613a81565b905080821115610a5f57338183604051632e2a182f60e11b815260040161092c93929190613a98565b5f610a686111d3565b6001600160a01b03166323b872dd335f5f9054906101000a90046001600160a01b03166001600160a01b0316633a0dad8e6040518163ffffffff1660e01b8152600401602060405180830381865afa158015610ac6573d5f5f3e3d5ffd5b505050506040513d601f19601f82011682018060405250810190610aea9190613ab9565b6040516001600160e01b031960e085901b1681526001600160a01b03928316600482015291166024820152604481018690526064016020604051808303815f875af1158015610b3b573d5f5f3e3d5ffd5b505050506040513d601f19601f82011682018060405250810190610b5f9190613a62565b905080610b7f576040516312171d8360e31b815260040160405180910390fd5b5f610b8b60043361246f565b9150610ba6905033610b9d8684613ae8565b60049190612495565b5083600a5f828254610bb89190613ae8565b909155505060405184815233907f08d79f77ab5f78e7e780abb1f7ac9e9923340d5bae78f6e83e7999905b248ea29060200160405180910390a2505050610c0b60015f516020613e465f395f51905f5255565b50565b5f5f9054906101000a90046001600160a01b03166001600160a01b0316633a0dad8e6040518163ffffffff1660e01b8152600401602060405180830381865afa158015610c5d573d5f5f3e3d5ffd5b505050506040513d601f19601f82011682018060405250810190610c819190613ab9565b6001600160a01b0316336001600160a01b031614610cb257604051631a27eac360e11b815260040160405180910390fd5b610cbc600d6124bd565b815f5b81811015610d3c57610d33858583818110610cdc57610cdc613afb565b610cf292602060409092020190810191506137aa565b868684818110610d0457610d04613afb565b9050604002016020016020810190610d1c9190613b0f565b63ffffffff16600d6124959092919063ffffffff16565b50600101610cbf565b5060038290556040518281527f5e1ff954b5e5257e9ee5d4cb07059e8f5e69b1aaaf9911e5d8d90a6894de9c219060200160405180910390a150505050565b5f610d846124c6565b805490915060ff600160401b82041615906001600160401b03165f81158015610daa5750825b90505f826001600160401b03166001148015610dc55750303b155b905081158015610dd3575080155b15610df15760405163f92ee8a960e01b815260040160405180910390fd5b845467ffffffffffffffff191660011785558315610e1b57845460ff60401b1916600160401b1785555b610e8e8b8b8b8b8080601f0160208091040260200160405190810160405280939291908181526020018383808284375f9201919091525050604080516020601f8f018190048102820181019092528d815292508d91508c90819084018382808284375f920191909152506124ee92505050565b8315610ed457845460ff60401b19168555604051600181527fc7f505b2f371ae2175ee4913f4499e1f2633a7b5936321eed1cdaeb6115181d29060200160405180910390a15b5050505050505050505050565b5f33610eee858285612728565b610ef9858585612779565b60019150505b9392505050565b5f807f0773e532dfede91f04b12a73d3d2acd361424f41f76b4fb79f090161e36b4e0090505f8154610f429190600160a01b900460ff16613b32565b91505090565b5f5f9054906101000a90046001600160a01b03166001600160a01b0316633a0dad8e6040518163ffffffff1660e01b8152600401602060405180830381865afa158015610f97573d5f5f3e3d5ffd5b505050506040513d601f19601f82011682018060405250810190610fbb9190613ab9565b6001600160a01b0316336001600160a01b031614610fec57604051631a27eac360e11b815260040160405180910390fd5b610ff4612438565b5f610fff60046127d6565b90505f816001600160401b0381111561101a5761101a6137c5565b604051908082528060200260200182016040528015611043578160200160208202803683370190505b5090505f826001600160401b0381111561105f5761105f6137c5565b604051908082528060200260200182016040528015611088578160200160208202803683370190505b5090505f5b83811015611101575f806110a26004846127e0565b91509150818584815181106110b9576110b9613afb565b60200260200101906001600160a01b031690816001600160a01b031681525050808484815181106110ec576110ec613afb565b6020908102919091010152505060010161108d565b505f5b838110156111b6575f83828151811061111f5761111f613afb565b602002602001015190505f83838151811061113c5761113c613afb565b602002602001015190505f61115082611f59565b905061115d6004846127ee565b506111688382612802565b826001600160a01b03167f85a190caa61692b36b63a55e069330d18ab9af179fed7a25c16a4262bc63b7d2836040516111a391815260200190565b60405180910390a2505050600101611104565b50505f600a55505060015f516020613e465f395f51905f5255565b565b5f807f0773e532dfede91f04b12a73d3d2acd361424f41f76b4fb79f090161e36b4e005b546001600160a01b031692915050565b61120f612836565b611218826128da565b6112228282612905565b5050565b5f61122f6129c1565b505f516020613e265f395f51905f5290565b5f60405163125ad87760e31b815260040160405180910390fd5b6001600160a01b03165f9081525f516020613e065f395f51905f52602052604090205490565b611289612a0a565b6111d15f612a3c565b805f036112b457604051636b30633560e01b815230600482015260240161092c565b5f5f9054906101000a90046001600160a01b03166001600160a01b031663edcf9c1f6040518163ffffffff1660e01b8152600401602060405180830381865afa158015611303573d5f5f3e3d5ffd5b505050506040513d601f19601f820116820180604052508101906113279190613a62565b611344576040516312aecd8160e01b815260040160405180910390fd5b5f61134e3361125b565b90508082111561137757338183604051632e2a182f60e11b815260040161092c93929190613a98565b5f306001600160a01b03166323b872dd335f5f9054906101000a90046001600160a01b03166001600160a01b0316633a0dad8e6040518163ffffffff1660e01b8152600401602060405180830381865afa1580156113d7573d5f5f3e3d5ffd5b505050506040513d601f19601f820116820180604052508101906113fb9190613ab9565b6040516001600160e01b031960e085901b1681526001600160a01b03928316600482015291166024820152604481018690526064016020604051808303815f875af115801561144c573d5f5f3e3d5ffd5b505050506040513d601f19601f820116820180604052508101906114709190613a62565b905080611490576040516312171d8360e31b815260040160405180910390fd5b5f61149c60073361246f565b91506114b79050336114ae8684613ae8565b60079190612495565b5083600b5f8282546114c99190613ae8565b909155505060405184815233907ff7774b688d56120b783560a913ee60792a73dfd511812b7be5eccf10d08c66899060200160405180910390a250505050565b338061151361230f565b6001600160a01b0316146115455760405163118cdaa760e01b81526001600160a01b038216600482015260240161092c565b610c0b81612a3c565b5f807f9016d09d72d40fdae2fd8ceac6b6234c7706214fd39c1cd1e609a0528c1993006111f7565b7f52c63247e1f47db19d5ce0460030c497f067ca4cebf71ba98eeadabe20bace0480546060915f516020613e065f395f51905f529161083e90613a2a565b5f5f6115de7f52c63247e1f47db19d5ce0460030c497f067ca4cebf71ba98eeadabe20bace025490565b90506116046115ee856001613ae8565b600c546115fb9084613ae8565b87919086612a74565b95945050505050565b5f336108de818585612779565b5f5f9054906101000a90046001600160a01b03166001600160a01b0316633a0dad8e6040518163ffffffff1660e01b8152600401602060405180830381865afa158015611669573d5f5f3e3d5ffd5b505050506040513d601f19601f8201168201806040525081019061168d9190613ab9565b6001600160a01b0316336001600160a01b0316146116be57604051631a27eac360e11b815260040160405180910390fd5b6116c6612438565b5f6116d160076127d6565b90505f816001600160401b038111156116ec576116ec6137c5565b604051908082528060200260200182016040528015611715578160200160208202803683370190505b5090505f826001600160401b03811115611731576117316137c5565b60405190808252806020026020018201604052801561175a578160200160208202803683370190505b5090505f5b838110156117d3575f806117746007846127e0565b915091508185848151811061178b5761178b613afb565b60200260200101906001600160a01b031690816001600160a01b031681525050808484815181106117be576117be613afb565b6020908102919091010152505060010161175f565b505f600b8190555b8381101561192d575f8382815181106117f6576117f6613afb565b602002602001015190505f83838151811061181357611813613afb565b602002602001015190506118318260076127ee90919063ffffffff16565b5061183c3082612ab6565b5f611846826108c0565b90506118506111d3565b60405163a9059cbb60e01b81526001600160a01b03858116600483015260248201849052919091169063a9059cbb906044016020604051808303815f875af115801561189e573d5f5f3e3d5ffd5b505050506040513d601f19601f820116820180604052508101906118c29190613a62565b6118df576040516312171d8360e31b815260040160405180910390fd5b826001600160a01b03167f44b2ff9ffcefe2052a8afdbed44a04bf3db4592ae90c6b96c818bd28573e41e88360405161191a91815260200190565b60405180910390a25050506001016117db565b505050506111d160015f516020613e465f395f51905f5255565b6001546001600160a01b0316331461197257604051631a27eac360e11b815260040160405180910390fd5b5f81900361199357604051631121aa8d60e01b815260040160405180910390fd5b61199d60106124bd565b5f81815b81811015611b27575f8585838181106119bc576119bc613afb565b6119d292602060409092020190810191506137aa565b90505f8686848181106119e7576119e7613afb565b90506040020160200160208101906119ff9190613b0f565b5f54604051633af32abf60e01b81526001600160a01b038581166004830152929350911690633af32abf90602401602060405180830381865afa158015611a48573d5f5f3e3d5ffd5b505050506040513d601f19601f82011682018060405250810190611a6c9190613a62565b611a945760405163751dff9760e11b81526001600160a01b038316600482015260240161092c565b8063ffffffff165f03611ac557604051636b30633560e01b81526001600160a01b038316600482015260240161092c565b5f611adb60108463ffffffff8086169061249516565b905080611b06576040516346bdabe160e01b81526001600160a01b038416600482015260240161092c565b611b1663ffffffff831687613ae8565b955050600190920191506119a19050565b505f5f5f9054906101000a90046001600160a01b03166001600160a01b031663d1717c7d6040518163ffffffff1660e01b8152600401602060405180830381865afa158015611b78573d5f5f3e3d5ffd5b505050506040513d601f19601f82011682018060405250810190611b9c9190613b4b565b9050611ba981600a613c4e565b8314611bc857604051639006dd2760e01b815260040160405180910390fd5b60405133907f2d47a742b8d7df7c1fc5a9a631b206b364e6cb2722490759f63bb3ab14b132e0905f90a25050505050565b5f6108cb8260016123bc565b6060805f611c1360106127d6565b9050806001600160401b03811115611c2d57611c2d6137c5565b604051908082528060200260200182016040528015611c56578160200160208202803683370190505b509250806001600160401b03811115611c7157611c716137c5565b604051908082528060200260200182016040528015611c9a578160200160208202803683370190505b5091505f5b81811015611d13575f80611cb46010846127e0565b9150915081868481518110611ccb57611ccb613afb565b60200260200101906001600160a01b031690816001600160a01b03168152505080858481518110611cfe57611cfe613afb565b60209081029190910101525050600101611c9f565b50509091565b611d21612438565b805f03611d305761090b6111d3565b5f5f9054906101000a90046001600160a01b03166001600160a01b031663edcf9c1f6040518163ffffffff1660e01b8152600401602060405180830381865afa158015611d7f573d5f5f3e3d5ffd5b505050506040513d601f19601f82011682018060405250810190611da39190613a62565b611dc0576040516312aecd8160e01b815260040160405180910390fd5b5f611dcc60043361246f565b91505081811015611df0576040516332194fd360e21b815260040160405180910390fd5b5f5f9054906101000a90046001600160a01b03166001600160a01b0316633a0dad8e6040518163ffffffff1660e01b8152600401602060405180830381865afa158015611e3f573d5f5f3e3d5ffd5b505050506040513d601f19601f82011682018060405250810190611e639190613ab9565b6040516351edffb160e01b8152336004820152602481018490526001600160a01b0391909116906351edffb1906044015f604051808303815f87803b158015611eaa575f5ffd5b505af1158015611ebc573d5f5f3e3d5ffd5b505050505f8282611ecd9190613c5c565b9050805f03611ee757611ee16004336127ee565b50611ef5565b611ef360043383612495565b505b82600a5f828254611f069190613c5c565b909155505060405183815233907f96a9a6886cdf3047a125454218a23d3961fd3a78643123b248a9d106d0ac94fd906020015b60405180910390a25050610c0b60015f516020613e465f395f51905f5255565b5f6108cb825f6123dc565b611f6c612438565b805f03611f8e57604051636b30633560e01b815230600482015260240161092c565b5f5f9054906101000a90046001600160a01b03166001600160a01b031663edcf9c1f6040518163ffffffff1660e01b8152600401602060405180830381865afa158015611fdd573d5f5f3e3d5ffd5b505050506040513d601f19601f820116820180604052508101906120019190613a62565b61201e576040516312aecd8160e01b815260040160405180910390fd5b5f61202a60073361246f565b9150508181101561204e576040516312ea1f4960e11b815260040160405180910390fd5b5f5f9054906101000a90046001600160a01b03166001600160a01b0316633a0dad8e6040518163ffffffff1660e01b8152600401602060405180830381865afa15801561209d573d5f5f3e3d5ffd5b505050506040513d601f19601f820116820180604052508101906120c19190613ab9565b6040516305f0c35960e51b8152336004820152602481018490526001600160a01b03919091169063be186b20906044015f604051808303815f87803b158015612108575f5ffd5b505af115801561211a573d5f5f3e3d5ffd5b505050505f828261212b9190613c5c565b9050805f036121455761213f6007336127ee565b50612153565b61215160073383612495565b505b82600b5f8282546121649190613c5c565b909155505060405183815233907f9cf37535785001dcc9767688232fcbc8698b3002d1207b50bc2afec3ff8934dc90602001611f39565b5f6108cb6121a88361125b565b5f6123bc565b6060805f6121bc600d6127d6565b9050806001600160401b038111156121d6576121d66137c5565b6040519080825280602002602001820160405280156121ff578160200160208202803683370190505b509250806001600160401b0381111561221a5761221a6137c5565b604051908082528060200260200182016040528015612243578160200160208202803683370190505b5091505f5b81811015611d13575f8061225d600d846127e0565b915091508186848151811061227457612274613afb565b60200260200101906001600160a01b031690816001600160a01b031681525050808584815181106122a7576122a7613afb565b60209081029190910101525050600101612248565b5f6108cb8261125b565b6001600160a01b039182165f9081527f52c63247e1f47db19d5ce0460030c497f067ca4cebf71ba98eeadabe20bace016020908152604080832093909416825291909152205490565b5f807f237e158222e3e6968b72b9db0d8043aacf074ad9f650f0d1606b4d82ee432c006111f7565b61233f612a0a565b7f237e158222e3e6968b72b9db0d8043aacf074ad9f650f0d1606b4d82ee432c0080546001600160a01b0319166001600160a01b038316908117825561238361154e565b6001600160a01b03167f38d16b8cac22d99fc7c124b9cd0de2d3fa1faef420bfe791d8c362d765e2270060405160405180910390a35050565b5f610eff83600354846115b4565b6123d78383836001612aea565b505050565b5f5f6124067f52c63247e1f47db19d5ce0460030c497f067ca4cebf71ba98eeadabe20bace025490565b9050612430600c54826124199190613ae8565b600354612427906001613ae8565b86919086612a74565b949350505050565b5f516020613e465f395f51905f5280546001190161246957604051633ee5aeb560e01b815260040160405180910390fd5b60029055565b5f808080612486866001600160a01b038716612bce565b909450925050505b9250929050565b5f612430846001600160a01b03851684612c06565b60015f516020613e465f395f51905f5255565b610c0b81612c22565b5f807ff0c57e16840df040f15088dc2f81fe391c3923bec73e23a9662efc9c229c6a006108cb565b6124f6612c6b565b6001600160a01b03841661251d5760405163e6c4247b60e01b815260040160405180910390fd5b6001600160a01b0383166125445760405163e6c4247b60e01b815260040160405180910390fd5b61254e8282612c90565b6125b6836001600160a01b0316637158da7c6040518163ffffffff1660e01b8152600401602060405180830381865afa15801561258d573d5f5f3e3d5ffd5b505050506040513d601f19601f820116820180604052508101906125b19190613ab9565b612ca2565b6125be612cb3565b6125c784612cc3565b6125cf612cd4565b6125d7612cd4565b60028054336001600160a01b0319918216179091556001805482166001600160a01b03878116919091179091555f805490921690851690811782556003829055600a829055600b82905560408051631c56369f60e21b81529051637158da7c916004808201926020929091908290030181865afa15801561265a573d5f5f3e3d5ffd5b505050506040513d601f19601f8201168201806040525081019061267e9190613ab9565b6001600160a01b031663313ce5676040518163ffffffff1660e01b8152600401602060405180830381865afa1580156126b9573d5f5f3e3d5ffd5b505050506040513d601f19601f820116820180604052508101906126dd9190613b4b565b905060128160ff16111561270457604051631c03248960e11b815260040160405180910390fd5b5f612710826012613c6f565b905061271d81600a613c4e565b600c55505050505050565b5f61273384846122c6565b90505f19811015612773578181101561276557828183604051637dc7a0d960e11b815260040161092c93929190613a98565b61277384848484035f612aea565b50505050565b6001600160a01b0383166127a257604051634b637e8f60e11b81525f600482015260240161092c565b6001600160a01b0382166127cb5760405163ec442f0560e01b81525f600482015260240161092c565b6123d7838383612cdc565b5f6108cb82612e02565b5f8080806124868686612e0c565b5f610eff836001600160a01b038416612e35565b6001600160a01b03821661282b5760405163ec442f0560e01b81525f600482015260240161092c565b6112225f8383612cdc565b306001600160a01b037f00000000000000000000000000000000000000000000000000000000000000001614806128bc57507f00000000000000000000000000000000000000000000000000000000000000006001600160a01b03166128b05f516020613e265f395f51905f52546001600160a01b031690565b6001600160a01b031614155b156111d15760405163703e46dd60e11b815260040160405180910390fd5b6001546001600160a01b03163314610c0b57604051631a27eac360e11b815260040160405180910390fd5b816001600160a01b03166352d1902d6040518163ffffffff1660e01b8152600401602060405180830381865afa92505050801561295f575060408051601f3d908101601f1916820190925261295c91810190613a81565b60015b61298757604051634c9c8ce360e01b81526001600160a01b038316600482015260240161092c565b5f516020613e265f395f51905f5281146129b757604051632a87526960e21b81526004810182905260240161092c565b6123d78383612e51565b306001600160a01b037f000000000000000000000000000000000000000000000000000000000000000016146111d15760405163703e46dd60e11b815260040160405180910390fd5b33612a1361154e565b6001600160a01b0316146111d15760405163118cdaa760e01b815233600482015260240161092c565b7f237e158222e3e6968b72b9db0d8043aacf074ad9f650f0d1606b4d82ee432c0080546001600160a01b031916815561122282612ea6565b5f612aa1612a8183612f16565b8015612a9c57505f8480612a9757612a97613c88565b868809115b151590565b612aac868686612f42565b6116049190613ae8565b6001600160a01b038216612adf57604051634b637e8f60e11b81525f600482015260240161092c565b611222825f83612cdc565b5f516020613e065f395f51905f526001600160a01b038516612b215760405163e602df0560e01b81525f600482015260240161092c565b6001600160a01b038416612b4a57604051634a1406b160e11b81525f600482015260240161092c565b6001600160a01b038086165f90815260018301602090815260408083209388168352929052208390558115612bc757836001600160a01b0316856001600160a01b03167f8c5be1e5ebec7d5bd14f71427d1e84f3dd0314c0f7b2291e5b200ac8c7c3b92585604051612bbe91815260200190565b60405180910390a35b5050505050565b5f818152600283016020526040812054819080612bfb57612bef8585612ff2565b92505f915061248e9050565b60019250905061248e565b5f82815260028401602052604081208290556124308484612ffd565b5f612c2c82612e02565b90505f5b81811015612c6157600283015f612c478584613008565b815260208101919091526040015f90812055600101612c30565b5061122282613013565b612c7361301c565b6111d157604051631afcd79f60e31b815260040160405180910390fd5b612c98612c6b565b6112228282613035565b612caa612c6b565b610c0b81613085565b612cbb612c6b565b6111d1613108565b612ccb612c6b565b610c0b81613110565b6111d1612c6b565b5f516020613e065f395f51905f526001600160a01b038416612d165781816002015f828254612d0b9190613ae8565b90915550612d739050565b6001600160a01b0384165f9081526020829052604090205482811015612d555784818460405163391434e360e21b815260040161092c93929190613a98565b6001600160a01b0385165f9081526020839052604090209083900390555b6001600160a01b038316612d91576002810180548390039055612daf565b6001600160a01b0383165f9081526020829052604090208054830190555b826001600160a01b0316846001600160a01b03167fddf252ad1be2c89b69c2b068fc378daa952ba7f163c4a11628f55a4df523b3ef84604051612df491815260200190565b60405180910390a350505050565b5f6108cb82613141565b5f8080612e198585613008565b5f81815260029690960160205260409095205494959350505050565b5f8181526002830160205260408120819055610eff838361314a565b612e5a82613155565b6040516001600160a01b038316907fbc7cd75a20ee27fd9adebab32041f755214dbc6bffa90cc0225b39da2e5c2d3b905f90a2805115612e9e576123d782826131b8565b611222613221565b7f9016d09d72d40fdae2fd8ceac6b6234c7706214fd39c1cd1e609a0528c19930080546001600160a01b031981166001600160a01b03848116918217845560405192169182907f8be0079c531659141344cd1fd0a4f28419497f9722a3daafe3b4186f6b6457e0905f90a3505050565b5f6002826003811115612f2b57612f2b613c9c565b612f359190613cb0565b60ff166001149050919050565b5f5f5f612f4f8686613240565b91509150815f03612f7357838181612f6957612f69613c88565b0492505050610eff565b818411612f8a57612f8a600385150260111861325c565b5f848688095f868103871696879004966002600389028118808a02820302808a02820302808a02820302808a02820302808a02820302808a02909103029181900381900460010185841190960395909502919093039390930492909217029150509392505050565b5f610eff838361326d565b5f610eff8383613284565b5f610eff83836132d0565b610c0b816132f6565b5f6130256124c6565b54600160401b900460ff16919050565b61303d612c6b565b5f516020613e065f395f51905f527f52c63247e1f47db19d5ce0460030c497f067ca4cebf71ba98eeadabe20bace036130768482613d21565b50600481016127738382613d21565b61308d612c6b565b7f0773e532dfede91f04b12a73d3d2acd361424f41f76b4fb79f090161e36b4e005f806130b98461334f565b91509150816130c95760126130cb565b805b83546001600160a81b031916600160a01b60ff92909216919091026001600160a01b031916176001600160a01b0394909416939093179091555050565b6124aa612c6b565b613118612c6b565b6001600160a01b03811661154557604051631e4fbdf760e01b81525f600482015260240161092c565b5f6108cb825490565b5f610eff8383613425565b806001600160a01b03163b5f0361318a57604051634c9c8ce360e01b81526001600160a01b038216600482015260240161092c565b5f516020613e265f395f51905f5280546001600160a01b0319166001600160a01b0392909216919091179055565b60605f5f846001600160a01b0316846040516131d49190613ddb565b5f60405180830381855af49150503d805f811461320c576040519150601f19603f3d011682016040523d82523d5f602084013e613211565b606091505b5091509150611604858383613508565b34156111d15760405163b398979f60e01b815260040160405180910390fd5b5f805f1983850993909202808410938190039390930393915050565b634e487b715f52806020526024601cfd5b5f8181526001830160205260408120541515610eff565b5f8181526001830160205260408120546132c957508154600181810184555f8481526020808220909301849055845484825282860190935260409020919091556108cb565b505f6108cb565b5f825f0182815481106132e5576132e5613afb565b905f5260205f200154905092915050565b5f6132ff825490565b90505f5b8181101561334857826001015f845f01838154811061332457613324613afb565b905f5260205f20015481526020019081526020015f205f9055806001019050613303565b50505f9055565b60408051600481526024810182526020810180516001600160e01b031663313ce56760e01b17905290515f918291829182916001600160a01b0387169161339591613ddb565b5f60405180830381855afa9150503d805f81146133cd576040519150601f19603f3d011682016040523d82523d5f602084013e6133d2565b606091505b50915091508180156133e657506020815110155b15613419575f818060200190518101906134009190613a81565b905060ff8111613417576001969095509350505050565b505b505f9485945092505050565b5f81815260018301602052604081205480156134ff575f613447600183613c5c565b85549091505f9061345a90600190613c5c565b90508082146134b9575f865f01828154811061347857613478613afb565b905f5260205f200154905080875f01848154811061349857613498613afb565b5f918252602080832090910192909255918252600188019052604090208390555b85548690806134ca576134ca613df1565b600190038181905f5260205f20015f90559055856001015f8681526020019081526020015f205f9055600193505050506108cb565b5f9150506108cb565b60608261351d5761351882613564565b610eff565b815115801561353457506001600160a01b0384163b155b1561355d57604051639996b31560e01b81526001600160a01b038516600482015260240161092c565b5080610eff565b80511561357357805160208201fd5b60405163d6bda27560e01b815260040160405180910390fd5b602081525f82518060208401528060208501604085015e5f604082850101526040601f19601f83011684010191505092915050565b5f602082840312156135d1575f5ffd5b5035919050565b6001600160a01b0381168114610c0b575f5ffd5b5f5f604083850312156135fd575f5ffd5b8235613608816135d8565b946020939093013593505050565b5f5f83601f840112613626575f5ffd5b5081356001600160401b0381111561363c575f5ffd5b6020830191508360208260061b850101111561248e575f5ffd5b5f5f5f60408486031215613668575f5ffd5b83356001600160401b0381111561367d575f5ffd5b61368986828701613616565b909790965060209590950135949350505050565b5f5f83601f8401126136ad575f5ffd5b5081356001600160401b038111156136c3575f5ffd5b60208301915083602082850101111561248e575f5ffd5b5f5f5f5f5f5f608087890312156136ef575f5ffd5b86356136fa816135d8565b9550602087013561370a816135d8565b945060408701356001600160401b03811115613724575f5ffd5b61373089828a0161369d565b90955093505060608701356001600160401b0381111561374e575f5ffd5b61375a89828a0161369d565b979a9699509497509295939492505050565b5f5f5f6060848603121561377e575f5ffd5b8335613789816135d8565b92506020840135613799816135d8565b929592945050506040919091013590565b5f602082840312156137ba575f5ffd5b8135610eff816135d8565b634e487b7160e01b5f52604160045260245ffd5b5f5f604083850312156137ea575f5ffd5b82356137f5816135d8565b915060208301356001600160401b0381111561380f575f5ffd5b8301601f8101851361381f575f5ffd5b80356001600160401b03811115613838576138386137c5565b604051601f8201601f19908116603f011681016001600160401b0381118282101715613866576138666137c5565b60405281815282820160200187101561387d575f5ffd5b816020840160208301375f602083830101528093505050509250929050565b5f5f604083850312156138ad575f5ffd5b8235915060208301356138bf816135d8565b809150509250929050565b5f5f5f606084860312156138dc575f5ffd5b83359250602084013591506040840135600481106138f8575f5ffd5b809150509250925092565b5f5f60208385031215613914575f5ffd5b82356001600160401b03811115613929575f5ffd5b61393585828601613616565b90969095509350505050565b5f5f5f60608486031215613953575f5ffd5b833592506020840135613965816135d8565b915060408401356138f8816135d8565b604080825283519082018190525f9060208501906060840190835b818110156139b75783516001600160a01b0316835260209384019390920191600101613990565b5050838103602080860191909152855180835291810192508501905f5b818110156139f25782518452602093840193909201916001016139d4565b50919695505050505050565b5f5f60408385031215613a0f575f5ffd5b8235613a1a816135d8565b915060208301356138bf816135d8565b600181811c90821680613a3e57607f821691505b602082108103613a5c57634e487b7160e01b5f52602260045260245ffd5b50919050565b5f60208284031215613a72575f5ffd5b81518015158114610eff575f5ffd5b5f60208284031215613a91575f5ffd5b5051919050565b6001600160a01b039390931683526020830191909152604082015260600190565b5f60208284031215613ac9575f5ffd5b8151610eff816135d8565b634e487b7160e01b5f52601160045260245ffd5b808201808211156108cb576108cb613ad4565b634e487b7160e01b5f52603260045260245ffd5b5f60208284031215613b1f575f5ffd5b813563ffffffff81168114610eff575f5ffd5b60ff81811683821601908111156108cb576108cb613ad4565b5f60208284031215613b5b575f5ffd5b815160ff81168114610eff575f5ffd5b6001815b6001841115613ba657808504811115613b8a57613b8a613ad4565b6001841615613b9857908102905b60019390931c928002613b6f565b935093915050565b5f82613bbc575060016108cb565b81613bc857505f6108cb565b8160018114613bde5760028114613be857613c04565b60019150506108cb565b60ff841115613bf957613bf9613ad4565b50506001821b6108cb565b5060208310610133831016604e8410600b8410161715613c27575081810a6108cb565b613c335f198484613b6b565b805f1904821115613c4657613c46613ad4565b029392505050565b5f610eff60ff841683613bae565b818103818111156108cb576108cb613ad4565b60ff82811682821603908111156108cb576108cb613ad4565b634e487b7160e01b5f52601260045260245ffd5b634e487b7160e01b5f52602160045260245ffd5b5f60ff831680613cce57634e487b7160e01b5f52601260045260245ffd5b8060ff84160691505092915050565b601f8211156123d757805f5260205f20601f840160051c81016020851015613d025750805b601f840160051c820191505b81811015612bc7575f8155600101613d0e565b81516001600160401b03811115613d3a57613d3a6137c5565b613d4e81613d488454613a2a565b84613cdd565b6020601f821160018114613d80575f8315613d695750848201515b5f19600385901b1c1916600184901b178455612bc7565b5f84815260208120601f198516915b82811015613daf5787850151825560209485019460019092019101613d8f565b5084821015613dcc57868401515f19600387901b60f8161c191681555b50505050600190811b01905550565b5f82518060208501845e5f920191825250919050565b634e487b7160e01b5f52603160045260245ffdfe52c63247e1f47db19d5ce0460030c497f067ca4cebf71ba98eeadabe20bace00360894a13ba1a3210667c828492db98dca3e2076cc3735a920a3ca505d382bbc9b779b17422d0df92223018b32b4d1fa46e071723d6817e2486d003becc55f00a26469706673582212204daa87c14b15fb99f6a8f18d7253346b97a7a23388306c0bab58bff0762fb52e64736f6c634300081c003360a0604052306080523480156012575f5ffd5b506080516143ce6100395f395f8181612baf01528181612bd80152612d3a01526143ce5ff3fe6080604052600436106102bf575f3560e01c806395d89b411161016f578063c63d75b6116100d8578063d5f3948811610092578063e30c39781161006d578063e30c3978146107ae578063e66f53b7146107c2578063ef8b30f7146106cc578063f2fde38b146107e1575f5ffd5b8063d5f3948814610751578063d905777e14610770578063dd62ed3e1461078f575f5ffd5b8063c63d75b61461048b578063c6e6f592146106cc578063cce4705b146106eb578063ce96cb771461070a578063d1699c2614610729578063d3d034581461073d575f5ffd5b8063b3d7f6b911610129578063b3d7f6b91461063e578063b460af941461065d578063b6eba65314610677578063ba0876521461065d578063c0b568e114610699578063c37fc8a8146106b8575f5ffd5b806395d89b41146105895780639adb29811461059d578063a68a5267146105bc578063a9059cbb146105db578063aa9d3a60146105fa578063ad3cb1cc1461060e575f5ffd5b806338d52e0f1161022b57806370a08231116101e557806379502c55116101c057806379502c551461054357806379ba5097146105615780638da5cb5b1461057557806394bf804d146104d2575f5ffd5b806370a08231146104f1578063715018a614610510578063745400c914610524575f5ffd5b806338d52e0f1461045f578063402d267d1461048b5780634cdad506146103075780634f1ef286146104ab57806352d1902d146104be5780636e553f65146104d2575f5ffd5b80630d1e66671161027c5780630d1e66671461039557806318160ddd146103b45780632016a0d2146103e757806323b872dd14610406578063313ce5671461042557806333fdc5921461044b575f5ffd5b806301e1d114146102c357806306fdde03146102e657806307a2d13a146103075780630838830514610326578063095ea7b3146103475780630a28a47714610376575b5f5ffd5b3480156102ce575f5ffd5b506003545b6040519081526020015b60405180910390f35b3480156102f1575f5ffd5b506102fa610800565b6040516102dd9190613ab2565b348015610312575f5ffd5b506102d3610321366004613ae7565b6108c0565b348015610331575f5ffd5b50610345610340366004613b3e565b6108d1565b005b348015610352575f5ffd5b50610366610361366004613b90565b610d63565b60405190151581526020016102dd565b348015610381575f5ffd5b506102d3610390366004613ae7565b610d7a565b3480156103a0575f5ffd5b506103456103af366004613ae7565b610d86565b3480156103bf575f5ffd5b507f52c63247e1f47db19d5ce0460030c497f067ca4cebf71ba98eeadabe20bace02546102d3565b3480156103f2575f5ffd5b50610345610401366004613bf7565b61109b565b348015610411575f5ffd5b50610366610420366004613c89565b61120d565b348015610430575f5ffd5b50610439611232565b60405160ff90911681526020016102dd565b348015610456575f5ffd5b50610345611274565b34801561046a575f5ffd5b506104736114ff565b6040516001600160a01b0390911681526020016102dd565b348015610496575f5ffd5b506102d36104a5366004613cc7565b505f1990565b6103456104b9366004613cf6565b611533565b3480156104c9575f5ffd5b506102d361154e565b3480156104dd575f5ffd5b506102d36104ec366004613db9565b611569565b3480156104fc575f5ffd5b506102d361050b366004613cc7565b611583565b34801561051b575f5ffd5b506103456115a9565b34801561052f575f5ffd5b5061034561053e366004613ae7565b6115ba565b34801561054e575f5ffd5b505f54610473906001600160a01b031681565b34801561056c575f5ffd5b50610345611831565b348015610580575f5ffd5b50610473611876565b348015610594575f5ffd5b506102fa61189e565b3480156105a8575f5ffd5b506103456105b7366004613de7565b6118dc565b3480156105c7575f5ffd5b506102d36105d6366004613e2e565b611ae8565b3480156105e6575f5ffd5b506103666105f5366004613b90565b611b41565b348015610605575f5ffd5b50610345611b4e565b348015610619575f5ffd5b506102fa604051806040016040528060058152602001640352e302e360dc1b81525081565b348015610649575f5ffd5b506102d3610658366004613ae7565b611e7b565b348015610668575f5ffd5b506102d36104ec366004613e67565b348015610682575f5ffd5b5061068b611e87565b6040516102dd929190613e9b565b3480156106a4575f5ffd5b506103456106b3366004613ae7565b611fe8565b3480156106c3575f5ffd5b50600b546102d3565b3480156106d7575f5ffd5b506102d36106e6366004613ae7565b612228565b3480156106f6575f5ffd5b50610345610705366004613ae7565b612233565b348015610715575f5ffd5b506102d3610724366004613cc7565b61246a565b348015610734575f5ffd5b50600a546102d3565b348015610748575f5ffd5b5061068b61247d565b34801561075c575f5ffd5b50600254610473906001600160a01b031681565b34801561077b575f5ffd5b506102d361078a366004613cc7565b6125c5565b34801561079a575f5ffd5b506102d36107a9366004613f24565b6125cf565b3480156107b9575f5ffd5b50610473612618565b3480156107cd575f5ffd5b50600154610473906001600160a01b031681565b3480156107ec575f5ffd5b506103456107fb366004613cc7565b612640565b7f52c63247e1f47db19d5ce0460030c497f067ca4cebf71ba98eeadabe20bace0380546060915f5160206143395f395f51905f529161083e90613f50565b80601f016020809104026020016040519081016040528092919081815260200182805461086a90613f50565b80156108b55780601f1061088c576101008083540402835291602001916108b5565b820191905f5260205f20905b81548152906001019060200180831161089857829003601f168201915b505050505091505090565b5f6108cb825f6126c5565b92915050565b6001546001600160a01b031633146108fc57604051631a27eac360e11b815260040160405180910390fd5b6109046126d3565b5f81900361092557604051631121aa8d60e01b815260040160405180910390fd5b60125481905f826001600160401b0381111561094357610943613ce2565b60405190808252806020026020018201604052801561096c578160200160208202803683370190505b5090505f836001600160401b0381111561098857610988613ce2565b6040519080825280602002602001820160405280156109b1578160200160208202803683370190505b5090505f5b84811015610b73575f8787838181106109d1576109d1613f88565b6109e79260206040909202019081019150613cc7565b90505f8888848181106109fc576109fc613f88565b5f5460408051633af32abf60e01b81526001600160a01b03888116600483015293909102949094016020013594501691633af32abf9150602401602060405180830381865afa158015610a51573d5f5f3e3d5ffd5b505050506040513d601f19601f82011682018060405250810190610a759190613f9c565b610aa25760405163751dff9760e11b81526001600160a01b03831660048201526024015b60405180910390fd5b6001600160a01b0382165f9081526011602052604090205460ff1615610ae6576040516346bdabe160e01b81526001600160a01b0383166004820152602401610a99565b6001600160a01b0382165f908152601160205260409020805460ff1916600117905584518290869085908110610b1e57610b1e613f88565b60200260200101906001600160a01b031690816001600160a01b03168152505080848481518110610b5157610b51613f88565b602002602001018181525050610b67868261270a565b955050506001016109b6565b505f80546040805163d1717c7d60e01b81529051610bf1926001600160a01b03169163d1717c7d9160048083019260209291908290030181865afa158015610bbd573d5f5f3e3d5ffd5b505050506040513d601f19601f82011682018060405250810190610be19190613fbb565b610bec90600a6140d2565b612738565b90505f610bfe858361274a565b6010549091505f5b81811015610c5357601254600f5f60108481548110610c2757610c27613f88565b5f9182526020808320909101546001600160a01b03168352820192909252604001902055600101610c06565b50610c5f60105f613a84565b5f5b87811015610d17575f868281518110610c7c57610c7c613f88565b60200260200101519050858281518110610c9857610c98613f88565b6020908102919091018101516001600160a01b039092165f818152600f83526040808220949094556010805460018181019092557f1b6847dc741a1b0cd08d278845f9d819d87b734759afb55fe2de5cb82a9ae6720180546001600160a01b031916841790559181526011909252919020805460ff1916905501610c61565b5060405133907f2d47a742b8d7df7c1fc5a9a631b206b364e6cb2722490759f63bb3ab14b132e0905f90a250505050505050610d5f60015f5160206143795f395f51905f5255565b5050565b5f33610d7081858561278b565b5060019392505050565b5f6108cb82600161279d565b610d8e6126d3565b805f03610dc257610d9d6114ff565b604051636b30633560e01b81526001600160a01b039091166004820152602401610a99565b5f5f9054906101000a90046001600160a01b03166001600160a01b031663edcf9c1f6040518163ffffffff1660e01b8152600401602060405180830381865afa158015610e11573d5f5f3e3d5ffd5b505050506040513d601f19601f82011682018060405250810190610e359190613f9c565b610e52576040516312aecd8160e01b815260040160405180910390fd5b5f610e5b6114ff565b6040516370a0823160e01b81523360048201526001600160a01b0391909116906370a0823190602401602060405180830381865afa158015610e9f573d5f5f3e3d5ffd5b505050506040513d601f19601f82011682018060405250810190610ec391906140e0565b905080821115610eec57338183604051632e2a182f60e11b8152600401610a99939291906140f7565b5f610ef56114ff565b6001600160a01b03166323b872dd335f5f9054906101000a90046001600160a01b03166001600160a01b0316633a0dad8e6040518163ffffffff1660e01b8152600401602060405180830381865afa158015610f53573d5f5f3e3d5ffd5b505050506040513d601f19601f82011682018060405250810190610f779190614118565b6040516001600160e01b031960e085901b1681526001600160a01b03928316600482015291166024820152604481018690526064016020604051808303815f875af1158015610fc8573d5f5f3e3d5ffd5b505050506040513d601f19601f82011682018060405250810190610fec9190613f9c565b90508061100c576040516312171d8360e31b815260040160405180910390fd5b5f6110186004336127f9565b915061103390503361102a8684614133565b6004919061281f565b5083600a5f8282546110459190614133565b909155505060405184815233907f08d79f77ab5f78e7e780abb1f7ac9e9923340d5bae78f6e83e7999905b248ea29060200160405180910390a250505061109860015f5160206143795f395f51905f5255565b50565b5f6110a4612834565b805490915060ff600160401b82041615906001600160401b03165f811580156110ca5750825b90505f826001600160401b031660011480156110e55750303b155b9050811580156110f3575080155b156111115760405163f92ee8a960e01b815260040160405180910390fd5b845467ffffffffffffffff19166001178555831561113b57845460ff60401b1916600160401b1785555b6111ae8b8b8b8b8080601f0160208091040260200160405190810160405280939291908181526020018383808284375f9201919091525050604080516020601f8f018190048102820181019092528d815292508d91508c90819084018382808284375f9201919091525061285c92505050565b6111b75f612738565b601255831561120057845460ff60401b19168555604051600181527fc7f505b2f371ae2175ee4913f4499e1f2633a7b5936321eed1cdaeb6115181d29060200160405180910390a15b5050505050505050505050565b5f3361121a858285612a96565b611225858585612ae7565b60019150505b9392505050565b5f807f0773e532dfede91f04b12a73d3d2acd361424f41f76b4fb79f090161e36b4e0090505f815461126e9190600160a01b900460ff16614146565b91505090565b5f5f9054906101000a90046001600160a01b03166001600160a01b0316633a0dad8e6040518163ffffffff1660e01b8152600401602060405180830381865afa1580156112c3573d5f5f3e3d5ffd5b505050506040513d601f19601f820116820180604052508101906112e79190614118565b6001600160a01b0316336001600160a01b03161461131857604051631a27eac360e11b815260040160405180910390fd5b6113206126d3565b5f61132b6004612b44565b90505f816001600160401b0381111561134657611346613ce2565b60405190808252806020026020018201604052801561136f578160200160208202803683370190505b5090505f826001600160401b0381111561138b5761138b613ce2565b6040519080825280602002602001820160405280156113b4578160200160208202803683370190505b5090505f5b8381101561142d575f806113ce600484612b4e565b91509150818584815181106113e5576113e5613f88565b60200260200101906001600160a01b031690816001600160a01b0316815250508084848151811061141857611418613f88565b602090810291909101015250506001016113b9565b505f5b838110156114e2575f83828151811061144b5761144b613f88565b602002602001015190505f83838151811061146857611468613f88565b602002602001015190505f61147c82612228565b9050611489600484612b5c565b506114948382612b70565b826001600160a01b03167f85a190caa61692b36b63a55e069330d18ab9af179fed7a25c16a4262bc63b7d2836040516114cf91815260200190565b60405180910390a2505050600101611430565b50505f600a55505060015f5160206143795f395f51905f5255565b565b5f807f0773e532dfede91f04b12a73d3d2acd361424f41f76b4fb79f090161e36b4e005b546001600160a01b031692915050565b61153b612ba4565b61154482612c48565b610d5f8282612c73565b5f611557612d2f565b505f5160206143595f395f51905f5290565b5f60405163125ad87760e31b815260040160405180910390fd5b6001600160a01b03165f9081525f5160206143395f395f51905f52602052604090205490565b6115b1612d78565b6114fd5f612daa565b805f036115dc57604051636b30633560e01b8152306004820152602401610a99565b5f5f9054906101000a90046001600160a01b03166001600160a01b031663edcf9c1f6040518163ffffffff1660e01b8152600401602060405180830381865afa15801561162b573d5f5f3e3d5ffd5b505050506040513d601f19601f8201168201806040525081019061164f9190613f9c565b61166c576040516312aecd8160e01b815260040160405180910390fd5b5f61167633611583565b90508082111561169f57338183604051632e2a182f60e11b8152600401610a99939291906140f7565b5f306001600160a01b03166323b872dd335f5f9054906101000a90046001600160a01b03166001600160a01b0316633a0dad8e6040518163ffffffff1660e01b8152600401602060405180830381865afa1580156116ff573d5f5f3e3d5ffd5b505050506040513d601f19601f820116820180604052508101906117239190614118565b6040516001600160e01b031960e085901b1681526001600160a01b03928316600482015291166024820152604481018690526064016020604051808303815f875af1158015611774573d5f5f3e3d5ffd5b505050506040513d601f19601f820116820180604052508101906117989190613f9c565b9050806117b8576040516312171d8360e31b815260040160405180910390fd5b5f6117c46007336127f9565b91506117df9050336117d68684614133565b6007919061281f565b5083600b5f8282546117f19190614133565b909155505060405184815233907ff7774b688d56120b783560a913ee60792a73dfd511812b7be5eccf10d08c66899060200160405180910390a250505050565b338061183b612618565b6001600160a01b03161461186d5760405163118cdaa760e01b81526001600160a01b0382166004820152602401610a99565b61109881612daa565b5f807f9016d09d72d40fdae2fd8ceac6b6234c7706214fd39c1cd1e609a0528c199300611523565b7f52c63247e1f47db19d5ce0460030c497f067ca4cebf71ba98eeadabe20bace0480546060915f5160206143395f395f51905f529161083e90613f50565b5f5f9054906101000a90046001600160a01b03166001600160a01b0316633a0dad8e6040518163ffffffff1660e01b8152600401602060405180830381865afa15801561192b573d5f5f3e3d5ffd5b505050506040513d601f19601f8201168201806040525081019061194f9190614118565b6001600160a01b0316336001600160a01b03161461198057604051631a27eac360e11b815260040160405180910390fd5b600e545f5b818110156119d257601254600d5f600e84815481106119a6576119a6613f88565b5f9182526020808320909101546001600160a01b03168352820192909252604001902055600101611985565b506119de600e5f613a84565b5f5b81811015611aa9578484828181106119fa576119fa613f88565b90506040020160200135600d5f878785818110611a1957611a19613f88565b611a2f9260206040909202019081019150613cc7565b6001600160a01b0316815260208101919091526040015f2055600e858583818110611a5c57611a5c613f88565b611a729260206040909202019081019150613cc7565b8154600180820184555f93845260209093200180546001600160a01b0319166001600160a01b0392909216919091179055016119e0565b5060038290556040518281527f5e1ff954b5e5257e9ee5d4cb07059e8f5e69b1aaaf9911e5d8d90a6894de9c219060200160405180910390a150505050565b5f5f611b127f52c63247e1f47db19d5ce0460030c497f067ca4cebf71ba98eeadabe20bace025490565b9050611b38611b22856001614133565b600c54611b2f9084614133565b87919086612de2565b95945050505050565b5f33610d70818585612ae7565b5f5f9054906101000a90046001600160a01b03166001600160a01b0316633a0dad8e6040518163ffffffff1660e01b8152600401602060405180830381865afa158015611b9d573d5f5f3e3d5ffd5b505050506040513d601f19601f82011682018060405250810190611bc19190614118565b6001600160a01b0316336001600160a01b031614611bf257604051631a27eac360e11b815260040160405180910390fd5b611bfa6126d3565b5f611c056007612b44565b90505f816001600160401b03811115611c2057611c20613ce2565b604051908082528060200260200182016040528015611c49578160200160208202803683370190505b5090505f826001600160401b03811115611c6557611c65613ce2565b604051908082528060200260200182016040528015611c8e578160200160208202803683370190505b5090505f5b83811015611d07575f80611ca8600784612b4e565b9150915081858481518110611cbf57611cbf613f88565b60200260200101906001600160a01b031690816001600160a01b03168152505080848481518110611cf257611cf2613f88565b60209081029190910101525050600101611c93565b505f600b8190555b83811015611e61575f838281518110611d2a57611d2a613f88565b602002602001015190505f838381518110611d4757611d47613f88565b60200260200101519050611d65826007612b5c90919063ffffffff16565b50611d703082612e24565b5f611d7a826108c0565b9050611d846114ff565b60405163a9059cbb60e01b81526001600160a01b03858116600483015260248201849052919091169063a9059cbb906044016020604051808303815f875af1158015611dd2573d5f5f3e3d5ffd5b505050506040513d601f19601f82011682018060405250810190611df69190613f9c565b611e13576040516312171d8360e31b815260040160405180910390fd5b826001600160a01b03167f44b2ff9ffcefe2052a8afdbed44a04bf3db4592ae90c6b96c818bd28573e41e883604051611e4e91815260200190565b60405180910390a2505050600101611d0f565b505050506114fd60015f5160206143795f395f51905f5255565b5f6108cb8260016126c5565b6010546060908190806001600160401b03811115611ea757611ea7613ce2565b604051908082528060200260200182016040528015611ed0578160200160208202803683370190505b509250806001600160401b03811115611eeb57611eeb613ce2565b604051908082528060200260200182016040528015611f14578160200160208202803683370190505b5091505f5b81811015611fe25760108181548110611f3457611f34613f88565b905f5260205f20015f9054906101000a90046001600160a01b0316848281518110611f6157611f61613f88565b60200260200101906001600160a01b031690816001600160a01b031681525050600f5f60108381548110611f9757611f97613f88565b5f9182526020808320909101546001600160a01b031683528201929092526040019020548351849083908110611fcf57611fcf613f88565b6020908102919091010152600101611f19565b50509091565b611ff06126d3565b805f03611fff57610d9d6114ff565b5f5f9054906101000a90046001600160a01b03166001600160a01b031663edcf9c1f6040518163ffffffff1660e01b8152600401602060405180830381865afa15801561204e573d5f5f3e3d5ffd5b505050506040513d601f19601f820116820180604052508101906120729190613f9c565b61208f576040516312aecd8160e01b815260040160405180910390fd5b5f61209b6004336127f9565b915050818110156120bf576040516332194fd360e21b815260040160405180910390fd5b5f5f9054906101000a90046001600160a01b03166001600160a01b0316633a0dad8e6040518163ffffffff1660e01b8152600401602060405180830381865afa15801561210e573d5f5f3e3d5ffd5b505050506040513d601f19601f820116820180604052508101906121329190614118565b6040516351edffb160e01b8152336004820152602481018490526001600160a01b0391909116906351edffb1906044015f604051808303815f87803b158015612179575f5ffd5b505af115801561218b573d5f5f3e3d5ffd5b505050505f828261219c919061415f565b9050805f036121b6576121b0600433612b5c565b506121c4565b6121c26004338361281f565b505b82600a5f8282546121d5919061415f565b909155505060405183815233907f96a9a6886cdf3047a125454218a23d3961fd3a78643123b248a9d106d0ac94fd906020015b60405180910390a2505061109860015f5160206143795f395f51905f5255565b5f6108cb825f61279d565b61223b6126d3565b805f0361225d57604051636b30633560e01b8152306004820152602401610a99565b5f5f9054906101000a90046001600160a01b03166001600160a01b031663edcf9c1f6040518163ffffffff1660e01b8152600401602060405180830381865afa1580156122ac573d5f5f3e3d5ffd5b505050506040513d601f19601f820116820180604052508101906122d09190613f9c565b6122ed576040516312aecd8160e01b815260040160405180910390fd5b5f6122f96007336127f9565b9150508181101561231d576040516312ea1f4960e11b815260040160405180910390fd5b5f5f9054906101000a90046001600160a01b03166001600160a01b0316633a0dad8e6040518163ffffffff1660e01b8152600401602060405180830381865afa15801561236c573d5f5f3e3d5ffd5b505050506040513d601f19601f820116820180604052508101906123909190614118565b6040516305f0c35960e51b8152336004820152602481018490526001600160a01b03919091169063be186b20906044015f604051808303815f87803b1580156123d7575f5ffd5b505af11580156123e9573d5f5f3e3d5ffd5b505050505f82826123fa919061415f565b9050805f036124145761240e600733612b5c565b50612422565b6124206007338361281f565b505b82600b5f828254612433919061415f565b909155505060405183815233907f9cf37535785001dcc9767688232fcbc8698b3002d1207b50bc2afec3ff8934dc90602001612208565b5f6108cb61247783611583565b5f6126c5565b600e546060908190806001600160401b0381111561249d5761249d613ce2565b6040519080825280602002602001820160405280156124c6578160200160208202803683370190505b509250806001600160401b038111156124e1576124e1613ce2565b60405190808252806020026020018201604052801561250a578160200160208202803683370190505b5091505f5b81811015611fe2575f600e828154811061252b5761252b613f88565b905f5260205f20015f9054906101000a90046001600160a01b031690508085838151811061255b5761255b613f88565b60200260200101906001600160a01b031690816001600160a01b031681525050600d5f826001600160a01b03166001600160a01b031681526020019081526020015f20548483815181106125b1576125b1613f88565b60209081029190910101525060010161250f565b5f6108cb82611583565b6001600160a01b039182165f9081527f52c63247e1f47db19d5ce0460030c497f067ca4cebf71ba98eeadabe20bace016020908152604080832093909416825291909152205490565b5f807f237e158222e3e6968b72b9db0d8043aacf074ad9f650f0d1606b4d82ee432c00611523565b612648612d78565b7f237e158222e3e6968b72b9db0d8043aacf074ad9f650f0d1606b4d82ee432c0080546001600160a01b0319166001600160a01b038316908117825561268c611876565b6001600160a01b03167f38d16b8cac22d99fc7c124b9cd0de2d3fa1faef420bfe791d8c362d765e2270060405160405180910390a35050565b5f61122b8360035484611ae8565b5f5160206143795f395f51905f5280546001190161270457604051633ee5aeb560e01b815260040160405180910390fd5b60029055565b5f8261271c576127195f612738565b92505b8161272d5761272a5f612738565b91505b61122b83835f612e58565b5f6108cb8263ffffffff166004612f3b565b5f8261275c576127595f612738565b92505b8161276d5761276a5f612738565b91505b61122b83835f612ff0565b60015f5160206143795f395f51905f5255565b612798838383600161308d565b505050565b5f5f6127c77f52c63247e1f47db19d5ce0460030c497f067ca4cebf71ba98eeadabe20bace025490565b90506127f1600c54826127da9190614133565b6003546127e8906001614133565b86919086612de2565b949350505050565b5f808080612810866001600160a01b038716613171565b909450925050505b9250929050565b5f6127f1846001600160a01b038516846131a9565b5f807ff0c57e16840df040f15088dc2f81fe391c3923bec73e23a9662efc9c229c6a006108cb565b6128646131c5565b6001600160a01b03841661288b5760405163e6c4247b60e01b815260040160405180910390fd5b6001600160a01b0383166128b25760405163e6c4247b60e01b815260040160405180910390fd5b6128bc82826131ea565b612924836001600160a01b0316637158da7c6040518163ffffffff1660e01b8152600401602060405180830381865afa1580156128fb573d5f5f3e3d5ffd5b505050506040513d601f19601f8201168201806040525081019061291f9190614118565b6131fc565b61292c61320d565b6129358461321d565b61293d61322e565b61294561322e565b60028054336001600160a01b0319918216179091556001805482166001600160a01b03878116919091179091555f805490921690851690811782556003829055600a829055600b82905560408051631c56369f60e21b81529051637158da7c916004808201926020929091908290030181865afa1580156129c8573d5f5f3e3d5ffd5b505050506040513d601f19601f820116820180604052508101906129ec9190614118565b6001600160a01b031663313ce5676040518163ffffffff1660e01b8152600401602060405180830381865afa158015612a27573d5f5f3e3d5ffd5b505050506040513d601f19601f82011682018060405250810190612a4b9190613fbb565b905060128160ff161115612a7257604051631c03248960e11b815260040160405180910390fd5b5f612a7e826012614172565b9050612a8b81600a6140d2565b600c55505050505050565b5f612aa184846125cf565b90505f19811015612ae15781811015612ad357828183604051637dc7a0d960e11b8152600401610a99939291906140f7565b612ae184848484035f61308d565b50505050565b6001600160a01b038316612b1057604051634b637e8f60e11b81525f6004820152602401610a99565b6001600160a01b038216612b395760405163ec442f0560e01b81525f6004820152602401610a99565b612798838383613236565b5f6108cb8261335c565b5f8080806128108686613366565b5f61122b836001600160a01b03841661338f565b6001600160a01b038216612b995760405163ec442f0560e01b81525f6004820152602401610a99565b610d5f5f8383613236565b306001600160a01b037f0000000000000000000000000000000000000000000000000000000000000000161480612c2a57507f00000000000000000000000000000000000000000000000000000000000000006001600160a01b0316612c1e5f5160206143595f395f51905f52546001600160a01b031690565b6001600160a01b031614155b156114fd5760405163703e46dd60e11b815260040160405180910390fd5b6001546001600160a01b0316331461109857604051631a27eac360e11b815260040160405180910390fd5b816001600160a01b03166352d1902d6040518163ffffffff1660e01b8152600401602060405180830381865afa925050508015612ccd575060408051601f3d908101601f19168201909252612cca918101906140e0565b60015b612cf557604051634c9c8ce360e01b81526001600160a01b0383166004820152602401610a99565b5f5160206143595f395f51905f528114612d2557604051632a87526960e21b815260048101829052602401610a99565b61279883836133ab565b306001600160a01b037f000000000000000000000000000000000000000000000000000000000000000016146114fd5760405163703e46dd60e11b815260040160405180910390fd5b33612d81611876565b6001600160a01b0316146114fd5760405163118cdaa760e01b8152336004820152602401610a99565b7f237e158222e3e6968b72b9db0d8043aacf074ad9f650f0d1606b4d82ee432c0080546001600160a01b0319168155610d5f82613400565b5f612e0f612def83613470565b8015612e0a57505f8480612e0557612e0561418b565b868809115b151590565b612e1a86868661349c565b611b389190614133565b6001600160a01b038216612e4d57604051634b637e8f60e11b81525f6004820152602401610a99565b610d5f825f83613236565b5f5f8215612e6b5750600160f81b612e6e565b505f5b7fed8d60e34876f751cc8b014c560745351147d9de11b9347c854e881b128ea6015460405163022f65e760e31b815260048101879052602481018690526001600160f81b0319831660448201527fed8d60e34876f751cc8b014c560745351147d9de11b9347c854e881b128ea600916001600160a01b03169063117b2f38906064015b6020604051808303815f875af1158015612f0d573d5f5f3e3d5ffd5b505050506040513d601f19601f82011682018060405250810190612f3191906140e0565b9695505050505050565b7fed8d60e34876f751cc8b014c560745351147d9de11b9347c854e881b128ea60154604051639cd07acb60e01b81525f917fed8d60e34876f751cc8b014c560745351147d9de11b9347c854e881b128ea600916001600160a01b0390911690639cd07acb90612fb090879087906004016141b3565b6020604051808303815f875af1158015612fcc573d5f5f3e3d5ffd5b505050506040513d601f19601f820116820180604052508101906127f191906140e0565b5f5f82156130035750600160f81b613006565b505f5b7fed8d60e34876f751cc8b014c560745351147d9de11b9347c854e881b128ea6015460405163f77f3f1d60e01b815260048101879052602481018690526001600160f81b0319831660448201527fed8d60e34876f751cc8b014c560745351147d9de11b9347c854e881b128ea600916001600160a01b03169063f77f3f1d90606401612ef1565b5f5160206143395f395f51905f526001600160a01b0385166130c45760405163e602df0560e01b81525f6004820152602401610a99565b6001600160a01b0384166130ed57604051634a1406b160e11b81525f6004820152602401610a99565b6001600160a01b038086165f9081526001830160209081526040808320938816835292905220839055811561316a57836001600160a01b0316856001600160a01b03167f8c5be1e5ebec7d5bd14f71427d1e84f3dd0314c0f7b2291e5b200ac8c7c3b9258560405161316191815260200190565b60405180910390a35b5050505050565b5f81815260028301602052604081205481908061319e57613192858561354c565b92505f91506128189050565b600192509050612818565b5f82815260028401602052604081208290556127f18484613557565b6131cd613562565b6114fd57604051631afcd79f60e31b815260040160405180910390fd5b6131f26131c5565b610d5f828261357b565b6132046131c5565b611098816135cb565b6132156131c5565b6114fd61364e565b6132256131c5565b61109881613656565b6114fd6131c5565b5f5160206143395f395f51905f526001600160a01b0384166132705781816002015f8282546132659190614133565b909155506132cd9050565b6001600160a01b0384165f90815260208290526040902054828110156132af5784818460405163391434e360e21b8152600401610a99939291906140f7565b6001600160a01b0385165f9081526020839052604090209083900390555b6001600160a01b0383166132eb576002810180548390039055613309565b6001600160a01b0383165f9081526020829052604090208054830190555b826001600160a01b0316846001600160a01b03167fddf252ad1be2c89b69c2b068fc378daa952ba7f163c4a11628f55a4df523b3ef8460405161334e91815260200190565b60405180910390a350505050565b5f6108cb82613687565b5f80806133738585613690565b5f81815260029690960160205260409095205494959350505050565b5f818152600283016020526040812081905561122b838361369b565b6133b4826136a6565b6040516001600160a01b038316907fbc7cd75a20ee27fd9adebab32041f755214dbc6bffa90cc0225b39da2e5c2d3b905f90a28051156133f8576127988282613709565b610d5f613772565b7f9016d09d72d40fdae2fd8ceac6b6234c7706214fd39c1cd1e609a0528c19930080546001600160a01b031981166001600160a01b03848116918217845560405192169182907f8be0079c531659141344cd1fd0a4f28419497f9722a3daafe3b4186f6b6457e0905f90a3505050565b5f60028260038111156134855761348561419f565b61348f91906141e3565b60ff166001149050919050565b5f5f5f6134a98686613791565b91509150815f036134cd578381816134c3576134c361418b565b049250505061122b565b8184116134e4576134e460038515026011186137ad565b5f848688095f868103871696879004966002600389028118808a02820302808a02820302808a02820302808a02820302808a02820302808a02909103029181900381900460010185841190960395909502919093039390930492909217029150509392505050565b5f61122b83836137be565b5f61122b83836137d5565b5f61356b612834565b54600160401b900460ff16919050565b6135836131c5565b5f5160206143395f395f51905f527f52c63247e1f47db19d5ce0460030c497f067ca4cebf71ba98eeadabe20bace036135bc8482614254565b5060048101612ae18382614254565b6135d36131c5565b7f0773e532dfede91f04b12a73d3d2acd361424f41f76b4fb79f090161e36b4e005f806135ff84613821565b915091508161360f576012613611565b805b83546001600160a81b031916600160a01b60ff92909216919091026001600160a01b031916176001600160a01b0394909416939093179091555050565b6127786131c5565b61365e6131c5565b6001600160a01b03811661186d57604051631e4fbdf760e01b81525f6004820152602401610a99565b5f6108cb825490565b5f61122b83836138f7565b5f61122b838361391d565b806001600160a01b03163b5f036136db57604051634c9c8ce360e01b81526001600160a01b0382166004820152602401610a99565b5f5160206143595f395f51905f5280546001600160a01b0319166001600160a01b0392909216919091179055565b60605f5f846001600160a01b031684604051613725919061430e565b5f60405180830381855af49150503d805f811461375d576040519150601f19603f3d011682016040523d82523d5f602084013e613762565b606091505b5091509150611b38858383613a00565b34156114fd5760405163b398979f60e01b815260040160405180910390fd5b5f805f1983850993909202808410938190039390930393915050565b634e487b715f52806020526024601cfd5b5f818152600183016020526040812054151561122b565b5f81815260018301602052604081205461381a57508154600181810184555f8481526020808220909301849055845484825282860190935260409020919091556108cb565b505f6108cb565b60408051600481526024810182526020810180516001600160e01b031663313ce56760e01b17905290515f918291829182916001600160a01b038716916138679161430e565b5f60405180830381855afa9150503d805f811461389f576040519150601f19603f3d011682016040523d82523d5f602084013e6138a4565b606091505b50915091508180156138b857506020815110155b156138eb575f818060200190518101906138d291906140e0565b905060ff81116138e9576001969095509350505050565b505b505f9485945092505050565b5f825f01828154811061390c5761390c613f88565b905f5260205f200154905092915050565b5f81815260018301602052604081205480156139f7575f61393f60018361415f565b85549091505f906139529060019061415f565b90508082146139b1575f865f01828154811061397057613970613f88565b905f5260205f200154905080875f01848154811061399057613990613f88565b5f918252602080832090910192909255918252600188019052604090208390555b85548690806139c2576139c2614324565b600190038181905f5260205f20015f90559055856001015f8681526020019081526020015f205f9055600193505050506108cb565b5f9150506108cb565b606082613a1557613a1082613a5c565b61122b565b8151158015613a2c57506001600160a01b0384163b155b15613a5557604051639996b31560e01b81526001600160a01b0385166004820152602401610a99565b508061122b565b805115613a6b57805160208201fd5b60405163d6bda27560e01b815260040160405180910390fd5b5080545f8255905f5260205f209081019061109891905b80821115613aae575f8155600101613a9b565b5090565b602081525f82518060208401528060208501604085015e5f604082850101526040601f19601f83011684010191505092915050565b5f60208284031215613af7575f5ffd5b5035919050565b5f5f83601f840112613b0e575f5ffd5b5081356001600160401b03811115613b24575f5ffd5b6020830191508360208260061b8501011115612818575f5ffd5b5f5f60208385031215613b4f575f5ffd5b82356001600160401b03811115613b64575f5ffd5b613b7085828601613afe565b90969095509350505050565b6001600160a01b0381168114611098575f5ffd5b5f5f60408385031215613ba1575f5ffd5b8235613bac81613b7c565b946020939093013593505050565b5f5f83601f840112613bca575f5ffd5b5081356001600160401b03811115613be0575f5ffd5b602083019150836020828501011115612818575f5ffd5b5f5f5f5f5f5f60808789031215613c0c575f5ffd5b8635613c1781613b7c565b95506020870135613c2781613b7c565b945060408701356001600160401b03811115613c41575f5ffd5b613c4d89828a01613bba565b90955093505060608701356001600160401b03811115613c6b575f5ffd5b613c7789828a01613bba565b979a9699509497509295939492505050565b5f5f5f60608486031215613c9b575f5ffd5b8335613ca681613b7c565b92506020840135613cb681613b7c565b929592945050506040919091013590565b5f60208284031215613cd7575f5ffd5b813561122b81613b7c565b634e487b7160e01b5f52604160045260245ffd5b5f5f60408385031215613d07575f5ffd5b8235613d1281613b7c565b915060208301356001600160401b03811115613d2c575f5ffd5b8301601f81018513613d3c575f5ffd5b80356001600160401b03811115613d5557613d55613ce2565b604051601f8201601f19908116603f011681016001600160401b0381118282101715613d8357613d83613ce2565b604052818152828201602001871015613d9a575f5ffd5b816020840160208301375f602083830101528093505050509250929050565b5f5f60408385031215613dca575f5ffd5b823591506020830135613ddc81613b7c565b809150509250929050565b5f5f5f60408486031215613df9575f5ffd5b83356001600160401b03811115613e0e575f5ffd5b613e1a86828701613afe565b909790965060209590950135949350505050565b5f5f5f60608486031215613e40575f5ffd5b8335925060208401359150604084013560048110613e5c575f5ffd5b809150509250925092565b5f5f5f60608486031215613e79575f5ffd5b833592506020840135613e8b81613b7c565b91506040840135613e5c81613b7c565b604080825283519082018190525f9060208501906060840190835b81811015613edd5783516001600160a01b0316835260209384019390920191600101613eb6565b5050838103602080860191909152855180835291810192508501905f5b81811015613f18578251845260209384019390920191600101613efa565b50919695505050505050565b5f5f60408385031215613f35575f5ffd5b8235613f4081613b7c565b91506020830135613ddc81613b7c565b600181811c90821680613f6457607f821691505b602082108103613f8257634e487b7160e01b5f52602260045260245ffd5b50919050565b634e487b7160e01b5f52603260045260245ffd5b5f60208284031215613fac575f5ffd5b8151801515811461122b575f5ffd5b5f60208284031215613fcb575f5ffd5b815160ff8116811461122b575f5ffd5b634e487b7160e01b5f52601160045260245ffd5b6001815b600184111561402a5780850481111561400e5761400e613fdb565b600184161561401c57908102905b60019390931c928002613ff3565b935093915050565b5f82614040575060016108cb565b8161404c57505f6108cb565b8160018114614062576002811461406c57614088565b60019150506108cb565b60ff84111561407d5761407d613fdb565b50506001821b6108cb565b5060208310610133831016604e8410600b84101617156140ab575081810a6108cb565b6140b75f198484613fef565b805f19048211156140ca576140ca613fdb565b029392505050565b5f61122b60ff841683614032565b5f602082840312156140f0575f5ffd5b5051919050565b6001600160a01b039390931683526020830191909152604082015260600190565b5f60208284031215614128575f5ffd5b815161122b81613b7c565b808201808211156108cb576108cb613fdb565b60ff81811683821601908111156108cb576108cb613fdb565b818103818111156108cb576108cb613fdb565b60ff82811682821603908111156108cb576108cb613fdb565b634e487b7160e01b5f52601260045260245ffd5b634e487b7160e01b5f52602160045260245ffd5b82815260408101605483106141d657634e487b7160e01b5f52602160045260245ffd5b8260208301529392505050565b5f60ff83168061420157634e487b7160e01b5f52601260045260245ffd5b8060ff84160691505092915050565b601f82111561279857805f5260205f20601f840160051c810160208510156142355750805b601f840160051c820191505b8181101561316a575f8155600101614241565b81516001600160401b0381111561426d5761426d613ce2565b6142818161427b8454613f50565b84614210565b6020601f8211600181146142b3575f831561429c5750848201515b5f19600385901b1c1916600184901b17845561316a565b5f84815260208120601f198516915b828110156142e257878501518255602094850194600190920191016142c2565b50848210156142ff57868401515f19600387901b60f8161c191681555b50505050600190811b01905550565b5f82518060208501845e5f920191825250919050565b634e487b7160e01b5f52603160045260245ffdfe52c63247e1f47db19d5ce0460030c497f067ca4cebf71ba98eeadabe20bace00360894a13ba1a3210667c828492db98dca3e2076cc3735a920a3ca505d382bbc9b779b17422d0df92223018b32b4d1fa46e071723d6817e2486d003becc55f00a26469706673582212202d6ee632ba8e8557d776b0a3defa3f58e26a33ab2592bf22ad63fc14dab8b51e64736f6c634300081c0033",
  "linkReferences": {},
  "deployedLinkReferences": {}
}