{
  "_format": "hh-sol-artifact-1",
  "contractName": "VaultImplementations",
  "sourceName": "contracts/helpers/VaultImplementations.sol",
  "abi": [
    {
      "inputs": [],
      "stateMutability": "nonpayable",
      "type": "constructor"
    },
    {
      "inputs": [],
      "name": "ENCRYPTED_VAULT_IMPLEMENTATION",
      "outputs": [
        {
          "internalType": "address",
          "name": "",
          "type": "address"
        }
      ],
      "stateMutability": "view",
      "type": "function"
    },
    {
      "inputs": [],
      "name": "TRANSPARENT_VAULT_IMPLEMENTATION",
      "outputs": [
        {
          "internalType": "address",
          "name": "",
          "type": "address"
        }
      ],
      "stateMutability": "view",
      "type": "function"
    }
  ],
  "bytecode": "0x60c0604052348015600e575f80fd5b506040516019906071565b604051809103905ff0801580156031573d5f803e3d5ffd5b506001600160a01b0316608052604051604890607e565b604051809103905ff0801580156060573d5f803e3d5ffd5b506001600160a01b031660a052608b565b6132648061017a83390190565b612ff0806133de83390190565b60805160a05160d26100a85f395f607a01525f6038015260d25ff3fe6080604052348015600e575f80fd5b50600436106030575f3560e01c8063292b2f86146034578063fb121699146076575b5f80fd5b605a7f000000000000000000000000000000000000000000000000000000000000000081565b6040516001600160a01b03909116815260200160405180910390f35b605a7f00000000000000000000000000000000000000000000000000000000000000008156fea264697066735822122084ff422e698d240fe17a59ecc739979bb687267e5e0862c95d46c6ec5527e99c64736f6c634300081a003360a0604052306080523480156012575f80fd5b5060805161322b6100395f395f8181611e2701528181611e500152611fb2015261322b5ff3fe608060405260043610610280575f3560e01c80638da5cb5b11610155578063c6e6f592116100be578063dd62ed3e11610078578063dd62ed3e14610703578063e30c397814610722578063e66f53b714610736578063ef8b30f714610651578063f2fde38b14610755578063fb12251b14610774575f80fd5b8063c6e6f59214610651578063ce96cb7714610670578063d1699c261461068f578063d3d03458146106a3578063d5f39488146106c5578063d905777e146106e4575f80fd5b8063b3d7f6b91161010f578063b3d7f6b9146105c1578063b460af94146105e0578063ba087652146105ff578063c0b568e11461061e578063c37fc8a81461063d578063c63d75b61461042d575f80fd5b80638da5cb5b1461053657806394bf804d1461049357806395d89b411461054a578063a9059cbb1461055e578063aa9d3a601461057d578063ad3cb1cc14610591575f80fd5b806338d52e0f116101f75780636e553f65116101b15780636e553f651461049357806370a08231146104b2578063715018a6146104d1578063745400c9146104e557806379502c551461050457806379ba509714610522575f80fd5b806338d52e0f14610401578063402d267d1461042d5780634cdad506146102c85780634f1ef2861461044d57806352d1902d1461046057806369440afc14610474575f80fd5b80630d1e6667116102485780630d1e66671461033557806318160ddd146103565780632016a0d21461038957806323b872dd146103a8578063313ce567146103c757806333fdc592146103ed575f80fd5b806301e1d1141461028457806306fdde03146102a757806307a2d13a146102c8578063095ea7b3146102e75780630a28a47714610316575b5f80fd5b34801561028f575f80fd5b506003545b6040519081526020015b60405180910390f35b3480156102b2575f80fd5b506102bb610793565b60405161029e91906129e7565b3480156102d3575f80fd5b506102946102e2366004612a1c565b610853565b3480156102f2575f80fd5b50610306610301366004612a47565b610864565b604051901515815260200161029e565b348015610321575f80fd5b50610294610330366004612a1c565b61087b565b348015610340575f80fd5b5061035461034f366004612a1c565b610887565b005b348015610361575f80fd5b507f52c63247e1f47db19d5ce0460030c497f067ca4cebf71ba98eeadabe20bace0254610294565b348015610394575f80fd5b506103546103a3366004612ab5565b610a40565b3480156103b3575f80fd5b506103066103c2366004612b47565b610ba6565b3480156103d2575f80fd5b506103db610bcb565b60405160ff909116815260200161029e565b3480156103f8575f80fd5b50610354610c0d565b34801561040c575f80fd5b50610415610d96565b6040516001600160a01b03909116815260200161029e565b348015610438575f80fd5b50610294610447366004612b85565b505f1990565b61035461045b366004612bb4565b610dca565b34801561046b575f80fd5b50610294610de9565b34801561047f575f80fd5b5061035461048e366004612a1c565b610e04565b34801561049e575f80fd5b506102946104ad366004612c77565b610f02565b3480156104bd575f80fd5b506102946104cc366004612b85565b610f1c565b3480156104dc575f80fd5b50610354610f42565b3480156104f0575f80fd5b506103546104ff366004612a1c565b610f53565b34801561050f575f80fd5b505f54610415906001600160a01b031681565b34801561052d575f80fd5b50610354611069565b348015610541575f80fd5b506104156110ae565b348015610555575f80fd5b506102bb6110d6565b348015610569575f80fd5b50610306610578366004612a47565b611114565b348015610588575f80fd5b50610354611121565b34801561059c575f80fd5b506102bb604051806040016040528060058152602001640352e302e360dc1b81525081565b3480156105cc575f80fd5b506102946105db366004612a1c565b611312565b3480156105eb575f80fd5b506102946105fa366004612ca5565b61131e565b34801561060a575f80fd5b50610294610619366004612ca5565b611337565b348015610629575f80fd5b50610354610638366004612a1c565b611351565b348015610648575f80fd5b506102946114a9565b34801561065c575f80fd5b5061029461066b366004612a1c565b611510565b34801561067b575f80fd5b5061029461068a366004612b85565b61151b565b34801561069a575f80fd5b5061029461152e565b3480156106ae575f80fd5b506106b761158d565b60405161029e929190612ce4565b3480156106d0575f80fd5b50600254610415906001600160a01b031681565b3480156106ef575f80fd5b506102946106fe366004612b85565b61162a565b34801561070e575f80fd5b5061029461071d366004612d6d565b611634565b34801561072d575f80fd5b5061041561167d565b348015610741575f80fd5b50600154610415906001600160a01b031681565b348015610760575f80fd5b5061035461076f366004612b85565b6116a5565b34801561077f575f80fd5b5061035461078e366004612d99565b61172a565b7f52c63247e1f47db19d5ce0460030c497f067ca4cebf71ba98eeadabe20bace0380546060915f80516020613196833981519152916107d190612e08565b80601f01602080910402602001604051908101604052809291908181526020018280546107fd90612e08565b80156108485780601f1061081f57610100808354040283529160200191610848565b820191905f5260205f20905b81548152906001019060200180831161082b57829003601f168201915b505050505091505090565b5f61085e825f6119da565b92915050565b5f33610871818585611ab5565b5060019392505050565b5f61085e826001611ac7565b61088f611b8f565b805f036108c85761089e610d96565b604051636b30633560e01b81526001600160a01b0390911660048201526024015b60405180910390fd5b335f90815260046020526040812054900361091f57600680546001810182555f919091527ff652222313e28459528d920b65115c16c04f3efc82aaedc97be59f3f377c0d3f0180546001600160a01b031916331790555b335f908152600460205260408120805483929061093d908490612e54565b909155505f905061094c610d96565b6040516323b872dd60e01b8152336004820152306024820152604481018490526001600160a01b0391909116906323b872dd906064016020604051808303815f875af115801561099e573d5f803e3d5ffd5b505050506040513d601f19601f820116820180604052508101906109c29190612e67565b9050806109e2576040516312171d8360e31b815260040160405180910390fd5b60065460405133917f03979a8c481a9e9c06938045cfd5c28535255cb003b10a8fe84ebb3cb4d440f291610a1e91868252602082015260400190565b60405180910390a250610a3d60015f805160206131d683398151915255565b50565b5f610a49611bd9565b805490915060ff600160401b82041615906001600160401b03165f81158015610a6f5750825b90505f826001600160401b03166001148015610a8a5750303b155b905081158015610a98575080155b15610ab65760405163f92ee8a960e01b815260040160405180910390fd5b845467ffffffffffffffff191660011785558315610ae057845460ff60401b1916600160401b1785555b610b538b8b8b8b8080601f0160208091040260200160405190810160405280939291908181526020018383808284375f9201919091525050604080516020601f8f018190048102820181019092528d815292508d91508c90819084018382808284375f92019190915250611c0192505050565b8315610b9957845460ff60401b19168555604051600181527fc7f505b2f371ae2175ee4913f4499e1f2633a7b5936321eed1cdaeb6115181d29060200160405180910390a15b5050505050505050505050565b5f33610bb3858285611d27565b610bbe858585611d8b565b60019150505b9392505050565b5f807f0773e532dfede91f04b12a73d3d2acd361424f41f76b4fb79f090161e36b4e0090505f8154610c079190600160a01b900460ff16612e86565b91505090565b5f8054906101000a90046001600160a01b03166001600160a01b0316633a0dad8e6040518163ffffffff1660e01b8152600401602060405180830381865afa158015610c5b573d5f803e3d5ffd5b505050506040513d601f19601f82011682018060405250810190610c7f9190612e9f565b6001600160a01b0316336001600160a01b031614610cb057604051631af2ab4f60e31b815260040160405180910390fd5b610cb8611b8f565b6006545f5b81811015610d7c575f60068281548110610cd957610cd9612eba565b5f9182526020808320909101546001600160a01b03168083526004909152604082205490925090610d0982611510565b6001600160a01b0384165f908152600460205260408120559050610d2d8382611de8565b60408051838152602081018690526001600160a01b038516917f782ea2005b7f873a0190a1ccb553c732171348d6e16d2b7d3d493c0677dc296e910160405180910390a2505050600101610cbd565b5050610d9460015f805160206131d683398151915255565b565b5f807f0773e532dfede91f04b12a73d3d2acd361424f41f76b4fb79f090161e36b4e005b546001600160a01b031692915050565b610dd2611e1c565b610ddb82611ec0565b610de58282611eeb565b5050565b5f610df2611fa7565b505f805160206131b683398151915290565b5f8054906101000a90046001600160a01b03166001600160a01b031663348ec5c86040518163ffffffff1660e01b8152600401602060405180830381865afa158015610e52573d5f803e3d5ffd5b505050506040513d601f19601f82011682018060405250810190610e769190612e9f565b6001600160a01b0316336001600160a01b031614610ea75760405163efb380d960e01b815260040160405180910390fd5b805f03610ec757604051634dfba02360e01b815260040160405180910390fd5b60038190556040518181527f5e1ff954b5e5257e9ee5d4cb07059e8f5e69b1aaaf9911e5d8d90a6894de9c219060200160405180910390a150565b5f6040516318f2e47360e11b815260040160405180910390fd5b6001600160a01b03165f9081525f80516020613196833981519152602052604090205490565b610f4a611ff0565b610d945f612022565b805f03610f73576040516314e6cbb960e11b815260040160405180910390fd5b80610f7d33610f1c565b1015610f9c57604051633c57b48560e21b815260040160405180910390fd5b335f908152600560205260408120549003610ff357600780546001810182555f919091527fa66cc928b5edb82af9bd49922954155ab7b0942694bea4ce44661d9a8736c6880180546001600160a01b031916331790555b335f9081526005602052604081208054839290611011908490612e54565b909155506110229050333083611d8b565b60075460405133917fd72eb5d043f24a0168ae744d5c44f9596fd673a26bf74d9646bff4b844882d149161105e91858252602082015260400190565b60405180910390a250565b338061107361167d565b6001600160a01b0316146110a55760405163118cdaa760e01b81526001600160a01b03821660048201526024016108bf565b610a3d81612022565b5f807f9016d09d72d40fdae2fd8ceac6b6234c7706214fd39c1cd1e609a0528c199300610dba565b7f52c63247e1f47db19d5ce0460030c497f067ca4cebf71ba98eeadabe20bace0480546060915f80516020613196833981519152916107d190612e08565b5f33610871818585611d8b565b5f8054906101000a90046001600160a01b03166001600160a01b0316633a0dad8e6040518163ffffffff1660e01b8152600401602060405180830381865afa15801561116f573d5f803e3d5ffd5b505050506040513d601f19601f820116820180604052508101906111939190612e9f565b6001600160a01b0316336001600160a01b0316146111c457604051631af2ab4f60e31b815260040160405180910390fd5b6111cc611b8f565b6007545f5b81811015610d7c575f600782815481106111ed576111ed612eba565b5f9182526020808320909101546001600160a01b031680835260059091526040822080549290559150611220308261205a565b5f61122a82610853565b9050611234610d96565b60405163a9059cbb60e01b81526001600160a01b03858116600483015260248201849052919091169063a9059cbb906044016020604051808303815f875af1158015611282573d5f803e3d5ffd5b505050506040513d601f19601f820116820180604052508101906112a69190612e67565b6112c3576040516312171d8360e31b815260040160405180910390fd5b60408051838152602081018690526001600160a01b038516917febad37b830b1857ef9af5983fc20dc0ded12dc472ba1e22e06fd3a9465b4506c910160405180910390a25050506001016111d1565b5f61085e8260016119da565b5f604051628a595160e01b815260040160405180910390fd5b5f604051630ad8521960e31b815260040160405180910390fd5b611359611b8f565b805f036113685761089e610d96565b335f90815260046020526040902054811115611397576040516332194fd360e21b815260040160405180910390fd5b335f90815260046020526040812080548392906113b5908490612ece565b90915550506006545f6113c6610d96565b60405163a9059cbb60e01b8152336004820152602481018590526001600160a01b03919091169063a9059cbb906044016020604051808303815f875af1158015611412573d5f803e3d5ffd5b505050506040513d601f19601f820116820180604052508101906114369190612e67565b905080611456576040516312171d8360e31b815260040160405180910390fd5b604080518481526020810184905233917f2b19ac8271899522bfff26e405c20643af4cdf99b525ef2cd8cde689644874ae910160405180910390a25050610a3d60015f805160206131d683398151915255565b6007545f908190815b818110156115085760055f600783815481106114d0576114d0612eba565b5f9182526020808320909101546001600160a01b031683528201929092526040019020546114fe9084612e54565b92506001016114b2565b509092915050565b5f61085e825f611ac7565b5f61085e61152883610f1c565b5f6119da565b6006545f908190815b818110156115085760045f6006838154811061155557611555612eba565b5f9182526020808320909101546001600160a01b031683528201929092526040019020546115839084612e54565b9250600101611537565b6060805f61159b600861208e565b9050806001600160401b038111156115b5576115b5612ba0565b6040519080825280602002602001820160405280156115de578160200160208202803683370190505b509250806001600160401b038111156115f9576115f9612ba0565b604051908082528060200260200182016040528015611622578160200160208202803683370190505b509150509091565b5f61085e82610f1c565b6001600160a01b039182165f9081527f52c63247e1f47db19d5ce0460030c497f067ca4cebf71ba98eeadabe20bace016020908152604080832093909416825291909152205490565b5f807f237e158222e3e6968b72b9db0d8043aacf074ad9f650f0d1606b4d82ee432c00610dba565b6116ad611ff0565b7f237e158222e3e6968b72b9db0d8043aacf074ad9f650f0d1606b4d82ee432c0080546001600160a01b0319166001600160a01b03831690811782556116f16110ae565b6001600160a01b03167f38d16b8cac22d99fc7c124b9cd0de2d3fa1faef420bfe791d8c362d765e2270060405160405180910390a35050565b6001546001600160a01b03163314611755576040516356b381a560e01b815260040160405180910390fd5b5f81900361177657604051631121aa8d60e01b815260040160405180910390fd5b611780600b612098565b5f805b82811015611909575f84848381811061179e5761179e612eba565b6117b49260206040909202019081019150612b85565b90505f8585848181106117c9576117c9612eba565b90506040020160200160208101906117e19190612ee1565b5f54604051633af32abf60e01b81526001600160a01b038581166004830152929350911690633af32abf90602401602060405180830381865afa15801561182a573d5f803e3d5ffd5b505050506040513d601f19601f8201168201806040525081019061184e9190612e67565b6118765760405163751dff9760e11b81526001600160a01b03831660048201526024016108bf565b8063ffffffff165f036118a757604051636b30633560e01b81526001600160a01b03831660048201526024016108bf565b5f6118bd600b8463ffffffff808616906120a116565b9050806118e8576040516346bdabe160e01b81526001600160a01b03841660048201526024016108bf565b6118f863ffffffff831686612e54565b945050600190920191506117839050565b505f805f9054906101000a90046001600160a01b03166001600160a01b031663d1717c7d6040518163ffffffff1660e01b8152600401602060405180830381865afa15801561195a573d5f803e3d5ffd5b505050506040513d601f19601f8201168201806040525081019061197e9190612f04565b905061198b81600a613007565b82146119aa57604051639006dd2760e01b815260040160405180910390fd5b60405133907f2d47a742b8d7df7c1fc5a9a631b206b364e6cb2722490759f63bb3ab14b132e0905f90a250505050565b5f80611a047f52c63247e1f47db19d5ce0460030c497f067ca4cebf71ba98eeadabe20bace025490565b90505f805f9054906101000a90046001600160a01b03166001600160a01b031663b71ee4fc6040518163ffffffff1660e01b8152600401602060405180830381865afa158015611a56573d5f803e3d5ffd5b505050506040513d601f19601f82011682018060405250810190611a7a9190612f04565b9050611aac6003546001611a8e9190612e54565b611a9983600a613007565b611aa39085612e54565b879190876120be565b95945050505050565b611ac28383836001612100565b505050565b5f80611af17f52c63247e1f47db19d5ce0460030c497f067ca4cebf71ba98eeadabe20bace025490565b90505f805f9054906101000a90046001600160a01b03166001600160a01b031663b71ee4fc6040518163ffffffff1660e01b8152600401602060405180830381865afa158015611b43573d5f803e3d5ffd5b505050506040513d601f19601f82011682018060405250810190611b679190612f04565b9050611aac611b7782600a613007565b611b819084612e54565b600354611aa3906001612e54565b5f805160206131d6833981519152805460011901611bc057604051633ee5aeb560e01b815260040160405180910390fd5b60029055565b60015f805160206131d683398151915255565b5f807ff0c57e16840df040f15088dc2f81fe391c3923bec73e23a9662efc9c229c6a0061085e565b611c096121e4565b6001600160a01b038416611c3057604051639c6bb9f560e01b815260040160405180910390fd5b6001600160a01b038316611c5757604051636a485a5b60e11b815260040160405180910390fd5b611c618282612209565b611cc9836001600160a01b0316637158da7c6040518163ffffffff1660e01b8152600401602060405180830381865afa158015611ca0573d5f803e3d5ffd5b505050506040513d601f19601f82011682018060405250810190611cc49190612e9f565b61221b565b611cd161222c565b611cd961223c565b611ce161223c565b611cea84612022565b5050600280546001600160a01b03199081163317909155600180546001600160a01b039485169083161790555f8054929093169116178155600355565b5f611d328484611634565b90505f19811015611d855781811015611d7757604051637dc7a0d960e11b81526001600160a01b038416600482015260248101829052604481018390526064016108bf565b611d8584848484035f612100565b50505050565b6001600160a01b038316611db457604051634b637e8f60e11b81525f60048201526024016108bf565b6001600160a01b038216611ddd5760405163ec442f0560e01b81525f60048201526024016108bf565b611ac2838383612244565b6001600160a01b038216611e115760405163ec442f0560e01b81525f60048201526024016108bf565b610de55f8383612244565b306001600160a01b037f0000000000000000000000000000000000000000000000000000000000000000161480611ea257507f00000000000000000000000000000000000000000000000000000000000000006001600160a01b0316611e965f805160206131b6833981519152546001600160a01b031690565b6001600160a01b031614155b15610d945760405163703e46dd60e11b815260040160405180910390fd5b6001546001600160a01b03163314610a3d576040516356b381a560e01b815260040160405180910390fd5b816001600160a01b03166352d1902d6040518163ffffffff1660e01b8152600401602060405180830381865afa925050508015611f45575060408051601f3d908101601f19168201909252611f4291810190613015565b60015b611f6d57604051634c9c8ce360e01b81526001600160a01b03831660048201526024016108bf565b5f805160206131b68339815191528114611f9d57604051632a87526960e21b8152600481018290526024016108bf565b611ac2838361237d565b306001600160a01b037f00000000000000000000000000000000000000000000000000000000000000001614610d945760405163703e46dd60e11b815260040160405180910390fd5b33611ff96110ae565b6001600160a01b031614610d945760405163118cdaa760e01b81523360048201526024016108bf565b7f237e158222e3e6968b72b9db0d8043aacf074ad9f650f0d1606b4d82ee432c0080546001600160a01b0319168155610de5826123d2565b6001600160a01b03821661208357604051634b637e8f60e11b81525f60048201526024016108bf565b610de5825f83612244565b5f61085e82612442565b610a3d8161244c565b5f6120b6846001600160a01b03851684612495565b949350505050565b5f6120eb6120cb836124b1565b80156120e657505f84806120e1576120e161302c565b868809115b151590565b6120f68686866124dd565b611aac9190612e54565b5f805160206131968339815191526001600160a01b0385166121375760405163e602df0560e01b81525f60048201526024016108bf565b6001600160a01b03841661216057604051634a1406b160e11b81525f60048201526024016108bf565b6001600160a01b038086165f908152600183016020908152604080832093881683529290522083905581156121dd57836001600160a01b0316856001600160a01b03167f8c5be1e5ebec7d5bd14f71427d1e84f3dd0314c0f7b2291e5b200ac8c7c3b925856040516121d491815260200190565b60405180910390a35b5050505050565b6121ec61258d565b610d9457604051631afcd79f60e31b815260040160405180910390fd5b6122116121e4565b610de582826125a6565b6122236121e4565b610a3d816125f6565b6122346121e4565b610d94612679565b610d946121e4565b5f805160206131968339815191526001600160a01b03841661227e5781816002015f8282546122739190612e54565b909155506122ee9050565b6001600160a01b0384165f90815260208290526040902054828110156122d05760405163391434e360e21b81526001600160a01b038616600482015260248101829052604481018490526064016108bf565b6001600160a01b0385165f9081526020839052604090209083900390555b6001600160a01b03831661230c57600281018054839003905561232a565b6001600160a01b0383165f9081526020829052604090208054830190555b826001600160a01b0316846001600160a01b03167fddf252ad1be2c89b69c2b068fc378daa952ba7f163c4a11628f55a4df523b3ef8460405161236f91815260200190565b60405180910390a350505050565b61238682612681565b6040516001600160a01b038316907fbc7cd75a20ee27fd9adebab32041f755214dbc6bffa90cc0225b39da2e5c2d3b905f90a28051156123ca57611ac282826126e4565b610de561274d565b7f9016d09d72d40fdae2fd8ceac6b6234c7706214fd39c1cd1e609a0528c19930080546001600160a01b031981166001600160a01b03848116918217845560405192169182907f8be0079c531659141344cd1fd0a4f28419497f9722a3daafe3b4186f6b6457e0905f90a3505050565b5f61085e8261276c565b5f61245682612442565b90505f5b8181101561248b57600283015f6124718584612775565b815260208101919091526040015f9081205560010161245a565b50610de582612780565b5f82815260028401602052604081208290556120b68484612789565b5f60028260038111156124c6576124c6613040565b6124d09190613054565b60ff166001149050919050565b5f805f6124ea8686612794565b91509150815f0361250e578381816125045761250461302c565b0492505050610bc4565b8184116125255761252560038515026011186127b0565b5f848688095f868103871696879004966002600389028118808a02820302808a02820302808a02820302808a02820302808a02820302808a02909103029181900381900460010185841190960395909502919093039390930492909217029150509392505050565b5f612596611bd9565b54600160401b900460ff16919050565b6125ae6121e4565b5f805160206131968339815191527f52c63247e1f47db19d5ce0460030c497f067ca4cebf71ba98eeadabe20bace036125e784826130c5565b5060048101611d8583826130c5565b6125fe6121e4565b7f0773e532dfede91f04b12a73d3d2acd361424f41f76b4fb79f090161e36b4e005f8061262a846127c1565b915091508161263a57601261263c565b805b83546001600160a81b031916600160a01b60ff92909216919091026001600160a01b031916176001600160a01b0394909416939093179091555050565b611bc66121e4565b806001600160a01b03163b5f036126b657604051634c9c8ce360e01b81526001600160a01b03821660048201526024016108bf565b5f805160206131b683398151915280546001600160a01b0319166001600160a01b0392909216919091179055565b60605f80846001600160a01b031684604051612700919061317f565b5f60405180830381855af49150503d805f8114612738576040519150601f19603f3d011682016040523d82523d5f602084013e61273d565b606091505b5091509150611aac858383612897565b3415610d945760405163b398979f60e01b815260040160405180910390fd5b5f61085e825490565b5f610bc483836128f3565b610a3d81612919565b5f610bc48383612972565b5f805f1983850993909202808410938190039390930393915050565b634e487b715f52806020526024601cfd5b60408051600481526024810182526020810180516001600160e01b031663313ce56760e01b17905290515f918291829182916001600160a01b038716916128079161317f565b5f60405180830381855afa9150503d805f811461283f576040519150601f19603f3d011682016040523d82523d5f602084013e612844565b606091505b509150915081801561285857506020815110155b1561288b575f818060200190518101906128729190613015565b905060ff8111612889576001969095509350505050565b505b505f9485945092505050565b6060826128ac576128a7826129be565b610bc4565b81511580156128c357506001600160a01b0384163b155b156128ec57604051639996b31560e01b81526001600160a01b03851660048201526024016108bf565b5080610bc4565b5f825f01828154811061290857612908612eba565b905f5260205f200154905092915050565b5f612922825490565b90505f5b8181101561296b57826001015f845f01838154811061294757612947612eba565b905f5260205f20015481526020019081526020015f205f9055806001019050612926565b50505f9055565b5f8181526001830160205260408120546129b757508154600181810184555f84815260208082209093018490558454848252828601909352604090209190915561085e565b505f61085e565b8051156129ce5780518082602001fd5b60405163d6bda27560e01b815260040160405180910390fd5b602081525f82518060208401528060208501604085015e5f604082850101526040601f19601f83011684010191505092915050565b5f60208284031215612a2c575f80fd5b5035919050565b6001600160a01b0381168114610a3d575f80fd5b5f8060408385031215612a58575f80fd5b8235612a6381612a33565b946020939093013593505050565b5f8083601f840112612a81575f80fd5b5081356001600160401b03811115612a97575f80fd5b602083019150836020828501011115612aae575f80fd5b9250929050565b5f805f805f8060808789031215612aca575f80fd5b8635612ad581612a33565b95506020870135612ae581612a33565b945060408701356001600160401b03811115612aff575f80fd5b612b0b89828a01612a71565b90955093505060608701356001600160401b03811115612b29575f80fd5b612b3589828a01612a71565b979a9699509497509295939492505050565b5f805f60608486031215612b59575f80fd5b8335612b6481612a33565b92506020840135612b7481612a33565b929592945050506040919091013590565b5f60208284031215612b95575f80fd5b8135610bc481612a33565b634e487b7160e01b5f52604160045260245ffd5b5f8060408385031215612bc5575f80fd5b8235612bd081612a33565b915060208301356001600160401b03811115612bea575f80fd5b8301601f81018513612bfa575f80fd5b80356001600160401b03811115612c1357612c13612ba0565b604051601f8201601f19908116603f011681016001600160401b0381118282101715612c4157612c41612ba0565b604052818152828201602001871015612c58575f80fd5b816020840160208301375f602083830101528093505050509250929050565b5f8060408385031215612c88575f80fd5b823591506020830135612c9a81612a33565b809150509250929050565b5f805f60608486031215612cb7575f80fd5b833592506020840135612cc981612a33565b91506040840135612cd981612a33565b809150509250925092565b604080825283519082018190525f9060208501906060840190835b81811015612d265783516001600160a01b0316835260209384019390920191600101612cff565b5050838103602080860191909152855180835291810192508501905f5b81811015612d61578251845260209384019390920191600101612d43565b50919695505050505050565b5f8060408385031215612d7e575f80fd5b8235612d8981612a33565b91506020830135612c9a81612a33565b5f8060208385031215612daa575f80fd5b82356001600160401b03811115612dbf575f80fd5b8301601f81018513612dcf575f80fd5b80356001600160401b03811115612de4575f80fd5b8560208260061b8401011115612df8575f80fd5b6020919091019590945092505050565b600181811c90821680612e1c57607f821691505b602082108103612e3a57634e487b7160e01b5f52602260045260245ffd5b50919050565b634e487b7160e01b5f52601160045260245ffd5b8082018082111561085e5761085e612e40565b5f60208284031215612e77575f80fd5b81518015158114610bc4575f80fd5b60ff818116838216019081111561085e5761085e612e40565b5f60208284031215612eaf575f80fd5b8151610bc481612a33565b634e487b7160e01b5f52603260045260245ffd5b8181038181111561085e5761085e612e40565b5f60208284031215612ef1575f80fd5b813563ffffffff81168114610bc4575f80fd5b5f60208284031215612f14575f80fd5b815160ff81168114610bc4575f80fd5b6001815b6001841115612f5f57808504811115612f4357612f43612e40565b6001841615612f5157908102905b60019390931c928002612f28565b935093915050565b5f82612f755750600161085e565b81612f8157505f61085e565b8160018114612f975760028114612fa157612fbd565b600191505061085e565b60ff841115612fb257612fb2612e40565b50506001821b61085e565b5060208310610133831016604e8410600b8410161715612fe0575081810a61085e565b612fec5f198484612f24565b805f1904821115612fff57612fff612e40565b029392505050565b5f610bc460ff841683612f67565b5f60208284031215613025575f80fd5b5051919050565b634e487b7160e01b5f52601260045260245ffd5b634e487b7160e01b5f52602160045260245ffd5b5f60ff83168061307257634e487b7160e01b5f52601260045260245ffd5b8060ff84160691505092915050565b601f821115611ac257805f5260205f20601f840160051c810160208510156130a65750805b601f840160051c820191505b818110156121dd575f81556001016130b2565b81516001600160401b038111156130de576130de612ba0565b6130f2816130ec8454612e08565b84613081565b6020601f821160018114613124575f831561310d5750848201515b5f19600385901b1c1916600184901b1784556121dd565b5f84815260208120601f198516915b828110156131535787850151825560209485019460019092019101613133565b508482101561317057868401515f19600387901b60f8161c191681555b50505050600190811b01905550565b5f82518060208501845e5f92019182525091905056fe52c63247e1f47db19d5ce0460030c497f067ca4cebf71ba98eeadabe20bace00360894a13ba1a3210667c828492db98dca3e2076cc3735a920a3ca505d382bbc9b779b17422d0df92223018b32b4d1fa46e071723d6817e2486d003becc55f00a2646970667358221220da1b3aed1d439dea8db70fa13b8cdf87d5268c923533f8aa6386104a36524ff964736f6c634300081a003360a0604052306080523480156012575f80fd5b50608051612fb76100395f395f8181611c6001528181611c890152611deb0152612fb75ff3fe608060405260043610610275575f3560e01c80638da5cb5b1161014a578063c37fc8a8116100be578063d905777e11610078578063d905777e146106d6578063dd62ed3e146106f5578063e30c397814610714578063e66f53b714610728578063ef8b30f714610665578063f2fde38b14610747575f80fd5b8063c37fc8a814610651578063c63d75b614610422578063c6e6f59214610665578063ce96cb7714610684578063d1699c26146106a3578063d5f39488146106b7575f80fd5b8063aa9d3a601161010f578063aa9d3a6014610591578063ad3cb1cc146105a5578063b3d7f6b9146105d5578063b460af94146105f4578063ba08765214610613578063c0b568e114610632575f80fd5b80638da5cb5b1461052b57806394bf804d1461048857806395d89b411461053f5780639c055a6614610553578063a9059cbb14610572575f80fd5b806338d52e0f116101ec5780636e553f65116101a65780636e553f651461048857806370a08231146104a7578063715018a6146104c6578063745400c9146104da57806379502c55146104f957806379ba509714610517575f80fd5b806338d52e0f146103f6578063402d267d146104225780634cdad506146102bd5780634f1ef2861461044257806352d1902d1461045557806369440afc14610469575f80fd5b80630d1e66671161023d5780630d1e66671461032a57806318160ddd1461034b5780632016a0d21461037e57806323b872dd1461039d578063313ce567146103bc57806333fdc592146103e2575f80fd5b806301e1d1141461027957806306fdde031461029c57806307a2d13a146102bd578063095ea7b3146102dc5780630a28a4771461030b575b5f80fd5b348015610284575f80fd5b506003545b6040519081526020015b60405180910390f35b3480156102a7575f80fd5b506102b0610766565b6040516102939190612816565b3480156102c8575f80fd5b506102896102d736600461284b565b610826565b3480156102e7575f80fd5b506102fb6102f6366004612876565b610837565b6040519015158152602001610293565b348015610316575f80fd5b5061028961032536600461284b565b61084e565b348015610335575f80fd5b5061034961034436600461284b565b61085a565b005b348015610356575f80fd5b507f52c63247e1f47db19d5ce0460030c497f067ca4cebf71ba98eeadabe20bace0254610289565b348015610389575f80fd5b506103496103983660046128e5565b610a13565b3480156103a8575f80fd5b506102fb6103b7366004612979565b610b7b565b3480156103c7575f80fd5b506103d0610ba0565b60405160ff9091168152602001610293565b3480156103ed575f80fd5b50610349610be2565b348015610401575f80fd5b5061040a610d6b565b6040516001600160a01b039091168152602001610293565b34801561042d575f80fd5b5061028961043c3660046129b7565b505f1990565b6103496104503660046129e6565b610d9f565b348015610460575f80fd5b50610289610dbe565b348015610474575f80fd5b5061034961048336600461284b565b610dd9565b348015610493575f80fd5b506102896104a2366004612aac565b610ed7565b3480156104b2575f80fd5b506102896104c13660046129b7565b610ef1565b3480156104d1575f80fd5b50610349610f17565b3480156104e5575f80fd5b506103496104f436600461284b565b610f28565b348015610504575f80fd5b505f5461040a906001600160a01b031681565b348015610522575f80fd5b5061034961103e565b348015610536575f80fd5b5061040a611083565b34801561054a575f80fd5b506102b06110ab565b34801561055e575f80fd5b5061034961056d366004612ada565b6110e9565b34801561057d575f80fd5b506102fb61058c366004612876565b61129a565b34801561059c575f80fd5b506103496112a7565b3480156105b0575f80fd5b506102b0604051806040016040528060058152602001640352e302e360dc1b81525081565b3480156105e0575f80fd5b506102896105ef36600461284b565b611498565b3480156105ff575f80fd5b5061028961060e366004612b4b565b6114a4565b34801561061e575f80fd5b5061028961062d366004612b4b565b6114bd565b34801561063d575f80fd5b5061034961064c36600461284b565b6114d7565b34801561065c575f80fd5b5061028961162f565b348015610670575f80fd5b5061028961067f36600461284b565b611696565b34801561068f575f80fd5b5061028961069e3660046129b7565b6116a1565b3480156106ae575f80fd5b506102896116b4565b3480156106c2575f80fd5b5060025461040a906001600160a01b031681565b3480156106e1575f80fd5b506102896106f03660046129b7565b611713565b348015610700575f80fd5b5061028961070f366004612b8a565b61171d565b34801561071f575f80fd5b5061040a611766565b348015610733575f80fd5b5060015461040a906001600160a01b031681565b348015610752575f80fd5b506103496107613660046129b7565b61178e565b7f52c63247e1f47db19d5ce0460030c497f067ca4cebf71ba98eeadabe20bace0380546060915f80516020612f22833981519152916107a490612bb6565b80601f01602080910402602001604051908101604052809291908181526020018280546107d090612bb6565b801561081b5780601f106107f25761010080835404028352916020019161081b565b820191905f5260205f20905b8154815290600101906020018083116107fe57829003601f168201915b505050505091505090565b5f610831825f611813565b92915050565b5f336108448185856118ee565b5060019392505050565b5f610831826001611900565b6108626119c8565b805f0361089b57610871610d6b565b604051636b30633560e01b81526001600160a01b0390911660048201526024015b60405180910390fd5b335f9081526004602052604081205490036108f257600680546001810182555f919091527ff652222313e28459528d920b65115c16c04f3efc82aaedc97be59f3f377c0d3f0180546001600160a01b031916331790555b335f9081526004602052604081208054839290610910908490612c02565b909155505f905061091f610d6b565b6040516323b872dd60e01b8152336004820152306024820152604481018490526001600160a01b0391909116906323b872dd906064016020604051808303815f875af1158015610971573d5f803e3d5ffd5b505050506040513d601f19601f820116820180604052508101906109959190612c15565b9050806109b5576040516312171d8360e31b815260040160405180910390fd5b60065460405133917f03979a8c481a9e9c06938045cfd5c28535255cb003b10a8fe84ebb3cb4d440f2916109f191868252602082015260400190565b60405180910390a250610a1060015f80516020612f6283398151915255565b50565b5f610a1c611a12565b805490915060ff600160401b820416159067ffffffffffffffff165f81158015610a435750825b90505f8267ffffffffffffffff166001148015610a5f5750303b155b905081158015610a6d575080155b15610a8b5760405163f92ee8a960e01b815260040160405180910390fd5b845467ffffffffffffffff191660011785558315610ab557845460ff60401b1916600160401b1785555b610b288b8b8b8b8080601f0160208091040260200160405190810160405280939291908181526020018383808284375f9201919091525050604080516020601f8f018190048102820181019092528d815292508d91508c90819084018382808284375f92019190915250611a3a92505050565b8315610b6e57845460ff60401b19168555604051600181527fc7f505b2f371ae2175ee4913f4499e1f2633a7b5936321eed1cdaeb6115181d29060200160405180910390a15b5050505050505050505050565b5f33610b88858285611b60565b610b93858585611bc4565b60019150505b9392505050565b5f807f0773e532dfede91f04b12a73d3d2acd361424f41f76b4fb79f090161e36b4e0090505f8154610bdc9190600160a01b900460ff16612c34565b91505090565b5f8054906101000a90046001600160a01b03166001600160a01b0316633a0dad8e6040518163ffffffff1660e01b8152600401602060405180830381865afa158015610c30573d5f803e3d5ffd5b505050506040513d601f19601f82011682018060405250810190610c549190612c4d565b6001600160a01b0316336001600160a01b031614610c8557604051631af2ab4f60e31b815260040160405180910390fd5b610c8d6119c8565b6006545f5b81811015610d51575f60068281548110610cae57610cae612c68565b5f9182526020808320909101546001600160a01b03168083526004909152604082205490925090610cde82611696565b6001600160a01b0384165f908152600460205260408120559050610d028382611c21565b60408051838152602081018690526001600160a01b038516917f782ea2005b7f873a0190a1ccb553c732171348d6e16d2b7d3d493c0677dc296e910160405180910390a2505050600101610c92565b5050610d6960015f80516020612f6283398151915255565b565b5f807f0773e532dfede91f04b12a73d3d2acd361424f41f76b4fb79f090161e36b4e005b546001600160a01b031692915050565b610da7611c55565b610db082611cf9565b610dba8282611d24565b5050565b5f610dc7611de0565b505f80516020612f4283398151915290565b5f8054906101000a90046001600160a01b03166001600160a01b031663348ec5c86040518163ffffffff1660e01b8152600401602060405180830381865afa158015610e27573d5f803e3d5ffd5b505050506040513d601f19601f82011682018060405250810190610e4b9190612c4d565b6001600160a01b0316336001600160a01b031614610e7c5760405163efb380d960e01b815260040160405180910390fd5b805f03610e9c57604051634dfba02360e01b815260040160405180910390fd5b60038190556040518181527f5e1ff954b5e5257e9ee5d4cb07059e8f5e69b1aaaf9911e5d8d90a6894de9c219060200160405180910390a150565b5f6040516318f2e47360e11b815260040160405180910390fd5b6001600160a01b03165f9081525f80516020612f22833981519152602052604090205490565b610f1f611e29565b610d695f611e5b565b805f03610f48576040516314e6cbb960e11b815260040160405180910390fd5b80610f5233610ef1565b1015610f7157604051633c57b48560e21b815260040160405180910390fd5b335f908152600560205260408120549003610fc857600780546001810182555f919091527fa66cc928b5edb82af9bd49922954155ab7b0942694bea4ce44661d9a8736c6880180546001600160a01b031916331790555b335f9081526005602052604081208054839290610fe6908490612c02565b90915550610ff79050333083611bc4565b60075460405133917fd72eb5d043f24a0168ae744d5c44f9596fd673a26bf74d9646bff4b844882d149161103391858252602082015260400190565b60405180910390a250565b3380611048611766565b6001600160a01b03161461107a5760405163118cdaa760e01b81526001600160a01b0382166004820152602401610892565b610a1081611e5b565b5f807f9016d09d72d40fdae2fd8ceac6b6234c7706214fd39c1cd1e609a0528c199300610d8f565b7f52c63247e1f47db19d5ce0460030c497f067ca4cebf71ba98eeadabe20bace0480546060915f80516020612f22833981519152916107a490612bb6565b6001546001600160a01b03163314611114576040516356b381a560e01b815260040160405180910390fd5b5f81900361113557604051631121aa8d60e01b815260040160405180910390fd5b61113f600b611e93565b5f5b8181101561126b575f83838381811061115c5761115c612c68565b61117292602060409092020190810191506129b7565b90505f84848481811061118757611187612c68565b5f5460408051633af32abf60e01b81526001600160a01b03888116600483015260209290940295909501013594501691633af32abf9150602401602060405180830381865afa1580156111dc573d5f803e3d5ffd5b505050506040513d601f19601f820116820180604052508101906112009190612c15565b6112285760405163751dff9760e11b81526001600160a01b0383166004820152602401610892565b5f611235600b8484611e9c565b905080611260576040516346bdabe160e01b81526001600160a01b0384166004820152602401610892565b505050600101611141565b5060405133907f2d47a742b8d7df7c1fc5a9a631b206b364e6cb2722490759f63bb3ab14b132e0905f90a25050565b5f33610844818585611bc4565b5f8054906101000a90046001600160a01b03166001600160a01b0316633a0dad8e6040518163ffffffff1660e01b8152600401602060405180830381865afa1580156112f5573d5f803e3d5ffd5b505050506040513d601f19601f820116820180604052508101906113199190612c4d565b6001600160a01b0316336001600160a01b03161461134a57604051631af2ab4f60e31b815260040160405180910390fd5b6113526119c8565b6007545f5b81811015610d51575f6007828154811061137357611373612c68565b5f9182526020808320909101546001600160a01b0316808352600590915260408220805492905591506113a63082611eb9565b5f6113b082610826565b90506113ba610d6b565b60405163a9059cbb60e01b81526001600160a01b03858116600483015260248201849052919091169063a9059cbb906044016020604051808303815f875af1158015611408573d5f803e3d5ffd5b505050506040513d601f19601f8201168201806040525081019061142c9190612c15565b611449576040516312171d8360e31b815260040160405180910390fd5b60408051838152602081018690526001600160a01b038516917febad37b830b1857ef9af5983fc20dc0ded12dc472ba1e22e06fd3a9465b4506c910160405180910390a2505050600101611357565b5f610831826001611813565b5f604051628a595160e01b815260040160405180910390fd5b5f604051630ad8521960e31b815260040160405180910390fd5b6114df6119c8565b805f036114ee57610871610d6b565b335f9081526004602052604090205481111561151d576040516332194fd360e21b815260040160405180910390fd5b335f908152600460205260408120805483929061153b908490612c7c565b90915550506006545f61154c610d6b565b60405163a9059cbb60e01b8152336004820152602481018590526001600160a01b03919091169063a9059cbb906044016020604051808303815f875af1158015611598573d5f803e3d5ffd5b505050506040513d601f19601f820116820180604052508101906115bc9190612c15565b9050806115dc576040516312171d8360e31b815260040160405180910390fd5b604080518481526020810184905233917f2b19ac8271899522bfff26e405c20643af4cdf99b525ef2cd8cde689644874ae910160405180910390a25050610a1060015f80516020612f6283398151915255565b6007545f908190815b8181101561168e5760055f6007838154811061165657611656612c68565b5f9182526020808320909101546001600160a01b031683528201929092526040019020546116849084612c02565b9250600101611638565b509092915050565b5f610831825f611900565b5f6108316116ae83610ef1565b5f611813565b6006545f908190815b8181101561168e5760045f600683815481106116db576116db612c68565b5f9182526020808320909101546001600160a01b031683528201929092526040019020546117099084612c02565b92506001016116bd565b5f61083182610ef1565b6001600160a01b039182165f9081527f52c63247e1f47db19d5ce0460030c497f067ca4cebf71ba98eeadabe20bace016020908152604080832093909416825291909152205490565b5f807f237e158222e3e6968b72b9db0d8043aacf074ad9f650f0d1606b4d82ee432c00610d8f565b611796611e29565b7f237e158222e3e6968b72b9db0d8043aacf074ad9f650f0d1606b4d82ee432c0080546001600160a01b0319166001600160a01b03831690811782556117da611083565b6001600160a01b03167f38d16b8cac22d99fc7c124b9cd0de2d3fa1faef420bfe791d8c362d765e2270060405160405180910390a35050565b5f8061183d7f52c63247e1f47db19d5ce0460030c497f067ca4cebf71ba98eeadabe20bace025490565b90505f805f9054906101000a90046001600160a01b03166001600160a01b031663b71ee4fc6040518163ffffffff1660e01b8152600401602060405180830381865afa15801561188f573d5f803e3d5ffd5b505050506040513d601f19601f820116820180604052508101906118b39190612c8f565b90506118e560035460016118c79190612c02565b6118d283600a612d92565b6118dc9085612c02565b87919087611eed565b95945050505050565b6118fb8383836001611f2f565b505050565b5f8061192a7f52c63247e1f47db19d5ce0460030c497f067ca4cebf71ba98eeadabe20bace025490565b90505f805f9054906101000a90046001600160a01b03166001600160a01b031663b71ee4fc6040518163ffffffff1660e01b8152600401602060405180830381865afa15801561197c573d5f803e3d5ffd5b505050506040513d601f19601f820116820180604052508101906119a09190612c8f565b90506118e56119b082600a612d92565b6119ba9084612c02565b6003546118dc906001612c02565b5f80516020612f628339815191528054600119016119f957604051633ee5aeb560e01b815260040160405180910390fd5b60029055565b60015f80516020612f6283398151915255565b5f807ff0c57e16840df040f15088dc2f81fe391c3923bec73e23a9662efc9c229c6a00610831565b611a42612013565b6001600160a01b038416611a6957604051639c6bb9f560e01b815260040160405180910390fd5b6001600160a01b038316611a9057604051636a485a5b60e11b815260040160405180910390fd5b611a9a8282612038565b611b02836001600160a01b0316637158da7c6040518163ffffffff1660e01b8152600401602060405180830381865afa158015611ad9573d5f803e3d5ffd5b505050506040513d601f19601f82011682018060405250810190611afd9190612c4d565b61204a565b611b0a61205b565b611b1261206b565b611b1a61206b565b611b2384611e5b565b5050600280546001600160a01b03199081163317909155600180546001600160a01b039485169083161790555f8054929093169116178155600355565b5f611b6b848461171d565b90505f19811015611bbe5781811015611bb057604051637dc7a0d960e11b81526001600160a01b03841660048201526024810182905260448101839052606401610892565b611bbe84848484035f611f2f565b50505050565b6001600160a01b038316611bed57604051634b637e8f60e11b81525f6004820152602401610892565b6001600160a01b038216611c165760405163ec442f0560e01b81525f6004820152602401610892565b6118fb838383612073565b6001600160a01b038216611c4a5760405163ec442f0560e01b81525f6004820152602401610892565b610dba5f8383612073565b306001600160a01b037f0000000000000000000000000000000000000000000000000000000000000000161480611cdb57507f00000000000000000000000000000000000000000000000000000000000000006001600160a01b0316611ccf5f80516020612f42833981519152546001600160a01b031690565b6001600160a01b031614155b15610d695760405163703e46dd60e11b815260040160405180910390fd5b6001546001600160a01b03163314610a10576040516356b381a560e01b815260040160405180910390fd5b816001600160a01b03166352d1902d6040518163ffffffff1660e01b8152600401602060405180830381865afa925050508015611d7e575060408051601f3d908101601f19168201909252611d7b91810190612da0565b60015b611da657604051634c9c8ce360e01b81526001600160a01b0383166004820152602401610892565b5f80516020612f428339815191528114611dd657604051632a87526960e21b815260048101829052602401610892565b6118fb83836121ac565b306001600160a01b037f00000000000000000000000000000000000000000000000000000000000000001614610d695760405163703e46dd60e11b815260040160405180910390fd5b33611e32611083565b6001600160a01b031614610d695760405163118cdaa760e01b8152336004820152602401610892565b7f237e158222e3e6968b72b9db0d8043aacf074ad9f650f0d1606b4d82ee432c0080546001600160a01b0319168155610dba82612201565b610a1081612271565b5f611eb1846001600160a01b038516846122ba565b949350505050565b6001600160a01b038216611ee257604051634b637e8f60e11b81525f6004820152602401610892565b610dba825f83612073565b5f611f1a611efa836122d6565b8015611f1557505f8480611f1057611f10612db7565b868809115b151590565b611f25868686612302565b6118e59190612c02565b5f80516020612f228339815191526001600160a01b038516611f665760405163e602df0560e01b81525f6004820152602401610892565b6001600160a01b038416611f8f57604051634a1406b160e11b81525f6004820152602401610892565b6001600160a01b038086165f9081526001830160209081526040808320938816835292905220839055811561200c57836001600160a01b0316856001600160a01b03167f8c5be1e5ebec7d5bd14f71427d1e84f3dd0314c0f7b2291e5b200ac8c7c3b9258560405161200391815260200190565b60405180910390a35b5050505050565b61201b6123b2565b610d6957604051631afcd79f60e31b815260040160405180910390fd5b612040612013565b610dba82826123cb565b612052612013565b610a108161241b565b612063612013565b610d6961249e565b610d69612013565b5f80516020612f228339815191526001600160a01b0384166120ad5781816002015f8282546120a29190612c02565b9091555061211d9050565b6001600160a01b0384165f90815260208290526040902054828110156120ff5760405163391434e360e21b81526001600160a01b03861660048201526024810182905260448101849052606401610892565b6001600160a01b0385165f9081526020839052604090209083900390555b6001600160a01b03831661213b576002810180548390039055612159565b6001600160a01b0383165f9081526020829052604090208054830190555b826001600160a01b0316846001600160a01b03167fddf252ad1be2c89b69c2b068fc378daa952ba7f163c4a11628f55a4df523b3ef8460405161219e91815260200190565b60405180910390a350505050565b6121b5826124a6565b6040516001600160a01b038316907fbc7cd75a20ee27fd9adebab32041f755214dbc6bffa90cc0225b39da2e5c2d3b905f90a28051156121f9576118fb8282612509565b610dba612572565b7f9016d09d72d40fdae2fd8ceac6b6234c7706214fd39c1cd1e609a0528c19930080546001600160a01b031981166001600160a01b03848116918217845560405192169182907f8be0079c531659141344cd1fd0a4f28419497f9722a3daafe3b4186f6b6457e0905f90a3505050565b5f61227b82612591565b90505f5b818110156122b057600283015f612296858461259b565b815260208101919091526040015f9081205560010161227f565b50610dba826125a6565b5f8281526002840160205260408120829055611eb184846125af565b5f60028260038111156122eb576122eb612dcb565b6122f59190612ddf565b60ff166001149050919050565b5f805f61230f86866125ba565b91509150815f036123335783818161232957612329612db7565b0492505050610b99565b81841161234a5761234a60038515026011186125d6565b5f848688095f868103871696879004966002600389028118808a02820302808a02820302808a02820302808a02820302808a02820302808a02909103029181900381900460010185841190960395909502919093039390930492909217029150509392505050565b5f6123bb611a12565b54600160401b900460ff16919050565b6123d3612013565b5f80516020612f228339815191527f52c63247e1f47db19d5ce0460030c497f067ca4cebf71ba98eeadabe20bace0361240c8482612e50565b5060048101611bbe8382612e50565b612423612013565b7f0773e532dfede91f04b12a73d3d2acd361424f41f76b4fb79f090161e36b4e005f8061244f846125e7565b915091508161245f576012612461565b805b83546001600160a81b031916600160a01b60ff92909216919091026001600160a01b031916176001600160a01b0394909416939093179091555050565b6119ff612013565b806001600160a01b03163b5f036124db57604051634c9c8ce360e01b81526001600160a01b0382166004820152602401610892565b5f80516020612f4283398151915280546001600160a01b0319166001600160a01b0392909216919091179055565b60605f80846001600160a01b0316846040516125259190612f0b565b5f60405180830381855af49150503d805f811461255d576040519150601f19603f3d011682016040523d82523d5f602084013e612562565b606091505b50915091506118e58583836126bd565b3415610d695760405163b398979f60e01b815260040160405180910390fd5b5f61083182612719565b5f610b998383612722565b610a1081612748565b5f610b9983836127a1565b5f805f1983850993909202808410938190039390930393915050565b634e487b715f52806020526024601cfd5b60408051600481526024810182526020810180516001600160e01b031663313ce56760e01b17905290515f918291829182916001600160a01b0387169161262d91612f0b565b5f60405180830381855afa9150503d805f8114612665576040519150601f19603f3d011682016040523d82523d5f602084013e61266a565b606091505b509150915081801561267e57506020815110155b156126b1575f818060200190518101906126989190612da0565b905060ff81116126af576001969095509350505050565b505b505f9485945092505050565b6060826126d2576126cd826127ed565b610b99565b81511580156126e957506001600160a01b0384163b155b1561271257604051639996b31560e01b81526001600160a01b0385166004820152602401610892565b5080610b99565b5f610831825490565b5f825f01828154811061273757612737612c68565b905f5260205f200154905092915050565b5f612751825490565b90505f5b8181101561279a57826001015f845f01838154811061277657612776612c68565b905f5260205f20015481526020019081526020015f205f9055806001019050612755565b50505f9055565b5f8181526001830160205260408120546127e657508154600181810184555f848152602080822090930184905584548482528286019093526040902091909155610831565b505f610831565b8051156127fd5780518082602001fd5b60405163d6bda27560e01b815260040160405180910390fd5b602081525f82518060208401528060208501604085015e5f604082850101526040601f19601f83011684010191505092915050565b5f6020828403121561285b575f80fd5b5035919050565b6001600160a01b0381168114610a10575f80fd5b5f8060408385031215612887575f80fd5b823561289281612862565b946020939093013593505050565b5f8083601f8401126128b0575f80fd5b50813567ffffffffffffffff8111156128c7575f80fd5b6020830191508360208285010111156128de575f80fd5b9250929050565b5f805f805f80608087890312156128fa575f80fd5b863561290581612862565b9550602087013561291581612862565b9450604087013567ffffffffffffffff811115612930575f80fd5b61293c89828a016128a0565b909550935050606087013567ffffffffffffffff81111561295b575f80fd5b61296789828a016128a0565b979a9699509497509295939492505050565b5f805f6060848603121561298b575f80fd5b833561299681612862565b925060208401356129a681612862565b929592945050506040919091013590565b5f602082840312156129c7575f80fd5b8135610b9981612862565b634e487b7160e01b5f52604160045260245ffd5b5f80604083850312156129f7575f80fd5b8235612a0281612862565b9150602083013567ffffffffffffffff811115612a1d575f80fd5b8301601f81018513612a2d575f80fd5b803567ffffffffffffffff811115612a4757612a476129d2565b604051601f8201601f19908116603f0116810167ffffffffffffffff81118282101715612a7657612a766129d2565b604052818152828201602001871015612a8d575f80fd5b816020840160208301375f602083830101528093505050509250929050565b5f8060408385031215612abd575f80fd5b823591506020830135612acf81612862565b809150509250929050565b5f8060208385031215612aeb575f80fd5b823567ffffffffffffffff811115612b01575f80fd5b8301601f81018513612b11575f80fd5b803567ffffffffffffffff811115612b27575f80fd5b8560208260061b8401011115612b3b575f80fd5b6020919091019590945092505050565b5f805f60608486031215612b5d575f80fd5b833592506020840135612b6f81612862565b91506040840135612b7f81612862565b809150509250925092565b5f8060408385031215612b9b575f80fd5b8235612ba681612862565b91506020830135612acf81612862565b600181811c90821680612bca57607f821691505b602082108103612be857634e487b7160e01b5f52602260045260245ffd5b50919050565b634e487b7160e01b5f52601160045260245ffd5b8082018082111561083157610831612bee565b5f60208284031215612c25575f80fd5b81518015158114610b99575f80fd5b60ff818116838216019081111561083157610831612bee565b5f60208284031215612c5d575f80fd5b8151610b9981612862565b634e487b7160e01b5f52603260045260245ffd5b8181038181111561083157610831612bee565b5f60208284031215612c9f575f80fd5b815160ff81168114610b99575f80fd5b6001815b6001841115612cea57808504811115612cce57612cce612bee565b6001841615612cdc57908102905b60019390931c928002612cb3565b935093915050565b5f82612d0057506001610831565b81612d0c57505f610831565b8160018114612d225760028114612d2c57612d48565b6001915050610831565b60ff841115612d3d57612d3d612bee565b50506001821b610831565b5060208310610133831016604e8410600b8410161715612d6b575081810a610831565b612d775f198484612caf565b805f1904821115612d8a57612d8a612bee565b029392505050565b5f610b9960ff841683612cf2565b5f60208284031215612db0575f80fd5b5051919050565b634e487b7160e01b5f52601260045260245ffd5b634e487b7160e01b5f52602160045260245ffd5b5f60ff831680612dfd57634e487b7160e01b5f52601260045260245ffd5b8060ff84160691505092915050565b601f8211156118fb57805f5260205f20601f840160051c81016020851015612e315750805b601f840160051c820191505b8181101561200c575f8155600101612e3d565b815167ffffffffffffffff811115612e6a57612e6a6129d2565b612e7e81612e788454612bb6565b84612e0c565b6020601f821160018114612eb0575f8315612e995750848201515b5f19600385901b1c1916600184901b17845561200c565b5f84815260208120601f198516915b82811015612edf5787850151825560209485019460019092019101612ebf565b5084821015612efc57868401515f19600387901b60f8161c191681555b50505050600190811b01905550565b5f82518060208501845e5f92019182525091905056fe52c63247e1f47db19d5ce0460030c497f067ca4cebf71ba98eeadabe20bace00360894a13ba1a3210667c828492db98dca3e2076cc3735a920a3ca505d382bbc9b779b17422d0df92223018b32b4d1fa46e071723d6817e2486d003becc55f00a26469706673582212202a92c16dc7c9651122cb3ba2e65d4d932692a7a80373edfd3c2768c131bedea764736f6c634300081a0033",
  "linkReferences": {},
  "deployedLinkReferences": {}
}