{
  "_format": "hh-sol-artifact-1",
  "contractName": "VaultImplementations",
  "sourceName": "contracts/helpers/VaultImplementations.sol",
  "abi": [
    {
      "inputs": [],
      "stateMutability": "nonpayable",
      "type": "constructor"
    },
    {
      "inputs": [],
      "name": "ENCRYPTED_VAULT_IMPLEMENTATION",
      "outputs": [
        {
          "internalType": "address",
          "name": "",
          "type": "address"
        }
      ],
      "stateMutability": "view",
      "type": "function"
    },
    {
      "inputs": [],
      "name": "TRANSPARENT_VAULT_IMPLEMENTATION",
      "outputs": [
        {
          "internalType": "address",
          "name": "",
          "type": "address"
        }
      ],
      "stateMutability": "view",
      "type": "function"
    }
  ],
  "bytecode": "0x60c0604052348015600e575f5ffd5b506040516019906071565b604051809103905ff0801580156031573d5f5f3e3d5ffd5b506001600160a01b0316608052604051604890607e565b604051809103905ff0801580156060573d5f5f3e3d5ffd5b506001600160a01b031660a052608b565b613cac8061017a83390190565b61413d80613e2683390190565b60805160a05160d26100a85f395f607a01525f6038015260d25ff3fe6080604052348015600e575f5ffd5b50600436106030575f3560e01c8063292b2f86146034578063fb121699146076575b5f5ffd5b605a7f000000000000000000000000000000000000000000000000000000000000000081565b6040516001600160a01b03909116815260200160405180910390f35b605a7f00000000000000000000000000000000000000000000000000000000000000008156fea26469706673582212203c7f762297a3082bf5254531ed0fde124fbbd5299ca200c170dc9cf288d3f15e64736f6c634300081c003360a0604052306080523480156012575f5ffd5b50608051613c736100395f395f81816126180152818161264101526127a30152613c735ff3fe6080604052600436106102bf575f3560e01c806395d89b411161016f578063c63d75b6116100d8578063d5f3948811610092578063e30c39781161006d578063e30c3978146107ae578063e66f53b7146107c2578063ef8b30f7146106cc578063f2fde38b146107e1575f5ffd5b8063d5f3948814610751578063d905777e14610770578063dd62ed3e1461078f575f5ffd5b8063c63d75b61461048b578063c6e6f592146106cc578063cce4705b146106eb578063ce96cb771461070a578063d1699c2614610729578063d3d034581461073d575f5ffd5b8063b3d7f6b911610129578063b3d7f6b91461063e578063b460af941461065d578063b6eba65314610677578063ba0876521461065d578063c0b568e114610699578063c37fc8a8146106b8575f5ffd5b806395d89b4114610589578063a68a52671461059d578063a9059cbb146105bc578063aa9d3a60146105db578063ad3cb1cc146105ef578063b1bd7e2e1461061f575f5ffd5b806338d52e0f1161022b57806370a08231116101e557806379502c55116101c057806379502c551461054357806379ba5097146105615780638da5cb5b1461057557806394bf804d146104d2575f5ffd5b806370a08231146104f1578063715018a614610510578063745400c914610524575f5ffd5b806338d52e0f1461045f578063402d267d1461048b5780634cdad506146103075780634f1ef286146104ab57806352d1902d146104be5780636e553f65146104d2575f5ffd5b8063105444941161027c578063105444941461039557806318160ddd146103b45780632016a0d2146103e757806323b872dd14610406578063313ce5671461042557806333fdc5921461044b575f5ffd5b806301e1d114146102c357806306fdde03146102e657806307a2d13a14610307578063095ea7b3146103265780630a28a477146103555780630d1e666714610374575b5f5ffd5b3480156102ce575f5ffd5b506003545b6040519081526020015b60405180910390f35b3480156102f1575f5ffd5b506102fa610800565b6040516102dd9190613364565b348015610312575f5ffd5b506102d3610321366004613399565b6108c0565b348015610331575f5ffd5b506103456103403660046133c4565b6108d1565b60405190151581526020016102dd565b348015610360575f5ffd5b506102d361036f366004613399565b6108e8565b34801561037f575f5ffd5b5061039361038e366004613399565b6108f4565b005b3480156103a0575f5ffd5b506103936103af36600461342e565b610b7e565b3480156103bf575f5ffd5b507f52c63247e1f47db19d5ce0460030c497f067ca4cebf71ba98eeadabe20bace02546102d3565b3480156103f2575f5ffd5b506103936104013660046134b2565b610ceb565b348015610411575f5ffd5b50610345610420366004613544565b610e51565b348015610430575f5ffd5b50610439610e76565b60405160ff90911681526020016102dd565b348015610456575f5ffd5b50610393610eb8565b34801561046a575f5ffd5b50610473611143565b6040516001600160a01b0390911681526020016102dd565b348015610496575f5ffd5b506102d36104a5366004613582565b505f1990565b6103936104b93660046135b1565b611177565b3480156104c9575f5ffd5b506102d3611196565b3480156104dd575f5ffd5b506102d36104ec366004613674565b6111b1565b3480156104fc575f5ffd5b506102d361050b366004613582565b6111cb565b34801561051b575f5ffd5b506103936111f1565b34801561052f575f5ffd5b5061039361053e366004613399565b611202565b34801561054e575f5ffd5b505f54610473906001600160a01b031681565b34801561056c575f5ffd5b506103936113e7565b348015610580575f5ffd5b5061047361142c565b348015610594575f5ffd5b506102fa611454565b3480156105a8575f5ffd5b506102d36105b73660046136a2565b611492565b3480156105c7575f5ffd5b506103456105d63660046133c4565b6114f9565b3480156105e6575f5ffd5b50610393611506565b3480156105fa575f5ffd5b506102fa604051806040016040528060058152602001640352e302e360dc1b81525081565b34801561062a575f5ffd5b506103936106393660046136db565b61182f565b348015610649575f5ffd5b506102d3610658366004613399565b611ae1565b348015610668575f5ffd5b506102d36104ec366004613719565b348015610682575f5ffd5b5061068b611aed565b6040516102dd92919061374d565b3480156106a4575f5ffd5b506103936106b3366004613399565b611c01565b3480156106c3575f5ffd5b50600b546102d3565b3480156106d7575f5ffd5b506102d36106e6366004613399565b611db1565b3480156106f6575f5ffd5b50610393610705366004613399565b611dbc565b348015610715575f5ffd5b506102d3610724366004613582565b611f61565b348015610734575f5ffd5b50600a546102d3565b348015610748575f5ffd5b5061068b611f74565b34801561075c575f5ffd5b50600254610473906001600160a01b031681565b34801561077b575f5ffd5b506102d361078a366004613582565b612082565b34801561079a575f5ffd5b506102d36107a93660046137d6565b61208c565b3480156107b9575f5ffd5b506104736120d5565b3480156107cd575f5ffd5b50600154610473906001600160a01b031681565b3480156107ec575f5ffd5b506103936107fb366004613582565b6120fd565b7f52c63247e1f47db19d5ce0460030c497f067ca4cebf71ba98eeadabe20bace0380546060915f516020613bde5f395f51905f529161083e90613802565b80601f016020809104026020016040519081016040528092919081815260200182805461086a90613802565b80156108b55780601f1061088c576101008083540402835291602001916108b5565b820191905f5260205f20905b81548152906001019060200180831161089857829003601f168201915b505050505091505090565b5f6108cb825f612182565b92915050565b5f336108de818585612190565b5060019392505050565b5f6108cb8260016121a2565b6108fc61220d565b805f036109355761090b611143565b604051636b30633560e01b81526001600160a01b0390911660048201526024015b60405180910390fd5b5f61093e611143565b6040516370a0823160e01b81523360048201526001600160a01b0391909116906370a0823190602401602060405180830381865afa158015610982573d5f5f3e3d5ffd5b505050506040513d601f19601f820116820180604052508101906109a6919061383a565b9050808211156109cf57338183604051632e2a182f60e11b815260040161092c93929190613851565b5f6109d8611143565b6001600160a01b03166323b872dd335f5f9054906101000a90046001600160a01b03166001600160a01b0316633a0dad8e6040518163ffffffff1660e01b8152600401602060405180830381865afa158015610a36573d5f5f3e3d5ffd5b505050506040513d601f19601f82011682018060405250810190610a5a9190613872565b6040516001600160e01b031960e085901b1681526001600160a01b03928316600482015291166024820152604481018690526064016020604051808303815f875af1158015610aab573d5f5f3e3d5ffd5b505050506040513d601f19601f82011682018060405250810190610acf919061388d565b905080610aef576040516312171d8360e31b815260040160405180910390fd5b5f610afb600433612244565b9150610b16905033610b0d86846138c0565b6004919061226a565b5083600a5f828254610b2891906138c0565b909155505060405184815233907f08d79f77ab5f78e7e780abb1f7ac9e9923340d5bae78f6e83e7999905b248ea29060200160405180910390a2505050610b7b60015f516020613c1e5f395f51905f5255565b50565b5f5f9054906101000a90046001600160a01b03166001600160a01b0316633a0dad8e6040518163ffffffff1660e01b8152600401602060405180830381865afa158015610bcd573d5f5f3e3d5ffd5b505050506040513d601f19601f82011682018060405250810190610bf19190613872565b6001600160a01b0316336001600160a01b031614610c2257604051631af2ab4f60e31b815260040160405180910390fd5b610c2c600d612292565b815f5b81811015610cac57610ca3858583818110610c4c57610c4c6138d3565b610c629260206040909202019081019150613582565b868684818110610c7457610c746138d3565b9050604002016020016020810190610c8c91906138e7565b63ffffffff16600d61226a9092919063ffffffff16565b50600101610c2f565b5060038290556040518281527f5e1ff954b5e5257e9ee5d4cb07059e8f5e69b1aaaf9911e5d8d90a6894de9c219060200160405180910390a150505050565b5f610cf461229b565b805490915060ff600160401b82041615906001600160401b03165f81158015610d1a5750825b90505f826001600160401b03166001148015610d355750303b155b905081158015610d43575080155b15610d615760405163f92ee8a960e01b815260040160405180910390fd5b845467ffffffffffffffff191660011785558315610d8b57845460ff60401b1916600160401b1785555b610dfe8b8b8b8b8080601f0160208091040260200160405190810160405280939291908181526020018383808284375f9201919091525050604080516020601f8f018190048102820181019092528d815292508d91508c90819084018382808284375f920191909152506122c392505050565b8315610e4457845460ff60401b19168555604051600181527fc7f505b2f371ae2175ee4913f4499e1f2633a7b5936321eed1cdaeb6115181d29060200160405180910390a15b5050505050505050505050565b5f33610e5e8582856124ff565b610e69858585612550565b60019150505b9392505050565b5f807f0773e532dfede91f04b12a73d3d2acd361424f41f76b4fb79f090161e36b4e0090505f8154610eb29190600160a01b900460ff1661390a565b91505090565b5f5f9054906101000a90046001600160a01b03166001600160a01b0316633a0dad8e6040518163ffffffff1660e01b8152600401602060405180830381865afa158015610f07573d5f5f3e3d5ffd5b505050506040513d601f19601f82011682018060405250810190610f2b9190613872565b6001600160a01b0316336001600160a01b031614610f5c57604051631af2ab4f60e31b815260040160405180910390fd5b610f6461220d565b5f610f6f60046125ad565b90505f816001600160401b03811115610f8a57610f8a61359d565b604051908082528060200260200182016040528015610fb3578160200160208202803683370190505b5090505f826001600160401b03811115610fcf57610fcf61359d565b604051908082528060200260200182016040528015610ff8578160200160208202803683370190505b5090505f5b83811015611071575f806110126004846125b7565b9150915081858481518110611029576110296138d3565b60200260200101906001600160a01b031690816001600160a01b0316815250508084848151811061105c5761105c6138d3565b60209081029190910101525050600101610ffd565b505f5b83811015611126575f83828151811061108f5761108f6138d3565b602002602001015190505f8383815181106110ac576110ac6138d3565b602002602001015190505f6110c082611db1565b90506110cd6004846125c5565b506110d883826125d9565b826001600160a01b03167f85a190caa61692b36b63a55e069330d18ab9af179fed7a25c16a4262bc63b7d28360405161111391815260200190565b60405180910390a2505050600101611074565b50505f600a55505060015f516020613c1e5f395f51905f5255565b565b5f807f0773e532dfede91f04b12a73d3d2acd361424f41f76b4fb79f090161e36b4e005b546001600160a01b031692915050565b61117f61260d565b611188826126b1565b61119282826126dc565b5050565b5f61119f612798565b505f516020613bfe5f395f51905f5290565b5f60405163125ad87760e31b815260040160405180910390fd5b6001600160a01b03165f9081525f516020613bde5f395f51905f52602052604090205490565b6111f96127e1565b6111415f612813565b805f03611222576040516314e6cbb960e11b815260040160405180910390fd5b5f61122c336111cb565b90508082111561125557338183604051632e2a182f60e11b815260040161092c93929190613851565b5f306001600160a01b03166323b872dd335f5f9054906101000a90046001600160a01b03166001600160a01b0316633a0dad8e6040518163ffffffff1660e01b8152600401602060405180830381865afa1580156112b5573d5f5f3e3d5ffd5b505050506040513d601f19601f820116820180604052508101906112d99190613872565b6040516001600160e01b031960e085901b1681526001600160a01b03928316600482015291166024820152604481018690526064016020604051808303815f875af115801561132a573d5f5f3e3d5ffd5b505050506040513d601f19601f8201168201806040525081019061134e919061388d565b90508061136e576040516312171d8360e31b815260040160405180910390fd5b5f61137a600733612244565b915061139590503361138c86846138c0565b6007919061226a565b5083600b5f8282546113a791906138c0565b909155505060405184815233907ff7774b688d56120b783560a913ee60792a73dfd511812b7be5eccf10d08c66899060200160405180910390a250505050565b33806113f16120d5565b6001600160a01b0316146114235760405163118cdaa760e01b81526001600160a01b038216600482015260240161092c565b610b7b81612813565b5f807f9016d09d72d40fdae2fd8ceac6b6234c7706214fd39c1cd1e609a0528c199300611167565b7f52c63247e1f47db19d5ce0460030c497f067ca4cebf71ba98eeadabe20bace0480546060915f516020613bde5f395f51905f529161083e90613802565b5f5f6114bc7f52c63247e1f47db19d5ce0460030c497f067ca4cebf71ba98eeadabe20bace025490565b90506114f06114cc8560016138c0565b600c546114dd9060ff16600a613a06565b6114e790846138c0565b8791908661284b565b95945050505050565b5f336108de818585612550565b5f5f9054906101000a90046001600160a01b03166001600160a01b0316633a0dad8e6040518163ffffffff1660e01b8152600401602060405180830381865afa158015611555573d5f5f3e3d5ffd5b505050506040513d601f19601f820116820180604052508101906115799190613872565b6001600160a01b0316336001600160a01b0316146115aa57604051631af2ab4f60e31b815260040160405180910390fd5b6115b261220d565b5f6115bd60076125ad565b90505f816001600160401b038111156115d8576115d861359d565b604051908082528060200260200182016040528015611601578160200160208202803683370190505b5090505f826001600160401b0381111561161d5761161d61359d565b604051908082528060200260200182016040528015611646578160200160208202803683370190505b5090505f5b838110156116bf575f806116606007846125b7565b9150915081858481518110611677576116776138d3565b60200260200101906001600160a01b031690816001600160a01b031681525050808484815181106116aa576116aa6138d3565b6020908102919091010152505060010161164b565b505f5b83811015611814575f8382815181106116dd576116dd6138d3565b602002602001015190505f8383815181106116fa576116fa6138d3565b602002602001015190506117188260076125c590919063ffffffff16565b50611723308261288d565b5f61172d826108c0565b9050611737611143565b60405163a9059cbb60e01b81526001600160a01b03858116600483015260248201849052919091169063a9059cbb906044016020604051808303815f875af1158015611785573d5f5f3e3d5ffd5b505050506040513d601f19601f820116820180604052508101906117a9919061388d565b6117c6576040516312171d8360e31b815260040160405180910390fd5b826001600160a01b03167f44b2ff9ffcefe2052a8afdbed44a04bf3db4592ae90c6b96c818bd28573e41e88360405161180191815260200190565b60405180910390a25050506001016116c2565b50505f600b55505060015f516020613c1e5f395f51905f5255565b6001546001600160a01b0316331461185a576040516356b381a560e01b815260040160405180910390fd5b5f81900361187b57604051631121aa8d60e01b815260040160405180910390fd5b6118856010612292565b5f81815b81811015611a0f575f8585838181106118a4576118a46138d3565b6118ba9260206040909202019081019150613582565b90505f8686848181106118cf576118cf6138d3565b90506040020160200160208101906118e791906138e7565b5f54604051633af32abf60e01b81526001600160a01b038581166004830152929350911690633af32abf90602401602060405180830381865afa158015611930573d5f5f3e3d5ffd5b505050506040513d601f19601f82011682018060405250810190611954919061388d565b61197c5760405163751dff9760e11b81526001600160a01b038316600482015260240161092c565b8063ffffffff165f036119ad57604051636b30633560e01b81526001600160a01b038316600482015260240161092c565b5f6119c360108463ffffffff8086169061226a16565b9050806119ee576040516346bdabe160e01b81526001600160a01b038416600482015260240161092c565b6119fe63ffffffff8316876138c0565b955050600190920191506118899050565b505f5f5f9054906101000a90046001600160a01b03166001600160a01b031663d1717c7d6040518163ffffffff1660e01b8152600401602060405180830381865afa158015611a60573d5f5f3e3d5ffd5b505050506040513d601f19601f82011682018060405250810190611a849190613a14565b9050611a9181600a613a06565b8314611ab057604051639006dd2760e01b815260040160405180910390fd5b60405133907f2d47a742b8d7df7c1fc5a9a631b206b364e6cb2722490759f63bb3ab14b132e0905f90a25050505050565b5f6108cb826001612182565b6060805f611afb60106125ad565b9050806001600160401b03811115611b1557611b1561359d565b604051908082528060200260200182016040528015611b3e578160200160208202803683370190505b509250806001600160401b03811115611b5957611b5961359d565b604051908082528060200260200182016040528015611b82578160200160208202803683370190505b5091505f5b81811015611bfb575f80611b9c6010846125b7565b9150915081868481518110611bb357611bb36138d3565b60200260200101906001600160a01b031690816001600160a01b03168152505080858481518110611be657611be66138d3565b60209081029190910101525050600101611b87565b50509091565b611c0961220d565b805f03611c185761090b611143565b5f611c24600433612244565b91505081811015611c48576040516332194fd360e21b815260040160405180910390fd5b5f5f9054906101000a90046001600160a01b03166001600160a01b0316633a0dad8e6040518163ffffffff1660e01b8152600401602060405180830381865afa158015611c97573d5f5f3e3d5ffd5b505050506040513d601f19601f82011682018060405250810190611cbb9190613872565b6040516351edffb160e01b8152336004820152602481018490526001600160a01b0391909116906351edffb1906044015f604051808303815f87803b158015611d02575f5ffd5b505af1158015611d14573d5f5f3e3d5ffd5b505050505f8282611d259190613a34565b9050805f03611d3f57611d396004336125c5565b50611d4d565b611d4b6004338361226a565b505b82600a5f828254611d5e9190613a34565b909155505060405183815233907f96a9a6886cdf3047a125454218a23d3961fd3a78643123b248a9d106d0ac94fd906020015b60405180910390a25050610b7b60015f516020613c1e5f395f51905f5255565b5f6108cb825f6121a2565b611dc461220d565b805f03611de4576040516314e6cbb960e11b815260040160405180910390fd5b5f611df0600733612244565b91505081811015611e14576040516312ea1f4960e11b815260040160405180910390fd5b5f5f9054906101000a90046001600160a01b03166001600160a01b0316633a0dad8e6040518163ffffffff1660e01b8152600401602060405180830381865afa158015611e63573d5f5f3e3d5ffd5b505050506040513d601f19601f82011682018060405250810190611e879190613872565b6040516305f0c35960e51b8152336004820152602481018490526001600160a01b03919091169063be186b20906044015f604051808303815f87803b158015611ece575f5ffd5b505af1158015611ee0573d5f5f3e3d5ffd5b505050505f8282611ef19190613a34565b9050805f03611f0b57611f056007336125c5565b50611f19565b611f176007338361226a565b505b82600b5f828254611f2a9190613a34565b909155505060405183815233907f9cf37535785001dcc9767688232fcbc8698b3002d1207b50bc2afec3ff8934dc90602001611d91565b5f6108cb611f6e836111cb565b5f612182565b6060805f611f82600d6125ad565b9050806001600160401b03811115611f9c57611f9c61359d565b604051908082528060200260200182016040528015611fc5578160200160208202803683370190505b509250806001600160401b03811115611fe057611fe061359d565b604051908082528060200260200182016040528015612009578160200160208202803683370190505b5091505f5b81811015611bfb575f80612023600d846125b7565b915091508186848151811061203a5761203a6138d3565b60200260200101906001600160a01b031690816001600160a01b0316815250508085848151811061206d5761206d6138d3565b6020908102919091010152505060010161200e565b5f6108cb826111cb565b6001600160a01b039182165f9081527f52c63247e1f47db19d5ce0460030c497f067ca4cebf71ba98eeadabe20bace016020908152604080832093909416825291909152205490565b5f807f237e158222e3e6968b72b9db0d8043aacf074ad9f650f0d1606b4d82ee432c00611167565b6121056127e1565b7f237e158222e3e6968b72b9db0d8043aacf074ad9f650f0d1606b4d82ee432c0080546001600160a01b0319166001600160a01b038316908117825561214961142c565b6001600160a01b03167f38d16b8cac22d99fc7c124b9cd0de2d3fa1faef420bfe791d8c362d765e2270060405160405180910390a35050565b5f610e6f8360035484611492565b61219d83838360016128c1565b505050565b5f5f6121cc7f52c63247e1f47db19d5ce0460030c497f067ca4cebf71ba98eeadabe20bace025490565b600c54909150612205906121e49060ff16600a613a06565b6121ee90836138c0565b6003546121fc9060016138c0565b8691908661284b565b949350505050565b5f516020613c1e5f395f51905f5280546001190161223e57604051633ee5aeb560e01b815260040160405180910390fd5b60029055565b5f80808061225b866001600160a01b0387166129a5565b909450925050505b9250929050565b5f612205846001600160a01b038516846129dd565b60015f516020613c1e5f395f51905f5255565b610b7b816129f9565b5f807ff0c57e16840df040f15088dc2f81fe391c3923bec73e23a9662efc9c229c6a006108cb565b6122cb612a42565b6001600160a01b0384166122f257604051639c6bb9f560e01b815260040160405180910390fd5b6001600160a01b03831661231957604051636a485a5b60e11b815260040160405180910390fd5b6123238282612a67565b61238b836001600160a01b0316637158da7c6040518163ffffffff1660e01b8152600401602060405180830381865afa158015612362573d5f5f3e3d5ffd5b505050506040513d601f19601f820116820180604052508101906123869190613872565b612a79565b612393612a8a565b61239c84612a9a565b6123a4612aab565b6123ac612aab565b60028054336001600160a01b0319918216179091556001805482166001600160a01b03878116919091179091555f805490921690851690811782556003829055600a829055600b82905560408051631c56369f60e21b81529051637158da7c916004808201926020929091908290030181865afa15801561242f573d5f5f3e3d5ffd5b505050506040513d601f19601f820116820180604052508101906124539190613872565b6001600160a01b031663313ce5676040518163ffffffff1660e01b8152600401602060405180830381865afa15801561248e573d5f5f3e3d5ffd5b505050506040513d601f19601f820116820180604052508101906124b29190613a14565b905060128160ff1611156124d957604051631c03248960e11b815260040160405180910390fd5b6124e4816012613a47565b600c805460ff191660ff929092169190911790555050505050565b5f61250a848461208c565b90505f1981101561254a578181101561253c57828183604051637dc7a0d960e11b815260040161092c93929190613851565b61254a84848484035f6128c1565b50505050565b6001600160a01b03831661257957604051634b637e8f60e11b81525f600482015260240161092c565b6001600160a01b0382166125a25760405163ec442f0560e01b81525f600482015260240161092c565b61219d838383612ab3565b5f6108cb82612bd9565b5f80808061225b8686612be3565b5f610e6f836001600160a01b038416612c0c565b6001600160a01b0382166126025760405163ec442f0560e01b81525f600482015260240161092c565b6111925f8383612ab3565b306001600160a01b037f000000000000000000000000000000000000000000000000000000000000000016148061269357507f00000000000000000000000000000000000000000000000000000000000000006001600160a01b03166126875f516020613bfe5f395f51905f52546001600160a01b031690565b6001600160a01b031614155b156111415760405163703e46dd60e11b815260040160405180910390fd5b6001546001600160a01b03163314610b7b576040516356b381a560e01b815260040160405180910390fd5b816001600160a01b03166352d1902d6040518163ffffffff1660e01b8152600401602060405180830381865afa925050508015612736575060408051601f3d908101601f191682019092526127339181019061383a565b60015b61275e57604051634c9c8ce360e01b81526001600160a01b038316600482015260240161092c565b5f516020613bfe5f395f51905f52811461278e57604051632a87526960e21b81526004810182905260240161092c565b61219d8383612c28565b306001600160a01b037f000000000000000000000000000000000000000000000000000000000000000016146111415760405163703e46dd60e11b815260040160405180910390fd5b336127ea61142c565b6001600160a01b0316146111415760405163118cdaa760e01b815233600482015260240161092c565b7f237e158222e3e6968b72b9db0d8043aacf074ad9f650f0d1606b4d82ee432c0080546001600160a01b031916815561119282612c7d565b5f61287861285883612ced565b801561287357505f848061286e5761286e613a60565b868809115b151590565b612883868686612d19565b6114f091906138c0565b6001600160a01b0382166128b657604051634b637e8f60e11b81525f600482015260240161092c565b611192825f83612ab3565b5f516020613bde5f395f51905f526001600160a01b0385166128f85760405163e602df0560e01b81525f600482015260240161092c565b6001600160a01b03841661292157604051634a1406b160e11b81525f600482015260240161092c565b6001600160a01b038086165f9081526001830160209081526040808320938816835292905220839055811561299e57836001600160a01b0316856001600160a01b03167f8c5be1e5ebec7d5bd14f71427d1e84f3dd0314c0f7b2291e5b200ac8c7c3b9258560405161299591815260200190565b60405180910390a35b5050505050565b5f8181526002830160205260408120548190806129d2576129c68585612dc9565b92505f91506122639050565b600192509050612263565b5f82815260028401602052604081208290556122058484612dd4565b5f612a0382612bd9565b90505f5b81811015612a3857600283015f612a1e8584612ddf565b815260208101919091526040015f90812055600101612a07565b5061119282612dea565b612a4a612df3565b61114157604051631afcd79f60e31b815260040160405180910390fd5b612a6f612a42565b6111928282612e0c565b612a81612a42565b610b7b81612e5c565b612a92612a42565b611141612edf565b612aa2612a42565b610b7b81612ee7565b611141612a42565b5f516020613bde5f395f51905f526001600160a01b038416612aed5781816002015f828254612ae291906138c0565b90915550612b4a9050565b6001600160a01b0384165f9081526020829052604090205482811015612b2c5784818460405163391434e360e21b815260040161092c93929190613851565b6001600160a01b0385165f9081526020839052604090209083900390555b6001600160a01b038316612b68576002810180548390039055612b86565b6001600160a01b0383165f9081526020829052604090208054830190555b826001600160a01b0316846001600160a01b03167fddf252ad1be2c89b69c2b068fc378daa952ba7f163c4a11628f55a4df523b3ef84604051612bcb91815260200190565b60405180910390a350505050565b5f6108cb82612f18565b5f8080612bf08585612ddf565b5f81815260029690960160205260409095205494959350505050565b5f8181526002830160205260408120819055610e6f8383612f21565b612c3182612f2c565b6040516001600160a01b038316907fbc7cd75a20ee27fd9adebab32041f755214dbc6bffa90cc0225b39da2e5c2d3b905f90a2805115612c755761219d8282612f8f565b611192612ff8565b7f9016d09d72d40fdae2fd8ceac6b6234c7706214fd39c1cd1e609a0528c19930080546001600160a01b031981166001600160a01b03848116918217845560405192169182907f8be0079c531659141344cd1fd0a4f28419497f9722a3daafe3b4186f6b6457e0905f90a3505050565b5f6002826003811115612d0257612d02613a74565b612d0c9190613a88565b60ff166001149050919050565b5f5f5f612d268686613017565b91509150815f03612d4a57838181612d4057612d40613a60565b0492505050610e6f565b818411612d6157612d616003851502601118613033565b5f848688095f868103871696879004966002600389028118808a02820302808a02820302808a02820302808a02820302808a02820302808a02909103029181900381900460010185841190960395909502919093039390930492909217029150509392505050565b5f610e6f8383613044565b5f610e6f838361305b565b5f610e6f83836130a7565b610b7b816130cd565b5f612dfc61229b565b54600160401b900460ff16919050565b612e14612a42565b5f516020613bde5f395f51905f527f52c63247e1f47db19d5ce0460030c497f067ca4cebf71ba98eeadabe20bace03612e4d8482613af9565b506004810161254a8382613af9565b612e64612a42565b7f0773e532dfede91f04b12a73d3d2acd361424f41f76b4fb79f090161e36b4e005f80612e9084613126565b9150915081612ea0576012612ea2565b805b83546001600160a81b031916600160a01b60ff92909216919091026001600160a01b031916176001600160a01b0394909416939093179091555050565b61227f612a42565b612eef612a42565b6001600160a01b03811661142357604051631e4fbdf760e01b81525f600482015260240161092c565b5f6108cb825490565b5f610e6f83836131fc565b806001600160a01b03163b5f03612f6157604051634c9c8ce360e01b81526001600160a01b038216600482015260240161092c565b5f516020613bfe5f395f51905f5280546001600160a01b0319166001600160a01b0392909216919091179055565b60605f5f846001600160a01b031684604051612fab9190613bb3565b5f60405180830381855af49150503d805f8114612fe3576040519150601f19603f3d011682016040523d82523d5f602084013e612fe8565b606091505b50915091506114f08583836132df565b34156111415760405163b398979f60e01b815260040160405180910390fd5b5f805f1983850993909202808410938190039390930393915050565b634e487b715f52806020526024601cfd5b5f8181526001830160205260408120541515610e6f565b5f8181526001830160205260408120546130a057508154600181810184555f8481526020808220909301849055845484825282860190935260409020919091556108cb565b505f6108cb565b5f825f0182815481106130bc576130bc6138d3565b905f5260205f200154905092915050565b5f6130d6825490565b90505f5b8181101561311f57826001015f845f0183815481106130fb576130fb6138d3565b905f5260205f20015481526020019081526020015f205f90558060010190506130da565b50505f9055565b60408051600481526024810182526020810180516001600160e01b031663313ce56760e01b17905290515f918291829182916001600160a01b0387169161316c91613bb3565b5f60405180830381855afa9150503d805f81146131a4576040519150601f19603f3d011682016040523d82523d5f602084013e6131a9565b606091505b50915091508180156131bd57506020815110155b156131f0575f818060200190518101906131d7919061383a565b905060ff81116131ee576001969095509350505050565b505b505f9485945092505050565b5f81815260018301602052604081205480156132d6575f61321e600183613a34565b85549091505f9061323190600190613a34565b9050808214613290575f865f01828154811061324f5761324f6138d3565b905f5260205f200154905080875f01848154811061326f5761326f6138d3565b5f918252602080832090910192909255918252600188019052604090208390555b85548690806132a1576132a1613bc9565b600190038181905f5260205f20015f90559055856001015f8681526020019081526020015f205f9055600193505050506108cb565b5f9150506108cb565b6060826132f4576132ef8261333b565b610e6f565b815115801561330b57506001600160a01b0384163b155b1561333457604051639996b31560e01b81526001600160a01b038516600482015260240161092c565b5080610e6f565b80511561334b5780518082602001fd5b60405163d6bda27560e01b815260040160405180910390fd5b602081525f82518060208401528060208501604085015e5f604082850101526040601f19601f83011684010191505092915050565b5f602082840312156133a9575f5ffd5b5035919050565b6001600160a01b0381168114610b7b575f5ffd5b5f5f604083850312156133d5575f5ffd5b82356133e0816133b0565b946020939093013593505050565b5f5f83601f8401126133fe575f5ffd5b5081356001600160401b03811115613414575f5ffd5b6020830191508360208260061b8501011115612263575f5ffd5b5f5f5f60408486031215613440575f5ffd5b83356001600160401b03811115613455575f5ffd5b613461868287016133ee565b909790965060209590950135949350505050565b5f5f83601f840112613485575f5ffd5b5081356001600160401b0381111561349b575f5ffd5b602083019150836020828501011115612263575f5ffd5b5f5f5f5f5f5f608087890312156134c7575f5ffd5b86356134d2816133b0565b955060208701356134e2816133b0565b945060408701356001600160401b038111156134fc575f5ffd5b61350889828a01613475565b90955093505060608701356001600160401b03811115613526575f5ffd5b61353289828a01613475565b979a9699509497509295939492505050565b5f5f5f60608486031215613556575f5ffd5b8335613561816133b0565b92506020840135613571816133b0565b929592945050506040919091013590565b5f60208284031215613592575f5ffd5b8135610e6f816133b0565b634e487b7160e01b5f52604160045260245ffd5b5f5f604083850312156135c2575f5ffd5b82356135cd816133b0565b915060208301356001600160401b038111156135e7575f5ffd5b8301601f810185136135f7575f5ffd5b80356001600160401b038111156136105761361061359d565b604051601f8201601f19908116603f011681016001600160401b038111828210171561363e5761363e61359d565b604052818152828201602001871015613655575f5ffd5b816020840160208301375f602083830101528093505050509250929050565b5f5f60408385031215613685575f5ffd5b823591506020830135613697816133b0565b809150509250929050565b5f5f5f606084860312156136b4575f5ffd5b83359250602084013591506040840135600481106136d0575f5ffd5b809150509250925092565b5f5f602083850312156136ec575f5ffd5b82356001600160401b03811115613701575f5ffd5b61370d858286016133ee565b90969095509350505050565b5f5f5f6060848603121561372b575f5ffd5b83359250602084013561373d816133b0565b915060408401356136d0816133b0565b604080825283519082018190525f9060208501906060840190835b8181101561378f5783516001600160a01b0316835260209384019390920191600101613768565b5050838103602080860191909152855180835291810192508501905f5b818110156137ca5782518452602093840193909201916001016137ac565b50919695505050505050565b5f5f604083850312156137e7575f5ffd5b82356137f2816133b0565b91506020830135613697816133b0565b600181811c9082168061381657607f821691505b60208210810361383457634e487b7160e01b5f52602260045260245ffd5b50919050565b5f6020828403121561384a575f5ffd5b5051919050565b6001600160a01b039390931683526020830191909152604082015260600190565b5f60208284031215613882575f5ffd5b8151610e6f816133b0565b5f6020828403121561389d575f5ffd5b81518015158114610e6f575f5ffd5b634e487b7160e01b5f52601160045260245ffd5b808201808211156108cb576108cb6138ac565b634e487b7160e01b5f52603260045260245ffd5b5f602082840312156138f7575f5ffd5b813563ffffffff81168114610e6f575f5ffd5b60ff81811683821601908111156108cb576108cb6138ac565b6001815b600184111561395e57808504811115613942576139426138ac565b600184161561395057908102905b60019390931c928002613927565b935093915050565b5f82613974575060016108cb565b8161398057505f6108cb565b816001811461399657600281146139a0576139bc565b60019150506108cb565b60ff8411156139b1576139b16138ac565b50506001821b6108cb565b5060208310610133831016604e8410600b84101617156139df575081810a6108cb565b6139eb5f198484613923565b805f19048211156139fe576139fe6138ac565b029392505050565b5f610e6f60ff841683613966565b5f60208284031215613a24575f5ffd5b815160ff81168114610e6f575f5ffd5b818103818111156108cb576108cb6138ac565b60ff82811682821603908111156108cb576108cb6138ac565b634e487b7160e01b5f52601260045260245ffd5b634e487b7160e01b5f52602160045260245ffd5b5f60ff831680613aa657634e487b7160e01b5f52601260045260245ffd5b8060ff84160691505092915050565b601f82111561219d57805f5260205f20601f840160051c81016020851015613ada5750805b601f840160051c820191505b8181101561299e575f8155600101613ae6565b81516001600160401b03811115613b1257613b1261359d565b613b2681613b208454613802565b84613ab5565b6020601f821160018114613b58575f8315613b415750848201515b5f19600385901b1c1916600184901b17845561299e565b5f84815260208120601f198516915b82811015613b875787850151825560209485019460019092019101613b67565b5084821015613ba457868401515f19600387901b60f8161c191681555b50505050600190811b01905550565b5f82518060208501845e5f920191825250919050565b634e487b7160e01b5f52603160045260245ffdfe52c63247e1f47db19d5ce0460030c497f067ca4cebf71ba98eeadabe20bace00360894a13ba1a3210667c828492db98dca3e2076cc3735a920a3ca505d382bbc9b779b17422d0df92223018b32b4d1fa46e071723d6817e2486d003becc55f00a2646970667358221220471afafb39da1331a267654b2691a4d10a843d810bf4f5a30f93c115b453acdf64736f6c634300081c003360a0604052306080523480156012575f5ffd5b506080516141046100395f395f81816128340152818161285d01526129bf01526141045ff3fe6080604052600436106102bf575f3560e01c806395d89b411161016f578063c63d75b6116100d8578063d5f3948811610092578063e30c39781161006d578063e30c3978146107ae578063e66f53b7146107c2578063ef8b30f7146106cc578063f2fde38b146107e1575f5ffd5b8063d5f3948814610751578063d905777e14610770578063dd62ed3e1461078f575f5ffd5b8063c63d75b61461046c578063c6e6f592146106cc578063cce4705b146106eb578063ce96cb771461070a578063d1699c2614610729578063d3d034581461073d575f5ffd5b8063b3d7f6b911610129578063b3d7f6b91461063e578063b460af941461065d578063b6eba65314610677578063ba0876521461065d578063c0b568e114610699578063c37fc8a8146106b8575f5ffd5b806395d89b4114610589578063985ba4ae1461059d578063a68a5267146105bc578063a9059cbb146105db578063aa9d3a60146105fa578063ad3cb1cc1461060e575f5ffd5b8063402d267d1161022b578063715018a6116101e557806379ba5097116101c057806379ba5097146105425780637f5fc5f9146105565780638da5cb5b1461057557806394bf804d146104b3575f5ffd5b8063715018a6146104f1578063745400c91461050557806379502c5514610524575f5ffd5b8063402d267d1461046c5780634cdad506146103075780634f1ef2861461048c57806352d1902d1461049f5780636e553f65146104b357806370a08231146104d2575f5ffd5b806318160ddd1161027c57806318160ddd146103955780632016a0d2146103c857806323b872dd146103e7578063313ce5671461040657806333fdc5921461042c57806338d52e0f14610440575f5ffd5b806301e1d114146102c357806306fdde03146102e657806307a2d13a14610307578063095ea7b3146103265780630a28a477146103555780630d1e666714610374575b5f5ffd5b3480156102ce575f5ffd5b506003545b6040519081526020015b60405180910390f35b3480156102f1575f5ffd5b506102fa610800565b6040516102dd91906137d8565b348015610312575f5ffd5b506102d361032136600461380d565b6108c0565b348015610331575f5ffd5b50610345610340366004613838565b6108d1565b60405190151581526020016102dd565b348015610360575f5ffd5b506102d361036f36600461380d565b6108e8565b34801561037f575f5ffd5b5061039361038e36600461380d565b6108f4565b005b3480156103a0575f5ffd5b507f52c63247e1f47db19d5ce0460030c497f067ca4cebf71ba98eeadabe20bace02546102d3565b3480156103d3575f5ffd5b506103936103e236600461389f565b610b7e565b3480156103f2575f5ffd5b50610345610401366004613931565b610ce4565b348015610411575f5ffd5b5061041a610d09565b60405160ff90911681526020016102dd565b348015610437575f5ffd5b50610393610d4b565b34801561044b575f5ffd5b50610454610fd6565b6040516001600160a01b0390911681526020016102dd565b348015610477575f5ffd5b506102d361048636600461396f565b505f1990565b61039361049a36600461399e565b61100a565b3480156104aa575f5ffd5b506102d3611029565b3480156104be575f5ffd5b506102d36104cd366004613a61565b611044565b3480156104dd575f5ffd5b506102d36104ec36600461396f565b61105e565b3480156104fc575f5ffd5b50610393611084565b348015610510575f5ffd5b5061039361051f36600461380d565b611095565b34801561052f575f5ffd5b505f54610454906001600160a01b031681565b34801561054d575f5ffd5b5061039361127a565b348015610561575f5ffd5b50610393610570366004613acf565b6112bf565b348015610580575f5ffd5b50610454611664565b348015610594575f5ffd5b506102fa61168c565b3480156105a8575f5ffd5b506103936105b7366004613b0d565b6116ca565b3480156105c7575f5ffd5b506102d36105d6366004613b54565b6118e2565b3480156105e6575f5ffd5b506103456105f5366004613838565b611949565b348015610605575f5ffd5b50610393611956565b348015610619575f5ffd5b506102fa604051806040016040528060058152602001640352e302e360dc1b81525081565b348015610649575f5ffd5b506102d361065836600461380d565b611c7f565b348015610668575f5ffd5b506102d36104cd366004613b8d565b348015610682575f5ffd5b5061068b611c8b565b6040516102dd929190613bc1565b3480156106a4575f5ffd5b506103936106b336600461380d565b611dec565b3480156106c3575f5ffd5b50600b546102d3565b3480156106d7575f5ffd5b506102d36106e636600461380d565b611f9c565b3480156106f6575f5ffd5b5061039361070536600461380d565b611fa7565b348015610715575f5ffd5b506102d361072436600461396f565b61214c565b348015610734575f5ffd5b50600a546102d3565b348015610748575f5ffd5b5061068b61215f565b34801561075c575f5ffd5b50600254610454906001600160a01b031681565b34801561077b575f5ffd5b506102d361078a36600461396f565b6122a7565b34801561079a575f5ffd5b506102d36107a9366004613c4a565b6122b1565b3480156107b9575f5ffd5b506104546122fa565b3480156107cd575f5ffd5b50600154610454906001600160a01b031681565b3480156107ec575f5ffd5b506103936107fb36600461396f565b612322565b7f52c63247e1f47db19d5ce0460030c497f067ca4cebf71ba98eeadabe20bace0380546060915f51602061406f5f395f51905f529161083e90613c76565b80601f016020809104026020016040519081016040528092919081815260200182805461086a90613c76565b80156108b55780601f1061088c576101008083540402835291602001916108b5565b820191905f5260205f20905b81548152906001019060200180831161089857829003601f168201915b505050505091505090565b5f6108cb825f6123a7565b92915050565b5f336108de8185856123b5565b5060019392505050565b5f6108cb8260016123c7565b6108fc612432565b805f036109355761090b610fd6565b604051636b30633560e01b81526001600160a01b0390911660048201526024015b60405180910390fd5b5f61093e610fd6565b6040516370a0823160e01b81523360048201526001600160a01b0391909116906370a0823190602401602060405180830381865afa158015610982573d5f5f3e3d5ffd5b505050506040513d601f19601f820116820180604052508101906109a69190613cae565b9050808211156109cf57338183604051632e2a182f60e11b815260040161092c93929190613cc5565b5f6109d8610fd6565b6001600160a01b03166323b872dd335f5f9054906101000a90046001600160a01b03166001600160a01b0316633a0dad8e6040518163ffffffff1660e01b8152600401602060405180830381865afa158015610a36573d5f5f3e3d5ffd5b505050506040513d601f19601f82011682018060405250810190610a5a9190613ce6565b6040516001600160e01b031960e085901b1681526001600160a01b03928316600482015291166024820152604481018690526064016020604051808303815f875af1158015610aab573d5f5f3e3d5ffd5b505050506040513d601f19601f82011682018060405250810190610acf9190613d01565b905080610aef576040516312171d8360e31b815260040160405180910390fd5b5f610afb600433612469565b9150610b16905033610b0d8684613d34565b6004919061248f565b5083600a5f828254610b289190613d34565b909155505060405184815233907f08d79f77ab5f78e7e780abb1f7ac9e9923340d5bae78f6e83e7999905b248ea29060200160405180910390a2505050610b7b60015f5160206140af5f395f51905f5255565b50565b5f610b876124b7565b805490915060ff600160401b82041615906001600160401b03165f81158015610bad5750825b90505f826001600160401b03166001148015610bc85750303b155b905081158015610bd6575080155b15610bf45760405163f92ee8a960e01b815260040160405180910390fd5b845467ffffffffffffffff191660011785558315610c1e57845460ff60401b1916600160401b1785555b610c918b8b8b8b8080601f0160208091040260200160405190810160405280939291908181526020018383808284375f9201919091525050604080516020601f8f018190048102820181019092528d815292508d91508c90819084018382808284375f920191909152506124df92505050565b8315610cd757845460ff60401b19168555604051600181527fc7f505b2f371ae2175ee4913f4499e1f2633a7b5936321eed1cdaeb6115181d29060200160405180910390a15b5050505050505050505050565b5f33610cf185828561271b565b610cfc85858561276c565b60019150505b9392505050565b5f807f0773e532dfede91f04b12a73d3d2acd361424f41f76b4fb79f090161e36b4e0090505f8154610d459190600160a01b900460ff16613d47565b91505090565b5f5f9054906101000a90046001600160a01b03166001600160a01b0316633a0dad8e6040518163ffffffff1660e01b8152600401602060405180830381865afa158015610d9a573d5f5f3e3d5ffd5b505050506040513d601f19601f82011682018060405250810190610dbe9190613ce6565b6001600160a01b0316336001600160a01b031614610def57604051631af2ab4f60e31b815260040160405180910390fd5b610df7612432565b5f610e0260046127c9565b90505f816001600160401b03811115610e1d57610e1d61398a565b604051908082528060200260200182016040528015610e46578160200160208202803683370190505b5090505f826001600160401b03811115610e6257610e6261398a565b604051908082528060200260200182016040528015610e8b578160200160208202803683370190505b5090505f5b83811015610f04575f80610ea56004846127d3565b9150915081858481518110610ebc57610ebc613d60565b60200260200101906001600160a01b031690816001600160a01b03168152505080848481518110610eef57610eef613d60565b60209081029190910101525050600101610e90565b505f5b83811015610fb9575f838281518110610f2257610f22613d60565b602002602001015190505f838381518110610f3f57610f3f613d60565b602002602001015190505f610f5382611f9c565b9050610f606004846127e1565b50610f6b83826127f5565b826001600160a01b03167f85a190caa61692b36b63a55e069330d18ab9af179fed7a25c16a4262bc63b7d283604051610fa691815260200190565b60405180910390a2505050600101610f07565b50505f600a55505060015f5160206140af5f395f51905f5255565b565b5f807f0773e532dfede91f04b12a73d3d2acd361424f41f76b4fb79f090161e36b4e005b546001600160a01b031692915050565b611012612829565b61101b826128cd565b61102582826128f8565b5050565b5f6110326129b4565b505f51602061408f5f395f51905f5290565b5f60405163125ad87760e31b815260040160405180910390fd5b6001600160a01b03165f9081525f51602061406f5f395f51905f52602052604090205490565b61108c6129fd565b610fd45f612a2f565b805f036110b5576040516314e6cbb960e11b815260040160405180910390fd5b5f6110bf3361105e565b9050808211156110e857338183604051632e2a182f60e11b815260040161092c93929190613cc5565b5f306001600160a01b03166323b872dd335f5f9054906101000a90046001600160a01b03166001600160a01b0316633a0dad8e6040518163ffffffff1660e01b8152600401602060405180830381865afa158015611148573d5f5f3e3d5ffd5b505050506040513d601f19601f8201168201806040525081019061116c9190613ce6565b6040516001600160e01b031960e085901b1681526001600160a01b03928316600482015291166024820152604481018690526064016020604051808303815f875af11580156111bd573d5f5f3e3d5ffd5b505050506040513d601f19601f820116820180604052508101906111e19190613d01565b905080611201576040516312171d8360e31b815260040160405180910390fd5b5f61120d600733612469565b915061122890503361121f8684613d34565b6007919061248f565b5083600b5f82825461123a9190613d34565b909155505060405184815233907ff7774b688d56120b783560a913ee60792a73dfd511812b7be5eccf10d08c66899060200160405180910390a250505050565b33806112846122fa565b6001600160a01b0316146112b65760405163118cdaa760e01b81526001600160a01b038216600482015260240161092c565b610b7b81612a2f565b6001546001600160a01b031633146112ea576040516356b381a560e01b815260040160405180910390fd5b5f81900361130b57604051631121aa8d60e01b815260040160405180910390fd5b5f6113155f612a67565b6010549091505f5b818110156113685782600f5f6010848154811061133c5761133c613d60565b5f9182526020808320909101546001600160a01b0316835282019290925260400190205560010161131d565b5061137460105f6137aa565b81835f5b81811015611545575f87878381811061139357611393613d60565b6113a9926020604090920201908101915061396f565b90505f8888848181106113be576113be613d60565b5f5460408051633af32abf60e01b81526001600160a01b03888116600483015293909102949094016020013594501691633af32abf9150602401602060405180830381865afa158015611413573d5f5f3e3d5ffd5b505050506040513d601f19601f820116820180604052508101906114379190613d01565b61145f5760405163751dff9760e11b81526001600160a01b038316600482015260240161092c565b6001600160a01b0382165f9081526011602052604090205460ff16156114a3576040516346bdabe160e01b81526001600160a01b038316600482015260240161092c565b6001600160a01b0382165f908152601160205260408120805460ff191660011790556114cf8289612a73565b6001600160a01b0384165f818152600f602052604081208590556010805460018101825591527f1b6847dc741a1b0cd08d278845f9d819d87b734759afb55fe2de5cb82a9ae6720180546001600160a01b031916909117905590506115348683612aa1565b955050600190920191506113789050565b505f80546040805163d1717c7d60e01b815290516115c3926001600160a01b03169163d1717c7d9160048083019260209291908290030181865afa15801561158f573d5f5f3e3d5ffd5b505050506040513d601f19601f820116820180604052508101906115b39190613d74565b6115be90600a613e77565b612a67565b90505f6115d08483612acf565b90505f5b8381101561162f5760115f8a8a848181106115f1576115f1613d60565b611607926020604090920201908101915061396f565b6001600160a01b0316815260208101919091526040015f20805460ff191690556001016115d4565b5060405133907f2d47a742b8d7df7c1fc5a9a631b206b364e6cb2722490759f63bb3ab14b132e0905f90a25050505050505050565b5f807f9016d09d72d40fdae2fd8ceac6b6234c7706214fd39c1cd1e609a0528c199300610ffa565b7f52c63247e1f47db19d5ce0460030c497f067ca4cebf71ba98eeadabe20bace0480546060915f51602061406f5f395f51905f529161083e90613c76565b5f5f9054906101000a90046001600160a01b03166001600160a01b0316633a0dad8e6040518163ffffffff1660e01b8152600401602060405180830381865afa158015611719573d5f5f3e3d5ffd5b505050506040513d601f19601f8201168201806040525081019061173d9190613ce6565b6001600160a01b0316336001600160a01b03161461176e57604051631af2ab4f60e31b815260040160405180910390fd5b5f6117785f612a67565b600e549091505f5b818110156117cb5782600d5f600e848154811061179f5761179f613d60565b5f9182526020808320909101546001600160a01b03168352820192909252604001902055600101611780565b506117d7600e5f6137aa565b5f5b818110156118a2578585828181106117f3576117f3613d60565b90506040020160200135600d5f88888581811061181257611812613d60565b611828926020604090920201908101915061396f565b6001600160a01b0316815260208101919091526040015f2055600e86868381811061185557611855613d60565b61186b926020604090920201908101915061396f565b8154600180820184555f93845260209093200180546001600160a01b0319166001600160a01b0392909216919091179055016117d9565b5060038390556040518381527f5e1ff954b5e5257e9ee5d4cb07059e8f5e69b1aaaf9911e5d8d90a6894de9c219060200160405180910390a15050505050565b5f5f61190c7f52c63247e1f47db19d5ce0460030c497f067ca4cebf71ba98eeadabe20bace025490565b905061194061191c856001613d34565b600c5461192d9060ff16600a613e77565b6119379084613d34565b87919086612afd565b95945050505050565b5f336108de81858561276c565b5f5f9054906101000a90046001600160a01b03166001600160a01b0316633a0dad8e6040518163ffffffff1660e01b8152600401602060405180830381865afa1580156119a5573d5f5f3e3d5ffd5b505050506040513d601f19601f820116820180604052508101906119c99190613ce6565b6001600160a01b0316336001600160a01b0316146119fa57604051631af2ab4f60e31b815260040160405180910390fd5b611a02612432565b5f611a0d60076127c9565b90505f816001600160401b03811115611a2857611a2861398a565b604051908082528060200260200182016040528015611a51578160200160208202803683370190505b5090505f826001600160401b03811115611a6d57611a6d61398a565b604051908082528060200260200182016040528015611a96578160200160208202803683370190505b5090505f5b83811015611b0f575f80611ab06007846127d3565b9150915081858481518110611ac757611ac7613d60565b60200260200101906001600160a01b031690816001600160a01b03168152505080848481518110611afa57611afa613d60565b60209081029190910101525050600101611a9b565b505f5b83811015611c64575f838281518110611b2d57611b2d613d60565b602002602001015190505f838381518110611b4a57611b4a613d60565b60200260200101519050611b688260076127e190919063ffffffff16565b50611b733082612b3f565b5f611b7d826108c0565b9050611b87610fd6565b60405163a9059cbb60e01b81526001600160a01b03858116600483015260248201849052919091169063a9059cbb906044016020604051808303815f875af1158015611bd5573d5f5f3e3d5ffd5b505050506040513d601f19601f82011682018060405250810190611bf99190613d01565b611c16576040516312171d8360e31b815260040160405180910390fd5b826001600160a01b03167f44b2ff9ffcefe2052a8afdbed44a04bf3db4592ae90c6b96c818bd28573e41e883604051611c5191815260200190565b60405180910390a2505050600101611b12565b50505f600b55505060015f5160206140af5f395f51905f5255565b5f6108cb8260016123a7565b6010546060908190806001600160401b03811115611cab57611cab61398a565b604051908082528060200260200182016040528015611cd4578160200160208202803683370190505b509250806001600160401b03811115611cef57611cef61398a565b604051908082528060200260200182016040528015611d18578160200160208202803683370190505b5091505f5b81811015611de65760108181548110611d3857611d38613d60565b905f5260205f20015f9054906101000a90046001600160a01b0316848281518110611d6557611d65613d60565b60200260200101906001600160a01b031690816001600160a01b031681525050600f5f60108381548110611d9b57611d9b613d60565b5f9182526020808320909101546001600160a01b031683528201929092526040019020548351849083908110611dd357611dd3613d60565b6020908102919091010152600101611d1d565b50509091565b611df4612432565b805f03611e035761090b610fd6565b5f611e0f600433612469565b91505081811015611e33576040516332194fd360e21b815260040160405180910390fd5b5f5f9054906101000a90046001600160a01b03166001600160a01b0316633a0dad8e6040518163ffffffff1660e01b8152600401602060405180830381865afa158015611e82573d5f5f3e3d5ffd5b505050506040513d601f19601f82011682018060405250810190611ea69190613ce6565b6040516351edffb160e01b8152336004820152602481018490526001600160a01b0391909116906351edffb1906044015f604051808303815f87803b158015611eed575f5ffd5b505af1158015611eff573d5f5f3e3d5ffd5b505050505f8282611f109190613e85565b9050805f03611f2a57611f246004336127e1565b50611f38565b611f366004338361248f565b505b82600a5f828254611f499190613e85565b909155505060405183815233907f96a9a6886cdf3047a125454218a23d3961fd3a78643123b248a9d106d0ac94fd906020015b60405180910390a25050610b7b60015f5160206140af5f395f51905f5255565b5f6108cb825f6123c7565b611faf612432565b805f03611fcf576040516314e6cbb960e11b815260040160405180910390fd5b5f611fdb600733612469565b91505081811015611fff576040516312ea1f4960e11b815260040160405180910390fd5b5f5f9054906101000a90046001600160a01b03166001600160a01b0316633a0dad8e6040518163ffffffff1660e01b8152600401602060405180830381865afa15801561204e573d5f5f3e3d5ffd5b505050506040513d601f19601f820116820180604052508101906120729190613ce6565b6040516305f0c35960e51b8152336004820152602481018490526001600160a01b03919091169063be186b20906044015f604051808303815f87803b1580156120b9575f5ffd5b505af11580156120cb573d5f5f3e3d5ffd5b505050505f82826120dc9190613e85565b9050805f036120f6576120f06007336127e1565b50612104565b6121026007338361248f565b505b82600b5f8282546121159190613e85565b909155505060405183815233907f9cf37535785001dcc9767688232fcbc8698b3002d1207b50bc2afec3ff8934dc90602001611f7c565b5f6108cb6121598361105e565b5f6123a7565b600e546060908190806001600160401b0381111561217f5761217f61398a565b6040519080825280602002602001820160405280156121a8578160200160208202803683370190505b509250806001600160401b038111156121c3576121c361398a565b6040519080825280602002602001820160405280156121ec578160200160208202803683370190505b5091505f5b81811015611de6575f600e828154811061220d5761220d613d60565b905f5260205f20015f9054906101000a90046001600160a01b031690508085838151811061223d5761223d613d60565b60200260200101906001600160a01b031690816001600160a01b031681525050600d5f826001600160a01b03166001600160a01b031681526020019081526020015f205484838151811061229357612293613d60565b6020908102919091010152506001016121f1565b5f6108cb8261105e565b6001600160a01b039182165f9081527f52c63247e1f47db19d5ce0460030c497f067ca4cebf71ba98eeadabe20bace016020908152604080832093909416825291909152205490565b5f807f237e158222e3e6968b72b9db0d8043aacf074ad9f650f0d1606b4d82ee432c00610ffa565b61232a6129fd565b7f237e158222e3e6968b72b9db0d8043aacf074ad9f650f0d1606b4d82ee432c0080546001600160a01b0319166001600160a01b038316908117825561236e611664565b6001600160a01b03167f38d16b8cac22d99fc7c124b9cd0de2d3fa1faef420bfe791d8c362d765e2270060405160405180910390a35050565b5f610d0283600354846118e2565b6123c28383836001612b73565b505050565b5f5f6123f17f52c63247e1f47db19d5ce0460030c497f067ca4cebf71ba98eeadabe20bace025490565b600c5490915061242a906124099060ff16600a613e77565b6124139083613d34565b600354612421906001613d34565b86919086612afd565b949350505050565b5f5160206140af5f395f51905f5280546001190161246357604051633ee5aeb560e01b815260040160405180910390fd5b60029055565b5f808080612480866001600160a01b038716612c57565b909450925050505b9250929050565b5f61242a846001600160a01b03851684612c8f565b60015f5160206140af5f395f51905f5255565b5f807ff0c57e16840df040f15088dc2f81fe391c3923bec73e23a9662efc9c229c6a006108cb565b6124e7612cab565b6001600160a01b03841661250e57604051639c6bb9f560e01b815260040160405180910390fd5b6001600160a01b03831661253557604051636a485a5b60e11b815260040160405180910390fd5b61253f8282612cd0565b6125a7836001600160a01b0316637158da7c6040518163ffffffff1660e01b8152600401602060405180830381865afa15801561257e573d5f5f3e3d5ffd5b505050506040513d601f19601f820116820180604052508101906125a29190613ce6565b612ce2565b6125af612cf3565b6125b884612d03565b6125c0612d14565b6125c8612d14565b60028054336001600160a01b0319918216179091556001805482166001600160a01b03878116919091179091555f805490921690851690811782556003829055600a829055600b82905560408051631c56369f60e21b81529051637158da7c916004808201926020929091908290030181865afa15801561264b573d5f5f3e3d5ffd5b505050506040513d601f19601f8201168201806040525081019061266f9190613ce6565b6001600160a01b031663313ce5676040518163ffffffff1660e01b8152600401602060405180830381865afa1580156126aa573d5f5f3e3d5ffd5b505050506040513d601f19601f820116820180604052508101906126ce9190613d74565b905060128160ff1611156126f557604051631c03248960e11b815260040160405180910390fd5b612700816012613e98565b600c805460ff191660ff929092169190911790555050505050565b5f61272684846122b1565b90505f19811015612766578181101561275857828183604051637dc7a0d960e11b815260040161092c93929190613cc5565b61276684848484035f612b73565b50505050565b6001600160a01b03831661279557604051634b637e8f60e11b81525f600482015260240161092c565b6001600160a01b0382166127be5760405163ec442f0560e01b81525f600482015260240161092c565b6123c2838383612d1c565b5f6108cb82612e42565b5f8080806124808686612e4c565b5f610d02836001600160a01b038416612e75565b6001600160a01b03821661281e5760405163ec442f0560e01b81525f600482015260240161092c565b6110255f8383612d1c565b306001600160a01b037f00000000000000000000000000000000000000000000000000000000000000001614806128af57507f00000000000000000000000000000000000000000000000000000000000000006001600160a01b03166128a35f51602061408f5f395f51905f52546001600160a01b031690565b6001600160a01b031614155b15610fd45760405163703e46dd60e11b815260040160405180910390fd5b6001546001600160a01b03163314610b7b576040516356b381a560e01b815260040160405180910390fd5b816001600160a01b03166352d1902d6040518163ffffffff1660e01b8152600401602060405180830381865afa925050508015612952575060408051601f3d908101601f1916820190925261294f91810190613cae565b60015b61297a57604051634c9c8ce360e01b81526001600160a01b038316600482015260240161092c565b5f51602061408f5f395f51905f5281146129aa57604051632a87526960e21b81526004810182905260240161092c565b6123c28383612e91565b306001600160a01b037f00000000000000000000000000000000000000000000000000000000000000001614610fd45760405163703e46dd60e11b815260040160405180910390fd5b33612a06611664565b6001600160a01b031614610fd45760405163118cdaa760e01b815233600482015260240161092c565b7f237e158222e3e6968b72b9db0d8043aacf074ad9f650f0d1606b4d82ee432c0080546001600160a01b031916815561102582612ee6565b5f6108cb826004612f56565b5f82612a8557612a825f612a67565b92505b81612a9657612a935f612a67565b91505b610d0283835f612fe9565b5f82612ab357612ab05f612a67565b92505b81612ac457612ac15f612a67565b91505b610d0283835f6130a9565b5f82612ae157612ade5f612a67565b92505b81612af257612aef5f612a67565b91505b610d0283835f61311f565b5f612b2a612b0a83613195565b8015612b2557505f8480612b2057612b20613eb1565b868809115b151590565b612b358686866131c1565b6119409190613d34565b6001600160a01b038216612b6857604051634b637e8f60e11b81525f600482015260240161092c565b611025825f83612d1c565b5f51602061406f5f395f51905f526001600160a01b038516612baa5760405163e602df0560e01b81525f600482015260240161092c565b6001600160a01b038416612bd357604051634a1406b160e11b81525f600482015260240161092c565b6001600160a01b038086165f90815260018301602090815260408083209388168352929052208390558115612c5057836001600160a01b0316856001600160a01b03167f8c5be1e5ebec7d5bd14f71427d1e84f3dd0314c0f7b2291e5b200ac8c7c3b92585604051612c4791815260200190565b60405180910390a35b5050505050565b5f818152600283016020526040812054819080612c8457612c788585613271565b92505f91506124889050565b600192509050612488565b5f828152600284016020526040812082905561242a848461327c565b612cb3613287565b610fd457604051631afcd79f60e31b815260040160405180910390fd5b612cd8612cab565b61102582826132a0565b612cea612cab565b610b7b816132f0565b612cfb612cab565b610fd4613373565b612d0b612cab565b610b7b8161337b565b610fd4612cab565b5f51602061406f5f395f51905f526001600160a01b038416612d565781816002015f828254612d4b9190613d34565b90915550612db39050565b6001600160a01b0384165f9081526020829052604090205482811015612d955784818460405163391434e360e21b815260040161092c93929190613cc5565b6001600160a01b0385165f9081526020839052604090209083900390555b6001600160a01b038316612dd1576002810180548390039055612def565b6001600160a01b0383165f9081526020829052604090208054830190555b826001600160a01b0316846001600160a01b03167fddf252ad1be2c89b69c2b068fc378daa952ba7f163c4a11628f55a4df523b3ef84604051612e3491815260200190565b60405180910390a350505050565b5f6108cb826133ac565b5f8080612e5985856133b5565b5f81815260029690960160205260409095205494959350505050565b5f8181526002830160205260408120819055610d0283836133c0565b612e9a826133cb565b6040516001600160a01b038316907fbc7cd75a20ee27fd9adebab32041f755214dbc6bffa90cc0225b39da2e5c2d3b905f90a2805115612ede576123c2828261342e565b611025613497565b7f9016d09d72d40fdae2fd8ceac6b6234c7706214fd39c1cd1e609a0528c19930080546001600160a01b031981166001600160a01b03848116918217845560405192169182907f8be0079c531659141344cd1fd0a4f28419497f9722a3daafe3b4186f6b6457e0905f90a3505050565b5f805f51602061404f5f395f51905f526001810154604051631ce2e8d760e31b8152600481018790526001600160f81b031960f887901b1660248201529192506001600160a01b03169063e71746b8906044016020604051808303815f875af1158015612fc5573d5f5f3e3d5ffd5b505050506040513d601f19601f8201168201806040525081019061242a9190613cae565b5f5f8215612ffc5750600160f81b612fff565b505f5b7fed8d60e34876f751cc8b014c560745351147d9de11b9347c854e881b128ea60154604051631f31e28560e11b81525f51602061404f5f395f51905f52916001600160a01b031690633e63c50a9061305f90899089908790600401613ec5565b6020604051808303815f875af115801561307b573d5f5f3e3d5ffd5b505050506040513d601f19601f8201168201806040525081019061309f9190613cae565b9695505050505050565b5f5f82156130bc5750600160f81b6130bf565b505f5b7fed8d60e34876f751cc8b014c560745351147d9de11b9347c854e881b128ea6015460405163f953e42760e01b81525f51602061404f5f395f51905f52916001600160a01b03169063f953e4279061305f90899089908790600401613ec5565b5f5f82156131325750600160f81b613135565b505f5b7fed8d60e34876f751cc8b014c560745351147d9de11b9347c854e881b128ea60154604051630d7c62eb60e31b81525f51602061404f5f395f51905f52916001600160a01b031690636be317589061305f90899089908790600401613ec5565b5f60028260038111156131aa576131aa613ee5565b6131b49190613ef9565b60ff166001149050919050565b5f5f5f6131ce86866134b6565b91509150815f036131f2578381816131e8576131e8613eb1565b0492505050610d02565b8184116132095761320960038515026011186134d2565b5f848688095f868103871696879004966002600389028118808a02820302808a02820302808a02820302808a02820302808a02820302808a02909103029181900381900460010185841190960395909502919093039390930492909217029150509392505050565b5f610d0283836134e3565b5f610d0283836134fa565b5f6132906124b7565b54600160401b900460ff16919050565b6132a8612cab565b5f51602061406f5f395f51905f527f52c63247e1f47db19d5ce0460030c497f067ca4cebf71ba98eeadabe20bace036132e18482613f6a565b50600481016127668382613f6a565b6132f8612cab565b7f0773e532dfede91f04b12a73d3d2acd361424f41f76b4fb79f090161e36b4e005f8061332484613546565b9150915081613334576012613336565b805b83546001600160a81b031916600160a01b60ff92909216919091026001600160a01b031916176001600160a01b0394909416939093179091555050565b6124a4612cab565b613383612cab565b6001600160a01b0381166112b657604051631e4fbdf760e01b81525f600482015260240161092c565b5f6108cb825490565b5f610d02838361361c565b5f610d028383613642565b806001600160a01b03163b5f0361340057604051634c9c8ce360e01b81526001600160a01b038216600482015260240161092c565b5f51602061408f5f395f51905f5280546001600160a01b0319166001600160a01b0392909216919091179055565b60605f5f846001600160a01b03168460405161344a9190614024565b5f60405180830381855af49150503d805f8114613482576040519150601f19603f3d011682016040523d82523d5f602084013e613487565b606091505b5091509150611940858383613725565b3415610fd45760405163b398979f60e01b815260040160405180910390fd5b5f805f1983850993909202808410938190039390930393915050565b634e487b715f52806020526024601cfd5b5f8181526001830160205260408120541515610d02565b5f81815260018301602052604081205461353f57508154600181810184555f8481526020808220909301849055845484825282860190935260409020919091556108cb565b505f6108cb565b60408051600481526024810182526020810180516001600160e01b031663313ce56760e01b17905290515f918291829182916001600160a01b0387169161358c91614024565b5f60405180830381855afa9150503d805f81146135c4576040519150601f19603f3d011682016040523d82523d5f602084013e6135c9565b606091505b50915091508180156135dd57506020815110155b15613610575f818060200190518101906135f79190613cae565b905060ff811161360e576001969095509350505050565b505b505f9485945092505050565b5f825f01828154811061363157613631613d60565b905f5260205f200154905092915050565b5f818152600183016020526040812054801561371c575f613664600183613e85565b85549091505f9061367790600190613e85565b90508082146136d6575f865f01828154811061369557613695613d60565b905f5260205f200154905080875f0184815481106136b5576136b5613d60565b5f918252602080832090910192909255918252600188019052604090208390555b85548690806136e7576136e761403a565b600190038181905f5260205f20015f90559055856001015f8681526020019081526020015f205f9055600193505050506108cb565b5f9150506108cb565b60608261373a5761373582613781565b610d02565b815115801561375157506001600160a01b0384163b155b1561377a57604051639996b31560e01b81526001600160a01b038516600482015260240161092c565b5080610d02565b8051156137915780518082602001fd5b60405163d6bda27560e01b815260040160405180910390fd5b5080545f8255905f5260205f2090810190610b7b91905b808211156137d4575f81556001016137c1565b5090565b602081525f82518060208401528060208501604085015e5f604082850101526040601f19601f83011684010191505092915050565b5f6020828403121561381d575f5ffd5b5035919050565b6001600160a01b0381168114610b7b575f5ffd5b5f5f60408385031215613849575f5ffd5b823561385481613824565b946020939093013593505050565b5f5f83601f840112613872575f5ffd5b5081356001600160401b03811115613888575f5ffd5b602083019150836020828501011115612488575f5ffd5b5f5f5f5f5f5f608087890312156138b4575f5ffd5b86356138bf81613824565b955060208701356138cf81613824565b945060408701356001600160401b038111156138e9575f5ffd5b6138f589828a01613862565b90955093505060608701356001600160401b03811115613913575f5ffd5b61391f89828a01613862565b979a9699509497509295939492505050565b5f5f5f60608486031215613943575f5ffd5b833561394e81613824565b9250602084013561395e81613824565b929592945050506040919091013590565b5f6020828403121561397f575f5ffd5b8135610d0281613824565b634e487b7160e01b5f52604160045260245ffd5b5f5f604083850312156139af575f5ffd5b82356139ba81613824565b915060208301356001600160401b038111156139d4575f5ffd5b8301601f810185136139e4575f5ffd5b80356001600160401b038111156139fd576139fd61398a565b604051601f8201601f19908116603f011681016001600160401b0381118282101715613a2b57613a2b61398a565b604052818152828201602001871015613a42575f5ffd5b816020840160208301375f602083830101528093505050509250929050565b5f5f60408385031215613a72575f5ffd5b823591506020830135613a8481613824565b809150509250929050565b5f5f83601f840112613a9f575f5ffd5b5081356001600160401b03811115613ab5575f5ffd5b6020830191508360208260061b8501011115612488575f5ffd5b5f5f60208385031215613ae0575f5ffd5b82356001600160401b03811115613af5575f5ffd5b613b0185828601613a8f565b90969095509350505050565b5f5f5f60408486031215613b1f575f5ffd5b83356001600160401b03811115613b34575f5ffd5b613b4086828701613a8f565b909790965060209590950135949350505050565b5f5f5f60608486031215613b66575f5ffd5b8335925060208401359150604084013560048110613b82575f5ffd5b809150509250925092565b5f5f5f60608486031215613b9f575f5ffd5b833592506020840135613bb181613824565b91506040840135613b8281613824565b604080825283519082018190525f9060208501906060840190835b81811015613c035783516001600160a01b0316835260209384019390920191600101613bdc565b5050838103602080860191909152855180835291810192508501905f5b81811015613c3e578251845260209384019390920191600101613c20565b50919695505050505050565b5f5f60408385031215613c5b575f5ffd5b8235613c6681613824565b91506020830135613a8481613824565b600181811c90821680613c8a57607f821691505b602082108103613ca857634e487b7160e01b5f52602260045260245ffd5b50919050565b5f60208284031215613cbe575f5ffd5b5051919050565b6001600160a01b039390931683526020830191909152604082015260600190565b5f60208284031215613cf6575f5ffd5b8151610d0281613824565b5f60208284031215613d11575f5ffd5b81518015158114610d02575f5ffd5b634e487b7160e01b5f52601160045260245ffd5b808201808211156108cb576108cb613d20565b60ff81811683821601908111156108cb576108cb613d20565b634e487b7160e01b5f52603260045260245ffd5b5f60208284031215613d84575f5ffd5b815160ff81168114610d02575f5ffd5b6001815b6001841115613dcf57808504811115613db357613db3613d20565b6001841615613dc157908102905b60019390931c928002613d98565b935093915050565b5f82613de5575060016108cb565b81613df157505f6108cb565b8160018114613e075760028114613e1157613e2d565b60019150506108cb565b60ff841115613e2257613e22613d20565b50506001821b6108cb565b5060208310610133831016604e8410600b8410161715613e50575081810a6108cb565b613e5c5f198484613d94565b805f1904821115613e6f57613e6f613d20565b029392505050565b5f610d0260ff841683613dd7565b818103818111156108cb576108cb613d20565b60ff82811682821603908111156108cb576108cb613d20565b634e487b7160e01b5f52601260045260245ffd5b92835260208301919091526001600160f81b031916604082015260600190565b634e487b7160e01b5f52602160045260245ffd5b5f60ff831680613f1757634e487b7160e01b5f52601260045260245ffd5b8060ff84160691505092915050565b601f8211156123c257805f5260205f20601f840160051c81016020851015613f4b5750805b601f840160051c820191505b81811015612c50575f8155600101613f57565b81516001600160401b03811115613f8357613f8361398a565b613f9781613f918454613c76565b84613f26565b6020601f821160018114613fc9575f8315613fb25750848201515b5f19600385901b1c1916600184901b178455612c50565b5f84815260208120601f198516915b82811015613ff85787850151825560209485019460019092019101613fd8565b508482101561401557868401515f19600387901b60f8161c191681555b50505050600190811b01905550565b5f82518060208501845e5f920191825250919050565b634e487b7160e01b5f52603160045260245ffdfeed8d60e34876f751cc8b014c560745351147d9de11b9347c854e881b128ea60052c63247e1f47db19d5ce0460030c497f067ca4cebf71ba98eeadabe20bace00360894a13ba1a3210667c828492db98dca3e2076cc3735a920a3ca505d382bbc9b779b17422d0df92223018b32b4d1fa46e071723d6817e2486d003becc55f00a26469706673582212203347ed93d3efdbb539676003b04e825eef95e7ed94aa6d8a7b62e37d6cc9c5de64736f6c634300081c0033",
  "linkReferences": {},
  "deployedLinkReferences": {}
}