{
  "_format": "hh-sol-artifact-1",
  "contractName": "VaultImplementations",
  "sourceName": "contracts/helpers/VaultImplementations.sol",
  "abi": [
    {
      "inputs": [],
      "stateMutability": "nonpayable",
      "type": "constructor"
    },
    {
      "inputs": [],
      "name": "ENCRYPTED_VAULT_IMPLEMENTATION",
      "outputs": [
        {
          "internalType": "address",
          "name": "",
          "type": "address"
        }
      ],
      "stateMutability": "view",
      "type": "function"
    },
    {
      "inputs": [],
      "name": "TRANSPARENT_VAULT_IMPLEMENTATION",
      "outputs": [
        {
          "internalType": "address",
          "name": "",
          "type": "address"
        }
      ],
      "stateMutability": "view",
      "type": "function"
    }
  ],
  "bytecode": "0x60c0604052348015600e575f5ffd5b506040516019906071565b604051809103905ff0801580156031573d5f5f3e3d5ffd5b506001600160a01b0316608052604051604890607e565b604051809103905ff0801580156060573d5f5f3e3d5ffd5b506001600160a01b031660a052608b565b6135d68061017a83390190565b6133f88061375083390190565b60805160a05160d26100a85f395f607a01525f6038015260d25ff3fe6080604052348015600e575f5ffd5b50600436106030575f3560e01c8063292b2f86146034578063fb121699146076575b5f5ffd5b605a7f000000000000000000000000000000000000000000000000000000000000000081565b6040516001600160a01b03909116815260200160405180910390f35b605a7f00000000000000000000000000000000000000000000000000000000000000008156fea2646970667358221220f020dab5e2f5bc200d4be1c5ac1b615b699d5a3b5c0eb9dc8a19a9df3b85738a64736f6c634300081c003360a0604052306080523480156012575f5ffd5b5060805161359d6100395f395f81816120ba015281816120e30152612245015261359d5ff3fe6080604052600436106102a5575f3560e01c806394bf804d1161016f578063c37fc8a8116100d8578063d5f3948811610092578063e30c39781161006d578063e30c397814610799578063e66f53b7146107ad578063ef8b30f7146106d6578063f2fde38b146107cc575f5ffd5b8063d5f394881461073c578063d905777e1461075b578063dd62ed3e1461077a575f5ffd5b8063c37fc8a8146106c2578063c63d75b614610471578063c6e6f592146106d6578063ce96cb77146106f5578063d1699c2614610714578063d3d0345814610728575f5ffd5b8063b1bd7e2e11610129578063b1bd7e2e14610605578063b3d7f6b914610624578063b460af9414610643578063b6eba65314610662578063ba08765214610684578063c0b568e1146106a3575f5ffd5b806394bf804d146104b857806395d89b411461056f578063a68a526714610583578063a9059cbb146105a2578063aa9d3a60146105c1578063ad3cb1cc146105d5575f5ffd5b806338d52e0f1161021157806370a08231116101cb57806370a08231146104d7578063715018a6146104f6578063745400c91461050a57806379502c551461052957806379ba5097146105475780638da5cb5b1461055b575f5ffd5b806338d52e0f14610445578063402d267d146104715780634cdad506146102ed5780634f1ef2861461049157806352d1902d146104a45780636e553f65146104b8575f5ffd5b80631054449411610262578063105444941461037b57806318160ddd1461039a5780632016a0d2146103cd57806323b872dd146103ec578063313ce5671461040b57806333fdc59214610431575f5ffd5b806301e1d114146102a957806306fdde03146102cc57806307a2d13a146102ed578063095ea7b31461030c5780630a28a4771461033b5780630d1e66671461035a575b5f5ffd5b3480156102b4575f5ffd5b506003545b6040519081526020015b60405180910390f35b3480156102d7575f5ffd5b506102e06107eb565b6040516102c39190612cdc565b3480156102f8575f5ffd5b506102b9610307366004612d11565b6108ab565b348015610317575f5ffd5b5061032b610326366004612d3c565b6108bc565b60405190151581526020016102c3565b348015610346575f5ffd5b506102b9610355366004612d11565b6108d3565b348015610365575f5ffd5b50610379610374366004612d11565b6108df565b005b348015610386575f5ffd5b50610379610395366004612da6565b610a98565b3480156103a5575f5ffd5b507f52c63247e1f47db19d5ce0460030c497f067ca4cebf71ba98eeadabe20bace02546102b9565b3480156103d8575f5ffd5b506103796103e7366004612e2a565b610c05565b3480156103f7575f5ffd5b5061032b610406366004612ebc565b610d6b565b348015610416575f5ffd5b5061041f610d90565b60405160ff90911681526020016102c3565b34801561043c575f5ffd5b50610379610dd2565b348015610450575f5ffd5b50610459610f5c565b6040516001600160a01b0390911681526020016102c3565b34801561047c575f5ffd5b506102b961048b366004612efa565b505f1990565b61037961049f366004612f29565b610f90565b3480156104af575f5ffd5b506102b9610faf565b3480156104c3575f5ffd5b506102b96104d2366004612fec565b610fca565b3480156104e2575f5ffd5b506102b96104f1366004612efa565b610fe4565b348015610501575f5ffd5b5061037961100a565b348015610515575f5ffd5b50610379610524366004612d11565b61101b565b348015610534575f5ffd5b505f54610459906001600160a01b031681565b348015610552575f5ffd5b50610379611131565b348015610566575f5ffd5b50610459611176565b34801561057a575f5ffd5b506102e061119e565b34801561058e575f5ffd5b506102b961059d36600461301a565b6111dc565b3480156105ad575f5ffd5b5061032b6105bc366004612d3c565b6112b4565b3480156105cc575f5ffd5b506103796112c1565b3480156105e0575f5ffd5b506102e0604051806040016040528060058152602001640352e302e360dc1b81525081565b348015610610575f5ffd5b5061037961061f366004613053565b6114b3565b34801561062f575f5ffd5b506102b961063e366004612d11565b611765565b34801561064e575f5ffd5b506102b961065d366004613091565b611771565b34801561066d575f5ffd5b5061067661178a565b6040516102c39291906130c5565b34801561068f575f5ffd5b506102b961069e366004613091565b61189e565b3480156106ae575f5ffd5b506103796106bd366004612d11565b6118b8565b3480156106cd575f5ffd5b506102b9611a10565b3480156106e1575f5ffd5b506102b96106f0366004612d11565b611a77565b348015610700575f5ffd5b506102b961070f366004612efa565b611a82565b34801561071f575f5ffd5b506102b9611a95565b348015610733575f5ffd5b50610676611af4565b348015610747575f5ffd5b50600254610459906001600160a01b031681565b348015610766575f5ffd5b506102b9610775366004612efa565b611c02565b348015610785575f5ffd5b506102b961079436600461314e565b611c0c565b3480156107a4575f5ffd5b50610459611c55565b3480156107b8575f5ffd5b50600154610459906001600160a01b031681565b3480156107d7575f5ffd5b506103796107e6366004612efa565b611c7d565b7f52c63247e1f47db19d5ce0460030c497f067ca4cebf71ba98eeadabe20bace0380546060915f5160206135085f395f51905f52916108299061317a565b80601f01602080910402602001604051908101604052809291908181526020018280546108559061317a565b80156108a05780601f10610877576101008083540402835291602001916108a0565b820191905f5260205f20905b81548152906001019060200180831161088357829003601f168201915b505050505091505090565b5f6108b6825f611d02565b92915050565b5f336108c9818585611d10565b5060019392505050565b5f6108b6826001611d22565b6108e7611dfc565b805f03610920576108f6610f5c565b604051636b30633560e01b81526001600160a01b0390911660048201526024015b60405180910390fd5b335f90815260046020526040812054900361097757600680546001810182555f919091527ff652222313e28459528d920b65115c16c04f3efc82aaedc97be59f3f377c0d3f0180546001600160a01b031916331790555b335f90815260046020526040812080548392906109959084906131c6565b909155505f90506109a4610f5c565b6040516323b872dd60e01b8152336004820152306024820152604481018490526001600160a01b0391909116906323b872dd906064016020604051808303815f875af11580156109f6573d5f5f3e3d5ffd5b505050506040513d601f19601f82011682018060405250810190610a1a91906131d9565b905080610a3a576040516312171d8360e31b815260040160405180910390fd5b60065460405133917f03979a8c481a9e9c06938045cfd5c28535255cb003b10a8fe84ebb3cb4d440f291610a7691868252602082015260400190565b60405180910390a250610a9560015f5160206135485f395f51905f5255565b50565b5f5f9054906101000a90046001600160a01b03166001600160a01b0316633a0dad8e6040518163ffffffff1660e01b8152600401602060405180830381865afa158015610ae7573d5f5f3e3d5ffd5b505050506040513d601f19601f82011682018060405250810190610b0b91906131f8565b6001600160a01b0316336001600160a01b031614610b3c57604051631af2ab4f60e31b815260040160405180910390fd5b610b466008611e46565b815f5b81811015610bc657610bbd858583818110610b6657610b66613213565b610b7c9260206040909202019081019150612efa565b868684818110610b8e57610b8e613213565b9050604002016020016020810190610ba69190613227565b63ffffffff166008611e4f9092919063ffffffff16565b50600101610b49565b5060038290556040518281527f5e1ff954b5e5257e9ee5d4cb07059e8f5e69b1aaaf9911e5d8d90a6894de9c219060200160405180910390a150505050565b5f610c0e611e6c565b805490915060ff600160401b82041615906001600160401b03165f81158015610c345750825b90505f826001600160401b03166001148015610c4f5750303b155b905081158015610c5d575080155b15610c7b5760405163f92ee8a960e01b815260040160405180910390fd5b845467ffffffffffffffff191660011785558315610ca557845460ff60401b1916600160401b1785555b610d188b8b8b8b8080601f0160208091040260200160405190810160405280939291908181526020018383808284375f9201919091525050604080516020601f8f018190048102820181019092528d815292508d91508c90819084018382808284375f92019190915250611e9492505050565b8315610d5e57845460ff60401b19168555604051600181527fc7f505b2f371ae2175ee4913f4499e1f2633a7b5936321eed1cdaeb6115181d29060200160405180910390a15b5050505050505050505050565b5f33610d78858285611fba565b610d8385858561201e565b60019150505b9392505050565b5f807f0773e532dfede91f04b12a73d3d2acd361424f41f76b4fb79f090161e36b4e0090505f8154610dcc9190600160a01b900460ff1661324a565b91505090565b5f5f9054906101000a90046001600160a01b03166001600160a01b0316633a0dad8e6040518163ffffffff1660e01b8152600401602060405180830381865afa158015610e21573d5f5f3e3d5ffd5b505050506040513d601f19601f82011682018060405250810190610e4591906131f8565b6001600160a01b0316336001600160a01b031614610e7657604051631af2ab4f60e31b815260040160405180910390fd5b610e7e611dfc565b6006545f5b81811015610f42575f60068281548110610e9f57610e9f613213565b5f9182526020808320909101546001600160a01b03168083526004909152604082205490925090610ecf82611a77565b6001600160a01b0384165f908152600460205260408120559050610ef3838261207b565b60408051838152602081018690526001600160a01b038516917f782ea2005b7f873a0190a1ccb553c732171348d6e16d2b7d3d493c0677dc296e910160405180910390a2505050600101610e83565b5050610f5a60015f5160206135485f395f51905f5255565b565b5f807f0773e532dfede91f04b12a73d3d2acd361424f41f76b4fb79f090161e36b4e005b546001600160a01b031692915050565b610f986120af565b610fa182612153565b610fab828261217e565b5050565b5f610fb861223a565b505f5160206135285f395f51905f5290565b5f6040516318f2e47360e11b815260040160405180910390fd5b6001600160a01b03165f9081525f5160206135085f395f51905f52602052604090205490565b611012612283565b610f5a5f6122b5565b805f0361103b576040516314e6cbb960e11b815260040160405180910390fd5b8061104533610fe4565b101561106457604051633c57b48560e21b815260040160405180910390fd5b335f9081526005602052604081205490036110bb57600780546001810182555f919091527fa66cc928b5edb82af9bd49922954155ab7b0942694bea4ce44661d9a8736c6880180546001600160a01b031916331790555b335f90815260056020526040812080548392906110d99084906131c6565b909155506110ea905033308361201e565b60075460405133917fd72eb5d043f24a0168ae744d5c44f9596fd673a26bf74d9646bff4b844882d149161112691858252602082015260400190565b60405180910390a250565b338061113b611c55565b6001600160a01b03161461116d5760405163118cdaa760e01b81526001600160a01b0382166004820152602401610917565b610a95816122b5565b5f807f9016d09d72d40fdae2fd8ceac6b6234c7706214fd39c1cd1e609a0528c199300610f80565b7f52c63247e1f47db19d5ce0460030c497f067ca4cebf71ba98eeadabe20bace0480546060915f5160206135085f395f51905f52916108299061317a565b5f5f6112067f52c63247e1f47db19d5ce0460030c497f067ca4cebf71ba98eeadabe20bace025490565b90505f5f5f9054906101000a90046001600160a01b03166001600160a01b031663b71ee4fc6040518163ffffffff1660e01b8152600401602060405180830381865afa158015611258573d5f5f3e3d5ffd5b505050506040513d601f19601f8201168201806040525081019061127c9190613263565b90506112aa61128c8660016131c6565b61129783600a613366565b6112a190856131c6565b889190876122ed565b9695505050505050565b5f336108c981858561201e565b5f5f9054906101000a90046001600160a01b03166001600160a01b0316633a0dad8e6040518163ffffffff1660e01b8152600401602060405180830381865afa158015611310573d5f5f3e3d5ffd5b505050506040513d601f19601f8201168201806040525081019061133491906131f8565b6001600160a01b0316336001600160a01b03161461136557604051631af2ab4f60e31b815260040160405180910390fd5b61136d611dfc565b6007545f5b81811015610f42575f6007828154811061138e5761138e613213565b5f9182526020808320909101546001600160a01b0316808352600590915260408220805492905591506113c1308261232f565b5f6113cb826108ab565b90506113d5610f5c565b60405163a9059cbb60e01b81526001600160a01b03858116600483015260248201849052919091169063a9059cbb906044016020604051808303815f875af1158015611423573d5f5f3e3d5ffd5b505050506040513d601f19601f8201168201806040525081019061144791906131d9565b611464576040516312171d8360e31b815260040160405180910390fd5b60408051838152602081018690526001600160a01b038516917febad37b830b1857ef9af5983fc20dc0ded12dc472ba1e22e06fd3a9465b4506c910160405180910390a2505050600101611372565b6001546001600160a01b031633146114de576040516356b381a560e01b815260040160405180910390fd5b5f8190036114ff57604051631121aa8d60e01b815260040160405180910390fd5b611509600b611e46565b5f81815b81811015611693575f85858381811061152857611528613213565b61153e9260206040909202019081019150612efa565b90505f86868481811061155357611553613213565b905060400201602001602081019061156b9190613227565b5f54604051633af32abf60e01b81526001600160a01b038581166004830152929350911690633af32abf90602401602060405180830381865afa1580156115b4573d5f5f3e3d5ffd5b505050506040513d601f19601f820116820180604052508101906115d891906131d9565b6116005760405163751dff9760e11b81526001600160a01b0383166004820152602401610917565b8063ffffffff165f0361163157604051636b30633560e01b81526001600160a01b0383166004820152602401610917565b5f611647600b8463ffffffff80861690611e4f16565b905080611672576040516346bdabe160e01b81526001600160a01b0384166004820152602401610917565b61168263ffffffff8316876131c6565b9550506001909201915061150d9050565b505f5f5f9054906101000a90046001600160a01b03166001600160a01b031663d1717c7d6040518163ffffffff1660e01b8152600401602060405180830381865afa1580156116e4573d5f5f3e3d5ffd5b505050506040513d601f19601f820116820180604052508101906117089190613263565b905061171581600a613366565b831461173457604051639006dd2760e01b815260040160405180910390fd5b60405133907f2d47a742b8d7df7c1fc5a9a631b206b364e6cb2722490759f63bb3ab14b132e0905f90a25050505050565b5f6108b6826001611d02565b5f604051628a595160e01b815260040160405180910390fd5b6060805f611798600b612363565b9050806001600160401b038111156117b2576117b2612f15565b6040519080825280602002602001820160405280156117db578160200160208202803683370190505b509250806001600160401b038111156117f6576117f6612f15565b60405190808252806020026020018201604052801561181f578160200160208202803683370190505b5091505f5b81811015611898575f80611839600b8461236d565b915091508186848151811061185057611850613213565b60200260200101906001600160a01b031690816001600160a01b0316815250508085848151811061188357611883613213565b60209081029190910101525050600101611824565b50509091565b5f604051630ad8521960e31b815260040160405180910390fd5b6118c0611dfc565b805f036118cf576108f6610f5c565b335f908152600460205260409020548111156118fe576040516332194fd360e21b815260040160405180910390fd5b335f908152600460205260408120805483929061191c908490613374565b90915550506006545f61192d610f5c565b60405163a9059cbb60e01b8152336004820152602481018590526001600160a01b03919091169063a9059cbb906044016020604051808303815f875af1158015611979573d5f5f3e3d5ffd5b505050506040513d601f19601f8201168201806040525081019061199d91906131d9565b9050806119bd576040516312171d8360e31b815260040160405180910390fd5b604080518481526020810184905233917f2b19ac8271899522bfff26e405c20643af4cdf99b525ef2cd8cde689644874ae910160405180910390a25050610a9560015f5160206135485f395f51905f5255565b6007545f908190815b81811015611a6f5760055f60078381548110611a3757611a37613213565b5f9182526020808320909101546001600160a01b03168352820192909252604001902054611a6590846131c6565b9250600101611a19565b509092915050565b5f6108b6825f611d22565b5f6108b6611a8f83610fe4565b5f611d02565b6006545f908190815b81811015611a6f5760045f60068381548110611abc57611abc613213565b5f9182526020808320909101546001600160a01b03168352820192909252604001902054611aea90846131c6565b9250600101611a9e565b6060805f611b026008612363565b9050806001600160401b03811115611b1c57611b1c612f15565b604051908082528060200260200182016040528015611b45578160200160208202803683370190505b509250806001600160401b03811115611b6057611b60612f15565b604051908082528060200260200182016040528015611b89578160200160208202803683370190505b5091505f5b81811015611898575f80611ba360088461236d565b9150915081868481518110611bba57611bba613213565b60200260200101906001600160a01b031690816001600160a01b03168152505080858481518110611bed57611bed613213565b60209081029190910101525050600101611b8e565b5f6108b682610fe4565b6001600160a01b039182165f9081527f52c63247e1f47db19d5ce0460030c497f067ca4cebf71ba98eeadabe20bace016020908152604080832093909416825291909152205490565b5f807f237e158222e3e6968b72b9db0d8043aacf074ad9f650f0d1606b4d82ee432c00610f80565b611c85612283565b7f237e158222e3e6968b72b9db0d8043aacf074ad9f650f0d1606b4d82ee432c0080546001600160a01b0319166001600160a01b0383169081178255611cc9611176565b6001600160a01b03167f38d16b8cac22d99fc7c124b9cd0de2d3fa1faef420bfe791d8c362d765e2270060405160405180910390a35050565b5f610d8983600354846111dc565b611d1d838383600161238a565b505050565b5f5f611d4c7f52c63247e1f47db19d5ce0460030c497f067ca4cebf71ba98eeadabe20bace025490565b90505f5f5f9054906101000a90046001600160a01b03166001600160a01b031663b71ee4fc6040518163ffffffff1660e01b8152600401602060405180830381865afa158015611d9e573d5f5f3e3d5ffd5b505050506040513d601f19601f82011682018060405250810190611dc29190613263565b9050611df3611dd282600a613366565b611ddc90846131c6565b600354611dea9060016131c6565b879190876122ed565b95945050505050565b5f5160206135485f395f51905f52805460011901611e2d57604051633ee5aeb560e01b815260040160405180910390fd5b60029055565b60015f5160206135485f395f51905f5255565b610a958161246e565b5f611e64846001600160a01b038516846124b7565b949350505050565b5f807ff0c57e16840df040f15088dc2f81fe391c3923bec73e23a9662efc9c229c6a006108b6565b611e9c6124d3565b6001600160a01b038416611ec357604051639c6bb9f560e01b815260040160405180910390fd5b6001600160a01b038316611eea57604051636a485a5b60e11b815260040160405180910390fd5b611ef482826124f8565b611f5c836001600160a01b0316637158da7c6040518163ffffffff1660e01b8152600401602060405180830381865afa158015611f33573d5f5f3e3d5ffd5b505050506040513d601f19601f82011682018060405250810190611f5791906131f8565b61250a565b611f6461251b565b611f6d8461252b565b611f7561253c565b611f7d61253c565b5050600280546001600160a01b03199081163317909155600180546001600160a01b039485169083161790555f8054929093169116178155600355565b5f611fc58484611c0c565b90505f19811015612018578181101561200a57604051637dc7a0d960e11b81526001600160a01b03841660048201526024810182905260448101839052606401610917565b61201884848484035f61238a565b50505050565b6001600160a01b03831661204757604051634b637e8f60e11b81525f6004820152602401610917565b6001600160a01b0382166120705760405163ec442f0560e01b81525f6004820152602401610917565b611d1d838383612544565b6001600160a01b0382166120a45760405163ec442f0560e01b81525f6004820152602401610917565b610fab5f8383612544565b306001600160a01b037f000000000000000000000000000000000000000000000000000000000000000016148061213557507f00000000000000000000000000000000000000000000000000000000000000006001600160a01b03166121295f5160206135285f395f51905f52546001600160a01b031690565b6001600160a01b031614155b15610f5a5760405163703e46dd60e11b815260040160405180910390fd5b6001546001600160a01b03163314610a95576040516356b381a560e01b815260040160405180910390fd5b816001600160a01b03166352d1902d6040518163ffffffff1660e01b8152600401602060405180830381865afa9250505080156121d8575060408051601f3d908101601f191682019092526121d591810190613387565b60015b61220057604051634c9c8ce360e01b81526001600160a01b0383166004820152602401610917565b5f5160206135285f395f51905f52811461223057604051632a87526960e21b815260048101829052602401610917565b611d1d838361267d565b306001600160a01b037f00000000000000000000000000000000000000000000000000000000000000001614610f5a5760405163703e46dd60e11b815260040160405180910390fd5b3361228c611176565b6001600160a01b031614610f5a5760405163118cdaa760e01b8152336004820152602401610917565b7f237e158222e3e6968b72b9db0d8043aacf074ad9f650f0d1606b4d82ee432c0080546001600160a01b0319168155610fab826126d2565b5f61231a6122fa83612742565b801561231557505f84806123105761231061339e565b868809115b151590565b61232586868661276e565b611df391906131c6565b6001600160a01b03821661235857604051634b637e8f60e11b81525f6004820152602401610917565b610fab825f83612544565b5f6108b68261281e565b5f80808061237b8686612828565b909450925050505b9250929050565b5f5160206135085f395f51905f526001600160a01b0385166123c15760405163e602df0560e01b81525f6004820152602401610917565b6001600160a01b0384166123ea57604051634a1406b160e11b81525f6004820152602401610917565b6001600160a01b038086165f9081526001830160209081526040808320938816835292905220839055811561246757836001600160a01b0316856001600160a01b03167f8c5be1e5ebec7d5bd14f71427d1e84f3dd0314c0f7b2291e5b200ac8c7c3b9258560405161245e91815260200190565b60405180910390a35b5050505050565b5f6124788261281e565b90505f5b818110156124ad57600283015f6124938584612851565b815260208101919091526040015f9081205560010161247c565b50610fab8261285c565b5f8281526002840160205260408120829055611e648484612865565b6124db612870565b610f5a57604051631afcd79f60e31b815260040160405180910390fd5b6125006124d3565b610fab8282612889565b6125126124d3565b610a95816128d9565b6125236124d3565b610f5a61295c565b6125336124d3565b610a9581612964565b610f5a6124d3565b5f5160206135085f395f51905f526001600160a01b03841661257e5781816002015f82825461257391906131c6565b909155506125ee9050565b6001600160a01b0384165f90815260208290526040902054828110156125d05760405163391434e360e21b81526001600160a01b03861660048201526024810182905260448101849052606401610917565b6001600160a01b0385165f9081526020839052604090209083900390555b6001600160a01b03831661260c57600281018054839003905561262a565b6001600160a01b0383165f9081526020829052604090208054830190555b826001600160a01b0316846001600160a01b03167fddf252ad1be2c89b69c2b068fc378daa952ba7f163c4a11628f55a4df523b3ef8460405161266f91815260200190565b60405180910390a350505050565b61268682612995565b6040516001600160a01b038316907fbc7cd75a20ee27fd9adebab32041f755214dbc6bffa90cc0225b39da2e5c2d3b905f90a28051156126ca57611d1d82826129f8565b610fab612a61565b7f9016d09d72d40fdae2fd8ceac6b6234c7706214fd39c1cd1e609a0528c19930080546001600160a01b031981166001600160a01b03848116918217845560405192169182907f8be0079c531659141344cd1fd0a4f28419497f9722a3daafe3b4186f6b6457e0905f90a3505050565b5f6002826003811115612757576127576133b2565b61276191906133c6565b60ff166001149050919050565b5f5f5f61277b8686612a80565b91509150815f0361279f578381816127955761279561339e565b0492505050610d89565b8184116127b6576127b66003851502601118612a9c565b5f848688095f868103871696879004966002600389028118808a02820302808a02820302808a02820302808a02820302808a02820302808a02909103029181900381900460010185841190960395909502919093039390930492909217029150509392505050565b5f6108b682612aad565b5f80806128358585612851565b5f81815260029690960160205260409095205494959350505050565b5f610d898383612ab6565b610a9581612adc565b5f610d898383612b35565b5f612879611e6c565b54600160401b900460ff16919050565b6128916124d3565b5f5160206135085f395f51905f527f52c63247e1f47db19d5ce0460030c497f067ca4cebf71ba98eeadabe20bace036128ca8482613437565b50600481016120188382613437565b6128e16124d3565b7f0773e532dfede91f04b12a73d3d2acd361424f41f76b4fb79f090161e36b4e005f8061290d84612b81565b915091508161291d57601261291f565b805b83546001600160a81b031916600160a01b60ff92909216919091026001600160a01b031916176001600160a01b0394909416939093179091555050565b611e336124d3565b61296c6124d3565b6001600160a01b03811661116d57604051631e4fbdf760e01b81525f6004820152602401610917565b806001600160a01b03163b5f036129ca57604051634c9c8ce360e01b81526001600160a01b0382166004820152602401610917565b5f5160206135285f395f51905f5280546001600160a01b0319166001600160a01b0392909216919091179055565b60605f5f846001600160a01b031684604051612a1491906134f1565b5f60405180830381855af49150503d805f8114612a4c576040519150601f19603f3d011682016040523d82523d5f602084013e612a51565b606091505b5091509150611df3858383612c57565b3415610f5a5760405163b398979f60e01b815260040160405180910390fd5b5f805f1983850993909202808410938190039390930393915050565b634e487b715f52806020526024601cfd5b5f6108b6825490565b5f825f018281548110612acb57612acb613213565b905f5260205f200154905092915050565b5f612ae5825490565b90505f5b81811015612b2e57826001015f845f018381548110612b0a57612b0a613213565b905f5260205f20015481526020019081526020015f205f9055806001019050612ae9565b50505f9055565b5f818152600183016020526040812054612b7a57508154600181810184555f8481526020808220909301849055845484825282860190935260409020919091556108b6565b505f6108b6565b60408051600481526024810182526020810180516001600160e01b031663313ce56760e01b17905290515f918291829182916001600160a01b03871691612bc7916134f1565b5f60405180830381855afa9150503d805f8114612bff576040519150601f19603f3d011682016040523d82523d5f602084013e612c04565b606091505b5091509150818015612c1857506020815110155b15612c4b575f81806020019051810190612c329190613387565b905060ff8111612c49576001969095509350505050565b505b505f9485945092505050565b606082612c6c57612c6782612cb3565b610d89565b8151158015612c8357506001600160a01b0384163b155b15612cac57604051639996b31560e01b81526001600160a01b0385166004820152602401610917565b5080610d89565b805115612cc35780518082602001fd5b60405163d6bda27560e01b815260040160405180910390fd5b602081525f82518060208401528060208501604085015e5f604082850101526040601f19601f83011684010191505092915050565b5f60208284031215612d21575f5ffd5b5035919050565b6001600160a01b0381168114610a95575f5ffd5b5f5f60408385031215612d4d575f5ffd5b8235612d5881612d28565b946020939093013593505050565b5f5f83601f840112612d76575f5ffd5b5081356001600160401b03811115612d8c575f5ffd5b6020830191508360208260061b8501011115612383575f5ffd5b5f5f5f60408486031215612db8575f5ffd5b83356001600160401b03811115612dcd575f5ffd5b612dd986828701612d66565b909790965060209590950135949350505050565b5f5f83601f840112612dfd575f5ffd5b5081356001600160401b03811115612e13575f5ffd5b602083019150836020828501011115612383575f5ffd5b5f5f5f5f5f5f60808789031215612e3f575f5ffd5b8635612e4a81612d28565b95506020870135612e5a81612d28565b945060408701356001600160401b03811115612e74575f5ffd5b612e8089828a01612ded565b90955093505060608701356001600160401b03811115612e9e575f5ffd5b612eaa89828a01612ded565b979a9699509497509295939492505050565b5f5f5f60608486031215612ece575f5ffd5b8335612ed981612d28565b92506020840135612ee981612d28565b929592945050506040919091013590565b5f60208284031215612f0a575f5ffd5b8135610d8981612d28565b634e487b7160e01b5f52604160045260245ffd5b5f5f60408385031215612f3a575f5ffd5b8235612f4581612d28565b915060208301356001600160401b03811115612f5f575f5ffd5b8301601f81018513612f6f575f5ffd5b80356001600160401b03811115612f8857612f88612f15565b604051601f8201601f19908116603f011681016001600160401b0381118282101715612fb657612fb6612f15565b604052818152828201602001871015612fcd575f5ffd5b816020840160208301375f602083830101528093505050509250929050565b5f5f60408385031215612ffd575f5ffd5b82359150602083013561300f81612d28565b809150509250929050565b5f5f5f6060848603121561302c575f5ffd5b8335925060208401359150604084013560048110613048575f5ffd5b809150509250925092565b5f5f60208385031215613064575f5ffd5b82356001600160401b03811115613079575f5ffd5b61308585828601612d66565b90969095509350505050565b5f5f5f606084860312156130a3575f5ffd5b8335925060208401356130b581612d28565b9150604084013561304881612d28565b604080825283519082018190525f9060208501906060840190835b818110156131075783516001600160a01b03168352602093840193909201916001016130e0565b5050838103602080860191909152855180835291810192508501905f5b81811015613142578251845260209384019390920191600101613124565b50919695505050505050565b5f5f6040838503121561315f575f5ffd5b823561316a81612d28565b9150602083013561300f81612d28565b600181811c9082168061318e57607f821691505b6020821081036131ac57634e487b7160e01b5f52602260045260245ffd5b50919050565b634e487b7160e01b5f52601160045260245ffd5b808201808211156108b6576108b66131b2565b5f602082840312156131e9575f5ffd5b81518015158114610d89575f5ffd5b5f60208284031215613208575f5ffd5b8151610d8981612d28565b634e487b7160e01b5f52603260045260245ffd5b5f60208284031215613237575f5ffd5b813563ffffffff81168114610d89575f5ffd5b60ff81811683821601908111156108b6576108b66131b2565b5f60208284031215613273575f5ffd5b815160ff81168114610d89575f5ffd5b6001815b60018411156132be578085048111156132a2576132a26131b2565b60018416156132b057908102905b60019390931c928002613287565b935093915050565b5f826132d4575060016108b6565b816132e057505f6108b6565b81600181146132f657600281146133005761331c565b60019150506108b6565b60ff841115613311576133116131b2565b50506001821b6108b6565b5060208310610133831016604e8410600b841016171561333f575081810a6108b6565b61334b5f198484613283565b805f190482111561335e5761335e6131b2565b029392505050565b5f610d8960ff8416836132c6565b818103818111156108b6576108b66131b2565b5f60208284031215613397575f5ffd5b5051919050565b634e487b7160e01b5f52601260045260245ffd5b634e487b7160e01b5f52602160045260245ffd5b5f60ff8316806133e457634e487b7160e01b5f52601260045260245ffd5b8060ff84160691505092915050565b601f821115611d1d57805f5260205f20601f840160051c810160208510156134185750805b601f840160051c820191505b81811015612467575f8155600101613424565b81516001600160401b0381111561345057613450612f15565b6134648161345e845461317a565b846133f3565b6020601f821160018114613496575f831561347f5750848201515b5f19600385901b1c1916600184901b178455612467565b5f84815260208120601f198516915b828110156134c557878501518255602094850194600190920191016134a5565b50848210156134e257868401515f19600387901b60f8161c191681555b50505050600190811b01905550565b5f82518060208501845e5f92019182525091905056fe52c63247e1f47db19d5ce0460030c497f067ca4cebf71ba98eeadabe20bace00360894a13ba1a3210667c828492db98dca3e2076cc3735a920a3ca505d382bbc9b779b17422d0df92223018b32b4d1fa46e071723d6817e2486d003becc55f00a2646970667358221220b5e41a67bba74a3e0e936363a42b70349bcbbcc851509c2e9488c106ceb5ef3064736f6c634300081c003360a0604052306080523480156012575f5ffd5b506080516133bf6100395f395f8181611fc201528181611feb015261214d01526133bf5ff3fe60806040526004361061028b575f3560e01c806394bf804d11610155578063c63d75b6116100be578063d905777e11610078578063d905777e1461072d578063dd62ed3e1461074c578063e30c39781461076b578063e66f53b71461077f578063ef8b30f71461069a578063f2fde38b1461079e575f5ffd5b8063c63d75b614610438578063c6e6f5921461069a578063ce96cb77146106b9578063d1699c26146106d8578063d3d03458146106ec578063d5f394881461070e575f5ffd5b8063ad3cb1cc1161010f578063ad3cb1cc146105da578063b3d7f6b91461060a578063b460af9414610629578063ba08765214610648578063c0b568e114610667578063c37fc8a814610686575f5ffd5b806394bf804d1461047f57806395d89b4114610555578063985ba4ae14610569578063a68a526714610588578063a9059cbb146105a7578063aa9d3a60146105c6575f5ffd5b8063402d267d116101f7578063715018a6116101b1578063715018a6146104bd578063745400c9146104d157806379502c55146104f057806379ba50971461050e5780637f5fc5f9146105225780638da5cb5b14610541575f5ffd5b8063402d267d146104385780634cdad506146102d35780634f1ef2861461045857806352d1902d1461046b5780636e553f651461047f57806370a082311461049e575f5ffd5b806318160ddd1161024857806318160ddd146103615780632016a0d21461039457806323b872dd146103b3578063313ce567146103d257806333fdc592146103f857806338d52e0f1461040c575f5ffd5b806301e1d1141461028f57806306fdde03146102b257806307a2d13a146102d3578063095ea7b3146102f25780630a28a477146103215780630d1e666714610340575b5f5ffd5b34801561029a575f5ffd5b506003545b6040519081526020015b60405180910390f35b3480156102bd575f5ffd5b506102c66107bd565b6040516102a99190612b1a565b3480156102de575f5ffd5b5061029f6102ed366004612b4f565b61087d565b3480156102fd575f5ffd5b5061031161030c366004612b7a565b61088e565b60405190151581526020016102a9565b34801561032c575f5ffd5b5061029f61033b366004612b4f565b6108a5565b34801561034b575f5ffd5b5061035f61035a366004612b4f565b6108b1565b005b34801561036c575f5ffd5b507f52c63247e1f47db19d5ce0460030c497f067ca4cebf71ba98eeadabe20bace025461029f565b34801561039f575f5ffd5b5061035f6103ae366004612be8565b610a6a565b3480156103be575f5ffd5b506103116103cd366004612c7a565b610bd0565b3480156103dd575f5ffd5b506103e6610bf5565b60405160ff90911681526020016102a9565b348015610403575f5ffd5b5061035f610c37565b348015610417575f5ffd5b50610420610dc1565b6040516001600160a01b0390911681526020016102a9565b348015610443575f5ffd5b5061029f610452366004612cb8565b505f1990565b61035f610466366004612ce7565b610df5565b348015610476575f5ffd5b5061029f610e14565b34801561048a575f5ffd5b5061029f610499366004612daa565b610e2f565b3480156104a9575f5ffd5b5061029f6104b8366004612cb8565b610e49565b3480156104c8575f5ffd5b5061035f610e6f565b3480156104dc575f5ffd5b5061035f6104eb366004612b4f565b610e80565b3480156104fb575f5ffd5b505f54610420906001600160a01b031681565b348015610519575f5ffd5b5061035f610f96565b34801561052d575f5ffd5b5061035f61053c366004612e18565b610fdb565b34801561054c575f5ffd5b50610420611212565b348015610560575f5ffd5b506102c661123a565b348015610574575f5ffd5b5061035f610583366004612e56565b611278565b348015610593575f5ffd5b5061029f6105a2366004612e9d565b611490565b3480156105b2575f5ffd5b506103116105c1366004612b7a565b611568565b3480156105d1575f5ffd5b5061035f611575565b3480156105e5575f5ffd5b506102c6604051806040016040528060058152602001640352e302e360dc1b81525081565b348015610615575f5ffd5b5061029f610624366004612b4f565b611767565b348015610634575f5ffd5b5061029f610643366004612ed6565b611773565b348015610653575f5ffd5b5061029f610662366004612ed6565b61178c565b348015610672575f5ffd5b5061035f610681366004612b4f565b6117a6565b348015610691575f5ffd5b5061029f6118fe565b3480156106a5575f5ffd5b5061029f6106b4366004612b4f565b611965565b3480156106c4575f5ffd5b5061029f6106d3366004612cb8565b611970565b3480156106e3575f5ffd5b5061029f611983565b3480156106f7575f5ffd5b506107006119e2565b6040516102a9929190612f0a565b348015610719575f5ffd5b50600254610420906001600160a01b031681565b348015610738575f5ffd5b5061029f610747366004612cb8565b611b30565b348015610757575f5ffd5b5061029f610766366004612f93565b611b3a565b348015610776575f5ffd5b50610420611b83565b34801561078a575f5ffd5b50600154610420906001600160a01b031681565b3480156107a9575f5ffd5b5061035f6107b8366004612cb8565b611bab565b7f52c63247e1f47db19d5ce0460030c497f067ca4cebf71ba98eeadabe20bace0380546060915f51602061332a5f395f51905f52916107fb90612fbf565b80601f016020809104026020016040519081016040528092919081815260200182805461082790612fbf565b80156108725780601f1061084957610100808354040283529160200191610872565b820191905f5260205f20905b81548152906001019060200180831161085557829003601f168201915b505050505091505090565b5f610888825f611c30565b92915050565b5f3361089b818585611c3e565b5060019392505050565b5f610888826001611c50565b6108b9611d2a565b805f036108f2576108c8610dc1565b604051636b30633560e01b81526001600160a01b0390911660048201526024015b60405180910390fd5b335f90815260046020526040812054900361094957600680546001810182555f919091527ff652222313e28459528d920b65115c16c04f3efc82aaedc97be59f3f377c0d3f0180546001600160a01b031916331790555b335f908152600460205260408120805483929061096790849061300b565b909155505f9050610976610dc1565b6040516323b872dd60e01b8152336004820152306024820152604481018490526001600160a01b0391909116906323b872dd906064016020604051808303815f875af11580156109c8573d5f5f3e3d5ffd5b505050506040513d601f19601f820116820180604052508101906109ec919061301e565b905080610a0c576040516312171d8360e31b815260040160405180910390fd5b60065460405133917f03979a8c481a9e9c06938045cfd5c28535255cb003b10a8fe84ebb3cb4d440f291610a4891868252602082015260400190565b60405180910390a250610a6760015f51602061336a5f395f51905f5255565b50565b5f610a73611d74565b805490915060ff600160401b82041615906001600160401b03165f81158015610a995750825b90505f826001600160401b03166001148015610ab45750303b155b905081158015610ac2575080155b15610ae05760405163f92ee8a960e01b815260040160405180910390fd5b845467ffffffffffffffff191660011785558315610b0a57845460ff60401b1916600160401b1785555b610b7d8b8b8b8b8080601f0160208091040260200160405190810160405280939291908181526020018383808284375f9201919091525050604080516020601f8f018190048102820181019092528d815292508d91508c90819084018382808284375f92019190915250611d9c92505050565b8315610bc357845460ff60401b19168555604051600181527fc7f505b2f371ae2175ee4913f4499e1f2633a7b5936321eed1cdaeb6115181d29060200160405180910390a15b5050505050505050505050565b5f33610bdd858285611ec2565b610be8858585611f26565b60019150505b9392505050565b5f807f0773e532dfede91f04b12a73d3d2acd361424f41f76b4fb79f090161e36b4e0090505f8154610c319190600160a01b900460ff1661303d565b91505090565b5f5f9054906101000a90046001600160a01b03166001600160a01b0316633a0dad8e6040518163ffffffff1660e01b8152600401602060405180830381865afa158015610c86573d5f5f3e3d5ffd5b505050506040513d601f19601f82011682018060405250810190610caa9190613056565b6001600160a01b0316336001600160a01b031614610cdb57604051631af2ab4f60e31b815260040160405180910390fd5b610ce3611d2a565b6006545f5b81811015610da7575f60068281548110610d0457610d04613071565b5f9182526020808320909101546001600160a01b03168083526004909152604082205490925090610d3482611965565b6001600160a01b0384165f908152600460205260408120559050610d588382611f83565b60408051838152602081018690526001600160a01b038516917f782ea2005b7f873a0190a1ccb553c732171348d6e16d2b7d3d493c0677dc296e910160405180910390a2505050600101610ce8565b5050610dbf60015f51602061336a5f395f51905f5255565b565b5f807f0773e532dfede91f04b12a73d3d2acd361424f41f76b4fb79f090161e36b4e005b546001600160a01b031692915050565b610dfd611fb7565b610e068261205b565b610e108282612086565b5050565b5f610e1d612142565b505f51602061334a5f395f51905f5290565b5f6040516318f2e47360e11b815260040160405180910390fd5b6001600160a01b03165f9081525f51602061332a5f395f51905f52602052604090205490565b610e7761218b565b610dbf5f6121bd565b805f03610ea0576040516314e6cbb960e11b815260040160405180910390fd5b80610eaa33610e49565b1015610ec957604051633c57b48560e21b815260040160405180910390fd5b335f908152600560205260408120549003610f2057600780546001810182555f919091527fa66cc928b5edb82af9bd49922954155ab7b0942694bea4ce44661d9a8736c6880180546001600160a01b031916331790555b335f9081526005602052604081208054839290610f3e90849061300b565b90915550610f4f9050333083611f26565b60075460405133917fd72eb5d043f24a0168ae744d5c44f9596fd673a26bf74d9646bff4b844882d1491610f8b91858252602082015260400190565b60405180910390a250565b3380610fa0611b83565b6001600160a01b031614610fd25760405163118cdaa760e01b81526001600160a01b03821660048201526024016108e9565b610a67816121bd565b6001546001600160a01b03163314611006576040516356b381a560e01b815260040160405180910390fd5b5f81900361102757604051631121aa8d60e01b815260040160405180910390fd5b5f6110315f6121f5565b600b549091505f5b818110156110845782600a5f600b848154811061105857611058613071565b5f9182526020808320909101546001600160a01b03168352820192909252604001902055600101611039565b50611090600b5f612aec565b825f5b818110156111e0575f8686838181106110ae576110ae613071565b6110c49260206040909202019081019150612cb8565b5f54604051633af32abf60e01b81526001600160a01b038084166004830152929350911690633af32abf90602401602060405180830381865afa15801561110d573d5f5f3e3d5ffd5b505050506040513d601f19601f82011682018060405250810190611131919061301e565b6111595760405163751dff9760e11b81526001600160a01b03821660048201526024016108e9565b86868381811061116b5761116b613071565b6001600160a01b039093165f818152600a60209081526040808320960294909401939093013590935550600b805460018181018355919092527f0175b7a638427703f0dbe7bb9bbf987a2551717b34e79f33b5b1008d1fa01db990910180546001600160a01b03191690921790915501611093565b5060405133907f2d47a742b8d7df7c1fc5a9a631b206b364e6cb2722490759f63bb3ab14b132e0905f90a25050505050565b5f807f9016d09d72d40fdae2fd8ceac6b6234c7706214fd39c1cd1e609a0528c199300610de5565b7f52c63247e1f47db19d5ce0460030c497f067ca4cebf71ba98eeadabe20bace0480546060915f51602061332a5f395f51905f52916107fb90612fbf565b5f5f9054906101000a90046001600160a01b03166001600160a01b0316633a0dad8e6040518163ffffffff1660e01b8152600401602060405180830381865afa1580156112c7573d5f5f3e3d5ffd5b505050506040513d601f19601f820116820180604052508101906112eb9190613056565b6001600160a01b0316336001600160a01b03161461131c57604051631af2ab4f60e31b815260040160405180910390fd5b5f6113265f6121f5565b6009549091505f5b81811015611379578260085f6009848154811061134d5761134d613071565b5f9182526020808320909101546001600160a01b0316835282019290925260400190205560010161132e565b5061138560095f612aec565b5f5b81811015611450578585828181106113a1576113a1613071565b9050604002016020013560085f8888858181106113c0576113c0613071565b6113d69260206040909202019081019150612cb8565b6001600160a01b0316815260208101919091526040015f2055600986868381811061140357611403613071565b6114199260206040909202019081019150612cb8565b8154600180820184555f93845260209093200180546001600160a01b0319166001600160a01b039290921691909117905501611387565b5060038390556040518381527f5e1ff954b5e5257e9ee5d4cb07059e8f5e69b1aaaf9911e5d8d90a6894de9c219060200160405180910390a15050505050565b5f5f6114ba7f52c63247e1f47db19d5ce0460030c497f067ca4cebf71ba98eeadabe20bace025490565b90505f5f5f9054906101000a90046001600160a01b03166001600160a01b031663b71ee4fc6040518163ffffffff1660e01b8152600401602060405180830381865afa15801561150c573d5f5f3e3d5ffd5b505050506040513d601f19601f820116820180604052508101906115309190613085565b905061155e61154086600161300b565b61154b83600a613188565b611555908561300b565b88919087612201565b9695505050505050565b5f3361089b818585611f26565b5f5f9054906101000a90046001600160a01b03166001600160a01b0316633a0dad8e6040518163ffffffff1660e01b8152600401602060405180830381865afa1580156115c4573d5f5f3e3d5ffd5b505050506040513d601f19601f820116820180604052508101906115e89190613056565b6001600160a01b0316336001600160a01b03161461161957604051631af2ab4f60e31b815260040160405180910390fd5b611621611d2a565b6007545f5b81811015610da7575f6007828154811061164257611642613071565b5f9182526020808320909101546001600160a01b0316808352600590915260408220805492905591506116753082612243565b5f61167f8261087d565b9050611689610dc1565b60405163a9059cbb60e01b81526001600160a01b03858116600483015260248201849052919091169063a9059cbb906044016020604051808303815f875af11580156116d7573d5f5f3e3d5ffd5b505050506040513d601f19601f820116820180604052508101906116fb919061301e565b611718576040516312171d8360e31b815260040160405180910390fd5b60408051838152602081018690526001600160a01b038516917febad37b830b1857ef9af5983fc20dc0ded12dc472ba1e22e06fd3a9465b4506c910160405180910390a2505050600101611626565b5f610888826001611c30565b5f604051628a595160e01b815260040160405180910390fd5b5f604051630ad8521960e31b815260040160405180910390fd5b6117ae611d2a565b805f036117bd576108c8610dc1565b335f908152600460205260409020548111156117ec576040516332194fd360e21b815260040160405180910390fd5b335f908152600460205260408120805483929061180a908490613196565b90915550506006545f61181b610dc1565b60405163a9059cbb60e01b8152336004820152602481018590526001600160a01b03919091169063a9059cbb906044016020604051808303815f875af1158015611867573d5f5f3e3d5ffd5b505050506040513d601f19601f8201168201806040525081019061188b919061301e565b9050806118ab576040516312171d8360e31b815260040160405180910390fd5b604080518481526020810184905233917f2b19ac8271899522bfff26e405c20643af4cdf99b525ef2cd8cde689644874ae910160405180910390a25050610a6760015f51602061336a5f395f51905f5255565b6007545f908190815b8181101561195d5760055f6007838154811061192557611925613071565b5f9182526020808320909101546001600160a01b03168352820192909252604001902054611953908461300b565b9250600101611907565b509092915050565b5f610888825f611c50565b5f61088861197d83610e49565b5f611c30565b6006545f908190815b8181101561195d5760045f600683815481106119aa576119aa613071565b5f9182526020808320909101546001600160a01b031683528201929092526040019020546119d8908461300b565b925060010161198c565b6009546060908190806001600160401b03811115611a0257611a02612cd3565b604051908082528060200260200182016040528015611a2b578160200160208202803683370190505b509250806001600160401b03811115611a4657611a46612cd3565b604051908082528060200260200182016040528015611a6f578160200160208202803683370190505b5091505f5b81811015611b2a575f60098281548110611a9057611a90613071565b905f5260205f20015f9054906101000a90046001600160a01b0316905080858381518110611ac057611ac0613071565b60200260200101906001600160a01b031690816001600160a01b03168152505060085f826001600160a01b03166001600160a01b031681526020019081526020015f2054848381518110611b1657611b16613071565b602090810291909101015250600101611a74565b50509091565b5f61088882610e49565b6001600160a01b039182165f9081527f52c63247e1f47db19d5ce0460030c497f067ca4cebf71ba98eeadabe20bace016020908152604080832093909416825291909152205490565b5f807f237e158222e3e6968b72b9db0d8043aacf074ad9f650f0d1606b4d82ee432c00610de5565b611bb361218b565b7f237e158222e3e6968b72b9db0d8043aacf074ad9f650f0d1606b4d82ee432c0080546001600160a01b0319166001600160a01b0383169081178255611bf7611212565b6001600160a01b03167f38d16b8cac22d99fc7c124b9cd0de2d3fa1faef420bfe791d8c362d765e2270060405160405180910390a35050565b5f610bee8360035484611490565b611c4b8383836001612277565b505050565b5f5f611c7a7f52c63247e1f47db19d5ce0460030c497f067ca4cebf71ba98eeadabe20bace025490565b90505f5f5f9054906101000a90046001600160a01b03166001600160a01b031663b71ee4fc6040518163ffffffff1660e01b8152600401602060405180830381865afa158015611ccc573d5f5f3e3d5ffd5b505050506040513d601f19601f82011682018060405250810190611cf09190613085565b9050611d21611d0082600a613188565b611d0a908461300b565b600354611d1890600161300b565b87919087612201565b95945050505050565b5f51602061336a5f395f51905f52805460011901611d5b57604051633ee5aeb560e01b815260040160405180910390fd5b60029055565b60015f51602061336a5f395f51905f5255565b5f807ff0c57e16840df040f15088dc2f81fe391c3923bec73e23a9662efc9c229c6a00610888565b611da461235b565b6001600160a01b038416611dcb57604051639c6bb9f560e01b815260040160405180910390fd5b6001600160a01b038316611df257604051636a485a5b60e11b815260040160405180910390fd5b611dfc8282612380565b611e64836001600160a01b0316637158da7c6040518163ffffffff1660e01b8152600401602060405180830381865afa158015611e3b573d5f5f3e3d5ffd5b505050506040513d601f19601f82011682018060405250810190611e5f9190613056565b612392565b611e6c6123a3565b611e75846123b3565b611e7d6123c4565b611e856123c4565b5050600280546001600160a01b03199081163317909155600180546001600160a01b039485169083161790555f8054929093169116178155600355565b5f611ecd8484611b3a565b90505f19811015611f205781811015611f1257604051637dc7a0d960e11b81526001600160a01b038416600482015260248101829052604481018390526064016108e9565b611f2084848484035f612277565b50505050565b6001600160a01b038316611f4f57604051634b637e8f60e11b81525f60048201526024016108e9565b6001600160a01b038216611f785760405163ec442f0560e01b81525f60048201526024016108e9565b611c4b8383836123cc565b6001600160a01b038216611fac5760405163ec442f0560e01b81525f60048201526024016108e9565b610e105f83836123cc565b306001600160a01b037f000000000000000000000000000000000000000000000000000000000000000016148061203d57507f00000000000000000000000000000000000000000000000000000000000000006001600160a01b03166120315f51602061334a5f395f51905f52546001600160a01b031690565b6001600160a01b031614155b15610dbf5760405163703e46dd60e11b815260040160405180910390fd5b6001546001600160a01b03163314610a67576040516356b381a560e01b815260040160405180910390fd5b816001600160a01b03166352d1902d6040518163ffffffff1660e01b8152600401602060405180830381865afa9250505080156120e0575060408051601f3d908101601f191682019092526120dd918101906131a9565b60015b61210857604051634c9c8ce360e01b81526001600160a01b03831660048201526024016108e9565b5f51602061334a5f395f51905f52811461213857604051632a87526960e21b8152600481018290526024016108e9565b611c4b8383612505565b306001600160a01b037f00000000000000000000000000000000000000000000000000000000000000001614610dbf5760405163703e46dd60e11b815260040160405180910390fd5b33612194611212565b6001600160a01b031614610dbf5760405163118cdaa760e01b81523360048201526024016108e9565b7f237e158222e3e6968b72b9db0d8043aacf074ad9f650f0d1606b4d82ee432c0080546001600160a01b0319168155610e108261255a565b5f6108888260046125ca565b5f61222e61220e83612678565b801561222957505f8480612224576122246131c0565b868809115b151590565b6122398686866126a4565b611d21919061300b565b6001600160a01b03821661226c57604051634b637e8f60e11b81525f60048201526024016108e9565b610e10825f836123cc565b5f51602061332a5f395f51905f526001600160a01b0385166122ae5760405163e602df0560e01b81525f60048201526024016108e9565b6001600160a01b0384166122d757604051634a1406b160e11b81525f60048201526024016108e9565b6001600160a01b038086165f9081526001830160209081526040808320938816835292905220839055811561235457836001600160a01b0316856001600160a01b03167f8c5be1e5ebec7d5bd14f71427d1e84f3dd0314c0f7b2291e5b200ac8c7c3b9258560405161234b91815260200190565b60405180910390a35b5050505050565b612363612754565b610dbf57604051631afcd79f60e31b815260040160405180910390fd5b61238861235b565b610e10828261276d565b61239a61235b565b610a67816127bd565b6123ab61235b565b610dbf612840565b6123bb61235b565b610a6781612848565b610dbf61235b565b5f51602061332a5f395f51905f526001600160a01b0384166124065781816002015f8282546123fb919061300b565b909155506124769050565b6001600160a01b0384165f90815260208290526040902054828110156124585760405163391434e360e21b81526001600160a01b038616600482015260248101829052604481018490526064016108e9565b6001600160a01b0385165f9081526020839052604090209083900390555b6001600160a01b0383166124945760028101805483900390556124b2565b6001600160a01b0383165f9081526020829052604090208054830190555b826001600160a01b0316846001600160a01b03167fddf252ad1be2c89b69c2b068fc378daa952ba7f163c4a11628f55a4df523b3ef846040516124f791815260200190565b60405180910390a350505050565b61250e82612879565b6040516001600160a01b038316907fbc7cd75a20ee27fd9adebab32041f755214dbc6bffa90cc0225b39da2e5c2d3b905f90a280511561255257611c4b82826128dc565b610e10612945565b7f9016d09d72d40fdae2fd8ceac6b6234c7706214fd39c1cd1e609a0528c19930080546001600160a01b031981166001600160a01b03848116918217845560405192169182907f8be0079c531659141344cd1fd0a4f28419497f9722a3daafe3b4186f6b6457e0905f90a3505050565b5f807fed8d60e34876f751cc8b014c560745351147d9de11b9347c854e881b128ea6006001810154604051631ce2e8d760e31b8152600481018790526001600160f81b031960f887901b1660248201529192506001600160a01b03169063e71746b8906044016020604051808303815f875af115801561264c573d5f5f3e3d5ffd5b505050506040513d601f19601f8201168201806040525081019061267091906131a9565b949350505050565b5f600282600381111561268d5761268d6131d4565b61269791906131e8565b60ff166001149050919050565b5f5f5f6126b18686612964565b91509150815f036126d5578381816126cb576126cb6131c0565b0492505050610bee565b8184116126ec576126ec6003851502601118612980565b5f848688095f868103871696879004966002600389028118808a02820302808a02820302808a02820302808a02820302808a02820302808a02909103029181900381900460010185841190960395909502919093039390930492909217029150509392505050565b5f61275d611d74565b54600160401b900460ff16919050565b61277561235b565b5f51602061332a5f395f51905f527f52c63247e1f47db19d5ce0460030c497f067ca4cebf71ba98eeadabe20bace036127ae8482613259565b5060048101611f208382613259565b6127c561235b565b7f0773e532dfede91f04b12a73d3d2acd361424f41f76b4fb79f090161e36b4e005f806127f184612991565b9150915081612801576012612803565b805b83546001600160a81b031916600160a01b60ff92909216919091026001600160a01b031916176001600160a01b0394909416939093179091555050565b611d6161235b565b61285061235b565b6001600160a01b038116610fd257604051631e4fbdf760e01b81525f60048201526024016108e9565b806001600160a01b03163b5f036128ae57604051634c9c8ce360e01b81526001600160a01b03821660048201526024016108e9565b5f51602061334a5f395f51905f5280546001600160a01b0319166001600160a01b0392909216919091179055565b60605f5f846001600160a01b0316846040516128f89190613313565b5f60405180830381855af49150503d805f8114612930576040519150601f19603f3d011682016040523d82523d5f602084013e612935565b606091505b5091509150611d21858383612a67565b3415610dbf5760405163b398979f60e01b815260040160405180910390fd5b5f805f1983850993909202808410938190039390930393915050565b634e487b715f52806020526024601cfd5b60408051600481526024810182526020810180516001600160e01b031663313ce56760e01b17905290515f918291829182916001600160a01b038716916129d791613313565b5f60405180830381855afa9150503d805f8114612a0f576040519150601f19603f3d011682016040523d82523d5f602084013e612a14565b606091505b5091509150818015612a2857506020815110155b15612a5b575f81806020019051810190612a4291906131a9565b905060ff8111612a59576001969095509350505050565b505b505f9485945092505050565b606082612a7c57612a7782612ac3565b610bee565b8151158015612a9357506001600160a01b0384163b155b15612abc57604051639996b31560e01b81526001600160a01b03851660048201526024016108e9565b5080610bee565b805115612ad35780518082602001fd5b60405163d6bda27560e01b815260040160405180910390fd5b5080545f8255905f5260205f2090810190610a6791905b80821115612b16575f8155600101612b03565b5090565b602081525f82518060208401528060208501604085015e5f604082850101526040601f19601f83011684010191505092915050565b5f60208284031215612b5f575f5ffd5b5035919050565b6001600160a01b0381168114610a67575f5ffd5b5f5f60408385031215612b8b575f5ffd5b8235612b9681612b66565b946020939093013593505050565b5f5f83601f840112612bb4575f5ffd5b5081356001600160401b03811115612bca575f5ffd5b602083019150836020828501011115612be1575f5ffd5b9250929050565b5f5f5f5f5f5f60808789031215612bfd575f5ffd5b8635612c0881612b66565b95506020870135612c1881612b66565b945060408701356001600160401b03811115612c32575f5ffd5b612c3e89828a01612ba4565b90955093505060608701356001600160401b03811115612c5c575f5ffd5b612c6889828a01612ba4565b979a9699509497509295939492505050565b5f5f5f60608486031215612c8c575f5ffd5b8335612c9781612b66565b92506020840135612ca781612b66565b929592945050506040919091013590565b5f60208284031215612cc8575f5ffd5b8135610bee81612b66565b634e487b7160e01b5f52604160045260245ffd5b5f5f60408385031215612cf8575f5ffd5b8235612d0381612b66565b915060208301356001600160401b03811115612d1d575f5ffd5b8301601f81018513612d2d575f5ffd5b80356001600160401b03811115612d4657612d46612cd3565b604051601f8201601f19908116603f011681016001600160401b0381118282101715612d7457612d74612cd3565b604052818152828201602001871015612d8b575f5ffd5b816020840160208301375f602083830101528093505050509250929050565b5f5f60408385031215612dbb575f5ffd5b823591506020830135612dcd81612b66565b809150509250929050565b5f5f83601f840112612de8575f5ffd5b5081356001600160401b03811115612dfe575f5ffd5b6020830191508360208260061b8501011115612be1575f5ffd5b5f5f60208385031215612e29575f5ffd5b82356001600160401b03811115612e3e575f5ffd5b612e4a85828601612dd8565b90969095509350505050565b5f5f5f60408486031215612e68575f5ffd5b83356001600160401b03811115612e7d575f5ffd5b612e8986828701612dd8565b909790965060209590950135949350505050565b5f5f5f60608486031215612eaf575f5ffd5b8335925060208401359150604084013560048110612ecb575f5ffd5b809150509250925092565b5f5f5f60608486031215612ee8575f5ffd5b833592506020840135612efa81612b66565b91506040840135612ecb81612b66565b604080825283519082018190525f9060208501906060840190835b81811015612f4c5783516001600160a01b0316835260209384019390920191600101612f25565b5050838103602080860191909152855180835291810192508501905f5b81811015612f87578251845260209384019390920191600101612f69565b50919695505050505050565b5f5f60408385031215612fa4575f5ffd5b8235612faf81612b66565b91506020830135612dcd81612b66565b600181811c90821680612fd357607f821691505b602082108103612ff157634e487b7160e01b5f52602260045260245ffd5b50919050565b634e487b7160e01b5f52601160045260245ffd5b8082018082111561088857610888612ff7565b5f6020828403121561302e575f5ffd5b81518015158114610bee575f5ffd5b60ff818116838216019081111561088857610888612ff7565b5f60208284031215613066575f5ffd5b8151610bee81612b66565b634e487b7160e01b5f52603260045260245ffd5b5f60208284031215613095575f5ffd5b815160ff81168114610bee575f5ffd5b6001815b60018411156130e0578085048111156130c4576130c4612ff7565b60018416156130d257908102905b60019390931c9280026130a9565b935093915050565b5f826130f657506001610888565b8161310257505f610888565b816001811461311857600281146131225761313e565b6001915050610888565b60ff84111561313357613133612ff7565b50506001821b610888565b5060208310610133831016604e8410600b8410161715613161575081810a610888565b61316d5f1984846130a5565b805f190482111561318057613180612ff7565b029392505050565b5f610bee60ff8416836130e8565b8181038181111561088857610888612ff7565b5f602082840312156131b9575f5ffd5b5051919050565b634e487b7160e01b5f52601260045260245ffd5b634e487b7160e01b5f52602160045260245ffd5b5f60ff83168061320657634e487b7160e01b5f52601260045260245ffd5b8060ff84160691505092915050565b601f821115611c4b57805f5260205f20601f840160051c8101602085101561323a5750805b601f840160051c820191505b81811015612354575f8155600101613246565b81516001600160401b0381111561327257613272612cd3565b613286816132808454612fbf565b84613215565b6020601f8211600181146132b8575f83156132a15750848201515b5f19600385901b1c1916600184901b178455612354565b5f84815260208120601f198516915b828110156132e757878501518255602094850194600190920191016132c7565b508482101561330457868401515f19600387901b60f8161c191681555b50505050600190811b01905550565b5f82518060208501845e5f92019182525091905056fe52c63247e1f47db19d5ce0460030c497f067ca4cebf71ba98eeadabe20bace00360894a13ba1a3210667c828492db98dca3e2076cc3735a920a3ca505d382bbc9b779b17422d0df92223018b32b4d1fa46e071723d6817e2486d003becc55f00a2646970667358221220701fe048155f55538568fe2c3f424dc7f80d4506662a430ba1f5c628bec7d65964736f6c634300081c0033",
  "linkReferences": {},
  "deployedLinkReferences": {}
}