{
  "_format": "hh-sol-artifact-1",
  "contractName": "VaultImplementations",
  "sourceName": "contracts/helpers/VaultImplementations.sol",
  "abi": [
    {
      "inputs": [],
      "stateMutability": "nonpayable",
      "type": "constructor"
    },
    {
      "inputs": [],
      "name": "ENCRYPTED_VAULT_IMPLEMENTATION",
      "outputs": [
        {
          "internalType": "address",
          "name": "",
          "type": "address"
        }
      ],
      "stateMutability": "view",
      "type": "function"
    },
    {
      "inputs": [],
      "name": "TRANSPARENT_VAULT_IMPLEMENTATION",
      "outputs": [
        {
          "internalType": "address",
          "name": "",
          "type": "address"
        }
      ],
      "stateMutability": "view",
      "type": "function"
    }
  ],
  "bytecode": "0x60c0604052348015600e575f5ffd5b506040516019906071565b604051809103905ff0801580156031573d5f5f3e3d5ffd5b506001600160a01b0316608052604051604890607e565b604051809103905ff0801580156060573d5f5f3e3d5ffd5b506001600160a01b031660a052608b565b613c758061017a83390190565b613ee680613def83390190565b60805160a05160d26100a85f395f607a01525f6038015260d25ff3fe6080604052348015600e575f5ffd5b50600436106030575f3560e01c8063292b2f86146034578063fb121699146076575b5f5ffd5b605a7f000000000000000000000000000000000000000000000000000000000000000081565b6040516001600160a01b03909116815260200160405180910390f35b605a7f00000000000000000000000000000000000000000000000000000000000000008156fea2646970667358221220531a3a684242fe4e5e9520d462f51127eff117a61d0195e742d5e520b5c7066064736f6c634300081c003360a0604052306080523480156012575f5ffd5b50608051613c3c6100395f395f81816125fa0152818161262301526127850152613c3c5ff3fe6080604052600436106102bf575f3560e01c806395d89b411161016f578063c63d75b6116100d8578063d5f3948811610092578063e30c39781161006d578063e30c3978146107ae578063e66f53b7146107c2578063ef8b30f7146106cc578063f2fde38b146107e1575f5ffd5b8063d5f3948814610751578063d905777e14610770578063dd62ed3e1461078f575f5ffd5b8063c63d75b61461048b578063c6e6f592146106cc578063cce4705b146106eb578063ce96cb771461070a578063d1699c2614610729578063d3d034581461073d575f5ffd5b8063b3d7f6b911610129578063b3d7f6b91461063e578063b460af941461065d578063b6eba65314610677578063ba0876521461065d578063c0b568e114610699578063c37fc8a8146106b8575f5ffd5b806395d89b4114610589578063a68a52671461059d578063a9059cbb146105bc578063aa9d3a60146105db578063ad3cb1cc146105ef578063b1bd7e2e1461061f575f5ffd5b806338d52e0f1161022b57806370a08231116101e557806379502c55116101c057806379502c551461054357806379ba5097146105615780638da5cb5b1461057557806394bf804d146104d2575f5ffd5b806370a08231146104f1578063715018a614610510578063745400c914610524575f5ffd5b806338d52e0f1461045f578063402d267d1461048b5780634cdad506146103075780634f1ef286146104ab57806352d1902d146104be5780636e553f65146104d2575f5ffd5b8063105444941161027c578063105444941461039557806318160ddd146103b45780632016a0d2146103e757806323b872dd14610406578063313ce5671461042557806333fdc5921461044b575f5ffd5b806301e1d114146102c357806306fdde03146102e657806307a2d13a14610307578063095ea7b3146103265780630a28a477146103555780630d1e666714610374575b5f5ffd5b3480156102ce575f5ffd5b506003545b6040519081526020015b60405180910390f35b3480156102f1575f5ffd5b506102fa610800565b6040516102dd9190613346565b348015610312575f5ffd5b506102d361032136600461337b565b6108c0565b348015610331575f5ffd5b506103456103403660046133a6565b6108d1565b60405190151581526020016102dd565b348015610360575f5ffd5b506102d361036f36600461337b565b6108e8565b34801561037f575f5ffd5b5061039361038e36600461337b565b6108f4565b005b3480156103a0575f5ffd5b506103936103af366004613410565b610b68565b3480156103bf575f5ffd5b507f52c63247e1f47db19d5ce0460030c497f067ca4cebf71ba98eeadabe20bace02546102d3565b3480156103f2575f5ffd5b50610393610401366004613494565b610cd5565b348015610411575f5ffd5b50610345610420366004613526565b610e3b565b348015610430575f5ffd5b50610439610e60565b60405160ff90911681526020016102dd565b348015610456575f5ffd5b50610393610ea2565b34801561046a575f5ffd5b5061047361112c565b6040516001600160a01b0390911681526020016102dd565b348015610496575f5ffd5b506102d36104a5366004613564565b505f1990565b6103936104b9366004613593565b611160565b3480156104c9575f5ffd5b506102d361117f565b3480156104dd575f5ffd5b506102d36104ec366004613656565b61119a565b3480156104fc575f5ffd5b506102d361050b366004613564565b6111b4565b34801561051b575f5ffd5b506103936111da565b34801561052f575f5ffd5b5061039361053e36600461337b565b6111eb565b34801561054e575f5ffd5b505f54610473906001600160a01b031681565b34801561056c575f5ffd5b506103936113ba565b348015610580575f5ffd5b506104736113ff565b348015610594575f5ffd5b506102fa611427565b3480156105a8575f5ffd5b506102d36105b7366004613684565b611465565b3480156105c7575f5ffd5b506103456105d63660046133a6565b61153d565b3480156105e6575f5ffd5b5061039361154a565b3480156105fa575f5ffd5b506102fa604051806040016040528060058152602001640352e302e360dc1b81525081565b34801561062a575f5ffd5b506103936106393660046136bd565b611858565b348015610649575f5ffd5b506102d361065836600461337b565b611b0a565b348015610668575f5ffd5b506102d36104ec3660046136fb565b348015610682575f5ffd5b5061068b611b16565b6040516102dd92919061372f565b3480156106a4575f5ffd5b506103936106b336600461337b565b611c2a565b3480156106c3575f5ffd5b506102d3611dc4565b3480156106d7575f5ffd5b506102d36106e636600461337b565b611e0a565b3480156106f6575f5ffd5b5061039361070536600461337b565b611e15565b348015610715575f5ffd5b506102d3610724366004613564565b611fa4565b348015610734575f5ffd5b506102d3611fb7565b348015610748575f5ffd5b5061068b611ff5565b34801561075c575f5ffd5b50600254610473906001600160a01b031681565b34801561077b575f5ffd5b506102d361078a366004613564565b612103565b34801561079a575f5ffd5b506102d36107a93660046137b8565b61210d565b3480156107b9575f5ffd5b50610473612156565b3480156107cd575f5ffd5b50600154610473906001600160a01b031681565b3480156107ec575f5ffd5b506103936107fb366004613564565b61217e565b7f52c63247e1f47db19d5ce0460030c497f067ca4cebf71ba98eeadabe20bace0380546060915f516020613ba75f395f51905f529161083e906137e4565b80601f016020809104026020016040519081016040528092919081815260200182805461086a906137e4565b80156108b55780601f1061088c576101008083540402835291602001916108b5565b820191905f5260205f20905b81548152906001019060200180831161089857829003601f168201915b505050505091505090565b5f6108cb825f612203565b92915050565b5f336108de818585612211565b5060019392505050565b5f6108cb826001612223565b6108fc6122fd565b805f036109355761090b61112c565b604051636b30633560e01b81526001600160a01b0390911660048201526024015b60405180910390fd5b5f61093e61112c565b6040516370a0823160e01b81523360048201526001600160a01b0391909116906370a0823190602401602060405180830381865afa158015610982573d5f5f3e3d5ffd5b505050506040513d601f19601f820116820180604052508101906109a6919061381c565b9050808211156109cf57338183604051632e2a182f60e11b815260040161092c93929190613833565b5f6109d861112c565b6001600160a01b03166323b872dd335f5f9054906101000a90046001600160a01b03166001600160a01b0316633a0dad8e6040518163ffffffff1660e01b8152600401602060405180830381865afa158015610a36573d5f5f3e3d5ffd5b505050506040513d601f19601f82011682018060405250810190610a5a9190613854565b6040516001600160e01b031960e085901b1681526001600160a01b03928316600482015291166024820152604481018690526064016020604051808303815f875af1158015610aab573d5f5f3e3d5ffd5b505050506040513d601f19601f82011682018060405250810190610acf919061386f565b905080610aef576040516312171d8360e31b815260040160405180910390fd5b5f610afb600433612334565b9150610b16905033610b0d86846138a2565b6004919061235a565b5060405184815233907f08d79f77ab5f78e7e780abb1f7ac9e9923340d5bae78f6e83e7999905b248ea29060200160405180910390a2505050610b6560015f516020613be75f395f51905f5255565b50565b5f5f9054906101000a90046001600160a01b03166001600160a01b0316633a0dad8e6040518163ffffffff1660e01b8152600401602060405180830381865afa158015610bb7573d5f5f3e3d5ffd5b505050506040513d601f19601f82011682018060405250810190610bdb9190613854565b6001600160a01b0316336001600160a01b031614610c0c57604051631af2ab4f60e31b815260040160405180910390fd5b610c16600a61238a565b815f5b81811015610c9657610c8d858583818110610c3657610c366138b5565b610c4c9260206040909202019081019150613564565b868684818110610c5e57610c5e6138b5565b9050604002016020016020810190610c7691906138c9565b63ffffffff16600a61235a9092919063ffffffff16565b50600101610c19565b5060038290556040518281527f5e1ff954b5e5257e9ee5d4cb07059e8f5e69b1aaaf9911e5d8d90a6894de9c219060200160405180910390a150505050565b5f610cde612393565b805490915060ff600160401b82041615906001600160401b03165f81158015610d045750825b90505f826001600160401b03166001148015610d1f5750303b155b905081158015610d2d575080155b15610d4b5760405163f92ee8a960e01b815260040160405180910390fd5b845467ffffffffffffffff191660011785558315610d7557845460ff60401b1916600160401b1785555b610de88b8b8b8b8080601f0160208091040260200160405190810160405280939291908181526020018383808284375f9201919091525050604080516020601f8f018190048102820181019092528d815292508d91508c90819084018382808284375f920191909152506123bb92505050565b8315610e2e57845460ff60401b19168555604051600181527fc7f505b2f371ae2175ee4913f4499e1f2633a7b5936321eed1cdaeb6115181d29060200160405180910390a15b5050505050505050505050565b5f33610e488582856124e1565b610e53858585612532565b60019150505b9392505050565b5f807f0773e532dfede91f04b12a73d3d2acd361424f41f76b4fb79f090161e36b4e0090505f8154610e9c9190600160a01b900460ff166138ec565b91505090565b5f5f9054906101000a90046001600160a01b03166001600160a01b0316633a0dad8e6040518163ffffffff1660e01b8152600401602060405180830381865afa158015610ef1573d5f5f3e3d5ffd5b505050506040513d601f19601f82011682018060405250810190610f159190613854565b6001600160a01b0316336001600160a01b031614610f4657604051631af2ab4f60e31b815260040160405180910390fd5b610f4e6122fd565b5f610f59600461258f565b90505f816001600160401b03811115610f7457610f7461357f565b604051908082528060200260200182016040528015610f9d578160200160208202803683370190505b5090505f826001600160401b03811115610fb957610fb961357f565b604051908082528060200260200182016040528015610fe2578160200160208202803683370190505b5090505f5b8381101561105b575f80610ffc600484612599565b9150915081858481518110611013576110136138b5565b60200260200101906001600160a01b031690816001600160a01b03168152505080848481518110611046576110466138b5565b60209081029190910101525050600101610fe7565b505f5b83811015611110575f838281518110611079576110796138b5565b602002602001015190505f838381518110611096576110966138b5565b602002602001015190505f6110aa82611e0a565b90506110b76004846125a7565b506110c283826125bb565b826001600160a01b03167f85a190caa61692b36b63a55e069330d18ab9af179fed7a25c16a4262bc63b7d2836040516110fd91815260200190565b60405180910390a250505060010161105e565b5050505061112a60015f516020613be75f395f51905f5255565b565b5f807f0773e532dfede91f04b12a73d3d2acd361424f41f76b4fb79f090161e36b4e005b546001600160a01b031692915050565b6111686125ef565b61117182612693565b61117b82826126be565b5050565b5f61118861277a565b505f516020613bc75f395f51905f5290565b5f60405163125ad87760e31b815260040160405180910390fd5b6001600160a01b03165f9081525f516020613ba75f395f51905f52602052604090205490565b6111e26127c3565b61112a5f6127f5565b805f0361120b576040516314e6cbb960e11b815260040160405180910390fd5b5f611215336111b4565b90508082111561123e57338183604051632e2a182f60e11b815260040161092c93929190613833565b5f306001600160a01b03166323b872dd335f5f9054906101000a90046001600160a01b03166001600160a01b0316633a0dad8e6040518163ffffffff1660e01b8152600401602060405180830381865afa15801561129e573d5f5f3e3d5ffd5b505050506040513d601f19601f820116820180604052508101906112c29190613854565b6040516001600160e01b031960e085901b1681526001600160a01b03928316600482015291166024820152604481018690526064016020604051808303815f875af1158015611313573d5f5f3e3d5ffd5b505050506040513d601f19601f82011682018060405250810190611337919061386f565b905080611357576040516312171d8360e31b815260040160405180910390fd5b5f611363600733612334565b915061137e90503361137586846138a2565b6007919061235a565b5060405184815233907ff7774b688d56120b783560a913ee60792a73dfd511812b7be5eccf10d08c66899060200160405180910390a250505050565b33806113c4612156565b6001600160a01b0316146113f65760405163118cdaa760e01b81526001600160a01b038216600482015260240161092c565b610b65816127f5565b5f807f9016d09d72d40fdae2fd8ceac6b6234c7706214fd39c1cd1e609a0528c199300611150565b7f52c63247e1f47db19d5ce0460030c497f067ca4cebf71ba98eeadabe20bace0480546060915f516020613ba75f395f51905f529161083e906137e4565b5f5f61148f7f52c63247e1f47db19d5ce0460030c497f067ca4cebf71ba98eeadabe20bace025490565b90505f5f5f9054906101000a90046001600160a01b03166001600160a01b031663b71ee4fc6040518163ffffffff1660e01b8152600401602060405180830381865afa1580156114e1573d5f5f3e3d5ffd5b505050506040513d601f19601f820116820180604052508101906115059190613905565b90506115336115158660016138a2565b61152083600a613a08565b61152a90856138a2565b8891908761282d565b9695505050505050565b5f336108de818585612532565b5f5f9054906101000a90046001600160a01b03166001600160a01b0316633a0dad8e6040518163ffffffff1660e01b8152600401602060405180830381865afa158015611599573d5f5f3e3d5ffd5b505050506040513d601f19601f820116820180604052508101906115bd9190613854565b6001600160a01b0316336001600160a01b0316146115ee57604051631af2ab4f60e31b815260040160405180910390fd5b6115f66122fd565b5f611601600761258f565b90505f816001600160401b0381111561161c5761161c61357f565b604051908082528060200260200182016040528015611645578160200160208202803683370190505b5090505f826001600160401b038111156116615761166161357f565b60405190808252806020026020018201604052801561168a578160200160208202803683370190505b5090505f5b83811015611703575f806116a4600784612599565b91509150818584815181106116bb576116bb6138b5565b60200260200101906001600160a01b031690816001600160a01b031681525050808484815181106116ee576116ee6138b5565b6020908102919091010152505060010161168f565b505f5b83811015611110575f838281518110611721576117216138b5565b602002602001015190505f83838151811061173e5761173e6138b5565b6020026020010151905061175c8260076125a790919063ffffffff16565b50611767308261286f565b5f611771826108c0565b905061177b61112c565b60405163a9059cbb60e01b81526001600160a01b03858116600483015260248201849052919091169063a9059cbb906044016020604051808303815f875af11580156117c9573d5f5f3e3d5ffd5b505050506040513d601f19601f820116820180604052508101906117ed919061386f565b61180a576040516312171d8360e31b815260040160405180910390fd5b826001600160a01b03167f44b2ff9ffcefe2052a8afdbed44a04bf3db4592ae90c6b96c818bd28573e41e88360405161184591815260200190565b60405180910390a2505050600101611706565b6001546001600160a01b03163314611883576040516356b381a560e01b815260040160405180910390fd5b5f8190036118a457604051631121aa8d60e01b815260040160405180910390fd5b6118ae600d61238a565b5f81815b81811015611a38575f8585838181106118cd576118cd6138b5565b6118e39260206040909202019081019150613564565b90505f8686848181106118f8576118f86138b5565b905060400201602001602081019061191091906138c9565b5f54604051633af32abf60e01b81526001600160a01b038581166004830152929350911690633af32abf90602401602060405180830381865afa158015611959573d5f5f3e3d5ffd5b505050506040513d601f19601f8201168201806040525081019061197d919061386f565b6119a55760405163751dff9760e11b81526001600160a01b038316600482015260240161092c565b8063ffffffff165f036119d657604051636b30633560e01b81526001600160a01b038316600482015260240161092c565b5f6119ec600d8463ffffffff8086169061235a16565b905080611a17576040516346bdabe160e01b81526001600160a01b038416600482015260240161092c565b611a2763ffffffff8316876138a2565b955050600190920191506118b29050565b505f5f5f9054906101000a90046001600160a01b03166001600160a01b031663d1717c7d6040518163ffffffff1660e01b8152600401602060405180830381865afa158015611a89573d5f5f3e3d5ffd5b505050506040513d601f19601f82011682018060405250810190611aad9190613905565b9050611aba81600a613a08565b8314611ad957604051639006dd2760e01b815260040160405180910390fd5b60405133907f2d47a742b8d7df7c1fc5a9a631b206b364e6cb2722490759f63bb3ab14b132e0905f90a25050505050565b5f6108cb826001612203565b6060805f611b24600d61258f565b9050806001600160401b03811115611b3e57611b3e61357f565b604051908082528060200260200182016040528015611b67578160200160208202803683370190505b509250806001600160401b03811115611b8257611b8261357f565b604051908082528060200260200182016040528015611bab578160200160208202803683370190505b5091505f5b81811015611c24575f80611bc5600d84612599565b9150915081868481518110611bdc57611bdc6138b5565b60200260200101906001600160a01b031690816001600160a01b03168152505080858481518110611c0f57611c0f6138b5565b60209081029190910101525050600101611bb0565b50509091565b611c326122fd565b805f03611c415761090b61112c565b5f611c4d600433612334565b91505081811015611c71576040516332194fd360e21b815260040160405180910390fd5b5f5f9054906101000a90046001600160a01b03166001600160a01b0316633a0dad8e6040518163ffffffff1660e01b8152600401602060405180830381865afa158015611cc0573d5f5f3e3d5ffd5b505050506040513d601f19601f82011682018060405250810190611ce49190613854565b6040516351edffb160e01b8152336004820152602481018490526001600160a01b0391909116906351edffb1906044015f604051808303815f87803b158015611d2b575f5ffd5b505af1158015611d3d573d5f5f3e3d5ffd5b505050505f8282611d4e9190613a16565b9050805f03611d6857611d626004336125a7565b50611d76565b611d746004338361235a565b505b60405183815233907f96a9a6886cdf3047a125454218a23d3961fd3a78643123b248a9d106d0ac94fd906020015b60405180910390a25050610b6560015f516020613be75f395f51905f5255565b5f8080611dd1600761258f565b90505f5b81811015611e02575f611de9600783612599565b9150611df7905081856138a2565b935050600101611dd5565b509092915050565b5f6108cb825f612223565b611e1d6122fd565b805f03611e3d576040516314e6cbb960e11b815260040160405180910390fd5b5f611e49600733612334565b91505081811015611e6d576040516312ea1f4960e11b815260040160405180910390fd5b5f5f9054906101000a90046001600160a01b03166001600160a01b0316633a0dad8e6040518163ffffffff1660e01b8152600401602060405180830381865afa158015611ebc573d5f5f3e3d5ffd5b505050506040513d601f19601f82011682018060405250810190611ee09190613854565b6040516305f0c35960e51b8152336004820152602481018490526001600160a01b03919091169063be186b20906044015f604051808303815f87803b158015611f27575f5ffd5b505af1158015611f39573d5f5f3e3d5ffd5b505050505f8282611f4a9190613a16565b9050805f03611f6457611f5e6007336125a7565b50611f72565b611f706007338361235a565b505b60405183815233907f9cf37535785001dcc9767688232fcbc8698b3002d1207b50bc2afec3ff8934dc90602001611da4565b5f6108cb611fb1836111b4565b5f612203565b5f8080611fc4600461258f565b90505f5b81811015611e02575f611fdc600483612599565b9150611fea905081856138a2565b935050600101611fc8565b6060805f612003600a61258f565b9050806001600160401b0381111561201d5761201d61357f565b604051908082528060200260200182016040528015612046578160200160208202803683370190505b509250806001600160401b038111156120615761206161357f565b60405190808252806020026020018201604052801561208a578160200160208202803683370190505b5091505f5b81811015611c24575f806120a4600a84612599565b91509150818684815181106120bb576120bb6138b5565b60200260200101906001600160a01b031690816001600160a01b031681525050808584815181106120ee576120ee6138b5565b6020908102919091010152505060010161208f565b5f6108cb826111b4565b6001600160a01b039182165f9081527f52c63247e1f47db19d5ce0460030c497f067ca4cebf71ba98eeadabe20bace016020908152604080832093909416825291909152205490565b5f807f237e158222e3e6968b72b9db0d8043aacf074ad9f650f0d1606b4d82ee432c00611150565b6121866127c3565b7f237e158222e3e6968b72b9db0d8043aacf074ad9f650f0d1606b4d82ee432c0080546001600160a01b0319166001600160a01b03831690811782556121ca6113ff565b6001600160a01b03167f38d16b8cac22d99fc7c124b9cd0de2d3fa1faef420bfe791d8c362d765e2270060405160405180910390a35050565b5f610e598360035484611465565b61221e83838360016128a3565b505050565b5f5f61224d7f52c63247e1f47db19d5ce0460030c497f067ca4cebf71ba98eeadabe20bace025490565b90505f5f5f9054906101000a90046001600160a01b03166001600160a01b031663b71ee4fc6040518163ffffffff1660e01b8152600401602060405180830381865afa15801561229f573d5f5f3e3d5ffd5b505050506040513d601f19601f820116820180604052508101906122c39190613905565b90506122f46122d382600a613a08565b6122dd90846138a2565b6003546122eb9060016138a2565b8791908761282d565b95945050505050565b5f516020613be75f395f51905f5280546001190161232e57604051633ee5aeb560e01b815260040160405180910390fd5b60029055565b5f80808061234b866001600160a01b038716612987565b909450925050505b9250929050565b5f61236f846001600160a01b038516846129bf565b949350505050565b60015f516020613be75f395f51905f5255565b610b65816129db565b5f807ff0c57e16840df040f15088dc2f81fe391c3923bec73e23a9662efc9c229c6a006108cb565b6123c3612a24565b6001600160a01b0384166123ea57604051639c6bb9f560e01b815260040160405180910390fd5b6001600160a01b03831661241157604051636a485a5b60e11b815260040160405180910390fd5b61241b8282612a49565b612483836001600160a01b0316637158da7c6040518163ffffffff1660e01b8152600401602060405180830381865afa15801561245a573d5f5f3e3d5ffd5b505050506040513d601f19601f8201168201806040525081019061247e9190613854565b612a5b565b61248b612a6c565b61249484612a7c565b61249c612a8d565b6124a4612a8d565b5050600280546001600160a01b03199081163317909155600180546001600160a01b039485169083161790555f8054929093169116178155600355565b5f6124ec848461210d565b90505f1981101561252c578181101561251e57828183604051637dc7a0d960e11b815260040161092c93929190613833565b61252c84848484035f6128a3565b50505050565b6001600160a01b03831661255b57604051634b637e8f60e11b81525f600482015260240161092c565b6001600160a01b0382166125845760405163ec442f0560e01b81525f600482015260240161092c565b61221e838383612a95565b5f6108cb82612bbb565b5f80808061234b8686612bc5565b5f610e59836001600160a01b038416612bee565b6001600160a01b0382166125e45760405163ec442f0560e01b81525f600482015260240161092c565b61117b5f8383612a95565b306001600160a01b037f000000000000000000000000000000000000000000000000000000000000000016148061267557507f00000000000000000000000000000000000000000000000000000000000000006001600160a01b03166126695f516020613bc75f395f51905f52546001600160a01b031690565b6001600160a01b031614155b1561112a5760405163703e46dd60e11b815260040160405180910390fd5b6001546001600160a01b03163314610b65576040516356b381a560e01b815260040160405180910390fd5b816001600160a01b03166352d1902d6040518163ffffffff1660e01b8152600401602060405180830381865afa925050508015612718575060408051601f3d908101601f191682019092526127159181019061381c565b60015b61274057604051634c9c8ce360e01b81526001600160a01b038316600482015260240161092c565b5f516020613bc75f395f51905f52811461277057604051632a87526960e21b81526004810182905260240161092c565b61221e8383612c0a565b306001600160a01b037f0000000000000000000000000000000000000000000000000000000000000000161461112a5760405163703e46dd60e11b815260040160405180910390fd5b336127cc6113ff565b6001600160a01b03161461112a5760405163118cdaa760e01b815233600482015260240161092c565b7f237e158222e3e6968b72b9db0d8043aacf074ad9f650f0d1606b4d82ee432c0080546001600160a01b031916815561117b82612c5f565b5f61285a61283a83612ccf565b801561285557505f848061285057612850613a29565b868809115b151590565b612865868686612cfb565b6122f491906138a2565b6001600160a01b03821661289857604051634b637e8f60e11b81525f600482015260240161092c565b61117b825f83612a95565b5f516020613ba75f395f51905f526001600160a01b0385166128da5760405163e602df0560e01b81525f600482015260240161092c565b6001600160a01b03841661290357604051634a1406b160e11b81525f600482015260240161092c565b6001600160a01b038086165f9081526001830160209081526040808320938816835292905220839055811561298057836001600160a01b0316856001600160a01b03167f8c5be1e5ebec7d5bd14f71427d1e84f3dd0314c0f7b2291e5b200ac8c7c3b9258560405161297791815260200190565b60405180910390a35b5050505050565b5f8181526002830160205260408120548190806129b4576129a88585612dab565b92505f91506123539050565b600192509050612353565b5f828152600284016020526040812082905561236f8484612db6565b5f6129e582612bbb565b90505f5b81811015612a1a57600283015f612a008584612dc1565b815260208101919091526040015f908120556001016129e9565b5061117b82612dcc565b612a2c612dd5565b61112a57604051631afcd79f60e31b815260040160405180910390fd5b612a51612a24565b61117b8282612dee565b612a63612a24565b610b6581612e3e565b612a74612a24565b61112a612ec1565b612a84612a24565b610b6581612ec9565b61112a612a24565b5f516020613ba75f395f51905f526001600160a01b038416612acf5781816002015f828254612ac491906138a2565b90915550612b2c9050565b6001600160a01b0384165f9081526020829052604090205482811015612b0e5784818460405163391434e360e21b815260040161092c93929190613833565b6001600160a01b0385165f9081526020839052604090209083900390555b6001600160a01b038316612b4a576002810180548390039055612b68565b6001600160a01b0383165f9081526020829052604090208054830190555b826001600160a01b0316846001600160a01b03167fddf252ad1be2c89b69c2b068fc378daa952ba7f163c4a11628f55a4df523b3ef84604051612bad91815260200190565b60405180910390a350505050565b5f6108cb82612efa565b5f8080612bd28585612dc1565b5f81815260029690960160205260409095205494959350505050565b5f8181526002830160205260408120819055610e598383612f03565b612c1382612f0e565b6040516001600160a01b038316907fbc7cd75a20ee27fd9adebab32041f755214dbc6bffa90cc0225b39da2e5c2d3b905f90a2805115612c575761221e8282612f71565b61117b612fda565b7f9016d09d72d40fdae2fd8ceac6b6234c7706214fd39c1cd1e609a0528c19930080546001600160a01b031981166001600160a01b03848116918217845560405192169182907f8be0079c531659141344cd1fd0a4f28419497f9722a3daafe3b4186f6b6457e0905f90a3505050565b5f6002826003811115612ce457612ce4613a3d565b612cee9190613a51565b60ff166001149050919050565b5f5f5f612d088686612ff9565b91509150815f03612d2c57838181612d2257612d22613a29565b0492505050610e59565b818411612d4357612d436003851502601118613015565b5f848688095f868103871696879004966002600389028118808a02820302808a02820302808a02820302808a02820302808a02820302808a02909103029181900381900460010185841190960395909502919093039390930492909217029150509392505050565b5f610e598383613026565b5f610e59838361303d565b5f610e598383613089565b610b65816130af565b5f612dde612393565b54600160401b900460ff16919050565b612df6612a24565b5f516020613ba75f395f51905f527f52c63247e1f47db19d5ce0460030c497f067ca4cebf71ba98eeadabe20bace03612e2f8482613ac2565b506004810161252c8382613ac2565b612e46612a24565b7f0773e532dfede91f04b12a73d3d2acd361424f41f76b4fb79f090161e36b4e005f80612e7284613108565b9150915081612e82576012612e84565b805b83546001600160a81b031916600160a01b60ff92909216919091026001600160a01b031916176001600160a01b0394909416939093179091555050565b612377612a24565b612ed1612a24565b6001600160a01b0381166113f657604051631e4fbdf760e01b81525f600482015260240161092c565b5f6108cb825490565b5f610e5983836131de565b806001600160a01b03163b5f03612f4357604051634c9c8ce360e01b81526001600160a01b038216600482015260240161092c565b5f516020613bc75f395f51905f5280546001600160a01b0319166001600160a01b0392909216919091179055565b60605f5f846001600160a01b031684604051612f8d9190613b7c565b5f60405180830381855af49150503d805f8114612fc5576040519150601f19603f3d011682016040523d82523d5f602084013e612fca565b606091505b50915091506122f48583836132c1565b341561112a5760405163b398979f60e01b815260040160405180910390fd5b5f805f1983850993909202808410938190039390930393915050565b634e487b715f52806020526024601cfd5b5f8181526001830160205260408120541515610e59565b5f81815260018301602052604081205461308257508154600181810184555f8481526020808220909301849055845484825282860190935260409020919091556108cb565b505f6108cb565b5f825f01828154811061309e5761309e6138b5565b905f5260205f200154905092915050565b5f6130b8825490565b90505f5b8181101561310157826001015f845f0183815481106130dd576130dd6138b5565b905f5260205f20015481526020019081526020015f205f90558060010190506130bc565b50505f9055565b60408051600481526024810182526020810180516001600160e01b031663313ce56760e01b17905290515f918291829182916001600160a01b0387169161314e91613b7c565b5f60405180830381855afa9150503d805f8114613186576040519150601f19603f3d011682016040523d82523d5f602084013e61318b565b606091505b509150915081801561319f57506020815110155b156131d2575f818060200190518101906131b9919061381c565b905060ff81116131d0576001969095509350505050565b505b505f9485945092505050565b5f81815260018301602052604081205480156132b8575f613200600183613a16565b85549091505f9061321390600190613a16565b9050808214613272575f865f018281548110613231576132316138b5565b905f5260205f200154905080875f018481548110613251576132516138b5565b5f918252602080832090910192909255918252600188019052604090208390555b855486908061328357613283613b92565b600190038181905f5260205f20015f90559055856001015f8681526020019081526020015f205f9055600193505050506108cb565b5f9150506108cb565b6060826132d6576132d18261331d565b610e59565b81511580156132ed57506001600160a01b0384163b155b1561331657604051639996b31560e01b81526001600160a01b038516600482015260240161092c565b5080610e59565b80511561332d5780518082602001fd5b60405163d6bda27560e01b815260040160405180910390fd5b602081525f82518060208401528060208501604085015e5f604082850101526040601f19601f83011684010191505092915050565b5f6020828403121561338b575f5ffd5b5035919050565b6001600160a01b0381168114610b65575f5ffd5b5f5f604083850312156133b7575f5ffd5b82356133c281613392565b946020939093013593505050565b5f5f83601f8401126133e0575f5ffd5b5081356001600160401b038111156133f6575f5ffd5b6020830191508360208260061b8501011115612353575f5ffd5b5f5f5f60408486031215613422575f5ffd5b83356001600160401b03811115613437575f5ffd5b613443868287016133d0565b909790965060209590950135949350505050565b5f5f83601f840112613467575f5ffd5b5081356001600160401b0381111561347d575f5ffd5b602083019150836020828501011115612353575f5ffd5b5f5f5f5f5f5f608087890312156134a9575f5ffd5b86356134b481613392565b955060208701356134c481613392565b945060408701356001600160401b038111156134de575f5ffd5b6134ea89828a01613457565b90955093505060608701356001600160401b03811115613508575f5ffd5b61351489828a01613457565b979a9699509497509295939492505050565b5f5f5f60608486031215613538575f5ffd5b833561354381613392565b9250602084013561355381613392565b929592945050506040919091013590565b5f60208284031215613574575f5ffd5b8135610e5981613392565b634e487b7160e01b5f52604160045260245ffd5b5f5f604083850312156135a4575f5ffd5b82356135af81613392565b915060208301356001600160401b038111156135c9575f5ffd5b8301601f810185136135d9575f5ffd5b80356001600160401b038111156135f2576135f261357f565b604051601f8201601f19908116603f011681016001600160401b03811182821017156136205761362061357f565b604052818152828201602001871015613637575f5ffd5b816020840160208301375f602083830101528093505050509250929050565b5f5f60408385031215613667575f5ffd5b82359150602083013561367981613392565b809150509250929050565b5f5f5f60608486031215613696575f5ffd5b83359250602084013591506040840135600481106136b2575f5ffd5b809150509250925092565b5f5f602083850312156136ce575f5ffd5b82356001600160401b038111156136e3575f5ffd5b6136ef858286016133d0565b90969095509350505050565b5f5f5f6060848603121561370d575f5ffd5b83359250602084013561371f81613392565b915060408401356136b281613392565b604080825283519082018190525f9060208501906060840190835b818110156137715783516001600160a01b031683526020938401939092019160010161374a565b5050838103602080860191909152855180835291810192508501905f5b818110156137ac57825184526020938401939092019160010161378e565b50919695505050505050565b5f5f604083850312156137c9575f5ffd5b82356137d481613392565b9150602083013561367981613392565b600181811c908216806137f857607f821691505b60208210810361381657634e487b7160e01b5f52602260045260245ffd5b50919050565b5f6020828403121561382c575f5ffd5b5051919050565b6001600160a01b039390931683526020830191909152604082015260600190565b5f60208284031215613864575f5ffd5b8151610e5981613392565b5f6020828403121561387f575f5ffd5b81518015158114610e59575f5ffd5b634e487b7160e01b5f52601160045260245ffd5b808201808211156108cb576108cb61388e565b634e487b7160e01b5f52603260045260245ffd5b5f602082840312156138d9575f5ffd5b813563ffffffff81168114610e59575f5ffd5b60ff81811683821601908111156108cb576108cb61388e565b5f60208284031215613915575f5ffd5b815160ff81168114610e59575f5ffd5b6001815b6001841115613960578085048111156139445761394461388e565b600184161561395257908102905b60019390931c928002613929565b935093915050565b5f82613976575060016108cb565b8161398257505f6108cb565b816001811461399857600281146139a2576139be565b60019150506108cb565b60ff8411156139b3576139b361388e565b50506001821b6108cb565b5060208310610133831016604e8410600b84101617156139e1575081810a6108cb565b6139ed5f198484613925565b805f1904821115613a0057613a0061388e565b029392505050565b5f610e5960ff841683613968565b818103818111156108cb576108cb61388e565b634e487b7160e01b5f52601260045260245ffd5b634e487b7160e01b5f52602160045260245ffd5b5f60ff831680613a6f57634e487b7160e01b5f52601260045260245ffd5b8060ff84160691505092915050565b601f82111561221e57805f5260205f20601f840160051c81016020851015613aa35750805b601f840160051c820191505b81811015612980575f8155600101613aaf565b81516001600160401b03811115613adb57613adb61357f565b613aef81613ae984546137e4565b84613a7e565b6020601f821160018114613b21575f8315613b0a5750848201515b5f19600385901b1c1916600184901b178455612980565b5f84815260208120601f198516915b82811015613b505787850151825560209485019460019092019101613b30565b5084821015613b6d57868401515f19600387901b60f8161c191681555b50505050600190811b01905550565b5f82518060208501845e5f920191825250919050565b634e487b7160e01b5f52603160045260245ffdfe52c63247e1f47db19d5ce0460030c497f067ca4cebf71ba98eeadabe20bace00360894a13ba1a3210667c828492db98dca3e2076cc3735a920a3ca505d382bbc9b779b17422d0df92223018b32b4d1fa46e071723d6817e2486d003becc55f00a2646970667358221220c3b20ab907b9365f59c243c170ea41456755fafbdad1413ac017eeabc91a77d864736f6c634300081c003360a0604052306080523480156012575f5ffd5b50608051613ead6100395f395f818161276d0152818161279601526128f80152613ead5ff3fe6080604052600436106102bf575f3560e01c806395d89b411161016f578063c63d75b6116100d8578063d5f3948811610092578063e30c39781161006d578063e30c3978146107ae578063e66f53b7146107c2578063ef8b30f7146106cc578063f2fde38b146107e1575f5ffd5b8063d5f3948814610751578063d905777e14610770578063dd62ed3e1461078f575f5ffd5b8063c63d75b61461046c578063c6e6f592146106cc578063cce4705b146106eb578063ce96cb771461070a578063d1699c2614610729578063d3d034581461073d575f5ffd5b8063b3d7f6b911610129578063b3d7f6b91461063e578063b460af941461065d578063b6eba65314610677578063ba0876521461065d578063c0b568e114610699578063c37fc8a8146106b8575f5ffd5b806395d89b4114610589578063985ba4ae1461059d578063a68a5267146105bc578063a9059cbb146105db578063aa9d3a60146105fa578063ad3cb1cc1461060e575f5ffd5b8063402d267d1161022b578063715018a6116101e557806379ba5097116101c057806379ba5097146105425780637f5fc5f9146105565780638da5cb5b1461057557806394bf804d146104b3575f5ffd5b8063715018a6146104f1578063745400c91461050557806379502c5514610524575f5ffd5b8063402d267d1461046c5780634cdad506146103075780634f1ef2861461048c57806352d1902d1461049f5780636e553f65146104b357806370a08231146104d2575f5ffd5b806318160ddd1161027c57806318160ddd146103955780632016a0d2146103c857806323b872dd146103e7578063313ce5671461040657806333fdc5921461042c57806338d52e0f14610440575f5ffd5b806301e1d114146102c357806306fdde03146102e657806307a2d13a14610307578063095ea7b3146103265780630a28a477146103555780630d1e666714610374575b5f5ffd5b3480156102ce575f5ffd5b506003545b6040519081526020015b60405180910390f35b3480156102f1575f5ffd5b506102fa610800565b6040516102dd91906135da565b348015610312575f5ffd5b506102d361032136600461360f565b6108c0565b348015610331575f5ffd5b5061034561034036600461363a565b6108d1565b60405190151581526020016102dd565b348015610360575f5ffd5b506102d361036f36600461360f565b6108e8565b34801561037f575f5ffd5b5061039361038e36600461360f565b6108f4565b005b3480156103a0575f5ffd5b507f52c63247e1f47db19d5ce0460030c497f067ca4cebf71ba98eeadabe20bace02546102d3565b3480156103d3575f5ffd5b506103936103e23660046136a1565b610b68565b3480156103f2575f5ffd5b50610345610401366004613733565b610cce565b348015610411575f5ffd5b5061041a610cf3565b60405160ff90911681526020016102dd565b348015610437575f5ffd5b50610393610d35565b34801561044b575f5ffd5b50610454610fbf565b6040516001600160a01b0390911681526020016102dd565b348015610477575f5ffd5b506102d3610486366004613771565b505f1990565b61039361049a3660046137a0565b610ff3565b3480156104aa575f5ffd5b506102d3611012565b3480156104be575f5ffd5b506102d36104cd366004613863565b61102d565b3480156104dd575f5ffd5b506102d36104ec366004613771565b611047565b3480156104fc575f5ffd5b5061039361106d565b348015610510575f5ffd5b5061039361051f36600461360f565b61107e565b34801561052f575f5ffd5b505f54610454906001600160a01b031681565b34801561054d575f5ffd5b5061039361124d565b348015610561575f5ffd5b506103936105703660046138d1565b611292565b348015610580575f5ffd5b5061045461158e565b348015610594575f5ffd5b506102fa6115b6565b3480156105a8575f5ffd5b506103936105b736600461390f565b6115f4565b3480156105c7575f5ffd5b506102d36105d6366004613956565b61180c565b3480156105e6575f5ffd5b506103456105f536600461363a565b6118e4565b348015610605575f5ffd5b506103936118f1565b348015610619575f5ffd5b506102fa604051806040016040528060058152602001640352e302e360dc1b81525081565b348015610649575f5ffd5b506102d361065836600461360f565b611bff565b348015610668575f5ffd5b506102d36104cd36600461398f565b348015610682575f5ffd5b5061068b611c0b565b6040516102dd9291906139c3565b3480156106a4575f5ffd5b506103936106b336600461360f565b611d6c565b3480156106c3575f5ffd5b506102d3611f06565b3480156106d7575f5ffd5b506102d36106e636600461360f565b611f4c565b3480156106f6575f5ffd5b5061039361070536600461360f565b611f57565b348015610715575f5ffd5b506102d3610724366004613771565b6120e6565b348015610734575f5ffd5b506102d36120f9565b348015610748575f5ffd5b5061068b612137565b34801561075c575f5ffd5b50600254610454906001600160a01b031681565b34801561077b575f5ffd5b506102d361078a366004613771565b61227f565b34801561079a575f5ffd5b506102d36107a9366004613a4c565b612289565b3480156107b9575f5ffd5b506104546122d2565b3480156107cd575f5ffd5b50600154610454906001600160a01b031681565b3480156107ec575f5ffd5b506103936107fb366004613771565b6122fa565b7f52c63247e1f47db19d5ce0460030c497f067ca4cebf71ba98eeadabe20bace0380546060915f516020613e185f395f51905f529161083e90613a78565b80601f016020809104026020016040519081016040528092919081815260200182805461086a90613a78565b80156108b55780601f1061088c576101008083540402835291602001916108b5565b820191905f5260205f20905b81548152906001019060200180831161089857829003601f168201915b505050505091505090565b5f6108cb825f61237f565b92915050565b5f336108de81858561238d565b5060019392505050565b5f6108cb82600161239f565b6108fc612479565b805f036109355761090b610fbf565b604051636b30633560e01b81526001600160a01b0390911660048201526024015b60405180910390fd5b5f61093e610fbf565b6040516370a0823160e01b81523360048201526001600160a01b0391909116906370a0823190602401602060405180830381865afa158015610982573d5f5f3e3d5ffd5b505050506040513d601f19601f820116820180604052508101906109a69190613ab0565b9050808211156109cf57338183604051632e2a182f60e11b815260040161092c93929190613ac7565b5f6109d8610fbf565b6001600160a01b03166323b872dd335f5f9054906101000a90046001600160a01b03166001600160a01b0316633a0dad8e6040518163ffffffff1660e01b8152600401602060405180830381865afa158015610a36573d5f5f3e3d5ffd5b505050506040513d601f19601f82011682018060405250810190610a5a9190613ae8565b6040516001600160e01b031960e085901b1681526001600160a01b03928316600482015291166024820152604481018690526064016020604051808303815f875af1158015610aab573d5f5f3e3d5ffd5b505050506040513d601f19601f82011682018060405250810190610acf9190613b03565b905080610aef576040516312171d8360e31b815260040160405180910390fd5b5f610afb6004336124b0565b9150610b16905033610b0d8684613b36565b600491906124d6565b5060405184815233907f08d79f77ab5f78e7e780abb1f7ac9e9923340d5bae78f6e83e7999905b248ea29060200160405180910390a2505050610b6560015f516020613e585f395f51905f5255565b50565b5f610b71612506565b805490915060ff600160401b82041615906001600160401b03165f81158015610b975750825b90505f826001600160401b03166001148015610bb25750303b155b905081158015610bc0575080155b15610bde5760405163f92ee8a960e01b815260040160405180910390fd5b845467ffffffffffffffff191660011785558315610c0857845460ff60401b1916600160401b1785555b610c7b8b8b8b8b8080601f0160208091040260200160405190810160405280939291908181526020018383808284375f9201919091525050604080516020601f8f018190048102820181019092528d815292508d91508c90819084018382808284375f9201919091525061252e92505050565b8315610cc157845460ff60401b19168555604051600181527fc7f505b2f371ae2175ee4913f4499e1f2633a7b5936321eed1cdaeb6115181d29060200160405180910390a15b5050505050505050505050565b5f33610cdb858285612654565b610ce68585856126a5565b60019150505b9392505050565b5f807f0773e532dfede91f04b12a73d3d2acd361424f41f76b4fb79f090161e36b4e0090505f8154610d2f9190600160a01b900460ff16613b49565b91505090565b5f5f9054906101000a90046001600160a01b03166001600160a01b0316633a0dad8e6040518163ffffffff1660e01b8152600401602060405180830381865afa158015610d84573d5f5f3e3d5ffd5b505050506040513d601f19601f82011682018060405250810190610da89190613ae8565b6001600160a01b0316336001600160a01b031614610dd957604051631af2ab4f60e31b815260040160405180910390fd5b610de1612479565b5f610dec6004612702565b90505f816001600160401b03811115610e0757610e0761378c565b604051908082528060200260200182016040528015610e30578160200160208202803683370190505b5090505f826001600160401b03811115610e4c57610e4c61378c565b604051908082528060200260200182016040528015610e75578160200160208202803683370190505b5090505f5b83811015610eee575f80610e8f60048461270c565b9150915081858481518110610ea657610ea6613b62565b60200260200101906001600160a01b031690816001600160a01b03168152505080848481518110610ed957610ed9613b62565b60209081029190910101525050600101610e7a565b505f5b83811015610fa3575f838281518110610f0c57610f0c613b62565b602002602001015190505f838381518110610f2957610f29613b62565b602002602001015190505f610f3d82611f4c565b9050610f4a60048461271a565b50610f55838261272e565b826001600160a01b03167f85a190caa61692b36b63a55e069330d18ab9af179fed7a25c16a4262bc63b7d283604051610f9091815260200190565b60405180910390a2505050600101610ef1565b50505050610fbd60015f516020613e585f395f51905f5255565b565b5f807f0773e532dfede91f04b12a73d3d2acd361424f41f76b4fb79f090161e36b4e005b546001600160a01b031692915050565b610ffb612762565b61100482612806565b61100e8282612831565b5050565b5f61101b6128ed565b505f516020613e385f395f51905f5290565b5f60405163125ad87760e31b815260040160405180910390fd5b6001600160a01b03165f9081525f516020613e185f395f51905f52602052604090205490565b611075612936565b610fbd5f612968565b805f0361109e576040516314e6cbb960e11b815260040160405180910390fd5b5f6110a833611047565b9050808211156110d157338183604051632e2a182f60e11b815260040161092c93929190613ac7565b5f306001600160a01b03166323b872dd335f5f9054906101000a90046001600160a01b03166001600160a01b0316633a0dad8e6040518163ffffffff1660e01b8152600401602060405180830381865afa158015611131573d5f5f3e3d5ffd5b505050506040513d601f19601f820116820180604052508101906111559190613ae8565b6040516001600160e01b031960e085901b1681526001600160a01b03928316600482015291166024820152604481018690526064016020604051808303815f875af11580156111a6573d5f5f3e3d5ffd5b505050506040513d601f19601f820116820180604052508101906111ca9190613b03565b9050806111ea576040516312171d8360e31b815260040160405180910390fd5b5f6111f66007336124b0565b91506112119050336112088684613b36565b600791906124d6565b5060405184815233907ff7774b688d56120b783560a913ee60792a73dfd511812b7be5eccf10d08c66899060200160405180910390a250505050565b33806112576122d2565b6001600160a01b0316146112895760405163118cdaa760e01b81526001600160a01b038216600482015260240161092c565b610b6581612968565b6001546001600160a01b031633146112bd576040516356b381a560e01b815260040160405180910390fd5b5f8190036112de57604051631121aa8d60e01b815260040160405180910390fd5b5f6112e85f6129a0565b600d549091505f5b8181101561133b5782600c5f600d848154811061130f5761130f613b62565b5f9182526020808320909101546001600160a01b031683528201929092526040019020556001016112f0565b50611347600d5f6135ac565b81835f5b818110156114fd575f87878381811061136657611366613b62565b61137c9260206040909202019081019150613771565b90505f88888481811061139157611391613b62565b5f5460408051633af32abf60e01b81526001600160a01b03888116600483015293909102949094016020013594501691633af32abf9150602401602060405180830381865afa1580156113e6573d5f5f3e3d5ffd5b505050506040513d601f19601f8201168201806040525081019061140a9190613b03565b6114325760405163751dff9760e11b81526001600160a01b038316600482015260240161092c565b6001600160a01b0382165f908152600e602052604090205460ff1615611476576040516346bdabe160e01b81526001600160a01b038316600482015260240161092c565b6001600160a01b0382165f818152600e60209081526040808320805460ff19166001908117909155600c9092528220849055600d805491820181559091527fd7b6990105719101dabeb77144f2a3385c8033acd3af97e9423a695e81ad1eb50180546001600160a01b03191690911790556114f185826129ac565b9450505060010161134b565b505f5b8181101561155b57600e5f88888481811061151d5761151d613b62565b6115339260206040909202019081019150613771565b6001600160a01b0316815260208101919091526040015f20805460ff19169055600101611500565b5060405133907f2d47a742b8d7df7c1fc5a9a631b206b364e6cb2722490759f63bb3ab14b132e0905f90a2505050505050565b5f807f9016d09d72d40fdae2fd8ceac6b6234c7706214fd39c1cd1e609a0528c199300610fe3565b7f52c63247e1f47db19d5ce0460030c497f067ca4cebf71ba98eeadabe20bace0480546060915f516020613e185f395f51905f529161083e90613a78565b5f5f9054906101000a90046001600160a01b03166001600160a01b0316633a0dad8e6040518163ffffffff1660e01b8152600401602060405180830381865afa158015611643573d5f5f3e3d5ffd5b505050506040513d601f19601f820116820180604052508101906116679190613ae8565b6001600160a01b0316336001600160a01b03161461169857604051631af2ab4f60e31b815260040160405180910390fd5b5f6116a25f6129a0565b600b549091505f5b818110156116f55782600a5f600b84815481106116c9576116c9613b62565b5f9182526020808320909101546001600160a01b031683528201929092526040019020556001016116aa565b50611701600b5f6135ac565b5f5b818110156117cc5785858281811061171d5761171d613b62565b90506040020160200135600a5f88888581811061173c5761173c613b62565b6117529260206040909202019081019150613771565b6001600160a01b0316815260208101919091526040015f2055600b86868381811061177f5761177f613b62565b6117959260206040909202019081019150613771565b8154600180820184555f93845260209093200180546001600160a01b0319166001600160a01b039290921691909117905501611703565b5060038390556040518381527f5e1ff954b5e5257e9ee5d4cb07059e8f5e69b1aaaf9911e5d8d90a6894de9c219060200160405180910390a15050505050565b5f5f6118367f52c63247e1f47db19d5ce0460030c497f067ca4cebf71ba98eeadabe20bace025490565b90505f5f5f9054906101000a90046001600160a01b03166001600160a01b031663b71ee4fc6040518163ffffffff1660e01b8152600401602060405180830381865afa158015611888573d5f5f3e3d5ffd5b505050506040513d601f19601f820116820180604052508101906118ac9190613b76565b90506118da6118bc866001613b36565b6118c783600a613c79565b6118d19085613b36565b889190876129da565b9695505050505050565b5f336108de8185856126a5565b5f5f9054906101000a90046001600160a01b03166001600160a01b0316633a0dad8e6040518163ffffffff1660e01b8152600401602060405180830381865afa158015611940573d5f5f3e3d5ffd5b505050506040513d601f19601f820116820180604052508101906119649190613ae8565b6001600160a01b0316336001600160a01b03161461199557604051631af2ab4f60e31b815260040160405180910390fd5b61199d612479565b5f6119a86007612702565b90505f816001600160401b038111156119c3576119c361378c565b6040519080825280602002602001820160405280156119ec578160200160208202803683370190505b5090505f826001600160401b03811115611a0857611a0861378c565b604051908082528060200260200182016040528015611a31578160200160208202803683370190505b5090505f5b83811015611aaa575f80611a4b60078461270c565b9150915081858481518110611a6257611a62613b62565b60200260200101906001600160a01b031690816001600160a01b03168152505080848481518110611a9557611a95613b62565b60209081029190910101525050600101611a36565b505f5b83811015610fa3575f838281518110611ac857611ac8613b62565b602002602001015190505f838381518110611ae557611ae5613b62565b60200260200101519050611b0382600761271a90919063ffffffff16565b50611b0e3082612a1c565b5f611b18826108c0565b9050611b22610fbf565b60405163a9059cbb60e01b81526001600160a01b03858116600483015260248201849052919091169063a9059cbb906044016020604051808303815f875af1158015611b70573d5f5f3e3d5ffd5b505050506040513d601f19601f82011682018060405250810190611b949190613b03565b611bb1576040516312171d8360e31b815260040160405180910390fd5b826001600160a01b03167f44b2ff9ffcefe2052a8afdbed44a04bf3db4592ae90c6b96c818bd28573e41e883604051611bec91815260200190565b60405180910390a2505050600101611aad565b5f6108cb82600161237f565b600d546060908190806001600160401b03811115611c2b57611c2b61378c565b604051908082528060200260200182016040528015611c54578160200160208202803683370190505b509250806001600160401b03811115611c6f57611c6f61378c565b604051908082528060200260200182016040528015611c98578160200160208202803683370190505b5091505f5b81811015611d6657600d8181548110611cb857611cb8613b62565b905f5260205f20015f9054906101000a90046001600160a01b0316848281518110611ce557611ce5613b62565b60200260200101906001600160a01b031690816001600160a01b031681525050600c5f600d8381548110611d1b57611d1b613b62565b5f9182526020808320909101546001600160a01b031683528201929092526040019020548351849083908110611d5357611d53613b62565b6020908102919091010152600101611c9d565b50509091565b611d74612479565b805f03611d835761090b610fbf565b5f611d8f6004336124b0565b91505081811015611db3576040516332194fd360e21b815260040160405180910390fd5b5f5f9054906101000a90046001600160a01b03166001600160a01b0316633a0dad8e6040518163ffffffff1660e01b8152600401602060405180830381865afa158015611e02573d5f5f3e3d5ffd5b505050506040513d601f19601f82011682018060405250810190611e269190613ae8565b6040516351edffb160e01b8152336004820152602481018490526001600160a01b0391909116906351edffb1906044015f604051808303815f87803b158015611e6d575f5ffd5b505af1158015611e7f573d5f5f3e3d5ffd5b505050505f8282611e909190613c87565b9050805f03611eaa57611ea460043361271a565b50611eb8565b611eb6600433836124d6565b505b60405183815233907f96a9a6886cdf3047a125454218a23d3961fd3a78643123b248a9d106d0ac94fd906020015b60405180910390a25050610b6560015f516020613e585f395f51905f5255565b5f8080611f136007612702565b90505f5b81811015611f44575f611f2b60078361270c565b9150611f3990508185613b36565b935050600101611f17565b509092915050565b5f6108cb825f61239f565b611f5f612479565b805f03611f7f576040516314e6cbb960e11b815260040160405180910390fd5b5f611f8b6007336124b0565b91505081811015611faf576040516312ea1f4960e11b815260040160405180910390fd5b5f5f9054906101000a90046001600160a01b03166001600160a01b0316633a0dad8e6040518163ffffffff1660e01b8152600401602060405180830381865afa158015611ffe573d5f5f3e3d5ffd5b505050506040513d601f19601f820116820180604052508101906120229190613ae8565b6040516305f0c35960e51b8152336004820152602481018490526001600160a01b03919091169063be186b20906044015f604051808303815f87803b158015612069575f5ffd5b505af115801561207b573d5f5f3e3d5ffd5b505050505f828261208c9190613c87565b9050805f036120a6576120a060073361271a565b506120b4565b6120b2600733836124d6565b505b60405183815233907f9cf37535785001dcc9767688232fcbc8698b3002d1207b50bc2afec3ff8934dc90602001611ee6565b5f6108cb6120f383611047565b5f61237f565b5f80806121066004612702565b90505f5b81811015611f44575f61211e60048361270c565b915061212c90508185613b36565b93505060010161210a565b600b546060908190806001600160401b038111156121575761215761378c565b604051908082528060200260200182016040528015612180578160200160208202803683370190505b509250806001600160401b0381111561219b5761219b61378c565b6040519080825280602002602001820160405280156121c4578160200160208202803683370190505b5091505f5b81811015611d66575f600b82815481106121e5576121e5613b62565b905f5260205f20015f9054906101000a90046001600160a01b031690508085838151811061221557612215613b62565b60200260200101906001600160a01b031690816001600160a01b031681525050600a5f826001600160a01b03166001600160a01b031681526020019081526020015f205484838151811061226b5761226b613b62565b6020908102919091010152506001016121c9565b5f6108cb82611047565b6001600160a01b039182165f9081527f52c63247e1f47db19d5ce0460030c497f067ca4cebf71ba98eeadabe20bace016020908152604080832093909416825291909152205490565b5f807f237e158222e3e6968b72b9db0d8043aacf074ad9f650f0d1606b4d82ee432c00610fe3565b612302612936565b7f237e158222e3e6968b72b9db0d8043aacf074ad9f650f0d1606b4d82ee432c0080546001600160a01b0319166001600160a01b038316908117825561234661158e565b6001600160a01b03167f38d16b8cac22d99fc7c124b9cd0de2d3fa1faef420bfe791d8c362d765e2270060405160405180910390a35050565b5f610cec836003548461180c565b61239a8383836001612a50565b505050565b5f5f6123c97f52c63247e1f47db19d5ce0460030c497f067ca4cebf71ba98eeadabe20bace025490565b90505f5f5f9054906101000a90046001600160a01b03166001600160a01b031663b71ee4fc6040518163ffffffff1660e01b8152600401602060405180830381865afa15801561241b573d5f5f3e3d5ffd5b505050506040513d601f19601f8201168201806040525081019061243f9190613b76565b905061247061244f82600a613c79565b6124599084613b36565b600354612467906001613b36565b879190876129da565b95945050505050565b5f516020613e585f395f51905f528054600119016124aa57604051633ee5aeb560e01b815260040160405180910390fd5b60029055565b5f8080806124c7866001600160a01b038716612b34565b909450925050505b9250929050565b5f6124eb846001600160a01b03851684612b6c565b949350505050565b60015f516020613e585f395f51905f5255565b5f807ff0c57e16840df040f15088dc2f81fe391c3923bec73e23a9662efc9c229c6a006108cb565b612536612b88565b6001600160a01b03841661255d57604051639c6bb9f560e01b815260040160405180910390fd5b6001600160a01b03831661258457604051636a485a5b60e11b815260040160405180910390fd5b61258e8282612bad565b6125f6836001600160a01b0316637158da7c6040518163ffffffff1660e01b8152600401602060405180830381865afa1580156125cd573d5f5f3e3d5ffd5b505050506040513d601f19601f820116820180604052508101906125f19190613ae8565b612bbf565b6125fe612bd0565b61260784612be0565b61260f612bf1565b612617612bf1565b5050600280546001600160a01b03199081163317909155600180546001600160a01b039485169083161790555f8054929093169116178155600355565b5f61265f8484612289565b90505f1981101561269f578181101561269157828183604051637dc7a0d960e11b815260040161092c93929190613ac7565b61269f84848484035f612a50565b50505050565b6001600160a01b0383166126ce57604051634b637e8f60e11b81525f600482015260240161092c565b6001600160a01b0382166126f75760405163ec442f0560e01b81525f600482015260240161092c565b61239a838383612bf9565b5f6108cb82612d1f565b5f8080806124c78686612d29565b5f610cec836001600160a01b038416612d52565b6001600160a01b0382166127575760405163ec442f0560e01b81525f600482015260240161092c565b61100e5f8383612bf9565b306001600160a01b037f00000000000000000000000000000000000000000000000000000000000000001614806127e857507f00000000000000000000000000000000000000000000000000000000000000006001600160a01b03166127dc5f516020613e385f395f51905f52546001600160a01b031690565b6001600160a01b031614155b15610fbd5760405163703e46dd60e11b815260040160405180910390fd5b6001546001600160a01b03163314610b65576040516356b381a560e01b815260040160405180910390fd5b816001600160a01b03166352d1902d6040518163ffffffff1660e01b8152600401602060405180830381865afa92505050801561288b575060408051601f3d908101601f1916820190925261288891810190613ab0565b60015b6128b357604051634c9c8ce360e01b81526001600160a01b038316600482015260240161092c565b5f516020613e385f395f51905f5281146128e357604051632a87526960e21b81526004810182905260240161092c565b61239a8383612d6e565b306001600160a01b037f00000000000000000000000000000000000000000000000000000000000000001614610fbd5760405163703e46dd60e11b815260040160405180910390fd5b3361293f61158e565b6001600160a01b031614610fbd5760405163118cdaa760e01b815233600482015260240161092c565b7f237e158222e3e6968b72b9db0d8043aacf074ad9f650f0d1606b4d82ee432c0080546001600160a01b031916815561100e82612dc3565b5f6108cb826004612e33565b5f826129be576129bb5f6129a0565b92505b816129cf576129cc5f6129a0565b91505b610cec83835f612ed9565b5f612a076129e783612f97565b8015612a0257505f84806129fd576129fd613c9a565b868809115b151590565b612a12868686612fc3565b6124709190613b36565b6001600160a01b038216612a4557604051634b637e8f60e11b81525f600482015260240161092c565b61100e825f83612bf9565b5f516020613e185f395f51905f526001600160a01b038516612a875760405163e602df0560e01b81525f600482015260240161092c565b6001600160a01b038416612ab057604051634a1406b160e11b81525f600482015260240161092c565b6001600160a01b038086165f90815260018301602090815260408083209388168352929052208390558115612b2d57836001600160a01b0316856001600160a01b03167f8c5be1e5ebec7d5bd14f71427d1e84f3dd0314c0f7b2291e5b200ac8c7c3b92585604051612b2491815260200190565b60405180910390a35b5050505050565b5f818152600283016020526040812054819080612b6157612b558585613073565b92505f91506124cf9050565b6001925090506124cf565b5f82815260028401602052604081208290556124eb848461307e565b612b90613089565b610fbd57604051631afcd79f60e31b815260040160405180910390fd5b612bb5612b88565b61100e82826130a2565b612bc7612b88565b610b65816130f2565b612bd8612b88565b610fbd613175565b612be8612b88565b610b658161317d565b610fbd612b88565b5f516020613e185f395f51905f526001600160a01b038416612c335781816002015f828254612c289190613b36565b90915550612c909050565b6001600160a01b0384165f9081526020829052604090205482811015612c725784818460405163391434e360e21b815260040161092c93929190613ac7565b6001600160a01b0385165f9081526020839052604090209083900390555b6001600160a01b038316612cae576002810180548390039055612ccc565b6001600160a01b0383165f9081526020829052604090208054830190555b826001600160a01b0316846001600160a01b03167fddf252ad1be2c89b69c2b068fc378daa952ba7f163c4a11628f55a4df523b3ef84604051612d1191815260200190565b60405180910390a350505050565b5f6108cb826131ae565b5f8080612d3685856131b7565b5f81815260029690960160205260409095205494959350505050565b5f8181526002830160205260408120819055610cec83836131c2565b612d77826131cd565b6040516001600160a01b038316907fbc7cd75a20ee27fd9adebab32041f755214dbc6bffa90cc0225b39da2e5c2d3b905f90a2805115612dbb5761239a8282613230565b61100e613299565b7f9016d09d72d40fdae2fd8ceac6b6234c7706214fd39c1cd1e609a0528c19930080546001600160a01b031981166001600160a01b03848116918217845560405192169182907f8be0079c531659141344cd1fd0a4f28419497f9722a3daafe3b4186f6b6457e0905f90a3505050565b5f807fed8d60e34876f751cc8b014c560745351147d9de11b9347c854e881b128ea6006001810154604051631ce2e8d760e31b8152600481018790526001600160f81b031960f887901b1660248201529192506001600160a01b03169063e71746b8906044016020604051808303815f875af1158015612eb5573d5f5f3e3d5ffd5b505050506040513d601f19601f820116820180604052508101906124eb9190613ab0565b5f5f8215612eec5750600160f81b612eef565b505f5b5f7fed8d60e34876f751cc8b014c560745351147d9de11b9347c854e881b128ea600600181015460405163f953e42760e01b815260048101899052602481018890526001600160f81b0319851660448201529192506001600160a01b03169063f953e427906064016020604051808303815f875af1158015612f73573d5f5f3e3d5ffd5b505050506040513d601f19601f820116820180604052508101906118da9190613ab0565b5f6002826003811115612fac57612fac613cae565b612fb69190613cc2565b60ff166001149050919050565b5f5f5f612fd086866132b8565b91509150815f03612ff457838181612fea57612fea613c9a565b0492505050610cec565b81841161300b5761300b60038515026011186132d4565b5f848688095f868103871696879004966002600389028118808a02820302808a02820302808a02820302808a02820302808a02820302808a02909103029181900381900460010185841190960395909502919093039390930492909217029150509392505050565b5f610cec83836132e5565b5f610cec83836132fc565b5f613092612506565b54600160401b900460ff16919050565b6130aa612b88565b5f516020613e185f395f51905f527f52c63247e1f47db19d5ce0460030c497f067ca4cebf71ba98eeadabe20bace036130e38482613d33565b506004810161269f8382613d33565b6130fa612b88565b7f0773e532dfede91f04b12a73d3d2acd361424f41f76b4fb79f090161e36b4e005f8061312684613348565b9150915081613136576012613138565b805b83546001600160a81b031916600160a01b60ff92909216919091026001600160a01b031916176001600160a01b0394909416939093179091555050565b6124f3612b88565b613185612b88565b6001600160a01b03811661128957604051631e4fbdf760e01b81525f600482015260240161092c565b5f6108cb825490565b5f610cec838361341e565b5f610cec8383613444565b806001600160a01b03163b5f0361320257604051634c9c8ce360e01b81526001600160a01b038216600482015260240161092c565b5f516020613e385f395f51905f5280546001600160a01b0319166001600160a01b0392909216919091179055565b60605f5f846001600160a01b03168460405161324c9190613ded565b5f60405180830381855af49150503d805f8114613284576040519150601f19603f3d011682016040523d82523d5f602084013e613289565b606091505b5091509150612470858383613527565b3415610fbd5760405163b398979f60e01b815260040160405180910390fd5b5f805f1983850993909202808410938190039390930393915050565b634e487b715f52806020526024601cfd5b5f8181526001830160205260408120541515610cec565b5f81815260018301602052604081205461334157508154600181810184555f8481526020808220909301849055845484825282860190935260409020919091556108cb565b505f6108cb565b60408051600481526024810182526020810180516001600160e01b031663313ce56760e01b17905290515f918291829182916001600160a01b0387169161338e91613ded565b5f60405180830381855afa9150503d805f81146133c6576040519150601f19603f3d011682016040523d82523d5f602084013e6133cb565b606091505b50915091508180156133df57506020815110155b15613412575f818060200190518101906133f99190613ab0565b905060ff8111613410576001969095509350505050565b505b505f9485945092505050565b5f825f01828154811061343357613433613b62565b905f5260205f200154905092915050565b5f818152600183016020526040812054801561351e575f613466600183613c87565b85549091505f9061347990600190613c87565b90508082146134d8575f865f01828154811061349757613497613b62565b905f5260205f200154905080875f0184815481106134b7576134b7613b62565b5f918252602080832090910192909255918252600188019052604090208390555b85548690806134e9576134e9613e03565b600190038181905f5260205f20015f90559055856001015f8681526020019081526020015f205f9055600193505050506108cb565b5f9150506108cb565b60608261353c5761353782613583565b610cec565b815115801561355357506001600160a01b0384163b155b1561357c57604051639996b31560e01b81526001600160a01b038516600482015260240161092c565b5080610cec565b8051156135935780518082602001fd5b60405163d6bda27560e01b815260040160405180910390fd5b5080545f8255905f5260205f2090810190610b6591905b808211156135d6575f81556001016135c3565b5090565b602081525f82518060208401528060208501604085015e5f604082850101526040601f19601f83011684010191505092915050565b5f6020828403121561361f575f5ffd5b5035919050565b6001600160a01b0381168114610b65575f5ffd5b5f5f6040838503121561364b575f5ffd5b823561365681613626565b946020939093013593505050565b5f5f83601f840112613674575f5ffd5b5081356001600160401b0381111561368a575f5ffd5b6020830191508360208285010111156124cf575f5ffd5b5f5f5f5f5f5f608087890312156136b6575f5ffd5b86356136c181613626565b955060208701356136d181613626565b945060408701356001600160401b038111156136eb575f5ffd5b6136f789828a01613664565b90955093505060608701356001600160401b03811115613715575f5ffd5b61372189828a01613664565b979a9699509497509295939492505050565b5f5f5f60608486031215613745575f5ffd5b833561375081613626565b9250602084013561376081613626565b929592945050506040919091013590565b5f60208284031215613781575f5ffd5b8135610cec81613626565b634e487b7160e01b5f52604160045260245ffd5b5f5f604083850312156137b1575f5ffd5b82356137bc81613626565b915060208301356001600160401b038111156137d6575f5ffd5b8301601f810185136137e6575f5ffd5b80356001600160401b038111156137ff576137ff61378c565b604051601f8201601f19908116603f011681016001600160401b038111828210171561382d5761382d61378c565b604052818152828201602001871015613844575f5ffd5b816020840160208301375f602083830101528093505050509250929050565b5f5f60408385031215613874575f5ffd5b82359150602083013561388681613626565b809150509250929050565b5f5f83601f8401126138a1575f5ffd5b5081356001600160401b038111156138b7575f5ffd5b6020830191508360208260061b85010111156124cf575f5ffd5b5f5f602083850312156138e2575f5ffd5b82356001600160401b038111156138f7575f5ffd5b61390385828601613891565b90969095509350505050565b5f5f5f60408486031215613921575f5ffd5b83356001600160401b03811115613936575f5ffd5b61394286828701613891565b909790965060209590950135949350505050565b5f5f5f60608486031215613968575f5ffd5b8335925060208401359150604084013560048110613984575f5ffd5b809150509250925092565b5f5f5f606084860312156139a1575f5ffd5b8335925060208401356139b381613626565b9150604084013561398481613626565b604080825283519082018190525f9060208501906060840190835b81811015613a055783516001600160a01b03168352602093840193909201916001016139de565b5050838103602080860191909152855180835291810192508501905f5b81811015613a40578251845260209384019390920191600101613a22565b50919695505050505050565b5f5f60408385031215613a5d575f5ffd5b8235613a6881613626565b9150602083013561388681613626565b600181811c90821680613a8c57607f821691505b602082108103613aaa57634e487b7160e01b5f52602260045260245ffd5b50919050565b5f60208284031215613ac0575f5ffd5b5051919050565b6001600160a01b039390931683526020830191909152604082015260600190565b5f60208284031215613af8575f5ffd5b8151610cec81613626565b5f60208284031215613b13575f5ffd5b81518015158114610cec575f5ffd5b634e487b7160e01b5f52601160045260245ffd5b808201808211156108cb576108cb613b22565b60ff81811683821601908111156108cb576108cb613b22565b634e487b7160e01b5f52603260045260245ffd5b5f60208284031215613b86575f5ffd5b815160ff81168114610cec575f5ffd5b6001815b6001841115613bd157808504811115613bb557613bb5613b22565b6001841615613bc357908102905b60019390931c928002613b9a565b935093915050565b5f82613be7575060016108cb565b81613bf357505f6108cb565b8160018114613c095760028114613c1357613c2f565b60019150506108cb565b60ff841115613c2457613c24613b22565b50506001821b6108cb565b5060208310610133831016604e8410600b8410161715613c52575081810a6108cb565b613c5e5f198484613b96565b805f1904821115613c7157613c71613b22565b029392505050565b5f610cec60ff841683613bd9565b818103818111156108cb576108cb613b22565b634e487b7160e01b5f52601260045260245ffd5b634e487b7160e01b5f52602160045260245ffd5b5f60ff831680613ce057634e487b7160e01b5f52601260045260245ffd5b8060ff84160691505092915050565b601f82111561239a57805f5260205f20601f840160051c81016020851015613d145750805b601f840160051c820191505b81811015612b2d575f8155600101613d20565b81516001600160401b03811115613d4c57613d4c61378c565b613d6081613d5a8454613a78565b84613cef565b6020601f821160018114613d92575f8315613d7b5750848201515b5f19600385901b1c1916600184901b178455612b2d565b5f84815260208120601f198516915b82811015613dc15787850151825560209485019460019092019101613da1565b5084821015613dde57868401515f19600387901b60f8161c191681555b50505050600190811b01905550565b5f82518060208501845e5f920191825250919050565b634e487b7160e01b5f52603160045260245ffdfe52c63247e1f47db19d5ce0460030c497f067ca4cebf71ba98eeadabe20bace00360894a13ba1a3210667c828492db98dca3e2076cc3735a920a3ca505d382bbc9b779b17422d0df92223018b32b4d1fa46e071723d6817e2486d003becc55f00a26469706673582212207f3d85f25aa0451afafc226d412011ee305b423ff5d25ae6c55988c855cfcce364736f6c634300081c0033",
  "linkReferences": {},
  "deployedLinkReferences": {}
}