{
  "_format": "hh-sol-artifact-1",
  "contractName": "VaultImplementations",
  "sourceName": "contracts/helpers/VaultImplementations.sol",
  "abi": [
    {
      "inputs": [],
      "stateMutability": "nonpayable",
      "type": "constructor"
    },
    {
      "inputs": [],
      "name": "encryptedVaultImplementation",
      "outputs": [
        {
          "internalType": "address",
          "name": "",
          "type": "address"
        }
      ],
      "stateMutability": "view",
      "type": "function"
    },
    {
      "inputs": [],
      "name": "transparentVaultImplementation",
      "outputs": [
        {
          "internalType": "address",
          "name": "",
          "type": "address"
        }
      ],
      "stateMutability": "view",
      "type": "function"
    }
  ],
  "bytecode": "0x60c0604052348015600e575f80fd5b506040516019906071565b604051809103905ff0801580156031573d5f803e3d5ffd5b506001600160a01b0316608052604051604890607e565b604051809103905ff0801580156060573d5f803e3d5ffd5b506001600160a01b031660a052608b565b61311a8061017a83390190565b612fd88061329483390190565b60805160a05160d26100a85f395f607a01525f6038015260d25ff3fe6080604052348015600e575f80fd5b50600436106030575f3560e01c806310e43b2d1460345780639c6aac95146076575b5f80fd5b605a7f000000000000000000000000000000000000000000000000000000000000000081565b6040516001600160a01b03909116815260200160405180910390f35b605a7f00000000000000000000000000000000000000000000000000000000000000008156fea264697066735822122018538ccf1059215e75d3ebbc114992c19d7a756e936519f466e292b8bc70c8e564736f6c634300081a003360a0604052306080523480156012575f80fd5b506080516130e16100395f395f8181611d2001528181611d490152611eab01526130e15ff3fe608060405260043610610280575f3560e01c806379ba509711610155578063c63d75b6116100be578063dd62ed3e11610078578063dd62ed3e14610715578063e30c397814610734578063e66f53b714610748578063ef8b30f714610767578063f2fde38b14610786578063fb12251b146107a5575f80fd5b8063c63d75b61461044c578063c6e6f59214610685578063ce96cb77146106a4578063d1699c26146106c3578063d5f39488146106d7578063d905777e146106f6575f80fd5b8063aa9d3a601161010f578063aa9d3a60146105d0578063ad3cb1cc146105e4578063b3d7f6b914610614578063b460af9414610633578063ba08765214610652578063c37fc8a814610671575f80fd5b806379ba50971461056057806387269729146105745780638da5cb5b1461058957806394bf804d146104d157806395d89b411461059d578063a9059cbb146105b1575f80fd5b806333fdc592116101f757806352d1902d116101b157806352d1902d146104bd5780636e553f65146104d157806370a08231146104f0578063715018a61461050f578063745400c91461052357806379502c5514610542575f80fd5b806333fdc5921461040c57806338d52e0f14610420578063402d267d1461044c5780634368eb1c1461046c5780634cdad5061461048b5780634f1ef286146104aa575f80fd5b80630d1e6667116102485780630d1e66671461033557806318160ddd146103565780632016a0d21461038957806323b872dd146103a8578063313ce567146103c7578063329f0123146103ed575f80fd5b806301e1d1141461028457806306fdde03146102a757806307a2d13a146102c8578063095ea7b3146102e75780630a28a47714610316575b5f80fd5b34801561028f575f80fd5b506004545b6040519081526020015b60405180910390f35b3480156102b2575f80fd5b506102bb6107c4565b60405161029e91906128df565b3480156102d3575f80fd5b506102946102e2366004612914565b610884565b3480156102f2575f80fd5b5061030661030136600461293f565b6108ae565b604051901515815260200161029e565b348015610321575f80fd5b50610294610330366004612914565b6108c5565b348015610340575f80fd5b5061035461034f366004612914565b6108d1565b005b348015610361575f80fd5b507f52c63247e1f47db19d5ce0460030c497f067ca4cebf71ba98eeadabe20bace0254610294565b348015610394575f80fd5b506103546103a33660046129ae565b610a8a565b3480156103b3575f80fd5b506103066103c2366004612a42565b610bf2565b3480156103d2575f80fd5b506103db610c17565b60405160ff909116815260200161029e565b3480156103f8575f80fd5b50610354610407366004612a80565b610c59565b348015610417575f80fd5b50610354610d63565b34801561042b575f80fd5b50610434610eec565b6040516001600160a01b03909116815260200161029e565b348015610457575f80fd5b50610294610466366004612aa0565b505f1990565b348015610477575f80fd5b50610354610486366004612914565b610f20565b348015610496575f80fd5b506102946104a5366004612914565b611078565b6103546104b8366004612acf565b611083565b3480156104c8575f80fd5b506102946110a2565b3480156104dc575f80fd5b506102946104eb366004612b95565b6110bd565b3480156104fb575f80fd5b5061029461050a366004612aa0565b6110d7565b34801561051a575f80fd5b506103546110fd565b34801561052e575f80fd5b5061035461053d366004612914565b61110e565b34801561054d575f80fd5b505f54610434906001600160a01b031681565b34801561056b575f80fd5b50610354611224565b34801561057f575f80fd5b5061029460035481565b348015610594575f80fd5b50610434611269565b3480156105a8575f80fd5b506102bb611291565b3480156105bc575f80fd5b506103066105cb36600461293f565b6112cf565b3480156105db575f80fd5b506103546112dc565b3480156105ef575f80fd5b506102bb604051806040016040528060058152602001640352e302e360dc1b81525081565b34801561061f575f80fd5b5061029461062e366004612914565b6114cd565b34801561063e575f80fd5b5061029461064d366004612bc3565b6114d9565b34801561065d575f80fd5b5061029461066c366004612bc3565b6114f2565b34801561067c575f80fd5b5061029461150c565b348015610690575f80fd5b5061029461069f366004612914565b611573565b3480156106af575f80fd5b506102946106be366004612aa0565b61158c565b3480156106ce575f80fd5b5061029461159f565b3480156106e2575f80fd5b50600254610434906001600160a01b031681565b348015610701575f80fd5b50610294610710366004612aa0565b6115fe565b348015610720575f80fd5b5061029461072f366004612c02565b611608565b34801561073f575f80fd5b50610434611651565b348015610753575f80fd5b50600154610434906001600160a01b031681565b348015610772575f80fd5b50610294610781366004612914565b611679565b348015610791575f80fd5b506103546107a0366004612aa0565b611684565b3480156107b0575f80fd5b506103546107bf366004612c2e565b611709565b7f52c63247e1f47db19d5ce0460030c497f067ca4cebf71ba98eeadabe20bace0380546060915f8051602061304c8339815191529161080290612c9f565b80601f016020809104026020016040519081016040528092919081815260200182805461082e90612c9f565b80156108795780601f1061085057610100808354040283529160200191610879565b820191905f5260205f20905b81548152906001019060200180831161085c57829003601f168201915b505050505091505090565b5f61088d610c17565b60ff166003548361089e9190612ceb565b6108a89190612d16565b92915050565b5f336108bb8185856119b9565b5060019392505050565b5f6108a88260016119cb565b6108d9611a1d565b805f03610912576108e8610eec565b604051636b30633560e01b81526001600160a01b0390911660048201526024015b60405180910390fd5b335f90815260056020526040812054900361096957600780546001810182555f919091527fa66cc928b5edb82af9bd49922954155ab7b0942694bea4ce44661d9a8736c6880180546001600160a01b031916331790555b335f9081526005602052604081208054839290610987908490612d29565b909155505f9050610996610eec565b6040516323b872dd60e01b8152336004820152306024820152604481018490526001600160a01b0391909116906323b872dd906064016020604051808303815f875af11580156109e8573d5f803e3d5ffd5b505050506040513d601f19601f82011682018060405250810190610a0c9190612d3c565b905080610a2c576040516312171d8360e31b815260040160405180910390fd5b60075460405133917f03979a8c481a9e9c06938045cfd5c28535255cb003b10a8fe84ebb3cb4d440f291610a6891868252602082015260400190565b60405180910390a250610a8760015f8051602061308c83398151915255565b50565b5f610a93611a67565b805490915060ff600160401b820416159067ffffffffffffffff165f81158015610aba5750825b90505f8267ffffffffffffffff166001148015610ad65750303b155b905081158015610ae4575080155b15610b025760405163f92ee8a960e01b815260040160405180910390fd5b845467ffffffffffffffff191660011785558315610b2c57845460ff60401b1916600160401b1785555b610b9f8b8b8b8b8080601f0160208091040260200160405190810160405280939291908181526020018383808284375f9201919091525050604080516020601f8f018190048102820181019092528d815292508d91508c90819084018382808284375f92019190915250611a8f92505050565b8315610be557845460ff60401b19168555604051600181527fc7f505b2f371ae2175ee4913f4499e1f2633a7b5936321eed1cdaeb6115181d29060200160405180910390a15b5050505050505050505050565b5f33610bff858285611bd1565b610c0a858585611c35565b60019150505b9392505050565b5f807f0773e532dfede91f04b12a73d3d2acd361424f41f76b4fb79f090161e36b4e0090505f8154610c539190600160a01b900460ff16612d5b565b91505090565b5f8054906101000a90046001600160a01b03166001600160a01b031663348ec5c86040518163ffffffff1660e01b8152600401602060405180830381865afa158015610ca7573d5f803e3d5ffd5b505050506040513d601f19601f82011682018060405250810190610ccb9190612d74565b6001600160a01b0316336001600160a01b031614610cfc5760405163efb380d960e01b815260040160405180910390fd5b815f03610d1c57604051634dfba02360e01b815260040160405180910390fd5b6003829055600481905560408051838152602081018390527f420468cf8110435de2f48db96f01d6a65a842cb7ac5852c11fcbac8dc93b46b3910160405180910390a15050565b5f8054906101000a90046001600160a01b03166001600160a01b0316633a0dad8e6040518163ffffffff1660e01b8152600401602060405180830381865afa158015610db1573d5f803e3d5ffd5b505050506040513d601f19601f82011682018060405250810190610dd59190612d74565b6001600160a01b0316336001600160a01b031614610e0657604051631af2ab4f60e31b815260040160405180910390fd5b610e0e611a1d565b6007545f5b81811015610ed2575f60078281548110610e2f57610e2f612d8f565b5f9182526020808320909101546001600160a01b03168083526005909152604082205490925090610e5f82611679565b6001600160a01b0384165f908152600560205260408120559050610e838382611c92565b60408051838152602081018690526001600160a01b038516917f782ea2005b7f873a0190a1ccb553c732171348d6e16d2b7d3d493c0677dc296e910160405180910390a2505050600101610e13565b5050610eea60015f8051602061308c83398151915255565b565b5f807f0773e532dfede91f04b12a73d3d2acd361424f41f76b4fb79f090161e36b4e005b546001600160a01b031692915050565b610f28611a1d565b805f03610f37576108e8610eec565b335f90815260056020526040902054811115610f66576040516332194fd360e21b815260040160405180910390fd5b335f9081526005602052604081208054839290610f84908490612da3565b90915550506007545f610f95610eec565b60405163a9059cbb60e01b8152336004820152602481018590526001600160a01b03919091169063a9059cbb906044016020604051808303815f875af1158015610fe1573d5f803e3d5ffd5b505050506040513d601f19601f820116820180604052508101906110059190612d3c565b905080611025576040516312171d8360e31b815260040160405180910390fd5b604080518481526020810184905233917f3c121205405bd3a6cc45661cccddd03e333ae4ef37be94cfa3880f6d616a20c8910160405180910390a25050610a8760015f8051602061308c83398151915255565b5f6108a8825f611cc6565b61108b611d15565b61109482611db9565b61109e8282611de4565b5050565b5f6110ab611ea0565b505f8051602061306c83398151915290565b5f6040516318f2e47360e11b815260040160405180910390fd5b6001600160a01b03165f9081525f8051602061304c833981519152602052604090205490565b611105611ee9565b610eea5f611f1b565b805f0361112e576040516314e6cbb960e11b815260040160405180910390fd5b80611138336110d7565b101561115757604051633c57b48560e21b815260040160405180910390fd5b335f9081526006602052604081205490036111ae57600880546001810182555f919091527ff3f7a9fe364faab93b216da50a3214154f22a0a2b415b23a84c8169e8b636ee30180546001600160a01b031916331790555b335f90815260066020526040812080548392906111cc908490612d29565b909155506111dd9050333083611c35565b60085460405133917fd72eb5d043f24a0168ae744d5c44f9596fd673a26bf74d9646bff4b844882d149161121991858252602082015260400190565b60405180910390a250565b338061122e611651565b6001600160a01b0316146112605760405163118cdaa760e01b81526001600160a01b0382166004820152602401610909565b610a8781611f1b565b5f807f9016d09d72d40fdae2fd8ceac6b6234c7706214fd39c1cd1e609a0528c199300610f10565b7f52c63247e1f47db19d5ce0460030c497f067ca4cebf71ba98eeadabe20bace0480546060915f8051602061304c8339815191529161080290612c9f565b5f336108bb818585611c35565b5f8054906101000a90046001600160a01b03166001600160a01b0316633a0dad8e6040518163ffffffff1660e01b8152600401602060405180830381865afa15801561132a573d5f803e3d5ffd5b505050506040513d601f19601f8201168201806040525081019061134e9190612d74565b6001600160a01b0316336001600160a01b03161461137f57604051631af2ab4f60e31b815260040160405180910390fd5b611387611a1d565b6008545f5b81811015610ed2575f600882815481106113a8576113a8612d8f565b5f9182526020808320909101546001600160a01b0316808352600690915260408220805492905591506113db3082611f53565b5f6113e582611078565b90506113ef610eec565b60405163a9059cbb60e01b81526001600160a01b03858116600483015260248201849052919091169063a9059cbb906044016020604051808303815f875af115801561143d573d5f803e3d5ffd5b505050506040513d601f19601f820116820180604052508101906114619190612d3c565b61147e576040516312171d8360e31b815260040160405180910390fd5b60408051838152602081018690526001600160a01b038516917febad37b830b1857ef9af5983fc20dc0ded12dc472ba1e22e06fd3a9465b4506c910160405180910390a250505060010161138c565b5f6108a8826001611cc6565b5f604051628a595160e01b815260040160405180910390fd5b5f604051630ad8521960e31b815260040160405180910390fd5b6008545f908190815b8181101561156b5760065f6008838154811061153357611533612d8f565b5f9182526020808320909101546001600160a01b031683528201929092526040019020546115619084612d29565b9250600101611515565b509092915050565b5f60035461157f610c17565b61089e9060ff1684612ceb565b5f6108a8611599836110d7565b5f611cc6565b6007545f908190815b8181101561156b5760055f600783815481106115c6576115c6612d8f565b5f9182526020808320909101546001600160a01b031683528201929092526040019020546115f49084612d29565b92506001016115a8565b5f6108a8826110d7565b6001600160a01b039182165f9081527f52c63247e1f47db19d5ce0460030c497f067ca4cebf71ba98eeadabe20bace016020908152604080832093909416825291909152205490565b5f807f237e158222e3e6968b72b9db0d8043aacf074ad9f650f0d1606b4d82ee432c00610f10565b5f6108a8825f6119cb565b61168c611ee9565b7f237e158222e3e6968b72b9db0d8043aacf074ad9f650f0d1606b4d82ee432c0080546001600160a01b0319166001600160a01b03831690811782556116d0611269565b6001600160a01b03167f38d16b8cac22d99fc7c124b9cd0de2d3fa1faef420bfe791d8c362d765e2270060405160405180910390a35050565b6001546001600160a01b03163314611734576040516356b381a560e01b815260040160405180910390fd5b5f81900361175557604051631121aa8d60e01b815260040160405180910390fd5b61175f6009611f87565b5f805b828110156118e8575f84848381811061177d5761177d612d8f565b6117939260206040909202019081019150612aa0565b90505f8585848181106117a8576117a8612d8f565b90506040020160200160208101906117c09190612db6565b5f54604051633af32abf60e01b81526001600160a01b038581166004830152929350911690633af32abf90602401602060405180830381865afa158015611809573d5f803e3d5ffd5b505050506040513d601f19601f8201168201806040525081019061182d9190612d3c565b6118555760405163751dff9760e11b81526001600160a01b0383166004820152602401610909565b8063ffffffff165f0361188657604051636b30633560e01b81526001600160a01b0383166004820152602401610909565b5f61189c60098463ffffffff80861690611f9016565b9050806118c7576040516346bdabe160e01b81526001600160a01b0384166004820152602401610909565b6118d763ffffffff831686612d29565b945050600190920191506117629050565b505f805f9054906101000a90046001600160a01b03166001600160a01b031663d1717c7d6040518163ffffffff1660e01b8152600401602060405180830381865afa158015611939573d5f803e3d5ffd5b505050506040513d601f19601f8201168201806040525081019061195d9190612dd9565b905061196a81600a612edc565b8214611989576040516324204a3560e21b815260040160405180910390fd5b60405133907f2d47a742b8d7df7c1fc5a9a631b206b364e6cb2722490759f63bb3ab14b132e0905f90a250505050565b6119c68383836001611fad565b505050565b5f610c106119da82600a612edc565b7f52c63247e1f47db19d5ce0460030c497f067ca4cebf71ba98eeadabe20bace0254611a069190612d29565b600454611a14906001612d29565b85919085612091565b5f8051602061308c833981519152805460011901611a4e57604051633ee5aeb560e01b815260040160405180910390fd5b60029055565b60015f8051602061308c83398151915255565b5f807ff0c57e16840df040f15088dc2f81fe391c3923bec73e23a9662efc9c229c6a006108a8565b611a976120dc565b6001600160a01b038416611abe57604051639c6bb9f560e01b815260040160405180910390fd5b6001600160a01b038316611ae557604051636a485a5b60e11b815260040160405180910390fd5b611aef8282612101565b611b57836001600160a01b0316637158da7c6040518163ffffffff1660e01b8152600401602060405180830381865afa158015611b2e573d5f803e3d5ffd5b505050506040513d601f19601f82011682018060405250810190611b529190612d74565b612113565b611b5f612124565b611b67612134565b611b6f612134565b611b7884611f1b565b60028054336001600160a01b0319918216179091556001805482166001600160a01b03878116919091179091555f8054909216908516179055611bb9610c17565b611bc490600a612edc565b60035550505f6004555050565b5f611bdc8484611608565b90505f19811015611c2f5781811015611c2157604051637dc7a0d960e11b81526001600160a01b03841660048201526024810182905260448101839052606401610909565b611c2f84848484035f611fad565b50505050565b6001600160a01b038316611c5e57604051634b637e8f60e11b81525f6004820152602401610909565b6001600160a01b038216611c875760405163ec442f0560e01b81525f6004820152602401610909565b6119c683838361213c565b6001600160a01b038216611cbb5760405163ec442f0560e01b81525f6004820152602401610909565b61109e5f838361213c565b5f610c10611cd360045490565b611cde906001612d29565b611ce95f600a612edc565b7f52c63247e1f47db19d5ce0460030c497f067ca4cebf71ba98eeadabe20bace0254611a149190612d29565b306001600160a01b037f0000000000000000000000000000000000000000000000000000000000000000161480611d9b57507f00000000000000000000000000000000000000000000000000000000000000006001600160a01b0316611d8f5f8051602061306c833981519152546001600160a01b031690565b6001600160a01b031614155b15610eea5760405163703e46dd60e11b815260040160405180910390fd5b6001546001600160a01b03163314610a87576040516356b381a560e01b815260040160405180910390fd5b816001600160a01b03166352d1902d6040518163ffffffff1660e01b8152600401602060405180830381865afa925050508015611e3e575060408051601f3d908101601f19168201909252611e3b91810190612eea565b60015b611e6657604051634c9c8ce360e01b81526001600160a01b0383166004820152602401610909565b5f8051602061306c8339815191528114611e9657604051632a87526960e21b815260048101829052602401610909565b6119c68383612275565b306001600160a01b037f00000000000000000000000000000000000000000000000000000000000000001614610eea5760405163703e46dd60e11b815260040160405180910390fd5b33611ef2611269565b6001600160a01b031614610eea5760405163118cdaa760e01b8152336004820152602401610909565b7f237e158222e3e6968b72b9db0d8043aacf074ad9f650f0d1606b4d82ee432c0080546001600160a01b031916815561109e826122ca565b6001600160a01b038216611f7c57604051634b637e8f60e11b81525f6004820152602401610909565b61109e825f8361213c565b610a878161233a565b5f611fa5846001600160a01b03851684612383565b949350505050565b5f8051602061304c8339815191526001600160a01b038516611fe45760405163e602df0560e01b81525f6004820152602401610909565b6001600160a01b03841661200d57604051634a1406b160e11b81525f6004820152602401610909565b6001600160a01b038086165f9081526001830160209081526040808320938816835292905220839055811561208a57836001600160a01b0316856001600160a01b03167f8c5be1e5ebec7d5bd14f71427d1e84f3dd0314c0f7b2291e5b200ac8c7c3b9258560405161208191815260200190565b60405180910390a35b5050505050565b5f6120be61209e8361239f565b80156120b957505f84806120b4576120b4612d02565b868809115b151590565b6120c98686866123cb565b6120d39190612d29565b95945050505050565b6120e461247b565b610eea57604051631afcd79f60e31b815260040160405180910390fd5b6121096120dc565b61109e8282612494565b61211b6120dc565b610a87816124e4565b61212c6120dc565b610eea612567565b610eea6120dc565b5f8051602061304c8339815191526001600160a01b0384166121765781816002015f82825461216b9190612d29565b909155506121e69050565b6001600160a01b0384165f90815260208290526040902054828110156121c85760405163391434e360e21b81526001600160a01b03861660048201526024810182905260448101849052606401610909565b6001600160a01b0385165f9081526020839052604090209083900390555b6001600160a01b038316612204576002810180548390039055612222565b6001600160a01b0383165f9081526020829052604090208054830190555b826001600160a01b0316846001600160a01b03167fddf252ad1be2c89b69c2b068fc378daa952ba7f163c4a11628f55a4df523b3ef8460405161226791815260200190565b60405180910390a350505050565b61227e8261256f565b6040516001600160a01b038316907fbc7cd75a20ee27fd9adebab32041f755214dbc6bffa90cc0225b39da2e5c2d3b905f90a28051156122c2576119c682826125d2565b61109e61263b565b7f9016d09d72d40fdae2fd8ceac6b6234c7706214fd39c1cd1e609a0528c19930080546001600160a01b031981166001600160a01b03848116918217845560405192169182907f8be0079c531659141344cd1fd0a4f28419497f9722a3daafe3b4186f6b6457e0905f90a3505050565b5f6123448261265a565b90505f5b8181101561237957600283015f61235f8584612664565b815260208101919091526040015f90812055600101612348565b5061109e8261266f565b5f8281526002840160205260408120829055611fa58484612678565b5f60028260038111156123b4576123b4612f01565b6123be9190612f15565b60ff166001149050919050565b5f805f6123d88686612683565b91509150815f036123fc578381816123f2576123f2612d02565b0492505050610c10565b81841161241357612413600385150260111861269f565b5f848688095f868103871696879004966002600389028118808a02820302808a02820302808a02820302808a02820302808a02820302808a02909103029181900381900460010185841190960395909502919093039390930492909217029150509392505050565b5f612484611a67565b54600160401b900460ff16919050565b61249c6120dc565b5f8051602061304c8339815191527f52c63247e1f47db19d5ce0460030c497f067ca4cebf71ba98eeadabe20bace036124d58482612f7a565b5060048101611c2f8382612f7a565b6124ec6120dc565b7f0773e532dfede91f04b12a73d3d2acd361424f41f76b4fb79f090161e36b4e005f80612518846126b0565b915091508161252857601261252a565b805b83546001600160a81b031916600160a01b60ff92909216919091026001600160a01b031916176001600160a01b0394909416939093179091555050565b611a546120dc565b806001600160a01b03163b5f036125a457604051634c9c8ce360e01b81526001600160a01b0382166004820152602401610909565b5f8051602061306c83398151915280546001600160a01b0319166001600160a01b0392909216919091179055565b60605f80846001600160a01b0316846040516125ee9190613035565b5f60405180830381855af49150503d805f8114612626576040519150601f19603f3d011682016040523d82523d5f602084013e61262b565b606091505b50915091506120d3858383612786565b3415610eea5760405163b398979f60e01b815260040160405180910390fd5b5f6108a8826127e2565b5f610c1083836127eb565b610a8781612811565b5f610c10838361286a565b5f805f1983850993909202808410938190039390930393915050565b634e487b715f52806020526024601cfd5b60408051600481526024810182526020810180516001600160e01b031663313ce56760e01b17905290515f918291829182916001600160a01b038716916126f691613035565b5f60405180830381855afa9150503d805f811461272e576040519150601f19603f3d011682016040523d82523d5f602084013e612733565b606091505b509150915081801561274757506020815110155b1561277a575f818060200190518101906127619190612eea565b905060ff8111612778576001969095509350505050565b505b505f9485945092505050565b60608261279b57612796826128b6565b610c10565b81511580156127b257506001600160a01b0384163b155b156127db57604051639996b31560e01b81526001600160a01b0385166004820152602401610909565b5080610c10565b5f6108a8825490565b5f825f01828154811061280057612800612d8f565b905f5260205f200154905092915050565b5f61281a825490565b90505f5b8181101561286357826001015f845f01838154811061283f5761283f612d8f565b905f5260205f20015481526020019081526020015f205f905580600101905061281e565b50505f9055565b5f8181526001830160205260408120546128af57508154600181810184555f8481526020808220909301849055845484825282860190935260409020919091556108a8565b505f6108a8565b8051156128c65780518082602001fd5b60405163d6bda27560e01b815260040160405180910390fd5b602081525f82518060208401528060208501604085015e5f604082850101526040601f19601f83011684010191505092915050565b5f60208284031215612924575f80fd5b5035919050565b6001600160a01b0381168114610a87575f80fd5b5f8060408385031215612950575f80fd5b823561295b8161292b565b946020939093013593505050565b5f8083601f840112612979575f80fd5b50813567ffffffffffffffff811115612990575f80fd5b6020830191508360208285010111156129a7575f80fd5b9250929050565b5f805f805f80608087890312156129c3575f80fd5b86356129ce8161292b565b955060208701356129de8161292b565b9450604087013567ffffffffffffffff8111156129f9575f80fd5b612a0589828a01612969565b909550935050606087013567ffffffffffffffff811115612a24575f80fd5b612a3089828a01612969565b979a9699509497509295939492505050565b5f805f60608486031215612a54575f80fd5b8335612a5f8161292b565b92506020840135612a6f8161292b565b929592945050506040919091013590565b5f8060408385031215612a91575f80fd5b50508035926020909101359150565b5f60208284031215612ab0575f80fd5b8135610c108161292b565b634e487b7160e01b5f52604160045260245ffd5b5f8060408385031215612ae0575f80fd5b8235612aeb8161292b565b9150602083013567ffffffffffffffff811115612b06575f80fd5b8301601f81018513612b16575f80fd5b803567ffffffffffffffff811115612b3057612b30612abb565b604051601f8201601f19908116603f0116810167ffffffffffffffff81118282101715612b5f57612b5f612abb565b604052818152828201602001871015612b76575f80fd5b816020840160208301375f602083830101528093505050509250929050565b5f8060408385031215612ba6575f80fd5b823591506020830135612bb88161292b565b809150509250929050565b5f805f60608486031215612bd5575f80fd5b833592506020840135612be78161292b565b91506040840135612bf78161292b565b809150509250925092565b5f8060408385031215612c13575f80fd5b8235612c1e8161292b565b91506020830135612bb88161292b565b5f8060208385031215612c3f575f80fd5b823567ffffffffffffffff811115612c55575f80fd5b8301601f81018513612c65575f80fd5b803567ffffffffffffffff811115612c7b575f80fd5b8560208260061b8401011115612c8f575f80fd5b6020919091019590945092505050565b600181811c90821680612cb357607f821691505b602082108103612cd157634e487b7160e01b5f52602260045260245ffd5b50919050565b634e487b7160e01b5f52601160045260245ffd5b80820281158282048414176108a8576108a8612cd7565b634e487b7160e01b5f52601260045260245ffd5b5f82612d2457612d24612d02565b500490565b808201808211156108a8576108a8612cd7565b5f60208284031215612d4c575f80fd5b81518015158114610c10575f80fd5b60ff81811683821601908111156108a8576108a8612cd7565b5f60208284031215612d84575f80fd5b8151610c108161292b565b634e487b7160e01b5f52603260045260245ffd5b818103818111156108a8576108a8612cd7565b5f60208284031215612dc6575f80fd5b813563ffffffff81168114610c10575f80fd5b5f60208284031215612de9575f80fd5b815160ff81168114610c10575f80fd5b6001815b6001841115612e3457808504811115612e1857612e18612cd7565b6001841615612e2657908102905b60019390931c928002612dfd565b935093915050565b5f82612e4a575060016108a8565b81612e5657505f6108a8565b8160018114612e6c5760028114612e7657612e92565b60019150506108a8565b60ff841115612e8757612e87612cd7565b50506001821b6108a8565b5060208310610133831016604e8410600b8410161715612eb5575081810a6108a8565b612ec15f198484612df9565b805f1904821115612ed457612ed4612cd7565b029392505050565b5f610c1060ff841683612e3c565b5f60208284031215612efa575f80fd5b5051919050565b634e487b7160e01b5f52602160045260245ffd5b5f60ff831680612f2757612f27612d02565b8060ff84160691505092915050565b601f8211156119c657805f5260205f20601f840160051c81016020851015612f5b5750805b601f840160051c820191505b8181101561208a575f8155600101612f67565b815167ffffffffffffffff811115612f9457612f94612abb565b612fa881612fa28454612c9f565b84612f36565b6020601f821160018114612fda575f8315612fc35750848201515b5f19600385901b1c1916600184901b17845561208a565b5f84815260208120601f198516915b828110156130095787850151825560209485019460019092019101612fe9565b508482101561302657868401515f19600387901b60f8161c191681555b50505050600190811b01905550565b5f82518060208501845e5f92019182525091905056fe52c63247e1f47db19d5ce0460030c497f067ca4cebf71ba98eeadabe20bace00360894a13ba1a3210667c828492db98dca3e2076cc3735a920a3ca505d382bbc9b779b17422d0df92223018b32b4d1fa46e071723d6817e2486d003becc55f00a2646970667358221220296fa6af3294d0426b078cf84890a4370dcba876c96e902d91febdefd8abf35364736f6c634300081a003360a0604052306080523480156012575f80fd5b50608051612f9f6100395f395f8181611c2101528181611c4a0152611dac0152612f9f5ff3fe608060405260043610610280575f3560e01c806379ba509711610155578063c37fc8a8116100be578063d905777e11610078578063d905777e14610715578063dd62ed3e14610734578063e30c397814610753578063e66f53b714610767578063ef8b30f714610786578063f2fde38b146107a5575f80fd5b8063c37fc8a814610690578063c63d75b61461044c578063c6e6f592146106a4578063ce96cb77146106c3578063d1699c26146106e2578063d5f39488146106f6575f80fd5b8063a9059cbb1161010f578063a9059cbb146105d0578063aa9d3a60146105ef578063ad3cb1cc14610603578063b3d7f6b914610633578063b460af9414610652578063ba08765214610671575f80fd5b806379ba50971461056057806387269729146105745780638da5cb5b1461058957806394bf804d146104d157806395d89b411461059d5780639c055a66146105b1575f80fd5b806333fdc592116101f757806352d1902d116101b157806352d1902d146104bd5780636e553f65146104d157806370a08231146104f0578063715018a61461050f578063745400c91461052357806379502c5514610542575f80fd5b806333fdc5921461040c57806338d52e0f14610420578063402d267d1461044c5780634368eb1c1461046c5780634cdad5061461048b5780634f1ef286146104aa575f80fd5b80630d1e6667116102485780630d1e66671461033557806318160ddd146103565780632016a0d21461038957806323b872dd146103a8578063313ce567146103c7578063329f0123146103ed575f80fd5b806301e1d1141461028457806306fdde03146102a757806307a2d13a146102c8578063095ea7b3146102e75780630a28a47714610316575b5f80fd5b34801561028f575f80fd5b506004545b6040519081526020015b60405180910390f35b3480156102b2575f80fd5b506102bb6107c4565b60405161029e91906127e0565b3480156102d3575f80fd5b506102946102e2366004612815565b610884565b3480156102f2575f80fd5b50610306610301366004612840565b6108ae565b604051901515815260200161029e565b348015610321575f80fd5b50610294610330366004612815565b6108c5565b348015610340575f80fd5b5061035461034f366004612815565b6108d1565b005b348015610361575f80fd5b507f52c63247e1f47db19d5ce0460030c497f067ca4cebf71ba98eeadabe20bace0254610294565b348015610394575f80fd5b506103546103a33660046128af565b610a8a565b3480156103b3575f80fd5b506103066103c2366004612943565b610bf2565b3480156103d2575f80fd5b506103db610c17565b60405160ff909116815260200161029e565b3480156103f8575f80fd5b50610354610407366004612981565b610c59565b348015610417575f80fd5b50610354610d63565b34801561042b575f80fd5b50610434610eec565b6040516001600160a01b03909116815260200161029e565b348015610457575f80fd5b506102946104663660046129a1565b505f1990565b348015610477575f80fd5b50610354610486366004612815565b610f20565b348015610496575f80fd5b506102946104a5366004612815565b611078565b6103546104b83660046129d0565b611083565b3480156104c8575f80fd5b506102946110a2565b3480156104dc575f80fd5b506102946104eb366004612a96565b6110bd565b3480156104fb575f80fd5b5061029461050a3660046129a1565b6110d7565b34801561051a575f80fd5b506103546110fd565b34801561052e575f80fd5b5061035461053d366004612815565b61110e565b34801561054d575f80fd5b505f54610434906001600160a01b031681565b34801561056b575f80fd5b50610354611224565b34801561057f575f80fd5b5061029460035481565b348015610594575f80fd5b50610434611269565b3480156105a8575f80fd5b506102bb611291565b3480156105bc575f80fd5b506103546105cb366004612ac4565b6112cf565b3480156105db575f80fd5b506103066105ea366004612840565b611480565b3480156105fa575f80fd5b5061035461148d565b34801561060e575f80fd5b506102bb604051806040016040528060058152602001640352e302e360dc1b81525081565b34801561063e575f80fd5b5061029461064d366004612815565b61167e565b34801561065d575f80fd5b5061029461066c366004612b35565b61168a565b34801561067c575f80fd5b5061029461068b366004612b35565b6116a3565b34801561069b575f80fd5b506102946116bd565b3480156106af575f80fd5b506102946106be366004612815565b611724565b3480156106ce575f80fd5b506102946106dd3660046129a1565b61173d565b3480156106ed575f80fd5b50610294611750565b348015610701575f80fd5b50600254610434906001600160a01b031681565b348015610720575f80fd5b5061029461072f3660046129a1565b6117af565b34801561073f575f80fd5b5061029461074e366004612b74565b6117b9565b34801561075e575f80fd5b50610434611802565b348015610772575f80fd5b50600154610434906001600160a01b031681565b348015610791575f80fd5b506102946107a0366004612815565b61182a565b3480156107b0575f80fd5b506103546107bf3660046129a1565b611835565b7f52c63247e1f47db19d5ce0460030c497f067ca4cebf71ba98eeadabe20bace0380546060915f80516020612f0a8339815191529161080290612ba0565b80601f016020809104026020016040519081016040528092919081815260200182805461082e90612ba0565b80156108795780601f1061085057610100808354040283529160200191610879565b820191905f5260205f20905b81548152906001019060200180831161085c57829003601f168201915b505050505091505090565b5f61088d610c17565b60ff166003548361089e9190612bec565b6108a89190612c17565b92915050565b5f336108bb8185856118ba565b5060019392505050565b5f6108a88260016118cc565b6108d961191e565b805f03610912576108e8610eec565b604051636b30633560e01b81526001600160a01b0390911660048201526024015b60405180910390fd5b335f90815260056020526040812054900361096957600780546001810182555f919091527fa66cc928b5edb82af9bd49922954155ab7b0942694bea4ce44661d9a8736c6880180546001600160a01b031916331790555b335f9081526005602052604081208054839290610987908490612c2a565b909155505f9050610996610eec565b6040516323b872dd60e01b8152336004820152306024820152604481018490526001600160a01b0391909116906323b872dd906064016020604051808303815f875af11580156109e8573d5f803e3d5ffd5b505050506040513d601f19601f82011682018060405250810190610a0c9190612c3d565b905080610a2c576040516312171d8360e31b815260040160405180910390fd5b60075460405133917f03979a8c481a9e9c06938045cfd5c28535255cb003b10a8fe84ebb3cb4d440f291610a6891868252602082015260400190565b60405180910390a250610a8760015f80516020612f4a83398151915255565b50565b5f610a93611968565b805490915060ff600160401b820416159067ffffffffffffffff165f81158015610aba5750825b90505f8267ffffffffffffffff166001148015610ad65750303b155b905081158015610ae4575080155b15610b025760405163f92ee8a960e01b815260040160405180910390fd5b845467ffffffffffffffff191660011785558315610b2c57845460ff60401b1916600160401b1785555b610b9f8b8b8b8b8080601f0160208091040260200160405190810160405280939291908181526020018383808284375f9201919091525050604080516020601f8f018190048102820181019092528d815292508d91508c90819084018382808284375f9201919091525061199092505050565b8315610be557845460ff60401b19168555604051600181527fc7f505b2f371ae2175ee4913f4499e1f2633a7b5936321eed1cdaeb6115181d29060200160405180910390a15b5050505050505050505050565b5f33610bff858285611ad2565b610c0a858585611b36565b60019150505b9392505050565b5f807f0773e532dfede91f04b12a73d3d2acd361424f41f76b4fb79f090161e36b4e0090505f8154610c539190600160a01b900460ff16612c5c565b91505090565b5f8054906101000a90046001600160a01b03166001600160a01b031663348ec5c86040518163ffffffff1660e01b8152600401602060405180830381865afa158015610ca7573d5f803e3d5ffd5b505050506040513d601f19601f82011682018060405250810190610ccb9190612c75565b6001600160a01b0316336001600160a01b031614610cfc5760405163efb380d960e01b815260040160405180910390fd5b815f03610d1c57604051634dfba02360e01b815260040160405180910390fd5b6003829055600481905560408051838152602081018390527f420468cf8110435de2f48db96f01d6a65a842cb7ac5852c11fcbac8dc93b46b3910160405180910390a15050565b5f8054906101000a90046001600160a01b03166001600160a01b0316633a0dad8e6040518163ffffffff1660e01b8152600401602060405180830381865afa158015610db1573d5f803e3d5ffd5b505050506040513d601f19601f82011682018060405250810190610dd59190612c75565b6001600160a01b0316336001600160a01b031614610e0657604051631af2ab4f60e31b815260040160405180910390fd5b610e0e61191e565b6007545f5b81811015610ed2575f60078281548110610e2f57610e2f612c90565b5f9182526020808320909101546001600160a01b03168083526005909152604082205490925090610e5f8261182a565b6001600160a01b0384165f908152600560205260408120559050610e838382611b93565b60408051838152602081018690526001600160a01b038516917f782ea2005b7f873a0190a1ccb553c732171348d6e16d2b7d3d493c0677dc296e910160405180910390a2505050600101610e13565b5050610eea60015f80516020612f4a83398151915255565b565b5f807f0773e532dfede91f04b12a73d3d2acd361424f41f76b4fb79f090161e36b4e005b546001600160a01b031692915050565b610f2861191e565b805f03610f37576108e8610eec565b335f90815260056020526040902054811115610f66576040516332194fd360e21b815260040160405180910390fd5b335f9081526005602052604081208054839290610f84908490612ca4565b90915550506007545f610f95610eec565b60405163a9059cbb60e01b8152336004820152602481018590526001600160a01b03919091169063a9059cbb906044016020604051808303815f875af1158015610fe1573d5f803e3d5ffd5b505050506040513d601f19601f820116820180604052508101906110059190612c3d565b905080611025576040516312171d8360e31b815260040160405180910390fd5b604080518481526020810184905233917f3c121205405bd3a6cc45661cccddd03e333ae4ef37be94cfa3880f6d616a20c8910160405180910390a25050610a8760015f80516020612f4a83398151915255565b5f6108a8825f611bc7565b61108b611c16565b61109482611cba565b61109e8282611ce5565b5050565b5f6110ab611da1565b505f80516020612f2a83398151915290565b5f6040516318f2e47360e11b815260040160405180910390fd5b6001600160a01b03165f9081525f80516020612f0a833981519152602052604090205490565b611105611dea565b610eea5f611e1c565b805f0361112e576040516314e6cbb960e11b815260040160405180910390fd5b80611138336110d7565b101561115757604051633c57b48560e21b815260040160405180910390fd5b335f9081526006602052604081205490036111ae57600880546001810182555f919091527ff3f7a9fe364faab93b216da50a3214154f22a0a2b415b23a84c8169e8b636ee30180546001600160a01b031916331790555b335f90815260066020526040812080548392906111cc908490612c2a565b909155506111dd9050333083611b36565b60085460405133917fd72eb5d043f24a0168ae744d5c44f9596fd673a26bf74d9646bff4b844882d149161121991858252602082015260400190565b60405180910390a250565b338061122e611802565b6001600160a01b0316146112605760405163118cdaa760e01b81526001600160a01b0382166004820152602401610909565b610a8781611e1c565b5f807f9016d09d72d40fdae2fd8ceac6b6234c7706214fd39c1cd1e609a0528c199300610f10565b7f52c63247e1f47db19d5ce0460030c497f067ca4cebf71ba98eeadabe20bace0480546060915f80516020612f0a8339815191529161080290612ba0565b6001546001600160a01b031633146112fa576040516356b381a560e01b815260040160405180910390fd5b5f81900361131b57604051631121aa8d60e01b815260040160405180910390fd5b6113256009611e54565b5f5b81811015611451575f83838381811061134257611342612c90565b61135892602060409092020190810191506129a1565b90505f84848481811061136d5761136d612c90565b5f5460408051633af32abf60e01b81526001600160a01b03888116600483015260209290940295909501013594501691633af32abf9150602401602060405180830381865afa1580156113c2573d5f803e3d5ffd5b505050506040513d601f19601f820116820180604052508101906113e69190612c3d565b61140e5760405163751dff9760e11b81526001600160a01b0383166004820152602401610909565b5f61141b60098484611e5d565b905080611446576040516346bdabe160e01b81526001600160a01b0384166004820152602401610909565b505050600101611327565b5060405133907f2d47a742b8d7df7c1fc5a9a631b206b364e6cb2722490759f63bb3ab14b132e0905f90a25050565b5f336108bb818585611b36565b5f8054906101000a90046001600160a01b03166001600160a01b0316633a0dad8e6040518163ffffffff1660e01b8152600401602060405180830381865afa1580156114db573d5f803e3d5ffd5b505050506040513d601f19601f820116820180604052508101906114ff9190612c75565b6001600160a01b0316336001600160a01b03161461153057604051631af2ab4f60e31b815260040160405180910390fd5b61153861191e565b6008545f5b81811015610ed2575f6008828154811061155957611559612c90565b5f9182526020808320909101546001600160a01b03168083526006909152604082208054929055915061158c3082611e7a565b5f61159682611078565b90506115a0610eec565b60405163a9059cbb60e01b81526001600160a01b03858116600483015260248201849052919091169063a9059cbb906044016020604051808303815f875af11580156115ee573d5f803e3d5ffd5b505050506040513d601f19601f820116820180604052508101906116129190612c3d565b61162f576040516312171d8360e31b815260040160405180910390fd5b60408051838152602081018690526001600160a01b038516917febad37b830b1857ef9af5983fc20dc0ded12dc472ba1e22e06fd3a9465b4506c910160405180910390a250505060010161153d565b5f6108a8826001611bc7565b5f604051628a595160e01b815260040160405180910390fd5b5f604051630ad8521960e31b815260040160405180910390fd5b6008545f908190815b8181101561171c5760065f600883815481106116e4576116e4612c90565b5f9182526020808320909101546001600160a01b031683528201929092526040019020546117129084612c2a565b92506001016116c6565b509092915050565b5f600354611730610c17565b61089e9060ff1684612bec565b5f6108a861174a836110d7565b5f611bc7565b6007545f908190815b8181101561171c5760055f6007838154811061177757611777612c90565b5f9182526020808320909101546001600160a01b031683528201929092526040019020546117a59084612c2a565b9250600101611759565b5f6108a8826110d7565b6001600160a01b039182165f9081527f52c63247e1f47db19d5ce0460030c497f067ca4cebf71ba98eeadabe20bace016020908152604080832093909416825291909152205490565b5f807f237e158222e3e6968b72b9db0d8043aacf074ad9f650f0d1606b4d82ee432c00610f10565b5f6108a8825f6118cc565b61183d611dea565b7f237e158222e3e6968b72b9db0d8043aacf074ad9f650f0d1606b4d82ee432c0080546001600160a01b0319166001600160a01b0383169081178255611881611269565b6001600160a01b03167f38d16b8cac22d99fc7c124b9cd0de2d3fa1faef420bfe791d8c362d765e2270060405160405180910390a35050565b6118c78383836001611eae565b505050565b5f610c106118db82600a612d9a565b7f52c63247e1f47db19d5ce0460030c497f067ca4cebf71ba98eeadabe20bace02546119079190612c2a565b600454611915906001612c2a565b85919085611f92565b5f80516020612f4a83398151915280546001190161194f57604051633ee5aeb560e01b815260040160405180910390fd5b60029055565b60015f80516020612f4a83398151915255565b5f807ff0c57e16840df040f15088dc2f81fe391c3923bec73e23a9662efc9c229c6a006108a8565b611998611fdd565b6001600160a01b0384166119bf57604051639c6bb9f560e01b815260040160405180910390fd5b6001600160a01b0383166119e657604051636a485a5b60e11b815260040160405180910390fd5b6119f08282612002565b611a58836001600160a01b0316637158da7c6040518163ffffffff1660e01b8152600401602060405180830381865afa158015611a2f573d5f803e3d5ffd5b505050506040513d601f19601f82011682018060405250810190611a539190612c75565b612014565b611a60612025565b611a68612035565b611a70612035565b611a7984611e1c565b60028054336001600160a01b0319918216179091556001805482166001600160a01b03878116919091179091555f8054909216908516179055611aba610c17565b611ac590600a612d9a565b60035550505f6004555050565b5f611add84846117b9565b90505f19811015611b305781811015611b2257604051637dc7a0d960e11b81526001600160a01b03841660048201526024810182905260448101839052606401610909565b611b3084848484035f611eae565b50505050565b6001600160a01b038316611b5f57604051634b637e8f60e11b81525f6004820152602401610909565b6001600160a01b038216611b885760405163ec442f0560e01b81525f6004820152602401610909565b6118c783838361203d565b6001600160a01b038216611bbc5760405163ec442f0560e01b81525f6004820152602401610909565b61109e5f838361203d565b5f610c10611bd460045490565b611bdf906001612c2a565b611bea5f600a612d9a565b7f52c63247e1f47db19d5ce0460030c497f067ca4cebf71ba98eeadabe20bace02546119159190612c2a565b306001600160a01b037f0000000000000000000000000000000000000000000000000000000000000000161480611c9c57507f00000000000000000000000000000000000000000000000000000000000000006001600160a01b0316611c905f80516020612f2a833981519152546001600160a01b031690565b6001600160a01b031614155b15610eea5760405163703e46dd60e11b815260040160405180910390fd5b6001546001600160a01b03163314610a87576040516356b381a560e01b815260040160405180910390fd5b816001600160a01b03166352d1902d6040518163ffffffff1660e01b8152600401602060405180830381865afa925050508015611d3f575060408051601f3d908101601f19168201909252611d3c91810190612da8565b60015b611d6757604051634c9c8ce360e01b81526001600160a01b0383166004820152602401610909565b5f80516020612f2a8339815191528114611d9757604051632a87526960e21b815260048101829052602401610909565b6118c78383612176565b306001600160a01b037f00000000000000000000000000000000000000000000000000000000000000001614610eea5760405163703e46dd60e11b815260040160405180910390fd5b33611df3611269565b6001600160a01b031614610eea5760405163118cdaa760e01b8152336004820152602401610909565b7f237e158222e3e6968b72b9db0d8043aacf074ad9f650f0d1606b4d82ee432c0080546001600160a01b031916815561109e826121cb565b610a878161223b565b5f611e72846001600160a01b03851684612284565b949350505050565b6001600160a01b038216611ea357604051634b637e8f60e11b81525f6004820152602401610909565b61109e825f8361203d565b5f80516020612f0a8339815191526001600160a01b038516611ee55760405163e602df0560e01b81525f6004820152602401610909565b6001600160a01b038416611f0e57604051634a1406b160e11b81525f6004820152602401610909565b6001600160a01b038086165f90815260018301602090815260408083209388168352929052208390558115611f8b57836001600160a01b0316856001600160a01b03167f8c5be1e5ebec7d5bd14f71427d1e84f3dd0314c0f7b2291e5b200ac8c7c3b92585604051611f8291815260200190565b60405180910390a35b5050505050565b5f611fbf611f9f836122a0565b8015611fba57505f8480611fb557611fb5612c03565b868809115b151590565b611fca8686866122cc565b611fd49190612c2a565b95945050505050565b611fe561237c565b610eea57604051631afcd79f60e31b815260040160405180910390fd5b61200a611fdd565b61109e8282612395565b61201c611fdd565b610a87816123e5565b61202d611fdd565b610eea612468565b610eea611fdd565b5f80516020612f0a8339815191526001600160a01b0384166120775781816002015f82825461206c9190612c2a565b909155506120e79050565b6001600160a01b0384165f90815260208290526040902054828110156120c95760405163391434e360e21b81526001600160a01b03861660048201526024810182905260448101849052606401610909565b6001600160a01b0385165f9081526020839052604090209083900390555b6001600160a01b038316612105576002810180548390039055612123565b6001600160a01b0383165f9081526020829052604090208054830190555b826001600160a01b0316846001600160a01b03167fddf252ad1be2c89b69c2b068fc378daa952ba7f163c4a11628f55a4df523b3ef8460405161216891815260200190565b60405180910390a350505050565b61217f82612470565b6040516001600160a01b038316907fbc7cd75a20ee27fd9adebab32041f755214dbc6bffa90cc0225b39da2e5c2d3b905f90a28051156121c3576118c782826124d3565b61109e61253c565b7f9016d09d72d40fdae2fd8ceac6b6234c7706214fd39c1cd1e609a0528c19930080546001600160a01b031981166001600160a01b03848116918217845560405192169182907f8be0079c531659141344cd1fd0a4f28419497f9722a3daafe3b4186f6b6457e0905f90a3505050565b5f6122458261255b565b90505f5b8181101561227a57600283015f6122608584612565565b815260208101919091526040015f90812055600101612249565b5061109e82612570565b5f8281526002840160205260408120829055611e728484612579565b5f60028260038111156122b5576122b5612dbf565b6122bf9190612dd3565b60ff166001149050919050565b5f805f6122d98686612584565b91509150815f036122fd578381816122f3576122f3612c03565b0492505050610c10565b8184116123145761231460038515026011186125a0565b5f848688095f868103871696879004966002600389028118808a02820302808a02820302808a02820302808a02820302808a02820302808a02909103029181900381900460010185841190960395909502919093039390930492909217029150509392505050565b5f612385611968565b54600160401b900460ff16919050565b61239d611fdd565b5f80516020612f0a8339815191527f52c63247e1f47db19d5ce0460030c497f067ca4cebf71ba98eeadabe20bace036123d68482612e38565b5060048101611b308382612e38565b6123ed611fdd565b7f0773e532dfede91f04b12a73d3d2acd361424f41f76b4fb79f090161e36b4e005f80612419846125b1565b915091508161242957601261242b565b805b83546001600160a81b031916600160a01b60ff92909216919091026001600160a01b031916176001600160a01b0394909416939093179091555050565b611955611fdd565b806001600160a01b03163b5f036124a557604051634c9c8ce360e01b81526001600160a01b0382166004820152602401610909565b5f80516020612f2a83398151915280546001600160a01b0319166001600160a01b0392909216919091179055565b60605f80846001600160a01b0316846040516124ef9190612ef3565b5f60405180830381855af49150503d805f8114612527576040519150601f19603f3d011682016040523d82523d5f602084013e61252c565b606091505b5091509150611fd4858383612687565b3415610eea5760405163b398979f60e01b815260040160405180910390fd5b5f6108a8826126e3565b5f610c1083836126ec565b610a8781612712565b5f610c10838361276b565b5f805f1983850993909202808410938190039390930393915050565b634e487b715f52806020526024601cfd5b60408051600481526024810182526020810180516001600160e01b031663313ce56760e01b17905290515f918291829182916001600160a01b038716916125f791612ef3565b5f60405180830381855afa9150503d805f811461262f576040519150601f19603f3d011682016040523d82523d5f602084013e612634565b606091505b509150915081801561264857506020815110155b1561267b575f818060200190518101906126629190612da8565b905060ff8111612679576001969095509350505050565b505b505f9485945092505050565b60608261269c57612697826127b7565b610c10565b81511580156126b357506001600160a01b0384163b155b156126dc57604051639996b31560e01b81526001600160a01b0385166004820152602401610909565b5080610c10565b5f6108a8825490565b5f825f01828154811061270157612701612c90565b905f5260205f200154905092915050565b5f61271b825490565b90505f5b8181101561276457826001015f845f01838154811061274057612740612c90565b905f5260205f20015481526020019081526020015f205f905580600101905061271f565b50505f9055565b5f8181526001830160205260408120546127b057508154600181810184555f8481526020808220909301849055845484825282860190935260409020919091556108a8565b505f6108a8565b8051156127c75780518082602001fd5b60405163d6bda27560e01b815260040160405180910390fd5b602081525f82518060208401528060208501604085015e5f604082850101526040601f19601f83011684010191505092915050565b5f60208284031215612825575f80fd5b5035919050565b6001600160a01b0381168114610a87575f80fd5b5f8060408385031215612851575f80fd5b823561285c8161282c565b946020939093013593505050565b5f8083601f84011261287a575f80fd5b50813567ffffffffffffffff811115612891575f80fd5b6020830191508360208285010111156128a8575f80fd5b9250929050565b5f805f805f80608087890312156128c4575f80fd5b86356128cf8161282c565b955060208701356128df8161282c565b9450604087013567ffffffffffffffff8111156128fa575f80fd5b61290689828a0161286a565b909550935050606087013567ffffffffffffffff811115612925575f80fd5b61293189828a0161286a565b979a9699509497509295939492505050565b5f805f60608486031215612955575f80fd5b83356129608161282c565b925060208401356129708161282c565b929592945050506040919091013590565b5f8060408385031215612992575f80fd5b50508035926020909101359150565b5f602082840312156129b1575f80fd5b8135610c108161282c565b634e487b7160e01b5f52604160045260245ffd5b5f80604083850312156129e1575f80fd5b82356129ec8161282c565b9150602083013567ffffffffffffffff811115612a07575f80fd5b8301601f81018513612a17575f80fd5b803567ffffffffffffffff811115612a3157612a316129bc565b604051601f8201601f19908116603f0116810167ffffffffffffffff81118282101715612a6057612a606129bc565b604052818152828201602001871015612a77575f80fd5b816020840160208301375f602083830101528093505050509250929050565b5f8060408385031215612aa7575f80fd5b823591506020830135612ab98161282c565b809150509250929050565b5f8060208385031215612ad5575f80fd5b823567ffffffffffffffff811115612aeb575f80fd5b8301601f81018513612afb575f80fd5b803567ffffffffffffffff811115612b11575f80fd5b8560208260061b8401011115612b25575f80fd5b6020919091019590945092505050565b5f805f60608486031215612b47575f80fd5b833592506020840135612b598161282c565b91506040840135612b698161282c565b809150509250925092565b5f8060408385031215612b85575f80fd5b8235612b908161282c565b91506020830135612ab98161282c565b600181811c90821680612bb457607f821691505b602082108103612bd257634e487b7160e01b5f52602260045260245ffd5b50919050565b634e487b7160e01b5f52601160045260245ffd5b80820281158282048414176108a8576108a8612bd8565b634e487b7160e01b5f52601260045260245ffd5b5f82612c2557612c25612c03565b500490565b808201808211156108a8576108a8612bd8565b5f60208284031215612c4d575f80fd5b81518015158114610c10575f80fd5b60ff81811683821601908111156108a8576108a8612bd8565b5f60208284031215612c85575f80fd5b8151610c108161282c565b634e487b7160e01b5f52603260045260245ffd5b818103818111156108a8576108a8612bd8565b6001815b6001841115612cf257808504811115612cd657612cd6612bd8565b6001841615612ce457908102905b60019390931c928002612cbb565b935093915050565b5f82612d08575060016108a8565b81612d1457505f6108a8565b8160018114612d2a5760028114612d3457612d50565b60019150506108a8565b60ff841115612d4557612d45612bd8565b50506001821b6108a8565b5060208310610133831016604e8410600b8410161715612d73575081810a6108a8565b612d7f5f198484612cb7565b805f1904821115612d9257612d92612bd8565b029392505050565b5f610c1060ff841683612cfa565b5f60208284031215612db8575f80fd5b5051919050565b634e487b7160e01b5f52602160045260245ffd5b5f60ff831680612de557612de5612c03565b8060ff84160691505092915050565b601f8211156118c757805f5260205f20601f840160051c81016020851015612e195750805b601f840160051c820191505b81811015611f8b575f8155600101612e25565b815167ffffffffffffffff811115612e5257612e526129bc565b612e6681612e608454612ba0565b84612df4565b6020601f821160018114612e98575f8315612e815750848201515b5f19600385901b1c1916600184901b178455611f8b565b5f84815260208120601f198516915b82811015612ec75787850151825560209485019460019092019101612ea7565b5084821015612ee457868401515f19600387901b60f8161c191681555b50505050600190811b01905550565b5f82518060208501845e5f92019182525091905056fe52c63247e1f47db19d5ce0460030c497f067ca4cebf71ba98eeadabe20bace00360894a13ba1a3210667c828492db98dca3e2076cc3735a920a3ca505d382bbc9b779b17422d0df92223018b32b4d1fa46e071723d6817e2486d003becc55f00a26469706673582212203a285fd9d846f0bd9394937fe23c419c5270ff22014b84920f868d45bbc2f55964736f6c634300081a0033",
  "linkReferences": {},
  "deployedLinkReferences": {}
}