{
  "_format": "hh-sol-artifact-1",
  "contractName": "OrionAssetERC4626ExecutionAdapter",
  "sourceName": "contracts/execution/OrionAssetERC4626ExecutionAdapter.sol",
  "abi": [
    {
      "inputs": [
        {
          "internalType": "address",
          "name": "configAddress",
          "type": "address"
        }
      ],
      "stateMutability": "nonpayable",
      "type": "constructor"
    },
    {
      "inputs": [
        {
          "internalType": "address",
          "name": "asset",
          "type": "address"
        }
      ],
      "name": "AmountMustBeGreaterThanZero",
      "type": "error"
    },
    {
      "inputs": [],
      "name": "InvalidAddress",
      "type": "error"
    },
    {
      "inputs": [
        {
          "internalType": "address",
          "name": "token",
          "type": "address"
        }
      ],
      "name": "SafeERC20FailedOperation",
      "type": "error"
    },
    {
      "inputs": [],
      "name": "TransferFailed",
      "type": "error"
    },
    {
      "inputs": [],
      "name": "UnauthorizedAccess",
      "type": "error"
    },
    {
      "inputs": [],
      "name": "ZeroAddress",
      "type": "error"
    },
    {
      "inputs": [
        {
          "internalType": "address",
          "name": "vaultAsset",
          "type": "address"
        },
        {
          "internalType": "uint256",
          "name": "sharesAmount",
          "type": "uint256"
        }
      ],
      "name": "buy",
      "outputs": [
        {
          "internalType": "uint256",
          "name": "spentUnderlyingAmount",
          "type": "uint256"
        }
      ],
      "stateMutability": "nonpayable",
      "type": "function"
    },
    {
      "inputs": [],
      "name": "config",
      "outputs": [
        {
          "internalType": "contract IOrionConfig",
          "name": "",
          "type": "address"
        }
      ],
      "stateMutability": "view",
      "type": "function"
    },
    {
      "inputs": [],
      "name": "liquidityOrchestrator",
      "outputs": [
        {
          "internalType": "address",
          "name": "",
          "type": "address"
        }
      ],
      "stateMutability": "view",
      "type": "function"
    },
    {
      "inputs": [
        {
          "internalType": "address",
          "name": "vaultAsset",
          "type": "address"
        },
        {
          "internalType": "uint256",
          "name": "sharesAmount",
          "type": "uint256"
        }
      ],
      "name": "sell",
      "outputs": [
        {
          "internalType": "uint256",
          "name": "receivedUnderlyingAmount",
          "type": "uint256"
        }
      ],
      "stateMutability": "nonpayable",
      "type": "function"
    },
    {
      "inputs": [],
      "name": "underlyingAsset",
      "outputs": [
        {
          "internalType": "address",
          "name": "",
          "type": "address"
        }
      ],
      "stateMutability": "view",
      "type": "function"
    },
    {
      "inputs": [],
      "name": "underlyingAssetToken",
      "outputs": [
        {
          "internalType": "contract IERC20",
          "name": "",
          "type": "address"
        }
      ],
      "stateMutability": "view",
      "type": "function"
    },
    {
      "inputs": [
        {
          "internalType": "address",
          "name": "asset",
          "type": "address"
        }
      ],
      "name": "validateExecutionAdapter",
      "outputs": [
        {
          "internalType": "bool",
          "name": "",
          "type": "bool"
        }
      ],
      "stateMutability": "view",
      "type": "function"
    }
  ],
  "bytecode": "0x608060405234801561000f575f5ffd5b5060405161093b38038061093b83398101604081905261002e9161019b565b6001600160a01b0381166100555760405163d92e233d60e01b815260040160405180910390fd5b5f80546001600160a01b0319166001600160a01b03831690811790915560408051631c56369f60e21b81529051637158da7c916004808201926020929091908290030181865afa1580156100ab573d5f5f3e3d5ffd5b505050506040513d601f19601f820116820180604052508101906100cf919061019b565b600180546001600160a01b039283166001600160a01b031991821681179092556002805490911690911790555f5460408051631d06d6c760e11b815290519190921691633a0dad8e9160048083019260209291908290030181865afa15801561013a573d5f5f3e3d5ffd5b505050506040513d601f19601f8201168201806040525081019061015e919061019b565b600380546001600160a01b0319166001600160a01b0392909216919091179055506101bd565b6001600160a01b0381168114610198575f5ffd5b50565b5f602082840312156101ab575f5ffd5b81516101b681610184565b9392505050565b610771806101ca5f395ff3fe608060405234801561000f575f5ffd5b506004361061006b575f3560e01c80633a0dad8e1461006f5780633da7c9f6146100985780636c197ff5146100bb5780637158da7c146100dc57806379502c55146100ef578063ad071f0014610101578063cce7ec1314610114575b5f5ffd5b600354610082906001600160a01b031681565b60405161008f919061065a565b60405180910390f35b6100ab6100a6366004610685565b610127565b604051901515815260200161008f565b6100ce6100c93660046106a7565b6101d6565b60405190815260200161008f565b600154610082906001600160a01b031681565b5f54610082906001600160a01b031681565b600254610082906001600160a01b031681565b6100ce6101223660046106a7565b6102ad565b5f816001600160a01b03166338d52e0f6040518163ffffffff1660e01b8152600401602060405180830381865afa925050508015610182575060408051601f3d908101601f1916820190925261017f918101906106d1565b60015b61019f5760405163e6c4247b60e01b815260040160405180910390fd5b6001546001600160a01b038281169116146101cd5760405163e6c4247b60e01b815260040160405180910390fd5b50506001919050565b6003545f906001600160a01b0316331461020357604051631a27eac360e11b815260040160405180910390fd5b815f0361022e5782604051636b30633560e01b8152600401610225919061065a565b60405180910390fd5b604051635d043b2960e11b8152600481018390523360248201819052604482015283906001600160a01b0382169063ba087652906064016020604051808303815f875af1158015610281573d5f5f3e3d5ffd5b505050506040513d601f19601f820116820180604052508101906102a591906106ec565b949350505050565b6003545f906001600160a01b031633146102da57604051631a27eac360e11b815260040160405180910390fd5b815f036102fc5782604051636b30633560e01b8152600401610225919061065a565b60405163b3d7f6b960e01b81526004810183905283906001600160a01b0382169063b3d7f6b990602401602060405180830381865afa158015610341573d5f5f3e3d5ffd5b505050506040513d601f19601f8201168201806040525081019061036591906106ec565b600254909250610380906001600160a01b03163330856104b5565b600254610397906001600160a01b03168584610522565b604051636e553f6560e01b8152600481018390523060248201526001600160a01b03821690636e553f65906044016020604051808303815f875af11580156103e1573d5f5f3e3d5ffd5b505050506040513d601f19601f8201168201806040525081019061040591906106ec565b5060025461041d906001600160a01b0316855f610522565b60405163a9059cbb60e01b81525f906001600160a01b0383169063a9059cbb9061044d9033908890600401610703565b6020604051808303815f875af1158015610469573d5f5f3e3d5ffd5b505050506040513d601f19601f8201168201806040525081019061048d919061071c565b9050806104ad576040516312171d8360e31b815260040160405180910390fd5b505092915050565b6040516001600160a01b03848116602483015283811660448301526064820183905261051c9186918216906323b872dd906084015b604051602081830303815290604052915060e01b6020820180516001600160e01b0383818316178352505050506105ae565b50505050565b5f836001600160a01b031663095ea7b38484604051602401610545929190610703565b604051602081830303815290604052915060e01b6020820180516001600160e01b038381831617835250505050905061057e8482610611565b61051c576105a884856001600160a01b031663095ea7b3865f6040516024016104ea929190610703565b61051c84825b5f5f60205f8451602086015f885af1806105cd576040513d5f823e3d81fd5b50505f513d915081156105e45780600114156105f1565b6001600160a01b0384163b155b1561051c5783604051635274afe760e01b8152600401610225919061065a565b5f5f5f5f60205f8651602088015f8a5af192503d91505f519050828015610650575081156106425780600114610650565b5f866001600160a01b03163b115b9695505050505050565b6001600160a01b0391909116815260200190565b6001600160a01b0381168114610682575f5ffd5b50565b5f60208284031215610695575f5ffd5b81356106a08161066e565b9392505050565b5f5f604083850312156106b8575f5ffd5b82356106c38161066e565b946020939093013593505050565b5f602082840312156106e1575f5ffd5b81516106a08161066e565b5f602082840312156106fc575f5ffd5b5051919050565b6001600160a01b03929092168252602082015260400190565b5f6020828403121561072c575f5ffd5b815180151581146106a0575f5ffdfea2646970667358221220c189c8cd2b04eba5bdd929bf2c83026ad6fe14f354966095e69925d6a58c9d9364736f6c634300081c0033",
  "linkReferences": {},
  "deployedLinkReferences": {}
}