{
  "_format": "hh-sol-artifact-1",
  "contractName": "OrionAssetERC4626ExecutionAdapter",
  "sourceName": "contracts/execution/OrionAssetERC4626ExecutionAdapter.sol",
  "abi": [
    {
      "inputs": [
        {
          "internalType": "address",
          "name": "initialOwner",
          "type": "address"
        },
        {
          "internalType": "address",
          "name": "configAddress",
          "type": "address"
        }
      ],
      "stateMutability": "nonpayable",
      "type": "constructor"
    },
    {
      "inputs": [
        {
          "internalType": "address",
          "name": "asset",
          "type": "address"
        }
      ],
      "name": "AmountMustBeGreaterThanZero",
      "type": "error"
    },
    {
      "inputs": [],
      "name": "InvalidAsset",
      "type": "error"
    },
    {
      "inputs": [
        {
          "internalType": "address",
          "name": "owner",
          "type": "address"
        }
      ],
      "name": "OwnableInvalidOwner",
      "type": "error"
    },
    {
      "inputs": [
        {
          "internalType": "address",
          "name": "account",
          "type": "address"
        }
      ],
      "name": "OwnableUnauthorizedAccount",
      "type": "error"
    },
    {
      "inputs": [
        {
          "internalType": "address",
          "name": "token",
          "type": "address"
        }
      ],
      "name": "SafeERC20FailedOperation",
      "type": "error"
    },
    {
      "inputs": [],
      "name": "TransferFailed",
      "type": "error"
    },
    {
      "inputs": [],
      "name": "UnauthorizedAccess",
      "type": "error"
    },
    {
      "inputs": [],
      "name": "ZeroAddress",
      "type": "error"
    },
    {
      "anonymous": false,
      "inputs": [
        {
          "indexed": true,
          "internalType": "address",
          "name": "previousOwner",
          "type": "address"
        },
        {
          "indexed": true,
          "internalType": "address",
          "name": "newOwner",
          "type": "address"
        }
      ],
      "name": "OwnershipTransferred",
      "type": "event"
    },
    {
      "inputs": [
        {
          "internalType": "address",
          "name": "vaultAsset",
          "type": "address"
        },
        {
          "internalType": "uint256",
          "name": "amount",
          "type": "uint256"
        }
      ],
      "name": "buy",
      "outputs": [],
      "stateMutability": "nonpayable",
      "type": "function"
    },
    {
      "inputs": [],
      "name": "config",
      "outputs": [
        {
          "internalType": "contract IOrionConfig",
          "name": "",
          "type": "address"
        }
      ],
      "stateMutability": "view",
      "type": "function"
    },
    {
      "inputs": [],
      "name": "liquidityOrchestrator",
      "outputs": [
        {
          "internalType": "address",
          "name": "",
          "type": "address"
        }
      ],
      "stateMutability": "view",
      "type": "function"
    },
    {
      "inputs": [],
      "name": "owner",
      "outputs": [
        {
          "internalType": "address",
          "name": "",
          "type": "address"
        }
      ],
      "stateMutability": "view",
      "type": "function"
    },
    {
      "inputs": [],
      "name": "renounceOwnership",
      "outputs": [],
      "stateMutability": "nonpayable",
      "type": "function"
    },
    {
      "inputs": [
        {
          "internalType": "address",
          "name": "vaultAsset",
          "type": "address"
        },
        {
          "internalType": "uint256",
          "name": "amount",
          "type": "uint256"
        }
      ],
      "name": "sell",
      "outputs": [],
      "stateMutability": "nonpayable",
      "type": "function"
    },
    {
      "inputs": [
        {
          "internalType": "address",
          "name": "newOwner",
          "type": "address"
        }
      ],
      "name": "transferOwnership",
      "outputs": [],
      "stateMutability": "nonpayable",
      "type": "function"
    },
    {
      "inputs": [],
      "name": "underlyingAsset",
      "outputs": [
        {
          "internalType": "address",
          "name": "",
          "type": "address"
        }
      ],
      "stateMutability": "view",
      "type": "function"
    },
    {
      "inputs": [],
      "name": "underlyingAssetToken",
      "outputs": [
        {
          "internalType": "contract IERC20",
          "name": "",
          "type": "address"
        }
      ],
      "stateMutability": "view",
      "type": "function"
    },
    {
      "inputs": [],
      "name": "updateFromConfig",
      "outputs": [],
      "stateMutability": "nonpayable",
      "type": "function"
    }
  ],
  "bytecode": "0x608060405234801561000f575f5ffd5b50604051610d12380380610d1283398101604081905261002e9161027a565b816001600160a01b03811661005d57604051631e4fbdf760e01b81525f60048201526024015b60405180910390fd5b610066816100b8565b506001600160a01b03811661008e5760405163d92e233d60e01b815260040160405180910390fd5b600180546001600160a01b0319166001600160a01b0383161790556100b1610107565b50506102d4565b5f80546001600160a01b038381166001600160a01b0319831681178455604051919092169283917f8be0079c531659141344cd1fd0a4f28419497f9722a3daafe3b4186f6b6457e09190a35050565b61010f610235565b60015f9054906101000a90046001600160a01b03166001600160a01b0316637158da7c6040518163ffffffff1660e01b8152600401602060405180830381865afa15801561015f573d5f5f3e3d5ffd5b505050506040513d601f19601f8201168201806040525081019061018391906102b2565b600280546001600160a01b039283166001600160a01b0319918216811790925560038054909116909117905560015460408051631d06d6c760e11b815290519190921691633a0dad8e9160048083019260209291908290030181865afa1580156101ef573d5f5f3e3d5ffd5b505050506040513d601f19601f8201168201806040525081019061021391906102b2565b600480546001600160a01b0319166001600160a01b0392909216919091179055565b5f546001600160a01b031633146102615760405163118cdaa760e01b8152336004820152602401610054565b565b6001600160a01b0381168114610277575f5ffd5b50565b5f5f6040838503121561028b575f5ffd5b825161029681610263565b60208401519092506102a781610263565b809150509250929050565b5f602082840312156102c2575f5ffd5b81516102cd81610263565b9392505050565b610a31806102e15f395ff3fe608060405234801561000f575f5ffd5b506004361061009b575f3560e01c806379502c551161006357806379502c55146101065780638da5cb5b14610119578063ad071f0014610129578063cce7ec131461013c578063f2fde38b1461014f575f5ffd5b8063288157e91461009f5780633a0dad8e146100a95780636c197ff5146100d8578063715018a6146100eb5780637158da7c146100f3575b5f5ffd5b6100a7610162565b005b6004546100bc906001600160a01b031681565b6040516001600160a01b03909116815260200160405180910390f35b6100a76100e636600461095e565b610290565b6100a76104e2565b6002546100bc906001600160a01b031681565b6001546100bc906001600160a01b031681565b5f546001600160a01b03166100bc565b6003546100bc906001600160a01b031681565b6100a761014a36600461095e565b6104f5565b6100a761015d366004610988565b6106e1565b61016a61071e565b60015f9054906101000a90046001600160a01b03166001600160a01b0316637158da7c6040518163ffffffff1660e01b8152600401602060405180830381865afa1580156101ba573d5f5f3e3d5ffd5b505050506040513d601f19601f820116820180604052508101906101de91906109aa565b600280546001600160a01b039283166001600160a01b0319918216811790925560038054909116909117905560015460408051631d06d6c760e11b815290519190921691633a0dad8e9160048083019260209291908290030181865afa15801561024a573d5f5f3e3d5ffd5b505050506040513d601f19601f8201168201806040525081019061026e91906109aa565b600480546001600160a01b0319166001600160a01b0392909216919091179055565b6004546001600160a01b031633146102bb57604051631a27eac360e11b815260040160405180910390fd5b816001600160a01b03166338d52e0f6040518163ffffffff1660e01b8152600401602060405180830381865afa925050508015610315575060408051601f3d908101601f19168201909252610312918101906109aa565b60015b61033257604051636448d6e960e11b815260040160405180910390fd5b6002546001600160a01b0382811691161461036057604051636448d6e960e11b815260040160405180910390fd5b50805f0361039157604051636b30633560e01b81526001600160a01b03831660048201526024015b60405180910390fd5b816103a76001600160a01b03821633308561074a565b6103bb6001600160a01b03821684846107b7565b604051635d043b2960e11b815260048101839052306024820181905260448201525f906001600160a01b0385169063ba087652906064016020604051808303815f875af115801561040e573d5f5f3e3d5ffd5b505050506040513d601f19601f8201168201806040525081019061043291906109c5565b90506104486001600160a01b038316855f6107b7565b60035460405163a9059cbb60e01b8152336004820152602481018390525f916001600160a01b03169063a9059cbb906044015b6020604051808303815f875af1158015610497573d5f5f3e3d5ffd5b505050506040513d601f19601f820116820180604052508101906104bb91906109dc565b9050806104db576040516312171d8360e31b815260040160405180910390fd5b5050505050565b6104ea61071e565b6104f35f610846565b565b6004546001600160a01b0316331461052057604051631a27eac360e11b815260040160405180910390fd5b816001600160a01b03166338d52e0f6040518163ffffffff1660e01b8152600401602060405180830381865afa92505050801561057a575060408051601f3d908101601f19168201909252610577918101906109aa565b60015b61059757604051636448d6e960e11b815260040160405180910390fd5b6002546001600160a01b038281169116146105c557604051636448d6e960e11b815260040160405180910390fd5b50805f036105f157604051636b30633560e01b81526001600160a01b0383166004820152602401610388565b600354829061060b906001600160a01b031633308561074a565b600354610622906001600160a01b031684846107b7565b604051636e553f6560e01b8152600481018390523060248201525f906001600160a01b03831690636e553f65906044016020604051808303815f875af115801561066e573d5f5f3e3d5ffd5b505050506040513d601f19601f8201168201806040525081019061069291906109c5565b6003549091506106ac906001600160a01b0316855f6107b7565b60405163a9059cbb60e01b8152336004820152602481018290525f906001600160a01b0384169063a9059cbb9060440161047b565b6106e961071e565b6001600160a01b03811661071257604051631e4fbdf760e01b81525f6004820152602401610388565b61071b81610846565b50565b5f546001600160a01b031633146104f35760405163118cdaa760e01b8152336004820152602401610388565b6040516001600160a01b0384811660248301528381166044830152606482018390526107b19186918216906323b872dd906084015b604051602081830303815290604052915060e01b6020820180516001600160e01b038381831617835250505050610895565b50505050565b604080516001600160a01b038416602482015260448082018490528251808303909101815260649091019091526020810180516001600160e01b031663095ea7b360e01b1790526108088482610901565b6107b1576040516001600160a01b0384811660248301525f604483015261083c91869182169063095ea7b39060640161077f565b6107b18482610895565b5f80546001600160a01b038381166001600160a01b0319831681178455604051919092169283917f8be0079c531659141344cd1fd0a4f28419497f9722a3daafe3b4186f6b6457e09190a35050565b5f5f60205f8451602086015f885af1806108b4576040513d5f823e3d81fd5b50505f513d915081156108cb5780600114156108d8565b6001600160a01b0384163b155b156107b157604051635274afe760e01b81526001600160a01b0385166004820152602401610388565b5f5f5f5f60205f8651602088015f8a5af192503d91505f519050828015610940575081156109325780600114610940565b5f866001600160a01b03163b115b9695505050505050565b6001600160a01b038116811461071b575f5ffd5b5f5f6040838503121561096f575f5ffd5b823561097a8161094a565b946020939093013593505050565b5f60208284031215610998575f5ffd5b81356109a38161094a565b9392505050565b5f602082840312156109ba575f5ffd5b81516109a38161094a565b5f602082840312156109d5575f5ffd5b5051919050565b5f602082840312156109ec575f5ffd5b815180151581146109a3575f5ffdfea26469706673582212205bf38762f6f8ad6c1155ccb386e315c752a5bfbda976a6682a655fbdfc9d4f4d64736f6c634300081c0033",
  "linkReferences": {},
  "deployedLinkReferences": {}
}