{
  "_format": "hh-sol-artifact-1",
  "contractName": "OrionAssetERC4626ExecutionAdapter",
  "sourceName": "contracts/execution/OrionAssetERC4626ExecutionAdapter.sol",
  "abi": [
    {
      "inputs": [
        {
          "internalType": "address",
          "name": "initialOwner",
          "type": "address"
        },
        {
          "internalType": "address",
          "name": "configAddress",
          "type": "address"
        }
      ],
      "stateMutability": "nonpayable",
      "type": "constructor"
    },
    {
      "inputs": [
        {
          "internalType": "address",
          "name": "asset",
          "type": "address"
        }
      ],
      "name": "AmountMustBeGreaterThanZero",
      "type": "error"
    },
    {
      "inputs": [],
      "name": "InvalidAsset",
      "type": "error"
    },
    {
      "inputs": [
        {
          "internalType": "address",
          "name": "owner",
          "type": "address"
        }
      ],
      "name": "OwnableInvalidOwner",
      "type": "error"
    },
    {
      "inputs": [
        {
          "internalType": "address",
          "name": "account",
          "type": "address"
        }
      ],
      "name": "OwnableUnauthorizedAccount",
      "type": "error"
    },
    {
      "inputs": [
        {
          "internalType": "address",
          "name": "token",
          "type": "address"
        }
      ],
      "name": "SafeERC20FailedOperation",
      "type": "error"
    },
    {
      "inputs": [],
      "name": "SystemNotIdle",
      "type": "error"
    },
    {
      "inputs": [],
      "name": "TransferFailed",
      "type": "error"
    },
    {
      "inputs": [],
      "name": "UnauthorizedAccess",
      "type": "error"
    },
    {
      "inputs": [],
      "name": "ZeroAddress",
      "type": "error"
    },
    {
      "anonymous": false,
      "inputs": [
        {
          "indexed": true,
          "internalType": "address",
          "name": "previousOwner",
          "type": "address"
        },
        {
          "indexed": true,
          "internalType": "address",
          "name": "newOwner",
          "type": "address"
        }
      ],
      "name": "OwnershipTransferred",
      "type": "event"
    },
    {
      "inputs": [
        {
          "internalType": "address",
          "name": "vaultAsset",
          "type": "address"
        },
        {
          "internalType": "uint256",
          "name": "amount",
          "type": "uint256"
        }
      ],
      "name": "buy",
      "outputs": [],
      "stateMutability": "nonpayable",
      "type": "function"
    },
    {
      "inputs": [],
      "name": "config",
      "outputs": [
        {
          "internalType": "contract IOrionConfig",
          "name": "",
          "type": "address"
        }
      ],
      "stateMutability": "view",
      "type": "function"
    },
    {
      "inputs": [],
      "name": "liquidityOrchestrator",
      "outputs": [
        {
          "internalType": "address",
          "name": "",
          "type": "address"
        }
      ],
      "stateMutability": "view",
      "type": "function"
    },
    {
      "inputs": [],
      "name": "owner",
      "outputs": [
        {
          "internalType": "address",
          "name": "",
          "type": "address"
        }
      ],
      "stateMutability": "view",
      "type": "function"
    },
    {
      "inputs": [],
      "name": "renounceOwnership",
      "outputs": [],
      "stateMutability": "nonpayable",
      "type": "function"
    },
    {
      "inputs": [
        {
          "internalType": "address",
          "name": "vaultAsset",
          "type": "address"
        },
        {
          "internalType": "uint256",
          "name": "amount",
          "type": "uint256"
        }
      ],
      "name": "sell",
      "outputs": [],
      "stateMutability": "nonpayable",
      "type": "function"
    },
    {
      "inputs": [
        {
          "internalType": "address",
          "name": "newOwner",
          "type": "address"
        }
      ],
      "name": "transferOwnership",
      "outputs": [],
      "stateMutability": "nonpayable",
      "type": "function"
    },
    {
      "inputs": [],
      "name": "underlyingAsset",
      "outputs": [
        {
          "internalType": "address",
          "name": "",
          "type": "address"
        }
      ],
      "stateMutability": "view",
      "type": "function"
    },
    {
      "inputs": [],
      "name": "underlyingAssetToken",
      "outputs": [
        {
          "internalType": "contract IERC20",
          "name": "",
          "type": "address"
        }
      ],
      "stateMutability": "view",
      "type": "function"
    },
    {
      "inputs": [],
      "name": "updateFromConfig",
      "outputs": [],
      "stateMutability": "nonpayable",
      "type": "function"
    }
  ],
  "bytecode": "0x608060405234801561000f575f5ffd5b50604051610e53380380610e5383398101604081905261002e9161030b565b816001600160a01b03811661005d57604051631e4fbdf760e01b81525f60048201526024015b60405180910390fd5b610066816100b8565b506001600160a01b03811661008e5760405163d92e233d60e01b815260040160405180910390fd5b600180546001600160a01b0319166001600160a01b0383161790556100b1610107565b5050610384565b5f80546001600160a01b038381166001600160a01b0319831681178455604051919092169283917f8be0079c531659141344cd1fd0a4f28419497f9722a3daafe3b4186f6b6457e09190a35050565b61010f6102c6565b60015f9054906101000a90046001600160a01b03166001600160a01b031663edcf9c1f6040518163ffffffff1660e01b8152600401602060405180830381865afa15801561015f573d5f5f3e3d5ffd5b505050506040513d601f19601f820116820180604052508101906101839190610343565b6101a0576040516312aecd8160e01b815260040160405180910390fd5b60015f9054906101000a90046001600160a01b03166001600160a01b0316637158da7c6040518163ffffffff1660e01b8152600401602060405180830381865afa1580156101f0573d5f5f3e3d5ffd5b505050506040513d601f19601f820116820180604052508101906102149190610369565b600280546001600160a01b039283166001600160a01b0319918216811790925560038054909116909117905560015460408051631d06d6c760e11b815290519190921691633a0dad8e9160048083019260209291908290030181865afa158015610280573d5f5f3e3d5ffd5b505050506040513d601f19601f820116820180604052508101906102a49190610369565b600480546001600160a01b0319166001600160a01b0392909216919091179055565b5f546001600160a01b031633146102f25760405163118cdaa760e01b8152336004820152602401610054565b565b6001600160a01b0381168114610308575f5ffd5b50565b5f5f6040838503121561031c575f5ffd5b8251610327816102f4565b6020840151909250610338816102f4565b809150509250929050565b5f60208284031215610353575f5ffd5b81518015158114610362575f5ffd5b9392505050565b5f60208284031215610379575f5ffd5b8151610362816102f4565b610ac2806103915f395ff3fe608060405234801561000f575f5ffd5b506004361061009b575f3560e01c806379502c551161006357806379502c55146101065780638da5cb5b14610119578063ad071f0014610129578063cce7ec131461013c578063f2fde38b1461014f575f5ffd5b8063288157e91461009f5780633a0dad8e146100a95780636c197ff5146100d8578063715018a6146100eb5780637158da7c146100f3575b5f5ffd5b6100a7610162565b005b6004546100bc906001600160a01b031681565b6040516001600160a01b03909116815260200160405180910390f35b6100a76100e63660046109ef565b610321565b6100a7610573565b6002546100bc906001600160a01b031681565b6001546100bc906001600160a01b031681565b5f546001600160a01b03166100bc565b6003546100bc906001600160a01b031681565b6100a761014a3660046109ef565b610586565b6100a761015d366004610a19565b610772565b61016a6107af565b60015f9054906101000a90046001600160a01b03166001600160a01b031663edcf9c1f6040518163ffffffff1660e01b8152600401602060405180830381865afa1580156101ba573d5f5f3e3d5ffd5b505050506040513d601f19601f820116820180604052508101906101de9190610a3b565b6101fb576040516312aecd8160e01b815260040160405180910390fd5b60015f9054906101000a90046001600160a01b03166001600160a01b0316637158da7c6040518163ffffffff1660e01b8152600401602060405180830381865afa15801561024b573d5f5f3e3d5ffd5b505050506040513d601f19601f8201168201806040525081019061026f9190610a5a565b600280546001600160a01b039283166001600160a01b0319918216811790925560038054909116909117905560015460408051631d06d6c760e11b815290519190921691633a0dad8e9160048083019260209291908290030181865afa1580156102db573d5f5f3e3d5ffd5b505050506040513d601f19601f820116820180604052508101906102ff9190610a5a565b600480546001600160a01b0319166001600160a01b0392909216919091179055565b6004546001600160a01b0316331461034c57604051631a27eac360e11b815260040160405180910390fd5b816001600160a01b03166338d52e0f6040518163ffffffff1660e01b8152600401602060405180830381865afa9250505080156103a6575060408051601f3d908101601f191682019092526103a391810190610a5a565b60015b6103c357604051636448d6e960e11b815260040160405180910390fd5b6002546001600160a01b038281169116146103f157604051636448d6e960e11b815260040160405180910390fd5b50805f0361042257604051636b30633560e01b81526001600160a01b03831660048201526024015b60405180910390fd5b816104386001600160a01b0382163330856107db565b61044c6001600160a01b0382168484610848565b604051635d043b2960e11b815260048101839052306024820181905260448201525f906001600160a01b0385169063ba087652906064016020604051808303815f875af115801561049f573d5f5f3e3d5ffd5b505050506040513d601f19601f820116820180604052508101906104c39190610a75565b90506104d96001600160a01b038316855f610848565b60035460405163a9059cbb60e01b8152336004820152602481018390525f916001600160a01b03169063a9059cbb906044015b6020604051808303815f875af1158015610528573d5f5f3e3d5ffd5b505050506040513d601f19601f8201168201806040525081019061054c9190610a3b565b90508061056c576040516312171d8360e31b815260040160405180910390fd5b5050505050565b61057b6107af565b6105845f6108d7565b565b6004546001600160a01b031633146105b157604051631a27eac360e11b815260040160405180910390fd5b816001600160a01b03166338d52e0f6040518163ffffffff1660e01b8152600401602060405180830381865afa92505050801561060b575060408051601f3d908101601f1916820190925261060891810190610a5a565b60015b61062857604051636448d6e960e11b815260040160405180910390fd5b6002546001600160a01b0382811691161461065657604051636448d6e960e11b815260040160405180910390fd5b50805f0361068257604051636b30633560e01b81526001600160a01b0383166004820152602401610419565b600354829061069c906001600160a01b03163330856107db565b6003546106b3906001600160a01b03168484610848565b604051636e553f6560e01b8152600481018390523060248201525f906001600160a01b03831690636e553f65906044016020604051808303815f875af11580156106ff573d5f5f3e3d5ffd5b505050506040513d601f19601f820116820180604052508101906107239190610a75565b60035490915061073d906001600160a01b0316855f610848565b60405163a9059cbb60e01b8152336004820152602481018290525f906001600160a01b0384169063a9059cbb9060440161050c565b61077a6107af565b6001600160a01b0381166107a357604051631e4fbdf760e01b81525f6004820152602401610419565b6107ac816108d7565b50565b5f546001600160a01b031633146105845760405163118cdaa760e01b8152336004820152602401610419565b6040516001600160a01b0384811660248301528381166044830152606482018390526108429186918216906323b872dd906084015b604051602081830303815290604052915060e01b6020820180516001600160e01b038381831617835250505050610926565b50505050565b604080516001600160a01b038416602482015260448082018490528251808303909101815260649091019091526020810180516001600160e01b031663095ea7b360e01b1790526108998482610992565b610842576040516001600160a01b0384811660248301525f60448301526108cd91869182169063095ea7b390606401610810565b6108428482610926565b5f80546001600160a01b038381166001600160a01b0319831681178455604051919092169283917f8be0079c531659141344cd1fd0a4f28419497f9722a3daafe3b4186f6b6457e09190a35050565b5f5f60205f8451602086015f885af180610945576040513d5f823e3d81fd5b50505f513d9150811561095c578060011415610969565b6001600160a01b0384163b155b1561084257604051635274afe760e01b81526001600160a01b0385166004820152602401610419565b5f5f5f5f60205f8651602088015f8a5af192503d91505f5190508280156109d1575081156109c357806001146109d1565b5f866001600160a01b03163b115b9695505050505050565b6001600160a01b03811681146107ac575f5ffd5b5f5f60408385031215610a00575f5ffd5b8235610a0b816109db565b946020939093013593505050565b5f60208284031215610a29575f5ffd5b8135610a34816109db565b9392505050565b5f60208284031215610a4b575f5ffd5b81518015158114610a34575f5ffd5b5f60208284031215610a6a575f5ffd5b8151610a34816109db565b5f60208284031215610a85575f5ffd5b505191905056fea2646970667358221220bfa0574cb4e2ed6e139525a6a860c9113e81b7a86969adf564912c0150873dd564736f6c634300081c0033",
  "linkReferences": {},
  "deployedLinkReferences": {}
}