{
  "_format": "hh-sol-artifact-1",
  "contractName": "OrionAssetERC4626ExecutionAdapter",
  "sourceName": "contracts/execution/OrionAssetERC4626ExecutionAdapter.sol",
  "abi": [
    {
      "inputs": [
        {
          "internalType": "address",
          "name": "configAddress",
          "type": "address"
        }
      ],
      "stateMutability": "nonpayable",
      "type": "constructor"
    },
    {
      "inputs": [
        {
          "internalType": "address",
          "name": "asset",
          "type": "address"
        }
      ],
      "name": "AmountMustBeGreaterThanZero",
      "type": "error"
    },
    {
      "inputs": [],
      "name": "InvalidAsset",
      "type": "error"
    },
    {
      "inputs": [
        {
          "internalType": "address",
          "name": "token",
          "type": "address"
        }
      ],
      "name": "SafeERC20FailedOperation",
      "type": "error"
    },
    {
      "inputs": [],
      "name": "TransferFailed",
      "type": "error"
    },
    {
      "inputs": [],
      "name": "UnauthorizedAccess",
      "type": "error"
    },
    {
      "inputs": [],
      "name": "ZeroAddress",
      "type": "error"
    },
    {
      "inputs": [
        {
          "internalType": "address",
          "name": "vaultAsset",
          "type": "address"
        },
        {
          "internalType": "uint256",
          "name": "amount",
          "type": "uint256"
        }
      ],
      "name": "buy",
      "outputs": [],
      "stateMutability": "nonpayable",
      "type": "function"
    },
    {
      "inputs": [],
      "name": "config",
      "outputs": [
        {
          "internalType": "contract IOrionConfig",
          "name": "",
          "type": "address"
        }
      ],
      "stateMutability": "view",
      "type": "function"
    },
    {
      "inputs": [],
      "name": "liquidityOrchestrator",
      "outputs": [
        {
          "internalType": "address",
          "name": "",
          "type": "address"
        }
      ],
      "stateMutability": "view",
      "type": "function"
    },
    {
      "inputs": [
        {
          "internalType": "address",
          "name": "vaultAsset",
          "type": "address"
        },
        {
          "internalType": "uint256",
          "name": "amount",
          "type": "uint256"
        }
      ],
      "name": "sell",
      "outputs": [],
      "stateMutability": "nonpayable",
      "type": "function"
    },
    {
      "inputs": [],
      "name": "underlyingAsset",
      "outputs": [
        {
          "internalType": "address",
          "name": "",
          "type": "address"
        }
      ],
      "stateMutability": "view",
      "type": "function"
    },
    {
      "inputs": [],
      "name": "underlyingAssetToken",
      "outputs": [
        {
          "internalType": "contract IERC20",
          "name": "",
          "type": "address"
        }
      ],
      "stateMutability": "view",
      "type": "function"
    }
  ],
  "bytecode": "0x608060405234801561000f575f5ffd5b5060405161098238038061098283398101604081905261002e9161019b565b6001600160a01b0381166100555760405163d92e233d60e01b815260040160405180910390fd5b5f80546001600160a01b0319166001600160a01b03831690811790915560408051631c56369f60e21b81529051637158da7c916004808201926020929091908290030181865afa1580156100ab573d5f5f3e3d5ffd5b505050506040513d601f19601f820116820180604052508101906100cf919061019b565b600180546001600160a01b039283166001600160a01b031991821681179092556002805490911690911790555f5460408051631d06d6c760e11b815290519190921691633a0dad8e9160048083019260209291908290030181865afa15801561013a573d5f5f3e3d5ffd5b505050506040513d601f19601f8201168201806040525081019061015e919061019b565b600380546001600160a01b0319166001600160a01b0392909216919091179055506101bd565b6001600160a01b0381168114610198575f5ffd5b50565b5f602082840312156101ab575f5ffd5b81516101b681610184565b9392505050565b6107b8806101ca5f395ff3fe608060405234801561000f575f5ffd5b5060043610610060575f3560e01c80633a0dad8e146100645780636c197ff51461008d5780637158da7c146100a257806379502c55146100b5578063ad071f00146100c7578063cce7ec13146100da575b5f5ffd5b600354610077906001600160a01b031681565b60405161008491906106bc565b60405180910390f35b6100a061009b3660046106e7565b6100ed565b005b600154610077906001600160a01b031681565b5f54610077906001600160a01b031681565b600254610077906001600160a01b031681565b6100a06100e83660046106e7565b610339565b6003546001600160a01b0316331461011857604051631a27eac360e11b815260040160405180910390fd5b816001600160a01b03166338d52e0f6040518163ffffffff1660e01b8152600401602060405180830381865afa925050508015610172575060408051601f3d908101601f1916820190925261016f91810190610711565b60015b61018f57604051636448d6e960e11b815260040160405180910390fd5b6001546001600160a01b038281169116146101bd57604051636448d6e960e11b815260040160405180910390fd5b50805f036101e95781604051636b30633560e01b81526004016101e091906106bc565b60405180910390fd5b816101ff6001600160a01b038216333085610517565b6102136001600160a01b0382168484610584565b604051635d043b2960e11b815260048101839052306024820181905260448201525f906001600160a01b0385169063ba087652906064016020604051808303815f875af1158015610266573d5f5f3e3d5ffd5b505050506040513d601f19601f8201168201806040525081019061028a9190610733565b90506102a06001600160a01b038316855f610584565b60025460405163a9059cbb60e01b81525f916001600160a01b03169063a9059cbb906102d2903390869060040161074a565b6020604051808303815f875af11580156102ee573d5f5f3e3d5ffd5b505050506040513d601f19601f820116820180604052508101906103129190610763565b905080610332576040516312171d8360e31b815260040160405180910390fd5b5050505050565b6003546001600160a01b0316331461036457604051631a27eac360e11b815260040160405180910390fd5b816001600160a01b03166338d52e0f6040518163ffffffff1660e01b8152600401602060405180830381865afa9250505080156103be575060408051601f3d908101601f191682019092526103bb91810190610711565b60015b6103db57604051636448d6e960e11b815260040160405180910390fd5b6001546001600160a01b0382811691161461040957604051636448d6e960e11b815260040160405180910390fd5b50805f0361042c5781604051636b30633560e01b81526004016101e091906106bc565b6002548290610446906001600160a01b0316333085610517565b60025461045d906001600160a01b03168484610584565b604051636e553f6560e01b8152600481018390523060248201525f906001600160a01b03831690636e553f65906044016020604051808303815f875af11580156104a9573d5f5f3e3d5ffd5b505050506040513d601f19601f820116820180604052508101906104cd9190610733565b6002549091506104e7906001600160a01b0316855f610584565b60405163a9059cbb60e01b81525f906001600160a01b0384169063a9059cbb906102d2903390869060040161074a565b6040516001600160a01b03848116602483015283811660448301526064820183905261057e9186918216906323b872dd906084015b604051602081830303815290604052915060e01b6020820180516001600160e01b038381831617835250505050610610565b50505050565b5f836001600160a01b031663095ea7b384846040516024016105a792919061074a565b604051602081830303815290604052915060e01b6020820180516001600160e01b03838183161783525050505090506105e08482610673565b61057e5761060a84856001600160a01b031663095ea7b3865f60405160240161054c92919061074a565b61057e84825b5f5f60205f8451602086015f885af18061062f576040513d5f823e3d81fd5b50505f513d91508115610646578060011415610653565b6001600160a01b0384163b155b1561057e5783604051635274afe760e01b81526004016101e091906106bc565b5f5f5f5f60205f8651602088015f8a5af192503d91505f5190508280156106b2575081156106a457806001146106b2565b5f866001600160a01b03163b115b9695505050505050565b6001600160a01b0391909116815260200190565b6001600160a01b03811681146106e4575f5ffd5b50565b5f5f604083850312156106f8575f5ffd5b8235610703816106d0565b946020939093013593505050565b5f60208284031215610721575f5ffd5b815161072c816106d0565b9392505050565b5f60208284031215610743575f5ffd5b5051919050565b6001600160a01b03929092168252602082015260400190565b5f60208284031215610773575f5ffd5b8151801515811461072c575f5ffdfea2646970667358221220ec14710bb39c4e6109578d392ed0eef9fab7690c753efee1175de7e450cdd58664736f6c634300081c0033",
  "linkReferences": {},
  "deployedLinkReferences": {}
}