{
  "_format": "hh-sol-artifact-1",
  "contractName": "OrionAssetERC4626ExecutionAdapter",
  "sourceName": "contracts/execution/OrionAssetERC4626ExecutionAdapter.sol",
  "abi": [
    {
      "inputs": [
        {
          "internalType": "address",
          "name": "target",
          "type": "address"
        }
      ],
      "name": "AddressEmptyCode",
      "type": "error"
    },
    {
      "inputs": [
        {
          "internalType": "address",
          "name": "asset",
          "type": "address"
        }
      ],
      "name": "AmountMustBeGreaterThanZero",
      "type": "error"
    },
    {
      "inputs": [
        {
          "internalType": "address",
          "name": "implementation",
          "type": "address"
        }
      ],
      "name": "ERC1967InvalidImplementation",
      "type": "error"
    },
    {
      "inputs": [],
      "name": "ERC1967NonPayable",
      "type": "error"
    },
    {
      "inputs": [],
      "name": "FailedCall",
      "type": "error"
    },
    {
      "inputs": [],
      "name": "InvalidAsset",
      "type": "error"
    },
    {
      "inputs": [],
      "name": "InvalidInitialization",
      "type": "error"
    },
    {
      "inputs": [],
      "name": "NotInitializing",
      "type": "error"
    },
    {
      "inputs": [
        {
          "internalType": "address",
          "name": "owner",
          "type": "address"
        }
      ],
      "name": "OwnableInvalidOwner",
      "type": "error"
    },
    {
      "inputs": [
        {
          "internalType": "address",
          "name": "account",
          "type": "address"
        }
      ],
      "name": "OwnableUnauthorizedAccount",
      "type": "error"
    },
    {
      "inputs": [
        {
          "internalType": "address",
          "name": "token",
          "type": "address"
        }
      ],
      "name": "SafeERC20FailedOperation",
      "type": "error"
    },
    {
      "inputs": [],
      "name": "TransferFailed",
      "type": "error"
    },
    {
      "inputs": [],
      "name": "UUPSUnauthorizedCallContext",
      "type": "error"
    },
    {
      "inputs": [
        {
          "internalType": "bytes32",
          "name": "slot",
          "type": "bytes32"
        }
      ],
      "name": "UUPSUnsupportedProxiableUUID",
      "type": "error"
    },
    {
      "inputs": [],
      "name": "ZeroAddress",
      "type": "error"
    },
    {
      "anonymous": false,
      "inputs": [
        {
          "indexed": false,
          "internalType": "uint64",
          "name": "version",
          "type": "uint64"
        }
      ],
      "name": "Initialized",
      "type": "event"
    },
    {
      "anonymous": false,
      "inputs": [
        {
          "indexed": true,
          "internalType": "address",
          "name": "previousOwner",
          "type": "address"
        },
        {
          "indexed": true,
          "internalType": "address",
          "name": "newOwner",
          "type": "address"
        }
      ],
      "name": "OwnershipTransferStarted",
      "type": "event"
    },
    {
      "anonymous": false,
      "inputs": [
        {
          "indexed": true,
          "internalType": "address",
          "name": "previousOwner",
          "type": "address"
        },
        {
          "indexed": true,
          "internalType": "address",
          "name": "newOwner",
          "type": "address"
        }
      ],
      "name": "OwnershipTransferred",
      "type": "event"
    },
    {
      "anonymous": false,
      "inputs": [
        {
          "indexed": true,
          "internalType": "address",
          "name": "implementation",
          "type": "address"
        }
      ],
      "name": "Upgraded",
      "type": "event"
    },
    {
      "inputs": [],
      "name": "UPGRADE_INTERFACE_VERSION",
      "outputs": [
        {
          "internalType": "string",
          "name": "",
          "type": "string"
        }
      ],
      "stateMutability": "view",
      "type": "function"
    },
    {
      "inputs": [],
      "name": "acceptOwnership",
      "outputs": [],
      "stateMutability": "nonpayable",
      "type": "function"
    },
    {
      "inputs": [
        {
          "internalType": "address",
          "name": "vaultAsset",
          "type": "address"
        },
        {
          "internalType": "uint256",
          "name": "amount",
          "type": "uint256"
        }
      ],
      "name": "buy",
      "outputs": [],
      "stateMutability": "nonpayable",
      "type": "function"
    },
    {
      "inputs": [
        {
          "internalType": "address",
          "name": "initialOwner",
          "type": "address"
        },
        {
          "internalType": "address",
          "name": "_configAddress",
          "type": "address"
        }
      ],
      "name": "initialize",
      "outputs": [],
      "stateMutability": "nonpayable",
      "type": "function"
    },
    {
      "inputs": [],
      "name": "owner",
      "outputs": [
        {
          "internalType": "address",
          "name": "",
          "type": "address"
        }
      ],
      "stateMutability": "view",
      "type": "function"
    },
    {
      "inputs": [],
      "name": "pendingOwner",
      "outputs": [
        {
          "internalType": "address",
          "name": "",
          "type": "address"
        }
      ],
      "stateMutability": "view",
      "type": "function"
    },
    {
      "inputs": [],
      "name": "proxiableUUID",
      "outputs": [
        {
          "internalType": "bytes32",
          "name": "",
          "type": "bytes32"
        }
      ],
      "stateMutability": "view",
      "type": "function"
    },
    {
      "inputs": [],
      "name": "renounceOwnership",
      "outputs": [],
      "stateMutability": "nonpayable",
      "type": "function"
    },
    {
      "inputs": [
        {
          "internalType": "address",
          "name": "vaultAsset",
          "type": "address"
        },
        {
          "internalType": "uint256",
          "name": "amount",
          "type": "uint256"
        }
      ],
      "name": "sell",
      "outputs": [],
      "stateMutability": "nonpayable",
      "type": "function"
    },
    {
      "inputs": [
        {
          "internalType": "address",
          "name": "newOwner",
          "type": "address"
        }
      ],
      "name": "transferOwnership",
      "outputs": [],
      "stateMutability": "nonpayable",
      "type": "function"
    },
    {
      "inputs": [],
      "name": "underlyingAsset",
      "outputs": [
        {
          "internalType": "address",
          "name": "",
          "type": "address"
        }
      ],
      "stateMutability": "view",
      "type": "function"
    },
    {
      "inputs": [],
      "name": "underlyingAssetToken",
      "outputs": [
        {
          "internalType": "contract IERC20",
          "name": "",
          "type": "address"
        }
      ],
      "stateMutability": "view",
      "type": "function"
    },
    {
      "inputs": [
        {
          "internalType": "address",
          "name": "newImplementation",
          "type": "address"
        },
        {
          "internalType": "bytes",
          "name": "data",
          "type": "bytes"
        }
      ],
      "name": "upgradeToAndCall",
      "outputs": [],
      "stateMutability": "payable",
      "type": "function"
    }
  ],
  "bytecode": "0x60a0604052306080523480156012575f5ffd5b506080516112896100395f395f81816109ad015281816109d60152610b1a01526112895ff3fe6080604052600436106100bf575f3560e01c806379ba50971161007c578063ad3cb1cc11610057578063ad3cb1cc146101ce578063cce7ec131461020b578063e30c39781461022a578063f2fde38b1461023e575f5ffd5b806379ba5097146101875780638da5cb5b1461019b578063ad071f00146101af575f5ffd5b8063485cc955146100c35780634f1ef286146100e457806352d1902d146100f75780636c197ff51461011e578063715018a61461013d5780637158da7c14610151575b5f5ffd5b3480156100ce575f5ffd5b506100e26100dd366004611041565b61025d565b005b6100e26100f236600461108c565b61042d565b348015610102575f5ffd5b5061010b61044c565b6040519081526020015b60405180910390f35b348015610129575f5ffd5b506100e2610138366004611152565b610467565b348015610148575f5ffd5b506100e261068d565b34801561015c575f5ffd5b505f5461016f906001600160a01b031681565b6040516001600160a01b039091168152602001610115565b348015610192575f5ffd5b506100e26106a0565b3480156101a6575f5ffd5b5061016f6106e8565b3480156101ba575f5ffd5b5060015461016f906001600160a01b031681565b3480156101d9575f5ffd5b506101fe604051806040016040528060058152602001640352e302e360dc1b81525081565b604051610115919061117c565b348015610216575f5ffd5b506100e2610225366004611152565b61071c565b348015610235575f5ffd5b5061016f6108dc565b348015610249575f5ffd5b506100e26102583660046111b1565b610904565b7ff0c57e16840df040f15088dc2f81fe391c3923bec73e23a9662efc9c229c6a008054600160401b810460ff16159067ffffffffffffffff165f811580156102a25750825b90505f8267ffffffffffffffff1660011480156102be5750303b155b9050811580156102cc575080155b156102ea5760405163f92ee8a960e01b815260040160405180910390fd5b845467ffffffffffffffff19166001178555831561031457845460ff60401b1916600160401b1785555b61031d87610989565b61032561099a565b61032d61099a565b6001600160a01b0386166103545760405163d92e233d60e01b815260040160405180910390fd5b856001600160a01b0316637158da7c6040518163ffffffff1660e01b8152600401602060405180830381865afa158015610390573d5f5f3e3d5ffd5b505050506040513d601f19601f820116820180604052508101906103b491906111cc565b5f80546001600160a01b03929092166001600160a01b0319928316811790915560018054909216179055831561042457845460ff60401b19168555604051600181527fc7f505b2f371ae2175ee4913f4499e1f2633a7b5936321eed1cdaeb6115181d29060200160405180910390a15b50505050505050565b6104356109a2565b61043e82610a46565b6104488282610a4e565b5050565b5f610455610b0f565b505f5160206112345f395f51905f5290565b816001600160a01b03166338d52e0f6040518163ffffffff1660e01b8152600401602060405180830381865afa9250505080156104c1575060408051601f3d908101601f191682019092526104be918101906111cc565b60015b6104de57604051636448d6e960e11b815260040160405180910390fd5b5f546001600160a01b0382811691161461050b57604051636448d6e960e11b815260040160405180910390fd5b50805f0361053c57604051636b30633560e01b81526001600160a01b03831660048201526024015b60405180910390fd5b816105526001600160a01b038216333085610b58565b6105666001600160a01b0382168484610bc5565b604051635d043b2960e11b815260048101839052306024820181905260448201525f906001600160a01b0385169063ba087652906064016020604051808303815f875af11580156105b9573d5f5f3e3d5ffd5b505050506040513d601f19601f820116820180604052508101906105dd91906111e7565b90506105f36001600160a01b038316855f610bc5565b60015460405163a9059cbb60e01b8152336004820152602481018390525f916001600160a01b03169063a9059cbb906044015b6020604051808303815f875af1158015610642573d5f5f3e3d5ffd5b505050506040513d601f19601f8201168201806040525081019061066691906111fe565b905080610686576040516312171d8360e31b815260040160405180910390fd5b5050505050565b610695610c54565b61069e5f610c86565b565b33806106aa6108dc565b6001600160a01b0316146106dc5760405163118cdaa760e01b81526001600160a01b0382166004820152602401610533565b6106e581610c86565b50565b5f807f9016d09d72d40fdae2fd8ceac6b6234c7706214fd39c1cd1e609a0528c1993005b546001600160a01b031692915050565b816001600160a01b03166338d52e0f6040518163ffffffff1660e01b8152600401602060405180830381865afa925050508015610776575060408051601f3d908101601f19168201909252610773918101906111cc565b60015b61079357604051636448d6e960e11b815260040160405180910390fd5b5f546001600160a01b038281169116146107c057604051636448d6e960e11b815260040160405180910390fd5b50805f036107ec57604051636b30633560e01b81526001600160a01b0383166004820152602401610533565b6001548290610806906001600160a01b0316333085610b58565b60015461081d906001600160a01b03168484610bc5565b604051636e553f6560e01b8152600481018390523060248201525f906001600160a01b03831690636e553f65906044016020604051808303815f875af1158015610869573d5f5f3e3d5ffd5b505050506040513d601f19601f8201168201806040525081019061088d91906111e7565b6001549091506108a7906001600160a01b0316855f610bc5565b60405163a9059cbb60e01b8152336004820152602481018290525f906001600160a01b0384169063a9059cbb90604401610626565b5f807f237e158222e3e6968b72b9db0d8043aacf074ad9f650f0d1606b4d82ee432c0061070c565b61090c610c54565b7f237e158222e3e6968b72b9db0d8043aacf074ad9f650f0d1606b4d82ee432c0080546001600160a01b0319166001600160a01b03831690811782556109506106e8565b6001600160a01b03167f38d16b8cac22d99fc7c124b9cd0de2d3fa1faef420bfe791d8c362d765e2270060405160405180910390a35050565b610991610cbe565b6106e581610d07565b61069e610cbe565b306001600160a01b037f0000000000000000000000000000000000000000000000000000000000000000161480610a2857507f00000000000000000000000000000000000000000000000000000000000000006001600160a01b0316610a1c5f5160206112345f395f51905f52546001600160a01b031690565b6001600160a01b031614155b1561069e5760405163703e46dd60e11b815260040160405180910390fd5b6106e5610c54565b816001600160a01b03166352d1902d6040518163ffffffff1660e01b8152600401602060405180830381865afa925050508015610aa8575060408051601f3d908101601f19168201909252610aa5918101906111e7565b60015b610ad057604051634c9c8ce360e01b81526001600160a01b0383166004820152602401610533565b5f5160206112345f395f51905f528114610b0057604051632a87526960e21b815260048101829052602401610533565b610b0a8383610d38565b505050565b306001600160a01b037f0000000000000000000000000000000000000000000000000000000000000000161461069e5760405163703e46dd60e11b815260040160405180910390fd5b6040516001600160a01b038481166024830152838116604483015260648201839052610bbf9186918216906323b872dd906084015b604051602081830303815290604052915060e01b6020820180516001600160e01b038381831617835250505050610d8d565b50505050565b604080516001600160a01b038416602482015260448082018490528251808303909101815260649091019091526020810180516001600160e01b031663095ea7b360e01b179052610c168482610df9565b610bbf576040516001600160a01b0384811660248301525f6044830152610c4a91869182169063095ea7b390606401610b8d565b610bbf8482610d8d565b33610c5d6106e8565b6001600160a01b03161461069e5760405163118cdaa760e01b8152336004820152602401610533565b7f237e158222e3e6968b72b9db0d8043aacf074ad9f650f0d1606b4d82ee432c0080546001600160a01b031916815561044882610e42565b7ff0c57e16840df040f15088dc2f81fe391c3923bec73e23a9662efc9c229c6a0054600160401b900460ff1661069e57604051631afcd79f60e31b815260040160405180910390fd5b610d0f610cbe565b6001600160a01b0381166106dc57604051631e4fbdf760e01b81525f6004820152602401610533565b610d4182610eb2565b6040516001600160a01b038316907fbc7cd75a20ee27fd9adebab32041f755214dbc6bffa90cc0225b39da2e5c2d3b905f90a2805115610d8557610b0a8282610f15565b610448610f87565b5f5f60205f8451602086015f885af180610dac576040513d5f823e3d81fd5b50505f513d91508115610dc3578060011415610dd0565b6001600160a01b0384163b155b15610bbf57604051635274afe760e01b81526001600160a01b0385166004820152602401610533565b5f5f5f5f60205f8651602088015f8a5af192503d91505f519050828015610e3857508115610e2a5780600114610e38565b5f866001600160a01b03163b115b9695505050505050565b7f9016d09d72d40fdae2fd8ceac6b6234c7706214fd39c1cd1e609a0528c19930080546001600160a01b031981166001600160a01b03848116918217845560405192169182907f8be0079c531659141344cd1fd0a4f28419497f9722a3daafe3b4186f6b6457e0905f90a3505050565b806001600160a01b03163b5f03610ee757604051634c9c8ce360e01b81526001600160a01b0382166004820152602401610533565b5f5160206112345f395f51905f5280546001600160a01b0319166001600160a01b0392909216919091179055565b60605f5f846001600160a01b031684604051610f31919061121d565b5f60405180830381855af49150503d805f8114610f69576040519150601f19603f3d011682016040523d82523d5f602084013e610f6e565b606091505b5091509150610f7e858383610fa6565b95945050505050565b341561069e5760405163b398979f60e01b815260040160405180910390fd5b606082610fbb57610fb682611005565b610ffe565b8151158015610fd257506001600160a01b0384163b155b15610ffb57604051639996b31560e01b81526001600160a01b0385166004820152602401610533565b50805b9392505050565b80511561101457805160208201fd5b60405163d6bda27560e01b815260040160405180910390fd5b6001600160a01b03811681146106e5575f5ffd5b5f5f60408385031215611052575f5ffd5b823561105d8161102d565b9150602083013561106d8161102d565b809150509250929050565b634e487b7160e01b5f52604160045260245ffd5b5f5f6040838503121561109d575f5ffd5b82356110a88161102d565b9150602083013567ffffffffffffffff8111156110c3575f5ffd5b8301601f810185136110d3575f5ffd5b803567ffffffffffffffff8111156110ed576110ed611078565b604051601f8201601f19908116603f0116810167ffffffffffffffff8111828210171561111c5761111c611078565b604052818152828201602001871015611133575f5ffd5b816020840160208301375f602083830101528093505050509250929050565b5f5f60408385031215611163575f5ffd5b823561116e8161102d565b946020939093013593505050565b602081525f82518060208401528060208501604085015e5f604082850101526040601f19601f83011684010191505092915050565b5f602082840312156111c1575f5ffd5b8135610ffe8161102d565b5f602082840312156111dc575f5ffd5b8151610ffe8161102d565b5f602082840312156111f7575f5ffd5b5051919050565b5f6020828403121561120e575f5ffd5b81518015158114610ffe575f5ffd5b5f82518060208501845e5f92019182525091905056fe360894a13ba1a3210667c828492db98dca3e2076cc3735a920a3ca505d382bbca26469706673582212202be3a66825937c53a1db45cb59e103a4dfd742ee21d161613f677a533a301c9c64736f6c634300081c0033",
  "linkReferences": {},
  "deployedLinkReferences": {}
}