{
  "_format": "hh-sol-artifact-1",
  "contractName": "OrionAssetERC4626ExecutionAdapter",
  "sourceName": "contracts/execution/OrionAssetERC4626ExecutionAdapter.sol",
  "abi": [
    {
      "inputs": [
        {
          "internalType": "address",
          "name": "configAddress",
          "type": "address"
        }
      ],
      "stateMutability": "nonpayable",
      "type": "constructor"
    },
    {
      "inputs": [
        {
          "internalType": "address",
          "name": "asset",
          "type": "address"
        }
      ],
      "name": "AmountMustBeGreaterThanZero",
      "type": "error"
    },
    {
      "inputs": [],
      "name": "InvalidAddress",
      "type": "error"
    },
    {
      "inputs": [
        {
          "internalType": "address",
          "name": "token",
          "type": "address"
        }
      ],
      "name": "SafeERC20FailedOperation",
      "type": "error"
    },
    {
      "inputs": [],
      "name": "SlippageExceeded",
      "type": "error"
    },
    {
      "inputs": [],
      "name": "TransferFailed",
      "type": "error"
    },
    {
      "inputs": [],
      "name": "UnauthorizedAccess",
      "type": "error"
    },
    {
      "inputs": [],
      "name": "ZeroAddress",
      "type": "error"
    },
    {
      "inputs": [
        {
          "internalType": "address",
          "name": "vaultAsset",
          "type": "address"
        },
        {
          "internalType": "uint256",
          "name": "sharesAmount",
          "type": "uint256"
        },
        {
          "internalType": "uint256",
          "name": "maxUnderlyingAmount",
          "type": "uint256"
        }
      ],
      "name": "buy",
      "outputs": [
        {
          "internalType": "uint256",
          "name": "spentUnderlyingAmount",
          "type": "uint256"
        }
      ],
      "stateMutability": "nonpayable",
      "type": "function"
    },
    {
      "inputs": [],
      "name": "config",
      "outputs": [
        {
          "internalType": "contract IOrionConfig",
          "name": "",
          "type": "address"
        }
      ],
      "stateMutability": "view",
      "type": "function"
    },
    {
      "inputs": [],
      "name": "liquidityOrchestrator",
      "outputs": [
        {
          "internalType": "address",
          "name": "",
          "type": "address"
        }
      ],
      "stateMutability": "view",
      "type": "function"
    },
    {
      "inputs": [
        {
          "internalType": "address",
          "name": "vaultAsset",
          "type": "address"
        },
        {
          "internalType": "uint256",
          "name": "sharesAmount",
          "type": "uint256"
        },
        {
          "internalType": "uint256",
          "name": "minUnderlyingAmount",
          "type": "uint256"
        }
      ],
      "name": "sell",
      "outputs": [
        {
          "internalType": "uint256",
          "name": "receivedUnderlyingAmount",
          "type": "uint256"
        }
      ],
      "stateMutability": "nonpayable",
      "type": "function"
    },
    {
      "inputs": [],
      "name": "underlyingAsset",
      "outputs": [
        {
          "internalType": "address",
          "name": "",
          "type": "address"
        }
      ],
      "stateMutability": "view",
      "type": "function"
    },
    {
      "inputs": [],
      "name": "underlyingAssetToken",
      "outputs": [
        {
          "internalType": "contract IERC20",
          "name": "",
          "type": "address"
        }
      ],
      "stateMutability": "view",
      "type": "function"
    }
  ],
  "bytecode": "0x608060405234801561000f575f5ffd5b50604051610a43380380610a4383398101604081905261002e9161019b565b6001600160a01b0381166100555760405163d92e233d60e01b815260040160405180910390fd5b5f80546001600160a01b0319166001600160a01b03831690811790915560408051631c56369f60e21b81529051637158da7c916004808201926020929091908290030181865afa1580156100ab573d5f5f3e3d5ffd5b505050506040513d601f19601f820116820180604052508101906100cf919061019b565b600180546001600160a01b039283166001600160a01b031991821681179092556002805490911690911790555f5460408051631d06d6c760e11b815290519190921691633a0dad8e9160048083019260209291908290030181865afa15801561013a573d5f5f3e3d5ffd5b505050506040513d601f19601f8201168201806040525081019061015e919061019b565b600380546001600160a01b0319166001600160a01b0392909216919091179055506101bd565b6001600160a01b0381168114610198575f5ffd5b50565b5f602082840312156101ab575f5ffd5b81516101b681610184565b9392505050565b610879806101ca5f395ff3fe608060405234801561000f575f5ffd5b5060043610610060575f3560e01c80633a0dad8e146100645780636a2724621461008d5780637158da7c146100ae57806379502c55146100c1578063a59ac6dd146100d3578063ad071f00146100e6575b5f5ffd5b600354610077906001600160a01b031681565b6040516100849190610775565b60405180910390f35b6100a061009b3660046107a0565b6100f9565b604051908152602001610084565b600154610077906001600160a01b031681565b5f54610077906001600160a01b031681565b6100a06100e13660046107a0565b610301565b600254610077906001600160a01b031681565b6003545f906001600160a01b0316331461012657604051631a27eac360e11b815260040160405180910390fd5b836001600160a01b03166338d52e0f6040518163ffffffff1660e01b8152600401602060405180830381865afa925050508015610180575060408051601f3d908101601f1916820190925261017d918101906107d2565b60015b61019d5760405163e6c4247b60e01b815260040160405180910390fd5b6001546001600160a01b038281169116146101cb5760405163e6c4247b60e01b815260040160405180910390fd5b50825f036101f75783604051636b30633560e01b81526004016101ee9190610775565b60405180910390fd5b60405163b3d7f6b960e01b81526004810184905284906001600160a01b0382169063b3d7f6b990602401602060405180830381865afa15801561023c573d5f5f3e3d5ffd5b505050506040513d601f19601f8201168201806040525081019061026091906107f4565b91508282101561028357604051638199f5f360e01b815260040160405180910390fd5b604051635d043b2960e11b815260048101859052336024820181905260448201526001600160a01b0382169063ba087652906064016020604051808303815f875af11580156102d4573d5f5f3e3d5ffd5b505050506040513d601f19601f820116820180604052508101906102f891906107f4565b95945050505050565b6003545f906001600160a01b0316331461032e57604051631a27eac360e11b815260040160405180910390fd5b836001600160a01b03166338d52e0f6040518163ffffffff1660e01b8152600401602060405180830381865afa925050508015610388575060408051601f3d908101601f19168201909252610385918101906107d2565b60015b6103a55760405163e6c4247b60e01b815260040160405180910390fd5b6001546001600160a01b038281169116146103d35760405163e6c4247b60e01b815260040160405180910390fd5b50825f036103f65783604051636b30633560e01b81526004016101ee9190610775565b60405163b3d7f6b960e01b81526004810184905284906001600160a01b0382169063b3d7f6b990602401602060405180830381865afa15801561043b573d5f5f3e3d5ffd5b505050506040513d601f19601f8201168201806040525081019061045f91906107f4565b91508282111561048257604051638199f5f360e01b815260040160405180910390fd5b60025461049a906001600160a01b03163330856105d0565b6002546104b1906001600160a01b0316868461063d565b604051636e553f6560e01b8152600481018390523060248201526001600160a01b03821690636e553f65906044016020604051808303815f875af11580156104fb573d5f5f3e3d5ffd5b505050506040513d601f19601f8201168201806040525081019061051f91906107f4565b50600254610537906001600160a01b0316865f61063d565b60405163a9059cbb60e01b81525f906001600160a01b0383169063a9059cbb90610567903390899060040161080b565b6020604051808303815f875af1158015610583573d5f5f3e3d5ffd5b505050506040513d601f19601f820116820180604052508101906105a79190610824565b9050806105c7576040516312171d8360e31b815260040160405180910390fd5b50509392505050565b6040516001600160a01b0384811660248301528381166044830152606482018390526106379186918216906323b872dd906084015b604051602081830303815290604052915060e01b6020820180516001600160e01b0383818316178352505050506106c9565b50505050565b5f836001600160a01b031663095ea7b3848460405160240161066092919061080b565b604051602081830303815290604052915060e01b6020820180516001600160e01b0383818316178352505050509050610699848261072c565b610637576106c384856001600160a01b031663095ea7b3865f60405160240161060592919061080b565b61063784825b5f5f60205f8451602086015f885af1806106e8576040513d5f823e3d81fd5b50505f513d915081156106ff57806001141561070c565b6001600160a01b0384163b155b156106375783604051635274afe760e01b81526004016101ee9190610775565b5f5f5f5f60205f8651602088015f8a5af192503d91505f51905082801561076b5750811561075d578060011461076b565b5f866001600160a01b03163b115b9695505050505050565b6001600160a01b0391909116815260200190565b6001600160a01b038116811461079d575f5ffd5b50565b5f5f5f606084860312156107b2575f5ffd5b83356107bd81610789565b95602085013595506040909401359392505050565b5f602082840312156107e2575f5ffd5b81516107ed81610789565b9392505050565b5f60208284031215610804575f5ffd5b5051919050565b6001600160a01b03929092168252602082015260400190565b5f60208284031215610834575f5ffd5b815180151581146107ed575f5ffdfea26469706673582212208fcc0bf4ef86df1596f41d83135475d4bae1eff129f45991cbd25333562fc58f64736f6c634300081c0033",
  "linkReferences": {},
  "deployedLinkReferences": {}
}