{
  "_format": "hh-sol-artifact-1",
  "contractName": "OrionAssetERC4626ExecutionAdapter",
  "sourceName": "contracts/execution/OrionAssetERC4626ExecutionAdapter.sol",
  "abi": [
    {
      "inputs": [
        {
          "internalType": "address",
          "name": "configAddress",
          "type": "address"
        }
      ],
      "stateMutability": "nonpayable",
      "type": "constructor"
    },
    {
      "inputs": [
        {
          "internalType": "address",
          "name": "asset",
          "type": "address"
        }
      ],
      "name": "AmountMustBeGreaterThanZero",
      "type": "error"
    },
    {
      "inputs": [],
      "name": "InvalidAddress",
      "type": "error"
    },
    {
      "inputs": [
        {
          "internalType": "address",
          "name": "token",
          "type": "address"
        }
      ],
      "name": "SafeERC20FailedOperation",
      "type": "error"
    },
    {
      "inputs": [],
      "name": "TransferFailed",
      "type": "error"
    },
    {
      "inputs": [],
      "name": "UnauthorizedAccess",
      "type": "error"
    },
    {
      "inputs": [],
      "name": "ZeroAddress",
      "type": "error"
    },
    {
      "inputs": [
        {
          "internalType": "address",
          "name": "vaultAsset",
          "type": "address"
        },
        {
          "internalType": "uint256",
          "name": "sharesAmount",
          "type": "uint256"
        }
      ],
      "name": "buy",
      "outputs": [
        {
          "internalType": "uint256",
          "name": "spentUnderlyingAmount",
          "type": "uint256"
        }
      ],
      "stateMutability": "nonpayable",
      "type": "function"
    },
    {
      "inputs": [],
      "name": "config",
      "outputs": [
        {
          "internalType": "contract IOrionConfig",
          "name": "",
          "type": "address"
        }
      ],
      "stateMutability": "view",
      "type": "function"
    },
    {
      "inputs": [],
      "name": "liquidityOrchestrator",
      "outputs": [
        {
          "internalType": "address",
          "name": "",
          "type": "address"
        }
      ],
      "stateMutability": "view",
      "type": "function"
    },
    {
      "inputs": [
        {
          "internalType": "address",
          "name": "vaultAsset",
          "type": "address"
        },
        {
          "internalType": "uint256",
          "name": "sharesAmount",
          "type": "uint256"
        }
      ],
      "name": "sell",
      "outputs": [
        {
          "internalType": "uint256",
          "name": "receivedUnderlyingAmount",
          "type": "uint256"
        }
      ],
      "stateMutability": "nonpayable",
      "type": "function"
    },
    {
      "inputs": [],
      "name": "underlyingAsset",
      "outputs": [
        {
          "internalType": "address",
          "name": "",
          "type": "address"
        }
      ],
      "stateMutability": "view",
      "type": "function"
    },
    {
      "inputs": [],
      "name": "underlyingAssetToken",
      "outputs": [
        {
          "internalType": "contract IERC20",
          "name": "",
          "type": "address"
        }
      ],
      "stateMutability": "view",
      "type": "function"
    }
  ],
  "bytecode": "0x608060405234801561000f575f5ffd5b5060405161098f38038061098f83398101604081905261002e9161019b565b6001600160a01b0381166100555760405163d92e233d60e01b815260040160405180910390fd5b5f80546001600160a01b0319166001600160a01b03831690811790915560408051631c56369f60e21b81529051637158da7c916004808201926020929091908290030181865afa1580156100ab573d5f5f3e3d5ffd5b505050506040513d601f19601f820116820180604052508101906100cf919061019b565b600180546001600160a01b039283166001600160a01b031991821681179092556002805490911690911790555f5460408051631d06d6c760e11b815290519190921691633a0dad8e9160048083019260209291908290030181865afa15801561013a573d5f5f3e3d5ffd5b505050506040513d601f19601f8201168201806040525081019061015e919061019b565b600380546001600160a01b0319166001600160a01b0392909216919091179055506101bd565b6001600160a01b0381168114610198575f5ffd5b50565b5f602082840312156101ab575f5ffd5b81516101b681610184565b9392505050565b6107c5806101ca5f395ff3fe608060405234801561000f575f5ffd5b5060043610610060575f3560e01c80633a0dad8e146100645780636c197ff51461008d5780637158da7c146100ae57806379502c55146100c1578063ad071f00146100d3578063cce7ec13146100e6575b5f5ffd5b600354610077906001600160a01b031681565b60405161008491906106c9565b60405180910390f35b6100a061009b3660046106f4565b6100f9565b604051908152602001610084565b600154610077906001600160a01b031681565b5f54610077906001600160a01b031681565b600254610077906001600160a01b031681565b6100a06100f43660046106f4565b610276565b6003545f906001600160a01b0316331461012657604051631a27eac360e11b815260040160405180910390fd5b826001600160a01b03166338d52e0f6040518163ffffffff1660e01b8152600401602060405180830381865afa925050508015610180575060408051601f3d908101601f1916820190925261017d9181019061071e565b60015b61019d5760405163e6c4247b60e01b815260040160405180910390fd5b6001546001600160a01b038281169116146101cb5760405163e6c4247b60e01b815260040160405180910390fd5b50815f036101f75782604051636b30633560e01b81526004016101ee91906106c9565b60405180910390fd5b604051635d043b2960e11b8152600481018390523360248201819052604482015283906001600160a01b0382169063ba087652906064016020604051808303815f875af115801561024a573d5f5f3e3d5ffd5b505050506040513d601f19601f8201168201806040525081019061026e9190610740565b949350505050565b6003545f906001600160a01b031633146102a357604051631a27eac360e11b815260040160405180910390fd5b826001600160a01b03166338d52e0f6040518163ffffffff1660e01b8152600401602060405180830381865afa9250505080156102fd575060408051601f3d908101601f191682019092526102fa9181019061071e565b60015b61031a5760405163e6c4247b60e01b815260040160405180910390fd5b6001546001600160a01b038281169116146103485760405163e6c4247b60e01b815260040160405180910390fd5b50815f0361036b5782604051636b30633560e01b81526004016101ee91906106c9565b60405163b3d7f6b960e01b81526004810183905283906001600160a01b0382169063b3d7f6b990602401602060405180830381865afa1580156103b0573d5f5f3e3d5ffd5b505050506040513d601f19601f820116820180604052508101906103d49190610740565b6002549092506103ef906001600160a01b0316333085610524565b600254610406906001600160a01b03168584610591565b604051636e553f6560e01b8152600481018390523060248201526001600160a01b03821690636e553f65906044016020604051808303815f875af1158015610450573d5f5f3e3d5ffd5b505050506040513d601f19601f820116820180604052508101906104749190610740565b5060025461048c906001600160a01b0316855f610591565b60405163a9059cbb60e01b81525f906001600160a01b0383169063a9059cbb906104bc9033908890600401610757565b6020604051808303815f875af11580156104d8573d5f5f3e3d5ffd5b505050506040513d601f19601f820116820180604052508101906104fc9190610770565b90508061051c576040516312171d8360e31b815260040160405180910390fd5b505092915050565b6040516001600160a01b03848116602483015283811660448301526064820183905261058b9186918216906323b872dd906084015b604051602081830303815290604052915060e01b6020820180516001600160e01b03838183161783525050505061061d565b50505050565b5f836001600160a01b031663095ea7b384846040516024016105b4929190610757565b604051602081830303815290604052915060e01b6020820180516001600160e01b03838183161783525050505090506105ed8482610680565b61058b5761061784856001600160a01b031663095ea7b3865f604051602401610559929190610757565b61058b84825b5f5f60205f8451602086015f885af18061063c576040513d5f823e3d81fd5b50505f513d91508115610653578060011415610660565b6001600160a01b0384163b155b1561058b5783604051635274afe760e01b81526004016101ee91906106c9565b5f5f5f5f60205f8651602088015f8a5af192503d91505f5190508280156106bf575081156106b157806001146106bf565b5f866001600160a01b03163b115b9695505050505050565b6001600160a01b0391909116815260200190565b6001600160a01b03811681146106f1575f5ffd5b50565b5f5f60408385031215610705575f5ffd5b8235610710816106dd565b946020939093013593505050565b5f6020828403121561072e575f5ffd5b8151610739816106dd565b9392505050565b5f60208284031215610750575f5ffd5b5051919050565b6001600160a01b03929092168252602082015260400190565b5f60208284031215610780575f5ffd5b81518015158114610739575f5ffdfea2646970667358221220c70ca0d5ebb3a797b3fe0d1d4ed70d5476868585f8373c2ca89aad2638323f3964736f6c634300081c0033",
  "linkReferences": {},
  "deployedLinkReferences": {}
}