{
  "_format": "hh-sol-artifact-1",
  "contractName": "OrionAssetERC4626ExecutionAdapter",
  "sourceName": "contracts/execution/OrionAssetERC4626ExecutionAdapter.sol",
  "abi": [
    {
      "inputs": [
        {
          "internalType": "address",
          "name": "target",
          "type": "address"
        }
      ],
      "name": "AddressEmptyCode",
      "type": "error"
    },
    {
      "inputs": [
        {
          "internalType": "address",
          "name": "asset",
          "type": "address"
        }
      ],
      "name": "AmountMustBeGreaterThanZero",
      "type": "error"
    },
    {
      "inputs": [
        {
          "internalType": "address",
          "name": "implementation",
          "type": "address"
        }
      ],
      "name": "ERC1967InvalidImplementation",
      "type": "error"
    },
    {
      "inputs": [],
      "name": "ERC1967NonPayable",
      "type": "error"
    },
    {
      "inputs": [],
      "name": "FailedCall",
      "type": "error"
    },
    {
      "inputs": [],
      "name": "InvalidAsset",
      "type": "error"
    },
    {
      "inputs": [],
      "name": "InvalidInitialization",
      "type": "error"
    },
    {
      "inputs": [],
      "name": "NotInitializing",
      "type": "error"
    },
    {
      "inputs": [
        {
          "internalType": "address",
          "name": "owner",
          "type": "address"
        }
      ],
      "name": "OwnableInvalidOwner",
      "type": "error"
    },
    {
      "inputs": [
        {
          "internalType": "address",
          "name": "account",
          "type": "address"
        }
      ],
      "name": "OwnableUnauthorizedAccount",
      "type": "error"
    },
    {
      "inputs": [
        {
          "internalType": "address",
          "name": "token",
          "type": "address"
        }
      ],
      "name": "SafeERC20FailedOperation",
      "type": "error"
    },
    {
      "inputs": [],
      "name": "TransferFailed",
      "type": "error"
    },
    {
      "inputs": [],
      "name": "UUPSUnauthorizedCallContext",
      "type": "error"
    },
    {
      "inputs": [
        {
          "internalType": "bytes32",
          "name": "slot",
          "type": "bytes32"
        }
      ],
      "name": "UUPSUnsupportedProxiableUUID",
      "type": "error"
    },
    {
      "inputs": [],
      "name": "ZeroAddress",
      "type": "error"
    },
    {
      "anonymous": false,
      "inputs": [
        {
          "indexed": false,
          "internalType": "uint64",
          "name": "version",
          "type": "uint64"
        }
      ],
      "name": "Initialized",
      "type": "event"
    },
    {
      "anonymous": false,
      "inputs": [
        {
          "indexed": true,
          "internalType": "address",
          "name": "previousOwner",
          "type": "address"
        },
        {
          "indexed": true,
          "internalType": "address",
          "name": "newOwner",
          "type": "address"
        }
      ],
      "name": "OwnershipTransferStarted",
      "type": "event"
    },
    {
      "anonymous": false,
      "inputs": [
        {
          "indexed": true,
          "internalType": "address",
          "name": "previousOwner",
          "type": "address"
        },
        {
          "indexed": true,
          "internalType": "address",
          "name": "newOwner",
          "type": "address"
        }
      ],
      "name": "OwnershipTransferred",
      "type": "event"
    },
    {
      "anonymous": false,
      "inputs": [
        {
          "indexed": true,
          "internalType": "address",
          "name": "implementation",
          "type": "address"
        }
      ],
      "name": "Upgraded",
      "type": "event"
    },
    {
      "inputs": [],
      "name": "UPGRADE_INTERFACE_VERSION",
      "outputs": [
        {
          "internalType": "string",
          "name": "",
          "type": "string"
        }
      ],
      "stateMutability": "view",
      "type": "function"
    },
    {
      "inputs": [],
      "name": "acceptOwnership",
      "outputs": [],
      "stateMutability": "nonpayable",
      "type": "function"
    },
    {
      "inputs": [
        {
          "internalType": "address",
          "name": "vaultAsset",
          "type": "address"
        },
        {
          "internalType": "uint256",
          "name": "amount",
          "type": "uint256"
        }
      ],
      "name": "buy",
      "outputs": [],
      "stateMutability": "nonpayable",
      "type": "function"
    },
    {
      "inputs": [
        {
          "internalType": "address",
          "name": "initialOwner",
          "type": "address"
        },
        {
          "internalType": "address",
          "name": "_configAddress",
          "type": "address"
        }
      ],
      "name": "initialize",
      "outputs": [],
      "stateMutability": "nonpayable",
      "type": "function"
    },
    {
      "inputs": [],
      "name": "owner",
      "outputs": [
        {
          "internalType": "address",
          "name": "",
          "type": "address"
        }
      ],
      "stateMutability": "view",
      "type": "function"
    },
    {
      "inputs": [],
      "name": "pendingOwner",
      "outputs": [
        {
          "internalType": "address",
          "name": "",
          "type": "address"
        }
      ],
      "stateMutability": "view",
      "type": "function"
    },
    {
      "inputs": [],
      "name": "proxiableUUID",
      "outputs": [
        {
          "internalType": "bytes32",
          "name": "",
          "type": "bytes32"
        }
      ],
      "stateMutability": "view",
      "type": "function"
    },
    {
      "inputs": [],
      "name": "renounceOwnership",
      "outputs": [],
      "stateMutability": "nonpayable",
      "type": "function"
    },
    {
      "inputs": [
        {
          "internalType": "address",
          "name": "vaultAsset",
          "type": "address"
        },
        {
          "internalType": "uint256",
          "name": "amount",
          "type": "uint256"
        }
      ],
      "name": "sell",
      "outputs": [],
      "stateMutability": "nonpayable",
      "type": "function"
    },
    {
      "inputs": [
        {
          "internalType": "address",
          "name": "newOwner",
          "type": "address"
        }
      ],
      "name": "transferOwnership",
      "outputs": [],
      "stateMutability": "nonpayable",
      "type": "function"
    },
    {
      "inputs": [],
      "name": "underlyingAsset",
      "outputs": [
        {
          "internalType": "address",
          "name": "",
          "type": "address"
        }
      ],
      "stateMutability": "view",
      "type": "function"
    },
    {
      "inputs": [],
      "name": "underlyingAssetToken",
      "outputs": [
        {
          "internalType": "contract IERC20",
          "name": "",
          "type": "address"
        }
      ],
      "stateMutability": "view",
      "type": "function"
    },
    {
      "inputs": [
        {
          "internalType": "address",
          "name": "newImplementation",
          "type": "address"
        },
        {
          "internalType": "bytes",
          "name": "data",
          "type": "bytes"
        }
      ],
      "name": "upgradeToAndCall",
      "outputs": [],
      "stateMutability": "payable",
      "type": "function"
    }
  ],
  "bytecode": "0x60a0604052306080523480156012575f5ffd5b506080516112646100395f395f8181610988015281816109b10152610af501526112645ff3fe6080604052600436106100bf575f3560e01c806379ba50971161007c578063ad3cb1cc11610057578063ad3cb1cc146101ce578063cce7ec131461020b578063e30c39781461022a578063f2fde38b1461023e575f5ffd5b806379ba5097146101875780638da5cb5b1461019b578063ad071f00146101af575f5ffd5b8063485cc955146100c35780634f1ef286146100e457806352d1902d146100f75780636c197ff51461011e578063715018a61461013d5780637158da7c14610151575b5f5ffd5b3480156100ce575f5ffd5b506100e26100dd36600461101c565b61025d565b005b6100e26100f2366004611067565b61042d565b348015610102575f5ffd5b5061010b61044c565b6040519081526020015b60405180910390f35b348015610129575f5ffd5b506100e261013836600461112d565b610467565b348015610148575f5ffd5b506100e261067a565b34801561015c575f5ffd5b505f5461016f906001600160a01b031681565b6040516001600160a01b039091168152602001610115565b348015610192575f5ffd5b506100e261068d565b3480156101a6575f5ffd5b5061016f6106d5565b3480156101ba575f5ffd5b5060015461016f906001600160a01b031681565b3480156101d9575f5ffd5b506101fe604051806040016040528060058152602001640352e302e360dc1b81525081565b6040516101159190611157565b348015610216575f5ffd5b506100e261022536600461112d565b610709565b348015610235575f5ffd5b5061016f6108b7565b348015610249575f5ffd5b506100e261025836600461118c565b6108df565b7ff0c57e16840df040f15088dc2f81fe391c3923bec73e23a9662efc9c229c6a008054600160401b810460ff16159067ffffffffffffffff165f811580156102a25750825b90505f8267ffffffffffffffff1660011480156102be5750303b155b9050811580156102cc575080155b156102ea5760405163f92ee8a960e01b815260040160405180910390fd5b845467ffffffffffffffff19166001178555831561031457845460ff60401b1916600160401b1785555b61031d87610964565b610325610975565b61032d610975565b6001600160a01b0386166103545760405163d92e233d60e01b815260040160405180910390fd5b856001600160a01b0316637158da7c6040518163ffffffff1660e01b8152600401602060405180830381865afa158015610390573d5f5f3e3d5ffd5b505050506040513d601f19601f820116820180604052508101906103b491906111a7565b5f80546001600160a01b03929092166001600160a01b0319928316811790915560018054909216179055831561042457845460ff60401b19168555604051600181527fc7f505b2f371ae2175ee4913f4499e1f2633a7b5936321eed1cdaeb6115181d29060200160405180910390a15b50505050505050565b61043561097d565b61043e82610a21565b6104488282610a29565b5050565b5f610455610aea565b505f51602061120f5f395f51905f5290565b5f826001600160a01b03166338d52e0f6040518163ffffffff1660e01b8152600401602060405180830381865afa1580156104a4573d5f5f3e3d5ffd5b505050506040513d601f19601f820116820180604052508101906104c891906111a7565b5f549091506001600160a01b038083169116146104f857604051636448d6e960e11b815260040160405180910390fd5b815f0361052857604051636b30633560e01b81526001600160a01b03841660048201526024015b60405180910390fd5b8261053e6001600160a01b038216333086610b33565b6105526001600160a01b0382168585610ba0565b604051635d043b2960e11b815260048101849052306024820181905260448201525f906001600160a01b0386169063ba087652906064016020604051808303815f875af11580156105a5573d5f5f3e3d5ffd5b505050506040513d601f19601f820116820180604052508101906105c991906111c2565b90506105df6001600160a01b038316865f610ba0565b60015460405163a9059cbb60e01b8152336004820152602481018390525f916001600160a01b03169063a9059cbb906044015b6020604051808303815f875af115801561062e573d5f5f3e3d5ffd5b505050506040513d601f19601f8201168201806040525081019061065291906111d9565b905080610672576040516312171d8360e31b815260040160405180910390fd5b505050505050565b610682610c2f565b61068b5f610c61565b565b33806106976108b7565b6001600160a01b0316146106c95760405163118cdaa760e01b81526001600160a01b038216600482015260240161051f565b6106d281610c61565b50565b5f807f9016d09d72d40fdae2fd8ceac6b6234c7706214fd39c1cd1e609a0528c1993005b546001600160a01b031692915050565b5f8290505f816001600160a01b03166338d52e0f6040518163ffffffff1660e01b8152600401602060405180830381865afa15801561074a573d5f5f3e3d5ffd5b505050506040513d601f19601f8201168201806040525081019061076e91906111a7565b5f549091506001600160a01b0380831691161461079e57604051636448d6e960e11b815260040160405180910390fd5b825f036107c957604051636b30633560e01b81526001600160a01b038516600482015260240161051f565b6001546107e1906001600160a01b0316333086610b33565b6001546107f8906001600160a01b03168585610ba0565b604051636e553f6560e01b8152600481018490523060248201525f906001600160a01b03841690636e553f65906044016020604051808303815f875af1158015610844573d5f5f3e3d5ffd5b505050506040513d601f19601f8201168201806040525081019061086891906111c2565b600154909150610882906001600160a01b0316865f610ba0565b60405163a9059cbb60e01b8152336004820152602481018290525f906001600160a01b0385169063a9059cbb90604401610612565b5f807f237e158222e3e6968b72b9db0d8043aacf074ad9f650f0d1606b4d82ee432c006106f9565b6108e7610c2f565b7f237e158222e3e6968b72b9db0d8043aacf074ad9f650f0d1606b4d82ee432c0080546001600160a01b0319166001600160a01b038316908117825561092b6106d5565b6001600160a01b03167f38d16b8cac22d99fc7c124b9cd0de2d3fa1faef420bfe791d8c362d765e2270060405160405180910390a35050565b61096c610c99565b6106d281610ce2565b61068b610c99565b306001600160a01b037f0000000000000000000000000000000000000000000000000000000000000000161480610a0357507f00000000000000000000000000000000000000000000000000000000000000006001600160a01b03166109f75f51602061120f5f395f51905f52546001600160a01b031690565b6001600160a01b031614155b1561068b5760405163703e46dd60e11b815260040160405180910390fd5b6106d2610c2f565b816001600160a01b03166352d1902d6040518163ffffffff1660e01b8152600401602060405180830381865afa925050508015610a83575060408051601f3d908101601f19168201909252610a80918101906111c2565b60015b610aab57604051634c9c8ce360e01b81526001600160a01b038316600482015260240161051f565b5f51602061120f5f395f51905f528114610adb57604051632a87526960e21b81526004810182905260240161051f565b610ae58383610d13565b505050565b306001600160a01b037f0000000000000000000000000000000000000000000000000000000000000000161461068b5760405163703e46dd60e11b815260040160405180910390fd5b6040516001600160a01b038481166024830152838116604483015260648201839052610b9a9186918216906323b872dd906084015b604051602081830303815290604052915060e01b6020820180516001600160e01b038381831617835250505050610d68565b50505050565b604080516001600160a01b038416602482015260448082018490528251808303909101815260649091019091526020810180516001600160e01b031663095ea7b360e01b179052610bf18482610dd4565b610b9a576040516001600160a01b0384811660248301525f6044830152610c2591869182169063095ea7b390606401610b68565b610b9a8482610d68565b33610c386106d5565b6001600160a01b03161461068b5760405163118cdaa760e01b815233600482015260240161051f565b7f237e158222e3e6968b72b9db0d8043aacf074ad9f650f0d1606b4d82ee432c0080546001600160a01b031916815561044882610e1d565b7ff0c57e16840df040f15088dc2f81fe391c3923bec73e23a9662efc9c229c6a0054600160401b900460ff1661068b57604051631afcd79f60e31b815260040160405180910390fd5b610cea610c99565b6001600160a01b0381166106c957604051631e4fbdf760e01b81525f600482015260240161051f565b610d1c82610e8d565b6040516001600160a01b038316907fbc7cd75a20ee27fd9adebab32041f755214dbc6bffa90cc0225b39da2e5c2d3b905f90a2805115610d6057610ae58282610ef0565b610448610f62565b5f5f60205f8451602086015f885af180610d87576040513d5f823e3d81fd5b50505f513d91508115610d9e578060011415610dab565b6001600160a01b0384163b155b15610b9a57604051635274afe760e01b81526001600160a01b038516600482015260240161051f565b5f5f5f5f60205f8651602088015f8a5af192503d91505f519050828015610e1357508115610e055780600114610e13565b5f866001600160a01b03163b115b9695505050505050565b7f9016d09d72d40fdae2fd8ceac6b6234c7706214fd39c1cd1e609a0528c19930080546001600160a01b031981166001600160a01b03848116918217845560405192169182907f8be0079c531659141344cd1fd0a4f28419497f9722a3daafe3b4186f6b6457e0905f90a3505050565b806001600160a01b03163b5f03610ec257604051634c9c8ce360e01b81526001600160a01b038216600482015260240161051f565b5f51602061120f5f395f51905f5280546001600160a01b0319166001600160a01b0392909216919091179055565b60605f5f846001600160a01b031684604051610f0c91906111f8565b5f60405180830381855af49150503d805f8114610f44576040519150601f19603f3d011682016040523d82523d5f602084013e610f49565b606091505b5091509150610f59858383610f81565b95945050505050565b341561068b5760405163b398979f60e01b815260040160405180910390fd5b606082610f9657610f9182610fe0565b610fd9565b8151158015610fad57506001600160a01b0384163b155b15610fd657604051639996b31560e01b81526001600160a01b038516600482015260240161051f565b50805b9392505050565b805115610fef57805160208201fd5b60405163d6bda27560e01b815260040160405180910390fd5b6001600160a01b03811681146106d2575f5ffd5b5f5f6040838503121561102d575f5ffd5b823561103881611008565b9150602083013561104881611008565b809150509250929050565b634e487b7160e01b5f52604160045260245ffd5b5f5f60408385031215611078575f5ffd5b823561108381611008565b9150602083013567ffffffffffffffff81111561109e575f5ffd5b8301601f810185136110ae575f5ffd5b803567ffffffffffffffff8111156110c8576110c8611053565b604051601f8201601f19908116603f0116810167ffffffffffffffff811182821017156110f7576110f7611053565b60405281815282820160200187101561110e575f5ffd5b816020840160208301375f602083830101528093505050509250929050565b5f5f6040838503121561113e575f5ffd5b823561114981611008565b946020939093013593505050565b602081525f82518060208401528060208501604085015e5f604082850101526040601f19601f83011684010191505092915050565b5f6020828403121561119c575f5ffd5b8135610fd981611008565b5f602082840312156111b7575f5ffd5b8151610fd981611008565b5f602082840312156111d2575f5ffd5b5051919050565b5f602082840312156111e9575f5ffd5b81518015158114610fd9575f5ffd5b5f82518060208501845e5f92019182525091905056fe360894a13ba1a3210667c828492db98dca3e2076cc3735a920a3ca505d382bbca26469706673582212209d1dcaa3a27c8396a76aec3c61281cfc6c590d4931cd9f75f87bdb3b25dd522664736f6c634300081c0033",
  "linkReferences": {},
  "deployedLinkReferences": {}
}