{
  "_format": "hh-sol-artifact-1",
  "contractName": "MockExecutionAdapter",
  "sourceName": "contracts/mocks/MockExecutionAdapter.sol",
  "abi": [
    {
      "inputs": [],
      "stateMutability": "nonpayable",
      "type": "constructor"
    },
    {
      "inputs": [
        {
          "internalType": "address",
          "name": "asset",
          "type": "address"
        },
        {
          "internalType": "uint256",
          "name": "sharesAmount",
          "type": "uint256"
        }
      ],
      "name": "buy",
      "outputs": [
        {
          "internalType": "uint256",
          "name": "executionUnderlyingAmount",
          "type": "uint256"
        }
      ],
      "stateMutability": "nonpayable",
      "type": "function"
    },
    {
      "inputs": [
        {
          "internalType": "address",
          "name": "asset",
          "type": "address"
        },
        {
          "internalType": "uint256",
          "name": "sharesAmount",
          "type": "uint256"
        }
      ],
      "name": "sell",
      "outputs": [
        {
          "internalType": "uint256",
          "name": "executionUnderlyingAmount",
          "type": "uint256"
        }
      ],
      "stateMutability": "nonpayable",
      "type": "function"
    }
  ],
  "bytecode": "0x6080604052348015600e575f5ffd5b5060c680601a5f395ff3fe6080604052348015600e575f5ffd5b50600436106030575f3560e01c80636c197ff5146034578063cce7ec13146034575b5f5ffd5b604b603f366004605d565b5064e8d4a51000919050565b60405190815260200160405180910390f35b5f5f60408385031215606d575f5ffd5b82356001600160a01b03811681146082575f5ffd5b94602093909301359350505056fea26469706673582212209a1a0f8b2b358d429bcc2937309050d3ac73a6a6326d7d3e50cc05a5758dfa8d64736f6c634300081c0033",
  "linkReferences": {},
  "deployedLinkReferences": {}
}