{
  "_format": "hh-sol-artifact-1",
  "contractName": "InternalStatesOrchestrator",
  "sourceName": "contracts/orchestrators/InternalStatesOrchestrator.sol",
  "abi": [
    {
      "inputs": [
        {
          "internalType": "address",
          "name": "initialOwner",
          "type": "address"
        },
        {
          "internalType": "address",
          "name": "config_",
          "type": "address"
        },
        {
          "internalType": "address",
          "name": "automationRegistry_",
          "type": "address"
        }
      ],
      "stateMutability": "nonpayable",
      "type": "constructor"
    },
    {
      "inputs": [],
      "name": "InvalidArguments",
      "type": "error"
    },
    {
      "inputs": [],
      "name": "NotAuthorized",
      "type": "error"
    },
    {
      "inputs": [
        {
          "internalType": "address",
          "name": "owner",
          "type": "address"
        }
      ],
      "name": "OwnableInvalidOwner",
      "type": "error"
    },
    {
      "inputs": [
        {
          "internalType": "address",
          "name": "account",
          "type": "address"
        }
      ],
      "name": "OwnableUnauthorizedAccount",
      "type": "error"
    },
    {
      "inputs": [],
      "name": "ReentrancyGuardReentrantCall",
      "type": "error"
    },
    {
      "inputs": [],
      "name": "SystemNotIdle",
      "type": "error"
    },
    {
      "inputs": [],
      "name": "TooEarly",
      "type": "error"
    },
    {
      "inputs": [],
      "name": "ZeroAddress",
      "type": "error"
    },
    {
      "anonymous": false,
      "inputs": [
        {
          "indexed": true,
          "internalType": "address",
          "name": "newAutomationRegistry",
          "type": "address"
        }
      ],
      "name": "AutomationRegistryUpdated",
      "type": "event"
    },
    {
      "anonymous": false,
      "inputs": [
        {
          "indexed": false,
          "internalType": "uint16",
          "name": "epochCounter",
          "type": "uint16"
        }
      ],
      "name": "InternalStateProcessed",
      "type": "event"
    },
    {
      "anonymous": false,
      "inputs": [
        {
          "indexed": true,
          "internalType": "address",
          "name": "previousOwner",
          "type": "address"
        },
        {
          "indexed": true,
          "internalType": "address",
          "name": "newOwner",
          "type": "address"
        }
      ],
      "name": "OwnershipTransferred",
      "type": "event"
    },
    {
      "inputs": [],
      "name": "automationRegistry",
      "outputs": [
        {
          "internalType": "address",
          "name": "",
          "type": "address"
        }
      ],
      "stateMutability": "view",
      "type": "function"
    },
    {
      "inputs": [
        {
          "internalType": "bytes",
          "name": "",
          "type": "bytes"
        }
      ],
      "name": "checkUpkeep",
      "outputs": [
        {
          "internalType": "bool",
          "name": "upkeepNeeded",
          "type": "bool"
        },
        {
          "internalType": "bytes",
          "name": "performData",
          "type": "bytes"
        }
      ],
      "stateMutability": "view",
      "type": "function"
    },
    {
      "inputs": [],
      "name": "config",
      "outputs": [
        {
          "internalType": "contract IOrionConfig",
          "name": "",
          "type": "address"
        }
      ],
      "stateMutability": "view",
      "type": "function"
    },
    {
      "inputs": [],
      "name": "currentMinibatchIndex",
      "outputs": [
        {
          "internalType": "uint8",
          "name": "",
          "type": "uint8"
        }
      ],
      "stateMutability": "view",
      "type": "function"
    },
    {
      "inputs": [],
      "name": "currentPhase",
      "outputs": [
        {
          "internalType": "enum IInternalStateOrchestrator.InternalUpkeepPhase",
          "name": "",
          "type": "uint8"
        }
      ],
      "stateMutability": "view",
      "type": "function"
    },
    {
      "inputs": [],
      "name": "encryptedMinibatchSize",
      "outputs": [
        {
          "internalType": "uint8",
          "name": "",
          "type": "uint8"
        }
      ],
      "stateMutability": "view",
      "type": "function"
    },
    {
      "inputs": [
        {
          "internalType": "uint256",
          "name": "",
          "type": "uint256"
        }
      ],
      "name": "encryptedVaultsEpoch",
      "outputs": [
        {
          "internalType": "address",
          "name": "",
          "type": "address"
        }
      ],
      "stateMutability": "view",
      "type": "function"
    },
    {
      "inputs": [],
      "name": "epochCounter",
      "outputs": [
        {
          "internalType": "uint16",
          "name": "",
          "type": "uint16"
        }
      ],
      "stateMutability": "view",
      "type": "function"
    },
    {
      "inputs": [],
      "name": "epochDuration",
      "outputs": [
        {
          "internalType": "uint32",
          "name": "",
          "type": "uint32"
        }
      ],
      "stateMutability": "view",
      "type": "function"
    },
    {
      "inputs": [],
      "name": "getBuyingOrders",
      "outputs": [
        {
          "internalType": "address[]",
          "name": "tokens",
          "type": "address[]"
        },
        {
          "internalType": "uint256[]",
          "name": "amounts",
          "type": "uint256[]"
        }
      ],
      "stateMutability": "view",
      "type": "function"
    },
    {
      "inputs": [],
      "name": "getSellingOrders",
      "outputs": [
        {
          "internalType": "address[]",
          "name": "tokens",
          "type": "address[]"
        },
        {
          "internalType": "uint256[]",
          "name": "amounts",
          "type": "uint256[]"
        }
      ],
      "stateMutability": "view",
      "type": "function"
    },
    {
      "inputs": [],
      "name": "intentFactor",
      "outputs": [
        {
          "internalType": "uint256",
          "name": "",
          "type": "uint256"
        }
      ],
      "stateMutability": "view",
      "type": "function"
    },
    {
      "inputs": [],
      "name": "owner",
      "outputs": [
        {
          "internalType": "address",
          "name": "",
          "type": "address"
        }
      ],
      "stateMutability": "view",
      "type": "function"
    },
    {
      "inputs": [
        {
          "internalType": "bytes",
          "name": "performData",
          "type": "bytes"
        }
      ],
      "name": "performUpkeep",
      "outputs": [],
      "stateMutability": "nonpayable",
      "type": "function"
    },
    {
      "inputs": [],
      "name": "priceAdapterPrecision",
      "outputs": [
        {
          "internalType": "uint256",
          "name": "",
          "type": "uint256"
        }
      ],
      "stateMutability": "view",
      "type": "function"
    },
    {
      "inputs": [],
      "name": "registry",
      "outputs": [
        {
          "internalType": "contract IPriceAdapterRegistry",
          "name": "",
          "type": "address"
        }
      ],
      "stateMutability": "view",
      "type": "function"
    },
    {
      "inputs": [],
      "name": "renounceOwnership",
      "outputs": [],
      "stateMutability": "nonpayable",
      "type": "function"
    },
    {
      "inputs": [
        {
          "internalType": "address",
          "name": "newOwner",
          "type": "address"
        }
      ],
      "name": "transferOwnership",
      "outputs": [],
      "stateMutability": "nonpayable",
      "type": "function"
    },
    {
      "inputs": [],
      "name": "transparentMinibatchSize",
      "outputs": [
        {
          "internalType": "uint8",
          "name": "",
          "type": "uint8"
        }
      ],
      "stateMutability": "view",
      "type": "function"
    },
    {
      "inputs": [
        {
          "internalType": "uint256",
          "name": "",
          "type": "uint256"
        }
      ],
      "name": "transparentVaultsEpoch",
      "outputs": [
        {
          "internalType": "address",
          "name": "",
          "type": "address"
        }
      ],
      "stateMutability": "view",
      "type": "function"
    },
    {
      "inputs": [],
      "name": "underlyingAsset",
      "outputs": [
        {
          "internalType": "address",
          "name": "",
          "type": "address"
        }
      ],
      "stateMutability": "view",
      "type": "function"
    },
    {
      "inputs": [],
      "name": "underlyingDecimals",
      "outputs": [
        {
          "internalType": "uint8",
          "name": "",
          "type": "uint8"
        }
      ],
      "stateMutability": "view",
      "type": "function"
    },
    {
      "inputs": [
        {
          "internalType": "address",
          "name": "newAutomationRegistry",
          "type": "address"
        }
      ],
      "name": "updateAutomationRegistry",
      "outputs": [],
      "stateMutability": "nonpayable",
      "type": "function"
    },
    {
      "inputs": [
        {
          "internalType": "uint32",
          "name": "newEpochDuration",
          "type": "uint32"
        }
      ],
      "name": "updateEpochDuration",
      "outputs": [],
      "stateMutability": "nonpayable",
      "type": "function"
    },
    {
      "inputs": [
        {
          "internalType": "uint8",
          "name": "_transparentMinibatchSize",
          "type": "uint8"
        },
        {
          "internalType": "uint8",
          "name": "_encryptedMinibatchSize",
          "type": "uint8"
        }
      ],
      "name": "updateMinibatchSizes",
      "outputs": [],
      "stateMutability": "nonpayable",
      "type": "function"
    }
  ],
  "bytecode": "0x608060405234801561000f575f5ffd5b5060405161314c38038061314c83398101604081905261002e91610674565b826101836100cd604080516080810182525f808252602082018190529181018290526060810191909152506040805160808101825273687820221192c5b662b25367f70076a37bc79b6c815273848b0066793bcc60346da1f49049357399b8d5956020820152731364cbbf2cdf5032c47d8226a6f6fbd2afcdacac9181019190915273bc91f3dad1a5f19f8390c400196e58073b6a0bc4606082015290565b80515f51602061310c5f395f51905f5280546001600160a01b03199081166001600160a01b039384161790915560208301515f51602061312c5f395f51905f528054831691841691909117905560408301517fed8d60e34876f751cc8b014c560745351147d9de11b9347c854e881b128ea6028054831691841691909117905560608301517fed8d60e34876f751cc8b014c560745351147d9de11b9347c854e881b128ea6038054909216921691909117905550565b7f5ea69329017273582817d320489fbd94f775580e90c092699ca6f3d12fdf7d0080546001600160a01b03191673a02cda4ca3a71d7c46997716f4283aa851c288121790556001600160a01b0381166101f557604051631e4fbdf760e01b81525f600482015260240160405180910390fd5b6101fe81610552565b50600180556001600160a01b03821661022a5760405163d92e233d60e01b815260040160405180910390fd5b6001600160a01b0381166102515760405163d92e233d60e01b815260040160405180910390fd5b600380546001600160a01b0319166001600160a01b0384169081179091556040805163015df99360e01b8152905163015df993916004808201926020929091908290030181865afa1580156102a8573d5f5f3e3d5ffd5b505050506040513d601f19601f820116820180604052508101906102cc91906106be565b600480546001600160a01b0319166001600160a01b039283161781556003546040805163d1717c7d60e01b81529051919093169263d1717c7d92818101926020929091908290030181865afa158015610327573d5f5f3e3d5ffd5b505050506040513d601f19601f8201168201806040525081019061034b91906106e0565b61035690600a6107f7565b60065560035460408051631c56369f60e21b815290516001600160a01b0390921691637158da7c916004808201926020929091908290030181865afa1580156103a1573d5f5f3e3d5ffd5b505050506040513d601f19601f820116820180604052508101906103c591906106be565b600780546001600160a01b0319166001600160a01b039290921691821790556040805163313ce56760e01b8152905163313ce567916004808201926020929091908290030181865afa15801561041d573d5f5f3e3d5ffd5b505050506040513d601f19601f8201168201806040525081019061044191906106e0565b600760146101000a81548160ff021916908360ff16021790555060035f9054906101000a90046001600160a01b03166001600160a01b031663567ba7136040518163ffffffff1660e01b8152600401602060405180830381865afa1580156104ab573d5f5f3e3d5ffd5b505050506040513d601f19601f820116820180604052508101906104cf91906106e0565b6104da90600a6107f7565b6005556013805463ffff000019166301010000179055600280546001600160a01b0319166001600160a01b038316179055601180546201518063ffffffff19909116179055610528426105a1565b6012556013805465ffff0000ffff191690556105435f6105bc565b6014555061085f915050565b50565b5f80546001600160a01b038381166001600160a01b0319831681178455604051919092169283917f8be0079c531659141344cd1fd0a4f28419497f9722a3daafe3b4186f6b6457e09190a35050565b6011545f906105b69063ffffffff1683610805565b92915050565b5f6105b663ffffffff831660045f51602061312c5f395f51905f5254604051639cd07acb60e01b81525f915f51602061310c5f395f51905f52916001600160a01b0390911690639cd07acb906106189087908790600401610818565b6020604051808303815f875af1158015610634573d5f5f3e3d5ffd5b505050506040513d601f19601f820116820180604052508101906106589190610848565b949350505050565b6001600160a01b038116811461054f575f5ffd5b5f5f5f60608486031215610686575f5ffd5b835161069181610660565b60208501519093506106a281610660565b60408501519092506106b381610660565b809150509250925092565b5f602082840312156106ce575f5ffd5b81516106d981610660565b9392505050565b5f602082840312156106f0575f5ffd5b815160ff811681146106d9575f5ffd5b634e487b7160e01b5f52601160045260245ffd5b6001815b600184111561074f5780850481111561073357610733610700565b600184161561074157908102905b60019390931c928002610718565b935093915050565b5f82610765575060016105b6565b8161077157505f6105b6565b81600181146107875760028114610791576107ad565b60019150506105b6565b60ff8411156107a2576107a2610700565b50506001821b6105b6565b5060208310610133831016604e8410600b84101617156107d0575081810a6105b6565b6107dc5f198484610714565b805f19048211156107ef576107ef610700565b029392505050565b5f6106d960ff841683610757565b808201808211156105b6576105b6610700565b828152604081016054831061083b57634e487b7160e01b5f52602160045260245ffd5b8260208301529392505050565b5f60208284031215610858575f5ffd5b5051919050565b6128a08061086c5f395ff3fe608060405234801561000f575f5ffd5b5060043610610130575f3560e01c8062bb07bb14610134578063055ad42e1461014957806308af604d1461017357806314b19c5a1461019857806314b5d07f146101b957806325a760c2146101cc578063289a2f76146101e05780632b0088b41461020057806336021ef4146102175780634585e33b1461022b5780634ff0876a1461023e5780635488cd621461026357806358fac65b146102775780635dc228a01461028a5780636e04ff0d1461029d578063715018a6146102be5780637158da7c146102c657806379502c55146102d95780637b103999146102ec5780638da5cb5b146102ff578063a08b82d714610307578063c2cb5d881461031d578063ca1f32f114610325578063eeb393c91461032e578063f2fde38b14610341575b5f5ffd5b61014761014236600461206d565b610354565b005b60135461015d90600160201b900460ff1681565b60405161016a91906120c8565b60405180910390f35b6013546101869062010000900460ff1681565b60405160ff909116815260200161016a565b6013546101a69061ffff1681565b60405161ffff909116815260200161016a565b6101476101c73660046120ef565b61044e565b60075461018690600160a01b900460ff1681565b6101f36101ee36600461210a565b610557565b60405161016a9190612121565b61020960065481565b60405190815260200161016a565b601354610186906301000000900460ff1681565b610147610239366004612135565b61057f565b60115461024e9063ffffffff1681565b60405163ffffffff909116815260200161016a565b60135461018690600160281b900460ff1681565b6101f361028536600461210a565b610878565b6002546101f3906001600160a01b031681565b6102b06102ab366004612135565b610887565b60405161016a9291906121a1565b610147610aa6565b6007546101f3906001600160a01b031681565b6003546101f3906001600160a01b031681565b6004546101f3906001600160a01b031681565b6101f3610ab9565b61030f610ac7565b60405161016a9291906121df565b61030f610cff565b61020960055481565b61014761033c366004612279565b610f2e565b61014761034f3660046120ef565b611009565b61035c61104f565b60ff8216158061036d575060ff8116155b1561038b576040516317dbc4cb60e21b815260040160405180910390fd5b60035f9054906101000a90046001600160a01b03166001600160a01b031663edcf9c1f6040518163ffffffff1660e01b8152600401602060405180830381865afa1580156103db573d5f5f3e3d5ffd5b505050506040513d601f19601f820116820180604052508101906103ff9190612294565b61041c576040516312aecd8160e01b815260040160405180910390fd5b6013805463ffff000019166201000060ff9485160263ff00000019161763010000009290931691909102919091179055565b61045661104f565b6001600160a01b03811661047d5760405163d92e233d60e01b815260040160405180910390fd5b60035f9054906101000a90046001600160a01b03166001600160a01b031663edcf9c1f6040518163ffffffff1660e01b8152600401602060405180830381865afa1580156104cd573d5f5f3e3d5ffd5b505050506040513d601f19601f820116820180604052508101906104f19190612294565b61050e576040516312aecd8160e01b815260040160405180910390fd5b600280546001600160a01b0319166001600160a01b0383169081179091556040517f6cc7ebdb6c8c53291c5ae16148cab9b049d23bf5bde5632900b40edff56fcb43905f90a250565b60168181548110610566575f80fd5b5f918252602090912001546001600160a01b0316905081565b6002546001600160a01b031633146105aa5760405163ea8e4eb560e01b815260040160405180910390fd5b6105b2611081565b60048110156105d4576040516317dbc4cb60e21b815260040160405180910390fd5b5f6105e260048284866122b3565b6105eb916122da565b90506341659aab60e01b6001600160e01b031982160161073a5761060d6110ab565b6106156110dc565b600354604051631da09e4360e31b81526001600160a01b039091169063ed04f21890610645905f90600401612312565b5f60405180830381865afa15801561065f573d5f5f3e3d5ffd5b505050506040513d5f823e601f3d908101601f1916820160405261068691908101906123ff565b805161069a91601591602090910190611fd1565b50600354604051631da09e4360e31b81526001600160a01b039091169063ed04f218906106cc90600190600401612312565b5f60405180830381865afa1580156106e6573d5f5f3e3d5ffd5b505050506040513d5f823e601f3d908101601f1916820160405261070d91908101906123ff565b805161072191601691602090910190611fd1565b506013805460ff60201b1916600160201b17905561086a565b63019918a560e51b6001600160e01b031982160161077e575f61076083600481876122b3565b81019061076d9190612438565b905061077881611200565b5061086a565b6314897e2360e11b6001600160e01b03198216016107bc575f6107a483600481876122b3565b8101906107b19190612438565b9050610778816118be565b6350c9887560e01b6001600160e01b0319821601610851576107dc611bff565b6013805460ff60201b198116825561ffff16905f6107f983612467565b82546101009290920a61ffff818102199093169183160217909155601354604051911681527f0bc12479581640d161e016cef21aa834cb6d6326bbc0d8445e58d56403adf2dc915060200160405180910390a161086a565b6040516317dbc4cb60e21b815260040160405180910390fd5b5061087460018055565b5050565b60158181548110610566575f80fd5b5f606060035f9054906101000a90046001600160a01b03166001600160a01b031663edcf9c1f6040518163ffffffff1660e01b8152600401602060405180830381865afa1580156108da573d5f5f3e3d5ffd5b505050506040513d601f19601f820116820180604052508101906108fe9190612294565b801561090c57506012544210155b1561095c57600191507fbe9a655586dceb82dfa0af992b5d8ae7fa45053cb7fd6f141f541da7572978c76040516020016109469190612487565b6040516020818303038152906040529050610a9f565b6001601354600160201b900460ff16600381111561097c5761097c6120a4565b036109c757600191507fccdceb60d34ec82e2b625c80d044e07bc5264e5a5f17ab57ea62c77ee8c3d797601360059054906101000a900460ff1660405160200161094692919061249c565b6002601354600160201b900460ff1660038111156109e7576109e76120a4565b03610a3257600191507fd6ed03ba70bef77e7dcdbaa2d7d9bcd9a4dd463c2c6bcd5b016869e952bdaddb601360059054906101000a900460ff1660405160200161094692919061249c565b6003601354600160201b900460ff166003811115610a5257610a526120a4565b03610a8c57600191507faf36778b2d01c6b9ccbf0ff82e33823de0a4811632929c60c03041666deffc9b6040516020016109469190612487565b505060408051602081019091525f808252905b9250929050565b610aae61104f565b610ab75f611d63565b565b5f546001600160a01b031690565b600d80546040805160208084028201810190925282815260609384935f93830182828015610b1c57602002820191905f5260205f20905b81546001600160a01b03168152600190910190602001808311610afe575b505083519394505f9250829150505b8261ffff168161ffff161015610b9c575f60086004015f868461ffff1681518110610b5857610b586124c3565b60200260200101516001600160a01b03166001600160a01b031681526020019081526020015f20541115610b945781610b9081612467565b9250505b600101610b2b565b508061ffff166001600160401b03811115610bb957610bb9612326565b604051908082528060200260200182016040528015610be2578160200160208202803683370190505b5094508061ffff166001600160401b03811115610c0157610c01612326565b604051908082528060200260200182016040528015610c2a578160200160208202803683370190505b5093505f805b8361ffff168161ffff161015610cf6575f858261ffff1681518110610c5757610c576124c3565b6020908102919091018101516001600160a01b0381165f908152600c9092526040909120549091508015610cec5781898561ffff1681518110610c9c57610c9c6124c3565b60200260200101906001600160a01b031690816001600160a01b03168152505080888561ffff1681518110610cd357610cd36124c3565b602090810291909101015283610ce881612467565b9450505b5050600101610c30565b50505050509091565b600d80546040805160208084028201810190925282815260609384935f93830182828015610d5457602002820191905f5260205f20905b81546001600160a01b03168152600190910190602001808311610d36575b505083519394505f9250829150505b8261ffff168161ffff161015610dd4575f60086003015f868461ffff1681518110610d9057610d906124c3565b60200260200101516001600160a01b03166001600160a01b031681526020019081526020015f20541115610dcc5781610dc881612467565b9250505b600101610d63565b508061ffff166001600160401b03811115610df157610df1612326565b604051908082528060200260200182016040528015610e1a578160200160208202803683370190505b5094508061ffff166001600160401b03811115610e3957610e39612326565b604051908082528060200260200182016040528015610e62578160200160208202803683370190505b5093505f805b8361ffff168161ffff161015610cf6575f858261ffff1681518110610e8f57610e8f6124c3565b6020908102919091018101516001600160a01b0381165f908152600b9092526040909120549091508015610f245781898561ffff1681518110610ed457610ed46124c3565b60200260200101906001600160a01b031690816001600160a01b03168152505080888561ffff1681518110610f0b57610f0b6124c3565b602090810291909101015283610f2081612467565b9450505b5050600101610e68565b610f3661104f565b8063ffffffff165f03610f5c576040516317dbc4cb60e21b815260040160405180910390fd5b60035f9054906101000a90046001600160a01b03166001600160a01b031663edcf9c1f6040518163ffffffff1660e01b8152600401602060405180830381865afa158015610fac573d5f5f3e3d5ffd5b505050506040513d601f19601f82011682018060405250810190610fd09190612294565b610fed576040516312aecd8160e01b815260040160405180910390fd5b6011805463ffffffff191663ffffffff92909216919091179055565b61101161104f565b6001600160a01b038116611043575f604051631e4fbdf760e01b815260040161103a9190612121565b60405180910390fd5b61104c81611d63565b50565b33611058610ab9565b6001600160a01b031614610ab7573360405163118cdaa760e01b815260040161103a9190612121565b6002600154036110a457604051633ee5aeb560e01b815260040160405180910390fd5b6002600155565b6012544210156110ce5760405163085de62560e01b815260040160405180910390fd5b6110d742611db2565b601255565b5f600860050180548060200260200160405190810160405280929190818152602001828054801561113457602002820191905f5260205f20905b81546001600160a01b03168152600190910190602001808311611116575b505083519394505f925050505b8161ffff168161ffff1610156111de575f838261ffff1681518110611168576111686124c3565b6020908102919091018101516001600160a01b03165f90815260088252604080822082905560098352808220829055600a8352808220829055600b8352808220829055600c8352808220829055600e8352808220805460ff19908116909155600f90935290208054909116905550600101611141565b506111ea600d5f612034565b6111f560155f612034565b61087460165f612034565b60138054600160281b900460ff1690600561121a836124d7565b91906101000a81548160ff021916908360ff160217905550505f601360029054906101000a900460ff168261124f91906124ec565b60135460ff91821692505f9161126c916201000090041683612508565b60155490915061ffff8216111561129657506015546013805461ffff60201b1916600160211b1790555b815b8161ffff168161ffff1610156118b8575f60158261ffff16815481106112c0576112c06124c3565b905f5260205f20015f9054906101000a90046001600160a01b031690505f5f826001600160a01b031663d3d034586040518163ffffffff1660e01b81526004015f60405180830381865afa15801561131a573d5f5f3e3d5ffd5b505050506040513d5f823e601f3d908101601f191682016040526113419190810190612522565b90925090505f805b83518161ffff1610156115c2575f848261ffff168151811061136d5761136d6124c3565b6020908102919091018101516001600160a01b0381165f908152600f909252604082205490925060ff16900361142757806001600160a01b031663313ce5676040518163ffffffff1660e01b8152600401602060405180830381865afa1580156113d9573d5f5f3e3d5ffd5b505050506040513d601f19601f820116820180604052508101906113fd91906125e0565b6001600160a01b0382165f908152600f60205260409020805460ff191660ff929092169190911790555b6001600160a01b0381165f908152600f6020908152604080832054600890925282205460ff90911691819003611518576007546001600160a01b039081169084160361148c5760075461148590600160a01b900460ff16600a6126de565b90506114fd565b600480546040516341976e0960e01b81526001600160a01b03909116916341976e09916114bb91879101612121565b602060405180830381865afa1580156114d6573d5f5f3e3d5ffd5b505050506040513d601f19601f820116820180604052508101906114fa91906126ec565b90505b6001600160a01b0383165f9081526008602052604090208190555b5f611564611550888761ffff1681518110611535576115356124c3565b602002602001015160055485611dcd9092919063ffffffff16565b6007548590600160a01b900460ff16611e7e565b90506115708187612703565b6001600160a01b0385165f9081526009602052604081208054929850839290919061159c908490612703565b909155506115ab905084611ee8565b5050505080806115ba90612467565b915050611349565b505f846001600160a01b031663a68a5267866001600160a01b031663c37fc8a86040518163ffffffff1660e01b8152600401602060405180830381865afa15801561160f573d5f5f3e3d5ffd5b505050506040513d601f19601f8201168201806040525081019061163391906126ec565b845f6040518463ffffffff1660e01b815260040161165393929190612716565b602060405180830381865afa15801561166e573d5f5f3e3d5ffd5b505050506040513d601f19601f8201168201806040525081019061169291906126ec565b60405163728d42fb60e11b8152600481018490529091505f906001600160a01b0387169063e51a85f690602401602060405180830381865afa1580156116da573d5f5f3e3d5ffd5b505050506040513d601f19601f820116820180604052508101906116fe91906126ec565b82876001600160a01b031663d1699c266040518163ffffffff1660e01b8152600401602060405180830381865afa15801561173b573d5f5f3e3d5ffd5b505050506040513d601f19601f8201168201806040525081019061175f91906126ec565b6117699086612703565b611773919061273b565b61177d919061273b565b90505f5f876001600160a01b031663b6eba6536040518163ffffffff1660e01b81526004015f60405180830381865afa1580156117bc573d5f5f3e3d5ffd5b505050506040513d5f823e601f3d908101601f191682016040526117e3919081019061274e565b815191935091505f5b8161ffff168161ffff1610156118a2575f848261ffff1681518110611813576118136124c3565b602002602001015190505f848361ffff1681518110611834576118346124c3565b602002602001015190505f61185c8263ffffffff166006548a611dcd9092919063ffffffff16565b6001600160a01b0384165f908152600a6020526040812080549293508392909190611888908490612703565b90915550611897905083611ee8565b5050506001016117ec565b5050600190980197506112989650505050505050565b50505050565b6118c6611081565b60138054600160281b900460ff169060056118e0836124d7565b91906101000a81548160ff021916908360ff160217905550505f601360039054906101000a900460ff168261191591906124ec565b60135460ff91821692505f9161193391630100000090041683612508565b60165490915061ffff8216111561195d57506016546013805461ffff60201b1916600360201b1790555b815b8161ffff168161ffff161015611bf3575f60168261ffff1681548110611987576119876124c3565b905f5260205f20015f9054906101000a90046001600160a01b031690505f5f826001600160a01b031663d3d034586040518163ffffffff1660e01b81526004015f60405180830381865afa1580156119e1573d5f5f3e3d5ffd5b505050506040513d5f823e601f3d908101601f19168201604052611a089190810190612522565b90925090505f5b82518161ffff161015611be3575f838261ffff1681518110611a3357611a336124c3565b6020908102919091018101516001600160a01b0381165f908152600f909252604082205490925060ff169003611aed57806001600160a01b031663313ce5676040518163ffffffff1660e01b8152600401602060405180830381865afa158015611a9f573d5f5f3e3d5ffd5b505050506040513d601f19601f82011682018060405250810190611ac391906125e0565b6001600160a01b0382165f908152600f60205260409020805460ff191660ff929092169190911790555b6001600160a01b0381165f9081526008602052604081205490819003611bce576007546001600160a01b0390811690831603611b4257600754611b3b90600160a01b900460ff16600a6126de565b9050611bb3565b600480546040516341976e0960e01b81526001600160a01b03909116916341976e0991611b7191869101612121565b602060405180830381865afa158015611b8c573d5f5f3e3d5ffd5b505050506040513d601f19601f82011682018060405250810190611bb091906126ec565b90505b6001600160a01b0382165f9081526008602052604090208190555b50508080611bdb90612467565b915050611a0f565b50506001909201915061195f9050565b50505061104c60018055565b5f6008600501805480602002602001604051908101604052809291908181526020018280548015611c5757602002820191905f5260205f20905b81546001600160a01b03168152600190910190602001808311611c39575b505083519394505f925050505b8161ffff168161ffff161015611d5e575f838261ffff1681518110611c8b57611c8b6124c3565b6020908102919091018101516001600160a01b0381165f90815260098352604080822054600a855281832054600f909552912054919350919060ff1681831115611d21575f611cda838561273b565b6001600160a01b0386165f9081526008602052604081205491925090611d01908385611f6d565b6001600160a01b0387165f908152600b602052604090205550611d4e9050565b82821115611d4e575f611d34848461273b565b6001600160a01b0386165f908152600c6020526040902055505b505060019092019150611c649050565b505050565b5f80546001600160a01b038381166001600160a01b0319831681178455604051919092169283917f8be0079c531659141344cd1fd0a4f28419497f9722a3daafe3b4186f6b6457e09190a35050565b6011545f90611dc79063ffffffff1683612703565b92915050565b5f5f5f611dda8686611fa4565b91509150815f03611dfe57838181611df457611df4612807565b0492505050611e77565b818411611e1557611e156003851502601118611fc0565b5f848688095f868103871696879004966002600389028118808a02820302808a02820302808a02820302808a02820302808a02820302808a02909103029181900381900460010185841190960395909502919093039390930492909217029150505b9392505050565b5f8260ff168260ff161115611eb357611e97838361281b565b611ea290600a6126de565b611eac9085612834565b9050611e77565b8260ff168260ff161015611ee057611ecb828461281b565b611ed690600a6126de565b611eac908561284b565b509192915050565b6001600160a01b0381165f908152600e602052604090205460ff1661104c57600d805460018181019092557fd7b6990105719101dabeb77144f2a3385c8033acd3af97e9423a695e81ad1eb50180546001600160a01b0384166001600160a01b031990911681179091555f908152600e60205260409020805460ff1916909117905550565b5f5f611f8984600760149054906101000a900460ff1685611e7e565b600554909150611f9b90829087611dcd565b95945050505050565b5f805f1983850993909202808410938190039390930393915050565b634e487b715f52806020526024601cfd5b828054828255905f5260205f20908101928215612024579160200282015b8281111561202457825182546001600160a01b0319166001600160a01b03909116178255602090920191600190910190611fef565b5061203092915061204b565b5090565b5080545f8255905f5260205f209081019061104c91905b5b80821115612030575f815560010161204c565b60ff8116811461104c575f5ffd5b5f5f6040838503121561207e575f5ffd5b82356120898161205f565b915060208301356120998161205f565b809150509250929050565b634e487b7160e01b5f52602160045260245ffd5b6004811061104c5761104c6120a4565b602081016120d5836120b8565b91905290565b6001600160a01b038116811461104c575f5ffd5b5f602082840312156120ff575f5ffd5b8135611e77816120db565b5f6020828403121561211a575f5ffd5b5035919050565b6001600160a01b0391909116815260200190565b5f5f60208385031215612146575f5ffd5b82356001600160401b0381111561215b575f5ffd5b8301601f8101851361216b575f5ffd5b80356001600160401b03811115612180575f5ffd5b856020828401011115612191575f5ffd5b6020919091019590945092505050565b8215158152604060208201525f82518060408401528060208501606085015e5f606082850101526060601f19601f8301168401019150509392505050565b604080825283519082018190525f9060208501906060840190835b818110156122215783516001600160a01b03168352602093840193909201916001016121fa565b5050838103602080860191909152855180835291810192508501905f5b8181101561225c57825184526020938401939092019160010161223e565b50919695505050505050565b63ffffffff8116811461104c575f5ffd5b5f60208284031215612289575f5ffd5b8135611e7781612268565b5f602082840312156122a4575f5ffd5b81518015158114611e77575f5ffd5b5f5f858511156122c1575f5ffd5b838611156122cd575f5ffd5b5050820193919092039150565b80356001600160e01b0319811690600484101561230b576001600160e01b0319600485900360031b81901b82161691505b5092915050565b60208101600283106120d5576120d56120a4565b634e487b7160e01b5f52604160045260245ffd5b604051601f8201601f191681016001600160401b038111828210171561236257612362612326565b604052919050565b5f6001600160401b0382111561238257612382612326565b5060051b60200190565b5f82601f83011261239b575f5ffd5b81516123ae6123a98261236a565b61233a565b8082825260208201915060208360051b8601019250858311156123cf575f5ffd5b602085015b838110156123f55780516123e7816120db565b8352602092830192016123d4565b5095945050505050565b5f6020828403121561240f575f5ffd5b81516001600160401b03811115612424575f5ffd5b6124308482850161238c565b949350505050565b5f60208284031215612448575f5ffd5b8135611e778161205f565b634e487b7160e01b5f52601160045260245ffd5b5f61ffff821661ffff810361247e5761247e612453565b60010192915050565b6001600160e01b031991909116815260040190565b6001600160e01b031992909216825260f81b6001600160f81b031916600482015260050190565b634e487b7160e01b5f52603260045260245ffd5b5f60ff821660ff810361247e5761247e612453565b60ff818116838216029081169081811461230b5761230b612453565b61ffff8181168382160190811115611dc757611dc7612453565b5f5f60408385031215612533575f5ffd5b82516001600160401b03811115612548575f5ffd5b6125548582860161238c565b602085015190935090506001600160401b03811115612571575f5ffd5b8301601f81018513612581575f5ffd5b805161258f6123a98261236a565b8082825260208201915060208360051b8501019250878311156125b0575f5ffd5b6020840193505b828410156125d25783518252602093840193909101906125b7565b809450505050509250929050565b5f602082840312156125f0575f5ffd5b8151611e778161205f565b6001815b60018411156126365780850481111561261a5761261a612453565b600184161561262857908102905b60019390931c9280026125ff565b935093915050565b5f8261264c57506001611dc7565b8161265857505f611dc7565b816001811461266e576002811461267857612694565b6001915050611dc7565b60ff84111561268957612689612453565b50506001821b611dc7565b5060208310610133831016604e8410600b84101617156126b7575081810a611dc7565b6126c35f1984846125fb565b805f19048211156126d6576126d6612453565b029392505050565b5f611e7760ff84168361263e565b5f602082840312156126fc575f5ffd5b5051919050565b80820180821115611dc757611dc7612453565b838152602081018390526060810161272d836120b8565b826040830152949350505050565b81810381811115611dc757611dc7612453565b5f5f6040838503121561275f575f5ffd5b82516001600160401b03811115612774575f5ffd5b6127808582860161238c565b602085015190935090506001600160401b0381111561279d575f5ffd5b8301601f810185136127ad575f5ffd5b80516127bb6123a98261236a565b8082825260208201915060208360051b8501019250878311156127dc575f5ffd5b6020840193505b828410156125d25783516127f681612268565b8252602093840193909101906127e3565b634e487b7160e01b5f52601260045260245ffd5b60ff8281168282160390811115611dc757611dc7612453565b8082028115828204841417611dc757611dc7612453565b5f8261286557634e487b7160e01b5f52601260045260245ffd5b50049056fea26469706673582212200f963fa77814f85838b67a6ad475aa096e234c4786e9d00699b2318e8f5b952064736f6c634300081c0033ed8d60e34876f751cc8b014c560745351147d9de11b9347c854e881b128ea600ed8d60e34876f751cc8b014c560745351147d9de11b9347c854e881b128ea601",
  "linkReferences": {},
  "deployedLinkReferences": {}
}