{
  "_format": "hh-sol-artifact-1",
  "contractName": "InternalStatesOrchestrator",
  "sourceName": "contracts/orchestrators/InternalStatesOrchestrator.sol",
  "abi": [
    {
      "inputs": [
        {
          "internalType": "address",
          "name": "initialOwner",
          "type": "address"
        },
        {
          "internalType": "address",
          "name": "config_",
          "type": "address"
        },
        {
          "internalType": "address",
          "name": "automationRegistry_",
          "type": "address"
        }
      ],
      "stateMutability": "nonpayable",
      "type": "constructor"
    },
    {
      "inputs": [],
      "name": "HandlesAlreadySavedForRequestID",
      "type": "error"
    },
    {
      "inputs": [],
      "name": "InsufficientAmount",
      "type": "error"
    },
    {
      "inputs": [],
      "name": "InvalidArguments",
      "type": "error"
    },
    {
      "inputs": [],
      "name": "InvalidKMSSignatures",
      "type": "error"
    },
    {
      "inputs": [],
      "name": "InvalidState",
      "type": "error"
    },
    {
      "inputs": [],
      "name": "NoHandleFoundForRequestID",
      "type": "error"
    },
    {
      "inputs": [],
      "name": "NotAuthorized",
      "type": "error"
    },
    {
      "inputs": [
        {
          "internalType": "address",
          "name": "owner",
          "type": "address"
        }
      ],
      "name": "OwnableInvalidOwner",
      "type": "error"
    },
    {
      "inputs": [
        {
          "internalType": "address",
          "name": "account",
          "type": "address"
        }
      ],
      "name": "OwnableUnauthorizedAccount",
      "type": "error"
    },
    {
      "inputs": [],
      "name": "ReentrancyGuardReentrantCall",
      "type": "error"
    },
    {
      "inputs": [],
      "name": "SystemNotIdle",
      "type": "error"
    },
    {
      "inputs": [],
      "name": "TooEarly",
      "type": "error"
    },
    {
      "inputs": [],
      "name": "ZeroAddress",
      "type": "error"
    },
    {
      "anonymous": false,
      "inputs": [
        {
          "indexed": true,
          "internalType": "address",
          "name": "newAutomationRegistry",
          "type": "address"
        }
      ],
      "name": "AutomationRegistryUpdated",
      "type": "event"
    },
    {
      "anonymous": false,
      "inputs": [
        {
          "indexed": true,
          "internalType": "uint256",
          "name": "requestID",
          "type": "uint256"
        }
      ],
      "name": "DecryptionFulfilled",
      "type": "event"
    },
    {
      "anonymous": false,
      "inputs": [
        {
          "indexed": true,
          "internalType": "uint16",
          "name": "epochCounter",
          "type": "uint16"
        }
      ],
      "name": "InternalStateProcessed",
      "type": "event"
    },
    {
      "anonymous": false,
      "inputs": [
        {
          "indexed": true,
          "internalType": "address",
          "name": "previousOwner",
          "type": "address"
        },
        {
          "indexed": true,
          "internalType": "address",
          "name": "newOwner",
          "type": "address"
        }
      ],
      "name": "OwnershipTransferred",
      "type": "event"
    },
    {
      "inputs": [],
      "name": "BASIS_POINTS_FACTOR",
      "outputs": [
        {
          "internalType": "uint16",
          "name": "",
          "type": "uint16"
        }
      ],
      "stateMutability": "view",
      "type": "function"
    },
    {
      "inputs": [],
      "name": "automationRegistry",
      "outputs": [
        {
          "internalType": "address",
          "name": "",
          "type": "address"
        }
      ],
      "stateMutability": "view",
      "type": "function"
    },
    {
      "inputs": [],
      "name": "bufferAmount",
      "outputs": [
        {
          "internalType": "uint256",
          "name": "",
          "type": "uint256"
        }
      ],
      "stateMutability": "view",
      "type": "function"
    },
    {
      "inputs": [
        {
          "internalType": "uint256",
          "name": "requestID",
          "type": "uint256"
        },
        {
          "internalType": "bytes",
          "name": "cleartexts",
          "type": "bytes"
        },
        {
          "internalType": "bytes",
          "name": "decryptionProof",
          "type": "bytes"
        }
      ],
      "name": "callbackPreProcessDecrypt",
      "outputs": [],
      "stateMutability": "nonpayable",
      "type": "function"
    },
    {
      "inputs": [
        {
          "internalType": "bytes",
          "name": "",
          "type": "bytes"
        }
      ],
      "name": "checkUpkeep",
      "outputs": [
        {
          "internalType": "bool",
          "name": "upkeepNeeded",
          "type": "bool"
        },
        {
          "internalType": "bytes",
          "name": "performData",
          "type": "bytes"
        }
      ],
      "stateMutability": "view",
      "type": "function"
    },
    {
      "inputs": [],
      "name": "config",
      "outputs": [
        {
          "internalType": "contract IOrionConfig",
          "name": "",
          "type": "address"
        }
      ],
      "stateMutability": "view",
      "type": "function"
    },
    {
      "inputs": [],
      "name": "currentMinibatchIndex",
      "outputs": [
        {
          "internalType": "uint8",
          "name": "",
          "type": "uint8"
        }
      ],
      "stateMutability": "view",
      "type": "function"
    },
    {
      "inputs": [],
      "name": "currentPhase",
      "outputs": [
        {
          "internalType": "enum IInternalStateOrchestrator.InternalUpkeepPhase",
          "name": "",
          "type": "uint8"
        }
      ],
      "stateMutability": "view",
      "type": "function"
    },
    {
      "inputs": [],
      "name": "encryptedMinibatchSize",
      "outputs": [
        {
          "internalType": "uint8",
          "name": "",
          "type": "uint8"
        }
      ],
      "stateMutability": "view",
      "type": "function"
    },
    {
      "inputs": [
        {
          "internalType": "uint256",
          "name": "",
          "type": "uint256"
        }
      ],
      "name": "encryptedVaultsEpoch",
      "outputs": [
        {
          "internalType": "address",
          "name": "",
          "type": "address"
        }
      ],
      "stateMutability": "view",
      "type": "function"
    },
    {
      "inputs": [],
      "name": "epochCounter",
      "outputs": [
        {
          "internalType": "uint16",
          "name": "",
          "type": "uint16"
        }
      ],
      "stateMutability": "view",
      "type": "function"
    },
    {
      "inputs": [],
      "name": "epochDuration",
      "outputs": [
        {
          "internalType": "uint32",
          "name": "",
          "type": "uint32"
        }
      ],
      "stateMutability": "view",
      "type": "function"
    },
    {
      "inputs": [],
      "name": "getEpochTokens",
      "outputs": [
        {
          "internalType": "address[]",
          "name": "tokens",
          "type": "address[]"
        }
      ],
      "stateMutability": "view",
      "type": "function"
    },
    {
      "inputs": [],
      "name": "getOrders",
      "outputs": [
        {
          "internalType": "address[]",
          "name": "sellingTokens",
          "type": "address[]"
        },
        {
          "internalType": "uint256[]",
          "name": "sellingAmounts",
          "type": "uint256[]"
        },
        {
          "internalType": "address[]",
          "name": "buyingTokens",
          "type": "address[]"
        },
        {
          "internalType": "uint256[]",
          "name": "buyingAmounts",
          "type": "uint256[]"
        },
        {
          "internalType": "uint256[]",
          "name": "sellingEstimatedUnderlyingAmounts",
          "type": "uint256[]"
        },
        {
          "internalType": "uint256[]",
          "name": "buyingEstimatedUnderlyingAmounts",
          "type": "uint256[]"
        }
      ],
      "stateMutability": "view",
      "type": "function"
    },
    {
      "inputs": [
        {
          "internalType": "address",
          "name": "token",
          "type": "address"
        }
      ],
      "name": "getPriceOf",
      "outputs": [
        {
          "internalType": "uint256",
          "name": "price",
          "type": "uint256"
        }
      ],
      "stateMutability": "view",
      "type": "function"
    },
    {
      "inputs": [
        {
          "internalType": "address",
          "name": "vault",
          "type": "address"
        }
      ],
      "name": "getVaultTotalAssetsForFulfillRedeem",
      "outputs": [
        {
          "internalType": "uint256",
          "name": "totalAssets",
          "type": "uint256"
        }
      ],
      "stateMutability": "view",
      "type": "function"
    },
    {
      "inputs": [],
      "name": "intentFactor",
      "outputs": [
        {
          "internalType": "uint256",
          "name": "",
          "type": "uint256"
        }
      ],
      "stateMutability": "view",
      "type": "function"
    },
    {
      "inputs": [],
      "name": "liquidityOrchestrator",
      "outputs": [
        {
          "internalType": "contract ILiquidityOrchestrator",
          "name": "",
          "type": "address"
        }
      ],
      "stateMutability": "view",
      "type": "function"
    },
    {
      "inputs": [],
      "name": "owner",
      "outputs": [
        {
          "internalType": "address",
          "name": "",
          "type": "address"
        }
      ],
      "stateMutability": "view",
      "type": "function"
    },
    {
      "inputs": [],
      "name": "pendingProtocolFees",
      "outputs": [
        {
          "internalType": "uint256",
          "name": "",
          "type": "uint256"
        }
      ],
      "stateMutability": "view",
      "type": "function"
    },
    {
      "inputs": [
        {
          "internalType": "bytes",
          "name": "performData",
          "type": "bytes"
        }
      ],
      "name": "performUpkeep",
      "outputs": [],
      "stateMutability": "nonpayable",
      "type": "function"
    },
    {
      "inputs": [],
      "name": "priceAdapterPrecision",
      "outputs": [
        {
          "internalType": "uint256",
          "name": "",
          "type": "uint256"
        }
      ],
      "stateMutability": "view",
      "type": "function"
    },
    {
      "inputs": [],
      "name": "protocolId",
      "outputs": [
        {
          "internalType": "uint256",
          "name": "",
          "type": "uint256"
        }
      ],
      "stateMutability": "pure",
      "type": "function"
    },
    {
      "inputs": [],
      "name": "registry",
      "outputs": [
        {
          "internalType": "contract IPriceAdapterRegistry",
          "name": "",
          "type": "address"
        }
      ],
      "stateMutability": "view",
      "type": "function"
    },
    {
      "inputs": [],
      "name": "renounceOwnership",
      "outputs": [],
      "stateMutability": "nonpayable",
      "type": "function"
    },
    {
      "inputs": [],
      "name": "rsFeeCoefficient",
      "outputs": [
        {
          "internalType": "uint16",
          "name": "",
          "type": "uint16"
        }
      ],
      "stateMutability": "view",
      "type": "function"
    },
    {
      "inputs": [
        {
          "internalType": "uint256",
          "name": "amount",
          "type": "uint256"
        }
      ],
      "name": "subtractPendingProtocolFees",
      "outputs": [],
      "stateMutability": "nonpayable",
      "type": "function"
    },
    {
      "inputs": [
        {
          "internalType": "address",
          "name": "newOwner",
          "type": "address"
        }
      ],
      "name": "transferOwnership",
      "outputs": [],
      "stateMutability": "nonpayable",
      "type": "function"
    },
    {
      "inputs": [],
      "name": "transparentMinibatchSize",
      "outputs": [
        {
          "internalType": "uint8",
          "name": "",
          "type": "uint8"
        }
      ],
      "stateMutability": "view",
      "type": "function"
    },
    {
      "inputs": [
        {
          "internalType": "uint256",
          "name": "",
          "type": "uint256"
        }
      ],
      "name": "transparentVaultsEpoch",
      "outputs": [
        {
          "internalType": "address",
          "name": "",
          "type": "address"
        }
      ],
      "stateMutability": "view",
      "type": "function"
    },
    {
      "inputs": [],
      "name": "underlyingAsset",
      "outputs": [
        {
          "internalType": "address",
          "name": "",
          "type": "address"
        }
      ],
      "stateMutability": "view",
      "type": "function"
    },
    {
      "inputs": [],
      "name": "underlyingDecimals",
      "outputs": [
        {
          "internalType": "uint8",
          "name": "",
          "type": "uint8"
        }
      ],
      "stateMutability": "view",
      "type": "function"
    },
    {
      "inputs": [
        {
          "internalType": "address",
          "name": "newAutomationRegistry",
          "type": "address"
        }
      ],
      "name": "updateAutomationRegistry",
      "outputs": [],
      "stateMutability": "nonpayable",
      "type": "function"
    },
    {
      "inputs": [
        {
          "internalType": "int256",
          "name": "deltaAmount",
          "type": "int256"
        }
      ],
      "name": "updateBufferAmount",
      "outputs": [],
      "stateMutability": "nonpayable",
      "type": "function"
    },
    {
      "inputs": [
        {
          "internalType": "uint32",
          "name": "newEpochDuration",
          "type": "uint32"
        }
      ],
      "name": "updateEpochDuration",
      "outputs": [],
      "stateMutability": "nonpayable",
      "type": "function"
    },
    {
      "inputs": [
        {
          "internalType": "uint8",
          "name": "_transparentMinibatchSize",
          "type": "uint8"
        },
        {
          "internalType": "uint8",
          "name": "_encryptedMinibatchSize",
          "type": "uint8"
        }
      ],
      "name": "updateMinibatchSizes",
      "outputs": [],
      "stateMutability": "nonpayable",
      "type": "function"
    },
    {
      "inputs": [
        {
          "internalType": "uint16",
          "name": "_vFeeCoefficient",
          "type": "uint16"
        },
        {
          "internalType": "uint16",
          "name": "_rsFeeCoefficient",
          "type": "uint16"
        }
      ],
      "name": "updateProtocolFees",
      "outputs": [],
      "stateMutability": "nonpayable",
      "type": "function"
    },
    {
      "inputs": [],
      "name": "vFeeCoefficient",
      "outputs": [
        {
          "internalType": "uint16",
          "name": "",
          "type": "uint16"
        }
      ],
      "stateMutability": "view",
      "type": "function"
    },
    {
      "inputs": [],
      "name": "validEncryptedVaultsCount",
      "outputs": [
        {
          "internalType": "uint16",
          "name": "",
          "type": "uint16"
        }
      ],
      "stateMutability": "view",
      "type": "function"
    }
  ],
  "bytecode": "0x608060405234801561000f575f5ffd5b506040516156a53803806156a583398101604081905261002e9161075f565b826100d26100cd604080516080810182525f80825260208201819052918101829052606081019190915250604080516080810182527350157cffd6bbfa2dece204a89ec419c23ef5755d815273cd3ab3bd6bcc0c0bf3e27912a92043e817b1cf69602082015273a02cda4ca3a71d7c46997716f4283aa851c2881291810191909152731364cbbf2cdf5032c47d8226a6f6fbd2afcdacac606082015290565b61050c565b6001600160a01b0381166100ff57604051631e4fbdf760e01b81525f600482015260240160405180910390fd5b610108816105c5565b50600180556001600160a01b0382166101345760405163d92e233d60e01b815260040160405180910390fd5b6001600160a01b03811661015b5760405163d92e233d60e01b815260040160405180910390fd5b600380546001600160a01b0319166001600160a01b0384169081179091556040805163015df99360e01b8152905163015df993916004808201926020929091908290030181865afa1580156101b2573d5f5f3e3d5ffd5b505050506040513d601f19601f820116820180604052508101906101d691906107a9565b600580546001600160a01b0319166001600160a01b039283161790556003546040805163d1717c7d60e01b81529051919092169163d1717c7d9160048083019260209291908290030181865afa158015610232573d5f5f3e3d5ffd5b505050506040513d601f19601f8201168201806040525081019061025691906107cb565b61026190600a6108e2565b60075560035460408051631c56369f60e21b815290516001600160a01b0390921691637158da7c916004808201926020929091908290030181865afa1580156102ac573d5f5f3e3d5ffd5b505050506040513d601f19601f820116820180604052508101906102d091906107a9565b600880546001600160a01b0319166001600160a01b03928316908117909155600354604051633c2e3e7b60e11b815260048101929092529091169063785c7cf690602401602060405180830381865afa15801561032f573d5f5f3e3d5ffd5b505050506040513d601f19601f8201168201806040525081019061035391906107cb565b600860146101000a81548160ff021916908360ff16021790555060035f9054906101000a90046001600160a01b03166001600160a01b031663567ba7136040518163ffffffff1660e01b8152600401602060405180830381865afa1580156103bd573d5f5f3e3d5ffd5b505050506040513d601f19601f820116820180604052508101906103e191906107cb565b6103ec90600a6108e2565b6006556018805463ffff000019166301010000179055600280546001600160a01b0319166001600160a01b038381169190911790915560035460408051631d06d6c760e11b815290519190921691633a0dad8e9160048281019260209291908290030181865afa158015610462573d5f5f3e3d5ffd5b505050506040513d601f19601f8201168201806040525081019061048691906107a9565b600480546001600160a01b0319166001600160a01b0392909216919091179055601680546201518063ffffffff1990911681179091556104c690426108f0565b6017556018805465ffff0000ffff191690556104e15f610614565b60198190556104ef9061062f565b50506008805463ffffffff60a81b1916905550505f601d5561094a565b80515f5160206156855f395f51905f5280546001600160a01b03199081166001600160a01b039384161790915560208301515f5160206156655f395f51905f528054831691841691909117905560408301517f9e7b61f58c47dc699ac88507c4f5bb9f121c03808c5676a8078fe583e46497028054831691841691909117905560608301517f9e7b61f58c47dc699ac88507c4f5bb9f121c03808c5676a8078fe583e46497038054909216921691909117905550565b50565b5f80546001600160a01b038381166001600160a01b0319831681178455604051919092169283917f8be0079c531659141344cd1fd0a4f28419497f9722a3daafe3b4186f6b6457e09190a35050565b5f6106296001600160801b038316600661063e565b92915050565b5f61063a82306106d5565b5090565b5f5160206156655f395f51905f5254604051639cd07acb60e01b81525f915f5160206156855f395f51905f52916001600160a01b0390911690639cd07acb9061068d9087908790600401610903565b6020604051808303815f875af11580156106a9573d5f5f3e3d5ffd5b505050506040513d601f19601f820116820180604052508101906106cd9190610933565b949350505050565b5f5f5160206156855f395f51905f528054604051635ca4b5b160e11b8152600481018690526001600160a01b03858116602483015292935091169063b9496b62906044015f604051808303815f87803b158015610730575f5ffd5b505af1158015610742573d5f5f3e3d5ffd5b50505050505050565b6001600160a01b03811681146105c2575f5ffd5b5f5f5f60608486031215610771575f5ffd5b835161077c8161074b565b602085015190935061078d8161074b565b604085015190925061079e8161074b565b809150509250925092565b5f602082840312156107b9575f5ffd5b81516107c48161074b565b9392505050565b5f602082840312156107db575f5ffd5b815160ff811681146107c4575f5ffd5b634e487b7160e01b5f52601160045260245ffd5b6001815b600184111561083a5780850481111561081e5761081e6107eb565b600184161561082c57908102905b60019390931c928002610803565b935093915050565b5f8261085057506001610629565b8161085c57505f610629565b8160018114610872576002811461087c57610898565b6001915050610629565b60ff84111561088d5761088d6107eb565b50506001821b610629565b5060208310610133831016604e8410600b84101617156108bb575081810a610629565b6108c75f1984846107ff565b805f19048211156108da576108da6107eb565b029392505050565b5f6107c460ff841683610842565b80820180821115610629576106296107eb565b828152604081016054831061092657634e487b7160e01b5f52602160045260245ffd5b8260208301529392505050565b5f60208284031215610943575f5ffd5b5051919050565b614d0e806109575f395ff3fe608060405234801561000f575f5ffd5b50600436106101ca575f3560e01c8062bb07bb146101ce578063055ad42e146101e35780630844697d1461020d57806308af604d1461023557806314b19c5a1461025a57806314b5d07f1461026857806325a760c21461027b578063289a2f761461028f5780632b0088b4146102af5780632e2dc43e146102c657806336021ef4146102e05780633a0dad8e146102f45780634585e33b146103075780634ff0876a1461031a5780635488cd621461033f57806358fac65b146103535780635dc228a0146103665780636e04ff0d146103795780636ff041531461039a57806370604445146103af578063715018a6146103c25780637158da7c146103ca57806379502c55146103dd5780637b103999146103f05780637cdabf0a14610403578063800f9fad146104165780638da5cb5b1461041f5780638f5c946514610427578063b8b2af7c14610430578063ba96ff1114610445578063be2683f014610458578063c18e2a5c1461046b578063ca1f32f114610474578063d3f89f661461047d578063da1f12ab1461048b578063e2638ff114610493578063e2c4aaec146104bb578063eeb393c9146104ce578063f2fde38b146104e1575b5f5ffd5b6101e16101dc3660046141f4565b6104f4565b005b6018546101f790600160201b900460ff1681565b604051610204919061423f565b60405180910390f35b60085461022290600160b81b900461ffff1681565b60405161ffff9091168152602001610204565b6018546102489062010000900460ff1681565b60405160ff9091168152602001610204565b6018546102229061ffff1681565b6101e161027636600461426d565b6105ee565b60085461024890600160a01b900460ff1681565b6102a261029d366004614288565b6106f7565b604051610204919061429f565b6102b860075481565b604051908152602001610204565b6102ce61071f565b60405161020496959493929190614326565b601854610248906301000000900460ff1681565b6004546102a2906001600160a01b031681565b6101e16103153660046143e4565b61095f565b60165461032a9063ffffffff1681565b60405163ffffffff9091168152602001610204565b60185461024890600160281b900460ff1681565b6102a2610361366004614288565b610b04565b6002546102a2906001600160a01b031681565b61038c6103873660046143e4565b610b13565b604051610204929190614450565b6103a2610ec3565b604051610204919061446a565b6101e16103bd366004614288565b610f5d565b6101e1610fc4565b6008546102a2906001600160a01b031681565b6003546102a2906001600160a01b031681565b6005546102a2906001600160a01b031681565b6101e1610411366004614492565b610fd7565b6102b860095481565b6102a26110de565b61022261271081565b60085461022290600160a81b900461ffff1681565b6102b861045336600461426d565b6110ec565b6101e16104663660046144c3565b611145565b6102b8601d5481565b6102b860065481565b601c546102229061ffff1681565b6127116102b8565b6102b86104a136600461426d565b6001600160a01b03165f9081526011602052604090205490565b6101e16104c9366004614288565b61124b565b6101e16104dc36600461454b565b6112be565b6101e16104ef36600461426d565b6113a5565b6104fc6113e8565b60ff8216158061050d575060ff8116155b1561052b576040516317dbc4cb60e21b815260040160405180910390fd5b60035f9054906101000a90046001600160a01b03166001600160a01b031663edcf9c1f6040518163ffffffff1660e01b8152600401602060405180830381865afa15801561057b573d5f5f3e3d5ffd5b505050506040513d601f19601f8201168201806040525081019061059f9190614566565b6105bc576040516312aecd8160e01b815260040160405180910390fd5b6018805463ffff000019166201000060ff9485160263ff00000019161763010000009290931691909102919091179055565b6105f66113e8565b6001600160a01b03811661061d5760405163d92e233d60e01b815260040160405180910390fd5b60035f9054906101000a90046001600160a01b03166001600160a01b031663edcf9c1f6040518163ffffffff1660e01b8152600401602060405180830381865afa15801561066d573d5f5f3e3d5ffd5b505050506040513d601f19601f820116820180604052508101906106919190614566565b6106ae576040516312aecd8160e01b815260040160405180910390fd5b600280546001600160a01b0319166001600160a01b0383169081179091556040517f6cc7ebdb6c8c53291c5ae16148cab9b049d23bf5bde5632900b40edff56fcb43905f90a250565b601b8181548110610706575f80fd5b5f918252602090912001546001600160a01b0316905081565b6060806060806060805f600a800180548060200260200160405190810160405280929190818152602001828054801561077f57602002820191905f5260205f20905b81546001600160a01b03168152600190910190602001808311610761575b505050505090505f5f6107918361141a565b915091508161ffff166001600160401b038111156107b1576107b1614585565b6040519080825280602002602001820160405280156107da578160200160208202803683370190505b5098508161ffff166001600160401b038111156107f9576107f9614585565b604051908082528060200260200182016040528015610822578160200160208202803683370190505b5097508061ffff166001600160401b0381111561084157610841614585565b60405190808252806020026020018201604052801561086a578160200160208202803683370190505b5096508061ffff166001600160401b0381111561088957610889614585565b6040519080825280602002602001820160405280156108b2578160200160208202803683370190505b5095508161ffff166001600160401b038111156108d1576108d1614585565b6040519080825280602002602001820160405280156108fa578160200160208202803683370190505b5094508061ffff166001600160401b0381111561091957610919614585565b604051908082528060200260200182016040528015610942578160200160208202803683370190505b509350610954838a8a888b8b8a6114bb565b505050909192939495565b6109676110de565b6001600160a01b0316336001600160a01b03161415801561099357506002546001600160a01b03163314155b156109b15760405163ea8e4eb560e01b815260040160405180910390fd5b6109b961169e565b60058110156109db576040516317dbc4cb60e21b815260040160405180910390fd5b5f806109e983850185614599565b90925090506341659aab60e01b6001600160e01b0319831601610a1357610a0e6116c8565b610af5565b636ce38ed360e11b6001600160e01b0319831601610a3457610a0e8161198c565b635954faa160e01b6001600160e01b0319831601610a5557610a0e8161217b565b63dbd33d3560e01b6001600160e01b0319831601610a7557610a0e6127f5565b6292a80f60e51b6001600160e01b0319831601610a9457610a0e612d2f565b6265e66b60e01b6001600160e01b0319831601610ab457610a0e81613045565b63f4d3cc0960e01b6001600160e01b0319831601610ad557610a0e8161354e565b63c4b3cef760e01b6001600160e01b0319831601610af557610af5613639565b5050610b0060018055565b5050565b601a8181548110610706575f80fd5b5f606060035f9054906101000a90046001600160a01b03166001600160a01b031663edcf9c1f6040518163ffffffff1660e01b8152600401602060405180830381865afa158015610b66573d5f5f3e3d5ffd5b505050506040513d601f19601f82011682018060405250810190610b8a9190614566565b8015610b97575060175442115b15610be957600191507fbe9a655586dceb82dfa0af992b5d8ae7fa45053cb7fd6f141f541da7572978c75f604051602001610bd39291906145c1565b6040516020818303038152906040529050610ebc565b6001601854600160201b900460ff166007811115610c0957610c0961422b565b03610c5457600191507f2638e25a856cbfe28e0ae1857cb597cc2ceb873ce579b7d93c2258e45a754481601860059054906101000a900460ff16604051602001610bd39291906145c1565b6002601854600160201b900460ff166007811115610c7457610c7461422b565b03610cbf57600191507fa6ab055f7fc0612ad6e844f7e1dd3a6df793560cd68d707affa0dd01c39ec8f1601860059054906101000a900460ff16604051602001610bd39291906145c1565b6003601854600160201b900460ff166007811115610cdf57610cdf61422b565b03610d1b57600191507f242cc2cba236b9c457bb86deb0ad1fb8fe60d5bcafd69d02041c9c62f3ea1fbd5f604051602001610bd39291906145c1565b6004601854600160201b900460ff166007811115610d3b57610d3b61422b565b03610d7757600191507fedaafe206508e00f40674bb87dda745bccfe8a3f3f6d6eaaf6db5f44021a1c135f604051602001610bd39291906145c1565b6005601854600160201b900460ff166007811115610d9757610d9761422b565b03610de257600191507fff9a199536c068c55c334e40ebfa355733f79152332d6586d615c5bb37fd5c17601860059054906101000a900460ff16604051602001610bd39291906145c1565b6006601854600160201b900460ff166007811115610e0257610e0261422b565b03610e4d57600191507f0b2c33f7f9ce5cba78feb12c50c7fc97cbcfb655f151982783c0f2faf7567b0b601860059054906101000a900460ff16604051602001610bd39291906145c1565b6007601854600160201b900460ff166007811115610e6d57610e6d61422b565b03610ea957600191507f3b4c310984a9fe486c05a56b52659c09d4bf9f3ef9b799ad52ee29a7d805741e5f604051602001610bd39291906145c1565b505060408051602081019091525f808252905b9250929050565b60605f601854600160201b900460ff166007811115610ee457610ee461422b565b14610f02576040516312aecd8160e01b815260040160405180910390fd5b6014805460408051602080840282018101909252828152929190830182828015610f5357602002820191905f5260205f20905b81546001600160a01b03168152600190910190602001808311610f35575b5050505050905090565b6004546001600160a01b03163314610f885760405163ea8e4eb560e01b815260040160405180910390fd5b600954811115610fab57604051632ca2f52b60e11b815260040160405180910390fd5b8060095f828254610fbc91906145f2565b909155505050565b610fcc6113e8565b610fd55f613804565b565b610fdf6113e8565b60648261ffff161180610ff757506107d08161ffff16115b15611015576040516317dbc4cb60e21b815260040160405180910390fd5b60035f9054906101000a90046001600160a01b03166001600160a01b031663edcf9c1f6040518163ffffffff1660e01b8152600401602060405180830381865afa158015611065573d5f5f3e3d5ffd5b505050506040513d601f19601f820116820180604052508101906110899190614566565b6110a6576040516312aecd8160e01b815260040160405180910390fd5b6008805463ffffffff60a81b1916600160a81b61ffff9485160261ffff60b81b191617600160b81b9290931691909102919091179055565b5f546001600160a01b031690565b5f80601854600160201b900460ff16600781111561110c5761110c61422b565b1461112a576040516312aecd8160e01b815260040160405180910390fd5b506001600160a01b03165f908152600a602052604090205490565b6111b78585858080601f0160208091040260200160405190810160405280939291908181526020018383808284375f9201919091525050604080516020601f890181900481028201810190925287815292508791508690819084018382808284375f9201919091525061385392505050565b604080515f6020820152016040516020818303038152906040528051906020012084846040516111e8929190614605565b60405180910390200361120e576018805461ffff60201b1916600160221b179055611244565b61121a83850185614666565b805161122e91601e9160209091019061411f565b506018805461ffff60201b1916600360201b1790555b5050505050565b6004546001600160a01b031633146112765760405163ea8e4eb560e01b815260040160405180910390fd5b5f81131561129a5780601d5f82825461128f91906146f1565b909155506112bb9050565b5f8112156112bb576112ab81614704565b601d5f828254610fbc91906145f2565b50565b6112c66113e8565b8063ffffffff165f036112ec576040516317dbc4cb60e21b815260040160405180910390fd5b60035f9054906101000a90046001600160a01b03166001600160a01b031663edcf9c1f6040518163ffffffff1660e01b8152600401602060405180830381865afa15801561133c573d5f5f3e3d5ffd5b505050506040513d601f19601f820116820180604052508101906113609190614566565b61137d576040516312aecd8160e01b815260040160405180910390fd5b6016805463ffffffff191663ffffffff831690811790915561139f90426146f1565b60175550565b6113ad6113e8565b6001600160a01b0381166113df575f604051631e4fbdf760e01b81526004016113d6919061429f565b60405180910390fd5b6112bb81613804565b336113f16110de565b6001600160a01b031614610fd5573360405163118cdaa760e01b81526004016113d6919061429f565b80515f908190815b8161ffff168161ffff1610156114b4575f858261ffff16815181106114495761144961471e565b6020908102919091018101516001600160a01b0381165f9081526012909252604090912054909150156114825761147f85614732565b94505b6001600160a01b0381165f90815260136020526040902054156114ab576114a884614732565b93505b50600101611422565b5050915091565b86515f80805b8361ffff168161ffff161015611691575f8b8261ffff16815181106114e8576114e861471e565b6020908102919091018101516001600160a01b0381165f90815260128352604080822054601390945290205490925081156115cd57828d8761ffff16815181106115345761153461471e565b60200260200101906001600160a01b031690816001600160a01b031681525050818c8761ffff168151811061156b5761156b61471e565b6020908102919091018101919091526001600160a01b0384165f908152600a90915260409020546006546115a09184916138bc565b8b8761ffff16815181106115b6576115b661471e565b60209081029190910101526115ca86614732565b95505b801561168357828a8661ffff16815181106115ea576115ea61471e565b60200260200101906001600160a01b031690816001600160a01b03168152505080898661ffff16815181106116215761162161471e565b6020908102919091018101919091526001600160a01b0384165f908152600a90915260409020546006546116569183916138bc565b888661ffff168151811061166c5761166c61471e565b602090810291909101015261168085614732565b94505b5050508060010190506114c1565b5050505050505050505050565b6002600154036116c157604051633ee5aeb560e01b815260040160405180910390fd5b6002600155565b6017544211158061174a575060035f9054906101000a90046001600160a01b03166001600160a01b031663edcf9c1f6040518163ffffffff1660e01b8152600401602060405180830381865afa158015611724573d5f5f3e3d5ffd5b505050506040513d601f19601f820116820180604052508101906117489190614566565b155b156117685760405163085de62560e01b815260040160405180910390fd5b60165461177b9063ffffffff16426146f1565b6017555f5b60145461ffff82161015611848575f600a80018261ffff16815481106117a8576117a861471e565b5f9182526020808320909101546001600160a01b03168252600a81526040808320839055600b8252808320839055600d825280832083905560118252808320839055600f8252808320839055601282528083208390556013825280832083905560158252808320805460ff19169055601954600c8352818420819055600e83528184208190556010909252909120555061184181614732565b9050611780565b5061185460145f614164565b61185f601e5f614164565b600354604051631da09e4360e31b81526001600160a01b039091169063ed04f2189061188f905f90600401614752565b5f60405180830381865afa1580156118a9573d5f5f3e3d5ffd5b505050506040513d5f823e601f3d908101601f191682016040526118d091908101906147d4565b80516118e491601a9160209091019061417f565b50600354604051631da09e4360e31b81526001600160a01b039091169063ed04f2189061191690600190600401614752565b5f60405180830381865afa158015611930573d5f5f3e3d5ffd5b505050506040513d5f823e601f3d908101601f1916820160405261195791908101906147d4565b805161196b91601b9160209091019061417f565b50601c805461ffff191690556018805460ff60201b1916600160201b179055565b6001601854600160201b900460ff1660078111156119ac576119ac61422b565b146119ca5760405163baf3f0f760e01b815260040160405180910390fd5b601880546005906119e490600160281b900460ff16614805565b91906101000a81548160ff021916908360ff1602179055505f601860029054906101000a900460ff1682611a18919061481a565b60185460ff91821692505f91611a3591620100009004168361483d565b601a5490915061ffff82161180611a515750601a5461ffff8216145b15611a6f5750601a546018805461ffff60201b1916600160211b1790555b815b8161ffff168161ffff161015612175575f601a8261ffff1681548110611a9957611a9961471e565b905f5260205f20015f9054906101000a90046001600160a01b031690505f5f826001600160a01b031663d3d034586040518163ffffffff1660e01b81526004015f60405180830381865afa158015611af3573d5f5f3e3d5ffd5b505050506040513d5f823e601f3d908101601f19168201604052611b1a9190810190614857565b90925090505f805b83518161ffff161015611e06575f848261ffff1681518110611b4657611b4661471e565b602002602001015190505f848361ffff1681518110611b6757611b6761471e565b6020026020010151905080600a6001015f846001600160a01b03166001600160a01b031681526020019081526020015f205f828254611ba691906146f1565b90915550506001600160a01b0382165f9081526015602052604090205460ff16611d2a576008546001600160a01b0390811690831603611ca257600854611c8590611bfc90600160a01b900460ff16600a6149f8565b600860149054906101000a900460ff1660035f9054906101000a90046001600160a01b03166001600160a01b031663567ba7136040518163ffffffff1660e01b8152600401602060405180830381865afa158015611c5c573d5f5f3e3d5ffd5b505050506040513d601f19601f82011682018060405250810190611c809190614a06565b61396d565b6001600160a01b0383165f908152600a6020526040902055611d2a565b6005546040516341976e0960e01b81526001600160a01b03909116906341976e0990611cd290859060040161429f565b602060405180830381865afa158015611ced573d5f5f3e3d5ffd5b505050506040513d601f19601f82011682018060405250810190611d119190614a21565b6001600160a01b0383165f908152600a60205260409020555b6001600160a01b0382165f908152600a6020526040812054600654909190611dda90611d5990849086906138bc565b600354604051633c2e3e7b60e11b81526001600160a01b039091169063785c7cf690611d8990899060040161429f565b602060405180830381865afa158015611da4573d5f5f3e3d5ffd5b505050506040513d601f19601f82011682018060405250810190611dc89190614a06565b600854600160a01b900460ff1661396d565b9050611de681876146f1565b9550611df1846139d7565b5050505080611dff90614732565b9050611b22565b506008545f90611e2490600160a81b900461ffff16836127106138bc565b601654909150611e4590829063ffffffff908116906301e13380906138bc16565b90508060095f828254611e5891906146f1565b90915550611e68905081836145f2565b60405163728d42fb60e11b8152600481018290529092505f906001600160a01b0387169063e51a85f690602401602060405180830381865afa158015611eb0573d5f5f3e3d5ffd5b505050506040513d601f19601f82011682018060405250810190611ed49190614a21565b9050611ee081846145f2565b6008549093505f90611f0090600160b81b900461ffff16836127106138bc565b90508060095f828254611f1391906146f1565b90915550611f23905081836145f2565b601854604051630df571f760e01b815261ffff9091166004820152602481018290529092506001600160a01b03881690630df571f7906044015f604051808303815f87803b158015611f73575f5ffd5b505af1158015611f85573d5f5f3e3d5ffd5b505050505f876001600160a01b031663a68a5267896001600160a01b0316630a605c6d6040518163ffffffff1660e01b8152600401602060405180830381865afa158015611fd5573d5f5f3e3d5ffd5b505050506040513d601f19601f82011682018060405250810190611ff99190614a21565b875f6040518463ffffffff1660e01b815260040161201993929190614a38565b602060405180830381865afa158015612034573d5f5f3e3d5ffd5b505050506040513d601f19601f820116820180604052508101906120589190614a21565b6001600160a01b0389165f908152601160205260409020869055905061207e81866145f2565b94505f886001600160a01b031663f64c6f326040518163ffffffff1660e01b8152600401602060405180830381865afa1580156120bd573d5f5f3e3d5ffd5b505050506040513d601f19601f820116820180604052508101906120e19190614a21565b60405163e5e9719360e01b8152600481018890529091506001600160a01b038a169063e5e97193906024015f604051808303815f87803b158015612123575f5ffd5b505af1158015612135573d5f5f3e3d5ffd5b50505050808661214591906146f1565b6001600160a01b039099165f908152600d6020526040902098909855505060019096019550611a71945050505050565b50505050565b6002601854600160201b900460ff16600781111561219b5761219b61422b565b146121b95760405163baf3f0f760e01b815260040160405180910390fd5b601880546005906121d390600160281b900460ff16614805565b82546101009290920a60ff818102199093169183160217909155601b5460185490915f9161220a916301000000909104168461481a565b60185460ff91821692505f916122289163010000009004168361483d565b90508261ffff168161ffff16118061224757508261ffff168161ffff16145b1561224f5750815b815b8161ffff168161ffff161015612628575f601b8261ffff16815481106122795761227961471e565b5f918252602091829020015460408051631b9d6fc560e31b815290516001600160a01b039092169350839263dceb7e28926004808401938290030181865afa1580156122c7573d5f5f3e3d5ffd5b505050506040513d601f19601f820116820180604052508101906122eb9190614566565b6122f55750612620565b601c80545f906123089061ffff16614732565b91906101000a81548161ffff021916908361ffff1602179055505f5f826001600160a01b031663d3d034586040518163ffffffff1660e01b81526004015f60405180830381865afa15801561235f573d5f5f3e3d5ffd5b505050506040513d5f823e601f3d908101601f191682016040526123869190810190614857565b60195491935091505f5b83518161ffff161015612600575f848261ffff16815181106123b4576123b461471e565b602002602001015190505f848361ffff16815181106123d5576123d561471e565b6020026020010151905061240f600a6002015f846001600160a01b03166001600160a01b031681526020019081526020015f205482613a5c565b6001600160a01b0383165f908152600c602090815260408083209390935560159052205460ff16612511576008546001600160a01b03908116908316036124895760085461246c90611bfc90600160a01b900460ff16600a6149f8565b6001600160a01b0383165f908152600a6020526040902055612511565b6005546040516341976e0960e01b81526001600160a01b03909116906341976e09906124b990859060040161429f565b602060405180830381865afa1580156124d4573d5f5f3e3d5ffd5b505050506040513d601f19601f820116820180604052508101906124f89190614a21565b6001600160a01b0383165f908152600a60205260409020555b6001600160a01b0382165f908152600a60205260408120549061254761253f61253984613a93565b85613aa8565b600654613ad6565b600354604051633c2e3e7b60e11b81529192505f916125d39184916001600160a01b039091169063785c7cf690612582908a9060040161429f565b602060405180830381865afa15801561259d573d5f5f3e3d5ffd5b505050506040513d601f19601f820116820180604052508101906125c19190614a06565b600854600160a01b900460ff16613afb565b90506125df8782613a5c565b96506125ea856139d7565b5050505050806125f990614732565b9050612390565b506001600160a01b039093165f908152600e602052604090209290925550505b600101612251565b508261ffff168161ffff16036121755761ffff8116158061264d5750601c5461ffff16155b1561266b576018805461ffff60201b1916600160221b179055612175565b6014545f612679828661483d565b61ffff166001600160401b0381111561269457612694614585565b6040519080825280602002602001820160405280156126bd578160200160208202803683370190505b5090505f5b8561ffff168161ffff161015612747575f601b8261ffff16815481106126ea576126ea61471e565b5f9182526020808320909101546001600160a01b0316808352600e90915260409091205490915061271a81613b5c565b5080848461ffff16815181106127325761273261471e565b602090810291909101015250506001016126c2565b505f5b8261ffff168161ffff1610156127da575f600a80018261ffff16815481106127745761277461471e565b5f9182526020808320909101546001600160a01b0316808352600c9091526040909120549091506127a481613b5c565b5080846127b1858b61483d565b61ffff16815181106127c5576127c561471e565b6020908102919091010152505060010161274a565b506127ec81630be2683f60e41b613b6b565b50505050505050565b6003601854600160201b900460ff1660078111156128155761281561422b565b146128335760405163baf3f0f760e01b815260040160405180910390fd5b601b546014545f5b8261ffff168161ffff161015612c6b575f601b8261ffff16815481106128635761286361471e565b5f918252602091829020015460408051631b9d6fc560e31b815290516001600160a01b039092169350839263dceb7e28926004808401938290030181865afa1580156128b1573d5f5f3e3d5ffd5b505050506040513d601f19601f820116820180604052508101906128d59190614566565b6128df5750612c63565b5f601e8361ffff16815481106128f7576128f761471e565b5f91825260208220015460085490925061291f90600160a81b900461ffff16836127106138bc565b60165490915061294090829063ffffffff908116906301e13380906138bc16565b90508060095f82825461295391906146f1565b90915550612963905081836145f2565b60405163728d42fb60e11b8152600481018290529092505f906001600160a01b0385169063e51a85f690602401602060405180830381865afa1580156129ab573d5f5f3e3d5ffd5b505050506040513d601f19601f820116820180604052508101906129cf9190614a21565b90506129db81846145f2565b6008549093505f906129fb90600160b81b900461ffff16836127106138bc565b90508060095f828254612a0e91906146f1565b90915550612a1e905081836145f2565b601854604051630df571f760e01b815261ffff9091166004820152602481018290529092506001600160a01b03861690630df571f7906044015f604051808303815f87803b158015612a6e575f5ffd5b505af1158015612a80573d5f5f3e3d5ffd5b505050505f856001600160a01b031663a68a5267876001600160a01b0316630a605c6d6040518163ffffffff1660e01b8152600401602060405180830381865afa158015612ad0573d5f5f3e3d5ffd5b505050506040513d601f19601f82011682018060405250810190612af49190614a21565b875f6040518463ffffffff1660e01b8152600401612b1493929190614a38565b602060405180830381865afa158015612b2f573d5f5f3e3d5ffd5b505050506040513d601f19601f82011682018060405250810190612b539190614a21565b6001600160a01b0387165f9081526011602052604090208690559050612b7981866145f2565b94505f866001600160a01b031663f64c6f326040518163ffffffff1660e01b8152600401602060405180830381865afa158015612bb8573d5f5f3e3d5ffd5b505050506040513d601f19601f82011682018060405250810190612bdc9190614a21565b60405163e5e9719360e01b8152600481018890529091506001600160a01b0388169063e5e97193906024015f604051808303815f87803b158015612c1e575f5ffd5b505af1158015612c30573d5f5f3e3d5ffd5b505050508086612c4091906146f1565b6001600160a01b039097165f908152600d60205260409020969096555050505050505b60010161283b565b505f5b8161ffff168161ffff161015612d16575f600a80018261ffff1681548110612c9857612c9861471e565b5f9182526020822001546001600160a01b03169150601e612cb9848761483d565b61ffff1681548110612ccd57612ccd61471e565b5f9182526020808320909101546001600160a01b0385168352600b90915260408220805491935083929091612d039084906146f1565b909155505060019092019150612c6e9050565b50506018805461ffff60201b1916600160221b17905550565b6004601854600160201b900460ff166007811115612d4f57612d4f61422b565b14612d6d5760405163baf3f0f760e01b815260040160405180910390fd5b6018805460ff60201b1916600560201b179055601a54601b545f805b8361ffff168161ffff161015612ded575f601a8261ffff1681548110612db157612db161471e565b5f9182526020808320909101546001600160a01b0316808352600d909152604090912054909150612de290846146f1565b925050600101612d89565b505f5b8261ffff168161ffff161015612e54575f601b8261ffff1681548110612e1857612e1861471e565b5f9182526020808320909101546001600160a01b0316808352600d909152604090912054909150612e4990846146f1565b925050600101612df0565b50600480546040805163dab26e3b60e01b815290515f93612ecb936001600160a01b03169263dab26e3b92818301926020928290030181865afa158015612e9d573d5f5f3e3d5ffd5b505050506040513d601f19601f82011682018060405250810190612ec19190614a21565b83906127106138bc565b905080601d541115612edd5750505050565b5f601d5482612eec91906145f2565b90505f5b8561ffff168161ffff161015612f8a575f601a8261ffff1681548110612f1857612f1861471e565b5f9182526020808320909101546001600160a01b0316808352600d909152604082205490925090612f4a8583896138bc565b6001600160a01b0384165f908152600d6020526040812080549293508392909190612f769084906145f2565b909155505060019093019250612ef0915050565b505f5b8461ffff168161ffff161015613027575f601b8261ffff1681548110612fb557612fb561471e565b5f9182526020808320909101546001600160a01b0316808352600d909152604082205490925090612fe78583896138bc565b6001600160a01b0384165f908152600d60205260408120805492935083929091906130139084906145f2565b909155505060019093019250612f8d915050565b5080601d5f82825461303991906146f1565b90915550505050505050565b6005601854600160201b900460ff1660078111156130655761306561422b565b146130835760405163baf3f0f760e01b815260040160405180910390fd5b6018805460059061309d90600160281b900460ff16614805565b91906101000a81548160ff021916908360ff1602179055505f601860029054906101000a900460ff16826130d1919061481a565b60185460ff91821692505f916130ee91620100009004168361483d565b601a5490915061ffff8216118061310a5750601a5461ffff8216145b156131285750601a546018805461ffff60201b1916600360211b1790555b815b8161ffff168161ffff161015612175575f601a8261ffff16815481106131525761315261471e565b905f5260205f20015f9054906101000a90046001600160a01b031690505f5f826001600160a01b031663b6eba6536040518163ffffffff1660e01b81526004015f60405180830381865afa1580156131ac573d5f5f3e3d5ffd5b505050506040513d5f823e601f3d908101601f191682016040526131d39190810190614a64565b6001600160a01b0385165f908152600d6020526040812054835193955091935090916001600160401b0381111561320c5761320c614585565b60405190808252806020026020018201604052801561325057816020015b604080518082019091525f808252602082015281526020019060019003908161322a5790505b5090505f5b84518161ffff1610156134e2575f858261ffff16815181106132795761327961471e565b602002602001015190505f858361ffff168151811061329a5761329a61471e565b6020908102919091018101516001600160a01b0384165f908152601590925260409091205490915060ff166133a0576008546001600160a01b0390811690831603613318576008546132fb90611bfc90600160a01b900460ff16600a6149f8565b6001600160a01b0383165f908152600a60205260409020556133a0565b6005546040516341976e0960e01b81526001600160a01b03909116906341976e099061334890859060040161429f565b602060405180830381865afa158015613363573d5f5f3e3d5ffd5b505050506040513d601f19601f820116820180604052508101906133879190614a21565b6001600160a01b0383165f908152600a60205260409020555b6001600160a01b0382165f908152600a6020526040812054600654600754919291613442916133e89185906133e1908c9063ffffffff808b1691906138bc16565b91906138bc565b600854600354604051633c2e3e7b60e11b8152600160a01b90920460ff16916001600160a01b039091169063785c7cf690613427908a9060040161429f565b602060405180830381865afa158015611c5c573d5f5f3e3d5ffd5b90506040518060400160405280856001600160a01b031681526020018263ffffffff16815250868661ffff168151811061347e5761347e61471e565b602002602001018190525080600a6005015f866001600160a01b03166001600160a01b031681526020019081526020015f205f8282546134be91906146f1565b909155506134cd9050846139d7565b50505050806134db90614732565b9050613255565b50604051630415112560e21b81526001600160a01b038616906310544494906135119084908690600401614b1d565b5f604051808303815f87803b158015613528575f5ffd5b505af115801561353a573d5f5f3e3d5ffd5b50505050505050505080600101905061312a565b6006601854600160201b900460ff16600781111561356e5761356e61422b565b1461358c5760405163baf3f0f760e01b815260040160405180910390fd5b601880546005906135a690600160281b900460ff16614805565b82546101009290920a60ff818102199093169183160217909155601b5460185490915f916135dd916301000000909104168461481a565b60185460ff91821692505f916135fb9163010000009004168361483d565b90508261ffff168161ffff16118061361a57508261ffff168161ffff16145b156121755750506018805461ffff60201b1916600760201b1790555050565b6007601854600160201b900460ff1660078111156136595761365961422b565b146136775760405163baf3f0f760e01b815260040160405180910390fd5b5f600a80018054806020026020016040519081016040528092919081815260200182805480156136ce57602002820191905f5260205f20905b81546001600160a01b031681526001909101906020018083116136b0575b505083519394505f925050505b8161ffff168161ffff161015613799575f838261ffff16815181106137025761370261471e565b6020908102919091018101516001600160a01b0381165f908152600b8352604080822054600f909452902054909250808211156137605761374381836145f2565b6001600160a01b0384165f9081526012602052604090205561378b565b8181111561378b5761377282826145f2565b6001600160a01b0384165f908152601360205260409020555b5050508060010190506136db565b506018805460ff60201b19811682555f906137b79061ffff16614732565b82546101009290920a61ffff8181021990931691831602179091556018546040519116907f0bc12479581640d161e016cef21aa834cb6d6326bbc0d8445e58d56403adf2dc905f90a25050565b5f80546001600160a01b038381166001600160a01b0319831681178455604051919092169283917f8be0079c531659141344cd1fd0a4f28419497f9722a3daafe3b4186f6b6457e09190a35050565b5f61385d84613b77565b90505f61386b828585613c13565b90508061388b5760405163cf6c44e960e01b815260040160405180910390fd5b60405185907f1af0453083661051f6e56e5c070792320652e612154bf9af8637bb1e7655b99d905f90a25050505050565b5f5f5f6138c98686613ce0565b91509150815f036138ed578381816138e3576138e3614b84565b0492505050613966565b818411613904576139046003851502601118613cfc565b5f848688095f868103871696879004966002600389028118808a02820302808a02820302808a02820302808a02820302808a02820302808a02909103029181900381900460010185841190960395909502919093039390930492909217029150505b9392505050565b5f8260ff168260ff1611156139a2576139868383614b98565b61399190600a6149f8565b61399b9085614bb1565b9050613966565b8260ff168260ff1610156139cf576139ba8284614b98565b6139c590600a6149f8565b61399b9085614bc8565b509192915050565b6001600160a01b0381165f9081526015602052604090205460ff166112bb576014805460018181019092557fce6d7b5282bd9a3661ae061feed1dbda4e52ab073b1f9285be6e155d9c38d4ec0180546001600160a01b0384166001600160a01b031990911681179091555f908152601560205260409020805460ff1916909117905550565b5f82613a6e57613a6b5f613a93565b92505b81613a7f57613a7c5f613a93565b91505b613a8a83835f613d0d565b90505b92915050565b5f613a8d826001600160801b03166006613dad565b5f82613aba57613ab75f613a93565b92505b81613acb57613ac85f613a93565b91505b613a8a83835f613e34565b5f82613ae857613ae55f613a93565b92505b613a8a836001600160801b038416613e8a565b5f8260ff168260ff161115613b305761399b84613b2b613b1b8686614b98565b613b2690600a6149f8565b613a93565b613aa8565b8260ff168260ff1610156139cf5761399b84613b4c8486614b98565b613b5790600a6149f8565b613ad6565b5f613b678230613f19565b5090565b5f613a8a83835f613f80565b60605f613b82614081565b5f84815260018201602052604081205491925003613bb35760405163d66ca67560e01b815260040160405180910390fd5b5f83815260018201602090815260409182902080548351818402810184019094528084529091830182828015613c0657602002820191905f5260205f20905b815481526020019060010190808311613bf2575b5050505050915050919050565b5f5f83516020613c2391906146f1565b613c2e9060206146f1565b90505f8482604051602001613c44929190614be7565b60405160208183030381529060405290505f613c5e6140a5565b60038101546040516378542ead60e01b81529192506001600160a01b0316906378542ead90613c95908a9086908a90600401614c01565b6020604051808303815f875af1158015613cb1573d5f5f3e3d5ffd5b505050506040513d601f19601f82011682018060405250810190613cd59190614566565b979650505050505050565b5f805f1983850993909202808410938190039390930393915050565b634e487b715f52806020526024601cfd5b5f5f8215613d205750600160f81b613d23565b505f5b5f613d2c6140a5565b600181015460405163022f65e760e31b81529192506001600160a01b03169063117b2f3890613d6390899089908790600401614c39565b6020604051808303815f875af1158015613d7f573d5f5f3e3d5ffd5b505050506040513d601f19601f82011682018060405250810190613da39190614a21565b9695505050505050565b5f5f613db76140a5565b6001810154604051639cd07acb60e01b81529192506001600160a01b031690639cd07acb90613dec9087908790600401614c59565b6020604051808303815f875af1158015613e08573d5f5f3e3d5ffd5b505050506040513d601f19601f82011682018060405250810190613e2c9190614a21565b949350505050565b5f5f8215613e475750600160f81b613e4a565b505f5b5f613e536140a5565b6001810154604051630afe14ad60e31b81529192506001600160a01b0316906357f0a56890613d6390899089908790600401614c39565b5f600160f81b81613e996140a5565b6001810154604051635a53accb60e01b81529192506001600160a01b031690635a53accb90613ed090889088908790600401614c39565b6020604051808303815f875af1158015613eec573d5f5f3e3d5ffd5b505050506040513d601f19601f82011682018060405250810190613f109190614a21565b95945050505050565b5f613f226140a5565b8054604051635ca4b5b160e11b8152600481018690526001600160a01b03858116602483015292935091169063b9496b62906044015f604051808303815f87803b158015613f6e575f5ffd5b505af11580156127ec573d5f5f3e3d5ffd5b5f5f613f8a614081565b8054925090505f613f996140a5565b8054604051637d6e912360e11b81529192506001600160a01b03169063fadd224690613fc9908990600401614c7d565b5f604051808303815f87803b158015613fe0575f5ffd5b505af1158015613ff2573d5f5f3e3d5ffd5b5050506002820154604051633263b83b60e01b81526001600160a01b039091169150633263b83b90869061402e9087908b908b90600401614c8f565b5f604051808303818588803b158015614045575f5ffd5b505af1158015614057573d5f5f3e3d5ffd5b505050505061406683876140c9565b8154825f61407383614cc0565b919050555050509392505050565b7f878245876662ba28a480c5ea71726db859fb50222b0a3d7cbbc21cfa336faf0090565b7f9e7b61f58c47dc699ac88507c4f5bb9f121c03808c5676a8078fe583e464970090565b5f6140d2614081565b5f8481526001820160205260409020549091501561410357604051633f06d22b60e01b815260040160405180910390fd5b5f83815260018201602090815260409091208351612175928501905b828054828255905f5260205f20908101928215614158579160200282015b8281111561415857825182559160200191906001019061413d565b50613b679291506141d2565b5080545f8255905f5260205f20908101906112bb91906141d2565b828054828255905f5260205f20908101928215614158579160200282015b8281111561415857825182546001600160a01b0319166001600160a01b0390911617825560209092019160019091019061419d565b5b80821115613b67575f81556001016141d3565b60ff811681146112bb575f5ffd5b5f5f60408385031215614205575f5ffd5b8235614210816141e6565b91506020830135614220816141e6565b809150509250929050565b634e487b7160e01b5f52602160045260245ffd5b60208101600883106142535761425361422b565b91905290565b6001600160a01b03811681146112bb575f5ffd5b5f6020828403121561427d575f5ffd5b813561396681614259565b5f60208284031215614298575f5ffd5b5035919050565b6001600160a01b0391909116815260200190565b5f8151808452602084019350602083015f5b828110156142ec5781516001600160a01b03168652602095860195909101906001016142c5565b5093949350505050565b5f8151808452602084019350602083015f5b828110156142ec578151865260209586019590910190600101614308565b60c081525f61433860c08301896142b3565b828103602084015261434a81896142f6565b9050828103604084015261435e81886142b3565b9050828103606084015261437281876142f6565b9050828103608084015261438681866142f6565b905082810360a084015261439a81856142f6565b9998505050505050505050565b5f5f83601f8401126143b7575f5ffd5b5081356001600160401b038111156143cd575f5ffd5b602083019150836020828501011115610ebc575f5ffd5b5f5f602083850312156143f5575f5ffd5b82356001600160401b0381111561440a575f5ffd5b614416858286016143a7565b90969095509350505050565b5f81518084528060208401602086015e5f602082860101526020601f19601f83011685010191505092915050565b8215158152604060208201525f613e2c6040830184614422565b602081525f613a8a60208301846142b3565b803561ffff8116811461448d575f5ffd5b919050565b5f5f604083850312156144a3575f5ffd5b6144ac8361447c565b91506144ba6020840161447c565b90509250929050565b5f5f5f5f5f606086880312156144d7575f5ffd5b8535945060208601356001600160401b038111156144f3575f5ffd5b6144ff888289016143a7565b90955093505060408601356001600160401b0381111561451d575f5ffd5b614529888289016143a7565b969995985093965092949392505050565b63ffffffff811681146112bb575f5ffd5b5f6020828403121561455b575f5ffd5b81356139668161453a565b5f60208284031215614576575f5ffd5b81518015158114613966575f5ffd5b634e487b7160e01b5f52604160045260245ffd5b5f5f604083850312156145aa575f5ffd5b82356001600160e01b031981168114614210575f5ffd5b6001600160e01b031992909216825260ff16602082015260400190565b634e487b7160e01b5f52601160045260245ffd5b81810381811115613a8d57613a8d6145de565b818382375f9101908152919050565b604051601f8201601f191681016001600160401b038111828210171561463c5761463c614585565b604052919050565b5f6001600160401b0382111561465c5761465c614585565b5060051b60200190565b5f60208284031215614676575f5ffd5b81356001600160401b0381111561468b575f5ffd5b8201601f8101841361469b575f5ffd5b80356146ae6146a982614644565b614614565b8082825260208201915060208360051b8501019250868311156146cf575f5ffd5b6020840193505b82841015613da35783358252602093840193909101906146d6565b80820180821115613a8d57613a8d6145de565b5f600160ff1b8201614718576147186145de565b505f0390565b634e487b7160e01b5f52603260045260245ffd5b5f61ffff821661ffff8103614749576147496145de565b60010192915050565b60208101600283106142535761425361422b565b5f82601f830112614775575f5ffd5b81516147836146a982614644565b8082825260208201915060208360051b8601019250858311156147a4575f5ffd5b602085015b838110156147ca5780516147bc81614259565b8352602092830192016147a9565b5095945050505050565b5f602082840312156147e4575f5ffd5b81516001600160401b038111156147f9575f5ffd5b613e2c84828501614766565b5f60ff821660ff8103614749576147496145de565b60ff8181168382160290811690818114614836576148366145de565b5092915050565b61ffff8181168382160190811115613a8d57613a8d6145de565b5f5f60408385031215614868575f5ffd5b82516001600160401b0381111561487d575f5ffd5b61488985828601614766565b602085015190935090506001600160401b038111156148a6575f5ffd5b8301601f810185136148b6575f5ffd5b80516148c46146a982614644565b8082825260208201915060208360051b8501019250878311156148e5575f5ffd5b6020840193505b828410156149075783518252602093840193909101906148ec565b809450505050509250929050565b6001815b600184111561495057808504811115614934576149346145de565b600184161561494257908102905b60019390931c928002614919565b935093915050565b5f8261496657506001613a8d565b8161497257505f613a8d565b81600181146149885760028114614992576149ae565b6001915050613a8d565b60ff8411156149a3576149a36145de565b50506001821b613a8d565b5060208310610133831016604e8410600b84101617156149d1575081810a613a8d565b6149dd5f198484614915565b805f19048211156149f0576149f06145de565b029392505050565b5f613a8a60ff841683614958565b5f60208284031215614a16575f5ffd5b8151613966816141e6565b5f60208284031215614a31575f5ffd5b5051919050565b838152602081018390526060810160048310614a5657614a5661422b565b826040830152949350505050565b5f5f60408385031215614a75575f5ffd5b82516001600160401b03811115614a8a575f5ffd5b614a9685828601614766565b602085015190935090506001600160401b03811115614ab3575f5ffd5b8301601f81018513614ac3575f5ffd5b8051614ad16146a982614644565b8082825260208201915060208360051b850101925087831115614af2575f5ffd5b6020840193505b82841015614907578351614b0c8161453a565b825260209384019390910190614af9565b604080825283519082018190525f9060208501906060840190835b81811015614b7157835180516001600160a01b0316845260209081015163ffffffff168185015290930192604090920191600101614b38565b5050602093909301939093525092915050565b634e487b7160e01b5f52601260045260245ffd5b60ff8281168282160390811115613a8d57613a8d6145de565b8082028115828204841417613a8d57613a8d6145de565b5f82614be257634e487b7160e01b5f52601260045260245ffd5b500490565b5f83518060208601845e9190910191825250602001919050565b606081525f614c1360608301866142f6565b8281036020840152614c258186614422565b90508281036040840152613da38185614422565b92835260208301919091526001600160f81b031916604082015260600190565b8281526040810160548310614c7057614c7061422b565b8260208301529392505050565b602081525f613a8a60208301846142f6565b838152606060208201525f614ca760608301856142f6565b905063ffffffff60e01b83166040830152949350505050565b5f60018201614cd157614cd16145de565b506001019056fea264697066735822122031b1e311761d7445467e99b492ead125bdd24134749107b56eff37ac7e15ac4c64736f6c634300081c00339e7b61f58c47dc699ac88507c4f5bb9f121c03808c5676a8078fe583e46497019e7b61f58c47dc699ac88507c4f5bb9f121c03808c5676a8078fe583e4649700",
  "linkReferences": {},
  "deployedLinkReferences": {}
}