{
  "_format": "hh-sol-artifact-1",
  "contractName": "InternalStatesOrchestrator",
  "sourceName": "contracts/orchestrators/InternalStatesOrchestrator.sol",
  "abi": [
    {
      "inputs": [
        {
          "internalType": "address",
          "name": "initialOwner",
          "type": "address"
        },
        {
          "internalType": "address",
          "name": "config_",
          "type": "address"
        },
        {
          "internalType": "address",
          "name": "automationRegistry_",
          "type": "address"
        }
      ],
      "stateMutability": "nonpayable",
      "type": "constructor"
    },
    {
      "inputs": [],
      "name": "InsufficientAmount",
      "type": "error"
    },
    {
      "inputs": [],
      "name": "InvalidArguments",
      "type": "error"
    },
    {
      "inputs": [],
      "name": "NotAuthorized",
      "type": "error"
    },
    {
      "inputs": [
        {
          "internalType": "address",
          "name": "owner",
          "type": "address"
        }
      ],
      "name": "OwnableInvalidOwner",
      "type": "error"
    },
    {
      "inputs": [
        {
          "internalType": "address",
          "name": "account",
          "type": "address"
        }
      ],
      "name": "OwnableUnauthorizedAccount",
      "type": "error"
    },
    {
      "inputs": [],
      "name": "ReentrancyGuardReentrantCall",
      "type": "error"
    },
    {
      "inputs": [],
      "name": "SystemNotIdle",
      "type": "error"
    },
    {
      "inputs": [],
      "name": "TooEarly",
      "type": "error"
    },
    {
      "inputs": [],
      "name": "ZeroAddress",
      "type": "error"
    },
    {
      "anonymous": false,
      "inputs": [
        {
          "indexed": true,
          "internalType": "address",
          "name": "newAutomationRegistry",
          "type": "address"
        }
      ],
      "name": "AutomationRegistryUpdated",
      "type": "event"
    },
    {
      "anonymous": false,
      "inputs": [
        {
          "indexed": true,
          "internalType": "uint16",
          "name": "epochCounter",
          "type": "uint16"
        }
      ],
      "name": "InternalStateProcessed",
      "type": "event"
    },
    {
      "anonymous": false,
      "inputs": [
        {
          "indexed": true,
          "internalType": "address",
          "name": "previousOwner",
          "type": "address"
        },
        {
          "indexed": true,
          "internalType": "address",
          "name": "newOwner",
          "type": "address"
        }
      ],
      "name": "OwnershipTransferStarted",
      "type": "event"
    },
    {
      "anonymous": false,
      "inputs": [
        {
          "indexed": true,
          "internalType": "address",
          "name": "previousOwner",
          "type": "address"
        },
        {
          "indexed": true,
          "internalType": "address",
          "name": "newOwner",
          "type": "address"
        }
      ],
      "name": "OwnershipTransferred",
      "type": "event"
    },
    {
      "anonymous": false,
      "inputs": [
        {
          "indexed": true,
          "internalType": "uint16",
          "name": "vFeeCoefficient",
          "type": "uint16"
        },
        {
          "indexed": true,
          "internalType": "uint16",
          "name": "rsFeeCoefficient",
          "type": "uint16"
        }
      ],
      "name": "ProtocolFeeChangeScheduled",
      "type": "event"
    },
    {
      "inputs": [],
      "name": "BASIS_POINTS_FACTOR",
      "outputs": [
        {
          "internalType": "uint16",
          "name": "",
          "type": "uint16"
        }
      ],
      "stateMutability": "view",
      "type": "function"
    },
    {
      "inputs": [],
      "name": "MAX_EPOCH_DURATION",
      "outputs": [
        {
          "internalType": "uint32",
          "name": "",
          "type": "uint32"
        }
      ],
      "stateMutability": "view",
      "type": "function"
    },
    {
      "inputs": [],
      "name": "MAX_TRANSPARENT_MINIBATCH_SIZE",
      "outputs": [
        {
          "internalType": "uint8",
          "name": "",
          "type": "uint8"
        }
      ],
      "stateMutability": "view",
      "type": "function"
    },
    {
      "inputs": [],
      "name": "acceptOwnership",
      "outputs": [],
      "stateMutability": "nonpayable",
      "type": "function"
    },
    {
      "inputs": [],
      "name": "activeProtocolFees",
      "outputs": [
        {
          "internalType": "uint16",
          "name": "vFee",
          "type": "uint16"
        },
        {
          "internalType": "uint16",
          "name": "rsFee",
          "type": "uint16"
        }
      ],
      "stateMutability": "view",
      "type": "function"
    },
    {
      "inputs": [],
      "name": "automationRegistry",
      "outputs": [
        {
          "internalType": "address",
          "name": "",
          "type": "address"
        }
      ],
      "stateMutability": "view",
      "type": "function"
    },
    {
      "inputs": [],
      "name": "bufferAmount",
      "outputs": [
        {
          "internalType": "uint256",
          "name": "",
          "type": "uint256"
        }
      ],
      "stateMutability": "view",
      "type": "function"
    },
    {
      "inputs": [
        {
          "internalType": "bytes",
          "name": "",
          "type": "bytes"
        }
      ],
      "name": "checkUpkeep",
      "outputs": [
        {
          "internalType": "bool",
          "name": "upkeepNeeded",
          "type": "bool"
        },
        {
          "internalType": "bytes",
          "name": "performData",
          "type": "bytes"
        }
      ],
      "stateMutability": "view",
      "type": "function"
    },
    {
      "inputs": [],
      "name": "config",
      "outputs": [
        {
          "internalType": "contract IOrionConfig",
          "name": "",
          "type": "address"
        }
      ],
      "stateMutability": "view",
      "type": "function"
    },
    {
      "inputs": [],
      "name": "currentMinibatchIndex",
      "outputs": [
        {
          "internalType": "uint8",
          "name": "",
          "type": "uint8"
        }
      ],
      "stateMutability": "view",
      "type": "function"
    },
    {
      "inputs": [],
      "name": "currentPhase",
      "outputs": [
        {
          "internalType": "enum IInternalStateOrchestrator.InternalUpkeepPhase",
          "name": "",
          "type": "uint8"
        }
      ],
      "stateMutability": "view",
      "type": "function"
    },
    {
      "inputs": [],
      "name": "epochCounter",
      "outputs": [
        {
          "internalType": "uint16",
          "name": "",
          "type": "uint16"
        }
      ],
      "stateMutability": "view",
      "type": "function"
    },
    {
      "inputs": [],
      "name": "epochDuration",
      "outputs": [
        {
          "internalType": "uint32",
          "name": "",
          "type": "uint32"
        }
      ],
      "stateMutability": "view",
      "type": "function"
    },
    {
      "inputs": [],
      "name": "getEpochTokens",
      "outputs": [
        {
          "internalType": "address[]",
          "name": "tokens",
          "type": "address[]"
        }
      ],
      "stateMutability": "view",
      "type": "function"
    },
    {
      "inputs": [
        {
          "internalType": "bool",
          "name": "isSellLeg",
          "type": "bool"
        }
      ],
      "name": "getOrders",
      "outputs": [
        {
          "internalType": "address[]",
          "name": "tokens",
          "type": "address[]"
        },
        {
          "internalType": "uint256[]",
          "name": "amounts",
          "type": "uint256[]"
        },
        {
          "internalType": "uint256[]",
          "name": "estimatedUnderlyingAmounts",
          "type": "uint256[]"
        }
      ],
      "stateMutability": "view",
      "type": "function"
    },
    {
      "inputs": [
        {
          "internalType": "address",
          "name": "token",
          "type": "address"
        }
      ],
      "name": "getPriceOf",
      "outputs": [
        {
          "internalType": "uint256",
          "name": "price",
          "type": "uint256"
        }
      ],
      "stateMutability": "view",
      "type": "function"
    },
    {
      "inputs": [],
      "name": "getTransparentVaultsEpoch",
      "outputs": [
        {
          "internalType": "address[]",
          "name": "vaults",
          "type": "address[]"
        }
      ],
      "stateMutability": "view",
      "type": "function"
    },
    {
      "inputs": [
        {
          "internalType": "address",
          "name": "vault",
          "type": "address"
        }
      ],
      "name": "getVaultTotalAssetsForFulfillDeposit",
      "outputs": [
        {
          "internalType": "uint256",
          "name": "totalAssets",
          "type": "uint256"
        }
      ],
      "stateMutability": "view",
      "type": "function"
    },
    {
      "inputs": [
        {
          "internalType": "address",
          "name": "vault",
          "type": "address"
        }
      ],
      "name": "getVaultTotalAssetsForFulfillRedeem",
      "outputs": [
        {
          "internalType": "uint256",
          "name": "totalAssets",
          "type": "uint256"
        }
      ],
      "stateMutability": "view",
      "type": "function"
    },
    {
      "inputs": [],
      "name": "intentFactor",
      "outputs": [
        {
          "internalType": "uint256",
          "name": "",
          "type": "uint256"
        }
      ],
      "stateMutability": "view",
      "type": "function"
    },
    {
      "inputs": [],
      "name": "liquidityOrchestrator",
      "outputs": [
        {
          "internalType": "contract ILiquidityOrchestrator",
          "name": "",
          "type": "address"
        }
      ],
      "stateMutability": "view",
      "type": "function"
    },
    {
      "inputs": [],
      "name": "newProtocolFeeRatesTimestamp",
      "outputs": [
        {
          "internalType": "uint256",
          "name": "",
          "type": "uint256"
        }
      ],
      "stateMutability": "view",
      "type": "function"
    },
    {
      "inputs": [],
      "name": "owner",
      "outputs": [
        {
          "internalType": "address",
          "name": "",
          "type": "address"
        }
      ],
      "stateMutability": "view",
      "type": "function"
    },
    {
      "inputs": [],
      "name": "pendingOwner",
      "outputs": [
        {
          "internalType": "address",
          "name": "",
          "type": "address"
        }
      ],
      "stateMutability": "view",
      "type": "function"
    },
    {
      "inputs": [],
      "name": "pendingProtocolFees",
      "outputs": [
        {
          "internalType": "uint256",
          "name": "",
          "type": "uint256"
        }
      ],
      "stateMutability": "view",
      "type": "function"
    },
    {
      "inputs": [
        {
          "internalType": "bytes",
          "name": "",
          "type": "bytes"
        }
      ],
      "name": "performUpkeep",
      "outputs": [],
      "stateMutability": "nonpayable",
      "type": "function"
    },
    {
      "inputs": [],
      "name": "priceAdapterPrecision",
      "outputs": [
        {
          "internalType": "uint256",
          "name": "",
          "type": "uint256"
        }
      ],
      "stateMutability": "view",
      "type": "function"
    },
    {
      "inputs": [],
      "name": "registry",
      "outputs": [
        {
          "internalType": "contract IPriceAdapterRegistry",
          "name": "",
          "type": "address"
        }
      ],
      "stateMutability": "view",
      "type": "function"
    },
    {
      "inputs": [],
      "name": "renounceOwnership",
      "outputs": [],
      "stateMutability": "nonpayable",
      "type": "function"
    },
    {
      "inputs": [],
      "name": "rsFeeCoefficient",
      "outputs": [
        {
          "internalType": "uint16",
          "name": "",
          "type": "uint16"
        }
      ],
      "stateMutability": "view",
      "type": "function"
    },
    {
      "inputs": [
        {
          "internalType": "uint256",
          "name": "amount",
          "type": "uint256"
        }
      ],
      "name": "subtractPendingProtocolFees",
      "outputs": [],
      "stateMutability": "nonpayable",
      "type": "function"
    },
    {
      "inputs": [
        {
          "internalType": "address",
          "name": "newOwner",
          "type": "address"
        }
      ],
      "name": "transferOwnership",
      "outputs": [],
      "stateMutability": "nonpayable",
      "type": "function"
    },
    {
      "inputs": [],
      "name": "transparentMinibatchSize",
      "outputs": [
        {
          "internalType": "uint8",
          "name": "",
          "type": "uint8"
        }
      ],
      "stateMutability": "view",
      "type": "function"
    },
    {
      "inputs": [
        {
          "internalType": "uint256",
          "name": "",
          "type": "uint256"
        }
      ],
      "name": "transparentVaultsEpoch",
      "outputs": [
        {
          "internalType": "address",
          "name": "",
          "type": "address"
        }
      ],
      "stateMutability": "view",
      "type": "function"
    },
    {
      "inputs": [],
      "name": "underlyingAsset",
      "outputs": [
        {
          "internalType": "address",
          "name": "",
          "type": "address"
        }
      ],
      "stateMutability": "view",
      "type": "function"
    },
    {
      "inputs": [],
      "name": "underlyingDecimals",
      "outputs": [
        {
          "internalType": "uint8",
          "name": "",
          "type": "uint8"
        }
      ],
      "stateMutability": "view",
      "type": "function"
    },
    {
      "inputs": [
        {
          "internalType": "address",
          "name": "newAutomationRegistry",
          "type": "address"
        }
      ],
      "name": "updateAutomationRegistry",
      "outputs": [],
      "stateMutability": "nonpayable",
      "type": "function"
    },
    {
      "inputs": [
        {
          "internalType": "int256",
          "name": "deltaAmount",
          "type": "int256"
        }
      ],
      "name": "updateBufferAmount",
      "outputs": [],
      "stateMutability": "nonpayable",
      "type": "function"
    },
    {
      "inputs": [
        {
          "internalType": "uint32",
          "name": "newEpochDuration",
          "type": "uint32"
        }
      ],
      "name": "updateEpochDuration",
      "outputs": [],
      "stateMutability": "nonpayable",
      "type": "function"
    },
    {
      "inputs": [
        {
          "internalType": "uint8",
          "name": "_transparentMinibatchSize",
          "type": "uint8"
        }
      ],
      "name": "updateMinibatchSize",
      "outputs": [],
      "stateMutability": "nonpayable",
      "type": "function"
    },
    {
      "inputs": [],
      "name": "updateNextUpdateTime",
      "outputs": [],
      "stateMutability": "nonpayable",
      "type": "function"
    },
    {
      "inputs": [
        {
          "internalType": "uint16",
          "name": "_vFeeCoefficient",
          "type": "uint16"
        },
        {
          "internalType": "uint16",
          "name": "_rsFeeCoefficient",
          "type": "uint16"
        }
      ],
      "name": "updateProtocolFees",
      "outputs": [],
      "stateMutability": "nonpayable",
      "type": "function"
    },
    {
      "inputs": [],
      "name": "vFeeCoefficient",
      "outputs": [
        {
          "internalType": "uint16",
          "name": "",
          "type": "uint16"
        }
      ],
      "stateMutability": "view",
      "type": "function"
    }
  ],
  "bytecode": "0x608060405234801561000f575f5ffd5b50604051613ad4380380613ad483398101604081905261002e916104c3565b826001600160a01b03811661005c57604051631e4fbdf760e01b81525f600482015260240160405180910390fd5b61006581610444565b5060016002556001600160a01b0382166100925760405163d92e233d60e01b815260040160405180910390fd5b6001600160a01b0381166100b95760405163d92e233d60e01b815260040160405180910390fd5b600480546001600160a01b0319166001600160a01b03841690811782556040805163015df99360e01b81529051919263015df9939282820192602092908290030181865afa15801561010d573d5f5f3e3d5ffd5b505050506040513d601f19601f82011682018060405250810190610131919061050d565b600680546001600160a01b0319166001600160a01b03928316179055600480546040805163d1717c7d60e01b81529051919093169263d1717c7d92818101926020929091908290030181865afa15801561018d573d5f5f3e3d5ffd5b505050506040513d601f19601f820116820180604052508101906101b1919061052f565b6101bc90600a610648565b6008556004805460408051631c56369f60e21b815290516001600160a01b0390921692637158da7c9282820192602092908290030181865afa158015610204573d5f5f3e3d5ffd5b505050506040513d601f19601f82011682018060405250810190610228919061050d565b600980546001600160a01b0319166001600160a01b0392831690811790915560048054604051633c2e3e7b60e11b81529182019290925291169063785c7cf690602401602060405180830381865afa158015610286573d5f5f3e3d5ffd5b505050506040513d601f19601f820116820180604052508101906102aa919061052f565b6009805460ff92909216600160a01b0260ff60a01b19909216919091179055600480546040805163567ba71360e01b815290516001600160a01b039092169263567ba7139282820192602092908290030181865afa15801561030e573d5f5f3e3d5ffd5b505050506040513d601f19601f82011682018060405250810190610332919061052f565b61033d90600a610648565b6007556019805462ff0000191662010000179055600380546001600160a01b038084166001600160a01b0319909216919091179091556004805460408051631d06d6c760e11b815290519190931692633a0dad8e92818101926020929091908290030181865afa1580156103b3573d5f5f3e3d5ffd5b505050506040513d601f19601f820116820180604052508101906103d7919061050d565b600580546001600160a01b0319166001600160a01b0392909216919091179055601780546201518063ffffffff1990911681179091556104179042610656565b60185550506019805464ffff00ffff19169055506009805463ffffffff60a81b191690555f601b55610669565b600180546001600160a01b031916905561045d81610460565b50565b5f80546001600160a01b038381166001600160a01b0319831681178455604051919092169283917f8be0079c531659141344cd1fd0a4f28419497f9722a3daafe3b4186f6b6457e09190a35050565b6001600160a01b038116811461045d575f5ffd5b5f5f5f606084860312156104d5575f5ffd5b83516104e0816104af565b60208501519093506104f1816104af565b6040850151909250610502816104af565b809150509250925092565b5f6020828403121561051d575f5ffd5b8151610528816104af565b9392505050565b5f6020828403121561053f575f5ffd5b815160ff81168114610528575f5ffd5b634e487b7160e01b5f52601160045260245ffd5b6001815b600184111561059e578085048111156105825761058261054f565b600184161561059057908102905b60019390931c928002610567565b935093915050565b5f826105b457506001610642565b816105c057505f610642565b81600181146105d657600281146105e0576105fc565b6001915050610642565b60ff8411156105f1576105f161054f565b50506001821b610642565b5060208310610133831016604e8410600b841016171561061f575081810a610642565b61062b5f198484610563565b805f190482111561063e5761063e61054f565b0290505b92915050565b5f61052860ff8416836105a6565b808201808211156106425761064261054f565b61345e806106765f395ff3fe608060405234801561000f575f5ffd5b50600436106101f7575f3560e01c8063055ad42e146101fb5780630844697d1461022557806308af604d1461024d5780630e60efe714610272578063132b1c921461028957806314b19c5a146102b157806314b5d07f146102bf57806325a760c2146102d45780632b0088b4146102e85780633a0dad8e146102f15780634585e33b146103115780634f17a2fa146103245780634ff0876a1461034357806350267f6d146103535780635488cd621461037657806358fac65b1461038a5780635dc228a01461039d5780636e04ff0d146103b05780636ff04153146103d157806370604445146103e6578063715018a6146103f95780637158da7c1461040157806379502c551461041457806379ba5097146104275780637b1039991461042f5780637bced9e5146104425780637cdabf0a1461044a578063800f9fad1461045d5780638da5cb5b146104665780638f5c94651461046e5780639f2124cb14610477578063b0aeacc61461047f578063b8b2af7c146104a1578063ba96ff11146104b6578063c18e2a5c146104de578063ca1f32f1146104e7578063e2638ff1146104f0578063e2c4aaec14610518578063e30c39781461052b578063e6c3efd914610533578063ed13087814610546578063eeb393c91461054e578063f2fde38b14610561575b5f5ffd5b60195461020f906301000000900460ff1681565b60405161021c9190612bda565b60405180910390f35b60095461023a90600160b81b900461ffff1681565b60405161ffff909116815260200161021c565b6019546102609062010000900460ff1681565b60405160ff909116815260200161021c565b61027b600a5481565b60405190815260200161021c565b61027b610297366004612c08565b6001600160a01b03165f9081526012602052604090205490565b60195461023a9061ffff1681565b6102d26102cd366004612c08565b610574565b005b60095461026090600160a01b900460ff1681565b61027b60085481565b600554610304906001600160a01b031681565b60405161021c9190612c23565b6102d261031f366004612c37565b610672565b61032e6212750081565b60405163ffffffff909116815260200161021c565b60175461032e9063ffffffff1681565b61035b6108dc565b6040805161ffff93841681529290911660208301520161021c565b60195461026090600160201b900460ff1681565b610304610398366004612ca3565b61091d565b600354610304906001600160a01b031681565b6103c36103be366004612c37565b610945565b60405161021c929190612cba565b6103d9610a9f565b60405161021c9190612d3b565b6102d26103f4366004612ca3565b610b02565b6102d2610b69565b600954610304906001600160a01b031681565b600454610304906001600160a01b031681565b6102d2610b7c565b600654610304906001600160a01b031681565b610260600881565b6102d2610458366004612d63565b610bc4565b61027b600c5481565b610304610d9a565b61023a61271081565b6103d9610da8565b61049261048d366004612da1565b610e06565b60405161021c93929190612dec565b60095461023a90600160a81b900461ffff1681565b61027b6104c4366004612c08565b6001600160a01b03165f908152600d602052604090205490565b61027b601b5481565b61027b60075481565b61027b6104fe366004612c08565b6001600160a01b03165f9081526011602052604090205490565b6102d2610526366004612ca3565b610fa1565b610304611011565b6102d2610541366004612e3c565b611020565b6102d2611114565b6102d261055c366004612e68565b611194565b6102d261056f366004612c08565b6112a6565b61057c61130c565b6001600160a01b0381166105a35760405163d92e233d60e01b815260040160405180910390fd5b600480546040805163edcf9c1f60e01b815290516001600160a01b039092169263edcf9c1f9282820192602092908290030181865afa1580156105e8573d5f5f3e3d5ffd5b505050506040513d601f19601f8201168201806040525081019061060c9190612e83565b610629576040516312aecd8160e01b815260040160405180910390fd5b600380546001600160a01b0319166001600160a01b0383169081179091556040517f6cc7ebdb6c8c53291c5ae16148cab9b049d23bf5bde5632900b40edff56fcb43905f90a250565b61067a610d9a565b6001600160a01b0316336001600160a01b0316141580156106a657506003546001600160a01b03163314155b156106c45760405163ea8e4eb560e01b815260040160405180910390fd5b6106cc61133e565b600480546040805163edcf9c1f60e01b815290516001600160a01b039092169263edcf9c1f9282820192602092908290030181865afa158015610711573d5f5f3e3d5ffd5b505050506040513d601f19601f820116820180604052508101906107359190612e83565b8015610742575060185442115b156107545761074f611366565b6108ce565b60016019546301000000900460ff16600481111561077457610774612bc6565b036107815761074f6115fd565b60026019546301000000900460ff1660048111156107a1576107a1612bc6565b036107ae5761074f611d64565b60036019546301000000900460ff1660048111156107ce576107ce612bc6565b036107db5761074f611f4d565b60046019546301000000900460ff1660048111156107fb576107fb612bc6565b036108ce5761080861241e565b6019805463ff000000191690556005546040805163e5c42fb360e01b815290516001600160a01b039092169163e5c42fb3916004808201925f9290919082900301818387803b158015610859575f5ffd5b505af115801561086b573d5f5f3e3d5ffd5b5050601980549092505f91506108849061ffff16612eb2565b82546101009290920a61ffff8181021990931691831602179091556019546040519116907f0bc12479581640d161e016cef21aa834cb6d6326bbc0d8445e58d56403adf2dc905f90a25b6108d86001600255565b5050565b5f5f42600a5411156108ff575050600b5461ffff80821692620100009092041690565b505060095461ffff600160a81b8204811692600160b81b9092041690565b601a818154811061092c575f80fd5b5f918252602090912001546001600160a01b0316905081565b600480546040805163edcf9c1f60e01b815290515f936060936001600160a01b03169263edcf9c1f92818301926020928290030181865afa15801561098c573d5f5f3e3d5ffd5b505050506040513d601f19601f820116820180604052508101906109b09190612e83565b80156109bd575060185442115b156109cb5760019150610a87565b60016019546301000000900460ff1660048111156109eb576109eb612bc6565b036109f95760019150610a87565b60026019546301000000900460ff166004811115610a1957610a19612bc6565b03610a275760019150610a87565b60036019546301000000900460ff166004811115610a4757610a47612bc6565b03610a555760019150610a87565b60046019546301000000900460ff166004811115610a7557610a75612bc6565b03610a835760019150610a87565b5f91505b60405180602001604052805f81525090509250929050565b6060600d600801805480602002602001604051908101604052809291908181526020018280548015610af857602002820191905f5260205f20905b81546001600160a01b03168152600190910190602001808311610ada575b5050505050905090565b6005546001600160a01b03163314610b2d5760405163ea8e4eb560e01b815260040160405180910390fd5b600c54811115610b5057604051632ca2f52b60e11b815260040160405180910390fd5b80600c5f828254610b619190612ed2565b909155505050565b610b7161130c565b610b7a5f612541565b565b3380610b86611011565b6001600160a01b031614610bb8578060405163118cdaa760e01b8152600401610baf9190612c23565b60405180910390fd5b610bc181612541565b50565b610bcc61130c565b60328261ffff161180610be457506107d08161ffff16115b15610c02576040516317dbc4cb60e21b815260040160405180910390fd5b600480546040805163edcf9c1f60e01b815290516001600160a01b039092169263edcf9c1f9282820192602092908290030181865afa158015610c47573d5f5f3e3d5ffd5b505050506040513d601f19601f82011682018060405250810190610c6b9190612e83565b610c88576040516312aecd8160e01b815260040160405180910390fd5b5f5f610c926108dc565b600b805461ffff84811663ffffffff19909216919091176201000084831602179091556009805463ffffffff60a81b1916600160a81b8984160261ffff60b81b191617600160b81b928816929092029190911790556004805460408051630df1aa5760e31b815290519496509294506001600160a01b031692636f8d52b89280830192602092918290030181865afa158015610d30573d5f5f3e3d5ffd5b505050506040513d601f19601f82011682018060405250810190610d549190612ee5565b610d5e9042612efc565b600a5560405161ffff80851691908616907f2bb6517fcd555b5390717b7fd212a2d9aa55d0214725c5d6d955103b4e6b2a2c905f90a350505050565b5f546001600160a01b031690565b6060601a805480602002602001604051908101604052809291908181526020018280548015610af857602002820191905f5260205f209081546001600160a01b03168152600190910190602001808311610ada575050505050905090565b606080805f6019546301000000900460ff166004811115610e2957610e29612bc6565b14610e47576040516312aecd8160e01b815260040160405180910390fd5b5f600d600801805480602002602001604051908101604052809291908181526020018280548015610e9f57602002820191905f5260205f20905b81546001600160a01b03168152600190910190602001808311610e81575b505050505090505f610eb1828761255a565b90508061ffff166001600160401b03811115610ecf57610ecf612f0f565b604051908082528060200260200182016040528015610ef8578160200160208202803683370190505b5094508061ffff166001600160401b03811115610f1757610f17612f0f565b604051908082528060200260200182016040528015610f40578160200160208202803683370190505b5093508061ffff166001600160401b03811115610f5f57610f5f612f0f565b604051908082528060200260200182016040528015610f88578160200160208202803683370190505b509250610f98828686868a61260b565b50509193909250565b6005546001600160a01b03163314610fcc5760405163ea8e4eb560e01b815260040160405180910390fd5b5f811315610ff05780601b5f828254610fe59190612efc565b90915550610bc19050565b5f811215610bc15761100181612f23565b601b5f828254610b619190612ed2565b6001546001600160a01b031690565b61102861130c565b8060ff165f0361104b576040516317dbc4cb60e21b815260040160405180910390fd5b600860ff82161115611070576040516317dbc4cb60e21b815260040160405180910390fd5b600480546040805163edcf9c1f60e01b815290516001600160a01b039092169263edcf9c1f9282820192602092908290030181865afa1580156110b5573d5f5f3e3d5ffd5b505050506040513d601f19601f820116820180604052508101906110d99190612e83565b6110f6576040516312aecd8160e01b815260040160405180910390fd5b6019805460ff909216620100000262ff000019909216919091179055565b6005546001600160a01b0316331461113f5760405163ea8e4eb560e01b815260040160405180910390fd5b5f6019546301000000900460ff16600481111561115e5761115e612bc6565b1461117c576040516312aecd8160e01b815260040160405180910390fd5b60175461118f9063ffffffff1642612efc565b601855565b61119c61130c565b8063ffffffff165f036111c2576040516317dbc4cb60e21b815260040160405180910390fd5b6212750063ffffffff821611156111ec576040516317dbc4cb60e21b815260040160405180910390fd5b600480546040805163edcf9c1f60e01b815290516001600160a01b039092169263edcf9c1f9282820192602092908290030181865afa158015611231573d5f5f3e3d5ffd5b505050506040513d601f19601f820116820180604052508101906112559190612e83565b611272576040516312aecd8160e01b815260040160405180910390fd5b6017805463ffffffff191663ffffffff83169081179091556112a0906112989042612efc565b601854612782565b60185550565b6112ae61130c565b600180546001600160a01b0319166001600160a01b0383169081179091556112d4610d9a565b6001600160a01b03167f38d16b8cac22d99fc7c124b9cd0de2d3fa1faef420bfe791d8c362d765e2270060405160405180910390a350565b33611315610d9a565b6001600160a01b031614610b7a573360405163118cdaa760e01b8152600401610baf9190612c23565b600280540361136057604051633ee5aeb560e01b815260040160405180910390fd5b60028055565b601854421115806113dd5750600480546040805163edcf9c1f60e01b815290516001600160a01b039092169263edcf9c1f9282820192602092908290030181865afa1580156113b7573d5f5f3e3d5ffd5b505050506040513d601f19601f820116820180604052508101906113db9190612e83565b155b156113fb5760405163085de62560e01b815260040160405180910390fd5b601a545f906001600160401b0381111561141757611417612f0f565b604051908082528060200260200182016040528015611440578160200160208202803683370190505b5090505f5b601a5461ffff821610156114c357601a8161ffff168154811061146a5761146a612f3d565b905f5260205f20015f9054906101000a90046001600160a01b0316828261ffff168151811061149b5761149b612f3d565b6001600160a01b03909216602092830291909101909101526114bc81612eb2565b9050611445565b505f5b60155461ffff8216101561155b575f600d6008018261ffff16815481106114ef576114ef612f3d565b5f9182526020808320909101546001600160a01b03168252600d81526040808320839055600e825280832083905560108252808320839055601382528083208390556014825280832083905560169091529020805460ff191690555061155481612eb2565b90506114c6565b5061156760155f612b98565b5f5b81518161ffff1610156115d6575f828261ffff168151811061158d5761158d612f3d565b6020908102919091018101516001600160a01b03165f908152600f8252604080822082905560118352808220829055601290925290812055506115cf81612eb2565b9050611569565b506115df612796565b601a5415610bc157506019805463ff00000019166301000000179055565b6019545f9061161e9060ff620100008204811691600160201b900416612f51565b60195460ff91821692505f9161163b916201000090041683612f74565b90506019600481819054906101000a900460ff1661165890612f8e565b91906101000a81548160ff021916908360ff160217905550601a805490508161ffff16118061168c5750601a5461ffff8216145b156116aa5750601a546019805464ffff000000191663020000001790555b5f5f6116b46108dc565b9092509050835b8361ffff168161ffff161015611d5d575f601a8261ffff16815481106116e3576116e3612f3d565b905f5260205f20015f9054906101000a90046001600160a01b031690505f5f826001600160a01b031663d3d034586040518163ffffffff1660e01b81526004015f60405180830381865afa15801561173d573d5f5f3e3d5ffd5b505050506040513d5f823e601f3d908101601f191682016040526117649190810190613068565b90925090505f805b83518161ffff161015611a43575f848261ffff168151811061179057611790612f3d565b602002602001015190505f848361ffff16815181106117b1576117b1612f3d565b6020026020010151905080600d6001015f846001600160a01b03166001600160a01b031681526020019081526020015f205f8282546117f09190612efc565b90915550506001600160a01b0382165f9081526016602052604090205460ff16611968576009546001600160a01b03908116908316036118e0576009546118c39061184690600160a01b900460ff16600a613209565b600954600480546040805163567ba71360e01b81529051600160a01b90940460ff16936001600160a01b039092169263567ba7139282820192602092908290030181865afa15801561189a573d5f5f3e3d5ffd5b505050506040513d601f19601f820116820180604052508101906118be9190613217565b61297b565b6001600160a01b0383165f908152600d6020526040902055611968565b6006546040516341976e0960e01b81526001600160a01b03909116906341976e0990611910908590600401612c23565b602060405180830381865afa15801561192b573d5f5f3e3d5ffd5b505050506040513d601f19601f8201168201806040525081019061194f9190612ee5565b6001600160a01b0383165f908152600d60205260409020555b6001600160a01b0382165f908152600d6020526040812054600754909190611a179061199790849086906129e7565b60048054604051633c2e3e7b60e11b81526001600160a01b039091169163785c7cf6916119c6918a9101612c23565b602060405180830381865afa1580156119e1573d5f5f3e3d5ffd5b505050506040513d601f19601f82011682018060405250810190611a059190613217565b600954600160a01b900460ff1661297b565b9050611a238187612efc565b9550611a2e84612a97565b5050505080611a3c90612eb2565b905061176c565b505f611a5661ffff8916836127106129e7565b601754909150611a7790829063ffffffff908116906301e13380906129e716565b905080600c5f828254611a8a9190612efc565b90915550611a9a90508183612ed2565b60405163728d42fb60e11b8152600481018290529092505f906001600160a01b0387169063e51a85f690602401602060405180830381865afa158015611ae2573d5f5f3e3d5ffd5b505050506040513d601f19601f82011682018060405250810190611b069190612ee5565b9050611b128184612ed2565b6001600160a01b0387165f908152601160205260408120829055909350611b4061ffff8a16836127106129e7565b905080600c5f828254611b539190612efc565b90915550611b6390508183612ed2565b601954604051630df571f760e01b815261ffff9091166004820152602481018290529092506001600160a01b03881690630df571f7906044015f604051808303815f87803b158015611bb3575f5ffd5b505af1158015611bc5573d5f5f3e3d5ffd5b505050505f876001600160a01b031663a68a5267896001600160a01b0316630a605c6d6040518163ffffffff1660e01b8152600401602060405180830381865afa158015611c15573d5f5f3e3d5ffd5b505050506040513d601f19601f82011682018060405250810190611c399190612ee5565b875f6040518463ffffffff1660e01b8152600401611c5993929190613232565b602060405180830381865afa158015611c74573d5f5f3e3d5ffd5b505050506040513d601f19601f82011682018060405250810190611c989190612ee5565b9050611ca48186612ed2565b94505f886001600160a01b031663f64c6f326040518163ffffffff1660e01b8152600401602060405180830381865afa158015611ce3573d5f5f3e3d5ffd5b505050506040513d601f19601f82011682018060405250810190611d079190612ee5565b6001600160a01b038a165f9081526012602052604090208790559050611d2d8187612efc565b6001600160a01b039099165f908152600f60205260409020989098555050600190960195506116bb945050505050565b5050505050565b6019805463ff00000019166303000000179055601a545f805b8261ffff168161ffff161015611de1575f601a8261ffff1681548110611da557611da5612f3d565b5f9182526020808320909101546001600160a01b0316808352600f909152604090912054909150611dd69084612efc565b925050600101611d7d565b505f611e6460055f9054906101000a90046001600160a01b03166001600160a01b031663dab26e3b6040518163ffffffff1660e01b8152600401602060405180830381865afa158015611e36573d5f5f3e3d5ffd5b505050506040513d601f19601f82011682018060405250810190611e5a9190612ee5565b83906127106129e7565b905080601b541115611e7557505050565b5f601b5482611e849190612ed2565b90505f805b8561ffff168161ffff161015611f2f575f601a8261ffff1681548110611eb157611eb1612f3d565b5f9182526020808320909101546001600160a01b0316808352600f909152604082205490925090611ee386838a6129e7565b6001600160a01b0384165f908152600f6020526040812080549293508392909190611f0f908490612ed2565b90915550611f1f90508186612efc565b9450505050806001019050611e89565b5080601b5f828254611f419190612efc565b90915550505050505050565b6019545f90611f6e9060ff620100008204811691600160201b900416612f51565b60195460ff91821692505f91611f8b916201000090041683612f74565b90506019600481819054906101000a900460ff16611fa890612f8e565b91906101000a81548160ff021916908360ff160217905550601a805490508161ffff161180611fdc5750601a5461ffff8216145b15611ffa5750601a546019805464ffff000000191663040000001790555b815b8161ffff168161ffff161015612419575f601a8261ffff168154811061202457612024612f3d565b905f5260205f20015f9054906101000a90046001600160a01b031690505f5f826001600160a01b031663b6eba6536040518163ffffffff1660e01b81526004015f60405180830381865afa15801561207e573d5f5f3e3d5ffd5b505050506040513d5f823e601f3d908101601f191682016040526120a5919081019061325e565b6001600160a01b0385165f908152600f6020526040812054835193955091935090916001600160401b038111156120de576120de612f0f565b60405190808252806020026020018201604052801561212257816020015b604080518082019091525f80825260208201528152602001906001900390816120fc5790505b5090505f5b84518161ffff1610156123ad575f858261ffff168151811061214b5761214b612f3d565b602002602001015190505f858361ffff168151811061216c5761216c612f3d565b6020908102919091018101516001600160a01b0384165f908152601690925260409091205490915060ff16612272576009546001600160a01b03908116908316036121ea576009546121cd9061184690600160a01b900460ff16600a613209565b6001600160a01b0383165f908152600d6020526040902055612272565b6006546040516341976e0960e01b81526001600160a01b03909116906341976e099061221a908590600401612c23565b602060405180830381865afa158015612235573d5f5f3e3d5ffd5b505050506040513d601f19601f820116820180604052508101906122599190612ee5565b6001600160a01b0383165f908152600d60205260409020555b6001600160a01b0382165f908152600d6020526040812054600754600854919291612313916122ba9185906122b3908c9063ffffffff808b1691906129e716565b91906129e7565b60095460048054604051633c2e3e7b60e11b8152600160a01b90930460ff16926001600160a01b039091169163785c7cf6916122f8918b9101612c23565b602060405180830381865afa15801561189a573d5f5f3e3d5ffd5b90506040518060400160405280856001600160a01b0316815260200182815250868661ffff168151811061234957612349612f3d565b602002602001018190525080600d6003015f866001600160a01b03166001600160a01b031681526020019081526020015f205f8282546123899190612efc565b90915550612398905084612a97565b50505050806123a690612eb2565b9050612127565b50604051634c2dd25760e11b81526001600160a01b0386169063985ba4ae906123dc9084908690600401613317565b5f604051808303815f87803b1580156123f3575f5ffd5b505af1158015612405573d5f5f3e3d5ffd5b505050505050505050806001019050611ffc565b505050565b5f600d60080180548060200260200160405190810160405280929190818152602001828054801561247657602002820191905f5260205f20905b81546001600160a01b03168152600190910190602001808311612458575b505083519394505f925050505b8161ffff168161ffff161015612419575f838261ffff16815181106124aa576124aa612f3d565b6020908102919091018101516001600160a01b0381165f908152600e8352604080822054601090945290205490925080821115612508576124eb8183612ed2565b6001600160a01b0384165f90815260136020526040902055612533565b818111156125335761251a8282612ed2565b6001600160a01b0384165f908152601460205260409020555b505050806001019050612483565b600180546001600160a01b0319169055610bc181612b1c565b81515f90815b8161ffff168161ffff161015612603575f858261ffff168151811061258757612587612f3d565b602002602001015190508480156125b457506001600160a01b0381165f9081526013602052604090205415155b156125c5576125c284612eb2565b93505b841580156125e957506001600160a01b0381165f9081526014602052604090205415155b156125fa576125f784612eb2565b93505b50600101612560565b505092915050565b84515f805b8261ffff168161ffff161015612778575f888261ffff168151811061263757612637612f3d565b602002602001015190505f85612664576001600160a01b0382165f9081526014602052604090205461267d565b6001600160a01b0382165f908152601360205260409020545b9050801561276e5781898561ffff168151811061269c5761269c612f3d565b60200260200101906001600160a01b031690816001600160a01b03168152505080888561ffff16815181106126d3576126d3612f3d565b6020908102919091018101919091526001600160a01b0383165f908152600d90915260408120546007546127089184916129e7565b60048054604051633c2e3e7b60e11b81529293506127409284926001600160a01b039092169163785c7cf6916119c691899101612c23565b888661ffff168151811061275657612756612f3d565b602090810291909101015261276a85612eb2565b9450505b5050600101612610565b5050505050505050565b5f8282188284100282185b90505b92915050565b60048054604051631da09e4360e31b81525f926001600160a01b039092169163ed04f218916127c791859101613378565b5f60405180830381865afa1580156127e1573d5f5f3e3d5ffd5b505050506040513d5f823e601f3d908101601f19168201604052612808919081019061338c565b9050612815601a5f612b98565b5f5b81518161ffff1610156108d8575f828261ffff168151811061283b5761283b612f3d565b60200260200101519050806001600160a01b03166301e1d1146040518163ffffffff1660e01b8152600401602060405180830381865afa158015612881573d5f5f3e3d5ffd5b505050506040513d601f19601f820116820180604052508101906128a59190612ee5565b816001600160a01b031663f64c6f326040518163ffffffff1660e01b8152600401602060405180830381865afa1580156128e1573d5f5f3e3d5ffd5b505050506040513d601f19601f820116820180604052508101906129059190612ee5565b61290f9190612efc565b5f0361291b575061296b565b601a80546001810182555f919091527f057c384a7d1c54f3a1b2e5e67b2617b8224fdfd1ea7234eea573a6ff665ff63e0180546001600160a01b0319166001600160a01b03929092169190911790555b61297481612eb2565b9050612817565b5f8260ff168260ff1611156129b05761299483836133c5565b61299f90600a613209565b6129a990856133de565b90506129e0565b8260ff168260ff1610156129dd576129c882846133c5565b6129d390600a613209565b6129a99085613409565b50825b9392505050565b5f5f5f6129f48686612b6b565b91509150815f03612a1857838181612a0e57612a0e6133f5565b04925050506129e0565b818411612a2f57612a2f6003851502601118612b87565b5f848688095f868103871696879004966002600389028118808a02820302808a02820302808a02820302808a02820302808a02820302808a02909103029181900381900460010185841190960395909502919093039390930492909217029150509392505050565b6001600160a01b0381165f9081526016602052604090205460ff16610bc1576015805460018181019092557f55f448fdea98c4d29eb340757ef0a66cd03dbb9538908a6a81d96026b71ec4750180546001600160a01b0384166001600160a01b031990911681179091555f908152601660205260409020805460ff1916909117905550565b5f80546001600160a01b038381166001600160a01b0319831681178455604051919092169283917f8be0079c531659141344cd1fd0a4f28419497f9722a3daafe3b4186f6b6457e09190a35050565b5f805f1983850993909202808410938190039390930393915050565b634e487b715f52806020526024601cfd5b5080545f8255905f5260205f2090810190610bc191905b80821115612bc2575f8155600101612baf565b5090565b634e487b7160e01b5f52602160045260245ffd5b6020810160058310612bee57612bee612bc6565b91905290565b6001600160a01b0381168114610bc1575f5ffd5b5f60208284031215612c18575f5ffd5b81356129e081612bf4565b6001600160a01b0391909116815260200190565b5f5f60208385031215612c48575f5ffd5b82356001600160401b03811115612c5d575f5ffd5b8301601f81018513612c6d575f5ffd5b80356001600160401b03811115612c82575f5ffd5b856020828401011115612c93575f5ffd5b6020919091019590945092505050565b5f60208284031215612cb3575f5ffd5b5035919050565b8215158152604060208201525f82518060408401528060208501606085015e5f606082850101526060601f19601f8301168401019150509392505050565b5f8151808452602084019350602083015f5b82811015612d315781516001600160a01b0316865260209586019590910190600101612d0a565b5093949350505050565b602081525f61278d6020830184612cf8565b803561ffff81168114612d5e575f5ffd5b919050565b5f5f60408385031215612d74575f5ffd5b612d7d83612d4d565b9150612d8b60208401612d4d565b90509250929050565b8015158114610bc1575f5ffd5b5f60208284031215612db1575f5ffd5b81356129e081612d94565b5f8151808452602084019350602083015f5b82811015612d31578151865260209586019590910190600101612dce565b606081525f612dfe6060830186612cf8565b8281036020840152612e108186612dbc565b90508281036040840152612e248185612dbc565b9695505050505050565b60ff81168114610bc1575f5ffd5b5f60208284031215612e4c575f5ffd5b81356129e081612e2e565b63ffffffff81168114610bc1575f5ffd5b5f60208284031215612e78575f5ffd5b81356129e081612e57565b5f60208284031215612e93575f5ffd5b81516129e081612d94565b634e487b7160e01b5f52601160045260245ffd5b5f61ffff821661ffff8103612ec957612ec9612e9e565b60010192915050565b8181038181111561279057612790612e9e565b5f60208284031215612ef5575f5ffd5b5051919050565b8082018082111561279057612790612e9e565b634e487b7160e01b5f52604160045260245ffd5b5f600160ff1b8201612f3757612f37612e9e565b505f0390565b634e487b7160e01b5f52603260045260245ffd5b60ff8181168382160290811690818114612f6d57612f6d612e9e565b5092915050565b61ffff818116838216019081111561279057612790612e9e565b5f60ff821660ff8103612ec957612ec9612e9e565b604051601f8201601f191681016001600160401b0381118282101715612fcb57612fcb612f0f565b604052919050565b5f6001600160401b03821115612feb57612feb612f0f565b5060051b60200190565b5f82601f830112613004575f5ffd5b815161301761301282612fd3565b612fa3565b8082825260208201915060208360051b860101925085831115613038575f5ffd5b602085015b8381101561305e57805161305081612bf4565b83526020928301920161303d565b5095945050505050565b5f5f60408385031215613079575f5ffd5b82516001600160401b0381111561308e575f5ffd5b61309a85828601612ff5565b602085015190935090506001600160401b038111156130b7575f5ffd5b8301601f810185136130c7575f5ffd5b80516130d561301282612fd3565b8082825260208201915060208360051b8501019250878311156130f6575f5ffd5b6020840193505b828410156131185783518252602093840193909101906130fd565b809450505050509250929050565b6001815b60018411156131615780850481111561314557613145612e9e565b600184161561315357908102905b60019390931c92800261312a565b935093915050565b5f8261317757506001612790565b8161318357505f612790565b816001811461319957600281146131a3576131bf565b6001915050612790565b60ff8411156131b4576131b4612e9e565b50506001821b612790565b5060208310610133831016604e8410600b84101617156131e2575081810a612790565b6131ee5f198484613126565b805f190482111561320157613201612e9e565b029392505050565b5f61278d60ff841683613169565b5f60208284031215613227575f5ffd5b81516129e081612e2e565b83815260208101839052606081016004831061325057613250612bc6565b826040830152949350505050565b5f5f6040838503121561326f575f5ffd5b82516001600160401b03811115613284575f5ffd5b61329085828601612ff5565b602085015190935090506001600160401b038111156132ad575f5ffd5b8301601f810185136132bd575f5ffd5b80516132cb61301282612fd3565b8082825260208201915060208360051b8501019250878311156132ec575f5ffd5b6020840193505b8284101561311857835161330681612e57565b8252602093840193909101906132f3565b604080825283519082018190525f9060208501906060840190835b8181101561336557835180516001600160a01b031684526020908101518185015290930192604090920191600101613332565b5050602093909301939093525092915050565b6020810160028310612bee57612bee612bc6565b5f6020828403121561339c575f5ffd5b81516001600160401b038111156133b1575f5ffd5b6133bd84828501612ff5565b949350505050565b60ff828116828216039081111561279057612790612e9e565b808202811582820484141761279057612790612e9e565b634e487b7160e01b5f52601260045260245ffd5b5f8261342357634e487b7160e01b5f52601260045260245ffd5b50049056fea2646970667358221220deace3d4e2b0d089d019c9b7b2b466242026142788b3a58353c7a6a4b64dfe0e64736f6c634300081c0033",
  "linkReferences": {},
  "deployedLinkReferences": {}
}