{
  "_format": "hh-sol-artifact-1",
  "contractName": "InternalStatesOrchestrator",
  "sourceName": "contracts/orchestrators/InternalStatesOrchestrator.sol",
  "abi": [
    {
      "inputs": [
        {
          "internalType": "address",
          "name": "initialOwner",
          "type": "address"
        },
        {
          "internalType": "address",
          "name": "config_",
          "type": "address"
        },
        {
          "internalType": "address",
          "name": "automationRegistry_",
          "type": "address"
        }
      ],
      "stateMutability": "nonpayable",
      "type": "constructor"
    },
    {
      "inputs": [],
      "name": "HandlesAlreadySavedForRequestID",
      "type": "error"
    },
    {
      "inputs": [],
      "name": "InsufficientAmount",
      "type": "error"
    },
    {
      "inputs": [],
      "name": "InvalidArguments",
      "type": "error"
    },
    {
      "inputs": [],
      "name": "InvalidKMSSignatures",
      "type": "error"
    },
    {
      "inputs": [],
      "name": "InvalidState",
      "type": "error"
    },
    {
      "inputs": [],
      "name": "NoHandleFoundForRequestID",
      "type": "error"
    },
    {
      "inputs": [],
      "name": "NotAuthorized",
      "type": "error"
    },
    {
      "inputs": [
        {
          "internalType": "address",
          "name": "owner",
          "type": "address"
        }
      ],
      "name": "OwnableInvalidOwner",
      "type": "error"
    },
    {
      "inputs": [
        {
          "internalType": "address",
          "name": "account",
          "type": "address"
        }
      ],
      "name": "OwnableUnauthorizedAccount",
      "type": "error"
    },
    {
      "inputs": [],
      "name": "ReentrancyGuardReentrantCall",
      "type": "error"
    },
    {
      "inputs": [],
      "name": "SystemNotIdle",
      "type": "error"
    },
    {
      "inputs": [],
      "name": "TooEarly",
      "type": "error"
    },
    {
      "inputs": [],
      "name": "UnsupportedHandleType",
      "type": "error"
    },
    {
      "inputs": [],
      "name": "ZeroAddress",
      "type": "error"
    },
    {
      "anonymous": false,
      "inputs": [
        {
          "indexed": true,
          "internalType": "address",
          "name": "newAutomationRegistry",
          "type": "address"
        }
      ],
      "name": "AutomationRegistryUpdated",
      "type": "event"
    },
    {
      "anonymous": false,
      "inputs": [
        {
          "indexed": true,
          "internalType": "uint256",
          "name": "requestID",
          "type": "uint256"
        }
      ],
      "name": "DecryptionFulfilled",
      "type": "event"
    },
    {
      "anonymous": false,
      "inputs": [
        {
          "indexed": true,
          "internalType": "uint16",
          "name": "epochCounter",
          "type": "uint16"
        }
      ],
      "name": "InternalStateProcessed",
      "type": "event"
    },
    {
      "anonymous": false,
      "inputs": [
        {
          "indexed": true,
          "internalType": "address",
          "name": "previousOwner",
          "type": "address"
        },
        {
          "indexed": true,
          "internalType": "address",
          "name": "newOwner",
          "type": "address"
        }
      ],
      "name": "OwnershipTransferred",
      "type": "event"
    },
    {
      "inputs": [],
      "name": "BASIS_POINTS_FACTOR",
      "outputs": [
        {
          "internalType": "uint16",
          "name": "",
          "type": "uint16"
        }
      ],
      "stateMutability": "view",
      "type": "function"
    },
    {
      "inputs": [],
      "name": "automationRegistry",
      "outputs": [
        {
          "internalType": "address",
          "name": "",
          "type": "address"
        }
      ],
      "stateMutability": "view",
      "type": "function"
    },
    {
      "inputs": [],
      "name": "bufferAmount",
      "outputs": [
        {
          "internalType": "uint256",
          "name": "",
          "type": "uint256"
        }
      ],
      "stateMutability": "view",
      "type": "function"
    },
    {
      "inputs": [
        {
          "internalType": "uint256",
          "name": "requestID",
          "type": "uint256"
        },
        {
          "internalType": "uint256[]",
          "name": "decryptedValues",
          "type": "uint256[]"
        },
        {
          "internalType": "bytes[]",
          "name": "signatures",
          "type": "bytes[]"
        }
      ],
      "name": "callbackPreProcessDecrypt",
      "outputs": [],
      "stateMutability": "nonpayable",
      "type": "function"
    },
    {
      "inputs": [
        {
          "internalType": "bytes",
          "name": "",
          "type": "bytes"
        }
      ],
      "name": "checkUpkeep",
      "outputs": [
        {
          "internalType": "bool",
          "name": "upkeepNeeded",
          "type": "bool"
        },
        {
          "internalType": "bytes",
          "name": "performData",
          "type": "bytes"
        }
      ],
      "stateMutability": "view",
      "type": "function"
    },
    {
      "inputs": [],
      "name": "config",
      "outputs": [
        {
          "internalType": "contract IOrionConfig",
          "name": "",
          "type": "address"
        }
      ],
      "stateMutability": "view",
      "type": "function"
    },
    {
      "inputs": [],
      "name": "currentMinibatchIndex",
      "outputs": [
        {
          "internalType": "uint8",
          "name": "",
          "type": "uint8"
        }
      ],
      "stateMutability": "view",
      "type": "function"
    },
    {
      "inputs": [],
      "name": "currentPhase",
      "outputs": [
        {
          "internalType": "enum IInternalStateOrchestrator.InternalUpkeepPhase",
          "name": "",
          "type": "uint8"
        }
      ],
      "stateMutability": "view",
      "type": "function"
    },
    {
      "inputs": [],
      "name": "encryptedMinibatchSize",
      "outputs": [
        {
          "internalType": "uint8",
          "name": "",
          "type": "uint8"
        }
      ],
      "stateMutability": "view",
      "type": "function"
    },
    {
      "inputs": [
        {
          "internalType": "uint256",
          "name": "",
          "type": "uint256"
        }
      ],
      "name": "encryptedVaultsEpoch",
      "outputs": [
        {
          "internalType": "address",
          "name": "",
          "type": "address"
        }
      ],
      "stateMutability": "view",
      "type": "function"
    },
    {
      "inputs": [],
      "name": "epochCounter",
      "outputs": [
        {
          "internalType": "uint16",
          "name": "",
          "type": "uint16"
        }
      ],
      "stateMutability": "view",
      "type": "function"
    },
    {
      "inputs": [],
      "name": "epochDuration",
      "outputs": [
        {
          "internalType": "uint32",
          "name": "",
          "type": "uint32"
        }
      ],
      "stateMutability": "view",
      "type": "function"
    },
    {
      "inputs": [],
      "name": "getBuyingOrders",
      "outputs": [
        {
          "internalType": "address[]",
          "name": "tokens",
          "type": "address[]"
        },
        {
          "internalType": "uint256[]",
          "name": "amounts",
          "type": "uint256[]"
        }
      ],
      "stateMutability": "view",
      "type": "function"
    },
    {
      "inputs": [],
      "name": "getSellingOrders",
      "outputs": [
        {
          "internalType": "address[]",
          "name": "tokens",
          "type": "address[]"
        },
        {
          "internalType": "uint256[]",
          "name": "amounts",
          "type": "uint256[]"
        }
      ],
      "stateMutability": "view",
      "type": "function"
    },
    {
      "inputs": [],
      "name": "intentFactor",
      "outputs": [
        {
          "internalType": "uint256",
          "name": "",
          "type": "uint256"
        }
      ],
      "stateMutability": "view",
      "type": "function"
    },
    {
      "inputs": [],
      "name": "liquidityOrchestrator",
      "outputs": [
        {
          "internalType": "contract ILiquidityOrchestrator",
          "name": "",
          "type": "address"
        }
      ],
      "stateMutability": "view",
      "type": "function"
    },
    {
      "inputs": [],
      "name": "owner",
      "outputs": [
        {
          "internalType": "address",
          "name": "",
          "type": "address"
        }
      ],
      "stateMutability": "view",
      "type": "function"
    },
    {
      "inputs": [],
      "name": "pendingProtocolFees",
      "outputs": [
        {
          "internalType": "uint256",
          "name": "",
          "type": "uint256"
        }
      ],
      "stateMutability": "view",
      "type": "function"
    },
    {
      "inputs": [
        {
          "internalType": "bytes",
          "name": "performData",
          "type": "bytes"
        }
      ],
      "name": "performUpkeep",
      "outputs": [],
      "stateMutability": "nonpayable",
      "type": "function"
    },
    {
      "inputs": [],
      "name": "priceAdapterPrecision",
      "outputs": [
        {
          "internalType": "uint256",
          "name": "",
          "type": "uint256"
        }
      ],
      "stateMutability": "view",
      "type": "function"
    },
    {
      "inputs": [],
      "name": "registry",
      "outputs": [
        {
          "internalType": "contract IPriceAdapterRegistry",
          "name": "",
          "type": "address"
        }
      ],
      "stateMutability": "view",
      "type": "function"
    },
    {
      "inputs": [],
      "name": "renounceOwnership",
      "outputs": [],
      "stateMutability": "nonpayable",
      "type": "function"
    },
    {
      "inputs": [],
      "name": "rsFeeCoefficient",
      "outputs": [
        {
          "internalType": "uint16",
          "name": "",
          "type": "uint16"
        }
      ],
      "stateMutability": "view",
      "type": "function"
    },
    {
      "inputs": [
        {
          "internalType": "uint256",
          "name": "amount",
          "type": "uint256"
        }
      ],
      "name": "subtractPendingProtocolFees",
      "outputs": [],
      "stateMutability": "nonpayable",
      "type": "function"
    },
    {
      "inputs": [
        {
          "internalType": "address",
          "name": "newOwner",
          "type": "address"
        }
      ],
      "name": "transferOwnership",
      "outputs": [],
      "stateMutability": "nonpayable",
      "type": "function"
    },
    {
      "inputs": [],
      "name": "transparentMinibatchSize",
      "outputs": [
        {
          "internalType": "uint8",
          "name": "",
          "type": "uint8"
        }
      ],
      "stateMutability": "view",
      "type": "function"
    },
    {
      "inputs": [
        {
          "internalType": "uint256",
          "name": "",
          "type": "uint256"
        }
      ],
      "name": "transparentVaultsEpoch",
      "outputs": [
        {
          "internalType": "address",
          "name": "",
          "type": "address"
        }
      ],
      "stateMutability": "view",
      "type": "function"
    },
    {
      "inputs": [],
      "name": "underlyingAsset",
      "outputs": [
        {
          "internalType": "address",
          "name": "",
          "type": "address"
        }
      ],
      "stateMutability": "view",
      "type": "function"
    },
    {
      "inputs": [],
      "name": "underlyingDecimals",
      "outputs": [
        {
          "internalType": "uint8",
          "name": "",
          "type": "uint8"
        }
      ],
      "stateMutability": "view",
      "type": "function"
    },
    {
      "inputs": [
        {
          "internalType": "address",
          "name": "newAutomationRegistry",
          "type": "address"
        }
      ],
      "name": "updateAutomationRegistry",
      "outputs": [],
      "stateMutability": "nonpayable",
      "type": "function"
    },
    {
      "inputs": [
        {
          "internalType": "uint32",
          "name": "newEpochDuration",
          "type": "uint32"
        }
      ],
      "name": "updateEpochDuration",
      "outputs": [],
      "stateMutability": "nonpayable",
      "type": "function"
    },
    {
      "inputs": [
        {
          "internalType": "uint8",
          "name": "_transparentMinibatchSize",
          "type": "uint8"
        },
        {
          "internalType": "uint8",
          "name": "_encryptedMinibatchSize",
          "type": "uint8"
        }
      ],
      "name": "updateMinibatchSizes",
      "outputs": [],
      "stateMutability": "nonpayable",
      "type": "function"
    },
    {
      "inputs": [
        {
          "internalType": "uint16",
          "name": "_vFeeCoefficient",
          "type": "uint16"
        },
        {
          "internalType": "uint16",
          "name": "_rsFeeCoefficient",
          "type": "uint16"
        }
      ],
      "name": "updateProtocolFees",
      "outputs": [],
      "stateMutability": "nonpayable",
      "type": "function"
    },
    {
      "inputs": [],
      "name": "vFeeCoefficient",
      "outputs": [
        {
          "internalType": "uint16",
          "name": "",
          "type": "uint16"
        }
      ],
      "stateMutability": "view",
      "type": "function"
    }
  ],
  "bytecode": "0x608060405234801561000f575f5ffd5b50604051614ab1380380614ab183398101604081905261002e916107cb565b826100d26100cd604080516080810182525f80825260208201819052918101829052606081019190915250604080516080810182527350157cffd6bbfa2dece204a89ec419c23ef5755d815273cd3ab3bd6bcc0c0bf3e27912a92043e817b1cf696020820152731364cbbf2cdf5032c47d8226a6f6fbd2afcdacac9181019190915273901f8942346f7ab3a01f6d7613119bca447bb030606082015290565b610526565b6100ef73a02cda4ca3a71d7c46997716f4283aa851c288126105df565b6001600160a01b03811661011c57604051631e4fbdf760e01b81525f600482015260240160405180910390fd5b6101258161061c565b50600180556001600160a01b0382166101515760405163d92e233d60e01b815260040160405180910390fd5b6001600160a01b0381166101785760405163d92e233d60e01b815260040160405180910390fd5b600380546001600160a01b0319166001600160a01b0384169081179091556040805163015df99360e01b8152905163015df993916004808201926020929091908290030181865afa1580156101cf573d5f5f3e3d5ffd5b505050506040513d601f19601f820116820180604052508101906101f39190610815565b600580546001600160a01b0319166001600160a01b039283161790556003546040805163d1717c7d60e01b81529051919092169163d1717c7d9160048083019260209291908290030181865afa15801561024f573d5f5f3e3d5ffd5b505050506040513d601f19601f820116820180604052508101906102739190610837565b61027e90600a61094e565b60075560035460408051631c56369f60e21b815290516001600160a01b0390921691637158da7c916004808201926020929091908290030181865afa1580156102c9573d5f5f3e3d5ffd5b505050506040513d601f19601f820116820180604052508101906102ed9190610815565b600880546001600160a01b0319166001600160a01b03928316908117909155600354604051633c2e3e7b60e11b815260048101929092529091169063785c7cf690602401602060405180830381865afa15801561034c573d5f5f3e3d5ffd5b505050506040513d601f19601f820116820180604052508101906103709190610837565b600860146101000a81548160ff021916908360ff16021790555060035f9054906101000a90046001600160a01b03166001600160a01b031663567ba7136040518163ffffffff1660e01b8152600401602060405180830381865afa1580156103da573d5f5f3e3d5ffd5b505050506040513d601f19601f820116820180604052508101906103fe9190610837565b61040990600a61094e565b6006556017805463ffff000019166301010000179055600280546001600160a01b0319166001600160a01b038381169190911790915560035460408051631d06d6c760e11b815290519190921691633a0dad8e9160048281019260209291908290030181865afa15801561047f573d5f5f3e3d5ffd5b505050506040513d601f19601f820116820180604052508101906104a39190610815565b600480546001600160a01b03929092166001600160a01b03199092169190911790556015805463ffffffff1916620151801790556104e04261066b565b6016556017805465ffff0000ffff191690556104fb5f610686565b60188190556105099061069b565b50506008805463ffffffff60a81b1916905550505f601b556109b6565b80515f516020614a715f395f51905f5280546001600160a01b03199081166001600160a01b039384161790915560208301515f516020614a915f395f51905f528054831691841691909117905560408301517fed8d60e34876f751cc8b014c560745351147d9de11b9347c854e881b128ea6028054831691841691909117905560608301517fed8d60e34876f751cc8b014c560745351147d9de11b9347c854e881b128ea6038054909216921691909117905550565b50565b7f5ea69329017273582817d320489fbd94f775580e90c092699ca6f3d12fdf7d0080546001600160a01b0319166001600160a01b03831617905550565b5f80546001600160a01b038381166001600160a01b0319831681178455604051919092169283917f8be0079c531659141344cd1fd0a4f28419497f9722a3daafe3b4186f6b6457e09190a35050565b6015545f906106809063ffffffff168361095c565b92915050565b5f6106806001600160801b03831660066106aa565b5f6106a68230610741565b5090565b5f516020614a915f395f51905f5254604051639cd07acb60e01b81525f915f516020614a715f395f51905f52916001600160a01b0390911690639cd07acb906106f9908790879060040161096f565b6020604051808303815f875af1158015610715573d5f5f3e3d5ffd5b505050506040513d601f19601f82011682018060405250810190610739919061099f565b949350505050565b5f5f516020614a715f395f51905f528054604051635ca4b5b160e11b8152600481018690526001600160a01b03858116602483015292935091169063b9496b62906044015f604051808303815f87803b15801561079c575f5ffd5b505af11580156107ae573d5f5f3e3d5ffd5b50505050505050565b6001600160a01b03811681146105dc575f5ffd5b5f5f5f606084860312156107dd575f5ffd5b83516107e8816107b7565b60208501519093506107f9816107b7565b604085015190925061080a816107b7565b809150509250925092565b5f60208284031215610825575f5ffd5b8151610830816107b7565b9392505050565b5f60208284031215610847575f5ffd5b815160ff81168114610830575f5ffd5b634e487b7160e01b5f52601160045260245ffd5b6001815b60018411156108a65780850481111561088a5761088a610857565b600184161561089857908102905b60019390931c92800261086f565b935093915050565b5f826108bc57506001610680565b816108c857505f610680565b81600181146108de57600281146108e857610904565b6001915050610680565b60ff8411156108f9576108f9610857565b50506001821b610680565b5060208310610133831016604e8410600b8410161715610927575081810a610680565b6109335f19848461086b565b805f190482111561094657610946610857565b029392505050565b5f61083060ff8416836108ae565b8082018082111561068057610680610857565b828152604081016054831061099257634e487b7160e01b5f52602160045260245ffd5b8260208301529392505050565b5f602082840312156109af575f5ffd5b5051919050565b6140ae806109c35f395ff3fe608060405234801561000f575f5ffd5b5060043610610193575f3560e01c8062bb07bb14610197578063055ad42e146101ac5780630844697d146101d657806308af604d146101fe57806314b19c5a1461022357806314b5d07f1461023157806325a760c214610244578063289a2f76146102585780632b0088b41461027857806336021ef41461028f5780633a0dad8e146102a35780634585e33b146102b65780634ff0876a146102c95780635488cd62146102ee57806358fac65b146103025780635dc228a014610315578063666f4a7b146103285780636e04ff0d1461033b578063706044451461035c578063715018a61461036f5780637158da7c1461037757806379502c551461038a5780637b1039991461039d5780637cdabf0a146103b0578063800f9fad146103c35780638da5cb5b146103cc5780638f5c9465146103d4578063a08b82d7146103dd578063b8b2af7c146103f3578063c18e2a5c14610408578063c2cb5d8814610411578063ca1f32f114610419578063eeb393c914610422578063f2fde38b14610435575b5f5ffd5b6101aa6101a53660046135b9565b610448565b005b6017546101c090600160201b900460ff1681565b6040516101cd9190613604565b60405180910390f35b6008546101eb90600160b81b900461ffff1681565b60405161ffff90911681526020016101cd565b6017546102119062010000900460ff1681565b60405160ff90911681526020016101cd565b6017546101eb9061ffff1681565b6101aa61023f366004613632565b610542565b60085461021190600160a01b900460ff1681565b61026b61026636600461364d565b61064b565b6040516101cd9190613664565b61028160075481565b6040519081526020016101cd565b601754610211906301000000900460ff1681565b60045461026b906001600160a01b031681565b6101aa6102c4366004613678565b610673565b6015546102d99063ffffffff1681565b60405163ffffffff90911681526020016101cd565b60175461021190600160281b900460ff1681565b61026b61031036600461364d565b6107d1565b60025461026b906001600160a01b031681565b6101aa610336366004613724565b6107e0565b61034e610349366004613678565b61080e565b6040516101cd9291906137c9565b6101aa61036a36600461364d565b610b62565b6101aa610bc9565b60085461026b906001600160a01b031681565b60035461026b906001600160a01b031681565b60055461026b906001600160a01b031681565b6101aa6103be3660046137f9565b610bdc565b61028160095481565b61026b610ce3565b6101eb61271081565b6103e5610cf1565b6040516101cd92919061382a565b6008546101eb90600160a81b900461ffff1681565b610281601b5481565b6103e5610e89565b61028160065481565b6101aa6104303660046138c4565b61101a565b6101aa610443366004613632565b6110f5565b61045061113b565b60ff82161580610461575060ff8116155b1561047f576040516317dbc4cb60e21b815260040160405180910390fd5b60035f9054906101000a90046001600160a01b03166001600160a01b031663edcf9c1f6040518163ffffffff1660e01b8152600401602060405180830381865afa1580156104cf573d5f5f3e3d5ffd5b505050506040513d601f19601f820116820180604052508101906104f391906138df565b610510576040516312aecd8160e01b815260040160405180910390fd5b6017805463ffff000019166201000060ff9485160263ff00000019161763010000009290931691909102919091179055565b61054a61113b565b6001600160a01b0381166105715760405163d92e233d60e01b815260040160405180910390fd5b60035f9054906101000a90046001600160a01b03166001600160a01b031663edcf9c1f6040518163ffffffff1660e01b8152600401602060405180830381865afa1580156105c1573d5f5f3e3d5ffd5b505050506040513d601f19601f820116820180604052508101906105e591906138df565b610602576040516312aecd8160e01b815260040160405180910390fd5b600280546001600160a01b0319166001600160a01b0383169081179091556040517f6cc7ebdb6c8c53291c5ae16148cab9b049d23bf5bde5632900b40edff56fcb43905f90a250565b601a818154811061065a575f80fd5b5f918252602090912001546001600160a01b0316905081565b6002546001600160a01b0316331461069e5760405163ea8e4eb560e01b815260040160405180910390fd5b6106a661116d565b60048110156106c8576040516317dbc4cb60e21b815260040160405180910390fd5b5f806106d6838501856138fe565b90925090506341659aab60e01b6001600160e01b0319831601610700576106fb611197565b6107c2565b636ce38ed360e11b6001600160e01b0319831601610721576106fb81611432565b635954faa160e01b6001600160e01b0319831601610742576106fb81611ab9565b6292a80f60e51b6001600160e01b0319831601610761576106fb6120f2565b6265e66b60e01b6001600160e01b0319831601610781576106fb81612416565b63f4d3cc0960e01b6001600160e01b03198316016107a2576106fb81612835565b63c4b3cef760e01b6001600160e01b03198316016107c2576107c261291e565b50506107cd60018055565b5050565b6019818154811061065a575f80fd5b6107f3856107ee838561398c565b612aea565b50506017805461ffff60201b1916600360201b179055505050565b5f606060035f9054906101000a90046001600160a01b03166001600160a01b031663edcf9c1f6040518163ffffffff1660e01b8152600401602060405180830381865afa158015610861573d5f5f3e3d5ffd5b505050506040513d601f19601f8201168201806040525081019061088591906138df565b8015610892575060165442115b156108e457600191507fbe9a655586dceb82dfa0af992b5d8ae7fa45053cb7fd6f141f541da7572978c75f6040516020016108ce929190613a5c565b6040516020818303038152906040529050610b5b565b6001601754600160201b900460ff166006811115610904576109046135f0565b0361094f57600191507f2638e25a856cbfe28e0ae1857cb597cc2ceb873ce579b7d93c2258e45a754481601760059054906101000a900460ff166040516020016108ce929190613a5c565b6002601754600160201b900460ff16600681111561096f5761096f6135f0565b036109ba57600191507fa6ab055f7fc0612ad6e844f7e1dd3a6df793560cd68d707affa0dd01c39ec8f1601760059054906101000a900460ff166040516020016108ce929190613a5c565b6003601754600160201b900460ff1660068111156109da576109da6135f0565b03610a1657600191507fedaafe206508e00f40674bb87dda745bccfe8a3f3f6d6eaaf6db5f44021a1c135f6040516020016108ce929190613a5c565b6004601754600160201b900460ff166006811115610a3657610a366135f0565b03610a8157600191507fff9a199536c068c55c334e40ebfa355733f79152332d6586d615c5bb37fd5c17601760059054906101000a900460ff166040516020016108ce929190613a5c565b6005601754600160201b900460ff166006811115610aa157610aa16135f0565b03610aec57600191507f0b2c33f7f9ce5cba78feb12c50c7fc97cbcfb655f151982783c0f2faf7567b0b601760059054906101000a900460ff166040516020016108ce929190613a5c565b6006601754600160201b900460ff166006811115610b0c57610b0c6135f0565b03610b4857600191507f3b4c310984a9fe486c05a56b52659c09d4bf9f3ef9b799ad52ee29a7d805741e5f6040516020016108ce929190613a5c565b505060408051602081019091525f808252905b9250929050565b6004546001600160a01b03163314610b8d5760405163ea8e4eb560e01b815260040160405180910390fd5b600954811115610bb057604051632ca2f52b60e11b815260040160405180910390fd5b8060095f828254610bc19190613a8d565b909155505050565b610bd161113b565b610bda5f612b51565b565b610be461113b565b60648261ffff161180610bfc57506107d08161ffff16115b15610c1a576040516317dbc4cb60e21b815260040160405180910390fd5b60035f9054906101000a90046001600160a01b03166001600160a01b031663edcf9c1f6040518163ffffffff1660e01b8152600401602060405180830381865afa158015610c6a573d5f5f3e3d5ffd5b505050506040513d601f19601f82011682018060405250810190610c8e91906138df565b610cab576040516312aecd8160e01b815260040160405180910390fd5b6008805463ffffffff60a81b1916600160a81b61ffff9485160261ffff60b81b191617600160b81b9290931691909102919091179055565b5f546001600160a01b031690565b601380546040805160208084028201810190925282815260609384935f93830182828015610d4657602002820191905f5260205f20905b81546001600160a01b03168152600190910190602001808311610d28575b505083519394505061ffff83169150506001600160401b03811115610d6d57610d6d613926565b604051908082528060200260200182016040528015610d96578160200160208202803683370190505b5093508061ffff166001600160401b03811115610db557610db5613926565b604051908082528060200260200182016040528015610dde578160200160208202803683370190505b5092505f5b8161ffff168161ffff161015610e82575f838261ffff1681518110610e0a57610e0a613aa0565b6020026020010151905080868361ffff1681518110610e2b57610e2b613aa0565b6001600160a01b039283166020918202929092018101919091529082165f908152601290915260409020548551869061ffff8516908110610e6e57610e6e613aa0565b602090810291909101015250600101610de3565b5050509091565b601380546040805160208084028201810190925282815260609384935f93830182828015610ede57602002820191905f5260205f20905b81546001600160a01b03168152600190910190602001808311610ec0575b505083519394505061ffff83169150506001600160401b03811115610f0557610f05613926565b604051908082528060200260200182016040528015610f2e578160200160208202803683370190505b5093508061ffff166001600160401b03811115610f4d57610f4d613926565b604051908082528060200260200182016040528015610f76578160200160208202803683370190505b5092505f5b8161ffff168161ffff161015610e82575f838261ffff1681518110610fa257610fa2613aa0565b6020026020010151905080868361ffff1681518110610fc357610fc3613aa0565b6001600160a01b039283166020918202929092018101919091529082165f908152601190915260409020548551869061ffff851690811061100657611006613aa0565b602090810291909101015250600101610f7b565b61102261113b565b8063ffffffff165f03611048576040516317dbc4cb60e21b815260040160405180910390fd5b60035f9054906101000a90046001600160a01b03166001600160a01b031663edcf9c1f6040518163ffffffff1660e01b8152600401602060405180830381865afa158015611098573d5f5f3e3d5ffd5b505050506040513d601f19601f820116820180604052508101906110bc91906138df565b6110d9576040516312aecd8160e01b815260040160405180910390fd5b6015805463ffffffff191663ffffffff92909216919091179055565b6110fd61113b565b6001600160a01b03811661112f575f604051631e4fbdf760e01b81526004016111269190613664565b60405180910390fd5b61113881612b51565b50565b33611144610ce3565b6001600160a01b031614610bda573360405163118cdaa760e01b81526004016111269190613664565b60026001540361119057604051633ee5aeb560e01b815260040160405180910390fd5b6002600155565b60165442111580611219575060035f9054906101000a90046001600160a01b03166001600160a01b031663edcf9c1f6040518163ffffffff1660e01b8152600401602060405180830381865afa1580156111f3573d5f5f3e3d5ffd5b505050506040513d601f19601f8201168201806040525081019061121791906138df565b155b156112375760405163085de62560e01b815260040160405180910390fd5b61124042612ba0565b6016555f5b60135461ffff82161015611304575f600a6009018261ffff168154811061126e5761126e613aa0565b5f9182526020808320909101546001600160a01b03168252600a81526040808320839055600b8252808320839055600d8252808320839055600f8252808320839055601182528083208390556012825280832083905560148252808320805460ff19169055601854600c8352818420819055600e8352818420819055601090925290912055506112fd81613ab4565b9050611245565b5061131060135f6134e4565b600354604051631da09e4360e31b81526001600160a01b039091169063ed04f21890611340905f90600401613ad4565b5f60405180830381865afa15801561135a573d5f5f3e3d5ffd5b505050506040513d5f823e601f3d908101601f191682016040526113819190810190613b56565b8051611395916019916020909101906134ff565b50600354604051631da09e4360e31b81526001600160a01b039091169063ed04f218906113c790600190600401613ad4565b5f60405180830381865afa1580156113e1573d5f5f3e3d5ffd5b505050506040513d5f823e601f3d908101601f191682016040526114089190810190613b56565b805161141c91601a916020909101906134ff565b506017805460ff60201b1916600160201b179055565b6001601754600160201b900460ff166006811115611452576114526135f0565b146114705760405163baf3f0f760e01b815260040160405180910390fd5b6017805460059061148a90600160281b900460ff16613b87565b91906101000a81548160ff021916908360ff1602179055505f601760029054906101000a900460ff16826114be9190613b9c565b60175460ff91821692505f916114db916201000090041683613bbf565b60195490915061ffff821611806114f7575060195461ffff8216145b1561151557506019546017805461ffff60201b1916600160211b1790555b815b8161ffff168161ffff161015611ab3575f60198261ffff168154811061153f5761153f613aa0565b905f5260205f20015f9054906101000a90046001600160a01b031690505f5f826001600160a01b031663d3d034586040518163ffffffff1660e01b81526004015f60405180830381865afa158015611599573d5f5f3e3d5ffd5b505050506040513d5f823e601f3d908101601f191682016040526115c09190810190613bd9565b90925090505f805b83518161ffff16101561181f575f848261ffff16815181106115ec576115ec613aa0565b602002602001015190505f848361ffff168151811061160d5761160d613aa0565b6020026020010151905080600a6001015f846001600160a01b03166001600160a01b031681526020019081526020015f205f82825461164c9190613c97565b90915550506001600160a01b0382165f9081526014602052604090205460ff16611743576008546001600160a01b03908116908316036116bb5760085461169e90600160a01b900460ff16600a613d8d565b6001600160a01b0383165f908152600a6020526040902055611743565b6005546040516341976e0960e01b81526001600160a01b03909116906341976e09906116eb908590600401613664565b602060405180830381865afa158015611706573d5f5f3e3d5ffd5b505050506040513d601f19601f8201168201806040525081019061172a9190613d9b565b6001600160a01b0383165f908152600a60205260409020555b6001600160a01b0382165f908152600a60205260408120546006549091906117f3906117729084908690612bbb565b600354604051633c2e3e7b60e11b81526001600160a01b039091169063785c7cf6906117a2908990600401613664565b602060405180830381865afa1580156117bd573d5f5f3e3d5ffd5b505050506040513d601f19601f820116820180604052508101906117e19190613db2565b600854600160a01b900460ff16612c6c565b90506117ff8187613c97565b955061180a84612cd6565b505050508061181890613ab4565b90506115c8565b506008545f9061183d90600160a81b900461ffff1683612710612bbb565b60155490915061185e90829063ffffffff908116906301e1338090612bbb16565b90508060095f8282546118719190613c97565b9091555061188190508183613a8d565b60405163728d42fb60e11b8152600481018290529092505f906001600160a01b0387169063e51a85f690602401602060405180830381865afa1580156118c9573d5f5f3e3d5ffd5b505050506040513d601f19601f820116820180604052508101906118ed9190613d9b565b90506118f98184613a8d565b6008549093505f9061191990600160b81b900461ffff1683612710612bbb565b90508060095f82825461192c9190613c97565b9091555061193c90508183613a8d565b91505f876001600160a01b031663a68a5267896001600160a01b0316630a605c6d6040518163ffffffff1660e01b8152600401602060405180830381865afa15801561198a573d5f5f3e3d5ffd5b505050506040513d601f19601f820116820180604052508101906119ae9190613d9b565b875f6040518463ffffffff1660e01b81526004016119ce93929190613dcd565b602060405180830381865afa1580156119e9573d5f5f3e3d5ffd5b505050506040513d601f19601f82011682018060405250810190611a0d9190613d9b565b905080886001600160a01b031663f64c6f326040518163ffffffff1660e01b8152600401602060405180830381865afa158015611a4c573d5f5f3e3d5ffd5b505050506040513d601f19601f82011682018060405250810190611a709190613d9b565b611a7a9190613a8d565b611a849086613c97565b6001600160a01b039098165f908152600d60205260409020979097555050600190950194506115179350505050565b50505050565b6002601754600160201b900460ff166006811115611ad957611ad96135f0565b14611af75760405163baf3f0f760e01b815260040160405180910390fd5b60178054600590611b1190600160281b900460ff16613b87565b91906101000a81548160ff021916908360ff1602179055505f601760039054906101000a900460ff1682611b459190613b9c565b60175460ff91821692505f91611b6391630100000090041683613bbf565b601a5490915061ffff82161180611b7f5750601a5461ffff8216145b15611b895750601a545b815b8161ffff168161ffff161015611f31575f601a8261ffff1681548110611bb357611bb3613aa0565b5f918252602091829020015460408051631b9d6fc560e31b815290516001600160a01b039092169350839263dceb7e28926004808401938290030181865afa158015611c01573d5f5f3e3d5ffd5b505050506040513d601f19601f82011682018060405250810190611c2591906138df565b611c2f5750611f29565b5f5f826001600160a01b031663d3d034586040518163ffffffff1660e01b81526004015f60405180830381865afa158015611c6c573d5f5f3e3d5ffd5b505050506040513d5f823e601f3d908101601f19168201604052611c939190810190613bd9565b60185491935091505f5b83518161ffff161015611f09575f848261ffff1681518110611cc157611cc1613aa0565b602002602001015190505f848361ffff1681518110611ce257611ce2613aa0565b60200260200101519050611d1c600a6002015f846001600160a01b03166001600160a01b031681526020019081526020015f205482612d5b565b6001600160a01b0383165f908152600c602090815260408083209390935560149052205460ff16611e1a576008546001600160a01b0390811690831603611d9257600854611d7590600160a01b900460ff16600a613d8d565b6001600160a01b0383165f908152600a6020526040902055611e1a565b6005546040516341976e0960e01b81526001600160a01b03909116906341976e0990611dc2908590600401613664565b602060405180830381865afa158015611ddd573d5f5f3e3d5ffd5b505050506040513d601f19601f82011682018060405250810190611e019190613d9b565b6001600160a01b0383165f908152600a60205260409020555b6001600160a01b0382165f908152600a602052604081205490611e50611e48611e4284612d89565b85612d9e565b600654612dcc565b600354604051633c2e3e7b60e11b81529192505f91611edc9184916001600160a01b039091169063785c7cf690611e8b908a90600401613664565b602060405180830381865afa158015611ea6573d5f5f3e3d5ffd5b505050506040513d601f19601f82011682018060405250810190611eca9190613db2565b600854600160a01b900460ff16612df1565b9050611ee88782612d5b565b9650611ef385612cd6565b505050505080611f0290613ab4565b9050611c9d565b506001600160a01b039093165f908152600e602052604090209290925550505b600101611b8b565b50601a5461ffff80821690831603611ab3578161ffff165f03611f67576017805461ffff60201b1916600360201b179055611ab3565b6013545f611f758284613bbf565b61ffff166001600160401b03811115611f9057611f90613926565b604051908082528060200260200182016040528015611fb9578160200160208202803683370190505b5090505f5b8361ffff168161ffff161015612043575f601a8261ffff1681548110611fe657611fe6613aa0565b5f9182526020808320909101546001600160a01b0316808352600e90915260409091205490915061201681612e52565b5080848461ffff168151811061202e5761202e613aa0565b60209081029190910101525050600101611fbe565b505f5b8261ffff168161ffff1610156120d7575f600a6009018261ffff168154811061207157612071613aa0565b5f9182526020808320909101546001600160a01b0316808352600c9091526040909120549091506120a181612e52565b5080846120ae8589613bbf565b61ffff16815181106120c2576120c2613aa0565b60209081029190910101525050600101612046565b506120e98163666f4a7b60e01b612e61565b50505050505050565b6003601754600160201b900460ff166006811115612112576121126135f0565b146121305760405163baf3f0f760e01b815260040160405180910390fd5b6017805460ff60201b1916600160221b1790555f805b60195461ffff821610156121b1575f60198261ffff168154811061216c5761216c613aa0565b5f9182526020808320909101546001600160a01b0316808352600d90915260409091205490915061219d9084613c97565b925050806121aa90613ab4565b9050612146565b505f5b601a5461ffff8216101561221f575f601a8261ffff16815481106121da576121da613aa0565b5f9182526020808320909101546001600160a01b0316808352600d90915260409091205490915061220b9084613c97565b9250508061221890613ab4565b90506121b4565b50600480546040805163dab26e3b60e01b815290515f93612296936001600160a01b03169263dab26e3b92818301926020928290030181865afa158015612268573d5f5f3e3d5ffd5b505050506040513d601f19601f8201168201806040525081019061228c9190613d9b565b8390612710612bbb565b905080601b5411156122a6575050565b5f601b54826122b59190613a8d565b90505f5b60195461ffff82161015612358575f60198261ffff16815481106122df576122df613aa0565b5f9182526020808320909101546001600160a01b0316808352600d909152604082205490925090612311858389612bbb565b6001600160a01b0384165f908152600d602052604081208054929350839290919061233d908490613a8d565b925050819055505050508061235190613ab4565b90506122b9565b505f5b601a5461ffff821610156123fa575f601a8261ffff168154811061238157612381613aa0565b5f9182526020808320909101546001600160a01b0316808352600d9091526040822054909250906123b3858389612bbb565b6001600160a01b0384165f908152600d60205260408120805492935083929091906123df908490613a8d565b92505081905550505050806123f390613ab4565b905061235b565b5080601b5f82825461240c9190613c97565b9091555050505050565b6004601754600160201b900460ff166006811115612436576124366135f0565b146124545760405163baf3f0f760e01b815260040160405180910390fd5b6017805460059061246e90600160281b900460ff16613b87565b91906101000a81548160ff021916908360ff1602179055505f601760029054906101000a900460ff16826124a29190613b9c565b60175460ff91821692505f916124bf916201000090041683613bbf565b60195490915061ffff821611806124db575060195461ffff8216145b156124f957506019546017805461ffff60201b1916600560201b1790555b815b8161ffff168161ffff161015611ab3575f60198261ffff168154811061252357612523613aa0565b905f5260205f20015f9054906101000a90046001600160a01b031690505f5f826001600160a01b031663b6eba6536040518163ffffffff1660e01b81526004015f60405180830381865afa15801561257d573d5f5f3e3d5ffd5b505050506040513d5f823e601f3d908101601f191682016040526125a49190810190613df9565b6001600160a01b0385165f908152600d60205260408120549294509092505b83518161ffff161015612825575f848261ffff16815181106125e7576125e7613aa0565b602002602001015190505f848361ffff168151811061260857612608613aa0565b6020908102919091018101516001600160a01b0384165f908152601490925260409091205490915060ff1661270a576008546001600160a01b03908116908316036126825760085461266590600160a01b900460ff16600a613d8d565b6001600160a01b0383165f908152600a602052604090205561270a565b6005546040516341976e0960e01b81526001600160a01b03909116906341976e09906126b2908590600401613664565b602060405180830381865afa1580156126cd573d5f5f3e3d5ffd5b505050506040513d601f19601f820116820180604052508101906126f19190613d9b565b6001600160a01b0383165f908152600a60205260409020555b6001600160a01b0382165f908152600a60205260408120546006546007549192916127d59161275291859061274b908b9063ffffffff808b169190612bbb16565b9190612bbb565b600854600354604051633c2e3e7b60e11b8152600160a01b90920460ff16916001600160a01b039091169063785c7cf690612791908a90600401613664565b602060405180830381865afa1580156127ac573d5f5f3e3d5ffd5b505050506040513d601f19601f820116820180604052508101906127d09190613db2565b612c6c565b6001600160a01b0385165f908152600f6020526040812080549293508392909190612801908490613c97565b90915550612810905084612cd6565b505050508061281e90613ab4565b90506125c3565b50505050508060010190506124fb565b6005601754600160201b900460ff166006811115612855576128556135f0565b146128735760405163baf3f0f760e01b815260040160405180910390fd5b6017805460059061288d90600160281b900460ff16613b87565b91906101000a81548160ff021916908360ff1602179055505f601760039054906101000a900460ff16826128c19190613b9c565b60175460ff91821692505f916128df91630100000090041683613bbf565b601a5490915061ffff821611806128fb5750601a5461ffff8216145b156129195750601a546017805461ffff60201b1916600360211b1790555b505050565b6006601754600160201b900460ff16600681111561293e5761293e6135f0565b1461295c5760405163baf3f0f760e01b815260040160405180910390fd5b5f600a6009018054806020026020016040519081016040528092919081815260200182805480156129b457602002820191905f5260205f20905b81546001600160a01b03168152600190910190602001808311612996575b505083519394505f925050505b8161ffff168161ffff161015612a7f575f838261ffff16815181106129e8576129e8613aa0565b6020908102919091018101516001600160a01b0381165f908152600b8352604080822054600f90945290205490925080821115612a4657612a298183613a8d565b6001600160a01b0384165f90815260116020526040902055612a71565b81811115612a7157612a588282613a8d565b6001600160a01b0384165f908152601260205260409020555b5050508060010190506129c1565b506017805460ff60201b19811682555f90612a9d9061ffff16613ab4565b82546101009290920a61ffff8181021990931691831602179091556017546040519116907f0bc12479581640d161e016cef21aa834cb6d6326bbc0d8445e58d56403adf2dc905f90a25050565b5f612af483612e6d565b90505f612b018284612f09565b905080612b215760405163cf6c44e960e01b815260040160405180910390fd5b60405184907f1af0453083661051f6e56e5c070792320652e612154bf9af8637bb1e7655b99d905f90a250505050565b5f80546001600160a01b038381166001600160a01b0319831681178455604051919092169283917f8be0079c531659141344cd1fd0a4f28419497f9722a3daafe3b4186f6b6457e09190a35050565b6015545f90612bb59063ffffffff1683613c97565b92915050565b5f5f5f612bc88686612ff0565b91509150815f03612bec57838181612be257612be2613eb2565b0492505050612c65565b818411612c0357612c03600385150260111861300c565b5f848688095f868103871696879004966002600389028118808a02820302808a02820302808a02820302808a02820302808a02820302808a02909103029181900381900460010185841190960395909502919093039390930492909217029150505b9392505050565b5f8260ff168260ff161115612ca157612c858383613ec6565b612c9090600a613d8d565b612c9a9085613edf565b9050612c65565b8260ff168260ff161015612cce57612cb98284613ec6565b612cc490600a613d8d565b612c9a9085613ef6565b509192915050565b6001600160a01b0381165f9081526014602052604090205460ff16611138576013805460018181019092557f66de8ffda797e3de9c05e8fc57b3bf0ec28a930d40b0d285d93c06501cf6a0900180546001600160a01b0384166001600160a01b031990911681179091555f908152601460205260409020805460ff1916909117905550565b5f82612d6d57612d6a5f612d89565b92505b81612d7e57612d7b5f612d89565b91505b612c6583835f61301d565b5f612bb5826001600160801b031660066130bd565b5f82612db057612dad5f612d89565b92505b81612dc157612dbe5f612d89565b91505b612c6583835f613144565b5f82612dde57612ddb5f612d89565b92505b612c65836001600160801b03841661319a565b5f8260ff168260ff161115612e2657612c9a84612e21612e118686613ec6565b612e1c90600a613d8d565b612d89565b612d9e565b8260ff168260ff161015612cce57612c9a84612e428486613ec6565b612e4d90600a613d8d565b612dcc565b5f612e5d8230613229565b5090565b5f612c6583835f613290565b60605f612e78613395565b5f84815260028201602052604081205491925003612ea95760405163d66ca67560e01b815260040160405180910390fd5b5f83815260028201602090815260409182902080548351818402810184019094528084529091830182828015612efc57602002820191905f5260205f20905b815481526020019060010190808311612ee8575b5050505050915050919050565b5f602481612f16856133b9565b90505f816001600160401b03811115612f3157612f31613926565b6040519080825280601f01601f191660200182016040528015612f5b576020820181803683370190505b509050818360208301375f612f6e613466565b6002810154604051632c027b1360e21b81529192506001600160a01b03169063b009ec4c90612fa5908a9086908b90600401613f4f565b6020604051808303815f875af1158015612fc1573d5f5f3e3d5ffd5b505050506040513d601f19601f82011682018060405250810190612fe591906138df565b979650505050505050565b5f805f1983850993909202808410938190039390930393915050565b634e487b715f52806020526024601cfd5b5f5f82156130305750600160f81b613033565b505f5b5f61303c613466565b600181015460405163022f65e760e31b81529192506001600160a01b03169063117b2f389061307390899089908790600401613fd9565b6020604051808303815f875af115801561308f573d5f5f3e3d5ffd5b505050506040513d601f19601f820116820180604052508101906130b39190613d9b565b9695505050505050565b5f5f6130c7613466565b6001810154604051639cd07acb60e01b81529192506001600160a01b031690639cd07acb906130fc9087908790600401613ff9565b6020604051808303815f875af1158015613118573d5f5f3e3d5ffd5b505050506040513d601f19601f8201168201806040525081019061313c9190613d9b565b949350505050565b5f5f82156131575750600160f81b61315a565b505f5b5f613163613466565b6001810154604051630afe14ad60e31b81529192506001600160a01b0316906357f0a5689061307390899089908790600401613fd9565b5f600160f81b816131a9613466565b6001810154604051635a53accb60e01b81529192506001600160a01b031690635a53accb906131e090889088908790600401613fd9565b6020604051808303815f875af11580156131fc573d5f5f3e3d5ffd5b505050506040513d601f19601f820116820180604052508101906132209190613d9b565b95945050505050565b5f613232613466565b8054604051635ca4b5b160e11b8152600481018690526001600160a01b03858116602483015292935091169063b9496b62906044015f604051808303815f87803b15801561327e575f5ffd5b505af11580156120e9573d5f5f3e3d5ffd5b5f5f61329a613395565b9050806001015491505f6132ac613466565b8054604051637d6e912360e11b81529192506001600160a01b03169063fadd2246906132dc90899060040161401d565b5f604051808303815f87803b1580156132f3575f5ffd5b505af1158015613305573d5f5f3e3d5ffd5b50508354604051633263b83b60e01b81526001600160a01b039091169250633263b83b9150869061333e9087908b908b9060040161402f565b5f604051808303818588803b158015613355575f5ffd5b505af1158015613367573d5f5f3e3d5ffd5b5050505050613376838761348a565b600182018054905f61338783614060565b919050555050509392505050565b7f5ea69329017273582817d320489fbd94f775580e90c092699ca6f3d12fdf7d0090565b80515f9081805b8281101561345a575f8582815181106133db576133db613aa0565b6020026020010151601e602081106133f5576133f5613aa0565b1a6053811115613407576134076135f0565b9050600981605381111561341d5761341d6135f0565b60ff16101561343857613431602084613c97565b9250613451565b60405163ce54a8d160e01b815260040160405180910390fd5b506001016133c0565b5061313c602082613c97565b7fed8d60e34876f751cc8b014c560745351147d9de11b9347c854e881b128ea60090565b5f613493613395565b5f848152600282016020526040902054909150156134c457604051633f06d22b60e01b815260040160405180910390fd5b5f83815260028201602090815260409091208351611ab39285019061355e565b5080545f8255905f5260205f20908101906111389190613597565b828054828255905f5260205f20908101928215613552579160200282015b8281111561355257825182546001600160a01b0319166001600160a01b0390911617825560209092019160019091019061351d565b50612e5d929150613597565b828054828255905f5260205f20908101928215613552579160200282015b8281111561355257825182559160200191906001019061357c565b5b80821115612e5d575f8155600101613598565b60ff81168114611138575f5ffd5b5f5f604083850312156135ca575f5ffd5b82356135d5816135ab565b915060208301356135e5816135ab565b809150509250929050565b634e487b7160e01b5f52602160045260245ffd5b6020810160078310613618576136186135f0565b91905290565b6001600160a01b0381168114611138575f5ffd5b5f60208284031215613642575f5ffd5b8135612c658161361e565b5f6020828403121561365d575f5ffd5b5035919050565b6001600160a01b0391909116815260200190565b5f5f60208385031215613689575f5ffd5b82356001600160401b0381111561369e575f5ffd5b8301601f810185136136ae575f5ffd5b80356001600160401b038111156136c3575f5ffd5b8560208284010111156136d4575f5ffd5b6020919091019590945092505050565b5f5f83601f8401126136f4575f5ffd5b5081356001600160401b0381111561370a575f5ffd5b6020830191508360208260051b8501011115610b5b575f5ffd5b5f5f5f5f5f60608688031215613738575f5ffd5b8535945060208601356001600160401b03811115613754575f5ffd5b613760888289016136e4565b90955093505060408601356001600160401b0381111561377e575f5ffd5b61378a888289016136e4565b969995985093965092949392505050565b5f81518084528060208401602086015e5f602082860101526020601f19601f83011685010191505092915050565b8215158152604060208201525f61313c604083018461379b565b803561ffff811681146137f4575f5ffd5b919050565b5f5f6040838503121561380a575f5ffd5b613813836137e3565b9150613821602084016137e3565b90509250929050565b604080825283519082018190525f9060208501906060840190835b8181101561386c5783516001600160a01b0316835260209384019390920191600101613845565b5050838103602080860191909152855180835291810192508501905f5b818110156138a7578251845260209384019390920191600101613889565b50919695505050505050565b63ffffffff81168114611138575f5ffd5b5f602082840312156138d4575f5ffd5b8135612c65816138b3565b5f602082840312156138ef575f5ffd5b81518015158114612c65575f5ffd5b5f5f6040838503121561390f575f5ffd5b82356001600160e01b0319811681146135d5575f5ffd5b634e487b7160e01b5f52604160045260245ffd5b604051601f8201601f191681016001600160401b038111828210171561396257613962613926565b604052919050565b5f6001600160401b0382111561398257613982613926565b5060051b60200190565b5f61399e6139998461396a565b61393a565b8381526020810190600585901b8401368111156139b9575f5ffd5b845b81811015613a515780356001600160401b038111156139d8575f5ffd5b860136601f8201126139e8575f5ffd5b80356001600160401b03811115613a0157613a01613926565b613a14601f8201601f191660200161393a565b818152366020838501011115613a28575f5ffd5b816020840160208301375f602083830101528087525050506020840193506020810190506139bb565b509095945050505050565b6001600160e01b031992909216825260ff16602082015260400190565b634e487b7160e01b5f52601160045260245ffd5b81810381811115612bb557612bb5613a79565b634e487b7160e01b5f52603260045260245ffd5b5f61ffff821661ffff8103613acb57613acb613a79565b60010192915050565b6020810160028310613618576136186135f0565b5f82601f830112613af7575f5ffd5b8151613b056139998261396a565b8082825260208201915060208360051b860101925085831115613b26575f5ffd5b602085015b83811015613b4c578051613b3e8161361e565b835260209283019201613b2b565b5095945050505050565b5f60208284031215613b66575f5ffd5b81516001600160401b03811115613b7b575f5ffd5b61313c84828501613ae8565b5f60ff821660ff8103613acb57613acb613a79565b60ff8181168382160290811690818114613bb857613bb8613a79565b5092915050565b61ffff8181168382160190811115612bb557612bb5613a79565b5f5f60408385031215613bea575f5ffd5b82516001600160401b03811115613bff575f5ffd5b613c0b85828601613ae8565b602085015190935090506001600160401b03811115613c28575f5ffd5b8301601f81018513613c38575f5ffd5b8051613c466139998261396a565b8082825260208201915060208360051b850101925087831115613c67575f5ffd5b6020840193505b82841015613c89578351825260209384019390910190613c6e565b809450505050509250929050565b80820180821115612bb557612bb5613a79565b6001815b6001841115613ce557808504811115613cc957613cc9613a79565b6001841615613cd757908102905b60019390931c928002613cae565b935093915050565b5f82613cfb57506001612bb5565b81613d0757505f612bb5565b8160018114613d1d5760028114613d2757613d43565b6001915050612bb5565b60ff841115613d3857613d38613a79565b50506001821b612bb5565b5060208310610133831016604e8410600b8410161715613d66575081810a612bb5565b613d725f198484613caa565b805f1904821115613d8557613d85613a79565b029392505050565b5f612c6560ff841683613ced565b5f60208284031215613dab575f5ffd5b5051919050565b5f60208284031215613dc2575f5ffd5b8151612c65816135ab565b838152602081018390526060810160048310613deb57613deb6135f0565b826040830152949350505050565b5f5f60408385031215613e0a575f5ffd5b82516001600160401b03811115613e1f575f5ffd5b613e2b85828601613ae8565b602085015190935090506001600160401b03811115613e48575f5ffd5b8301601f81018513613e58575f5ffd5b8051613e666139998261396a565b8082825260208201915060208360051b850101925087831115613e87575f5ffd5b6020840193505b82841015613c89578351613ea1816138b3565b825260209384019390910190613e8e565b634e487b7160e01b5f52601260045260245ffd5b60ff8281168282160390811115612bb557612bb5613a79565b8082028115828204841417612bb557612bb5613a79565b5f82613f1057634e487b7160e01b5f52601260045260245ffd5b500490565b5f8151808452602084019350602083015f5b82811015613f45578151865260209586019590910190600101613f27565b5093949350505050565b606081525f613f616060830186613f15565b8281036020840152613f73818661379b565b9050828103604084015280845180835260208301915060208160051b840101602087015f5b83811015613fca57601f19868403018552613fb483835161379b565b6020958601959093509190910190600101613f98565b50909998505050505050505050565b92835260208301919091526001600160f81b031916604082015260600190565b8281526040810160548310614010576140106135f0565b8260208301529392505050565b602081525f612c656020830184613f15565b838152606060208201525f6140476060830185613f15565b905063ffffffff60e01b83166040830152949350505050565b5f6001820161407157614071613a79565b506001019056fea2646970667358221220e654f247be5042dd11b00a7d397a1b2ba25f7c6df4abf64846b99efd24803ec164736f6c634300081c0033ed8d60e34876f751cc8b014c560745351147d9de11b9347c854e881b128ea600ed8d60e34876f751cc8b014c560745351147d9de11b9347c854e881b128ea601",
  "linkReferences": {},
  "deployedLinkReferences": {}
}