{
  "_format": "hh-sol-artifact-1",
  "contractName": "InternalStatesOrchestrator",
  "sourceName": "contracts/orchestrators/InternalStatesOrchestrator.sol",
  "abi": [
    {
      "inputs": [
        {
          "internalType": "address",
          "name": "initialOwner",
          "type": "address"
        },
        {
          "internalType": "address",
          "name": "config_",
          "type": "address"
        },
        {
          "internalType": "address",
          "name": "automationRegistry_",
          "type": "address"
        }
      ],
      "stateMutability": "nonpayable",
      "type": "constructor"
    },
    {
      "inputs": [
        {
          "internalType": "address",
          "name": "sender",
          "type": "address"
        },
        {
          "internalType": "uint256",
          "name": "balance",
          "type": "uint256"
        },
        {
          "internalType": "uint256",
          "name": "amount",
          "type": "uint256"
        }
      ],
      "name": "InsufficientFunds",
      "type": "error"
    },
    {
      "inputs": [],
      "name": "InvalidArguments",
      "type": "error"
    },
    {
      "inputs": [],
      "name": "InvalidState",
      "type": "error"
    },
    {
      "inputs": [],
      "name": "NotAuthorized",
      "type": "error"
    },
    {
      "inputs": [
        {
          "internalType": "address",
          "name": "owner",
          "type": "address"
        }
      ],
      "name": "OwnableInvalidOwner",
      "type": "error"
    },
    {
      "inputs": [
        {
          "internalType": "address",
          "name": "account",
          "type": "address"
        }
      ],
      "name": "OwnableUnauthorizedAccount",
      "type": "error"
    },
    {
      "inputs": [],
      "name": "ReentrancyGuardReentrantCall",
      "type": "error"
    },
    {
      "inputs": [],
      "name": "SystemNotIdle",
      "type": "error"
    },
    {
      "inputs": [],
      "name": "TooEarly",
      "type": "error"
    },
    {
      "inputs": [],
      "name": "ZeroAddress",
      "type": "error"
    },
    {
      "anonymous": false,
      "inputs": [
        {
          "indexed": true,
          "internalType": "address",
          "name": "newAutomationRegistry",
          "type": "address"
        }
      ],
      "name": "AutomationRegistryUpdated",
      "type": "event"
    },
    {
      "anonymous": false,
      "inputs": [
        {
          "indexed": false,
          "internalType": "uint16",
          "name": "epochCounter",
          "type": "uint16"
        }
      ],
      "name": "InternalStateProcessed",
      "type": "event"
    },
    {
      "anonymous": false,
      "inputs": [
        {
          "indexed": true,
          "internalType": "address",
          "name": "previousOwner",
          "type": "address"
        },
        {
          "indexed": true,
          "internalType": "address",
          "name": "newOwner",
          "type": "address"
        }
      ],
      "name": "OwnershipTransferred",
      "type": "event"
    },
    {
      "inputs": [],
      "name": "MAX_REVENUE_SHARE_FEE",
      "outputs": [
        {
          "internalType": "uint16",
          "name": "",
          "type": "uint16"
        }
      ],
      "stateMutability": "view",
      "type": "function"
    },
    {
      "inputs": [],
      "name": "MAX_VOLUME_FEE",
      "outputs": [
        {
          "internalType": "uint16",
          "name": "",
          "type": "uint16"
        }
      ],
      "stateMutability": "view",
      "type": "function"
    },
    {
      "inputs": [],
      "name": "PROTOCOL_FEE_FACTOR",
      "outputs": [
        {
          "internalType": "uint16",
          "name": "",
          "type": "uint16"
        }
      ],
      "stateMutability": "view",
      "type": "function"
    },
    {
      "inputs": [],
      "name": "YEAR_IN_SECONDS",
      "outputs": [
        {
          "internalType": "uint32",
          "name": "",
          "type": "uint32"
        }
      ],
      "stateMutability": "view",
      "type": "function"
    },
    {
      "inputs": [],
      "name": "automationRegistry",
      "outputs": [
        {
          "internalType": "address",
          "name": "",
          "type": "address"
        }
      ],
      "stateMutability": "view",
      "type": "function"
    },
    {
      "inputs": [],
      "name": "bufferAmount",
      "outputs": [
        {
          "internalType": "uint256",
          "name": "",
          "type": "uint256"
        }
      ],
      "stateMutability": "view",
      "type": "function"
    },
    {
      "inputs": [
        {
          "internalType": "bytes",
          "name": "",
          "type": "bytes"
        }
      ],
      "name": "checkUpkeep",
      "outputs": [
        {
          "internalType": "bool",
          "name": "upkeepNeeded",
          "type": "bool"
        },
        {
          "internalType": "bytes",
          "name": "performData",
          "type": "bytes"
        }
      ],
      "stateMutability": "view",
      "type": "function"
    },
    {
      "inputs": [],
      "name": "config",
      "outputs": [
        {
          "internalType": "contract IOrionConfig",
          "name": "",
          "type": "address"
        }
      ],
      "stateMutability": "view",
      "type": "function"
    },
    {
      "inputs": [],
      "name": "currentMinibatchIndex",
      "outputs": [
        {
          "internalType": "uint8",
          "name": "",
          "type": "uint8"
        }
      ],
      "stateMutability": "view",
      "type": "function"
    },
    {
      "inputs": [],
      "name": "currentPhase",
      "outputs": [
        {
          "internalType": "enum IInternalStateOrchestrator.InternalUpkeepPhase",
          "name": "",
          "type": "uint8"
        }
      ],
      "stateMutability": "view",
      "type": "function"
    },
    {
      "inputs": [],
      "name": "encryptedMinibatchSize",
      "outputs": [
        {
          "internalType": "uint8",
          "name": "",
          "type": "uint8"
        }
      ],
      "stateMutability": "view",
      "type": "function"
    },
    {
      "inputs": [
        {
          "internalType": "uint256",
          "name": "",
          "type": "uint256"
        }
      ],
      "name": "encryptedVaultsEpoch",
      "outputs": [
        {
          "internalType": "address",
          "name": "",
          "type": "address"
        }
      ],
      "stateMutability": "view",
      "type": "function"
    },
    {
      "inputs": [],
      "name": "epochCounter",
      "outputs": [
        {
          "internalType": "uint16",
          "name": "",
          "type": "uint16"
        }
      ],
      "stateMutability": "view",
      "type": "function"
    },
    {
      "inputs": [],
      "name": "epochDuration",
      "outputs": [
        {
          "internalType": "uint32",
          "name": "",
          "type": "uint32"
        }
      ],
      "stateMutability": "view",
      "type": "function"
    },
    {
      "inputs": [],
      "name": "getBuyingOrders",
      "outputs": [
        {
          "internalType": "address[]",
          "name": "tokens",
          "type": "address[]"
        },
        {
          "internalType": "uint256[]",
          "name": "amounts",
          "type": "uint256[]"
        }
      ],
      "stateMutability": "view",
      "type": "function"
    },
    {
      "inputs": [],
      "name": "getSellingOrders",
      "outputs": [
        {
          "internalType": "address[]",
          "name": "tokens",
          "type": "address[]"
        },
        {
          "internalType": "uint256[]",
          "name": "amounts",
          "type": "uint256[]"
        }
      ],
      "stateMutability": "view",
      "type": "function"
    },
    {
      "inputs": [],
      "name": "intentFactor",
      "outputs": [
        {
          "internalType": "uint256",
          "name": "",
          "type": "uint256"
        }
      ],
      "stateMutability": "view",
      "type": "function"
    },
    {
      "inputs": [],
      "name": "liquidityOrchestrator",
      "outputs": [
        {
          "internalType": "contract ILiquidityOrchestrator",
          "name": "",
          "type": "address"
        }
      ],
      "stateMutability": "view",
      "type": "function"
    },
    {
      "inputs": [],
      "name": "owner",
      "outputs": [
        {
          "internalType": "address",
          "name": "",
          "type": "address"
        }
      ],
      "stateMutability": "view",
      "type": "function"
    },
    {
      "inputs": [],
      "name": "pendingProtocolFees",
      "outputs": [
        {
          "internalType": "uint256",
          "name": "",
          "type": "uint256"
        }
      ],
      "stateMutability": "view",
      "type": "function"
    },
    {
      "inputs": [
        {
          "internalType": "bytes",
          "name": "performData",
          "type": "bytes"
        }
      ],
      "name": "performUpkeep",
      "outputs": [],
      "stateMutability": "nonpayable",
      "type": "function"
    },
    {
      "inputs": [],
      "name": "priceAdapterPrecision",
      "outputs": [
        {
          "internalType": "uint256",
          "name": "",
          "type": "uint256"
        }
      ],
      "stateMutability": "view",
      "type": "function"
    },
    {
      "inputs": [],
      "name": "registry",
      "outputs": [
        {
          "internalType": "contract IPriceAdapterRegistry",
          "name": "",
          "type": "address"
        }
      ],
      "stateMutability": "view",
      "type": "function"
    },
    {
      "inputs": [],
      "name": "renounceOwnership",
      "outputs": [],
      "stateMutability": "nonpayable",
      "type": "function"
    },
    {
      "inputs": [],
      "name": "rsFeeCoefficient",
      "outputs": [
        {
          "internalType": "uint16",
          "name": "",
          "type": "uint16"
        }
      ],
      "stateMutability": "view",
      "type": "function"
    },
    {
      "inputs": [
        {
          "internalType": "uint256",
          "name": "amount",
          "type": "uint256"
        }
      ],
      "name": "subtractPendingProtocolFees",
      "outputs": [],
      "stateMutability": "nonpayable",
      "type": "function"
    },
    {
      "inputs": [
        {
          "internalType": "address",
          "name": "newOwner",
          "type": "address"
        }
      ],
      "name": "transferOwnership",
      "outputs": [],
      "stateMutability": "nonpayable",
      "type": "function"
    },
    {
      "inputs": [],
      "name": "transparentMinibatchSize",
      "outputs": [
        {
          "internalType": "uint8",
          "name": "",
          "type": "uint8"
        }
      ],
      "stateMutability": "view",
      "type": "function"
    },
    {
      "inputs": [
        {
          "internalType": "uint256",
          "name": "",
          "type": "uint256"
        }
      ],
      "name": "transparentVaultsEpoch",
      "outputs": [
        {
          "internalType": "address",
          "name": "",
          "type": "address"
        }
      ],
      "stateMutability": "view",
      "type": "function"
    },
    {
      "inputs": [],
      "name": "underlyingAsset",
      "outputs": [
        {
          "internalType": "address",
          "name": "",
          "type": "address"
        }
      ],
      "stateMutability": "view",
      "type": "function"
    },
    {
      "inputs": [],
      "name": "underlyingDecimals",
      "outputs": [
        {
          "internalType": "uint8",
          "name": "",
          "type": "uint8"
        }
      ],
      "stateMutability": "view",
      "type": "function"
    },
    {
      "inputs": [
        {
          "internalType": "address",
          "name": "newAutomationRegistry",
          "type": "address"
        }
      ],
      "name": "updateAutomationRegistry",
      "outputs": [],
      "stateMutability": "nonpayable",
      "type": "function"
    },
    {
      "inputs": [
        {
          "internalType": "uint32",
          "name": "newEpochDuration",
          "type": "uint32"
        }
      ],
      "name": "updateEpochDuration",
      "outputs": [],
      "stateMutability": "nonpayable",
      "type": "function"
    },
    {
      "inputs": [
        {
          "internalType": "uint8",
          "name": "_transparentMinibatchSize",
          "type": "uint8"
        },
        {
          "internalType": "uint8",
          "name": "_encryptedMinibatchSize",
          "type": "uint8"
        }
      ],
      "name": "updateMinibatchSizes",
      "outputs": [],
      "stateMutability": "nonpayable",
      "type": "function"
    },
    {
      "inputs": [
        {
          "internalType": "uint16",
          "name": "_vFeeCoefficient",
          "type": "uint16"
        },
        {
          "internalType": "uint16",
          "name": "_rsFeeCoefficient",
          "type": "uint16"
        }
      ],
      "name": "updateProtocolFees",
      "outputs": [],
      "stateMutability": "nonpayable",
      "type": "function"
    },
    {
      "inputs": [],
      "name": "vFeeCoefficient",
      "outputs": [
        {
          "internalType": "uint16",
          "name": "",
          "type": "uint16"
        }
      ],
      "stateMutability": "view",
      "type": "function"
    }
  ],
  "bytecode": "0x608060405234801561000f575f5ffd5b50604051613fe4380380613fe483398101604081905261002e91610711565b826101836100cd604080516080810182525f80825260208201819052918101829052606081019190915250604080516080810182527350157cffd6bbfa2dece204a89ec419c23ef5755d815273cd3ab3bd6bcc0c0bf3e27912a92043e817b1cf696020820152731364cbbf2cdf5032c47d8226a6f6fbd2afcdacac9181019190915273901f8942346f7ab3a01f6d7613119bca447bb030606082015290565b80515f516020613fa45f395f51905f5280546001600160a01b03199081166001600160a01b039384161790915560208301515f516020613fc45f395f51905f528054831691841691909117905560408301517fed8d60e34876f751cc8b014c560745351147d9de11b9347c854e881b128ea6028054831691841691909117905560608301517fed8d60e34876f751cc8b014c560745351147d9de11b9347c854e881b128ea6038054909216921691909117905550565b7f5ea69329017273582817d320489fbd94f775580e90c092699ca6f3d12fdf7d0080546001600160a01b03191673a02cda4ca3a71d7c46997716f4283aa851c288121790556001600160a01b0381166101f557604051631e4fbdf760e01b81525f600482015260240160405180910390fd5b6101fe816105ef565b50600180556001600160a01b03821661022a5760405163d92e233d60e01b815260040160405180910390fd5b6001600160a01b0381166102515760405163d92e233d60e01b815260040160405180910390fd5b600380546001600160a01b0319166001600160a01b0384169081179091556040805163015df99360e01b8152905163015df993916004808201926020929091908290030181865afa1580156102a8573d5f5f3e3d5ffd5b505050506040513d601f19601f820116820180604052508101906102cc919061075b565b600580546001600160a01b0319166001600160a01b039283161790556003546040805163d1717c7d60e01b81529051919092169163d1717c7d9160048083019260209291908290030181865afa158015610328573d5f5f3e3d5ffd5b505050506040513d601f19601f8201168201806040525081019061034c919061077d565b61035790600a610894565b60075560035460408051631c56369f60e21b815290516001600160a01b0390921691637158da7c916004808201926020929091908290030181865afa1580156103a2573d5f5f3e3d5ffd5b505050506040513d601f19601f820116820180604052508101906103c6919061075b565b600880546001600160a01b0319166001600160a01b039290921691821790556040805163313ce56760e01b8152905163313ce567916004808201926020929091908290030181865afa15801561041e573d5f5f3e3d5ffd5b505050506040513d601f19601f82011682018060405250810190610442919061077d565b600860146101000a81548160ff021916908360ff16021790555060035f9054906101000a90046001600160a01b03166001600160a01b031663567ba7136040518163ffffffff1660e01b8152600401602060405180830381865afa1580156104ac573d5f5f3e3d5ffd5b505050506040513d601f19601f820116820180604052508101906104d0919061077d565b6104db90600a610894565b6006556016805463ffff000019166301010000179055600280546001600160a01b0319166001600160a01b038381169190911790915560035460408051631d06d6c760e11b815290519190921691633a0dad8e9160048281019260209291908290030181865afa158015610551573d5f5f3e3d5ffd5b505050506040513d601f19601f82011682018060405250810190610575919061075b565b600480546001600160a01b03929092166001600160a01b03199092169190911790556014805463ffffffff1916620151801790556105b24261063e565b6015556016805465ffff0000ffff191690556105cd5f610659565b60175550506008805463ffffffff60a81b19169055505f601a556108fc565b50565b5f80546001600160a01b038381166001600160a01b0319831681178455604051919092169283917f8be0079c531659141344cd1fd0a4f28419497f9722a3daafe3b4186f6b6457e09190a35050565b6014545f906106539063ffffffff16836108a2565b92915050565b5f61065363ffffffff831660045f516020613fc45f395f51905f5254604051639cd07acb60e01b81525f915f516020613fa45f395f51905f52916001600160a01b0390911690639cd07acb906106b590879087906004016108b5565b6020604051808303815f875af11580156106d1573d5f5f3e3d5ffd5b505050506040513d601f19601f820116820180604052508101906106f591906108e5565b949350505050565b6001600160a01b03811681146105ec575f5ffd5b5f5f5f60608486031215610723575f5ffd5b835161072e816106fd565b602085015190935061073f816106fd565b6040850151909250610750816106fd565b809150509250925092565b5f6020828403121561076b575f5ffd5b8151610776816106fd565b9392505050565b5f6020828403121561078d575f5ffd5b815160ff81168114610776575f5ffd5b634e487b7160e01b5f52601160045260245ffd5b6001815b60018411156107ec578085048111156107d0576107d061079d565b60018416156107de57908102905b60019390931c9280026107b5565b935093915050565b5f8261080257506001610653565b8161080e57505f610653565b8160018114610824576002811461082e5761084a565b6001915050610653565b60ff84111561083f5761083f61079d565b50506001821b610653565b5060208310610133831016604e8410600b841016171561086d575081810a610653565b6108795f1984846107b1565b805f190482111561088c5761088c61079d565b029392505050565b5f61077660ff8416836107f4565b808201808211156106535761065361079d565b82815260408101605483106108d857634e487b7160e01b5f52602160045260245ffd5b8260208301529392505050565b5f602082840312156108f5575f5ffd5b5051919050565b61369b806109095f395ff3fe608060405234801561000f575f5ffd5b50600436106101a9575f3560e01c8062bb07bb146101ad578063055ad42e146101c25780630844697d146101ec57806308af604d1461021457806314b19c5a1461023957806314b5d07f1461024757806325a760c21461025a578063289a2f761461026e5780632b0088b41461028e57806336021ef4146102a5578063380e443b146102b95780633a0dad8e146102c25780634585e33b146102d55780634ff0876a146102e85780635488cd621461030d57806358fac65b146103215780635dc228a0146103345780636e04ff0d146103475780637060444514610368578063715018a61461037b5780637158da7c146103835780637847ea531461039657806379502c55146103a15780637b103999146103b45780637cdabf0a146103c7578063800f9fad146103da5780638da5cb5b146103e3578063a08b82d7146103eb578063b8b2af7c14610401578063c18e2a5c14610416578063c2cb5d881461041f578063ca1f32f114610427578063eeb393c914610430578063f2fde38b14610443578063f83e98fb14610456578063f91b5b251461045f575b5f5ffd5b6101c06101bb366004612e07565b610467565b005b6016546101d690600160201b900460ff1681565b6040516101e39190612e52565b60405180910390f35b60085461020190600160b81b900461ffff1681565b60405161ffff90911681526020016101e3565b6016546102279062010000900460ff1681565b60405160ff90911681526020016101e3565b6016546102019061ffff1681565b6101c0610255366004612e80565b610561565b60085461022790600160a01b900460ff1681565b61028161027c366004612e9b565b61066a565b6040516101e39190612eb2565b61029760075481565b6040519081526020016101e3565b601654610227906301000000900460ff1681565b6102016105dc81565b600454610281906001600160a01b031681565b6101c06102e3366004612ec6565b610692565b6014546102f89063ffffffff1681565b60405163ffffffff90911681526020016101e3565b60165461022790600160281b900460ff1681565b61028161032f366004612e9b565b610870565b600254610281906001600160a01b031681565b61035a610355366004612ec6565b61087f565b6040516101e3929190612f32565b6101c0610376366004612e9b565b610bce565b6101c0610c58565b600854610281906001600160a01b031681565b6102f86301e1338081565b600354610281906001600160a01b031681565b600554610281906001600160a01b031681565b6101c06103d5366004612f86565b610c6b565b61029760095481565b610281610d72565b6103f3610d80565b6040516101e3929190612fb7565b60085461020190600160a81b900461ffff1681565b610297601a5481565b6103f3610f18565b61029760065481565b6101c061043e366004613051565b6110a9565b6101c0610451366004612e80565b611184565b61020161271081565b610201606481565b61046f6111c1565b60ff82161580610480575060ff8116155b1561049e576040516317dbc4cb60e21b815260040160405180910390fd5b60035f9054906101000a90046001600160a01b03166001600160a01b031663edcf9c1f6040518163ffffffff1660e01b8152600401602060405180830381865afa1580156104ee573d5f5f3e3d5ffd5b505050506040513d601f19601f82011682018060405250810190610512919061306c565b61052f576040516312aecd8160e01b815260040160405180910390fd5b6016805463ffff000019166201000060ff9485160263ff00000019161763010000009290931691909102919091179055565b6105696111c1565b6001600160a01b0381166105905760405163d92e233d60e01b815260040160405180910390fd5b60035f9054906101000a90046001600160a01b03166001600160a01b031663edcf9c1f6040518163ffffffff1660e01b8152600401602060405180830381865afa1580156105e0573d5f5f3e3d5ffd5b505050506040513d601f19601f82011682018060405250810190610604919061306c565b610621576040516312aecd8160e01b815260040160405180910390fd5b600280546001600160a01b0319166001600160a01b0383169081179091556040517f6cc7ebdb6c8c53291c5ae16148cab9b049d23bf5bde5632900b40edff56fcb43905f90a250565b60198181548110610679575f80fd5b5f918252602090912001546001600160a01b0316905081565b6002546001600160a01b031633146106bd5760405163ea8e4eb560e01b815260040160405180910390fd5b6106c56111f3565b60048110156106e7576040516317dbc4cb60e21b815260040160405180910390fd5b5f6106f5600482848661308b565b6106fe916130b2565b90506341659aab60e01b6001600160e01b03198216016107255761072061121d565b610862565b6385a5752f60e01b6001600160e01b0319821601610769575f61074b836004818761308b565b81019061075891906130ea565b9050610763816114ab565b50610862565b630a47f11760e31b6001600160e01b03198216016107a7575f61078f836004818761308b565b81019061079c91906130ea565b905061076381611b5e565b6292a80f60e51b6001600160e01b03198216016107c657610720611f9e565b6342e7793160e11b6001600160e01b0319821601610804575f6107ec836004818761308b565b8101906107f991906130ea565b9050610763816122b4565b6328991e7160e21b6001600160e01b0319821601610842575f61082a836004818761308b565b81019061083791906130ea565b9050610763816126e9565b63c4b3cef760e01b6001600160e01b0319821601610862576108626127c3565b5061086c60018055565b5050565b60188181548110610679575f80fd5b5f606060035f9054906101000a90046001600160a01b03166001600160a01b031663edcf9c1f6040518163ffffffff1660e01b8152600401602060405180830381865afa1580156108d2573d5f5f3e3d5ffd5b505050506040513d601f19601f820116820180604052508101906108f6919061306c565b801561090457506015544210155b1561095457600191507fbe9a655586dceb82dfa0af992b5d8ae7fa45053cb7fd6f141f541da7572978c760405160200161093e9190613105565b6040516020818303038152906040529050610bc7565b6001601654600160201b900460ff16600681111561097457610974612e3e565b036109bf57600191507f7a5a8ad19124b9a9a3b85c38bfa52d0569e47ecd521fa07a994c99a212fd6ebc601660059054906101000a900460ff1660405160200161093e92919061311a565b6002601654600160201b900460ff1660068111156109df576109df612e3e565b03610a2a57600191507fadc07748c020721fa2509a842be7e135ee6a8f3685ef12e4010b01343ac867a6601660059054906101000a900460ff1660405160200161093e92919061311a565b6003601654600160201b900460ff166006811115610a4a57610a4a612e3e565b03610a8457600191507fedaafe206508e00f40674bb87dda745bccfe8a3f3f6d6eaaf6db5f44021a1c1360405160200161093e9190613105565b6004601654600160201b900460ff166006811115610aa457610aa4612e3e565b03610aef57600191507f7a310d9e486906f6c86de6f47e07e2f3a9de08781efe935b9347180861f073ae601660059054906101000a900460ff1660405160200161093e92919061311a565b6005601654600160201b900460ff166006811115610b0f57610b0f612e3e565b03610b5a57600191507f5d9b863c92efabf852670c24f7513610bd4d3f9a36442ea8387edc8a2b0113ef601660059054906101000a900460ff1660405160200161093e92919061311a565b6006601654600160201b900460ff166006811115610b7a57610b7a612e3e565b03610bb457600191507f3b4c310984a9fe486c05a56b52659c09d4bf9f3ef9b799ad52ee29a7d805741e60405160200161093e9190613105565b505060408051602081019091525f808252905b9250929050565b6004546001600160a01b03163314610bf95760405163ea8e4eb560e01b815260040160405180910390fd5b600954811115610c3f57600854600954604051632e2a182f60e11b81526001600160a01b0390921660048301526024820183905260448201526064015b60405180910390fd5b8060095f828254610c509190613155565b909155505050565b610c606111c1565b610c695f612996565b565b610c736111c1565b606461ffff83161180610c8b57506105dc61ffff8216115b15610ca9576040516317dbc4cb60e21b815260040160405180910390fd5b60035f9054906101000a90046001600160a01b03166001600160a01b031663edcf9c1f6040518163ffffffff1660e01b8152600401602060405180830381865afa158015610cf9573d5f5f3e3d5ffd5b505050506040513d601f19601f82011682018060405250810190610d1d919061306c565b610d3a576040516312aecd8160e01b815260040160405180910390fd5b6008805463ffffffff60a81b1916600160a81b61ffff9485160261ffff60b81b191617600160b81b9290931691909102919091179055565b5f546001600160a01b031690565b601180546040805160208084028201810190925282815260609384935f93830182828015610dd557602002820191905f5260205f20905b81546001600160a01b03168152600190910190602001808311610db7575b505083519394505061ffff83169150506001600160401b03811115610dfc57610dfc613168565b604051908082528060200260200182016040528015610e25578160200160208202803683370190505b5093508061ffff166001600160401b03811115610e4457610e44613168565b604051908082528060200260200182016040528015610e6d578160200160208202803683370190505b5092505f5b8161ffff168161ffff161015610f11575f838261ffff1681518110610e9957610e9961317c565b6020026020010151905080868361ffff1681518110610eba57610eba61317c565b6001600160a01b039283166020918202929092018101919091529082165f908152601090915260409020548551869061ffff8516908110610efd57610efd61317c565b602090810291909101015250600101610e72565b5050509091565b601180546040805160208084028201810190925282815260609384935f93830182828015610f6d57602002820191905f5260205f20905b81546001600160a01b03168152600190910190602001808311610f4f575b505083519394505061ffff83169150506001600160401b03811115610f9457610f94613168565b604051908082528060200260200182016040528015610fbd578160200160208202803683370190505b5093508061ffff166001600160401b03811115610fdc57610fdc613168565b604051908082528060200260200182016040528015611005578160200160208202803683370190505b5092505f5b8161ffff168161ffff161015610f11575f838261ffff16815181106110315761103161317c565b6020026020010151905080868361ffff16815181106110525761105261317c565b6001600160a01b039283166020918202929092018101919091529082165f908152600f90915260409020548551869061ffff85169081106110955761109561317c565b60209081029190910101525060010161100a565b6110b16111c1565b8063ffffffff165f036110d7576040516317dbc4cb60e21b815260040160405180910390fd5b60035f9054906101000a90046001600160a01b03166001600160a01b031663edcf9c1f6040518163ffffffff1660e01b8152600401602060405180830381865afa158015611127573d5f5f3e3d5ffd5b505050506040513d601f19601f8201168201806040525081019061114b919061306c565b611168576040516312aecd8160e01b815260040160405180910390fd5b6014805463ffffffff191663ffffffff92909216919091179055565b61118c6111c1565b6001600160a01b0381166111b5575f604051631e4fbdf760e01b8152600401610c369190612eb2565b6111be81612996565b50565b336111ca610d72565b6001600160a01b031614610c69573360405163118cdaa760e01b8152600401610c369190612eb2565b60026001540361121657604051633ee5aeb560e01b815260040160405180910390fd5b6002600155565b60155442108061129e575060035f9054906101000a90046001600160a01b03166001600160a01b031663edcf9c1f6040518163ffffffff1660e01b8152600401602060405180830381865afa158015611278573d5f5f3e3d5ffd5b505050506040513d601f19601f8201168201806040525081019061129c919061306c565b155b156112bc5760405163085de62560e01b815260040160405180910390fd5b6112c5426129e5565b6015555f5b60115461ffff8216101561137d575f600a6007018261ffff16815481106112f3576112f361317c565b5f9182526020808320909101546001600160a01b03168252600b81526040808320839055600c8252808320839055600d8252808320839055600e8252808320839055600f82528083208390556010825280832083905560128252808320805460ff19908116909155600a90925290912080549091169055508061137581613190565b9150506112ca565b5061138960115f612d67565b600354604051631da09e4360e31b81526001600160a01b039091169063ed04f218906113b9905f906004016131b0565b5f60405180830381865afa1580156113d3573d5f5f3e3d5ffd5b505050506040513d5f823e601f3d908101601f191682016040526113fa9190810190613289565b805161140e91601891602090910190612d82565b50600354604051631da09e4360e31b81526001600160a01b039091169063ed04f21890611440906001906004016131b0565b5f60405180830381865afa15801561145a573d5f5f3e3d5ffd5b505050506040513d5f823e601f3d908101601f191682016040526114819190810190613289565b805161149591601991602090910190612d82565b506016805460ff60201b1916600160201b179055565b6114b36111f3565b6001601654600160201b900460ff1660068111156114d3576114d3612e3e565b146114f15760405163baf3f0f760e01b815260040160405180910390fd5b60168054600160281b900460ff1690600561150b836132ba565b91906101000a81548160ff021916908360ff160217905550505f601660029054906101000a900460ff168261154091906132cf565b60165460ff91821692505f9161155d9162010000900416836132eb565b60185490915061ffff8216111561158757506018546016805461ffff60201b1916600160211b1790555b815b8161ffff168161ffff161015611b52575f60188261ffff16815481106115b1576115b161317c565b905f5260205f20015f9054906101000a90046001600160a01b031690505f5f826001600160a01b031663d3d034586040518163ffffffff1660e01b81526004015f60405180830381865afa15801561160b573d5f5f3e3d5ffd5b505050506040513d5f823e601f3d908101601f191682016040526116329190810190613305565b90925090505f805b83518161ffff1610156118be575f848261ffff168151811061165e5761165e61317c565b602002602001015190505f848361ffff168151811061167f5761167f61317c565b6020026020010151905080600a6002015f846001600160a01b03166001600160a01b031681526020019081526020015f205f8282546116be91906133c3565b90915550506001600160a01b0382165f908152600a602052604081205460ff16900361176e57816001600160a01b031663313ce5676040518163ffffffff1660e01b8152600401602060405180830381865afa158015611720573d5f5f3e3d5ffd5b505050506040513d601f19601f8201168201806040525081019061174491906133d6565b6001600160a01b0383165f908152600a60205260409020805460ff191660ff929092169190911790555b6001600160a01b0382165f908152600a6020908152604080832054600b90925282205460ff90911691819003611860576008546001600160a01b03908116908516036117d3576008546117cc90600160a01b900460ff16600a6134d4565b9050611845565b6005546040516341976e0960e01b81526001600160a01b03909116906341976e0990611803908790600401612eb2565b602060405180830381865afa15801561181e573d5f5f3e3d5ffd5b505050506040513d601f19601f8201168201806040525081019061184291906134e2565b90505b6001600160a01b0384165f908152600b602052604090208190555b5f61188f61187b8560065485612a009092919063ffffffff16565b6008548590600160a01b900460ff16612ab1565b905061189b81886133c3565b96506118a685612b1b565b505050505080806118b690613190565b91505061163a565b506008545f906118dc90600160a81b900461ffff1683612710612a00565b6014549091506118fd90829063ffffffff908116906301e1338090612a0016565b90508060095f82825461191091906133c3565b9091555061192090508183613155565b60405163728d42fb60e11b8152600481018290529092505f906001600160a01b0387169063e51a85f690602401602060405180830381865afa158015611968573d5f5f3e3d5ffd5b505050506040513d601f19601f8201168201806040525081019061198c91906134e2565b90506119988184613155565b6008549093505f906119b890600160b81b900461ffff1683612710612a00565b90508060095f8282546119cb91906133c3565b909155506119db90508183613155565b91505f876001600160a01b031663a68a5267896001600160a01b031663c37fc8a86040518163ffffffff1660e01b8152600401602060405180830381865afa158015611a29573d5f5f3e3d5ffd5b505050506040513d601f19601f82011682018060405250810190611a4d91906134e2565b875f6040518463ffffffff1660e01b8152600401611a6d939291906134f9565b602060405180830381865afa158015611a88573d5f5f3e3d5ffd5b505050506040513d601f19601f82011682018060405250810190611aac91906134e2565b905080886001600160a01b031663d1699c266040518163ffffffff1660e01b8152600401602060405180830381865afa158015611aeb573d5f5f3e3d5ffd5b505050506040513d601f19601f82011682018060405250810190611b0f91906134e2565b611b199190613155565b611b2390866133c3565b6001600160a01b039098165f908152600d60205260409020979097555050600190950194506115899350505050565b5050506111be60018055565b611b666111f3565b6002601654600160201b900460ff166006811115611b8657611b86612e3e565b14611ba45760405163baf3f0f760e01b815260040160405180910390fd5b60168054600160281b900460ff16906005611bbe836132ba565b91906101000a81548160ff021916908360ff160217905550505f601660039054906101000a900460ff1682611bf391906132cf565b60165460ff91821692505f91611c11916301000000900416836132eb565b60195490915061ffff82161115611c3b57506019546016805461ffff60201b1916600360201b1790555b815b8161ffff168161ffff161015611b52575f60198261ffff1681548110611c6557611c6561317c565b5f918252602091829020015460408051631b9d6fc560e31b815290516001600160a01b039092169350839263dceb7e28926004808401938290030181865afa158015611cb3573d5f5f3e3d5ffd5b505050506040513d601f19601f82011682018060405250810190611cd7919061306c565b611ce15750611f96565b5f5f826001600160a01b031663d3d034586040518163ffffffff1660e01b81526004015f60405180830381865afa158015611d1e573d5f5f3e3d5ffd5b505050506040513d5f823e601f3d908101601f19168201604052611d459190810190613305565b60175491935091505f5b83518161ffff161015611f90575f848261ffff1681518110611d7357611d7361317c565b60200260200101519050611dc760135f836001600160a01b03166001600160a01b031681526020019081526020015f2054858461ffff1681518110611dba57611dba61317c565b6020026020010151612ba0565b6001600160a01b0382165f90815260136020908152604080832093909355600a90529081205460ff169003611e8057806001600160a01b031663313ce5676040518163ffffffff1660e01b8152600401602060405180830381865afa158015611e32573d5f5f3e3d5ffd5b505050506040513d601f19601f82011682018060405250810190611e5691906133d6565b6001600160a01b0382165f908152600a60205260409020805460ff191660ff929092169190911790555b6001600160a01b0381165f908152600b602052604081205490819003611f62576008546001600160a01b0390811690831603611ed557600854611ece90600160a01b900460ff16600a6134d4565b9050611f47565b6005546040516341976e0960e01b81526001600160a01b03909116906341976e0990611f05908590600401612eb2565b602060405180830381865afa158015611f20573d5f5f3e3d5ffd5b505050506040513d601f19601f82011682018060405250810190611f4491906134e2565b90505b6001600160a01b0382165f908152600b602052604090208190555b601754611f6f8582612ba0565b9450611f7a83612b1b565b5050508080611f8890613190565b915050611d4f565b50505050505b600101611c3d565b6003601654600160201b900460ff166006811115611fbe57611fbe612e3e565b14611fdc5760405163baf3f0f760e01b815260040160405180910390fd5b6016805460ff60201b1916600160221b1790555f805b60185461ffff8216101561205f575f60188261ffff16815481106120185761201861317c565b5f9182526020808320909101546001600160a01b0316808352600d90915260409091205490915061204990846133c3565b925050808061205790613190565b915050611ff2565b505f5b60195461ffff821610156120cf575f60198261ffff16815481106120885761208861317c565b5f9182526020808320909101546001600160a01b0316808352600d9091526040909120549091506120b990846133c3565b92505080806120c790613190565b915050612062565b50600480546040805163dab26e3b60e01b815290515f93612146936001600160a01b03169263dab26e3b92818301926020928290030181865afa158015612118573d5f5f3e3d5ffd5b505050506040513d601f19601f8201168201806040525081019061213c91906134e2565b8390612710612a00565b905080601a541115612156575050565b5f601a54826121659190613155565b90505f5b60185461ffff8216101561220a575f60188261ffff168154811061218f5761218f61317c565b5f9182526020808320909101546001600160a01b0316808352600d9091526040822054909250906121c1858389612a00565b6001600160a01b0384165f908152600d60205260408120805492935083929091906121ed908490613155565b92505081905550505050808061220290613190565b915050612169565b505f5b60195461ffff821610156122ae575f60198261ffff16815481106122335761223361317c565b5f9182526020808320909101546001600160a01b0316808352600d909152604082205490925090612265858389612a00565b6001600160a01b0384165f908152600d6020526040812080549293508392909190612291908490613155565b9250508190555050505080806122a690613190565b91505061220d565b50505050565b6004601654600160201b900460ff1660068111156122d4576122d4612e3e565b146122f25760405163baf3f0f760e01b815260040160405180910390fd5b60168054600160281b900460ff1690600561230c836132ba565b91906101000a81548160ff021916908360ff160217905550505f601660029054906101000a900460ff168261234191906132cf565b60165460ff91821692505f9161235e9162010000900416836132eb565b60185490915061ffff8216111561238857506018546016805461ffff60201b1916600560201b1790555b815b8161ffff168161ffff1610156122ae575f60188261ffff16815481106123b2576123b261317c565b905f5260205f20015f9054906101000a90046001600160a01b031690505f5f826001600160a01b031663b6eba6536040518163ffffffff1660e01b81526004015f60405180830381865afa15801561240c573d5f5f3e3d5ffd5b505050506040513d5f823e601f3d908101601f191682016040526124339190810190613525565b6001600160a01b0385165f908152600d60205260408120549294509092505b83518161ffff1610156126d8575f848261ffff16815181106124765761247661317c565b602002602001015190505f848361ffff16815181106124975761249761317c565b6020908102919091018101516001600160a01b0384165f908152600a909252604082205490925060ff16900361255157816001600160a01b031663313ce5676040518163ffffffff1660e01b8152600401602060405180830381865afa158015612503573d5f5f3e3d5ffd5b505050506040513d601f19601f8201168201806040525081019061252791906133d6565b6001600160a01b0383165f908152600a60205260409020805460ff191660ff929092169190911790555b6001600160a01b0382165f908152600a6020908152604080832054600b90925282205460ff90911691819003612643576008546001600160a01b03908116908516036125b6576008546125af90600160a01b900460ff16600a6134d4565b9050612628565b6005546040516341976e0960e01b81526001600160a01b03909116906341976e09906125e6908790600401612eb2565b602060405180830381865afa158015612601573d5f5f3e3d5ffd5b505050506040513d601f19601f8201168201806040525081019061262591906134e2565b90505b6001600160a01b0384165f908152600b602052604090208190555b5f6126856126726006548461266b8863ffffffff166007548d612a009092919063ffffffff16565b9190612a00565b600854600160a01b900460ff1685612ab1565b6001600160a01b0386165f908152600e60205260408120805492935083929091906126b19084906133c3565b909155506126c0905085612b1b565b505050505080806126d090613190565b915050612452565b50506001909301925061238a915050565b6005601654600160201b900460ff16600681111561270957612709612e3e565b146127275760405163baf3f0f760e01b815260040160405180910390fd5b60168054600160281b900460ff16906005612741836132ba565b91906101000a81548160ff021916908360ff160217905550505f601660039054906101000a900460ff168261277691906132cf565b60165460ff91821692505f91612794916301000000900416836132eb565b60195490915061ffff821611156127be57506019546016805461ffff60201b1916600360211b1790555b505050565b6006601654600160201b900460ff1660068111156127e3576127e3612e3e565b146128015760405163baf3f0f760e01b815260040160405180910390fd5b5f600a60070180548060200260200160405190810160405280929190818152602001828054801561285957602002820191905f5260205f20905b81546001600160a01b0316815260019091019060200180831161283b575b505083519394505f925050505b8161ffff168161ffff161015612921575f838261ffff168151811061288d5761288d61317c565b6020908102919091018101516001600160a01b0381165f908152600c8352604080822054600e909452902054909250808211156128eb576128ce8183613155565b6001600160a01b0384165f908152600f6020526040902055612916565b81811115612916576128fd8282613155565b6001600160a01b0384165f908152601060205260409020555b505050600101612866565b506016805460ff60201b198116825561ffff16905f61293f83613190565b82546101009290920a61ffff818102199093169183160217909155601654604051911681527f0bc12479581640d161e016cef21aa834cb6d6326bbc0d8445e58d56403adf2dc915060200160405180910390a15050565b5f80546001600160a01b038381166001600160a01b0319831681178455604051919092169283917f8be0079c531659141344cd1fd0a4f28419497f9722a3daafe3b4186f6b6457e09190a35050565b6014545f906129fa9063ffffffff16836133c3565b92915050565b5f5f5f612a0d8686612bce565b91509150815f03612a3157838181612a2757612a276135de565b0492505050612aaa565b818411612a4857612a486003851502601118612bea565b5f848688095f868103871696879004966002600389028118808a02820302808a02820302808a02820302808a02820302808a02820302808a02909103029181900381900460010185841190960395909502919093039390930492909217029150505b9392505050565b5f8260ff168260ff161115612ae657612aca83836135f2565b612ad590600a6134d4565b612adf908561360b565b9050612aaa565b8260ff168260ff161015612b1357612afe82846135f2565b612b0990600a6134d4565b612adf9085613622565b509192915050565b6001600160a01b0381165f9081526012602052604090205460ff166111be576011805460018181019092557f31ecc21a745e3968a04e9570e4425bc18fa8019c68028196b546d1669c200c680180546001600160a01b0384166001600160a01b031990911681179091555f908152601260205260409020805460ff1916909117905550565b5f82612bb257612baf5f612bfb565b92505b81612bc357612bc05f612bfb565b91505b612aaa83835f612c0d565b5f805f1983850993909202808410938190039390930393915050565b634e487b715f52806020526024601cfd5b5f6129fa8263ffffffff166004612cbc565b5f5f8215612c205750600160f81b612c23565b505f5b5f612c2c612d43565b600181015460405163022f65e760e31b815260048101899052602481018890526001600160f81b0319851660448201529192506001600160a01b03169063117b2f38906064016020604051808303815f875af1158015612c8e573d5f5f3e3d5ffd5b505050506040513d601f19601f82011682018060405250810190612cb291906134e2565b9695505050505050565b5f5f612cc6612d43565b6001810154604051639cd07acb60e01b81529192506001600160a01b031690639cd07acb90612cfb9087908790600401613641565b6020604051808303815f875af1158015612d17573d5f5f3e3d5ffd5b505050506040513d601f19601f82011682018060405250810190612d3b91906134e2565b949350505050565b7fed8d60e34876f751cc8b014c560745351147d9de11b9347c854e881b128ea60090565b5080545f8255905f5260205f20908101906111be9190612de5565b828054828255905f5260205f20908101928215612dd5579160200282015b82811115612dd557825182546001600160a01b0319166001600160a01b03909116178255602090920191600190910190612da0565b50612de1929150612de5565b5090565b5b80821115612de1575f8155600101612de6565b60ff811681146111be575f5ffd5b5f5f60408385031215612e18575f5ffd5b8235612e2381612df9565b91506020830135612e3381612df9565b809150509250929050565b634e487b7160e01b5f52602160045260245ffd5b6020810160078310612e6657612e66612e3e565b91905290565b6001600160a01b03811681146111be575f5ffd5b5f60208284031215612e90575f5ffd5b8135612aaa81612e6c565b5f60208284031215612eab575f5ffd5b5035919050565b6001600160a01b0391909116815260200190565b5f5f60208385031215612ed7575f5ffd5b82356001600160401b03811115612eec575f5ffd5b8301601f81018513612efc575f5ffd5b80356001600160401b03811115612f11575f5ffd5b856020828401011115612f22575f5ffd5b6020919091019590945092505050565b8215158152604060208201525f82518060408401528060208501606085015e5f606082850101526060601f19601f8301168401019150509392505050565b803561ffff81168114612f81575f5ffd5b919050565b5f5f60408385031215612f97575f5ffd5b612fa083612f70565b9150612fae60208401612f70565b90509250929050565b604080825283519082018190525f9060208501906060840190835b81811015612ff95783516001600160a01b0316835260209384019390920191600101612fd2565b5050838103602080860191909152855180835291810192508501905f5b81811015613034578251845260209384019390920191600101613016565b50919695505050505050565b63ffffffff811681146111be575f5ffd5b5f60208284031215613061575f5ffd5b8135612aaa81613040565b5f6020828403121561307c575f5ffd5b81518015158114612aaa575f5ffd5b5f5f85851115613099575f5ffd5b838611156130a5575f5ffd5b5050820193919092039150565b80356001600160e01b031981169060048410156130e3576001600160e01b0319600485900360031b81901b82161691505b5092915050565b5f602082840312156130fa575f5ffd5b8135612aaa81612df9565b6001600160e01b031991909116815260040190565b6001600160e01b031992909216825260f81b6001600160f81b031916600482015260050190565b634e487b7160e01b5f52601160045260245ffd5b818103818111156129fa576129fa613141565b634e487b7160e01b5f52604160045260245ffd5b634e487b7160e01b5f52603260045260245ffd5b5f61ffff821661ffff81036131a7576131a7613141565b60010192915050565b6020810160028310612e6657612e66612e3e565b604051601f8201601f191681016001600160401b03811182821017156131ec576131ec613168565b604052919050565b5f6001600160401b0382111561320c5761320c613168565b5060051b60200190565b5f82601f830112613225575f5ffd5b8151613238613233826131f4565b6131c4565b8082825260208201915060208360051b860101925085831115613259575f5ffd5b602085015b8381101561327f57805161327181612e6c565b83526020928301920161325e565b5095945050505050565b5f60208284031215613299575f5ffd5b81516001600160401b038111156132ae575f5ffd5b612d3b84828501613216565b5f60ff821660ff81036131a7576131a7613141565b60ff81811683821602908116908181146130e3576130e3613141565b61ffff81811683821601908111156129fa576129fa613141565b5f5f60408385031215613316575f5ffd5b82516001600160401b0381111561332b575f5ffd5b61333785828601613216565b602085015190935090506001600160401b03811115613354575f5ffd5b8301601f81018513613364575f5ffd5b8051613372613233826131f4565b8082825260208201915060208360051b850101925087831115613393575f5ffd5b6020840193505b828410156133b557835182526020938401939091019061339a565b809450505050509250929050565b808201808211156129fa576129fa613141565b5f602082840312156133e6575f5ffd5b8151612aaa81612df9565b6001815b600184111561342c5780850481111561341057613410613141565b600184161561341e57908102905b60019390931c9280026133f5565b935093915050565b5f82613442575060016129fa565b8161344e57505f6129fa565b8160018114613464576002811461346e5761348a565b60019150506129fa565b60ff84111561347f5761347f613141565b50506001821b6129fa565b5060208310610133831016604e8410600b84101617156134ad575081810a6129fa565b6134b95f1984846133f1565b805f19048211156134cc576134cc613141565b029392505050565b5f612aaa60ff841683613434565b5f602082840312156134f2575f5ffd5b5051919050565b83815260208101839052606081016004831061351757613517612e3e565b826040830152949350505050565b5f5f60408385031215613536575f5ffd5b82516001600160401b0381111561354b575f5ffd5b61355785828601613216565b602085015190935090506001600160401b03811115613574575f5ffd5b8301601f81018513613584575f5ffd5b8051613592613233826131f4565b8082825260208201915060208360051b8501019250878311156135b3575f5ffd5b6020840193505b828410156133b55783516135cd81613040565b8252602093840193909101906135ba565b634e487b7160e01b5f52601260045260245ffd5b60ff82811682821603908111156129fa576129fa613141565b80820281158282048414176129fa576129fa613141565b5f8261363c57634e487b7160e01b5f52601260045260245ffd5b500490565b828152604081016054831061365857613658612e3e565b826020830152939250505056fea2646970667358221220be190c8da2d0583302784e503c3f29a82b16930e1de71cce066dbb887dfbe6d264736f6c634300081c0033ed8d60e34876f751cc8b014c560745351147d9de11b9347c854e881b128ea600ed8d60e34876f751cc8b014c560745351147d9de11b9347c854e881b128ea601",
  "linkReferences": {},
  "deployedLinkReferences": {}
}