{
  "_format": "hh-sol-artifact-1",
  "contractName": "InternalStatesOrchestrator",
  "sourceName": "contracts/orchestrators/InternalStatesOrchestrator.sol",
  "abi": [
    {
      "inputs": [
        {
          "internalType": "address",
          "name": "target",
          "type": "address"
        }
      ],
      "name": "AddressEmptyCode",
      "type": "error"
    },
    {
      "inputs": [
        {
          "internalType": "address",
          "name": "implementation",
          "type": "address"
        }
      ],
      "name": "ERC1967InvalidImplementation",
      "type": "error"
    },
    {
      "inputs": [],
      "name": "ERC1967NonPayable",
      "type": "error"
    },
    {
      "inputs": [],
      "name": "FailedCall",
      "type": "error"
    },
    {
      "inputs": [],
      "name": "InvalidInitialization",
      "type": "error"
    },
    {
      "inputs": [],
      "name": "NotAuthorized",
      "type": "error"
    },
    {
      "inputs": [],
      "name": "NotInitializing",
      "type": "error"
    },
    {
      "inputs": [
        {
          "internalType": "address",
          "name": "owner",
          "type": "address"
        }
      ],
      "name": "OwnableInvalidOwner",
      "type": "error"
    },
    {
      "inputs": [
        {
          "internalType": "address",
          "name": "account",
          "type": "address"
        }
      ],
      "name": "OwnableUnauthorizedAccount",
      "type": "error"
    },
    {
      "inputs": [],
      "name": "ReentrancyGuardReentrantCall",
      "type": "error"
    },
    {
      "inputs": [],
      "name": "TooEarly",
      "type": "error"
    },
    {
      "inputs": [],
      "name": "UUPSUnauthorizedCallContext",
      "type": "error"
    },
    {
      "inputs": [
        {
          "internalType": "bytes32",
          "name": "slot",
          "type": "bytes32"
        }
      ],
      "name": "UUPSUnsupportedProxiableUUID",
      "type": "error"
    },
    {
      "inputs": [],
      "name": "ZeroAddress",
      "type": "error"
    },
    {
      "anonymous": false,
      "inputs": [
        {
          "indexed": true,
          "internalType": "address",
          "name": "newAutomationRegistry",
          "type": "address"
        }
      ],
      "name": "AutomationRegistryUpdated",
      "type": "event"
    },
    {
      "anonymous": false,
      "inputs": [
        {
          "indexed": false,
          "internalType": "uint64",
          "name": "version",
          "type": "uint64"
        }
      ],
      "name": "Initialized",
      "type": "event"
    },
    {
      "anonymous": false,
      "inputs": [
        {
          "indexed": false,
          "internalType": "uint256",
          "name": "epochCounter",
          "type": "uint256"
        }
      ],
      "name": "InternalStateProcessed",
      "type": "event"
    },
    {
      "anonymous": false,
      "inputs": [
        {
          "indexed": true,
          "internalType": "address",
          "name": "previousOwner",
          "type": "address"
        },
        {
          "indexed": true,
          "internalType": "address",
          "name": "newOwner",
          "type": "address"
        }
      ],
      "name": "OwnershipTransferStarted",
      "type": "event"
    },
    {
      "anonymous": false,
      "inputs": [
        {
          "indexed": true,
          "internalType": "address",
          "name": "previousOwner",
          "type": "address"
        },
        {
          "indexed": true,
          "internalType": "address",
          "name": "newOwner",
          "type": "address"
        }
      ],
      "name": "OwnershipTransferred",
      "type": "event"
    },
    {
      "anonymous": false,
      "inputs": [
        {
          "indexed": true,
          "internalType": "address",
          "name": "implementation",
          "type": "address"
        }
      ],
      "name": "Upgraded",
      "type": "event"
    },
    {
      "inputs": [],
      "name": "UPGRADE_INTERFACE_VERSION",
      "outputs": [
        {
          "internalType": "string",
          "name": "",
          "type": "string"
        }
      ],
      "stateMutability": "view",
      "type": "function"
    },
    {
      "inputs": [],
      "name": "acceptOwnership",
      "outputs": [],
      "stateMutability": "nonpayable",
      "type": "function"
    },
    {
      "inputs": [],
      "name": "automationRegistry",
      "outputs": [
        {
          "internalType": "address",
          "name": "",
          "type": "address"
        }
      ],
      "stateMutability": "view",
      "type": "function"
    },
    {
      "inputs": [
        {
          "internalType": "bytes",
          "name": "",
          "type": "bytes"
        }
      ],
      "name": "checkUpkeep",
      "outputs": [
        {
          "internalType": "bool",
          "name": "upkeepNeeded",
          "type": "bool"
        },
        {
          "internalType": "bytes",
          "name": "performData",
          "type": "bytes"
        }
      ],
      "stateMutability": "view",
      "type": "function"
    },
    {
      "inputs": [],
      "name": "config",
      "outputs": [
        {
          "internalType": "contract IOrionConfig",
          "name": "",
          "type": "address"
        }
      ],
      "stateMutability": "view",
      "type": "function"
    },
    {
      "inputs": [],
      "name": "epochCounter",
      "outputs": [
        {
          "internalType": "uint256",
          "name": "",
          "type": "uint256"
        }
      ],
      "stateMutability": "view",
      "type": "function"
    },
    {
      "inputs": [],
      "name": "expectedUnderlyingSellAmount",
      "outputs": [
        {
          "internalType": "uint256",
          "name": "",
          "type": "uint256"
        }
      ],
      "stateMutability": "view",
      "type": "function"
    },
    {
      "inputs": [],
      "name": "getBuyingOrders",
      "outputs": [
        {
          "internalType": "address[]",
          "name": "tokens",
          "type": "address[]"
        },
        {
          "internalType": "uint256[]",
          "name": "amounts",
          "type": "uint256[]"
        }
      ],
      "stateMutability": "view",
      "type": "function"
    },
    {
      "inputs": [],
      "name": "getSellingOrders",
      "outputs": [
        {
          "internalType": "address[]",
          "name": "tokens",
          "type": "address[]"
        },
        {
          "internalType": "uint256[]",
          "name": "amounts",
          "type": "uint256[]"
        }
      ],
      "stateMutability": "view",
      "type": "function"
    },
    {
      "inputs": [
        {
          "internalType": "address",
          "name": "initialOwner",
          "type": "address"
        },
        {
          "internalType": "address",
          "name": "automationRegistry_",
          "type": "address"
        },
        {
          "internalType": "address",
          "name": "config_",
          "type": "address"
        }
      ],
      "name": "initialize",
      "outputs": [],
      "stateMutability": "nonpayable",
      "type": "function"
    },
    {
      "inputs": [],
      "name": "nextUpdateTime",
      "outputs": [
        {
          "internalType": "uint256",
          "name": "",
          "type": "uint256"
        }
      ],
      "stateMutability": "view",
      "type": "function"
    },
    {
      "inputs": [],
      "name": "owner",
      "outputs": [
        {
          "internalType": "address",
          "name": "",
          "type": "address"
        }
      ],
      "stateMutability": "view",
      "type": "function"
    },
    {
      "inputs": [],
      "name": "pendingOwner",
      "outputs": [
        {
          "internalType": "address",
          "name": "",
          "type": "address"
        }
      ],
      "stateMutability": "view",
      "type": "function"
    },
    {
      "inputs": [
        {
          "internalType": "bytes",
          "name": "",
          "type": "bytes"
        }
      ],
      "name": "performUpkeep",
      "outputs": [],
      "stateMutability": "nonpayable",
      "type": "function"
    },
    {
      "inputs": [],
      "name": "proxiableUUID",
      "outputs": [
        {
          "internalType": "bytes32",
          "name": "",
          "type": "bytes32"
        }
      ],
      "stateMutability": "view",
      "type": "function"
    },
    {
      "inputs": [],
      "name": "renounceOwnership",
      "outputs": [],
      "stateMutability": "nonpayable",
      "type": "function"
    },
    {
      "inputs": [],
      "name": "totalEstimatedLiquidity",
      "outputs": [
        {
          "internalType": "uint256",
          "name": "",
          "type": "uint256"
        }
      ],
      "stateMutability": "view",
      "type": "function"
    },
    {
      "inputs": [
        {
          "internalType": "address",
          "name": "newOwner",
          "type": "address"
        }
      ],
      "name": "transferOwnership",
      "outputs": [],
      "stateMutability": "nonpayable",
      "type": "function"
    },
    {
      "inputs": [
        {
          "internalType": "address",
          "name": "newAutomationRegistry",
          "type": "address"
        }
      ],
      "name": "updateAutomationRegistry",
      "outputs": [],
      "stateMutability": "nonpayable",
      "type": "function"
    },
    {
      "inputs": [
        {
          "internalType": "address",
          "name": "newConfig",
          "type": "address"
        }
      ],
      "name": "updateConfig",
      "outputs": [],
      "stateMutability": "nonpayable",
      "type": "function"
    },
    {
      "inputs": [],
      "name": "updateInterval",
      "outputs": [
        {
          "internalType": "uint256",
          "name": "",
          "type": "uint256"
        }
      ],
      "stateMutability": "view",
      "type": "function"
    },
    {
      "inputs": [
        {
          "internalType": "address",
          "name": "newImplementation",
          "type": "address"
        },
        {
          "internalType": "bytes",
          "name": "data",
          "type": "bytes"
        }
      ],
      "name": "upgradeToAndCall",
      "outputs": [],
      "stateMutability": "payable",
      "type": "function"
    }
  ],
  "bytecode": "0x60a0604052306080523480156012575f5ffd5b506080516127206100395f395f8181611959015281816119820152611ac101526127205ff3fe608060405260043610610131575f3560e01c806379502c55116100a8578063c0c53b8b1161006d578063c0c53b8b1461032a578063c2cb5d8814610349578063d7a8deea1461035d578063e30c397814610372578063f2fde38b14610386578063fd2c80ae146103a5575f5ffd5b806379502c551461028457806379ba5097146102a35780638da5cb5b146102b7578063a08b82d7146102cb578063ad3cb1cc146102ed575f5ffd5b80634f1ef286116100f95780634f1ef286146101c657806352d1902d146101d95780635dc228a0146101ed5780636cc919c8146102245780636e04ff0d14610243578063715018a614610270575f5ffd5b806306cce8481461013557806314b19c5a1461015d57806314b5d07f1461017257806335238fb8146101935780634585e33b146101a7575b5f5ffd5b348015610140575f5ffd5b5061014a600c5481565b6040519081526020015b60405180910390f35b348015610168575f5ffd5b5061014a60035481565b34801561017d575f5ffd5b5061019161018c36600461203d565b6103b9565b005b34801561019e575f5ffd5b5061014a5f5481565b3480156101b2575f5ffd5b506101916101c1366004612058565b610431565b6101916101d4366004612108565b610c35565b3480156101e4575f5ffd5b5061014a610c50565b3480156101f8575f5ffd5b5060015461020c906001600160a01b031681565b6040516001600160a01b039091168152602001610154565b34801561022f575f5ffd5b5061019161023e36600461203d565b610c6b565b34801561024e575f5ffd5b5061026261025d366004612058565b610cbc565b6040516101549291906121db565b34801561027b575f5ffd5b50610191610ce4565b34801561028f575f5ffd5b5060025461020c906001600160a01b031681565b3480156102ae575f5ffd5b50610191610cf7565b3480156102c2575f5ffd5b5061020c610d44565b3480156102d6575f5ffd5b506102df610d78565b6040516101549291906121fd565b3480156102f8575f5ffd5b5061031d604051806040016040528060058152602001640352e302e360dc1b81525081565b6040516101549190612286565b348015610335575f5ffd5b50610191610344366004612298565b610f87565b348015610354575f5ffd5b506102df611126565b348015610368575f5ffd5b5061014a600d5481565b34801561037d575f5ffd5b5061020c61132d565b348015610391575f5ffd5b506101916103a036600461203d565b611355565b3480156103b0575f5ffd5b5061014a603c81565b6103c16113da565b6001600160a01b0381166103e85760405163d92e233d60e01b815260040160405180910390fd5b600180546001600160a01b0319166001600160a01b0383169081179091556040517f6cc7ebdb6c8c53291c5ae16148cab9b049d23bf5bde5632900b40edff56fcb43905f90a250565b6001546001600160a01b0316331461045c5760405163ea8e4eb560e01b815260040160405180910390fd5b61046461140c565b61046c611456565b61047461149a565b60025460408051634bb93ab160e01b815290515f926001600160a01b031691634bb93ab19160048083019260209291908290030181865afa1580156104bb573d5f5f3e3d5ffd5b505050506040513d601f19601f820116820180604052508101906104df91906122e0565b600254604051631da09e4360e31b81529192505f916001600160a01b039091169063ed04f2189061051490849060040161230f565b5f60405180830381865afa15801561052e573d5f5f3e3d5ffd5b505050506040513d5f823e601f3d908101601f1916820160405261055591908101906123be565b90505f815190505f60025f9054906101000a90046001600160a01b03166001600160a01b031663d1717c7d6040518163ffffffff1660e01b8152600401602060405180830381865afa1580156105ad573d5f5f3e3d5ffd5b505050506040513d601f19601f820116820180604052508101906105d191906123ef565b6105dc90600a612506565b90505f5b82811015610a40575f8482815181106105fb576105fb612514565b602002602001015190505f5f826001600160a01b031663d3d034586040518163ffffffff1660e01b81526004015f60405180830381865afa158015610642573d5f5f3e3d5ffd5b505050506040513d5f823e601f3d908101601f191682016040526106699190810190612528565b815191935091505f90815b818110156107ba575f85828151811061068f5761068f612514565b6020908102919091018101516001600160a01b0381165f9081526004909252604082205490925090819003610743576040516341976e0960e01b81526001600160a01b0383811660048301528e16906341976e0990602401602060405180830381865afa158015610702573d5f5f3e3d5ffd5b505050506040513d601f19601f8201168201806040525081019061072691906125e4565b6001600160a01b0383165f90815260046020526040902081905590505b5f6107688288868151811061075a5761075a612514565b60200260200101518561158a565b905061077481876125fb565b6001600160a01b0384165f908152600560205260408120805492985083929091906107a09084906125fb565b909155506107af905083611743565b505050600101610674565b505f856001600160a01b031663a68a5267876001600160a01b031663c37fc8a86040518163ffffffff1660e01b8152600401602060405180830381865afa158015610807573d5f5f3e3d5ffd5b505050506040513d601f19601f8201168201806040525081019061082b91906125e4565b855f6040518463ffffffff1660e01b815260040161084b9392919061260e565b602060405180830381865afa158015610866573d5f5f3e3d5ffd5b505050506040513d601f19601f8201168201806040525081019061088a91906125e4565b90505f81876001600160a01b031663d1699c266040518163ffffffff1660e01b8152600401602060405180830381865afa1580156108ca573d5f5f3e3d5ffd5b505050506040513d601f19601f820116820180604052508101906108ee91906125e4565b6108f890866125fb565b610902919061263a565b905080600d5f82825461091591906125fb565b925050819055505f5f886001600160a01b031663b6eba6536040518163ffffffff1660e01b81526004015f60405180830381865afa158015610959573d5f5f3e3d5ffd5b505050506040513d5f823e601f3d908101601f191682016040526109809190810190612528565b815191935091505f5b81811015610a29575f8482815181106109a4576109a4612514565b602002602001015190505f8483815181106109c1576109c1612514565b602002602001015190505f8f82896109d9919061264d565b6109e39190612664565b6001600160a01b0384165f90815260066020526040812080549293508392909190610a0f9084906125fb565b90915550610a1e905083611743565b505050600101610989565b5050600190990198506105e0975050505050505050565b50600254604051631da09e4360e31b81525f916001600160a01b03169063ed04f21890610a729060019060040161230f565b5f60405180830381865afa158015610a8c573d5f5f3e3d5ffd5b505050506040513d5f823e601f3d908101601f19168201604052610ab391908101906123be565b8051935090505f5b83811015610bbf575f828281518110610ad657610ad6612514565b602002602001015190505f5f826001600160a01b031663d3d034586040518163ffffffff1660e01b81526004015f60405180830381865afa158015610b1d573d5f5f3e3d5ffd5b505050506040513d5f823e601f3d908101601f19168201604052610b449190810190612528565b915091505f5f846001600160a01b031663b6eba6536040518163ffffffff1660e01b81526004015f60405180830381865afa158015610b85573d5f5f3e3d5ffd5b505050506040513d5f823e601f3d908101601f19168201604052610bac9190810190612528565b505060019095019450610abb9350505050565b50610bc86117c8565b7f9375d658f91055a030c54d5cf460d6f12968b10b80b0797c1aa5c02e4dca9403600354604051610bfb91815260200190565b60405180910390a15050505050610c3160017f9b779b17422d0df92223018b32b4d1fa46e071723d6817e2486d003becc55f0055565b5050565b610c3d61194e565b610c46826119f2565b610c3182826119fa565b5f610c59611ab6565b505f5160206126cb5f395f51905f5290565b610c736113da565b6001600160a01b038116610c9a5760405163d92e233d60e01b815260040160405180910390fd5b600280546001600160a01b0319166001600160a01b0392909216919091179055565b5f6060610cca5f5442101590565b915060405180602001604052805f81525090509250929050565b610cec6113da565b610cf55f611aff565b565b3380610d0161132d565b6001600160a01b031614610d385760405163118cdaa760e01b81526001600160a01b03821660048201526024015b60405180910390fd5b610d4181611aff565b50565b5f807f9016d09d72d40fdae2fd8ceac6b6234c7706214fd39c1cd1e609a0528c1993005b546001600160a01b031692915050565b600980546040805160208084028201810190925282815260609384935f93830182828015610dcd57602002820191905f5260205f20905b81546001600160a01b03168152600190910190602001808311610daf575b505083519394505f9250829150505b82811015610e40575f600480015f868481518110610dfc57610dfc612514565b60200260200101516001600160a01b03166001600160a01b031681526020019081526020015f20541115610e385781610e3481612683565b9250505b600101610ddc565b50806001600160401b03811115610e5957610e596120c4565b604051908082528060200260200182016040528015610e82578160200160208202803683370190505b509450806001600160401b03811115610e9d57610e9d6120c4565b604051908082528060200260200182016040528015610ec6578160200160208202803683370190505b5093505f805b83811015610f7e575f858281518110610ee757610ee7612514565b6020908102919091018101516001600160a01b0381165f90815260089092526040909120549091508015610f745781898581518110610f2857610f28612514565b60200260200101906001600160a01b031690816001600160a01b03168152505080888581518110610f5b57610f5b612514565b602090810291909101015283610f7081612683565b9450505b5050600101610ecc565b50505050509091565b5f610f90611b37565b805490915060ff600160401b82041615906001600160401b03165f81158015610fb65750825b90505f826001600160401b03166001148015610fd15750303b155b905081158015610fdf575080155b15610ffd5760405163f92ee8a960e01b815260040160405180910390fd5b845467ffffffffffffffff19166001178555831561102757845460ff60401b1916600160401b1785555b61103088611b61565b611038611b72565b611040611b7a565b611048611b72565b6001600160a01b03871661106f5760405163d92e233d60e01b815260040160405180910390fd5b6001600160a01b0386166110965760405163d92e233d60e01b815260040160405180910390fd5b600180546001600160a01b03808a166001600160a01b03199283161790925560028054928916929091169190911790556110cf42611b8a565b5f908155600355831561111c57845460ff60401b19168555604051600181527fc7f505b2f371ae2175ee4913f4499e1f2633a7b5936321eed1cdaeb6115181d29060200160405180910390a15b5050505050505050565b600980546040805160208084028201810190925282815260609384935f9383018282801561117b57602002820191905f5260205f20905b81546001600160a01b0316815260019091019060200180831161115d575b505083519394505f9250829150505b828110156111ef575f60046003015f8684815181106111ab576111ab612514565b60200260200101516001600160a01b03166001600160a01b031681526020019081526020015f205411156111e757816111e381612683565b9250505b60010161118a565b50806001600160401b03811115611208576112086120c4565b604051908082528060200260200182016040528015611231578160200160208202803683370190505b509450806001600160401b0381111561124c5761124c6120c4565b604051908082528060200260200182016040528015611275578160200160208202803683370190505b5093505f805b83811015610f7e575f85828151811061129657611296612514565b6020908102919091018101516001600160a01b0381165f9081526007909252604090912054909150801561132357818985815181106112d7576112d7612514565b60200260200101906001600160a01b031690816001600160a01b0316815250508088858151811061130a5761130a612514565b60209081029190910101528361131f81612683565b9450505b505060010161127b565b5f807f237e158222e3e6968b72b9db0d8043aacf074ad9f650f0d1606b4d82ee432c00610d68565b61135d6113da565b7f237e158222e3e6968b72b9db0d8043aacf074ad9f650f0d1606b4d82ee432c0080546001600160a01b0319166001600160a01b03831690811782556113a1610d44565b6001600160a01b03167f38d16b8cac22d99fc7c124b9cd0de2d3fa1faef420bfe791d8c362d765e2270060405160405180910390a35050565b336113e3610d44565b6001600160a01b031614610cf55760405163118cdaa760e01b8152336004820152602401610d2f565b7f9b779b17422d0df92223018b32b4d1fa46e071723d6817e2486d003becc55f0080546001190161145057604051633ee5aeb560e01b815260040160405180910390fd5b60029055565b5f544210156114785760405163085de62560e01b815260040160405180910390fd5b61148142611b8a565b5f908155600380549161149383612683565b9190505550565b5f60046005018054806020026020016040519081016040528092919081815260200182805480156114f257602002820191905f5260205f20905b81546001600160a01b031681526001909101906020018083116114d4575b505083519394505f925050505b8181101561157e575f83828151811061151a5761151a612514565b6020908102919091018101516001600160a01b03165f90815260048252604080822082905560058352808220829055600683528082208290556007835280822082905560088352808220829055600a90925220805460ff19169055506001016114ff565b50610c3160095f611ffb565b5f80670de0b6b3a764000061159f858761264d565b6115a99190612664565b90505f836001600160a01b031663313ce5676040518163ffffffff1660e01b8152600401602060405180830381865afa1580156115e8573d5f5f3e3d5ffd5b505050506040513d601f19601f8201168201806040525081019061160c91906123ef565b90505f60025f9054906101000a90046001600160a01b03166001600160a01b0316637158da7c6040518163ffffffff1660e01b8152600401602060405180830381865afa15801561165f573d5f5f3e3d5ffd5b505050506040513d601f19601f8201168201806040525081019061168391906122e0565b6001600160a01b031663313ce5676040518163ffffffff1660e01b8152600401602060405180830381865afa1580156116be573d5f5f3e3d5ffd5b505050506040513d601f19601f820116820180604052508101906116e291906123ef565b90508160ff168160ff1610611717576116fb828261269b565b61170690600a612506565b611710908461264d565b9350611739565b611721818361269b565b61172c90600a612506565b6117369084612664565b93505b5050509392505050565b6001600160a01b0381165f908152600a602052604090205460ff16610d41576009805460018181019092557f6e1540171b6c0c960b71a7020d9f60077f6af931a8bbf590da0223dacf75c7af0180546001600160a01b0384166001600160a01b031990911681179091555f908152600a60205260409020805460ff1916909117905550565b5f600460050180548060200260200160405190810160405280929190818152602001828054801561182057602002820191905f5260205f20905b81546001600160a01b03168152600190910190602001808311611802575b505083515f600c81905594955093925050505b81811015611923575f83828151811061184e5761184e612514565b6020908102919091018101516001600160a01b0381165f908152600583526040808220546006909452902054909250808211156118eb575f611890828461263a565b905080600c5f8282546118a391906125fb565b90915550506001600160a01b0384165f908152600460205260408120546118cb908387611b96565b6001600160a01b0386165f90815260076020526040902055506119189050565b81811115611918575f6118fe838361263a565b6001600160a01b0385165f90815260086020526040902055505b505050600101611833565b505050565b60017f9b779b17422d0df92223018b32b4d1fa46e071723d6817e2486d003becc55f0055565b306001600160a01b037f00000000000000000000000000000000000000000000000000000000000000001614806119d457507f00000000000000000000000000000000000000000000000000000000000000006001600160a01b03166119c85f5160206126cb5f395f51905f52546001600160a01b031690565b6001600160a01b031614155b15610cf55760405163703e46dd60e11b815260040160405180910390fd5b610d416113da565b816001600160a01b03166352d1902d6040518163ffffffff1660e01b8152600401602060405180830381865afa925050508015611a54575060408051601f3d908101601f19168201909252611a51918101906125e4565b60015b611a7c57604051634c9c8ce360e01b81526001600160a01b0383166004820152602401610d2f565b5f5160206126cb5f395f51905f528114611aac57604051632a87526960e21b815260048101829052602401610d2f565b6119238383611d43565b306001600160a01b037f00000000000000000000000000000000000000000000000000000000000000001614610cf55760405163703e46dd60e11b815260040160405180910390fd5b7f237e158222e3e6968b72b9db0d8043aacf074ad9f650f0d1606b4d82ee432c0080546001600160a01b0319168155610c3182611d98565b5f807ff0c57e16840df040f15088dc2f81fe391c3923bec73e23a9662efc9c229c6a005b92915050565b611b69611e08565b610d4181611e2d565b610cf5611e08565b611b82611e08565b610cf5611e5e565b5f611b5b603c836125fb565b5f5f826001600160a01b031663313ce5676040518163ffffffff1660e01b8152600401602060405180830381865afa158015611bd4573d5f5f3e3d5ffd5b505050506040513d601f19601f82011682018060405250810190611bf891906123ef565b90505f60025f9054906101000a90046001600160a01b03166001600160a01b0316637158da7c6040518163ffffffff1660e01b8152600401602060405180830381865afa158015611c4b573d5f5f3e3d5ffd5b505050506040513d601f19601f82011682018060405250810190611c6f91906122e0565b6001600160a01b031663313ce5676040518163ffffffff1660e01b8152600401602060405180830381865afa158015611caa573d5f5f3e3d5ffd5b505050506040513d601f19601f82011682018060405250810190611cce91906123ef565b90505f8260ff168260ff1610611d0457611ce8838361269b565b611cf390600a612506565b611cfd9087612664565b9050611d26565b611d0e828461269b565b611d1990600a612506565b611d23908761264d565b90505b86611d39670de0b6b3a76400008361264d565b6117369190612664565b611d4c82611e66565b6040516001600160a01b038316907fbc7cd75a20ee27fd9adebab32041f755214dbc6bffa90cc0225b39da2e5c2d3b905f90a2805115611d90576119238282611ec9565b610c31611f3b565b7f9016d09d72d40fdae2fd8ceac6b6234c7706214fd39c1cd1e609a0528c19930080546001600160a01b031981166001600160a01b03848116918217845560405192169182907f8be0079c531659141344cd1fd0a4f28419497f9722a3daafe3b4186f6b6457e0905f90a3505050565b611e10611f5a565b610cf557604051631afcd79f60e31b815260040160405180910390fd5b611e35611e08565b6001600160a01b038116610d3857604051631e4fbdf760e01b81525f6004820152602401610d2f565b611928611e08565b806001600160a01b03163b5f03611e9b57604051634c9c8ce360e01b81526001600160a01b0382166004820152602401610d2f565b5f5160206126cb5f395f51905f5280546001600160a01b0319166001600160a01b0392909216919091179055565b60605f5f846001600160a01b031684604051611ee591906126b4565b5f60405180830381855af49150503d805f8114611f1d576040519150601f19603f3d011682016040523d82523d5f602084013e611f22565b606091505b5091509150611f32858383611f73565b95945050505050565b3415610cf55760405163b398979f60e01b815260040160405180910390fd5b5f611f63611b37565b54600160401b900460ff16919050565b606082611f8857611f8382611fd2565b611fcb565b8151158015611f9f57506001600160a01b0384163b155b15611fc857604051639996b31560e01b81526001600160a01b0385166004820152602401610d2f565b50805b9392505050565b805115611fe25780518082602001fd5b60405163d6bda27560e01b815260040160405180910390fd5b5080545f8255905f5260205f2090810190610d4191905b80821115612025575f8155600101612012565b5090565b6001600160a01b0381168114610d41575f5ffd5b5f6020828403121561204d575f5ffd5b8135611fcb81612029565b5f5f60208385031215612069575f5ffd5b82356001600160401b0381111561207e575f5ffd5b8301601f8101851361208e575f5ffd5b80356001600160401b038111156120a3575f5ffd5b8560208284010111156120b4575f5ffd5b6020919091019590945092505050565b634e487b7160e01b5f52604160045260245ffd5b604051601f8201601f191681016001600160401b0381118282101715612100576121006120c4565b604052919050565b5f5f60408385031215612119575f5ffd5b823561212481612029565b915060208301356001600160401b0381111561213e575f5ffd5b8301601f8101851361214e575f5ffd5b80356001600160401b03811115612167576121676120c4565b61217a601f8201601f19166020016120d8565b81815286602083850101111561218e575f5ffd5b816020840160208301375f602083830101528093505050509250929050565b5f81518084528060208401602086015e5f602082860101526020601f19601f83011685010191505092915050565b8215158152604060208201525f6121f560408301846121ad565b949350505050565b604080825283519082018190525f9060208501906060840190835b8181101561223f5783516001600160a01b0316835260209384019390920191600101612218565b5050838103602080860191909152855180835291810192508501905f5b8181101561227a57825184526020938401939092019160010161225c565b50919695505050505050565b602081525f611fcb60208301846121ad565b5f5f5f606084860312156122aa575f5ffd5b83356122b581612029565b925060208401356122c581612029565b915060408401356122d581612029565b809150509250925092565b5f602082840312156122f0575f5ffd5b8151611fcb81612029565b634e487b7160e01b5f52602160045260245ffd5b6020810160028310612323576123236122fb565b91905290565b5f6001600160401b03821115612341576123416120c4565b5060051b60200190565b5f82601f83011261235a575f5ffd5b815161236d61236882612329565b6120d8565b8082825260208201915060208360051b86010192508583111561238e575f5ffd5b602085015b838110156123b45780516123a681612029565b835260209283019201612393565b5095945050505050565b5f602082840312156123ce575f5ffd5b81516001600160401b038111156123e3575f5ffd5b6121f58482850161234b565b5f602082840312156123ff575f5ffd5b815160ff81168114611fcb575f5ffd5b634e487b7160e01b5f52601160045260245ffd5b6001815b600184111561245e578085048111156124425761244261240f565b600184161561245057908102905b60019390931c928002612427565b935093915050565b5f8261247457506001611b5b565b8161248057505f611b5b565b816001811461249657600281146124a0576124bc565b6001915050611b5b565b60ff8411156124b1576124b161240f565b50506001821b611b5b565b5060208310610133831016604e8410600b84101617156124df575081810a611b5b565b6124eb5f198484612423565b805f19048211156124fe576124fe61240f565b029392505050565b5f611fcb60ff841683612466565b634e487b7160e01b5f52603260045260245ffd5b5f5f60408385031215612539575f5ffd5b82516001600160401b0381111561254e575f5ffd5b61255a8582860161234b565b92505060208301516001600160401b03811115612575575f5ffd5b8301601f81018513612585575f5ffd5b805161259361236882612329565b8082825260208201915060208360051b8501019250878311156125b4575f5ffd5b6020840193505b828410156125d65783518252602093840193909101906125bb565b809450505050509250929050565b5f602082840312156125f4575f5ffd5b5051919050565b80820180821115611b5b57611b5b61240f565b83815260208101839052606081016004831061262c5761262c6122fb565b826040830152949350505050565b81810381811115611b5b57611b5b61240f565b8082028115828204841417611b5b57611b5b61240f565b5f8261267e57634e487b7160e01b5f52601260045260245ffd5b500490565b5f600182016126945761269461240f565b5060010190565b60ff8281168282160390811115611b5b57611b5b61240f565b5f82518060208501845e5f92019182525091905056fe360894a13ba1a3210667c828492db98dca3e2076cc3735a920a3ca505d382bbca2646970667358221220759d9d48a94e52907399a2977a6fa4a023aefd7fc1993e337a6acd9f86ac900164736f6c634300081c0033",
  "linkReferences": {},
  "deployedLinkReferences": {}
}