{
  "_format": "hh-sol-artifact-1",
  "contractName": "InternalStatesOrchestrator",
  "sourceName": "contracts/orchestrators/InternalStatesOrchestrator.sol",
  "abi": [
    {
      "inputs": [
        {
          "internalType": "address",
          "name": "target",
          "type": "address"
        }
      ],
      "name": "AddressEmptyCode",
      "type": "error"
    },
    {
      "inputs": [
        {
          "internalType": "address",
          "name": "implementation",
          "type": "address"
        }
      ],
      "name": "ERC1967InvalidImplementation",
      "type": "error"
    },
    {
      "inputs": [],
      "name": "ERC1967NonPayable",
      "type": "error"
    },
    {
      "inputs": [],
      "name": "FailedCall",
      "type": "error"
    },
    {
      "inputs": [],
      "name": "InvalidInitialization",
      "type": "error"
    },
    {
      "inputs": [],
      "name": "NotAuthorized",
      "type": "error"
    },
    {
      "inputs": [],
      "name": "NotInitializing",
      "type": "error"
    },
    {
      "inputs": [
        {
          "internalType": "address",
          "name": "owner",
          "type": "address"
        }
      ],
      "name": "OwnableInvalidOwner",
      "type": "error"
    },
    {
      "inputs": [
        {
          "internalType": "address",
          "name": "account",
          "type": "address"
        }
      ],
      "name": "OwnableUnauthorizedAccount",
      "type": "error"
    },
    {
      "inputs": [],
      "name": "ReentrancyGuardReentrantCall",
      "type": "error"
    },
    {
      "inputs": [],
      "name": "TooEarly",
      "type": "error"
    },
    {
      "inputs": [],
      "name": "UUPSUnauthorizedCallContext",
      "type": "error"
    },
    {
      "inputs": [
        {
          "internalType": "bytes32",
          "name": "slot",
          "type": "bytes32"
        }
      ],
      "name": "UUPSUnsupportedProxiableUUID",
      "type": "error"
    },
    {
      "inputs": [],
      "name": "ZeroAddress",
      "type": "error"
    },
    {
      "anonymous": false,
      "inputs": [
        {
          "indexed": true,
          "internalType": "address",
          "name": "newAutomationRegistry",
          "type": "address"
        }
      ],
      "name": "AutomationRegistryUpdated",
      "type": "event"
    },
    {
      "anonymous": false,
      "inputs": [
        {
          "indexed": false,
          "internalType": "uint64",
          "name": "version",
          "type": "uint64"
        }
      ],
      "name": "Initialized",
      "type": "event"
    },
    {
      "anonymous": false,
      "inputs": [
        {
          "indexed": false,
          "internalType": "uint256",
          "name": "epochCounter",
          "type": "uint256"
        }
      ],
      "name": "InternalStateProcessed",
      "type": "event"
    },
    {
      "anonymous": false,
      "inputs": [
        {
          "indexed": true,
          "internalType": "address",
          "name": "previousOwner",
          "type": "address"
        },
        {
          "indexed": true,
          "internalType": "address",
          "name": "newOwner",
          "type": "address"
        }
      ],
      "name": "OwnershipTransferStarted",
      "type": "event"
    },
    {
      "anonymous": false,
      "inputs": [
        {
          "indexed": true,
          "internalType": "address",
          "name": "previousOwner",
          "type": "address"
        },
        {
          "indexed": true,
          "internalType": "address",
          "name": "newOwner",
          "type": "address"
        }
      ],
      "name": "OwnershipTransferred",
      "type": "event"
    },
    {
      "anonymous": false,
      "inputs": [
        {
          "indexed": true,
          "internalType": "address",
          "name": "implementation",
          "type": "address"
        }
      ],
      "name": "Upgraded",
      "type": "event"
    },
    {
      "inputs": [],
      "name": "UPGRADE_INTERFACE_VERSION",
      "outputs": [
        {
          "internalType": "string",
          "name": "",
          "type": "string"
        }
      ],
      "stateMutability": "view",
      "type": "function"
    },
    {
      "inputs": [],
      "name": "acceptOwnership",
      "outputs": [],
      "stateMutability": "nonpayable",
      "type": "function"
    },
    {
      "inputs": [],
      "name": "automationRegistry",
      "outputs": [
        {
          "internalType": "address",
          "name": "",
          "type": "address"
        }
      ],
      "stateMutability": "view",
      "type": "function"
    },
    {
      "inputs": [
        {
          "internalType": "bytes",
          "name": "",
          "type": "bytes"
        }
      ],
      "name": "checkUpkeep",
      "outputs": [
        {
          "internalType": "bool",
          "name": "upkeepNeeded",
          "type": "bool"
        },
        {
          "internalType": "bytes",
          "name": "performData",
          "type": "bytes"
        }
      ],
      "stateMutability": "view",
      "type": "function"
    },
    {
      "inputs": [],
      "name": "config",
      "outputs": [
        {
          "internalType": "contract IOrionConfig",
          "name": "",
          "type": "address"
        }
      ],
      "stateMutability": "view",
      "type": "function"
    },
    {
      "inputs": [],
      "name": "epochCounter",
      "outputs": [
        {
          "internalType": "uint256",
          "name": "",
          "type": "uint256"
        }
      ],
      "stateMutability": "view",
      "type": "function"
    },
    {
      "inputs": [],
      "name": "getBuyingOrders",
      "outputs": [
        {
          "internalType": "address[]",
          "name": "tokens",
          "type": "address[]"
        },
        {
          "internalType": "uint256[]",
          "name": "amounts",
          "type": "uint256[]"
        }
      ],
      "stateMutability": "view",
      "type": "function"
    },
    {
      "inputs": [],
      "name": "getSellingOrders",
      "outputs": [
        {
          "internalType": "address[]",
          "name": "tokens",
          "type": "address[]"
        },
        {
          "internalType": "uint256[]",
          "name": "amounts",
          "type": "uint256[]"
        }
      ],
      "stateMutability": "view",
      "type": "function"
    },
    {
      "inputs": [
        {
          "internalType": "address",
          "name": "initialOwner",
          "type": "address"
        },
        {
          "internalType": "address",
          "name": "automationRegistry_",
          "type": "address"
        },
        {
          "internalType": "address",
          "name": "config_",
          "type": "address"
        }
      ],
      "name": "initialize",
      "outputs": [],
      "stateMutability": "nonpayable",
      "type": "function"
    },
    {
      "inputs": [],
      "name": "nextUpdateTime",
      "outputs": [
        {
          "internalType": "uint256",
          "name": "",
          "type": "uint256"
        }
      ],
      "stateMutability": "view",
      "type": "function"
    },
    {
      "inputs": [],
      "name": "owner",
      "outputs": [
        {
          "internalType": "address",
          "name": "",
          "type": "address"
        }
      ],
      "stateMutability": "view",
      "type": "function"
    },
    {
      "inputs": [],
      "name": "pendingOwner",
      "outputs": [
        {
          "internalType": "address",
          "name": "",
          "type": "address"
        }
      ],
      "stateMutability": "view",
      "type": "function"
    },
    {
      "inputs": [
        {
          "internalType": "bytes",
          "name": "",
          "type": "bytes"
        }
      ],
      "name": "performUpkeep",
      "outputs": [],
      "stateMutability": "nonpayable",
      "type": "function"
    },
    {
      "inputs": [],
      "name": "proxiableUUID",
      "outputs": [
        {
          "internalType": "bytes32",
          "name": "",
          "type": "bytes32"
        }
      ],
      "stateMutability": "view",
      "type": "function"
    },
    {
      "inputs": [],
      "name": "renounceOwnership",
      "outputs": [],
      "stateMutability": "nonpayable",
      "type": "function"
    },
    {
      "inputs": [
        {
          "internalType": "address",
          "name": "newOwner",
          "type": "address"
        }
      ],
      "name": "transferOwnership",
      "outputs": [],
      "stateMutability": "nonpayable",
      "type": "function"
    },
    {
      "inputs": [
        {
          "internalType": "address",
          "name": "newAutomationRegistry",
          "type": "address"
        }
      ],
      "name": "updateAutomationRegistry",
      "outputs": [],
      "stateMutability": "nonpayable",
      "type": "function"
    },
    {
      "inputs": [
        {
          "internalType": "address",
          "name": "newConfig",
          "type": "address"
        }
      ],
      "name": "updateConfig",
      "outputs": [],
      "stateMutability": "nonpayable",
      "type": "function"
    },
    {
      "inputs": [],
      "name": "updateInterval",
      "outputs": [
        {
          "internalType": "uint256",
          "name": "",
          "type": "uint256"
        }
      ],
      "stateMutability": "view",
      "type": "function"
    },
    {
      "inputs": [
        {
          "internalType": "address",
          "name": "newImplementation",
          "type": "address"
        },
        {
          "internalType": "bytes",
          "name": "data",
          "type": "bytes"
        }
      ],
      "name": "upgradeToAndCall",
      "outputs": [],
      "stateMutability": "payable",
      "type": "function"
    }
  ],
  "bytecode": "0x60a0604052306080523480156012575f5ffd5b506080516120516100395f395f81816113ae015281816113d7015261151601526120515ff3fe60806040526004361061011b575f3560e01c806379502c551161009d578063c0c53b8b11610062578063c0c53b8b146102ff578063c2cb5d881461031e578063e30c397814610332578063f2fde38b14610346578063fd2c80ae14610365575f5ffd5b806379502c551461025957806379ba5097146102785780638da5cb5b1461028c578063a08b82d7146102a0578063ad3cb1cc146102c2575f5ffd5b806352d1902d116100e357806352d1902d146101ae5780635dc228a0146101c25780636cc919c8146101f95780636e04ff0d14610218578063715018a614610245575f5ffd5b806314b19c5a1461011f57806314b5d07f1461014757806335238fb8146101685780634585e33b1461017c5780634f1ef2861461019b575b5f5ffd5b34801561012a575f5ffd5b5061013460035481565b6040519081526020015b60405180910390f35b348015610152575f5ffd5b50610166610161366004611aa3565b610379565b005b348015610173575f5ffd5b506101345f5481565b348015610187575f5ffd5b50610166610196366004611abe565b6103f1565b6101666101a9366004611b6e565b610be6565b3480156101b9575f5ffd5b50610134610c01565b3480156101cd575f5ffd5b506001546101e1906001600160a01b031681565b6040516001600160a01b03909116815260200161013e565b348015610204575f5ffd5b50610166610213366004611aa3565b610c1c565b348015610223575f5ffd5b50610237610232366004611abe565b610c6d565b60405161013e929190611c41565b348015610250575f5ffd5b50610166610c95565b348015610264575f5ffd5b506002546101e1906001600160a01b031681565b348015610283575f5ffd5b50610166610ca8565b348015610297575f5ffd5b506101e1610cf5565b3480156102ab575f5ffd5b506102b4610d29565b60405161013e929190611c5b565b3480156102cd575f5ffd5b506102f2604051806040016040528060058152602001640352e302e360dc1b81525081565b60405161013e9190611ce4565b34801561030a575f5ffd5b50610166610319366004611cf6565b610e3d565b348015610329575f5ffd5b506102b4610fdc565b34801561033d575f5ffd5b506101e16110ea565b348015610351575f5ffd5b50610166610360366004611aa3565b611112565b348015610370575f5ffd5b50610134603c81565b610381611197565b6001600160a01b0381166103a85760405163d92e233d60e01b815260040160405180910390fd5b600180546001600160a01b0319166001600160a01b0383169081179091556040517f6cc7ebdb6c8c53291c5ae16148cab9b049d23bf5bde5632900b40edff56fcb43905f90a250565b6001546001600160a01b0316331461041c5760405163ea8e4eb560e01b815260040160405180910390fd5b6104246111c9565b5f544210156104465760405163085de62560e01b815260040160405180910390fd5b61044f42611213565b5f908155600380549161046183611d52565b909155505060025460408051634bb93ab160e01b815290515f926001600160a01b031691634bb93ab19160048083019260209291908290030181865afa1580156104ad573d5f5f3e3d5ffd5b505050506040513d601f19601f820116820180604052508101906104d19190611d6a565b90506104dd6004611225565b6104e76007611225565b6104f1600a611225565b6104fb600d611225565b6105056010611225565b600254604051631da09e4360e31b81525f916001600160a01b03169063ed04f21890610535908490600401611d99565b5f60405180830381865afa15801561054f573d5f5f3e3d5ffd5b505050506040513d5f823e601f3d908101601f191682016040526105769190810190611e48565b80519091505f5b818110156109f2575f83828151811061059857610598611e81565b602002602001015190505f5f826001600160a01b031663d3d034586040518163ffffffff1660e01b81526004015f60405180830381865afa1580156105df573d5f5f3e3d5ffd5b505050506040513d5f823e601f3d908101601f191682016040526106069190810190611e95565b815191935091505f90815b81811015610760575f85828151811061062c5761062c611e81565b602002602001015190505f5f5f61064d84600461122e90919063ffffffff16565b91509150811561065f578092506106d7565b6040516341976e0960e01b81526001600160a01b0385811660048301528f16906341976e0990602401602060405180830381865afa1580156106a3573d5f5f3e3d5ffd5b505050506040513d601f19601f820116820180604052508101906106c79190611f51565b92506106d560048585611254565b505b5f8886815181106106ea576106ea611e81565b6020026020010151846106fd9190611f68565b90506107098189611f7f565b97505f8061071860078861122e565b91509150811561073f57610739876107308584611f7f565b60079190611254565b5061074d565b61074b60078885611254565b505b5050600190950194506106119350505050565b505f856001600160a01b031663a68a5267876001600160a01b031663c37fc8a86040518163ffffffff1660e01b8152600401602060405180830381865afa1580156107ad573d5f5f3e3d5ffd5b505050506040513d601f19601f820116820180604052508101906107d19190611f51565b855f6040518463ffffffff1660e01b81526004016107f193929190611f92565b602060405180830381865afa15801561080c573d5f5f3e3d5ffd5b505050506040513d601f19601f820116820180604052508101906108309190611f51565b90505f81876001600160a01b031663d1699c266040518163ffffffff1660e01b8152600401602060405180830381865afa158015610870573d5f5f3e3d5ffd5b505050506040513d601f19601f820116820180604052508101906108949190611f51565b61089e9086611f7f565b6108a89190611fbe565b90505f5f886001600160a01b031663b6eba6536040518163ffffffff1660e01b81526004015f60405180830381865afa1580156108e7573d5f5f3e3d5ffd5b505050506040513d5f823e601f3d908101601f1916820160405261090e9190810190611e95565b815191935091505f5b818110156109db575f84828151811061093257610932611e81565b602002602001015190505f84838151811061094f5761094f611e81565b602002602001015190505f81886109669190611f68565b90505f80610975600a8661122e565b9150915081156109ac575f6109978661098e8685611f7f565b600a9190611254565b9050806109a6576109a6611fd1565b506109ca565b5f6109b9600a8786611254565b9050806109c8576109c8611fd1565b505b505060019093019250610917915050565b50506001909901985061057d975050505050505050565b50600254604051631da09e4360e31b81525f916001600160a01b03169063ed04f21890610a2490600190600401611d99565b5f60405180830381865afa158015610a3e573d5f5f3e3d5ffd5b505050506040513d5f823e601f3d908101601f19168201604052610a659190810190611e48565b8051925090505f5b82811015610b71575f828281518110610a8857610a88611e81565b602002602001015190505f5f826001600160a01b031663d3d034586040518163ffffffff1660e01b81526004015f60405180830381865afa158015610acf573d5f5f3e3d5ffd5b505050506040513d5f823e601f3d908101601f19168201604052610af69190810190611e95565b915091505f5f846001600160a01b031663b6eba6536040518163ffffffff1660e01b81526004015f60405180830381865afa158015610b37573d5f5f3e3d5ffd5b505050506040513d5f823e601f3d908101601f19168201604052610b5e9190810190611e95565b505060019095019450610a6d9350505050565b50610b7a611273565b7f9375d658f91055a030c54d5cf460d6f12968b10b80b0797c1aa5c02e4dca9403600354604051610bad91815260200190565b60405180910390a150505050610be260017f9b779b17422d0df92223018b32b4d1fa46e071723d6817e2486d003becc55f0055565b5050565b610bee6113a3565b610bf782611447565b610be2828261144f565b5f610c0a61150b565b505f516020611ffc5f395f51905f5290565b610c24611197565b6001600160a01b038116610c4b5760405163d92e233d60e01b815260040160405180910390fd5b600280546001600160a01b0319166001600160a01b0392909216919091179055565b5f6060610c7b5f5442101590565b915060405180602001604052805f81525090509250929050565b610c9d611197565b610ca65f611554565b565b3380610cb26110ea565b6001600160a01b031614610ce95760405163118cdaa760e01b81526001600160a01b03821660048201526024015b60405180910390fd5b610cf281611554565b50565b5f807f9016d09d72d40fdae2fd8ceac6b6234c7706214fd39c1cd1e609a0528c1993005b546001600160a01b031692915050565b6060805f610d37601061158c565b9050806001600160401b03811115610d5157610d51611b2a565b604051908082528060200260200182016040528015610d7a578160200160208202803683370190505b509250806001600160401b03811115610d9557610d95611b2a565b604051908082528060200260200182016040528015610dbe578160200160208202803683370190505b5091505f5b81811015610e37575f80610dd8601084611596565b9150915081868481518110610def57610def611e81565b60200260200101906001600160a01b031690816001600160a01b03168152505080858481518110610e2257610e22611e81565b60209081029190910101525050600101610dc3565b50509091565b5f610e466115a4565b805490915060ff600160401b82041615906001600160401b03165f81158015610e6c5750825b90505f826001600160401b03166001148015610e875750303b155b905081158015610e95575080155b15610eb35760405163f92ee8a960e01b815260040160405180910390fd5b845467ffffffffffffffff191660011785558315610edd57845460ff60401b1916600160401b1785555b610ee6886115cc565b610eee6115dd565b610ef66115e5565b610efe6115dd565b6001600160a01b038716610f255760405163d92e233d60e01b815260040160405180910390fd5b6001600160a01b038616610f4c5760405163d92e233d60e01b815260040160405180910390fd5b600180546001600160a01b03808a166001600160a01b0319928316179092556002805492891692909116919091179055610f8542611213565b5f9081556003558315610fd257845460ff60401b19168555604051600181527fc7f505b2f371ae2175ee4913f4499e1f2633a7b5936321eed1cdaeb6115181d29060200160405180910390a15b5050505050505050565b6060805f610fea600d61158c565b9050806001600160401b0381111561100457611004611b2a565b60405190808252806020026020018201604052801561102d578160200160208202803683370190505b509250806001600160401b0381111561104857611048611b2a565b604051908082528060200260200182016040528015611071578160200160208202803683370190505b5091505f5b81811015610e37575f8061108b600d84611596565b91509150818684815181106110a2576110a2611e81565b60200260200101906001600160a01b031690816001600160a01b031681525050808584815181106110d5576110d5611e81565b60209081029190910101525050600101611076565b5f807f237e158222e3e6968b72b9db0d8043aacf074ad9f650f0d1606b4d82ee432c00610d19565b61111a611197565b7f237e158222e3e6968b72b9db0d8043aacf074ad9f650f0d1606b4d82ee432c0080546001600160a01b0319166001600160a01b038316908117825561115e610cf5565b6001600160a01b03167f38d16b8cac22d99fc7c124b9cd0de2d3fa1faef420bfe791d8c362d765e2270060405160405180910390a35050565b336111a0610cf5565b6001600160a01b031614610ca65760405163118cdaa760e01b8152336004820152602401610ce0565b7f9b779b17422d0df92223018b32b4d1fa46e071723d6817e2486d003becc55f0080546001190161120d57604051633ee5aeb560e01b815260040160405180910390fd5b60029055565b5f61121f603c83611f7f565b92915050565b610cf2816115f5565b5f808080611245866001600160a01b03871661163e565b909450925050505b9250929050565b5f611269846001600160a01b03851684611676565b90505b9392505050565b5f61127e600761158c565b90505f5b81811015611321575f80611297600784611596565b90925090505f806112a9600a8561122e565b91509150816112c8576112be600d8585611254565b5050505050611319565b808311156112f0575f6112db8285611fbe565b90506112e9600d8683611254565b5050611314565b82811115611314575f6113038483611fbe565b905061131160108683611254565b50505b505050505b600101611282565b505f61132d600a61158c565b90505f5b81811015611378575f80611346600a84611596565b90925090505f61135760078461122e565b5090508061136d5761136b60108484611254565b505b505050600101611331565b505050565b60017f9b779b17422d0df92223018b32b4d1fa46e071723d6817e2486d003becc55f0055565b306001600160a01b037f000000000000000000000000000000000000000000000000000000000000000016148061142957507f00000000000000000000000000000000000000000000000000000000000000006001600160a01b031661141d5f516020611ffc5f395f51905f52546001600160a01b031690565b6001600160a01b031614155b15610ca65760405163703e46dd60e11b815260040160405180910390fd5b610cf2611197565b816001600160a01b03166352d1902d6040518163ffffffff1660e01b8152600401602060405180830381865afa9250505080156114a9575060408051601f3d908101601f191682019092526114a691810190611f51565b60015b6114d157604051634c9c8ce360e01b81526001600160a01b0383166004820152602401610ce0565b5f516020611ffc5f395f51905f52811461150157604051632a87526960e21b815260048101829052602401610ce0565b6113788383611692565b306001600160a01b037f00000000000000000000000000000000000000000000000000000000000000001614610ca65760405163703e46dd60e11b815260040160405180910390fd5b7f237e158222e3e6968b72b9db0d8043aacf074ad9f650f0d1606b4d82ee432c0080546001600160a01b0319168155610be2826116e7565b5f61121f82611757565b5f8080806112458686611761565b5f807ff0c57e16840df040f15088dc2f81fe391c3923bec73e23a9662efc9c229c6a0061121f565b6115d461178a565b610cf2816117af565b610ca661178a565b6115ed61178a565b610ca66117e0565b5f6115ff82611757565b90505f5b8181101561163457600283015f61161a85846117e8565b815260208101919091526040015f90812055600101611603565b50610be2826117f3565b5f81815260028301602052604081205481908061166b5761165f85856117fc565b92505f915061124d9050565b60019250905061124d565b5f82815260028401602052604081208290556112698484611807565b61169b82611812565b6040516001600160a01b038316907fbc7cd75a20ee27fd9adebab32041f755214dbc6bffa90cc0225b39da2e5c2d3b905f90a28051156116df576113788282611875565b610be26118e7565b7f9016d09d72d40fdae2fd8ceac6b6234c7706214fd39c1cd1e609a0528c19930080546001600160a01b031981166001600160a01b03848116918217845560405192169182907f8be0079c531659141344cd1fd0a4f28419497f9722a3daafe3b4186f6b6457e0905f90a3505050565b5f61121f82611906565b5f808061176e85856117e8565b5f81815260029690960160205260409095205494959350505050565b61179261190f565b610ca657604051631afcd79f60e31b815260040160405180910390fd5b6117b761178a565b6001600160a01b038116610ce957604051631e4fbdf760e01b81525f6004820152602401610ce0565b61137d61178a565b5f61126c8383611928565b610cf28161194e565b5f61126c83836119a7565b5f61126c83836119be565b806001600160a01b03163b5f0361184757604051634c9c8ce360e01b81526001600160a01b0382166004820152602401610ce0565b5f516020611ffc5f395f51905f5280546001600160a01b0319166001600160a01b0392909216919091179055565b60605f5f846001600160a01b0316846040516118919190611fe5565b5f60405180830381855af49150503d805f81146118c9576040519150601f19603f3d011682016040523d82523d5f602084013e6118ce565b606091505b50915091506118de858383611a0a565b95945050505050565b3415610ca65760405163b398979f60e01b815260040160405180910390fd5b5f61121f825490565b5f6119186115a4565b54600160401b900460ff16919050565b5f825f01828154811061193d5761193d611e81565b905f5260205f200154905092915050565b5f611957825490565b90505f5b818110156119a057826001015f845f01838154811061197c5761197c611e81565b905f5260205f20015481526020019081526020015f205f905580600101905061195b565b50505f9055565b5f818152600183016020526040812054151561126c565b5f818152600183016020526040812054611a0357508154600181810184555f84815260208082209093018490558454848252828601909352604090209190915561121f565b505f61121f565b606082611a1f57611a1a82611a66565b61126c565b8151158015611a3657506001600160a01b0384163b155b15611a5f57604051639996b31560e01b81526001600160a01b0385166004820152602401610ce0565b508061126c565b805115611a765780518082602001fd5b60405163d6bda27560e01b815260040160405180910390fd5b6001600160a01b0381168114610cf2575f5ffd5b5f60208284031215611ab3575f5ffd5b813561126c81611a8f565b5f5f60208385031215611acf575f5ffd5b82356001600160401b03811115611ae4575f5ffd5b8301601f81018513611af4575f5ffd5b80356001600160401b03811115611b09575f5ffd5b856020828401011115611b1a575f5ffd5b6020919091019590945092505050565b634e487b7160e01b5f52604160045260245ffd5b604051601f8201601f191681016001600160401b0381118282101715611b6657611b66611b2a565b604052919050565b5f5f60408385031215611b7f575f5ffd5b8235611b8a81611a8f565b915060208301356001600160401b03811115611ba4575f5ffd5b8301601f81018513611bb4575f5ffd5b80356001600160401b03811115611bcd57611bcd611b2a565b611be0601f8201601f1916602001611b3e565b818152866020838501011115611bf4575f5ffd5b816020840160208301375f602083830101528093505050509250929050565b5f81518084528060208401602086015e5f602082860101526020601f19601f83011685010191505092915050565b8215158152604060208201525f6112696040830184611c13565b604080825283519082018190525f9060208501906060840190835b81811015611c9d5783516001600160a01b0316835260209384019390920191600101611c76565b5050838103602080860191909152855180835291810192508501905f5b81811015611cd8578251845260209384019390920191600101611cba565b50919695505050505050565b602081525f61126c6020830184611c13565b5f5f5f60608486031215611d08575f5ffd5b8335611d1381611a8f565b92506020840135611d2381611a8f565b91506040840135611d3381611a8f565b809150509250925092565b634e487b7160e01b5f52601160045260245ffd5b5f60018201611d6357611d63611d3e565b5060010190565b5f60208284031215611d7a575f5ffd5b815161126c81611a8f565b634e487b7160e01b5f52602160045260245ffd5b6020810160028310611dad57611dad611d85565b91905290565b5f6001600160401b03821115611dcb57611dcb611b2a565b5060051b60200190565b5f82601f830112611de4575f5ffd5b8151611df7611df282611db3565b611b3e565b8082825260208201915060208360051b860101925085831115611e18575f5ffd5b602085015b83811015611e3e578051611e3081611a8f565b835260209283019201611e1d565b5095945050505050565b5f60208284031215611e58575f5ffd5b81516001600160401b03811115611e6d575f5ffd5b611e7984828501611dd5565b949350505050565b634e487b7160e01b5f52603260045260245ffd5b5f5f60408385031215611ea6575f5ffd5b82516001600160401b03811115611ebb575f5ffd5b611ec785828601611dd5565b92505060208301516001600160401b03811115611ee2575f5ffd5b8301601f81018513611ef2575f5ffd5b8051611f00611df282611db3565b8082825260208201915060208360051b850101925087831115611f21575f5ffd5b6020840193505b82841015611f43578351825260209384019390910190611f28565b809450505050509250929050565b5f60208284031215611f61575f5ffd5b5051919050565b808202811582820484141761121f5761121f611d3e565b8082018082111561121f5761121f611d3e565b838152602081018390526060810160048310611fb057611fb0611d85565b826040830152949350505050565b8181038181111561121f5761121f611d3e565b634e487b7160e01b5f52600160045260245ffd5b5f82518060208501845e5f92019182525091905056fe360894a13ba1a3210667c828492db98dca3e2076cc3735a920a3ca505d382bbca2646970667358221220b18735475923aae1270c312269f316192c777baad3d77671b4e73d231ff549ba64736f6c634300081c0033",
  "linkReferences": {},
  "deployedLinkReferences": {}
}