{
  "_format": "hh-sol-artifact-1",
  "contractName": "InternalStatesOrchestrator",
  "sourceName": "contracts/orchestrators/InternalStatesOrchestrator.sol",
  "abi": [
    {
      "inputs": [
        {
          "internalType": "address",
          "name": "target",
          "type": "address"
        }
      ],
      "name": "AddressEmptyCode",
      "type": "error"
    },
    {
      "inputs": [
        {
          "internalType": "address",
          "name": "implementation",
          "type": "address"
        }
      ],
      "name": "ERC1967InvalidImplementation",
      "type": "error"
    },
    {
      "inputs": [],
      "name": "ERC1967NonPayable",
      "type": "error"
    },
    {
      "inputs": [],
      "name": "FailedCall",
      "type": "error"
    },
    {
      "inputs": [],
      "name": "InvalidInitialization",
      "type": "error"
    },
    {
      "inputs": [],
      "name": "NotAuthorized",
      "type": "error"
    },
    {
      "inputs": [],
      "name": "NotInitializing",
      "type": "error"
    },
    {
      "inputs": [
        {
          "internalType": "address",
          "name": "owner",
          "type": "address"
        }
      ],
      "name": "OwnableInvalidOwner",
      "type": "error"
    },
    {
      "inputs": [
        {
          "internalType": "address",
          "name": "account",
          "type": "address"
        }
      ],
      "name": "OwnableUnauthorizedAccount",
      "type": "error"
    },
    {
      "inputs": [],
      "name": "ReentrancyGuardReentrantCall",
      "type": "error"
    },
    {
      "inputs": [],
      "name": "TooEarly",
      "type": "error"
    },
    {
      "inputs": [],
      "name": "UUPSUnauthorizedCallContext",
      "type": "error"
    },
    {
      "inputs": [
        {
          "internalType": "bytes32",
          "name": "slot",
          "type": "bytes32"
        }
      ],
      "name": "UUPSUnsupportedProxiableUUID",
      "type": "error"
    },
    {
      "inputs": [],
      "name": "ZeroAddress",
      "type": "error"
    },
    {
      "anonymous": false,
      "inputs": [
        {
          "indexed": true,
          "internalType": "address",
          "name": "newAutomationRegistry",
          "type": "address"
        }
      ],
      "name": "AutomationRegistryUpdated",
      "type": "event"
    },
    {
      "anonymous": false,
      "inputs": [
        {
          "indexed": false,
          "internalType": "uint64",
          "name": "version",
          "type": "uint64"
        }
      ],
      "name": "Initialized",
      "type": "event"
    },
    {
      "anonymous": false,
      "inputs": [
        {
          "indexed": false,
          "internalType": "uint256",
          "name": "epochCounter",
          "type": "uint256"
        }
      ],
      "name": "InternalStateProcessed",
      "type": "event"
    },
    {
      "anonymous": false,
      "inputs": [
        {
          "indexed": true,
          "internalType": "address",
          "name": "previousOwner",
          "type": "address"
        },
        {
          "indexed": true,
          "internalType": "address",
          "name": "newOwner",
          "type": "address"
        }
      ],
      "name": "OwnershipTransferStarted",
      "type": "event"
    },
    {
      "anonymous": false,
      "inputs": [
        {
          "indexed": true,
          "internalType": "address",
          "name": "previousOwner",
          "type": "address"
        },
        {
          "indexed": true,
          "internalType": "address",
          "name": "newOwner",
          "type": "address"
        }
      ],
      "name": "OwnershipTransferred",
      "type": "event"
    },
    {
      "anonymous": false,
      "inputs": [
        {
          "indexed": true,
          "internalType": "address",
          "name": "implementation",
          "type": "address"
        }
      ],
      "name": "Upgraded",
      "type": "event"
    },
    {
      "inputs": [],
      "name": "UPGRADE_INTERFACE_VERSION",
      "outputs": [
        {
          "internalType": "string",
          "name": "",
          "type": "string"
        }
      ],
      "stateMutability": "view",
      "type": "function"
    },
    {
      "inputs": [],
      "name": "acceptOwnership",
      "outputs": [],
      "stateMutability": "nonpayable",
      "type": "function"
    },
    {
      "inputs": [],
      "name": "automationRegistry",
      "outputs": [
        {
          "internalType": "address",
          "name": "",
          "type": "address"
        }
      ],
      "stateMutability": "view",
      "type": "function"
    },
    {
      "inputs": [
        {
          "internalType": "bytes",
          "name": "",
          "type": "bytes"
        }
      ],
      "name": "checkUpkeep",
      "outputs": [
        {
          "internalType": "bool",
          "name": "upkeepNeeded",
          "type": "bool"
        },
        {
          "internalType": "bytes",
          "name": "performData",
          "type": "bytes"
        }
      ],
      "stateMutability": "view",
      "type": "function"
    },
    {
      "inputs": [],
      "name": "config",
      "outputs": [
        {
          "internalType": "contract IOrionConfig",
          "name": "",
          "type": "address"
        }
      ],
      "stateMutability": "view",
      "type": "function"
    },
    {
      "inputs": [],
      "name": "epochCounter",
      "outputs": [
        {
          "internalType": "uint256",
          "name": "",
          "type": "uint256"
        }
      ],
      "stateMutability": "view",
      "type": "function"
    },
    {
      "inputs": [],
      "name": "expectedUnderlyingBuyAmount",
      "outputs": [
        {
          "internalType": "uint256",
          "name": "",
          "type": "uint256"
        }
      ],
      "stateMutability": "view",
      "type": "function"
    },
    {
      "inputs": [],
      "name": "expectedUnderlyingSellAmount",
      "outputs": [
        {
          "internalType": "uint256",
          "name": "",
          "type": "uint256"
        }
      ],
      "stateMutability": "view",
      "type": "function"
    },
    {
      "inputs": [],
      "name": "getBuyingOrders",
      "outputs": [
        {
          "internalType": "address[]",
          "name": "tokens",
          "type": "address[]"
        },
        {
          "internalType": "uint256[]",
          "name": "amounts",
          "type": "uint256[]"
        }
      ],
      "stateMutability": "view",
      "type": "function"
    },
    {
      "inputs": [],
      "name": "getSellingOrders",
      "outputs": [
        {
          "internalType": "address[]",
          "name": "tokens",
          "type": "address[]"
        },
        {
          "internalType": "uint256[]",
          "name": "amounts",
          "type": "uint256[]"
        }
      ],
      "stateMutability": "view",
      "type": "function"
    },
    {
      "inputs": [
        {
          "internalType": "address",
          "name": "initialOwner",
          "type": "address"
        },
        {
          "internalType": "address",
          "name": "automationRegistry_",
          "type": "address"
        },
        {
          "internalType": "address",
          "name": "config_",
          "type": "address"
        }
      ],
      "name": "initialize",
      "outputs": [],
      "stateMutability": "nonpayable",
      "type": "function"
    },
    {
      "inputs": [],
      "name": "nextUpdateTime",
      "outputs": [
        {
          "internalType": "uint256",
          "name": "",
          "type": "uint256"
        }
      ],
      "stateMutability": "view",
      "type": "function"
    },
    {
      "inputs": [],
      "name": "owner",
      "outputs": [
        {
          "internalType": "address",
          "name": "",
          "type": "address"
        }
      ],
      "stateMutability": "view",
      "type": "function"
    },
    {
      "inputs": [],
      "name": "pendingOwner",
      "outputs": [
        {
          "internalType": "address",
          "name": "",
          "type": "address"
        }
      ],
      "stateMutability": "view",
      "type": "function"
    },
    {
      "inputs": [
        {
          "internalType": "bytes",
          "name": "",
          "type": "bytes"
        }
      ],
      "name": "performUpkeep",
      "outputs": [],
      "stateMutability": "nonpayable",
      "type": "function"
    },
    {
      "inputs": [],
      "name": "proxiableUUID",
      "outputs": [
        {
          "internalType": "bytes32",
          "name": "",
          "type": "bytes32"
        }
      ],
      "stateMutability": "view",
      "type": "function"
    },
    {
      "inputs": [],
      "name": "renounceOwnership",
      "outputs": [],
      "stateMutability": "nonpayable",
      "type": "function"
    },
    {
      "inputs": [
        {
          "internalType": "address",
          "name": "newOwner",
          "type": "address"
        }
      ],
      "name": "transferOwnership",
      "outputs": [],
      "stateMutability": "nonpayable",
      "type": "function"
    },
    {
      "inputs": [
        {
          "internalType": "address",
          "name": "newAutomationRegistry",
          "type": "address"
        }
      ],
      "name": "updateAutomationRegistry",
      "outputs": [],
      "stateMutability": "nonpayable",
      "type": "function"
    },
    {
      "inputs": [
        {
          "internalType": "address",
          "name": "newConfig",
          "type": "address"
        }
      ],
      "name": "updateConfig",
      "outputs": [],
      "stateMutability": "nonpayable",
      "type": "function"
    },
    {
      "inputs": [],
      "name": "updateInterval",
      "outputs": [
        {
          "internalType": "uint256",
          "name": "",
          "type": "uint256"
        }
      ],
      "stateMutability": "view",
      "type": "function"
    },
    {
      "inputs": [
        {
          "internalType": "address",
          "name": "newImplementation",
          "type": "address"
        },
        {
          "internalType": "bytes",
          "name": "data",
          "type": "bytes"
        }
      ],
      "name": "upgradeToAndCall",
      "outputs": [],
      "stateMutability": "payable",
      "type": "function"
    }
  ],
  "bytecode": "0x60a06040523073ffffffffffffffffffffffffffffffffffffffff1660809073ffffffffffffffffffffffffffffffffffffffff168152503480156041575f5ffd5b5060805161544e6100685f395f818161376c015281816137c101526139b7015261544e5ff3fe608060405260043610610134575f3560e01c8063715018a6116100aa578063ad3cb1cc1161006e578063ad3cb1cc146103b0578063c0c53b8b146103da578063c2cb5d8814610402578063e30c39781461042d578063f2fde38b14610457578063fd2c80ae1461047f57610134565b8063715018a61461030557806379502c551461031b57806379ba5097146103455780638da5cb5b1461035b578063a08b82d71461038557610134565b80634a1d9625116100fc5780634a1d9625146102065780634f1ef2861461023057806352d1902d1461024c5780635dc228a0146102765780636cc919c8146102a05780636e04ff0d146102c857610134565b806306cce8481461013857806314b19c5a1461016257806314b5d07f1461018c57806335238fb8146101b45780634585e33b146101de575b5f5ffd5b348015610143575f5ffd5b5061014c6104a9565b6040516101599190614456565b60405180910390f35b34801561016d575f5ffd5b506101766104af565b6040516101839190614456565b60405180910390f35b348015610197575f5ffd5b506101b260048036038101906101ad91906144da565b6104b5565b005b3480156101bf575f5ffd5b506101c8610670565b6040516101d59190614456565b60405180910390f35b3480156101e9575f5ffd5b5061020460048036038101906101ff9190614566565b610675565b005b348015610211575f5ffd5b5061021a611404565b6040516102279190614456565b60405180910390f35b61024a600480360381019061024591906146e9565b61140a565b005b348015610257575f5ffd5b50610260611429565b60405161026d919061475b565b60405180910390f35b348015610281575f5ffd5b5061028a61145a565b6040516102979190614783565b60405180910390f35b3480156102ab575f5ffd5b506102c660048036038101906102c191906144da565b61147f565b005b3480156102d3575f5ffd5b506102ee60048036038101906102e99190614566565b6115cf565b6040516102fc929190614816565b60405180910390f35b348015610310575f5ffd5b50610319611630565b005b348015610326575f5ffd5b5061032f611643565b60405161033c919061489f565b60405180910390f35b348015610350575f5ffd5b50610359611668565b005b348015610366575f5ffd5b5061036f6116f6565b60405161037c9190614783565b60405180910390f35b348015610390575f5ffd5b5061039961172b565b6040516103a7929190614a26565b60405180910390f35b3480156103bb575f5ffd5b506103c4611c67565b6040516103d19190614aad565b60405180910390f35b3480156103e5575f5ffd5b5061040060048036038101906103fb9190614acd565b611ca0565b005b34801561040d575f5ffd5b50610416612166565b604051610424929190614a26565b60405180910390f35b348015610438575f5ffd5b506104416126a4565b60405161044e9190614783565b60405180910390f35b348015610462575f5ffd5b5061047d600480360381019061047891906144da565b6126d9565b005b34801561048a575f5ffd5b50610493612792565b6040516104a09190614456565b60405180910390f35b600c5481565b60035481565b6104c967a36191be43d0dfe160c01b612797565b6104d161279a565b6104e56705d3d8de267e122960c01b612797565b6104f9679dbaff3971048d5160c01b612797565b61050d67e7e8d37e5c03fb4860c01b612797565b610521675c3f31e9feb4ee1b60c01b612797565b5f73ffffffffffffffffffffffffffffffffffffffff168173ffffffffffffffffffffffffffffffffffffffff160361059a5761056867c79f3254f76a848360c01b612797565b6040517fd92e233d00000000000000000000000000000000000000000000000000000000815260040160405180910390fd5b6105ae670d1f19e84d6ac5d660c01b612797565b6105c267679e94a46b356cc560c01b612797565b8060015f6101000a81548173ffffffffffffffffffffffffffffffffffffffff021916908373ffffffffffffffffffffffffffffffffffffffff160217905550610616671aa9424eb907eabf60c01b612797565b61062a674ee96b650c5c588560c01b612797565b8073ffffffffffffffffffffffffffffffffffffffff167f6cc7ebdb6c8c53291c5ae16148cab9b049d23bf5bde5632900b40edff56fcb4360405160405180910390a250565b5f5481565b61068967e2ca930ecf1a9d8460c01b612797565b61069d67924e982cf07072f460c01b612797565b6106b167a38ac4929fde1f0960c01b612797565b6106c5671d5e28a4c367c92660c01b612797565b60015f9054906101000a900473ffffffffffffffffffffffffffffffffffffffff1673ffffffffffffffffffffffffffffffffffffffff163373ffffffffffffffffffffffffffffffffffffffff161461075f5761072d67a786a315b6b2f72560c01b612797565b6040517fea8e4eb500000000000000000000000000000000000000000000000000000000815260040160405180910390fd5b61077367ad964d2464ff830760c01b612797565b61078767a4da2375b8fd8cb560c01b612797565b61079b67c6a815288f2cf0c260c01b612797565b6107af67d8c42433abec267a60c01b612797565b6107b7612821565b6107cb674005e2b11422636260c01b612797565b6107df67a8b821e245f1ac0b60c01b612797565b6107f3677e505358995751f560c01b612797565b610807676ecbf88968a9bf9b60c01b612797565b61080f612875565b610823673dc40371f63ab36460c01b612797565b610837671c9ec78094b9441e60c01b612797565b61083f612966565b6108536782270022cf4a1e3960c01b612797565b61086767685fd44a463c69ab60c01b612797565b5f60025f9054906101000a900473ffffffffffffffffffffffffffffffffffffffff1673ffffffffffffffffffffffffffffffffffffffff16634bb93ab16040518163ffffffff1660e01b8152600401602060405180830381865afa1580156108d2573d5f5f3e3d5ffd5b505050506040513d601f19601f820116820180604052508101906108f69190614b31565b905061090c673c15b1affc6d4bcd60c01b612797565b61092067539fb15290728cc060c01b612797565b5f60025f9054906101000a900473ffffffffffffffffffffffffffffffffffffffff1673ffffffffffffffffffffffffffffffffffffffff1663d1717c7d6040518163ffffffff1660e01b8152600401602060405180830381865afa15801561098b573d5f5f3e3d5ffd5b505050506040513d601f19601f820116820180604052508101906109af9190614b92565b600a6109bb9190614d19565b90506109d167501f80226b512bc860c01b612797565b6109e56766c1b56968278f1e60c01b612797565b5f60025f9054906101000a900473ffffffffffffffffffffffffffffffffffffffff1673ffffffffffffffffffffffffffffffffffffffff1663ed04f2185f6040518263ffffffff1660e01b8152600401610a409190614dd6565b5f60405180830381865afa158015610a5a573d5f5f3e3d5ffd5b505050506040513d5f823e3d601f19601f82011682018060405250810190610a829190614eaf565b9050610a9867571ade73f772e34360c01b612797565b610aac67ed61ae6071bc4f1d60c01b612797565b5f5f90505b815181101561136357610ace6797f8b8ed51b97e9e60c01b612797565b610ae2677c68428aa32b9fa460c01b612797565b5f828281518110610af657610af5614ef6565b5b60200260200101519050610b146729af14c80c580d9760c01b612797565b610b28676efcaaa44f8311c960c01b612797565b5f5f8273ffffffffffffffffffffffffffffffffffffffff1663d3d034586040518163ffffffff1660e01b81526004015f60405180830381865afa158015610b72573d5f5f3e3d5ffd5b505050506040513d5f823e3d601f19601f82011682018060405250810190610b9a919061500d565b91509150610bb267bde72c90d2124fe060c01b612797565b610bc6675f8e72b0c42daded60c01b612797565b5f5f9050610bde676f6a7fa04887263760c01b612797565b610bf267cda0d48528e29eaa60c01b612797565b5f5f90505b8351811015610f1157610c14671cd1e3d10740895e60c01b612797565b610c2867043b2b758282dddb60c01b612797565b5f848281518110610c3c57610c3b614ef6565b5b60200260200101519050610c5a67b7d072efe6dc73f160c01b612797565b610c6e67213ecc038a425a9960c01b612797565b5f60045f015f8373ffffffffffffffffffffffffffffffffffffffff1673ffffffffffffffffffffffffffffffffffffffff1681526020019081526020015f20549050610cc5671fcc6d84bc5a078e60c01b612797565b610cd967dc457f87f7e9d5f960c01b612797565b5f8103610ddf57610cf467368487308c5d057360c01b612797565b610d0867484735d23be18e4b60c01b612797565b8a73ffffffffffffffffffffffffffffffffffffffff166341976e09836040518263ffffffff1660e01b8152600401610d419190614783565b602060405180830381865afa158015610d5c573d5f5f3e3d5ffd5b505050506040513d601f19601f82011682018060405250810190610d809190615083565b9050610d966774d0b88630888d7960c01b612797565b8060045f015f8473ffffffffffffffffffffffffffffffffffffffff1673ffffffffffffffffffffffffffffffffffffffff1681526020019081526020015f2081905550610df4565b610df36718b3efe436d7594660c01b612797565b5b610e086799179db5c472a35860c01b612797565b610e1c67823e28f067ed5fa360c01b612797565b5f610e4282878681518110610e3457610e33614ef6565b5b602002602001015185612d30565b9050610e5867a4f79bd95412d03860c01b612797565b8085610e6491906150ae565b9450610e7a673bbe9413d23016fd60c01b612797565b8060046001015f8573ffffffffffffffffffffffffffffffffffffffff1673ffffffffffffffffffffffffffffffffffffffff1681526020019081526020015f205f828254610ec991906150ae565b92505081905550610ee467116c1a6e8d28ceb960c01b612797565b610ef8671ce81c76552713f760c01b612797565b610f0183613076565b5050508080600101915050610bf7565b50610f26672b77808893e9828660c01b612797565b610f3a677c4a3d1a25a4644a60c01b612797565b5f8473ffffffffffffffffffffffffffffffffffffffff1663a68a52678673ffffffffffffffffffffffffffffffffffffffff1663c37fc8a86040518163ffffffff1660e01b8152600401602060405180830381865afa158015610fa0573d5f5f3e3d5ffd5b505050506040513d601f19601f82011682018060405250810190610fc49190615083565b845f6040518463ffffffff1660e01b8152600401610fe493929190615127565b602060405180830381865afa158015610fff573d5f5f3e3d5ffd5b505050506040513d601f19601f820116820180604052508101906110239190615083565b905061103967745dc8bc076d228060c01b612797565b61104d675c46f2396534a5d060c01b612797565b5f818673ffffffffffffffffffffffffffffffffffffffff1663d1699c266040518163ffffffff1660e01b8152600401602060405180830381865afa158015611098573d5f5f3e3d5ffd5b505050506040513d601f19601f820116820180604052508101906110bc9190615083565b846110c791906150ae565b6110d1919061515c565b90506110e767af8854a0d85df1b260c01b612797565b6110fb6735728559446439ff60c01b612797565b5f5f8773ffffffffffffffffffffffffffffffffffffffff1663b6eba6536040518163ffffffff1660e01b81526004015f60405180830381865afa158015611145573d5f5f3e3d5ffd5b505050506040513d5f823e3d601f19601f8201168201806040525081019061116d919061500d565b9150915061118567cabdcbdb6255a81060c01b612797565b6111996764c31582a76d12f360c01b612797565b5f825190506111b267f48bf7826fe06f0860c01b612797565b6111c66736dc863fd7d9e39360c01b612797565b5f5f90505b8181101561134c576111e7671e994a954498b52460c01b612797565b6111fb670466bbfb22ad58e060c01b612797565b5f84828151811061120f5761120e614ef6565b5b6020026020010151905061122d678abb5ae6bee4d2a360c01b612797565b611241677bafae444cb0feba60c01b612797565b5f84838151811061125557611254614ef6565b5b6020026020010151905061127367a3bfba89c1e138e160c01b612797565b6112876788b2518a7eb6fbab60c01b612797565b5f8f8289611295919061518f565b61129f91906151fd565b90506112b56745d4006a4e77dbe860c01b612797565b8060046002015f8573ffffffffffffffffffffffffffffffffffffffff1673ffffffffffffffffffffffffffffffffffffffff1681526020019081526020015f205f82825461130491906150ae565b9250508190555061131f675537ec66e5304bb960c01b612797565b6113336758bef8d7f1524f4860c01b612797565b61133c83613076565b50505080806001019150506111cb565b505050505050505050508080600101915050610ab1565b5061137867bc71ee92cc76363d60c01b612797565b61138c673fdbeac23b37afdc60c01b612797565b61139461322b565b6113a8675bc1eb9bd2d6f42c60c01b612797565b6113bc672df71f1feb29b83960c01b612797565b7f9375d658f91055a030c54d5cf460d6f12968b10b80b0797c1aa5c02e4dca94036003546040516113ed9190614456565b60405180910390a1505050611400613753565b5050565b600d5481565b61141261376a565b61141b82613850565b6114258282613897565b5050565b5f6114326139b5565b7f360894a13ba1a3210667c828492db98dca3e2076cc3735a920a3ca505d382bbc5f1b905090565b60015f9054906101000a900473ffffffffffffffffffffffffffffffffffffffff1681565b6114936711928f71513b21b260c01b612797565b61149b61279a565b6114af67c6011c9172b8efd360c01b612797565b6114c3679e4ef5a5a225dfa860c01b612797565b6114d767c730422463e17c6360c01b612797565b6114eb67d87d14586e877f2560c01b612797565b5f73ffffffffffffffffffffffffffffffffffffffff168173ffffffffffffffffffffffffffffffffffffffff16036115645761153267939e44176eb85aff60c01b612797565b6040517fd92e233d00000000000000000000000000000000000000000000000000000000815260040160405180910390fd5b61157867c1d6dfaa0529c19060c01b612797565b61158c67f96ce413a78e5eb860c01b612797565b8060025f6101000a81548173ffffffffffffffffffffffffffffffffffffffff021916908373ffffffffffffffffffffffffffffffffffffffff16021790555050565b5f60606115e66794f64e12a155fa4960c01b612797565b6115fa6770971db0c730ed8b60c01b612797565b611602613a3c565b915061161867bf9e9b26d5898af260c01b612797565b60405180602001604052805f81525090509250929050565b61163861279a565b6116415f613a83565b565b60025f9054906101000a900473ffffffffffffffffffffffffffffffffffffffff1681565b5f611671613ac0565b90508073ffffffffffffffffffffffffffffffffffffffff166116926126a4565b73ffffffffffffffffffffffffffffffffffffffff16146116ea57806040517f118cdaa70000000000000000000000000000000000000000000000000000000081526004016116e19190614783565b60405180910390fd5b6116f381613a83565b50565b5f5f611700613ac7565b9050805f015f9054906101000a900473ffffffffffffffffffffffffffffffffffffffff1691505090565b60608061174267317b9ad2f5a0914e60c01b612797565b61175667c0f8fa129d463e9060c01b612797565b61176a67db7537ff90e0f8e260c01b612797565b5f60046005018054806020026020016040519081016040528092919081815260200182805480156117ed57602002820191905f5260205f20905b815f9054906101000a900473ffffffffffffffffffffffffffffffffffffffff1673ffffffffffffffffffffffffffffffffffffffff16815260200190600101908083116117a4575b5050505050905061180867f230dc00baf0f68360c01b612797565b61181c6786905fd6a904bf7160c01b612797565b5f81519050611835678e9089e568ba6ca260c01b612797565b6118496795cb9f4b08ef233260c01b612797565b5f5f9050611861674e0342a043a3e6a360c01b612797565b61187567c5943b3baf5c2c4d60c01b612797565b5f5f90505b8281101561196857611896678a26c5b02436251760c01b612797565b6118aa67aa432485ebca0bcf60c01b612797565b5f600480015f8684815181106118c3576118c2614ef6565b5b602002602001015173ffffffffffffffffffffffffffffffffffffffff1673ffffffffffffffffffffffffffffffffffffffff1681526020019081526020015f205411156119465761191f67226673039500d29560c01b612797565b61193367326d6bd9e6a4474960c01b612797565b818061193e9061522d565b92505061195b565b61195a678390b77f148786cb60c01b612797565b5b808060010191505061187a565b5061197d673dc673108be9b3cf60c01b612797565b8067ffffffffffffffff811115611997576119966145c5565b5b6040519080825280602002602001820160405280156119c55781602001602082028036833780820191505090505b5094506119dc67b5048b847820cf4560c01b612797565b8067ffffffffffffffff8111156119f6576119f56145c5565b5b604051908082528060200260200182016040528015611a245781602001602082028036833780820191505090505b509350611a3b67c96129f4e2286f2160c01b612797565b611a4f6748481066e6fcb1f260c01b612797565b5f5f9050611a6767ca25dd42789e5da960c01b612797565b611a7b67954348292f0cdc8c60c01b612797565b5f5f90505b83811015611c5e57611a9c67e0071a3f3389275b60c01b612797565b611ab067eb0eabe7c2a39d7f60c01b612797565b5f858281518110611ac457611ac3614ef6565b5b60200260200101519050611ae2673217384d8f17f9b160c01b612797565b611af6672e4c21c0e34b896860c01b612797565b5f600480015f8373ffffffffffffffffffffffffffffffffffffffff1673ffffffffffffffffffffffffffffffffffffffff1681526020019081526020015f20549050611b4d67d32ba0aeefbda23160c01b612797565b611b6167b13701891c13df7060c01b612797565b5f811115611c3a57611b7d679a17ddc53b7f83f060c01b612797565b611b9167f92e6eb9992f818d60c01b612797565b81898581518110611ba557611ba4614ef6565b5b602002602001019073ffffffffffffffffffffffffffffffffffffffff16908173ffffffffffffffffffffffffffffffffffffffff1681525050611bf367c1a679af1667dcc160c01b612797565b80888581518110611c0757611c06614ef6565b5b602002602001018181525050611c2767304c6dc4b85354ec60c01b612797565b8380611c329061522d565b945050611c4f565b611c4e67460732954fc6657c60c01b612797565b5b50508080600101915050611a80565b50505050509091565b6040518060400160405280600581526020017f352e302e3000000000000000000000000000000000000000000000000000000081525081565b611cb4674563b0494e18f2e460c01b612797565b5f611cbd613aee565b90505f815f0160089054906101000a900460ff161590505f825f015f9054906101000a900467ffffffffffffffff1690505f5f8267ffffffffffffffff16148015611d055750825b90505f60018367ffffffffffffffff16148015611d3857505f3073ffffffffffffffffffffffffffffffffffffffff163b145b905081158015611d46575080155b15611d7d576040517ff92ee8a900000000000000000000000000000000000000000000000000000000815260040160405180910390fd5b6001855f015f6101000a81548167ffffffffffffffff021916908367ffffffffffffffff1602179055508315611dca576001855f0160086101000a81548160ff0219169083151502179055505b611dde670e4a06ea1bb247a560c01b612797565b611df2674aeb2d817580720f60c01b612797565b611e0667aa1e524f8de3f1d460c01b612797565b611e1a67bdba1cab8ae3fdb660c01b612797565b611e2388613b01565b611e37676d0614dde27a992360c01b612797565b611e4b6744477228669fbd3460c01b612797565b611e53613b15565b611e67675f2d5a7cd62fb73560c01b612797565b611e7b67fad2a5bda072b3a260c01b612797565b611e83613b1f565b611e9767f5619bc50c1496b060c01b612797565b611eab67e45e444aad11700c60c01b612797565b611eb3613b31565b611ec767942e7b4afbed127c60c01b612797565b611edb67d9d51f29892eff1160c01b612797565b5f73ffffffffffffffffffffffffffffffffffffffff168773ffffffffffffffffffffffffffffffffffffffff1603611f5457611f22674b08979b38a2c32760c01b612797565b6040517fd92e233d00000000000000000000000000000000000000000000000000000000815260040160405180910390fd5b611f6867ce47092de5ba4a9460c01b612797565b611f7c6726b902e59982805760c01b612797565b611f9067652ecc62000764e160c01b612797565b5f73ffffffffffffffffffffffffffffffffffffffff168673ffffffffffffffffffffffffffffffffffffffff160361200957611fd76767923d8f3dfdcaf960c01b612797565b6040517fd92e233d00000000000000000000000000000000000000000000000000000000815260040160405180910390fd5b61201d67e5f7db40a7bd8b1660c01b612797565b61203167b429cc6c74e0aaf360c01b612797565b8660015f6101000a81548173ffffffffffffffffffffffffffffffffffffffff021916908373ffffffffffffffffffffffffffffffffffffffff160217905550612085673652316d71bef41c60c01b612797565b8560025f6101000a81548173ffffffffffffffffffffffffffffffffffffffff021916908373ffffffffffffffffffffffffffffffffffffffff1602179055506120d9673f6a992d838e4f5e60c01b612797565b6120e242613b3b565b5f819055506120fb67cee9abc7005bc76f60c01b612797565b5f600381905550831561215c575f855f0160086101000a81548160ff0219169083151502179055507fc7f505b2f371ae2175ee4913f4499e1f2633a7b5936321eed1cdaeb6115181d2600160405161215391906152c0565b60405180910390a15b5050505050505050565b60608061217d67a91071c05eb8180e60c01b612797565b612191672682d9b5aac2f69960c01b612797565b6121a56732e22ba0ee13a72b60c01b612797565b5f600460050180548060200260200160405190810160405280929190818152602001828054801561222857602002820191905f5260205f20905b815f9054906101000a900473ffffffffffffffffffffffffffffffffffffffff1673ffffffffffffffffffffffffffffffffffffffff16815260200190600101908083116121df575b50505050509050612243673a0d2320ab5f5c3860c01b612797565b61225767489d7e81c430f86a60c01b612797565b5f8151905061227067f4689f4fa1fd0d3560c01b612797565b612284679f2d7d15dc81522860c01b612797565b5f5f905061229c67c33524fdf0a8e8eb60c01b612797565b6122b0671008afe51e0f625660c01b612797565b5f5f90505b828110156123a4576122d167f913f61631ecdfd860c01b612797565b6122e5673ae0bf5caf774cbc60c01b612797565b5f60046003015f8684815181106122ff576122fe614ef6565b5b602002602001015173ffffffffffffffffffffffffffffffffffffffff1673ffffffffffffffffffffffffffffffffffffffff1681526020019081526020015f205411156123825761235b67122b1ff9b93e285560c01b612797565b61236f67c2f5515845da9e5260c01b612797565b818061237a9061522d565b925050612397565b612396677b5e0954bbff7afe60c01b612797565b5b80806001019150506122b5565b506123b967cda46e1192d3ad6f60c01b612797565b8067ffffffffffffffff8111156123d3576123d26145c5565b5b6040519080825280602002602001820160405280156124015781602001602082028036833780820191505090505b50945061241867954486551ec2551560c01b612797565b8067ffffffffffffffff811115612432576124316145c5565b5b6040519080825280602002602001820160405280156124605781602001602082028036833780820191505090505b50935061247767bf041b0f288ffbef60c01b612797565b61248b678bacd784c5a645be60c01b612797565b5f5f90506124a367665a01bc970b4cee60c01b612797565b6124b7675b71dcdd16d5e23f60c01b612797565b5f5f90505b8381101561269b576124d867ed865c0a2737692260c01b612797565b6124ec6706af1d48d07084fc60c01b612797565b5f858281518110612500576124ff614ef6565b5b6020026020010151905061251e6780cc80698561800b60c01b612797565b6125326733acabe0e38e312460c01b612797565b5f60046003015f8373ffffffffffffffffffffffffffffffffffffffff1673ffffffffffffffffffffffffffffffffffffffff1681526020019081526020015f2054905061258a677b56661e016a028460c01b612797565b61259e67ead8e1560f400ff260c01b612797565b5f811115612677576125ba67268a110a566e76fe60c01b612797565b6125ce6783001076780ac63060c01b612797565b818985815181106125e2576125e1614ef6565b5b602002602001019073ffffffffffffffffffffffffffffffffffffffff16908173ffffffffffffffffffffffffffffffffffffffff16815250506126306769aaa0f85ba44c7860c01b612797565b8088858151811061264457612643614ef6565b5b6020026020010181815250506126646707eaa0d2fe32c9e460c01b612797565b838061266f9061522d565b94505061268c565b61268b674756555b2807287c60c01b612797565b5b505080806001019150506124bc565b50505050509091565b5f5f6126ae613b8c565b9050805f015f9054906101000a900473ffffffffffffffffffffffffffffffffffffffff1691505090565b6126e161279a565b5f6126ea613b8c565b905081815f015f6101000a81548173ffffffffffffffffffffffffffffffffffffffff021916908373ffffffffffffffffffffffffffffffffffffffff1602179055508173ffffffffffffffffffffffffffffffffffffffff1661274c6116f6565b73ffffffffffffffffffffffffffffffffffffffff167f38d16b8cac22d99fc7c124b9cd0de2d3fa1faef420bfe791d8c362d765e2270060405160405180910390a35050565b603c81565b50565b6127a2613ac0565b73ffffffffffffffffffffffffffffffffffffffff166127c06116f6565b73ffffffffffffffffffffffffffffffffffffffff161461281f576127e3613ac0565b6040517f118cdaa70000000000000000000000000000000000000000000000000000000081526004016128169190614783565b60405180910390fd5b565b5f61282a613bb3565b90506002815f015403612869576040517f3ee5aeb500000000000000000000000000000000000000000000000000000000815260040160405180910390fd5b6002815f018190555050565b612889675027c900eee8586760c01b612797565b61289d6798d99cbd51df9bbe60c01b612797565b6128b167651624cfbdcb9c2460c01b612797565b6128b9613a3c565b612903576128d16712c9db1450e8394760c01b612797565b6040517f085de62500000000000000000000000000000000000000000000000000000000815260040160405180910390fd5b612917672a3a62f077d1c45e60c01b612797565b61292b67f7b218794eb9dd6260c01b612797565b61293442613b3b565b5f8190555061294d67eead30e81e68987c60c01b612797565b60035f81548092919061295f9061522d565b9190505550565b61297a6756e3879f0c1daf2f60c01b612797565b61298e679d79ce38ddc82c4560c01b612797565b6129a267095e91418c7cf2a460c01b612797565b5f6004600501805480602002602001604051908101604052809291908181526020018280548015612a2557602002820191905f5260205f20905b815f9054906101000a900473ffffffffffffffffffffffffffffffffffffffff1673ffffffffffffffffffffffffffffffffffffffff16815260200190600101908083116129dc575b50505050509050612a4067ffbfbf9af9fd6a2c60c01b612797565b612a54674ad6d523c0144e7560c01b612797565b5f81519050612a6d67e7fb6e306afcaadc60c01b612797565b612a81673442f10d33f8b50d60c01b612797565b5f5f90505b81811015612d0857612aa267dfad4453917dcc5660c01b612797565b612ab667df7f53bc9a727f0160c01b612797565b5f838281518110612aca57612ac9614ef6565b5b60200260200101519050612ae86706f10d8f3602fb4f60c01b612797565b5f60045f015f8373ffffffffffffffffffffffffffffffffffffffff1673ffffffffffffffffffffffffffffffffffffffff1681526020019081526020015f2081905550612b4067181c2be34a24acf160c01b612797565b5f60046001015f8373ffffffffffffffffffffffffffffffffffffffff1673ffffffffffffffffffffffffffffffffffffffff1681526020019081526020015f2081905550612b9967f9f6788948a90a5260c01b612797565b5f60046002015f8373ffffffffffffffffffffffffffffffffffffffff1673ffffffffffffffffffffffffffffffffffffffff1681526020019081526020015f2081905550612bf267678d6f3b5f274b5360c01b612797565b5f60046003015f8373ffffffffffffffffffffffffffffffffffffffff1673ffffffffffffffffffffffffffffffffffffffff1681526020019081526020015f2081905550612c4b67a48832691397b4aa60c01b612797565b5f600480015f8373ffffffffffffffffffffffffffffffffffffffff1673ffffffffffffffffffffffffffffffffffffffff1681526020019081526020015f2081905550612ca367a44f87d7731b111360c01b612797565b5f60046006015f8373ffffffffffffffffffffffffffffffffffffffff1673ffffffffffffffffffffffffffffffffffffffff1681526020019081526020015f205f6101000a81548160ff021916908315150217905550508080600101915050612a86565b50612d1c66ea0226c7a332cc60c01b612797565b60046005015f612d2c9190614405565b5050565b5f612d45670720ab4d33c99f0460c01b612797565b612d5967faf4f9dc6a37be9860c01b612797565b612d6d674d9d8f9c305843c860c01b612797565b5f8273ffffffffffffffffffffffffffffffffffffffff1663313ce5676040518163ffffffff1660e01b8152600401602060405180830381865afa158015612db7573d5f5f3e3d5ffd5b505050506040513d601f19601f82011682018060405250810190612ddb9190614b92565b9050612df167987d07aec6636a2660c01b612797565b612e0567c00fd595c7c9180f60c01b612797565b5f60025f9054906101000a900473ffffffffffffffffffffffffffffffffffffffff1673ffffffffffffffffffffffffffffffffffffffff16637158da7c6040518163ffffffff1660e01b8152600401602060405180830381865afa158015612e70573d5f5f3e3d5ffd5b505050506040513d601f19601f82011682018060405250810190612e949190615314565b73ffffffffffffffffffffffffffffffffffffffff1663313ce5676040518163ffffffff1660e01b8152600401602060405180830381865afa158015612edc573d5f5f3e3d5ffd5b505050506040513d601f19601f82011682018060405250810190612f009190614b92565b9050612f1667e2b8924565e5f82060c01b612797565b612f2a67d6e6a55769b06b1b60c01b612797565b8160ff168160ff1610612fd457612f4b67c1ff32f1a63a8c0760c01b612797565b612f5f67e63a8e6bbafd396260c01b612797565b612f7367a218a6df4b97aac360c01b612797565b5f8282612f80919061533f565b600a612f8c9190614d19565b8688612f98919061518f565b612fa2919061518f565b9050612fb8677259a4b7420b7fcd60c01b612797565b670de0b6b3a764000081612fcc91906151fd565b93505061306d565b612fe867760d6caca8f1b7b760c01b612797565b612ffc67aa3da216e776948e60c01b612797565b61301067a62e5f53c82eb71660c01b612797565b5f858761301d919061518f565b90506130336759f1198ada07a45a60c01b612797565b818361303f919061533f565b600a61304b9190614d19565b670de0b6b3a764000061305e919061518f565b8161306991906151fd565b9350505b50509392505050565b61308a67bf2267c0823a0caa60c01b612797565b61309e671736a0f2e46e565160c01b612797565b6130b2675d80ee95cc15c57b60c01b612797565b60046006015f8273ffffffffffffffffffffffffffffffffffffffff1673ffffffffffffffffffffffffffffffffffffffff1681526020019081526020015f205f9054906101000a900460ff166132135761311767250ae03b37fefbcb60c01b612797565b61312b678f59da875d03eadf60c01b612797565b61313f67061a1c8728edcf2060c01b612797565b600460050181908060018154018082558091505060019003905f5260205f20015f9091909190916101000a81548173ffffffffffffffffffffffffffffffffffffffff021916908373ffffffffffffffffffffffffffffffffffffffff1602179055506131b667f3ffda81268f887860c01b612797565b600160046006015f8373ffffffffffffffffffffffffffffffffffffffff1673ffffffffffffffffffffffffffffffffffffffff1681526020019081526020015f205f6101000a81548160ff021916908315150217905550613228565b61322767de750cdbe871713460c01b612797565b5b50565b61323f674c673e039b51e12a60c01b612797565b61325367a0d80beca7f767a760c01b612797565b613267678b81018cf8b9816360c01b612797565b5f60046005018054806020026020016040519081016040528092919081815260200182805480156132ea57602002820191905f5260205f20905b815f9054906101000a900473ffffffffffffffffffffffffffffffffffffffff1673ffffffffffffffffffffffffffffffffffffffff16815260200190600101908083116132a1575b50505050509050613305676776b2ad061be3ff60c01b612797565b6133196779c97ef2d2499b0560c01b612797565b5f81519050613332674f15c2c2c462bf2260c01b612797565b5f600c8190555061334d67187def1955d2bef260c01b612797565b5f600d819055506133686740bff5c497d9b31860c01b612797565b61337c67f7b515723b49830360c01b612797565b5f5f90505b8181101561374e5761339d678171768106b4287360c01b612797565b6133b167a951ecf661ce8dc760c01b612797565b5f8382815181106133c5576133c4614ef6565b5b602002602001015190506133e367ec2dabf5b16cea2860c01b612797565b6133f76722dccf0a92811c7e60c01b612797565b5f60046001015f8373ffffffffffffffffffffffffffffffffffffffff1673ffffffffffffffffffffffffffffffffffffffff1681526020019081526020015f2054905061344f67a802dfd66e01d34a60c01b612797565b6134636701e94de5de7a62c760c01b612797565b5f60046002015f8473ffffffffffffffffffffffffffffffffffffffff1673ffffffffffffffffffffffffffffffffffffffff1681526020019081526020015f205490506134bb675a10d27855d7c52560c01b612797565b6134cf673b69e22b8a7ba6ff60c01b612797565b80821115613623576134eb6742507446c7880ede60c01b612797565b6134ff6760d6f5ffcb4fbc0560c01b612797565b6135136767be17e7ceb4e74b60c01b612797565b5f8183613520919061515c565b905061353667e11996f3fa9ea3ff60c01b612797565b80600c5f82825461354791906150ae565b9250508190555061356267f84512d8b177ff8460c01b612797565b61357667cf1de87e83fed60f60c01b612797565b5f6135c160045f015f8773ffffffffffffffffffffffffffffffffffffffff1673ffffffffffffffffffffffffffffffffffffffff1681526020019081526020015f20548387613bda565b90506135d767d7f55803527398b760c01b612797565b8060046003015f8773ffffffffffffffffffffffffffffffffffffffff1673ffffffffffffffffffffffffffffffffffffffff1681526020019081526020015f2081905550505061373e565b61363767987226c66f6b8b3860c01b612797565b61364b6794d2f460e2ba852560c01b612797565b81811115613728576136676796e2778c7be7476a60c01b612797565b61367b678c22aad5a900183660c01b612797565b61368f67e0ebf981f688476c60c01b612797565b5f828261369c919061515c565b90506136b2673c85699c2199835960c01b612797565b80600d5f8282546136c391906150ae565b925050819055506136de673f9a586258588a8560c01b612797565b80600480015f8673ffffffffffffffffffffffffffffffffffffffff1673ffffffffffffffffffffffffffffffffffffffff1681526020019081526020015f20819055505061373d565b61373c6730a84deaa898c10660c01b612797565b5b5b5050508080600101915050613381565b505050565b5f61375c613bb3565b90506001815f018190555050565b7f000000000000000000000000000000000000000000000000000000000000000073ffffffffffffffffffffffffffffffffffffffff163073ffffffffffffffffffffffffffffffffffffffff16148061381757507f000000000000000000000000000000000000000000000000000000000000000073ffffffffffffffffffffffffffffffffffffffff166137fe613ee7565b73ffffffffffffffffffffffffffffffffffffffff1614155b1561384e576040517fe07c8dba00000000000000000000000000000000000000000000000000000000815260040160405180910390fd5b565b61386467342a72cbd64a32bd60c01b612797565b61386c61279a565b61388067a5d848633533687b60c01b612797565b6138946799de0aaed6a33a2e60c01b612797565b50565b8173ffffffffffffffffffffffffffffffffffffffff166352d1902d6040518163ffffffff1660e01b8152600401602060405180830381865afa9250505080156138ff57506040513d601f19601f820116820180604052508101906138fc919061539d565b60015b61394057816040517f4c9c8ce30000000000000000000000000000000000000000000000000000000081526004016139379190614783565b60405180910390fd5b7f360894a13ba1a3210667c828492db98dca3e2076cc3735a920a3ca505d382bbc5f1b81146139a657806040517faa1d49a400000000000000000000000000000000000000000000000000000000815260040161399d919061475b565b60405180910390fd5b6139b08383613f3a565b505050565b7f000000000000000000000000000000000000000000000000000000000000000073ffffffffffffffffffffffffffffffffffffffff163073ffffffffffffffffffffffffffffffffffffffff1614613a3a576040517fe07c8dba00000000000000000000000000000000000000000000000000000000815260040160405180910390fd5b565b5f613a516760f220d7d7592ca260c01b612797565b613a656762790b89efffdb2c60c01b612797565b613a79673a3bfe85aacb7dbd60c01b612797565b5f54421015905090565b5f613a8c613b8c565b9050805f015f6101000a81549073ffffffffffffffffffffffffffffffffffffffff0219169055613abc82613fac565b5050565b5f33905090565b5f7f9016d09d72d40fdae2fd8ceac6b6234c7706214fd39c1cd1e609a0528c199300905090565b5f5f613af861407d565b90508091505090565b613b096140a6565b613b12816140e6565b50565b613b1d6140a6565b565b613b276140a6565b613b2f61416a565b565b613b396140a6565b565b5f613b50670199c256dcbcdd4760c01b612797565b613b6467cb95a6c79b5b1dac60c01b612797565b613b7867343a892f18a8684b60c01b612797565b603c82613b8591906150ae565b9050919050565b5f7f237e158222e3e6968b72b9db0d8043aacf074ad9f650f0d1606b4d82ee432c00905090565b5f7f9b779b17422d0df92223018b32b4d1fa46e071723d6817e2486d003becc55f00905090565b5f613bef676daadd4ffe4270ac60c01b612797565b613c0367632d9a9c82e0754760c01b612797565b613c176741cb3c7190219c6060c01b612797565b5f8273ffffffffffffffffffffffffffffffffffffffff1663313ce5676040518163ffffffff1660e01b8152600401602060405180830381865afa158015613c61573d5f5f3e3d5ffd5b505050506040513d601f19601f82011682018060405250810190613c859190614b92565b9050613c9b67b7b880a3488d2ab760c01b612797565b613caf67673fb342271b37df60c01b612797565b5f60025f9054906101000a900473ffffffffffffffffffffffffffffffffffffffff1673ffffffffffffffffffffffffffffffffffffffff16637158da7c6040518163ffffffff1660e01b8152600401602060405180830381865afa158015613d1a573d5f5f3e3d5ffd5b505050506040513d601f19601f82011682018060405250810190613d3e9190615314565b73ffffffffffffffffffffffffffffffffffffffff1663313ce5676040518163ffffffff1660e01b8152600401602060405180830381865afa158015613d86573d5f5f3e3d5ffd5b505050506040513d601f19601f82011682018060405250810190613daa9190614b92565b9050613dc0673ba78fd56815ea9360c01b612797565b613dd467cb4b865793bb307a60c01b612797565b5f613de967b58db0de46d26e3660c01b612797565b613dfd67392eb90699e8cc1f60c01b612797565b8260ff168260ff1610613e5a57613e1c65e6db88a2f62560c01b612797565b613e30674a4e2a32b83d45bb60c01b612797565b8282613e3c919061533f565b600a613e489190614d19565b86613e5391906151fd565b9050613ea8565b613e6e676a0570ef95a0d03460c01b612797565b613e8267afaf7d49c5f6b3cd60c01b612797565b8183613e8e919061533f565b600a613e9a9190614d19565b86613ea5919061518f565b90505b613ebc6786f5e93c3bee1fbd60c01b612797565b86670de0b6b3a764000082613ed1919061518f565b613edb91906151fd565b93505050509392505050565b5f613f137f360894a13ba1a3210667c828492db98dca3e2076cc3735a920a3ca505d382bbc5f1b614189565b5f015f9054906101000a900473ffffffffffffffffffffffffffffffffffffffff16905090565b613f4382614192565b8173ffffffffffffffffffffffffffffffffffffffff167fbc7cd75a20ee27fd9adebab32041f755214dbc6bffa90cc0225b39da2e5c2d3b60405160405180910390a25f81511115613f9f57613f99828261425b565b50613fa8565b613fa76142db565b5b5050565b5f613fb5613ac7565b90505f815f015f9054906101000a900473ffffffffffffffffffffffffffffffffffffffff16905082825f015f6101000a81548173ffffffffffffffffffffffffffffffffffffffff021916908373ffffffffffffffffffffffffffffffffffffffff1602179055508273ffffffffffffffffffffffffffffffffffffffff168173ffffffffffffffffffffffffffffffffffffffff167f8be0079c531659141344cd1fd0a4f28419497f9722a3daafe3b4186f6b6457e060405160405180910390a3505050565b5f7ff0c57e16840df040f15088dc2f81fe391c3923bec73e23a9662efc9c229c6a005f1b905090565b6140ae614317565b6140e4576040517fd7e6bcf800000000000000000000000000000000000000000000000000000000815260040160405180910390fd5b565b6140ee6140a6565b5f73ffffffffffffffffffffffffffffffffffffffff168173ffffffffffffffffffffffffffffffffffffffff160361415e575f6040517f1e4fbdf70000000000000000000000000000000000000000000000000000000081526004016141559190614783565b60405180910390fd5b61416781613a83565b50565b6141726140a6565b5f61417b613bb3565b90506001815f018190555050565b5f819050919050565b5f8173ffffffffffffffffffffffffffffffffffffffff163b036141ed57806040517f4c9c8ce30000000000000000000000000000000000000000000000000000000081526004016141e49190614783565b60405180910390fd5b806142197f360894a13ba1a3210667c828492db98dca3e2076cc3735a920a3ca505d382bbc5f1b614189565b5f015f6101000a81548173ffffffffffffffffffffffffffffffffffffffff021916908373ffffffffffffffffffffffffffffffffffffffff16021790555050565b60605f5f8473ffffffffffffffffffffffffffffffffffffffff16846040516142849190615402565b5f60405180830381855af49150503d805f81146142bc576040519150601f19603f3d011682016040523d82523d5f602084013e6142c1565b606091505b50915091506142d1858383614335565b9250505092915050565b5f341115614315576040517fb398979f00000000000000000000000000000000000000000000000000000000815260040160405180910390fd5b565b5f614320613aee565b5f0160089054906101000a900460ff16905090565b60608261434a57614345826143c2565b6143ba565b5f825114801561437057505f8473ffffffffffffffffffffffffffffffffffffffff163b145b156143b257836040517f9996b3150000000000000000000000000000000000000000000000000000000081526004016143a99190614783565b60405180910390fd5b8190506143bb565b5b9392505050565b5f815111156143d357805160208201fd5b6040517fd6bda27500000000000000000000000000000000000000000000000000000000815260040160405180910390fd5b5080545f8255905f5260205f20908101906144209190614423565b50565b5b8082111561443a575f815f905550600101614424565b5090565b5f819050919050565b6144508161443e565b82525050565b5f6020820190506144695f830184614447565b92915050565b5f604051905090565b5f5ffd5b5f5ffd5b5f73ffffffffffffffffffffffffffffffffffffffff82169050919050565b5f6144a982614480565b9050919050565b6144b98161449f565b81146144c3575f5ffd5b50565b5f813590506144d4816144b0565b92915050565b5f602082840312156144ef576144ee614478565b5b5f6144fc848285016144c6565b91505092915050565b5f5ffd5b5f5ffd5b5f5ffd5b5f5f83601f84011261452657614525614505565b5b8235905067ffffffffffffffff81111561454357614542614509565b5b60208301915083600182028301111561455f5761455e61450d565b5b9250929050565b5f5f6020838503121561457c5761457b614478565b5b5f83013567ffffffffffffffff8111156145995761459861447c565b5b6145a585828601614511565b92509250509250929050565b5f5ffd5b5f601f19601f8301169050919050565b7f4e487b71000000000000000000000000000000000000000000000000000000005f52604160045260245ffd5b6145fb826145b5565b810181811067ffffffffffffffff8211171561461a576146196145c5565b5b80604052505050565b5f61462c61446f565b905061463882826145f2565b919050565b5f67ffffffffffffffff821115614657576146566145c5565b5b614660826145b5565b9050602081019050919050565b828183375f83830152505050565b5f61468d6146888461463d565b614623565b9050828152602081018484840111156146a9576146a86145b1565b5b6146b484828561466d565b509392505050565b5f82601f8301126146d0576146cf614505565b5b81356146e084826020860161467b565b91505092915050565b5f5f604083850312156146ff576146fe614478565b5b5f61470c858286016144c6565b925050602083013567ffffffffffffffff81111561472d5761472c61447c565b5b614739858286016146bc565b9150509250929050565b5f819050919050565b61475581614743565b82525050565b5f60208201905061476e5f83018461474c565b92915050565b61477d8161449f565b82525050565b5f6020820190506147965f830184614774565b92915050565b5f8115159050919050565b6147b08161479c565b82525050565b5f81519050919050565b5f82825260208201905092915050565b8281835e5f83830152505050565b5f6147e8826147b6565b6147f281856147c0565b93506148028185602086016147d0565b61480b816145b5565b840191505092915050565b5f6040820190506148295f8301856147a7565b818103602083015261483b81846147de565b90509392505050565b5f819050919050565b5f61486761486261485d84614480565b614844565b614480565b9050919050565b5f6148788261484d565b9050919050565b5f6148898261486e565b9050919050565b6148998161487f565b82525050565b5f6020820190506148b25f830184614890565b92915050565b5f81519050919050565b5f82825260208201905092915050565b5f819050602082019050919050565b6148ea8161449f565b82525050565b5f6148fb83836148e1565b60208301905092915050565b5f602082019050919050565b5f61491d826148b8565b61492781856148c2565b9350614932836148d2565b805f5b8381101561496257815161494988826148f0565b975061495483614907565b925050600181019050614935565b5085935050505092915050565b5f81519050919050565b5f82825260208201905092915050565b5f819050602082019050919050565b6149a18161443e565b82525050565b5f6149b28383614998565b60208301905092915050565b5f602082019050919050565b5f6149d48261496f565b6149de8185614979565b93506149e983614989565b805f5b83811015614a19578151614a0088826149a7565b9750614a0b836149be565b9250506001810190506149ec565b5085935050505092915050565b5f6040820190508181035f830152614a3e8185614913565b90508181036020830152614a5281846149ca565b90509392505050565b5f81519050919050565b5f82825260208201905092915050565b5f614a7f82614a5b565b614a898185614a65565b9350614a998185602086016147d0565b614aa2816145b5565b840191505092915050565b5f6020820190508181035f830152614ac58184614a75565b905092915050565b5f5f5f60608486031215614ae457614ae3614478565b5b5f614af1868287016144c6565b9350506020614b02868287016144c6565b9250506040614b13868287016144c6565b9150509250925092565b5f81519050614b2b816144b0565b92915050565b5f60208284031215614b4657614b45614478565b5b5f614b5384828501614b1d565b91505092915050565b5f60ff82169050919050565b614b7181614b5c565b8114614b7b575f5ffd5b50565b5f81519050614b8c81614b68565b92915050565b5f60208284031215614ba757614ba6614478565b5b5f614bb484828501614b7e565b91505092915050565b7f4e487b71000000000000000000000000000000000000000000000000000000005f52601160045260245ffd5b5f8160011c9050919050565b5f5f8291508390505b6001851115614c3f57808604811115614c1b57614c1a614bbd565b5b6001851615614c2a5780820291505b8081029050614c3885614bea565b9450614bff565b94509492505050565b5f82614c575760019050614d12565b81614c64575f9050614d12565b8160018114614c7a5760028114614c8457614cb3565b6001915050614d12565b60ff841115614c9657614c95614bbd565b5b8360020a915084821115614cad57614cac614bbd565b5b50614d12565b5060208310610133831016604e8410600b8410161715614ce85782820a905083811115614ce357614ce2614bbd565b5b614d12565b614cf58484846001614bf6565b92509050818404811115614d0c57614d0b614bbd565b5b81810290505b9392505050565b5f614d238261443e565b9150614d2e83614b5c565b9250614d5b7fffffffffffffffffffffffffffffffffffffffffffffffffffffffffffffffff8484614c48565b905092915050565b7f4e487b71000000000000000000000000000000000000000000000000000000005f52602160045260245ffd5b60028110614da157614da0614d63565b5b50565b5f819050614db182614d90565b919050565b5f614dc082614da4565b9050919050565b614dd081614db6565b82525050565b5f602082019050614de95f830184614dc7565b92915050565b5f67ffffffffffffffff821115614e0957614e086145c5565b5b602082029050602081019050919050565b5f614e2c614e2784614def565b614623565b90508083825260208201905060208402830185811115614e4f57614e4e61450d565b5b835b81811015614e785780614e648882614b1d565b845260208401935050602081019050614e51565b5050509392505050565b5f82601f830112614e9657614e95614505565b5b8151614ea6848260208601614e1a565b91505092915050565b5f60208284031215614ec457614ec3614478565b5b5f82015167ffffffffffffffff811115614ee157614ee061447c565b5b614eed84828501614e82565b91505092915050565b7f4e487b71000000000000000000000000000000000000000000000000000000005f52603260045260245ffd5b5f67ffffffffffffffff821115614f3d57614f3c6145c5565b5b602082029050602081019050919050565b614f578161443e565b8114614f61575f5ffd5b50565b5f81519050614f7281614f4e565b92915050565b5f614f8a614f8584614f23565b614623565b90508083825260208201905060208402830185811115614fad57614fac61450d565b5b835b81811015614fd65780614fc28882614f64565b845260208401935050602081019050614faf565b5050509392505050565b5f82601f830112614ff457614ff3614505565b5b8151615004848260208601614f78565b91505092915050565b5f5f6040838503121561502357615022614478565b5b5f83015167ffffffffffffffff8111156150405761503f61447c565b5b61504c85828601614e82565b925050602083015167ffffffffffffffff81111561506d5761506c61447c565b5b61507985828601614fe0565b9150509250929050565b5f6020828403121561509857615097614478565b5b5f6150a584828501614f64565b91505092915050565b5f6150b88261443e565b91506150c38361443e565b92508282019050808211156150db576150da614bbd565b5b92915050565b600481106150f2576150f1614d63565b5b50565b5f819050615102826150e1565b919050565b5f615111826150f5565b9050919050565b61512181615107565b82525050565b5f60608201905061513a5f830186614447565b6151476020830185614447565b6151546040830184615118565b949350505050565b5f6151668261443e565b91506151718361443e565b925082820390508181111561518957615188614bbd565b5b92915050565b5f6151998261443e565b91506151a48361443e565b92508282026151b28161443e565b915082820484148315176151c9576151c8614bbd565b5b5092915050565b7f4e487b71000000000000000000000000000000000000000000000000000000005f52601260045260245ffd5b5f6152078261443e565b91506152128361443e565b925082615222576152216151d0565b5b828204905092915050565b5f6152378261443e565b91507fffffffffffffffffffffffffffffffffffffffffffffffffffffffffffffffff820361526957615268614bbd565b5b600182019050919050565b5f819050919050565b5f67ffffffffffffffff82169050919050565b5f6152aa6152a56152a084615274565b614844565b61527d565b9050919050565b6152ba81615290565b82525050565b5f6020820190506152d35f8301846152b1565b92915050565b5f6152e38261449f565b9050919050565b6152f3816152d9565b81146152fd575f5ffd5b50565b5f8151905061530e816152ea565b92915050565b5f6020828403121561532957615328614478565b5b5f61533684828501615300565b91505092915050565b5f61534982614b5c565b915061535483614b5c565b9250828203905060ff81111561536d5761536c614bbd565b5b92915050565b61537c81614743565b8114615386575f5ffd5b50565b5f8151905061539781615373565b92915050565b5f602082840312156153b2576153b1614478565b5b5f6153bf84828501615389565b91505092915050565b5f81905092915050565b5f6153dc826147b6565b6153e681856153c8565b93506153f68185602086016147d0565b80840191505092915050565b5f61540d82846153d2565b91508190509291505056fea2646970667358221220761b307a46cf212f13f8771a19bf385bb85ae712a18a1b5f0bfda38374ccad8364736f6c634300081c0033",
  "linkReferences": {},
  "deployedLinkReferences": {}
}