{
  "_format": "hh-sol-artifact-1",
  "contractName": "InternalStatesOrchestrator",
  "sourceName": "contracts/orchestrators/InternalStatesOrchestrator.sol",
  "abi": [
    {
      "inputs": [
        {
          "internalType": "address",
          "name": "initialOwner",
          "type": "address"
        },
        {
          "internalType": "address",
          "name": "config_",
          "type": "address"
        },
        {
          "internalType": "address",
          "name": "automationRegistry_",
          "type": "address"
        }
      ],
      "stateMutability": "nonpayable",
      "type": "constructor"
    },
    {
      "inputs": [
        {
          "internalType": "address",
          "name": "sender",
          "type": "address"
        },
        {
          "internalType": "uint256",
          "name": "balance",
          "type": "uint256"
        },
        {
          "internalType": "uint256",
          "name": "amount",
          "type": "uint256"
        }
      ],
      "name": "InsufficientFunds",
      "type": "error"
    },
    {
      "inputs": [],
      "name": "InvalidArguments",
      "type": "error"
    },
    {
      "inputs": [],
      "name": "InvalidState",
      "type": "error"
    },
    {
      "inputs": [],
      "name": "NotAuthorized",
      "type": "error"
    },
    {
      "inputs": [
        {
          "internalType": "address",
          "name": "owner",
          "type": "address"
        }
      ],
      "name": "OwnableInvalidOwner",
      "type": "error"
    },
    {
      "inputs": [
        {
          "internalType": "address",
          "name": "account",
          "type": "address"
        }
      ],
      "name": "OwnableUnauthorizedAccount",
      "type": "error"
    },
    {
      "inputs": [],
      "name": "ReentrancyGuardReentrantCall",
      "type": "error"
    },
    {
      "inputs": [],
      "name": "SystemNotIdle",
      "type": "error"
    },
    {
      "inputs": [],
      "name": "TooEarly",
      "type": "error"
    },
    {
      "inputs": [],
      "name": "ZeroAddress",
      "type": "error"
    },
    {
      "anonymous": false,
      "inputs": [
        {
          "indexed": true,
          "internalType": "address",
          "name": "newAutomationRegistry",
          "type": "address"
        }
      ],
      "name": "AutomationRegistryUpdated",
      "type": "event"
    },
    {
      "anonymous": false,
      "inputs": [
        {
          "indexed": true,
          "internalType": "uint16",
          "name": "epochCounter",
          "type": "uint16"
        }
      ],
      "name": "InternalStateProcessed",
      "type": "event"
    },
    {
      "anonymous": false,
      "inputs": [
        {
          "indexed": true,
          "internalType": "address",
          "name": "previousOwner",
          "type": "address"
        },
        {
          "indexed": true,
          "internalType": "address",
          "name": "newOwner",
          "type": "address"
        }
      ],
      "name": "OwnershipTransferred",
      "type": "event"
    },
    {
      "inputs": [],
      "name": "BASIS_POINTS_FACTOR",
      "outputs": [
        {
          "internalType": "uint16",
          "name": "",
          "type": "uint16"
        }
      ],
      "stateMutability": "view",
      "type": "function"
    },
    {
      "inputs": [],
      "name": "MAX_REVENUE_SHARE_FEE",
      "outputs": [
        {
          "internalType": "uint16",
          "name": "",
          "type": "uint16"
        }
      ],
      "stateMutability": "view",
      "type": "function"
    },
    {
      "inputs": [],
      "name": "MAX_VOLUME_FEE",
      "outputs": [
        {
          "internalType": "uint16",
          "name": "",
          "type": "uint16"
        }
      ],
      "stateMutability": "view",
      "type": "function"
    },
    {
      "inputs": [],
      "name": "YEAR_IN_SECONDS",
      "outputs": [
        {
          "internalType": "uint32",
          "name": "",
          "type": "uint32"
        }
      ],
      "stateMutability": "view",
      "type": "function"
    },
    {
      "inputs": [],
      "name": "automationRegistry",
      "outputs": [
        {
          "internalType": "address",
          "name": "",
          "type": "address"
        }
      ],
      "stateMutability": "view",
      "type": "function"
    },
    {
      "inputs": [],
      "name": "bufferAmount",
      "outputs": [
        {
          "internalType": "uint256",
          "name": "",
          "type": "uint256"
        }
      ],
      "stateMutability": "view",
      "type": "function"
    },
    {
      "inputs": [
        {
          "internalType": "bytes",
          "name": "",
          "type": "bytes"
        }
      ],
      "name": "checkUpkeep",
      "outputs": [
        {
          "internalType": "bool",
          "name": "upkeepNeeded",
          "type": "bool"
        },
        {
          "internalType": "bytes",
          "name": "performData",
          "type": "bytes"
        }
      ],
      "stateMutability": "view",
      "type": "function"
    },
    {
      "inputs": [],
      "name": "config",
      "outputs": [
        {
          "internalType": "contract IOrionConfig",
          "name": "",
          "type": "address"
        }
      ],
      "stateMutability": "view",
      "type": "function"
    },
    {
      "inputs": [],
      "name": "currentMinibatchIndex",
      "outputs": [
        {
          "internalType": "uint8",
          "name": "",
          "type": "uint8"
        }
      ],
      "stateMutability": "view",
      "type": "function"
    },
    {
      "inputs": [],
      "name": "currentPhase",
      "outputs": [
        {
          "internalType": "enum IInternalStateOrchestrator.InternalUpkeepPhase",
          "name": "",
          "type": "uint8"
        }
      ],
      "stateMutability": "view",
      "type": "function"
    },
    {
      "inputs": [],
      "name": "encryptedMinibatchSize",
      "outputs": [
        {
          "internalType": "uint8",
          "name": "",
          "type": "uint8"
        }
      ],
      "stateMutability": "view",
      "type": "function"
    },
    {
      "inputs": [
        {
          "internalType": "uint256",
          "name": "",
          "type": "uint256"
        }
      ],
      "name": "encryptedVaultsEpoch",
      "outputs": [
        {
          "internalType": "address",
          "name": "",
          "type": "address"
        }
      ],
      "stateMutability": "view",
      "type": "function"
    },
    {
      "inputs": [],
      "name": "epochCounter",
      "outputs": [
        {
          "internalType": "uint16",
          "name": "",
          "type": "uint16"
        }
      ],
      "stateMutability": "view",
      "type": "function"
    },
    {
      "inputs": [],
      "name": "epochDuration",
      "outputs": [
        {
          "internalType": "uint32",
          "name": "",
          "type": "uint32"
        }
      ],
      "stateMutability": "view",
      "type": "function"
    },
    {
      "inputs": [],
      "name": "getBuyingOrders",
      "outputs": [
        {
          "internalType": "address[]",
          "name": "tokens",
          "type": "address[]"
        },
        {
          "internalType": "uint256[]",
          "name": "amounts",
          "type": "uint256[]"
        }
      ],
      "stateMutability": "view",
      "type": "function"
    },
    {
      "inputs": [],
      "name": "getSellingOrders",
      "outputs": [
        {
          "internalType": "address[]",
          "name": "tokens",
          "type": "address[]"
        },
        {
          "internalType": "uint256[]",
          "name": "amounts",
          "type": "uint256[]"
        }
      ],
      "stateMutability": "view",
      "type": "function"
    },
    {
      "inputs": [],
      "name": "intentFactor",
      "outputs": [
        {
          "internalType": "uint256",
          "name": "",
          "type": "uint256"
        }
      ],
      "stateMutability": "view",
      "type": "function"
    },
    {
      "inputs": [],
      "name": "liquidityOrchestrator",
      "outputs": [
        {
          "internalType": "contract ILiquidityOrchestrator",
          "name": "",
          "type": "address"
        }
      ],
      "stateMutability": "view",
      "type": "function"
    },
    {
      "inputs": [],
      "name": "owner",
      "outputs": [
        {
          "internalType": "address",
          "name": "",
          "type": "address"
        }
      ],
      "stateMutability": "view",
      "type": "function"
    },
    {
      "inputs": [],
      "name": "pendingProtocolFees",
      "outputs": [
        {
          "internalType": "uint256",
          "name": "",
          "type": "uint256"
        }
      ],
      "stateMutability": "view",
      "type": "function"
    },
    {
      "inputs": [
        {
          "internalType": "bytes",
          "name": "performData",
          "type": "bytes"
        }
      ],
      "name": "performUpkeep",
      "outputs": [],
      "stateMutability": "nonpayable",
      "type": "function"
    },
    {
      "inputs": [],
      "name": "priceAdapterPrecision",
      "outputs": [
        {
          "internalType": "uint256",
          "name": "",
          "type": "uint256"
        }
      ],
      "stateMutability": "view",
      "type": "function"
    },
    {
      "inputs": [],
      "name": "registry",
      "outputs": [
        {
          "internalType": "contract IPriceAdapterRegistry",
          "name": "",
          "type": "address"
        }
      ],
      "stateMutability": "view",
      "type": "function"
    },
    {
      "inputs": [],
      "name": "renounceOwnership",
      "outputs": [],
      "stateMutability": "nonpayable",
      "type": "function"
    },
    {
      "inputs": [],
      "name": "rsFeeCoefficient",
      "outputs": [
        {
          "internalType": "uint16",
          "name": "",
          "type": "uint16"
        }
      ],
      "stateMutability": "view",
      "type": "function"
    },
    {
      "inputs": [
        {
          "internalType": "uint256",
          "name": "amount",
          "type": "uint256"
        }
      ],
      "name": "subtractPendingProtocolFees",
      "outputs": [],
      "stateMutability": "nonpayable",
      "type": "function"
    },
    {
      "inputs": [
        {
          "internalType": "address",
          "name": "newOwner",
          "type": "address"
        }
      ],
      "name": "transferOwnership",
      "outputs": [],
      "stateMutability": "nonpayable",
      "type": "function"
    },
    {
      "inputs": [],
      "name": "transparentMinibatchSize",
      "outputs": [
        {
          "internalType": "uint8",
          "name": "",
          "type": "uint8"
        }
      ],
      "stateMutability": "view",
      "type": "function"
    },
    {
      "inputs": [
        {
          "internalType": "uint256",
          "name": "",
          "type": "uint256"
        }
      ],
      "name": "transparentVaultsEpoch",
      "outputs": [
        {
          "internalType": "address",
          "name": "",
          "type": "address"
        }
      ],
      "stateMutability": "view",
      "type": "function"
    },
    {
      "inputs": [],
      "name": "underlyingAsset",
      "outputs": [
        {
          "internalType": "address",
          "name": "",
          "type": "address"
        }
      ],
      "stateMutability": "view",
      "type": "function"
    },
    {
      "inputs": [],
      "name": "underlyingDecimals",
      "outputs": [
        {
          "internalType": "uint8",
          "name": "",
          "type": "uint8"
        }
      ],
      "stateMutability": "view",
      "type": "function"
    },
    {
      "inputs": [
        {
          "internalType": "address",
          "name": "newAutomationRegistry",
          "type": "address"
        }
      ],
      "name": "updateAutomationRegistry",
      "outputs": [],
      "stateMutability": "nonpayable",
      "type": "function"
    },
    {
      "inputs": [
        {
          "internalType": "uint32",
          "name": "newEpochDuration",
          "type": "uint32"
        }
      ],
      "name": "updateEpochDuration",
      "outputs": [],
      "stateMutability": "nonpayable",
      "type": "function"
    },
    {
      "inputs": [
        {
          "internalType": "uint8",
          "name": "_transparentMinibatchSize",
          "type": "uint8"
        },
        {
          "internalType": "uint8",
          "name": "_encryptedMinibatchSize",
          "type": "uint8"
        }
      ],
      "name": "updateMinibatchSizes",
      "outputs": [],
      "stateMutability": "nonpayable",
      "type": "function"
    },
    {
      "inputs": [
        {
          "internalType": "uint16",
          "name": "_vFeeCoefficient",
          "type": "uint16"
        },
        {
          "internalType": "uint16",
          "name": "_rsFeeCoefficient",
          "type": "uint16"
        }
      ],
      "name": "updateProtocolFees",
      "outputs": [],
      "stateMutability": "nonpayable",
      "type": "function"
    },
    {
      "inputs": [],
      "name": "vFeeCoefficient",
      "outputs": [
        {
          "internalType": "uint16",
          "name": "",
          "type": "uint16"
        }
      ],
      "stateMutability": "view",
      "type": "function"
    }
  ],
  "bytecode": "0x608060405234801561000f575f5ffd5b5060405161406a38038061406a83398101604081905261002e916107c1565b826100d26100cd604080516080810182525f80825260208201819052918101829052606081019190915250604080516080810182527350157cffd6bbfa2dece204a89ec419c23ef5755d815273cd3ab3bd6bcc0c0bf3e27912a92043e817b1cf696020820152731364cbbf2cdf5032c47d8226a6f6fbd2afcdacac9181019190915273901f8942346f7ab3a01f6d7613119bca447bb030606082015290565b61051f565b6100ef73a02cda4ca3a71d7c46997716f4283aa851c288126105d8565b6001600160a01b03811661011c57604051631e4fbdf760e01b81525f600482015260240160405180910390fd5b61012581610615565b50600180556001600160a01b0382166101515760405163d92e233d60e01b815260040160405180910390fd5b6001600160a01b0381166101785760405163d92e233d60e01b815260040160405180910390fd5b600380546001600160a01b0319166001600160a01b0384169081179091556040805163015df99360e01b8152905163015df993916004808201926020929091908290030181865afa1580156101cf573d5f5f3e3d5ffd5b505050506040513d601f19601f820116820180604052508101906101f3919061080b565b600580546001600160a01b0319166001600160a01b039283161790556003546040805163d1717c7d60e01b81529051919092169163d1717c7d9160048083019260209291908290030181865afa15801561024f573d5f5f3e3d5ffd5b505050506040513d601f19601f82011682018060405250810190610273919061082d565b61027e90600a610944565b60075560035460408051631c56369f60e21b815290516001600160a01b0390921691637158da7c916004808201926020929091908290030181865afa1580156102c9573d5f5f3e3d5ffd5b505050506040513d601f19601f820116820180604052508101906102ed919061080b565b600880546001600160a01b0319166001600160a01b039290921691821790556040805163313ce56760e01b8152905163313ce567916004808201926020929091908290030181865afa158015610345573d5f5f3e3d5ffd5b505050506040513d601f19601f82011682018060405250810190610369919061082d565b600860146101000a81548160ff021916908360ff16021790555060035f9054906101000a90046001600160a01b03166001600160a01b031663567ba7136040518163ffffffff1660e01b8152600401602060405180830381865afa1580156103d3573d5f5f3e3d5ffd5b505050506040513d601f19601f820116820180604052508101906103f7919061082d565b61040290600a610944565b6006556016805463ffff000019166301010000179055600280546001600160a01b0319166001600160a01b038381169190911790915560035460408051631d06d6c760e11b815290519190921691633a0dad8e9160048281019260209291908290030181865afa158015610478573d5f5f3e3d5ffd5b505050506040513d601f19601f8201168201806040525081019061049c919061080b565b600480546001600160a01b03929092166001600160a01b03199092169190911790556014805463ffffffff1916620151801790556104d942610664565b6015556016805465ffff0000ffff191690556104f45f61067f565b601781905561050290610691565b50506008805463ffffffff60a81b1916905550505f601a556109ac565b80515f51602061402a5f395f51905f5280546001600160a01b03199081166001600160a01b039384161790915560208301515f51602061404a5f395f51905f528054831691841691909117905560408301517fed8d60e34876f751cc8b014c560745351147d9de11b9347c854e881b128ea6028054831691841691909117905560608301517fed8d60e34876f751cc8b014c560745351147d9de11b9347c854e881b128ea6038054909216921691909117905550565b50565b7f5ea69329017273582817d320489fbd94f775580e90c092699ca6f3d12fdf7d0080546001600160a01b0319166001600160a01b03831617905550565b5f80546001600160a01b038381166001600160a01b0319831681178455604051919092169283917f8be0079c531659141344cd1fd0a4f28419497f9722a3daafe3b4186f6b6457e09190a35050565b6014545f906106799063ffffffff1683610952565b92915050565b5f61067963ffffffff831660046106a0565b5f61069c8230610737565b5090565b5f51602061404a5f395f51905f5254604051639cd07acb60e01b81525f915f51602061402a5f395f51905f52916001600160a01b0390911690639cd07acb906106ef9087908790600401610965565b6020604051808303815f875af115801561070b573d5f5f3e3d5ffd5b505050506040513d601f19601f8201168201806040525081019061072f9190610995565b949350505050565b5f5f51602061402a5f395f51905f528054604051635ca4b5b160e11b8152600481018690526001600160a01b03858116602483015292935091169063b9496b62906044015f604051808303815f87803b158015610792575f5ffd5b505af11580156107a4573d5f5f3e3d5ffd5b50505050505050565b6001600160a01b03811681146105d5575f5ffd5b5f5f5f606084860312156107d3575f5ffd5b83516107de816107ad565b60208501519093506107ef816107ad565b6040850151909250610800816107ad565b809150509250925092565b5f6020828403121561081b575f5ffd5b8151610826816107ad565b9392505050565b5f6020828403121561083d575f5ffd5b815160ff81168114610826575f5ffd5b634e487b7160e01b5f52601160045260245ffd5b6001815b600184111561089c578085048111156108805761088061084d565b600184161561088e57908102905b60019390931c928002610865565b935093915050565b5f826108b257506001610679565b816108be57505f610679565b81600181146108d457600281146108de576108fa565b6001915050610679565b60ff8411156108ef576108ef61084d565b50506001821b610679565b5060208310610133831016604e8410600b841016171561091d575081810a610679565b6109295f198484610861565b805f190482111561093c5761093c61084d565b029392505050565b5f61082660ff8416836108a4565b808201808211156106795761067961084d565b828152604081016054831061098857634e487b7160e01b5f52602160045260245ffd5b8260208301529392505050565b5f602082840312156109a5575f5ffd5b5051919050565b613671806109b95f395ff3fe608060405234801561000f575f5ffd5b50600436106101a9575f3560e01c8062bb07bb146101ad578063055ad42e146101c25780630844697d146101ec57806308af604d1461021457806314b19c5a1461023957806314b5d07f1461024757806325a760c21461025a578063289a2f761461026e5780632b0088b41461028e57806336021ef4146102a5578063380e443b146102b95780633a0dad8e146102c25780634585e33b146102d55780634ff0876a146102e85780635488cd621461030d57806358fac65b146103215780635dc228a0146103345780636e04ff0d146103475780637060444514610368578063715018a61461037b5780637158da7c146103835780637847ea531461039657806379502c55146103a15780637b103999146103b45780637cdabf0a146103c7578063800f9fad146103da5780638da5cb5b146103e35780638f5c9465146103eb578063a08b82d7146103f4578063b8b2af7c1461040a578063c18e2a5c1461041f578063c2cb5d8814610428578063ca1f32f114610430578063eeb393c914610439578063f2fde38b1461044c578063f91b5b251461045f575b5f5ffd5b6101c06101bb366004612ddd565b610467565b005b6016546101d690600160201b900460ff1681565b6040516101e39190612e28565b60405180910390f35b60085461020190600160b81b900461ffff1681565b60405161ffff90911681526020016101e3565b6016546102279062010000900460ff1681565b60405160ff90911681526020016101e3565b6016546102019061ffff1681565b6101c0610255366004612e56565b610561565b60085461022790600160a01b900460ff1681565b61028161027c366004612e71565b61066a565b6040516101e39190612e88565b61029760075481565b6040519081526020016101e3565b601654610227906301000000900460ff1681565b6102016105dc81565b600454610281906001600160a01b031681565b6101c06102e3366004612e9c565b610692565b6014546102f89063ffffffff1681565b60405163ffffffff90911681526020016101e3565b60165461022790600160281b900460ff1681565b61028161032f366004612e71565b61086f565b600254610281906001600160a01b031681565b61035a610355366004612e9c565b61087e565b6040516101e3929190612f08565b6101c0610376366004612e71565b610bcc565b6101c0610c56565b600854610281906001600160a01b031681565b6102f86301e1338081565b600354610281906001600160a01b031681565b600554610281906001600160a01b031681565b6101c06103d5366004612f5c565b610c69565b61029760095481565b610281610d70565b61020161271081565b6103fc610d7e565b6040516101e3929190612f8d565b60085461020190600160a81b900461ffff1681565b610297601a5481565b6103fc610f16565b61029760065481565b6101c0610447366004613027565b6110a7565b6101c061045a366004612e56565b611182565b610201606481565b61046f6111bf565b60ff82161580610480575060ff8116155b1561049e576040516317dbc4cb60e21b815260040160405180910390fd5b60035f9054906101000a90046001600160a01b03166001600160a01b031663edcf9c1f6040518163ffffffff1660e01b8152600401602060405180830381865afa1580156104ee573d5f5f3e3d5ffd5b505050506040513d601f19601f820116820180604052508101906105129190613042565b61052f576040516312aecd8160e01b815260040160405180910390fd5b6016805463ffff000019166201000060ff9485160263ff00000019161763010000009290931691909102919091179055565b6105696111bf565b6001600160a01b0381166105905760405163d92e233d60e01b815260040160405180910390fd5b60035f9054906101000a90046001600160a01b03166001600160a01b031663edcf9c1f6040518163ffffffff1660e01b8152600401602060405180830381865afa1580156105e0573d5f5f3e3d5ffd5b505050506040513d601f19601f820116820180604052508101906106049190613042565b610621576040516312aecd8160e01b815260040160405180910390fd5b600280546001600160a01b0319166001600160a01b0383169081179091556040517f6cc7ebdb6c8c53291c5ae16148cab9b049d23bf5bde5632900b40edff56fcb43905f90a250565b60198181548110610679575f80fd5b5f918252602090912001546001600160a01b0316905081565b6002546001600160a01b031633146106bd5760405163ea8e4eb560e01b815260040160405180910390fd5b6106c56111f1565b60048110156106e7576040516317dbc4cb60e21b815260040160405180910390fd5b5f6106f56004828486613061565b6106fe91613088565b90506341659aab60e01b6001600160e01b03198216016107255761072061121b565b610861565b636ce38ed360e11b6001600160e01b0319821601610769575f61074b8360048187613061565b81019061075891906130c0565b9050610763816114a8565b50610861565b635954faa160e01b6001600160e01b03198216016107a7575f61078f8360048187613061565b81019061079c91906130c0565b905061076381611b50565b6292a80f60e51b6001600160e01b03198216016107c657610720611f6e565b6265e66b60e01b6001600160e01b0319821601610803575f6107eb8360048187613061565b8101906107f891906130c0565b905061076381612292565b63f4d3cc0960e01b6001600160e01b0319821601610841575f6108298360048187613061565b81019061083691906130c0565b9050610763816126c7565b63c4b3cef760e01b6001600160e01b0319821601610861576108616127a0565b5061086b60018055565b5050565b60188181548110610679575f80fd5b5f606060035f9054906101000a90046001600160a01b03166001600160a01b031663edcf9c1f6040518163ffffffff1660e01b8152600401602060405180830381865afa1580156108d1573d5f5f3e3d5ffd5b505050506040513d601f19601f820116820180604052508101906108f59190613042565b8015610902575060155442115b1561095257600191507fbe9a655586dceb82dfa0af992b5d8ae7fa45053cb7fd6f141f541da7572978c760405160200161093c91906130db565b6040516020818303038152906040529050610bc5565b6001601654600160201b900460ff16600681111561097257610972612e14565b036109bd57600191507f2638e25a856cbfe28e0ae1857cb597cc2ceb873ce579b7d93c2258e45a754481601660059054906101000a900460ff1660405160200161093c9291906130f0565b6002601654600160201b900460ff1660068111156109dd576109dd612e14565b03610a2857600191507fa6ab055f7fc0612ad6e844f7e1dd3a6df793560cd68d707affa0dd01c39ec8f1601660059054906101000a900460ff1660405160200161093c9291906130f0565b6003601654600160201b900460ff166006811115610a4857610a48612e14565b03610a8257600191507fedaafe206508e00f40674bb87dda745bccfe8a3f3f6d6eaaf6db5f44021a1c1360405160200161093c91906130db565b6004601654600160201b900460ff166006811115610aa257610aa2612e14565b03610aed57600191507fff9a199536c068c55c334e40ebfa355733f79152332d6586d615c5bb37fd5c17601660059054906101000a900460ff1660405160200161093c9291906130f0565b6005601654600160201b900460ff166006811115610b0d57610b0d612e14565b03610b5857600191507f0b2c33f7f9ce5cba78feb12c50c7fc97cbcfb655f151982783c0f2faf7567b0b601660059054906101000a900460ff1660405160200161093c9291906130f0565b6006601654600160201b900460ff166006811115610b7857610b78612e14565b03610bb257600191507f3b4c310984a9fe486c05a56b52659c09d4bf9f3ef9b799ad52ee29a7d805741e60405160200161093c91906130db565b505060408051602081019091525f808252905b9250929050565b6004546001600160a01b03163314610bf75760405163ea8e4eb560e01b815260040160405180910390fd5b600954811115610c3d57600854600954604051632e2a182f60e11b81526001600160a01b0390921660048301526024820183905260448201526064015b60405180910390fd5b8060095f828254610c4e919061312b565b909155505050565b610c5e6111bf565b610c675f61296c565b565b610c716111bf565b606461ffff83161180610c8957506105dc61ffff8216115b15610ca7576040516317dbc4cb60e21b815260040160405180910390fd5b60035f9054906101000a90046001600160a01b03166001600160a01b031663edcf9c1f6040518163ffffffff1660e01b8152600401602060405180830381865afa158015610cf7573d5f5f3e3d5ffd5b505050506040513d601f19601f82011682018060405250810190610d1b9190613042565b610d38576040516312aecd8160e01b815260040160405180910390fd5b6008805463ffffffff60a81b1916600160a81b61ffff9485160261ffff60b81b191617600160b81b9290931691909102919091179055565b5f546001600160a01b031690565b601180546040805160208084028201810190925282815260609384935f93830182828015610dd357602002820191905f5260205f20905b81546001600160a01b03168152600190910190602001808311610db5575b505083519394505061ffff83169150506001600160401b03811115610dfa57610dfa61313e565b604051908082528060200260200182016040528015610e23578160200160208202803683370190505b5093508061ffff166001600160401b03811115610e4257610e4261313e565b604051908082528060200260200182016040528015610e6b578160200160208202803683370190505b5092505f5b8161ffff168161ffff161015610f0f575f838261ffff1681518110610e9757610e97613152565b6020026020010151905080868361ffff1681518110610eb857610eb8613152565b6001600160a01b039283166020918202929092018101919091529082165f908152601090915260409020548551869061ffff8516908110610efb57610efb613152565b602090810291909101015250600101610e70565b5050509091565b601180546040805160208084028201810190925282815260609384935f93830182828015610f6b57602002820191905f5260205f20905b81546001600160a01b03168152600190910190602001808311610f4d575b505083519394505061ffff83169150506001600160401b03811115610f9257610f9261313e565b604051908082528060200260200182016040528015610fbb578160200160208202803683370190505b5093508061ffff166001600160401b03811115610fda57610fda61313e565b604051908082528060200260200182016040528015611003578160200160208202803683370190505b5092505f5b8161ffff168161ffff161015610f0f575f838261ffff168151811061102f5761102f613152565b6020026020010151905080868361ffff168151811061105057611050613152565b6001600160a01b039283166020918202929092018101919091529082165f908152600f90915260409020548551869061ffff851690811061109357611093613152565b602090810291909101015250600101611008565b6110af6111bf565b8063ffffffff165f036110d5576040516317dbc4cb60e21b815260040160405180910390fd5b60035f9054906101000a90046001600160a01b03166001600160a01b031663edcf9c1f6040518163ffffffff1660e01b8152600401602060405180830381865afa158015611125573d5f5f3e3d5ffd5b505050506040513d601f19601f820116820180604052508101906111499190613042565b611166576040516312aecd8160e01b815260040160405180910390fd5b6014805463ffffffff191663ffffffff92909216919091179055565b61118a6111bf565b6001600160a01b0381166111b3575f604051631e4fbdf760e01b8152600401610c349190612e88565b6111bc8161296c565b50565b336111c8610d70565b6001600160a01b031614610c67573360405163118cdaa760e01b8152600401610c349190612e88565b60026001540361121457604051633ee5aeb560e01b815260040160405180910390fd5b6002600155565b6015544211158061129d575060035f9054906101000a90046001600160a01b03166001600160a01b031663edcf9c1f6040518163ffffffff1660e01b8152600401602060405180830381865afa158015611277573d5f5f3e3d5ffd5b505050506040513d601f19601f8201168201806040525081019061129b9190613042565b155b156112bb5760405163085de62560e01b815260040160405180910390fd5b6112c4426129bb565b6015555f5b60115461ffff8216101561137a575f600a6007018261ffff16815481106112f2576112f2613152565b5f9182526020808320909101546001600160a01b03168252600b81526040808320839055600c8252808320839055600d8252808320839055600e8252808320839055600f82528083208390556010825280832083905560128252808320805460ff19908116909155600a909252909120805490911690555061137381613166565b90506112c9565b5061138660115f612d3d565b600354604051631da09e4360e31b81526001600160a01b039091169063ed04f218906113b6905f90600401613186565b5f60405180830381865afa1580156113d0573d5f5f3e3d5ffd5b505050506040513d5f823e601f3d908101601f191682016040526113f7919081019061325f565b805161140b91601891602090910190612d58565b50600354604051631da09e4360e31b81526001600160a01b039091169063ed04f2189061143d90600190600401613186565b5f60405180830381865afa158015611457573d5f5f3e3d5ffd5b505050506040513d5f823e601f3d908101601f1916820160405261147e919081019061325f565b805161149291601991602090910190612d58565b506016805460ff60201b1916600160201b179055565b6114b06111f1565b6001601654600160201b900460ff1660068111156114d0576114d0612e14565b146114ee5760405163baf3f0f760e01b815260040160405180910390fd5b6016805460059061150890600160281b900460ff16613290565b91906101000a81548160ff021916908360ff1602179055505f601660029054906101000a900460ff168261153c91906132a5565b60165460ff91821692505f916115599162010000900416836132c1565b60185490915061ffff8216111561158357506018546016805461ffff60201b1916600160211b1790555b815b8161ffff168161ffff161015611b44575f60188261ffff16815481106115ad576115ad613152565b905f5260205f20015f9054906101000a90046001600160a01b031690505f5f826001600160a01b031663d3d034586040518163ffffffff1660e01b81526004015f60405180830381865afa158015611607573d5f5f3e3d5ffd5b505050506040513d5f823e601f3d908101601f1916820160405261162e91908101906132db565b90925090505f805b83518161ffff1610156118b0575f848261ffff168151811061165a5761165a613152565b602002602001015190505f848361ffff168151811061167b5761167b613152565b6020026020010151905080600a6002015f846001600160a01b03166001600160a01b031681526020019081526020015f205f8282546116ba9190613399565b90915550506001600160a01b0382165f9081526012602052604090205460ff1661183057816001600160a01b031663313ce5676040518163ffffffff1660e01b8152600401602060405180830381865afa15801561171a573d5f5f3e3d5ffd5b505050506040513d601f19601f8201168201806040525081019061173e91906133ac565b6001600160a01b038381165f818152600a60205260409020805460ff191660ff94909416939093179092556008541690036117a85760085461178b90600160a01b900460ff16600a6134aa565b6001600160a01b0383165f908152600b6020526040902055611830565b6005546040516341976e0960e01b81526001600160a01b03909116906341976e09906117d8908590600401612e88565b602060405180830381865afa1580156117f3573d5f5f3e3d5ffd5b505050506040513d601f19601f8201168201806040525081019061181791906134b8565b6001600160a01b0383165f908152600b60205260409020555b6001600160a01b0382165f908152600a6020908152604080832054600b90925282205460065460ff9092169290916118839061186f90849087906129d6565b6008548590600160a01b900460ff16612a87565b905061188f8188613399565b965061189a85612af1565b5050505050806118a990613166565b9050611636565b506008545f906118ce90600160a81b900461ffff16836127106129d6565b6014549091506118ef90829063ffffffff908116906301e13380906129d616565b90508060095f8282546119029190613399565b909155506119129050818361312b565b60405163728d42fb60e11b8152600481018290529092505f906001600160a01b0387169063e51a85f690602401602060405180830381865afa15801561195a573d5f5f3e3d5ffd5b505050506040513d601f19601f8201168201806040525081019061197e91906134b8565b905061198a818461312b565b6008549093505f906119aa90600160b81b900461ffff16836127106129d6565b90508060095f8282546119bd9190613399565b909155506119cd9050818361312b565b91505f876001600160a01b031663a68a5267896001600160a01b031663c37fc8a86040518163ffffffff1660e01b8152600401602060405180830381865afa158015611a1b573d5f5f3e3d5ffd5b505050506040513d601f19601f82011682018060405250810190611a3f91906134b8565b875f6040518463ffffffff1660e01b8152600401611a5f939291906134cf565b602060405180830381865afa158015611a7a573d5f5f3e3d5ffd5b505050506040513d601f19601f82011682018060405250810190611a9e91906134b8565b905080886001600160a01b031663d1699c266040518163ffffffff1660e01b8152600401602060405180830381865afa158015611add573d5f5f3e3d5ffd5b505050506040513d601f19601f82011682018060405250810190611b0191906134b8565b611b0b919061312b565b611b159086613399565b6001600160a01b039098165f908152600d60205260409020979097555050600190950194506115859350505050565b5050506111bc60018055565b611b586111f1565b6002601654600160201b900460ff166006811115611b7857611b78612e14565b14611b965760405163baf3f0f760e01b815260040160405180910390fd5b60168054600590611bb090600160281b900460ff16613290565b91906101000a81548160ff021916908360ff1602179055505f601660039054906101000a900460ff1682611be491906132a5565b60165460ff91821692505f91611c02916301000000900416836132c1565b60195490915061ffff82161115611c2c57506019546016805461ffff60201b1916600360201b1790555b815b8161ffff168161ffff161015611b44575f60198261ffff1681548110611c5657611c56613152565b5f918252602091829020015460408051631b9d6fc560e31b815290516001600160a01b039092169350839263dceb7e28926004808401938290030181865afa158015611ca4573d5f5f3e3d5ffd5b505050506040513d601f19601f82011682018060405250810190611cc89190613042565b611cd25750611f66565b5f5f826001600160a01b031663d3d034586040518163ffffffff1660e01b81526004015f60405180830381865afa158015611d0f573d5f5f3e3d5ffd5b505050506040513d5f823e601f3d908101601f19168201604052611d3691908101906132db565b60175491935091505f5b83518161ffff161015611f60575f848261ffff1681518110611d6457611d64613152565b60200260200101519050611db860135f836001600160a01b03166001600160a01b031681526020019081526020015f2054858461ffff1681518110611dab57611dab613152565b6020026020010151612b76565b6001600160a01b0382165f9081526013602090815260408083209390935560129052205460ff16611f3557806001600160a01b031663313ce5676040518163ffffffff1660e01b8152600401602060405180830381865afa158015611e1f573d5f5f3e3d5ffd5b505050506040513d601f19601f82011682018060405250810190611e4391906133ac565b6001600160a01b038281165f818152600a60205260409020805460ff191660ff9490941693909317909255600854169003611ead57600854611e9090600160a01b900460ff16600a6134aa565b6001600160a01b0382165f908152600b6020526040902055611f35565b6005546040516341976e0960e01b81526001600160a01b03909116906341976e0990611edd908490600401612e88565b602060405180830381865afa158015611ef8573d5f5f3e3d5ffd5b505050506040513d601f19601f82011682018060405250810190611f1c91906134b8565b6001600160a01b0382165f908152600b60205260409020555b601754611f428482612b76565b9350611f4d82612af1565b505080611f5990613166565b9050611d40565b50505050505b600101611c2e565b6003601654600160201b900460ff166006811115611f8e57611f8e612e14565b14611fac5760405163baf3f0f760e01b815260040160405180910390fd5b6016805460ff60201b1916600160221b1790555f805b60185461ffff8216101561202d575f60188261ffff1681548110611fe857611fe8613152565b5f9182526020808320909101546001600160a01b0316808352600d9091526040909120549091506120199084613399565b9250508061202690613166565b9050611fc2565b505f5b60195461ffff8216101561209b575f60198261ffff168154811061205657612056613152565b5f9182526020808320909101546001600160a01b0316808352600d9091526040909120549091506120879084613399565b9250508061209490613166565b9050612030565b50600480546040805163dab26e3b60e01b815290515f93612112936001600160a01b03169263dab26e3b92818301926020928290030181865afa1580156120e4573d5f5f3e3d5ffd5b505050506040513d601f19601f8201168201806040525081019061210891906134b8565b83906127106129d6565b905080601a541115612122575050565b5f601a5482612131919061312b565b90505f5b60185461ffff821610156121d4575f60188261ffff168154811061215b5761215b613152565b5f9182526020808320909101546001600160a01b0316808352600d90915260408220549092509061218d8583896129d6565b6001600160a01b0384165f908152600d60205260408120805492935083929091906121b990849061312b565b92505081905550505050806121cd90613166565b9050612135565b505f5b60195461ffff82161015612276575f60198261ffff16815481106121fd576121fd613152565b5f9182526020808320909101546001600160a01b0316808352600d90915260408220549092509061222f8583896129d6565b6001600160a01b0384165f908152600d602052604081208054929350839290919061225b90849061312b565b925050819055505050508061226f90613166565b90506121d7565b5080601a5f8282546122889190613399565b9091555050505050565b6004601654600160201b900460ff1660068111156122b2576122b2612e14565b146122d05760405163baf3f0f760e01b815260040160405180910390fd5b601680546005906122ea90600160281b900460ff16613290565b91906101000a81548160ff021916908360ff1602179055505f601660029054906101000a900460ff168261231e91906132a5565b60165460ff91821692505f9161233b9162010000900416836132c1565b60185490915061ffff8216111561236557506018546016805461ffff60201b1916600560201b1790555b815b8161ffff168161ffff1610156126c1575f60188261ffff168154811061238f5761238f613152565b905f5260205f20015f9054906101000a90046001600160a01b031690505f5f826001600160a01b031663b6eba6536040518163ffffffff1660e01b81526004015f60405180830381865afa1580156123e9573d5f5f3e3d5ffd5b505050506040513d5f823e601f3d908101601f1916820160405261241091908101906134fb565b6001600160a01b0385165f908152600d60205260408120549294509092505b83518161ffff1610156126b1575f848261ffff168151811061245357612453613152565b602002602001015190505f848361ffff168151811061247457612474613152565b6020908102919091018101516001600160a01b0384165f908152601290925260409091205490915060ff166125f557816001600160a01b031663313ce5676040518163ffffffff1660e01b8152600401602060405180830381865afa1580156124df573d5f5f3e3d5ffd5b505050506040513d601f19601f8201168201806040525081019061250391906133ac565b6001600160a01b038381165f818152600a60205260409020805460ff191660ff949094169390931790925560085416900361256d5760085461255090600160a01b900460ff16600a6134aa565b6001600160a01b0383165f908152600b60205260409020556125f5565b6005546040516341976e0960e01b81526001600160a01b03909116906341976e099061259d908590600401612e88565b602060405180830381865afa1580156125b8573d5f5f3e3d5ffd5b505050506040513d601f19601f820116820180604052508101906125dc91906134b8565b6001600160a01b0383165f908152600b60205260409020555b6001600160a01b0382165f908152600a6020908152604080832054600b90925282205460065460075460ff9093169391926126609161264d918590612646908c9063ffffffff808c1691906129d616565b91906129d6565b600854600160a01b900460ff1685612a87565b6001600160a01b0386165f908152600e602052604081208054929350839290919061268c908490613399565b9091555061269b905085612af1565b5050505050806126aa90613166565b905061242f565b5050505050806001019050612367565b50505050565b6005601654600160201b900460ff1660068111156126e7576126e7612e14565b146127055760405163baf3f0f760e01b815260040160405180910390fd5b6016805460059061271f90600160281b900460ff16613290565b91906101000a81548160ff021916908360ff1602179055505f601660039054906101000a900460ff168261275391906132a5565b60165460ff91821692505f91612771916301000000900416836132c1565b60195490915061ffff8216111561279b57506019546016805461ffff60201b1916600360211b1790555b505050565b6006601654600160201b900460ff1660068111156127c0576127c0612e14565b146127de5760405163baf3f0f760e01b815260040160405180910390fd5b5f600a60070180548060200260200160405190810160405280929190818152602001828054801561283657602002820191905f5260205f20905b81546001600160a01b03168152600190910190602001808311612818575b505083519394505f925050505b8161ffff168161ffff161015612901575f838261ffff168151811061286a5761286a613152565b6020908102919091018101516001600160a01b0381165f908152600c8352604080822054600e909452902054909250808211156128c8576128ab818361312b565b6001600160a01b0384165f908152600f60205260409020556128f3565b818111156128f3576128da828261312b565b6001600160a01b0384165f908152601060205260409020555b505050806001019050612843565b506016805460ff60201b19811682555f9061291f9061ffff16613166565b82546101009290920a61ffff8181021990931691831602179091556016546040519116907f0bc12479581640d161e016cef21aa834cb6d6326bbc0d8445e58d56403adf2dc905f90a25050565b5f80546001600160a01b038381166001600160a01b0319831681178455604051919092169283917f8be0079c531659141344cd1fd0a4f28419497f9722a3daafe3b4186f6b6457e09190a35050565b6014545f906129d09063ffffffff1683613399565b92915050565b5f5f5f6129e38686612ba4565b91509150815f03612a07578381816129fd576129fd6135b4565b0492505050612a80565b818411612a1e57612a1e6003851502601118612bc0565b5f848688095f868103871696879004966002600389028118808a02820302808a02820302808a02820302808a02820302808a02820302808a02909103029181900381900460010185841190960395909502919093039390930492909217029150505b9392505050565b5f8260ff168260ff161115612abc57612aa083836135c8565b612aab90600a6134aa565b612ab590856135e1565b9050612a80565b8260ff168260ff161015612ae957612ad482846135c8565b612adf90600a6134aa565b612ab590856135f8565b509192915050565b6001600160a01b0381165f9081526012602052604090205460ff166111bc576011805460018181019092557f31ecc21a745e3968a04e9570e4425bc18fa8019c68028196b546d1669c200c680180546001600160a01b0384166001600160a01b031990911681179091555f908152601260205260409020805460ff1916909117905550565b5f82612b8857612b855f612bd1565b92505b81612b9957612b965f612bd1565b91505b612a8083835f612be3565b5f805f1983850993909202808410938190039390930393915050565b634e487b715f52806020526024601cfd5b5f6129d08263ffffffff166004612c92565b5f5f8215612bf65750600160f81b612bf9565b505f5b5f612c02612d19565b600181015460405163022f65e760e31b815260048101899052602481018890526001600160f81b0319851660448201529192506001600160a01b03169063117b2f38906064016020604051808303815f875af1158015612c64573d5f5f3e3d5ffd5b505050506040513d601f19601f82011682018060405250810190612c8891906134b8565b9695505050505050565b5f5f612c9c612d19565b6001810154604051639cd07acb60e01b81529192506001600160a01b031690639cd07acb90612cd19087908790600401613617565b6020604051808303815f875af1158015612ced573d5f5f3e3d5ffd5b505050506040513d601f19601f82011682018060405250810190612d1191906134b8565b949350505050565b7fed8d60e34876f751cc8b014c560745351147d9de11b9347c854e881b128ea60090565b5080545f8255905f5260205f20908101906111bc9190612dbb565b828054828255905f5260205f20908101928215612dab579160200282015b82811115612dab57825182546001600160a01b0319166001600160a01b03909116178255602090920191600190910190612d76565b50612db7929150612dbb565b5090565b5b80821115612db7575f8155600101612dbc565b60ff811681146111bc575f5ffd5b5f5f60408385031215612dee575f5ffd5b8235612df981612dcf565b91506020830135612e0981612dcf565b809150509250929050565b634e487b7160e01b5f52602160045260245ffd5b6020810160078310612e3c57612e3c612e14565b91905290565b6001600160a01b03811681146111bc575f5ffd5b5f60208284031215612e66575f5ffd5b8135612a8081612e42565b5f60208284031215612e81575f5ffd5b5035919050565b6001600160a01b0391909116815260200190565b5f5f60208385031215612ead575f5ffd5b82356001600160401b03811115612ec2575f5ffd5b8301601f81018513612ed2575f5ffd5b80356001600160401b03811115612ee7575f5ffd5b856020828401011115612ef8575f5ffd5b6020919091019590945092505050565b8215158152604060208201525f82518060408401528060208501606085015e5f606082850101526060601f19601f8301168401019150509392505050565b803561ffff81168114612f57575f5ffd5b919050565b5f5f60408385031215612f6d575f5ffd5b612f7683612f46565b9150612f8460208401612f46565b90509250929050565b604080825283519082018190525f9060208501906060840190835b81811015612fcf5783516001600160a01b0316835260209384019390920191600101612fa8565b5050838103602080860191909152855180835291810192508501905f5b8181101561300a578251845260209384019390920191600101612fec565b50919695505050505050565b63ffffffff811681146111bc575f5ffd5b5f60208284031215613037575f5ffd5b8135612a8081613016565b5f60208284031215613052575f5ffd5b81518015158114612a80575f5ffd5b5f5f8585111561306f575f5ffd5b8386111561307b575f5ffd5b5050820193919092039150565b80356001600160e01b031981169060048410156130b9576001600160e01b0319600485900360031b81901b82161691505b5092915050565b5f602082840312156130d0575f5ffd5b8135612a8081612dcf565b6001600160e01b031991909116815260040190565b6001600160e01b031992909216825260f81b6001600160f81b031916600482015260050190565b634e487b7160e01b5f52601160045260245ffd5b818103818111156129d0576129d0613117565b634e487b7160e01b5f52604160045260245ffd5b634e487b7160e01b5f52603260045260245ffd5b5f61ffff821661ffff810361317d5761317d613117565b60010192915050565b6020810160028310612e3c57612e3c612e14565b604051601f8201601f191681016001600160401b03811182821017156131c2576131c261313e565b604052919050565b5f6001600160401b038211156131e2576131e261313e565b5060051b60200190565b5f82601f8301126131fb575f5ffd5b815161320e613209826131ca565b61319a565b8082825260208201915060208360051b86010192508583111561322f575f5ffd5b602085015b8381101561325557805161324781612e42565b835260209283019201613234565b5095945050505050565b5f6020828403121561326f575f5ffd5b81516001600160401b03811115613284575f5ffd5b612d11848285016131ec565b5f60ff821660ff810361317d5761317d613117565b60ff81811683821602908116908181146130b9576130b9613117565b61ffff81811683821601908111156129d0576129d0613117565b5f5f604083850312156132ec575f5ffd5b82516001600160401b03811115613301575f5ffd5b61330d858286016131ec565b602085015190935090506001600160401b0381111561332a575f5ffd5b8301601f8101851361333a575f5ffd5b8051613348613209826131ca565b8082825260208201915060208360051b850101925087831115613369575f5ffd5b6020840193505b8284101561338b578351825260209384019390910190613370565b809450505050509250929050565b808201808211156129d0576129d0613117565b5f602082840312156133bc575f5ffd5b8151612a8081612dcf565b6001815b6001841115613402578085048111156133e6576133e6613117565b60018416156133f457908102905b60019390931c9280026133cb565b935093915050565b5f82613418575060016129d0565b8161342457505f6129d0565b816001811461343a576002811461344457613460565b60019150506129d0565b60ff84111561345557613455613117565b50506001821b6129d0565b5060208310610133831016604e8410600b8410161715613483575081810a6129d0565b61348f5f1984846133c7565b805f19048211156134a2576134a2613117565b029392505050565b5f612a8060ff84168361340a565b5f602082840312156134c8575f5ffd5b5051919050565b8381526020810183905260608101600483106134ed576134ed612e14565b826040830152949350505050565b5f5f6040838503121561350c575f5ffd5b82516001600160401b03811115613521575f5ffd5b61352d858286016131ec565b602085015190935090506001600160401b0381111561354a575f5ffd5b8301601f8101851361355a575f5ffd5b8051613568613209826131ca565b8082825260208201915060208360051b850101925087831115613589575f5ffd5b6020840193505b8284101561338b5783516135a381613016565b825260209384019390910190613590565b634e487b7160e01b5f52601260045260245ffd5b60ff82811682821603908111156129d0576129d0613117565b80820281158282048414176129d0576129d0613117565b5f8261361257634e487b7160e01b5f52601260045260245ffd5b500490565b828152604081016054831061362e5761362e612e14565b826020830152939250505056fea2646970667358221220f636e77fe3c4e6f6cbca8d40ce87ebb28e507ec087fc46966a78898571783ccd64736f6c634300081c0033ed8d60e34876f751cc8b014c560745351147d9de11b9347c854e881b128ea600ed8d60e34876f751cc8b014c560745351147d9de11b9347c854e881b128ea601",
  "linkReferences": {},
  "deployedLinkReferences": {}
}