{
  "_format": "hh-sol-artifact-1",
  "contractName": "InternalStatesOrchestrator",
  "sourceName": "contracts/orchestrators/InternalStatesOrchestrator.sol",
  "abi": [
    {
      "inputs": [
        {
          "internalType": "address",
          "name": "target",
          "type": "address"
        }
      ],
      "name": "AddressEmptyCode",
      "type": "error"
    },
    {
      "inputs": [
        {
          "internalType": "address",
          "name": "implementation",
          "type": "address"
        }
      ],
      "name": "ERC1967InvalidImplementation",
      "type": "error"
    },
    {
      "inputs": [],
      "name": "ERC1967NonPayable",
      "type": "error"
    },
    {
      "inputs": [],
      "name": "FailedCall",
      "type": "error"
    },
    {
      "inputs": [],
      "name": "InvalidArguments",
      "type": "error"
    },
    {
      "inputs": [],
      "name": "InvalidInitialization",
      "type": "error"
    },
    {
      "inputs": [],
      "name": "NotAuthorized",
      "type": "error"
    },
    {
      "inputs": [],
      "name": "NotInitializing",
      "type": "error"
    },
    {
      "inputs": [
        {
          "internalType": "address",
          "name": "owner",
          "type": "address"
        }
      ],
      "name": "OwnableInvalidOwner",
      "type": "error"
    },
    {
      "inputs": [
        {
          "internalType": "address",
          "name": "account",
          "type": "address"
        }
      ],
      "name": "OwnableUnauthorizedAccount",
      "type": "error"
    },
    {
      "inputs": [],
      "name": "ReentrancyGuardReentrantCall",
      "type": "error"
    },
    {
      "inputs": [],
      "name": "TooEarly",
      "type": "error"
    },
    {
      "inputs": [],
      "name": "UUPSUnauthorizedCallContext",
      "type": "error"
    },
    {
      "inputs": [
        {
          "internalType": "bytes32",
          "name": "slot",
          "type": "bytes32"
        }
      ],
      "name": "UUPSUnsupportedProxiableUUID",
      "type": "error"
    },
    {
      "inputs": [],
      "name": "ZeroAddress",
      "type": "error"
    },
    {
      "anonymous": false,
      "inputs": [
        {
          "indexed": true,
          "internalType": "address",
          "name": "newAutomationRegistry",
          "type": "address"
        }
      ],
      "name": "AutomationRegistryUpdated",
      "type": "event"
    },
    {
      "anonymous": false,
      "inputs": [
        {
          "indexed": false,
          "internalType": "uint64",
          "name": "version",
          "type": "uint64"
        }
      ],
      "name": "Initialized",
      "type": "event"
    },
    {
      "anonymous": false,
      "inputs": [
        {
          "indexed": false,
          "internalType": "uint256",
          "name": "epochCounter",
          "type": "uint256"
        }
      ],
      "name": "InternalStateProcessed",
      "type": "event"
    },
    {
      "anonymous": false,
      "inputs": [
        {
          "indexed": true,
          "internalType": "address",
          "name": "previousOwner",
          "type": "address"
        },
        {
          "indexed": true,
          "internalType": "address",
          "name": "newOwner",
          "type": "address"
        }
      ],
      "name": "OwnershipTransferStarted",
      "type": "event"
    },
    {
      "anonymous": false,
      "inputs": [
        {
          "indexed": true,
          "internalType": "address",
          "name": "previousOwner",
          "type": "address"
        },
        {
          "indexed": true,
          "internalType": "address",
          "name": "newOwner",
          "type": "address"
        }
      ],
      "name": "OwnershipTransferred",
      "type": "event"
    },
    {
      "anonymous": false,
      "inputs": [
        {
          "indexed": true,
          "internalType": "address",
          "name": "implementation",
          "type": "address"
        }
      ],
      "name": "Upgraded",
      "type": "event"
    },
    {
      "inputs": [],
      "name": "UPGRADE_INTERFACE_VERSION",
      "outputs": [
        {
          "internalType": "string",
          "name": "",
          "type": "string"
        }
      ],
      "stateMutability": "view",
      "type": "function"
    },
    {
      "inputs": [],
      "name": "acceptOwnership",
      "outputs": [],
      "stateMutability": "nonpayable",
      "type": "function"
    },
    {
      "inputs": [],
      "name": "automationRegistry",
      "outputs": [
        {
          "internalType": "address",
          "name": "",
          "type": "address"
        }
      ],
      "stateMutability": "view",
      "type": "function"
    },
    {
      "inputs": [
        {
          "internalType": "bytes",
          "name": "",
          "type": "bytes"
        }
      ],
      "name": "checkUpkeep",
      "outputs": [
        {
          "internalType": "bool",
          "name": "upkeepNeeded",
          "type": "bool"
        },
        {
          "internalType": "bytes",
          "name": "performData",
          "type": "bytes"
        }
      ],
      "stateMutability": "view",
      "type": "function"
    },
    {
      "inputs": [],
      "name": "config",
      "outputs": [
        {
          "internalType": "contract IOrionConfig",
          "name": "",
          "type": "address"
        }
      ],
      "stateMutability": "view",
      "type": "function"
    },
    {
      "inputs": [],
      "name": "currentPhase",
      "outputs": [
        {
          "internalType": "enum InternalStatesOrchestrator.UpkeepPhase",
          "name": "",
          "type": "uint8"
        }
      ],
      "stateMutability": "view",
      "type": "function"
    },
    {
      "inputs": [],
      "name": "currentVaultIndex",
      "outputs": [
        {
          "internalType": "uint256",
          "name": "",
          "type": "uint256"
        }
      ],
      "stateMutability": "view",
      "type": "function"
    },
    {
      "inputs": [],
      "name": "epochCounter",
      "outputs": [
        {
          "internalType": "uint256",
          "name": "",
          "type": "uint256"
        }
      ],
      "stateMutability": "view",
      "type": "function"
    },
    {
      "inputs": [],
      "name": "expectedUnderlyingBuyAmount",
      "outputs": [
        {
          "internalType": "uint256",
          "name": "",
          "type": "uint256"
        }
      ],
      "stateMutability": "view",
      "type": "function"
    },
    {
      "inputs": [],
      "name": "expectedUnderlyingSellAmount",
      "outputs": [
        {
          "internalType": "uint256",
          "name": "",
          "type": "uint256"
        }
      ],
      "stateMutability": "view",
      "type": "function"
    },
    {
      "inputs": [],
      "name": "getBuyingOrders",
      "outputs": [
        {
          "internalType": "address[]",
          "name": "tokens",
          "type": "address[]"
        },
        {
          "internalType": "uint256[]",
          "name": "amounts",
          "type": "uint256[]"
        }
      ],
      "stateMutability": "view",
      "type": "function"
    },
    {
      "inputs": [],
      "name": "getSellingOrders",
      "outputs": [
        {
          "internalType": "address[]",
          "name": "tokens",
          "type": "address[]"
        },
        {
          "internalType": "uint256[]",
          "name": "amounts",
          "type": "uint256[]"
        }
      ],
      "stateMutability": "view",
      "type": "function"
    },
    {
      "inputs": [
        {
          "internalType": "address",
          "name": "initialOwner",
          "type": "address"
        },
        {
          "internalType": "address",
          "name": "automationRegistry_",
          "type": "address"
        },
        {
          "internalType": "address",
          "name": "config_",
          "type": "address"
        }
      ],
      "name": "initialize",
      "outputs": [],
      "stateMutability": "nonpayable",
      "type": "function"
    },
    {
      "inputs": [],
      "name": "intentFactor",
      "outputs": [
        {
          "internalType": "uint256",
          "name": "",
          "type": "uint256"
        }
      ],
      "stateMutability": "view",
      "type": "function"
    },
    {
      "inputs": [],
      "name": "nextUpdateTime",
      "outputs": [
        {
          "internalType": "uint256",
          "name": "",
          "type": "uint256"
        }
      ],
      "stateMutability": "view",
      "type": "function"
    },
    {
      "inputs": [],
      "name": "owner",
      "outputs": [
        {
          "internalType": "address",
          "name": "",
          "type": "address"
        }
      ],
      "stateMutability": "view",
      "type": "function"
    },
    {
      "inputs": [],
      "name": "pendingOwner",
      "outputs": [
        {
          "internalType": "address",
          "name": "",
          "type": "address"
        }
      ],
      "stateMutability": "view",
      "type": "function"
    },
    {
      "inputs": [
        {
          "internalType": "bytes",
          "name": "performData",
          "type": "bytes"
        }
      ],
      "name": "performUpkeep",
      "outputs": [],
      "stateMutability": "nonpayable",
      "type": "function"
    },
    {
      "inputs": [],
      "name": "proxiableUUID",
      "outputs": [
        {
          "internalType": "bytes32",
          "name": "",
          "type": "bytes32"
        }
      ],
      "stateMutability": "view",
      "type": "function"
    },
    {
      "inputs": [],
      "name": "registry",
      "outputs": [
        {
          "internalType": "contract IOracleRegistry",
          "name": "",
          "type": "address"
        }
      ],
      "stateMutability": "view",
      "type": "function"
    },
    {
      "inputs": [],
      "name": "renounceOwnership",
      "outputs": [],
      "stateMutability": "nonpayable",
      "type": "function"
    },
    {
      "inputs": [
        {
          "internalType": "address",
          "name": "newOwner",
          "type": "address"
        }
      ],
      "name": "transferOwnership",
      "outputs": [],
      "stateMutability": "nonpayable",
      "type": "function"
    },
    {
      "inputs": [
        {
          "internalType": "uint256",
          "name": "",
          "type": "uint256"
        }
      ],
      "name": "transparentVaultsEpoch",
      "outputs": [
        {
          "internalType": "address",
          "name": "",
          "type": "address"
        }
      ],
      "stateMutability": "view",
      "type": "function"
    },
    {
      "inputs": [],
      "name": "underlyingDecimals",
      "outputs": [
        {
          "internalType": "uint8",
          "name": "",
          "type": "uint8"
        }
      ],
      "stateMutability": "view",
      "type": "function"
    },
    {
      "inputs": [
        {
          "internalType": "address",
          "name": "newAutomationRegistry",
          "type": "address"
        }
      ],
      "name": "updateAutomationRegistry",
      "outputs": [],
      "stateMutability": "nonpayable",
      "type": "function"
    },
    {
      "inputs": [
        {
          "internalType": "address",
          "name": "newConfig",
          "type": "address"
        }
      ],
      "name": "updateConfig",
      "outputs": [],
      "stateMutability": "nonpayable",
      "type": "function"
    },
    {
      "inputs": [],
      "name": "updateInterval",
      "outputs": [
        {
          "internalType": "uint256",
          "name": "",
          "type": "uint256"
        }
      ],
      "stateMutability": "view",
      "type": "function"
    },
    {
      "inputs": [
        {
          "internalType": "address",
          "name": "newImplementation",
          "type": "address"
        },
        {
          "internalType": "bytes",
          "name": "data",
          "type": "bytes"
        }
      ],
      "name": "upgradeToAndCall",
      "outputs": [],
      "stateMutability": "payable",
      "type": "function"
    }
  ],
  "bytecode": "0x60a06040523073ffffffffffffffffffffffffffffffffffffffff1660809073ffffffffffffffffffffffffffffffffffffffff168152503480156041575f5ffd5b506080516170526100685f395f8181614aba01528181614b0f0152614d0501526170525ff3fe6080604052600436106101b6575f3560e01c80636e04ff0d116100eb578063a08b82d711610089578063c2cb5d8811610063578063c2cb5d8814610592578063e30c3978146105bd578063f2fde38b146105e7578063fd2c80ae1461060f576101b6565b8063a08b82d714610515578063ad3cb1cc14610540578063c0c53b8b1461056a576101b6565b806379ba5097116100c557806379ba5097146104815780637b103999146104975780638da5cb5b146104c1578063998b1741146104eb576101b6565b80636e04ff0d14610404578063715018a61461044157806379502c5514610457576101b6565b80634585e33b1161015857806352d1902d1161013257806352d1902d1461034c57806358fac65b146103765780635dc228a0146103b25780636cc919c8146103dc576101b6565b80634585e33b146102de5780634a1d9625146103065780634f1ef28614610330576101b6565b806314b5d07f1161019457806314b5d07f1461023857806325a760c2146102605780632b0088b41461028a57806335238fb8146102b4576101b6565b8063055ad42e146101ba57806306cce848146101e457806314b19c5a1461020e575b5f5ffd5b3480156101c5575f5ffd5b506101ce610639565b6040516101db9190615c14565b60405180910390f35b3480156101ef575f5ffd5b506101f861064b565b6040516102059190615c45565b60405180910390f35b348015610219575f5ffd5b50610222610651565b60405161022f9190615c45565b60405180910390f35b348015610243575f5ffd5b5061025e60048036038101906102599190615cc9565b610657565b005b34801561026b575f5ffd5b50610274610811565b6040516102819190615d0f565b60405180910390f35b348015610295575f5ffd5b5061029e610823565b6040516102ab9190615c45565b60405180910390f35b3480156102bf575f5ffd5b506102c8610829565b6040516102d59190615c45565b60405180910390f35b3480156102e9575f5ffd5b5061030460048036038101906102ff9190615d89565b61082f565b005b348015610311575f5ffd5b5061031a6110b6565b6040516103279190615c45565b60405180910390f35b61034a60048036038101906103459190615f0c565b6110bc565b005b348015610357575f5ffd5b506103606110db565b60405161036d9190615f7e565b60405180910390f35b348015610381575f5ffd5b5061039c60048036038101906103979190615fc1565b61110c565b6040516103a99190615ffb565b60405180910390f35b3480156103bd575f5ffd5b506103c6611147565b6040516103d39190615ffb565b60405180910390f35b3480156103e7575f5ffd5b5061040260048036038101906103fd9190615cc9565b61116b565b005b34801561040f575f5ffd5b5061042a60048036038101906104259190615d89565b6112bb565b60405161043892919061608e565b60405180910390f35b34801561044c575f5ffd5b506104556116f6565b005b348015610462575f5ffd5b5061046b611709565b6040516104789190616117565b60405180910390f35b34801561048c575f5ffd5b5061049561172e565b005b3480156104a2575f5ffd5b506104ab6117bc565b6040516104b89190616150565b60405180910390f35b3480156104cc575f5ffd5b506104d56117e1565b6040516104e29190615ffb565b60405180910390f35b3480156104f6575f5ffd5b506104ff611816565b60405161050c9190615c45565b60405180910390f35b348015610520575f5ffd5b5061052961181c565b6040516105379291906162d7565b60405180910390f35b34801561054b575f5ffd5b50610554611d59565b604051610561919061635e565b60405180910390f35b348015610575575f5ffd5b50610590600480360381019061058b919061637e565b611d92565b005b34801561059d575f5ffd5b506105a661256c565b6040516105b49291906162d7565b60405180910390f35b3480156105c8575f5ffd5b506105d1612aa7565b6040516105de9190615ffb565b60405180910390f35b3480156105f2575f5ffd5b5061060d60048036038101906106089190615cc9565b612adc565b005b34801561061a575f5ffd5b50610623612b95565b6040516106309190615c45565b60405180910390f35b60125f9054906101000a900460ff1681565b600e5481565b60105481565b61066b679ee891b7ca53fa5760c01b612b9a565b610673612b9d565b61068767427624e03298fa4360c01b612b9a565b61069b67a7238d089596593260c01b612b9a565b6106af67874a0f93a472076e60c01b612b9a565b6106c3676a0fdf16242adf5e60c01b612b9a565b5f73ffffffffffffffffffffffffffffffffffffffff168173ffffffffffffffffffffffffffffffffffffffff160361073c5761070a678d3918013fffdcf360c01b612b9a565b6040517fd92e233d00000000000000000000000000000000000000000000000000000000815260040160405180910390fd5b610750675f9dce64cf1fcdfb60c01b612b9a565b610764677196db8dd657147760c01b612b9a565b805f5f6101000a81548173ffffffffffffffffffffffffffffffffffffffff021916908373ffffffffffffffffffffffffffffffffffffffff1602179055506107b767eb655b10894786c860c01b612b9a565b6107cb673705062b8806c06b60c01b612b9a565b8073ffffffffffffffffffffffffffffffffffffffff167f6cc7ebdb6c8c53291c5ae16148cab9b049d23bf5bde5632900b40edff56fcb4360405160405180910390a250565b60045f9054906101000a900460ff1681565b60035481565b60115481565b61084367dc2b79893977e5cf60c01b612b9a565b6108576736e640a8e734259960c01b612b9a565b61086b67c8801314211d612760c01b612b9a565b61087f67d77a41d4ac195fff60c01b612b9a565b5f5f9054906101000a900473ffffffffffffffffffffffffffffffffffffffff1673ffffffffffffffffffffffffffffffffffffffff163373ffffffffffffffffffffffffffffffffffffffff1614610918576108e667e743dbf393111d9660c01b612b9a565b6040517fea8e4eb500000000000000000000000000000000000000000000000000000000815260040160405180910390fd5b61092c67b998fc4b3aff9b7c60c01b612b9a565b61094067753e5cad92f9135160c01b612b9a565b6109546711e38b1ba992d6ff60c01b612b9a565b61096867ae4a7de8cf98265360c01b612b9a565b610970612c24565b610984674398ca2c5cc948ef60c01b612b9a565b61099867e19af0f4142ba6b860c01b612b9a565b6109ac674977153e07a2c37560c01b612b9a565b6109c0676ea8081273c59a8760c01b612b9a565b6004828290501015610a12576109e0673f30deb3a78ac35460c01b612b9a565b6040517f5f6f132c00000000000000000000000000000000000000000000000000000000815260040160405180910390fd5b610a2667794d6bf71b9065b860c01b612b9a565b610a3a67673f946a65b910d660c01b612b9a565b610a4e67b157f40b0e42abc260c01b612b9a565b5f82825f90600492610a62939291906163d6565b90610a6d9190616451565b9050610a8367d7b770f8b9836a7e60c01b612b9a565b610a976765f154d4ca8ac02260c01b612b9a565b7fbe9a655586dceb82dfa0af992b5d8ae7fa45053cb7fd6f141f541da7572978c77bffffffffffffffffffffffffffffffffffffffffffffffffffffffff1916817bffffffffffffffffffffffffffffffffffffffffffffffffffffffff191603610c9457610b1067707c96afae8c85f060c01b612b9a565b610b24672c887588394a38a860c01b612b9a565b610b38679924b6d34569226860c01b612b9a565b610b40612c78565b610b5467e3903c2cffac79cf60c01b612b9a565b610b68677cc0ec50a30c761c60c01b612b9a565b610b70612d3f565b610b8467eab40f512411289c60c01b612b9a565b60015f9054906101000a900473ffffffffffffffffffffffffffffffffffffffff1673ffffffffffffffffffffffffffffffffffffffff1663ed04f2185f6040518263ffffffff1660e01b8152600401610bde91906164f5565b5f60405180830381865afa158015610bf8573d5f5f3e3d5ffd5b505050506040513d5f823e3d601f19601f82011682018060405250810190610c2091906165e2565b60149080519060200190610c35929190615ae1565b50610c4a67b01abb50af9fc3ad60c01b612b9a565b5f601381905550610c6567972828381d67ca3a60c01b612b9a565b600160125f6101000a81548160ff02191690836003811115610c8a57610c89615ba1565b5b02179055506110a9565b610ca8674aeb2d817580720f60c01b612b9a565b610cbc67aa1e524f8de3f1d460c01b612b9a565b7ee1be3b21c4c4ad5100687d9214c44228e7479690ddbad3ffffa9b9d88e76cd7bffffffffffffffffffffffffffffffffffffffffffffffffffffffff1916817bffffffffffffffffffffffffffffffffffffffffffffffffffffffff191603610db657610d3467bdba1cab8ae3fdb660c01b612b9a565b610d48676d0614dde27a992360c01b612b9a565b610d5c6744477228669fbd3460c01b612b9a565b5f83836004908092610d70939291906163d6565b810190610d7d9190615fc1565b9050610d93675f2d5a7cd62fb73560c01b612b9a565b610da767fad2a5bda072b3a260c01b612b9a565b610db081613159565b506110a8565b610dca67f5619bc50c1496b060c01b612b9a565b610dde67e45e444aad11700c60c01b612b9a565b7f86a55290d184f1c76e84c8d491bc295769eb5180b1d30b548aa669b93f3becff7bffffffffffffffffffffffffffffffffffffffffffffffffffffffff1916817bffffffffffffffffffffffffffffffffffffffffffffffffffffffff191603610e8c57610e5767942e7b4afbed127c60c01b612b9a565b610e6b67d9d51f29892eff1160c01b612b9a565b610e7f674b08979b38a2c32760c01b612b9a565b610e87613d1a565b6110a7565b610ea067ce47092de5ba4a9460c01b612b9a565b610eb46726b902e59982805760c01b612b9a565b7faf36778b2d01c6b9ccbf0ff82e33823de0a4811632929c60c03041666deffc9b7bffffffffffffffffffffffffffffffffffffffffffffffffffffffff1916817bffffffffffffffffffffffffffffffffffffffffffffffffffffffff19160361104c57610f2d67652ecc62000764e160c01b612b9a565b610f416767923d8f3dfdcaf960c01b612b9a565b610f5567e5f7db40a7bd8b1660c01b612b9a565b610f5d614500565b610f7167b429cc6c74e0aaf360c01b612b9a565b5f60125f6101000a81548160ff02191690836003811115610f9557610f94615ba1565b5b0217905550610fae673652316d71bef41c60c01b612b9a565b60145f610fbb9190615b68565b610fcf673f6a992d838e4f5e60c01b612b9a565b60105f815480929190610fe190616656565b9190505550610ffa67cee9abc7005bc76f60c01b612b9a565b61100e671ba84f5de2f09ca660c01b612b9a565b7f9375d658f91055a030c54d5cf460d6f12968b10b80b0797c1aa5c02e4dca940360105460405161103f9190615c45565b60405180910390a16110a6565b61106067aa4194807eaf50bc60c01b612b9a565b6110746799de0aaed6a33a2e60c01b612b9a565b6040517f5f6f132c00000000000000000000000000000000000000000000000000000000815260040160405180910390fd5b5b5b5b506110b2614aa1565b5050565b600f5481565b6110c4614ab8565b6110cd82614b9e565b6110d78282614be5565b5050565b5f6110e4614d03565b7f360894a13ba1a3210667c828492db98dca3e2076cc3735a920a3ca505d382bbc5f1b905090565b6014818154811061111b575f80fd5b905f5260205f20015f915054906101000a900473ffffffffffffffffffffffffffffffffffffffff1681565b5f5f9054906101000a900473ffffffffffffffffffffffffffffffffffffffff1681565b61117f675c0335184b34f4c660c01b612b9a565b611187612b9d565b61119b67d2fd7af92407135b60c01b612b9a565b6111af67eef647dcd970d69260c01b612b9a565b6111c367989957be2eb3eae160c01b612b9a565b6111d7672ed5c06afcf38c8b60c01b612b9a565b5f73ffffffffffffffffffffffffffffffffffffffff168173ffffffffffffffffffffffffffffffffffffffff16036112505761121e67c54aedde24adb7d360c01b612b9a565b6040517fd92e233d00000000000000000000000000000000000000000000000000000000815260040160405180910390fd5b611264674a3d2dbb44afa20f60c01b612b9a565b6112786766c5eaa9b69f0ec860c01b612b9a565b8060015f6101000a81548173ffffffffffffffffffffffffffffffffffffffff021916908373ffffffffffffffffffffffffffffffffffffffff16021790555050565b5f60606112d267b3d29c98dc462e2960c01b612b9a565b6112e66758b4cf7defacef7f60c01b612b9a565b6112fa672ae51699b9be986260c01b612b9a565b5f600381111561130d5761130c615ba1565b5b60125f9054906101000a900460ff16600381111561132e5761132d615ba1565b5b14801561133f575061133e614d8a565b5b156113cb5761135867a6d3002c280ce2a060c01b612b9a565b61136c6706b262240236ce2660c01b612b9a565b6001915061138467abd64667f08b085c60c01b612b9a565b7fbe9a655586dceb82dfa0af992b5d8ae7fa45053cb7fd6f141f541da7572978c76040516020016113b591906166bd565b60405160208183030381529060405290506116ef565b6113df67718dd741e1e87a4260c01b612b9a565b6113f36732159c0a265ab40f60c01b612b9a565b6001600381111561140757611406615ba1565b5b60125f9054906101000a900460ff16600381111561142857611427615ba1565b5b14801561143b5750601480549050601354105b156114ca57611454679c0fdae959ebd9df60c01b612b9a565b611468676300eef759a7ba9360c01b612b9a565b600191506114806786958677007512ed60c01b612b9a565b7ee1be3b21c4c4ad5100687d9214c44228e7479690ddbad3ffffa9b9d88e76cd6013546040516020016114b49291906166f7565b60405160208183030381529060405290506116ee565b6114de678b5726b21a99431f60c01b612b9a565b6114f267bee40e41dd87958560c01b612b9a565b6002600381111561150657611505615ba1565b5b60125f9054906101000a900460ff16600381111561152757611526615ba1565b5b036115b35761154067d2c367ec1bbc643060c01b612b9a565b61155467ace7c68bda8200b660c01b612b9a565b6001915061156c6736f4b2235ac1216960c01b612b9a565b7f86a55290d184f1c76e84c8d491bc295769eb5180b1d30b548aa669b93f3becff60405160200161159d91906166bd565b60405160208183030381529060405290506116ed565b6115c76746e5964a037e595960c01b612b9a565b6115db677233b5917af8e02660c01b612b9a565b6003808111156115ee576115ed615ba1565b5b60125f9054906101000a900460ff16600381111561160f5761160e615ba1565b5b0361169b5761162867fec4dc00efae64dc60c01b612b9a565b61163c678e52787a770787aa60c01b612b9a565b60019150611654671c73448cd20197a360c01b612b9a565b7faf36778b2d01c6b9ccbf0ff82e33823de0a4811632929c60c03041666deffc9b60405160200161168591906166bd565b60405160208183030381529060405290506116ec565b6116af6764e078edbd8893fb60c01b612b9a565b6116c36788a717fa0b6a6e9960c01b612b9a565b5f91506116da6762876170b0f1113b60c01b612b9a565b60405180602001604052805f81525090505b5b5b5b9250929050565b6116fe612b9d565b6117075f614dd2565b565b60015f9054906101000a900473ffffffffffffffffffffffffffffffffffffffff1681565b5f611737614e0f565b90508073ffffffffffffffffffffffffffffffffffffffff16611758612aa7565b73ffffffffffffffffffffffffffffffffffffffff16146117b057806040517f118cdaa70000000000000000000000000000000000000000000000000000000081526004016117a79190615ffb565b60405180910390fd5b6117b981614dd2565b50565b60025f9054906101000a900473ffffffffffffffffffffffffffffffffffffffff1681565b5f5f6117eb614e16565b9050805f015f9054906101000a900473ffffffffffffffffffffffffffffffffffffffff1691505090565b60135481565b60608061183367c2f5515845da9e5260c01b612b9a565b611847677b5e0954bbff7afe60c01b612b9a565b61185b67cda46e1192d3ad6f60c01b612b9a565b5f600580018054806020026020016040519081016040528092919081815260200182805480156118dd57602002820191905f5260205f20905b815f9054906101000a900473ffffffffffffffffffffffffffffffffffffffff1673ffffffffffffffffffffffffffffffffffffffff1681526020019060010190808311611894575b505050505090506118f867954486551ec2551560c01b612b9a565b61190c67bf041b0f288ffbef60c01b612b9a565b5f81519050611925678bacd784c5a645be60c01b612b9a565b61193967665a01bc970b4cee60c01b612b9a565b5f5f9050611951675b71dcdd16d5e23f60c01b612b9a565b61196567ed865c0a2737692260c01b612b9a565b5f5f90505b82811015611a59576119866706af1d48d07084fc60c01b612b9a565b61199a6780cc80698561800b60c01b612b9a565b5f60056004015f8684815181106119b4576119b3616722565b5b602002602001015173ffffffffffffffffffffffffffffffffffffffff1673ffffffffffffffffffffffffffffffffffffffff1681526020019081526020015f20541115611a3757611a106733acabe0e38e312460c01b612b9a565b611a24677b56661e016a028460c01b612b9a565b8180611a2f90616656565b925050611a4c565b611a4b67ead8e1560f400ff260c01b612b9a565b5b808060010191505061196a565b50611a6e67268a110a566e76fe60c01b612b9a565b8067ffffffffffffffff811115611a8857611a87615de8565b5b604051908082528060200260200182016040528015611ab65781602001602082028036833780820191505090505b509450611acd6783001076780ac63060c01b612b9a565b8067ffffffffffffffff811115611ae757611ae6615de8565b5b604051908082528060200260200182016040528015611b155781602001602082028036833780820191505090505b509350611b2c6769aaa0f85ba44c7860c01b612b9a565b611b406707eaa0d2fe32c9e460c01b612b9a565b5f5f9050611b58674756555b2807287c60c01b612b9a565b611b6c67317b9ad2f5a0914e60c01b612b9a565b5f5f90505b83811015611d5057611b8d67c0f8fa129d463e9060c01b612b9a565b611ba167db7537ff90e0f8e260c01b612b9a565b5f858281518110611bb557611bb4616722565b5b60200260200101519050611bd367f230dc00baf0f68360c01b612b9a565b611be76786905fd6a904bf7160c01b612b9a565b5f60056004015f8373ffffffffffffffffffffffffffffffffffffffff1673ffffffffffffffffffffffffffffffffffffffff1681526020019081526020015f20549050611c3f678e9089e568ba6ca260c01b612b9a565b611c536795cb9f4b08ef233260c01b612b9a565b5f811115611d2c57611c6f674e0342a043a3e6a360c01b612b9a565b611c8367c5943b3baf5c2c4d60c01b612b9a565b81898581518110611c9757611c96616722565b5b602002602001019073ffffffffffffffffffffffffffffffffffffffff16908173ffffffffffffffffffffffffffffffffffffffff1681525050611ce5678a26c5b02436251760c01b612b9a565b80888581518110611cf957611cf8616722565b5b602002602001018181525050611d1967aa432485ebca0bcf60c01b612b9a565b8380611d2490616656565b945050611d41565b611d4067226673039500d29560c01b612b9a565b5b50508080600101915050611b71565b50505050509091565b6040518060400160405280600581526020017f352e302e3000000000000000000000000000000000000000000000000000000081525081565b611da66765367fc73a672c8960c01b612b9a565b5f611daf614e3d565b90505f815f0160089054906101000a900460ff161590505f825f015f9054906101000a900467ffffffffffffffff1690505f5f8267ffffffffffffffff16148015611df75750825b90505f60018367ffffffffffffffff16148015611e2a57505f3073ffffffffffffffffffffffffffffffffffffffff163b145b905081158015611e38575080155b15611e6f576040517ff92ee8a900000000000000000000000000000000000000000000000000000000815260040160405180910390fd5b6001855f015f6101000a81548167ffffffffffffffff021916908367ffffffffffffffff1602179055508315611ebc576001855f0160086101000a81548160ff0219169083151502179055505b611ed067a3616583d79c4bfc60c01b612b9a565b611ee46770d25f5864e5466060c01b612b9a565b611ef8671f0f705d885aa0b260c01b612b9a565b611f0c67a2cc6000a0229f4060c01b612b9a565b611f1588614e50565b611f296760989277253adaba60c01b612b9a565b611f3d674dd2a3f2a200758760c01b612b9a565b611f45614e64565b611f5967ab693da50baea23d60c01b612b9a565b611f6d67bf696ce29943cdfe60c01b612b9a565b611f75614e6e565b611f896720d8fa144684038760c01b612b9a565b611f9d6715c1e22b2157b0d360c01b612b9a565b611fa5614e80565b611fb967f7b058f587eecc2960c01b612b9a565b611fcd67b75d905c26670bac60c01b612b9a565b5f73ffffffffffffffffffffffffffffffffffffffff168773ffffffffffffffffffffffffffffffffffffffff16036120465761201467a9d8851e2ff6c05760c01b612b9a565b6040517fd92e233d00000000000000000000000000000000000000000000000000000000815260040160405180910390fd5b61205a67e7d1b9c3312c723360c01b612b9a565b61206e67e293fc41aa74e32660c01b612b9a565b612082673b0e967f4791bfe460c01b612b9a565b5f73ffffffffffffffffffffffffffffffffffffffff168673ffffffffffffffffffffffffffffffffffffffff16036120fb576120c967ca91828df39d715a60c01b612b9a565b6040517fd92e233d00000000000000000000000000000000000000000000000000000000815260040160405180910390fd5b61210f67405528c594369e9d60c01b612b9a565b61212367b326353c2f295cfa60c01b612b9a565b865f5f6101000a81548173ffffffffffffffffffffffffffffffffffffffff021916908373ffffffffffffffffffffffffffffffffffffffff16021790555061217667b618f42f7210df2960c01b612b9a565b8560015f6101000a81548173ffffffffffffffffffffffffffffffffffffffff021916908373ffffffffffffffffffffffffffffffffffffffff1602179055506121ca67cb39f07ea2a2215960c01b612b9a565b60015f9054906101000a900473ffffffffffffffffffffffffffffffffffffffff1673ffffffffffffffffffffffffffffffffffffffff16634bb93ab16040518163ffffffff1660e01b8152600401602060405180830381865afa158015612234573d5f5f3e3d5ffd5b505050506040513d601f19601f82011682018060405250810190612258919061674f565b60025f6101000a81548173ffffffffffffffffffffffffffffffffffffffff021916908373ffffffffffffffffffffffffffffffffffffffff1602179055506122ab67efc9d6f5bba2be3560c01b612b9a565b60015f9054906101000a900473ffffffffffffffffffffffffffffffffffffffff1673ffffffffffffffffffffffffffffffffffffffff1663d1717c7d6040518163ffffffff1660e01b8152600401602060405180830381865afa158015612315573d5f5f3e3d5ffd5b505050506040513d601f19601f8201168201806040525081019061233991906167a4565b600a61234591906168fe565b60038190555061235f67e935eab92e007cf160c01b612b9a565b60015f9054906101000a900473ffffffffffffffffffffffffffffffffffffffff1673ffffffffffffffffffffffffffffffffffffffff16637158da7c6040518163ffffffff1660e01b8152600401602060405180830381865afa1580156123c9573d5f5f3e3d5ffd5b505050506040513d601f19601f820116820180604052508101906123ed9190616983565b73ffffffffffffffffffffffffffffffffffffffff1663313ce5676040518163ffffffff1660e01b8152600401602060405180830381865afa158015612435573d5f5f3e3d5ffd5b505050506040513d601f19601f8201168201806040525081019061245991906167a4565b60045f6101000a81548160ff021916908360ff16021790555061248667a24ff307be59256860c01b612b9a565b61248f42614e8a565b6011819055506124a96709c33b477423606260c01b612b9a565b5f6010819055506124c4670989ed194eb6cdc260c01b612b9a565b5f60125f6101000a81548160ff021916908360038111156124e8576124e7615ba1565b5b0217905550612501671cf9c94130290b7f60c01b612b9a565b5f6013819055508315612562575f855f0160086101000a81548160ff0219169083151502179055507fc7f505b2f371ae2175ee4913f4499e1f2633a7b5936321eed1cdaeb6115181d2600160405161255991906169fa565b60405180910390a15b5050505050505050565b60608061258367875259653f2fc88c60c01b612b9a565b612597672dbe5a68bb0cbdad60c01b612b9a565b6125ab671341249d0e4bc39e60c01b612b9a565b5f6005800180548060200260200160405190810160405280929190818152602001828054801561262d57602002820191905f5260205f20905b815f9054906101000a900473ffffffffffffffffffffffffffffffffffffffff1673ffffffffffffffffffffffffffffffffffffffff16815260200190600101908083116125e4575b5050505050905061264867488a25a0d4e9bd0a60c01b612b9a565b61265c677381e9ee8bc5dd5260c01b612b9a565b5f81519050612675676daadd4ffe4270ac60c01b612b9a565b61268967632d9a9c82e0754760c01b612b9a565b5f5f90506126a16741cb3c7190219c6060c01b612b9a565b6126b567b7b880a3488d2ab760c01b612b9a565b5f5f90505b828110156127a9576126d667673fb342271b37df60c01b612b9a565b6126ea673ba78fd56815ea9360c01b612b9a565b5f60056003015f86848151811061270457612703616722565b5b602002602001015173ffffffffffffffffffffffffffffffffffffffff1673ffffffffffffffffffffffffffffffffffffffff1681526020019081526020015f205411156127875761276067cb4b865793bb307a60c01b612b9a565b61277467b58db0de46d26e3660c01b612b9a565b818061277f90616656565b92505061279c565b61279b67392eb90699e8cc1f60c01b612b9a565b5b80806001019150506126ba565b506127bc65e6db88a2f62560c01b612b9a565b8067ffffffffffffffff8111156127d6576127d5615de8565b5b6040519080825280602002602001820160405280156128045781602001602082028036833780820191505090505b50945061281b674a4e2a32b83d45bb60c01b612b9a565b8067ffffffffffffffff81111561283557612834615de8565b5b6040519080825280602002602001820160405280156128635781602001602082028036833780820191505090505b50935061287a676a0570ef95a0d03460c01b612b9a565b61288e67afaf7d49c5f6b3cd60c01b612b9a565b5f5f90506128a66786f5e93c3bee1fbd60c01b612b9a565b6128ba67a91071c05eb8180e60c01b612b9a565b5f5f90505b83811015612a9e576128db672682d9b5aac2f69960c01b612b9a565b6128ef6732e22ba0ee13a72b60c01b612b9a565b5f85828151811061290357612902616722565b5b60200260200101519050612921673a0d2320ab5f5c3860c01b612b9a565b61293567489d7e81c430f86a60c01b612b9a565b5f60056003015f8373ffffffffffffffffffffffffffffffffffffffff1673ffffffffffffffffffffffffffffffffffffffff1681526020019081526020015f2054905061298d67f4689f4fa1fd0d3560c01b612b9a565b6129a1679f2d7d15dc81522860c01b612b9a565b5f811115612a7a576129bd67c33524fdf0a8e8eb60c01b612b9a565b6129d1671008afe51e0f625660c01b612b9a565b818985815181106129e5576129e4616722565b5b602002602001019073ffffffffffffffffffffffffffffffffffffffff16908173ffffffffffffffffffffffffffffffffffffffff1681525050612a3367f913f61631ecdfd860c01b612b9a565b80888581518110612a4757612a46616722565b5b602002602001018181525050612a67673ae0bf5caf774cbc60c01b612b9a565b8380612a7290616656565b945050612a8f565b612a8e67122b1ff9b93e285560c01b612b9a565b5b505080806001019150506128bf565b50505050509091565b5f5f612ab1614edb565b9050805f015f9054906101000a900473ffffffffffffffffffffffffffffffffffffffff1691505090565b612ae4612b9d565b5f612aed614edb565b905081815f015f6101000a81548173ffffffffffffffffffffffffffffffffffffffff021916908373ffffffffffffffffffffffffffffffffffffffff1602179055508173ffffffffffffffffffffffffffffffffffffffff16612b4f6117e1565b73ffffffffffffffffffffffffffffffffffffffff167f38d16b8cac22d99fc7c124b9cd0de2d3fa1faef420bfe791d8c362d765e2270060405160405180910390a35050565b603c81565b50565b612ba5614e0f565b73ffffffffffffffffffffffffffffffffffffffff16612bc36117e1565b73ffffffffffffffffffffffffffffffffffffffff1614612c2257612be6614e0f565b6040517f118cdaa7000000000000000000000000000000000000000000000000000000008152600401612c199190615ffb565b60405180910390fd5b565b5f612c2d614f02565b90506002815f015403612c6c576040517f3ee5aeb500000000000000000000000000000000000000000000000000000000815260040160405180910390fd5b6002815f018190555050565b612c8c67651624cfbdcb9c2460c01b612b9a565b612ca06712c9db1450e8394760c01b612b9a565b612cb4672a3a62f077d1c45e60c01b612b9a565b612cbc614d8a565b612d0657612cd467f7b218794eb9dd6260c01b612b9a565b6040517f085de62500000000000000000000000000000000000000000000000000000000815260040160405180910390fd5b612d1a67eead30e81e68987c60c01b612b9a565b612d2e670199c256dcbcdd4760c01b612b9a565b612d3742614e8a565b601181905550565b612d53679d79ce38ddc82c4560c01b612b9a565b612d6767095e91418c7cf2a460c01b612b9a565b612d7b67ffbfbf9af9fd6a2c60c01b612b9a565b5f60058001805480602002602001604051908101604052809291908181526020018280548015612dfd57602002820191905f5260205f20905b815f9054906101000a900473ffffffffffffffffffffffffffffffffffffffff1673ffffffffffffffffffffffffffffffffffffffff1681526020019060010190808311612db4575b50505050509050612e18674ad6d523c0144e7560c01b612b9a565b612e2c67e7fb6e306afcaadc60c01b612b9a565b5f81519050612e45673442f10d33f8b50d60c01b612b9a565b612e5967dfad4453917dcc5660c01b612b9a565b5f5f90505b8181101561313157612e7a67df7f53bc9a727f0160c01b612b9a565b612e8e6706f10d8f3602fb4f60c01b612b9a565b5f838281518110612ea257612ea1616722565b5b60200260200101519050612ec067181c2be34a24acf160c01b612b9a565b60055f015f8273ffffffffffffffffffffffffffffffffffffffff1673ffffffffffffffffffffffffffffffffffffffff1681526020019081526020015f205f9055612f1667f9f6788948a90a5260c01b612b9a565b60056001015f8273ffffffffffffffffffffffffffffffffffffffff1673ffffffffffffffffffffffffffffffffffffffff1681526020019081526020015f205f9055612f6d67678d6f3b5f274b5360c01b612b9a565b60056002015f8273ffffffffffffffffffffffffffffffffffffffff1673ffffffffffffffffffffffffffffffffffffffff1681526020019081526020015f205f9055612fc467a48832691397b4aa60c01b612b9a565b60056003015f8273ffffffffffffffffffffffffffffffffffffffff1673ffffffffffffffffffffffffffffffffffffffff1681526020019081526020015f205f905561301b67a44f87d7731b111360c01b612b9a565b60056004015f8273ffffffffffffffffffffffffffffffffffffffff1673ffffffffffffffffffffffffffffffffffffffff1681526020019081526020015f205f905561307166ea0226c7a332cc60c01b612b9a565b60056006015f8273ffffffffffffffffffffffffffffffffffffffff1673ffffffffffffffffffffffffffffffffffffffff1681526020019081526020015f205f6101000a81549060ff02191690556130d467bf2267c0823a0caa60c01b612b9a565b60056007015f8273ffffffffffffffffffffffffffffffffffffffff1673ffffffffffffffffffffffffffffffffffffffff1681526020019081526020015f205f6101000a81549060ff0219169055508080600101915050612e5e565b50613146671736a0f2e46e565160c01b612b9a565b600580015f6131559190615b68565b5050565b61316d67924e982cf07072f460c01b612b9a565b61318167a38ac4929fde1f0960c01b612b9a565b613195671d5e28a4c367c92660c01b612b9a565b5f601482815481106131aa576131a9616722565b5b905f5260205f20015f9054906101000a900473ffffffffffffffffffffffffffffffffffffffff1690506131e867a786a315b6b2f72560c01b612b9a565b6131fc67ad964d2464ff830760c01b612b9a565b5f5f8273ffffffffffffffffffffffffffffffffffffffff1663d3d034586040518163ffffffff1660e01b81526004015f60405180830381865afa158015613246573d5f5f3e3d5ffd5b505050506040513d5f823e3d601f19601f8201168201806040525081019061326e9190616ae7565b9150915061328667a4da2375b8fd8cb560c01b612b9a565b61329a67d644844bd12588a860c01b612b9a565b5f5f90506132b2671d483a7517d513b860c01b612b9a565b6132c6679dbaff3971048d5160c01b612b9a565b5f5f90505b8351811015613803576132e867e7e8d37e5c03fb4860c01b612b9a565b6132fc675c3f31e9feb4ee1b60c01b612b9a565b5f8482815181106133105761330f616722565b5b6020026020010151905061332e67c79f3254f76a848360c01b612b9a565b613342670d1f19e84d6ac5d660c01b612b9a565b5f60056007015f8373ffffffffffffffffffffffffffffffffffffffff1673ffffffffffffffffffffffffffffffffffffffff1681526020019081526020015f205f9054906101000a900460ff1660ff1603613489576133ac67679e94a46b356cc560c01b612b9a565b6133c0671aa9424eb907eabf60c01b612b9a565b8073ffffffffffffffffffffffffffffffffffffffff1663313ce5676040518163ffffffff1660e01b8152600401602060405180830381865afa158015613409573d5f5f3e3d5ffd5b505050506040513d601f19601f8201168201806040525081019061342d91906167a4565b60056007015f8373ffffffffffffffffffffffffffffffffffffffff1673ffffffffffffffffffffffffffffffffffffffff1681526020019081526020015f205f6101000a81548160ff021916908360ff16021790555061349e565b61349d674ee96b650c5c588560c01b612b9a565b5b6134b267d8a02f85472f019760c01b612b9a565b6134c6670655fd8aeb22352d60c01b612b9a565b5f60056007015f8373ffffffffffffffffffffffffffffffffffffffff1673ffffffffffffffffffffffffffffffffffffffff1681526020019081526020015f205f9054906101000a900460ff16905061352a679e4ef5a5a225dfa860c01b612b9a565b61353e67c730422463e17c6360c01b612b9a565b5f60055f015f8473ffffffffffffffffffffffffffffffffffffffff1673ffffffffffffffffffffffffffffffffffffffff1681526020019081526020015f2054905061359567d87d14586e877f2560c01b612b9a565b6135a967939e44176eb85aff60c01b612b9a565b5f81036136d0576135c467c1d6dfaa0529c19060c01b612b9a565b6135d867f96ce413a78e5eb860c01b612b9a565b60025f9054906101000a900473ffffffffffffffffffffffffffffffffffffffff1673ffffffffffffffffffffffffffffffffffffffff166341976e09846040518263ffffffff1660e01b81526004016136329190615ffb565b602060405180830381865afa15801561364d573d5f5f3e3d5ffd5b505050506040513d601f19601f820116820180604052508101906136719190616b5d565b90506136876794f64e12a155fa4960c01b612b9a565b8060055f015f8573ffffffffffffffffffffffffffffffffffffffff1673ffffffffffffffffffffffffffffffffffffffff1681526020019081526020015f20819055506136e5565b6136e46770971db0c730ed8b60c01b612b9a565b5b6136f967bf9e9b26d5898af260c01b612b9a565b61370d675272a8fef25f72c660c01b612b9a565b5f6137338288878151811061372557613724616722565b5b602002602001015185614f29565b905061374967681a67f567a4d92060c01b612b9a565b80866137559190616b88565b955061376b67298a9f5665d219ad60c01b612b9a565b8060056001015f8673ffffffffffffffffffffffffffffffffffffffff1673ffffffffffffffffffffffffffffffffffffffff1681526020019081526020015f205f8282546137ba9190616b88565b925050819055506137d5671f25457c19dce88360c01b612b9a565b6137e967a8b821e245f1ac0b60c01b612b9a565b6137f284614fec565b5050505080806001019150506132cb565b50613818677e505358995751f560c01b612b9a565b61382c676ecbf88968a9bf9b60c01b612b9a565b5f8473ffffffffffffffffffffffffffffffffffffffff1663a68a52678673ffffffffffffffffffffffffffffffffffffffff1663c37fc8a86040518163ffffffff1660e01b8152600401602060405180830381865afa158015613892573d5f5f3e3d5ffd5b505050506040513d601f19601f820116820180604052508101906138b69190616b5d565b845f6040518463ffffffff1660e01b81526004016138d693929190616c01565b602060405180830381865afa1580156138f1573d5f5f3e3d5ffd5b505050506040513d601f19601f820116820180604052508101906139159190616b5d565b905061392b673dc40371f63ab36460c01b612b9a565b61393f671c9ec78094b9441e60c01b612b9a565b5f818673ffffffffffffffffffffffffffffffffffffffff1663d1699c266040518163ffffffff1660e01b8152600401602060405180830381865afa15801561398a573d5f5f3e3d5ffd5b505050506040513d601f19601f820116820180604052508101906139ae9190616b5d565b846139b99190616b88565b6139c39190616c36565b90506139d96782270022cf4a1e3960c01b612b9a565b6139ed67685fd44a463c69ab60c01b612b9a565b5f5f8773ffffffffffffffffffffffffffffffffffffffff1663b6eba6536040518163ffffffff1660e01b81526004015f60405180830381865afa158015613a37573d5f5f3e3d5ffd5b505050506040513d5f823e3d601f19601f82011682018060405250810190613a5f9190616ae7565b91509150613a77673c15b1affc6d4bcd60c01b612b9a565b613a8b67539fb15290728cc060c01b612b9a565b5f82519050613aa467501f80226b512bc860c01b612b9a565b613ab86766c1b56968278f1e60c01b612b9a565b5f5f90505b81811015613c4057613ad967571ade73f772e34360c01b612b9a565b613aed67ed61ae6071bc4f1d60c01b612b9a565b5f848281518110613b0157613b00616722565b5b60200260200101519050613b1f6797f8b8ed51b97e9e60c01b612b9a565b613b33677c68428aa32b9fa460c01b612b9a565b5f848381518110613b4757613b46616722565b5b60200260200101519050613b656729af14c80c580d9760c01b612b9a565b613b79676efcaaa44f8311c960c01b612b9a565b5f6003548289613b899190616c69565b613b939190616cd7565b9050613ba967bde72c90d2124fe060c01b612b9a565b8060056002015f8573ffffffffffffffffffffffffffffffffffffffff1673ffffffffffffffffffffffffffffffffffffffff1681526020019081526020015f205f828254613bf89190616b88565b92505081905550613c13675f8e72b0c42daded60c01b612b9a565b613c27676f6a7fa04887263760c01b612b9a565b613c3083614fec565b5050508080600101915050613abd565b50613c5567cda0d48528e29eaa60c01b612b9a565b60135f815480929190613c6790616656565b9190505550613c80671cd1e3d10740895e60c01b612b9a565b613c9467043b2b758282dddb60c01b612b9a565b60148054905060135410613cf957613cb667b7d072efe6dc73f160c01b612b9a565b613cca67213ecc038a425a9960c01b612b9a565b600260125f6101000a81548160ff02191690836003811115613cef57613cee615ba1565b5b0217905550613d0e565b613d0d671fcc6d84bc5a078e60c01b612b9a565b5b50505050505050505050565b613d2e67dc457f87f7e9d5f960c01b612b9a565b613d4267368487308c5d057360c01b612b9a565b613d5667484735d23be18e4b60c01b612b9a565b5f60015f9054906101000a900473ffffffffffffffffffffffffffffffffffffffff1673ffffffffffffffffffffffffffffffffffffffff1663ed04f21860016040518263ffffffff1660e01b8152600401613db291906164f5565b5f60405180830381865afa158015613dcc573d5f5f3e3d5ffd5b505050506040513d5f823e3d601f19601f82011682018060405250810190613df491906165e2565b9050613e0a6774d0b88630888d7960c01b612b9a565b613e1e6718b3efe436d7594660c01b612b9a565b5f5f90505b81518110156144be57613e406799179db5c472a35860c01b612b9a565b613e5467823e28f067ed5fa360c01b612b9a565b5f828281518110613e6857613e67616722565b5b60200260200101519050613e8667a4f79bd95412d03860c01b612b9a565b613e9a673bbe9413d23016fd60c01b612b9a565b5f5f8273ffffffffffffffffffffffffffffffffffffffff1663d3d034586040518163ffffffff1660e01b81526004015f60405180830381865afa158015613ee4573d5f5f3e3d5ffd5b505050506040513d5f823e3d601f19601f82011682018060405250810190613f0c9190616df1565b91509150613f2467116c1a6e8d28ceb960c01b612b9a565b613f38671ce81c76552713f760c01b612b9a565b5f613f425f6151a0565b9050613f58672b77808893e9828660c01b612b9a565b613f6c677c4a3d1a25a4644a60c01b612b9a565b5f5f90505b835181101561440c57613f8e67745dc8bc076d228060c01b612b9a565b613fa2675c46f2396534a5d060c01b612b9a565b5f848281518110613fb657613fb5616722565b5b60200260200101519050613fd467af8854a0d85df1b260c01b612b9a565b613fe86735728559446439ff60c01b612b9a565b5f60056007015f8373ffffffffffffffffffffffffffffffffffffffff1673ffffffffffffffffffffffffffffffffffffffff1681526020019081526020015f205f9054906101000a900460ff1660ff160361412f5761405267cabdcbdb6255a81060c01b612b9a565b6140666764c31582a76d12f360c01b612b9a565b8073ffffffffffffffffffffffffffffffffffffffff1663313ce5676040518163ffffffff1660e01b8152600401602060405180830381865afa1580156140af573d5f5f3e3d5ffd5b505050506040513d601f19601f820116820180604052508101906140d391906167a4565b60056007015f8373ffffffffffffffffffffffffffffffffffffffff1673ffffffffffffffffffffffffffffffffffffffff1681526020019081526020015f205f6101000a81548160ff021916908360ff160217905550614144565b61414367f48bf7826fe06f0860c01b612b9a565b5b6141586736dc863fd7d9e39360c01b612b9a565b61416c671e994a954498b52460c01b612b9a565b5f60056007015f8373ffffffffffffffffffffffffffffffffffffffff1673ffffffffffffffffffffffffffffffffffffffff1681526020019081526020015f205f9054906101000a900460ff1690506141d0670466bbfb22ad58e060c01b612b9a565b6141e4678abb5ae6bee4d2a360c01b612b9a565b5f60055f015f8473ffffffffffffffffffffffffffffffffffffffff1673ffffffffffffffffffffffffffffffffffffffff1681526020019081526020015f2054905061423b677bafae444cb0feba60c01b612b9a565b61424f67a3bfba89c1e138e160c01b612b9a565b5f81036143765761426a6788b2518a7eb6fbab60c01b612b9a565b61427e6745d4006a4e77dbe860c01b612b9a565b60025f9054906101000a900473ffffffffffffffffffffffffffffffffffffffff1673ffffffffffffffffffffffffffffffffffffffff166341976e09846040518263ffffffff1660e01b81526004016142d89190615ffb565b602060405180830381865afa1580156142f3573d5f5f3e3d5ffd5b505050506040513d601f19601f820116820180604052508101906143179190616b5d565b905061432d675537ec66e5304bb960c01b612b9a565b8060055f015f8573ffffffffffffffffffffffffffffffffffffffff1673ffffffffffffffffffffffffffffffffffffffff1681526020019081526020015f208190555061438b565b61438a6758bef8d7f1524f4860c01b612b9a565b5b61439f67bc71ee92cc76363d60c01b612b9a565b6143b3673fdbeac23b37afdc60c01b612b9a565b5f6143d9828887815181106143cb576143ca616722565b5b6020026020010151856151b9565b90506143ef675bc1eb9bd2d6f42c60c01b612b9a565b6143f986826151d5565b9550505050508080600101915050613f71565b50614421672df71f1feb29b83960c01b612b9a565b614435675027c900eee8586760c01b612b9a565b5f5f8573ffffffffffffffffffffffffffffffffffffffff1663b6eba6536040518163ffffffff1660e01b81526004015f60405180830381865afa15801561447f573d5f5f3e3d5ffd5b505050506040513d5f823e3d601f19601f820116820180604052508101906144a79190616df1565b915091505050505050508080600101915050613e23565b506144d36798d99cbd51df9bbe60c01b612b9a565b600360125f6101000a81548160ff021916908360038111156144f8576144f7615ba1565b5b021790555050565b614514678b81018cf8b9816360c01b612b9a565b614528676776b2ad061be3ff60c01b612b9a565b61453c6779c97ef2d2499b0560c01b612b9a565b5f600580018054806020026020016040519081016040528092919081815260200182805480156145be57602002820191905f5260205f20905b815f9054906101000a900473ffffffffffffffffffffffffffffffffffffffff1673ffffffffffffffffffffffffffffffffffffffff1681526020019060010190808311614575575b505050505090506145d9674f15c2c2c462bf2260c01b612b9a565b6145ed67187def1955d2bef260c01b612b9a565b5f815190506146066740bff5c497d9b31860c01b612b9a565b5f600e8190555061462167f7b515723b49830360c01b612b9a565b5f600f8190555061463c678171768106b4287360c01b612b9a565b61465067a951ecf661ce8dc760c01b612b9a565b5f5f90505b81811015614a9c5761467167ec2dabf5b16cea2860c01b612b9a565b6146856722dccf0a92811c7e60c01b612b9a565b5f83828151811061469957614698616722565b5b602002602001015190506146b767a802dfd66e01d34a60c01b612b9a565b6146cb6701e94de5de7a62c760c01b612b9a565b5f60056001015f8373ffffffffffffffffffffffffffffffffffffffff1673ffffffffffffffffffffffffffffffffffffffff1681526020019081526020015f20549050614723675a10d27855d7c52560c01b612b9a565b614737673b69e22b8a7ba6ff60c01b612b9a565b5f60056002015f8473ffffffffffffffffffffffffffffffffffffffff1673ffffffffffffffffffffffffffffffffffffffff1681526020019081526020015f2054905061478f6742507446c7880ede60c01b612b9a565b6147a36760d6f5ffcb4fbc0560c01b612b9a565b5f60056007015f8573ffffffffffffffffffffffffffffffffffffffff1673ffffffffffffffffffffffffffffffffffffffff1681526020019081526020015f205f9054906101000a900460ff1690506148076767be17e7ceb4e74b60c01b612b9a565b61481b67e11996f3fa9ea3ff60c01b612b9a565b8183111561496f5761483767f84512d8b177ff8460c01b612b9a565b61484b67cf1de87e83fed60f60c01b612b9a565b61485f67d7f55803527398b760c01b612b9a565b5f828461486c9190616c36565b905061488267987226c66f6b8b3860c01b612b9a565b80600e5f8282546148939190616b88565b925050819055506148ae6794d2f460e2ba852560c01b612b9a565b6148c26796e2778c7be7476a60c01b612b9a565b5f61490d60055f015f8873ffffffffffffffffffffffffffffffffffffffff1673ffffffffffffffffffffffffffffffffffffffff1681526020019081526020015f2054838561521b565b9050614923678c22aad5a900183660c01b612b9a565b8060056003015f8873ffffffffffffffffffffffffffffffffffffffff1673ffffffffffffffffffffffffffffffffffffffff1681526020019081526020015f20819055505050614a8b565b61498367e0ebf981f688476c60c01b612b9a565b614997673c85699c2199835960c01b612b9a565b82821115614a75576149b3673f9a586258588a8560c01b612b9a565b6149c76730a84deaa898c10660c01b612b9a565b6149db670720ab4d33c99f0460c01b612b9a565b5f83836149e89190616c36565b90506149fe67faf4f9dc6a37be9860c01b612b9a565b80600f5f828254614a0f9190616b88565b92505081905550614a2a674d9d8f9c305843c860c01b612b9a565b8060056004015f8773ffffffffffffffffffffffffffffffffffffffff1673ffffffffffffffffffffffffffffffffffffffff1681526020019081526020015f208190555050614a8a565b614a8967987d07aec6636a2660c01b612b9a565b5b5b505050508080600101915050614655565b505050565b5f614aaa614f02565b90506001815f018190555050565b7f000000000000000000000000000000000000000000000000000000000000000073ffffffffffffffffffffffffffffffffffffffff163073ffffffffffffffffffffffffffffffffffffffff161480614b6557507f000000000000000000000000000000000000000000000000000000000000000073ffffffffffffffffffffffffffffffffffffffff16614b4c6152b1565b73ffffffffffffffffffffffffffffffffffffffff1614155b15614b9c576040517fe07c8dba00000000000000000000000000000000000000000000000000000000815260040160405180910390fd5b565b614bb2679733aec62100f02460c01b612b9a565b614bba612b9d565b614bce67cf3b729be435826e60c01b612b9a565b614be26727c086d8d8747c0360c01b612b9a565b50565b8173ffffffffffffffffffffffffffffffffffffffff166352d1902d6040518163ffffffff1660e01b8152600401602060405180830381865afa925050508015614c4d57506040513d601f19601f82011682018060405250810190614c4a9190616e91565b60015b614c8e57816040517f4c9c8ce3000000000000000000000000000000000000000000000000000000008152600401614c859190615ffb565b60405180910390fd5b7f360894a13ba1a3210667c828492db98dca3e2076cc3735a920a3ca505d382bbc5f1b8114614cf457806040517faa1d49a4000000000000000000000000000000000000000000000000000000008152600401614ceb9190615f7e565b60405180910390fd5b614cfe8383615304565b505050565b7f000000000000000000000000000000000000000000000000000000000000000073ffffffffffffffffffffffffffffffffffffffff163073ffffffffffffffffffffffffffffffffffffffff1614614d88576040517fe07c8dba00000000000000000000000000000000000000000000000000000000815260040160405180910390fd5b565b5f614d9f6762790b89efffdb2c60c01b612b9a565b614db3673a3bfe85aacb7dbd60c01b612b9a565b614dc76756e3879f0c1daf2f60c01b612b9a565b601154421015905090565b5f614ddb614edb565b9050805f015f6101000a81549073ffffffffffffffffffffffffffffffffffffffff0219169055614e0b82615376565b5050565b5f33905090565b5f7f9016d09d72d40fdae2fd8ceac6b6234c7706214fd39c1cd1e609a0528c199300905090565b5f5f614e47615447565b90508091505090565b614e58615470565b614e61816154b0565b50565b614e6c615470565b565b614e76615470565b614e7e615534565b565b614e88615470565b565b5f614e9f67cb95a6c79b5b1dac60c01b612b9a565b614eb367343a892f18a8684b60c01b612b9a565b614ec76760f220d7d7592ca260c01b612b9a565b603c82614ed49190616b88565b9050919050565b5f7f237e158222e3e6968b72b9db0d8043aacf074ad9f650f0d1606b4d82ee432c00905090565b5f7f9b779b17422d0df92223018b32b4d1fa46e071723d6817e2486d003becc55f00905090565b5f614f3e6705d2c18a828ee40b60c01b612b9a565b614f5267e009db9e6149382160c01b612b9a565b614f6667c61610598a11fbe960c01b612b9a565b5f8385614f739190616c69565b9050614f8967959153560c50b55660c01b612b9a565b614f9d6762da6a5ced9bc24d60c01b612b9a565b5f614fb7828560045f9054906101000a900460ff16615553565b9050614fcd673fba7b6610a6d66960c01b612b9a565b670de0b6b3a764000081614fe19190616cd7565b925050509392505050565b615000675d80ee95cc15c57b60c01b612b9a565b61501467250ae03b37fefbcb60c01b612b9a565b615028678f59da875d03eadf60c01b612b9a565b60056006015f8273ffffffffffffffffffffffffffffffffffffffff1673ffffffffffffffffffffffffffffffffffffffff1681526020019081526020015f205f9054906101000a900460ff166151885761508d67061a1c8728edcf2060c01b612b9a565b6150a167f3ffda81268f887860c01b612b9a565b6150b567de750cdbe871713460c01b612b9a565b6005800181908060018154018082558091505060019003905f5260205f20015f9091909190916101000a81548173ffffffffffffffffffffffffffffffffffffffff021916908373ffffffffffffffffffffffffffffffffffffffff16021790555061512b674c673e039b51e12a60c01b612b9a565b600160056006015f8373ffffffffffffffffffffffffffffffffffffffff1673ffffffffffffffffffffffffffffffffffffffff1681526020019081526020015f205f6101000a81548160ff02191690831515021790555061519d565b61519c67a0d80beca7f767a760c01b612b9a565b5b50565b5f6151b28263ffffffff1660046156ac565b9050919050565b5f6151ce67db8006dcc83db65460c01b612b9a565b9392505050565b5f6151df8361575f565b6151ef576151ec5f6151a0565b92505b6151f88261575f565b615208576152055f6151a0565b91505b61521383835f61576d565b905092915050565b5f61523067fc06bc60eeda862260c01b612b9a565b615244676a8630be003084c560c01b612b9a565b61525867215824864c0c53aa60c01b612b9a565b5f6152728460045f9054906101000a900460ff1685615553565b90506152886758eed8fec9af42e460c01b612b9a565b84670de0b6b3a76400008261529d9190616c69565b6152a79190616cd7565b9150509392505050565b5f6152dd7f360894a13ba1a3210667c828492db98dca3e2076cc3735a920a3ca505d382bbc5f1b61583e565b5f015f9054906101000a900473ffffffffffffffffffffffffffffffffffffffff16905090565b61530d82615847565b8173ffffffffffffffffffffffffffffffffffffffff167fbc7cd75a20ee27fd9adebab32041f755214dbc6bffa90cc0225b39da2e5c2d3b60405160405180910390a25f81511115615369576153638282615910565b50615372565b615371615990565b5b5050565b5f61537f614e16565b90505f815f015f9054906101000a900473ffffffffffffffffffffffffffffffffffffffff16905082825f015f6101000a81548173ffffffffffffffffffffffffffffffffffffffff021916908373ffffffffffffffffffffffffffffffffffffffff1602179055508273ffffffffffffffffffffffffffffffffffffffff168173ffffffffffffffffffffffffffffffffffffffff167f8be0079c531659141344cd1fd0a4f28419497f9722a3daafe3b4186f6b6457e060405160405180910390a3505050565b5f7ff0c57e16840df040f15088dc2f81fe391c3923bec73e23a9662efc9c229c6a005f1b905090565b6154786159cc565b6154ae576040517fd7e6bcf800000000000000000000000000000000000000000000000000000000815260040160405180910390fd5b565b6154b8615470565b5f73ffffffffffffffffffffffffffffffffffffffff168173ffffffffffffffffffffffffffffffffffffffff1603615528575f6040517f1e4fbdf700000000000000000000000000000000000000000000000000000000815260040161551f9190615ffb565b60405180910390fd5b61553181614dd2565b50565b61553c615470565b5f615545614f02565b90506001815f018190555050565b5f61556867c00fd595c7c9180f60c01b612b9a565b61557c67e2b8924565e5f82060c01b612b9a565b61559067d6e6a55769b06b1b60c01b612b9a565b8260ff168260ff1611156155f0576155b267c1ff32f1a63a8c0760c01b612b9a565b6155c667e63a8e6bbafd396260c01b612b9a565b82826155d29190616ebc565b600a6155de91906168fe565b846155e99190616c69565b90506156a5565b61560467a218a6df4b97aac360c01b612b9a565b615618677259a4b7420b7fcd60c01b612b9a565b8260ff168260ff1610156156785761563a67760d6caca8f1b7b760c01b612b9a565b61564e67aa3da216e776948e60c01b612b9a565b818361565a9190616ebc565b600a61566691906168fe565b846156719190616cd7565b90506156a4565b61568c67a62e5f53c82eb71660c01b612b9a565b6156a06759f1198ada07a45a60c01b612b9a565b8390505b5b9392505050565b5f5f6156b66159ea565b9050806001015f9054906101000a900473ffffffffffffffffffffffffffffffffffffffff1673ffffffffffffffffffffffffffffffffffffffff16639cd07acb85856040518363ffffffff1660e01b8152600401615716929190616f36565b6020604051808303815f875af1158015615732573d5f5f3e3d5ffd5b505050506040513d601f19601f820116820180604052508101906157569190616e91565b91505092915050565b5f5f5f1b8214159050919050565b5f5f821561578157600160f81b9050615788565b5f60f81b90505b5f6157916159ea565b9050806001015f9054906101000a900473ffffffffffffffffffffffffffffffffffffffff1673ffffffffffffffffffffffffffffffffffffffff1663117b2f388787856040518463ffffffff1660e01b81526004016157f393929190616f97565b6020604051808303815f875af115801561580f573d5f5f3e3d5ffd5b505050506040513d601f19601f820116820180604052508101906158339190616e91565b925050509392505050565b5f819050919050565b5f8173ffffffffffffffffffffffffffffffffffffffff163b036158a257806040517f4c9c8ce30000000000000000000000000000000000000000000000000000000081526004016158999190615ffb565b60405180910390fd5b806158ce7f360894a13ba1a3210667c828492db98dca3e2076cc3735a920a3ca505d382bbc5f1b61583e565b5f015f6101000a81548173ffffffffffffffffffffffffffffffffffffffff021916908373ffffffffffffffffffffffffffffffffffffffff16021790555050565b60605f5f8473ffffffffffffffffffffffffffffffffffffffff16846040516159399190617006565b5f60405180830381855af49150503d805f8114615971576040519150601f19603f3d011682016040523d82523d5f602084013e615976565b606091505b5091509150615986858383615a11565b9250505092915050565b5f3411156159ca576040517fb398979f00000000000000000000000000000000000000000000000000000000815260040160405180910390fd5b565b5f6159d5614e3d565b5f0160089054906101000a900460ff16905090565b5f7fed8d60e34876f751cc8b014c560745351147d9de11b9347c854e881b128ea600905090565b606082615a2657615a2182615a9e565b615a96565b5f8251148015615a4c57505f8473ffffffffffffffffffffffffffffffffffffffff163b145b15615a8e57836040517f9996b315000000000000000000000000000000000000000000000000000000008152600401615a859190615ffb565b60405180910390fd5b819050615a97565b5b9392505050565b5f81511115615aaf57805160208201fd5b6040517fd6bda27500000000000000000000000000000000000000000000000000000000815260040160405180910390fd5b828054828255905f5260205f20908101928215615b57579160200282015b82811115615b56578251825f6101000a81548173ffffffffffffffffffffffffffffffffffffffff021916908373ffffffffffffffffffffffffffffffffffffffff16021790555091602001919060010190615aff565b5b509050615b649190615b86565b5090565b5080545f8255905f5260205f2090810190615b839190615b86565b50565b5b80821115615b9d575f815f905550600101615b87565b5090565b7f4e487b71000000000000000000000000000000000000000000000000000000005f52602160045260245ffd5b60048110615bdf57615bde615ba1565b5b50565b5f819050615bef82615bce565b919050565b5f615bfe82615be2565b9050919050565b615c0e81615bf4565b82525050565b5f602082019050615c275f830184615c05565b92915050565b5f819050919050565b615c3f81615c2d565b82525050565b5f602082019050615c585f830184615c36565b92915050565b5f604051905090565b5f5ffd5b5f5ffd5b5f73ffffffffffffffffffffffffffffffffffffffff82169050919050565b5f615c9882615c6f565b9050919050565b615ca881615c8e565b8114615cb2575f5ffd5b50565b5f81359050615cc381615c9f565b92915050565b5f60208284031215615cde57615cdd615c67565b5b5f615ceb84828501615cb5565b91505092915050565b5f60ff82169050919050565b615d0981615cf4565b82525050565b5f602082019050615d225f830184615d00565b92915050565b5f5ffd5b5f5ffd5b5f5ffd5b5f5f83601f840112615d4957615d48615d28565b5b8235905067ffffffffffffffff811115615d6657615d65615d2c565b5b602083019150836001820283011115615d8257615d81615d30565b5b9250929050565b5f5f60208385031215615d9f57615d9e615c67565b5b5f83013567ffffffffffffffff811115615dbc57615dbb615c6b565b5b615dc885828601615d34565b92509250509250929050565b5f5ffd5b5f601f19601f8301169050919050565b7f4e487b71000000000000000000000000000000000000000000000000000000005f52604160045260245ffd5b615e1e82615dd8565b810181811067ffffffffffffffff82111715615e3d57615e3c615de8565b5b80604052505050565b5f615e4f615c5e565b9050615e5b8282615e15565b919050565b5f67ffffffffffffffff821115615e7a57615e79615de8565b5b615e8382615dd8565b9050602081019050919050565b828183375f83830152505050565b5f615eb0615eab84615e60565b615e46565b905082815260208101848484011115615ecc57615ecb615dd4565b5b615ed7848285615e90565b509392505050565b5f82601f830112615ef357615ef2615d28565b5b8135615f03848260208601615e9e565b91505092915050565b5f5f60408385031215615f2257615f21615c67565b5b5f615f2f85828601615cb5565b925050602083013567ffffffffffffffff811115615f5057615f4f615c6b565b5b615f5c85828601615edf565b9150509250929050565b5f819050919050565b615f7881615f66565b82525050565b5f602082019050615f915f830184615f6f565b92915050565b615fa081615c2d565b8114615faa575f5ffd5b50565b5f81359050615fbb81615f97565b92915050565b5f60208284031215615fd657615fd5615c67565b5b5f615fe384828501615fad565b91505092915050565b615ff581615c8e565b82525050565b5f60208201905061600e5f830184615fec565b92915050565b5f8115159050919050565b61602881616014565b82525050565b5f81519050919050565b5f82825260208201905092915050565b8281835e5f83830152505050565b5f6160608261602e565b61606a8185616038565b935061607a818560208601616048565b61608381615dd8565b840191505092915050565b5f6040820190506160a15f83018561601f565b81810360208301526160b38184616056565b90509392505050565b5f819050919050565b5f6160df6160da6160d584615c6f565b6160bc565b615c6f565b9050919050565b5f6160f0826160c5565b9050919050565b5f616101826160e6565b9050919050565b616111816160f7565b82525050565b5f60208201905061612a5f830184616108565b92915050565b5f61613a826160e6565b9050919050565b61614a81616130565b82525050565b5f6020820190506161635f830184616141565b92915050565b5f81519050919050565b5f82825260208201905092915050565b5f819050602082019050919050565b61619b81615c8e565b82525050565b5f6161ac8383616192565b60208301905092915050565b5f602082019050919050565b5f6161ce82616169565b6161d88185616173565b93506161e383616183565b805f5b838110156162135781516161fa88826161a1565b9750616205836161b8565b9250506001810190506161e6565b5085935050505092915050565b5f81519050919050565b5f82825260208201905092915050565b5f819050602082019050919050565b61625281615c2d565b82525050565b5f6162638383616249565b60208301905092915050565b5f602082019050919050565b5f61628582616220565b61628f818561622a565b935061629a8361623a565b805f5b838110156162ca5781516162b18882616258565b97506162bc8361626f565b92505060018101905061629d565b5085935050505092915050565b5f6040820190508181035f8301526162ef81856161c4565b90508181036020830152616303818461627b565b90509392505050565b5f81519050919050565b5f82825260208201905092915050565b5f6163308261630c565b61633a8185616316565b935061634a818560208601616048565b61635381615dd8565b840191505092915050565b5f6020820190508181035f8301526163768184616326565b905092915050565b5f5f5f6060848603121561639557616394615c67565b5b5f6163a286828701615cb5565b93505060206163b386828701615cb5565b92505060406163c486828701615cb5565b9150509250925092565b5f5ffd5b5f5ffd5b5f5f858511156163e9576163e86163ce565b5b838611156163fa576163f96163d2565b5b6001850283019150848603905094509492505050565b5f82905092915050565b5f7fffffffff0000000000000000000000000000000000000000000000000000000082169050919050565b5f82821b905092915050565b5f61645c8383616410565b82616467813561641a565b925060048210156164a7576164a27fffffffff0000000000000000000000000000000000000000000000000000000083600403600802616445565b831692505b505092915050565b600281106164c0576164bf615ba1565b5b50565b5f8190506164d0826164af565b919050565b5f6164df826164c3565b9050919050565b6164ef816164d5565b82525050565b5f6020820190506165085f8301846164e6565b92915050565b5f67ffffffffffffffff82111561652857616527615de8565b5b602082029050602081019050919050565b5f8151905061654781615c9f565b92915050565b5f61655f61655a8461650e565b615e46565b9050808382526020820190506020840283018581111561658257616581615d30565b5b835b818110156165ab57806165978882616539565b845260208401935050602081019050616584565b5050509392505050565b5f82601f8301126165c9576165c8615d28565b5b81516165d984826020860161654d565b91505092915050565b5f602082840312156165f7576165f6615c67565b5b5f82015167ffffffffffffffff81111561661457616613615c6b565b5b616620848285016165b5565b91505092915050565b7f4e487b71000000000000000000000000000000000000000000000000000000005f52601160045260245ffd5b5f61666082615c2d565b91507fffffffffffffffffffffffffffffffffffffffffffffffffffffffffffffffff820361669257616691616629565b5b600182019050919050565b5f819050919050565b6166b76166b28261641a565b61669d565b82525050565b5f6166c882846166a6565b60048201915081905092915050565b5f819050919050565b6166f16166ec82615c2d565b6166d7565b82525050565b5f61670282856166a6565b60048201915061671282846166e0565b6020820191508190509392505050565b7f4e487b71000000000000000000000000000000000000000000000000000000005f52603260045260245ffd5b5f6020828403121561676457616763615c67565b5b5f61677184828501616539565b91505092915050565b61678381615cf4565b811461678d575f5ffd5b50565b5f8151905061679e8161677a565b92915050565b5f602082840312156167b9576167b8615c67565b5b5f6167c684828501616790565b91505092915050565b5f8160011c9050919050565b5f5f8291508390505b600185111561682457808604811115616800576167ff616629565b5b600185161561680f5780820291505b808102905061681d856167cf565b94506167e4565b94509492505050565b5f8261683c57600190506168f7565b81616849575f90506168f7565b816001811461685f576002811461686957616898565b60019150506168f7565b60ff84111561687b5761687a616629565b5b8360020a91508482111561689257616891616629565b5b506168f7565b5060208310610133831016604e8410600b84101617156168cd5782820a9050838111156168c8576168c7616629565b5b6168f7565b6168da84848460016167db565b925090508184048111156168f1576168f0616629565b5b81810290505b9392505050565b5f61690882615c2d565b915061691383615cf4565b92506169407fffffffffffffffffffffffffffffffffffffffffffffffffffffffffffffffff848461682d565b905092915050565b5f61695282615c8e565b9050919050565b61696281616948565b811461696c575f5ffd5b50565b5f8151905061697d81616959565b92915050565b5f6020828403121561699857616997615c67565b5b5f6169a58482850161696f565b91505092915050565b5f819050919050565b5f67ffffffffffffffff82169050919050565b5f6169e46169df6169da846169ae565b6160bc565b6169b7565b9050919050565b6169f4816169ca565b82525050565b5f602082019050616a0d5f8301846169eb565b92915050565b5f67ffffffffffffffff821115616a2d57616a2c615de8565b5b602082029050602081019050919050565b5f81519050616a4c81615f97565b92915050565b5f616a64616a5f84616a13565b615e46565b90508083825260208201905060208402830185811115616a8757616a86615d30565b5b835b81811015616ab05780616a9c8882616a3e565b845260208401935050602081019050616a89565b5050509392505050565b5f82601f830112616ace57616acd615d28565b5b8151616ade848260208601616a52565b91505092915050565b5f5f60408385031215616afd57616afc615c67565b5b5f83015167ffffffffffffffff811115616b1a57616b19615c6b565b5b616b26858286016165b5565b925050602083015167ffffffffffffffff811115616b4757616b46615c6b565b5b616b5385828601616aba565b9150509250929050565b5f60208284031215616b7257616b71615c67565b5b5f616b7f84828501616a3e565b91505092915050565b5f616b9282615c2d565b9150616b9d83615c2d565b9250828201905080821115616bb557616bb4616629565b5b92915050565b60048110616bcc57616bcb615ba1565b5b50565b5f819050616bdc82616bbb565b919050565b5f616beb82616bcf565b9050919050565b616bfb81616be1565b82525050565b5f606082019050616c145f830186615c36565b616c216020830185615c36565b616c2e6040830184616bf2565b949350505050565b5f616c4082615c2d565b9150616c4b83615c2d565b9250828203905081811115616c6357616c62616629565b5b92915050565b5f616c7382615c2d565b9150616c7e83615c2d565b9250828202616c8c81615c2d565b91508282048414831517616ca357616ca2616629565b5b5092915050565b7f4e487b71000000000000000000000000000000000000000000000000000000005f52601260045260245ffd5b5f616ce182615c2d565b9150616cec83615c2d565b925082616cfc57616cfb616caa565b5b828204905092915050565b5f67ffffffffffffffff821115616d2157616d20615de8565b5b602082029050602081019050919050565b616d3b81615f66565b8114616d45575f5ffd5b50565b5f81519050616d5681616d32565b92915050565b5f616d6e616d6984616d07565b615e46565b90508083825260208201905060208402830185811115616d9157616d90615d30565b5b835b81811015616dba5780616da68882616d48565b845260208401935050602081019050616d93565b5050509392505050565b5f82601f830112616dd857616dd7615d28565b5b8151616de8848260208601616d5c565b91505092915050565b5f5f60408385031215616e0757616e06615c67565b5b5f83015167ffffffffffffffff811115616e2457616e23615c6b565b5b616e30858286016165b5565b925050602083015167ffffffffffffffff811115616e5157616e50615c6b565b5b616e5d85828601616dc4565b9150509250929050565b616e7081615f66565b8114616e7a575f5ffd5b50565b5f81519050616e8b81616e67565b92915050565b5f60208284031215616ea657616ea5615c67565b5b5f616eb384828501616e7d565b91505092915050565b5f616ec682615cf4565b9150616ed183615cf4565b9250828203905060ff811115616eea57616ee9616629565b5b92915050565b60548110616f0157616f00615ba1565b5b50565b5f819050616f1182616ef0565b919050565b5f616f2082616f04565b9050919050565b616f3081616f16565b82525050565b5f604082019050616f495f830185615c36565b616f566020830184616f27565b9392505050565b5f7fff0000000000000000000000000000000000000000000000000000000000000082169050919050565b616f9181616f5d565b82525050565b5f606082019050616faa5f830186615f6f565b616fb76020830185615f6f565b616fc46040830184616f88565b949350505050565b5f81905092915050565b5f616fe08261602e565b616fea8185616fcc565b9350616ffa818560208601616048565b80840191505092915050565b5f6170118284616fd6565b91508190509291505056fea2646970667358221220fc8f3f67d731f8d27eaa8440f0f4378aab59b55691e1d406d8d2eca89891f82d64736f6c634300081c0033",
  "linkReferences": {},
  "deployedLinkReferences": {}
}