{
  "_format": "hh-sol-artifact-1",
  "contractName": "InternalStatesOrchestrator",
  "sourceName": "contracts/orchestrators/InternalStatesOrchestrator.sol",
  "abi": [
    {
      "inputs": [
        {
          "internalType": "address",
          "name": "initialOwner",
          "type": "address"
        },
        {
          "internalType": "address",
          "name": "config_",
          "type": "address"
        },
        {
          "internalType": "address",
          "name": "automationRegistry_",
          "type": "address"
        }
      ],
      "stateMutability": "nonpayable",
      "type": "constructor"
    },
    {
      "inputs": [],
      "name": "HandlesAlreadySavedForRequestID",
      "type": "error"
    },
    {
      "inputs": [],
      "name": "InsufficientAmount",
      "type": "error"
    },
    {
      "inputs": [],
      "name": "InvalidArguments",
      "type": "error"
    },
    {
      "inputs": [],
      "name": "InvalidKMSSignatures",
      "type": "error"
    },
    {
      "inputs": [],
      "name": "InvalidState",
      "type": "error"
    },
    {
      "inputs": [],
      "name": "NoHandleFoundForRequestID",
      "type": "error"
    },
    {
      "inputs": [],
      "name": "NotAuthorized",
      "type": "error"
    },
    {
      "inputs": [
        {
          "internalType": "address",
          "name": "owner",
          "type": "address"
        }
      ],
      "name": "OwnableInvalidOwner",
      "type": "error"
    },
    {
      "inputs": [
        {
          "internalType": "address",
          "name": "account",
          "type": "address"
        }
      ],
      "name": "OwnableUnauthorizedAccount",
      "type": "error"
    },
    {
      "inputs": [],
      "name": "ReentrancyGuardReentrantCall",
      "type": "error"
    },
    {
      "inputs": [],
      "name": "SystemNotIdle",
      "type": "error"
    },
    {
      "inputs": [],
      "name": "TooEarly",
      "type": "error"
    },
    {
      "inputs": [],
      "name": "ZeroAddress",
      "type": "error"
    },
    {
      "anonymous": false,
      "inputs": [
        {
          "indexed": true,
          "internalType": "address",
          "name": "newAutomationRegistry",
          "type": "address"
        }
      ],
      "name": "AutomationRegistryUpdated",
      "type": "event"
    },
    {
      "anonymous": false,
      "inputs": [
        {
          "indexed": true,
          "internalType": "uint256",
          "name": "requestID",
          "type": "uint256"
        }
      ],
      "name": "DecryptionFulfilled",
      "type": "event"
    },
    {
      "anonymous": false,
      "inputs": [
        {
          "indexed": true,
          "internalType": "uint16",
          "name": "epochCounter",
          "type": "uint16"
        }
      ],
      "name": "InternalStateProcessed",
      "type": "event"
    },
    {
      "anonymous": false,
      "inputs": [
        {
          "indexed": true,
          "internalType": "address",
          "name": "previousOwner",
          "type": "address"
        },
        {
          "indexed": true,
          "internalType": "address",
          "name": "newOwner",
          "type": "address"
        }
      ],
      "name": "OwnershipTransferred",
      "type": "event"
    },
    {
      "inputs": [],
      "name": "BASIS_POINTS_FACTOR",
      "outputs": [
        {
          "internalType": "uint16",
          "name": "",
          "type": "uint16"
        }
      ],
      "stateMutability": "view",
      "type": "function"
    },
    {
      "inputs": [],
      "name": "automationRegistry",
      "outputs": [
        {
          "internalType": "address",
          "name": "",
          "type": "address"
        }
      ],
      "stateMutability": "view",
      "type": "function"
    },
    {
      "inputs": [],
      "name": "bufferAmount",
      "outputs": [
        {
          "internalType": "uint256",
          "name": "",
          "type": "uint256"
        }
      ],
      "stateMutability": "view",
      "type": "function"
    },
    {
      "inputs": [
        {
          "internalType": "uint256",
          "name": "requestID",
          "type": "uint256"
        },
        {
          "internalType": "bytes",
          "name": "cleartexts",
          "type": "bytes"
        },
        {
          "internalType": "bytes",
          "name": "decryptionProof",
          "type": "bytes"
        }
      ],
      "name": "callbackPreProcessDecrypt",
      "outputs": [],
      "stateMutability": "nonpayable",
      "type": "function"
    },
    {
      "inputs": [
        {
          "internalType": "bytes",
          "name": "",
          "type": "bytes"
        }
      ],
      "name": "checkUpkeep",
      "outputs": [
        {
          "internalType": "bool",
          "name": "upkeepNeeded",
          "type": "bool"
        },
        {
          "internalType": "bytes",
          "name": "performData",
          "type": "bytes"
        }
      ],
      "stateMutability": "view",
      "type": "function"
    },
    {
      "inputs": [],
      "name": "config",
      "outputs": [
        {
          "internalType": "contract IOrionConfig",
          "name": "",
          "type": "address"
        }
      ],
      "stateMutability": "view",
      "type": "function"
    },
    {
      "inputs": [],
      "name": "currentMinibatchIndex",
      "outputs": [
        {
          "internalType": "uint8",
          "name": "",
          "type": "uint8"
        }
      ],
      "stateMutability": "view",
      "type": "function"
    },
    {
      "inputs": [],
      "name": "currentPhase",
      "outputs": [
        {
          "internalType": "enum IInternalStateOrchestrator.InternalUpkeepPhase",
          "name": "",
          "type": "uint8"
        }
      ],
      "stateMutability": "view",
      "type": "function"
    },
    {
      "inputs": [],
      "name": "encryptedMinibatchSize",
      "outputs": [
        {
          "internalType": "uint8",
          "name": "",
          "type": "uint8"
        }
      ],
      "stateMutability": "view",
      "type": "function"
    },
    {
      "inputs": [
        {
          "internalType": "uint256",
          "name": "",
          "type": "uint256"
        }
      ],
      "name": "encryptedVaultsEpoch",
      "outputs": [
        {
          "internalType": "address",
          "name": "",
          "type": "address"
        }
      ],
      "stateMutability": "view",
      "type": "function"
    },
    {
      "inputs": [],
      "name": "epochCounter",
      "outputs": [
        {
          "internalType": "uint16",
          "name": "",
          "type": "uint16"
        }
      ],
      "stateMutability": "view",
      "type": "function"
    },
    {
      "inputs": [],
      "name": "epochDuration",
      "outputs": [
        {
          "internalType": "uint32",
          "name": "",
          "type": "uint32"
        }
      ],
      "stateMutability": "view",
      "type": "function"
    },
    {
      "inputs": [],
      "name": "getOrders",
      "outputs": [
        {
          "internalType": "address[]",
          "name": "sellingTokens",
          "type": "address[]"
        },
        {
          "internalType": "uint256[]",
          "name": "sellingAmounts",
          "type": "uint256[]"
        },
        {
          "internalType": "address[]",
          "name": "buyingTokens",
          "type": "address[]"
        },
        {
          "internalType": "uint256[]",
          "name": "buyingAmounts",
          "type": "uint256[]"
        },
        {
          "internalType": "uint256[]",
          "name": "sellingEstimatedUnderlyingAmounts",
          "type": "uint256[]"
        },
        {
          "internalType": "uint256[]",
          "name": "buyingEstimatedUnderlyingAmounts",
          "type": "uint256[]"
        }
      ],
      "stateMutability": "view",
      "type": "function"
    },
    {
      "inputs": [
        {
          "internalType": "address",
          "name": "token",
          "type": "address"
        }
      ],
      "name": "getPriceOf",
      "outputs": [
        {
          "internalType": "uint256",
          "name": "price",
          "type": "uint256"
        }
      ],
      "stateMutability": "view",
      "type": "function"
    },
    {
      "inputs": [],
      "name": "intentFactor",
      "outputs": [
        {
          "internalType": "uint256",
          "name": "",
          "type": "uint256"
        }
      ],
      "stateMutability": "view",
      "type": "function"
    },
    {
      "inputs": [],
      "name": "liquidityOrchestrator",
      "outputs": [
        {
          "internalType": "contract ILiquidityOrchestrator",
          "name": "",
          "type": "address"
        }
      ],
      "stateMutability": "view",
      "type": "function"
    },
    {
      "inputs": [],
      "name": "owner",
      "outputs": [
        {
          "internalType": "address",
          "name": "",
          "type": "address"
        }
      ],
      "stateMutability": "view",
      "type": "function"
    },
    {
      "inputs": [],
      "name": "pendingProtocolFees",
      "outputs": [
        {
          "internalType": "uint256",
          "name": "",
          "type": "uint256"
        }
      ],
      "stateMutability": "view",
      "type": "function"
    },
    {
      "inputs": [
        {
          "internalType": "bytes",
          "name": "performData",
          "type": "bytes"
        }
      ],
      "name": "performUpkeep",
      "outputs": [],
      "stateMutability": "nonpayable",
      "type": "function"
    },
    {
      "inputs": [],
      "name": "priceAdapterPrecision",
      "outputs": [
        {
          "internalType": "uint256",
          "name": "",
          "type": "uint256"
        }
      ],
      "stateMutability": "view",
      "type": "function"
    },
    {
      "inputs": [],
      "name": "protocolId",
      "outputs": [
        {
          "internalType": "uint256",
          "name": "",
          "type": "uint256"
        }
      ],
      "stateMutability": "pure",
      "type": "function"
    },
    {
      "inputs": [],
      "name": "registry",
      "outputs": [
        {
          "internalType": "contract IPriceAdapterRegistry",
          "name": "",
          "type": "address"
        }
      ],
      "stateMutability": "view",
      "type": "function"
    },
    {
      "inputs": [],
      "name": "renounceOwnership",
      "outputs": [],
      "stateMutability": "nonpayable",
      "type": "function"
    },
    {
      "inputs": [],
      "name": "rsFeeCoefficient",
      "outputs": [
        {
          "internalType": "uint16",
          "name": "",
          "type": "uint16"
        }
      ],
      "stateMutability": "view",
      "type": "function"
    },
    {
      "inputs": [
        {
          "internalType": "uint256",
          "name": "amount",
          "type": "uint256"
        }
      ],
      "name": "subtractPendingProtocolFees",
      "outputs": [],
      "stateMutability": "nonpayable",
      "type": "function"
    },
    {
      "inputs": [
        {
          "internalType": "address",
          "name": "newOwner",
          "type": "address"
        }
      ],
      "name": "transferOwnership",
      "outputs": [],
      "stateMutability": "nonpayable",
      "type": "function"
    },
    {
      "inputs": [],
      "name": "transparentMinibatchSize",
      "outputs": [
        {
          "internalType": "uint8",
          "name": "",
          "type": "uint8"
        }
      ],
      "stateMutability": "view",
      "type": "function"
    },
    {
      "inputs": [
        {
          "internalType": "uint256",
          "name": "",
          "type": "uint256"
        }
      ],
      "name": "transparentVaultsEpoch",
      "outputs": [
        {
          "internalType": "address",
          "name": "",
          "type": "address"
        }
      ],
      "stateMutability": "view",
      "type": "function"
    },
    {
      "inputs": [],
      "name": "underlyingAsset",
      "outputs": [
        {
          "internalType": "address",
          "name": "",
          "type": "address"
        }
      ],
      "stateMutability": "view",
      "type": "function"
    },
    {
      "inputs": [],
      "name": "underlyingDecimals",
      "outputs": [
        {
          "internalType": "uint8",
          "name": "",
          "type": "uint8"
        }
      ],
      "stateMutability": "view",
      "type": "function"
    },
    {
      "inputs": [
        {
          "internalType": "address",
          "name": "newAutomationRegistry",
          "type": "address"
        }
      ],
      "name": "updateAutomationRegistry",
      "outputs": [],
      "stateMutability": "nonpayable",
      "type": "function"
    },
    {
      "inputs": [
        {
          "internalType": "int256",
          "name": "deltaAmount",
          "type": "int256"
        }
      ],
      "name": "updateBufferAmount",
      "outputs": [],
      "stateMutability": "nonpayable",
      "type": "function"
    },
    {
      "inputs": [
        {
          "internalType": "uint32",
          "name": "newEpochDuration",
          "type": "uint32"
        }
      ],
      "name": "updateEpochDuration",
      "outputs": [],
      "stateMutability": "nonpayable",
      "type": "function"
    },
    {
      "inputs": [
        {
          "internalType": "uint8",
          "name": "_transparentMinibatchSize",
          "type": "uint8"
        },
        {
          "internalType": "uint8",
          "name": "_encryptedMinibatchSize",
          "type": "uint8"
        }
      ],
      "name": "updateMinibatchSizes",
      "outputs": [],
      "stateMutability": "nonpayable",
      "type": "function"
    },
    {
      "inputs": [
        {
          "internalType": "uint16",
          "name": "_vFeeCoefficient",
          "type": "uint16"
        },
        {
          "internalType": "uint16",
          "name": "_rsFeeCoefficient",
          "type": "uint16"
        }
      ],
      "name": "updateProtocolFees",
      "outputs": [],
      "stateMutability": "nonpayable",
      "type": "function"
    },
    {
      "inputs": [],
      "name": "vFeeCoefficient",
      "outputs": [
        {
          "internalType": "uint16",
          "name": "",
          "type": "uint16"
        }
      ],
      "stateMutability": "view",
      "type": "function"
    },
    {
      "inputs": [],
      "name": "validEncryptedVaultsCount",
      "outputs": [
        {
          "internalType": "uint16",
          "name": "",
          "type": "uint16"
        }
      ],
      "stateMutability": "view",
      "type": "function"
    }
  ],
  "bytecode": "0x608060405234801561000f575f5ffd5b506040516152cb3803806152cb83398101604081905261002e91610771565b826100d26100cd604080516080810182525f80825260208201819052918101829052606081019190915250604080516080810182527350157cffd6bbfa2dece204a89ec419c23ef5755d815273cd3ab3bd6bcc0c0bf3e27912a92043e817b1cf69602082015273a02cda4ca3a71d7c46997716f4283aa851c2881291810191909152731364cbbf2cdf5032c47d8226a6f6fbd2afcdacac606082015290565b610509565b6001600160a01b0381166100ff57604051631e4fbdf760e01b81525f600482015260240160405180910390fd5b610108816105c2565b50600180556001600160a01b0382166101345760405163d92e233d60e01b815260040160405180910390fd5b6001600160a01b03811661015b5760405163d92e233d60e01b815260040160405180910390fd5b600380546001600160a01b0319166001600160a01b0384169081179091556040805163015df99360e01b8152905163015df993916004808201926020929091908290030181865afa1580156101b2573d5f5f3e3d5ffd5b505050506040513d601f19601f820116820180604052508101906101d691906107bb565b600580546001600160a01b0319166001600160a01b039283161790556003546040805163d1717c7d60e01b81529051919092169163d1717c7d9160048083019260209291908290030181865afa158015610232573d5f5f3e3d5ffd5b505050506040513d601f19601f8201168201806040525081019061025691906107dd565b61026190600a6108f4565b60075560035460408051631c56369f60e21b815290516001600160a01b0390921691637158da7c916004808201926020929091908290030181865afa1580156102ac573d5f5f3e3d5ffd5b505050506040513d601f19601f820116820180604052508101906102d091906107bb565b600880546001600160a01b0319166001600160a01b03928316908117909155600354604051633c2e3e7b60e11b815260048101929092529091169063785c7cf690602401602060405180830381865afa15801561032f573d5f5f3e3d5ffd5b505050506040513d601f19601f8201168201806040525081019061035391906107dd565b600860146101000a81548160ff021916908360ff16021790555060035f9054906101000a90046001600160a01b03166001600160a01b031663567ba7136040518163ffffffff1660e01b8152600401602060405180830381865afa1580156103bd573d5f5f3e3d5ffd5b505050506040513d601f19601f820116820180604052508101906103e191906107dd565b6103ec90600a6108f4565b6006556017805463ffff000019166301010000179055600280546001600160a01b0319166001600160a01b038381169190911790915560035460408051631d06d6c760e11b815290519190921691633a0dad8e9160048281019260209291908290030181865afa158015610462573d5f5f3e3d5ffd5b505050506040513d601f19601f8201168201806040525081019061048691906107bb565b600480546001600160a01b03929092166001600160a01b03199092169190911790556015805463ffffffff1916620151801790556104c342610611565b6016556017805465ffff0000ffff191690556104de5f61062c565b60188190556104ec90610641565b50506008805463ffffffff60a81b1916905550505f601c5561095c565b80515f5160206152ab5f395f51905f5280546001600160a01b03199081166001600160a01b039384161790915560208301515f51602061528b5f395f51905f528054831691841691909117905560408301517f9e7b61f58c47dc699ac88507c4f5bb9f121c03808c5676a8078fe583e46497028054831691841691909117905560608301517f9e7b61f58c47dc699ac88507c4f5bb9f121c03808c5676a8078fe583e46497038054909216921691909117905550565b50565b5f80546001600160a01b038381166001600160a01b0319831681178455604051919092169283917f8be0079c531659141344cd1fd0a4f28419497f9722a3daafe3b4186f6b6457e09190a35050565b6015545f906106269063ffffffff1683610902565b92915050565b5f6106266001600160801b0383166006610650565b5f61064c82306106e7565b5090565b5f51602061528b5f395f51905f5254604051639cd07acb60e01b81525f915f5160206152ab5f395f51905f52916001600160a01b0390911690639cd07acb9061069f9087908790600401610915565b6020604051808303815f875af11580156106bb573d5f5f3e3d5ffd5b505050506040513d601f19601f820116820180604052508101906106df9190610945565b949350505050565b5f5f5160206152ab5f395f51905f528054604051635ca4b5b160e11b8152600481018690526001600160a01b03858116602483015292935091169063b9496b62906044015f604051808303815f87803b158015610742575f5ffd5b505af1158015610754573d5f5f3e3d5ffd5b50505050505050565b6001600160a01b03811681146105bf575f5ffd5b5f5f5f60608486031215610783575f5ffd5b835161078e8161075d565b602085015190935061079f8161075d565b60408501519092506107b08161075d565b809150509250925092565b5f602082840312156107cb575f5ffd5b81516107d68161075d565b9392505050565b5f602082840312156107ed575f5ffd5b815160ff811681146107d6575f5ffd5b634e487b7160e01b5f52601160045260245ffd5b6001815b600184111561084c57808504811115610830576108306107fd565b600184161561083e57908102905b60019390931c928002610815565b935093915050565b5f8261086257506001610626565b8161086e57505f610626565b8160018114610884576002811461088e576108aa565b6001915050610626565b60ff84111561089f5761089f6107fd565b50506001821b610626565b5060208310610133831016604e8410600b84101617156108cd575081810a610626565b6108d95f198484610811565b805f19048211156108ec576108ec6107fd565b029392505050565b5f6107d660ff841683610854565b80820180821115610626576106266107fd565b828152604081016054831061093857634e487b7160e01b5f52602160045260245ffd5b8260208301529392505050565b5f60208284031215610955575f5ffd5b5051919050565b614922806109695f395ff3fe608060405234801561000f575f5ffd5b50600436106101b4575f3560e01c8062bb07bb146101b8578063055ad42e146101cd5780630844697d146101f757806308af604d1461021f57806314b19c5a1461024457806314b5d07f1461025257806325a760c214610265578063289a2f76146102795780632b0088b4146102995780632e2dc43e146102b057806336021ef4146102ca5780633a0dad8e146102de5780634585e33b146102f15780634ff0876a146103045780635488cd621461032957806358fac65b1461033d5780635dc228a0146103505780636e04ff0d146103635780637060444514610384578063715018a6146103975780637158da7c1461039f57806379502c55146103b25780637b103999146103c55780637cdabf0a146103d8578063800f9fad146103eb5780638da5cb5b146103f45780638f5c9465146103fc578063b8b2af7c14610405578063ba96ff111461041a578063be2683f014610442578063c18e2a5c14610455578063ca1f32f11461045e578063d3f89f6614610467578063da1f12ab14610475578063e2c4aaec1461047d578063eeb393c914610490578063f2fde38b146104a3575b5f5ffd5b6101cb6101c6366004613e81565b6104b6565b005b6017546101e190600160201b900460ff1681565b6040516101ee9190613ecc565b60405180910390f35b60085461020c90600160b81b900461ffff1681565b60405161ffff90911681526020016101ee565b6017546102329062010000900460ff1681565b60405160ff90911681526020016101ee565b60175461020c9061ffff1681565b6101cb610260366004613efa565b6105b0565b60085461023290600160a01b900460ff1681565b61028c610287366004613f15565b6106b9565b6040516101ee9190613f2c565b6102a260075481565b6040519081526020016101ee565b6102b86106e1565b6040516101ee96959493929190613fb3565b601754610232906301000000900460ff1681565b60045461028c906001600160a01b031681565b6101cb6102ff366004614071565b610922565b6015546103149063ffffffff1681565b60405163ffffffff90911681526020016101ee565b60175461023290600160281b900460ff1681565b61028c61034b366004613f15565b610aa0565b60025461028c906001600160a01b031681565b610376610371366004614071565b610aaf565b6040516101ee9291906140dd565b6101cb610392366004613f15565b610e5f565b6101cb610ec6565b60085461028c906001600160a01b031681565b60035461028c906001600160a01b031681565b60055461028c906001600160a01b031681565b6101cb6103e636600461410d565b610ed9565b6102a260095481565b61028c610fe0565b61020c61271081565b60085461020c90600160a81b900461ffff1681565b6102a2610428366004613efa565b6001600160a01b03165f908152600a602052604090205490565b6101cb61045036600461413e565b610fee565b6102a2601c5481565b6102a260065481565b601b5461020c9061ffff1681565b6127116102a2565b6101cb61048b366004613f15565b6110f4565b6101cb61049e3660046141c6565b611167565b6101cb6104b1366004613efa565b611242565b6104be611285565b60ff821615806104cf575060ff8116155b156104ed576040516317dbc4cb60e21b815260040160405180910390fd5b60035f9054906101000a90046001600160a01b03166001600160a01b031663edcf9c1f6040518163ffffffff1660e01b8152600401602060405180830381865afa15801561053d573d5f5f3e3d5ffd5b505050506040513d601f19601f8201168201806040525081019061056191906141e1565b61057e576040516312aecd8160e01b815260040160405180910390fd5b6017805463ffff000019166201000060ff9485160263ff00000019161763010000009290931691909102919091179055565b6105b8611285565b6001600160a01b0381166105df5760405163d92e233d60e01b815260040160405180910390fd5b60035f9054906101000a90046001600160a01b03166001600160a01b031663edcf9c1f6040518163ffffffff1660e01b8152600401602060405180830381865afa15801561062f573d5f5f3e3d5ffd5b505050506040513d601f19601f8201168201806040525081019061065391906141e1565b610670576040516312aecd8160e01b815260040160405180910390fd5b600280546001600160a01b0319166001600160a01b0383169081179091556040517f6cc7ebdb6c8c53291c5ae16148cab9b049d23bf5bde5632900b40edff56fcb43905f90a250565b601a81815481106106c8575f80fd5b5f918252602090912001546001600160a01b0316905081565b6060806060806060805f600a60090180548060200260200160405190810160405280929190818152602001828054801561074257602002820191905f5260205f20905b81546001600160a01b03168152600190910190602001808311610724575b505050505090505f5f610754836112b7565b915091508161ffff166001600160401b0381111561077457610774614200565b60405190808252806020026020018201604052801561079d578160200160208202803683370190505b5098508161ffff166001600160401b038111156107bc576107bc614200565b6040519080825280602002602001820160405280156107e5578160200160208202803683370190505b5097508061ffff166001600160401b0381111561080457610804614200565b60405190808252806020026020018201604052801561082d578160200160208202803683370190505b5096508061ffff166001600160401b0381111561084c5761084c614200565b604051908082528060200260200182016040528015610875578160200160208202803683370190505b5095508161ffff166001600160401b0381111561089457610894614200565b6040519080825280602002602001820160405280156108bd578160200160208202803683370190505b5094508061ffff166001600160401b038111156108dc576108dc614200565b604051908082528060200260200182016040528015610905578160200160208202803683370190505b509350610917838a8a888b8b8a611358565b505050909192939495565b6002546001600160a01b0316331461094d5760405163ea8e4eb560e01b815260040160405180910390fd5b61095561153b565b6005811015610977576040516317dbc4cb60e21b815260040160405180910390fd5b5f8061098583850185614214565b90925090506341659aab60e01b6001600160e01b03198316016109af576109aa611565565b610a91565b636ce38ed360e11b6001600160e01b03198316016109d0576109aa81611816565b635954faa160e01b6001600160e01b03198316016109f1576109aa81611fb6565b63dbd33d3560e01b6001600160e01b0319831601610a11576109aa61262d565b6292a80f60e51b6001600160e01b0319831601610a30576109aa612a93565b6265e66b60e01b6001600160e01b0319831601610a50576109aa81612da9565b63f4d3cc0960e01b6001600160e01b0319831601610a71576109aa816131c8565b63c4b3cef760e01b6001600160e01b0319831601610a9157610a916132b3565b5050610a9c60018055565b5050565b601981815481106106c8575f80fd5b5f606060035f9054906101000a90046001600160a01b03166001600160a01b031663edcf9c1f6040518163ffffffff1660e01b8152600401602060405180830381865afa158015610b02573d5f5f3e3d5ffd5b505050506040513d601f19601f82011682018060405250810190610b2691906141e1565b8015610b33575060165442115b15610b8557600191507fbe9a655586dceb82dfa0af992b5d8ae7fa45053cb7fd6f141f541da7572978c75f604051602001610b6f92919061423c565b6040516020818303038152906040529050610e58565b6001601754600160201b900460ff166007811115610ba557610ba5613eb8565b03610bf057600191507f2638e25a856cbfe28e0ae1857cb597cc2ceb873ce579b7d93c2258e45a754481601760059054906101000a900460ff16604051602001610b6f92919061423c565b6002601754600160201b900460ff166007811115610c1057610c10613eb8565b03610c5b57600191507fa6ab055f7fc0612ad6e844f7e1dd3a6df793560cd68d707affa0dd01c39ec8f1601760059054906101000a900460ff16604051602001610b6f92919061423c565b6003601754600160201b900460ff166007811115610c7b57610c7b613eb8565b03610cb757600191507f242cc2cba236b9c457bb86deb0ad1fb8fe60d5bcafd69d02041c9c62f3ea1fbd5f604051602001610b6f92919061423c565b6004601754600160201b900460ff166007811115610cd757610cd7613eb8565b03610d1357600191507fedaafe206508e00f40674bb87dda745bccfe8a3f3f6d6eaaf6db5f44021a1c135f604051602001610b6f92919061423c565b6005601754600160201b900460ff166007811115610d3357610d33613eb8565b03610d7e57600191507fff9a199536c068c55c334e40ebfa355733f79152332d6586d615c5bb37fd5c17601760059054906101000a900460ff16604051602001610b6f92919061423c565b6006601754600160201b900460ff166007811115610d9e57610d9e613eb8565b03610de957600191507f0b2c33f7f9ce5cba78feb12c50c7fc97cbcfb655f151982783c0f2faf7567b0b601760059054906101000a900460ff16604051602001610b6f92919061423c565b6007601754600160201b900460ff166007811115610e0957610e09613eb8565b03610e4557600191507f3b4c310984a9fe486c05a56b52659c09d4bf9f3ef9b799ad52ee29a7d805741e5f604051602001610b6f92919061423c565b505060408051602081019091525f808252905b9250929050565b6004546001600160a01b03163314610e8a5760405163ea8e4eb560e01b815260040160405180910390fd5b600954811115610ead57604051632ca2f52b60e11b815260040160405180910390fd5b8060095f828254610ebe919061426d565b909155505050565b610ece611285565b610ed75f61347f565b565b610ee1611285565b60648261ffff161180610ef957506107d08161ffff16115b15610f17576040516317dbc4cb60e21b815260040160405180910390fd5b60035f9054906101000a90046001600160a01b03166001600160a01b031663edcf9c1f6040518163ffffffff1660e01b8152600401602060405180830381865afa158015610f67573d5f5f3e3d5ffd5b505050506040513d601f19601f82011682018060405250810190610f8b91906141e1565b610fa8576040516312aecd8160e01b815260040160405180910390fd5b6008805463ffffffff60a81b1916600160a81b61ffff9485160261ffff60b81b191617600160b81b9290931691909102919091179055565b5f546001600160a01b031690565b6110608585858080601f0160208091040260200160405190810160405280939291908181526020018383808284375f9201919091525050604080516020601f890181900481028201810190925287815292508791508690819084018382808284375f920191909152506134ce92505050565b604080515f602082015201604051602081830303815290604052805190602001208484604051611091929190614280565b6040518091039020036110b7576017805461ffff60201b1916600160221b1790556110ed565b6110c3838501856142e1565b80516110d791601d91602090910190613dac565b506017805461ffff60201b1916600360201b1790555b5050505050565b6004546001600160a01b0316331461111f5760405163ea8e4eb560e01b815260040160405180910390fd5b5f8113156111435780601c5f828254611138919061436c565b909155506111649050565b5f811215611164576111548161437f565b601c5f828254610ebe919061426d565b50565b61116f611285565b8063ffffffff165f03611195576040516317dbc4cb60e21b815260040160405180910390fd5b60035f9054906101000a90046001600160a01b03166001600160a01b031663edcf9c1f6040518163ffffffff1660e01b8152600401602060405180830381865afa1580156111e5573d5f5f3e3d5ffd5b505050506040513d601f19601f8201168201806040525081019061120991906141e1565b611226576040516312aecd8160e01b815260040160405180910390fd5b6015805463ffffffff191663ffffffff92909216919091179055565b61124a611285565b6001600160a01b03811661127c575f604051631e4fbdf760e01b81526004016112739190613f2c565b60405180910390fd5b6111648161347f565b3361128e610fe0565b6001600160a01b031614610ed7573360405163118cdaa760e01b81526004016112739190613f2c565b80515f908190815b8161ffff168161ffff161015611351575f858261ffff16815181106112e6576112e6614399565b6020908102919091018101516001600160a01b0381165f90815260119092526040909120549091501561131f5761131c856143ad565b94505b6001600160a01b0381165f908152601260205260409020541561134857611345846143ad565b93505b506001016112bf565b5050915091565b86515f80805b8361ffff168161ffff16101561152e575f8b8261ffff168151811061138557611385614399565b6020908102919091018101516001600160a01b0381165f908152601183526040808220546012909452902054909250811561146a57828d8761ffff16815181106113d1576113d1614399565b60200260200101906001600160a01b031690816001600160a01b031681525050818c8761ffff168151811061140857611408614399565b6020908102919091018101919091526001600160a01b0384165f908152600a909152604090205460065461143d918491613537565b8b8761ffff168151811061145357611453614399565b6020908102919091010152611467866143ad565b95505b801561152057828a8661ffff168151811061148757611487614399565b60200260200101906001600160a01b031690816001600160a01b03168152505080898661ffff16815181106114be576114be614399565b6020908102919091018101919091526001600160a01b0384165f908152600a90915260409020546006546114f3918391613537565b888661ffff168151811061150957611509614399565b602090810291909101015261151d856143ad565b94505b50505080600101905061135e565b5050505050505050505050565b60026001540361155e57604051633ee5aeb560e01b815260040160405180910390fd5b6002600155565b601654421115806115e7575060035f9054906101000a90046001600160a01b03166001600160a01b031663edcf9c1f6040518163ffffffff1660e01b8152600401602060405180830381865afa1580156115c1573d5f5f3e3d5ffd5b505050506040513d601f19601f820116820180604052508101906115e591906141e1565b155b156116055760405163085de62560e01b815260040160405180910390fd5b61160e426135e8565b6016555f5b60135461ffff821610156116d2575f600a6009018261ffff168154811061163c5761163c614399565b5f9182526020808320909101546001600160a01b03168252600a81526040808320839055600b8252808320839055600d8252808320839055600f8252808320839055601182528083208390556012825280832083905560148252808320805460ff19169055601854600c8352818420819055600e8352818420819055601090925290912055506116cb816143ad565b9050611613565b506116de60135f613df1565b6116e9601d5f613df1565b600354604051631da09e4360e31b81526001600160a01b039091169063ed04f21890611719905f906004016143cd565b5f60405180830381865afa158015611733573d5f5f3e3d5ffd5b505050506040513d5f823e601f3d908101601f1916820160405261175a919081019061444f565b805161176e91601991602090910190613e0c565b50600354604051631da09e4360e31b81526001600160a01b039091169063ed04f218906117a0906001906004016143cd565b5f60405180830381865afa1580156117ba573d5f5f3e3d5ffd5b505050506040513d5f823e601f3d908101601f191682016040526117e1919081019061444f565b80516117f591601a91602090910190613e0c565b50601b805461ffff191690556017805460ff60201b1916600160201b179055565b6001601754600160201b900460ff16600781111561183657611836613eb8565b146118545760405163baf3f0f760e01b815260040160405180910390fd5b6017805460059061186e90600160281b900460ff16614480565b91906101000a81548160ff021916908360ff1602179055505f601760029054906101000a900460ff16826118a29190614495565b60175460ff91821692505f916118bf9162010000900416836144b8565b60195490915061ffff821611806118db575060195461ffff8216145b156118f957506019546017805461ffff60201b1916600160211b1790555b815b8161ffff168161ffff161015611fb0575f60198261ffff168154811061192357611923614399565b905f5260205f20015f9054906101000a90046001600160a01b031690505f5f826001600160a01b031663d3d034586040518163ffffffff1660e01b81526004015f60405180830381865afa15801561197d573d5f5f3e3d5ffd5b505050506040513d5f823e601f3d908101601f191682016040526119a491908101906144d2565b90925090505f805b83518161ffff161015611c03575f848261ffff16815181106119d0576119d0614399565b602002602001015190505f848361ffff16815181106119f1576119f1614399565b6020026020010151905080600a6001015f846001600160a01b03166001600160a01b031681526020019081526020015f205f828254611a30919061436c565b90915550506001600160a01b0382165f9081526014602052604090205460ff16611b27576008546001600160a01b0390811690831603611a9f57600854611a8290600160a01b900460ff16600a614673565b6001600160a01b0383165f908152600a6020526040902055611b27565b6005546040516341976e0960e01b81526001600160a01b03909116906341976e0990611acf908590600401613f2c565b602060405180830381865afa158015611aea573d5f5f3e3d5ffd5b505050506040513d601f19601f82011682018060405250810190611b0e9190614681565b6001600160a01b0383165f908152600a60205260409020555b6001600160a01b0382165f908152600a6020526040812054600654909190611bd790611b569084908690613537565b600354604051633c2e3e7b60e11b81526001600160a01b039091169063785c7cf690611b86908990600401613f2c565b602060405180830381865afa158015611ba1573d5f5f3e3d5ffd5b505050506040513d601f19601f82011682018060405250810190611bc59190614698565b600854600160a01b900460ff16613603565b9050611be3818761436c565b9550611bee8461366d565b5050505080611bfc906143ad565b90506119ac565b506008545f90611c2190600160a81b900461ffff1683612710613537565b601554909150611c4290829063ffffffff908116906301e133809061353716565b90508060095f828254611c55919061436c565b90915550611c659050818361426d565b60405163728d42fb60e11b8152600481018290529092505f906001600160a01b0387169063e51a85f690602401602060405180830381865afa158015611cad573d5f5f3e3d5ffd5b505050506040513d601f19601f82011682018060405250810190611cd19190614681565b9050611cdd818461426d565b6008549093505f90611cfd90600160b81b900461ffff1683612710613537565b90508060095f828254611d10919061436c565b90915550611d209050818361426d565b601754604051630df571f760e01b815261ffff9091166004820152602481018290529092506001600160a01b03881690630df571f7906044015f604051808303815f87803b158015611d70575f5ffd5b505af1158015611d82573d5f5f3e3d5ffd5b505050505f876001600160a01b031663a68a5267896001600160a01b0316630a605c6d6040518163ffffffff1660e01b8152600401602060405180830381865afa158015611dd2573d5f5f3e3d5ffd5b505050506040513d601f19601f82011682018060405250810190611df69190614681565b875f6040518463ffffffff1660e01b8152600401611e16939291906146b3565b602060405180830381865afa158015611e31573d5f5f3e3d5ffd5b505050506040513d601f19601f82011682018060405250810190611e559190614681565b60405163493a6e2160e01b8152600481018790529091506001600160a01b0389169063493a6e21906024015f604051808303815f87803b158015611e97575f5ffd5b505af1158015611ea9573d5f5f3e3d5ffd5b505050508085611eb9919061426d565b94505f886001600160a01b031663f64c6f326040518163ffffffff1660e01b8152600401602060405180830381865afa158015611ef8573d5f5f3e3d5ffd5b505050506040513d601f19601f82011682018060405250810190611f1c9190614681565b60405163e5e9719360e01b8152600481018890529091506001600160a01b038a169063e5e97193906024015f604051808303815f87803b158015611f5e575f5ffd5b505af1158015611f70573d5f5f3e3d5ffd5b505050508086611f80919061436c565b6001600160a01b039099165f908152600d60205260409020989098555050600190960195506118fb945050505050565b50505050565b6002601754600160201b900460ff166007811115611fd657611fd6613eb8565b14611ff45760405163baf3f0f760e01b815260040160405180910390fd5b6017805460059061200e90600160281b900460ff16614480565b82546101009290920a60ff818102199093169183160217909155601a5460175490915f916120459163010000009091041684614495565b60175460ff91821692505f91612063916301000000900416836144b8565b90508261ffff168161ffff16118061208257508261ffff168161ffff16145b1561208a5750815b815b8161ffff168161ffff16101561245f575f601a8261ffff16815481106120b4576120b4614399565b5f918252602091829020015460408051631b9d6fc560e31b815290516001600160a01b039092169350839263dceb7e28926004808401938290030181865afa158015612102573d5f5f3e3d5ffd5b505050506040513d601f19601f8201168201806040525081019061212691906141e1565b6121305750612457565b601b80545f906121439061ffff166143ad565b91906101000a81548161ffff021916908361ffff1602179055505f5f826001600160a01b031663d3d034586040518163ffffffff1660e01b81526004015f60405180830381865afa15801561219a573d5f5f3e3d5ffd5b505050506040513d5f823e601f3d908101601f191682016040526121c191908101906144d2565b60185491935091505f5b83518161ffff161015612437575f848261ffff16815181106121ef576121ef614399565b602002602001015190505f848361ffff168151811061221057612210614399565b6020026020010151905061224a600a6002015f846001600160a01b03166001600160a01b031681526020019081526020015f2054826136f2565b6001600160a01b0383165f908152600c602090815260408083209390935560149052205460ff16612348576008546001600160a01b03908116908316036122c0576008546122a390600160a01b900460ff16600a614673565b6001600160a01b0383165f908152600a6020526040902055612348565b6005546040516341976e0960e01b81526001600160a01b03909116906341976e09906122f0908590600401613f2c565b602060405180830381865afa15801561230b573d5f5f3e3d5ffd5b505050506040513d601f19601f8201168201806040525081019061232f9190614681565b6001600160a01b0383165f908152600a60205260409020555b6001600160a01b0382165f908152600a60205260408120549061237e61237661237084613720565b85613735565b600654613763565b600354604051633c2e3e7b60e11b81529192505f9161240a9184916001600160a01b039091169063785c7cf6906123b9908a90600401613f2c565b602060405180830381865afa1580156123d4573d5f5f3e3d5ffd5b505050506040513d601f19601f820116820180604052508101906123f89190614698565b600854600160a01b900460ff16613788565b905061241687826136f2565b96506124218561366d565b505050505080612430906143ad565b90506121cb565b506001600160a01b039093165f908152600e602052604090209290925550505b60010161208c565b508261ffff168161ffff1603611fb05761ffff811615806124845750601b5461ffff16155b156124a2576017805461ffff60201b1916600160221b179055611fb0565b6013545f6124b082866144b8565b61ffff166001600160401b038111156124cb576124cb614200565b6040519080825280602002602001820160405280156124f4578160200160208202803683370190505b5090505f5b8561ffff168161ffff16101561257e575f601a8261ffff168154811061252157612521614399565b5f9182526020808320909101546001600160a01b0316808352600e909152604090912054909150612551816137e9565b5080848461ffff168151811061256957612569614399565b602090810291909101015250506001016124f9565b505f5b8261ffff168161ffff161015612612575f600a6009018261ffff16815481106125ac576125ac614399565b5f9182526020808320909101546001600160a01b0316808352600c9091526040909120549091506125dc816137e9565b5080846125e9858b6144b8565b61ffff16815181106125fd576125fd614399565b60209081029190910101525050600101612581565b5061262481630be2683f60e41b6137f8565b50505050505050565b6003601754600160201b900460ff16600781111561264d5761264d613eb8565b1461266b5760405163baf3f0f760e01b815260040160405180910390fd5b601a546013545f5b8261ffff168161ffff1610156129ce575f601a8261ffff168154811061269b5761269b614399565b5f918252602091829020015460408051631b9d6fc560e31b815290516001600160a01b0390921693508392839263dceb7e289260048082019392918290030181865afa1580156126ed573d5f5f3e3d5ffd5b505050506040513d601f19601f8201168201806040525081019061271191906141e1565b61271c5750506129c6565b5f601d8461ffff168154811061273457612734614399565b5f91825260208220015460085490925061275c90600160a81b900461ffff1683612710613537565b60155490915061277d90829063ffffffff908116906301e133809061353716565b90508060095f828254612790919061436c565b909155506127a09050818361426d565b60405163728d42fb60e11b8152600481018290529092505f906001600160a01b0385169063e51a85f690602401602060405180830381865afa1580156127e8573d5f5f3e3d5ffd5b505050506040513d601f19601f8201168201806040525081019061280c9190614681565b9050612818818461426d565b6008549093505f9061283890600160b81b900461ffff1683612710613537565b90508060095f82825461284b919061436c565b9091555061285b9050818361426d565b91505f856001600160a01b031663a68a5267876001600160a01b0316630a605c6d6040518163ffffffff1660e01b8152600401602060405180830381865afa1580156128a9573d5f5f3e3d5ffd5b505050506040513d601f19601f820116820180604052508101906128cd9190614681565b875f6040518463ffffffff1660e01b81526004016128ed939291906146b3565b602060405180830381865afa158015612908573d5f5f3e3d5ffd5b505050506040513d601f19601f8201168201806040525081019061292c9190614681565b905080866001600160a01b031663f64c6f326040518163ffffffff1660e01b8152600401602060405180830381865afa15801561296b573d5f5f3e3d5ffd5b505050506040513d601f19601f8201168201806040525081019061298f9190614681565b612999919061426d565b6129a3908661436c565b6001600160a01b039097165f908152600d60205260409020969096555050505050505b600101612673565b505f5b8161ffff168161ffff161015612a7a575f600a6009018261ffff16815481106129fc576129fc614399565b5f9182526020822001546001600160a01b03169150601d612a1d84876144b8565b61ffff1681548110612a3157612a31614399565b5f9182526020808320909101546001600160a01b0385168352600b90915260408220805491935083929091612a6790849061436c565b9091555050600190920191506129d19050565b50506017805461ffff60201b1916600160221b17905550565b6004601754600160201b900460ff166007811115612ab357612ab3613eb8565b14612ad15760405163baf3f0f760e01b815260040160405180910390fd5b6017805460ff60201b1916600560201b179055601954601a545f805b8361ffff168161ffff161015612b51575f60198261ffff1681548110612b1557612b15614399565b5f9182526020808320909101546001600160a01b0316808352600d909152604090912054909150612b46908461436c565b925050600101612aed565b505f5b8261ffff168161ffff161015612bb8575f601a8261ffff1681548110612b7c57612b7c614399565b5f9182526020808320909101546001600160a01b0316808352600d909152604090912054909150612bad908461436c565b925050600101612b54565b50600480546040805163dab26e3b60e01b815290515f93612c2f936001600160a01b03169263dab26e3b92818301926020928290030181865afa158015612c01573d5f5f3e3d5ffd5b505050506040513d601f19601f82011682018060405250810190612c259190614681565b8390612710613537565b905080601c541115612c415750505050565b5f601c5482612c50919061426d565b90505f5b8561ffff168161ffff161015612cee575f60198261ffff1681548110612c7c57612c7c614399565b5f9182526020808320909101546001600160a01b0316808352600d909152604082205490925090612cae858389613537565b6001600160a01b0384165f908152600d6020526040812080549293508392909190612cda90849061426d565b909155505060019093019250612c54915050565b505f5b8461ffff168161ffff161015612d8b575f601a8261ffff1681548110612d1957612d19614399565b5f9182526020808320909101546001600160a01b0316808352600d909152604082205490925090612d4b858389613537565b6001600160a01b0384165f908152600d6020526040812080549293508392909190612d7790849061426d565b909155505060019093019250612cf1915050565b5080601c5f828254612d9d919061436c565b90915550505050505050565b6005601754600160201b900460ff166007811115612dc957612dc9613eb8565b14612de75760405163baf3f0f760e01b815260040160405180910390fd5b60178054600590612e0190600160281b900460ff16614480565b91906101000a81548160ff021916908360ff1602179055505f601760029054906101000a900460ff1682612e359190614495565b60175460ff91821692505f91612e529162010000900416836144b8565b60195490915061ffff82161180612e6e575060195461ffff8216145b15612e8c57506019546017805461ffff60201b1916600360211b1790555b815b8161ffff168161ffff161015611fb0575f60198261ffff1681548110612eb657612eb6614399565b905f5260205f20015f9054906101000a90046001600160a01b031690505f5f826001600160a01b031663b6eba6536040518163ffffffff1660e01b81526004015f60405180830381865afa158015612f10573d5f5f3e3d5ffd5b505050506040513d5f823e601f3d908101601f19168201604052612f3791908101906146df565b6001600160a01b0385165f908152600d60205260408120549294509092505b83518161ffff1610156131b8575f848261ffff1681518110612f7a57612f7a614399565b602002602001015190505f848361ffff1681518110612f9b57612f9b614399565b6020908102919091018101516001600160a01b0384165f908152601490925260409091205490915060ff1661309d576008546001600160a01b039081169083160361301557600854612ff890600160a01b900460ff16600a614673565b6001600160a01b0383165f908152600a602052604090205561309d565b6005546040516341976e0960e01b81526001600160a01b03909116906341976e0990613045908590600401613f2c565b602060405180830381865afa158015613060573d5f5f3e3d5ffd5b505050506040513d601f19601f820116820180604052508101906130849190614681565b6001600160a01b0383165f908152600a60205260409020555b6001600160a01b0382165f908152600a6020526040812054600654600754919291613168916130e59185906130de908b9063ffffffff808b16919061353716565b9190613537565b600854600354604051633c2e3e7b60e11b8152600160a01b90920460ff16916001600160a01b039091169063785c7cf690613124908a90600401613f2c565b602060405180830381865afa15801561313f573d5f5f3e3d5ffd5b505050506040513d601f19601f820116820180604052508101906131639190614698565b613603565b6001600160a01b0385165f908152600f602052604081208054929350839290919061319490849061436c565b909155506131a390508461366d565b50505050806131b1906143ad565b9050612f56565b5050505050806001019050612e8e565b6006601754600160201b900460ff1660078111156131e8576131e8613eb8565b146132065760405163baf3f0f760e01b815260040160405180910390fd5b6017805460059061322090600160281b900460ff16614480565b82546101009290920a60ff818102199093169183160217909155601a5460175490915f916132579163010000009091041684614495565b60175460ff91821692505f91613275916301000000900416836144b8565b90508261ffff168161ffff16118061329457508261ffff168161ffff16145b15611fb05750506017805461ffff60201b1916600760201b1790555050565b6007601754600160201b900460ff1660078111156132d3576132d3613eb8565b146132f15760405163baf3f0f760e01b815260040160405180910390fd5b5f600a60090180548060200260200160405190810160405280929190818152602001828054801561334957602002820191905f5260205f20905b81546001600160a01b0316815260019091019060200180831161332b575b505083519394505f925050505b8161ffff168161ffff161015613414575f838261ffff168151811061337d5761337d614399565b6020908102919091018101516001600160a01b0381165f908152600b8352604080822054600f909452902054909250808211156133db576133be818361426d565b6001600160a01b0384165f90815260116020526040902055613406565b81811115613406576133ed828261426d565b6001600160a01b0384165f908152601260205260409020555b505050806001019050613356565b506017805460ff60201b19811682555f906134329061ffff166143ad565b82546101009290920a61ffff8181021990931691831602179091556017546040519116907f0bc12479581640d161e016cef21aa834cb6d6326bbc0d8445e58d56403adf2dc905f90a25050565b5f80546001600160a01b038381166001600160a01b0319831681178455604051919092169283917f8be0079c531659141344cd1fd0a4f28419497f9722a3daafe3b4186f6b6457e09190a35050565b5f6134d884613804565b90505f6134e68285856138a0565b9050806135065760405163cf6c44e960e01b815260040160405180910390fd5b60405185907f1af0453083661051f6e56e5c070792320652e612154bf9af8637bb1e7655b99d905f90a25050505050565b5f5f5f613544868661396d565b91509150815f036135685783818161355e5761355e614798565b04925050506135e1565b81841161357f5761357f6003851502601118613989565b5f848688095f868103871696879004966002600389028118808a02820302808a02820302808a02820302808a02820302808a02820302808a02909103029181900381900460010185841190960395909502919093039390930492909217029150505b9392505050565b6015545f906135fd9063ffffffff168361436c565b92915050565b5f8260ff168260ff1611156136385761361c83836147ac565b61362790600a614673565b61363190856147c5565b90506135e1565b8260ff168260ff1610156136655761365082846147ac565b61365b90600a614673565b61363190856147dc565b509192915050565b6001600160a01b0381165f9081526014602052604090205460ff16611164576013805460018181019092557f66de8ffda797e3de9c05e8fc57b3bf0ec28a930d40b0d285d93c06501cf6a0900180546001600160a01b0384166001600160a01b031990911681179091555f908152601460205260409020805460ff1916909117905550565b5f82613704576137015f613720565b92505b81613715576137125f613720565b91505b6135e183835f61399a565b5f6135fd826001600160801b03166006613a3a565b5f82613747576137445f613720565b92505b81613758576137555f613720565b91505b6135e183835f613ac1565b5f82613775576137725f613720565b92505b6135e1836001600160801b038416613b17565b5f8260ff168260ff1611156137bd57613631846137b86137a886866147ac565b6137b390600a614673565b613720565b613735565b8260ff168260ff16101561366557613631846137d984866147ac565b6137e490600a614673565b613763565b5f6137f48230613ba6565b5090565b5f6135e183835f613c0d565b60605f61380f613d0e565b5f848152600182016020526040812054919250036138405760405163d66ca67560e01b815260040160405180910390fd5b5f8381526001820160209081526040918290208054835181840281018401909452808452909183018282801561389357602002820191905f5260205f20905b81548152602001906001019080831161387f575b5050505050915050919050565b5f5f835160206138b0919061436c565b6138bb90602061436c565b90505f84826040516020016138d19291906147fb565b60405160208183030381529060405290505f6138eb613d32565b60038101546040516378542ead60e01b81529192506001600160a01b0316906378542ead90613922908a9086908a90600401614815565b6020604051808303815f875af115801561393e573d5f5f3e3d5ffd5b505050506040513d601f19601f8201168201806040525081019061396291906141e1565b979650505050505050565b5f805f1983850993909202808410938190039390930393915050565b634e487b715f52806020526024601cfd5b5f5f82156139ad5750600160f81b6139b0565b505f5b5f6139b9613d32565b600181015460405163022f65e760e31b81529192506001600160a01b03169063117b2f38906139f09089908990879060040161484d565b6020604051808303815f875af1158015613a0c573d5f5f3e3d5ffd5b505050506040513d601f19601f82011682018060405250810190613a309190614681565b9695505050505050565b5f5f613a44613d32565b6001810154604051639cd07acb60e01b81529192506001600160a01b031690639cd07acb90613a79908790879060040161486d565b6020604051808303815f875af1158015613a95573d5f5f3e3d5ffd5b505050506040513d601f19601f82011682018060405250810190613ab99190614681565b949350505050565b5f5f8215613ad45750600160f81b613ad7565b505f5b5f613ae0613d32565b6001810154604051630afe14ad60e31b81529192506001600160a01b0316906357f0a568906139f09089908990879060040161484d565b5f600160f81b81613b26613d32565b6001810154604051635a53accb60e01b81529192506001600160a01b031690635a53accb90613b5d9088908890879060040161484d565b6020604051808303815f875af1158015613b79573d5f5f3e3d5ffd5b505050506040513d601f19601f82011682018060405250810190613b9d9190614681565b95945050505050565b5f613baf613d32565b8054604051635ca4b5b160e11b8152600481018690526001600160a01b03858116602483015292935091169063b9496b62906044015f604051808303815f87803b158015613bfb575f5ffd5b505af1158015612624573d5f5f3e3d5ffd5b5f5f613c17613d0e565b8054925090505f613c26613d32565b8054604051637d6e912360e11b81529192506001600160a01b03169063fadd224690613c56908990600401614891565b5f604051808303815f87803b158015613c6d575f5ffd5b505af1158015613c7f573d5f5f3e3d5ffd5b5050506002820154604051633263b83b60e01b81526001600160a01b039091169150633263b83b908690613cbb9087908b908b906004016148a3565b5f604051808303818588803b158015613cd2575f5ffd5b505af1158015613ce4573d5f5f3e3d5ffd5b5050505050613cf38387613d56565b8154825f613d00836148d4565b919050555050509392505050565b7f878245876662ba28a480c5ea71726db859fb50222b0a3d7cbbc21cfa336faf0090565b7f9e7b61f58c47dc699ac88507c4f5bb9f121c03808c5676a8078fe583e464970090565b5f613d5f613d0e565b5f84815260018201602052604090205490915015613d9057604051633f06d22b60e01b815260040160405180910390fd5b5f83815260018201602090815260409091208351611fb0928501905b828054828255905f5260205f20908101928215613de5579160200282015b82811115613de5578251825591602001919060010190613dca565b506137f4929150613e5f565b5080545f8255905f5260205f20908101906111649190613e5f565b828054828255905f5260205f20908101928215613de5579160200282015b82811115613de557825182546001600160a01b0319166001600160a01b03909116178255602090920191600190910190613e2a565b5b808211156137f4575f8155600101613e60565b60ff81168114611164575f5ffd5b5f5f60408385031215613e92575f5ffd5b8235613e9d81613e73565b91506020830135613ead81613e73565b809150509250929050565b634e487b7160e01b5f52602160045260245ffd5b6020810160088310613ee057613ee0613eb8565b91905290565b6001600160a01b0381168114611164575f5ffd5b5f60208284031215613f0a575f5ffd5b81356135e181613ee6565b5f60208284031215613f25575f5ffd5b5035919050565b6001600160a01b0391909116815260200190565b5f8151808452602084019350602083015f5b82811015613f795781516001600160a01b0316865260209586019590910190600101613f52565b5093949350505050565b5f8151808452602084019350602083015f5b82811015613f79578151865260209586019590910190600101613f95565b60c081525f613fc560c0830189613f40565b8281036020840152613fd78189613f83565b90508281036040840152613feb8188613f40565b90508281036060840152613fff8187613f83565b905082810360808401526140138186613f83565b905082810360a08401526140278185613f83565b9998505050505050505050565b5f5f83601f840112614044575f5ffd5b5081356001600160401b0381111561405a575f5ffd5b602083019150836020828501011115610e58575f5ffd5b5f5f60208385031215614082575f5ffd5b82356001600160401b03811115614097575f5ffd5b6140a385828601614034565b90969095509350505050565b5f81518084528060208401602086015e5f602082860101526020601f19601f83011685010191505092915050565b8215158152604060208201525f613ab960408301846140af565b803561ffff81168114614108575f5ffd5b919050565b5f5f6040838503121561411e575f5ffd5b614127836140f7565b9150614135602084016140f7565b90509250929050565b5f5f5f5f5f60608688031215614152575f5ffd5b8535945060208601356001600160401b0381111561416e575f5ffd5b61417a88828901614034565b90955093505060408601356001600160401b03811115614198575f5ffd5b6141a488828901614034565b969995985093965092949392505050565b63ffffffff81168114611164575f5ffd5b5f602082840312156141d6575f5ffd5b81356135e1816141b5565b5f602082840312156141f1575f5ffd5b815180151581146135e1575f5ffd5b634e487b7160e01b5f52604160045260245ffd5b5f5f60408385031215614225575f5ffd5b82356001600160e01b031981168114613e9d575f5ffd5b6001600160e01b031992909216825260ff16602082015260400190565b634e487b7160e01b5f52601160045260245ffd5b818103818111156135fd576135fd614259565b818382375f9101908152919050565b604051601f8201601f191681016001600160401b03811182821017156142b7576142b7614200565b604052919050565b5f6001600160401b038211156142d7576142d7614200565b5060051b60200190565b5f602082840312156142f1575f5ffd5b81356001600160401b03811115614306575f5ffd5b8201601f81018413614316575f5ffd5b8035614329614324826142bf565b61428f565b8082825260208201915060208360051b85010192508683111561434a575f5ffd5b6020840193505b82841015613a30578335825260209384019390910190614351565b808201808211156135fd576135fd614259565b5f600160ff1b820161439357614393614259565b505f0390565b634e487b7160e01b5f52603260045260245ffd5b5f61ffff821661ffff81036143c4576143c4614259565b60010192915050565b6020810160028310613ee057613ee0613eb8565b5f82601f8301126143f0575f5ffd5b81516143fe614324826142bf565b8082825260208201915060208360051b86010192508583111561441f575f5ffd5b602085015b8381101561444557805161443781613ee6565b835260209283019201614424565b5095945050505050565b5f6020828403121561445f575f5ffd5b81516001600160401b03811115614474575f5ffd5b613ab9848285016143e1565b5f60ff821660ff81036143c4576143c4614259565b60ff81811683821602908116908181146144b1576144b1614259565b5092915050565b61ffff81811683821601908111156135fd576135fd614259565b5f5f604083850312156144e3575f5ffd5b82516001600160401b038111156144f8575f5ffd5b614504858286016143e1565b602085015190935090506001600160401b03811115614521575f5ffd5b8301601f81018513614531575f5ffd5b805161453f614324826142bf565b8082825260208201915060208360051b850101925087831115614560575f5ffd5b6020840193505b82841015614582578351825260209384019390910190614567565b809450505050509250929050565b6001815b60018411156145cb578085048111156145af576145af614259565b60018416156145bd57908102905b60019390931c928002614594565b935093915050565b5f826145e1575060016135fd565b816145ed57505f6135fd565b8160018114614603576002811461460d57614629565b60019150506135fd565b60ff84111561461e5761461e614259565b50506001821b6135fd565b5060208310610133831016604e8410600b841016171561464c575081810a6135fd565b6146585f198484614590565b805f190482111561466b5761466b614259565b029392505050565b5f6135e160ff8416836145d3565b5f60208284031215614691575f5ffd5b5051919050565b5f602082840312156146a8575f5ffd5b81516135e181613e73565b8381526020810183905260608101600483106146d1576146d1613eb8565b826040830152949350505050565b5f5f604083850312156146f0575f5ffd5b82516001600160401b03811115614705575f5ffd5b614711858286016143e1565b602085015190935090506001600160401b0381111561472e575f5ffd5b8301601f8101851361473e575f5ffd5b805161474c614324826142bf565b8082825260208201915060208360051b85010192508783111561476d575f5ffd5b6020840193505b82841015614582578351614787816141b5565b825260209384019390910190614774565b634e487b7160e01b5f52601260045260245ffd5b60ff82811682821603908111156135fd576135fd614259565b80820281158282048414176135fd576135fd614259565b5f826147f657634e487b7160e01b5f52601260045260245ffd5b500490565b5f83518060208601845e9190910191825250602001919050565b606081525f6148276060830186613f83565b828103602084015261483981866140af565b90508281036040840152613a3081856140af565b92835260208301919091526001600160f81b031916604082015260600190565b828152604081016054831061488457614884613eb8565b8260208301529392505050565b602081525f6135e16020830184613f83565b838152606060208201525f6148bb6060830185613f83565b905063ffffffff60e01b83166040830152949350505050565b5f600182016148e5576148e5614259565b506001019056fea2646970667358221220aec4d52b97c9fa7384374625583551ddd0fb5072650add59751ecb9815e0e55864736f6c634300081c00339e7b61f58c47dc699ac88507c4f5bb9f121c03808c5676a8078fe583e46497019e7b61f58c47dc699ac88507c4f5bb9f121c03808c5676a8078fe583e4649700",
  "linkReferences": {},
  "deployedLinkReferences": {}
}