{
  "_format": "hh-sol-artifact-1",
  "contractName": "InternalStatesOrchestrator",
  "sourceName": "contracts/orchestrators/InternalStatesOrchestrator.sol",
  "abi": [
    {
      "inputs": [
        {
          "internalType": "address",
          "name": "initialOwner",
          "type": "address"
        },
        {
          "internalType": "address",
          "name": "config_",
          "type": "address"
        },
        {
          "internalType": "address",
          "name": "automationRegistry_",
          "type": "address"
        }
      ],
      "stateMutability": "nonpayable",
      "type": "constructor"
    },
    {
      "inputs": [],
      "name": "InvalidArguments",
      "type": "error"
    },
    {
      "inputs": [],
      "name": "NotAuthorized",
      "type": "error"
    },
    {
      "inputs": [
        {
          "internalType": "address",
          "name": "owner",
          "type": "address"
        }
      ],
      "name": "OwnableInvalidOwner",
      "type": "error"
    },
    {
      "inputs": [
        {
          "internalType": "address",
          "name": "account",
          "type": "address"
        }
      ],
      "name": "OwnableUnauthorizedAccount",
      "type": "error"
    },
    {
      "inputs": [],
      "name": "ReentrancyGuardReentrantCall",
      "type": "error"
    },
    {
      "inputs": [],
      "name": "SystemNotIdle",
      "type": "error"
    },
    {
      "inputs": [],
      "name": "TooEarly",
      "type": "error"
    },
    {
      "inputs": [],
      "name": "ZeroAddress",
      "type": "error"
    },
    {
      "anonymous": false,
      "inputs": [
        {
          "indexed": true,
          "internalType": "address",
          "name": "newAutomationRegistry",
          "type": "address"
        }
      ],
      "name": "AutomationRegistryUpdated",
      "type": "event"
    },
    {
      "anonymous": false,
      "inputs": [
        {
          "indexed": false,
          "internalType": "uint16",
          "name": "epochCounter",
          "type": "uint16"
        }
      ],
      "name": "InternalStateProcessed",
      "type": "event"
    },
    {
      "anonymous": false,
      "inputs": [
        {
          "indexed": true,
          "internalType": "address",
          "name": "previousOwner",
          "type": "address"
        },
        {
          "indexed": true,
          "internalType": "address",
          "name": "newOwner",
          "type": "address"
        }
      ],
      "name": "OwnershipTransferred",
      "type": "event"
    },
    {
      "inputs": [],
      "name": "automationRegistry",
      "outputs": [
        {
          "internalType": "address",
          "name": "",
          "type": "address"
        }
      ],
      "stateMutability": "view",
      "type": "function"
    },
    {
      "inputs": [
        {
          "internalType": "bytes",
          "name": "",
          "type": "bytes"
        }
      ],
      "name": "checkUpkeep",
      "outputs": [
        {
          "internalType": "bool",
          "name": "upkeepNeeded",
          "type": "bool"
        },
        {
          "internalType": "bytes",
          "name": "performData",
          "type": "bytes"
        }
      ],
      "stateMutability": "view",
      "type": "function"
    },
    {
      "inputs": [],
      "name": "config",
      "outputs": [
        {
          "internalType": "contract IOrionConfig",
          "name": "",
          "type": "address"
        }
      ],
      "stateMutability": "view",
      "type": "function"
    },
    {
      "inputs": [],
      "name": "currentMinibatchIndex",
      "outputs": [
        {
          "internalType": "uint8",
          "name": "",
          "type": "uint8"
        }
      ],
      "stateMutability": "view",
      "type": "function"
    },
    {
      "inputs": [],
      "name": "currentPhase",
      "outputs": [
        {
          "internalType": "enum IInternalStateOrchestrator.InternalUpkeepPhase",
          "name": "",
          "type": "uint8"
        }
      ],
      "stateMutability": "view",
      "type": "function"
    },
    {
      "inputs": [],
      "name": "encryptedMinibatchSize",
      "outputs": [
        {
          "internalType": "uint8",
          "name": "",
          "type": "uint8"
        }
      ],
      "stateMutability": "view",
      "type": "function"
    },
    {
      "inputs": [
        {
          "internalType": "uint256",
          "name": "",
          "type": "uint256"
        }
      ],
      "name": "encryptedVaultsEpoch",
      "outputs": [
        {
          "internalType": "address",
          "name": "",
          "type": "address"
        }
      ],
      "stateMutability": "view",
      "type": "function"
    },
    {
      "inputs": [],
      "name": "epochCounter",
      "outputs": [
        {
          "internalType": "uint16",
          "name": "",
          "type": "uint16"
        }
      ],
      "stateMutability": "view",
      "type": "function"
    },
    {
      "inputs": [],
      "name": "epochDuration",
      "outputs": [
        {
          "internalType": "uint32",
          "name": "",
          "type": "uint32"
        }
      ],
      "stateMutability": "view",
      "type": "function"
    },
    {
      "inputs": [],
      "name": "getBuyingOrders",
      "outputs": [
        {
          "internalType": "address[]",
          "name": "tokens",
          "type": "address[]"
        },
        {
          "internalType": "uint256[]",
          "name": "amounts",
          "type": "uint256[]"
        }
      ],
      "stateMutability": "view",
      "type": "function"
    },
    {
      "inputs": [],
      "name": "getSellingOrders",
      "outputs": [
        {
          "internalType": "address[]",
          "name": "tokens",
          "type": "address[]"
        },
        {
          "internalType": "uint256[]",
          "name": "amounts",
          "type": "uint256[]"
        }
      ],
      "stateMutability": "view",
      "type": "function"
    },
    {
      "inputs": [],
      "name": "intentFactor",
      "outputs": [
        {
          "internalType": "uint256",
          "name": "",
          "type": "uint256"
        }
      ],
      "stateMutability": "view",
      "type": "function"
    },
    {
      "inputs": [],
      "name": "owner",
      "outputs": [
        {
          "internalType": "address",
          "name": "",
          "type": "address"
        }
      ],
      "stateMutability": "view",
      "type": "function"
    },
    {
      "inputs": [
        {
          "internalType": "bytes",
          "name": "performData",
          "type": "bytes"
        }
      ],
      "name": "performUpkeep",
      "outputs": [],
      "stateMutability": "nonpayable",
      "type": "function"
    },
    {
      "inputs": [],
      "name": "priceAdapterPrecision",
      "outputs": [
        {
          "internalType": "uint256",
          "name": "",
          "type": "uint256"
        }
      ],
      "stateMutability": "view",
      "type": "function"
    },
    {
      "inputs": [],
      "name": "registry",
      "outputs": [
        {
          "internalType": "contract IPriceAdapterRegistry",
          "name": "",
          "type": "address"
        }
      ],
      "stateMutability": "view",
      "type": "function"
    },
    {
      "inputs": [],
      "name": "renounceOwnership",
      "outputs": [],
      "stateMutability": "nonpayable",
      "type": "function"
    },
    {
      "inputs": [
        {
          "internalType": "address",
          "name": "newOwner",
          "type": "address"
        }
      ],
      "name": "transferOwnership",
      "outputs": [],
      "stateMutability": "nonpayable",
      "type": "function"
    },
    {
      "inputs": [],
      "name": "transparentMinibatchSize",
      "outputs": [
        {
          "internalType": "uint8",
          "name": "",
          "type": "uint8"
        }
      ],
      "stateMutability": "view",
      "type": "function"
    },
    {
      "inputs": [
        {
          "internalType": "uint256",
          "name": "",
          "type": "uint256"
        }
      ],
      "name": "transparentVaultsEpoch",
      "outputs": [
        {
          "internalType": "address",
          "name": "",
          "type": "address"
        }
      ],
      "stateMutability": "view",
      "type": "function"
    },
    {
      "inputs": [],
      "name": "underlyingDecimals",
      "outputs": [
        {
          "internalType": "uint8",
          "name": "",
          "type": "uint8"
        }
      ],
      "stateMutability": "view",
      "type": "function"
    },
    {
      "inputs": [
        {
          "internalType": "address",
          "name": "newAutomationRegistry",
          "type": "address"
        }
      ],
      "name": "updateAutomationRegistry",
      "outputs": [],
      "stateMutability": "nonpayable",
      "type": "function"
    },
    {
      "inputs": [
        {
          "internalType": "uint32",
          "name": "newEpochDuration",
          "type": "uint32"
        }
      ],
      "name": "updateEpochDuration",
      "outputs": [],
      "stateMutability": "nonpayable",
      "type": "function"
    },
    {
      "inputs": [
        {
          "internalType": "uint8",
          "name": "_transparentMinibatchSize",
          "type": "uint8"
        },
        {
          "internalType": "uint8",
          "name": "_encryptedMinibatchSize",
          "type": "uint8"
        }
      ],
      "name": "updateMinibatchSizes",
      "outputs": [],
      "stateMutability": "nonpayable",
      "type": "function"
    }
  ],
  "bytecode": "0x608060405234801561000f575f5ffd5b506040516131e83803806131e883398101604081905261002e91610649565b826101836100cd604080516080810182525f808252602082018190529181018290526060810191909152506040805160808101825273687820221192c5b662b25367f70076a37bc79b6c815273848b0066793bcc60346da1f49049357399b8d5956020820152731364cbbf2cdf5032c47d8226a6f6fbd2afcdacac9181019190915273bc91f3dad1a5f19f8390c400196e58073b6a0bc4606082015290565b80515f5160206131a85f395f51905f5280546001600160a01b03199081166001600160a01b039384161790915560208301515f5160206131c85f395f51905f528054831691841691909117905560408301517fed8d60e34876f751cc8b014c560745351147d9de11b9347c854e881b128ea6028054831691841691909117905560608301517fed8d60e34876f751cc8b014c560745351147d9de11b9347c854e881b128ea6038054909216921691909117905550565b7f5ea69329017273582817d320489fbd94f775580e90c092699ca6f3d12fdf7d0080546001600160a01b03191673a02cda4ca3a71d7c46997716f4283aa851c288121790556001600160a01b0381166101f557604051631e4fbdf760e01b81525f600482015260240160405180910390fd5b6101fe81610527565b50600180556001600160a01b03821661022a5760405163d92e233d60e01b815260040160405180910390fd5b6001600160a01b0381166102515760405163d92e233d60e01b815260040160405180910390fd5b600380546001600160a01b0319166001600160a01b0384169081179091556040805163015df99360e01b8152905163015df993916004808201926020929091908290030181865afa1580156102a8573d5f5f3e3d5ffd5b505050506040513d601f19601f820116820180604052508101906102cc9190610693565b600480546001600160a01b0319166001600160a01b039283161781556003546040805163d1717c7d60e01b81529051919093169263d1717c7d92818101926020929091908290030181865afa158015610327573d5f5f3e3d5ffd5b505050506040513d601f19601f8201168201806040525081019061034b91906106b5565b61035690600a6107cc565b60065560035460408051631c56369f60e21b815290516001600160a01b0390921691637158da7c916004808201926020929091908290030181865afa1580156103a1573d5f5f3e3d5ffd5b505050506040513d601f19601f820116820180604052508101906103c59190610693565b6001600160a01b031663313ce5676040518163ffffffff1660e01b8152600401602060405180830381865afa158015610400573d5f5f3e3d5ffd5b505050506040513d601f19601f8201168201806040525081019061042491906106b5565b6007805460ff191660ff929092169190911790556003546040805163567ba71360e01b815290516001600160a01b039092169163567ba713916004808201926020929091908290030181865afa158015610480573d5f5f3e3d5ffd5b505050506040513d601f19601f820116820180604052508101906104a491906106b5565b6104af90600a6107cc565b6005556013805463ffff000019166301010000179055600280546001600160a01b0319166001600160a01b038316179055601180546201518063ffffffff199091161790556104fd42610576565b6012556013805465ffff0000ffff191690556105185f610591565b60145550610834915050565b50565b5f80546001600160a01b038381166001600160a01b0319831681178455604051919092169283917f8be0079c531659141344cd1fd0a4f28419497f9722a3daafe3b4186f6b6457e09190a35050565b6011545f9061058b9063ffffffff16836107da565b92915050565b5f61058b63ffffffff831660045f5160206131c85f395f51905f5254604051639cd07acb60e01b81525f915f5160206131a85f395f51905f52916001600160a01b0390911690639cd07acb906105ed90879087906004016107ed565b6020604051808303815f875af1158015610609573d5f5f3e3d5ffd5b505050506040513d601f19601f8201168201806040525081019061062d919061081d565b949350505050565b6001600160a01b0381168114610524575f5ffd5b5f5f5f6060848603121561065b575f5ffd5b835161066681610635565b602085015190935061067781610635565b604085015190925061068881610635565b809150509250925092565b5f602082840312156106a3575f5ffd5b81516106ae81610635565b9392505050565b5f602082840312156106c5575f5ffd5b815160ff811681146106ae575f5ffd5b634e487b7160e01b5f52601160045260245ffd5b6001815b600184111561072457808504811115610708576107086106d5565b600184161561071657908102905b60019390931c9280026106ed565b935093915050565b5f8261073a5750600161058b565b8161074657505f61058b565b816001811461075c576002811461076657610782565b600191505061058b565b60ff841115610777576107776106d5565b50506001821b61058b565b5060208310610133831016604e8410600b84101617156107a5575081810a61058b565b6107b15f1984846106e9565b805f19048211156107c4576107c46106d5565b029392505050565b5f6106ae60ff84168361072c565b8082018082111561058b5761058b6106d5565b828152604081016054831061081057634e487b7160e01b5f52602160045260245ffd5b8260208301529392505050565b5f6020828403121561082d575f5ffd5b5051919050565b612967806108415f395ff3fe608060405234801561000f575f5ffd5b5060043610610125575f3560e01c8062bb07bb14610129578063055ad42e1461013e57806308af604d1461016857806314b19c5a1461018d57806314b5d07f146101ae57806325a760c2146101c1578063289a2f76146101ce5780632b0088b4146101ee57806336021ef4146102055780634585e33b146102195780634ff0876a1461022c5780635488cd621461025157806358fac65b146102655780635dc228a0146102785780636e04ff0d1461028b578063715018a6146102ac57806379502c55146102b45780637b103999146102c75780638da5cb5b146102da578063a08b82d7146102e2578063c2cb5d88146102f8578063ca1f32f114610300578063eeb393c914610309578063f2fde38b1461031c575b5f5ffd5b61013c610137366004612119565b61032f565b005b60135461015290600160201b900460ff1681565b60405161015f9190612174565b60405180910390f35b60135461017b9062010000900460ff1681565b60405160ff909116815260200161015f565b60135461019b9061ffff1681565b60405161ffff909116815260200161015f565b61013c6101bc36600461219b565b610429565b60075461017b9060ff1681565b6101e16101dc3660046121b6565b610532565b60405161015f91906121cd565b6101f760065481565b60405190815260200161015f565b60135461017b906301000000900460ff1681565b61013c6102273660046121e1565b61055a565b60115461023c9063ffffffff1681565b60405163ffffffff909116815260200161015f565b60135461017b90600160281b900460ff1681565b6101e16102733660046121b6565b610853565b6002546101e1906001600160a01b031681565b61029e6102993660046121e1565b610862565b60405161015f92919061224d565b61013c610a81565b6003546101e1906001600160a01b031681565b6004546101e1906001600160a01b031681565b6101e1610a94565b6102ea610aa2565b60405161015f92919061228b565b6102ea610cda565b6101f760055481565b61013c610317366004612325565b610f09565b61013c61032a36600461219b565b610fe4565b61033761102a565b60ff82161580610348575060ff8116155b15610366576040516317dbc4cb60e21b815260040160405180910390fd5b60035f9054906101000a90046001600160a01b03166001600160a01b031663edcf9c1f6040518163ffffffff1660e01b8152600401602060405180830381865afa1580156103b6573d5f5f3e3d5ffd5b505050506040513d601f19601f820116820180604052508101906103da9190612340565b6103f7576040516312aecd8160e01b815260040160405180910390fd5b6013805463ffff000019166201000060ff9485160263ff00000019161763010000009290931691909102919091179055565b61043161102a565b6001600160a01b0381166104585760405163d92e233d60e01b815260040160405180910390fd5b60035f9054906101000a90046001600160a01b03166001600160a01b031663edcf9c1f6040518163ffffffff1660e01b8152600401602060405180830381865afa1580156104a8573d5f5f3e3d5ffd5b505050506040513d601f19601f820116820180604052508101906104cc9190612340565b6104e9576040516312aecd8160e01b815260040160405180910390fd5b600280546001600160a01b0319166001600160a01b0383169081179091556040517f6cc7ebdb6c8c53291c5ae16148cab9b049d23bf5bde5632900b40edff56fcb43905f90a250565b60168181548110610541575f80fd5b5f918252602090912001546001600160a01b0316905081565b6002546001600160a01b031633146105855760405163ea8e4eb560e01b815260040160405180910390fd5b61058d61105c565b60048110156105af576040516317dbc4cb60e21b815260040160405180910390fd5b5f6105bd600482848661235f565b6105c691612386565b90506341659aab60e01b6001600160e01b0319821601610715576105e8611086565b6105f06110b7565b600354604051631da09e4360e31b81526001600160a01b039091169063ed04f21890610620905f906004016123be565b5f60405180830381865afa15801561063a573d5f5f3e3d5ffd5b505050506040513d5f823e601f3d908101601f1916820160405261066191908101906124ab565b80516106759160159160209091019061207d565b50600354604051631da09e4360e31b81526001600160a01b039091169063ed04f218906106a7906001906004016123be565b5f60405180830381865afa1580156106c1573d5f5f3e3d5ffd5b505050506040513d5f823e601f3d908101601f191682016040526106e891908101906124ab565b80516106fc9160169160209091019061207d565b506013805460ff60201b1916600160201b179055610845565b63019918a560e51b6001600160e01b0319821601610759575f61073b836004818761235f565b81019061074891906124e4565b9050610753816111db565b50610845565b6314897e2360e11b6001600160e01b0319821601610797575f61077f836004818761235f565b81019061078c91906124e4565b905061075381611901565b6350c9887560e01b6001600160e01b031982160161082c576107b7611cb1565b6013805460ff60201b198116825561ffff16905f6107d483612513565b82546101009290920a61ffff818102199093169183160217909155601354604051911681527f0bc12479581640d161e016cef21aa834cb6d6326bbc0d8445e58d56403adf2dc915060200160405180910390a1610845565b6040516317dbc4cb60e21b815260040160405180910390fd5b5061084f60018055565b5050565b60158181548110610541575f80fd5b5f606060035f9054906101000a90046001600160a01b03166001600160a01b031663edcf9c1f6040518163ffffffff1660e01b8152600401602060405180830381865afa1580156108b5573d5f5f3e3d5ffd5b505050506040513d601f19601f820116820180604052508101906108d99190612340565b80156108e757506012544210155b1561093757600191507fbe9a655586dceb82dfa0af992b5d8ae7fa45053cb7fd6f141f541da7572978c76040516020016109219190612533565b6040516020818303038152906040529050610a7a565b6001601354600160201b900460ff16600381111561095757610957612150565b036109a257600191507fccdceb60d34ec82e2b625c80d044e07bc5264e5a5f17ab57ea62c77ee8c3d797601360059054906101000a900460ff16604051602001610921929190612548565b6002601354600160201b900460ff1660038111156109c2576109c2612150565b03610a0d57600191507fd6ed03ba70bef77e7dcdbaa2d7d9bcd9a4dd463c2c6bcd5b016869e952bdaddb601360059054906101000a900460ff16604051602001610921929190612548565b6003601354600160201b900460ff166003811115610a2d57610a2d612150565b03610a6757600191507faf36778b2d01c6b9ccbf0ff82e33823de0a4811632929c60c03041666deffc9b6040516020016109219190612533565b505060408051602081019091525f808252905b9250929050565b610a8961102a565b610a925f611e15565b565b5f546001600160a01b031690565b600d80546040805160208084028201810190925282815260609384935f93830182828015610af757602002820191905f5260205f20905b81546001600160a01b03168152600190910190602001808311610ad9575b505083519394505f9250829150505b8261ffff168161ffff161015610b77575f60086004015f868461ffff1681518110610b3357610b3361256f565b60200260200101516001600160a01b03166001600160a01b031681526020019081526020015f20541115610b6f5781610b6b81612513565b9250505b600101610b06565b508061ffff166001600160401b03811115610b9457610b946123d2565b604051908082528060200260200182016040528015610bbd578160200160208202803683370190505b5094508061ffff166001600160401b03811115610bdc57610bdc6123d2565b604051908082528060200260200182016040528015610c05578160200160208202803683370190505b5093505f805b8361ffff168161ffff161015610cd1575f858261ffff1681518110610c3257610c3261256f565b6020908102919091018101516001600160a01b0381165f908152600c9092526040909120549091508015610cc75781898561ffff1681518110610c7757610c7761256f565b60200260200101906001600160a01b031690816001600160a01b03168152505080888561ffff1681518110610cae57610cae61256f565b602090810291909101015283610cc381612513565b9450505b5050600101610c0b565b50505050509091565b600d80546040805160208084028201810190925282815260609384935f93830182828015610d2f57602002820191905f5260205f20905b81546001600160a01b03168152600190910190602001808311610d11575b505083519394505f9250829150505b8261ffff168161ffff161015610daf575f60086003015f868461ffff1681518110610d6b57610d6b61256f565b60200260200101516001600160a01b03166001600160a01b031681526020019081526020015f20541115610da75781610da381612513565b9250505b600101610d3e565b508061ffff166001600160401b03811115610dcc57610dcc6123d2565b604051908082528060200260200182016040528015610df5578160200160208202803683370190505b5094508061ffff166001600160401b03811115610e1457610e146123d2565b604051908082528060200260200182016040528015610e3d578160200160208202803683370190505b5093505f805b8361ffff168161ffff161015610cd1575f858261ffff1681518110610e6a57610e6a61256f565b6020908102919091018101516001600160a01b0381165f908152600b9092526040909120549091508015610eff5781898561ffff1681518110610eaf57610eaf61256f565b60200260200101906001600160a01b031690816001600160a01b03168152505080888561ffff1681518110610ee657610ee661256f565b602090810291909101015283610efb81612513565b9450505b5050600101610e43565b610f1161102a565b8063ffffffff165f03610f37576040516317dbc4cb60e21b815260040160405180910390fd5b60035f9054906101000a90046001600160a01b03166001600160a01b031663edcf9c1f6040518163ffffffff1660e01b8152600401602060405180830381865afa158015610f87573d5f5f3e3d5ffd5b505050506040513d601f19601f82011682018060405250810190610fab9190612340565b610fc8576040516312aecd8160e01b815260040160405180910390fd5b6011805463ffffffff191663ffffffff92909216919091179055565b610fec61102a565b6001600160a01b03811661101e575f604051631e4fbdf760e01b815260040161101591906121cd565b60405180910390fd5b61102781611e15565b50565b33611033610a94565b6001600160a01b031614610a92573360405163118cdaa760e01b815260040161101591906121cd565b60026001540361107f57604051633ee5aeb560e01b815260040160405180910390fd5b6002600155565b6012544210156110a95760405163085de62560e01b815260040160405180910390fd5b6110b242611e64565b601255565b5f600860050180548060200260200160405190810160405280929190818152602001828054801561110f57602002820191905f5260205f20905b81546001600160a01b031681526001909101906020018083116110f1575b505083519394505f925050505b8161ffff168161ffff1610156111b9575f838261ffff16815181106111435761114361256f565b6020908102919091018101516001600160a01b03165f90815260088252604080822082905560098352808220829055600a8352808220829055600b8352808220829055600c8352808220829055600e8352808220805460ff19908116909155600f9093529020805490911690555060010161111c565b506111c5600d5f6120e0565b6111d060155f6120e0565b61084f60165f6120e0565b60138054600160281b900460ff169060056111f583612583565b91906101000a81548160ff021916908360ff160217905550505f601360029054906101000a900460ff168261122a9190612598565b60135460ff91821692505f916112479162010000900416836125b4565b60155490915061ffff8216111561127157506015546013805461ffff60201b1916600160211b1790555b815b8161ffff168161ffff1610156118fb575f60158261ffff168154811061129b5761129b61256f565b905f5260205f20015f9054906101000a90046001600160a01b031690505f5f826001600160a01b031663d3d034586040518163ffffffff1660e01b81526004015f60405180830381865afa1580156112f5573d5f5f3e3d5ffd5b505050506040513d5f823e601f3d908101601f1916820160405261131c91908101906125ce565b90925090505f805b83518161ffff161015611605575f848261ffff16815181106113485761134861256f565b6020908102919091018101516001600160a01b0381165f908152600f909252604082205490925060ff16900361140257806001600160a01b031663313ce5676040518163ffffffff1660e01b8152600401602060405180830381865afa1580156113b4573d5f5f3e3d5ffd5b505050506040513d601f19601f820116820180604052508101906113d8919061268c565b6001600160a01b0382165f908152600f60205260409020805460ff191660ff929092169190911790555b6001600160a01b0381165f908152600f6020908152604080832054600890925282205460ff909116918190036115625760035f9054906101000a90046001600160a01b03166001600160a01b0316637158da7c6040518163ffffffff1660e01b8152600401602060405180830381865afa158015611482573d5f5f3e3d5ffd5b505050506040513d601f19601f820116820180604052508101906114a691906126a7565b6001600160a01b0316836001600160a01b0316036114d6576007546114cf9060ff16600a6127a5565b9050611547565b600480546040516341976e0960e01b81526001600160a01b03909116916341976e0991611505918791016121cd565b602060405180830381865afa158015611520573d5f5f3e3d5ffd5b505050506040513d601f19601f8201168201806040525081019061154491906127b3565b90505b6001600160a01b0383165f9081526008602052604090208190555b5f6115a761159a888761ffff168151811061157f5761157f61256f565b602002602001015160055485611e7f9092919063ffffffff16565b600754859060ff16611f30565b90506115b381876127ca565b6001600160a01b0385165f908152600960205260408120805492985083929091906115df9084906127ca565b909155506115ee905084611f9a565b5050505080806115fd90612513565b915050611324565b505f846001600160a01b031663a68a5267866001600160a01b031663c37fc8a86040518163ffffffff1660e01b8152600401602060405180830381865afa158015611652573d5f5f3e3d5ffd5b505050506040513d601f19601f8201168201806040525081019061167691906127b3565b845f6040518463ffffffff1660e01b8152600401611696939291906127dd565b602060405180830381865afa1580156116b1573d5f5f3e3d5ffd5b505050506040513d601f19601f820116820180604052508101906116d591906127b3565b60405163728d42fb60e11b8152600481018490529091505f906001600160a01b0387169063e51a85f690602401602060405180830381865afa15801561171d573d5f5f3e3d5ffd5b505050506040513d601f19601f8201168201806040525081019061174191906127b3565b82876001600160a01b031663d1699c266040518163ffffffff1660e01b8152600401602060405180830381865afa15801561177e573d5f5f3e3d5ffd5b505050506040513d601f19601f820116820180604052508101906117a291906127b3565b6117ac90866127ca565b6117b69190612802565b6117c09190612802565b90505f5f876001600160a01b031663b6eba6536040518163ffffffff1660e01b81526004015f60405180830381865afa1580156117ff573d5f5f3e3d5ffd5b505050506040513d5f823e601f3d908101601f191682016040526118269190810190612815565b815191935091505f5b8161ffff168161ffff1610156118e5575f848261ffff16815181106118565761185661256f565b602002602001015190505f848361ffff16815181106118775761187761256f565b602002602001015190505f61189f8263ffffffff166006548a611e7f9092919063ffffffff16565b6001600160a01b0384165f908152600a60205260408120805492935083929091906118cb9084906127ca565b909155506118da905083611f9a565b50505060010161182f565b5050600190980197506112739650505050505050565b50505050565b61190961105c565b60138054600160281b900460ff1690600561192383612583565b91906101000a81548160ff021916908360ff160217905550505f601360039054906101000a900460ff16826119589190612598565b60135460ff91821692505f91611976916301000000900416836125b4565b60165490915061ffff821611156119a057506016546013805461ffff60201b1916600360201b1790555b815b8161ffff168161ffff161015611ca5575f60168261ffff16815481106119ca576119ca61256f565b905f5260205f20015f9054906101000a90046001600160a01b031690505f5f826001600160a01b031663d3d034586040518163ffffffff1660e01b81526004015f60405180830381865afa158015611a24573d5f5f3e3d5ffd5b505050506040513d5f823e601f3d908101601f19168201604052611a4b91908101906125ce565b90925090505f5b82518161ffff161015611c95575f838261ffff1681518110611a7657611a7661256f565b6020908102919091018101516001600160a01b0381165f908152600f909252604082205490925060ff169003611b3057806001600160a01b031663313ce5676040518163ffffffff1660e01b8152600401602060405180830381865afa158015611ae2573d5f5f3e3d5ffd5b505050506040513d601f19601f82011682018060405250810190611b06919061268c565b6001600160a01b0382165f908152600f60205260409020805460ff191660ff929092169190911790555b6001600160a01b0381165f9081526008602052604081205490819003611c805760035f9054906101000a90046001600160a01b03166001600160a01b0316637158da7c6040518163ffffffff1660e01b8152600401602060405180830381865afa158015611ba0573d5f5f3e3d5ffd5b505050506040513d601f19601f82011682018060405250810190611bc491906126a7565b6001600160a01b0316826001600160a01b031603611bf457600754611bed9060ff16600a6127a5565b9050611c65565b600480546040516341976e0960e01b81526001600160a01b03909116916341976e0991611c23918691016121cd565b602060405180830381865afa158015611c3e573d5f5f3e3d5ffd5b505050506040513d601f19601f82011682018060405250810190611c6291906127b3565b90505b6001600160a01b0382165f9081526008602052604090208190555b50508080611c8d90612513565b915050611a52565b5050600190920191506119a29050565b50505061102760018055565b5f6008600501805480602002602001604051908101604052809291908181526020018280548015611d0957602002820191905f5260205f20905b81546001600160a01b03168152600190910190602001808311611ceb575b505083519394505f925050505b8161ffff168161ffff161015611e10575f838261ffff1681518110611d3d57611d3d61256f565b6020908102919091018101516001600160a01b0381165f90815260098352604080822054600a855281832054600f909552912054919350919060ff1681831115611dd3575f611d8c8385612802565b6001600160a01b0386165f9081526008602052604081205491925090611db390838561201f565b6001600160a01b0387165f908152600b602052604090205550611e009050565b82821115611e00575f611de68484612802565b6001600160a01b0386165f908152600c6020526040902055505b505060019092019150611d169050565b505050565b5f80546001600160a01b038381166001600160a01b0319831681178455604051919092169283917f8be0079c531659141344cd1fd0a4f28419497f9722a3daafe3b4186f6b6457e09190a35050565b6011545f90611e799063ffffffff16836127ca565b92915050565b5f5f5f611e8c8686612050565b91509150815f03611eb057838181611ea657611ea66128ce565b0492505050611f29565b818411611ec757611ec7600385150260111861206c565b5f848688095f868103871696879004966002600389028118808a02820302808a02820302808a02820302808a02820302808a02820302808a02909103029181900381900460010185841190960395909502919093039390930492909217029150505b9392505050565b5f8260ff168260ff161115611f6557611f4983836128e2565b611f5490600a6127a5565b611f5e90856128fb565b9050611f29565b8260ff168260ff161015611f9257611f7d82846128e2565b611f8890600a6127a5565b611f5e9085612912565b509192915050565b6001600160a01b0381165f908152600e602052604090205460ff1661102757600d805460018181019092557fd7b6990105719101dabeb77144f2a3385c8033acd3af97e9423a695e81ad1eb50180546001600160a01b0384166001600160a01b031990911681179091555f908152600e60205260409020805460ff1916909117905550565b6007545f90819061203590859060ff1685611f30565b60055490915061204790829087611e7f565b95945050505050565b5f805f1983850993909202808410938190039390930393915050565b634e487b715f52806020526024601cfd5b828054828255905f5260205f209081019282156120d0579160200282015b828111156120d057825182546001600160a01b0319166001600160a01b0390911617825560209092019160019091019061209b565b506120dc9291506120f7565b5090565b5080545f8255905f5260205f209081019061102791905b5b808211156120dc575f81556001016120f8565b60ff81168114611027575f5ffd5b5f5f6040838503121561212a575f5ffd5b82356121358161210b565b915060208301356121458161210b565b809150509250929050565b634e487b7160e01b5f52602160045260245ffd5b6004811061102757611027612150565b6020810161218183612164565b91905290565b6001600160a01b0381168114611027575f5ffd5b5f602082840312156121ab575f5ffd5b8135611f2981612187565b5f602082840312156121c6575f5ffd5b5035919050565b6001600160a01b0391909116815260200190565b5f5f602083850312156121f2575f5ffd5b82356001600160401b03811115612207575f5ffd5b8301601f81018513612217575f5ffd5b80356001600160401b0381111561222c575f5ffd5b85602082840101111561223d575f5ffd5b6020919091019590945092505050565b8215158152604060208201525f82518060408401528060208501606085015e5f606082850101526060601f19601f8301168401019150509392505050565b604080825283519082018190525f9060208501906060840190835b818110156122cd5783516001600160a01b03168352602093840193909201916001016122a6565b5050838103602080860191909152855180835291810192508501905f5b818110156123085782518452602093840193909201916001016122ea565b50919695505050505050565b63ffffffff81168114611027575f5ffd5b5f60208284031215612335575f5ffd5b8135611f2981612314565b5f60208284031215612350575f5ffd5b81518015158114611f29575f5ffd5b5f5f8585111561236d575f5ffd5b83861115612379575f5ffd5b5050820193919092039150565b80356001600160e01b031981169060048410156123b7576001600160e01b0319600485900360031b81901b82161691505b5092915050565b602081016002831061218157612181612150565b634e487b7160e01b5f52604160045260245ffd5b604051601f8201601f191681016001600160401b038111828210171561240e5761240e6123d2565b604052919050565b5f6001600160401b0382111561242e5761242e6123d2565b5060051b60200190565b5f82601f830112612447575f5ffd5b815161245a61245582612416565b6123e6565b8082825260208201915060208360051b86010192508583111561247b575f5ffd5b602085015b838110156124a157805161249381612187565b835260209283019201612480565b5095945050505050565b5f602082840312156124bb575f5ffd5b81516001600160401b038111156124d0575f5ffd5b6124dc84828501612438565b949350505050565b5f602082840312156124f4575f5ffd5b8135611f298161210b565b634e487b7160e01b5f52601160045260245ffd5b5f61ffff821661ffff810361252a5761252a6124ff565b60010192915050565b6001600160e01b031991909116815260040190565b6001600160e01b031992909216825260f81b6001600160f81b031916600482015260050190565b634e487b7160e01b5f52603260045260245ffd5b5f60ff821660ff810361252a5761252a6124ff565b60ff81811683821602908116908181146123b7576123b76124ff565b61ffff8181168382160190811115611e7957611e796124ff565b5f5f604083850312156125df575f5ffd5b82516001600160401b038111156125f4575f5ffd5b61260085828601612438565b602085015190935090506001600160401b0381111561261d575f5ffd5b8301601f8101851361262d575f5ffd5b805161263b61245582612416565b8082825260208201915060208360051b85010192508783111561265c575f5ffd5b6020840193505b8284101561267e578351825260209384019390910190612663565b809450505050509250929050565b5f6020828403121561269c575f5ffd5b8151611f298161210b565b5f602082840312156126b7575f5ffd5b8151611f2981612187565b6001815b60018411156126fd578085048111156126e1576126e16124ff565b60018416156126ef57908102905b60019390931c9280026126c6565b935093915050565b5f8261271357506001611e79565b8161271f57505f611e79565b8160018114612735576002811461273f5761275b565b6001915050611e79565b60ff841115612750576127506124ff565b50506001821b611e79565b5060208310610133831016604e8410600b841016171561277e575081810a611e79565b61278a5f1984846126c2565b805f190482111561279d5761279d6124ff565b029392505050565b5f611f2960ff841683612705565b5f602082840312156127c3575f5ffd5b5051919050565b80820180821115611e7957611e796124ff565b83815260208101839052606081016127f483612164565b826040830152949350505050565b81810381811115611e7957611e796124ff565b5f5f60408385031215612826575f5ffd5b82516001600160401b0381111561283b575f5ffd5b61284785828601612438565b602085015190935090506001600160401b03811115612864575f5ffd5b8301601f81018513612874575f5ffd5b805161288261245582612416565b8082825260208201915060208360051b8501019250878311156128a3575f5ffd5b6020840193505b8284101561267e5783516128bd81612314565b8252602093840193909101906128aa565b634e487b7160e01b5f52601260045260245ffd5b60ff8281168282160390811115611e7957611e796124ff565b8082028115828204841417611e7957611e796124ff565b5f8261292c57634e487b7160e01b5f52601260045260245ffd5b50049056fea2646970667358221220e13b1b54c61b9d14333072d5e7b0e5733a3293d65b4353f543da9327b15d51ba64736f6c634300081c0033ed8d60e34876f751cc8b014c560745351147d9de11b9347c854e881b128ea600ed8d60e34876f751cc8b014c560745351147d9de11b9347c854e881b128ea601",
  "linkReferences": {},
  "deployedLinkReferences": {}
}