{
  "_format": "hh-sol-artifact-1",
  "contractName": "InternalStatesOrchestrator",
  "sourceName": "contracts/orchestrators/InternalStatesOrchestrator.sol",
  "abi": [
    {
      "inputs": [
        {
          "internalType": "address",
          "name": "target",
          "type": "address"
        }
      ],
      "name": "AddressEmptyCode",
      "type": "error"
    },
    {
      "inputs": [
        {
          "internalType": "address",
          "name": "implementation",
          "type": "address"
        }
      ],
      "name": "ERC1967InvalidImplementation",
      "type": "error"
    },
    {
      "inputs": [],
      "name": "ERC1967NonPayable",
      "type": "error"
    },
    {
      "inputs": [],
      "name": "FailedCall",
      "type": "error"
    },
    {
      "inputs": [],
      "name": "InvalidArguments",
      "type": "error"
    },
    {
      "inputs": [],
      "name": "InvalidInitialization",
      "type": "error"
    },
    {
      "inputs": [],
      "name": "NotAuthorized",
      "type": "error"
    },
    {
      "inputs": [],
      "name": "NotInitializing",
      "type": "error"
    },
    {
      "inputs": [
        {
          "internalType": "address",
          "name": "owner",
          "type": "address"
        }
      ],
      "name": "OwnableInvalidOwner",
      "type": "error"
    },
    {
      "inputs": [
        {
          "internalType": "address",
          "name": "account",
          "type": "address"
        }
      ],
      "name": "OwnableUnauthorizedAccount",
      "type": "error"
    },
    {
      "inputs": [],
      "name": "ReentrancyGuardReentrantCall",
      "type": "error"
    },
    {
      "inputs": [],
      "name": "SystemNotIdle",
      "type": "error"
    },
    {
      "inputs": [],
      "name": "TooEarly",
      "type": "error"
    },
    {
      "inputs": [],
      "name": "UUPSUnauthorizedCallContext",
      "type": "error"
    },
    {
      "inputs": [
        {
          "internalType": "bytes32",
          "name": "slot",
          "type": "bytes32"
        }
      ],
      "name": "UUPSUnsupportedProxiableUUID",
      "type": "error"
    },
    {
      "inputs": [],
      "name": "ZeroAddress",
      "type": "error"
    },
    {
      "anonymous": false,
      "inputs": [
        {
          "indexed": true,
          "internalType": "address",
          "name": "newAutomationRegistry",
          "type": "address"
        }
      ],
      "name": "AutomationRegistryUpdated",
      "type": "event"
    },
    {
      "anonymous": false,
      "inputs": [
        {
          "indexed": false,
          "internalType": "uint64",
          "name": "version",
          "type": "uint64"
        }
      ],
      "name": "Initialized",
      "type": "event"
    },
    {
      "anonymous": false,
      "inputs": [
        {
          "indexed": false,
          "internalType": "uint256",
          "name": "epochCounter",
          "type": "uint256"
        }
      ],
      "name": "InternalStateProcessed",
      "type": "event"
    },
    {
      "anonymous": false,
      "inputs": [
        {
          "indexed": true,
          "internalType": "address",
          "name": "previousOwner",
          "type": "address"
        },
        {
          "indexed": true,
          "internalType": "address",
          "name": "newOwner",
          "type": "address"
        }
      ],
      "name": "OwnershipTransferStarted",
      "type": "event"
    },
    {
      "anonymous": false,
      "inputs": [
        {
          "indexed": true,
          "internalType": "address",
          "name": "previousOwner",
          "type": "address"
        },
        {
          "indexed": true,
          "internalType": "address",
          "name": "newOwner",
          "type": "address"
        }
      ],
      "name": "OwnershipTransferred",
      "type": "event"
    },
    {
      "anonymous": false,
      "inputs": [
        {
          "indexed": true,
          "internalType": "address",
          "name": "implementation",
          "type": "address"
        }
      ],
      "name": "Upgraded",
      "type": "event"
    },
    {
      "inputs": [],
      "name": "UPGRADE_INTERFACE_VERSION",
      "outputs": [
        {
          "internalType": "string",
          "name": "",
          "type": "string"
        }
      ],
      "stateMutability": "view",
      "type": "function"
    },
    {
      "inputs": [],
      "name": "acceptOwnership",
      "outputs": [],
      "stateMutability": "nonpayable",
      "type": "function"
    },
    {
      "inputs": [],
      "name": "automationRegistry",
      "outputs": [
        {
          "internalType": "address",
          "name": "",
          "type": "address"
        }
      ],
      "stateMutability": "view",
      "type": "function"
    },
    {
      "inputs": [
        {
          "internalType": "bytes",
          "name": "",
          "type": "bytes"
        }
      ],
      "name": "checkUpkeep",
      "outputs": [
        {
          "internalType": "bool",
          "name": "upkeepNeeded",
          "type": "bool"
        },
        {
          "internalType": "bytes",
          "name": "performData",
          "type": "bytes"
        }
      ],
      "stateMutability": "view",
      "type": "function"
    },
    {
      "inputs": [],
      "name": "config",
      "outputs": [
        {
          "internalType": "contract IOrionConfig",
          "name": "",
          "type": "address"
        }
      ],
      "stateMutability": "view",
      "type": "function"
    },
    {
      "inputs": [],
      "name": "currentPhase",
      "outputs": [
        {
          "internalType": "enum IInternalStateOrchestrator.InternalUpkeepPhase",
          "name": "",
          "type": "uint8"
        }
      ],
      "stateMutability": "view",
      "type": "function"
    },
    {
      "inputs": [],
      "name": "currentVaultIndex",
      "outputs": [
        {
          "internalType": "uint256",
          "name": "",
          "type": "uint256"
        }
      ],
      "stateMutability": "view",
      "type": "function"
    },
    {
      "inputs": [],
      "name": "epochCounter",
      "outputs": [
        {
          "internalType": "uint256",
          "name": "",
          "type": "uint256"
        }
      ],
      "stateMutability": "view",
      "type": "function"
    },
    {
      "inputs": [],
      "name": "expectedUnderlyingBuyAmount",
      "outputs": [
        {
          "internalType": "uint256",
          "name": "",
          "type": "uint256"
        }
      ],
      "stateMutability": "view",
      "type": "function"
    },
    {
      "inputs": [],
      "name": "expectedUnderlyingSellAmount",
      "outputs": [
        {
          "internalType": "uint256",
          "name": "",
          "type": "uint256"
        }
      ],
      "stateMutability": "view",
      "type": "function"
    },
    {
      "inputs": [],
      "name": "getBuyingOrders",
      "outputs": [
        {
          "internalType": "address[]",
          "name": "tokens",
          "type": "address[]"
        },
        {
          "internalType": "uint256[]",
          "name": "amounts",
          "type": "uint256[]"
        }
      ],
      "stateMutability": "view",
      "type": "function"
    },
    {
      "inputs": [],
      "name": "getSellingOrders",
      "outputs": [
        {
          "internalType": "address[]",
          "name": "tokens",
          "type": "address[]"
        },
        {
          "internalType": "uint256[]",
          "name": "amounts",
          "type": "uint256[]"
        }
      ],
      "stateMutability": "view",
      "type": "function"
    },
    {
      "inputs": [
        {
          "internalType": "address",
          "name": "initialOwner",
          "type": "address"
        },
        {
          "internalType": "address",
          "name": "automationRegistry_",
          "type": "address"
        },
        {
          "internalType": "address",
          "name": "config_",
          "type": "address"
        }
      ],
      "name": "initialize",
      "outputs": [],
      "stateMutability": "nonpayable",
      "type": "function"
    },
    {
      "inputs": [],
      "name": "intentFactor",
      "outputs": [
        {
          "internalType": "uint256",
          "name": "",
          "type": "uint256"
        }
      ],
      "stateMutability": "view",
      "type": "function"
    },
    {
      "inputs": [],
      "name": "owner",
      "outputs": [
        {
          "internalType": "address",
          "name": "",
          "type": "address"
        }
      ],
      "stateMutability": "view",
      "type": "function"
    },
    {
      "inputs": [],
      "name": "pendingOwner",
      "outputs": [
        {
          "internalType": "address",
          "name": "",
          "type": "address"
        }
      ],
      "stateMutability": "view",
      "type": "function"
    },
    {
      "inputs": [
        {
          "internalType": "bytes",
          "name": "performData",
          "type": "bytes"
        }
      ],
      "name": "performUpkeep",
      "outputs": [],
      "stateMutability": "nonpayable",
      "type": "function"
    },
    {
      "inputs": [],
      "name": "proxiableUUID",
      "outputs": [
        {
          "internalType": "bytes32",
          "name": "",
          "type": "bytes32"
        }
      ],
      "stateMutability": "view",
      "type": "function"
    },
    {
      "inputs": [],
      "name": "registry",
      "outputs": [
        {
          "internalType": "contract IPriceAdapterRegistry",
          "name": "",
          "type": "address"
        }
      ],
      "stateMutability": "view",
      "type": "function"
    },
    {
      "inputs": [],
      "name": "renounceOwnership",
      "outputs": [],
      "stateMutability": "nonpayable",
      "type": "function"
    },
    {
      "inputs": [
        {
          "internalType": "address",
          "name": "newOwner",
          "type": "address"
        }
      ],
      "name": "transferOwnership",
      "outputs": [],
      "stateMutability": "nonpayable",
      "type": "function"
    },
    {
      "inputs": [
        {
          "internalType": "uint256",
          "name": "",
          "type": "uint256"
        }
      ],
      "name": "transparentVaultsEpoch",
      "outputs": [
        {
          "internalType": "address",
          "name": "",
          "type": "address"
        }
      ],
      "stateMutability": "view",
      "type": "function"
    },
    {
      "inputs": [],
      "name": "underlyingDecimals",
      "outputs": [
        {
          "internalType": "uint8",
          "name": "",
          "type": "uint8"
        }
      ],
      "stateMutability": "view",
      "type": "function"
    },
    {
      "inputs": [
        {
          "internalType": "address",
          "name": "newAutomationRegistry",
          "type": "address"
        }
      ],
      "name": "updateAutomationRegistry",
      "outputs": [],
      "stateMutability": "nonpayable",
      "type": "function"
    },
    {
      "inputs": [
        {
          "internalType": "address",
          "name": "newConfig",
          "type": "address"
        }
      ],
      "name": "updateConfig",
      "outputs": [],
      "stateMutability": "nonpayable",
      "type": "function"
    },
    {
      "inputs": [],
      "name": "updateInterval",
      "outputs": [
        {
          "internalType": "uint256",
          "name": "",
          "type": "uint256"
        }
      ],
      "stateMutability": "view",
      "type": "function"
    },
    {
      "inputs": [
        {
          "internalType": "uint256",
          "name": "newUpdateInterval",
          "type": "uint256"
        }
      ],
      "name": "updateUpdateInterval",
      "outputs": [],
      "stateMutability": "nonpayable",
      "type": "function"
    },
    {
      "inputs": [
        {
          "internalType": "address",
          "name": "newImplementation",
          "type": "address"
        },
        {
          "internalType": "bytes",
          "name": "data",
          "type": "bytes"
        }
      ],
      "name": "upgradeToAndCall",
      "outputs": [],
      "stateMutability": "payable",
      "type": "function"
    }
  ],
  "bytecode": "0x60a0604052306080523480156012575f5ffd5b506080516130c76100395f395f818161203f0152818161206801526121a701526130c75ff3fe6080604052600436106101af575f3560e01c80636e04ff0d116100e7578063a08b82d711610087578063c2cb5d8811610062578063c2cb5d88146104a3578063e30c3978146104b7578063f2fde38b146104cb578063fd2c80ae146104ea575f5ffd5b8063a08b82d714610425578063ad3cb1cc14610447578063c0c53b8b14610484575f5ffd5b806379ba5097116100c257806379ba5097146103c95780637b103999146103dd5780638da5cb5b146103fc578063998b174114610410575f5ffd5b80636e04ff0d14610369578063715018a61461039657806379502c55146103aa575f5ffd5b80634585e33b1161015257806352d1902d1161012d57806352d1902d146102e157806358fac65b146102f55780635dc228a01461032c5780636cc919c81461034a575f5ffd5b80634585e33b1461029a5780634a1d9625146102b95780634f1ef286146102ce575f5ffd5b806314b19c5a1161018d57806314b19c5a1461022657806314b5d07f1461023b57806325a760c21461025a5780632b0088b414610285575f5ffd5b8063055ad42e146101b357806306cce848146101e257806310c3b26f14610205575b5f5ffd5b3480156101be575f5ffd5b506013546101cc9060ff1681565b6040516101d9919061290d565b60405180910390f35b3480156101ed575f5ffd5b506101f7600e5481565b6040519081526020016101d9565b348015610210575f5ffd5b5061022461021f366004612920565b6104ff565b005b348015610231575f5ffd5b506101f760105481565b348015610246575f5ffd5b5061022461025536600461294b565b61052c565b348015610265575f5ffd5b506004546102739060ff1681565b60405160ff90911681526020016101d9565b348015610290575f5ffd5b506101f760035481565b3480156102a5575f5ffd5b506102246102b4366004612966565b610633565b3480156102c4575f5ffd5b506101f7600f5481565b6102246102dc366004612a16565b61088d565b3480156102ec575f5ffd5b506101f76108a8565b348015610300575f5ffd5b5061031461030f366004612920565b6108c3565b6040516001600160a01b0390911681526020016101d9565b348015610337575f5ffd5b505f54610314906001600160a01b031681565b348015610355575f5ffd5b5061022461036436600461294b565b6108eb565b348015610374575f5ffd5b50610388610383366004612966565b6109cd565b6040516101d9929190612ae9565b3480156103a1575f5ffd5b50610224610b67565b3480156103b5575f5ffd5b50600154610314906001600160a01b031681565b3480156103d4575f5ffd5b50610224610b7a565b3480156103e8575f5ffd5b50600254610314906001600160a01b031681565b348015610407575f5ffd5b50610314610bc7565b34801561041b575f5ffd5b506101f760145481565b348015610430575f5ffd5b50610439610bfb565b6040516101d9929190612b03565b348015610452575f5ffd5b50610477604051806040016040528060058152602001640352e302e360dc1b81525081565b6040516101d99190612b8c565b34801561048f575f5ffd5b5061022461049e366004612b9e565b610e0b565b3480156104ae575f5ffd5b50610439611185565b3480156104c2575f5ffd5b5061031461138c565b3480156104d6575f5ffd5b506102246104e536600461294b565b6113b4565b3480156104f5575f5ffd5b506101f760125481565b610507611439565b805f03610527576040516317dbc4cb60e21b815260040160405180910390fd5b601255565b610534611439565b6001600160a01b03811661055b5760405163d92e233d60e01b815260040160405180910390fd5b60015f9054906101000a90046001600160a01b03166001600160a01b031663edcf9c1f6040518163ffffffff1660e01b8152600401602060405180830381865afa1580156105ab573d5f5f3e3d5ffd5b505050506040513d601f19601f820116820180604052508101906105cf9190612be6565b6105ec576040516312aecd8160e01b815260040160405180910390fd5b5f80546001600160a01b0319166001600160a01b038316908117825560405190917f6cc7ebdb6c8c53291c5ae16148cab9b049d23bf5bde5632900b40edff56fcb4391a250565b5f546001600160a01b0316331461065d5760405163ea8e4eb560e01b815260040160405180910390fd5b61066561146b565b6004811015610687576040516317dbc4cb60e21b815260040160405180910390fd5b5f6106956004828486612c05565b61069e91612c2c565b90506341659aab60e01b6001600160e01b0319821601610764576106c06114a2565b6106c86114d3565b600154604051631da09e4360e31b81526001600160a01b039091169063ed04f218906106f8905f90600401612c64565b5f60405180830381865afa158015610712573d5f5f3e3d5ffd5b505050506040513d5f823e601f3d908101601f191682016040526107399190810190612d0d565b805161074d9160159160209091019061285b565b505f6014556013805460ff19166001179055610872565b600162e1be3b60e01b03196001600160e01b03198216016107ab575f61078d8360048187612c05565b81019061079a9190612920565b90506107a5816115d4565b50610872565b630795aad760e41b6001600160e01b03198216016107d0576107cb611b0f565b610872565b6350c9887560e01b6001600160e01b0319821601610859576107f0611e94565b6013805460ff1916905561080560155f6128be565b60108054905f61081483612d52565b91905055507f9375d658f91055a030c54d5cf460d6f12968b10b80b0797c1aa5c02e4dca940360105460405161084c91815260200190565b60405180910390a1610872565b6040516317dbc4cb60e21b815260040160405180910390fd5b5061088960015f5160206130725f395f51905f5255565b5050565b610895612034565b61089e826120d8565b61088982826120e0565b5f6108b161219c565b505f5160206130525f395f51905f5290565b601581815481106108d2575f80fd5b5f918252602090912001546001600160a01b0316905081565b6108f3611439565b6001600160a01b03811661091a5760405163d92e233d60e01b815260040160405180910390fd5b60015f9054906101000a90046001600160a01b03166001600160a01b031663edcf9c1f6040518163ffffffff1660e01b8152600401602060405180830381865afa15801561096a573d5f5f3e3d5ffd5b505050506040513d601f19601f8201168201806040525081019061098e9190612be6565b6109ab576040516312aecd8160e01b815260040160405180910390fd5b600180546001600160a01b0319166001600160a01b0392909216919091179055565b5f606060015f9054906101000a90046001600160a01b03166001600160a01b031663edcf9c1f6040518163ffffffff1660e01b8152600401602060405180830381865afa158015610a20573d5f5f3e3d5ffd5b505050506040513d601f19601f82011682018060405250810190610a449190612be6565b8015610a5257506011544210155b15610a855760405163be9a655560e01b6020820152600192506024015b6040516020818303038152906040529050610b60565b600160135460ff166003811115610a9e57610a9e6128e9565b148015610aae5750601554601454105b15610ad95760145460405162e1be3b60e01b6020820152602481019190915260019250604401610a6f565b600260135460ff166003811115610af257610af26128e9565b03610b135760405163086a552960e41b602082015260019250602401610a6f565b600360135460ff166003811115610b2c57610b2c6128e9565b03610b4d5760405163af36778b60e01b602082015260019250602401610a6f565b505060408051602081019091525f808252905b9250929050565b610b6f611439565b610b785f6121e5565b565b3380610b8461138c565b6001600160a01b031614610bbb5760405163118cdaa760e01b81526001600160a01b03821660048201526024015b60405180910390fd5b610bc4816121e5565b50565b5f807f9016d09d72d40fdae2fd8ceac6b6234c7706214fd39c1cd1e609a0528c1993005b546001600160a01b031692915050565b600a80546040805160208084028201810190925282815260609384935f93830182828015610c5057602002820191905f5260205f20905b81546001600160a01b03168152600190910190602001808311610c32575b505083519394505f9250829150505b82811015610cc4575f60056004015f868481518110610c8057610c80612d6a565b60200260200101516001600160a01b03166001600160a01b031681526020019081526020015f20541115610cbc5781610cb881612d52565b9250505b600101610c5f565b50806001600160401b03811115610cdd57610cdd6129d2565b604051908082528060200260200182016040528015610d06578160200160208202803683370190505b509450806001600160401b03811115610d2157610d216129d2565b604051908082528060200260200182016040528015610d4a578160200160208202803683370190505b5093505f805b83811015610e02575f858281518110610d6b57610d6b612d6a565b6020908102919091018101516001600160a01b0381165f90815260099092526040909120549091508015610df85781898581518110610dac57610dac612d6a565b60200260200101906001600160a01b031690816001600160a01b03168152505080888581518110610ddf57610ddf612d6a565b602090810291909101015283610df481612d52565b9450505b5050600101610d50565b50505050509091565b5f610e1461221d565b805490915060ff600160401b82041615906001600160401b03165f81158015610e3a5750825b90505f826001600160401b03166001148015610e555750303b155b905081158015610e63575080155b15610e815760405163f92ee8a960e01b815260040160405180910390fd5b845467ffffffffffffffff191660011785558315610eab57845460ff60401b1916600160401b1785555b610eb488612247565b610ebc612258565b610ec4612260565b610ecc612258565b6001600160a01b038716610ef35760405163d92e233d60e01b815260040160405180910390fd5b6001600160a01b038616610f1a5760405163d92e233d60e01b815260040160405180910390fd5b5f80546001600160a01b03808a166001600160a01b0319928316179092556001805492891692909116821790556040805163015df99360e01b8152905163015df993916004808201926020929091908290030181865afa158015610f80573d5f5f3e3d5ffd5b505050506040513d601f19601f82011682018060405250810190610fa49190612d7e565b600280546001600160a01b0319166001600160a01b039283161790556001546040805163d1717c7d60e01b81529051919092169163d1717c7d9160048083019260209291908290030181865afa158015611000573d5f5f3e3d5ffd5b505050506040513d601f19601f820116820180604052508101906110249190612d99565b61102f90600a612e9c565b60035560015460408051631c56369f60e21b815290516001600160a01b0390921691637158da7c916004808201926020929091908290030181865afa15801561107a573d5f5f3e3d5ffd5b505050506040513d601f19601f8201168201806040525081019061109e9190612d7e565b6001600160a01b031663313ce5676040518163ffffffff1660e01b8152600401602060405180830381865afa1580156110d9573d5f5f3e3d5ffd5b505050506040513d601f19601f820116820180604052508101906110fd9190612d99565b6004805460ff191660ff9290921691909117905561111a42612270565b6011555f6010819055603c6012556013805460ff19169055601455831561117b57845460ff60401b19168555604051600181527fc7f505b2f371ae2175ee4913f4499e1f2633a7b5936321eed1cdaeb6115181d29060200160405180910390a15b5050505050505050565b600a80546040805160208084028201810190925282815260609384935f938301828280156111da57602002820191905f5260205f20905b81546001600160a01b031681526001909101906020018083116111bc575b505083519394505f9250829150505b8281101561124e575f60056003015f86848151811061120a5761120a612d6a565b60200260200101516001600160a01b03166001600160a01b031681526020019081526020015f20541115611246578161124281612d52565b9250505b6001016111e9565b50806001600160401b03811115611267576112676129d2565b604051908082528060200260200182016040528015611290578160200160208202803683370190505b509450806001600160401b038111156112ab576112ab6129d2565b6040519080825280602002602001820160405280156112d4578160200160208202803683370190505b5093505f805b83811015610e02575f8582815181106112f5576112f5612d6a565b6020908102919091018101516001600160a01b0381165f90815260089092526040909120549091508015611382578189858151811061133657611336612d6a565b60200260200101906001600160a01b031690816001600160a01b0316815250508088858151811061136957611369612d6a565b60209081029190910101528361137e81612d52565b9450505b50506001016112da565b5f807f237e158222e3e6968b72b9db0d8043aacf074ad9f650f0d1606b4d82ee432c00610beb565b6113bc611439565b7f237e158222e3e6968b72b9db0d8043aacf074ad9f650f0d1606b4d82ee432c0080546001600160a01b0319166001600160a01b0383169081178255611400610bc7565b6001600160a01b03167f38d16b8cac22d99fc7c124b9cd0de2d3fa1faef420bfe791d8c362d765e2270060405160405180910390a35050565b33611442610bc7565b6001600160a01b031614610b785760405163118cdaa760e01b8152336004820152602401610bb2565b5f5160206130725f395f51905f5280546001190161149c57604051633ee5aeb560e01b815260040160405180910390fd5b60029055565b6011544210156114c55760405163085de62560e01b815260040160405180910390fd5b6114ce42612270565b601155565b5f6005800180548060200260200160405190810160405280929190818152602001828054801561152a57602002820191905f5260205f20905b81546001600160a01b0316815260019091019060200180831161150c575b505083519394505f925050505b818110156115c8575f83828151811061155257611552612d6a565b6020908102919091018101516001600160a01b03165f90815260058252604080822082905560068352808220829055600783528082208290556008835280822082905560098352808220829055600b8352808220805460ff19908116909155600c90935290208054909116905550600101611537565b50610889600a5f6128be565b5f601582815481106115e8576115e8612d6a565b905f5260205f20015f9054906101000a90046001600160a01b031690505f5f826001600160a01b031663d3d034586040518163ffffffff1660e01b81526004015f60405180830381865afa158015611642573d5f5f3e3d5ffd5b505050506040513d5f823e601f3d908101601f191682016040526116699190810190612eaa565b90925090505f805b835181101561187c575f84828151811061168d5761168d612d6a565b6020908102919091018101516001600160a01b0381165f908152600c909252604082205490925060ff16900361174757806001600160a01b031663313ce5676040518163ffffffff1660e01b8152600401602060405180830381865afa1580156116f9573d5f5f3e3d5ffd5b505050506040513d601f19601f8201168201806040525081019061171d9190612d99565b6001600160a01b0382165f908152600c60205260409020805460ff191660ff929092169190911790555b6001600160a01b0381165f908152600c6020908152604080832054600590925282205460ff90911691819003611800576002546040516341976e0960e01b81526001600160a01b038581166004830152909116906341976e0990602401602060405180830381865afa1580156117bf573d5f5f3e3d5ffd5b505050506040513d601f19601f820116820180604052508101906117e39190612f66565b6001600160a01b0384165f90815260056020526040902081905590505b5f6118258288878151811061181757611817612d6a565b60200260200101518561227f565b90506118318187612f7d565b6001600160a01b0385165f9081526006602052604081208054929850839290919061185d908490612f7d565b9091555061186c9050846122c1565b5050600190920191506116719050565b505f846001600160a01b031663a68a5267866001600160a01b031663c37fc8a86040518163ffffffff1660e01b8152600401602060405180830381865afa1580156118c9573d5f5f3e3d5ffd5b505050506040513d601f19601f820116820180604052508101906118ed9190612f66565b845f6040518463ffffffff1660e01b815260040161190d93929190612f90565b602060405180830381865afa158015611928573d5f5f3e3d5ffd5b505050506040513d601f19601f8201168201806040525081019061194c9190612f66565b90505f81866001600160a01b031663d1699c266040518163ffffffff1660e01b8152600401602060405180830381865afa15801561198c573d5f5f3e3d5ffd5b505050506040513d601f19601f820116820180604052508101906119b09190612f66565b6119ba9085612f7d565b6119c49190612fb5565b90505f5f876001600160a01b031663b6eba6536040518163ffffffff1660e01b81526004015f60405180830381865afa158015611a03573d5f5f3e3d5ffd5b505050506040513d5f823e601f3d908101601f19168201604052611a2a9190810190612eaa565b815191935091505f5b81811015611ad5575f848281518110611a4e57611a4e612d6a565b602002602001015190505f848381518110611a6b57611a6b612d6a565b602002602001015190505f6003548289611a859190612fc8565b611a8f9190612fdf565b6001600160a01b0384165f90815260076020526040812080549293508392909190611abb908490612f7d565b90915550611aca9050836122c1565b505050600101611a33565b5060148054905f611ae583612d52565b909155505060155460145410611b03576013805460ff191660021790555b50505050505050505050565b611b1761146b565b60018054604051631da09e4360e31b81525f926001600160a01b039092169163ed04f21891611b499190600401612c64565b5f60405180830381865afa158015611b63573d5f5f3e3d5ffd5b505050506040513d5f823e601f3d908101601f19168201604052611b8a9190810190612d0d565b90505f5b8151811015611e6f575f828281518110611baa57611baa612d6a565b602002602001015190505f5f826001600160a01b031663d3d034586040518163ffffffff1660e01b81526004015f60405180830381865afa158015611bf1573d5f5f3e3d5ffd5b505050506040513d5f823e601f3d908101601f19168201604052611c189190810190612eaa565b915091505f611c265f612346565b90505f5b8351811015611df6575f848281518110611c4657611c46612d6a565b6020908102919091018101516001600160a01b0381165f908152600c909252604082205490925060ff169003611d0057806001600160a01b031663313ce5676040518163ffffffff1660e01b8152600401602060405180830381865afa158015611cb2573d5f5f3e3d5ffd5b505050506040513d601f19601f82011682018060405250810190611cd69190612d99565b6001600160a01b0382165f908152600c60205260409020805460ff191660ff929092169190911790555b6001600160a01b0381165f908152600c6020908152604080832054600590925282205460ff90911691819003611db9576002546040516341976e0960e01b81526001600160a01b038581166004830152909116906341976e0990602401602060405180830381865afa158015611d78573d5f5f3e3d5ffd5b505050506040513d601f19601f82011682018060405250810190611d9c9190612f66565b6001600160a01b0384165f90815260056020526040902081905590505b5f611dd882888781518110611dd057611dd0612d6a565b505f92915050565b9050611de48682612358565b95505060019093019250611c2a915050565b505f5f856001600160a01b031663b6eba6536040518163ffffffff1660e01b81526004015f60405180830381865afa158015611e34573d5f5f3e3d5ffd5b505050506040513d5f823e601f3d908101601f19168201604052611e5b9190810190612eaa565b505060019096019550611b8e945050505050565b50506013805460ff19166003179055610b7860015f5160206130725f395f51905f5255565b5f60058001805480602002602001604051908101604052809291908181526020018280548015611eeb57602002820191905f5260205f20905b81546001600160a01b03168152600190910190602001808311611ecd575b505083515f600e819055600f81905594955093925050505b8181101561201c575f838281518110611f1e57611f1e612d6a565b6020908102919091018101516001600160a01b0381165f908152600683526040808220546007855281832054600c909552912054919350919060ff1681831115611fc8575f611f6d8385612fb5565b905080600e5f828254611f809190612f7d565b90915550506001600160a01b0385165f90815260056020526040812054611fa890838561238d565b6001600160a01b0387165f908152600860205260409020555061200c9050565b8282111561200c575f611fdb8484612fb5565b905080600f5f828254611fee9190612f7d565b90915550506001600160a01b0385165f908152600960205260409020555b505060019092019150611f039050565b505050565b60015f5160206130725f395f51905f5255565b306001600160a01b037f00000000000000000000000000000000000000000000000000000000000000001614806120ba57507f00000000000000000000000000000000000000000000000000000000000000006001600160a01b03166120ae5f5160206130525f395f51905f52546001600160a01b031690565b6001600160a01b031614155b15610b785760405163703e46dd60e11b815260040160405180910390fd5b610bc4611439565b816001600160a01b03166352d1902d6040518163ffffffff1660e01b8152600401602060405180830381865afa92505050801561213a575060408051601f3d908101601f1916820190925261213791810190612f66565b60015b61216257604051634c9c8ce360e01b81526001600160a01b0383166004820152602401610bb2565b5f5160206130525f395f51905f52811461219257604051632a87526960e21b815260048101829052602401610bb2565b61201c83836123cb565b306001600160a01b037f00000000000000000000000000000000000000000000000000000000000000001614610b785760405163703e46dd60e11b815260040160405180910390fd5b7f237e158222e3e6968b72b9db0d8043aacf074ad9f650f0d1606b4d82ee432c0080546001600160a01b031916815561088982612420565b5f807ff0c57e16840df040f15088dc2f81fe391c3923bec73e23a9662efc9c229c6a005b92915050565b61224f612490565b610bc4816124b5565b610b78612490565b612268612490565b610b786124e6565b5f601254826122419190612f7d565b5f8061228b8486612fc8565b6004549091505f906122a3908390869060ff166124ee565b90506122b7670de0b6b3a764000082612fdf565b9695505050505050565b6001600160a01b0381165f908152600b602052604090205460ff16610bc457600a805460018181019092557fc65a7bb8d6351c1cf70c95a316cc6a92839c986682d98bc35f958f4883f9d2a80180546001600160a01b0384166001600160a01b031990911681179091555f908152600b60205260409020805460ff1916909117905550565b5f6122418263ffffffff166004612558565b5f8261236a576123675f612346565b92505b8161237b576123785f612346565b91505b61238683835f612615565b9392505050565b6004545f9081906123a390859060ff16856124ee565b9050846123b8670de0b6b3a764000083612fc8565b6123c29190612fdf565b95945050505050565b6123d4826126d3565b6040516001600160a01b038316907fbc7cd75a20ee27fd9adebab32041f755214dbc6bffa90cc0225b39da2e5c2d3b905f90a28051156124185761201c8282612736565b61088961279f565b7f9016d09d72d40fdae2fd8ceac6b6234c7706214fd39c1cd1e609a0528c19930080546001600160a01b031981166001600160a01b03848116918217845560405192169182907f8be0079c531659141344cd1fd0a4f28419497f9722a3daafe3b4186f6b6457e0905f90a3505050565b6124986127be565b610b7857604051631afcd79f60e31b815260040160405180910390fd5b6124bd612490565b6001600160a01b038116610bbb57604051631e4fbdf760e01b81525f6004820152602401610bb2565b612021612490565b5f8260ff168260ff161115612523576125078383612ffe565b61251290600a612e9c565b61251c9085612fc8565b9050612386565b8260ff168260ff1610156125505761253b8284612ffe565b61254690600a612e9c565b61251c9085612fdf565b509192915050565b7fed8d60e34876f751cc8b014c560745351147d9de11b9347c854e881b128ea60154604051639cd07acb60e01b81525f917fed8d60e34876f751cc8b014c560745351147d9de11b9347c854e881b128ea600916001600160a01b0390911690639cd07acb906125cd9087908790600401613017565b6020604051808303815f875af11580156125e9573d5f5f3e3d5ffd5b505050506040513d601f19601f8201168201806040525081019061260d9190612f66565b949350505050565b5f5f82156126285750600160f81b61262b565b505f5b5f7fed8d60e34876f751cc8b014c560745351147d9de11b9347c854e881b128ea600600181015460405163022f65e760e31b815260048101899052602481018890526001600160f81b0319851660448201529192506001600160a01b03169063117b2f38906064016020604051808303815f875af11580156126af573d5f5f3e3d5ffd5b505050506040513d601f19601f820116820180604052508101906122b79190612f66565b806001600160a01b03163b5f0361270857604051634c9c8ce360e01b81526001600160a01b0382166004820152602401610bb2565b5f5160206130525f395f51905f5280546001600160a01b0319166001600160a01b0392909216919091179055565b60605f5f846001600160a01b031684604051612752919061303b565b5f60405180830381855af49150503d805f811461278a576040519150601f19603f3d011682016040523d82523d5f602084013e61278f565b606091505b50915091506123c28583836127d7565b3415610b785760405163b398979f60e01b815260040160405180910390fd5b5f6127c761221d565b54600160401b900460ff16919050565b6060826127ec576127e782612833565b612386565b815115801561280357506001600160a01b0384163b155b1561282c57604051639996b31560e01b81526001600160a01b0385166004820152602401610bb2565b5080612386565b80511561284257805160208201fd5b60405163d6bda27560e01b815260040160405180910390fd5b828054828255905f5260205f209081019282156128ae579160200282015b828111156128ae57825182546001600160a01b0319166001600160a01b03909116178255602090920191600190910190612879565b506128ba9291506128d5565b5090565b5080545f8255905f5260205f2090810190610bc491905b5b808211156128ba575f81556001016128d6565b634e487b7160e01b5f52602160045260245ffd5b60048110610bc457610bc46128e9565b6020810161291a836128fd565b91905290565b5f60208284031215612930575f5ffd5b5035919050565b6001600160a01b0381168114610bc4575f5ffd5b5f6020828403121561295b575f5ffd5b813561238681612937565b5f5f60208385031215612977575f5ffd5b82356001600160401b0381111561298c575f5ffd5b8301601f8101851361299c575f5ffd5b80356001600160401b038111156129b1575f5ffd5b8560208284010111156129c2575f5ffd5b6020919091019590945092505050565b634e487b7160e01b5f52604160045260245ffd5b604051601f8201601f191681016001600160401b0381118282101715612a0e57612a0e6129d2565b604052919050565b5f5f60408385031215612a27575f5ffd5b8235612a3281612937565b915060208301356001600160401b03811115612a4c575f5ffd5b8301601f81018513612a5c575f5ffd5b80356001600160401b03811115612a7557612a756129d2565b612a88601f8201601f19166020016129e6565b818152866020838501011115612a9c575f5ffd5b816020840160208301375f602083830101528093505050509250929050565b5f81518084528060208401602086015e5f602082860101526020601f19601f83011685010191505092915050565b8215158152604060208201525f61260d6040830184612abb565b604080825283519082018190525f9060208501906060840190835b81811015612b455783516001600160a01b0316835260209384019390920191600101612b1e565b5050838103602080860191909152855180835291810192508501905f5b81811015612b80578251845260209384019390920191600101612b62565b50919695505050505050565b602081525f6123866020830184612abb565b5f5f5f60608486031215612bb0575f5ffd5b8335612bbb81612937565b92506020840135612bcb81612937565b91506040840135612bdb81612937565b809150509250925092565b5f60208284031215612bf6575f5ffd5b81518015158114612386575f5ffd5b5f5f85851115612c13575f5ffd5b83861115612c1f575f5ffd5b5050820193919092039150565b80356001600160e01b03198116906004841015612c5d576001600160e01b0319600485900360031b81901b82161691505b5092915050565b602081016002831061291a5761291a6128e9565b5f6001600160401b03821115612c9057612c906129d2565b5060051b60200190565b5f82601f830112612ca9575f5ffd5b8151612cbc612cb782612c78565b6129e6565b8082825260208201915060208360051b860101925085831115612cdd575f5ffd5b602085015b83811015612d03578051612cf581612937565b835260209283019201612ce2565b5095945050505050565b5f60208284031215612d1d575f5ffd5b81516001600160401b03811115612d32575f5ffd5b61260d84828501612c9a565b634e487b7160e01b5f52601160045260245ffd5b5f60018201612d6357612d63612d3e565b5060010190565b634e487b7160e01b5f52603260045260245ffd5b5f60208284031215612d8e575f5ffd5b815161238681612937565b5f60208284031215612da9575f5ffd5b815160ff81168114612386575f5ffd5b6001815b6001841115612df457808504811115612dd857612dd8612d3e565b6001841615612de657908102905b60019390931c928002612dbd565b935093915050565b5f82612e0a57506001612241565b81612e1657505f612241565b8160018114612e2c5760028114612e3657612e52565b6001915050612241565b60ff841115612e4757612e47612d3e565b50506001821b612241565b5060208310610133831016604e8410600b8410161715612e75575081810a612241565b612e815f198484612db9565b805f1904821115612e9457612e94612d3e565b029392505050565b5f61238660ff841683612dfc565b5f5f60408385031215612ebb575f5ffd5b82516001600160401b03811115612ed0575f5ffd5b612edc85828601612c9a565b92505060208301516001600160401b03811115612ef7575f5ffd5b8301601f81018513612f07575f5ffd5b8051612f15612cb782612c78565b8082825260208201915060208360051b850101925087831115612f36575f5ffd5b6020840193505b82841015612f58578351825260209384019390910190612f3d565b809450505050509250929050565b5f60208284031215612f76575f5ffd5b5051919050565b8082018082111561224157612241612d3e565b8381526020810183905260608101612fa7836128fd565b826040830152949350505050565b8181038181111561224157612241612d3e565b808202811582820484141761224157612241612d3e565b5f82612ff957634e487b7160e01b5f52601260045260245ffd5b500490565b60ff828116828216039081111561224157612241612d3e565b828152604081016054831061302e5761302e6128e9565b8260208301529392505050565b5f82518060208501845e5f92019182525091905056fe360894a13ba1a3210667c828492db98dca3e2076cc3735a920a3ca505d382bbc9b779b17422d0df92223018b32b4d1fa46e071723d6817e2486d003becc55f00a2646970667358221220c8d71f7d21001cd83e87c7754754be19b890a09c9d5a16b30eb6598b7483f9df64736f6c634300081c0033",
  "linkReferences": {},
  "deployedLinkReferences": {}
}