{
  "_format": "hh-sol-artifact-1",
  "contractName": "InternalStatesOrchestrator",
  "sourceName": "contracts/orchestrators/InternalStatesOrchestrator.sol",
  "abi": [
    {
      "inputs": [
        {
          "internalType": "address",
          "name": "initialOwner",
          "type": "address"
        },
        {
          "internalType": "address",
          "name": "config_",
          "type": "address"
        },
        {
          "internalType": "address",
          "name": "automationRegistry_",
          "type": "address"
        }
      ],
      "stateMutability": "nonpayable",
      "type": "constructor"
    },
    {
      "inputs": [],
      "name": "InsufficientAmount",
      "type": "error"
    },
    {
      "inputs": [],
      "name": "InvalidArguments",
      "type": "error"
    },
    {
      "inputs": [],
      "name": "InvalidState",
      "type": "error"
    },
    {
      "inputs": [],
      "name": "NotAuthorized",
      "type": "error"
    },
    {
      "inputs": [
        {
          "internalType": "address",
          "name": "owner",
          "type": "address"
        }
      ],
      "name": "OwnableInvalidOwner",
      "type": "error"
    },
    {
      "inputs": [
        {
          "internalType": "address",
          "name": "account",
          "type": "address"
        }
      ],
      "name": "OwnableUnauthorizedAccount",
      "type": "error"
    },
    {
      "inputs": [],
      "name": "ReentrancyGuardReentrantCall",
      "type": "error"
    },
    {
      "inputs": [],
      "name": "SystemNotIdle",
      "type": "error"
    },
    {
      "inputs": [],
      "name": "TooEarly",
      "type": "error"
    },
    {
      "inputs": [],
      "name": "ZeroAddress",
      "type": "error"
    },
    {
      "anonymous": false,
      "inputs": [
        {
          "indexed": true,
          "internalType": "address",
          "name": "newAutomationRegistry",
          "type": "address"
        }
      ],
      "name": "AutomationRegistryUpdated",
      "type": "event"
    },
    {
      "anonymous": false,
      "inputs": [
        {
          "indexed": true,
          "internalType": "uint16",
          "name": "epochCounter",
          "type": "uint16"
        }
      ],
      "name": "InternalStateProcessed",
      "type": "event"
    },
    {
      "anonymous": false,
      "inputs": [
        {
          "indexed": true,
          "internalType": "address",
          "name": "previousOwner",
          "type": "address"
        },
        {
          "indexed": true,
          "internalType": "address",
          "name": "newOwner",
          "type": "address"
        }
      ],
      "name": "OwnershipTransferred",
      "type": "event"
    },
    {
      "inputs": [],
      "name": "BASIS_POINTS_FACTOR",
      "outputs": [
        {
          "internalType": "uint16",
          "name": "",
          "type": "uint16"
        }
      ],
      "stateMutability": "view",
      "type": "function"
    },
    {
      "inputs": [],
      "name": "automationRegistry",
      "outputs": [
        {
          "internalType": "address",
          "name": "",
          "type": "address"
        }
      ],
      "stateMutability": "view",
      "type": "function"
    },
    {
      "inputs": [],
      "name": "bufferAmount",
      "outputs": [
        {
          "internalType": "uint256",
          "name": "",
          "type": "uint256"
        }
      ],
      "stateMutability": "view",
      "type": "function"
    },
    {
      "inputs": [
        {
          "internalType": "bytes",
          "name": "",
          "type": "bytes"
        }
      ],
      "name": "checkUpkeep",
      "outputs": [
        {
          "internalType": "bool",
          "name": "upkeepNeeded",
          "type": "bool"
        },
        {
          "internalType": "bytes",
          "name": "performData",
          "type": "bytes"
        }
      ],
      "stateMutability": "view",
      "type": "function"
    },
    {
      "inputs": [],
      "name": "config",
      "outputs": [
        {
          "internalType": "contract IOrionConfig",
          "name": "",
          "type": "address"
        }
      ],
      "stateMutability": "view",
      "type": "function"
    },
    {
      "inputs": [],
      "name": "currentMinibatchIndex",
      "outputs": [
        {
          "internalType": "uint8",
          "name": "",
          "type": "uint8"
        }
      ],
      "stateMutability": "view",
      "type": "function"
    },
    {
      "inputs": [],
      "name": "currentPhase",
      "outputs": [
        {
          "internalType": "enum IInternalStateOrchestrator.InternalUpkeepPhase",
          "name": "",
          "type": "uint8"
        }
      ],
      "stateMutability": "view",
      "type": "function"
    },
    {
      "inputs": [],
      "name": "epochCounter",
      "outputs": [
        {
          "internalType": "uint16",
          "name": "",
          "type": "uint16"
        }
      ],
      "stateMutability": "view",
      "type": "function"
    },
    {
      "inputs": [],
      "name": "epochDuration",
      "outputs": [
        {
          "internalType": "uint32",
          "name": "",
          "type": "uint32"
        }
      ],
      "stateMutability": "view",
      "type": "function"
    },
    {
      "inputs": [],
      "name": "getEpochTokens",
      "outputs": [
        {
          "internalType": "address[]",
          "name": "tokens",
          "type": "address[]"
        }
      ],
      "stateMutability": "view",
      "type": "function"
    },
    {
      "inputs": [],
      "name": "getOrders",
      "outputs": [
        {
          "internalType": "address[]",
          "name": "sellingTokens",
          "type": "address[]"
        },
        {
          "internalType": "uint256[]",
          "name": "sellingAmounts",
          "type": "uint256[]"
        },
        {
          "internalType": "address[]",
          "name": "buyingTokens",
          "type": "address[]"
        },
        {
          "internalType": "uint256[]",
          "name": "buyingAmounts",
          "type": "uint256[]"
        },
        {
          "internalType": "uint256[]",
          "name": "sellingEstimatedUnderlyingAmounts",
          "type": "uint256[]"
        },
        {
          "internalType": "uint256[]",
          "name": "buyingEstimatedUnderlyingAmounts",
          "type": "uint256[]"
        }
      ],
      "stateMutability": "view",
      "type": "function"
    },
    {
      "inputs": [
        {
          "internalType": "address",
          "name": "token",
          "type": "address"
        }
      ],
      "name": "getPriceOf",
      "outputs": [
        {
          "internalType": "uint256",
          "name": "price",
          "type": "uint256"
        }
      ],
      "stateMutability": "view",
      "type": "function"
    },
    {
      "inputs": [
        {
          "internalType": "address",
          "name": "vault",
          "type": "address"
        }
      ],
      "name": "getVaultTotalAssetsForFulfillDeposit",
      "outputs": [
        {
          "internalType": "uint256",
          "name": "totalAssets",
          "type": "uint256"
        }
      ],
      "stateMutability": "view",
      "type": "function"
    },
    {
      "inputs": [
        {
          "internalType": "address",
          "name": "vault",
          "type": "address"
        }
      ],
      "name": "getVaultTotalAssetsForFulfillRedeem",
      "outputs": [
        {
          "internalType": "uint256",
          "name": "totalAssets",
          "type": "uint256"
        }
      ],
      "stateMutability": "view",
      "type": "function"
    },
    {
      "inputs": [],
      "name": "intentFactor",
      "outputs": [
        {
          "internalType": "uint256",
          "name": "",
          "type": "uint256"
        }
      ],
      "stateMutability": "view",
      "type": "function"
    },
    {
      "inputs": [],
      "name": "liquidityOrchestrator",
      "outputs": [
        {
          "internalType": "contract ILiquidityOrchestrator",
          "name": "",
          "type": "address"
        }
      ],
      "stateMutability": "view",
      "type": "function"
    },
    {
      "inputs": [],
      "name": "owner",
      "outputs": [
        {
          "internalType": "address",
          "name": "",
          "type": "address"
        }
      ],
      "stateMutability": "view",
      "type": "function"
    },
    {
      "inputs": [],
      "name": "pendingProtocolFees",
      "outputs": [
        {
          "internalType": "uint256",
          "name": "",
          "type": "uint256"
        }
      ],
      "stateMutability": "view",
      "type": "function"
    },
    {
      "inputs": [
        {
          "internalType": "bytes",
          "name": "performData",
          "type": "bytes"
        }
      ],
      "name": "performUpkeep",
      "outputs": [],
      "stateMutability": "nonpayable",
      "type": "function"
    },
    {
      "inputs": [],
      "name": "priceAdapterPrecision",
      "outputs": [
        {
          "internalType": "uint256",
          "name": "",
          "type": "uint256"
        }
      ],
      "stateMutability": "view",
      "type": "function"
    },
    {
      "inputs": [],
      "name": "registry",
      "outputs": [
        {
          "internalType": "contract IPriceAdapterRegistry",
          "name": "",
          "type": "address"
        }
      ],
      "stateMutability": "view",
      "type": "function"
    },
    {
      "inputs": [],
      "name": "renounceOwnership",
      "outputs": [],
      "stateMutability": "nonpayable",
      "type": "function"
    },
    {
      "inputs": [],
      "name": "rsFeeCoefficient",
      "outputs": [
        {
          "internalType": "uint16",
          "name": "",
          "type": "uint16"
        }
      ],
      "stateMutability": "view",
      "type": "function"
    },
    {
      "inputs": [
        {
          "internalType": "uint256",
          "name": "amount",
          "type": "uint256"
        }
      ],
      "name": "subtractPendingProtocolFees",
      "outputs": [],
      "stateMutability": "nonpayable",
      "type": "function"
    },
    {
      "inputs": [
        {
          "internalType": "address",
          "name": "newOwner",
          "type": "address"
        }
      ],
      "name": "transferOwnership",
      "outputs": [],
      "stateMutability": "nonpayable",
      "type": "function"
    },
    {
      "inputs": [],
      "name": "transparentMinibatchSize",
      "outputs": [
        {
          "internalType": "uint8",
          "name": "",
          "type": "uint8"
        }
      ],
      "stateMutability": "view",
      "type": "function"
    },
    {
      "inputs": [
        {
          "internalType": "uint256",
          "name": "",
          "type": "uint256"
        }
      ],
      "name": "transparentVaultsEpoch",
      "outputs": [
        {
          "internalType": "address",
          "name": "",
          "type": "address"
        }
      ],
      "stateMutability": "view",
      "type": "function"
    },
    {
      "inputs": [],
      "name": "underlyingAsset",
      "outputs": [
        {
          "internalType": "address",
          "name": "",
          "type": "address"
        }
      ],
      "stateMutability": "view",
      "type": "function"
    },
    {
      "inputs": [],
      "name": "underlyingDecimals",
      "outputs": [
        {
          "internalType": "uint8",
          "name": "",
          "type": "uint8"
        }
      ],
      "stateMutability": "view",
      "type": "function"
    },
    {
      "inputs": [
        {
          "internalType": "address",
          "name": "newAutomationRegistry",
          "type": "address"
        }
      ],
      "name": "updateAutomationRegistry",
      "outputs": [],
      "stateMutability": "nonpayable",
      "type": "function"
    },
    {
      "inputs": [
        {
          "internalType": "int256",
          "name": "deltaAmount",
          "type": "int256"
        }
      ],
      "name": "updateBufferAmount",
      "outputs": [],
      "stateMutability": "nonpayable",
      "type": "function"
    },
    {
      "inputs": [
        {
          "internalType": "uint32",
          "name": "newEpochDuration",
          "type": "uint32"
        }
      ],
      "name": "updateEpochDuration",
      "outputs": [],
      "stateMutability": "nonpayable",
      "type": "function"
    },
    {
      "inputs": [
        {
          "internalType": "uint8",
          "name": "_transparentMinibatchSize",
          "type": "uint8"
        }
      ],
      "name": "updateMinibatchSize",
      "outputs": [],
      "stateMutability": "nonpayable",
      "type": "function"
    },
    {
      "inputs": [
        {
          "internalType": "uint16",
          "name": "_vFeeCoefficient",
          "type": "uint16"
        },
        {
          "internalType": "uint16",
          "name": "_rsFeeCoefficient",
          "type": "uint16"
        }
      ],
      "name": "updateProtocolFees",
      "outputs": [],
      "stateMutability": "nonpayable",
      "type": "function"
    },
    {
      "inputs": [],
      "name": "vFeeCoefficient",
      "outputs": [
        {
          "internalType": "uint16",
          "name": "",
          "type": "uint16"
        }
      ],
      "stateMutability": "view",
      "type": "function"
    }
  ],
  "bytecode": "0x608060405234801561000f575f5ffd5b50604051613a43380380613a4383398101604081905261002e916104b6565b826001600160a01b03811661005c57604051631e4fbdf760e01b81525f600482015260240160405180910390fd5b61006581610450565b50600180556001600160a01b0382166100915760405163d92e233d60e01b815260040160405180910390fd5b6001600160a01b0381166100b85760405163d92e233d60e01b815260040160405180910390fd5b600380546001600160a01b0319166001600160a01b0384169081179091556040805163015df99360e01b8152905163015df993916004808201926020929091908290030181865afa15801561010f573d5f5f3e3d5ffd5b505050506040513d601f19601f820116820180604052508101906101339190610500565b600580546001600160a01b0319166001600160a01b039283161790556003546040805163d1717c7d60e01b81529051919092169163d1717c7d9160048083019260209291908290030181865afa15801561018f573d5f5f3e3d5ffd5b505050506040513d601f19601f820116820180604052508101906101b39190610522565b6101be90600a61063b565b60075560035460408051631c56369f60e21b815290516001600160a01b0390921691637158da7c916004808201926020929091908290030181865afa158015610209573d5f5f3e3d5ffd5b505050506040513d601f19601f8201168201806040525081019061022d9190610500565b600880546001600160a01b0319166001600160a01b03928316908117909155600354604051633c2e3e7b60e11b815260048101929092529091169063785c7cf690602401602060405180830381865afa15801561028c573d5f5f3e3d5ffd5b505050506040513d601f19601f820116820180604052508101906102b09190610522565b600860146101000a81548160ff021916908360ff16021790555060035f9054906101000a90046001600160a01b03166001600160a01b031663567ba7136040518163ffffffff1660e01b8152600401602060405180830381865afa15801561031a573d5f5f3e3d5ffd5b505050506040513d601f19601f8201168201806040525081019061033e9190610522565b61034990600a61063b565b6006556016805462ff0000191662010000179055600280546001600160a01b038084166001600160a01b03199092169190911790915560035460408051631d06d6c760e11b815290519190921691633a0dad8e9160048281019260209291908290030181865afa1580156103bf573d5f5f3e3d5ffd5b505050506040513d601f19601f820116820180604052508101906103e39190610500565b600480546001600160a01b0319166001600160a01b0392909216919091179055601480546201518063ffffffff1990911681179091556104239042610649565b60155550506016805464ffff00ffff19169055506008805463ffffffff60a81b191690555f60185561065c565b5f80546001600160a01b038381166001600160a01b0319831681178455604051919092169283917f8be0079c531659141344cd1fd0a4f28419497f9722a3daafe3b4186f6b6457e09190a35050565b6001600160a01b03811681146104b3575f5ffd5b50565b5f5f5f606084860312156104c8575f5ffd5b83516104d38161049f565b60208501519093506104e48161049f565b60408501519092506104f58161049f565b809150509250925092565b5f60208284031215610510575f5ffd5b815161051b8161049f565b9392505050565b5f60208284031215610532575f5ffd5b815160ff8116811461051b575f5ffd5b634e487b7160e01b5f52601160045260245ffd5b6001815b60018411156105915780850481111561057557610575610542565b600184161561058357908102905b60019390931c92800261055a565b935093915050565b5f826105a757506001610635565b816105b357505f610635565b81600181146105c957600281146105d3576105ef565b6001915050610635565b60ff8411156105e4576105e4610542565b50506001821b610635565b5060208310610133831016604e8410600b8410161715610612575081810a610635565b61061e5f198484610556565b805f190482111561063157610631610542565b0290505b92915050565b5f61051b60ff841683610599565b8082018082111561063557610635610542565b6133da806106695f395ff3fe608060405234801561000f575f5ffd5b506004361061019f575f3560e01c8063055ad42e146101a35780630844697d146101cd57806308af604d146101f5578063132b1c921461021a57806314b19c5a1461025057806314b5d07f1461025e57806325a760c2146102735780632b0088b4146102875780632e2dc43e146102905780633a0dad8e146102aa5780634585e33b146102ca5780634ff0876a146102dd5780635488cd621461030257806358fac65b146103165780635dc228a0146103295780636e04ff0d1461033c5780636ff041531461035d5780637060444514610372578063715018a6146103855780637158da7c1461038d57806379502c55146103a05780637b103999146103b35780637cdabf0a146103c6578063800f9fad146103d95780638da5cb5b146103e25780638f5c9465146103ea578063b8b2af7c146103f3578063ba96ff1114610408578063c18e2a5c1461041b578063ca1f32f114610424578063e2638ff11461042d578063e2c4aaec14610455578063e6c3efd914610468578063eeb393c91461047b578063f2fde38b1461048e575b5f5ffd5b6016546101b7906301000000900460ff1681565b6040516101c49190612acf565b60405180910390f35b6008546101e290600160b81b900461ffff1681565b60405161ffff90911681526020016101c4565b6016546102089062010000900460ff1681565b60405160ff90911681526020016101c4565b610242610228366004612afd565b6001600160a01b03165f908152600f602052604090205490565b6040519081526020016101c4565b6016546101e29061ffff1681565b61027161026c366004612afd565b6104a1565b005b60085461020890600160a01b900460ff1681565b61024260075481565b6102986105aa565b6040516101c496959493929190612b8b565b6004546102bd906001600160a01b031681565b6040516101c49190612c0c565b6102716102d8366004612c20565b610826565b6014546102ed9063ffffffff1681565b60405163ffffffff90911681526020016101c4565b60165461020890600160201b900460ff1681565b6102bd610324366004612c8c565b610969565b6002546102bd906001600160a01b031681565b61034f61034a366004612c20565b610991565b6040516101c4929190612ca3565b610365610c0f565b6040516101c49190612ce1565b610271610380366004612c8c565b610ca9565b610271610d10565b6008546102bd906001600160a01b031681565b6003546102bd906001600160a01b031681565b6005546102bd906001600160a01b031681565b6102716103d4366004612d09565b610d23565b61024260095481565b6102bd610e2a565b6101e261271081565b6008546101e290600160a81b900461ffff1681565b610242610416366004612afd565b610e38565b61024260185481565b61024260065481565b61024261043b366004612afd565b6001600160a01b03165f908152600e602052604090205490565b610271610463366004612c8c565b610e91565b610271610476366004612d48565b610f04565b610271610489366004612d74565b610fde565b61027161049c366004612afd565b6110c5565b6104a9611108565b6001600160a01b0381166104d05760405163d92e233d60e01b815260040160405180910390fd5b60035f9054906101000a90046001600160a01b03166001600160a01b031663edcf9c1f6040518163ffffffff1660e01b8152600401602060405180830381865afa158015610520573d5f5f3e3d5ffd5b505050506040513d601f19601f820116820180604052508101906105449190612d8f565b610561576040516312aecd8160e01b815260040160405180910390fd5b600280546001600160a01b0319166001600160a01b0383169081179091556040517f6cc7ebdb6c8c53291c5ae16148cab9b049d23bf5bde5632900b40edff56fcb43905f90a250565b606080808080805f6016546301000000900460ff1660048111156105d0576105d0612abb565b146105ee576040516312aecd8160e01b815260040160405180910390fd5b5f600a60080180548060200260200160405190810160405280929190818152602001828054801561064657602002820191905f5260205f20905b81546001600160a01b03168152600190910190602001808311610628575b505050505090505f5f6106588361113a565b915091508161ffff166001600160401b0381111561067857610678612dae565b6040519080825280602002602001820160405280156106a1578160200160208202803683370190505b5098508161ffff166001600160401b038111156106c0576106c0612dae565b6040519080825280602002602001820160405280156106e9578160200160208202803683370190505b5097508061ffff166001600160401b0381111561070857610708612dae565b604051908082528060200260200182016040528015610731578160200160208202803683370190505b5096508061ffff166001600160401b0381111561075057610750612dae565b604051908082528060200260200182016040528015610779578160200160208202803683370190505b5095508161ffff166001600160401b0381111561079857610798612dae565b6040519080825280602002602001820160405280156107c1578160200160208202803683370190505b5094508061ffff166001600160401b038111156107e0576107e0612dae565b604051908082528060200260200182016040528015610809578160200160208202803683370190505b50935061081b838a8a888b8b8a6111db565b505050909192939495565b61082e610e2a565b6001600160a01b0316336001600160a01b03161415801561085a57506002546001600160a01b03163314155b156108785760405163ea8e4eb560e01b815260040160405180910390fd5b6108806113be565b60058110156108a2576040516317dbc4cb60e21b815260040160405180910390fd5b5f806108b083850185612dc2565b90925090506341659aab60e01b6001600160e01b03198316016108da576108d56113e8565b61095a565b636ce38ed360e11b6001600160e01b03198316016108fb576108d581611584565b6292a80f60e51b6001600160e01b031983160161091a576108d5611d35565b6265e66b60e01b6001600160e01b031983160161093a576108d581611f42565b63c4b3cef760e01b6001600160e01b031983160161095a5761095a61244b565b505061096560018055565b5050565b60178181548110610978575f80fd5b5f918252602090912001546001600160a01b0316905081565b5f606060035f9054906101000a90046001600160a01b03166001600160a01b031663edcf9c1f6040518163ffffffff1660e01b8152600401602060405180830381865afa1580156109e4573d5f5f3e3d5ffd5b505050506040513d601f19601f82011682018060405250810190610a089190612d8f565b8015610a15575060155442115b15610a6757600191507fbe9a655586dceb82dfa0af992b5d8ae7fa45053cb7fd6f141f541da7572978c75f604051602001610a51929190612e05565b6040516020818303038152906040529050610c08565b60016016546301000000900460ff166004811115610a8757610a87612abb565b03610ad257600191507f2638e25a856cbfe28e0ae1857cb597cc2ceb873ce579b7d93c2258e45a754481601660049054906101000a900460ff16604051602001610a51929190612e05565b60026016546301000000900460ff166004811115610af257610af2612abb565b03610b2e57600191507fedaafe206508e00f40674bb87dda745bccfe8a3f3f6d6eaaf6db5f44021a1c135f604051602001610a51929190612e05565b60036016546301000000900460ff166004811115610b4e57610b4e612abb565b03610b9957600191507fff9a199536c068c55c334e40ebfa355733f79152332d6586d615c5bb37fd5c17601660049054906101000a900460ff16604051602001610a51929190612e05565b60046016546301000000900460ff166004811115610bb957610bb9612abb565b03610bf557600191507f3b4c310984a9fe486c05a56b52659c09d4bf9f3ef9b799ad52ee29a7d805741e5f604051602001610a51929190612e05565b505060408051602081019091525f808252905b9250929050565b60605f6016546301000000900460ff166004811115610c3057610c30612abb565b14610c4e576040516312aecd8160e01b815260040160405180910390fd5b6012805460408051602080840282018101909252828152929190830182828015610c9f57602002820191905f5260205f20905b81546001600160a01b03168152600190910190602001808311610c81575b5050505050905090565b6004546001600160a01b03163314610cd45760405163ea8e4eb560e01b815260040160405180910390fd5b600954811115610cf757604051632ca2f52b60e11b815260040160405180910390fd5b8060095f828254610d089190612e36565b909155505050565b610d18611108565b610d215f612617565b565b610d2b611108565b60328261ffff161180610d4357506107d08161ffff16115b15610d61576040516317dbc4cb60e21b815260040160405180910390fd5b60035f9054906101000a90046001600160a01b03166001600160a01b031663edcf9c1f6040518163ffffffff1660e01b8152600401602060405180830381865afa158015610db1573d5f5f3e3d5ffd5b505050506040513d601f19601f82011682018060405250810190610dd59190612d8f565b610df2576040516312aecd8160e01b815260040160405180910390fd5b6008805463ffffffff60a81b1916600160a81b61ffff9485160261ffff60b81b191617600160b81b9290931691909102919091179055565b5f546001600160a01b031690565b5f806016546301000000900460ff166004811115610e5857610e58612abb565b14610e76576040516312aecd8160e01b815260040160405180910390fd5b506001600160a01b03165f908152600a602052604090205490565b6004546001600160a01b03163314610ebc5760405163ea8e4eb560e01b815260040160405180910390fd5b5f811315610ee0578060185f828254610ed59190612e4f565b90915550610f019050565b5f811215610f0157610ef181612e62565b60185f828254610d089190612e36565b50565b610f0c611108565b8060ff165f03610f2f576040516317dbc4cb60e21b815260040160405180910390fd5b60035f9054906101000a90046001600160a01b03166001600160a01b031663edcf9c1f6040518163ffffffff1660e01b8152600401602060405180830381865afa158015610f7f573d5f5f3e3d5ffd5b505050506040513d601f19601f82011682018060405250810190610fa39190612d8f565b610fc0576040516312aecd8160e01b815260040160405180910390fd5b6016805460ff909216620100000262ff000019909216919091179055565b610fe6611108565b8063ffffffff165f0361100c576040516317dbc4cb60e21b815260040160405180910390fd5b60035f9054906101000a90046001600160a01b03166001600160a01b031663edcf9c1f6040518163ffffffff1660e01b8152600401602060405180830381865afa15801561105c573d5f5f3e3d5ffd5b505050506040513d601f19601f820116820180604052508101906110809190612d8f565b61109d576040516312aecd8160e01b815260040160405180910390fd5b6014805463ffffffff191663ffffffff83169081179091556110bf9042612e4f565b60155550565b6110cd611108565b6001600160a01b0381166110ff575f604051631e4fbdf760e01b81526004016110f69190612c0c565b60405180910390fd5b610f0181612617565b33611111610e2a565b6001600160a01b031614610d21573360405163118cdaa760e01b81526004016110f69190612c0c565b80515f908190815b8161ffff168161ffff1610156111d4575f858261ffff168151811061116957611169612e7c565b6020908102919091018101516001600160a01b0381165f9081526010909252604090912054909150156111a25761119f85612e90565b94505b6001600160a01b0381165f90815260116020526040902054156111cb576111c884612e90565b93505b50600101611142565b5050915091565b86515f80805b8361ffff168161ffff1610156113b1575f8b8261ffff168151811061120857611208612e7c565b6020908102919091018101516001600160a01b0381165f90815260108352604080822054601190945290205490925081156112ed57828d8761ffff168151811061125457611254612e7c565b60200260200101906001600160a01b031690816001600160a01b031681525050818c8761ffff168151811061128b5761128b612e7c565b6020908102919091018101919091526001600160a01b0384165f908152600a90915260409020546006546112c0918491612666565b8b8761ffff16815181106112d6576112d6612e7c565b60209081029190910101526112ea86612e90565b95505b80156113a357828a8661ffff168151811061130a5761130a612e7c565b60200260200101906001600160a01b031690816001600160a01b03168152505080898661ffff168151811061134157611341612e7c565b6020908102919091018101919091526001600160a01b0384165f908152600a9091526040902054600654611376918391612666565b888661ffff168151811061138c5761138c612e7c565b60209081029190910101526113a085612e90565b94505b5050508060010190506111e1565b5050505050505050505050565b6002600154036113e157604051633ee5aeb560e01b815260040160405180910390fd5b6002600155565b6015544211158061146a575060035f9054906101000a90046001600160a01b03166001600160a01b031663edcf9c1f6040518163ffffffff1660e01b8152600401602060405180830381865afa158015611444573d5f5f3e3d5ffd5b505050506040513d601f19601f820116820180604052508101906114689190612d8f565b155b156114885760405163085de62560e01b815260040160405180910390fd5b5f5b60125461ffff8216101561153d575f600a6008018261ffff16815481106114b3576114b3612e7c565b5f9182526020808320909101546001600160a01b03168252600a81526040808320839055600b8252808320839055600c8252808320839055600e8252808320839055600f8252808320839055600d8252808320839055601082528083208390556011825280832083905560139091529020805460ff191690555061153681612e90565b905061148a565b5061154960125f612a8d565b611551612717565b60175415610d215760145461156c9063ffffffff1642612e4f565b6015556016805463ff00000019166301000000179055565b60016016546301000000900460ff1660048111156115a4576115a4612abb565b146115c25760405163baf3f0f760e01b815260040160405180910390fd5b601680546004906115dc90600160201b900460ff16612eb0565b91906101000a81548160ff021916908360ff1602179055505f601660029054906101000a900460ff16826116109190612ec5565b60165460ff91821692505f9161162d916201000090041683612ee8565b60175490915061ffff82161180611649575060175461ffff8216145b1561166757506017546016805464ffff000000191663020000001790555b815b8161ffff168161ffff161015611d2f575f60178261ffff168154811061169157611691612e7c565b905f5260205f20015f9054906101000a90046001600160a01b031690505f5f826001600160a01b031663d3d034586040518163ffffffff1660e01b81526004015f60405180830381865afa1580156116eb573d5f5f3e3d5ffd5b505050506040513d5f823e601f3d908101601f191682016040526117129190810190612fc7565b90925090505f805b83518161ffff1610156119fe575f848261ffff168151811061173e5761173e612e7c565b602002602001015190505f848361ffff168151811061175f5761175f612e7c565b6020026020010151905080600a6001015f846001600160a01b03166001600160a01b031681526020019081526020015f205f82825461179e9190612e4f565b90915550506001600160a01b0382165f9081526013602052604090205460ff16611922576008546001600160a01b039081169083160361189a5760085461187d906117f490600160a01b900460ff16600a613168565b600860149054906101000a900460ff1660035f9054906101000a90046001600160a01b03166001600160a01b031663567ba7136040518163ffffffff1660e01b8152600401602060405180830381865afa158015611854573d5f5f3e3d5ffd5b505050506040513d601f19601f820116820180604052508101906118789190613176565b612971565b6001600160a01b0383165f908152600a6020526040902055611922565b6005546040516341976e0960e01b81526001600160a01b03909116906341976e09906118ca908590600401612c0c565b602060405180830381865afa1580156118e5573d5f5f3e3d5ffd5b505050506040513d601f19601f820116820180604052508101906119099190613191565b6001600160a01b0383165f908152600a60205260409020555b6001600160a01b0382165f908152600a60205260408120546006549091906119d2906119519084908690612666565b600354604051633c2e3e7b60e11b81526001600160a01b039091169063785c7cf690611981908990600401612c0c565b602060405180830381865afa15801561199c573d5f5f3e3d5ffd5b505050506040513d601f19601f820116820180604052508101906119c09190613176565b600854600160a01b900460ff16612971565b90506119de8187612e4f565b95506119e9846129db565b50505050806119f790612e90565b905061171a565b506008545f90611a1c90600160a81b900461ffff1683612710612666565b601454909150611a3d90829063ffffffff908116906301e133809061266616565b90508060095f828254611a509190612e4f565b90915550611a6090508183612e36565b60405163728d42fb60e11b8152600481018290529092505f906001600160a01b0387169063e51a85f690602401602060405180830381865afa158015611aa8573d5f5f3e3d5ffd5b505050506040513d601f19601f82011682018060405250810190611acc9190613191565b9050611ad88184612e36565b6008549093505f90611af890600160b81b900461ffff1683612710612666565b90508060095f828254611b0b9190612e4f565b90915550611b1b90508183612e36565b601654604051630df571f760e01b815261ffff9091166004820152602481018290529092506001600160a01b03881690630df571f7906044015f604051808303815f87803b158015611b6b575f5ffd5b505af1158015611b7d573d5f5f3e3d5ffd5b505050505f876001600160a01b031663a68a5267896001600160a01b0316630a605c6d6040518163ffffffff1660e01b8152600401602060405180830381865afa158015611bcd573d5f5f3e3d5ffd5b505050506040513d601f19601f82011682018060405250810190611bf19190613191565b875f6040518463ffffffff1660e01b8152600401611c11939291906131a8565b602060405180830381865afa158015611c2c573d5f5f3e3d5ffd5b505050506040513d601f19601f82011682018060405250810190611c509190613191565b6001600160a01b0389165f908152600e602052604090208690559050611c768186612e36565b94505f886001600160a01b031663f64c6f326040518163ffffffff1660e01b8152600401602060405180830381865afa158015611cb5573d5f5f3e3d5ffd5b505050506040513d601f19601f82011682018060405250810190611cd99190613191565b6001600160a01b038a165f908152600f602052604090208790559050611cff8187612e4f565b6001600160a01b039099165f908152600c6020526040902098909855505060019096019550611669945050505050565b50505050565b60026016546301000000900460ff166004811115611d5557611d55612abb565b14611d735760405163baf3f0f760e01b815260040160405180910390fd5b6016805463ff000000191663030000001790556017545f805b8261ffff168161ffff161015611df0575f60178261ffff1681548110611db457611db4612e7c565b5f9182526020808320909101546001600160a01b0316808352600c909152604090912054909150611de59084612e4f565b925050600101611d8c565b50600480546040805163dab26e3b60e01b815290515f93611e67936001600160a01b03169263dab26e3b92818301926020928290030181865afa158015611e39573d5f5f3e3d5ffd5b505050506040513d601f19601f82011682018060405250810190611e5d9190613191565b8390612710612666565b9050806018541115611e7857505050565b5f60185482611e879190612e36565b90505f5b8461ffff168161ffff161015611f25575f60178261ffff1681548110611eb357611eb3612e7c565b5f9182526020808320909101546001600160a01b0316808352600c909152604082205490925090611ee5858389612666565b6001600160a01b0384165f908152600c6020526040812080549293508392909190611f11908490612e36565b909155505060019093019250611e8b915050565b508060185f828254611f379190612e4f565b909155505050505050565b60036016546301000000900460ff166004811115611f6257611f62612abb565b14611f805760405163baf3f0f760e01b815260040160405180910390fd5b60168054600490611f9a90600160201b900460ff16612eb0565b91906101000a81548160ff021916908360ff1602179055505f601660029054906101000a900460ff1682611fce9190612ec5565b60165460ff91821692505f91611feb916201000090041683612ee8565b60175490915061ffff82161180612007575060175461ffff8216145b1561202557506017546016805464ffff000000191663040000001790555b815b8161ffff168161ffff161015611d2f575f60178261ffff168154811061204f5761204f612e7c565b905f5260205f20015f9054906101000a90046001600160a01b031690505f5f826001600160a01b031663b6eba6536040518163ffffffff1660e01b81526004015f60405180830381865afa1580156120a9573d5f5f3e3d5ffd5b505050506040513d5f823e601f3d908101601f191682016040526120d091908101906131d4565b6001600160a01b0385165f908152600c6020526040812054835193955091935090916001600160401b0381111561210957612109612dae565b60405190808252806020026020018201604052801561214d57816020015b604080518082019091525f80825260208201528152602001906001900390816121275790505b5090505f5b84518161ffff1610156123df575f858261ffff168151811061217657612176612e7c565b602002602001015190505f858361ffff168151811061219757612197612e7c565b6020908102919091018101516001600160a01b0384165f908152601390925260409091205490915060ff1661229d576008546001600160a01b0390811690831603612215576008546121f8906117f490600160a01b900460ff16600a613168565b6001600160a01b0383165f908152600a602052604090205561229d565b6005546040516341976e0960e01b81526001600160a01b03909116906341976e0990612245908590600401612c0c565b602060405180830381865afa158015612260573d5f5f3e3d5ffd5b505050506040513d601f19601f820116820180604052508101906122849190613191565b6001600160a01b0383165f908152600a60205260409020555b6001600160a01b0382165f908152600a602052604081205460065460075491929161233f916122e59185906122de908c9063ffffffff808b16919061266616565b9190612666565b600854600354604051633c2e3e7b60e11b8152600160a01b90920460ff16916001600160a01b039091169063785c7cf690612324908a90600401612c0c565b602060405180830381865afa158015611854573d5f5f3e3d5ffd5b90506040518060400160405280856001600160a01b031681526020018263ffffffff16815250868661ffff168151811061237b5761237b612e7c565b602002602001018190525080600a6003015f866001600160a01b03166001600160a01b031681526020019081526020015f205f8282546123bb9190612e4f565b909155506123ca9050846129db565b50505050806123d890612e90565b9050612152565b50604051630415112560e21b81526001600160a01b0386169063105444949061240e908490869060040161328d565b5f604051808303815f87803b158015612425575f5ffd5b505af1158015612437573d5f5f3e3d5ffd5b505050505050505050806001019050612027565b60046016546301000000900460ff16600481111561246b5761246b612abb565b146124895760405163baf3f0f760e01b815260040160405180910390fd5b5f600a6008018054806020026020016040519081016040528092919081815260200182805480156124e157602002820191905f5260205f20905b81546001600160a01b031681526001909101906020018083116124c3575b505083519394505f925050505b8161ffff168161ffff1610156125ac575f838261ffff168151811061251557612515612e7c565b6020908102919091018101516001600160a01b0381165f908152600b8352604080822054600d90945290205490925080821115612573576125568183612e36565b6001600160a01b0384165f9081526010602052604090205561259e565b8181111561259e576125858282612e36565b6001600160a01b0384165f908152601160205260409020555b5050508060010190506124ee565b506016805463ff00000019811682555f906125ca9061ffff16612e90565b82546101009290920a61ffff8181021990931691831602179091556016546040519116907f0bc12479581640d161e016cef21aa834cb6d6326bbc0d8445e58d56403adf2dc905f90a25050565b5f80546001600160a01b038381166001600160a01b0319831681178455604051919092169283917f8be0079c531659141344cd1fd0a4f28419497f9722a3daafe3b4186f6b6457e09190a35050565b5f5f5f6126738686612a60565b91509150815f036126975783818161268d5761268d6132f4565b0492505050612710565b8184116126ae576126ae6003851502601118612a7c565b5f848688095f868103871696879004966002600389028118808a02820302808a02820302808a02820302808a02820302808a02820302808a02909103029181900381900460010185841190960395909502919093039390930492909217029150505b9392505050565b600354604051631da09e4360e31b81525f916001600160a01b03169063ed04f21890612747908490600401613308565b5f60405180830381865afa158015612761573d5f5f3e3d5ffd5b505050506040513d5f823e601f3d908101601f19168201604052612788919081019061331c565b905061279560175f612a8d565b5f5b81518161ffff161015610965575f828261ffff16815181106127bb576127bb612e7c565b60200260200101519050806001600160a01b03166301e1d1146040518163ffffffff1660e01b8152600401602060405180830381865afa158015612801573d5f5f3e3d5ffd5b505050506040513d601f19601f820116820180604052508101906128259190613191565b816001600160a01b031663f64c6f326040518163ffffffff1660e01b8152600401602060405180830381865afa158015612861573d5f5f3e3d5ffd5b505050506040513d601f19601f820116820180604052508101906128859190613191565b61288f9190612e4f565b5f0361289b5750612961565b5f816001600160a01b031663b6eba6536040518163ffffffff1660e01b81526004015f60405180830381865afa1580156128d7573d5f5f3e3d5ffd5b505050506040513d5f823e601f3d908101601f191682016040526128fe91908101906131d4565b50905080515f03612910575050612961565b50601780546001810182555f919091527fc624b66cc0138b8fabc209247f72d758e1cf3343756d543badbf24212bed8c150180546001600160a01b0319166001600160a01b03929092169190911790555b61296a81612e90565b9050612797565b5f8260ff168260ff1611156129a65761298a8383613355565b61299590600a613168565b61299f908561336e565b9050612710565b8260ff168260ff1610156129d3576129be8284613355565b6129c990600a613168565b61299f9085613385565b509192915050565b6001600160a01b0381165f9081526013602052604090205460ff16610f01576012805460018181019092557fbb8a6a4669ba250d26cd7a459eca9d215f8307e33aebe50379bc5a3617ec34440180546001600160a01b0384166001600160a01b031990911681179091555f908152601360205260409020805460ff1916909117905550565b5f805f1983850993909202808410938190039390930393915050565b634e487b715f52806020526024601cfd5b5080545f8255905f5260205f2090810190610f0191905b80821115612ab7575f8155600101612aa4565b5090565b634e487b7160e01b5f52602160045260245ffd5b6020810160058310612ae357612ae3612abb565b91905290565b6001600160a01b0381168114610f01575f5ffd5b5f60208284031215612b0d575f5ffd5b813561271081612ae9565b5f8151808452602084019350602083015f5b82811015612b515781516001600160a01b0316865260209586019590910190600101612b2a565b5093949350505050565b5f8151808452602084019350602083015f5b82811015612b51578151865260209586019590910190600101612b6d565b60c081525f612b9d60c0830189612b18565b8281036020840152612baf8189612b5b565b90508281036040840152612bc38188612b18565b90508281036060840152612bd78187612b5b565b90508281036080840152612beb8186612b5b565b905082810360a0840152612bff8185612b5b565b9998505050505050505050565b6001600160a01b0391909116815260200190565b5f5f60208385031215612c31575f5ffd5b82356001600160401b03811115612c46575f5ffd5b8301601f81018513612c56575f5ffd5b80356001600160401b03811115612c6b575f5ffd5b856020828401011115612c7c575f5ffd5b6020919091019590945092505050565b5f60208284031215612c9c575f5ffd5b5035919050565b8215158152604060208201525f82518060408401528060208501606085015e5f606082850101526060601f19601f8301168401019150509392505050565b602081525f6127106020830184612b18565b803561ffff81168114612d04575f5ffd5b919050565b5f5f60408385031215612d1a575f5ffd5b612d2383612cf3565b9150612d3160208401612cf3565b90509250929050565b60ff81168114610f01575f5ffd5b5f60208284031215612d58575f5ffd5b813561271081612d3a565b63ffffffff81168114610f01575f5ffd5b5f60208284031215612d84575f5ffd5b813561271081612d63565b5f60208284031215612d9f575f5ffd5b81518015158114612710575f5ffd5b634e487b7160e01b5f52604160045260245ffd5b5f5f60408385031215612dd3575f5ffd5b82356001600160e01b031981168114612dea575f5ffd5b91506020830135612dfa81612d3a565b809150509250929050565b6001600160e01b031992909216825260ff16602082015260400190565b634e487b7160e01b5f52601160045260245ffd5b81810381811115612e4957612e49612e22565b92915050565b80820180821115612e4957612e49612e22565b5f600160ff1b8201612e7657612e76612e22565b505f0390565b634e487b7160e01b5f52603260045260245ffd5b5f61ffff821661ffff8103612ea757612ea7612e22565b60010192915050565b5f60ff821660ff8103612ea757612ea7612e22565b60ff8181168382160290811690818114612ee157612ee1612e22565b5092915050565b61ffff8181168382160190811115612e4957612e49612e22565b604051601f8201601f191681016001600160401b0381118282101715612f2a57612f2a612dae565b604052919050565b5f6001600160401b03821115612f4a57612f4a612dae565b5060051b60200190565b5f82601f830112612f63575f5ffd5b8151612f76612f7182612f32565b612f02565b8082825260208201915060208360051b860101925085831115612f97575f5ffd5b602085015b83811015612fbd578051612faf81612ae9565b835260209283019201612f9c565b5095945050505050565b5f5f60408385031215612fd8575f5ffd5b82516001600160401b03811115612fed575f5ffd5b612ff985828601612f54565b602085015190935090506001600160401b03811115613016575f5ffd5b8301601f81018513613026575f5ffd5b8051613034612f7182612f32565b8082825260208201915060208360051b850101925087831115613055575f5ffd5b6020840193505b8284101561307757835182526020938401939091019061305c565b809450505050509250929050565b6001815b60018411156130c0578085048111156130a4576130a4612e22565b60018416156130b257908102905b60019390931c928002613089565b935093915050565b5f826130d657506001612e49565b816130e257505f612e49565b81600181146130f857600281146131025761311e565b6001915050612e49565b60ff84111561311357613113612e22565b50506001821b612e49565b5060208310610133831016604e8410600b8410161715613141575081810a612e49565b61314d5f198484613085565b805f190482111561316057613160612e22565b029392505050565b5f61271060ff8416836130c8565b5f60208284031215613186575f5ffd5b815161271081612d3a565b5f602082840312156131a1575f5ffd5b5051919050565b8381526020810183905260608101600483106131c6576131c6612abb565b826040830152949350505050565b5f5f604083850312156131e5575f5ffd5b82516001600160401b038111156131fa575f5ffd5b61320685828601612f54565b602085015190935090506001600160401b03811115613223575f5ffd5b8301601f81018513613233575f5ffd5b8051613241612f7182612f32565b8082825260208201915060208360051b850101925087831115613262575f5ffd5b6020840193505b8284101561307757835161327c81612d63565b825260209384019390910190613269565b604080825283519082018190525f9060208501906060840190835b818110156132e157835180516001600160a01b0316845260209081015163ffffffff1681850152909301926040909201916001016132a8565b5050602093909301939093525092915050565b634e487b7160e01b5f52601260045260245ffd5b6020810160028310612ae357612ae3612abb565b5f6020828403121561332c575f5ffd5b81516001600160401b03811115613341575f5ffd5b61334d84828501612f54565b949350505050565b60ff8281168282160390811115612e4957612e49612e22565b8082028115828204841417612e4957612e49612e22565b5f8261339f57634e487b7160e01b5f52601260045260245ffd5b50049056fea2646970667358221220e620a22b2150a1352e338db08d4f08fe3f5afc832873c1a15921de067c0375a964736f6c634300081c0033",
  "linkReferences": {},
  "deployedLinkReferences": {}
}