{
  "_format": "hh-sol-artifact-1",
  "contractName": "InternalStatesOrchestrator",
  "sourceName": "contracts/orchestrators/InternalStatesOrchestrator.sol",
  "abi": [
    {
      "inputs": [
        {
          "internalType": "address",
          "name": "initialOwner",
          "type": "address"
        },
        {
          "internalType": "address",
          "name": "config_",
          "type": "address"
        },
        {
          "internalType": "address",
          "name": "automationRegistry_",
          "type": "address"
        }
      ],
      "stateMutability": "nonpayable",
      "type": "constructor"
    },
    {
      "inputs": [],
      "name": "HandlesAlreadySavedForRequestID",
      "type": "error"
    },
    {
      "inputs": [],
      "name": "InsufficientAmount",
      "type": "error"
    },
    {
      "inputs": [],
      "name": "InvalidArguments",
      "type": "error"
    },
    {
      "inputs": [],
      "name": "InvalidKMSSignatures",
      "type": "error"
    },
    {
      "inputs": [],
      "name": "InvalidState",
      "type": "error"
    },
    {
      "inputs": [],
      "name": "NoHandleFoundForRequestID",
      "type": "error"
    },
    {
      "inputs": [],
      "name": "NotAuthorized",
      "type": "error"
    },
    {
      "inputs": [
        {
          "internalType": "address",
          "name": "owner",
          "type": "address"
        }
      ],
      "name": "OwnableInvalidOwner",
      "type": "error"
    },
    {
      "inputs": [
        {
          "internalType": "address",
          "name": "account",
          "type": "address"
        }
      ],
      "name": "OwnableUnauthorizedAccount",
      "type": "error"
    },
    {
      "inputs": [],
      "name": "ReentrancyGuardReentrantCall",
      "type": "error"
    },
    {
      "inputs": [],
      "name": "SystemNotIdle",
      "type": "error"
    },
    {
      "inputs": [],
      "name": "TooEarly",
      "type": "error"
    },
    {
      "inputs": [],
      "name": "ZeroAddress",
      "type": "error"
    },
    {
      "anonymous": false,
      "inputs": [
        {
          "indexed": true,
          "internalType": "address",
          "name": "newAutomationRegistry",
          "type": "address"
        }
      ],
      "name": "AutomationRegistryUpdated",
      "type": "event"
    },
    {
      "anonymous": false,
      "inputs": [
        {
          "indexed": true,
          "internalType": "uint256",
          "name": "requestID",
          "type": "uint256"
        }
      ],
      "name": "DecryptionFulfilled",
      "type": "event"
    },
    {
      "anonymous": false,
      "inputs": [
        {
          "indexed": true,
          "internalType": "uint16",
          "name": "epochCounter",
          "type": "uint16"
        }
      ],
      "name": "InternalStateProcessed",
      "type": "event"
    },
    {
      "anonymous": false,
      "inputs": [
        {
          "indexed": true,
          "internalType": "address",
          "name": "previousOwner",
          "type": "address"
        },
        {
          "indexed": true,
          "internalType": "address",
          "name": "newOwner",
          "type": "address"
        }
      ],
      "name": "OwnershipTransferred",
      "type": "event"
    },
    {
      "inputs": [],
      "name": "BASIS_POINTS_FACTOR",
      "outputs": [
        {
          "internalType": "uint16",
          "name": "",
          "type": "uint16"
        }
      ],
      "stateMutability": "view",
      "type": "function"
    },
    {
      "inputs": [],
      "name": "automationRegistry",
      "outputs": [
        {
          "internalType": "address",
          "name": "",
          "type": "address"
        }
      ],
      "stateMutability": "view",
      "type": "function"
    },
    {
      "inputs": [],
      "name": "bufferAmount",
      "outputs": [
        {
          "internalType": "uint256",
          "name": "",
          "type": "uint256"
        }
      ],
      "stateMutability": "view",
      "type": "function"
    },
    {
      "inputs": [
        {
          "internalType": "uint256",
          "name": "requestID",
          "type": "uint256"
        },
        {
          "internalType": "bytes",
          "name": "cleartexts",
          "type": "bytes"
        },
        {
          "internalType": "bytes",
          "name": "decryptionProof",
          "type": "bytes"
        }
      ],
      "name": "callbackPreProcessDecrypt",
      "outputs": [],
      "stateMutability": "nonpayable",
      "type": "function"
    },
    {
      "inputs": [
        {
          "internalType": "bytes",
          "name": "",
          "type": "bytes"
        }
      ],
      "name": "checkUpkeep",
      "outputs": [
        {
          "internalType": "bool",
          "name": "upkeepNeeded",
          "type": "bool"
        },
        {
          "internalType": "bytes",
          "name": "performData",
          "type": "bytes"
        }
      ],
      "stateMutability": "view",
      "type": "function"
    },
    {
      "inputs": [],
      "name": "config",
      "outputs": [
        {
          "internalType": "contract IOrionConfig",
          "name": "",
          "type": "address"
        }
      ],
      "stateMutability": "view",
      "type": "function"
    },
    {
      "inputs": [],
      "name": "currentMinibatchIndex",
      "outputs": [
        {
          "internalType": "uint8",
          "name": "",
          "type": "uint8"
        }
      ],
      "stateMutability": "view",
      "type": "function"
    },
    {
      "inputs": [],
      "name": "currentPhase",
      "outputs": [
        {
          "internalType": "enum IInternalStateOrchestrator.InternalUpkeepPhase",
          "name": "",
          "type": "uint8"
        }
      ],
      "stateMutability": "view",
      "type": "function"
    },
    {
      "inputs": [],
      "name": "encryptedMinibatchSize",
      "outputs": [
        {
          "internalType": "uint8",
          "name": "",
          "type": "uint8"
        }
      ],
      "stateMutability": "view",
      "type": "function"
    },
    {
      "inputs": [
        {
          "internalType": "uint256",
          "name": "",
          "type": "uint256"
        }
      ],
      "name": "encryptedVaultsEpoch",
      "outputs": [
        {
          "internalType": "address",
          "name": "",
          "type": "address"
        }
      ],
      "stateMutability": "view",
      "type": "function"
    },
    {
      "inputs": [],
      "name": "epochCounter",
      "outputs": [
        {
          "internalType": "uint16",
          "name": "",
          "type": "uint16"
        }
      ],
      "stateMutability": "view",
      "type": "function"
    },
    {
      "inputs": [],
      "name": "epochDuration",
      "outputs": [
        {
          "internalType": "uint32",
          "name": "",
          "type": "uint32"
        }
      ],
      "stateMutability": "view",
      "type": "function"
    },
    {
      "inputs": [],
      "name": "getEpochTokens",
      "outputs": [
        {
          "internalType": "address[]",
          "name": "tokens",
          "type": "address[]"
        }
      ],
      "stateMutability": "view",
      "type": "function"
    },
    {
      "inputs": [],
      "name": "getOrders",
      "outputs": [
        {
          "internalType": "address[]",
          "name": "sellingTokens",
          "type": "address[]"
        },
        {
          "internalType": "uint256[]",
          "name": "sellingAmounts",
          "type": "uint256[]"
        },
        {
          "internalType": "address[]",
          "name": "buyingTokens",
          "type": "address[]"
        },
        {
          "internalType": "uint256[]",
          "name": "buyingAmounts",
          "type": "uint256[]"
        },
        {
          "internalType": "uint256[]",
          "name": "sellingEstimatedUnderlyingAmounts",
          "type": "uint256[]"
        },
        {
          "internalType": "uint256[]",
          "name": "buyingEstimatedUnderlyingAmounts",
          "type": "uint256[]"
        }
      ],
      "stateMutability": "view",
      "type": "function"
    },
    {
      "inputs": [
        {
          "internalType": "address",
          "name": "token",
          "type": "address"
        }
      ],
      "name": "getPriceOf",
      "outputs": [
        {
          "internalType": "uint256",
          "name": "price",
          "type": "uint256"
        }
      ],
      "stateMutability": "view",
      "type": "function"
    },
    {
      "inputs": [
        {
          "internalType": "address",
          "name": "vault",
          "type": "address"
        }
      ],
      "name": "getVaultTotalAssetsForFulfillDeposit",
      "outputs": [
        {
          "internalType": "uint256",
          "name": "totalAssets",
          "type": "uint256"
        }
      ],
      "stateMutability": "view",
      "type": "function"
    },
    {
      "inputs": [
        {
          "internalType": "address",
          "name": "vault",
          "type": "address"
        }
      ],
      "name": "getVaultTotalAssetsForFulfillRedeem",
      "outputs": [
        {
          "internalType": "uint256",
          "name": "totalAssets",
          "type": "uint256"
        }
      ],
      "stateMutability": "view",
      "type": "function"
    },
    {
      "inputs": [],
      "name": "intentFactor",
      "outputs": [
        {
          "internalType": "uint256",
          "name": "",
          "type": "uint256"
        }
      ],
      "stateMutability": "view",
      "type": "function"
    },
    {
      "inputs": [],
      "name": "liquidityOrchestrator",
      "outputs": [
        {
          "internalType": "contract ILiquidityOrchestrator",
          "name": "",
          "type": "address"
        }
      ],
      "stateMutability": "view",
      "type": "function"
    },
    {
      "inputs": [],
      "name": "owner",
      "outputs": [
        {
          "internalType": "address",
          "name": "",
          "type": "address"
        }
      ],
      "stateMutability": "view",
      "type": "function"
    },
    {
      "inputs": [],
      "name": "pendingProtocolFees",
      "outputs": [
        {
          "internalType": "uint256",
          "name": "",
          "type": "uint256"
        }
      ],
      "stateMutability": "view",
      "type": "function"
    },
    {
      "inputs": [
        {
          "internalType": "bytes",
          "name": "performData",
          "type": "bytes"
        }
      ],
      "name": "performUpkeep",
      "outputs": [],
      "stateMutability": "nonpayable",
      "type": "function"
    },
    {
      "inputs": [],
      "name": "priceAdapterPrecision",
      "outputs": [
        {
          "internalType": "uint256",
          "name": "",
          "type": "uint256"
        }
      ],
      "stateMutability": "view",
      "type": "function"
    },
    {
      "inputs": [],
      "name": "protocolId",
      "outputs": [
        {
          "internalType": "uint256",
          "name": "",
          "type": "uint256"
        }
      ],
      "stateMutability": "pure",
      "type": "function"
    },
    {
      "inputs": [],
      "name": "registry",
      "outputs": [
        {
          "internalType": "contract IPriceAdapterRegistry",
          "name": "",
          "type": "address"
        }
      ],
      "stateMutability": "view",
      "type": "function"
    },
    {
      "inputs": [],
      "name": "renounceOwnership",
      "outputs": [],
      "stateMutability": "nonpayable",
      "type": "function"
    },
    {
      "inputs": [],
      "name": "rsFeeCoefficient",
      "outputs": [
        {
          "internalType": "uint16",
          "name": "",
          "type": "uint16"
        }
      ],
      "stateMutability": "view",
      "type": "function"
    },
    {
      "inputs": [
        {
          "internalType": "uint256",
          "name": "amount",
          "type": "uint256"
        }
      ],
      "name": "subtractPendingProtocolFees",
      "outputs": [],
      "stateMutability": "nonpayable",
      "type": "function"
    },
    {
      "inputs": [
        {
          "internalType": "address",
          "name": "newOwner",
          "type": "address"
        }
      ],
      "name": "transferOwnership",
      "outputs": [],
      "stateMutability": "nonpayable",
      "type": "function"
    },
    {
      "inputs": [],
      "name": "transparentMinibatchSize",
      "outputs": [
        {
          "internalType": "uint8",
          "name": "",
          "type": "uint8"
        }
      ],
      "stateMutability": "view",
      "type": "function"
    },
    {
      "inputs": [
        {
          "internalType": "uint256",
          "name": "",
          "type": "uint256"
        }
      ],
      "name": "transparentVaultsEpoch",
      "outputs": [
        {
          "internalType": "address",
          "name": "",
          "type": "address"
        }
      ],
      "stateMutability": "view",
      "type": "function"
    },
    {
      "inputs": [],
      "name": "underlyingAsset",
      "outputs": [
        {
          "internalType": "address",
          "name": "",
          "type": "address"
        }
      ],
      "stateMutability": "view",
      "type": "function"
    },
    {
      "inputs": [],
      "name": "underlyingDecimals",
      "outputs": [
        {
          "internalType": "uint8",
          "name": "",
          "type": "uint8"
        }
      ],
      "stateMutability": "view",
      "type": "function"
    },
    {
      "inputs": [
        {
          "internalType": "address",
          "name": "newAutomationRegistry",
          "type": "address"
        }
      ],
      "name": "updateAutomationRegistry",
      "outputs": [],
      "stateMutability": "nonpayable",
      "type": "function"
    },
    {
      "inputs": [
        {
          "internalType": "int256",
          "name": "deltaAmount",
          "type": "int256"
        }
      ],
      "name": "updateBufferAmount",
      "outputs": [],
      "stateMutability": "nonpayable",
      "type": "function"
    },
    {
      "inputs": [
        {
          "internalType": "uint32",
          "name": "newEpochDuration",
          "type": "uint32"
        }
      ],
      "name": "updateEpochDuration",
      "outputs": [],
      "stateMutability": "nonpayable",
      "type": "function"
    },
    {
      "inputs": [
        {
          "internalType": "uint8",
          "name": "_transparentMinibatchSize",
          "type": "uint8"
        },
        {
          "internalType": "uint8",
          "name": "_encryptedMinibatchSize",
          "type": "uint8"
        }
      ],
      "name": "updateMinibatchSizes",
      "outputs": [],
      "stateMutability": "nonpayable",
      "type": "function"
    },
    {
      "inputs": [
        {
          "internalType": "uint16",
          "name": "_vFeeCoefficient",
          "type": "uint16"
        },
        {
          "internalType": "uint16",
          "name": "_rsFeeCoefficient",
          "type": "uint16"
        }
      ],
      "name": "updateProtocolFees",
      "outputs": [],
      "stateMutability": "nonpayable",
      "type": "function"
    },
    {
      "inputs": [],
      "name": "vFeeCoefficient",
      "outputs": [
        {
          "internalType": "uint16",
          "name": "",
          "type": "uint16"
        }
      ],
      "stateMutability": "view",
      "type": "function"
    },
    {
      "inputs": [],
      "name": "validEncryptedVaultsCount",
      "outputs": [
        {
          "internalType": "uint16",
          "name": "",
          "type": "uint16"
        }
      ],
      "stateMutability": "view",
      "type": "function"
    }
  ],
  "bytecode": "0x608060405234801561000f575f5ffd5b506040516156a63803806156a683398101604081905261002e9161075f565b826100d26100cd604080516080810182525f80825260208201819052918101829052606081019190915250604080516080810182527350157cffd6bbfa2dece204a89ec419c23ef5755d815273cd3ab3bd6bcc0c0bf3e27912a92043e817b1cf69602082015273a02cda4ca3a71d7c46997716f4283aa851c2881291810191909152731364cbbf2cdf5032c47d8226a6f6fbd2afcdacac606082015290565b61050c565b6001600160a01b0381166100ff57604051631e4fbdf760e01b81525f600482015260240160405180910390fd5b610108816105c5565b50600180556001600160a01b0382166101345760405163d92e233d60e01b815260040160405180910390fd5b6001600160a01b03811661015b5760405163d92e233d60e01b815260040160405180910390fd5b600380546001600160a01b0319166001600160a01b0384169081179091556040805163015df99360e01b8152905163015df993916004808201926020929091908290030181865afa1580156101b2573d5f5f3e3d5ffd5b505050506040513d601f19601f820116820180604052508101906101d691906107a9565b600580546001600160a01b0319166001600160a01b039283161790556003546040805163d1717c7d60e01b81529051919092169163d1717c7d9160048083019260209291908290030181865afa158015610232573d5f5f3e3d5ffd5b505050506040513d601f19601f8201168201806040525081019061025691906107cb565b61026190600a6108e2565b60075560035460408051631c56369f60e21b815290516001600160a01b0390921691637158da7c916004808201926020929091908290030181865afa1580156102ac573d5f5f3e3d5ffd5b505050506040513d601f19601f820116820180604052508101906102d091906107a9565b600880546001600160a01b0319166001600160a01b03928316908117909155600354604051633c2e3e7b60e11b815260048101929092529091169063785c7cf690602401602060405180830381865afa15801561032f573d5f5f3e3d5ffd5b505050506040513d601f19601f8201168201806040525081019061035391906107cb565b600860146101000a81548160ff021916908360ff16021790555060035f9054906101000a90046001600160a01b03166001600160a01b031663567ba7136040518163ffffffff1660e01b8152600401602060405180830381865afa1580156103bd573d5f5f3e3d5ffd5b505050506040513d601f19601f820116820180604052508101906103e191906107cb565b6103ec90600a6108e2565b6006556019805463ffff000019166301010000179055600280546001600160a01b0319166001600160a01b038381169190911790915560035460408051631d06d6c760e11b815290519190921691633a0dad8e9160048281019260209291908290030181865afa158015610462573d5f5f3e3d5ffd5b505050506040513d601f19601f8201168201806040525081019061048691906107a9565b600480546001600160a01b0319166001600160a01b0392909216919091179055601780546201518063ffffffff1990911681179091556104c690426108f0565b6018556019805465ffff0000ffff191690556104e15f610614565b601a8190556104ef9061062f565b50506008805463ffffffff60a81b1916905550505f601e5561094a565b80515f5160206156865f395f51905f5280546001600160a01b03199081166001600160a01b039384161790915560208301515f5160206156665f395f51905f528054831691841691909117905560408301517f9e7b61f58c47dc699ac88507c4f5bb9f121c03808c5676a8078fe583e46497028054831691841691909117905560608301517f9e7b61f58c47dc699ac88507c4f5bb9f121c03808c5676a8078fe583e46497038054909216921691909117905550565b50565b5f80546001600160a01b038381166001600160a01b0319831681178455604051919092169283917f8be0079c531659141344cd1fd0a4f28419497f9722a3daafe3b4186f6b6457e09190a35050565b5f6106296001600160801b038316600661063e565b92915050565b5f61063a82306106d5565b5090565b5f5160206156665f395f51905f5254604051639cd07acb60e01b81525f915f5160206156865f395f51905f52916001600160a01b0390911690639cd07acb9061068d9087908790600401610903565b6020604051808303815f875af11580156106a9573d5f5f3e3d5ffd5b505050506040513d601f19601f820116820180604052508101906106cd9190610933565b949350505050565b5f5f5160206156865f395f51905f528054604051635ca4b5b160e11b8152600481018690526001600160a01b03858116602483015292935091169063b9496b62906044015f604051808303815f87803b158015610730575f5ffd5b505af1158015610742573d5f5f3e3d5ffd5b50505050505050565b6001600160a01b03811681146105c2575f5ffd5b5f5f5f60608486031215610771575f5ffd5b835161077c8161074b565b602085015190935061078d8161074b565b604085015190925061079e8161074b565b809150509250925092565b5f602082840312156107b9575f5ffd5b81516107c48161074b565b9392505050565b5f602082840312156107db575f5ffd5b815160ff811681146107c4575f5ffd5b634e487b7160e01b5f52601160045260245ffd5b6001815b600184111561083a5780850481111561081e5761081e6107eb565b600184161561082c57908102905b60019390931c928002610803565b935093915050565b5f8261085057506001610629565b8161085c57505f610629565b8160018114610872576002811461087c57610898565b6001915050610629565b60ff84111561088d5761088d6107eb565b50506001821b610629565b5060208310610133831016604e8410600b84101617156108bb575081810a610629565b6108c75f1984846107ff565b805f19048211156108da576108da6107eb565b029392505050565b5f6107c460ff841683610842565b80820180821115610629576106296107eb565b828152604081016054831061092657634e487b7160e01b5f52602160045260245ffd5b8260208301529392505050565b5f60208284031215610943575f5ffd5b5051919050565b614d0f806109575f395ff3fe608060405234801561000f575f5ffd5b50600436106101d5575f3560e01c8062bb07bb146101d9578063055ad42e146101ee5780630844697d1461021857806308af604d14610240578063132b1c921461026557806314b19c5a1461029b57806314b5d07f146102a957806325a760c2146102bc578063289a2f76146102d05780632b0088b4146102f05780632e2dc43e146102f957806336021ef4146103135780633a0dad8e146103275780634585e33b1461033a5780634ff0876a1461034d5780635488cd621461037257806358fac65b146103865780635dc228a0146103995780636e04ff0d146103ac5780636ff04153146103cd57806370604445146103e2578063715018a6146103f55780637158da7c146103fd57806379502c55146104105780637b103999146104235780637cdabf0a14610436578063800f9fad146104495780638da5cb5b146104525780638f5c94651461045a578063b8b2af7c14610463578063ba96ff1114610478578063be2683f01461048b578063c18e2a5c1461049e578063ca1f32f1146104a7578063d3f89f66146104b0578063da1f12ab146104be578063e2638ff1146104c6578063e2c4aaec146104ee578063eeb393c914610501578063f2fde38b14610514575b5f5ffd5b6101ec6101e73660046141f5565b610527565b005b60195461020290600160201b900460ff1681565b60405161020f9190614240565b60405180910390f35b60085461022d90600160b81b900461ffff1681565b60405161ffff909116815260200161020f565b6019546102539062010000900460ff1681565b60405160ff909116815260200161020f565b61028d61027336600461426e565b6001600160a01b03165f9081526012602052604090205490565b60405190815260200161020f565b60195461022d9061ffff1681565b6101ec6102b736600461426e565b610621565b60085461025390600160a01b900460ff1681565b6102e36102de366004614289565b61072a565b60405161020f91906142a0565b61028d60075481565b610301610752565b60405161020f96959493929190614327565b601954610253906301000000900460ff1681565b6004546102e3906001600160a01b031681565b6101ec6103483660046143e5565b6109ce565b60175461035d9063ffffffff1681565b60405163ffffffff909116815260200161020f565b60195461025390600160281b900460ff1681565b6102e3610394366004614289565b610b73565b6002546102e3906001600160a01b031681565b6103bf6103ba3660046143e5565b610b82565b60405161020f929190614451565b6103d5610f32565b60405161020f919061446b565b6101ec6103f0366004614289565b610fcc565b6101ec611033565b6008546102e3906001600160a01b031681565b6003546102e3906001600160a01b031681565b6005546102e3906001600160a01b031681565b6101ec610444366004614493565b611046565b61028d60095481565b6102e361114d565b61022d61271081565b60085461022d90600160a81b900461ffff1681565b61028d61048636600461426e565b61115b565b6101ec6104993660046144c4565b6111b4565b61028d601e5481565b61028d60065481565b601d5461022d9061ffff1681565b61271161028d565b61028d6104d436600461426e565b6001600160a01b03165f9081526011602052604090205490565b6101ec6104fc366004614289565b6112ba565b6101ec61050f36600461454c565b61132d565b6101ec61052236600461426e565b611414565b61052f611457565b60ff82161580610540575060ff8116155b1561055e576040516317dbc4cb60e21b815260040160405180910390fd5b60035f9054906101000a90046001600160a01b03166001600160a01b031663edcf9c1f6040518163ffffffff1660e01b8152600401602060405180830381865afa1580156105ae573d5f5f3e3d5ffd5b505050506040513d601f19601f820116820180604052508101906105d29190614567565b6105ef576040516312aecd8160e01b815260040160405180910390fd5b6019805463ffff000019166201000060ff9485160263ff00000019161763010000009290931691909102919091179055565b610629611457565b6001600160a01b0381166106505760405163d92e233d60e01b815260040160405180910390fd5b60035f9054906101000a90046001600160a01b03166001600160a01b031663edcf9c1f6040518163ffffffff1660e01b8152600401602060405180830381865afa1580156106a0573d5f5f3e3d5ffd5b505050506040513d601f19601f820116820180604052508101906106c49190614567565b6106e1576040516312aecd8160e01b815260040160405180910390fd5b600280546001600160a01b0319166001600160a01b0383169081179091556040517f6cc7ebdb6c8c53291c5ae16148cab9b049d23bf5bde5632900b40edff56fcb43905f90a250565b601c8181548110610739575f80fd5b5f918252602090912001546001600160a01b0316905081565b606080808080805f601954600160201b900460ff1660078111156107785761077861422c565b14610796576040516312aecd8160e01b815260040160405180910390fd5b5f600a600b018054806020026020016040519081016040528092919081815260200182805480156107ee57602002820191905f5260205f20905b81546001600160a01b031681526001909101906020018083116107d0575b505050505090505f5f61080083611489565b915091508161ffff166001600160401b0381111561082057610820614586565b604051908082528060200260200182016040528015610849578160200160208202803683370190505b5098508161ffff166001600160401b0381111561086857610868614586565b604051908082528060200260200182016040528015610891578160200160208202803683370190505b5097508061ffff166001600160401b038111156108b0576108b0614586565b6040519080825280602002602001820160405280156108d9578160200160208202803683370190505b5096508061ffff166001600160401b038111156108f8576108f8614586565b604051908082528060200260200182016040528015610921578160200160208202803683370190505b5095508161ffff166001600160401b0381111561094057610940614586565b604051908082528060200260200182016040528015610969578160200160208202803683370190505b5094508061ffff166001600160401b0381111561098857610988614586565b6040519080825280602002602001820160405280156109b1578160200160208202803683370190505b5093506109c3838a8a888b8b8a61152a565b505050909192939495565b6109d661114d565b6001600160a01b0316336001600160a01b031614158015610a0257506002546001600160a01b03163314155b15610a205760405163ea8e4eb560e01b815260040160405180910390fd5b610a2861170d565b6005811015610a4a576040516317dbc4cb60e21b815260040160405180910390fd5b5f80610a588385018561459a565b90925090506341659aab60e01b6001600160e01b0319831601610a8257610a7d611737565b610b64565b636ce38ed360e11b6001600160e01b0319831601610aa357610a7d81611a06565b635954faa160e01b6001600160e01b0319831601610ac457610a7d816121b7565b63dbd33d3560e01b6001600160e01b0319831601610ae457610a7d612832565b6292a80f60e51b6001600160e01b0319831601610b0357610a7d612d2f565b6265e66b60e01b6001600160e01b0319831601610b2357610a7d81613045565b63f4d3cc0960e01b6001600160e01b0319831601610b4457610a7d8161354e565b63c4b3cef760e01b6001600160e01b0319831601610b6457610b64613639565b5050610b6f60018055565b5050565b601b8181548110610739575f80fd5b5f606060035f9054906101000a90046001600160a01b03166001600160a01b031663edcf9c1f6040518163ffffffff1660e01b8152600401602060405180830381865afa158015610bd5573d5f5f3e3d5ffd5b505050506040513d601f19601f82011682018060405250810190610bf99190614567565b8015610c06575060185442115b15610c5857600191507fbe9a655586dceb82dfa0af992b5d8ae7fa45053cb7fd6f141f541da7572978c75f604051602001610c429291906145c2565b6040516020818303038152906040529050610f2b565b6001601954600160201b900460ff166007811115610c7857610c7861422c565b03610cc357600191507f2638e25a856cbfe28e0ae1857cb597cc2ceb873ce579b7d93c2258e45a754481601960059054906101000a900460ff16604051602001610c429291906145c2565b6002601954600160201b900460ff166007811115610ce357610ce361422c565b03610d2e57600191507fa6ab055f7fc0612ad6e844f7e1dd3a6df793560cd68d707affa0dd01c39ec8f1601960059054906101000a900460ff16604051602001610c429291906145c2565b6003601954600160201b900460ff166007811115610d4e57610d4e61422c565b03610d8a57600191507f242cc2cba236b9c457bb86deb0ad1fb8fe60d5bcafd69d02041c9c62f3ea1fbd5f604051602001610c429291906145c2565b6004601954600160201b900460ff166007811115610daa57610daa61422c565b03610de657600191507fedaafe206508e00f40674bb87dda745bccfe8a3f3f6d6eaaf6db5f44021a1c135f604051602001610c429291906145c2565b6005601954600160201b900460ff166007811115610e0657610e0661422c565b03610e5157600191507fff9a199536c068c55c334e40ebfa355733f79152332d6586d615c5bb37fd5c17601960059054906101000a900460ff16604051602001610c429291906145c2565b6006601954600160201b900460ff166007811115610e7157610e7161422c565b03610ebc57600191507f0b2c33f7f9ce5cba78feb12c50c7fc97cbcfb655f151982783c0f2faf7567b0b601960059054906101000a900460ff16604051602001610c429291906145c2565b6007601954600160201b900460ff166007811115610edc57610edc61422c565b03610f1857600191507f3b4c310984a9fe486c05a56b52659c09d4bf9f3ef9b799ad52ee29a7d805741e5f604051602001610c429291906145c2565b505060408051602081019091525f808252905b9250929050565b60605f601954600160201b900460ff166007811115610f5357610f5361422c565b14610f71576040516312aecd8160e01b815260040160405180910390fd5b6015805460408051602080840282018101909252828152929190830182828015610fc257602002820191905f5260205f20905b81546001600160a01b03168152600190910190602001808311610fa4575b5050505050905090565b6004546001600160a01b03163314610ff75760405163ea8e4eb560e01b815260040160405180910390fd5b60095481111561101a57604051632ca2f52b60e11b815260040160405180910390fd5b8060095f82825461102b91906145f3565b909155505050565b61103b611457565b6110445f613805565b565b61104e611457565b60328261ffff16118061106657506107d08161ffff16115b15611084576040516317dbc4cb60e21b815260040160405180910390fd5b60035f9054906101000a90046001600160a01b03166001600160a01b031663edcf9c1f6040518163ffffffff1660e01b8152600401602060405180830381865afa1580156110d4573d5f5f3e3d5ffd5b505050506040513d601f19601f820116820180604052508101906110f89190614567565b611115576040516312aecd8160e01b815260040160405180910390fd5b6008805463ffffffff60a81b1916600160a81b61ffff9485160261ffff60b81b191617600160b81b9290931691909102919091179055565b5f546001600160a01b031690565b5f80601954600160201b900460ff16600781111561117b5761117b61422c565b14611199576040516312aecd8160e01b815260040160405180910390fd5b506001600160a01b03165f908152600a602052604090205490565b6112268585858080601f0160208091040260200160405190810160405280939291908181526020018383808284375f9201919091525050604080516020601f890181900481028201810190925287815292508791508690819084018382808284375f9201919091525061385492505050565b604080515f602082015201604051602081830303815290604052805190602001208484604051611257929190614606565b60405180910390200361127d576019805461ffff60201b1916600160221b1790556112b3565b61128983850185614667565b805161129d91601f91602090910190614120565b506019805461ffff60201b1916600360201b1790555b5050505050565b6004546001600160a01b031633146112e55760405163ea8e4eb560e01b815260040160405180910390fd5b5f8113156113095780601e5f8282546112fe91906146f2565b9091555061132a9050565b5f81121561132a5761131a81614705565b601e5f82825461102b91906145f3565b50565b611335611457565b8063ffffffff165f0361135b576040516317dbc4cb60e21b815260040160405180910390fd5b60035f9054906101000a90046001600160a01b03166001600160a01b031663edcf9c1f6040518163ffffffff1660e01b8152600401602060405180830381865afa1580156113ab573d5f5f3e3d5ffd5b505050506040513d601f19601f820116820180604052508101906113cf9190614567565b6113ec576040516312aecd8160e01b815260040160405180910390fd5b6017805463ffffffff191663ffffffff831690811790915561140e90426146f2565b60185550565b61141c611457565b6001600160a01b03811661144e575f604051631e4fbdf760e01b815260040161144591906142a0565b60405180910390fd5b61132a81613805565b3361146061114d565b6001600160a01b031614611044573360405163118cdaa760e01b815260040161144591906142a0565b80515f908190815b8161ffff168161ffff161015611523575f858261ffff16815181106114b8576114b861471f565b6020908102919091018101516001600160a01b0381165f9081526013909252604090912054909150156114f1576114ee85614733565b94505b6001600160a01b0381165f908152601460205260409020541561151a5761151784614733565b93505b50600101611491565b5050915091565b86515f80805b8361ffff168161ffff161015611700575f8b8261ffff16815181106115575761155761471f565b6020908102919091018101516001600160a01b0381165f908152601383526040808220546014909452902054909250811561163c57828d8761ffff16815181106115a3576115a361471f565b60200260200101906001600160a01b031690816001600160a01b031681525050818c8761ffff16815181106115da576115da61471f565b6020908102919091018101919091526001600160a01b0384165f908152600a909152604090205460065461160f9184916138bd565b8b8761ffff16815181106116255761162561471f565b602090810291909101015261163986614733565b95505b80156116f257828a8661ffff16815181106116595761165961471f565b60200260200101906001600160a01b031690816001600160a01b03168152505080898661ffff16815181106116905761169061471f565b6020908102919091018101919091526001600160a01b0384165f908152600a90915260409020546006546116c59183916138bd565b888661ffff16815181106116db576116db61471f565b60209081029190910101526116ef85614733565b94505b505050806001019050611530565b5050505050505050505050565b60026001540361173057604051633ee5aeb560e01b815260040160405180910390fd5b6002600155565b601854421115806117b9575060035f9054906101000a90046001600160a01b03166001600160a01b031663edcf9c1f6040518163ffffffff1660e01b8152600401602060405180830381865afa158015611793573d5f5f3e3d5ffd5b505050506040513d601f19601f820116820180604052508101906117b79190614567565b155b156117d75760405163085de62560e01b815260040160405180910390fd5b6017546117ea9063ffffffff16426146f2565b6018555f5b60155461ffff821610156118c2575f600a600b018261ffff16815481106118185761181861471f565b5f9182526020808320909101546001600160a01b03168252600a81526040808320839055600b8252808320839055600d82528083208390556011825280832083905560128252808320839055600f8252808320839055601382528083208390556014825280832083905560168252808320805460ff19169055601a54600c8352818420819055600e8352818420819055601090925290912055506118bb81614733565b90506117ef565b506118ce60155f614165565b6118d9601f5f614165565b600354604051631da09e4360e31b81526001600160a01b039091169063ed04f21890611909905f90600401614753565b5f60405180830381865afa158015611923573d5f5f3e3d5ffd5b505050506040513d5f823e601f3d908101601f1916820160405261194a91908101906147d5565b805161195e91601b91602090910190614180565b50600354604051631da09e4360e31b81526001600160a01b039091169063ed04f2189061199090600190600401614753565b5f60405180830381865afa1580156119aa573d5f5f3e3d5ffd5b505050506040513d5f823e601f3d908101601f191682016040526119d191908101906147d5565b80516119e591601c91602090910190614180565b50601d805461ffff191690556019805460ff60201b1916600160201b179055565b6001601954600160201b900460ff166007811115611a2657611a2661422c565b14611a445760405163baf3f0f760e01b815260040160405180910390fd5b60198054600590611a5e90600160281b900460ff16614806565b91906101000a81548160ff021916908360ff1602179055505f601960029054906101000a900460ff1682611a92919061481b565b60195460ff91821692505f91611aaf91620100009004168361483e565b601b5490915061ffff82161180611acb5750601b5461ffff8216145b15611ae95750601b546019805461ffff60201b1916600160211b1790555b815b8161ffff168161ffff1610156121b1575f601b8261ffff1681548110611b1357611b1361471f565b905f5260205f20015f9054906101000a90046001600160a01b031690505f5f826001600160a01b031663d3d034586040518163ffffffff1660e01b81526004015f60405180830381865afa158015611b6d573d5f5f3e3d5ffd5b505050506040513d5f823e601f3d908101601f19168201604052611b949190810190614858565b90925090505f805b83518161ffff161015611e80575f848261ffff1681518110611bc057611bc061471f565b602002602001015190505f848361ffff1681518110611be157611be161471f565b6020026020010151905080600a6001015f846001600160a01b03166001600160a01b031681526020019081526020015f205f828254611c2091906146f2565b90915550506001600160a01b0382165f9081526016602052604090205460ff16611da4576008546001600160a01b0390811690831603611d1c57600854611cff90611c7690600160a01b900460ff16600a6149f9565b600860149054906101000a900460ff1660035f9054906101000a90046001600160a01b03166001600160a01b031663567ba7136040518163ffffffff1660e01b8152600401602060405180830381865afa158015611cd6573d5f5f3e3d5ffd5b505050506040513d601f19601f82011682018060405250810190611cfa9190614a07565b61396e565b6001600160a01b0383165f908152600a6020526040902055611da4565b6005546040516341976e0960e01b81526001600160a01b03909116906341976e0990611d4c9085906004016142a0565b602060405180830381865afa158015611d67573d5f5f3e3d5ffd5b505050506040513d601f19601f82011682018060405250810190611d8b9190614a22565b6001600160a01b0383165f908152600a60205260409020555b6001600160a01b0382165f908152600a6020526040812054600654909190611e5490611dd390849086906138bd565b600354604051633c2e3e7b60e11b81526001600160a01b039091169063785c7cf690611e039089906004016142a0565b602060405180830381865afa158015611e1e573d5f5f3e3d5ffd5b505050506040513d601f19601f82011682018060405250810190611e429190614a07565b600854600160a01b900460ff1661396e565b9050611e6081876146f2565b9550611e6b846139d8565b5050505080611e7990614733565b9050611b9c565b506008545f90611e9e90600160a81b900461ffff16836127106138bd565b601754909150611ebf90829063ffffffff908116906301e13380906138bd16565b90508060095f828254611ed291906146f2565b90915550611ee2905081836145f3565b60405163728d42fb60e11b8152600481018290529092505f906001600160a01b0387169063e51a85f690602401602060405180830381865afa158015611f2a573d5f5f3e3d5ffd5b505050506040513d601f19601f82011682018060405250810190611f4e9190614a22565b9050611f5a81846145f3565b6008549093505f90611f7a90600160b81b900461ffff16836127106138bd565b90508060095f828254611f8d91906146f2565b90915550611f9d905081836145f3565b601954604051630df571f760e01b815261ffff9091166004820152602481018290529092506001600160a01b03881690630df571f7906044015f604051808303815f87803b158015611fed575f5ffd5b505af1158015611fff573d5f5f3e3d5ffd5b505050505f876001600160a01b031663a68a5267896001600160a01b0316630a605c6d6040518163ffffffff1660e01b8152600401602060405180830381865afa15801561204f573d5f5f3e3d5ffd5b505050506040513d601f19601f820116820180604052508101906120739190614a22565b875f6040518463ffffffff1660e01b815260040161209393929190614a39565b602060405180830381865afa1580156120ae573d5f5f3e3d5ffd5b505050506040513d601f19601f820116820180604052508101906120d29190614a22565b6001600160a01b0389165f90815260116020526040902086905590506120f881866145f3565b94505f886001600160a01b031663f64c6f326040518163ffffffff1660e01b8152600401602060405180830381865afa158015612137573d5f5f3e3d5ffd5b505050506040513d601f19601f8201168201806040525081019061215b9190614a22565b6001600160a01b038a165f908152601260205260409020879055905061218181876146f2565b6001600160a01b039099165f908152600d6020526040902098909855505060019096019550611aeb945050505050565b50505050565b6002601954600160201b900460ff1660078111156121d7576121d761422c565b146121f55760405163baf3f0f760e01b815260040160405180910390fd5b6019805460059061220f90600160281b900460ff16614806565b82546101009290920a60ff818102199093169183160217909155601c5460195490915f91612246916301000000909104168461481b565b60195460ff91821692505f916122649163010000009004168361483e565b90508261ffff168161ffff16118061228357508261ffff168161ffff16145b1561228b5750815b815b8161ffff168161ffff161015612664575f601c8261ffff16815481106122b5576122b561471f565b5f918252602091829020015460408051631b9d6fc560e31b815290516001600160a01b039092169350839263dceb7e28926004808401938290030181865afa158015612303573d5f5f3e3d5ffd5b505050506040513d601f19601f820116820180604052508101906123279190614567565b612331575061265c565b601d80545f906123449061ffff16614733565b91906101000a81548161ffff021916908361ffff1602179055505f5f826001600160a01b031663d3d034586040518163ffffffff1660e01b81526004015f60405180830381865afa15801561239b573d5f5f3e3d5ffd5b505050506040513d5f823e601f3d908101601f191682016040526123c29190810190614858565b601a5491935091505f5b83518161ffff16101561263c575f848261ffff16815181106123f0576123f061471f565b602002602001015190505f848361ffff16815181106124115761241161471f565b6020026020010151905061244b600a6002015f846001600160a01b03166001600160a01b031681526020019081526020015f205482613a5d565b6001600160a01b0383165f908152600c602090815260408083209390935560169052205460ff1661254d576008546001600160a01b03908116908316036124c5576008546124a890611c7690600160a01b900460ff16600a6149f9565b6001600160a01b0383165f908152600a602052604090205561254d565b6005546040516341976e0960e01b81526001600160a01b03909116906341976e09906124f59085906004016142a0565b602060405180830381865afa158015612510573d5f5f3e3d5ffd5b505050506040513d601f19601f820116820180604052508101906125349190614a22565b6001600160a01b0383165f908152600a60205260409020555b6001600160a01b0382165f908152600a60205260408120549061258361257b61257584613a94565b85613aa9565b600654613ad7565b600354604051633c2e3e7b60e11b81529192505f9161260f9184916001600160a01b039091169063785c7cf6906125be908a906004016142a0565b602060405180830381865afa1580156125d9573d5f5f3e3d5ffd5b505050506040513d601f19601f820116820180604052508101906125fd9190614a07565b600854600160a01b900460ff16613afc565b905061261b8782613a5d565b9650612626856139d8565b50505050508061263590614733565b90506123cc565b506001600160a01b039093165f908152600e602052604090209290925550505b60010161228d565b508261ffff168161ffff16036121b15761ffff811615806126895750601d5461ffff16155b156126a7576019805461ffff60201b1916600160221b1790556121b1565b6015545f6126b5828661483e565b61ffff166001600160401b038111156126d0576126d0614586565b6040519080825280602002602001820160405280156126f9578160200160208202803683370190505b5090505f5b8561ffff168161ffff161015612783575f601c8261ffff16815481106127265761272661471f565b5f9182526020808320909101546001600160a01b0316808352600e90915260409091205490915061275681613b5d565b5080848461ffff168151811061276e5761276e61471f565b602090810291909101015250506001016126fe565b505f5b8261ffff168161ffff161015612817575f600a600b018261ffff16815481106127b1576127b161471f565b5f9182526020808320909101546001600160a01b0316808352600c9091526040909120549091506127e181613b5d565b5080846127ee858b61483e565b61ffff16815181106128025761280261471f565b60209081029190910101525050600101612786565b5061282981630be2683f60e41b613b6c565b50505050505050565b6003601954600160201b900460ff1660078111156128525761285261422c565b146128705760405163baf3f0f760e01b815260040160405180910390fd5b601c546015545f5b8261ffff168161ffff161015612c6a575f601c8261ffff16815481106128a0576128a061471f565b5f918252602091829020015460408051631b9d6fc560e31b815290516001600160a01b039092169350839263dceb7e28926004808401938290030181865afa1580156128ee573d5f5f3e3d5ffd5b505050506040513d601f19601f820116820180604052508101906129129190614567565b61291c5750612c62565b5f601f8361ffff16815481106129345761293461471f565b5f91825260208220015460085490925061295c90600160a81b900461ffff16836127106138bd565b60175490915061297d90829063ffffffff908116906301e13380906138bd16565b90508060095f82825461299091906146f2565b909155506129a0905081836145f3565b60405163728d42fb60e11b8152600481018290529092505f906001600160a01b0385169063e51a85f690602401602060405180830381865afa1580156129e8573d5f5f3e3d5ffd5b505050506040513d601f19601f82011682018060405250810190612a0c9190614a22565b9050612a1881846145f3565b6008549093505f90612a3890600160b81b900461ffff16836127106138bd565b90508060095f828254612a4b91906146f2565b90915550612a5b905081836145f3565b601954604051630df571f760e01b815261ffff9091166004820152602481018290529092506001600160a01b03861690630df571f7906044015f604051808303815f87803b158015612aab575f5ffd5b505af1158015612abd573d5f5f3e3d5ffd5b505050505f856001600160a01b031663a68a5267876001600160a01b0316630a605c6d6040518163ffffffff1660e01b8152600401602060405180830381865afa158015612b0d573d5f5f3e3d5ffd5b505050506040513d601f19601f82011682018060405250810190612b319190614a22565b875f6040518463ffffffff1660e01b8152600401612b5193929190614a39565b602060405180830381865afa158015612b6c573d5f5f3e3d5ffd5b505050506040513d601f19601f82011682018060405250810190612b909190614a22565b6001600160a01b0387165f9081526011602052604090208690559050612bb681866145f3565b94505f866001600160a01b031663f64c6f326040518163ffffffff1660e01b8152600401602060405180830381865afa158015612bf5573d5f5f3e3d5ffd5b505050506040513d601f19601f82011682018060405250810190612c199190614a22565b6001600160a01b0388165f9081526012602052604090208790559050612c3f81876146f2565b6001600160a01b039097165f908152600d60205260409020969096555050505050505b600101612878565b505f5b8161ffff168161ffff161015612d16575f600a600b018261ffff1681548110612c9857612c9861471f565b5f9182526020822001546001600160a01b03169150601f612cb9848761483e565b61ffff1681548110612ccd57612ccd61471f565b5f9182526020808320909101546001600160a01b0385168352600b90915260408220805491935083929091612d039084906146f2565b909155505060019092019150612c6d9050565b50506019805461ffff60201b1916600160221b17905550565b6004601954600160201b900460ff166007811115612d4f57612d4f61422c565b14612d6d5760405163baf3f0f760e01b815260040160405180910390fd5b6019805460ff60201b1916600560201b179055601b54601c545f805b8361ffff168161ffff161015612ded575f601b8261ffff1681548110612db157612db161471f565b5f9182526020808320909101546001600160a01b0316808352600d909152604090912054909150612de290846146f2565b925050600101612d89565b505f5b8261ffff168161ffff161015612e54575f601c8261ffff1681548110612e1857612e1861471f565b5f9182526020808320909101546001600160a01b0316808352600d909152604090912054909150612e4990846146f2565b925050600101612df0565b50600480546040805163dab26e3b60e01b815290515f93612ecb936001600160a01b03169263dab26e3b92818301926020928290030181865afa158015612e9d573d5f5f3e3d5ffd5b505050506040513d601f19601f82011682018060405250810190612ec19190614a22565b83906127106138bd565b905080601e541115612edd5750505050565b5f601e5482612eec91906145f3565b90505f5b8561ffff168161ffff161015612f8a575f601b8261ffff1681548110612f1857612f1861471f565b5f9182526020808320909101546001600160a01b0316808352600d909152604082205490925090612f4a8583896138bd565b6001600160a01b0384165f908152600d6020526040812080549293508392909190612f769084906145f3565b909155505060019093019250612ef0915050565b505f5b8461ffff168161ffff161015613027575f601c8261ffff1681548110612fb557612fb561471f565b5f9182526020808320909101546001600160a01b0316808352600d909152604082205490925090612fe78583896138bd565b6001600160a01b0384165f908152600d60205260408120805492935083929091906130139084906145f3565b909155505060019093019250612f8d915050565b5080601e5f82825461303991906146f2565b90915550505050505050565b6005601954600160201b900460ff1660078111156130655761306561422c565b146130835760405163baf3f0f760e01b815260040160405180910390fd5b6019805460059061309d90600160281b900460ff16614806565b91906101000a81548160ff021916908360ff1602179055505f601960029054906101000a900460ff16826130d1919061481b565b60195460ff91821692505f916130ee91620100009004168361483e565b601b5490915061ffff8216118061310a5750601b5461ffff8216145b156131285750601b546019805461ffff60201b1916600360211b1790555b815b8161ffff168161ffff1610156121b1575f601b8261ffff16815481106131525761315261471f565b905f5260205f20015f9054906101000a90046001600160a01b031690505f5f826001600160a01b031663b6eba6536040518163ffffffff1660e01b81526004015f60405180830381865afa1580156131ac573d5f5f3e3d5ffd5b505050506040513d5f823e601f3d908101601f191682016040526131d39190810190614a65565b6001600160a01b0385165f908152600d6020526040812054835193955091935090916001600160401b0381111561320c5761320c614586565b60405190808252806020026020018201604052801561325057816020015b604080518082019091525f808252602082015281526020019060019003908161322a5790505b5090505f5b84518161ffff1610156134e2575f858261ffff16815181106132795761327961471f565b602002602001015190505f858361ffff168151811061329a5761329a61471f565b6020908102919091018101516001600160a01b0384165f908152601690925260409091205490915060ff166133a0576008546001600160a01b0390811690831603613318576008546132fb90611c7690600160a01b900460ff16600a6149f9565b6001600160a01b0383165f908152600a60205260409020556133a0565b6005546040516341976e0960e01b81526001600160a01b03909116906341976e09906133489085906004016142a0565b602060405180830381865afa158015613363573d5f5f3e3d5ffd5b505050506040513d601f19601f820116820180604052508101906133879190614a22565b6001600160a01b0383165f908152600a60205260409020555b6001600160a01b0382165f908152600a6020526040812054600654600754919291613442916133e89185906133e1908c9063ffffffff808b1691906138bd16565b91906138bd565b600854600354604051633c2e3e7b60e11b8152600160a01b90920460ff16916001600160a01b039091169063785c7cf690613427908a906004016142a0565b602060405180830381865afa158015611cd6573d5f5f3e3d5ffd5b90506040518060400160405280856001600160a01b031681526020018263ffffffff16815250868661ffff168151811061347e5761347e61471f565b602002602001018190525080600a6005015f866001600160a01b03166001600160a01b031681526020019081526020015f205f8282546134be91906146f2565b909155506134cd9050846139d8565b50505050806134db90614733565b9050613255565b50604051630415112560e21b81526001600160a01b038616906310544494906135119084908690600401614b1e565b5f604051808303815f87803b158015613528575f5ffd5b505af115801561353a573d5f5f3e3d5ffd5b50505050505050505080600101905061312a565b6006601954600160201b900460ff16600781111561356e5761356e61422c565b1461358c5760405163baf3f0f760e01b815260040160405180910390fd5b601980546005906135a690600160281b900460ff16614806565b82546101009290920a60ff818102199093169183160217909155601c5460195490915f916135dd916301000000909104168461481b565b60195460ff91821692505f916135fb9163010000009004168361483e565b90508261ffff168161ffff16118061361a57508261ffff168161ffff16145b156121b15750506019805461ffff60201b1916600760201b1790555050565b6007601954600160201b900460ff1660078111156136595761365961422c565b146136775760405163baf3f0f760e01b815260040160405180910390fd5b5f600a600b018054806020026020016040519081016040528092919081815260200182805480156136cf57602002820191905f5260205f20905b81546001600160a01b031681526001909101906020018083116136b1575b505083519394505f925050505b8161ffff168161ffff16101561379a575f838261ffff16815181106137035761370361471f565b6020908102919091018101516001600160a01b0381165f908152600b8352604080822054600f909452902054909250808211156137615761374481836145f3565b6001600160a01b0384165f9081526013602052604090205561378c565b8181111561378c5761377382826145f3565b6001600160a01b0384165f908152601460205260409020555b5050508060010190506136dc565b506019805460ff60201b19811682555f906137b89061ffff16614733565b82546101009290920a61ffff8181021990931691831602179091556019546040519116907f0bc12479581640d161e016cef21aa834cb6d6326bbc0d8445e58d56403adf2dc905f90a25050565b5f80546001600160a01b038381166001600160a01b0319831681178455604051919092169283917f8be0079c531659141344cd1fd0a4f28419497f9722a3daafe3b4186f6b6457e09190a35050565b5f61385e84613b78565b90505f61386c828585613c14565b90508061388c5760405163cf6c44e960e01b815260040160405180910390fd5b60405185907f1af0453083661051f6e56e5c070792320652e612154bf9af8637bb1e7655b99d905f90a25050505050565b5f5f5f6138ca8686613ce1565b91509150815f036138ee578381816138e4576138e4614b85565b0492505050613967565b818411613905576139056003851502601118613cfd565b5f848688095f868103871696879004966002600389028118808a02820302808a02820302808a02820302808a02820302808a02820302808a02909103029181900381900460010185841190960395909502919093039390930492909217029150505b9392505050565b5f8260ff168260ff1611156139a3576139878383614b99565b61399290600a6149f9565b61399c9085614bb2565b9050613967565b8260ff168260ff1610156139d0576139bb8284614b99565b6139c690600a6149f9565b61399c9085614bc9565b509192915050565b6001600160a01b0381165f9081526016602052604090205460ff1661132a576015805460018181019092557f55f448fdea98c4d29eb340757ef0a66cd03dbb9538908a6a81d96026b71ec4750180546001600160a01b0384166001600160a01b031990911681179091555f908152601660205260409020805460ff1916909117905550565b5f82613a6f57613a6c5f613a94565b92505b81613a8057613a7d5f613a94565b91505b613a8b83835f613d0e565b90505b92915050565b5f613a8e826001600160801b03166006613dae565b5f82613abb57613ab85f613a94565b92505b81613acc57613ac95f613a94565b91505b613a8b83835f613e35565b5f82613ae957613ae65f613a94565b92505b613a8b836001600160801b038416613e8b565b5f8260ff168260ff161115613b315761399c84613b2c613b1c8686614b99565b613b2790600a6149f9565b613a94565b613aa9565b8260ff168260ff1610156139d05761399c84613b4d8486614b99565b613b5890600a6149f9565b613ad7565b5f613b688230613f1a565b5090565b5f613a8b83835f613f81565b60605f613b83614082565b5f84815260018201602052604081205491925003613bb45760405163d66ca67560e01b815260040160405180910390fd5b5f83815260018201602090815260409182902080548351818402810184019094528084529091830182828015613c0757602002820191905f5260205f20905b815481526020019060010190808311613bf3575b5050505050915050919050565b5f5f83516020613c2491906146f2565b613c2f9060206146f2565b90505f8482604051602001613c45929190614be8565b60405160208183030381529060405290505f613c5f6140a6565b60038101546040516378542ead60e01b81529192506001600160a01b0316906378542ead90613c96908a9086908a90600401614c02565b6020604051808303815f875af1158015613cb2573d5f5f3e3d5ffd5b505050506040513d601f19601f82011682018060405250810190613cd69190614567565b979650505050505050565b5f805f1983850993909202808410938190039390930393915050565b634e487b715f52806020526024601cfd5b5f5f8215613d215750600160f81b613d24565b505f5b5f613d2d6140a6565b600181015460405163022f65e760e31b81529192506001600160a01b03169063117b2f3890613d6490899089908790600401614c3a565b6020604051808303815f875af1158015613d80573d5f5f3e3d5ffd5b505050506040513d601f19601f82011682018060405250810190613da49190614a22565b9695505050505050565b5f5f613db86140a6565b6001810154604051639cd07acb60e01b81529192506001600160a01b031690639cd07acb90613ded9087908790600401614c5a565b6020604051808303815f875af1158015613e09573d5f5f3e3d5ffd5b505050506040513d601f19601f82011682018060405250810190613e2d9190614a22565b949350505050565b5f5f8215613e485750600160f81b613e4b565b505f5b5f613e546140a6565b6001810154604051630afe14ad60e31b81529192506001600160a01b0316906357f0a56890613d6490899089908790600401614c3a565b5f600160f81b81613e9a6140a6565b6001810154604051635a53accb60e01b81529192506001600160a01b031690635a53accb90613ed190889088908790600401614c3a565b6020604051808303815f875af1158015613eed573d5f5f3e3d5ffd5b505050506040513d601f19601f82011682018060405250810190613f119190614a22565b95945050505050565b5f613f236140a6565b8054604051635ca4b5b160e11b8152600481018690526001600160a01b03858116602483015292935091169063b9496b62906044015f604051808303815f87803b158015613f6f575f5ffd5b505af1158015612829573d5f5f3e3d5ffd5b5f5f613f8b614082565b8054925090505f613f9a6140a6565b8054604051637d6e912360e11b81529192506001600160a01b03169063fadd224690613fca908990600401614c7e565b5f604051808303815f87803b158015613fe1575f5ffd5b505af1158015613ff3573d5f5f3e3d5ffd5b5050506002820154604051633263b83b60e01b81526001600160a01b039091169150633263b83b90869061402f9087908b908b90600401614c90565b5f604051808303818588803b158015614046575f5ffd5b505af1158015614058573d5f5f3e3d5ffd5b505050505061406783876140ca565b8154825f61407483614cc1565b919050555050509392505050565b7f878245876662ba28a480c5ea71726db859fb50222b0a3d7cbbc21cfa336faf0090565b7f9e7b61f58c47dc699ac88507c4f5bb9f121c03808c5676a8078fe583e464970090565b5f6140d3614082565b5f8481526001820160205260409020549091501561410457604051633f06d22b60e01b815260040160405180910390fd5b5f838152600182016020908152604090912083516121b1928501905b828054828255905f5260205f20908101928215614159579160200282015b8281111561415957825182559160200191906001019061413e565b50613b689291506141d3565b5080545f8255905f5260205f209081019061132a91906141d3565b828054828255905f5260205f20908101928215614159579160200282015b8281111561415957825182546001600160a01b0319166001600160a01b0390911617825560209092019160019091019061419e565b5b80821115613b68575f81556001016141d4565b60ff8116811461132a575f5ffd5b5f5f60408385031215614206575f5ffd5b8235614211816141e7565b91506020830135614221816141e7565b809150509250929050565b634e487b7160e01b5f52602160045260245ffd5b60208101600883106142545761425461422c565b91905290565b6001600160a01b038116811461132a575f5ffd5b5f6020828403121561427e575f5ffd5b81356139678161425a565b5f60208284031215614299575f5ffd5b5035919050565b6001600160a01b0391909116815260200190565b5f8151808452602084019350602083015f5b828110156142ed5781516001600160a01b03168652602095860195909101906001016142c6565b5093949350505050565b5f8151808452602084019350602083015f5b828110156142ed578151865260209586019590910190600101614309565b60c081525f61433960c08301896142b4565b828103602084015261434b81896142f7565b9050828103604084015261435f81886142b4565b9050828103606084015261437381876142f7565b9050828103608084015261438781866142f7565b905082810360a084015261439b81856142f7565b9998505050505050505050565b5f5f83601f8401126143b8575f5ffd5b5081356001600160401b038111156143ce575f5ffd5b602083019150836020828501011115610f2b575f5ffd5b5f5f602083850312156143f6575f5ffd5b82356001600160401b0381111561440b575f5ffd5b614417858286016143a8565b90969095509350505050565b5f81518084528060208401602086015e5f602082860101526020601f19601f83011685010191505092915050565b8215158152604060208201525f613e2d6040830184614423565b602081525f613a8b60208301846142b4565b803561ffff8116811461448e575f5ffd5b919050565b5f5f604083850312156144a4575f5ffd5b6144ad8361447d565b91506144bb6020840161447d565b90509250929050565b5f5f5f5f5f606086880312156144d8575f5ffd5b8535945060208601356001600160401b038111156144f4575f5ffd5b614500888289016143a8565b90955093505060408601356001600160401b0381111561451e575f5ffd5b61452a888289016143a8565b969995985093965092949392505050565b63ffffffff8116811461132a575f5ffd5b5f6020828403121561455c575f5ffd5b81356139678161453b565b5f60208284031215614577575f5ffd5b81518015158114613967575f5ffd5b634e487b7160e01b5f52604160045260245ffd5b5f5f604083850312156145ab575f5ffd5b82356001600160e01b031981168114614211575f5ffd5b6001600160e01b031992909216825260ff16602082015260400190565b634e487b7160e01b5f52601160045260245ffd5b81810381811115613a8e57613a8e6145df565b818382375f9101908152919050565b604051601f8201601f191681016001600160401b038111828210171561463d5761463d614586565b604052919050565b5f6001600160401b0382111561465d5761465d614586565b5060051b60200190565b5f60208284031215614677575f5ffd5b81356001600160401b0381111561468c575f5ffd5b8201601f8101841361469c575f5ffd5b80356146af6146aa82614645565b614615565b8082825260208201915060208360051b8501019250868311156146d0575f5ffd5b6020840193505b82841015613da45783358252602093840193909101906146d7565b80820180821115613a8e57613a8e6145df565b5f600160ff1b8201614719576147196145df565b505f0390565b634e487b7160e01b5f52603260045260245ffd5b5f61ffff821661ffff810361474a5761474a6145df565b60010192915050565b60208101600283106142545761425461422c565b5f82601f830112614776575f5ffd5b81516147846146aa82614645565b8082825260208201915060208360051b8601019250858311156147a5575f5ffd5b602085015b838110156147cb5780516147bd8161425a565b8352602092830192016147aa565b5095945050505050565b5f602082840312156147e5575f5ffd5b81516001600160401b038111156147fa575f5ffd5b613e2d84828501614767565b5f60ff821660ff810361474a5761474a6145df565b60ff8181168382160290811690818114614837576148376145df565b5092915050565b61ffff8181168382160190811115613a8e57613a8e6145df565b5f5f60408385031215614869575f5ffd5b82516001600160401b0381111561487e575f5ffd5b61488a85828601614767565b602085015190935090506001600160401b038111156148a7575f5ffd5b8301601f810185136148b7575f5ffd5b80516148c56146aa82614645565b8082825260208201915060208360051b8501019250878311156148e6575f5ffd5b6020840193505b828410156149085783518252602093840193909101906148ed565b809450505050509250929050565b6001815b600184111561495157808504811115614935576149356145df565b600184161561494357908102905b60019390931c92800261491a565b935093915050565b5f8261496757506001613a8e565b8161497357505f613a8e565b81600181146149895760028114614993576149af565b6001915050613a8e565b60ff8411156149a4576149a46145df565b50506001821b613a8e565b5060208310610133831016604e8410600b84101617156149d2575081810a613a8e565b6149de5f198484614916565b805f19048211156149f1576149f16145df565b029392505050565b5f613a8b60ff841683614959565b5f60208284031215614a17575f5ffd5b8151613967816141e7565b5f60208284031215614a32575f5ffd5b5051919050565b838152602081018390526060810160048310614a5757614a5761422c565b826040830152949350505050565b5f5f60408385031215614a76575f5ffd5b82516001600160401b03811115614a8b575f5ffd5b614a9785828601614767565b602085015190935090506001600160401b03811115614ab4575f5ffd5b8301601f81018513614ac4575f5ffd5b8051614ad26146aa82614645565b8082825260208201915060208360051b850101925087831115614af3575f5ffd5b6020840193505b82841015614908578351614b0d8161453b565b825260209384019390910190614afa565b604080825283519082018190525f9060208501906060840190835b81811015614b7257835180516001600160a01b0316845260209081015163ffffffff168185015290930192604090920191600101614b39565b5050602093909301939093525092915050565b634e487b7160e01b5f52601260045260245ffd5b60ff8281168282160390811115613a8e57613a8e6145df565b8082028115828204841417613a8e57613a8e6145df565b5f82614be357634e487b7160e01b5f52601260045260245ffd5b500490565b5f83518060208601845e9190910191825250602001919050565b606081525f614c1460608301866142f7565b8281036020840152614c268186614423565b90508281036040840152613da48185614423565b92835260208301919091526001600160f81b031916604082015260600190565b8281526040810160548310614c7157614c7161422c565b8260208301529392505050565b602081525f613a8b60208301846142f7565b838152606060208201525f614ca860608301856142f7565b905063ffffffff60e01b83166040830152949350505050565b5f60018201614cd257614cd26145df565b506001019056fea2646970667358221220945393f29d540f434e2cec449d67773f5e474f7e942071ef856c4873afa6030c64736f6c634300081c00339e7b61f58c47dc699ac88507c4f5bb9f121c03808c5676a8078fe583e46497019e7b61f58c47dc699ac88507c4f5bb9f121c03808c5676a8078fe583e4649700",
  "linkReferences": {},
  "deployedLinkReferences": {}
}