{
  "_format": "hh-sol-artifact-1",
  "contractName": "InternalStatesOrchestrator",
  "sourceName": "contracts/orchestrators/InternalStatesOrchestrator.sol",
  "abi": [
    {
      "inputs": [
        {
          "internalType": "address",
          "name": "target",
          "type": "address"
        }
      ],
      "name": "AddressEmptyCode",
      "type": "error"
    },
    {
      "inputs": [
        {
          "internalType": "address",
          "name": "implementation",
          "type": "address"
        }
      ],
      "name": "ERC1967InvalidImplementation",
      "type": "error"
    },
    {
      "inputs": [],
      "name": "ERC1967NonPayable",
      "type": "error"
    },
    {
      "inputs": [],
      "name": "FailedCall",
      "type": "error"
    },
    {
      "inputs": [],
      "name": "InvalidArguments",
      "type": "error"
    },
    {
      "inputs": [],
      "name": "InvalidInitialization",
      "type": "error"
    },
    {
      "inputs": [],
      "name": "InvalidState",
      "type": "error"
    },
    {
      "inputs": [],
      "name": "NotAuthorized",
      "type": "error"
    },
    {
      "inputs": [],
      "name": "NotInitializing",
      "type": "error"
    },
    {
      "inputs": [
        {
          "internalType": "address",
          "name": "owner",
          "type": "address"
        }
      ],
      "name": "OwnableInvalidOwner",
      "type": "error"
    },
    {
      "inputs": [
        {
          "internalType": "address",
          "name": "account",
          "type": "address"
        }
      ],
      "name": "OwnableUnauthorizedAccount",
      "type": "error"
    },
    {
      "inputs": [],
      "name": "ReentrancyGuardReentrantCall",
      "type": "error"
    },
    {
      "inputs": [],
      "name": "TooEarly",
      "type": "error"
    },
    {
      "inputs": [],
      "name": "UUPSUnauthorizedCallContext",
      "type": "error"
    },
    {
      "inputs": [
        {
          "internalType": "bytes32",
          "name": "slot",
          "type": "bytes32"
        }
      ],
      "name": "UUPSUnsupportedProxiableUUID",
      "type": "error"
    },
    {
      "inputs": [],
      "name": "ZeroAddress",
      "type": "error"
    },
    {
      "anonymous": false,
      "inputs": [
        {
          "indexed": true,
          "internalType": "address",
          "name": "newAutomationRegistry",
          "type": "address"
        }
      ],
      "name": "AutomationRegistryUpdated",
      "type": "event"
    },
    {
      "anonymous": false,
      "inputs": [
        {
          "indexed": false,
          "internalType": "uint64",
          "name": "version",
          "type": "uint64"
        }
      ],
      "name": "Initialized",
      "type": "event"
    },
    {
      "anonymous": false,
      "inputs": [
        {
          "indexed": false,
          "internalType": "uint256",
          "name": "epochCounter",
          "type": "uint256"
        }
      ],
      "name": "InternalStateProcessed",
      "type": "event"
    },
    {
      "anonymous": false,
      "inputs": [
        {
          "indexed": true,
          "internalType": "address",
          "name": "previousOwner",
          "type": "address"
        },
        {
          "indexed": true,
          "internalType": "address",
          "name": "newOwner",
          "type": "address"
        }
      ],
      "name": "OwnershipTransferStarted",
      "type": "event"
    },
    {
      "anonymous": false,
      "inputs": [
        {
          "indexed": true,
          "internalType": "address",
          "name": "previousOwner",
          "type": "address"
        },
        {
          "indexed": true,
          "internalType": "address",
          "name": "newOwner",
          "type": "address"
        }
      ],
      "name": "OwnershipTransferred",
      "type": "event"
    },
    {
      "anonymous": false,
      "inputs": [
        {
          "indexed": true,
          "internalType": "address",
          "name": "implementation",
          "type": "address"
        }
      ],
      "name": "Upgraded",
      "type": "event"
    },
    {
      "inputs": [],
      "name": "UPGRADE_INTERFACE_VERSION",
      "outputs": [
        {
          "internalType": "string",
          "name": "",
          "type": "string"
        }
      ],
      "stateMutability": "view",
      "type": "function"
    },
    {
      "inputs": [],
      "name": "acceptOwnership",
      "outputs": [],
      "stateMutability": "nonpayable",
      "type": "function"
    },
    {
      "inputs": [],
      "name": "automationRegistry",
      "outputs": [
        {
          "internalType": "address",
          "name": "",
          "type": "address"
        }
      ],
      "stateMutability": "view",
      "type": "function"
    },
    {
      "inputs": [
        {
          "internalType": "bytes",
          "name": "",
          "type": "bytes"
        }
      ],
      "name": "checkUpkeep",
      "outputs": [
        {
          "internalType": "bool",
          "name": "upkeepNeeded",
          "type": "bool"
        },
        {
          "internalType": "bytes",
          "name": "performData",
          "type": "bytes"
        }
      ],
      "stateMutability": "view",
      "type": "function"
    },
    {
      "inputs": [],
      "name": "config",
      "outputs": [
        {
          "internalType": "contract IOrionConfig",
          "name": "",
          "type": "address"
        }
      ],
      "stateMutability": "view",
      "type": "function"
    },
    {
      "inputs": [],
      "name": "currentPhase",
      "outputs": [
        {
          "internalType": "enum InternalStatesOrchestrator.UpkeepPhase",
          "name": "",
          "type": "uint8"
        }
      ],
      "stateMutability": "view",
      "type": "function"
    },
    {
      "inputs": [],
      "name": "currentVaultIndex",
      "outputs": [
        {
          "internalType": "uint256",
          "name": "",
          "type": "uint256"
        }
      ],
      "stateMutability": "view",
      "type": "function"
    },
    {
      "inputs": [],
      "name": "epochCounter",
      "outputs": [
        {
          "internalType": "uint256",
          "name": "",
          "type": "uint256"
        }
      ],
      "stateMutability": "view",
      "type": "function"
    },
    {
      "inputs": [],
      "name": "expectedUnderlyingBuyAmount",
      "outputs": [
        {
          "internalType": "uint256",
          "name": "",
          "type": "uint256"
        }
      ],
      "stateMutability": "view",
      "type": "function"
    },
    {
      "inputs": [],
      "name": "expectedUnderlyingSellAmount",
      "outputs": [
        {
          "internalType": "uint256",
          "name": "",
          "type": "uint256"
        }
      ],
      "stateMutability": "view",
      "type": "function"
    },
    {
      "inputs": [],
      "name": "getBuyingOrders",
      "outputs": [
        {
          "internalType": "address[]",
          "name": "tokens",
          "type": "address[]"
        },
        {
          "internalType": "uint256[]",
          "name": "amounts",
          "type": "uint256[]"
        }
      ],
      "stateMutability": "view",
      "type": "function"
    },
    {
      "inputs": [],
      "name": "getSellingOrders",
      "outputs": [
        {
          "internalType": "address[]",
          "name": "tokens",
          "type": "address[]"
        },
        {
          "internalType": "uint256[]",
          "name": "amounts",
          "type": "uint256[]"
        }
      ],
      "stateMutability": "view",
      "type": "function"
    },
    {
      "inputs": [
        {
          "internalType": "address",
          "name": "initialOwner",
          "type": "address"
        },
        {
          "internalType": "address",
          "name": "automationRegistry_",
          "type": "address"
        },
        {
          "internalType": "address",
          "name": "config_",
          "type": "address"
        }
      ],
      "name": "initialize",
      "outputs": [],
      "stateMutability": "nonpayable",
      "type": "function"
    },
    {
      "inputs": [],
      "name": "intentFactor",
      "outputs": [
        {
          "internalType": "uint256",
          "name": "",
          "type": "uint256"
        }
      ],
      "stateMutability": "view",
      "type": "function"
    },
    {
      "inputs": [],
      "name": "nextUpdateTime",
      "outputs": [
        {
          "internalType": "uint256",
          "name": "",
          "type": "uint256"
        }
      ],
      "stateMutability": "view",
      "type": "function"
    },
    {
      "inputs": [],
      "name": "owner",
      "outputs": [
        {
          "internalType": "address",
          "name": "",
          "type": "address"
        }
      ],
      "stateMutability": "view",
      "type": "function"
    },
    {
      "inputs": [],
      "name": "pendingOwner",
      "outputs": [
        {
          "internalType": "address",
          "name": "",
          "type": "address"
        }
      ],
      "stateMutability": "view",
      "type": "function"
    },
    {
      "inputs": [
        {
          "internalType": "bytes",
          "name": "performData",
          "type": "bytes"
        }
      ],
      "name": "performUpkeep",
      "outputs": [],
      "stateMutability": "nonpayable",
      "type": "function"
    },
    {
      "inputs": [],
      "name": "proxiableUUID",
      "outputs": [
        {
          "internalType": "bytes32",
          "name": "",
          "type": "bytes32"
        }
      ],
      "stateMutability": "view",
      "type": "function"
    },
    {
      "inputs": [],
      "name": "registry",
      "outputs": [
        {
          "internalType": "contract IOracleRegistry",
          "name": "",
          "type": "address"
        }
      ],
      "stateMutability": "view",
      "type": "function"
    },
    {
      "inputs": [],
      "name": "renounceOwnership",
      "outputs": [],
      "stateMutability": "nonpayable",
      "type": "function"
    },
    {
      "inputs": [
        {
          "internalType": "address",
          "name": "newOwner",
          "type": "address"
        }
      ],
      "name": "transferOwnership",
      "outputs": [],
      "stateMutability": "nonpayable",
      "type": "function"
    },
    {
      "inputs": [
        {
          "internalType": "uint256",
          "name": "",
          "type": "uint256"
        }
      ],
      "name": "transparentVaultEpoch",
      "outputs": [
        {
          "internalType": "address",
          "name": "",
          "type": "address"
        }
      ],
      "stateMutability": "view",
      "type": "function"
    },
    {
      "inputs": [],
      "name": "underlyingDecimals",
      "outputs": [
        {
          "internalType": "uint8",
          "name": "",
          "type": "uint8"
        }
      ],
      "stateMutability": "view",
      "type": "function"
    },
    {
      "inputs": [
        {
          "internalType": "address",
          "name": "newAutomationRegistry",
          "type": "address"
        }
      ],
      "name": "updateAutomationRegistry",
      "outputs": [],
      "stateMutability": "nonpayable",
      "type": "function"
    },
    {
      "inputs": [
        {
          "internalType": "address",
          "name": "newConfig",
          "type": "address"
        }
      ],
      "name": "updateConfig",
      "outputs": [],
      "stateMutability": "nonpayable",
      "type": "function"
    },
    {
      "inputs": [],
      "name": "updateInterval",
      "outputs": [
        {
          "internalType": "uint256",
          "name": "",
          "type": "uint256"
        }
      ],
      "stateMutability": "view",
      "type": "function"
    },
    {
      "inputs": [
        {
          "internalType": "address",
          "name": "newImplementation",
          "type": "address"
        },
        {
          "internalType": "bytes",
          "name": "data",
          "type": "bytes"
        }
      ],
      "name": "upgradeToAndCall",
      "outputs": [],
      "stateMutability": "payable",
      "type": "function"
    }
  ],
  "bytecode": "0x60a0604052306080523480156012575f5ffd5b50608051612b056100395f395f8181611c9401528181611cbd0152611dfc0152612b055ff3fe6080604052600436106101af575f3560e01c8063715018a6116100e7578063ad3cb1cc11610087578063e30c397811610062578063e30c39781461048e578063e9bf76bb146104a2578063f2fde38b146104c1578063fd2c80ae146104e0575f5ffd5b8063ad3cb1cc1461041e578063c0c53b8b1461045b578063c2cb5d881461047a575f5ffd5b80637b103999116100c25780637b103999146103b45780638da5cb5b146103d3578063998b1741146103e7578063a08b82d7146103fc575f5ffd5b8063715018a61461036d57806379502c551461038157806379ba5097146103a0575f5ffd5b80634585e33b1161015257806352d1902d1161012d57806352d1902d146102d75780635dc228a0146102eb5780636cc919c8146103215780636e04ff0d14610340575f5ffd5b80634585e33b146102905780634a1d9625146102af5780634f1ef286146102c4575f5ffd5b806314b5d07f1161018d57806314b5d07f1461021a57806325a760c21461023b5780632b0088b41461026657806335238fb81461027b575f5ffd5b8063055ad42e146101b357806306cce848146101e257806314b19c5a14610205575b5f5ffd5b3480156101be575f5ffd5b506012546101cc9060ff1681565b6040516101d9919061239f565b60405180910390f35b3480156101ed575f5ffd5b506101f7600e5481565b6040519081526020016101d9565b348015610210575f5ffd5b506101f760105481565b348015610225575f5ffd5b506102396102343660046123c6565b6104f4565b005b348015610246575f5ffd5b506004546102549060ff1681565b60405160ff90911681526020016101d9565b348015610271575f5ffd5b506101f760035481565b348015610286575f5ffd5b506101f760115481565b34801561029b575f5ffd5b506102396102aa3660046123e1565b61056a565b3480156102ba575f5ffd5b506101f7600f5481565b6102396102d23660046124e9565b6108eb565b3480156102e2575f5ffd5b506101f7610906565b3480156102f6575f5ffd5b505f54610309906001600160a01b031681565b6040516001600160a01b0390911681526020016101d9565b34801561032c575f5ffd5b5061023961033b3660046123c6565b610921565b34801561034b575f5ffd5b5061035f61035a3660046123e1565b610972565b6040516101d9929190612576565b348015610378575f5ffd5b50610239610b25565b34801561038c575f5ffd5b50600154610309906001600160a01b031681565b3480156103ab575f5ffd5b50610239610b38565b3480156103bf575f5ffd5b50600254610309906001600160a01b031681565b3480156103de575f5ffd5b50610309610b85565b3480156103f2575f5ffd5b506101f760135481565b348015610407575f5ffd5b50610410610bb9565b6040516101d9929190612598565b348015610429575f5ffd5b5061044e604051806040016040528060058152602001640352e302e360dc1b81525081565b6040516101d99190612621565b348015610466575f5ffd5b50610239610475366004612633565b610dc9565b348015610485575f5ffd5b5061041061113e565b348015610499575f5ffd5b50610309611345565b3480156104ad575f5ffd5b506103096104bc36600461267b565b61136d565b3480156104cc575f5ffd5b506102396104db3660046123c6565b611395565b3480156104eb575f5ffd5b506101f7603c81565b6104fc61141a565b6001600160a01b0381166105235760405163d92e233d60e01b815260040160405180910390fd5b5f80546001600160a01b0319166001600160a01b038316908117825560405190917f6cc7ebdb6c8c53291c5ae16148cab9b049d23bf5bde5632900b40edff56fcb4391a250565b5f546001600160a01b031633146105945760405163ea8e4eb560e01b815260040160405180910390fd5b61059c61144c565b5f8190036105bd576040516317dbc4cb60e21b815260040160405180910390fd5b60605f6105cc83850185612692565b8151602083012091935091507f83dcbb12bca8d2b78dfdd3c5af604dbcdd63a0356d0748df85f6e27c115e8ec4016106b157610606611496565b61060e6114c7565b600154604051631da09e4360e31b81526001600160a01b039091169063ed04f2189061063e905f906004016126e6565b5f60405180830381865afa158015610658573d5f5f3e3d5ffd5b505050506040513d5f823e601f3d908101601f1916820160405261067f919081019061278f565b8051610693916014916020909101906122ed565b505f601355601280546001919060ff191682805b02179055506108bc565b815160208301207f2a4a7f205608585415e38f2b7ed53de811dc9fd342f5726aec6f3d417656e8200161075657600160125460ff1660038111156106f7576106f761237b565b146107155760405163baf3f0f760e01b815260040160405180910390fd5b61071e816115c8565b60138054905f61072d836127d4565b90915550506014546013541061075157601280546002919060ff19166001836106a7565b6108bc565b815160208301207fef00f1dfb390e64fed74626226c8064b2a5c5457b2a4b785fbdf57de3d7e72ba016107ce57600260125460ff16600381111561079c5761079c61237b565b146107ba5760405163baf3f0f760e01b815260040160405180910390fd5b601280546003919060ff19166001836106a7565b815160208301207f1dc317eab458697562fbfa885debf1cfb8b311c552b45ad2d943b7c19b79bc0c016108a357600360125460ff1660038111156108145761081461237b565b146108325760405163baf3f0f760e01b815260040160405180910390fd5b61083a611ad6565b6012805460ff1916905561084f60145f612350565b60108054905f61085e836127d4565b91905055507f9375d658f91055a030c54d5cf460d6f12968b10b80b0797c1aa5c02e4dca940360105460405161089691815260200190565b60405180910390a16108bc565b6040516317dbc4cb60e21b815260040160405180910390fd5b50506108e760017f9b779b17422d0df92223018b32b4d1fa46e071723d6817e2486d003becc55f0055565b5050565b6108f3611c89565b6108fc82611d2d565b6108e78282611d35565b5f61090f611df1565b505f516020612ab05f395f51905f5290565b61092961141a565b6001600160a01b0381166109505760405163d92e233d60e01b815260040160405180910390fd5b600180546001600160a01b0319166001600160a01b0392909216919091179055565b5f60608160125460ff16600381111561098d5761098d61237b565b14801561099c57506011544210155b156109e457600191506040516020016109ce906020808252600590820152641cdd185c9d60da1b604082015260600190565b6040516020818303038152906040529050610b1e565b600160125460ff1660038111156109fd576109fd61237b565b148015610a0d5750601454601354105b15610a60576013546040805160208101829052601760608201527f70726f636573735472616e73706172656e745661756c740000000000000000006080820152908101919091526001925060a0016109ce565b600260125460ff166003811115610a7957610a7961237b565b03610abc57600191506040516020016109ce9060208082526016908201527570726f63657373456e637279707465645661756c747360501b604082015260600190565b600360125460ff166003811115610ad557610ad561237b565b03610b0b57600191506040516020016109ce9060208082526009908201526861676772656761746560b81b604082015260600190565b505060408051602081019091525f808252905b9250929050565b610b2d61141a565b610b365f611e3a565b565b3380610b42611345565b6001600160a01b031614610b795760405163118cdaa760e01b81526001600160a01b03821660048201526024015b60405180910390fd5b610b8281611e3a565b50565b5f807f9016d09d72d40fdae2fd8ceac6b6234c7706214fd39c1cd1e609a0528c1993005b546001600160a01b031692915050565b600a80546040805160208084028201810190925282815260609384935f93830182828015610c0e57602002820191905f5260205f20905b81546001600160a01b03168152600190910190602001808311610bf0575b505083519394505f9250829150505b82811015610c82575f60056004015f868481518110610c3e57610c3e6127ec565b60200260200101516001600160a01b03166001600160a01b031681526020019081526020015f20541115610c7a5781610c76816127d4565b9250505b600101610c1d565b50806001600160401b03811115610c9b57610c9b61244d565b604051908082528060200260200182016040528015610cc4578160200160208202803683370190505b509450806001600160401b03811115610cdf57610cdf61244d565b604051908082528060200260200182016040528015610d08578160200160208202803683370190505b5093505f805b83811015610dc0575f858281518110610d2957610d296127ec565b6020908102919091018101516001600160a01b0381165f90815260099092526040909120549091508015610db65781898581518110610d6a57610d6a6127ec565b60200260200101906001600160a01b031690816001600160a01b03168152505080888581518110610d9d57610d9d6127ec565b602090810291909101015283610db2816127d4565b9450505b5050600101610d0e565b50505050509091565b5f610dd2611e72565b805490915060ff600160401b82041615906001600160401b03165f81158015610df85750825b90505f826001600160401b03166001148015610e135750303b155b905081158015610e21575080155b15610e3f5760405163f92ee8a960e01b815260040160405180910390fd5b845467ffffffffffffffff191660011785558315610e6957845460ff60401b1916600160401b1785555b610e7288611e9c565b610e7a611ead565b610e82611eb5565b610e8a611ead565b6001600160a01b038716610eb15760405163d92e233d60e01b815260040160405180910390fd5b6001600160a01b038616610ed85760405163d92e233d60e01b815260040160405180910390fd5b5f80546001600160a01b03808a166001600160a01b03199283161790925560018054928916929091168217905560408051634bb93ab160e01b81529051634bb93ab1916004808201926020929091908290030181865afa158015610f3e573d5f5f3e3d5ffd5b505050506040513d601f19601f82011682018060405250810190610f629190612800565b600280546001600160a01b0319166001600160a01b039283161790556001546040805163d1717c7d60e01b81529051919092169163d1717c7d9160048083019260209291908290030181865afa158015610fbe573d5f5f3e3d5ffd5b505050506040513d601f19601f82011682018060405250810190610fe2919061281b565b610fed90600a61291e565b60035560015460408051631c56369f60e21b815290516001600160a01b0390921691637158da7c916004808201926020929091908290030181865afa158015611038573d5f5f3e3d5ffd5b505050506040513d601f19601f8201168201806040525081019061105c9190612800565b6001600160a01b031663313ce5676040518163ffffffff1660e01b8152600401602060405180830381865afa158015611097573d5f5f3e3d5ffd5b505050506040513d601f19601f820116820180604052508101906110bb919061281b565b6004805460ff191660ff929092169190911790556110d842611ec5565b6011555f60108190556012805460ff19169055601355831561113457845460ff60401b19168555604051600181527fc7f505b2f371ae2175ee4913f4499e1f2633a7b5936321eed1cdaeb6115181d29060200160405180910390a15b5050505050505050565b600a80546040805160208084028201810190925282815260609384935f9383018282801561119357602002820191905f5260205f20905b81546001600160a01b03168152600190910190602001808311611175575b505083519394505f9250829150505b82811015611207575f60056003015f8684815181106111c3576111c36127ec565b60200260200101516001600160a01b03166001600160a01b031681526020019081526020015f205411156111ff57816111fb816127d4565b9250505b6001016111a2565b50806001600160401b038111156112205761122061244d565b604051908082528060200260200182016040528015611249578160200160208202803683370190505b509450806001600160401b038111156112645761126461244d565b60405190808252806020026020018201604052801561128d578160200160208202803683370190505b5093505f805b83811015610dc0575f8582815181106112ae576112ae6127ec565b6020908102919091018101516001600160a01b0381165f9081526008909252604090912054909150801561133b57818985815181106112ef576112ef6127ec565b60200260200101906001600160a01b031690816001600160a01b03168152505080888581518110611322576113226127ec565b602090810291909101015283611337816127d4565b9450505b5050600101611293565b5f807f237e158222e3e6968b72b9db0d8043aacf074ad9f650f0d1606b4d82ee432c00610ba9565b6014818154811061137c575f80fd5b5f918252602090912001546001600160a01b0316905081565b61139d61141a565b7f237e158222e3e6968b72b9db0d8043aacf074ad9f650f0d1606b4d82ee432c0080546001600160a01b0319166001600160a01b03831690811782556113e1610b85565b6001600160a01b03167f38d16b8cac22d99fc7c124b9cd0de2d3fa1faef420bfe791d8c362d765e2270060405160405180910390a35050565b33611423610b85565b6001600160a01b031614610b365760405163118cdaa760e01b8152336004820152602401610b70565b7f9b779b17422d0df92223018b32b4d1fa46e071723d6817e2486d003becc55f0080546001190161149057604051633ee5aeb560e01b815260040160405180910390fd5b60029055565b6011544210156114b95760405163085de62560e01b815260040160405180910390fd5b6114c242611ec5565b601155565b5f6005800180548060200260200160405190810160405280929190818152602001828054801561151e57602002820191905f5260205f20905b81546001600160a01b03168152600190910190602001808311611500575b505083519394505f925050505b818110156115bc575f838281518110611546576115466127ec565b6020908102919091018101516001600160a01b03165f90815260058252604080822082905560068352808220829055600783528082208290556008835280822082905560098352808220829055600b8352808220805460ff19908116909155600c9093529020805490911690555060010161152b565b506108e7600a5f612350565b5f601482815481106115dc576115dc6127ec565b905f5260205f20015f9054906101000a90046001600160a01b031690505f5f826001600160a01b031663d3d034586040518163ffffffff1660e01b81526004015f60405180830381865afa158015611636573d5f5f3e3d5ffd5b505050506040513d5f823e601f3d908101601f1916820160405261165d919081019061292c565b90925090505f805b8351811015611870575f848281518110611681576116816127ec565b6020908102919091018101516001600160a01b0381165f908152600c909252604082205490925060ff16900361173b57806001600160a01b031663313ce5676040518163ffffffff1660e01b8152600401602060405180830381865afa1580156116ed573d5f5f3e3d5ffd5b505050506040513d601f19601f82011682018060405250810190611711919061281b565b6001600160a01b0382165f908152600c60205260409020805460ff191660ff929092169190911790555b6001600160a01b0381165f908152600c6020908152604080832054600590925282205460ff909116918190036117f4576002546040516341976e0960e01b81526001600160a01b038581166004830152909116906341976e0990602401602060405180830381865afa1580156117b3573d5f5f3e3d5ffd5b505050506040513d601f19601f820116820180604052508101906117d791906129e8565b6001600160a01b0384165f90815260056020526040902081905590505b5f6118198288878151811061180b5761180b6127ec565b602002602001015185611ed1565b905061182581876129ff565b6001600160a01b0385165f908152600660205260408120805492985083929091906118519084906129ff565b90915550611860905084611f13565b5050600190920191506116659050565b505f846001600160a01b031663a68a5267866001600160a01b031663c37fc8a86040518163ffffffff1660e01b8152600401602060405180830381865afa1580156118bd573d5f5f3e3d5ffd5b505050506040513d601f19601f820116820180604052508101906118e191906129e8565b845f6040518463ffffffff1660e01b815260040161190193929190612a12565b602060405180830381865afa15801561191c573d5f5f3e3d5ffd5b505050506040513d601f19601f8201168201806040525081019061194091906129e8565b90505f81866001600160a01b031663d1699c266040518163ffffffff1660e01b8152600401602060405180830381865afa158015611980573d5f5f3e3d5ffd5b505050506040513d601f19601f820116820180604052508101906119a491906129e8565b6119ae90856129ff565b6119b89190612a37565b90505f5f876001600160a01b031663b6eba6536040518163ffffffff1660e01b81526004015f60405180830381865afa1580156119f7573d5f5f3e3d5ffd5b505050506040513d5f823e601f3d908101601f19168201604052611a1e919081019061292c565b815191935091505f5b81811015611ac9575f848281518110611a4257611a426127ec565b602002602001015190505f848381518110611a5f57611a5f6127ec565b602002602001015190505f6003548289611a799190612a4a565b611a839190612a61565b6001600160a01b0384165f90815260076020526040812080549293508392909190611aaf9084906129ff565b90915550611abe905083611f13565b505050600101611a27565b5050505050505050505050565b5f60058001805480602002602001604051908101604052809291908181526020018280548015611b2d57602002820191905f5260205f20905b81546001600160a01b03168152600190910190602001808311611b0f575b505083515f600e819055600f81905594955093925050505b81811015611c5e575f838281518110611b6057611b606127ec565b6020908102919091018101516001600160a01b0381165f908152600683526040808220546007855281832054600c909552912054919350919060ff1681831115611c0a575f611baf8385612a37565b905080600e5f828254611bc291906129ff565b90915550506001600160a01b0385165f90815260056020526040812054611bea908385611f98565b6001600160a01b0387165f9081526008602052604090205550611c4e9050565b82821115611c4e575f611c1d8484612a37565b905080600f5f828254611c3091906129ff565b90915550506001600160a01b0385165f908152600960205260409020555b505060019092019150611b459050565b505050565b60017f9b779b17422d0df92223018b32b4d1fa46e071723d6817e2486d003becc55f0055565b306001600160a01b037f0000000000000000000000000000000000000000000000000000000000000000161480611d0f57507f00000000000000000000000000000000000000000000000000000000000000006001600160a01b0316611d035f516020612ab05f395f51905f52546001600160a01b031690565b6001600160a01b031614155b15610b365760405163703e46dd60e11b815260040160405180910390fd5b610b8261141a565b816001600160a01b03166352d1902d6040518163ffffffff1660e01b8152600401602060405180830381865afa925050508015611d8f575060408051601f3d908101601f19168201909252611d8c918101906129e8565b60015b611db757604051634c9c8ce360e01b81526001600160a01b0383166004820152602401610b70565b5f516020612ab05f395f51905f528114611de757604051632a87526960e21b815260048101829052602401610b70565b611c5e8383611fd6565b306001600160a01b037f00000000000000000000000000000000000000000000000000000000000000001614610b365760405163703e46dd60e11b815260040160405180910390fd5b7f237e158222e3e6968b72b9db0d8043aacf074ad9f650f0d1606b4d82ee432c0080546001600160a01b03191681556108e78261202b565b5f807ff0c57e16840df040f15088dc2f81fe391c3923bec73e23a9662efc9c229c6a005b92915050565b611ea461209b565b610b82816120c0565b610b3661209b565b611ebd61209b565b610b366120f1565b5f611e96603c836129ff565b5f80611edd8486612a4a565b6004549091505f90611ef5908390869060ff166120f9565b9050611f09670de0b6b3a764000082612a61565b9695505050505050565b6001600160a01b0381165f908152600b602052604090205460ff16610b8257600a805460018181019092557fc65a7bb8d6351c1cf70c95a316cc6a92839c986682d98bc35f958f4883f9d2a80180546001600160a01b0384166001600160a01b031990911681179091555f908152600b60205260409020805460ff1916909117905550565b6004545f908190611fae90859060ff16856120f9565b905084611fc3670de0b6b3a764000083612a4a565b611fcd9190612a61565b95945050505050565b611fdf82612165565b6040516001600160a01b038316907fbc7cd75a20ee27fd9adebab32041f755214dbc6bffa90cc0225b39da2e5c2d3b905f90a280511561202357611c5e82826121c8565b6108e7612231565b7f9016d09d72d40fdae2fd8ceac6b6234c7706214fd39c1cd1e609a0528c19930080546001600160a01b031981166001600160a01b03848116918217845560405192169182907f8be0079c531659141344cd1fd0a4f28419497f9722a3daafe3b4186f6b6457e0905f90a3505050565b6120a3612250565b610b3657604051631afcd79f60e31b815260040160405180910390fd5b6120c861209b565b6001600160a01b038116610b7957604051631e4fbdf760e01b81525f6004820152602401610b70565b611c6361209b565b5f8260ff168260ff16111561212e576121128383612a80565b61211d90600a61291e565b6121279085612a4a565b905061215e565b8260ff168260ff16101561215b576121468284612a80565b61215190600a61291e565b6121279085612a61565b50825b9392505050565b806001600160a01b03163b5f0361219a57604051634c9c8ce360e01b81526001600160a01b0382166004820152602401610b70565b5f516020612ab05f395f51905f5280546001600160a01b0319166001600160a01b0392909216919091179055565b60605f5f846001600160a01b0316846040516121e49190612a99565b5f60405180830381855af49150503d805f811461221c576040519150601f19603f3d011682016040523d82523d5f602084013e612221565b606091505b5091509150611fcd858383612269565b3415610b365760405163b398979f60e01b815260040160405180910390fd5b5f612259611e72565b54600160401b900460ff16919050565b60608261227e57612279826122c5565b61215e565b815115801561229557506001600160a01b0384163b155b156122be57604051639996b31560e01b81526001600160a01b0385166004820152602401610b70565b508061215e565b8051156122d457805160208201fd5b60405163d6bda27560e01b815260040160405180910390fd5b828054828255905f5260205f20908101928215612340579160200282015b8281111561234057825182546001600160a01b0319166001600160a01b0390911617825560209092019160019091019061230b565b5061234c929150612367565b5090565b5080545f8255905f5260205f2090810190610b8291905b5b8082111561234c575f8155600101612368565b634e487b7160e01b5f52602160045260245ffd5b60048110610b8257610b8261237b565b602081016123ac8361238f565b91905290565b6001600160a01b0381168114610b82575f5ffd5b5f602082840312156123d6575f5ffd5b813561215e816123b2565b5f5f602083850312156123f2575f5ffd5b82356001600160401b03811115612407575f5ffd5b8301601f81018513612417575f5ffd5b80356001600160401b0381111561242c575f5ffd5b85602082840101111561243d575f5ffd5b6020919091019590945092505050565b634e487b7160e01b5f52604160045260245ffd5b604051601f8201601f191681016001600160401b03811182821017156124895761248961244d565b604052919050565b5f5f6001600160401b038411156124aa576124aa61244d565b50601f8301601f19166020016124bf81612461565b9150508281528383830111156124d3575f5ffd5b828260208301375f602084830101529392505050565b5f5f604083850312156124fa575f5ffd5b8235612505816123b2565b915060208301356001600160401b0381111561251f575f5ffd5b8301601f8101851361252f575f5ffd5b61253e85823560208401612491565b9150509250929050565b5f81518084528060208401602086015e5f602082860101526020601f19601f83011685010191505092915050565b8215158152604060208201525f6125906040830184612548565b949350505050565b604080825283519082018190525f9060208501906060840190835b818110156125da5783516001600160a01b03168352602093840193909201916001016125b3565b5050838103602080860191909152855180835291810192508501905f5b818110156126155782518452602093840193909201916001016125f7565b50919695505050505050565b602081525f61215e6020830184612548565b5f5f5f60608486031215612645575f5ffd5b8335612650816123b2565b92506020840135612660816123b2565b91506040840135612670816123b2565b809150509250925092565b5f6020828403121561268b575f5ffd5b5035919050565b5f5f604083850312156126a3575f5ffd5b82356001600160401b038111156126b8575f5ffd5b8301601f810185136126c8575f5ffd5b6126d785823560208401612491565b95602094909401359450505050565b60208101600283106123ac576123ac61237b565b5f6001600160401b038211156127125761271261244d565b5060051b60200190565b5f82601f83011261272b575f5ffd5b815161273e612739826126fa565b612461565b8082825260208201915060208360051b86010192508583111561275f575f5ffd5b602085015b83811015612785578051612777816123b2565b835260209283019201612764565b5095945050505050565b5f6020828403121561279f575f5ffd5b81516001600160401b038111156127b4575f5ffd5b6125908482850161271c565b634e487b7160e01b5f52601160045260245ffd5b5f600182016127e5576127e56127c0565b5060010190565b634e487b7160e01b5f52603260045260245ffd5b5f60208284031215612810575f5ffd5b815161215e816123b2565b5f6020828403121561282b575f5ffd5b815160ff8116811461215e575f5ffd5b6001815b60018411156128765780850481111561285a5761285a6127c0565b600184161561286857908102905b60019390931c92800261283f565b935093915050565b5f8261288c57506001611e96565b8161289857505f611e96565b81600181146128ae57600281146128b8576128d4565b6001915050611e96565b60ff8411156128c9576128c96127c0565b50506001821b611e96565b5060208310610133831016604e8410600b84101617156128f7575081810a611e96565b6129035f19848461283b565b805f1904821115612916576129166127c0565b029392505050565b5f61215e60ff84168361287e565b5f5f6040838503121561293d575f5ffd5b82516001600160401b03811115612952575f5ffd5b61295e8582860161271c565b92505060208301516001600160401b03811115612979575f5ffd5b8301601f81018513612989575f5ffd5b8051612997612739826126fa565b8082825260208201915060208360051b8501019250878311156129b8575f5ffd5b6020840193505b828410156129da5783518252602093840193909101906129bf565b809450505050509250929050565b5f602082840312156129f8575f5ffd5b5051919050565b80820180821115611e9657611e966127c0565b8381526020810183905260608101612a298361238f565b826040830152949350505050565b81810381811115611e9657611e966127c0565b8082028115828204841417611e9657611e966127c0565b5f82612a7b57634e487b7160e01b5f52601260045260245ffd5b500490565b60ff8281168282160390811115611e9657611e966127c0565b5f82518060208501845e5f92019182525091905056fe360894a13ba1a3210667c828492db98dca3e2076cc3735a920a3ca505d382bbca2646970667358221220c4f56adb07ed54bfdf7c7cb400654c2efa3d4b68682e8bf5e74a9f21724bbac264736f6c634300081c0033",
  "linkReferences": {},
  "deployedLinkReferences": {}
}