{
  "_format": "hh-sol-artifact-1",
  "contractName": "InternalStatesOrchestrator",
  "sourceName": "contracts/orchestrators/InternalStatesOrchestrator.sol",
  "abi": [
    {
      "inputs": [
        {
          "internalType": "address",
          "name": "target",
          "type": "address"
        }
      ],
      "name": "AddressEmptyCode",
      "type": "error"
    },
    {
      "inputs": [
        {
          "internalType": "address",
          "name": "implementation",
          "type": "address"
        }
      ],
      "name": "ERC1967InvalidImplementation",
      "type": "error"
    },
    {
      "inputs": [],
      "name": "ERC1967NonPayable",
      "type": "error"
    },
    {
      "inputs": [],
      "name": "FailedCall",
      "type": "error"
    },
    {
      "inputs": [],
      "name": "InvalidInitialization",
      "type": "error"
    },
    {
      "inputs": [],
      "name": "NotAuthorized",
      "type": "error"
    },
    {
      "inputs": [],
      "name": "NotInitializing",
      "type": "error"
    },
    {
      "inputs": [
        {
          "internalType": "address",
          "name": "owner",
          "type": "address"
        }
      ],
      "name": "OwnableInvalidOwner",
      "type": "error"
    },
    {
      "inputs": [
        {
          "internalType": "address",
          "name": "account",
          "type": "address"
        }
      ],
      "name": "OwnableUnauthorizedAccount",
      "type": "error"
    },
    {
      "inputs": [],
      "name": "ReentrancyGuardReentrantCall",
      "type": "error"
    },
    {
      "inputs": [],
      "name": "TooEarly",
      "type": "error"
    },
    {
      "inputs": [],
      "name": "UUPSUnauthorizedCallContext",
      "type": "error"
    },
    {
      "inputs": [
        {
          "internalType": "bytes32",
          "name": "slot",
          "type": "bytes32"
        }
      ],
      "name": "UUPSUnsupportedProxiableUUID",
      "type": "error"
    },
    {
      "inputs": [],
      "name": "ZeroAddress",
      "type": "error"
    },
    {
      "anonymous": false,
      "inputs": [
        {
          "indexed": true,
          "internalType": "address",
          "name": "newAutomationRegistry",
          "type": "address"
        }
      ],
      "name": "AutomationRegistryUpdated",
      "type": "event"
    },
    {
      "anonymous": false,
      "inputs": [
        {
          "indexed": false,
          "internalType": "uint64",
          "name": "version",
          "type": "uint64"
        }
      ],
      "name": "Initialized",
      "type": "event"
    },
    {
      "anonymous": false,
      "inputs": [
        {
          "indexed": false,
          "internalType": "uint256",
          "name": "epochCounter",
          "type": "uint256"
        }
      ],
      "name": "InternalStateProcessed",
      "type": "event"
    },
    {
      "anonymous": false,
      "inputs": [
        {
          "indexed": true,
          "internalType": "address",
          "name": "previousOwner",
          "type": "address"
        },
        {
          "indexed": true,
          "internalType": "address",
          "name": "newOwner",
          "type": "address"
        }
      ],
      "name": "OwnershipTransferStarted",
      "type": "event"
    },
    {
      "anonymous": false,
      "inputs": [
        {
          "indexed": true,
          "internalType": "address",
          "name": "previousOwner",
          "type": "address"
        },
        {
          "indexed": true,
          "internalType": "address",
          "name": "newOwner",
          "type": "address"
        }
      ],
      "name": "OwnershipTransferred",
      "type": "event"
    },
    {
      "anonymous": false,
      "inputs": [
        {
          "indexed": true,
          "internalType": "address",
          "name": "implementation",
          "type": "address"
        }
      ],
      "name": "Upgraded",
      "type": "event"
    },
    {
      "inputs": [],
      "name": "UPGRADE_INTERFACE_VERSION",
      "outputs": [
        {
          "internalType": "string",
          "name": "",
          "type": "string"
        }
      ],
      "stateMutability": "view",
      "type": "function"
    },
    {
      "inputs": [],
      "name": "acceptOwnership",
      "outputs": [],
      "stateMutability": "nonpayable",
      "type": "function"
    },
    {
      "inputs": [],
      "name": "automationRegistry",
      "outputs": [
        {
          "internalType": "address",
          "name": "",
          "type": "address"
        }
      ],
      "stateMutability": "view",
      "type": "function"
    },
    {
      "inputs": [
        {
          "internalType": "bytes",
          "name": "",
          "type": "bytes"
        }
      ],
      "name": "checkUpkeep",
      "outputs": [
        {
          "internalType": "bool",
          "name": "upkeepNeeded",
          "type": "bool"
        },
        {
          "internalType": "bytes",
          "name": "performData",
          "type": "bytes"
        }
      ],
      "stateMutability": "view",
      "type": "function"
    },
    {
      "inputs": [],
      "name": "config",
      "outputs": [
        {
          "internalType": "contract IOrionConfig",
          "name": "",
          "type": "address"
        }
      ],
      "stateMutability": "view",
      "type": "function"
    },
    {
      "inputs": [],
      "name": "epochCounter",
      "outputs": [
        {
          "internalType": "uint256",
          "name": "",
          "type": "uint256"
        }
      ],
      "stateMutability": "view",
      "type": "function"
    },
    {
      "inputs": [],
      "name": "getInitialBatchPortfolioHat",
      "outputs": [
        {
          "internalType": "address[]",
          "name": "tokens",
          "type": "address[]"
        },
        {
          "internalType": "uint256[]",
          "name": "values",
          "type": "uint256[]"
        }
      ],
      "stateMutability": "view",
      "type": "function"
    },
    {
      "inputs": [
        {
          "internalType": "address",
          "name": "initialOwner",
          "type": "address"
        },
        {
          "internalType": "address",
          "name": "automationRegistry_",
          "type": "address"
        },
        {
          "internalType": "address",
          "name": "config_",
          "type": "address"
        }
      ],
      "name": "initialize",
      "outputs": [],
      "stateMutability": "nonpayable",
      "type": "function"
    },
    {
      "inputs": [],
      "name": "nextUpdateTime",
      "outputs": [
        {
          "internalType": "uint256",
          "name": "",
          "type": "uint256"
        }
      ],
      "stateMutability": "view",
      "type": "function"
    },
    {
      "inputs": [],
      "name": "owner",
      "outputs": [
        {
          "internalType": "address",
          "name": "",
          "type": "address"
        }
      ],
      "stateMutability": "view",
      "type": "function"
    },
    {
      "inputs": [],
      "name": "pendingOwner",
      "outputs": [
        {
          "internalType": "address",
          "name": "",
          "type": "address"
        }
      ],
      "stateMutability": "view",
      "type": "function"
    },
    {
      "inputs": [
        {
          "internalType": "bytes",
          "name": "",
          "type": "bytes"
        }
      ],
      "name": "performUpkeep",
      "outputs": [],
      "stateMutability": "nonpayable",
      "type": "function"
    },
    {
      "inputs": [],
      "name": "proxiableUUID",
      "outputs": [
        {
          "internalType": "bytes32",
          "name": "",
          "type": "bytes32"
        }
      ],
      "stateMutability": "view",
      "type": "function"
    },
    {
      "inputs": [],
      "name": "renounceOwnership",
      "outputs": [],
      "stateMutability": "nonpayable",
      "type": "function"
    },
    {
      "inputs": [
        {
          "internalType": "address",
          "name": "newOwner",
          "type": "address"
        }
      ],
      "name": "transferOwnership",
      "outputs": [],
      "stateMutability": "nonpayable",
      "type": "function"
    },
    {
      "inputs": [
        {
          "internalType": "address",
          "name": "newAutomationRegistry",
          "type": "address"
        }
      ],
      "name": "updateAutomationRegistry",
      "outputs": [],
      "stateMutability": "nonpayable",
      "type": "function"
    },
    {
      "inputs": [
        {
          "internalType": "address",
          "name": "newConfig",
          "type": "address"
        }
      ],
      "name": "updateConfig",
      "outputs": [],
      "stateMutability": "nonpayable",
      "type": "function"
    },
    {
      "inputs": [],
      "name": "updateInterval",
      "outputs": [
        {
          "internalType": "uint256",
          "name": "",
          "type": "uint256"
        }
      ],
      "stateMutability": "view",
      "type": "function"
    },
    {
      "inputs": [
        {
          "internalType": "address",
          "name": "newImplementation",
          "type": "address"
        },
        {
          "internalType": "bytes",
          "name": "data",
          "type": "bytes"
        }
      ],
      "name": "upgradeToAndCall",
      "outputs": [],
      "stateMutability": "payable",
      "type": "function"
    }
  ],
  "bytecode": "0x60a0604052306080523480156012575f5ffd5b50608051611d9f6100395f395f818161110f01528181611138015261127c0152611d9f5ff3fe608060405260043610610110575f3560e01c80636e04ff0d1161009d578063ad3cb1cc11610062578063ad3cb1cc146102b7578063c0c53b8b146102f4578063e30c397814610313578063f2fde38b14610327578063fd2c80ae14610346575f5ffd5b80636e04ff0d1461022f578063715018a61461025c57806379502c551461027057806379ba50971461028f5780638da5cb5b146102a3575f5ffd5b80634585e33b116100e35780634585e33b146101935780634f1ef286146101b257806352d1902d146101c55780635dc228a0146101d95780636cc919c814610210575f5ffd5b806314b19c5a1461011457806314b5d07f1461013c578063160917161461015d57806335238fb81461017f575b5f5ffd5b34801561011f575f5ffd5b5061012960035481565b6040519081526020015b60405180910390f35b348015610147575f5ffd5b5061015b6101563660046117f1565b61035a565b005b348015610168575f5ffd5b506101716103d2565b60405161013392919061180c565b34801561018a575f5ffd5b506101295f5481565b34801561019e575f5ffd5b5061015b6101ad366004611895565b6104ed565b61015b6101c0366004611945565b610ca9565b3480156101d0575f5ffd5b50610129610cc4565b3480156101e4575f5ffd5b506001546101f8906001600160a01b031681565b6040516001600160a01b039091168152602001610133565b34801561021b575f5ffd5b5061015b61022a3660046117f1565b610cdf565b34801561023a575f5ffd5b5061024e610249366004611895565b610d09565b604051610133929190611a18565b348015610267575f5ffd5b5061015b610d31565b34801561027b575f5ffd5b506002546101f8906001600160a01b031681565b34801561029a575f5ffd5b5061015b610d44565b3480156102ae575f5ffd5b506101f8610d91565b3480156102c2575f5ffd5b506102e7604051806040016040528060058152602001640352e302e360dc1b81525081565b6040516101339190611a32565b3480156102ff575f5ffd5b5061015b61030e366004611a44565b610dc5565b34801561031e575f5ffd5b506101f8610f3d565b348015610332575f5ffd5b5061015b6103413660046117f1565b610f65565b348015610351575f5ffd5b50610129603c81565b610362610fea565b6001600160a01b0381166103895760405163d92e233d60e01b815260040160405180910390fd5b600180546001600160a01b0319166001600160a01b0383169081179091556040517f6cc7ebdb6c8c53291c5ae16148cab9b049d23bf5bde5632900b40edff56fcb43905f90a250565b6060805f6103e0600461101c565b90505f816001600160401b038111156103fb576103fb611901565b604051908082528060200260200182016040528015610424578160200160208202803683370190505b5090505f826001600160401b0381111561044057610440611901565b604051908082528060200260200182016040528015610469578160200160208202803683370190505b5090505f5b838110156104e2575f8061048360048461102c565b915091508185848151811061049a5761049a611a8c565b60200260200101906001600160a01b031690816001600160a01b031681525050808484815181106104cd576104cd611a8c565b6020908102919091010152505060010161046e565b509094909350915050565b6001546001600160a01b031633146105185760405163ea8e4eb560e01b815260040160405180910390fd5b610520611049565b5f544210156105425760405163085de62560e01b815260040160405180910390fd5b61054b42611093565b5f908155600380549161055d83611ab4565b909155505060025460408051634bb93ab160e01b815290515f926001600160a01b031691634bb93ab19160048083019260209291908290030181865afa1580156105a9573d5f5f3e3d5ffd5b505050506040513d601f19601f820116820180604052508101906105cd9190611acc565b90506105d9600461109f565b6105e3600761109f565b600254604051631da09e4360e31b81525f916001600160a01b03169063ed04f21890610613908490600401611afb565b5f60405180830381865afa15801561062d573d5f5f3e3d5ffd5b505050506040513d5f823e601f3d908101601f191682016040526106549190810190611baa565b80519091505f5b81811015610abd575f83828151811061067657610676611a8c565b602002602001015190505f5f826001600160a01b031663d3d034586040518163ffffffff1660e01b81526004015f60405180830381865afa1580156106bd573d5f5f3e3d5ffd5b505050506040513d5f823e601f3d908101601f191682016040526106e49190810190611be3565b815191935091505f90815b8181101561082b575f85828151811061070a5761070a611a8c565b60209081029190910101516040516341976e0960e01b81526001600160a01b0380831660048301529192505f918d16906341976e0990602401602060405180830381865afa15801561075e573d5f5f3e3d5ffd5b505050506040513d601f19601f820116820180604052508101906107829190611c9f565b90505f86848151811061079757610797611a8c565b6020026020010151826107aa9190611cb6565b90506107b68187611ccd565b95505f806107c56004866110a8565b9150915081156107fc575f6107e7866107de8685611ccd565b600491906110bf565b9050806107f6576107f6611ce0565b5061081a565b5f610809600487866110bf565b90508061081857610818611ce0565b505b5050600190930192506106ef915050565b505f856001600160a01b031663a68a5267876001600160a01b031663c37fc8a86040518163ffffffff1660e01b8152600401602060405180830381865afa158015610878573d5f5f3e3d5ffd5b505050506040513d601f19601f8201168201806040525081019061089c9190611c9f565b855f6040518463ffffffff1660e01b81526004016108bc93929190611cf4565b602060405180830381865afa1580156108d7573d5f5f3e3d5ffd5b505050506040513d601f19601f820116820180604052508101906108fb9190611c9f565b90505f81876001600160a01b031663d1699c266040518163ffffffff1660e01b8152600401602060405180830381865afa15801561093b573d5f5f3e3d5ffd5b505050506040513d601f19601f8201168201806040525081019061095f9190611c9f565b6109699086611ccd565b6109739190611d20565b90505f5f886001600160a01b031663b6eba6536040518163ffffffff1660e01b81526004015f60405180830381865afa1580156109b2573d5f5f3e3d5ffd5b505050506040513d5f823e601f3d908101601f191682016040526109d99190810190611be3565b815191935091505f5b81811015610aa6575f8482815181106109fd576109fd611a8c565b602002602001015190505f848381518110610a1a57610a1a611a8c565b602002602001015190505f8188610a319190611cb6565b90505f80610a406007866110a8565b915091508115610a77575f610a6286610a598685611ccd565b600791906110bf565b905080610a7157610a71611ce0565b50610a95565b5f610a84600787866110bf565b905080610a9357610a93611ce0565b505b5050600190930192506109e2915050565b50506001909901985061065b975050505050505050565b50600254604051631da09e4360e31b81525f916001600160a01b03169063ed04f21890610aef90600190600401611afb565b5f60405180830381865afa158015610b09573d5f5f3e3d5ffd5b505050506040513d5f823e601f3d908101601f19168201604052610b309190810190611baa565b8051925090505f5b82811015610c3c575f828281518110610b5357610b53611a8c565b602002602001015190505f5f826001600160a01b031663d3d034586040518163ffffffff1660e01b81526004015f60405180830381865afa158015610b9a573d5f5f3e3d5ffd5b505050506040513d5f823e601f3d908101601f19168201604052610bc19190810190611be3565b915091505f5f846001600160a01b031663b6eba6536040518163ffffffff1660e01b81526004015f60405180830381865afa158015610c02573d5f5f3e3d5ffd5b505050506040513d5f823e601f3d908101601f19168201604052610c299190810190611be3565b505060019095019450610b389350505050565b507f9375d658f91055a030c54d5cf460d6f12968b10b80b0797c1aa5c02e4dca9403600354604051610c7091815260200190565b60405180910390a150505050610ca560017f9b779b17422d0df92223018b32b4d1fa46e071723d6817e2486d003becc55f0055565b5050565b610cb1611104565b610cba826111a8565b610ca582826111b0565b5f610ccd611271565b505f516020611d4a5f395f51905f5290565b610ce7610fea565b600280546001600160a01b0319166001600160a01b0392909216919091179055565b5f6060610d175f5442101590565b915060405180602001604052805f81525090509250929050565b610d39610fea565b610d425f6112ba565b565b3380610d4e610f3d565b6001600160a01b031614610d855760405163118cdaa760e01b81526001600160a01b03821660048201526024015b60405180910390fd5b610d8e816112ba565b50565b5f807f9016d09d72d40fdae2fd8ceac6b6234c7706214fd39c1cd1e609a0528c1993005b546001600160a01b031692915050565b5f610dce6112f2565b805490915060ff600160401b82041615906001600160401b03165f81158015610df45750825b90505f826001600160401b03166001148015610e0f5750303b155b905081158015610e1d575080155b15610e3b5760405163f92ee8a960e01b815260040160405180910390fd5b845467ffffffffffffffff191660011785558315610e6557845460ff60401b1916600160401b1785555b610e6e8861131a565b610e7661132b565b610e7e611333565b610e8661132b565b6001600160a01b038716610ead5760405163d92e233d60e01b815260040160405180910390fd5b600180546001600160a01b03808a166001600160a01b0319928316179092556002805492891692909116919091179055610ee642611093565b5f9081556003558315610f3357845460ff60401b19168555604051600181527fc7f505b2f371ae2175ee4913f4499e1f2633a7b5936321eed1cdaeb6115181d29060200160405180910390a15b5050505050505050565b5f807f237e158222e3e6968b72b9db0d8043aacf074ad9f650f0d1606b4d82ee432c00610db5565b610f6d610fea565b7f237e158222e3e6968b72b9db0d8043aacf074ad9f650f0d1606b4d82ee432c0080546001600160a01b0319166001600160a01b0383169081178255610fb1610d91565b6001600160a01b03167f38d16b8cac22d99fc7c124b9cd0de2d3fa1faef420bfe791d8c362d765e2270060405160405180910390a35050565b33610ff3610d91565b6001600160a01b031614610d425760405163118cdaa760e01b8152336004820152602401610d7c565b5f61102682611343565b92915050565b5f80808061103a868661134d565b909450925050505b9250929050565b7f9b779b17422d0df92223018b32b4d1fa46e071723d6817e2486d003becc55f0080546001190161108d57604051633ee5aeb560e01b815260040160405180910390fd5b60029055565b5f611026603c83611ccd565b610d8e81611376565b5f80808061103a866001600160a01b0387166113bf565b5f6110d4846001600160a01b038516846113f7565b90505b9392505050565b60017f9b779b17422d0df92223018b32b4d1fa46e071723d6817e2486d003becc55f0055565b306001600160a01b037f000000000000000000000000000000000000000000000000000000000000000016148061118a57507f00000000000000000000000000000000000000000000000000000000000000006001600160a01b031661117e5f516020611d4a5f395f51905f52546001600160a01b031690565b6001600160a01b031614155b15610d425760405163703e46dd60e11b815260040160405180910390fd5b610d8e610fea565b816001600160a01b03166352d1902d6040518163ffffffff1660e01b8152600401602060405180830381865afa92505050801561120a575060408051601f3d908101601f1916820190925261120791810190611c9f565b60015b61123257604051634c9c8ce360e01b81526001600160a01b0383166004820152602401610d7c565b5f516020611d4a5f395f51905f52811461126257604051632a87526960e21b815260048101829052602401610d7c565b61126c8383611413565b505050565b306001600160a01b037f00000000000000000000000000000000000000000000000000000000000000001614610d425760405163703e46dd60e11b815260040160405180910390fd5b7f237e158222e3e6968b72b9db0d8043aacf074ad9f650f0d1606b4d82ee432c0080546001600160a01b0319168155610ca582611468565b5f807ff0c57e16840df040f15088dc2f81fe391c3923bec73e23a9662efc9c229c6a00611026565b6113226114d8565b610d8e816114fd565b610d426114d8565b61133b6114d8565b610d4261152e565b5f61102682611536565b5f808061135a858561153f565b5f81815260029690960160205260409095205494959350505050565b5f61138082611343565b90505f5b818110156113b557600283015f61139b858461153f565b815260208101919091526040015f90812055600101611384565b50610ca58261154a565b5f8181526002830160205260408120548190806113ec576113e08585611553565b92505f91506110429050565b600192509050611042565b5f82815260028401602052604081208290556110d4848461155e565b61141c82611569565b6040516001600160a01b038316907fbc7cd75a20ee27fd9adebab32041f755214dbc6bffa90cc0225b39da2e5c2d3b905f90a28051156114605761126c82826115cc565b610ca561163e565b7f9016d09d72d40fdae2fd8ceac6b6234c7706214fd39c1cd1e609a0528c19930080546001600160a01b031981166001600160a01b03848116918217845560405192169182907f8be0079c531659141344cd1fd0a4f28419497f9722a3daafe3b4186f6b6457e0905f90a3505050565b6114e061165d565b610d4257604051631afcd79f60e31b815260040160405180910390fd5b6115056114d8565b6001600160a01b038116610d8557604051631e4fbdf760e01b81525f6004820152602401610d7c565b6110de6114d8565b5f611026825490565b5f6110d78383611676565b610d8e8161169c565b5f6110d783836116f5565b5f6110d7838361170c565b806001600160a01b03163b5f0361159e57604051634c9c8ce360e01b81526001600160a01b0382166004820152602401610d7c565b5f516020611d4a5f395f51905f5280546001600160a01b0319166001600160a01b0392909216919091179055565b60605f5f846001600160a01b0316846040516115e89190611d33565b5f60405180830381855af49150503d805f8114611620576040519150601f19603f3d011682016040523d82523d5f602084013e611625565b606091505b5091509150611635858383611758565b95945050505050565b3415610d425760405163b398979f60e01b815260040160405180910390fd5b5f6116666112f2565b54600160401b900460ff16919050565b5f825f01828154811061168b5761168b611a8c565b905f5260205f200154905092915050565b5f6116a5825490565b90505f5b818110156116ee57826001015f845f0183815481106116ca576116ca611a8c565b905f5260205f20015481526020019081526020015f205f90558060010190506116a9565b50505f9055565b5f81815260018301602052604081205415156110d7565b5f81815260018301602052604081205461175157508154600181810184555f848152602080822090930184905584548482528286019093526040902091909155611026565b505f611026565b60608261176d57611768826117b4565b6110d7565b815115801561178457506001600160a01b0384163b155b156117ad57604051639996b31560e01b81526001600160a01b0385166004820152602401610d7c565b50806110d7565b8051156117c45780518082602001fd5b60405163d6bda27560e01b815260040160405180910390fd5b6001600160a01b0381168114610d8e575f5ffd5b5f60208284031215611801575f5ffd5b81356110d7816117dd565b604080825283519082018190525f9060208501906060840190835b8181101561184e5783516001600160a01b0316835260209384019390920191600101611827565b5050838103602080860191909152855180835291810192508501905f5b8181101561188957825184526020938401939092019160010161186b565b50919695505050505050565b5f5f602083850312156118a6575f5ffd5b82356001600160401b038111156118bb575f5ffd5b8301601f810185136118cb575f5ffd5b80356001600160401b038111156118e0575f5ffd5b8560208284010111156118f1575f5ffd5b6020919091019590945092505050565b634e487b7160e01b5f52604160045260245ffd5b604051601f8201601f191681016001600160401b038111828210171561193d5761193d611901565b604052919050565b5f5f60408385031215611956575f5ffd5b8235611961816117dd565b915060208301356001600160401b0381111561197b575f5ffd5b8301601f8101851361198b575f5ffd5b80356001600160401b038111156119a4576119a4611901565b6119b7601f8201601f1916602001611915565b8181528660208385010111156119cb575f5ffd5b816020840160208301375f602083830101528093505050509250929050565b5f81518084528060208401602086015e5f602082860101526020601f19601f83011685010191505092915050565b8215158152604060208201525f6110d460408301846119ea565b602081525f6110d760208301846119ea565b5f5f5f60608486031215611a56575f5ffd5b8335611a61816117dd565b92506020840135611a71816117dd565b91506040840135611a81816117dd565b809150509250925092565b634e487b7160e01b5f52603260045260245ffd5b634e487b7160e01b5f52601160045260245ffd5b5f60018201611ac557611ac5611aa0565b5060010190565b5f60208284031215611adc575f5ffd5b81516110d7816117dd565b634e487b7160e01b5f52602160045260245ffd5b6020810160028310611b0f57611b0f611ae7565b91905290565b5f6001600160401b03821115611b2d57611b2d611901565b5060051b60200190565b5f82601f830112611b46575f5ffd5b8151611b59611b5482611b15565b611915565b8082825260208201915060208360051b860101925085831115611b7a575f5ffd5b602085015b83811015611ba0578051611b92816117dd565b835260209283019201611b7f565b5095945050505050565b5f60208284031215611bba575f5ffd5b81516001600160401b03811115611bcf575f5ffd5b611bdb84828501611b37565b949350505050565b5f5f60408385031215611bf4575f5ffd5b82516001600160401b03811115611c09575f5ffd5b611c1585828601611b37565b92505060208301516001600160401b03811115611c30575f5ffd5b8301601f81018513611c40575f5ffd5b8051611c4e611b5482611b15565b8082825260208201915060208360051b850101925087831115611c6f575f5ffd5b6020840193505b82841015611c91578351825260209384019390910190611c76565b809450505050509250929050565b5f60208284031215611caf575f5ffd5b5051919050565b808202811582820484141761102657611026611aa0565b8082018082111561102657611026611aa0565b634e487b7160e01b5f52600160045260245ffd5b838152602081018390526060810160048310611d1257611d12611ae7565b826040830152949350505050565b8181038181111561102657611026611aa0565b5f82518060208501845e5f92019182525091905056fe360894a13ba1a3210667c828492db98dca3e2076cc3735a920a3ca505d382bbca2646970667358221220cb09a599f72523c4852b561df95c91ae4028ca94b083dbca0d14bfcb722a0fb164736f6c634300081c0033",
  "linkReferences": {},
  "deployedLinkReferences": {}
}