{
  "_format": "hh-sol-artifact-1",
  "contractName": "InternalStatesOrchestrator",
  "sourceName": "contracts/orchestrators/InternalStatesOrchestrator.sol",
  "abi": [
    {
      "inputs": [
        {
          "internalType": "address",
          "name": "initialOwner",
          "type": "address"
        },
        {
          "internalType": "address",
          "name": "config_",
          "type": "address"
        },
        {
          "internalType": "address",
          "name": "automationRegistry_",
          "type": "address"
        }
      ],
      "stateMutability": "nonpayable",
      "type": "constructor"
    },
    {
      "inputs": [],
      "name": "InsufficientAmount",
      "type": "error"
    },
    {
      "inputs": [],
      "name": "InvalidArguments",
      "type": "error"
    },
    {
      "inputs": [],
      "name": "InvalidState",
      "type": "error"
    },
    {
      "inputs": [],
      "name": "NotAuthorized",
      "type": "error"
    },
    {
      "inputs": [
        {
          "internalType": "address",
          "name": "owner",
          "type": "address"
        }
      ],
      "name": "OwnableInvalidOwner",
      "type": "error"
    },
    {
      "inputs": [
        {
          "internalType": "address",
          "name": "account",
          "type": "address"
        }
      ],
      "name": "OwnableUnauthorizedAccount",
      "type": "error"
    },
    {
      "inputs": [],
      "name": "ReentrancyGuardReentrantCall",
      "type": "error"
    },
    {
      "inputs": [],
      "name": "SystemNotIdle",
      "type": "error"
    },
    {
      "inputs": [],
      "name": "TooEarly",
      "type": "error"
    },
    {
      "inputs": [],
      "name": "ZeroAddress",
      "type": "error"
    },
    {
      "anonymous": false,
      "inputs": [
        {
          "indexed": true,
          "internalType": "address",
          "name": "newAutomationRegistry",
          "type": "address"
        }
      ],
      "name": "AutomationRegistryUpdated",
      "type": "event"
    },
    {
      "anonymous": false,
      "inputs": [
        {
          "indexed": true,
          "internalType": "uint16",
          "name": "epochCounter",
          "type": "uint16"
        }
      ],
      "name": "InternalStateProcessed",
      "type": "event"
    },
    {
      "anonymous": false,
      "inputs": [
        {
          "indexed": true,
          "internalType": "address",
          "name": "previousOwner",
          "type": "address"
        },
        {
          "indexed": true,
          "internalType": "address",
          "name": "newOwner",
          "type": "address"
        }
      ],
      "name": "OwnershipTransferred",
      "type": "event"
    },
    {
      "inputs": [],
      "name": "BASIS_POINTS_FACTOR",
      "outputs": [
        {
          "internalType": "uint16",
          "name": "",
          "type": "uint16"
        }
      ],
      "stateMutability": "view",
      "type": "function"
    },
    {
      "inputs": [],
      "name": "MAX_EPOCH_DURATION",
      "outputs": [
        {
          "internalType": "uint32",
          "name": "",
          "type": "uint32"
        }
      ],
      "stateMutability": "view",
      "type": "function"
    },
    {
      "inputs": [],
      "name": "MAX_TRANSPARENT_MINIBATCH_SIZE",
      "outputs": [
        {
          "internalType": "uint8",
          "name": "",
          "type": "uint8"
        }
      ],
      "stateMutability": "view",
      "type": "function"
    },
    {
      "inputs": [],
      "name": "automationRegistry",
      "outputs": [
        {
          "internalType": "address",
          "name": "",
          "type": "address"
        }
      ],
      "stateMutability": "view",
      "type": "function"
    },
    {
      "inputs": [],
      "name": "bufferAmount",
      "outputs": [
        {
          "internalType": "uint256",
          "name": "",
          "type": "uint256"
        }
      ],
      "stateMutability": "view",
      "type": "function"
    },
    {
      "inputs": [
        {
          "internalType": "bytes",
          "name": "",
          "type": "bytes"
        }
      ],
      "name": "checkUpkeep",
      "outputs": [
        {
          "internalType": "bool",
          "name": "upkeepNeeded",
          "type": "bool"
        },
        {
          "internalType": "bytes",
          "name": "performData",
          "type": "bytes"
        }
      ],
      "stateMutability": "view",
      "type": "function"
    },
    {
      "inputs": [],
      "name": "config",
      "outputs": [
        {
          "internalType": "contract IOrionConfig",
          "name": "",
          "type": "address"
        }
      ],
      "stateMutability": "view",
      "type": "function"
    },
    {
      "inputs": [],
      "name": "currentMinibatchIndex",
      "outputs": [
        {
          "internalType": "uint8",
          "name": "",
          "type": "uint8"
        }
      ],
      "stateMutability": "view",
      "type": "function"
    },
    {
      "inputs": [],
      "name": "currentPhase",
      "outputs": [
        {
          "internalType": "enum IInternalStateOrchestrator.InternalUpkeepPhase",
          "name": "",
          "type": "uint8"
        }
      ],
      "stateMutability": "view",
      "type": "function"
    },
    {
      "inputs": [],
      "name": "epochCounter",
      "outputs": [
        {
          "internalType": "uint16",
          "name": "",
          "type": "uint16"
        }
      ],
      "stateMutability": "view",
      "type": "function"
    },
    {
      "inputs": [],
      "name": "epochDuration",
      "outputs": [
        {
          "internalType": "uint32",
          "name": "",
          "type": "uint32"
        }
      ],
      "stateMutability": "view",
      "type": "function"
    },
    {
      "inputs": [],
      "name": "getEpochTokens",
      "outputs": [
        {
          "internalType": "address[]",
          "name": "tokens",
          "type": "address[]"
        }
      ],
      "stateMutability": "view",
      "type": "function"
    },
    {
      "inputs": [],
      "name": "getOrders",
      "outputs": [
        {
          "internalType": "address[]",
          "name": "sellingTokens",
          "type": "address[]"
        },
        {
          "internalType": "uint256[]",
          "name": "sellingAmounts",
          "type": "uint256[]"
        },
        {
          "internalType": "address[]",
          "name": "buyingTokens",
          "type": "address[]"
        },
        {
          "internalType": "uint256[]",
          "name": "buyingAmounts",
          "type": "uint256[]"
        },
        {
          "internalType": "uint256[]",
          "name": "sellingEstimatedUnderlyingAmounts",
          "type": "uint256[]"
        },
        {
          "internalType": "uint256[]",
          "name": "buyingEstimatedUnderlyingAmounts",
          "type": "uint256[]"
        }
      ],
      "stateMutability": "view",
      "type": "function"
    },
    {
      "inputs": [
        {
          "internalType": "address",
          "name": "token",
          "type": "address"
        }
      ],
      "name": "getPriceOf",
      "outputs": [
        {
          "internalType": "uint256",
          "name": "price",
          "type": "uint256"
        }
      ],
      "stateMutability": "view",
      "type": "function"
    },
    {
      "inputs": [],
      "name": "getTransparentVaultsEpoch",
      "outputs": [
        {
          "internalType": "address[]",
          "name": "vaults",
          "type": "address[]"
        }
      ],
      "stateMutability": "view",
      "type": "function"
    },
    {
      "inputs": [
        {
          "internalType": "address",
          "name": "vault",
          "type": "address"
        }
      ],
      "name": "getVaultTotalAssetsForFulfillDeposit",
      "outputs": [
        {
          "internalType": "uint256",
          "name": "totalAssets",
          "type": "uint256"
        }
      ],
      "stateMutability": "view",
      "type": "function"
    },
    {
      "inputs": [
        {
          "internalType": "address",
          "name": "vault",
          "type": "address"
        }
      ],
      "name": "getVaultTotalAssetsForFulfillRedeem",
      "outputs": [
        {
          "internalType": "uint256",
          "name": "totalAssets",
          "type": "uint256"
        }
      ],
      "stateMutability": "view",
      "type": "function"
    },
    {
      "inputs": [],
      "name": "intentFactor",
      "outputs": [
        {
          "internalType": "uint256",
          "name": "",
          "type": "uint256"
        }
      ],
      "stateMutability": "view",
      "type": "function"
    },
    {
      "inputs": [],
      "name": "liquidityOrchestrator",
      "outputs": [
        {
          "internalType": "contract ILiquidityOrchestrator",
          "name": "",
          "type": "address"
        }
      ],
      "stateMutability": "view",
      "type": "function"
    },
    {
      "inputs": [],
      "name": "owner",
      "outputs": [
        {
          "internalType": "address",
          "name": "",
          "type": "address"
        }
      ],
      "stateMutability": "view",
      "type": "function"
    },
    {
      "inputs": [],
      "name": "pendingProtocolFees",
      "outputs": [
        {
          "internalType": "uint256",
          "name": "",
          "type": "uint256"
        }
      ],
      "stateMutability": "view",
      "type": "function"
    },
    {
      "inputs": [
        {
          "internalType": "bytes",
          "name": "",
          "type": "bytes"
        }
      ],
      "name": "performUpkeep",
      "outputs": [],
      "stateMutability": "nonpayable",
      "type": "function"
    },
    {
      "inputs": [],
      "name": "priceAdapterPrecision",
      "outputs": [
        {
          "internalType": "uint256",
          "name": "",
          "type": "uint256"
        }
      ],
      "stateMutability": "view",
      "type": "function"
    },
    {
      "inputs": [],
      "name": "registry",
      "outputs": [
        {
          "internalType": "contract IPriceAdapterRegistry",
          "name": "",
          "type": "address"
        }
      ],
      "stateMutability": "view",
      "type": "function"
    },
    {
      "inputs": [],
      "name": "renounceOwnership",
      "outputs": [],
      "stateMutability": "nonpayable",
      "type": "function"
    },
    {
      "inputs": [],
      "name": "rsFeeCoefficient",
      "outputs": [
        {
          "internalType": "uint16",
          "name": "",
          "type": "uint16"
        }
      ],
      "stateMutability": "view",
      "type": "function"
    },
    {
      "inputs": [
        {
          "internalType": "uint256",
          "name": "amount",
          "type": "uint256"
        }
      ],
      "name": "subtractPendingProtocolFees",
      "outputs": [],
      "stateMutability": "nonpayable",
      "type": "function"
    },
    {
      "inputs": [
        {
          "internalType": "address",
          "name": "newOwner",
          "type": "address"
        }
      ],
      "name": "transferOwnership",
      "outputs": [],
      "stateMutability": "nonpayable",
      "type": "function"
    },
    {
      "inputs": [],
      "name": "transparentMinibatchSize",
      "outputs": [
        {
          "internalType": "uint8",
          "name": "",
          "type": "uint8"
        }
      ],
      "stateMutability": "view",
      "type": "function"
    },
    {
      "inputs": [
        {
          "internalType": "uint256",
          "name": "",
          "type": "uint256"
        }
      ],
      "name": "transparentVaultsEpoch",
      "outputs": [
        {
          "internalType": "address",
          "name": "",
          "type": "address"
        }
      ],
      "stateMutability": "view",
      "type": "function"
    },
    {
      "inputs": [],
      "name": "underlyingAsset",
      "outputs": [
        {
          "internalType": "address",
          "name": "",
          "type": "address"
        }
      ],
      "stateMutability": "view",
      "type": "function"
    },
    {
      "inputs": [],
      "name": "underlyingDecimals",
      "outputs": [
        {
          "internalType": "uint8",
          "name": "",
          "type": "uint8"
        }
      ],
      "stateMutability": "view",
      "type": "function"
    },
    {
      "inputs": [
        {
          "internalType": "address",
          "name": "newAutomationRegistry",
          "type": "address"
        }
      ],
      "name": "updateAutomationRegistry",
      "outputs": [],
      "stateMutability": "nonpayable",
      "type": "function"
    },
    {
      "inputs": [
        {
          "internalType": "int256",
          "name": "deltaAmount",
          "type": "int256"
        }
      ],
      "name": "updateBufferAmount",
      "outputs": [],
      "stateMutability": "nonpayable",
      "type": "function"
    },
    {
      "inputs": [
        {
          "internalType": "uint32",
          "name": "newEpochDuration",
          "type": "uint32"
        }
      ],
      "name": "updateEpochDuration",
      "outputs": [],
      "stateMutability": "nonpayable",
      "type": "function"
    },
    {
      "inputs": [
        {
          "internalType": "uint8",
          "name": "_transparentMinibatchSize",
          "type": "uint8"
        }
      ],
      "name": "updateMinibatchSize",
      "outputs": [],
      "stateMutability": "nonpayable",
      "type": "function"
    },
    {
      "inputs": [
        {
          "internalType": "uint16",
          "name": "_vFeeCoefficient",
          "type": "uint16"
        },
        {
          "internalType": "uint16",
          "name": "_rsFeeCoefficient",
          "type": "uint16"
        }
      ],
      "name": "updateProtocolFees",
      "outputs": [],
      "stateMutability": "nonpayable",
      "type": "function"
    },
    {
      "inputs": [],
      "name": "vFeeCoefficient",
      "outputs": [
        {
          "internalType": "uint16",
          "name": "",
          "type": "uint16"
        }
      ],
      "stateMutability": "view",
      "type": "function"
    }
  ],
  "bytecode": "0x608060405234801561000f575f5ffd5b50604051613a2f380380613a2f83398101604081905261002e916104b6565b826001600160a01b03811661005c57604051631e4fbdf760e01b81525f600482015260240160405180910390fd5b61006581610450565b50600180556001600160a01b0382166100915760405163d92e233d60e01b815260040160405180910390fd5b6001600160a01b0381166100b85760405163d92e233d60e01b815260040160405180910390fd5b600380546001600160a01b0319166001600160a01b0384169081179091556040805163015df99360e01b8152905163015df993916004808201926020929091908290030181865afa15801561010f573d5f5f3e3d5ffd5b505050506040513d601f19601f820116820180604052508101906101339190610500565b600580546001600160a01b0319166001600160a01b039283161790556003546040805163d1717c7d60e01b81529051919092169163d1717c7d9160048083019260209291908290030181865afa15801561018f573d5f5f3e3d5ffd5b505050506040513d601f19601f820116820180604052508101906101b39190610522565b6101be90600a61063b565b60075560035460408051631c56369f60e21b815290516001600160a01b0390921691637158da7c916004808201926020929091908290030181865afa158015610209573d5f5f3e3d5ffd5b505050506040513d601f19601f8201168201806040525081019061022d9190610500565b600880546001600160a01b0319166001600160a01b03928316908117909155600354604051633c2e3e7b60e11b815260048101929092529091169063785c7cf690602401602060405180830381865afa15801561028c573d5f5f3e3d5ffd5b505050506040513d601f19601f820116820180604052508101906102b09190610522565b600860146101000a81548160ff021916908360ff16021790555060035f9054906101000a90046001600160a01b03166001600160a01b031663567ba7136040518163ffffffff1660e01b8152600401602060405180830381865afa15801561031a573d5f5f3e3d5ffd5b505050506040513d601f19601f8201168201806040525081019061033e9190610522565b61034990600a61063b565b6006556016805462ff0000191662010000179055600280546001600160a01b038084166001600160a01b03199092169190911790915560035460408051631d06d6c760e11b815290519190921691633a0dad8e9160048281019260209291908290030181865afa1580156103bf573d5f5f3e3d5ffd5b505050506040513d601f19601f820116820180604052508101906103e39190610500565b600480546001600160a01b0319166001600160a01b0392909216919091179055601480546201518063ffffffff1990911681179091556104239042610649565b60155550506016805464ffff00ffff19169055506008805463ffffffff60a81b191690555f60185561065c565b5f80546001600160a01b038381166001600160a01b0319831681178455604051919092169283917f8be0079c531659141344cd1fd0a4f28419497f9722a3daafe3b4186f6b6457e09190a35050565b6001600160a01b03811681146104b3575f5ffd5b50565b5f5f5f606084860312156104c8575f5ffd5b83516104d38161049f565b60208501519093506104e48161049f565b60408501519092506104f58161049f565b809150509250925092565b5f60208284031215610510575f5ffd5b815161051b8161049f565b9392505050565b5f60208284031215610532575f5ffd5b815160ff8116811461051b575f5ffd5b634e487b7160e01b5f52601160045260245ffd5b6001815b60018411156105915780850481111561057557610575610542565b600184161561058357908102905b60019390931c92800261055a565b935093915050565b5f826105a757506001610635565b816105b357505f610635565b81600181146105c957600281146105d3576105ef565b6001915050610635565b60ff8411156105e4576105e4610542565b50506001821b610635565b5060208310610133831016604e8410600b8410161715610612575081810a610635565b61061e5f198484610556565b805f190482111561063157610631610542565b0290505b92915050565b5f61051b60ff841683610599565b8082018082111561063557610635610542565b6133c6806106695f395ff3fe608060405234801561000f575f5ffd5b50600436106101c0575f3560e01c8063055ad42e146101c45780630844697d146101ee57806308af604d14610216578063132b1c921461023b57806314b19c5a1461027157806314b5d07f1461027f57806325a760c2146102945780632b0088b4146102a85780632e2dc43e146102b15780633a0dad8e146102cb5780634585e33b146102eb5780634f17a2fa146102fe5780634ff0876a1461031d5780635488cd621461032d57806358fac65b146103415780635dc228a0146103545780636e04ff0d146103675780636ff0415314610388578063706044451461039d578063715018a6146103b05780637158da7c146103b857806379502c55146103cb5780637b103999146103de5780637bced9e5146103f15780637cdabf0a146103f9578063800f9fad1461040c5780638da5cb5b146104155780638f5c94651461041d5780639f2124cb14610426578063b8b2af7c1461042e578063ba96ff1114610443578063c18e2a5c1461046b578063ca1f32f114610474578063e2638ff11461047d578063e2c4aaec146104a5578063e6c3efd9146104b8578063eeb393c9146104cb578063f2fde38b146104de575b5f5ffd5b6016546101d8906301000000900460ff1681565b6040516101e59190612b27565b60405180910390f35b60085461020390600160b81b900461ffff1681565b60405161ffff90911681526020016101e5565b6016546102299062010000900460ff1681565b60405160ff90911681526020016101e5565b610263610249366004612b55565b6001600160a01b03165f908152600f602052604090205490565b6040519081526020016101e5565b6016546102039061ffff1681565b61029261028d366004612b55565b6104f1565b005b60085461022990600160a01b900460ff1681565b61026360075481565b6102b96105fa565b6040516101e596959493929190612be3565b6004546102de906001600160a01b031681565b6040516101e59190612c64565b6102926102f9366004612c78565b610876565b6103086212750081565b60405163ffffffff90911681526020016101e5565b6014546103089063ffffffff1681565b60165461022990600160201b900460ff1681565b6102de61034f366004612ce4565b610a24565b6002546102de906001600160a01b031681565b61037a610375366004612c78565b610a4c565b6040516101e5929190612cfb565b610390610bb2565b6040516101e59190612d39565b6102926103ab366004612ce4565b610c15565b610292610c7c565b6008546102de906001600160a01b031681565b6003546102de906001600160a01b031681565b6005546102de906001600160a01b031681565b610229600881565b610292610407366004612d61565b610c8f565b61026360095481565b6102de610d96565b61020361271081565b610390610da4565b60085461020390600160a81b900461ffff1681565b610263610451366004612b55565b6001600160a01b03165f908152600a602052604090205490565b61026360185481565b61026360065481565b61026361048b366004612b55565b6001600160a01b03165f908152600e602052604090205490565b6102926104b3366004612ce4565b610e02565b6102926104c6366004612da0565b610e75565b6102926104d9366004612dcc565b610f74565b6102926104ec366004612b55565b611091565b6104f96110d4565b6001600160a01b0381166105205760405163d92e233d60e01b815260040160405180910390fd5b60035f9054906101000a90046001600160a01b03166001600160a01b031663edcf9c1f6040518163ffffffff1660e01b8152600401602060405180830381865afa158015610570573d5f5f3e3d5ffd5b505050506040513d601f19601f820116820180604052508101906105949190612de7565b6105b1576040516312aecd8160e01b815260040160405180910390fd5b600280546001600160a01b0319166001600160a01b0383169081179091556040517f6cc7ebdb6c8c53291c5ae16148cab9b049d23bf5bde5632900b40edff56fcb43905f90a250565b606080808080805f6016546301000000900460ff16600481111561062057610620612b13565b1461063e576040516312aecd8160e01b815260040160405180910390fd5b5f600a60080180548060200260200160405190810160405280929190818152602001828054801561069657602002820191905f5260205f20905b81546001600160a01b03168152600190910190602001808311610678575b505050505090505f5f6106a883611106565b915091508161ffff166001600160401b038111156106c8576106c8612e06565b6040519080825280602002602001820160405280156106f1578160200160208202803683370190505b5098508161ffff166001600160401b0381111561071057610710612e06565b604051908082528060200260200182016040528015610739578160200160208202803683370190505b5097508061ffff166001600160401b0381111561075857610758612e06565b604051908082528060200260200182016040528015610781578160200160208202803683370190505b5096508061ffff166001600160401b038111156107a0576107a0612e06565b6040519080825280602002602001820160405280156107c9578160200160208202803683370190505b5095508161ffff166001600160401b038111156107e8576107e8612e06565b604051908082528060200260200182016040528015610811578160200160208202803683370190505b5094508061ffff166001600160401b0381111561083057610830612e06565b604051908082528060200260200182016040528015610859578160200160208202803683370190505b50935061086b838a8a888b8b8a6111a7565b505050909192939495565b61087e610d96565b6001600160a01b0316336001600160a01b0316141580156108aa57506002546001600160a01b03163314155b156108c85760405163ea8e4eb560e01b815260040160405180910390fd5b6108d061144b565b60035f9054906101000a90046001600160a01b03166001600160a01b031663edcf9c1f6040518163ffffffff1660e01b8152600401602060405180830381865afa158015610920573d5f5f3e3d5ffd5b505050506040513d601f19601f820116820180604052508101906109449190612de7565b8015610951575060155442115b156109635761095e611475565b610a17565b60016016546301000000900460ff16600481111561098357610983612b13565b036109905761095e611611565b60026016546301000000900460ff1660048111156109b0576109b0612b13565b036109bd5761095e611d77565b60036016546301000000900460ff1660048111156109dd576109dd612b13565b036109ea5761095e611f84565b60046016546301000000900460ff166004811115610a0a57610a0a612b13565b03610a1757610a1761248f565b610a2060018055565b5050565b60178181548110610a33575f80fd5b5f918252602090912001546001600160a01b0316905081565b5f606060035f9054906101000a90046001600160a01b03166001600160a01b031663edcf9c1f6040518163ffffffff1660e01b8152600401602060405180830381865afa158015610a9f573d5f5f3e3d5ffd5b505050506040513d601f19601f82011682018060405250810190610ac39190612de7565b8015610ad0575060155442115b15610ade5760019150610b9a565b60016016546301000000900460ff166004811115610afe57610afe612b13565b03610b0c5760019150610b9a565b60026016546301000000900460ff166004811115610b2c57610b2c612b13565b03610b3a5760019150610b9a565b60036016546301000000900460ff166004811115610b5a57610b5a612b13565b03610b685760019150610b9a565b60046016546301000000900460ff166004811115610b8857610b88612b13565b03610b965760019150610b9a565b5f91505b60405180602001604052805f81525090509250929050565b6060600a600801805480602002602001604051908101604052809291908181526020018280548015610c0b57602002820191905f5260205f20905b81546001600160a01b03168152600190910190602001808311610bed575b5050505050905090565b6004546001600160a01b03163314610c405760405163ea8e4eb560e01b815260040160405180910390fd5b600954811115610c6357604051632ca2f52b60e11b815260040160405180910390fd5b8060095f828254610c749190612e2e565b909155505050565b610c846110d4565b610c8d5f61265b565b565b610c976110d4565b60328261ffff161180610caf57506107d08161ffff16115b15610ccd576040516317dbc4cb60e21b815260040160405180910390fd5b60035f9054906101000a90046001600160a01b03166001600160a01b031663edcf9c1f6040518163ffffffff1660e01b8152600401602060405180830381865afa158015610d1d573d5f5f3e3d5ffd5b505050506040513d601f19601f82011682018060405250810190610d419190612de7565b610d5e576040516312aecd8160e01b815260040160405180910390fd5b6008805463ffffffff60a81b1916600160a81b61ffff9485160261ffff60b81b191617600160b81b9290931691909102919091179055565b5f546001600160a01b031690565b60606017805480602002602001604051908101604052809291908181526020018280548015610c0b57602002820191905f5260205f209081546001600160a01b03168152600190910190602001808311610bed575050505050905090565b6004546001600160a01b03163314610e2d5760405163ea8e4eb560e01b815260040160405180910390fd5b5f811315610e51578060185f828254610e469190612e41565b90915550610e729050565b5f811215610e7257610e6281612e54565b60185f828254610c749190612e2e565b50565b610e7d6110d4565b8060ff165f03610ea0576040516317dbc4cb60e21b815260040160405180910390fd5b600860ff82161115610ec5576040516317dbc4cb60e21b815260040160405180910390fd5b60035f9054906101000a90046001600160a01b03166001600160a01b031663edcf9c1f6040518163ffffffff1660e01b8152600401602060405180830381865afa158015610f15573d5f5f3e3d5ffd5b505050506040513d601f19601f82011682018060405250810190610f399190612de7565b610f56576040516312aecd8160e01b815260040160405180910390fd5b6016805460ff909216620100000262ff000019909216919091179055565b610f7c6110d4565b8063ffffffff165f03610fa2576040516317dbc4cb60e21b815260040160405180910390fd5b6212750063ffffffff82161115610fcc576040516317dbc4cb60e21b815260040160405180910390fd5b60035f9054906101000a90046001600160a01b03166001600160a01b031663edcf9c1f6040518163ffffffff1660e01b8152600401602060405180830381865afa15801561101c573d5f5f3e3d5ffd5b505050506040513d601f19601f820116820180604052508101906110409190612de7565b61105d576040516312aecd8160e01b815260040160405180910390fd5b6014805463ffffffff191663ffffffff831690811790915561108b906110839042612e41565b6015546126aa565b60155550565b6110996110d4565b6001600160a01b0381166110cb575f604051631e4fbdf760e01b81526004016110c29190612c64565b60405180910390fd5b610e728161265b565b336110dd610d96565b6001600160a01b031614610c8d573360405163118cdaa760e01b81526004016110c29190612c64565b80515f908190815b8161ffff168161ffff1610156111a0575f858261ffff168151811061113557611135612e6e565b6020908102919091018101516001600160a01b0381165f90815260109092526040909120549091501561116e5761116b85612e82565b94505b6001600160a01b0381165f90815260116020526040902054156111975761119484612e82565b93505b5060010161110e565b5050915091565b86515f80805b8361ffff168161ffff16101561143e575f8b8261ffff16815181106111d4576111d4612e6e565b6020908102919091018101516001600160a01b0381165f908152601083526040808220546011909452902054909250811561134257828d8761ffff168151811061122057611220612e6e565b60200260200101906001600160a01b031690816001600160a01b031681525050818c8761ffff168151811061125757611257612e6e565b6020908102919091018101919091526001600160a01b0384165f908152600a909152604081205460065461128c9185916126be565b600354604051633c2e3e7b60e11b81529192506113149183916001600160a01b03169063785c7cf6906112c3908990600401612c64565b602060405180830381865afa1580156112de573d5f5f3e3d5ffd5b505050506040513d601f19601f820116820180604052508101906113029190612ea2565b600854600160a01b900460ff1661276f565b8c8861ffff168151811061132a5761132a612e6e565b602090810291909101015261133e87612e82565b9650505b801561143057828a8661ffff168151811061135f5761135f612e6e565b60200260200101906001600160a01b031690816001600160a01b03168152505080898661ffff168151811061139657611396612e6e565b6020908102919091018101919091526001600160a01b0384165f908152600a90915260408120546006546113cb9184916126be565b600354604051633c2e3e7b60e11b81529192506114029183916001600160a01b03169063785c7cf6906112c3908990600401612c64565b898761ffff168151811061141857611418612e6e565b602090810291909101015261142c86612e82565b9550505b5050508060010190506111ad565b5050505050505050505050565b60026001540361146e57604051633ee5aeb560e01b815260040160405180910390fd5b6002600155565b601554421115806114f7575060035f9054906101000a90046001600160a01b03166001600160a01b031663edcf9c1f6040518163ffffffff1660e01b8152600401602060405180830381865afa1580156114d1573d5f5f3e3d5ffd5b505050506040513d601f19601f820116820180604052508101906114f59190612de7565b155b156115155760405163085de62560e01b815260040160405180910390fd5b5f5b60125461ffff821610156115ca575f600a6008018261ffff168154811061154057611540612e6e565b5f9182526020808320909101546001600160a01b03168252600a81526040808320839055600b8252808320839055600c8252808320839055600e8252808320839055600f8252808320839055600d8252808320839055601082528083208390556011825280832083905560139091529020805460ff19169055506115c381612e82565b9050611517565b506115d660125f612ae5565b6115de6127d9565b60175415610c8d576014546115f99063ffffffff1642612e41565b6015556016805463ff00000019166301000000179055565b60016016546301000000900460ff16600481111561163157611631612b13565b1461164f5760405163baf3f0f760e01b815260040160405180910390fd5b6016545f906116709060ff620100008204811691600160201b900416612ebd565b60165460ff91821692505f9161168d916201000090041683612ee0565b90506016600481819054906101000a900460ff166116aa90612efa565b91906101000a81548160ff021916908360ff1602179055506017805490508161ffff1611806116de575060175461ffff8216145b156116fc57506017546016805464ffff000000191663020000001790555b815b8161ffff168161ffff161015611d72575f60178261ffff168154811061172657611726612e6e565b905f5260205f20015f9054906101000a90046001600160a01b031690505f5f826001600160a01b031663d3d034586040518163ffffffff1660e01b81526004015f60405180830381865afa158015611780573d5f5f3e3d5ffd5b505050506040513d5f823e601f3d908101601f191682016040526117a79190810190612fd4565b90925090505f805b83518161ffff161015611a42575f848261ffff16815181106117d3576117d3612e6e565b602002602001015190505f848361ffff16815181106117f4576117f4612e6e565b6020026020010151905080600a6001015f846001600160a01b03166001600160a01b031681526020019081526020015f205f8282546118339190612e41565b90915550506001600160a01b0382165f9081526013602052604090205460ff166119b7576008546001600160a01b039081169083160361192f576008546119129061188990600160a01b900460ff16600a613175565b600860149054906101000a900460ff1660035f9054906101000a90046001600160a01b03166001600160a01b031663567ba7136040518163ffffffff1660e01b8152600401602060405180830381865afa1580156118e9573d5f5f3e3d5ffd5b505050506040513d601f19601f8201168201806040525081019061190d9190612ea2565b61276f565b6001600160a01b0383165f908152600a60205260409020556119b7565b6005546040516341976e0960e01b81526001600160a01b03909116906341976e099061195f908590600401612c64565b602060405180830381865afa15801561197a573d5f5f3e3d5ffd5b505050506040513d601f19601f8201168201806040525081019061199e9190613183565b6001600160a01b0383165f908152600a60205260409020555b6001600160a01b0382165f908152600a6020526040812054600654909190611a16906119e690849086906126be565b600354604051633c2e3e7b60e11b81526001600160a01b039091169063785c7cf6906112c3908990600401612c64565b9050611a228187612e41565b9550611a2d84612a33565b5050505080611a3b90612e82565b90506117af565b506008545f90611a6090600160a81b900461ffff16836127106126be565b601454909150611a8190829063ffffffff908116906301e13380906126be16565b90508060095f828254611a949190612e41565b90915550611aa490508183612e2e565b60405163728d42fb60e11b8152600481018290529092505f906001600160a01b0387169063e51a85f690602401602060405180830381865afa158015611aec573d5f5f3e3d5ffd5b505050506040513d601f19601f82011682018060405250810190611b109190613183565b9050611b1c8184612e2e565b6001600160a01b0387165f908152600e6020526040812082905560085491945090611b5590600160b81b900461ffff16836127106126be565b90508060095f828254611b689190612e41565b90915550611b7890508183612e2e565b601654604051630df571f760e01b815261ffff9091166004820152602481018290529092506001600160a01b03881690630df571f7906044015f604051808303815f87803b158015611bc8575f5ffd5b505af1158015611bda573d5f5f3e3d5ffd5b505050505f876001600160a01b031663a68a5267896001600160a01b0316630a605c6d6040518163ffffffff1660e01b8152600401602060405180830381865afa158015611c2a573d5f5f3e3d5ffd5b505050506040513d601f19601f82011682018060405250810190611c4e9190613183565b875f6040518463ffffffff1660e01b8152600401611c6e9392919061319a565b602060405180830381865afa158015611c89573d5f5f3e3d5ffd5b505050506040513d601f19601f82011682018060405250810190611cad9190613183565b9050611cb98186612e2e565b94505f886001600160a01b031663f64c6f326040518163ffffffff1660e01b8152600401602060405180830381865afa158015611cf8573d5f5f3e3d5ffd5b505050506040513d601f19601f82011682018060405250810190611d1c9190613183565b6001600160a01b038a165f908152600f602052604090208790559050611d428187612e41565b6001600160a01b039099165f908152600c60205260409020989098555050600190960195506116fe945050505050565b505050565b60026016546301000000900460ff166004811115611d9757611d97612b13565b14611db55760405163baf3f0f760e01b815260040160405180910390fd5b6016805463ff000000191663030000001790556017545f805b8261ffff168161ffff161015611e32575f60178261ffff1681548110611df657611df6612e6e565b5f9182526020808320909101546001600160a01b0316808352600c909152604090912054909150611e279084612e41565b925050600101611dce565b50600480546040805163dab26e3b60e01b815290515f93611ea9936001600160a01b03169263dab26e3b92818301926020928290030181865afa158015611e7b573d5f5f3e3d5ffd5b505050506040513d601f19601f82011682018060405250810190611e9f9190613183565b83906127106126be565b9050806018541115611eba57505050565b5f60185482611ec99190612e2e565b90505f5b8461ffff168161ffff161015611f67575f60178261ffff1681548110611ef557611ef5612e6e565b5f9182526020808320909101546001600160a01b0316808352600c909152604082205490925090611f278583896126be565b6001600160a01b0384165f908152600c6020526040812080549293508392909190611f53908490612e2e565b909155505060019093019250611ecd915050565b508060185f828254611f799190612e41565b909155505050505050565b60036016546301000000900460ff166004811115611fa457611fa4612b13565b14611fc25760405163baf3f0f760e01b815260040160405180910390fd5b6016545f90611fe39060ff620100008204811691600160201b900416612ebd565b60165460ff91821692505f91612000916201000090041683612ee0565b90506016600481819054906101000a900460ff1661201d90612efa565b91906101000a81548160ff021916908360ff1602179055506017805490508161ffff161180612051575060175461ffff8216145b1561206f57506017546016805464ffff000000191663040000001790555b815b8161ffff168161ffff161015611d72575f60178261ffff168154811061209957612099612e6e565b905f5260205f20015f9054906101000a90046001600160a01b031690505f5f826001600160a01b031663b6eba6536040518163ffffffff1660e01b81526004015f60405180830381865afa1580156120f3573d5f5f3e3d5ffd5b505050506040513d5f823e601f3d908101601f1916820160405261211a91908101906131c6565b6001600160a01b0385165f908152600c6020526040812054835193955091935090916001600160401b0381111561215357612153612e06565b60405190808252806020026020018201604052801561219757816020015b604080518082019091525f80825260208201528152602001906001900390816121715790505b5090505f5b84518161ffff161015612423575f858261ffff16815181106121c0576121c0612e6e565b602002602001015190505f858361ffff16815181106121e1576121e1612e6e565b6020908102919091018101516001600160a01b0384165f908152601390925260409091205490915060ff166122e7576008546001600160a01b039081169083160361225f576008546122429061188990600160a01b900460ff16600a613175565b6001600160a01b0383165f908152600a60205260409020556122e7565b6005546040516341976e0960e01b81526001600160a01b03909116906341976e099061228f908590600401612c64565b602060405180830381865afa1580156122aa573d5f5f3e3d5ffd5b505050506040513d601f19601f820116820180604052508101906122ce9190613183565b6001600160a01b0383165f908152600a60205260409020555b6001600160a01b0382165f908152600a60205260408120546006546007549192916123899161232f918590612328908c9063ffffffff808b1691906126be16565b91906126be565b600854600354604051633c2e3e7b60e11b8152600160a01b90920460ff16916001600160a01b039091169063785c7cf69061236e908a90600401612c64565b602060405180830381865afa1580156118e9573d5f5f3e3d5ffd5b90506040518060400160405280856001600160a01b0316815260200182815250868661ffff16815181106123bf576123bf612e6e565b602002602001018190525080600a6003015f866001600160a01b03166001600160a01b031681526020019081526020015f205f8282546123ff9190612e41565b9091555061240e905084612a33565b505050508061241c90612e82565b905061219c565b50604051634c2dd25760e11b81526001600160a01b0386169063985ba4ae90612452908490869060040161327f565b5f604051808303815f87803b158015612469575f5ffd5b505af115801561247b573d5f5f3e3d5ffd5b505050505050505050806001019050612071565b60046016546301000000900460ff1660048111156124af576124af612b13565b146124cd5760405163baf3f0f760e01b815260040160405180910390fd5b5f600a60080180548060200260200160405190810160405280929190818152602001828054801561252557602002820191905f5260205f20905b81546001600160a01b03168152600190910190602001808311612507575b505083519394505f925050505b8161ffff168161ffff1610156125f0575f838261ffff168151811061255957612559612e6e565b6020908102919091018101516001600160a01b0381165f908152600b8352604080822054600d909452902054909250808211156125b75761259a8183612e2e565b6001600160a01b0384165f908152601060205260409020556125e2565b818111156125e2576125c98282612e2e565b6001600160a01b0384165f908152601160205260409020555b505050806001019050612532565b506016805463ff00000019811682555f9061260e9061ffff16612e82565b82546101009290920a61ffff8181021990931691831602179091556016546040519116907f0bc12479581640d161e016cef21aa834cb6d6326bbc0d8445e58d56403adf2dc905f90a25050565b5f80546001600160a01b038381166001600160a01b0319831681178455604051919092169283917f8be0079c531659141344cd1fd0a4f28419497f9722a3daafe3b4186f6b6457e09190a35050565b5f8282188284100282185b90505b92915050565b5f5f5f6126cb8686612ab8565b91509150815f036126ef578381816126e5576126e56132e0565b0492505050612768565b818411612706576127066003851502601118612ad4565b5f848688095f868103871696879004966002600389028118808a02820302808a02820302808a02820302808a02820302808a02820302808a02909103029181900381900460010185841190960395909502919093039390930492909217029150505b9392505050565b5f8260ff168260ff1611156127a45761278883836132f4565b61279390600a613175565b61279d908561330d565b9050612768565b8260ff168260ff1610156127d1576127bc82846132f4565b6127c790600a613175565b61279d9085613324565b509192915050565b600354604051631da09e4360e31b81525f916001600160a01b03169063ed04f21890612809908490600401613343565b5f60405180830381865afa158015612823573d5f5f3e3d5ffd5b505050506040513d5f823e601f3d908101601f1916820160405261284a9190810190613357565b905061285760175f612ae5565b5f5b81518161ffff161015610a20575f828261ffff168151811061287d5761287d612e6e565b60200260200101519050806001600160a01b03166301e1d1146040518163ffffffff1660e01b8152600401602060405180830381865afa1580156128c3573d5f5f3e3d5ffd5b505050506040513d601f19601f820116820180604052508101906128e79190613183565b816001600160a01b031663f64c6f326040518163ffffffff1660e01b8152600401602060405180830381865afa158015612923573d5f5f3e3d5ffd5b505050506040513d601f19601f820116820180604052508101906129479190613183565b6129519190612e41565b5f0361295d5750612a23565b5f816001600160a01b031663b6eba6536040518163ffffffff1660e01b81526004015f60405180830381865afa158015612999573d5f5f3e3d5ffd5b505050506040513d5f823e601f3d908101601f191682016040526129c091908101906131c6565b50905080515f036129d2575050612a23565b50601780546001810182555f919091527fc624b66cc0138b8fabc209247f72d758e1cf3343756d543badbf24212bed8c150180546001600160a01b0319166001600160a01b03929092169190911790555b612a2c81612e82565b9050612859565b6001600160a01b0381165f9081526013602052604090205460ff16610e72576012805460018181019092557fbb8a6a4669ba250d26cd7a459eca9d215f8307e33aebe50379bc5a3617ec34440180546001600160a01b0384166001600160a01b031990911681179091555f908152601360205260409020805460ff1916909117905550565b5f805f1983850993909202808410938190039390930393915050565b634e487b715f52806020526024601cfd5b5080545f8255905f5260205f2090810190610e7291905b80821115612b0f575f8155600101612afc565b5090565b634e487b7160e01b5f52602160045260245ffd5b6020810160058310612b3b57612b3b612b13565b91905290565b6001600160a01b0381168114610e72575f5ffd5b5f60208284031215612b65575f5ffd5b813561276881612b41565b5f8151808452602084019350602083015f5b82811015612ba95781516001600160a01b0316865260209586019590910190600101612b82565b5093949350505050565b5f8151808452602084019350602083015f5b82811015612ba9578151865260209586019590910190600101612bc5565b60c081525f612bf560c0830189612b70565b8281036020840152612c078189612bb3565b90508281036040840152612c1b8188612b70565b90508281036060840152612c2f8187612bb3565b90508281036080840152612c438186612bb3565b905082810360a0840152612c578185612bb3565b9998505050505050505050565b6001600160a01b0391909116815260200190565b5f5f60208385031215612c89575f5ffd5b82356001600160401b03811115612c9e575f5ffd5b8301601f81018513612cae575f5ffd5b80356001600160401b03811115612cc3575f5ffd5b856020828401011115612cd4575f5ffd5b6020919091019590945092505050565b5f60208284031215612cf4575f5ffd5b5035919050565b8215158152604060208201525f82518060408401528060208501606085015e5f606082850101526060601f19601f8301168401019150509392505050565b602081525f6126b56020830184612b70565b803561ffff81168114612d5c575f5ffd5b919050565b5f5f60408385031215612d72575f5ffd5b612d7b83612d4b565b9150612d8960208401612d4b565b90509250929050565b60ff81168114610e72575f5ffd5b5f60208284031215612db0575f5ffd5b813561276881612d92565b63ffffffff81168114610e72575f5ffd5b5f60208284031215612ddc575f5ffd5b813561276881612dbb565b5f60208284031215612df7575f5ffd5b81518015158114612768575f5ffd5b634e487b7160e01b5f52604160045260245ffd5b634e487b7160e01b5f52601160045260245ffd5b818103818111156126b8576126b8612e1a565b808201808211156126b8576126b8612e1a565b5f600160ff1b8201612e6857612e68612e1a565b505f0390565b634e487b7160e01b5f52603260045260245ffd5b5f61ffff821661ffff8103612e9957612e99612e1a565b60010192915050565b5f60208284031215612eb2575f5ffd5b815161276881612d92565b60ff8181168382160290811690818114612ed957612ed9612e1a565b5092915050565b61ffff81811683821601908111156126b8576126b8612e1a565b5f60ff821660ff8103612e9957612e99612e1a565b604051601f8201601f191681016001600160401b0381118282101715612f3757612f37612e06565b604052919050565b5f6001600160401b03821115612f5757612f57612e06565b5060051b60200190565b5f82601f830112612f70575f5ffd5b8151612f83612f7e82612f3f565b612f0f565b8082825260208201915060208360051b860101925085831115612fa4575f5ffd5b602085015b83811015612fca578051612fbc81612b41565b835260209283019201612fa9565b5095945050505050565b5f5f60408385031215612fe5575f5ffd5b82516001600160401b03811115612ffa575f5ffd5b61300685828601612f61565b602085015190935090506001600160401b03811115613023575f5ffd5b8301601f81018513613033575f5ffd5b8051613041612f7e82612f3f565b8082825260208201915060208360051b850101925087831115613062575f5ffd5b6020840193505b82841015613084578351825260209384019390910190613069565b809450505050509250929050565b6001815b60018411156130cd578085048111156130b1576130b1612e1a565b60018416156130bf57908102905b60019390931c928002613096565b935093915050565b5f826130e3575060016126b8565b816130ef57505f6126b8565b8160018114613105576002811461310f5761312b565b60019150506126b8565b60ff84111561312057613120612e1a565b50506001821b6126b8565b5060208310610133831016604e8410600b841016171561314e575081810a6126b8565b61315a5f198484613092565b805f190482111561316d5761316d612e1a565b029392505050565b5f6126b560ff8416836130d5565b5f60208284031215613193575f5ffd5b5051919050565b8381526020810183905260608101600483106131b8576131b8612b13565b826040830152949350505050565b5f5f604083850312156131d7575f5ffd5b82516001600160401b038111156131ec575f5ffd5b6131f885828601612f61565b602085015190935090506001600160401b03811115613215575f5ffd5b8301601f81018513613225575f5ffd5b8051613233612f7e82612f3f565b8082825260208201915060208360051b850101925087831115613254575f5ffd5b6020840193505b8284101561308457835161326e81612dbb565b82526020938401939091019061325b565b604080825283519082018190525f9060208501906060840190835b818110156132cd57835180516001600160a01b03168452602090810151818501529093019260409092019160010161329a565b5050602093909301939093525092915050565b634e487b7160e01b5f52601260045260245ffd5b60ff82811682821603908111156126b8576126b8612e1a565b80820281158282048414176126b8576126b8612e1a565b5f8261333e57634e487b7160e01b5f52601260045260245ffd5b500490565b6020810160028310612b3b57612b3b612b13565b5f60208284031215613367575f5ffd5b81516001600160401b0381111561337c575f5ffd5b61338884828501612f61565b94935050505056fea264697066735822122065bab9e7cfc80ca86b12f1ecacb1e22c3fe0697be8eec3635428bc92e78b644964736f6c634300081c0033",
  "linkReferences": {},
  "deployedLinkReferences": {}
}