{
  "_format": "hh-sol-artifact-1",
  "contractName": "InternalStatesOrchestrator",
  "sourceName": "contracts/orchestrators/InternalStatesOrchestrator.sol",
  "abi": [
    {
      "inputs": [
        {
          "internalType": "address",
          "name": "target",
          "type": "address"
        }
      ],
      "name": "AddressEmptyCode",
      "type": "error"
    },
    {
      "inputs": [
        {
          "internalType": "address",
          "name": "implementation",
          "type": "address"
        }
      ],
      "name": "ERC1967InvalidImplementation",
      "type": "error"
    },
    {
      "inputs": [],
      "name": "ERC1967NonPayable",
      "type": "error"
    },
    {
      "inputs": [],
      "name": "FailedCall",
      "type": "error"
    },
    {
      "inputs": [],
      "name": "InvalidArguments",
      "type": "error"
    },
    {
      "inputs": [],
      "name": "InvalidInitialization",
      "type": "error"
    },
    {
      "inputs": [],
      "name": "NotAuthorized",
      "type": "error"
    },
    {
      "inputs": [],
      "name": "NotInitializing",
      "type": "error"
    },
    {
      "inputs": [
        {
          "internalType": "address",
          "name": "owner",
          "type": "address"
        }
      ],
      "name": "OwnableInvalidOwner",
      "type": "error"
    },
    {
      "inputs": [
        {
          "internalType": "address",
          "name": "account",
          "type": "address"
        }
      ],
      "name": "OwnableUnauthorizedAccount",
      "type": "error"
    },
    {
      "inputs": [],
      "name": "ReentrancyGuardReentrantCall",
      "type": "error"
    },
    {
      "inputs": [],
      "name": "SystemNotIdle",
      "type": "error"
    },
    {
      "inputs": [],
      "name": "TooEarly",
      "type": "error"
    },
    {
      "inputs": [],
      "name": "UUPSUnauthorizedCallContext",
      "type": "error"
    },
    {
      "inputs": [
        {
          "internalType": "bytes32",
          "name": "slot",
          "type": "bytes32"
        }
      ],
      "name": "UUPSUnsupportedProxiableUUID",
      "type": "error"
    },
    {
      "inputs": [],
      "name": "ZeroAddress",
      "type": "error"
    },
    {
      "anonymous": false,
      "inputs": [
        {
          "indexed": true,
          "internalType": "address",
          "name": "newAutomationRegistry",
          "type": "address"
        }
      ],
      "name": "AutomationRegistryUpdated",
      "type": "event"
    },
    {
      "anonymous": false,
      "inputs": [
        {
          "indexed": false,
          "internalType": "uint64",
          "name": "version",
          "type": "uint64"
        }
      ],
      "name": "Initialized",
      "type": "event"
    },
    {
      "anonymous": false,
      "inputs": [
        {
          "indexed": false,
          "internalType": "uint256",
          "name": "epochCounter",
          "type": "uint256"
        }
      ],
      "name": "InternalStateProcessed",
      "type": "event"
    },
    {
      "anonymous": false,
      "inputs": [
        {
          "indexed": true,
          "internalType": "address",
          "name": "previousOwner",
          "type": "address"
        },
        {
          "indexed": true,
          "internalType": "address",
          "name": "newOwner",
          "type": "address"
        }
      ],
      "name": "OwnershipTransferStarted",
      "type": "event"
    },
    {
      "anonymous": false,
      "inputs": [
        {
          "indexed": true,
          "internalType": "address",
          "name": "previousOwner",
          "type": "address"
        },
        {
          "indexed": true,
          "internalType": "address",
          "name": "newOwner",
          "type": "address"
        }
      ],
      "name": "OwnershipTransferred",
      "type": "event"
    },
    {
      "anonymous": false,
      "inputs": [
        {
          "indexed": true,
          "internalType": "address",
          "name": "implementation",
          "type": "address"
        }
      ],
      "name": "Upgraded",
      "type": "event"
    },
    {
      "inputs": [],
      "name": "UPDATE_INTERVAL",
      "outputs": [
        {
          "internalType": "uint256",
          "name": "",
          "type": "uint256"
        }
      ],
      "stateMutability": "view",
      "type": "function"
    },
    {
      "inputs": [],
      "name": "UPGRADE_INTERFACE_VERSION",
      "outputs": [
        {
          "internalType": "string",
          "name": "",
          "type": "string"
        }
      ],
      "stateMutability": "view",
      "type": "function"
    },
    {
      "inputs": [],
      "name": "acceptOwnership",
      "outputs": [],
      "stateMutability": "nonpayable",
      "type": "function"
    },
    {
      "inputs": [],
      "name": "automationRegistry",
      "outputs": [
        {
          "internalType": "address",
          "name": "",
          "type": "address"
        }
      ],
      "stateMutability": "view",
      "type": "function"
    },
    {
      "inputs": [
        {
          "internalType": "bytes",
          "name": "",
          "type": "bytes"
        }
      ],
      "name": "checkUpkeep",
      "outputs": [
        {
          "internalType": "bool",
          "name": "upkeepNeeded",
          "type": "bool"
        },
        {
          "internalType": "bytes",
          "name": "performData",
          "type": "bytes"
        }
      ],
      "stateMutability": "view",
      "type": "function"
    },
    {
      "inputs": [],
      "name": "config",
      "outputs": [
        {
          "internalType": "contract IOrionConfig",
          "name": "",
          "type": "address"
        }
      ],
      "stateMutability": "view",
      "type": "function"
    },
    {
      "inputs": [],
      "name": "currentPhase",
      "outputs": [
        {
          "internalType": "enum IInternalStateOrchestrator.InternalUpkeepPhase",
          "name": "",
          "type": "uint8"
        }
      ],
      "stateMutability": "view",
      "type": "function"
    },
    {
      "inputs": [],
      "name": "currentVaultIndex",
      "outputs": [
        {
          "internalType": "uint256",
          "name": "",
          "type": "uint256"
        }
      ],
      "stateMutability": "view",
      "type": "function"
    },
    {
      "inputs": [],
      "name": "epochCounter",
      "outputs": [
        {
          "internalType": "uint256",
          "name": "",
          "type": "uint256"
        }
      ],
      "stateMutability": "view",
      "type": "function"
    },
    {
      "inputs": [],
      "name": "expectedUnderlyingBuyAmount",
      "outputs": [
        {
          "internalType": "uint256",
          "name": "",
          "type": "uint256"
        }
      ],
      "stateMutability": "view",
      "type": "function"
    },
    {
      "inputs": [],
      "name": "expectedUnderlyingSellAmount",
      "outputs": [
        {
          "internalType": "uint256",
          "name": "",
          "type": "uint256"
        }
      ],
      "stateMutability": "view",
      "type": "function"
    },
    {
      "inputs": [],
      "name": "getBuyingOrders",
      "outputs": [
        {
          "internalType": "address[]",
          "name": "tokens",
          "type": "address[]"
        },
        {
          "internalType": "uint256[]",
          "name": "amounts",
          "type": "uint256[]"
        }
      ],
      "stateMutability": "view",
      "type": "function"
    },
    {
      "inputs": [],
      "name": "getSellingOrders",
      "outputs": [
        {
          "internalType": "address[]",
          "name": "tokens",
          "type": "address[]"
        },
        {
          "internalType": "uint256[]",
          "name": "amounts",
          "type": "uint256[]"
        }
      ],
      "stateMutability": "view",
      "type": "function"
    },
    {
      "inputs": [
        {
          "internalType": "address",
          "name": "initialOwner",
          "type": "address"
        },
        {
          "internalType": "address",
          "name": "automationRegistry_",
          "type": "address"
        },
        {
          "internalType": "address",
          "name": "config_",
          "type": "address"
        }
      ],
      "name": "initialize",
      "outputs": [],
      "stateMutability": "nonpayable",
      "type": "function"
    },
    {
      "inputs": [],
      "name": "intentFactor",
      "outputs": [
        {
          "internalType": "uint256",
          "name": "",
          "type": "uint256"
        }
      ],
      "stateMutability": "view",
      "type": "function"
    },
    {
      "inputs": [],
      "name": "owner",
      "outputs": [
        {
          "internalType": "address",
          "name": "",
          "type": "address"
        }
      ],
      "stateMutability": "view",
      "type": "function"
    },
    {
      "inputs": [],
      "name": "pendingOwner",
      "outputs": [
        {
          "internalType": "address",
          "name": "",
          "type": "address"
        }
      ],
      "stateMutability": "view",
      "type": "function"
    },
    {
      "inputs": [
        {
          "internalType": "bytes",
          "name": "performData",
          "type": "bytes"
        }
      ],
      "name": "performUpkeep",
      "outputs": [],
      "stateMutability": "nonpayable",
      "type": "function"
    },
    {
      "inputs": [],
      "name": "proxiableUUID",
      "outputs": [
        {
          "internalType": "bytes32",
          "name": "",
          "type": "bytes32"
        }
      ],
      "stateMutability": "view",
      "type": "function"
    },
    {
      "inputs": [],
      "name": "registry",
      "outputs": [
        {
          "internalType": "contract IPriceAdapterRegistry",
          "name": "",
          "type": "address"
        }
      ],
      "stateMutability": "view",
      "type": "function"
    },
    {
      "inputs": [],
      "name": "renounceOwnership",
      "outputs": [],
      "stateMutability": "nonpayable",
      "type": "function"
    },
    {
      "inputs": [
        {
          "internalType": "address",
          "name": "newOwner",
          "type": "address"
        }
      ],
      "name": "transferOwnership",
      "outputs": [],
      "stateMutability": "nonpayable",
      "type": "function"
    },
    {
      "inputs": [
        {
          "internalType": "uint256",
          "name": "",
          "type": "uint256"
        }
      ],
      "name": "transparentVaultsEpoch",
      "outputs": [
        {
          "internalType": "address",
          "name": "",
          "type": "address"
        }
      ],
      "stateMutability": "view",
      "type": "function"
    },
    {
      "inputs": [],
      "name": "underlyingDecimals",
      "outputs": [
        {
          "internalType": "uint8",
          "name": "",
          "type": "uint8"
        }
      ],
      "stateMutability": "view",
      "type": "function"
    },
    {
      "inputs": [
        {
          "internalType": "address",
          "name": "newAutomationRegistry",
          "type": "address"
        }
      ],
      "name": "updateAutomationRegistry",
      "outputs": [],
      "stateMutability": "nonpayable",
      "type": "function"
    },
    {
      "inputs": [
        {
          "internalType": "address",
          "name": "newConfig",
          "type": "address"
        }
      ],
      "name": "updateConfig",
      "outputs": [],
      "stateMutability": "nonpayable",
      "type": "function"
    },
    {
      "inputs": [
        {
          "internalType": "address",
          "name": "newImplementation",
          "type": "address"
        },
        {
          "internalType": "bytes",
          "name": "data",
          "type": "bytes"
        }
      ],
      "name": "upgradeToAndCall",
      "outputs": [],
      "stateMutability": "payable",
      "type": "function"
    }
  ],
  "bytecode": "0x60a0604052306080523480156012575f5ffd5b506080516130556100395f395f8181611ff001528181612019015261215801526130555ff3fe608060405260043610610195575f3560e01c80636e04ff0d116100e7578063998b174111610087578063c0c53b8b11610062578063c0c53b8b1461045f578063c2cb5d881461047e578063e30c397814610492578063f2fde38b146104a6575f5ffd5b8063998b1741146103eb578063a08b82d714610400578063ad3cb1cc14610422575f5ffd5b806379ba5097116100c257806379ba5097146103905780637b103999146103a457806389ac4147146103c35780638da5cb5b146103d7575f5ffd5b80636e04ff0d14610330578063715018a61461035d57806379502c5514610371575f5ffd5b80634585e33b1161015257806352d1902d1161012d57806352d1902d146102a857806358fac65b146102bc5780635dc228a0146102f35780636cc919c814610311575f5ffd5b80634585e33b146102615780634a1d9625146102805780634f1ef28614610295575f5ffd5b8063055ad42e1461019957806306cce848146101c857806314b19c5a146101eb57806314b5d07f1461020057806325a760c2146102215780632b0088b41461024c575b5f5ffd5b3480156101a4575f5ffd5b506012546101b29060ff1681565b6040516101bf91906128bb565b60405180910390f35b3480156101d3575f5ffd5b506101dd600e5481565b6040519081526020016101bf565b3480156101f6575f5ffd5b506101dd60105481565b34801561020b575f5ffd5b5061021f61021a3660046128e2565b6104c5565b005b34801561022c575f5ffd5b5060045461023a9060ff1681565b60405160ff90911681526020016101bf565b348015610257575f5ffd5b506101dd60035481565b34801561026c575f5ffd5b5061021f61027b3660046128fd565b6105cc565b34801561028b575f5ffd5b506101dd600f5481565b61021f6102a33660046129ad565b610839565b3480156102b3575f5ffd5b506101dd610854565b3480156102c7575f5ffd5b506102db6102d6366004612a52565b61086f565b6040516001600160a01b0390911681526020016101bf565b3480156102fe575f5ffd5b505f546102db906001600160a01b031681565b34801561031c575f5ffd5b5061021f61032b3660046128e2565b610897565b34801561033b575f5ffd5b5061034f61034a3660046128fd565b610979565b6040516101bf929190612a97565b348015610368575f5ffd5b5061021f610b13565b34801561037c575f5ffd5b506001546102db906001600160a01b031681565b34801561039b575f5ffd5b5061021f610b26565b3480156103af575f5ffd5b506002546102db906001600160a01b031681565b3480156103ce575f5ffd5b506101dd603c81565b3480156103e2575f5ffd5b506102db610b73565b3480156103f6575f5ffd5b506101dd60135481565b34801561040b575f5ffd5b50610414610ba7565b6040516101bf929190612ab1565b34801561042d575f5ffd5b50610452604051806040016040528060058152602001640352e302e360dc1b81525081565b6040516101bf9190612b3a565b34801561046a575f5ffd5b5061021f610479366004612b4c565b610db7565b348015610489575f5ffd5b5061041461112c565b34801561049d575f5ffd5b506102db611333565b3480156104b1575f5ffd5b5061021f6104c03660046128e2565b61135b565b6104cd6113e0565b6001600160a01b0381166104f45760405163d92e233d60e01b815260040160405180910390fd5b60015f9054906101000a90046001600160a01b03166001600160a01b031663edcf9c1f6040518163ffffffff1660e01b8152600401602060405180830381865afa158015610544573d5f5f3e3d5ffd5b505050506040513d601f19601f820116820180604052508101906105689190612b94565b610585576040516312aecd8160e01b815260040160405180910390fd5b5f80546001600160a01b0319166001600160a01b038316908117825560405190917f6cc7ebdb6c8c53291c5ae16148cab9b049d23bf5bde5632900b40edff56fcb4391a250565b5f546001600160a01b031633146105f65760405163ea8e4eb560e01b815260040160405180910390fd5b6105fe611412565b6004811015610620576040516317dbc4cb60e21b815260040160405180910390fd5b5f61062e6004828486612bb3565b61063791612bda565b90506341659aab60e01b6001600160e01b03198216016106fd5761065961145c565b61066161148d565b600154604051631da09e4360e31b81526001600160a01b039091169063ed04f21890610691905f90600401612c12565b5f60405180830381865afa1580156106ab573d5f5f3e3d5ffd5b505050506040513d5f823e601f3d908101601f191682016040526106d29190810190612cbb565b80516106e691601491602090910190612809565b505f6013556012805460ff1916600117905561080b565b600162e1be3b60e01b03196001600160e01b0319821601610744575f6107268360048187612bb3565b8101906107339190612a52565b905061073e8161158e565b5061080b565b630795aad760e41b6001600160e01b031982160161076957610764611ac9565b61080b565b6350c9887560e01b6001600160e01b03198216016107f257610789611e32565b6012805460ff1916905561079e60145f61286c565b60108054905f6107ad83612d00565b91905055507f9375d658f91055a030c54d5cf460d6f12968b10b80b0797c1aa5c02e4dca94036010546040516107e591815260200190565b60405180910390a161080b565b6040516317dbc4cb60e21b815260040160405180910390fd5b5061083560017f9b779b17422d0df92223018b32b4d1fa46e071723d6817e2486d003becc55f0055565b5050565b610841611fe5565b61084a82612089565b6108358282612091565b5f61085d61214d565b505f5160206130005f395f51905f5290565b6014818154811061087e575f80fd5b5f918252602090912001546001600160a01b0316905081565b61089f6113e0565b6001600160a01b0381166108c65760405163d92e233d60e01b815260040160405180910390fd5b60015f9054906101000a90046001600160a01b03166001600160a01b031663edcf9c1f6040518163ffffffff1660e01b8152600401602060405180830381865afa158015610916573d5f5f3e3d5ffd5b505050506040513d601f19601f8201168201806040525081019061093a9190612b94565b610957576040516312aecd8160e01b815260040160405180910390fd5b600180546001600160a01b0319166001600160a01b0392909216919091179055565b5f606060015f9054906101000a90046001600160a01b03166001600160a01b031663edcf9c1f6040518163ffffffff1660e01b8152600401602060405180830381865afa1580156109cc573d5f5f3e3d5ffd5b505050506040513d601f19601f820116820180604052508101906109f09190612b94565b80156109fe57506011544210155b15610a315760405163be9a655560e01b6020820152600192506024015b6040516020818303038152906040529050610b0c565b600160125460ff166003811115610a4a57610a4a612897565b148015610a5a5750601454601354105b15610a855760135460405162e1be3b60e01b6020820152602481019190915260019250604401610a1b565b600260125460ff166003811115610a9e57610a9e612897565b03610abf5760405163086a552960e41b602082015260019250602401610a1b565b600360125460ff166003811115610ad857610ad8612897565b03610af95760405163af36778b60e01b602082015260019250602401610a1b565b505060408051602081019091525f808252905b9250929050565b610b1b6113e0565b610b245f612196565b565b3380610b30611333565b6001600160a01b031614610b675760405163118cdaa760e01b81526001600160a01b03821660048201526024015b60405180910390fd5b610b7081612196565b50565b5f807f9016d09d72d40fdae2fd8ceac6b6234c7706214fd39c1cd1e609a0528c1993005b546001600160a01b031692915050565b600a80546040805160208084028201810190925282815260609384935f93830182828015610bfc57602002820191905f5260205f20905b81546001600160a01b03168152600190910190602001808311610bde575b505083519394505f9250829150505b82811015610c70575f60056004015f868481518110610c2c57610c2c612d18565b60200260200101516001600160a01b03166001600160a01b031681526020019081526020015f20541115610c685781610c6481612d00565b9250505b600101610c0b565b50806001600160401b03811115610c8957610c89612969565b604051908082528060200260200182016040528015610cb2578160200160208202803683370190505b509450806001600160401b03811115610ccd57610ccd612969565b604051908082528060200260200182016040528015610cf6578160200160208202803683370190505b5093505f805b83811015610dae575f858281518110610d1757610d17612d18565b6020908102919091018101516001600160a01b0381165f90815260099092526040909120549091508015610da45781898581518110610d5857610d58612d18565b60200260200101906001600160a01b031690816001600160a01b03168152505080888581518110610d8b57610d8b612d18565b602090810291909101015283610da081612d00565b9450505b5050600101610cfc565b50505050509091565b5f610dc06121ce565b805490915060ff600160401b82041615906001600160401b03165f81158015610de65750825b90505f826001600160401b03166001148015610e015750303b155b905081158015610e0f575080155b15610e2d5760405163f92ee8a960e01b815260040160405180910390fd5b845467ffffffffffffffff191660011785558315610e5757845460ff60401b1916600160401b1785555b610e60886121f8565b610e68612209565b610e70612211565b610e78612209565b6001600160a01b038716610e9f5760405163d92e233d60e01b815260040160405180910390fd5b6001600160a01b038616610ec65760405163d92e233d60e01b815260040160405180910390fd5b5f80546001600160a01b03808a166001600160a01b0319928316179092556001805492891692909116821790556040805163015df99360e01b8152905163015df993916004808201926020929091908290030181865afa158015610f2c573d5f5f3e3d5ffd5b505050506040513d601f19601f82011682018060405250810190610f509190612d2c565b600280546001600160a01b0319166001600160a01b039283161790556001546040805163d1717c7d60e01b81529051919092169163d1717c7d9160048083019260209291908290030181865afa158015610fac573d5f5f3e3d5ffd5b505050506040513d601f19601f82011682018060405250810190610fd09190612d47565b610fdb90600a612e4a565b60035560015460408051631c56369f60e21b815290516001600160a01b0390921691637158da7c916004808201926020929091908290030181865afa158015611026573d5f5f3e3d5ffd5b505050506040513d601f19601f8201168201806040525081019061104a9190612d2c565b6001600160a01b031663313ce5676040518163ffffffff1660e01b8152600401602060405180830381865afa158015611085573d5f5f3e3d5ffd5b505050506040513d601f19601f820116820180604052508101906110a99190612d47565b6004805460ff191660ff929092169190911790556110c642612221565b6011555f60108190556012805460ff19169055601355831561112257845460ff60401b19168555604051600181527fc7f505b2f371ae2175ee4913f4499e1f2633a7b5936321eed1cdaeb6115181d29060200160405180910390a15b5050505050505050565b600a80546040805160208084028201810190925282815260609384935f9383018282801561118157602002820191905f5260205f20905b81546001600160a01b03168152600190910190602001808311611163575b505083519394505f9250829150505b828110156111f5575f60056003015f8684815181106111b1576111b1612d18565b60200260200101516001600160a01b03166001600160a01b031681526020019081526020015f205411156111ed57816111e981612d00565b9250505b600101611190565b50806001600160401b0381111561120e5761120e612969565b604051908082528060200260200182016040528015611237578160200160208202803683370190505b509450806001600160401b0381111561125257611252612969565b60405190808252806020026020018201604052801561127b578160200160208202803683370190505b5093505f805b83811015610dae575f85828151811061129c5761129c612d18565b6020908102919091018101516001600160a01b0381165f9081526008909252604090912054909150801561132957818985815181106112dd576112dd612d18565b60200260200101906001600160a01b031690816001600160a01b0316815250508088858151811061131057611310612d18565b60209081029190910101528361132581612d00565b9450505b5050600101611281565b5f807f237e158222e3e6968b72b9db0d8043aacf074ad9f650f0d1606b4d82ee432c00610b97565b6113636113e0565b7f237e158222e3e6968b72b9db0d8043aacf074ad9f650f0d1606b4d82ee432c0080546001600160a01b0319166001600160a01b03831690811782556113a7610b73565b6001600160a01b03167f38d16b8cac22d99fc7c124b9cd0de2d3fa1faef420bfe791d8c362d765e2270060405160405180910390a35050565b336113e9610b73565b6001600160a01b031614610b245760405163118cdaa760e01b8152336004820152602401610b5e565b7f9b779b17422d0df92223018b32b4d1fa46e071723d6817e2486d003becc55f0080546001190161145657604051633ee5aeb560e01b815260040160405180910390fd5b60029055565b60115442101561147f5760405163085de62560e01b815260040160405180910390fd5b61148842612221565b601155565b5f600580018054806020026020016040519081016040528092919081815260200182805480156114e457602002820191905f5260205f20905b81546001600160a01b031681526001909101906020018083116114c6575b505083519394505f925050505b81811015611582575f83828151811061150c5761150c612d18565b6020908102919091018101516001600160a01b03165f90815260058252604080822082905560068352808220829055600783528082208290556008835280822082905560098352808220829055600b8352808220805460ff19908116909155600c909352902080549091169055506001016114f1565b50610835600a5f61286c565b5f601482815481106115a2576115a2612d18565b905f5260205f20015f9054906101000a90046001600160a01b031690505f5f826001600160a01b031663d3d034586040518163ffffffff1660e01b81526004015f60405180830381865afa1580156115fc573d5f5f3e3d5ffd5b505050506040513d5f823e601f3d908101601f191682016040526116239190810190612e58565b90925090505f805b8351811015611836575f84828151811061164757611647612d18565b6020908102919091018101516001600160a01b0381165f908152600c909252604082205490925060ff16900361170157806001600160a01b031663313ce5676040518163ffffffff1660e01b8152600401602060405180830381865afa1580156116b3573d5f5f3e3d5ffd5b505050506040513d601f19601f820116820180604052508101906116d79190612d47565b6001600160a01b0382165f908152600c60205260409020805460ff191660ff929092169190911790555b6001600160a01b0381165f908152600c6020908152604080832054600590925282205460ff909116918190036117ba576002546040516341976e0960e01b81526001600160a01b038581166004830152909116906341976e0990602401602060405180830381865afa158015611779573d5f5f3e3d5ffd5b505050506040513d601f19601f8201168201806040525081019061179d9190612f14565b6001600160a01b0384165f90815260056020526040902081905590505b5f6117df828887815181106117d1576117d1612d18565b60200260200101518561222d565b90506117eb8187612f2b565b6001600160a01b0385165f90815260066020526040812080549298508392909190611817908490612f2b565b9091555061182690508461226f565b50506001909201915061162b9050565b505f846001600160a01b031663a68a5267866001600160a01b031663c37fc8a86040518163ffffffff1660e01b8152600401602060405180830381865afa158015611883573d5f5f3e3d5ffd5b505050506040513d601f19601f820116820180604052508101906118a79190612f14565b845f6040518463ffffffff1660e01b81526004016118c793929190612f3e565b602060405180830381865afa1580156118e2573d5f5f3e3d5ffd5b505050506040513d601f19601f820116820180604052508101906119069190612f14565b90505f81866001600160a01b031663d1699c266040518163ffffffff1660e01b8152600401602060405180830381865afa158015611946573d5f5f3e3d5ffd5b505050506040513d601f19601f8201168201806040525081019061196a9190612f14565b6119749085612f2b565b61197e9190612f63565b90505f5f876001600160a01b031663b6eba6536040518163ffffffff1660e01b81526004015f60405180830381865afa1580156119bd573d5f5f3e3d5ffd5b505050506040513d5f823e601f3d908101601f191682016040526119e49190810190612e58565b815191935091505f5b81811015611a8f575f848281518110611a0857611a08612d18565b602002602001015190505f848381518110611a2557611a25612d18565b602002602001015190505f6003548289611a3f9190612f76565b611a499190612f8d565b6001600160a01b0384165f90815260076020526040812080549293508392909190611a75908490612f2b565b90915550611a8490508361226f565b5050506001016119ed565b5060138054905f611a9f83612d00565b909155505060145460135410611abd576012805460ff191660021790555b50505050505050505050565b60018054604051631da09e4360e31b81525f926001600160a01b039092169163ed04f21891611afb9190600401612c12565b5f60405180830381865afa158015611b15573d5f5f3e3d5ffd5b505050506040513d5f823e601f3d908101601f19168201604052611b3c9190810190612cbb565b90505f5b8151811015611e21575f828281518110611b5c57611b5c612d18565b602002602001015190505f5f826001600160a01b031663d3d034586040518163ffffffff1660e01b81526004015f60405180830381865afa158015611ba3573d5f5f3e3d5ffd5b505050506040513d5f823e601f3d908101601f19168201604052611bca9190810190612e58565b915091505f611bd85f6122f4565b90505f5b8351811015611da8575f848281518110611bf857611bf8612d18565b6020908102919091018101516001600160a01b0381165f908152600c909252604082205490925060ff169003611cb257806001600160a01b031663313ce5676040518163ffffffff1660e01b8152600401602060405180830381865afa158015611c64573d5f5f3e3d5ffd5b505050506040513d601f19601f82011682018060405250810190611c889190612d47565b6001600160a01b0382165f908152600c60205260409020805460ff191660ff929092169190911790555b6001600160a01b0381165f908152600c6020908152604080832054600590925282205460ff90911691819003611d6b576002546040516341976e0960e01b81526001600160a01b038581166004830152909116906341976e0990602401602060405180830381865afa158015611d2a573d5f5f3e3d5ffd5b505050506040513d601f19601f82011682018060405250810190611d4e9190612f14565b6001600160a01b0384165f90815260056020526040902081905590505b5f611d8a82888781518110611d8257611d82612d18565b505f92915050565b9050611d968682612306565b95505060019093019250611bdc915050565b505f5f856001600160a01b031663b6eba6536040518163ffffffff1660e01b81526004015f60405180830381865afa158015611de6573d5f5f3e3d5ffd5b505050506040513d5f823e601f3d908101601f19168201604052611e0d9190810190612e58565b505060019096019550611b40945050505050565b50506012805460ff19166003179055565b5f60058001805480602002602001604051908101604052809291908181526020018280548015611e8957602002820191905f5260205f20905b81546001600160a01b03168152600190910190602001808311611e6b575b505083515f600e819055600f81905594955093925050505b81811015611fba575f838281518110611ebc57611ebc612d18565b6020908102919091018101516001600160a01b0381165f908152600683526040808220546007855281832054600c909552912054919350919060ff1681831115611f66575f611f0b8385612f63565b905080600e5f828254611f1e9190612f2b565b90915550506001600160a01b0385165f90815260056020526040812054611f4690838561233b565b6001600160a01b0387165f9081526008602052604090205550611faa9050565b82821115611faa575f611f798484612f63565b905080600f5f828254611f8c9190612f2b565b90915550506001600160a01b0385165f908152600960205260409020555b505060019092019150611ea19050565b505050565b60017f9b779b17422d0df92223018b32b4d1fa46e071723d6817e2486d003becc55f0055565b306001600160a01b037f000000000000000000000000000000000000000000000000000000000000000016148061206b57507f00000000000000000000000000000000000000000000000000000000000000006001600160a01b031661205f5f5160206130005f395f51905f52546001600160a01b031690565b6001600160a01b031614155b15610b245760405163703e46dd60e11b815260040160405180910390fd5b610b706113e0565b816001600160a01b03166352d1902d6040518163ffffffff1660e01b8152600401602060405180830381865afa9250505080156120eb575060408051601f3d908101601f191682019092526120e891810190612f14565b60015b61211357604051634c9c8ce360e01b81526001600160a01b0383166004820152602401610b5e565b5f5160206130005f395f51905f52811461214357604051632a87526960e21b815260048101829052602401610b5e565b611fba8383612379565b306001600160a01b037f00000000000000000000000000000000000000000000000000000000000000001614610b245760405163703e46dd60e11b815260040160405180910390fd5b7f237e158222e3e6968b72b9db0d8043aacf074ad9f650f0d1606b4d82ee432c0080546001600160a01b0319168155610835826123ce565b5f807ff0c57e16840df040f15088dc2f81fe391c3923bec73e23a9662efc9c229c6a005b92915050565b61220061243e565b610b7081612463565b610b2461243e565b61221961243e565b610b24612494565b5f6121f2603c83612f2b565b5f806122398486612f76565b6004549091505f90612251908390869060ff1661249c565b9050612265670de0b6b3a764000082612f8d565b9695505050505050565b6001600160a01b0381165f908152600b602052604090205460ff16610b7057600a805460018181019092557fc65a7bb8d6351c1cf70c95a316cc6a92839c986682d98bc35f958f4883f9d2a80180546001600160a01b0384166001600160a01b031990911681179091555f908152600b60205260409020805460ff1916909117905550565b5f6121f28263ffffffff166004612506565b5f82612318576123155f6122f4565b92505b81612329576123265f6122f4565b91505b61233483835f6125c3565b9392505050565b6004545f90819061235190859060ff168561249c565b905084612366670de0b6b3a764000083612f76565b6123709190612f8d565b95945050505050565b61238282612681565b6040516001600160a01b038316907fbc7cd75a20ee27fd9adebab32041f755214dbc6bffa90cc0225b39da2e5c2d3b905f90a28051156123c657611fba82826126e4565b61083561274d565b7f9016d09d72d40fdae2fd8ceac6b6234c7706214fd39c1cd1e609a0528c19930080546001600160a01b031981166001600160a01b03848116918217845560405192169182907f8be0079c531659141344cd1fd0a4f28419497f9722a3daafe3b4186f6b6457e0905f90a3505050565b61244661276c565b610b2457604051631afcd79f60e31b815260040160405180910390fd5b61246b61243e565b6001600160a01b038116610b6757604051631e4fbdf760e01b81525f6004820152602401610b5e565b611fbf61243e565b5f8260ff168260ff1611156124d1576124b58383612fac565b6124c090600a612e4a565b6124ca9085612f76565b9050612334565b8260ff168260ff1610156124fe576124e98284612fac565b6124f490600a612e4a565b6124ca9085612f8d565b509192915050565b7fed8d60e34876f751cc8b014c560745351147d9de11b9347c854e881b128ea60154604051639cd07acb60e01b81525f917fed8d60e34876f751cc8b014c560745351147d9de11b9347c854e881b128ea600916001600160a01b0390911690639cd07acb9061257b9087908790600401612fc5565b6020604051808303815f875af1158015612597573d5f5f3e3d5ffd5b505050506040513d601f19601f820116820180604052508101906125bb9190612f14565b949350505050565b5f5f82156125d65750600160f81b6125d9565b505f5b5f7fed8d60e34876f751cc8b014c560745351147d9de11b9347c854e881b128ea600600181015460405163022f65e760e31b815260048101899052602481018890526001600160f81b0319851660448201529192506001600160a01b03169063117b2f38906064016020604051808303815f875af115801561265d573d5f5f3e3d5ffd5b505050506040513d601f19601f820116820180604052508101906122659190612f14565b806001600160a01b03163b5f036126b657604051634c9c8ce360e01b81526001600160a01b0382166004820152602401610b5e565b5f5160206130005f395f51905f5280546001600160a01b0319166001600160a01b0392909216919091179055565b60605f5f846001600160a01b0316846040516127009190612fe9565b5f60405180830381855af49150503d805f8114612738576040519150601f19603f3d011682016040523d82523d5f602084013e61273d565b606091505b5091509150612370858383612785565b3415610b245760405163b398979f60e01b815260040160405180910390fd5b5f6127756121ce565b54600160401b900460ff16919050565b60608261279a57612795826127e1565b612334565b81511580156127b157506001600160a01b0384163b155b156127da57604051639996b31560e01b81526001600160a01b0385166004820152602401610b5e565b5080612334565b8051156127f057805160208201fd5b60405163d6bda27560e01b815260040160405180910390fd5b828054828255905f5260205f2090810192821561285c579160200282015b8281111561285c57825182546001600160a01b0319166001600160a01b03909116178255602090920191600190910190612827565b50612868929150612883565b5090565b5080545f8255905f5260205f2090810190610b7091905b5b80821115612868575f8155600101612884565b634e487b7160e01b5f52602160045260245ffd5b60048110610b7057610b70612897565b602081016128c8836128ab565b91905290565b6001600160a01b0381168114610b70575f5ffd5b5f602082840312156128f2575f5ffd5b8135612334816128ce565b5f5f6020838503121561290e575f5ffd5b82356001600160401b03811115612923575f5ffd5b8301601f81018513612933575f5ffd5b80356001600160401b03811115612948575f5ffd5b856020828401011115612959575f5ffd5b6020919091019590945092505050565b634e487b7160e01b5f52604160045260245ffd5b604051601f8201601f191681016001600160401b03811182821017156129a5576129a5612969565b604052919050565b5f5f604083850312156129be575f5ffd5b82356129c9816128ce565b915060208301356001600160401b038111156129e3575f5ffd5b8301601f810185136129f3575f5ffd5b80356001600160401b03811115612a0c57612a0c612969565b612a1f601f8201601f191660200161297d565b818152866020838501011115612a33575f5ffd5b816020840160208301375f602083830101528093505050509250929050565b5f60208284031215612a62575f5ffd5b5035919050565b5f81518084528060208401602086015e5f602082860101526020601f19601f83011685010191505092915050565b8215158152604060208201525f6125bb6040830184612a69565b604080825283519082018190525f9060208501906060840190835b81811015612af35783516001600160a01b0316835260209384019390920191600101612acc565b5050838103602080860191909152855180835291810192508501905f5b81811015612b2e578251845260209384019390920191600101612b10565b50919695505050505050565b602081525f6123346020830184612a69565b5f5f5f60608486031215612b5e575f5ffd5b8335612b69816128ce565b92506020840135612b79816128ce565b91506040840135612b89816128ce565b809150509250925092565b5f60208284031215612ba4575f5ffd5b81518015158114612334575f5ffd5b5f5f85851115612bc1575f5ffd5b83861115612bcd575f5ffd5b5050820193919092039150565b80356001600160e01b03198116906004841015612c0b576001600160e01b0319600485900360031b81901b82161691505b5092915050565b60208101600283106128c8576128c8612897565b5f6001600160401b03821115612c3e57612c3e612969565b5060051b60200190565b5f82601f830112612c57575f5ffd5b8151612c6a612c6582612c26565b61297d565b8082825260208201915060208360051b860101925085831115612c8b575f5ffd5b602085015b83811015612cb1578051612ca3816128ce565b835260209283019201612c90565b5095945050505050565b5f60208284031215612ccb575f5ffd5b81516001600160401b03811115612ce0575f5ffd5b6125bb84828501612c48565b634e487b7160e01b5f52601160045260245ffd5b5f60018201612d1157612d11612cec565b5060010190565b634e487b7160e01b5f52603260045260245ffd5b5f60208284031215612d3c575f5ffd5b8151612334816128ce565b5f60208284031215612d57575f5ffd5b815160ff81168114612334575f5ffd5b6001815b6001841115612da257808504811115612d8657612d86612cec565b6001841615612d9457908102905b60019390931c928002612d6b565b935093915050565b5f82612db8575060016121f2565b81612dc457505f6121f2565b8160018114612dda5760028114612de457612e00565b60019150506121f2565b60ff841115612df557612df5612cec565b50506001821b6121f2565b5060208310610133831016604e8410600b8410161715612e23575081810a6121f2565b612e2f5f198484612d67565b805f1904821115612e4257612e42612cec565b029392505050565b5f61233460ff841683612daa565b5f5f60408385031215612e69575f5ffd5b82516001600160401b03811115612e7e575f5ffd5b612e8a85828601612c48565b92505060208301516001600160401b03811115612ea5575f5ffd5b8301601f81018513612eb5575f5ffd5b8051612ec3612c6582612c26565b8082825260208201915060208360051b850101925087831115612ee4575f5ffd5b6020840193505b82841015612f06578351825260209384019390910190612eeb565b809450505050509250929050565b5f60208284031215612f24575f5ffd5b5051919050565b808201808211156121f2576121f2612cec565b8381526020810183905260608101612f55836128ab565b826040830152949350505050565b818103818111156121f2576121f2612cec565b80820281158282048414176121f2576121f2612cec565b5f82612fa757634e487b7160e01b5f52601260045260245ffd5b500490565b60ff82811682821603908111156121f2576121f2612cec565b8281526040810160548310612fdc57612fdc612897565b8260208301529392505050565b5f82518060208501845e5f92019182525091905056fe360894a13ba1a3210667c828492db98dca3e2076cc3735a920a3ca505d382bbca26469706673582212206ec51b0f97269c3f3cf3b81ed293861b21d5153ae813256bb9eb6db770c87a8064736f6c634300081c0033",
  "linkReferences": {},
  "deployedLinkReferences": {}
}