{
  "_format": "hh-sol-artifact-1",
  "contractName": "InternalStatesOrchestrator",
  "sourceName": "contracts/orchestrators/InternalStatesOrchestrator.sol",
  "abi": [
    {
      "inputs": [
        {
          "internalType": "address",
          "name": "initialOwner",
          "type": "address"
        },
        {
          "internalType": "address",
          "name": "config_",
          "type": "address"
        },
        {
          "internalType": "address",
          "name": "automationRegistry_",
          "type": "address"
        }
      ],
      "stateMutability": "nonpayable",
      "type": "constructor"
    },
    {
      "inputs": [],
      "name": "InvalidArguments",
      "type": "error"
    },
    {
      "inputs": [],
      "name": "NotAuthorized",
      "type": "error"
    },
    {
      "inputs": [
        {
          "internalType": "address",
          "name": "owner",
          "type": "address"
        }
      ],
      "name": "OwnableInvalidOwner",
      "type": "error"
    },
    {
      "inputs": [
        {
          "internalType": "address",
          "name": "account",
          "type": "address"
        }
      ],
      "name": "OwnableUnauthorizedAccount",
      "type": "error"
    },
    {
      "inputs": [],
      "name": "ReentrancyGuardReentrantCall",
      "type": "error"
    },
    {
      "inputs": [],
      "name": "SystemNotIdle",
      "type": "error"
    },
    {
      "inputs": [],
      "name": "TooEarly",
      "type": "error"
    },
    {
      "inputs": [],
      "name": "ZeroAddress",
      "type": "error"
    },
    {
      "anonymous": false,
      "inputs": [
        {
          "indexed": true,
          "internalType": "address",
          "name": "newAutomationRegistry",
          "type": "address"
        }
      ],
      "name": "AutomationRegistryUpdated",
      "type": "event"
    },
    {
      "anonymous": false,
      "inputs": [
        {
          "indexed": false,
          "internalType": "uint16",
          "name": "epochCounter",
          "type": "uint16"
        }
      ],
      "name": "InternalStateProcessed",
      "type": "event"
    },
    {
      "anonymous": false,
      "inputs": [
        {
          "indexed": true,
          "internalType": "address",
          "name": "previousOwner",
          "type": "address"
        },
        {
          "indexed": true,
          "internalType": "address",
          "name": "newOwner",
          "type": "address"
        }
      ],
      "name": "OwnershipTransferred",
      "type": "event"
    },
    {
      "inputs": [],
      "name": "MAX_REVENUE_SHARE_FEE",
      "outputs": [
        {
          "internalType": "uint16",
          "name": "",
          "type": "uint16"
        }
      ],
      "stateMutability": "view",
      "type": "function"
    },
    {
      "inputs": [],
      "name": "MAX_VOLUME_FEE",
      "outputs": [
        {
          "internalType": "uint16",
          "name": "",
          "type": "uint16"
        }
      ],
      "stateMutability": "view",
      "type": "function"
    },
    {
      "inputs": [],
      "name": "PROTOCOL_FEE_FACTOR",
      "outputs": [
        {
          "internalType": "uint16",
          "name": "",
          "type": "uint16"
        }
      ],
      "stateMutability": "view",
      "type": "function"
    },
    {
      "inputs": [],
      "name": "YEAR_IN_SECONDS",
      "outputs": [
        {
          "internalType": "uint32",
          "name": "",
          "type": "uint32"
        }
      ],
      "stateMutability": "view",
      "type": "function"
    },
    {
      "inputs": [],
      "name": "automationRegistry",
      "outputs": [
        {
          "internalType": "address",
          "name": "",
          "type": "address"
        }
      ],
      "stateMutability": "view",
      "type": "function"
    },
    {
      "inputs": [
        {
          "internalType": "bytes",
          "name": "",
          "type": "bytes"
        }
      ],
      "name": "checkUpkeep",
      "outputs": [
        {
          "internalType": "bool",
          "name": "upkeepNeeded",
          "type": "bool"
        },
        {
          "internalType": "bytes",
          "name": "performData",
          "type": "bytes"
        }
      ],
      "stateMutability": "view",
      "type": "function"
    },
    {
      "inputs": [],
      "name": "config",
      "outputs": [
        {
          "internalType": "contract IOrionConfig",
          "name": "",
          "type": "address"
        }
      ],
      "stateMutability": "view",
      "type": "function"
    },
    {
      "inputs": [],
      "name": "currentMinibatchIndex",
      "outputs": [
        {
          "internalType": "uint8",
          "name": "",
          "type": "uint8"
        }
      ],
      "stateMutability": "view",
      "type": "function"
    },
    {
      "inputs": [],
      "name": "currentPhase",
      "outputs": [
        {
          "internalType": "enum IInternalStateOrchestrator.InternalUpkeepPhase",
          "name": "",
          "type": "uint8"
        }
      ],
      "stateMutability": "view",
      "type": "function"
    },
    {
      "inputs": [],
      "name": "encryptedMinibatchSize",
      "outputs": [
        {
          "internalType": "uint8",
          "name": "",
          "type": "uint8"
        }
      ],
      "stateMutability": "view",
      "type": "function"
    },
    {
      "inputs": [
        {
          "internalType": "uint256",
          "name": "",
          "type": "uint256"
        }
      ],
      "name": "encryptedVaultsEpoch",
      "outputs": [
        {
          "internalType": "address",
          "name": "",
          "type": "address"
        }
      ],
      "stateMutability": "view",
      "type": "function"
    },
    {
      "inputs": [],
      "name": "epochCounter",
      "outputs": [
        {
          "internalType": "uint16",
          "name": "",
          "type": "uint16"
        }
      ],
      "stateMutability": "view",
      "type": "function"
    },
    {
      "inputs": [],
      "name": "epochDuration",
      "outputs": [
        {
          "internalType": "uint32",
          "name": "",
          "type": "uint32"
        }
      ],
      "stateMutability": "view",
      "type": "function"
    },
    {
      "inputs": [],
      "name": "getBuyingOrders",
      "outputs": [
        {
          "internalType": "address[]",
          "name": "tokens",
          "type": "address[]"
        },
        {
          "internalType": "uint256[]",
          "name": "amounts",
          "type": "uint256[]"
        }
      ],
      "stateMutability": "view",
      "type": "function"
    },
    {
      "inputs": [],
      "name": "getSellingOrders",
      "outputs": [
        {
          "internalType": "address[]",
          "name": "tokens",
          "type": "address[]"
        },
        {
          "internalType": "uint256[]",
          "name": "amounts",
          "type": "uint256[]"
        }
      ],
      "stateMutability": "view",
      "type": "function"
    },
    {
      "inputs": [],
      "name": "intentFactor",
      "outputs": [
        {
          "internalType": "uint256",
          "name": "",
          "type": "uint256"
        }
      ],
      "stateMutability": "view",
      "type": "function"
    },
    {
      "inputs": [],
      "name": "liquidityOrchestrator",
      "outputs": [
        {
          "internalType": "contract ILiquidityOrchestrator",
          "name": "",
          "type": "address"
        }
      ],
      "stateMutability": "view",
      "type": "function"
    },
    {
      "inputs": [],
      "name": "owner",
      "outputs": [
        {
          "internalType": "address",
          "name": "",
          "type": "address"
        }
      ],
      "stateMutability": "view",
      "type": "function"
    },
    {
      "inputs": [],
      "name": "pendingProtocolFees",
      "outputs": [
        {
          "internalType": "uint256",
          "name": "",
          "type": "uint256"
        }
      ],
      "stateMutability": "view",
      "type": "function"
    },
    {
      "inputs": [
        {
          "internalType": "bytes",
          "name": "performData",
          "type": "bytes"
        }
      ],
      "name": "performUpkeep",
      "outputs": [],
      "stateMutability": "nonpayable",
      "type": "function"
    },
    {
      "inputs": [],
      "name": "priceAdapterPrecision",
      "outputs": [
        {
          "internalType": "uint256",
          "name": "",
          "type": "uint256"
        }
      ],
      "stateMutability": "view",
      "type": "function"
    },
    {
      "inputs": [],
      "name": "registry",
      "outputs": [
        {
          "internalType": "contract IPriceAdapterRegistry",
          "name": "",
          "type": "address"
        }
      ],
      "stateMutability": "view",
      "type": "function"
    },
    {
      "inputs": [],
      "name": "renounceOwnership",
      "outputs": [],
      "stateMutability": "nonpayable",
      "type": "function"
    },
    {
      "inputs": [],
      "name": "resetPendingProtocolFees",
      "outputs": [],
      "stateMutability": "nonpayable",
      "type": "function"
    },
    {
      "inputs": [],
      "name": "rsFeeCoefficient",
      "outputs": [
        {
          "internalType": "uint16",
          "name": "",
          "type": "uint16"
        }
      ],
      "stateMutability": "view",
      "type": "function"
    },
    {
      "inputs": [
        {
          "internalType": "address",
          "name": "newOwner",
          "type": "address"
        }
      ],
      "name": "transferOwnership",
      "outputs": [],
      "stateMutability": "nonpayable",
      "type": "function"
    },
    {
      "inputs": [],
      "name": "transparentMinibatchSize",
      "outputs": [
        {
          "internalType": "uint8",
          "name": "",
          "type": "uint8"
        }
      ],
      "stateMutability": "view",
      "type": "function"
    },
    {
      "inputs": [
        {
          "internalType": "uint256",
          "name": "",
          "type": "uint256"
        }
      ],
      "name": "transparentVaultsEpoch",
      "outputs": [
        {
          "internalType": "address",
          "name": "",
          "type": "address"
        }
      ],
      "stateMutability": "view",
      "type": "function"
    },
    {
      "inputs": [],
      "name": "underlyingAsset",
      "outputs": [
        {
          "internalType": "address",
          "name": "",
          "type": "address"
        }
      ],
      "stateMutability": "view",
      "type": "function"
    },
    {
      "inputs": [],
      "name": "underlyingDecimals",
      "outputs": [
        {
          "internalType": "uint8",
          "name": "",
          "type": "uint8"
        }
      ],
      "stateMutability": "view",
      "type": "function"
    },
    {
      "inputs": [
        {
          "internalType": "address",
          "name": "newAutomationRegistry",
          "type": "address"
        }
      ],
      "name": "updateAutomationRegistry",
      "outputs": [],
      "stateMutability": "nonpayable",
      "type": "function"
    },
    {
      "inputs": [
        {
          "internalType": "uint32",
          "name": "newEpochDuration",
          "type": "uint32"
        }
      ],
      "name": "updateEpochDuration",
      "outputs": [],
      "stateMutability": "nonpayable",
      "type": "function"
    },
    {
      "inputs": [
        {
          "internalType": "uint8",
          "name": "_transparentMinibatchSize",
          "type": "uint8"
        },
        {
          "internalType": "uint8",
          "name": "_encryptedMinibatchSize",
          "type": "uint8"
        }
      ],
      "name": "updateMinibatchSizes",
      "outputs": [],
      "stateMutability": "nonpayable",
      "type": "function"
    },
    {
      "inputs": [
        {
          "internalType": "uint16",
          "name": "_vFeeCoefficient",
          "type": "uint16"
        },
        {
          "internalType": "uint16",
          "name": "_rsFeeCoefficient",
          "type": "uint16"
        }
      ],
      "name": "updateProtocolFees",
      "outputs": [],
      "stateMutability": "nonpayable",
      "type": "function"
    },
    {
      "inputs": [],
      "name": "vFeeCoefficient",
      "outputs": [
        {
          "internalType": "uint16",
          "name": "",
          "type": "uint16"
        }
      ],
      "stateMutability": "view",
      "type": "function"
    }
  ],
  "bytecode": "0x608060405234801561000f575f5ffd5b5060405161362e38038061362e83398101604081905261002e9161070d565b826101836100cd604080516080810182525f80825260208201819052918101829052606081019190915250604080516080810182527350157cffd6bbfa2dece204a89ec419c23ef5755d815273cd3ab3bd6bcc0c0bf3e27912a92043e817b1cf696020820152731364cbbf2cdf5032c47d8226a6f6fbd2afcdacac9181019190915273901f8942346f7ab3a01f6d7613119bca447bb030606082015290565b80515f5160206135ee5f395f51905f5280546001600160a01b03199081166001600160a01b039384161790915560208301515f51602061360e5f395f51905f528054831691841691909117905560408301517fed8d60e34876f751cc8b014c560745351147d9de11b9347c854e881b128ea6028054831691841691909117905560608301517fed8d60e34876f751cc8b014c560745351147d9de11b9347c854e881b128ea6038054909216921691909117905550565b7f5ea69329017273582817d320489fbd94f775580e90c092699ca6f3d12fdf7d0080546001600160a01b03191673a02cda4ca3a71d7c46997716f4283aa851c288121790556001600160a01b0381166101f557604051631e4fbdf760e01b81525f600482015260240160405180910390fd5b6101fe816105eb565b50600180556001600160a01b03821661022a5760405163d92e233d60e01b815260040160405180910390fd5b6001600160a01b0381166102515760405163d92e233d60e01b815260040160405180910390fd5b600380546001600160a01b0319166001600160a01b0384169081179091556040805163015df99360e01b8152905163015df993916004808201926020929091908290030181865afa1580156102a8573d5f5f3e3d5ffd5b505050506040513d601f19601f820116820180604052508101906102cc9190610757565b600580546001600160a01b0319166001600160a01b039283161790556003546040805163d1717c7d60e01b81529051919092169163d1717c7d9160048083019260209291908290030181865afa158015610328573d5f5f3e3d5ffd5b505050506040513d601f19601f8201168201806040525081019061034c9190610779565b61035790600a610890565b60075560035460408051631c56369f60e21b815290516001600160a01b0390921691637158da7c916004808201926020929091908290030181865afa1580156103a2573d5f5f3e3d5ffd5b505050506040513d601f19601f820116820180604052508101906103c69190610757565b600880546001600160a01b0319166001600160a01b039290921691821790556040805163313ce56760e01b8152905163313ce567916004808201926020929091908290030181865afa15801561041e573d5f5f3e3d5ffd5b505050506040513d601f19601f820116820180604052508101906104429190610779565b600860146101000a81548160ff021916908360ff16021790555060035f9054906101000a90046001600160a01b03166001600160a01b031663567ba7136040518163ffffffff1660e01b8152600401602060405180830381865afa1580156104ac573d5f5f3e3d5ffd5b505050506040513d601f19601f820116820180604052508101906104d09190610779565b6104db90600a610890565b6006556015805463ffff000019166301010000179055600280546001600160a01b0319166001600160a01b038381169190911790915560035460408051631d06d6c760e11b815290519190921691633a0dad8e9160048281019260209291908290030181865afa158015610551573d5f5f3e3d5ffd5b505050506040513d601f19601f820116820180604052508101906105759190610757565b600480546001600160a01b03929092166001600160a01b03199092169190911790556013805463ffffffff1916620151801790556105b24261063a565b6014556015805465ffff0000ffff191690556105cd5f610655565b60165550506008805463ffffffff60a81b19169055506108f8565b50565b5f80546001600160a01b038381166001600160a01b0319831681178455604051919092169283917f8be0079c531659141344cd1fd0a4f28419497f9722a3daafe3b4186f6b6457e09190a35050565b6013545f9061064f9063ffffffff168361089e565b92915050565b5f61064f63ffffffff831660045f51602061360e5f395f51905f5254604051639cd07acb60e01b81525f915f5160206135ee5f395f51905f52916001600160a01b0390911690639cd07acb906106b190879087906004016108b1565b6020604051808303815f875af11580156106cd573d5f5f3e3d5ffd5b505050506040513d601f19601f820116820180604052508101906106f191906108e1565b949350505050565b6001600160a01b03811681146105e8575f5ffd5b5f5f5f6060848603121561071f575f5ffd5b835161072a816106f9565b602085015190935061073b816106f9565b604085015190925061074c816106f9565b809150509250925092565b5f60208284031215610767575f5ffd5b8151610772816106f9565b9392505050565b5f60208284031215610789575f5ffd5b815160ff81168114610772575f5ffd5b634e487b7160e01b5f52601160045260245ffd5b6001815b60018411156107e8578085048111156107cc576107cc610799565b60018416156107da57908102905b60019390931c9280026107b1565b935093915050565b5f826107fe5750600161064f565b8161080a57505f61064f565b8160018114610820576002811461082a57610846565b600191505061064f565b60ff84111561083b5761083b610799565b50506001821b61064f565b5060208310610133831016604e8410600b8410161715610869575081810a61064f565b6108755f1984846107ad565b805f190482111561088857610888610799565b029392505050565b5f61077260ff8416836107f0565b8082018082111561064f5761064f610799565b82815260408101605483106108d457634e487b7160e01b5f52602160045260245ffd5b8260208301529392505050565b5f602082840312156108f1575f5ffd5b5051919050565b612ce9806109055f395ff3fe608060405234801561000f575f5ffd5b506004361061019e575f3560e01c8062bb07bb146101a2578063055ad42e146101b75780630844697d146101e157806308af604d1461020957806314b19c5a1461022e57806314b5d07f1461023c5780631f6722111461024f57806325a760c214610257578063289a2f761461026b5780632b0088b41461028b57806336021ef4146102a2578063380e443b146102b65780633a0dad8e146102bf5780634585e33b146102d25780634ff0876a146102e55780635488cd621461030a57806358fac65b1461031e5780635dc228a0146103315780636e04ff0d14610344578063715018a6146103655780637158da7c1461036d5780637847ea531461038057806379502c551461038b5780637b1039991461039e5780637cdabf0a146103b1578063800f9fad146103c45780638da5cb5b146103cd578063a08b82d7146103d5578063b8b2af7c146103eb578063c2cb5d8814610400578063ca1f32f114610408578063eeb393c914610411578063f2fde38b14610424578063f83e98fb14610437578063f91b5b2514610440575b5f5ffd5b6101b56101b0366004612455565b610448565b005b6015546101cb90600160201b900460ff1681565b6040516101d891906124b0565b60405180910390f35b6008546101f690600160b81b900461ffff1681565b60405161ffff90911681526020016101d8565b60155461021c9062010000900460ff1681565b60405160ff90911681526020016101d8565b6015546101f69061ffff1681565b6101b561024a3660046124d7565b610542565b6101b561064b565b60085461021c90600160a01b900460ff1681565b61027e6102793660046124f2565b61067c565b6040516101d89190612509565b61029460075481565b6040519081526020016101d8565b60155461021c906301000000900460ff1681565b6101f66103e881565b60045461027e906001600160a01b031681565b6101b56102e036600461251d565b6106a4565b6013546102f59063ffffffff1681565b60405163ffffffff90911681526020016101d8565b60155461021c90600160281b900460ff1681565b61027e61032c3660046124f2565b61099d565b60025461027e906001600160a01b031681565b61035761035236600461251d565b6109ac565b6040516101d8929190612589565b6101b5610bcb565b60085461027e906001600160a01b031681565b6102f56301e1338081565b60035461027e906001600160a01b031681565b60055461027e906001600160a01b031681565b6101b56103bf3660046125dd565b610bde565b61029460095481565b61027e610ce5565b6103dd610cf3565b6040516101d892919061260e565b6008546101f690600160a81b900461ffff1681565b6103dd610f2b565b61029460065481565b6101b561041f3660046126a8565b61115a565b6101b56104323660046124d7565b611235565b6101f661271081565b6101f6606481565b61045061127b565b60ff82161580610461575060ff8116155b1561047f576040516317dbc4cb60e21b815260040160405180910390fd5b60035f9054906101000a90046001600160a01b03166001600160a01b031663edcf9c1f6040518163ffffffff1660e01b8152600401602060405180830381865afa1580156104cf573d5f5f3e3d5ffd5b505050506040513d601f19601f820116820180604052508101906104f391906126c3565b610510576040516312aecd8160e01b815260040160405180910390fd5b6015805463ffff000019166201000060ff9485160263ff00000019161763010000009290931691909102919091179055565b61054a61127b565b6001600160a01b0381166105715760405163d92e233d60e01b815260040160405180910390fd5b60035f9054906101000a90046001600160a01b03166001600160a01b031663edcf9c1f6040518163ffffffff1660e01b8152600401602060405180830381865afa1580156105c1573d5f5f3e3d5ffd5b505050506040513d601f19601f820116820180604052508101906105e591906126c3565b610602576040516312aecd8160e01b815260040160405180910390fd5b600280546001600160a01b0319166001600160a01b0383169081179091556040517f6cc7ebdb6c8c53291c5ae16148cab9b049d23bf5bde5632900b40edff56fcb43905f90a250565b6004546001600160a01b031633146106765760405163ea8e4eb560e01b815260040160405180910390fd5b5f600955565b6018818154811061068b575f80fd5b5f918252602090912001546001600160a01b0316905081565b6002546001600160a01b031633146106cf5760405163ea8e4eb560e01b815260040160405180910390fd5b6106d76112ad565b60048110156106f9576040516317dbc4cb60e21b815260040160405180910390fd5b5f61070760048284866126e2565b61071091612709565b90506341659aab60e01b6001600160e01b031982160161085f576107326112d7565b61073a611308565b600354604051631da09e4360e31b81526001600160a01b039091169063ed04f2189061076a905f90600401612741565b5f60405180830381865afa158015610784573d5f5f3e3d5ffd5b505050506040513d5f823e601f3d908101601f191682016040526107ab919081019061282e565b80516107bf916017916020909101906123b9565b50600354604051631da09e4360e31b81526001600160a01b039091169063ed04f218906107f190600190600401612741565b5f60405180830381865afa15801561080b573d5f5f3e3d5ffd5b505050506040513d5f823e601f3d908101601f19168201604052610832919081019061282e565b8051610846916018916020909101906123b9565b506015805460ff60201b1916600160201b17905561098f565b63019918a560e51b6001600160e01b03198216016108a3575f61088583600481876126e2565b8101906108929190612867565b905061089d8161142c565b5061098f565b6314897e2360e11b6001600160e01b03198216016108e1575f6108c983600481876126e2565b8101906108d69190612867565b905061089d81611c49565b6350c9887560e01b6001600160e01b031982160161097657610901611fe7565b6015805460ff60201b198116825561ffff16905f61091e83612896565b82546101009290920a61ffff818102199093169183160217909155601554604051911681527f0bc12479581640d161e016cef21aa834cb6d6326bbc0d8445e58d56403adf2dc915060200160405180910390a161098f565b6040516317dbc4cb60e21b815260040160405180910390fd5b5061099960018055565b5050565b6017818154811061068b575f80fd5b5f606060035f9054906101000a90046001600160a01b03166001600160a01b031663edcf9c1f6040518163ffffffff1660e01b8152600401602060405180830381865afa1580156109ff573d5f5f3e3d5ffd5b505050506040513d601f19601f82011682018060405250810190610a2391906126c3565b8015610a3157506014544210155b15610a8157600191507fbe9a655586dceb82dfa0af992b5d8ae7fa45053cb7fd6f141f541da7572978c7604051602001610a6b91906128b6565b6040516020818303038152906040529050610bc4565b6001601554600160201b900460ff166003811115610aa157610aa161248c565b03610aec57600191507fccdceb60d34ec82e2b625c80d044e07bc5264e5a5f17ab57ea62c77ee8c3d797601560059054906101000a900460ff16604051602001610a6b9291906128cb565b6002601554600160201b900460ff166003811115610b0c57610b0c61248c565b03610b5757600191507fd6ed03ba70bef77e7dcdbaa2d7d9bcd9a4dd463c2c6bcd5b016869e952bdaddb601560059054906101000a900460ff16604051602001610a6b9291906128cb565b6003601554600160201b900460ff166003811115610b7757610b7761248c565b03610bb157600191507faf36778b2d01c6b9ccbf0ff82e33823de0a4811632929c60c03041666deffc9b604051602001610a6b91906128b6565b505060408051602081019091525f808252905b9250929050565b610bd361127b565b610bdc5f61214b565b565b610be661127b565b606461ffff83161180610bfe57506103e861ffff8216115b15610c1c576040516317dbc4cb60e21b815260040160405180910390fd5b60035f9054906101000a90046001600160a01b03166001600160a01b031663edcf9c1f6040518163ffffffff1660e01b8152600401602060405180830381865afa158015610c6c573d5f5f3e3d5ffd5b505050506040513d601f19601f82011682018060405250810190610c9091906126c3565b610cad576040516312aecd8160e01b815260040160405180910390fd5b6008805463ffffffff60a81b1916600160a81b61ffff9485160261ffff60b81b191617600160b81b9290931691909102919091179055565b5f546001600160a01b031690565b600f80546040805160208084028201810190925282815260609384935f93830182828015610d4857602002820191905f5260205f20905b81546001600160a01b03168152600190910190602001808311610d2a575b505083519394505f9250829150505b8261ffff168161ffff161015610dc8575f600a6004015f868461ffff1681518110610d8457610d846128f2565b60200260200101516001600160a01b03166001600160a01b031681526020019081526020015f20541115610dc05781610dbc81612896565b9250505b600101610d57565b508061ffff166001600160401b03811115610de557610de5612755565b604051908082528060200260200182016040528015610e0e578160200160208202803683370190505b5094508061ffff166001600160401b03811115610e2d57610e2d612755565b604051908082528060200260200182016040528015610e56578160200160208202803683370190505b5093505f805b8361ffff168161ffff161015610f22575f858261ffff1681518110610e8357610e836128f2565b6020908102919091018101516001600160a01b0381165f908152600e9092526040909120549091508015610f185781898561ffff1681518110610ec857610ec86128f2565b60200260200101906001600160a01b031690816001600160a01b03168152505080888561ffff1681518110610eff57610eff6128f2565b602090810291909101015283610f1481612896565b9450505b5050600101610e5c565b50505050509091565b600f80546040805160208084028201810190925282815260609384935f93830182828015610f8057602002820191905f5260205f20905b81546001600160a01b03168152600190910190602001808311610f62575b505083519394505f9250829150505b8261ffff168161ffff161015611000575f600a6003015f868461ffff1681518110610fbc57610fbc6128f2565b60200260200101516001600160a01b03166001600160a01b031681526020019081526020015f20541115610ff85781610ff481612896565b9250505b600101610f8f565b508061ffff166001600160401b0381111561101d5761101d612755565b604051908082528060200260200182016040528015611046578160200160208202803683370190505b5094508061ffff166001600160401b0381111561106557611065612755565b60405190808252806020026020018201604052801561108e578160200160208202803683370190505b5093505f805b8361ffff168161ffff161015610f22575f858261ffff16815181106110bb576110bb6128f2565b6020908102919091018101516001600160a01b0381165f908152600d90925260409091205490915080156111505781898561ffff1681518110611100576111006128f2565b60200260200101906001600160a01b031690816001600160a01b03168152505080888561ffff1681518110611137576111376128f2565b60209081029190910101528361114c81612896565b9450505b5050600101611094565b61116261127b565b8063ffffffff165f03611188576040516317dbc4cb60e21b815260040160405180910390fd5b60035f9054906101000a90046001600160a01b03166001600160a01b031663edcf9c1f6040518163ffffffff1660e01b8152600401602060405180830381865afa1580156111d8573d5f5f3e3d5ffd5b505050506040513d601f19601f820116820180604052508101906111fc91906126c3565b611219576040516312aecd8160e01b815260040160405180910390fd5b6013805463ffffffff191663ffffffff92909216919091179055565b61123d61127b565b6001600160a01b03811661126f575f604051631e4fbdf760e01b81526004016112669190612509565b60405180910390fd5b6112788161214b565b50565b33611284610ce5565b6001600160a01b031614610bdc573360405163118cdaa760e01b81526004016112669190612509565b6002600154036112d057604051633ee5aeb560e01b815260040160405180910390fd5b6002600155565b6014544210156112fa5760405163085de62560e01b815260040160405180910390fd5b6113034261219a565b601455565b5f600a60050180548060200260200160405190810160405280929190818152602001828054801561136057602002820191905f5260205f20905b81546001600160a01b03168152600190910190602001808311611342575b505083519394505f925050505b8161ffff168161ffff16101561140a575f838261ffff1681518110611394576113946128f2565b6020908102919091018101516001600160a01b03165f908152600a82526040808220829055600b8352808220829055600c8352808220829055600d8352808220829055600e835280822082905560108352808220805460ff1990811690915560119093529020805490911690555060010161136d565b50611416600f5f61241c565b61142160175f61241c565b61099960185f61241c565b60158054600160281b900460ff1690600561144683612906565b91906101000a81548160ff021916908360ff160217905550505f601560029054906101000a900460ff168261147b919061291b565b60155460ff91821692505f91611498916201000090041683612937565b60175490915061ffff821611156114c257506017546015805461ffff60201b1916600160211b1790555b5f806114ce8484612951565b61ffff166001600160401b038111156114e9576114e9612755565b604051908082528060200260200182016040528015611512578160200160208202803683370190505b509050835b8361ffff168161ffff161015611c41575f60178261ffff168154811061153f5761153f6128f2565b905f5260205f20015f9054906101000a90046001600160a01b031690505f5f826001600160a01b031663d3d034586040518163ffffffff1660e01b81526004015f60405180830381865afa158015611599573d5f5f3e3d5ffd5b505050506040513d5f823e601f3d908101601f191682016040526115c0919081019061296b565b90925090505f805b83518161ffff161015611842575f848261ffff16815181106115ec576115ec6128f2565b6020908102919091018101516001600160a01b0381165f9081526011909252604082205490925060ff1690036116a657806001600160a01b031663313ce5676040518163ffffffff1660e01b8152600401602060405180830381865afa158015611658573d5f5f3e3d5ffd5b505050506040513d601f19601f8201168201806040525081019061167c9190612a29565b6001600160a01b0382165f908152601160205260409020805460ff191660ff929092169190911790555b6001600160a01b0381165f90815260116020908152604080832054600a90925282205460ff90911691819003611798576008546001600160a01b039081169084160361170b5760085461170490600160a01b900460ff16600a612b27565b905061177d565b6005546040516341976e0960e01b81526001600160a01b03909116906341976e099061173b908690600401612509565b602060405180830381865afa158015611756573d5f5f3e3d5ffd5b505050506040513d601f19601f8201168201806040525081019061177a9190612b35565b90505b6001600160a01b0383165f908152600a602052604090208190555b5f6117e46117d0888761ffff16815181106117b5576117b56128f2565b6020026020010151600654856121b59092919063ffffffff16565b6008548590600160a01b900460ff16612266565b90506117f08187612b4c565b6001600160a01b0385165f908152600b602052604081208054929850839290919061181c908490612b4c565b9091555061182b9050846122d0565b50505050808061183a90612896565b9150506115c8565b505f846001600160a01b031663a68a5267866001600160a01b031663c37fc8a86040518163ffffffff1660e01b8152600401602060405180830381865afa15801561188f573d5f5f3e3d5ffd5b505050506040513d601f19601f820116820180604052508101906118b39190612b35565b845f6040518463ffffffff1660e01b81526004016118d393929190612b5f565b602060405180830381865afa1580156118ee573d5f5f3e3d5ffd5b505050506040513d601f19601f820116820180604052508101906119129190612b35565b6008549091505f9061193290600160a81b900461ffff16846127106121b5565b60135490915061195390829063ffffffff908116906301e13380906121b516565b90508060095f8282546119669190612b4c565b9091555061197690508184612b84565b60405163728d42fb60e11b8152600481018290529093505f906001600160a01b0388169063e51a85f690602401602060405180830381865afa1580156119be573d5f5f3e3d5ffd5b505050506040513d601f19601f820116820180604052508101906119e29190612b35565b6008549091505f90611a0290600160b81b900461ffff16836127106121b5565b90508060095f828254611a159190612b4c565b90915550611a2590508183612b84565b91508282858a6001600160a01b031663d1699c266040518163ffffffff1660e01b8152600401602060405180830381865afa158015611a66573d5f5f3e3d5ffd5b505050506040513d601f19601f82011682018060405250810190611a8a9190612b35565b611a949190612b84565b611a9e9190612b84565b611aa89190612b84565b611ab29086612b4c565b9450848a611ac08f8c612951565b61ffff1681518110611ad457611ad46128f2565b6020908102919091010152611ae9858c612b4c565b9a508c5b8c61ffff168161ffff161015611b0557600101611aed565b505f5f896001600160a01b031663b6eba6536040518163ffffffff1660e01b81526004015f60405180830381865afa158015611b43573d5f5f3e3d5ffd5b505050506040513d5f823e601f3d908101601f19168201604052611b6a9190810190612b97565b815191935091505f5b8161ffff168161ffff161015611c29575f848261ffff1681518110611b9a57611b9a6128f2565b602002602001015190505f848361ffff1681518110611bbb57611bbb6128f2565b602002602001015190505f611be38263ffffffff166007548e6121b59092919063ffffffff16565b6001600160a01b0384165f908152600c6020526040812080549293508392909190611c0f908490612b4c565b90915550611c1e9050836122d0565b505050600101611b73565b50506001909a01995061151798505050505050505050565b505050505050565b611c516112ad565b60158054600160281b900460ff16906005611c6b83612906565b91906101000a81548160ff021916908360ff160217905550505f601560039054906101000a900460ff1682611ca0919061291b565b60155460ff91821692505f91611cbe91630100000090041683612937565b60185490915061ffff82161115611ce857506018546015805461ffff60201b1916600360201b1790555b815b8161ffff168161ffff161015611fdb575f60188261ffff1681548110611d1257611d126128f2565b5f918252602091829020015460408051631b9d6fc560e31b815290516001600160a01b039092169350839263dceb7e28926004808401938290030181865afa158015611d60573d5f5f3e3d5ffd5b505050506040513d601f19601f82011682018060405250810190611d8491906126c3565b611d8e5750611fd3565b5f5f826001600160a01b031663d3d034586040518163ffffffff1660e01b81526004015f60405180830381865afa158015611dcb573d5f5f3e3d5ffd5b505050506040513d5f823e601f3d908101601f19168201604052611df2919081019061296b565b90925090505f5b82518161ffff161015611fce575f838261ffff1681518110611e1d57611e1d6128f2565b6020908102919091018101516001600160a01b0381165f9081526011909252604082205490925060ff169003611ed757806001600160a01b031663313ce5676040518163ffffffff1660e01b8152600401602060405180830381865afa158015611e89573d5f5f3e3d5ffd5b505050506040513d601f19601f82011682018060405250810190611ead9190612a29565b6001600160a01b0382165f908152601160205260409020805460ff191660ff929092169190911790555b6001600160a01b0381165f908152600a602052604081205490819003611fb9576008546001600160a01b0390811690831603611f2c57600854611f2590600160a01b900460ff16600a612b27565b9050611f9e565b6005546040516341976e0960e01b81526001600160a01b03909116906341976e0990611f5c908590600401612509565b602060405180830381865afa158015611f77573d5f5f3e3d5ffd5b505050506040513d601f19601f82011682018060405250810190611f9b9190612b35565b90505b6001600160a01b0382165f908152600a602052604090208190555b50508080611fc690612896565b915050611df9565b505050505b600101611cea565b50505061127860018055565b5f600a60050180548060200260200160405190810160405280929190818152602001828054801561203f57602002820191905f5260205f20905b81546001600160a01b03168152600190910190602001808311612021575b505083519394505f925050505b8161ffff168161ffff161015612146575f838261ffff1681518110612073576120736128f2565b6020908102919091018101516001600160a01b0381165f908152600b8352604080822054600c8552818320546011909552912054919350919060ff1681831115612109575f6120c28385612b84565b6001600160a01b0386165f908152600a6020526040812054919250906120e9908385612355565b6001600160a01b0387165f908152600d6020526040902055506121369050565b82821115612136575f61211c8484612b84565b6001600160a01b0386165f908152600e6020526040902055505b50506001909201915061204c9050565b505050565b5f80546001600160a01b038381166001600160a01b0319831681178455604051919092169283917f8be0079c531659141344cd1fd0a4f28419497f9722a3daafe3b4186f6b6457e09190a35050565b6013545f906121af9063ffffffff1683612b4c565b92915050565b5f5f5f6121c2868661238c565b91509150815f036121e6578381816121dc576121dc612c50565b049250505061225f565b8184116121fd576121fd60038515026011186123a8565b5f848688095f868103871696879004966002600389028118808a02820302808a02820302808a02820302808a02820302808a02820302808a02909103029181900381900460010185841190960395909502919093039390930492909217029150505b9392505050565b5f8260ff168260ff16111561229b5761227f8383612c64565b61228a90600a612b27565b6122949085612c7d565b905061225f565b8260ff168260ff1610156122c8576122b38284612c64565b6122be90600a612b27565b6122949085612c94565b509192915050565b6001600160a01b0381165f9081526010602052604090205460ff1661127857600f805460018181019092557f8d1108e10bcb7c27dddfc02ed9d693a074039d026cf4ea4240b40f7d581ac8020180546001600160a01b0384166001600160a01b031990911681179091555f908152601060205260409020805460ff1916909117905550565b5f5f61237184600860149054906101000a900460ff1685612266565b600654909150612383908290876121b5565b95945050505050565b5f805f1983850993909202808410938190039390930393915050565b634e487b715f52806020526024601cfd5b828054828255905f5260205f2090810192821561240c579160200282015b8281111561240c57825182546001600160a01b0319166001600160a01b039091161782556020909201916001909101906123d7565b50612418929150612433565b5090565b5080545f8255905f5260205f209081019061127891905b5b80821115612418575f8155600101612434565b60ff81168114611278575f5ffd5b5f5f60408385031215612466575f5ffd5b823561247181612447565b9150602083013561248181612447565b809150509250929050565b634e487b7160e01b5f52602160045260245ffd5b600481106112785761127861248c565b602081016124bd836124a0565b91905290565b6001600160a01b0381168114611278575f5ffd5b5f602082840312156124e7575f5ffd5b813561225f816124c3565b5f60208284031215612502575f5ffd5b5035919050565b6001600160a01b0391909116815260200190565b5f5f6020838503121561252e575f5ffd5b82356001600160401b03811115612543575f5ffd5b8301601f81018513612553575f5ffd5b80356001600160401b03811115612568575f5ffd5b856020828401011115612579575f5ffd5b6020919091019590945092505050565b8215158152604060208201525f82518060408401528060208501606085015e5f606082850101526060601f19601f8301168401019150509392505050565b803561ffff811681146125d8575f5ffd5b919050565b5f5f604083850312156125ee575f5ffd5b6125f7836125c7565b9150612605602084016125c7565b90509250929050565b604080825283519082018190525f9060208501906060840190835b818110156126505783516001600160a01b0316835260209384019390920191600101612629565b5050838103602080860191909152855180835291810192508501905f5b8181101561268b57825184526020938401939092019160010161266d565b50919695505050505050565b63ffffffff81168114611278575f5ffd5b5f602082840312156126b8575f5ffd5b813561225f81612697565b5f602082840312156126d3575f5ffd5b8151801515811461225f575f5ffd5b5f5f858511156126f0575f5ffd5b838611156126fc575f5ffd5b5050820193919092039150565b80356001600160e01b0319811690600484101561273a576001600160e01b0319600485900360031b81901b82161691505b5092915050565b60208101600283106124bd576124bd61248c565b634e487b7160e01b5f52604160045260245ffd5b604051601f8201601f191681016001600160401b038111828210171561279157612791612755565b604052919050565b5f6001600160401b038211156127b1576127b1612755565b5060051b60200190565b5f82601f8301126127ca575f5ffd5b81516127dd6127d882612799565b612769565b8082825260208201915060208360051b8601019250858311156127fe575f5ffd5b602085015b83811015612824578051612816816124c3565b835260209283019201612803565b5095945050505050565b5f6020828403121561283e575f5ffd5b81516001600160401b03811115612853575f5ffd5b61285f848285016127bb565b949350505050565b5f60208284031215612877575f5ffd5b813561225f81612447565b634e487b7160e01b5f52601160045260245ffd5b5f61ffff821661ffff81036128ad576128ad612882565b60010192915050565b6001600160e01b031991909116815260040190565b6001600160e01b031992909216825260f81b6001600160f81b031916600482015260050190565b634e487b7160e01b5f52603260045260245ffd5b5f60ff821660ff81036128ad576128ad612882565b60ff818116838216029081169081811461273a5761273a612882565b61ffff81811683821601908111156121af576121af612882565b61ffff82811682821603908111156121af576121af612882565b5f5f6040838503121561297c575f5ffd5b82516001600160401b03811115612991575f5ffd5b61299d858286016127bb565b602085015190935090506001600160401b038111156129ba575f5ffd5b8301601f810185136129ca575f5ffd5b80516129d86127d882612799565b8082825260208201915060208360051b8501019250878311156129f9575f5ffd5b6020840193505b82841015612a1b578351825260209384019390910190612a00565b809450505050509250929050565b5f60208284031215612a39575f5ffd5b815161225f81612447565b6001815b6001841115612a7f57808504811115612a6357612a63612882565b6001841615612a7157908102905b60019390931c928002612a48565b935093915050565b5f82612a95575060016121af565b81612aa157505f6121af565b8160018114612ab75760028114612ac157612add565b60019150506121af565b60ff841115612ad257612ad2612882565b50506001821b6121af565b5060208310610133831016604e8410600b8410161715612b00575081810a6121af565b612b0c5f198484612a44565b805f1904821115612b1f57612b1f612882565b029392505050565b5f61225f60ff841683612a87565b5f60208284031215612b45575f5ffd5b5051919050565b808201808211156121af576121af612882565b8381526020810183905260608101612b76836124a0565b826040830152949350505050565b818103818111156121af576121af612882565b5f5f60408385031215612ba8575f5ffd5b82516001600160401b03811115612bbd575f5ffd5b612bc9858286016127bb565b602085015190935090506001600160401b03811115612be6575f5ffd5b8301601f81018513612bf6575f5ffd5b8051612c046127d882612799565b8082825260208201915060208360051b850101925087831115612c25575f5ffd5b6020840193505b82841015612a1b578351612c3f81612697565b825260209384019390910190612c2c565b634e487b7160e01b5f52601260045260245ffd5b60ff82811682821603908111156121af576121af612882565b80820281158282048414176121af576121af612882565b5f82612cae57634e487b7160e01b5f52601260045260245ffd5b50049056fea2646970667358221220e8134138d05c81ef2f2a1f984beddc570e6c65bf222984ed9b298b589b42b64e64736f6c634300081c0033ed8d60e34876f751cc8b014c560745351147d9de11b9347c854e881b128ea600ed8d60e34876f751cc8b014c560745351147d9de11b9347c854e881b128ea601",
  "linkReferences": {},
  "deployedLinkReferences": {}
}