{
  "_format": "hh-sol-artifact-1",
  "contractName": "InternalStatesOrchestrator",
  "sourceName": "contracts/orchestrators/InternalStatesOrchestrator.sol",
  "abi": [
    {
      "inputs": [
        {
          "internalType": "address",
          "name": "target",
          "type": "address"
        }
      ],
      "name": "AddressEmptyCode",
      "type": "error"
    },
    {
      "inputs": [
        {
          "internalType": "address",
          "name": "implementation",
          "type": "address"
        }
      ],
      "name": "ERC1967InvalidImplementation",
      "type": "error"
    },
    {
      "inputs": [],
      "name": "ERC1967NonPayable",
      "type": "error"
    },
    {
      "inputs": [],
      "name": "FailedCall",
      "type": "error"
    },
    {
      "inputs": [],
      "name": "InvalidInitialization",
      "type": "error"
    },
    {
      "inputs": [],
      "name": "NotAuthorized",
      "type": "error"
    },
    {
      "inputs": [],
      "name": "NotInitializing",
      "type": "error"
    },
    {
      "inputs": [
        {
          "internalType": "address",
          "name": "owner",
          "type": "address"
        }
      ],
      "name": "OwnableInvalidOwner",
      "type": "error"
    },
    {
      "inputs": [
        {
          "internalType": "address",
          "name": "account",
          "type": "address"
        }
      ],
      "name": "OwnableUnauthorizedAccount",
      "type": "error"
    },
    {
      "inputs": [],
      "name": "ReentrancyGuardReentrantCall",
      "type": "error"
    },
    {
      "inputs": [],
      "name": "TooEarly",
      "type": "error"
    },
    {
      "inputs": [],
      "name": "UUPSUnauthorizedCallContext",
      "type": "error"
    },
    {
      "inputs": [
        {
          "internalType": "bytes32",
          "name": "slot",
          "type": "bytes32"
        }
      ],
      "name": "UUPSUnsupportedProxiableUUID",
      "type": "error"
    },
    {
      "inputs": [],
      "name": "ZeroAddress",
      "type": "error"
    },
    {
      "anonymous": false,
      "inputs": [
        {
          "indexed": true,
          "internalType": "address",
          "name": "newAutomationRegistry",
          "type": "address"
        }
      ],
      "name": "AutomationRegistryUpdated",
      "type": "event"
    },
    {
      "anonymous": false,
      "inputs": [
        {
          "indexed": false,
          "internalType": "uint64",
          "name": "version",
          "type": "uint64"
        }
      ],
      "name": "Initialized",
      "type": "event"
    },
    {
      "anonymous": false,
      "inputs": [
        {
          "indexed": false,
          "internalType": "uint256",
          "name": "epochCounter",
          "type": "uint256"
        }
      ],
      "name": "InternalStateProcessed",
      "type": "event"
    },
    {
      "anonymous": false,
      "inputs": [
        {
          "indexed": true,
          "internalType": "address",
          "name": "previousOwner",
          "type": "address"
        },
        {
          "indexed": true,
          "internalType": "address",
          "name": "newOwner",
          "type": "address"
        }
      ],
      "name": "OwnershipTransferStarted",
      "type": "event"
    },
    {
      "anonymous": false,
      "inputs": [
        {
          "indexed": true,
          "internalType": "address",
          "name": "previousOwner",
          "type": "address"
        },
        {
          "indexed": true,
          "internalType": "address",
          "name": "newOwner",
          "type": "address"
        }
      ],
      "name": "OwnershipTransferred",
      "type": "event"
    },
    {
      "anonymous": false,
      "inputs": [
        {
          "indexed": true,
          "internalType": "address",
          "name": "implementation",
          "type": "address"
        }
      ],
      "name": "Upgraded",
      "type": "event"
    },
    {
      "inputs": [],
      "name": "UPGRADE_INTERFACE_VERSION",
      "outputs": [
        {
          "internalType": "string",
          "name": "",
          "type": "string"
        }
      ],
      "stateMutability": "view",
      "type": "function"
    },
    {
      "inputs": [],
      "name": "acceptOwnership",
      "outputs": [],
      "stateMutability": "nonpayable",
      "type": "function"
    },
    {
      "inputs": [],
      "name": "automationRegistry",
      "outputs": [
        {
          "internalType": "address",
          "name": "",
          "type": "address"
        }
      ],
      "stateMutability": "view",
      "type": "function"
    },
    {
      "inputs": [
        {
          "internalType": "bytes",
          "name": "",
          "type": "bytes"
        }
      ],
      "name": "checkUpkeep",
      "outputs": [
        {
          "internalType": "bool",
          "name": "upkeepNeeded",
          "type": "bool"
        },
        {
          "internalType": "bytes",
          "name": "performData",
          "type": "bytes"
        }
      ],
      "stateMutability": "view",
      "type": "function"
    },
    {
      "inputs": [],
      "name": "config",
      "outputs": [
        {
          "internalType": "contract IOrionConfig",
          "name": "",
          "type": "address"
        }
      ],
      "stateMutability": "view",
      "type": "function"
    },
    {
      "inputs": [],
      "name": "epochCounter",
      "outputs": [
        {
          "internalType": "uint256",
          "name": "",
          "type": "uint256"
        }
      ],
      "stateMutability": "view",
      "type": "function"
    },
    {
      "inputs": [],
      "name": "getBuyingOrders",
      "outputs": [
        {
          "internalType": "address[]",
          "name": "tokens",
          "type": "address[]"
        },
        {
          "internalType": "uint256[]",
          "name": "amounts",
          "type": "uint256[]"
        }
      ],
      "stateMutability": "view",
      "type": "function"
    },
    {
      "inputs": [],
      "name": "getSellingOrders",
      "outputs": [
        {
          "internalType": "address[]",
          "name": "tokens",
          "type": "address[]"
        },
        {
          "internalType": "uint256[]",
          "name": "amounts",
          "type": "uint256[]"
        }
      ],
      "stateMutability": "view",
      "type": "function"
    },
    {
      "inputs": [
        {
          "internalType": "address",
          "name": "initialOwner",
          "type": "address"
        },
        {
          "internalType": "address",
          "name": "automationRegistry_",
          "type": "address"
        },
        {
          "internalType": "address",
          "name": "config_",
          "type": "address"
        }
      ],
      "name": "initialize",
      "outputs": [],
      "stateMutability": "nonpayable",
      "type": "function"
    },
    {
      "inputs": [],
      "name": "nextUpdateTime",
      "outputs": [
        {
          "internalType": "uint256",
          "name": "",
          "type": "uint256"
        }
      ],
      "stateMutability": "view",
      "type": "function"
    },
    {
      "inputs": [],
      "name": "owner",
      "outputs": [
        {
          "internalType": "address",
          "name": "",
          "type": "address"
        }
      ],
      "stateMutability": "view",
      "type": "function"
    },
    {
      "inputs": [],
      "name": "pendingOwner",
      "outputs": [
        {
          "internalType": "address",
          "name": "",
          "type": "address"
        }
      ],
      "stateMutability": "view",
      "type": "function"
    },
    {
      "inputs": [
        {
          "internalType": "bytes",
          "name": "",
          "type": "bytes"
        }
      ],
      "name": "performUpkeep",
      "outputs": [],
      "stateMutability": "nonpayable",
      "type": "function"
    },
    {
      "inputs": [],
      "name": "proxiableUUID",
      "outputs": [
        {
          "internalType": "bytes32",
          "name": "",
          "type": "bytes32"
        }
      ],
      "stateMutability": "view",
      "type": "function"
    },
    {
      "inputs": [],
      "name": "renounceOwnership",
      "outputs": [],
      "stateMutability": "nonpayable",
      "type": "function"
    },
    {
      "inputs": [
        {
          "internalType": "address",
          "name": "newOwner",
          "type": "address"
        }
      ],
      "name": "transferOwnership",
      "outputs": [],
      "stateMutability": "nonpayable",
      "type": "function"
    },
    {
      "inputs": [
        {
          "internalType": "address",
          "name": "newAutomationRegistry",
          "type": "address"
        }
      ],
      "name": "updateAutomationRegistry",
      "outputs": [],
      "stateMutability": "nonpayable",
      "type": "function"
    },
    {
      "inputs": [
        {
          "internalType": "address",
          "name": "newConfig",
          "type": "address"
        }
      ],
      "name": "updateConfig",
      "outputs": [],
      "stateMutability": "nonpayable",
      "type": "function"
    },
    {
      "inputs": [],
      "name": "updateInterval",
      "outputs": [
        {
          "internalType": "uint256",
          "name": "",
          "type": "uint256"
        }
      ],
      "stateMutability": "view",
      "type": "function"
    },
    {
      "inputs": [
        {
          "internalType": "address",
          "name": "newImplementation",
          "type": "address"
        },
        {
          "internalType": "bytes",
          "name": "data",
          "type": "bytes"
        }
      ],
      "name": "upgradeToAndCall",
      "outputs": [],
      "stateMutability": "payable",
      "type": "function"
    }
  ],
  "bytecode": "0x60a0604052306080523480156012575f5ffd5b506080516124cf6100395f395f81816118b5015281816118de0152611a1d01526124cf5ff3fe60806040526004361061011b575f3560e01c806379502c551161009d578063c0c53b8b11610062578063c0c53b8b146102ff578063c2cb5d881461031e578063e30c397814610332578063f2fde38b14610346578063fd2c80ae14610365575f5ffd5b806379502c551461025957806379ba5097146102785780638da5cb5b1461028c578063a08b82d7146102a0578063ad3cb1cc146102c2575f5ffd5b806352d1902d116100e357806352d1902d146101ae5780635dc228a0146101c25780636cc919c8146101f95780636e04ff0d14610218578063715018a614610245575f5ffd5b806314b19c5a1461011f57806314b5d07f1461014757806335238fb8146101685780634585e33b1461017c5780634f1ef2861461019b575b5f5ffd5b34801561012a575f5ffd5b5061013460035481565b6040519081526020015b60405180910390f35b348015610152575f5ffd5b50610166610161366004611dec565b610379565b005b348015610173575f5ffd5b506101345f5481565b348015610187575f5ffd5b50610166610196366004611e07565b6103f1565b6101666101a9366004611eb7565b610bd4565b3480156101b9575f5ffd5b50610134610bef565b3480156101cd575f5ffd5b506001546101e1906001600160a01b031681565b6040516001600160a01b03909116815260200161013e565b348015610204575f5ffd5b50610166610213366004611dec565b610c0a565b348015610223575f5ffd5b50610237610232366004611e07565b610c5b565b60405161013e929190611f8a565b348015610250575f5ffd5b50610166610c83565b348015610264575f5ffd5b506002546101e1906001600160a01b031681565b348015610283575f5ffd5b50610166610c96565b348015610297575f5ffd5b506101e1610ce3565b3480156102ab575f5ffd5b506102b4610d17565b60405161013e929190611fac565b3480156102cd575f5ffd5b506102f2604051806040016040528060058152602001640352e302e360dc1b81525081565b60405161013e9190612035565b34801561030a575f5ffd5b50610166610319366004612047565b610f26565b348015610329575f5ffd5b506102b46110c5565b34801561033d575f5ffd5b506101e16112cc565b348015610351575f5ffd5b50610166610360366004611dec565b6112f4565b348015610370575f5ffd5b50610134603c81565b610381611379565b6001600160a01b0381166103a85760405163d92e233d60e01b815260040160405180910390fd5b600180546001600160a01b0319166001600160a01b0383169081179091556040517f6cc7ebdb6c8c53291c5ae16148cab9b049d23bf5bde5632900b40edff56fcb43905f90a250565b6001546001600160a01b0316331461041c5760405163ea8e4eb560e01b815260040160405180910390fd5b6104246113ab565b61042c6113f5565b610434611439565b60025460408051634bb93ab160e01b815290515f926001600160a01b031691634bb93ab19160048083019260209291908290030181865afa15801561047b573d5f5f3e3d5ffd5b505050506040513d601f19601f8201168201806040525081019061049f919061208f565b600254604051631da09e4360e31b81529192505f916001600160a01b039091169063ed04f218906104d49084906004016120be565b5f60405180830381865afa1580156104ee573d5f5f3e3d5ffd5b505050506040513d5f823e601f3d908101601f19168201604052610515919081019061216d565b80519091505f5b818110156109e0575f8382815181106105375761053761219e565b602002602001015190505f5f826001600160a01b031663d3d034586040518163ffffffff1660e01b81526004015f60405180830381865afa15801561057e573d5f5f3e3d5ffd5b505050506040513d5f823e601f3d908101601f191682016040526105a591908101906121b2565b815191935091505f90815b818110156106f6575f8582815181106105cb576105cb61219e565b6020908102919091018101516001600160a01b0381165f908152600490925260408220549092509081900361067f576040516341976e0960e01b81526001600160a01b0383811660048301528d16906341976e0990602401602060405180830381865afa15801561063e573d5f5f3e3d5ffd5b505050506040513d601f19601f82011682018060405250810190610662919061226e565b6001600160a01b0383165f90815260046020526040902081905590505b5f6106a4828886815181106106965761069661219e565b602002602001015185611529565b90506106b08187612299565b6001600160a01b0384165f908152600560205260408120805492985083929091906106dc908490612299565b909155506106eb9050836116e2565b5050506001016105b0565b505f856001600160a01b031663a68a5267876001600160a01b031663c37fc8a86040518163ffffffff1660e01b8152600401602060405180830381865afa158015610743573d5f5f3e3d5ffd5b505050506040513d601f19601f82011682018060405250810190610767919061226e565b855f6040518463ffffffff1660e01b8152600401610787939291906122ac565b602060405180830381865afa1580156107a2573d5f5f3e3d5ffd5b505050506040513d601f19601f820116820180604052508101906107c6919061226e565b90505f81876001600160a01b031663d1699c266040518163ffffffff1660e01b8152600401602060405180830381865afa158015610806573d5f5f3e3d5ffd5b505050506040513d601f19601f8201168201806040525081019061082a919061226e565b6108349086612299565b61083e91906122d8565b90505f5f886001600160a01b031663b6eba6536040518163ffffffff1660e01b81526004015f60405180830381865afa15801561087d573d5f5f3e3d5ffd5b505050506040513d5f823e601f3d908101601f191682016040526108a491908101906121b2565b815191935091505f5b818110156109c9575f8482815181106108c8576108c861219e565b602002602001015190505f8483815181106108e5576108e561219e565b602002602001015190505f60025f9054906101000a90046001600160a01b03166001600160a01b031663d1717c7d6040518163ffffffff1660e01b8152600401602060405180830381865afa158015610940573d5f5f3e3d5ffd5b505050506040513d601f19601f8201168201806040525081019061096491906122eb565b61096f90600a6123ee565b610979838a6123fc565b6109839190612413565b6001600160a01b0384165f908152600660205260408120805492935083929091906109af908490612299565b909155506109be9050836116e2565b5050506001016108ad565b50506001909901985061051c975050505050505050565b50600254604051631da09e4360e31b81525f916001600160a01b03169063ed04f21890610a12906001906004016120be565b5f60405180830381865afa158015610a2c573d5f5f3e3d5ffd5b505050506040513d5f823e601f3d908101601f19168201604052610a53919081019061216d565b8051925090505f5b82811015610b5f575f828281518110610a7657610a7661219e565b602002602001015190505f5f826001600160a01b031663d3d034586040518163ffffffff1660e01b81526004015f60405180830381865afa158015610abd573d5f5f3e3d5ffd5b505050506040513d5f823e601f3d908101601f19168201604052610ae491908101906121b2565b915091505f5f846001600160a01b031663b6eba6536040518163ffffffff1660e01b81526004015f60405180830381865afa158015610b25573d5f5f3e3d5ffd5b505050506040513d5f823e601f3d908101601f19168201604052610b4c91908101906121b2565b505060019095019450610a5b9350505050565b50610b68611767565b7f9375d658f91055a030c54d5cf460d6f12968b10b80b0797c1aa5c02e4dca9403600354604051610b9b91815260200190565b60405180910390a150505050610bd060017f9b779b17422d0df92223018b32b4d1fa46e071723d6817e2486d003becc55f0055565b5050565b610bdc6118aa565b610be58261194e565b610bd08282611956565b5f610bf8611a12565b505f51602061247a5f395f51905f5290565b610c12611379565b6001600160a01b038116610c395760405163d92e233d60e01b815260040160405180910390fd5b600280546001600160a01b0319166001600160a01b0392909216919091179055565b5f6060610c695f5442101590565b915060405180602001604052805f81525090509250929050565b610c8b611379565b610c945f611a5b565b565b3380610ca06112cc565b6001600160a01b031614610cd75760405163118cdaa760e01b81526001600160a01b03821660048201526024015b60405180910390fd5b610ce081611a5b565b50565b5f807f9016d09d72d40fdae2fd8ceac6b6234c7706214fd39c1cd1e609a0528c1993005b546001600160a01b031692915050565b600980546040805160208084028201810190925282815260609384935f93830182828015610d6c57602002820191905f5260205f20905b81546001600160a01b03168152600190910190602001808311610d4e575b505083519394505f9250829150505b82811015610ddf575f600480015f868481518110610d9b57610d9b61219e565b60200260200101516001600160a01b03166001600160a01b031681526020019081526020015f20541115610dd75781610dd381612432565b9250505b600101610d7b565b50806001600160401b03811115610df857610df8611e73565b604051908082528060200260200182016040528015610e21578160200160208202803683370190505b509450806001600160401b03811115610e3c57610e3c611e73565b604051908082528060200260200182016040528015610e65578160200160208202803683370190505b5093505f805b83811015610f1d575f858281518110610e8657610e8661219e565b6020908102919091018101516001600160a01b0381165f90815260089092526040909120549091508015610f135781898581518110610ec757610ec761219e565b60200260200101906001600160a01b031690816001600160a01b03168152505080888581518110610efa57610efa61219e565b602090810291909101015283610f0f81612432565b9450505b5050600101610e6b565b50505050509091565b5f610f2f611a93565b805490915060ff600160401b82041615906001600160401b03165f81158015610f555750825b90505f826001600160401b03166001148015610f705750303b155b905081158015610f7e575080155b15610f9c5760405163f92ee8a960e01b815260040160405180910390fd5b845467ffffffffffffffff191660011785558315610fc657845460ff60401b1916600160401b1785555b610fcf88611abd565b610fd7611ace565b610fdf611ad6565b610fe7611ace565b6001600160a01b03871661100e5760405163d92e233d60e01b815260040160405180910390fd5b6001600160a01b0386166110355760405163d92e233d60e01b815260040160405180910390fd5b600180546001600160a01b03808a166001600160a01b031992831617909255600280549289169290911691909117905561106e42611ae6565b5f90815560035583156110bb57845460ff60401b19168555604051600181527fc7f505b2f371ae2175ee4913f4499e1f2633a7b5936321eed1cdaeb6115181d29060200160405180910390a15b5050505050505050565b600980546040805160208084028201810190925282815260609384935f9383018282801561111a57602002820191905f5260205f20905b81546001600160a01b031681526001909101906020018083116110fc575b505083519394505f9250829150505b8281101561118e575f60046003015f86848151811061114a5761114a61219e565b60200260200101516001600160a01b03166001600160a01b031681526020019081526020015f20541115611186578161118281612432565b9250505b600101611129565b50806001600160401b038111156111a7576111a7611e73565b6040519080825280602002602001820160405280156111d0578160200160208202803683370190505b509450806001600160401b038111156111eb576111eb611e73565b604051908082528060200260200182016040528015611214578160200160208202803683370190505b5093505f805b83811015610f1d575f8582815181106112355761123561219e565b6020908102919091018101516001600160a01b0381165f908152600790925260409091205490915080156112c257818985815181106112765761127661219e565b60200260200101906001600160a01b031690816001600160a01b031681525050808885815181106112a9576112a961219e565b6020908102919091010152836112be81612432565b9450505b505060010161121a565b5f807f237e158222e3e6968b72b9db0d8043aacf074ad9f650f0d1606b4d82ee432c00610d07565b6112fc611379565b7f237e158222e3e6968b72b9db0d8043aacf074ad9f650f0d1606b4d82ee432c0080546001600160a01b0319166001600160a01b0383169081178255611340610ce3565b6001600160a01b03167f38d16b8cac22d99fc7c124b9cd0de2d3fa1faef420bfe791d8c362d765e2270060405160405180910390a35050565b33611382610ce3565b6001600160a01b031614610c945760405163118cdaa760e01b8152336004820152602401610cce565b7f9b779b17422d0df92223018b32b4d1fa46e071723d6817e2486d003becc55f008054600119016113ef57604051633ee5aeb560e01b815260040160405180910390fd5b60029055565b5f544210156114175760405163085de62560e01b815260040160405180910390fd5b61142042611ae6565b5f908155600380549161143283612432565b9190505550565b5f600460050180548060200260200160405190810160405280929190818152602001828054801561149157602002820191905f5260205f20905b81546001600160a01b03168152600190910190602001808311611473575b505083519394505f925050505b8181101561151d575f8382815181106114b9576114b961219e565b6020908102919091018101516001600160a01b03165f90815260048252604080822082905560058352808220829055600683528082208290556007835280822082905560088352808220829055600a90925220805460ff191690555060010161149e565b50610bd060095f611daa565b5f80670de0b6b3a764000061153e85876123fc565b6115489190612413565b90505f836001600160a01b031663313ce5676040518163ffffffff1660e01b8152600401602060405180830381865afa158015611587573d5f5f3e3d5ffd5b505050506040513d601f19601f820116820180604052508101906115ab91906122eb565b90505f60025f9054906101000a90046001600160a01b03166001600160a01b0316637158da7c6040518163ffffffff1660e01b8152600401602060405180830381865afa1580156115fe573d5f5f3e3d5ffd5b505050506040513d601f19601f82011682018060405250810190611622919061208f565b6001600160a01b031663313ce5676040518163ffffffff1660e01b8152600401602060405180830381865afa15801561165d573d5f5f3e3d5ffd5b505050506040513d601f19601f8201168201806040525081019061168191906122eb565b90508160ff168160ff16106116b65761169a828261244a565b6116a590600a6123ee565b6116af90846123fc565b93506116d8565b6116c0818361244a565b6116cb90600a6123ee565b6116d59084612413565b93505b5050509392505050565b6001600160a01b0381165f908152600a602052604090205460ff16610ce0576009805460018181019092557f6e1540171b6c0c960b71a7020d9f60077f6af931a8bbf590da0223dacf75c7af0180546001600160a01b0384166001600160a01b031990911681179091555f908152600a60205260409020805460ff1916909117905550565b5f60046005018054806020026020016040519081016040528092919081815260200182805480156117bf57602002820191905f5260205f20905b81546001600160a01b031681526001909101906020018083116117a1575b505083519394505f925050505b8181101561187f575f8382815181106117e7576117e761219e565b6020908102919091018101516001600160a01b0381165f90815260058352604080822054600690945290205490925080821115611847575f61182982846122d8565b6001600160a01b0385165f9081526007602052604090205550611874565b81811115611874575f61185a83836122d8565b6001600160a01b0385165f90815260086020526040902055505b5050506001016117cc565b505050565b60017f9b779b17422d0df92223018b32b4d1fa46e071723d6817e2486d003becc55f0055565b306001600160a01b037f000000000000000000000000000000000000000000000000000000000000000016148061193057507f00000000000000000000000000000000000000000000000000000000000000006001600160a01b03166119245f51602061247a5f395f51905f52546001600160a01b031690565b6001600160a01b031614155b15610c945760405163703e46dd60e11b815260040160405180910390fd5b610ce0611379565b816001600160a01b03166352d1902d6040518163ffffffff1660e01b8152600401602060405180830381865afa9250505080156119b0575060408051601f3d908101601f191682019092526119ad9181019061226e565b60015b6119d857604051634c9c8ce360e01b81526001600160a01b0383166004820152602401610cce565b5f51602061247a5f395f51905f528114611a0857604051632a87526960e21b815260048101829052602401610cce565b61187f8383611af2565b306001600160a01b037f00000000000000000000000000000000000000000000000000000000000000001614610c945760405163703e46dd60e11b815260040160405180910390fd5b7f237e158222e3e6968b72b9db0d8043aacf074ad9f650f0d1606b4d82ee432c0080546001600160a01b0319168155610bd082611b47565b5f807ff0c57e16840df040f15088dc2f81fe391c3923bec73e23a9662efc9c229c6a005b92915050565b611ac5611bb7565b610ce081611bdc565b610c94611bb7565b611ade611bb7565b610c94611c0d565b5f611ab7603c83612299565b611afb82611c15565b6040516001600160a01b038316907fbc7cd75a20ee27fd9adebab32041f755214dbc6bffa90cc0225b39da2e5c2d3b905f90a2805115611b3f5761187f8282611c78565b610bd0611cea565b7f9016d09d72d40fdae2fd8ceac6b6234c7706214fd39c1cd1e609a0528c19930080546001600160a01b031981166001600160a01b03848116918217845560405192169182907f8be0079c531659141344cd1fd0a4f28419497f9722a3daafe3b4186f6b6457e0905f90a3505050565b611bbf611d09565b610c9457604051631afcd79f60e31b815260040160405180910390fd5b611be4611bb7565b6001600160a01b038116610cd757604051631e4fbdf760e01b81525f6004820152602401610cce565b611884611bb7565b806001600160a01b03163b5f03611c4a57604051634c9c8ce360e01b81526001600160a01b0382166004820152602401610cce565b5f51602061247a5f395f51905f5280546001600160a01b0319166001600160a01b0392909216919091179055565b60605f5f846001600160a01b031684604051611c949190612463565b5f60405180830381855af49150503d805f8114611ccc576040519150601f19603f3d011682016040523d82523d5f602084013e611cd1565b606091505b5091509150611ce1858383611d22565b95945050505050565b3415610c945760405163b398979f60e01b815260040160405180910390fd5b5f611d12611a93565b54600160401b900460ff16919050565b606082611d3757611d3282611d81565b611d7a565b8151158015611d4e57506001600160a01b0384163b155b15611d7757604051639996b31560e01b81526001600160a01b0385166004820152602401610cce565b50805b9392505050565b805115611d915780518082602001fd5b60405163d6bda27560e01b815260040160405180910390fd5b5080545f8255905f5260205f2090810190610ce091905b80821115611dd4575f8155600101611dc1565b5090565b6001600160a01b0381168114610ce0575f5ffd5b5f60208284031215611dfc575f5ffd5b8135611d7a81611dd8565b5f5f60208385031215611e18575f5ffd5b82356001600160401b03811115611e2d575f5ffd5b8301601f81018513611e3d575f5ffd5b80356001600160401b03811115611e52575f5ffd5b856020828401011115611e63575f5ffd5b6020919091019590945092505050565b634e487b7160e01b5f52604160045260245ffd5b604051601f8201601f191681016001600160401b0381118282101715611eaf57611eaf611e73565b604052919050565b5f5f60408385031215611ec8575f5ffd5b8235611ed381611dd8565b915060208301356001600160401b03811115611eed575f5ffd5b8301601f81018513611efd575f5ffd5b80356001600160401b03811115611f1657611f16611e73565b611f29601f8201601f1916602001611e87565b818152866020838501011115611f3d575f5ffd5b816020840160208301375f602083830101528093505050509250929050565b5f81518084528060208401602086015e5f602082860101526020601f19601f83011685010191505092915050565b8215158152604060208201525f611fa46040830184611f5c565b949350505050565b604080825283519082018190525f9060208501906060840190835b81811015611fee5783516001600160a01b0316835260209384019390920191600101611fc7565b5050838103602080860191909152855180835291810192508501905f5b8181101561202957825184526020938401939092019160010161200b565b50919695505050505050565b602081525f611d7a6020830184611f5c565b5f5f5f60608486031215612059575f5ffd5b833561206481611dd8565b9250602084013561207481611dd8565b9150604084013561208481611dd8565b809150509250925092565b5f6020828403121561209f575f5ffd5b8151611d7a81611dd8565b634e487b7160e01b5f52602160045260245ffd5b60208101600283106120d2576120d26120aa565b91905290565b5f6001600160401b038211156120f0576120f0611e73565b5060051b60200190565b5f82601f830112612109575f5ffd5b815161211c612117826120d8565b611e87565b8082825260208201915060208360051b86010192508583111561213d575f5ffd5b602085015b8381101561216357805161215581611dd8565b835260209283019201612142565b5095945050505050565b5f6020828403121561217d575f5ffd5b81516001600160401b03811115612192575f5ffd5b611fa4848285016120fa565b634e487b7160e01b5f52603260045260245ffd5b5f5f604083850312156121c3575f5ffd5b82516001600160401b038111156121d8575f5ffd5b6121e4858286016120fa565b92505060208301516001600160401b038111156121ff575f5ffd5b8301601f8101851361220f575f5ffd5b805161221d612117826120d8565b8082825260208201915060208360051b85010192508783111561223e575f5ffd5b6020840193505b82841015612260578351825260209384019390910190612245565b809450505050509250929050565b5f6020828403121561227e575f5ffd5b5051919050565b634e487b7160e01b5f52601160045260245ffd5b80820180821115611ab757611ab7612285565b8381526020810183905260608101600483106122ca576122ca6120aa565b826040830152949350505050565b81810381811115611ab757611ab7612285565b5f602082840312156122fb575f5ffd5b815160ff81168114611d7a575f5ffd5b6001815b60018411156123465780850481111561232a5761232a612285565b600184161561233857908102905b60019390931c92800261230f565b935093915050565b5f8261235c57506001611ab7565b8161236857505f611ab7565b816001811461237e5760028114612388576123a4565b6001915050611ab7565b60ff84111561239957612399612285565b50506001821b611ab7565b5060208310610133831016604e8410600b84101617156123c7575081810a611ab7565b6123d35f19848461230b565b805f19048211156123e6576123e6612285565b029392505050565b5f611d7a60ff84168361234e565b8082028115828204841417611ab757611ab7612285565b5f8261242d57634e487b7160e01b5f52601260045260245ffd5b500490565b5f6001820161244357612443612285565b5060010190565b60ff8281168282160390811115611ab757611ab7612285565b5f82518060208501845e5f92019182525091905056fe360894a13ba1a3210667c828492db98dca3e2076cc3735a920a3ca505d382bbca26469706673582212206bc709a739a30b4d04574e7cf17d3cdebfdcba0530899b895ad66c30042e01ec64736f6c634300081c0033",
  "linkReferences": {},
  "deployedLinkReferences": {}
}