{
  "_format": "hh-sol-artifact-1",
  "contractName": "InternalStatesOrchestrator",
  "sourceName": "contracts/orchestrators/InternalStatesOrchestrator.sol",
  "abi": [
    {
      "inputs": [
        {
          "internalType": "address",
          "name": "initialOwner",
          "type": "address"
        },
        {
          "internalType": "address",
          "name": "config_",
          "type": "address"
        },
        {
          "internalType": "address",
          "name": "automationRegistry_",
          "type": "address"
        }
      ],
      "stateMutability": "nonpayable",
      "type": "constructor"
    },
    {
      "inputs": [],
      "name": "InsufficientAmount",
      "type": "error"
    },
    {
      "inputs": [],
      "name": "InvalidArguments",
      "type": "error"
    },
    {
      "inputs": [],
      "name": "NotAuthorized",
      "type": "error"
    },
    {
      "inputs": [
        {
          "internalType": "address",
          "name": "owner",
          "type": "address"
        }
      ],
      "name": "OwnableInvalidOwner",
      "type": "error"
    },
    {
      "inputs": [
        {
          "internalType": "address",
          "name": "account",
          "type": "address"
        }
      ],
      "name": "OwnableUnauthorizedAccount",
      "type": "error"
    },
    {
      "inputs": [],
      "name": "ReentrancyGuardReentrantCall",
      "type": "error"
    },
    {
      "inputs": [],
      "name": "SystemNotIdle",
      "type": "error"
    },
    {
      "inputs": [],
      "name": "TooEarly",
      "type": "error"
    },
    {
      "inputs": [],
      "name": "ZeroAddress",
      "type": "error"
    },
    {
      "anonymous": false,
      "inputs": [
        {
          "indexed": true,
          "internalType": "address",
          "name": "newAutomationRegistry",
          "type": "address"
        }
      ],
      "name": "AutomationRegistryUpdated",
      "type": "event"
    },
    {
      "anonymous": false,
      "inputs": [
        {
          "indexed": true,
          "internalType": "uint16",
          "name": "epochCounter",
          "type": "uint16"
        }
      ],
      "name": "InternalStateProcessed",
      "type": "event"
    },
    {
      "anonymous": false,
      "inputs": [
        {
          "indexed": true,
          "internalType": "address",
          "name": "previousOwner",
          "type": "address"
        },
        {
          "indexed": true,
          "internalType": "address",
          "name": "newOwner",
          "type": "address"
        }
      ],
      "name": "OwnershipTransferred",
      "type": "event"
    },
    {
      "anonymous": false,
      "inputs": [
        {
          "indexed": false,
          "internalType": "uint16",
          "name": "vFeeCoefficient",
          "type": "uint16"
        },
        {
          "indexed": false,
          "internalType": "uint16",
          "name": "rsFeeCoefficient",
          "type": "uint16"
        }
      ],
      "name": "ProtocolFeeChangeScheduled",
      "type": "event"
    },
    {
      "inputs": [],
      "name": "BASIS_POINTS_FACTOR",
      "outputs": [
        {
          "internalType": "uint16",
          "name": "",
          "type": "uint16"
        }
      ],
      "stateMutability": "view",
      "type": "function"
    },
    {
      "inputs": [],
      "name": "MAX_EPOCH_DURATION",
      "outputs": [
        {
          "internalType": "uint32",
          "name": "",
          "type": "uint32"
        }
      ],
      "stateMutability": "view",
      "type": "function"
    },
    {
      "inputs": [],
      "name": "MAX_TRANSPARENT_MINIBATCH_SIZE",
      "outputs": [
        {
          "internalType": "uint8",
          "name": "",
          "type": "uint8"
        }
      ],
      "stateMutability": "view",
      "type": "function"
    },
    {
      "inputs": [],
      "name": "activeProtocolFees",
      "outputs": [
        {
          "internalType": "uint16",
          "name": "vFee",
          "type": "uint16"
        },
        {
          "internalType": "uint16",
          "name": "rsFee",
          "type": "uint16"
        }
      ],
      "stateMutability": "view",
      "type": "function"
    },
    {
      "inputs": [],
      "name": "automationRegistry",
      "outputs": [
        {
          "internalType": "address",
          "name": "",
          "type": "address"
        }
      ],
      "stateMutability": "view",
      "type": "function"
    },
    {
      "inputs": [],
      "name": "bufferAmount",
      "outputs": [
        {
          "internalType": "uint256",
          "name": "",
          "type": "uint256"
        }
      ],
      "stateMutability": "view",
      "type": "function"
    },
    {
      "inputs": [
        {
          "internalType": "bytes",
          "name": "",
          "type": "bytes"
        }
      ],
      "name": "checkUpkeep",
      "outputs": [
        {
          "internalType": "bool",
          "name": "upkeepNeeded",
          "type": "bool"
        },
        {
          "internalType": "bytes",
          "name": "performData",
          "type": "bytes"
        }
      ],
      "stateMutability": "view",
      "type": "function"
    },
    {
      "inputs": [],
      "name": "config",
      "outputs": [
        {
          "internalType": "contract IOrionConfig",
          "name": "",
          "type": "address"
        }
      ],
      "stateMutability": "view",
      "type": "function"
    },
    {
      "inputs": [],
      "name": "currentMinibatchIndex",
      "outputs": [
        {
          "internalType": "uint8",
          "name": "",
          "type": "uint8"
        }
      ],
      "stateMutability": "view",
      "type": "function"
    },
    {
      "inputs": [],
      "name": "currentPhase",
      "outputs": [
        {
          "internalType": "enum IInternalStateOrchestrator.InternalUpkeepPhase",
          "name": "",
          "type": "uint8"
        }
      ],
      "stateMutability": "view",
      "type": "function"
    },
    {
      "inputs": [],
      "name": "epochCounter",
      "outputs": [
        {
          "internalType": "uint16",
          "name": "",
          "type": "uint16"
        }
      ],
      "stateMutability": "view",
      "type": "function"
    },
    {
      "inputs": [],
      "name": "epochDuration",
      "outputs": [
        {
          "internalType": "uint32",
          "name": "",
          "type": "uint32"
        }
      ],
      "stateMutability": "view",
      "type": "function"
    },
    {
      "inputs": [],
      "name": "getEpochTokens",
      "outputs": [
        {
          "internalType": "address[]",
          "name": "tokens",
          "type": "address[]"
        }
      ],
      "stateMutability": "view",
      "type": "function"
    },
    {
      "inputs": [],
      "name": "getOrders",
      "outputs": [
        {
          "internalType": "address[]",
          "name": "sellingTokens",
          "type": "address[]"
        },
        {
          "internalType": "uint256[]",
          "name": "sellingAmounts",
          "type": "uint256[]"
        },
        {
          "internalType": "address[]",
          "name": "buyingTokens",
          "type": "address[]"
        },
        {
          "internalType": "uint256[]",
          "name": "buyingAmounts",
          "type": "uint256[]"
        },
        {
          "internalType": "uint256[]",
          "name": "sellingEstimatedUnderlyingAmounts",
          "type": "uint256[]"
        },
        {
          "internalType": "uint256[]",
          "name": "buyingEstimatedUnderlyingAmounts",
          "type": "uint256[]"
        }
      ],
      "stateMutability": "view",
      "type": "function"
    },
    {
      "inputs": [
        {
          "internalType": "address",
          "name": "token",
          "type": "address"
        }
      ],
      "name": "getPriceOf",
      "outputs": [
        {
          "internalType": "uint256",
          "name": "price",
          "type": "uint256"
        }
      ],
      "stateMutability": "view",
      "type": "function"
    },
    {
      "inputs": [],
      "name": "getTransparentVaultsEpoch",
      "outputs": [
        {
          "internalType": "address[]",
          "name": "vaults",
          "type": "address[]"
        }
      ],
      "stateMutability": "view",
      "type": "function"
    },
    {
      "inputs": [
        {
          "internalType": "address",
          "name": "vault",
          "type": "address"
        }
      ],
      "name": "getVaultTotalAssetsForFulfillDeposit",
      "outputs": [
        {
          "internalType": "uint256",
          "name": "totalAssets",
          "type": "uint256"
        }
      ],
      "stateMutability": "view",
      "type": "function"
    },
    {
      "inputs": [
        {
          "internalType": "address",
          "name": "vault",
          "type": "address"
        }
      ],
      "name": "getVaultTotalAssetsForFulfillRedeem",
      "outputs": [
        {
          "internalType": "uint256",
          "name": "totalAssets",
          "type": "uint256"
        }
      ],
      "stateMutability": "view",
      "type": "function"
    },
    {
      "inputs": [],
      "name": "intentFactor",
      "outputs": [
        {
          "internalType": "uint256",
          "name": "",
          "type": "uint256"
        }
      ],
      "stateMutability": "view",
      "type": "function"
    },
    {
      "inputs": [],
      "name": "liquidityOrchestrator",
      "outputs": [
        {
          "internalType": "contract ILiquidityOrchestrator",
          "name": "",
          "type": "address"
        }
      ],
      "stateMutability": "view",
      "type": "function"
    },
    {
      "inputs": [],
      "name": "newProtocolFeeRatesTimestamp",
      "outputs": [
        {
          "internalType": "uint256",
          "name": "",
          "type": "uint256"
        }
      ],
      "stateMutability": "view",
      "type": "function"
    },
    {
      "inputs": [],
      "name": "owner",
      "outputs": [
        {
          "internalType": "address",
          "name": "",
          "type": "address"
        }
      ],
      "stateMutability": "view",
      "type": "function"
    },
    {
      "inputs": [],
      "name": "pendingProtocolFees",
      "outputs": [
        {
          "internalType": "uint256",
          "name": "",
          "type": "uint256"
        }
      ],
      "stateMutability": "view",
      "type": "function"
    },
    {
      "inputs": [
        {
          "internalType": "bytes",
          "name": "",
          "type": "bytes"
        }
      ],
      "name": "performUpkeep",
      "outputs": [],
      "stateMutability": "nonpayable",
      "type": "function"
    },
    {
      "inputs": [],
      "name": "priceAdapterPrecision",
      "outputs": [
        {
          "internalType": "uint256",
          "name": "",
          "type": "uint256"
        }
      ],
      "stateMutability": "view",
      "type": "function"
    },
    {
      "inputs": [],
      "name": "registry",
      "outputs": [
        {
          "internalType": "contract IPriceAdapterRegistry",
          "name": "",
          "type": "address"
        }
      ],
      "stateMutability": "view",
      "type": "function"
    },
    {
      "inputs": [],
      "name": "renounceOwnership",
      "outputs": [],
      "stateMutability": "nonpayable",
      "type": "function"
    },
    {
      "inputs": [],
      "name": "rsFeeCoefficient",
      "outputs": [
        {
          "internalType": "uint16",
          "name": "",
          "type": "uint16"
        }
      ],
      "stateMutability": "view",
      "type": "function"
    },
    {
      "inputs": [
        {
          "internalType": "uint256",
          "name": "amount",
          "type": "uint256"
        }
      ],
      "name": "subtractPendingProtocolFees",
      "outputs": [],
      "stateMutability": "nonpayable",
      "type": "function"
    },
    {
      "inputs": [
        {
          "internalType": "address",
          "name": "newOwner",
          "type": "address"
        }
      ],
      "name": "transferOwnership",
      "outputs": [],
      "stateMutability": "nonpayable",
      "type": "function"
    },
    {
      "inputs": [],
      "name": "transparentMinibatchSize",
      "outputs": [
        {
          "internalType": "uint8",
          "name": "",
          "type": "uint8"
        }
      ],
      "stateMutability": "view",
      "type": "function"
    },
    {
      "inputs": [
        {
          "internalType": "uint256",
          "name": "",
          "type": "uint256"
        }
      ],
      "name": "transparentVaultsEpoch",
      "outputs": [
        {
          "internalType": "address",
          "name": "",
          "type": "address"
        }
      ],
      "stateMutability": "view",
      "type": "function"
    },
    {
      "inputs": [],
      "name": "underlyingAsset",
      "outputs": [
        {
          "internalType": "address",
          "name": "",
          "type": "address"
        }
      ],
      "stateMutability": "view",
      "type": "function"
    },
    {
      "inputs": [],
      "name": "underlyingDecimals",
      "outputs": [
        {
          "internalType": "uint8",
          "name": "",
          "type": "uint8"
        }
      ],
      "stateMutability": "view",
      "type": "function"
    },
    {
      "inputs": [
        {
          "internalType": "address",
          "name": "newAutomationRegistry",
          "type": "address"
        }
      ],
      "name": "updateAutomationRegistry",
      "outputs": [],
      "stateMutability": "nonpayable",
      "type": "function"
    },
    {
      "inputs": [
        {
          "internalType": "int256",
          "name": "deltaAmount",
          "type": "int256"
        }
      ],
      "name": "updateBufferAmount",
      "outputs": [],
      "stateMutability": "nonpayable",
      "type": "function"
    },
    {
      "inputs": [
        {
          "internalType": "uint32",
          "name": "newEpochDuration",
          "type": "uint32"
        }
      ],
      "name": "updateEpochDuration",
      "outputs": [],
      "stateMutability": "nonpayable",
      "type": "function"
    },
    {
      "inputs": [
        {
          "internalType": "uint8",
          "name": "_transparentMinibatchSize",
          "type": "uint8"
        }
      ],
      "name": "updateMinibatchSize",
      "outputs": [],
      "stateMutability": "nonpayable",
      "type": "function"
    },
    {
      "inputs": [
        {
          "internalType": "uint16",
          "name": "_vFeeCoefficient",
          "type": "uint16"
        },
        {
          "internalType": "uint16",
          "name": "_rsFeeCoefficient",
          "type": "uint16"
        }
      ],
      "name": "updateProtocolFees",
      "outputs": [],
      "stateMutability": "nonpayable",
      "type": "function"
    },
    {
      "inputs": [],
      "name": "vFeeCoefficient",
      "outputs": [
        {
          "internalType": "uint16",
          "name": "",
          "type": "uint16"
        }
      ],
      "stateMutability": "view",
      "type": "function"
    }
  ],
  "bytecode": "0x608060405234801561000f575f5ffd5b50604051613b51380380613b5183398101604081905261002e916104b6565b826001600160a01b03811661005c57604051631e4fbdf760e01b81525f600482015260240160405180910390fd5b61006581610450565b50600180556001600160a01b0382166100915760405163d92e233d60e01b815260040160405180910390fd5b6001600160a01b0381166100b85760405163d92e233d60e01b815260040160405180910390fd5b600380546001600160a01b0319166001600160a01b0384169081179091556040805163015df99360e01b8152905163015df993916004808201926020929091908290030181865afa15801561010f573d5f5f3e3d5ffd5b505050506040513d601f19601f820116820180604052508101906101339190610500565b600580546001600160a01b0319166001600160a01b039283161790556003546040805163d1717c7d60e01b81529051919092169163d1717c7d9160048083019260209291908290030181865afa15801561018f573d5f5f3e3d5ffd5b505050506040513d601f19601f820116820180604052508101906101b39190610522565b6101be90600a61063b565b60075560035460408051631c56369f60e21b815290516001600160a01b0390921691637158da7c916004808201926020929091908290030181865afa158015610209573d5f5f3e3d5ffd5b505050506040513d601f19601f8201168201806040525081019061022d9190610500565b600880546001600160a01b0319166001600160a01b03928316908117909155600354604051633c2e3e7b60e11b815260048101929092529091169063785c7cf690602401602060405180830381865afa15801561028c573d5f5f3e3d5ffd5b505050506040513d601f19601f820116820180604052508101906102b09190610522565b600860146101000a81548160ff021916908360ff16021790555060035f9054906101000a90046001600160a01b03166001600160a01b031663567ba7136040518163ffffffff1660e01b8152600401602060405180830381865afa15801561031a573d5f5f3e3d5ffd5b505050506040513d601f19601f8201168201806040525081019061033e9190610522565b61034990600a61063b565b6006556018805462ff0000191662010000179055600280546001600160a01b038084166001600160a01b03199092169190911790915560035460408051631d06d6c760e11b815290519190921691633a0dad8e9160048281019260209291908290030181865afa1580156103bf573d5f5f3e3d5ffd5b505050506040513d601f19601f820116820180604052508101906103e39190610500565b600480546001600160a01b0319166001600160a01b0392909216919091179055601680546201518063ffffffff1990911681179091556104239042610649565b60175550506018805464ffff00ffff19169055506008805463ffffffff60a81b191690555f601a5561065c565b5f80546001600160a01b038381166001600160a01b0319831681178455604051919092169283917f8be0079c531659141344cd1fd0a4f28419497f9722a3daafe3b4186f6b6457e09190a35050565b6001600160a01b03811681146104b3575f5ffd5b50565b5f5f5f606084860312156104c8575f5ffd5b83516104d38161049f565b60208501519093506104e48161049f565b60408501519092506104f58161049f565b809150509250925092565b5f60208284031215610510575f5ffd5b815161051b8161049f565b9392505050565b5f60208284031215610532575f5ffd5b815160ff8116811461051b575f5ffd5b634e487b7160e01b5f52601160045260245ffd5b6001815b60018411156105915780850481111561057557610575610542565b600184161561058357908102905b60019390931c92800261055a565b935093915050565b5f826105a757506001610635565b816105b357505f610635565b81600181146105c957600281146105d3576105ef565b6001915050610635565b60ff8411156105e4576105e4610542565b50506001821b610635565b5060208310610133831016604e8410600b8410161715610612575081810a610635565b61061e5f198484610556565b805f190482111561063157610631610542565b0290505b92915050565b5f61051b60ff841683610599565b8082018082111561063557610635610542565b6134e8806106695f395ff3fe608060405234801561000f575f5ffd5b50600436106101d6575f3560e01c8063055ad42e146101da5780630844697d1461020457806308af604d1461022c5780630e60efe714610251578063132b1c921461026857806314b19c5a1461029057806314b5d07f1461029e57806325a760c2146102b35780632b0088b4146102c75780632e2dc43e146102d05780633a0dad8e146102ea5780634585e33b1461030a5780634f17a2fa1461031d5780634ff0876a1461033c57806350267f6d1461034c5780635488cd621461036f57806358fac65b146103835780635dc228a0146103965780636e04ff0d146103a95780636ff04153146103ca57806370604445146103df578063715018a6146103f25780637158da7c146103fa57806379502c551461040d5780637b103999146104205780637bced9e5146104335780637cdabf0a1461043b578063800f9fad1461044e5780638da5cb5b146104575780638f5c94651461045f5780639f2124cb14610468578063b8b2af7c14610470578063ba96ff1114610485578063c18e2a5c146104ad578063ca1f32f1146104b6578063e2638ff1146104bf578063e2c4aaec146104e7578063e6c3efd9146104fa578063eeb393c91461050d578063f2fde38b14610520575b5f5ffd5b6018546101ee906301000000900460ff1681565b6040516101fb9190612c49565b60405180910390f35b60085461021990600160b81b900461ffff1681565b60405161ffff90911681526020016101fb565b60185461023f9062010000900460ff1681565b60405160ff90911681526020016101fb565b61025a60095481565b6040519081526020016101fb565b61025a610276366004612c77565b6001600160a01b03165f9081526011602052604090205490565b6018546102199061ffff1681565b6102b16102ac366004612c77565b610533565b005b60085461023f90600160a01b900460ff1681565b61025a60075481565b6102d861063c565b6040516101fb96959493929190612d05565b6004546102fd906001600160a01b031681565b6040516101fb9190612d86565b6102b1610318366004612d9a565b6108b8565b6103276212750081565b60405163ffffffff90911681526020016101fb565b6016546103279063ffffffff1681565b610354610a66565b6040805161ffff9384168152929091166020830152016101fb565b60185461023f90600160201b900460ff1681565b6102fd610391366004612e06565b610aa7565b6002546102fd906001600160a01b031681565b6103bc6103b7366004612d9a565b610acf565b6040516101fb929190612e1d565b6103d2610c35565b6040516101fb9190612e5b565b6102b16103ed366004612e06565b610c98565b6102b1610cff565b6008546102fd906001600160a01b031681565b6003546102fd906001600160a01b031681565b6005546102fd906001600160a01b031681565b61023f600881565b6102b1610449366004612e83565b610d12565b61025a600b5481565b6102fd610f01565b61021961271081565b6103d2610f0f565b60085461021990600160a81b900461ffff1681565b61025a610493366004612c77565b6001600160a01b03165f908152600c602052604090205490565b61025a601a5481565b61025a60065481565b61025a6104cd366004612c77565b6001600160a01b03165f9081526010602052604090205490565b6102b16104f5366004612e06565b610f6d565b6102b1610508366004612ec2565b610fe0565b6102b161051b366004612eee565b6110df565b6102b161052e366004612c77565b6111fc565b61053b61123f565b6001600160a01b0381166105625760405163d92e233d60e01b815260040160405180910390fd5b60035f9054906101000a90046001600160a01b03166001600160a01b031663edcf9c1f6040518163ffffffff1660e01b8152600401602060405180830381865afa1580156105b2573d5f5f3e3d5ffd5b505050506040513d601f19601f820116820180604052508101906105d69190612f09565b6105f3576040516312aecd8160e01b815260040160405180910390fd5b600280546001600160a01b0319166001600160a01b0383169081179091556040517f6cc7ebdb6c8c53291c5ae16148cab9b049d23bf5bde5632900b40edff56fcb43905f90a250565b606080808080805f6018546301000000900460ff16600481111561066257610662612c35565b14610680576040516312aecd8160e01b815260040160405180910390fd5b5f600c6008018054806020026020016040519081016040528092919081815260200182805480156106d857602002820191905f5260205f20905b81546001600160a01b031681526001909101906020018083116106ba575b505050505090505f5f6106ea83611271565b915091508161ffff166001600160401b0381111561070a5761070a612f28565b604051908082528060200260200182016040528015610733578160200160208202803683370190505b5098508161ffff166001600160401b0381111561075257610752612f28565b60405190808252806020026020018201604052801561077b578160200160208202803683370190505b5097508061ffff166001600160401b0381111561079a5761079a612f28565b6040519080825280602002602001820160405280156107c3578160200160208202803683370190505b5096508061ffff166001600160401b038111156107e2576107e2612f28565b60405190808252806020026020018201604052801561080b578160200160208202803683370190505b5095508161ffff166001600160401b0381111561082a5761082a612f28565b604051908082528060200260200182016040528015610853578160200160208202803683370190505b5094508061ffff166001600160401b0381111561087257610872612f28565b60405190808252806020026020018201604052801561089b578160200160208202803683370190505b5093506108ad838a8a888b8b8a611312565b505050909192939495565b6108c0610f01565b6001600160a01b0316336001600160a01b0316141580156108ec57506002546001600160a01b03163314155b1561090a5760405163ea8e4eb560e01b815260040160405180910390fd5b6109126115b6565b60035f9054906101000a90046001600160a01b03166001600160a01b031663edcf9c1f6040518163ffffffff1660e01b8152600401602060405180830381865afa158015610962573d5f5f3e3d5ffd5b505050506040513d601f19601f820116820180604052508101906109869190612f09565b8015610993575060175442115b156109a5576109a06115e0565b610a59565b60016018546301000000900460ff1660048111156109c5576109c5612c35565b036109d2576109a0611898565b60026018546301000000900460ff1660048111156109f2576109f2612c35565b036109ff576109a0611fbb565b60036018546301000000900460ff166004811115610a1f57610a1f612c35565b03610a2c576109a0612198565b60046018546301000000900460ff166004811115610a4c57610a4c612c35565b03610a5957610a59612665565b610a6260018055565b5050565b5f5f426009541115610a89575050600a5461ffff80821692620100009092041690565b505060085461ffff600160a81b8204811692600160b81b9092041690565b60198181548110610ab6575f80fd5b5f918252602090912001546001600160a01b0316905081565b5f606060035f9054906101000a90046001600160a01b03166001600160a01b031663edcf9c1f6040518163ffffffff1660e01b8152600401602060405180830381865afa158015610b22573d5f5f3e3d5ffd5b505050506040513d601f19601f82011682018060405250810190610b469190612f09565b8015610b53575060175442115b15610b615760019150610c1d565b60016018546301000000900460ff166004811115610b8157610b81612c35565b03610b8f5760019150610c1d565b60026018546301000000900460ff166004811115610baf57610baf612c35565b03610bbd5760019150610c1d565b60036018546301000000900460ff166004811115610bdd57610bdd612c35565b03610beb5760019150610c1d565b60046018546301000000900460ff166004811115610c0b57610c0b612c35565b03610c195760019150610c1d565b5f91505b60405180602001604052805f81525090509250929050565b6060600c600801805480602002602001604051908101604052809291908181526020018280548015610c8e57602002820191905f5260205f20905b81546001600160a01b03168152600190910190602001808311610c70575b5050505050905090565b6004546001600160a01b03163314610cc35760405163ea8e4eb560e01b815260040160405180910390fd5b600b54811115610ce657604051632ca2f52b60e11b815260040160405180910390fd5b80600b5f828254610cf79190612f50565b909155505050565b610d0761123f565b610d105f6127f3565b565b610d1a61123f565b60328261ffff161180610d3257506107d08161ffff16115b15610d50576040516317dbc4cb60e21b815260040160405180910390fd5b60035f9054906101000a90046001600160a01b03166001600160a01b031663edcf9c1f6040518163ffffffff1660e01b8152600401602060405180830381865afa158015610da0573d5f5f3e3d5ffd5b505050506040513d601f19601f82011682018060405250810190610dc49190612f09565b610de1576040516312aecd8160e01b815260040160405180910390fd5b5f5f610deb610a66565b600a805461ffff84811663ffffffff19909216919091176201000084831602179091556008805463ffffffff60a81b1916600160a81b8984160261ffff60b81b191617600160b81b9288169290920291909117905560035460408051630df1aa5760e31b815290519395509193506001600160a01b031691636f8d52b8916004808201926020929091908290030181865afa158015610e8c573d5f5f3e3d5ffd5b505050506040513d601f19601f82011682018060405250810190610eb09190612f63565b610eba9042612f7a565b6009556040805161ffff8087168252851660208201527f2bb6517fcd555b5390717b7fd212a2d9aa55d0214725c5d6d955103b4e6b2a2c910160405180910390a150505050565b5f546001600160a01b031690565b60606019805480602002602001604051908101604052809291908181526020018280548015610c8e57602002820191905f5260205f209081546001600160a01b03168152600190910190602001808311610c70575050505050905090565b6004546001600160a01b03163314610f985760405163ea8e4eb560e01b815260040160405180910390fd5b5f811315610fbc5780601a5f828254610fb19190612f7a565b90915550610fdd9050565b5f811215610fdd57610fcd81612f8d565b601a5f828254610cf79190612f50565b50565b610fe861123f565b8060ff165f0361100b576040516317dbc4cb60e21b815260040160405180910390fd5b600860ff82161115611030576040516317dbc4cb60e21b815260040160405180910390fd5b60035f9054906101000a90046001600160a01b03166001600160a01b031663edcf9c1f6040518163ffffffff1660e01b8152600401602060405180830381865afa158015611080573d5f5f3e3d5ffd5b505050506040513d601f19601f820116820180604052508101906110a49190612f09565b6110c1576040516312aecd8160e01b815260040160405180910390fd5b6018805460ff909216620100000262ff000019909216919091179055565b6110e761123f565b8063ffffffff165f0361110d576040516317dbc4cb60e21b815260040160405180910390fd5b6212750063ffffffff82161115611137576040516317dbc4cb60e21b815260040160405180910390fd5b60035f9054906101000a90046001600160a01b03166001600160a01b031663edcf9c1f6040518163ffffffff1660e01b8152600401602060405180830381865afa158015611187573d5f5f3e3d5ffd5b505050506040513d601f19601f820116820180604052508101906111ab9190612f09565b6111c8576040516312aecd8160e01b815260040160405180910390fd5b6016805463ffffffff191663ffffffff83169081179091556111f6906111ee9042612f7a565b601754612842565b60175550565b61120461123f565b6001600160a01b038116611236575f604051631e4fbdf760e01b815260040161122d9190612d86565b60405180910390fd5b610fdd816127f3565b33611248610f01565b6001600160a01b031614610d10573360405163118cdaa760e01b815260040161122d9190612d86565b80515f908190815b8161ffff168161ffff16101561130b575f858261ffff16815181106112a0576112a0612fa7565b6020908102919091018101516001600160a01b0381165f9081526012909252604090912054909150156112d9576112d685612fbb565b94505b6001600160a01b0381165f9081526013602052604090205415611302576112ff84612fbb565b93505b50600101611279565b5050915091565b86515f80805b8361ffff168161ffff1610156115a9575f8b8261ffff168151811061133f5761133f612fa7565b6020908102919091018101516001600160a01b0381165f90815260128352604080822054601390945290205490925081156114ad57828d8761ffff168151811061138b5761138b612fa7565b60200260200101906001600160a01b031690816001600160a01b031681525050818c8761ffff16815181106113c2576113c2612fa7565b6020908102919091018101919091526001600160a01b0384165f908152600c90915260408120546006546113f7918591612856565b600354604051633c2e3e7b60e11b815291925061147f9183916001600160a01b03169063785c7cf69061142e908990600401612d86565b602060405180830381865afa158015611449573d5f5f3e3d5ffd5b505050506040513d601f19601f8201168201806040525081019061146d9190612fdb565b600854600160a01b900460ff16612907565b8c8861ffff168151811061149557611495612fa7565b60209081029190910101526114a987612fbb565b9650505b801561159b57828a8661ffff16815181106114ca576114ca612fa7565b60200260200101906001600160a01b031690816001600160a01b03168152505080898661ffff168151811061150157611501612fa7565b6020908102919091018101919091526001600160a01b0384165f908152600c9091526040812054600654611536918491612856565b600354604051633c2e3e7b60e11b815291925061156d9183916001600160a01b03169063785c7cf69061142e908990600401612d86565b898761ffff168151811061158357611583612fa7565b602090810291909101015261159786612fbb565b9550505b505050806001019050611318565b5050505050505050505050565b6002600154036115d957604051633ee5aeb560e01b815260040160405180910390fd5b6002600155565b60175442111580611662575060035f9054906101000a90046001600160a01b03166001600160a01b031663edcf9c1f6040518163ffffffff1660e01b8152600401602060405180830381865afa15801561163c573d5f5f3e3d5ffd5b505050506040513d601f19601f820116820180604052508101906116609190612f09565b155b156116805760405163085de62560e01b815260040160405180910390fd5b6019545f906001600160401b0381111561169c5761169c612f28565b6040519080825280602002602001820160405280156116c5578160200160208202803683370190505b5090505f5b60195461ffff821610156117485760198161ffff16815481106116ef576116ef612fa7565b905f5260205f20015f9054906101000a90046001600160a01b0316828261ffff168151811061172057611720612fa7565b6001600160a01b039092166020928302919091019091015261174181612fbb565b90506116ca565b505f5b60145461ffff821610156117e0575f600c6008018261ffff168154811061177457611774612fa7565b5f9182526020808320909101546001600160a01b03168252600c81526040808320839055600d8252808320839055600f8252808320839055601282528083208390556013825280832083905560159091529020805460ff19169055506117d981612fbb565b905061174b565b506117ec60145f612c07565b5f5b81518161ffff16101561185b575f828261ffff168151811061181257611812612fa7565b6020908102919091018101516001600160a01b03165f908152600e82526040808220829055601083528082208290556011909252908120555061185481612fbb565b90506117ee565b50611864612971565b60195415610fdd5760165461187f9063ffffffff1642612f7a565b601755506018805463ff00000019166301000000179055565b6018545f906118b99060ff620100008204811691600160201b900416612ff6565b60185460ff91821692505f916118d6916201000090041683613019565b90506018600481819054906101000a900460ff166118f390613033565b91906101000a81548160ff021916908360ff1602179055506019805490508161ffff161180611927575060195461ffff8216145b1561194557506019546018805464ffff000000191663020000001790555b815b8161ffff168161ffff161015611fb6575f60198261ffff168154811061196f5761196f612fa7565b905f5260205f20015f9054906101000a90046001600160a01b031690505f5f826001600160a01b031663d3d034586040518163ffffffff1660e01b81526004015f60405180830381865afa1580156119c9573d5f5f3e3d5ffd5b505050506040513d5f823e601f3d908101601f191682016040526119f0919081019061310d565b90925090505f805b83518161ffff161015611c8b575f848261ffff1681518110611a1c57611a1c612fa7565b602002602001015190505f848361ffff1681518110611a3d57611a3d612fa7565b6020026020010151905080600c6001015f846001600160a01b03166001600160a01b031681526020019081526020015f205f828254611a7c9190612f7a565b90915550506001600160a01b0382165f9081526015602052604090205460ff16611c00576008546001600160a01b0390811690831603611b7857600854611b5b90611ad290600160a01b900460ff16600a6132ae565b600860149054906101000a900460ff1660035f9054906101000a90046001600160a01b03166001600160a01b031663567ba7136040518163ffffffff1660e01b8152600401602060405180830381865afa158015611b32573d5f5f3e3d5ffd5b505050506040513d601f19601f82011682018060405250810190611b569190612fdb565b612907565b6001600160a01b0383165f908152600c6020526040902055611c00565b6005546040516341976e0960e01b81526001600160a01b03909116906341976e0990611ba8908590600401612d86565b602060405180830381865afa158015611bc3573d5f5f3e3d5ffd5b505050506040513d601f19601f82011682018060405250810190611be79190612f63565b6001600160a01b0383165f908152600c60205260409020555b6001600160a01b0382165f908152600c6020526040812054600654909190611c5f90611c2f9084908690612856565b600354604051633c2e3e7b60e11b81526001600160a01b039091169063785c7cf69061142e908990600401612d86565b9050611c6b8187612f7a565b9550611c7684612b55565b5050505080611c8490612fbb565b90506119f8565b505f5f611c96610a66565b90925090505f611cad61ffff841685612710612856565b601654909150611cce90829063ffffffff908116906301e133809061285616565b905080600b5f828254611ce19190612f7a565b90915550611cf190508185612f50565b60405163728d42fb60e11b8152600481018290529094505f906001600160a01b0389169063e51a85f690602401602060405180830381865afa158015611d39573d5f5f3e3d5ffd5b505050506040513d601f19601f82011682018060405250810190611d5d9190612f63565b9050611d698186612f50565b6001600160a01b0389165f908152601060205260408120829055909550611d9761ffff851683612710612856565b905080600b5f828254611daa9190612f7a565b90915550611dba90508183612f50565b601854604051630df571f760e01b815261ffff9091166004820152602481018290529092506001600160a01b038a1690630df571f7906044015f604051808303815f87803b158015611e0a575f5ffd5b505af1158015611e1c573d5f5f3e3d5ffd5b505050505f896001600160a01b031663a68a52678b6001600160a01b0316630a605c6d6040518163ffffffff1660e01b8152600401602060405180830381865afa158015611e6c573d5f5f3e3d5ffd5b505050506040513d601f19601f82011682018060405250810190611e909190612f63565b895f6040518463ffffffff1660e01b8152600401611eb0939291906132bc565b602060405180830381865afa158015611ecb573d5f5f3e3d5ffd5b505050506040513d601f19601f82011682018060405250810190611eef9190612f63565b9050611efb8188612f50565b96505f8a6001600160a01b031663f64c6f326040518163ffffffff1660e01b8152600401602060405180830381865afa158015611f3a573d5f5f3e3d5ffd5b505050506040513d601f19601f82011682018060405250810190611f5e9190612f63565b6001600160a01b038c165f9081526011602052604090208990559050611f848189612f7a565b6001600160a01b03909b165f908152600e602052604090209a909a555050600190980197506119479650505050505050565b505050565b6018805463ff000000191663030000001790556019545f805b8261ffff168161ffff161015612038575f60198261ffff1681548110611ffc57611ffc612fa7565b5f9182526020808320909101546001600160a01b0316808352600e90915260409091205490915061202d9084612f7a565b925050600101611fd4565b50600480546040805163dab26e3b60e01b815290515f936120af936001600160a01b03169263dab26e3b92818301926020928290030181865afa158015612081573d5f5f3e3d5ffd5b505050506040513d601f19601f820116820180604052508101906120a59190612f63565b8390612710612856565b905080601a5411156120c057505050565b5f601a54826120cf9190612f50565b90505f805b8561ffff168161ffff16101561217a575f60198261ffff16815481106120fc576120fc612fa7565b5f9182526020808320909101546001600160a01b0316808352600e90915260408220549092509061212e86838a612856565b6001600160a01b0384165f908152600e602052604081208054929350839290919061215a908490612f50565b9091555061216a90508186612f7a565b94505050508060010190506120d4565b5080601a5f82825461218c9190612f7a565b90915550505050505050565b6018545f906121b99060ff620100008204811691600160201b900416612ff6565b60185460ff91821692505f916121d6916201000090041683613019565b90506018600481819054906101000a900460ff166121f390613033565b91906101000a81548160ff021916908360ff1602179055506019805490508161ffff161180612227575060195461ffff8216145b1561224557506019546018805464ffff000000191663040000001790555b815b8161ffff168161ffff161015611fb6575f60198261ffff168154811061226f5761226f612fa7565b905f5260205f20015f9054906101000a90046001600160a01b031690505f5f826001600160a01b031663b6eba6536040518163ffffffff1660e01b81526004015f60405180830381865afa1580156122c9573d5f5f3e3d5ffd5b505050506040513d5f823e601f3d908101601f191682016040526122f091908101906132e8565b6001600160a01b0385165f908152600e6020526040812054835193955091935090916001600160401b0381111561232957612329612f28565b60405190808252806020026020018201604052801561236d57816020015b604080518082019091525f80825260208201528152602001906001900390816123475790505b5090505f5b84518161ffff1610156125f9575f858261ffff168151811061239657612396612fa7565b602002602001015190505f858361ffff16815181106123b7576123b7612fa7565b6020908102919091018101516001600160a01b0384165f908152601590925260409091205490915060ff166124bd576008546001600160a01b03908116908316036124355760085461241890611ad290600160a01b900460ff16600a6132ae565b6001600160a01b0383165f908152600c60205260409020556124bd565b6005546040516341976e0960e01b81526001600160a01b03909116906341976e0990612465908590600401612d86565b602060405180830381865afa158015612480573d5f5f3e3d5ffd5b505050506040513d601f19601f820116820180604052508101906124a49190612f63565b6001600160a01b0383165f908152600c60205260409020555b6001600160a01b0382165f908152600c602052604081205460065460075491929161255f916125059185906124fe908c9063ffffffff808b16919061285616565b9190612856565b600854600354604051633c2e3e7b60e11b8152600160a01b90920460ff16916001600160a01b039091169063785c7cf690612544908a90600401612d86565b602060405180830381865afa158015611b32573d5f5f3e3d5ffd5b90506040518060400160405280856001600160a01b0316815260200182815250868661ffff168151811061259557612595612fa7565b602002602001018190525080600c6003015f866001600160a01b03166001600160a01b031681526020019081526020015f205f8282546125d59190612f7a565b909155506125e4905084612b55565b50505050806125f290612fbb565b9050612372565b50604051634c2dd25760e11b81526001600160a01b0386169063985ba4ae9061262890849086906004016133a1565b5f604051808303815f87803b15801561263f575f5ffd5b505af1158015612651573d5f5f3e3d5ffd5b505050505050505050806001019050612247565b5f600c6008018054806020026020016040519081016040528092919081815260200182805480156126bd57602002820191905f5260205f20905b81546001600160a01b0316815260019091019060200180831161269f575b505083519394505f925050505b8161ffff168161ffff161015612788575f838261ffff16815181106126f1576126f1612fa7565b6020908102919091018101516001600160a01b0381165f908152600d8352604080822054600f9094529020549092508082111561274f576127328183612f50565b6001600160a01b0384165f9081526012602052604090205561277a565b8181111561277a576127618282612f50565b6001600160a01b0384165f908152601360205260409020555b5050508060010190506126ca565b506018805463ff00000019811682555f906127a69061ffff16612fbb565b82546101009290920a61ffff8181021990931691831602179091556018546040519116907f0bc12479581640d161e016cef21aa834cb6d6326bbc0d8445e58d56403adf2dc905f90a25050565b5f80546001600160a01b038381166001600160a01b0319831681178455604051919092169283917f8be0079c531659141344cd1fd0a4f28419497f9722a3daafe3b4186f6b6457e09190a35050565b5f8282188284100282185b90505b92915050565b5f5f5f6128638686612bda565b91509150815f036128875783818161287d5761287d613402565b0492505050612900565b81841161289e5761289e6003851502601118612bf6565b5f848688095f868103871696879004966002600389028118808a02820302808a02820302808a02820302808a02820302808a02820302808a02909103029181900381900460010185841190960395909502919093039390930492909217029150505b9392505050565b5f8260ff168260ff16111561293c576129208383613416565b61292b90600a6132ae565b612935908561342f565b9050612900565b8260ff168260ff161015612969576129548284613416565b61295f90600a6132ae565b6129359085613446565b509192915050565b600354604051631da09e4360e31b81525f916001600160a01b03169063ed04f218906129a1908490600401613465565b5f60405180830381865afa1580156129bb573d5f5f3e3d5ffd5b505050506040513d5f823e601f3d908101601f191682016040526129e29190810190613479565b90506129ef60195f612c07565b5f5b81518161ffff161015610a62575f828261ffff1681518110612a1557612a15612fa7565b60200260200101519050806001600160a01b03166301e1d1146040518163ffffffff1660e01b8152600401602060405180830381865afa158015612a5b573d5f5f3e3d5ffd5b505050506040513d601f19601f82011682018060405250810190612a7f9190612f63565b816001600160a01b031663f64c6f326040518163ffffffff1660e01b8152600401602060405180830381865afa158015612abb573d5f5f3e3d5ffd5b505050506040513d601f19601f82011682018060405250810190612adf9190612f63565b612ae99190612f7a565b5f03612af55750612b45565b601980546001810182555f919091527f944998273e477b495144fb8794c914197f3ccb46be2900f4698fd0ef743c96950180546001600160a01b0319166001600160a01b03929092169190911790555b612b4e81612fbb565b90506129f1565b6001600160a01b0381165f9081526015602052604090205460ff16610fdd576014805460018181019092557fce6d7b5282bd9a3661ae061feed1dbda4e52ab073b1f9285be6e155d9c38d4ec0180546001600160a01b0384166001600160a01b031990911681179091555f908152601560205260409020805460ff1916909117905550565b5f805f1983850993909202808410938190039390930393915050565b634e487b715f52806020526024601cfd5b5080545f8255905f5260205f2090810190610fdd91905b80821115612c31575f8155600101612c1e565b5090565b634e487b7160e01b5f52602160045260245ffd5b6020810160058310612c5d57612c5d612c35565b91905290565b6001600160a01b0381168114610fdd575f5ffd5b5f60208284031215612c87575f5ffd5b813561290081612c63565b5f8151808452602084019350602083015f5b82811015612ccb5781516001600160a01b0316865260209586019590910190600101612ca4565b5093949350505050565b5f8151808452602084019350602083015f5b82811015612ccb578151865260209586019590910190600101612ce7565b60c081525f612d1760c0830189612c92565b8281036020840152612d298189612cd5565b90508281036040840152612d3d8188612c92565b90508281036060840152612d518187612cd5565b90508281036080840152612d658186612cd5565b905082810360a0840152612d798185612cd5565b9998505050505050505050565b6001600160a01b0391909116815260200190565b5f5f60208385031215612dab575f5ffd5b82356001600160401b03811115612dc0575f5ffd5b8301601f81018513612dd0575f5ffd5b80356001600160401b03811115612de5575f5ffd5b856020828401011115612df6575f5ffd5b6020919091019590945092505050565b5f60208284031215612e16575f5ffd5b5035919050565b8215158152604060208201525f82518060408401528060208501606085015e5f606082850101526060601f19601f8301168401019150509392505050565b602081525f61284d6020830184612c92565b803561ffff81168114612e7e575f5ffd5b919050565b5f5f60408385031215612e94575f5ffd5b612e9d83612e6d565b9150612eab60208401612e6d565b90509250929050565b60ff81168114610fdd575f5ffd5b5f60208284031215612ed2575f5ffd5b813561290081612eb4565b63ffffffff81168114610fdd575f5ffd5b5f60208284031215612efe575f5ffd5b813561290081612edd565b5f60208284031215612f19575f5ffd5b81518015158114612900575f5ffd5b634e487b7160e01b5f52604160045260245ffd5b634e487b7160e01b5f52601160045260245ffd5b8181038181111561285057612850612f3c565b5f60208284031215612f73575f5ffd5b5051919050565b8082018082111561285057612850612f3c565b5f600160ff1b8201612fa157612fa1612f3c565b505f0390565b634e487b7160e01b5f52603260045260245ffd5b5f61ffff821661ffff8103612fd257612fd2612f3c565b60010192915050565b5f60208284031215612feb575f5ffd5b815161290081612eb4565b60ff818116838216029081169081811461301257613012612f3c565b5092915050565b61ffff818116838216019081111561285057612850612f3c565b5f60ff821660ff8103612fd257612fd2612f3c565b604051601f8201601f191681016001600160401b038111828210171561307057613070612f28565b604052919050565b5f6001600160401b0382111561309057613090612f28565b5060051b60200190565b5f82601f8301126130a9575f5ffd5b81516130bc6130b782613078565b613048565b8082825260208201915060208360051b8601019250858311156130dd575f5ffd5b602085015b838110156131035780516130f581612c63565b8352602092830192016130e2565b5095945050505050565b5f5f6040838503121561311e575f5ffd5b82516001600160401b03811115613133575f5ffd5b61313f8582860161309a565b602085015190935090506001600160401b0381111561315c575f5ffd5b8301601f8101851361316c575f5ffd5b805161317a6130b782613078565b8082825260208201915060208360051b85010192508783111561319b575f5ffd5b6020840193505b828410156131bd5783518252602093840193909101906131a2565b809450505050509250929050565b6001815b6001841115613206578085048111156131ea576131ea612f3c565b60018416156131f857908102905b60019390931c9280026131cf565b935093915050565b5f8261321c57506001612850565b8161322857505f612850565b816001811461323e576002811461324857613264565b6001915050612850565b60ff84111561325957613259612f3c565b50506001821b612850565b5060208310610133831016604e8410600b8410161715613287575081810a612850565b6132935f1984846131cb565b805f19048211156132a6576132a6612f3c565b029392505050565b5f61284d60ff84168361320e565b8381526020810183905260608101600483106132da576132da612c35565b826040830152949350505050565b5f5f604083850312156132f9575f5ffd5b82516001600160401b0381111561330e575f5ffd5b61331a8582860161309a565b602085015190935090506001600160401b03811115613337575f5ffd5b8301601f81018513613347575f5ffd5b80516133556130b782613078565b8082825260208201915060208360051b850101925087831115613376575f5ffd5b6020840193505b828410156131bd57835161339081612edd565b82526020938401939091019061337d565b604080825283519082018190525f9060208501906060840190835b818110156133ef57835180516001600160a01b0316845260209081015181850152909301926040909201916001016133bc565b5050602093909301939093525092915050565b634e487b7160e01b5f52601260045260245ffd5b60ff828116828216039081111561285057612850612f3c565b808202811582820484141761285057612850612f3c565b5f8261346057634e487b7160e01b5f52601260045260245ffd5b500490565b6020810160028310612c5d57612c5d612c35565b5f60208284031215613489575f5ffd5b81516001600160401b0381111561349e575f5ffd5b6134aa8482850161309a565b94935050505056fea2646970667358221220fc6cb8fdd6b39e5f19a038ae2ecadf93bb9544e116098075927da20a7490c66664736f6c634300081c0033",
  "linkReferences": {},
  "deployedLinkReferences": {}
}