{
  "_format": "hh-sol-artifact-1",
  "contractName": "InternalStatesOrchestrator",
  "sourceName": "contracts/orchestrators/InternalStatesOrchestrator.sol",
  "abi": [
    {
      "inputs": [
        {
          "internalType": "address",
          "name": "initialOwner",
          "type": "address"
        },
        {
          "internalType": "address",
          "name": "config_",
          "type": "address"
        },
        {
          "internalType": "address",
          "name": "automationRegistry_",
          "type": "address"
        }
      ],
      "stateMutability": "nonpayable",
      "type": "constructor"
    },
    {
      "inputs": [],
      "name": "InvalidArguments",
      "type": "error"
    },
    {
      "inputs": [],
      "name": "NotAuthorized",
      "type": "error"
    },
    {
      "inputs": [
        {
          "internalType": "address",
          "name": "owner",
          "type": "address"
        }
      ],
      "name": "OwnableInvalidOwner",
      "type": "error"
    },
    {
      "inputs": [
        {
          "internalType": "address",
          "name": "account",
          "type": "address"
        }
      ],
      "name": "OwnableUnauthorizedAccount",
      "type": "error"
    },
    {
      "inputs": [],
      "name": "ReentrancyGuardReentrantCall",
      "type": "error"
    },
    {
      "inputs": [],
      "name": "SystemNotIdle",
      "type": "error"
    },
    {
      "inputs": [],
      "name": "TooEarly",
      "type": "error"
    },
    {
      "inputs": [],
      "name": "ZeroAddress",
      "type": "error"
    },
    {
      "anonymous": false,
      "inputs": [
        {
          "indexed": true,
          "internalType": "address",
          "name": "newAutomationRegistry",
          "type": "address"
        }
      ],
      "name": "AutomationRegistryUpdated",
      "type": "event"
    },
    {
      "anonymous": false,
      "inputs": [
        {
          "indexed": false,
          "internalType": "uint16",
          "name": "epochCounter",
          "type": "uint16"
        }
      ],
      "name": "InternalStateProcessed",
      "type": "event"
    },
    {
      "anonymous": false,
      "inputs": [
        {
          "indexed": true,
          "internalType": "address",
          "name": "previousOwner",
          "type": "address"
        },
        {
          "indexed": true,
          "internalType": "address",
          "name": "newOwner",
          "type": "address"
        }
      ],
      "name": "OwnershipTransferred",
      "type": "event"
    },
    {
      "inputs": [],
      "name": "automationRegistry",
      "outputs": [
        {
          "internalType": "address",
          "name": "",
          "type": "address"
        }
      ],
      "stateMutability": "view",
      "type": "function"
    },
    {
      "inputs": [
        {
          "internalType": "bytes",
          "name": "",
          "type": "bytes"
        }
      ],
      "name": "checkUpkeep",
      "outputs": [
        {
          "internalType": "bool",
          "name": "upkeepNeeded",
          "type": "bool"
        },
        {
          "internalType": "bytes",
          "name": "performData",
          "type": "bytes"
        }
      ],
      "stateMutability": "view",
      "type": "function"
    },
    {
      "inputs": [],
      "name": "config",
      "outputs": [
        {
          "internalType": "contract IOrionConfig",
          "name": "",
          "type": "address"
        }
      ],
      "stateMutability": "view",
      "type": "function"
    },
    {
      "inputs": [],
      "name": "currentMinibatchIndex",
      "outputs": [
        {
          "internalType": "uint8",
          "name": "",
          "type": "uint8"
        }
      ],
      "stateMutability": "view",
      "type": "function"
    },
    {
      "inputs": [],
      "name": "currentPhase",
      "outputs": [
        {
          "internalType": "enum IInternalStateOrchestrator.InternalUpkeepPhase",
          "name": "",
          "type": "uint8"
        }
      ],
      "stateMutability": "view",
      "type": "function"
    },
    {
      "inputs": [],
      "name": "encryptedMinibatchSize",
      "outputs": [
        {
          "internalType": "uint8",
          "name": "",
          "type": "uint8"
        }
      ],
      "stateMutability": "view",
      "type": "function"
    },
    {
      "inputs": [
        {
          "internalType": "uint256",
          "name": "",
          "type": "uint256"
        }
      ],
      "name": "encryptedVaultsEpoch",
      "outputs": [
        {
          "internalType": "address",
          "name": "",
          "type": "address"
        }
      ],
      "stateMutability": "view",
      "type": "function"
    },
    {
      "inputs": [],
      "name": "epochCounter",
      "outputs": [
        {
          "internalType": "uint16",
          "name": "",
          "type": "uint16"
        }
      ],
      "stateMutability": "view",
      "type": "function"
    },
    {
      "inputs": [],
      "name": "getBuyingOrders",
      "outputs": [
        {
          "internalType": "address[]",
          "name": "tokens",
          "type": "address[]"
        },
        {
          "internalType": "uint256[]",
          "name": "amounts",
          "type": "uint256[]"
        }
      ],
      "stateMutability": "view",
      "type": "function"
    },
    {
      "inputs": [],
      "name": "getSellingOrders",
      "outputs": [
        {
          "internalType": "address[]",
          "name": "tokens",
          "type": "address[]"
        },
        {
          "internalType": "uint256[]",
          "name": "amounts",
          "type": "uint256[]"
        }
      ],
      "stateMutability": "view",
      "type": "function"
    },
    {
      "inputs": [],
      "name": "intentFactor",
      "outputs": [
        {
          "internalType": "uint256",
          "name": "",
          "type": "uint256"
        }
      ],
      "stateMutability": "view",
      "type": "function"
    },
    {
      "inputs": [],
      "name": "owner",
      "outputs": [
        {
          "internalType": "address",
          "name": "",
          "type": "address"
        }
      ],
      "stateMutability": "view",
      "type": "function"
    },
    {
      "inputs": [
        {
          "internalType": "bytes",
          "name": "performData",
          "type": "bytes"
        }
      ],
      "name": "performUpkeep",
      "outputs": [],
      "stateMutability": "nonpayable",
      "type": "function"
    },
    {
      "inputs": [],
      "name": "priceAdapterPrecision",
      "outputs": [
        {
          "internalType": "uint256",
          "name": "",
          "type": "uint256"
        }
      ],
      "stateMutability": "view",
      "type": "function"
    },
    {
      "inputs": [],
      "name": "registry",
      "outputs": [
        {
          "internalType": "contract IPriceAdapterRegistry",
          "name": "",
          "type": "address"
        }
      ],
      "stateMutability": "view",
      "type": "function"
    },
    {
      "inputs": [],
      "name": "renounceOwnership",
      "outputs": [],
      "stateMutability": "nonpayable",
      "type": "function"
    },
    {
      "inputs": [
        {
          "internalType": "address",
          "name": "newOwner",
          "type": "address"
        }
      ],
      "name": "transferOwnership",
      "outputs": [],
      "stateMutability": "nonpayable",
      "type": "function"
    },
    {
      "inputs": [],
      "name": "transparentMinibatchSize",
      "outputs": [
        {
          "internalType": "uint8",
          "name": "",
          "type": "uint8"
        }
      ],
      "stateMutability": "view",
      "type": "function"
    },
    {
      "inputs": [
        {
          "internalType": "uint256",
          "name": "",
          "type": "uint256"
        }
      ],
      "name": "transparentVaultsEpoch",
      "outputs": [
        {
          "internalType": "address",
          "name": "",
          "type": "address"
        }
      ],
      "stateMutability": "view",
      "type": "function"
    },
    {
      "inputs": [],
      "name": "underlyingDecimals",
      "outputs": [
        {
          "internalType": "uint8",
          "name": "",
          "type": "uint8"
        }
      ],
      "stateMutability": "view",
      "type": "function"
    },
    {
      "inputs": [
        {
          "internalType": "address",
          "name": "newAutomationRegistry",
          "type": "address"
        }
      ],
      "name": "updateAutomationRegistry",
      "outputs": [],
      "stateMutability": "nonpayable",
      "type": "function"
    },
    {
      "inputs": [],
      "name": "updateFromConfig",
      "outputs": [],
      "stateMutability": "nonpayable",
      "type": "function"
    },
    {
      "inputs": [],
      "name": "updateInterval",
      "outputs": [
        {
          "internalType": "uint32",
          "name": "",
          "type": "uint32"
        }
      ],
      "stateMutability": "view",
      "type": "function"
    },
    {
      "inputs": [
        {
          "internalType": "uint8",
          "name": "_transparentMinibatchSize",
          "type": "uint8"
        },
        {
          "internalType": "uint8",
          "name": "_encryptedMinibatchSize",
          "type": "uint8"
        }
      ],
      "name": "updateMinibatchSizes",
      "outputs": [],
      "stateMutability": "nonpayable",
      "type": "function"
    },
    {
      "inputs": [
        {
          "internalType": "uint32",
          "name": "newUpdateInterval",
          "type": "uint32"
        }
      ],
      "name": "updateUpdateInterval",
      "outputs": [],
      "stateMutability": "nonpayable",
      "type": "function"
    }
  ],
  "bytecode": "0x608060405234801561000f575f5ffd5b506040516134c33803806134c383398101604081905261002e916105d2565b826100d26100cd604080516080810182525f808252602082018190529181018290526060810191909152506040805160808101825273687820221192c5b662b25367f70076a37bc79b6c815273848b0066793bcc60346da1f49049357399b8d5956020820152731364cbbf2cdf5032c47d8226a6f6fbd2afcdacac9181019190915273bc91f3dad1a5f19f8390c400196e58073b6a0bc4606082015290565b610438565b6100ef73a02cda4ca3a71d7c46997716f4283aa851c28812610517565b6001600160a01b03811661011c57604051631e4fbdf760e01b81525f600482015260240160405180910390fd5b61012581610554565b50600180556001600160a01b0382166101515760405163d92e233d60e01b815260040160405180910390fd5b6001600160a01b0381166101785760405163d92e233d60e01b815260040160405180910390fd5b600380546001600160a01b0319166001600160a01b0384169081179091556040805163015df99360e01b8152905163015df993916004808201926020929091908290030181865afa1580156101cf573d5f5f3e3d5ffd5b505050506040513d601f19601f820116820180604052508101906101f3919061061c565b600480546001600160a01b0319166001600160a01b039283161781556003546040805163d1717c7d60e01b81529051919093169263d1717c7d92818101926020929091908290030181865afa15801561024e573d5f5f3e3d5ffd5b505050506040513d601f19601f82011682018060405250810190610272919061063e565b61027d90600a610755565b60065560035460408051631c56369f60e21b815290516001600160a01b0390921691637158da7c916004808201926020929091908290030181865afa1580156102c8573d5f5f3e3d5ffd5b505050506040513d601f19601f820116820180604052508101906102ec919061061c565b6001600160a01b031663313ce5676040518163ffffffff1660e01b8152600401602060405180830381865afa158015610327573d5f5f3e3d5ffd5b505050506040513d601f19601f8201168201806040525081019061034b919061063e565b6007805460ff191660ff929092169190911790556003546040805163567ba71360e01b815290516001600160a01b039092169163567ba713916004808201926020929091908290030181865afa1580156103a7573d5f5f3e3d5ffd5b505050506040513d601f19601f820116820180604052508101906103cb919061063e565b6103d690600a610755565b60055560138054600280546001600160a01b0319166001600160a01b03851617905565ffffffffffff191665010100015180179055610414426105a3565b6012555050601380546011805461ffff1916905561ffff60301b1916905550610776565b80517fed8d60e34876f751cc8b014c560745351147d9de11b9347c854e881b128ea60080546001600160a01b03199081166001600160a01b039384161790915560208301517fed8d60e34876f751cc8b014c560745351147d9de11b9347c854e881b128ea6018054831691841691909117905560408301517fed8d60e34876f751cc8b014c560745351147d9de11b9347c854e881b128ea6028054831691841691909117905560608301517fed8d60e34876f751cc8b014c560745351147d9de11b9347c854e881b128ea6038054909216921691909117905550565b50565b7f5ea69329017273582817d320489fbd94f775580e90c092699ca6f3d12fdf7d0080546001600160a01b0319166001600160a01b03831617905550565b5f80546001600160a01b038381166001600160a01b0319831681178455604051919092169283917f8be0079c531659141344cd1fd0a4f28419497f9722a3daafe3b4186f6b6457e09190a35050565b6013545f906105b89063ffffffff1683610763565b92915050565b6001600160a01b0381168114610514575f5ffd5b5f5f5f606084860312156105e4575f5ffd5b83516105ef816105be565b6020850151909350610600816105be565b6040850151909250610611816105be565b809150509250925092565b5f6020828403121561062c575f5ffd5b8151610637816105be565b9392505050565b5f6020828403121561064e575f5ffd5b815160ff81168114610637575f5ffd5b634e487b7160e01b5f52601160045260245ffd5b6001815b60018411156106ad578085048111156106915761069161065e565b600184161561069f57908102905b60019390931c928002610676565b935093915050565b5f826106c3575060016105b8565b816106cf57505f6105b8565b81600181146106e557600281146106ef5761070b565b60019150506105b8565b60ff8411156107005761070061065e565b50506001821b6105b8565b5060208310610133831016604e8410600b841016171561072e575081810a6105b8565b61073a5f198484610672565b805f190482111561074d5761074d61065e565b029392505050565b5f61063760ff8416836106b5565b808201808211156105b8576105b861065e565b612d40806107835f395ff3fe608060405234801561000f575f5ffd5b5060043610610130575f3560e01c8062bb07bb14610134578063055ad42e1461014957806308af604d1461017357806314b19c5a1461019957806314b5d07f146101ba57806325a760c2146101cd578063288157e9146101da578063289a2f76146101e25780632b0088b41461020257806336021ef4146102195780634585e33b1461022d5780635488cd621461024057806358fac65b146102545780635dc228a0146102675780636e04ff0d1461027a578063715018a61461029b57806379502c55146102a35780637b103999146102b65780638da5cb5b146102c9578063a08b82d7146102d1578063bf6a5572146102e7578063c2cb5d88146102fa578063ca1f32f114610302578063f2fde38b1461030b578063fd2c80ae1461031e575b5f5ffd5b6101476101423660046124ea565b610343565b005b60135461015d90600160301b900460ff1681565b60405161016a9190612545565b60405180910390f35b60135461018790600160201b900460ff1681565b60405160ff909116815260200161016a565b6011546101a79061ffff1681565b60405161ffff909116815260200161016a565b6101476101c836600461256c565b61043f565b6007546101879060ff1681565b610147610548565b6101f56101f0366004612587565b61083d565b60405161016a919061259e565b61020b60065481565b60405190815260200161016a565b60135461018790600160281b900460ff1681565b61014761023b3660046125b2565b610865565b60135461018790600160381b900460ff1681565b6101f5610262366004612587565b610b61565b6002546101f5906001600160a01b031681565b61028d6102883660046125b2565b610b70565b60405161016a92919061261e565b610147610d8f565b6003546101f5906001600160a01b031681565b6004546101f5906001600160a01b031681565b6101f5610da2565b6102d9610db0565b60405161016a92919061265c565b6101476102f53660046126f6565b610fe8565b6102d96110c3565b61020b60055481565b61014761031936600461256c565b6112f2565b60135461032e9063ffffffff1681565b60405163ffffffff909116815260200161016a565b61034b611338565b60ff8216158061035c575060ff8116155b1561037a576040516317dbc4cb60e21b815260040160405180910390fd5b60035f9054906101000a90046001600160a01b03166001600160a01b031663edcf9c1f6040518163ffffffff1660e01b8152600401602060405180830381865afa1580156103ca573d5f5f3e3d5ffd5b505050506040513d601f19601f820116820180604052508101906103ee9190612711565b61040b576040516312aecd8160e01b815260040160405180910390fd5b6013805461ffff60201b1916600160201b60ff9485160260ff60281b191617600160281b9290931691909102919091179055565b610447611338565b6001600160a01b03811661046e5760405163d92e233d60e01b815260040160405180910390fd5b60035f9054906101000a90046001600160a01b03166001600160a01b031663edcf9c1f6040518163ffffffff1660e01b8152600401602060405180830381865afa1580156104be573d5f5f3e3d5ffd5b505050506040513d601f19601f820116820180604052508101906104e29190612711565b6104ff576040516312aecd8160e01b815260040160405180910390fd5b600280546001600160a01b0319166001600160a01b0383169081179091556040517f6cc7ebdb6c8c53291c5ae16148cab9b049d23bf5bde5632900b40edff56fcb43905f90a250565b610550611338565b60035f9054906101000a90046001600160a01b03166001600160a01b031663edcf9c1f6040518163ffffffff1660e01b8152600401602060405180830381865afa1580156105a0573d5f5f3e3d5ffd5b505050506040513d601f19601f820116820180604052508101906105c49190612711565b6105e1576040516312aecd8160e01b815260040160405180910390fd5b60035f9054906101000a90046001600160a01b03166001600160a01b031663015df9936040518163ffffffff1660e01b8152600401602060405180830381865afa158015610631573d5f5f3e3d5ffd5b505050506040513d601f19601f820116820180604052508101906106559190612730565b600480546001600160a01b0319166001600160a01b039283161781556003546040805163d1717c7d60e01b81529051919093169263d1717c7d92818101926020929091908290030181865afa1580156106b0573d5f5f3e3d5ffd5b505050506040513d601f19601f820116820180604052508101906106d4919061274b565b6106df90600a61285d565b60065560035460408051631c56369f60e21b815290516001600160a01b0390921691637158da7c916004808201926020929091908290030181865afa15801561072a573d5f5f3e3d5ffd5b505050506040513d601f19601f8201168201806040525081019061074e9190612730565b6001600160a01b031663313ce5676040518163ffffffff1660e01b8152600401602060405180830381865afa158015610789573d5f5f3e3d5ffd5b505050506040513d601f19601f820116820180604052508101906107ad919061274b565b6007805460ff191660ff929092169190911790556003546040805163567ba71360e01b815290516001600160a01b039092169163567ba713916004808201926020929091908290030181865afa158015610809573d5f5f3e3d5ffd5b505050506040513d601f19601f8201168201806040525081019061082d919061274b565b61083890600a61285d565b600555565b6015818154811061084c575f80fd5b5f918252602090912001546001600160a01b0316905081565b6002546001600160a01b031633146108905760405163ea8e4eb560e01b815260040160405180910390fd5b61089861136a565b60048110156108ba576040516317dbc4cb60e21b815260040160405180910390fd5b5f6108c8600482848661286b565b6108d191612892565b90506341659aab60e01b6001600160e01b0319821601610a20576108f3611394565b6108fb6113c5565b600354604051631da09e4360e31b81526001600160a01b039091169063ed04f2189061092b905f906004016128ca565b5f60405180830381865afa158015610945573d5f5f3e3d5ffd5b505050506040513d5f823e601f3d908101601f1916820160405261096c91908101906129b7565b80516109809160149160209091019061244e565b50600354604051631da09e4360e31b81526001600160a01b039091169063ed04f218906109b2906001906004016128ca565b5f60405180830381865afa1580156109cc573d5f5f3e3d5ffd5b505050506040513d5f823e601f3d908101601f191682016040526109f391908101906129b7565b8051610a079160159160209091019061244e565b506013805460ff60301b1916600160301b179055610b53565b63019918a560e51b6001600160e01b0319821601610a64575f610a46836004818761286b565b810190610a5391906129e8565b9050610a5e816114e9565b50610b53565b6314897e2360e11b6001600160e01b0319821601610aa2575f610a8a836004818761286b565b810190610a9791906129e8565b9050610a5e81611b83565b6350c9887560e01b6001600160e01b0319821601610b3a57610ac2611f82565b6013805460ff60301b191690556011805461ffff16905f610ae283612a03565b82546101009290920a61ffff818102199093169183160217909155601154604051911681527f0bc12479581640d161e016cef21aa834cb6d6326bbc0d8445e58d56403adf2dc915060200160405180910390a1610b53565b6040516317dbc4cb60e21b815260040160405180910390fd5b50610b5d60018055565b5050565b6014818154811061084c575f80fd5b5f606060035f9054906101000a90046001600160a01b03166001600160a01b031663edcf9c1f6040518163ffffffff1660e01b8152600401602060405180830381865afa158015610bc3573d5f5f3e3d5ffd5b505050506040513d601f19601f82011682018060405250810190610be79190612711565b8015610bf557506012544210155b15610c4557600191507fbe9a655586dceb82dfa0af992b5d8ae7fa45053cb7fd6f141f541da7572978c7604051602001610c2f9190612a23565b6040516020818303038152906040529050610d88565b6001601354600160301b900460ff166003811115610c6557610c65612521565b03610cb057600191507fccdceb60d34ec82e2b625c80d044e07bc5264e5a5f17ab57ea62c77ee8c3d797601360079054906101000a900460ff16604051602001610c2f929190612a38565b6002601354600160301b900460ff166003811115610cd057610cd0612521565b03610d1b57600191507fd6ed03ba70bef77e7dcdbaa2d7d9bcd9a4dd463c2c6bcd5b016869e952bdaddb601360079054906101000a900460ff16604051602001610c2f929190612a38565b6003601354600160301b900460ff166003811115610d3b57610d3b612521565b03610d7557600191507faf36778b2d01c6b9ccbf0ff82e33823de0a4811632929c60c03041666deffc9b604051602001610c2f9190612a23565b505060408051602081019091525f808252905b9250929050565b610d97611338565b610da05f6120e6565b565b5f546001600160a01b031690565b600d80546040805160208084028201810190925282815260609384935f93830182828015610e0557602002820191905f5260205f20905b81546001600160a01b03168152600190910190602001808311610de7575b505083519394505f9250829150505b8261ffff168161ffff161015610e85575f60086004015f868461ffff1681518110610e4157610e41612a5f565b60200260200101516001600160a01b03166001600160a01b031681526020019081526020015f20541115610e7d5781610e7981612a03565b9250505b600101610e14565b508061ffff166001600160401b03811115610ea257610ea26128de565b604051908082528060200260200182016040528015610ecb578160200160208202803683370190505b5094508061ffff166001600160401b03811115610eea57610eea6128de565b604051908082528060200260200182016040528015610f13578160200160208202803683370190505b5093505f805b8361ffff168161ffff161015610fdf575f858261ffff1681518110610f4057610f40612a5f565b6020908102919091018101516001600160a01b0381165f908152600c9092526040909120549091508015610fd55781898561ffff1681518110610f8557610f85612a5f565b60200260200101906001600160a01b031690816001600160a01b03168152505080888561ffff1681518110610fbc57610fbc612a5f565b602090810291909101015283610fd181612a03565b9450505b5050600101610f19565b50505050509091565b610ff0611338565b8063ffffffff165f03611016576040516317dbc4cb60e21b815260040160405180910390fd5b60035f9054906101000a90046001600160a01b03166001600160a01b031663edcf9c1f6040518163ffffffff1660e01b8152600401602060405180830381865afa158015611066573d5f5f3e3d5ffd5b505050506040513d601f19601f8201168201806040525081019061108a9190612711565b6110a7576040516312aecd8160e01b815260040160405180910390fd5b6013805463ffffffff191663ffffffff92909216919091179055565b600d80546040805160208084028201810190925282815260609384935f9383018282801561111857602002820191905f5260205f20905b81546001600160a01b031681526001909101906020018083116110fa575b505083519394505f9250829150505b8261ffff168161ffff161015611198575f60086003015f868461ffff168151811061115457611154612a5f565b60200260200101516001600160a01b03166001600160a01b031681526020019081526020015f20541115611190578161118c81612a03565b9250505b600101611127565b508061ffff166001600160401b038111156111b5576111b56128de565b6040519080825280602002602001820160405280156111de578160200160208202803683370190505b5094508061ffff166001600160401b038111156111fd576111fd6128de565b604051908082528060200260200182016040528015611226578160200160208202803683370190505b5093505f805b8361ffff168161ffff161015610fdf575f858261ffff168151811061125357611253612a5f565b6020908102919091018101516001600160a01b0381165f908152600b90925260409091205490915080156112e85781898561ffff168151811061129857611298612a5f565b60200260200101906001600160a01b031690816001600160a01b03168152505080888561ffff16815181106112cf576112cf612a5f565b6020908102919091010152836112e481612a03565b9450505b505060010161122c565b6112fa611338565b6001600160a01b03811661132c575f604051631e4fbdf760e01b8152600401611323919061259e565b60405180910390fd5b611335816120e6565b50565b33611341610da2565b6001600160a01b031614610da0573360405163118cdaa760e01b8152600401611323919061259e565b60026001540361138d57604051633ee5aeb560e01b815260040160405180910390fd5b6002600155565b6012544210156113b75760405163085de62560e01b815260040160405180910390fd5b6113c042612135565b601255565b5f600860050180548060200260200160405190810160405280929190818152602001828054801561141d57602002820191905f5260205f20905b81546001600160a01b031681526001909101906020018083116113ff575b505083519394505f925050505b8161ffff168161ffff1610156114c7575f838261ffff168151811061145157611451612a5f565b6020908102919091018101516001600160a01b03165f90815260088252604080822082905560098352808220829055600a8352808220829055600b8352808220829055600c8352808220829055600e8352808220805460ff19908116909155600f9093529020805490911690555060010161142a565b506114d3600d5f6124b1565b6114de60145f6124b1565b610b5d60155f6124b1565b60138054600160381b900460ff1690600761150383612a73565b91906101000a81548160ff021916908360ff160217905550505f601360049054906101000a900460ff16826115389190612a88565b60135460ff91821692505f9161155691600160201b90041683612aa4565b60145490915061ffff8216111561158057506014546013805461ffff60301b1916600160311b1790555b815b8161ffff168161ffff161015611b7d575f60148261ffff16815481106115aa576115aa612a5f565b905f5260205f20015f9054906101000a90046001600160a01b031690505f5f826001600160a01b031663d3d034586040518163ffffffff1660e01b81526004015f60405180830381865afa158015611604573d5f5f3e3d5ffd5b505050506040513d5f823e601f3d908101601f1916820160405261162b9190810190612abe565b90925090505f805b83518161ffff1610156118f8575f848261ffff168151811061165757611657612a5f565b6020908102919091018101516001600160a01b0381165f908152600f909252604082205490925060ff16900361171157806001600160a01b031663313ce5676040518163ffffffff1660e01b8152600401602060405180830381865afa1580156116c3573d5f5f3e3d5ffd5b505050506040513d601f19601f820116820180604052508101906116e7919061274b565b6001600160a01b0382165f908152600f60205260409020805460ff191660ff929092169190911790555b6001600160a01b0381165f908152600f6020908152604080832054600890925282205460ff909116918190036118715760035f9054906101000a90046001600160a01b03166001600160a01b0316637158da7c6040518163ffffffff1660e01b8152600401602060405180830381865afa158015611791573d5f5f3e3d5ffd5b505050506040513d601f19601f820116820180604052508101906117b59190612730565b6001600160a01b0316836001600160a01b0316036117e5576007546117de9060ff16600a61285d565b9050611856565b600480546040516341976e0960e01b81526001600160a01b03909116916341976e09916118149187910161259e565b602060405180830381865afa15801561182f573d5f5f3e3d5ffd5b505050506040513d601f19601f820116820180604052508101906118539190612b7c565b90505b6001600160a01b0383165f9081526008602052604090208190555b5f61189a82888761ffff168151811061188c5761188c612a5f565b602002602001015185612150565b90506118a68187612b93565b6001600160a01b0385165f908152600960205260408120805492985083929091906118d2908490612b93565b909155506118e190508461218e565b5050505080806118f090612a03565b915050611633565b505f846001600160a01b031663a68a5267866001600160a01b031663c37fc8a86040518163ffffffff1660e01b8152600401602060405180830381865afa158015611945573d5f5f3e3d5ffd5b505050506040513d601f19601f820116820180604052508101906119699190612b7c565b845f6040518463ffffffff1660e01b815260040161198993929190612ba6565b602060405180830381865afa1580156119a4573d5f5f3e3d5ffd5b505050506040513d601f19601f820116820180604052508101906119c89190612b7c565b90505f81866001600160a01b031663d1699c266040518163ffffffff1660e01b8152600401602060405180830381865afa158015611a08573d5f5f3e3d5ffd5b505050506040513d601f19601f82011682018060405250810190611a2c9190612b7c565b611a369085612b93565b611a409190612bcb565b90505f5f876001600160a01b031663b6eba6536040518163ffffffff1660e01b81526004015f60405180830381865afa158015611a7f573d5f5f3e3d5ffd5b505050506040513d5f823e601f3d908101601f19168201604052611aa69190810190612bde565b815191935091505f5b8161ffff168161ffff161015611b67575f848261ffff1681518110611ad657611ad6612a5f565b602002602001015190505f848361ffff1681518110611af757611af7612a5f565b602002602001015190505f6006548263ffffffff1689611b179190612c97565b611b219190612cae565b6001600160a01b0384165f908152600a6020526040812080549293508392909190611b4d908490612b93565b90915550611b5c90508361218e565b505050600101611aaf565b5050600190980197506115829650505050505050565b50505050565b611b8b61136a565b60138054600160381b900460ff16906007611ba583612a73565b91906101000a81548160ff021916908360ff160217905550505f601360059054906101000a900460ff1682611bda9190612a88565b60135460ff91821692505f91611bf891600160281b90041683612aa4565b60155490915061ffff82161115611c2257506015546013805461ffff60301b1916600360301b1790555b815b8161ffff168161ffff161015611f76575f60158261ffff1681548110611c4c57611c4c612a5f565b905f5260205f20015f9054906101000a90046001600160a01b031690505f5f826001600160a01b031663d3d034586040518163ffffffff1660e01b81526004015f60405180830381865afa158015611ca6573d5f5f3e3d5ffd5b505050506040513d5f823e601f3d908101601f19168201604052611ccd9190810190612abe565b915091505f611cdb5f612213565b90505f5b83518161ffff161015611f65575f848261ffff1681518110611d0357611d03612a5f565b6020908102919091018101516001600160a01b0381165f908152600f909252604082205490925060ff169003611dbd57806001600160a01b031663313ce5676040518163ffffffff1660e01b8152600401602060405180830381865afa158015611d6f573d5f5f3e3d5ffd5b505050506040513d601f19601f82011682018060405250810190611d93919061274b565b6001600160a01b0382165f908152600f60205260409020805460ff191660ff929092169190911790555b6001600160a01b0381165f908152600f6020908152604080832054600890925282205460ff90911691819003611f1d5760035f9054906101000a90046001600160a01b03166001600160a01b0316637158da7c6040518163ffffffff1660e01b8152600401602060405180830381865afa158015611e3d573d5f5f3e3d5ffd5b505050506040513d601f19601f82011682018060405250810190611e619190612730565b6001600160a01b0316836001600160a01b031603611e9157600754611e8a9060ff16600a61285d565b9050611f02565b600480546040516341976e0960e01b81526001600160a01b03909116916341976e0991611ec09187910161259e565b602060405180830381865afa158015611edb573d5f5f3e3d5ffd5b505050506040513d601f19601f82011682018060405250810190611eff9190612b7c565b90505b6001600160a01b0383165f9081526008602052604090208190555b5f611f4082888761ffff1681518110611f3857611f38612a5f565b505f92915050565b9050611f4c8682612225565b9550505050508080611f5d90612a03565b915050611cdf565b505060019093019250611c24915050565b50505061133560018055565b5f6008600501805480602002602001604051908101604052809291908181526020018280548015611fda57602002820191905f5260205f20905b81546001600160a01b03168152600190910190602001808311611fbc575b505083519394505f925050505b8161ffff168161ffff1610156120e1575f838261ffff168151811061200e5761200e612a5f565b6020908102919091018101516001600160a01b0381165f90815260098352604080822054600a855281832054600f909552912054919350919060ff16818311156120a4575f61205d8385612bcb565b6001600160a01b0386165f908152600860205260408120549192509061208490838561225a565b6001600160a01b0387165f908152600b6020526040902055506120d19050565b828211156120d1575f6120b78484612bcb565b6001600160a01b0386165f908152600c6020526040902055505b505060019092019150611fe79050565b505050565b5f80546001600160a01b038381166001600160a01b0319831681178455604051919092169283917f8be0079c531659141344cd1fd0a4f28419497f9722a3daafe3b4186f6b6457e09190a35050565b6013545f9061214a9063ffffffff1683612b93565b92915050565b5f8061215c8486612c97565b6007549091505f90612174908390869060ff16612294565b9050600554816121849190612cae565b9695505050505050565b6001600160a01b0381165f908152600e602052604090205460ff1661133557600d805460018181019092557fd7b6990105719101dabeb77144f2a3385c8033acd3af97e9423a695e81ad1eb50180546001600160a01b0384166001600160a01b031990911681179091555f908152600e60205260409020805460ff1916909117905550565b5f61214a8263ffffffff1660046122fe565b5f82612237576122345f612213565b92505b81612248576122455f612213565b91505b61225383835f612385565b9392505050565b6007545f90819061227090859060ff1685612294565b905084600554826122819190612c97565b61228b9190612cae565b95945050505050565b5f8260ff168260ff1611156122c9576122ad8383612ccd565b6122b890600a61285d565b6122c29085612c97565b9050612253565b8260ff168260ff1610156122f6576122e18284612ccd565b6122ec90600a61285d565b6122c29085612cae565b509192915050565b5f5f61230861242a565b6001810154604051639cd07acb60e01b81529192506001600160a01b031690639cd07acb9061233d9087908790600401612ce6565b6020604051808303815f875af1158015612359573d5f5f3e3d5ffd5b505050506040513d601f19601f8201168201806040525081019061237d9190612b7c565b949350505050565b5f5f82156123985750600160f81b61239b565b505f5b5f6123a461242a565b600181015460405163022f65e760e31b815260048101899052602481018890526001600160f81b0319851660448201529192506001600160a01b03169063117b2f38906064016020604051808303815f875af1158015612406573d5f5f3e3d5ffd5b505050506040513d601f19601f820116820180604052508101906121849190612b7c565b7fed8d60e34876f751cc8b014c560745351147d9de11b9347c854e881b128ea60090565b828054828255905f5260205f209081019282156124a1579160200282015b828111156124a157825182546001600160a01b0319166001600160a01b0390911617825560209092019160019091019061246c565b506124ad9291506124c8565b5090565b5080545f8255905f5260205f209081019061133591905b5b808211156124ad575f81556001016124c9565b60ff81168114611335575f5ffd5b5f5f604083850312156124fb575f5ffd5b8235612506816124dc565b91506020830135612516816124dc565b809150509250929050565b634e487b7160e01b5f52602160045260245ffd5b6004811061133557611335612521565b6020810161255283612535565b91905290565b6001600160a01b0381168114611335575f5ffd5b5f6020828403121561257c575f5ffd5b813561225381612558565b5f60208284031215612597575f5ffd5b5035919050565b6001600160a01b0391909116815260200190565b5f5f602083850312156125c3575f5ffd5b82356001600160401b038111156125d8575f5ffd5b8301601f810185136125e8575f5ffd5b80356001600160401b038111156125fd575f5ffd5b85602082840101111561260e575f5ffd5b6020919091019590945092505050565b8215158152604060208201525f82518060408401528060208501606085015e5f606082850101526060601f19601f8301168401019150509392505050565b604080825283519082018190525f9060208501906060840190835b8181101561269e5783516001600160a01b0316835260209384019390920191600101612677565b5050838103602080860191909152855180835291810192508501905f5b818110156126d95782518452602093840193909201916001016126bb565b50919695505050505050565b63ffffffff81168114611335575f5ffd5b5f60208284031215612706575f5ffd5b8135612253816126e5565b5f60208284031215612721575f5ffd5b81518015158114612253575f5ffd5b5f60208284031215612740575f5ffd5b815161225381612558565b5f6020828403121561275b575f5ffd5b8151612253816124dc565b634e487b7160e01b5f52601160045260245ffd5b6001815b60018411156127b55780850481111561279957612799612766565b60018416156127a757908102905b60019390931c92800261277e565b935093915050565b5f826127cb5750600161214a565b816127d757505f61214a565b81600181146127ed57600281146127f757612813565b600191505061214a565b60ff84111561280857612808612766565b50506001821b61214a565b5060208310610133831016604e8410600b8410161715612836575081810a61214a565b6128425f19848461277a565b805f190482111561285557612855612766565b029392505050565b5f61225360ff8416836127bd565b5f5f85851115612879575f5ffd5b83861115612885575f5ffd5b5050820193919092039150565b80356001600160e01b031981169060048410156128c3576001600160e01b0319600485900360031b81901b82161691505b5092915050565b602081016002831061255257612552612521565b634e487b7160e01b5f52604160045260245ffd5b604051601f8201601f191681016001600160401b038111828210171561291a5761291a6128de565b604052919050565b5f6001600160401b0382111561293a5761293a6128de565b5060051b60200190565b5f82601f830112612953575f5ffd5b815161296661296182612922565b6128f2565b8082825260208201915060208360051b860101925085831115612987575f5ffd5b602085015b838110156129ad57805161299f81612558565b83526020928301920161298c565b5095945050505050565b5f602082840312156129c7575f5ffd5b81516001600160401b038111156129dc575f5ffd5b61237d84828501612944565b5f602082840312156129f8575f5ffd5b8135612253816124dc565b5f61ffff821661ffff8103612a1a57612a1a612766565b60010192915050565b6001600160e01b031991909116815260040190565b6001600160e01b031992909216825260f81b6001600160f81b031916600482015260050190565b634e487b7160e01b5f52603260045260245ffd5b5f60ff821660ff8103612a1a57612a1a612766565b60ff81811683821602908116908181146128c3576128c3612766565b61ffff818116838216019081111561214a5761214a612766565b5f5f60408385031215612acf575f5ffd5b82516001600160401b03811115612ae4575f5ffd5b612af085828601612944565b602085015190935090506001600160401b03811115612b0d575f5ffd5b8301601f81018513612b1d575f5ffd5b8051612b2b61296182612922565b8082825260208201915060208360051b850101925087831115612b4c575f5ffd5b6020840193505b82841015612b6e578351825260209384019390910190612b53565b809450505050509250929050565b5f60208284031215612b8c575f5ffd5b5051919050565b8082018082111561214a5761214a612766565b8381526020810183905260608101612bbd83612535565b826040830152949350505050565b8181038181111561214a5761214a612766565b5f5f60408385031215612bef575f5ffd5b82516001600160401b03811115612c04575f5ffd5b612c1085828601612944565b602085015190935090506001600160401b03811115612c2d575f5ffd5b8301601f81018513612c3d575f5ffd5b8051612c4b61296182612922565b8082825260208201915060208360051b850101925087831115612c6c575f5ffd5b6020840193505b82841015612b6e578351612c86816126e5565b825260209384019390910190612c73565b808202811582820484141761214a5761214a612766565b5f82612cc857634e487b7160e01b5f52601260045260245ffd5b500490565b60ff828116828216039081111561214a5761214a612766565b8281526040810160548310612cfd57612cfd612521565b826020830152939250505056fea2646970667358221220e487b198a3a3b01bdc718252952490ce8ad143d4c9a65e7964afa688e216a58964736f6c634300081c0033",
  "linkReferences": {},
  "deployedLinkReferences": {}
}