{
  "_format": "hh-sol-artifact-1",
  "contractName": "InternalStatesOrchestrator",
  "sourceName": "contracts/orchestrators/InternalStatesOrchestrator.sol",
  "abi": [
    {
      "inputs": [
        {
          "internalType": "address",
          "name": "initialOwner",
          "type": "address"
        },
        {
          "internalType": "address",
          "name": "config_",
          "type": "address"
        },
        {
          "internalType": "address",
          "name": "automationRegistry_",
          "type": "address"
        }
      ],
      "stateMutability": "nonpayable",
      "type": "constructor"
    },
    {
      "inputs": [
        {
          "internalType": "address",
          "name": "sender",
          "type": "address"
        },
        {
          "internalType": "uint256",
          "name": "balance",
          "type": "uint256"
        },
        {
          "internalType": "uint256",
          "name": "amount",
          "type": "uint256"
        }
      ],
      "name": "InsufficientFunds",
      "type": "error"
    },
    {
      "inputs": [],
      "name": "InvalidArguments",
      "type": "error"
    },
    {
      "inputs": [],
      "name": "NotAuthorized",
      "type": "error"
    },
    {
      "inputs": [
        {
          "internalType": "address",
          "name": "owner",
          "type": "address"
        }
      ],
      "name": "OwnableInvalidOwner",
      "type": "error"
    },
    {
      "inputs": [
        {
          "internalType": "address",
          "name": "account",
          "type": "address"
        }
      ],
      "name": "OwnableUnauthorizedAccount",
      "type": "error"
    },
    {
      "inputs": [],
      "name": "ReentrancyGuardReentrantCall",
      "type": "error"
    },
    {
      "inputs": [],
      "name": "SystemNotIdle",
      "type": "error"
    },
    {
      "inputs": [],
      "name": "TooEarly",
      "type": "error"
    },
    {
      "inputs": [],
      "name": "ZeroAddress",
      "type": "error"
    },
    {
      "anonymous": false,
      "inputs": [
        {
          "indexed": true,
          "internalType": "address",
          "name": "newAutomationRegistry",
          "type": "address"
        }
      ],
      "name": "AutomationRegistryUpdated",
      "type": "event"
    },
    {
      "anonymous": false,
      "inputs": [
        {
          "indexed": false,
          "internalType": "uint16",
          "name": "epochCounter",
          "type": "uint16"
        }
      ],
      "name": "InternalStateProcessed",
      "type": "event"
    },
    {
      "anonymous": false,
      "inputs": [
        {
          "indexed": true,
          "internalType": "address",
          "name": "previousOwner",
          "type": "address"
        },
        {
          "indexed": true,
          "internalType": "address",
          "name": "newOwner",
          "type": "address"
        }
      ],
      "name": "OwnershipTransferred",
      "type": "event"
    },
    {
      "inputs": [],
      "name": "MAX_REVENUE_SHARE_FEE",
      "outputs": [
        {
          "internalType": "uint16",
          "name": "",
          "type": "uint16"
        }
      ],
      "stateMutability": "view",
      "type": "function"
    },
    {
      "inputs": [],
      "name": "MAX_VOLUME_FEE",
      "outputs": [
        {
          "internalType": "uint16",
          "name": "",
          "type": "uint16"
        }
      ],
      "stateMutability": "view",
      "type": "function"
    },
    {
      "inputs": [],
      "name": "PROTOCOL_FEE_FACTOR",
      "outputs": [
        {
          "internalType": "uint16",
          "name": "",
          "type": "uint16"
        }
      ],
      "stateMutability": "view",
      "type": "function"
    },
    {
      "inputs": [],
      "name": "YEAR_IN_SECONDS",
      "outputs": [
        {
          "internalType": "uint32",
          "name": "",
          "type": "uint32"
        }
      ],
      "stateMutability": "view",
      "type": "function"
    },
    {
      "inputs": [],
      "name": "automationRegistry",
      "outputs": [
        {
          "internalType": "address",
          "name": "",
          "type": "address"
        }
      ],
      "stateMutability": "view",
      "type": "function"
    },
    {
      "inputs": [],
      "name": "bufferLiquidity",
      "outputs": [
        {
          "internalType": "uint256",
          "name": "",
          "type": "uint256"
        }
      ],
      "stateMutability": "view",
      "type": "function"
    },
    {
      "inputs": [
        {
          "internalType": "bytes",
          "name": "",
          "type": "bytes"
        }
      ],
      "name": "checkUpkeep",
      "outputs": [
        {
          "internalType": "bool",
          "name": "upkeepNeeded",
          "type": "bool"
        },
        {
          "internalType": "bytes",
          "name": "performData",
          "type": "bytes"
        }
      ],
      "stateMutability": "view",
      "type": "function"
    },
    {
      "inputs": [],
      "name": "config",
      "outputs": [
        {
          "internalType": "contract IOrionConfig",
          "name": "",
          "type": "address"
        }
      ],
      "stateMutability": "view",
      "type": "function"
    },
    {
      "inputs": [],
      "name": "currentMinibatchIndex",
      "outputs": [
        {
          "internalType": "uint8",
          "name": "",
          "type": "uint8"
        }
      ],
      "stateMutability": "view",
      "type": "function"
    },
    {
      "inputs": [],
      "name": "currentPhase",
      "outputs": [
        {
          "internalType": "enum IInternalStateOrchestrator.InternalUpkeepPhase",
          "name": "",
          "type": "uint8"
        }
      ],
      "stateMutability": "view",
      "type": "function"
    },
    {
      "inputs": [],
      "name": "encryptedMinibatchSize",
      "outputs": [
        {
          "internalType": "uint8",
          "name": "",
          "type": "uint8"
        }
      ],
      "stateMutability": "view",
      "type": "function"
    },
    {
      "inputs": [
        {
          "internalType": "uint256",
          "name": "",
          "type": "uint256"
        }
      ],
      "name": "encryptedVaultsEpoch",
      "outputs": [
        {
          "internalType": "address",
          "name": "",
          "type": "address"
        }
      ],
      "stateMutability": "view",
      "type": "function"
    },
    {
      "inputs": [],
      "name": "epochCounter",
      "outputs": [
        {
          "internalType": "uint16",
          "name": "",
          "type": "uint16"
        }
      ],
      "stateMutability": "view",
      "type": "function"
    },
    {
      "inputs": [],
      "name": "epochDuration",
      "outputs": [
        {
          "internalType": "uint32",
          "name": "",
          "type": "uint32"
        }
      ],
      "stateMutability": "view",
      "type": "function"
    },
    {
      "inputs": [],
      "name": "getBuyingOrders",
      "outputs": [
        {
          "internalType": "address[]",
          "name": "tokens",
          "type": "address[]"
        },
        {
          "internalType": "uint256[]",
          "name": "amounts",
          "type": "uint256[]"
        }
      ],
      "stateMutability": "view",
      "type": "function"
    },
    {
      "inputs": [],
      "name": "getSellingOrders",
      "outputs": [
        {
          "internalType": "address[]",
          "name": "tokens",
          "type": "address[]"
        },
        {
          "internalType": "uint256[]",
          "name": "amounts",
          "type": "uint256[]"
        }
      ],
      "stateMutability": "view",
      "type": "function"
    },
    {
      "inputs": [],
      "name": "intentFactor",
      "outputs": [
        {
          "internalType": "uint256",
          "name": "",
          "type": "uint256"
        }
      ],
      "stateMutability": "view",
      "type": "function"
    },
    {
      "inputs": [],
      "name": "liquidityOrchestrator",
      "outputs": [
        {
          "internalType": "contract ILiquidityOrchestrator",
          "name": "",
          "type": "address"
        }
      ],
      "stateMutability": "view",
      "type": "function"
    },
    {
      "inputs": [],
      "name": "owner",
      "outputs": [
        {
          "internalType": "address",
          "name": "",
          "type": "address"
        }
      ],
      "stateMutability": "view",
      "type": "function"
    },
    {
      "inputs": [],
      "name": "pendingProtocolFees",
      "outputs": [
        {
          "internalType": "uint256",
          "name": "",
          "type": "uint256"
        }
      ],
      "stateMutability": "view",
      "type": "function"
    },
    {
      "inputs": [
        {
          "internalType": "bytes",
          "name": "performData",
          "type": "bytes"
        }
      ],
      "name": "performUpkeep",
      "outputs": [],
      "stateMutability": "nonpayable",
      "type": "function"
    },
    {
      "inputs": [],
      "name": "priceAdapterPrecision",
      "outputs": [
        {
          "internalType": "uint256",
          "name": "",
          "type": "uint256"
        }
      ],
      "stateMutability": "view",
      "type": "function"
    },
    {
      "inputs": [],
      "name": "registry",
      "outputs": [
        {
          "internalType": "contract IPriceAdapterRegistry",
          "name": "",
          "type": "address"
        }
      ],
      "stateMutability": "view",
      "type": "function"
    },
    {
      "inputs": [],
      "name": "renounceOwnership",
      "outputs": [],
      "stateMutability": "nonpayable",
      "type": "function"
    },
    {
      "inputs": [],
      "name": "rsFeeCoefficient",
      "outputs": [
        {
          "internalType": "uint16",
          "name": "",
          "type": "uint16"
        }
      ],
      "stateMutability": "view",
      "type": "function"
    },
    {
      "inputs": [
        {
          "internalType": "uint256",
          "name": "amount",
          "type": "uint256"
        }
      ],
      "name": "subtractPendingProtocolFees",
      "outputs": [],
      "stateMutability": "nonpayable",
      "type": "function"
    },
    {
      "inputs": [
        {
          "internalType": "address",
          "name": "newOwner",
          "type": "address"
        }
      ],
      "name": "transferOwnership",
      "outputs": [],
      "stateMutability": "nonpayable",
      "type": "function"
    },
    {
      "inputs": [],
      "name": "transparentMinibatchSize",
      "outputs": [
        {
          "internalType": "uint8",
          "name": "",
          "type": "uint8"
        }
      ],
      "stateMutability": "view",
      "type": "function"
    },
    {
      "inputs": [
        {
          "internalType": "uint256",
          "name": "",
          "type": "uint256"
        }
      ],
      "name": "transparentVaultsEpoch",
      "outputs": [
        {
          "internalType": "address",
          "name": "",
          "type": "address"
        }
      ],
      "stateMutability": "view",
      "type": "function"
    },
    {
      "inputs": [],
      "name": "underlyingAsset",
      "outputs": [
        {
          "internalType": "address",
          "name": "",
          "type": "address"
        }
      ],
      "stateMutability": "view",
      "type": "function"
    },
    {
      "inputs": [],
      "name": "underlyingDecimals",
      "outputs": [
        {
          "internalType": "uint8",
          "name": "",
          "type": "uint8"
        }
      ],
      "stateMutability": "view",
      "type": "function"
    },
    {
      "inputs": [
        {
          "internalType": "address",
          "name": "newAutomationRegistry",
          "type": "address"
        }
      ],
      "name": "updateAutomationRegistry",
      "outputs": [],
      "stateMutability": "nonpayable",
      "type": "function"
    },
    {
      "inputs": [
        {
          "internalType": "uint32",
          "name": "newEpochDuration",
          "type": "uint32"
        }
      ],
      "name": "updateEpochDuration",
      "outputs": [],
      "stateMutability": "nonpayable",
      "type": "function"
    },
    {
      "inputs": [
        {
          "internalType": "uint8",
          "name": "_transparentMinibatchSize",
          "type": "uint8"
        },
        {
          "internalType": "uint8",
          "name": "_encryptedMinibatchSize",
          "type": "uint8"
        }
      ],
      "name": "updateMinibatchSizes",
      "outputs": [],
      "stateMutability": "nonpayable",
      "type": "function"
    },
    {
      "inputs": [
        {
          "internalType": "uint16",
          "name": "_vFeeCoefficient",
          "type": "uint16"
        },
        {
          "internalType": "uint16",
          "name": "_rsFeeCoefficient",
          "type": "uint16"
        }
      ],
      "name": "updateProtocolFees",
      "outputs": [],
      "stateMutability": "nonpayable",
      "type": "function"
    },
    {
      "inputs": [],
      "name": "vFeeCoefficient",
      "outputs": [
        {
          "internalType": "uint16",
          "name": "",
          "type": "uint16"
        }
      ],
      "stateMutability": "view",
      "type": "function"
    }
  ],
  "bytecode": "0x608060405234801561000f575f5ffd5b5060405161393e38038061393e83398101604081905261002e91610711565b826101836100cd604080516080810182525f80825260208201819052918101829052606081019190915250604080516080810182527350157cffd6bbfa2dece204a89ec419c23ef5755d815273cd3ab3bd6bcc0c0bf3e27912a92043e817b1cf696020820152731364cbbf2cdf5032c47d8226a6f6fbd2afcdacac9181019190915273901f8942346f7ab3a01f6d7613119bca447bb030606082015290565b80515f5160206138fe5f395f51905f5280546001600160a01b03199081166001600160a01b039384161790915560208301515f51602061391e5f395f51905f528054831691841691909117905560408301517fed8d60e34876f751cc8b014c560745351147d9de11b9347c854e881b128ea6028054831691841691909117905560608301517fed8d60e34876f751cc8b014c560745351147d9de11b9347c854e881b128ea6038054909216921691909117905550565b7f5ea69329017273582817d320489fbd94f775580e90c092699ca6f3d12fdf7d0080546001600160a01b03191673a02cda4ca3a71d7c46997716f4283aa851c288121790556001600160a01b0381166101f557604051631e4fbdf760e01b81525f600482015260240160405180910390fd5b6101fe816105ef565b50600180556001600160a01b03821661022a5760405163d92e233d60e01b815260040160405180910390fd5b6001600160a01b0381166102515760405163d92e233d60e01b815260040160405180910390fd5b600380546001600160a01b0319166001600160a01b0384169081179091556040805163015df99360e01b8152905163015df993916004808201926020929091908290030181865afa1580156102a8573d5f5f3e3d5ffd5b505050506040513d601f19601f820116820180604052508101906102cc919061075b565b600580546001600160a01b0319166001600160a01b039283161790556003546040805163d1717c7d60e01b81529051919092169163d1717c7d9160048083019260209291908290030181865afa158015610328573d5f5f3e3d5ffd5b505050506040513d601f19601f8201168201806040525081019061034c919061077d565b61035790600a610894565b60075560035460408051631c56369f60e21b815290516001600160a01b0390921691637158da7c916004808201926020929091908290030181865afa1580156103a2573d5f5f3e3d5ffd5b505050506040513d601f19601f820116820180604052508101906103c6919061075b565b600880546001600160a01b0319166001600160a01b039290921691821790556040805163313ce56760e01b8152905163313ce567916004808201926020929091908290030181865afa15801561041e573d5f5f3e3d5ffd5b505050506040513d601f19601f82011682018060405250810190610442919061077d565b600860146101000a81548160ff021916908360ff16021790555060035f9054906101000a90046001600160a01b03166001600160a01b031663567ba7136040518163ffffffff1660e01b8152600401602060405180830381865afa1580156104ac573d5f5f3e3d5ffd5b505050506040513d601f19601f820116820180604052508101906104d0919061077d565b6104db90600a610894565b6006556016805463ffff000019166301010000179055600280546001600160a01b0319166001600160a01b038381169190911790915560035460408051631d06d6c760e11b815290519190921691633a0dad8e9160048281019260209291908290030181865afa158015610551573d5f5f3e3d5ffd5b505050506040513d601f19601f82011682018060405250810190610575919061075b565b600480546001600160a01b03929092166001600160a01b03199092169190911790556014805463ffffffff1916620151801790556105b24261063e565b6015556016805465ffff0000ffff191690556105cd5f610659565b60175550506008805463ffffffff60a81b19169055505f601a556108fc565b50565b5f80546001600160a01b038381166001600160a01b0319831681178455604051919092169283917f8be0079c531659141344cd1fd0a4f28419497f9722a3daafe3b4186f6b6457e09190a35050565b6014545f906106539063ffffffff16836108a2565b92915050565b5f61065363ffffffff831660045f51602061391e5f395f51905f5254604051639cd07acb60e01b81525f915f5160206138fe5f395f51905f52916001600160a01b0390911690639cd07acb906106b590879087906004016108b5565b6020604051808303815f875af11580156106d1573d5f5f3e3d5ffd5b505050506040513d601f19601f820116820180604052508101906106f591906108e5565b949350505050565b6001600160a01b03811681146105ec575f5ffd5b5f5f5f60608486031215610723575f5ffd5b835161072e816106fd565b602085015190935061073f816106fd565b6040850151909250610750816106fd565b809150509250925092565b5f6020828403121561076b575f5ffd5b8151610776816106fd565b9392505050565b5f6020828403121561078d575f5ffd5b815160ff81168114610776575f5ffd5b634e487b7160e01b5f52601160045260245ffd5b6001815b60018411156107ec578085048111156107d0576107d061079d565b60018416156107de57908102905b60019390931c9280026107b5565b935093915050565b5f8261080257506001610653565b8161080e57505f610653565b8160018114610824576002811461082e5761084a565b6001915050610653565b60ff84111561083f5761083f61079d565b50506001821b610653565b5060208310610133831016604e8410600b841016171561086d575081810a610653565b6108795f1984846107b1565b805f190482111561088c5761088c61079d565b029392505050565b5f61077660ff8416836107f4565b808201808211156106535761065361079d565b82815260408101605483106108d857634e487b7160e01b5f52602160045260245ffd5b8260208301529392505050565b5f602082840312156108f5575f5ffd5b5051919050565b612ff5806109095f395ff3fe608060405234801561000f575f5ffd5b50600436106101a9575f3560e01c8062bb07bb146101ad578063055ad42e146101c25780630844697d146101ec57806308af604d1461021457806314b19c5a1461023957806314b5d07f1461024757806325a760c21461025a578063289a2f761461026e5780632b0088b41461028e57806336021ef4146102a5578063380e443b146102b95780633a0dad8e146102c25780634585e33b146102d55780634ff0876a146102e85780635488cd621461030d57806358fac65b146103215780635dc228a0146103345780636e04ff0d146103475780637060444514610368578063715018a61461037b5780637158da7c146103835780637847ea531461039657806379502c55146103a15780637b103999146103b45780637cdabf0a146103c7578063800f9fad146103da5780638da5cb5b146103e35780639268a425146103eb578063a08b82d7146103f4578063b8b2af7c1461040a578063c2cb5d881461041f578063ca1f32f114610427578063eeb393c914610430578063f2fde38b14610443578063f83e98fb14610456578063f91b5b251461045f575b5f5ffd5b6101c06101bb366004612823565b610467565b005b6016546101d690600160201b900460ff1681565b6040516101e3919061286e565b60405180910390f35b60085461020190600160b81b900461ffff1681565b60405161ffff90911681526020016101e3565b6016546102279062010000900460ff1681565b60405160ff90911681526020016101e3565b6016546102019061ffff1681565b6101c061025536600461289c565b610561565b60085461022790600160a01b900460ff1681565b61028161027c3660046128b7565b61066a565b6040516101e391906128ce565b61029760075481565b6040519081526020016101e3565b601654610227906301000000900460ff1681565b6102016105dc81565b600454610281906001600160a01b031681565b6101c06102e33660046128e2565b610692565b6014546102f89063ffffffff1681565b60405163ffffffff90911681526020016101e3565b60165461022790600160281b900460ff1681565b61028161032f3660046128b7565b6108c5565b600254610281906001600160a01b031681565b61035a6103553660046128e2565b6108d4565b6040516101e392919061294e565b6101c06103763660046128b7565b610c23565b6101c0610cad565b600854610281906001600160a01b031681565b6102f86301e1338081565b600354610281906001600160a01b031681565b600554610281906001600160a01b031681565b6101c06103d53660046129a2565b610cc0565b61029760095481565b610281610dc7565b610297601a5481565b6103fc610dd5565b6040516101e39291906129d3565b60085461020190600160a81b900461ffff1681565b6103fc61100d565b61029760065481565b6101c061043e366004612a5c565b61123c565b6101c061045136600461289c565b611317565b61020161271081565b610201606481565b61046f611354565b60ff82161580610480575060ff8116155b1561049e576040516317dbc4cb60e21b815260040160405180910390fd5b60035f9054906101000a90046001600160a01b03166001600160a01b031663edcf9c1f6040518163ffffffff1660e01b8152600401602060405180830381865afa1580156104ee573d5f5f3e3d5ffd5b505050506040513d601f19601f820116820180604052508101906105129190612a7f565b61052f576040516312aecd8160e01b815260040160405180910390fd5b6016805463ffff000019166201000060ff9485160263ff00000019161763010000009290931691909102919091179055565b610569611354565b6001600160a01b0381166105905760405163d92e233d60e01b815260040160405180910390fd5b60035f9054906101000a90046001600160a01b03166001600160a01b031663edcf9c1f6040518163ffffffff1660e01b8152600401602060405180830381865afa1580156105e0573d5f5f3e3d5ffd5b505050506040513d601f19601f820116820180604052508101906106049190612a7f565b610621576040516312aecd8160e01b815260040160405180910390fd5b600280546001600160a01b0319166001600160a01b0383169081179091556040517f6cc7ebdb6c8c53291c5ae16148cab9b049d23bf5bde5632900b40edff56fcb43905f90a250565b60198181548110610679575f80fd5b5f918252602090912001546001600160a01b0316905081565b6002546001600160a01b031633146106bd5760405163ea8e4eb560e01b815260040160405180910390fd5b6106c5611386565b60048110156106e7576040516317dbc4cb60e21b815260040160405180910390fd5b5f6106f56004828486612a9e565b6106fe91612ac5565b90506341659aab60e01b6001600160e01b0319821601610725576107206113b0565b6108b7565b6385a5752f60e01b6001600160e01b0319821601610769575f61074b8360048187612a9e565b8101906107589190612afd565b9050610763816115c2565b506108b7565b630a47f11760e31b6001600160e01b03198216016107a7575f61078f8360048187612a9e565b81019061079c9190612afd565b905061076381611c2d565b6292a80f60e51b6001600160e01b03198216016107c657610720612017565b6342e7793160e11b6001600160e01b0319821601610800575f6107ec8360048187612a9e565b8101906107f99190612afd565b9050610763565b6328991e7160e21b6001600160e01b0319821601610826575f6107ec8360048187612a9e565b63c4b3cef760e01b6001600160e01b03198216016108b757610846612217565b6016805460ff60201b198116825561ffff16905f61086383612b2c565b82546101009290920a61ffff818102199093169183160217909155601654604051911681527f0bc12479581640d161e016cef21aa834cb6d6326bbc0d8445e58d56403adf2dc915060200160405180910390a15b506108c160018055565b5050565b60188181548110610679575f80fd5b5f606060035f9054906101000a90046001600160a01b03166001600160a01b031663edcf9c1f6040518163ffffffff1660e01b8152600401602060405180830381865afa158015610927573d5f5f3e3d5ffd5b505050506040513d601f19601f8201168201806040525081019061094b9190612a7f565b801561095957506015544210155b156109a957600191507fbe9a655586dceb82dfa0af992b5d8ae7fa45053cb7fd6f141f541da7572978c76040516020016109939190612b4c565b6040516020818303038152906040529050610c1c565b6001601654600160201b900460ff1660068111156109c9576109c961285a565b03610a1457600191507f7a5a8ad19124b9a9a3b85c38bfa52d0569e47ecd521fa07a994c99a212fd6ebc601660059054906101000a900460ff16604051602001610993929190612b61565b6002601654600160201b900460ff166006811115610a3457610a3461285a565b03610a7f57600191507fadc07748c020721fa2509a842be7e135ee6a8f3685ef12e4010b01343ac867a6601660059054906101000a900460ff16604051602001610993929190612b61565b6003601654600160201b900460ff166006811115610a9f57610a9f61285a565b03610ad957600191507fedaafe206508e00f40674bb87dda745bccfe8a3f3f6d6eaaf6db5f44021a1c136040516020016109939190612b4c565b6004601654600160201b900460ff166006811115610af957610af961285a565b03610b4457600191507f7a310d9e486906f6c86de6f47e07e2f3a9de08781efe935b9347180861f073ae601660059054906101000a900460ff16604051602001610993929190612b61565b6005601654600160201b900460ff166006811115610b6457610b6461285a565b03610baf57600191507f5d9b863c92efabf852670c24f7513610bd4d3f9a36442ea8387edc8a2b0113ef601660059054906101000a900460ff16604051602001610993929190612b61565b6006601654600160201b900460ff166006811115610bcf57610bcf61285a565b03610c0957600191507f3b4c310984a9fe486c05a56b52659c09d4bf9f3ef9b799ad52ee29a7d805741e6040516020016109939190612b4c565b505060408051602081019091525f808252905b9250929050565b6004546001600160a01b03163314610c4e5760405163ea8e4eb560e01b815260040160405180910390fd5b600954811115610c9457600854600954604051632e2a182f60e11b81526001600160a01b0390921660048301526024820183905260448201526064015b60405180910390fd5b8060095f828254610ca59190612b88565b909155505050565b610cb5611354565b610cbe5f61237b565b565b610cc8611354565b606461ffff83161180610ce057506105dc61ffff8216115b15610cfe576040516317dbc4cb60e21b815260040160405180910390fd5b60035f9054906101000a90046001600160a01b03166001600160a01b031663edcf9c1f6040518163ffffffff1660e01b8152600401602060405180830381865afa158015610d4e573d5f5f3e3d5ffd5b505050506040513d601f19601f82011682018060405250810190610d729190612a7f565b610d8f576040516312aecd8160e01b815260040160405180910390fd5b6008805463ffffffff60a81b1916600160a81b61ffff9485160261ffff60b81b191617600160b81b9290931691909102919091179055565b5f546001600160a01b031690565b601180546040805160208084028201810190925282815260609384935f93830182828015610e2a57602002820191905f5260205f20905b81546001600160a01b03168152600190910190602001808311610e0c575b505083519394505f9250829150505b8261ffff168161ffff161015610eaa575f600a6006015f868461ffff1681518110610e6657610e66612b9b565b60200260200101516001600160a01b03166001600160a01b031681526020019081526020015f20541115610ea25781610e9e81612b2c565b9250505b600101610e39565b508061ffff166001600160401b03811115610ec757610ec7612baf565b604051908082528060200260200182016040528015610ef0578160200160208202803683370190505b5094508061ffff166001600160401b03811115610f0f57610f0f612baf565b604051908082528060200260200182016040528015610f38578160200160208202803683370190505b5093505f805b8361ffff168161ffff161015611004575f858261ffff1681518110610f6557610f65612b9b565b6020908102919091018101516001600160a01b0381165f90815260109092526040909120549091508015610ffa5781898561ffff1681518110610faa57610faa612b9b565b60200260200101906001600160a01b031690816001600160a01b03168152505080888561ffff1681518110610fe157610fe1612b9b565b602090810291909101015283610ff681612b2c565b9450505b5050600101610f3e565b50505050509091565b601180546040805160208084028201810190925282815260609384935f9383018282801561106257602002820191905f5260205f20905b81546001600160a01b03168152600190910190602001808311611044575b505083519394505f9250829150505b8261ffff168161ffff1610156110e2575f600a6005015f868461ffff168151811061109e5761109e612b9b565b60200260200101516001600160a01b03166001600160a01b031681526020019081526020015f205411156110da57816110d681612b2c565b9250505b600101611071565b508061ffff166001600160401b038111156110ff576110ff612baf565b604051908082528060200260200182016040528015611128578160200160208202803683370190505b5094508061ffff166001600160401b0381111561114757611147612baf565b604051908082528060200260200182016040528015611170578160200160208202803683370190505b5093505f805b8361ffff168161ffff161015611004575f858261ffff168151811061119d5761119d612b9b565b6020908102919091018101516001600160a01b0381165f908152600f90925260409091205490915080156112325781898561ffff16815181106111e2576111e2612b9b565b60200260200101906001600160a01b031690816001600160a01b03168152505080888561ffff168151811061121957611219612b9b565b60209081029190910101528361122e81612b2c565b9450505b5050600101611176565b611244611354565b8063ffffffff165f0361126a576040516317dbc4cb60e21b815260040160405180910390fd5b60035f9054906101000a90046001600160a01b03166001600160a01b031663edcf9c1f6040518163ffffffff1660e01b8152600401602060405180830381865afa1580156112ba573d5f5f3e3d5ffd5b505050506040513d601f19601f820116820180604052508101906112de9190612a7f565b6112fb576040516312aecd8160e01b815260040160405180910390fd5b6014805463ffffffff191663ffffffff92909216919091179055565b61131f611354565b6001600160a01b038116611348575f604051631e4fbdf760e01b8152600401610c8b91906128ce565b6113518161237b565b50565b3361135d610dc7565b6001600160a01b031614610cbe573360405163118cdaa760e01b8152600401610c8b91906128ce565b6002600154036113a957604051633ee5aeb560e01b815260040160405180910390fd5b6002600155565b6015544210156113d35760405163085de62560e01b815260040160405180910390fd5b6113dc426123ca565b6015555f5b60115461ffff82161015611494575f600a6007018261ffff168154811061140a5761140a612b9b565b5f9182526020808320909101546001600160a01b03168252600b81526040808320839055600c8252808320839055600d8252808320839055600e8252808320839055600f82528083208390556010825280832083905560128252808320805460ff19908116909155600a90925290912080549091169055508061148c81612b2c565b9150506113e1565b506114a060115f612783565b600354604051631da09e4360e31b81526001600160a01b039091169063ed04f218906114d0905f90600401612bc3565b5f60405180830381865afa1580156114ea573d5f5f3e3d5ffd5b505050506040513d5f823e601f3d908101601f191682016040526115119190810190612c9c565b80516115259160189160209091019061279e565b50600354604051631da09e4360e31b81526001600160a01b039091169063ed04f2189061155790600190600401612bc3565b5f60405180830381865afa158015611571573d5f5f3e3d5ffd5b505050506040513d5f823e601f3d908101601f191682016040526115989190810190612c9c565b80516115ac9160199160209091019061279e565b506016805460ff60201b1916600160201b179055565b6115ca611386565b60168054600160281b900460ff169060056115e483612ccd565b91906101000a81548160ff021916908360ff160217905550505f601660029054906101000a900460ff16826116199190612ce2565b60165460ff91821692505f91611636916201000090041683612cfe565b60185490915061ffff8216111561166057506018546016805461ffff60201b1916600160211b1790555b815b8161ffff168161ffff161015611c21575f60188261ffff168154811061168a5761168a612b9b565b905f5260205f20015f9054906101000a90046001600160a01b031690505f5f826001600160a01b031663d3d034586040518163ffffffff1660e01b81526004015f60405180830381865afa1580156116e4573d5f5f3e3d5ffd5b505050506040513d5f823e601f3d908101601f1916820160405261170b9190810190612d18565b90925090505f805b83518161ffff16101561198d575f848261ffff168151811061173757611737612b9b565b6020908102919091018101516001600160a01b0381165f908152600a909252604082205490925060ff1690036117f157806001600160a01b031663313ce5676040518163ffffffff1660e01b8152600401602060405180830381865afa1580156117a3573d5f5f3e3d5ffd5b505050506040513d601f19601f820116820180604052508101906117c79190612dd6565b6001600160a01b0382165f908152600a60205260409020805460ff191660ff929092169190911790555b6001600160a01b0381165f908152600a6020908152604080832054600b90925282205460ff909116918190036118e3576008546001600160a01b03908116908416036118565760085461184f90600160a01b900460ff16600a612ed4565b90506118c8565b6005546040516341976e0960e01b81526001600160a01b03909116906341976e09906118869086906004016128ce565b602060405180830381865afa1580156118a1573d5f5f3e3d5ffd5b505050506040513d601f19601f820116820180604052508101906118c59190612ee2565b90505b6001600160a01b0383165f908152600b602052604090208190555b5f61192f61191b888761ffff168151811061190057611900612b9b565b6020026020010151600654856123e59092919063ffffffff16565b6008548590600160a01b900460ff16612496565b905061193b8187612ef9565b6001600160a01b0385165f908152600c6020526040812080549298508392909190611967908490612ef9565b90915550611976905084612500565b50505050808061198590612b2c565b915050611713565b506008545f906119ab90600160a81b900461ffff16836127106123e5565b6014549091506119cc90829063ffffffff908116906301e13380906123e516565b90508060095f8282546119df9190612ef9565b909155506119ef90508183612b88565b60405163728d42fb60e11b8152600481018290529092505f906001600160a01b0387169063e51a85f690602401602060405180830381865afa158015611a37573d5f5f3e3d5ffd5b505050506040513d601f19601f82011682018060405250810190611a5b9190612ee2565b9050611a678184612b88565b6008549093505f90611a8790600160b81b900461ffff16836127106123e5565b90508060095f828254611a9a9190612ef9565b90915550611aaa90508183612b88565b91505f876001600160a01b031663a68a5267896001600160a01b031663c37fc8a86040518163ffffffff1660e01b8152600401602060405180830381865afa158015611af8573d5f5f3e3d5ffd5b505050506040513d601f19601f82011682018060405250810190611b1c9190612ee2565b875f6040518463ffffffff1660e01b8152600401611b3c93929190612f0c565b602060405180830381865afa158015611b57573d5f5f3e3d5ffd5b505050506040513d601f19601f82011682018060405250810190611b7b9190612ee2565b905080886001600160a01b031663d1699c266040518163ffffffff1660e01b8152600401602060405180830381865afa158015611bba573d5f5f3e3d5ffd5b505050506040513d601f19601f82011682018060405250810190611bde9190612ee2565b611be89190612b88565b611bf29086612ef9565b6001600160a01b039098165f908152600d60205260409020979097555050600190950194506116629350505050565b50505061135160018055565b611c35611386565b60168054600160281b900460ff16906005611c4f83612ccd565b91906101000a81548160ff021916908360ff160217905550505f601660039054906101000a900460ff1682611c849190612ce2565b60165460ff91821692505f91611ca291630100000090041683612cfe565b60195490915061ffff82161115611ccc57506019546016805461ffff60201b1916600360201b1790555b815b8161ffff168161ffff161015611c21575f60198261ffff1681548110611cf657611cf6612b9b565b5f918252602091829020015460408051631b9d6fc560e31b815290516001600160a01b039092169350839263dceb7e28926004808401938290030181865afa158015611d44573d5f5f3e3d5ffd5b505050506040513d601f19601f82011682018060405250810190611d689190612a7f565b611d72575061200f565b5f5f826001600160a01b031663d3d034586040518163ffffffff1660e01b81526004015f60405180830381865afa158015611daf573d5f5f3e3d5ffd5b505050506040513d5f823e601f3d908101601f19168201604052611dd69190810190612d18565b60175491935091505f5b83518161ffff161015612009575f848261ffff1681518110611e0457611e04612b9b565b6020908102919091018101516001600160a01b0381165f908152600a909252604082205490925060ff169003611ebe57806001600160a01b031663313ce5676040518163ffffffff1660e01b8152600401602060405180830381865afa158015611e70573d5f5f3e3d5ffd5b505050506040513d601f19601f82011682018060405250810190611e949190612dd6565b6001600160a01b0382165f908152600a60205260409020805460ff191660ff929092169190911790555b6001600160a01b0381165f908152600b602052604081205490819003611fa0576008546001600160a01b0390811690831603611f1357600854611f0c90600160a01b900460ff16600a612ed4565b9050611f85565b6005546040516341976e0960e01b81526001600160a01b03909116906341976e0990611f439085906004016128ce565b602060405180830381865afa158015611f5e573d5f5f3e3d5ffd5b505050506040513d601f19601f82011682018060405250810190611f829190612ee2565b90505b6001600160a01b0382165f908152600b602052604090208190555b601754611fad8582612585565b6001600160a01b0384165f90815260136020526040902054909550611fd29082612585565b6001600160a01b0384165f90815260136020526040902055611ff383612500565b505050808061200190612b2c565b915050611de0565b50505050505b600101611cce565b5f805b60185461ffff82161015612087575f60188261ffff168154811061204057612040612b9b565b5f9182526020808320909101546001600160a01b0316808352600d9091526040909120549091506120719084612ef9565b925050808061207f90612b2c565b91505061201a565b505f5b60195461ffff821610156120f7575f60198261ffff16815481106120b0576120b0612b9b565b5f9182526020808320909101546001600160a01b0316808352600d9091526040909120549091506120e19084612ef9565b92505080806120ef90612b2c565b91505061208a565b505f805b60185461ffff82161015612195575f60188261ffff168154811061212157612121612b9b565b5f9182526020808320909101546001600160a01b0316808352600d909152604090912054909150612154908490866123e5565b6001600160a01b0382165f908152600d60205260408120805490919061217b908490612b88565b9091555082915061218d905081612b2c565b9150506120fb565b50600480546040805163dab26e3b60e01b815290516001600160a01b039092169263dab26e3b9282820192602092908290030181865afa1580156121db573d5f5f3e3d5ffd5b505050506040513d601f19601f820116820180604052508101906121ff9190612ee2565b50506016805460ff60201b1916600160221b17905550565b5f600a60070180548060200260200160405190810160405280929190818152602001828054801561226f57602002820191905f5260205f20905b81546001600160a01b03168152600190910190602001808311612251575b505083519394505f925050505b8161ffff168161ffff161015612376575f838261ffff16815181106122a3576122a3612b9b565b6020908102919091018101516001600160a01b0381165f908152600c8352604080822054600e855281832054600a909552912054919350919060ff1681831115612339575f6122f28385612b88565b6001600160a01b0386165f908152600b6020526040812054919250906123199083856125b3565b6001600160a01b0387165f908152600f6020526040902055506123669050565b82821115612366575f61234c8484612b88565b6001600160a01b0386165f90815260106020526040902055505b50506001909201915061227c9050565b505050565b5f80546001600160a01b038381166001600160a01b0319831681178455604051919092169283917f8be0079c531659141344cd1fd0a4f28419497f9722a3daafe3b4186f6b6457e09190a35050565b6014545f906123df9063ffffffff1683612ef9565b92915050565b5f5f5f6123f286866125ea565b91509150815f036124165783818161240c5761240c612f38565b049250505061248f565b81841161242d5761242d6003851502601118612606565b5f848688095f868103871696879004966002600389028118808a02820302808a02820302808a02820302808a02820302808a02820302808a02909103029181900381900460010185841190960395909502919093039390930492909217029150505b9392505050565b5f8260ff168260ff1611156124cb576124af8383612f4c565b6124ba90600a612ed4565b6124c49085612f65565b905061248f565b8260ff168260ff1610156124f8576124e38284612f4c565b6124ee90600a612ed4565b6124c49085612f7c565b509192915050565b6001600160a01b0381165f9081526012602052604090205460ff16611351576011805460018181019092557f31ecc21a745e3968a04e9570e4425bc18fa8019c68028196b546d1669c200c680180546001600160a01b0384166001600160a01b031990911681179091555f908152601260205260409020805460ff1916909117905550565b5f82612597576125945f612617565b92505b816125a8576125a55f612617565b91505b61248f83835f612629565b5f5f6125cf84600860149054906101000a900460ff1685612496565b6006549091506125e1908290876123e5565b95945050505050565b5f805f1983850993909202808410938190039390930393915050565b634e487b715f52806020526024601cfd5b5f6123df8263ffffffff1660046126d8565b5f5f821561263c5750600160f81b61263f565b505f5b5f61264861275f565b600181015460405163022f65e760e31b815260048101899052602481018890526001600160f81b0319851660448201529192506001600160a01b03169063117b2f38906064016020604051808303815f875af11580156126aa573d5f5f3e3d5ffd5b505050506040513d601f19601f820116820180604052508101906126ce9190612ee2565b9695505050505050565b5f5f6126e261275f565b6001810154604051639cd07acb60e01b81529192506001600160a01b031690639cd07acb906127179087908790600401612f9b565b6020604051808303815f875af1158015612733573d5f5f3e3d5ffd5b505050506040513d601f19601f820116820180604052508101906127579190612ee2565b949350505050565b7fed8d60e34876f751cc8b014c560745351147d9de11b9347c854e881b128ea60090565b5080545f8255905f5260205f20908101906113519190612801565b828054828255905f5260205f209081019282156127f1579160200282015b828111156127f157825182546001600160a01b0319166001600160a01b039091161782556020909201916001909101906127bc565b506127fd929150612801565b5090565b5b808211156127fd575f8155600101612802565b60ff81168114611351575f5ffd5b5f5f60408385031215612834575f5ffd5b823561283f81612815565b9150602083013561284f81612815565b809150509250929050565b634e487b7160e01b5f52602160045260245ffd5b60208101600783106128825761288261285a565b91905290565b6001600160a01b0381168114611351575f5ffd5b5f602082840312156128ac575f5ffd5b813561248f81612888565b5f602082840312156128c7575f5ffd5b5035919050565b6001600160a01b0391909116815260200190565b5f5f602083850312156128f3575f5ffd5b82356001600160401b03811115612908575f5ffd5b8301601f81018513612918575f5ffd5b80356001600160401b0381111561292d575f5ffd5b85602082840101111561293e575f5ffd5b6020919091019590945092505050565b8215158152604060208201525f82518060408401528060208501606085015e5f606082850101526060601f19601f8301168401019150509392505050565b803561ffff8116811461299d575f5ffd5b919050565b5f5f604083850312156129b3575f5ffd5b6129bc8361298c565b91506129ca6020840161298c565b90509250929050565b604080825283519082018190525f9060208501906060840190835b81811015612a155783516001600160a01b03168352602093840193909201916001016129ee565b5050838103602080860191909152855180835291810192508501905f5b81811015612a50578251845260209384019390920191600101612a32565b50919695505050505050565b5f60208284031215612a6c575f5ffd5b813563ffffffff8116811461248f575f5ffd5b5f60208284031215612a8f575f5ffd5b8151801515811461248f575f5ffd5b5f5f85851115612aac575f5ffd5b83861115612ab8575f5ffd5b5050820193919092039150565b80356001600160e01b03198116906004841015612af6576001600160e01b0319600485900360031b81901b82161691505b5092915050565b5f60208284031215612b0d575f5ffd5b813561248f81612815565b634e487b7160e01b5f52601160045260245ffd5b5f61ffff821661ffff8103612b4357612b43612b18565b60010192915050565b6001600160e01b031991909116815260040190565b6001600160e01b031992909216825260f81b6001600160f81b031916600482015260050190565b818103818111156123df576123df612b18565b634e487b7160e01b5f52603260045260245ffd5b634e487b7160e01b5f52604160045260245ffd5b60208101600283106128825761288261285a565b604051601f8201601f191681016001600160401b0381118282101715612bff57612bff612baf565b604052919050565b5f6001600160401b03821115612c1f57612c1f612baf565b5060051b60200190565b5f82601f830112612c38575f5ffd5b8151612c4b612c4682612c07565b612bd7565b8082825260208201915060208360051b860101925085831115612c6c575f5ffd5b602085015b83811015612c92578051612c8481612888565b835260209283019201612c71565b5095945050505050565b5f60208284031215612cac575f5ffd5b81516001600160401b03811115612cc1575f5ffd5b61275784828501612c29565b5f60ff821660ff8103612b4357612b43612b18565b60ff8181168382160290811690818114612af657612af6612b18565b61ffff81811683821601908111156123df576123df612b18565b5f5f60408385031215612d29575f5ffd5b82516001600160401b03811115612d3e575f5ffd5b612d4a85828601612c29565b602085015190935090506001600160401b03811115612d67575f5ffd5b8301601f81018513612d77575f5ffd5b8051612d85612c4682612c07565b8082825260208201915060208360051b850101925087831115612da6575f5ffd5b6020840193505b82841015612dc8578351825260209384019390910190612dad565b809450505050509250929050565b5f60208284031215612de6575f5ffd5b815161248f81612815565b6001815b6001841115612e2c57808504811115612e1057612e10612b18565b6001841615612e1e57908102905b60019390931c928002612df5565b935093915050565b5f82612e42575060016123df565b81612e4e57505f6123df565b8160018114612e645760028114612e6e57612e8a565b60019150506123df565b60ff841115612e7f57612e7f612b18565b50506001821b6123df565b5060208310610133831016604e8410600b8410161715612ead575081810a6123df565b612eb95f198484612df1565b805f1904821115612ecc57612ecc612b18565b029392505050565b5f61248f60ff841683612e34565b5f60208284031215612ef2575f5ffd5b5051919050565b808201808211156123df576123df612b18565b838152602081018390526060810160048310612f2a57612f2a61285a565b826040830152949350505050565b634e487b7160e01b5f52601260045260245ffd5b60ff82811682821603908111156123df576123df612b18565b80820281158282048414176123df576123df612b18565b5f82612f9657634e487b7160e01b5f52601260045260245ffd5b500490565b8281526040810160548310612fb257612fb261285a565b826020830152939250505056fea264697066735822122096f6444f30e60416633c8174323169e09077ecbee9e88925b75aab2900ac68f964736f6c634300081c0033ed8d60e34876f751cc8b014c560745351147d9de11b9347c854e881b128ea600ed8d60e34876f751cc8b014c560745351147d9de11b9347c854e881b128ea601",
  "linkReferences": {},
  "deployedLinkReferences": {}
}