{
  "_format": "hh-sol-artifact-1",
  "contractName": "InternalStatesOrchestrator",
  "sourceName": "contracts/orchestrators/InternalStatesOrchestrator.sol",
  "abi": [
    {
      "inputs": [
        {
          "internalType": "address",
          "name": "initialOwner",
          "type": "address"
        },
        {
          "internalType": "address",
          "name": "config_",
          "type": "address"
        },
        {
          "internalType": "address",
          "name": "automationRegistry_",
          "type": "address"
        }
      ],
      "stateMutability": "nonpayable",
      "type": "constructor"
    },
    {
      "inputs": [],
      "name": "InvalidArguments",
      "type": "error"
    },
    {
      "inputs": [],
      "name": "NotAuthorized",
      "type": "error"
    },
    {
      "inputs": [
        {
          "internalType": "address",
          "name": "owner",
          "type": "address"
        }
      ],
      "name": "OwnableInvalidOwner",
      "type": "error"
    },
    {
      "inputs": [
        {
          "internalType": "address",
          "name": "account",
          "type": "address"
        }
      ],
      "name": "OwnableUnauthorizedAccount",
      "type": "error"
    },
    {
      "inputs": [],
      "name": "ReentrancyGuardReentrantCall",
      "type": "error"
    },
    {
      "inputs": [],
      "name": "SystemNotIdle",
      "type": "error"
    },
    {
      "inputs": [],
      "name": "TooEarly",
      "type": "error"
    },
    {
      "inputs": [],
      "name": "ZeroAddress",
      "type": "error"
    },
    {
      "anonymous": false,
      "inputs": [
        {
          "indexed": true,
          "internalType": "address",
          "name": "newAutomationRegistry",
          "type": "address"
        }
      ],
      "name": "AutomationRegistryUpdated",
      "type": "event"
    },
    {
      "anonymous": false,
      "inputs": [
        {
          "indexed": false,
          "internalType": "uint16",
          "name": "epochCounter",
          "type": "uint16"
        }
      ],
      "name": "InternalStateProcessed",
      "type": "event"
    },
    {
      "anonymous": false,
      "inputs": [
        {
          "indexed": true,
          "internalType": "address",
          "name": "previousOwner",
          "type": "address"
        },
        {
          "indexed": true,
          "internalType": "address",
          "name": "newOwner",
          "type": "address"
        }
      ],
      "name": "OwnershipTransferred",
      "type": "event"
    },
    {
      "inputs": [],
      "name": "MAX_REVENUE_SHARE_FEE",
      "outputs": [
        {
          "internalType": "uint16",
          "name": "",
          "type": "uint16"
        }
      ],
      "stateMutability": "view",
      "type": "function"
    },
    {
      "inputs": [],
      "name": "MAX_VOLUME_FEE",
      "outputs": [
        {
          "internalType": "uint16",
          "name": "",
          "type": "uint16"
        }
      ],
      "stateMutability": "view",
      "type": "function"
    },
    {
      "inputs": [],
      "name": "PROTOCOL_FEE_FACTOR",
      "outputs": [
        {
          "internalType": "uint16",
          "name": "",
          "type": "uint16"
        }
      ],
      "stateMutability": "view",
      "type": "function"
    },
    {
      "inputs": [],
      "name": "YEAR_IN_SECONDS",
      "outputs": [
        {
          "internalType": "uint32",
          "name": "",
          "type": "uint32"
        }
      ],
      "stateMutability": "view",
      "type": "function"
    },
    {
      "inputs": [],
      "name": "automationRegistry",
      "outputs": [
        {
          "internalType": "address",
          "name": "",
          "type": "address"
        }
      ],
      "stateMutability": "view",
      "type": "function"
    },
    {
      "inputs": [
        {
          "internalType": "bytes",
          "name": "",
          "type": "bytes"
        }
      ],
      "name": "checkUpkeep",
      "outputs": [
        {
          "internalType": "bool",
          "name": "upkeepNeeded",
          "type": "bool"
        },
        {
          "internalType": "bytes",
          "name": "performData",
          "type": "bytes"
        }
      ],
      "stateMutability": "view",
      "type": "function"
    },
    {
      "inputs": [],
      "name": "config",
      "outputs": [
        {
          "internalType": "contract IOrionConfig",
          "name": "",
          "type": "address"
        }
      ],
      "stateMutability": "view",
      "type": "function"
    },
    {
      "inputs": [],
      "name": "currentMinibatchIndex",
      "outputs": [
        {
          "internalType": "uint8",
          "name": "",
          "type": "uint8"
        }
      ],
      "stateMutability": "view",
      "type": "function"
    },
    {
      "inputs": [],
      "name": "currentPhase",
      "outputs": [
        {
          "internalType": "enum IInternalStateOrchestrator.InternalUpkeepPhase",
          "name": "",
          "type": "uint8"
        }
      ],
      "stateMutability": "view",
      "type": "function"
    },
    {
      "inputs": [],
      "name": "encryptedMinibatchSize",
      "outputs": [
        {
          "internalType": "uint8",
          "name": "",
          "type": "uint8"
        }
      ],
      "stateMutability": "view",
      "type": "function"
    },
    {
      "inputs": [
        {
          "internalType": "uint256",
          "name": "",
          "type": "uint256"
        }
      ],
      "name": "encryptedVaultsEpoch",
      "outputs": [
        {
          "internalType": "address",
          "name": "",
          "type": "address"
        }
      ],
      "stateMutability": "view",
      "type": "function"
    },
    {
      "inputs": [],
      "name": "epochCounter",
      "outputs": [
        {
          "internalType": "uint16",
          "name": "",
          "type": "uint16"
        }
      ],
      "stateMutability": "view",
      "type": "function"
    },
    {
      "inputs": [],
      "name": "epochDuration",
      "outputs": [
        {
          "internalType": "uint32",
          "name": "",
          "type": "uint32"
        }
      ],
      "stateMutability": "view",
      "type": "function"
    },
    {
      "inputs": [],
      "name": "getBuyingOrders",
      "outputs": [
        {
          "internalType": "address[]",
          "name": "tokens",
          "type": "address[]"
        },
        {
          "internalType": "uint256[]",
          "name": "amounts",
          "type": "uint256[]"
        }
      ],
      "stateMutability": "view",
      "type": "function"
    },
    {
      "inputs": [],
      "name": "getSellingOrders",
      "outputs": [
        {
          "internalType": "address[]",
          "name": "tokens",
          "type": "address[]"
        },
        {
          "internalType": "uint256[]",
          "name": "amounts",
          "type": "uint256[]"
        }
      ],
      "stateMutability": "view",
      "type": "function"
    },
    {
      "inputs": [],
      "name": "intentFactor",
      "outputs": [
        {
          "internalType": "uint256",
          "name": "",
          "type": "uint256"
        }
      ],
      "stateMutability": "view",
      "type": "function"
    },
    {
      "inputs": [],
      "name": "liquidityOrchestrator",
      "outputs": [
        {
          "internalType": "contract ILiquidityOrchestrator",
          "name": "",
          "type": "address"
        }
      ],
      "stateMutability": "view",
      "type": "function"
    },
    {
      "inputs": [],
      "name": "owner",
      "outputs": [
        {
          "internalType": "address",
          "name": "",
          "type": "address"
        }
      ],
      "stateMutability": "view",
      "type": "function"
    },
    {
      "inputs": [],
      "name": "pendingProtocolFees",
      "outputs": [
        {
          "internalType": "uint256",
          "name": "",
          "type": "uint256"
        }
      ],
      "stateMutability": "view",
      "type": "function"
    },
    {
      "inputs": [
        {
          "internalType": "bytes",
          "name": "performData",
          "type": "bytes"
        }
      ],
      "name": "performUpkeep",
      "outputs": [],
      "stateMutability": "nonpayable",
      "type": "function"
    },
    {
      "inputs": [],
      "name": "priceAdapterPrecision",
      "outputs": [
        {
          "internalType": "uint256",
          "name": "",
          "type": "uint256"
        }
      ],
      "stateMutability": "view",
      "type": "function"
    },
    {
      "inputs": [],
      "name": "registry",
      "outputs": [
        {
          "internalType": "contract IPriceAdapterRegistry",
          "name": "",
          "type": "address"
        }
      ],
      "stateMutability": "view",
      "type": "function"
    },
    {
      "inputs": [],
      "name": "renounceOwnership",
      "outputs": [],
      "stateMutability": "nonpayable",
      "type": "function"
    },
    {
      "inputs": [],
      "name": "resetPendingProtocolFees",
      "outputs": [],
      "stateMutability": "nonpayable",
      "type": "function"
    },
    {
      "inputs": [],
      "name": "rsFeeCoefficient",
      "outputs": [
        {
          "internalType": "uint16",
          "name": "",
          "type": "uint16"
        }
      ],
      "stateMutability": "view",
      "type": "function"
    },
    {
      "inputs": [
        {
          "internalType": "address",
          "name": "newOwner",
          "type": "address"
        }
      ],
      "name": "transferOwnership",
      "outputs": [],
      "stateMutability": "nonpayable",
      "type": "function"
    },
    {
      "inputs": [],
      "name": "transparentMinibatchSize",
      "outputs": [
        {
          "internalType": "uint8",
          "name": "",
          "type": "uint8"
        }
      ],
      "stateMutability": "view",
      "type": "function"
    },
    {
      "inputs": [
        {
          "internalType": "uint256",
          "name": "",
          "type": "uint256"
        }
      ],
      "name": "transparentVaultsEpoch",
      "outputs": [
        {
          "internalType": "address",
          "name": "",
          "type": "address"
        }
      ],
      "stateMutability": "view",
      "type": "function"
    },
    {
      "inputs": [],
      "name": "underlyingAsset",
      "outputs": [
        {
          "internalType": "address",
          "name": "",
          "type": "address"
        }
      ],
      "stateMutability": "view",
      "type": "function"
    },
    {
      "inputs": [],
      "name": "underlyingDecimals",
      "outputs": [
        {
          "internalType": "uint8",
          "name": "",
          "type": "uint8"
        }
      ],
      "stateMutability": "view",
      "type": "function"
    },
    {
      "inputs": [
        {
          "internalType": "address",
          "name": "newAutomationRegistry",
          "type": "address"
        }
      ],
      "name": "updateAutomationRegistry",
      "outputs": [],
      "stateMutability": "nonpayable",
      "type": "function"
    },
    {
      "inputs": [
        {
          "internalType": "uint32",
          "name": "newEpochDuration",
          "type": "uint32"
        }
      ],
      "name": "updateEpochDuration",
      "outputs": [],
      "stateMutability": "nonpayable",
      "type": "function"
    },
    {
      "inputs": [
        {
          "internalType": "uint8",
          "name": "_transparentMinibatchSize",
          "type": "uint8"
        },
        {
          "internalType": "uint8",
          "name": "_encryptedMinibatchSize",
          "type": "uint8"
        }
      ],
      "name": "updateMinibatchSizes",
      "outputs": [],
      "stateMutability": "nonpayable",
      "type": "function"
    },
    {
      "inputs": [
        {
          "internalType": "uint16",
          "name": "_vFeeCoefficient",
          "type": "uint16"
        },
        {
          "internalType": "uint16",
          "name": "_rsFeeCoefficient",
          "type": "uint16"
        }
      ],
      "name": "updateProtocolFees",
      "outputs": [],
      "stateMutability": "nonpayable",
      "type": "function"
    },
    {
      "inputs": [],
      "name": "vFeeCoefficient",
      "outputs": [
        {
          "internalType": "uint16",
          "name": "",
          "type": "uint16"
        }
      ],
      "stateMutability": "view",
      "type": "function"
    }
  ],
  "bytecode": "0x608060405234801561000f575f5ffd5b506040516134b43803806134b483398101604081905261002e9161070d565b826101836100cd604080516080810182525f80825260208201819052918101829052606081019190915250604080516080810182527350157cffd6bbfa2dece204a89ec419c23ef5755d815273cd3ab3bd6bcc0c0bf3e27912a92043e817b1cf696020820152731364cbbf2cdf5032c47d8226a6f6fbd2afcdacac9181019190915273901f8942346f7ab3a01f6d7613119bca447bb030606082015290565b80515f5160206134745f395f51905f5280546001600160a01b03199081166001600160a01b039384161790915560208301515f5160206134945f395f51905f528054831691841691909117905560408301517fed8d60e34876f751cc8b014c560745351147d9de11b9347c854e881b128ea6028054831691841691909117905560608301517fed8d60e34876f751cc8b014c560745351147d9de11b9347c854e881b128ea6038054909216921691909117905550565b7f5ea69329017273582817d320489fbd94f775580e90c092699ca6f3d12fdf7d0080546001600160a01b03191673a02cda4ca3a71d7c46997716f4283aa851c288121790556001600160a01b0381166101f557604051631e4fbdf760e01b81525f600482015260240160405180910390fd5b6101fe816105eb565b50600180556001600160a01b03821661022a5760405163d92e233d60e01b815260040160405180910390fd5b6001600160a01b0381166102515760405163d92e233d60e01b815260040160405180910390fd5b600380546001600160a01b0319166001600160a01b0384169081179091556040805163015df99360e01b8152905163015df993916004808201926020929091908290030181865afa1580156102a8573d5f5f3e3d5ffd5b505050506040513d601f19601f820116820180604052508101906102cc9190610757565b600580546001600160a01b0319166001600160a01b039283161790556003546040805163d1717c7d60e01b81529051919092169163d1717c7d9160048083019260209291908290030181865afa158015610328573d5f5f3e3d5ffd5b505050506040513d601f19601f8201168201806040525081019061034c9190610779565b61035790600a610890565b60075560035460408051631c56369f60e21b815290516001600160a01b0390921691637158da7c916004808201926020929091908290030181865afa1580156103a2573d5f5f3e3d5ffd5b505050506040513d601f19601f820116820180604052508101906103c69190610757565b600880546001600160a01b0319166001600160a01b039290921691821790556040805163313ce56760e01b8152905163313ce567916004808201926020929091908290030181865afa15801561041e573d5f5f3e3d5ffd5b505050506040513d601f19601f820116820180604052508101906104429190610779565b600860146101000a81548160ff021916908360ff16021790555060035f9054906101000a90046001600160a01b03166001600160a01b031663567ba7136040518163ffffffff1660e01b8152600401602060405180830381865afa1580156104ac573d5f5f3e3d5ffd5b505050506040513d601f19601f820116820180604052508101906104d09190610779565b6104db90600a610890565b6006556016805463ffff000019166301010000179055600280546001600160a01b0319166001600160a01b038381169190911790915560035460408051631d06d6c760e11b815290519190921691633a0dad8e9160048281019260209291908290030181865afa158015610551573d5f5f3e3d5ffd5b505050506040513d601f19601f820116820180604052508101906105759190610757565b600480546001600160a01b03929092166001600160a01b03199092169190911790556014805463ffffffff1916620151801790556105b24261063a565b6015556016805465ffff0000ffff191690556105cd5f610655565b60175550506008805463ffffffff60a81b19169055506108f8565b50565b5f80546001600160a01b038381166001600160a01b0319831681178455604051919092169283917f8be0079c531659141344cd1fd0a4f28419497f9722a3daafe3b4186f6b6457e09190a35050565b6014545f9061064f9063ffffffff168361089e565b92915050565b5f61064f63ffffffff831660045f5160206134945f395f51905f5254604051639cd07acb60e01b81525f915f5160206134745f395f51905f52916001600160a01b0390911690639cd07acb906106b190879087906004016108b1565b6020604051808303815f875af11580156106cd573d5f5f3e3d5ffd5b505050506040513d601f19601f820116820180604052508101906106f191906108e1565b949350505050565b6001600160a01b03811681146105e8575f5ffd5b5f5f5f6060848603121561071f575f5ffd5b835161072a816106f9565b602085015190935061073b816106f9565b604085015190925061074c816106f9565b809150509250925092565b5f60208284031215610767575f5ffd5b8151610772816106f9565b9392505050565b5f60208284031215610789575f5ffd5b815160ff81168114610772575f5ffd5b634e487b7160e01b5f52601160045260245ffd5b6001815b60018411156107e8578085048111156107cc576107cc610799565b60018416156107da57908102905b60019390931c9280026107b1565b935093915050565b5f826107fe5750600161064f565b8161080a57505f61064f565b8160018114610820576002811461082a57610846565b600191505061064f565b60ff84111561083b5761083b610799565b50506001821b61064f565b5060208310610133831016604e8410600b8410161715610869575081810a61064f565b6108755f1984846107ad565b805f190482111561088857610888610799565b029392505050565b5f61077260ff8416836107f0565b8082018082111561064f5761064f610799565b82815260408101605483106108d457634e487b7160e01b5f52602160045260245ffd5b8260208301529392505050565b5f602082840312156108f1575f5ffd5b5051919050565b612b6f806109055f395ff3fe608060405234801561000f575f5ffd5b506004361061019e575f3560e01c8062bb07bb146101a2578063055ad42e146101b75780630844697d146101e157806308af604d1461020957806314b19c5a1461022e57806314b5d07f1461023c5780631f6722111461024f57806325a760c214610257578063289a2f761461026b5780632b0088b41461028b57806336021ef4146102a2578063380e443b146102b65780633a0dad8e146102bf5780634585e33b146102d25780634ff0876a146102e55780635488cd621461030a57806358fac65b1461031e5780635dc228a0146103315780636e04ff0d14610344578063715018a6146103655780637158da7c1461036d5780637847ea531461038057806379502c551461038b5780637b1039991461039e5780637cdabf0a146103b1578063800f9fad146103c45780638da5cb5b146103cd578063a08b82d7146103d5578063b8b2af7c146103eb578063c2cb5d8814610400578063ca1f32f114610408578063eeb393c914610411578063f2fde38b14610424578063f83e98fb14610437578063f91b5b2514610440575b5f5ffd5b6101b56101b03660046123b9565b610448565b005b6016546101cb90600160201b900460ff1681565b6040516101d89190612404565b60405180910390f35b6008546101f690600160b81b900461ffff1681565b60405161ffff90911681526020016101d8565b60165461021c9062010000900460ff1681565b60405160ff90911681526020016101d8565b6016546101f69061ffff1681565b6101b561024a366004612432565b610542565b6101b561064b565b60085461021c90600160a01b900460ff1681565b61027e61027936600461244d565b61067c565b6040516101d89190612464565b61029460075481565b6040519081526020016101d8565b60165461021c906301000000900460ff1681565b6101f66105dc81565b60045461027e906001600160a01b031681565b6101b56102e0366004612478565b6106a4565b6014546102f59063ffffffff1681565b60405163ffffffff90911681526020016101d8565b60165461021c90600160281b900460ff1681565b61027e61032c36600461244d565b6108d0565b60025461027e906001600160a01b031681565b610357610352366004612478565b6108df565b6040516101d89291906124e4565b6101b5610c2e565b60085461027e906001600160a01b031681565b6102f56301e1338081565b60035461027e906001600160a01b031681565b60055461027e906001600160a01b031681565b6101b56103bf366004612538565b610c41565b61029460095481565b61027e610d48565b6103dd610d56565b6040516101d8929190612569565b6008546101f690600160a81b900461ffff1681565b6103dd610f8e565b61029460065481565b6101b561041f3660046125f2565b6111bd565b6101b5610432366004612432565b611298565b6101f661271081565b6101f6606481565b6104506112de565b60ff82161580610461575060ff8116155b1561047f576040516317dbc4cb60e21b815260040160405180910390fd5b60035f9054906101000a90046001600160a01b03166001600160a01b031663edcf9c1f6040518163ffffffff1660e01b8152600401602060405180830381865afa1580156104cf573d5f5f3e3d5ffd5b505050506040513d601f19601f820116820180604052508101906104f39190612615565b610510576040516312aecd8160e01b815260040160405180910390fd5b6016805463ffff000019166201000060ff9485160263ff00000019161763010000009290931691909102919091179055565b61054a6112de565b6001600160a01b0381166105715760405163d92e233d60e01b815260040160405180910390fd5b60035f9054906101000a90046001600160a01b03166001600160a01b031663edcf9c1f6040518163ffffffff1660e01b8152600401602060405180830381865afa1580156105c1573d5f5f3e3d5ffd5b505050506040513d601f19601f820116820180604052508101906105e59190612615565b610602576040516312aecd8160e01b815260040160405180910390fd5b600280546001600160a01b0319166001600160a01b0383169081179091556040517f6cc7ebdb6c8c53291c5ae16148cab9b049d23bf5bde5632900b40edff56fcb43905f90a250565b6004546001600160a01b031633146106765760405163ea8e4eb560e01b815260040160405180910390fd5b5f600955565b6019818154811061068b575f80fd5b5f918252602090912001546001600160a01b0316905081565b6002546001600160a01b031633146106cf5760405163ea8e4eb560e01b815260040160405180910390fd5b6106d7611310565b60048110156106f9576040516317dbc4cb60e21b815260040160405180910390fd5b5f6107076004828486612634565b6107109161265b565b90506341659aab60e01b6001600160e01b03198216016107375761073261133a565b6108c2565b6385a5752f60e01b6001600160e01b031982160161077b575f61075d8360048187612634565b81019061076a9190612693565b90506107758161154c565b506108c2565b630a47f11760e31b6001600160e01b03198216016107b9575f6107a18360048187612634565b8101906107ae9190612693565b905061077581611ba9565b6292a80f60e51b6001600160e01b031982160115610732576342e7793160e11b6001600160e01b031982160161080b575f6107f78360048187612634565b8101906108049190612693565b9050610775565b6328991e7160e21b6001600160e01b0319821601610831575f6107f78360048187612634565b63c4b3cef760e01b6001600160e01b03198216016108c257610851611f47565b6016805460ff60201b198116825561ffff16905f61086e836126c2565b82546101009290920a61ffff818102199093169183160217909155601654604051911681527f0bc12479581640d161e016cef21aa834cb6d6326bbc0d8445e58d56403adf2dc915060200160405180910390a15b506108cc60018055565b5050565b6018818154811061068b575f80fd5b5f606060035f9054906101000a90046001600160a01b03166001600160a01b031663edcf9c1f6040518163ffffffff1660e01b8152600401602060405180830381865afa158015610932573d5f5f3e3d5ffd5b505050506040513d601f19601f820116820180604052508101906109569190612615565b801561096457506015544210155b156109b457600191507fbe9a655586dceb82dfa0af992b5d8ae7fa45053cb7fd6f141f541da7572978c760405160200161099e91906126e2565b6040516020818303038152906040529050610c27565b6001601654600160201b900460ff1660068111156109d4576109d46123f0565b03610a1f57600191507f7a5a8ad19124b9a9a3b85c38bfa52d0569e47ecd521fa07a994c99a212fd6ebc601660059054906101000a900460ff1660405160200161099e9291906126f7565b6002601654600160201b900460ff166006811115610a3f57610a3f6123f0565b03610a8a57600191507fadc07748c020721fa2509a842be7e135ee6a8f3685ef12e4010b01343ac867a6601660059054906101000a900460ff1660405160200161099e9291906126f7565b6003601654600160201b900460ff166006811115610aaa57610aaa6123f0565b03610ae457600191507fedaafe206508e00f40674bb87dda745bccfe8a3f3f6d6eaaf6db5f44021a1c1360405160200161099e91906126e2565b6004601654600160201b900460ff166006811115610b0457610b046123f0565b03610b4f57600191507f7a310d9e486906f6c86de6f47e07e2f3a9de08781efe935b9347180861f073ae601660059054906101000a900460ff1660405160200161099e9291906126f7565b6005601654600160201b900460ff166006811115610b6f57610b6f6123f0565b03610bba57600191507f5d9b863c92efabf852670c24f7513610bd4d3f9a36442ea8387edc8a2b0113ef601660059054906101000a900460ff1660405160200161099e9291906126f7565b6006601654600160201b900460ff166006811115610bda57610bda6123f0565b03610c1457600191507f3b4c310984a9fe486c05a56b52659c09d4bf9f3ef9b799ad52ee29a7d805741e60405160200161099e91906126e2565b505060408051602081019091525f808252905b9250929050565b610c366112de565b610c3f5f6120ab565b565b610c496112de565b606461ffff83161180610c6157506105dc61ffff8216115b15610c7f576040516317dbc4cb60e21b815260040160405180910390fd5b60035f9054906101000a90046001600160a01b03166001600160a01b031663edcf9c1f6040518163ffffffff1660e01b8152600401602060405180830381865afa158015610ccf573d5f5f3e3d5ffd5b505050506040513d601f19601f82011682018060405250810190610cf39190612615565b610d10576040516312aecd8160e01b815260040160405180910390fd5b6008805463ffffffff60a81b1916600160a81b61ffff9485160261ffff60b81b191617600160b81b9290931691909102919091179055565b5f546001600160a01b031690565b601180546040805160208084028201810190925282815260609384935f93830182828015610dab57602002820191905f5260205f20905b81546001600160a01b03168152600190910190602001808311610d8d575b505083519394505f9250829150505b8261ffff168161ffff161015610e2b575f600a6006015f868461ffff1681518110610de757610de761271e565b60200260200101516001600160a01b03166001600160a01b031681526020019081526020015f20541115610e235781610e1f816126c2565b9250505b600101610dba565b508061ffff166001600160401b03811115610e4857610e48612732565b604051908082528060200260200182016040528015610e71578160200160208202803683370190505b5094508061ffff166001600160401b03811115610e9057610e90612732565b604051908082528060200260200182016040528015610eb9578160200160208202803683370190505b5093505f805b8361ffff168161ffff161015610f85575f858261ffff1681518110610ee657610ee661271e565b6020908102919091018101516001600160a01b0381165f90815260109092526040909120549091508015610f7b5781898561ffff1681518110610f2b57610f2b61271e565b60200260200101906001600160a01b031690816001600160a01b03168152505080888561ffff1681518110610f6257610f6261271e565b602090810291909101015283610f77816126c2565b9450505b5050600101610ebf565b50505050509091565b601180546040805160208084028201810190925282815260609384935f93830182828015610fe357602002820191905f5260205f20905b81546001600160a01b03168152600190910190602001808311610fc5575b505083519394505f9250829150505b8261ffff168161ffff161015611063575f600a6005015f868461ffff168151811061101f5761101f61271e565b60200260200101516001600160a01b03166001600160a01b031681526020019081526020015f2054111561105b5781611057816126c2565b9250505b600101610ff2565b508061ffff166001600160401b0381111561108057611080612732565b6040519080825280602002602001820160405280156110a9578160200160208202803683370190505b5094508061ffff166001600160401b038111156110c8576110c8612732565b6040519080825280602002602001820160405280156110f1578160200160208202803683370190505b5093505f805b8361ffff168161ffff161015610f85575f858261ffff168151811061111e5761111e61271e565b6020908102919091018101516001600160a01b0381165f908152600f90925260409091205490915080156111b35781898561ffff16815181106111635761116361271e565b60200260200101906001600160a01b031690816001600160a01b03168152505080888561ffff168151811061119a5761119a61271e565b6020908102919091010152836111af816126c2565b9450505b50506001016110f7565b6111c56112de565b8063ffffffff165f036111eb576040516317dbc4cb60e21b815260040160405180910390fd5b60035f9054906101000a90046001600160a01b03166001600160a01b031663edcf9c1f6040518163ffffffff1660e01b8152600401602060405180830381865afa15801561123b573d5f5f3e3d5ffd5b505050506040513d601f19601f8201168201806040525081019061125f9190612615565b61127c576040516312aecd8160e01b815260040160405180910390fd5b6014805463ffffffff191663ffffffff92909216919091179055565b6112a06112de565b6001600160a01b0381166112d2575f604051631e4fbdf760e01b81526004016112c99190612464565b60405180910390fd5b6112db816120ab565b50565b336112e7610d48565b6001600160a01b031614610c3f573360405163118cdaa760e01b81526004016112c99190612464565b60026001540361133357604051633ee5aeb560e01b815260040160405180910390fd5b6002600155565b60155442101561135d5760405163085de62560e01b815260040160405180910390fd5b611366426120fa565b6015555f5b60115461ffff8216101561141e575f600a6007018261ffff16815481106113945761139461271e565b5f9182526020808320909101546001600160a01b03168252600b81526040808320839055600c8252808320839055600d8252808320839055600e8252808320839055600f82528083208390556010825280832083905560128252808320805460ff19908116909155600a909252909120805490911690555080611416816126c2565b91505061136b565b5061142a60115f612319565b600354604051631da09e4360e31b81526001600160a01b039091169063ed04f2189061145a905f90600401612746565b5f60405180830381865afa158015611474573d5f5f3e3d5ffd5b505050506040513d5f823e601f3d908101601f1916820160405261149b919081019061281f565b80516114af91601891602090910190612334565b50600354604051631da09e4360e31b81526001600160a01b039091169063ed04f218906114e190600190600401612746565b5f60405180830381865afa1580156114fb573d5f5f3e3d5ffd5b505050506040513d5f823e601f3d908101601f19168201604052611522919081019061281f565b805161153691601991602090910190612334565b506016805460ff60201b1916600160201b179055565b60168054600160281b900460ff1690600561156683612858565b91906101000a81548160ff021916908360ff160217905550505f601660029054906101000a900460ff168261159b919061286d565b60165460ff91821692505f916115b8916201000090041683612889565b60185490915061ffff821611156115e257506018546016805461ffff60201b1916600160211b1790555b815b8161ffff168161ffff161015611ba3575f60188261ffff168154811061160c5761160c61271e565b905f5260205f20015f9054906101000a90046001600160a01b031690505f5f826001600160a01b031663d3d034586040518163ffffffff1660e01b81526004015f60405180830381865afa158015611666573d5f5f3e3d5ffd5b505050506040513d5f823e601f3d908101601f1916820160405261168d91908101906128a3565b90925090505f805b83518161ffff16101561190f575f848261ffff16815181106116b9576116b961271e565b6020908102919091018101516001600160a01b0381165f908152600a909252604082205490925060ff16900361177357806001600160a01b031663313ce5676040518163ffffffff1660e01b8152600401602060405180830381865afa158015611725573d5f5f3e3d5ffd5b505050506040513d601f19601f820116820180604052508101906117499190612961565b6001600160a01b0382165f908152600a60205260409020805460ff191660ff929092169190911790555b6001600160a01b0381165f908152600a6020908152604080832054600b90925282205460ff90911691819003611865576008546001600160a01b03908116908416036117d8576008546117d190600160a01b900460ff16600a612a5f565b905061184a565b6005546040516341976e0960e01b81526001600160a01b03909116906341976e0990611808908690600401612464565b602060405180830381865afa158015611823573d5f5f3e3d5ffd5b505050506040513d601f19601f820116820180604052508101906118479190612a6d565b90505b6001600160a01b0383165f908152600b602052604090208190555b5f6118b161189d888761ffff16815181106118825761188261271e565b6020026020010151600654856121159092919063ffffffff16565b6008548590600160a01b900460ff166121c6565b90506118bd8187612a84565b6001600160a01b0385165f908152600c60205260408120805492985083929091906118e9908490612a84565b909155506118f8905084612230565b505050508080611907906126c2565b915050611695565b506008545f9061192d90600160a81b900461ffff1683612710612115565b60145490915061194e90829063ffffffff908116906301e133809061211516565b90508060095f8282546119619190612a84565b9091555061197190508183612a97565b60405163728d42fb60e11b8152600481018290529092505f906001600160a01b0387169063e51a85f690602401602060405180830381865afa1580156119b9573d5f5f3e3d5ffd5b505050506040513d601f19601f820116820180604052508101906119dd9190612a6d565b90506119e98184612a97565b6008549093505f90611a0990600160b81b900461ffff1683612710612115565b90508060095f828254611a1c9190612a84565b90915550611a2c90508183612a97565b91505f876001600160a01b031663a68a5267896001600160a01b031663c37fc8a86040518163ffffffff1660e01b8152600401602060405180830381865afa158015611a7a573d5f5f3e3d5ffd5b505050506040513d601f19601f82011682018060405250810190611a9e9190612a6d565b875f6040518463ffffffff1660e01b8152600401611abe93929190612aaa565b602060405180830381865afa158015611ad9573d5f5f3e3d5ffd5b505050506040513d601f19601f82011682018060405250810190611afd9190612a6d565b905080886001600160a01b031663d1699c266040518163ffffffff1660e01b8152600401602060405180830381865afa158015611b3c573d5f5f3e3d5ffd5b505050506040513d601f19601f82011682018060405250810190611b609190612a6d565b611b6a9190612a97565b611b749086612a84565b6001600160a01b039098165f908152600d60205260409020979097555050600190950194506115e49350505050565b50505050565b611bb1611310565b60168054600160281b900460ff16906005611bcb83612858565b91906101000a81548160ff021916908360ff160217905550505f601660039054906101000a900460ff1682611c00919061286d565b60165460ff91821692505f91611c1e91630100000090041683612889565b60195490915061ffff82161115611c4857506019546016805461ffff60201b1916600360201b1790555b815b8161ffff168161ffff161015611f3b575f60198261ffff1681548110611c7257611c7261271e565b5f918252602091829020015460408051631b9d6fc560e31b815290516001600160a01b039092169350839263dceb7e28926004808401938290030181865afa158015611cc0573d5f5f3e3d5ffd5b505050506040513d601f19601f82011682018060405250810190611ce49190612615565b611cee5750611f33565b5f5f826001600160a01b031663d3d034586040518163ffffffff1660e01b81526004015f60405180830381865afa158015611d2b573d5f5f3e3d5ffd5b505050506040513d5f823e601f3d908101601f19168201604052611d5291908101906128a3565b90925090505f5b82518161ffff161015611f2e575f838261ffff1681518110611d7d57611d7d61271e565b6020908102919091018101516001600160a01b0381165f908152600a909252604082205490925060ff169003611e3757806001600160a01b031663313ce5676040518163ffffffff1660e01b8152600401602060405180830381865afa158015611de9573d5f5f3e3d5ffd5b505050506040513d601f19601f82011682018060405250810190611e0d9190612961565b6001600160a01b0382165f908152600a60205260409020805460ff191660ff929092169190911790555b6001600160a01b0381165f908152600b602052604081205490819003611f19576008546001600160a01b0390811690831603611e8c57600854611e8590600160a01b900460ff16600a612a5f565b9050611efe565b6005546040516341976e0960e01b81526001600160a01b03909116906341976e0990611ebc908590600401612464565b602060405180830381865afa158015611ed7573d5f5f3e3d5ffd5b505050506040513d601f19601f82011682018060405250810190611efb9190612a6d565b90505b6001600160a01b0382165f908152600b602052604090208190555b50508080611f26906126c2565b915050611d59565b505050505b600101611c4a565b5050506112db60018055565b5f600a600701805480602002602001604051908101604052809291908181526020018280548015611f9f57602002820191905f5260205f20905b81546001600160a01b03168152600190910190602001808311611f81575b505083519394505f925050505b8161ffff168161ffff1610156120a6575f838261ffff1681518110611fd357611fd361271e565b6020908102919091018101516001600160a01b0381165f908152600c8352604080822054600e855281832054600a909552912054919350919060ff1681831115612069575f6120228385612a97565b6001600160a01b0386165f908152600b6020526040812054919250906120499083856122b5565b6001600160a01b0387165f908152600f6020526040902055506120969050565b82821115612096575f61207c8484612a97565b6001600160a01b0386165f90815260106020526040902055505b505060019092019150611fac9050565b505050565b5f80546001600160a01b038381166001600160a01b0319831681178455604051919092169283917f8be0079c531659141344cd1fd0a4f28419497f9722a3daafe3b4186f6b6457e09190a35050565b6014545f9061210f9063ffffffff1683612a84565b92915050565b5f5f5f61212286866122ec565b91509150815f036121465783818161213c5761213c612ad6565b04925050506121bf565b81841161215d5761215d6003851502601118612308565b5f848688095f868103871696879004966002600389028118808a02820302808a02820302808a02820302808a02820302808a02820302808a02909103029181900381900460010185841190960395909502919093039390930492909217029150505b9392505050565b5f8260ff168260ff1611156121fb576121df8383612aea565b6121ea90600a612a5f565b6121f49085612b03565b90506121bf565b8260ff168260ff161015612228576122138284612aea565b61221e90600a612a5f565b6121f49085612b1a565b509192915050565b6001600160a01b0381165f9081526012602052604090205460ff166112db576011805460018181019092557f31ecc21a745e3968a04e9570e4425bc18fa8019c68028196b546d1669c200c680180546001600160a01b0384166001600160a01b031990911681179091555f908152601260205260409020805460ff1916909117905550565b5f5f6122d184600860149054906101000a900460ff16856121c6565b6006549091506122e390829087612115565b95945050505050565b5f805f1983850993909202808410938190039390930393915050565b634e487b715f52806020526024601cfd5b5080545f8255905f5260205f20908101906112db9190612397565b828054828255905f5260205f20908101928215612387579160200282015b8281111561238757825182546001600160a01b0319166001600160a01b03909116178255602090920191600190910190612352565b50612393929150612397565b5090565b5b80821115612393575f8155600101612398565b60ff811681146112db575f5ffd5b5f5f604083850312156123ca575f5ffd5b82356123d5816123ab565b915060208301356123e5816123ab565b809150509250929050565b634e487b7160e01b5f52602160045260245ffd5b6020810160078310612418576124186123f0565b91905290565b6001600160a01b03811681146112db575f5ffd5b5f60208284031215612442575f5ffd5b81356121bf8161241e565b5f6020828403121561245d575f5ffd5b5035919050565b6001600160a01b0391909116815260200190565b5f5f60208385031215612489575f5ffd5b82356001600160401b0381111561249e575f5ffd5b8301601f810185136124ae575f5ffd5b80356001600160401b038111156124c3575f5ffd5b8560208284010111156124d4575f5ffd5b6020919091019590945092505050565b8215158152604060208201525f82518060408401528060208501606085015e5f606082850101526060601f19601f8301168401019150509392505050565b803561ffff81168114612533575f5ffd5b919050565b5f5f60408385031215612549575f5ffd5b61255283612522565b915061256060208401612522565b90509250929050565b604080825283519082018190525f9060208501906060840190835b818110156125ab5783516001600160a01b0316835260209384019390920191600101612584565b5050838103602080860191909152855180835291810192508501905f5b818110156125e65782518452602093840193909201916001016125c8565b50919695505050505050565b5f60208284031215612602575f5ffd5b813563ffffffff811681146121bf575f5ffd5b5f60208284031215612625575f5ffd5b815180151581146121bf575f5ffd5b5f5f85851115612642575f5ffd5b8386111561264e575f5ffd5b5050820193919092039150565b80356001600160e01b0319811690600484101561268c576001600160e01b0319600485900360031b81901b82161691505b5092915050565b5f602082840312156126a3575f5ffd5b81356121bf816123ab565b634e487b7160e01b5f52601160045260245ffd5b5f61ffff821661ffff81036126d9576126d96126ae565b60010192915050565b6001600160e01b031991909116815260040190565b6001600160e01b031992909216825260f81b6001600160f81b031916600482015260050190565b634e487b7160e01b5f52603260045260245ffd5b634e487b7160e01b5f52604160045260245ffd5b6020810160028310612418576124186123f0565b604051601f8201601f191681016001600160401b038111828210171561278257612782612732565b604052919050565b5f6001600160401b038211156127a2576127a2612732565b5060051b60200190565b5f82601f8301126127bb575f5ffd5b81516127ce6127c98261278a565b61275a565b8082825260208201915060208360051b8601019250858311156127ef575f5ffd5b602085015b838110156128155780516128078161241e565b8352602092830192016127f4565b5095945050505050565b5f6020828403121561282f575f5ffd5b81516001600160401b03811115612844575f5ffd5b612850848285016127ac565b949350505050565b5f60ff821660ff81036126d9576126d96126ae565b60ff818116838216029081169081811461268c5761268c6126ae565b61ffff818116838216019081111561210f5761210f6126ae565b5f5f604083850312156128b4575f5ffd5b82516001600160401b038111156128c9575f5ffd5b6128d5858286016127ac565b602085015190935090506001600160401b038111156128f2575f5ffd5b8301601f81018513612902575f5ffd5b80516129106127c98261278a565b8082825260208201915060208360051b850101925087831115612931575f5ffd5b6020840193505b82841015612953578351825260209384019390910190612938565b809450505050509250929050565b5f60208284031215612971575f5ffd5b81516121bf816123ab565b6001815b60018411156129b75780850481111561299b5761299b6126ae565b60018416156129a957908102905b60019390931c928002612980565b935093915050565b5f826129cd5750600161210f565b816129d957505f61210f565b81600181146129ef57600281146129f957612a15565b600191505061210f565b60ff841115612a0a57612a0a6126ae565b50506001821b61210f565b5060208310610133831016604e8410600b8410161715612a38575081810a61210f565b612a445f19848461297c565b805f1904821115612a5757612a576126ae565b029392505050565b5f6121bf60ff8416836129bf565b5f60208284031215612a7d575f5ffd5b5051919050565b8082018082111561210f5761210f6126ae565b8181038181111561210f5761210f6126ae565b838152602081018390526060810160048310612ac857612ac86123f0565b826040830152949350505050565b634e487b7160e01b5f52601260045260245ffd5b60ff828116828216039081111561210f5761210f6126ae565b808202811582820484141761210f5761210f6126ae565b5f82612b3457634e487b7160e01b5f52601260045260245ffd5b50049056fea2646970667358221220573c9ee29f840ed40ebc2ff0c12c721d9b44ee579c214fd1f7f2ad40479eb73264736f6c634300081c0033ed8d60e34876f751cc8b014c560745351147d9de11b9347c854e881b128ea600ed8d60e34876f751cc8b014c560745351147d9de11b9347c854e881b128ea601",
  "linkReferences": {},
  "deployedLinkReferences": {}
}