{
  "_format": "hh-sol-artifact-1",
  "contractName": "InternalStatesOrchestrator",
  "sourceName": "contracts/orchestrators/InternalStatesOrchestrator.sol",
  "abi": [
    {
      "inputs": [
        {
          "internalType": "address",
          "name": "initialOwner",
          "type": "address"
        },
        {
          "internalType": "address",
          "name": "config_",
          "type": "address"
        },
        {
          "internalType": "address",
          "name": "automationRegistry_",
          "type": "address"
        }
      ],
      "stateMutability": "nonpayable",
      "type": "constructor"
    },
    {
      "inputs": [],
      "name": "InsufficientAmount",
      "type": "error"
    },
    {
      "inputs": [],
      "name": "InvalidArguments",
      "type": "error"
    },
    {
      "inputs": [],
      "name": "InvalidState",
      "type": "error"
    },
    {
      "inputs": [],
      "name": "NotAuthorized",
      "type": "error"
    },
    {
      "inputs": [
        {
          "internalType": "address",
          "name": "owner",
          "type": "address"
        }
      ],
      "name": "OwnableInvalidOwner",
      "type": "error"
    },
    {
      "inputs": [
        {
          "internalType": "address",
          "name": "account",
          "type": "address"
        }
      ],
      "name": "OwnableUnauthorizedAccount",
      "type": "error"
    },
    {
      "inputs": [],
      "name": "ReentrancyGuardReentrantCall",
      "type": "error"
    },
    {
      "inputs": [],
      "name": "SystemNotIdle",
      "type": "error"
    },
    {
      "inputs": [],
      "name": "TooEarly",
      "type": "error"
    },
    {
      "inputs": [],
      "name": "ZeroAddress",
      "type": "error"
    },
    {
      "anonymous": false,
      "inputs": [
        {
          "indexed": true,
          "internalType": "address",
          "name": "newAutomationRegistry",
          "type": "address"
        }
      ],
      "name": "AutomationRegistryUpdated",
      "type": "event"
    },
    {
      "anonymous": false,
      "inputs": [
        {
          "indexed": true,
          "internalType": "uint16",
          "name": "epochCounter",
          "type": "uint16"
        }
      ],
      "name": "InternalStateProcessed",
      "type": "event"
    },
    {
      "anonymous": false,
      "inputs": [
        {
          "indexed": true,
          "internalType": "address",
          "name": "previousOwner",
          "type": "address"
        },
        {
          "indexed": true,
          "internalType": "address",
          "name": "newOwner",
          "type": "address"
        }
      ],
      "name": "OwnershipTransferred",
      "type": "event"
    },
    {
      "inputs": [],
      "name": "BASIS_POINTS_FACTOR",
      "outputs": [
        {
          "internalType": "uint16",
          "name": "",
          "type": "uint16"
        }
      ],
      "stateMutability": "view",
      "type": "function"
    },
    {
      "inputs": [],
      "name": "MAX_EPOCH_DURATION",
      "outputs": [
        {
          "internalType": "uint32",
          "name": "",
          "type": "uint32"
        }
      ],
      "stateMutability": "view",
      "type": "function"
    },
    {
      "inputs": [],
      "name": "MAX_TRANSPARENT_MINIBATCH_SIZE",
      "outputs": [
        {
          "internalType": "uint8",
          "name": "",
          "type": "uint8"
        }
      ],
      "stateMutability": "view",
      "type": "function"
    },
    {
      "inputs": [],
      "name": "automationRegistry",
      "outputs": [
        {
          "internalType": "address",
          "name": "",
          "type": "address"
        }
      ],
      "stateMutability": "view",
      "type": "function"
    },
    {
      "inputs": [],
      "name": "bufferAmount",
      "outputs": [
        {
          "internalType": "uint256",
          "name": "",
          "type": "uint256"
        }
      ],
      "stateMutability": "view",
      "type": "function"
    },
    {
      "inputs": [
        {
          "internalType": "bytes",
          "name": "",
          "type": "bytes"
        }
      ],
      "name": "checkUpkeep",
      "outputs": [
        {
          "internalType": "bool",
          "name": "upkeepNeeded",
          "type": "bool"
        },
        {
          "internalType": "bytes",
          "name": "performData",
          "type": "bytes"
        }
      ],
      "stateMutability": "view",
      "type": "function"
    },
    {
      "inputs": [],
      "name": "config",
      "outputs": [
        {
          "internalType": "contract IOrionConfig",
          "name": "",
          "type": "address"
        }
      ],
      "stateMutability": "view",
      "type": "function"
    },
    {
      "inputs": [],
      "name": "currentMinibatchIndex",
      "outputs": [
        {
          "internalType": "uint8",
          "name": "",
          "type": "uint8"
        }
      ],
      "stateMutability": "view",
      "type": "function"
    },
    {
      "inputs": [],
      "name": "currentPhase",
      "outputs": [
        {
          "internalType": "enum IInternalStateOrchestrator.InternalUpkeepPhase",
          "name": "",
          "type": "uint8"
        }
      ],
      "stateMutability": "view",
      "type": "function"
    },
    {
      "inputs": [],
      "name": "epochCounter",
      "outputs": [
        {
          "internalType": "uint16",
          "name": "",
          "type": "uint16"
        }
      ],
      "stateMutability": "view",
      "type": "function"
    },
    {
      "inputs": [],
      "name": "epochDuration",
      "outputs": [
        {
          "internalType": "uint32",
          "name": "",
          "type": "uint32"
        }
      ],
      "stateMutability": "view",
      "type": "function"
    },
    {
      "inputs": [],
      "name": "getEpochTokens",
      "outputs": [
        {
          "internalType": "address[]",
          "name": "tokens",
          "type": "address[]"
        }
      ],
      "stateMutability": "view",
      "type": "function"
    },
    {
      "inputs": [],
      "name": "getOrders",
      "outputs": [
        {
          "internalType": "address[]",
          "name": "sellingTokens",
          "type": "address[]"
        },
        {
          "internalType": "uint256[]",
          "name": "sellingAmounts",
          "type": "uint256[]"
        },
        {
          "internalType": "address[]",
          "name": "buyingTokens",
          "type": "address[]"
        },
        {
          "internalType": "uint256[]",
          "name": "buyingAmounts",
          "type": "uint256[]"
        },
        {
          "internalType": "uint256[]",
          "name": "sellingEstimatedUnderlyingAmounts",
          "type": "uint256[]"
        },
        {
          "internalType": "uint256[]",
          "name": "buyingEstimatedUnderlyingAmounts",
          "type": "uint256[]"
        }
      ],
      "stateMutability": "view",
      "type": "function"
    },
    {
      "inputs": [
        {
          "internalType": "address",
          "name": "token",
          "type": "address"
        }
      ],
      "name": "getPriceOf",
      "outputs": [
        {
          "internalType": "uint256",
          "name": "price",
          "type": "uint256"
        }
      ],
      "stateMutability": "view",
      "type": "function"
    },
    {
      "inputs": [],
      "name": "getTransparentVaultsEpoch",
      "outputs": [
        {
          "internalType": "address[]",
          "name": "vaults",
          "type": "address[]"
        }
      ],
      "stateMutability": "view",
      "type": "function"
    },
    {
      "inputs": [
        {
          "internalType": "address",
          "name": "vault",
          "type": "address"
        }
      ],
      "name": "getVaultTotalAssetsForFulfillDeposit",
      "outputs": [
        {
          "internalType": "uint256",
          "name": "totalAssets",
          "type": "uint256"
        }
      ],
      "stateMutability": "view",
      "type": "function"
    },
    {
      "inputs": [
        {
          "internalType": "address",
          "name": "vault",
          "type": "address"
        }
      ],
      "name": "getVaultTotalAssetsForFulfillRedeem",
      "outputs": [
        {
          "internalType": "uint256",
          "name": "totalAssets",
          "type": "uint256"
        }
      ],
      "stateMutability": "view",
      "type": "function"
    },
    {
      "inputs": [],
      "name": "intentFactor",
      "outputs": [
        {
          "internalType": "uint256",
          "name": "",
          "type": "uint256"
        }
      ],
      "stateMutability": "view",
      "type": "function"
    },
    {
      "inputs": [],
      "name": "liquidityOrchestrator",
      "outputs": [
        {
          "internalType": "contract ILiquidityOrchestrator",
          "name": "",
          "type": "address"
        }
      ],
      "stateMutability": "view",
      "type": "function"
    },
    {
      "inputs": [],
      "name": "owner",
      "outputs": [
        {
          "internalType": "address",
          "name": "",
          "type": "address"
        }
      ],
      "stateMutability": "view",
      "type": "function"
    },
    {
      "inputs": [],
      "name": "pendingProtocolFees",
      "outputs": [
        {
          "internalType": "uint256",
          "name": "",
          "type": "uint256"
        }
      ],
      "stateMutability": "view",
      "type": "function"
    },
    {
      "inputs": [
        {
          "internalType": "bytes",
          "name": "",
          "type": "bytes"
        }
      ],
      "name": "performUpkeep",
      "outputs": [],
      "stateMutability": "nonpayable",
      "type": "function"
    },
    {
      "inputs": [],
      "name": "priceAdapterPrecision",
      "outputs": [
        {
          "internalType": "uint256",
          "name": "",
          "type": "uint256"
        }
      ],
      "stateMutability": "view",
      "type": "function"
    },
    {
      "inputs": [],
      "name": "registry",
      "outputs": [
        {
          "internalType": "contract IPriceAdapterRegistry",
          "name": "",
          "type": "address"
        }
      ],
      "stateMutability": "view",
      "type": "function"
    },
    {
      "inputs": [],
      "name": "renounceOwnership",
      "outputs": [],
      "stateMutability": "nonpayable",
      "type": "function"
    },
    {
      "inputs": [],
      "name": "rsFeeCoefficient",
      "outputs": [
        {
          "internalType": "uint16",
          "name": "",
          "type": "uint16"
        }
      ],
      "stateMutability": "view",
      "type": "function"
    },
    {
      "inputs": [
        {
          "internalType": "uint256",
          "name": "amount",
          "type": "uint256"
        }
      ],
      "name": "subtractPendingProtocolFees",
      "outputs": [],
      "stateMutability": "nonpayable",
      "type": "function"
    },
    {
      "inputs": [
        {
          "internalType": "address",
          "name": "newOwner",
          "type": "address"
        }
      ],
      "name": "transferOwnership",
      "outputs": [],
      "stateMutability": "nonpayable",
      "type": "function"
    },
    {
      "inputs": [],
      "name": "transparentMinibatchSize",
      "outputs": [
        {
          "internalType": "uint8",
          "name": "",
          "type": "uint8"
        }
      ],
      "stateMutability": "view",
      "type": "function"
    },
    {
      "inputs": [
        {
          "internalType": "uint256",
          "name": "",
          "type": "uint256"
        }
      ],
      "name": "transparentVaultsEpoch",
      "outputs": [
        {
          "internalType": "address",
          "name": "",
          "type": "address"
        }
      ],
      "stateMutability": "view",
      "type": "function"
    },
    {
      "inputs": [],
      "name": "underlyingAsset",
      "outputs": [
        {
          "internalType": "address",
          "name": "",
          "type": "address"
        }
      ],
      "stateMutability": "view",
      "type": "function"
    },
    {
      "inputs": [],
      "name": "underlyingDecimals",
      "outputs": [
        {
          "internalType": "uint8",
          "name": "",
          "type": "uint8"
        }
      ],
      "stateMutability": "view",
      "type": "function"
    },
    {
      "inputs": [
        {
          "internalType": "address",
          "name": "newAutomationRegistry",
          "type": "address"
        }
      ],
      "name": "updateAutomationRegistry",
      "outputs": [],
      "stateMutability": "nonpayable",
      "type": "function"
    },
    {
      "inputs": [
        {
          "internalType": "int256",
          "name": "deltaAmount",
          "type": "int256"
        }
      ],
      "name": "updateBufferAmount",
      "outputs": [],
      "stateMutability": "nonpayable",
      "type": "function"
    },
    {
      "inputs": [
        {
          "internalType": "uint32",
          "name": "newEpochDuration",
          "type": "uint32"
        }
      ],
      "name": "updateEpochDuration",
      "outputs": [],
      "stateMutability": "nonpayable",
      "type": "function"
    },
    {
      "inputs": [
        {
          "internalType": "uint8",
          "name": "_transparentMinibatchSize",
          "type": "uint8"
        }
      ],
      "name": "updateMinibatchSize",
      "outputs": [],
      "stateMutability": "nonpayable",
      "type": "function"
    },
    {
      "inputs": [
        {
          "internalType": "uint16",
          "name": "_vFeeCoefficient",
          "type": "uint16"
        },
        {
          "internalType": "uint16",
          "name": "_rsFeeCoefficient",
          "type": "uint16"
        }
      ],
      "name": "updateProtocolFees",
      "outputs": [],
      "stateMutability": "nonpayable",
      "type": "function"
    },
    {
      "inputs": [],
      "name": "vFeeCoefficient",
      "outputs": [
        {
          "internalType": "uint16",
          "name": "",
          "type": "uint16"
        }
      ],
      "stateMutability": "view",
      "type": "function"
    }
  ],
  "bytecode": "0x608060405234801561000f575f5ffd5b506040516139bf3803806139bf83398101604081905261002e916104b6565b826001600160a01b03811661005c57604051631e4fbdf760e01b81525f600482015260240160405180910390fd5b61006581610450565b50600180556001600160a01b0382166100915760405163d92e233d60e01b815260040160405180910390fd5b6001600160a01b0381166100b85760405163d92e233d60e01b815260040160405180910390fd5b600380546001600160a01b0319166001600160a01b0384169081179091556040805163015df99360e01b8152905163015df993916004808201926020929091908290030181865afa15801561010f573d5f5f3e3d5ffd5b505050506040513d601f19601f820116820180604052508101906101339190610500565b600580546001600160a01b0319166001600160a01b039283161790556003546040805163d1717c7d60e01b81529051919092169163d1717c7d9160048083019260209291908290030181865afa15801561018f573d5f5f3e3d5ffd5b505050506040513d601f19601f820116820180604052508101906101b39190610522565b6101be90600a61063b565b60075560035460408051631c56369f60e21b815290516001600160a01b0390921691637158da7c916004808201926020929091908290030181865afa158015610209573d5f5f3e3d5ffd5b505050506040513d601f19601f8201168201806040525081019061022d9190610500565b600880546001600160a01b0319166001600160a01b03928316908117909155600354604051633c2e3e7b60e11b815260048101929092529091169063785c7cf690602401602060405180830381865afa15801561028c573d5f5f3e3d5ffd5b505050506040513d601f19601f820116820180604052508101906102b09190610522565b600860146101000a81548160ff021916908360ff16021790555060035f9054906101000a90046001600160a01b03166001600160a01b031663567ba7136040518163ffffffff1660e01b8152600401602060405180830381865afa15801561031a573d5f5f3e3d5ffd5b505050506040513d601f19601f8201168201806040525081019061033e9190610522565b61034990600a61063b565b6006556016805462ff0000191662010000179055600280546001600160a01b038084166001600160a01b03199092169190911790915560035460408051631d06d6c760e11b815290519190921691633a0dad8e9160048281019260209291908290030181865afa1580156103bf573d5f5f3e3d5ffd5b505050506040513d601f19601f820116820180604052508101906103e39190610500565b600480546001600160a01b0319166001600160a01b0392909216919091179055601480546201518063ffffffff1990911681179091556104239042610649565b60155550506016805464ffff00ffff19169055506008805463ffffffff60a81b191690555f60185561065c565b5f80546001600160a01b038381166001600160a01b0319831681178455604051919092169283917f8be0079c531659141344cd1fd0a4f28419497f9722a3daafe3b4186f6b6457e09190a35050565b6001600160a01b03811681146104b3575f5ffd5b50565b5f5f5f606084860312156104c8575f5ffd5b83516104d38161049f565b60208501519093506104e48161049f565b60408501519092506104f58161049f565b809150509250925092565b5f60208284031215610510575f5ffd5b815161051b8161049f565b9392505050565b5f60208284031215610532575f5ffd5b815160ff8116811461051b575f5ffd5b634e487b7160e01b5f52601160045260245ffd5b6001815b60018411156105915780850481111561057557610575610542565b600184161561058357908102905b60019390931c92800261055a565b935093915050565b5f826105a757506001610635565b816105b357505f610635565b81600181146105c957600281146105d3576105ef565b6001915050610635565b60ff8411156105e4576105e4610542565b50506001821b610635565b5060208310610133831016604e8410600b8410161715610612575081810a610635565b61061e5f198484610556565b805f190482111561063157610631610542565b0290505b92915050565b5f61051b60ff841683610599565b8082018082111561063557610635610542565b613356806106695f395ff3fe608060405234801561000f575f5ffd5b50600436106101c0575f3560e01c8063055ad42e146101c45780630844697d146101ee57806308af604d14610216578063132b1c921461023b57806314b19c5a1461027157806314b5d07f1461027f57806325a760c2146102945780632b0088b4146102a85780632e2dc43e146102b15780633a0dad8e146102cb5780634585e33b146102eb5780634f17a2fa146102fe5780634ff0876a1461031d5780635488cd621461032d57806358fac65b146103415780635dc228a0146103545780636e04ff0d146103675780636ff0415314610388578063706044451461039d578063715018a6146103b05780637158da7c146103b857806379502c55146103cb5780637b103999146103de5780637bced9e5146103f15780637cdabf0a146103f9578063800f9fad1461040c5780638da5cb5b146104155780638f5c94651461041d5780639f2124cb14610426578063b8b2af7c1461042e578063ba96ff1114610443578063c18e2a5c1461046b578063ca1f32f114610474578063e2638ff11461047d578063e2c4aaec146104a5578063e6c3efd9146104b8578063eeb393c9146104cb578063f2fde38b146104de575b5f5ffd5b6016546101d8906301000000900460ff1681565b6040516101e59190612ab7565b60405180910390f35b60085461020390600160b81b900461ffff1681565b60405161ffff90911681526020016101e5565b6016546102299062010000900460ff1681565b60405160ff90911681526020016101e5565b610263610249366004612ae5565b6001600160a01b03165f908152600f602052604090205490565b6040519081526020016101e5565b6016546102039061ffff1681565b61029261028d366004612ae5565b6104f1565b005b60085461022990600160a01b900460ff1681565b61026360075481565b6102b96105fa565b6040516101e596959493929190612b73565b6004546102de906001600160a01b031681565b6040516101e59190612bf4565b6102926102f9366004612c08565b610876565b6103086212750081565b60405163ffffffff90911681526020016101e5565b6014546103089063ffffffff1681565b60165461022990600160201b900460ff1681565b6102de61034f366004612c74565b610a24565b6002546102de906001600160a01b031681565b61037a610375366004612c08565b610a4c565b6040516101e5929190612c8b565b610390610bb2565b6040516101e59190612cc9565b6102926103ab366004612c74565b610c15565b610292610c7c565b6008546102de906001600160a01b031681565b6003546102de906001600160a01b031681565b6005546102de906001600160a01b031681565b610229600881565b610292610407366004612cf1565b610c8f565b61026360095481565b6102de610d96565b61020361271081565b610390610da4565b60085461020390600160a81b900461ffff1681565b610263610451366004612ae5565b6001600160a01b03165f908152600a602052604090205490565b61026360185481565b61026360065481565b61026361048b366004612ae5565b6001600160a01b03165f908152600e602052604090205490565b6102926104b3366004612c74565b610e02565b6102926104c6366004612d30565b610e75565b6102926104d9366004612d5c565b610f74565b6102926104ec366004612ae5565b611091565b6104f96110d4565b6001600160a01b0381166105205760405163d92e233d60e01b815260040160405180910390fd5b60035f9054906101000a90046001600160a01b03166001600160a01b031663edcf9c1f6040518163ffffffff1660e01b8152600401602060405180830381865afa158015610570573d5f5f3e3d5ffd5b505050506040513d601f19601f820116820180604052508101906105949190612d77565b6105b1576040516312aecd8160e01b815260040160405180910390fd5b600280546001600160a01b0319166001600160a01b0383169081179091556040517f6cc7ebdb6c8c53291c5ae16148cab9b049d23bf5bde5632900b40edff56fcb43905f90a250565b606080808080805f6016546301000000900460ff16600481111561062057610620612aa3565b1461063e576040516312aecd8160e01b815260040160405180910390fd5b5f600a60080180548060200260200160405190810160405280929190818152602001828054801561069657602002820191905f5260205f20905b81546001600160a01b03168152600190910190602001808311610678575b505050505090505f5f6106a883611106565b915091508161ffff166001600160401b038111156106c8576106c8612d96565b6040519080825280602002602001820160405280156106f1578160200160208202803683370190505b5098508161ffff166001600160401b0381111561071057610710612d96565b604051908082528060200260200182016040528015610739578160200160208202803683370190505b5097508061ffff166001600160401b0381111561075857610758612d96565b604051908082528060200260200182016040528015610781578160200160208202803683370190505b5096508061ffff166001600160401b038111156107a0576107a0612d96565b6040519080825280602002602001820160405280156107c9578160200160208202803683370190505b5095508161ffff166001600160401b038111156107e8576107e8612d96565b604051908082528060200260200182016040528015610811578160200160208202803683370190505b5094508061ffff166001600160401b0381111561083057610830612d96565b604051908082528060200260200182016040528015610859578160200160208202803683370190505b50935061086b838a8a888b8b8a6111a7565b505050909192939495565b61087e610d96565b6001600160a01b0316336001600160a01b0316141580156108aa57506002546001600160a01b03163314155b156108c85760405163ea8e4eb560e01b815260040160405180910390fd5b6108d061138a565b60035f9054906101000a90046001600160a01b03166001600160a01b031663edcf9c1f6040518163ffffffff1660e01b8152600401602060405180830381865afa158015610920573d5f5f3e3d5ffd5b505050506040513d601f19601f820116820180604052508101906109449190612d77565b8015610951575060155442115b156109635761095e6113b4565b610a17565b60016016546301000000900460ff16600481111561098357610983612aa3565b036109905761095e611550565b60026016546301000000900460ff1660048111156109b0576109b0612aa3565b036109bd5761095e611d07565b60036016546301000000900460ff1660048111156109dd576109dd612aa3565b036109ea5761095e611f14565b60046016546301000000900460ff166004811115610a0a57610a0a612aa3565b03610a1757610a1761241f565b610a2060018055565b5050565b60178181548110610a33575f80fd5b5f918252602090912001546001600160a01b0316905081565b5f606060035f9054906101000a90046001600160a01b03166001600160a01b031663edcf9c1f6040518163ffffffff1660e01b8152600401602060405180830381865afa158015610a9f573d5f5f3e3d5ffd5b505050506040513d601f19601f82011682018060405250810190610ac39190612d77565b8015610ad0575060155442115b15610ade5760019150610b9a565b60016016546301000000900460ff166004811115610afe57610afe612aa3565b03610b0c5760019150610b9a565b60026016546301000000900460ff166004811115610b2c57610b2c612aa3565b03610b3a5760019150610b9a565b60036016546301000000900460ff166004811115610b5a57610b5a612aa3565b03610b685760019150610b9a565b60046016546301000000900460ff166004811115610b8857610b88612aa3565b03610b965760019150610b9a565b5f91505b60405180602001604052805f81525090509250929050565b6060600a600801805480602002602001604051908101604052809291908181526020018280548015610c0b57602002820191905f5260205f20905b81546001600160a01b03168152600190910190602001808311610bed575b5050505050905090565b6004546001600160a01b03163314610c405760405163ea8e4eb560e01b815260040160405180910390fd5b600954811115610c6357604051632ca2f52b60e11b815260040160405180910390fd5b8060095f828254610c749190612dbe565b909155505050565b610c846110d4565b610c8d5f6125eb565b565b610c976110d4565b60328261ffff161180610caf57506107d08161ffff16115b15610ccd576040516317dbc4cb60e21b815260040160405180910390fd5b60035f9054906101000a90046001600160a01b03166001600160a01b031663edcf9c1f6040518163ffffffff1660e01b8152600401602060405180830381865afa158015610d1d573d5f5f3e3d5ffd5b505050506040513d601f19601f82011682018060405250810190610d419190612d77565b610d5e576040516312aecd8160e01b815260040160405180910390fd5b6008805463ffffffff60a81b1916600160a81b61ffff9485160261ffff60b81b191617600160b81b9290931691909102919091179055565b5f546001600160a01b031690565b60606017805480602002602001604051908101604052809291908181526020018280548015610c0b57602002820191905f5260205f209081546001600160a01b03168152600190910190602001808311610bed575050505050905090565b6004546001600160a01b03163314610e2d5760405163ea8e4eb560e01b815260040160405180910390fd5b5f811315610e51578060185f828254610e469190612dd1565b90915550610e729050565b5f811215610e7257610e6281612de4565b60185f828254610c749190612dbe565b50565b610e7d6110d4565b8060ff165f03610ea0576040516317dbc4cb60e21b815260040160405180910390fd5b600860ff82161115610ec5576040516317dbc4cb60e21b815260040160405180910390fd5b60035f9054906101000a90046001600160a01b03166001600160a01b031663edcf9c1f6040518163ffffffff1660e01b8152600401602060405180830381865afa158015610f15573d5f5f3e3d5ffd5b505050506040513d601f19601f82011682018060405250810190610f399190612d77565b610f56576040516312aecd8160e01b815260040160405180910390fd5b6016805460ff909216620100000262ff000019909216919091179055565b610f7c6110d4565b8063ffffffff165f03610fa2576040516317dbc4cb60e21b815260040160405180910390fd5b6212750063ffffffff82161115610fcc576040516317dbc4cb60e21b815260040160405180910390fd5b60035f9054906101000a90046001600160a01b03166001600160a01b031663edcf9c1f6040518163ffffffff1660e01b8152600401602060405180830381865afa15801561101c573d5f5f3e3d5ffd5b505050506040513d601f19601f820116820180604052508101906110409190612d77565b61105d576040516312aecd8160e01b815260040160405180910390fd5b6014805463ffffffff191663ffffffff831690811790915561108b906110839042612dd1565b60155461263a565b60155550565b6110996110d4565b6001600160a01b0381166110cb575f604051631e4fbdf760e01b81526004016110c29190612bf4565b60405180910390fd5b610e72816125eb565b336110dd610d96565b6001600160a01b031614610c8d573360405163118cdaa760e01b81526004016110c29190612bf4565b80515f908190815b8161ffff168161ffff1610156111a0575f858261ffff168151811061113557611135612dfe565b6020908102919091018101516001600160a01b0381165f90815260109092526040909120549091501561116e5761116b85612e12565b94505b6001600160a01b0381165f90815260116020526040902054156111975761119484612e12565b93505b5060010161110e565b5050915091565b86515f80805b8361ffff168161ffff16101561137d575f8b8261ffff16815181106111d4576111d4612dfe565b6020908102919091018101516001600160a01b0381165f90815260108352604080822054601190945290205490925081156112b957828d8761ffff168151811061122057611220612dfe565b60200260200101906001600160a01b031690816001600160a01b031681525050818c8761ffff168151811061125757611257612dfe565b6020908102919091018101919091526001600160a01b0384165f908152600a909152604090205460065461128c91849161264e565b8b8761ffff16815181106112a2576112a2612dfe565b60209081029190910101526112b686612e12565b95505b801561136f57828a8661ffff16815181106112d6576112d6612dfe565b60200260200101906001600160a01b031690816001600160a01b03168152505080898661ffff168151811061130d5761130d612dfe565b6020908102919091018101919091526001600160a01b0384165f908152600a909152604090205460065461134291839161264e565b888661ffff168151811061135857611358612dfe565b602090810291909101015261136c85612e12565b94505b5050508060010190506111ad565b5050505050505050505050565b6002600154036113ad57604051633ee5aeb560e01b815260040160405180910390fd5b6002600155565b60155442111580611436575060035f9054906101000a90046001600160a01b03166001600160a01b031663edcf9c1f6040518163ffffffff1660e01b8152600401602060405180830381865afa158015611410573d5f5f3e3d5ffd5b505050506040513d601f19601f820116820180604052508101906114349190612d77565b155b156114545760405163085de62560e01b815260040160405180910390fd5b5f5b60125461ffff82161015611509575f600a6008018261ffff168154811061147f5761147f612dfe565b5f9182526020808320909101546001600160a01b03168252600a81526040808320839055600b8252808320839055600c8252808320839055600e8252808320839055600f8252808320839055600d8252808320839055601082528083208390556011825280832083905560139091529020805460ff191690555061150281612e12565b9050611456565b5061151560125f612a75565b61151d6126ff565b60175415610c8d576014546115389063ffffffff1642612dd1565b6015556016805463ff00000019166301000000179055565b60016016546301000000900460ff16600481111561157057611570612aa3565b1461158e5760405163baf3f0f760e01b815260040160405180910390fd5b6016545f906115af9060ff620100008204811691600160201b900416612e32565b60165460ff91821692505f916115cc916201000090041683612e55565b90506016600481819054906101000a900460ff166115e990612e6f565b91906101000a81548160ff021916908360ff1602179055506017805490508161ffff16118061161d575060175461ffff8216145b1561163b57506017546016805464ffff000000191663020000001790555b815b8161ffff168161ffff161015611d02575f60178261ffff168154811061166557611665612dfe565b905f5260205f20015f9054906101000a90046001600160a01b031690505f5f826001600160a01b031663d3d034586040518163ffffffff1660e01b81526004015f60405180830381865afa1580156116bf573d5f5f3e3d5ffd5b505050506040513d5f823e601f3d908101601f191682016040526116e69190810190612f49565b90925090505f805b83518161ffff1610156119d2575f848261ffff168151811061171257611712612dfe565b602002602001015190505f848361ffff168151811061173357611733612dfe565b6020026020010151905080600a6001015f846001600160a01b03166001600160a01b031681526020019081526020015f205f8282546117729190612dd1565b90915550506001600160a01b0382165f9081526013602052604090205460ff166118f6576008546001600160a01b039081169083160361186e57600854611851906117c890600160a01b900460ff16600a6130ea565b600860149054906101000a900460ff1660035f9054906101000a90046001600160a01b03166001600160a01b031663567ba7136040518163ffffffff1660e01b8152600401602060405180830381865afa158015611828573d5f5f3e3d5ffd5b505050506040513d601f19601f8201168201806040525081019061184c91906130f8565b612959565b6001600160a01b0383165f908152600a60205260409020556118f6565b6005546040516341976e0960e01b81526001600160a01b03909116906341976e099061189e908590600401612bf4565b602060405180830381865afa1580156118b9573d5f5f3e3d5ffd5b505050506040513d601f19601f820116820180604052508101906118dd9190613113565b6001600160a01b0383165f908152600a60205260409020555b6001600160a01b0382165f908152600a60205260408120546006549091906119a690611925908490869061264e565b600354604051633c2e3e7b60e11b81526001600160a01b039091169063785c7cf690611955908990600401612bf4565b602060405180830381865afa158015611970573d5f5f3e3d5ffd5b505050506040513d601f19601f8201168201806040525081019061199491906130f8565b600854600160a01b900460ff16612959565b90506119b28187612dd1565b95506119bd846129c3565b50505050806119cb90612e12565b90506116ee565b506008545f906119f090600160a81b900461ffff168361271061264e565b601454909150611a1190829063ffffffff908116906301e133809061264e16565b90508060095f828254611a249190612dd1565b90915550611a3490508183612dbe565b60405163728d42fb60e11b8152600481018290529092505f906001600160a01b0387169063e51a85f690602401602060405180830381865afa158015611a7c573d5f5f3e3d5ffd5b505050506040513d601f19601f82011682018060405250810190611aa09190613113565b9050611aac8184612dbe565b6001600160a01b0387165f908152600e6020526040812082905560085491945090611ae590600160b81b900461ffff168361271061264e565b90508060095f828254611af89190612dd1565b90915550611b0890508183612dbe565b601654604051630df571f760e01b815261ffff9091166004820152602481018290529092506001600160a01b03881690630df571f7906044015f604051808303815f87803b158015611b58575f5ffd5b505af1158015611b6a573d5f5f3e3d5ffd5b505050505f876001600160a01b031663a68a5267896001600160a01b0316630a605c6d6040518163ffffffff1660e01b8152600401602060405180830381865afa158015611bba573d5f5f3e3d5ffd5b505050506040513d601f19601f82011682018060405250810190611bde9190613113565b875f6040518463ffffffff1660e01b8152600401611bfe9392919061312a565b602060405180830381865afa158015611c19573d5f5f3e3d5ffd5b505050506040513d601f19601f82011682018060405250810190611c3d9190613113565b9050611c498186612dbe565b94505f886001600160a01b031663f64c6f326040518163ffffffff1660e01b8152600401602060405180830381865afa158015611c88573d5f5f3e3d5ffd5b505050506040513d601f19601f82011682018060405250810190611cac9190613113565b6001600160a01b038a165f908152600f602052604090208790559050611cd28187612dd1565b6001600160a01b039099165f908152600c602052604090209890985550506001909601955061163d945050505050565b505050565b60026016546301000000900460ff166004811115611d2757611d27612aa3565b14611d455760405163baf3f0f760e01b815260040160405180910390fd5b6016805463ff000000191663030000001790556017545f805b8261ffff168161ffff161015611dc2575f60178261ffff1681548110611d8657611d86612dfe565b5f9182526020808320909101546001600160a01b0316808352600c909152604090912054909150611db79084612dd1565b925050600101611d5e565b50600480546040805163dab26e3b60e01b815290515f93611e39936001600160a01b03169263dab26e3b92818301926020928290030181865afa158015611e0b573d5f5f3e3d5ffd5b505050506040513d601f19601f82011682018060405250810190611e2f9190613113565b839061271061264e565b9050806018541115611e4a57505050565b5f60185482611e599190612dbe565b90505f5b8461ffff168161ffff161015611ef7575f60178261ffff1681548110611e8557611e85612dfe565b5f9182526020808320909101546001600160a01b0316808352600c909152604082205490925090611eb785838961264e565b6001600160a01b0384165f908152600c6020526040812080549293508392909190611ee3908490612dbe565b909155505060019093019250611e5d915050565b508060185f828254611f099190612dd1565b909155505050505050565b60036016546301000000900460ff166004811115611f3457611f34612aa3565b14611f525760405163baf3f0f760e01b815260040160405180910390fd5b6016545f90611f739060ff620100008204811691600160201b900416612e32565b60165460ff91821692505f91611f90916201000090041683612e55565b90506016600481819054906101000a900460ff16611fad90612e6f565b91906101000a81548160ff021916908360ff1602179055506017805490508161ffff161180611fe1575060175461ffff8216145b15611fff57506017546016805464ffff000000191663040000001790555b815b8161ffff168161ffff161015611d02575f60178261ffff168154811061202957612029612dfe565b905f5260205f20015f9054906101000a90046001600160a01b031690505f5f826001600160a01b031663b6eba6536040518163ffffffff1660e01b81526004015f60405180830381865afa158015612083573d5f5f3e3d5ffd5b505050506040513d5f823e601f3d908101601f191682016040526120aa9190810190613156565b6001600160a01b0385165f908152600c6020526040812054835193955091935090916001600160401b038111156120e3576120e3612d96565b60405190808252806020026020018201604052801561212757816020015b604080518082019091525f80825260208201528152602001906001900390816121015790505b5090505f5b84518161ffff1610156123b3575f858261ffff168151811061215057612150612dfe565b602002602001015190505f858361ffff168151811061217157612171612dfe565b6020908102919091018101516001600160a01b0384165f908152601390925260409091205490915060ff16612277576008546001600160a01b03908116908316036121ef576008546121d2906117c890600160a01b900460ff16600a6130ea565b6001600160a01b0383165f908152600a6020526040902055612277565b6005546040516341976e0960e01b81526001600160a01b03909116906341976e099061221f908590600401612bf4565b602060405180830381865afa15801561223a573d5f5f3e3d5ffd5b505050506040513d601f19601f8201168201806040525081019061225e9190613113565b6001600160a01b0383165f908152600a60205260409020555b6001600160a01b0382165f908152600a6020526040812054600654600754919291612319916122bf9185906122b8908c9063ffffffff808b16919061264e16565b919061264e565b600854600354604051633c2e3e7b60e11b8152600160a01b90920460ff16916001600160a01b039091169063785c7cf6906122fe908a90600401612bf4565b602060405180830381865afa158015611828573d5f5f3e3d5ffd5b90506040518060400160405280856001600160a01b0316815260200182815250868661ffff168151811061234f5761234f612dfe565b602002602001018190525080600a6003015f866001600160a01b03166001600160a01b031681526020019081526020015f205f82825461238f9190612dd1565b9091555061239e9050846129c3565b50505050806123ac90612e12565b905061212c565b50604051634c2dd25760e11b81526001600160a01b0386169063985ba4ae906123e2908490869060040161320f565b5f604051808303815f87803b1580156123f9575f5ffd5b505af115801561240b573d5f5f3e3d5ffd5b505050505050505050806001019050612001565b60046016546301000000900460ff16600481111561243f5761243f612aa3565b1461245d5760405163baf3f0f760e01b815260040160405180910390fd5b5f600a6008018054806020026020016040519081016040528092919081815260200182805480156124b557602002820191905f5260205f20905b81546001600160a01b03168152600190910190602001808311612497575b505083519394505f925050505b8161ffff168161ffff161015612580575f838261ffff16815181106124e9576124e9612dfe565b6020908102919091018101516001600160a01b0381165f908152600b8352604080822054600d909452902054909250808211156125475761252a8183612dbe565b6001600160a01b0384165f90815260106020526040902055612572565b81811115612572576125598282612dbe565b6001600160a01b0384165f908152601160205260409020555b5050508060010190506124c2565b506016805463ff00000019811682555f9061259e9061ffff16612e12565b82546101009290920a61ffff8181021990931691831602179091556016546040519116907f0bc12479581640d161e016cef21aa834cb6d6326bbc0d8445e58d56403adf2dc905f90a25050565b5f80546001600160a01b038381166001600160a01b0319831681178455604051919092169283917f8be0079c531659141344cd1fd0a4f28419497f9722a3daafe3b4186f6b6457e09190a35050565b5f8282188284100282185b90505b92915050565b5f5f5f61265b8686612a48565b91509150815f0361267f5783818161267557612675613270565b04925050506126f8565b818411612696576126966003851502601118612a64565b5f848688095f868103871696879004966002600389028118808a02820302808a02820302808a02820302808a02820302808a02820302808a02909103029181900381900460010185841190960395909502919093039390930492909217029150505b9392505050565b600354604051631da09e4360e31b81525f916001600160a01b03169063ed04f2189061272f908490600401613284565b5f60405180830381865afa158015612749573d5f5f3e3d5ffd5b505050506040513d5f823e601f3d908101601f191682016040526127709190810190613298565b905061277d60175f612a75565b5f5b81518161ffff161015610a20575f828261ffff16815181106127a3576127a3612dfe565b60200260200101519050806001600160a01b03166301e1d1146040518163ffffffff1660e01b8152600401602060405180830381865afa1580156127e9573d5f5f3e3d5ffd5b505050506040513d601f19601f8201168201806040525081019061280d9190613113565b816001600160a01b031663f64c6f326040518163ffffffff1660e01b8152600401602060405180830381865afa158015612849573d5f5f3e3d5ffd5b505050506040513d601f19601f8201168201806040525081019061286d9190613113565b6128779190612dd1565b5f036128835750612949565b5f816001600160a01b031663b6eba6536040518163ffffffff1660e01b81526004015f60405180830381865afa1580156128bf573d5f5f3e3d5ffd5b505050506040513d5f823e601f3d908101601f191682016040526128e69190810190613156565b50905080515f036128f8575050612949565b50601780546001810182555f919091527fc624b66cc0138b8fabc209247f72d758e1cf3343756d543badbf24212bed8c150180546001600160a01b0319166001600160a01b03929092169190911790555b61295281612e12565b905061277f565b5f8260ff168260ff16111561298e5761297283836132d1565b61297d90600a6130ea565b61298790856132ea565b90506126f8565b8260ff168260ff1610156129bb576129a682846132d1565b6129b190600a6130ea565b6129879085613301565b509192915050565b6001600160a01b0381165f9081526013602052604090205460ff16610e72576012805460018181019092557fbb8a6a4669ba250d26cd7a459eca9d215f8307e33aebe50379bc5a3617ec34440180546001600160a01b0384166001600160a01b031990911681179091555f908152601360205260409020805460ff1916909117905550565b5f805f1983850993909202808410938190039390930393915050565b634e487b715f52806020526024601cfd5b5080545f8255905f5260205f2090810190610e7291905b80821115612a9f575f8155600101612a8c565b5090565b634e487b7160e01b5f52602160045260245ffd5b6020810160058310612acb57612acb612aa3565b91905290565b6001600160a01b0381168114610e72575f5ffd5b5f60208284031215612af5575f5ffd5b81356126f881612ad1565b5f8151808452602084019350602083015f5b82811015612b395781516001600160a01b0316865260209586019590910190600101612b12565b5093949350505050565b5f8151808452602084019350602083015f5b82811015612b39578151865260209586019590910190600101612b55565b60c081525f612b8560c0830189612b00565b8281036020840152612b978189612b43565b90508281036040840152612bab8188612b00565b90508281036060840152612bbf8187612b43565b90508281036080840152612bd38186612b43565b905082810360a0840152612be78185612b43565b9998505050505050505050565b6001600160a01b0391909116815260200190565b5f5f60208385031215612c19575f5ffd5b82356001600160401b03811115612c2e575f5ffd5b8301601f81018513612c3e575f5ffd5b80356001600160401b03811115612c53575f5ffd5b856020828401011115612c64575f5ffd5b6020919091019590945092505050565b5f60208284031215612c84575f5ffd5b5035919050565b8215158152604060208201525f82518060408401528060208501606085015e5f606082850101526060601f19601f8301168401019150509392505050565b602081525f6126456020830184612b00565b803561ffff81168114612cec575f5ffd5b919050565b5f5f60408385031215612d02575f5ffd5b612d0b83612cdb565b9150612d1960208401612cdb565b90509250929050565b60ff81168114610e72575f5ffd5b5f60208284031215612d40575f5ffd5b81356126f881612d22565b63ffffffff81168114610e72575f5ffd5b5f60208284031215612d6c575f5ffd5b81356126f881612d4b565b5f60208284031215612d87575f5ffd5b815180151581146126f8575f5ffd5b634e487b7160e01b5f52604160045260245ffd5b634e487b7160e01b5f52601160045260245ffd5b8181038181111561264857612648612daa565b8082018082111561264857612648612daa565b5f600160ff1b8201612df857612df8612daa565b505f0390565b634e487b7160e01b5f52603260045260245ffd5b5f61ffff821661ffff8103612e2957612e29612daa565b60010192915050565b60ff8181168382160290811690818114612e4e57612e4e612daa565b5092915050565b61ffff818116838216019081111561264857612648612daa565b5f60ff821660ff8103612e2957612e29612daa565b604051601f8201601f191681016001600160401b0381118282101715612eac57612eac612d96565b604052919050565b5f6001600160401b03821115612ecc57612ecc612d96565b5060051b60200190565b5f82601f830112612ee5575f5ffd5b8151612ef8612ef382612eb4565b612e84565b8082825260208201915060208360051b860101925085831115612f19575f5ffd5b602085015b83811015612f3f578051612f3181612ad1565b835260209283019201612f1e565b5095945050505050565b5f5f60408385031215612f5a575f5ffd5b82516001600160401b03811115612f6f575f5ffd5b612f7b85828601612ed6565b602085015190935090506001600160401b03811115612f98575f5ffd5b8301601f81018513612fa8575f5ffd5b8051612fb6612ef382612eb4565b8082825260208201915060208360051b850101925087831115612fd7575f5ffd5b6020840193505b82841015612ff9578351825260209384019390910190612fde565b809450505050509250929050565b6001815b60018411156130425780850481111561302657613026612daa565b600184161561303457908102905b60019390931c92800261300b565b935093915050565b5f8261305857506001612648565b8161306457505f612648565b816001811461307a5760028114613084576130a0565b6001915050612648565b60ff84111561309557613095612daa565b50506001821b612648565b5060208310610133831016604e8410600b84101617156130c3575081810a612648565b6130cf5f198484613007565b805f19048211156130e2576130e2612daa565b029392505050565b5f61264560ff84168361304a565b5f60208284031215613108575f5ffd5b81516126f881612d22565b5f60208284031215613123575f5ffd5b5051919050565b83815260208101839052606081016004831061314857613148612aa3565b826040830152949350505050565b5f5f60408385031215613167575f5ffd5b82516001600160401b0381111561317c575f5ffd5b61318885828601612ed6565b602085015190935090506001600160401b038111156131a5575f5ffd5b8301601f810185136131b5575f5ffd5b80516131c3612ef382612eb4565b8082825260208201915060208360051b8501019250878311156131e4575f5ffd5b6020840193505b82841015612ff95783516131fe81612d4b565b8252602093840193909101906131eb565b604080825283519082018190525f9060208501906060840190835b8181101561325d57835180516001600160a01b03168452602090810151818501529093019260409092019160010161322a565b5050602093909301939093525092915050565b634e487b7160e01b5f52601260045260245ffd5b6020810160028310612acb57612acb612aa3565b5f602082840312156132a8575f5ffd5b81516001600160401b038111156132bd575f5ffd5b6132c984828501612ed6565b949350505050565b60ff828116828216039081111561264857612648612daa565b808202811582820484141761264857612648612daa565b5f8261331b57634e487b7160e01b5f52601260045260245ffd5b50049056fea2646970667358221220d596cdc2b023d9ad0e3020143f1726258e21860da3ed79f8775eba4cf80bcc2b64736f6c634300081c0033",
  "linkReferences": {},
  "deployedLinkReferences": {}
}