{
  "_format": "hh-sol-artifact-1",
  "contractName": "InternalStatesOrchestrator",
  "sourceName": "contracts/orchestrators/InternalStatesOrchestrator.sol",
  "abi": [
    {
      "inputs": [
        {
          "internalType": "address",
          "name": "target",
          "type": "address"
        }
      ],
      "name": "AddressEmptyCode",
      "type": "error"
    },
    {
      "inputs": [
        {
          "internalType": "address",
          "name": "implementation",
          "type": "address"
        }
      ],
      "name": "ERC1967InvalidImplementation",
      "type": "error"
    },
    {
      "inputs": [],
      "name": "ERC1967NonPayable",
      "type": "error"
    },
    {
      "inputs": [],
      "name": "FailedCall",
      "type": "error"
    },
    {
      "inputs": [],
      "name": "InvalidInitialization",
      "type": "error"
    },
    {
      "inputs": [],
      "name": "NotAuthorized",
      "type": "error"
    },
    {
      "inputs": [],
      "name": "NotInitializing",
      "type": "error"
    },
    {
      "inputs": [
        {
          "internalType": "address",
          "name": "owner",
          "type": "address"
        }
      ],
      "name": "OwnableInvalidOwner",
      "type": "error"
    },
    {
      "inputs": [
        {
          "internalType": "address",
          "name": "account",
          "type": "address"
        }
      ],
      "name": "OwnableUnauthorizedAccount",
      "type": "error"
    },
    {
      "inputs": [],
      "name": "ReentrancyGuardReentrantCall",
      "type": "error"
    },
    {
      "inputs": [],
      "name": "TooEarly",
      "type": "error"
    },
    {
      "inputs": [],
      "name": "UUPSUnauthorizedCallContext",
      "type": "error"
    },
    {
      "inputs": [
        {
          "internalType": "bytes32",
          "name": "slot",
          "type": "bytes32"
        }
      ],
      "name": "UUPSUnsupportedProxiableUUID",
      "type": "error"
    },
    {
      "inputs": [],
      "name": "ZeroAddress",
      "type": "error"
    },
    {
      "anonymous": false,
      "inputs": [
        {
          "indexed": true,
          "internalType": "address",
          "name": "newAutomationRegistry",
          "type": "address"
        }
      ],
      "name": "AutomationRegistryUpdated",
      "type": "event"
    },
    {
      "anonymous": false,
      "inputs": [
        {
          "indexed": false,
          "internalType": "uint64",
          "name": "version",
          "type": "uint64"
        }
      ],
      "name": "Initialized",
      "type": "event"
    },
    {
      "anonymous": false,
      "inputs": [
        {
          "indexed": false,
          "internalType": "uint256",
          "name": "epochCounter",
          "type": "uint256"
        }
      ],
      "name": "InternalStateProcessed",
      "type": "event"
    },
    {
      "anonymous": false,
      "inputs": [
        {
          "indexed": true,
          "internalType": "address",
          "name": "previousOwner",
          "type": "address"
        },
        {
          "indexed": true,
          "internalType": "address",
          "name": "newOwner",
          "type": "address"
        }
      ],
      "name": "OwnershipTransferStarted",
      "type": "event"
    },
    {
      "anonymous": false,
      "inputs": [
        {
          "indexed": true,
          "internalType": "address",
          "name": "previousOwner",
          "type": "address"
        },
        {
          "indexed": true,
          "internalType": "address",
          "name": "newOwner",
          "type": "address"
        }
      ],
      "name": "OwnershipTransferred",
      "type": "event"
    },
    {
      "anonymous": false,
      "inputs": [
        {
          "indexed": true,
          "internalType": "address",
          "name": "implementation",
          "type": "address"
        }
      ],
      "name": "Upgraded",
      "type": "event"
    },
    {
      "inputs": [],
      "name": "UPGRADE_INTERFACE_VERSION",
      "outputs": [
        {
          "internalType": "string",
          "name": "",
          "type": "string"
        }
      ],
      "stateMutability": "view",
      "type": "function"
    },
    {
      "inputs": [],
      "name": "acceptOwnership",
      "outputs": [],
      "stateMutability": "nonpayable",
      "type": "function"
    },
    {
      "inputs": [],
      "name": "automationRegistry",
      "outputs": [
        {
          "internalType": "address",
          "name": "",
          "type": "address"
        }
      ],
      "stateMutability": "view",
      "type": "function"
    },
    {
      "inputs": [
        {
          "internalType": "bytes",
          "name": "",
          "type": "bytes"
        }
      ],
      "name": "checkUpkeep",
      "outputs": [
        {
          "internalType": "bool",
          "name": "upkeepNeeded",
          "type": "bool"
        },
        {
          "internalType": "bytes",
          "name": "performData",
          "type": "bytes"
        }
      ],
      "stateMutability": "view",
      "type": "function"
    },
    {
      "inputs": [],
      "name": "config",
      "outputs": [
        {
          "internalType": "contract IOrionConfig",
          "name": "",
          "type": "address"
        }
      ],
      "stateMutability": "view",
      "type": "function"
    },
    {
      "inputs": [],
      "name": "epochCounter",
      "outputs": [
        {
          "internalType": "uint256",
          "name": "",
          "type": "uint256"
        }
      ],
      "stateMutability": "view",
      "type": "function"
    },
    {
      "inputs": [],
      "name": "getFinalBatchPortfolioHat",
      "outputs": [
        {
          "internalType": "address[]",
          "name": "",
          "type": "address[]"
        },
        {
          "internalType": "uint256[]",
          "name": "",
          "type": "uint256[]"
        }
      ],
      "stateMutability": "view",
      "type": "function"
    },
    {
      "inputs": [],
      "name": "getInitialBatchPortfolioHat",
      "outputs": [
        {
          "internalType": "address[]",
          "name": "",
          "type": "address[]"
        },
        {
          "internalType": "uint256[]",
          "name": "",
          "type": "uint256[]"
        }
      ],
      "stateMutability": "view",
      "type": "function"
    },
    {
      "inputs": [],
      "name": "getPriceEstimates",
      "outputs": [
        {
          "internalType": "address[]",
          "name": "",
          "type": "address[]"
        },
        {
          "internalType": "uint256[]",
          "name": "",
          "type": "uint256[]"
        }
      ],
      "stateMutability": "view",
      "type": "function"
    },
    {
      "inputs": [
        {
          "internalType": "address",
          "name": "initialOwner",
          "type": "address"
        },
        {
          "internalType": "address",
          "name": "automationRegistry_",
          "type": "address"
        },
        {
          "internalType": "address",
          "name": "config_",
          "type": "address"
        }
      ],
      "name": "initialize",
      "outputs": [],
      "stateMutability": "nonpayable",
      "type": "function"
    },
    {
      "inputs": [],
      "name": "nextUpdateTime",
      "outputs": [
        {
          "internalType": "uint256",
          "name": "",
          "type": "uint256"
        }
      ],
      "stateMutability": "view",
      "type": "function"
    },
    {
      "inputs": [],
      "name": "owner",
      "outputs": [
        {
          "internalType": "address",
          "name": "",
          "type": "address"
        }
      ],
      "stateMutability": "view",
      "type": "function"
    },
    {
      "inputs": [],
      "name": "pendingOwner",
      "outputs": [
        {
          "internalType": "address",
          "name": "",
          "type": "address"
        }
      ],
      "stateMutability": "view",
      "type": "function"
    },
    {
      "inputs": [
        {
          "internalType": "bytes",
          "name": "",
          "type": "bytes"
        }
      ],
      "name": "performUpkeep",
      "outputs": [],
      "stateMutability": "nonpayable",
      "type": "function"
    },
    {
      "inputs": [],
      "name": "proxiableUUID",
      "outputs": [
        {
          "internalType": "bytes32",
          "name": "",
          "type": "bytes32"
        }
      ],
      "stateMutability": "view",
      "type": "function"
    },
    {
      "inputs": [],
      "name": "renounceOwnership",
      "outputs": [],
      "stateMutability": "nonpayable",
      "type": "function"
    },
    {
      "inputs": [
        {
          "internalType": "address",
          "name": "newOwner",
          "type": "address"
        }
      ],
      "name": "transferOwnership",
      "outputs": [],
      "stateMutability": "nonpayable",
      "type": "function"
    },
    {
      "inputs": [
        {
          "internalType": "address",
          "name": "newAutomationRegistry",
          "type": "address"
        }
      ],
      "name": "updateAutomationRegistry",
      "outputs": [],
      "stateMutability": "nonpayable",
      "type": "function"
    },
    {
      "inputs": [
        {
          "internalType": "address",
          "name": "newConfig",
          "type": "address"
        }
      ],
      "name": "updateConfig",
      "outputs": [],
      "stateMutability": "nonpayable",
      "type": "function"
    },
    {
      "inputs": [],
      "name": "updateInterval",
      "outputs": [
        {
          "internalType": "uint256",
          "name": "",
          "type": "uint256"
        }
      ],
      "stateMutability": "view",
      "type": "function"
    },
    {
      "inputs": [
        {
          "internalType": "address",
          "name": "newImplementation",
          "type": "address"
        },
        {
          "internalType": "bytes",
          "name": "data",
          "type": "bytes"
        }
      ],
      "name": "upgradeToAndCall",
      "outputs": [],
      "stateMutability": "payable",
      "type": "function"
    }
  ],
  "bytecode": "0x60a0604052306080523480156012575f5ffd5b506080516120686100395f395f81816113d801528181611401015261154501526120685ff3fe608060405260043610610126575f3560e01c80636cc919c8116100a85780638da5cb5b1161006d5780638da5cb5b146102e1578063ad3cb1cc146102f5578063c0c53b8b14610332578063e30c397814610351578063f2fde38b14610365578063fd2c80ae14610384575f5ffd5b80636cc919c81461024e5780636e04ff0d1461026d578063715018a61461029a57806379502c55146102ae57806379ba5097146102cd575f5ffd5b8063459c4516116100ee578063459c4516146101c8578063483cc035146101dc5780634f1ef286146101f057806352d1902d146102035780635dc228a014610217575f5ffd5b806314b19c5a1461012a57806314b5d07f14610152578063160917161461017357806335238fb8146101955780634585e33b146101a9575b5f5ffd5b348015610135575f5ffd5b5061013f60035481565b6040519081526020015b60405180910390f35b34801561015d575f5ffd5b5061017161016c366004611aba565b610398565b005b34801561017e575f5ffd5b50610187610410565b604051610149929190611ad5565b3480156101a0575f5ffd5b5061013f5f5481565b3480156101b4575f5ffd5b506101716101c3366004611b5e565b61052b565b3480156101d3575f5ffd5b50610187610d04565b3480156101e7575f5ffd5b50610187610e14565b6101716101fe366004611c0e565b610f24565b34801561020e575f5ffd5b5061013f610f3f565b348015610222575f5ffd5b50600154610236906001600160a01b031681565b6040516001600160a01b039091168152602001610149565b348015610259575f5ffd5b50610171610268366004611aba565b610f5a565b348015610278575f5ffd5b5061028c610287366004611b5e565b610fab565b604051610149929190611ce1565b3480156102a5575f5ffd5b50610171610fd3565b3480156102b9575f5ffd5b50600254610236906001600160a01b031681565b3480156102d8575f5ffd5b50610171610fe6565b3480156102ec575f5ffd5b50610236611033565b348015610300575f5ffd5b50610325604051806040016040528060058152602001640352e302e360dc1b81525081565b6040516101499190611cfb565b34801561033d575f5ffd5b5061017161034c366004611d0d565b611067565b34801561035c575f5ffd5b50610236611206565b348015610370575f5ffd5b5061017161037f366004611aba565b61122e565b34801561038f575f5ffd5b5061013f603c81565b6103a06112b3565b6001600160a01b0381166103c75760405163d92e233d60e01b815260040160405180910390fd5b600180546001600160a01b0319166001600160a01b0383169081179091556040517f6cc7ebdb6c8c53291c5ae16148cab9b049d23bf5bde5632900b40edff56fcb43905f90a250565b6060805f61041e60076112e5565b90505f816001600160401b0381111561043957610439611bca565b604051908082528060200260200182016040528015610462578160200160208202803683370190505b5090505f826001600160401b0381111561047e5761047e611bca565b6040519080825280602002602001820160405280156104a7578160200160208202803683370190505b5090505f5b83811015610520575f806104c16007846112f5565b91509150818584815181106104d8576104d8611d55565b60200260200101906001600160a01b031690816001600160a01b0316815250508084848151811061050b5761050b611d55565b602090810291909101015250506001016104ac565b509094909350915050565b6001546001600160a01b031633146105565760405163ea8e4eb560e01b815260040160405180910390fd5b61055e611312565b5f544210156105805760405163085de62560e01b815260040160405180910390fd5b6105894261135c565b5f908155600380549161059b83611d7d565b909155505060025460408051634bb93ab160e01b815290515f926001600160a01b031691634bb93ab19160048083019260209291908290030181865afa1580156105e7573d5f5f3e3d5ffd5b505050506040513d601f19601f8201168201806040525081019061060b9190611d95565b90506106176004611368565b6106216007611368565b61062b600a611368565b600254604051631da09e4360e31b81525f916001600160a01b03169063ed04f2189061065b908490600401611dc4565b5f60405180830381865afa158015610675573d5f5f3e3d5ffd5b505050506040513d5f823e601f3d908101601f1916820160405261069c9190810190611e73565b80519091505f5b81811015610b18575f8382815181106106be576106be611d55565b602002602001015190505f5f826001600160a01b031663d3d034586040518163ffffffff1660e01b81526004015f60405180830381865afa158015610705573d5f5f3e3d5ffd5b505050506040513d5f823e601f3d908101601f1916820160405261072c9190810190611eac565b815191935091505f90815b81811015610886575f85828151811061075257610752611d55565b602002602001015190505f5f5f61077384600461137190919063ffffffff16565b915091508115610785578092506107fd565b6040516341976e0960e01b81526001600160a01b0385811660048301528f16906341976e0990602401602060405180830381865afa1580156107c9573d5f5f3e3d5ffd5b505050506040513d601f19601f820116820180604052508101906107ed9190611f68565b92506107fb60048585611388565b505b5f88868151811061081057610810611d55565b6020026020010151846108239190611f7f565b905061082f8189611f96565b97505f8061083e600788611371565b9150915081156108655761085f876108568584611f96565b60079190611388565b50610873565b61087160078885611388565b505b5050600190950194506107379350505050565b505f856001600160a01b031663a68a5267876001600160a01b031663c37fc8a86040518163ffffffff1660e01b8152600401602060405180830381865afa1580156108d3573d5f5f3e3d5ffd5b505050506040513d601f19601f820116820180604052508101906108f79190611f68565b855f6040518463ffffffff1660e01b815260040161091793929190611fa9565b602060405180830381865afa158015610932573d5f5f3e3d5ffd5b505050506040513d601f19601f820116820180604052508101906109569190611f68565b90505f81876001600160a01b031663d1699c266040518163ffffffff1660e01b8152600401602060405180830381865afa158015610996573d5f5f3e3d5ffd5b505050506040513d601f19601f820116820180604052508101906109ba9190611f68565b6109c49086611f96565b6109ce9190611fd5565b90505f5f886001600160a01b031663b6eba6536040518163ffffffff1660e01b81526004015f60405180830381865afa158015610a0d573d5f5f3e3d5ffd5b505050506040513d5f823e601f3d908101601f19168201604052610a349190810190611eac565b815191935091505f5b81811015610b01575f848281518110610a5857610a58611d55565b602002602001015190505f848381518110610a7557610a75611d55565b602002602001015190505f8188610a8c9190611f7f565b90505f80610a9b600a86611371565b915091508115610ad2575f610abd86610ab48685611f96565b600a9190611388565b905080610acc57610acc611fe8565b50610af0565b5f610adf600a8786611388565b905080610aee57610aee611fe8565b505b505060019093019250610a3d915050565b5050600190990198506106a3975050505050505050565b50600254604051631da09e4360e31b81525f916001600160a01b03169063ed04f21890610b4a90600190600401611dc4565b5f60405180830381865afa158015610b64573d5f5f3e3d5ffd5b505050506040513d5f823e601f3d908101601f19168201604052610b8b9190810190611e73565b8051925090505f5b82811015610c97575f828281518110610bae57610bae611d55565b602002602001015190505f5f826001600160a01b031663d3d034586040518163ffffffff1660e01b81526004015f60405180830381865afa158015610bf5573d5f5f3e3d5ffd5b505050506040513d5f823e601f3d908101601f19168201604052610c1c9190810190611eac565b915091505f5f846001600160a01b031663b6eba6536040518163ffffffff1660e01b81526004015f60405180830381865afa158015610c5d573d5f5f3e3d5ffd5b505050506040513d5f823e601f3d908101601f19168201604052610c849190810190611eac565b505060019095019450610b939350505050565b507f9375d658f91055a030c54d5cf460d6f12968b10b80b0797c1aa5c02e4dca9403600354604051610ccb91815260200190565b60405180910390a150505050610d0060017f9b779b17422d0df92223018b32b4d1fa46e071723d6817e2486d003becc55f0055565b5050565b6060805f610d1260046112e5565b90505f816001600160401b03811115610d2d57610d2d611bca565b604051908082528060200260200182016040528015610d56578160200160208202803683370190505b5090505f826001600160401b03811115610d7257610d72611bca565b604051908082528060200260200182016040528015610d9b578160200160208202803683370190505b5090505f5b83811015610520575f80610db56004846112f5565b9150915081858481518110610dcc57610dcc611d55565b60200260200101906001600160a01b031690816001600160a01b03168152505080848481518110610dff57610dff611d55565b60209081029190910101525050600101610da0565b6060805f610e22600a6112e5565b90505f816001600160401b03811115610e3d57610e3d611bca565b604051908082528060200260200182016040528015610e66578160200160208202803683370190505b5090505f826001600160401b03811115610e8257610e82611bca565b604051908082528060200260200182016040528015610eab578160200160208202803683370190505b5090505f5b83811015610520575f80610ec5600a846112f5565b9150915081858481518110610edc57610edc611d55565b60200260200101906001600160a01b031690816001600160a01b03168152505080848481518110610f0f57610f0f611d55565b60209081029190910101525050600101610eb0565b610f2c6113cd565b610f3582611471565b610d008282611479565b5f610f4861153a565b505f5160206120135f395f51905f5290565b610f626112b3565b6001600160a01b038116610f895760405163d92e233d60e01b815260040160405180910390fd5b600280546001600160a01b0319166001600160a01b0392909216919091179055565b5f6060610fb95f5442101590565b915060405180602001604052805f81525090509250929050565b610fdb6112b3565b610fe45f611583565b565b3380610ff0611206565b6001600160a01b0316146110275760405163118cdaa760e01b81526001600160a01b03821660048201526024015b60405180910390fd5b61103081611583565b50565b5f807f9016d09d72d40fdae2fd8ceac6b6234c7706214fd39c1cd1e609a0528c1993005b546001600160a01b031692915050565b5f6110706115bb565b805490915060ff600160401b82041615906001600160401b03165f811580156110965750825b90505f826001600160401b031660011480156110b15750303b155b9050811580156110bf575080155b156110dd5760405163f92ee8a960e01b815260040160405180910390fd5b845467ffffffffffffffff19166001178555831561110757845460ff60401b1916600160401b1785555b611110886115e3565b6111186115f4565b6111206115fc565b6111286115f4565b6001600160a01b03871661114f5760405163d92e233d60e01b815260040160405180910390fd5b6001600160a01b0386166111765760405163d92e233d60e01b815260040160405180910390fd5b600180546001600160a01b03808a166001600160a01b03199283161790925560028054928916929091169190911790556111af4261135c565b5f90815560035583156111fc57845460ff60401b19168555604051600181527fc7f505b2f371ae2175ee4913f4499e1f2633a7b5936321eed1cdaeb6115181d29060200160405180910390a15b5050505050505050565b5f807f237e158222e3e6968b72b9db0d8043aacf074ad9f650f0d1606b4d82ee432c00611057565b6112366112b3565b7f237e158222e3e6968b72b9db0d8043aacf074ad9f650f0d1606b4d82ee432c0080546001600160a01b0319166001600160a01b038316908117825561127a611033565b6001600160a01b03167f38d16b8cac22d99fc7c124b9cd0de2d3fa1faef420bfe791d8c362d765e2270060405160405180910390a35050565b336112bc611033565b6001600160a01b031614610fe45760405163118cdaa760e01b815233600482015260240161101e565b5f6112ef8261160c565b92915050565b5f8080806113038686611616565b909450925050505b9250929050565b7f9b779b17422d0df92223018b32b4d1fa46e071723d6817e2486d003becc55f0080546001190161135657604051633ee5aeb560e01b815260040160405180910390fd5b60029055565b5f6112ef603c83611f96565b6110308161163f565b5f808080611303866001600160a01b038716611688565b5f61139d846001600160a01b038516846116c0565b90505b9392505050565b60017f9b779b17422d0df92223018b32b4d1fa46e071723d6817e2486d003becc55f0055565b306001600160a01b037f000000000000000000000000000000000000000000000000000000000000000016148061145357507f00000000000000000000000000000000000000000000000000000000000000006001600160a01b03166114475f5160206120135f395f51905f52546001600160a01b031690565b6001600160a01b031614155b15610fe45760405163703e46dd60e11b815260040160405180910390fd5b6110306112b3565b816001600160a01b03166352d1902d6040518163ffffffff1660e01b8152600401602060405180830381865afa9250505080156114d3575060408051601f3d908101601f191682019092526114d091810190611f68565b60015b6114fb57604051634c9c8ce360e01b81526001600160a01b038316600482015260240161101e565b5f5160206120135f395f51905f52811461152b57604051632a87526960e21b81526004810182905260240161101e565b61153583836116dc565b505050565b306001600160a01b037f00000000000000000000000000000000000000000000000000000000000000001614610fe45760405163703e46dd60e11b815260040160405180910390fd5b7f237e158222e3e6968b72b9db0d8043aacf074ad9f650f0d1606b4d82ee432c0080546001600160a01b0319168155610d0082611731565b5f807ff0c57e16840df040f15088dc2f81fe391c3923bec73e23a9662efc9c229c6a006112ef565b6115eb6117a1565b611030816117c6565b610fe46117a1565b6116046117a1565b610fe46117f7565b5f6112ef826117ff565b5f80806116238585611808565b5f81815260029690960160205260409095205494959350505050565b5f6116498261160c565b90505f5b8181101561167e57600283015f6116648584611808565b815260208101919091526040015f9081205560010161164d565b50610d0082611813565b5f8181526002830160205260408120548190806116b5576116a9858561181c565b92505f915061130b9050565b60019250905061130b565b5f828152600284016020526040812082905561139d8484611827565b6116e582611832565b6040516001600160a01b038316907fbc7cd75a20ee27fd9adebab32041f755214dbc6bffa90cc0225b39da2e5c2d3b905f90a2805115611729576115358282611895565b610d00611907565b7f9016d09d72d40fdae2fd8ceac6b6234c7706214fd39c1cd1e609a0528c19930080546001600160a01b031981166001600160a01b03848116918217845560405192169182907f8be0079c531659141344cd1fd0a4f28419497f9722a3daafe3b4186f6b6457e0905f90a3505050565b6117a9611926565b610fe457604051631afcd79f60e31b815260040160405180910390fd5b6117ce6117a1565b6001600160a01b03811661102757604051631e4fbdf760e01b81525f600482015260240161101e565b6113a76117a1565b5f6112ef825490565b5f6113a0838361193f565b61103081611965565b5f6113a083836119be565b5f6113a083836119d5565b806001600160a01b03163b5f0361186757604051634c9c8ce360e01b81526001600160a01b038216600482015260240161101e565b5f5160206120135f395f51905f5280546001600160a01b0319166001600160a01b0392909216919091179055565b60605f5f846001600160a01b0316846040516118b19190611ffc565b5f60405180830381855af49150503d805f81146118e9576040519150601f19603f3d011682016040523d82523d5f602084013e6118ee565b606091505b50915091506118fe858383611a21565b95945050505050565b3415610fe45760405163b398979f60e01b815260040160405180910390fd5b5f61192f6115bb565b54600160401b900460ff16919050565b5f825f01828154811061195457611954611d55565b905f5260205f200154905092915050565b5f61196e825490565b90505f5b818110156119b757826001015f845f01838154811061199357611993611d55565b905f5260205f20015481526020019081526020015f205f9055806001019050611972565b50505f9055565b5f81815260018301602052604081205415156113a0565b5f818152600183016020526040812054611a1a57508154600181810184555f8481526020808220909301849055845484825282860190935260409020919091556112ef565b505f6112ef565b606082611a3657611a3182611a7d565b6113a0565b8151158015611a4d57506001600160a01b0384163b155b15611a7657604051639996b31560e01b81526001600160a01b038516600482015260240161101e565b50806113a0565b805115611a8d5780518082602001fd5b60405163d6bda27560e01b815260040160405180910390fd5b6001600160a01b0381168114611030575f5ffd5b5f60208284031215611aca575f5ffd5b81356113a081611aa6565b604080825283519082018190525f9060208501906060840190835b81811015611b175783516001600160a01b0316835260209384019390920191600101611af0565b5050838103602080860191909152855180835291810192508501905f5b81811015611b52578251845260209384019390920191600101611b34565b50919695505050505050565b5f5f60208385031215611b6f575f5ffd5b82356001600160401b03811115611b84575f5ffd5b8301601f81018513611b94575f5ffd5b80356001600160401b03811115611ba9575f5ffd5b856020828401011115611bba575f5ffd5b6020919091019590945092505050565b634e487b7160e01b5f52604160045260245ffd5b604051601f8201601f191681016001600160401b0381118282101715611c0657611c06611bca565b604052919050565b5f5f60408385031215611c1f575f5ffd5b8235611c2a81611aa6565b915060208301356001600160401b03811115611c44575f5ffd5b8301601f81018513611c54575f5ffd5b80356001600160401b03811115611c6d57611c6d611bca565b611c80601f8201601f1916602001611bde565b818152866020838501011115611c94575f5ffd5b816020840160208301375f602083830101528093505050509250929050565b5f81518084528060208401602086015e5f602082860101526020601f19601f83011685010191505092915050565b8215158152604060208201525f61139d6040830184611cb3565b602081525f6113a06020830184611cb3565b5f5f5f60608486031215611d1f575f5ffd5b8335611d2a81611aa6565b92506020840135611d3a81611aa6565b91506040840135611d4a81611aa6565b809150509250925092565b634e487b7160e01b5f52603260045260245ffd5b634e487b7160e01b5f52601160045260245ffd5b5f60018201611d8e57611d8e611d69565b5060010190565b5f60208284031215611da5575f5ffd5b81516113a081611aa6565b634e487b7160e01b5f52602160045260245ffd5b6020810160028310611dd857611dd8611db0565b91905290565b5f6001600160401b03821115611df657611df6611bca565b5060051b60200190565b5f82601f830112611e0f575f5ffd5b8151611e22611e1d82611dde565b611bde565b8082825260208201915060208360051b860101925085831115611e43575f5ffd5b602085015b83811015611e69578051611e5b81611aa6565b835260209283019201611e48565b5095945050505050565b5f60208284031215611e83575f5ffd5b81516001600160401b03811115611e98575f5ffd5b611ea484828501611e00565b949350505050565b5f5f60408385031215611ebd575f5ffd5b82516001600160401b03811115611ed2575f5ffd5b611ede85828601611e00565b92505060208301516001600160401b03811115611ef9575f5ffd5b8301601f81018513611f09575f5ffd5b8051611f17611e1d82611dde565b8082825260208201915060208360051b850101925087831115611f38575f5ffd5b6020840193505b82841015611f5a578351825260209384019390910190611f3f565b809450505050509250929050565b5f60208284031215611f78575f5ffd5b5051919050565b80820281158282048414176112ef576112ef611d69565b808201808211156112ef576112ef611d69565b838152602081018390526060810160048310611fc757611fc7611db0565b826040830152949350505050565b818103818111156112ef576112ef611d69565b634e487b7160e01b5f52600160045260245ffd5b5f82518060208501845e5f92019182525091905056fe360894a13ba1a3210667c828492db98dca3e2076cc3735a920a3ca505d382bbca2646970667358221220c26106fc8120cc2add9afec013df291b3c01b7c454be6c174dfef288549c98d164736f6c634300081c0033",
  "linkReferences": {},
  "deployedLinkReferences": {}
}