{
  "_format": "hh-sol-artifact-1",
  "contractName": "InternalStatesOrchestrator",
  "sourceName": "contracts/orchestrators/InternalStatesOrchestrator.sol",
  "abi": [
    {
      "inputs": [
        {
          "internalType": "address",
          "name": "initialOwner",
          "type": "address"
        },
        {
          "internalType": "address",
          "name": "config_",
          "type": "address"
        },
        {
          "internalType": "address",
          "name": "automationRegistry_",
          "type": "address"
        }
      ],
      "stateMutability": "nonpayable",
      "type": "constructor"
    },
    {
      "inputs": [],
      "name": "InvalidArguments",
      "type": "error"
    },
    {
      "inputs": [],
      "name": "NotAuthorized",
      "type": "error"
    },
    {
      "inputs": [
        {
          "internalType": "address",
          "name": "owner",
          "type": "address"
        }
      ],
      "name": "OwnableInvalidOwner",
      "type": "error"
    },
    {
      "inputs": [
        {
          "internalType": "address",
          "name": "account",
          "type": "address"
        }
      ],
      "name": "OwnableUnauthorizedAccount",
      "type": "error"
    },
    {
      "inputs": [],
      "name": "ReentrancyGuardReentrantCall",
      "type": "error"
    },
    {
      "inputs": [],
      "name": "SystemNotIdle",
      "type": "error"
    },
    {
      "inputs": [],
      "name": "TooEarly",
      "type": "error"
    },
    {
      "inputs": [],
      "name": "ZeroAddress",
      "type": "error"
    },
    {
      "anonymous": false,
      "inputs": [
        {
          "indexed": true,
          "internalType": "address",
          "name": "newAutomationRegistry",
          "type": "address"
        }
      ],
      "name": "AutomationRegistryUpdated",
      "type": "event"
    },
    {
      "anonymous": false,
      "inputs": [
        {
          "indexed": false,
          "internalType": "uint16",
          "name": "epochCounter",
          "type": "uint16"
        }
      ],
      "name": "InternalStateProcessed",
      "type": "event"
    },
    {
      "anonymous": false,
      "inputs": [
        {
          "indexed": true,
          "internalType": "address",
          "name": "previousOwner",
          "type": "address"
        },
        {
          "indexed": true,
          "internalType": "address",
          "name": "newOwner",
          "type": "address"
        }
      ],
      "name": "OwnershipTransferred",
      "type": "event"
    },
    {
      "inputs": [],
      "name": "automationRegistry",
      "outputs": [
        {
          "internalType": "address",
          "name": "",
          "type": "address"
        }
      ],
      "stateMutability": "view",
      "type": "function"
    },
    {
      "inputs": [
        {
          "internalType": "bytes",
          "name": "",
          "type": "bytes"
        }
      ],
      "name": "checkUpkeep",
      "outputs": [
        {
          "internalType": "bool",
          "name": "upkeepNeeded",
          "type": "bool"
        },
        {
          "internalType": "bytes",
          "name": "performData",
          "type": "bytes"
        }
      ],
      "stateMutability": "view",
      "type": "function"
    },
    {
      "inputs": [],
      "name": "config",
      "outputs": [
        {
          "internalType": "contract IOrionConfig",
          "name": "",
          "type": "address"
        }
      ],
      "stateMutability": "view",
      "type": "function"
    },
    {
      "inputs": [],
      "name": "currentMinibatchIndex",
      "outputs": [
        {
          "internalType": "uint8",
          "name": "",
          "type": "uint8"
        }
      ],
      "stateMutability": "view",
      "type": "function"
    },
    {
      "inputs": [],
      "name": "currentPhase",
      "outputs": [
        {
          "internalType": "enum IInternalStateOrchestrator.InternalUpkeepPhase",
          "name": "",
          "type": "uint8"
        }
      ],
      "stateMutability": "view",
      "type": "function"
    },
    {
      "inputs": [],
      "name": "encryptedMinibatchSize",
      "outputs": [
        {
          "internalType": "uint8",
          "name": "",
          "type": "uint8"
        }
      ],
      "stateMutability": "view",
      "type": "function"
    },
    {
      "inputs": [
        {
          "internalType": "uint256",
          "name": "",
          "type": "uint256"
        }
      ],
      "name": "encryptedVaultsEpoch",
      "outputs": [
        {
          "internalType": "address",
          "name": "",
          "type": "address"
        }
      ],
      "stateMutability": "view",
      "type": "function"
    },
    {
      "inputs": [],
      "name": "epochCounter",
      "outputs": [
        {
          "internalType": "uint16",
          "name": "",
          "type": "uint16"
        }
      ],
      "stateMutability": "view",
      "type": "function"
    },
    {
      "inputs": [],
      "name": "getBuyingOrders",
      "outputs": [
        {
          "internalType": "address[]",
          "name": "tokens",
          "type": "address[]"
        },
        {
          "internalType": "uint256[]",
          "name": "amounts",
          "type": "uint256[]"
        }
      ],
      "stateMutability": "view",
      "type": "function"
    },
    {
      "inputs": [],
      "name": "getSellingOrders",
      "outputs": [
        {
          "internalType": "address[]",
          "name": "tokens",
          "type": "address[]"
        },
        {
          "internalType": "uint256[]",
          "name": "amounts",
          "type": "uint256[]"
        }
      ],
      "stateMutability": "view",
      "type": "function"
    },
    {
      "inputs": [],
      "name": "intentFactor",
      "outputs": [
        {
          "internalType": "uint256",
          "name": "",
          "type": "uint256"
        }
      ],
      "stateMutability": "view",
      "type": "function"
    },
    {
      "inputs": [],
      "name": "owner",
      "outputs": [
        {
          "internalType": "address",
          "name": "",
          "type": "address"
        }
      ],
      "stateMutability": "view",
      "type": "function"
    },
    {
      "inputs": [
        {
          "internalType": "bytes",
          "name": "performData",
          "type": "bytes"
        }
      ],
      "name": "performUpkeep",
      "outputs": [],
      "stateMutability": "nonpayable",
      "type": "function"
    },
    {
      "inputs": [],
      "name": "priceAdapterPrecision",
      "outputs": [
        {
          "internalType": "uint256",
          "name": "",
          "type": "uint256"
        }
      ],
      "stateMutability": "view",
      "type": "function"
    },
    {
      "inputs": [],
      "name": "registry",
      "outputs": [
        {
          "internalType": "contract IPriceAdapterRegistry",
          "name": "",
          "type": "address"
        }
      ],
      "stateMutability": "view",
      "type": "function"
    },
    {
      "inputs": [],
      "name": "renounceOwnership",
      "outputs": [],
      "stateMutability": "nonpayable",
      "type": "function"
    },
    {
      "inputs": [
        {
          "internalType": "address",
          "name": "newOwner",
          "type": "address"
        }
      ],
      "name": "transferOwnership",
      "outputs": [],
      "stateMutability": "nonpayable",
      "type": "function"
    },
    {
      "inputs": [],
      "name": "transparentMinibatchSize",
      "outputs": [
        {
          "internalType": "uint8",
          "name": "",
          "type": "uint8"
        }
      ],
      "stateMutability": "view",
      "type": "function"
    },
    {
      "inputs": [
        {
          "internalType": "uint256",
          "name": "",
          "type": "uint256"
        }
      ],
      "name": "transparentVaultsEpoch",
      "outputs": [
        {
          "internalType": "address",
          "name": "",
          "type": "address"
        }
      ],
      "stateMutability": "view",
      "type": "function"
    },
    {
      "inputs": [],
      "name": "underlyingDecimals",
      "outputs": [
        {
          "internalType": "uint8",
          "name": "",
          "type": "uint8"
        }
      ],
      "stateMutability": "view",
      "type": "function"
    },
    {
      "inputs": [
        {
          "internalType": "address",
          "name": "newAutomationRegistry",
          "type": "address"
        }
      ],
      "name": "updateAutomationRegistry",
      "outputs": [],
      "stateMutability": "nonpayable",
      "type": "function"
    },
    {
      "inputs": [],
      "name": "updateFromConfig",
      "outputs": [],
      "stateMutability": "nonpayable",
      "type": "function"
    },
    {
      "inputs": [],
      "name": "updateInterval",
      "outputs": [
        {
          "internalType": "uint32",
          "name": "",
          "type": "uint32"
        }
      ],
      "stateMutability": "view",
      "type": "function"
    },
    {
      "inputs": [
        {
          "internalType": "uint8",
          "name": "_transparentMinibatchSize",
          "type": "uint8"
        },
        {
          "internalType": "uint8",
          "name": "_encryptedMinibatchSize",
          "type": "uint8"
        }
      ],
      "name": "updateMinibatchSizes",
      "outputs": [],
      "stateMutability": "nonpayable",
      "type": "function"
    },
    {
      "inputs": [
        {
          "internalType": "uint32",
          "name": "newUpdateInterval",
          "type": "uint32"
        }
      ],
      "name": "updateUpdateInterval",
      "outputs": [],
      "stateMutability": "nonpayable",
      "type": "function"
    }
  ],
  "bytecode": "0x608060405234801561000f575f5ffd5b506040516134f13803806134f183398101604081905261002e91610643565b826101836100cd604080516080810182525f80825260208201819052918101829052606081019190915250604080516080810182527350157cffd6bbfa2dece204a89ec419c23ef5755d815273cd3ab3bd6bcc0c0bf3e27912a92043e817b1cf696020820152731364cbbf2cdf5032c47d8226a6f6fbd2afcdacac9181019190915273901f8942346f7ab3a01f6d7613119bca447bb030606082015290565b80515f5160206134b15f395f51905f5280546001600160a01b03199081166001600160a01b039384161790915560208301515f5160206134d15f395f51905f528054831691841691909117905560408301517fed8d60e34876f751cc8b014c560745351147d9de11b9347c854e881b128ea6028054831691841691909117905560608301517fed8d60e34876f751cc8b014c560745351147d9de11b9347c854e881b128ea6038054909216921691909117905550565b7f5ea69329017273582817d320489fbd94f775580e90c092699ca6f3d12fdf7d0080546001600160a01b03191673a02cda4ca3a71d7c46997716f4283aa851c288121790556001600160a01b0381166101f557604051631e4fbdf760e01b81525f600482015260240160405180910390fd5b6101fe81610521565b50600180556001600160a01b03821661022a5760405163d92e233d60e01b815260040160405180910390fd5b6001600160a01b0381166102515760405163d92e233d60e01b815260040160405180910390fd5b600380546001600160a01b0319166001600160a01b0384169081179091556040805163015df99360e01b8152905163015df993916004808201926020929091908290030181865afa1580156102a8573d5f5f3e3d5ffd5b505050506040513d601f19601f820116820180604052508101906102cc919061068d565b600480546001600160a01b0319166001600160a01b039283161781556003546040805163d1717c7d60e01b81529051919093169263d1717c7d92818101926020929091908290030181865afa158015610327573d5f5f3e3d5ffd5b505050506040513d601f19601f8201168201806040525081019061034b91906106af565b61035690600a6107c6565b60065560035460408051631c56369f60e21b815290516001600160a01b0390921691637158da7c916004808201926020929091908290030181865afa1580156103a1573d5f5f3e3d5ffd5b505050506040513d601f19601f820116820180604052508101906103c5919061068d565b6001600160a01b031663313ce5676040518163ffffffff1660e01b8152600401602060405180830381865afa158015610400573d5f5f3e3d5ffd5b505050506040513d601f19601f8201168201806040525081019061042491906106af565b6007805460ff191660ff929092169190911790556003546040805163567ba71360e01b815290516001600160a01b039092169163567ba713916004808201926020929091908290030181865afa158015610480573d5f5f3e3d5ffd5b505050506040513d601f19601f820116820180604052508101906104a491906106af565b6104af90600a6107c6565b60055560138054600280546001600160a01b0319166001600160a01b03851617905565ffffffffffff1916650101000151801790556104ed42610570565b601255601380546011805461ffff1916905561ffff60301b191690556105125f61058b565b6014555061082e915050565b50565b5f80546001600160a01b038381166001600160a01b0319831681178455604051919092169283917f8be0079c531659141344cd1fd0a4f28419497f9722a3daafe3b4186f6b6457e09190a35050565b6013545f906105859063ffffffff16836107d4565b92915050565b5f61058563ffffffff831660045f5160206134d15f395f51905f5254604051639cd07acb60e01b81525f915f5160206134b15f395f51905f52916001600160a01b0390911690639cd07acb906105e790879087906004016107e7565b6020604051808303815f875af1158015610603573d5f5f3e3d5ffd5b505050506040513d601f19601f820116820180604052508101906106279190610817565b949350505050565b6001600160a01b038116811461051e575f5ffd5b5f5f5f60608486031215610655575f5ffd5b83516106608161062f565b60208501519093506106718161062f565b60408501519092506106828161062f565b809150509250925092565b5f6020828403121561069d575f5ffd5b81516106a88161062f565b9392505050565b5f602082840312156106bf575f5ffd5b815160ff811681146106a8575f5ffd5b634e487b7160e01b5f52601160045260245ffd5b6001815b600184111561071e57808504811115610702576107026106cf565b600184161561071057908102905b60019390931c9280026106e7565b935093915050565b5f8261073457506001610585565b8161074057505f610585565b816001811461075657600281146107605761077c565b6001915050610585565b60ff841115610771576107716106cf565b50506001821b610585565b5060208310610133831016604e8410600b841016171561079f575081810a610585565b6107ab5f1984846106e3565b805f19048211156107be576107be6106cf565b029392505050565b5f6106a860ff841683610726565b80820180821115610585576105856106cf565b828152604081016054831061080a57634e487b7160e01b5f52602160045260245ffd5b8260208301529392505050565b5f60208284031215610827575f5ffd5b5051919050565b612c768061083b5f395ff3fe608060405234801561000f575f5ffd5b5060043610610130575f3560e01c8062bb07bb14610134578063055ad42e1461014957806308af604d1461017357806314b19c5a1461019957806314b5d07f146101ba57806325a760c2146101cd578063288157e9146101da578063289a2f76146101e25780632b0088b41461020257806336021ef4146102195780634585e33b1461022d5780635488cd621461024057806358fac65b146102545780635dc228a0146102675780636e04ff0d1461027a578063715018a61461029b57806379502c55146102a35780637b103999146102b65780638da5cb5b146102c9578063a08b82d7146102d1578063bf6a5572146102e7578063c2cb5d88146102fa578063ca1f32f114610302578063f2fde38b1461030b578063fd2c80ae1461031e575b5f5ffd5b610147610142366004612428565b610343565b005b60135461015d90600160301b900460ff1681565b60405161016a9190612483565b60405180910390f35b60135461018790600160201b900460ff1681565b60405160ff909116815260200161016a565b6011546101a79061ffff1681565b60405161ffff909116815260200161016a565b6101476101c83660046124aa565b61043f565b6007546101879060ff1681565b610147610548565b6101f56101f03660046124c5565b61083d565b60405161016a91906124dc565b61020b60065481565b60405190815260200161016a565b60135461018790600160281b900460ff1681565b61014761023b3660046124f0565b610865565b60135461018790600160381b900460ff1681565b6101f56102623660046124c5565b610b61565b6002546101f5906001600160a01b031681565b61028d6102883660046124f0565b610b70565b60405161016a92919061255c565b610147610d8f565b6003546101f5906001600160a01b031681565b6004546101f5906001600160a01b031681565b6101f5610da2565b6102d9610db0565b60405161016a92919061259a565b6101476102f5366004612634565b610fe8565b6102d96110c3565b61020b60055481565b6101476103193660046124aa565b6112f2565b60135461032e9063ffffffff1681565b60405163ffffffff909116815260200161016a565b61034b611338565b60ff8216158061035c575060ff8116155b1561037a576040516317dbc4cb60e21b815260040160405180910390fd5b60035f9054906101000a90046001600160a01b03166001600160a01b031663edcf9c1f6040518163ffffffff1660e01b8152600401602060405180830381865afa1580156103ca573d5f5f3e3d5ffd5b505050506040513d601f19601f820116820180604052508101906103ee919061264f565b61040b576040516312aecd8160e01b815260040160405180910390fd5b6013805461ffff60201b1916600160201b60ff9485160260ff60281b191617600160281b9290931691909102919091179055565b610447611338565b6001600160a01b03811661046e5760405163d92e233d60e01b815260040160405180910390fd5b60035f9054906101000a90046001600160a01b03166001600160a01b031663edcf9c1f6040518163ffffffff1660e01b8152600401602060405180830381865afa1580156104be573d5f5f3e3d5ffd5b505050506040513d601f19601f820116820180604052508101906104e2919061264f565b6104ff576040516312aecd8160e01b815260040160405180910390fd5b600280546001600160a01b0319166001600160a01b0383169081179091556040517f6cc7ebdb6c8c53291c5ae16148cab9b049d23bf5bde5632900b40edff56fcb43905f90a250565b610550611338565b60035f9054906101000a90046001600160a01b03166001600160a01b031663edcf9c1f6040518163ffffffff1660e01b8152600401602060405180830381865afa1580156105a0573d5f5f3e3d5ffd5b505050506040513d601f19601f820116820180604052508101906105c4919061264f565b6105e1576040516312aecd8160e01b815260040160405180910390fd5b60035f9054906101000a90046001600160a01b03166001600160a01b031663015df9936040518163ffffffff1660e01b8152600401602060405180830381865afa158015610631573d5f5f3e3d5ffd5b505050506040513d601f19601f82011682018060405250810190610655919061266e565b600480546001600160a01b0319166001600160a01b039283161781556003546040805163d1717c7d60e01b81529051919093169263d1717c7d92818101926020929091908290030181865afa1580156106b0573d5f5f3e3d5ffd5b505050506040513d601f19601f820116820180604052508101906106d49190612689565b6106df90600a61279b565b60065560035460408051631c56369f60e21b815290516001600160a01b0390921691637158da7c916004808201926020929091908290030181865afa15801561072a573d5f5f3e3d5ffd5b505050506040513d601f19601f8201168201806040525081019061074e919061266e565b6001600160a01b031663313ce5676040518163ffffffff1660e01b8152600401602060405180830381865afa158015610789573d5f5f3e3d5ffd5b505050506040513d601f19601f820116820180604052508101906107ad9190612689565b6007805460ff191660ff929092169190911790556003546040805163567ba71360e01b815290516001600160a01b039092169163567ba713916004808201926020929091908290030181865afa158015610809573d5f5f3e3d5ffd5b505050506040513d601f19601f8201168201806040525081019061082d9190612689565b61083890600a61279b565b600555565b6016818154811061084c575f80fd5b5f918252602090912001546001600160a01b0316905081565b6002546001600160a01b031633146108905760405163ea8e4eb560e01b815260040160405180910390fd5b61089861136a565b60048110156108ba576040516317dbc4cb60e21b815260040160405180910390fd5b5f6108c860048284866127a9565b6108d1916127d0565b90506341659aab60e01b6001600160e01b0319821601610a20576108f3611394565b6108fb6113c5565b600354604051631da09e4360e31b81526001600160a01b039091169063ed04f2189061092b905f90600401612808565b5f60405180830381865afa158015610945573d5f5f3e3d5ffd5b505050506040513d5f823e601f3d908101601f1916820160405261096c91908101906128f5565b80516109809160159160209091019061238c565b50600354604051631da09e4360e31b81526001600160a01b039091169063ed04f218906109b290600190600401612808565b5f60405180830381865afa1580156109cc573d5f5f3e3d5ffd5b505050506040513d5f823e601f3d908101601f191682016040526109f391908101906128f5565b8051610a079160169160209091019061238c565b506013805460ff60301b1916600160301b179055610b53565b63019918a560e51b6001600160e01b0319821601610a64575f610a4683600481876127a9565b810190610a53919061292e565b9050610a5e816114e9565b50610b53565b6314897e2360e11b6001600160e01b0319821601610aa2575f610a8a83600481876127a9565b810190610a97919061292e565b9050610a5e81611c10565b6350c9887560e01b6001600160e01b0319821601610b3a57610ac2611fc0565b6013805460ff60301b191690556011805461ffff16905f610ae283612949565b82546101009290920a61ffff818102199093169183160217909155601154604051911681527f0bc12479581640d161e016cef21aa834cb6d6326bbc0d8445e58d56403adf2dc915060200160405180910390a1610b53565b6040516317dbc4cb60e21b815260040160405180910390fd5b50610b5d60018055565b5050565b6015818154811061084c575f80fd5b5f606060035f9054906101000a90046001600160a01b03166001600160a01b031663edcf9c1f6040518163ffffffff1660e01b8152600401602060405180830381865afa158015610bc3573d5f5f3e3d5ffd5b505050506040513d601f19601f82011682018060405250810190610be7919061264f565b8015610bf557506012544210155b15610c4557600191507fbe9a655586dceb82dfa0af992b5d8ae7fa45053cb7fd6f141f541da7572978c7604051602001610c2f9190612969565b6040516020818303038152906040529050610d88565b6001601354600160301b900460ff166003811115610c6557610c6561245f565b03610cb057600191507fccdceb60d34ec82e2b625c80d044e07bc5264e5a5f17ab57ea62c77ee8c3d797601360079054906101000a900460ff16604051602001610c2f92919061297e565b6002601354600160301b900460ff166003811115610cd057610cd061245f565b03610d1b57600191507fd6ed03ba70bef77e7dcdbaa2d7d9bcd9a4dd463c2c6bcd5b016869e952bdaddb601360079054906101000a900460ff16604051602001610c2f92919061297e565b6003601354600160301b900460ff166003811115610d3b57610d3b61245f565b03610d7557600191507faf36778b2d01c6b9ccbf0ff82e33823de0a4811632929c60c03041666deffc9b604051602001610c2f9190612969565b505060408051602081019091525f808252905b9250929050565b610d97611338565b610da05f612124565b565b5f546001600160a01b031690565b600d80546040805160208084028201810190925282815260609384935f93830182828015610e0557602002820191905f5260205f20905b81546001600160a01b03168152600190910190602001808311610de7575b505083519394505f9250829150505b8261ffff168161ffff161015610e85575f60086004015f868461ffff1681518110610e4157610e416129a5565b60200260200101516001600160a01b03166001600160a01b031681526020019081526020015f20541115610e7d5781610e7981612949565b9250505b600101610e14565b508061ffff166001600160401b03811115610ea257610ea261281c565b604051908082528060200260200182016040528015610ecb578160200160208202803683370190505b5094508061ffff166001600160401b03811115610eea57610eea61281c565b604051908082528060200260200182016040528015610f13578160200160208202803683370190505b5093505f805b8361ffff168161ffff161015610fdf575f858261ffff1681518110610f4057610f406129a5565b6020908102919091018101516001600160a01b0381165f908152600c9092526040909120549091508015610fd55781898561ffff1681518110610f8557610f856129a5565b60200260200101906001600160a01b031690816001600160a01b03168152505080888561ffff1681518110610fbc57610fbc6129a5565b602090810291909101015283610fd181612949565b9450505b5050600101610f19565b50505050509091565b610ff0611338565b8063ffffffff165f03611016576040516317dbc4cb60e21b815260040160405180910390fd5b60035f9054906101000a90046001600160a01b03166001600160a01b031663edcf9c1f6040518163ffffffff1660e01b8152600401602060405180830381865afa158015611066573d5f5f3e3d5ffd5b505050506040513d601f19601f8201168201806040525081019061108a919061264f565b6110a7576040516312aecd8160e01b815260040160405180910390fd5b6013805463ffffffff191663ffffffff92909216919091179055565b600d80546040805160208084028201810190925282815260609384935f9383018282801561111857602002820191905f5260205f20905b81546001600160a01b031681526001909101906020018083116110fa575b505083519394505f9250829150505b8261ffff168161ffff161015611198575f60086003015f868461ffff1681518110611154576111546129a5565b60200260200101516001600160a01b03166001600160a01b031681526020019081526020015f20541115611190578161118c81612949565b9250505b600101611127565b508061ffff166001600160401b038111156111b5576111b561281c565b6040519080825280602002602001820160405280156111de578160200160208202803683370190505b5094508061ffff166001600160401b038111156111fd576111fd61281c565b604051908082528060200260200182016040528015611226578160200160208202803683370190505b5093505f805b8361ffff168161ffff161015610fdf575f858261ffff1681518110611253576112536129a5565b6020908102919091018101516001600160a01b0381165f908152600b90925260409091205490915080156112e85781898561ffff1681518110611298576112986129a5565b60200260200101906001600160a01b031690816001600160a01b03168152505080888561ffff16815181106112cf576112cf6129a5565b6020908102919091010152836112e481612949565b9450505b505060010161122c565b6112fa611338565b6001600160a01b03811661132c575f604051631e4fbdf760e01b815260040161132391906124dc565b60405180910390fd5b61133581612124565b50565b33611341610da2565b6001600160a01b031614610da0573360405163118cdaa760e01b815260040161132391906124dc565b60026001540361138d57604051633ee5aeb560e01b815260040160405180910390fd5b6002600155565b6012544210156113b75760405163085de62560e01b815260040160405180910390fd5b6113c042612173565b601255565b5f600860050180548060200260200160405190810160405280929190818152602001828054801561141d57602002820191905f5260205f20905b81546001600160a01b031681526001909101906020018083116113ff575b505083519394505f925050505b8161ffff168161ffff1610156114c7575f838261ffff1681518110611451576114516129a5565b6020908102919091018101516001600160a01b03165f90815260088252604080822082905560098352808220829055600a8352808220829055600b8352808220829055600c8352808220829055600e8352808220805460ff19908116909155600f9093529020805490911690555060010161142a565b506114d3600d5f6123ef565b6114de60155f6123ef565b610b5d60165f6123ef565b60138054600160381b900460ff16906007611503836129b9565b91906101000a81548160ff021916908360ff160217905550505f601360049054906101000a900460ff168261153891906129ce565b60135460ff91821692505f9161155691600160201b900416836129ea565b60155490915061ffff8216111561158057506015546013805461ffff60301b1916600160311b1790555b815b8161ffff168161ffff161015611c0a575f60158261ffff16815481106115aa576115aa6129a5565b905f5260205f20015f9054906101000a90046001600160a01b031690505f5f826001600160a01b031663d3d034586040518163ffffffff1660e01b81526004015f60405180830381865afa158015611604573d5f5f3e3d5ffd5b505050506040513d5f823e601f3d908101601f1916820160405261162b9190810190612a04565b90925090505f805b83518161ffff161015611914575f848261ffff1681518110611657576116576129a5565b6020908102919091018101516001600160a01b0381165f908152600f909252604082205490925060ff16900361171157806001600160a01b031663313ce5676040518163ffffffff1660e01b8152600401602060405180830381865afa1580156116c3573d5f5f3e3d5ffd5b505050506040513d601f19601f820116820180604052508101906116e79190612689565b6001600160a01b0382165f908152600f60205260409020805460ff191660ff929092169190911790555b6001600160a01b0381165f908152600f6020908152604080832054600890925282205460ff909116918190036118715760035f9054906101000a90046001600160a01b03166001600160a01b0316637158da7c6040518163ffffffff1660e01b8152600401602060405180830381865afa158015611791573d5f5f3e3d5ffd5b505050506040513d601f19601f820116820180604052508101906117b5919061266e565b6001600160a01b0316836001600160a01b0316036117e5576007546117de9060ff16600a61279b565b9050611856565b600480546040516341976e0960e01b81526001600160a01b03909116916341976e0991611814918791016124dc565b602060405180830381865afa15801561182f573d5f5f3e3d5ffd5b505050506040513d601f19601f820116820180604052508101906118539190612ac2565b90505b6001600160a01b0383165f9081526008602052604090208190555b5f6118b66118a9888761ffff168151811061188e5761188e6129a5565b60200260200101516005548561218e9092919063ffffffff16565b600754859060ff1661223f565b90506118c28187612ad9565b6001600160a01b0385165f908152600960205260408120805492985083929091906118ee908490612ad9565b909155506118fd9050846122a9565b50505050808061190c90612949565b915050611633565b505f846001600160a01b031663a68a5267866001600160a01b031663c37fc8a86040518163ffffffff1660e01b8152600401602060405180830381865afa158015611961573d5f5f3e3d5ffd5b505050506040513d601f19601f820116820180604052508101906119859190612ac2565b845f6040518463ffffffff1660e01b81526004016119a593929190612aec565b602060405180830381865afa1580156119c0573d5f5f3e3d5ffd5b505050506040513d601f19601f820116820180604052508101906119e49190612ac2565b60405163728d42fb60e11b8152600481018490529091505f906001600160a01b0387169063e51a85f690602401602060405180830381865afa158015611a2c573d5f5f3e3d5ffd5b505050506040513d601f19601f82011682018060405250810190611a509190612ac2565b82876001600160a01b031663d1699c266040518163ffffffff1660e01b8152600401602060405180830381865afa158015611a8d573d5f5f3e3d5ffd5b505050506040513d601f19601f82011682018060405250810190611ab19190612ac2565b611abb9086612ad9565b611ac59190612b11565b611acf9190612b11565b90505f5f876001600160a01b031663b6eba6536040518163ffffffff1660e01b81526004015f60405180830381865afa158015611b0e573d5f5f3e3d5ffd5b505050506040513d5f823e601f3d908101601f19168201604052611b359190810190612b24565b815191935091505f5b8161ffff168161ffff161015611bf4575f848261ffff1681518110611b6557611b656129a5565b602002602001015190505f848361ffff1681518110611b8657611b866129a5565b602002602001015190505f611bae8263ffffffff166006548a61218e9092919063ffffffff16565b6001600160a01b0384165f908152600a6020526040812080549293508392909190611bda908490612ad9565b90915550611be99050836122a9565b505050600101611b3e565b5050600190980197506115829650505050505050565b50505050565b611c1861136a565b60138054600160381b900460ff16906007611c32836129b9565b91906101000a81548160ff021916908360ff160217905550505f601360059054906101000a900460ff1682611c6791906129ce565b60135460ff91821692505f91611c8591600160281b900416836129ea565b60165490915061ffff82161115611caf57506016546013805461ffff60301b1916600360301b1790555b815b8161ffff168161ffff161015611fb4575f60168261ffff1681548110611cd957611cd96129a5565b905f5260205f20015f9054906101000a90046001600160a01b031690505f5f826001600160a01b031663d3d034586040518163ffffffff1660e01b81526004015f60405180830381865afa158015611d33573d5f5f3e3d5ffd5b505050506040513d5f823e601f3d908101601f19168201604052611d5a9190810190612a04565b90925090505f5b82518161ffff161015611fa4575f838261ffff1681518110611d8557611d856129a5565b6020908102919091018101516001600160a01b0381165f908152600f909252604082205490925060ff169003611e3f57806001600160a01b031663313ce5676040518163ffffffff1660e01b8152600401602060405180830381865afa158015611df1573d5f5f3e3d5ffd5b505050506040513d601f19601f82011682018060405250810190611e159190612689565b6001600160a01b0382165f908152600f60205260409020805460ff191660ff929092169190911790555b6001600160a01b0381165f9081526008602052604081205490819003611f8f5760035f9054906101000a90046001600160a01b03166001600160a01b0316637158da7c6040518163ffffffff1660e01b8152600401602060405180830381865afa158015611eaf573d5f5f3e3d5ffd5b505050506040513d601f19601f82011682018060405250810190611ed3919061266e565b6001600160a01b0316826001600160a01b031603611f0357600754611efc9060ff16600a61279b565b9050611f74565b600480546040516341976e0960e01b81526001600160a01b03909116916341976e0991611f32918691016124dc565b602060405180830381865afa158015611f4d573d5f5f3e3d5ffd5b505050506040513d601f19601f82011682018060405250810190611f719190612ac2565b90505b6001600160a01b0382165f9081526008602052604090208190555b50508080611f9c90612949565b915050611d61565b505060019092019150611cb19050565b50505061133560018055565b5f600860050180548060200260200160405190810160405280929190818152602001828054801561201857602002820191905f5260205f20905b81546001600160a01b03168152600190910190602001808311611ffa575b505083519394505f925050505b8161ffff168161ffff16101561211f575f838261ffff168151811061204c5761204c6129a5565b6020908102919091018101516001600160a01b0381165f90815260098352604080822054600a855281832054600f909552912054919350919060ff16818311156120e2575f61209b8385612b11565b6001600160a01b0386165f90815260086020526040812054919250906120c290838561232e565b6001600160a01b0387165f908152600b60205260409020555061210f9050565b8282111561210f575f6120f58484612b11565b6001600160a01b0386165f908152600c6020526040902055505b5050600190920191506120259050565b505050565b5f80546001600160a01b038381166001600160a01b0319831681178455604051919092169283917f8be0079c531659141344cd1fd0a4f28419497f9722a3daafe3b4186f6b6457e09190a35050565b6013545f906121889063ffffffff1683612ad9565b92915050565b5f5f5f61219b868661235f565b91509150815f036121bf578381816121b5576121b5612bdd565b0492505050612238565b8184116121d6576121d6600385150260111861237b565b5f848688095f868103871696879004966002600389028118808a02820302808a02820302808a02820302808a02820302808a02820302808a02909103029181900381900460010185841190960395909502919093039390930492909217029150505b9392505050565b5f8260ff168260ff161115612274576122588383612bf1565b61226390600a61279b565b61226d9085612c0a565b9050612238565b8260ff168260ff1610156122a15761228c8284612bf1565b61229790600a61279b565b61226d9085612c21565b509192915050565b6001600160a01b0381165f908152600e602052604090205460ff1661133557600d805460018181019092557fd7b6990105719101dabeb77144f2a3385c8033acd3af97e9423a695e81ad1eb50180546001600160a01b0384166001600160a01b031990911681179091555f908152600e60205260409020805460ff1916909117905550565b6007545f90819061234490859060ff168561223f565b6005549091506123569082908761218e565b95945050505050565b5f805f1983850993909202808410938190039390930393915050565b634e487b715f52806020526024601cfd5b828054828255905f5260205f209081019282156123df579160200282015b828111156123df57825182546001600160a01b0319166001600160a01b039091161782556020909201916001909101906123aa565b506123eb929150612406565b5090565b5080545f8255905f5260205f209081019061133591905b5b808211156123eb575f8155600101612407565b60ff81168114611335575f5ffd5b5f5f60408385031215612439575f5ffd5b82356124448161241a565b915060208301356124548161241a565b809150509250929050565b634e487b7160e01b5f52602160045260245ffd5b600481106113355761133561245f565b6020810161249083612473565b91905290565b6001600160a01b0381168114611335575f5ffd5b5f602082840312156124ba575f5ffd5b813561223881612496565b5f602082840312156124d5575f5ffd5b5035919050565b6001600160a01b0391909116815260200190565b5f5f60208385031215612501575f5ffd5b82356001600160401b03811115612516575f5ffd5b8301601f81018513612526575f5ffd5b80356001600160401b0381111561253b575f5ffd5b85602082840101111561254c575f5ffd5b6020919091019590945092505050565b8215158152604060208201525f82518060408401528060208501606085015e5f606082850101526060601f19601f8301168401019150509392505050565b604080825283519082018190525f9060208501906060840190835b818110156125dc5783516001600160a01b03168352602093840193909201916001016125b5565b5050838103602080860191909152855180835291810192508501905f5b818110156126175782518452602093840193909201916001016125f9565b50919695505050505050565b63ffffffff81168114611335575f5ffd5b5f60208284031215612644575f5ffd5b813561223881612623565b5f6020828403121561265f575f5ffd5b81518015158114612238575f5ffd5b5f6020828403121561267e575f5ffd5b815161223881612496565b5f60208284031215612699575f5ffd5b81516122388161241a565b634e487b7160e01b5f52601160045260245ffd5b6001815b60018411156126f3578085048111156126d7576126d76126a4565b60018416156126e557908102905b60019390931c9280026126bc565b935093915050565b5f8261270957506001612188565b8161271557505f612188565b816001811461272b576002811461273557612751565b6001915050612188565b60ff841115612746576127466126a4565b50506001821b612188565b5060208310610133831016604e8410600b8410161715612774575081810a612188565b6127805f1984846126b8565b805f1904821115612793576127936126a4565b029392505050565b5f61223860ff8416836126fb565b5f5f858511156127b7575f5ffd5b838611156127c3575f5ffd5b5050820193919092039150565b80356001600160e01b03198116906004841015612801576001600160e01b0319600485900360031b81901b82161691505b5092915050565b60208101600283106124905761249061245f565b634e487b7160e01b5f52604160045260245ffd5b604051601f8201601f191681016001600160401b03811182821017156128585761285861281c565b604052919050565b5f6001600160401b038211156128785761287861281c565b5060051b60200190565b5f82601f830112612891575f5ffd5b81516128a461289f82612860565b612830565b8082825260208201915060208360051b8601019250858311156128c5575f5ffd5b602085015b838110156128eb5780516128dd81612496565b8352602092830192016128ca565b5095945050505050565b5f60208284031215612905575f5ffd5b81516001600160401b0381111561291a575f5ffd5b61292684828501612882565b949350505050565b5f6020828403121561293e575f5ffd5b81356122388161241a565b5f61ffff821661ffff8103612960576129606126a4565b60010192915050565b6001600160e01b031991909116815260040190565b6001600160e01b031992909216825260f81b6001600160f81b031916600482015260050190565b634e487b7160e01b5f52603260045260245ffd5b5f60ff821660ff8103612960576129606126a4565b60ff8181168382160290811690818114612801576128016126a4565b61ffff8181168382160190811115612188576121886126a4565b5f5f60408385031215612a15575f5ffd5b82516001600160401b03811115612a2a575f5ffd5b612a3685828601612882565b602085015190935090506001600160401b03811115612a53575f5ffd5b8301601f81018513612a63575f5ffd5b8051612a7161289f82612860565b8082825260208201915060208360051b850101925087831115612a92575f5ffd5b6020840193505b82841015612ab4578351825260209384019390910190612a99565b809450505050509250929050565b5f60208284031215612ad2575f5ffd5b5051919050565b80820180821115612188576121886126a4565b8381526020810183905260608101612b0383612473565b826040830152949350505050565b81810381811115612188576121886126a4565b5f5f60408385031215612b35575f5ffd5b82516001600160401b03811115612b4a575f5ffd5b612b5685828601612882565b602085015190935090506001600160401b03811115612b73575f5ffd5b8301601f81018513612b83575f5ffd5b8051612b9161289f82612860565b8082825260208201915060208360051b850101925087831115612bb2575f5ffd5b6020840193505b82841015612ab4578351612bcc81612623565b825260209384019390910190612bb9565b634e487b7160e01b5f52601260045260245ffd5b60ff8281168282160390811115612188576121886126a4565b8082028115828204841417612188576121886126a4565b5f82612c3b57634e487b7160e01b5f52601260045260245ffd5b50049056fea2646970667358221220d3f6fda50b190c5ab235eb2be205dda16fd3371760631c7fb74d65ad7aae9ba164736f6c634300081c0033ed8d60e34876f751cc8b014c560745351147d9de11b9347c854e881b128ea600ed8d60e34876f751cc8b014c560745351147d9de11b9347c854e881b128ea601",
  "linkReferences": {},
  "deployedLinkReferences": {}
}