{
  "_format": "hh-sol-artifact-1",
  "contractName": "InternalStatesOrchestrator",
  "sourceName": "contracts/orchestrators/InternalStatesOrchestrator.sol",
  "abi": [
    {
      "inputs": [
        {
          "internalType": "address",
          "name": "initialOwner",
          "type": "address"
        },
        {
          "internalType": "address",
          "name": "config_",
          "type": "address"
        },
        {
          "internalType": "address",
          "name": "automationRegistry_",
          "type": "address"
        }
      ],
      "stateMutability": "nonpayable",
      "type": "constructor"
    },
    {
      "inputs": [],
      "name": "InvalidArguments",
      "type": "error"
    },
    {
      "inputs": [],
      "name": "NotAuthorized",
      "type": "error"
    },
    {
      "inputs": [
        {
          "internalType": "address",
          "name": "owner",
          "type": "address"
        }
      ],
      "name": "OwnableInvalidOwner",
      "type": "error"
    },
    {
      "inputs": [
        {
          "internalType": "address",
          "name": "account",
          "type": "address"
        }
      ],
      "name": "OwnableUnauthorizedAccount",
      "type": "error"
    },
    {
      "inputs": [],
      "name": "ReentrancyGuardReentrantCall",
      "type": "error"
    },
    {
      "inputs": [],
      "name": "SystemNotIdle",
      "type": "error"
    },
    {
      "inputs": [],
      "name": "TooEarly",
      "type": "error"
    },
    {
      "inputs": [],
      "name": "ZeroAddress",
      "type": "error"
    },
    {
      "anonymous": false,
      "inputs": [
        {
          "indexed": true,
          "internalType": "address",
          "name": "newAutomationRegistry",
          "type": "address"
        }
      ],
      "name": "AutomationRegistryUpdated",
      "type": "event"
    },
    {
      "anonymous": false,
      "inputs": [
        {
          "indexed": false,
          "internalType": "uint16",
          "name": "epochCounter",
          "type": "uint16"
        }
      ],
      "name": "InternalStateProcessed",
      "type": "event"
    },
    {
      "anonymous": false,
      "inputs": [
        {
          "indexed": true,
          "internalType": "address",
          "name": "previousOwner",
          "type": "address"
        },
        {
          "indexed": true,
          "internalType": "address",
          "name": "newOwner",
          "type": "address"
        }
      ],
      "name": "OwnershipTransferred",
      "type": "event"
    },
    {
      "inputs": [],
      "name": "MAX_REVENUE_SHARE_FEE",
      "outputs": [
        {
          "internalType": "uint16",
          "name": "",
          "type": "uint16"
        }
      ],
      "stateMutability": "view",
      "type": "function"
    },
    {
      "inputs": [],
      "name": "MAX_VOLUME_FEE",
      "outputs": [
        {
          "internalType": "uint16",
          "name": "",
          "type": "uint16"
        }
      ],
      "stateMutability": "view",
      "type": "function"
    },
    {
      "inputs": [],
      "name": "PROTOCOL_FEE_FACTOR",
      "outputs": [
        {
          "internalType": "uint16",
          "name": "",
          "type": "uint16"
        }
      ],
      "stateMutability": "view",
      "type": "function"
    },
    {
      "inputs": [],
      "name": "YEAR_IN_SECONDS",
      "outputs": [
        {
          "internalType": "uint32",
          "name": "",
          "type": "uint32"
        }
      ],
      "stateMutability": "view",
      "type": "function"
    },
    {
      "inputs": [],
      "name": "automationRegistry",
      "outputs": [
        {
          "internalType": "address",
          "name": "",
          "type": "address"
        }
      ],
      "stateMutability": "view",
      "type": "function"
    },
    {
      "inputs": [
        {
          "internalType": "bytes",
          "name": "",
          "type": "bytes"
        }
      ],
      "name": "checkUpkeep",
      "outputs": [
        {
          "internalType": "bool",
          "name": "upkeepNeeded",
          "type": "bool"
        },
        {
          "internalType": "bytes",
          "name": "performData",
          "type": "bytes"
        }
      ],
      "stateMutability": "view",
      "type": "function"
    },
    {
      "inputs": [],
      "name": "config",
      "outputs": [
        {
          "internalType": "contract IOrionConfig",
          "name": "",
          "type": "address"
        }
      ],
      "stateMutability": "view",
      "type": "function"
    },
    {
      "inputs": [],
      "name": "currentMinibatchIndex",
      "outputs": [
        {
          "internalType": "uint8",
          "name": "",
          "type": "uint8"
        }
      ],
      "stateMutability": "view",
      "type": "function"
    },
    {
      "inputs": [],
      "name": "currentPhase",
      "outputs": [
        {
          "internalType": "enum IInternalStateOrchestrator.InternalUpkeepPhase",
          "name": "",
          "type": "uint8"
        }
      ],
      "stateMutability": "view",
      "type": "function"
    },
    {
      "inputs": [],
      "name": "encryptedMinibatchSize",
      "outputs": [
        {
          "internalType": "uint8",
          "name": "",
          "type": "uint8"
        }
      ],
      "stateMutability": "view",
      "type": "function"
    },
    {
      "inputs": [
        {
          "internalType": "uint256",
          "name": "",
          "type": "uint256"
        }
      ],
      "name": "encryptedVaultsEpoch",
      "outputs": [
        {
          "internalType": "address",
          "name": "",
          "type": "address"
        }
      ],
      "stateMutability": "view",
      "type": "function"
    },
    {
      "inputs": [],
      "name": "epochCounter",
      "outputs": [
        {
          "internalType": "uint16",
          "name": "",
          "type": "uint16"
        }
      ],
      "stateMutability": "view",
      "type": "function"
    },
    {
      "inputs": [],
      "name": "epochDuration",
      "outputs": [
        {
          "internalType": "uint32",
          "name": "",
          "type": "uint32"
        }
      ],
      "stateMutability": "view",
      "type": "function"
    },
    {
      "inputs": [],
      "name": "getBuyingOrders",
      "outputs": [
        {
          "internalType": "address[]",
          "name": "tokens",
          "type": "address[]"
        },
        {
          "internalType": "uint256[]",
          "name": "amounts",
          "type": "uint256[]"
        }
      ],
      "stateMutability": "view",
      "type": "function"
    },
    {
      "inputs": [],
      "name": "getSellingOrders",
      "outputs": [
        {
          "internalType": "address[]",
          "name": "tokens",
          "type": "address[]"
        },
        {
          "internalType": "uint256[]",
          "name": "amounts",
          "type": "uint256[]"
        }
      ],
      "stateMutability": "view",
      "type": "function"
    },
    {
      "inputs": [],
      "name": "intentFactor",
      "outputs": [
        {
          "internalType": "uint256",
          "name": "",
          "type": "uint256"
        }
      ],
      "stateMutability": "view",
      "type": "function"
    },
    {
      "inputs": [],
      "name": "owner",
      "outputs": [
        {
          "internalType": "address",
          "name": "",
          "type": "address"
        }
      ],
      "stateMutability": "view",
      "type": "function"
    },
    {
      "inputs": [
        {
          "internalType": "bytes",
          "name": "performData",
          "type": "bytes"
        }
      ],
      "name": "performUpkeep",
      "outputs": [],
      "stateMutability": "nonpayable",
      "type": "function"
    },
    {
      "inputs": [],
      "name": "priceAdapterPrecision",
      "outputs": [
        {
          "internalType": "uint256",
          "name": "",
          "type": "uint256"
        }
      ],
      "stateMutability": "view",
      "type": "function"
    },
    {
      "inputs": [],
      "name": "registry",
      "outputs": [
        {
          "internalType": "contract IPriceAdapterRegistry",
          "name": "",
          "type": "address"
        }
      ],
      "stateMutability": "view",
      "type": "function"
    },
    {
      "inputs": [],
      "name": "renounceOwnership",
      "outputs": [],
      "stateMutability": "nonpayable",
      "type": "function"
    },
    {
      "inputs": [],
      "name": "rsFeeCoefficient",
      "outputs": [
        {
          "internalType": "uint16",
          "name": "",
          "type": "uint16"
        }
      ],
      "stateMutability": "view",
      "type": "function"
    },
    {
      "inputs": [
        {
          "internalType": "address",
          "name": "newOwner",
          "type": "address"
        }
      ],
      "name": "transferOwnership",
      "outputs": [],
      "stateMutability": "nonpayable",
      "type": "function"
    },
    {
      "inputs": [],
      "name": "transparentMinibatchSize",
      "outputs": [
        {
          "internalType": "uint8",
          "name": "",
          "type": "uint8"
        }
      ],
      "stateMutability": "view",
      "type": "function"
    },
    {
      "inputs": [
        {
          "internalType": "uint256",
          "name": "",
          "type": "uint256"
        }
      ],
      "name": "transparentVaultsEpoch",
      "outputs": [
        {
          "internalType": "address",
          "name": "",
          "type": "address"
        }
      ],
      "stateMutability": "view",
      "type": "function"
    },
    {
      "inputs": [],
      "name": "underlyingAsset",
      "outputs": [
        {
          "internalType": "address",
          "name": "",
          "type": "address"
        }
      ],
      "stateMutability": "view",
      "type": "function"
    },
    {
      "inputs": [],
      "name": "underlyingDecimals",
      "outputs": [
        {
          "internalType": "uint8",
          "name": "",
          "type": "uint8"
        }
      ],
      "stateMutability": "view",
      "type": "function"
    },
    {
      "inputs": [
        {
          "internalType": "address",
          "name": "newAutomationRegistry",
          "type": "address"
        }
      ],
      "name": "updateAutomationRegistry",
      "outputs": [],
      "stateMutability": "nonpayable",
      "type": "function"
    },
    {
      "inputs": [
        {
          "internalType": "uint32",
          "name": "newEpochDuration",
          "type": "uint32"
        }
      ],
      "name": "updateEpochDuration",
      "outputs": [],
      "stateMutability": "nonpayable",
      "type": "function"
    },
    {
      "inputs": [
        {
          "internalType": "uint8",
          "name": "_transparentMinibatchSize",
          "type": "uint8"
        },
        {
          "internalType": "uint8",
          "name": "_encryptedMinibatchSize",
          "type": "uint8"
        }
      ],
      "name": "updateMinibatchSizes",
      "outputs": [],
      "stateMutability": "nonpayable",
      "type": "function"
    },
    {
      "inputs": [
        {
          "internalType": "uint16",
          "name": "_vFeeCoefficient",
          "type": "uint16"
        },
        {
          "internalType": "uint16",
          "name": "_rsFeeCoefficient",
          "type": "uint16"
        }
      ],
      "name": "updateProtocolFees",
      "outputs": [],
      "stateMutability": "nonpayable",
      "type": "function"
    },
    {
      "inputs": [],
      "name": "vFeeCoefficient",
      "outputs": [
        {
          "internalType": "uint16",
          "name": "",
          "type": "uint16"
        }
      ],
      "stateMutability": "view",
      "type": "function"
    }
  ],
  "bytecode": "0x608060405234801561000f575f5ffd5b5060405161343d38038061343d83398101604081905261002e91610683565b826101836100cd604080516080810182525f808252602082018190529181018290526060810191909152506040805160808101825273687820221192c5b662b25367f70076a37bc79b6c815273848b0066793bcc60346da1f49049357399b8d5956020820152731364cbbf2cdf5032c47d8226a6f6fbd2afcdacac9181019190915273bc91f3dad1a5f19f8390c400196e58073b6a0bc4606082015290565b80515f5160206133fd5f395f51905f5280546001600160a01b03199081166001600160a01b039384161790915560208301515f51602061341d5f395f51905f528054831691841691909117905560408301517fed8d60e34876f751cc8b014c560745351147d9de11b9347c854e881b128ea6028054831691841691909117905560608301517fed8d60e34876f751cc8b014c560745351147d9de11b9347c854e881b128ea6038054909216921691909117905550565b7f5ea69329017273582817d320489fbd94f775580e90c092699ca6f3d12fdf7d0080546001600160a01b03191673a02cda4ca3a71d7c46997716f4283aa851c288121790556001600160a01b0381166101f557604051631e4fbdf760e01b81525f600482015260240160405180910390fd5b6101fe81610561565b50600180556001600160a01b03821661022a5760405163d92e233d60e01b815260040160405180910390fd5b6001600160a01b0381166102515760405163d92e233d60e01b815260040160405180910390fd5b600380546001600160a01b0319166001600160a01b0384169081179091556040805163015df99360e01b8152905163015df993916004808201926020929091908290030181865afa1580156102a8573d5f5f3e3d5ffd5b505050506040513d601f19601f820116820180604052508101906102cc91906106cd565b600480546001600160a01b0319166001600160a01b039283161781556003546040805163d1717c7d60e01b81529051919093169263d1717c7d92818101926020929091908290030181865afa158015610327573d5f5f3e3d5ffd5b505050506040513d601f19601f8201168201806040525081019061034b91906106ef565b61035690600a610806565b60065560035460408051631c56369f60e21b815290516001600160a01b0390921691637158da7c916004808201926020929091908290030181865afa1580156103a1573d5f5f3e3d5ffd5b505050506040513d601f19601f820116820180604052508101906103c591906106cd565b600780546001600160a01b0319166001600160a01b039290921691821790556040805163313ce56760e01b8152905163313ce567916004808201926020929091908290030181865afa15801561041d573d5f5f3e3d5ffd5b505050506040513d601f19601f8201168201806040525081019061044191906106ef565b600760146101000a81548160ff021916908360ff16021790555060035f9054906101000a90046001600160a01b03166001600160a01b031663567ba7136040518163ffffffff1660e01b8152600401602060405180830381865afa1580156104ab573d5f5f3e3d5ffd5b505050506040513d601f19601f820116820180604052508101906104cf91906106ef565b6104da90600a610806565b6005556013805463ffff000019166301010000179055600280546001600160a01b0319166001600160a01b038316179055601180546201518063ffffffff19909116179055610528426105b0565b6012556013805465ffff0000ffff191690556105435f6105cb565b60145550506007805463ffffffff60a81b191690555061086e565b50565b5f80546001600160a01b038381166001600160a01b0319831681178455604051919092169283917f8be0079c531659141344cd1fd0a4f28419497f9722a3daafe3b4186f6b6457e09190a35050565b6011545f906105c59063ffffffff1683610814565b92915050565b5f6105c563ffffffff831660045f51602061341d5f395f51905f5254604051639cd07acb60e01b81525f915f5160206133fd5f395f51905f52916001600160a01b0390911690639cd07acb906106279087908790600401610827565b6020604051808303815f875af1158015610643573d5f5f3e3d5ffd5b505050506040513d601f19601f820116820180604052508101906106679190610857565b949350505050565b6001600160a01b038116811461055e575f5ffd5b5f5f5f60608486031215610695575f5ffd5b83516106a08161066f565b60208501519093506106b18161066f565b60408501519092506106c28161066f565b809150509250925092565b5f602082840312156106dd575f5ffd5b81516106e88161066f565b9392505050565b5f602082840312156106ff575f5ffd5b815160ff811681146106e8575f5ffd5b634e487b7160e01b5f52601160045260245ffd5b6001815b600184111561075e578085048111156107425761074261070f565b600184161561075057908102905b60019390931c928002610727565b935093915050565b5f82610774575060016105c5565b8161078057505f6105c5565b816001811461079657600281146107a0576107bc565b60019150506105c5565b60ff8411156107b1576107b161070f565b50506001821b6105c5565b5060208310610133831016604e8410600b84101617156107df575081810a6105c5565b6107eb5f198484610723565b805f19048211156107fe576107fe61070f565b029392505050565b5f6106e860ff841683610766565b808201808211156105c5576105c561070f565b828152604081016054831061084a57634e487b7160e01b5f52602160045260245ffd5b8260208301529392505050565b5f60208284031215610867575f5ffd5b5051919050565b612b828061087b5f395ff3fe608060405234801561000f575f5ffd5b506004361061017d575f3560e01c8062bb07bb14610181578063055ad42e146101965780630844697d146101c057806308af604d146101e857806314b19c5a1461020d57806314b5d07f1461021b57806325a760c21461022e578063289a2f76146102425780632b0088b41461026257806336021ef414610279578063380e443b1461028d5780634585e33b146102965780634ff0876a146102a95780635488cd62146102ce57806358fac65b146102e25780635dc228a0146102f55780636e04ff0d14610308578063715018a6146103295780637158da7c146103315780637847ea531461034457806379502c551461034f5780637b103999146103625780637cdabf0a146103755780638da5cb5b14610388578063a08b82d714610390578063b8b2af7c146103a6578063c2cb5d88146103bb578063ca1f32f1146103c3578063eeb393c9146103cc578063f2fde38b146103df578063f83e98fb146103f2578063f91b5b25146103fb575b5f5ffd5b61019461018f366004612308565b610403565b005b6013546101aa90600160201b900460ff1681565b6040516101b79190612363565b60405180910390f35b6007546101d590600160b81b900461ffff1681565b60405161ffff90911681526020016101b7565b6013546101fb9062010000900460ff1681565b60405160ff90911681526020016101b7565b6013546101d59061ffff1681565b61019461022936600461238a565b6104fd565b6007546101fb90600160a01b900460ff1681565b6102556102503660046123a5565b610606565b6040516101b791906123bc565b61026b60065481565b6040519081526020016101b7565b6013546101fb906301000000900460ff1681565b6101d56103e881565b6101946102a43660046123d0565b61062e565b6011546102b99063ffffffff1681565b60405163ffffffff90911681526020016101b7565b6013546101fb90600160281b900460ff1681565b6102556102f03660046123a5565b610927565b600254610255906001600160a01b031681565b61031b6103163660046123d0565b610936565b6040516101b792919061243c565b610194610b55565b600754610255906001600160a01b031681565b6102b96301e1338081565b600354610255906001600160a01b031681565b600454610255906001600160a01b031681565b610194610383366004612490565b610b68565b610255610c6f565b610398610c7d565b6040516101b79291906124c1565b6007546101d590600160a81b900461ffff1681565b610398610eb5565b61026b60055481565b6101946103da36600461255b565b6110e4565b6101946103ed36600461238a565b6111bf565b6101d561271081565b6101d5606481565b61040b611205565b60ff8216158061041c575060ff8116155b1561043a576040516317dbc4cb60e21b815260040160405180910390fd5b60035f9054906101000a90046001600160a01b03166001600160a01b031663edcf9c1f6040518163ffffffff1660e01b8152600401602060405180830381865afa15801561048a573d5f5f3e3d5ffd5b505050506040513d601f19601f820116820180604052508101906104ae9190612576565b6104cb576040516312aecd8160e01b815260040160405180910390fd5b6013805463ffff000019166201000060ff9485160263ff00000019161763010000009290931691909102919091179055565b610505611205565b6001600160a01b03811661052c5760405163d92e233d60e01b815260040160405180910390fd5b60035f9054906101000a90046001600160a01b03166001600160a01b031663edcf9c1f6040518163ffffffff1660e01b8152600401602060405180830381865afa15801561057c573d5f5f3e3d5ffd5b505050506040513d601f19601f820116820180604052508101906105a09190612576565b6105bd576040516312aecd8160e01b815260040160405180910390fd5b600280546001600160a01b0319166001600160a01b0383169081179091556040517f6cc7ebdb6c8c53291c5ae16148cab9b049d23bf5bde5632900b40edff56fcb43905f90a250565b60168181548110610615575f80fd5b5f918252602090912001546001600160a01b0316905081565b6002546001600160a01b031633146106595760405163ea8e4eb560e01b815260040160405180910390fd5b610661611237565b6004811015610683576040516317dbc4cb60e21b815260040160405180910390fd5b5f6106916004828486612595565b61069a916125bc565b90506341659aab60e01b6001600160e01b03198216016107e9576106bc611261565b6106c4611292565b600354604051631da09e4360e31b81526001600160a01b039091169063ed04f218906106f4905f906004016125f4565b5f60405180830381865afa15801561070e573d5f5f3e3d5ffd5b505050506040513d5f823e601f3d908101601f1916820160405261073591908101906126e1565b80516107499160159160209091019061226c565b50600354604051631da09e4360e31b81526001600160a01b039091169063ed04f2189061077b906001906004016125f4565b5f60405180830381865afa158015610795573d5f5f3e3d5ffd5b505050506040513d5f823e601f3d908101601f191682016040526107bc91908101906126e1565b80516107d09160169160209091019061226c565b506013805460ff60201b1916600160201b179055610919565b63019918a560e51b6001600160e01b031982160161082d575f61080f8360048187612595565b81019061081c919061271a565b9050610827816113b6565b50610919565b6314897e2360e11b6001600160e01b031982160161086b575f6108538360048187612595565b810190610860919061271a565b905061082781611afd565b6350c9887560e01b6001600160e01b03198216016109005761088b611e9a565b6013805460ff60201b198116825561ffff16905f6108a883612749565b82546101009290920a61ffff818102199093169183160217909155601354604051911681527f0bc12479581640d161e016cef21aa834cb6d6326bbc0d8445e58d56403adf2dc915060200160405180910390a1610919565b6040516317dbc4cb60e21b815260040160405180910390fd5b5061092360018055565b5050565b60158181548110610615575f80fd5b5f606060035f9054906101000a90046001600160a01b03166001600160a01b031663edcf9c1f6040518163ffffffff1660e01b8152600401602060405180830381865afa158015610989573d5f5f3e3d5ffd5b505050506040513d601f19601f820116820180604052508101906109ad9190612576565b80156109bb57506012544210155b15610a0b57600191507fbe9a655586dceb82dfa0af992b5d8ae7fa45053cb7fd6f141f541da7572978c76040516020016109f59190612769565b6040516020818303038152906040529050610b4e565b6001601354600160201b900460ff166003811115610a2b57610a2b61233f565b03610a7657600191507fccdceb60d34ec82e2b625c80d044e07bc5264e5a5f17ab57ea62c77ee8c3d797601360059054906101000a900460ff166040516020016109f592919061277e565b6002601354600160201b900460ff166003811115610a9657610a9661233f565b03610ae157600191507fd6ed03ba70bef77e7dcdbaa2d7d9bcd9a4dd463c2c6bcd5b016869e952bdaddb601360059054906101000a900460ff166040516020016109f592919061277e565b6003601354600160201b900460ff166003811115610b0157610b0161233f565b03610b3b57600191507faf36778b2d01c6b9ccbf0ff82e33823de0a4811632929c60c03041666deffc9b6040516020016109f59190612769565b505060408051602081019091525f808252905b9250929050565b610b5d611205565b610b665f611ffe565b565b610b70611205565b606461ffff83161180610b8857506103e861ffff8216115b15610ba6576040516317dbc4cb60e21b815260040160405180910390fd5b60035f9054906101000a90046001600160a01b03166001600160a01b031663edcf9c1f6040518163ffffffff1660e01b8152600401602060405180830381865afa158015610bf6573d5f5f3e3d5ffd5b505050506040513d601f19601f82011682018060405250810190610c1a9190612576565b610c37576040516312aecd8160e01b815260040160405180910390fd5b6007805463ffffffff60a81b1916600160a81b61ffff9485160261ffff60b81b191617600160b81b9290931691909102919091179055565b5f546001600160a01b031690565b600d80546040805160208084028201810190925282815260609384935f93830182828015610cd257602002820191905f5260205f20905b81546001600160a01b03168152600190910190602001808311610cb4575b505083519394505f9250829150505b8261ffff168161ffff161015610d52575f60086004015f868461ffff1681518110610d0e57610d0e6127a5565b60200260200101516001600160a01b03166001600160a01b031681526020019081526020015f20541115610d4a5781610d4681612749565b9250505b600101610ce1565b508061ffff166001600160401b03811115610d6f57610d6f612608565b604051908082528060200260200182016040528015610d98578160200160208202803683370190505b5094508061ffff166001600160401b03811115610db757610db7612608565b604051908082528060200260200182016040528015610de0578160200160208202803683370190505b5093505f805b8361ffff168161ffff161015610eac575f858261ffff1681518110610e0d57610e0d6127a5565b6020908102919091018101516001600160a01b0381165f908152600c9092526040909120549091508015610ea25781898561ffff1681518110610e5257610e526127a5565b60200260200101906001600160a01b031690816001600160a01b03168152505080888561ffff1681518110610e8957610e896127a5565b602090810291909101015283610e9e81612749565b9450505b5050600101610de6565b50505050509091565b600d80546040805160208084028201810190925282815260609384935f93830182828015610f0a57602002820191905f5260205f20905b81546001600160a01b03168152600190910190602001808311610eec575b505083519394505f9250829150505b8261ffff168161ffff161015610f8a575f60086003015f868461ffff1681518110610f4657610f466127a5565b60200260200101516001600160a01b03166001600160a01b031681526020019081526020015f20541115610f825781610f7e81612749565b9250505b600101610f19565b508061ffff166001600160401b03811115610fa757610fa7612608565b604051908082528060200260200182016040528015610fd0578160200160208202803683370190505b5094508061ffff166001600160401b03811115610fef57610fef612608565b604051908082528060200260200182016040528015611018578160200160208202803683370190505b5093505f805b8361ffff168161ffff161015610eac575f858261ffff1681518110611045576110456127a5565b6020908102919091018101516001600160a01b0381165f908152600b90925260409091205490915080156110da5781898561ffff168151811061108a5761108a6127a5565b60200260200101906001600160a01b031690816001600160a01b03168152505080888561ffff16815181106110c1576110c16127a5565b6020908102919091010152836110d681612749565b9450505b505060010161101e565b6110ec611205565b8063ffffffff165f03611112576040516317dbc4cb60e21b815260040160405180910390fd5b60035f9054906101000a90046001600160a01b03166001600160a01b031663edcf9c1f6040518163ffffffff1660e01b8152600401602060405180830381865afa158015611162573d5f5f3e3d5ffd5b505050506040513d601f19601f820116820180604052508101906111869190612576565b6111a3576040516312aecd8160e01b815260040160405180910390fd5b6011805463ffffffff191663ffffffff92909216919091179055565b6111c7611205565b6001600160a01b0381166111f9575f604051631e4fbdf760e01b81526004016111f091906123bc565b60405180910390fd5b61120281611ffe565b50565b3361120e610c6f565b6001600160a01b031614610b66573360405163118cdaa760e01b81526004016111f091906123bc565b60026001540361125a57604051633ee5aeb560e01b815260040160405180910390fd5b6002600155565b6012544210156112845760405163085de62560e01b815260040160405180910390fd5b61128d4261204d565b601255565b5f60086005018054806020026020016040519081016040528092919081815260200182805480156112ea57602002820191905f5260205f20905b81546001600160a01b031681526001909101906020018083116112cc575b505083519394505f925050505b8161ffff168161ffff161015611394575f838261ffff168151811061131e5761131e6127a5565b6020908102919091018101516001600160a01b03165f90815260088252604080822082905560098352808220829055600a8352808220829055600b8352808220829055600c8352808220829055600e8352808220805460ff19908116909155600f909352902080549091169055506001016112f7565b506113a0600d5f6122cf565b6113ab60155f6122cf565b61092360165f6122cf565b60138054600160281b900460ff169060056113d0836127b9565b91906101000a81548160ff021916908360ff160217905550505f601360029054906101000a900460ff168261140591906127ce565b60135460ff91821692505f916114229162010000900416836127ea565b60155490915061ffff8216111561144c57506015546013805461ffff60201b1916600160211b1790555b815b8161ffff168161ffff161015611af7575f60158261ffff1681548110611476576114766127a5565b905f5260205f20015f9054906101000a90046001600160a01b031690505f5f826001600160a01b031663d3d034586040518163ffffffff1660e01b81526004015f60405180830381865afa1580156114d0573d5f5f3e3d5ffd5b505050506040513d5f823e601f3d908101601f191682016040526114f79190810190612804565b90925090505f805b83518161ffff161015611778575f848261ffff1681518110611523576115236127a5565b6020908102919091018101516001600160a01b0381165f908152600f909252604082205490925060ff1690036115dd57806001600160a01b031663313ce5676040518163ffffffff1660e01b8152600401602060405180830381865afa15801561158f573d5f5f3e3d5ffd5b505050506040513d601f19601f820116820180604052508101906115b391906128c2565b6001600160a01b0382165f908152600f60205260409020805460ff191660ff929092169190911790555b6001600160a01b0381165f908152600f6020908152604080832054600890925282205460ff909116918190036116ce576007546001600160a01b03908116908416036116425760075461163b90600160a01b900460ff16600a6129c0565b90506116b3565b600480546040516341976e0960e01b81526001600160a01b03909116916341976e0991611671918791016123bc565b602060405180830381865afa15801561168c573d5f5f3e3d5ffd5b505050506040513d601f19601f820116820180604052508101906116b091906129ce565b90505b6001600160a01b0383165f9081526008602052604090208190555b5f61171a611706888761ffff16815181106116eb576116eb6127a5565b6020026020010151600554856120689092919063ffffffff16565b6007548590600160a01b900460ff16612119565b905061172681876129e5565b6001600160a01b0385165f908152600960205260408120805492985083929091906117529084906129e5565b90915550611761905084612183565b50505050808061177090612749565b9150506114ff565b505f846001600160a01b031663a68a5267866001600160a01b031663c37fc8a86040518163ffffffff1660e01b8152600401602060405180830381865afa1580156117c5573d5f5f3e3d5ffd5b505050506040513d601f19601f820116820180604052508101906117e991906129ce565b845f6040518463ffffffff1660e01b8152600401611809939291906129f8565b602060405180830381865afa158015611824573d5f5f3e3d5ffd5b505050506040513d601f19601f8201168201806040525081019061184891906129ce565b6007549091505f9061186890600160a81b900461ffff1684612710612068565b60115490915061188990829063ffffffff908116906301e133809061206816565b90506118958184612a1d565b60405163728d42fb60e11b8152600481018290529093505f906001600160a01b0388169063e51a85f690602401602060405180830381865afa1580156118dd573d5f5f3e3d5ffd5b505050506040513d601f19601f8201168201806040525081019061190191906129ce565b6007549091505f9061192190600160b81b900461ffff1683612710612068565b905061192d8183612a1d565b91508282858a6001600160a01b031663d1699c266040518163ffffffff1660e01b8152600401602060405180830381865afa15801561196e573d5f5f3e3d5ffd5b505050506040513d601f19601f8201168201806040525081019061199291906129ce565b61199c9190612a1d565b6119a69190612a1d565b6119b09190612a1d565b6119ba90866129e5565b94505f5f896001600160a01b031663b6eba6536040518163ffffffff1660e01b81526004015f60405180830381865afa1580156119f9573d5f5f3e3d5ffd5b505050506040513d5f823e601f3d908101601f19168201604052611a209190810190612a30565b815191935091505f5b8161ffff168161ffff161015611adf575f848261ffff1681518110611a5057611a506127a5565b602002602001015190505f848361ffff1681518110611a7157611a716127a5565b602002602001015190505f611a998263ffffffff166006548e6120689092919063ffffffff16565b6001600160a01b0384165f908152600a6020526040812080549293508392909190611ac59084906129e5565b90915550611ad4905083612183565b505050600101611a29565b50506001909a01995061144e98505050505050505050565b50505050565b611b05611237565b60138054600160281b900460ff16906005611b1f836127b9565b91906101000a81548160ff021916908360ff160217905550505f601360039054906101000a900460ff1682611b5491906127ce565b60135460ff91821692505f91611b72916301000000900416836127ea565b60165490915061ffff82161115611b9c57506016546013805461ffff60201b1916600360201b1790555b815b8161ffff168161ffff161015611e8e575f60168261ffff1681548110611bc657611bc66127a5565b5f918252602091829020015460408051631b9d6fc560e31b815290516001600160a01b039092169350839263dceb7e28926004808401938290030181865afa158015611c14573d5f5f3e3d5ffd5b505050506040513d601f19601f82011682018060405250810190611c389190612576565b611c425750611e86565b5f5f826001600160a01b031663d3d034586040518163ffffffff1660e01b81526004015f60405180830381865afa158015611c7f573d5f5f3e3d5ffd5b505050506040513d5f823e601f3d908101601f19168201604052611ca69190810190612804565b90925090505f5b82518161ffff161015611e81575f838261ffff1681518110611cd157611cd16127a5565b6020908102919091018101516001600160a01b0381165f908152600f909252604082205490925060ff169003611d8b57806001600160a01b031663313ce5676040518163ffffffff1660e01b8152600401602060405180830381865afa158015611d3d573d5f5f3e3d5ffd5b505050506040513d601f19601f82011682018060405250810190611d6191906128c2565b6001600160a01b0382165f908152600f60205260409020805460ff191660ff929092169190911790555b6001600160a01b0381165f9081526008602052604081205490819003611e6c576007546001600160a01b0390811690831603611de057600754611dd990600160a01b900460ff16600a6129c0565b9050611e51565b600480546040516341976e0960e01b81526001600160a01b03909116916341976e0991611e0f918691016123bc565b602060405180830381865afa158015611e2a573d5f5f3e3d5ffd5b505050506040513d601f19601f82011682018060405250810190611e4e91906129ce565b90505b6001600160a01b0382165f9081526008602052604090208190555b50508080611e7990612749565b915050611cad565b505050505b600101611b9e565b50505061120260018055565b5f6008600501805480602002602001604051908101604052809291908181526020018280548015611ef257602002820191905f5260205f20905b81546001600160a01b03168152600190910190602001808311611ed4575b505083519394505f925050505b8161ffff168161ffff161015611ff9575f838261ffff1681518110611f2657611f266127a5565b6020908102919091018101516001600160a01b0381165f90815260098352604080822054600a855281832054600f909552912054919350919060ff1681831115611fbc575f611f758385612a1d565b6001600160a01b0386165f9081526008602052604081205491925090611f9c908385612208565b6001600160a01b0387165f908152600b602052604090205550611fe99050565b82821115611fe9575f611fcf8484612a1d565b6001600160a01b0386165f908152600c6020526040902055505b505060019092019150611eff9050565b505050565b5f80546001600160a01b038381166001600160a01b0319831681178455604051919092169283917f8be0079c531659141344cd1fd0a4f28419497f9722a3daafe3b4186f6b6457e09190a35050565b6011545f906120629063ffffffff16836129e5565b92915050565b5f5f5f612075868661223f565b91509150815f036120995783818161208f5761208f612ae9565b0492505050612112565b8184116120b0576120b0600385150260111861225b565b5f848688095f868103871696879004966002600389028118808a02820302808a02820302808a02820302808a02820302808a02820302808a02909103029181900381900460010185841190960395909502919093039390930492909217029150505b9392505050565b5f8260ff168260ff16111561214e576121328383612afd565b61213d90600a6129c0565b6121479085612b16565b9050612112565b8260ff168260ff16101561217b576121668284612afd565b61217190600a6129c0565b6121479085612b2d565b509192915050565b6001600160a01b0381165f908152600e602052604090205460ff1661120257600d805460018181019092557fd7b6990105719101dabeb77144f2a3385c8033acd3af97e9423a695e81ad1eb50180546001600160a01b0384166001600160a01b031990911681179091555f908152600e60205260409020805460ff1916909117905550565b5f5f61222484600760149054906101000a900460ff1685612119565b60055490915061223690829087612068565b95945050505050565b5f805f1983850993909202808410938190039390930393915050565b634e487b715f52806020526024601cfd5b828054828255905f5260205f209081019282156122bf579160200282015b828111156122bf57825182546001600160a01b0319166001600160a01b0390911617825560209092019160019091019061228a565b506122cb9291506122e6565b5090565b5080545f8255905f5260205f209081019061120291905b5b808211156122cb575f81556001016122e7565b60ff81168114611202575f5ffd5b5f5f60408385031215612319575f5ffd5b8235612324816122fa565b91506020830135612334816122fa565b809150509250929050565b634e487b7160e01b5f52602160045260245ffd5b600481106112025761120261233f565b6020810161237083612353565b91905290565b6001600160a01b0381168114611202575f5ffd5b5f6020828403121561239a575f5ffd5b813561211281612376565b5f602082840312156123b5575f5ffd5b5035919050565b6001600160a01b0391909116815260200190565b5f5f602083850312156123e1575f5ffd5b82356001600160401b038111156123f6575f5ffd5b8301601f81018513612406575f5ffd5b80356001600160401b0381111561241b575f5ffd5b85602082840101111561242c575f5ffd5b6020919091019590945092505050565b8215158152604060208201525f82518060408401528060208501606085015e5f606082850101526060601f19601f8301168401019150509392505050565b803561ffff8116811461248b575f5ffd5b919050565b5f5f604083850312156124a1575f5ffd5b6124aa8361247a565b91506124b86020840161247a565b90509250929050565b604080825283519082018190525f9060208501906060840190835b818110156125035783516001600160a01b03168352602093840193909201916001016124dc565b5050838103602080860191909152855180835291810192508501905f5b8181101561253e578251845260209384019390920191600101612520565b50919695505050505050565b63ffffffff81168114611202575f5ffd5b5f6020828403121561256b575f5ffd5b81356121128161254a565b5f60208284031215612586575f5ffd5b81518015158114612112575f5ffd5b5f5f858511156125a3575f5ffd5b838611156125af575f5ffd5b5050820193919092039150565b80356001600160e01b031981169060048410156125ed576001600160e01b0319600485900360031b81901b82161691505b5092915050565b60208101600283106123705761237061233f565b634e487b7160e01b5f52604160045260245ffd5b604051601f8201601f191681016001600160401b038111828210171561264457612644612608565b604052919050565b5f6001600160401b0382111561266457612664612608565b5060051b60200190565b5f82601f83011261267d575f5ffd5b815161269061268b8261264c565b61261c565b8082825260208201915060208360051b8601019250858311156126b1575f5ffd5b602085015b838110156126d75780516126c981612376565b8352602092830192016126b6565b5095945050505050565b5f602082840312156126f1575f5ffd5b81516001600160401b03811115612706575f5ffd5b6127128482850161266e565b949350505050565b5f6020828403121561272a575f5ffd5b8135612112816122fa565b634e487b7160e01b5f52601160045260245ffd5b5f61ffff821661ffff810361276057612760612735565b60010192915050565b6001600160e01b031991909116815260040190565b6001600160e01b031992909216825260f81b6001600160f81b031916600482015260050190565b634e487b7160e01b5f52603260045260245ffd5b5f60ff821660ff810361276057612760612735565b60ff81811683821602908116908181146125ed576125ed612735565b61ffff818116838216019081111561206257612062612735565b5f5f60408385031215612815575f5ffd5b82516001600160401b0381111561282a575f5ffd5b6128368582860161266e565b602085015190935090506001600160401b03811115612853575f5ffd5b8301601f81018513612863575f5ffd5b805161287161268b8261264c565b8082825260208201915060208360051b850101925087831115612892575f5ffd5b6020840193505b828410156128b4578351825260209384019390910190612899565b809450505050509250929050565b5f602082840312156128d2575f5ffd5b8151612112816122fa565b6001815b6001841115612918578085048111156128fc576128fc612735565b600184161561290a57908102905b60019390931c9280026128e1565b935093915050565b5f8261292e57506001612062565b8161293a57505f612062565b8160018114612950576002811461295a57612976565b6001915050612062565b60ff84111561296b5761296b612735565b50506001821b612062565b5060208310610133831016604e8410600b8410161715612999575081810a612062565b6129a55f1984846128dd565b805f19048211156129b8576129b8612735565b029392505050565b5f61211260ff841683612920565b5f602082840312156129de575f5ffd5b5051919050565b8082018082111561206257612062612735565b8381526020810183905260608101612a0f83612353565b826040830152949350505050565b8181038181111561206257612062612735565b5f5f60408385031215612a41575f5ffd5b82516001600160401b03811115612a56575f5ffd5b612a628582860161266e565b602085015190935090506001600160401b03811115612a7f575f5ffd5b8301601f81018513612a8f575f5ffd5b8051612a9d61268b8261264c565b8082825260208201915060208360051b850101925087831115612abe575f5ffd5b6020840193505b828410156128b4578351612ad88161254a565b825260209384019390910190612ac5565b634e487b7160e01b5f52601260045260245ffd5b60ff828116828216039081111561206257612062612735565b808202811582820484141761206257612062612735565b5f82612b4757634e487b7160e01b5f52601260045260245ffd5b50049056fea2646970667358221220b423c65754d3e9290c8e739d93463d922e167017518dc57bfd87c2c024f0ac3964736f6c634300081c0033ed8d60e34876f751cc8b014c560745351147d9de11b9347c854e881b128ea600ed8d60e34876f751cc8b014c560745351147d9de11b9347c854e881b128ea601",
  "linkReferences": {},
  "deployedLinkReferences": {}
}