{
  "_format": "hh-sol-artifact-1",
  "contractName": "InternalStatesOrchestrator",
  "sourceName": "contracts/orchestrators/InternalStatesOrchestrator.sol",
  "abi": [
    {
      "inputs": [
        {
          "internalType": "address",
          "name": "target",
          "type": "address"
        }
      ],
      "name": "AddressEmptyCode",
      "type": "error"
    },
    {
      "inputs": [
        {
          "internalType": "address",
          "name": "implementation",
          "type": "address"
        }
      ],
      "name": "ERC1967InvalidImplementation",
      "type": "error"
    },
    {
      "inputs": [],
      "name": "ERC1967NonPayable",
      "type": "error"
    },
    {
      "inputs": [],
      "name": "FailedCall",
      "type": "error"
    },
    {
      "inputs": [],
      "name": "InvalidArguments",
      "type": "error"
    },
    {
      "inputs": [],
      "name": "InvalidInitialization",
      "type": "error"
    },
    {
      "inputs": [],
      "name": "NotAuthorized",
      "type": "error"
    },
    {
      "inputs": [],
      "name": "NotInitializing",
      "type": "error"
    },
    {
      "inputs": [
        {
          "internalType": "address",
          "name": "owner",
          "type": "address"
        }
      ],
      "name": "OwnableInvalidOwner",
      "type": "error"
    },
    {
      "inputs": [
        {
          "internalType": "address",
          "name": "account",
          "type": "address"
        }
      ],
      "name": "OwnableUnauthorizedAccount",
      "type": "error"
    },
    {
      "inputs": [],
      "name": "ReentrancyGuardReentrantCall",
      "type": "error"
    },
    {
      "inputs": [],
      "name": "SystemNotIdle",
      "type": "error"
    },
    {
      "inputs": [],
      "name": "TooEarly",
      "type": "error"
    },
    {
      "inputs": [],
      "name": "UUPSUnauthorizedCallContext",
      "type": "error"
    },
    {
      "inputs": [
        {
          "internalType": "bytes32",
          "name": "slot",
          "type": "bytes32"
        }
      ],
      "name": "UUPSUnsupportedProxiableUUID",
      "type": "error"
    },
    {
      "inputs": [],
      "name": "ZeroAddress",
      "type": "error"
    },
    {
      "anonymous": false,
      "inputs": [
        {
          "indexed": true,
          "internalType": "address",
          "name": "newAutomationRegistry",
          "type": "address"
        }
      ],
      "name": "AutomationRegistryUpdated",
      "type": "event"
    },
    {
      "anonymous": false,
      "inputs": [
        {
          "indexed": false,
          "internalType": "uint64",
          "name": "version",
          "type": "uint64"
        }
      ],
      "name": "Initialized",
      "type": "event"
    },
    {
      "anonymous": false,
      "inputs": [
        {
          "indexed": false,
          "internalType": "uint256",
          "name": "epochCounter",
          "type": "uint256"
        }
      ],
      "name": "InternalStateProcessed",
      "type": "event"
    },
    {
      "anonymous": false,
      "inputs": [
        {
          "indexed": true,
          "internalType": "address",
          "name": "previousOwner",
          "type": "address"
        },
        {
          "indexed": true,
          "internalType": "address",
          "name": "newOwner",
          "type": "address"
        }
      ],
      "name": "OwnershipTransferStarted",
      "type": "event"
    },
    {
      "anonymous": false,
      "inputs": [
        {
          "indexed": true,
          "internalType": "address",
          "name": "previousOwner",
          "type": "address"
        },
        {
          "indexed": true,
          "internalType": "address",
          "name": "newOwner",
          "type": "address"
        }
      ],
      "name": "OwnershipTransferred",
      "type": "event"
    },
    {
      "anonymous": false,
      "inputs": [
        {
          "indexed": true,
          "internalType": "address",
          "name": "implementation",
          "type": "address"
        }
      ],
      "name": "Upgraded",
      "type": "event"
    },
    {
      "inputs": [],
      "name": "UPGRADE_INTERFACE_VERSION",
      "outputs": [
        {
          "internalType": "string",
          "name": "",
          "type": "string"
        }
      ],
      "stateMutability": "view",
      "type": "function"
    },
    {
      "inputs": [],
      "name": "acceptOwnership",
      "outputs": [],
      "stateMutability": "nonpayable",
      "type": "function"
    },
    {
      "inputs": [],
      "name": "automationRegistry",
      "outputs": [
        {
          "internalType": "address",
          "name": "",
          "type": "address"
        }
      ],
      "stateMutability": "view",
      "type": "function"
    },
    {
      "inputs": [
        {
          "internalType": "bytes",
          "name": "",
          "type": "bytes"
        }
      ],
      "name": "checkUpkeep",
      "outputs": [
        {
          "internalType": "bool",
          "name": "upkeepNeeded",
          "type": "bool"
        },
        {
          "internalType": "bytes",
          "name": "performData",
          "type": "bytes"
        }
      ],
      "stateMutability": "view",
      "type": "function"
    },
    {
      "inputs": [],
      "name": "config",
      "outputs": [
        {
          "internalType": "contract IOrionConfig",
          "name": "",
          "type": "address"
        }
      ],
      "stateMutability": "view",
      "type": "function"
    },
    {
      "inputs": [],
      "name": "currentPhase",
      "outputs": [
        {
          "internalType": "enum IInternalStateOrchestrator.InternalUpkeepPhase",
          "name": "",
          "type": "uint8"
        }
      ],
      "stateMutability": "view",
      "type": "function"
    },
    {
      "inputs": [],
      "name": "currentVaultIndex",
      "outputs": [
        {
          "internalType": "uint256",
          "name": "",
          "type": "uint256"
        }
      ],
      "stateMutability": "view",
      "type": "function"
    },
    {
      "inputs": [],
      "name": "epochCounter",
      "outputs": [
        {
          "internalType": "uint256",
          "name": "",
          "type": "uint256"
        }
      ],
      "stateMutability": "view",
      "type": "function"
    },
    {
      "inputs": [],
      "name": "expectedUnderlyingBuyAmount",
      "outputs": [
        {
          "internalType": "uint256",
          "name": "",
          "type": "uint256"
        }
      ],
      "stateMutability": "view",
      "type": "function"
    },
    {
      "inputs": [],
      "name": "expectedUnderlyingSellAmount",
      "outputs": [
        {
          "internalType": "uint256",
          "name": "",
          "type": "uint256"
        }
      ],
      "stateMutability": "view",
      "type": "function"
    },
    {
      "inputs": [],
      "name": "getBuyingOrders",
      "outputs": [
        {
          "internalType": "address[]",
          "name": "tokens",
          "type": "address[]"
        },
        {
          "internalType": "uint256[]",
          "name": "amounts",
          "type": "uint256[]"
        }
      ],
      "stateMutability": "view",
      "type": "function"
    },
    {
      "inputs": [],
      "name": "getSellingOrders",
      "outputs": [
        {
          "internalType": "address[]",
          "name": "tokens",
          "type": "address[]"
        },
        {
          "internalType": "uint256[]",
          "name": "amounts",
          "type": "uint256[]"
        }
      ],
      "stateMutability": "view",
      "type": "function"
    },
    {
      "inputs": [
        {
          "internalType": "address",
          "name": "initialOwner",
          "type": "address"
        },
        {
          "internalType": "address",
          "name": "automationRegistry_",
          "type": "address"
        },
        {
          "internalType": "address",
          "name": "config_",
          "type": "address"
        }
      ],
      "name": "initialize",
      "outputs": [],
      "stateMutability": "nonpayable",
      "type": "function"
    },
    {
      "inputs": [],
      "name": "intentFactor",
      "outputs": [
        {
          "internalType": "uint256",
          "name": "",
          "type": "uint256"
        }
      ],
      "stateMutability": "view",
      "type": "function"
    },
    {
      "inputs": [],
      "name": "owner",
      "outputs": [
        {
          "internalType": "address",
          "name": "",
          "type": "address"
        }
      ],
      "stateMutability": "view",
      "type": "function"
    },
    {
      "inputs": [],
      "name": "pendingOwner",
      "outputs": [
        {
          "internalType": "address",
          "name": "",
          "type": "address"
        }
      ],
      "stateMutability": "view",
      "type": "function"
    },
    {
      "inputs": [
        {
          "internalType": "bytes",
          "name": "performData",
          "type": "bytes"
        }
      ],
      "name": "performUpkeep",
      "outputs": [],
      "stateMutability": "nonpayable",
      "type": "function"
    },
    {
      "inputs": [],
      "name": "proxiableUUID",
      "outputs": [
        {
          "internalType": "bytes32",
          "name": "",
          "type": "bytes32"
        }
      ],
      "stateMutability": "view",
      "type": "function"
    },
    {
      "inputs": [],
      "name": "registry",
      "outputs": [
        {
          "internalType": "contract IPriceAdapterRegistry",
          "name": "",
          "type": "address"
        }
      ],
      "stateMutability": "view",
      "type": "function"
    },
    {
      "inputs": [],
      "name": "renounceOwnership",
      "outputs": [],
      "stateMutability": "nonpayable",
      "type": "function"
    },
    {
      "inputs": [
        {
          "internalType": "address",
          "name": "newOwner",
          "type": "address"
        }
      ],
      "name": "transferOwnership",
      "outputs": [],
      "stateMutability": "nonpayable",
      "type": "function"
    },
    {
      "inputs": [
        {
          "internalType": "uint256",
          "name": "",
          "type": "uint256"
        }
      ],
      "name": "transparentVaultsEpoch",
      "outputs": [
        {
          "internalType": "address",
          "name": "",
          "type": "address"
        }
      ],
      "stateMutability": "view",
      "type": "function"
    },
    {
      "inputs": [],
      "name": "underlyingDecimals",
      "outputs": [
        {
          "internalType": "uint8",
          "name": "",
          "type": "uint8"
        }
      ],
      "stateMutability": "view",
      "type": "function"
    },
    {
      "inputs": [
        {
          "internalType": "address",
          "name": "newAutomationRegistry",
          "type": "address"
        }
      ],
      "name": "updateAutomationRegistry",
      "outputs": [],
      "stateMutability": "nonpayable",
      "type": "function"
    },
    {
      "inputs": [
        {
          "internalType": "address",
          "name": "newConfig",
          "type": "address"
        }
      ],
      "name": "updateConfig",
      "outputs": [],
      "stateMutability": "nonpayable",
      "type": "function"
    },
    {
      "inputs": [],
      "name": "updateInterval",
      "outputs": [
        {
          "internalType": "uint256",
          "name": "",
          "type": "uint256"
        }
      ],
      "stateMutability": "view",
      "type": "function"
    },
    {
      "inputs": [
        {
          "internalType": "uint256",
          "name": "newUpdateInterval",
          "type": "uint256"
        }
      ],
      "name": "updateUpdateInterval",
      "outputs": [],
      "stateMutability": "nonpayable",
      "type": "function"
    },
    {
      "inputs": [
        {
          "internalType": "address",
          "name": "newImplementation",
          "type": "address"
        },
        {
          "internalType": "bytes",
          "name": "data",
          "type": "bytes"
        }
      ],
      "name": "upgradeToAndCall",
      "outputs": [],
      "stateMutability": "payable",
      "type": "function"
    }
  ],
  "bytecode": "0x60a0604052306080523480156012575f5ffd5b506080516130c46100395f395f818161205c0152818161208501526121c401526130c45ff3fe6080604052600436106101af575f3560e01c80636e04ff0d116100e7578063a08b82d711610087578063c2cb5d8811610062578063c2cb5d88146104a3578063e30c3978146104b7578063f2fde38b146104cb578063fd2c80ae146104ea575f5ffd5b8063a08b82d714610425578063ad3cb1cc14610447578063c0c53b8b14610484575f5ffd5b806379ba5097116100c257806379ba5097146103c95780637b103999146103dd5780638da5cb5b146103fc578063998b174114610410575f5ffd5b80636e04ff0d14610369578063715018a61461039657806379502c55146103aa575f5ffd5b80634585e33b1161015257806352d1902d1161012d57806352d1902d146102e157806358fac65b146102f55780635dc228a01461032c5780636cc919c81461034a575f5ffd5b80634585e33b1461029a5780634a1d9625146102b95780634f1ef286146102ce575f5ffd5b806314b19c5a1161018d57806314b19c5a1461022657806314b5d07f1461023b57806325a760c21461025a5780632b0088b414610285575f5ffd5b8063055ad42e146101b357806306cce848146101e257806310c3b26f14610205575b5f5ffd5b3480156101be575f5ffd5b506013546101cc9060ff1681565b6040516101d9919061292a565b60405180910390f35b3480156101ed575f5ffd5b506101f7600e5481565b6040519081526020016101d9565b348015610210575f5ffd5b5061022461021f36600461293d565b6104ff565b005b348015610231575f5ffd5b506101f760105481565b348015610246575f5ffd5b50610224610255366004612968565b61052c565b348015610265575f5ffd5b506004546102739060ff1681565b60405160ff90911681526020016101d9565b348015610290575f5ffd5b506101f760035481565b3480156102a5575f5ffd5b506102246102b4366004612983565b610633565b3480156102c4575f5ffd5b506101f7600f5481565b6102246102dc366004612a33565b6108a0565b3480156102ec575f5ffd5b506101f76108bb565b348015610300575f5ffd5b5061031461030f36600461293d565b6108d6565b6040516001600160a01b0390911681526020016101d9565b348015610337575f5ffd5b505f54610314906001600160a01b031681565b348015610355575f5ffd5b50610224610364366004612968565b6108fe565b348015610374575f5ffd5b50610388610383366004612983565b6109e0565b6040516101d9929190612b06565b3480156103a1575f5ffd5b50610224610b7a565b3480156103b5575f5ffd5b50600154610314906001600160a01b031681565b3480156103d4575f5ffd5b50610224610b8d565b3480156103e8575f5ffd5b50600254610314906001600160a01b031681565b348015610407575f5ffd5b50610314610bda565b34801561041b575f5ffd5b506101f760145481565b348015610430575f5ffd5b50610439610c0e565b6040516101d9929190612b20565b348015610452575f5ffd5b50610477604051806040016040528060058152602001640352e302e360dc1b81525081565b6040516101d99190612ba9565b34801561048f575f5ffd5b5061022461049e366004612bbb565b610e1e565b3480156104ae575f5ffd5b50610439611198565b3480156104c2575f5ffd5b5061031461139f565b3480156104d6575f5ffd5b506102246104e5366004612968565b6113c7565b3480156104f5575f5ffd5b506101f760125481565b61050761144c565b805f03610527576040516317dbc4cb60e21b815260040160405180910390fd5b601255565b61053461144c565b6001600160a01b03811661055b5760405163d92e233d60e01b815260040160405180910390fd5b60015f9054906101000a90046001600160a01b03166001600160a01b031663edcf9c1f6040518163ffffffff1660e01b8152600401602060405180830381865afa1580156105ab573d5f5f3e3d5ffd5b505050506040513d601f19601f820116820180604052508101906105cf9190612c03565b6105ec576040516312aecd8160e01b815260040160405180910390fd5b5f80546001600160a01b0319166001600160a01b038316908117825560405190917f6cc7ebdb6c8c53291c5ae16148cab9b049d23bf5bde5632900b40edff56fcb4391a250565b5f546001600160a01b0316331461065d5760405163ea8e4eb560e01b815260040160405180910390fd5b61066561147e565b6004811015610687576040516317dbc4cb60e21b815260040160405180910390fd5b5f6106956004828486612c22565b61069e91612c49565b90506341659aab60e01b6001600160e01b0319821601610764576106c06114c8565b6106c86114f9565b600154604051631da09e4360e31b81526001600160a01b039091169063ed04f218906106f8905f90600401612c81565b5f60405180830381865afa158015610712573d5f5f3e3d5ffd5b505050506040513d5f823e601f3d908101601f191682016040526107399190810190612d2a565b805161074d91601591602090910190612878565b505f6014556013805460ff19166001179055610872565b600162e1be3b60e01b03196001600160e01b03198216016107ab575f61078d8360048187612c22565b81019061079a919061293d565b90506107a5816115fa565b50610872565b630795aad760e41b6001600160e01b03198216016107d0576107cb611b35565b610872565b6350c9887560e01b6001600160e01b0319821601610859576107f0611e9e565b6013805460ff1916905561080560155f6128db565b60108054905f61081483612d6f565b91905055507f9375d658f91055a030c54d5cf460d6f12968b10b80b0797c1aa5c02e4dca940360105460405161084c91815260200190565b60405180910390a1610872565b6040516317dbc4cb60e21b815260040160405180910390fd5b5061089c60017f9b779b17422d0df92223018b32b4d1fa46e071723d6817e2486d003becc55f0055565b5050565b6108a8612051565b6108b1826120f5565b61089c82826120fd565b5f6108c46121b9565b505f51602061306f5f395f51905f5290565b601581815481106108e5575f80fd5b5f918252602090912001546001600160a01b0316905081565b61090661144c565b6001600160a01b03811661092d5760405163d92e233d60e01b815260040160405180910390fd5b60015f9054906101000a90046001600160a01b03166001600160a01b031663edcf9c1f6040518163ffffffff1660e01b8152600401602060405180830381865afa15801561097d573d5f5f3e3d5ffd5b505050506040513d601f19601f820116820180604052508101906109a19190612c03565b6109be576040516312aecd8160e01b815260040160405180910390fd5b600180546001600160a01b0319166001600160a01b0392909216919091179055565b5f606060015f9054906101000a90046001600160a01b03166001600160a01b031663edcf9c1f6040518163ffffffff1660e01b8152600401602060405180830381865afa158015610a33573d5f5f3e3d5ffd5b505050506040513d601f19601f82011682018060405250810190610a579190612c03565b8015610a6557506011544210155b15610a985760405163be9a655560e01b6020820152600192506024015b6040516020818303038152906040529050610b73565b600160135460ff166003811115610ab157610ab1612906565b148015610ac15750601554601454105b15610aec5760145460405162e1be3b60e01b6020820152602481019190915260019250604401610a82565b600260135460ff166003811115610b0557610b05612906565b03610b265760405163086a552960e41b602082015260019250602401610a82565b600360135460ff166003811115610b3f57610b3f612906565b03610b605760405163af36778b60e01b602082015260019250602401610a82565b505060408051602081019091525f808252905b9250929050565b610b8261144c565b610b8b5f612202565b565b3380610b9761139f565b6001600160a01b031614610bce5760405163118cdaa760e01b81526001600160a01b03821660048201526024015b60405180910390fd5b610bd781612202565b50565b5f807f9016d09d72d40fdae2fd8ceac6b6234c7706214fd39c1cd1e609a0528c1993005b546001600160a01b031692915050565b600a80546040805160208084028201810190925282815260609384935f93830182828015610c6357602002820191905f5260205f20905b81546001600160a01b03168152600190910190602001808311610c45575b505083519394505f9250829150505b82811015610cd7575f60056004015f868481518110610c9357610c93612d87565b60200260200101516001600160a01b03166001600160a01b031681526020019081526020015f20541115610ccf5781610ccb81612d6f565b9250505b600101610c72565b50806001600160401b03811115610cf057610cf06129ef565b604051908082528060200260200182016040528015610d19578160200160208202803683370190505b509450806001600160401b03811115610d3457610d346129ef565b604051908082528060200260200182016040528015610d5d578160200160208202803683370190505b5093505f805b83811015610e15575f858281518110610d7e57610d7e612d87565b6020908102919091018101516001600160a01b0381165f90815260099092526040909120549091508015610e0b5781898581518110610dbf57610dbf612d87565b60200260200101906001600160a01b031690816001600160a01b03168152505080888581518110610df257610df2612d87565b602090810291909101015283610e0781612d6f565b9450505b5050600101610d63565b50505050509091565b5f610e2761223a565b805490915060ff600160401b82041615906001600160401b03165f81158015610e4d5750825b90505f826001600160401b03166001148015610e685750303b155b905081158015610e76575080155b15610e945760405163f92ee8a960e01b815260040160405180910390fd5b845467ffffffffffffffff191660011785558315610ebe57845460ff60401b1916600160401b1785555b610ec788612264565b610ecf612275565b610ed761227d565b610edf612275565b6001600160a01b038716610f065760405163d92e233d60e01b815260040160405180910390fd5b6001600160a01b038616610f2d5760405163d92e233d60e01b815260040160405180910390fd5b5f80546001600160a01b03808a166001600160a01b0319928316179092556001805492891692909116821790556040805163015df99360e01b8152905163015df993916004808201926020929091908290030181865afa158015610f93573d5f5f3e3d5ffd5b505050506040513d601f19601f82011682018060405250810190610fb79190612d9b565b600280546001600160a01b0319166001600160a01b039283161790556001546040805163d1717c7d60e01b81529051919092169163d1717c7d9160048083019260209291908290030181865afa158015611013573d5f5f3e3d5ffd5b505050506040513d601f19601f820116820180604052508101906110379190612db6565b61104290600a612eb9565b60035560015460408051631c56369f60e21b815290516001600160a01b0390921691637158da7c916004808201926020929091908290030181865afa15801561108d573d5f5f3e3d5ffd5b505050506040513d601f19601f820116820180604052508101906110b19190612d9b565b6001600160a01b031663313ce5676040518163ffffffff1660e01b8152600401602060405180830381865afa1580156110ec573d5f5f3e3d5ffd5b505050506040513d601f19601f820116820180604052508101906111109190612db6565b6004805460ff191660ff9290921691909117905561112d4261228d565b6011555f6010819055603c6012556013805460ff19169055601455831561118e57845460ff60401b19168555604051600181527fc7f505b2f371ae2175ee4913f4499e1f2633a7b5936321eed1cdaeb6115181d29060200160405180910390a15b5050505050505050565b600a80546040805160208084028201810190925282815260609384935f938301828280156111ed57602002820191905f5260205f20905b81546001600160a01b031681526001909101906020018083116111cf575b505083519394505f9250829150505b82811015611261575f60056003015f86848151811061121d5761121d612d87565b60200260200101516001600160a01b03166001600160a01b031681526020019081526020015f20541115611259578161125581612d6f565b9250505b6001016111fc565b50806001600160401b0381111561127a5761127a6129ef565b6040519080825280602002602001820160405280156112a3578160200160208202803683370190505b509450806001600160401b038111156112be576112be6129ef565b6040519080825280602002602001820160405280156112e7578160200160208202803683370190505b5093505f805b83811015610e15575f85828151811061130857611308612d87565b6020908102919091018101516001600160a01b0381165f90815260089092526040909120549091508015611395578189858151811061134957611349612d87565b60200260200101906001600160a01b031690816001600160a01b0316815250508088858151811061137c5761137c612d87565b60209081029190910101528361139181612d6f565b9450505b50506001016112ed565b5f807f237e158222e3e6968b72b9db0d8043aacf074ad9f650f0d1606b4d82ee432c00610bfe565b6113cf61144c565b7f237e158222e3e6968b72b9db0d8043aacf074ad9f650f0d1606b4d82ee432c0080546001600160a01b0319166001600160a01b0383169081178255611413610bda565b6001600160a01b03167f38d16b8cac22d99fc7c124b9cd0de2d3fa1faef420bfe791d8c362d765e2270060405160405180910390a35050565b33611455610bda565b6001600160a01b031614610b8b5760405163118cdaa760e01b8152336004820152602401610bc5565b7f9b779b17422d0df92223018b32b4d1fa46e071723d6817e2486d003becc55f008054600119016114c257604051633ee5aeb560e01b815260040160405180910390fd5b60029055565b6011544210156114eb5760405163085de62560e01b815260040160405180910390fd5b6114f44261228d565b601155565b5f6005800180548060200260200160405190810160405280929190818152602001828054801561155057602002820191905f5260205f20905b81546001600160a01b03168152600190910190602001808311611532575b505083519394505f925050505b818110156115ee575f83828151811061157857611578612d87565b6020908102919091018101516001600160a01b03165f90815260058252604080822082905560068352808220829055600783528082208290556008835280822082905560098352808220829055600b8352808220805460ff19908116909155600c9093529020805490911690555060010161155d565b5061089c600a5f6128db565b5f6015828154811061160e5761160e612d87565b905f5260205f20015f9054906101000a90046001600160a01b031690505f5f826001600160a01b031663d3d034586040518163ffffffff1660e01b81526004015f60405180830381865afa158015611668573d5f5f3e3d5ffd5b505050506040513d5f823e601f3d908101601f1916820160405261168f9190810190612ec7565b90925090505f805b83518110156118a2575f8482815181106116b3576116b3612d87565b6020908102919091018101516001600160a01b0381165f908152600c909252604082205490925060ff16900361176d57806001600160a01b031663313ce5676040518163ffffffff1660e01b8152600401602060405180830381865afa15801561171f573d5f5f3e3d5ffd5b505050506040513d601f19601f820116820180604052508101906117439190612db6565b6001600160a01b0382165f908152600c60205260409020805460ff191660ff929092169190911790555b6001600160a01b0381165f908152600c6020908152604080832054600590925282205460ff90911691819003611826576002546040516341976e0960e01b81526001600160a01b038581166004830152909116906341976e0990602401602060405180830381865afa1580156117e5573d5f5f3e3d5ffd5b505050506040513d601f19601f820116820180604052508101906118099190612f83565b6001600160a01b0384165f90815260056020526040902081905590505b5f61184b8288878151811061183d5761183d612d87565b60200260200101518561229c565b90506118578187612f9a565b6001600160a01b0385165f90815260066020526040812080549298508392909190611883908490612f9a565b909155506118929050846122de565b5050600190920191506116979050565b505f846001600160a01b031663a68a5267866001600160a01b031663c37fc8a86040518163ffffffff1660e01b8152600401602060405180830381865afa1580156118ef573d5f5f3e3d5ffd5b505050506040513d601f19601f820116820180604052508101906119139190612f83565b845f6040518463ffffffff1660e01b815260040161193393929190612fad565b602060405180830381865afa15801561194e573d5f5f3e3d5ffd5b505050506040513d601f19601f820116820180604052508101906119729190612f83565b90505f81866001600160a01b031663d1699c266040518163ffffffff1660e01b8152600401602060405180830381865afa1580156119b2573d5f5f3e3d5ffd5b505050506040513d601f19601f820116820180604052508101906119d69190612f83565b6119e09085612f9a565b6119ea9190612fd2565b90505f5f876001600160a01b031663b6eba6536040518163ffffffff1660e01b81526004015f60405180830381865afa158015611a29573d5f5f3e3d5ffd5b505050506040513d5f823e601f3d908101601f19168201604052611a509190810190612ec7565b815191935091505f5b81811015611afb575f848281518110611a7457611a74612d87565b602002602001015190505f848381518110611a9157611a91612d87565b602002602001015190505f6003548289611aab9190612fe5565b611ab59190612ffc565b6001600160a01b0384165f90815260076020526040812080549293508392909190611ae1908490612f9a565b90915550611af09050836122de565b505050600101611a59565b5060148054905f611b0b83612d6f565b909155505060155460145410611b29576013805460ff191660021790555b50505050505050505050565b60018054604051631da09e4360e31b81525f926001600160a01b039092169163ed04f21891611b679190600401612c81565b5f60405180830381865afa158015611b81573d5f5f3e3d5ffd5b505050506040513d5f823e601f3d908101601f19168201604052611ba89190810190612d2a565b90505f5b8151811015611e8d575f828281518110611bc857611bc8612d87565b602002602001015190505f5f826001600160a01b031663d3d034586040518163ffffffff1660e01b81526004015f60405180830381865afa158015611c0f573d5f5f3e3d5ffd5b505050506040513d5f823e601f3d908101601f19168201604052611c369190810190612ec7565b915091505f611c445f612363565b90505f5b8351811015611e14575f848281518110611c6457611c64612d87565b6020908102919091018101516001600160a01b0381165f908152600c909252604082205490925060ff169003611d1e57806001600160a01b031663313ce5676040518163ffffffff1660e01b8152600401602060405180830381865afa158015611cd0573d5f5f3e3d5ffd5b505050506040513d601f19601f82011682018060405250810190611cf49190612db6565b6001600160a01b0382165f908152600c60205260409020805460ff191660ff929092169190911790555b6001600160a01b0381165f908152600c6020908152604080832054600590925282205460ff90911691819003611dd7576002546040516341976e0960e01b81526001600160a01b038581166004830152909116906341976e0990602401602060405180830381865afa158015611d96573d5f5f3e3d5ffd5b505050506040513d601f19601f82011682018060405250810190611dba9190612f83565b6001600160a01b0384165f90815260056020526040902081905590505b5f611df682888781518110611dee57611dee612d87565b505f92915050565b9050611e028682612375565b95505060019093019250611c48915050565b505f5f856001600160a01b031663b6eba6536040518163ffffffff1660e01b81526004015f60405180830381865afa158015611e52573d5f5f3e3d5ffd5b505050506040513d5f823e601f3d908101601f19168201604052611e799190810190612ec7565b505060019096019550611bac945050505050565b50506013805460ff19166003179055565b5f60058001805480602002602001604051908101604052809291908181526020018280548015611ef557602002820191905f5260205f20905b81546001600160a01b03168152600190910190602001808311611ed7575b505083515f600e819055600f81905594955093925050505b81811015612026575f838281518110611f2857611f28612d87565b6020908102919091018101516001600160a01b0381165f908152600683526040808220546007855281832054600c909552912054919350919060ff1681831115611fd2575f611f778385612fd2565b905080600e5f828254611f8a9190612f9a565b90915550506001600160a01b0385165f90815260056020526040812054611fb29083856123aa565b6001600160a01b0387165f90815260086020526040902055506120169050565b82821115612016575f611fe58484612fd2565b905080600f5f828254611ff89190612f9a565b90915550506001600160a01b0385165f908152600960205260409020555b505060019092019150611f0d9050565b505050565b60017f9b779b17422d0df92223018b32b4d1fa46e071723d6817e2486d003becc55f0055565b306001600160a01b037f00000000000000000000000000000000000000000000000000000000000000001614806120d757507f00000000000000000000000000000000000000000000000000000000000000006001600160a01b03166120cb5f51602061306f5f395f51905f52546001600160a01b031690565b6001600160a01b031614155b15610b8b5760405163703e46dd60e11b815260040160405180910390fd5b610bd761144c565b816001600160a01b03166352d1902d6040518163ffffffff1660e01b8152600401602060405180830381865afa925050508015612157575060408051601f3d908101601f1916820190925261215491810190612f83565b60015b61217f57604051634c9c8ce360e01b81526001600160a01b0383166004820152602401610bc5565b5f51602061306f5f395f51905f5281146121af57604051632a87526960e21b815260048101829052602401610bc5565b61202683836123e8565b306001600160a01b037f00000000000000000000000000000000000000000000000000000000000000001614610b8b5760405163703e46dd60e11b815260040160405180910390fd5b7f237e158222e3e6968b72b9db0d8043aacf074ad9f650f0d1606b4d82ee432c0080546001600160a01b031916815561089c8261243d565b5f807ff0c57e16840df040f15088dc2f81fe391c3923bec73e23a9662efc9c229c6a005b92915050565b61226c6124ad565b610bd7816124d2565b610b8b6124ad565b6122856124ad565b610b8b612503565b5f6012548261225e9190612f9a565b5f806122a88486612fe5565b6004549091505f906122c0908390869060ff1661250b565b90506122d4670de0b6b3a764000082612ffc565b9695505050505050565b6001600160a01b0381165f908152600b602052604090205460ff16610bd757600a805460018181019092557fc65a7bb8d6351c1cf70c95a316cc6a92839c986682d98bc35f958f4883f9d2a80180546001600160a01b0384166001600160a01b031990911681179091555f908152600b60205260409020805460ff1916909117905550565b5f61225e8263ffffffff166004612575565b5f82612387576123845f612363565b92505b81612398576123955f612363565b91505b6123a383835f612632565b9392505050565b6004545f9081906123c090859060ff168561250b565b9050846123d5670de0b6b3a764000083612fe5565b6123df9190612ffc565b95945050505050565b6123f1826126f0565b6040516001600160a01b038316907fbc7cd75a20ee27fd9adebab32041f755214dbc6bffa90cc0225b39da2e5c2d3b905f90a2805115612435576120268282612753565b61089c6127bc565b7f9016d09d72d40fdae2fd8ceac6b6234c7706214fd39c1cd1e609a0528c19930080546001600160a01b031981166001600160a01b03848116918217845560405192169182907f8be0079c531659141344cd1fd0a4f28419497f9722a3daafe3b4186f6b6457e0905f90a3505050565b6124b56127db565b610b8b57604051631afcd79f60e31b815260040160405180910390fd5b6124da6124ad565b6001600160a01b038116610bce57604051631e4fbdf760e01b81525f6004820152602401610bc5565b61202b6124ad565b5f8260ff168260ff16111561254057612524838361301b565b61252f90600a612eb9565b6125399085612fe5565b90506123a3565b8260ff168260ff16101561256d57612558828461301b565b61256390600a612eb9565b6125399085612ffc565b509192915050565b7fed8d60e34876f751cc8b014c560745351147d9de11b9347c854e881b128ea60154604051639cd07acb60e01b81525f917fed8d60e34876f751cc8b014c560745351147d9de11b9347c854e881b128ea600916001600160a01b0390911690639cd07acb906125ea9087908790600401613034565b6020604051808303815f875af1158015612606573d5f5f3e3d5ffd5b505050506040513d601f19601f8201168201806040525081019061262a9190612f83565b949350505050565b5f5f82156126455750600160f81b612648565b505f5b5f7fed8d60e34876f751cc8b014c560745351147d9de11b9347c854e881b128ea600600181015460405163022f65e760e31b815260048101899052602481018890526001600160f81b0319851660448201529192506001600160a01b03169063117b2f38906064016020604051808303815f875af11580156126cc573d5f5f3e3d5ffd5b505050506040513d601f19601f820116820180604052508101906122d49190612f83565b806001600160a01b03163b5f0361272557604051634c9c8ce360e01b81526001600160a01b0382166004820152602401610bc5565b5f51602061306f5f395f51905f5280546001600160a01b0319166001600160a01b0392909216919091179055565b60605f5f846001600160a01b03168460405161276f9190613058565b5f60405180830381855af49150503d805f81146127a7576040519150601f19603f3d011682016040523d82523d5f602084013e6127ac565b606091505b50915091506123df8583836127f4565b3415610b8b5760405163b398979f60e01b815260040160405180910390fd5b5f6127e461223a565b54600160401b900460ff16919050565b6060826128095761280482612850565b6123a3565b815115801561282057506001600160a01b0384163b155b1561284957604051639996b31560e01b81526001600160a01b0385166004820152602401610bc5565b50806123a3565b80511561285f57805160208201fd5b60405163d6bda27560e01b815260040160405180910390fd5b828054828255905f5260205f209081019282156128cb579160200282015b828111156128cb57825182546001600160a01b0319166001600160a01b03909116178255602090920191600190910190612896565b506128d79291506128f2565b5090565b5080545f8255905f5260205f2090810190610bd791905b5b808211156128d7575f81556001016128f3565b634e487b7160e01b5f52602160045260245ffd5b60048110610bd757610bd7612906565b602081016129378361291a565b91905290565b5f6020828403121561294d575f5ffd5b5035919050565b6001600160a01b0381168114610bd7575f5ffd5b5f60208284031215612978575f5ffd5b81356123a381612954565b5f5f60208385031215612994575f5ffd5b82356001600160401b038111156129a9575f5ffd5b8301601f810185136129b9575f5ffd5b80356001600160401b038111156129ce575f5ffd5b8560208284010111156129df575f5ffd5b6020919091019590945092505050565b634e487b7160e01b5f52604160045260245ffd5b604051601f8201601f191681016001600160401b0381118282101715612a2b57612a2b6129ef565b604052919050565b5f5f60408385031215612a44575f5ffd5b8235612a4f81612954565b915060208301356001600160401b03811115612a69575f5ffd5b8301601f81018513612a79575f5ffd5b80356001600160401b03811115612a9257612a926129ef565b612aa5601f8201601f1916602001612a03565b818152866020838501011115612ab9575f5ffd5b816020840160208301375f602083830101528093505050509250929050565b5f81518084528060208401602086015e5f602082860101526020601f19601f83011685010191505092915050565b8215158152604060208201525f61262a6040830184612ad8565b604080825283519082018190525f9060208501906060840190835b81811015612b625783516001600160a01b0316835260209384019390920191600101612b3b565b5050838103602080860191909152855180835291810192508501905f5b81811015612b9d578251845260209384019390920191600101612b7f565b50919695505050505050565b602081525f6123a36020830184612ad8565b5f5f5f60608486031215612bcd575f5ffd5b8335612bd881612954565b92506020840135612be881612954565b91506040840135612bf881612954565b809150509250925092565b5f60208284031215612c13575f5ffd5b815180151581146123a3575f5ffd5b5f5f85851115612c30575f5ffd5b83861115612c3c575f5ffd5b5050820193919092039150565b80356001600160e01b03198116906004841015612c7a576001600160e01b0319600485900360031b81901b82161691505b5092915050565b602081016002831061293757612937612906565b5f6001600160401b03821115612cad57612cad6129ef565b5060051b60200190565b5f82601f830112612cc6575f5ffd5b8151612cd9612cd482612c95565b612a03565b8082825260208201915060208360051b860101925085831115612cfa575f5ffd5b602085015b83811015612d20578051612d1281612954565b835260209283019201612cff565b5095945050505050565b5f60208284031215612d3a575f5ffd5b81516001600160401b03811115612d4f575f5ffd5b61262a84828501612cb7565b634e487b7160e01b5f52601160045260245ffd5b5f60018201612d8057612d80612d5b565b5060010190565b634e487b7160e01b5f52603260045260245ffd5b5f60208284031215612dab575f5ffd5b81516123a381612954565b5f60208284031215612dc6575f5ffd5b815160ff811681146123a3575f5ffd5b6001815b6001841115612e1157808504811115612df557612df5612d5b565b6001841615612e0357908102905b60019390931c928002612dda565b935093915050565b5f82612e275750600161225e565b81612e3357505f61225e565b8160018114612e495760028114612e5357612e6f565b600191505061225e565b60ff841115612e6457612e64612d5b565b50506001821b61225e565b5060208310610133831016604e8410600b8410161715612e92575081810a61225e565b612e9e5f198484612dd6565b805f1904821115612eb157612eb1612d5b565b029392505050565b5f6123a360ff841683612e19565b5f5f60408385031215612ed8575f5ffd5b82516001600160401b03811115612eed575f5ffd5b612ef985828601612cb7565b92505060208301516001600160401b03811115612f14575f5ffd5b8301601f81018513612f24575f5ffd5b8051612f32612cd482612c95565b8082825260208201915060208360051b850101925087831115612f53575f5ffd5b6020840193505b82841015612f75578351825260209384019390910190612f5a565b809450505050509250929050565b5f60208284031215612f93575f5ffd5b5051919050565b8082018082111561225e5761225e612d5b565b8381526020810183905260608101612fc48361291a565b826040830152949350505050565b8181038181111561225e5761225e612d5b565b808202811582820484141761225e5761225e612d5b565b5f8261301657634e487b7160e01b5f52601260045260245ffd5b500490565b60ff828116828216039081111561225e5761225e612d5b565b828152604081016054831061304b5761304b612906565b8260208301529392505050565b5f82518060208501845e5f92019182525091905056fe360894a13ba1a3210667c828492db98dca3e2076cc3735a920a3ca505d382bbca2646970667358221220fba75af5e27812cede9eee2b8ee8761c4151156c8c267599f4893d6dbff3108264736f6c634300081c0033",
  "linkReferences": {},
  "deployedLinkReferences": {}
}