{
  "_format": "hh-sol-artifact-1",
  "contractName": "InternalStatesOrchestrator",
  "sourceName": "contracts/orchestrators/InternalStatesOrchestrator.sol",
  "abi": [
    {
      "inputs": [
        {
          "internalType": "address",
          "name": "initialOwner",
          "type": "address"
        },
        {
          "internalType": "address",
          "name": "config_",
          "type": "address"
        },
        {
          "internalType": "address",
          "name": "automationRegistry_",
          "type": "address"
        }
      ],
      "stateMutability": "nonpayable",
      "type": "constructor"
    },
    {
      "inputs": [],
      "name": "HandlesAlreadySavedForRequestID",
      "type": "error"
    },
    {
      "inputs": [],
      "name": "InsufficientAmount",
      "type": "error"
    },
    {
      "inputs": [],
      "name": "InvalidArguments",
      "type": "error"
    },
    {
      "inputs": [],
      "name": "InvalidKMSSignatures",
      "type": "error"
    },
    {
      "inputs": [],
      "name": "InvalidState",
      "type": "error"
    },
    {
      "inputs": [],
      "name": "NoHandleFoundForRequestID",
      "type": "error"
    },
    {
      "inputs": [],
      "name": "NotAuthorized",
      "type": "error"
    },
    {
      "inputs": [
        {
          "internalType": "address",
          "name": "owner",
          "type": "address"
        }
      ],
      "name": "OwnableInvalidOwner",
      "type": "error"
    },
    {
      "inputs": [
        {
          "internalType": "address",
          "name": "account",
          "type": "address"
        }
      ],
      "name": "OwnableUnauthorizedAccount",
      "type": "error"
    },
    {
      "inputs": [],
      "name": "ReentrancyGuardReentrantCall",
      "type": "error"
    },
    {
      "inputs": [],
      "name": "SystemNotIdle",
      "type": "error"
    },
    {
      "inputs": [],
      "name": "TooEarly",
      "type": "error"
    },
    {
      "inputs": [],
      "name": "ZeroAddress",
      "type": "error"
    },
    {
      "anonymous": false,
      "inputs": [
        {
          "indexed": true,
          "internalType": "address",
          "name": "newAutomationRegistry",
          "type": "address"
        }
      ],
      "name": "AutomationRegistryUpdated",
      "type": "event"
    },
    {
      "anonymous": false,
      "inputs": [
        {
          "indexed": true,
          "internalType": "uint256",
          "name": "requestID",
          "type": "uint256"
        }
      ],
      "name": "DecryptionFulfilled",
      "type": "event"
    },
    {
      "anonymous": false,
      "inputs": [
        {
          "indexed": true,
          "internalType": "uint16",
          "name": "epochCounter",
          "type": "uint16"
        }
      ],
      "name": "InternalStateProcessed",
      "type": "event"
    },
    {
      "anonymous": false,
      "inputs": [
        {
          "indexed": true,
          "internalType": "address",
          "name": "previousOwner",
          "type": "address"
        },
        {
          "indexed": true,
          "internalType": "address",
          "name": "newOwner",
          "type": "address"
        }
      ],
      "name": "OwnershipTransferred",
      "type": "event"
    },
    {
      "inputs": [],
      "name": "BASIS_POINTS_FACTOR",
      "outputs": [
        {
          "internalType": "uint16",
          "name": "",
          "type": "uint16"
        }
      ],
      "stateMutability": "view",
      "type": "function"
    },
    {
      "inputs": [],
      "name": "automationRegistry",
      "outputs": [
        {
          "internalType": "address",
          "name": "",
          "type": "address"
        }
      ],
      "stateMutability": "view",
      "type": "function"
    },
    {
      "inputs": [],
      "name": "bufferAmount",
      "outputs": [
        {
          "internalType": "uint256",
          "name": "",
          "type": "uint256"
        }
      ],
      "stateMutability": "view",
      "type": "function"
    },
    {
      "inputs": [
        {
          "internalType": "uint256",
          "name": "requestID",
          "type": "uint256"
        },
        {
          "internalType": "bytes",
          "name": "cleartexts",
          "type": "bytes"
        },
        {
          "internalType": "bytes",
          "name": "decryptionProof",
          "type": "bytes"
        }
      ],
      "name": "callbackPreProcessDecrypt",
      "outputs": [],
      "stateMutability": "nonpayable",
      "type": "function"
    },
    {
      "inputs": [
        {
          "internalType": "bytes",
          "name": "",
          "type": "bytes"
        }
      ],
      "name": "checkUpkeep",
      "outputs": [
        {
          "internalType": "bool",
          "name": "upkeepNeeded",
          "type": "bool"
        },
        {
          "internalType": "bytes",
          "name": "performData",
          "type": "bytes"
        }
      ],
      "stateMutability": "view",
      "type": "function"
    },
    {
      "inputs": [],
      "name": "config",
      "outputs": [
        {
          "internalType": "contract IOrionConfig",
          "name": "",
          "type": "address"
        }
      ],
      "stateMutability": "view",
      "type": "function"
    },
    {
      "inputs": [],
      "name": "currentMinibatchIndex",
      "outputs": [
        {
          "internalType": "uint8",
          "name": "",
          "type": "uint8"
        }
      ],
      "stateMutability": "view",
      "type": "function"
    },
    {
      "inputs": [],
      "name": "currentPhase",
      "outputs": [
        {
          "internalType": "enum IInternalStateOrchestrator.InternalUpkeepPhase",
          "name": "",
          "type": "uint8"
        }
      ],
      "stateMutability": "view",
      "type": "function"
    },
    {
      "inputs": [],
      "name": "encryptedMinibatchSize",
      "outputs": [
        {
          "internalType": "uint8",
          "name": "",
          "type": "uint8"
        }
      ],
      "stateMutability": "view",
      "type": "function"
    },
    {
      "inputs": [
        {
          "internalType": "uint256",
          "name": "",
          "type": "uint256"
        }
      ],
      "name": "encryptedVaultsEpoch",
      "outputs": [
        {
          "internalType": "address",
          "name": "",
          "type": "address"
        }
      ],
      "stateMutability": "view",
      "type": "function"
    },
    {
      "inputs": [],
      "name": "epochCounter",
      "outputs": [
        {
          "internalType": "uint16",
          "name": "",
          "type": "uint16"
        }
      ],
      "stateMutability": "view",
      "type": "function"
    },
    {
      "inputs": [],
      "name": "epochDuration",
      "outputs": [
        {
          "internalType": "uint32",
          "name": "",
          "type": "uint32"
        }
      ],
      "stateMutability": "view",
      "type": "function"
    },
    {
      "inputs": [],
      "name": "getEpochTokens",
      "outputs": [
        {
          "internalType": "address[]",
          "name": "tokens",
          "type": "address[]"
        }
      ],
      "stateMutability": "view",
      "type": "function"
    },
    {
      "inputs": [],
      "name": "getOrders",
      "outputs": [
        {
          "internalType": "address[]",
          "name": "sellingTokens",
          "type": "address[]"
        },
        {
          "internalType": "uint256[]",
          "name": "sellingAmounts",
          "type": "uint256[]"
        },
        {
          "internalType": "address[]",
          "name": "buyingTokens",
          "type": "address[]"
        },
        {
          "internalType": "uint256[]",
          "name": "buyingAmounts",
          "type": "uint256[]"
        },
        {
          "internalType": "uint256[]",
          "name": "sellingEstimatedUnderlyingAmounts",
          "type": "uint256[]"
        },
        {
          "internalType": "uint256[]",
          "name": "buyingEstimatedUnderlyingAmounts",
          "type": "uint256[]"
        }
      ],
      "stateMutability": "view",
      "type": "function"
    },
    {
      "inputs": [
        {
          "internalType": "address",
          "name": "token",
          "type": "address"
        }
      ],
      "name": "getPriceOf",
      "outputs": [
        {
          "internalType": "uint256",
          "name": "price",
          "type": "uint256"
        }
      ],
      "stateMutability": "view",
      "type": "function"
    },
    {
      "inputs": [
        {
          "internalType": "address",
          "name": "vault",
          "type": "address"
        }
      ],
      "name": "getVaultTotalAssetsForFulfillRedeem",
      "outputs": [
        {
          "internalType": "uint256",
          "name": "totalAssets",
          "type": "uint256"
        }
      ],
      "stateMutability": "view",
      "type": "function"
    },
    {
      "inputs": [],
      "name": "intentFactor",
      "outputs": [
        {
          "internalType": "uint256",
          "name": "",
          "type": "uint256"
        }
      ],
      "stateMutability": "view",
      "type": "function"
    },
    {
      "inputs": [],
      "name": "liquidityOrchestrator",
      "outputs": [
        {
          "internalType": "contract ILiquidityOrchestrator",
          "name": "",
          "type": "address"
        }
      ],
      "stateMutability": "view",
      "type": "function"
    },
    {
      "inputs": [],
      "name": "owner",
      "outputs": [
        {
          "internalType": "address",
          "name": "",
          "type": "address"
        }
      ],
      "stateMutability": "view",
      "type": "function"
    },
    {
      "inputs": [],
      "name": "pendingProtocolFees",
      "outputs": [
        {
          "internalType": "uint256",
          "name": "",
          "type": "uint256"
        }
      ],
      "stateMutability": "view",
      "type": "function"
    },
    {
      "inputs": [
        {
          "internalType": "bytes",
          "name": "performData",
          "type": "bytes"
        }
      ],
      "name": "performUpkeep",
      "outputs": [],
      "stateMutability": "nonpayable",
      "type": "function"
    },
    {
      "inputs": [],
      "name": "priceAdapterPrecision",
      "outputs": [
        {
          "internalType": "uint256",
          "name": "",
          "type": "uint256"
        }
      ],
      "stateMutability": "view",
      "type": "function"
    },
    {
      "inputs": [],
      "name": "protocolId",
      "outputs": [
        {
          "internalType": "uint256",
          "name": "",
          "type": "uint256"
        }
      ],
      "stateMutability": "pure",
      "type": "function"
    },
    {
      "inputs": [],
      "name": "registry",
      "outputs": [
        {
          "internalType": "contract IPriceAdapterRegistry",
          "name": "",
          "type": "address"
        }
      ],
      "stateMutability": "view",
      "type": "function"
    },
    {
      "inputs": [],
      "name": "renounceOwnership",
      "outputs": [],
      "stateMutability": "nonpayable",
      "type": "function"
    },
    {
      "inputs": [],
      "name": "rsFeeCoefficient",
      "outputs": [
        {
          "internalType": "uint16",
          "name": "",
          "type": "uint16"
        }
      ],
      "stateMutability": "view",
      "type": "function"
    },
    {
      "inputs": [
        {
          "internalType": "uint256",
          "name": "amount",
          "type": "uint256"
        }
      ],
      "name": "subtractPendingProtocolFees",
      "outputs": [],
      "stateMutability": "nonpayable",
      "type": "function"
    },
    {
      "inputs": [
        {
          "internalType": "address",
          "name": "newOwner",
          "type": "address"
        }
      ],
      "name": "transferOwnership",
      "outputs": [],
      "stateMutability": "nonpayable",
      "type": "function"
    },
    {
      "inputs": [],
      "name": "transparentMinibatchSize",
      "outputs": [
        {
          "internalType": "uint8",
          "name": "",
          "type": "uint8"
        }
      ],
      "stateMutability": "view",
      "type": "function"
    },
    {
      "inputs": [
        {
          "internalType": "uint256",
          "name": "",
          "type": "uint256"
        }
      ],
      "name": "transparentVaultsEpoch",
      "outputs": [
        {
          "internalType": "address",
          "name": "",
          "type": "address"
        }
      ],
      "stateMutability": "view",
      "type": "function"
    },
    {
      "inputs": [],
      "name": "underlyingAsset",
      "outputs": [
        {
          "internalType": "address",
          "name": "",
          "type": "address"
        }
      ],
      "stateMutability": "view",
      "type": "function"
    },
    {
      "inputs": [],
      "name": "underlyingDecimals",
      "outputs": [
        {
          "internalType": "uint8",
          "name": "",
          "type": "uint8"
        }
      ],
      "stateMutability": "view",
      "type": "function"
    },
    {
      "inputs": [
        {
          "internalType": "address",
          "name": "newAutomationRegistry",
          "type": "address"
        }
      ],
      "name": "updateAutomationRegistry",
      "outputs": [],
      "stateMutability": "nonpayable",
      "type": "function"
    },
    {
      "inputs": [
        {
          "internalType": "int256",
          "name": "deltaAmount",
          "type": "int256"
        }
      ],
      "name": "updateBufferAmount",
      "outputs": [],
      "stateMutability": "nonpayable",
      "type": "function"
    },
    {
      "inputs": [
        {
          "internalType": "uint32",
          "name": "newEpochDuration",
          "type": "uint32"
        }
      ],
      "name": "updateEpochDuration",
      "outputs": [],
      "stateMutability": "nonpayable",
      "type": "function"
    },
    {
      "inputs": [
        {
          "internalType": "uint8",
          "name": "_transparentMinibatchSize",
          "type": "uint8"
        },
        {
          "internalType": "uint8",
          "name": "_encryptedMinibatchSize",
          "type": "uint8"
        }
      ],
      "name": "updateMinibatchSizes",
      "outputs": [],
      "stateMutability": "nonpayable",
      "type": "function"
    },
    {
      "inputs": [
        {
          "internalType": "uint16",
          "name": "_vFeeCoefficient",
          "type": "uint16"
        },
        {
          "internalType": "uint16",
          "name": "_rsFeeCoefficient",
          "type": "uint16"
        }
      ],
      "name": "updateProtocolFees",
      "outputs": [],
      "stateMutability": "nonpayable",
      "type": "function"
    },
    {
      "inputs": [],
      "name": "vFeeCoefficient",
      "outputs": [
        {
          "internalType": "uint16",
          "name": "",
          "type": "uint16"
        }
      ],
      "stateMutability": "view",
      "type": "function"
    },
    {
      "inputs": [],
      "name": "validEncryptedVaultsCount",
      "outputs": [
        {
          "internalType": "uint16",
          "name": "",
          "type": "uint16"
        }
      ],
      "stateMutability": "view",
      "type": "function"
    }
  ],
  "bytecode": "0x608060405234801561000f575f5ffd5b506040516156e03803806156e083398101604081905261002e9161075f565b826100d26100cd604080516080810182525f80825260208201819052918101829052606081019190915250604080516080810182527350157cffd6bbfa2dece204a89ec419c23ef5755d815273cd3ab3bd6bcc0c0bf3e27912a92043e817b1cf69602082015273a02cda4ca3a71d7c46997716f4283aa851c2881291810191909152731364cbbf2cdf5032c47d8226a6f6fbd2afcdacac606082015290565b61050c565b6001600160a01b0381166100ff57604051631e4fbdf760e01b81525f600482015260240160405180910390fd5b610108816105c5565b50600180556001600160a01b0382166101345760405163d92e233d60e01b815260040160405180910390fd5b6001600160a01b03811661015b5760405163d92e233d60e01b815260040160405180910390fd5b600380546001600160a01b0319166001600160a01b0384169081179091556040805163015df99360e01b8152905163015df993916004808201926020929091908290030181865afa1580156101b2573d5f5f3e3d5ffd5b505050506040513d601f19601f820116820180604052508101906101d691906107a9565b600580546001600160a01b0319166001600160a01b039283161790556003546040805163d1717c7d60e01b81529051919092169163d1717c7d9160048083019260209291908290030181865afa158015610232573d5f5f3e3d5ffd5b505050506040513d601f19601f8201168201806040525081019061025691906107cb565b61026190600a6108e2565b60075560035460408051631c56369f60e21b815290516001600160a01b0390921691637158da7c916004808201926020929091908290030181865afa1580156102ac573d5f5f3e3d5ffd5b505050506040513d601f19601f820116820180604052508101906102d091906107a9565b600880546001600160a01b0319166001600160a01b03928316908117909155600354604051633c2e3e7b60e11b815260048101929092529091169063785c7cf690602401602060405180830381865afa15801561032f573d5f5f3e3d5ffd5b505050506040513d601f19601f8201168201806040525081019061035391906107cb565b600860146101000a81548160ff021916908360ff16021790555060035f9054906101000a90046001600160a01b03166001600160a01b031663567ba7136040518163ffffffff1660e01b8152600401602060405180830381865afa1580156103bd573d5f5f3e3d5ffd5b505050506040513d601f19601f820116820180604052508101906103e191906107cb565b6103ec90600a6108e2565b6006556018805463ffff000019166301010000179055600280546001600160a01b0319166001600160a01b038381169190911790915560035460408051631d06d6c760e11b815290519190921691633a0dad8e9160048281019260209291908290030181865afa158015610462573d5f5f3e3d5ffd5b505050506040513d601f19601f8201168201806040525081019061048691906107a9565b600480546001600160a01b0319166001600160a01b0392909216919091179055601680546201518063ffffffff1990911681179091556104c690426108f0565b6017556018805465ffff0000ffff191690556104e15f610614565b60198190556104ef9061062f565b50506008805463ffffffff60a81b1916905550505f601d5561094a565b80515f5160206156c05f395f51905f5280546001600160a01b03199081166001600160a01b039384161790915560208301515f5160206156a05f395f51905f528054831691841691909117905560408301517f9e7b61f58c47dc699ac88507c4f5bb9f121c03808c5676a8078fe583e46497028054831691841691909117905560608301517f9e7b61f58c47dc699ac88507c4f5bb9f121c03808c5676a8078fe583e46497038054909216921691909117905550565b50565b5f80546001600160a01b038381166001600160a01b0319831681178455604051919092169283917f8be0079c531659141344cd1fd0a4f28419497f9722a3daafe3b4186f6b6457e09190a35050565b5f6106296001600160801b038316600661063e565b92915050565b5f61063a82306106d5565b5090565b5f5160206156a05f395f51905f5254604051639cd07acb60e01b81525f915f5160206156c05f395f51905f52916001600160a01b0390911690639cd07acb9061068d9087908790600401610903565b6020604051808303815f875af11580156106a9573d5f5f3e3d5ffd5b505050506040513d601f19601f820116820180604052508101906106cd9190610933565b949350505050565b5f5f5160206156c05f395f51905f528054604051635ca4b5b160e11b8152600481018690526001600160a01b03858116602483015292935091169063b9496b62906044015f604051808303815f87803b158015610730575f5ffd5b505af1158015610742573d5f5f3e3d5ffd5b50505050505050565b6001600160a01b03811681146105c2575f5ffd5b5f5f5f60608486031215610771575f5ffd5b835161077c8161074b565b602085015190935061078d8161074b565b604085015190925061079e8161074b565b809150509250925092565b5f602082840312156107b9575f5ffd5b81516107c48161074b565b9392505050565b5f602082840312156107db575f5ffd5b815160ff811681146107c4575f5ffd5b634e487b7160e01b5f52601160045260245ffd5b6001815b600184111561083a5780850481111561081e5761081e6107eb565b600184161561082c57908102905b60019390931c928002610803565b935093915050565b5f8261085057506001610629565b8161085c57505f610629565b8160018114610872576002811461087c57610898565b6001915050610629565b60ff84111561088d5761088d6107eb565b50506001821b610629565b5060208310610133831016604e8410600b84101617156108bb575081810a610629565b6108c75f1984846107ff565b805f19048211156108da576108da6107eb565b029392505050565b5f6107c460ff841683610842565b80820180821115610629576106296107eb565b828152604081016054831061092657634e487b7160e01b5f52602160045260245ffd5b8260208301529392505050565b5f60208284031215610943575f5ffd5b5051919050565b614d49806109575f395ff3fe608060405234801561000f575f5ffd5b50600436106101ca575f3560e01c8062bb07bb146101ce578063055ad42e146101e35780630844697d1461020d57806308af604d1461023557806314b19c5a1461025a57806314b5d07f1461026857806325a760c21461027b578063289a2f761461028f5780632b0088b4146102af5780632e2dc43e146102c657806336021ef4146102e05780633a0dad8e146102f45780634585e33b146103075780634ff0876a1461031a5780635488cd621461033f57806358fac65b146103535780635dc228a0146103665780636e04ff0d146103795780636ff041531461039a57806370604445146103af578063715018a6146103c25780637158da7c146103ca57806379502c55146103dd5780637b103999146103f05780637cdabf0a14610403578063800f9fad146104165780638da5cb5b1461041f5780638f5c946514610427578063b8b2af7c14610430578063ba96ff1114610445578063be2683f014610458578063c18e2a5c1461046b578063ca1f32f114610474578063d3f89f661461047d578063da1f12ab1461048b578063e2638ff114610493578063e2c4aaec146104bb578063eeb393c9146104ce578063f2fde38b146104e1575b5f5ffd5b6101e16101dc36600461422f565b6104f4565b005b6018546101f790600160201b900460ff1681565b604051610204919061427a565b60405180910390f35b60085461022290600160b81b900461ffff1681565b60405161ffff9091168152602001610204565b6018546102489062010000900460ff1681565b60405160ff9091168152602001610204565b6018546102229061ffff1681565b6101e16102763660046142a8565b6105ee565b60085461024890600160a01b900460ff1681565b6102a261029d3660046142c3565b6106f7565b60405161020491906142da565b6102b860075481565b604051908152602001610204565b6102ce61071f565b60405161020496959493929190614361565b601854610248906301000000900460ff1681565b6004546102a2906001600160a01b031681565b6101e161031536600461441f565b61099a565b60165461032a9063ffffffff1681565b60405163ffffffff9091168152602001610204565b60185461024890600160281b900460ff1681565b6102a26103613660046142c3565b610b3f565b6002546102a2906001600160a01b031681565b61038c61038736600461441f565b610b4e565b60405161020492919061448b565b6103a2610efe565b60405161020491906144a5565b6101e16103bd3660046142c3565b610f98565b6101e1610fff565b6008546102a2906001600160a01b031681565b6003546102a2906001600160a01b031681565b6005546102a2906001600160a01b031681565b6101e16104113660046144cd565b611012565b6102b860095481565b6102a2611119565b61022261271081565b60085461022290600160a81b900461ffff1681565b6102b86104533660046142a8565b611127565b6101e16104663660046144fe565b611180565b6102b8601d5481565b6102b860065481565b601c546102229061ffff1681565b6127116102b8565b6102b86104a13660046142a8565b6001600160a01b03165f9081526011602052604090205490565b6101e16104c93660046142c3565b611286565b6101e16104dc366004614586565b6112f9565b6101e16104ef3660046142a8565b6113e0565b6104fc611423565b60ff8216158061050d575060ff8116155b1561052b576040516317dbc4cb60e21b815260040160405180910390fd5b60035f9054906101000a90046001600160a01b03166001600160a01b031663edcf9c1f6040518163ffffffff1660e01b8152600401602060405180830381865afa15801561057b573d5f5f3e3d5ffd5b505050506040513d601f19601f8201168201806040525081019061059f91906145a1565b6105bc576040516312aecd8160e01b815260040160405180910390fd5b6018805463ffff000019166201000060ff9485160263ff00000019161763010000009290931691909102919091179055565b6105f6611423565b6001600160a01b03811661061d5760405163d92e233d60e01b815260040160405180910390fd5b60035f9054906101000a90046001600160a01b03166001600160a01b031663edcf9c1f6040518163ffffffff1660e01b8152600401602060405180830381865afa15801561066d573d5f5f3e3d5ffd5b505050506040513d601f19601f8201168201806040525081019061069191906145a1565b6106ae576040516312aecd8160e01b815260040160405180910390fd5b600280546001600160a01b0319166001600160a01b0383169081179091556040517f6cc7ebdb6c8c53291c5ae16148cab9b049d23bf5bde5632900b40edff56fcb43905f90a250565b601b8181548110610706575f80fd5b5f918252602090912001546001600160a01b0316905081565b606080808080805f601854600160201b900460ff16600781111561074557610745614266565b14610763576040516312aecd8160e01b815260040160405180910390fd5b5f600a80018054806020026020016040519081016040528092919081815260200182805480156107ba57602002820191905f5260205f20905b81546001600160a01b0316815260019091019060200180831161079c575b505050505090505f5f6107cc83611455565b915091508161ffff166001600160401b038111156107ec576107ec6145c0565b604051908082528060200260200182016040528015610815578160200160208202803683370190505b5098508161ffff166001600160401b03811115610834576108346145c0565b60405190808252806020026020018201604052801561085d578160200160208202803683370190505b5097508061ffff166001600160401b0381111561087c5761087c6145c0565b6040519080825280602002602001820160405280156108a5578160200160208202803683370190505b5096508061ffff166001600160401b038111156108c4576108c46145c0565b6040519080825280602002602001820160405280156108ed578160200160208202803683370190505b5095508161ffff166001600160401b0381111561090c5761090c6145c0565b604051908082528060200260200182016040528015610935578160200160208202803683370190505b5094508061ffff166001600160401b03811115610954576109546145c0565b60405190808252806020026020018201604052801561097d578160200160208202803683370190505b50935061098f838a8a888b8b8a6114f6565b505050909192939495565b6109a2611119565b6001600160a01b0316336001600160a01b0316141580156109ce57506002546001600160a01b03163314155b156109ec5760405163ea8e4eb560e01b815260040160405180910390fd5b6109f46116d9565b6005811015610a16576040516317dbc4cb60e21b815260040160405180910390fd5b5f80610a24838501856145d4565b90925090506341659aab60e01b6001600160e01b0319831601610a4e57610a49611703565b610b30565b636ce38ed360e11b6001600160e01b0319831601610a6f57610a49816119c7565b635954faa160e01b6001600160e01b0319831601610a9057610a49816121b6565b63dbd33d3560e01b6001600160e01b0319831601610ab057610a49612830565b6292a80f60e51b6001600160e01b0319831601610acf57610a49612d6a565b6265e66b60e01b6001600160e01b0319831601610aef57610a4981613080565b63f4d3cc0960e01b6001600160e01b0319831601610b1057610a4981613589565b63c4b3cef760e01b6001600160e01b0319831601610b3057610b30613674565b5050610b3b60018055565b5050565b601a8181548110610706575f80fd5b5f606060035f9054906101000a90046001600160a01b03166001600160a01b031663edcf9c1f6040518163ffffffff1660e01b8152600401602060405180830381865afa158015610ba1573d5f5f3e3d5ffd5b505050506040513d601f19601f82011682018060405250810190610bc591906145a1565b8015610bd2575060175442115b15610c2457600191507fbe9a655586dceb82dfa0af992b5d8ae7fa45053cb7fd6f141f541da7572978c75f604051602001610c0e9291906145fc565b6040516020818303038152906040529050610ef7565b6001601854600160201b900460ff166007811115610c4457610c44614266565b03610c8f57600191507f2638e25a856cbfe28e0ae1857cb597cc2ceb873ce579b7d93c2258e45a754481601860059054906101000a900460ff16604051602001610c0e9291906145fc565b6002601854600160201b900460ff166007811115610caf57610caf614266565b03610cfa57600191507fa6ab055f7fc0612ad6e844f7e1dd3a6df793560cd68d707affa0dd01c39ec8f1601860059054906101000a900460ff16604051602001610c0e9291906145fc565b6003601854600160201b900460ff166007811115610d1a57610d1a614266565b03610d5657600191507f242cc2cba236b9c457bb86deb0ad1fb8fe60d5bcafd69d02041c9c62f3ea1fbd5f604051602001610c0e9291906145fc565b6004601854600160201b900460ff166007811115610d7657610d76614266565b03610db257600191507fedaafe206508e00f40674bb87dda745bccfe8a3f3f6d6eaaf6db5f44021a1c135f604051602001610c0e9291906145fc565b6005601854600160201b900460ff166007811115610dd257610dd2614266565b03610e1d57600191507fff9a199536c068c55c334e40ebfa355733f79152332d6586d615c5bb37fd5c17601860059054906101000a900460ff16604051602001610c0e9291906145fc565b6006601854600160201b900460ff166007811115610e3d57610e3d614266565b03610e8857600191507f0b2c33f7f9ce5cba78feb12c50c7fc97cbcfb655f151982783c0f2faf7567b0b601860059054906101000a900460ff16604051602001610c0e9291906145fc565b6007601854600160201b900460ff166007811115610ea857610ea8614266565b03610ee457600191507f3b4c310984a9fe486c05a56b52659c09d4bf9f3ef9b799ad52ee29a7d805741e5f604051602001610c0e9291906145fc565b505060408051602081019091525f808252905b9250929050565b60605f601854600160201b900460ff166007811115610f1f57610f1f614266565b14610f3d576040516312aecd8160e01b815260040160405180910390fd5b6014805460408051602080840282018101909252828152929190830182828015610f8e57602002820191905f5260205f20905b81546001600160a01b03168152600190910190602001808311610f70575b5050505050905090565b6004546001600160a01b03163314610fc35760405163ea8e4eb560e01b815260040160405180910390fd5b600954811115610fe657604051632ca2f52b60e11b815260040160405180910390fd5b8060095f828254610ff7919061462d565b909155505050565b611007611423565b6110105f61383f565b565b61101a611423565b60648261ffff16118061103257506107d08161ffff16115b15611050576040516317dbc4cb60e21b815260040160405180910390fd5b60035f9054906101000a90046001600160a01b03166001600160a01b031663edcf9c1f6040518163ffffffff1660e01b8152600401602060405180830381865afa1580156110a0573d5f5f3e3d5ffd5b505050506040513d601f19601f820116820180604052508101906110c491906145a1565b6110e1576040516312aecd8160e01b815260040160405180910390fd5b6008805463ffffffff60a81b1916600160a81b61ffff9485160261ffff60b81b191617600160b81b9290931691909102919091179055565b5f546001600160a01b031690565b5f80601854600160201b900460ff16600781111561114757611147614266565b14611165576040516312aecd8160e01b815260040160405180910390fd5b506001600160a01b03165f908152600a602052604090205490565b6111f28585858080601f0160208091040260200160405190810160405280939291908181526020018383808284375f9201919091525050604080516020601f890181900481028201810190925287815292508791508690819084018382808284375f9201919091525061388e92505050565b604080515f602082015201604051602081830303815290604052805190602001208484604051611223929190614640565b604051809103902003611249576018805461ffff60201b1916600160221b17905561127f565b611255838501856146a1565b805161126991601e9160209091019061415a565b506018805461ffff60201b1916600360201b1790555b5050505050565b6004546001600160a01b031633146112b15760405163ea8e4eb560e01b815260040160405180910390fd5b5f8113156112d55780601d5f8282546112ca919061472c565b909155506112f69050565b5f8112156112f6576112e68161473f565b601d5f828254610ff7919061462d565b50565b611301611423565b8063ffffffff165f03611327576040516317dbc4cb60e21b815260040160405180910390fd5b60035f9054906101000a90046001600160a01b03166001600160a01b031663edcf9c1f6040518163ffffffff1660e01b8152600401602060405180830381865afa158015611377573d5f5f3e3d5ffd5b505050506040513d601f19601f8201168201806040525081019061139b91906145a1565b6113b8576040516312aecd8160e01b815260040160405180910390fd5b6016805463ffffffff191663ffffffff83169081179091556113da904261472c565b60175550565b6113e8611423565b6001600160a01b03811661141a575f604051631e4fbdf760e01b815260040161141191906142da565b60405180910390fd5b6112f68161383f565b3361142c611119565b6001600160a01b031614611010573360405163118cdaa760e01b815260040161141191906142da565b80515f908190815b8161ffff168161ffff1610156114ef575f858261ffff168151811061148457611484614759565b6020908102919091018101516001600160a01b0381165f9081526012909252604090912054909150156114bd576114ba8561476d565b94505b6001600160a01b0381165f90815260136020526040902054156114e6576114e38461476d565b93505b5060010161145d565b5050915091565b86515f80805b8361ffff168161ffff1610156116cc575f8b8261ffff168151811061152357611523614759565b6020908102919091018101516001600160a01b0381165f908152601283526040808220546013909452902054909250811561160857828d8761ffff168151811061156f5761156f614759565b60200260200101906001600160a01b031690816001600160a01b031681525050818c8761ffff16815181106115a6576115a6614759565b6020908102919091018101919091526001600160a01b0384165f908152600a90915260409020546006546115db9184916138f7565b8b8761ffff16815181106115f1576115f1614759565b60209081029190910101526116058661476d565b95505b80156116be57828a8661ffff168151811061162557611625614759565b60200260200101906001600160a01b031690816001600160a01b03168152505080898661ffff168151811061165c5761165c614759565b6020908102919091018101919091526001600160a01b0384165f908152600a90915260409020546006546116919183916138f7565b888661ffff16815181106116a7576116a7614759565b60209081029190910101526116bb8561476d565b94505b5050508060010190506114fc565b5050505050505050505050565b6002600154036116fc57604051633ee5aeb560e01b815260040160405180910390fd5b6002600155565b60175442111580611785575060035f9054906101000a90046001600160a01b03166001600160a01b031663edcf9c1f6040518163ffffffff1660e01b8152600401602060405180830381865afa15801561175f573d5f5f3e3d5ffd5b505050506040513d601f19601f8201168201806040525081019061178391906145a1565b155b156117a35760405163085de62560e01b815260040160405180910390fd5b6016546117b69063ffffffff164261472c565b6017555f5b60145461ffff82161015611883575f600a80018261ffff16815481106117e3576117e3614759565b5f9182526020808320909101546001600160a01b03168252600a81526040808320839055600b8252808320839055600d825280832083905560118252808320839055600f8252808320839055601282528083208390556013825280832083905560158252808320805460ff19169055601954600c8352818420819055600e83528184208190556010909252909120555061187c8161476d565b90506117bb565b5061188f60145f61419f565b61189a601e5f61419f565b600354604051631da09e4360e31b81526001600160a01b039091169063ed04f218906118ca905f9060040161478d565b5f60405180830381865afa1580156118e4573d5f5f3e3d5ffd5b505050506040513d5f823e601f3d908101601f1916820160405261190b919081019061480f565b805161191f91601a916020909101906141ba565b50600354604051631da09e4360e31b81526001600160a01b039091169063ed04f218906119519060019060040161478d565b5f60405180830381865afa15801561196b573d5f5f3e3d5ffd5b505050506040513d5f823e601f3d908101601f19168201604052611992919081019061480f565b80516119a691601b916020909101906141ba565b50601c805461ffff191690556018805460ff60201b1916600160201b179055565b6001601854600160201b900460ff1660078111156119e7576119e7614266565b14611a055760405163baf3f0f760e01b815260040160405180910390fd5b60188054600590611a1f90600160281b900460ff16614840565b91906101000a81548160ff021916908360ff1602179055505f601860029054906101000a900460ff1682611a539190614855565b60185460ff91821692505f91611a70916201000090041683614878565b601a5490915061ffff82161180611a8c5750601a5461ffff8216145b15611aaa5750601a546018805461ffff60201b1916600160211b1790555b815b8161ffff168161ffff1610156121b0575f601a8261ffff1681548110611ad457611ad4614759565b905f5260205f20015f9054906101000a90046001600160a01b031690505f5f826001600160a01b031663d3d034586040518163ffffffff1660e01b81526004015f60405180830381865afa158015611b2e573d5f5f3e3d5ffd5b505050506040513d5f823e601f3d908101601f19168201604052611b559190810190614892565b90925090505f805b83518161ffff161015611e41575f848261ffff1681518110611b8157611b81614759565b602002602001015190505f848361ffff1681518110611ba257611ba2614759565b6020026020010151905080600a6001015f846001600160a01b03166001600160a01b031681526020019081526020015f205f828254611be1919061472c565b90915550506001600160a01b0382165f9081526015602052604090205460ff16611d65576008546001600160a01b0390811690831603611cdd57600854611cc090611c3790600160a01b900460ff16600a614a33565b600860149054906101000a900460ff1660035f9054906101000a90046001600160a01b03166001600160a01b031663567ba7136040518163ffffffff1660e01b8152600401602060405180830381865afa158015611c97573d5f5f3e3d5ffd5b505050506040513d601f19601f82011682018060405250810190611cbb9190614a41565b6139a8565b6001600160a01b0383165f908152600a6020526040902055611d65565b6005546040516341976e0960e01b81526001600160a01b03909116906341976e0990611d0d9085906004016142da565b602060405180830381865afa158015611d28573d5f5f3e3d5ffd5b505050506040513d601f19601f82011682018060405250810190611d4c9190614a5c565b6001600160a01b0383165f908152600a60205260409020555b6001600160a01b0382165f908152600a6020526040812054600654909190611e1590611d9490849086906138f7565b600354604051633c2e3e7b60e11b81526001600160a01b039091169063785c7cf690611dc49089906004016142da565b602060405180830381865afa158015611ddf573d5f5f3e3d5ffd5b505050506040513d601f19601f82011682018060405250810190611e039190614a41565b600854600160a01b900460ff166139a8565b9050611e21818761472c565b9550611e2c84613a12565b5050505080611e3a9061476d565b9050611b5d565b506008545f90611e5f90600160a81b900461ffff16836127106138f7565b601654909150611e8090829063ffffffff908116906301e13380906138f716565b90508060095f828254611e93919061472c565b90915550611ea39050818361462d565b60405163728d42fb60e11b8152600481018290529092505f906001600160a01b0387169063e51a85f690602401602060405180830381865afa158015611eeb573d5f5f3e3d5ffd5b505050506040513d601f19601f82011682018060405250810190611f0f9190614a5c565b9050611f1b818461462d565b6008549093505f90611f3b90600160b81b900461ffff16836127106138f7565b90508060095f828254611f4e919061472c565b90915550611f5e9050818361462d565b601854604051630df571f760e01b815261ffff9091166004820152602481018290529092506001600160a01b03881690630df571f7906044015f604051808303815f87803b158015611fae575f5ffd5b505af1158015611fc0573d5f5f3e3d5ffd5b505050505f876001600160a01b031663a68a5267896001600160a01b0316630a605c6d6040518163ffffffff1660e01b8152600401602060405180830381865afa158015612010573d5f5f3e3d5ffd5b505050506040513d601f19601f820116820180604052508101906120349190614a5c565b875f6040518463ffffffff1660e01b815260040161205493929190614a73565b602060405180830381865afa15801561206f573d5f5f3e3d5ffd5b505050506040513d601f19601f820116820180604052508101906120939190614a5c565b6001600160a01b0389165f90815260116020526040902086905590506120b9818661462d565b94505f886001600160a01b031663f64c6f326040518163ffffffff1660e01b8152600401602060405180830381865afa1580156120f8573d5f5f3e3d5ffd5b505050506040513d601f19601f8201168201806040525081019061211c9190614a5c565b60405163e5e9719360e01b8152600481018890529091506001600160a01b038a169063e5e97193906024015f604051808303815f87803b15801561215e575f5ffd5b505af1158015612170573d5f5f3e3d5ffd5b505050508086612180919061472c565b6001600160a01b039099165f908152600d6020526040902098909855505060019096019550611aac945050505050565b50505050565b6002601854600160201b900460ff1660078111156121d6576121d6614266565b146121f45760405163baf3f0f760e01b815260040160405180910390fd5b6018805460059061220e90600160281b900460ff16614840565b82546101009290920a60ff818102199093169183160217909155601b5460185490915f916122459163010000009091041684614855565b60185460ff91821692505f9161226391630100000090041683614878565b90508261ffff168161ffff16118061228257508261ffff168161ffff16145b1561228a5750815b815b8161ffff168161ffff161015612663575f601b8261ffff16815481106122b4576122b4614759565b5f918252602091829020015460408051631b9d6fc560e31b815290516001600160a01b039092169350839263dceb7e28926004808401938290030181865afa158015612302573d5f5f3e3d5ffd5b505050506040513d601f19601f8201168201806040525081019061232691906145a1565b612330575061265b565b601c80545f906123439061ffff1661476d565b91906101000a81548161ffff021916908361ffff1602179055505f5f826001600160a01b031663d3d034586040518163ffffffff1660e01b81526004015f60405180830381865afa15801561239a573d5f5f3e3d5ffd5b505050506040513d5f823e601f3d908101601f191682016040526123c19190810190614892565b60195491935091505f5b83518161ffff16101561263b575f848261ffff16815181106123ef576123ef614759565b602002602001015190505f848361ffff168151811061241057612410614759565b6020026020010151905061244a600a6002015f846001600160a01b03166001600160a01b031681526020019081526020015f205482613a97565b6001600160a01b0383165f908152600c602090815260408083209390935560159052205460ff1661254c576008546001600160a01b03908116908316036124c4576008546124a790611c3790600160a01b900460ff16600a614a33565b6001600160a01b0383165f908152600a602052604090205561254c565b6005546040516341976e0960e01b81526001600160a01b03909116906341976e09906124f49085906004016142da565b602060405180830381865afa15801561250f573d5f5f3e3d5ffd5b505050506040513d601f19601f820116820180604052508101906125339190614a5c565b6001600160a01b0383165f908152600a60205260409020555b6001600160a01b0382165f908152600a60205260408120549061258261257a61257484613ace565b85613ae3565b600654613b11565b600354604051633c2e3e7b60e11b81529192505f9161260e9184916001600160a01b039091169063785c7cf6906125bd908a906004016142da565b602060405180830381865afa1580156125d8573d5f5f3e3d5ffd5b505050506040513d601f19601f820116820180604052508101906125fc9190614a41565b600854600160a01b900460ff16613b36565b905061261a8782613a97565b965061262585613a12565b5050505050806126349061476d565b90506123cb565b506001600160a01b039093165f908152600e602052604090209290925550505b60010161228c565b508261ffff168161ffff16036121b05761ffff811615806126885750601c5461ffff16155b156126a6576018805461ffff60201b1916600160221b1790556121b0565b6014545f6126b48286614878565b61ffff166001600160401b038111156126cf576126cf6145c0565b6040519080825280602002602001820160405280156126f8578160200160208202803683370190505b5090505f5b8561ffff168161ffff161015612782575f601b8261ffff168154811061272557612725614759565b5f9182526020808320909101546001600160a01b0316808352600e90915260409091205490915061275581613b97565b5080848461ffff168151811061276d5761276d614759565b602090810291909101015250506001016126fd565b505f5b8261ffff168161ffff161015612815575f600a80018261ffff16815481106127af576127af614759565b5f9182526020808320909101546001600160a01b0316808352600c9091526040909120549091506127df81613b97565b5080846127ec858b614878565b61ffff168151811061280057612800614759565b60209081029190910101525050600101612785565b5061282781630be2683f60e41b613ba6565b50505050505050565b6003601854600160201b900460ff16600781111561285057612850614266565b1461286e5760405163baf3f0f760e01b815260040160405180910390fd5b601b546014545f5b8261ffff168161ffff161015612ca6575f601b8261ffff168154811061289e5761289e614759565b5f918252602091829020015460408051631b9d6fc560e31b815290516001600160a01b039092169350839263dceb7e28926004808401938290030181865afa1580156128ec573d5f5f3e3d5ffd5b505050506040513d601f19601f8201168201806040525081019061291091906145a1565b61291a5750612c9e565b5f601e8361ffff168154811061293257612932614759565b5f91825260208220015460085490925061295a90600160a81b900461ffff16836127106138f7565b60165490915061297b90829063ffffffff908116906301e13380906138f716565b90508060095f82825461298e919061472c565b9091555061299e9050818361462d565b60405163728d42fb60e11b8152600481018290529092505f906001600160a01b0385169063e51a85f690602401602060405180830381865afa1580156129e6573d5f5f3e3d5ffd5b505050506040513d601f19601f82011682018060405250810190612a0a9190614a5c565b9050612a16818461462d565b6008549093505f90612a3690600160b81b900461ffff16836127106138f7565b90508060095f828254612a49919061472c565b90915550612a599050818361462d565b601854604051630df571f760e01b815261ffff9091166004820152602481018290529092506001600160a01b03861690630df571f7906044015f604051808303815f87803b158015612aa9575f5ffd5b505af1158015612abb573d5f5f3e3d5ffd5b505050505f856001600160a01b031663a68a5267876001600160a01b0316630a605c6d6040518163ffffffff1660e01b8152600401602060405180830381865afa158015612b0b573d5f5f3e3d5ffd5b505050506040513d601f19601f82011682018060405250810190612b2f9190614a5c565b875f6040518463ffffffff1660e01b8152600401612b4f93929190614a73565b602060405180830381865afa158015612b6a573d5f5f3e3d5ffd5b505050506040513d601f19601f82011682018060405250810190612b8e9190614a5c565b6001600160a01b0387165f9081526011602052604090208690559050612bb4818661462d565b94505f866001600160a01b031663f64c6f326040518163ffffffff1660e01b8152600401602060405180830381865afa158015612bf3573d5f5f3e3d5ffd5b505050506040513d601f19601f82011682018060405250810190612c179190614a5c565b60405163e5e9719360e01b8152600481018890529091506001600160a01b0388169063e5e97193906024015f604051808303815f87803b158015612c59575f5ffd5b505af1158015612c6b573d5f5f3e3d5ffd5b505050508086612c7b919061472c565b6001600160a01b039097165f908152600d60205260409020969096555050505050505b600101612876565b505f5b8161ffff168161ffff161015612d51575f600a80018261ffff1681548110612cd357612cd3614759565b5f9182526020822001546001600160a01b03169150601e612cf48487614878565b61ffff1681548110612d0857612d08614759565b5f9182526020808320909101546001600160a01b0385168352600b90915260408220805491935083929091612d3e90849061472c565b909155505060019092019150612ca99050565b50506018805461ffff60201b1916600160221b17905550565b6004601854600160201b900460ff166007811115612d8a57612d8a614266565b14612da85760405163baf3f0f760e01b815260040160405180910390fd5b6018805460ff60201b1916600560201b179055601a54601b545f805b8361ffff168161ffff161015612e28575f601a8261ffff1681548110612dec57612dec614759565b5f9182526020808320909101546001600160a01b0316808352600d909152604090912054909150612e1d908461472c565b925050600101612dc4565b505f5b8261ffff168161ffff161015612e8f575f601b8261ffff1681548110612e5357612e53614759565b5f9182526020808320909101546001600160a01b0316808352600d909152604090912054909150612e84908461472c565b925050600101612e2b565b50600480546040805163dab26e3b60e01b815290515f93612f06936001600160a01b03169263dab26e3b92818301926020928290030181865afa158015612ed8573d5f5f3e3d5ffd5b505050506040513d601f19601f82011682018060405250810190612efc9190614a5c565b83906127106138f7565b905080601d541115612f185750505050565b5f601d5482612f27919061462d565b90505f5b8561ffff168161ffff161015612fc5575f601a8261ffff1681548110612f5357612f53614759565b5f9182526020808320909101546001600160a01b0316808352600d909152604082205490925090612f858583896138f7565b6001600160a01b0384165f908152600d6020526040812080549293508392909190612fb190849061462d565b909155505060019093019250612f2b915050565b505f5b8461ffff168161ffff161015613062575f601b8261ffff1681548110612ff057612ff0614759565b5f9182526020808320909101546001600160a01b0316808352600d9091526040822054909250906130228583896138f7565b6001600160a01b0384165f908152600d602052604081208054929350839290919061304e90849061462d565b909155505060019093019250612fc8915050565b5080601d5f828254613074919061472c565b90915550505050505050565b6005601854600160201b900460ff1660078111156130a0576130a0614266565b146130be5760405163baf3f0f760e01b815260040160405180910390fd5b601880546005906130d890600160281b900460ff16614840565b91906101000a81548160ff021916908360ff1602179055505f601860029054906101000a900460ff168261310c9190614855565b60185460ff91821692505f91613129916201000090041683614878565b601a5490915061ffff821611806131455750601a5461ffff8216145b156131635750601a546018805461ffff60201b1916600360211b1790555b815b8161ffff168161ffff1610156121b0575f601a8261ffff168154811061318d5761318d614759565b905f5260205f20015f9054906101000a90046001600160a01b031690505f5f826001600160a01b031663b6eba6536040518163ffffffff1660e01b81526004015f60405180830381865afa1580156131e7573d5f5f3e3d5ffd5b505050506040513d5f823e601f3d908101601f1916820160405261320e9190810190614a9f565b6001600160a01b0385165f908152600d6020526040812054835193955091935090916001600160401b03811115613247576132476145c0565b60405190808252806020026020018201604052801561328b57816020015b604080518082019091525f80825260208201528152602001906001900390816132655790505b5090505f5b84518161ffff16101561351d575f858261ffff16815181106132b4576132b4614759565b602002602001015190505f858361ffff16815181106132d5576132d5614759565b6020908102919091018101516001600160a01b0384165f908152601590925260409091205490915060ff166133db576008546001600160a01b03908116908316036133535760085461333690611c3790600160a01b900460ff16600a614a33565b6001600160a01b0383165f908152600a60205260409020556133db565b6005546040516341976e0960e01b81526001600160a01b03909116906341976e09906133839085906004016142da565b602060405180830381865afa15801561339e573d5f5f3e3d5ffd5b505050506040513d601f19601f820116820180604052508101906133c29190614a5c565b6001600160a01b0383165f908152600a60205260409020555b6001600160a01b0382165f908152600a602052604081205460065460075491929161347d9161342391859061341c908c9063ffffffff808b1691906138f716565b91906138f7565b600854600354604051633c2e3e7b60e11b8152600160a01b90920460ff16916001600160a01b039091169063785c7cf690613462908a906004016142da565b602060405180830381865afa158015611c97573d5f5f3e3d5ffd5b90506040518060400160405280856001600160a01b031681526020018263ffffffff16815250868661ffff16815181106134b9576134b9614759565b602002602001018190525080600a6005015f866001600160a01b03166001600160a01b031681526020019081526020015f205f8282546134f9919061472c565b90915550613508905084613a12565b50505050806135169061476d565b9050613290565b50604051630415112560e21b81526001600160a01b0386169063105444949061354c9084908690600401614b58565b5f604051808303815f87803b158015613563575f5ffd5b505af1158015613575573d5f5f3e3d5ffd5b505050505050505050806001019050613165565b6006601854600160201b900460ff1660078111156135a9576135a9614266565b146135c75760405163baf3f0f760e01b815260040160405180910390fd5b601880546005906135e190600160281b900460ff16614840565b82546101009290920a60ff818102199093169183160217909155601b5460185490915f916136189163010000009091041684614855565b60185460ff91821692505f9161363691630100000090041683614878565b90508261ffff168161ffff16118061365557508261ffff168161ffff16145b156121b05750506018805461ffff60201b1916600760201b1790555050565b6007601854600160201b900460ff16600781111561369457613694614266565b146136b25760405163baf3f0f760e01b815260040160405180910390fd5b5f600a800180548060200260200160405190810160405280929190818152602001828054801561370957602002820191905f5260205f20905b81546001600160a01b031681526001909101906020018083116136eb575b505083519394505f925050505b8161ffff168161ffff1610156137d4575f838261ffff168151811061373d5761373d614759565b6020908102919091018101516001600160a01b0381165f908152600b8352604080822054600f9094529020549092508082111561379b5761377e818361462d565b6001600160a01b0384165f908152601260205260409020556137c6565b818111156137c6576137ad828261462d565b6001600160a01b0384165f908152601360205260409020555b505050806001019050613716565b506018805460ff60201b19811682555f906137f29061ffff1661476d565b82546101009290920a61ffff8181021990931691831602179091556018546040519116907f0bc12479581640d161e016cef21aa834cb6d6326bbc0d8445e58d56403adf2dc905f90a25050565b5f80546001600160a01b038381166001600160a01b0319831681178455604051919092169283917f8be0079c531659141344cd1fd0a4f28419497f9722a3daafe3b4186f6b6457e09190a35050565b5f61389884613bb2565b90505f6138a6828585613c4e565b9050806138c65760405163cf6c44e960e01b815260040160405180910390fd5b60405185907f1af0453083661051f6e56e5c070792320652e612154bf9af8637bb1e7655b99d905f90a25050505050565b5f5f5f6139048686613d1b565b91509150815f036139285783818161391e5761391e614bbf565b04925050506139a1565b81841161393f5761393f6003851502601118613d37565b5f848688095f868103871696879004966002600389028118808a02820302808a02820302808a02820302808a02820302808a02820302808a02909103029181900381900460010185841190960395909502919093039390930492909217029150505b9392505050565b5f8260ff168260ff1611156139dd576139c18383614bd3565b6139cc90600a614a33565b6139d69085614bec565b90506139a1565b8260ff168260ff161015613a0a576139f58284614bd3565b613a0090600a614a33565b6139d69085614c03565b509192915050565b6001600160a01b0381165f9081526015602052604090205460ff166112f6576014805460018181019092557fce6d7b5282bd9a3661ae061feed1dbda4e52ab073b1f9285be6e155d9c38d4ec0180546001600160a01b0384166001600160a01b031990911681179091555f908152601560205260409020805460ff1916909117905550565b5f82613aa957613aa65f613ace565b92505b81613aba57613ab75f613ace565b91505b613ac583835f613d48565b90505b92915050565b5f613ac8826001600160801b03166006613de8565b5f82613af557613af25f613ace565b92505b81613b0657613b035f613ace565b91505b613ac583835f613e6f565b5f82613b2357613b205f613ace565b92505b613ac5836001600160801b038416613ec5565b5f8260ff168260ff161115613b6b576139d684613b66613b568686614bd3565b613b6190600a614a33565b613ace565b613ae3565b8260ff168260ff161015613a0a576139d684613b878486614bd3565b613b9290600a614a33565b613b11565b5f613ba28230613f54565b5090565b5f613ac583835f613fbb565b60605f613bbd6140bc565b5f84815260018201602052604081205491925003613bee5760405163d66ca67560e01b815260040160405180910390fd5b5f83815260018201602090815260409182902080548351818402810184019094528084529091830182828015613c4157602002820191905f5260205f20905b815481526020019060010190808311613c2d575b5050505050915050919050565b5f5f83516020613c5e919061472c565b613c6990602061472c565b90505f8482604051602001613c7f929190614c22565b60405160208183030381529060405290505f613c996140e0565b60038101546040516378542ead60e01b81529192506001600160a01b0316906378542ead90613cd0908a9086908a90600401614c3c565b6020604051808303815f875af1158015613cec573d5f5f3e3d5ffd5b505050506040513d601f19601f82011682018060405250810190613d1091906145a1565b979650505050505050565b5f805f1983850993909202808410938190039390930393915050565b634e487b715f52806020526024601cfd5b5f5f8215613d5b5750600160f81b613d5e565b505f5b5f613d676140e0565b600181015460405163022f65e760e31b81529192506001600160a01b03169063117b2f3890613d9e90899089908790600401614c74565b6020604051808303815f875af1158015613dba573d5f5f3e3d5ffd5b505050506040513d601f19601f82011682018060405250810190613dde9190614a5c565b9695505050505050565b5f5f613df26140e0565b6001810154604051639cd07acb60e01b81529192506001600160a01b031690639cd07acb90613e279087908790600401614c94565b6020604051808303815f875af1158015613e43573d5f5f3e3d5ffd5b505050506040513d601f19601f82011682018060405250810190613e679190614a5c565b949350505050565b5f5f8215613e825750600160f81b613e85565b505f5b5f613e8e6140e0565b6001810154604051630afe14ad60e31b81529192506001600160a01b0316906357f0a56890613d9e90899089908790600401614c74565b5f600160f81b81613ed46140e0565b6001810154604051635a53accb60e01b81529192506001600160a01b031690635a53accb90613f0b90889088908790600401614c74565b6020604051808303815f875af1158015613f27573d5f5f3e3d5ffd5b505050506040513d601f19601f82011682018060405250810190613f4b9190614a5c565b95945050505050565b5f613f5d6140e0565b8054604051635ca4b5b160e11b8152600481018690526001600160a01b03858116602483015292935091169063b9496b62906044015f604051808303815f87803b158015613fa9575f5ffd5b505af1158015612827573d5f5f3e3d5ffd5b5f5f613fc56140bc565b8054925090505f613fd46140e0565b8054604051637d6e912360e11b81529192506001600160a01b03169063fadd224690614004908990600401614cb8565b5f604051808303815f87803b15801561401b575f5ffd5b505af115801561402d573d5f5f3e3d5ffd5b5050506002820154604051633263b83b60e01b81526001600160a01b039091169150633263b83b9086906140699087908b908b90600401614cca565b5f604051808303818588803b158015614080575f5ffd5b505af1158015614092573d5f5f3e3d5ffd5b50505050506140a18387614104565b8154825f6140ae83614cfb565b919050555050509392505050565b7f878245876662ba28a480c5ea71726db859fb50222b0a3d7cbbc21cfa336faf0090565b7f9e7b61f58c47dc699ac88507c4f5bb9f121c03808c5676a8078fe583e464970090565b5f61410d6140bc565b5f8481526001820160205260409020549091501561413e57604051633f06d22b60e01b815260040160405180910390fd5b5f838152600182016020908152604090912083516121b0928501905b828054828255905f5260205f20908101928215614193579160200282015b82811115614193578251825591602001919060010190614178565b50613ba292915061420d565b5080545f8255905f5260205f20908101906112f6919061420d565b828054828255905f5260205f20908101928215614193579160200282015b8281111561419357825182546001600160a01b0319166001600160a01b039091161782556020909201916001909101906141d8565b5b80821115613ba2575f815560010161420e565b60ff811681146112f6575f5ffd5b5f5f60408385031215614240575f5ffd5b823561424b81614221565b9150602083013561425b81614221565b809150509250929050565b634e487b7160e01b5f52602160045260245ffd5b602081016008831061428e5761428e614266565b91905290565b6001600160a01b03811681146112f6575f5ffd5b5f602082840312156142b8575f5ffd5b81356139a181614294565b5f602082840312156142d3575f5ffd5b5035919050565b6001600160a01b0391909116815260200190565b5f8151808452602084019350602083015f5b828110156143275781516001600160a01b0316865260209586019590910190600101614300565b5093949350505050565b5f8151808452602084019350602083015f5b82811015614327578151865260209586019590910190600101614343565b60c081525f61437360c08301896142ee565b82810360208401526143858189614331565b9050828103604084015261439981886142ee565b905082810360608401526143ad8187614331565b905082810360808401526143c18186614331565b905082810360a08401526143d58185614331565b9998505050505050505050565b5f5f83601f8401126143f2575f5ffd5b5081356001600160401b03811115614408575f5ffd5b602083019150836020828501011115610ef7575f5ffd5b5f5f60208385031215614430575f5ffd5b82356001600160401b03811115614445575f5ffd5b614451858286016143e2565b90969095509350505050565b5f81518084528060208401602086015e5f602082860101526020601f19601f83011685010191505092915050565b8215158152604060208201525f613e67604083018461445d565b602081525f613ac560208301846142ee565b803561ffff811681146144c8575f5ffd5b919050565b5f5f604083850312156144de575f5ffd5b6144e7836144b7565b91506144f5602084016144b7565b90509250929050565b5f5f5f5f5f60608688031215614512575f5ffd5b8535945060208601356001600160401b0381111561452e575f5ffd5b61453a888289016143e2565b90955093505060408601356001600160401b03811115614558575f5ffd5b614564888289016143e2565b969995985093965092949392505050565b63ffffffff811681146112f6575f5ffd5b5f60208284031215614596575f5ffd5b81356139a181614575565b5f602082840312156145b1575f5ffd5b815180151581146139a1575f5ffd5b634e487b7160e01b5f52604160045260245ffd5b5f5f604083850312156145e5575f5ffd5b82356001600160e01b03198116811461424b575f5ffd5b6001600160e01b031992909216825260ff16602082015260400190565b634e487b7160e01b5f52601160045260245ffd5b81810381811115613ac857613ac8614619565b818382375f9101908152919050565b604051601f8201601f191681016001600160401b0381118282101715614677576146776145c0565b604052919050565b5f6001600160401b03821115614697576146976145c0565b5060051b60200190565b5f602082840312156146b1575f5ffd5b81356001600160401b038111156146c6575f5ffd5b8201601f810184136146d6575f5ffd5b80356146e96146e48261467f565b61464f565b8082825260208201915060208360051b85010192508683111561470a575f5ffd5b6020840193505b82841015613dde578335825260209384019390910190614711565b80820180821115613ac857613ac8614619565b5f600160ff1b820161475357614753614619565b505f0390565b634e487b7160e01b5f52603260045260245ffd5b5f61ffff821661ffff810361478457614784614619565b60010192915050565b602081016002831061428e5761428e614266565b5f82601f8301126147b0575f5ffd5b81516147be6146e48261467f565b8082825260208201915060208360051b8601019250858311156147df575f5ffd5b602085015b838110156148055780516147f781614294565b8352602092830192016147e4565b5095945050505050565b5f6020828403121561481f575f5ffd5b81516001600160401b03811115614834575f5ffd5b613e67848285016147a1565b5f60ff821660ff810361478457614784614619565b60ff818116838216029081169081811461487157614871614619565b5092915050565b61ffff8181168382160190811115613ac857613ac8614619565b5f5f604083850312156148a3575f5ffd5b82516001600160401b038111156148b8575f5ffd5b6148c4858286016147a1565b602085015190935090506001600160401b038111156148e1575f5ffd5b8301601f810185136148f1575f5ffd5b80516148ff6146e48261467f565b8082825260208201915060208360051b850101925087831115614920575f5ffd5b6020840193505b82841015614942578351825260209384019390910190614927565b809450505050509250929050565b6001815b600184111561498b5780850481111561496f5761496f614619565b600184161561497d57908102905b60019390931c928002614954565b935093915050565b5f826149a157506001613ac8565b816149ad57505f613ac8565b81600181146149c357600281146149cd576149e9565b6001915050613ac8565b60ff8411156149de576149de614619565b50506001821b613ac8565b5060208310610133831016604e8410600b8410161715614a0c575081810a613ac8565b614a185f198484614950565b805f1904821115614a2b57614a2b614619565b029392505050565b5f613ac560ff841683614993565b5f60208284031215614a51575f5ffd5b81516139a181614221565b5f60208284031215614a6c575f5ffd5b5051919050565b838152602081018390526060810160048310614a9157614a91614266565b826040830152949350505050565b5f5f60408385031215614ab0575f5ffd5b82516001600160401b03811115614ac5575f5ffd5b614ad1858286016147a1565b602085015190935090506001600160401b03811115614aee575f5ffd5b8301601f81018513614afe575f5ffd5b8051614b0c6146e48261467f565b8082825260208201915060208360051b850101925087831115614b2d575f5ffd5b6020840193505b82841015614942578351614b4781614575565b825260209384019390910190614b34565b604080825283519082018190525f9060208501906060840190835b81811015614bac57835180516001600160a01b0316845260209081015163ffffffff168185015290930192604090920191600101614b73565b5050602093909301939093525092915050565b634e487b7160e01b5f52601260045260245ffd5b60ff8281168282160390811115613ac857613ac8614619565b8082028115828204841417613ac857613ac8614619565b5f82614c1d57634e487b7160e01b5f52601260045260245ffd5b500490565b5f83518060208601845e9190910191825250602001919050565b606081525f614c4e6060830186614331565b8281036020840152614c60818661445d565b90508281036040840152613dde818561445d565b92835260208301919091526001600160f81b031916604082015260600190565b8281526040810160548310614cab57614cab614266565b8260208301529392505050565b602081525f613ac56020830184614331565b838152606060208201525f614ce26060830185614331565b905063ffffffff60e01b83166040830152949350505050565b5f60018201614d0c57614d0c614619565b506001019056fea2646970667358221220783af133bc76a527e13dddd7292c36ce9a4b53b4c819964bf7292a35c5dce1a364736f6c634300081c00339e7b61f58c47dc699ac88507c4f5bb9f121c03808c5676a8078fe583e46497019e7b61f58c47dc699ac88507c4f5bb9f121c03808c5676a8078fe583e4649700",
  "linkReferences": {},
  "deployedLinkReferences": {}
}