{
  "_format": "hh-sol-artifact-1",
  "contractName": "InternalStatesOrchestrator",
  "sourceName": "contracts/orchestrators/InternalStatesOrchestrator.sol",
  "abi": [
    {
      "inputs": [
        {
          "internalType": "address",
          "name": "initialOwner",
          "type": "address"
        },
        {
          "internalType": "address",
          "name": "config_",
          "type": "address"
        },
        {
          "internalType": "address",
          "name": "automationRegistry_",
          "type": "address"
        }
      ],
      "stateMutability": "nonpayable",
      "type": "constructor"
    },
    {
      "inputs": [],
      "name": "InsufficientAmount",
      "type": "error"
    },
    {
      "inputs": [],
      "name": "InvalidArguments",
      "type": "error"
    },
    {
      "inputs": [],
      "name": "InvalidState",
      "type": "error"
    },
    {
      "inputs": [],
      "name": "NotAuthorized",
      "type": "error"
    },
    {
      "inputs": [
        {
          "internalType": "address",
          "name": "owner",
          "type": "address"
        }
      ],
      "name": "OwnableInvalidOwner",
      "type": "error"
    },
    {
      "inputs": [
        {
          "internalType": "address",
          "name": "account",
          "type": "address"
        }
      ],
      "name": "OwnableUnauthorizedAccount",
      "type": "error"
    },
    {
      "inputs": [],
      "name": "ReentrancyGuardReentrantCall",
      "type": "error"
    },
    {
      "inputs": [],
      "name": "SystemNotIdle",
      "type": "error"
    },
    {
      "inputs": [],
      "name": "TooEarly",
      "type": "error"
    },
    {
      "inputs": [],
      "name": "ZeroAddress",
      "type": "error"
    },
    {
      "anonymous": false,
      "inputs": [
        {
          "indexed": true,
          "internalType": "address",
          "name": "newAutomationRegistry",
          "type": "address"
        }
      ],
      "name": "AutomationRegistryUpdated",
      "type": "event"
    },
    {
      "anonymous": false,
      "inputs": [
        {
          "indexed": true,
          "internalType": "uint16",
          "name": "epochCounter",
          "type": "uint16"
        }
      ],
      "name": "InternalStateProcessed",
      "type": "event"
    },
    {
      "anonymous": false,
      "inputs": [
        {
          "indexed": true,
          "internalType": "address",
          "name": "previousOwner",
          "type": "address"
        },
        {
          "indexed": true,
          "internalType": "address",
          "name": "newOwner",
          "type": "address"
        }
      ],
      "name": "OwnershipTransferred",
      "type": "event"
    },
    {
      "inputs": [],
      "name": "BASIS_POINTS_FACTOR",
      "outputs": [
        {
          "internalType": "uint16",
          "name": "",
          "type": "uint16"
        }
      ],
      "stateMutability": "view",
      "type": "function"
    },
    {
      "inputs": [],
      "name": "MAX_REVENUE_SHARE_FEE",
      "outputs": [
        {
          "internalType": "uint16",
          "name": "",
          "type": "uint16"
        }
      ],
      "stateMutability": "view",
      "type": "function"
    },
    {
      "inputs": [],
      "name": "MAX_VOLUME_FEE",
      "outputs": [
        {
          "internalType": "uint16",
          "name": "",
          "type": "uint16"
        }
      ],
      "stateMutability": "view",
      "type": "function"
    },
    {
      "inputs": [],
      "name": "YEAR_IN_SECONDS",
      "outputs": [
        {
          "internalType": "uint32",
          "name": "",
          "type": "uint32"
        }
      ],
      "stateMutability": "view",
      "type": "function"
    },
    {
      "inputs": [],
      "name": "automationRegistry",
      "outputs": [
        {
          "internalType": "address",
          "name": "",
          "type": "address"
        }
      ],
      "stateMutability": "view",
      "type": "function"
    },
    {
      "inputs": [],
      "name": "bufferAmount",
      "outputs": [
        {
          "internalType": "uint256",
          "name": "",
          "type": "uint256"
        }
      ],
      "stateMutability": "view",
      "type": "function"
    },
    {
      "inputs": [
        {
          "internalType": "bytes",
          "name": "",
          "type": "bytes"
        }
      ],
      "name": "checkUpkeep",
      "outputs": [
        {
          "internalType": "bool",
          "name": "upkeepNeeded",
          "type": "bool"
        },
        {
          "internalType": "bytes",
          "name": "performData",
          "type": "bytes"
        }
      ],
      "stateMutability": "view",
      "type": "function"
    },
    {
      "inputs": [],
      "name": "config",
      "outputs": [
        {
          "internalType": "contract IOrionConfig",
          "name": "",
          "type": "address"
        }
      ],
      "stateMutability": "view",
      "type": "function"
    },
    {
      "inputs": [],
      "name": "currentMinibatchIndex",
      "outputs": [
        {
          "internalType": "uint8",
          "name": "",
          "type": "uint8"
        }
      ],
      "stateMutability": "view",
      "type": "function"
    },
    {
      "inputs": [],
      "name": "currentPhase",
      "outputs": [
        {
          "internalType": "enum IInternalStateOrchestrator.InternalUpkeepPhase",
          "name": "",
          "type": "uint8"
        }
      ],
      "stateMutability": "view",
      "type": "function"
    },
    {
      "inputs": [],
      "name": "encryptedMinibatchSize",
      "outputs": [
        {
          "internalType": "uint8",
          "name": "",
          "type": "uint8"
        }
      ],
      "stateMutability": "view",
      "type": "function"
    },
    {
      "inputs": [
        {
          "internalType": "uint256",
          "name": "",
          "type": "uint256"
        }
      ],
      "name": "encryptedVaultsEpoch",
      "outputs": [
        {
          "internalType": "address",
          "name": "",
          "type": "address"
        }
      ],
      "stateMutability": "view",
      "type": "function"
    },
    {
      "inputs": [],
      "name": "epochCounter",
      "outputs": [
        {
          "internalType": "uint16",
          "name": "",
          "type": "uint16"
        }
      ],
      "stateMutability": "view",
      "type": "function"
    },
    {
      "inputs": [],
      "name": "epochDuration",
      "outputs": [
        {
          "internalType": "uint32",
          "name": "",
          "type": "uint32"
        }
      ],
      "stateMutability": "view",
      "type": "function"
    },
    {
      "inputs": [],
      "name": "getBuyingOrders",
      "outputs": [
        {
          "internalType": "address[]",
          "name": "tokens",
          "type": "address[]"
        },
        {
          "internalType": "uint256[]",
          "name": "amounts",
          "type": "uint256[]"
        }
      ],
      "stateMutability": "view",
      "type": "function"
    },
    {
      "inputs": [],
      "name": "getSellingOrders",
      "outputs": [
        {
          "internalType": "address[]",
          "name": "tokens",
          "type": "address[]"
        },
        {
          "internalType": "uint256[]",
          "name": "amounts",
          "type": "uint256[]"
        }
      ],
      "stateMutability": "view",
      "type": "function"
    },
    {
      "inputs": [],
      "name": "intentFactor",
      "outputs": [
        {
          "internalType": "uint256",
          "name": "",
          "type": "uint256"
        }
      ],
      "stateMutability": "view",
      "type": "function"
    },
    {
      "inputs": [],
      "name": "liquidityOrchestrator",
      "outputs": [
        {
          "internalType": "contract ILiquidityOrchestrator",
          "name": "",
          "type": "address"
        }
      ],
      "stateMutability": "view",
      "type": "function"
    },
    {
      "inputs": [],
      "name": "owner",
      "outputs": [
        {
          "internalType": "address",
          "name": "",
          "type": "address"
        }
      ],
      "stateMutability": "view",
      "type": "function"
    },
    {
      "inputs": [],
      "name": "pendingProtocolFees",
      "outputs": [
        {
          "internalType": "uint256",
          "name": "",
          "type": "uint256"
        }
      ],
      "stateMutability": "view",
      "type": "function"
    },
    {
      "inputs": [
        {
          "internalType": "bytes",
          "name": "performData",
          "type": "bytes"
        }
      ],
      "name": "performUpkeep",
      "outputs": [],
      "stateMutability": "nonpayable",
      "type": "function"
    },
    {
      "inputs": [],
      "name": "priceAdapterPrecision",
      "outputs": [
        {
          "internalType": "uint256",
          "name": "",
          "type": "uint256"
        }
      ],
      "stateMutability": "view",
      "type": "function"
    },
    {
      "inputs": [],
      "name": "registry",
      "outputs": [
        {
          "internalType": "contract IPriceAdapterRegistry",
          "name": "",
          "type": "address"
        }
      ],
      "stateMutability": "view",
      "type": "function"
    },
    {
      "inputs": [],
      "name": "renounceOwnership",
      "outputs": [],
      "stateMutability": "nonpayable",
      "type": "function"
    },
    {
      "inputs": [],
      "name": "rsFeeCoefficient",
      "outputs": [
        {
          "internalType": "uint16",
          "name": "",
          "type": "uint16"
        }
      ],
      "stateMutability": "view",
      "type": "function"
    },
    {
      "inputs": [
        {
          "internalType": "uint256",
          "name": "amount",
          "type": "uint256"
        }
      ],
      "name": "subtractPendingProtocolFees",
      "outputs": [],
      "stateMutability": "nonpayable",
      "type": "function"
    },
    {
      "inputs": [
        {
          "internalType": "address",
          "name": "newOwner",
          "type": "address"
        }
      ],
      "name": "transferOwnership",
      "outputs": [],
      "stateMutability": "nonpayable",
      "type": "function"
    },
    {
      "inputs": [],
      "name": "transparentMinibatchSize",
      "outputs": [
        {
          "internalType": "uint8",
          "name": "",
          "type": "uint8"
        }
      ],
      "stateMutability": "view",
      "type": "function"
    },
    {
      "inputs": [
        {
          "internalType": "uint256",
          "name": "",
          "type": "uint256"
        }
      ],
      "name": "transparentVaultsEpoch",
      "outputs": [
        {
          "internalType": "address",
          "name": "",
          "type": "address"
        }
      ],
      "stateMutability": "view",
      "type": "function"
    },
    {
      "inputs": [],
      "name": "underlyingAsset",
      "outputs": [
        {
          "internalType": "address",
          "name": "",
          "type": "address"
        }
      ],
      "stateMutability": "view",
      "type": "function"
    },
    {
      "inputs": [],
      "name": "underlyingDecimals",
      "outputs": [
        {
          "internalType": "uint8",
          "name": "",
          "type": "uint8"
        }
      ],
      "stateMutability": "view",
      "type": "function"
    },
    {
      "inputs": [
        {
          "internalType": "address",
          "name": "newAutomationRegistry",
          "type": "address"
        }
      ],
      "name": "updateAutomationRegistry",
      "outputs": [],
      "stateMutability": "nonpayable",
      "type": "function"
    },
    {
      "inputs": [
        {
          "internalType": "uint32",
          "name": "newEpochDuration",
          "type": "uint32"
        }
      ],
      "name": "updateEpochDuration",
      "outputs": [],
      "stateMutability": "nonpayable",
      "type": "function"
    },
    {
      "inputs": [
        {
          "internalType": "uint8",
          "name": "_transparentMinibatchSize",
          "type": "uint8"
        },
        {
          "internalType": "uint8",
          "name": "_encryptedMinibatchSize",
          "type": "uint8"
        }
      ],
      "name": "updateMinibatchSizes",
      "outputs": [],
      "stateMutability": "nonpayable",
      "type": "function"
    },
    {
      "inputs": [
        {
          "internalType": "uint16",
          "name": "_vFeeCoefficient",
          "type": "uint16"
        },
        {
          "internalType": "uint16",
          "name": "_rsFeeCoefficient",
          "type": "uint16"
        }
      ],
      "name": "updateProtocolFees",
      "outputs": [],
      "stateMutability": "nonpayable",
      "type": "function"
    },
    {
      "inputs": [],
      "name": "vFeeCoefficient",
      "outputs": [
        {
          "internalType": "uint16",
          "name": "",
          "type": "uint16"
        }
      ],
      "stateMutability": "view",
      "type": "function"
    }
  ],
  "bytecode": "0x608060405234801561000f575f5ffd5b50604051613f4d380380613f4d83398101604081905261002e916107c1565b826100d26100cd604080516080810182525f80825260208201819052918101829052606081019190915250604080516080810182527350157cffd6bbfa2dece204a89ec419c23ef5755d815273cd3ab3bd6bcc0c0bf3e27912a92043e817b1cf696020820152731364cbbf2cdf5032c47d8226a6f6fbd2afcdacac9181019190915273901f8942346f7ab3a01f6d7613119bca447bb030606082015290565b61051f565b6100ef73a02cda4ca3a71d7c46997716f4283aa851c288126105d8565b6001600160a01b03811661011c57604051631e4fbdf760e01b81525f600482015260240160405180910390fd5b61012581610615565b50600180556001600160a01b0382166101515760405163d92e233d60e01b815260040160405180910390fd5b6001600160a01b0381166101785760405163d92e233d60e01b815260040160405180910390fd5b600380546001600160a01b0319166001600160a01b0384169081179091556040805163015df99360e01b8152905163015df993916004808201926020929091908290030181865afa1580156101cf573d5f5f3e3d5ffd5b505050506040513d601f19601f820116820180604052508101906101f3919061080b565b600580546001600160a01b0319166001600160a01b039283161790556003546040805163d1717c7d60e01b81529051919092169163d1717c7d9160048083019260209291908290030181865afa15801561024f573d5f5f3e3d5ffd5b505050506040513d601f19601f82011682018060405250810190610273919061082d565b61027e90600a610944565b60075560035460408051631c56369f60e21b815290516001600160a01b0390921691637158da7c916004808201926020929091908290030181865afa1580156102c9573d5f5f3e3d5ffd5b505050506040513d601f19601f820116820180604052508101906102ed919061080b565b600880546001600160a01b0319166001600160a01b039290921691821790556040805163313ce56760e01b8152905163313ce567916004808201926020929091908290030181865afa158015610345573d5f5f3e3d5ffd5b505050506040513d601f19601f82011682018060405250810190610369919061082d565b600860146101000a81548160ff021916908360ff16021790555060035f9054906101000a90046001600160a01b03166001600160a01b031663567ba7136040518163ffffffff1660e01b8152600401602060405180830381865afa1580156103d3573d5f5f3e3d5ffd5b505050506040513d601f19601f820116820180604052508101906103f7919061082d565b61040290600a610944565b6006556016805463ffff000019166301010000179055600280546001600160a01b0319166001600160a01b038381169190911790915560035460408051631d06d6c760e11b815290519190921691633a0dad8e9160048281019260209291908290030181865afa158015610478573d5f5f3e3d5ffd5b505050506040513d601f19601f8201168201806040525081019061049c919061080b565b600480546001600160a01b03929092166001600160a01b03199092169190911790556014805463ffffffff1916620151801790556104d942610664565b6015556016805465ffff0000ffff191690556104f45f61067f565b601781905561050290610691565b50506008805463ffffffff60a81b1916905550505f601a556109ac565b80515f516020613f0d5f395f51905f5280546001600160a01b03199081166001600160a01b039384161790915560208301515f516020613f2d5f395f51905f528054831691841691909117905560408301517fed8d60e34876f751cc8b014c560745351147d9de11b9347c854e881b128ea6028054831691841691909117905560608301517fed8d60e34876f751cc8b014c560745351147d9de11b9347c854e881b128ea6038054909216921691909117905550565b50565b7f5ea69329017273582817d320489fbd94f775580e90c092699ca6f3d12fdf7d0080546001600160a01b0319166001600160a01b03831617905550565b5f80546001600160a01b038381166001600160a01b0319831681178455604051919092169283917f8be0079c531659141344cd1fd0a4f28419497f9722a3daafe3b4186f6b6457e09190a35050565b6014545f906106799063ffffffff1683610952565b92915050565b5f61067963ffffffff831660046106a0565b5f61069c8230610737565b5090565b5f516020613f2d5f395f51905f5254604051639cd07acb60e01b81525f915f516020613f0d5f395f51905f52916001600160a01b0390911690639cd07acb906106ef9087908790600401610965565b6020604051808303815f875af115801561070b573d5f5f3e3d5ffd5b505050506040513d601f19601f8201168201806040525081019061072f9190610995565b949350505050565b5f5f516020613f0d5f395f51905f528054604051635ca4b5b160e11b8152600481018690526001600160a01b03858116602483015292935091169063b9496b62906044015f604051808303815f87803b158015610792575f5ffd5b505af11580156107a4573d5f5f3e3d5ffd5b50505050505050565b6001600160a01b03811681146105d5575f5ffd5b5f5f5f606084860312156107d3575f5ffd5b83516107de816107ad565b60208501519093506107ef816107ad565b6040850151909250610800816107ad565b809150509250925092565b5f6020828403121561081b575f5ffd5b8151610826816107ad565b9392505050565b5f6020828403121561083d575f5ffd5b815160ff81168114610826575f5ffd5b634e487b7160e01b5f52601160045260245ffd5b6001815b600184111561089c578085048111156108805761088061084d565b600184161561088e57908102905b60019390931c928002610865565b935093915050565b5f826108b257506001610679565b816108be57505f610679565b81600181146108d457600281146108de576108fa565b6001915050610679565b60ff8411156108ef576108ef61084d565b50506001821b610679565b5060208310610133831016604e8410600b841016171561091d575081810a610679565b6109295f198484610861565b805f190482111561093c5761093c61084d565b029392505050565b5f61082660ff8416836108a4565b808201808211156106795761067961084d565b828152604081016054831061098857634e487b7160e01b5f52602160045260245ffd5b8260208301529392505050565b5f602082840312156109a5575f5ffd5b5051919050565b613554806109b95f395ff3fe608060405234801561000f575f5ffd5b50600436106101a9575f3560e01c8062bb07bb146101ad578063055ad42e146101c25780630844697d146101ec57806308af604d1461021457806314b19c5a1461023957806314b5d07f1461024757806325a760c21461025a578063289a2f761461026e5780632b0088b41461028e57806336021ef4146102a5578063380e443b146102b95780633a0dad8e146102c25780634585e33b146102d55780634ff0876a146102e85780635488cd621461030d57806358fac65b146103215780635dc228a0146103345780636e04ff0d146103475780637060444514610368578063715018a61461037b5780637158da7c146103835780637847ea531461039657806379502c55146103a15780637b103999146103b45780637cdabf0a146103c7578063800f9fad146103da5780638da5cb5b146103e35780638f5c9465146103eb578063a08b82d7146103f4578063b8b2af7c1461040a578063c18e2a5c1461041f578063c2cb5d8814610428578063ca1f32f114610430578063eeb393c914610439578063f2fde38b1461044c578063f91b5b251461045f575b5f5ffd5b6101c06101bb366004612d2a565b610467565b005b6016546101d690600160201b900460ff1681565b6040516101e39190612d75565b60405180910390f35b60085461020190600160b81b900461ffff1681565b60405161ffff90911681526020016101e3565b6016546102279062010000900460ff1681565b60405160ff90911681526020016101e3565b6016546102019061ffff1681565b6101c0610255366004612da3565b610561565b60085461022790600160a01b900460ff1681565b61028161027c366004612dbe565b61066a565b6040516101e39190612dd5565b61029760075481565b6040519081526020016101e3565b601654610227906301000000900460ff1681565b6102016105dc81565b600454610281906001600160a01b031681565b6101c06102e3366004612de9565b610692565b6014546102f89063ffffffff1681565b60405163ffffffff90911681526020016101e3565b60165461022790600160281b900460ff1681565b61028161032f366004612dbe565b6107f0565b600254610281906001600160a01b031681565b61035a610355366004612de9565b6107ff565b6040516101e3929190612e55565b6101c0610376366004612dbe565b610b53565b6101c0610bba565b600854610281906001600160a01b031681565b6102f86301e1338081565b600354610281906001600160a01b031681565b600554610281906001600160a01b031681565b6101c06103d5366004612ea9565b610bcd565b61029760095481565b610281610cd4565b61020161271081565b6103fc610ce2565b6040516101e3929190612eda565b60085461020190600160a81b900461ffff1681565b610297601a5481565b6103fc610e7a565b61029760065481565b6101c0610447366004612f74565b61100b565b6101c061045a366004612da3565b6110e6565b610201606481565b61046f61112c565b60ff82161580610480575060ff8116155b1561049e576040516317dbc4cb60e21b815260040160405180910390fd5b60035f9054906101000a90046001600160a01b03166001600160a01b031663edcf9c1f6040518163ffffffff1660e01b8152600401602060405180830381865afa1580156104ee573d5f5f3e3d5ffd5b505050506040513d601f19601f820116820180604052508101906105129190612f8f565b61052f576040516312aecd8160e01b815260040160405180910390fd5b6016805463ffff000019166201000060ff9485160263ff00000019161763010000009290931691909102919091179055565b61056961112c565b6001600160a01b0381166105905760405163d92e233d60e01b815260040160405180910390fd5b60035f9054906101000a90046001600160a01b03166001600160a01b031663edcf9c1f6040518163ffffffff1660e01b8152600401602060405180830381865afa1580156105e0573d5f5f3e3d5ffd5b505050506040513d601f19601f820116820180604052508101906106049190612f8f565b610621576040516312aecd8160e01b815260040160405180910390fd5b600280546001600160a01b0319166001600160a01b0383169081179091556040517f6cc7ebdb6c8c53291c5ae16148cab9b049d23bf5bde5632900b40edff56fcb43905f90a250565b60198181548110610679575f80fd5b5f918252602090912001546001600160a01b0316905081565b6002546001600160a01b031633146106bd5760405163ea8e4eb560e01b815260040160405180910390fd5b6106c561115e565b60048110156106e7576040516317dbc4cb60e21b815260040160405180910390fd5b5f806106f583850185612fae565b90925090506341659aab60e01b6001600160e01b031983160161071f5761071a611188565b6107e1565b636ce38ed360e11b6001600160e01b03198316016107405761071a81611415565b635954faa160e01b6001600160e01b03198316016107615761071a81611aae565b6292a80f60e51b6001600160e01b03198316016107805761071a611ec3565b6265e66b60e01b6001600160e01b03198316016107a05761071a816121e7565b63f4d3cc0960e01b6001600160e01b03198316016107c15761071a81612615565b63c4b3cef760e01b6001600160e01b03198316016107e1576107e16126ed565b50506107ec60018055565b5050565b60188181548110610679575f80fd5b5f606060035f9054906101000a90046001600160a01b03166001600160a01b031663edcf9c1f6040518163ffffffff1660e01b8152600401602060405180830381865afa158015610852573d5f5f3e3d5ffd5b505050506040513d601f19601f820116820180604052508101906108769190612f8f565b8015610883575060155442115b156108d557600191507fbe9a655586dceb82dfa0af992b5d8ae7fa45053cb7fd6f141f541da7572978c75f6040516020016108bf929190612fd6565b6040516020818303038152906040529050610b4c565b6001601654600160201b900460ff1660068111156108f5576108f5612d61565b0361094057600191507f2638e25a856cbfe28e0ae1857cb597cc2ceb873ce579b7d93c2258e45a754481601660059054906101000a900460ff166040516020016108bf929190612fd6565b6002601654600160201b900460ff16600681111561096057610960612d61565b036109ab57600191507fa6ab055f7fc0612ad6e844f7e1dd3a6df793560cd68d707affa0dd01c39ec8f1601660059054906101000a900460ff166040516020016108bf929190612fd6565b6003601654600160201b900460ff1660068111156109cb576109cb612d61565b03610a0757600191507fedaafe206508e00f40674bb87dda745bccfe8a3f3f6d6eaaf6db5f44021a1c135f6040516020016108bf929190612fd6565b6004601654600160201b900460ff166006811115610a2757610a27612d61565b03610a7257600191507fff9a199536c068c55c334e40ebfa355733f79152332d6586d615c5bb37fd5c17601660059054906101000a900460ff166040516020016108bf929190612fd6565b6005601654600160201b900460ff166006811115610a9257610a92612d61565b03610add57600191507f0b2c33f7f9ce5cba78feb12c50c7fc97cbcfb655f151982783c0f2faf7567b0b601660059054906101000a900460ff166040516020016108bf929190612fd6565b6006601654600160201b900460ff166006811115610afd57610afd612d61565b03610b3957600191507f3b4c310984a9fe486c05a56b52659c09d4bf9f3ef9b799ad52ee29a7d805741e5f6040516020016108bf929190612fd6565b505060408051602081019091525f808252905b9250929050565b6004546001600160a01b03163314610b7e5760405163ea8e4eb560e01b815260040160405180910390fd5b600954811115610ba157604051632ca2f52b60e11b815260040160405180910390fd5b8060095f828254610bb29190613007565b909155505050565b610bc261112c565b610bcb5f6128b9565b565b610bd561112c565b606461ffff83161180610bed57506105dc61ffff8216115b15610c0b576040516317dbc4cb60e21b815260040160405180910390fd5b60035f9054906101000a90046001600160a01b03166001600160a01b031663edcf9c1f6040518163ffffffff1660e01b8152600401602060405180830381865afa158015610c5b573d5f5f3e3d5ffd5b505050506040513d601f19601f82011682018060405250810190610c7f9190612f8f565b610c9c576040516312aecd8160e01b815260040160405180910390fd5b6008805463ffffffff60a81b1916600160a81b61ffff9485160261ffff60b81b191617600160b81b9290931691909102919091179055565b5f546001600160a01b031690565b601180546040805160208084028201810190925282815260609384935f93830182828015610d3757602002820191905f5260205f20905b81546001600160a01b03168152600190910190602001808311610d19575b505083519394505061ffff83169150506001600160401b03811115610d5e57610d5e61301a565b604051908082528060200260200182016040528015610d87578160200160208202803683370190505b5093508061ffff166001600160401b03811115610da657610da661301a565b604051908082528060200260200182016040528015610dcf578160200160208202803683370190505b5092505f5b8161ffff168161ffff161015610e73575f838261ffff1681518110610dfb57610dfb61302e565b6020026020010151905080868361ffff1681518110610e1c57610e1c61302e565b6001600160a01b039283166020918202929092018101919091529082165f908152601090915260409020548551869061ffff8516908110610e5f57610e5f61302e565b602090810291909101015250600101610dd4565b5050509091565b601180546040805160208084028201810190925282815260609384935f93830182828015610ecf57602002820191905f5260205f20905b81546001600160a01b03168152600190910190602001808311610eb1575b505083519394505061ffff83169150506001600160401b03811115610ef657610ef661301a565b604051908082528060200260200182016040528015610f1f578160200160208202803683370190505b5093508061ffff166001600160401b03811115610f3e57610f3e61301a565b604051908082528060200260200182016040528015610f67578160200160208202803683370190505b5092505f5b8161ffff168161ffff161015610e73575f838261ffff1681518110610f9357610f9361302e565b6020026020010151905080868361ffff1681518110610fb457610fb461302e565b6001600160a01b039283166020918202929092018101919091529082165f908152600f90915260409020548551869061ffff8516908110610ff757610ff761302e565b602090810291909101015250600101610f6c565b61101361112c565b8063ffffffff165f03611039576040516317dbc4cb60e21b815260040160405180910390fd5b60035f9054906101000a90046001600160a01b03166001600160a01b031663edcf9c1f6040518163ffffffff1660e01b8152600401602060405180830381865afa158015611089573d5f5f3e3d5ffd5b505050506040513d601f19601f820116820180604052508101906110ad9190612f8f565b6110ca576040516312aecd8160e01b815260040160405180910390fd5b6014805463ffffffff191663ffffffff92909216919091179055565b6110ee61112c565b6001600160a01b038116611120575f604051631e4fbdf760e01b81526004016111179190612dd5565b60405180910390fd5b611129816128b9565b50565b33611135610cd4565b6001600160a01b031614610bcb573360405163118cdaa760e01b81526004016111179190612dd5565b60026001540361118157604051633ee5aeb560e01b815260040160405180910390fd5b6002600155565b6015544211158061120a575060035f9054906101000a90046001600160a01b03166001600160a01b031663edcf9c1f6040518163ffffffff1660e01b8152600401602060405180830381865afa1580156111e4573d5f5f3e3d5ffd5b505050506040513d601f19601f820116820180604052508101906112089190612f8f565b155b156112285760405163085de62560e01b815260040160405180910390fd5b61123142612908565b6015555f5b60115461ffff821610156112e7575f600a6007018261ffff168154811061125f5761125f61302e565b5f9182526020808320909101546001600160a01b03168252600b81526040808320839055600c8252808320839055600d8252808320839055600e8252808320839055600f82528083208390556010825280832083905560128252808320805460ff19908116909155600a90925290912080549091169055506112e081613042565b9050611236565b506112f360115f612c8a565b600354604051631da09e4360e31b81526001600160a01b039091169063ed04f21890611323905f90600401613062565b5f60405180830381865afa15801561133d573d5f5f3e3d5ffd5b505050506040513d5f823e601f3d908101601f19168201604052611364919081019061313b565b805161137891601891602090910190612ca5565b50600354604051631da09e4360e31b81526001600160a01b039091169063ed04f218906113aa90600190600401613062565b5f60405180830381865afa1580156113c4573d5f5f3e3d5ffd5b505050506040513d5f823e601f3d908101601f191682016040526113eb919081019061313b565b80516113ff91601991602090910190612ca5565b506016805460ff60201b1916600160201b179055565b6001601654600160201b900460ff16600681111561143557611435612d61565b146114535760405163baf3f0f760e01b815260040160405180910390fd5b6016805460059061146d90600160281b900460ff1661316c565b91906101000a81548160ff021916908360ff1602179055505f601660029054906101000a900460ff16826114a19190613181565b60165460ff91821692505f916114be9162010000900416836131a4565b60185490915061ffff8216106114e757506018546016805461ffff60201b1916600160211b1790555b815b8161ffff168161ffff161015611aa8575f60188261ffff16815481106115115761151161302e565b905f5260205f20015f9054906101000a90046001600160a01b031690505f5f826001600160a01b031663d3d034586040518163ffffffff1660e01b81526004015f60405180830381865afa15801561156b573d5f5f3e3d5ffd5b505050506040513d5f823e601f3d908101601f1916820160405261159291908101906131be565b90925090505f805b83518161ffff161015611814575f848261ffff16815181106115be576115be61302e565b602002602001015190505f848361ffff16815181106115df576115df61302e565b6020026020010151905080600a6002015f846001600160a01b03166001600160a01b031681526020019081526020015f205f82825461161e919061327c565b90915550506001600160a01b0382165f9081526012602052604090205460ff1661179457816001600160a01b031663313ce5676040518163ffffffff1660e01b8152600401602060405180830381865afa15801561167e573d5f5f3e3d5ffd5b505050506040513d601f19601f820116820180604052508101906116a2919061328f565b6001600160a01b038381165f818152600a60205260409020805460ff191660ff949094169390931790925560085416900361170c576008546116ef90600160a01b900460ff16600a61338d565b6001600160a01b0383165f908152600b6020526040902055611794565b6005546040516341976e0960e01b81526001600160a01b03909116906341976e099061173c908590600401612dd5565b602060405180830381865afa158015611757573d5f5f3e3d5ffd5b505050506040513d601f19601f8201168201806040525081019061177b919061339b565b6001600160a01b0383165f908152600b60205260409020555b6001600160a01b0382165f908152600a6020908152604080832054600b90925282205460065460ff9092169290916117e7906117d39084908790612923565b6008548590600160a01b900460ff166129d4565b90506117f3818861327c565b96506117fe85612a3e565b50505050508061180d90613042565b905061159a565b506008545f9061183290600160a81b900461ffff1683612710612923565b60145490915061185390829063ffffffff908116906301e133809061292316565b90508060095f828254611866919061327c565b9091555061187690508183613007565b60405163728d42fb60e11b8152600481018290529092505f906001600160a01b0387169063e51a85f690602401602060405180830381865afa1580156118be573d5f5f3e3d5ffd5b505050506040513d601f19601f820116820180604052508101906118e2919061339b565b90506118ee8184613007565b6008549093505f9061190e90600160b81b900461ffff1683612710612923565b90508060095f828254611921919061327c565b9091555061193190508183613007565b91505f876001600160a01b031663a68a5267896001600160a01b0316630a605c6d6040518163ffffffff1660e01b8152600401602060405180830381865afa15801561197f573d5f5f3e3d5ffd5b505050506040513d601f19601f820116820180604052508101906119a3919061339b565b875f6040518463ffffffff1660e01b81526004016119c3939291906133b2565b602060405180830381865afa1580156119de573d5f5f3e3d5ffd5b505050506040513d601f19601f82011682018060405250810190611a02919061339b565b905080886001600160a01b031663f64c6f326040518163ffffffff1660e01b8152600401602060405180830381865afa158015611a41573d5f5f3e3d5ffd5b505050506040513d601f19601f82011682018060405250810190611a65919061339b565b611a6f9190613007565b611a79908661327c565b6001600160a01b039098165f908152600d60205260409020979097555050600190950194506114e99350505050565b50505050565b6002601654600160201b900460ff166006811115611ace57611ace612d61565b14611aec5760405163baf3f0f760e01b815260040160405180910390fd5b60168054600590611b0690600160281b900460ff1661316c565b91906101000a81548160ff021916908360ff1602179055505f601660039054906101000a900460ff1682611b3a9190613181565b60165460ff91821692505f91611b58916301000000900416836131a4565b60195490915061ffff821610611b8157506019546016805461ffff60201b1916600360201b1790555b815b8161ffff168161ffff161015611aa8575f60198261ffff1681548110611bab57611bab61302e565b5f918252602091829020015460408051631b9d6fc560e31b815290516001600160a01b039092169350839263dceb7e28926004808401938290030181865afa158015611bf9573d5f5f3e3d5ffd5b505050506040513d601f19601f82011682018060405250810190611c1d9190612f8f565b611c275750611ebb565b5f5f826001600160a01b031663d3d034586040518163ffffffff1660e01b81526004015f60405180830381865afa158015611c64573d5f5f3e3d5ffd5b505050506040513d5f823e601f3d908101601f19168201604052611c8b91908101906131be565b60175491935091505f5b83518161ffff161015611eb5575f848261ffff1681518110611cb957611cb961302e565b60200260200101519050611d0d60135f836001600160a01b03166001600160a01b031681526020019081526020015f2054858461ffff1681518110611d0057611d0061302e565b6020026020010151612ac3565b6001600160a01b0382165f9081526013602090815260408083209390935560129052205460ff16611e8a57806001600160a01b031663313ce5676040518163ffffffff1660e01b8152600401602060405180830381865afa158015611d74573d5f5f3e3d5ffd5b505050506040513d601f19601f82011682018060405250810190611d98919061328f565b6001600160a01b038281165f818152600a60205260409020805460ff191660ff9490941693909317909255600854169003611e0257600854611de590600160a01b900460ff16600a61338d565b6001600160a01b0382165f908152600b6020526040902055611e8a565b6005546040516341976e0960e01b81526001600160a01b03909116906341976e0990611e32908490600401612dd5565b602060405180830381865afa158015611e4d573d5f5f3e3d5ffd5b505050506040513d601f19601f82011682018060405250810190611e71919061339b565b6001600160a01b0382165f908152600b60205260409020555b601754611e978482612ac3565b9350611ea282612a3e565b505080611eae90613042565b9050611c95565b50505050505b600101611b83565b6003601654600160201b900460ff166006811115611ee357611ee3612d61565b14611f015760405163baf3f0f760e01b815260040160405180910390fd5b6016805460ff60201b1916600160221b1790555f805b60185461ffff82161015611f82575f60188261ffff1681548110611f3d57611f3d61302e565b5f9182526020808320909101546001600160a01b0316808352600d909152604090912054909150611f6e908461327c565b92505080611f7b90613042565b9050611f17565b505f5b60195461ffff82161015611ff0575f60198261ffff1681548110611fab57611fab61302e565b5f9182526020808320909101546001600160a01b0316808352600d909152604090912054909150611fdc908461327c565b92505080611fe990613042565b9050611f85565b50600480546040805163dab26e3b60e01b815290515f93612067936001600160a01b03169263dab26e3b92818301926020928290030181865afa158015612039573d5f5f3e3d5ffd5b505050506040513d601f19601f8201168201806040525081019061205d919061339b565b8390612710612923565b905080601a541115612077575050565b5f601a54826120869190613007565b90505f5b60185461ffff82161015612129575f60188261ffff16815481106120b0576120b061302e565b5f9182526020808320909101546001600160a01b0316808352600d9091526040822054909250906120e2858389612923565b6001600160a01b0384165f908152600d602052604081208054929350839290919061210e908490613007565b925050819055505050508061212290613042565b905061208a565b505f5b60195461ffff821610156121cb575f60198261ffff16815481106121525761215261302e565b5f9182526020808320909101546001600160a01b0316808352600d909152604082205490925090612184858389612923565b6001600160a01b0384165f908152600d60205260408120805492935083929091906121b0908490613007565b92505081905550505050806121c490613042565b905061212c565b5080601a5f8282546121dd919061327c565b9091555050505050565b6004601654600160201b900460ff16600681111561220757612207612d61565b146122255760405163baf3f0f760e01b815260040160405180910390fd5b6016805460059061223f90600160281b900460ff1661316c565b91906101000a81548160ff021916908360ff1602179055505f601660029054906101000a900460ff16826122739190613181565b60165460ff91821692505f916122909162010000900416836131a4565b60185490915061ffff8216106122b957506018546016805461ffff60201b1916600560201b1790555b815b8161ffff168161ffff161015611aa8575f60188261ffff16815481106122e3576122e361302e565b905f5260205f20015f9054906101000a90046001600160a01b031690505f5f826001600160a01b031663b6eba6536040518163ffffffff1660e01b81526004015f60405180830381865afa15801561233d573d5f5f3e3d5ffd5b505050506040513d5f823e601f3d908101601f1916820160405261236491908101906133de565b6001600160a01b0385165f908152600d60205260408120549294509092505b83518161ffff161015612605575f848261ffff16815181106123a7576123a761302e565b602002602001015190505f848361ffff16815181106123c8576123c861302e565b6020908102919091018101516001600160a01b0384165f908152601290925260409091205490915060ff1661254957816001600160a01b031663313ce5676040518163ffffffff1660e01b8152600401602060405180830381865afa158015612433573d5f5f3e3d5ffd5b505050506040513d601f19601f82011682018060405250810190612457919061328f565b6001600160a01b038381165f818152600a60205260409020805460ff191660ff94909416939093179092556008541690036124c1576008546124a490600160a01b900460ff16600a61338d565b6001600160a01b0383165f908152600b6020526040902055612549565b6005546040516341976e0960e01b81526001600160a01b03909116906341976e09906124f1908590600401612dd5565b602060405180830381865afa15801561250c573d5f5f3e3d5ffd5b505050506040513d601f19601f82011682018060405250810190612530919061339b565b6001600160a01b0383165f908152600b60205260409020555b6001600160a01b0382165f908152600a6020908152604080832054600b90925282205460065460075460ff9093169391926125b4916125a191859061259a908c9063ffffffff808c16919061292316565b9190612923565b600854600160a01b900460ff16856129d4565b6001600160a01b0386165f908152600e60205260408120805492935083929091906125e090849061327c565b909155506125ef905085612a3e565b5050505050806125fe90613042565b9050612383565b50505050508060010190506122bb565b6005601654600160201b900460ff16600681111561263557612635612d61565b146126535760405163baf3f0f760e01b815260040160405180910390fd5b6016805460059061266d90600160281b900460ff1661316c565b91906101000a81548160ff021916908360ff1602179055505f601660039054906101000a900460ff16826126a19190613181565b60165460ff91821692505f916126bf916301000000900416836131a4565b60195490915061ffff8216106126e857506019546016805461ffff60201b1916600360211b1790555b505050565b6006601654600160201b900460ff16600681111561270d5761270d612d61565b1461272b5760405163baf3f0f760e01b815260040160405180910390fd5b5f600a60070180548060200260200160405190810160405280929190818152602001828054801561278357602002820191905f5260205f20905b81546001600160a01b03168152600190910190602001808311612765575b505083519394505f925050505b8161ffff168161ffff16101561284e575f838261ffff16815181106127b7576127b761302e565b6020908102919091018101516001600160a01b0381165f908152600c8352604080822054600e90945290205490925080821115612815576127f88183613007565b6001600160a01b0384165f908152600f6020526040902055612840565b81811115612840576128278282613007565b6001600160a01b0384165f908152601060205260409020555b505050806001019050612790565b506016805460ff60201b19811682555f9061286c9061ffff16613042565b82546101009290920a61ffff8181021990931691831602179091556016546040519116907f0bc12479581640d161e016cef21aa834cb6d6326bbc0d8445e58d56403adf2dc905f90a25050565b5f80546001600160a01b038381166001600160a01b0319831681178455604051919092169283917f8be0079c531659141344cd1fd0a4f28419497f9722a3daafe3b4186f6b6457e09190a35050565b6014545f9061291d9063ffffffff168361327c565b92915050565b5f5f5f6129308686612af1565b91509150815f036129545783818161294a5761294a613497565b04925050506129cd565b81841161296b5761296b6003851502601118612b0d565b5f848688095f868103871696879004966002600389028118808a02820302808a02820302808a02820302808a02820302808a02820302808a02909103029181900381900460010185841190960395909502919093039390930492909217029150505b9392505050565b5f8260ff168260ff161115612a09576129ed83836134ab565b6129f890600a61338d565b612a0290856134c4565b90506129cd565b8260ff168260ff161015612a3657612a2182846134ab565b612a2c90600a61338d565b612a0290856134db565b509192915050565b6001600160a01b0381165f9081526012602052604090205460ff16611129576011805460018181019092557f31ecc21a745e3968a04e9570e4425bc18fa8019c68028196b546d1669c200c680180546001600160a01b0384166001600160a01b031990911681179091555f908152601260205260409020805460ff1916909117905550565b5f82612ad557612ad25f612b1e565b92505b81612ae657612ae35f612b1e565b91505b6129cd83835f612b30565b5f805f1983850993909202808410938190039390930393915050565b634e487b715f52806020526024601cfd5b5f61291d8263ffffffff166004612bdf565b5f5f8215612b435750600160f81b612b46565b505f5b5f612b4f612c66565b600181015460405163022f65e760e31b815260048101899052602481018890526001600160f81b0319851660448201529192506001600160a01b03169063117b2f38906064016020604051808303815f875af1158015612bb1573d5f5f3e3d5ffd5b505050506040513d601f19601f82011682018060405250810190612bd5919061339b565b9695505050505050565b5f5f612be9612c66565b6001810154604051639cd07acb60e01b81529192506001600160a01b031690639cd07acb90612c1e90879087906004016134fa565b6020604051808303815f875af1158015612c3a573d5f5f3e3d5ffd5b505050506040513d601f19601f82011682018060405250810190612c5e919061339b565b949350505050565b7fed8d60e34876f751cc8b014c560745351147d9de11b9347c854e881b128ea60090565b5080545f8255905f5260205f20908101906111299190612d08565b828054828255905f5260205f20908101928215612cf8579160200282015b82811115612cf857825182546001600160a01b0319166001600160a01b03909116178255602090920191600190910190612cc3565b50612d04929150612d08565b5090565b5b80821115612d04575f8155600101612d09565b60ff81168114611129575f5ffd5b5f5f60408385031215612d3b575f5ffd5b8235612d4681612d1c565b91506020830135612d5681612d1c565b809150509250929050565b634e487b7160e01b5f52602160045260245ffd5b6020810160078310612d8957612d89612d61565b91905290565b6001600160a01b0381168114611129575f5ffd5b5f60208284031215612db3575f5ffd5b81356129cd81612d8f565b5f60208284031215612dce575f5ffd5b5035919050565b6001600160a01b0391909116815260200190565b5f5f60208385031215612dfa575f5ffd5b82356001600160401b03811115612e0f575f5ffd5b8301601f81018513612e1f575f5ffd5b80356001600160401b03811115612e34575f5ffd5b856020828401011115612e45575f5ffd5b6020919091019590945092505050565b8215158152604060208201525f82518060408401528060208501606085015e5f606082850101526060601f19601f8301168401019150509392505050565b803561ffff81168114612ea4575f5ffd5b919050565b5f5f60408385031215612eba575f5ffd5b612ec383612e93565b9150612ed160208401612e93565b90509250929050565b604080825283519082018190525f9060208501906060840190835b81811015612f1c5783516001600160a01b0316835260209384019390920191600101612ef5565b5050838103602080860191909152855180835291810192508501905f5b81811015612f57578251845260209384019390920191600101612f39565b50919695505050505050565b63ffffffff81168114611129575f5ffd5b5f60208284031215612f84575f5ffd5b81356129cd81612f63565b5f60208284031215612f9f575f5ffd5b815180151581146129cd575f5ffd5b5f5f60408385031215612fbf575f5ffd5b82356001600160e01b031981168114612d46575f5ffd5b6001600160e01b031992909216825260ff16602082015260400190565b634e487b7160e01b5f52601160045260245ffd5b8181038181111561291d5761291d612ff3565b634e487b7160e01b5f52604160045260245ffd5b634e487b7160e01b5f52603260045260245ffd5b5f61ffff821661ffff810361305957613059612ff3565b60010192915050565b6020810160028310612d8957612d89612d61565b604051601f8201601f191681016001600160401b038111828210171561309e5761309e61301a565b604052919050565b5f6001600160401b038211156130be576130be61301a565b5060051b60200190565b5f82601f8301126130d7575f5ffd5b81516130ea6130e5826130a6565b613076565b8082825260208201915060208360051b86010192508583111561310b575f5ffd5b602085015b8381101561313157805161312381612d8f565b835260209283019201613110565b5095945050505050565b5f6020828403121561314b575f5ffd5b81516001600160401b03811115613160575f5ffd5b612c5e848285016130c8565b5f60ff821660ff810361305957613059612ff3565b60ff818116838216029081169081811461319d5761319d612ff3565b5092915050565b61ffff818116838216019081111561291d5761291d612ff3565b5f5f604083850312156131cf575f5ffd5b82516001600160401b038111156131e4575f5ffd5b6131f0858286016130c8565b602085015190935090506001600160401b0381111561320d575f5ffd5b8301601f8101851361321d575f5ffd5b805161322b6130e5826130a6565b8082825260208201915060208360051b85010192508783111561324c575f5ffd5b6020840193505b8284101561326e578351825260209384019390910190613253565b809450505050509250929050565b8082018082111561291d5761291d612ff3565b5f6020828403121561329f575f5ffd5b81516129cd81612d1c565b6001815b60018411156132e5578085048111156132c9576132c9612ff3565b60018416156132d757908102905b60019390931c9280026132ae565b935093915050565b5f826132fb5750600161291d565b8161330757505f61291d565b816001811461331d576002811461332757613343565b600191505061291d565b60ff84111561333857613338612ff3565b50506001821b61291d565b5060208310610133831016604e8410600b8410161715613366575081810a61291d565b6133725f1984846132aa565b805f190482111561338557613385612ff3565b029392505050565b5f6129cd60ff8416836132ed565b5f602082840312156133ab575f5ffd5b5051919050565b8381526020810183905260608101600483106133d0576133d0612d61565b826040830152949350505050565b5f5f604083850312156133ef575f5ffd5b82516001600160401b03811115613404575f5ffd5b613410858286016130c8565b602085015190935090506001600160401b0381111561342d575f5ffd5b8301601f8101851361343d575f5ffd5b805161344b6130e5826130a6565b8082825260208201915060208360051b85010192508783111561346c575f5ffd5b6020840193505b8284101561326e57835161348681612f63565b825260209384019390910190613473565b634e487b7160e01b5f52601260045260245ffd5b60ff828116828216039081111561291d5761291d612ff3565b808202811582820484141761291d5761291d612ff3565b5f826134f557634e487b7160e01b5f52601260045260245ffd5b500490565b828152604081016054831061351157613511612d61565b826020830152939250505056fea2646970667358221220f4654c7637b27025cce918b71d777b0d05951ef75882802f6c2c7931135a401464736f6c634300081c0033ed8d60e34876f751cc8b014c560745351147d9de11b9347c854e881b128ea600ed8d60e34876f751cc8b014c560745351147d9de11b9347c854e881b128ea601",
  "linkReferences": {},
  "deployedLinkReferences": {}
}