{
  "_format": "hh-sol-artifact-1",
  "contractName": "InternalStatesOrchestrator",
  "sourceName": "contracts/orchestrators/InternalStatesOrchestrator.sol",
  "abi": [
    {
      "inputs": [
        {
          "internalType": "address",
          "name": "initialOwner",
          "type": "address"
        },
        {
          "internalType": "address",
          "name": "config_",
          "type": "address"
        },
        {
          "internalType": "address",
          "name": "automationRegistry_",
          "type": "address"
        }
      ],
      "stateMutability": "nonpayable",
      "type": "constructor"
    },
    {
      "inputs": [],
      "name": "InvalidArguments",
      "type": "error"
    },
    {
      "inputs": [],
      "name": "NotAuthorized",
      "type": "error"
    },
    {
      "inputs": [
        {
          "internalType": "address",
          "name": "owner",
          "type": "address"
        }
      ],
      "name": "OwnableInvalidOwner",
      "type": "error"
    },
    {
      "inputs": [
        {
          "internalType": "address",
          "name": "account",
          "type": "address"
        }
      ],
      "name": "OwnableUnauthorizedAccount",
      "type": "error"
    },
    {
      "inputs": [],
      "name": "ReentrancyGuardReentrantCall",
      "type": "error"
    },
    {
      "inputs": [],
      "name": "SystemNotIdle",
      "type": "error"
    },
    {
      "inputs": [],
      "name": "TooEarly",
      "type": "error"
    },
    {
      "inputs": [],
      "name": "ZeroAddress",
      "type": "error"
    },
    {
      "anonymous": false,
      "inputs": [
        {
          "indexed": true,
          "internalType": "address",
          "name": "newAutomationRegistry",
          "type": "address"
        }
      ],
      "name": "AutomationRegistryUpdated",
      "type": "event"
    },
    {
      "anonymous": false,
      "inputs": [
        {
          "indexed": false,
          "internalType": "uint16",
          "name": "epochCounter",
          "type": "uint16"
        }
      ],
      "name": "InternalStateProcessed",
      "type": "event"
    },
    {
      "anonymous": false,
      "inputs": [
        {
          "indexed": true,
          "internalType": "address",
          "name": "previousOwner",
          "type": "address"
        },
        {
          "indexed": true,
          "internalType": "address",
          "name": "newOwner",
          "type": "address"
        }
      ],
      "name": "OwnershipTransferred",
      "type": "event"
    },
    {
      "inputs": [],
      "name": "automationRegistry",
      "outputs": [
        {
          "internalType": "address",
          "name": "",
          "type": "address"
        }
      ],
      "stateMutability": "view",
      "type": "function"
    },
    {
      "inputs": [
        {
          "internalType": "bytes",
          "name": "",
          "type": "bytes"
        }
      ],
      "name": "checkUpkeep",
      "outputs": [
        {
          "internalType": "bool",
          "name": "upkeepNeeded",
          "type": "bool"
        },
        {
          "internalType": "bytes",
          "name": "performData",
          "type": "bytes"
        }
      ],
      "stateMutability": "view",
      "type": "function"
    },
    {
      "inputs": [],
      "name": "config",
      "outputs": [
        {
          "internalType": "contract IOrionConfig",
          "name": "",
          "type": "address"
        }
      ],
      "stateMutability": "view",
      "type": "function"
    },
    {
      "inputs": [],
      "name": "currentMinibatchIndex",
      "outputs": [
        {
          "internalType": "uint8",
          "name": "",
          "type": "uint8"
        }
      ],
      "stateMutability": "view",
      "type": "function"
    },
    {
      "inputs": [],
      "name": "currentPhase",
      "outputs": [
        {
          "internalType": "enum IInternalStateOrchestrator.InternalUpkeepPhase",
          "name": "",
          "type": "uint8"
        }
      ],
      "stateMutability": "view",
      "type": "function"
    },
    {
      "inputs": [],
      "name": "encryptedMinibatchSize",
      "outputs": [
        {
          "internalType": "uint8",
          "name": "",
          "type": "uint8"
        }
      ],
      "stateMutability": "view",
      "type": "function"
    },
    {
      "inputs": [
        {
          "internalType": "uint256",
          "name": "",
          "type": "uint256"
        }
      ],
      "name": "encryptedVaultsEpoch",
      "outputs": [
        {
          "internalType": "address",
          "name": "",
          "type": "address"
        }
      ],
      "stateMutability": "view",
      "type": "function"
    },
    {
      "inputs": [],
      "name": "epochCounter",
      "outputs": [
        {
          "internalType": "uint16",
          "name": "",
          "type": "uint16"
        }
      ],
      "stateMutability": "view",
      "type": "function"
    },
    {
      "inputs": [],
      "name": "epochDuration",
      "outputs": [
        {
          "internalType": "uint32",
          "name": "",
          "type": "uint32"
        }
      ],
      "stateMutability": "view",
      "type": "function"
    },
    {
      "inputs": [],
      "name": "getBuyingOrders",
      "outputs": [
        {
          "internalType": "address[]",
          "name": "tokens",
          "type": "address[]"
        },
        {
          "internalType": "uint256[]",
          "name": "amounts",
          "type": "uint256[]"
        }
      ],
      "stateMutability": "view",
      "type": "function"
    },
    {
      "inputs": [],
      "name": "getSellingOrders",
      "outputs": [
        {
          "internalType": "address[]",
          "name": "tokens",
          "type": "address[]"
        },
        {
          "internalType": "uint256[]",
          "name": "amounts",
          "type": "uint256[]"
        }
      ],
      "stateMutability": "view",
      "type": "function"
    },
    {
      "inputs": [],
      "name": "intentFactor",
      "outputs": [
        {
          "internalType": "uint256",
          "name": "",
          "type": "uint256"
        }
      ],
      "stateMutability": "view",
      "type": "function"
    },
    {
      "inputs": [],
      "name": "owner",
      "outputs": [
        {
          "internalType": "address",
          "name": "",
          "type": "address"
        }
      ],
      "stateMutability": "view",
      "type": "function"
    },
    {
      "inputs": [
        {
          "internalType": "bytes",
          "name": "performData",
          "type": "bytes"
        }
      ],
      "name": "performUpkeep",
      "outputs": [],
      "stateMutability": "nonpayable",
      "type": "function"
    },
    {
      "inputs": [],
      "name": "priceAdapterPrecision",
      "outputs": [
        {
          "internalType": "uint256",
          "name": "",
          "type": "uint256"
        }
      ],
      "stateMutability": "view",
      "type": "function"
    },
    {
      "inputs": [],
      "name": "registry",
      "outputs": [
        {
          "internalType": "contract IPriceAdapterRegistry",
          "name": "",
          "type": "address"
        }
      ],
      "stateMutability": "view",
      "type": "function"
    },
    {
      "inputs": [],
      "name": "renounceOwnership",
      "outputs": [],
      "stateMutability": "nonpayable",
      "type": "function"
    },
    {
      "inputs": [
        {
          "internalType": "address",
          "name": "newOwner",
          "type": "address"
        }
      ],
      "name": "transferOwnership",
      "outputs": [],
      "stateMutability": "nonpayable",
      "type": "function"
    },
    {
      "inputs": [],
      "name": "transparentMinibatchSize",
      "outputs": [
        {
          "internalType": "uint8",
          "name": "",
          "type": "uint8"
        }
      ],
      "stateMutability": "view",
      "type": "function"
    },
    {
      "inputs": [
        {
          "internalType": "uint256",
          "name": "",
          "type": "uint256"
        }
      ],
      "name": "transparentVaultsEpoch",
      "outputs": [
        {
          "internalType": "address",
          "name": "",
          "type": "address"
        }
      ],
      "stateMutability": "view",
      "type": "function"
    },
    {
      "inputs": [],
      "name": "underlyingDecimals",
      "outputs": [
        {
          "internalType": "uint8",
          "name": "",
          "type": "uint8"
        }
      ],
      "stateMutability": "view",
      "type": "function"
    },
    {
      "inputs": [
        {
          "internalType": "address",
          "name": "newAutomationRegistry",
          "type": "address"
        }
      ],
      "name": "updateAutomationRegistry",
      "outputs": [],
      "stateMutability": "nonpayable",
      "type": "function"
    },
    {
      "inputs": [
        {
          "internalType": "uint32",
          "name": "newEpochDuration",
          "type": "uint32"
        }
      ],
      "name": "updateEpochDuration",
      "outputs": [],
      "stateMutability": "nonpayable",
      "type": "function"
    },
    {
      "inputs": [],
      "name": "updateFromConfig",
      "outputs": [],
      "stateMutability": "nonpayable",
      "type": "function"
    },
    {
      "inputs": [
        {
          "internalType": "uint8",
          "name": "_transparentMinibatchSize",
          "type": "uint8"
        },
        {
          "internalType": "uint8",
          "name": "_encryptedMinibatchSize",
          "type": "uint8"
        }
      ],
      "name": "updateMinibatchSizes",
      "outputs": [],
      "stateMutability": "nonpayable",
      "type": "function"
    }
  ],
  "bytecode": "0x608060405234801561000f575f5ffd5b506040516134f03803806134f083398101604081905261002e91610649565b826101836100cd604080516080810182525f80825260208201819052918101829052606081019190915250604080516080810182527350157cffd6bbfa2dece204a89ec419c23ef5755d815273cd3ab3bd6bcc0c0bf3e27912a92043e817b1cf696020820152731364cbbf2cdf5032c47d8226a6f6fbd2afcdacac9181019190915273901f8942346f7ab3a01f6d7613119bca447bb030606082015290565b80515f5160206134b05f395f51905f5280546001600160a01b03199081166001600160a01b039384161790915560208301515f5160206134d05f395f51905f528054831691841691909117905560408301517fed8d60e34876f751cc8b014c560745351147d9de11b9347c854e881b128ea6028054831691841691909117905560608301517fed8d60e34876f751cc8b014c560745351147d9de11b9347c854e881b128ea6038054909216921691909117905550565b7f5ea69329017273582817d320489fbd94f775580e90c092699ca6f3d12fdf7d0080546001600160a01b03191673a02cda4ca3a71d7c46997716f4283aa851c288121790556001600160a01b0381166101f557604051631e4fbdf760e01b81525f600482015260240160405180910390fd5b6101fe81610527565b50600180556001600160a01b03821661022a5760405163d92e233d60e01b815260040160405180910390fd5b6001600160a01b0381166102515760405163d92e233d60e01b815260040160405180910390fd5b600380546001600160a01b0319166001600160a01b0384169081179091556040805163015df99360e01b8152905163015df993916004808201926020929091908290030181865afa1580156102a8573d5f5f3e3d5ffd5b505050506040513d601f19601f820116820180604052508101906102cc9190610693565b600480546001600160a01b0319166001600160a01b039283161781556003546040805163d1717c7d60e01b81529051919093169263d1717c7d92818101926020929091908290030181865afa158015610327573d5f5f3e3d5ffd5b505050506040513d601f19601f8201168201806040525081019061034b91906106b5565b61035690600a6107cc565b60065560035460408051631c56369f60e21b815290516001600160a01b0390921691637158da7c916004808201926020929091908290030181865afa1580156103a1573d5f5f3e3d5ffd5b505050506040513d601f19601f820116820180604052508101906103c59190610693565b6001600160a01b031663313ce5676040518163ffffffff1660e01b8152600401602060405180830381865afa158015610400573d5f5f3e3d5ffd5b505050506040513d601f19601f8201168201806040525081019061042491906106b5565b6007805460ff191660ff929092169190911790556003546040805163567ba71360e01b815290516001600160a01b039092169163567ba713916004808201926020929091908290030181865afa158015610480573d5f5f3e3d5ffd5b505050506040513d601f19601f820116820180604052508101906104a491906106b5565b6104af90600a6107cc565b6005556013805463ffff000019166301010000179055600280546001600160a01b0319166001600160a01b038316179055601180546201518063ffffffff199091161790556104fd42610576565b6012556013805465ffff0000ffff191690556105185f610591565b60145550610834915050565b50565b5f80546001600160a01b038381166001600160a01b0319831681178455604051919092169283917f8be0079c531659141344cd1fd0a4f28419497f9722a3daafe3b4186f6b6457e09190a35050565b6011545f9061058b9063ffffffff16836107da565b92915050565b5f61058b63ffffffff831660045f5160206134d05f395f51905f5254604051639cd07acb60e01b81525f915f5160206134b05f395f51905f52916001600160a01b0390911690639cd07acb906105ed90879087906004016107ed565b6020604051808303815f875af1158015610609573d5f5f3e3d5ffd5b505050506040513d601f19601f8201168201806040525081019061062d919061081d565b949350505050565b6001600160a01b0381168114610524575f5ffd5b5f5f5f6060848603121561065b575f5ffd5b835161066681610635565b602085015190935061067781610635565b604085015190925061068881610635565b809150509250925092565b5f602082840312156106a3575f5ffd5b81516106ae81610635565b9392505050565b5f602082840312156106c5575f5ffd5b815160ff811681146106ae575f5ffd5b634e487b7160e01b5f52601160045260245ffd5b6001815b600184111561072457808504811115610708576107086106d5565b600184161561071657908102905b60019390931c9280026106ed565b935093915050565b5f8261073a5750600161058b565b8161074657505f61058b565b816001811461075c576002811461076657610782565b600191505061058b565b60ff841115610777576107776106d5565b50506001821b61058b565b5060208310610133831016604e8410600b84101617156107a5575081810a61058b565b6107b15f1984846106e9565b805f19048211156107c4576107c46106d5565b029392505050565b5f6106ae60ff84168361072c565b8082018082111561058b5761058b6106d5565b828152604081016054831061081057634e487b7160e01b5f52602160045260245ffd5b8260208301529392505050565b5f6020828403121561082d575f5ffd5b5051919050565b612c6f806108415f395ff3fe608060405234801561000f575f5ffd5b5060043610610130575f3560e01c8062bb07bb14610134578063055ad42e1461014957806308af604d1461017357806314b19c5a1461019857806314b5d07f146101b957806325a760c2146101cc578063288157e9146101d9578063289a2f76146101e15780632b0088b41461020157806336021ef4146102185780634585e33b1461022c5780634ff0876a1461023f5780635488cd621461026457806358fac65b146102785780635dc228a01461028b5780636e04ff0d1461029e578063715018a6146102bf57806379502c55146102c75780637b103999146102da5780638da5cb5b146102ed578063a08b82d7146102f5578063c2cb5d881461030b578063ca1f32f114610313578063eeb393c91461031c578063f2fde38b1461032f575b5f5ffd5b610147610142366004612421565b610342565b005b60135461015d90600160201b900460ff1681565b60405161016a919061247c565b60405180910390f35b6013546101869062010000900460ff1681565b60405160ff909116815260200161016a565b6013546101a69061ffff1681565b60405161ffff909116815260200161016a565b6101476101c73660046124a3565b61043c565b6007546101869060ff1681565b610147610545565b6101f46101ef3660046124be565b61083a565b60405161016a91906124d5565b61020a60065481565b60405190815260200161016a565b601354610186906301000000900460ff1681565b61014761023a3660046124e9565b610862565b60115461024f9063ffffffff1681565b60405163ffffffff909116815260200161016a565b60135461018690600160281b900460ff1681565b6101f46102863660046124be565b610b5b565b6002546101f4906001600160a01b031681565b6102b16102ac3660046124e9565b610b6a565b60405161016a929190612555565b610147610d89565b6003546101f4906001600160a01b031681565b6004546101f4906001600160a01b031681565b6101f4610d9c565b6102fd610daa565b60405161016a929190612593565b6102fd610fe2565b61020a60055481565b61014761032a36600461262d565b611211565b61014761033d3660046124a3565b6112ec565b61034a611332565b60ff8216158061035b575060ff8116155b15610379576040516317dbc4cb60e21b815260040160405180910390fd5b60035f9054906101000a90046001600160a01b03166001600160a01b031663edcf9c1f6040518163ffffffff1660e01b8152600401602060405180830381865afa1580156103c9573d5f5f3e3d5ffd5b505050506040513d601f19601f820116820180604052508101906103ed9190612648565b61040a576040516312aecd8160e01b815260040160405180910390fd5b6013805463ffff000019166201000060ff9485160263ff00000019161763010000009290931691909102919091179055565b610444611332565b6001600160a01b03811661046b5760405163d92e233d60e01b815260040160405180910390fd5b60035f9054906101000a90046001600160a01b03166001600160a01b031663edcf9c1f6040518163ffffffff1660e01b8152600401602060405180830381865afa1580156104bb573d5f5f3e3d5ffd5b505050506040513d601f19601f820116820180604052508101906104df9190612648565b6104fc576040516312aecd8160e01b815260040160405180910390fd5b600280546001600160a01b0319166001600160a01b0383169081179091556040517f6cc7ebdb6c8c53291c5ae16148cab9b049d23bf5bde5632900b40edff56fcb43905f90a250565b61054d611332565b60035f9054906101000a90046001600160a01b03166001600160a01b031663edcf9c1f6040518163ffffffff1660e01b8152600401602060405180830381865afa15801561059d573d5f5f3e3d5ffd5b505050506040513d601f19601f820116820180604052508101906105c19190612648565b6105de576040516312aecd8160e01b815260040160405180910390fd5b60035f9054906101000a90046001600160a01b03166001600160a01b031663015df9936040518163ffffffff1660e01b8152600401602060405180830381865afa15801561062e573d5f5f3e3d5ffd5b505050506040513d601f19601f820116820180604052508101906106529190612667565b600480546001600160a01b0319166001600160a01b039283161781556003546040805163d1717c7d60e01b81529051919093169263d1717c7d92818101926020929091908290030181865afa1580156106ad573d5f5f3e3d5ffd5b505050506040513d601f19601f820116820180604052508101906106d19190612682565b6106dc90600a612794565b60065560035460408051631c56369f60e21b815290516001600160a01b0390921691637158da7c916004808201926020929091908290030181865afa158015610727573d5f5f3e3d5ffd5b505050506040513d601f19601f8201168201806040525081019061074b9190612667565b6001600160a01b031663313ce5676040518163ffffffff1660e01b8152600401602060405180830381865afa158015610786573d5f5f3e3d5ffd5b505050506040513d601f19601f820116820180604052508101906107aa9190612682565b6007805460ff191660ff929092169190911790556003546040805163567ba71360e01b815290516001600160a01b039092169163567ba713916004808201926020929091908290030181865afa158015610806573d5f5f3e3d5ffd5b505050506040513d601f19601f8201168201806040525081019061082a9190612682565b61083590600a612794565b600555565b60168181548110610849575f80fd5b5f918252602090912001546001600160a01b0316905081565b6002546001600160a01b0316331461088d5760405163ea8e4eb560e01b815260040160405180910390fd5b610895611364565b60048110156108b7576040516317dbc4cb60e21b815260040160405180910390fd5b5f6108c560048284866127a2565b6108ce916127c9565b90506341659aab60e01b6001600160e01b0319821601610a1d576108f061138e565b6108f86113bf565b600354604051631da09e4360e31b81526001600160a01b039091169063ed04f21890610928905f90600401612801565b5f60405180830381865afa158015610942573d5f5f3e3d5ffd5b505050506040513d5f823e601f3d908101601f1916820160405261096991908101906128ee565b805161097d91601591602090910190612385565b50600354604051631da09e4360e31b81526001600160a01b039091169063ed04f218906109af90600190600401612801565b5f60405180830381865afa1580156109c9573d5f5f3e3d5ffd5b505050506040513d5f823e601f3d908101601f191682016040526109f091908101906128ee565b8051610a0491601691602090910190612385565b506013805460ff60201b1916600160201b179055610b4d565b63019918a560e51b6001600160e01b0319821601610a61575f610a4383600481876127a2565b810190610a509190612927565b9050610a5b816114e3565b50610b4d565b6314897e2360e11b6001600160e01b0319821601610a9f575f610a8783600481876127a2565b810190610a949190612927565b9050610a5b81611c09565b6350c9887560e01b6001600160e01b0319821601610b3457610abf611fb9565b6013805460ff60201b198116825561ffff16905f610adc83612942565b82546101009290920a61ffff818102199093169183160217909155601354604051911681527f0bc12479581640d161e016cef21aa834cb6d6326bbc0d8445e58d56403adf2dc915060200160405180910390a1610b4d565b6040516317dbc4cb60e21b815260040160405180910390fd5b50610b5760018055565b5050565b60158181548110610849575f80fd5b5f606060035f9054906101000a90046001600160a01b03166001600160a01b031663edcf9c1f6040518163ffffffff1660e01b8152600401602060405180830381865afa158015610bbd573d5f5f3e3d5ffd5b505050506040513d601f19601f82011682018060405250810190610be19190612648565b8015610bef57506012544210155b15610c3f57600191507fbe9a655586dceb82dfa0af992b5d8ae7fa45053cb7fd6f141f541da7572978c7604051602001610c299190612962565b6040516020818303038152906040529050610d82565b6001601354600160201b900460ff166003811115610c5f57610c5f612458565b03610caa57600191507fccdceb60d34ec82e2b625c80d044e07bc5264e5a5f17ab57ea62c77ee8c3d797601360059054906101000a900460ff16604051602001610c29929190612977565b6002601354600160201b900460ff166003811115610cca57610cca612458565b03610d1557600191507fd6ed03ba70bef77e7dcdbaa2d7d9bcd9a4dd463c2c6bcd5b016869e952bdaddb601360059054906101000a900460ff16604051602001610c29929190612977565b6003601354600160201b900460ff166003811115610d3557610d35612458565b03610d6f57600191507faf36778b2d01c6b9ccbf0ff82e33823de0a4811632929c60c03041666deffc9b604051602001610c299190612962565b505060408051602081019091525f808252905b9250929050565b610d91611332565b610d9a5f61211d565b565b5f546001600160a01b031690565b600d80546040805160208084028201810190925282815260609384935f93830182828015610dff57602002820191905f5260205f20905b81546001600160a01b03168152600190910190602001808311610de1575b505083519394505f9250829150505b8261ffff168161ffff161015610e7f575f60086004015f868461ffff1681518110610e3b57610e3b61299e565b60200260200101516001600160a01b03166001600160a01b031681526020019081526020015f20541115610e775781610e7381612942565b9250505b600101610e0e565b508061ffff166001600160401b03811115610e9c57610e9c612815565b604051908082528060200260200182016040528015610ec5578160200160208202803683370190505b5094508061ffff166001600160401b03811115610ee457610ee4612815565b604051908082528060200260200182016040528015610f0d578160200160208202803683370190505b5093505f805b8361ffff168161ffff161015610fd9575f858261ffff1681518110610f3a57610f3a61299e565b6020908102919091018101516001600160a01b0381165f908152600c9092526040909120549091508015610fcf5781898561ffff1681518110610f7f57610f7f61299e565b60200260200101906001600160a01b031690816001600160a01b03168152505080888561ffff1681518110610fb657610fb661299e565b602090810291909101015283610fcb81612942565b9450505b5050600101610f13565b50505050509091565b600d80546040805160208084028201810190925282815260609384935f9383018282801561103757602002820191905f5260205f20905b81546001600160a01b03168152600190910190602001808311611019575b505083519394505f9250829150505b8261ffff168161ffff1610156110b7575f60086003015f868461ffff16815181106110735761107361299e565b60200260200101516001600160a01b03166001600160a01b031681526020019081526020015f205411156110af57816110ab81612942565b9250505b600101611046565b508061ffff166001600160401b038111156110d4576110d4612815565b6040519080825280602002602001820160405280156110fd578160200160208202803683370190505b5094508061ffff166001600160401b0381111561111c5761111c612815565b604051908082528060200260200182016040528015611145578160200160208202803683370190505b5093505f805b8361ffff168161ffff161015610fd9575f858261ffff16815181106111725761117261299e565b6020908102919091018101516001600160a01b0381165f908152600b90925260409091205490915080156112075781898561ffff16815181106111b7576111b761299e565b60200260200101906001600160a01b031690816001600160a01b03168152505080888561ffff16815181106111ee576111ee61299e565b60209081029190910101528361120381612942565b9450505b505060010161114b565b611219611332565b8063ffffffff165f0361123f576040516317dbc4cb60e21b815260040160405180910390fd5b60035f9054906101000a90046001600160a01b03166001600160a01b031663edcf9c1f6040518163ffffffff1660e01b8152600401602060405180830381865afa15801561128f573d5f5f3e3d5ffd5b505050506040513d601f19601f820116820180604052508101906112b39190612648565b6112d0576040516312aecd8160e01b815260040160405180910390fd5b6011805463ffffffff191663ffffffff92909216919091179055565b6112f4611332565b6001600160a01b038116611326575f604051631e4fbdf760e01b815260040161131d91906124d5565b60405180910390fd5b61132f8161211d565b50565b3361133b610d9c565b6001600160a01b031614610d9a573360405163118cdaa760e01b815260040161131d91906124d5565b60026001540361138757604051633ee5aeb560e01b815260040160405180910390fd5b6002600155565b6012544210156113b15760405163085de62560e01b815260040160405180910390fd5b6113ba4261216c565b601255565b5f600860050180548060200260200160405190810160405280929190818152602001828054801561141757602002820191905f5260205f20905b81546001600160a01b031681526001909101906020018083116113f9575b505083519394505f925050505b8161ffff168161ffff1610156114c1575f838261ffff168151811061144b5761144b61299e565b6020908102919091018101516001600160a01b03165f90815260088252604080822082905560098352808220829055600a8352808220829055600b8352808220829055600c8352808220829055600e8352808220805460ff19908116909155600f90935290208054909116905550600101611424565b506114cd600d5f6123e8565b6114d860155f6123e8565b610b5760165f6123e8565b60138054600160281b900460ff169060056114fd836129b2565b91906101000a81548160ff021916908360ff160217905550505f601360029054906101000a900460ff168261153291906129c7565b60135460ff91821692505f9161154f9162010000900416836129e3565b60155490915061ffff8216111561157957506015546013805461ffff60201b1916600160211b1790555b815b8161ffff168161ffff161015611c03575f60158261ffff16815481106115a3576115a361299e565b905f5260205f20015f9054906101000a90046001600160a01b031690505f5f826001600160a01b031663d3d034586040518163ffffffff1660e01b81526004015f60405180830381865afa1580156115fd573d5f5f3e3d5ffd5b505050506040513d5f823e601f3d908101601f1916820160405261162491908101906129fd565b90925090505f805b83518161ffff16101561190d575f848261ffff16815181106116505761165061299e565b6020908102919091018101516001600160a01b0381165f908152600f909252604082205490925060ff16900361170a57806001600160a01b031663313ce5676040518163ffffffff1660e01b8152600401602060405180830381865afa1580156116bc573d5f5f3e3d5ffd5b505050506040513d601f19601f820116820180604052508101906116e09190612682565b6001600160a01b0382165f908152600f60205260409020805460ff191660ff929092169190911790555b6001600160a01b0381165f908152600f6020908152604080832054600890925282205460ff9091169181900361186a5760035f9054906101000a90046001600160a01b03166001600160a01b0316637158da7c6040518163ffffffff1660e01b8152600401602060405180830381865afa15801561178a573d5f5f3e3d5ffd5b505050506040513d601f19601f820116820180604052508101906117ae9190612667565b6001600160a01b0316836001600160a01b0316036117de576007546117d79060ff16600a612794565b905061184f565b600480546040516341976e0960e01b81526001600160a01b03909116916341976e099161180d918791016124d5565b602060405180830381865afa158015611828573d5f5f3e3d5ffd5b505050506040513d601f19601f8201168201806040525081019061184c9190612abb565b90505b6001600160a01b0383165f9081526008602052604090208190555b5f6118af6118a2888761ffff16815181106118875761188761299e565b6020026020010151600554856121879092919063ffffffff16565b600754859060ff16612238565b90506118bb8187612ad2565b6001600160a01b0385165f908152600960205260408120805492985083929091906118e7908490612ad2565b909155506118f69050846122a2565b50505050808061190590612942565b91505061162c565b505f846001600160a01b031663a68a5267866001600160a01b031663c37fc8a86040518163ffffffff1660e01b8152600401602060405180830381865afa15801561195a573d5f5f3e3d5ffd5b505050506040513d601f19601f8201168201806040525081019061197e9190612abb565b845f6040518463ffffffff1660e01b815260040161199e93929190612ae5565b602060405180830381865afa1580156119b9573d5f5f3e3d5ffd5b505050506040513d601f19601f820116820180604052508101906119dd9190612abb565b60405163728d42fb60e11b8152600481018490529091505f906001600160a01b0387169063e51a85f690602401602060405180830381865afa158015611a25573d5f5f3e3d5ffd5b505050506040513d601f19601f82011682018060405250810190611a499190612abb565b82876001600160a01b031663d1699c266040518163ffffffff1660e01b8152600401602060405180830381865afa158015611a86573d5f5f3e3d5ffd5b505050506040513d601f19601f82011682018060405250810190611aaa9190612abb565b611ab49086612ad2565b611abe9190612b0a565b611ac89190612b0a565b90505f5f876001600160a01b031663b6eba6536040518163ffffffff1660e01b81526004015f60405180830381865afa158015611b07573d5f5f3e3d5ffd5b505050506040513d5f823e601f3d908101601f19168201604052611b2e9190810190612b1d565b815191935091505f5b8161ffff168161ffff161015611bed575f848261ffff1681518110611b5e57611b5e61299e565b602002602001015190505f848361ffff1681518110611b7f57611b7f61299e565b602002602001015190505f611ba78263ffffffff166006548a6121879092919063ffffffff16565b6001600160a01b0384165f908152600a6020526040812080549293508392909190611bd3908490612ad2565b90915550611be29050836122a2565b505050600101611b37565b50506001909801975061157b9650505050505050565b50505050565b611c11611364565b60138054600160281b900460ff16906005611c2b836129b2565b91906101000a81548160ff021916908360ff160217905550505f601360039054906101000a900460ff1682611c6091906129c7565b60135460ff91821692505f91611c7e916301000000900416836129e3565b60165490915061ffff82161115611ca857506016546013805461ffff60201b1916600360201b1790555b815b8161ffff168161ffff161015611fad575f60168261ffff1681548110611cd257611cd261299e565b905f5260205f20015f9054906101000a90046001600160a01b031690505f5f826001600160a01b031663d3d034586040518163ffffffff1660e01b81526004015f60405180830381865afa158015611d2c573d5f5f3e3d5ffd5b505050506040513d5f823e601f3d908101601f19168201604052611d5391908101906129fd565b90925090505f5b82518161ffff161015611f9d575f838261ffff1681518110611d7e57611d7e61299e565b6020908102919091018101516001600160a01b0381165f908152600f909252604082205490925060ff169003611e3857806001600160a01b031663313ce5676040518163ffffffff1660e01b8152600401602060405180830381865afa158015611dea573d5f5f3e3d5ffd5b505050506040513d601f19601f82011682018060405250810190611e0e9190612682565b6001600160a01b0382165f908152600f60205260409020805460ff191660ff929092169190911790555b6001600160a01b0381165f9081526008602052604081205490819003611f885760035f9054906101000a90046001600160a01b03166001600160a01b0316637158da7c6040518163ffffffff1660e01b8152600401602060405180830381865afa158015611ea8573d5f5f3e3d5ffd5b505050506040513d601f19601f82011682018060405250810190611ecc9190612667565b6001600160a01b0316826001600160a01b031603611efc57600754611ef59060ff16600a612794565b9050611f6d565b600480546040516341976e0960e01b81526001600160a01b03909116916341976e0991611f2b918691016124d5565b602060405180830381865afa158015611f46573d5f5f3e3d5ffd5b505050506040513d601f19601f82011682018060405250810190611f6a9190612abb565b90505b6001600160a01b0382165f9081526008602052604090208190555b50508080611f9590612942565b915050611d5a565b505060019092019150611caa9050565b50505061132f60018055565b5f600860050180548060200260200160405190810160405280929190818152602001828054801561201157602002820191905f5260205f20905b81546001600160a01b03168152600190910190602001808311611ff3575b505083519394505f925050505b8161ffff168161ffff161015612118575f838261ffff16815181106120455761204561299e565b6020908102919091018101516001600160a01b0381165f90815260098352604080822054600a855281832054600f909552912054919350919060ff16818311156120db575f6120948385612b0a565b6001600160a01b0386165f90815260086020526040812054919250906120bb908385612327565b6001600160a01b0387165f908152600b6020526040902055506121089050565b82821115612108575f6120ee8484612b0a565b6001600160a01b0386165f908152600c6020526040902055505b50506001909201915061201e9050565b505050565b5f80546001600160a01b038381166001600160a01b0319831681178455604051919092169283917f8be0079c531659141344cd1fd0a4f28419497f9722a3daafe3b4186f6b6457e09190a35050565b6011545f906121819063ffffffff1683612ad2565b92915050565b5f5f5f6121948686612358565b91509150815f036121b8578381816121ae576121ae612bd6565b0492505050612231565b8184116121cf576121cf6003851502601118612374565b5f848688095f868103871696879004966002600389028118808a02820302808a02820302808a02820302808a02820302808a02820302808a02909103029181900381900460010185841190960395909502919093039390930492909217029150505b9392505050565b5f8260ff168260ff16111561226d576122518383612bea565b61225c90600a612794565b6122669085612c03565b9050612231565b8260ff168260ff16101561229a576122858284612bea565b61229090600a612794565b6122669085612c1a565b509192915050565b6001600160a01b0381165f908152600e602052604090205460ff1661132f57600d805460018181019092557fd7b6990105719101dabeb77144f2a3385c8033acd3af97e9423a695e81ad1eb50180546001600160a01b0384166001600160a01b031990911681179091555f908152600e60205260409020805460ff1916909117905550565b6007545f90819061233d90859060ff1685612238565b60055490915061234f90829087612187565b95945050505050565b5f805f1983850993909202808410938190039390930393915050565b634e487b715f52806020526024601cfd5b828054828255905f5260205f209081019282156123d8579160200282015b828111156123d857825182546001600160a01b0319166001600160a01b039091161782556020909201916001909101906123a3565b506123e49291506123ff565b5090565b5080545f8255905f5260205f209081019061132f91905b5b808211156123e4575f8155600101612400565b60ff8116811461132f575f5ffd5b5f5f60408385031215612432575f5ffd5b823561243d81612413565b9150602083013561244d81612413565b809150509250929050565b634e487b7160e01b5f52602160045260245ffd5b6004811061132f5761132f612458565b602081016124898361246c565b91905290565b6001600160a01b038116811461132f575f5ffd5b5f602082840312156124b3575f5ffd5b81356122318161248f565b5f602082840312156124ce575f5ffd5b5035919050565b6001600160a01b0391909116815260200190565b5f5f602083850312156124fa575f5ffd5b82356001600160401b0381111561250f575f5ffd5b8301601f8101851361251f575f5ffd5b80356001600160401b03811115612534575f5ffd5b856020828401011115612545575f5ffd5b6020919091019590945092505050565b8215158152604060208201525f82518060408401528060208501606085015e5f606082850101526060601f19601f8301168401019150509392505050565b604080825283519082018190525f9060208501906060840190835b818110156125d55783516001600160a01b03168352602093840193909201916001016125ae565b5050838103602080860191909152855180835291810192508501905f5b818110156126105782518452602093840193909201916001016125f2565b50919695505050505050565b63ffffffff8116811461132f575f5ffd5b5f6020828403121561263d575f5ffd5b81356122318161261c565b5f60208284031215612658575f5ffd5b81518015158114612231575f5ffd5b5f60208284031215612677575f5ffd5b81516122318161248f565b5f60208284031215612692575f5ffd5b815161223181612413565b634e487b7160e01b5f52601160045260245ffd5b6001815b60018411156126ec578085048111156126d0576126d061269d565b60018416156126de57908102905b60019390931c9280026126b5565b935093915050565b5f8261270257506001612181565b8161270e57505f612181565b8160018114612724576002811461272e5761274a565b6001915050612181565b60ff84111561273f5761273f61269d565b50506001821b612181565b5060208310610133831016604e8410600b841016171561276d575081810a612181565b6127795f1984846126b1565b805f190482111561278c5761278c61269d565b029392505050565b5f61223160ff8416836126f4565b5f5f858511156127b0575f5ffd5b838611156127bc575f5ffd5b5050820193919092039150565b80356001600160e01b031981169060048410156127fa576001600160e01b0319600485900360031b81901b82161691505b5092915050565b602081016002831061248957612489612458565b634e487b7160e01b5f52604160045260245ffd5b604051601f8201601f191681016001600160401b038111828210171561285157612851612815565b604052919050565b5f6001600160401b0382111561287157612871612815565b5060051b60200190565b5f82601f83011261288a575f5ffd5b815161289d61289882612859565b612829565b8082825260208201915060208360051b8601019250858311156128be575f5ffd5b602085015b838110156128e45780516128d68161248f565b8352602092830192016128c3565b5095945050505050565b5f602082840312156128fe575f5ffd5b81516001600160401b03811115612913575f5ffd5b61291f8482850161287b565b949350505050565b5f60208284031215612937575f5ffd5b813561223181612413565b5f61ffff821661ffff81036129595761295961269d565b60010192915050565b6001600160e01b031991909116815260040190565b6001600160e01b031992909216825260f81b6001600160f81b031916600482015260050190565b634e487b7160e01b5f52603260045260245ffd5b5f60ff821660ff81036129595761295961269d565b60ff81811683821602908116908181146127fa576127fa61269d565b61ffff81811683821601908111156121815761218161269d565b5f5f60408385031215612a0e575f5ffd5b82516001600160401b03811115612a23575f5ffd5b612a2f8582860161287b565b602085015190935090506001600160401b03811115612a4c575f5ffd5b8301601f81018513612a5c575f5ffd5b8051612a6a61289882612859565b8082825260208201915060208360051b850101925087831115612a8b575f5ffd5b6020840193505b82841015612aad578351825260209384019390910190612a92565b809450505050509250929050565b5f60208284031215612acb575f5ffd5b5051919050565b808201808211156121815761218161269d565b8381526020810183905260608101612afc8361246c565b826040830152949350505050565b818103818111156121815761218161269d565b5f5f60408385031215612b2e575f5ffd5b82516001600160401b03811115612b43575f5ffd5b612b4f8582860161287b565b602085015190935090506001600160401b03811115612b6c575f5ffd5b8301601f81018513612b7c575f5ffd5b8051612b8a61289882612859565b8082825260208201915060208360051b850101925087831115612bab575f5ffd5b6020840193505b82841015612aad578351612bc58161261c565b825260209384019390910190612bb2565b634e487b7160e01b5f52601260045260245ffd5b60ff82811682821603908111156121815761218161269d565b80820281158282048414176121815761218161269d565b5f82612c3457634e487b7160e01b5f52601260045260245ffd5b50049056fea264697066735822122027ab3cbd338a6236d2a55db013c11919a56fae27f3c80eb108be5bb0277250f464736f6c634300081c0033ed8d60e34876f751cc8b014c560745351147d9de11b9347c854e881b128ea600ed8d60e34876f751cc8b014c560745351147d9de11b9347c854e881b128ea601",
  "linkReferences": {},
  "deployedLinkReferences": {}
}