{
  "_format": "hh-sol-artifact-1",
  "contractName": "InternalStatesOrchestrator",
  "sourceName": "contracts/orchestrators/InternalStatesOrchestrator.sol",
  "abi": [
    {
      "inputs": [
        {
          "internalType": "address",
          "name": "initialOwner",
          "type": "address"
        },
        {
          "internalType": "address",
          "name": "config_",
          "type": "address"
        },
        {
          "internalType": "address",
          "name": "automationRegistry_",
          "type": "address"
        }
      ],
      "stateMutability": "nonpayable",
      "type": "constructor"
    },
    {
      "inputs": [],
      "name": "InvalidArguments",
      "type": "error"
    },
    {
      "inputs": [],
      "name": "NotAuthorized",
      "type": "error"
    },
    {
      "inputs": [
        {
          "internalType": "address",
          "name": "owner",
          "type": "address"
        }
      ],
      "name": "OwnableInvalidOwner",
      "type": "error"
    },
    {
      "inputs": [
        {
          "internalType": "address",
          "name": "account",
          "type": "address"
        }
      ],
      "name": "OwnableUnauthorizedAccount",
      "type": "error"
    },
    {
      "inputs": [],
      "name": "ReentrancyGuardReentrantCall",
      "type": "error"
    },
    {
      "inputs": [],
      "name": "SystemNotIdle",
      "type": "error"
    },
    {
      "inputs": [],
      "name": "TooEarly",
      "type": "error"
    },
    {
      "inputs": [],
      "name": "ZeroAddress",
      "type": "error"
    },
    {
      "anonymous": false,
      "inputs": [
        {
          "indexed": true,
          "internalType": "address",
          "name": "newAutomationRegistry",
          "type": "address"
        }
      ],
      "name": "AutomationRegistryUpdated",
      "type": "event"
    },
    {
      "anonymous": false,
      "inputs": [
        {
          "indexed": false,
          "internalType": "uint16",
          "name": "epochCounter",
          "type": "uint16"
        }
      ],
      "name": "InternalStateProcessed",
      "type": "event"
    },
    {
      "anonymous": false,
      "inputs": [
        {
          "indexed": true,
          "internalType": "address",
          "name": "previousOwner",
          "type": "address"
        },
        {
          "indexed": true,
          "internalType": "address",
          "name": "newOwner",
          "type": "address"
        }
      ],
      "name": "OwnershipTransferred",
      "type": "event"
    },
    {
      "inputs": [],
      "name": "automationRegistry",
      "outputs": [
        {
          "internalType": "address",
          "name": "",
          "type": "address"
        }
      ],
      "stateMutability": "view",
      "type": "function"
    },
    {
      "inputs": [
        {
          "internalType": "bytes",
          "name": "",
          "type": "bytes"
        }
      ],
      "name": "checkUpkeep",
      "outputs": [
        {
          "internalType": "bool",
          "name": "upkeepNeeded",
          "type": "bool"
        },
        {
          "internalType": "bytes",
          "name": "performData",
          "type": "bytes"
        }
      ],
      "stateMutability": "view",
      "type": "function"
    },
    {
      "inputs": [],
      "name": "config",
      "outputs": [
        {
          "internalType": "contract IOrionConfig",
          "name": "",
          "type": "address"
        }
      ],
      "stateMutability": "view",
      "type": "function"
    },
    {
      "inputs": [],
      "name": "currentMinibatchIndex",
      "outputs": [
        {
          "internalType": "uint8",
          "name": "",
          "type": "uint8"
        }
      ],
      "stateMutability": "view",
      "type": "function"
    },
    {
      "inputs": [],
      "name": "currentPhase",
      "outputs": [
        {
          "internalType": "enum IInternalStateOrchestrator.InternalUpkeepPhase",
          "name": "",
          "type": "uint8"
        }
      ],
      "stateMutability": "view",
      "type": "function"
    },
    {
      "inputs": [],
      "name": "encryptedMinibatchSize",
      "outputs": [
        {
          "internalType": "uint8",
          "name": "",
          "type": "uint8"
        }
      ],
      "stateMutability": "view",
      "type": "function"
    },
    {
      "inputs": [
        {
          "internalType": "uint256",
          "name": "",
          "type": "uint256"
        }
      ],
      "name": "encryptedVaultsEpoch",
      "outputs": [
        {
          "internalType": "address",
          "name": "",
          "type": "address"
        }
      ],
      "stateMutability": "view",
      "type": "function"
    },
    {
      "inputs": [],
      "name": "epochCounter",
      "outputs": [
        {
          "internalType": "uint16",
          "name": "",
          "type": "uint16"
        }
      ],
      "stateMutability": "view",
      "type": "function"
    },
    {
      "inputs": [],
      "name": "getBuyingOrders",
      "outputs": [
        {
          "internalType": "address[]",
          "name": "tokens",
          "type": "address[]"
        },
        {
          "internalType": "uint256[]",
          "name": "amounts",
          "type": "uint256[]"
        }
      ],
      "stateMutability": "view",
      "type": "function"
    },
    {
      "inputs": [],
      "name": "getSellingOrders",
      "outputs": [
        {
          "internalType": "address[]",
          "name": "tokens",
          "type": "address[]"
        },
        {
          "internalType": "uint256[]",
          "name": "amounts",
          "type": "uint256[]"
        }
      ],
      "stateMutability": "view",
      "type": "function"
    },
    {
      "inputs": [],
      "name": "intentFactor",
      "outputs": [
        {
          "internalType": "uint256",
          "name": "",
          "type": "uint256"
        }
      ],
      "stateMutability": "view",
      "type": "function"
    },
    {
      "inputs": [],
      "name": "owner",
      "outputs": [
        {
          "internalType": "address",
          "name": "",
          "type": "address"
        }
      ],
      "stateMutability": "view",
      "type": "function"
    },
    {
      "inputs": [
        {
          "internalType": "bytes",
          "name": "performData",
          "type": "bytes"
        }
      ],
      "name": "performUpkeep",
      "outputs": [],
      "stateMutability": "nonpayable",
      "type": "function"
    },
    {
      "inputs": [],
      "name": "priceAdapterPrecision",
      "outputs": [
        {
          "internalType": "uint256",
          "name": "",
          "type": "uint256"
        }
      ],
      "stateMutability": "view",
      "type": "function"
    },
    {
      "inputs": [],
      "name": "registry",
      "outputs": [
        {
          "internalType": "contract IPriceAdapterRegistry",
          "name": "",
          "type": "address"
        }
      ],
      "stateMutability": "view",
      "type": "function"
    },
    {
      "inputs": [],
      "name": "renounceOwnership",
      "outputs": [],
      "stateMutability": "nonpayable",
      "type": "function"
    },
    {
      "inputs": [
        {
          "internalType": "address",
          "name": "newOwner",
          "type": "address"
        }
      ],
      "name": "transferOwnership",
      "outputs": [],
      "stateMutability": "nonpayable",
      "type": "function"
    },
    {
      "inputs": [],
      "name": "transparentMinibatchSize",
      "outputs": [
        {
          "internalType": "uint8",
          "name": "",
          "type": "uint8"
        }
      ],
      "stateMutability": "view",
      "type": "function"
    },
    {
      "inputs": [
        {
          "internalType": "uint256",
          "name": "",
          "type": "uint256"
        }
      ],
      "name": "transparentVaultsEpoch",
      "outputs": [
        {
          "internalType": "address",
          "name": "",
          "type": "address"
        }
      ],
      "stateMutability": "view",
      "type": "function"
    },
    {
      "inputs": [],
      "name": "underlyingDecimals",
      "outputs": [
        {
          "internalType": "uint8",
          "name": "",
          "type": "uint8"
        }
      ],
      "stateMutability": "view",
      "type": "function"
    },
    {
      "inputs": [
        {
          "internalType": "address",
          "name": "newAutomationRegistry",
          "type": "address"
        }
      ],
      "name": "updateAutomationRegistry",
      "outputs": [],
      "stateMutability": "nonpayable",
      "type": "function"
    },
    {
      "inputs": [],
      "name": "updateFromConfig",
      "outputs": [],
      "stateMutability": "nonpayable",
      "type": "function"
    },
    {
      "inputs": [],
      "name": "updateInterval",
      "outputs": [
        {
          "internalType": "uint32",
          "name": "",
          "type": "uint32"
        }
      ],
      "stateMutability": "view",
      "type": "function"
    },
    {
      "inputs": [
        {
          "internalType": "uint32",
          "name": "newUpdateInterval",
          "type": "uint32"
        }
      ],
      "name": "updateUpdateInterval",
      "outputs": [],
      "stateMutability": "nonpayable",
      "type": "function"
    }
  ],
  "bytecode": "0x608060405234801561000f575f5ffd5b5060405161327b38038061327b83398101604081905261002e91610510565b826001600160a01b03811661005c57604051631e4fbdf760e01b81525f600482015260240160405180910390fd5b6100658161048f565b50600180556001600160a01b0382166100915760405163d92e233d60e01b815260040160405180910390fd5b6001600160a01b0381166100b85760405163d92e233d60e01b815260040160405180910390fd5b600380546001600160a01b0319166001600160a01b0384169081179091556040805163015df99360e01b8152905163015df993916004808201926020929091908290030181865afa15801561010f573d5f5f3e3d5ffd5b505050506040513d601f19601f82011682018060405250810190610133919061055a565b600480546001600160a01b0319166001600160a01b039283161781556003546040805163d1717c7d60e01b81529051919093169263d1717c7d92818101926020929091908290030181865afa15801561018e573d5f5f3e3d5ffd5b505050506040513d601f19601f820116820180604052508101906101b2919061057c565b6101bd90600a610693565b60065560035460408051631c56369f60e21b815290516001600160a01b0390921691637158da7c916004808201926020929091908290030181865afa158015610208573d5f5f3e3d5ffd5b505050506040513d601f19601f8201168201806040525081019061022c919061055a565b6001600160a01b031663313ce5676040518163ffffffff1660e01b8152600401602060405180830381865afa158015610267573d5f5f3e3d5ffd5b505050506040513d601f19601f8201168201806040525081019061028b919061057c565b6007805460ff191660ff929092169190911790556003546040805163567ba71360e01b815290516001600160a01b039092169163567ba713916004808201926020929091908290030181865afa1580156102e7573d5f5f3e3d5ffd5b505050506040513d601f19601f8201168201806040525081019061030b919061057c565b61031690600a610693565b600555600354604080516308af604d60e01b815290516001600160a01b03909216916308af604d916004808201926020929091908290030181865afa158015610361573d5f5f3e3d5ffd5b505050506040513d601f19601f82011682018060405250810190610385919061057c565b601360046101000a81548160ff021916908360ff16021790555060035f9054906101000a90046001600160a01b03166001600160a01b03166336021ef46040518163ffffffff1660e01b8152600401602060405180830381865afa1580156103ef573d5f5f3e3d5ffd5b505050506040513d601f19601f82011682018060405250810190610413919061057c565b60138054600280546001600160a01b0386166001600160a01b031990911617905563ffffffff1960ff9390931665010000000000029290921665ff00ffffffff19909216919091176201518017905561046b426104de565b6012555050601380546011805461ffff1916905561ffff60301b19169055506106b4565b5f80546001600160a01b038381166001600160a01b0319831681178455604051919092169283917f8be0079c531659141344cd1fd0a4f28419497f9722a3daafe3b4186f6b6457e09190a35050565b6013545f906104f39063ffffffff16836106a1565b92915050565b6001600160a01b038116811461050d575f5ffd5b50565b5f5f5f60608486031215610522575f5ffd5b835161052d816104f9565b602085015190935061053e816104f9565b604085015190925061054f816104f9565b809150509250925092565b5f6020828403121561056a575f5ffd5b8151610575816104f9565b9392505050565b5f6020828403121561058c575f5ffd5b815160ff81168114610575575f5ffd5b634e487b7160e01b5f52601160045260245ffd5b6001815b60018411156105eb578085048111156105cf576105cf61059c565b60018416156105dd57908102905b60019390931c9280026105b4565b935093915050565b5f82610601575060016104f3565b8161060d57505f6104f3565b8160018114610623576002811461062d57610649565b60019150506104f3565b60ff84111561063e5761063e61059c565b50506001821b6104f3565b5060208310610133831016604e8410600b841016171561066c575081810a6104f3565b6106785f1984846105b0565b805f190482111561068b5761068b61059c565b029392505050565b5f61057560ff8416836105f3565b808201808211156104f3576104f361059c565b612bba806106c15f395ff3fe608060405234801561000f575f5ffd5b5060043610610126575f3560e01c8063055ad42e1461012a57806308af604d1461015457806314b19c5a1461017a57806314b5d07f1461019b57806325a760c2146101b0578063288157e9146101bd578063289a2f76146101c55780632b0088b4146101e557806336021ef4146101fc5780634585e33b146102105780635488cd621461022357806358fac65b146102375780635dc228a01461024a5780636e04ff0d1461025d578063715018a61461027e57806379502c55146102865780637b103999146102995780638da5cb5b146102ac578063a08b82d7146102b4578063bf6a5572146102ca578063c2cb5d88146102dd578063ca1f32f1146102e5578063f2fde38b146102ee578063fd2c80ae14610301575b5f5ffd5b60135461013e90600160301b900460ff1681565b60405161014b91906123b1565b60405180910390f35b60135461016890600160201b900460ff1681565b60405160ff909116815260200161014b565b6011546101889061ffff1681565b60405161ffff909116815260200161014b565b6101ae6101a93660046123d8565b610326565b005b6007546101689060ff1681565b6101ae61042f565b6101d86101d33660046123f3565b610838565b60405161014b919061240a565b6101ee60065481565b60405190815260200161014b565b60135461016890600160281b900460ff1681565b6101ae61021e36600461241e565b610860565b60135461016890600160381b900460ff1681565b6101d86102453660046123f3565b610b5c565b6002546101d8906001600160a01b031681565b61027061026b36600461241e565b610b6b565b60405161014b92919061248a565b6101ae610d8a565b6003546101d8906001600160a01b031681565b6004546101d8906001600160a01b031681565b6101d8610d9d565b6102bc610dab565b60405161014b9291906124c8565b6101ae6102d8366004612562565b610fe3565b6102bc6110be565b6101ee60055481565b6101ae6102fc3660046123d8565b6112ed565b6013546103119063ffffffff1681565b60405163ffffffff909116815260200161014b565b61032e611333565b6001600160a01b0381166103555760405163d92e233d60e01b815260040160405180910390fd5b60035f9054906101000a90046001600160a01b03166001600160a01b031663edcf9c1f6040518163ffffffff1660e01b8152600401602060405180830381865afa1580156103a5573d5f5f3e3d5ffd5b505050506040513d601f19601f820116820180604052508101906103c9919061257d565b6103e6576040516312aecd8160e01b815260040160405180910390fd5b600280546001600160a01b0319166001600160a01b0383169081179091556040517f6cc7ebdb6c8c53291c5ae16148cab9b049d23bf5bde5632900b40edff56fcb43905f90a250565b610437611333565b60035f9054906101000a90046001600160a01b03166001600160a01b031663edcf9c1f6040518163ffffffff1660e01b8152600401602060405180830381865afa158015610487573d5f5f3e3d5ffd5b505050506040513d601f19601f820116820180604052508101906104ab919061257d565b6104c8576040516312aecd8160e01b815260040160405180910390fd5b60035f9054906101000a90046001600160a01b03166001600160a01b031663015df9936040518163ffffffff1660e01b8152600401602060405180830381865afa158015610518573d5f5f3e3d5ffd5b505050506040513d601f19601f8201168201806040525081019061053c919061259c565b600480546001600160a01b0319166001600160a01b039283161781556003546040805163d1717c7d60e01b81529051919093169263d1717c7d92818101926020929091908290030181865afa158015610597573d5f5f3e3d5ffd5b505050506040513d601f19601f820116820180604052508101906105bb91906125c5565b6105c690600a6126d7565b60065560035460408051631c56369f60e21b815290516001600160a01b0390921691637158da7c916004808201926020929091908290030181865afa158015610611573d5f5f3e3d5ffd5b505050506040513d601f19601f82011682018060405250810190610635919061259c565b6001600160a01b031663313ce5676040518163ffffffff1660e01b8152600401602060405180830381865afa158015610670573d5f5f3e3d5ffd5b505050506040513d601f19601f8201168201806040525081019061069491906125c5565b6007805460ff191660ff929092169190911790556003546040805163567ba71360e01b815290516001600160a01b039092169163567ba713916004808201926020929091908290030181865afa1580156106f0573d5f5f3e3d5ffd5b505050506040513d601f19601f8201168201806040525081019061071491906125c5565b61071f90600a6126d7565b600555600354604080516308af604d60e01b815290516001600160a01b03909216916308af604d916004808201926020929091908290030181865afa15801561076a573d5f5f3e3d5ffd5b505050506040513d601f19601f8201168201806040525081019061078e91906125c5565b601360046101000a81548160ff021916908360ff16021790555060035f9054906101000a90046001600160a01b03166001600160a01b03166336021ef46040518163ffffffff1660e01b8152600401602060405180830381865afa1580156107f8573d5f5f3e3d5ffd5b505050506040513d601f19601f8201168201806040525081019061081c91906125c5565b601360056101000a81548160ff021916908360ff160217905550565b60158181548110610847575f80fd5b5f918252602090912001546001600160a01b0316905081565b6002546001600160a01b0316331461088b5760405163ea8e4eb560e01b815260040160405180910390fd5b610893611365565b60048110156108b5576040516317dbc4cb60e21b815260040160405180910390fd5b5f6108c360048284866126e5565b6108cc9161270c565b90506341659aab60e01b6001600160e01b0319821601610a1b576108ee61138f565b6108f66113c0565b600354604051631da09e4360e31b81526001600160a01b039091169063ed04f21890610926905f90600401612744565b5f60405180830381865afa158015610940573d5f5f3e3d5ffd5b505050506040513d5f823e601f3d908101601f191682016040526109679190810190612831565b805161097b916014916020909101906122ff565b50600354604051631da09e4360e31b81526001600160a01b039091169063ed04f218906109ad90600190600401612744565b5f60405180830381865afa1580156109c7573d5f5f3e3d5ffd5b505050506040513d5f823e601f3d908101601f191682016040526109ee9190810190612831565b8051610a02916015916020909101906122ff565b506013805460ff60301b1916600160301b179055610b4e565b63019918a560e51b6001600160e01b0319821601610a5f575f610a4183600481876126e5565b810190610a4e9190612862565b9050610a59816114e4565b50610b4e565b6314897e2360e11b6001600160e01b0319821601610a9d575f610a8583600481876126e5565b810190610a929190612862565b9050610a5981611ad9565b6350c9887560e01b6001600160e01b0319821601610b3557610abd611e33565b6013805460ff60301b191690556011805461ffff16905f610add8361287d565b82546101009290920a61ffff818102199093169183160217909155601154604051911681527f0bc12479581640d161e016cef21aa834cb6d6326bbc0d8445e58d56403adf2dc915060200160405180910390a1610b4e565b6040516317dbc4cb60e21b815260040160405180910390fd5b50610b5860018055565b5050565b60148181548110610847575f80fd5b5f606060035f9054906101000a90046001600160a01b03166001600160a01b031663edcf9c1f6040518163ffffffff1660e01b8152600401602060405180830381865afa158015610bbe573d5f5f3e3d5ffd5b505050506040513d601f19601f82011682018060405250810190610be2919061257d565b8015610bf057506012544210155b15610c4057600191507fbe9a655586dceb82dfa0af992b5d8ae7fa45053cb7fd6f141f541da7572978c7604051602001610c2a919061289d565b6040516020818303038152906040529050610d83565b6001601354600160301b900460ff166003811115610c6057610c6061238d565b03610cab57600191507fccdceb60d34ec82e2b625c80d044e07bc5264e5a5f17ab57ea62c77ee8c3d797601360079054906101000a900460ff16604051602001610c2a9291906128b2565b6002601354600160301b900460ff166003811115610ccb57610ccb61238d565b03610d1657600191507fd6ed03ba70bef77e7dcdbaa2d7d9bcd9a4dd463c2c6bcd5b016869e952bdaddb601360079054906101000a900460ff16604051602001610c2a9291906128b2565b6003601354600160301b900460ff166003811115610d3657610d3661238d565b03610d7057600191507faf36778b2d01c6b9ccbf0ff82e33823de0a4811632929c60c03041666deffc9b604051602001610c2a919061289d565b505060408051602081019091525f808252905b9250929050565b610d92611333565b610d9b5f611f97565b565b5f546001600160a01b031690565b600d80546040805160208084028201810190925282815260609384935f93830182828015610e0057602002820191905f5260205f20905b81546001600160a01b03168152600190910190602001808311610de2575b505083519394505f9250829150505b8261ffff168161ffff161015610e80575f60086004015f868461ffff1681518110610e3c57610e3c6128d9565b60200260200101516001600160a01b03166001600160a01b031681526020019081526020015f20541115610e785781610e748161287d565b9250505b600101610e0f565b508061ffff166001600160401b03811115610e9d57610e9d612758565b604051908082528060200260200182016040528015610ec6578160200160208202803683370190505b5094508061ffff166001600160401b03811115610ee557610ee5612758565b604051908082528060200260200182016040528015610f0e578160200160208202803683370190505b5093505f805b8361ffff168161ffff161015610fda575f858261ffff1681518110610f3b57610f3b6128d9565b6020908102919091018101516001600160a01b0381165f908152600c9092526040909120549091508015610fd05781898561ffff1681518110610f8057610f806128d9565b60200260200101906001600160a01b031690816001600160a01b03168152505080888561ffff1681518110610fb757610fb76128d9565b602090810291909101015283610fcc8161287d565b9450505b5050600101610f14565b50505050509091565b610feb611333565b8063ffffffff165f03611011576040516317dbc4cb60e21b815260040160405180910390fd5b60035f9054906101000a90046001600160a01b03166001600160a01b031663edcf9c1f6040518163ffffffff1660e01b8152600401602060405180830381865afa158015611061573d5f5f3e3d5ffd5b505050506040513d601f19601f82011682018060405250810190611085919061257d565b6110a2576040516312aecd8160e01b815260040160405180910390fd5b6013805463ffffffff191663ffffffff92909216919091179055565b600d80546040805160208084028201810190925282815260609384935f9383018282801561111357602002820191905f5260205f20905b81546001600160a01b031681526001909101906020018083116110f5575b505083519394505f9250829150505b8261ffff168161ffff161015611193575f60086003015f868461ffff168151811061114f5761114f6128d9565b60200260200101516001600160a01b03166001600160a01b031681526020019081526020015f2054111561118b57816111878161287d565b9250505b600101611122565b508061ffff166001600160401b038111156111b0576111b0612758565b6040519080825280602002602001820160405280156111d9578160200160208202803683370190505b5094508061ffff166001600160401b038111156111f8576111f8612758565b604051908082528060200260200182016040528015611221578160200160208202803683370190505b5093505f805b8361ffff168161ffff161015610fda575f858261ffff168151811061124e5761124e6128d9565b6020908102919091018101516001600160a01b0381165f908152600b90925260409091205490915080156112e35781898561ffff1681518110611293576112936128d9565b60200260200101906001600160a01b031690816001600160a01b03168152505080888561ffff16815181106112ca576112ca6128d9565b6020908102919091010152836112df8161287d565b9450505b5050600101611227565b6112f5611333565b6001600160a01b038116611327575f604051631e4fbdf760e01b815260040161131e919061240a565b60405180910390fd5b61133081611f97565b50565b3361133c610d9d565b6001600160a01b031614610d9b573360405163118cdaa760e01b815260040161131e919061240a565b60026001540361138857604051633ee5aeb560e01b815260040160405180910390fd5b6002600155565b6012544210156113b25760405163085de62560e01b815260040160405180910390fd5b6113bb42611fe6565b601255565b5f600860050180548060200260200160405190810160405280929190818152602001828054801561141857602002820191905f5260205f20905b81546001600160a01b031681526001909101906020018083116113fa575b505083519394505f925050505b8161ffff168161ffff1610156114c2575f838261ffff168151811061144c5761144c6128d9565b6020908102919091018101516001600160a01b03165f90815260088252604080822082905560098352808220829055600a8352808220829055600b8352808220829055600c8352808220829055600e8352808220805460ff19908116909155600f90935290208054909116905550600101611425565b506114ce600d5f612362565b6114d960145f612362565b610b5860155f612362565b60138054600160381b900460ff169060076114fe836128ed565b91906101000a81548160ff021916908360ff160217905550505f601360049054906101000a900460ff16826115339190612902565b60135460ff91821692505f9161155191600160201b9004168361291e565b60145490915061ffff8216111561157b57506014546013805461ffff60301b1916600160311b1790555b815b8161ffff168161ffff161015611ad3575f60148261ffff16815481106115a5576115a56128d9565b905f5260205f20015f9054906101000a90046001600160a01b031690505f5f826001600160a01b031663d3d034586040518163ffffffff1660e01b81526004015f60405180830381865afa1580156115ff573d5f5f3e3d5ffd5b505050506040513d5f823e601f3d908101601f191682016040526116269190810190612938565b90925090505f805b83518161ffff16101561184e575f848261ffff1681518110611652576116526128d9565b6020908102919091018101516001600160a01b0381165f908152600f909252604082205490925060ff16900361170c57806001600160a01b031663313ce5676040518163ffffffff1660e01b8152600401602060405180830381865afa1580156116be573d5f5f3e3d5ffd5b505050506040513d601f19601f820116820180604052508101906116e291906125c5565b6001600160a01b0382165f908152600f60205260409020805460ff191660ff929092169190911790555b6001600160a01b0381165f908152600f6020908152604080832054600890925282205460ff909116918190036117c757600480546040516341976e0960e01b81526001600160a01b03909116916341976e099161176b9187910161240a565b602060405180830381865afa158015611786573d5f5f3e3d5ffd5b505050506040513d601f19601f820116820180604052508101906117aa91906129f6565b6001600160a01b0384165f90815260086020526040902081905590505b5f6117f082888761ffff16815181106117e2576117e26128d9565b602002602001015185612001565b90506117fc8187612a0d565b6001600160a01b0385165f90815260096020526040812080549298508392909190611828908490612a0d565b9091555061183790508461203f565b5050505080806118469061287d565b91505061162e565b505f846001600160a01b031663a68a5267866001600160a01b031663c37fc8a86040518163ffffffff1660e01b8152600401602060405180830381865afa15801561189b573d5f5f3e3d5ffd5b505050506040513d601f19601f820116820180604052508101906118bf91906129f6565b845f6040518463ffffffff1660e01b81526004016118df93929190612a20565b602060405180830381865afa1580156118fa573d5f5f3e3d5ffd5b505050506040513d601f19601f8201168201806040525081019061191e91906129f6565b90505f81866001600160a01b031663d1699c266040518163ffffffff1660e01b8152600401602060405180830381865afa15801561195e573d5f5f3e3d5ffd5b505050506040513d601f19601f8201168201806040525081019061198291906129f6565b61198c9085612a0d565b6119969190612a45565b90505f5f876001600160a01b031663b6eba6536040518163ffffffff1660e01b81526004015f60405180830381865afa1580156119d5573d5f5f3e3d5ffd5b505050506040513d5f823e601f3d908101601f191682016040526119fc9190810190612a58565b815191935091505f5b8161ffff168161ffff161015611abd575f848261ffff1681518110611a2c57611a2c6128d9565b602002602001015190505f848361ffff1681518110611a4d57611a4d6128d9565b602002602001015190505f6006548263ffffffff1689611a6d9190612b11565b611a779190612b28565b6001600160a01b0384165f908152600a6020526040812080549293508392909190611aa3908490612a0d565b90915550611ab290508361203f565b505050600101611a05565b50506001909801975061157d9650505050505050565b50505050565b611ae1611365565b60138054600160381b900460ff16906007611afb836128ed565b91906101000a81548160ff021916908360ff160217905550505f601360059054906101000a900460ff1682611b309190612902565b60135460ff91821692505f91611b4e91600160281b9004168361291e565b60155490915061ffff82161115611b7857506015546013805461ffff60301b1916600360301b1790555b815b8161ffff168161ffff161015611e27575f60158261ffff1681548110611ba257611ba26128d9565b905f5260205f20015f9054906101000a90046001600160a01b031690505f5f826001600160a01b031663d3d034586040518163ffffffff1660e01b81526004015f60405180830381865afa158015611bfc573d5f5f3e3d5ffd5b505050506040513d5f823e601f3d908101601f19168201604052611c239190810190612938565b915091505f611c315f6120c4565b90505f5b83518161ffff161015611e16575f848261ffff1681518110611c5957611c596128d9565b6020908102919091018101516001600160a01b0381165f908152600f909252604082205490925060ff169003611d1357806001600160a01b031663313ce5676040518163ffffffff1660e01b8152600401602060405180830381865afa158015611cc5573d5f5f3e3d5ffd5b505050506040513d601f19601f82011682018060405250810190611ce991906125c5565b6001600160a01b0382165f908152600f60205260409020805460ff191660ff929092169190911790555b6001600160a01b0381165f908152600f6020908152604080832054600890925282205460ff90911691819003611dce57600480546040516341976e0960e01b81526001600160a01b03909116916341976e0991611d729187910161240a565b602060405180830381865afa158015611d8d573d5f5f3e3d5ffd5b505050506040513d601f19601f82011682018060405250810190611db191906129f6565b6001600160a01b0384165f90815260086020526040902081905590505b5f611df182888761ffff1681518110611de957611de96128d9565b505f92915050565b9050611dfd86826120d6565b9550505050508080611e0e9061287d565b915050611c35565b505060019093019250611b7a915050565b50505061133060018055565b5f6008600501805480602002602001604051908101604052809291908181526020018280548015611e8b57602002820191905f5260205f20905b81546001600160a01b03168152600190910190602001808311611e6d575b505083519394505f925050505b8161ffff168161ffff161015611f92575f838261ffff1681518110611ebf57611ebf6128d9565b6020908102919091018101516001600160a01b0381165f90815260098352604080822054600a855281832054600f909552912054919350919060ff1681831115611f55575f611f0e8385612a45565b6001600160a01b0386165f9081526008602052604081205491925090611f3590838561210b565b6001600160a01b0387165f908152600b602052604090205550611f829050565b82821115611f82575f611f688484612a45565b6001600160a01b0386165f908152600c6020526040902055505b505060019092019150611e989050565b505050565b5f80546001600160a01b038381166001600160a01b0319831681178455604051919092169283917f8be0079c531659141344cd1fd0a4f28419497f9722a3daafe3b4186f6b6457e09190a35050565b6013545f90611ffb9063ffffffff1683612a0d565b92915050565b5f8061200d8486612b11565b6007549091505f90612025908390869060ff16612145565b9050600554816120359190612b28565b9695505050505050565b6001600160a01b0381165f908152600e602052604090205460ff1661133057600d805460018181019092557fd7b6990105719101dabeb77144f2a3385c8033acd3af97e9423a695e81ad1eb50180546001600160a01b0384166001600160a01b031990911681179091555f908152600e60205260409020805460ff1916909117905550565b5f611ffb8263ffffffff1660046121af565b5f826120e8576120e55f6120c4565b92505b816120f9576120f65f6120c4565b91505b61210483835f612236565b9392505050565b6007545f90819061212190859060ff1685612145565b905084600554826121329190612b11565b61213c9190612b28565b95945050505050565b5f8260ff168260ff16111561217a5761215e8383612b47565b61216990600a6126d7565b6121739085612b11565b9050612104565b8260ff168260ff1610156121a7576121928284612b47565b61219d90600a6126d7565b6121739085612b28565b509192915050565b5f5f6121b96122db565b6001810154604051639cd07acb60e01b81529192506001600160a01b031690639cd07acb906121ee9087908790600401612b60565b6020604051808303815f875af115801561220a573d5f5f3e3d5ffd5b505050506040513d601f19601f8201168201806040525081019061222e91906129f6565b949350505050565b5f5f82156122495750600160f81b61224c565b505f5b5f6122556122db565b600181015460405163022f65e760e31b815260048101899052602481018890526001600160f81b0319851660448201529192506001600160a01b03169063117b2f38906064016020604051808303815f875af11580156122b7573d5f5f3e3d5ffd5b505050506040513d601f19601f8201168201806040525081019061203591906129f6565b7fed8d60e34876f751cc8b014c560745351147d9de11b9347c854e881b128ea60090565b828054828255905f5260205f20908101928215612352579160200282015b8281111561235257825182546001600160a01b0319166001600160a01b0390911617825560209092019160019091019061231d565b5061235e929150612379565b5090565b5080545f8255905f5260205f209081019061133091905b5b8082111561235e575f815560010161237a565b634e487b7160e01b5f52602160045260245ffd5b600481106113305761133061238d565b602081016123be836123a1565b91905290565b6001600160a01b0381168114611330575f5ffd5b5f602082840312156123e8575f5ffd5b8135612104816123c4565b5f60208284031215612403575f5ffd5b5035919050565b6001600160a01b0391909116815260200190565b5f5f6020838503121561242f575f5ffd5b82356001600160401b03811115612444575f5ffd5b8301601f81018513612454575f5ffd5b80356001600160401b03811115612469575f5ffd5b85602082840101111561247a575f5ffd5b6020919091019590945092505050565b8215158152604060208201525f82518060408401528060208501606085015e5f606082850101526060601f19601f8301168401019150509392505050565b604080825283519082018190525f9060208501906060840190835b8181101561250a5783516001600160a01b03168352602093840193909201916001016124e3565b5050838103602080860191909152855180835291810192508501905f5b81811015612545578251845260209384019390920191600101612527565b50919695505050505050565b63ffffffff81168114611330575f5ffd5b5f60208284031215612572575f5ffd5b813561210481612551565b5f6020828403121561258d575f5ffd5b81518015158114612104575f5ffd5b5f602082840312156125ac575f5ffd5b8151612104816123c4565b60ff81168114611330575f5ffd5b5f602082840312156125d5575f5ffd5b8151612104816125b7565b634e487b7160e01b5f52601160045260245ffd5b6001815b600184111561262f57808504811115612613576126136125e0565b600184161561262157908102905b60019390931c9280026125f8565b935093915050565b5f8261264557506001611ffb565b8161265157505f611ffb565b816001811461266757600281146126715761268d565b6001915050611ffb565b60ff841115612682576126826125e0565b50506001821b611ffb565b5060208310610133831016604e8410600b84101617156126b0575081810a611ffb565b6126bc5f1984846125f4565b805f19048211156126cf576126cf6125e0565b029392505050565b5f61210460ff841683612637565b5f5f858511156126f3575f5ffd5b838611156126ff575f5ffd5b5050820193919092039150565b80356001600160e01b0319811690600484101561273d576001600160e01b0319600485900360031b81901b82161691505b5092915050565b60208101600283106123be576123be61238d565b634e487b7160e01b5f52604160045260245ffd5b604051601f8201601f191681016001600160401b038111828210171561279457612794612758565b604052919050565b5f6001600160401b038211156127b4576127b4612758565b5060051b60200190565b5f82601f8301126127cd575f5ffd5b81516127e06127db8261279c565b61276c565b8082825260208201915060208360051b860101925085831115612801575f5ffd5b602085015b83811015612827578051612819816123c4565b835260209283019201612806565b5095945050505050565b5f60208284031215612841575f5ffd5b81516001600160401b03811115612856575f5ffd5b61222e848285016127be565b5f60208284031215612872575f5ffd5b8135612104816125b7565b5f61ffff821661ffff8103612894576128946125e0565b60010192915050565b6001600160e01b031991909116815260040190565b6001600160e01b031992909216825260f81b6001600160f81b031916600482015260050190565b634e487b7160e01b5f52603260045260245ffd5b5f60ff821660ff8103612894576128946125e0565b60ff818116838216029081169081811461273d5761273d6125e0565b61ffff8181168382160190811115611ffb57611ffb6125e0565b5f5f60408385031215612949575f5ffd5b82516001600160401b0381111561295e575f5ffd5b61296a858286016127be565b602085015190935090506001600160401b03811115612987575f5ffd5b8301601f81018513612997575f5ffd5b80516129a56127db8261279c565b8082825260208201915060208360051b8501019250878311156129c6575f5ffd5b6020840193505b828410156129e85783518252602093840193909101906129cd565b809450505050509250929050565b5f60208284031215612a06575f5ffd5b5051919050565b80820180821115611ffb57611ffb6125e0565b8381526020810183905260608101612a37836123a1565b826040830152949350505050565b81810381811115611ffb57611ffb6125e0565b5f5f60408385031215612a69575f5ffd5b82516001600160401b03811115612a7e575f5ffd5b612a8a858286016127be565b602085015190935090506001600160401b03811115612aa7575f5ffd5b8301601f81018513612ab7575f5ffd5b8051612ac56127db8261279c565b8082825260208201915060208360051b850101925087831115612ae6575f5ffd5b6020840193505b828410156129e8578351612b0081612551565b825260209384019390910190612aed565b8082028115828204841417611ffb57611ffb6125e0565b5f82612b4257634e487b7160e01b5f52601260045260245ffd5b500490565b60ff8281168282160390811115611ffb57611ffb6125e0565b8281526040810160548310612b7757612b7761238d565b826020830152939250505056fea264697066735822122031ab4ae14d234fa3c329029595f336f1df52833a9ffc4378665360700e0e724064736f6c634300081c0033",
  "linkReferences": {},
  "deployedLinkReferences": {}
}