{
  "_format": "hh-sol-artifact-1",
  "contractName": "InternalStatesOrchestrator",
  "sourceName": "contracts/orchestrators/InternalStatesOrchestrator.sol",
  "abi": [
    {
      "inputs": [
        {
          "internalType": "address",
          "name": "initialOwner",
          "type": "address"
        },
        {
          "internalType": "address",
          "name": "config_",
          "type": "address"
        },
        {
          "internalType": "address",
          "name": "automationRegistry_",
          "type": "address"
        }
      ],
      "stateMutability": "nonpayable",
      "type": "constructor"
    },
    {
      "inputs": [],
      "name": "InvalidArguments",
      "type": "error"
    },
    {
      "inputs": [],
      "name": "NotAuthorized",
      "type": "error"
    },
    {
      "inputs": [
        {
          "internalType": "address",
          "name": "owner",
          "type": "address"
        }
      ],
      "name": "OwnableInvalidOwner",
      "type": "error"
    },
    {
      "inputs": [
        {
          "internalType": "address",
          "name": "account",
          "type": "address"
        }
      ],
      "name": "OwnableUnauthorizedAccount",
      "type": "error"
    },
    {
      "inputs": [],
      "name": "ReentrancyGuardReentrantCall",
      "type": "error"
    },
    {
      "inputs": [],
      "name": "SystemNotIdle",
      "type": "error"
    },
    {
      "inputs": [],
      "name": "TooEarly",
      "type": "error"
    },
    {
      "inputs": [],
      "name": "ZeroAddress",
      "type": "error"
    },
    {
      "anonymous": false,
      "inputs": [
        {
          "indexed": true,
          "internalType": "address",
          "name": "newAutomationRegistry",
          "type": "address"
        }
      ],
      "name": "AutomationRegistryUpdated",
      "type": "event"
    },
    {
      "anonymous": false,
      "inputs": [
        {
          "indexed": false,
          "internalType": "uint256",
          "name": "epochCounter",
          "type": "uint256"
        }
      ],
      "name": "InternalStateProcessed",
      "type": "event"
    },
    {
      "anonymous": false,
      "inputs": [
        {
          "indexed": true,
          "internalType": "address",
          "name": "previousOwner",
          "type": "address"
        },
        {
          "indexed": true,
          "internalType": "address",
          "name": "newOwner",
          "type": "address"
        }
      ],
      "name": "OwnershipTransferred",
      "type": "event"
    },
    {
      "inputs": [],
      "name": "automationRegistry",
      "outputs": [
        {
          "internalType": "address",
          "name": "",
          "type": "address"
        }
      ],
      "stateMutability": "view",
      "type": "function"
    },
    {
      "inputs": [
        {
          "internalType": "bytes",
          "name": "",
          "type": "bytes"
        }
      ],
      "name": "checkUpkeep",
      "outputs": [
        {
          "internalType": "bool",
          "name": "upkeepNeeded",
          "type": "bool"
        },
        {
          "internalType": "bytes",
          "name": "performData",
          "type": "bytes"
        }
      ],
      "stateMutability": "view",
      "type": "function"
    },
    {
      "inputs": [],
      "name": "config",
      "outputs": [
        {
          "internalType": "contract IOrionConfig",
          "name": "",
          "type": "address"
        }
      ],
      "stateMutability": "view",
      "type": "function"
    },
    {
      "inputs": [],
      "name": "currentEncryptedMinibatchIndex",
      "outputs": [
        {
          "internalType": "uint256",
          "name": "",
          "type": "uint256"
        }
      ],
      "stateMutability": "view",
      "type": "function"
    },
    {
      "inputs": [],
      "name": "currentPhase",
      "outputs": [
        {
          "internalType": "enum IInternalStateOrchestrator.InternalUpkeepPhase",
          "name": "",
          "type": "uint8"
        }
      ],
      "stateMutability": "view",
      "type": "function"
    },
    {
      "inputs": [],
      "name": "currentTransparentVaultIndex",
      "outputs": [
        {
          "internalType": "uint256",
          "name": "",
          "type": "uint256"
        }
      ],
      "stateMutability": "view",
      "type": "function"
    },
    {
      "inputs": [],
      "name": "encryptedMinibatchSize",
      "outputs": [
        {
          "internalType": "uint256",
          "name": "",
          "type": "uint256"
        }
      ],
      "stateMutability": "view",
      "type": "function"
    },
    {
      "inputs": [
        {
          "internalType": "uint256",
          "name": "",
          "type": "uint256"
        }
      ],
      "name": "encryptedVaultsEpoch",
      "outputs": [
        {
          "internalType": "address",
          "name": "",
          "type": "address"
        }
      ],
      "stateMutability": "view",
      "type": "function"
    },
    {
      "inputs": [],
      "name": "epochCounter",
      "outputs": [
        {
          "internalType": "uint256",
          "name": "",
          "type": "uint256"
        }
      ],
      "stateMutability": "view",
      "type": "function"
    },
    {
      "inputs": [],
      "name": "getBuyingOrders",
      "outputs": [
        {
          "internalType": "address[]",
          "name": "tokens",
          "type": "address[]"
        },
        {
          "internalType": "uint256[]",
          "name": "amounts",
          "type": "uint256[]"
        }
      ],
      "stateMutability": "view",
      "type": "function"
    },
    {
      "inputs": [],
      "name": "getSellingOrders",
      "outputs": [
        {
          "internalType": "address[]",
          "name": "tokens",
          "type": "address[]"
        },
        {
          "internalType": "uint256[]",
          "name": "amounts",
          "type": "uint256[]"
        }
      ],
      "stateMutability": "view",
      "type": "function"
    },
    {
      "inputs": [],
      "name": "intentFactor",
      "outputs": [
        {
          "internalType": "uint256",
          "name": "",
          "type": "uint256"
        }
      ],
      "stateMutability": "view",
      "type": "function"
    },
    {
      "inputs": [],
      "name": "owner",
      "outputs": [
        {
          "internalType": "address",
          "name": "",
          "type": "address"
        }
      ],
      "stateMutability": "view",
      "type": "function"
    },
    {
      "inputs": [
        {
          "internalType": "bytes",
          "name": "performData",
          "type": "bytes"
        }
      ],
      "name": "performUpkeep",
      "outputs": [],
      "stateMutability": "nonpayable",
      "type": "function"
    },
    {
      "inputs": [],
      "name": "priceAdapterPrecision",
      "outputs": [
        {
          "internalType": "uint256",
          "name": "",
          "type": "uint256"
        }
      ],
      "stateMutability": "view",
      "type": "function"
    },
    {
      "inputs": [],
      "name": "registry",
      "outputs": [
        {
          "internalType": "contract IPriceAdapterRegistry",
          "name": "",
          "type": "address"
        }
      ],
      "stateMutability": "view",
      "type": "function"
    },
    {
      "inputs": [],
      "name": "renounceOwnership",
      "outputs": [],
      "stateMutability": "nonpayable",
      "type": "function"
    },
    {
      "inputs": [
        {
          "internalType": "address",
          "name": "newOwner",
          "type": "address"
        }
      ],
      "name": "transferOwnership",
      "outputs": [],
      "stateMutability": "nonpayable",
      "type": "function"
    },
    {
      "inputs": [
        {
          "internalType": "uint256",
          "name": "",
          "type": "uint256"
        }
      ],
      "name": "transparentVaultsEpoch",
      "outputs": [
        {
          "internalType": "address",
          "name": "",
          "type": "address"
        }
      ],
      "stateMutability": "view",
      "type": "function"
    },
    {
      "inputs": [],
      "name": "underlyingDecimals",
      "outputs": [
        {
          "internalType": "uint8",
          "name": "",
          "type": "uint8"
        }
      ],
      "stateMutability": "view",
      "type": "function"
    },
    {
      "inputs": [
        {
          "internalType": "address",
          "name": "newAutomationRegistry",
          "type": "address"
        }
      ],
      "name": "updateAutomationRegistry",
      "outputs": [],
      "stateMutability": "nonpayable",
      "type": "function"
    },
    {
      "inputs": [],
      "name": "updateFromConfig",
      "outputs": [],
      "stateMutability": "nonpayable",
      "type": "function"
    },
    {
      "inputs": [],
      "name": "updateInterval",
      "outputs": [
        {
          "internalType": "uint256",
          "name": "",
          "type": "uint256"
        }
      ],
      "stateMutability": "view",
      "type": "function"
    },
    {
      "inputs": [
        {
          "internalType": "uint256",
          "name": "newUpdateInterval",
          "type": "uint256"
        }
      ],
      "name": "updateUpdateInterval",
      "outputs": [],
      "stateMutability": "nonpayable",
      "type": "function"
    }
  ],
  "bytecode": "0x608060405234801561000f575f5ffd5b50604051612d42380380612d4283398101604081905261002e91610451565b826001600160a01b03811661005c57604051631e4fbdf760e01b81525f600482015260240160405180910390fd5b610065816103d6565b50600180556001600160a01b0382166100915760405163d92e233d60e01b815260040160405180910390fd5b6001600160a01b0381166100b85760405163d92e233d60e01b815260040160405180910390fd5b600380546001600160a01b0319166001600160a01b0384169081179091556040805163015df99360e01b8152905163015df993916004808201926020929091908290030181865afa15801561010f573d5f5f3e3d5ffd5b505050506040513d601f19601f82011682018060405250810190610133919061049b565b600480546001600160a01b0319166001600160a01b039283161781556003546040805163d1717c7d60e01b81529051919093169263d1717c7d92818101926020929091908290030181865afa15801561018e573d5f5f3e3d5ffd5b505050506040513d601f19601f820116820180604052508101906101b291906104bd565b6101bd90600a6105d4565b60065560035460408051631c56369f60e21b815290516001600160a01b0390921691637158da7c916004808201926020929091908290030181865afa158015610208573d5f5f3e3d5ffd5b505050506040513d601f19601f8201168201806040525081019061022c919061049b565b6001600160a01b031663313ce5676040518163ffffffff1660e01b8152600401602060405180830381865afa158015610267573d5f5f3e3d5ffd5b505050506040513d601f19601f8201168201806040525081019061028b91906104bd565b6007805460ff191660ff929092169190911790556003546040805163567ba71360e01b815290516001600160a01b039092169163567ba713916004808201926020929091908290030181865afa1580156102e7573d5f5f3e3d5ffd5b505050506040513d601f19601f8201168201806040525081019061030b91906104bd565b61031690600a6105d4565b60055560035460408051630d8087bd60e21b815290516001600160a01b03909216916336021ef4916004808201926020929091908290030181865afa158015610361573d5f5f3e3d5ffd5b505050506040513d601f19601f8201168201806040525081019061038591906105e2565b601455600280546001600160a01b0319166001600160a01b038316179055620151806013556103b342610425565b60125550506015805460ff19169055505f6011819055601681905560185561060c565b5f80546001600160a01b038381166001600160a01b0319831681178455604051919092169283917f8be0079c531659141344cd1fd0a4f28419497f9722a3daafe3b4186f6b6457e09190a35050565b5f6013548261043491906105f9565b92915050565b6001600160a01b038116811461044e575f5ffd5b50565b5f5f5f60608486031215610463575f5ffd5b835161046e8161043a565b602085015190935061047f8161043a565b60408501519092506104908161043a565b809150509250925092565b5f602082840312156104ab575f5ffd5b81516104b68161043a565b9392505050565b5f602082840312156104cd575f5ffd5b815160ff811681146104b6575f5ffd5b634e487b7160e01b5f52601160045260245ffd5b6001815b600184111561052c57808504811115610510576105106104dd565b600184161561051e57908102905b60019390931c9280026104f5565b935093915050565b5f8261054257506001610434565b8161054e57505f610434565b8160018114610564576002811461056e5761058a565b6001915050610434565b60ff84111561057f5761057f6104dd565b50506001821b610434565b5060208310610133831016604e8410600b84101617156105ad575081810a610434565b6105b95f1984846104f1565b805f19048211156105cc576105cc6104dd565b029392505050565b5f6104b660ff841683610534565b5f602082840312156105f2575f5ffd5b5051919050565b80820180821115610434576104346104dd565b612729806106195f395ff3fe608060405234801561000f575f5ffd5b5060043610610153575f3560e01c80636ad4634a116100bf578063a08b82d711610079578063a08b82d7146102be578063c2cb5d88146102d4578063ca1f32f1146102dc578063f21f5cfa146102e5578063f2fde38b146102ee578063fd2c80ae14610301575f5ffd5b80636ad4634a146102565780636e04ff0d1461025f578063715018a61461028057806379502c55146102885780637b1039991461029b5780638da5cb5b146102ae575f5ffd5b8063289a2f7611610110578063289a2f76146101e05780632b0088b41461020b57806336021ef4146102145780634585e33b1461021d57806358fac65b146102305780635dc228a014610243575f5ffd5b8063055ad42e1461015757806310c3b26f1461017a57806314b19c5a1461018f57806314b5d07f146101a657806325a760c2146101b9578063288157e9146101d8575b5f5ffd5b6015546101649060ff1681565b60405161017191906120c7565b60405180910390f35b61018d6101883660046120da565b61030a565b005b61019860115481565b604051908152602001610171565b61018d6101b4366004612105565b6103c8565b6007546101c69060ff1681565b60405160ff9091168152602001610171565b61018d6104d1565b6101f36101ee3660046120da565b610835565b6040516001600160a01b039091168152602001610171565b61019860065481565b61019860145481565b61018d61022b366004612120565b61085d565b6101f361023e3660046120da565b610b3c565b6002546101f3906001600160a01b031681565b61019860165481565b61027261026d366004612120565b610b4b565b60405161017192919061218e565b61018d610ce0565b6003546101f3906001600160a01b031681565b6004546101f3906001600160a01b031681565b5f546001600160a01b03166101f3565b6102c6610cf3565b6040516101719291906121cc565b6102c6610f05565b61019860055481565b61019860185481565b61018d6102fc366004612105565b61110e565b61019860135481565b610312611150565b805f03610332576040516317dbc4cb60e21b815260040160405180910390fd5b60035f9054906101000a90046001600160a01b03166001600160a01b031663edcf9c1f6040518163ffffffff1660e01b8152600401602060405180830381865afa158015610382573d5f5f3e3d5ffd5b505050506040513d601f19601f820116820180604052508101906103a69190612255565b6103c3576040516312aecd8160e01b815260040160405180910390fd5b601355565b6103d0611150565b6001600160a01b0381166103f75760405163d92e233d60e01b815260040160405180910390fd5b60035f9054906101000a90046001600160a01b03166001600160a01b031663edcf9c1f6040518163ffffffff1660e01b8152600401602060405180830381865afa158015610447573d5f5f3e3d5ffd5b505050506040513d601f19601f8201168201806040525081019061046b9190612255565b610488576040516312aecd8160e01b815260040160405180910390fd5b600280546001600160a01b0319166001600160a01b0383169081179091556040517f6cc7ebdb6c8c53291c5ae16148cab9b049d23bf5bde5632900b40edff56fcb43905f90a250565b6104d9611150565b60035f9054906101000a90046001600160a01b03166001600160a01b031663edcf9c1f6040518163ffffffff1660e01b8152600401602060405180830381865afa158015610529573d5f5f3e3d5ffd5b505050506040513d601f19601f8201168201806040525081019061054d9190612255565b61056a576040516312aecd8160e01b815260040160405180910390fd5b60035f9054906101000a90046001600160a01b03166001600160a01b031663015df9936040518163ffffffff1660e01b8152600401602060405180830381865afa1580156105ba573d5f5f3e3d5ffd5b505050506040513d601f19601f820116820180604052508101906105de9190612274565b600480546001600160a01b0319166001600160a01b039283161781556003546040805163d1717c7d60e01b81529051919093169263d1717c7d92818101926020929091908290030181865afa158015610639573d5f5f3e3d5ffd5b505050506040513d601f19601f8201168201806040525081019061065d919061228f565b61066890600a6123a6565b60065560035460408051631c56369f60e21b815290516001600160a01b0390921691637158da7c916004808201926020929091908290030181865afa1580156106b3573d5f5f3e3d5ffd5b505050506040513d601f19601f820116820180604052508101906106d79190612274565b6001600160a01b031663313ce5676040518163ffffffff1660e01b8152600401602060405180830381865afa158015610712573d5f5f3e3d5ffd5b505050506040513d601f19601f82011682018060405250810190610736919061228f565b6007805460ff191660ff929092169190911790556003546040805163567ba71360e01b815290516001600160a01b039092169163567ba713916004808201926020929091908290030181865afa158015610792573d5f5f3e3d5ffd5b505050506040513d601f19601f820116820180604052508101906107b6919061228f565b6107c190600a6123a6565b60055560035460408051630d8087bd60e21b815290516001600160a01b03909216916336021ef4916004808201926020929091908290030181865afa15801561080c573d5f5f3e3d5ffd5b505050506040513d601f19601f8201168201806040525081019061083091906123b4565b601455565b60198181548110610844575f80fd5b5f918252602090912001546001600160a01b0316905081565b6002546001600160a01b031633146108885760405163ea8e4eb560e01b815260040160405180910390fd5b61089061117c565b60048110156108b2576040516317dbc4cb60e21b815260040160405180910390fd5b5f6108c060048284866123cb565b6108c9916123f2565b90506341659aab60e01b6001600160e01b0319821601610a12576108eb6111a6565b6108f36111d7565b600354604051631da09e4360e31b81526001600160a01b039091169063ed04f21890610923905f9060040161242a565b5f60405180830381865afa15801561093d573d5f5f3e3d5ffd5b505050506040513d5f823e601f3d908101601f191682016040526109649190810190612519565b805161097891601791602090910190612015565b50600354604051631da09e4360e31b81526001600160a01b039091169063ed04f218906109aa9060019060040161242a565b5f60405180830381865afa1580156109c4573d5f5f3e3d5ffd5b505050506040513d5f823e601f3d908101601f191682016040526109eb9190810190612519565b80516109ff91601991602090910190612015565b506015805460ff19166001179055610b2e565b600162e1be3b60e01b03196001600160e01b0319821601610a59575f610a3b83600481876123cb565b810190610a4891906120da565b9050610a53816112fc565b50610b2e565b6328ccd48760e01b6001600160e01b0319821601610a97575f610a7f83600481876123cb565b810190610a8c91906120da565b9050610a5381611839565b6350c9887560e01b6001600160e01b0319821601610b1557610ab7611b30565b6015805460ff1916905560118054905f610ad08361254b565b91905055507f9375d658f91055a030c54d5cf460d6f12968b10b80b0797c1aa5c02e4dca9403601154604051610b0891815260200190565b60405180910390a1610b2e565b6040516317dbc4cb60e21b815260040160405180910390fd5b50610b3860018055565b5050565b60178181548110610844575f80fd5b5f606060035f9054906101000a90046001600160a01b03166001600160a01b031663edcf9c1f6040518163ffffffff1660e01b8152600401602060405180830381865afa158015610b9e573d5f5f3e3d5ffd5b505050506040513d601f19601f82011682018060405250810190610bc29190612255565b8015610bd057506012544210155b15610c035760405163be9a655560e01b6020820152600192506024015b6040516020818303038152906040529050610cd9565b600160155460ff166003811115610c1c57610c1c6120a3565b03610c475760165460405162e1be3b60e01b6020820152602481019190915260019250604401610bed565b600260155460ff166003811115610c6057610c606120a3565b03610c8c5760185460405163d7332b7960e01b6020820152602481019190915260019250604401610bed565b600360155460ff166003811115610ca557610ca56120a3565b03610cc65760405163af36778b60e01b602082015260019250602401610bed565b505060408051602081019091525f808252905b9250929050565b610ce8611150565b610cf15f611c88565b565b600d80546040805160208084028201810190925282815260609384935f93830182828015610d4857602002820191905f5260205f20905b81546001600160a01b03168152600190910190602001808311610d2a575b505083519394505f9250829150505b82811015610dbc575f60086004015f868481518110610d7857610d78612563565b60200260200101516001600160a01b03166001600160a01b031681526020019081526020015f20541115610db45781610db08161254b565b9250505b600101610d57565b508067ffffffffffffffff811115610dd657610dd661243e565b604051908082528060200260200182016040528015610dff578160200160208202803683370190505b5094508067ffffffffffffffff811115610e1b57610e1b61243e565b604051908082528060200260200182016040528015610e44578160200160208202803683370190505b5093505f805b83811015610efc575f858281518110610e6557610e65612563565b6020908102919091018101516001600160a01b0381165f908152600c9092526040909120549091508015610ef25781898581518110610ea657610ea6612563565b60200260200101906001600160a01b031690816001600160a01b03168152505080888581518110610ed957610ed9612563565b602090810291909101015283610eee8161254b565b9450505b5050600101610e4a565b50505050509091565b600d80546040805160208084028201810190925282815260609384935f93830182828015610f5a57602002820191905f5260205f20905b81546001600160a01b03168152600190910190602001808311610f3c575b505083519394505f9250829150505b82811015610fce575f60086003015f868481518110610f8a57610f8a612563565b60200260200101516001600160a01b03166001600160a01b031681526020019081526020015f20541115610fc65781610fc28161254b565b9250505b600101610f69565b508067ffffffffffffffff811115610fe857610fe861243e565b604051908082528060200260200182016040528015611011578160200160208202803683370190505b5094508067ffffffffffffffff81111561102d5761102d61243e565b604051908082528060200260200182016040528015611056578160200160208202803683370190505b5093505f805b83811015610efc575f85828151811061107757611077612563565b6020908102919091018101516001600160a01b0381165f908152600b909252604090912054909150801561110457818985815181106110b8576110b8612563565b60200260200101906001600160a01b031690816001600160a01b031681525050808885815181106110eb576110eb612563565b6020908102919091010152836111008161254b565b9450505b505060010161105c565b611116611150565b6001600160a01b03811661114457604051631e4fbdf760e01b81525f60048201526024015b60405180910390fd5b61114d81611c88565b50565b5f546001600160a01b03163314610cf15760405163118cdaa760e01b815233600482015260240161113b565b60026001540361119f57604051633ee5aeb560e01b815260040160405180910390fd5b6002600155565b6012544210156111c95760405163085de62560e01b815260040160405180910390fd5b6111d242611cd7565b601255565b5f600860050180548060200260200160405190810160405280929190818152602001828054801561122f57602002820191905f5260205f20905b81546001600160a01b03168152600190910190602001808311611211575b505083519394505f925050505b818110156112cd575f83828151811061125757611257612563565b6020908102919091018101516001600160a01b03165f90815260088252604080822082905560098352808220829055600a8352808220829055600b8352808220829055600c8352808220829055600e8352808220805460ff19908116909155600f9093529020805490911690555060010161123c565b506112d9600d5f612078565b6112e460175f612078565b6112ef60195f612078565b50505f6016819055601855565b5f6017828154811061131057611310612563565b905f5260205f20015f9054906101000a90046001600160a01b031690505f5f826001600160a01b031663d3d034586040518163ffffffff1660e01b81526004015f60405180830381865afa15801561136a573d5f5f3e3d5ffd5b505050506040513d5f823e601f3d908101601f191682016040526113919190810190612577565b90925090505f805b83518110156115a6575f8482815181106113b5576113b5612563565b6020908102919091018101516001600160a01b0381165f908152600f909252604082205490925060ff16900361146f57806001600160a01b031663313ce5676040518163ffffffff1660e01b8152600401602060405180830381865afa158015611421573d5f5f3e3d5ffd5b505050506040513d601f19601f82011682018060405250810190611445919061228f565b6001600160a01b0382165f908152600f60205260409020805460ff191660ff929092169190911790555b6001600160a01b0381165f908152600f6020908152604080832054600890925282205460ff9091169181900361152a57600480546040516341976e0960e01b81526001600160a01b03868116938201939093529116906341976e0990602401602060405180830381865afa1580156114e9573d5f5f3e3d5ffd5b505050506040513d601f19601f8201168201806040525081019061150d91906123b4565b6001600160a01b0384165f90815260086020526040902081905590505b5f61154f8288878151811061154157611541612563565b602002602001015185611cec565b905061155b8187612635565b6001600160a01b0385165f90815260096020526040812080549298508392909190611587908490612635565b90915550611596905084611d2a565b5050600190920191506113999050565b505f846001600160a01b031663a68a5267866001600160a01b031663c37fc8a86040518163ffffffff1660e01b8152600401602060405180830381865afa1580156115f3573d5f5f3e3d5ffd5b505050506040513d601f19601f8201168201806040525081019061161791906123b4565b845f6040518463ffffffff1660e01b815260040161163793929190612648565b602060405180830381865afa158015611652573d5f5f3e3d5ffd5b505050506040513d601f19601f8201168201806040525081019061167691906123b4565b90505f81866001600160a01b031663d1699c266040518163ffffffff1660e01b8152600401602060405180830381865afa1580156116b6573d5f5f3e3d5ffd5b505050506040513d601f19601f820116820180604052508101906116da91906123b4565b6116e49085612635565b6116ee919061266d565b90505f5f876001600160a01b031663b6eba6536040518163ffffffff1660e01b81526004015f60405180830381865afa15801561172d573d5f5f3e3d5ffd5b505050506040513d5f823e601f3d908101601f191682016040526117549190810190612577565b815191935091505f5b818110156117ff575f84828151811061177857611778612563565b602002602001015190505f84838151811061179557611795612563565b602002602001015190505f60065482896117af9190612680565b6117b99190612697565b6001600160a01b0384165f908152600a60205260408120805492935083929091906117e5908490612635565b909155506117f4905083611d2a565b50505060010161175d565b5060168054905f61180f8361254b565b90915550506017546016541061182d576015805460ff191660021790555b50505050505050505050565b61184161117c565b5f601454826118509190612680565b90505f601454826118619190612635565b60195490915081111561188057506019546015805460ff191660031790555b815b81811015611b10575f6019828154811061189e5761189e612563565b905f5260205f20015f9054906101000a90046001600160a01b031690505f5f826001600160a01b031663d3d034586040518163ffffffff1660e01b81526004015f60405180830381865afa1580156118f8573d5f5f3e3d5ffd5b505050506040513d5f823e601f3d908101601f1916820160405261191f9190810190612577565b915091505f61192d5f611daf565b90505f5b8351811015611aff575f84828151811061194d5761194d612563565b6020908102919091018101516001600160a01b0381165f908152600f909252604082205490925060ff169003611a0757806001600160a01b031663313ce5676040518163ffffffff1660e01b8152600401602060405180830381865afa1580156119b9573d5f5f3e3d5ffd5b505050506040513d601f19601f820116820180604052508101906119dd919061228f565b6001600160a01b0382165f908152600f60205260409020805460ff191660ff929092169190911790555b6001600160a01b0381165f908152600f6020908152604080832054600890925282205460ff90911691819003611ac257600480546040516341976e0960e01b81526001600160a01b03868116938201939093529116906341976e0990602401602060405180830381865afa158015611a81573d5f5f3e3d5ffd5b505050506040513d601f19601f82011682018060405250810190611aa591906123b4565b6001600160a01b0384165f90815260086020526040902081905590505b5f611ae182888781518110611ad957611ad9612563565b505f92915050565b9050611aed8682611dc1565b95505060019093019250611931915050565b505060019093019250611882915050565b5060188054905f611b208361254b565b9190505550505061114d60018055565b5f6008600501805480602002602001604051908101604052809291908181526020018280548015611b8857602002820191905f5260205f20905b81546001600160a01b03168152600190910190602001808311611b6a575b505083519394505f925050505b81811015611c83575f838281518110611bb057611bb0612563565b6020908102919091018101516001600160a01b0381165f90815260098352604080822054600a855281832054600f909552912054919350919060ff1681831115611c46575f611bff838561266d565b6001600160a01b0386165f9081526008602052604081205491925090611c26908385611df6565b6001600160a01b0387165f908152600b602052604090205550611c739050565b82821115611c73575f611c59848461266d565b6001600160a01b0386165f908152600c6020526040902055505b505060019092019150611b959050565b505050565b5f80546001600160a01b038381166001600160a01b0319831681178455604051919092169283917f8be0079c531659141344cd1fd0a4f28419497f9722a3daafe3b4186f6b6457e09190a35050565b5f60135482611ce69190612635565b92915050565b5f80611cf88486612680565b6007549091505f90611d10908390869060ff16611e30565b905060055481611d209190612697565b9695505050505050565b6001600160a01b0381165f908152600e602052604090205460ff1661114d57600d805460018181019092557fd7b6990105719101dabeb77144f2a3385c8033acd3af97e9423a695e81ad1eb50180546001600160a01b0384166001600160a01b031990911681179091555f908152600e60205260409020805460ff1916909117905550565b5f611ce68263ffffffff166004611e9a565b5f82611dd357611dd05f611daf565b92505b81611de457611de15f611daf565b91505b611def83835f611f57565b9392505050565b6007545f908190611e0c90859060ff1685611e30565b90508460055482611e1d9190612680565b611e279190612697565b95945050505050565b5f8260ff168260ff161115611e6557611e4983836126b6565b611e5490600a6123a6565b611e5e9085612680565b9050611def565b8260ff168260ff161015611e9257611e7d82846126b6565b611e8890600a6123a6565b611e5e9085612697565b509192915050565b7fed8d60e34876f751cc8b014c560745351147d9de11b9347c854e881b128ea60154604051639cd07acb60e01b81525f917fed8d60e34876f751cc8b014c560745351147d9de11b9347c854e881b128ea600916001600160a01b0390911690639cd07acb90611f0f90879087906004016126cf565b6020604051808303815f875af1158015611f2b573d5f5f3e3d5ffd5b505050506040513d601f19601f82011682018060405250810190611f4f91906123b4565b949350505050565b5f5f8215611f6a5750600160f81b611f6d565b505f5b5f7fed8d60e34876f751cc8b014c560745351147d9de11b9347c854e881b128ea600600181015460405163022f65e760e31b815260048101899052602481018890526001600160f81b0319851660448201529192506001600160a01b03169063117b2f38906064016020604051808303815f875af1158015611ff1573d5f5f3e3d5ffd5b505050506040513d601f19601f82011682018060405250810190611d2091906123b4565b828054828255905f5260205f20908101928215612068579160200282015b8281111561206857825182546001600160a01b0319166001600160a01b03909116178255602090920191600190910190612033565b5061207492915061208f565b5090565b5080545f8255905f5260205f209081019061114d91905b5b80821115612074575f8155600101612090565b634e487b7160e01b5f52602160045260245ffd5b6004811061114d5761114d6120a3565b602081016120d4836120b7565b91905290565b5f602082840312156120ea575f5ffd5b5035919050565b6001600160a01b038116811461114d575f5ffd5b5f60208284031215612115575f5ffd5b8135611def816120f1565b5f5f60208385031215612131575f5ffd5b823567ffffffffffffffff811115612147575f5ffd5b8301601f81018513612157575f5ffd5b803567ffffffffffffffff81111561216d575f5ffd5b85602082840101111561217e575f5ffd5b6020919091019590945092505050565b8215158152604060208201525f82518060408401528060208501606085015e5f606082850101526060601f19601f8301168401019150509392505050565b604080825283519082018190525f9060208501906060840190835b8181101561220e5783516001600160a01b03168352602093840193909201916001016121e7565b5050838103602080860191909152855180835291810192508501905f5b8181101561224957825184526020938401939092019160010161222b565b50919695505050505050565b5f60208284031215612265575f5ffd5b81518015158114611def575f5ffd5b5f60208284031215612284575f5ffd5b8151611def816120f1565b5f6020828403121561229f575f5ffd5b815160ff81168114611def575f5ffd5b634e487b7160e01b5f52601160045260245ffd5b6001815b60018411156122fe578085048111156122e2576122e26122af565b60018416156122f057908102905b60019390931c9280026122c7565b935093915050565b5f8261231457506001611ce6565b8161232057505f611ce6565b816001811461233657600281146123405761235c565b6001915050611ce6565b60ff841115612351576123516122af565b50506001821b611ce6565b5060208310610133831016604e8410600b841016171561237f575081810a611ce6565b61238b5f1984846122c3565b805f190482111561239e5761239e6122af565b029392505050565b5f611def60ff841683612306565b5f602082840312156123c4575f5ffd5b5051919050565b5f5f858511156123d9575f5ffd5b838611156123e5575f5ffd5b5050820193919092039150565b80356001600160e01b03198116906004841015612423576001600160e01b0319600485900360031b81901b82161691505b5092915050565b60208101600283106120d4576120d46120a3565b634e487b7160e01b5f52604160045260245ffd5b604051601f8201601f1916810167ffffffffffffffff8111828210171561247b5761247b61243e565b604052919050565b5f67ffffffffffffffff82111561249c5761249c61243e565b5060051b60200190565b5f82601f8301126124b5575f5ffd5b81516124c86124c382612483565b612452565b8082825260208201915060208360051b8601019250858311156124e9575f5ffd5b602085015b8381101561250f578051612501816120f1565b8352602092830192016124ee565b5095945050505050565b5f60208284031215612529575f5ffd5b815167ffffffffffffffff81111561253f575f5ffd5b611f4f848285016124a6565b5f6001820161255c5761255c6122af565b5060010190565b634e487b7160e01b5f52603260045260245ffd5b5f5f60408385031215612588575f5ffd5b825167ffffffffffffffff81111561259e575f5ffd5b6125aa858286016124a6565b925050602083015167ffffffffffffffff8111156125c6575f5ffd5b8301601f810185136125d6575f5ffd5b80516125e46124c382612483565b8082825260208201915060208360051b850101925087831115612605575f5ffd5b6020840193505b8284101561262757835182526020938401939091019061260c565b809450505050509250929050565b80820180821115611ce657611ce66122af565b838152602081018390526060810161265f836120b7565b826040830152949350505050565b81810381811115611ce657611ce66122af565b8082028115828204841417611ce657611ce66122af565b5f826126b157634e487b7160e01b5f52601260045260245ffd5b500490565b60ff8281168282160390811115611ce657611ce66122af565b82815260408101605483106126e6576126e66120a3565b826020830152939250505056fea26469706673582212207060475b40c6e32c91848fc228afc7a32eb2bad43dafb3fe5920535af8d35c4464736f6c634300081c0033",
  "linkReferences": {},
  "deployedLinkReferences": {}
}