{
  "_format": "hh-sol-artifact-1",
  "contractName": "InternalStatesOrchestrator",
  "sourceName": "contracts/orchestrators/InternalStatesOrchestrator.sol",
  "abi": [
    {
      "inputs": [
        {
          "internalType": "address",
          "name": "target",
          "type": "address"
        }
      ],
      "name": "AddressEmptyCode",
      "type": "error"
    },
    {
      "inputs": [
        {
          "internalType": "address",
          "name": "implementation",
          "type": "address"
        }
      ],
      "name": "ERC1967InvalidImplementation",
      "type": "error"
    },
    {
      "inputs": [],
      "name": "ERC1967NonPayable",
      "type": "error"
    },
    {
      "inputs": [],
      "name": "FailedCall",
      "type": "error"
    },
    {
      "inputs": [],
      "name": "InvalidInitialization",
      "type": "error"
    },
    {
      "inputs": [],
      "name": "NotAuthorized",
      "type": "error"
    },
    {
      "inputs": [],
      "name": "NotInitializing",
      "type": "error"
    },
    {
      "inputs": [
        {
          "internalType": "address",
          "name": "owner",
          "type": "address"
        }
      ],
      "name": "OwnableInvalidOwner",
      "type": "error"
    },
    {
      "inputs": [
        {
          "internalType": "address",
          "name": "account",
          "type": "address"
        }
      ],
      "name": "OwnableUnauthorizedAccount",
      "type": "error"
    },
    {
      "inputs": [],
      "name": "ReentrancyGuardReentrantCall",
      "type": "error"
    },
    {
      "inputs": [],
      "name": "TooEarly",
      "type": "error"
    },
    {
      "inputs": [],
      "name": "UUPSUnauthorizedCallContext",
      "type": "error"
    },
    {
      "inputs": [
        {
          "internalType": "bytes32",
          "name": "slot",
          "type": "bytes32"
        }
      ],
      "name": "UUPSUnsupportedProxiableUUID",
      "type": "error"
    },
    {
      "inputs": [],
      "name": "ZeroAddress",
      "type": "error"
    },
    {
      "anonymous": false,
      "inputs": [
        {
          "indexed": true,
          "internalType": "address",
          "name": "newAutomationRegistry",
          "type": "address"
        }
      ],
      "name": "AutomationRegistryUpdated",
      "type": "event"
    },
    {
      "anonymous": false,
      "inputs": [
        {
          "indexed": false,
          "internalType": "uint64",
          "name": "version",
          "type": "uint64"
        }
      ],
      "name": "Initialized",
      "type": "event"
    },
    {
      "anonymous": false,
      "inputs": [
        {
          "indexed": false,
          "internalType": "uint256",
          "name": "epochCounter",
          "type": "uint256"
        }
      ],
      "name": "InternalStateProcessed",
      "type": "event"
    },
    {
      "anonymous": false,
      "inputs": [
        {
          "indexed": true,
          "internalType": "address",
          "name": "previousOwner",
          "type": "address"
        },
        {
          "indexed": true,
          "internalType": "address",
          "name": "newOwner",
          "type": "address"
        }
      ],
      "name": "OwnershipTransferStarted",
      "type": "event"
    },
    {
      "anonymous": false,
      "inputs": [
        {
          "indexed": true,
          "internalType": "address",
          "name": "previousOwner",
          "type": "address"
        },
        {
          "indexed": true,
          "internalType": "address",
          "name": "newOwner",
          "type": "address"
        }
      ],
      "name": "OwnershipTransferred",
      "type": "event"
    },
    {
      "anonymous": false,
      "inputs": [
        {
          "indexed": true,
          "internalType": "address",
          "name": "implementation",
          "type": "address"
        }
      ],
      "name": "Upgraded",
      "type": "event"
    },
    {
      "inputs": [],
      "name": "UPGRADE_INTERFACE_VERSION",
      "outputs": [
        {
          "internalType": "string",
          "name": "",
          "type": "string"
        }
      ],
      "stateMutability": "view",
      "type": "function"
    },
    {
      "inputs": [],
      "name": "acceptOwnership",
      "outputs": [],
      "stateMutability": "nonpayable",
      "type": "function"
    },
    {
      "inputs": [],
      "name": "automationRegistry",
      "outputs": [
        {
          "internalType": "address",
          "name": "",
          "type": "address"
        }
      ],
      "stateMutability": "view",
      "type": "function"
    },
    {
      "inputs": [
        {
          "internalType": "bytes",
          "name": "",
          "type": "bytes"
        }
      ],
      "name": "checkUpkeep",
      "outputs": [
        {
          "internalType": "bool",
          "name": "upkeepNeeded",
          "type": "bool"
        },
        {
          "internalType": "bytes",
          "name": "performData",
          "type": "bytes"
        }
      ],
      "stateMutability": "view",
      "type": "function"
    },
    {
      "inputs": [],
      "name": "config",
      "outputs": [
        {
          "internalType": "contract IOrionConfig",
          "name": "",
          "type": "address"
        }
      ],
      "stateMutability": "view",
      "type": "function"
    },
    {
      "inputs": [],
      "name": "epochCounter",
      "outputs": [
        {
          "internalType": "uint256",
          "name": "",
          "type": "uint256"
        }
      ],
      "stateMutability": "view",
      "type": "function"
    },
    {
      "inputs": [],
      "name": "expectedUnderlyingBuyAmount",
      "outputs": [
        {
          "internalType": "uint256",
          "name": "",
          "type": "uint256"
        }
      ],
      "stateMutability": "view",
      "type": "function"
    },
    {
      "inputs": [],
      "name": "expectedUnderlyingSellAmount",
      "outputs": [
        {
          "internalType": "uint256",
          "name": "",
          "type": "uint256"
        }
      ],
      "stateMutability": "view",
      "type": "function"
    },
    {
      "inputs": [],
      "name": "getBuyingOrders",
      "outputs": [
        {
          "internalType": "address[]",
          "name": "tokens",
          "type": "address[]"
        },
        {
          "internalType": "uint256[]",
          "name": "amounts",
          "type": "uint256[]"
        }
      ],
      "stateMutability": "view",
      "type": "function"
    },
    {
      "inputs": [],
      "name": "getSellingOrders",
      "outputs": [
        {
          "internalType": "address[]",
          "name": "tokens",
          "type": "address[]"
        },
        {
          "internalType": "uint256[]",
          "name": "amounts",
          "type": "uint256[]"
        }
      ],
      "stateMutability": "view",
      "type": "function"
    },
    {
      "inputs": [
        {
          "internalType": "address",
          "name": "initialOwner",
          "type": "address"
        },
        {
          "internalType": "address",
          "name": "automationRegistry_",
          "type": "address"
        },
        {
          "internalType": "address",
          "name": "config_",
          "type": "address"
        }
      ],
      "name": "initialize",
      "outputs": [],
      "stateMutability": "nonpayable",
      "type": "function"
    },
    {
      "inputs": [],
      "name": "nextUpdateTime",
      "outputs": [
        {
          "internalType": "uint256",
          "name": "",
          "type": "uint256"
        }
      ],
      "stateMutability": "view",
      "type": "function"
    },
    {
      "inputs": [],
      "name": "owner",
      "outputs": [
        {
          "internalType": "address",
          "name": "",
          "type": "address"
        }
      ],
      "stateMutability": "view",
      "type": "function"
    },
    {
      "inputs": [],
      "name": "pendingOwner",
      "outputs": [
        {
          "internalType": "address",
          "name": "",
          "type": "address"
        }
      ],
      "stateMutability": "view",
      "type": "function"
    },
    {
      "inputs": [
        {
          "internalType": "bytes",
          "name": "",
          "type": "bytes"
        }
      ],
      "name": "performUpkeep",
      "outputs": [],
      "stateMutability": "nonpayable",
      "type": "function"
    },
    {
      "inputs": [],
      "name": "proxiableUUID",
      "outputs": [
        {
          "internalType": "bytes32",
          "name": "",
          "type": "bytes32"
        }
      ],
      "stateMutability": "view",
      "type": "function"
    },
    {
      "inputs": [],
      "name": "renounceOwnership",
      "outputs": [],
      "stateMutability": "nonpayable",
      "type": "function"
    },
    {
      "inputs": [
        {
          "internalType": "address",
          "name": "newOwner",
          "type": "address"
        }
      ],
      "name": "transferOwnership",
      "outputs": [],
      "stateMutability": "nonpayable",
      "type": "function"
    },
    {
      "inputs": [
        {
          "internalType": "address",
          "name": "newAutomationRegistry",
          "type": "address"
        }
      ],
      "name": "updateAutomationRegistry",
      "outputs": [],
      "stateMutability": "nonpayable",
      "type": "function"
    },
    {
      "inputs": [
        {
          "internalType": "address",
          "name": "newConfig",
          "type": "address"
        }
      ],
      "name": "updateConfig",
      "outputs": [],
      "stateMutability": "nonpayable",
      "type": "function"
    },
    {
      "inputs": [],
      "name": "updateInterval",
      "outputs": [
        {
          "internalType": "uint256",
          "name": "",
          "type": "uint256"
        }
      ],
      "stateMutability": "view",
      "type": "function"
    },
    {
      "inputs": [
        {
          "internalType": "address",
          "name": "newImplementation",
          "type": "address"
        },
        {
          "internalType": "bytes",
          "name": "data",
          "type": "bytes"
        }
      ],
      "name": "upgradeToAndCall",
      "outputs": [],
      "stateMutability": "payable",
      "type": "function"
    }
  ],
  "bytecode": "0x60a0604052306080523480156012575f5ffd5b506080516127246100395f395f818161195d015281816119860152611ac501526127245ff3fe608060405260043610610131575f3560e01c8063715018a6116100a8578063ad3cb1cc1161006d578063ad3cb1cc14610302578063c0c53b8b1461033f578063c2cb5d881461035e578063e30c397814610372578063f2fde38b14610386578063fd2c80ae146103a5575f5ffd5b8063715018a61461028557806379502c551461029957806379ba5097146102b85780638da5cb5b146102cc578063a08b82d7146102e0575f5ffd5b80634a1d9625116100f95780634a1d9625146101c65780634f1ef286146101db57806352d1902d146101ee5780635dc228a0146102025780636cc919c8146102395780636e04ff0d14610258575f5ffd5b806306cce8481461013557806314b19c5a1461015d57806314b5d07f1461017257806335238fb8146101935780634585e33b146101a7575b5f5ffd5b348015610140575f5ffd5b5061014a600c5481565b6040519081526020015b60405180910390f35b348015610168575f5ffd5b5061014a60035481565b34801561017d575f5ffd5b5061019161018c366004612041565b6103b9565b005b34801561019e575f5ffd5b5061014a5f5481565b3480156101b2575f5ffd5b506101916101c136600461205c565b610431565b3480156101d1575f5ffd5b5061014a600d5481565b6101916101e936600461210c565b610c1d565b3480156101f9575f5ffd5b5061014a610c38565b34801561020d575f5ffd5b50600154610221906001600160a01b031681565b6040516001600160a01b039091168152602001610154565b348015610244575f5ffd5b50610191610253366004612041565b610c53565b348015610263575f5ffd5b5061027761027236600461205c565b610ca4565b6040516101549291906121df565b348015610290575f5ffd5b50610191610ccc565b3480156102a4575f5ffd5b50600254610221906001600160a01b031681565b3480156102c3575f5ffd5b50610191610cdf565b3480156102d7575f5ffd5b50610221610d2c565b3480156102eb575f5ffd5b506102f4610d60565b604051610154929190612201565b34801561030d575f5ffd5b50610332604051806040016040528060058152602001640352e302e360dc1b81525081565b604051610154919061228a565b34801561034a575f5ffd5b5061019161035936600461229c565b610f6f565b348015610369575f5ffd5b506102f461110e565b34801561037d575f5ffd5b50610221611315565b348015610391575f5ffd5b506101916103a0366004612041565b61133d565b3480156103b0575f5ffd5b5061014a603c81565b6103c16113c2565b6001600160a01b0381166103e85760405163d92e233d60e01b815260040160405180910390fd5b600180546001600160a01b0319166001600160a01b0383169081179091556040517f6cc7ebdb6c8c53291c5ae16148cab9b049d23bf5bde5632900b40edff56fcb43905f90a250565b6001546001600160a01b0316331461045c5760405163ea8e4eb560e01b815260040160405180910390fd5b6104646113f4565b61046c61143e565b610474611482565b60025460408051634bb93ab160e01b815290515f926001600160a01b031691634bb93ab19160048083019260209291908290030181865afa1580156104bb573d5f5f3e3d5ffd5b505050506040513d601f19601f820116820180604052508101906104df91906122e4565b600254604051631da09e4360e31b81529192505f916001600160a01b039091169063ed04f21890610514908490600401612313565b5f60405180830381865afa15801561052e573d5f5f3e3d5ffd5b505050506040513d5f823e601f3d908101601f1916820160405261055591908101906123c2565b90505f815190505f60025f9054906101000a90046001600160a01b03166001600160a01b031663d1717c7d6040518163ffffffff1660e01b8152600401602060405180830381865afa1580156105ad573d5f5f3e3d5ffd5b505050506040513d601f19601f820116820180604052508101906105d191906123f3565b6105dc90600a61250a565b90505f5b82811015610a28575f8482815181106105fb576105fb612518565b602002602001015190505f5f826001600160a01b031663d3d034586040518163ffffffff1660e01b81526004015f60405180830381865afa158015610642573d5f5f3e3d5ffd5b505050506040513d5f823e601f3d908101601f19168201604052610669919081019061252c565b815191935091505f90815b818110156107ba575f85828151811061068f5761068f612518565b6020908102919091018101516001600160a01b0381165f9081526004909252604082205490925090819003610743576040516341976e0960e01b81526001600160a01b0383811660048301528e16906341976e0990602401602060405180830381865afa158015610702573d5f5f3e3d5ffd5b505050506040513d601f19601f8201168201806040525081019061072691906125e8565b6001600160a01b0383165f90815260046020526040902081905590505b5f6107688288868151811061075a5761075a612518565b602002602001015185611572565b905061077481876125ff565b6001600160a01b0384165f908152600560205260408120805492985083929091906107a09084906125ff565b909155506107af90508361172b565b505050600101610674565b505f856001600160a01b031663a68a5267876001600160a01b031663c37fc8a86040518163ffffffff1660e01b8152600401602060405180830381865afa158015610807573d5f5f3e3d5ffd5b505050506040513d601f19601f8201168201806040525081019061082b91906125e8565b855f6040518463ffffffff1660e01b815260040161084b93929190612612565b602060405180830381865afa158015610866573d5f5f3e3d5ffd5b505050506040513d601f19601f8201168201806040525081019061088a91906125e8565b90505f81876001600160a01b031663d1699c266040518163ffffffff1660e01b8152600401602060405180830381865afa1580156108ca573d5f5f3e3d5ffd5b505050506040513d601f19601f820116820180604052508101906108ee91906125e8565b6108f890866125ff565b610902919061263e565b90505f5f886001600160a01b031663b6eba6536040518163ffffffff1660e01b81526004015f60405180830381865afa158015610941573d5f5f3e3d5ffd5b505050506040513d5f823e601f3d908101601f19168201604052610968919081019061252c565b815191935091505f5b81811015610a11575f84828151811061098c5761098c612518565b602002602001015190505f8483815181106109a9576109a9612518565b602002602001015190505f8f82896109c19190612651565b6109cb9190612668565b6001600160a01b0384165f908152600660205260408120805492935083929091906109f79084906125ff565b90915550610a0690508361172b565b505050600101610971565b5050600190990198506105e0975050505050505050565b50600254604051631da09e4360e31b81525f916001600160a01b03169063ed04f21890610a5a90600190600401612313565b5f60405180830381865afa158015610a74573d5f5f3e3d5ffd5b505050506040513d5f823e601f3d908101601f19168201604052610a9b91908101906123c2565b8051935090505f5b83811015610ba7575f828281518110610abe57610abe612518565b602002602001015190505f5f826001600160a01b031663d3d034586040518163ffffffff1660e01b81526004015f60405180830381865afa158015610b05573d5f5f3e3d5ffd5b505050506040513d5f823e601f3d908101601f19168201604052610b2c919081019061252c565b915091505f5f846001600160a01b031663b6eba6536040518163ffffffff1660e01b81526004015f60405180830381865afa158015610b6d573d5f5f3e3d5ffd5b505050506040513d5f823e601f3d908101601f19168201604052610b94919081019061252c565b505060019095019450610aa39350505050565b50610bb06117b0565b7f9375d658f91055a030c54d5cf460d6f12968b10b80b0797c1aa5c02e4dca9403600354604051610be391815260200190565b60405180910390a15050505050610c1960017f9b779b17422d0df92223018b32b4d1fa46e071723d6817e2486d003becc55f0055565b5050565b610c25611952565b610c2e826119f6565b610c1982826119fe565b5f610c41611aba565b505f5160206126cf5f395f51905f5290565b610c5b6113c2565b6001600160a01b038116610c825760405163d92e233d60e01b815260040160405180910390fd5b600280546001600160a01b0319166001600160a01b0392909216919091179055565b5f6060610cb25f5442101590565b915060405180602001604052805f81525090509250929050565b610cd46113c2565b610cdd5f611b03565b565b3380610ce9611315565b6001600160a01b031614610d205760405163118cdaa760e01b81526001600160a01b03821660048201526024015b60405180910390fd5b610d2981611b03565b50565b5f807f9016d09d72d40fdae2fd8ceac6b6234c7706214fd39c1cd1e609a0528c1993005b546001600160a01b031692915050565b600980546040805160208084028201810190925282815260609384935f93830182828015610db557602002820191905f5260205f20905b81546001600160a01b03168152600190910190602001808311610d97575b505083519394505f9250829150505b82811015610e28575f600480015f868481518110610de457610de4612518565b60200260200101516001600160a01b03166001600160a01b031681526020019081526020015f20541115610e205781610e1c81612687565b9250505b600101610dc4565b50806001600160401b03811115610e4157610e416120c8565b604051908082528060200260200182016040528015610e6a578160200160208202803683370190505b509450806001600160401b03811115610e8557610e856120c8565b604051908082528060200260200182016040528015610eae578160200160208202803683370190505b5093505f805b83811015610f66575f858281518110610ecf57610ecf612518565b6020908102919091018101516001600160a01b0381165f90815260089092526040909120549091508015610f5c5781898581518110610f1057610f10612518565b60200260200101906001600160a01b031690816001600160a01b03168152505080888581518110610f4357610f43612518565b602090810291909101015283610f5881612687565b9450505b5050600101610eb4565b50505050509091565b5f610f78611b3b565b805490915060ff600160401b82041615906001600160401b03165f81158015610f9e5750825b90505f826001600160401b03166001148015610fb95750303b155b905081158015610fc7575080155b15610fe55760405163f92ee8a960e01b815260040160405180910390fd5b845467ffffffffffffffff19166001178555831561100f57845460ff60401b1916600160401b1785555b61101888611b65565b611020611b76565b611028611b7e565b611030611b76565b6001600160a01b0387166110575760405163d92e233d60e01b815260040160405180910390fd5b6001600160a01b03861661107e5760405163d92e233d60e01b815260040160405180910390fd5b600180546001600160a01b03808a166001600160a01b03199283161790925560028054928916929091169190911790556110b742611b8e565b5f908155600355831561110457845460ff60401b19168555604051600181527fc7f505b2f371ae2175ee4913f4499e1f2633a7b5936321eed1cdaeb6115181d29060200160405180910390a15b5050505050505050565b600980546040805160208084028201810190925282815260609384935f9383018282801561116357602002820191905f5260205f20905b81546001600160a01b03168152600190910190602001808311611145575b505083519394505f9250829150505b828110156111d7575f60046003015f86848151811061119357611193612518565b60200260200101516001600160a01b03166001600160a01b031681526020019081526020015f205411156111cf57816111cb81612687565b9250505b600101611172565b50806001600160401b038111156111f0576111f06120c8565b604051908082528060200260200182016040528015611219578160200160208202803683370190505b509450806001600160401b03811115611234576112346120c8565b60405190808252806020026020018201604052801561125d578160200160208202803683370190505b5093505f805b83811015610f66575f85828151811061127e5761127e612518565b6020908102919091018101516001600160a01b0381165f9081526007909252604090912054909150801561130b57818985815181106112bf576112bf612518565b60200260200101906001600160a01b031690816001600160a01b031681525050808885815181106112f2576112f2612518565b60209081029190910101528361130781612687565b9450505b5050600101611263565b5f807f237e158222e3e6968b72b9db0d8043aacf074ad9f650f0d1606b4d82ee432c00610d50565b6113456113c2565b7f237e158222e3e6968b72b9db0d8043aacf074ad9f650f0d1606b4d82ee432c0080546001600160a01b0319166001600160a01b0383169081178255611389610d2c565b6001600160a01b03167f38d16b8cac22d99fc7c124b9cd0de2d3fa1faef420bfe791d8c362d765e2270060405160405180910390a35050565b336113cb610d2c565b6001600160a01b031614610cdd5760405163118cdaa760e01b8152336004820152602401610d17565b7f9b779b17422d0df92223018b32b4d1fa46e071723d6817e2486d003becc55f0080546001190161143857604051633ee5aeb560e01b815260040160405180910390fd5b60029055565b5f544210156114605760405163085de62560e01b815260040160405180910390fd5b61146942611b8e565b5f908155600380549161147b83612687565b9190505550565b5f60046005018054806020026020016040519081016040528092919081815260200182805480156114da57602002820191905f5260205f20905b81546001600160a01b031681526001909101906020018083116114bc575b505083519394505f925050505b81811015611566575f83828151811061150257611502612518565b6020908102919091018101516001600160a01b03165f90815260048252604080822082905560058352808220829055600683528082208290556007835280822082905560088352808220829055600a90925220805460ff19169055506001016114e7565b50610c1960095f611fff565b5f80670de0b6b3a76400006115878587612651565b6115919190612668565b90505f836001600160a01b031663313ce5676040518163ffffffff1660e01b8152600401602060405180830381865afa1580156115d0573d5f5f3e3d5ffd5b505050506040513d601f19601f820116820180604052508101906115f491906123f3565b90505f60025f9054906101000a90046001600160a01b03166001600160a01b0316637158da7c6040518163ffffffff1660e01b8152600401602060405180830381865afa158015611647573d5f5f3e3d5ffd5b505050506040513d601f19601f8201168201806040525081019061166b91906122e4565b6001600160a01b031663313ce5676040518163ffffffff1660e01b8152600401602060405180830381865afa1580156116a6573d5f5f3e3d5ffd5b505050506040513d601f19601f820116820180604052508101906116ca91906123f3565b90508160ff168160ff16106116ff576116e3828261269f565b6116ee90600a61250a565b6116f89084612651565b9350611721565b611709818361269f565b61171490600a61250a565b61171e9084612668565b93505b5050509392505050565b6001600160a01b0381165f908152600a602052604090205460ff16610d29576009805460018181019092557f6e1540171b6c0c960b71a7020d9f60077f6af931a8bbf590da0223dacf75c7af0180546001600160a01b0384166001600160a01b031990911681179091555f908152600a60205260409020805460ff1916909117905550565b5f600460050180548060200260200160405190810160405280929190818152602001828054801561180857602002820191905f5260205f20905b81546001600160a01b031681526001909101906020018083116117ea575b505083515f600c819055600d81905594955093925050505b81811015611927575f83828151811061183b5761183b612518565b6020908102919091018101516001600160a01b0381165f908152600583526040808220546006909452902054909250808211156118d8575f61187d828461263e565b905080600c5f82825461189091906125ff565b90915550506001600160a01b0384165f908152600460205260408120546118b8908387611b9a565b6001600160a01b0386165f908152600760205260409020555061191c9050565b8181111561191c575f6118eb838361263e565b905080600d5f8282546118fe91906125ff565b90915550506001600160a01b0384165f908152600860205260409020555b505050600101611820565b505050565b60017f9b779b17422d0df92223018b32b4d1fa46e071723d6817e2486d003becc55f0055565b306001600160a01b037f00000000000000000000000000000000000000000000000000000000000000001614806119d857507f00000000000000000000000000000000000000000000000000000000000000006001600160a01b03166119cc5f5160206126cf5f395f51905f52546001600160a01b031690565b6001600160a01b031614155b15610cdd5760405163703e46dd60e11b815260040160405180910390fd5b610d296113c2565b816001600160a01b03166352d1902d6040518163ffffffff1660e01b8152600401602060405180830381865afa925050508015611a58575060408051601f3d908101601f19168201909252611a55918101906125e8565b60015b611a8057604051634c9c8ce360e01b81526001600160a01b0383166004820152602401610d17565b5f5160206126cf5f395f51905f528114611ab057604051632a87526960e21b815260048101829052602401610d17565b6119278383611d47565b306001600160a01b037f00000000000000000000000000000000000000000000000000000000000000001614610cdd5760405163703e46dd60e11b815260040160405180910390fd5b7f237e158222e3e6968b72b9db0d8043aacf074ad9f650f0d1606b4d82ee432c0080546001600160a01b0319168155610c1982611d9c565b5f807ff0c57e16840df040f15088dc2f81fe391c3923bec73e23a9662efc9c229c6a005b92915050565b611b6d611e0c565b610d2981611e31565b610cdd611e0c565b611b86611e0c565b610cdd611e62565b5f611b5f603c836125ff565b5f5f826001600160a01b031663313ce5676040518163ffffffff1660e01b8152600401602060405180830381865afa158015611bd8573d5f5f3e3d5ffd5b505050506040513d601f19601f82011682018060405250810190611bfc91906123f3565b90505f60025f9054906101000a90046001600160a01b03166001600160a01b0316637158da7c6040518163ffffffff1660e01b8152600401602060405180830381865afa158015611c4f573d5f5f3e3d5ffd5b505050506040513d601f19601f82011682018060405250810190611c7391906122e4565b6001600160a01b031663313ce5676040518163ffffffff1660e01b8152600401602060405180830381865afa158015611cae573d5f5f3e3d5ffd5b505050506040513d601f19601f82011682018060405250810190611cd291906123f3565b90505f8260ff168260ff1610611d0857611cec838361269f565b611cf790600a61250a565b611d019087612668565b9050611d2a565b611d12828461269f565b611d1d90600a61250a565b611d279087612651565b90505b86611d3d670de0b6b3a764000083612651565b61171e9190612668565b611d5082611e6a565b6040516001600160a01b038316907fbc7cd75a20ee27fd9adebab32041f755214dbc6bffa90cc0225b39da2e5c2d3b905f90a2805115611d94576119278282611ecd565b610c19611f3f565b7f9016d09d72d40fdae2fd8ceac6b6234c7706214fd39c1cd1e609a0528c19930080546001600160a01b031981166001600160a01b03848116918217845560405192169182907f8be0079c531659141344cd1fd0a4f28419497f9722a3daafe3b4186f6b6457e0905f90a3505050565b611e14611f5e565b610cdd57604051631afcd79f60e31b815260040160405180910390fd5b611e39611e0c565b6001600160a01b038116610d2057604051631e4fbdf760e01b81525f6004820152602401610d17565b61192c611e0c565b806001600160a01b03163b5f03611e9f57604051634c9c8ce360e01b81526001600160a01b0382166004820152602401610d17565b5f5160206126cf5f395f51905f5280546001600160a01b0319166001600160a01b0392909216919091179055565b60605f5f846001600160a01b031684604051611ee991906126b8565b5f60405180830381855af49150503d805f8114611f21576040519150601f19603f3d011682016040523d82523d5f602084013e611f26565b606091505b5091509150611f36858383611f77565b95945050505050565b3415610cdd5760405163b398979f60e01b815260040160405180910390fd5b5f611f67611b3b565b54600160401b900460ff16919050565b606082611f8c57611f8782611fd6565b611fcf565b8151158015611fa357506001600160a01b0384163b155b15611fcc57604051639996b31560e01b81526001600160a01b0385166004820152602401610d17565b50805b9392505050565b805115611fe65780518082602001fd5b60405163d6bda27560e01b815260040160405180910390fd5b5080545f8255905f5260205f2090810190610d2991905b80821115612029575f8155600101612016565b5090565b6001600160a01b0381168114610d29575f5ffd5b5f60208284031215612051575f5ffd5b8135611fcf8161202d565b5f5f6020838503121561206d575f5ffd5b82356001600160401b03811115612082575f5ffd5b8301601f81018513612092575f5ffd5b80356001600160401b038111156120a7575f5ffd5b8560208284010111156120b8575f5ffd5b6020919091019590945092505050565b634e487b7160e01b5f52604160045260245ffd5b604051601f8201601f191681016001600160401b0381118282101715612104576121046120c8565b604052919050565b5f5f6040838503121561211d575f5ffd5b82356121288161202d565b915060208301356001600160401b03811115612142575f5ffd5b8301601f81018513612152575f5ffd5b80356001600160401b0381111561216b5761216b6120c8565b61217e601f8201601f19166020016120dc565b818152866020838501011115612192575f5ffd5b816020840160208301375f602083830101528093505050509250929050565b5f81518084528060208401602086015e5f602082860101526020601f19601f83011685010191505092915050565b8215158152604060208201525f6121f960408301846121b1565b949350505050565b604080825283519082018190525f9060208501906060840190835b818110156122435783516001600160a01b031683526020938401939092019160010161221c565b5050838103602080860191909152855180835291810192508501905f5b8181101561227e578251845260209384019390920191600101612260565b50919695505050505050565b602081525f611fcf60208301846121b1565b5f5f5f606084860312156122ae575f5ffd5b83356122b98161202d565b925060208401356122c98161202d565b915060408401356122d98161202d565b809150509250925092565b5f602082840312156122f4575f5ffd5b8151611fcf8161202d565b634e487b7160e01b5f52602160045260245ffd5b6020810160028310612327576123276122ff565b91905290565b5f6001600160401b03821115612345576123456120c8565b5060051b60200190565b5f82601f83011261235e575f5ffd5b815161237161236c8261232d565b6120dc565b8082825260208201915060208360051b860101925085831115612392575f5ffd5b602085015b838110156123b85780516123aa8161202d565b835260209283019201612397565b5095945050505050565b5f602082840312156123d2575f5ffd5b81516001600160401b038111156123e7575f5ffd5b6121f98482850161234f565b5f60208284031215612403575f5ffd5b815160ff81168114611fcf575f5ffd5b634e487b7160e01b5f52601160045260245ffd5b6001815b60018411156124625780850481111561244657612446612413565b600184161561245457908102905b60019390931c92800261242b565b935093915050565b5f8261247857506001611b5f565b8161248457505f611b5f565b816001811461249a57600281146124a4576124c0565b6001915050611b5f565b60ff8411156124b5576124b5612413565b50506001821b611b5f565b5060208310610133831016604e8410600b84101617156124e3575081810a611b5f565b6124ef5f198484612427565b805f190482111561250257612502612413565b029392505050565b5f611fcf60ff84168361246a565b634e487b7160e01b5f52603260045260245ffd5b5f5f6040838503121561253d575f5ffd5b82516001600160401b03811115612552575f5ffd5b61255e8582860161234f565b92505060208301516001600160401b03811115612579575f5ffd5b8301601f81018513612589575f5ffd5b805161259761236c8261232d565b8082825260208201915060208360051b8501019250878311156125b8575f5ffd5b6020840193505b828410156125da5783518252602093840193909101906125bf565b809450505050509250929050565b5f602082840312156125f8575f5ffd5b5051919050565b80820180821115611b5f57611b5f612413565b838152602081018390526060810160048310612630576126306122ff565b826040830152949350505050565b81810381811115611b5f57611b5f612413565b8082028115828204841417611b5f57611b5f612413565b5f8261268257634e487b7160e01b5f52601260045260245ffd5b500490565b5f6001820161269857612698612413565b5060010190565b60ff8281168282160390811115611b5f57611b5f612413565b5f82518060208501845e5f92019182525091905056fe360894a13ba1a3210667c828492db98dca3e2076cc3735a920a3ca505d382bbca2646970667358221220c58fa91f4432365a836ffbb24b19b0a2b3101d62607a1b97547fc144aaf15ce164736f6c634300081c0033",
  "linkReferences": {},
  "deployedLinkReferences": {}
}