{
  "_format": "hh-sol-artifact-1",
  "contractName": "InternalStatesOrchestrator",
  "sourceName": "contracts/orchestrators/InternalStatesOrchestrator.sol",
  "abi": [
    {
      "inputs": [
        {
          "internalType": "address",
          "name": "target",
          "type": "address"
        }
      ],
      "name": "AddressEmptyCode",
      "type": "error"
    },
    {
      "inputs": [
        {
          "internalType": "address",
          "name": "implementation",
          "type": "address"
        }
      ],
      "name": "ERC1967InvalidImplementation",
      "type": "error"
    },
    {
      "inputs": [],
      "name": "ERC1967NonPayable",
      "type": "error"
    },
    {
      "inputs": [],
      "name": "FailedCall",
      "type": "error"
    },
    {
      "inputs": [],
      "name": "InvalidInitialization",
      "type": "error"
    },
    {
      "inputs": [],
      "name": "NotAuthorized",
      "type": "error"
    },
    {
      "inputs": [],
      "name": "NotInitializing",
      "type": "error"
    },
    {
      "inputs": [
        {
          "internalType": "address",
          "name": "owner",
          "type": "address"
        }
      ],
      "name": "OwnableInvalidOwner",
      "type": "error"
    },
    {
      "inputs": [
        {
          "internalType": "address",
          "name": "account",
          "type": "address"
        }
      ],
      "name": "OwnableUnauthorizedAccount",
      "type": "error"
    },
    {
      "inputs": [],
      "name": "ReentrancyGuardReentrantCall",
      "type": "error"
    },
    {
      "inputs": [],
      "name": "TooEarly",
      "type": "error"
    },
    {
      "inputs": [],
      "name": "UUPSUnauthorizedCallContext",
      "type": "error"
    },
    {
      "inputs": [
        {
          "internalType": "bytes32",
          "name": "slot",
          "type": "bytes32"
        }
      ],
      "name": "UUPSUnsupportedProxiableUUID",
      "type": "error"
    },
    {
      "inputs": [],
      "name": "ZeroAddress",
      "type": "error"
    },
    {
      "anonymous": false,
      "inputs": [
        {
          "indexed": true,
          "internalType": "address",
          "name": "newAutomationRegistry",
          "type": "address"
        }
      ],
      "name": "AutomationRegistryUpdated",
      "type": "event"
    },
    {
      "anonymous": false,
      "inputs": [
        {
          "indexed": false,
          "internalType": "uint64",
          "name": "version",
          "type": "uint64"
        }
      ],
      "name": "Initialized",
      "type": "event"
    },
    {
      "anonymous": false,
      "inputs": [
        {
          "indexed": false,
          "internalType": "uint256",
          "name": "epochCounter",
          "type": "uint256"
        }
      ],
      "name": "InternalStateProcessed",
      "type": "event"
    },
    {
      "anonymous": false,
      "inputs": [
        {
          "indexed": true,
          "internalType": "address",
          "name": "previousOwner",
          "type": "address"
        },
        {
          "indexed": true,
          "internalType": "address",
          "name": "newOwner",
          "type": "address"
        }
      ],
      "name": "OwnershipTransferStarted",
      "type": "event"
    },
    {
      "anonymous": false,
      "inputs": [
        {
          "indexed": true,
          "internalType": "address",
          "name": "previousOwner",
          "type": "address"
        },
        {
          "indexed": true,
          "internalType": "address",
          "name": "newOwner",
          "type": "address"
        }
      ],
      "name": "OwnershipTransferred",
      "type": "event"
    },
    {
      "anonymous": false,
      "inputs": [
        {
          "indexed": true,
          "internalType": "address",
          "name": "implementation",
          "type": "address"
        }
      ],
      "name": "Upgraded",
      "type": "event"
    },
    {
      "inputs": [],
      "name": "UPGRADE_INTERFACE_VERSION",
      "outputs": [
        {
          "internalType": "string",
          "name": "",
          "type": "string"
        }
      ],
      "stateMutability": "view",
      "type": "function"
    },
    {
      "inputs": [],
      "name": "acceptOwnership",
      "outputs": [],
      "stateMutability": "nonpayable",
      "type": "function"
    },
    {
      "inputs": [],
      "name": "automationRegistry",
      "outputs": [
        {
          "internalType": "address",
          "name": "",
          "type": "address"
        }
      ],
      "stateMutability": "view",
      "type": "function"
    },
    {
      "inputs": [
        {
          "internalType": "bytes",
          "name": "",
          "type": "bytes"
        }
      ],
      "name": "checkUpkeep",
      "outputs": [
        {
          "internalType": "bool",
          "name": "upkeepNeeded",
          "type": "bool"
        },
        {
          "internalType": "bytes",
          "name": "performData",
          "type": "bytes"
        }
      ],
      "stateMutability": "view",
      "type": "function"
    },
    {
      "inputs": [],
      "name": "config",
      "outputs": [
        {
          "internalType": "contract IOrionConfig",
          "name": "",
          "type": "address"
        }
      ],
      "stateMutability": "view",
      "type": "function"
    },
    {
      "inputs": [],
      "name": "epochCounter",
      "outputs": [
        {
          "internalType": "uint256",
          "name": "",
          "type": "uint256"
        }
      ],
      "stateMutability": "view",
      "type": "function"
    },
    {
      "inputs": [],
      "name": "expectedUnderlyingBuyAmount",
      "outputs": [
        {
          "internalType": "uint256",
          "name": "",
          "type": "uint256"
        }
      ],
      "stateMutability": "view",
      "type": "function"
    },
    {
      "inputs": [],
      "name": "expectedUnderlyingSellAmount",
      "outputs": [
        {
          "internalType": "uint256",
          "name": "",
          "type": "uint256"
        }
      ],
      "stateMutability": "view",
      "type": "function"
    },
    {
      "inputs": [],
      "name": "getBuyingOrders",
      "outputs": [
        {
          "internalType": "address[]",
          "name": "tokens",
          "type": "address[]"
        },
        {
          "internalType": "uint256[]",
          "name": "amounts",
          "type": "uint256[]"
        }
      ],
      "stateMutability": "view",
      "type": "function"
    },
    {
      "inputs": [],
      "name": "getSellingOrders",
      "outputs": [
        {
          "internalType": "address[]",
          "name": "tokens",
          "type": "address[]"
        },
        {
          "internalType": "uint256[]",
          "name": "amounts",
          "type": "uint256[]"
        }
      ],
      "stateMutability": "view",
      "type": "function"
    },
    {
      "inputs": [
        {
          "internalType": "address",
          "name": "initialOwner",
          "type": "address"
        },
        {
          "internalType": "address",
          "name": "automationRegistry_",
          "type": "address"
        },
        {
          "internalType": "address",
          "name": "config_",
          "type": "address"
        }
      ],
      "name": "initialize",
      "outputs": [],
      "stateMutability": "nonpayable",
      "type": "function"
    },
    {
      "inputs": [],
      "name": "intentFactor",
      "outputs": [
        {
          "internalType": "uint256",
          "name": "",
          "type": "uint256"
        }
      ],
      "stateMutability": "view",
      "type": "function"
    },
    {
      "inputs": [],
      "name": "nextUpdateTime",
      "outputs": [
        {
          "internalType": "uint256",
          "name": "",
          "type": "uint256"
        }
      ],
      "stateMutability": "view",
      "type": "function"
    },
    {
      "inputs": [],
      "name": "owner",
      "outputs": [
        {
          "internalType": "address",
          "name": "",
          "type": "address"
        }
      ],
      "stateMutability": "view",
      "type": "function"
    },
    {
      "inputs": [],
      "name": "pendingOwner",
      "outputs": [
        {
          "internalType": "address",
          "name": "",
          "type": "address"
        }
      ],
      "stateMutability": "view",
      "type": "function"
    },
    {
      "inputs": [
        {
          "internalType": "bytes",
          "name": "",
          "type": "bytes"
        }
      ],
      "name": "performUpkeep",
      "outputs": [],
      "stateMutability": "nonpayable",
      "type": "function"
    },
    {
      "inputs": [],
      "name": "proxiableUUID",
      "outputs": [
        {
          "internalType": "bytes32",
          "name": "",
          "type": "bytes32"
        }
      ],
      "stateMutability": "view",
      "type": "function"
    },
    {
      "inputs": [],
      "name": "registry",
      "outputs": [
        {
          "internalType": "contract IOracleRegistry",
          "name": "",
          "type": "address"
        }
      ],
      "stateMutability": "view",
      "type": "function"
    },
    {
      "inputs": [],
      "name": "renounceOwnership",
      "outputs": [],
      "stateMutability": "nonpayable",
      "type": "function"
    },
    {
      "inputs": [
        {
          "internalType": "address",
          "name": "newOwner",
          "type": "address"
        }
      ],
      "name": "transferOwnership",
      "outputs": [],
      "stateMutability": "nonpayable",
      "type": "function"
    },
    {
      "inputs": [],
      "name": "underlyingDecimals",
      "outputs": [
        {
          "internalType": "uint8",
          "name": "",
          "type": "uint8"
        }
      ],
      "stateMutability": "view",
      "type": "function"
    },
    {
      "inputs": [
        {
          "internalType": "address",
          "name": "newAutomationRegistry",
          "type": "address"
        }
      ],
      "name": "updateAutomationRegistry",
      "outputs": [],
      "stateMutability": "nonpayable",
      "type": "function"
    },
    {
      "inputs": [
        {
          "internalType": "address",
          "name": "newConfig",
          "type": "address"
        }
      ],
      "name": "updateConfig",
      "outputs": [],
      "stateMutability": "nonpayable",
      "type": "function"
    },
    {
      "inputs": [],
      "name": "updateInterval",
      "outputs": [
        {
          "internalType": "uint256",
          "name": "",
          "type": "uint256"
        }
      ],
      "stateMutability": "view",
      "type": "function"
    },
    {
      "inputs": [
        {
          "internalType": "address",
          "name": "newImplementation",
          "type": "address"
        },
        {
          "internalType": "bytes",
          "name": "data",
          "type": "bytes"
        }
      ],
      "name": "upgradeToAndCall",
      "outputs": [],
      "stateMutability": "payable",
      "type": "function"
    }
  ],
  "bytecode": "0x60a0604052306080523480156012575f5ffd5b506080516125556100395f395f81816118ad015281816118d60152611a1501526125555ff3fe608060405260043610610161575f3560e01c80636e04ff0d116100cd578063a08b82d711610087578063c2cb5d8811610062578063c2cb5d88146103ed578063e30c397814610401578063f2fde38b14610415578063fd2c80ae14610434575f5ffd5b8063a08b82d71461036f578063ad3cb1cc14610391578063c0c53b8b146103ce575f5ffd5b80636e04ff0d146102c8578063715018a6146102f557806379502c551461030957806379ba5097146103285780637b1039991461033c5780638da5cb5b1461035b575f5ffd5b80634585e33b1161011e5780634585e33b146102175780634a1d9625146102365780634f1ef2861461024b57806352d1902d1461025e5780635dc228a0146102725780636cc919c8146102a9575f5ffd5b806306cce8481461016557806314b19c5a1461018d57806314b5d07f146101a257806325a760c2146101c35780632b0088b4146101ee57806335238fb814610203575b5f5ffd5b348015610170575f5ffd5b5061017a60105481565b6040519081526020015b60405180910390f35b348015610198575f5ffd5b5061017a60035481565b3480156101ad575f5ffd5b506101c16101bc366004611e72565b610448565b005b3480156101ce575f5ffd5b506006546101dc9060ff1681565b60405160ff9091168152602001610184565b3480156101f9575f5ffd5b5061017a60055481565b34801561020e575f5ffd5b5061017a5f5481565b348015610222575f5ffd5b506101c1610231366004611e8d565b6104c0565b348015610241575f5ffd5b5061017a60115481565b6101c1610259366004611f3d565b610af8565b348015610269575f5ffd5b5061017a610b13565b34801561027d575f5ffd5b50600154610291906001600160a01b031681565b6040516001600160a01b039091168152602001610184565b3480156102b4575f5ffd5b506101c16102c3366004611e72565b610b2e565b3480156102d3575f5ffd5b506102e76102e2366004611e8d565b610b7f565b604051610184929190612010565b348015610300575f5ffd5b506101c1610ba7565b348015610314575f5ffd5b50600254610291906001600160a01b031681565b348015610333575f5ffd5b506101c1610bba565b348015610347575f5ffd5b50600454610291906001600160a01b031681565b348015610366575f5ffd5b50610291610c07565b34801561037a575f5ffd5b50610383610c3b565b60405161018492919061202a565b34801561039c575f5ffd5b506103c1604051806040016040528060058152602001640352e302e360dc1b81525081565b60405161018491906120b3565b3480156103d9575f5ffd5b506101c16103e83660046120c5565b610e4b565b3480156103f8575f5ffd5b506103836111b1565b34801561040c575f5ffd5b506102916113b8565b348015610420575f5ffd5b506101c161042f366004611e72565b6113e0565b34801561043f575f5ffd5b5061017a603c81565b610450611465565b6001600160a01b0381166104775760405163d92e233d60e01b815260040160405180910390fd5b600180546001600160a01b0319166001600160a01b0383169081179091556040517f6cc7ebdb6c8c53291c5ae16148cab9b049d23bf5bde5632900b40edff56fcb43905f90a250565b6001546001600160a01b031633146104eb5760405163ea8e4eb560e01b815260040160405180910390fd5b6104f3611497565b6104fb6114e1565b610503611525565b600254604051631da09e4360e31b81525f916001600160a01b03169063ed04f21890610533908490600401612121565b5f60405180830381865afa15801561054d573d5f5f3e3d5ffd5b505050506040513d5f823e601f3d908101601f1916820160405261057491908101906121d0565b90505f5b8151811015610a86575f82828151811061059457610594612209565b602002602001015190505f5f826001600160a01b031663d3d034586040518163ffffffff1660e01b81526004015f60405180830381865afa1580156105db573d5f5f3e3d5ffd5b505050506040513d5f823e601f3d908101601f19168201604052610602919081019061221d565b90925090505f805b8351811015610817575f84828151811061062657610626612209565b6020908102919091018101516001600160a01b0381165f908152600e909252604082205490925060ff1690036106e057806001600160a01b031663313ce5676040518163ffffffff1660e01b8152600401602060405180830381865afa158015610692573d5f5f3e3d5ffd5b505050506040513d601f19601f820116820180604052508101906106b691906122d9565b6001600160a01b0382165f908152600e60205260409020805460ff191660ff929092169190911790555b6001600160a01b0381165f908152600e6020908152604080832054600790925282205460ff9091169181900361079b57600480546040516341976e0960e01b81526001600160a01b03868116938201939093529116906341976e0990602401602060405180830381865afa15801561075a573d5f5f3e3d5ffd5b505050506040513d601f19601f8201168201806040525081019061077e91906122f9565b6001600160a01b0384165f90815260076020526040902081905590505b5f6107c0828887815181106107b2576107b2612209565b602002602001015185611627565b90506107cc8187612324565b6001600160a01b0385165f908152600860205260408120805492985083929091906107f8908490612324565b90915550610807905084611669565b50506001909201915061060a9050565b505f846001600160a01b031663a68a5267866001600160a01b031663c37fc8a86040518163ffffffff1660e01b8152600401602060405180830381865afa158015610864573d5f5f3e3d5ffd5b505050506040513d601f19601f8201168201806040525081019061088891906122f9565b845f6040518463ffffffff1660e01b81526004016108a893929190612337565b602060405180830381865afa1580156108c3573d5f5f3e3d5ffd5b505050506040513d601f19601f820116820180604052508101906108e791906122f9565b90505f81866001600160a01b031663d1699c266040518163ffffffff1660e01b8152600401602060405180830381865afa158015610927573d5f5f3e3d5ffd5b505050506040513d601f19601f8201168201806040525081019061094b91906122f9565b6109559085612324565b61095f9190612363565b90505f5f876001600160a01b031663b6eba6536040518163ffffffff1660e01b81526004015f60405180830381865afa15801561099e573d5f5f3e3d5ffd5b505050506040513d5f823e601f3d908101601f191682016040526109c5919081019061221d565b815191935091505f5b81811015610a70575f8482815181106109e9576109e9612209565b602002602001015190505f848381518110610a0657610a06612209565b602002602001015190505f6005548289610a209190612376565b610a2a919061238d565b6001600160a01b0384165f90815260096020526040812080549293508392909190610a56908490612324565b90915550610a65905083611669565b5050506001016109ce565b5050600190980197506105789650505050505050565b50610a8f6116ee565b7f9375d658f91055a030c54d5cf460d6f12968b10b80b0797c1aa5c02e4dca9403600354604051610ac291815260200190565b60405180910390a150610af460017f9b779b17422d0df92223018b32b4d1fa46e071723d6817e2486d003becc55f0055565b5050565b610b006118a2565b610b0982611946565b610af4828261194e565b5f610b1c611a0a565b505f5160206125005f395f51905f5290565b610b36611465565b6001600160a01b038116610b5d5760405163d92e233d60e01b815260040160405180910390fd5b600280546001600160a01b0319166001600160a01b0392909216919091179055565b5f6060610b8d5f5442101590565b915060405180602001604052805f81525090509250929050565b610baf611465565b610bb85f611a53565b565b3380610bc46113b8565b6001600160a01b031614610bfb5760405163118cdaa760e01b81526001600160a01b03821660048201526024015b60405180910390fd5b610c0481611a53565b50565b5f807f9016d09d72d40fdae2fd8ceac6b6234c7706214fd39c1cd1e609a0528c1993005b546001600160a01b031692915050565b600c80546040805160208084028201810190925282815260609384935f93830182828015610c9057602002820191905f5260205f20905b81546001600160a01b03168152600190910190602001808311610c72575b505083519394505f9250829150505b82811015610d04575f60076004015f868481518110610cc057610cc0612209565b60200260200101516001600160a01b03166001600160a01b031681526020019081526020015f20541115610cfc5781610cf8816123ac565b9250505b600101610c9f565b50806001600160401b03811115610d1d57610d1d611ef9565b604051908082528060200260200182016040528015610d46578160200160208202803683370190505b509450806001600160401b03811115610d6157610d61611ef9565b604051908082528060200260200182016040528015610d8a578160200160208202803683370190505b5093505f805b83811015610e42575f858281518110610dab57610dab612209565b6020908102919091018101516001600160a01b0381165f908152600b9092526040909120549091508015610e385781898581518110610dec57610dec612209565b60200260200101906001600160a01b031690816001600160a01b03168152505080888581518110610e1f57610e1f612209565b602090810291909101015283610e34816123ac565b9450505b5050600101610d90565b50505050509091565b5f610e54611a8b565b805490915060ff600160401b82041615906001600160401b03165f81158015610e7a5750825b90505f826001600160401b03166001148015610e955750303b155b905081158015610ea3575080155b15610ec15760405163f92ee8a960e01b815260040160405180910390fd5b845467ffffffffffffffff191660011785558315610eeb57845460ff60401b1916600160401b1785555b610ef488611ab5565b610efc611ac6565b610f04611ace565b610f0c611ac6565b6001600160a01b038716610f335760405163d92e233d60e01b815260040160405180910390fd5b6001600160a01b038616610f5a5760405163d92e233d60e01b815260040160405180910390fd5b600180546001600160a01b03808a166001600160a01b03199283161790925560028054928916929091168217905560408051634bb93ab160e01b81529051634bb93ab1916004808201926020929091908290030181865afa158015610fc1573d5f5f3e3d5ffd5b505050506040513d601f19601f82011682018060405250810190610fe591906123c4565b600480546001600160a01b0319166001600160a01b039283161781556002546040805163d1717c7d60e01b81529051919093169263d1717c7d92818101926020929091908290030181865afa158015611040573d5f5f3e3d5ffd5b505050506040513d601f19601f8201168201806040525081019061106491906122d9565b61106f90600a6124c2565b60055560025460408051631c56369f60e21b815290516001600160a01b0390921691637158da7c916004808201926020929091908290030181865afa1580156110ba573d5f5f3e3d5ffd5b505050506040513d601f19601f820116820180604052508101906110de91906123c4565b6001600160a01b031663313ce5676040518163ffffffff1660e01b8152600401602060405180830381865afa158015611119573d5f5f3e3d5ffd5b505050506040513d601f19601f8201168201806040525081019061113d91906122d9565b6006805460ff191660ff9290921691909117905561115a42611ade565b5f90815560035583156111a757845460ff60401b19168555604051600181527fc7f505b2f371ae2175ee4913f4499e1f2633a7b5936321eed1cdaeb6115181d29060200160405180910390a15b5050505050505050565b600c80546040805160208084028201810190925282815260609384935f9383018282801561120657602002820191905f5260205f20905b81546001600160a01b031681526001909101906020018083116111e8575b505083519394505f9250829150505b8281101561127a575f60076003015f86848151811061123657611236612209565b60200260200101516001600160a01b03166001600160a01b031681526020019081526020015f20541115611272578161126e816123ac565b9250505b600101611215565b50806001600160401b0381111561129357611293611ef9565b6040519080825280602002602001820160405280156112bc578160200160208202803683370190505b509450806001600160401b038111156112d7576112d7611ef9565b604051908082528060200260200182016040528015611300578160200160208202803683370190505b5093505f805b83811015610e42575f85828151811061132157611321612209565b6020908102919091018101516001600160a01b0381165f908152600a90925260409091205490915080156113ae578189858151811061136257611362612209565b60200260200101906001600160a01b031690816001600160a01b0316815250508088858151811061139557611395612209565b6020908102919091010152836113aa816123ac565b9450505b5050600101611306565b5f807f237e158222e3e6968b72b9db0d8043aacf074ad9f650f0d1606b4d82ee432c00610c2b565b6113e8611465565b7f237e158222e3e6968b72b9db0d8043aacf074ad9f650f0d1606b4d82ee432c0080546001600160a01b0319166001600160a01b038316908117825561142c610c07565b6001600160a01b03167f38d16b8cac22d99fc7c124b9cd0de2d3fa1faef420bfe791d8c362d765e2270060405160405180910390a35050565b3361146e610c07565b6001600160a01b031614610bb85760405163118cdaa760e01b8152336004820152602401610bf2565b7f9b779b17422d0df92223018b32b4d1fa46e071723d6817e2486d003becc55f008054600119016114db57604051633ee5aeb560e01b815260040160405180910390fd5b60029055565b5f544210156115035760405163085de62560e01b815260040160405180910390fd5b61150c42611ade565b5f908155600380549161151e836123ac565b9190505550565b5f600760050180548060200260200160405190810160405280929190818152602001828054801561157d57602002820191905f5260205f20905b81546001600160a01b0316815260019091019060200180831161155f575b505083519394505f925050505b8181101561161b575f8382815181106115a5576115a5612209565b6020908102919091018101516001600160a01b03165f9081526007825260408082208290556008835280822082905560098352808220829055600a8352808220829055600b8352808220829055600d8352808220805460ff19908116909155600e9093529020805490911690555060010161158a565b50610af4600c5f611e30565b5f806116338486612376565b6006549091505f9061164b908390869060ff16611aea565b905061165f670de0b6b3a76400008261238d565b9695505050505050565b6001600160a01b0381165f908152600d602052604090205460ff16610c0457600c805460018181019092557fdf6966c971051c3d54ec59162606531493a51404a002842f56009d7e5cf4a8c70180546001600160a01b0384166001600160a01b031990911681179091555f908152600d60205260409020805460ff1916909117905550565b5f600760050180548060200260200160405190810160405280929190818152602001828054801561174657602002820191905f5260205f20905b81546001600160a01b03168152600190910190602001808311611728575b505083515f6010819055601181905594955093925050505b81811015611877575f83828151811061177957611779612209565b6020908102919091018101516001600160a01b0381165f908152600883526040808220546009855281832054600e909552912054919350919060ff1681831115611823575f6117c88385612363565b90508060105f8282546117db9190612324565b90915550506001600160a01b0385165f90815260076020526040812054611803908385611b47565b6001600160a01b0387165f908152600a6020526040902055506118679050565b82821115611867575f6118368484612363565b90508060115f8282546118499190612324565b90915550506001600160a01b0385165f908152600b60205260409020555b50506001909201915061175e9050565b505050565b60017f9b779b17422d0df92223018b32b4d1fa46e071723d6817e2486d003becc55f0055565b306001600160a01b037f000000000000000000000000000000000000000000000000000000000000000016148061192857507f00000000000000000000000000000000000000000000000000000000000000006001600160a01b031661191c5f5160206125005f395f51905f52546001600160a01b031690565b6001600160a01b031614155b15610bb85760405163703e46dd60e11b815260040160405180910390fd5b610c04611465565b816001600160a01b03166352d1902d6040518163ffffffff1660e01b8152600401602060405180830381865afa9250505080156119a8575060408051601f3d908101601f191682019092526119a5918101906122f9565b60015b6119d057604051634c9c8ce360e01b81526001600160a01b0383166004820152602401610bf2565b5f5160206125005f395f51905f528114611a0057604051632a87526960e21b815260048101829052602401610bf2565b6118778383611b85565b306001600160a01b037f00000000000000000000000000000000000000000000000000000000000000001614610bb85760405163703e46dd60e11b815260040160405180910390fd5b7f237e158222e3e6968b72b9db0d8043aacf074ad9f650f0d1606b4d82ee432c0080546001600160a01b0319168155610af482611bda565b5f807ff0c57e16840df040f15088dc2f81fe391c3923bec73e23a9662efc9c229c6a005b92915050565b611abd611c4a565b610c0481611c6f565b610bb8611c4a565b611ad6611c4a565b610bb8611ca0565b5f611aaf603c83612324565b5f8260ff168260ff1610611b1e57611b0283836124d0565b611b0d90600a6124c2565b611b179085612376565b9050611b40565b611b2882846124d0565b611b3390600a6124c2565b611b3d908561238d565b90505b9392505050565b6006545f908190611b5d90859060ff1685611aea565b905084611b72670de0b6b3a764000083612376565b611b7c919061238d565b95945050505050565b611b8e82611ca8565b6040516001600160a01b038316907fbc7cd75a20ee27fd9adebab32041f755214dbc6bffa90cc0225b39da2e5c2d3b905f90a2805115611bd2576118778282611d0b565b610af4611d74565b7f9016d09d72d40fdae2fd8ceac6b6234c7706214fd39c1cd1e609a0528c19930080546001600160a01b031981166001600160a01b03848116918217845560405192169182907f8be0079c531659141344cd1fd0a4f28419497f9722a3daafe3b4186f6b6457e0905f90a3505050565b611c52611d93565b610bb857604051631afcd79f60e31b815260040160405180910390fd5b611c77611c4a565b6001600160a01b038116610bfb57604051631e4fbdf760e01b81525f6004820152602401610bf2565b61187c611c4a565b806001600160a01b03163b5f03611cdd57604051634c9c8ce360e01b81526001600160a01b0382166004820152602401610bf2565b5f5160206125005f395f51905f5280546001600160a01b0319166001600160a01b0392909216919091179055565b60605f5f846001600160a01b031684604051611d2791906124e9565b5f60405180830381855af49150503d805f8114611d5f576040519150601f19603f3d011682016040523d82523d5f602084013e611d64565b606091505b5091509150611b7c858383611dac565b3415610bb85760405163b398979f60e01b815260040160405180910390fd5b5f611d9c611a8b565b54600160401b900460ff16919050565b606082611dc157611dbc82611e08565b611b40565b8151158015611dd857506001600160a01b0384163b155b15611e0157604051639996b31560e01b81526001600160a01b0385166004820152602401610bf2565b5080611b40565b805115611e1757805160208201fd5b60405163d6bda27560e01b815260040160405180910390fd5b5080545f8255905f5260205f2090810190610c0491905b80821115611e5a575f8155600101611e47565b5090565b6001600160a01b0381168114610c04575f5ffd5b5f60208284031215611e82575f5ffd5b8135611b4081611e5e565b5f5f60208385031215611e9e575f5ffd5b82356001600160401b03811115611eb3575f5ffd5b8301601f81018513611ec3575f5ffd5b80356001600160401b03811115611ed8575f5ffd5b856020828401011115611ee9575f5ffd5b6020919091019590945092505050565b634e487b7160e01b5f52604160045260245ffd5b604051601f8201601f191681016001600160401b0381118282101715611f3557611f35611ef9565b604052919050565b5f5f60408385031215611f4e575f5ffd5b8235611f5981611e5e565b915060208301356001600160401b03811115611f73575f5ffd5b8301601f81018513611f83575f5ffd5b80356001600160401b03811115611f9c57611f9c611ef9565b611faf601f8201601f1916602001611f0d565b818152866020838501011115611fc3575f5ffd5b816020840160208301375f602083830101528093505050509250929050565b5f81518084528060208401602086015e5f602082860101526020601f19601f83011685010191505092915050565b8215158152604060208201525f611b3d6040830184611fe2565b604080825283519082018190525f9060208501906060840190835b8181101561206c5783516001600160a01b0316835260209384019390920191600101612045565b5050838103602080860191909152855180835291810192508501905f5b818110156120a7578251845260209384019390920191600101612089565b50919695505050505050565b602081525f611b406020830184611fe2565b5f5f5f606084860312156120d7575f5ffd5b83356120e281611e5e565b925060208401356120f281611e5e565b9150604084013561210281611e5e565b809150509250925092565b634e487b7160e01b5f52602160045260245ffd5b60208101600283106121355761213561210d565b91905290565b5f6001600160401b0382111561215357612153611ef9565b5060051b60200190565b5f82601f83011261216c575f5ffd5b815161217f61217a8261213b565b611f0d565b8082825260208201915060208360051b8601019250858311156121a0575f5ffd5b602085015b838110156121c65780516121b881611e5e565b8352602092830192016121a5565b5095945050505050565b5f602082840312156121e0575f5ffd5b81516001600160401b038111156121f5575f5ffd5b6122018482850161215d565b949350505050565b634e487b7160e01b5f52603260045260245ffd5b5f5f6040838503121561222e575f5ffd5b82516001600160401b03811115612243575f5ffd5b61224f8582860161215d565b92505060208301516001600160401b0381111561226a575f5ffd5b8301601f8101851361227a575f5ffd5b805161228861217a8261213b565b8082825260208201915060208360051b8501019250878311156122a9575f5ffd5b6020840193505b828410156122cb5783518252602093840193909101906122b0565b809450505050509250929050565b5f602082840312156122e9575f5ffd5b815160ff81168114611b40575f5ffd5b5f60208284031215612309575f5ffd5b5051919050565b634e487b7160e01b5f52601160045260245ffd5b80820180821115611aaf57611aaf612310565b8381526020810183905260608101600483106123555761235561210d565b826040830152949350505050565b81810381811115611aaf57611aaf612310565b8082028115828204841417611aaf57611aaf612310565b5f826123a757634e487b7160e01b5f52601260045260245ffd5b500490565b5f600182016123bd576123bd612310565b5060010190565b5f602082840312156123d4575f5ffd5b8151611b4081611e5e565b6001815b600184111561241a578085048111156123fe576123fe612310565b600184161561240c57908102905b60019390931c9280026123e3565b935093915050565b5f8261243057506001611aaf565b8161243c57505f611aaf565b8160018114612452576002811461245c57612478565b6001915050611aaf565b60ff84111561246d5761246d612310565b50506001821b611aaf565b5060208310610133831016604e8410600b841016171561249b575081810a611aaf565b6124a75f1984846123df565b805f19048211156124ba576124ba612310565b029392505050565b5f611b4060ff841683612422565b60ff8281168282160390811115611aaf57611aaf612310565b5f82518060208501845e5f92019182525091905056fe360894a13ba1a3210667c828492db98dca3e2076cc3735a920a3ca505d382bbca2646970667358221220a77f24af3415cd39540c9df47637f4aba8766bb4b3094214bf68318083ea228764736f6c634300081c0033",
  "linkReferences": {},
  "deployedLinkReferences": {}
}