{
  "_format": "hh-sol-artifact-1",
  "contractName": "InternalStatesOrchestrator",
  "sourceName": "contracts/orchestrators/InternalStatesOrchestrator.sol",
  "abi": [
    {
      "inputs": [
        {
          "internalType": "address",
          "name": "initialOwner",
          "type": "address"
        },
        {
          "internalType": "address",
          "name": "automationRegistry_",
          "type": "address"
        },
        {
          "internalType": "address",
          "name": "config_",
          "type": "address"
        }
      ],
      "stateMutability": "nonpayable",
      "type": "constructor"
    },
    {
      "inputs": [],
      "name": "InvalidArguments",
      "type": "error"
    },
    {
      "inputs": [],
      "name": "NotAuthorized",
      "type": "error"
    },
    {
      "inputs": [
        {
          "internalType": "address",
          "name": "owner",
          "type": "address"
        }
      ],
      "name": "OwnableInvalidOwner",
      "type": "error"
    },
    {
      "inputs": [
        {
          "internalType": "address",
          "name": "account",
          "type": "address"
        }
      ],
      "name": "OwnableUnauthorizedAccount",
      "type": "error"
    },
    {
      "inputs": [],
      "name": "ReentrancyGuardReentrantCall",
      "type": "error"
    },
    {
      "inputs": [],
      "name": "SystemNotIdle",
      "type": "error"
    },
    {
      "inputs": [],
      "name": "TooEarly",
      "type": "error"
    },
    {
      "inputs": [],
      "name": "ZeroAddress",
      "type": "error"
    },
    {
      "anonymous": false,
      "inputs": [
        {
          "indexed": true,
          "internalType": "address",
          "name": "newAutomationRegistry",
          "type": "address"
        }
      ],
      "name": "AutomationRegistryUpdated",
      "type": "event"
    },
    {
      "anonymous": false,
      "inputs": [
        {
          "indexed": false,
          "internalType": "uint256",
          "name": "epochCounter",
          "type": "uint256"
        }
      ],
      "name": "InternalStateProcessed",
      "type": "event"
    },
    {
      "anonymous": false,
      "inputs": [
        {
          "indexed": true,
          "internalType": "address",
          "name": "previousOwner",
          "type": "address"
        },
        {
          "indexed": true,
          "internalType": "address",
          "name": "newOwner",
          "type": "address"
        }
      ],
      "name": "OwnershipTransferred",
      "type": "event"
    },
    {
      "inputs": [],
      "name": "automationRegistry",
      "outputs": [
        {
          "internalType": "address",
          "name": "",
          "type": "address"
        }
      ],
      "stateMutability": "view",
      "type": "function"
    },
    {
      "inputs": [
        {
          "internalType": "bytes",
          "name": "",
          "type": "bytes"
        }
      ],
      "name": "checkUpkeep",
      "outputs": [
        {
          "internalType": "bool",
          "name": "upkeepNeeded",
          "type": "bool"
        },
        {
          "internalType": "bytes",
          "name": "performData",
          "type": "bytes"
        }
      ],
      "stateMutability": "view",
      "type": "function"
    },
    {
      "inputs": [],
      "name": "config",
      "outputs": [
        {
          "internalType": "contract IOrionConfig",
          "name": "",
          "type": "address"
        }
      ],
      "stateMutability": "view",
      "type": "function"
    },
    {
      "inputs": [],
      "name": "currentEncryptedMinibatchIndex",
      "outputs": [
        {
          "internalType": "uint256",
          "name": "",
          "type": "uint256"
        }
      ],
      "stateMutability": "view",
      "type": "function"
    },
    {
      "inputs": [],
      "name": "currentPhase",
      "outputs": [
        {
          "internalType": "enum IInternalStateOrchestrator.InternalUpkeepPhase",
          "name": "",
          "type": "uint8"
        }
      ],
      "stateMutability": "view",
      "type": "function"
    },
    {
      "inputs": [],
      "name": "currentTransparentVaultIndex",
      "outputs": [
        {
          "internalType": "uint256",
          "name": "",
          "type": "uint256"
        }
      ],
      "stateMutability": "view",
      "type": "function"
    },
    {
      "inputs": [],
      "name": "encryptedMinibatchSize",
      "outputs": [
        {
          "internalType": "uint256",
          "name": "",
          "type": "uint256"
        }
      ],
      "stateMutability": "view",
      "type": "function"
    },
    {
      "inputs": [
        {
          "internalType": "uint256",
          "name": "",
          "type": "uint256"
        }
      ],
      "name": "encryptedVaultsEpoch",
      "outputs": [
        {
          "internalType": "address",
          "name": "",
          "type": "address"
        }
      ],
      "stateMutability": "view",
      "type": "function"
    },
    {
      "inputs": [],
      "name": "epochCounter",
      "outputs": [
        {
          "internalType": "uint256",
          "name": "",
          "type": "uint256"
        }
      ],
      "stateMutability": "view",
      "type": "function"
    },
    {
      "inputs": [],
      "name": "getBuyingOrders",
      "outputs": [
        {
          "internalType": "address[]",
          "name": "tokens",
          "type": "address[]"
        },
        {
          "internalType": "uint256[]",
          "name": "amounts",
          "type": "uint256[]"
        }
      ],
      "stateMutability": "view",
      "type": "function"
    },
    {
      "inputs": [],
      "name": "getSellingOrders",
      "outputs": [
        {
          "internalType": "address[]",
          "name": "tokens",
          "type": "address[]"
        },
        {
          "internalType": "uint256[]",
          "name": "amounts",
          "type": "uint256[]"
        }
      ],
      "stateMutability": "view",
      "type": "function"
    },
    {
      "inputs": [],
      "name": "intentFactor",
      "outputs": [
        {
          "internalType": "uint256",
          "name": "",
          "type": "uint256"
        }
      ],
      "stateMutability": "view",
      "type": "function"
    },
    {
      "inputs": [],
      "name": "owner",
      "outputs": [
        {
          "internalType": "address",
          "name": "",
          "type": "address"
        }
      ],
      "stateMutability": "view",
      "type": "function"
    },
    {
      "inputs": [
        {
          "internalType": "bytes",
          "name": "performData",
          "type": "bytes"
        }
      ],
      "name": "performUpkeep",
      "outputs": [],
      "stateMutability": "nonpayable",
      "type": "function"
    },
    {
      "inputs": [],
      "name": "priceAdapterPrecision",
      "outputs": [
        {
          "internalType": "uint256",
          "name": "",
          "type": "uint256"
        }
      ],
      "stateMutability": "view",
      "type": "function"
    },
    {
      "inputs": [],
      "name": "registry",
      "outputs": [
        {
          "internalType": "contract IPriceAdapterRegistry",
          "name": "",
          "type": "address"
        }
      ],
      "stateMutability": "view",
      "type": "function"
    },
    {
      "inputs": [],
      "name": "renounceOwnership",
      "outputs": [],
      "stateMutability": "nonpayable",
      "type": "function"
    },
    {
      "inputs": [
        {
          "internalType": "address",
          "name": "newOwner",
          "type": "address"
        }
      ],
      "name": "transferOwnership",
      "outputs": [],
      "stateMutability": "nonpayable",
      "type": "function"
    },
    {
      "inputs": [
        {
          "internalType": "uint256",
          "name": "",
          "type": "uint256"
        }
      ],
      "name": "transparentVaultsEpoch",
      "outputs": [
        {
          "internalType": "address",
          "name": "",
          "type": "address"
        }
      ],
      "stateMutability": "view",
      "type": "function"
    },
    {
      "inputs": [],
      "name": "underlyingDecimals",
      "outputs": [
        {
          "internalType": "uint8",
          "name": "",
          "type": "uint8"
        }
      ],
      "stateMutability": "view",
      "type": "function"
    },
    {
      "inputs": [
        {
          "internalType": "address",
          "name": "newAutomationRegistry",
          "type": "address"
        }
      ],
      "name": "updateAutomationRegistry",
      "outputs": [],
      "stateMutability": "nonpayable",
      "type": "function"
    },
    {
      "inputs": [],
      "name": "updateFromConfig",
      "outputs": [],
      "stateMutability": "nonpayable",
      "type": "function"
    },
    {
      "inputs": [],
      "name": "updateInterval",
      "outputs": [
        {
          "internalType": "uint256",
          "name": "",
          "type": "uint256"
        }
      ],
      "stateMutability": "view",
      "type": "function"
    },
    {
      "inputs": [
        {
          "internalType": "uint256",
          "name": "newUpdateInterval",
          "type": "uint256"
        }
      ],
      "name": "updateUpdateInterval",
      "outputs": [],
      "stateMutability": "nonpayable",
      "type": "function"
    }
  ],
  "bytecode": "0x608060405234801561000f575f5ffd5b50604051612eaf380380612eaf83398101604081905261002e91610537565b826001600160a01b03811661005d57604051631e4fbdf760e01b81525f60048201526024015b60405180910390fd5b6100668161012a565b50600180556001600160a01b0381166100925760405163d92e233d60e01b815260040160405180910390fd5b6001600160a01b0382166100b95760405163d92e233d60e01b815260040160405180910390fd5b600380546001600160a01b0319166001600160a01b0383161790556100dc610179565b600280546001600160a01b0319166001600160a01b03841617905562015180601355610107426104dd565b60125550506015805460ff19169055505f60118190556016819055601855610711565b5f80546001600160a01b038381166001600160a01b0319831681178455604051919092169283917f8be0079c531659141344cd1fd0a4f28419497f9722a3daafe3b4186f6b6457e09190a35050565b6101816104f2565b60035f9054906101000a90046001600160a01b03166001600160a01b031663edcf9c1f6040518163ffffffff1660e01b8152600401602060405180830381865afa1580156101d1573d5f5f3e3d5ffd5b505050506040513d601f19601f820116820180604052508101906101f59190610581565b610212576040516312aecd8160e01b815260040160405180910390fd5b60035f9054906101000a90046001600160a01b03166001600160a01b031663015df9936040518163ffffffff1660e01b8152600401602060405180830381865afa158015610262573d5f5f3e3d5ffd5b505050506040513d601f19601f8201168201806040525081019061028691906105a7565b600480546001600160a01b0319166001600160a01b039283161781556003546040805163d1717c7d60e01b81529051919093169263d1717c7d92818101926020929091908290030181865afa1580156102e1573d5f5f3e3d5ffd5b505050506040513d601f19601f8201168201806040525081019061030591906105c2565b61031090600a6106d9565b60065560035460408051631c56369f60e21b815290516001600160a01b0390921691637158da7c916004808201926020929091908290030181865afa15801561035b573d5f5f3e3d5ffd5b505050506040513d601f19601f8201168201806040525081019061037f91906105a7565b6001600160a01b031663313ce5676040518163ffffffff1660e01b8152600401602060405180830381865afa1580156103ba573d5f5f3e3d5ffd5b505050506040513d601f19601f820116820180604052508101906103de91906105c2565b6007805460ff191660ff929092169190911790556003546040805163567ba71360e01b815290516001600160a01b039092169163567ba713916004808201926020929091908290030181865afa15801561043a573d5f5f3e3d5ffd5b505050506040513d601f19601f8201168201806040525081019061045e91906105c2565b61046990600a6106d9565b60055560035460408051630d8087bd60e21b815290516001600160a01b03909216916336021ef4916004808201926020929091908290030181865afa1580156104b4573d5f5f3e3d5ffd5b505050506040513d601f19601f820116820180604052508101906104d891906106e7565b601455565b5f601354826104ec91906106fe565b92915050565b5f546001600160a01b0316331461051e5760405163118cdaa760e01b8152336004820152602401610054565b565b6001600160a01b0381168114610534575f5ffd5b50565b5f5f5f60608486031215610549575f5ffd5b835161055481610520565b602085015190935061056581610520565b604085015190925061057681610520565b809150509250925092565b5f60208284031215610591575f5ffd5b815180151581146105a0575f5ffd5b9392505050565b5f602082840312156105b7575f5ffd5b81516105a081610520565b5f602082840312156105d2575f5ffd5b815160ff811681146105a0575f5ffd5b634e487b7160e01b5f52601160045260245ffd5b6001815b600184111561063157808504811115610615576106156105e2565b600184161561062357908102905b60019390931c9280026105fa565b935093915050565b5f82610647575060016104ec565b8161065357505f6104ec565b816001811461066957600281146106735761068f565b60019150506104ec565b60ff841115610684576106846105e2565b50506001821b6104ec565b5060208310610133831016604e8410600b84101617156106b2575081810a6104ec565b6106be5f1984846105f6565b805f19048211156106d1576106d16105e2565b029392505050565b5f6105a060ff841683610639565b5f602082840312156106f7575f5ffd5b5051919050565b808201808211156104ec576104ec6105e2565b6127918061071e5f395ff3fe608060405234801561000f575f5ffd5b5060043610610153575f3560e01c80636ad4634a116100bf578063a08b82d711610079578063a08b82d7146102be578063c2cb5d88146102d4578063ca1f32f1146102dc578063f21f5cfa146102e5578063f2fde38b146102ee578063fd2c80ae14610301575f5ffd5b80636ad4634a146102565780636e04ff0d1461025f578063715018a61461028057806379502c55146102885780637b1039991461029b5780638da5cb5b146102ae575f5ffd5b8063289a2f7611610110578063289a2f76146101e05780632b0088b41461020b57806336021ef4146102145780634585e33b1461021d57806358fac65b146102305780635dc228a014610243575f5ffd5b8063055ad42e1461015757806310c3b26f1461017a57806314b19c5a1461018f57806314b5d07f146101a657806325a760c2146101b9578063288157e9146101d8575b5f5ffd5b6015546101649060ff1681565b604051610171919061212f565b60405180910390f35b61018d610188366004612142565b61030a565b005b61019860115481565b604051908152602001610171565b61018d6101b436600461216d565b6103c8565b6007546101c69060ff1681565b60405160ff9091168152602001610171565b61018d6104d1565b6101f36101ee366004612142565b610835565b6040516001600160a01b039091168152602001610171565b61019860065481565b61019860145481565b61018d61022b366004612188565b61085d565b6101f361023e366004612142565b610b3c565b6002546101f3906001600160a01b031681565b61019860165481565b61027261026d366004612188565b610b4b565b6040516101719291906121f6565b61018d610ce0565b6003546101f3906001600160a01b031681565b6004546101f3906001600160a01b031681565b5f546001600160a01b03166101f3565b6102c6610cf3565b604051610171929190612234565b6102c6610f05565b61019860055481565b61019860185481565b61018d6102fc36600461216d565b61110e565b61019860135481565b610312611150565b805f03610332576040516317dbc4cb60e21b815260040160405180910390fd5b60035f9054906101000a90046001600160a01b03166001600160a01b031663edcf9c1f6040518163ffffffff1660e01b8152600401602060405180830381865afa158015610382573d5f5f3e3d5ffd5b505050506040513d601f19601f820116820180604052508101906103a691906122bd565b6103c3576040516312aecd8160e01b815260040160405180910390fd5b601355565b6103d0611150565b6001600160a01b0381166103f75760405163d92e233d60e01b815260040160405180910390fd5b60035f9054906101000a90046001600160a01b03166001600160a01b031663edcf9c1f6040518163ffffffff1660e01b8152600401602060405180830381865afa158015610447573d5f5f3e3d5ffd5b505050506040513d601f19601f8201168201806040525081019061046b91906122bd565b610488576040516312aecd8160e01b815260040160405180910390fd5b600280546001600160a01b0319166001600160a01b0383169081179091556040517f6cc7ebdb6c8c53291c5ae16148cab9b049d23bf5bde5632900b40edff56fcb43905f90a250565b6104d9611150565b60035f9054906101000a90046001600160a01b03166001600160a01b031663edcf9c1f6040518163ffffffff1660e01b8152600401602060405180830381865afa158015610529573d5f5f3e3d5ffd5b505050506040513d601f19601f8201168201806040525081019061054d91906122bd565b61056a576040516312aecd8160e01b815260040160405180910390fd5b60035f9054906101000a90046001600160a01b03166001600160a01b031663015df9936040518163ffffffff1660e01b8152600401602060405180830381865afa1580156105ba573d5f5f3e3d5ffd5b505050506040513d601f19601f820116820180604052508101906105de91906122dc565b600480546001600160a01b0319166001600160a01b039283161781556003546040805163d1717c7d60e01b81529051919093169263d1717c7d92818101926020929091908290030181865afa158015610639573d5f5f3e3d5ffd5b505050506040513d601f19601f8201168201806040525081019061065d91906122f7565b61066890600a61240e565b60065560035460408051631c56369f60e21b815290516001600160a01b0390921691637158da7c916004808201926020929091908290030181865afa1580156106b3573d5f5f3e3d5ffd5b505050506040513d601f19601f820116820180604052508101906106d791906122dc565b6001600160a01b031663313ce5676040518163ffffffff1660e01b8152600401602060405180830381865afa158015610712573d5f5f3e3d5ffd5b505050506040513d601f19601f8201168201806040525081019061073691906122f7565b6007805460ff191660ff929092169190911790556003546040805163567ba71360e01b815290516001600160a01b039092169163567ba713916004808201926020929091908290030181865afa158015610792573d5f5f3e3d5ffd5b505050506040513d601f19601f820116820180604052508101906107b691906122f7565b6107c190600a61240e565b60055560035460408051630d8087bd60e21b815290516001600160a01b03909216916336021ef4916004808201926020929091908290030181865afa15801561080c573d5f5f3e3d5ffd5b505050506040513d601f19601f82011682018060405250810190610830919061241c565b601455565b60198181548110610844575f80fd5b5f918252602090912001546001600160a01b0316905081565b6002546001600160a01b031633146108885760405163ea8e4eb560e01b815260040160405180910390fd5b61089061117c565b60048110156108b2576040516317dbc4cb60e21b815260040160405180910390fd5b5f6108c06004828486612433565b6108c99161245a565b90506341659aab60e01b6001600160e01b0319821601610a12576108eb6111a6565b6108f36111d7565b600354604051631da09e4360e31b81526001600160a01b039091169063ed04f21890610923905f90600401612492565b5f60405180830381865afa15801561093d573d5f5f3e3d5ffd5b505050506040513d5f823e601f3d908101601f191682016040526109649190810190612581565b80516109789160179160209091019061207d565b50600354604051631da09e4360e31b81526001600160a01b039091169063ed04f218906109aa90600190600401612492565b5f60405180830381865afa1580156109c4573d5f5f3e3d5ffd5b505050506040513d5f823e601f3d908101601f191682016040526109eb9190810190612581565b80516109ff9160199160209091019061207d565b506015805460ff19166001179055610b2e565b600162e1be3b60e01b03196001600160e01b0319821601610a59575f610a3b8360048187612433565b810190610a489190612142565b9050610a53816112fc565b50610b2e565b6328ccd48760e01b6001600160e01b0319821601610a97575f610a7f8360048187612433565b810190610a8c9190612142565b9050610a5381611839565b6350c9887560e01b6001600160e01b0319821601610b1557610ab7611b98565b6015805460ff1916905560118054905f610ad0836125b3565b91905055507f9375d658f91055a030c54d5cf460d6f12968b10b80b0797c1aa5c02e4dca9403601154604051610b0891815260200190565b60405180910390a1610b2e565b6040516317dbc4cb60e21b815260040160405180910390fd5b50610b3860018055565b5050565b60178181548110610844575f80fd5b5f606060035f9054906101000a90046001600160a01b03166001600160a01b031663edcf9c1f6040518163ffffffff1660e01b8152600401602060405180830381865afa158015610b9e573d5f5f3e3d5ffd5b505050506040513d601f19601f82011682018060405250810190610bc291906122bd565b8015610bd057506012544210155b15610c035760405163be9a655560e01b6020820152600192506024015b6040516020818303038152906040529050610cd9565b600160155460ff166003811115610c1c57610c1c61210b565b03610c475760165460405162e1be3b60e01b6020820152602481019190915260019250604401610bed565b600260155460ff166003811115610c6057610c6061210b565b03610c8c5760185460405163d7332b7960e01b6020820152602481019190915260019250604401610bed565b600360155460ff166003811115610ca557610ca561210b565b03610cc65760405163af36778b60e01b602082015260019250602401610bed565b505060408051602081019091525f808252905b9250929050565b610ce8611150565b610cf15f611cf0565b565b600d80546040805160208084028201810190925282815260609384935f93830182828015610d4857602002820191905f5260205f20905b81546001600160a01b03168152600190910190602001808311610d2a575b505083519394505f9250829150505b82811015610dbc575f60086004015f868481518110610d7857610d786125cb565b60200260200101516001600160a01b03166001600160a01b031681526020019081526020015f20541115610db45781610db0816125b3565b9250505b600101610d57565b508067ffffffffffffffff811115610dd657610dd66124a6565b604051908082528060200260200182016040528015610dff578160200160208202803683370190505b5094508067ffffffffffffffff811115610e1b57610e1b6124a6565b604051908082528060200260200182016040528015610e44578160200160208202803683370190505b5093505f805b83811015610efc575f858281518110610e6557610e656125cb565b6020908102919091018101516001600160a01b0381165f908152600c9092526040909120549091508015610ef25781898581518110610ea657610ea66125cb565b60200260200101906001600160a01b031690816001600160a01b03168152505080888581518110610ed957610ed96125cb565b602090810291909101015283610eee816125b3565b9450505b5050600101610e4a565b50505050509091565b600d80546040805160208084028201810190925282815260609384935f93830182828015610f5a57602002820191905f5260205f20905b81546001600160a01b03168152600190910190602001808311610f3c575b505083519394505f9250829150505b82811015610fce575f60086003015f868481518110610f8a57610f8a6125cb565b60200260200101516001600160a01b03166001600160a01b031681526020019081526020015f20541115610fc65781610fc2816125b3565b9250505b600101610f69565b508067ffffffffffffffff811115610fe857610fe86124a6565b604051908082528060200260200182016040528015611011578160200160208202803683370190505b5094508067ffffffffffffffff81111561102d5761102d6124a6565b604051908082528060200260200182016040528015611056578160200160208202803683370190505b5093505f805b83811015610efc575f858281518110611077576110776125cb565b6020908102919091018101516001600160a01b0381165f908152600b909252604090912054909150801561110457818985815181106110b8576110b86125cb565b60200260200101906001600160a01b031690816001600160a01b031681525050808885815181106110eb576110eb6125cb565b602090810291909101015283611100816125b3565b9450505b505060010161105c565b611116611150565b6001600160a01b03811661114457604051631e4fbdf760e01b81525f60048201526024015b60405180910390fd5b61114d81611cf0565b50565b5f546001600160a01b03163314610cf15760405163118cdaa760e01b815233600482015260240161113b565b60026001540361119f57604051633ee5aeb560e01b815260040160405180910390fd5b6002600155565b6012544210156111c95760405163085de62560e01b815260040160405180910390fd5b6111d242611d3f565b601255565b5f600860050180548060200260200160405190810160405280929190818152602001828054801561122f57602002820191905f5260205f20905b81546001600160a01b03168152600190910190602001808311611211575b505083519394505f925050505b818110156112cd575f838281518110611257576112576125cb565b6020908102919091018101516001600160a01b03165f90815260088252604080822082905560098352808220829055600a8352808220829055600b8352808220829055600c8352808220829055600e8352808220805460ff19908116909155600f9093529020805490911690555060010161123c565b506112d9600d5f6120e0565b6112e460175f6120e0565b6112ef60195f6120e0565b50505f6016819055601855565b5f60178281548110611310576113106125cb565b905f5260205f20015f9054906101000a90046001600160a01b031690505f5f826001600160a01b031663d3d034586040518163ffffffff1660e01b81526004015f60405180830381865afa15801561136a573d5f5f3e3d5ffd5b505050506040513d5f823e601f3d908101601f1916820160405261139191908101906125df565b90925090505f805b83518110156115a6575f8482815181106113b5576113b56125cb565b6020908102919091018101516001600160a01b0381165f908152600f909252604082205490925060ff16900361146f57806001600160a01b031663313ce5676040518163ffffffff1660e01b8152600401602060405180830381865afa158015611421573d5f5f3e3d5ffd5b505050506040513d601f19601f8201168201806040525081019061144591906122f7565b6001600160a01b0382165f908152600f60205260409020805460ff191660ff929092169190911790555b6001600160a01b0381165f908152600f6020908152604080832054600890925282205460ff9091169181900361152a57600480546040516341976e0960e01b81526001600160a01b03868116938201939093529116906341976e0990602401602060405180830381865afa1580156114e9573d5f5f3e3d5ffd5b505050506040513d601f19601f8201168201806040525081019061150d919061241c565b6001600160a01b0384165f90815260086020526040902081905590505b5f61154f82888781518110611541576115416125cb565b602002602001015185611d54565b905061155b818761269d565b6001600160a01b0385165f9081526009602052604081208054929850839290919061158790849061269d565b90915550611596905084611d92565b5050600190920191506113999050565b505f846001600160a01b031663a68a5267866001600160a01b031663c37fc8a86040518163ffffffff1660e01b8152600401602060405180830381865afa1580156115f3573d5f5f3e3d5ffd5b505050506040513d601f19601f82011682018060405250810190611617919061241c565b845f6040518463ffffffff1660e01b8152600401611637939291906126b0565b602060405180830381865afa158015611652573d5f5f3e3d5ffd5b505050506040513d601f19601f82011682018060405250810190611676919061241c565b90505f81866001600160a01b031663d1699c266040518163ffffffff1660e01b8152600401602060405180830381865afa1580156116b6573d5f5f3e3d5ffd5b505050506040513d601f19601f820116820180604052508101906116da919061241c565b6116e4908561269d565b6116ee91906126d5565b90505f5f876001600160a01b031663b6eba6536040518163ffffffff1660e01b81526004015f60405180830381865afa15801561172d573d5f5f3e3d5ffd5b505050506040513d5f823e601f3d908101601f1916820160405261175491908101906125df565b815191935091505f5b818110156117ff575f848281518110611778576117786125cb565b602002602001015190505f848381518110611795576117956125cb565b602002602001015190505f60065482896117af91906126e8565b6117b991906126ff565b6001600160a01b0384165f908152600a60205260408120805492935083929091906117e590849061269d565b909155506117f4905083611d92565b50505060010161175d565b5060168054905f61180f836125b3565b90915550506017546016541061182d576015805460ff191660021790555b50505050505050505050565b61184161117c565b5f6014548261185091906126e8565b90505f60145482611861919061269d565b60195490915081111561188057506019546015805460ff191660031790555b815b81811015611b78575f6019828154811061189e5761189e6125cb565b905f5260205f20015f9054906101000a90046001600160a01b031690505f5f826001600160a01b031663d3d034586040518163ffffffff1660e01b81526004015f60405180830381865afa1580156118f8573d5f5f3e3d5ffd5b505050506040513d5f823e601f3d908101601f1916820160405261191f91908101906125df565b915091505f61192d5f611e17565b90505f5b8351811015611aff575f84828151811061194d5761194d6125cb565b6020908102919091018101516001600160a01b0381165f908152600f909252604082205490925060ff169003611a0757806001600160a01b031663313ce5676040518163ffffffff1660e01b8152600401602060405180830381865afa1580156119b9573d5f5f3e3d5ffd5b505050506040513d601f19601f820116820180604052508101906119dd91906122f7565b6001600160a01b0382165f908152600f60205260409020805460ff191660ff929092169190911790555b6001600160a01b0381165f908152600f6020908152604080832054600890925282205460ff90911691819003611ac257600480546040516341976e0960e01b81526001600160a01b03868116938201939093529116906341976e0990602401602060405180830381865afa158015611a81573d5f5f3e3d5ffd5b505050506040513d601f19601f82011682018060405250810190611aa5919061241c565b6001600160a01b0384165f90815260086020526040902081905590505b5f611ae182888781518110611ad957611ad96125cb565b505f92915050565b9050611aed8682611e29565b95505060019093019250611931915050565b505f5f856001600160a01b031663b6eba6536040518163ffffffff1660e01b81526004015f60405180830381865afa158015611b3d573d5f5f3e3d5ffd5b505050506040513d5f823e601f3d908101601f19168201604052611b6491908101906125df565b505060019096019550611882945050505050565b5060188054905f611b88836125b3565b9190505550505061114d60018055565b5f6008600501805480602002602001604051908101604052809291908181526020018280548015611bf057602002820191905f5260205f20905b81546001600160a01b03168152600190910190602001808311611bd2575b505083519394505f925050505b81811015611ceb575f838281518110611c1857611c186125cb565b6020908102919091018101516001600160a01b0381165f90815260098352604080822054600a855281832054600f909552912054919350919060ff1681831115611cae575f611c6783856126d5565b6001600160a01b0386165f9081526008602052604081205491925090611c8e908385611e5e565b6001600160a01b0387165f908152600b602052604090205550611cdb9050565b82821115611cdb575f611cc184846126d5565b6001600160a01b0386165f908152600c6020526040902055505b505060019092019150611bfd9050565b505050565b5f80546001600160a01b038381166001600160a01b0319831681178455604051919092169283917f8be0079c531659141344cd1fd0a4f28419497f9722a3daafe3b4186f6b6457e09190a35050565b5f60135482611d4e919061269d565b92915050565b5f80611d6084866126e8565b6007549091505f90611d78908390869060ff16611e98565b905060055481611d8891906126ff565b9695505050505050565b6001600160a01b0381165f908152600e602052604090205460ff1661114d57600d805460018181019092557fd7b6990105719101dabeb77144f2a3385c8033acd3af97e9423a695e81ad1eb50180546001600160a01b0384166001600160a01b031990911681179091555f908152600e60205260409020805460ff1916909117905550565b5f611d4e8263ffffffff166004611f02565b5f82611e3b57611e385f611e17565b92505b81611e4c57611e495f611e17565b91505b611e5783835f611fbf565b9392505050565b6007545f908190611e7490859060ff1685611e98565b90508460055482611e8591906126e8565b611e8f91906126ff565b95945050505050565b5f8260ff168260ff161115611ecd57611eb1838361271e565b611ebc90600a61240e565b611ec690856126e8565b9050611e57565b8260ff168260ff161015611efa57611ee5828461271e565b611ef090600a61240e565b611ec690856126ff565b509192915050565b7fed8d60e34876f751cc8b014c560745351147d9de11b9347c854e881b128ea60154604051639cd07acb60e01b81525f917fed8d60e34876f751cc8b014c560745351147d9de11b9347c854e881b128ea600916001600160a01b0390911690639cd07acb90611f779087908790600401612737565b6020604051808303815f875af1158015611f93573d5f5f3e3d5ffd5b505050506040513d601f19601f82011682018060405250810190611fb7919061241c565b949350505050565b5f5f8215611fd25750600160f81b611fd5565b505f5b5f7fed8d60e34876f751cc8b014c560745351147d9de11b9347c854e881b128ea600600181015460405163022f65e760e31b815260048101899052602481018890526001600160f81b0319851660448201529192506001600160a01b03169063117b2f38906064016020604051808303815f875af1158015612059573d5f5f3e3d5ffd5b505050506040513d601f19601f82011682018060405250810190611d88919061241c565b828054828255905f5260205f209081019282156120d0579160200282015b828111156120d057825182546001600160a01b0319166001600160a01b0390911617825560209092019160019091019061209b565b506120dc9291506120f7565b5090565b5080545f8255905f5260205f209081019061114d91905b5b808211156120dc575f81556001016120f8565b634e487b7160e01b5f52602160045260245ffd5b6004811061114d5761114d61210b565b6020810161213c8361211f565b91905290565b5f60208284031215612152575f5ffd5b5035919050565b6001600160a01b038116811461114d575f5ffd5b5f6020828403121561217d575f5ffd5b8135611e5781612159565b5f5f60208385031215612199575f5ffd5b823567ffffffffffffffff8111156121af575f5ffd5b8301601f810185136121bf575f5ffd5b803567ffffffffffffffff8111156121d5575f5ffd5b8560208284010111156121e6575f5ffd5b6020919091019590945092505050565b8215158152604060208201525f82518060408401528060208501606085015e5f606082850101526060601f19601f8301168401019150509392505050565b604080825283519082018190525f9060208501906060840190835b818110156122765783516001600160a01b031683526020938401939092019160010161224f565b5050838103602080860191909152855180835291810192508501905f5b818110156122b1578251845260209384019390920191600101612293565b50919695505050505050565b5f602082840312156122cd575f5ffd5b81518015158114611e57575f5ffd5b5f602082840312156122ec575f5ffd5b8151611e5781612159565b5f60208284031215612307575f5ffd5b815160ff81168114611e57575f5ffd5b634e487b7160e01b5f52601160045260245ffd5b6001815b60018411156123665780850481111561234a5761234a612317565b600184161561235857908102905b60019390931c92800261232f565b935093915050565b5f8261237c57506001611d4e565b8161238857505f611d4e565b816001811461239e57600281146123a8576123c4565b6001915050611d4e565b60ff8411156123b9576123b9612317565b50506001821b611d4e565b5060208310610133831016604e8410600b84101617156123e7575081810a611d4e565b6123f35f19848461232b565b805f190482111561240657612406612317565b029392505050565b5f611e5760ff84168361236e565b5f6020828403121561242c575f5ffd5b5051919050565b5f5f85851115612441575f5ffd5b8386111561244d575f5ffd5b5050820193919092039150565b80356001600160e01b0319811690600484101561248b576001600160e01b0319600485900360031b81901b82161691505b5092915050565b602081016002831061213c5761213c61210b565b634e487b7160e01b5f52604160045260245ffd5b604051601f8201601f1916810167ffffffffffffffff811182821017156124e3576124e36124a6565b604052919050565b5f67ffffffffffffffff821115612504576125046124a6565b5060051b60200190565b5f82601f83011261251d575f5ffd5b815161253061252b826124eb565b6124ba565b8082825260208201915060208360051b860101925085831115612551575f5ffd5b602085015b8381101561257757805161256981612159565b835260209283019201612556565b5095945050505050565b5f60208284031215612591575f5ffd5b815167ffffffffffffffff8111156125a7575f5ffd5b611fb78482850161250e565b5f600182016125c4576125c4612317565b5060010190565b634e487b7160e01b5f52603260045260245ffd5b5f5f604083850312156125f0575f5ffd5b825167ffffffffffffffff811115612606575f5ffd5b6126128582860161250e565b925050602083015167ffffffffffffffff81111561262e575f5ffd5b8301601f8101851361263e575f5ffd5b805161264c61252b826124eb565b8082825260208201915060208360051b85010192508783111561266d575f5ffd5b6020840193505b8284101561268f578351825260209384019390910190612674565b809450505050509250929050565b80820180821115611d4e57611d4e612317565b83815260208101839052606081016126c78361211f565b826040830152949350505050565b81810381811115611d4e57611d4e612317565b8082028115828204841417611d4e57611d4e612317565b5f8261271957634e487b7160e01b5f52601260045260245ffd5b500490565b60ff8281168282160390811115611d4e57611d4e612317565b828152604081016054831061274e5761274e61210b565b826020830152939250505056fea26469706673582212202f00445024f50586dd5e7f0e1bd44d293f9205bfd833c20e845fc9c900a4883e64736f6c634300081c0033",
  "linkReferences": {},
  "deployedLinkReferences": {}
}