{
  "_format": "hh-sol-artifact-1",
  "contractName": "InternalStatesOrchestrator",
  "sourceName": "contracts/orchestrators/InternalStatesOrchestrator.sol",
  "abi": [
    {
      "inputs": [
        {
          "internalType": "address",
          "name": "initialOwner",
          "type": "address"
        },
        {
          "internalType": "address",
          "name": "config_",
          "type": "address"
        },
        {
          "internalType": "address",
          "name": "automationRegistry_",
          "type": "address"
        }
      ],
      "stateMutability": "nonpayable",
      "type": "constructor"
    },
    {
      "inputs": [],
      "name": "InsufficientAmount",
      "type": "error"
    },
    {
      "inputs": [],
      "name": "InvalidArguments",
      "type": "error"
    },
    {
      "inputs": [],
      "name": "InvalidState",
      "type": "error"
    },
    {
      "inputs": [],
      "name": "NotAuthorized",
      "type": "error"
    },
    {
      "inputs": [
        {
          "internalType": "address",
          "name": "owner",
          "type": "address"
        }
      ],
      "name": "OwnableInvalidOwner",
      "type": "error"
    },
    {
      "inputs": [
        {
          "internalType": "address",
          "name": "account",
          "type": "address"
        }
      ],
      "name": "OwnableUnauthorizedAccount",
      "type": "error"
    },
    {
      "inputs": [],
      "name": "ReentrancyGuardReentrantCall",
      "type": "error"
    },
    {
      "inputs": [],
      "name": "SystemNotIdle",
      "type": "error"
    },
    {
      "inputs": [],
      "name": "TooEarly",
      "type": "error"
    },
    {
      "inputs": [],
      "name": "ZeroAddress",
      "type": "error"
    },
    {
      "anonymous": false,
      "inputs": [
        {
          "indexed": true,
          "internalType": "address",
          "name": "newAutomationRegistry",
          "type": "address"
        }
      ],
      "name": "AutomationRegistryUpdated",
      "type": "event"
    },
    {
      "anonymous": false,
      "inputs": [
        {
          "indexed": true,
          "internalType": "uint16",
          "name": "epochCounter",
          "type": "uint16"
        }
      ],
      "name": "InternalStateProcessed",
      "type": "event"
    },
    {
      "anonymous": false,
      "inputs": [
        {
          "indexed": true,
          "internalType": "address",
          "name": "previousOwner",
          "type": "address"
        },
        {
          "indexed": true,
          "internalType": "address",
          "name": "newOwner",
          "type": "address"
        }
      ],
      "name": "OwnershipTransferred",
      "type": "event"
    },
    {
      "inputs": [],
      "name": "BASIS_POINTS_FACTOR",
      "outputs": [
        {
          "internalType": "uint16",
          "name": "",
          "type": "uint16"
        }
      ],
      "stateMutability": "view",
      "type": "function"
    },
    {
      "inputs": [],
      "name": "automationRegistry",
      "outputs": [
        {
          "internalType": "address",
          "name": "",
          "type": "address"
        }
      ],
      "stateMutability": "view",
      "type": "function"
    },
    {
      "inputs": [],
      "name": "bufferAmount",
      "outputs": [
        {
          "internalType": "uint256",
          "name": "",
          "type": "uint256"
        }
      ],
      "stateMutability": "view",
      "type": "function"
    },
    {
      "inputs": [
        {
          "internalType": "bytes",
          "name": "",
          "type": "bytes"
        }
      ],
      "name": "checkUpkeep",
      "outputs": [
        {
          "internalType": "bool",
          "name": "upkeepNeeded",
          "type": "bool"
        },
        {
          "internalType": "bytes",
          "name": "performData",
          "type": "bytes"
        }
      ],
      "stateMutability": "view",
      "type": "function"
    },
    {
      "inputs": [],
      "name": "config",
      "outputs": [
        {
          "internalType": "contract IOrionConfig",
          "name": "",
          "type": "address"
        }
      ],
      "stateMutability": "view",
      "type": "function"
    },
    {
      "inputs": [],
      "name": "currentMinibatchIndex",
      "outputs": [
        {
          "internalType": "uint8",
          "name": "",
          "type": "uint8"
        }
      ],
      "stateMutability": "view",
      "type": "function"
    },
    {
      "inputs": [],
      "name": "currentPhase",
      "outputs": [
        {
          "internalType": "enum IInternalStateOrchestrator.InternalUpkeepPhase",
          "name": "",
          "type": "uint8"
        }
      ],
      "stateMutability": "view",
      "type": "function"
    },
    {
      "inputs": [],
      "name": "epochCounter",
      "outputs": [
        {
          "internalType": "uint16",
          "name": "",
          "type": "uint16"
        }
      ],
      "stateMutability": "view",
      "type": "function"
    },
    {
      "inputs": [],
      "name": "epochDuration",
      "outputs": [
        {
          "internalType": "uint32",
          "name": "",
          "type": "uint32"
        }
      ],
      "stateMutability": "view",
      "type": "function"
    },
    {
      "inputs": [],
      "name": "getEpochTokens",
      "outputs": [
        {
          "internalType": "address[]",
          "name": "tokens",
          "type": "address[]"
        }
      ],
      "stateMutability": "view",
      "type": "function"
    },
    {
      "inputs": [],
      "name": "getOrders",
      "outputs": [
        {
          "internalType": "address[]",
          "name": "sellingTokens",
          "type": "address[]"
        },
        {
          "internalType": "uint256[]",
          "name": "sellingAmounts",
          "type": "uint256[]"
        },
        {
          "internalType": "address[]",
          "name": "buyingTokens",
          "type": "address[]"
        },
        {
          "internalType": "uint256[]",
          "name": "buyingAmounts",
          "type": "uint256[]"
        },
        {
          "internalType": "uint256[]",
          "name": "sellingEstimatedUnderlyingAmounts",
          "type": "uint256[]"
        },
        {
          "internalType": "uint256[]",
          "name": "buyingEstimatedUnderlyingAmounts",
          "type": "uint256[]"
        }
      ],
      "stateMutability": "view",
      "type": "function"
    },
    {
      "inputs": [
        {
          "internalType": "address",
          "name": "token",
          "type": "address"
        }
      ],
      "name": "getPriceOf",
      "outputs": [
        {
          "internalType": "uint256",
          "name": "price",
          "type": "uint256"
        }
      ],
      "stateMutability": "view",
      "type": "function"
    },
    {
      "inputs": [],
      "name": "getTransparentVaultsEpoch",
      "outputs": [
        {
          "internalType": "address[]",
          "name": "vaults",
          "type": "address[]"
        }
      ],
      "stateMutability": "view",
      "type": "function"
    },
    {
      "inputs": [
        {
          "internalType": "address",
          "name": "vault",
          "type": "address"
        }
      ],
      "name": "getVaultTotalAssetsForFulfillDeposit",
      "outputs": [
        {
          "internalType": "uint256",
          "name": "totalAssets",
          "type": "uint256"
        }
      ],
      "stateMutability": "view",
      "type": "function"
    },
    {
      "inputs": [
        {
          "internalType": "address",
          "name": "vault",
          "type": "address"
        }
      ],
      "name": "getVaultTotalAssetsForFulfillRedeem",
      "outputs": [
        {
          "internalType": "uint256",
          "name": "totalAssets",
          "type": "uint256"
        }
      ],
      "stateMutability": "view",
      "type": "function"
    },
    {
      "inputs": [],
      "name": "intentFactor",
      "outputs": [
        {
          "internalType": "uint256",
          "name": "",
          "type": "uint256"
        }
      ],
      "stateMutability": "view",
      "type": "function"
    },
    {
      "inputs": [],
      "name": "liquidityOrchestrator",
      "outputs": [
        {
          "internalType": "contract ILiquidityOrchestrator",
          "name": "",
          "type": "address"
        }
      ],
      "stateMutability": "view",
      "type": "function"
    },
    {
      "inputs": [],
      "name": "owner",
      "outputs": [
        {
          "internalType": "address",
          "name": "",
          "type": "address"
        }
      ],
      "stateMutability": "view",
      "type": "function"
    },
    {
      "inputs": [],
      "name": "pendingProtocolFees",
      "outputs": [
        {
          "internalType": "uint256",
          "name": "",
          "type": "uint256"
        }
      ],
      "stateMutability": "view",
      "type": "function"
    },
    {
      "inputs": [
        {
          "internalType": "bytes",
          "name": "performData",
          "type": "bytes"
        }
      ],
      "name": "performUpkeep",
      "outputs": [],
      "stateMutability": "nonpayable",
      "type": "function"
    },
    {
      "inputs": [],
      "name": "priceAdapterPrecision",
      "outputs": [
        {
          "internalType": "uint256",
          "name": "",
          "type": "uint256"
        }
      ],
      "stateMutability": "view",
      "type": "function"
    },
    {
      "inputs": [],
      "name": "registry",
      "outputs": [
        {
          "internalType": "contract IPriceAdapterRegistry",
          "name": "",
          "type": "address"
        }
      ],
      "stateMutability": "view",
      "type": "function"
    },
    {
      "inputs": [],
      "name": "renounceOwnership",
      "outputs": [],
      "stateMutability": "nonpayable",
      "type": "function"
    },
    {
      "inputs": [],
      "name": "rsFeeCoefficient",
      "outputs": [
        {
          "internalType": "uint16",
          "name": "",
          "type": "uint16"
        }
      ],
      "stateMutability": "view",
      "type": "function"
    },
    {
      "inputs": [
        {
          "internalType": "uint256",
          "name": "amount",
          "type": "uint256"
        }
      ],
      "name": "subtractPendingProtocolFees",
      "outputs": [],
      "stateMutability": "nonpayable",
      "type": "function"
    },
    {
      "inputs": [
        {
          "internalType": "address",
          "name": "newOwner",
          "type": "address"
        }
      ],
      "name": "transferOwnership",
      "outputs": [],
      "stateMutability": "nonpayable",
      "type": "function"
    },
    {
      "inputs": [],
      "name": "transparentMinibatchSize",
      "outputs": [
        {
          "internalType": "uint8",
          "name": "",
          "type": "uint8"
        }
      ],
      "stateMutability": "view",
      "type": "function"
    },
    {
      "inputs": [
        {
          "internalType": "uint256",
          "name": "",
          "type": "uint256"
        }
      ],
      "name": "transparentVaultsEpoch",
      "outputs": [
        {
          "internalType": "address",
          "name": "",
          "type": "address"
        }
      ],
      "stateMutability": "view",
      "type": "function"
    },
    {
      "inputs": [],
      "name": "underlyingAsset",
      "outputs": [
        {
          "internalType": "address",
          "name": "",
          "type": "address"
        }
      ],
      "stateMutability": "view",
      "type": "function"
    },
    {
      "inputs": [],
      "name": "underlyingDecimals",
      "outputs": [
        {
          "internalType": "uint8",
          "name": "",
          "type": "uint8"
        }
      ],
      "stateMutability": "view",
      "type": "function"
    },
    {
      "inputs": [
        {
          "internalType": "address",
          "name": "newAutomationRegistry",
          "type": "address"
        }
      ],
      "name": "updateAutomationRegistry",
      "outputs": [],
      "stateMutability": "nonpayable",
      "type": "function"
    },
    {
      "inputs": [
        {
          "internalType": "int256",
          "name": "deltaAmount",
          "type": "int256"
        }
      ],
      "name": "updateBufferAmount",
      "outputs": [],
      "stateMutability": "nonpayable",
      "type": "function"
    },
    {
      "inputs": [
        {
          "internalType": "uint32",
          "name": "newEpochDuration",
          "type": "uint32"
        }
      ],
      "name": "updateEpochDuration",
      "outputs": [],
      "stateMutability": "nonpayable",
      "type": "function"
    },
    {
      "inputs": [
        {
          "internalType": "uint8",
          "name": "_transparentMinibatchSize",
          "type": "uint8"
        }
      ],
      "name": "updateMinibatchSize",
      "outputs": [],
      "stateMutability": "nonpayable",
      "type": "function"
    },
    {
      "inputs": [
        {
          "internalType": "uint16",
          "name": "_vFeeCoefficient",
          "type": "uint16"
        },
        {
          "internalType": "uint16",
          "name": "_rsFeeCoefficient",
          "type": "uint16"
        }
      ],
      "name": "updateProtocolFees",
      "outputs": [],
      "stateMutability": "nonpayable",
      "type": "function"
    },
    {
      "inputs": [],
      "name": "vFeeCoefficient",
      "outputs": [
        {
          "internalType": "uint16",
          "name": "",
          "type": "uint16"
        }
      ],
      "stateMutability": "view",
      "type": "function"
    }
  ],
  "bytecode": "0x608060405234801561000f575f5ffd5b50604051613aa8380380613aa883398101604081905261002e916104b6565b826001600160a01b03811661005c57604051631e4fbdf760e01b81525f600482015260240160405180910390fd5b61006581610450565b50600180556001600160a01b0382166100915760405163d92e233d60e01b815260040160405180910390fd5b6001600160a01b0381166100b85760405163d92e233d60e01b815260040160405180910390fd5b600380546001600160a01b0319166001600160a01b0384169081179091556040805163015df99360e01b8152905163015df993916004808201926020929091908290030181865afa15801561010f573d5f5f3e3d5ffd5b505050506040513d601f19601f820116820180604052508101906101339190610500565b600580546001600160a01b0319166001600160a01b039283161790556003546040805163d1717c7d60e01b81529051919092169163d1717c7d9160048083019260209291908290030181865afa15801561018f573d5f5f3e3d5ffd5b505050506040513d601f19601f820116820180604052508101906101b39190610522565b6101be90600a61063b565b60075560035460408051631c56369f60e21b815290516001600160a01b0390921691637158da7c916004808201926020929091908290030181865afa158015610209573d5f5f3e3d5ffd5b505050506040513d601f19601f8201168201806040525081019061022d9190610500565b600880546001600160a01b0319166001600160a01b03928316908117909155600354604051633c2e3e7b60e11b815260048101929092529091169063785c7cf690602401602060405180830381865afa15801561028c573d5f5f3e3d5ffd5b505050506040513d601f19601f820116820180604052508101906102b09190610522565b600860146101000a81548160ff021916908360ff16021790555060035f9054906101000a90046001600160a01b03166001600160a01b031663567ba7136040518163ffffffff1660e01b8152600401602060405180830381865afa15801561031a573d5f5f3e3d5ffd5b505050506040513d601f19601f8201168201806040525081019061033e9190610522565b61034990600a61063b565b6006556016805462ff0000191662010000179055600280546001600160a01b038084166001600160a01b03199092169190911790915560035460408051631d06d6c760e11b815290519190921691633a0dad8e9160048281019260209291908290030181865afa1580156103bf573d5f5f3e3d5ffd5b505050506040513d601f19601f820116820180604052508101906103e39190610500565b600480546001600160a01b0319166001600160a01b0392909216919091179055601480546201518063ffffffff1990911681179091556104239042610649565b60155550506016805464ffff00ffff19169055506008805463ffffffff60a81b191690555f60185561065c565b5f80546001600160a01b038381166001600160a01b0319831681178455604051919092169283917f8be0079c531659141344cd1fd0a4f28419497f9722a3daafe3b4186f6b6457e09190a35050565b6001600160a01b03811681146104b3575f5ffd5b50565b5f5f5f606084860312156104c8575f5ffd5b83516104d38161049f565b60208501519093506104e48161049f565b60408501519092506104f58161049f565b809150509250925092565b5f60208284031215610510575f5ffd5b815161051b8161049f565b9392505050565b5f60208284031215610532575f5ffd5b815160ff8116811461051b575f5ffd5b634e487b7160e01b5f52601160045260245ffd5b6001815b60018411156105915780850481111561057557610575610542565b600184161561058357908102905b60019390931c92800261055a565b935093915050565b5f826105a757506001610635565b816105b357505f610635565b81600181146105c957600281146105d3576105ef565b6001915050610635565b60ff8411156105e4576105e4610542565b50506001821b610635565b5060208310610133831016604e8410600b8410161715610612575081810a610635565b61061e5f198484610556565b805f190482111561063157610631610542565b0290505b92915050565b5f61051b60ff841683610599565b8082018082111561063557610635610542565b61343f806106695f395ff3fe608060405234801561000f575f5ffd5b50600436106101aa575f3560e01c8063055ad42e146101ae5780630844697d146101d857806308af604d14610200578063132b1c921461022557806314b19c5a1461025b57806314b5d07f1461026957806325a760c21461027e5780632b0088b4146102925780632e2dc43e1461029b5780633a0dad8e146102b55780634585e33b146102d55780634ff0876a146102e85780635488cd621461030d57806358fac65b146103215780635dc228a0146103345780636e04ff0d146103475780636ff0415314610368578063706044451461037d578063715018a6146103905780637158da7c1461039857806379502c55146103ab5780637b103999146103be5780637cdabf0a146103d1578063800f9fad146103e45780638da5cb5b146103ed5780638f5c9465146103f55780639f2124cb146103fe578063b8b2af7c14610406578063ba96ff111461041b578063c18e2a5c1461042e578063ca1f32f114610437578063e2638ff114610440578063e2c4aaec14610468578063e6c3efd91461047b578063eeb393c91461048e578063f2fde38b146104a1575b5f5ffd5b6016546101c2906301000000900460ff1681565b6040516101cf9190612b3a565b60405180910390f35b6008546101ed90600160b81b900461ffff1681565b60405161ffff90911681526020016101cf565b6016546102139062010000900460ff1681565b60405160ff90911681526020016101cf565b61024d610233366004612b68565b6001600160a01b03165f908152600f602052604090205490565b6040519081526020016101cf565b6016546101ed9061ffff1681565b61027c610277366004612b68565b6104b4565b005b60085461021390600160a01b900460ff1681565b61024d60075481565b6102a36105bd565b6040516101cf96959493929190612bf6565b6004546102c8906001600160a01b031681565b6040516101cf9190612c77565b61027c6102e3366004612c8b565b610839565b6014546102f89063ffffffff1681565b60405163ffffffff90911681526020016101cf565b60165461021390600160201b900460ff1681565b6102c861032f366004612cf7565b61097c565b6002546102c8906001600160a01b031681565b61035a610355366004612c8b565b6109a4565b6040516101cf929190612d0e565b610370610c22565b6040516101cf9190612d4c565b61027c61038b366004612cf7565b610cbc565b61027c610d23565b6008546102c8906001600160a01b031681565b6003546102c8906001600160a01b031681565b6005546102c8906001600160a01b031681565b61027c6103df366004612d74565b610d36565b61024d60095481565b6102c8610e3d565b6101ed61271081565b610370610e4b565b6008546101ed90600160a81b900461ffff1681565b61024d610429366004612b68565b610ea9565b61024d60185481565b61024d60065481565b61024d61044e366004612b68565b6001600160a01b03165f908152600e602052604090205490565b61027c610476366004612cf7565b610f02565b61027c610489366004612db3565b610f75565b61027c61049c366004612ddf565b61104f565b61027c6104af366004612b68565b611136565b6104bc611179565b6001600160a01b0381166104e35760405163d92e233d60e01b815260040160405180910390fd5b60035f9054906101000a90046001600160a01b03166001600160a01b031663edcf9c1f6040518163ffffffff1660e01b8152600401602060405180830381865afa158015610533573d5f5f3e3d5ffd5b505050506040513d601f19601f820116820180604052508101906105579190612dfa565b610574576040516312aecd8160e01b815260040160405180910390fd5b600280546001600160a01b0319166001600160a01b0383169081179091556040517f6cc7ebdb6c8c53291c5ae16148cab9b049d23bf5bde5632900b40edff56fcb43905f90a250565b606080808080805f6016546301000000900460ff1660048111156105e3576105e3612b26565b14610601576040516312aecd8160e01b815260040160405180910390fd5b5f600a60080180548060200260200160405190810160405280929190818152602001828054801561065957602002820191905f5260205f20905b81546001600160a01b0316815260019091019060200180831161063b575b505050505090505f5f61066b836111ab565b915091508161ffff166001600160401b0381111561068b5761068b612e19565b6040519080825280602002602001820160405280156106b4578160200160208202803683370190505b5098508161ffff166001600160401b038111156106d3576106d3612e19565b6040519080825280602002602001820160405280156106fc578160200160208202803683370190505b5097508061ffff166001600160401b0381111561071b5761071b612e19565b604051908082528060200260200182016040528015610744578160200160208202803683370190505b5096508061ffff166001600160401b0381111561076357610763612e19565b60405190808252806020026020018201604052801561078c578160200160208202803683370190505b5095508161ffff166001600160401b038111156107ab576107ab612e19565b6040519080825280602002602001820160405280156107d4578160200160208202803683370190505b5094508061ffff166001600160401b038111156107f3576107f3612e19565b60405190808252806020026020018201604052801561081c578160200160208202803683370190505b50935061082e838a8a888b8b8a61124c565b505050909192939495565b610841610e3d565b6001600160a01b0316336001600160a01b03161415801561086d57506002546001600160a01b03163314155b1561088b5760405163ea8e4eb560e01b815260040160405180910390fd5b61089361142f565b60058110156108b5576040516317dbc4cb60e21b815260040160405180910390fd5b5f806108c383850185612e2d565b90925090506341659aab60e01b6001600160e01b03198316016108ed576108e8611459565b61096d565b636ce38ed360e11b6001600160e01b031983160161090e576108e8816115f5565b6292a80f60e51b6001600160e01b031983160161092d576108e8611da6565b6265e66b60e01b6001600160e01b031983160161094d576108e881611fb3565b63c4b3cef760e01b6001600160e01b031983160161096d5761096d6124b6565b505061097860018055565b5050565b6017818154811061098b575f80fd5b5f918252602090912001546001600160a01b0316905081565b5f606060035f9054906101000a90046001600160a01b03166001600160a01b031663edcf9c1f6040518163ffffffff1660e01b8152600401602060405180830381865afa1580156109f7573d5f5f3e3d5ffd5b505050506040513d601f19601f82011682018060405250810190610a1b9190612dfa565b8015610a28575060155442115b15610a7a57600191507fbe9a655586dceb82dfa0af992b5d8ae7fa45053cb7fd6f141f541da7572978c75f604051602001610a64929190612e70565b6040516020818303038152906040529050610c1b565b60016016546301000000900460ff166004811115610a9a57610a9a612b26565b03610ae557600191507f2638e25a856cbfe28e0ae1857cb597cc2ceb873ce579b7d93c2258e45a754481601660049054906101000a900460ff16604051602001610a64929190612e70565b60026016546301000000900460ff166004811115610b0557610b05612b26565b03610b4157600191507fedaafe206508e00f40674bb87dda745bccfe8a3f3f6d6eaaf6db5f44021a1c135f604051602001610a64929190612e70565b60036016546301000000900460ff166004811115610b6157610b61612b26565b03610bac57600191507fff9a199536c068c55c334e40ebfa355733f79152332d6586d615c5bb37fd5c17601660049054906101000a900460ff16604051602001610a64929190612e70565b60046016546301000000900460ff166004811115610bcc57610bcc612b26565b03610c0857600191507f3b4c310984a9fe486c05a56b52659c09d4bf9f3ef9b799ad52ee29a7d805741e5f604051602001610a64929190612e70565b505060408051602081019091525f808252905b9250929050565b60605f6016546301000000900460ff166004811115610c4357610c43612b26565b14610c61576040516312aecd8160e01b815260040160405180910390fd5b6012805460408051602080840282018101909252828152929190830182828015610cb257602002820191905f5260205f20905b81546001600160a01b03168152600190910190602001808311610c94575b5050505050905090565b6004546001600160a01b03163314610ce75760405163ea8e4eb560e01b815260040160405180910390fd5b600954811115610d0a57604051632ca2f52b60e11b815260040160405180910390fd5b8060095f828254610d1b9190612ea1565b909155505050565b610d2b611179565b610d345f612682565b565b610d3e611179565b60328261ffff161180610d5657506107d08161ffff16115b15610d74576040516317dbc4cb60e21b815260040160405180910390fd5b60035f9054906101000a90046001600160a01b03166001600160a01b031663edcf9c1f6040518163ffffffff1660e01b8152600401602060405180830381865afa158015610dc4573d5f5f3e3d5ffd5b505050506040513d601f19601f82011682018060405250810190610de89190612dfa565b610e05576040516312aecd8160e01b815260040160405180910390fd5b6008805463ffffffff60a81b1916600160a81b61ffff9485160261ffff60b81b191617600160b81b9290931691909102919091179055565b5f546001600160a01b031690565b60606017805480602002602001604051908101604052809291908181526020018280548015610cb257602002820191905f5260205f209081546001600160a01b03168152600190910190602001808311610c94575050505050905090565b5f806016546301000000900460ff166004811115610ec957610ec9612b26565b14610ee7576040516312aecd8160e01b815260040160405180910390fd5b506001600160a01b03165f908152600a602052604090205490565b6004546001600160a01b03163314610f2d5760405163ea8e4eb560e01b815260040160405180910390fd5b5f811315610f51578060185f828254610f469190612eba565b90915550610f729050565b5f811215610f7257610f6281612ecd565b60185f828254610d1b9190612ea1565b50565b610f7d611179565b8060ff165f03610fa0576040516317dbc4cb60e21b815260040160405180910390fd5b60035f9054906101000a90046001600160a01b03166001600160a01b031663edcf9c1f6040518163ffffffff1660e01b8152600401602060405180830381865afa158015610ff0573d5f5f3e3d5ffd5b505050506040513d601f19601f820116820180604052508101906110149190612dfa565b611031576040516312aecd8160e01b815260040160405180910390fd5b6016805460ff909216620100000262ff000019909216919091179055565b611057611179565b8063ffffffff165f0361107d576040516317dbc4cb60e21b815260040160405180910390fd5b60035f9054906101000a90046001600160a01b03166001600160a01b031663edcf9c1f6040518163ffffffff1660e01b8152600401602060405180830381865afa1580156110cd573d5f5f3e3d5ffd5b505050506040513d601f19601f820116820180604052508101906110f19190612dfa565b61110e576040516312aecd8160e01b815260040160405180910390fd5b6014805463ffffffff191663ffffffff83169081179091556111309042612eba565b60155550565b61113e611179565b6001600160a01b038116611170575f604051631e4fbdf760e01b81526004016111679190612c77565b60405180910390fd5b610f7281612682565b33611182610e3d565b6001600160a01b031614610d34573360405163118cdaa760e01b81526004016111679190612c77565b80515f908190815b8161ffff168161ffff161015611245575f858261ffff16815181106111da576111da612ee7565b6020908102919091018101516001600160a01b0381165f9081526010909252604090912054909150156112135761121085612efb565b94505b6001600160a01b0381165f908152601160205260409020541561123c5761123984612efb565b93505b506001016111b3565b5050915091565b86515f80805b8361ffff168161ffff161015611422575f8b8261ffff168151811061127957611279612ee7565b6020908102919091018101516001600160a01b0381165f908152601083526040808220546011909452902054909250811561135e57828d8761ffff16815181106112c5576112c5612ee7565b60200260200101906001600160a01b031690816001600160a01b031681525050818c8761ffff16815181106112fc576112fc612ee7565b6020908102919091018101919091526001600160a01b0384165f908152600a90915260409020546006546113319184916126d1565b8b8761ffff168151811061134757611347612ee7565b602090810291909101015261135b86612efb565b95505b801561141457828a8661ffff168151811061137b5761137b612ee7565b60200260200101906001600160a01b031690816001600160a01b03168152505080898661ffff16815181106113b2576113b2612ee7565b6020908102919091018101919091526001600160a01b0384165f908152600a90915260409020546006546113e79183916126d1565b888661ffff16815181106113fd576113fd612ee7565b602090810291909101015261141185612efb565b94505b505050806001019050611252565b5050505050505050505050565b60026001540361145257604051633ee5aeb560e01b815260040160405180910390fd5b6002600155565b601554421115806114db575060035f9054906101000a90046001600160a01b03166001600160a01b031663edcf9c1f6040518163ffffffff1660e01b8152600401602060405180830381865afa1580156114b5573d5f5f3e3d5ffd5b505050506040513d601f19601f820116820180604052508101906114d99190612dfa565b155b156114f95760405163085de62560e01b815260040160405180910390fd5b5f5b60125461ffff821610156115ae575f600a6008018261ffff168154811061152457611524612ee7565b5f9182526020808320909101546001600160a01b03168252600a81526040808320839055600b8252808320839055600c8252808320839055600e8252808320839055600f8252808320839055600d8252808320839055601082528083208390556011825280832083905560139091529020805460ff19169055506115a781612efb565b90506114fb565b506115ba60125f612af8565b6115c2612782565b60175415610d34576014546115dd9063ffffffff1642612eba565b6015556016805463ff00000019166301000000179055565b60016016546301000000900460ff16600481111561161557611615612b26565b146116335760405163baf3f0f760e01b815260040160405180910390fd5b6016805460049061164d90600160201b900460ff16612f1b565b91906101000a81548160ff021916908360ff1602179055505f601660029054906101000a900460ff16826116819190612f30565b60165460ff91821692505f9161169e916201000090041683612f53565b60175490915061ffff821611806116ba575060175461ffff8216145b156116d857506017546016805464ffff000000191663020000001790555b815b8161ffff168161ffff161015611da0575f60178261ffff168154811061170257611702612ee7565b905f5260205f20015f9054906101000a90046001600160a01b031690505f5f826001600160a01b031663d3d034586040518163ffffffff1660e01b81526004015f60405180830381865afa15801561175c573d5f5f3e3d5ffd5b505050506040513d5f823e601f3d908101601f191682016040526117839190810190613032565b90925090505f805b83518161ffff161015611a6f575f848261ffff16815181106117af576117af612ee7565b602002602001015190505f848361ffff16815181106117d0576117d0612ee7565b6020026020010151905080600a6001015f846001600160a01b03166001600160a01b031681526020019081526020015f205f82825461180f9190612eba565b90915550506001600160a01b0382165f9081526013602052604090205460ff16611993576008546001600160a01b039081169083160361190b576008546118ee9061186590600160a01b900460ff16600a6131d3565b600860149054906101000a900460ff1660035f9054906101000a90046001600160a01b03166001600160a01b031663567ba7136040518163ffffffff1660e01b8152600401602060405180830381865afa1580156118c5573d5f5f3e3d5ffd5b505050506040513d601f19601f820116820180604052508101906118e991906131e1565b6129dc565b6001600160a01b0383165f908152600a6020526040902055611993565b6005546040516341976e0960e01b81526001600160a01b03909116906341976e099061193b908590600401612c77565b602060405180830381865afa158015611956573d5f5f3e3d5ffd5b505050506040513d601f19601f8201168201806040525081019061197a91906131fc565b6001600160a01b0383165f908152600a60205260409020555b6001600160a01b0382165f908152600a6020526040812054600654909190611a43906119c290849086906126d1565b600354604051633c2e3e7b60e11b81526001600160a01b039091169063785c7cf6906119f2908990600401612c77565b602060405180830381865afa158015611a0d573d5f5f3e3d5ffd5b505050506040513d601f19601f82011682018060405250810190611a3191906131e1565b600854600160a01b900460ff166129dc565b9050611a4f8187612eba565b9550611a5a84612a46565b5050505080611a6890612efb565b905061178b565b506008545f90611a8d90600160a81b900461ffff16836127106126d1565b601454909150611aae90829063ffffffff908116906301e13380906126d116565b90508060095f828254611ac19190612eba565b90915550611ad190508183612ea1565b60405163728d42fb60e11b8152600481018290529092505f906001600160a01b0387169063e51a85f690602401602060405180830381865afa158015611b19573d5f5f3e3d5ffd5b505050506040513d601f19601f82011682018060405250810190611b3d91906131fc565b9050611b498184612ea1565b6008549093505f90611b6990600160b81b900461ffff16836127106126d1565b90508060095f828254611b7c9190612eba565b90915550611b8c90508183612ea1565b601654604051630df571f760e01b815261ffff9091166004820152602481018290529092506001600160a01b03881690630df571f7906044015f604051808303815f87803b158015611bdc575f5ffd5b505af1158015611bee573d5f5f3e3d5ffd5b505050505f876001600160a01b031663a68a5267896001600160a01b0316630a605c6d6040518163ffffffff1660e01b8152600401602060405180830381865afa158015611c3e573d5f5f3e3d5ffd5b505050506040513d601f19601f82011682018060405250810190611c6291906131fc565b875f6040518463ffffffff1660e01b8152600401611c8293929190613213565b602060405180830381865afa158015611c9d573d5f5f3e3d5ffd5b505050506040513d601f19601f82011682018060405250810190611cc191906131fc565b6001600160a01b0389165f908152600e602052604090208690559050611ce78186612ea1565b94505f886001600160a01b031663f64c6f326040518163ffffffff1660e01b8152600401602060405180830381865afa158015611d26573d5f5f3e3d5ffd5b505050506040513d601f19601f82011682018060405250810190611d4a91906131fc565b6001600160a01b038a165f908152600f602052604090208790559050611d708187612eba565b6001600160a01b039099165f908152600c60205260409020989098555050600190960195506116da945050505050565b50505050565b60026016546301000000900460ff166004811115611dc657611dc6612b26565b14611de45760405163baf3f0f760e01b815260040160405180910390fd5b6016805463ff000000191663030000001790556017545f805b8261ffff168161ffff161015611e61575f60178261ffff1681548110611e2557611e25612ee7565b5f9182526020808320909101546001600160a01b0316808352600c909152604090912054909150611e569084612eba565b925050600101611dfd565b50600480546040805163dab26e3b60e01b815290515f93611ed8936001600160a01b03169263dab26e3b92818301926020928290030181865afa158015611eaa573d5f5f3e3d5ffd5b505050506040513d601f19601f82011682018060405250810190611ece91906131fc565b83906127106126d1565b9050806018541115611ee957505050565b5f60185482611ef89190612ea1565b90505f5b8461ffff168161ffff161015611f96575f60178261ffff1681548110611f2457611f24612ee7565b5f9182526020808320909101546001600160a01b0316808352600c909152604082205490925090611f568583896126d1565b6001600160a01b0384165f908152600c6020526040812080549293508392909190611f82908490612ea1565b909155505060019093019250611efc915050565b508060185f828254611fa89190612eba565b909155505050505050565b60036016546301000000900460ff166004811115611fd357611fd3612b26565b14611ff15760405163baf3f0f760e01b815260040160405180910390fd5b6016805460049061200b90600160201b900460ff16612f1b565b91906101000a81548160ff021916908360ff1602179055505f601660029054906101000a900460ff168261203f9190612f30565b60165460ff91821692505f9161205c916201000090041683612f53565b60175490915061ffff82161180612078575060175461ffff8216145b1561209657506017546016805464ffff000000191663040000001790555b815b8161ffff168161ffff161015611da0575f60178261ffff16815481106120c0576120c0612ee7565b905f5260205f20015f9054906101000a90046001600160a01b031690505f5f826001600160a01b031663b6eba6536040518163ffffffff1660e01b81526004015f60405180830381865afa15801561211a573d5f5f3e3d5ffd5b505050506040513d5f823e601f3d908101601f19168201604052612141919081019061323f565b6001600160a01b0385165f908152600c6020526040812054835193955091935090916001600160401b0381111561217a5761217a612e19565b6040519080825280602002602001820160405280156121be57816020015b604080518082019091525f80825260208201528152602001906001900390816121985790505b5090505f5b84518161ffff16101561244a575f858261ffff16815181106121e7576121e7612ee7565b602002602001015190505f858361ffff168151811061220857612208612ee7565b6020908102919091018101516001600160a01b0384165f908152601390925260409091205490915060ff1661230e576008546001600160a01b0390811690831603612286576008546122699061186590600160a01b900460ff16600a6131d3565b6001600160a01b0383165f908152600a602052604090205561230e565b6005546040516341976e0960e01b81526001600160a01b03909116906341976e09906122b6908590600401612c77565b602060405180830381865afa1580156122d1573d5f5f3e3d5ffd5b505050506040513d601f19601f820116820180604052508101906122f591906131fc565b6001600160a01b0383165f908152600a60205260409020555b6001600160a01b0382165f908152600a60205260408120546006546007549192916123b09161235691859061234f908c9063ffffffff808b1691906126d116565b91906126d1565b600854600354604051633c2e3e7b60e11b8152600160a01b90920460ff16916001600160a01b039091169063785c7cf690612395908a90600401612c77565b602060405180830381865afa1580156118c5573d5f5f3e3d5ffd5b90506040518060400160405280856001600160a01b0316815260200182815250868661ffff16815181106123e6576123e6612ee7565b602002602001018190525080600a6003015f866001600160a01b03166001600160a01b031681526020019081526020015f205f8282546124269190612eba565b90915550612435905084612a46565b505050508061244390612efb565b90506121c3565b50604051634c2dd25760e11b81526001600160a01b0386169063985ba4ae9061247990849086906004016132f8565b5f604051808303815f87803b158015612490575f5ffd5b505af11580156124a2573d5f5f3e3d5ffd5b505050505050505050806001019050612098565b60046016546301000000900460ff1660048111156124d6576124d6612b26565b146124f45760405163baf3f0f760e01b815260040160405180910390fd5b5f600a60080180548060200260200160405190810160405280929190818152602001828054801561254c57602002820191905f5260205f20905b81546001600160a01b0316815260019091019060200180831161252e575b505083519394505f925050505b8161ffff168161ffff161015612617575f838261ffff168151811061258057612580612ee7565b6020908102919091018101516001600160a01b0381165f908152600b8352604080822054600d909452902054909250808211156125de576125c18183612ea1565b6001600160a01b0384165f90815260106020526040902055612609565b81811115612609576125f08282612ea1565b6001600160a01b0384165f908152601160205260409020555b505050806001019050612559565b506016805463ff00000019811682555f906126359061ffff16612efb565b82546101009290920a61ffff8181021990931691831602179091556016546040519116907f0bc12479581640d161e016cef21aa834cb6d6326bbc0d8445e58d56403adf2dc905f90a25050565b5f80546001600160a01b038381166001600160a01b0319831681178455604051919092169283917f8be0079c531659141344cd1fd0a4f28419497f9722a3daafe3b4186f6b6457e09190a35050565b5f5f5f6126de8686612acb565b91509150815f03612702578381816126f8576126f8613359565b049250505061277b565b818411612719576127196003851502601118612ae7565b5f848688095f868103871696879004966002600389028118808a02820302808a02820302808a02820302808a02820302808a02820302808a02909103029181900381900460010185841190960395909502919093039390930492909217029150505b9392505050565b600354604051631da09e4360e31b81525f916001600160a01b03169063ed04f218906127b290849060040161336d565b5f60405180830381865afa1580156127cc573d5f5f3e3d5ffd5b505050506040513d5f823e601f3d908101601f191682016040526127f39190810190613381565b905061280060175f612af8565b5f5b81518161ffff161015610978575f828261ffff168151811061282657612826612ee7565b60200260200101519050806001600160a01b03166301e1d1146040518163ffffffff1660e01b8152600401602060405180830381865afa15801561286c573d5f5f3e3d5ffd5b505050506040513d601f19601f8201168201806040525081019061289091906131fc565b816001600160a01b031663f64c6f326040518163ffffffff1660e01b8152600401602060405180830381865afa1580156128cc573d5f5f3e3d5ffd5b505050506040513d601f19601f820116820180604052508101906128f091906131fc565b6128fa9190612eba565b5f0361290657506129cc565b5f816001600160a01b031663b6eba6536040518163ffffffff1660e01b81526004015f60405180830381865afa158015612942573d5f5f3e3d5ffd5b505050506040513d5f823e601f3d908101601f19168201604052612969919081019061323f565b50905080515f0361297b5750506129cc565b50601780546001810182555f919091527fc624b66cc0138b8fabc209247f72d758e1cf3343756d543badbf24212bed8c150180546001600160a01b0319166001600160a01b03929092169190911790555b6129d581612efb565b9050612802565b5f8260ff168260ff161115612a11576129f583836133ba565b612a0090600a6131d3565b612a0a90856133d3565b905061277b565b8260ff168260ff161015612a3e57612a2982846133ba565b612a3490600a6131d3565b612a0a90856133ea565b509192915050565b6001600160a01b0381165f9081526013602052604090205460ff16610f72576012805460018181019092557fbb8a6a4669ba250d26cd7a459eca9d215f8307e33aebe50379bc5a3617ec34440180546001600160a01b0384166001600160a01b031990911681179091555f908152601360205260409020805460ff1916909117905550565b5f805f1983850993909202808410938190039390930393915050565b634e487b715f52806020526024601cfd5b5080545f8255905f5260205f2090810190610f7291905b80821115612b22575f8155600101612b0f565b5090565b634e487b7160e01b5f52602160045260245ffd5b6020810160058310612b4e57612b4e612b26565b91905290565b6001600160a01b0381168114610f72575f5ffd5b5f60208284031215612b78575f5ffd5b813561277b81612b54565b5f8151808452602084019350602083015f5b82811015612bbc5781516001600160a01b0316865260209586019590910190600101612b95565b5093949350505050565b5f8151808452602084019350602083015f5b82811015612bbc578151865260209586019590910190600101612bd8565b60c081525f612c0860c0830189612b83565b8281036020840152612c1a8189612bc6565b90508281036040840152612c2e8188612b83565b90508281036060840152612c428187612bc6565b90508281036080840152612c568186612bc6565b905082810360a0840152612c6a8185612bc6565b9998505050505050505050565b6001600160a01b0391909116815260200190565b5f5f60208385031215612c9c575f5ffd5b82356001600160401b03811115612cb1575f5ffd5b8301601f81018513612cc1575f5ffd5b80356001600160401b03811115612cd6575f5ffd5b856020828401011115612ce7575f5ffd5b6020919091019590945092505050565b5f60208284031215612d07575f5ffd5b5035919050565b8215158152604060208201525f82518060408401528060208501606085015e5f606082850101526060601f19601f8301168401019150509392505050565b602081525f61277b6020830184612b83565b803561ffff81168114612d6f575f5ffd5b919050565b5f5f60408385031215612d85575f5ffd5b612d8e83612d5e565b9150612d9c60208401612d5e565b90509250929050565b60ff81168114610f72575f5ffd5b5f60208284031215612dc3575f5ffd5b813561277b81612da5565b63ffffffff81168114610f72575f5ffd5b5f60208284031215612def575f5ffd5b813561277b81612dce565b5f60208284031215612e0a575f5ffd5b8151801515811461277b575f5ffd5b634e487b7160e01b5f52604160045260245ffd5b5f5f60408385031215612e3e575f5ffd5b82356001600160e01b031981168114612e55575f5ffd5b91506020830135612e6581612da5565b809150509250929050565b6001600160e01b031992909216825260ff16602082015260400190565b634e487b7160e01b5f52601160045260245ffd5b81810381811115612eb457612eb4612e8d565b92915050565b80820180821115612eb457612eb4612e8d565b5f600160ff1b8201612ee157612ee1612e8d565b505f0390565b634e487b7160e01b5f52603260045260245ffd5b5f61ffff821661ffff8103612f1257612f12612e8d565b60010192915050565b5f60ff821660ff8103612f1257612f12612e8d565b60ff8181168382160290811690818114612f4c57612f4c612e8d565b5092915050565b61ffff8181168382160190811115612eb457612eb4612e8d565b604051601f8201601f191681016001600160401b0381118282101715612f9557612f95612e19565b604052919050565b5f6001600160401b03821115612fb557612fb5612e19565b5060051b60200190565b5f82601f830112612fce575f5ffd5b8151612fe1612fdc82612f9d565b612f6d565b8082825260208201915060208360051b860101925085831115613002575f5ffd5b602085015b8381101561302857805161301a81612b54565b835260209283019201613007565b5095945050505050565b5f5f60408385031215613043575f5ffd5b82516001600160401b03811115613058575f5ffd5b61306485828601612fbf565b602085015190935090506001600160401b03811115613081575f5ffd5b8301601f81018513613091575f5ffd5b805161309f612fdc82612f9d565b8082825260208201915060208360051b8501019250878311156130c0575f5ffd5b6020840193505b828410156130e25783518252602093840193909101906130c7565b809450505050509250929050565b6001815b600184111561312b5780850481111561310f5761310f612e8d565b600184161561311d57908102905b60019390931c9280026130f4565b935093915050565b5f8261314157506001612eb4565b8161314d57505f612eb4565b8160018114613163576002811461316d57613189565b6001915050612eb4565b60ff84111561317e5761317e612e8d565b50506001821b612eb4565b5060208310610133831016604e8410600b84101617156131ac575081810a612eb4565b6131b85f1984846130f0565b805f19048211156131cb576131cb612e8d565b029392505050565b5f61277b60ff841683613133565b5f602082840312156131f1575f5ffd5b815161277b81612da5565b5f6020828403121561320c575f5ffd5b5051919050565b83815260208101839052606081016004831061323157613231612b26565b826040830152949350505050565b5f5f60408385031215613250575f5ffd5b82516001600160401b03811115613265575f5ffd5b61327185828601612fbf565b602085015190935090506001600160401b0381111561328e575f5ffd5b8301601f8101851361329e575f5ffd5b80516132ac612fdc82612f9d565b8082825260208201915060208360051b8501019250878311156132cd575f5ffd5b6020840193505b828410156130e25783516132e781612dce565b8252602093840193909101906132d4565b604080825283519082018190525f9060208501906060840190835b8181101561334657835180516001600160a01b031684526020908101518185015290930192604090920191600101613313565b5050602093909301939093525092915050565b634e487b7160e01b5f52601260045260245ffd5b6020810160028310612b4e57612b4e612b26565b5f60208284031215613391575f5ffd5b81516001600160401b038111156133a6575f5ffd5b6133b284828501612fbf565b949350505050565b60ff8281168282160390811115612eb457612eb4612e8d565b8082028115828204841417612eb457612eb4612e8d565b5f8261340457634e487b7160e01b5f52601260045260245ffd5b50049056fea26469706673582212202c21bd4396f497c18c86310f891543fa7485bf2a98d71c17c9da771241117c3164736f6c634300081c0033",
  "linkReferences": {},
  "deployedLinkReferences": {}
}