{
  "_format": "hh-sol-artifact-1",
  "contractName": "InternalStatesOrchestrator",
  "sourceName": "contracts/orchestrators/InternalStatesOrchestrator.sol",
  "abi": [
    {
      "inputs": [
        {
          "internalType": "address",
          "name": "initialOwner",
          "type": "address"
        },
        {
          "internalType": "address",
          "name": "config_",
          "type": "address"
        },
        {
          "internalType": "address",
          "name": "automationRegistry_",
          "type": "address"
        }
      ],
      "stateMutability": "nonpayable",
      "type": "constructor"
    },
    {
      "inputs": [],
      "name": "HandlesAlreadySavedForRequestID",
      "type": "error"
    },
    {
      "inputs": [],
      "name": "InsufficientAmount",
      "type": "error"
    },
    {
      "inputs": [],
      "name": "InvalidArguments",
      "type": "error"
    },
    {
      "inputs": [],
      "name": "InvalidKMSSignatures",
      "type": "error"
    },
    {
      "inputs": [],
      "name": "InvalidState",
      "type": "error"
    },
    {
      "inputs": [],
      "name": "NoHandleFoundForRequestID",
      "type": "error"
    },
    {
      "inputs": [],
      "name": "NotAuthorized",
      "type": "error"
    },
    {
      "inputs": [
        {
          "internalType": "address",
          "name": "owner",
          "type": "address"
        }
      ],
      "name": "OwnableInvalidOwner",
      "type": "error"
    },
    {
      "inputs": [
        {
          "internalType": "address",
          "name": "account",
          "type": "address"
        }
      ],
      "name": "OwnableUnauthorizedAccount",
      "type": "error"
    },
    {
      "inputs": [],
      "name": "ReentrancyGuardReentrantCall",
      "type": "error"
    },
    {
      "inputs": [],
      "name": "SystemNotIdle",
      "type": "error"
    },
    {
      "inputs": [],
      "name": "TooEarly",
      "type": "error"
    },
    {
      "inputs": [],
      "name": "UnsupportedHandleType",
      "type": "error"
    },
    {
      "inputs": [],
      "name": "ZeroAddress",
      "type": "error"
    },
    {
      "anonymous": false,
      "inputs": [
        {
          "indexed": true,
          "internalType": "address",
          "name": "newAutomationRegistry",
          "type": "address"
        }
      ],
      "name": "AutomationRegistryUpdated",
      "type": "event"
    },
    {
      "anonymous": false,
      "inputs": [
        {
          "indexed": true,
          "internalType": "uint256",
          "name": "requestID",
          "type": "uint256"
        }
      ],
      "name": "DecryptionFulfilled",
      "type": "event"
    },
    {
      "anonymous": false,
      "inputs": [
        {
          "indexed": true,
          "internalType": "uint16",
          "name": "epochCounter",
          "type": "uint16"
        }
      ],
      "name": "InternalStateProcessed",
      "type": "event"
    },
    {
      "anonymous": false,
      "inputs": [
        {
          "indexed": true,
          "internalType": "address",
          "name": "previousOwner",
          "type": "address"
        },
        {
          "indexed": true,
          "internalType": "address",
          "name": "newOwner",
          "type": "address"
        }
      ],
      "name": "OwnershipTransferred",
      "type": "event"
    },
    {
      "inputs": [],
      "name": "BASIS_POINTS_FACTOR",
      "outputs": [
        {
          "internalType": "uint16",
          "name": "",
          "type": "uint16"
        }
      ],
      "stateMutability": "view",
      "type": "function"
    },
    {
      "inputs": [],
      "name": "automationRegistry",
      "outputs": [
        {
          "internalType": "address",
          "name": "",
          "type": "address"
        }
      ],
      "stateMutability": "view",
      "type": "function"
    },
    {
      "inputs": [],
      "name": "bufferAmount",
      "outputs": [
        {
          "internalType": "uint256",
          "name": "",
          "type": "uint256"
        }
      ],
      "stateMutability": "view",
      "type": "function"
    },
    {
      "inputs": [
        {
          "internalType": "uint256",
          "name": "requestID",
          "type": "uint256"
        },
        {
          "internalType": "uint256[]",
          "name": "decryptedValues",
          "type": "uint256[]"
        },
        {
          "internalType": "bytes[]",
          "name": "signatures",
          "type": "bytes[]"
        }
      ],
      "name": "callbackPreProcessDecrypt",
      "outputs": [],
      "stateMutability": "nonpayable",
      "type": "function"
    },
    {
      "inputs": [
        {
          "internalType": "bytes",
          "name": "",
          "type": "bytes"
        }
      ],
      "name": "checkUpkeep",
      "outputs": [
        {
          "internalType": "bool",
          "name": "upkeepNeeded",
          "type": "bool"
        },
        {
          "internalType": "bytes",
          "name": "performData",
          "type": "bytes"
        }
      ],
      "stateMutability": "view",
      "type": "function"
    },
    {
      "inputs": [],
      "name": "config",
      "outputs": [
        {
          "internalType": "contract IOrionConfig",
          "name": "",
          "type": "address"
        }
      ],
      "stateMutability": "view",
      "type": "function"
    },
    {
      "inputs": [],
      "name": "currentMinibatchIndex",
      "outputs": [
        {
          "internalType": "uint8",
          "name": "",
          "type": "uint8"
        }
      ],
      "stateMutability": "view",
      "type": "function"
    },
    {
      "inputs": [],
      "name": "currentPhase",
      "outputs": [
        {
          "internalType": "enum IInternalStateOrchestrator.InternalUpkeepPhase",
          "name": "",
          "type": "uint8"
        }
      ],
      "stateMutability": "view",
      "type": "function"
    },
    {
      "inputs": [],
      "name": "encryptedMinibatchSize",
      "outputs": [
        {
          "internalType": "uint8",
          "name": "",
          "type": "uint8"
        }
      ],
      "stateMutability": "view",
      "type": "function"
    },
    {
      "inputs": [
        {
          "internalType": "uint256",
          "name": "",
          "type": "uint256"
        }
      ],
      "name": "encryptedVaultsEpoch",
      "outputs": [
        {
          "internalType": "address",
          "name": "",
          "type": "address"
        }
      ],
      "stateMutability": "view",
      "type": "function"
    },
    {
      "inputs": [],
      "name": "epochCounter",
      "outputs": [
        {
          "internalType": "uint16",
          "name": "",
          "type": "uint16"
        }
      ],
      "stateMutability": "view",
      "type": "function"
    },
    {
      "inputs": [],
      "name": "epochDuration",
      "outputs": [
        {
          "internalType": "uint32",
          "name": "",
          "type": "uint32"
        }
      ],
      "stateMutability": "view",
      "type": "function"
    },
    {
      "inputs": [],
      "name": "getBuyingOrders",
      "outputs": [
        {
          "internalType": "address[]",
          "name": "tokens",
          "type": "address[]"
        },
        {
          "internalType": "uint256[]",
          "name": "amounts",
          "type": "uint256[]"
        }
      ],
      "stateMutability": "view",
      "type": "function"
    },
    {
      "inputs": [],
      "name": "getSellingOrders",
      "outputs": [
        {
          "internalType": "address[]",
          "name": "tokens",
          "type": "address[]"
        },
        {
          "internalType": "uint256[]",
          "name": "amounts",
          "type": "uint256[]"
        }
      ],
      "stateMutability": "view",
      "type": "function"
    },
    {
      "inputs": [],
      "name": "intentFactor",
      "outputs": [
        {
          "internalType": "uint256",
          "name": "",
          "type": "uint256"
        }
      ],
      "stateMutability": "view",
      "type": "function"
    },
    {
      "inputs": [],
      "name": "liquidityOrchestrator",
      "outputs": [
        {
          "internalType": "contract ILiquidityOrchestrator",
          "name": "",
          "type": "address"
        }
      ],
      "stateMutability": "view",
      "type": "function"
    },
    {
      "inputs": [],
      "name": "owner",
      "outputs": [
        {
          "internalType": "address",
          "name": "",
          "type": "address"
        }
      ],
      "stateMutability": "view",
      "type": "function"
    },
    {
      "inputs": [],
      "name": "pendingProtocolFees",
      "outputs": [
        {
          "internalType": "uint256",
          "name": "",
          "type": "uint256"
        }
      ],
      "stateMutability": "view",
      "type": "function"
    },
    {
      "inputs": [
        {
          "internalType": "bytes",
          "name": "performData",
          "type": "bytes"
        }
      ],
      "name": "performUpkeep",
      "outputs": [],
      "stateMutability": "nonpayable",
      "type": "function"
    },
    {
      "inputs": [],
      "name": "priceAdapterPrecision",
      "outputs": [
        {
          "internalType": "uint256",
          "name": "",
          "type": "uint256"
        }
      ],
      "stateMutability": "view",
      "type": "function"
    },
    {
      "inputs": [],
      "name": "registry",
      "outputs": [
        {
          "internalType": "contract IPriceAdapterRegistry",
          "name": "",
          "type": "address"
        }
      ],
      "stateMutability": "view",
      "type": "function"
    },
    {
      "inputs": [],
      "name": "renounceOwnership",
      "outputs": [],
      "stateMutability": "nonpayable",
      "type": "function"
    },
    {
      "inputs": [],
      "name": "rsFeeCoefficient",
      "outputs": [
        {
          "internalType": "uint16",
          "name": "",
          "type": "uint16"
        }
      ],
      "stateMutability": "view",
      "type": "function"
    },
    {
      "inputs": [
        {
          "internalType": "uint256",
          "name": "amount",
          "type": "uint256"
        }
      ],
      "name": "subtractPendingProtocolFees",
      "outputs": [],
      "stateMutability": "nonpayable",
      "type": "function"
    },
    {
      "inputs": [
        {
          "internalType": "address",
          "name": "newOwner",
          "type": "address"
        }
      ],
      "name": "transferOwnership",
      "outputs": [],
      "stateMutability": "nonpayable",
      "type": "function"
    },
    {
      "inputs": [],
      "name": "transparentMinibatchSize",
      "outputs": [
        {
          "internalType": "uint8",
          "name": "",
          "type": "uint8"
        }
      ],
      "stateMutability": "view",
      "type": "function"
    },
    {
      "inputs": [
        {
          "internalType": "uint256",
          "name": "",
          "type": "uint256"
        }
      ],
      "name": "transparentVaultsEpoch",
      "outputs": [
        {
          "internalType": "address",
          "name": "",
          "type": "address"
        }
      ],
      "stateMutability": "view",
      "type": "function"
    },
    {
      "inputs": [],
      "name": "underlyingAsset",
      "outputs": [
        {
          "internalType": "address",
          "name": "",
          "type": "address"
        }
      ],
      "stateMutability": "view",
      "type": "function"
    },
    {
      "inputs": [],
      "name": "underlyingDecimals",
      "outputs": [
        {
          "internalType": "uint8",
          "name": "",
          "type": "uint8"
        }
      ],
      "stateMutability": "view",
      "type": "function"
    },
    {
      "inputs": [
        {
          "internalType": "address",
          "name": "newAutomationRegistry",
          "type": "address"
        }
      ],
      "name": "updateAutomationRegistry",
      "outputs": [],
      "stateMutability": "nonpayable",
      "type": "function"
    },
    {
      "inputs": [
        {
          "internalType": "uint32",
          "name": "newEpochDuration",
          "type": "uint32"
        }
      ],
      "name": "updateEpochDuration",
      "outputs": [],
      "stateMutability": "nonpayable",
      "type": "function"
    },
    {
      "inputs": [
        {
          "internalType": "uint8",
          "name": "_transparentMinibatchSize",
          "type": "uint8"
        },
        {
          "internalType": "uint8",
          "name": "_encryptedMinibatchSize",
          "type": "uint8"
        }
      ],
      "name": "updateMinibatchSizes",
      "outputs": [],
      "stateMutability": "nonpayable",
      "type": "function"
    },
    {
      "inputs": [
        {
          "internalType": "uint16",
          "name": "_vFeeCoefficient",
          "type": "uint16"
        },
        {
          "internalType": "uint16",
          "name": "_rsFeeCoefficient",
          "type": "uint16"
        }
      ],
      "name": "updateProtocolFees",
      "outputs": [],
      "stateMutability": "nonpayable",
      "type": "function"
    },
    {
      "inputs": [],
      "name": "vFeeCoefficient",
      "outputs": [
        {
          "internalType": "uint16",
          "name": "",
          "type": "uint16"
        }
      ],
      "stateMutability": "view",
      "type": "function"
    }
  ],
  "bytecode": "0x608060405234801561000f575f5ffd5b50604051614fe8380380614fe883398101604081905261002e916107cb565b826100d26100cd604080516080810182525f80825260208201819052918101829052606081019190915250604080516080810182527350157cffd6bbfa2dece204a89ec419c23ef5755d815273cd3ab3bd6bcc0c0bf3e27912a92043e817b1cf696020820152731364cbbf2cdf5032c47d8226a6f6fbd2afcdacac9181019190915273901f8942346f7ab3a01f6d7613119bca447bb030606082015290565b610526565b6100ef73a02cda4ca3a71d7c46997716f4283aa851c288126105df565b6001600160a01b03811661011c57604051631e4fbdf760e01b81525f600482015260240160405180910390fd5b6101258161061c565b50600180556001600160a01b0382166101515760405163d92e233d60e01b815260040160405180910390fd5b6001600160a01b0381166101785760405163d92e233d60e01b815260040160405180910390fd5b600380546001600160a01b0319166001600160a01b0384169081179091556040805163015df99360e01b8152905163015df993916004808201926020929091908290030181865afa1580156101cf573d5f5f3e3d5ffd5b505050506040513d601f19601f820116820180604052508101906101f39190610815565b600580546001600160a01b0319166001600160a01b039283161790556003546040805163d1717c7d60e01b81529051919092169163d1717c7d9160048083019260209291908290030181865afa15801561024f573d5f5f3e3d5ffd5b505050506040513d601f19601f820116820180604052508101906102739190610837565b61027e90600a61094e565b60075560035460408051631c56369f60e21b815290516001600160a01b0390921691637158da7c916004808201926020929091908290030181865afa1580156102c9573d5f5f3e3d5ffd5b505050506040513d601f19601f820116820180604052508101906102ed9190610815565b600880546001600160a01b0319166001600160a01b03928316908117909155600354604051633c2e3e7b60e11b815260048101929092529091169063785c7cf690602401602060405180830381865afa15801561034c573d5f5f3e3d5ffd5b505050506040513d601f19601f820116820180604052508101906103709190610837565b600860146101000a81548160ff021916908360ff16021790555060035f9054906101000a90046001600160a01b03166001600160a01b031663567ba7136040518163ffffffff1660e01b8152600401602060405180830381865afa1580156103da573d5f5f3e3d5ffd5b505050506040513d601f19601f820116820180604052508101906103fe9190610837565b61040990600a61094e565b6006556017805463ffff000019166301010000179055600280546001600160a01b0319166001600160a01b038381169190911790915560035460408051631d06d6c760e11b815290519190921691633a0dad8e9160048281019260209291908290030181865afa15801561047f573d5f5f3e3d5ffd5b505050506040513d601f19601f820116820180604052508101906104a39190610815565b600480546001600160a01b03929092166001600160a01b03199092169190911790556015805463ffffffff1916620151801790556104e04261066b565b6016556017805465ffff0000ffff191690556104fb5f610686565b60188190556105099061069b565b50506008805463ffffffff60a81b1916905550505f601b556109b6565b80515f516020614fa85f395f51905f5280546001600160a01b03199081166001600160a01b039384161790915560208301515f516020614fc85f395f51905f528054831691841691909117905560408301517fed8d60e34876f751cc8b014c560745351147d9de11b9347c854e881b128ea6028054831691841691909117905560608301517fed8d60e34876f751cc8b014c560745351147d9de11b9347c854e881b128ea6038054909216921691909117905550565b50565b7f5ea69329017273582817d320489fbd94f775580e90c092699ca6f3d12fdf7d0080546001600160a01b0319166001600160a01b03831617905550565b5f80546001600160a01b038381166001600160a01b0319831681178455604051919092169283917f8be0079c531659141344cd1fd0a4f28419497f9722a3daafe3b4186f6b6457e09190a35050565b6015545f906106809063ffffffff168361095c565b92915050565b5f6106806001600160801b03831660066106aa565b5f6106a68230610741565b5090565b5f516020614fc85f395f51905f5254604051639cd07acb60e01b81525f915f516020614fa85f395f51905f52916001600160a01b0390911690639cd07acb906106f9908790879060040161096f565b6020604051808303815f875af1158015610715573d5f5f3e3d5ffd5b505050506040513d601f19601f82011682018060405250810190610739919061099f565b949350505050565b5f5f516020614fa85f395f51905f528054604051635ca4b5b160e11b8152600481018690526001600160a01b03858116602483015292935091169063b9496b62906044015f604051808303815f87803b15801561079c575f5ffd5b505af11580156107ae573d5f5f3e3d5ffd5b50505050505050565b6001600160a01b03811681146105dc575f5ffd5b5f5f5f606084860312156107dd575f5ffd5b83516107e8816107b7565b60208501519093506107f9816107b7565b604085015190925061080a816107b7565b809150509250925092565b5f60208284031215610825575f5ffd5b8151610830816107b7565b9392505050565b5f60208284031215610847575f5ffd5b815160ff81168114610830575f5ffd5b634e487b7160e01b5f52601160045260245ffd5b6001815b60018411156108a65780850481111561088a5761088a610857565b600184161561089857908102905b60019390931c92800261086f565b935093915050565b5f826108bc57506001610680565b816108c857505f610680565b81600181146108de57600281146108e857610904565b6001915050610680565b60ff8411156108f9576108f9610857565b50506001821b610680565b5060208310610133831016604e8410600b8410161715610927575081810a610680565b6109335f19848461086b565b805f190482111561094657610946610857565b029392505050565b5f61083060ff8416836108ae565b8082018082111561068057610680610857565b828152604081016054831061099257634e487b7160e01b5f52602160045260245ffd5b8260208301529392505050565b5f602082840312156109af575f5ffd5b5051919050565b6145e5806109c35f395ff3fe608060405234801561000f575f5ffd5b5060043610610193575f3560e01c8062bb07bb14610197578063055ad42e146101ac5780630844697d146101d657806308af604d146101fe57806314b19c5a1461022357806314b5d07f1461023157806325a760c214610244578063289a2f76146102585780632b0088b41461027857806336021ef41461028f5780633a0dad8e146102a35780634585e33b146102b65780634ff0876a146102c95780635488cd62146102ee57806358fac65b146103025780635dc228a014610315578063666f4a7b146103285780636e04ff0d1461033b578063706044451461035c578063715018a61461036f5780637158da7c1461037757806379502c551461038a5780637b1039991461039d5780637cdabf0a146103b0578063800f9fad146103c35780638da5cb5b146103cc5780638f5c9465146103d4578063a08b82d7146103dd578063b8b2af7c146103f3578063c18e2a5c14610408578063c2cb5d8814610411578063ca1f32f114610419578063eeb393c914610422578063f2fde38b14610435575b5f5ffd5b6101aa6101a5366004613af0565b610448565b005b6017546101c090600160201b900460ff1681565b6040516101cd9190613b3b565b60405180910390f35b6008546101eb90600160b81b900461ffff1681565b60405161ffff90911681526020016101cd565b6017546102119062010000900460ff1681565b60405160ff90911681526020016101cd565b6017546101eb9061ffff1681565b6101aa61023f366004613b69565b610542565b60085461021190600160a01b900460ff1681565b61026b610266366004613b84565b61064b565b6040516101cd9190613b9b565b61028160075481565b6040519081526020016101cd565b601754610211906301000000900460ff1681565b60045461026b906001600160a01b031681565b6101aa6102c4366004613baf565b610673565b6015546102d99063ffffffff1681565b60405163ffffffff90911681526020016101cd565b60175461021190600160281b900460ff1681565b61026b610310366004613b84565b6107f1565b60025461026b906001600160a01b031681565b6101aa610336366004613c5b565b610800565b61034e610349366004613baf565b61083b565b6040516101cd929190613d00565b6101aa61036a366004613b84565b610beb565b6101aa610c52565b60085461026b906001600160a01b031681565b60035461026b906001600160a01b031681565b60055461026b906001600160a01b031681565b6101aa6103be366004613d30565b610c65565b61028160095481565b61026b610d6c565b6101eb61271081565b6103e5610d7a565b6040516101cd929190613d61565b6008546101eb90600160a81b900461ffff1681565b610281601b5481565b6103e5610f12565b61028160065481565b6101aa610430366004613dfb565b6110a3565b6101aa610443366004613b69565b61117e565b6104506111c4565b60ff82161580610461575060ff8116155b1561047f576040516317dbc4cb60e21b815260040160405180910390fd5b60035f9054906101000a90046001600160a01b03166001600160a01b031663edcf9c1f6040518163ffffffff1660e01b8152600401602060405180830381865afa1580156104cf573d5f5f3e3d5ffd5b505050506040513d601f19601f820116820180604052508101906104f39190613e16565b610510576040516312aecd8160e01b815260040160405180910390fd5b6017805463ffff000019166201000060ff9485160263ff00000019161763010000009290931691909102919091179055565b61054a6111c4565b6001600160a01b0381166105715760405163d92e233d60e01b815260040160405180910390fd5b60035f9054906101000a90046001600160a01b03166001600160a01b031663edcf9c1f6040518163ffffffff1660e01b8152600401602060405180830381865afa1580156105c1573d5f5f3e3d5ffd5b505050506040513d601f19601f820116820180604052508101906105e59190613e16565b610602576040516312aecd8160e01b815260040160405180910390fd5b600280546001600160a01b0319166001600160a01b0383169081179091556040517f6cc7ebdb6c8c53291c5ae16148cab9b049d23bf5bde5632900b40edff56fcb43905f90a250565b601a818154811061065a575f80fd5b5f918252602090912001546001600160a01b0316905081565b6002546001600160a01b0316331461069e5760405163ea8e4eb560e01b815260040160405180910390fd5b6106a66111f6565b60048110156106c8576040516317dbc4cb60e21b815260040160405180910390fd5b5f806106d683850185613e35565b90925090506341659aab60e01b6001600160e01b0319831601610700576106fb611220565b6107e2565b636ce38ed360e11b6001600160e01b0319831601610721576106fb816114c6565b635954faa160e01b6001600160e01b0319831601610742576106fb81611b4d565b63dbd33d3560e01b6001600160e01b0319831601610762576106fb612188565b6292a80f60e51b6001600160e01b0319831601610781576106fb6125ee565b6265e66b60e01b6001600160e01b03198316016107a1576106fb81612912565b63f4d3cc0960e01b6001600160e01b03198316016107c2576106fb81612d31565b63c4b3cef760e01b6001600160e01b03198316016107e2576107e2612e1c565b50506107ed60018055565b5050565b6019818154811061065a575f80fd5b6108138561080e8385613ec3565b612fe8565b61081f601c85856139e2565b50506017805461ffff60201b1916600360201b17905550505050565b5f606060035f9054906101000a90046001600160a01b03166001600160a01b031663edcf9c1f6040518163ffffffff1660e01b8152600401602060405180830381865afa15801561088e573d5f5f3e3d5ffd5b505050506040513d601f19601f820116820180604052508101906108b29190613e16565b80156108bf575060165442115b1561091157600191507fbe9a655586dceb82dfa0af992b5d8ae7fa45053cb7fd6f141f541da7572978c75f6040516020016108fb929190613f93565b6040516020818303038152906040529050610be4565b6001601754600160201b900460ff16600781111561093157610931613b27565b0361097c57600191507f2638e25a856cbfe28e0ae1857cb597cc2ceb873ce579b7d93c2258e45a754481601760059054906101000a900460ff166040516020016108fb929190613f93565b6002601754600160201b900460ff16600781111561099c5761099c613b27565b036109e757600191507fa6ab055f7fc0612ad6e844f7e1dd3a6df793560cd68d707affa0dd01c39ec8f1601760059054906101000a900460ff166040516020016108fb929190613f93565b6003601754600160201b900460ff166007811115610a0757610a07613b27565b03610a4357600191507f242cc2cba236b9c457bb86deb0ad1fb8fe60d5bcafd69d02041c9c62f3ea1fbd5f6040516020016108fb929190613f93565b6004601754600160201b900460ff166007811115610a6357610a63613b27565b03610a9f57600191507fedaafe206508e00f40674bb87dda745bccfe8a3f3f6d6eaaf6db5f44021a1c135f6040516020016108fb929190613f93565b6005601754600160201b900460ff166007811115610abf57610abf613b27565b03610b0a57600191507fff9a199536c068c55c334e40ebfa355733f79152332d6586d615c5bb37fd5c17601760059054906101000a900460ff166040516020016108fb929190613f93565b6006601754600160201b900460ff166007811115610b2a57610b2a613b27565b03610b7557600191507f0b2c33f7f9ce5cba78feb12c50c7fc97cbcfb655f151982783c0f2faf7567b0b601760059054906101000a900460ff166040516020016108fb929190613f93565b6007601754600160201b900460ff166007811115610b9557610b95613b27565b03610bd157600191507f3b4c310984a9fe486c05a56b52659c09d4bf9f3ef9b799ad52ee29a7d805741e5f6040516020016108fb929190613f93565b505060408051602081019091525f808252905b9250929050565b6004546001600160a01b03163314610c165760405163ea8e4eb560e01b815260040160405180910390fd5b600954811115610c3957604051632ca2f52b60e11b815260040160405180910390fd5b8060095f828254610c4a9190613fc4565b909155505050565b610c5a6111c4565b610c635f61304f565b565b610c6d6111c4565b60648261ffff161180610c8557506107d08161ffff16115b15610ca3576040516317dbc4cb60e21b815260040160405180910390fd5b60035f9054906101000a90046001600160a01b03166001600160a01b031663edcf9c1f6040518163ffffffff1660e01b8152600401602060405180830381865afa158015610cf3573d5f5f3e3d5ffd5b505050506040513d601f19601f82011682018060405250810190610d179190613e16565b610d34576040516312aecd8160e01b815260040160405180910390fd5b6008805463ffffffff60a81b1916600160a81b61ffff9485160261ffff60b81b191617600160b81b9290931691909102919091179055565b5f546001600160a01b031690565b601380546040805160208084028201810190925282815260609384935f93830182828015610dcf57602002820191905f5260205f20905b81546001600160a01b03168152600190910190602001808311610db1575b505083519394505061ffff83169150506001600160401b03811115610df657610df6613e5d565b604051908082528060200260200182016040528015610e1f578160200160208202803683370190505b5093508061ffff166001600160401b03811115610e3e57610e3e613e5d565b604051908082528060200260200182016040528015610e67578160200160208202803683370190505b5092505f5b8161ffff168161ffff161015610f0b575f838261ffff1681518110610e9357610e93613fd7565b6020026020010151905080868361ffff1681518110610eb457610eb4613fd7565b6001600160a01b039283166020918202929092018101919091529082165f908152601290915260409020548551869061ffff8516908110610ef757610ef7613fd7565b602090810291909101015250600101610e6c565b5050509091565b601380546040805160208084028201810190925282815260609384935f93830182828015610f6757602002820191905f5260205f20905b81546001600160a01b03168152600190910190602001808311610f49575b505083519394505061ffff83169150506001600160401b03811115610f8e57610f8e613e5d565b604051908082528060200260200182016040528015610fb7578160200160208202803683370190505b5093508061ffff166001600160401b03811115610fd657610fd6613e5d565b604051908082528060200260200182016040528015610fff578160200160208202803683370190505b5092505f5b8161ffff168161ffff161015610f0b575f838261ffff168151811061102b5761102b613fd7565b6020026020010151905080868361ffff168151811061104c5761104c613fd7565b6001600160a01b039283166020918202929092018101919091529082165f908152601190915260409020548551869061ffff851690811061108f5761108f613fd7565b602090810291909101015250600101611004565b6110ab6111c4565b8063ffffffff165f036110d1576040516317dbc4cb60e21b815260040160405180910390fd5b60035f9054906101000a90046001600160a01b03166001600160a01b031663edcf9c1f6040518163ffffffff1660e01b8152600401602060405180830381865afa158015611121573d5f5f3e3d5ffd5b505050506040513d601f19601f820116820180604052508101906111459190613e16565b611162576040516312aecd8160e01b815260040160405180910390fd5b6015805463ffffffff191663ffffffff92909216919091179055565b6111866111c4565b6001600160a01b0381166111b8575f604051631e4fbdf760e01b81526004016111af9190613b9b565b60405180910390fd5b6111c18161304f565b50565b336111cd610d6c565b6001600160a01b031614610c63573360405163118cdaa760e01b81526004016111af9190613b9b565b60026001540361121957604051633ee5aeb560e01b815260040160405180910390fd5b6002600155565b601654421115806112a2575060035f9054906101000a90046001600160a01b03166001600160a01b031663edcf9c1f6040518163ffffffff1660e01b8152600401602060405180830381865afa15801561127c573d5f5f3e3d5ffd5b505050506040513d601f19601f820116820180604052508101906112a09190613e16565b155b156112c05760405163085de62560e01b815260040160405180910390fd5b6112c94261309e565b6016555f5b60135461ffff8216101561138d575f600a6009018261ffff16815481106112f7576112f7613fd7565b5f9182526020808320909101546001600160a01b03168252600a81526040808320839055600b8252808320839055600d8252808320839055600f8252808320839055601182528083208390556012825280832083905560148252808320805460ff19169055601854600c8352818420819055600e83528184208190556010909252909120555061138681613feb565b90506112ce565b5061139960135f613a27565b6113a4601c5f613a27565b600354604051631da09e4360e31b81526001600160a01b039091169063ed04f218906113d4905f9060040161400b565b5f60405180830381865afa1580156113ee573d5f5f3e3d5ffd5b505050506040513d5f823e601f3d908101601f19168201604052611415919081019061408d565b805161142991601991602090910190613a42565b50600354604051631da09e4360e31b81526001600160a01b039091169063ed04f2189061145b9060019060040161400b565b5f60405180830381865afa158015611475573d5f5f3e3d5ffd5b505050506040513d5f823e601f3d908101601f1916820160405261149c919081019061408d565b80516114b091601a91602090910190613a42565b506017805460ff60201b1916600160201b179055565b6001601754600160201b900460ff1660078111156114e6576114e6613b27565b146115045760405163baf3f0f760e01b815260040160405180910390fd5b6017805460059061151e90600160281b900460ff166140be565b91906101000a81548160ff021916908360ff1602179055505f601760029054906101000a900460ff168261155291906140d3565b60175460ff91821692505f9161156f9162010000900416836140f6565b60195490915061ffff8216118061158b575060195461ffff8216145b156115a957506019546017805461ffff60201b1916600160211b1790555b815b8161ffff168161ffff161015611b47575f60198261ffff16815481106115d3576115d3613fd7565b905f5260205f20015f9054906101000a90046001600160a01b031690505f5f826001600160a01b031663d3d034586040518163ffffffff1660e01b81526004015f60405180830381865afa15801561162d573d5f5f3e3d5ffd5b505050506040513d5f823e601f3d908101601f191682016040526116549190810190614110565b90925090505f805b83518161ffff1610156118b3575f848261ffff168151811061168057611680613fd7565b602002602001015190505f848361ffff16815181106116a1576116a1613fd7565b6020026020010151905080600a6001015f846001600160a01b03166001600160a01b031681526020019081526020015f205f8282546116e091906141ce565b90915550506001600160a01b0382165f9081526014602052604090205460ff166117d7576008546001600160a01b039081169083160361174f5760085461173290600160a01b900460ff16600a6142c4565b6001600160a01b0383165f908152600a60205260409020556117d7565b6005546040516341976e0960e01b81526001600160a01b03909116906341976e099061177f908590600401613b9b565b602060405180830381865afa15801561179a573d5f5f3e3d5ffd5b505050506040513d601f19601f820116820180604052508101906117be91906142d2565b6001600160a01b0383165f908152600a60205260409020555b6001600160a01b0382165f908152600a60205260408120546006549091906118879061180690849086906130b9565b600354604051633c2e3e7b60e11b81526001600160a01b039091169063785c7cf690611836908990600401613b9b565b602060405180830381865afa158015611851573d5f5f3e3d5ffd5b505050506040513d601f19601f8201168201806040525081019061187591906142e9565b600854600160a01b900460ff1661316a565b905061189381876141ce565b955061189e846131d4565b50505050806118ac90613feb565b905061165c565b506008545f906118d190600160a81b900461ffff16836127106130b9565b6015549091506118f290829063ffffffff908116906301e13380906130b916565b90508060095f82825461190591906141ce565b9091555061191590508183613fc4565b60405163728d42fb60e11b8152600481018290529092505f906001600160a01b0387169063e51a85f690602401602060405180830381865afa15801561195d573d5f5f3e3d5ffd5b505050506040513d601f19601f8201168201806040525081019061198191906142d2565b905061198d8184613fc4565b6008549093505f906119ad90600160b81b900461ffff16836127106130b9565b90508060095f8282546119c091906141ce565b909155506119d090508183613fc4565b91505f876001600160a01b031663a68a5267896001600160a01b0316630a605c6d6040518163ffffffff1660e01b8152600401602060405180830381865afa158015611a1e573d5f5f3e3d5ffd5b505050506040513d601f19601f82011682018060405250810190611a4291906142d2565b875f6040518463ffffffff1660e01b8152600401611a6293929190614304565b602060405180830381865afa158015611a7d573d5f5f3e3d5ffd5b505050506040513d601f19601f82011682018060405250810190611aa191906142d2565b905080886001600160a01b031663f64c6f326040518163ffffffff1660e01b8152600401602060405180830381865afa158015611ae0573d5f5f3e3d5ffd5b505050506040513d601f19601f82011682018060405250810190611b0491906142d2565b611b0e9190613fc4565b611b1890866141ce565b6001600160a01b039098165f908152600d60205260409020979097555050600190950194506115ab9350505050565b50505050565b6002601754600160201b900460ff166007811115611b6d57611b6d613b27565b14611b8b5760405163baf3f0f760e01b815260040160405180910390fd5b60178054600590611ba590600160281b900460ff166140be565b82546101009290920a60ff818102199093169183160217909155601a5460175490915f91611bdc91630100000090910416846140d3565b60175460ff91821692505f91611bfa916301000000900416836140f6565b90508261ffff168161ffff161180611c1957508261ffff168161ffff16145b15611c215750815b815b8161ffff168161ffff161015611fc9575f601a8261ffff1681548110611c4b57611c4b613fd7565b5f918252602091829020015460408051631b9d6fc560e31b815290516001600160a01b039092169350839263dceb7e28926004808401938290030181865afa158015611c99573d5f5f3e3d5ffd5b505050506040513d601f19601f82011682018060405250810190611cbd9190613e16565b611cc75750611fc1565b5f5f826001600160a01b031663d3d034586040518163ffffffff1660e01b81526004015f60405180830381865afa158015611d04573d5f5f3e3d5ffd5b505050506040513d5f823e601f3d908101601f19168201604052611d2b9190810190614110565b60185491935091505f5b83518161ffff161015611fa1575f848261ffff1681518110611d5957611d59613fd7565b602002602001015190505f848361ffff1681518110611d7a57611d7a613fd7565b60200260200101519050611db4600a6002015f846001600160a01b03166001600160a01b031681526020019081526020015f205482613259565b6001600160a01b0383165f908152600c602090815260408083209390935560149052205460ff16611eb2576008546001600160a01b0390811690831603611e2a57600854611e0d90600160a01b900460ff16600a6142c4565b6001600160a01b0383165f908152600a6020526040902055611eb2565b6005546040516341976e0960e01b81526001600160a01b03909116906341976e0990611e5a908590600401613b9b565b602060405180830381865afa158015611e75573d5f5f3e3d5ffd5b505050506040513d601f19601f82011682018060405250810190611e9991906142d2565b6001600160a01b0383165f908152600a60205260409020555b6001600160a01b0382165f908152600a602052604081205490611ee8611ee0611eda84613287565b8561329c565b6006546132ca565b600354604051633c2e3e7b60e11b81529192505f91611f749184916001600160a01b039091169063785c7cf690611f23908a90600401613b9b565b602060405180830381865afa158015611f3e573d5f5f3e3d5ffd5b505050506040513d601f19601f82011682018060405250810190611f6291906142e9565b600854600160a01b900460ff166132ef565b9050611f808782613259565b9650611f8b856131d4565b505050505080611f9a90613feb565b9050611d35565b506001600160a01b039093165f908152600e602052604090209290925550505b600101611c23565b508261ffff168161ffff1603611b47578061ffff165f03611ffd576017805461ffff60201b1916600160221b179055611b47565b6013545f61200b82866140f6565b61ffff166001600160401b0381111561202657612026613e5d565b60405190808252806020026020018201604052801561204f578160200160208202803683370190505b5090505f5b8561ffff168161ffff1610156120d9575f601a8261ffff168154811061207c5761207c613fd7565b5f9182526020808320909101546001600160a01b0316808352600e9091526040909120549091506120ac81613350565b5080848461ffff16815181106120c4576120c4613fd7565b60209081029190910101525050600101612054565b505f5b8261ffff168161ffff16101561216d575f600a6009018261ffff168154811061210757612107613fd7565b5f9182526020808320909101546001600160a01b0316808352600c90915260409091205490915061213781613350565b508084612144858b6140f6565b61ffff168151811061215857612158613fd7565b602090810291909101015250506001016120dc565b5061217f8163666f4a7b60e01b61335f565b50505050505050565b6003601754600160201b900460ff1660078111156121a8576121a8613b27565b146121c65760405163baf3f0f760e01b815260040160405180910390fd5b601a546013545f5b8261ffff168161ffff161015612529575f601a8261ffff16815481106121f6576121f6613fd7565b5f918252602091829020015460408051631b9d6fc560e31b815290516001600160a01b0390921693508392839263dceb7e289260048082019392918290030181865afa158015612248573d5f5f3e3d5ffd5b505050506040513d601f19601f8201168201806040525081019061226c9190613e16565b612277575050612521565b5f601c8461ffff168154811061228f5761228f613fd7565b5f9182526020822001546008549092506122b790600160a81b900461ffff16836127106130b9565b6015549091506122d890829063ffffffff908116906301e13380906130b916565b90508060095f8282546122eb91906141ce565b909155506122fb90508183613fc4565b60405163728d42fb60e11b8152600481018290529092505f906001600160a01b0385169063e51a85f690602401602060405180830381865afa158015612343573d5f5f3e3d5ffd5b505050506040513d601f19601f8201168201806040525081019061236791906142d2565b90506123738184613fc4565b6008549093505f9061239390600160b81b900461ffff16836127106130b9565b90508060095f8282546123a691906141ce565b909155506123b690508183613fc4565b91505f856001600160a01b031663a68a5267876001600160a01b0316630a605c6d6040518163ffffffff1660e01b8152600401602060405180830381865afa158015612404573d5f5f3e3d5ffd5b505050506040513d601f19601f8201168201806040525081019061242891906142d2565b875f6040518463ffffffff1660e01b815260040161244893929190614304565b602060405180830381865afa158015612463573d5f5f3e3d5ffd5b505050506040513d601f19601f8201168201806040525081019061248791906142d2565b905080866001600160a01b031663f64c6f326040518163ffffffff1660e01b8152600401602060405180830381865afa1580156124c6573d5f5f3e3d5ffd5b505050506040513d601f19601f820116820180604052508101906124ea91906142d2565b6124f49190613fc4565b6124fe90866141ce565b6001600160a01b039097165f908152600d60205260409020969096555050505050505b6001016121ce565b505f5b8161ffff168161ffff1610156125d5575f600a6009018261ffff168154811061255757612557613fd7565b5f9182526020822001546001600160a01b03169150601c61257884876140f6565b61ffff168154811061258c5761258c613fd7565b5f9182526020808320909101546001600160a01b0385168352600b909152604082208054919350839290916125c29084906141ce565b90915550506001909201915061252c9050565b50506017805461ffff60201b1916600160221b17905550565b6004601754600160201b900460ff16600781111561260e5761260e613b27565b1461262c5760405163baf3f0f760e01b815260040160405180910390fd5b6017805460ff60201b1916600560201b1790555f805b60195461ffff821610156126ad575f60198261ffff168154811061266857612668613fd7565b5f9182526020808320909101546001600160a01b0316808352600d90915260409091205490915061269990846141ce565b925050806126a690613feb565b9050612642565b505f5b601a5461ffff8216101561271b575f601a8261ffff16815481106126d6576126d6613fd7565b5f9182526020808320909101546001600160a01b0316808352600d90915260409091205490915061270790846141ce565b9250508061271490613feb565b90506126b0565b50600480546040805163dab26e3b60e01b815290515f93612792936001600160a01b03169263dab26e3b92818301926020928290030181865afa158015612764573d5f5f3e3d5ffd5b505050506040513d601f19601f8201168201806040525081019061278891906142d2565b83906127106130b9565b905080601b5411156127a2575050565b5f601b54826127b19190613fc4565b90505f5b60195461ffff82161015612854575f60198261ffff16815481106127db576127db613fd7565b5f9182526020808320909101546001600160a01b0316808352600d90915260408220549092509061280d8583896130b9565b6001600160a01b0384165f908152600d6020526040812080549293508392909190612839908490613fc4565b925050819055505050508061284d90613feb565b90506127b5565b505f5b601a5461ffff821610156128f6575f601a8261ffff168154811061287d5761287d613fd7565b5f9182526020808320909101546001600160a01b0316808352600d9091526040822054909250906128af8583896130b9565b6001600160a01b0384165f908152600d60205260408120805492935083929091906128db908490613fc4565b92505081905550505050806128ef90613feb565b9050612857565b5080601b5f82825461290891906141ce565b9091555050505050565b6005601754600160201b900460ff16600781111561293257612932613b27565b146129505760405163baf3f0f760e01b815260040160405180910390fd5b6017805460059061296a90600160281b900460ff166140be565b91906101000a81548160ff021916908360ff1602179055505f601760029054906101000a900460ff168261299e91906140d3565b60175460ff91821692505f916129bb9162010000900416836140f6565b60195490915061ffff821611806129d7575060195461ffff8216145b156129f557506019546017805461ffff60201b1916600360211b1790555b815b8161ffff168161ffff161015611b47575f60198261ffff1681548110612a1f57612a1f613fd7565b905f5260205f20015f9054906101000a90046001600160a01b031690505f5f826001600160a01b031663b6eba6536040518163ffffffff1660e01b81526004015f60405180830381865afa158015612a79573d5f5f3e3d5ffd5b505050506040513d5f823e601f3d908101601f19168201604052612aa09190810190614330565b6001600160a01b0385165f908152600d60205260408120549294509092505b83518161ffff161015612d21575f848261ffff1681518110612ae357612ae3613fd7565b602002602001015190505f848361ffff1681518110612b0457612b04613fd7565b6020908102919091018101516001600160a01b0384165f908152601490925260409091205490915060ff16612c06576008546001600160a01b0390811690831603612b7e57600854612b6190600160a01b900460ff16600a6142c4565b6001600160a01b0383165f908152600a6020526040902055612c06565b6005546040516341976e0960e01b81526001600160a01b03909116906341976e0990612bae908590600401613b9b565b602060405180830381865afa158015612bc9573d5f5f3e3d5ffd5b505050506040513d601f19601f82011682018060405250810190612bed91906142d2565b6001600160a01b0383165f908152600a60205260409020555b6001600160a01b0382165f908152600a6020526040812054600654600754919291612cd191612c4e918590612c47908b9063ffffffff808b1691906130b916565b91906130b9565b600854600354604051633c2e3e7b60e11b8152600160a01b90920460ff16916001600160a01b039091169063785c7cf690612c8d908a90600401613b9b565b602060405180830381865afa158015612ca8573d5f5f3e3d5ffd5b505050506040513d601f19601f82011682018060405250810190612ccc91906142e9565b61316a565b6001600160a01b0385165f908152600f6020526040812080549293508392909190612cfd9084906141ce565b90915550612d0c9050846131d4565b5050505080612d1a90613feb565b9050612abf565b50505050508060010190506129f7565b6006601754600160201b900460ff166007811115612d5157612d51613b27565b14612d6f5760405163baf3f0f760e01b815260040160405180910390fd5b60178054600590612d8990600160281b900460ff166140be565b82546101009290920a60ff818102199093169183160217909155601a5460175490915f91612dc091630100000090910416846140d3565b60175460ff91821692505f91612dde916301000000900416836140f6565b90508261ffff168161ffff161180612dfd57508261ffff168161ffff16145b15611b475750506017805461ffff60201b1916600760201b1790555050565b6007601754600160201b900460ff166007811115612e3c57612e3c613b27565b14612e5a5760405163baf3f0f760e01b815260040160405180910390fd5b5f600a600901805480602002602001604051908101604052809291908181526020018280548015612eb257602002820191905f5260205f20905b81546001600160a01b03168152600190910190602001808311612e94575b505083519394505f925050505b8161ffff168161ffff161015612f7d575f838261ffff1681518110612ee657612ee6613fd7565b6020908102919091018101516001600160a01b0381165f908152600b8352604080822054600f90945290205490925080821115612f4457612f278183613fc4565b6001600160a01b0384165f90815260116020526040902055612f6f565b81811115612f6f57612f568282613fc4565b6001600160a01b0384165f908152601260205260409020555b505050806001019050612ebf565b506017805460ff60201b19811682555f90612f9b9061ffff16613feb565b82546101009290920a61ffff8181021990931691831602179091556017546040519116907f0bc12479581640d161e016cef21aa834cb6d6326bbc0d8445e58d56403adf2dc905f90a25050565b5f612ff28361336b565b90505f612fff8284613407565b90508061301f5760405163cf6c44e960e01b815260040160405180910390fd5b60405184907f1af0453083661051f6e56e5c070792320652e612154bf9af8637bb1e7655b99d905f90a250505050565b5f80546001600160a01b038381166001600160a01b0319831681178455604051919092169283917f8be0079c531659141344cd1fd0a4f28419497f9722a3daafe3b4186f6b6457e09190a35050565b6015545f906130b39063ffffffff16836141ce565b92915050565b5f5f5f6130c686866134ee565b91509150815f036130ea578381816130e0576130e06143e9565b0492505050613163565b81841161310157613101600385150260111861350a565b5f848688095f868103871696879004966002600389028118808a02820302808a02820302808a02820302808a02820302808a02820302808a02909103029181900381900460010185841190960395909502919093039390930492909217029150505b9392505050565b5f8260ff168260ff16111561319f5761318383836143fd565b61318e90600a6142c4565b6131989085614416565b9050613163565b8260ff168260ff1610156131cc576131b782846143fd565b6131c290600a6142c4565b613198908561442d565b509192915050565b6001600160a01b0381165f9081526014602052604090205460ff166111c1576013805460018181019092557f66de8ffda797e3de9c05e8fc57b3bf0ec28a930d40b0d285d93c06501cf6a0900180546001600160a01b0384166001600160a01b031990911681179091555f908152601460205260409020805460ff1916909117905550565b5f8261326b576132685f613287565b92505b8161327c576132795f613287565b91505b61316383835f61351b565b5f6130b3826001600160801b031660066135bb565b5f826132ae576132ab5f613287565b92505b816132bf576132bc5f613287565b91505b61316383835f613642565b5f826132dc576132d95f613287565b92505b613163836001600160801b038416613698565b5f8260ff168260ff161115613324576131988461331f61330f86866143fd565b61331a90600a6142c4565b613287565b61329c565b8260ff168260ff1610156131cc576131988461334084866143fd565b61334b90600a6142c4565b6132ca565b5f61335b8230613727565b5090565b5f61316383835f61378e565b60605f613376613893565b5f848152600282016020526040812054919250036133a75760405163d66ca67560e01b815260040160405180910390fd5b5f838152600282016020908152604091829020805483518184028101840190945280845290918301828280156133fa57602002820191905f5260205f20905b8154815260200190600101908083116133e6575b5050505050915050919050565b5f602481613414856138b7565b90505f816001600160401b0381111561342f5761342f613e5d565b6040519080825280601f01601f191660200182016040528015613459576020820181803683370190505b509050818360208301375f61346c613964565b6002810154604051632c027b1360e21b81529192506001600160a01b03169063b009ec4c906134a3908a9086908b90600401614486565b6020604051808303815f875af11580156134bf573d5f5f3e3d5ffd5b505050506040513d601f19601f820116820180604052508101906134e39190613e16565b979650505050505050565b5f805f1983850993909202808410938190039390930393915050565b634e487b715f52806020526024601cfd5b5f5f821561352e5750600160f81b613531565b505f5b5f61353a613964565b600181015460405163022f65e760e31b81529192506001600160a01b03169063117b2f389061357190899089908790600401614510565b6020604051808303815f875af115801561358d573d5f5f3e3d5ffd5b505050506040513d601f19601f820116820180604052508101906135b191906142d2565b9695505050505050565b5f5f6135c5613964565b6001810154604051639cd07acb60e01b81529192506001600160a01b031690639cd07acb906135fa9087908790600401614530565b6020604051808303815f875af1158015613616573d5f5f3e3d5ffd5b505050506040513d601f19601f8201168201806040525081019061363a91906142d2565b949350505050565b5f5f82156136555750600160f81b613658565b505f5b5f613661613964565b6001810154604051630afe14ad60e31b81529192506001600160a01b0316906357f0a5689061357190899089908790600401614510565b5f600160f81b816136a7613964565b6001810154604051635a53accb60e01b81529192506001600160a01b031690635a53accb906136de90889088908790600401614510565b6020604051808303815f875af11580156136fa573d5f5f3e3d5ffd5b505050506040513d601f19601f8201168201806040525081019061371e91906142d2565b95945050505050565b5f613730613964565b8054604051635ca4b5b160e11b8152600481018690526001600160a01b03858116602483015292935091169063b9496b62906044015f604051808303815f87803b15801561377c575f5ffd5b505af115801561217f573d5f5f3e3d5ffd5b5f5f613798613893565b9050806001015491505f6137aa613964565b8054604051637d6e912360e11b81529192506001600160a01b03169063fadd2246906137da908990600401614554565b5f604051808303815f87803b1580156137f1575f5ffd5b505af1158015613803573d5f5f3e3d5ffd5b50508354604051633263b83b60e01b81526001600160a01b039091169250633263b83b9150869061383c9087908b908b90600401614566565b5f604051808303818588803b158015613853575f5ffd5b505af1158015613865573d5f5f3e3d5ffd5b50505050506138748387613988565b600182018054905f61388583614597565b919050555050509392505050565b7f5ea69329017273582817d320489fbd94f775580e90c092699ca6f3d12fdf7d0090565b80515f9081805b82811015613958575f8582815181106138d9576138d9613fd7565b6020026020010151601e602081106138f3576138f3613fd7565b1a605381111561390557613905613b27565b9050600981605381111561391b5761391b613b27565b60ff1610156139365761392f6020846141ce565b925061394f565b60405163ce54a8d160e01b815260040160405180910390fd5b506001016138be565b5061363a6020826141ce565b7fed8d60e34876f751cc8b014c560745351147d9de11b9347c854e881b128ea60090565b5f613991613893565b5f848152600282016020526040902054909150156139c257604051633f06d22b60e01b815260040160405180910390fd5b5f83815260028201602090815260409091208351611b4792850190613a95565b828054828255905f5260205f20908101928215613a1b579160200282015b82811115613a1b578235825591602001919060010190613a00565b5061335b929150613ace565b5080545f8255905f5260205f20908101906111c19190613ace565b828054828255905f5260205f20908101928215613a1b579160200282015b82811115613a1b57825182546001600160a01b0319166001600160a01b03909116178255602090920191600190910190613a60565b828054828255905f5260205f20908101928215613a1b579160200282015b82811115613a1b578251825591602001919060010190613ab3565b5b8082111561335b575f8155600101613acf565b60ff811681146111c1575f5ffd5b5f5f60408385031215613b01575f5ffd5b8235613b0c81613ae2565b91506020830135613b1c81613ae2565b809150509250929050565b634e487b7160e01b5f52602160045260245ffd5b6020810160088310613b4f57613b4f613b27565b91905290565b6001600160a01b03811681146111c1575f5ffd5b5f60208284031215613b79575f5ffd5b813561316381613b55565b5f60208284031215613b94575f5ffd5b5035919050565b6001600160a01b0391909116815260200190565b5f5f60208385031215613bc0575f5ffd5b82356001600160401b03811115613bd5575f5ffd5b8301601f81018513613be5575f5ffd5b80356001600160401b03811115613bfa575f5ffd5b856020828401011115613c0b575f5ffd5b6020919091019590945092505050565b5f5f83601f840112613c2b575f5ffd5b5081356001600160401b03811115613c41575f5ffd5b6020830191508360208260051b8501011115610be4575f5ffd5b5f5f5f5f5f60608688031215613c6f575f5ffd5b8535945060208601356001600160401b03811115613c8b575f5ffd5b613c9788828901613c1b565b90955093505060408601356001600160401b03811115613cb5575f5ffd5b613cc188828901613c1b565b969995985093965092949392505050565b5f81518084528060208401602086015e5f602082860101526020601f19601f83011685010191505092915050565b8215158152604060208201525f61363a6040830184613cd2565b803561ffff81168114613d2b575f5ffd5b919050565b5f5f60408385031215613d41575f5ffd5b613d4a83613d1a565b9150613d5860208401613d1a565b90509250929050565b604080825283519082018190525f9060208501906060840190835b81811015613da35783516001600160a01b0316835260209384019390920191600101613d7c565b5050838103602080860191909152855180835291810192508501905f5b81811015613dde578251845260209384019390920191600101613dc0565b50919695505050505050565b63ffffffff811681146111c1575f5ffd5b5f60208284031215613e0b575f5ffd5b813561316381613dea565b5f60208284031215613e26575f5ffd5b81518015158114613163575f5ffd5b5f5f60408385031215613e46575f5ffd5b82356001600160e01b031981168114613b0c575f5ffd5b634e487b7160e01b5f52604160045260245ffd5b604051601f8201601f191681016001600160401b0381118282101715613e9957613e99613e5d565b604052919050565b5f6001600160401b03821115613eb957613eb9613e5d565b5060051b60200190565b5f613ed5613ed084613ea1565b613e71565b8381526020810190600585901b840136811115613ef0575f5ffd5b845b81811015613f885780356001600160401b03811115613f0f575f5ffd5b860136601f820112613f1f575f5ffd5b80356001600160401b03811115613f3857613f38613e5d565b613f4b601f8201601f1916602001613e71565b818152366020838501011115613f5f575f5ffd5b816020840160208301375f60208383010152808752505050602084019350602081019050613ef2565b509095945050505050565b6001600160e01b031992909216825260ff16602082015260400190565b634e487b7160e01b5f52601160045260245ffd5b818103818111156130b3576130b3613fb0565b634e487b7160e01b5f52603260045260245ffd5b5f61ffff821661ffff810361400257614002613fb0565b60010192915050565b6020810160028310613b4f57613b4f613b27565b5f82601f83011261402e575f5ffd5b815161403c613ed082613ea1565b8082825260208201915060208360051b86010192508583111561405d575f5ffd5b602085015b8381101561408357805161407581613b55565b835260209283019201614062565b5095945050505050565b5f6020828403121561409d575f5ffd5b81516001600160401b038111156140b2575f5ffd5b61363a8482850161401f565b5f60ff821660ff810361400257614002613fb0565b60ff81811683821602908116908181146140ef576140ef613fb0565b5092915050565b61ffff81811683821601908111156130b3576130b3613fb0565b5f5f60408385031215614121575f5ffd5b82516001600160401b03811115614136575f5ffd5b6141428582860161401f565b602085015190935090506001600160401b0381111561415f575f5ffd5b8301601f8101851361416f575f5ffd5b805161417d613ed082613ea1565b8082825260208201915060208360051b85010192508783111561419e575f5ffd5b6020840193505b828410156141c05783518252602093840193909101906141a5565b809450505050509250929050565b808201808211156130b3576130b3613fb0565b6001815b600184111561421c5780850481111561420057614200613fb0565b600184161561420e57908102905b60019390931c9280026141e5565b935093915050565b5f82614232575060016130b3565b8161423e57505f6130b3565b8160018114614254576002811461425e5761427a565b60019150506130b3565b60ff84111561426f5761426f613fb0565b50506001821b6130b3565b5060208310610133831016604e8410600b841016171561429d575081810a6130b3565b6142a95f1984846141e1565b805f19048211156142bc576142bc613fb0565b029392505050565b5f61316360ff841683614224565b5f602082840312156142e2575f5ffd5b5051919050565b5f602082840312156142f9575f5ffd5b815161316381613ae2565b83815260208101839052606081016004831061432257614322613b27565b826040830152949350505050565b5f5f60408385031215614341575f5ffd5b82516001600160401b03811115614356575f5ffd5b6143628582860161401f565b602085015190935090506001600160401b0381111561437f575f5ffd5b8301601f8101851361438f575f5ffd5b805161439d613ed082613ea1565b8082825260208201915060208360051b8501019250878311156143be575f5ffd5b6020840193505b828410156141c05783516143d881613dea565b8252602093840193909101906143c5565b634e487b7160e01b5f52601260045260245ffd5b60ff82811682821603908111156130b3576130b3613fb0565b80820281158282048414176130b3576130b3613fb0565b5f8261444757634e487b7160e01b5f52601260045260245ffd5b500490565b5f8151808452602084019350602083015f5b8281101561447c57815186526020958601959091019060010161445e565b5093949350505050565b606081525f614498606083018661444c565b82810360208401526144aa8186613cd2565b9050828103604084015280845180835260208301915060208160051b840101602087015f5b8381101561450157601f198684030185526144eb838351613cd2565b60209586019590935091909101906001016144cf565b50909998505050505050505050565b92835260208301919091526001600160f81b031916604082015260600190565b828152604081016054831061454757614547613b27565b8260208301529392505050565b602081525f613163602083018461444c565b838152606060208201525f61457e606083018561444c565b905063ffffffff60e01b83166040830152949350505050565b5f600182016145a8576145a8613fb0565b506001019056fea2646970667358221220b2dff2c2b04acf13d4b60b87a3e0c89b3f85684d6162b14295b7f3d145390f2464736f6c634300081c0033ed8d60e34876f751cc8b014c560745351147d9de11b9347c854e881b128ea600ed8d60e34876f751cc8b014c560745351147d9de11b9347c854e881b128ea601",
  "linkReferences": {},
  "deployedLinkReferences": {}
}