{
  "_format": "hh-sol-artifact-1",
  "contractName": "InternalStatesOrchestrator",
  "sourceName": "contracts/orchestrators/InternalStatesOrchestrator.sol",
  "abi": [
    {
      "inputs": [
        {
          "internalType": "address",
          "name": "initialOwner",
          "type": "address"
        },
        {
          "internalType": "address",
          "name": "config_",
          "type": "address"
        },
        {
          "internalType": "address",
          "name": "automationRegistry_",
          "type": "address"
        }
      ],
      "stateMutability": "nonpayable",
      "type": "constructor"
    },
    {
      "inputs": [],
      "name": "HandlesAlreadySavedForRequestID",
      "type": "error"
    },
    {
      "inputs": [],
      "name": "InsufficientAmount",
      "type": "error"
    },
    {
      "inputs": [],
      "name": "InvalidArguments",
      "type": "error"
    },
    {
      "inputs": [],
      "name": "InvalidKMSSignatures",
      "type": "error"
    },
    {
      "inputs": [],
      "name": "InvalidState",
      "type": "error"
    },
    {
      "inputs": [],
      "name": "NoHandleFoundForRequestID",
      "type": "error"
    },
    {
      "inputs": [],
      "name": "NotAuthorized",
      "type": "error"
    },
    {
      "inputs": [
        {
          "internalType": "address",
          "name": "owner",
          "type": "address"
        }
      ],
      "name": "OwnableInvalidOwner",
      "type": "error"
    },
    {
      "inputs": [
        {
          "internalType": "address",
          "name": "account",
          "type": "address"
        }
      ],
      "name": "OwnableUnauthorizedAccount",
      "type": "error"
    },
    {
      "inputs": [],
      "name": "ReentrancyGuardReentrantCall",
      "type": "error"
    },
    {
      "inputs": [],
      "name": "SystemNotIdle",
      "type": "error"
    },
    {
      "inputs": [],
      "name": "TooEarly",
      "type": "error"
    },
    {
      "inputs": [],
      "name": "ZeroAddress",
      "type": "error"
    },
    {
      "anonymous": false,
      "inputs": [
        {
          "indexed": true,
          "internalType": "address",
          "name": "newAutomationRegistry",
          "type": "address"
        }
      ],
      "name": "AutomationRegistryUpdated",
      "type": "event"
    },
    {
      "anonymous": false,
      "inputs": [
        {
          "indexed": true,
          "internalType": "uint256",
          "name": "requestID",
          "type": "uint256"
        }
      ],
      "name": "DecryptionFulfilled",
      "type": "event"
    },
    {
      "anonymous": false,
      "inputs": [
        {
          "indexed": true,
          "internalType": "uint16",
          "name": "epochCounter",
          "type": "uint16"
        }
      ],
      "name": "InternalStateProcessed",
      "type": "event"
    },
    {
      "anonymous": false,
      "inputs": [
        {
          "indexed": true,
          "internalType": "address",
          "name": "previousOwner",
          "type": "address"
        },
        {
          "indexed": true,
          "internalType": "address",
          "name": "newOwner",
          "type": "address"
        }
      ],
      "name": "OwnershipTransferred",
      "type": "event"
    },
    {
      "inputs": [],
      "name": "BASIS_POINTS_FACTOR",
      "outputs": [
        {
          "internalType": "uint16",
          "name": "",
          "type": "uint16"
        }
      ],
      "stateMutability": "view",
      "type": "function"
    },
    {
      "inputs": [],
      "name": "automationRegistry",
      "outputs": [
        {
          "internalType": "address",
          "name": "",
          "type": "address"
        }
      ],
      "stateMutability": "view",
      "type": "function"
    },
    {
      "inputs": [],
      "name": "bufferAmount",
      "outputs": [
        {
          "internalType": "uint256",
          "name": "",
          "type": "uint256"
        }
      ],
      "stateMutability": "view",
      "type": "function"
    },
    {
      "inputs": [
        {
          "internalType": "uint256",
          "name": "requestID",
          "type": "uint256"
        },
        {
          "internalType": "bytes",
          "name": "cleartexts",
          "type": "bytes"
        },
        {
          "internalType": "bytes",
          "name": "decryptionProof",
          "type": "bytes"
        }
      ],
      "name": "callbackPreProcessDecrypt",
      "outputs": [],
      "stateMutability": "nonpayable",
      "type": "function"
    },
    {
      "inputs": [
        {
          "internalType": "bytes",
          "name": "",
          "type": "bytes"
        }
      ],
      "name": "checkUpkeep",
      "outputs": [
        {
          "internalType": "bool",
          "name": "upkeepNeeded",
          "type": "bool"
        },
        {
          "internalType": "bytes",
          "name": "performData",
          "type": "bytes"
        }
      ],
      "stateMutability": "view",
      "type": "function"
    },
    {
      "inputs": [],
      "name": "config",
      "outputs": [
        {
          "internalType": "contract IOrionConfig",
          "name": "",
          "type": "address"
        }
      ],
      "stateMutability": "view",
      "type": "function"
    },
    {
      "inputs": [],
      "name": "currentMinibatchIndex",
      "outputs": [
        {
          "internalType": "uint8",
          "name": "",
          "type": "uint8"
        }
      ],
      "stateMutability": "view",
      "type": "function"
    },
    {
      "inputs": [],
      "name": "currentPhase",
      "outputs": [
        {
          "internalType": "enum IInternalStateOrchestrator.InternalUpkeepPhase",
          "name": "",
          "type": "uint8"
        }
      ],
      "stateMutability": "view",
      "type": "function"
    },
    {
      "inputs": [],
      "name": "encryptedMinibatchSize",
      "outputs": [
        {
          "internalType": "uint8",
          "name": "",
          "type": "uint8"
        }
      ],
      "stateMutability": "view",
      "type": "function"
    },
    {
      "inputs": [
        {
          "internalType": "uint256",
          "name": "",
          "type": "uint256"
        }
      ],
      "name": "encryptedVaultsEpoch",
      "outputs": [
        {
          "internalType": "address",
          "name": "",
          "type": "address"
        }
      ],
      "stateMutability": "view",
      "type": "function"
    },
    {
      "inputs": [],
      "name": "epochCounter",
      "outputs": [
        {
          "internalType": "uint16",
          "name": "",
          "type": "uint16"
        }
      ],
      "stateMutability": "view",
      "type": "function"
    },
    {
      "inputs": [],
      "name": "epochDuration",
      "outputs": [
        {
          "internalType": "uint32",
          "name": "",
          "type": "uint32"
        }
      ],
      "stateMutability": "view",
      "type": "function"
    },
    {
      "inputs": [],
      "name": "getOrders",
      "outputs": [
        {
          "internalType": "address[]",
          "name": "sellingTokens",
          "type": "address[]"
        },
        {
          "internalType": "uint256[]",
          "name": "sellingAmounts",
          "type": "uint256[]"
        },
        {
          "internalType": "address[]",
          "name": "buyingTokens",
          "type": "address[]"
        },
        {
          "internalType": "uint256[]",
          "name": "buyingAmounts",
          "type": "uint256[]"
        }
      ],
      "stateMutability": "view",
      "type": "function"
    },
    {
      "inputs": [
        {
          "internalType": "address",
          "name": "token",
          "type": "address"
        }
      ],
      "name": "getPriceOf",
      "outputs": [
        {
          "internalType": "uint256",
          "name": "price",
          "type": "uint256"
        }
      ],
      "stateMutability": "view",
      "type": "function"
    },
    {
      "inputs": [],
      "name": "intentFactor",
      "outputs": [
        {
          "internalType": "uint256",
          "name": "",
          "type": "uint256"
        }
      ],
      "stateMutability": "view",
      "type": "function"
    },
    {
      "inputs": [],
      "name": "liquidityOrchestrator",
      "outputs": [
        {
          "internalType": "contract ILiquidityOrchestrator",
          "name": "",
          "type": "address"
        }
      ],
      "stateMutability": "view",
      "type": "function"
    },
    {
      "inputs": [],
      "name": "owner",
      "outputs": [
        {
          "internalType": "address",
          "name": "",
          "type": "address"
        }
      ],
      "stateMutability": "view",
      "type": "function"
    },
    {
      "inputs": [],
      "name": "pendingProtocolFees",
      "outputs": [
        {
          "internalType": "uint256",
          "name": "",
          "type": "uint256"
        }
      ],
      "stateMutability": "view",
      "type": "function"
    },
    {
      "inputs": [
        {
          "internalType": "bytes",
          "name": "performData",
          "type": "bytes"
        }
      ],
      "name": "performUpkeep",
      "outputs": [],
      "stateMutability": "nonpayable",
      "type": "function"
    },
    {
      "inputs": [],
      "name": "priceAdapterPrecision",
      "outputs": [
        {
          "internalType": "uint256",
          "name": "",
          "type": "uint256"
        }
      ],
      "stateMutability": "view",
      "type": "function"
    },
    {
      "inputs": [],
      "name": "protocolId",
      "outputs": [
        {
          "internalType": "uint256",
          "name": "",
          "type": "uint256"
        }
      ],
      "stateMutability": "pure",
      "type": "function"
    },
    {
      "inputs": [],
      "name": "registry",
      "outputs": [
        {
          "internalType": "contract IPriceAdapterRegistry",
          "name": "",
          "type": "address"
        }
      ],
      "stateMutability": "view",
      "type": "function"
    },
    {
      "inputs": [],
      "name": "renounceOwnership",
      "outputs": [],
      "stateMutability": "nonpayable",
      "type": "function"
    },
    {
      "inputs": [],
      "name": "rsFeeCoefficient",
      "outputs": [
        {
          "internalType": "uint16",
          "name": "",
          "type": "uint16"
        }
      ],
      "stateMutability": "view",
      "type": "function"
    },
    {
      "inputs": [
        {
          "internalType": "uint256",
          "name": "amount",
          "type": "uint256"
        }
      ],
      "name": "subtractPendingProtocolFees",
      "outputs": [],
      "stateMutability": "nonpayable",
      "type": "function"
    },
    {
      "inputs": [
        {
          "internalType": "address",
          "name": "newOwner",
          "type": "address"
        }
      ],
      "name": "transferOwnership",
      "outputs": [],
      "stateMutability": "nonpayable",
      "type": "function"
    },
    {
      "inputs": [],
      "name": "transparentMinibatchSize",
      "outputs": [
        {
          "internalType": "uint8",
          "name": "",
          "type": "uint8"
        }
      ],
      "stateMutability": "view",
      "type": "function"
    },
    {
      "inputs": [
        {
          "internalType": "uint256",
          "name": "",
          "type": "uint256"
        }
      ],
      "name": "transparentVaultsEpoch",
      "outputs": [
        {
          "internalType": "address",
          "name": "",
          "type": "address"
        }
      ],
      "stateMutability": "view",
      "type": "function"
    },
    {
      "inputs": [],
      "name": "underlyingAsset",
      "outputs": [
        {
          "internalType": "address",
          "name": "",
          "type": "address"
        }
      ],
      "stateMutability": "view",
      "type": "function"
    },
    {
      "inputs": [],
      "name": "underlyingDecimals",
      "outputs": [
        {
          "internalType": "uint8",
          "name": "",
          "type": "uint8"
        }
      ],
      "stateMutability": "view",
      "type": "function"
    },
    {
      "inputs": [
        {
          "internalType": "address",
          "name": "newAutomationRegistry",
          "type": "address"
        }
      ],
      "name": "updateAutomationRegistry",
      "outputs": [],
      "stateMutability": "nonpayable",
      "type": "function"
    },
    {
      "inputs": [
        {
          "internalType": "uint32",
          "name": "newEpochDuration",
          "type": "uint32"
        }
      ],
      "name": "updateEpochDuration",
      "outputs": [],
      "stateMutability": "nonpayable",
      "type": "function"
    },
    {
      "inputs": [
        {
          "internalType": "uint8",
          "name": "_transparentMinibatchSize",
          "type": "uint8"
        },
        {
          "internalType": "uint8",
          "name": "_encryptedMinibatchSize",
          "type": "uint8"
        }
      ],
      "name": "updateMinibatchSizes",
      "outputs": [],
      "stateMutability": "nonpayable",
      "type": "function"
    },
    {
      "inputs": [
        {
          "internalType": "uint16",
          "name": "_vFeeCoefficient",
          "type": "uint16"
        },
        {
          "internalType": "uint16",
          "name": "_rsFeeCoefficient",
          "type": "uint16"
        }
      ],
      "name": "updateProtocolFees",
      "outputs": [],
      "stateMutability": "nonpayable",
      "type": "function"
    },
    {
      "inputs": [],
      "name": "vFeeCoefficient",
      "outputs": [
        {
          "internalType": "uint16",
          "name": "",
          "type": "uint16"
        }
      ],
      "stateMutability": "view",
      "type": "function"
    },
    {
      "inputs": [],
      "name": "validEncryptedVaultsCount",
      "outputs": [
        {
          "internalType": "uint16",
          "name": "",
          "type": "uint16"
        }
      ],
      "stateMutability": "view",
      "type": "function"
    }
  ],
  "bytecode": "0x608060405234801561000f575f5ffd5b50604051614f7b380380614f7b83398101604081905261002e91610771565b826100d26100cd604080516080810182525f80825260208201819052918101829052606081019190915250604080516080810182527350157cffd6bbfa2dece204a89ec419c23ef5755d815273cd3ab3bd6bcc0c0bf3e27912a92043e817b1cf69602082015273a02cda4ca3a71d7c46997716f4283aa851c2881291810191909152731364cbbf2cdf5032c47d8226a6f6fbd2afcdacac606082015290565b610509565b6001600160a01b0381166100ff57604051631e4fbdf760e01b81525f600482015260240160405180910390fd5b610108816105c2565b50600180556001600160a01b0382166101345760405163d92e233d60e01b815260040160405180910390fd5b6001600160a01b03811661015b5760405163d92e233d60e01b815260040160405180910390fd5b600380546001600160a01b0319166001600160a01b0384169081179091556040805163015df99360e01b8152905163015df993916004808201926020929091908290030181865afa1580156101b2573d5f5f3e3d5ffd5b505050506040513d601f19601f820116820180604052508101906101d691906107bb565b600580546001600160a01b0319166001600160a01b039283161790556003546040805163d1717c7d60e01b81529051919092169163d1717c7d9160048083019260209291908290030181865afa158015610232573d5f5f3e3d5ffd5b505050506040513d601f19601f8201168201806040525081019061025691906107dd565b61026190600a6108f4565b60075560035460408051631c56369f60e21b815290516001600160a01b0390921691637158da7c916004808201926020929091908290030181865afa1580156102ac573d5f5f3e3d5ffd5b505050506040513d601f19601f820116820180604052508101906102d091906107bb565b600880546001600160a01b0319166001600160a01b03928316908117909155600354604051633c2e3e7b60e11b815260048101929092529091169063785c7cf690602401602060405180830381865afa15801561032f573d5f5f3e3d5ffd5b505050506040513d601f19601f8201168201806040525081019061035391906107dd565b600860146101000a81548160ff021916908360ff16021790555060035f9054906101000a90046001600160a01b03166001600160a01b031663567ba7136040518163ffffffff1660e01b8152600401602060405180830381865afa1580156103bd573d5f5f3e3d5ffd5b505050506040513d601f19601f820116820180604052508101906103e191906107dd565b6103ec90600a6108f4565b6006556017805463ffff000019166301010000179055600280546001600160a01b0319166001600160a01b038381169190911790915560035460408051631d06d6c760e11b815290519190921691633a0dad8e9160048281019260209291908290030181865afa158015610462573d5f5f3e3d5ffd5b505050506040513d601f19601f8201168201806040525081019061048691906107bb565b600480546001600160a01b03929092166001600160a01b03199092169190911790556015805463ffffffff1916620151801790556104c342610611565b6016556017805465ffff0000ffff191690556104de5f61062c565b60188190556104ec90610641565b50506008805463ffffffff60a81b1916905550505f601c5561095c565b80515f516020614f5b5f395f51905f5280546001600160a01b03199081166001600160a01b039384161790915560208301515f516020614f3b5f395f51905f528054831691841691909117905560408301517f9e7b61f58c47dc699ac88507c4f5bb9f121c03808c5676a8078fe583e46497028054831691841691909117905560608301517f9e7b61f58c47dc699ac88507c4f5bb9f121c03808c5676a8078fe583e46497038054909216921691909117905550565b50565b5f80546001600160a01b038381166001600160a01b0319831681178455604051919092169283917f8be0079c531659141344cd1fd0a4f28419497f9722a3daafe3b4186f6b6457e09190a35050565b6015545f906106269063ffffffff1683610902565b92915050565b5f6106266001600160801b0383166006610650565b5f61064c82306106e7565b5090565b5f516020614f3b5f395f51905f5254604051639cd07acb60e01b81525f915f516020614f5b5f395f51905f52916001600160a01b0390911690639cd07acb9061069f9087908790600401610915565b6020604051808303815f875af11580156106bb573d5f5f3e3d5ffd5b505050506040513d601f19601f820116820180604052508101906106df9190610945565b949350505050565b5f5f516020614f5b5f395f51905f528054604051635ca4b5b160e11b8152600481018690526001600160a01b03858116602483015292935091169063b9496b62906044015f604051808303815f87803b158015610742575f5ffd5b505af1158015610754573d5f5f3e3d5ffd5b50505050505050565b6001600160a01b03811681146105bf575f5ffd5b5f5f5f60608486031215610783575f5ffd5b835161078e8161075d565b602085015190935061079f8161075d565b60408501519092506107b08161075d565b809150509250925092565b5f602082840312156107cb575f5ffd5b81516107d68161075d565b9392505050565b5f602082840312156107ed575f5ffd5b815160ff811681146107d6575f5ffd5b634e487b7160e01b5f52601160045260245ffd5b6001815b600184111561084c57808504811115610830576108306107fd565b600184161561083e57908102905b60019390931c928002610815565b935093915050565b5f8261086257506001610626565b8161086e57505f610626565b8160018114610884576002811461088e576108aa565b6001915050610626565b60ff84111561089f5761089f6107fd565b50506001821b610626565b5060208310610133831016604e8410600b84101617156108cd575081810a610626565b6108d95f198484610811565b805f19048211156108ec576108ec6107fd565b029392505050565b5f6107d660ff841683610854565b80820180821115610626576106266107fd565b828152604081016054831061093857634e487b7160e01b5f52602160045260245ffd5b8260208301529392505050565b5f60208284031215610955575f5ffd5b5051919050565b6145d2806109695f395ff3fe608060405234801561000f575f5ffd5b50600436106101a9575f3560e01c8062bb07bb146101ad578063055ad42e146101c25780630844697d146101ec57806308af604d1461021457806314b19c5a1461023957806314b5d07f1461024757806325a760c21461025a578063289a2f761461026e5780632b0088b41461028e5780632e2dc43e146102a557806336021ef4146102bd5780633a0dad8e146102d15780634585e33b146102e45780634ff0876a146102f75780635488cd621461031c57806358fac65b146103305780635dc228a0146103435780636e04ff0d146103565780637060444514610377578063715018a61461038a5780637158da7c1461039257806379502c55146103a55780637b103999146103b85780637cdabf0a146103cb578063800f9fad146103de5780638da5cb5b146103e75780638f5c9465146103ef578063b8b2af7c146103f8578063ba96ff111461040d578063be2683f014610435578063c18e2a5c14610448578063ca1f32f114610451578063d3f89f661461045a578063da1f12ab14610468578063eeb393c914610470578063f2fde38b14610483575b5f5ffd5b6101c06101bb366004613b80565b610496565b005b6017546101d690600160201b900460ff1681565b6040516101e39190613bcb565b60405180910390f35b60085461020190600160b81b900461ffff1681565b60405161ffff90911681526020016101e3565b6017546102279062010000900460ff1681565b60405160ff90911681526020016101e3565b6017546102019061ffff1681565b6101c0610255366004613bf9565b610590565b60085461022790600160a01b900460ff1681565b61028161027c366004613c14565b610699565b6040516101e39190613c2b565b61029760075481565b6040519081526020016101e3565b6102ad6106c1565b6040516101e39493929190613cb2565b601754610227906301000000900460ff1681565b600454610281906001600160a01b031681565b6101c06102f2366004613d3b565b610a2e565b6015546103079063ffffffff1681565b60405163ffffffff90911681526020016101e3565b60175461022790600160281b900460ff1681565b61028161033e366004613c14565b610bac565b600254610281906001600160a01b031681565b610369610364366004613d3b565b610bbb565b6040516101e3929190613da7565b6101c0610385366004613c14565b610f6b565b6101c0610fd2565b600854610281906001600160a01b031681565b600354610281906001600160a01b031681565b600554610281906001600160a01b031681565b6101c06103d9366004613dd7565b610fe5565b61029760095481565b6102816110ec565b61020161271081565b60085461020190600160a81b900461ffff1681565b61029761041b366004613bf9565b6001600160a01b03165f908152600a602052604090205490565b6101c0610443366004613e08565b6110fa565b610297601c5481565b61029760065481565b601b546102019061ffff1681565b612711610297565b6101c061047e366004613e90565b611200565b6101c0610491366004613bf9565b6112db565b61049e611321565b60ff821615806104af575060ff8116155b156104cd576040516317dbc4cb60e21b815260040160405180910390fd5b60035f9054906101000a90046001600160a01b03166001600160a01b031663edcf9c1f6040518163ffffffff1660e01b8152600401602060405180830381865afa15801561051d573d5f5f3e3d5ffd5b505050506040513d601f19601f820116820180604052508101906105419190613eab565b61055e576040516312aecd8160e01b815260040160405180910390fd5b6017805463ffff000019166201000060ff9485160263ff00000019161763010000009290931691909102919091179055565b610598611321565b6001600160a01b0381166105bf5760405163d92e233d60e01b815260040160405180910390fd5b60035f9054906101000a90046001600160a01b03166001600160a01b031663edcf9c1f6040518163ffffffff1660e01b8152600401602060405180830381865afa15801561060f573d5f5f3e3d5ffd5b505050506040513d601f19601f820116820180604052508101906106339190613eab565b610650576040516312aecd8160e01b815260040160405180910390fd5b600280546001600160a01b0319166001600160a01b0383169081179091556040517f6cc7ebdb6c8c53291c5ae16148cab9b049d23bf5bde5632900b40edff56fcb43905f90a250565b601a81815481106106a8575f80fd5b5f918252602090912001546001600160a01b0316905081565b6060806060805f600a60090180548060200260200160405190810160405280929190818152602001828054801561071f57602002820191905f5260205f20905b81546001600160a01b03168152600190910190602001808311610701575b505083519394505f92508291508190505b8361ffff168161ffff1610156107c2575f858261ffff168151811061075757610757613eca565b6020908102919091018101516001600160a01b0381165f9081526011909252604090912054909150156107905761078d84613ef2565b93505b6001600160a01b0381165f90815260126020526040902054156107b9576107b683613ef2565b92505b50600101610730565b508161ffff166001600160401b038111156107df576107df613f12565b604051908082528060200260200182016040528015610808578160200160208202803683370190505b5097508161ffff166001600160401b0381111561082757610827613f12565b604051908082528060200260200182016040528015610850578160200160208202803683370190505b5096508061ffff166001600160401b0381111561086f5761086f613f12565b604051908082528060200260200182016040528015610898578160200160208202803683370190505b5095508061ffff166001600160401b038111156108b7576108b7613f12565b6040519080825280602002602001820160405280156108e0578160200160208202803683370190505b5094505f80805b8561ffff168161ffff161015610a21575f878261ffff168151811061090e5761090e613eca565b6020908102919091018101516001600160a01b0381165f90815260118352604080822054601290945290205490925081156109a857828e8761ffff168151811061095a5761095a613eca565b60200260200101906001600160a01b031690816001600160a01b031681525050818d8761ffff168151811061099157610991613eca565b60209081029190910101526109a586613ef2565b95505b8015610a1357828c8661ffff16815181106109c5576109c5613eca565b60200260200101906001600160a01b031690816001600160a01b031681525050808b8661ffff16815181106109fc576109fc613eca565b6020908102919091010152610a1085613ef2565b94505b5050508060010190506108e7565b5050505050505090919293565b6002546001600160a01b03163314610a595760405163ea8e4eb560e01b815260040160405180910390fd5b610a61611353565b6005811015610a83576040516317dbc4cb60e21b815260040160405180910390fd5b5f80610a9183850185613f26565b90925090506341659aab60e01b6001600160e01b0319831601610abb57610ab661137d565b610b9d565b636ce38ed360e11b6001600160e01b0319831601610adc57610ab68161162e565b635954faa160e01b6001600160e01b0319831601610afd57610ab681611cb5565b63dbd33d3560e01b6001600160e01b0319831601610b1d57610ab661232c565b6292a80f60e51b6001600160e01b0319831601610b3c57610ab6612792565b6265e66b60e01b6001600160e01b0319831601610b5c57610ab681612aa8565b63f4d3cc0960e01b6001600160e01b0319831601610b7d57610ab681612ec7565b63c4b3cef760e01b6001600160e01b0319831601610b9d57610b9d612fb2565b5050610ba860018055565b5050565b601981815481106106a8575f80fd5b5f606060035f9054906101000a90046001600160a01b03166001600160a01b031663edcf9c1f6040518163ffffffff1660e01b8152600401602060405180830381865afa158015610c0e573d5f5f3e3d5ffd5b505050506040513d601f19601f82011682018060405250810190610c329190613eab565b8015610c3f575060165442115b15610c9157600191507fbe9a655586dceb82dfa0af992b5d8ae7fa45053cb7fd6f141f541da7572978c75f604051602001610c7b929190613f4e565b6040516020818303038152906040529050610f64565b6001601754600160201b900460ff166007811115610cb157610cb1613bb7565b03610cfc57600191507f2638e25a856cbfe28e0ae1857cb597cc2ceb873ce579b7d93c2258e45a754481601760059054906101000a900460ff16604051602001610c7b929190613f4e565b6002601754600160201b900460ff166007811115610d1c57610d1c613bb7565b03610d6757600191507fa6ab055f7fc0612ad6e844f7e1dd3a6df793560cd68d707affa0dd01c39ec8f1601760059054906101000a900460ff16604051602001610c7b929190613f4e565b6003601754600160201b900460ff166007811115610d8757610d87613bb7565b03610dc357600191507f242cc2cba236b9c457bb86deb0ad1fb8fe60d5bcafd69d02041c9c62f3ea1fbd5f604051602001610c7b929190613f4e565b6004601754600160201b900460ff166007811115610de357610de3613bb7565b03610e1f57600191507fedaafe206508e00f40674bb87dda745bccfe8a3f3f6d6eaaf6db5f44021a1c135f604051602001610c7b929190613f4e565b6005601754600160201b900460ff166007811115610e3f57610e3f613bb7565b03610e8a57600191507fff9a199536c068c55c334e40ebfa355733f79152332d6586d615c5bb37fd5c17601760059054906101000a900460ff16604051602001610c7b929190613f4e565b6006601754600160201b900460ff166007811115610eaa57610eaa613bb7565b03610ef557600191507f0b2c33f7f9ce5cba78feb12c50c7fc97cbcfb655f151982783c0f2faf7567b0b601760059054906101000a900460ff16604051602001610c7b929190613f4e565b6007601754600160201b900460ff166007811115610f1557610f15613bb7565b03610f5157600191507f3b4c310984a9fe486c05a56b52659c09d4bf9f3ef9b799ad52ee29a7d805741e5f604051602001610c7b929190613f4e565b505060408051602081019091525f808252905b9250929050565b6004546001600160a01b03163314610f965760405163ea8e4eb560e01b815260040160405180910390fd5b600954811115610fb957604051632ca2f52b60e11b815260040160405180910390fd5b8060095f828254610fca9190613f6b565b909155505050565b610fda611321565b610fe35f61317e565b565b610fed611321565b60648261ffff16118061100557506107d08161ffff16115b15611023576040516317dbc4cb60e21b815260040160405180910390fd5b60035f9054906101000a90046001600160a01b03166001600160a01b031663edcf9c1f6040518163ffffffff1660e01b8152600401602060405180830381865afa158015611073573d5f5f3e3d5ffd5b505050506040513d601f19601f820116820180604052508101906110979190613eab565b6110b4576040516312aecd8160e01b815260040160405180910390fd5b6008805463ffffffff60a81b1916600160a81b61ffff9485160261ffff60b81b191617600160b81b9290931691909102919091179055565b5f546001600160a01b031690565b61116c8585858080601f0160208091040260200160405190810160405280939291908181526020018383808284375f9201919091525050604080516020601f890181900481028201810190925287815292508791508690819084018382808284375f920191909152506131cd92505050565b604080515f60208201520160405160208183030381529060405280519060200120848460405161119d929190613f7e565b6040518091039020036111c3576017805461ffff60201b1916600160221b1790556111f9565b6111cf83850185613fdf565b80516111e391601d91602090910190613aab565b506017805461ffff60201b1916600360201b1790555b5050505050565b611208611321565b8063ffffffff165f0361122e576040516317dbc4cb60e21b815260040160405180910390fd5b60035f9054906101000a90046001600160a01b03166001600160a01b031663edcf9c1f6040518163ffffffff1660e01b8152600401602060405180830381865afa15801561127e573d5f5f3e3d5ffd5b505050506040513d601f19601f820116820180604052508101906112a29190613eab565b6112bf576040516312aecd8160e01b815260040160405180910390fd5b6015805463ffffffff191663ffffffff92909216919091179055565b6112e3611321565b6001600160a01b038116611315575f604051631e4fbdf760e01b815260040161130c9190613c2b565b60405180910390fd5b61131e8161317e565b50565b3361132a6110ec565b6001600160a01b031614610fe3573360405163118cdaa760e01b815260040161130c9190613c2b565b60026001540361137657604051633ee5aeb560e01b815260040160405180910390fd5b6002600155565b601654421115806113ff575060035f9054906101000a90046001600160a01b03166001600160a01b031663edcf9c1f6040518163ffffffff1660e01b8152600401602060405180830381865afa1580156113d9573d5f5f3e3d5ffd5b505050506040513d601f19601f820116820180604052508101906113fd9190613eab565b155b1561141d5760405163085de62560e01b815260040160405180910390fd5b61142642613236565b6016555f5b60135461ffff821610156114ea575f600a6009018261ffff168154811061145457611454613eca565b5f9182526020808320909101546001600160a01b03168252600a81526040808320839055600b8252808320839055600d8252808320839055600f8252808320839055601182528083208390556012825280832083905560148252808320805460ff19169055601854600c8352818420819055600e8352818420819055601090925290912055506114e381613ef2565b905061142b565b506114f660135f613af0565b611501601d5f613af0565b600354604051631da09e4360e31b81526001600160a01b039091169063ed04f21890611531905f9060040161406a565b5f60405180830381865afa15801561154b573d5f5f3e3d5ffd5b505050506040513d5f823e601f3d908101601f1916820160405261157291908101906140ec565b805161158691601991602090910190613b0b565b50600354604051631da09e4360e31b81526001600160a01b039091169063ed04f218906115b89060019060040161406a565b5f60405180830381865afa1580156115d2573d5f5f3e3d5ffd5b505050506040513d5f823e601f3d908101601f191682016040526115f991908101906140ec565b805161160d91601a91602090910190613b0b565b50601b805461ffff191690556017805460ff60201b1916600160201b179055565b6001601754600160201b900460ff16600781111561164e5761164e613bb7565b1461166c5760405163baf3f0f760e01b815260040160405180910390fd5b6017805460059061168690600160281b900460ff1661411d565b91906101000a81548160ff021916908360ff1602179055505f601760029054906101000a900460ff16826116ba9190614132565b60175460ff91821692505f916116d7916201000090041683614155565b60195490915061ffff821611806116f3575060195461ffff8216145b1561171157506019546017805461ffff60201b1916600160211b1790555b815b8161ffff168161ffff161015611caf575f60198261ffff168154811061173b5761173b613eca565b905f5260205f20015f9054906101000a90046001600160a01b031690505f5f826001600160a01b031663d3d034586040518163ffffffff1660e01b81526004015f60405180830381865afa158015611795573d5f5f3e3d5ffd5b505050506040513d5f823e601f3d908101601f191682016040526117bc919081019061416f565b90925090505f805b83518161ffff161015611a1b575f848261ffff16815181106117e8576117e8613eca565b602002602001015190505f848361ffff168151811061180957611809613eca565b6020026020010151905080600a6001015f846001600160a01b03166001600160a01b031681526020019081526020015f205f828254611848919061422d565b90915550506001600160a01b0382165f9081526014602052604090205460ff1661193f576008546001600160a01b03908116908316036118b75760085461189a90600160a01b900460ff16600a614323565b6001600160a01b0383165f908152600a602052604090205561193f565b6005546040516341976e0960e01b81526001600160a01b03909116906341976e09906118e7908590600401613c2b565b602060405180830381865afa158015611902573d5f5f3e3d5ffd5b505050506040513d601f19601f820116820180604052508101906119269190614331565b6001600160a01b0383165f908152600a60205260409020555b6001600160a01b0382165f908152600a60205260408120546006549091906119ef9061196e9084908690613251565b600354604051633c2e3e7b60e11b81526001600160a01b039091169063785c7cf69061199e908990600401613c2b565b602060405180830381865afa1580156119b9573d5f5f3e3d5ffd5b505050506040513d601f19601f820116820180604052508101906119dd9190614348565b600854600160a01b900460ff16613302565b90506119fb818761422d565b9550611a068461336c565b5050505080611a1490613ef2565b90506117c4565b506008545f90611a3990600160a81b900461ffff1683612710613251565b601554909150611a5a90829063ffffffff908116906301e133809061325116565b90508060095f828254611a6d919061422d565b90915550611a7d90508183613f6b565b60405163728d42fb60e11b8152600481018290529092505f906001600160a01b0387169063e51a85f690602401602060405180830381865afa158015611ac5573d5f5f3e3d5ffd5b505050506040513d601f19601f82011682018060405250810190611ae99190614331565b9050611af58184613f6b565b6008549093505f90611b1590600160b81b900461ffff1683612710613251565b90508060095f828254611b28919061422d565b90915550611b3890508183613f6b565b91505f876001600160a01b031663a68a5267896001600160a01b0316630a605c6d6040518163ffffffff1660e01b8152600401602060405180830381865afa158015611b86573d5f5f3e3d5ffd5b505050506040513d601f19601f82011682018060405250810190611baa9190614331565b875f6040518463ffffffff1660e01b8152600401611bca93929190614363565b602060405180830381865afa158015611be5573d5f5f3e3d5ffd5b505050506040513d601f19601f82011682018060405250810190611c099190614331565b905080886001600160a01b031663f64c6f326040518163ffffffff1660e01b8152600401602060405180830381865afa158015611c48573d5f5f3e3d5ffd5b505050506040513d601f19601f82011682018060405250810190611c6c9190614331565b611c769190613f6b565b611c80908661422d565b6001600160a01b039098165f908152600d60205260409020979097555050600190950194506117139350505050565b50505050565b6002601754600160201b900460ff166007811115611cd557611cd5613bb7565b14611cf35760405163baf3f0f760e01b815260040160405180910390fd5b60178054600590611d0d90600160281b900460ff1661411d565b82546101009290920a60ff818102199093169183160217909155601a5460175490915f91611d449163010000009091041684614132565b60175460ff91821692505f91611d6291630100000090041683614155565b90508261ffff168161ffff161180611d8157508261ffff168161ffff16145b15611d895750815b815b8161ffff168161ffff16101561215e575f601a8261ffff1681548110611db357611db3613eca565b5f918252602091829020015460408051631b9d6fc560e31b815290516001600160a01b039092169350839263dceb7e28926004808401938290030181865afa158015611e01573d5f5f3e3d5ffd5b505050506040513d601f19601f82011682018060405250810190611e259190613eab565b611e2f5750612156565b601b80545f90611e429061ffff16613ef2565b91906101000a81548161ffff021916908361ffff1602179055505f5f826001600160a01b031663d3d034586040518163ffffffff1660e01b81526004015f60405180830381865afa158015611e99573d5f5f3e3d5ffd5b505050506040513d5f823e601f3d908101601f19168201604052611ec0919081019061416f565b60185491935091505f5b83518161ffff161015612136575f848261ffff1681518110611eee57611eee613eca565b602002602001015190505f848361ffff1681518110611f0f57611f0f613eca565b60200260200101519050611f49600a6002015f846001600160a01b03166001600160a01b031681526020019081526020015f2054826133f1565b6001600160a01b0383165f908152600c602090815260408083209390935560149052205460ff16612047576008546001600160a01b0390811690831603611fbf57600854611fa290600160a01b900460ff16600a614323565b6001600160a01b0383165f908152600a6020526040902055612047565b6005546040516341976e0960e01b81526001600160a01b03909116906341976e0990611fef908590600401613c2b565b602060405180830381865afa15801561200a573d5f5f3e3d5ffd5b505050506040513d601f19601f8201168201806040525081019061202e9190614331565b6001600160a01b0383165f908152600a60205260409020555b6001600160a01b0382165f908152600a60205260408120549061207d61207561206f8461341f565b85613434565b600654613462565b600354604051633c2e3e7b60e11b81529192505f916121099184916001600160a01b039091169063785c7cf6906120b8908a90600401613c2b565b602060405180830381865afa1580156120d3573d5f5f3e3d5ffd5b505050506040513d601f19601f820116820180604052508101906120f79190614348565b600854600160a01b900460ff16613487565b905061211587826133f1565b96506121208561336c565b50505050508061212f90613ef2565b9050611eca565b506001600160a01b039093165f908152600e602052604090209290925550505b600101611d8b565b508261ffff168161ffff1603611caf5761ffff811615806121835750601b5461ffff16155b156121a1576017805461ffff60201b1916600160221b179055611caf565b6013545f6121af8286614155565b61ffff166001600160401b038111156121ca576121ca613f12565b6040519080825280602002602001820160405280156121f3578160200160208202803683370190505b5090505f5b8561ffff168161ffff16101561227d575f601a8261ffff168154811061222057612220613eca565b5f9182526020808320909101546001600160a01b0316808352600e909152604090912054909150612250816134e8565b5080848461ffff168151811061226857612268613eca565b602090810291909101015250506001016121f8565b505f5b8261ffff168161ffff161015612311575f600a6009018261ffff16815481106122ab576122ab613eca565b5f9182526020808320909101546001600160a01b0316808352600c9091526040909120549091506122db816134e8565b5080846122e8858b614155565b61ffff16815181106122fc576122fc613eca565b60209081029190910101525050600101612280565b5061232381630be2683f60e41b6134f7565b50505050505050565b6003601754600160201b900460ff16600781111561234c5761234c613bb7565b1461236a5760405163baf3f0f760e01b815260040160405180910390fd5b601a546013545f5b8261ffff168161ffff1610156126cd575f601a8261ffff168154811061239a5761239a613eca565b5f918252602091829020015460408051631b9d6fc560e31b815290516001600160a01b0390921693508392839263dceb7e289260048082019392918290030181865afa1580156123ec573d5f5f3e3d5ffd5b505050506040513d601f19601f820116820180604052508101906124109190613eab565b61241b5750506126c5565b5f601d8461ffff168154811061243357612433613eca565b5f91825260208220015460085490925061245b90600160a81b900461ffff1683612710613251565b60155490915061247c90829063ffffffff908116906301e133809061325116565b90508060095f82825461248f919061422d565b9091555061249f90508183613f6b565b60405163728d42fb60e11b8152600481018290529092505f906001600160a01b0385169063e51a85f690602401602060405180830381865afa1580156124e7573d5f5f3e3d5ffd5b505050506040513d601f19601f8201168201806040525081019061250b9190614331565b90506125178184613f6b565b6008549093505f9061253790600160b81b900461ffff1683612710613251565b90508060095f82825461254a919061422d565b9091555061255a90508183613f6b565b91505f856001600160a01b031663a68a5267876001600160a01b0316630a605c6d6040518163ffffffff1660e01b8152600401602060405180830381865afa1580156125a8573d5f5f3e3d5ffd5b505050506040513d601f19601f820116820180604052508101906125cc9190614331565b875f6040518463ffffffff1660e01b81526004016125ec93929190614363565b602060405180830381865afa158015612607573d5f5f3e3d5ffd5b505050506040513d601f19601f8201168201806040525081019061262b9190614331565b905080866001600160a01b031663f64c6f326040518163ffffffff1660e01b8152600401602060405180830381865afa15801561266a573d5f5f3e3d5ffd5b505050506040513d601f19601f8201168201806040525081019061268e9190614331565b6126989190613f6b565b6126a2908661422d565b6001600160a01b039097165f908152600d60205260409020969096555050505050505b600101612372565b505f5b8161ffff168161ffff161015612779575f600a6009018261ffff16815481106126fb576126fb613eca565b5f9182526020822001546001600160a01b03169150601d61271c8487614155565b61ffff168154811061273057612730613eca565b5f9182526020808320909101546001600160a01b0385168352600b9091526040822080549193508392909161276690849061422d565b9091555050600190920191506126d09050565b50506017805461ffff60201b1916600160221b17905550565b6004601754600160201b900460ff1660078111156127b2576127b2613bb7565b146127d05760405163baf3f0f760e01b815260040160405180910390fd5b6017805460ff60201b1916600560201b179055601954601a545f805b8361ffff168161ffff161015612850575f60198261ffff168154811061281457612814613eca565b5f9182526020808320909101546001600160a01b0316808352600d909152604090912054909150612845908461422d565b9250506001016127ec565b505f5b8261ffff168161ffff1610156128b7575f601a8261ffff168154811061287b5761287b613eca565b5f9182526020808320909101546001600160a01b0316808352600d9091526040909120549091506128ac908461422d565b925050600101612853565b50600480546040805163dab26e3b60e01b815290515f9361292e936001600160a01b03169263dab26e3b92818301926020928290030181865afa158015612900573d5f5f3e3d5ffd5b505050506040513d601f19601f820116820180604052508101906129249190614331565b8390612710613251565b905080601c5411156129405750505050565b5f601c548261294f9190613f6b565b90505f5b8561ffff168161ffff1610156129ed575f60198261ffff168154811061297b5761297b613eca565b5f9182526020808320909101546001600160a01b0316808352600d9091526040822054909250906129ad858389613251565b6001600160a01b0384165f908152600d60205260408120805492935083929091906129d9908490613f6b565b909155505060019093019250612953915050565b505f5b8461ffff168161ffff161015612a8a575f601a8261ffff1681548110612a1857612a18613eca565b5f9182526020808320909101546001600160a01b0316808352600d909152604082205490925090612a4a858389613251565b6001600160a01b0384165f908152600d6020526040812080549293508392909190612a76908490613f6b565b9091555050600190930192506129f0915050565b5080601c5f828254612a9c919061422d565b90915550505050505050565b6005601754600160201b900460ff166007811115612ac857612ac8613bb7565b14612ae65760405163baf3f0f760e01b815260040160405180910390fd5b60178054600590612b0090600160281b900460ff1661411d565b91906101000a81548160ff021916908360ff1602179055505f601760029054906101000a900460ff1682612b349190614132565b60175460ff91821692505f91612b51916201000090041683614155565b60195490915061ffff82161180612b6d575060195461ffff8216145b15612b8b57506019546017805461ffff60201b1916600360211b1790555b815b8161ffff168161ffff161015611caf575f60198261ffff1681548110612bb557612bb5613eca565b905f5260205f20015f9054906101000a90046001600160a01b031690505f5f826001600160a01b031663b6eba6536040518163ffffffff1660e01b81526004015f60405180830381865afa158015612c0f573d5f5f3e3d5ffd5b505050506040513d5f823e601f3d908101601f19168201604052612c36919081019061438f565b6001600160a01b0385165f908152600d60205260408120549294509092505b83518161ffff161015612eb7575f848261ffff1681518110612c7957612c79613eca565b602002602001015190505f848361ffff1681518110612c9a57612c9a613eca565b6020908102919091018101516001600160a01b0384165f908152601490925260409091205490915060ff16612d9c576008546001600160a01b0390811690831603612d1457600854612cf790600160a01b900460ff16600a614323565b6001600160a01b0383165f908152600a6020526040902055612d9c565b6005546040516341976e0960e01b81526001600160a01b03909116906341976e0990612d44908590600401613c2b565b602060405180830381865afa158015612d5f573d5f5f3e3d5ffd5b505050506040513d601f19601f82011682018060405250810190612d839190614331565b6001600160a01b0383165f908152600a60205260409020555b6001600160a01b0382165f908152600a6020526040812054600654600754919291612e6791612de4918590612ddd908b9063ffffffff808b16919061325116565b9190613251565b600854600354604051633c2e3e7b60e11b8152600160a01b90920460ff16916001600160a01b039091169063785c7cf690612e23908a90600401613c2b565b602060405180830381865afa158015612e3e573d5f5f3e3d5ffd5b505050506040513d601f19601f82011682018060405250810190612e629190614348565b613302565b6001600160a01b0385165f908152600f6020526040812080549293508392909190612e9390849061422d565b90915550612ea290508461336c565b5050505080612eb090613ef2565b9050612c55565b5050505050806001019050612b8d565b6006601754600160201b900460ff166007811115612ee757612ee7613bb7565b14612f055760405163baf3f0f760e01b815260040160405180910390fd5b60178054600590612f1f90600160281b900460ff1661411d565b82546101009290920a60ff818102199093169183160217909155601a5460175490915f91612f569163010000009091041684614132565b60175460ff91821692505f91612f7491630100000090041683614155565b90508261ffff168161ffff161180612f9357508261ffff168161ffff16145b15611caf5750506017805461ffff60201b1916600760201b1790555050565b6007601754600160201b900460ff166007811115612fd257612fd2613bb7565b14612ff05760405163baf3f0f760e01b815260040160405180910390fd5b5f600a60090180548060200260200160405190810160405280929190818152602001828054801561304857602002820191905f5260205f20905b81546001600160a01b0316815260019091019060200180831161302a575b505083519394505f925050505b8161ffff168161ffff161015613113575f838261ffff168151811061307c5761307c613eca565b6020908102919091018101516001600160a01b0381165f908152600b8352604080822054600f909452902054909250808211156130da576130bd8183613f6b565b6001600160a01b0384165f90815260116020526040902055613105565b81811115613105576130ec8282613f6b565b6001600160a01b0384165f908152601260205260409020555b505050806001019050613055565b506017805460ff60201b19811682555f906131319061ffff16613ef2565b82546101009290920a61ffff8181021990931691831602179091556017546040519116907f0bc12479581640d161e016cef21aa834cb6d6326bbc0d8445e58d56403adf2dc905f90a25050565b5f80546001600160a01b038381166001600160a01b0319831681178455604051919092169283917f8be0079c531659141344cd1fd0a4f28419497f9722a3daafe3b4186f6b6457e09190a35050565b5f6131d784613503565b90505f6131e582858561359f565b9050806132055760405163cf6c44e960e01b815260040160405180910390fd5b60405185907f1af0453083661051f6e56e5c070792320652e612154bf9af8637bb1e7655b99d905f90a25050505050565b6015545f9061324b9063ffffffff168361422d565b92915050565b5f5f5f61325e868661366c565b91509150815f036132825783818161327857613278614448565b04925050506132fb565b818411613299576132996003851502601118613688565b5f848688095f868103871696879004966002600389028118808a02820302808a02820302808a02820302808a02820302808a02820302808a02909103029181900381900460010185841190960395909502919093039390930492909217029150505b9392505050565b5f8260ff168260ff1611156133375761331b838361445c565b61332690600a614323565b6133309085614475565b90506132fb565b8260ff168260ff1610156133645761334f828461445c565b61335a90600a614323565b613330908561448c565b509192915050565b6001600160a01b0381165f9081526014602052604090205460ff1661131e576013805460018181019092557f66de8ffda797e3de9c05e8fc57b3bf0ec28a930d40b0d285d93c06501cf6a0900180546001600160a01b0384166001600160a01b031990911681179091555f908152601460205260409020805460ff1916909117905550565b5f82613403576134005f61341f565b92505b81613414576134115f61341f565b91505b6132fb83835f613699565b5f61324b826001600160801b03166006613739565b5f82613446576134435f61341f565b92505b81613457576134545f61341f565b91505b6132fb83835f6137c0565b5f82613474576134715f61341f565b92505b6132fb836001600160801b038416613816565b5f8260ff168260ff1611156134bc57613330846134b76134a7868661445c565b6134b290600a614323565b61341f565b613434565b8260ff168260ff16101561336457613330846134d8848661445c565b6134e390600a614323565b613462565b5f6134f382306138a5565b5090565b5f6132fb83835f61390c565b60605f61350e613a0d565b5f8481526001820160205260408120549192500361353f5760405163d66ca67560e01b815260040160405180910390fd5b5f8381526001820160209081526040918290208054835181840281018401909452808452909183018282801561359257602002820191905f5260205f20905b81548152602001906001019080831161357e575b5050505050915050919050565b5f5f835160206135af919061422d565b6135ba90602061422d565b90505f84826040516020016135d09291906144ab565b60405160208183030381529060405290505f6135ea613a31565b60038101546040516378542ead60e01b81529192506001600160a01b0316906378542ead90613621908a9086908a906004016144c5565b6020604051808303815f875af115801561363d573d5f5f3e3d5ffd5b505050506040513d601f19601f820116820180604052508101906136619190613eab565b979650505050505050565b5f805f1983850993909202808410938190039390930393915050565b634e487b715f52806020526024601cfd5b5f5f82156136ac5750600160f81b6136af565b505f5b5f6136b8613a31565b600181015460405163022f65e760e31b81529192506001600160a01b03169063117b2f38906136ef908990899087906004016144fd565b6020604051808303815f875af115801561370b573d5f5f3e3d5ffd5b505050506040513d601f19601f8201168201806040525081019061372f9190614331565b9695505050505050565b5f5f613743613a31565b6001810154604051639cd07acb60e01b81529192506001600160a01b031690639cd07acb90613778908790879060040161451d565b6020604051808303815f875af1158015613794573d5f5f3e3d5ffd5b505050506040513d601f19601f820116820180604052508101906137b89190614331565b949350505050565b5f5f82156137d35750600160f81b6137d6565b505f5b5f6137df613a31565b6001810154604051630afe14ad60e31b81529192506001600160a01b0316906357f0a568906136ef908990899087906004016144fd565b5f600160f81b81613825613a31565b6001810154604051635a53accb60e01b81529192506001600160a01b031690635a53accb9061385c908890889087906004016144fd565b6020604051808303815f875af1158015613878573d5f5f3e3d5ffd5b505050506040513d601f19601f8201168201806040525081019061389c9190614331565b95945050505050565b5f6138ae613a31565b8054604051635ca4b5b160e11b8152600481018690526001600160a01b03858116602483015292935091169063b9496b62906044015f604051808303815f87803b1580156138fa575f5ffd5b505af1158015612323573d5f5f3e3d5ffd5b5f5f613916613a0d565b8054925090505f613925613a31565b8054604051637d6e912360e11b81529192506001600160a01b03169063fadd224690613955908990600401614541565b5f604051808303815f87803b15801561396c575f5ffd5b505af115801561397e573d5f5f3e3d5ffd5b5050506002820154604051633263b83b60e01b81526001600160a01b039091169150633263b83b9086906139ba9087908b908b90600401614553565b5f604051808303818588803b1580156139d1575f5ffd5b505af11580156139e3573d5f5f3e3d5ffd5b50505050506139f28387613a55565b8154825f6139ff83614584565b919050555050509392505050565b7f878245876662ba28a480c5ea71726db859fb50222b0a3d7cbbc21cfa336faf0090565b7f9e7b61f58c47dc699ac88507c4f5bb9f121c03808c5676a8078fe583e464970090565b5f613a5e613a0d565b5f84815260018201602052604090205490915015613a8f57604051633f06d22b60e01b815260040160405180910390fd5b5f83815260018201602090815260409091208351611caf928501905b828054828255905f5260205f20908101928215613ae4579160200282015b82811115613ae4578251825591602001919060010190613ac9565b506134f3929150613b5e565b5080545f8255905f5260205f209081019061131e9190613b5e565b828054828255905f5260205f20908101928215613ae4579160200282015b82811115613ae457825182546001600160a01b0319166001600160a01b03909116178255602090920191600190910190613b29565b5b808211156134f3575f8155600101613b5f565b60ff8116811461131e575f5ffd5b5f5f60408385031215613b91575f5ffd5b8235613b9c81613b72565b91506020830135613bac81613b72565b809150509250929050565b634e487b7160e01b5f52602160045260245ffd5b6020810160088310613bdf57613bdf613bb7565b91905290565b6001600160a01b038116811461131e575f5ffd5b5f60208284031215613c09575f5ffd5b81356132fb81613be5565b5f60208284031215613c24575f5ffd5b5035919050565b6001600160a01b0391909116815260200190565b5f8151808452602084019350602083015f5b82811015613c785781516001600160a01b0316865260209586019590910190600101613c51565b5093949350505050565b5f8151808452602084019350602083015f5b82811015613c78578151865260209586019590910190600101613c94565b608081525f613cc46080830187613c3f565b8281036020840152613cd68187613c82565b90508281036040840152613cea8186613c3f565b905082810360608401526136618185613c82565b5f5f83601f840112613d0e575f5ffd5b5081356001600160401b03811115613d24575f5ffd5b602083019150836020828501011115610f64575f5ffd5b5f5f60208385031215613d4c575f5ffd5b82356001600160401b03811115613d61575f5ffd5b613d6d85828601613cfe565b90969095509350505050565b5f81518084528060208401602086015e5f602082860101526020601f19601f83011685010191505092915050565b8215158152604060208201525f6137b86040830184613d79565b803561ffff81168114613dd2575f5ffd5b919050565b5f5f60408385031215613de8575f5ffd5b613df183613dc1565b9150613dff60208401613dc1565b90509250929050565b5f5f5f5f5f60608688031215613e1c575f5ffd5b8535945060208601356001600160401b03811115613e38575f5ffd5b613e4488828901613cfe565b90955093505060408601356001600160401b03811115613e62575f5ffd5b613e6e88828901613cfe565b969995985093965092949392505050565b63ffffffff8116811461131e575f5ffd5b5f60208284031215613ea0575f5ffd5b81356132fb81613e7f565b5f60208284031215613ebb575f5ffd5b815180151581146132fb575f5ffd5b634e487b7160e01b5f52603260045260245ffd5b634e487b7160e01b5f52601160045260245ffd5b5f61ffff821661ffff8103613f0957613f09613ede565b60010192915050565b634e487b7160e01b5f52604160045260245ffd5b5f5f60408385031215613f37575f5ffd5b82356001600160e01b031981168114613b9c575f5ffd5b6001600160e01b031992909216825260ff16602082015260400190565b8181038181111561324b5761324b613ede565b818382375f9101908152919050565b604051601f8201601f191681016001600160401b0381118282101715613fb557613fb5613f12565b604052919050565b5f6001600160401b03821115613fd557613fd5613f12565b5060051b60200190565b5f60208284031215613fef575f5ffd5b81356001600160401b03811115614004575f5ffd5b8201601f81018413614014575f5ffd5b803561402761402282613fbd565b613f8d565b8082825260208201915060208360051b850101925086831115614048575f5ffd5b6020840193505b8284101561372f57833582526020938401939091019061404f565b6020810160028310613bdf57613bdf613bb7565b5f82601f83011261408d575f5ffd5b815161409b61402282613fbd565b8082825260208201915060208360051b8601019250858311156140bc575f5ffd5b602085015b838110156140e25780516140d481613be5565b8352602092830192016140c1565b5095945050505050565b5f602082840312156140fc575f5ffd5b81516001600160401b03811115614111575f5ffd5b6137b88482850161407e565b5f60ff821660ff8103613f0957613f09613ede565b60ff818116838216029081169081811461414e5761414e613ede565b5092915050565b61ffff818116838216019081111561324b5761324b613ede565b5f5f60408385031215614180575f5ffd5b82516001600160401b03811115614195575f5ffd5b6141a18582860161407e565b602085015190935090506001600160401b038111156141be575f5ffd5b8301601f810185136141ce575f5ffd5b80516141dc61402282613fbd565b8082825260208201915060208360051b8501019250878311156141fd575f5ffd5b6020840193505b8284101561421f578351825260209384019390910190614204565b809450505050509250929050565b8082018082111561324b5761324b613ede565b6001815b600184111561427b5780850481111561425f5761425f613ede565b600184161561426d57908102905b60019390931c928002614244565b935093915050565b5f826142915750600161324b565b8161429d57505f61324b565b81600181146142b357600281146142bd576142d9565b600191505061324b565b60ff8411156142ce576142ce613ede565b50506001821b61324b565b5060208310610133831016604e8410600b84101617156142fc575081810a61324b565b6143085f198484614240565b805f190482111561431b5761431b613ede565b029392505050565b5f6132fb60ff841683614283565b5f60208284031215614341575f5ffd5b5051919050565b5f60208284031215614358575f5ffd5b81516132fb81613b72565b83815260208101839052606081016004831061438157614381613bb7565b826040830152949350505050565b5f5f604083850312156143a0575f5ffd5b82516001600160401b038111156143b5575f5ffd5b6143c18582860161407e565b602085015190935090506001600160401b038111156143de575f5ffd5b8301601f810185136143ee575f5ffd5b80516143fc61402282613fbd565b8082825260208201915060208360051b85010192508783111561441d575f5ffd5b6020840193505b8284101561421f57835161443781613e7f565b825260209384019390910190614424565b634e487b7160e01b5f52601260045260245ffd5b60ff828116828216039081111561324b5761324b613ede565b808202811582820484141761324b5761324b613ede565b5f826144a657634e487b7160e01b5f52601260045260245ffd5b500490565b5f83518060208601845e9190910191825250602001919050565b606081525f6144d76060830186613c82565b82810360208401526144e98186613d79565b9050828103604084015261372f8185613d79565b92835260208301919091526001600160f81b031916604082015260600190565b828152604081016054831061453457614534613bb7565b8260208301529392505050565b602081525f6132fb6020830184613c82565b838152606060208201525f61456b6060830185613c82565b905063ffffffff60e01b83166040830152949350505050565b5f6001820161459557614595613ede565b506001019056fea26469706673582212207905aeb02980c6f8c899821f1e96d2ed1254cf7e8f3b695f5b007a840ac2a98364736f6c634300081c00339e7b61f58c47dc699ac88507c4f5bb9f121c03808c5676a8078fe583e46497019e7b61f58c47dc699ac88507c4f5bb9f121c03808c5676a8078fe583e4649700",
  "linkReferences": {},
  "deployedLinkReferences": {}
}