{
  "_format": "hh-sol-artifact-1",
  "contractName": "InternalStatesOrchestrator",
  "sourceName": "contracts/orchestrators/InternalStatesOrchestrator.sol",
  "abi": [
    {
      "inputs": [
        {
          "internalType": "address",
          "name": "initialOwner",
          "type": "address"
        },
        {
          "internalType": "address",
          "name": "config_",
          "type": "address"
        },
        {
          "internalType": "address",
          "name": "automationRegistry_",
          "type": "address"
        }
      ],
      "stateMutability": "nonpayable",
      "type": "constructor"
    },
    {
      "inputs": [],
      "name": "InsufficientAmount",
      "type": "error"
    },
    {
      "inputs": [],
      "name": "InvalidArguments",
      "type": "error"
    },
    {
      "inputs": [],
      "name": "NotAuthorized",
      "type": "error"
    },
    {
      "inputs": [
        {
          "internalType": "address",
          "name": "owner",
          "type": "address"
        }
      ],
      "name": "OwnableInvalidOwner",
      "type": "error"
    },
    {
      "inputs": [
        {
          "internalType": "address",
          "name": "account",
          "type": "address"
        }
      ],
      "name": "OwnableUnauthorizedAccount",
      "type": "error"
    },
    {
      "inputs": [],
      "name": "ReentrancyGuardReentrantCall",
      "type": "error"
    },
    {
      "inputs": [],
      "name": "SystemNotIdle",
      "type": "error"
    },
    {
      "inputs": [],
      "name": "TooEarly",
      "type": "error"
    },
    {
      "inputs": [],
      "name": "ZeroAddress",
      "type": "error"
    },
    {
      "anonymous": false,
      "inputs": [
        {
          "indexed": true,
          "internalType": "address",
          "name": "newAutomationRegistry",
          "type": "address"
        }
      ],
      "name": "AutomationRegistryUpdated",
      "type": "event"
    },
    {
      "anonymous": false,
      "inputs": [
        {
          "indexed": true,
          "internalType": "uint16",
          "name": "epochCounter",
          "type": "uint16"
        }
      ],
      "name": "InternalStateProcessed",
      "type": "event"
    },
    {
      "anonymous": false,
      "inputs": [
        {
          "indexed": true,
          "internalType": "address",
          "name": "previousOwner",
          "type": "address"
        },
        {
          "indexed": true,
          "internalType": "address",
          "name": "newOwner",
          "type": "address"
        }
      ],
      "name": "OwnershipTransferStarted",
      "type": "event"
    },
    {
      "anonymous": false,
      "inputs": [
        {
          "indexed": true,
          "internalType": "address",
          "name": "previousOwner",
          "type": "address"
        },
        {
          "indexed": true,
          "internalType": "address",
          "name": "newOwner",
          "type": "address"
        }
      ],
      "name": "OwnershipTransferred",
      "type": "event"
    },
    {
      "anonymous": false,
      "inputs": [
        {
          "indexed": false,
          "internalType": "uint16",
          "name": "vFeeCoefficient",
          "type": "uint16"
        },
        {
          "indexed": false,
          "internalType": "uint16",
          "name": "rsFeeCoefficient",
          "type": "uint16"
        }
      ],
      "name": "ProtocolFeeChangeScheduled",
      "type": "event"
    },
    {
      "inputs": [],
      "name": "BASIS_POINTS_FACTOR",
      "outputs": [
        {
          "internalType": "uint16",
          "name": "",
          "type": "uint16"
        }
      ],
      "stateMutability": "view",
      "type": "function"
    },
    {
      "inputs": [],
      "name": "MAX_EPOCH_DURATION",
      "outputs": [
        {
          "internalType": "uint32",
          "name": "",
          "type": "uint32"
        }
      ],
      "stateMutability": "view",
      "type": "function"
    },
    {
      "inputs": [],
      "name": "MAX_TRANSPARENT_MINIBATCH_SIZE",
      "outputs": [
        {
          "internalType": "uint8",
          "name": "",
          "type": "uint8"
        }
      ],
      "stateMutability": "view",
      "type": "function"
    },
    {
      "inputs": [],
      "name": "acceptOwnership",
      "outputs": [],
      "stateMutability": "nonpayable",
      "type": "function"
    },
    {
      "inputs": [],
      "name": "activeProtocolFees",
      "outputs": [
        {
          "internalType": "uint16",
          "name": "vFee",
          "type": "uint16"
        },
        {
          "internalType": "uint16",
          "name": "rsFee",
          "type": "uint16"
        }
      ],
      "stateMutability": "view",
      "type": "function"
    },
    {
      "inputs": [],
      "name": "automationRegistry",
      "outputs": [
        {
          "internalType": "address",
          "name": "",
          "type": "address"
        }
      ],
      "stateMutability": "view",
      "type": "function"
    },
    {
      "inputs": [],
      "name": "bufferAmount",
      "outputs": [
        {
          "internalType": "uint256",
          "name": "",
          "type": "uint256"
        }
      ],
      "stateMutability": "view",
      "type": "function"
    },
    {
      "inputs": [
        {
          "internalType": "bytes",
          "name": "",
          "type": "bytes"
        }
      ],
      "name": "checkUpkeep",
      "outputs": [
        {
          "internalType": "bool",
          "name": "upkeepNeeded",
          "type": "bool"
        },
        {
          "internalType": "bytes",
          "name": "performData",
          "type": "bytes"
        }
      ],
      "stateMutability": "view",
      "type": "function"
    },
    {
      "inputs": [],
      "name": "config",
      "outputs": [
        {
          "internalType": "contract IOrionConfig",
          "name": "",
          "type": "address"
        }
      ],
      "stateMutability": "view",
      "type": "function"
    },
    {
      "inputs": [],
      "name": "currentMinibatchIndex",
      "outputs": [
        {
          "internalType": "uint8",
          "name": "",
          "type": "uint8"
        }
      ],
      "stateMutability": "view",
      "type": "function"
    },
    {
      "inputs": [],
      "name": "currentPhase",
      "outputs": [
        {
          "internalType": "enum IInternalStateOrchestrator.InternalUpkeepPhase",
          "name": "",
          "type": "uint8"
        }
      ],
      "stateMutability": "view",
      "type": "function"
    },
    {
      "inputs": [],
      "name": "epochCounter",
      "outputs": [
        {
          "internalType": "uint16",
          "name": "",
          "type": "uint16"
        }
      ],
      "stateMutability": "view",
      "type": "function"
    },
    {
      "inputs": [],
      "name": "epochDuration",
      "outputs": [
        {
          "internalType": "uint32",
          "name": "",
          "type": "uint32"
        }
      ],
      "stateMutability": "view",
      "type": "function"
    },
    {
      "inputs": [],
      "name": "getEpochTokens",
      "outputs": [
        {
          "internalType": "address[]",
          "name": "tokens",
          "type": "address[]"
        }
      ],
      "stateMutability": "view",
      "type": "function"
    },
    {
      "inputs": [],
      "name": "getOrders",
      "outputs": [
        {
          "internalType": "address[]",
          "name": "sellingTokens",
          "type": "address[]"
        },
        {
          "internalType": "uint256[]",
          "name": "sellingAmounts",
          "type": "uint256[]"
        },
        {
          "internalType": "address[]",
          "name": "buyingTokens",
          "type": "address[]"
        },
        {
          "internalType": "uint256[]",
          "name": "buyingAmounts",
          "type": "uint256[]"
        },
        {
          "internalType": "uint256[]",
          "name": "sellingEstimatedUnderlyingAmounts",
          "type": "uint256[]"
        },
        {
          "internalType": "uint256[]",
          "name": "buyingEstimatedUnderlyingAmounts",
          "type": "uint256[]"
        }
      ],
      "stateMutability": "view",
      "type": "function"
    },
    {
      "inputs": [
        {
          "internalType": "address",
          "name": "token",
          "type": "address"
        }
      ],
      "name": "getPriceOf",
      "outputs": [
        {
          "internalType": "uint256",
          "name": "price",
          "type": "uint256"
        }
      ],
      "stateMutability": "view",
      "type": "function"
    },
    {
      "inputs": [],
      "name": "getTransparentVaultsEpoch",
      "outputs": [
        {
          "internalType": "address[]",
          "name": "vaults",
          "type": "address[]"
        }
      ],
      "stateMutability": "view",
      "type": "function"
    },
    {
      "inputs": [
        {
          "internalType": "address",
          "name": "vault",
          "type": "address"
        }
      ],
      "name": "getVaultTotalAssetsForFulfillDeposit",
      "outputs": [
        {
          "internalType": "uint256",
          "name": "totalAssets",
          "type": "uint256"
        }
      ],
      "stateMutability": "view",
      "type": "function"
    },
    {
      "inputs": [
        {
          "internalType": "address",
          "name": "vault",
          "type": "address"
        }
      ],
      "name": "getVaultTotalAssetsForFulfillRedeem",
      "outputs": [
        {
          "internalType": "uint256",
          "name": "totalAssets",
          "type": "uint256"
        }
      ],
      "stateMutability": "view",
      "type": "function"
    },
    {
      "inputs": [],
      "name": "intentFactor",
      "outputs": [
        {
          "internalType": "uint256",
          "name": "",
          "type": "uint256"
        }
      ],
      "stateMutability": "view",
      "type": "function"
    },
    {
      "inputs": [],
      "name": "liquidityOrchestrator",
      "outputs": [
        {
          "internalType": "contract ILiquidityOrchestrator",
          "name": "",
          "type": "address"
        }
      ],
      "stateMutability": "view",
      "type": "function"
    },
    {
      "inputs": [],
      "name": "newProtocolFeeRatesTimestamp",
      "outputs": [
        {
          "internalType": "uint256",
          "name": "",
          "type": "uint256"
        }
      ],
      "stateMutability": "view",
      "type": "function"
    },
    {
      "inputs": [],
      "name": "owner",
      "outputs": [
        {
          "internalType": "address",
          "name": "",
          "type": "address"
        }
      ],
      "stateMutability": "view",
      "type": "function"
    },
    {
      "inputs": [],
      "name": "pendingOwner",
      "outputs": [
        {
          "internalType": "address",
          "name": "",
          "type": "address"
        }
      ],
      "stateMutability": "view",
      "type": "function"
    },
    {
      "inputs": [],
      "name": "pendingProtocolFees",
      "outputs": [
        {
          "internalType": "uint256",
          "name": "",
          "type": "uint256"
        }
      ],
      "stateMutability": "view",
      "type": "function"
    },
    {
      "inputs": [
        {
          "internalType": "bytes",
          "name": "",
          "type": "bytes"
        }
      ],
      "name": "performUpkeep",
      "outputs": [],
      "stateMutability": "nonpayable",
      "type": "function"
    },
    {
      "inputs": [],
      "name": "priceAdapterPrecision",
      "outputs": [
        {
          "internalType": "uint256",
          "name": "",
          "type": "uint256"
        }
      ],
      "stateMutability": "view",
      "type": "function"
    },
    {
      "inputs": [],
      "name": "registry",
      "outputs": [
        {
          "internalType": "contract IPriceAdapterRegistry",
          "name": "",
          "type": "address"
        }
      ],
      "stateMutability": "view",
      "type": "function"
    },
    {
      "inputs": [],
      "name": "renounceOwnership",
      "outputs": [],
      "stateMutability": "nonpayable",
      "type": "function"
    },
    {
      "inputs": [],
      "name": "rsFeeCoefficient",
      "outputs": [
        {
          "internalType": "uint16",
          "name": "",
          "type": "uint16"
        }
      ],
      "stateMutability": "view",
      "type": "function"
    },
    {
      "inputs": [
        {
          "internalType": "uint256",
          "name": "amount",
          "type": "uint256"
        }
      ],
      "name": "subtractPendingProtocolFees",
      "outputs": [],
      "stateMutability": "nonpayable",
      "type": "function"
    },
    {
      "inputs": [
        {
          "internalType": "address",
          "name": "newOwner",
          "type": "address"
        }
      ],
      "name": "transferOwnership",
      "outputs": [],
      "stateMutability": "nonpayable",
      "type": "function"
    },
    {
      "inputs": [],
      "name": "transparentMinibatchSize",
      "outputs": [
        {
          "internalType": "uint8",
          "name": "",
          "type": "uint8"
        }
      ],
      "stateMutability": "view",
      "type": "function"
    },
    {
      "inputs": [
        {
          "internalType": "uint256",
          "name": "",
          "type": "uint256"
        }
      ],
      "name": "transparentVaultsEpoch",
      "outputs": [
        {
          "internalType": "address",
          "name": "",
          "type": "address"
        }
      ],
      "stateMutability": "view",
      "type": "function"
    },
    {
      "inputs": [],
      "name": "underlyingAsset",
      "outputs": [
        {
          "internalType": "address",
          "name": "",
          "type": "address"
        }
      ],
      "stateMutability": "view",
      "type": "function"
    },
    {
      "inputs": [],
      "name": "underlyingDecimals",
      "outputs": [
        {
          "internalType": "uint8",
          "name": "",
          "type": "uint8"
        }
      ],
      "stateMutability": "view",
      "type": "function"
    },
    {
      "inputs": [
        {
          "internalType": "address",
          "name": "newAutomationRegistry",
          "type": "address"
        }
      ],
      "name": "updateAutomationRegistry",
      "outputs": [],
      "stateMutability": "nonpayable",
      "type": "function"
    },
    {
      "inputs": [
        {
          "internalType": "int256",
          "name": "deltaAmount",
          "type": "int256"
        }
      ],
      "name": "updateBufferAmount",
      "outputs": [],
      "stateMutability": "nonpayable",
      "type": "function"
    },
    {
      "inputs": [
        {
          "internalType": "uint32",
          "name": "newEpochDuration",
          "type": "uint32"
        }
      ],
      "name": "updateEpochDuration",
      "outputs": [],
      "stateMutability": "nonpayable",
      "type": "function"
    },
    {
      "inputs": [
        {
          "internalType": "uint8",
          "name": "_transparentMinibatchSize",
          "type": "uint8"
        }
      ],
      "name": "updateMinibatchSize",
      "outputs": [],
      "stateMutability": "nonpayable",
      "type": "function"
    },
    {
      "inputs": [
        {
          "internalType": "uint16",
          "name": "_vFeeCoefficient",
          "type": "uint16"
        },
        {
          "internalType": "uint16",
          "name": "_rsFeeCoefficient",
          "type": "uint16"
        }
      ],
      "name": "updateProtocolFees",
      "outputs": [],
      "stateMutability": "nonpayable",
      "type": "function"
    },
    {
      "inputs": [],
      "name": "vFeeCoefficient",
      "outputs": [
        {
          "internalType": "uint16",
          "name": "",
          "type": "uint16"
        }
      ],
      "stateMutability": "view",
      "type": "function"
    }
  ],
  "bytecode": "0x608060405234801561000f575f5ffd5b50604051613bc8380380613bc883398101604081905261002e916104c3565b826001600160a01b03811661005c57604051631e4fbdf760e01b81525f600482015260240160405180910390fd5b61006581610444565b5060016002556001600160a01b0382166100925760405163d92e233d60e01b815260040160405180910390fd5b6001600160a01b0381166100b95760405163d92e233d60e01b815260040160405180910390fd5b600480546001600160a01b0319166001600160a01b03841690811782556040805163015df99360e01b81529051919263015df9939282820192602092908290030181865afa15801561010d573d5f5f3e3d5ffd5b505050506040513d601f19601f82011682018060405250810190610131919061050d565b600680546001600160a01b0319166001600160a01b03928316179055600480546040805163d1717c7d60e01b81529051919093169263d1717c7d92818101926020929091908290030181865afa15801561018d573d5f5f3e3d5ffd5b505050506040513d601f19601f820116820180604052508101906101b1919061052f565b6101bc90600a610648565b6008556004805460408051631c56369f60e21b815290516001600160a01b0390921692637158da7c9282820192602092908290030181865afa158015610204573d5f5f3e3d5ffd5b505050506040513d601f19601f82011682018060405250810190610228919061050d565b600980546001600160a01b0319166001600160a01b0392831690811790915560048054604051633c2e3e7b60e11b81529182019290925291169063785c7cf690602401602060405180830381865afa158015610286573d5f5f3e3d5ffd5b505050506040513d601f19601f820116820180604052508101906102aa919061052f565b6009805460ff92909216600160a01b0260ff60a01b19909216919091179055600480546040805163567ba71360e01b815290516001600160a01b039092169263567ba7139282820192602092908290030181865afa15801561030e573d5f5f3e3d5ffd5b505050506040513d601f19601f82011682018060405250810190610332919061052f565b61033d90600a610648565b6007556019805462ff0000191662010000179055600380546001600160a01b038084166001600160a01b0319909216919091179091556004805460408051631d06d6c760e11b815290519190931692633a0dad8e92818101926020929091908290030181865afa1580156103b3573d5f5f3e3d5ffd5b505050506040513d601f19601f820116820180604052508101906103d7919061050d565b600580546001600160a01b0319166001600160a01b0392909216919091179055601780546201518063ffffffff1990911681179091556104179042610656565b60185550506019805464ffff00ffff19169055506009805463ffffffff60a81b191690555f601b55610669565b600180546001600160a01b031916905561045d81610460565b50565b5f80546001600160a01b038381166001600160a01b0319831681178455604051919092169283917f8be0079c531659141344cd1fd0a4f28419497f9722a3daafe3b4186f6b6457e09190a35050565b6001600160a01b038116811461045d575f5ffd5b5f5f5f606084860312156104d5575f5ffd5b83516104e0816104af565b60208501519093506104f1816104af565b6040850151909250610502816104af565b809150509250925092565b5f6020828403121561051d575f5ffd5b8151610528816104af565b9392505050565b5f6020828403121561053f575f5ffd5b815160ff81168114610528575f5ffd5b634e487b7160e01b5f52601160045260245ffd5b6001815b600184111561059e578085048111156105825761058261054f565b600184161561059057908102905b60019390931c928002610567565b935093915050565b5f826105b457506001610642565b816105c057505f610642565b81600181146105d657600281146105e0576105fc565b6001915050610642565b60ff8411156105f1576105f161054f565b50506001821b610642565b5060208310610133831016604e8410600b841016171561061f575081810a610642565b61062b5f198484610563565b805f190482111561063e5761063e61054f565b0290505b92915050565b5f61052860ff8416836105a6565b808201808211156106425761064261054f565b613552806106765f395ff3fe608060405234801561000f575f5ffd5b50600436106101ec575f3560e01c8063055ad42e146101f05780630844697d1461021a57806308af604d146102425780630e60efe714610267578063132b1c921461027e57806314b19c5a146102a657806314b5d07f146102b457806325a760c2146102c95780632b0088b4146102dd5780632e2dc43e146102e65780633a0dad8e146103005780634585e33b146103205780634f17a2fa146103335780634ff0876a1461035257806350267f6d146103625780635488cd621461038557806358fac65b146103995780635dc228a0146103ac5780636e04ff0d146103bf5780636ff04153146103e057806370604445146103f5578063715018a6146104085780637158da7c1461041057806379502c551461042357806379ba5097146104365780637b1039991461043e5780637bced9e5146104515780637cdabf0a14610459578063800f9fad1461046c5780638da5cb5b146104755780638f5c94651461047d5780639f2124cb14610486578063b8b2af7c1461048e578063ba96ff11146104a3578063c18e2a5c146104cb578063ca1f32f1146104d4578063e2638ff1146104dd578063e2c4aaec14610505578063e30c397814610518578063e6c3efd914610520578063eeb393c914610533578063f2fde38b14610546575b5f5ffd5b601954610204906301000000900460ff1681565b6040516102119190612cb3565b60405180910390f35b60095461022f90600160b81b900461ffff1681565b60405161ffff9091168152602001610211565b6019546102559062010000900460ff1681565b60405160ff9091168152602001610211565b610270600a5481565b604051908152602001610211565b61027061028c366004612ce1565b6001600160a01b03165f9081526012602052604090205490565b60195461022f9061ffff1681565b6102c76102c2366004612ce1565b610559565b005b60095461025590600160a01b900460ff1681565b61027060085481565b6102ee610657565b60405161021196959493929190612d6f565b600554610313906001600160a01b031681565b6040516102119190612df0565b6102c761032e366004612e04565b6108d3565b61033d6212750081565b60405163ffffffff9091168152602001610211565b60175461033d9063ffffffff1681565b61036a610a77565b6040805161ffff938416815292909116602083015201610211565b60195461025590600160201b900460ff1681565b6103136103a7366004612e70565b610ab8565b600354610313906001600160a01b031681565b6103d26103cd366004612e04565b610ae0565b604051610211929190612e87565b6103e8610c3a565b6040516102119190612ec5565b6102c7610403366004612e70565b610c9d565b6102c7610d04565b600954610313906001600160a01b031681565b600454610313906001600160a01b031681565b6102c7610d17565b600654610313906001600160a01b031681565b610255600881565b6102c7610467366004612eed565b610d5f565b610270600c5481565b610313610f40565b61022f61271081565b6103e8610f4e565b60095461022f90600160a81b900461ffff1681565b6102706104b1366004612ce1565b6001600160a01b03165f908152600d602052604090205490565b610270601b5481565b61027060075481565b6102706104eb366004612ce1565b6001600160a01b03165f9081526011602052604090205490565b6102c7610513366004612e70565b610fac565b61031361101c565b6102c761052e366004612f2c565b61102b565b6102c7610541366004612f58565b61111f565b6102c7610554366004612ce1565b611231565b610561611297565b6001600160a01b0381166105885760405163d92e233d60e01b815260040160405180910390fd5b600480546040805163edcf9c1f60e01b815290516001600160a01b039092169263edcf9c1f9282820192602092908290030181865afa1580156105cd573d5f5f3e3d5ffd5b505050506040513d601f19601f820116820180604052508101906105f19190612f73565b61060e576040516312aecd8160e01b815260040160405180910390fd5b600380546001600160a01b0319166001600160a01b0383169081179091556040517f6cc7ebdb6c8c53291c5ae16148cab9b049d23bf5bde5632900b40edff56fcb43905f90a250565b606080808080805f6019546301000000900460ff16600481111561067d5761067d612c9f565b1461069b576040516312aecd8160e01b815260040160405180910390fd5b5f600d6008018054806020026020016040519081016040528092919081815260200182805480156106f357602002820191905f5260205f20905b81546001600160a01b031681526001909101906020018083116106d5575b505050505090505f5f610705836112c9565b915091508161ffff166001600160401b0381111561072557610725612f92565b60405190808252806020026020018201604052801561074e578160200160208202803683370190505b5098508161ffff166001600160401b0381111561076d5761076d612f92565b604051908082528060200260200182016040528015610796578160200160208202803683370190505b5097508061ffff166001600160401b038111156107b5576107b5612f92565b6040519080825280602002602001820160405280156107de578160200160208202803683370190505b5096508061ffff166001600160401b038111156107fd576107fd612f92565b604051908082528060200260200182016040528015610826578160200160208202803683370190505b5095508161ffff166001600160401b0381111561084557610845612f92565b60405190808252806020026020018201604052801561086e578160200160208202803683370190505b5094508061ffff166001600160401b0381111561088d5761088d612f92565b6040519080825280602002602001820160405280156108b6578160200160208202803683370190505b5093506108c8838a8a888b8b8a61136a565b505050909192939495565b6108db610f40565b6001600160a01b0316336001600160a01b03161415801561090757506003546001600160a01b03163314155b156109255760405163ea8e4eb560e01b815260040160405180910390fd5b61092d611610565b600480546040805163edcf9c1f60e01b815290516001600160a01b039092169263edcf9c1f9282820192602092908290030181865afa158015610972573d5f5f3e3d5ffd5b505050506040513d601f19601f820116820180604052508101906109969190612f73565b80156109a3575060185442115b156109b5576109b0611638565b610a69565b60016019546301000000900460ff1660048111156109d5576109d5612c9f565b036109e2576109b06118e5565b60026019546301000000900460ff166004811115610a0257610a02612c9f565b03610a0f576109b0611ffb565b60036019546301000000900460ff166004811115610a2f57610a2f612c9f565b03610a3c576109b06121e4565b60046019546301000000900460ff166004811115610a5c57610a5c612c9f565b03610a6957610a696126b5565b610a736001600255565b5050565b5f5f42600a541115610a9a575050600b5461ffff80821692620100009092041690565b505060095461ffff600160a81b8204811692600160b81b9092041690565b601a8181548110610ac7575f80fd5b5f918252602090912001546001600160a01b0316905081565b600480546040805163edcf9c1f60e01b815290515f936060936001600160a01b03169263edcf9c1f92818301926020928290030181865afa158015610b27573d5f5f3e3d5ffd5b505050506040513d601f19601f82011682018060405250810190610b4b9190612f73565b8015610b58575060185442115b15610b665760019150610c22565b60016019546301000000900460ff166004811115610b8657610b86612c9f565b03610b945760019150610c22565b60026019546301000000900460ff166004811115610bb457610bb4612c9f565b03610bc25760019150610c22565b60036019546301000000900460ff166004811115610be257610be2612c9f565b03610bf05760019150610c22565b60046019546301000000900460ff166004811115610c1057610c10612c9f565b03610c1e5760019150610c22565b5f91505b60405180602001604052805f81525090509250929050565b6060600d600801805480602002602001604051908101604052809291908181526020018280548015610c9357602002820191905f5260205f20905b81546001600160a01b03168152600190910190602001808311610c75575b5050505050905090565b6005546001600160a01b03163314610cc85760405163ea8e4eb560e01b815260040160405180910390fd5b600c54811115610ceb57604051632ca2f52b60e11b815260040160405180910390fd5b80600c5f828254610cfc9190612fba565b909155505050565b610d0c611297565b610d155f612843565b565b3380610d2161101c565b6001600160a01b031614610d53578060405163118cdaa760e01b8152600401610d4a9190612df0565b60405180910390fd5b610d5c81612843565b50565b610d67611297565b60328261ffff161180610d7f57506107d08161ffff16115b15610d9d576040516317dbc4cb60e21b815260040160405180910390fd5b600480546040805163edcf9c1f60e01b815290516001600160a01b039092169263edcf9c1f9282820192602092908290030181865afa158015610de2573d5f5f3e3d5ffd5b505050506040513d601f19601f82011682018060405250810190610e069190612f73565b610e23576040516312aecd8160e01b815260040160405180910390fd5b5f5f610e2d610a77565b600b805461ffff84811663ffffffff19909216919091176201000084831602179091556009805463ffffffff60a81b1916600160a81b8984160261ffff60b81b191617600160b81b928816929092029190911790556004805460408051630df1aa5760e31b815290519496509294506001600160a01b031692636f8d52b89280830192602092918290030181865afa158015610ecb573d5f5f3e3d5ffd5b505050506040513d601f19601f82011682018060405250810190610eef9190612fcd565b610ef99042612fe4565b600a556040805161ffff8087168252851660208201527f2bb6517fcd555b5390717b7fd212a2d9aa55d0214725c5d6d955103b4e6b2a2c910160405180910390a150505050565b5f546001600160a01b031690565b6060601a805480602002602001604051908101604052809291908181526020018280548015610c9357602002820191905f5260205f209081546001600160a01b03168152600190910190602001808311610c75575050505050905090565b6005546001600160a01b03163314610fd75760405163ea8e4eb560e01b815260040160405180910390fd5b5f811315610ffb5780601b5f828254610ff09190612fe4565b90915550610d5c9050565b5f811215610d5c5761100c81612ff7565b601b5f828254610cfc9190612fba565b6001546001600160a01b031690565b611033611297565b8060ff165f03611056576040516317dbc4cb60e21b815260040160405180910390fd5b600860ff8216111561107b576040516317dbc4cb60e21b815260040160405180910390fd5b600480546040805163edcf9c1f60e01b815290516001600160a01b039092169263edcf9c1f9282820192602092908290030181865afa1580156110c0573d5f5f3e3d5ffd5b505050506040513d601f19601f820116820180604052508101906110e49190612f73565b611101576040516312aecd8160e01b815260040160405180910390fd5b6019805460ff909216620100000262ff000019909216919091179055565b611127611297565b8063ffffffff165f0361114d576040516317dbc4cb60e21b815260040160405180910390fd5b6212750063ffffffff82161115611177576040516317dbc4cb60e21b815260040160405180910390fd5b600480546040805163edcf9c1f60e01b815290516001600160a01b039092169263edcf9c1f9282820192602092908290030181865afa1580156111bc573d5f5f3e3d5ffd5b505050506040513d601f19601f820116820180604052508101906111e09190612f73565b6111fd576040516312aecd8160e01b815260040160405180910390fd5b6017805463ffffffff191663ffffffff831690811790915561122b906112239042612fe4565b60185461285c565b60185550565b611239611297565b600180546001600160a01b0319166001600160a01b03831690811790915561125f610f40565b6001600160a01b03167f38d16b8cac22d99fc7c124b9cd0de2d3fa1faef420bfe791d8c362d765e2270060405160405180910390a350565b336112a0610f40565b6001600160a01b031614610d15573360405163118cdaa760e01b8152600401610d4a9190612df0565b80515f908190815b8161ffff168161ffff161015611363575f858261ffff16815181106112f8576112f8613011565b6020908102919091018101516001600160a01b0381165f9081526013909252604090912054909150156113315761132e85613025565b94505b6001600160a01b0381165f908152601460205260409020541561135a5761135784613025565b93505b506001016112d1565b5050915091565b86515f80805b8361ffff168161ffff161015611603575f8b8261ffff168151811061139757611397613011565b6020908102919091018101516001600160a01b0381165f908152601383526040808220546014909452902054909250811561150657828d8761ffff16815181106113e3576113e3613011565b60200260200101906001600160a01b031690816001600160a01b031681525050818c8761ffff168151811061141a5761141a613011565b6020908102919091018101919091526001600160a01b0384165f908152600d909152604081205460075461144f918591612870565b60048054604051633c2e3e7b60e11b81529293506114d89284926001600160a01b039092169163785c7cf691611487918a9101612df0565b602060405180830381865afa1580156114a2573d5f5f3e3d5ffd5b505050506040513d601f19601f820116820180604052508101906114c69190613045565b600954600160a01b900460ff16612921565b8c8861ffff16815181106114ee576114ee613011565b602090810291909101015261150287613025565b9650505b80156115f557828a8661ffff168151811061152357611523613011565b60200260200101906001600160a01b031690816001600160a01b03168152505080898661ffff168151811061155a5761155a613011565b6020908102919091018101919091526001600160a01b0384165f908152600d909152604081205460075461158f918491612870565b60048054604051633c2e3e7b60e11b81529293506115c79284926001600160a01b039092169163785c7cf691611487918a9101612df0565b898761ffff16815181106115dd576115dd613011565b60209081029190910101526115f186613025565b9550505b505050806001019050611370565b5050505050505050505050565b600280540361163257604051633ee5aeb560e01b815260040160405180910390fd5b60028055565b601854421115806116af5750600480546040805163edcf9c1f60e01b815290516001600160a01b039092169263edcf9c1f9282820192602092908290030181865afa158015611689573d5f5f3e3d5ffd5b505050506040513d601f19601f820116820180604052508101906116ad9190612f73565b155b156116cd5760405163085de62560e01b815260040160405180910390fd5b601a545f906001600160401b038111156116e9576116e9612f92565b604051908082528060200260200182016040528015611712578160200160208202803683370190505b5090505f5b601a5461ffff8216101561179557601a8161ffff168154811061173c5761173c613011565b905f5260205f20015f9054906101000a90046001600160a01b0316828261ffff168151811061176d5761176d613011565b6001600160a01b039092166020928302919091019091015261178e81613025565b9050611717565b505f5b60155461ffff8216101561182d575f600d6008018261ffff16815481106117c1576117c1613011565b5f9182526020808320909101546001600160a01b03168252600d81526040808320839055600e825280832083905560108252808320839055601382528083208390556014825280832083905560169091529020805460ff191690555061182681613025565b9050611798565b5061183960155f612c71565b5f5b81518161ffff1610156118a8575f828261ffff168151811061185f5761185f613011565b6020908102919091018101516001600160a01b03165f908152600f8252604080822082905560118352808220829055601290925290812055506118a181613025565b905061183b565b506118b161298b565b601a5415610d5c576017546118cc9063ffffffff1642612fe4565b601855506019805463ff00000019166301000000179055565b6019545f906119069060ff620100008204811691600160201b900416613060565b60195460ff91821692505f91611923916201000090041683613083565b90506019600481819054906101000a900460ff166119409061309d565b91906101000a81548160ff021916908360ff160217905550601a805490508161ffff1611806119745750601a5461ffff8216145b156119925750601a546019805464ffff000000191663020000001790555b5f5f61199c610a77565b9092509050835b8361ffff168161ffff161015611ff4575f601a8261ffff16815481106119cb576119cb613011565b905f5260205f20015f9054906101000a90046001600160a01b031690505f5f826001600160a01b031663d3d034586040518163ffffffff1660e01b81526004015f60405180830381865afa158015611a25573d5f5f3e3d5ffd5b505050506040513d5f823e601f3d908101601f19168201604052611a4c9190810190613177565b90925090505f805b83518161ffff161015611cda575f848261ffff1681518110611a7857611a78613011565b602002602001015190505f848361ffff1681518110611a9957611a99613011565b6020026020010151905080600d6001015f846001600160a01b03166001600160a01b031681526020019081526020015f205f828254611ad89190612fe4565b90915550506001600160a01b0382165f9081526016602052604090205460ff16611c50576009546001600160a01b0390811690831603611bc857600954611bab90611b2e90600160a01b900460ff16600a613318565b600954600480546040805163567ba71360e01b81529051600160a01b90940460ff16936001600160a01b039092169263567ba7139282820192602092908290030181865afa158015611b82573d5f5f3e3d5ffd5b505050506040513d601f19601f82011682018060405250810190611ba69190613045565b612921565b6001600160a01b0383165f908152600d6020526040902055611c50565b6006546040516341976e0960e01b81526001600160a01b03909116906341976e0990611bf8908590600401612df0565b602060405180830381865afa158015611c13573d5f5f3e3d5ffd5b505050506040513d601f19601f82011682018060405250810190611c379190612fcd565b6001600160a01b0383165f908152600d60205260409020555b6001600160a01b0382165f908152600d6020526040812054600754909190611cae90611c7f9084908690612870565b60048054604051633c2e3e7b60e11b81526001600160a01b039091169163785c7cf691611487918a9101612df0565b9050611cba8187612fe4565b9550611cc584612b70565b5050505080611cd390613025565b9050611a54565b505f611ced61ffff891683612710612870565b601754909150611d0e90829063ffffffff908116906301e133809061287016565b905080600c5f828254611d219190612fe4565b90915550611d3190508183612fba565b60405163728d42fb60e11b8152600481018290529092505f906001600160a01b0387169063e51a85f690602401602060405180830381865afa158015611d79573d5f5f3e3d5ffd5b505050506040513d601f19601f82011682018060405250810190611d9d9190612fcd565b9050611da98184612fba565b6001600160a01b0387165f908152601160205260408120829055909350611dd761ffff8a1683612710612870565b905080600c5f828254611dea9190612fe4565b90915550611dfa90508183612fba565b601954604051630df571f760e01b815261ffff9091166004820152602481018290529092506001600160a01b03881690630df571f7906044015f604051808303815f87803b158015611e4a575f5ffd5b505af1158015611e5c573d5f5f3e3d5ffd5b505050505f876001600160a01b031663a68a5267896001600160a01b0316630a605c6d6040518163ffffffff1660e01b8152600401602060405180830381865afa158015611eac573d5f5f3e3d5ffd5b505050506040513d601f19601f82011682018060405250810190611ed09190612fcd565b875f6040518463ffffffff1660e01b8152600401611ef093929190613326565b602060405180830381865afa158015611f0b573d5f5f3e3d5ffd5b505050506040513d601f19601f82011682018060405250810190611f2f9190612fcd565b9050611f3b8186612fba565b94505f886001600160a01b031663f64c6f326040518163ffffffff1660e01b8152600401602060405180830381865afa158015611f7a573d5f5f3e3d5ffd5b505050506040513d601f19601f82011682018060405250810190611f9e9190612fcd565b6001600160a01b038a165f9081526012602052604090208790559050611fc48187612fe4565b6001600160a01b039099165f908152600f60205260409020989098555050600190960195506119a3945050505050565b5050505050565b6019805463ff00000019166303000000179055601a545f805b8261ffff168161ffff161015612078575f601a8261ffff168154811061203c5761203c613011565b5f9182526020808320909101546001600160a01b0316808352600f90915260409091205490915061206d9084612fe4565b925050600101612014565b505f6120fb60055f9054906101000a90046001600160a01b03166001600160a01b031663dab26e3b6040518163ffffffff1660e01b8152600401602060405180830381865afa1580156120cd573d5f5f3e3d5ffd5b505050506040513d601f19601f820116820180604052508101906120f19190612fcd565b8390612710612870565b905080601b54111561210c57505050565b5f601b548261211b9190612fba565b90505f805b8561ffff168161ffff1610156121c6575f601a8261ffff168154811061214857612148613011565b5f9182526020808320909101546001600160a01b0316808352600f90915260408220549092509061217a86838a612870565b6001600160a01b0384165f908152600f60205260408120805492935083929091906121a6908490612fba565b909155506121b690508186612fe4565b9450505050806001019050612120565b5080601b5f8282546121d89190612fe4565b90915550505050505050565b6019545f906122059060ff620100008204811691600160201b900416613060565b60195460ff91821692505f91612222916201000090041683613083565b90506019600481819054906101000a900460ff1661223f9061309d565b91906101000a81548160ff021916908360ff160217905550601a805490508161ffff1611806122735750601a5461ffff8216145b156122915750601a546019805464ffff000000191663040000001790555b815b8161ffff168161ffff1610156126b0575f601a8261ffff16815481106122bb576122bb613011565b905f5260205f20015f9054906101000a90046001600160a01b031690505f5f826001600160a01b031663b6eba6536040518163ffffffff1660e01b81526004015f60405180830381865afa158015612315573d5f5f3e3d5ffd5b505050506040513d5f823e601f3d908101601f1916820160405261233c9190810190613352565b6001600160a01b0385165f908152600f6020526040812054835193955091935090916001600160401b0381111561237557612375612f92565b6040519080825280602002602001820160405280156123b957816020015b604080518082019091525f80825260208201528152602001906001900390816123935790505b5090505f5b84518161ffff161015612644575f858261ffff16815181106123e2576123e2613011565b602002602001015190505f858361ffff168151811061240357612403613011565b6020908102919091018101516001600160a01b0384165f908152601690925260409091205490915060ff16612509576009546001600160a01b03908116908316036124815760095461246490611b2e90600160a01b900460ff16600a613318565b6001600160a01b0383165f908152600d6020526040902055612509565b6006546040516341976e0960e01b81526001600160a01b03909116906341976e09906124b1908590600401612df0565b602060405180830381865afa1580156124cc573d5f5f3e3d5ffd5b505050506040513d601f19601f820116820180604052508101906124f09190612fcd565b6001600160a01b0383165f908152600d60205260409020555b6001600160a01b0382165f908152600d60205260408120546007546008549192916125aa9161255191859061254a908c9063ffffffff808b16919061287016565b9190612870565b60095460048054604051633c2e3e7b60e11b8152600160a01b90930460ff16926001600160a01b039091169163785c7cf69161258f918b9101612df0565b602060405180830381865afa158015611b82573d5f5f3e3d5ffd5b90506040518060400160405280856001600160a01b0316815260200182815250868661ffff16815181106125e0576125e0613011565b602002602001018190525080600d6003015f866001600160a01b03166001600160a01b031681526020019081526020015f205f8282546126209190612fe4565b9091555061262f905084612b70565b505050508061263d90613025565b90506123be565b50604051634c2dd25760e11b81526001600160a01b0386169063985ba4ae90612673908490869060040161340b565b5f604051808303815f87803b15801561268a575f5ffd5b505af115801561269c573d5f5f3e3d5ffd5b505050505050505050806001019050612293565b505050565b5f600d60080180548060200260200160405190810160405280929190818152602001828054801561270d57602002820191905f5260205f20905b81546001600160a01b031681526001909101906020018083116126ef575b505083519394505f925050505b8161ffff168161ffff1610156127d8575f838261ffff168151811061274157612741613011565b6020908102919091018101516001600160a01b0381165f908152600e835260408082205460109094529020549092508082111561279f576127828183612fba565b6001600160a01b0384165f908152601360205260409020556127ca565b818111156127ca576127b18282612fba565b6001600160a01b0384165f908152601460205260409020555b50505080600101905061271a565b506019805463ff00000019811682555f906127f69061ffff16613025565b82546101009290920a61ffff8181021990931691831602179091556019546040519116907f0bc12479581640d161e016cef21aa834cb6d6326bbc0d8445e58d56403adf2dc905f90a25050565b600180546001600160a01b0319169055610d5c81612bf5565b5f8282188284100282185b90505b92915050565b5f5f5f61287d8686612c44565b91509150815f036128a1578381816128975761289761346c565b049250505061291a565b8184116128b8576128b86003851502601118612c60565b5f848688095f868103871696879004966002600389028118808a02820302808a02820302808a02820302808a02820302808a02820302808a02909103029181900381900460010185841190960395909502919093039390930492909217029150505b9392505050565b5f8260ff168260ff1611156129565761293a8383613480565b61294590600a613318565b61294f9085613499565b905061291a565b8260ff168260ff1610156129835761296e8284613480565b61297990600a613318565b61294f90856134b0565b509192915050565b60048054604051631da09e4360e31b81525f926001600160a01b039092169163ed04f218916129bc918591016134cf565b5f60405180830381865afa1580156129d6573d5f5f3e3d5ffd5b505050506040513d5f823e601f3d908101601f191682016040526129fd91908101906134e3565b9050612a0a601a5f612c71565b5f5b81518161ffff161015610a73575f828261ffff1681518110612a3057612a30613011565b60200260200101519050806001600160a01b03166301e1d1146040518163ffffffff1660e01b8152600401602060405180830381865afa158015612a76573d5f5f3e3d5ffd5b505050506040513d601f19601f82011682018060405250810190612a9a9190612fcd565b816001600160a01b031663f64c6f326040518163ffffffff1660e01b8152600401602060405180830381865afa158015612ad6573d5f5f3e3d5ffd5b505050506040513d601f19601f82011682018060405250810190612afa9190612fcd565b612b049190612fe4565b5f03612b105750612b60565b601a80546001810182555f919091527f057c384a7d1c54f3a1b2e5e67b2617b8224fdfd1ea7234eea573a6ff665ff63e0180546001600160a01b0319166001600160a01b03929092169190911790555b612b6981613025565b9050612a0c565b6001600160a01b0381165f9081526016602052604090205460ff16610d5c576015805460018181019092557f55f448fdea98c4d29eb340757ef0a66cd03dbb9538908a6a81d96026b71ec4750180546001600160a01b0384166001600160a01b031990911681179091555f908152601660205260409020805460ff1916909117905550565b5f80546001600160a01b038381166001600160a01b0319831681178455604051919092169283917f8be0079c531659141344cd1fd0a4f28419497f9722a3daafe3b4186f6b6457e09190a35050565b5f805f1983850993909202808410938190039390930393915050565b634e487b715f52806020526024601cfd5b5080545f8255905f5260205f2090810190610d5c91905b80821115612c9b575f8155600101612c88565b5090565b634e487b7160e01b5f52602160045260245ffd5b6020810160058310612cc757612cc7612c9f565b91905290565b6001600160a01b0381168114610d5c575f5ffd5b5f60208284031215612cf1575f5ffd5b813561291a81612ccd565b5f8151808452602084019350602083015f5b82811015612d355781516001600160a01b0316865260209586019590910190600101612d0e565b5093949350505050565b5f8151808452602084019350602083015f5b82811015612d35578151865260209586019590910190600101612d51565b60c081525f612d8160c0830189612cfc565b8281036020840152612d938189612d3f565b90508281036040840152612da78188612cfc565b90508281036060840152612dbb8187612d3f565b90508281036080840152612dcf8186612d3f565b905082810360a0840152612de38185612d3f565b9998505050505050505050565b6001600160a01b0391909116815260200190565b5f5f60208385031215612e15575f5ffd5b82356001600160401b03811115612e2a575f5ffd5b8301601f81018513612e3a575f5ffd5b80356001600160401b03811115612e4f575f5ffd5b856020828401011115612e60575f5ffd5b6020919091019590945092505050565b5f60208284031215612e80575f5ffd5b5035919050565b8215158152604060208201525f82518060408401528060208501606085015e5f606082850101526060601f19601f8301168401019150509392505050565b602081525f6128676020830184612cfc565b803561ffff81168114612ee8575f5ffd5b919050565b5f5f60408385031215612efe575f5ffd5b612f0783612ed7565b9150612f1560208401612ed7565b90509250929050565b60ff81168114610d5c575f5ffd5b5f60208284031215612f3c575f5ffd5b813561291a81612f1e565b63ffffffff81168114610d5c575f5ffd5b5f60208284031215612f68575f5ffd5b813561291a81612f47565b5f60208284031215612f83575f5ffd5b8151801515811461291a575f5ffd5b634e487b7160e01b5f52604160045260245ffd5b634e487b7160e01b5f52601160045260245ffd5b8181038181111561286a5761286a612fa6565b5f60208284031215612fdd575f5ffd5b5051919050565b8082018082111561286a5761286a612fa6565b5f600160ff1b820161300b5761300b612fa6565b505f0390565b634e487b7160e01b5f52603260045260245ffd5b5f61ffff821661ffff810361303c5761303c612fa6565b60010192915050565b5f60208284031215613055575f5ffd5b815161291a81612f1e565b60ff818116838216029081169081811461307c5761307c612fa6565b5092915050565b61ffff818116838216019081111561286a5761286a612fa6565b5f60ff821660ff810361303c5761303c612fa6565b604051601f8201601f191681016001600160401b03811182821017156130da576130da612f92565b604052919050565b5f6001600160401b038211156130fa576130fa612f92565b5060051b60200190565b5f82601f830112613113575f5ffd5b8151613126613121826130e2565b6130b2565b8082825260208201915060208360051b860101925085831115613147575f5ffd5b602085015b8381101561316d57805161315f81612ccd565b83526020928301920161314c565b5095945050505050565b5f5f60408385031215613188575f5ffd5b82516001600160401b0381111561319d575f5ffd5b6131a985828601613104565b602085015190935090506001600160401b038111156131c6575f5ffd5b8301601f810185136131d6575f5ffd5b80516131e4613121826130e2565b8082825260208201915060208360051b850101925087831115613205575f5ffd5b6020840193505b8284101561322757835182526020938401939091019061320c565b809450505050509250929050565b6001815b60018411156132705780850481111561325457613254612fa6565b600184161561326257908102905b60019390931c928002613239565b935093915050565b5f826132865750600161286a565b8161329257505f61286a565b81600181146132a857600281146132b2576132ce565b600191505061286a565b60ff8411156132c3576132c3612fa6565b50506001821b61286a565b5060208310610133831016604e8410600b84101617156132f1575081810a61286a565b6132fd5f198484613235565b805f190482111561331057613310612fa6565b029392505050565b5f61286760ff841683613278565b83815260208101839052606081016004831061334457613344612c9f565b826040830152949350505050565b5f5f60408385031215613363575f5ffd5b82516001600160401b03811115613378575f5ffd5b61338485828601613104565b602085015190935090506001600160401b038111156133a1575f5ffd5b8301601f810185136133b1575f5ffd5b80516133bf613121826130e2565b8082825260208201915060208360051b8501019250878311156133e0575f5ffd5b6020840193505b828410156132275783516133fa81612f47565b8252602093840193909101906133e7565b604080825283519082018190525f9060208501906060840190835b8181101561345957835180516001600160a01b031684526020908101518185015290930192604090920191600101613426565b5050602093909301939093525092915050565b634e487b7160e01b5f52601260045260245ffd5b60ff828116828216039081111561286a5761286a612fa6565b808202811582820484141761286a5761286a612fa6565b5f826134ca57634e487b7160e01b5f52601260045260245ffd5b500490565b6020810160028310612cc757612cc7612c9f565b5f602082840312156134f3575f5ffd5b81516001600160401b03811115613508575f5ffd5b61351484828501613104565b94935050505056fea2646970667358221220591d8478f84d338d66df2cbe7ff1f7f4bcb999020ffecf7b93238884734c51bc64736f6c634300081c0033",
  "linkReferences": {},
  "deployedLinkReferences": {}
}