{
  "_format": "hh-sol-artifact-1",
  "contractName": "InternalStatesOrchestrator",
  "sourceName": "contracts/orchestrators/InternalStatesOrchestrator.sol",
  "abi": [
    {
      "inputs": [
        {
          "internalType": "address",
          "name": "initialOwner",
          "type": "address"
        },
        {
          "internalType": "address",
          "name": "config_",
          "type": "address"
        },
        {
          "internalType": "address",
          "name": "automationRegistry_",
          "type": "address"
        }
      ],
      "stateMutability": "nonpayable",
      "type": "constructor"
    },
    {
      "inputs": [],
      "name": "HandlesAlreadySavedForRequestID",
      "type": "error"
    },
    {
      "inputs": [],
      "name": "InsufficientAmount",
      "type": "error"
    },
    {
      "inputs": [],
      "name": "InvalidArguments",
      "type": "error"
    },
    {
      "inputs": [],
      "name": "InvalidKMSSignatures",
      "type": "error"
    },
    {
      "inputs": [],
      "name": "InvalidState",
      "type": "error"
    },
    {
      "inputs": [],
      "name": "NoHandleFoundForRequestID",
      "type": "error"
    },
    {
      "inputs": [],
      "name": "NotAuthorized",
      "type": "error"
    },
    {
      "inputs": [
        {
          "internalType": "address",
          "name": "owner",
          "type": "address"
        }
      ],
      "name": "OwnableInvalidOwner",
      "type": "error"
    },
    {
      "inputs": [
        {
          "internalType": "address",
          "name": "account",
          "type": "address"
        }
      ],
      "name": "OwnableUnauthorizedAccount",
      "type": "error"
    },
    {
      "inputs": [],
      "name": "ReentrancyGuardReentrantCall",
      "type": "error"
    },
    {
      "inputs": [],
      "name": "SystemNotIdle",
      "type": "error"
    },
    {
      "inputs": [],
      "name": "TooEarly",
      "type": "error"
    },
    {
      "inputs": [],
      "name": "ZeroAddress",
      "type": "error"
    },
    {
      "anonymous": false,
      "inputs": [
        {
          "indexed": true,
          "internalType": "address",
          "name": "newAutomationRegistry",
          "type": "address"
        }
      ],
      "name": "AutomationRegistryUpdated",
      "type": "event"
    },
    {
      "anonymous": false,
      "inputs": [
        {
          "indexed": true,
          "internalType": "uint256",
          "name": "requestID",
          "type": "uint256"
        }
      ],
      "name": "DecryptionFulfilled",
      "type": "event"
    },
    {
      "anonymous": false,
      "inputs": [
        {
          "indexed": true,
          "internalType": "uint16",
          "name": "epochCounter",
          "type": "uint16"
        }
      ],
      "name": "InternalStateProcessed",
      "type": "event"
    },
    {
      "anonymous": false,
      "inputs": [
        {
          "indexed": true,
          "internalType": "address",
          "name": "previousOwner",
          "type": "address"
        },
        {
          "indexed": true,
          "internalType": "address",
          "name": "newOwner",
          "type": "address"
        }
      ],
      "name": "OwnershipTransferred",
      "type": "event"
    },
    {
      "inputs": [],
      "name": "BASIS_POINTS_FACTOR",
      "outputs": [
        {
          "internalType": "uint16",
          "name": "",
          "type": "uint16"
        }
      ],
      "stateMutability": "view",
      "type": "function"
    },
    {
      "inputs": [],
      "name": "automationRegistry",
      "outputs": [
        {
          "internalType": "address",
          "name": "",
          "type": "address"
        }
      ],
      "stateMutability": "view",
      "type": "function"
    },
    {
      "inputs": [],
      "name": "bufferAmount",
      "outputs": [
        {
          "internalType": "uint256",
          "name": "",
          "type": "uint256"
        }
      ],
      "stateMutability": "view",
      "type": "function"
    },
    {
      "inputs": [
        {
          "internalType": "uint256",
          "name": "requestID",
          "type": "uint256"
        },
        {
          "internalType": "bytes",
          "name": "cleartexts",
          "type": "bytes"
        },
        {
          "internalType": "bytes",
          "name": "decryptionProof",
          "type": "bytes"
        }
      ],
      "name": "callbackPreProcessDecrypt",
      "outputs": [],
      "stateMutability": "nonpayable",
      "type": "function"
    },
    {
      "inputs": [
        {
          "internalType": "bytes",
          "name": "",
          "type": "bytes"
        }
      ],
      "name": "checkUpkeep",
      "outputs": [
        {
          "internalType": "bool",
          "name": "upkeepNeeded",
          "type": "bool"
        },
        {
          "internalType": "bytes",
          "name": "performData",
          "type": "bytes"
        }
      ],
      "stateMutability": "view",
      "type": "function"
    },
    {
      "inputs": [],
      "name": "config",
      "outputs": [
        {
          "internalType": "contract IOrionConfig",
          "name": "",
          "type": "address"
        }
      ],
      "stateMutability": "view",
      "type": "function"
    },
    {
      "inputs": [],
      "name": "currentMinibatchIndex",
      "outputs": [
        {
          "internalType": "uint8",
          "name": "",
          "type": "uint8"
        }
      ],
      "stateMutability": "view",
      "type": "function"
    },
    {
      "inputs": [],
      "name": "currentPhase",
      "outputs": [
        {
          "internalType": "enum IInternalStateOrchestrator.InternalUpkeepPhase",
          "name": "",
          "type": "uint8"
        }
      ],
      "stateMutability": "view",
      "type": "function"
    },
    {
      "inputs": [],
      "name": "encryptedMinibatchSize",
      "outputs": [
        {
          "internalType": "uint8",
          "name": "",
          "type": "uint8"
        }
      ],
      "stateMutability": "view",
      "type": "function"
    },
    {
      "inputs": [
        {
          "internalType": "uint256",
          "name": "",
          "type": "uint256"
        }
      ],
      "name": "encryptedVaultsEpoch",
      "outputs": [
        {
          "internalType": "address",
          "name": "",
          "type": "address"
        }
      ],
      "stateMutability": "view",
      "type": "function"
    },
    {
      "inputs": [],
      "name": "epochCounter",
      "outputs": [
        {
          "internalType": "uint16",
          "name": "",
          "type": "uint16"
        }
      ],
      "stateMutability": "view",
      "type": "function"
    },
    {
      "inputs": [],
      "name": "epochDuration",
      "outputs": [
        {
          "internalType": "uint32",
          "name": "",
          "type": "uint32"
        }
      ],
      "stateMutability": "view",
      "type": "function"
    },
    {
      "inputs": [],
      "name": "getOrders",
      "outputs": [
        {
          "internalType": "address[]",
          "name": "sellingTokens",
          "type": "address[]"
        },
        {
          "internalType": "uint256[]",
          "name": "sellingAmounts",
          "type": "uint256[]"
        },
        {
          "internalType": "address[]",
          "name": "buyingTokens",
          "type": "address[]"
        },
        {
          "internalType": "uint256[]",
          "name": "buyingAmounts",
          "type": "uint256[]"
        },
        {
          "internalType": "uint256[]",
          "name": "sellingEstimatedUnderlyingAmounts",
          "type": "uint256[]"
        },
        {
          "internalType": "uint256[]",
          "name": "buyingEstimatedUnderlyingAmounts",
          "type": "uint256[]"
        }
      ],
      "stateMutability": "view",
      "type": "function"
    },
    {
      "inputs": [
        {
          "internalType": "address",
          "name": "token",
          "type": "address"
        }
      ],
      "name": "getPriceOf",
      "outputs": [
        {
          "internalType": "uint256",
          "name": "price",
          "type": "uint256"
        }
      ],
      "stateMutability": "view",
      "type": "function"
    },
    {
      "inputs": [],
      "name": "intentFactor",
      "outputs": [
        {
          "internalType": "uint256",
          "name": "",
          "type": "uint256"
        }
      ],
      "stateMutability": "view",
      "type": "function"
    },
    {
      "inputs": [],
      "name": "liquidityOrchestrator",
      "outputs": [
        {
          "internalType": "contract ILiquidityOrchestrator",
          "name": "",
          "type": "address"
        }
      ],
      "stateMutability": "view",
      "type": "function"
    },
    {
      "inputs": [],
      "name": "owner",
      "outputs": [
        {
          "internalType": "address",
          "name": "",
          "type": "address"
        }
      ],
      "stateMutability": "view",
      "type": "function"
    },
    {
      "inputs": [],
      "name": "pendingProtocolFees",
      "outputs": [
        {
          "internalType": "uint256",
          "name": "",
          "type": "uint256"
        }
      ],
      "stateMutability": "view",
      "type": "function"
    },
    {
      "inputs": [
        {
          "internalType": "bytes",
          "name": "performData",
          "type": "bytes"
        }
      ],
      "name": "performUpkeep",
      "outputs": [],
      "stateMutability": "nonpayable",
      "type": "function"
    },
    {
      "inputs": [],
      "name": "priceAdapterPrecision",
      "outputs": [
        {
          "internalType": "uint256",
          "name": "",
          "type": "uint256"
        }
      ],
      "stateMutability": "view",
      "type": "function"
    },
    {
      "inputs": [],
      "name": "protocolId",
      "outputs": [
        {
          "internalType": "uint256",
          "name": "",
          "type": "uint256"
        }
      ],
      "stateMutability": "pure",
      "type": "function"
    },
    {
      "inputs": [],
      "name": "registry",
      "outputs": [
        {
          "internalType": "contract IPriceAdapterRegistry",
          "name": "",
          "type": "address"
        }
      ],
      "stateMutability": "view",
      "type": "function"
    },
    {
      "inputs": [],
      "name": "renounceOwnership",
      "outputs": [],
      "stateMutability": "nonpayable",
      "type": "function"
    },
    {
      "inputs": [],
      "name": "rsFeeCoefficient",
      "outputs": [
        {
          "internalType": "uint16",
          "name": "",
          "type": "uint16"
        }
      ],
      "stateMutability": "view",
      "type": "function"
    },
    {
      "inputs": [
        {
          "internalType": "uint256",
          "name": "amount",
          "type": "uint256"
        }
      ],
      "name": "subtractPendingProtocolFees",
      "outputs": [],
      "stateMutability": "nonpayable",
      "type": "function"
    },
    {
      "inputs": [
        {
          "internalType": "address",
          "name": "newOwner",
          "type": "address"
        }
      ],
      "name": "transferOwnership",
      "outputs": [],
      "stateMutability": "nonpayable",
      "type": "function"
    },
    {
      "inputs": [],
      "name": "transparentMinibatchSize",
      "outputs": [
        {
          "internalType": "uint8",
          "name": "",
          "type": "uint8"
        }
      ],
      "stateMutability": "view",
      "type": "function"
    },
    {
      "inputs": [
        {
          "internalType": "uint256",
          "name": "",
          "type": "uint256"
        }
      ],
      "name": "transparentVaultsEpoch",
      "outputs": [
        {
          "internalType": "address",
          "name": "",
          "type": "address"
        }
      ],
      "stateMutability": "view",
      "type": "function"
    },
    {
      "inputs": [],
      "name": "underlyingAsset",
      "outputs": [
        {
          "internalType": "address",
          "name": "",
          "type": "address"
        }
      ],
      "stateMutability": "view",
      "type": "function"
    },
    {
      "inputs": [],
      "name": "underlyingDecimals",
      "outputs": [
        {
          "internalType": "uint8",
          "name": "",
          "type": "uint8"
        }
      ],
      "stateMutability": "view",
      "type": "function"
    },
    {
      "inputs": [
        {
          "internalType": "address",
          "name": "newAutomationRegistry",
          "type": "address"
        }
      ],
      "name": "updateAutomationRegistry",
      "outputs": [],
      "stateMutability": "nonpayable",
      "type": "function"
    },
    {
      "inputs": [
        {
          "internalType": "uint32",
          "name": "newEpochDuration",
          "type": "uint32"
        }
      ],
      "name": "updateEpochDuration",
      "outputs": [],
      "stateMutability": "nonpayable",
      "type": "function"
    },
    {
      "inputs": [
        {
          "internalType": "uint8",
          "name": "_transparentMinibatchSize",
          "type": "uint8"
        },
        {
          "internalType": "uint8",
          "name": "_encryptedMinibatchSize",
          "type": "uint8"
        }
      ],
      "name": "updateMinibatchSizes",
      "outputs": [],
      "stateMutability": "nonpayable",
      "type": "function"
    },
    {
      "inputs": [
        {
          "internalType": "uint16",
          "name": "_vFeeCoefficient",
          "type": "uint16"
        },
        {
          "internalType": "uint16",
          "name": "_rsFeeCoefficient",
          "type": "uint16"
        }
      ],
      "name": "updateProtocolFees",
      "outputs": [],
      "stateMutability": "nonpayable",
      "type": "function"
    },
    {
      "inputs": [],
      "name": "vFeeCoefficient",
      "outputs": [
        {
          "internalType": "uint16",
          "name": "",
          "type": "uint16"
        }
      ],
      "stateMutability": "view",
      "type": "function"
    },
    {
      "inputs": [],
      "name": "validEncryptedVaultsCount",
      "outputs": [
        {
          "internalType": "uint16",
          "name": "",
          "type": "uint16"
        }
      ],
      "stateMutability": "view",
      "type": "function"
    }
  ],
  "bytecode": "0x608060405234801561000f575f5ffd5b5060405161510a38038061510a83398101604081905261002e91610771565b826100d26100cd604080516080810182525f80825260208201819052918101829052606081019190915250604080516080810182527350157cffd6bbfa2dece204a89ec419c23ef5755d815273cd3ab3bd6bcc0c0bf3e27912a92043e817b1cf69602082015273a02cda4ca3a71d7c46997716f4283aa851c2881291810191909152731364cbbf2cdf5032c47d8226a6f6fbd2afcdacac606082015290565b610509565b6001600160a01b0381166100ff57604051631e4fbdf760e01b81525f600482015260240160405180910390fd5b610108816105c2565b50600180556001600160a01b0382166101345760405163d92e233d60e01b815260040160405180910390fd5b6001600160a01b03811661015b5760405163d92e233d60e01b815260040160405180910390fd5b600380546001600160a01b0319166001600160a01b0384169081179091556040805163015df99360e01b8152905163015df993916004808201926020929091908290030181865afa1580156101b2573d5f5f3e3d5ffd5b505050506040513d601f19601f820116820180604052508101906101d691906107bb565b600580546001600160a01b0319166001600160a01b039283161790556003546040805163d1717c7d60e01b81529051919092169163d1717c7d9160048083019260209291908290030181865afa158015610232573d5f5f3e3d5ffd5b505050506040513d601f19601f8201168201806040525081019061025691906107dd565b61026190600a6108f4565b60075560035460408051631c56369f60e21b815290516001600160a01b0390921691637158da7c916004808201926020929091908290030181865afa1580156102ac573d5f5f3e3d5ffd5b505050506040513d601f19601f820116820180604052508101906102d091906107bb565b600880546001600160a01b0319166001600160a01b03928316908117909155600354604051633c2e3e7b60e11b815260048101929092529091169063785c7cf690602401602060405180830381865afa15801561032f573d5f5f3e3d5ffd5b505050506040513d601f19601f8201168201806040525081019061035391906107dd565b600860146101000a81548160ff021916908360ff16021790555060035f9054906101000a90046001600160a01b03166001600160a01b031663567ba7136040518163ffffffff1660e01b8152600401602060405180830381865afa1580156103bd573d5f5f3e3d5ffd5b505050506040513d601f19601f820116820180604052508101906103e191906107dd565b6103ec90600a6108f4565b6006556017805463ffff000019166301010000179055600280546001600160a01b0319166001600160a01b038381169190911790915560035460408051631d06d6c760e11b815290519190921691633a0dad8e9160048281019260209291908290030181865afa158015610462573d5f5f3e3d5ffd5b505050506040513d601f19601f8201168201806040525081019061048691906107bb565b600480546001600160a01b03929092166001600160a01b03199092169190911790556015805463ffffffff1916620151801790556104c342610611565b6016556017805465ffff0000ffff191690556104de5f61062c565b60188190556104ec90610641565b50506008805463ffffffff60a81b1916905550505f601c5561095c565b80515f5160206150ea5f395f51905f5280546001600160a01b03199081166001600160a01b039384161790915560208301515f5160206150ca5f395f51905f528054831691841691909117905560408301517f9e7b61f58c47dc699ac88507c4f5bb9f121c03808c5676a8078fe583e46497028054831691841691909117905560608301517f9e7b61f58c47dc699ac88507c4f5bb9f121c03808c5676a8078fe583e46497038054909216921691909117905550565b50565b5f80546001600160a01b038381166001600160a01b0319831681178455604051919092169283917f8be0079c531659141344cd1fd0a4f28419497f9722a3daafe3b4186f6b6457e09190a35050565b6015545f906106269063ffffffff1683610902565b92915050565b5f6106266001600160801b0383166006610650565b5f61064c82306106e7565b5090565b5f5160206150ca5f395f51905f5254604051639cd07acb60e01b81525f915f5160206150ea5f395f51905f52916001600160a01b0390911690639cd07acb9061069f9087908790600401610915565b6020604051808303815f875af11580156106bb573d5f5f3e3d5ffd5b505050506040513d601f19601f820116820180604052508101906106df9190610945565b949350505050565b5f5f5160206150ea5f395f51905f528054604051635ca4b5b160e11b8152600481018690526001600160a01b03858116602483015292935091169063b9496b62906044015f604051808303815f87803b158015610742575f5ffd5b505af1158015610754573d5f5f3e3d5ffd5b50505050505050565b6001600160a01b03811681146105bf575f5ffd5b5f5f5f60608486031215610783575f5ffd5b835161078e8161075d565b602085015190935061079f8161075d565b60408501519092506107b08161075d565b809150509250925092565b5f602082840312156107cb575f5ffd5b81516107d68161075d565b9392505050565b5f602082840312156107ed575f5ffd5b815160ff811681146107d6575f5ffd5b634e487b7160e01b5f52601160045260245ffd5b6001815b600184111561084c57808504811115610830576108306107fd565b600184161561083e57908102905b60019390931c928002610815565b935093915050565b5f8261086257506001610626565b8161086e57505f610626565b8160018114610884576002811461088e576108aa565b6001915050610626565b60ff84111561089f5761089f6107fd565b50506001821b610626565b5060208310610133831016604e8410600b84101617156108cd575081810a610626565b6108d95f198484610811565b805f19048211156108ec576108ec6107fd565b029392505050565b5f6107d660ff841683610854565b80820180821115610626576106266107fd565b828152604081016054831061093857634e487b7160e01b5f52602160045260245ffd5b8260208301529392505050565b5f60208284031215610955575f5ffd5b5051919050565b614761806109695f395ff3fe608060405234801561000f575f5ffd5b50600436106101a9575f3560e01c8062bb07bb146101ad578063055ad42e146101c25780630844697d146101ec57806308af604d1461021457806314b19c5a1461023957806314b5d07f1461024757806325a760c21461025a578063289a2f761461026e5780632b0088b41461028e5780632e2dc43e146102a557806336021ef4146102bf5780633a0dad8e146102d35780634585e33b146102e65780634ff0876a146102f95780635488cd621461031e57806358fac65b146103325780635dc228a0146103455780636e04ff0d146103585780637060444514610379578063715018a61461038c5780637158da7c1461039457806379502c55146103a75780637b103999146103ba5780637cdabf0a146103cd578063800f9fad146103e05780638da5cb5b146103e95780638f5c9465146103f1578063b8b2af7c146103fa578063ba96ff111461040f578063be2683f014610437578063c18e2a5c1461044a578063ca1f32f114610453578063d3f89f661461045c578063da1f12ab1461046a578063eeb393c914610472578063f2fde38b14610485575b5f5ffd5b6101c06101bb366004613cda565b610498565b005b6017546101d690600160201b900460ff1681565b6040516101e39190613d25565b60405180910390f35b60085461020190600160b81b900461ffff1681565b60405161ffff90911681526020016101e3565b6017546102279062010000900460ff1681565b60405160ff90911681526020016101e3565b6017546102019061ffff1681565b6101c0610255366004613d53565b610592565b60085461022790600160a01b900460ff1681565b61028161027c366004613d6e565b61069b565b6040516101e39190613d85565b61029760075481565b6040519081526020016101e3565b6102ad6106c3565b6040516101e396959493929190613e0c565b601754610227906301000000900460ff1681565b600454610281906001600160a01b031681565b6101c06102f4366004613eca565b610904565b6015546103099063ffffffff1681565b60405163ffffffff90911681526020016101e3565b60175461022790600160281b900460ff1681565b610281610340366004613d6e565b610a82565b600254610281906001600160a01b031681565b61036b610366366004613eca565b610a91565b6040516101e3929190613f36565b6101c0610387366004613d6e565b610e41565b6101c0610ea8565b600854610281906001600160a01b031681565b600354610281906001600160a01b031681565b600554610281906001600160a01b031681565b6101c06103db366004613f66565b610ebb565b61029760095481565b610281610fc2565b61020161271081565b60085461020190600160a81b900461ffff1681565b61029761041d366004613d53565b6001600160a01b03165f908152600a602052604090205490565b6101c0610445366004613f97565b610fd0565b610297601c5481565b61029760065481565b601b546102019061ffff1681565b612711610297565b6101c061048036600461401f565b6110d6565b6101c0610493366004613d53565b6111b1565b6104a06111f7565b60ff821615806104b1575060ff8116155b156104cf576040516317dbc4cb60e21b815260040160405180910390fd5b60035f9054906101000a90046001600160a01b03166001600160a01b031663edcf9c1f6040518163ffffffff1660e01b8152600401602060405180830381865afa15801561051f573d5f5f3e3d5ffd5b505050506040513d601f19601f82011682018060405250810190610543919061403a565b610560576040516312aecd8160e01b815260040160405180910390fd5b6017805463ffff000019166201000060ff9485160263ff00000019161763010000009290931691909102919091179055565b61059a6111f7565b6001600160a01b0381166105c15760405163d92e233d60e01b815260040160405180910390fd5b60035f9054906101000a90046001600160a01b03166001600160a01b031663edcf9c1f6040518163ffffffff1660e01b8152600401602060405180830381865afa158015610611573d5f5f3e3d5ffd5b505050506040513d601f19601f82011682018060405250810190610635919061403a565b610652576040516312aecd8160e01b815260040160405180910390fd5b600280546001600160a01b0319166001600160a01b0383169081179091556040517f6cc7ebdb6c8c53291c5ae16148cab9b049d23bf5bde5632900b40edff56fcb43905f90a250565b601a81815481106106aa575f80fd5b5f918252602090912001546001600160a01b0316905081565b6060806060806060805f600a60090180548060200260200160405190810160405280929190818152602001828054801561072457602002820191905f5260205f20905b81546001600160a01b03168152600190910190602001808311610706575b505050505090505f5f61073683611229565b915091508161ffff166001600160401b0381111561075657610756614059565b60405190808252806020026020018201604052801561077f578160200160208202803683370190505b5098508161ffff166001600160401b0381111561079e5761079e614059565b6040519080825280602002602001820160405280156107c7578160200160208202803683370190505b5097508061ffff166001600160401b038111156107e6576107e6614059565b60405190808252806020026020018201604052801561080f578160200160208202803683370190505b5096508061ffff166001600160401b0381111561082e5761082e614059565b604051908082528060200260200182016040528015610857578160200160208202803683370190505b5095508161ffff166001600160401b0381111561087657610876614059565b60405190808252806020026020018201604052801561089f578160200160208202803683370190505b5094508061ffff166001600160401b038111156108be576108be614059565b6040519080825280602002602001820160405280156108e7578160200160208202803683370190505b5093506108f9838a8a888b8b8a6112ca565b505050909192939495565b6002546001600160a01b0316331461092f5760405163ea8e4eb560e01b815260040160405180910390fd5b6109376114ad565b6005811015610959576040516317dbc4cb60e21b815260040160405180910390fd5b5f806109678385018561406d565b90925090506341659aab60e01b6001600160e01b03198316016109915761098c6114d7565b610a73565b636ce38ed360e11b6001600160e01b03198316016109b25761098c81611788565b635954faa160e01b6001600160e01b03198316016109d35761098c81611e0f565b63dbd33d3560e01b6001600160e01b03198316016109f35761098c612486565b6292a80f60e51b6001600160e01b0319831601610a125761098c6128ec565b6265e66b60e01b6001600160e01b0319831601610a325761098c81612c02565b63f4d3cc0960e01b6001600160e01b0319831601610a535761098c81613021565b63c4b3cef760e01b6001600160e01b0319831601610a7357610a7361310c565b5050610a7e60018055565b5050565b601981815481106106aa575f80fd5b5f606060035f9054906101000a90046001600160a01b03166001600160a01b031663edcf9c1f6040518163ffffffff1660e01b8152600401602060405180830381865afa158015610ae4573d5f5f3e3d5ffd5b505050506040513d601f19601f82011682018060405250810190610b08919061403a565b8015610b15575060165442115b15610b6757600191507fbe9a655586dceb82dfa0af992b5d8ae7fa45053cb7fd6f141f541da7572978c75f604051602001610b51929190614095565b6040516020818303038152906040529050610e3a565b6001601754600160201b900460ff166007811115610b8757610b87613d11565b03610bd257600191507f2638e25a856cbfe28e0ae1857cb597cc2ceb873ce579b7d93c2258e45a754481601760059054906101000a900460ff16604051602001610b51929190614095565b6002601754600160201b900460ff166007811115610bf257610bf2613d11565b03610c3d57600191507fa6ab055f7fc0612ad6e844f7e1dd3a6df793560cd68d707affa0dd01c39ec8f1601760059054906101000a900460ff16604051602001610b51929190614095565b6003601754600160201b900460ff166007811115610c5d57610c5d613d11565b03610c9957600191507f242cc2cba236b9c457bb86deb0ad1fb8fe60d5bcafd69d02041c9c62f3ea1fbd5f604051602001610b51929190614095565b6004601754600160201b900460ff166007811115610cb957610cb9613d11565b03610cf557600191507fedaafe206508e00f40674bb87dda745bccfe8a3f3f6d6eaaf6db5f44021a1c135f604051602001610b51929190614095565b6005601754600160201b900460ff166007811115610d1557610d15613d11565b03610d6057600191507fff9a199536c068c55c334e40ebfa355733f79152332d6586d615c5bb37fd5c17601760059054906101000a900460ff16604051602001610b51929190614095565b6006601754600160201b900460ff166007811115610d8057610d80613d11565b03610dcb57600191507f0b2c33f7f9ce5cba78feb12c50c7fc97cbcfb655f151982783c0f2faf7567b0b601760059054906101000a900460ff16604051602001610b51929190614095565b6007601754600160201b900460ff166007811115610deb57610deb613d11565b03610e2757600191507f3b4c310984a9fe486c05a56b52659c09d4bf9f3ef9b799ad52ee29a7d805741e5f604051602001610b51929190614095565b505060408051602081019091525f808252905b9250929050565b6004546001600160a01b03163314610e6c5760405163ea8e4eb560e01b815260040160405180910390fd5b600954811115610e8f57604051632ca2f52b60e11b815260040160405180910390fd5b8060095f828254610ea091906140c6565b909155505050565b610eb06111f7565b610eb95f6132d8565b565b610ec36111f7565b60648261ffff161180610edb57506107d08161ffff16115b15610ef9576040516317dbc4cb60e21b815260040160405180910390fd5b60035f9054906101000a90046001600160a01b03166001600160a01b031663edcf9c1f6040518163ffffffff1660e01b8152600401602060405180830381865afa158015610f49573d5f5f3e3d5ffd5b505050506040513d601f19601f82011682018060405250810190610f6d919061403a565b610f8a576040516312aecd8160e01b815260040160405180910390fd5b6008805463ffffffff60a81b1916600160a81b61ffff9485160261ffff60b81b191617600160b81b9290931691909102919091179055565b5f546001600160a01b031690565b6110428585858080601f0160208091040260200160405190810160405280939291908181526020018383808284375f9201919091525050604080516020601f890181900481028201810190925287815292508791508690819084018382808284375f9201919091525061332792505050565b604080515f6020820152016040516020818303038152906040528051906020012084846040516110739291906140d9565b604051809103902003611099576017805461ffff60201b1916600160221b1790556110cf565b6110a58385018561413a565b80516110b991601d91602090910190613c05565b506017805461ffff60201b1916600360201b1790555b5050505050565b6110de6111f7565b8063ffffffff165f03611104576040516317dbc4cb60e21b815260040160405180910390fd5b60035f9054906101000a90046001600160a01b03166001600160a01b031663edcf9c1f6040518163ffffffff1660e01b8152600401602060405180830381865afa158015611154573d5f5f3e3d5ffd5b505050506040513d601f19601f82011682018060405250810190611178919061403a565b611195576040516312aecd8160e01b815260040160405180910390fd5b6015805463ffffffff191663ffffffff92909216919091179055565b6111b96111f7565b6001600160a01b0381166111eb575f604051631e4fbdf760e01b81526004016111e29190613d85565b60405180910390fd5b6111f4816132d8565b50565b33611200610fc2565b6001600160a01b031614610eb9573360405163118cdaa760e01b81526004016111e29190613d85565b80515f908190815b8161ffff168161ffff1610156112c3575f858261ffff1681518110611258576112586141c5565b6020908102919091018101516001600160a01b0381165f9081526011909252604090912054909150156112915761128e856141d9565b94505b6001600160a01b0381165f90815260126020526040902054156112ba576112b7846141d9565b93505b50600101611231565b5050915091565b86515f80805b8361ffff168161ffff1610156114a0575f8b8261ffff16815181106112f7576112f76141c5565b6020908102919091018101516001600160a01b0381165f90815260118352604080822054601290945290205490925081156113dc57828d8761ffff1681518110611343576113436141c5565b60200260200101906001600160a01b031690816001600160a01b031681525050818c8761ffff168151811061137a5761137a6141c5565b6020908102919091018101919091526001600160a01b0384165f908152600a90915260409020546006546113af918491613390565b8b8761ffff16815181106113c5576113c56141c5565b60209081029190910101526113d9866141d9565b95505b801561149257828a8661ffff16815181106113f9576113f96141c5565b60200260200101906001600160a01b031690816001600160a01b03168152505080898661ffff1681518110611430576114306141c5565b6020908102919091018101919091526001600160a01b0384165f908152600a9091526040902054600654611465918391613390565b888661ffff168151811061147b5761147b6141c5565b602090810291909101015261148f856141d9565b94505b5050508060010190506112d0565b5050505050505050505050565b6002600154036114d057604051633ee5aeb560e01b815260040160405180910390fd5b6002600155565b60165442111580611559575060035f9054906101000a90046001600160a01b03166001600160a01b031663edcf9c1f6040518163ffffffff1660e01b8152600401602060405180830381865afa158015611533573d5f5f3e3d5ffd5b505050506040513d601f19601f82011682018060405250810190611557919061403a565b155b156115775760405163085de62560e01b815260040160405180910390fd5b61158042613441565b6016555f5b60135461ffff82161015611644575f600a6009018261ffff16815481106115ae576115ae6141c5565b5f9182526020808320909101546001600160a01b03168252600a81526040808320839055600b8252808320839055600d8252808320839055600f8252808320839055601182528083208390556012825280832083905560148252808320805460ff19169055601854600c8352818420819055600e83528184208190556010909252909120555061163d816141d9565b9050611585565b5061165060135f613c4a565b61165b601d5f613c4a565b600354604051631da09e4360e31b81526001600160a01b039091169063ed04f2189061168b905f906004016141f9565b5f60405180830381865afa1580156116a5573d5f5f3e3d5ffd5b505050506040513d5f823e601f3d908101601f191682016040526116cc919081019061427b565b80516116e091601991602090910190613c65565b50600354604051631da09e4360e31b81526001600160a01b039091169063ed04f21890611712906001906004016141f9565b5f60405180830381865afa15801561172c573d5f5f3e3d5ffd5b505050506040513d5f823e601f3d908101601f19168201604052611753919081019061427b565b805161176791601a91602090910190613c65565b50601b805461ffff191690556017805460ff60201b1916600160201b179055565b6001601754600160201b900460ff1660078111156117a8576117a8613d11565b146117c65760405163baf3f0f760e01b815260040160405180910390fd5b601780546005906117e090600160281b900460ff166142ac565b91906101000a81548160ff021916908360ff1602179055505f601760029054906101000a900460ff168261181491906142c1565b60175460ff91821692505f916118319162010000900416836142e4565b60195490915061ffff8216118061184d575060195461ffff8216145b1561186b57506019546017805461ffff60201b1916600160211b1790555b815b8161ffff168161ffff161015611e09575f60198261ffff1681548110611895576118956141c5565b905f5260205f20015f9054906101000a90046001600160a01b031690505f5f826001600160a01b031663d3d034586040518163ffffffff1660e01b81526004015f60405180830381865afa1580156118ef573d5f5f3e3d5ffd5b505050506040513d5f823e601f3d908101601f1916820160405261191691908101906142fe565b90925090505f805b83518161ffff161015611b75575f848261ffff1681518110611942576119426141c5565b602002602001015190505f848361ffff1681518110611963576119636141c5565b6020026020010151905080600a6001015f846001600160a01b03166001600160a01b031681526020019081526020015f205f8282546119a291906143bc565b90915550506001600160a01b0382165f9081526014602052604090205460ff16611a99576008546001600160a01b0390811690831603611a11576008546119f490600160a01b900460ff16600a6144b2565b6001600160a01b0383165f908152600a6020526040902055611a99565b6005546040516341976e0960e01b81526001600160a01b03909116906341976e0990611a41908590600401613d85565b602060405180830381865afa158015611a5c573d5f5f3e3d5ffd5b505050506040513d601f19601f82011682018060405250810190611a8091906144c0565b6001600160a01b0383165f908152600a60205260409020555b6001600160a01b0382165f908152600a6020526040812054600654909190611b4990611ac89084908690613390565b600354604051633c2e3e7b60e11b81526001600160a01b039091169063785c7cf690611af8908990600401613d85565b602060405180830381865afa158015611b13573d5f5f3e3d5ffd5b505050506040513d601f19601f82011682018060405250810190611b3791906144d7565b600854600160a01b900460ff1661345c565b9050611b5581876143bc565b9550611b60846134c6565b5050505080611b6e906141d9565b905061191e565b506008545f90611b9390600160a81b900461ffff1683612710613390565b601554909150611bb490829063ffffffff908116906301e133809061339016565b90508060095f828254611bc791906143bc565b90915550611bd7905081836140c6565b60405163728d42fb60e11b8152600481018290529092505f906001600160a01b0387169063e51a85f690602401602060405180830381865afa158015611c1f573d5f5f3e3d5ffd5b505050506040513d601f19601f82011682018060405250810190611c4391906144c0565b9050611c4f81846140c6565b6008549093505f90611c6f90600160b81b900461ffff1683612710613390565b90508060095f828254611c8291906143bc565b90915550611c92905081836140c6565b91505f876001600160a01b031663a68a5267896001600160a01b0316630a605c6d6040518163ffffffff1660e01b8152600401602060405180830381865afa158015611ce0573d5f5f3e3d5ffd5b505050506040513d601f19601f82011682018060405250810190611d0491906144c0565b875f6040518463ffffffff1660e01b8152600401611d24939291906144f2565b602060405180830381865afa158015611d3f573d5f5f3e3d5ffd5b505050506040513d601f19601f82011682018060405250810190611d6391906144c0565b905080886001600160a01b031663f64c6f326040518163ffffffff1660e01b8152600401602060405180830381865afa158015611da2573d5f5f3e3d5ffd5b505050506040513d601f19601f82011682018060405250810190611dc691906144c0565b611dd091906140c6565b611dda90866143bc565b6001600160a01b039098165f908152600d602052604090209790975550506001909501945061186d9350505050565b50505050565b6002601754600160201b900460ff166007811115611e2f57611e2f613d11565b14611e4d5760405163baf3f0f760e01b815260040160405180910390fd5b60178054600590611e6790600160281b900460ff166142ac565b82546101009290920a60ff818102199093169183160217909155601a5460175490915f91611e9e91630100000090910416846142c1565b60175460ff91821692505f91611ebc916301000000900416836142e4565b90508261ffff168161ffff161180611edb57508261ffff168161ffff16145b15611ee35750815b815b8161ffff168161ffff1610156122b8575f601a8261ffff1681548110611f0d57611f0d6141c5565b5f918252602091829020015460408051631b9d6fc560e31b815290516001600160a01b039092169350839263dceb7e28926004808401938290030181865afa158015611f5b573d5f5f3e3d5ffd5b505050506040513d601f19601f82011682018060405250810190611f7f919061403a565b611f8957506122b0565b601b80545f90611f9c9061ffff166141d9565b91906101000a81548161ffff021916908361ffff1602179055505f5f826001600160a01b031663d3d034586040518163ffffffff1660e01b81526004015f60405180830381865afa158015611ff3573d5f5f3e3d5ffd5b505050506040513d5f823e601f3d908101601f1916820160405261201a91908101906142fe565b60185491935091505f5b83518161ffff161015612290575f848261ffff1681518110612048576120486141c5565b602002602001015190505f848361ffff1681518110612069576120696141c5565b602002602001015190506120a3600a6002015f846001600160a01b03166001600160a01b031681526020019081526020015f20548261354b565b6001600160a01b0383165f908152600c602090815260408083209390935560149052205460ff166121a1576008546001600160a01b0390811690831603612119576008546120fc90600160a01b900460ff16600a6144b2565b6001600160a01b0383165f908152600a60205260409020556121a1565b6005546040516341976e0960e01b81526001600160a01b03909116906341976e0990612149908590600401613d85565b602060405180830381865afa158015612164573d5f5f3e3d5ffd5b505050506040513d601f19601f8201168201806040525081019061218891906144c0565b6001600160a01b0383165f908152600a60205260409020555b6001600160a01b0382165f908152600a6020526040812054906121d76121cf6121c984613579565b8561358e565b6006546135bc565b600354604051633c2e3e7b60e11b81529192505f916122639184916001600160a01b039091169063785c7cf690612212908a90600401613d85565b602060405180830381865afa15801561222d573d5f5f3e3d5ffd5b505050506040513d601f19601f8201168201806040525081019061225191906144d7565b600854600160a01b900460ff166135e1565b905061226f878261354b565b965061227a856134c6565b505050505080612289906141d9565b9050612024565b506001600160a01b039093165f908152600e602052604090209290925550505b600101611ee5565b508261ffff168161ffff1603611e095761ffff811615806122dd5750601b5461ffff16155b156122fb576017805461ffff60201b1916600160221b179055611e09565b6013545f61230982866142e4565b61ffff166001600160401b0381111561232457612324614059565b60405190808252806020026020018201604052801561234d578160200160208202803683370190505b5090505f5b8561ffff168161ffff1610156123d7575f601a8261ffff168154811061237a5761237a6141c5565b5f9182526020808320909101546001600160a01b0316808352600e9091526040909120549091506123aa81613642565b5080848461ffff16815181106123c2576123c26141c5565b60209081029190910101525050600101612352565b505f5b8261ffff168161ffff16101561246b575f600a6009018261ffff1681548110612405576124056141c5565b5f9182526020808320909101546001600160a01b0316808352600c90915260409091205490915061243581613642565b508084612442858b6142e4565b61ffff1681518110612456576124566141c5565b602090810291909101015250506001016123da565b5061247d81630be2683f60e41b613651565b50505050505050565b6003601754600160201b900460ff1660078111156124a6576124a6613d11565b146124c45760405163baf3f0f760e01b815260040160405180910390fd5b601a546013545f5b8261ffff168161ffff161015612827575f601a8261ffff16815481106124f4576124f46141c5565b5f918252602091829020015460408051631b9d6fc560e31b815290516001600160a01b0390921693508392839263dceb7e289260048082019392918290030181865afa158015612546573d5f5f3e3d5ffd5b505050506040513d601f19601f8201168201806040525081019061256a919061403a565b61257557505061281f565b5f601d8461ffff168154811061258d5761258d6141c5565b5f9182526020822001546008549092506125b590600160a81b900461ffff1683612710613390565b6015549091506125d690829063ffffffff908116906301e133809061339016565b90508060095f8282546125e991906143bc565b909155506125f9905081836140c6565b60405163728d42fb60e11b8152600481018290529092505f906001600160a01b0385169063e51a85f690602401602060405180830381865afa158015612641573d5f5f3e3d5ffd5b505050506040513d601f19601f8201168201806040525081019061266591906144c0565b905061267181846140c6565b6008549093505f9061269190600160b81b900461ffff1683612710613390565b90508060095f8282546126a491906143bc565b909155506126b4905081836140c6565b91505f856001600160a01b031663a68a5267876001600160a01b0316630a605c6d6040518163ffffffff1660e01b8152600401602060405180830381865afa158015612702573d5f5f3e3d5ffd5b505050506040513d601f19601f8201168201806040525081019061272691906144c0565b875f6040518463ffffffff1660e01b8152600401612746939291906144f2565b602060405180830381865afa158015612761573d5f5f3e3d5ffd5b505050506040513d601f19601f8201168201806040525081019061278591906144c0565b905080866001600160a01b031663f64c6f326040518163ffffffff1660e01b8152600401602060405180830381865afa1580156127c4573d5f5f3e3d5ffd5b505050506040513d601f19601f820116820180604052508101906127e891906144c0565b6127f291906140c6565b6127fc90866143bc565b6001600160a01b039097165f908152600d60205260409020969096555050505050505b6001016124cc565b505f5b8161ffff168161ffff1610156128d3575f600a6009018261ffff1681548110612855576128556141c5565b5f9182526020822001546001600160a01b03169150601d61287684876142e4565b61ffff168154811061288a5761288a6141c5565b5f9182526020808320909101546001600160a01b0385168352600b909152604082208054919350839290916128c09084906143bc565b90915550506001909201915061282a9050565b50506017805461ffff60201b1916600160221b17905550565b6004601754600160201b900460ff16600781111561290c5761290c613d11565b1461292a5760405163baf3f0f760e01b815260040160405180910390fd5b6017805460ff60201b1916600560201b179055601954601a545f805b8361ffff168161ffff1610156129aa575f60198261ffff168154811061296e5761296e6141c5565b5f9182526020808320909101546001600160a01b0316808352600d90915260409091205490915061299f90846143bc565b925050600101612946565b505f5b8261ffff168161ffff161015612a11575f601a8261ffff16815481106129d5576129d56141c5565b5f9182526020808320909101546001600160a01b0316808352600d909152604090912054909150612a0690846143bc565b9250506001016129ad565b50600480546040805163dab26e3b60e01b815290515f93612a88936001600160a01b03169263dab26e3b92818301926020928290030181865afa158015612a5a573d5f5f3e3d5ffd5b505050506040513d601f19601f82011682018060405250810190612a7e91906144c0565b8390612710613390565b905080601c541115612a9a5750505050565b5f601c5482612aa991906140c6565b90505f5b8561ffff168161ffff161015612b47575f60198261ffff1681548110612ad557612ad56141c5565b5f9182526020808320909101546001600160a01b0316808352600d909152604082205490925090612b07858389613390565b6001600160a01b0384165f908152600d6020526040812080549293508392909190612b339084906140c6565b909155505060019093019250612aad915050565b505f5b8461ffff168161ffff161015612be4575f601a8261ffff1681548110612b7257612b726141c5565b5f9182526020808320909101546001600160a01b0316808352600d909152604082205490925090612ba4858389613390565b6001600160a01b0384165f908152600d6020526040812080549293508392909190612bd09084906140c6565b909155505060019093019250612b4a915050565b5080601c5f828254612bf691906143bc565b90915550505050505050565b6005601754600160201b900460ff166007811115612c2257612c22613d11565b14612c405760405163baf3f0f760e01b815260040160405180910390fd5b60178054600590612c5a90600160281b900460ff166142ac565b91906101000a81548160ff021916908360ff1602179055505f601760029054906101000a900460ff1682612c8e91906142c1565b60175460ff91821692505f91612cab9162010000900416836142e4565b60195490915061ffff82161180612cc7575060195461ffff8216145b15612ce557506019546017805461ffff60201b1916600360211b1790555b815b8161ffff168161ffff161015611e09575f60198261ffff1681548110612d0f57612d0f6141c5565b905f5260205f20015f9054906101000a90046001600160a01b031690505f5f826001600160a01b031663b6eba6536040518163ffffffff1660e01b81526004015f60405180830381865afa158015612d69573d5f5f3e3d5ffd5b505050506040513d5f823e601f3d908101601f19168201604052612d90919081019061451e565b6001600160a01b0385165f908152600d60205260408120549294509092505b83518161ffff161015613011575f848261ffff1681518110612dd357612dd36141c5565b602002602001015190505f848361ffff1681518110612df457612df46141c5565b6020908102919091018101516001600160a01b0384165f908152601490925260409091205490915060ff16612ef6576008546001600160a01b0390811690831603612e6e57600854612e5190600160a01b900460ff16600a6144b2565b6001600160a01b0383165f908152600a6020526040902055612ef6565b6005546040516341976e0960e01b81526001600160a01b03909116906341976e0990612e9e908590600401613d85565b602060405180830381865afa158015612eb9573d5f5f3e3d5ffd5b505050506040513d601f19601f82011682018060405250810190612edd91906144c0565b6001600160a01b0383165f908152600a60205260409020555b6001600160a01b0382165f908152600a6020526040812054600654600754919291612fc191612f3e918590612f37908b9063ffffffff808b16919061339016565b9190613390565b600854600354604051633c2e3e7b60e11b8152600160a01b90920460ff16916001600160a01b039091169063785c7cf690612f7d908a90600401613d85565b602060405180830381865afa158015612f98573d5f5f3e3d5ffd5b505050506040513d601f19601f82011682018060405250810190612fbc91906144d7565b61345c565b6001600160a01b0385165f908152600f6020526040812080549293508392909190612fed9084906143bc565b90915550612ffc9050846134c6565b505050508061300a906141d9565b9050612daf565b5050505050806001019050612ce7565b6006601754600160201b900460ff16600781111561304157613041613d11565b1461305f5760405163baf3f0f760e01b815260040160405180910390fd5b6017805460059061307990600160281b900460ff166142ac565b82546101009290920a60ff818102199093169183160217909155601a5460175490915f916130b091630100000090910416846142c1565b60175460ff91821692505f916130ce916301000000900416836142e4565b90508261ffff168161ffff1611806130ed57508261ffff168161ffff16145b15611e095750506017805461ffff60201b1916600760201b1790555050565b6007601754600160201b900460ff16600781111561312c5761312c613d11565b1461314a5760405163baf3f0f760e01b815260040160405180910390fd5b5f600a6009018054806020026020016040519081016040528092919081815260200182805480156131a257602002820191905f5260205f20905b81546001600160a01b03168152600190910190602001808311613184575b505083519394505f925050505b8161ffff168161ffff16101561326d575f838261ffff16815181106131d6576131d66141c5565b6020908102919091018101516001600160a01b0381165f908152600b8352604080822054600f909452902054909250808211156132345761321781836140c6565b6001600160a01b0384165f9081526011602052604090205561325f565b8181111561325f5761324682826140c6565b6001600160a01b0384165f908152601260205260409020555b5050508060010190506131af565b506017805460ff60201b19811682555f9061328b9061ffff166141d9565b82546101009290920a61ffff8181021990931691831602179091556017546040519116907f0bc12479581640d161e016cef21aa834cb6d6326bbc0d8445e58d56403adf2dc905f90a25050565b5f80546001600160a01b038381166001600160a01b0319831681178455604051919092169283917f8be0079c531659141344cd1fd0a4f28419497f9722a3daafe3b4186f6b6457e09190a35050565b5f6133318461365d565b90505f61333f8285856136f9565b90508061335f5760405163cf6c44e960e01b815260040160405180910390fd5b60405185907f1af0453083661051f6e56e5c070792320652e612154bf9af8637bb1e7655b99d905f90a25050505050565b5f5f5f61339d86866137c6565b91509150815f036133c1578381816133b7576133b76145d7565b049250505061343a565b8184116133d8576133d860038515026011186137e2565b5f848688095f868103871696879004966002600389028118808a02820302808a02820302808a02820302808a02820302808a02820302808a02909103029181900381900460010185841190960395909502919093039390930492909217029150505b9392505050565b6015545f906134569063ffffffff16836143bc565b92915050565b5f8260ff168260ff1611156134915761347583836145eb565b61348090600a6144b2565b61348a9085614604565b905061343a565b8260ff168260ff1610156134be576134a982846145eb565b6134b490600a6144b2565b61348a908561461b565b509192915050565b6001600160a01b0381165f9081526014602052604090205460ff166111f4576013805460018181019092557f66de8ffda797e3de9c05e8fc57b3bf0ec28a930d40b0d285d93c06501cf6a0900180546001600160a01b0384166001600160a01b031990911681179091555f908152601460205260409020805460ff1916909117905550565b5f8261355d5761355a5f613579565b92505b8161356e5761356b5f613579565b91505b61343a83835f6137f3565b5f613456826001600160801b03166006613893565b5f826135a05761359d5f613579565b92505b816135b1576135ae5f613579565b91505b61343a83835f61391a565b5f826135ce576135cb5f613579565b92505b61343a836001600160801b038416613970565b5f8260ff168260ff1611156136165761348a8461361161360186866145eb565b61360c90600a6144b2565b613579565b61358e565b8260ff168260ff1610156134be5761348a8461363284866145eb565b61363d90600a6144b2565b6135bc565b5f61364d82306139ff565b5090565b5f61343a83835f613a66565b60605f613668613b67565b5f848152600182016020526040812054919250036136995760405163d66ca67560e01b815260040160405180910390fd5b5f838152600182016020908152604091829020805483518184028101840190945280845290918301828280156136ec57602002820191905f5260205f20905b8154815260200190600101908083116136d8575b5050505050915050919050565b5f5f8351602061370991906143bc565b6137149060206143bc565b90505f848260405160200161372a92919061463a565b60405160208183030381529060405290505f613744613b8b565b60038101546040516378542ead60e01b81529192506001600160a01b0316906378542ead9061377b908a9086908a90600401614654565b6020604051808303815f875af1158015613797573d5f5f3e3d5ffd5b505050506040513d601f19601f820116820180604052508101906137bb919061403a565b979650505050505050565b5f805f1983850993909202808410938190039390930393915050565b634e487b715f52806020526024601cfd5b5f5f82156138065750600160f81b613809565b505f5b5f613812613b8b565b600181015460405163022f65e760e31b81529192506001600160a01b03169063117b2f38906138499089908990879060040161468c565b6020604051808303815f875af1158015613865573d5f5f3e3d5ffd5b505050506040513d601f19601f8201168201806040525081019061388991906144c0565b9695505050505050565b5f5f61389d613b8b565b6001810154604051639cd07acb60e01b81529192506001600160a01b031690639cd07acb906138d290879087906004016146ac565b6020604051808303815f875af11580156138ee573d5f5f3e3d5ffd5b505050506040513d601f19601f8201168201806040525081019061391291906144c0565b949350505050565b5f5f821561392d5750600160f81b613930565b505f5b5f613939613b8b565b6001810154604051630afe14ad60e31b81529192506001600160a01b0316906357f0a568906138499089908990879060040161468c565b5f600160f81b8161397f613b8b565b6001810154604051635a53accb60e01b81529192506001600160a01b031690635a53accb906139b69088908890879060040161468c565b6020604051808303815f875af11580156139d2573d5f5f3e3d5ffd5b505050506040513d601f19601f820116820180604052508101906139f691906144c0565b95945050505050565b5f613a08613b8b565b8054604051635ca4b5b160e11b8152600481018690526001600160a01b03858116602483015292935091169063b9496b62906044015f604051808303815f87803b158015613a54575f5ffd5b505af115801561247d573d5f5f3e3d5ffd5b5f5f613a70613b67565b8054925090505f613a7f613b8b565b8054604051637d6e912360e11b81529192506001600160a01b03169063fadd224690613aaf9089906004016146d0565b5f604051808303815f87803b158015613ac6575f5ffd5b505af1158015613ad8573d5f5f3e3d5ffd5b5050506002820154604051633263b83b60e01b81526001600160a01b039091169150633263b83b908690613b149087908b908b906004016146e2565b5f604051808303818588803b158015613b2b575f5ffd5b505af1158015613b3d573d5f5f3e3d5ffd5b5050505050613b4c8387613baf565b8154825f613b5983614713565b919050555050509392505050565b7f878245876662ba28a480c5ea71726db859fb50222b0a3d7cbbc21cfa336faf0090565b7f9e7b61f58c47dc699ac88507c4f5bb9f121c03808c5676a8078fe583e464970090565b5f613bb8613b67565b5f84815260018201602052604090205490915015613be957604051633f06d22b60e01b815260040160405180910390fd5b5f83815260018201602090815260409091208351611e09928501905b828054828255905f5260205f20908101928215613c3e579160200282015b82811115613c3e578251825591602001919060010190613c23565b5061364d929150613cb8565b5080545f8255905f5260205f20908101906111f49190613cb8565b828054828255905f5260205f20908101928215613c3e579160200282015b82811115613c3e57825182546001600160a01b0319166001600160a01b03909116178255602090920191600190910190613c83565b5b8082111561364d575f8155600101613cb9565b60ff811681146111f4575f5ffd5b5f5f60408385031215613ceb575f5ffd5b8235613cf681613ccc565b91506020830135613d0681613ccc565b809150509250929050565b634e487b7160e01b5f52602160045260245ffd5b6020810160088310613d3957613d39613d11565b91905290565b6001600160a01b03811681146111f4575f5ffd5b5f60208284031215613d63575f5ffd5b813561343a81613d3f565b5f60208284031215613d7e575f5ffd5b5035919050565b6001600160a01b0391909116815260200190565b5f8151808452602084019350602083015f5b82811015613dd25781516001600160a01b0316865260209586019590910190600101613dab565b5093949350505050565b5f8151808452602084019350602083015f5b82811015613dd2578151865260209586019590910190600101613dee565b60c081525f613e1e60c0830189613d99565b8281036020840152613e308189613ddc565b90508281036040840152613e448188613d99565b90508281036060840152613e588187613ddc565b90508281036080840152613e6c8186613ddc565b905082810360a0840152613e808185613ddc565b9998505050505050505050565b5f5f83601f840112613e9d575f5ffd5b5081356001600160401b03811115613eb3575f5ffd5b602083019150836020828501011115610e3a575f5ffd5b5f5f60208385031215613edb575f5ffd5b82356001600160401b03811115613ef0575f5ffd5b613efc85828601613e8d565b90969095509350505050565b5f81518084528060208401602086015e5f602082860101526020601f19601f83011685010191505092915050565b8215158152604060208201525f6139126040830184613f08565b803561ffff81168114613f61575f5ffd5b919050565b5f5f60408385031215613f77575f5ffd5b613f8083613f50565b9150613f8e60208401613f50565b90509250929050565b5f5f5f5f5f60608688031215613fab575f5ffd5b8535945060208601356001600160401b03811115613fc7575f5ffd5b613fd388828901613e8d565b90955093505060408601356001600160401b03811115613ff1575f5ffd5b613ffd88828901613e8d565b969995985093965092949392505050565b63ffffffff811681146111f4575f5ffd5b5f6020828403121561402f575f5ffd5b813561343a8161400e565b5f6020828403121561404a575f5ffd5b8151801515811461343a575f5ffd5b634e487b7160e01b5f52604160045260245ffd5b5f5f6040838503121561407e575f5ffd5b82356001600160e01b031981168114613cf6575f5ffd5b6001600160e01b031992909216825260ff16602082015260400190565b634e487b7160e01b5f52601160045260245ffd5b81810381811115613456576134566140b2565b818382375f9101908152919050565b604051601f8201601f191681016001600160401b038111828210171561411057614110614059565b604052919050565b5f6001600160401b0382111561413057614130614059565b5060051b60200190565b5f6020828403121561414a575f5ffd5b81356001600160401b0381111561415f575f5ffd5b8201601f8101841361416f575f5ffd5b803561418261417d82614118565b6140e8565b8082825260208201915060208360051b8501019250868311156141a3575f5ffd5b6020840193505b828410156138895783358252602093840193909101906141aa565b634e487b7160e01b5f52603260045260245ffd5b5f61ffff821661ffff81036141f0576141f06140b2565b60010192915050565b6020810160028310613d3957613d39613d11565b5f82601f83011261421c575f5ffd5b815161422a61417d82614118565b8082825260208201915060208360051b86010192508583111561424b575f5ffd5b602085015b8381101561427157805161426381613d3f565b835260209283019201614250565b5095945050505050565b5f6020828403121561428b575f5ffd5b81516001600160401b038111156142a0575f5ffd5b6139128482850161420d565b5f60ff821660ff81036141f0576141f06140b2565b60ff81811683821602908116908181146142dd576142dd6140b2565b5092915050565b61ffff8181168382160190811115613456576134566140b2565b5f5f6040838503121561430f575f5ffd5b82516001600160401b03811115614324575f5ffd5b6143308582860161420d565b602085015190935090506001600160401b0381111561434d575f5ffd5b8301601f8101851361435d575f5ffd5b805161436b61417d82614118565b8082825260208201915060208360051b85010192508783111561438c575f5ffd5b6020840193505b828410156143ae578351825260209384019390910190614393565b809450505050509250929050565b80820180821115613456576134566140b2565b6001815b600184111561440a578085048111156143ee576143ee6140b2565b60018416156143fc57908102905b60019390931c9280026143d3565b935093915050565b5f8261442057506001613456565b8161442c57505f613456565b8160018114614442576002811461444c57614468565b6001915050613456565b60ff84111561445d5761445d6140b2565b50506001821b613456565b5060208310610133831016604e8410600b841016171561448b575081810a613456565b6144975f1984846143cf565b805f19048211156144aa576144aa6140b2565b029392505050565b5f61343a60ff841683614412565b5f602082840312156144d0575f5ffd5b5051919050565b5f602082840312156144e7575f5ffd5b815161343a81613ccc565b83815260208101839052606081016004831061451057614510613d11565b826040830152949350505050565b5f5f6040838503121561452f575f5ffd5b82516001600160401b03811115614544575f5ffd5b6145508582860161420d565b602085015190935090506001600160401b0381111561456d575f5ffd5b8301601f8101851361457d575f5ffd5b805161458b61417d82614118565b8082825260208201915060208360051b8501019250878311156145ac575f5ffd5b6020840193505b828410156143ae5783516145c68161400e565b8252602093840193909101906145b3565b634e487b7160e01b5f52601260045260245ffd5b60ff8281168282160390811115613456576134566140b2565b8082028115828204841417613456576134566140b2565b5f8261463557634e487b7160e01b5f52601260045260245ffd5b500490565b5f83518060208601845e9190910191825250602001919050565b606081525f6146666060830186613ddc565b82810360208401526146788186613f08565b905082810360408401526138898185613f08565b92835260208301919091526001600160f81b031916604082015260600190565b82815260408101605483106146c3576146c3613d11565b8260208301529392505050565b602081525f61343a6020830184613ddc565b838152606060208201525f6146fa6060830185613ddc565b905063ffffffff60e01b83166040830152949350505050565b5f60018201614724576147246140b2565b506001019056fea2646970667358221220894d9cc7f0e067e2083afb8ce4e01ab2a7a86e16cc7c8b82f7494cdb17ee4fd564736f6c634300081c00339e7b61f58c47dc699ac88507c4f5bb9f121c03808c5676a8078fe583e46497019e7b61f58c47dc699ac88507c4f5bb9f121c03808c5676a8078fe583e4649700",
  "linkReferences": {},
  "deployedLinkReferences": {}
}