{
  "_format": "hh-sol-artifact-1",
  "contractName": "OrionAssetERC4626PriceAdapter",
  "sourceName": "contracts/price/OrionAssetERC4626PriceAdapter.sol",
  "abi": [
    {
      "inputs": [
        {
          "internalType": "address",
          "name": "initialOwner",
          "type": "address"
        },
        {
          "internalType": "address",
          "name": "configAddress",
          "type": "address"
        }
      ],
      "stateMutability": "nonpayable",
      "type": "constructor"
    },
    {
      "inputs": [],
      "name": "InvalidAsset",
      "type": "error"
    },
    {
      "inputs": [
        {
          "internalType": "address",
          "name": "owner",
          "type": "address"
        }
      ],
      "name": "OwnableInvalidOwner",
      "type": "error"
    },
    {
      "inputs": [
        {
          "internalType": "address",
          "name": "account",
          "type": "address"
        }
      ],
      "name": "OwnableUnauthorizedAccount",
      "type": "error"
    },
    {
      "inputs": [],
      "name": "SystemNotIdle",
      "type": "error"
    },
    {
      "inputs": [],
      "name": "ZeroAddress",
      "type": "error"
    },
    {
      "anonymous": false,
      "inputs": [
        {
          "indexed": true,
          "internalType": "address",
          "name": "previousOwner",
          "type": "address"
        },
        {
          "indexed": true,
          "internalType": "address",
          "name": "newOwner",
          "type": "address"
        }
      ],
      "name": "OwnershipTransferred",
      "type": "event"
    },
    {
      "inputs": [],
      "name": "config",
      "outputs": [
        {
          "internalType": "contract IOrionConfig",
          "name": "",
          "type": "address"
        }
      ],
      "stateMutability": "view",
      "type": "function"
    },
    {
      "inputs": [],
      "name": "owner",
      "outputs": [
        {
          "internalType": "address",
          "name": "",
          "type": "address"
        }
      ],
      "stateMutability": "view",
      "type": "function"
    },
    {
      "inputs": [
        {
          "internalType": "address",
          "name": "vaultAsset",
          "type": "address"
        }
      ],
      "name": "price",
      "outputs": [
        {
          "internalType": "uint256",
          "name": "",
          "type": "uint256"
        }
      ],
      "stateMutability": "view",
      "type": "function"
    },
    {
      "inputs": [],
      "name": "priceAdapterDecimals",
      "outputs": [
        {
          "internalType": "uint8",
          "name": "",
          "type": "uint8"
        }
      ],
      "stateMutability": "view",
      "type": "function"
    },
    {
      "inputs": [],
      "name": "renounceOwnership",
      "outputs": [],
      "stateMutability": "nonpayable",
      "type": "function"
    },
    {
      "inputs": [
        {
          "internalType": "address",
          "name": "newOwner",
          "type": "address"
        }
      ],
      "name": "transferOwnership",
      "outputs": [],
      "stateMutability": "nonpayable",
      "type": "function"
    },
    {
      "inputs": [],
      "name": "underlyingAsset",
      "outputs": [
        {
          "internalType": "address",
          "name": "",
          "type": "address"
        }
      ],
      "stateMutability": "view",
      "type": "function"
    },
    {
      "inputs": [],
      "name": "underlyingAssetDecimals",
      "outputs": [
        {
          "internalType": "uint8",
          "name": "",
          "type": "uint8"
        }
      ],
      "stateMutability": "view",
      "type": "function"
    },
    {
      "inputs": [],
      "name": "updateFromConfig",
      "outputs": [],
      "stateMutability": "nonpayable",
      "type": "function"
    }
  ],
  "bytecode": "0x608060405234801561000f575f5ffd5b50604051610d05380380610d0583398101604081905261002e9161037f565b816001600160a01b03811661005d57604051631e4fbdf760e01b81525f60048201526024015b60405180910390fd5b610066816100b8565b506001600160a01b03811661008e5760405163d92e233d60e01b815260040160405180910390fd5b600180546001600160a01b0319166001600160a01b0383161790556100b1610107565b5050610418565b5f80546001600160a01b038381166001600160a01b0319831681178455604051919092169283917f8be0079c531659141344cd1fd0a4f28419497f9722a3daafe3b4186f6b6457e09190a35050565b61010f61033a565b60015f9054906101000a90046001600160a01b03166001600160a01b031663edcf9c1f6040518163ffffffff1660e01b8152600401602060405180830381865afa15801561015f573d5f5f3e3d5ffd5b505050506040513d601f19601f8201168201806040525081019061018391906103b7565b6101a0576040516312aecd8160e01b815260040160405180910390fd5b60015f9054906101000a90046001600160a01b03166001600160a01b0316637158da7c6040518163ffffffff1660e01b8152600401602060405180830381865afa1580156101f0573d5f5f3e3d5ffd5b505050506040513d601f19601f8201168201806040525081019061021491906103dd565b600280546001600160a01b0319166001600160a01b039290921691821790556040805163313ce56760e01b8152905163313ce567916004808201926020929091908290030181865afa15801561026c573d5f5f3e3d5ffd5b505050506040513d601f19601f8201168201806040525081019061029091906103f8565b600260146101000a81548160ff021916908360ff16021790555060015f9054906101000a90046001600160a01b03166001600160a01b031663567ba7136040518163ffffffff1660e01b8152600401602060405180830381865afa1580156102fa573d5f5f3e3d5ffd5b505050506040513d601f19601f8201168201806040525081019061031e91906103f8565b600260156101000a81548160ff021916908360ff160217905550565b5f546001600160a01b031633146103665760405163118cdaa760e01b8152336004820152602401610054565b565b6001600160a01b038116811461037c575f5ffd5b50565b5f5f60408385031215610390575f5ffd5b825161039b81610368565b60208401519092506103ac81610368565b809150509250929050565b5f602082840312156103c7575f5ffd5b815180151581146103d6575f5ffd5b9392505050565b5f602082840312156103ed575f5ffd5b81516103d681610368565b5f60208284031215610408575f5ffd5b815160ff811681146103d6575f5ffd5b6108e0806104255f395ff3fe608060405234801561000f575f5ffd5b5060043610610081575f3560e01c8063288157e914610085578063567ba7131461008f578063715018a6146100ba5780637158da7c146100c257806379502c55146100e25780638da5cb5b146100f55780639a32c207146100fd578063aea9107814610111578063f2fde38b14610132575b5f5ffd5b61008d610145565b005b6002546100a390600160a81b900460ff1681565b60405160ff90911681526020015b60405180910390f35b61008d610378565b6002546100d5906001600160a01b031681565b6040516100b19190610699565b6001546100d5906001600160a01b031681565b6100d561038b565b6002546100a390600160a01b900460ff1681565b61012461011f3660046106c1565b610399565b6040519081526020016100b1565b61008d6101403660046106c1565b6105d2565b61014d610618565b60015f9054906101000a90046001600160a01b03166001600160a01b031663edcf9c1f6040518163ffffffff1660e01b8152600401602060405180830381865afa15801561019d573d5f5f3e3d5ffd5b505050506040513d601f19601f820116820180604052508101906101c191906106e3565b6101de576040516312aecd8160e01b815260040160405180910390fd5b60015f9054906101000a90046001600160a01b03166001600160a01b0316637158da7c6040518163ffffffff1660e01b8152600401602060405180830381865afa15801561022e573d5f5f3e3d5ffd5b505050506040513d601f19601f820116820180604052508101906102529190610702565b600280546001600160a01b0319166001600160a01b039290921691821790556040805163313ce56760e01b8152905163313ce567916004808201926020929091908290030181865afa1580156102aa573d5f5f3e3d5ffd5b505050506040513d601f19601f820116820180604052508101906102ce919061071d565b600260146101000a81548160ff021916908360ff16021790555060015f9054906101000a90046001600160a01b03166001600160a01b031663567ba7136040518163ffffffff1660e01b8152600401602060405180830381865afa158015610338573d5f5f3e3d5ffd5b505050506040513d601f19601f8201168201806040525081019061035c919061071d565b600260156101000a81548160ff021916908360ff160217905550565b610380610618565b6103895f61064a565b565b5f546001600160a01b031690565b5f816001600160a01b03166338d52e0f6040518163ffffffff1660e01b8152600401602060405180830381865afa9250505080156103f4575060408051601f3d908101601f191682019092526103f191810190610702565b60015b61041157604051636448d6e960e11b815260040160405180910390fd5b6002546001600160a01b0382811691161461043f57604051636448d6e960e11b815260040160405180910390fd5b505f826001600160a01b031663313ce5676040518163ffffffff1660e01b8152600401602060405180830381865afa15801561047d573d5f5f3e3d5ffd5b505050506040513d601f19601f820116820180604052508101906104a1919061071d565b90505f6104af82600a610836565b6040516303d1689d60e11b8152600481018290529091505f906001600160a01b038616906307a2d13a90602401602060405180830381865afa1580156104f7573d5f5f3e3d5ffd5b505050506040513d601f19601f8201168201806040525081019061051b9190610844565b60025490915060ff600160a81b82048116600160a01b909204160361054257949350505050565b60025460ff600160a81b82048116600160a01b90920416101561059d5760025461057f9060ff600160a01b8204811691600160a81b90041661085b565b61058a90600a610836565b6105949082610874565b95945050505050565b6002546105bd9060ff600160a81b8204811691600160a01b90041661085b565b6105c890600a610836565b610594908261088b565b6105da610618565b6001600160a01b03811661060c575f604051631e4fbdf760e01b81526004016106039190610699565b60405180910390fd5b6106158161064a565b50565b3361062161038b565b6001600160a01b031614610389573360405163118cdaa760e01b81526004016106039190610699565b5f80546001600160a01b038381166001600160a01b0319831681178455604051919092169283917f8be0079c531659141344cd1fd0a4f28419497f9722a3daafe3b4186f6b6457e09190a35050565b6001600160a01b0391909116815260200190565b6001600160a01b0381168114610615575f5ffd5b5f602082840312156106d1575f5ffd5b81356106dc816106ad565b9392505050565b5f602082840312156106f3575f5ffd5b815180151581146106dc575f5ffd5b5f60208284031215610712575f5ffd5b81516106dc816106ad565b5f6020828403121561072d575f5ffd5b815160ff811681146106dc575f5ffd5b634e487b7160e01b5f52601160045260245ffd5b6001815b600184111561078c578085048111156107705761077061073d565b600184161561077e57908102905b60019390931c928002610755565b935093915050565b5f826107a257506001610830565b816107ae57505f610830565b81600181146107c457600281146107ce576107ea565b6001915050610830565b60ff8411156107df576107df61073d565b50506001821b610830565b5060208310610133831016604e8410600b841016171561080d575081810a610830565b6108195f198484610751565b805f190482111561082c5761082c61073d565b0290505b92915050565b5f6106dc60ff841683610794565b5f60208284031215610854575f5ffd5b5051919050565b60ff82811682821603908111156108305761083061073d565b80820281158282048414176108305761083061073d565b5f826108a557634e487b7160e01b5f52601260045260245ffd5b50049056fea2646970667358221220ceadf3bd0fc830786c1dfe581dd5094798dac0119a42f5814187bf6dce4f479964736f6c634300081c0033",
  "linkReferences": {},
  "deployedLinkReferences": {}
}