{
  "_format": "hh-sol-artifact-1",
  "contractName": "OrionAssetERC4626PriceAdapter",
  "sourceName": "contracts/price/OrionAssetERC4626PriceAdapter.sol",
  "abi": [
    {
      "inputs": [
        {
          "internalType": "address",
          "name": "configAddress",
          "type": "address"
        }
      ],
      "stateMutability": "nonpayable",
      "type": "constructor"
    },
    {
      "inputs": [
        {
          "internalType": "address",
          "name": "asset",
          "type": "address"
        }
      ],
      "name": "InvalidAdapter",
      "type": "error"
    },
    {
      "inputs": [],
      "name": "ZeroAddress",
      "type": "error"
    },
    {
      "inputs": [],
      "name": "config",
      "outputs": [
        {
          "internalType": "contract IOrionConfig",
          "name": "",
          "type": "address"
        }
      ],
      "stateMutability": "view",
      "type": "function"
    },
    {
      "inputs": [
        {
          "internalType": "address",
          "name": "vaultAsset",
          "type": "address"
        }
      ],
      "name": "getPriceData",
      "outputs": [
        {
          "internalType": "uint256",
          "name": "price",
          "type": "uint256"
        },
        {
          "internalType": "uint8",
          "name": "decimals",
          "type": "uint8"
        }
      ],
      "stateMutability": "view",
      "type": "function"
    },
    {
      "inputs": [],
      "name": "underlyingAsset",
      "outputs": [
        {
          "internalType": "address",
          "name": "",
          "type": "address"
        }
      ],
      "stateMutability": "view",
      "type": "function"
    },
    {
      "inputs": [],
      "name": "underlyingAssetDecimals",
      "outputs": [
        {
          "internalType": "uint8",
          "name": "",
          "type": "uint8"
        }
      ],
      "stateMutability": "view",
      "type": "function"
    },
    {
      "inputs": [
        {
          "internalType": "address",
          "name": "asset",
          "type": "address"
        }
      ],
      "name": "validatePriceAdapter",
      "outputs": [],
      "stateMutability": "view",
      "type": "function"
    }
  ],
  "bytecode": "0x608060405234801561000f575f5ffd5b5060405161065138038061065183398101604081905261002e91610182565b6001600160a01b0381166100555760405163d92e233d60e01b815260040160405180910390fd5b5f80546001600160a01b0319166001600160a01b03831690811790915560408051631c56369f60e21b81529051637158da7c916004808201926020929091908290030181865afa1580156100ab573d5f5f3e3d5ffd5b505050506040513d601f19601f820116820180604052508101906100cf9190610182565b600180546001600160a01b0319166001600160a01b039290921691821790556040805163313ce56760e01b8152905163313ce567916004808201926020929091908290030181865afa158015610127573d5f5f3e3d5ffd5b505050506040513d601f19601f8201168201806040525081019061014b91906101a4565b600160146101000a81548160ff021916908360ff160217905550506101c4565b6001600160a01b038116811461017f575f5ffd5b50565b5f60208284031215610192575f5ffd5b815161019d8161016b565b9392505050565b5f602082840312156101b4575f5ffd5b815160ff8116811461019d575f5ffd5b610480806101d15f395ff3fe608060405234801561000f575f5ffd5b5060043610610055575f3560e01c80636ab8bdef146100595780637158da7c1461006e57806372279ba11461009757806379502c55146100c15780639a32c207146100d3575b5f5ffd5b61006c6100673660046102bb565b6100f9565b005b600154610081906001600160a01b031681565b60405161008e91906102dd565b60405180910390f35b6100aa6100a53660046102bb565b6101b0565b6040805192835260ff90911660208301520161008e565b5f54610081906001600160a01b031681565b6001546100e790600160a01b900460ff1681565b60405160ff909116815260200161008e565b806001600160a01b03166338d52e0f6040518163ffffffff1660e01b8152600401602060405180830381865afa925050508015610153575060408051601f3d908101601f19168201909252610150918101906102f1565b60015b61017b5780604051633283c86d60e21b815260040161017291906102dd565b60405180910390fd5b6001546001600160a01b038281169116146101ab5781604051633283c86d60e21b815260040161017291906102dd565b505b50565b5f5f5f836001600160a01b031663313ce5676040518163ffffffff1660e01b8152600401602060405180830381865afa1580156101ef573d5f5f3e3d5ffd5b505050506040513d601f19601f82011682018060405250810190610213919061030c565b90505f61022182600a610425565b6040516303d1689d60e11b8152600481018290529091505f906001600160a01b038716906307a2d13a90602401602060405180830381865afa158015610269573d5f5f3e3d5ffd5b505050506040513d601f19601f8201168201806040525081019061028d9190610433565b6001549097600160a01b90910460ff169650945050505050565b6001600160a01b03811681146101ad575f5ffd5b5f602082840312156102cb575f5ffd5b81356102d6816102a7565b9392505050565b6001600160a01b0391909116815260200190565b5f60208284031215610301575f5ffd5b81516102d6816102a7565b5f6020828403121561031c575f5ffd5b815160ff811681146102d6575f5ffd5b634e487b7160e01b5f52601160045260245ffd5b6001815b600184111561037b5780850481111561035f5761035f61032c565b600184161561036d57908102905b60019390931c928002610344565b935093915050565b5f826103915750600161041f565b8161039d57505f61041f565b81600181146103b357600281146103bd576103d9565b600191505061041f565b60ff8411156103ce576103ce61032c565b50506001821b61041f565b5060208310610133831016604e8410600b84101617156103fc575081810a61041f565b6104085f198484610340565b805f190482111561041b5761041b61032c565b0290505b92915050565b5f6102d660ff841683610383565b5f60208284031215610443575f5ffd5b505191905056fea264697066735822122036a9ac139f70a4ba8551267df2f66a114ad3c04c9f46ff6d603f33790547de3a64736f6c634300081c0033",
  "linkReferences": {},
  "deployedLinkReferences": {}
}