{
  "_format": "hh-sol-artifact-1",
  "contractName": "OrionAssetERC4626PriceAdapter",
  "sourceName": "contracts/price/OrionAssetERC4626PriceAdapter.sol",
  "abi": [
    {
      "inputs": [
        {
          "internalType": "address",
          "name": "initialOwner",
          "type": "address"
        },
        {
          "internalType": "address",
          "name": "configAddress",
          "type": "address"
        }
      ],
      "stateMutability": "nonpayable",
      "type": "constructor"
    },
    {
      "inputs": [],
      "name": "InvalidAsset",
      "type": "error"
    },
    {
      "inputs": [
        {
          "internalType": "address",
          "name": "owner",
          "type": "address"
        }
      ],
      "name": "OwnableInvalidOwner",
      "type": "error"
    },
    {
      "inputs": [
        {
          "internalType": "address",
          "name": "account",
          "type": "address"
        }
      ],
      "name": "OwnableUnauthorizedAccount",
      "type": "error"
    },
    {
      "inputs": [],
      "name": "SystemNotIdle",
      "type": "error"
    },
    {
      "inputs": [],
      "name": "ZeroAddress",
      "type": "error"
    },
    {
      "anonymous": false,
      "inputs": [
        {
          "indexed": true,
          "internalType": "address",
          "name": "previousOwner",
          "type": "address"
        },
        {
          "indexed": true,
          "internalType": "address",
          "name": "newOwner",
          "type": "address"
        }
      ],
      "name": "OwnershipTransferred",
      "type": "event"
    },
    {
      "inputs": [],
      "name": "config",
      "outputs": [
        {
          "internalType": "contract IOrionConfig",
          "name": "",
          "type": "address"
        }
      ],
      "stateMutability": "view",
      "type": "function"
    },
    {
      "inputs": [],
      "name": "owner",
      "outputs": [
        {
          "internalType": "address",
          "name": "",
          "type": "address"
        }
      ],
      "stateMutability": "view",
      "type": "function"
    },
    {
      "inputs": [
        {
          "internalType": "address",
          "name": "vaultAsset",
          "type": "address"
        }
      ],
      "name": "price",
      "outputs": [
        {
          "internalType": "uint256",
          "name": "",
          "type": "uint256"
        }
      ],
      "stateMutability": "view",
      "type": "function"
    },
    {
      "inputs": [],
      "name": "priceAdapterDecimals",
      "outputs": [
        {
          "internalType": "uint8",
          "name": "",
          "type": "uint8"
        }
      ],
      "stateMutability": "view",
      "type": "function"
    },
    {
      "inputs": [],
      "name": "renounceOwnership",
      "outputs": [],
      "stateMutability": "nonpayable",
      "type": "function"
    },
    {
      "inputs": [
        {
          "internalType": "address",
          "name": "newOwner",
          "type": "address"
        }
      ],
      "name": "transferOwnership",
      "outputs": [],
      "stateMutability": "nonpayable",
      "type": "function"
    },
    {
      "inputs": [],
      "name": "underlyingAsset",
      "outputs": [
        {
          "internalType": "address",
          "name": "",
          "type": "address"
        }
      ],
      "stateMutability": "view",
      "type": "function"
    },
    {
      "inputs": [],
      "name": "underlyingAssetDecimals",
      "outputs": [
        {
          "internalType": "uint8",
          "name": "",
          "type": "uint8"
        }
      ],
      "stateMutability": "view",
      "type": "function"
    },
    {
      "inputs": [],
      "name": "updateFromConfig",
      "outputs": [],
      "stateMutability": "nonpayable",
      "type": "function"
    }
  ],
  "bytecode": "0x608060405234801561000f575f5ffd5b5060405161199c38038061199c83398181016040528101906100319190610587565b815f73ffffffffffffffffffffffffffffffffffffffff168173ffffffffffffffffffffffffffffffffffffffff16036100a2575f6040517f1e4fbdf700000000000000000000000000000000000000000000000000000000815260040161009991906105d4565b60405180910390fd5b6100b18161046560201b60201c565b506100cc674f8738f76c9d695960c01b61052660201b60201c565b6100e667fc422ad7354a9f0160c01b61052660201b60201c565b6101006774f0b527089aadaa60c01b61052660201b60201c565b5f73ffffffffffffffffffffffffffffffffffffffff168173ffffffffffffffffffffffffffffffffffffffff160361017f5761014d671389dacaf1d05ce060c01b61052660201b60201c565b6040517fd92e233d00000000000000000000000000000000000000000000000000000000815260040160405180910390fd5b610199670d90c9139034a09060c01b61052660201b60201c565b6101b367241511db6b84fa0460c01b61052660201b60201c565b8060015f6101000a81548173ffffffffffffffffffffffffffffffffffffffff021916908373ffffffffffffffffffffffffffffffffffffffff16021790555061020d673b6a512f505fe74260c01b61052660201b60201c565b60015f9054906101000a900473ffffffffffffffffffffffffffffffffffffffff1673ffffffffffffffffffffffffffffffffffffffff16637158da7c6040518163ffffffff1660e01b8152600401602060405180830381865afa158015610277573d5f5f3e3d5ffd5b505050506040513d601f19601f8201168201806040525081019061029b9190610628565b60025f6101000a81548173ffffffffffffffffffffffffffffffffffffffff021916908373ffffffffffffffffffffffffffffffffffffffff1602179055506102f467e3db7c2b3af5944460c01b61052660201b60201c565b60025f9054906101000a900473ffffffffffffffffffffffffffffffffffffffff1673ffffffffffffffffffffffffffffffffffffffff1663313ce5676040518163ffffffff1660e01b8152600401602060405180830381865afa15801561035e573d5f5f3e3d5ffd5b505050506040513d601f19601f820116820180604052508101906103829190610689565b600260146101000a81548160ff021916908360ff1602179055506103b6678e1dbc7718a45de260c01b61052660201b60201c565b60015f9054906101000a900473ffffffffffffffffffffffffffffffffffffffff1673ffffffffffffffffffffffffffffffffffffffff1663567ba7136040518163ffffffff1660e01b8152600401602060405180830381865afa158015610420573d5f5f3e3d5ffd5b505050506040513d601f19601f820116820180604052508101906104449190610689565b600260156101000a81548160ff021916908360ff16021790555050506106b4565b5f5f5f9054906101000a900473ffffffffffffffffffffffffffffffffffffffff169050815f5f6101000a81548173ffffffffffffffffffffffffffffffffffffffff021916908373ffffffffffffffffffffffffffffffffffffffff1602179055508173ffffffffffffffffffffffffffffffffffffffff168173ffffffffffffffffffffffffffffffffffffffff167f8be0079c531659141344cd1fd0a4f28419497f9722a3daafe3b4186f6b6457e060405160405180910390a35050565b50565b5f5ffd5b5f73ffffffffffffffffffffffffffffffffffffffff82169050919050565b5f6105568261052d565b9050919050565b6105668161054c565b8114610570575f5ffd5b50565b5f815190506105818161055d565b92915050565b5f5f6040838503121561059d5761059c610529565b5b5f6105aa85828601610573565b92505060206105bb85828601610573565b9150509250929050565b6105ce8161054c565b82525050565b5f6020820190506105e75f8301846105c5565b92915050565b5f6105f78261054c565b9050919050565b610607816105ed565b8114610611575f5ffd5b50565b5f81519050610622816105fe565b92915050565b5f6020828403121561063d5761063c610529565b5b5f61064a84828501610614565b91505092915050565b5f60ff82169050919050565b61066881610653565b8114610672575f5ffd5b50565b5f815190506106838161065f565b92915050565b5f6020828403121561069e5761069d610529565b5b5f6106ab84828501610675565b91505092915050565b6112db806106c15f395ff3fe608060405234801561000f575f5ffd5b5060043610610091575f3560e01c806379502c551161006457806379502c55146100e55780638da5cb5b146101035780639a32c20714610121578063aea910781461013f578063f2fde38b1461016f57610091565b8063288157e914610095578063567ba7131461009f578063715018a6146100bd5780637158da7c146100c7575b5f5ffd5b61009d61018b565b005b6100a761053e565b6040516100b49190610d0f565b60405180910390f35b6100c5610551565b005b6100cf610564565b6040516100dc9190610d67565b60405180910390f35b6100ed610589565b6040516100fa9190610ddb565b60405180910390f35b61010b6105ae565b6040516101189190610d67565b60405180910390f35b6101296105d5565b6040516101369190610d0f565b60405180910390f35b61015960048036038101906101549190610e22565b6105e8565b6040516101669190610e65565b60405180910390f35b61018960048036038101906101849190610e22565b610b1e565b005b61019f67ea0b5eaedc4b256d60c01b610ba2565b6101a7610ba5565b6101bb673641fe5c8c431a1660c01b610ba2565b6101cf67e4edafcc698872b060c01b610ba2565b6101e367a2ab7cf3a6504e0560c01b610ba2565b6101f767f8ad0f12eaf9078760c01b610ba2565b60015f9054906101000a900473ffffffffffffffffffffffffffffffffffffffff1673ffffffffffffffffffffffffffffffffffffffff1663edcf9c1f6040518163ffffffff1660e01b8152600401602060405180830381865afa158015610261573d5f5f3e3d5ffd5b505050506040513d601f19601f820116820180604052508101906102859190610eb3565b6102cf5761029d679ca53e184009751e60c01b610ba2565b6040517f12aecd8100000000000000000000000000000000000000000000000000000000815260040160405180910390fd5b6102e367761b3098ebd131a960c01b610ba2565b6102f76757f3de7fbfdeaf1760c01b610ba2565b60015f9054906101000a900473ffffffffffffffffffffffffffffffffffffffff1673ffffffffffffffffffffffffffffffffffffffff16637158da7c6040518163ffffffff1660e01b8152600401602060405180830381865afa158015610361573d5f5f3e3d5ffd5b505050506040513d601f19601f820116820180604052508101906103859190610f19565b60025f6101000a81548173ffffffffffffffffffffffffffffffffffffffff021916908373ffffffffffffffffffffffffffffffffffffffff1602179055506103d867ed8c3acf662740b360c01b610ba2565b60025f9054906101000a900473ffffffffffffffffffffffffffffffffffffffff1673ffffffffffffffffffffffffffffffffffffffff1663313ce5676040518163ffffffff1660e01b8152600401602060405180830381865afa158015610442573d5f5f3e3d5ffd5b505050506040513d601f19601f820116820180604052508101906104669190610f6e565b600260146101000a81548160ff021916908360ff16021790555061049467f58e64619dc186e160c01b610ba2565b60015f9054906101000a900473ffffffffffffffffffffffffffffffffffffffff1673ffffffffffffffffffffffffffffffffffffffff1663567ba7136040518163ffffffff1660e01b8152600401602060405180830381865afa1580156104fe573d5f5f3e3d5ffd5b505050506040513d601f19601f820116820180604052508101906105229190610f6e565b600260156101000a81548160ff021916908360ff160217905550565b600260159054906101000a900460ff1681565b610559610ba5565b6105625f610c2c565b565b60025f9054906101000a900473ffffffffffffffffffffffffffffffffffffffff1681565b60015f9054906101000a900473ffffffffffffffffffffffffffffffffffffffff1681565b5f5f5f9054906101000a900473ffffffffffffffffffffffffffffffffffffffff16905090565b600260149054906101000a900460ff1681565b5f6105fd67e9e2a476da520a3760c01b610ba2565b610611679368683b0e7afb2d60c01b610ba2565b61062567acced002e13fefff60c01b610ba2565b8173ffffffffffffffffffffffffffffffffffffffff166338d52e0f6040518163ffffffff1660e01b8152600401602060405180830381865afa92505050801561068d57506040513d601f19601f8201168201806040525081019061068a9190610fad565b60015b6106d7576106a567ff2d2501863aebdd60c01b610ba2565b6040517fc891add200000000000000000000000000000000000000000000000000000000815260040160405180910390fd5b6106eb678071400e6373753360c01b610ba2565b6106ff679bde1e04aff14e0460c01b610ba2565b60025f9054906101000a900473ffffffffffffffffffffffffffffffffffffffff1673ffffffffffffffffffffffffffffffffffffffff168173ffffffffffffffffffffffffffffffffffffffff1614610799576107676796382087250e6b0060c01b610ba2565b6040517fc891add200000000000000000000000000000000000000000000000000000000815260040160405180910390fd5b6107ad67905d35cbe2ce682260c01b610ba2565b506107c2676784d2d9ad385e8a60c01b610ba2565b6107d667750fc3db6a64a51f60c01b610ba2565b5f8273ffffffffffffffffffffffffffffffffffffffff1663313ce5676040518163ffffffff1660e01b8152600401602060405180830381865afa158015610820573d5f5f3e3d5ffd5b505050506040513d601f19601f820116820180604052508101906108449190610f6e565b905061085a6778b886bc2bc3618760c01b610ba2565b61086e670f7c9c5cd4c722e460c01b610ba2565b5f81600a61087c9190611134565b9050610892670a53a990054d6e0860c01b610ba2565b6108a6670636c94ebdc3245f60c01b610ba2565b5f8473ffffffffffffffffffffffffffffffffffffffff166307a2d13a836040518263ffffffff1660e01b81526004016108e09190610e65565b602060405180830381865afa1580156108fb573d5f5f3e3d5ffd5b505050506040513d601f19601f8201168201806040525081019061091f91906111a8565b90506109356744a0cf5941fc079960c01b610ba2565b61094967d35b3a7b2b2cbf8260c01b610ba2565b600260159054906101000a900460ff1660ff16600260149054906101000a900460ff1660ff16036109bb5761098867d091e46f216c840a60c01b610ba2565b61099c679bb78e4c8e66e71160c01b610ba2565b6109b067113f11fcce5df94360c01b610ba2565b809350505050610b19565b6109cf677e69933921a1f4c860c01b610ba2565b6109e367af02445dfca87ef160c01b610ba2565b600260159054906101000a900460ff1660ff16600260149054906101000a900460ff1660ff161015610a9657610a23670f72ae09c11040d760c01b610ba2565b610a376711c98adc33c90fe860c01b610ba2565b610a4b6703ef08db1af0a0ec60c01b610ba2565b600260149054906101000a900460ff16600260159054906101000a900460ff16610a7591906111d3565b600a610a819190611134565b81610a8c9190611207565b9350505050610b19565b610aaa67899fcc50b69a962f60c01b610ba2565b610abe672e7653ed8e3c0af960c01b610ba2565b610ad267835e05b990e7028d60c01b610ba2565b600260159054906101000a900460ff16600260149054906101000a900460ff16610afc91906111d3565b600a610b089190611134565b81610b139190611275565b93505050505b919050565b610b26610ba5565b5f73ffffffffffffffffffffffffffffffffffffffff168173ffffffffffffffffffffffffffffffffffffffff1603610b96575f6040517f1e4fbdf7000000000000000000000000000000000000000000000000000000008152600401610b8d9190610d67565b60405180910390fd5b610b9f81610c2c565b50565b50565b610bad610ced565b73ffffffffffffffffffffffffffffffffffffffff16610bcb6105ae565b73ffffffffffffffffffffffffffffffffffffffff1614610c2a57610bee610ced565b6040517f118cdaa7000000000000000000000000000000000000000000000000000000008152600401610c219190610d67565b60405180910390fd5b565b5f5f5f9054906101000a900473ffffffffffffffffffffffffffffffffffffffff169050815f5f6101000a81548173ffffffffffffffffffffffffffffffffffffffff021916908373ffffffffffffffffffffffffffffffffffffffff1602179055508173ffffffffffffffffffffffffffffffffffffffff168173ffffffffffffffffffffffffffffffffffffffff167f8be0079c531659141344cd1fd0a4f28419497f9722a3daafe3b4186f6b6457e060405160405180910390a35050565b5f33905090565b5f60ff82169050919050565b610d0981610cf4565b82525050565b5f602082019050610d225f830184610d00565b92915050565b5f73ffffffffffffffffffffffffffffffffffffffff82169050919050565b5f610d5182610d28565b9050919050565b610d6181610d47565b82525050565b5f602082019050610d7a5f830184610d58565b92915050565b5f819050919050565b5f610da3610d9e610d9984610d28565b610d80565b610d28565b9050919050565b5f610db482610d89565b9050919050565b5f610dc582610daa565b9050919050565b610dd581610dbb565b82525050565b5f602082019050610dee5f830184610dcc565b92915050565b5f5ffd5b610e0181610d47565b8114610e0b575f5ffd5b50565b5f81359050610e1c81610df8565b92915050565b5f60208284031215610e3757610e36610df4565b5b5f610e4484828501610e0e565b91505092915050565b5f819050919050565b610e5f81610e4d565b82525050565b5f602082019050610e785f830184610e56565b92915050565b5f8115159050919050565b610e9281610e7e565b8114610e9c575f5ffd5b50565b5f81519050610ead81610e89565b92915050565b5f60208284031215610ec857610ec7610df4565b5b5f610ed584828501610e9f565b91505092915050565b5f610ee882610d47565b9050919050565b610ef881610ede565b8114610f02575f5ffd5b50565b5f81519050610f1381610eef565b92915050565b5f60208284031215610f2e57610f2d610df4565b5b5f610f3b84828501610f05565b91505092915050565b610f4d81610cf4565b8114610f57575f5ffd5b50565b5f81519050610f6881610f44565b92915050565b5f60208284031215610f8357610f82610df4565b5b5f610f9084828501610f5a565b91505092915050565b5f81519050610fa781610df8565b92915050565b5f60208284031215610fc257610fc1610df4565b5b5f610fcf84828501610f99565b91505092915050565b7f4e487b71000000000000000000000000000000000000000000000000000000005f52601160045260245ffd5b5f8160011c9050919050565b5f5f8291508390505b600185111561105a5780860481111561103657611035610fd8565b5b60018516156110455780820291505b808102905061105385611005565b945061101a565b94509492505050565b5f82611072576001905061112d565b8161107f575f905061112d565b8160018114611095576002811461109f576110ce565b600191505061112d565b60ff8411156110b1576110b0610fd8565b5b8360020a9150848211156110c8576110c7610fd8565b5b5061112d565b5060208310610133831016604e8410600b84101617156111035782820a9050838111156110fe576110fd610fd8565b5b61112d565b6111108484846001611011565b9250905081840481111561112757611126610fd8565b5b81810290505b9392505050565b5f61113e82610e4d565b915061114983610cf4565b92506111767fffffffffffffffffffffffffffffffffffffffffffffffffffffffffffffffff8484611063565b905092915050565b61118781610e4d565b8114611191575f5ffd5b50565b5f815190506111a28161117e565b92915050565b5f602082840312156111bd576111bc610df4565b5b5f6111ca84828501611194565b91505092915050565b5f6111dd82610cf4565b91506111e883610cf4565b9250828203905060ff81111561120157611200610fd8565b5b92915050565b5f61121182610e4d565b915061121c83610e4d565b925082820261122a81610e4d565b9150828204841483151761124157611240610fd8565b5b5092915050565b7f4e487b71000000000000000000000000000000000000000000000000000000005f52601260045260245ffd5b5f61127f82610e4d565b915061128a83610e4d565b92508261129a57611299611248565b5b82820490509291505056fea26469706673582212201572492d2c571bd68eed59afc93e7a887d2ab7745c1b645744c72f37c11bff5a64736f6c634300081c0033",
  "linkReferences": {},
  "deployedLinkReferences": {}
}