{
  "_format": "hh-sol-artifact-1",
  "contractName": "OrionAssetERC4626PriceAdapter",
  "sourceName": "contracts/price/OrionAssetERC4626PriceAdapter.sol",
  "abi": [
    {
      "inputs": [
        {
          "internalType": "address",
          "name": "target",
          "type": "address"
        }
      ],
      "name": "AddressEmptyCode",
      "type": "error"
    },
    {
      "inputs": [
        {
          "internalType": "address",
          "name": "implementation",
          "type": "address"
        }
      ],
      "name": "ERC1967InvalidImplementation",
      "type": "error"
    },
    {
      "inputs": [],
      "name": "ERC1967NonPayable",
      "type": "error"
    },
    {
      "inputs": [],
      "name": "FailedCall",
      "type": "error"
    },
    {
      "inputs": [],
      "name": "InvalidAsset",
      "type": "error"
    },
    {
      "inputs": [],
      "name": "InvalidInitialization",
      "type": "error"
    },
    {
      "inputs": [],
      "name": "NotInitializing",
      "type": "error"
    },
    {
      "inputs": [
        {
          "internalType": "address",
          "name": "owner",
          "type": "address"
        }
      ],
      "name": "OwnableInvalidOwner",
      "type": "error"
    },
    {
      "inputs": [
        {
          "internalType": "address",
          "name": "account",
          "type": "address"
        }
      ],
      "name": "OwnableUnauthorizedAccount",
      "type": "error"
    },
    {
      "inputs": [],
      "name": "UUPSUnauthorizedCallContext",
      "type": "error"
    },
    {
      "inputs": [
        {
          "internalType": "bytes32",
          "name": "slot",
          "type": "bytes32"
        }
      ],
      "name": "UUPSUnsupportedProxiableUUID",
      "type": "error"
    },
    {
      "inputs": [],
      "name": "ZeroAddress",
      "type": "error"
    },
    {
      "anonymous": false,
      "inputs": [
        {
          "indexed": false,
          "internalType": "uint64",
          "name": "version",
          "type": "uint64"
        }
      ],
      "name": "Initialized",
      "type": "event"
    },
    {
      "anonymous": false,
      "inputs": [
        {
          "indexed": true,
          "internalType": "address",
          "name": "previousOwner",
          "type": "address"
        },
        {
          "indexed": true,
          "internalType": "address",
          "name": "newOwner",
          "type": "address"
        }
      ],
      "name": "OwnershipTransferStarted",
      "type": "event"
    },
    {
      "anonymous": false,
      "inputs": [
        {
          "indexed": true,
          "internalType": "address",
          "name": "previousOwner",
          "type": "address"
        },
        {
          "indexed": true,
          "internalType": "address",
          "name": "newOwner",
          "type": "address"
        }
      ],
      "name": "OwnershipTransferred",
      "type": "event"
    },
    {
      "anonymous": false,
      "inputs": [
        {
          "indexed": true,
          "internalType": "address",
          "name": "implementation",
          "type": "address"
        }
      ],
      "name": "Upgraded",
      "type": "event"
    },
    {
      "inputs": [],
      "name": "UPGRADE_INTERFACE_VERSION",
      "outputs": [
        {
          "internalType": "string",
          "name": "",
          "type": "string"
        }
      ],
      "stateMutability": "view",
      "type": "function"
    },
    {
      "inputs": [],
      "name": "acceptOwnership",
      "outputs": [],
      "stateMutability": "nonpayable",
      "type": "function"
    },
    {
      "inputs": [
        {
          "internalType": "address",
          "name": "initialOwner",
          "type": "address"
        },
        {
          "internalType": "address",
          "name": "_configAddress",
          "type": "address"
        }
      ],
      "name": "initialize",
      "outputs": [],
      "stateMutability": "nonpayable",
      "type": "function"
    },
    {
      "inputs": [],
      "name": "owner",
      "outputs": [
        {
          "internalType": "address",
          "name": "",
          "type": "address"
        }
      ],
      "stateMutability": "view",
      "type": "function"
    },
    {
      "inputs": [],
      "name": "pendingOwner",
      "outputs": [
        {
          "internalType": "address",
          "name": "",
          "type": "address"
        }
      ],
      "stateMutability": "view",
      "type": "function"
    },
    {
      "inputs": [
        {
          "internalType": "address",
          "name": "vaultAsset",
          "type": "address"
        }
      ],
      "name": "price",
      "outputs": [
        {
          "internalType": "uint256",
          "name": "",
          "type": "uint256"
        }
      ],
      "stateMutability": "view",
      "type": "function"
    },
    {
      "inputs": [],
      "name": "proxiableUUID",
      "outputs": [
        {
          "internalType": "bytes32",
          "name": "",
          "type": "bytes32"
        }
      ],
      "stateMutability": "view",
      "type": "function"
    },
    {
      "inputs": [],
      "name": "renounceOwnership",
      "outputs": [],
      "stateMutability": "nonpayable",
      "type": "function"
    },
    {
      "inputs": [
        {
          "internalType": "address",
          "name": "newOwner",
          "type": "address"
        }
      ],
      "name": "transferOwnership",
      "outputs": [],
      "stateMutability": "nonpayable",
      "type": "function"
    },
    {
      "inputs": [],
      "name": "underlyingAsset",
      "outputs": [
        {
          "internalType": "address",
          "name": "",
          "type": "address"
        }
      ],
      "stateMutability": "view",
      "type": "function"
    },
    {
      "inputs": [],
      "name": "underlyingAssetDecimals",
      "outputs": [
        {
          "internalType": "uint8",
          "name": "",
          "type": "uint8"
        }
      ],
      "stateMutability": "view",
      "type": "function"
    },
    {
      "inputs": [
        {
          "internalType": "address",
          "name": "newImplementation",
          "type": "address"
        },
        {
          "internalType": "bytes",
          "name": "data",
          "type": "bytes"
        }
      ],
      "name": "upgradeToAndCall",
      "outputs": [],
      "stateMutability": "payable",
      "type": "function"
    }
  ],
  "bytecode": "0x60a0604052306080523480156012575f5ffd5b506080516110736100395f395f818161082801528181610851015261099501526110735ff3fe6080604052600436106100a5575f3560e01c80638da5cb5b116100625780638da5cb5b146101625780639a32c20714610176578063ad3cb1cc146101a7578063aea91078146101e4578063e30c397814610203578063f2fde38b14610217575f5ffd5b8063485cc955146100a95780634f1ef286146100ca57806352d1902d146100dd578063715018a6146101045780637158da7c1461011857806379ba50971461014e575b5f5ffd5b3480156100b4575f5ffd5b506100c86100c3366004610d00565b610236565b005b6100c86100d8366004610d4b565b61045b565b3480156100e8575f5ffd5b506100f161047a565b6040519081526020015b60405180910390f35b34801561010f575f5ffd5b506100c8610495565b348015610123575f5ffd5b505f54610136906001600160a01b031681565b6040516001600160a01b0390911681526020016100fb565b348015610159575f5ffd5b506100c86104a8565b34801561016d575f5ffd5b506101366104f5565b348015610181575f5ffd5b505f5461019590600160a01b900460ff1681565b60405160ff90911681526020016100fb565b3480156101b2575f5ffd5b506101d7604051806040016040528060058152602001640352e302e360dc1b81525081565b6040516100fb9190610e11565b3480156101ef575f5ffd5b506100f16101fe366004610e46565b610529565b34801561020e575f5ffd5b5061013661072d565b348015610222575f5ffd5b506100c8610231366004610e46565b610755565b5f61023f6107da565b805490915060ff600160401b820416159067ffffffffffffffff165f811580156102665750825b90505f8267ffffffffffffffff1660011480156102825750303b155b905081158015610290575080155b156102ae5760405163f92ee8a960e01b815260040160405180910390fd5b845467ffffffffffffffff1916600117855583156102d857845460ff60401b1916600160401b1785555b6102e187610804565b6102e9610815565b6102f1610815565b6001600160a01b0386166103185760405163d92e233d60e01b815260040160405180910390fd5b856001600160a01b0316637158da7c6040518163ffffffff1660e01b8152600401602060405180830381865afa158015610354573d5f5f3e3d5ffd5b505050506040513d601f19601f820116820180604052508101906103789190610e61565b5f80546001600160a01b0319166001600160a01b039290921691821790556040805163313ce56760e01b8152905163313ce567916004808201926020929091908290030181865afa1580156103cf573d5f5f3e3d5ffd5b505050506040513d601f19601f820116820180604052508101906103f39190610e7c565b5f60146101000a81548160ff021916908360ff160217905550831561045257845460ff60401b19168555604051600181527fc7f505b2f371ae2175ee4913f4499e1f2633a7b5936321eed1cdaeb6115181d29060200160405180910390a15b50505050505050565b61046361081d565b61046c826108c1565b61047682826108c9565b5050565b5f61048361098a565b505f51602061101e5f395f51905f5290565b61049d6109d3565b6104a65f610a05565b565b33806104b261072d565b6001600160a01b0316146104e95760405163118cdaa760e01b81526001600160a01b03821660048201526024015b60405180910390fd5b6104f281610a05565b50565b5f807f9016d09d72d40fdae2fd8ceac6b6234c7706214fd39c1cd1e609a0528c1993005b546001600160a01b031692915050565b5f5f826001600160a01b03166338d52e0f6040518163ffffffff1660e01b8152600401602060405180830381865afa158015610567573d5f5f3e3d5ffd5b505050506040513d601f19601f8201168201806040525081019061058b9190610e61565b5f549091506001600160a01b038083169116146105bb57604051636448d6e960e11b815260040160405180910390fd5b5f836001600160a01b031663313ce5676040518163ffffffff1660e01b8152600401602060405180830381865afa1580156105f8573d5f5f3e3d5ffd5b505050506040513d601f19601f8201168201806040525081019061061c9190610e7c565b90505f61062a82600a610f93565b6040516303d1689d60e11b8152600481018290529091505f906001600160a01b038716906307a2d13a90602401602060405180830381865afa158015610672573d5f5f3e3d5ffd5b505050506040513d601f19601f820116820180604052508101906106969190610fa1565b5f54909150600160a01b900460ff166012036106b55795945050505050565b5f546012600160a01b90910460ff161015610700575f546106e190600160a01b900460ff166012610fb8565b6106ec90600a610f93565b6106f69082610fd1565b9695505050505050565b5f5461071890601290600160a01b900460ff16610fb8565b61072390600a610f93565b6106f69082610fe8565b5f807f237e158222e3e6968b72b9db0d8043aacf074ad9f650f0d1606b4d82ee432c00610519565b61075d6109d3565b7f237e158222e3e6968b72b9db0d8043aacf074ad9f650f0d1606b4d82ee432c0080546001600160a01b0319166001600160a01b03831690811782556107a16104f5565b6001600160a01b03167f38d16b8cac22d99fc7c124b9cd0de2d3fa1faef420bfe791d8c362d765e2270060405160405180910390a35050565b5f807ff0c57e16840df040f15088dc2f81fe391c3923bec73e23a9662efc9c229c6a005b92915050565b61080c610a3d565b6104f281610a62565b6104a6610a3d565b306001600160a01b037f00000000000000000000000000000000000000000000000000000000000000001614806108a357507f00000000000000000000000000000000000000000000000000000000000000006001600160a01b03166108975f51602061101e5f395f51905f52546001600160a01b031690565b6001600160a01b031614155b156104a65760405163703e46dd60e11b815260040160405180910390fd5b6104f26109d3565b816001600160a01b03166352d1902d6040518163ffffffff1660e01b8152600401602060405180830381865afa925050508015610923575060408051601f3d908101601f1916820190925261092091810190610fa1565b60015b61094b57604051634c9c8ce360e01b81526001600160a01b03831660048201526024016104e0565b5f51602061101e5f395f51905f52811461097b57604051632a87526960e21b8152600481018290526024016104e0565b6109858383610a93565b505050565b306001600160a01b037f000000000000000000000000000000000000000000000000000000000000000016146104a65760405163703e46dd60e11b815260040160405180910390fd5b336109dc6104f5565b6001600160a01b0316146104a65760405163118cdaa760e01b81523360048201526024016104e0565b7f237e158222e3e6968b72b9db0d8043aacf074ad9f650f0d1606b4d82ee432c0080546001600160a01b031916815561047682610ae8565b610a45610b58565b6104a657604051631afcd79f60e31b815260040160405180910390fd5b610a6a610a3d565b6001600160a01b0381166104e957604051631e4fbdf760e01b81525f60048201526024016104e0565b610a9c82610b71565b6040516001600160a01b038316907fbc7cd75a20ee27fd9adebab32041f755214dbc6bffa90cc0225b39da2e5c2d3b905f90a2805115610ae0576109858282610bd4565b610476610c46565b7f9016d09d72d40fdae2fd8ceac6b6234c7706214fd39c1cd1e609a0528c19930080546001600160a01b031981166001600160a01b03848116918217845560405192169182907f8be0079c531659141344cd1fd0a4f28419497f9722a3daafe3b4186f6b6457e0905f90a3505050565b5f610b616107da565b54600160401b900460ff16919050565b806001600160a01b03163b5f03610ba657604051634c9c8ce360e01b81526001600160a01b03821660048201526024016104e0565b5f51602061101e5f395f51905f5280546001600160a01b0319166001600160a01b0392909216919091179055565b60605f5f846001600160a01b031684604051610bf09190611007565b5f60405180830381855af49150503d805f8114610c28576040519150601f19603f3d011682016040523d82523d5f602084013e610c2d565b606091505b5091509150610c3d858383610c65565b95945050505050565b34156104a65760405163b398979f60e01b815260040160405180910390fd5b606082610c7a57610c7582610cc4565b610cbd565b8151158015610c9157506001600160a01b0384163b155b15610cba57604051639996b31560e01b81526001600160a01b03851660048201526024016104e0565b50805b9392505050565b805115610cd357805160208201fd5b60405163d6bda27560e01b815260040160405180910390fd5b6001600160a01b03811681146104f2575f5ffd5b5f5f60408385031215610d11575f5ffd5b8235610d1c81610cec565b91506020830135610d2c81610cec565b809150509250929050565b634e487b7160e01b5f52604160045260245ffd5b5f5f60408385031215610d5c575f5ffd5b8235610d6781610cec565b9150602083013567ffffffffffffffff811115610d82575f5ffd5b8301601f81018513610d92575f5ffd5b803567ffffffffffffffff811115610dac57610dac610d37565b604051601f8201601f19908116603f0116810167ffffffffffffffff81118282101715610ddb57610ddb610d37565b604052818152828201602001871015610df2575f5ffd5b816020840160208301375f602083830101528093505050509250929050565b602081525f82518060208401528060208501604085015e5f604082850101526040601f19601f83011684010191505092915050565b5f60208284031215610e56575f5ffd5b8135610cbd81610cec565b5f60208284031215610e71575f5ffd5b8151610cbd81610cec565b5f60208284031215610e8c575f5ffd5b815160ff81168114610cbd575f5ffd5b634e487b7160e01b5f52601160045260245ffd5b6001815b6001841115610eeb57808504811115610ecf57610ecf610e9c565b6001841615610edd57908102905b60019390931c928002610eb4565b935093915050565b5f82610f01575060016107fe565b81610f0d57505f6107fe565b8160018114610f235760028114610f2d57610f49565b60019150506107fe565b60ff841115610f3e57610f3e610e9c565b50506001821b6107fe565b5060208310610133831016604e8410600b8410161715610f6c575081810a6107fe565b610f785f198484610eb0565b805f1904821115610f8b57610f8b610e9c565b029392505050565b5f610cbd60ff841683610ef3565b5f60208284031215610fb1575f5ffd5b5051919050565b60ff82811682821603908111156107fe576107fe610e9c565b80820281158282048414176107fe576107fe610e9c565b5f8261100257634e487b7160e01b5f52601260045260245ffd5b500490565b5f82518060208501845e5f92019182525091905056fe360894a13ba1a3210667c828492db98dca3e2076cc3735a920a3ca505d382bbca2646970667358221220a214c41aabe772e589f57958fedf0e16681f43770d30ca1158ce50fc00ae27bf64736f6c634300081c0033",
  "linkReferences": {},
  "deployedLinkReferences": {}
}