{
  "_format": "hh-sol-artifact-1",
  "contractName": "OrionAssetERC4626PriceAdapter",
  "sourceName": "contracts/price/OrionAssetERC4626PriceAdapter.sol",
  "abi": [
    {
      "inputs": [
        {
          "internalType": "address",
          "name": "target",
          "type": "address"
        }
      ],
      "name": "AddressEmptyCode",
      "type": "error"
    },
    {
      "inputs": [
        {
          "internalType": "address",
          "name": "implementation",
          "type": "address"
        }
      ],
      "name": "ERC1967InvalidImplementation",
      "type": "error"
    },
    {
      "inputs": [],
      "name": "ERC1967NonPayable",
      "type": "error"
    },
    {
      "inputs": [],
      "name": "FailedCall",
      "type": "error"
    },
    {
      "inputs": [],
      "name": "InvalidAsset",
      "type": "error"
    },
    {
      "inputs": [],
      "name": "InvalidInitialization",
      "type": "error"
    },
    {
      "inputs": [],
      "name": "NotInitializing",
      "type": "error"
    },
    {
      "inputs": [
        {
          "internalType": "address",
          "name": "owner",
          "type": "address"
        }
      ],
      "name": "OwnableInvalidOwner",
      "type": "error"
    },
    {
      "inputs": [
        {
          "internalType": "address",
          "name": "account",
          "type": "address"
        }
      ],
      "name": "OwnableUnauthorizedAccount",
      "type": "error"
    },
    {
      "inputs": [],
      "name": "UUPSUnauthorizedCallContext",
      "type": "error"
    },
    {
      "inputs": [
        {
          "internalType": "bytes32",
          "name": "slot",
          "type": "bytes32"
        }
      ],
      "name": "UUPSUnsupportedProxiableUUID",
      "type": "error"
    },
    {
      "inputs": [],
      "name": "ZeroAddress",
      "type": "error"
    },
    {
      "anonymous": false,
      "inputs": [
        {
          "indexed": false,
          "internalType": "uint64",
          "name": "version",
          "type": "uint64"
        }
      ],
      "name": "Initialized",
      "type": "event"
    },
    {
      "anonymous": false,
      "inputs": [
        {
          "indexed": true,
          "internalType": "address",
          "name": "previousOwner",
          "type": "address"
        },
        {
          "indexed": true,
          "internalType": "address",
          "name": "newOwner",
          "type": "address"
        }
      ],
      "name": "OwnershipTransferStarted",
      "type": "event"
    },
    {
      "anonymous": false,
      "inputs": [
        {
          "indexed": true,
          "internalType": "address",
          "name": "previousOwner",
          "type": "address"
        },
        {
          "indexed": true,
          "internalType": "address",
          "name": "newOwner",
          "type": "address"
        }
      ],
      "name": "OwnershipTransferred",
      "type": "event"
    },
    {
      "anonymous": false,
      "inputs": [
        {
          "indexed": true,
          "internalType": "address",
          "name": "implementation",
          "type": "address"
        }
      ],
      "name": "Upgraded",
      "type": "event"
    },
    {
      "inputs": [],
      "name": "UPGRADE_INTERFACE_VERSION",
      "outputs": [
        {
          "internalType": "string",
          "name": "",
          "type": "string"
        }
      ],
      "stateMutability": "view",
      "type": "function"
    },
    {
      "inputs": [],
      "name": "acceptOwnership",
      "outputs": [],
      "stateMutability": "nonpayable",
      "type": "function"
    },
    {
      "inputs": [
        {
          "internalType": "address",
          "name": "initialOwner",
          "type": "address"
        },
        {
          "internalType": "address",
          "name": "_configAddress",
          "type": "address"
        }
      ],
      "name": "initialize",
      "outputs": [],
      "stateMutability": "nonpayable",
      "type": "function"
    },
    {
      "inputs": [],
      "name": "owner",
      "outputs": [
        {
          "internalType": "address",
          "name": "",
          "type": "address"
        }
      ],
      "stateMutability": "view",
      "type": "function"
    },
    {
      "inputs": [],
      "name": "pendingOwner",
      "outputs": [
        {
          "internalType": "address",
          "name": "",
          "type": "address"
        }
      ],
      "stateMutability": "view",
      "type": "function"
    },
    {
      "inputs": [
        {
          "internalType": "address",
          "name": "vaultAsset",
          "type": "address"
        }
      ],
      "name": "price",
      "outputs": [
        {
          "internalType": "uint256",
          "name": "",
          "type": "uint256"
        }
      ],
      "stateMutability": "view",
      "type": "function"
    },
    {
      "inputs": [],
      "name": "priceAdapterDecimals",
      "outputs": [
        {
          "internalType": "uint8",
          "name": "",
          "type": "uint8"
        }
      ],
      "stateMutability": "view",
      "type": "function"
    },
    {
      "inputs": [],
      "name": "proxiableUUID",
      "outputs": [
        {
          "internalType": "bytes32",
          "name": "",
          "type": "bytes32"
        }
      ],
      "stateMutability": "view",
      "type": "function"
    },
    {
      "inputs": [],
      "name": "renounceOwnership",
      "outputs": [],
      "stateMutability": "nonpayable",
      "type": "function"
    },
    {
      "inputs": [
        {
          "internalType": "address",
          "name": "newOwner",
          "type": "address"
        }
      ],
      "name": "transferOwnership",
      "outputs": [],
      "stateMutability": "nonpayable",
      "type": "function"
    },
    {
      "inputs": [],
      "name": "underlyingAsset",
      "outputs": [
        {
          "internalType": "address",
          "name": "",
          "type": "address"
        }
      ],
      "stateMutability": "view",
      "type": "function"
    },
    {
      "inputs": [],
      "name": "underlyingAssetDecimals",
      "outputs": [
        {
          "internalType": "uint8",
          "name": "",
          "type": "uint8"
        }
      ],
      "stateMutability": "view",
      "type": "function"
    },
    {
      "inputs": [
        {
          "internalType": "address",
          "name": "newImplementation",
          "type": "address"
        },
        {
          "internalType": "bytes",
          "name": "data",
          "type": "bytes"
        }
      ],
      "name": "upgradeToAndCall",
      "outputs": [],
      "stateMutability": "payable",
      "type": "function"
    }
  ],
  "bytecode": "0x60a0604052306080523480156012575f5ffd5b5060805161114c6100395f395f818161090a015281816109330152610a77015261114c5ff3fe6080604052600436106100bf575f3560e01c806379ba50971161007c578063ad3cb1cc11610057578063ad3cb1cc146101e0578063aea910781461021d578063e30c39781461023c578063f2fde38b14610250575f5ffd5b806379ba5097146101995780638da5cb5b146101ad5780639a32c207146101c1575f5ffd5b8063485cc955146100c35780634f1ef286146100e457806352d1902d146100f7578063567ba7131461011e578063715018a61461014f5780637158da7c14610163575b5f5ffd5b3480156100ce575f5ffd5b506100e26100dd366004610dd9565b61026f565b005b6100e26100f2366004610e24565b61050d565b348015610102575f5ffd5b5061010b61052c565b6040519081526020015b60405180910390f35b348015610129575f5ffd5b505f5461013d90600160a81b900460ff1681565b60405160ff9091168152602001610115565b34801561015a575f5ffd5b506100e2610547565b34801561016e575f5ffd5b505f54610181906001600160a01b031681565b6040516001600160a01b039091168152602001610115565b3480156101a4575f5ffd5b506100e261055a565b3480156101b8575f5ffd5b506101816105a7565b3480156101cc575f5ffd5b505f5461013d90600160a01b900460ff1681565b3480156101eb575f5ffd5b50610210604051806040016040528060058152602001640352e302e360dc1b81525081565b6040516101159190610eea565b348015610228575f5ffd5b5061010b610237366004610f1f565b6105db565b348015610247575f5ffd5b5061018161080f565b34801561025b575f5ffd5b506100e261026a366004610f1f565b610837565b5f6102786108bc565b805490915060ff600160401b820416159067ffffffffffffffff165f8115801561029f5750825b90505f8267ffffffffffffffff1660011480156102bb5750303b155b9050811580156102c9575080155b156102e75760405163f92ee8a960e01b815260040160405180910390fd5b845467ffffffffffffffff19166001178555831561031157845460ff60401b1916600160401b1785555b61031a876108e6565b6103226108f7565b61032a6108f7565b6001600160a01b0386166103515760405163d92e233d60e01b815260040160405180910390fd5b856001600160a01b0316637158da7c6040518163ffffffff1660e01b8152600401602060405180830381865afa15801561038d573d5f5f3e3d5ffd5b505050506040513d601f19601f820116820180604052508101906103b19190610f3a565b5f80546001600160a01b0319166001600160a01b039290921691821790556040805163313ce56760e01b8152905163313ce567916004808201926020929091908290030181865afa158015610408573d5f5f3e3d5ffd5b505050506040513d601f19601f8201168201806040525081019061042c9190610f55565b5f60146101000a81548160ff021916908360ff160217905550856001600160a01b031663567ba7136040518163ffffffff1660e01b8152600401602060405180830381865afa158015610481573d5f5f3e3d5ffd5b505050506040513d601f19601f820116820180604052508101906104a59190610f55565b5f60156101000a81548160ff021916908360ff160217905550831561050457845460ff60401b19168555604051600181527fc7f505b2f371ae2175ee4913f4499e1f2633a7b5936321eed1cdaeb6115181d29060200160405180910390a15b50505050505050565b6105156108ff565b61051e826109a3565b61052882826109ab565b5050565b5f610535610a6c565b505f5160206110f75f395f51905f5290565b61054f610ab5565b6105585f610ae7565b565b338061056461080f565b6001600160a01b03161461059b5760405163118cdaa760e01b81526001600160a01b03821660048201526024015b60405180910390fd5b6105a481610ae7565b50565b5f807f9016d09d72d40fdae2fd8ceac6b6234c7706214fd39c1cd1e609a0528c1993005b546001600160a01b031692915050565b5f816001600160a01b03166338d52e0f6040518163ffffffff1660e01b8152600401602060405180830381865afa925050508015610636575060408051601f3d908101601f1916820190925261063391810190610f3a565b60015b61065357604051636448d6e960e11b815260040160405180910390fd5b5f546001600160a01b0382811691161461068057604051636448d6e960e11b815260040160405180910390fd5b505f826001600160a01b031663313ce5676040518163ffffffff1660e01b8152600401602060405180830381865afa1580156106be573d5f5f3e3d5ffd5b505050506040513d601f19601f820116820180604052508101906106e29190610f55565b90505f6106f082600a61106c565b6040516303d1689d60e11b8152600481018290529091505f906001600160a01b038616906307a2d13a90602401602060405180830381865afa158015610738573d5f5f3e3d5ffd5b505050506040513d601f19601f8201168201806040525081019061075c919061107a565b5f5490915060ff600160a81b82048116600160a01b909204160361078257949350505050565b5f5460ff600160a81b82048116600160a01b9092041610156107db575f546107bd9060ff600160a01b8204811691600160a81b900416611091565b6107c890600a61106c565b6107d290826110aa565b95945050505050565b5f546107fa9060ff600160a81b8204811691600160a01b900416611091565b61080590600a61106c565b6107d290826110c1565b5f807f237e158222e3e6968b72b9db0d8043aacf074ad9f650f0d1606b4d82ee432c006105cb565b61083f610ab5565b7f237e158222e3e6968b72b9db0d8043aacf074ad9f650f0d1606b4d82ee432c0080546001600160a01b0319166001600160a01b03831690811782556108836105a7565b6001600160a01b03167f38d16b8cac22d99fc7c124b9cd0de2d3fa1faef420bfe791d8c362d765e2270060405160405180910390a35050565b5f807ff0c57e16840df040f15088dc2f81fe391c3923bec73e23a9662efc9c229c6a005b92915050565b6108ee610b1f565b6105a481610b44565b610558610b1f565b306001600160a01b037f000000000000000000000000000000000000000000000000000000000000000016148061098557507f00000000000000000000000000000000000000000000000000000000000000006001600160a01b03166109795f5160206110f75f395f51905f52546001600160a01b031690565b6001600160a01b031614155b156105585760405163703e46dd60e11b815260040160405180910390fd5b6105a4610ab5565b816001600160a01b03166352d1902d6040518163ffffffff1660e01b8152600401602060405180830381865afa925050508015610a05575060408051601f3d908101601f19168201909252610a029181019061107a565b60015b610a2d57604051634c9c8ce360e01b81526001600160a01b0383166004820152602401610592565b5f5160206110f75f395f51905f528114610a5d57604051632a87526960e21b815260048101829052602401610592565b610a678383610b75565b505050565b306001600160a01b037f000000000000000000000000000000000000000000000000000000000000000016146105585760405163703e46dd60e11b815260040160405180910390fd5b33610abe6105a7565b6001600160a01b0316146105585760405163118cdaa760e01b8152336004820152602401610592565b7f237e158222e3e6968b72b9db0d8043aacf074ad9f650f0d1606b4d82ee432c0080546001600160a01b031916815561052882610bca565b610b27610c3a565b61055857604051631afcd79f60e31b815260040160405180910390fd5b610b4c610b1f565b6001600160a01b03811661059b57604051631e4fbdf760e01b81525f6004820152602401610592565b610b7e82610c53565b6040516001600160a01b038316907fbc7cd75a20ee27fd9adebab32041f755214dbc6bffa90cc0225b39da2e5c2d3b905f90a2805115610bc257610a678282610cb6565b610528610d1f565b7f9016d09d72d40fdae2fd8ceac6b6234c7706214fd39c1cd1e609a0528c19930080546001600160a01b031981166001600160a01b03848116918217845560405192169182907f8be0079c531659141344cd1fd0a4f28419497f9722a3daafe3b4186f6b6457e0905f90a3505050565b5f610c436108bc565b54600160401b900460ff16919050565b806001600160a01b03163b5f03610c8857604051634c9c8ce360e01b81526001600160a01b0382166004820152602401610592565b5f5160206110f75f395f51905f5280546001600160a01b0319166001600160a01b0392909216919091179055565b60605f5f846001600160a01b031684604051610cd291906110e0565b5f60405180830381855af49150503d805f8114610d0a576040519150601f19603f3d011682016040523d82523d5f602084013e610d0f565b606091505b50915091506107d2858383610d3e565b34156105585760405163b398979f60e01b815260040160405180910390fd5b606082610d5357610d4e82610d9d565b610d96565b8151158015610d6a57506001600160a01b0384163b155b15610d9357604051639996b31560e01b81526001600160a01b0385166004820152602401610592565b50805b9392505050565b805115610dac57805160208201fd5b60405163d6bda27560e01b815260040160405180910390fd5b6001600160a01b03811681146105a4575f5ffd5b5f5f60408385031215610dea575f5ffd5b8235610df581610dc5565b91506020830135610e0581610dc5565b809150509250929050565b634e487b7160e01b5f52604160045260245ffd5b5f5f60408385031215610e35575f5ffd5b8235610e4081610dc5565b9150602083013567ffffffffffffffff811115610e5b575f5ffd5b8301601f81018513610e6b575f5ffd5b803567ffffffffffffffff811115610e8557610e85610e10565b604051601f8201601f19908116603f0116810167ffffffffffffffff81118282101715610eb457610eb4610e10565b604052818152828201602001871015610ecb575f5ffd5b816020840160208301375f602083830101528093505050509250929050565b602081525f82518060208401528060208501604085015e5f604082850101526040601f19601f83011684010191505092915050565b5f60208284031215610f2f575f5ffd5b8135610d9681610dc5565b5f60208284031215610f4a575f5ffd5b8151610d9681610dc5565b5f60208284031215610f65575f5ffd5b815160ff81168114610d96575f5ffd5b634e487b7160e01b5f52601160045260245ffd5b6001815b6001841115610fc457808504811115610fa857610fa8610f75565b6001841615610fb657908102905b60019390931c928002610f8d565b935093915050565b5f82610fda575060016108e0565b81610fe657505f6108e0565b8160018114610ffc576002811461100657611022565b60019150506108e0565b60ff84111561101757611017610f75565b50506001821b6108e0565b5060208310610133831016604e8410600b8410161715611045575081810a6108e0565b6110515f198484610f89565b805f190482111561106457611064610f75565b029392505050565b5f610d9660ff841683610fcc565b5f6020828403121561108a575f5ffd5b5051919050565b60ff82811682821603908111156108e0576108e0610f75565b80820281158282048414176108e0576108e0610f75565b5f826110db57634e487b7160e01b5f52601260045260245ffd5b500490565b5f82518060208501845e5f92019182525091905056fe360894a13ba1a3210667c828492db98dca3e2076cc3735a920a3ca505d382bbca26469706673582212203264f753931fbe392425c685c554da8556fa36a180b43b2fd6ae2b616db025b864736f6c634300081c0033",
  "linkReferences": {},
  "deployedLinkReferences": {}
}