{
  "_format": "hh-sol-artifact-1",
  "contractName": "OrionAssetERC4626PriceAdapter",
  "sourceName": "contracts/price/OrionAssetERC4626PriceAdapter.sol",
  "abi": [
    {
      "inputs": [
        {
          "internalType": "address",
          "name": "configAddress",
          "type": "address"
        }
      ],
      "stateMutability": "nonpayable",
      "type": "constructor"
    },
    {
      "inputs": [],
      "name": "InvalidAdapter",
      "type": "error"
    },
    {
      "inputs": [],
      "name": "ZeroAddress",
      "type": "error"
    },
    {
      "inputs": [],
      "name": "config",
      "outputs": [
        {
          "internalType": "contract IOrionConfig",
          "name": "",
          "type": "address"
        }
      ],
      "stateMutability": "view",
      "type": "function"
    },
    {
      "inputs": [
        {
          "internalType": "address",
          "name": "vaultAsset",
          "type": "address"
        }
      ],
      "name": "getPriceData",
      "outputs": [
        {
          "internalType": "uint256",
          "name": "price",
          "type": "uint256"
        },
        {
          "internalType": "uint8",
          "name": "decimals",
          "type": "uint8"
        }
      ],
      "stateMutability": "view",
      "type": "function"
    },
    {
      "inputs": [],
      "name": "underlyingAsset",
      "outputs": [
        {
          "internalType": "address",
          "name": "",
          "type": "address"
        }
      ],
      "stateMutability": "view",
      "type": "function"
    },
    {
      "inputs": [],
      "name": "underlyingAssetDecimals",
      "outputs": [
        {
          "internalType": "uint8",
          "name": "",
          "type": "uint8"
        }
      ],
      "stateMutability": "view",
      "type": "function"
    },
    {
      "inputs": [
        {
          "internalType": "address",
          "name": "asset",
          "type": "address"
        }
      ],
      "name": "validatePriceAdapter",
      "outputs": [
        {
          "internalType": "bool",
          "name": "",
          "type": "bool"
        }
      ],
      "stateMutability": "view",
      "type": "function"
    }
  ],
  "bytecode": "0x608060405234801561000f575f5ffd5b5060405161064d38038061064d83398101604081905261002e91610182565b6001600160a01b0381166100555760405163d92e233d60e01b815260040160405180910390fd5b5f80546001600160a01b0319166001600160a01b03831690811790915560408051631c56369f60e21b81529051637158da7c916004808201926020929091908290030181865afa1580156100ab573d5f5f3e3d5ffd5b505050506040513d601f19601f820116820180604052508101906100cf9190610182565b600180546001600160a01b0319166001600160a01b039290921691821790556040805163313ce56760e01b8152905163313ce567916004808201926020929091908290030181865afa158015610127573d5f5f3e3d5ffd5b505050506040513d601f19601f8201168201806040525081019061014b91906101a4565b600160146101000a81548160ff021916908360ff160217905550506101c4565b6001600160a01b038116811461017f575f5ffd5b50565b5f60208284031215610192575f5ffd5b815161019d8161016b565b9392505050565b5f602082840312156101b4575f5ffd5b815160ff8116811461019d575f5ffd5b61047c806101d15f395ff3fe608060405234801561000f575f5ffd5b5060043610610055575f3560e01c80636ab8bdef146100595780637158da7c1461008157806372279ba1146100ac57806379502c55146100d65780639a32c207146100e8575b5f5ffd5b61006c6100673660046102cb565b61010e565b60405190151581526020015b60405180910390f35b600154610094906001600160a01b031681565b6040516001600160a01b039091168152602001610078565b6100bf6100ba3660046102cb565b6101bd565b6040805192835260ff909116602083015201610078565b5f54610094906001600160a01b031681565b6001546100fc90600160a01b900460ff1681565b60405160ff9091168152602001610078565b5f816001600160a01b03166338d52e0f6040518163ffffffff1660e01b8152600401602060405180830381865afa925050508015610169575060408051601f3d908101601f19168201909252610166918101906102ed565b60015b6101865760405163fbf66df160e01b815260040160405180910390fd5b6001546001600160a01b038281169116146101b45760405163fbf66df160e01b815260040160405180910390fd5b50506001919050565b5f5f5f836001600160a01b031663313ce5676040518163ffffffff1660e01b8152600401602060405180830381865afa1580156101fc573d5f5f3e3d5ffd5b505050506040513d601f19601f820116820180604052508101906102209190610308565b90505f61022e82600a610421565b6040516303d1689d60e11b8152600481018290529091505f906001600160a01b038716906307a2d13a90602401602060405180830381865afa158015610276573d5f5f3e3d5ffd5b505050506040513d601f19601f8201168201806040525081019061029a919061042f565b6001549097600160a01b90910460ff169650945050505050565b6001600160a01b03811681146102c8575f5ffd5b50565b5f602082840312156102db575f5ffd5b81356102e6816102b4565b9392505050565b5f602082840312156102fd575f5ffd5b81516102e6816102b4565b5f60208284031215610318575f5ffd5b815160ff811681146102e6575f5ffd5b634e487b7160e01b5f52601160045260245ffd5b6001815b60018411156103775780850481111561035b5761035b610328565b600184161561036957908102905b60019390931c928002610340565b935093915050565b5f8261038d5750600161041b565b8161039957505f61041b565b81600181146103af57600281146103b9576103d5565b600191505061041b565b60ff8411156103ca576103ca610328565b50506001821b61041b565b5060208310610133831016604e8410600b84101617156103f8575081810a61041b565b6104045f19848461033c565b805f190482111561041757610417610328565b0290505b92915050565b5f6102e660ff84168361037f565b5f6020828403121561043f575f5ffd5b505191905056fea2646970667358221220cf94fa475cc690e031d602dfe0f39068e223acd6993273ec349b4c89f0aad4a764736f6c634300081c0033",
  "linkReferences": {},
  "deployedLinkReferences": {}
}