{
  "_format": "hh-sol-artifact-1",
  "contractName": "TransparentVaultFactory",
  "sourceName": "contracts/factories/TransparentVaultFactory.sol",
  "abi": [
    {
      "inputs": [
        {
          "internalType": "address",
          "name": "configAddress",
          "type": "address"
        }
      ],
      "stateMutability": "nonpayable",
      "type": "constructor"
    },
    {
      "inputs": [],
      "name": "NotAuthorized",
      "type": "error"
    },
    {
      "inputs": [],
      "name": "SystemNotIdle",
      "type": "error"
    },
    {
      "inputs": [],
      "name": "ZeroAddress",
      "type": "error"
    },
    {
      "anonymous": false,
      "inputs": [
        {
          "indexed": true,
          "internalType": "address",
          "name": "vault",
          "type": "address"
        },
        {
          "indexed": true,
          "internalType": "address",
          "name": "vaultOwner",
          "type": "address"
        },
        {
          "indexed": true,
          "internalType": "address",
          "name": "curator",
          "type": "address"
        },
        {
          "indexed": false,
          "internalType": "string",
          "name": "name",
          "type": "string"
        },
        {
          "indexed": false,
          "internalType": "string",
          "name": "symbol",
          "type": "string"
        },
        {
          "indexed": false,
          "internalType": "uint8",
          "name": "feeType",
          "type": "uint8"
        },
        {
          "indexed": false,
          "internalType": "uint16",
          "name": "performanceFee",
          "type": "uint16"
        },
        {
          "indexed": false,
          "internalType": "uint16",
          "name": "managementFee",
          "type": "uint16"
        },
        {
          "indexed": false,
          "internalType": "enum EventsLib.VaultType",
          "name": "vaultType",
          "type": "uint8"
        }
      ],
      "name": "OrionVaultCreated",
      "type": "event"
    },
    {
      "inputs": [],
      "name": "config",
      "outputs": [
        {
          "internalType": "contract IOrionConfig",
          "name": "",
          "type": "address"
        }
      ],
      "stateMutability": "view",
      "type": "function"
    },
    {
      "inputs": [
        {
          "internalType": "address",
          "name": "curator",
          "type": "address"
        },
        {
          "internalType": "string",
          "name": "name",
          "type": "string"
        },
        {
          "internalType": "string",
          "name": "symbol",
          "type": "string"
        },
        {
          "internalType": "uint8",
          "name": "feeType",
          "type": "uint8"
        },
        {
          "internalType": "uint16",
          "name": "performanceFee",
          "type": "uint16"
        },
        {
          "internalType": "uint16",
          "name": "managementFee",
          "type": "uint16"
        },
        {
          "internalType": "address",
          "name": "depositAccessControl",
          "type": "address"
        }
      ],
      "name": "createVault",
      "outputs": [
        {
          "internalType": "address",
          "name": "vault",
          "type": "address"
        }
      ],
      "stateMutability": "nonpayable",
      "type": "function"
    }
  ],
  "bytecode": "0x6080604052348015600e575f5ffd5b5060405161575a38038061575a833981016040819052602b916074565b6001600160a01b03811660515760405163d92e233d60e01b815260040160405180910390fd5b5f80546001600160a01b0319166001600160a01b0392909216919091179055609f565b5f602082840312156083575f5ffd5b81516001600160a01b03811681146098575f5ffd5b9392505050565b6156ae806100ac5f395ff3fe608060405234801561000f575f5ffd5b5060043610610034575f3560e01c806366a1a3871461003857806379502c5514610061575b5f5ffd5b61004b6100463660046103c4565b610073565b6040516100589190610487565b60405180910390f35b5f5461004b906001600160a01b031681565b5f8054604051638771de8760e01b815233916001600160a01b031690638771de87906100a3908490600401610487565b602060405180830381865afa1580156100be573d5f5f3e3d5ffd5b505050506040513d601f19601f820116820180604052508101906100e2919061049b565b6100ff5760405163ea8e4eb560e01b815260040160405180910390fd5b5f54604051633c17975360e21b81526001600160a01b039091169063f05e5d4c9061012e908e90600401610487565b602060405180830381865afa158015610149573d5f5f3e3d5ffd5b505050506040513d601f19601f8201168201806040525081019061016d919061049b565b61018a5760405163ea8e4eb560e01b815260040160405180910390fd5b5f5f9054906101000a90046001600160a01b03166001600160a01b031663edcf9c1f6040518163ffffffff1660e01b8152600401602060405180830381865afa1580156101d9573d5f5f3e3d5ffd5b505050506040513d601f19601f820116820180604052508101906101fd919061049b565b61021a576040516312aecd8160e01b815260040160405180910390fd5b5f818c5f5f9054906101000a90046001600160a01b03168d8d8d8d8d8d8d8d60405161024590610347565b6102599b9a999897969594939291906104e9565b604051809103905ff080158015610272573d5f5f3e3d5ffd5b505f8054604051631e832de160e21b81529295508593506001600160a01b031691637a0cb784916102a89185919060040161058f565b5f604051808303815f87803b1580156102bf575f5ffd5b505af11580156102d1573d5f5f3e3d5ffd5b505050508b6001600160a01b0316826001600160a01b0316846001600160a01b03167f91700e2f05ab5287673189803ecbe9609340db98196ee954ac9865daf4308d2d8e8e8e8e8e8e8e5f6040516103309897969594939291906105ac565b60405180910390a450509998505050505050505050565b61506c8061060d83390190565b80356001600160a01b038116811461036a575f5ffd5b919050565b5f5f83601f84011261037f575f5ffd5b5081356001600160401b03811115610395575f5ffd5b6020830191508360208285010111156103ac575f5ffd5b9250929050565b803561ffff8116811461036a575f5ffd5b5f5f5f5f5f5f5f5f5f60e08a8c0312156103dc575f5ffd5b6103e58a610354565b985060208a01356001600160401b038111156103ff575f5ffd5b61040b8c828d0161036f565b90995097505060408a01356001600160401b03811115610429575f5ffd5b6104358c828d0161036f565b90975095505060608a013560ff8116811461044e575f5ffd5b935061045c60808b016103b3565b925061046a60a08b016103b3565b915061047860c08b01610354565b90509295985092959850929598565b6001600160a01b0391909116815260200190565b5f602082840312156104ab575f5ffd5b815180151581146104ba575f5ffd5b9392505050565b81835281816020850137505f828201602090810191909152601f909101601f19169091010190565b6001600160a01b038c811682528b811660208301528a166040820152610120606082018190525f9061051e9083018a8c6104c1565b828103608084015261053181898b6104c1565b60ff9790971660a0840152505061ffff93841660c08201529190921660e08201526001600160a01b0390911661010090910152979650505050505050565b6002811061058b57634e487b7160e01b5f52602160045260245ffd5b9052565b6001600160a01b0383168152604081016104ba602083018461056f565b60c081525f6105bf60c083018a8c6104c1565b82810360208401526105d281898b6104c1565b91505060ff8616604083015261ffff8516606083015261ffff841660808301526105ff60a083018461056f565b999850505050505050505056fe60c060405234801561000f575f5ffd5b5060405161506c38038061506c83398101604081905261002e91610949565b888888888888888888866001600160a01b0316637158da7c6040518163ffffffff1660e01b8152600401602060405180830381865afa158015610073573d5f5f3e3d5ffd5b505050506040513d601f19601f820116820180604052508101906100979190610a22565b868660036100a58382610ac8565b5060046100b28282610ac8565b5050505f5f6100c6836105fa60201b60201c565b91509150816100d65760126100d8565b805b60ff1660a05250506001600160a01b03908116608052600160055588166101125760405163e6c4247b60e01b815260040160405180910390fd5b6001600160a01b0387166101395760405163e6c4247b60e01b815260040160405180910390fd5b600680546001600160a01b03808c166001600160a01b031992831617909255600780548b841690831617905560088054928a16929091168217905560408051630691d8b960e31b8152905163348ec5c8916004808201926020929091908290030181865afa1580156101ad573d5f5f3e3d5ffd5b505050506040513d601f19601f820116820180604052508101906101d19190610a22565b60095f6101000a8154816001600160a01b0302191690836001600160a01b03160217905550866001600160a01b0316633a0dad8e6040518163ffffffff1660e01b8152600401602060405180830381865afa158015610232573d5f5f3e3d5ffd5b505050506040513d601f19601f820116820180604052508101906102569190610a22565b600a80546001600160a01b03199081166001600160a01b0393841617909155600b805490911683831617905560408051631c56369f60e21b815290515f928a1691637158da7c9160048083019260209291908290030181865afa1580156102bf573d5f5f3e3d5ffd5b505050506040513d601f19601f820116820180604052508101906102e39190610a22565b6001600160a01b031663313ce5676040518163ffffffff1660e01b8152600401602060405180830381865afa15801561031e573d5f5f3e3d5ffd5b505050506040513d601f19601f820116820180604052508101906103429190610b82565b9050601260ff8216111561036957604051631c03248960e11b815260040160405180910390fd5b600460ff8616111561038e576040516317dbc4cb60e21b815260040160405180910390fd5b610bb861ffff851611156103b5576040516317dbc4cb60e21b815260040160405180910390fd5b61012c61ffff841611156103dc576040516317dbc4cb60e21b815260040160405180910390fd5b8460ff1660048111156103f1576103f1610b9b565b6016805460ff1916600183600481111561040d5761040d610b9b565b02179055506016805461ffff85811663010000000264ffff00000019918816610100029190911664ffffffff00199092169190911717905561045081600a610ca6565b6017556016805460198054909160ff1690829060ff1916600183600481111561047b5761047b610b9b565b02179055508154815461ffff61010092839004811690920262ffff0019821681178455845463010000009081900490931690920264ffff0000001990921664ffffffff001990911617178155600191820154910155426018556104dc6106d0565b505050505050505050506105eb60085f9054906101000a90046001600160a01b03166001600160a01b0316637158da7c6040518163ffffffff1660e01b8152600401602060405180830381865afa158015610539573d5f5f3e3d5ffd5b505050506040513d601f19601f8201168201806040525081019061055d9190610a22565b60085f9054906101000a90046001600160a01b03166001600160a01b031663d1717c7d6040518163ffffffff1660e01b8152600401602060405180830381865afa1580156105ad573d5f5f3e3d5ffd5b505050506040513d601f19601f820116820180604052508101906105d19190610b82565b6105dc90600a610ca6565b601f919063ffffffff166107a5565b50505050505050505050610da7565b60408051600481526024810182526020810180516001600160e01b031663313ce56760e01b17905290515f918291829182916001600160a01b0387169161064091610cb4565b5f60405180830381855afa9150503d805f8114610678576040519150601f19603f3d011682016040523d82523d5f602084013e61067d565b606091505b509150915081801561069157506020815110155b156106c4575f818060200190518101906106ab9190610cca565b905060ff81116106c2576001969095509350505050565b505b505f9485945092505050565b60085460408051636c366a2760e11b815290515f926001600160a01b03169163d86cd44e91600480830192869291908290030181865afa158015610716573d5f5f3e3d5ffd5b505050506040513d5f823e601f3d908101601f1916820160405261073d9190810190610ce1565b90505f5b81518110156107a1575f61077883838151811061076057610760610d93565b6020026020010151600c6107c260201b90919060201c565b90508061079857604051630ea075bf60e21b815260040160405180910390fd5b50600101610741565b5050565b5f6107ba846001600160a01b038516846107df565b949350505050565b5f6107d6836001600160a01b0384166107fb565b90505b92915050565b5f82815260028401602052604081208290556107ba8484610847565b5f81815260018301602052604081205461084057508154600181810184555f8481526020808220909301849055845484825282860190935260409020919091556107d9565b505f6107d9565b5f6107d683836107fb565b6001600160a01b0381168114610866575f5ffd5b50565b805161087481610852565b919050565b634e487b7160e01b5f52604160045260245ffd5b604051601f8201601f191681016001600160401b03811182821017156108b5576108b5610879565b604052919050565b5f82601f8301126108cc575f5ffd5b81516001600160401b038111156108e5576108e5610879565b6108f8601f8201601f191660200161088d565b81815284602083860101111561090c575f5ffd5b8160208501602083015e5f918101602001919091529392505050565b805160ff81168114610874575f5ffd5b805161ffff81168114610874575f5ffd5b5f5f5f5f5f5f5f5f5f6101208a8c031215610962575f5ffd5b895161096d81610852565b985061097b60208b01610869565b975061098960408b01610869565b60608b01519097506001600160401b038111156109a4575f5ffd5b6109b08c828d016108bd565b60808c015190975090506001600160401b038111156109cd575f5ffd5b6109d98c828d016108bd565b9550506109e860a08b01610928565b93506109f660c08b01610938565b9250610a0460e08b01610938565b9150610a136101008b01610869565b90509295985092959850929598565b5f60208284031215610a32575f5ffd5b8151610a3d81610852565b9392505050565b600181811c90821680610a5857607f821691505b602082108103610a7657634e487b7160e01b5f52602260045260245ffd5b50919050565b601f821115610ac357805f5260205f20601f840160051c81016020851015610aa15750805b601f840160051c820191505b81811015610ac0575f8155600101610aad565b50505b505050565b81516001600160401b03811115610ae157610ae1610879565b610af581610aef8454610a44565b84610a7c565b6020601f821160018114610b27575f8315610b105750848201515b5f19600385901b1c1916600184901b178455610ac0565b5f84815260208120601f198516915b82811015610b565787850151825560209485019460019092019101610b36565b5084821015610b7357868401515f19600387901b60f8161c191681555b50505050600190811b01905550565b5f60208284031215610b92575f5ffd5b6107d682610928565b634e487b7160e01b5f52602160045260245ffd5b634e487b7160e01b5f52601160045260245ffd5b6001815b6001841115610bfe57808504811115610be257610be2610baf565b6001841615610bf057908102905b60019390931c928002610bc7565b935093915050565b5f82610c14575060016107d9565b81610c2057505f6107d9565b8160018114610c365760028114610c4057610c5c565b60019150506107d9565b60ff841115610c5157610c51610baf565b50506001821b6107d9565b5060208310610133831016604e8410600b8410161715610c7f575081810a6107d9565b610c8b5f198484610bc3565b805f1904821115610c9e57610c9e610baf565b029392505050565b5f6107d660ff841683610c06565b5f82518060208501845e5f920191825250919050565b5f60208284031215610cda575f5ffd5b5051919050565b5f60208284031215610cf1575f5ffd5b81516001600160401b03811115610d06575f5ffd5b8201601f81018413610d16575f5ffd5b80516001600160401b03811115610d2f57610d2f610879565b8060051b610d3f6020820161088d565b91825260208184018101929081019087841115610d5a575f5ffd5b6020850194505b83851015610d885784519250610d7683610852565b82825260209485019490910190610d61565b979650505050505050565b634e487b7160e01b5f52603260045260245ffd5b60805160a0516142a7610dc55f395f50505f61116201526142a75ff3fe608060405234801561000f575f5ffd5b50600436106102e2575f3560e01c806394bf804d1161018c57806394bf804d146104c557806395d89b411461053a57806397ee114414610542578063985ba4ae146105785780639908840c1461058b578063a68a526714610594578063a9059cbb146105a7578063aa2f892d146105ba578063acdb3d51146105cd578063b1bd7e2e146105d6578063b3d7f6b9146105e9578063b460af94146105fc578063b6eba6531461060a578063ba08765214610620578063bdca916514610633578063c0b568e11461063c578063c1fd8c551461064f578063c3f0d30e14610662578063c63d75b61461047c578063c6e6f59214610675578063ca78e83914610688578063ce96cb7714610690578063d3d03458146106a3578063d853365f146106b9578063d905777e146106c1578063dd62ed3e146106d4578063e3352c4c146106e7578063e51a85f6146106fa578063e5e971931461070d578063e66f53b714610720578063ef8b30f714610675578063f7dcd96e14610733575f5ffd5b806301e1d114146102e657806303d44854146102fd57806306fdde031461031257806307a2d13a14610327578063095ea7b31461033a5780630a28a4771461035d5780630c6a62dd146103705780630d1e6667146103835780630df571f71461039657806318160ddd146103a957806318c21949146103b15780631c599d70146103c45780631f52692b146103d757806323b872dd146103f7578063283c81681461040a5780632f190c9a14610413578063313ce56714610426578063348ec5c81461043b57806338d52e0f1461044e5780633a0dad8e146104565780633ab6d27c14610469578063402d267d1461047c578063493a6e21146104905780634cdad506146103275780634e85b135146104a357806353a0bfdf146104b85780636e553f65146104c557806370a08231146104d85780637847ea53146104eb57806379502c551461050b5780638f5c94651461051e575b5f5ffd5b600e545b6040519081526020015b60405180910390f35b61031061030b366004613a39565b610746565b005b61031a610995565b6040516102f49190613aa8565b6102ea610335366004613add565b610a25565b61034d610348366004613b08565b610a36565b60405190151581526020016102f4565b6102ea61036b366004613add565b610a4d565b61031061037e366004613b32565b610a59565b610310610391366004613add565b610b59565b6103106103a4366004613b4d565b610f09565b6002546102ea565b6103106103bf366004613add565b610f84565b6103106103d2366004613b32565b611053565b6006546103ea906001600160a01b031681565b6040516102f49190613b6d565b61034d610405366004613b81565b6110c7565b6102ea60185481565b6102ea610421366004613add565b6110ec565b60125b60405160ff90911681526020016102f4565b6009546103ea906001600160a01b031681565b6103ea611160565b600a546103ea906001600160a01b031681565b610310610477366004613bdc565b611184565b6102ea61048a366004613b32565b505f1990565b61031061049e366004613add565b611436565b6104ab6116ad565b6040516102f49190613c67565b601b5461034d9060ff1681565b6102ea6104d3366004613c79565b6116be565b6102ea6104e6366004613b32565b6116d8565b6104f66301e1338081565b60405163ffffffff90911681526020016102f4565b6008546103ea906001600160a01b031681565b61052761271081565b60405161ffff90911681526020016102f4565b61031a6116f2565b6016546017546105689160ff81169161ffff610100830481169263010000009004169084565b6040516102f49493929190613cbb565b610310610586366004613d39565b611701565b61052761012c81565b6102ea6105a2366004613d80565b61180e565b61034d6105b5366004613b08565b61184e565b6103106105c8366004613add565b61185b565b6102ea60155481565b6103106105e4366004613dae565b611adb565b6102ea6105f7366004613add565b611d4a565b6102ea6104d3366004613dec565b610612611d56565b6040516102f4929190613e20565b6102ea61062e366004613dec565b612010565b610527610bb881565b61031061064a366004613add565b612206565b600b546103ea906001600160a01b031681565b610310610670366004613add565b6123a8565b6102ea610683366004613add565b612509565b610310612514565b6102ea61069e366004613b32565b61254e565b6106ab612561565b6040516102f4929190613e7e565b610429601281565b6102ea6106cf366004613b32565b61268b565b6102ea6106e2366004613eca565b612695565b6103106106f5366004613b32565b6126bf565b6102ea610708366004613add565b6127ca565b61031061071b366004613add565b612803565b6007546103ea906001600160a01b031681565b6102ea610741366004613add565b6129e2565b6006546001600160a01b031633146107715760405163ea8e4eb560e01b815260040160405180910390fd5b61077b600c612a4d565b5f5b8181101561087b575f83838381811061079857610798613ef6565b90506020020160208101906107ad9190613b32565b600854604051633af32abf60e01b81529192506001600160a01b031690633af32abf906107de908490600401613b6d565b602060405180830381865afa1580156107f9573d5f5f3e3d5ffd5b505050506040513d601f19601f8201168201806040525081019061081d9190613f0a565b610845578060405163751dff9760e11b815260040161083c9190613b6d565b60405180910390fd5b5f610851600c83612a56565b90508061087157604051630ea075bf60e21b815260040160405180910390fd5b505060010161077d565b506108e7306001600160a01b03166338d52e0f6040518163ffffffff1660e01b8152600401602060405180830381865afa1580156108bb573d5f5f3e3d5ffd5b505050506040513d601f19601f820116820180604052508101906108df9190613f29565b600c90612a6a565b61095857610956306001600160a01b03166338d52e0f6040518163ffffffff1660e01b8152600401602060405180830381865afa15801561092a573d5f5f3e3d5ffd5b505050506040513d601f19601f8201168201806040525081019061094e9190613f29565b600c90612a56565b505b7fa975983c7a4dcf80477a447433240de322f36428f1b3864e50d7a45e14c68b668282604051610989929190613f44565b60405180910390a15050565b6060600380546109a490613f90565b80601f01602080910402602001604051908101604052809291908181526020018280546109d090613f90565b8015610a1b5780601f106109f257610100808354040283529160200191610a1b565b820191905f5260205f20905b8154815290600101906020018083116109fe57829003601f168201915b5050505050905090565b5f610a30825f612a7e565b92915050565b5f33610a43818585612abf565b5060019392505050565b5f610a30826001612ad1565b6006546001600160a01b03163314610a845760405163ea8e4eb560e01b815260040160405180910390fd5b600854604051633c17975360e21b81526001600160a01b039091169063f05e5d4c90610ab4908490600401613b6d565b602060405180830381865afa158015610acf573d5f5f3e3d5ffd5b505050506040513d601f19601f82011682018060405250810190610af39190613f0a565b610b105760405163ea8e4eb560e01b815260040160405180910390fd5b600780546001600160a01b0319166001600160a01b0383169081179091556040517f83293ffeebb677b167941693470018acf300605df266a35e9fdb66f24ff00fe0905f90a250565b610b61612b03565b600b546001600160a01b031615610bfe57600b5460405163835e5d0560e01b81526001600160a01b039091169063835e5d0590610ba2903390600401613b6d565b602060405180830381865afa158015610bbd573d5f5f3e3d5ffd5b505050506040513d601f19601f82011682018060405250810190610be19190613f0a565b610bfe576040516301ec871560e51b815260040160405180910390fd5b60085f9054906101000a90046001600160a01b03166001600160a01b031663edcf9c1f6040518163ffffffff1660e01b8152600401602060405180830381865afa158015610c4e573d5f5f3e3d5ffd5b505050506040513d601f19601f82011682018060405250810190610c729190613f0a565b610c8f576040516312aecd8160e01b815260040160405180910390fd5b601b5460ff1680610d0a575060085460405163f764eb4560e01b81526001600160a01b039091169063f764eb4590610ccb903090600401613b6d565b602060405180830381865afa158015610ce6573d5f5f3e3d5ffd5b505050506040513d601f19601f82011682018060405250810190610d0a9190613f0a565b15610d28576040516304b1e71160e41b815260040160405180910390fd5b805f03610d5157610d37611160565b604051636b30633560e01b815260040161083c9190613b6d565b60085460408051633228036560e11b815290515f926001600160a01b03169163645006ca9160048083019260209291908290030181865afa158015610d98573d5f5f3e3d5ffd5b505050506040513d601f19601f82011682018060405250810190610dbc9190613fc8565b905080821015610de3578181604051631e2be21160e01b815260040161083c929190613fdf565b5f610dec611160565b6001600160a01b03166370a08231336040518263ffffffff1660e01b8152600401610e179190613b6d565b602060405180830381865afa158015610e32573d5f5f3e3d5ffd5b505050506040513d601f19601f82011682018060405250810190610e569190613fc8565b905080831115610e7957604051632ca2f52b60e11b815260040160405180910390fd5b600a54610ea59033906001600160a01b031685610e94611160565b6001600160a01b0316929190612b2d565b5f610eb1600f33612b9a565b9150610ecc905033610ec38684614001565b600f9190612bc0565b50604051849033907f55896b30a78fc55b78937f8014dde3f0035e9d37a4f6ac36841fb8b62f7e2b13905f90a3505050610f066001600555565b50565b6009546001600160a01b03163314610f345760405163ea8e4eb560e01b815260040160405180910390fd5b8015610f80578060155f828254610f4b9190614001565b9091555050601554604051829084907f8b8789cf9157fe7b016901e4ed3a5d0971caa8b7c031da0b25638ccf65841b2a905f90a45b5050565b6006546001600160a01b03163314610faf5760405163ea8e4eb560e01b815260040160405180910390fd5b805f03610fbe57610d37611160565b601554811115610fe157604051632ca2f52b60e11b815260040160405180910390fd5b8060155f828254610ff29190614014565b9091555050600a5460405163741fca4b60e01b8152600481018390526001600160a01b039091169063741fca4b906024015f604051808303815f87803b15801561103a575f5ffd5b505af115801561104c573d5f5f3e3d5ffd5b5050505050565b6006546001600160a01b0316331461107e5760405163ea8e4eb560e01b815260040160405180910390fd5b600b80546001600160a01b0319166001600160a01b0383169081179091556040517f18aa293bf81e5a91c99858f9e4c4895515a31801f5fba29560c35ec5c91bc905905f90a250565b5f336110d4858285612bd5565b6110df858585612c20565b60019150505b9392505050565b5f5f6110f8600f612c7d565b9050805f0361110957505f92915050565b5f6111148285612c87565b90505f805b828161ffff161015611157575f611135600f61ffff8416612c96565b915061114390508184614001565b9250508061115090614027565b9050611119565b50949350505050565b7f000000000000000000000000000000000000000000000000000000000000000090565b6006546001600160a01b031633146111af5760405163ea8e4eb560e01b815260040160405180910390fd5b60085f9054906101000a90046001600160a01b03166001600160a01b031663edcf9c1f6040518163ffffffff1660e01b8152600401602060405180830381865afa1580156111ff573d5f5f3e3d5ffd5b505050506040513d601f19601f820116820180604052508101906112239190613f0a565b611240576040516312aecd8160e01b815260040160405180910390fd5b600460ff84161115611265576040516317dbc4cb60e21b815260040160405180910390fd5b610bb861ffff8316111561128c576040516317dbc4cb60e21b815260040160405180910390fd5b61012c61ffff821611156112b3576040516317dbc4cb60e21b815260040160405180910390fd5b6112bb612ca4565b805160198054909190829060ff191660018360048111156112de576112de613ca7565b021790555060208201518154604084015161ffff90811663010000000264ffff0000001991909316610100021664ffffffff00199091161717815560609091015160019091015560ff8316600481111561133a5761133a613ca7565b6016805460ff1916600183600481111561135657611356613ca7565b02179055506016805461ffff83811663010000000264ffff00000019918616610100029190911664ffffffff00199092169190911717905560085460408051630df1aa5760e31b815290516001600160a01b0390921691636f8d52b8916004808201926020929091908290030181865afa1580156113d6573d5f5f3e3d5ffd5b505050506040513d601f19601f820116820180604052508101906113fa9190613fc8565b6114049042614001565b60185560405130907fb31d0e1c8c885e6966984333ce964f4a58ad72b6c4e89e688ecc4549ad97558e905f90a2505050565b600a546001600160a01b031633146114615760405163ea8e4eb560e01b815260040160405180910390fd5b611469612b03565b5f6114746012612c7d565b9050805f0361148357506116a3565b5f6115018260085f9054906101000a90046001600160a01b03166001600160a01b031663bcdb8a186040518163ffffffff1660e01b8152600401602060405180830381865afa1580156114d8573d5f5f3e3d5ffd5b505050506040513d601f19601f820116820180604052508101906114fc9190613fc8565b612c87565b90505f60095f9054906101000a90046001600160a01b03166001600160a01b03166314b19c5a6040518163ffffffff1660e01b8152600401602060405180830381865afa158015611554573d5f5f3e3d5ffd5b505050506040513d601f19601f820116820180604052508101906115789190614047565b90505f61158460025490565b90505f805b848161ffff16101561169c575f806115a2601282612c96565b90925090506115b2601283612d5e565b505f6115c0828b885f612d72565b90506115cc3083612da7565b6115d68286614001565b600a54604051634adfc2e760e01b81529196506001600160a01b031690634adfc2e7906116099086908590600401614062565b5f604051808303815f87803b158015611620575f5ffd5b505af1158015611632573d5f5f3e3d5ffd5b505050508661ffff16836001600160a01b0316306001600160a01b03167f215abfcd108b85fbee47f26fda2de66f90f14fa5fcaf0201698ad8ac9323545f8486604051611680929190613fdf565b60405180910390a45050508061169590614027565b9050611589565b5050505050505b610f066001600555565b60606116b9600c612ddb565b905090565b5f60405163125ad87760e31b815260040160405180910390fd5b6001600160a01b03165f9081526020819052604090205490565b6060600480546109a490613f90565b6009546001600160a01b0316331461172c5760405163ea8e4eb560e01b815260040160405180910390fd5b611736601c612de7565b815f5b8161ffff168161ffff1610156117b2576117a985858361ffff1681811061176257611762613ef6565b6117789260206040909202019081019150613b32565b86868461ffff1681811061178e5761178e613ef6565b90506040020160200135601c612bc09092919063ffffffff16565b50600101611739565b505f6117c560125b61033590600a61415e565b6017549091508111156117d85760178190555b600e83905560405183907f5e1ff954b5e5257e9ee5d4cb07059e8f5e69b1aaaf9911e5d8d90a6894de9c21905f90a25050505050565b5f61184661181d846001614001565b611825612df0565b61183090600a61415e565b60025461183d9190614001565b86919085612e6c565b949350505050565b5f33610a43818585612c20565b611863612b03565b60085f9054906101000a90046001600160a01b03166001600160a01b031663edcf9c1f6040518163ffffffff1660e01b8152600401602060405180830381865afa1580156118b3573d5f5f3e3d5ffd5b505050506040513d601f19601f820116820180604052508101906118d79190613f0a565b6118f4576040516312aecd8160e01b815260040160405180910390fd5b601b5460ff168061196f575060085460405163f764eb4560e01b81526001600160a01b039091169063f764eb4590611930903090600401613b6d565b602060405180830381865afa15801561194b573d5f5f3e3d5ffd5b505050506040513d601f19601f8201168201806040525081019061196f9190613f0a565b1561198d576040516304b1e71160e41b815260040160405180910390fd5b805f036119af5730604051636b30633560e01b815260040161083c9190613b6d565b60085460408051630912ae6d60e01b815290515f926001600160a01b031691630912ae6d9160048083019260209291908290030181865afa1580156119f6573d5f5f3e3d5ffd5b505050506040513d601f19601f82011682018060405250810190611a1a9190613fc8565b905080821015611a41578181604051631f29a4af60e31b815260040161083c929190613fdf565b5f611a4b336116d8565b905080831115611a6e57604051632ca2f52b60e11b815260040160405180910390fd5b611a7a30338186612b2d565b5f611a86601233612b9a565b9150611aa1905033611a988684614001565b60129190612bc0565b50604051849033907f222dc200773fe9b45015bf792e8fee37d651e3590c215806a5042404b6d741d2905f90a3505050610f066001600555565b6007546001600160a01b03163314611b065760405163ea8e4eb560e01b815260040160405180910390fd5b5f819003611b2757604051631121aa8d60e01b815260040160405180910390fd5b611b31601f612de7565b5f816001600160401b03811115611b4a57611b4a61416c565b604051908082528060200260200182016040528015611b73578160200160208202803683370190505b5090505f82815b8161ffff168161ffff161015611c71575f86868361ffff16818110611ba157611ba1613ef6565b611bb79260206040909202019081019150613b32565b90505f87878461ffff16818110611bd057611bd0613ef6565b9050604002016020016020810190611be89190614191565b905081868461ffff1681518110611c0157611c01613ef6565b6001600160a01b03909216602092830291909101909101525f611c2f601f8463ffffffff80861690612bc016565b905080611c5157826040516346bdabe160e01b815260040161083c9190613b6d565b611c6163ffffffff831687614001565b9550505050806001019050611b7a565b50611c7b83612eae565b60085f9054906101000a90046001600160a01b03166001600160a01b031663d1717c7d6040518163ffffffff1660e01b8152600401602060405180830381865afa158015611ccb573d5f5f3e3d5ffd5b505050506040513d601f19601f82011682018060405250810190611cef91906141ac565b611cfa90600a61415e565b8214611d1957604051639006dd2760e01b815260040160405180910390fd5b60405133907f2d47a742b8d7df7c1fc5a9a631b206b364e6cb2722490759f63bb3ab14b132e0905f90a25050505050565b5f610a30826001612a7e565b601b54606090819060ff1615611ed95760408051600180825281830190925290602080830190803683375050604080516001808252818301909252929450905060208083019080368337505060085460408051631c56369f60e21b815290519394506001600160a01b0390911692637158da7c925060048083019260209291908290030181865afa158015611ded573d5f5f3e3d5ffd5b505050506040513d601f19601f82011682018060405250810190611e119190613f29565b825f81518110611e2357611e23613ef6565b6001600160a01b039283166020918202929092018101919091526008546040805163d1717c7d60e01b81529051919093169263d1717c7d9260048083019391928290030181865afa158015611e7a573d5f5f3e3d5ffd5b505050506040513d601f19601f82011682018060405250810190611e9e91906141ac565b611ea990600a61415e565b815f81518110611ebb57611ebb613ef6565b602002602001019063ffffffff16908163ffffffff16815250509091565b5f611ee4601f612c7d565b90508061ffff166001600160401b03811115611f0257611f0261416c565b604051908082528060200260200182016040528015611f2b578160200160208202803683370190505b5092508061ffff166001600160401b03811115611f4a57611f4a61416c565b604051908082528060200260200182016040528015611f73578160200160208202803683370190505b5091505f5b8161ffff168161ffff16101561200a575f80611f99601f61ffff8516612c96565b9150915081868461ffff1681518110611fb457611fb4613ef6565b60200260200101906001600160a01b031690816001600160a01b03168152505080858461ffff1681518110611feb57611feb613ef6565b63ffffffff909216602092830291909101909101525050600101611f78565b50509091565b5f612019612b03565b60085460405163f764eb4560e01b81526001600160a01b039091169063f764eb4590612049903090600401613b6d565b602060405180830381865afa158015612064573d5f5f3e3d5ffd5b505050506040513d601f19601f820116820180604052508101906120889190613f0a565b6120a55760405163125ad87760e31b815260040160405180910390fd5b5f6120af8361268b565b9050808511156120d857828582604051632e52afbb60e21b815260040161083c939291906141c7565b845f036120fa5730604051636b30633560e01b815260040161083c9190613b6d565b336001600160a01b0384161461211557612115833387612bd5565b5f61211f86610a25565b905080600e5f8282546121329190614014565b9091555061214290508487612da7565b836001600160a01b0316856001600160a01b0316336001600160a01b03167ffbde797d201c681b91056529119e0b02407c7bb96a4a2c75c01fc9667232c8db848a604051612191929190613fdf565b60405180910390a4600a54604051627b8a6760e11b8152600481018390526001600160a01b0387811660248301529091169062f714ce906044015f604051808303815f87803b1580156121e2575f5ffd5b505af11580156121f4573d5f5f3e3d5ffd5b50929450505050506110e56001600555565b61220e612b03565b60085f9054906101000a90046001600160a01b03166001600160a01b031663edcf9c1f6040518163ffffffff1660e01b8152600401602060405180830381865afa15801561225e573d5f5f3e3d5ffd5b505050506040513d601f19601f820116820180604052508101906122829190613f0a565b61229f576040516312aecd8160e01b815260040160405180910390fd5b805f036122ae57610d37611160565b5f6122ba600f33612b9a565b915050818110156122de57604051632ca2f52b60e11b815260040160405180910390fd5b5f6122e98383614014565b9050805f03612303576122fd600f33612d5e565b50612311565b61230f600f3383612bc0565b505b600a546040516351edffb160e01b81526001600160a01b03909116906351edffb1906123439033908790600401614062565b5f604051808303815f87803b15801561235a575f5ffd5b505af115801561236c573d5f5f3e3d5ffd5b50506040518592503391507f96a9a6886cdf3047a125454218a23d3961fd3a78643123b248a9d106d0ac94fd905f90a35050610f066001600555565b6123b0612b03565b60085f9054906101000a90046001600160a01b03166001600160a01b031663edcf9c1f6040518163ffffffff1660e01b8152600401602060405180830381865afa158015612400573d5f5f3e3d5ffd5b505050506040513d601f19601f820116820180604052508101906124249190613f0a565b612441576040516312aecd8160e01b815260040160405180910390fd5b805f036124635730604051636b30633560e01b815260040161083c9190613b6d565b5f61246f601233612b9a565b9150508181101561249357604051632ca2f52b60e11b815260040160405180910390fd5b5f61249e8383614014565b9050805f036124b8576124b2601233612d5e565b506124c6565b6124c460123383612bc0565b505b6124d1303385612f26565b604051839033907f046d3e17087d323298991516e3fdec36fe1204d6bff7fb6e2b8eca77b80a22ad905f90a35050610f066001600555565b5f610a30825f612ad1565b6008546001600160a01b0316331461253f5760405163ea8e4eb560e01b815260040160405180910390fd5b601b805460ff19166001179055565b5f610a3061255b836116d8565b5f612a7e565b6060805f61256f601c612c7d565b90508061ffff166001600160401b0381111561258d5761258d61416c565b6040519080825280602002602001820160405280156125b6578160200160208202803683370190505b5092508061ffff166001600160401b038111156125d5576125d561416c565b6040519080825280602002602001820160405280156125fe578160200160208202803683370190505b5091505f5b8161ffff168161ffff16101561200a575f80612624601c61ffff8516612c96565b9150915081868461ffff168151811061263f5761263f613ef6565b60200260200101906001600160a01b031690816001600160a01b03168152505080858461ffff168151811061267657612676613ef6565b60209081029190910101525050600101612603565b5f610a30826116d8565b6001600160a01b039182165f90815260016020908152604080832093909416825291909152205490565b6008546001600160a01b031633146126ea5760405163ea8e4eb560e01b815260040160405180910390fd5b6126f5600c82612f4c565b505f80612703601f84612b9a565b915091508161271157505050565b61271c601f84612d5e565b505f306001600160a01b03166338d52e0f6040518163ffffffff1660e01b8152600401602060405180830381865afa15801561275a573d5f5f3e3d5ffd5b505050506040513d601f19601f8201168201806040525081019061277e9190613f29565b90505f8061278d601f84612b9a565b9150915081156127b4576127ae836127a58684614001565b601f9190612bc0565b506127c2565b6127c0601f8486612bc0565b505b505050505050565b5f5f6127d583612f60565b90505f6127e28285614014565b90505f6127ee8261302b565b90506127fa8184614001565b95945050505050565b600a546001600160a01b0316331461282e5760405163ea8e4eb560e01b815260040160405180910390fd5b612836612b03565b5f612841600f612c7d565b9050805f0361285057506116a3565b5f6128a58260085f9054906101000a90046001600160a01b03166001600160a01b031663bcdb8a186040518163ffffffff1660e01b8152600401602060405180830381865afa1580156114d8573d5f5f3e3d5ffd5b90505f60095f9054906101000a90046001600160a01b03166001600160a01b03166314b19c5a6040518163ffffffff1660e01b8152600401602060405180830381865afa1580156128f8573d5f5f3e3d5ffd5b505050506040513d601f19601f8201168201806040525081019061291c9190614047565b90505f61292860025490565b90505f805b848161ffff16101561169c575f80612946600f82612c96565b9092509050612956600f83612d5e565b505f612964828b885f613124565b90506129708382613150565b61297a8286614001565b94508661ffff16836001600160a01b0316306001600160a01b03167f4e2ca0515ed1aef1395f66b5303bb5d6f1bf9d61a353fa53f73f8ac9973fa9f685856040516129c6929190613fdf565b60405180910390a4505050806129db90614027565b905061292d565b5f5f6129ee6012612c7d565b9050805f036129ff57505f92915050565b5f612a0a8285612c87565b90505f805b828161ffff161015611157575f612a2b601261ffff8416612c96565b9150612a3990508184614001565b92505080612a4690614027565b9050612a0f565b610f0681613184565b5f6110e5836001600160a01b0384166131dd565b5f6110e5836001600160a01b038416613224565b5f6110e5612a8b600e5490565b612a96906001614001565b612a9e612df0565b612aa990600a61415e565b600254612ab69190614001565b85919085612e6c565b612acc838383600161323b565b505050565b5f6110e5612add612df0565b612ae890600a61415e565b600254612af59190614001565b600e54612ab6906001614001565b600260055403612b2657604051633ee5aeb560e01b815260040160405180910390fd5b6002600555565b6040516001600160a01b038481166024830152838116604483015260648201839052612b949186918216906323b872dd906084015b604051602081830303815290604052915060e01b6020820180516001600160e01b03838183161783525050505061330d565b50505050565b5f808080612bb1866001600160a01b038716613370565b909450925050505b9250929050565b5f611846846001600160a01b038516846133a8565b5f612be08484612695565b90505f19811015612b945781811015612c1257828183604051637dc7a0d960e11b815260040161083c939291906141c7565b612b9484848484035f61323b565b6001600160a01b038316612c49575f604051634b637e8f60e11b815260040161083c9190613b6d565b6001600160a01b038216612c72575f60405163ec442f0560e01b815260040161083c9190613b6d565b612acc8383836133c4565b5f610a30826134d7565b5f8282188284100282186110e5565b5f808080612bb186866134e1565b604080516080810182525f808252602082018190529181018290526060810191909152426018541115612d3957604080516080810190915260198054829060ff166004811115612cf657612cf6613ca7565b6004811115612d0757612d07613ca7565b8152815461ffff6101008204811660208401526301000000909104166040820152600190910154606090910152919050565b604080516080810190915260168054829060ff166004811115612cf657612cf6613ca7565b5f6110e5836001600160a01b03841661350a565b5f6127fa612d81856001614001565b612d89612df0565b612d9490600a61415e565b612d9e9086614001565b87919085612e6c565b6001600160a01b038216612dd0575f604051634b637e8f60e11b815260040161083c9190613b6d565b610f80825f836133c4565b60605f6110e583613526565b610f068161357f565b5f5f612dfa611160565b6001600160a01b031663313ce5676040518163ffffffff1660e01b8152600401602060405180830381865afa158015612e35573d5f5f3e3d5ffd5b505050506040513d601f19601f82011682018060405250810190612e5991906141ac565b9050612e668160126141e8565b91505090565b5f612e99612e79836135c8565b8015612e9457505f8480612e8f57612e8f614201565b868809115b151590565b612ea48686866135f4565b6127fa9190614001565b5f5b8151811015610f8057612ee6828281518110612ece57612ece613ef6565b6020026020010151600c612a6a90919063ffffffff16565b612f1e57818181518110612efc57612efc613ef6565b602002602001015160405163751dff9760e11b815260040161083c9190613b6d565b600101612eb0565b612acc83846001600160a01b031663a9059cbb8585604051602401612b62929190614062565b5f6110e5836001600160a01b0384166136a4565b5f5f612f6a612ca4565b9050806040015161ffff165f03612f8357505f92915050565b60408101515f90612f9b9061ffff16856127106135f4565b905061184660095f9054906101000a90046001600160a01b03166001600160a01b0316634ff0876a6040518163ffffffff1660e01b8152600401602060405180830381865afa158015612ff0573d5f5f3e3d5ffd5b505050506040513d601f19601f820116820180604052508101906130149190614215565b829063ffffffff908116906301e13380906135f416565b5f5f613035612ca4565b9050806020015161ffff165f0361304e57505f92915050565b5f61306561305e6012600a61415e565b855f61180e565b90505f5f613075845f0151613787565b9150915081831080613085575080155b1561309557505f95945050505050565b5f6130b36130a38386614014565b602087015161ffff1690846135f4565b90505f6130c382896127106135f4565b905061311860095f9054906101000a90046001600160a01b03166001600160a01b0316634ff0876a6040518163ffffffff1660e01b8152600401602060405180830381865afa158015612ff0573d5f5f3e3d5ffd5b98975050505050505050565b5f6127fa613130612df0565b61313b90600a61415e565b6131459085614001565b612d9e866001614001565b6001600160a01b038216613179575f60405163ec442f0560e01b815260040161083c9190613b6d565b610f805f83836133c4565b5f61318d825490565b90505f5b818110156131d657826001015f845f0183815481106131b2576131b2613ef6565b905f5260205f20015481526020019081526020015f205f9055806001019050613191565b50505f9055565b5f6131e88383613224565b61321d57508154600181810184555f848152602080822090930184905584548482528286019093526040902091909155610a30565b505f610a30565b5f9081526001919091016020526040902054151590565b6001600160a01b038416613264575f60405163e602df0560e01b815260040161083c9190613b6d565b6001600160a01b03831661328d575f604051634a1406b160e11b815260040161083c9190613b6d565b6001600160a01b038085165f9081526001602090815260408083209387168352929052208290558015612b9457826001600160a01b0316846001600160a01b03167f8c5be1e5ebec7d5bd14f71427d1e84f3dd0314c0f7b2291e5b200ac8c7c3b925846040516132ff91815260200190565b60405180910390a350505050565b5f5f60205f8451602086015f885af18061332c576040513d5f823e3d81fd5b50505f513d91508115613343578060011415613350565b6001600160a01b0384163b155b15612b945783604051635274afe760e01b815260040161083c9190613b6d565b5f81815260028301602052604081205481908061339d576133918585613871565b92505f9150612bb99050565b600192509050612bb9565b5f8281526002840160205260408120829055611846848461387c565b6001600160a01b0383166133ee578060025f8282546133e39190614001565b9091555061344b9050565b6001600160a01b0383165f908152602081905260409020548181101561342d5783818360405163391434e360e21b815260040161083c939291906141c7565b6001600160a01b0384165f9081526020819052604090209082900390555b6001600160a01b03821661346757600280548290039055613485565b6001600160a01b0382165f9081526020819052604090208054820190555b816001600160a01b0316836001600160a01b03167fddf252ad1be2c89b69c2b068fc378daa952ba7f163c4a11628f55a4df523b3ef836040516134ca91815260200190565b60405180910390a3505050565b5f610a3082613887565b5f80806134ee8585613890565b5f81815260029690960160205260409095205494959350505050565b5f81815260028301602052604081208190556110e5838361389b565b6060815f0180548060200260200160405190810160405280929190818152602001828054801561357357602002820191905f5260205f20905b81548152602001906001019080831161355f575b50505050509050919050565b5f613589826134d7565b90505f5b818110156135be57600283015f6135a48584613890565b815260208101919091526040015f9081205560010161358d565b50610f8082612a4d565b5f60028260038111156135dd576135dd613ca7565b6135e79190614230565b60ff166001149050919050565b5f5f5f61360186866138a6565b91509150815f036136255783818161361b5761361b614201565b04925050506110e5565b81841161363c5761363c60038515026011186138c2565b5f848688095f868103871696879004966002600389028118808a02820302808a02820302808a02820302808a02820302808a02820302808a02909103029181900381900460010185841190960395909502919093039390930492909217029150509392505050565b5f818152600183016020526040812054801561377e575f6136c6600183614014565b85549091505f906136d990600190614014565b9050808214613738575f865f0182815481106136f7576136f7613ef6565b905f5260205f200154905080875f01848154811061371757613717613ef6565b5f918252602080832090910192909255918252600188019052604090208390555b85548690806137495761374961425d565b600190038181905f5260205f20015f90559055856001015f8681526020019081526020015f205f905560019350505050610a30565b5f915050610a30565b5f808061379460126117ba565b90505f8460048111156137a9576137a9613ca7565b036137b95780925082915061386b565b60038460048111156137cd576137cd613ca7565b036137df57601754925082915061386b565b60018460048111156137f3576137f3613ca7565b0361380b57613801816138d3565b925080915061386b565b600284600481111561381f5761381f613ca7565b036138375761382d816138d3565b925082915061386b565b600484600481111561384b5761384b613ca7565b0361386b5760175461386590613860836138d3565b6139f9565b92508291505b50915091565b5f6110e58383613a08565b5f6110e583836131dd565b5f610a30825490565b5f6110e58383613a13565b5f6110e583836136a4565b5f805f1983850993909202808410938190039390930393915050565b634e487b715f52806020526024601cfd5b5f5f60085f9054906101000a90046001600160a01b03166001600160a01b031663f3cc69936040518163ffffffff1660e01b8152600401602060405180830381865afa158015613925573d5f5f3e3d5ffd5b505050506040513d601f19601f820116820180604052508101906139499190614047565b61ffff1690505f6139de60095f9054906101000a90046001600160a01b03166001600160a01b0316634ff0876a6040518163ffffffff1660e01b8152600401602060405180830381865afa1580156139a3573d5f5f3e3d5ffd5b505050506040513d601f19601f820116820180604052508101906139c79190614215565b839063ffffffff908116906301e13380906135f416565b90506118466139ef82612710614001565b85906127106135f4565b5f8282188284110282186110e5565b5f6110e58383613224565b5f825f018281548110613a2857613a28613ef6565b905f5260205f200154905092915050565b5f5f60208385031215613a4a575f5ffd5b82356001600160401b03811115613a5f575f5ffd5b8301601f81018513613a6f575f5ffd5b80356001600160401b03811115613a84575f5ffd5b8560208260051b8401011115613a98575f5ffd5b6020919091019590945092505050565b602081525f82518060208401528060208501604085015e5f604082850101526040601f19601f83011684010191505092915050565b5f60208284031215613aed575f5ffd5b5035919050565b6001600160a01b0381168114610f06575f5ffd5b5f5f60408385031215613b19575f5ffd5b8235613b2481613af4565b946020939093013593505050565b5f60208284031215613b42575f5ffd5b81356110e581613af4565b5f5f60408385031215613b5e575f5ffd5b50508035926020909101359150565b6001600160a01b0391909116815260200190565b5f5f5f60608486031215613b93575f5ffd5b8335613b9e81613af4565b92506020840135613bae81613af4565b929592945050506040919091013590565b60ff81168114610f06575f5ffd5b61ffff81168114610f06575f5ffd5b5f5f5f60608486031215613bee575f5ffd5b8335613bf981613bbf565b92506020840135613c0981613bcd565b91506040840135613c1981613bcd565b809150509250925092565b5f8151808452602084019350602083015f5b82811015613c5d5781516001600160a01b0316865260209586019590910190600101613c36565b5093949350505050565b602081525f6110e56020830184613c24565b5f5f60408385031215613c8a575f5ffd5b823591506020830135613c9c81613af4565b809150509250929050565b634e487b7160e01b5f52602160045260245ffd5b6080810160058610613cdb57634e487b7160e01b5f52602160045260245ffd5b94815261ffff93841660208201529190921660408201526060015290565b5f5f83601f840112613d09575f5ffd5b5081356001600160401b03811115613d1f575f5ffd5b6020830191508360208260061b8501011115612bb9575f5ffd5b5f5f5f60408486031215613d4b575f5ffd5b83356001600160401b03811115613d60575f5ffd5b613d6c86828701613cf9565b909790965060209590950135949350505050565b5f5f5f60608486031215613d92575f5ffd5b8335925060208401359150604084013560048110613c19575f5ffd5b5f5f60208385031215613dbf575f5ffd5b82356001600160401b03811115613dd4575f5ffd5b613de085828601613cf9565b90969095509350505050565b5f5f5f60608486031215613dfe575f5ffd5b833592506020840135613e1081613af4565b91506040840135613c1981613af4565b604081525f613e326040830185613c24565b82810360208401528084518083526020830191506020860192505f5b81811015613e7257835163ffffffff16835260209384019390920191600101613e4e565b50909695505050505050565b604081525f613e906040830185613c24565b82810360208401528084518083526020830191506020860192505f5b81811015613e72578351835260209384019390920191600101613eac565b5f5f60408385031215613edb575f5ffd5b8235613ee681613af4565b91506020830135613c9c81613af4565b634e487b7160e01b5f52603260045260245ffd5b5f60208284031215613f1a575f5ffd5b815180151581146110e5575f5ffd5b5f60208284031215613f39575f5ffd5b81516110e581613af4565b602080825281018290525f8360408301825b85811015613f86578235613f6981613af4565b6001600160a01b0316825260209283019290910190600101613f56565b5095945050505050565b600181811c90821680613fa457607f821691505b602082108103613fc257634e487b7160e01b5f52602260045260245ffd5b50919050565b5f60208284031215613fd8575f5ffd5b5051919050565b918252602082015260400190565b634e487b7160e01b5f52601160045260245ffd5b80820180821115610a3057610a30613fed565b81810381811115610a3057610a30613fed565b5f61ffff821661ffff810361403e5761403e613fed565b60010192915050565b5f60208284031215614057575f5ffd5b81516110e581613bcd565b6001600160a01b03929092168252602082015260400190565b6001815b60018411156140b65780850481111561409a5761409a613fed565b60018416156140a857908102905b60019390931c92800261407f565b935093915050565b5f826140cc57506001610a30565b816140d857505f610a30565b81600181146140ee57600281146140f857614114565b6001915050610a30565b60ff84111561410957614109613fed565b50506001821b610a30565b5060208310610133831016604e8410600b8410161715614137575081810a610a30565b6141435f19848461407b565b805f190482111561415657614156613fed565b029392505050565b5f6110e560ff8416836140be565b634e487b7160e01b5f52604160045260245ffd5b63ffffffff81168114610f06575f5ffd5b5f602082840312156141a1575f5ffd5b81356110e581614180565b5f602082840312156141bc575f5ffd5b81516110e581613bbf565b6001600160a01b039390931683526020830191909152604082015260600190565b60ff8281168282160390811115610a3057610a30613fed565b634e487b7160e01b5f52601260045260245ffd5b5f60208284031215614225575f5ffd5b81516110e581614180565b5f60ff83168061424e57634e487b7160e01b5f52601260045260245ffd5b8060ff84160691505092915050565b634e487b7160e01b5f52603160045260245ffdfea264697066735822122090635046e063afc611053bfe17766549c4cd5e65d52d89cd8f2142ae82f5c0e264736f6c634300081c0033a26469706673582212207b5246768c580bc7152205902e6a9e0b72e8573e2ff38b9201d07cc6c34097e264736f6c634300081c0033",
  "linkReferences": {},
  "deployedLinkReferences": {}
}