{
  "_format": "hh-sol-artifact-1",
  "contractName": "TransparentVaultFactory",
  "sourceName": "contracts/factories/TransparentVaultFactory.sol",
  "abi": [
    {
      "inputs": [
        {
          "internalType": "address",
          "name": "configAddress",
          "type": "address"
        }
      ],
      "stateMutability": "nonpayable",
      "type": "constructor"
    },
    {
      "inputs": [],
      "name": "SystemNotIdle",
      "type": "error"
    },
    {
      "inputs": [],
      "name": "UnauthorizedAccess",
      "type": "error"
    },
    {
      "inputs": [],
      "name": "ZeroAddress",
      "type": "error"
    },
    {
      "anonymous": false,
      "inputs": [
        {
          "indexed": true,
          "internalType": "address",
          "name": "vault",
          "type": "address"
        },
        {
          "indexed": true,
          "internalType": "address",
          "name": "vaultOwner",
          "type": "address"
        },
        {
          "indexed": true,
          "internalType": "address",
          "name": "curator",
          "type": "address"
        },
        {
          "indexed": false,
          "internalType": "string",
          "name": "name",
          "type": "string"
        },
        {
          "indexed": false,
          "internalType": "string",
          "name": "symbol",
          "type": "string"
        },
        {
          "indexed": false,
          "internalType": "uint8",
          "name": "feeType",
          "type": "uint8"
        },
        {
          "indexed": false,
          "internalType": "uint16",
          "name": "performanceFee",
          "type": "uint16"
        },
        {
          "indexed": false,
          "internalType": "uint16",
          "name": "managementFee",
          "type": "uint16"
        },
        {
          "indexed": false,
          "internalType": "enum EventsLib.VaultType",
          "name": "vaultType",
          "type": "uint8"
        }
      ],
      "name": "OrionVaultCreated",
      "type": "event"
    },
    {
      "inputs": [],
      "name": "config",
      "outputs": [
        {
          "internalType": "contract IOrionConfig",
          "name": "",
          "type": "address"
        }
      ],
      "stateMutability": "view",
      "type": "function"
    },
    {
      "inputs": [
        {
          "internalType": "address",
          "name": "curator",
          "type": "address"
        },
        {
          "internalType": "string",
          "name": "name",
          "type": "string"
        },
        {
          "internalType": "string",
          "name": "symbol",
          "type": "string"
        },
        {
          "internalType": "uint8",
          "name": "feeType",
          "type": "uint8"
        },
        {
          "internalType": "uint16",
          "name": "performanceFee",
          "type": "uint16"
        },
        {
          "internalType": "uint16",
          "name": "managementFee",
          "type": "uint16"
        }
      ],
      "name": "createVault",
      "outputs": [
        {
          "internalType": "address",
          "name": "vault",
          "type": "address"
        }
      ],
      "stateMutability": "nonpayable",
      "type": "function"
    }
  ],
  "bytecode": "0x6080604052348015600e575f5ffd5b5060405161578b38038061578b833981016040819052602b916074565b6001600160a01b03811660515760405163d92e233d60e01b815260040160405180910390fd5b5f80546001600160a01b0319166001600160a01b0392909216919091179055609f565b5f602082840312156083575f5ffd5b81516001600160a01b03811681146098575f5ffd5b9392505050565b6156df806100ac5f395ff3fe608060405234801561000f575f5ffd5b5060043610610034575f3560e01c8063341624941461003857806379502c5514610061575b5f5ffd5b61004b610046366004610347565b610073565b6040516100589190610408565b60405180910390f35b5f5461004b906001600160a01b031681565b5f8054604051638771de8760e01b815233916001600160a01b031690638771de87906100a3908490600401610408565b602060405180830381865afa1580156100be573d5f5f3e3d5ffd5b505050506040513d601f19601f820116820180604052508101906100e2919061041c565b6100ff57604051631a27eac360e11b815260040160405180910390fd5b6001600160a01b038a166101265760405163d92e233d60e01b815260040160405180910390fd5b5f5f9054906101000a90046001600160a01b03166001600160a01b031663edcf9c1f6040518163ffffffff1660e01b8152600401602060405180830381865afa158015610175573d5f5f3e3d5ffd5b505050506040513d601f19601f82011682018060405250810190610199919061041c565b6101b6576040516312aecd8160e01b815260040160405180910390fd5b5f818b5f5f9054906101000a90046001600160a01b03168c8c8c8c8c8c8c6040516101e0906102e0565b6101f39a9998979695949392919061046a565b604051809103905ff08015801561020c573d5f5f3e3d5ffd5b505f8054604051631e832de160e21b81529295508593506001600160a01b031691637a0cb78491610242918591906004016104fd565b5f604051808303815f87803b158015610259575f5ffd5b505af115801561026b573d5f5f3e3d5ffd5b505050508a6001600160a01b0316826001600160a01b0316846001600160a01b03167f91700e2f05ab5287673189803ecbe9609340db98196ee954ac9865daf4308d2d8d8d8d8d8d8d8d5f6040516102ca98979695949392919061051a565b60405180910390a4505098975050505050505050565b61512f8061057b83390190565b5f5f83601f8401126102fd575f5ffd5b5081356001600160401b03811115610313575f5ffd5b60208301915083602082850101111561032a575f5ffd5b9250929050565b803561ffff81168114610342575f5ffd5b919050565b5f5f5f5f5f5f5f5f60c0898b03121561035e575f5ffd5b88356001600160a01b0381168114610374575f5ffd5b975060208901356001600160401b0381111561038e575f5ffd5b61039a8b828c016102ed565b90985096505060408901356001600160401b038111156103b8575f5ffd5b6103c48b828c016102ed565b909650945050606089013560ff811681146103dd575f5ffd5b92506103eb60808a01610331565b91506103f960a08a01610331565b90509295985092959890939650565b6001600160a01b0391909116815260200190565b5f6020828403121561042c575f5ffd5b8151801515811461043b575f5ffd5b9392505050565b81835281816020850137505f828201602090810191909152601f909101601f19169091010190565b6001600160a01b038b811682528a8116602083015289166040820152610100606082018190525f9061049f908301898b610442565b82810360808401526104b281888a610442565b60ff9690961660a0840152505061ffff92831660c0820152911660e090910152979650505050505050565b600281106104f957634e487b7160e01b5f52602160045260245ffd5b9052565b6001600160a01b03831681526040810161043b60208301846104dd565b60c081525f61052d60c083018a8c610442565b828103602084015261054081898b610442565b91505060ff8616604083015261ffff8516606083015261ffff8416608083015261056d60a08301846104dd565b999850505050505050505056fe60c060405234801561000f575f5ffd5b5060405161512f38038061512f83398101604081905261002e916109ab565b8787878787878787856001600160a01b0316637158da7c6040518163ffffffff1660e01b8152600401602060405180830381865afa158015610072573d5f5f3e3d5ffd5b505050506040513d601f19601f820116820180604052508101906100969190610a7a565b858560036100a48382610b20565b5060046100b18282610b20565b5050505f5f6100c58361057660201b60201c565b91509150816100d55760126100d7565b805b60ff1660a05250506001600160a01b03908116608052600160055587166101115760405163e6c4247b60e01b815260040160405180910390fd5b6001600160a01b0386166101385760405163e6c4247b60e01b815260040160405180910390fd5b600680546001600160a01b03808b166001600160a01b031992831617909255600780548a841690831617905560088054928916929091168217905560408051630691d8b960e31b8152905163348ec5c8916004808201926020929091908290030181865afa1580156101ac573d5f5f3e3d5ffd5b505050506040513d601f19601f820116820180604052508101906101d09190610a7a565b60095f6101000a8154816001600160a01b0302191690836001600160a01b03160217905550856001600160a01b0316633a0dad8e6040518163ffffffff1660e01b8152600401602060405180830381865afa158015610231573d5f5f3e3d5ffd5b505050506040513d601f19601f820116820180604052508101906102559190610a7a565b600a5f6101000a8154816001600160a01b0302191690836001600160a01b03160217905550856001600160a01b031663d1717c7d6040518163ffffffff1660e01b8152600401602060405180830381865afa1580156102b6573d5f5f3e3d5ffd5b505050506040513d601f19601f820116820180604052508101906102da9190610bda565b600a60146101000a81548160ff021916908360ff1602179055505f600d819055505f6014819055505f6015819055505f866001600160a01b0316637158da7c6040518163ffffffff1660e01b8152600401602060405180830381865afa158015610346573d5f5f3e3d5ffd5b505050506040513d601f19601f8201168201806040525081019061036a9190610a7a565b6001600160a01b031663313ce5676040518163ffffffff1660e01b8152600401602060405180830381865afa1580156103a5573d5f5f3e3d5ffd5b505050506040513d601f19601f820116820180604052508101906103c99190610bda565b9050601260ff821611156103f057604051631c03248960e11b815260040160405180910390fd5b600460ff85161115610415576040516317dbc4cb60e21b815260040160405180910390fd5b610bb861ffff8416111561043c576040516317dbc4cb60e21b815260040160405180910390fd5b61012c61ffff83161115610463576040516317dbc4cb60e21b815260040160405180910390fd5b8360ff16600481111561047857610478610bf3565b6017805460ff1916600183600481111561049457610494610bf3565b02179055506017805461ffff84811663010000000264ffff00000019918716610100029190911664ffffffff0019909216919091171790556104d781600a610cfe565b6018556104e261064c565b50505050505050505061056960085f9054906101000a90046001600160a01b03166001600160a01b031663d86cd44e6040518163ffffffff1660e01b81526004015f60405180830381865afa15801561053d573d5f5f3e3d5ffd5b505050506040513d5f823e601f3d908101601f191682016040526105649190810190610d0c565b610721565b5050505050505050610e69565b60408051600481526024810182526020810180516001600160e01b031663313ce56760e01b17905290515f918291829182916001600160a01b038716916105bc91610dbe565b5f60405180830381855afa9150503d805f81146105f4576040519150601f19603f3d011682016040523d82523d5f602084013e6105f9565b606091505b509150915081801561060d57506020815110155b15610640575f818060200190518101906106279190610dd4565b905060ff811161063e576001969095509350505050565b505b505f9485945092505050565b60085460408051636c366a2760e11b815290515f926001600160a01b03169163d86cd44e91600480830192869291908290030181865afa158015610692573d5f5f3e3d5ffd5b505050506040513d5f823e601f3d908101601f191682016040526106b99190810190610d0c565b90505f5b815181101561071d575f6106f48383815181106106dc576106dc610deb565b6020026020010151600b61085960201b90919060201c565b90508061071457604051630ea075bf60e21b815260040160405180910390fd5b506001016106bd565b5050565b6007546001600160a01b03163b5f03610741576020805460ff1916905550565b6007546040516301ffc9a760e01b81526313ee8de160e11b60048201526001600160a01b03909116906301ffc9a790602401602060405180830381865afa9250505080156107ac575060408051601f3d908101601f191682019092526107a991810190610dff565b60015b6107c95760405163298febe360e01b815260040160405180910390fd5b801561083d576020805460ff1916600117905560075460405163c653526b60e01b81526001600160a01b039091169063c653526b9061080c908590600401610e1e565b5f604051808303815f87803b158015610823575f5ffd5b505af1158015610835573d5f5f3e3d5ffd5b505050505050565b60405163298febe360e01b815260040160405180910390fd5b50565b5f61086d836001600160a01b038416610876565b90505b92915050565b5f8181526001830160205260408120546108bb57508154600181810184555f848152602080822090930184905584548482528286019093526040902091909155610870565b505f610870565b6001600160a01b0381168114610856575f5ffd5b634e487b7160e01b5f52604160045260245ffd5b604051601f8201601f191681016001600160401b0381118282101715610912576109126108d6565b604052919050565b5f82601f830112610929575f5ffd5b81516001600160401b03811115610942576109426108d6565b610955601f8201601f19166020016108ea565b818152846020838601011115610969575f5ffd5b8160208501602083015e5f918101602001919091529392505050565b805160ff81168114610995575f5ffd5b919050565b805161ffff81168114610995575f5ffd5b5f5f5f5f5f5f5f5f610100898b0312156109c3575f5ffd5b88516109ce816108c2565b60208a01519098506109df816108c2565b60408a01519097506109f0816108c2565b60608a01519096506001600160401b03811115610a0b575f5ffd5b610a178b828c0161091a565b60808b015190965090506001600160401b03811115610a34575f5ffd5b610a408b828c0161091a565b945050610a4f60a08a01610985565b9250610a5d60c08a0161099a565b9150610a6b60e08a0161099a565b90509295985092959890939650565b5f60208284031215610a8a575f5ffd5b8151610a95816108c2565b9392505050565b600181811c90821680610ab057607f821691505b602082108103610ace57634e487b7160e01b5f52602260045260245ffd5b50919050565b601f821115610b1b57805f5260205f20601f840160051c81016020851015610af95750805b601f840160051c820191505b81811015610b18575f8155600101610b05565b50505b505050565b81516001600160401b03811115610b3957610b396108d6565b610b4d81610b478454610a9c565b84610ad4565b6020601f821160018114610b7f575f8315610b685750848201515b5f19600385901b1c1916600184901b178455610b18565b5f84815260208120601f198516915b82811015610bae5787850151825560209485019460019092019101610b8e565b5084821015610bcb57868401515f19600387901b60f8161c191681555b50505050600190811b01905550565b5f60208284031215610bea575f5ffd5b61086d82610985565b634e487b7160e01b5f52602160045260245ffd5b634e487b7160e01b5f52601160045260245ffd5b6001815b6001841115610c5657808504811115610c3a57610c3a610c07565b6001841615610c4857908102905b60019390931c928002610c1f565b935093915050565b5f82610c6c57506001610870565b81610c7857505f610870565b8160018114610c8e5760028114610c9857610cb4565b6001915050610870565b60ff841115610ca957610ca9610c07565b50506001821b610870565b5060208310610133831016604e8410600b8410161715610cd7575081810a610870565b610ce35f198484610c1b565b805f1904821115610cf657610cf6610c07565b029392505050565b5f61086d60ff841683610c5e565b5f60208284031215610d1c575f5ffd5b81516001600160401b03811115610d31575f5ffd5b8201601f81018413610d41575f5ffd5b80516001600160401b03811115610d5a57610d5a6108d6565b8060051b610d6a602082016108ea565b91825260208184018101929081019087841115610d85575f5ffd5b6020850194505b83851015610db35784519250610da1836108c2565b82825260209485019490910190610d8c565b979650505050505050565b5f82518060208501845e5f920191825250919050565b5f60208284031215610de4575f5ffd5b5051919050565b634e487b7160e01b5f52603260045260245ffd5b5f60208284031215610e0f575f5ffd5b81518015158114610a95575f5ffd5b602080825282518282018190525f918401906040840190835b81811015610e5e5783516001600160a01b0316835260209384019390920191600101610e37565b509095945050505050565b60805160a0516142a8610e875f395f50505f610ed801526142a85ff3fe608060405234801561000f575f5ffd5b50600436106102e2575f3560e01c806395d89b411161018c57806395d89b411461051e57806397ee114414610526578063985ba4ae1461055c5780639908840c1461056f578063a68a526714610578578063a9059cbb1461058b578063aa2f892d1461059e578063acdb3d51146105b1578063b1bd7e2e146105ba578063b3d7f6b9146105cd578063b460af94146105e0578063b6eba653146105ee578063ba08765214610604578063bdca916514610617578063c0b568e114610620578063c3f0d30e14610633578063c63d75b614610455578063c6e6f59214610646578063ca78e83914610659578063ce96cb7714610661578063d1717c7d14610674578063d3d0345814610688578063d82795481461069e578063d853365f146106a6578063d905777e146106ae578063dd62ed3e146106c1578063e3352c4c146106d4578063e51a85f6146106e7578063e5e97193146106fa578063e66f53b71461070d578063ef8b30f714610646578063f64c6f3214610720575f5ffd5b806301e1d114146102e657806303d44854146102fd57806306fdde031461031257806307a2d13a14610327578063095ea7b31461033a5780630a28a4771461035d5780630a605c6d146103705780630c6a62dd146103785780630d1e66671461038b5780630df571f71461039e57806318160ddd146103b157806318c21949146103b95780631f52692b146103cc57806323b872dd146103ec578063313ce567146103ff578063348ec5c81461041457806338d52e0f146104275780633a0dad8e1461042f5780633ab6d27c14610442578063402d267d14610455578063493a6e21146104695780634cdad506146103275780634e85b1351461047c57806353a0bfdf146104915780635de3dfdc1461049e5780636e553f65146104a957806370a08231146104bc5780637847ea53146104cf57806379502c55146104ef5780638f5c94651461050257806394bf804d146104a9575b5f5ffd5b600d545b6040519081526020015b60405180910390f35b61031061030b36600461386b565b610728565b005b61031a610906565b6040516102f491906138da565b6102ea61033536600461390f565b610996565b61034d61034836600461393a565b6109a7565b60405190151581526020016102f4565b6102ea61036b36600461390f565b6109be565b6015546102ea565b610310610386366004613964565b6109ca565b61031061039936600461390f565b610ad7565b6103106103ac36600461397f565b610d67565b6002546102ea565b6103106103c736600461390f565b610de2565b6006546103df906001600160a01b031681565b6040516102f4919061399f565b61034d6103fa3660046139b3565b610eb1565b60125b60405160ff90911681526020016102f4565b6009546103df906001600160a01b031681565b6103df610ed6565b600a546103df906001600160a01b031681565b610310610450366004613a0e565b610efa565b6102ea610463366004613964565b505f1990565b61031061047736600461390f565b6110c7565b6104846112f2565b6040516102f49190613a99565b60195461034d9060ff1681565b60205460ff1661034d565b6102ea6104b7366004613aab565b611303565b6102ea6104ca366004613964565b61131d565b6104da6301e1338081565b60405163ffffffff90911681526020016102f4565b6008546103df906001600160a01b031681565b61050b61271081565b60405161ffff90911681526020016102f4565b61031a611337565b60175460185461054c9160ff81169161ffff610100830481169263010000009004169084565b6040516102f49493929190613aed565b61031061056a366004613b6b565b611346565b61050b61012c81565b6102ea610586366004613bb2565b611453565b61034d61059936600461393a565b611493565b6103106105ac36600461390f565b6114a0565b6102ea60165481565b6103106105c8366004613be0565b61168e565b6102ea6105db36600461390f565b61189a565b6102ea6104b7366004613c1e565b6105f66118a6565b6040516102f4929190613c52565b6102ea610612366004613c1e565b611b7b565b61050b610bb881565b61031061062e36600461390f565b611d71565b61031061064136600461390f565b611f29565b6102ea61065436600461390f565b6120a1565b6103106120ac565b6102ea61066f366004613964565b6120e6565b600a5461040290600160a01b900460ff1681565b6106906120f9565b6040516102f4929190613cb0565b61050b609681565b610402601281565b6102ea6106bc366004613964565b612223565b6102ea6106cf366004613cfc565b61222d565b6103106106e2366004613964565b612257565b6102ea6106f536600461390f565b612388565b61031061070836600461390f565b6123c1565b6007546103df906001600160a01b031681565b6014546102ea565b6006546001600160a01b0316331461075357604051631a27eac360e11b815260040160405180910390fd5b61075d600b612579565b5f5b8181101561085d575f83838381811061077a5761077a613d28565b905060200201602081019061078f9190613964565b600854604051633af32abf60e01b81529192506001600160a01b031690633af32abf906107c090849060040161399f565b602060405180830381865afa1580156107db573d5f5f3e3d5ffd5b505050506040513d601f19601f820116820180604052508101906107ff9190613d3c565b610827578060405163751dff9760e11b815260040161081e919061399f565b60405180910390fd5b5f610833600b83612582565b90508061085357604051630ea075bf60e21b815260040160405180910390fd5b505060010161075f565b5060205460ff16156108c95760075460405163c653526b60e01b81526001600160a01b039091169063c653526b9061089b9085908590600401613d5b565b5f604051808303815f87803b1580156108b2575f5ffd5b505af11580156108c4573d5f5f3e3d5ffd5b505050505b7fa975983c7a4dcf80477a447433240de322f36428f1b3864e50d7a45e14c68b6682826040516108fa929190613d5b565b60405180910390a15050565b60606003805461091590613da7565b80601f016020809104026020016040519081016040528092919081815260200182805461094190613da7565b801561098c5780601f106109635761010080835404028352916020019161098c565b820191905f5260205f20905b81548152906001019060200180831161096f57829003601f168201915b5050505050905090565b5f6109a1825f612596565b92915050565b5f336109b48185856125d7565b5060019392505050565b5f6109a18260016125e9565b6006546001600160a01b031633146109f557604051631a27eac360e11b815260040160405180910390fd5b6001600160a01b038116610a1c5760405163e6c4247b60e01b815260040160405180910390fd5b600780546001600160a01b0319166001600160a01b03831617905560408051634e85b13560e01b81529051610aa1913091634e85b135916004808201925f929091908290030181865afa158015610a75573d5f5f3e3d5ffd5b505050506040513d5f823e601f3d908101601f19168201604052610a9c9190810190613e6d565b61261b565b6040516001600160a01b038216907f83293ffeebb677b167941693470018acf300605df266a35e9fdb66f24ff00fe0905f90a250565b610adf612748565b60085f9054906101000a90046001600160a01b03166001600160a01b031663edcf9c1f6040518163ffffffff1660e01b8152600401602060405180830381865afa158015610b2f573d5f5f3e3d5ffd5b505050506040513d601f19601f82011682018060405250810190610b539190613d3c565b610b70576040516312aecd8160e01b815260040160405180910390fd5b805f03610b9957610b7f610ed6565b604051636b30633560e01b815260040161081e919061399f565b60085460408051633228036560e11b815290515f926001600160a01b03169163645006ca9160048083019260209291908290030181865afa158015610be0573d5f5f3e3d5ffd5b505050506040513d601f19601f82011682018060405250810190610c049190613f01565b905080821015610c2b578181604051631e2be21160e01b815260040161081e929190613f18565b5f610c34610ed6565b6001600160a01b03166370a08231336040518263ffffffff1660e01b8152600401610c5f919061399f565b602060405180830381865afa158015610c7a573d5f5f3e3d5ffd5b505050506040513d601f19601f82011682018060405250810190610c9e9190613f01565b905080831115610cc157604051632ca2f52b60e11b815260040160405180910390fd5b600a54610ced9033906001600160a01b031685610cdc610ed6565b6001600160a01b0316929190612772565b5f610cf9600e336127df565b9150610d14905033610d0b8684613f3a565b600e9190612805565b508360145f828254610d269190613f3a565b9091555050604051849033907f55896b30a78fc55b78937f8014dde3f0035e9d37a4f6ac36841fb8b62f7e2b13905f90a3505050610d646001600555565b50565b6009546001600160a01b03163314610d9257604051631a27eac360e11b815260040160405180910390fd5b8015610dde578060165f828254610da99190613f3a565b9091555050601654604051829084907f8b8789cf9157fe7b016901e4ed3a5d0971caa8b7c031da0b25638ccf65841b2a905f90a45b5050565b6006546001600160a01b03163314610e0d57604051631a27eac360e11b815260040160405180910390fd5b805f03610e1c57610b7f610ed6565b601654811115610e3f57604051632ca2f52b60e11b815260040160405180910390fd5b8060165f828254610e509190613f4d565b9091555050600a5460405163741fca4b60e01b8152600481018390526001600160a01b039091169063741fca4b906024015f604051808303815f87803b158015610e98575f5ffd5b505af1158015610eaa573d5f5f3e3d5ffd5b5050505050565b5f33610ebe85828561281a565b610ec9858585612865565b60019150505b9392505050565b7f000000000000000000000000000000000000000000000000000000000000000090565b6006546001600160a01b03163314610f2557604051631a27eac360e11b815260040160405180910390fd5b60085f9054906101000a90046001600160a01b03166001600160a01b031663edcf9c1f6040518163ffffffff1660e01b8152600401602060405180830381865afa158015610f75573d5f5f3e3d5ffd5b505050506040513d601f19601f82011682018060405250810190610f999190613d3c565b610fb6576040516312aecd8160e01b815260040160405180910390fd5b600460ff84161115610fdb576040516317dbc4cb60e21b815260040160405180910390fd5b610bb861ffff83161115611002576040516317dbc4cb60e21b815260040160405180910390fd5b61012c61ffff82161115611029576040516317dbc4cb60e21b815260040160405180910390fd5b8260ff16600481111561103e5761103e613ad9565b6017805460ff1916600183600481111561105a5761105a613ad9565b02179055506017805464ffffffff00191661010061ffff85811691820264ffff00000019169290921763010000009285169283021790925560405190919060ff8616907fd24f39e523bfa412fa391702710dc62e1c82d87a8e83228a37c42be1b4870f45905f90a4505050565b600a546001600160a01b031633146110f257604051631a27eac360e11b815260040160405180910390fd5b6110fa612748565b5f61110560116128c2565b90508063ffffffff165f0361111a57506112e8565b5f609663ffffffff83161161112f5781611132565b60965b90505f60095f9054906101000a90046001600160a01b03166001600160a01b03166314b19c5a6040518163ffffffff1660e01b8152600401602060405180830381865afa158015611185573d5f5f3e3d5ffd5b505050506040513d601f19601f820116820180604052508101906111a99190613f60565b90505f6111b560025490565b90505f805b8461ffff168161ffff1610156112cb575f806111d76011826128cc565b90925090506111e76011836128da565b505f6111f5828b885f6128ee565b90506112013083612923565b61120b8286613f3a565b600a54604051634adfc2e760e01b81529196506001600160a01b031690634adfc2e79061123e9086908590600401613f7b565b5f604051808303815f87803b158015611255575f5ffd5b505af1158015611267573d5f5f3e3d5ffd5b505050508661ffff16836001600160a01b0316306001600160a01b03167f215abfcd108b85fbee47f26fda2de66f90f14fa5fcaf0201698ad8ac9323545f84866040516112b5929190613f18565b60405180910390a45050508060010190506111ba565b508060155f8282546112dd9190613f4d565b909155505050505050505b610d646001600555565b60606112fe600b612957565b905090565b5f60405163125ad87760e31b815260040160405180910390fd5b6001600160a01b03165f9081526020819052604090205490565b60606004805461091590613da7565b6009546001600160a01b0316331461137157604051631a27eac360e11b815260040160405180910390fd5b61137b601a612963565b815f5b8161ffff168161ffff1610156113f7576113ee85858361ffff168181106113a7576113a7613d28565b6113bd9260206040909202019081019150613964565b86868461ffff168181106113d3576113d3613d28565b90506040020160200135601a6128059092919063ffffffff16565b5060010161137e565b505f61140a60125b61033590600a614077565b60185490915081111561141d5760188190555b600d83905560405183907f5e1ff954b5e5257e9ee5d4cb07059e8f5e69b1aaaf9911e5d8d90a6894de9c21905f90a25050505050565b5f61148b611462846001613f3a565b61146a61296c565b61147590600a614077565b6002546114829190613f3a565b869190856129e8565b949350505050565b5f336109b4818585612865565b60085f9054906101000a90046001600160a01b03166001600160a01b031663edcf9c1f6040518163ffffffff1660e01b8152600401602060405180830381865afa1580156114f0573d5f5f3e3d5ffd5b505050506040513d601f19601f820116820180604052508101906115149190613d3c565b611531576040516312aecd8160e01b815260040160405180910390fd5b805f036115535730604051636b30633560e01b815260040161081e919061399f565b60085460408051630912ae6d60e01b815290515f926001600160a01b031691630912ae6d9160048083019260209291908290030181865afa15801561159a573d5f5f3e3d5ffd5b505050506040513d601f19601f820116820180604052508101906115be9190613f01565b9050808210156115e5578181604051631f29a4af60e31b815260040161081e929190613f18565b5f6115ef3361131d565b90508083111561161257604051632ca2f52b60e11b815260040160405180910390fd5b61161e30338186612772565b5f61162a6011336127df565b915061164590503361163c8684613f3a565b60119190612805565b508360155f8282546116579190613f3a565b9091555050604051849033907f222dc200773fe9b45015bf792e8fee37d651e3590c215806a5042404b6d741d2905f90a350505050565b6007546001600160a01b031633146116b957604051631a27eac360e11b815260040160405180910390fd5b5f8190036116da57604051631121aa8d60e01b815260040160405180910390fd5b6116e4601d612963565b5f816001600160401b038111156116fd576116fd613ddf565b604051908082528060200260200182016040528015611726578160200160208202803683370190505b5090505f82815b8161ffff168161ffff161015611824575f86868361ffff1681811061175457611754613d28565b61176a9260206040909202019081019150613964565b90505f87878461ffff1681811061178357611783613d28565b905060400201602001602081019061179b9190614096565b905081868461ffff16815181106117b4576117b4613d28565b6001600160a01b03909216602092830291909101909101525f6117e2601d8463ffffffff8086169061280516565b90508061180457826040516346bdabe160e01b815260040161081e919061399f565b61181463ffffffff831687613f3a565b955050505080600101905061172d565b5061182e83612a2a565b600a60149054906101000a900460ff16600a61184a9190614077565b821461186957604051639006dd2760e01b815260040160405180910390fd5b60405133907f2d47a742b8d7df7c1fc5a9a631b206b364e6cb2722490759f63bb3ab14b132e0905f90a25050505050565b5f6109a1826001612596565b601954606090819060ff1615611a295760408051600180825281830190925290602080830190803683375050604080516001808252818301909252929450905060208083019080368337505060085460408051631c56369f60e21b815290519394506001600160a01b0390911692637158da7c925060048083019260209291908290030181865afa15801561193d573d5f5f3e3d5ffd5b505050506040513d601f19601f8201168201806040525081019061196191906140b1565b825f8151811061197357611973613d28565b6001600160a01b039283166020918202929092018101919091526008546040805163d1717c7d60e01b81529051919093169263d1717c7d9260048083019391928290030181865afa1580156119ca573d5f5f3e3d5ffd5b505050506040513d601f19601f820116820180604052508101906119ee91906140cc565b6119f990600a614077565b815f81518110611a0b57611a0b613d28565b602002602001019063ffffffff16908163ffffffff16815250509091565b60205460ff1615611a4457611a3c612aa2565b915091509091565b5f611a4f601d6128c2565b90508061ffff166001600160401b03811115611a6d57611a6d613ddf565b604051908082528060200260200182016040528015611a96578160200160208202803683370190505b5092508061ffff166001600160401b03811115611ab557611ab5613ddf565b604051908082528060200260200182016040528015611ade578160200160208202803683370190505b5091505f5b8161ffff168161ffff161015611b75575f80611b04601d61ffff85166128cc565b9150915081868461ffff1681518110611b1f57611b1f613d28565b60200260200101906001600160a01b031690816001600160a01b03168152505080858461ffff1681518110611b5657611b56613d28565b63ffffffff909216602092830291909101909101525050600101611ae3565b50509091565b5f611b84612748565b60085460405163f764eb4560e01b81526001600160a01b039091169063f764eb4590611bb490309060040161399f565b602060405180830381865afa158015611bcf573d5f5f3e3d5ffd5b505050506040513d601f19601f82011682018060405250810190611bf39190613d3c565b611c105760405163125ad87760e31b815260040160405180910390fd5b5f611c1a83612223565b905080851115611c4357828582604051632e52afbb60e21b815260040161081e939291906140e7565b845f03611c655730604051636b30633560e01b815260040161081e919061399f565b336001600160a01b03841614611c8057611c8083338761281a565b5f611c8a86610996565b905080600d5f828254611c9d9190613f4d565b90915550611cad90508487612923565b836001600160a01b0316856001600160a01b0316336001600160a01b03167ffbde797d201c681b91056529119e0b02407c7bb96a4a2c75c01fc9667232c8db848a604051611cfc929190613f18565b60405180910390a4600a54604051627b8a6760e11b8152600481018390526001600160a01b0387811660248301529091169062f714ce906044015f604051808303815f87803b158015611d4d575f5ffd5b505af1158015611d5f573d5f5f3e3d5ffd5b5092945050505050610ecf6001600555565b611d79612748565b60085f9054906101000a90046001600160a01b03166001600160a01b031663edcf9c1f6040518163ffffffff1660e01b8152600401602060405180830381865afa158015611dc9573d5f5f3e3d5ffd5b505050506040513d601f19601f82011682018060405250810190611ded9190613d3c565b611e0a576040516312aecd8160e01b815260040160405180910390fd5b805f03611e1957610b7f610ed6565b5f611e25600e336127df565b91505081811015611e4957604051632ca2f52b60e11b815260040160405180910390fd5b5f611e548383613f4d565b9050805f03611e6e57611e68600e336128da565b50611e7c565b611e7a600e3383612805565b505b8260145f828254611e8d9190613f4d565b9091555050600a546040516351edffb160e01b81526001600160a01b03909116906351edffb190611ec49033908790600401613f7b565b5f604051808303815f87803b158015611edb575f5ffd5b505af1158015611eed573d5f5f3e3d5ffd5b50506040518592503391507f96a9a6886cdf3047a125454218a23d3961fd3a78643123b248a9d106d0ac94fd905f90a35050610d646001600555565b611f31612748565b60085f9054906101000a90046001600160a01b03166001600160a01b031663edcf9c1f6040518163ffffffff1660e01b8152600401602060405180830381865afa158015611f81573d5f5f3e3d5ffd5b505050506040513d601f19601f82011682018060405250810190611fa59190613d3c565b611fc2576040516312aecd8160e01b815260040160405180910390fd5b805f03611fe45730604051636b30633560e01b815260040161081e919061399f565b5f611ff06011336127df565b9150508181101561201457604051632ca2f52b60e11b815260040160405180910390fd5b5f61201f8383613f4d565b9050805f03612039576120336011336128da565b50612047565b61204560113383612805565b505b8260155f8282546120589190613f4d565b909155506120699050303385612da5565b604051839033907f046d3e17087d323298991516e3fdec36fe1204d6bff7fb6e2b8eca77b80a22ad905f90a35050610d646001600555565b5f6109a1825f6125e9565b6008546001600160a01b031633146120d75760405163ea8e4eb560e01b815260040160405180910390fd5b6019805460ff19166001179055565b5f6109a16120f38361131d565b5f612596565b6060805f612107601a6128c2565b90508061ffff166001600160401b0381111561212557612125613ddf565b60405190808252806020026020018201604052801561214e578160200160208202803683370190505b5092508061ffff166001600160401b0381111561216d5761216d613ddf565b604051908082528060200260200182016040528015612196578160200160208202803683370190505b5091505f5b8161ffff168161ffff161015611b75575f806121bc601a61ffff85166128cc565b9150915081868461ffff16815181106121d7576121d7613d28565b60200260200101906001600160a01b031690816001600160a01b03168152505080858461ffff168151811061220e5761220e613d28565b6020908102919091010152505060010161219b565b5f6109a18261131d565b6001600160a01b039182165f90815260016020908152604080832093909416825291909152205490565b6008546001600160a01b031633146122825760405163ea8e4eb560e01b815260040160405180910390fd5b61228d600b82612dcb565b5060205460ff16610d64575f806122a5601d846127df565b91509150816122b357505050565b6122be601d846128da565b505f306001600160a01b03166338d52e0f6040518163ffffffff1660e01b8152600401602060405180830381865afa1580156122fc573d5f5f3e3d5ffd5b505050506040513d601f19601f8201168201806040525081019061232091906140b1565b905061232d600b82612ddf565b61233e5761233c600b82612582565b505b5f8061234b601d846127df565b9150915081156123725761236c836123638684613f3a565b601d9190612805565b50612380565b61237e601d8486612805565b505b505050505050565b5f5f61239383612df3565b90505f6123a08285613f4d565b90505f6123ac82612ebd565b90506123b88184613f3a565b95945050505050565b600a546001600160a01b031633146123ec57604051631a27eac360e11b815260040160405180910390fd5b6123f4612748565b5f6123ff600e6128c2565b90508063ffffffff165f0361241457506112e8565b5f609663ffffffff831611612429578161242c565b60965b90505f60095f9054906101000a90046001600160a01b03166001600160a01b03166314b19c5a6040518163ffffffff1660e01b8152600401602060405180830381865afa15801561247f573d5f5f3e3d5ffd5b505050506040513d601f19601f820116820180604052508101906124a39190613f60565b90505f6124af60025490565b90505f805b8461ffff168161ffff161015612567575f806124d1600e826128cc565b90925090506124e1600e836128da565b505f6124ef828b885f612f56565b90506124fb8382612f82565b6125058286613f3a565b94508661ffff16836001600160a01b0316306001600160a01b03167f4e2ca0515ed1aef1395f66b5303bb5d6f1bf9d61a353fa53f73f8ac9973fa9f68585604051612551929190613f18565b60405180910390a45050508060010190506124b4565b508060145f8282546112dd9190613f4d565b610d6481612fb6565b5f610ecf836001600160a01b03841661300f565b5f610ecf6125a3600d5490565b6125ae906001613f3a565b6125b661296c565b6125c190600a614077565b6002546125ce9190613f3a565b859190856129e8565b6125e48383836001613056565b505050565b5f610ecf6125f561296c565b61260090600a614077565b60025461260d9190613f3a565b600d546125ce906001613f3a565b6007546001600160a01b03163b5f0361263b576020805460ff1916905550565b6007546040516301ffc9a760e01b81526313ee8de160e11b60048201526001600160a01b03909116906301ffc9a790602401602060405180830381865afa9250505080156126a6575060408051601f3d908101601f191682019092526126a391810190613d3c565b60015b6126c35760405163298febe360e01b815260040160405180910390fd5b801561272f576020805460ff1916600117905560075460405163c653526b60e01b81526001600160a01b039091169063c653526b90612706908590600401613a99565b5f604051808303815f87803b15801561271d575f5ffd5b505af1158015612380573d5f5f3e3d5ffd5b60405163298febe360e01b815260040160405180910390fd5b60026005540361276b57604051633ee5aeb560e01b815260040160405180910390fd5b6002600555565b6040516001600160a01b0384811660248301528381166044830152606482018390526127d99186918216906323b872dd906084015b604051602081830303815290604052915060e01b6020820180516001600160e01b038381831617835250505050613128565b50505050565b5f8080806127f6866001600160a01b03871661318b565b909450925050505b9250929050565b5f61148b846001600160a01b038516846131c3565b5f612825848461222d565b90505f198110156127d9578181101561285757828183604051637dc7a0d960e11b815260040161081e939291906140e7565b6127d984848484035f613056565b6001600160a01b03831661288e575f604051634b637e8f60e11b815260040161081e919061399f565b6001600160a01b0382166128b7575f60405163ec442f0560e01b815260040161081e919061399f565b6125e48383836131df565b5f6109a1826132f2565b5f8080806127f686866132fc565b5f610ecf836001600160a01b038416613325565b5f6123b86128fd856001613f3a565b61290561296c565b61291090600a614077565b61291a9086613f3a565b879190856129e8565b6001600160a01b03821661294c575f604051634b637e8f60e11b815260040161081e919061399f565b610dde825f836131df565b60605f610ecf83613341565b610d648161339a565b5f5f612976610ed6565b6001600160a01b031663313ce5676040518163ffffffff1660e01b8152600401602060405180830381865afa1580156129b1573d5f5f3e3d5ffd5b505050506040513d601f19601f820116820180604052508101906129d591906140cc565b90506129e2816012614108565b91505090565b5f612a156129f5836133e3565b8015612a1057505f8480612a0b57612a0b614121565b868809115b151590565b612a2086868661340f565b6123b89190613f3a565b5f5b8151811015610dde57612a62828281518110612a4a57612a4a613d28565b6020026020010151600b612ddf90919063ffffffff16565b612a9a57818181518110612a7857612a78613d28565b602002602001015160405163751dff9760e11b815260040161081e919061399f565b600101612a2c565b6060805f306001600160a01b0316634e85b1356040518163ffffffff1660e01b81526004015f60405180830381865afa158015612ae1573d5f5f3e3d5ffd5b505050506040513d5f823e601f3d908101601f19168201604052612b089190810190613e6d565b604080515f808252602082019092529192509081612b47565b604080518082019091525f8082526020820152815260200190600190039081612b215790505b5060075460405163701a818560e01b81529192506001600160a01b03169063701a818590612b79908590600401613a99565b5f60405180830381865afa925050508015612bb557506040513d5f823e601f3d908101601f19168201604052612bb29190810190614135565b60015b612c4e5760075f9054906101000a90046001600160a01b03166001600160a01b0316639194c82c6040518163ffffffff1660e01b81526004015f60405180830381865afa925050508015612c2a57506040513d5f823e601f3d908101601f19168201604052612c279190810190614135565b60015b612c4757604051632711b74d60e11b815260040160405180910390fd5b9050612c51565b90505b80516001600160401b03811115612c6a57612c6a613ddf565b604051908082528060200260200182016040528015612c93578160200160208202803683370190505b50935080516001600160401b03811115612caf57612caf613ddf565b604051908082528060200260200182016040528015612cd8578160200160208202803683370190505b5092505f5b81518161ffff161015612d9e57818161ffff1681518110612d0057612d00613d28565b60200260200101515f0151858261ffff1681518110612d2157612d21613d28565b60200260200101906001600160a01b031690816001600160a01b031681525050818161ffff1681518110612d5757612d57613d28565b602002602001015160200151848261ffff1681518110612d7957612d79613d28565b63ffffffff90921660209283029190910190910152612d97816141f6565b9050612cdd565b5050509091565b6125e483846001600160a01b031663a9059cbb85856040516024016127a7929190613f7b565b5f610ecf836001600160a01b0384166134bf565b5f610ecf836001600160a01b0384166135a2565b6017545f906301000000900461ffff168103612e1057505f919050565b6017545f90612e2d906301000000900461ffff168461271061340f565b9050610ecf60095f9054906101000a90046001600160a01b03166001600160a01b0316634ff0876a6040518163ffffffff1660e01b8152600401602060405180830381865afa158015612e82573d5f5f3e3d5ffd5b505050506040513d601f19601f82011682018060405250810190612ea69190614216565b829063ffffffff908116906301e133809061340f16565b6017545f90610100900461ffff168103612ed857505f919050565b5f612eef612ee86012600a614077565b845f611453565b6017549091505f908190612f059060ff166135b9565b9150915081831080612f15575080155b15612f2457505f949350505050565b6017545f90612f3d90610100900461ffff16858461340f565b9050612f4c818761271061340f565b9695505050505050565b5f6123b8612f6261296c565b612f6d90600a614077565b612f779085613f3a565b61291a866001613f3a565b6001600160a01b038216612fab575f60405163ec442f0560e01b815260040161081e919061399f565b610dde5f83836131df565b5f612fbf825490565b90505f5b8181101561300857826001015f845f018381548110612fe457612fe4613d28565b905f5260205f20015481526020019081526020015f205f9055806001019050612fc3565b50505f9055565b5f61301a83836135a2565b61304f57508154600181810184555f8481526020808220909301849055845484825282860190935260409020919091556109a1565b505f6109a1565b6001600160a01b03841661307f575f60405163e602df0560e01b815260040161081e919061399f565b6001600160a01b0383166130a8575f604051634a1406b160e11b815260040161081e919061399f565b6001600160a01b038085165f90815260016020908152604080832093871683529290522082905580156127d957826001600160a01b0316846001600160a01b03167f8c5be1e5ebec7d5bd14f71427d1e84f3dd0314c0f7b2291e5b200ac8c7c3b9258460405161311a91815260200190565b60405180910390a350505050565b5f5f60205f8451602086015f885af180613147576040513d5f823e3d81fd5b50505f513d9150811561315e57806001141561316b565b6001600160a01b0384163b155b156127d95783604051635274afe760e01b815260040161081e919061399f565b5f8181526002830160205260408120548190806131b8576131ac85856136a3565b92505f91506127fe9050565b6001925090506127fe565b5f828152600284016020526040812082905561148b84846136ae565b6001600160a01b038316613209578060025f8282546131fe9190613f3a565b909155506132669050565b6001600160a01b0383165f90815260208190526040902054818110156132485783818360405163391434e360e21b815260040161081e939291906140e7565b6001600160a01b0384165f9081526020819052604090209082900390555b6001600160a01b038216613282576002805482900390556132a0565b6001600160a01b0382165f9081526020819052604090208054820190555b816001600160a01b0316836001600160a01b03167fddf252ad1be2c89b69c2b068fc378daa952ba7f163c4a11628f55a4df523b3ef836040516132e591815260200190565b60405180910390a3505050565b5f6109a1826136b9565b5f808061330985856136c2565b5f81815260029690960160205260409095205494959350505050565b5f8181526002830160205260408120819055610ecf83836136cd565b6060815f0180548060200260200160405190810160405280929190818152602001828054801561338e57602002820191905f5260205f20905b81548152602001906001019080831161337a575b50505050509050919050565b5f6133a4826132f2565b90505f5b818110156133d957600283015f6133bf85846136c2565b815260208101919091526040015f908120556001016133a8565b50610dde82612579565b5f60028260038111156133f8576133f8613ad9565b6134029190614231565b60ff166001149050919050565b5f5f5f61341c86866136d8565b91509150815f036134405783818161343657613436614121565b0492505050610ecf565b8184116134575761345760038515026011186136f4565b5f848688095f868103871696879004966002600389028118808a02820302808a02820302808a02820302808a02820302808a02820302808a02909103029181900381900460010185841190960395909502919093039390930492909217029150509392505050565b5f8181526001830160205260408120548015613599575f6134e1600183613f4d565b85549091505f906134f490600190613f4d565b9050808214613553575f865f01828154811061351257613512613d28565b905f5260205f200154905080875f01848154811061353257613532613d28565b5f918252602080832090910192909255918252600188019052604090208390555b85548690806135645761356461425e565b600190038181905f5260205f20015f90559055856001015f8681526020019081526020015f205f9055600193505050506109a1565b5f9150506109a1565b5f9081526001919091016020526040902054151590565b5f80806135c660126113ff565b90505f8460048111156135db576135db613ad9565b036135eb5780925082915061369d565b60038460048111156135ff576135ff613ad9565b0361361157601854925082915061369d565b600184600481111561362557613625613ad9565b0361363d5761363381613705565b925080915061369d565b600284600481111561365157613651613ad9565b036136695761365f81613705565b925082915061369d565b600484600481111561367d5761367d613ad9565b0361369d576018546136979061369283613705565b61382b565b92508291505b50915091565b5f610ecf838361383a565b5f610ecf838361300f565b5f6109a1825490565b5f610ecf8383613845565b5f610ecf83836134bf565b5f805f1983850993909202808410938190039390930393915050565b634e487b715f52806020526024601cfd5b5f5f60085f9054906101000a90046001600160a01b03166001600160a01b031663f3cc69936040518163ffffffff1660e01b8152600401602060405180830381865afa158015613757573d5f5f3e3d5ffd5b505050506040513d601f19601f8201168201806040525081019061377b9190613f60565b61ffff1690505f61381060095f9054906101000a90046001600160a01b03166001600160a01b0316634ff0876a6040518163ffffffff1660e01b8152600401602060405180830381865afa1580156137d5573d5f5f3e3d5ffd5b505050506040513d601f19601f820116820180604052508101906137f99190614216565b839063ffffffff908116906301e133809061340f16565b905061148b61382182612710613f3a565b859061271061340f565b5f828218828411028218610ecf565b5f610ecf83836135a2565b5f825f01828154811061385a5761385a613d28565b905f5260205f200154905092915050565b5f5f6020838503121561387c575f5ffd5b82356001600160401b03811115613891575f5ffd5b8301601f810185136138a1575f5ffd5b80356001600160401b038111156138b6575f5ffd5b8560208260051b84010111156138ca575f5ffd5b6020919091019590945092505050565b602081525f82518060208401528060208501604085015e5f604082850101526040601f19601f83011684010191505092915050565b5f6020828403121561391f575f5ffd5b5035919050565b6001600160a01b0381168114610d64575f5ffd5b5f5f6040838503121561394b575f5ffd5b823561395681613926565b946020939093013593505050565b5f60208284031215613974575f5ffd5b8135610ecf81613926565b5f5f60408385031215613990575f5ffd5b50508035926020909101359150565b6001600160a01b0391909116815260200190565b5f5f5f606084860312156139c5575f5ffd5b83356139d081613926565b925060208401356139e081613926565b929592945050506040919091013590565b60ff81168114610d64575f5ffd5b61ffff81168114610d64575f5ffd5b5f5f5f60608486031215613a20575f5ffd5b8335613a2b816139f1565b92506020840135613a3b816139ff565b91506040840135613a4b816139ff565b809150509250925092565b5f8151808452602084019350602083015f5b82811015613a8f5781516001600160a01b0316865260209586019590910190600101613a68565b5093949350505050565b602081525f610ecf6020830184613a56565b5f5f60408385031215613abc575f5ffd5b823591506020830135613ace81613926565b809150509250929050565b634e487b7160e01b5f52602160045260245ffd5b6080810160058610613b0d57634e487b7160e01b5f52602160045260245ffd5b94815261ffff93841660208201529190921660408201526060015290565b5f5f83601f840112613b3b575f5ffd5b5081356001600160401b03811115613b51575f5ffd5b6020830191508360208260061b85010111156127fe575f5ffd5b5f5f5f60408486031215613b7d575f5ffd5b83356001600160401b03811115613b92575f5ffd5b613b9e86828701613b2b565b909790965060209590950135949350505050565b5f5f5f60608486031215613bc4575f5ffd5b8335925060208401359150604084013560048110613a4b575f5ffd5b5f5f60208385031215613bf1575f5ffd5b82356001600160401b03811115613c06575f5ffd5b613c1285828601613b2b565b90969095509350505050565b5f5f5f60608486031215613c30575f5ffd5b833592506020840135613c4281613926565b91506040840135613a4b81613926565b604081525f613c646040830185613a56565b82810360208401528084518083526020830191506020860192505f5b81811015613ca457835163ffffffff16835260209384019390920191600101613c80565b50909695505050505050565b604081525f613cc26040830185613a56565b82810360208401528084518083526020830191506020860192505f5b81811015613ca4578351835260209384019390920191600101613cde565b5f5f60408385031215613d0d575f5ffd5b8235613d1881613926565b91506020830135613ace81613926565b634e487b7160e01b5f52603260045260245ffd5b5f60208284031215613d4c575f5ffd5b81518015158114610ecf575f5ffd5b602080825281018290525f8360408301825b85811015613d9d578235613d8081613926565b6001600160a01b0316825260209283019290910190600101613d6d565b5095945050505050565b600181811c90821680613dbb57607f821691505b602082108103613dd957634e487b7160e01b5f52602260045260245ffd5b50919050565b634e487b7160e01b5f52604160045260245ffd5b604080519081016001600160401b0381118282101715613e1557613e15613ddf565b60405290565b604051601f8201601f191681016001600160401b0381118282101715613e4357613e43613ddf565b604052919050565b5f6001600160401b03821115613e6357613e63613ddf565b5060051b60200190565b5f60208284031215613e7d575f5ffd5b81516001600160401b03811115613e92575f5ffd5b8201601f81018413613ea2575f5ffd5b8051613eb5613eb082613e4b565b613e1b565b8082825260208201915060208360051b850101925086831115613ed6575f5ffd5b6020840193505b82841015612f4c578351613ef081613926565b825260209384019390910190613edd565b5f60208284031215613f11575f5ffd5b5051919050565b918252602082015260400190565b634e487b7160e01b5f52601160045260245ffd5b808201808211156109a1576109a1613f26565b818103818111156109a1576109a1613f26565b5f60208284031215613f70575f5ffd5b8151610ecf816139ff565b6001600160a01b03929092168252602082015260400190565b6001815b6001841115613fcf57808504811115613fb357613fb3613f26565b6001841615613fc157908102905b60019390931c928002613f98565b935093915050565b5f82613fe5575060016109a1565b81613ff157505f6109a1565b816001811461400757600281146140115761402d565b60019150506109a1565b60ff84111561402257614022613f26565b50506001821b6109a1565b5060208310610133831016604e8410600b8410161715614050575081810a6109a1565b61405c5f198484613f94565b805f190482111561406f5761406f613f26565b029392505050565b5f610ecf60ff841683613fd7565b63ffffffff81168114610d64575f5ffd5b5f602082840312156140a6575f5ffd5b8135610ecf81614085565b5f602082840312156140c1575f5ffd5b8151610ecf81613926565b5f602082840312156140dc575f5ffd5b8151610ecf816139f1565b6001600160a01b039390931683526020830191909152604082015260600190565b60ff82811682821603908111156109a1576109a1613f26565b634e487b7160e01b5f52601260045260245ffd5b5f60208284031215614145575f5ffd5b81516001600160401b0381111561415a575f5ffd5b8201601f8101841361416a575f5ffd5b8051614178613eb082613e4b565b8082825260208201915060208360061b850101925086831115614199575f5ffd5b6020840193505b82841015612f4c57604084880312156141b7575f5ffd5b6141bf613df3565b84516141ca81613926565b815260208501516141da81614085565b80602083015250808352506020820191506040840193506141a0565b5f61ffff821661ffff810361420d5761420d613f26565b60010192915050565b5f60208284031215614226575f5ffd5b8151610ecf81614085565b5f60ff83168061424f57634e487b7160e01b5f52601260045260245ffd5b8060ff84160691505092915050565b634e487b7160e01b5f52603160045260245ffdfea2646970667358221220560eef7ec92e3fe91e7374cfa9ddc87faf1da7897df20c5975a0112fa193f3c564736f6c634300081c0033a2646970667358221220073353662c249f36d4a8fc954e4fbfc1b7c92a5feee3a8b589cef6aa3835e60d64736f6c634300081c0033",
  "linkReferences": {},
  "deployedLinkReferences": {}
}