{
  "_format": "hh-sol-artifact-1",
  "contractName": "TransparentVaultFactory",
  "sourceName": "contracts/factories/TransparentVaultFactory.sol",
  "abi": [
    {
      "inputs": [
        {
          "internalType": "address",
          "name": "configAddress",
          "type": "address"
        }
      ],
      "stateMutability": "nonpayable",
      "type": "constructor"
    },
    {
      "inputs": [],
      "name": "SystemNotIdle",
      "type": "error"
    },
    {
      "inputs": [],
      "name": "ZeroAddress",
      "type": "error"
    },
    {
      "anonymous": false,
      "inputs": [
        {
          "indexed": true,
          "internalType": "address",
          "name": "vault",
          "type": "address"
        },
        {
          "indexed": true,
          "internalType": "address",
          "name": "vaultOwner",
          "type": "address"
        },
        {
          "indexed": true,
          "internalType": "address",
          "name": "curator",
          "type": "address"
        },
        {
          "indexed": false,
          "internalType": "enum EventsLib.VaultType",
          "name": "vaultType",
          "type": "uint8"
        }
      ],
      "name": "OrionVaultCreated",
      "type": "event"
    },
    {
      "inputs": [],
      "name": "config",
      "outputs": [
        {
          "internalType": "contract IOrionConfig",
          "name": "",
          "type": "address"
        }
      ],
      "stateMutability": "view",
      "type": "function"
    },
    {
      "inputs": [
        {
          "internalType": "address",
          "name": "curator",
          "type": "address"
        },
        {
          "internalType": "string",
          "name": "name",
          "type": "string"
        },
        {
          "internalType": "string",
          "name": "symbol",
          "type": "string"
        }
      ],
      "name": "createVault",
      "outputs": [
        {
          "internalType": "address",
          "name": "vault",
          "type": "address"
        }
      ],
      "stateMutability": "nonpayable",
      "type": "function"
    }
  ],
  "bytecode": "0x6080604052348015600e575f5ffd5b5060405161397a38038061397a833981016040819052602b916074565b6001600160a01b03811660515760405163d92e233d60e01b815260040160405180910390fd5b5f80546001600160a01b0319166001600160a01b0392909216919091179055609f565b5f602082840312156083575f5ffd5b81516001600160a01b03811681146098575f5ffd5b9392505050565b6138ce806100ac5f395ff3fe608060405234801561000f575f5ffd5b5060043610610034575f3560e01c8063515d61ec1461003857806379502c5514610067575b5f5ffd5b61004b6100463660046102b4565b610079565b6040516001600160a01b03909116815260200160405180910390f35b5f5461004b906001600160a01b031681565b5f33806100995760405163d92e233d60e01b815260040160405180910390fd5b6001600160a01b0387166100c05760405163d92e233d60e01b815260040160405180910390fd5b5f5f9054906101000a90046001600160a01b03166001600160a01b031663edcf9c1f6040518163ffffffff1660e01b8152600401602060405180830381865afa15801561010f573d5f5f3e3d5ffd5b505050506040513d601f19601f82011682018060405250810190610133919061033f565b610150576040516312aecd8160e01b815260040160405180910390fd5b5f81885f5f9054906101000a90046001600160a01b03168989898960405161017790610263565b610187979695949392919061038d565b604051809103905ff0801580156101a0573d5f5f3e3d5ffd5b505f8054604051631e832de160e21b81529295508593506001600160a01b031691637a0cb784916101d691859190600401610402565b5f604051808303815f87803b1580156101ed575f5ffd5b505af11580156101ff573d5f5f3e3d5ffd5b50505050876001600160a01b0316826001600160a01b0316846001600160a01b03167fe36cd15f95d58db8766da292a38b27881bfaf9bdb8c464d9855d4e56bc40e7bf5f604051610250919061041f565b60405180910390a4505095945050505050565b6134658061043483390190565b5f5f83601f840112610280575f5ffd5b5081356001600160401b03811115610296575f5ffd5b6020830191508360208285010111156102ad575f5ffd5b9250929050565b5f5f5f5f5f606086880312156102c8575f5ffd5b85356001600160a01b03811681146102de575f5ffd5b945060208601356001600160401b038111156102f8575f5ffd5b61030488828901610270565b90955093505060408601356001600160401b03811115610322575f5ffd5b61032e88828901610270565b969995985093965092949392505050565b5f6020828403121561034f575f5ffd5b8151801515811461035e575f5ffd5b9392505050565b81835281816020850137505f828201602090810191909152601f909101601f19169091010190565b6001600160a01b03888116825287811660208301528616604082015260a0606082018190525f906103c19083018688610365565b82810360808401526103d4818587610365565b9a9950505050505050505050565b600281106103fe57634e487b7160e01b5f52602160045260245ffd5b9052565b6001600160a01b03831681526040810161035e60208301846103e2565b6020810161042d82846103e2565b9291505056fe60c060405234801561000f575f5ffd5b5060405161346538038061346583398101604081905261002e91610575565b8484848484826001600160a01b0316637158da7c6040518163ffffffff1660e01b8152600401602060405180830381865afa15801561006f573d5f5f3e3d5ffd5b505050506040513d601f19601f820116820180604052508101906100939190610613565b828260036100a183826106b9565b5060046100ae82826106b9565b5050505f5f6100c28361029b60201b60201c565b91509150816100d25760126100d4565b805b60ff1660a05250506001600160a01b039081166080526001600555841661010e5760405163e6c4247b60e01b815260040160405180910390fd5b6001600160a01b0383166101355760405163e6c4247b60e01b815260040160405180910390fd5b600780546001600160a01b038088166001600160a01b031992831617909255600880548784169083161790556006805492861692909116821790555f600b8190556012819055601381905560408051631c56369f60e21b81529051919291637158da7c916004808201926020929091908290030181865afa1580156101bc573d5f5f3e3d5ffd5b505050506040513d601f19601f820116820180604052508101906101e09190610613565b6001600160a01b031663313ce5676040518163ffffffff1660e01b8152600401602060405180830381865afa15801561021b573d5f5f3e3d5ffd5b505050506040513d601f19601f8201168201806040525081019061023f9190610773565b905060128160ff16111561026657604051631c03248960e11b815260040160405180910390fd5b5f6102728260126107a7565b905061027f81600a6108a3565b60145561028a610371565b5050505050505050505050506109a4565b60408051600481526024810182526020810180516001600160e01b031663313ce56760e01b17905290515f918291829182916001600160a01b038716916102e1916108b1565b5f60405180830381855afa9150503d805f8114610319576040519150601f19603f3d011682016040523d82523d5f602084013e61031e565b606091505b509150915081801561033257506020815110155b15610365575f8180602001905181019061034c91906108c7565b905060ff8111610363576001969095509350505050565b505b505f9485945092505050565b60065460408051636c366a2760e11b815290515f926001600160a01b03169163d86cd44e91600480830192869291908290030181865afa1580156103b7573d5f5f3e3d5ffd5b505050506040513d5f823e601f3d908101601f191682016040526103de91908101906108de565b90505f5b8151811015610442575f61041983838151811061040157610401610990565b6020026020010151600961044660201b90919060201c565b90508061043957604051630ea075bf60e21b815260040160405180910390fd5b506001016103e2565b5050565b5f61045a836001600160a01b038416610463565b90505b92915050565b5f8181526001830160205260408120546104a857508154600181810184555f84815260208082209093018490558454848252828601909352604090209190915561045d565b505f61045d565b6001600160a01b03811681146104c3575f5ffd5b50565b634e487b7160e01b5f52604160045260245ffd5b604051601f8201601f191681016001600160401b0381118282101715610502576105026104c6565b604052919050565b5f82601f830112610519575f5ffd5b81516001600160401b03811115610532576105326104c6565b610545601f8201601f19166020016104da565b818152846020838601011115610559575f5ffd5b8160208501602083015e5f918101602001919091529392505050565b5f5f5f5f5f60a08688031215610589575f5ffd5b8551610594816104af565b60208701519095506105a5816104af565b60408701519094506105b6816104af565b60608701519093506001600160401b038111156105d1575f5ffd5b6105dd8882890161050a565b608088015190935090506001600160401b038111156105fa575f5ffd5b6106068882890161050a565b9150509295509295909350565b5f60208284031215610623575f5ffd5b815161062e816104af565b9392505050565b600181811c9082168061064957607f821691505b60208210810361066757634e487b7160e01b5f52602260045260245ffd5b50919050565b601f8211156106b457805f5260205f20601f840160051c810160208510156106925750805b601f840160051c820191505b818110156106b1575f815560010161069e565b50505b505050565b81516001600160401b038111156106d2576106d26104c6565b6106e6816106e08454610635565b8461066d565b6020601f821160018114610718575f83156107015750848201515b5f19600385901b1c1916600184901b1784556106b1565b5f84815260208120601f198516915b828110156107475787850151825560209485019460019092019101610727565b508482101561076457868401515f19600387901b60f8161c191681555b50505050600190811b01905550565b5f60208284031215610783575f5ffd5b815160ff8116811461062e575f5ffd5b634e487b7160e01b5f52601160045260245ffd5b60ff828116828216039081111561045d5761045d610793565b6001815b60018411156107fb578085048111156107df576107df610793565b60018416156107ed57908102905b60019390931c9280026107c4565b935093915050565b5f826108115750600161045d565b8161081d57505f61045d565b8160018114610833576002811461083d57610859565b600191505061045d565b60ff84111561084e5761084e610793565b50506001821b61045d565b5060208310610133831016604e8410600b841016171561087c575081810a61045d565b6108885f1984846107c0565b805f190482111561089b5761089b610793565b029392505050565b5f61045a60ff841683610803565b5f82518060208501845e5f920191825250919050565b5f602082840312156108d7575f5ffd5b5051919050565b5f602082840312156108ee575f5ffd5b81516001600160401b03811115610903575f5ffd5b8201601f81018413610913575f5ffd5b80516001600160401b0381111561092c5761092c6104c6565b8060051b61093c602082016104da565b91825260208184018101929081019087841115610957575f5ffd5b6020850194505b838510156109855784519250610973836104af565b8282526020948501949091019061095e565b979650505050505050565b634e487b7160e01b5f52603260045260245ffd5b60805160a051612aa06109c55f395f6109d601525f610cc60152612aa05ff3fe608060405234801561000f575f5ffd5b50600436106101ec575f3560e01c806301e1d114146101f057806306fdde031461020757806307a2d13a1461021c578063095ea7b31461022f5780630a28a477146102525780630c6a62dd146102655780630d1e66671461027a578063105444941461028d57806318160ddd146102a05780631f52692b146102a857806323b872dd146102c8578063313ce567146102db57806333fdc592146102f557806338d52e0f146102fd578063402d267d146103055780634cdad5061461021c5780636e553f651461031957806370a082311461032c578063745400c91461033f57806379502c551461035257806394bf804d1461031957806395d89b4114610365578063a68a52671461036d578063a9059cbb14610380578063aa9d3a6014610393578063b1bd7e2e1461039b578063b3d7f6b9146103ae578063b460af94146103c1578063b6eba653146103cf578063ba087652146103c1578063c0b568e1146103e5578063c37fc8a8146103f8578063c63d75b614610305578063c6e6f59214610400578063cce4705b14610413578063ce96cb7714610426578063d1699c2614610439578063d3d0345814610441578063d905777e14610457578063dd62ed3e1461046a578063e66f53b71461047d578063ef8b30f714610400575b5f5ffd5b600b545b6040519081526020015b60405180910390f35b61020f610490565b6040516101fe91906123fb565b6101f461022a366004612430565b610520565b61024261023d36600461245b565b610531565b60405190151581526020016101fe565b6101f4610260366004612430565b610548565b610278610273366004612485565b610554565b005b610278610288366004612430565b6105c8565b61027861029b3660046124e0565b61082c565b6002546101f4565b6007546102bb906001600160a01b031681565b6040516101fe9190612527565b6102426102d636600461253b565b6109aa565b6102e36109cf565b60405160ff90911681526020016101fe565b6102786109ff565b6102bb610cc4565b6101f4610313366004612485565b505f1990565b6101f4610327366004612579565b610ce8565b6101f461033a366004612485565b610d02565b61027861034d366004612430565b610d1c565b6006546102bb906001600160a01b031681565b61020f610ede565b6101f461037b3660046125a7565b610eed565b61024261038e36600461245b565b610f27565b610278610f34565b6102786103a93660046125e0565b611296565b6101f46103bc366004612430565b611530565b6101f461032736600461261e565b6103d761153c565b6040516101fe929190612695565b6102786103f3366004612430565b611676565b6013546101f4565b6101f461040e366004612430565b611818565b610278610421366004612430565b611823565b6101f4610434366004612485565b6119c8565b6012546101f4565b6104496119db565b6040516101fe9291906126f3565b6101f4610465366004612485565b611b05565b6101f461047836600461273f565b611b0f565b6008546102bb906001600160a01b031681565b60606003805461049f9061276b565b80601f01602080910402602001604051908101604052809291908181526020018280546104cb9061276b565b80156105165780601f106104ed57610100808354040283529160200191610516565b820191905f5260205f20905b8154815290600101906020018083116104f957829003601f168201915b5050505050905090565b5f61052b825f611b39565b92915050565b5f3361053e818585611b47565b5060019392505050565b5f61052b826001611b59565b6007546001600160a01b0316331461057f57604051631a27eac360e11b815260040160405180910390fd5b6001600160a01b0381166105a65760405163e6c4247b60e01b815260040160405180910390fd5b600880546001600160a01b0319166001600160a01b0392909216919091179055565b6105d0611b96565b805f03610602576105df610cc4565b604051636b30633560e01b81526004016105f99190612527565b60405180910390fd5b5f61060b610cc4565b6001600160a01b03166370a08231336040518263ffffffff1660e01b81526004016106369190612527565b602060405180830381865afa158015610651573d5f5f3e3d5ffd5b505050506040513d601f19601f8201168201806040525081019061067591906127a3565b90508082111561069e57338183604051632e2a182f60e11b81526004016105f9939291906127ba565b5f6106a7610cc4565b6001600160a01b03166323b872dd3360065f9054906101000a90046001600160a01b03166001600160a01b0316633a0dad8e6040518163ffffffff1660e01b8152600401602060405180830381865afa158015610706573d5f5f3e3d5ffd5b505050506040513d601f19601f8201168201806040525081019061072a91906127db565b866040518463ffffffff1660e01b8152600401610749939291906127f6565b6020604051808303815f875af1158015610765573d5f5f3e3d5ffd5b505050506040513d601f19601f82011682018060405250810190610789919061281a565b9050806107a9576040516312171d8360e31b815260040160405180910390fd5b5f6107b5600c33611bc0565b91506107d09050336107c7868461284d565b600c9190611be6565b508360125f8282546107e2919061284d565b909155505060405184815233907f08d79f77ab5f78e7e780abb1f7ac9e9923340d5bae78f6e83e7999905b248ea29060200160405180910390a25050506108296001600555565b50565b60065f9054906101000a90046001600160a01b03166001600160a01b0316633a0dad8e6040518163ffffffff1660e01b8152600401602060405180830381865afa15801561087c573d5f5f3e3d5ffd5b505050506040513d601f19601f820116820180604052508101906108a091906127db565b6001600160a01b0316336001600160a01b0316146108d157604051631a27eac360e11b815260040160405180910390fd5b6108db6015611bfb565b815f5b8161ffff168161ffff16101561096b5761096285858361ffff1681811061090757610907612860565b61091d9260206040909202019081019150612485565b86868461ffff1681811061093357610933612860565b905060400201602001602081019061094b9190612874565b63ffffffff166015611be69092919063ffffffff16565b506001016108de565b50600b8290556040518281527f5e1ff954b5e5257e9ee5d4cb07059e8f5e69b1aaaf9911e5d8d90a6894de9c219060200160405180910390a150505050565b5f336109b7858285611c04565b6109c2858585611c55565b60019150505b9392505050565b5f6109fa817f0000000000000000000000000000000000000000000000000000000000000000612897565b905090565b60065f9054906101000a90046001600160a01b03166001600160a01b0316633a0dad8e6040518163ffffffff1660e01b8152600401602060405180830381865afa158015610a4f573d5f5f3e3d5ffd5b505050506040513d601f19601f82011682018060405250810190610a7391906127db565b6001600160a01b0316336001600160a01b031614610aa457604051631a27eac360e11b815260040160405180910390fd5b610aac611b96565b5f610ab7600c611cb2565b90505f8163ffffffff166001600160401b03811115610ad857610ad86128b0565b604051908082528060200260200182016040528015610b01578160200160208202803683370190505b5090505f8263ffffffff166001600160401b03811115610b2357610b236128b0565b604051908082528060200260200182016040528015610b4c578160200160208202803683370190505b5090505f5b8363ffffffff168163ffffffff161015610be6575f80610b7b600c63ffffffff80861690611cbc16565b9150915081858463ffffffff1681518110610b9857610b98612860565b60200260200101906001600160a01b031690816001600160a01b03168152505080848463ffffffff1681518110610bd157610bd1612860565b60209081029190910101525050600101610b51565b505f5b8363ffffffff168163ffffffff161015610cb3575f838263ffffffff1681518110610c1657610c16612860565b602002602001015190505f838363ffffffff1681518110610c3957610c39612860565b602002602001015190505f610c4d82611818565b9050610c5a600c84611cca565b50610c658382611cde565b826001600160a01b03167f85a190caa61692b36b63a55e069330d18ab9af179fed7a25c16a4262bc63b7d283604051610ca091815260200190565b60405180910390a2505050600101610be9565b50505f60125550506001600555565b565b7f000000000000000000000000000000000000000000000000000000000000000090565b5f60405163125ad87760e31b815260040160405180910390fd5b6001600160a01b03165f9081526020819052604090205490565b805f03610d3e5730604051636b30633560e01b81526004016105f99190612527565b5f610d4833610d02565b905080821115610d7157338183604051632e2a182f60e11b81526004016105f9939291906127ba565b60065460408051631d06d6c760e11b815290515f9230926323b872dd9233926001600160a01b031691633a0dad8e9160048083019260209291908290030181865afa158015610dc2573d5f5f3e3d5ffd5b505050506040513d601f19601f82011682018060405250810190610de691906127db565b866040518463ffffffff1660e01b8152600401610e05939291906127f6565b6020604051808303815f875af1158015610e21573d5f5f3e3d5ffd5b505050506040513d601f19601f82011682018060405250810190610e45919061281a565b905080610e65576040516312171d8360e31b815260040160405180910390fd5b5f610e71600f33611bc0565b9150610e8c905033610e83868461284d565b600f9190611be6565b508360135f828254610e9e919061284d565b909155505060405184815233907ff7774b688d56120b783560a913ee60792a73dfd511812b7be5eccf10d08c66899060200160405180910390a250505050565b60606004805461049f9061276b565b5f5f610ef860025490565b9050610f1e610f0885600161284d565b601454610f15908461284d565b87919086611d16565b95945050505050565b5f3361053e818585611c55565b60065f9054906101000a90046001600160a01b03166001600160a01b0316633a0dad8e6040518163ffffffff1660e01b8152600401602060405180830381865afa158015610f84573d5f5f3e3d5ffd5b505050506040513d601f19601f82011682018060405250810190610fa891906127db565b6001600160a01b0316336001600160a01b031614610fd957604051631a27eac360e11b815260040160405180910390fd5b610fe1611b96565b5f610fec600f611cb2565b90505f8163ffffffff166001600160401b0381111561100d5761100d6128b0565b604051908082528060200260200182016040528015611036578160200160208202803683370190505b5090505f8263ffffffff166001600160401b03811115611058576110586128b0565b604051908082528060200260200182016040528015611081578160200160208202803683370190505b5090505f5b8363ffffffff168163ffffffff16101561111b575f806110b0600f63ffffffff80861690611cbc16565b9150915081858463ffffffff16815181106110cd576110cd612860565b60200260200101906001600160a01b031690816001600160a01b03168152505080848463ffffffff168151811061110657611106612860565b60209081029190910101525050600101611086565b505f60138190555b8363ffffffff168163ffffffff161015611288575f838263ffffffff168151811061115057611150612860565b602002602001015190505f838363ffffffff168151811061117357611173612860565b6020026020010151905061119182600f611cca90919063ffffffff16565b5061119c3082611d58565b5f6111a682610520565b90506111b0610cc4565b6001600160a01b031663a9059cbb84836040518363ffffffff1660e01b81526004016111dd9291906128c4565b6020604051808303815f875af11580156111f9573d5f5f3e3d5ffd5b505050506040513d601f19601f8201168201806040525081019061121d919061281a565b61123a576040516312171d8360e31b815260040160405180910390fd5b826001600160a01b03167f44b2ff9ffcefe2052a8afdbed44a04bf3db4592ae90c6b96c818bd28573e41e88360405161127591815260200190565b60405180910390a2505050600101611123565b50505050610cc26001600555565b6008546001600160a01b031633146112c157604051631a27eac360e11b815260040160405180910390fd5b5f8190036112e257604051631121aa8d60e01b815260040160405180910390fd5b6112ec6018611bfb565b5f816001600160401b03811115611305576113056128b0565b60405190808252806020026020018201604052801561132e578160200160208202803683370190505b5090505f82815b8161ffff168161ffff16101561145d575f86868361ffff1681811061135c5761135c612860565b6113729260206040909202019081019150612485565b90505f87878461ffff1681811061138b5761138b612860565b90506040020160200160208101906113a39190612874565b905081868461ffff16815181106113bc576113bc612860565b60200260200101906001600160a01b031690816001600160a01b0316815250508063ffffffff165f036114045781604051636b30633560e01b81526004016105f99190612527565b5f61141a60188463ffffffff80861690611be616565b90508061143c57826040516346bdabe160e01b81526004016105f99190612527565b61144c63ffffffff83168761284d565b955050600190920191506113359050565b5061146783611d8c565b6006546040805163d1717c7d60e01b815290515f926001600160a01b03169163d1717c7d9160048083019260209291908290030181865afa1580156114ae573d5f5f3e3d5ffd5b505050506040513d601f19601f820116820180604052508101906114d291906128dd565b90506114df81600a6129e0565b83146114fe57604051639006dd2760e01b815260040160405180910390fd5b60405133907f2d47a742b8d7df7c1fc5a9a631b206b364e6cb2722490759f63bb3ab14b132e0905f90a2505050505050565b5f61052b826001611b39565b6060805f61154a6018611cb2565b90508061ffff166001600160401b03811115611568576115686128b0565b604051908082528060200260200182016040528015611591578160200160208202803683370190505b5092508061ffff166001600160401b038111156115b0576115b06128b0565b6040519080825280602002602001820160405280156115d9578160200160208202803683370190505b5091505f5b8161ffff168161ffff161015611670575f806115ff601861ffff8516611cbc565b9150915081868461ffff168151811061161a5761161a612860565b60200260200101906001600160a01b031690816001600160a01b03168152505080858461ffff168151811061165157611651612860565b63ffffffff9092166020928302919091019091015250506001016115de565b50509091565b61167e611b96565b805f0361168d576105df610cc4565b5f611699600c33611bc0565b915050818110156116bd576040516332194fd360e21b815260040160405180910390fd5b60065f9054906101000a90046001600160a01b03166001600160a01b0316633a0dad8e6040518163ffffffff1660e01b8152600401602060405180830381865afa15801561170d573d5f5f3e3d5ffd5b505050506040513d601f19601f8201168201806040525081019061173191906127db565b6001600160a01b03166351edffb133846040518363ffffffff1660e01b815260040161175e9291906128c4565b5f604051808303815f87803b158015611775575f5ffd5b505af1158015611787573d5f5f3e3d5ffd5b505050505f828261179891906129ee565b9050805f036117b2576117ac600c33611cca565b506117c0565b6117be600c3383611be6565b505b8260125f8282546117d191906129ee565b909155505060405183815233907f96a9a6886cdf3047a125454218a23d3961fd3a78643123b248a9d106d0ac94fd906020015b60405180910390a250506108296001600555565b5f61052b825f611b59565b61182b611b96565b805f0361184d5730604051636b30633560e01b81526004016105f99190612527565b5f611859600f33611bc0565b9150508181101561187d576040516312ea1f4960e11b815260040160405180910390fd5b60065f9054906101000a90046001600160a01b03166001600160a01b0316633a0dad8e6040518163ffffffff1660e01b8152600401602060405180830381865afa1580156118cd573d5f5f3e3d5ffd5b505050506040513d601f19601f820116820180604052508101906118f191906127db565b6001600160a01b031663be186b2033846040518363ffffffff1660e01b815260040161191e9291906128c4565b5f604051808303815f87803b158015611935575f5ffd5b505af1158015611947573d5f5f3e3d5ffd5b505050505f828261195891906129ee565b9050805f036119725761196c600f33611cca565b50611980565b61197e600f3383611be6565b505b8260135f82825461199191906129ee565b909155505060405183815233907f9cf37535785001dcc9767688232fcbc8698b3002d1207b50bc2afec3ff8934dc90602001611804565b5f61052b6119d583610d02565b5f611b39565b6060805f6119e96015611cb2565b90508061ffff166001600160401b03811115611a0757611a076128b0565b604051908082528060200260200182016040528015611a30578160200160208202803683370190505b5092508061ffff166001600160401b03811115611a4f57611a4f6128b0565b604051908082528060200260200182016040528015611a78578160200160208202803683370190505b5091505f5b8161ffff168161ffff161015611670575f80611a9e601561ffff8516611cbc565b9150915081868461ffff1681518110611ab957611ab9612860565b60200260200101906001600160a01b031690816001600160a01b03168152505080858461ffff1681518110611af057611af0612860565b60209081029190910101525050600101611a7d565b5f61052b82610d02565b6001600160a01b039182165f90815260016020908152604080832093909416825291909152205490565b5f6109c883600b5484610eed565b611b548383836001611e04565b505050565b5f5f611b6460025490565b9050611b8e60145482611b77919061284d565b600b54611b8590600161284d565b86919086611d16565b949350505050565b600260055403611bb957604051633ee5aeb560e01b815260040160405180910390fd5b6002600555565b5f808080611bd7866001600160a01b038716611ed6565b909450925050505b9250929050565b5f611b8e846001600160a01b03851684611f0e565b61082981611f2a565b5f611c0f8484611b0f565b90505f19811015611c4f5781811015611c4157828183604051637dc7a0d960e11b81526004016105f9939291906127ba565b611c4f84848484035f611e04565b50505050565b6001600160a01b038316611c7e575f604051634b637e8f60e11b81526004016105f99190612527565b6001600160a01b038216611ca7575f60405163ec442f0560e01b81526004016105f99190612527565b611b54838383611f73565b5f61052b82612086565b5f808080611bd78686612090565b5f6109c8836001600160a01b0384166120b9565b6001600160a01b038216611d07575f60405163ec442f0560e01b81526004016105f99190612527565b611d125f8383611f73565b5050565b5f611d43611d23836120d5565b8015611d3e57505f8480611d3957611d39612a01565b868809115b151590565b611d4e868686612101565b610f1e919061284d565b6001600160a01b038216611d81575f604051634b637e8f60e11b81526004016105f99190612527565b611d12825f83611f73565b5f5b8151811015611d1257611dc4828281518110611dac57611dac612860565b602002602001015160096121b190919063ffffffff16565b611dfc57818181518110611dda57611dda612860565b602002602001015160405163751dff9760e11b81526004016105f99190612527565b600101611d8e565b6001600160a01b038416611e2d575f60405163e602df0560e01b81526004016105f99190612527565b6001600160a01b038316611e56575f604051634a1406b160e11b81526004016105f99190612527565b6001600160a01b038085165f9081526001602090815260408083209387168352929052208290558015611c4f57826001600160a01b0316846001600160a01b03167f8c5be1e5ebec7d5bd14f71427d1e84f3dd0314c0f7b2291e5b200ac8c7c3b92584604051611ec891815260200190565b60405180910390a350505050565b5f818152600283016020526040812054819080611f0357611ef785856121c5565b92505f9150611bdf9050565b600192509050611bdf565b5f8281526002840160205260408120829055611b8e84846121d0565b5f611f3482612086565b90505f5b81811015611f6957600283015f611f4f85846121db565b815260208101919091526040015f90812055600101611f38565b50611d12826121e6565b6001600160a01b038316611f9d578060025f828254611f92919061284d565b90915550611ffa9050565b6001600160a01b0383165f9081526020819052604090205481811015611fdc5783818360405163391434e360e21b81526004016105f9939291906127ba565b6001600160a01b0384165f9081526020819052604090209082900390555b6001600160a01b03821661201657600280548290039055612034565b6001600160a01b0382165f9081526020819052604090208054820190555b816001600160a01b0316836001600160a01b03167fddf252ad1be2c89b69c2b068fc378daa952ba7f163c4a11628f55a4df523b3ef8360405161207991815260200190565b60405180910390a3505050565b5f61052b826121ef565b5f808061209d85856121db565b5f81815260029690960160205260409095205494959350505050565b5f81815260028301602052604081208190556109c883836121f8565b5f60028260038111156120ea576120ea612a15565b6120f49190612a29565b60ff166001149050919050565b5f5f5f61210e8686612203565b91509150815f036121325783818161212857612128612a01565b04925050506109c8565b81841161214957612149600385150260111861221f565b5f848688095f868103871696879004966002600389028118808a02820302808a02820302808a02820302808a02820302808a02820302808a02909103029181900381900460010185841190960395909502919093039390930492909217029150509392505050565b5f6109c8836001600160a01b038416612230565b5f6109c88383612247565b5f6109c88383612252565b5f6109c88383612299565b610829816122bf565b5f61052b825490565b5f6109c88383612318565b5f805f1983850993909202808410938190039390930393915050565b634e487b715f52806020526024601cfd5b5f9081526001919091016020526040902054151590565b5f6109c88383612230565b5f61225d8383612230565b61229257508154600181810184555f84815260208082209093018490558454848252828601909352604090209190915561052b565b505f61052b565b5f825f0182815481106122ae576122ae612860565b905f5260205f200154905092915050565b5f6122c8825490565b90505f5b8181101561231157826001015f845f0183815481106122ed576122ed612860565b905f5260205f20015481526020019081526020015f205f90558060010190506122cc565b50505f9055565b5f81815260018301602052604081205480156123f2575f61233a6001836129ee565b85549091505f9061234d906001906129ee565b90508082146123ac575f865f01828154811061236b5761236b612860565b905f5260205f200154905080875f01848154811061238b5761238b612860565b5f918252602080832090910192909255918252600188019052604090208390555b85548690806123bd576123bd612a56565b600190038181905f5260205f20015f90559055856001015f8681526020019081526020015f205f90556001935050505061052b565b5f91505061052b565b602081525f82518060208401528060208501604085015e5f604082850101526040601f19601f83011684010191505092915050565b5f60208284031215612440575f5ffd5b5035919050565b6001600160a01b0381168114610829575f5ffd5b5f5f6040838503121561246c575f5ffd5b823561247781612447565b946020939093013593505050565b5f60208284031215612495575f5ffd5b81356109c881612447565b5f5f83601f8401126124b0575f5ffd5b5081356001600160401b038111156124c6575f5ffd5b6020830191508360208260061b8501011115611bdf575f5ffd5b5f5f5f604084860312156124f2575f5ffd5b83356001600160401b03811115612507575f5ffd5b612513868287016124a0565b909790965060209590950135949350505050565b6001600160a01b0391909116815260200190565b5f5f5f6060848603121561254d575f5ffd5b833561255881612447565b9250602084013561256881612447565b929592945050506040919091013590565b5f5f6040838503121561258a575f5ffd5b82359150602083013561259c81612447565b809150509250929050565b5f5f5f606084860312156125b9575f5ffd5b83359250602084013591506040840135600481106125d5575f5ffd5b809150509250925092565b5f5f602083850312156125f1575f5ffd5b82356001600160401b03811115612606575f5ffd5b612612858286016124a0565b90969095509350505050565b5f5f5f60608486031215612630575f5ffd5b83359250602084013561264281612447565b915060408401356125d581612447565b5f8151808452602084019350602083015f5b8281101561268b5781516001600160a01b0316865260209586019590910190600101612664565b5093949350505050565b604081525f6126a76040830185612652565b82810360208401528084518083526020830191506020860192505f5b818110156126e757835163ffffffff168352602093840193909201916001016126c3565b50909695505050505050565b604081525f6127056040830185612652565b82810360208401528084518083526020830191506020860192505f5b818110156126e7578351835260209384019390920191600101612721565b5f5f60408385031215612750575f5ffd5b823561275b81612447565b9150602083013561259c81612447565b600181811c9082168061277f57607f821691505b60208210810361279d57634e487b7160e01b5f52602260045260245ffd5b50919050565b5f602082840312156127b3575f5ffd5b5051919050565b6001600160a01b039390931683526020830191909152604082015260600190565b5f602082840312156127eb575f5ffd5b81516109c881612447565b6001600160a01b039384168152919092166020820152604081019190915260600190565b5f6020828403121561282a575f5ffd5b815180151581146109c8575f5ffd5b634e487b7160e01b5f52601160045260245ffd5b8082018082111561052b5761052b612839565b634e487b7160e01b5f52603260045260245ffd5b5f60208284031215612884575f5ffd5b813563ffffffff811681146109c8575f5ffd5b60ff818116838216019081111561052b5761052b612839565b634e487b7160e01b5f52604160045260245ffd5b6001600160a01b03929092168252602082015260400190565b5f602082840312156128ed575f5ffd5b815160ff811681146109c8575f5ffd5b6001815b60018411156129385780850481111561291c5761291c612839565b600184161561292a57908102905b60019390931c928002612901565b935093915050565b5f8261294e5750600161052b565b8161295a57505f61052b565b8160018114612970576002811461297a57612996565b600191505061052b565b60ff84111561298b5761298b612839565b50506001821b61052b565b5060208310610133831016604e8410600b84101617156129b9575081810a61052b565b6129c55f1984846128fd565b805f19048211156129d8576129d8612839565b029392505050565b5f6109c860ff841683612940565b8181038181111561052b5761052b612839565b634e487b7160e01b5f52601260045260245ffd5b634e487b7160e01b5f52602160045260245ffd5b5f60ff831680612a4757634e487b7160e01b5f52601260045260245ffd5b8060ff84160691505092915050565b634e487b7160e01b5f52603160045260245ffdfea264697066735822122002d3918ea2148f711c3f5433b1b8da4c1e2e01e008855f59436ff87fc2e9672c64736f6c634300081c0033a264697066735822122079517f54fb485f10763caf6323958c0c86c25a99b1df3153d85857a9b32038bc64736f6c634300081c0033",
  "linkReferences": {},
  "deployedLinkReferences": {}
}