{
  "_format": "hh-sol-artifact-1",
  "contractName": "OracleRegistry",
  "sourceName": "contracts/OracleRegistry.sol",
  "abi": [
    {
      "inputs": [
        {
          "internalType": "address",
          "name": "target",
          "type": "address"
        }
      ],
      "name": "AddressEmptyCode",
      "type": "error"
    },
    {
      "inputs": [
        {
          "internalType": "address",
          "name": "implementation",
          "type": "address"
        }
      ],
      "name": "ERC1967InvalidImplementation",
      "type": "error"
    },
    {
      "inputs": [],
      "name": "ERC1967NonPayable",
      "type": "error"
    },
    {
      "inputs": [],
      "name": "FailedCall",
      "type": "error"
    },
    {
      "inputs": [],
      "name": "InvalidInitialization",
      "type": "error"
    },
    {
      "inputs": [],
      "name": "NotInitializing",
      "type": "error"
    },
    {
      "inputs": [],
      "name": "OracleNotSet",
      "type": "error"
    },
    {
      "inputs": [
        {
          "internalType": "address",
          "name": "owner",
          "type": "address"
        }
      ],
      "name": "OwnableInvalidOwner",
      "type": "error"
    },
    {
      "inputs": [
        {
          "internalType": "address",
          "name": "account",
          "type": "address"
        }
      ],
      "name": "OwnableUnauthorizedAccount",
      "type": "error"
    },
    {
      "inputs": [],
      "name": "UUPSUnauthorizedCallContext",
      "type": "error"
    },
    {
      "inputs": [
        {
          "internalType": "bytes32",
          "name": "slot",
          "type": "bytes32"
        }
      ],
      "name": "UUPSUnsupportedProxiableUUID",
      "type": "error"
    },
    {
      "inputs": [],
      "name": "ZeroAddress",
      "type": "error"
    },
    {
      "anonymous": false,
      "inputs": [
        {
          "indexed": false,
          "internalType": "uint64",
          "name": "version",
          "type": "uint64"
        }
      ],
      "name": "Initialized",
      "type": "event"
    },
    {
      "anonymous": false,
      "inputs": [
        {
          "indexed": true,
          "internalType": "address",
          "name": "asset",
          "type": "address"
        },
        {
          "indexed": true,
          "internalType": "address",
          "name": "oracle",
          "type": "address"
        }
      ],
      "name": "OracleRegistered",
      "type": "event"
    },
    {
      "anonymous": false,
      "inputs": [
        {
          "indexed": true,
          "internalType": "address",
          "name": "previousOwner",
          "type": "address"
        },
        {
          "indexed": true,
          "internalType": "address",
          "name": "newOwner",
          "type": "address"
        }
      ],
      "name": "OwnershipTransferStarted",
      "type": "event"
    },
    {
      "anonymous": false,
      "inputs": [
        {
          "indexed": true,
          "internalType": "address",
          "name": "previousOwner",
          "type": "address"
        },
        {
          "indexed": true,
          "internalType": "address",
          "name": "newOwner",
          "type": "address"
        }
      ],
      "name": "OwnershipTransferred",
      "type": "event"
    },
    {
      "anonymous": false,
      "inputs": [
        {
          "indexed": true,
          "internalType": "address",
          "name": "implementation",
          "type": "address"
        }
      ],
      "name": "Upgraded",
      "type": "event"
    },
    {
      "inputs": [],
      "name": "UPGRADE_INTERFACE_VERSION",
      "outputs": [
        {
          "internalType": "string",
          "name": "",
          "type": "string"
        }
      ],
      "stateMutability": "view",
      "type": "function"
    },
    {
      "inputs": [],
      "name": "acceptOwnership",
      "outputs": [],
      "stateMutability": "nonpayable",
      "type": "function"
    },
    {
      "inputs": [
        {
          "internalType": "address",
          "name": "initialOwner",
          "type": "address"
        }
      ],
      "name": "initialize",
      "outputs": [],
      "stateMutability": "nonpayable",
      "type": "function"
    },
    {
      "inputs": [
        {
          "internalType": "address",
          "name": "",
          "type": "address"
        }
      ],
      "name": "oracleOf",
      "outputs": [
        {
          "internalType": "address",
          "name": "",
          "type": "address"
        }
      ],
      "stateMutability": "view",
      "type": "function"
    },
    {
      "inputs": [],
      "name": "owner",
      "outputs": [
        {
          "internalType": "address",
          "name": "",
          "type": "address"
        }
      ],
      "stateMutability": "view",
      "type": "function"
    },
    {
      "inputs": [],
      "name": "pendingOwner",
      "outputs": [
        {
          "internalType": "address",
          "name": "",
          "type": "address"
        }
      ],
      "stateMutability": "view",
      "type": "function"
    },
    {
      "inputs": [
        {
          "internalType": "address",
          "name": "asset",
          "type": "address"
        }
      ],
      "name": "price",
      "outputs": [
        {
          "internalType": "uint256",
          "name": "",
          "type": "uint256"
        }
      ],
      "stateMutability": "view",
      "type": "function"
    },
    {
      "inputs": [],
      "name": "proxiableUUID",
      "outputs": [
        {
          "internalType": "bytes32",
          "name": "",
          "type": "bytes32"
        }
      ],
      "stateMutability": "view",
      "type": "function"
    },
    {
      "inputs": [],
      "name": "renounceOwnership",
      "outputs": [],
      "stateMutability": "nonpayable",
      "type": "function"
    },
    {
      "inputs": [
        {
          "internalType": "address",
          "name": "asset",
          "type": "address"
        },
        {
          "internalType": "address",
          "name": "oracle",
          "type": "address"
        }
      ],
      "name": "setOracle",
      "outputs": [],
      "stateMutability": "nonpayable",
      "type": "function"
    },
    {
      "inputs": [
        {
          "internalType": "address",
          "name": "newOwner",
          "type": "address"
        }
      ],
      "name": "transferOwnership",
      "outputs": [],
      "stateMutability": "nonpayable",
      "type": "function"
    },
    {
      "inputs": [
        {
          "internalType": "address",
          "name": "asset",
          "type": "address"
        }
      ],
      "name": "update",
      "outputs": [
        {
          "internalType": "uint256",
          "name": "newPrice",
          "type": "uint256"
        }
      ],
      "stateMutability": "nonpayable",
      "type": "function"
    },
    {
      "inputs": [
        {
          "internalType": "address",
          "name": "newImplementation",
          "type": "address"
        },
        {
          "internalType": "bytes",
          "name": "data",
          "type": "bytes"
        }
      ],
      "name": "upgradeToAndCall",
      "outputs": [],
      "stateMutability": "payable",
      "type": "function"
    }
  ],
  "bytecode": "0x60a0604052306080523480156012575f80fd5b50608051610d616100395f395f81816106c8015281816106f101526108350152610d615ff3fe6080604052600436106100bf575f3560e01c80638da5cb5b1161007c578063c4d66de811610057578063c4d66de8146101ed578063e30c39781461020c578063f2fde38b14610220578063f890e2861461023f575f80fd5b80638da5cb5b14610165578063ad3cb1cc14610191578063aea91078146101ce575f80fd5b80631c1b8772146100c35780634f1ef286146100f557806352d1902d1461010a5780635c38eb3a1461011e578063715018a61461013d57806379ba509714610151575b5f80fd5b3480156100ce575f80fd5b506100e26100dd366004610b87565b610273565b6040519081526020015b60405180910390f35b610108610103366004610bb4565b610315565b005b348015610115575f80fd5b506100e2610334565b348015610129575f80fd5b50610108610138366004610c78565b61034f565b348015610148575f80fd5b506101086103e8565b34801561015c575f80fd5b506101086103fb565b348015610170575f80fd5b50610179610448565b6040516001600160a01b0390911681526020016100ec565b34801561019c575f80fd5b506101c1604051806040016040528060058152602001640352e302e360dc1b81525081565b6040516100ec9190610ca9565b3480156101d9575f80fd5b506100e26101e8366004610b87565b61047c565b3480156101f8575f80fd5b50610108610207366004610b87565b6104f2565b348015610217575f80fd5b50610179610610565b34801561022b575f80fd5b5061010861023a366004610b87565b610638565b34801561024a575f80fd5b50610179610259366004610b87565b5f602081905290815260409020546001600160a01b031681565b6001600160a01b038082165f90815260208190526040812054909116806102ad57604051633e1e538160e21b815260040160405180910390fd5b806001600160a01b031663a2e620456040518163ffffffff1660e01b81526004016020604051808303815f875af11580156102ea573d5f803e3d5ffd5b505050506040513d601f19601f8201168201806040525081019061030e9190610cde565b9392505050565b61031d6106bd565b61032682610761565b6103308282610769565b5050565b5f61033d61082a565b505f80516020610d0c83398151915290565b610357610873565b6001600160a01b038216158061037457506001600160a01b038116155b156103925760405163d92e233d60e01b815260040160405180910390fd5b6001600160a01b038281165f8181526020819052604080822080546001600160a01b0319169486169485179055517fd77bc4c2f7fd8495602011f5f417f854ac2849ed4c4567cd58df6c9b963a37679190a35050565b6103f0610873565b6103f95f6108a5565b565b3380610405610610565b6001600160a01b03161461043c5760405163118cdaa760e01b81526001600160a01b03821660048201526024015b60405180910390fd5b610445816108a5565b50565b5f807f9016d09d72d40fdae2fd8ceac6b6234c7706214fd39c1cd1e609a0528c1993005b546001600160a01b031692915050565b6001600160a01b038082165f90815260208190526040812054909116806104b657604051633e1e538160e21b815260040160405180910390fd5b806001600160a01b031663a035b1fe6040518163ffffffff1660e01b8152600401602060405180830381865afa1580156102ea573d5f803e3d5ffd5b7ff0c57e16840df040f15088dc2f81fe391c3923bec73e23a9662efc9c229c6a008054600160401b810460ff16159067ffffffffffffffff165f811580156105375750825b90505f8267ffffffffffffffff1660011480156105535750303b155b905081158015610561575080155b1561057f5760405163f92ee8a960e01b815260040160405180910390fd5b845467ffffffffffffffff1916600117855583156105a957845460ff60401b1916600160401b1785555b6105b16108dd565b6105b96108dd565b6105c2866108a5565b831561060857845460ff60401b19168555604051600181527fc7f505b2f371ae2175ee4913f4499e1f2633a7b5936321eed1cdaeb6115181d29060200160405180910390a15b505050505050565b5f807f237e158222e3e6968b72b9db0d8043aacf074ad9f650f0d1606b4d82ee432c0061046c565b610640610873565b7f237e158222e3e6968b72b9db0d8043aacf074ad9f650f0d1606b4d82ee432c0080546001600160a01b0319166001600160a01b0383169081178255610684610448565b6001600160a01b03167f38d16b8cac22d99fc7c124b9cd0de2d3fa1faef420bfe791d8c362d765e2270060405160405180910390a35050565b306001600160a01b037f000000000000000000000000000000000000000000000000000000000000000016148061074357507f00000000000000000000000000000000000000000000000000000000000000006001600160a01b03166107375f80516020610d0c833981519152546001600160a01b031690565b6001600160a01b031614155b156103f95760405163703e46dd60e11b815260040160405180910390fd5b610445610873565b816001600160a01b03166352d1902d6040518163ffffffff1660e01b8152600401602060405180830381865afa9250505080156107c3575060408051601f3d908101601f191682019092526107c091810190610cde565b60015b6107eb57604051634c9c8ce360e01b81526001600160a01b0383166004820152602401610433565b5f80516020610d0c833981519152811461081b57604051632a87526960e21b815260048101829052602401610433565b61082583836108e5565b505050565b306001600160a01b037f000000000000000000000000000000000000000000000000000000000000000016146103f95760405163703e46dd60e11b815260040160405180910390fd5b3361087c610448565b6001600160a01b0316146103f95760405163118cdaa760e01b8152336004820152602401610433565b7f237e158222e3e6968b72b9db0d8043aacf074ad9f650f0d1606b4d82ee432c0080546001600160a01b03191681556103308261093a565b6103f96109aa565b6108ee826109f3565b6040516001600160a01b038316907fbc7cd75a20ee27fd9adebab32041f755214dbc6bffa90cc0225b39da2e5c2d3b905f90a2805115610932576108258282610a56565b610330610ac8565b7f9016d09d72d40fdae2fd8ceac6b6234c7706214fd39c1cd1e609a0528c19930080546001600160a01b031981166001600160a01b03848116918217845560405192169182907f8be0079c531659141344cd1fd0a4f28419497f9722a3daafe3b4186f6b6457e0905f90a3505050565b7ff0c57e16840df040f15088dc2f81fe391c3923bec73e23a9662efc9c229c6a0054600160401b900460ff166103f957604051631afcd79f60e31b815260040160405180910390fd5b806001600160a01b03163b5f03610a2857604051634c9c8ce360e01b81526001600160a01b0382166004820152602401610433565b5f80516020610d0c83398151915280546001600160a01b0319166001600160a01b0392909216919091179055565b60605f80846001600160a01b031684604051610a729190610cf5565b5f60405180830381855af49150503d805f8114610aaa576040519150601f19603f3d011682016040523d82523d5f602084013e610aaf565b606091505b5091509150610abf858383610ae7565b95945050505050565b34156103f95760405163b398979f60e01b815260040160405180910390fd5b606082610afc57610af782610b43565b61030e565b8151158015610b1357506001600160a01b0384163b155b15610b3c57604051639996b31560e01b81526001600160a01b0385166004820152602401610433565b5092915050565b805115610b535780518082602001fd5b60405163d6bda27560e01b815260040160405180910390fd5b80356001600160a01b0381168114610b82575f80fd5b919050565b5f60208284031215610b97575f80fd5b61030e82610b6c565b634e487b7160e01b5f52604160045260245ffd5b5f8060408385031215610bc5575f80fd5b610bce83610b6c565b9150602083013567ffffffffffffffff811115610be9575f80fd5b8301601f81018513610bf9575f80fd5b803567ffffffffffffffff811115610c1357610c13610ba0565b604051601f8201601f19908116603f0116810167ffffffffffffffff81118282101715610c4257610c42610ba0565b604052818152828201602001871015610c59575f80fd5b816020840160208301375f602083830101528093505050509250929050565b5f8060408385031215610c89575f80fd5b610c9283610b6c565b9150610ca060208401610b6c565b90509250929050565b602081525f82518060208401528060208501604085015e5f604082850101526040601f19601f83011684010191505092915050565b5f60208284031215610cee575f80fd5b5051919050565b5f82518060208501845e5f92019182525091905056fe360894a13ba1a3210667c828492db98dca3e2076cc3735a920a3ca505d382bbca26469706673582212207f98ccd832e4aaf049d937351267aa204f28a5a54164ac9051698d0a0537696464736f6c634300081a0033",
  "linkReferences": {},
  "deployedLinkReferences": {}
}