{
  "_format": "hh-sol-artifact-1",
  "contractName": "OracleRegistry",
  "sourceName": "contracts/OracleRegistry.sol",
  "abi": [
    {
      "inputs": [
        {
          "internalType": "address",
          "name": "target",
          "type": "address"
        }
      ],
      "name": "AddressEmptyCode",
      "type": "error"
    },
    {
      "inputs": [
        {
          "internalType": "address",
          "name": "implementation",
          "type": "address"
        }
      ],
      "name": "ERC1967InvalidImplementation",
      "type": "error"
    },
    {
      "inputs": [],
      "name": "ERC1967NonPayable",
      "type": "error"
    },
    {
      "inputs": [],
      "name": "FailedCall",
      "type": "error"
    },
    {
      "inputs": [],
      "name": "InvalidInitialization",
      "type": "error"
    },
    {
      "inputs": [],
      "name": "NotInitializing",
      "type": "error"
    },
    {
      "inputs": [],
      "name": "OracleNotSet",
      "type": "error"
    },
    {
      "inputs": [
        {
          "internalType": "address",
          "name": "owner",
          "type": "address"
        }
      ],
      "name": "OwnableInvalidOwner",
      "type": "error"
    },
    {
      "inputs": [
        {
          "internalType": "address",
          "name": "account",
          "type": "address"
        }
      ],
      "name": "OwnableUnauthorizedAccount",
      "type": "error"
    },
    {
      "inputs": [],
      "name": "UUPSUnauthorizedCallContext",
      "type": "error"
    },
    {
      "inputs": [
        {
          "internalType": "bytes32",
          "name": "slot",
          "type": "bytes32"
        }
      ],
      "name": "UUPSUnsupportedProxiableUUID",
      "type": "error"
    },
    {
      "inputs": [],
      "name": "ZeroAddress",
      "type": "error"
    },
    {
      "anonymous": false,
      "inputs": [
        {
          "indexed": false,
          "internalType": "uint64",
          "name": "version",
          "type": "uint64"
        }
      ],
      "name": "Initialized",
      "type": "event"
    },
    {
      "anonymous": false,
      "inputs": [
        {
          "indexed": true,
          "internalType": "address",
          "name": "asset",
          "type": "address"
        },
        {
          "indexed": true,
          "internalType": "address",
          "name": "oracle",
          "type": "address"
        }
      ],
      "name": "OracleRegistered",
      "type": "event"
    },
    {
      "anonymous": false,
      "inputs": [
        {
          "indexed": true,
          "internalType": "address",
          "name": "previousOwner",
          "type": "address"
        },
        {
          "indexed": true,
          "internalType": "address",
          "name": "newOwner",
          "type": "address"
        }
      ],
      "name": "OwnershipTransferStarted",
      "type": "event"
    },
    {
      "anonymous": false,
      "inputs": [
        {
          "indexed": true,
          "internalType": "address",
          "name": "previousOwner",
          "type": "address"
        },
        {
          "indexed": true,
          "internalType": "address",
          "name": "newOwner",
          "type": "address"
        }
      ],
      "name": "OwnershipTransferred",
      "type": "event"
    },
    {
      "anonymous": false,
      "inputs": [
        {
          "indexed": true,
          "internalType": "address",
          "name": "implementation",
          "type": "address"
        }
      ],
      "name": "Upgraded",
      "type": "event"
    },
    {
      "inputs": [],
      "name": "UPGRADE_INTERFACE_VERSION",
      "outputs": [
        {
          "internalType": "string",
          "name": "",
          "type": "string"
        }
      ],
      "stateMutability": "view",
      "type": "function"
    },
    {
      "inputs": [],
      "name": "acceptOwnership",
      "outputs": [],
      "stateMutability": "nonpayable",
      "type": "function"
    },
    {
      "inputs": [
        {
          "internalType": "address",
          "name": "initialOwner",
          "type": "address"
        }
      ],
      "name": "initialize",
      "outputs": [],
      "stateMutability": "nonpayable",
      "type": "function"
    },
    {
      "inputs": [
        {
          "internalType": "address",
          "name": "",
          "type": "address"
        }
      ],
      "name": "oracleOf",
      "outputs": [
        {
          "internalType": "address",
          "name": "",
          "type": "address"
        }
      ],
      "stateMutability": "view",
      "type": "function"
    },
    {
      "inputs": [],
      "name": "owner",
      "outputs": [
        {
          "internalType": "address",
          "name": "",
          "type": "address"
        }
      ],
      "stateMutability": "view",
      "type": "function"
    },
    {
      "inputs": [],
      "name": "pendingOwner",
      "outputs": [
        {
          "internalType": "address",
          "name": "",
          "type": "address"
        }
      ],
      "stateMutability": "view",
      "type": "function"
    },
    {
      "inputs": [
        {
          "internalType": "address",
          "name": "asset",
          "type": "address"
        }
      ],
      "name": "price",
      "outputs": [
        {
          "internalType": "uint256",
          "name": "",
          "type": "uint256"
        }
      ],
      "stateMutability": "view",
      "type": "function"
    },
    {
      "inputs": [],
      "name": "proxiableUUID",
      "outputs": [
        {
          "internalType": "bytes32",
          "name": "",
          "type": "bytes32"
        }
      ],
      "stateMutability": "view",
      "type": "function"
    },
    {
      "inputs": [],
      "name": "renounceOwnership",
      "outputs": [],
      "stateMutability": "nonpayable",
      "type": "function"
    },
    {
      "inputs": [
        {
          "internalType": "address",
          "name": "asset",
          "type": "address"
        },
        {
          "internalType": "address",
          "name": "oracle",
          "type": "address"
        }
      ],
      "name": "setOracle",
      "outputs": [],
      "stateMutability": "nonpayable",
      "type": "function"
    },
    {
      "inputs": [
        {
          "internalType": "address",
          "name": "newOwner",
          "type": "address"
        }
      ],
      "name": "transferOwnership",
      "outputs": [],
      "stateMutability": "nonpayable",
      "type": "function"
    },
    {
      "inputs": [
        {
          "internalType": "address",
          "name": "newImplementation",
          "type": "address"
        },
        {
          "internalType": "bytes",
          "name": "data",
          "type": "bytes"
        }
      ],
      "name": "upgradeToAndCall",
      "outputs": [],
      "stateMutability": "payable",
      "type": "function"
    }
  ],
  "bytecode": "0x60a06040523073ffffffffffffffffffffffffffffffffffffffff1660809073ffffffffffffffffffffffffffffffffffffffff168152503480156041575f80fd5b50608051611a046100685f395f8181610bb701528181610c0c0152610e020152611a045ff3fe6080604052600436106100a6575f3560e01c8063ad3cb1cc11610063578063ad3cb1cc1461016e578063aea9107814610198578063c4d66de8146101d4578063e30c3978146101fc578063f2fde38b14610226578063f890e2861461024e576100a6565b80634f1ef286146100aa57806352d1902d146100c65780635c38eb3a146100f0578063715018a61461011857806379ba50971461012e5780638da5cb5b14610144575b5f80fd5b6100c460048036038101906100bf919061168f565b61028a565b005b3480156100d1575f80fd5b506100da6102a9565b6040516100e79190611701565b60405180910390f35b3480156100fb575f80fd5b506101166004803603810190610111919061171a565b6102da565b005b348015610123575f80fd5b5061012c610556565b005b348015610139575f80fd5b50610142610569565b005b34801561014f575f80fd5b506101586105f7565b6040516101659190611767565b60405180910390f35b348015610179575f80fd5b5061018261062c565b60405161018f91906117e0565b60405180910390f35b3480156101a3575f80fd5b506101be60048036038101906101b99190611800565b610665565b6040516101cb9190611843565b60405180910390f35b3480156101df575f80fd5b506101fa60048036038101906101f59190611800565b610853565b005b348015610207575f80fd5b50610210610a98565b60405161021d9190611767565b60405180910390f35b348015610231575f80fd5b5061024c60048036038101906102479190611800565b610acd565b005b348015610259575f80fd5b50610274600480360381019061026f9190611800565b610b86565b6040516102819190611767565b60405180910390f35b610292610bb5565b61029b82610c9b565b6102a58282610ce2565b5050565b5f6102b2610e00565b7f360894a13ba1a3210667c828492db98dca3e2076cc3735a920a3ca505d382bbc5f1b905090565b6102ee67679d7ad7fbcbb19360c01b610e87565b6102f6610e8a565b61030a67a1cefc3a0e4b6aa360c01b610e87565b61031e673b69f9140fbb875760c01b610e87565b610332670fd376259aa369bc60c01b610e87565b61034667dc2c7dbcb233b17660c01b610e87565b5f73ffffffffffffffffffffffffffffffffffffffff168273ffffffffffffffffffffffffffffffffffffffff16148015610391575061039067e2f86132bc7a132960c01b610f11565b5b806103e357505f73ffffffffffffffffffffffffffffffffffffffff168173ffffffffffffffffffffffffffffffffffffffff161480156103e257506103e167e7d523f80f9030b760c01b610f11565b5b5b1561042e576103fc67019b499c6e1822e460c01b610e87565b6040517fd92e233d00000000000000000000000000000000000000000000000000000000815260040160405180910390fd5b610442675115e34f5e1115af60c01b610e87565b61045667f09fe78a344873f560c01b610e87565b805f808473ffffffffffffffffffffffffffffffffffffffff1673ffffffffffffffffffffffffffffffffffffffff1681526020019081526020015f205f6101000a81548173ffffffffffffffffffffffffffffffffffffffff021916908373ffffffffffffffffffffffffffffffffffffffff1602179055506104e467299651928ffa7d2060c01b610e87565b6104f867c2fafb3345e32f1360c01b610e87565b8073ffffffffffffffffffffffffffffffffffffffff168273ffffffffffffffffffffffffffffffffffffffff167fd77bc4c2f7fd8495602011f5f417f854ac2849ed4c4567cd58df6c9b963a376760405160405180910390a35050565b61055e610e8a565b6105675f610f1b565b565b5f610572610f58565b90508073ffffffffffffffffffffffffffffffffffffffff16610593610a98565b73ffffffffffffffffffffffffffffffffffffffff16146105eb57806040517f118cdaa70000000000000000000000000000000000000000000000000000000081526004016105e29190611767565b60405180910390fd5b6105f481610f1b565b50565b5f80610601610f5f565b9050805f015f9054906101000a900473ffffffffffffffffffffffffffffffffffffffff1691505090565b6040518060400160405280600581526020017f352e302e3000000000000000000000000000000000000000000000000000000081525081565b5f61067a67fe964401d874909160c01b610e87565b61068e672a3049b1072e5d4b60c01b610e87565b6106a2674381ddd73615a0c760c01b610e87565b5f805f8473ffffffffffffffffffffffffffffffffffffffff1673ffffffffffffffffffffffffffffffffffffffff1681526020019081526020015f205f9054906101000a900473ffffffffffffffffffffffffffffffffffffffff16905061071567c85d954e033202ad60c01b610e87565b61072967b026daef63540de760c01b610e87565b5f73ffffffffffffffffffffffffffffffffffffffff168173ffffffffffffffffffffffffffffffffffffffff16036107a25761077067ebb4905331d92eb060c01b610e87565b6040517ff8794e0400000000000000000000000000000000000000000000000000000000815260040160405180910390fd5b6107b6679cae4369fe67e42360c01b610e87565b6107ca6728e54fe2c22de06360c01b610e87565b6107de67d41193d8353da0df60c01b610e87565b8073ffffffffffffffffffffffffffffffffffffffff1663a035b1fe6040518163ffffffff1660e01b8152600401602060405180830381865afa158015610827573d5f803e3d5ffd5b505050506040513d601f19601f8201168201806040525081019061084b9190611886565b915050919050565b610867671e641557187b7fe660c01b610e87565b5f610870610f86565b90505f815f0160089054906101000a900460ff161590505f825f015f9054906101000a900467ffffffffffffffff1690505f808267ffffffffffffffff161480156108b85750825b90505f60018367ffffffffffffffff161480156108eb57505f3073ffffffffffffffffffffffffffffffffffffffff163b145b9050811580156108f9575080155b15610930576040517ff92ee8a900000000000000000000000000000000000000000000000000000000815260040160405180910390fd5b6001855f015f6101000a81548167ffffffffffffffff021916908367ffffffffffffffff160217905550831561097d576001855f0160086101000a81548160ff0219169083151502179055505b61099167a5be5c3ac72f7f9560c01b610e87565b6109a5679402b509465f3aa560c01b610e87565b6109b96754900b075b212a3760c01b610e87565b6109cd67d56cfd4a1d0571fc60c01b610e87565b6109d686610f99565b6109ea678faf2b08baa77c1660c01b610e87565b6109fe67c57024907411d88460c01b610e87565b610a06610fad565b610a1a67b532e8f31dfae85560c01b610e87565b610a2e67f694208db24f81a960c01b610e87565b610a36610fb7565b8315610a90575f855f0160086101000a81548160ff0219169083151502179055507fc7f505b2f371ae2175ee4913f4499e1f2633a7b5936321eed1cdaeb6115181d26001604051610a879190611906565b60405180910390a15b505050505050565b5f80610aa2610fc1565b9050805f015f9054906101000a900473ffffffffffffffffffffffffffffffffffffffff1691505090565b610ad5610e8a565b5f610ade610fc1565b905081815f015f6101000a81548173ffffffffffffffffffffffffffffffffffffffff021916908373ffffffffffffffffffffffffffffffffffffffff1602179055508173ffffffffffffffffffffffffffffffffffffffff16610b406105f7565b73ffffffffffffffffffffffffffffffffffffffff167f38d16b8cac22d99fc7c124b9cd0de2d3fa1faef420bfe791d8c362d765e2270060405160405180910390a35050565b5f602052805f5260405f205f915054906101000a900473ffffffffffffffffffffffffffffffffffffffff1681565b7f000000000000000000000000000000000000000000000000000000000000000073ffffffffffffffffffffffffffffffffffffffff163073ffffffffffffffffffffffffffffffffffffffff161480610c6257507f000000000000000000000000000000000000000000000000000000000000000073ffffffffffffffffffffffffffffffffffffffff16610c49610fe8565b73ffffffffffffffffffffffffffffffffffffffff1614155b15610c99576040517fe07c8dba00000000000000000000000000000000000000000000000000000000815260040160405180910390fd5b565b610caf67dfc87ec9c5264d4c60c01b610e87565b610cb7610e8a565b610ccb678fa1b0c7e5ef1c6360c01b610e87565b610cdf671f6d8aef5873af5260c01b610e87565b50565b8173ffffffffffffffffffffffffffffffffffffffff166352d1902d6040518163ffffffff1660e01b8152600401602060405180830381865afa925050508015610d4a57506040513d601f19601f82011682018060405250810190610d479190611949565b60015b610d8b57816040517f4c9c8ce3000000000000000000000000000000000000000000000000000000008152600401610d829190611767565b60405180910390fd5b7f360894a13ba1a3210667c828492db98dca3e2076cc3735a920a3ca505d382bbc5f1b8114610df157806040517faa1d49a4000000000000000000000000000000000000000000000000000000008152600401610de89190611701565b60405180910390fd5b610dfb838361103b565b505050565b7f000000000000000000000000000000000000000000000000000000000000000073ffffffffffffffffffffffffffffffffffffffff163073ffffffffffffffffffffffffffffffffffffffff1614610e85576040517fe07c8dba00000000000000000000000000000000000000000000000000000000815260040160405180910390fd5b565b50565b610e92610f58565b73ffffffffffffffffffffffffffffffffffffffff16610eb06105f7565b73ffffffffffffffffffffffffffffffffffffffff1614610f0f57610ed3610f58565b6040517f118cdaa7000000000000000000000000000000000000000000000000000000008152600401610f069190611767565b60405180910390fd5b565b5f60019050919050565b5f610f24610fc1565b9050805f015f6101000a81549073ffffffffffffffffffffffffffffffffffffffff0219169055610f54826110ad565b5050565b5f33905090565b5f7f9016d09d72d40fdae2fd8ceac6b6234c7706214fd39c1cd1e609a0528c199300905090565b5f80610f9061117e565b90508091505090565b610fa16111a7565b610faa816111e7565b50565b610fb56111a7565b565b610fbf6111a7565b565b5f7f237e158222e3e6968b72b9db0d8043aacf074ad9f650f0d1606b4d82ee432c00905090565b5f6110147f360894a13ba1a3210667c828492db98dca3e2076cc3735a920a3ca505d382bbc5f1b61126b565b5f015f9054906101000a900473ffffffffffffffffffffffffffffffffffffffff16905090565b61104482611274565b8173ffffffffffffffffffffffffffffffffffffffff167fbc7cd75a20ee27fd9adebab32041f755214dbc6bffa90cc0225b39da2e5c2d3b60405160405180910390a25f815111156110a05761109a828261133d565b506110a9565b6110a86113bd565b5b5050565b5f6110b6610f5f565b90505f815f015f9054906101000a900473ffffffffffffffffffffffffffffffffffffffff16905082825f015f6101000a81548173ffffffffffffffffffffffffffffffffffffffff021916908373ffffffffffffffffffffffffffffffffffffffff1602179055508273ffffffffffffffffffffffffffffffffffffffff168173ffffffffffffffffffffffffffffffffffffffff167f8be0079c531659141344cd1fd0a4f28419497f9722a3daafe3b4186f6b6457e060405160405180910390a3505050565b5f7ff0c57e16840df040f15088dc2f81fe391c3923bec73e23a9662efc9c229c6a005f1b905090565b6111af6113f9565b6111e5576040517fd7e6bcf800000000000000000000000000000000000000000000000000000000815260040160405180910390fd5b565b6111ef6111a7565b5f73ffffffffffffffffffffffffffffffffffffffff168173ffffffffffffffffffffffffffffffffffffffff160361125f575f6040517f1e4fbdf70000000000000000000000000000000000000000000000000000000081526004016112569190611767565b60405180910390fd5b61126881610f1b565b50565b5f819050919050565b5f8173ffffffffffffffffffffffffffffffffffffffff163b036112cf57806040517f4c9c8ce30000000000000000000000000000000000000000000000000000000081526004016112c69190611767565b60405180910390fd5b806112fb7f360894a13ba1a3210667c828492db98dca3e2076cc3735a920a3ca505d382bbc5f1b61126b565b5f015f6101000a81548173ffffffffffffffffffffffffffffffffffffffff021916908373ffffffffffffffffffffffffffffffffffffffff16021790555050565b60605f808473ffffffffffffffffffffffffffffffffffffffff168460405161136691906119b8565b5f60405180830381855af49150503d805f811461139e576040519150601f19603f3d011682016040523d82523d5f602084013e6113a3565b606091505b50915091506113b3858383611417565b9250505092915050565b5f3411156113f7576040517fb398979f00000000000000000000000000000000000000000000000000000000815260040160405180910390fd5b565b5f611402610f86565b5f0160089054906101000a900460ff16905090565b60608261142c57611427826114a4565b61149c565b5f825114801561145257505f8473ffffffffffffffffffffffffffffffffffffffff163b145b1561149457836040517f9996b31500000000000000000000000000000000000000000000000000000000815260040161148b9190611767565b60405180910390fd5b81905061149d565b5b9392505050565b5f815111156114b65780518082602001fd5b6040517fd6bda27500000000000000000000000000000000000000000000000000000000815260040160405180910390fd5b5f604051905090565b5f80fd5b5f80fd5b5f73ffffffffffffffffffffffffffffffffffffffff82169050919050565b5f611522826114f9565b9050919050565b61153281611518565b811461153c575f80fd5b50565b5f8135905061154d81611529565b92915050565b5f80fd5b5f80fd5b5f601f19601f8301169050919050565b7f4e487b71000000000000000000000000000000000000000000000000000000005f52604160045260245ffd5b6115a18261155b565b810181811067ffffffffffffffff821117156115c0576115bf61156b565b5b80604052505050565b5f6115d26114e8565b90506115de8282611598565b919050565b5f67ffffffffffffffff8211156115fd576115fc61156b565b5b6116068261155b565b9050602081019050919050565b828183375f83830152505050565b5f61163361162e846115e3565b6115c9565b90508281526020810184848401111561164f5761164e611557565b5b61165a848285611613565b509392505050565b5f82601f83011261167657611675611553565b5b8135611686848260208601611621565b91505092915050565b5f80604083850312156116a5576116a46114f1565b5b5f6116b28582860161153f565b925050602083013567ffffffffffffffff8111156116d3576116d26114f5565b5b6116df85828601611662565b9150509250929050565b5f819050919050565b6116fb816116e9565b82525050565b5f6020820190506117145f8301846116f2565b92915050565b5f80604083850312156117305761172f6114f1565b5b5f61173d8582860161153f565b925050602061174e8582860161153f565b9150509250929050565b61176181611518565b82525050565b5f60208201905061177a5f830184611758565b92915050565b5f81519050919050565b5f82825260208201905092915050565b8281835e5f83830152505050565b5f6117b282611780565b6117bc818561178a565b93506117cc81856020860161179a565b6117d58161155b565b840191505092915050565b5f6020820190508181035f8301526117f881846117a8565b905092915050565b5f60208284031215611815576118146114f1565b5b5f6118228482850161153f565b91505092915050565b5f819050919050565b61183d8161182b565b82525050565b5f6020820190506118565f830184611834565b92915050565b6118658161182b565b811461186f575f80fd5b50565b5f815190506118808161185c565b92915050565b5f6020828403121561189b5761189a6114f1565b5b5f6118a884828501611872565b91505092915050565b5f819050919050565b5f67ffffffffffffffff82169050919050565b5f819050919050565b5f6118f06118eb6118e6846118b1565b6118cd565b6118ba565b9050919050565b611900816118d6565b82525050565b5f6020820190506119195f8301846118f7565b92915050565b611928816116e9565b8114611932575f80fd5b50565b5f815190506119438161191f565b92915050565b5f6020828403121561195e5761195d6114f1565b5b5f61196b84828501611935565b91505092915050565b5f81519050919050565b5f81905092915050565b5f61199282611974565b61199c818561197e565b93506119ac81856020860161179a565b80840191505092915050565b5f6119c38284611988565b91508190509291505056fea2646970667358221220c43af8ccaf7fbf3cb84a4f5ab8424644d75a1e6dfe4165871f2ef52b12b0fb1564736f6c634300081a0033",
  "linkReferences": {},
  "deployedLinkReferences": {}
}