{
  "_format": "hh-sol-artifact-1",
  "contractName": "MockAccessControl",
  "sourceName": "contracts/mocks/MockAccessControl.sol",
  "abi": [
    {
      "inputs": [],
      "stateMutability": "nonpayable",
      "type": "constructor"
    },
    {
      "inputs": [],
      "name": "NotOwner",
      "type": "error"
    },
    {
      "inputs": [],
      "name": "ZeroAddress",
      "type": "error"
    },
    {
      "anonymous": false,
      "inputs": [
        {
          "indexed": true,
          "internalType": "address",
          "name": "account",
          "type": "address"
        }
      ],
      "name": "AddressRemovedFromWhitelist",
      "type": "event"
    },
    {
      "anonymous": false,
      "inputs": [
        {
          "indexed": true,
          "internalType": "address",
          "name": "account",
          "type": "address"
        }
      ],
      "name": "AddressWhitelisted",
      "type": "event"
    },
    {
      "anonymous": false,
      "inputs": [
        {
          "indexed": true,
          "internalType": "address",
          "name": "previousOwner",
          "type": "address"
        },
        {
          "indexed": true,
          "internalType": "address",
          "name": "newOwner",
          "type": "address"
        }
      ],
      "name": "OwnershipTransferred",
      "type": "event"
    },
    {
      "inputs": [
        {
          "internalType": "address[]",
          "name": "accounts",
          "type": "address[]"
        }
      ],
      "name": "addBatchToWhitelist",
      "outputs": [],
      "stateMutability": "nonpayable",
      "type": "function"
    },
    {
      "inputs": [
        {
          "internalType": "address",
          "name": "account",
          "type": "address"
        }
      ],
      "name": "addToWhitelist",
      "outputs": [],
      "stateMutability": "nonpayable",
      "type": "function"
    },
    {
      "inputs": [
        {
          "internalType": "address",
          "name": "sender",
          "type": "address"
        }
      ],
      "name": "canRequestDeposit",
      "outputs": [
        {
          "internalType": "bool",
          "name": "",
          "type": "bool"
        }
      ],
      "stateMutability": "view",
      "type": "function"
    },
    {
      "inputs": [],
      "name": "owner",
      "outputs": [
        {
          "internalType": "address",
          "name": "",
          "type": "address"
        }
      ],
      "stateMutability": "view",
      "type": "function"
    },
    {
      "inputs": [
        {
          "internalType": "address",
          "name": "account",
          "type": "address"
        }
      ],
      "name": "removeFromWhitelist",
      "outputs": [],
      "stateMutability": "nonpayable",
      "type": "function"
    },
    {
      "inputs": [
        {
          "internalType": "address",
          "name": "newOwner",
          "type": "address"
        }
      ],
      "name": "transferOwnership",
      "outputs": [],
      "stateMutability": "nonpayable",
      "type": "function"
    },
    {
      "inputs": [
        {
          "internalType": "address",
          "name": "",
          "type": "address"
        }
      ],
      "name": "whitelist",
      "outputs": [
        {
          "internalType": "bool",
          "name": "",
          "type": "bool"
        }
      ],
      "stateMutability": "view",
      "type": "function"
    }
  ],
  "bytecode": "0x6080604052348015600e575f5ffd5b505f80546001600160a01b0319163390811782556040519091907f8be0079c531659141344cd1fd0a4f28419497f9722a3daafe3b4186f6b6457e0908290a36105188061005a5f395ff3fe608060405234801561000f575f5ffd5b506004361061006b575f3560e01c8063835e5d051461006f5780638ab1d681146100af5780638da5cb5b146100c45780639b19251a146100ee578063a3d19d8c14610110578063e43252d714610123578063f2fde38b14610136575b5f5ffd5b61009a61007d366004610412565b6001600160a01b03165f9081526001602052604090205460ff1690565b60405190151581526020015b60405180910390f35b6100c26100bd366004610412565b610149565b005b5f546100d6906001600160a01b031681565b6040516001600160a01b0390911681526020016100a6565b61009a6100fc366004610412565b60016020525f908152604090205460ff1681565b6100c261011e36600461043f565b6101bb565b6100c2610131366004610412565b6102e6565b6100c2610144366004610412565b610372565b5f546001600160a01b03163314610173576040516330cd747160e01b815260040160405180910390fd5b6001600160a01b0381165f81815260016020526040808220805460ff19169055517f535611fb62fa2a833988f283b779e417e996813e44046f521d76c17b5943b08c9190a250565b5f546001600160a01b031633146101e5576040516330cd747160e01b815260040160405180910390fd5b5f5b818110156102e1575f838383818110610202576102026104ae565b90506020020160208101906102179190610412565b6001600160a01b03160361023e5760405163d92e233d60e01b815260040160405180910390fd5b6001805f858585818110610254576102546104ae565b90506020020160208101906102699190610412565b6001600160a01b0316815260208101919091526040015f20805460ff19169115159190911790558282828181106102a2576102a26104ae565b90506020020160208101906102b79190610412565b6001600160a01b03165f5160206104c35f395f51905f5260405160405180910390a26001016101e7565b505050565b5f546001600160a01b03163314610310576040516330cd747160e01b815260040160405180910390fd5b6001600160a01b0381166103375760405163d92e233d60e01b815260040160405180910390fd5b6001600160a01b0381165f818152600160208190526040808320805460ff1916909217909155515f5160206104c35f395f51905f529190a250565b5f546001600160a01b0316331461039c576040516330cd747160e01b815260040160405180910390fd5b6001600160a01b0381166103c35760405163d92e233d60e01b815260040160405180910390fd5b5f80546001600160a01b038381166001600160a01b0319831681178455604051919092169283917f8be0079c531659141344cd1fd0a4f28419497f9722a3daafe3b4186f6b6457e09190a35050565b5f60208284031215610422575f5ffd5b81356001600160a01b0381168114610438575f5ffd5b9392505050565b5f5f60208385031215610450575f5ffd5b82356001600160401b03811115610465575f5ffd5b8301601f81018513610475575f5ffd5b80356001600160401b0381111561048a575f5ffd5b8560208260051b840101111561049e575f5ffd5b6020919091019590945092505050565b634e487b7160e01b5f52603260045260245ffdfe4f783c179409b4127238bc9c990bc99b9a651666a0d20b51d6c42849eb88466da2646970667358221220cebbb15f04cb374cbec6406360b9d5b1c487d0742641033760a97a3375a9083064736f6c634300081c0033",
  "linkReferences": {},
  "deployedLinkReferences": {}
}