{
  "_format": "hh-sol-artifact-1",
  "contractName": "OrionConfig",
  "sourceName": "contracts/OrionConfig.sol",
  "abi": [
    {
      "inputs": [
        {
          "internalType": "address",
          "name": "target",
          "type": "address"
        }
      ],
      "name": "AddressEmptyCode",
      "type": "error"
    },
    {
      "inputs": [],
      "name": "AlreadyAnOrionVault",
      "type": "error"
    },
    {
      "inputs": [],
      "name": "AlreadyWhitelisted",
      "type": "error"
    },
    {
      "inputs": [
        {
          "internalType": "address",
          "name": "implementation",
          "type": "address"
        }
      ],
      "name": "ERC1967InvalidImplementation",
      "type": "error"
    },
    {
      "inputs": [],
      "name": "ERC1967NonPayable",
      "type": "error"
    },
    {
      "inputs": [],
      "name": "FailedCall",
      "type": "error"
    },
    {
      "inputs": [],
      "name": "InvalidInitialization",
      "type": "error"
    },
    {
      "inputs": [],
      "name": "NotAnOrionVault",
      "type": "error"
    },
    {
      "inputs": [],
      "name": "NotFactory",
      "type": "error"
    },
    {
      "inputs": [],
      "name": "NotInitializing",
      "type": "error"
    },
    {
      "inputs": [
        {
          "internalType": "address",
          "name": "owner",
          "type": "address"
        }
      ],
      "name": "OwnableInvalidOwner",
      "type": "error"
    },
    {
      "inputs": [
        {
          "internalType": "address",
          "name": "account",
          "type": "address"
        }
      ],
      "name": "OwnableUnauthorizedAccount",
      "type": "error"
    },
    {
      "inputs": [
        {
          "internalType": "address",
          "name": "token",
          "type": "address"
        }
      ],
      "name": "TokenNotWhitelisted",
      "type": "error"
    },
    {
      "inputs": [],
      "name": "UUPSUnauthorizedCallContext",
      "type": "error"
    },
    {
      "inputs": [
        {
          "internalType": "bytes32",
          "name": "slot",
          "type": "bytes32"
        }
      ],
      "name": "UUPSUnsupportedProxiableUUID",
      "type": "error"
    },
    {
      "inputs": [],
      "name": "ZeroAddress",
      "type": "error"
    },
    {
      "anonymous": false,
      "inputs": [
        {
          "indexed": false,
          "internalType": "uint64",
          "name": "version",
          "type": "uint64"
        }
      ],
      "name": "Initialized",
      "type": "event"
    },
    {
      "anonymous": false,
      "inputs": [
        {
          "indexed": true,
          "internalType": "address",
          "name": "vault",
          "type": "address"
        }
      ],
      "name": "OrionVaultAdded",
      "type": "event"
    },
    {
      "anonymous": false,
      "inputs": [
        {
          "indexed": true,
          "internalType": "address",
          "name": "vault",
          "type": "address"
        }
      ],
      "name": "OrionVaultRemoved",
      "type": "event"
    },
    {
      "anonymous": false,
      "inputs": [
        {
          "indexed": true,
          "internalType": "address",
          "name": "previousOwner",
          "type": "address"
        },
        {
          "indexed": true,
          "internalType": "address",
          "name": "newOwner",
          "type": "address"
        }
      ],
      "name": "OwnershipTransferStarted",
      "type": "event"
    },
    {
      "anonymous": false,
      "inputs": [
        {
          "indexed": true,
          "internalType": "address",
          "name": "previousOwner",
          "type": "address"
        },
        {
          "indexed": true,
          "internalType": "address",
          "name": "newOwner",
          "type": "address"
        }
      ],
      "name": "OwnershipTransferred",
      "type": "event"
    },
    {
      "anonymous": false,
      "inputs": [],
      "name": "ProtocolParamsUpdated",
      "type": "event"
    },
    {
      "anonymous": false,
      "inputs": [
        {
          "indexed": true,
          "internalType": "address",
          "name": "implementation",
          "type": "address"
        }
      ],
      "name": "Upgraded",
      "type": "event"
    },
    {
      "anonymous": false,
      "inputs": [
        {
          "indexed": true,
          "internalType": "address",
          "name": "asset",
          "type": "address"
        }
      ],
      "name": "WhitelistedAssetAdded",
      "type": "event"
    },
    {
      "anonymous": false,
      "inputs": [
        {
          "indexed": true,
          "internalType": "address",
          "name": "asset",
          "type": "address"
        }
      ],
      "name": "WhitelistedAssetRemoved",
      "type": "event"
    },
    {
      "inputs": [],
      "name": "UPGRADE_INTERFACE_VERSION",
      "outputs": [
        {
          "internalType": "string",
          "name": "",
          "type": "string"
        }
      ],
      "stateMutability": "view",
      "type": "function"
    },
    {
      "inputs": [],
      "name": "acceptOwnership",
      "outputs": [],
      "stateMutability": "nonpayable",
      "type": "function"
    },
    {
      "inputs": [
        {
          "internalType": "address",
          "name": "vault",
          "type": "address"
        },
        {
          "internalType": "enum EventsLib.VaultType",
          "name": "vaultType",
          "type": "uint8"
        }
      ],
      "name": "addOrionVault",
      "outputs": [],
      "stateMutability": "nonpayable",
      "type": "function"
    },
    {
      "inputs": [
        {
          "internalType": "address",
          "name": "asset",
          "type": "address"
        },
        {
          "internalType": "address",
          "name": "oracleAdapter",
          "type": "address"
        },
        {
          "internalType": "address",
          "name": "executionAdapter",
          "type": "address"
        }
      ],
      "name": "addWhitelistedAsset",
      "outputs": [],
      "stateMutability": "nonpayable",
      "type": "function"
    },
    {
      "inputs": [],
      "name": "curatorIntentDecimals",
      "outputs": [
        {
          "internalType": "uint8",
          "name": "",
          "type": "uint8"
        }
      ],
      "stateMutability": "view",
      "type": "function"
    },
    {
      "inputs": [
        {
          "internalType": "enum EventsLib.VaultType",
          "name": "vaultType",
          "type": "uint8"
        }
      ],
      "name": "getAllOrionVaults",
      "outputs": [
        {
          "internalType": "address[]",
          "name": "",
          "type": "address[]"
        }
      ],
      "stateMutability": "view",
      "type": "function"
    },
    {
      "inputs": [],
      "name": "getAllWhitelistedAssets",
      "outputs": [
        {
          "internalType": "address[]",
          "name": "assets",
          "type": "address[]"
        }
      ],
      "stateMutability": "view",
      "type": "function"
    },
    {
      "inputs": [
        {
          "internalType": "uint256",
          "name": "index",
          "type": "uint256"
        }
      ],
      "name": "getWhitelistedAssetAt",
      "outputs": [
        {
          "internalType": "address",
          "name": "",
          "type": "address"
        }
      ],
      "stateMutability": "view",
      "type": "function"
    },
    {
      "inputs": [
        {
          "internalType": "address",
          "name": "initialOwner",
          "type": "address"
        }
      ],
      "name": "initialize",
      "outputs": [],
      "stateMutability": "nonpayable",
      "type": "function"
    },
    {
      "inputs": [],
      "name": "internalStatesOrchestrator",
      "outputs": [
        {
          "internalType": "address",
          "name": "",
          "type": "address"
        }
      ],
      "stateMutability": "view",
      "type": "function"
    },
    {
      "inputs": [
        {
          "internalType": "address",
          "name": "vault",
          "type": "address"
        }
      ],
      "name": "isOrionVault",
      "outputs": [
        {
          "internalType": "bool",
          "name": "",
          "type": "bool"
        }
      ],
      "stateMutability": "view",
      "type": "function"
    },
    {
      "inputs": [
        {
          "internalType": "address",
          "name": "asset",
          "type": "address"
        }
      ],
      "name": "isWhitelisted",
      "outputs": [
        {
          "internalType": "bool",
          "name": "",
          "type": "bool"
        }
      ],
      "stateMutability": "view",
      "type": "function"
    },
    {
      "inputs": [],
      "name": "liquidityOrchestrator",
      "outputs": [
        {
          "internalType": "address",
          "name": "",
          "type": "address"
        }
      ],
      "stateMutability": "view",
      "type": "function"
    },
    {
      "inputs": [],
      "name": "oracleRegistry",
      "outputs": [
        {
          "internalType": "address",
          "name": "",
          "type": "address"
        }
      ],
      "stateMutability": "view",
      "type": "function"
    },
    {
      "inputs": [],
      "name": "owner",
      "outputs": [
        {
          "internalType": "address",
          "name": "",
          "type": "address"
        }
      ],
      "stateMutability": "view",
      "type": "function"
    },
    {
      "inputs": [],
      "name": "pendingOwner",
      "outputs": [
        {
          "internalType": "address",
          "name": "",
          "type": "address"
        }
      ],
      "stateMutability": "view",
      "type": "function"
    },
    {
      "inputs": [],
      "name": "proxiableUUID",
      "outputs": [
        {
          "internalType": "bytes32",
          "name": "",
          "type": "bytes32"
        }
      ],
      "stateMutability": "view",
      "type": "function"
    },
    {
      "inputs": [
        {
          "internalType": "address",
          "name": "vault",
          "type": "address"
        },
        {
          "internalType": "enum EventsLib.VaultType",
          "name": "vaultType",
          "type": "uint8"
        }
      ],
      "name": "removeOrionVault",
      "outputs": [],
      "stateMutability": "nonpayable",
      "type": "function"
    },
    {
      "inputs": [
        {
          "internalType": "address",
          "name": "asset",
          "type": "address"
        }
      ],
      "name": "removeWhitelistedAsset",
      "outputs": [],
      "stateMutability": "nonpayable",
      "type": "function"
    },
    {
      "inputs": [],
      "name": "renounceOwnership",
      "outputs": [],
      "stateMutability": "nonpayable",
      "type": "function"
    },
    {
      "inputs": [
        {
          "internalType": "address",
          "name": "orchestrator",
          "type": "address"
        }
      ],
      "name": "setInternalStatesOrchestrator",
      "outputs": [],
      "stateMutability": "nonpayable",
      "type": "function"
    },
    {
      "inputs": [
        {
          "internalType": "address",
          "name": "liquidityOrchestrator_",
          "type": "address"
        },
        {
          "internalType": "uint8",
          "name": "curatorIntentDecimals_",
          "type": "uint8"
        },
        {
          "internalType": "address",
          "name": "factory_",
          "type": "address"
        },
        {
          "internalType": "address",
          "name": "oracleRegistry_",
          "type": "address"
        }
      ],
      "name": "setProtocolParams",
      "outputs": [],
      "stateMutability": "nonpayable",
      "type": "function"
    },
    {
      "inputs": [
        {
          "internalType": "address",
          "name": "asset",
          "type": "address"
        }
      ],
      "name": "setUnderlyingAsset",
      "outputs": [],
      "stateMutability": "nonpayable",
      "type": "function"
    },
    {
      "inputs": [
        {
          "internalType": "address",
          "name": "newOwner",
          "type": "address"
        }
      ],
      "name": "transferOwnership",
      "outputs": [],
      "stateMutability": "nonpayable",
      "type": "function"
    },
    {
      "inputs": [],
      "name": "underlyingAsset",
      "outputs": [
        {
          "internalType": "contract IERC20",
          "name": "",
          "type": "address"
        }
      ],
      "stateMutability": "view",
      "type": "function"
    },
    {
      "inputs": [
        {
          "internalType": "address",
          "name": "newImplementation",
          "type": "address"
        },
        {
          "internalType": "bytes",
          "name": "data",
          "type": "bytes"
        }
      ],
      "name": "upgradeToAndCall",
      "outputs": [],
      "stateMutability": "payable",
      "type": "function"
    },
    {
      "inputs": [],
      "name": "vaultFactory",
      "outputs": [
        {
          "internalType": "address",
          "name": "",
          "type": "address"
        }
      ],
      "stateMutability": "view",
      "type": "function"
    },
    {
      "inputs": [],
      "name": "whitelistedAssetsLength",
      "outputs": [
        {
          "internalType": "uint256",
          "name": "",
          "type": "uint256"
        }
      ],
      "stateMutability": "view",
      "type": "function"
    }
  ],
  "bytecode": "0x60a0604052306080523480156012575f5ffd5b5060805161194e6100395f395f8181610faf01528181610fd8015261111c015261194e5ff3fe6080604052600436106101af575f3560e01c806379ba5097116100e7578063d1717c7d11610087578063e0876b4411610062578063e0876b44146104c7578063e30c3978146104e6578063ed04f218146104fa578063f2fde38b14610519575f5ffd5b8063d1717c7d14610455578063d86cd44e14610487578063d8a06f73146104a8575f5ffd5b8063ad3cb1cc116100c2578063ad3cb1cc146103bb578063b6dfcd8b146103f8578063c110116c14610417578063c4d66de814610436575f5ffd5b806379ba5097146103745780637a0cb784146103885780638da5cb5b146103a7575f5ffd5b80633af32abf1161015257806352d1902d1161012d57806352d1902d1461030c5780635f2483681461032e578063715018a6146103425780637158da7c14610356575f5ffd5b80633af32abf146102ab5780634bb93ab1146102da5780634f1ef286146102f9575f5ffd5b806323a06a1c1161018d57806323a06a1c1461022f57806325671dcb1461024e578063348ec5c81461026d5780633a0dad8e1461028c575f5ffd5b80630a567a2d146101b35780630a8b78c7146101ef5780631dbc3c0414610210575b5f5ffd5b3480156101be575f5ffd5b506101d26101cd3660046115dd565b610538565b6040516001600160a01b0390911681526020015b60405180910390f35b3480156101fa575f5ffd5b5061020e61020936600461160f565b61054a565b005b34801561021b575f5ffd5b5061020e61022a366004611636565b61059b565b34801561023a575f5ffd5b5061020e610249366004611667565b610656565b348015610259575f5ffd5b5061020e61026836600461160f565b610789565b348015610278575f5ffd5b506001546101d2906001600160a01b031681565b348015610297575f5ffd5b506002546101d2906001600160a01b031681565b3480156102b6575f5ffd5b506102ca6102c536600461160f565b6107d9565b60405190151581526020016101e6565b3480156102e5575f5ffd5b506004546101d2906001600160a01b031681565b61020e6103073660046116bb565b6107e5565b348015610317575f5ffd5b50610320610804565b6040519081526020016101e6565b348015610339575f5ffd5b5061032061081f565b34801561034d575f5ffd5b5061020e61082f565b348015610361575f5ffd5b505f546101d2906001600160a01b031681565b34801561037f575f5ffd5b5061020e610842565b348015610393575f5ffd5b5061020e6103a2366004611636565b61088f565b3480156103b2575f5ffd5b506101d2610971565b3480156103c6575f5ffd5b506103eb604051806040016040528060058152602001640352e302e360dc1b81525081565b6040516101e6919061177f565b348015610403575f5ffd5b5061020e61041236600461160f565b6109a5565b348015610422575f5ffd5b5061020e6104313660046117b4565b610add565b348015610441575f5ffd5b5061020e61045036600461160f565b610bdb565b348015610460575f5ffd5b5060045461047590600160a01b900460ff1681565b60405160ff90911681526020016101e6565b348015610492575f5ffd5b5061049b610ce4565b6040516101e6919061180c565b3480156104b3575f5ffd5b506003546101d2906001600160a01b031681565b3480156104d2575f5ffd5b506102ca6104e136600461160f565b610d84565b3480156104f1575f5ffd5b506101d2610da1565b348015610505575f5ffd5b5061049b610514366004611857565b610dc9565b348015610524575f5ffd5b5061020e61053336600461160f565b610e92565b5f610544600583610f17565b92915050565b610552610f29565b6001600160a01b0381166105795760405163d92e233d60e01b815260040160405180910390fd5b600180546001600160a01b0319166001600160a01b0392909216919091179055565b6003546001600160a01b031633146105c657604051631966391b60e11b815260040160405180910390fd5b5f60018260018111156105db576105db611870565b036105f2576105eb600984610f5b565b9050610600565b6105fd600784610f5b565b90505b8061061e57604051632fa1facb60e01b815260040160405180910390fd5b6040516001600160a01b038416907fe47da341e0fc63816c1254f1c35425f69460f49342668d11c984ea56762b00d4905f90a2505050565b61065e610f29565b5f61066a600585610f6f565b90508061068a5760405163b73e95e160e01b815260040160405180910390fd5b60048054604051635d2cda6560e11b81526001600160a01b0387811693820193909352858316602482015291169063ba59b4ca906044015f604051808303815f87803b1580156106d8575f5ffd5b505af11580156106ea573d5f5f3e3d5ffd5b5050600254604051635d2cda6560e11b81526001600160a01b0388811660048301528681166024830152909116925063ba59b4ca91506044015f604051808303815f87803b15801561073a575f5ffd5b505af115801561074c573d5f5f3e3d5ffd5b50506040516001600160a01b03871692507fdcbd8d9d0373041250f6c25b6b7aeccb3e9ff291e510ef85bb9f8ac09ceb6f6491505f90a250505050565b610791610f29565b6001600160a01b0381166107b85760405163d92e233d60e01b815260040160405180910390fd5b5f80546001600160a01b0319166001600160a01b0392909216919091179055565b5f610544600583610f83565b6107ed610fa4565b6107f682611048565b6108008282611050565b5050565b5f61080d611111565b505f5160206118f95f395f51905f5290565b5f61082a600561115a565b905090565b610837610f29565b6108405f611163565b565b338061084c610da1565b6001600160a01b0316146108835760405163118cdaa760e01b81526001600160a01b03821660048201526024015b60405180910390fd5b61088c81611163565b50565b6003546001600160a01b031633146108ba57604051631966391b60e11b815260040160405180910390fd5b6001600160a01b0382166108e15760405163d92e233d60e01b815260040160405180910390fd5b5f60018260018111156108f6576108f6611870565b0361090d57610906600984610f6f565b905061091b565b610918600784610f6f565b90505b8061093957604051633c0c06e960e21b815260040160405180910390fd5b6040516001600160a01b038416907f9a7094a648c0524f3d62b9167886d30be0e68cf53863fe556edda348f189445a905f90a2505050565b5f807f9016d09d72d40fdae2fd8ceac6b6234c7706214fd39c1cd1e609a0528c1993005b546001600160a01b031692915050565b6109ad610f29565b5f6109b9600583610f5b565b9050806109e45760405163751dff9760e11b81526001600160a01b038316600482015260240161087a565b60048054604051635d2cda6560e11b81526001600160a01b03858116938201939093525f602482015291169063ba59b4ca906044015f604051808303815f87803b158015610a30575f5ffd5b505af1158015610a42573d5f5f3e3d5ffd5b5050600254604051635d2cda6560e11b81526001600160a01b0386811660048301525f6024830152909116925063ba59b4ca91506044015f604051808303815f87803b158015610a90575f5ffd5b505af1158015610aa2573d5f5f3e3d5ffd5b50506040516001600160a01b03851692507f952363a786fc6f24cfb955cd6207cf91ecee3a82a7dd0bc26891ff7647b5784c91505f90a25050565b610ae5610f29565b6001600160a01b038416610b0c5760405163d92e233d60e01b815260040160405180910390fd5b6001600160a01b038216610b335760405163d92e233d60e01b815260040160405180910390fd5b6001600160a01b038116610b5a5760405163d92e233d60e01b815260040160405180910390fd5b600280546001600160a01b038087166001600160a01b031992831617909255600480546003805487861690851617905592841660ff8716600160a01b029092166001600160a81b0319909316929092171790556040517fc56626e36ca25ee9a19c58d2d4f9a4569523b059e6aaeb263573ded93fc33c5a905f90a150505050565b5f610be461119b565b805490915060ff600160401b820416159067ffffffffffffffff165f81158015610c0b5750825b90505f8267ffffffffffffffff166001148015610c275750303b155b905081158015610c35575080155b15610c535760405163f92ee8a960e01b815260040160405180910390fd5b845467ffffffffffffffff191660011785558315610c7d57845460ff60401b1916600160401b1785555b610c86866111c3565b610c8e6111d4565b610c966111d4565b8315610cdc57845460ff60401b19168555604051600181527fc7f505b2f371ae2175ee4913f4499e1f2633a7b5936321eed1cdaeb6115181d29060200160405180910390a15b505050505050565b60605f610cf1600561115a565b90508067ffffffffffffffff811115610d0c57610d0c6116a7565b604051908082528060200260200182016040528015610d35578160200160208202803683370190505b5091505f5b81811015610d7f57610d4d600582610f17565b838281518110610d5f57610d5f611884565b6001600160a01b0390921660209283029190910190910152600101610d3a565b505090565b5f610d90600983610f83565b806105445750610544600783610f83565b5f807f237e158222e3e6968b72b9db0d8043aacf074ad9f650f0d1606b4d82ee432c00610995565b60605f6001836001811115610de057610de0611870565b14610dec576007610def565b60095b90505f610dfb8261115a565b90505f8167ffffffffffffffff811115610e1757610e176116a7565b604051908082528060200260200182016040528015610e40578160200160208202803683370190505b5090505f5b82811015610e8957610e578482610f17565b828281518110610e6957610e69611884565b6001600160a01b0390921660209283029190910190910152600101610e45565b50949350505050565b610e9a610f29565b7f237e158222e3e6968b72b9db0d8043aacf074ad9f650f0d1606b4d82ee432c0080546001600160a01b0319166001600160a01b0383169081178255610ede610971565b6001600160a01b03167f38d16b8cac22d99fc7c124b9cd0de2d3fa1faef420bfe791d8c362d765e2270060405160405180910390a35050565b5f610f2283836111dc565b9392505050565b33610f32610971565b6001600160a01b0316146108405760405163118cdaa760e01b815233600482015260240161087a565b5f610f22836001600160a01b038416611202565b5f610f22836001600160a01b0384166112e5565b6001600160a01b0381165f9081526001830160205260408120541515610f22565b306001600160a01b037f000000000000000000000000000000000000000000000000000000000000000016148061102a57507f00000000000000000000000000000000000000000000000000000000000000006001600160a01b031661101e5f5160206118f95f395f51905f52546001600160a01b031690565b6001600160a01b031614155b156108405760405163703e46dd60e11b815260040160405180910390fd5b61088c610f29565b816001600160a01b03166352d1902d6040518163ffffffff1660e01b8152600401602060405180830381865afa9250505080156110aa575060408051601f3d908101601f191682019092526110a791810190611898565b60015b6110d257604051634c9c8ce360e01b81526001600160a01b038316600482015260240161087a565b5f5160206118f95f395f51905f52811461110257604051632a87526960e21b81526004810182905260240161087a565b61110c8383611331565b505050565b306001600160a01b037f000000000000000000000000000000000000000000000000000000000000000016146108405760405163703e46dd60e11b815260040160405180910390fd5b5f610544825490565b7f237e158222e3e6968b72b9db0d8043aacf074ad9f650f0d1606b4d82ee432c0080546001600160a01b031916815561080082611386565b5f807ff0c57e16840df040f15088dc2f81fe391c3923bec73e23a9662efc9c229c6a00610544565b6111cb6113f6565b61088c8161141b565b6108406113f6565b5f825f0182815481106111f1576111f1611884565b905f5260205f200154905092915050565b5f81815260018301602052604081205480156112dc575f6112246001836118af565b85549091505f90611237906001906118af565b9050808214611296575f865f01828154811061125557611255611884565b905f5260205f200154905080875f01848154811061127557611275611884565b5f918252602080832090910192909255918252600188019052604090208390555b85548690806112a7576112a76118ce565b600190038181905f5260205f20015f90559055856001015f8681526020019081526020015f205f905560019350505050610544565b5f915050610544565b5f81815260018301602052604081205461132a57508154600181810184555f848152602080822090930184905584548482528286019093526040902091909155610544565b505f610544565b61133a8261144c565b6040516001600160a01b038316907fbc7cd75a20ee27fd9adebab32041f755214dbc6bffa90cc0225b39da2e5c2d3b905f90a280511561137e5761110c82826114af565b610800611521565b7f9016d09d72d40fdae2fd8ceac6b6234c7706214fd39c1cd1e609a0528c19930080546001600160a01b031981166001600160a01b03848116918217845560405192169182907f8be0079c531659141344cd1fd0a4f28419497f9722a3daafe3b4186f6b6457e0905f90a3505050565b6113fe611540565b61084057604051631afcd79f60e31b815260040160405180910390fd5b6114236113f6565b6001600160a01b03811661088357604051631e4fbdf760e01b81525f600482015260240161087a565b806001600160a01b03163b5f0361148157604051634c9c8ce360e01b81526001600160a01b038216600482015260240161087a565b5f5160206118f95f395f51905f5280546001600160a01b0319166001600160a01b0392909216919091179055565b60605f5f846001600160a01b0316846040516114cb91906118e2565b5f60405180830381855af49150503d805f8114611503576040519150601f19603f3d011682016040523d82523d5f602084013e611508565b606091505b5091509150611518858383611559565b95945050505050565b34156108405760405163b398979f60e01b815260040160405180910390fd5b5f61154961119b565b54600160401b900460ff16919050565b60608261156e57611569826115b5565b610f22565b815115801561158557506001600160a01b0384163b155b156115ae57604051639996b31560e01b81526001600160a01b038516600482015260240161087a565b5092915050565b8051156115c457805160208201fd5b60405163d6bda27560e01b815260040160405180910390fd5b5f602082840312156115ed575f5ffd5b5035919050565b80356001600160a01b038116811461160a575f5ffd5b919050565b5f6020828403121561161f575f5ffd5b610f22826115f4565b80356002811061160a575f5ffd5b5f5f60408385031215611647575f5ffd5b611650836115f4565b915061165e60208401611628565b90509250929050565b5f5f5f60608486031215611679575f5ffd5b611682846115f4565b9250611690602085016115f4565b915061169e604085016115f4565b90509250925092565b634e487b7160e01b5f52604160045260245ffd5b5f5f604083850312156116cc575f5ffd5b6116d5836115f4565b9150602083013567ffffffffffffffff8111156116f0575f5ffd5b8301601f81018513611700575f5ffd5b803567ffffffffffffffff81111561171a5761171a6116a7565b604051601f8201601f19908116603f0116810167ffffffffffffffff81118282101715611749576117496116a7565b604052818152828201602001871015611760575f5ffd5b816020840160208301375f602083830101528093505050509250929050565b602081525f82518060208401528060208501604085015e5f604082850101526040601f19601f83011684010191505092915050565b5f5f5f5f608085870312156117c7575f5ffd5b6117d0856115f4565b9350602085013560ff811681146117e5575f5ffd5b92506117f3604086016115f4565b9150611801606086016115f4565b905092959194509250565b602080825282518282018190525f918401906040840190835b8181101561184c5783516001600160a01b0316835260209384019390920191600101611825565b509095945050505050565b5f60208284031215611867575f5ffd5b610f2282611628565b634e487b7160e01b5f52602160045260245ffd5b634e487b7160e01b5f52603260045260245ffd5b5f602082840312156118a8575f5ffd5b5051919050565b8181038181111561054457634e487b7160e01b5f52601160045260245ffd5b634e487b7160e01b5f52603160045260245ffd5b5f82518060208501845e5f92019182525091905056fe360894a13ba1a3210667c828492db98dca3e2076cc3735a920a3ca505d382bbca264697066735822122050180f691dc30388ba92d26ddfc9cde59fc18675d73ea6d4501d30554be1965664736f6c634300081c0033",
  "linkReferences": {},
  "deployedLinkReferences": {}
}