{
  "_format": "hh-sol-artifact-1",
  "contractName": "OrionConfig",
  "sourceName": "contracts/OrionConfig.sol",
  "abi": [
    {
      "inputs": [
        {
          "internalType": "address",
          "name": "target",
          "type": "address"
        }
      ],
      "name": "AddressEmptyCode",
      "type": "error"
    },
    {
      "inputs": [],
      "name": "AlreadyAnOrionVault",
      "type": "error"
    },
    {
      "inputs": [],
      "name": "AlreadyWhitelisted",
      "type": "error"
    },
    {
      "inputs": [
        {
          "internalType": "address",
          "name": "implementation",
          "type": "address"
        }
      ],
      "name": "ERC1967InvalidImplementation",
      "type": "error"
    },
    {
      "inputs": [],
      "name": "ERC1967NonPayable",
      "type": "error"
    },
    {
      "inputs": [],
      "name": "FailedCall",
      "type": "error"
    },
    {
      "inputs": [],
      "name": "InvalidInitialization",
      "type": "error"
    },
    {
      "inputs": [],
      "name": "NotAnOrionVault",
      "type": "error"
    },
    {
      "inputs": [],
      "name": "NotFactory",
      "type": "error"
    },
    {
      "inputs": [],
      "name": "NotInitializing",
      "type": "error"
    },
    {
      "inputs": [
        {
          "internalType": "address",
          "name": "owner",
          "type": "address"
        }
      ],
      "name": "OwnableInvalidOwner",
      "type": "error"
    },
    {
      "inputs": [
        {
          "internalType": "address",
          "name": "account",
          "type": "address"
        }
      ],
      "name": "OwnableUnauthorizedAccount",
      "type": "error"
    },
    {
      "inputs": [
        {
          "internalType": "address",
          "name": "token",
          "type": "address"
        }
      ],
      "name": "TokenNotWhitelisted",
      "type": "error"
    },
    {
      "inputs": [],
      "name": "UUPSUnauthorizedCallContext",
      "type": "error"
    },
    {
      "inputs": [
        {
          "internalType": "bytes32",
          "name": "slot",
          "type": "bytes32"
        }
      ],
      "name": "UUPSUnsupportedProxiableUUID",
      "type": "error"
    },
    {
      "inputs": [],
      "name": "ZeroAddress",
      "type": "error"
    },
    {
      "anonymous": false,
      "inputs": [
        {
          "indexed": false,
          "internalType": "uint64",
          "name": "version",
          "type": "uint64"
        }
      ],
      "name": "Initialized",
      "type": "event"
    },
    {
      "anonymous": false,
      "inputs": [
        {
          "indexed": true,
          "internalType": "address",
          "name": "vault",
          "type": "address"
        }
      ],
      "name": "OrionVaultAdded",
      "type": "event"
    },
    {
      "anonymous": false,
      "inputs": [
        {
          "indexed": true,
          "internalType": "address",
          "name": "vault",
          "type": "address"
        }
      ],
      "name": "OrionVaultRemoved",
      "type": "event"
    },
    {
      "anonymous": false,
      "inputs": [
        {
          "indexed": true,
          "internalType": "address",
          "name": "previousOwner",
          "type": "address"
        },
        {
          "indexed": true,
          "internalType": "address",
          "name": "newOwner",
          "type": "address"
        }
      ],
      "name": "OwnershipTransferStarted",
      "type": "event"
    },
    {
      "anonymous": false,
      "inputs": [
        {
          "indexed": true,
          "internalType": "address",
          "name": "previousOwner",
          "type": "address"
        },
        {
          "indexed": true,
          "internalType": "address",
          "name": "newOwner",
          "type": "address"
        }
      ],
      "name": "OwnershipTransferred",
      "type": "event"
    },
    {
      "anonymous": false,
      "inputs": [],
      "name": "ProtocolParamsUpdated",
      "type": "event"
    },
    {
      "anonymous": false,
      "inputs": [
        {
          "indexed": true,
          "internalType": "address",
          "name": "implementation",
          "type": "address"
        }
      ],
      "name": "Upgraded",
      "type": "event"
    },
    {
      "anonymous": false,
      "inputs": [
        {
          "indexed": true,
          "internalType": "address",
          "name": "asset",
          "type": "address"
        }
      ],
      "name": "WhitelistedAssetAdded",
      "type": "event"
    },
    {
      "anonymous": false,
      "inputs": [
        {
          "indexed": true,
          "internalType": "address",
          "name": "asset",
          "type": "address"
        }
      ],
      "name": "WhitelistedAssetRemoved",
      "type": "event"
    },
    {
      "inputs": [],
      "name": "UPGRADE_INTERFACE_VERSION",
      "outputs": [
        {
          "internalType": "string",
          "name": "",
          "type": "string"
        }
      ],
      "stateMutability": "view",
      "type": "function"
    },
    {
      "inputs": [],
      "name": "acceptOwnership",
      "outputs": [],
      "stateMutability": "nonpayable",
      "type": "function"
    },
    {
      "inputs": [
        {
          "internalType": "address",
          "name": "vault",
          "type": "address"
        },
        {
          "internalType": "enum EventsLib.VaultType",
          "name": "vaultType",
          "type": "uint8"
        }
      ],
      "name": "addOrionVault",
      "outputs": [],
      "stateMutability": "nonpayable",
      "type": "function"
    },
    {
      "inputs": [
        {
          "internalType": "address",
          "name": "asset",
          "type": "address"
        }
      ],
      "name": "addWhitelistedAsset",
      "outputs": [],
      "stateMutability": "nonpayable",
      "type": "function"
    },
    {
      "inputs": [],
      "name": "curatorIntentDecimals",
      "outputs": [
        {
          "internalType": "uint8",
          "name": "",
          "type": "uint8"
        }
      ],
      "stateMutability": "view",
      "type": "function"
    },
    {
      "inputs": [
        {
          "internalType": "enum EventsLib.VaultType",
          "name": "vaultType",
          "type": "uint8"
        }
      ],
      "name": "getAllOrionVaults",
      "outputs": [
        {
          "internalType": "address[]",
          "name": "",
          "type": "address[]"
        }
      ],
      "stateMutability": "view",
      "type": "function"
    },
    {
      "inputs": [],
      "name": "getAllWhitelistedAssets",
      "outputs": [
        {
          "internalType": "address[]",
          "name": "assets",
          "type": "address[]"
        }
      ],
      "stateMutability": "view",
      "type": "function"
    },
    {
      "inputs": [
        {
          "internalType": "uint256",
          "name": "index",
          "type": "uint256"
        }
      ],
      "name": "getWhitelistedAssetAt",
      "outputs": [
        {
          "internalType": "address",
          "name": "",
          "type": "address"
        }
      ],
      "stateMutability": "view",
      "type": "function"
    },
    {
      "inputs": [
        {
          "internalType": "address",
          "name": "initialOwner",
          "type": "address"
        }
      ],
      "name": "initialize",
      "outputs": [],
      "stateMutability": "nonpayable",
      "type": "function"
    },
    {
      "inputs": [],
      "name": "internalStatesOrchestrator",
      "outputs": [
        {
          "internalType": "address",
          "name": "",
          "type": "address"
        }
      ],
      "stateMutability": "view",
      "type": "function"
    },
    {
      "inputs": [
        {
          "internalType": "address",
          "name": "vault",
          "type": "address"
        }
      ],
      "name": "isOrionVault",
      "outputs": [
        {
          "internalType": "bool",
          "name": "",
          "type": "bool"
        }
      ],
      "stateMutability": "view",
      "type": "function"
    },
    {
      "inputs": [
        {
          "internalType": "address",
          "name": "asset",
          "type": "address"
        }
      ],
      "name": "isWhitelisted",
      "outputs": [
        {
          "internalType": "bool",
          "name": "",
          "type": "bool"
        }
      ],
      "stateMutability": "view",
      "type": "function"
    },
    {
      "inputs": [],
      "name": "liquidityOrchestrator",
      "outputs": [
        {
          "internalType": "address",
          "name": "",
          "type": "address"
        }
      ],
      "stateMutability": "view",
      "type": "function"
    },
    {
      "inputs": [],
      "name": "oracleRegistry",
      "outputs": [
        {
          "internalType": "address",
          "name": "",
          "type": "address"
        }
      ],
      "stateMutability": "view",
      "type": "function"
    },
    {
      "inputs": [],
      "name": "owner",
      "outputs": [
        {
          "internalType": "address",
          "name": "",
          "type": "address"
        }
      ],
      "stateMutability": "view",
      "type": "function"
    },
    {
      "inputs": [],
      "name": "pendingOwner",
      "outputs": [
        {
          "internalType": "address",
          "name": "",
          "type": "address"
        }
      ],
      "stateMutability": "view",
      "type": "function"
    },
    {
      "inputs": [],
      "name": "proxiableUUID",
      "outputs": [
        {
          "internalType": "bytes32",
          "name": "",
          "type": "bytes32"
        }
      ],
      "stateMutability": "view",
      "type": "function"
    },
    {
      "inputs": [
        {
          "internalType": "address",
          "name": "vault",
          "type": "address"
        },
        {
          "internalType": "enum EventsLib.VaultType",
          "name": "vaultType",
          "type": "uint8"
        }
      ],
      "name": "removeOrionVault",
      "outputs": [],
      "stateMutability": "nonpayable",
      "type": "function"
    },
    {
      "inputs": [
        {
          "internalType": "address",
          "name": "asset",
          "type": "address"
        }
      ],
      "name": "removeWhitelistedAsset",
      "outputs": [],
      "stateMutability": "nonpayable",
      "type": "function"
    },
    {
      "inputs": [],
      "name": "renounceOwnership",
      "outputs": [],
      "stateMutability": "nonpayable",
      "type": "function"
    },
    {
      "inputs": [
        {
          "internalType": "address",
          "name": "underlyingAsset_",
          "type": "address"
        },
        {
          "internalType": "address",
          "name": "internalStatesOrchestrator_",
          "type": "address"
        },
        {
          "internalType": "address",
          "name": "liquidityOrchestrator_",
          "type": "address"
        },
        {
          "internalType": "uint8",
          "name": "curatorIntentDecimals_",
          "type": "uint8"
        },
        {
          "internalType": "address",
          "name": "factory_",
          "type": "address"
        },
        {
          "internalType": "address",
          "name": "oracleRegistry_",
          "type": "address"
        }
      ],
      "name": "setProtocolParams",
      "outputs": [],
      "stateMutability": "nonpayable",
      "type": "function"
    },
    {
      "inputs": [
        {
          "internalType": "address",
          "name": "newOwner",
          "type": "address"
        }
      ],
      "name": "transferOwnership",
      "outputs": [],
      "stateMutability": "nonpayable",
      "type": "function"
    },
    {
      "inputs": [],
      "name": "underlyingAsset",
      "outputs": [
        {
          "internalType": "contract IERC20",
          "name": "",
          "type": "address"
        }
      ],
      "stateMutability": "view",
      "type": "function"
    },
    {
      "inputs": [
        {
          "internalType": "address",
          "name": "newImplementation",
          "type": "address"
        },
        {
          "internalType": "bytes",
          "name": "data",
          "type": "bytes"
        }
      ],
      "name": "upgradeToAndCall",
      "outputs": [],
      "stateMutability": "payable",
      "type": "function"
    },
    {
      "inputs": [],
      "name": "vaultFactory",
      "outputs": [
        {
          "internalType": "address",
          "name": "",
          "type": "address"
        }
      ],
      "stateMutability": "view",
      "type": "function"
    },
    {
      "inputs": [],
      "name": "whitelistedAssetsLength",
      "outputs": [
        {
          "internalType": "uint256",
          "name": "",
          "type": "uint256"
        }
      ],
      "stateMutability": "view",
      "type": "function"
    }
  ],
  "bytecode": "0x60a0604052306080523480156012575f5ffd5b506080516116f66100395f395f8181610d3101528181610d5a0152610e9e01526116f65ff3fe60806040526004361061017b575f3560e01c80637ea524c4116100cd578063d1717c7d11610087578063e0876b4411610062578063e0876b4414610455578063e30c397814610474578063ed04f21814610488578063f2fde38b146104a7575f5ffd5b8063d1717c7d146103e3578063d86cd44e14610415578063d8a06f7314610436575f5ffd5b80637ea524c4146103165780638da5cb5b14610335578063ad3cb1cc14610349578063b6dfcd8b14610386578063bfba8f66146103a5578063c4d66de8146103c4575f5ffd5b80634f1ef28611610138578063715018a611610113578063715018a6146102b15780637158da7c146102c557806379ba5097146102e35780637a0cb784146102f7575f5ffd5b80634f1ef2861461026857806352d1902d1461027b5780635f2483681461029d575f5ffd5b80630a567a2d1461017f5780631dbc3c04146101bb578063348ec5c8146101dc5780633a0dad8e146101fb5780633af32abf1461021a5780634bb93ab114610249575b5f5ffd5b34801561018a575f5ffd5b5061019e6101993660046113a6565b6104c6565b6040516001600160a01b0390911681526020015b60405180910390f35b3480156101c6575f5ffd5b506101da6101d53660046113e6565b6104d8565b005b3480156101e7575f5ffd5b5060015461019e906001600160a01b031681565b348015610206575f5ffd5b5060025461019e906001600160a01b031681565b348015610225575f5ffd5b50610239610234366004611417565b610593565b60405190151581526020016101b2565b348015610254575f5ffd5b5060045461019e906001600160a01b031681565b6101da610276366004611444565b61059f565b348015610286575f5ffd5b5061028f6105be565b6040519081526020016101b2565b3480156102a8575f5ffd5b5061028f6105d9565b3480156102bc575f5ffd5b506101da6105e9565b3480156102d0575f5ffd5b505f5461019e906001600160a01b031681565b3480156102ee575f5ffd5b506101da6105fc565b348015610302575f5ffd5b506101da6103113660046113e6565b610649565b348015610321575f5ffd5b506101da610330366004611508565b61072b565b348015610340575f5ffd5b5061019e61088e565b348015610354575f5ffd5b50610379604051806040016040528060058152602001640352e302e360dc1b81525081565b6040516101b2919061157f565b348015610391575f5ffd5b506101da6103a0366004611417565b6108c2565b3480156103b0575f5ffd5b506101da6103bf366004611417565b610938565b3480156103cf575f5ffd5b506101da6103de366004611417565b6109a3565b3480156103ee575f5ffd5b5060045461040390600160a01b900460ff1681565b60405160ff90911681526020016101b2565b348015610420575f5ffd5b50610429610aac565b6040516101b291906115b4565b348015610441575f5ffd5b5060035461019e906001600160a01b031681565b348015610460575f5ffd5b5061023961046f366004611417565b610b4c565b34801561047f575f5ffd5b5061019e610b69565b348015610493575f5ffd5b506104296104a23660046115ff565b610b91565b3480156104b2575f5ffd5b506101da6104c1366004611417565b610c5a565b5f6104d2600583610cdf565b92915050565b6003546001600160a01b0316331461050357604051631966391b60e11b815260040160405180910390fd5b5f600182600181111561051857610518611618565b0361052f57610528600984610cf1565b905061053d565b61053a600784610cf1565b90505b8061055b57604051632fa1facb60e01b815260040160405180910390fd5b6040516001600160a01b038416907fe47da341e0fc63816c1254f1c35425f69460f49342668d11c984ea56762b00d4905f90a2505050565b5f6104d2600583610d05565b6105a7610d26565b6105b082610dca565b6105ba8282610dd2565b5050565b5f6105c7610e93565b505f5160206116a15f395f51905f5290565b5f6105e46005610edc565b905090565b6105f1610ee5565b6105fa5f610f17565b565b3380610606610b69565b6001600160a01b03161461063d5760405163118cdaa760e01b81526001600160a01b03821660048201526024015b60405180910390fd5b61064681610f17565b50565b6003546001600160a01b0316331461067457604051631966391b60e11b815260040160405180910390fd5b6001600160a01b03821661069b5760405163d92e233d60e01b815260040160405180910390fd5b5f60018260018111156106b0576106b0611618565b036106c7576106c0600984610f4f565b90506106d5565b6106d2600784610f4f565b90505b806106f357604051633c0c06e960e21b815260040160405180910390fd5b6040516001600160a01b038416907f9a7094a648c0524f3d62b9167886d30be0e68cf53863fe556edda348f189445a905f90a2505050565b610733610ee5565b6001600160a01b03861661075a5760405163d92e233d60e01b815260040160405180910390fd5b6001600160a01b0385166107815760405163d92e233d60e01b815260040160405180910390fd5b6001600160a01b0384166107a85760405163d92e233d60e01b815260040160405180910390fd5b6001600160a01b0382166107cf5760405163d92e233d60e01b815260040160405180910390fd5b6001600160a01b0381166107f65760405163d92e233d60e01b815260040160405180910390fd5b5f80546001600160a01b03199081166001600160a01b03898116919091178355600180548316898316179055600280548316888316179055600480546003805485168885161790556001600160a81b031916600160a01b60ff891602909316929092179084161790556040517fc56626e36ca25ee9a19c58d2d4f9a4569523b059e6aaeb263573ded93fc33c5a9190a1505050505050565b5f807f9016d09d72d40fdae2fd8ceac6b6234c7706214fd39c1cd1e609a0528c1993005b546001600160a01b031692915050565b6108ca610ee5565b5f6108d6600583610cf1565b9050806109015760405163751dff9760e11b81526001600160a01b0383166004820152602401610634565b6040516001600160a01b038316907f952363a786fc6f24cfb955cd6207cf91ecee3a82a7dd0bc26891ff7647b5784c905f90a25050565b610940610ee5565b5f61094c600583610f4f565b90508061096c5760405163b73e95e160e01b815260040160405180910390fd5b6040516001600160a01b038316907fdcbd8d9d0373041250f6c25b6b7aeccb3e9ff291e510ef85bb9f8ac09ceb6f64905f90a25050565b5f6109ac610f63565b805490915060ff600160401b820416159067ffffffffffffffff165f811580156109d35750825b90505f8267ffffffffffffffff1660011480156109ef5750303b155b9050811580156109fd575080155b15610a1b5760405163f92ee8a960e01b815260040160405180910390fd5b845467ffffffffffffffff191660011785558315610a4557845460ff60401b1916600160401b1785555b610a4e86610f8b565b610a56610f9c565b610a5e610f9c565b8315610aa457845460ff60401b19168555604051600181527fc7f505b2f371ae2175ee4913f4499e1f2633a7b5936321eed1cdaeb6115181d29060200160405180910390a15b505050505050565b60605f610ab96005610edc565b90508067ffffffffffffffff811115610ad457610ad4611430565b604051908082528060200260200182016040528015610afd578160200160208202803683370190505b5091505f5b81811015610b4757610b15600582610cdf565b838281518110610b2757610b2761162c565b6001600160a01b0390921660209283029190910190910152600101610b02565b505090565b5f610b58600983610d05565b806104d257506104d2600783610d05565b5f807f237e158222e3e6968b72b9db0d8043aacf074ad9f650f0d1606b4d82ee432c006108b2565b60605f6001836001811115610ba857610ba8611618565b14610bb4576007610bb7565b60095b90505f610bc382610edc565b90505f8167ffffffffffffffff811115610bdf57610bdf611430565b604051908082528060200260200182016040528015610c08578160200160208202803683370190505b5090505f5b82811015610c5157610c1f8482610cdf565b828281518110610c3157610c3161162c565b6001600160a01b0390921660209283029190910190910152600101610c0d565b50949350505050565b610c62610ee5565b7f237e158222e3e6968b72b9db0d8043aacf074ad9f650f0d1606b4d82ee432c0080546001600160a01b0319166001600160a01b0383169081178255610ca661088e565b6001600160a01b03167f38d16b8cac22d99fc7c124b9cd0de2d3fa1faef420bfe791d8c362d765e2270060405160405180910390a35050565b5f610cea8383610fa4565b9392505050565b5f610cea836001600160a01b038416610fca565b6001600160a01b0381165f9081526001830160205260408120541515610cea565b306001600160a01b037f0000000000000000000000000000000000000000000000000000000000000000161480610dac57507f00000000000000000000000000000000000000000000000000000000000000006001600160a01b0316610da05f5160206116a15f395f51905f52546001600160a01b031690565b6001600160a01b031614155b156105fa5760405163703e46dd60e11b815260040160405180910390fd5b610646610ee5565b816001600160a01b03166352d1902d6040518163ffffffff1660e01b8152600401602060405180830381865afa925050508015610e2c575060408051601f3d908101601f19168201909252610e2991810190611640565b60015b610e5457604051634c9c8ce360e01b81526001600160a01b0383166004820152602401610634565b5f5160206116a15f395f51905f528114610e8457604051632a87526960e21b815260048101829052602401610634565b610e8e83836110ad565b505050565b306001600160a01b037f000000000000000000000000000000000000000000000000000000000000000016146105fa5760405163703e46dd60e11b815260040160405180910390fd5b5f6104d2825490565b33610eee61088e565b6001600160a01b0316146105fa5760405163118cdaa760e01b8152336004820152602401610634565b7f237e158222e3e6968b72b9db0d8043aacf074ad9f650f0d1606b4d82ee432c0080546001600160a01b03191681556105ba82611102565b5f610cea836001600160a01b038416611172565b5f807ff0c57e16840df040f15088dc2f81fe391c3923bec73e23a9662efc9c229c6a006104d2565b610f936111be565b610646816111e3565b6105fa6111be565b5f825f018281548110610fb957610fb961162c565b905f5260205f200154905092915050565b5f81815260018301602052604081205480156110a4575f610fec600183611657565b85549091505f90610fff90600190611657565b905080821461105e575f865f01828154811061101d5761101d61162c565b905f5260205f200154905080875f01848154811061103d5761103d61162c565b5f918252602080832090910192909255918252600188019052604090208390555b855486908061106f5761106f611676565b600190038181905f5260205f20015f90559055856001015f8681526020019081526020015f205f9055600193505050506104d2565b5f9150506104d2565b6110b682611214565b6040516001600160a01b038316907fbc7cd75a20ee27fd9adebab32041f755214dbc6bffa90cc0225b39da2e5c2d3b905f90a28051156110fa57610e8e8282611277565b6105ba6112e9565b7f9016d09d72d40fdae2fd8ceac6b6234c7706214fd39c1cd1e609a0528c19930080546001600160a01b031981166001600160a01b03848116918217845560405192169182907f8be0079c531659141344cd1fd0a4f28419497f9722a3daafe3b4186f6b6457e0905f90a3505050565b5f8181526001830160205260408120546111b757508154600181810184555f8481526020808220909301849055845484825282860190935260409020919091556104d2565b505f6104d2565b6111c6611308565b6105fa57604051631afcd79f60e31b815260040160405180910390fd5b6111eb6111be565b6001600160a01b03811661063d57604051631e4fbdf760e01b81525f6004820152602401610634565b806001600160a01b03163b5f0361124957604051634c9c8ce360e01b81526001600160a01b0382166004820152602401610634565b5f5160206116a15f395f51905f5280546001600160a01b0319166001600160a01b0392909216919091179055565b60605f5f846001600160a01b031684604051611293919061168a565b5f60405180830381855af49150503d805f81146112cb576040519150601f19603f3d011682016040523d82523d5f602084013e6112d0565b606091505b50915091506112e0858383611321565b95945050505050565b34156105fa5760405163b398979f60e01b815260040160405180910390fd5b5f611311610f63565b54600160401b900460ff16919050565b606082611336576113318261137d565b610cea565b815115801561134d57506001600160a01b0384163b155b1561137657604051639996b31560e01b81526001600160a01b0385166004820152602401610634565b5092915050565b80511561138d5780518082602001fd5b60405163d6bda27560e01b815260040160405180910390fd5b5f602082840312156113b6575f5ffd5b5035919050565b80356001600160a01b03811681146113d3575f5ffd5b919050565b8035600281106113d3575f5ffd5b5f5f604083850312156113f7575f5ffd5b611400836113bd565b915061140e602084016113d8565b90509250929050565b5f60208284031215611427575f5ffd5b610cea826113bd565b634e487b7160e01b5f52604160045260245ffd5b5f5f60408385031215611455575f5ffd5b61145e836113bd565b9150602083013567ffffffffffffffff811115611479575f5ffd5b8301601f81018513611489575f5ffd5b803567ffffffffffffffff8111156114a3576114a3611430565b604051601f8201601f19908116603f0116810167ffffffffffffffff811182821017156114d2576114d2611430565b6040528181528282016020018710156114e9575f5ffd5b816020840160208301375f602083830101528093505050509250929050565b5f5f5f5f5f5f60c0878903121561151d575f5ffd5b611526876113bd565b9550611534602088016113bd565b9450611542604088016113bd565b9350606087013560ff81168114611557575f5ffd5b9250611565608088016113bd565b915061157360a088016113bd565b90509295509295509295565b602081525f82518060208401528060208501604085015e5f604082850101526040601f19601f83011684010191505092915050565b602080825282518282018190525f918401906040840190835b818110156115f45783516001600160a01b03168352602093840193909201916001016115cd565b509095945050505050565b5f6020828403121561160f575f5ffd5b610cea826113d8565b634e487b7160e01b5f52602160045260245ffd5b634e487b7160e01b5f52603260045260245ffd5b5f60208284031215611650575f5ffd5b5051919050565b818103818111156104d257634e487b7160e01b5f52601160045260245ffd5b634e487b7160e01b5f52603160045260245ffd5b5f82518060208501845e5f92019182525091905056fe360894a13ba1a3210667c828492db98dca3e2076cc3735a920a3ca505d382bbca264697066735822122096b874265fc5b42116559daefcd5f0a542886f25d3ebd807d25d6559bcee15e564736f6c634300081c0033",
  "linkReferences": {},
  "deployedLinkReferences": {}
}