{
  "_format": "hh-sol-artifact-1",
  "contractName": "OrionConfig",
  "sourceName": "contracts/OrionConfig.sol",
  "abi": [
    {
      "inputs": [
        {
          "internalType": "address",
          "name": "initialOwner",
          "type": "address"
        }
      ],
      "stateMutability": "nonpayable",
      "type": "constructor"
    },
    {
      "inputs": [],
      "name": "AlreadyRegistered",
      "type": "error"
    },
    {
      "inputs": [
        {
          "internalType": "address",
          "name": "owner",
          "type": "address"
        }
      ],
      "name": "OwnableInvalidOwner",
      "type": "error"
    },
    {
      "inputs": [
        {
          "internalType": "address",
          "name": "account",
          "type": "address"
        }
      ],
      "name": "OwnableUnauthorizedAccount",
      "type": "error"
    },
    {
      "inputs": [],
      "name": "SystemNotIdle",
      "type": "error"
    },
    {
      "inputs": [
        {
          "internalType": "address",
          "name": "token",
          "type": "address"
        }
      ],
      "name": "TokenNotWhitelisted",
      "type": "error"
    },
    {
      "inputs": [],
      "name": "UnauthorizedAccess",
      "type": "error"
    },
    {
      "inputs": [],
      "name": "ZeroAddress",
      "type": "error"
    },
    {
      "anonymous": false,
      "inputs": [
        {
          "indexed": true,
          "internalType": "address",
          "name": "vault",
          "type": "address"
        }
      ],
      "name": "OrionVaultAdded",
      "type": "event"
    },
    {
      "anonymous": false,
      "inputs": [
        {
          "indexed": true,
          "internalType": "address",
          "name": "vault",
          "type": "address"
        }
      ],
      "name": "OrionVaultRemoved",
      "type": "event"
    },
    {
      "anonymous": false,
      "inputs": [
        {
          "indexed": true,
          "internalType": "address",
          "name": "previousOwner",
          "type": "address"
        },
        {
          "indexed": true,
          "internalType": "address",
          "name": "newOwner",
          "type": "address"
        }
      ],
      "name": "OwnershipTransferred",
      "type": "event"
    },
    {
      "anonymous": false,
      "inputs": [],
      "name": "ProtocolParamsUpdated",
      "type": "event"
    },
    {
      "anonymous": false,
      "inputs": [
        {
          "indexed": true,
          "internalType": "address",
          "name": "asset",
          "type": "address"
        }
      ],
      "name": "WhitelistedAssetAdded",
      "type": "event"
    },
    {
      "anonymous": false,
      "inputs": [
        {
          "indexed": true,
          "internalType": "address",
          "name": "asset",
          "type": "address"
        }
      ],
      "name": "WhitelistedAssetRemoved",
      "type": "event"
    },
    {
      "inputs": [
        {
          "internalType": "address",
          "name": "vault",
          "type": "address"
        },
        {
          "internalType": "enum EventsLib.VaultType",
          "name": "vaultType",
          "type": "uint8"
        }
      ],
      "name": "addOrionVault",
      "outputs": [],
      "stateMutability": "nonpayable",
      "type": "function"
    },
    {
      "inputs": [
        {
          "internalType": "address",
          "name": "asset",
          "type": "address"
        },
        {
          "internalType": "address",
          "name": "priceAdapter",
          "type": "address"
        },
        {
          "internalType": "address",
          "name": "executionAdapter",
          "type": "address"
        }
      ],
      "name": "addWhitelistedAsset",
      "outputs": [],
      "stateMutability": "nonpayable",
      "type": "function"
    },
    {
      "inputs": [],
      "name": "curatorIntentDecimals",
      "outputs": [
        {
          "internalType": "uint8",
          "name": "",
          "type": "uint8"
        }
      ],
      "stateMutability": "view",
      "type": "function"
    },
    {
      "inputs": [],
      "name": "encryptedMinibatchSize",
      "outputs": [
        {
          "internalType": "uint256",
          "name": "",
          "type": "uint256"
        }
      ],
      "stateMutability": "view",
      "type": "function"
    },
    {
      "inputs": [
        {
          "internalType": "enum EventsLib.VaultType",
          "name": "vaultType",
          "type": "uint8"
        }
      ],
      "name": "getAllOrionVaults",
      "outputs": [
        {
          "internalType": "address[]",
          "name": "",
          "type": "address[]"
        }
      ],
      "stateMutability": "view",
      "type": "function"
    },
    {
      "inputs": [],
      "name": "getAllWhitelistedAssets",
      "outputs": [
        {
          "internalType": "address[]",
          "name": "assets",
          "type": "address[]"
        }
      ],
      "stateMutability": "view",
      "type": "function"
    },
    {
      "inputs": [
        {
          "internalType": "uint256",
          "name": "index",
          "type": "uint256"
        }
      ],
      "name": "getWhitelistedAssetAt",
      "outputs": [
        {
          "internalType": "address",
          "name": "",
          "type": "address"
        }
      ],
      "stateMutability": "view",
      "type": "function"
    },
    {
      "inputs": [],
      "name": "internalStatesOrchestrator",
      "outputs": [
        {
          "internalType": "address",
          "name": "",
          "type": "address"
        }
      ],
      "stateMutability": "view",
      "type": "function"
    },
    {
      "inputs": [
        {
          "internalType": "address",
          "name": "vault",
          "type": "address"
        }
      ],
      "name": "isOrionVault",
      "outputs": [
        {
          "internalType": "bool",
          "name": "",
          "type": "bool"
        }
      ],
      "stateMutability": "view",
      "type": "function"
    },
    {
      "inputs": [],
      "name": "isSystemIdle",
      "outputs": [
        {
          "internalType": "bool",
          "name": "",
          "type": "bool"
        }
      ],
      "stateMutability": "view",
      "type": "function"
    },
    {
      "inputs": [
        {
          "internalType": "address",
          "name": "asset",
          "type": "address"
        }
      ],
      "name": "isWhitelisted",
      "outputs": [
        {
          "internalType": "bool",
          "name": "",
          "type": "bool"
        }
      ],
      "stateMutability": "view",
      "type": "function"
    },
    {
      "inputs": [],
      "name": "liquidityOrchestrator",
      "outputs": [
        {
          "internalType": "address",
          "name": "",
          "type": "address"
        }
      ],
      "stateMutability": "view",
      "type": "function"
    },
    {
      "inputs": [],
      "name": "owner",
      "outputs": [
        {
          "internalType": "address",
          "name": "",
          "type": "address"
        }
      ],
      "stateMutability": "view",
      "type": "function"
    },
    {
      "inputs": [],
      "name": "priceAdapterDecimals",
      "outputs": [
        {
          "internalType": "uint8",
          "name": "",
          "type": "uint8"
        }
      ],
      "stateMutability": "view",
      "type": "function"
    },
    {
      "inputs": [],
      "name": "priceAdapterRegistry",
      "outputs": [
        {
          "internalType": "address",
          "name": "",
          "type": "address"
        }
      ],
      "stateMutability": "view",
      "type": "function"
    },
    {
      "inputs": [
        {
          "internalType": "address",
          "name": "vault",
          "type": "address"
        },
        {
          "internalType": "enum EventsLib.VaultType",
          "name": "vaultType",
          "type": "uint8"
        }
      ],
      "name": "removeOrionVault",
      "outputs": [],
      "stateMutability": "nonpayable",
      "type": "function"
    },
    {
      "inputs": [
        {
          "internalType": "address",
          "name": "asset",
          "type": "address"
        }
      ],
      "name": "removeWhitelistedAsset",
      "outputs": [],
      "stateMutability": "nonpayable",
      "type": "function"
    },
    {
      "inputs": [],
      "name": "renounceOwnership",
      "outputs": [],
      "stateMutability": "nonpayable",
      "type": "function"
    },
    {
      "inputs": [
        {
          "internalType": "address",
          "name": "orchestrator",
          "type": "address"
        }
      ],
      "name": "setInternalStatesOrchestrator",
      "outputs": [],
      "stateMutability": "nonpayable",
      "type": "function"
    },
    {
      "inputs": [
        {
          "internalType": "address",
          "name": "orchestrator",
          "type": "address"
        }
      ],
      "name": "setLiquidityOrchestrator",
      "outputs": [],
      "stateMutability": "nonpayable",
      "type": "function"
    },
    {
      "inputs": [
        {
          "internalType": "address",
          "name": "registry",
          "type": "address"
        }
      ],
      "name": "setPriceAdapterRegistry",
      "outputs": [],
      "stateMutability": "nonpayable",
      "type": "function"
    },
    {
      "inputs": [
        {
          "internalType": "uint8",
          "name": "_curatorIntentDecimals",
          "type": "uint8"
        },
        {
          "internalType": "uint8",
          "name": "_priceAdapterDecimals",
          "type": "uint8"
        },
        {
          "internalType": "uint256",
          "name": "_encryptedMinibatchSize",
          "type": "uint256"
        }
      ],
      "name": "setProtocolParams",
      "outputs": [],
      "stateMutability": "nonpayable",
      "type": "function"
    },
    {
      "inputs": [
        {
          "internalType": "address",
          "name": "asset",
          "type": "address"
        }
      ],
      "name": "setUnderlyingAsset",
      "outputs": [],
      "stateMutability": "nonpayable",
      "type": "function"
    },
    {
      "inputs": [
        {
          "internalType": "address",
          "name": "factory",
          "type": "address"
        }
      ],
      "name": "setVaultFactory",
      "outputs": [],
      "stateMutability": "nonpayable",
      "type": "function"
    },
    {
      "inputs": [
        {
          "internalType": "address",
          "name": "newOwner",
          "type": "address"
        }
      ],
      "name": "transferOwnership",
      "outputs": [],
      "stateMutability": "nonpayable",
      "type": "function"
    },
    {
      "inputs": [],
      "name": "underlyingAsset",
      "outputs": [
        {
          "internalType": "contract IERC20",
          "name": "",
          "type": "address"
        }
      ],
      "stateMutability": "view",
      "type": "function"
    },
    {
      "inputs": [],
      "name": "vaultFactory",
      "outputs": [
        {
          "internalType": "address",
          "name": "",
          "type": "address"
        }
      ],
      "stateMutability": "view",
      "type": "function"
    },
    {
      "inputs": [],
      "name": "whitelistedAssetsLength",
      "outputs": [
        {
          "internalType": "uint256",
          "name": "",
          "type": "uint256"
        }
      ],
      "stateMutability": "view",
      "type": "function"
    }
  ],
  "bytecode": "0x6080604052348015600e575f5ffd5b50604051611345380380611345833981016040819052602b9160b4565b806001600160a01b038116605857604051631e4fbdf760e01b81525f600482015260240160405180910390fd5b605f816065565b505060df565b5f80546001600160a01b038381166001600160a01b0319831681178455604051919092169283917f8be0079c531659141344cd1fd0a4f28419497f9722a3daafe3b4186f6b6457e09190a35050565b5f6020828403121560c3575f5ffd5b81516001600160a01b038116811460d8575f5ffd5b9392505050565b611259806100ec5f395ff3fe608060405234801561000f575f5ffd5b50600436106101bb575f3560e01c80635f248368116100f3578063d1717c7d11610093578063e0876b441161006e578063e0876b44146103b0578063ed04f218146103c3578063edcf9c1f146103d6578063f2fde38b146103de575f5ffd5b8063d1717c7d1461037b578063d86cd44e14610388578063d8a06f731461039d575f5ffd5b80637a0cb784116100ce5780637a0cb784146103325780638da5cb5b14610345578063b6dfcd8b14610355578063c30dd72714610368575f5ffd5b80635f2483681461030f578063715018a6146103175780637158da7c1461031f575f5ffd5b806325671dcb1161015e5780633a0dad8e116101395780633a0dad8e146102a05780633af32abf146102b35780633ea7fbdb146102d6578063567ba713146102e9575f5ffd5b806325671dcb14610263578063348ec5c81461027657806336021ef414610289575f5ffd5b806319136dc21161019957806319136dc2146102175780631dbc3c041461022a5780632095b01e1461023d57806323a06a1c14610250575f5ffd5b8063015df993146101bf5780630a567a2d146101ef5780630a8b78c714610202575b5f5ffd5b6005546101d2906001600160a01b031681565b6040516001600160a01b0390911681526020015b60405180910390f35b6101d26101fd366004611015565b6103f1565b610215610210366004611047565b610403565b005b610215610225366004611070565b610454565b6102156102383660046110b8565b6104e4565b61021561024b366004611047565b6105c4565b61021561025e3660046110e9565b61063a565b610215610271366004611047565b610790565b6002546101d2906001600160a01b031681565b61029260065481565b6040519081526020016101e6565b6003546101d2906001600160a01b031681565b6102c66102c1366004611047565b6107e1565b60405190151581526020016101e6565b6102156102e4366004611047565b6107ed565b6005546102fd90600160a01b900460ff1681565b60405160ff90911681526020016101e6565b610292610863565b610215610873565b6001546101d2906001600160a01b031681565b6102156103403660046110b8565b610886565b5f546001600160a01b03166101d2565b610215610363366004611047565b610968565b610215610376366004611047565b610abc565b6007546102fd9060ff1681565b610390610b0d565b6040516101e69190611129565b6004546101d2906001600160a01b031681565b6102c66103be366004611047565b610bad565b6103906103d1366004611174565b610bca565b6102c6610c93565b6102156103ec366004611047565b610da4565b5f6103fd600883610de1565b92915050565b61040b610df3565b6001600160a01b0381166104325760405163d92e233d60e01b815260040160405180910390fd5b600280546001600160a01b0319166001600160a01b0392909216919091179055565b61045c610df3565b610464610c93565b610481576040516312aecd8160e01b815260040160405180910390fd5b6007805460ff191660ff858116919091179091556005805460ff60a01b1916600160a01b9285169290920291909117905560068190556040517fc56626e36ca25ee9a19c58d2d4f9a4569523b059e6aaeb263573ded93fc33c5a905f90a1505050565b6004546001600160a01b0316331461050f57604051631a27eac360e11b815260040160405180910390fd5b610517610c93565b610534576040516312aecd8160e01b815260040160405180910390fd5b5f60018260018111156105495761054961118d565b0361056057610559600c84610e1f565b905061056e565b61056b600a84610e1f565b90505b8061058c57604051631a27eac360e11b815260040160405180910390fd5b6040516001600160a01b038416907fe47da341e0fc63816c1254f1c35425f69460f49342668d11c984ea56762b00d4905f90a2505050565b6105cc610df3565b6105d4610c93565b6105f1576040516312aecd8160e01b815260040160405180910390fd5b6001600160a01b0381166106185760405163d92e233d60e01b815260040160405180910390fd5b600580546001600160a01b0319166001600160a01b0392909216919091179055565b610642610df3565b61064a610c93565b610667576040516312aecd8160e01b815260040160405180910390fd5b5f610673600885610e33565b90508061069357604051630ea075bf60e21b815260040160405180910390fd5b6005546040516302707eef60e51b81526001600160a01b038681166004830152858116602483015290911690634e0fdde0906044015f604051808303815f87803b1580156106df575f5ffd5b505af11580156106f1573d5f5f3e3d5ffd5b50506003546040516359017aa960e01b81526001600160a01b038881166004830152868116602483015290911692506359017aa991506044015f604051808303815f87803b158015610741575f5ffd5b505af1158015610753573d5f5f3e3d5ffd5b50506040516001600160a01b03871692507fdcbd8d9d0373041250f6c25b6b7aeccb3e9ff291e510ef85bb9f8ac09ceb6f6491505f90a250505050565b610798610df3565b6001600160a01b0381166107bf5760405163d92e233d60e01b815260040160405180910390fd5b600180546001600160a01b0319166001600160a01b0392909216919091179055565b5f6103fd600883610e47565b6107f5610df3565b6107fd610c93565b61081a576040516312aecd8160e01b815260040160405180910390fd5b6001600160a01b0381166108415760405163d92e233d60e01b815260040160405180910390fd5b600480546001600160a01b0319166001600160a01b0392909216919091179055565b5f61086e6008610e68565b905090565b61087b610df3565b6108845f610e71565b565b6004546001600160a01b031633146108b157604051631a27eac360e11b815260040160405180910390fd5b6001600160a01b0382166108d85760405163d92e233d60e01b815260040160405180910390fd5b5f60018260018111156108ed576108ed61118d565b03610904576108fd600c84610e33565b9050610912565b61090f600a84610e33565b90505b8061093057604051630ea075bf60e21b815260040160405180910390fd5b6040516001600160a01b038416907f9a7094a648c0524f3d62b9167886d30be0e68cf53863fe556edda348f189445a905f90a2505050565b610970610df3565b610978610c93565b610995576040516312aecd8160e01b815260040160405180910390fd5b5f6109a1600883610e1f565b9050806109d15760405163751dff9760e11b81526001600160a01b03831660048201526024015b60405180910390fd5b600554604051634386017560e01b81526001600160a01b038481166004830152909116906343860175906024015f604051808303815f87803b158015610a15575f5ffd5b505af1158015610a27573d5f5f3e3d5ffd5b505060035460405163841181ef60e01b81526001600160a01b038681166004830152909116925063841181ef91506024015f604051808303815f87803b158015610a6f575f5ffd5b505af1158015610a81573d5f5f3e3d5ffd5b50506040516001600160a01b03851692507f952363a786fc6f24cfb955cd6207cf91ecee3a82a7dd0bc26891ff7647b5784c91505f90a25050565b610ac4610df3565b6001600160a01b038116610aeb5760405163d92e233d60e01b815260040160405180910390fd5b600380546001600160a01b0319166001600160a01b0392909216919091179055565b60605f610b1a6008610e68565b90508067ffffffffffffffff811115610b3557610b356111a1565b604051908082528060200260200182016040528015610b5e578160200160208202803683370190505b5091505f5b81811015610ba857610b76600882610de1565b838281518110610b8857610b886111b5565b6001600160a01b0390921660209283029190910190910152600101610b63565b505090565b5f610bb9600c83610e47565b806103fd57506103fd600a83610e47565b60605f6001836001811115610be157610be161118d565b14610bed57600a610bf0565b600c5b90505f610bfc82610e68565b90505f8167ffffffffffffffff811115610c1857610c186111a1565b604051908082528060200260200182016040528015610c41578160200160208202803683370190505b5090505f5b82811015610c8a57610c588482610de1565b828281518110610c6a57610c6a6111b5565b6001600160a01b0390921660209283029190910190910152600101610c46565b50949350505050565b5f8060035f9054906101000a90046001600160a01b03166001600160a01b031663055ad42e6040518163ffffffff1660e01b8152600401602060405180830381865afa158015610ce5573d5f5f3e3d5ffd5b505050506040513d601f19601f82011682018060405250810190610d0991906111d5565b6003811115610d1a57610d1a61118d565b14801561086e5750600254604080516302ad6a1760e11b815290515f926001600160a01b03169163055ad42e9160048083019260209291908290030181865afa158015610d69573d5f5f3e3d5ffd5b505050506040513d601f19601f82011682018060405250810190610d8d91906111d5565b6003811115610d9e57610d9e61118d565b14905090565b610dac610df3565b6001600160a01b038116610dd557604051631e4fbdf760e01b81525f60048201526024016109c8565b610dde81610e71565b50565b5f610dec8383610ec0565b9392505050565b5f546001600160a01b031633146108845760405163118cdaa760e01b81523360048201526024016109c8565b5f610dec836001600160a01b038416610ee6565b5f610dec836001600160a01b038416610fc9565b6001600160a01b0381165f9081526001830160205260408120541515610dec565b5f6103fd825490565b5f80546001600160a01b038381166001600160a01b0319831681178455604051919092169283917f8be0079c531659141344cd1fd0a4f28419497f9722a3daafe3b4186f6b6457e09190a35050565b5f825f018281548110610ed557610ed56111b5565b905f5260205f200154905092915050565b5f8181526001830160205260408120548015610fc0575f610f086001836111f0565b85549091505f90610f1b906001906111f0565b9050808214610f7a575f865f018281548110610f3957610f396111b5565b905f5260205f200154905080875f018481548110610f5957610f596111b5565b5f918252602080832090910192909255918252600188019052604090208390555b8554869080610f8b57610f8b61120f565b600190038181905f5260205f20015f90559055856001015f8681526020019081526020015f205f9055600193505050506103fd565b5f9150506103fd565b5f81815260018301602052604081205461100e57508154600181810184555f8481526020808220909301849055845484825282860190935260409020919091556103fd565b505f6103fd565b5f60208284031215611025575f5ffd5b5035919050565b80356001600160a01b0381168114611042575f5ffd5b919050565b5f60208284031215611057575f5ffd5b610dec8261102c565b803560ff81168114611042575f5ffd5b5f5f5f60608486031215611082575f5ffd5b61108b84611060565b925061109960208501611060565b929592945050506040919091013590565b803560028110611042575f5ffd5b5f5f604083850312156110c9575f5ffd5b6110d28361102c565b91506110e0602084016110aa565b90509250929050565b5f5f5f606084860312156110fb575f5ffd5b6111048461102c565b92506111126020850161102c565b91506111206040850161102c565b90509250925092565b602080825282518282018190525f918401906040840190835b818110156111695783516001600160a01b0316835260209384019390920191600101611142565b509095945050505050565b5f60208284031215611184575f5ffd5b610dec826110aa565b634e487b7160e01b5f52602160045260245ffd5b634e487b7160e01b5f52604160045260245ffd5b634e487b7160e01b5f52603260045260245ffd5b60048110610dde575f5ffd5b5f602082840312156111e5575f5ffd5b8151610dec816111c9565b818103818111156103fd57634e487b7160e01b5f52601160045260245ffd5b634e487b7160e01b5f52603160045260245ffdfea26469706673582212204bbf41419f78c30f5d8cb2e6e0ede430f84c38174fb3b961de32be2305ff0acd64736f6c634300081c0033",
  "linkReferences": {},
  "deployedLinkReferences": {}
}