{
  "_format": "hh-sol-artifact-1",
  "contractName": "OrionConfig",
  "sourceName": "contracts/OrionConfig.sol",
  "abi": [
    {
      "inputs": [
        {
          "internalType": "address",
          "name": "initialOwner",
          "type": "address"
        },
        {
          "internalType": "address",
          "name": "admin_",
          "type": "address"
        },
        {
          "internalType": "address",
          "name": "underlyingAsset_",
          "type": "address"
        }
      ],
      "stateMutability": "nonpayable",
      "type": "constructor"
    },
    {
      "inputs": [],
      "name": "AlreadyRegistered",
      "type": "error"
    },
    {
      "inputs": [],
      "name": "InvalidAddress",
      "type": "error"
    },
    {
      "inputs": [],
      "name": "InvalidArguments",
      "type": "error"
    },
    {
      "inputs": [],
      "name": "NotAuthorized",
      "type": "error"
    },
    {
      "inputs": [
        {
          "internalType": "address",
          "name": "owner",
          "type": "address"
        }
      ],
      "name": "OwnableInvalidOwner",
      "type": "error"
    },
    {
      "inputs": [
        {
          "internalType": "address",
          "name": "account",
          "type": "address"
        }
      ],
      "name": "OwnableUnauthorizedAccount",
      "type": "error"
    },
    {
      "inputs": [],
      "name": "SystemNotIdle",
      "type": "error"
    },
    {
      "inputs": [
        {
          "internalType": "address",
          "name": "token",
          "type": "address"
        }
      ],
      "name": "TokenNotWhitelisted",
      "type": "error"
    },
    {
      "inputs": [],
      "name": "UnauthorizedAccess",
      "type": "error"
    },
    {
      "inputs": [],
      "name": "ZeroAddress",
      "type": "error"
    },
    {
      "anonymous": false,
      "inputs": [
        {
          "indexed": true,
          "internalType": "address",
          "name": "vault",
          "type": "address"
        }
      ],
      "name": "OrionVaultAdded",
      "type": "event"
    },
    {
      "anonymous": false,
      "inputs": [
        {
          "indexed": true,
          "internalType": "address",
          "name": "previousOwner",
          "type": "address"
        },
        {
          "indexed": true,
          "internalType": "address",
          "name": "newOwner",
          "type": "address"
        }
      ],
      "name": "OwnershipTransferred",
      "type": "event"
    },
    {
      "anonymous": false,
      "inputs": [
        {
          "indexed": true,
          "internalType": "uint16",
          "name": "riskFreeRate",
          "type": "uint16"
        }
      ],
      "name": "RiskFreeRateUpdated",
      "type": "event"
    },
    {
      "anonymous": false,
      "inputs": [
        {
          "indexed": true,
          "internalType": "address",
          "name": "asset",
          "type": "address"
        }
      ],
      "name": "WhitelistedAssetAdded",
      "type": "event"
    },
    {
      "anonymous": false,
      "inputs": [
        {
          "indexed": true,
          "internalType": "address",
          "name": "asset",
          "type": "address"
        }
      ],
      "name": "WhitelistedAssetRemoved",
      "type": "event"
    },
    {
      "inputs": [
        {
          "internalType": "address",
          "name": "vault",
          "type": "address"
        },
        {
          "internalType": "enum EventsLib.VaultType",
          "name": "vaultType",
          "type": "uint8"
        }
      ],
      "name": "addOrionVault",
      "outputs": [],
      "stateMutability": "nonpayable",
      "type": "function"
    },
    {
      "inputs": [
        {
          "internalType": "address",
          "name": "asset",
          "type": "address"
        },
        {
          "internalType": "address",
          "name": "priceAdapter",
          "type": "address"
        },
        {
          "internalType": "address",
          "name": "executionAdapter",
          "type": "address"
        }
      ],
      "name": "addWhitelistedAsset",
      "outputs": [],
      "stateMutability": "nonpayable",
      "type": "function"
    },
    {
      "inputs": [
        {
          "internalType": "address",
          "name": "vaultOwner",
          "type": "address"
        }
      ],
      "name": "addWhitelistedVaultOwner",
      "outputs": [],
      "stateMutability": "nonpayable",
      "type": "function"
    },
    {
      "inputs": [],
      "name": "admin",
      "outputs": [
        {
          "internalType": "address",
          "name": "",
          "type": "address"
        }
      ],
      "stateMutability": "view",
      "type": "function"
    },
    {
      "inputs": [
        {
          "internalType": "address",
          "name": "vault",
          "type": "address"
        }
      ],
      "name": "completeVaultDecommissioning",
      "outputs": [],
      "stateMutability": "nonpayable",
      "type": "function"
    },
    {
      "inputs": [],
      "name": "curatorIntentDecimals",
      "outputs": [
        {
          "internalType": "uint8",
          "name": "",
          "type": "uint8"
        }
      ],
      "stateMutability": "view",
      "type": "function"
    },
    {
      "inputs": [
        {
          "internalType": "enum EventsLib.VaultType",
          "name": "vaultType",
          "type": "uint8"
        }
      ],
      "name": "getAllOrionVaults",
      "outputs": [
        {
          "internalType": "address[]",
          "name": "",
          "type": "address[]"
        }
      ],
      "stateMutability": "view",
      "type": "function"
    },
    {
      "inputs": [],
      "name": "getAllWhitelistedAssets",
      "outputs": [
        {
          "internalType": "address[]",
          "name": "assets",
          "type": "address[]"
        }
      ],
      "stateMutability": "view",
      "type": "function"
    },
    {
      "inputs": [
        {
          "internalType": "address",
          "name": "token",
          "type": "address"
        }
      ],
      "name": "getTokenDecimals",
      "outputs": [
        {
          "internalType": "uint8",
          "name": "",
          "type": "uint8"
        }
      ],
      "stateMutability": "view",
      "type": "function"
    },
    {
      "inputs": [],
      "name": "internalStatesOrchestrator",
      "outputs": [
        {
          "internalType": "address",
          "name": "",
          "type": "address"
        }
      ],
      "stateMutability": "view",
      "type": "function"
    },
    {
      "inputs": [
        {
          "internalType": "address",
          "name": "vault",
          "type": "address"
        }
      ],
      "name": "isDecommissionedVault",
      "outputs": [
        {
          "internalType": "bool",
          "name": "",
          "type": "bool"
        }
      ],
      "stateMutability": "view",
      "type": "function"
    },
    {
      "inputs": [
        {
          "internalType": "address",
          "name": "vault",
          "type": "address"
        }
      ],
      "name": "isDecommissioningVault",
      "outputs": [
        {
          "internalType": "bool",
          "name": "",
          "type": "bool"
        }
      ],
      "stateMutability": "view",
      "type": "function"
    },
    {
      "inputs": [
        {
          "internalType": "address",
          "name": "vault",
          "type": "address"
        }
      ],
      "name": "isOrionVault",
      "outputs": [
        {
          "internalType": "bool",
          "name": "",
          "type": "bool"
        }
      ],
      "stateMutability": "view",
      "type": "function"
    },
    {
      "inputs": [],
      "name": "isSystemIdle",
      "outputs": [
        {
          "internalType": "bool",
          "name": "",
          "type": "bool"
        }
      ],
      "stateMutability": "view",
      "type": "function"
    },
    {
      "inputs": [
        {
          "internalType": "address",
          "name": "asset",
          "type": "address"
        }
      ],
      "name": "isWhitelisted",
      "outputs": [
        {
          "internalType": "bool",
          "name": "",
          "type": "bool"
        }
      ],
      "stateMutability": "view",
      "type": "function"
    },
    {
      "inputs": [
        {
          "internalType": "address",
          "name": "vaultOwner",
          "type": "address"
        }
      ],
      "name": "isWhitelistedVaultOwner",
      "outputs": [
        {
          "internalType": "bool",
          "name": "",
          "type": "bool"
        }
      ],
      "stateMutability": "view",
      "type": "function"
    },
    {
      "inputs": [],
      "name": "liquidityOrchestrator",
      "outputs": [
        {
          "internalType": "address",
          "name": "",
          "type": "address"
        }
      ],
      "stateMutability": "view",
      "type": "function"
    },
    {
      "inputs": [],
      "name": "owner",
      "outputs": [
        {
          "internalType": "address",
          "name": "",
          "type": "address"
        }
      ],
      "stateMutability": "view",
      "type": "function"
    },
    {
      "inputs": [],
      "name": "priceAdapterDecimals",
      "outputs": [
        {
          "internalType": "uint8",
          "name": "",
          "type": "uint8"
        }
      ],
      "stateMutability": "view",
      "type": "function"
    },
    {
      "inputs": [],
      "name": "priceAdapterRegistry",
      "outputs": [
        {
          "internalType": "address",
          "name": "",
          "type": "address"
        }
      ],
      "stateMutability": "view",
      "type": "function"
    },
    {
      "inputs": [
        {
          "internalType": "address",
          "name": "vault",
          "type": "address"
        }
      ],
      "name": "removeOrionVault",
      "outputs": [],
      "stateMutability": "nonpayable",
      "type": "function"
    },
    {
      "inputs": [
        {
          "internalType": "address",
          "name": "asset",
          "type": "address"
        }
      ],
      "name": "removeWhitelistedAsset",
      "outputs": [],
      "stateMutability": "nonpayable",
      "type": "function"
    },
    {
      "inputs": [],
      "name": "renounceOwnership",
      "outputs": [],
      "stateMutability": "nonpayable",
      "type": "function"
    },
    {
      "inputs": [],
      "name": "riskFreeRate",
      "outputs": [
        {
          "internalType": "uint16",
          "name": "",
          "type": "uint16"
        }
      ],
      "stateMutability": "view",
      "type": "function"
    },
    {
      "inputs": [
        {
          "internalType": "address",
          "name": "orchestrator",
          "type": "address"
        }
      ],
      "name": "setInternalStatesOrchestrator",
      "outputs": [],
      "stateMutability": "nonpayable",
      "type": "function"
    },
    {
      "inputs": [
        {
          "internalType": "address",
          "name": "orchestrator",
          "type": "address"
        }
      ],
      "name": "setLiquidityOrchestrator",
      "outputs": [],
      "stateMutability": "nonpayable",
      "type": "function"
    },
    {
      "inputs": [
        {
          "internalType": "address",
          "name": "registry",
          "type": "address"
        }
      ],
      "name": "setPriceAdapterRegistry",
      "outputs": [],
      "stateMutability": "nonpayable",
      "type": "function"
    },
    {
      "inputs": [
        {
          "internalType": "uint16",
          "name": "_riskFreeRate",
          "type": "uint16"
        }
      ],
      "name": "setProtocolRiskFreeRate",
      "outputs": [],
      "stateMutability": "nonpayable",
      "type": "function"
    },
    {
      "inputs": [
        {
          "internalType": "address",
          "name": "transparentFactory",
          "type": "address"
        }
      ],
      "name": "setVaultFactory",
      "outputs": [],
      "stateMutability": "nonpayable",
      "type": "function"
    },
    {
      "inputs": [
        {
          "internalType": "address",
          "name": "",
          "type": "address"
        }
      ],
      "name": "tokenDecimals",
      "outputs": [
        {
          "internalType": "uint8",
          "name": "",
          "type": "uint8"
        }
      ],
      "stateMutability": "view",
      "type": "function"
    },
    {
      "inputs": [
        {
          "internalType": "address",
          "name": "newOwner",
          "type": "address"
        }
      ],
      "name": "transferOwnership",
      "outputs": [],
      "stateMutability": "nonpayable",
      "type": "function"
    },
    {
      "inputs": [],
      "name": "transparentVaultFactory",
      "outputs": [
        {
          "internalType": "address",
          "name": "",
          "type": "address"
        }
      ],
      "stateMutability": "view",
      "type": "function"
    },
    {
      "inputs": [],
      "name": "underlyingAsset",
      "outputs": [
        {
          "internalType": "contract IERC20",
          "name": "",
          "type": "address"
        }
      ],
      "stateMutability": "view",
      "type": "function"
    },
    {
      "inputs": [],
      "name": "whitelistedAssetsLength",
      "outputs": [
        {
          "internalType": "uint16",
          "name": "",
          "type": "uint16"
        }
      ],
      "stateMutability": "view",
      "type": "function"
    }
  ],
  "bytecode": "0x60a060405234801561000f575f5ffd5b50604051611a0e380380611a0e83398101604081905261002e91610266565b826001600160a01b03811661005c57604051631e4fbdf760e01b81525f600482015260240160405180910390fd5b61006581610193565b506001600160a01b03821661008d5760405163d92e233d60e01b815260040160405180910390fd5b6001600160a01b0381166100b45760405163d92e233d60e01b815260040160405180910390fd5b6001600160a01b03828116608052600180546001600160a01b03191691831691821790556005805461ffff60a01b1916610e0960a01b1790556040805163313ce56760e01b8152905163313ce567916004808201926020929091908290030181865afa158015610126573d5f5f3e3d5ffd5b505050506040513d601f19601f8201168201806040525081019061014a91906102a6565b6001600160a01b0382165f908152600a60205260409020805460ff191660ff9290921691909117905561017e6006826101e2565b5061018a6008846101e2565b505050506102cd565b5f80546001600160a01b038381166001600160a01b0319831681178455604051919092169283917f8be0079c531659141344cd1fd0a4f28419497f9722a3daafe3b4186f6b6457e09190a35050565b5f6101f6836001600160a01b0384166101ff565b90505b92915050565b5f81815260018301602052604081205461024457508154600181810184555f8481526020808220909301849055845484825282860190935260409020919091556101f9565b505f6101f9565b80516001600160a01b0381168114610261575f5ffd5b919050565b5f5f5f60608486031215610278575f5ffd5b6102818461024b565b925061028f6020850161024b565b915061029d6040850161024b565b90509250925092565b5f602082840312156102b6575f5ffd5b815160ff811681146102c6575f5ffd5b9392505050565b60805161171b6102f35f395f818161045e0152818161099f0152610b03015261171b5ff3fe608060405234801561000f575f5ffd5b5060043610610194575f3560e01c8063015df993146101985780630a8b78c7146101c15780632095b01e146101d657806323a06a1c146101e9578063348ec5c8146101fc5780633a0dad8e1461020f5780633af32abf146102225780633ea7fbdb1461024557806355fba94e14610258578063567ba7131461026b5780635f2483681461029157806366e87e7f146102ac578063715018a6146102bf5780637158da7c146102c7578063785c7cf6146102da5780637a0cb78414610305578063849ede2314610318578063862a5f061461032b5780638771de871461033e5780638da5cb5b146103515780638ee573ac14610359578063b6dfcd8b1461037b578063c30dd7271461038e578063d11f1c35146103a1578063d1717c7d146103b4578063d86cd44e146103c8578063e0876b44146103dd578063e8ffccb7146103f0578063ed04f21814610403578063edcf9c1f14610416578063f2fde38b1461041e578063f3cc699314610431578063f764eb4514610446578063f851a44014610459575b5f5ffd5b6005546101ab906001600160a01b031681565b6040516101b89190611390565b60405180910390f35b6101d46101cf3660046113b8565b610480565b005b6101d46101e43660046113b8565b6104fb565b6101d46101f73660046113d3565b610576565b6002546101ab906001600160a01b031681565b6003546101ab906001600160a01b031681565b6102356102303660046113b8565b610728565b60405190151581526020016101b8565b6101d46102533660046113b8565b61073a565b6101d46102663660046113b8565b6107da565b60055461027f90600160a81b900460ff1681565b60405160ff90911681526020016101b8565b610299610812565b60405161ffff90911681526020016101b8565b6101d46102ba36600461141b565b610822565b6101d461089f565b6001546101ab906001600160a01b031681565b61027f6102e83660046113b8565b6001600160a01b03165f908152600a602052604090205460ff1690565b6101d461031336600461144f565b6108b2565b6004546101ab906001600160a01b031681565b6101d46103393660046113b8565b610994565b61023561034c3660046113b8565b610ade565b6101ab610aea565b61027f6103673660046113b8565b600a6020525f908152604090205460ff1681565b6101d46103893660046113b8565b610af8565b6101d461039c3660046113b8565b610cfa565b6102356103af3660046113b8565b610d75565b60055461027f90600160a01b900460ff1681565b6103d0610d81565b6040516101b89190611482565b6102356103eb3660046113b8565b610e34565b6101d46103fe3660046113b8565b610e51565b6103d06104113660046114cd565b610f1b565b610235610ff7565b6101d461042c3660046113b8565b611108565b60055461029990600160b01b900461ffff1681565b6102356104543660046113b8565b611145565b6101ab7f000000000000000000000000000000000000000000000000000000000000000081565b610488611151565b6001600160a01b0381166104af5760405163d92e233d60e01b815260040160405180910390fd5b6002546001600160a01b0316156104d957604051630ea075bf60e21b815260040160405180910390fd5b600280546001600160a01b0319166001600160a01b0392909216919091179055565b610503611151565b6001600160a01b03811661052a5760405163d92e233d60e01b815260040160405180910390fd5b6005546001600160a01b03161561055457604051630ea075bf60e21b815260040160405180910390fd5b600580546001600160a01b0319166001600160a01b0392909216919091179055565b61057e611151565b610586610ff7565b6105a3576040516312aecd8160e01b815260040160405180910390fd5b6105ae600684611183565b50826001600160a01b031663313ce5676040518163ffffffff1660e01b8152600401602060405180830381865afa1580156105eb573d5f5f3e3d5ffd5b505050506040513d601f19601f8201168201806040525081019061060f91906114e6565b6001600160a01b038481165f908152600a602052604090819020805460ff191660ff949094169390931790925560055491516302707eef60e51b8152911690634e0fdde0906106649086908690600401611506565b5f604051808303815f87803b15801561067b575f5ffd5b505af115801561068d573d5f5f3e3d5ffd5b50506003546040516359017aa960e01b81526001600160a01b0390911692506359017aa991506106c39086908590600401611506565b5f604051808303815f87803b1580156106da575f5ffd5b505af11580156106ec573d5f5f3e3d5ffd5b50506040516001600160a01b03861692507fdcbd8d9d0373041250f6c25b6b7aeccb3e9ff291e510ef85bb9f8ac09ceb6f6491505f90a2505050565b5f61073460068361119e565b92915050565b610742611151565b61074a610ff7565b610767576040516312aecd8160e01b815260040160405180910390fd5b6001600160a01b03811661078e5760405163d92e233d60e01b815260040160405180910390fd5b6004546001600160a01b0316156107b857604051630ea075bf60e21b815260040160405180910390fd5b600480546001600160a01b0319166001600160a01b0392909216919091179055565b6107e2611151565b5f6107ee600883611183565b90508061080e57604051630ea075bf60e21b815260040160405180910390fd5b5050565b5f61081d60066111b2565b905090565b61082a611151565b610832610ff7565b61084f576040516312aecd8160e01b815260040160405180910390fd5b6005805461ffff60b01b1916600160b01b61ffff84811682029290921792839055604051920416907f6c0e50288cc602be5dd504ce35358e01341e3c4f93e2e02b5a030a59bfdb84e2905f90a250565b6108a7611151565b6108b05f6111bb565b565b6004546001600160a01b031633146108dd57604051631a27eac360e11b815260040160405180910390fd5b6001600160a01b0382166109045760405163d92e233d60e01b815260040160405180910390fd5b5f600182600181111561091957610919611520565b0361093057610929600d84611183565b905061093e565b61093b600b84611183565b90505b8061095c57604051630ea075bf60e21b815260040160405180910390fd5b6040516001600160a01b038416907f9a7094a648c0524f3d62b9167886d30be0e68cf53863fe556edda348f189445a905f90a2505050565b336001600160a01b037f000000000000000000000000000000000000000000000000000000000000000016146109dd57604051631a27eac360e11b815260040160405180910390fd5b6109e5610ff7565b610a02576040516312aecd8160e01b815260040160405180910390fd5b604051633821dad160e21b8152309063e0876b4490610a25908490600401611390565b602060405180830381865afa158015610a40573d5f5f3e3d5ffd5b505050506040513d601f19601f82011682018060405250810190610a649190611534565b610a815760405163e6c4247b60e01b815260040160405180910390fd5b610a8c600f82611183565b50806001600160a01b031663ca78e8396040518163ffffffff1660e01b81526004015f604051808303815f87803b158015610ac5575f5ffd5b505af1158015610ad7573d5f5f3e3d5ffd5b5050505050565b5f61073460088361119e565b5f546001600160a01b031690565b336001600160a01b037f00000000000000000000000000000000000000000000000000000000000000001614610b4157604051631a27eac360e11b815260040160405180910390fd5b610b49610ff7565b610b66576040516312aecd8160e01b815260040160405180910390fd5b6001546001600160a01b0390811690821603610b95576040516317dbc4cb60e21b815260040160405180910390fd5b5f610ba160068361120a565b905080610bcc578160405163751dff9760e11b8152600401610bc39190611390565b60405180910390fd5b604051631da09e4360e31b81525f90309063ed04f21890610bf1908490600401611553565b5f60405180830381865afa158015610c0b573d5f5f3e3d5ffd5b505050506040513d5f823e601f3d908101601f19168201604052610c329190810190611598565b90505f5b8151811015610cc1575f828281518110610c5257610c52611662565b60200260200101519050806001600160a01b031663e3352c4c866040518263ffffffff1660e01b8152600401610c889190611390565b5f604051808303815f87803b158015610c9f575f5ffd5b505af1158015610cb1573d5f5f3e3d5ffd5b5050505050806001019050610c36565b506040516001600160a01b038416907f952363a786fc6f24cfb955cd6207cf91ecee3a82a7dd0bc26891ff7647b5784c905f90a2505050565b610d02611151565b6001600160a01b038116610d295760405163d92e233d60e01b815260040160405180910390fd5b6003546001600160a01b031615610d5357604051630ea075bf60e21b815260040160405180910390fd5b600380546001600160a01b0319166001600160a01b0392909216919091179055565b5f610734600f8361119e565b60605f610d8e60066111b2565b90508061ffff166001600160401b03811115610dac57610dac611579565b604051908082528060200260200182016040528015610dd5578160200160208202803683370190505b5091505f5b8161ffff168161ffff161015610e2f57610df9600661ffff831661121e565b838261ffff1681518110610e0f57610e0f611662565b6001600160a01b0390921660209283029190910190910152600101610dda565b505090565b5f610e40600d8361119e565b806107345750610734600b8361119e565b6003546001600160a01b03163314610e7c5760405163ea8e4eb560e01b815260040160405180910390fd5b610e87600f8261119e565b610ea45760405163e6c4247b60e01b815260040160405180910390fd5b5f610eb0600d8361119e565b15610ec957506001610ec3600d8361120a565b50610eff565b610ed4600b8361119e565b15610ee657505f610ec3600b8361120a565b60405163e6c4247b60e01b815260040160405180910390fd5b610f0a600f8361120a565b50610f16601183611183565b505050565b60605f6001836001811115610f3257610f32611520565b14610f3e57600b610f41565b600d5b90505f610f4d826111b2565b90505f8161ffff166001600160401b03811115610f6c57610f6c611579565b604051908082528060200260200182016040528015610f95578160200160208202803683370190505b5090505f5b8261ffff168161ffff161015610fee57610fb88461ffff831661121e565b828261ffff1681518110610fce57610fce611662565b6001600160a01b0390921660209283029190910190910152600101610f9a565b50949350505050565b5f8060035f9054906101000a90046001600160a01b03166001600160a01b031663055ad42e6040518163ffffffff1660e01b8152600401602060405180830381865afa158015611049573d5f5f3e3d5ffd5b505050506040513d601f19601f8201168201806040525081019061106d9190611676565b600381111561107e5761107e611520565b14801561081d5750600254604080516302ad6a1760e11b815290515f926001600160a01b03169163055ad42e9160048083019260209291908290030181865afa1580156110cd573d5f5f3e3d5ffd5b505050506040513d601f19601f820116820180604052508101906110f19190611694565b600481111561110257611102611520565b14905090565b611110611151565b6001600160a01b038116611139575f604051631e4fbdf760e01b8152600401610bc39190611390565b611142816111bb565b50565b5f61073460118361119e565b3361115a610aea565b6001600160a01b0316146108b0573360405163118cdaa760e01b8152600401610bc39190611390565b5f611197836001600160a01b038416611229565b9392505050565b5f611197836001600160a01b038416611270565b5f610734825490565b5f80546001600160a01b038381166001600160a01b0319831681178455604051919092169283917f8be0079c531659141344cd1fd0a4f28419497f9722a3daafe3b4186f6b6457e09190a35050565b5f611197836001600160a01b038416611287565b5f611197838361136a565b5f6112348383611270565b61126957508154600181810184555f848152602080822090930184905584548482528286019093526040902091909155610734565b505f610734565b5f9081526001919091016020526040902054151590565b5f8181526001830160205260408120548015611361575f6112a96001836116b2565b85549091505f906112bc906001906116b2565b905080821461131b575f865f0182815481106112da576112da611662565b905f5260205f200154905080875f0184815481106112fa576112fa611662565b5f918252602080832090910192909255918252600188019052604090208390555b855486908061132c5761132c6116d1565b600190038181905f5260205f20015f90559055856001015f8681526020019081526020015f205f905560019350505050610734565b5f915050610734565b5f825f01828154811061137f5761137f611662565b905f5260205f200154905092915050565b6001600160a01b0391909116815260200190565b6001600160a01b0381168114611142575f5ffd5b5f602082840312156113c8575f5ffd5b8135611197816113a4565b5f5f5f606084860312156113e5575f5ffd5b83356113f0816113a4565b92506020840135611400816113a4565b91506040840135611410816113a4565b809150509250925092565b5f6020828403121561142b575f5ffd5b813561ffff81168114611197575f5ffd5b80356002811061144a575f5ffd5b919050565b5f5f60408385031215611460575f5ffd5b823561146b816113a4565b91506114796020840161143c565b90509250929050565b602080825282518282018190525f918401906040840190835b818110156114c25783516001600160a01b031683526020938401939092019160010161149b565b509095945050505050565b5f602082840312156114dd575f5ffd5b6111978261143c565b5f602082840312156114f6575f5ffd5b815160ff81168114611197575f5ffd5b6001600160a01b0392831681529116602082015260400190565b634e487b7160e01b5f52602160045260245ffd5b5f60208284031215611544575f5ffd5b81518015158114611197575f5ffd5b602081016002831061157357634e487b7160e01b5f52602160045260245ffd5b91905290565b634e487b7160e01b5f52604160045260245ffd5b805161144a816113a4565b5f602082840312156115a8575f5ffd5b81516001600160401b038111156115bd575f5ffd5b8201601f810184136115cd575f5ffd5b80516001600160401b038111156115e6576115e6611579565b604051600582901b90603f8201601f191681016001600160401b038111828210171561161457611614611579565b604052918252602081840181019290810187841115611631575f5ffd5b6020850194505b83851015611657576116498561158d565b815260209485019401611638565b509695505050505050565b634e487b7160e01b5f52603260045260245ffd5b5f60208284031215611686575f5ffd5b815160048110611197575f5ffd5b5f602082840312156116a4575f5ffd5b815160058110611197575f5ffd5b8181038181111561073457634e487b7160e01b5f52601160045260245ffd5b634e487b7160e01b5f52603160045260245ffdfea26469706673582212200b33117f30af8e0338137af4463bfe41650c1cf67b73e6e4ec66a2c7cf1f769a64736f6c634300081c0033",
  "linkReferences": {},
  "deployedLinkReferences": {}
}