{
  "_format": "hh-sol-artifact-1",
  "contractName": "OrionConfig",
  "sourceName": "contracts/OrionConfig.sol",
  "abi": [
    {
      "inputs": [
        {
          "internalType": "address",
          "name": "target",
          "type": "address"
        }
      ],
      "name": "AddressEmptyCode",
      "type": "error"
    },
    {
      "inputs": [],
      "name": "AlreadyAnOrionVault",
      "type": "error"
    },
    {
      "inputs": [],
      "name": "AlreadyWhitelisted",
      "type": "error"
    },
    {
      "inputs": [
        {
          "internalType": "address",
          "name": "implementation",
          "type": "address"
        }
      ],
      "name": "ERC1967InvalidImplementation",
      "type": "error"
    },
    {
      "inputs": [],
      "name": "ERC1967NonPayable",
      "type": "error"
    },
    {
      "inputs": [],
      "name": "FailedCall",
      "type": "error"
    },
    {
      "inputs": [],
      "name": "InvalidInitialization",
      "type": "error"
    },
    {
      "inputs": [],
      "name": "NotAnOrionVault",
      "type": "error"
    },
    {
      "inputs": [],
      "name": "NotFactory",
      "type": "error"
    },
    {
      "inputs": [],
      "name": "NotInitializing",
      "type": "error"
    },
    {
      "inputs": [
        {
          "internalType": "address",
          "name": "owner",
          "type": "address"
        }
      ],
      "name": "OwnableInvalidOwner",
      "type": "error"
    },
    {
      "inputs": [
        {
          "internalType": "address",
          "name": "account",
          "type": "address"
        }
      ],
      "name": "OwnableUnauthorizedAccount",
      "type": "error"
    },
    {
      "inputs": [
        {
          "internalType": "address",
          "name": "token",
          "type": "address"
        }
      ],
      "name": "TokenNotWhitelisted",
      "type": "error"
    },
    {
      "inputs": [],
      "name": "UUPSUnauthorizedCallContext",
      "type": "error"
    },
    {
      "inputs": [
        {
          "internalType": "bytes32",
          "name": "slot",
          "type": "bytes32"
        }
      ],
      "name": "UUPSUnsupportedProxiableUUID",
      "type": "error"
    },
    {
      "inputs": [],
      "name": "ZeroAddress",
      "type": "error"
    },
    {
      "anonymous": false,
      "inputs": [
        {
          "indexed": false,
          "internalType": "uint64",
          "name": "version",
          "type": "uint64"
        }
      ],
      "name": "Initialized",
      "type": "event"
    },
    {
      "anonymous": false,
      "inputs": [
        {
          "indexed": true,
          "internalType": "address",
          "name": "vault",
          "type": "address"
        }
      ],
      "name": "OrionVaultAdded",
      "type": "event"
    },
    {
      "anonymous": false,
      "inputs": [
        {
          "indexed": true,
          "internalType": "address",
          "name": "vault",
          "type": "address"
        }
      ],
      "name": "OrionVaultRemoved",
      "type": "event"
    },
    {
      "anonymous": false,
      "inputs": [
        {
          "indexed": true,
          "internalType": "address",
          "name": "previousOwner",
          "type": "address"
        },
        {
          "indexed": true,
          "internalType": "address",
          "name": "newOwner",
          "type": "address"
        }
      ],
      "name": "OwnershipTransferStarted",
      "type": "event"
    },
    {
      "anonymous": false,
      "inputs": [
        {
          "indexed": true,
          "internalType": "address",
          "name": "previousOwner",
          "type": "address"
        },
        {
          "indexed": true,
          "internalType": "address",
          "name": "newOwner",
          "type": "address"
        }
      ],
      "name": "OwnershipTransferred",
      "type": "event"
    },
    {
      "anonymous": false,
      "inputs": [],
      "name": "ProtocolParamsUpdated",
      "type": "event"
    },
    {
      "anonymous": false,
      "inputs": [
        {
          "indexed": true,
          "internalType": "address",
          "name": "implementation",
          "type": "address"
        }
      ],
      "name": "Upgraded",
      "type": "event"
    },
    {
      "anonymous": false,
      "inputs": [
        {
          "indexed": true,
          "internalType": "address",
          "name": "asset",
          "type": "address"
        }
      ],
      "name": "WhitelistedAssetAdded",
      "type": "event"
    },
    {
      "anonymous": false,
      "inputs": [
        {
          "indexed": true,
          "internalType": "address",
          "name": "asset",
          "type": "address"
        }
      ],
      "name": "WhitelistedAssetRemoved",
      "type": "event"
    },
    {
      "inputs": [],
      "name": "UPGRADE_INTERFACE_VERSION",
      "outputs": [
        {
          "internalType": "string",
          "name": "",
          "type": "string"
        }
      ],
      "stateMutability": "view",
      "type": "function"
    },
    {
      "inputs": [],
      "name": "acceptOwnership",
      "outputs": [],
      "stateMutability": "nonpayable",
      "type": "function"
    },
    {
      "inputs": [
        {
          "internalType": "address",
          "name": "vault",
          "type": "address"
        },
        {
          "internalType": "enum EventsLib.VaultType",
          "name": "vaultType",
          "type": "uint8"
        }
      ],
      "name": "addOrionVault",
      "outputs": [],
      "stateMutability": "nonpayable",
      "type": "function"
    },
    {
      "inputs": [
        {
          "internalType": "address",
          "name": "asset",
          "type": "address"
        },
        {
          "internalType": "address",
          "name": "oracleAdapter",
          "type": "address"
        },
        {
          "internalType": "address",
          "name": "executionAdapter",
          "type": "address"
        }
      ],
      "name": "addWhitelistedAsset",
      "outputs": [],
      "stateMutability": "nonpayable",
      "type": "function"
    },
    {
      "inputs": [],
      "name": "curatorIntentDecimals",
      "outputs": [
        {
          "internalType": "uint8",
          "name": "",
          "type": "uint8"
        }
      ],
      "stateMutability": "view",
      "type": "function"
    },
    {
      "inputs": [
        {
          "internalType": "enum EventsLib.VaultType",
          "name": "vaultType",
          "type": "uint8"
        }
      ],
      "name": "getAllOrionVaults",
      "outputs": [
        {
          "internalType": "address[]",
          "name": "",
          "type": "address[]"
        }
      ],
      "stateMutability": "view",
      "type": "function"
    },
    {
      "inputs": [],
      "name": "getAllWhitelistedAssets",
      "outputs": [
        {
          "internalType": "address[]",
          "name": "assets",
          "type": "address[]"
        }
      ],
      "stateMutability": "view",
      "type": "function"
    },
    {
      "inputs": [
        {
          "internalType": "uint256",
          "name": "index",
          "type": "uint256"
        }
      ],
      "name": "getWhitelistedAssetAt",
      "outputs": [
        {
          "internalType": "address",
          "name": "",
          "type": "address"
        }
      ],
      "stateMutability": "view",
      "type": "function"
    },
    {
      "inputs": [
        {
          "internalType": "address",
          "name": "initialOwner",
          "type": "address"
        }
      ],
      "name": "initialize",
      "outputs": [],
      "stateMutability": "nonpayable",
      "type": "function"
    },
    {
      "inputs": [],
      "name": "internalStatesOrchestrator",
      "outputs": [
        {
          "internalType": "address",
          "name": "",
          "type": "address"
        }
      ],
      "stateMutability": "view",
      "type": "function"
    },
    {
      "inputs": [
        {
          "internalType": "address",
          "name": "vault",
          "type": "address"
        }
      ],
      "name": "isOrionVault",
      "outputs": [
        {
          "internalType": "bool",
          "name": "",
          "type": "bool"
        }
      ],
      "stateMutability": "view",
      "type": "function"
    },
    {
      "inputs": [
        {
          "internalType": "address",
          "name": "asset",
          "type": "address"
        }
      ],
      "name": "isWhitelisted",
      "outputs": [
        {
          "internalType": "bool",
          "name": "",
          "type": "bool"
        }
      ],
      "stateMutability": "view",
      "type": "function"
    },
    {
      "inputs": [],
      "name": "liquidityOrchestrator",
      "outputs": [
        {
          "internalType": "address",
          "name": "",
          "type": "address"
        }
      ],
      "stateMutability": "view",
      "type": "function"
    },
    {
      "inputs": [],
      "name": "oracleRegistry",
      "outputs": [
        {
          "internalType": "address",
          "name": "",
          "type": "address"
        }
      ],
      "stateMutability": "view",
      "type": "function"
    },
    {
      "inputs": [],
      "name": "owner",
      "outputs": [
        {
          "internalType": "address",
          "name": "",
          "type": "address"
        }
      ],
      "stateMutability": "view",
      "type": "function"
    },
    {
      "inputs": [],
      "name": "pendingOwner",
      "outputs": [
        {
          "internalType": "address",
          "name": "",
          "type": "address"
        }
      ],
      "stateMutability": "view",
      "type": "function"
    },
    {
      "inputs": [],
      "name": "proxiableUUID",
      "outputs": [
        {
          "internalType": "bytes32",
          "name": "",
          "type": "bytes32"
        }
      ],
      "stateMutability": "view",
      "type": "function"
    },
    {
      "inputs": [
        {
          "internalType": "address",
          "name": "vault",
          "type": "address"
        },
        {
          "internalType": "enum EventsLib.VaultType",
          "name": "vaultType",
          "type": "uint8"
        }
      ],
      "name": "removeOrionVault",
      "outputs": [],
      "stateMutability": "nonpayable",
      "type": "function"
    },
    {
      "inputs": [
        {
          "internalType": "address",
          "name": "asset",
          "type": "address"
        }
      ],
      "name": "removeWhitelistedAsset",
      "outputs": [],
      "stateMutability": "nonpayable",
      "type": "function"
    },
    {
      "inputs": [],
      "name": "renounceOwnership",
      "outputs": [],
      "stateMutability": "nonpayable",
      "type": "function"
    },
    {
      "inputs": [
        {
          "internalType": "address",
          "name": "orchestrator",
          "type": "address"
        }
      ],
      "name": "setInternalStatesOrchestrator",
      "outputs": [],
      "stateMutability": "nonpayable",
      "type": "function"
    },
    {
      "inputs": [
        {
          "internalType": "address",
          "name": "liquidityOrchestrator_",
          "type": "address"
        },
        {
          "internalType": "uint8",
          "name": "curatorIntentDecimals_",
          "type": "uint8"
        },
        {
          "internalType": "address",
          "name": "factory_",
          "type": "address"
        },
        {
          "internalType": "address",
          "name": "oracleRegistry_",
          "type": "address"
        }
      ],
      "name": "setProtocolParams",
      "outputs": [],
      "stateMutability": "nonpayable",
      "type": "function"
    },
    {
      "inputs": [
        {
          "internalType": "address",
          "name": "asset",
          "type": "address"
        }
      ],
      "name": "setUnderlyingAsset",
      "outputs": [],
      "stateMutability": "nonpayable",
      "type": "function"
    },
    {
      "inputs": [
        {
          "internalType": "address",
          "name": "newOwner",
          "type": "address"
        }
      ],
      "name": "transferOwnership",
      "outputs": [],
      "stateMutability": "nonpayable",
      "type": "function"
    },
    {
      "inputs": [],
      "name": "underlyingAsset",
      "outputs": [
        {
          "internalType": "contract IERC20",
          "name": "",
          "type": "address"
        }
      ],
      "stateMutability": "view",
      "type": "function"
    },
    {
      "inputs": [
        {
          "internalType": "address",
          "name": "newImplementation",
          "type": "address"
        },
        {
          "internalType": "bytes",
          "name": "data",
          "type": "bytes"
        }
      ],
      "name": "upgradeToAndCall",
      "outputs": [],
      "stateMutability": "payable",
      "type": "function"
    },
    {
      "inputs": [],
      "name": "vaultFactory",
      "outputs": [
        {
          "internalType": "address",
          "name": "",
          "type": "address"
        }
      ],
      "stateMutability": "view",
      "type": "function"
    },
    {
      "inputs": [],
      "name": "whitelistedAssetsLength",
      "outputs": [
        {
          "internalType": "uint256",
          "name": "",
          "type": "uint256"
        }
      ],
      "stateMutability": "view",
      "type": "function"
    }
  ],
  "bytecode": "0x60a06040523073ffffffffffffffffffffffffffffffffffffffff1660809073ffffffffffffffffffffffffffffffffffffffff168152503480156041575f5ffd5b506080516139836100685f395f81816125a2015281816125f701526127ed01526139835ff3fe6080604052600436106101b6575f3560e01c806379ba5097116100eb578063d1717c7d11610089578063e0876b4411610063578063e0876b4414610588578063e30c3978146105c4578063ed04f218146105ee578063f2fde38b1461062a576101b6565b8063d1717c7d1461050a578063d86cd44e14610534578063d8a06f731461055e576101b6565b8063ad3cb1cc116100c5578063ad3cb1cc14610468578063b6dfcd8b14610492578063c110116c146104ba578063c4d66de8146104e2576101b6565b806379ba5097146104005780637a0cb784146104165780638da5cb5b1461043e576101b6565b80633af32abf1161015857806352d1902d1161013257806352d1902d1461036c5780635f24836814610396578063715018a6146103c05780637158da7c146103d6576101b6565b80633af32abf146102ea5780634bb93ab1146103265780634f1ef28614610350576101b6565b806323a06a1c1161019457806323a06a1c1461024657806325671dcb1461026e578063348ec5c8146102965780633a0dad8e146102c0576101b6565b80630a567a2d146101ba5780630a8b78c7146101f65780631dbc3c041461021e575b5f5ffd5b3480156101c5575f5ffd5b506101e060048036038101906101db9190613061565b610652565b6040516101ed91906130cb565b60405180910390f35b348015610201575f5ffd5b5061021c6004803603810190610217919061310e565b6106aa565b005b348015610229575f5ffd5b50610244600480360381019061023f919061315c565b6107fa565b005b348015610251575f5ffd5b5061026c6004803603810190610267919061319a565b610b29565b005b348015610279575f5ffd5b50610294600480360381019061028f919061310e565b610e06565b005b3480156102a1575f5ffd5b506102aa610f55565b6040516102b791906130cb565b60405180910390f35b3480156102cb575f5ffd5b506102d4610f7a565b6040516102e191906130cb565b60405180910390f35b3480156102f5575f5ffd5b50610310600480360381019061030b919061310e565b610f9f565b60405161031d9190613204565b60405180910390f35b348015610331575f5ffd5b5061033a610ff7565b60405161034791906130cb565b60405180910390f35b61036a60048036038101906103659190613359565b61101c565b005b348015610377575f5ffd5b5061038061103b565b60405161038d91906133cb565b60405180910390f35b3480156103a1575f5ffd5b506103aa61106c565b6040516103b791906133f3565b60405180910390f35b3480156103cb575f5ffd5b506103d46110b8565b005b3480156103e1575f5ffd5b506103ea6110cb565b6040516103f79190613467565b60405180910390f35b34801561040b575f5ffd5b506104146110ef565b005b348015610421575f5ffd5b5061043c6004803603810190610437919061315c565b61117d565b005b348015610449575f5ffd5b50610452611561565b60405161045f91906130cb565b60405180910390f35b348015610473575f5ffd5b5061047c611596565b60405161048991906134e0565b60405180910390f35b34801561049d575f5ffd5b506104b860048036038101906104b3919061310e565b6115cf565b005b3480156104c5575f5ffd5b506104e060048036038101906104db9190613536565b6118b1565b005b3480156104ed575f5ffd5b506105086004803603810190610503919061310e565b611c99565b005b348015610515575f5ffd5b5061051e611ede565b60405161052b91906135a9565b60405180910390f35b34801561053f575f5ffd5b50610548611ef1565b6040516105559190613679565b60405180910390f35b348015610569575f5ffd5b5061057261207d565b60405161057f91906130cb565b60405180910390f35b348015610593575f5ffd5b506105ae60048036038101906105a9919061310e565b6120a2565b6040516105bb9190613204565b60405180910390f35b3480156105cf575f5ffd5b506105d861214d565b6040516105e591906130cb565b60405180910390f35b3480156105f9575f5ffd5b50610614600480360381019061060f9190613699565b612182565b6040516106219190613679565b60405180910390f35b348015610635575f5ffd5b50610650600480360381019061064b919061310e565b6123bf565b005b5f61066767b49003dd35327f6360c01b612478565b61067b678f2ae7a2ea8ca5b960c01b612478565b61068f6789f6cd9f1668563f60c01b612478565b6106a382600561247b90919063ffffffff16565b9050919050565b6106be67ad6d6ae54958a78760c01b612478565b6106c6612492565b6106da676f7379fe0d00e8bf60c01b612478565b6106ee67c354f7f2f3a526af60c01b612478565b610702670923975fcdea475360c01b612478565b610716673b2d498bd11fabb660c01b612478565b5f73ffffffffffffffffffffffffffffffffffffffff168173ffffffffffffffffffffffffffffffffffffffff160361078f5761075d67c283554dc5c33e3f60c01b612478565b6040517fd92e233d00000000000000000000000000000000000000000000000000000000815260040160405180910390fd5b6107a367a4bcf55e4939c06c60c01b612478565b6107b767c06021e9dc33669260c01b612478565b8060015f6101000a81548173ffffffffffffffffffffffffffffffffffffffff021916908373ffffffffffffffffffffffffffffffffffffffff16021790555050565b61080e67ea269b77b3baf89060c01b612478565b610822675b4c3c69219fca4160c01b612478565b61083667b5075b8d52043d6c60c01b612478565b61084a678088b1fff0be0ce060c01b612478565b60035f9054906101000a900473ffffffffffffffffffffffffffffffffffffffff1673ffffffffffffffffffffffffffffffffffffffff163373ffffffffffffffffffffffffffffffffffffffff16146108e4576108b2672d26fcf5b0670e1160c01b612478565b6040517f32cc723600000000000000000000000000000000000000000000000000000000815260040160405180910390fd5b6108f867e97d8aee9aefe40360c01b612478565b61090c67b4e34a30ccfeceaf60c01b612478565b6109206767d1864f07506e9960c01b612478565b610934671ea771540ea4938f60c01b612478565b61094867f1d8b7d8b2bd9c4b60c01b612478565b61095c67d230deb53d486ced60c01b612478565b5f6109716721fa5bb08c1b052460c01b612478565b61098567f21f3c4cc60bbc5860c01b612478565b600180811115610998576109976136c4565b5b8260018111156109ab576109aa6136c4565b5b036109f3576109c46778bed34ddfeecc8760c01b612478565b6109d8674875a4627ffa0a3c60c01b612478565b6109ec83600961251990919063ffffffff16565b9050610a32565b610a076789235bfb93707f2a60c01b612478565b610a1b6795efa8334752baca60c01b612478565b610a2f83600761251990919063ffffffff16565b90505b610a466740b011dd9871f57a60c01b612478565b610a5a67cf5f4ef1ed35377260c01b612478565b80610aa557610a7367468b465e9d83199360c01b612478565b6040517f2fa1facb00000000000000000000000000000000000000000000000000000000815260040160405180910390fd5b610ab9671edde5546e4d72d960c01b612478565b610acd67319a81a6e3f6ff6e60c01b612478565b610ae16790961655a7e76cd260c01b612478565b8273ffffffffffffffffffffffffffffffffffffffff167fe47da341e0fc63816c1254f1c35425f69460f49342668d11c984ea56762b00d460405160405180910390a2505050565b610b3d6732cda180f203ae7c60c01b612478565b610b45612492565b610b59675f26113aa881a07e60c01b612478565b610b6d67ff2336742cc1770e60c01b612478565b610b8167694cf56bbb044be960c01b612478565b610b95673840b2320938c12660c01b612478565b5f610baa84600561254690919063ffffffff16565b9050610bc067ed39aa58f936239f60c01b612478565b610bd467133dde08e2d3ec3160c01b612478565b80610c1f57610bed672848882d6d78ed9060c01b612478565b6040517fb73e95e100000000000000000000000000000000000000000000000000000000815260040160405180910390fd5b610c33677dad10a5567ab04560c01b612478565b610c4767dbec551f3dd90cc260c01b612478565b610c5b67213e44c631eb9d8f60c01b612478565b60045f9054906101000a900473ffffffffffffffffffffffffffffffffffffffff1673ffffffffffffffffffffffffffffffffffffffff1663ba59b4ca85856040518363ffffffff1660e01b8152600401610cb7929190613711565b5f604051808303815f87803b158015610cce575f5ffd5b505af1158015610ce0573d5f5f3e3d5ffd5b50505050610cf867ab509868379966b960c01b612478565b610d0c67a5cb7a193dd3a63160c01b612478565b60025f9054906101000a900473ffffffffffffffffffffffffffffffffffffffff1673ffffffffffffffffffffffffffffffffffffffff1663ba59b4ca85846040518363ffffffff1660e01b8152600401610d68929190613758565b5f604051808303815f87803b158015610d7f575f5ffd5b505af1158015610d91573d5f5f3e3d5ffd5b50505050610da967626f5ce282ca390760c01b612478565b610dbd6731fc00cc03dfee7660c01b612478565b8373ffffffffffffffffffffffffffffffffffffffff167fdcbd8d9d0373041250f6c25b6b7aeccb3e9ff291e510ef85bb9f8ac09ceb6f6460405160405180910390a250505050565b610e1a6743eae93d247151a260c01b612478565b610e22612492565b610e36679b55dc0143f37a9860c01b612478565b610e4a67b227c45d6b449ebe60c01b612478565b610e5e67e39898ee8a52451c60c01b612478565b610e7267dbe88483e986ae8b60c01b612478565b5f73ffffffffffffffffffffffffffffffffffffffff168173ffffffffffffffffffffffffffffffffffffffff1603610eeb57610eb967fff9ba8debb3ca3760c01b612478565b6040517fd92e233d00000000000000000000000000000000000000000000000000000000815260040160405180910390fd5b610eff6791aeb427b2e36d6660c01b612478565b610f13677f97284052ea1b6060c01b612478565b805f5f6101000a81548173ffffffffffffffffffffffffffffffffffffffff021916908373ffffffffffffffffffffffffffffffffffffffff16021790555050565b60015f9054906101000a900473ffffffffffffffffffffffffffffffffffffffff1681565b60025f9054906101000a900473ffffffffffffffffffffffffffffffffffffffff1681565b5f610fb4679f9043484c16c31d60c01b612478565b610fc86723e6b28ed5199cef60c01b612478565b610fdc673a0c5c4273a4c24060c01b612478565b610ff082600561257390919063ffffffff16565b9050919050565b60045f9054906101000a900473ffffffffffffffffffffffffffffffffffffffff1681565b6110246125a0565b61102d82612686565b61103782826126cd565b5050565b5f6110446127eb565b7f360894a13ba1a3210667c828492db98dca3e2076cc3735a920a3ca505d382bbc5f1b905090565b5f61108167c69a5b3c78abdbc060c01b612478565b61109567aa54bb122383003b60c01b612478565b6110a967c69ef85dbf01894260c01b612478565b6110b36005612872565b905090565b6110c0612492565b6110c95f612885565b565b5f5f9054906101000a900473ffffffffffffffffffffffffffffffffffffffff1681565b5f6110f86128c2565b90508073ffffffffffffffffffffffffffffffffffffffff1661111961214d565b73ffffffffffffffffffffffffffffffffffffffff161461117157806040517f118cdaa700000000000000000000000000000000000000000000000000000000815260040161116891906130cb565b60405180910390fd5b61117a81612885565b50565b61119167865ccd06e8b5764160c01b612478565b6111a5675b4c3c69219fca4160c01b612478565b6111b967b5075b8d52043d6c60c01b612478565b6111cd678088b1fff0be0ce060c01b612478565b60035f9054906101000a900473ffffffffffffffffffffffffffffffffffffffff1673ffffffffffffffffffffffffffffffffffffffff163373ffffffffffffffffffffffffffffffffffffffff161461126757611235672d26fcf5b0670e1160c01b612478565b6040517f32cc723600000000000000000000000000000000000000000000000000000000815260040160405180910390fd5b61127b67e97d8aee9aefe40360c01b612478565b61128f67b4e34a30ccfeceaf60c01b612478565b6112a367498ac04a365ed97460c01b612478565b6112b7670cd5d242d8ab296c60c01b612478565b6112cb6771e86d692e0a42b460c01b612478565b6112df67fc4ddb464387459e60c01b612478565b5f73ffffffffffffffffffffffffffffffffffffffff168273ffffffffffffffffffffffffffffffffffffffff16036113585761132667854776e06efa14d560c01b612478565b6040517fd92e233d00000000000000000000000000000000000000000000000000000000815260040160405180910390fd5b61136c67c4c8fbbcd8d1772b60c01b612478565b61138067bfaecb052ada116a60c01b612478565b61139467d9be916e2553bfc560c01b612478565b5f6113a96770ec664955726f2960c01b612478565b6113bd6757c7c9b915d7214e60c01b612478565b6001808111156113d0576113cf6136c4565b5b8260018111156113e3576113e26136c4565b5b0361142b576113fc67fb7851adad3c6b8460c01b612478565b611410670b5c34b9072e7f5460c01b612478565b61142483600961254690919063ffffffff16565b905061146a565b61143f67aaf326c22133138f60c01b612478565b61145367f4a3041eba0f9f5e60c01b612478565b61146783600761254690919063ffffffff16565b90505b61147e67735785c062a8a61160c01b612478565b61149267bec6cca5e4e39e7d60c01b612478565b806114dd576114ab67e546126b7d59f95960c01b612478565b6040517ff0301ba400000000000000000000000000000000000000000000000000000000815260040160405180910390fd5b6114f16701d317d100d68a4360c01b612478565b61150567ed6bbc2ffe5bde7960c01b612478565b61151967b7441edd83cf07e260c01b612478565b8273ffffffffffffffffffffffffffffffffffffffff167f9a7094a648c0524f3d62b9167886d30be0e68cf53863fe556edda348f189445a60405160405180910390a2505050565b5f5f61156b6128c9565b9050805f015f9054906101000a900473ffffffffffffffffffffffffffffffffffffffff1691505090565b6040518060400160405280600581526020017f352e302e3000000000000000000000000000000000000000000000000000000081525081565b6115e367ae78201f7a7a736660c01b612478565b6115eb612492565b6115ff6759fa40610f693ad560c01b612478565b61161367b5701b0af666261c60c01b612478565b61162767f23633e72ef5294a60c01b612478565b61163b6730ebefd88068a20f60c01b612478565b5f61165082600561251990919063ffffffff16565b905061166667f5174c7a61a699fb60c01b612478565b61167a6779001e59ed1b8c5160c01b612478565b806116d057611693674cf5c1f35c25967b60c01b612478565b816040517fea3bff2e0000000000000000000000000000000000000000000000000000000081526004016116c791906130cb565b60405180910390fd5b6116e467e9bdcdb73694a50a60c01b612478565b6116f8677c691f4baeb7c98960c01b612478565b61170c67246bb36544457bf760c01b612478565b60045f9054906101000a900473ffffffffffffffffffffffffffffffffffffffff1673ffffffffffffffffffffffffffffffffffffffff16632eb2b108836040518263ffffffff1660e01b815260040161176691906130cb565b5f604051808303815f87803b15801561177d575f5ffd5b505af115801561178f573d5f5f3e3d5ffd5b505050506117a76787e4300115ef2e4360c01b612478565b6117bb67fae1e05f84151cb460c01b612478565b60025f9054906101000a900473ffffffffffffffffffffffffffffffffffffffff1673ffffffffffffffffffffffffffffffffffffffff16632eb2b108836040518263ffffffff1660e01b815260040161181591906130cb565b5f604051808303815f87803b15801561182c575f5ffd5b505af115801561183e573d5f5f3e3d5ffd5b50505050611856675aa12fdacca6407760c01b612478565b61186a67c72fc5fd633ffc9360c01b612478565b8173ffffffffffffffffffffffffffffffffffffffff167f952363a786fc6f24cfb955cd6207cf91ecee3a82a7dd0bc26891ff7647b5784c60405160405180910390a25050565b6118c5672d604336cf841b7a60c01b612478565b6118cd612492565b6118e167fc3064608203842d60c01b612478565b6118f567bab2ba174edc706b60c01b612478565b611909674f220e6f88a81e6960c01b612478565b61191d677c89613dc6435bd660c01b612478565b5f73ffffffffffffffffffffffffffffffffffffffff168473ffffffffffffffffffffffffffffffffffffffff16036119965761196467923e76bb0d574bf160c01b612478565b6040517fd92e233d00000000000000000000000000000000000000000000000000000000815260040160405180910390fd5b6119aa67bf09cf361f91e86260c01b612478565b6119be673339e8240d20e28160c01b612478565b6119d267c135171d51d164c660c01b612478565b5f73ffffffffffffffffffffffffffffffffffffffff168273ffffffffffffffffffffffffffffffffffffffff1603611a4b57611a1967e491b61e064b50e560c01b612478565b6040517fd92e233d00000000000000000000000000000000000000000000000000000000815260040160405180910390fd5b611a5f671bfd2dbbff064e3b60c01b612478565b611a73670e121546ac76006160c01b612478565b611a8767d7a7f70c43b2fb5660c01b612478565b5f73ffffffffffffffffffffffffffffffffffffffff168173ffffffffffffffffffffffffffffffffffffffff1603611b0057611ace67f9807206bb6fd21560c01b612478565b6040517fd92e233d00000000000000000000000000000000000000000000000000000000815260040160405180910390fd5b611b1467da1e9e2fdd64205460c01b612478565b611b28670ba2e6e5e99bd88e60c01b612478565b8360025f6101000a81548173ffffffffffffffffffffffffffffffffffffffff021916908373ffffffffffffffffffffffffffffffffffffffff160217905550611b7c676685c7944f4e613c60c01b612478565b82600460146101000a81548160ff021916908360ff160217905550611bab677fae2da2a808810c60c01b612478565b8160035f6101000a81548173ffffffffffffffffffffffffffffffffffffffff021916908373ffffffffffffffffffffffffffffffffffffffff160217905550611bff6786c4f01bab039c7a60c01b612478565b8060045f6101000a81548173ffffffffffffffffffffffffffffffffffffffff021916908373ffffffffffffffffffffffffffffffffffffffff160217905550611c536706bb0dbd070c6a9060c01b612478565b611c6767961530c70438d4e960c01b612478565b7fc56626e36ca25ee9a19c58d2d4f9a4569523b059e6aaeb263573ded93fc33c5a60405160405180910390a150505050565b611cad67ed36df4e86f8536160c01b612478565b5f611cb66128f0565b90505f815f0160089054906101000a900460ff161590505f825f015f9054906101000a900467ffffffffffffffff1690505f5f8267ffffffffffffffff16148015611cfe5750825b90505f60018367ffffffffffffffff16148015611d3157505f3073ffffffffffffffffffffffffffffffffffffffff163b145b905081158015611d3f575080155b15611d76576040517ff92ee8a900000000000000000000000000000000000000000000000000000000815260040160405180910390fd5b6001855f015f6101000a81548167ffffffffffffffff021916908367ffffffffffffffff1602179055508315611dc3576001855f0160086101000a81548160ff0219169083151502179055505b611dd76782e0756618b36b1160c01b612478565b611deb6755ec999957e82a6160c01b612478565b611dff67cec3273f5bc5a1e660c01b612478565b611e13679da56331de0aa3ba60c01b612478565b611e1c86612903565b611e3067ad7e62a29dee83c260c01b612478565b611e4467c81623b25dc22da360c01b612478565b611e4c612917565b611e6067ee3968f5b9e9b6d260c01b612478565b611e7467791195d6cf25da4a60c01b612478565b611e7c612921565b8315611ed6575f855f0160086101000a81548160ff0219169083151502179055507fc7f505b2f371ae2175ee4913f4499e1f2633a7b5936321eed1cdaeb6115181d26001604051611ecd91906137cb565b60405180910390a15b505050505050565b600460149054906101000a900460ff1681565b6060611f0767629fdd408d1fec4760c01b612478565b611f1b671bcf491d600d14cd60c01b612478565b611f2f67873ef2814ce96dfe60c01b612478565b5f611f3a6005612872565b9050611f5067a3e361eff0a1c6bc60c01b612478565b8067ffffffffffffffff811115611f6a57611f69613235565b5b604051908082528060200260200182016040528015611f985781602001602082028036833780820191505090505b509150611faf676f1cf969e9fd23dd60c01b612478565b611fc36713a6aa219ac0181960c01b612478565b5f5f90505b8181101561205057611fe4670421cd037daef68860c01b612478565b611ff881600561247b90919063ffffffff16565b83828151811061200b5761200a6137e4565b5b602002602001019073ffffffffffffffffffffffffffffffffffffffff16908173ffffffffffffffffffffffffffffffffffffffff1681525050806001019050611fc8565b50612065672675f1713dd6a8a560c01b612478565b61207967388ca9a0508656e560c01b612478565b5090565b60035f9054906101000a900473ffffffffffffffffffffffffffffffffffffffff1681565b5f6120b767e79a68185468423960c01b612478565b6120cb6742a0556cfc38529a60c01b612478565b6120df67bdc424b41e6573a060c01b612478565b6120f382600961257390919063ffffffff16565b801561210f575061210e67387a3f9881a254f160c01b61292b565b5b80612146575061212982600761257390919063ffffffff16565b8015612145575061214467304651b18eaf543560c01b61292b565b5b5b9050919050565b5f5f612157612935565b9050805f015f9054906101000a900473ffffffffffffffffffffffffffffffffffffffff1691505090565b606061219867176ae8d3eff90b1b60c01b612478565b6121ac6753616440d6669d3e60c01b612478565b6121c0672511f8ec28c8534560c01b612478565b5f6001808111156121d4576121d36136c4565b5b8360018111156121e7576121e66136c4565b5b14806122035750612202675753b0096d876c2160c01b61295c565b5b801561221f575061221e67996635dedf16ffd160c01b61292b565b5b61222a57600761222d565b60095b905061224367abdfaf87c2eb5c1460c01b612478565b6122576762c3ca91c725004360c01b612478565b5f61226182612872565b90506122776740ea180ebe8721b360c01b612478565b61228b670f9f5f110bda07dd60c01b612478565b5f8167ffffffffffffffff8111156122a6576122a5613235565b5b6040519080825280602002602001820160405280156122d45781602001602082028036833780820191505090505b5090506122eb67c4455054e2358ef860c01b612478565b6122ff6738fc0e2929be734f60c01b612478565b5f5f90505b8281101561238b576123206742e9306b92ceecc660c01b612478565b612333818561247b90919063ffffffff16565b828281518110612346576123456137e4565b5b602002602001019073ffffffffffffffffffffffffffffffffffffffff16908173ffffffffffffffffffffffffffffffffffffffff1681525050806001019050612304565b506123a0671fd63639fc6edaa260c01b612478565b6123b467870993353251bba760c01b612478565b809350505050919050565b6123c7612492565b5f6123d0612935565b905081815f015f6101000a81548173ffffffffffffffffffffffffffffffffffffffff021916908373ffffffffffffffffffffffffffffffffffffffff1602179055508173ffffffffffffffffffffffffffffffffffffffff16612432611561565b73ffffffffffffffffffffffffffffffffffffffff167f38d16b8cac22d99fc7c124b9cd0de2d3fa1faef420bfe791d8c362d765e2270060405160405180910390a35050565b50565b5f612488835f0183612965565b5f1c905092915050565b61249a6128c2565b73ffffffffffffffffffffffffffffffffffffffff166124b8611561565b73ffffffffffffffffffffffffffffffffffffffff1614612517576124db6128c2565b6040517f118cdaa700000000000000000000000000000000000000000000000000000000815260040161250e91906130cb565b60405180910390fd5b565b5f61253e835f018373ffffffffffffffffffffffffffffffffffffffff165f1b61298c565b905092915050565b5f61256b835f018373ffffffffffffffffffffffffffffffffffffffff165f1b612a88565b905092915050565b5f612598835f018373ffffffffffffffffffffffffffffffffffffffff165f1b612aef565b905092915050565b7f000000000000000000000000000000000000000000000000000000000000000073ffffffffffffffffffffffffffffffffffffffff163073ffffffffffffffffffffffffffffffffffffffff16148061264d57507f000000000000000000000000000000000000000000000000000000000000000073ffffffffffffffffffffffffffffffffffffffff16612634612b0f565b73ffffffffffffffffffffffffffffffffffffffff1614155b15612684576040517fe07c8dba00000000000000000000000000000000000000000000000000000000815260040160405180910390fd5b565b61269a67cde89218b0f4bfa160c01b612478565b6126a2612492565b6126b667b7cb89aeecc3a0b160c01b612478565b6126ca67632205258995c2b960c01b612478565b50565b8173ffffffffffffffffffffffffffffffffffffffff166352d1902d6040518163ffffffff1660e01b8152600401602060405180830381865afa92505050801561273557506040513d601f19601f82011682018060405250810190612732919061383b565b60015b61277657816040517f4c9c8ce300000000000000000000000000000000000000000000000000000000815260040161276d91906130cb565b60405180910390fd5b7f360894a13ba1a3210667c828492db98dca3e2076cc3735a920a3ca505d382bbc5f1b81146127dc57806040517faa1d49a40000000000000000000000000000000000000000000000000000000081526004016127d391906133cb565b60405180910390fd5b6127e68383612b62565b505050565b7f000000000000000000000000000000000000000000000000000000000000000073ffffffffffffffffffffffffffffffffffffffff163073ffffffffffffffffffffffffffffffffffffffff1614612870576040517fe07c8dba00000000000000000000000000000000000000000000000000000000815260040160405180910390fd5b565b5f61287e825f01612bd4565b9050919050565b5f61288e612935565b9050805f015f6101000a81549073ffffffffffffffffffffffffffffffffffffffff02191690556128be82612be3565b5050565b5f33905090565b5f7f9016d09d72d40fdae2fd8ceac6b6234c7706214fd39c1cd1e609a0528c199300905090565b5f5f6128fa612cb4565b90508091505090565b61290b612cdd565b61291481612d1d565b50565b61291f612cdd565b565b612929612cdd565b565b5f60019050919050565b5f7f237e158222e3e6968b72b9db0d8043aacf074ad9f650f0d1606b4d82ee432c00905090565b5f5f9050919050565b5f825f01828154811061297b5761297a6137e4565b5b905f5260205f200154905092915050565b5f5f836001015f8481526020019081526020015f205490505f8114612a7d575f6001826129b99190613893565b90505f6001865f01805490506129cf9190613893565b9050808214612a35575f865f0182815481106129ee576129ed6137e4565b5b905f5260205f200154905080875f018481548110612a0f57612a0e6137e4565b5b905f5260205f20018190555083876001015f8381526020019081526020015f2081905550505b855f01805480612a4857612a476138c6565b5b600190038181905f5260205f20015f90559055856001015f8681526020019081526020015f205f905560019350505050612a82565b5f9150505b92915050565b5f612a938383612aef565b612ae557825f0182908060018154018082558091505060019003905f5260205f20015f9091909190915055825f0180549050836001015f8481526020019081526020015f208190555060019050612ae9565b5f90505b92915050565b5f5f836001015f8481526020019081526020015f20541415905092915050565b5f612b3b7f360894a13ba1a3210667c828492db98dca3e2076cc3735a920a3ca505d382bbc5f1b612da1565b5f015f9054906101000a900473ffffffffffffffffffffffffffffffffffffffff16905090565b612b6b82612daa565b8173ffffffffffffffffffffffffffffffffffffffff167fbc7cd75a20ee27fd9adebab32041f755214dbc6bffa90cc0225b39da2e5c2d3b60405160405180910390a25f81511115612bc757612bc18282612e73565b50612bd0565b612bcf612ef3565b5b5050565b5f815f01805490509050919050565b5f612bec6128c9565b90505f815f015f9054906101000a900473ffffffffffffffffffffffffffffffffffffffff16905082825f015f6101000a81548173ffffffffffffffffffffffffffffffffffffffff021916908373ffffffffffffffffffffffffffffffffffffffff1602179055508273ffffffffffffffffffffffffffffffffffffffff168173ffffffffffffffffffffffffffffffffffffffff167f8be0079c531659141344cd1fd0a4f28419497f9722a3daafe3b4186f6b6457e060405160405180910390a3505050565b5f7ff0c57e16840df040f15088dc2f81fe391c3923bec73e23a9662efc9c229c6a005f1b905090565b612ce5612f2f565b612d1b576040517fd7e6bcf800000000000000000000000000000000000000000000000000000000815260040160405180910390fd5b565b612d25612cdd565b5f73ffffffffffffffffffffffffffffffffffffffff168173ffffffffffffffffffffffffffffffffffffffff1603612d95575f6040517f1e4fbdf7000000000000000000000000000000000000000000000000000000008152600401612d8c91906130cb565b60405180910390fd5b612d9e81612885565b50565b5f819050919050565b5f8173ffffffffffffffffffffffffffffffffffffffff163b03612e0557806040517f4c9c8ce3000000000000000000000000000000000000000000000000000000008152600401612dfc91906130cb565b60405180910390fd5b80612e317f360894a13ba1a3210667c828492db98dca3e2076cc3735a920a3ca505d382bbc5f1b612da1565b5f015f6101000a81548173ffffffffffffffffffffffffffffffffffffffff021916908373ffffffffffffffffffffffffffffffffffffffff16021790555050565b60605f5f8473ffffffffffffffffffffffffffffffffffffffff1684604051612e9c9190613937565b5f60405180830381855af49150503d805f8114612ed4576040519150601f19603f3d011682016040523d82523d5f602084013e612ed9565b606091505b5091509150612ee9858383612f4d565b9250505092915050565b5f341115612f2d576040517fb398979f00000000000000000000000000000000000000000000000000000000815260040160405180910390fd5b565b5f612f386128f0565b5f0160089054906101000a900460ff16905090565b606082612f6257612f5d82612fda565b612fd2565b5f8251148015612f8857505f8473ffffffffffffffffffffffffffffffffffffffff163b145b15612fca57836040517f9996b315000000000000000000000000000000000000000000000000000000008152600401612fc191906130cb565b60405180910390fd5b819050612fd3565b5b9392505050565b5f81511115612feb57805160208201fd5b6040517fd6bda27500000000000000000000000000000000000000000000000000000000815260040160405180910390fd5b5f604051905090565b5f5ffd5b5f5ffd5b5f819050919050565b6130408161302e565b811461304a575f5ffd5b50565b5f8135905061305b81613037565b92915050565b5f6020828403121561307657613075613026565b5b5f6130838482850161304d565b91505092915050565b5f73ffffffffffffffffffffffffffffffffffffffff82169050919050565b5f6130b58261308c565b9050919050565b6130c5816130ab565b82525050565b5f6020820190506130de5f8301846130bc565b92915050565b6130ed816130ab565b81146130f7575f5ffd5b50565b5f81359050613108816130e4565b92915050565b5f6020828403121561312357613122613026565b5b5f613130848285016130fa565b91505092915050565b60028110613145575f5ffd5b50565b5f8135905061315681613139565b92915050565b5f5f6040838503121561317257613171613026565b5b5f61317f858286016130fa565b925050602061319085828601613148565b9150509250929050565b5f5f5f606084860312156131b1576131b0613026565b5b5f6131be868287016130fa565b93505060206131cf868287016130fa565b92505060406131e0868287016130fa565b9150509250925092565b5f8115159050919050565b6131fe816131ea565b82525050565b5f6020820190506132175f8301846131f5565b92915050565b5f5ffd5b5f5ffd5b5f601f19601f8301169050919050565b7f4e487b71000000000000000000000000000000000000000000000000000000005f52604160045260245ffd5b61326b82613225565b810181811067ffffffffffffffff8211171561328a57613289613235565b5b80604052505050565b5f61329c61301d565b90506132a88282613262565b919050565b5f67ffffffffffffffff8211156132c7576132c6613235565b5b6132d082613225565b9050602081019050919050565b828183375f83830152505050565b5f6132fd6132f8846132ad565b613293565b90508281526020810184848401111561331957613318613221565b5b6133248482856132dd565b509392505050565b5f82601f8301126133405761333f61321d565b5b81356133508482602086016132eb565b91505092915050565b5f5f6040838503121561336f5761336e613026565b5b5f61337c858286016130fa565b925050602083013567ffffffffffffffff81111561339d5761339c61302a565b5b6133a98582860161332c565b9150509250929050565b5f819050919050565b6133c5816133b3565b82525050565b5f6020820190506133de5f8301846133bc565b92915050565b6133ed8161302e565b82525050565b5f6020820190506134065f8301846133e4565b92915050565b5f819050919050565b5f61342f61342a6134258461308c565b61340c565b61308c565b9050919050565b5f61344082613415565b9050919050565b5f61345182613436565b9050919050565b61346181613447565b82525050565b5f60208201905061347a5f830184613458565b92915050565b5f81519050919050565b5f82825260208201905092915050565b8281835e5f83830152505050565b5f6134b282613480565b6134bc818561348a565b93506134cc81856020860161349a565b6134d581613225565b840191505092915050565b5f6020820190508181035f8301526134f881846134a8565b905092915050565b5f60ff82169050919050565b61351581613500565b811461351f575f5ffd5b50565b5f813590506135308161350c565b92915050565b5f5f5f5f6080858703121561354e5761354d613026565b5b5f61355b878288016130fa565b945050602061356c87828801613522565b935050604061357d878288016130fa565b925050606061358e878288016130fa565b91505092959194509250565b6135a381613500565b82525050565b5f6020820190506135bc5f83018461359a565b92915050565b5f81519050919050565b5f82825260208201905092915050565b5f819050602082019050919050565b6135f4816130ab565b82525050565b5f61360583836135eb565b60208301905092915050565b5f602082019050919050565b5f613627826135c2565b61363181856135cc565b935061363c836135dc565b805f5b8381101561366c57815161365388826135fa565b975061365e83613611565b92505060018101905061363f565b5085935050505092915050565b5f6020820190508181035f830152613691818461361d565b905092915050565b5f602082840312156136ae576136ad613026565b5b5f6136bb84828501613148565b91505092915050565b7f4e487b71000000000000000000000000000000000000000000000000000000005f52602160045260245ffd5b5f6136fb82613436565b9050919050565b61370b816136f1565b82525050565b5f6040820190506137245f8301856130bc565b6137316020830184613702565b9392505050565b5f61374282613436565b9050919050565b61375281613738565b82525050565b5f60408201905061376b5f8301856130bc565b6137786020830184613749565b9392505050565b5f819050919050565b5f67ffffffffffffffff82169050919050565b5f6137b56137b06137ab8461377f565b61340c565b613788565b9050919050565b6137c58161379b565b82525050565b5f6020820190506137de5f8301846137bc565b92915050565b7f4e487b71000000000000000000000000000000000000000000000000000000005f52603260045260245ffd5b61381a816133b3565b8114613824575f5ffd5b50565b5f8151905061383581613811565b92915050565b5f602082840312156138505761384f613026565b5b5f61385d84828501613827565b91505092915050565b7f4e487b71000000000000000000000000000000000000000000000000000000005f52601160045260245ffd5b5f61389d8261302e565b91506138a88361302e565b92508282039050818111156138c0576138bf613866565b5b92915050565b7f4e487b71000000000000000000000000000000000000000000000000000000005f52603160045260245ffd5b5f81519050919050565b5f81905092915050565b5f613911826138f3565b61391b81856138fd565b935061392b81856020860161349a565b80840191505092915050565b5f6139428284613907565b91508190509291505056fea264697066735822122039de8b1a8a9640805dad65836047ec76f4b02f7e9dd9bb9ed8f7f3bcdf97811764736f6c634300081c0033",
  "linkReferences": {},
  "deployedLinkReferences": {}
}