{
  "_format": "hh-sol-artifact-1",
  "contractName": "OrionConfig",
  "sourceName": "contracts/OrionConfig.sol",
  "abi": [
    {
      "inputs": [
        {
          "internalType": "address",
          "name": "initialOwner",
          "type": "address"
        },
        {
          "internalType": "address",
          "name": "underlyingAsset_",
          "type": "address"
        }
      ],
      "stateMutability": "nonpayable",
      "type": "constructor"
    },
    {
      "inputs": [],
      "name": "AlreadyRegistered",
      "type": "error"
    },
    {
      "inputs": [
        {
          "internalType": "address",
          "name": "owner",
          "type": "address"
        }
      ],
      "name": "OwnableInvalidOwner",
      "type": "error"
    },
    {
      "inputs": [
        {
          "internalType": "address",
          "name": "account",
          "type": "address"
        }
      ],
      "name": "OwnableUnauthorizedAccount",
      "type": "error"
    },
    {
      "inputs": [],
      "name": "SystemNotIdle",
      "type": "error"
    },
    {
      "inputs": [
        {
          "internalType": "address",
          "name": "token",
          "type": "address"
        }
      ],
      "name": "TokenNotWhitelisted",
      "type": "error"
    },
    {
      "inputs": [],
      "name": "UnauthorizedAccess",
      "type": "error"
    },
    {
      "inputs": [],
      "name": "ZeroAddress",
      "type": "error"
    },
    {
      "anonymous": false,
      "inputs": [
        {
          "indexed": true,
          "internalType": "address",
          "name": "vault",
          "type": "address"
        }
      ],
      "name": "OrionVaultAdded",
      "type": "event"
    },
    {
      "anonymous": false,
      "inputs": [
        {
          "indexed": true,
          "internalType": "address",
          "name": "vault",
          "type": "address"
        }
      ],
      "name": "OrionVaultRemoved",
      "type": "event"
    },
    {
      "anonymous": false,
      "inputs": [
        {
          "indexed": true,
          "internalType": "address",
          "name": "previousOwner",
          "type": "address"
        },
        {
          "indexed": true,
          "internalType": "address",
          "name": "newOwner",
          "type": "address"
        }
      ],
      "name": "OwnershipTransferred",
      "type": "event"
    },
    {
      "anonymous": false,
      "inputs": [
        {
          "indexed": true,
          "internalType": "uint16",
          "name": "riskFreeRate",
          "type": "uint16"
        }
      ],
      "name": "RiskFreeRateUpdated",
      "type": "event"
    },
    {
      "anonymous": false,
      "inputs": [
        {
          "indexed": true,
          "internalType": "address",
          "name": "asset",
          "type": "address"
        }
      ],
      "name": "WhitelistedAssetAdded",
      "type": "event"
    },
    {
      "anonymous": false,
      "inputs": [
        {
          "indexed": true,
          "internalType": "address",
          "name": "asset",
          "type": "address"
        }
      ],
      "name": "WhitelistedAssetRemoved",
      "type": "event"
    },
    {
      "inputs": [
        {
          "internalType": "address",
          "name": "vault",
          "type": "address"
        },
        {
          "internalType": "enum EventsLib.VaultType",
          "name": "vaultType",
          "type": "uint8"
        }
      ],
      "name": "addOrionVault",
      "outputs": [],
      "stateMutability": "nonpayable",
      "type": "function"
    },
    {
      "inputs": [
        {
          "internalType": "address",
          "name": "asset",
          "type": "address"
        },
        {
          "internalType": "address",
          "name": "priceAdapter",
          "type": "address"
        },
        {
          "internalType": "address",
          "name": "executionAdapter",
          "type": "address"
        }
      ],
      "name": "addWhitelistedAsset",
      "outputs": [],
      "stateMutability": "nonpayable",
      "type": "function"
    },
    {
      "inputs": [],
      "name": "curatorIntentDecimals",
      "outputs": [
        {
          "internalType": "uint8",
          "name": "",
          "type": "uint8"
        }
      ],
      "stateMutability": "view",
      "type": "function"
    },
    {
      "inputs": [],
      "name": "encryptedVaultFactory",
      "outputs": [
        {
          "internalType": "address",
          "name": "",
          "type": "address"
        }
      ],
      "stateMutability": "view",
      "type": "function"
    },
    {
      "inputs": [
        {
          "internalType": "enum EventsLib.VaultType",
          "name": "vaultType",
          "type": "uint8"
        }
      ],
      "name": "getAllOrionVaults",
      "outputs": [
        {
          "internalType": "address[]",
          "name": "",
          "type": "address[]"
        }
      ],
      "stateMutability": "view",
      "type": "function"
    },
    {
      "inputs": [],
      "name": "getAllWhitelistedAssets",
      "outputs": [
        {
          "internalType": "address[]",
          "name": "assets",
          "type": "address[]"
        }
      ],
      "stateMutability": "view",
      "type": "function"
    },
    {
      "inputs": [
        {
          "internalType": "address",
          "name": "token",
          "type": "address"
        }
      ],
      "name": "getTokenDecimals",
      "outputs": [
        {
          "internalType": "uint8",
          "name": "",
          "type": "uint8"
        }
      ],
      "stateMutability": "view",
      "type": "function"
    },
    {
      "inputs": [
        {
          "internalType": "uint16",
          "name": "index",
          "type": "uint16"
        }
      ],
      "name": "getWhitelistedAssetAt",
      "outputs": [
        {
          "internalType": "address",
          "name": "",
          "type": "address"
        }
      ],
      "stateMutability": "view",
      "type": "function"
    },
    {
      "inputs": [],
      "name": "internalStatesOrchestrator",
      "outputs": [
        {
          "internalType": "address",
          "name": "",
          "type": "address"
        }
      ],
      "stateMutability": "view",
      "type": "function"
    },
    {
      "inputs": [
        {
          "internalType": "address",
          "name": "vault",
          "type": "address"
        }
      ],
      "name": "isOrionVault",
      "outputs": [
        {
          "internalType": "bool",
          "name": "",
          "type": "bool"
        }
      ],
      "stateMutability": "view",
      "type": "function"
    },
    {
      "inputs": [],
      "name": "isSystemIdle",
      "outputs": [
        {
          "internalType": "bool",
          "name": "",
          "type": "bool"
        }
      ],
      "stateMutability": "view",
      "type": "function"
    },
    {
      "inputs": [
        {
          "internalType": "address",
          "name": "asset",
          "type": "address"
        }
      ],
      "name": "isWhitelisted",
      "outputs": [
        {
          "internalType": "bool",
          "name": "",
          "type": "bool"
        }
      ],
      "stateMutability": "view",
      "type": "function"
    },
    {
      "inputs": [],
      "name": "liquidityOrchestrator",
      "outputs": [
        {
          "internalType": "address",
          "name": "",
          "type": "address"
        }
      ],
      "stateMutability": "view",
      "type": "function"
    },
    {
      "inputs": [],
      "name": "owner",
      "outputs": [
        {
          "internalType": "address",
          "name": "",
          "type": "address"
        }
      ],
      "stateMutability": "view",
      "type": "function"
    },
    {
      "inputs": [],
      "name": "priceAdapterDecimals",
      "outputs": [
        {
          "internalType": "uint8",
          "name": "",
          "type": "uint8"
        }
      ],
      "stateMutability": "view",
      "type": "function"
    },
    {
      "inputs": [],
      "name": "priceAdapterRegistry",
      "outputs": [
        {
          "internalType": "address",
          "name": "",
          "type": "address"
        }
      ],
      "stateMutability": "view",
      "type": "function"
    },
    {
      "inputs": [
        {
          "internalType": "address",
          "name": "vault",
          "type": "address"
        },
        {
          "internalType": "enum EventsLib.VaultType",
          "name": "vaultType",
          "type": "uint8"
        }
      ],
      "name": "removeOrionVault",
      "outputs": [],
      "stateMutability": "nonpayable",
      "type": "function"
    },
    {
      "inputs": [
        {
          "internalType": "address",
          "name": "asset",
          "type": "address"
        }
      ],
      "name": "removeWhitelistedAsset",
      "outputs": [],
      "stateMutability": "nonpayable",
      "type": "function"
    },
    {
      "inputs": [],
      "name": "renounceOwnership",
      "outputs": [],
      "stateMutability": "nonpayable",
      "type": "function"
    },
    {
      "inputs": [],
      "name": "riskFreeRate",
      "outputs": [
        {
          "internalType": "uint16",
          "name": "",
          "type": "uint16"
        }
      ],
      "stateMutability": "view",
      "type": "function"
    },
    {
      "inputs": [
        {
          "internalType": "address",
          "name": "orchestrator",
          "type": "address"
        }
      ],
      "name": "setInternalStatesOrchestrator",
      "outputs": [],
      "stateMutability": "nonpayable",
      "type": "function"
    },
    {
      "inputs": [
        {
          "internalType": "address",
          "name": "orchestrator",
          "type": "address"
        }
      ],
      "name": "setLiquidityOrchestrator",
      "outputs": [],
      "stateMutability": "nonpayable",
      "type": "function"
    },
    {
      "inputs": [
        {
          "internalType": "address",
          "name": "registry",
          "type": "address"
        }
      ],
      "name": "setPriceAdapterRegistry",
      "outputs": [],
      "stateMutability": "nonpayable",
      "type": "function"
    },
    {
      "inputs": [
        {
          "internalType": "uint16",
          "name": "_riskFreeRate",
          "type": "uint16"
        }
      ],
      "name": "setProtocolRiskFreeRate",
      "outputs": [],
      "stateMutability": "nonpayable",
      "type": "function"
    },
    {
      "inputs": [
        {
          "internalType": "address",
          "name": "transparentFactory",
          "type": "address"
        },
        {
          "internalType": "address",
          "name": "encryptedFactory",
          "type": "address"
        }
      ],
      "name": "setVaultFactories",
      "outputs": [],
      "stateMutability": "nonpayable",
      "type": "function"
    },
    {
      "inputs": [
        {
          "internalType": "address",
          "name": "",
          "type": "address"
        }
      ],
      "name": "tokenDecimals",
      "outputs": [
        {
          "internalType": "uint8",
          "name": "",
          "type": "uint8"
        }
      ],
      "stateMutability": "view",
      "type": "function"
    },
    {
      "inputs": [
        {
          "internalType": "address",
          "name": "newOwner",
          "type": "address"
        }
      ],
      "name": "transferOwnership",
      "outputs": [],
      "stateMutability": "nonpayable",
      "type": "function"
    },
    {
      "inputs": [],
      "name": "transparentVaultFactory",
      "outputs": [
        {
          "internalType": "address",
          "name": "",
          "type": "address"
        }
      ],
      "stateMutability": "view",
      "type": "function"
    },
    {
      "inputs": [],
      "name": "underlyingAsset",
      "outputs": [
        {
          "internalType": "contract IERC20",
          "name": "",
          "type": "address"
        }
      ],
      "stateMutability": "view",
      "type": "function"
    },
    {
      "inputs": [],
      "name": "whitelistedAssetsLength",
      "outputs": [
        {
          "internalType": "uint16",
          "name": "",
          "type": "uint16"
        }
      ],
      "stateMutability": "view",
      "type": "function"
    }
  ],
  "bytecode": "0x608060405234801561000f575f5ffd5b5060405161168b38038061168b83398101604081905261002e9161025f565b816001600160a01b03811661005c57604051631e4fbdf760e01b81525f600482015260240160405180910390fd5b6100658161018c565b506001600160a01b03811661008d5760405163d92e233d60e01b815260040160405180910390fd5b600180546001600160a01b0319166001600160a01b0383169081179091556006805461ffff60a01b1916610e0960a01b1790556040805163313ce56760e01b8152905163313ce567916004808201926020929091908290030181865afa1580156100f9573d5f5f3e3d5ffd5b505050506040513d601f19601f8201168201806040525081019061011d9190610290565b6001600160a01b0382165f908152600960205260409020805460ff191660ff929092169190911790556101516007826101db565b506040516001600160a01b038216907fdcbd8d9d0373041250f6c25b6b7aeccb3e9ff291e510ef85bb9f8ac09ceb6f64905f90a250506102b7565b5f80546001600160a01b038381166001600160a01b0319831681178455604051919092169283917f8be0079c531659141344cd1fd0a4f28419497f9722a3daafe3b4186f6b6457e09190a35050565b5f6101ef836001600160a01b0384166101f8565b90505b92915050565b5f81815260018301602052604081205461023d57508154600181810184555f8481526020808220909301849055845484825282860190935260409020919091556101f2565b505f6101f2565b80516001600160a01b038116811461025a575f5ffd5b919050565b5f5f60408385031215610270575f5ffd5b61027983610244565b915061028760208401610244565b90509250929050565b5f602082840312156102a0575f5ffd5b815160ff811681146102b0575f5ffd5b9392505050565b6113c7806102c45f395ff3fe608060405234801561000f575f5ffd5b5060043610610168575f3560e01c8063015df9931461016c5780630a8b78c7146101955780631dbc3c04146101aa5780632095b01e146101bd57806323a06a1c146101d05780632430dbf3146101e3578063348ec5c8146101f65780633a0dad8e146102095780633af32abf1461021c578063567ba7131461023f5780635f2483681461026557806366e87e7f14610280578063715018a6146102935780637158da7c1461029b578063785c7cf6146102ae5780637a0cb784146102d9578063849ede23146102ec5780638da5cb5b146102ff5780638ee573ac1461030757806391a848f314610329578063a51b8d5a1461033c578063b6dfcd8b1461034f578063c30dd72714610362578063d1717c7d14610375578063d86cd44e14610389578063e0876b441461039e578063ed04f218146103b1578063edcf9c1f146103c4578063f2fde38b146103cc578063f3cc6993146103df575b5f5ffd5b60065461017f906001600160a01b031681565b60405161018c9190611138565b60405180910390f35b6101a86101a3366004611167565b6103f4565b005b6101a86101b836600461118e565b61046f565b6101a86101cb366004611167565b61052c565b6101a86101de3660046111bf565b6105a7565b61017f6101f13660046111ff565b61077a565b60025461017f906001600160a01b031681565b60035461017f906001600160a01b031681565b61022f61022a366004611167565b610790565b604051901515815260200161018c565b60065461025390600160a81b900460ff1681565b60405160ff909116815260200161018c565b61026d61079c565b60405161ffff909116815260200161018c565b6101a861028e3660046111ff565b6107ac565b6101a8610829565b60015461017f906001600160a01b031681565b6102536102bc366004611167565b6001600160a01b03165f9081526009602052604090205460ff1690565b6101a86102e736600461118e565b61083c565b60045461017f906001600160a01b031681565b61017f610937565b610253610315366004611167565b60096020525f908152604090205460ff1681565b60055461017f906001600160a01b031681565b6101a861034a366004611220565b610945565b6101a861035d366004611167565b610a2f565b6101a8610370366004611167565b610b84565b60065461025390600160a01b900460ff1681565b610391610bff565b60405161018c9190611248565b61022f6103ac366004611167565b610cb2565b6103916103bf366004611293565b610ccf565b61022f610dab565b6101a86103da366004611167565b610ebc565b60065461026d90600160b01b900461ffff1681565b6103fc610ef9565b6001600160a01b0381166104235760405163d92e233d60e01b815260040160405180910390fd5b6002546001600160a01b03161561044d57604051630ea075bf60e21b815260040160405180910390fd5b600280546001600160a01b0319166001600160a01b0392909216919091179055565b610477610ef9565b61047f610dab565b61049c576040516312aecd8160e01b815260040160405180910390fd5b5f60018260018111156104b1576104b16112ac565b036104c8576104c1600c84610f2b565b90506104d6565b6104d3600a84610f2b565b90505b806104f457604051631a27eac360e11b815260040160405180910390fd5b6040516001600160a01b038416907fe47da341e0fc63816c1254f1c35425f69460f49342668d11c984ea56762b00d4905f90a2505050565b610534610ef9565b6001600160a01b03811661055b5760405163d92e233d60e01b815260040160405180910390fd5b6006546001600160a01b03161561058557604051630ea075bf60e21b815260040160405180910390fd5b600680546001600160a01b0319166001600160a01b0392909216919091179055565b6105af610ef9565b6105b7610dab565b6105d4576040516312aecd8160e01b815260040160405180910390fd5b5f6105e0600785610f46565b90508061060057604051630ea075bf60e21b815260040160405180910390fd5b836001600160a01b031663313ce5676040518163ffffffff1660e01b8152600401602060405180830381865afa15801561063c573d5f5f3e3d5ffd5b505050506040513d601f19601f8201168201806040525081019061066091906112c0565b6001600160a01b038581165f9081526009602052604090819020805460ff191660ff949094169390931790925560065491516302707eef60e51b8152911690634e0fdde0906106b590879087906004016112e0565b5f604051808303815f87803b1580156106cc575f5ffd5b505af11580156106de573d5f5f3e3d5ffd5b50506003546040516359017aa960e01b81526001600160a01b0390911692506359017aa9915061071490879086906004016112e0565b5f604051808303815f87803b15801561072b575f5ffd5b505af115801561073d573d5f5f3e3d5ffd5b50506040516001600160a01b03871692507fdcbd8d9d0373041250f6c25b6b7aeccb3e9ff291e510ef85bb9f8ac09ceb6f6491505f90a250505050565b5f61078a600761ffff8416610f5a565b92915050565b5f61078a600783610f65565b5f6107a76007610f79565b905090565b6107b4610ef9565b6107bc610dab565b6107d9576040516312aecd8160e01b815260040160405180910390fd5b6006805461ffff60b01b1916600160b01b61ffff84811682029290921792839055604051920416907f6c0e50288cc602be5dd504ce35358e01341e3c4f93e2e02b5a030a59bfdb84e2905f90a250565b610831610ef9565b61083a5f610f82565b565b6004546001600160a01b0316331480159061086257506005546001600160a01b03163314155b1561088057604051631a27eac360e11b815260040160405180910390fd5b6001600160a01b0382166108a75760405163d92e233d60e01b815260040160405180910390fd5b5f60018260018111156108bc576108bc6112ac565b036108d3576108cc600c84610f46565b90506108e1565b6108de600a84610f46565b90505b806108ff57604051630ea075bf60e21b815260040160405180910390fd5b6040516001600160a01b038416907f9a7094a648c0524f3d62b9167886d30be0e68cf53863fe556edda348f189445a905f90a2505050565b5f546001600160a01b031690565b61094d610ef9565b610955610dab565b610972576040516312aecd8160e01b815260040160405180910390fd5b6001600160a01b0382166109995760405163d92e233d60e01b815260040160405180910390fd5b6001600160a01b0381166109c05760405163d92e233d60e01b815260040160405180910390fd5b6004546001600160a01b03161515806109e357506005546001600160a01b031615155b15610a0157604051630ea075bf60e21b815260040160405180910390fd5b600480546001600160a01b039384166001600160a01b03199182161790915560058054929093169116179055565b610a37610ef9565b610a3f610dab565b610a5c576040516312aecd8160e01b815260040160405180910390fd5b5f610a68600783610f2b565b905080610a93578160405163751dff9760e11b8152600401610a8a9190611138565b60405180910390fd5b600654604051634386017560e01b81526001600160a01b0390911690634386017590610ac3908590600401611138565b5f604051808303815f87803b158015610ada575f5ffd5b505af1158015610aec573d5f5f3e3d5ffd5b505060035460405163841181ef60e01b81526001600160a01b03909116925063841181ef9150610b20908590600401611138565b5f604051808303815f87803b158015610b37575f5ffd5b505af1158015610b49573d5f5f3e3d5ffd5b50506040516001600160a01b03851692507f952363a786fc6f24cfb955cd6207cf91ecee3a82a7dd0bc26891ff7647b5784c91505f90a25050565b610b8c610ef9565b6001600160a01b038116610bb35760405163d92e233d60e01b815260040160405180910390fd5b6003546001600160a01b031615610bdd57604051630ea075bf60e21b815260040160405180910390fd5b600380546001600160a01b0319166001600160a01b0392909216919091179055565b60605f610c0c6007610f79565b90508061ffff166001600160401b03811115610c2a57610c2a6112fa565b604051908082528060200260200182016040528015610c53578160200160208202803683370190505b5091505f5b8161ffff168161ffff161015610cad57610c77600761ffff8316610f5a565b838261ffff1681518110610c8d57610c8d61130e565b6001600160a01b0390921660209283029190910190910152600101610c58565b505090565b5f610cbe600c83610f65565b8061078a575061078a600a83610f65565b60605f6001836001811115610ce657610ce66112ac565b14610cf257600a610cf5565b600c5b90505f610d0182610f79565b90505f8161ffff166001600160401b03811115610d2057610d206112fa565b604051908082528060200260200182016040528015610d49578160200160208202803683370190505b5090505f5b8261ffff168161ffff161015610da257610d6c8461ffff8316610f5a565b828261ffff1681518110610d8257610d8261130e565b6001600160a01b0390921660209283029190910190910152600101610d4e565b50949350505050565b5f8060035f9054906101000a90046001600160a01b03166001600160a01b031663055ad42e6040518163ffffffff1660e01b8152600401602060405180830381865afa158015610dfd573d5f5f3e3d5ffd5b505050506040513d601f19601f82011682018060405250810190610e219190611322565b6003811115610e3257610e326112ac565b1480156107a75750600254604080516302ad6a1760e11b815290515f926001600160a01b03169163055ad42e9160048083019260209291908290030181865afa158015610e81573d5f5f3e3d5ffd5b505050506040513d601f19601f82011682018060405250810190610ea59190611340565b6007811115610eb657610eb66112ac565b14905090565b610ec4610ef9565b6001600160a01b038116610eed575f604051631e4fbdf760e01b8152600401610a8a9190611138565b610ef681610f82565b50565b33610f02610937565b6001600160a01b03161461083a573360405163118cdaa760e01b8152600401610a8a9190611138565b5f610f3f836001600160a01b038416610fd1565b9392505050565b5f610f3f836001600160a01b0384166110b4565b5f610f3f83836110fb565b5f610f3f836001600160a01b038416611121565b5f61078a825490565b5f80546001600160a01b038381166001600160a01b0319831681178455604051919092169283917f8be0079c531659141344cd1fd0a4f28419497f9722a3daafe3b4186f6b6457e09190a35050565b5f81815260018301602052604081205480156110ab575f610ff360018361135e565b85549091505f906110069060019061135e565b9050808214611065575f865f0182815481106110245761102461130e565b905f5260205f200154905080875f0184815481106110445761104461130e565b5f918252602080832090910192909255918252600188019052604090208390555b85548690806110765761107661137d565b600190038181905f5260205f20015f90559055856001015f8681526020019081526020015f205f90556001935050505061078a565b5f91505061078a565b5f6110bf8383611121565b6110f457508154600181810184555f84815260208082209093018490558454848252828601909352604090209190915561078a565b505f61078a565b5f825f0182815481106111105761111061130e565b905f5260205f200154905092915050565b5f9081526001919091016020526040902054151590565b6001600160a01b0391909116815260200190565b80356001600160a01b0381168114611162575f5ffd5b919050565b5f60208284031215611177575f5ffd5b610f3f8261114c565b803560028110611162575f5ffd5b5f5f6040838503121561119f575f5ffd5b6111a88361114c565b91506111b660208401611180565b90509250929050565b5f5f5f606084860312156111d1575f5ffd5b6111da8461114c565b92506111e86020850161114c565b91506111f66040850161114c565b90509250925092565b5f6020828403121561120f575f5ffd5b813561ffff81168114610f3f575f5ffd5b5f5f60408385031215611231575f5ffd5b61123a8361114c565b91506111b66020840161114c565b602080825282518282018190525f918401906040840190835b818110156112885783516001600160a01b0316835260209384019390920191600101611261565b509095945050505050565b5f602082840312156112a3575f5ffd5b610f3f82611180565b634e487b7160e01b5f52602160045260245ffd5b5f602082840312156112d0575f5ffd5b815160ff81168114610f3f575f5ffd5b6001600160a01b0392831681529116602082015260400190565b634e487b7160e01b5f52604160045260245ffd5b634e487b7160e01b5f52603260045260245ffd5b5f60208284031215611332575f5ffd5b815160048110610f3f575f5ffd5b5f60208284031215611350575f5ffd5b815160088110610f3f575f5ffd5b8181038181111561078a57634e487b7160e01b5f52601160045260245ffd5b634e487b7160e01b5f52603160045260245ffdfea2646970667358221220b7a374f58f72dc61494f3f42e66592e9078579a1705c8a6807194edc32d4b68d64736f6c634300081c0033",
  "linkReferences": {},
  "deployedLinkReferences": {}
}