{
  "_format": "hh-sol-artifact-1",
  "contractName": "OrionConfig",
  "sourceName": "contracts/OrionConfig.sol",
  "abi": [
    {
      "inputs": [
        {
          "internalType": "address",
          "name": "target",
          "type": "address"
        }
      ],
      "name": "AddressEmptyCode",
      "type": "error"
    },
    {
      "inputs": [],
      "name": "AlreadyAnOrionVault",
      "type": "error"
    },
    {
      "inputs": [],
      "name": "AlreadyWhitelisted",
      "type": "error"
    },
    {
      "inputs": [
        {
          "internalType": "address",
          "name": "implementation",
          "type": "address"
        }
      ],
      "name": "ERC1967InvalidImplementation",
      "type": "error"
    },
    {
      "inputs": [],
      "name": "ERC1967NonPayable",
      "type": "error"
    },
    {
      "inputs": [],
      "name": "FailedCall",
      "type": "error"
    },
    {
      "inputs": [],
      "name": "InvalidAsset",
      "type": "error"
    },
    {
      "inputs": [],
      "name": "InvalidInitialization",
      "type": "error"
    },
    {
      "inputs": [],
      "name": "InvalidInternalOrchestrator",
      "type": "error"
    },
    {
      "inputs": [],
      "name": "InvalidLiquidityOrchestrator",
      "type": "error"
    },
    {
      "inputs": [],
      "name": "InvalidMarketOracle",
      "type": "error"
    },
    {
      "inputs": [],
      "name": "NotAnOrionVault",
      "type": "error"
    },
    {
      "inputs": [],
      "name": "NotFactory",
      "type": "error"
    },
    {
      "inputs": [],
      "name": "NotInWhitelist",
      "type": "error"
    },
    {
      "inputs": [],
      "name": "NotInitializing",
      "type": "error"
    },
    {
      "inputs": [
        {
          "internalType": "address",
          "name": "owner",
          "type": "address"
        }
      ],
      "name": "OwnableInvalidOwner",
      "type": "error"
    },
    {
      "inputs": [
        {
          "internalType": "address",
          "name": "account",
          "type": "address"
        }
      ],
      "name": "OwnableUnauthorizedAccount",
      "type": "error"
    },
    {
      "inputs": [],
      "name": "UUPSUnauthorizedCallContext",
      "type": "error"
    },
    {
      "inputs": [
        {
          "internalType": "bytes32",
          "name": "slot",
          "type": "bytes32"
        }
      ],
      "name": "UUPSUnsupportedProxiableUUID",
      "type": "error"
    },
    {
      "inputs": [],
      "name": "ZeroAddress",
      "type": "error"
    },
    {
      "anonymous": false,
      "inputs": [
        {
          "indexed": false,
          "internalType": "uint64",
          "name": "version",
          "type": "uint64"
        }
      ],
      "name": "Initialized",
      "type": "event"
    },
    {
      "anonymous": false,
      "inputs": [
        {
          "indexed": true,
          "internalType": "address",
          "name": "vault",
          "type": "address"
        }
      ],
      "name": "OrionVaultAdded",
      "type": "event"
    },
    {
      "anonymous": false,
      "inputs": [
        {
          "indexed": true,
          "internalType": "address",
          "name": "vault",
          "type": "address"
        }
      ],
      "name": "OrionVaultRemoved",
      "type": "event"
    },
    {
      "anonymous": false,
      "inputs": [
        {
          "indexed": true,
          "internalType": "address",
          "name": "previousOwner",
          "type": "address"
        },
        {
          "indexed": true,
          "internalType": "address",
          "name": "newOwner",
          "type": "address"
        }
      ],
      "name": "OwnershipTransferStarted",
      "type": "event"
    },
    {
      "anonymous": false,
      "inputs": [
        {
          "indexed": true,
          "internalType": "address",
          "name": "previousOwner",
          "type": "address"
        },
        {
          "indexed": true,
          "internalType": "address",
          "name": "newOwner",
          "type": "address"
        }
      ],
      "name": "OwnershipTransferred",
      "type": "event"
    },
    {
      "anonymous": false,
      "inputs": [
        {
          "indexed": false,
          "internalType": "address",
          "name": "underlyingAsset",
          "type": "address"
        },
        {
          "indexed": false,
          "internalType": "address",
          "name": "internalStatesOrchestrator",
          "type": "address"
        },
        {
          "indexed": false,
          "internalType": "address",
          "name": "liquidityOrchestrator",
          "type": "address"
        },
        {
          "indexed": false,
          "internalType": "contract IMarketOracle",
          "name": "marketOracle",
          "type": "address"
        },
        {
          "indexed": false,
          "internalType": "uint256",
          "name": "curatorIntentDecimals",
          "type": "uint256"
        },
        {
          "indexed": false,
          "internalType": "string",
          "name": "fhePublicCID",
          "type": "string"
        },
        {
          "indexed": false,
          "internalType": "address",
          "name": "factory",
          "type": "address"
        }
      ],
      "name": "ProtocolParamsUpdated",
      "type": "event"
    },
    {
      "anonymous": false,
      "inputs": [
        {
          "indexed": false,
          "internalType": "string",
          "name": "newCID",
          "type": "string"
        }
      ],
      "name": "PublicCIDUpdated",
      "type": "event"
    },
    {
      "anonymous": false,
      "inputs": [
        {
          "indexed": true,
          "internalType": "address",
          "name": "implementation",
          "type": "address"
        }
      ],
      "name": "Upgraded",
      "type": "event"
    },
    {
      "anonymous": false,
      "inputs": [
        {
          "indexed": true,
          "internalType": "address",
          "name": "asset",
          "type": "address"
        }
      ],
      "name": "WhitelistedAssetAdded",
      "type": "event"
    },
    {
      "anonymous": false,
      "inputs": [
        {
          "indexed": true,
          "internalType": "address",
          "name": "asset",
          "type": "address"
        }
      ],
      "name": "WhitelistedAssetRemoved",
      "type": "event"
    },
    {
      "inputs": [],
      "name": "UPGRADE_INTERFACE_VERSION",
      "outputs": [
        {
          "internalType": "string",
          "name": "",
          "type": "string"
        }
      ],
      "stateMutability": "view",
      "type": "function"
    },
    {
      "inputs": [],
      "name": "acceptOwnership",
      "outputs": [],
      "stateMutability": "nonpayable",
      "type": "function"
    },
    {
      "inputs": [
        {
          "internalType": "address",
          "name": "vault",
          "type": "address"
        }
      ],
      "name": "addOrionVault",
      "outputs": [],
      "stateMutability": "nonpayable",
      "type": "function"
    },
    {
      "inputs": [
        {
          "internalType": "address",
          "name": "asset",
          "type": "address"
        }
      ],
      "name": "addWhitelistedAsset",
      "outputs": [],
      "stateMutability": "nonpayable",
      "type": "function"
    },
    {
      "inputs": [],
      "name": "curatorIntentDecimals",
      "outputs": [
        {
          "internalType": "uint8",
          "name": "",
          "type": "uint8"
        }
      ],
      "stateMutability": "view",
      "type": "function"
    },
    {
      "inputs": [],
      "name": "fhePublicCID",
      "outputs": [
        {
          "internalType": "string",
          "name": "",
          "type": "string"
        }
      ],
      "stateMutability": "view",
      "type": "function"
    },
    {
      "inputs": [
        {
          "internalType": "uint256",
          "name": "index",
          "type": "uint256"
        }
      ],
      "name": "getOrionVaultAt",
      "outputs": [
        {
          "internalType": "address",
          "name": "",
          "type": "address"
        }
      ],
      "stateMutability": "view",
      "type": "function"
    },
    {
      "inputs": [
        {
          "internalType": "uint256",
          "name": "index",
          "type": "uint256"
        }
      ],
      "name": "getWhitelistedAssetAt",
      "outputs": [
        {
          "internalType": "address",
          "name": "",
          "type": "address"
        }
      ],
      "stateMutability": "view",
      "type": "function"
    },
    {
      "inputs": [
        {
          "internalType": "address",
          "name": "initialOwner",
          "type": "address"
        }
      ],
      "name": "initialize",
      "outputs": [],
      "stateMutability": "nonpayable",
      "type": "function"
    },
    {
      "inputs": [],
      "name": "internalStatesOrchestrator",
      "outputs": [
        {
          "internalType": "address",
          "name": "",
          "type": "address"
        }
      ],
      "stateMutability": "view",
      "type": "function"
    },
    {
      "inputs": [
        {
          "internalType": "address",
          "name": "asset",
          "type": "address"
        }
      ],
      "name": "isWhitelisted",
      "outputs": [
        {
          "internalType": "bool",
          "name": "",
          "type": "bool"
        }
      ],
      "stateMutability": "view",
      "type": "function"
    },
    {
      "inputs": [],
      "name": "liquidityOrchestrator",
      "outputs": [
        {
          "internalType": "address",
          "name": "",
          "type": "address"
        }
      ],
      "stateMutability": "view",
      "type": "function"
    },
    {
      "inputs": [],
      "name": "marketOracle",
      "outputs": [
        {
          "internalType": "contract IMarketOracle",
          "name": "",
          "type": "address"
        }
      ],
      "stateMutability": "view",
      "type": "function"
    },
    {
      "inputs": [],
      "name": "orionVaultsLength",
      "outputs": [
        {
          "internalType": "uint256",
          "name": "",
          "type": "uint256"
        }
      ],
      "stateMutability": "view",
      "type": "function"
    },
    {
      "inputs": [],
      "name": "owner",
      "outputs": [
        {
          "internalType": "address",
          "name": "",
          "type": "address"
        }
      ],
      "stateMutability": "view",
      "type": "function"
    },
    {
      "inputs": [],
      "name": "pendingOwner",
      "outputs": [
        {
          "internalType": "address",
          "name": "",
          "type": "address"
        }
      ],
      "stateMutability": "view",
      "type": "function"
    },
    {
      "inputs": [],
      "name": "proxiableUUID",
      "outputs": [
        {
          "internalType": "bytes32",
          "name": "",
          "type": "bytes32"
        }
      ],
      "stateMutability": "view",
      "type": "function"
    },
    {
      "inputs": [
        {
          "internalType": "address",
          "name": "vault",
          "type": "address"
        }
      ],
      "name": "removeOrionVault",
      "outputs": [],
      "stateMutability": "nonpayable",
      "type": "function"
    },
    {
      "inputs": [
        {
          "internalType": "address",
          "name": "asset",
          "type": "address"
        }
      ],
      "name": "removeWhitelistedAsset",
      "outputs": [],
      "stateMutability": "nonpayable",
      "type": "function"
    },
    {
      "inputs": [],
      "name": "renounceOwnership",
      "outputs": [],
      "stateMutability": "nonpayable",
      "type": "function"
    },
    {
      "inputs": [
        {
          "internalType": "address",
          "name": "_underlyingAsset",
          "type": "address"
        },
        {
          "internalType": "address",
          "name": "_internalStatesOrchestrator",
          "type": "address"
        },
        {
          "internalType": "address",
          "name": "_liquidityOrchestrator",
          "type": "address"
        },
        {
          "internalType": "contract IMarketOracle",
          "name": "_marketOracle",
          "type": "address"
        },
        {
          "internalType": "uint8",
          "name": "_curatorIntentDecimals",
          "type": "uint8"
        },
        {
          "internalType": "string",
          "name": "_fhePublicCID",
          "type": "string"
        },
        {
          "internalType": "address",
          "name": "_factory",
          "type": "address"
        }
      ],
      "name": "setProtocolParams",
      "outputs": [],
      "stateMutability": "nonpayable",
      "type": "function"
    },
    {
      "inputs": [
        {
          "internalType": "address",
          "name": "newOwner",
          "type": "address"
        }
      ],
      "name": "transferOwnership",
      "outputs": [],
      "stateMutability": "nonpayable",
      "type": "function"
    },
    {
      "inputs": [],
      "name": "underlyingAsset",
      "outputs": [
        {
          "internalType": "contract IERC20",
          "name": "",
          "type": "address"
        }
      ],
      "stateMutability": "view",
      "type": "function"
    },
    {
      "inputs": [
        {
          "internalType": "string",
          "name": "newCID",
          "type": "string"
        }
      ],
      "name": "updateFhePublicCID",
      "outputs": [],
      "stateMutability": "nonpayable",
      "type": "function"
    },
    {
      "inputs": [
        {
          "internalType": "address",
          "name": "newImplementation",
          "type": "address"
        },
        {
          "internalType": "bytes",
          "name": "data",
          "type": "bytes"
        }
      ],
      "name": "upgradeToAndCall",
      "outputs": [],
      "stateMutability": "payable",
      "type": "function"
    },
    {
      "inputs": [],
      "name": "vaultFactory",
      "outputs": [
        {
          "internalType": "address",
          "name": "",
          "type": "address"
        }
      ],
      "stateMutability": "view",
      "type": "function"
    },
    {
      "inputs": [],
      "name": "whitelistedAssetsLength",
      "outputs": [
        {
          "internalType": "uint256",
          "name": "",
          "type": "uint256"
        }
      ],
      "stateMutability": "view",
      "type": "function"
    }
  ],
  "bytecode": "0x60a06040523073ffffffffffffffffffffffffffffffffffffffff1660809073ffffffffffffffffffffffffffffffffffffffff168152503480156041575f80fd5b5060805161341c6100685f395f8181611ca901528181611cfe0152611ef4015261341c5ff3fe60806040526004361061019b575f3560e01c8063862a5f06116100eb578063bfba8f6611610089578063d8a06f7311610063578063d8a06f7314610559578063e30c397814610583578063eb1a5bb9146105ad578063f2fde38b146105d55761019b565b8063bfba8f66146104df578063c4d66de814610507578063d1717c7d1461052f5761019b565b8063aa360c16116100c5578063aa360c1614610439578063ab6ca91014610463578063ad3cb1cc1461048d578063b6dfcd8b146104b75761019b565b8063862a5f06146103bf5780638da5cb5b146103e7578063a87dd6d9146104115761019b565b806352d1902d11610158578063715018a611610132578063715018a6146103415780637158da7c14610357578063752620421461038157806379ba5097146103a95761019b565b806352d1902d146102c35780635f248368146102ed57806360961528146103175761019b565b80630740f2ac1461019f5780630a567a2d146101db578063348ec5c8146102175780633a0dad8e146102415780633af32abf1461026b5780634f1ef286146102a7575b5f80fd5b3480156101aa575f80fd5b506101c560048036038101906101c09190612837565b6105fd565b6040516101d291906128a1565b60405180910390f35b3480156101e6575f80fd5b5061020160048036038101906101fc9190612837565b610655565b60405161020e91906128a1565b60405180910390f35b348015610222575f80fd5b5061022b6106ad565b60405161023891906128a1565b60405180910390f35b34801561024c575f80fd5b506102556106d2565b60405161026291906128a1565b60405180910390f35b348015610276575f80fd5b50610291600480360381019061028c91906128e4565b6106f7565b60405161029e9190612929565b60405180910390f35b6102c160048036038101906102bc9190612a7e565b61074f565b005b3480156102ce575f80fd5b506102d761076e565b6040516102e49190612af0565b60405180910390f35b3480156102f8575f80fd5b5061030161079f565b60405161030e9190612b18565b60405180910390f35b348015610322575f80fd5b5061032b6107eb565b6040516103389190612b8c565b60405180910390f35b34801561034c575f80fd5b50610355610810565b005b348015610362575f80fd5b5061036b610823565b6040516103789190612bc5565b60405180910390f35b34801561038c575f80fd5b506103a760048036038101906103a29190612c3b565b610846565b005b3480156103b4575f80fd5b506103bd610915565b005b3480156103ca575f80fd5b506103e560048036038101906103e091906128e4565b6109a3565b005b3480156103f2575f80fd5b506103fb610c12565b60405161040891906128a1565b60405180910390f35b34801561041c575f80fd5b5061043760048036038101906104329190612cf7565b610c47565b005b348015610444575f80fd5b5061044d611283565b60405161045a9190612b18565b60405180910390f35b34801561046e575f80fd5b506104776112cf565b6040516104849190612e14565b60405180910390f35b348015610498575f80fd5b506104a161135b565b6040516104ae9190612e14565b60405180910390f35b3480156104c2575f80fd5b506104dd60048036038101906104d891906128e4565b611394565b005b3480156104ea575f80fd5b50610505600480360381019061050091906128e4565b61150d565b005b348015610512575f80fd5b5061052d600480360381019061052891906128e4565b611686565b005b34801561053a575f80fd5b506105436118cb565b6040516105509190612e43565b60405180910390f35b348015610564575f80fd5b5061056d6118de565b60405161057a91906128a1565b60405180910390f35b34801561058e575f80fd5b50610597611903565b6040516105a491906128a1565b60405180910390f35b3480156105b8575f80fd5b506105d360048036038101906105ce91906128e4565b611938565b005b3480156105e0575f80fd5b506105fb60048036038101906105f691906128e4565b611ba7565b005b5f61061267abea7f1e4269e79860c01b611c60565b610626678d4aa1b1f9b76f5760c01b611c60565b61063a67c43529638f41691960c01b611c60565b61064e826008611c6390919063ffffffff16565b9050919050565b5f61066a6721f76acb54f6020e60c01b611c60565b61067e675f32242879a8d9ff60c01b611c60565b61069267b0dce89ec323b72e60c01b611c60565b6106a6826006611c6390919063ffffffff16565b9050919050565b60015f9054906101000a900473ffffffffffffffffffffffffffffffffffffffff1681565b60025f9054906101000a900473ffffffffffffffffffffffffffffffffffffffff1681565b5f61070c673b6677f6704f1a5760c01b611c60565b61072067b81e17403e3f54d860c01b611c60565b610734678bb097c89cf86cae60c01b611c60565b610748826006611c7a90919063ffffffff16565b9050919050565b610757611ca7565b61076082611d8d565b61076a8282611dd4565b5050565b5f610777611ef2565b7f360894a13ba1a3210667c828492db98dca3e2076cc3735a920a3ca505d382bbc5f1b905090565b5f6107b4673a2cb309b63faf1c60c01b611c60565b6107c867adb70fde7828076b60c01b611c60565b6107dc67879316deb797c69760c01b611c60565b6107e66006611f79565b905090565b60035f9054906101000a900473ffffffffffffffffffffffffffffffffffffffff1681565b610818611f8c565b6108215f612013565b565b5f8054906101000a900473ffffffffffffffffffffffffffffffffffffffff1681565b61085a67428e4478036c83ae60c01b611c60565b610862611f8c565b61087667a3122d3797f90b9360c01b611c60565b61088a671ad10c1addc2d59c60c01b611c60565b61089e67cd8bdfc8f743868a60c01b611c60565b8181600591826108af929190613057565b506108c4673c3d7199e7bb6ad360c01b611c60565b6108d867cffe050763a9554460c01b611c60565b7fd2be23666710f4d83b0ae1641d087fb8ba2a04ddf1581071c2fd2e9eeee57aa58282604051610909929190613150565b60405180910390a15050565b5f61091e612050565b90508073ffffffffffffffffffffffffffffffffffffffff1661093f611903565b73ffffffffffffffffffffffffffffffffffffffff161461099757806040517f118cdaa700000000000000000000000000000000000000000000000000000000815260040161098e91906128a1565b60405180910390fd5b6109a081612013565b50565b6109b767275cc15ba902bb6460c01b611c60565b6109cb67819e0f39976c9aa260c01b611c60565b6109df67aef89dd1ee518af760c01b611c60565b6109f3672ad180cf828fc50b60c01b611c60565b60045f9054906101000a900473ffffffffffffffffffffffffffffffffffffffff1673ffffffffffffffffffffffffffffffffffffffff163373ffffffffffffffffffffffffffffffffffffffff1614610a8d57610a5b67cfcd1422f1c74ad860c01b611c60565b6040517f32cc723600000000000000000000000000000000000000000000000000000000815260040160405180910390fd5b610aa167b30955a6a8c0d37a60c01b611c60565b610ab567ea3ad5af007487f560c01b611c60565b610ac9670acd7a75f0c7dd8960c01b611c60565b610add6741afa106c7cae1d160c01b611c60565b610af1674d8376219a14e29b60c01b611c60565b610b0567dfd98f7cf98c588b60c01b611c60565b5f610b1a82600861205790919063ffffffff16565b9050610b30675e2ce86d7e1391aa60c01b611c60565b610b4467c8fbfa6d910563bd60c01b611c60565b80610b8f57610b5d671b0220299039ac6c60c01b611c60565b6040517f2fa1facb00000000000000000000000000000000000000000000000000000000815260040160405180910390fd5b610ba3674fdf554f376fc8d360c01b611c60565b610bb767d67615daa679afbd60c01b611c60565b610bcb67a70e669426c4f53460c01b611c60565b8173ffffffffffffffffffffffffffffffffffffffff167fe47da341e0fc63816c1254f1c35425f69460f49342668d11c984ea56762b00d460405160405180910390a25050565b5f80610c1c612084565b9050805f015f9054906101000a900473ffffffffffffffffffffffffffffffffffffffff1691505090565b610c5b67251323cff2e15a0760c01b611c60565b610c63611f8c565b610c7767d72c6aab6a06e57060c01b611c60565b610c8b6779c92e537dcb1af560c01b611c60565b610c9f67ba1f40eee6c7bb3360c01b611c60565b610cb36758d489b92660aac960c01b611c60565b5f73ffffffffffffffffffffffffffffffffffffffff168873ffffffffffffffffffffffffffffffffffffffff1603610d2c57610cfa67bad8cd08aa98311d60c01b611c60565b6040517fc891add200000000000000000000000000000000000000000000000000000000815260040160405180910390fd5b610d4067d775c4b99651f0d860c01b611c60565b610d5467827b14310d849fde60c01b611c60565b610d68673a409a5b2848b7ba60c01b611c60565b5f73ffffffffffffffffffffffffffffffffffffffff168773ffffffffffffffffffffffffffffffffffffffff1603610de157610daf6703be0cf0cfdda8da60c01b611c60565b6040517f5c1de4f100000000000000000000000000000000000000000000000000000000815260040160405180910390fd5b610df567a549edc4ea63be8360c01b611c60565b610e09674c9144a1217c4a2e60c01b611c60565b610e1d679ded187989e9380360c01b611c60565b5f73ffffffffffffffffffffffffffffffffffffffff168673ffffffffffffffffffffffffffffffffffffffff1603610e9657610e6467c0109e4f122b091660c01b611c60565b6040517fc4a0c25d00000000000000000000000000000000000000000000000000000000815260040160405180910390fd5b610eaa675ff2a1d4af5b8b0860c01b611c60565b610ebe672096c10f1aedd91c60c01b611c60565b610ed2678a8e65679f681da060c01b611c60565b5f73ffffffffffffffffffffffffffffffffffffffff168573ffffffffffffffffffffffffffffffffffffffff1603610f4b57610f19677dd0d583e43a7b9b60c01b611c60565b6040517f66002a9c00000000000000000000000000000000000000000000000000000000815260040160405180910390fd5b610f5f6711f942cd0204ed2f60c01b611c60565b610f73670b614010aba9acd660c01b611c60565b610f8767d2f403040c03737a60c01b611c60565b5f73ffffffffffffffffffffffffffffffffffffffff168173ffffffffffffffffffffffffffffffffffffffff160361100057610fce67e40c8d47db80902860c01b611c60565b6040517fd92e233d00000000000000000000000000000000000000000000000000000000815260040160405180910390fd5b6110146773a10ad278cda48060c01b611c60565b611028678122e4c29fb6a94460c01b611c60565b875f806101000a81548173ffffffffffffffffffffffffffffffffffffffff021916908373ffffffffffffffffffffffffffffffffffffffff16021790555061107b678857308a4cf2b3b760c01b611c60565b8660015f6101000a81548173ffffffffffffffffffffffffffffffffffffffff021916908373ffffffffffffffffffffffffffffffffffffffff1602179055506110cf675260d56b88d549e960c01b611c60565b8560025f6101000a81548173ffffffffffffffffffffffffffffffffffffffff021916908373ffffffffffffffffffffffffffffffffffffffff160217905550611123672014056ded910a3d60c01b611c60565b8460035f6101000a81548173ffffffffffffffffffffffffffffffffffffffff021916908373ffffffffffffffffffffffffffffffffffffffff16021790555061117767e5e1a93f26a98a1260c01b611c60565b83600460146101000a81548160ff021916908360ff1602179055506111a66734bd9e2b11a044da60c01b611c60565b8282600591826111b7929190613057565b506111cc67f745eb085a4590a160c01b611c60565b8060045f6101000a81548173ffffffffffffffffffffffffffffffffffffffff021916908373ffffffffffffffffffffffffffffffffffffffff16021790555061122067b11118e7adb3076360c01b611c60565b61123467f0fb234289ead8e260c01b611c60565b7f8a3f9b88bdb5df291e6ea7554b3e6bfaf076941024dfee5f193adea6c8ed183d88888888888888886040516112719897969594939291906131a2565b60405180910390a15050505050505050565b5f6112986744548a02cfea27c460c01b611c60565b6112ac67683b67eec0cbaed160c01b611c60565b6112c067e4c65c5cbfc62b7760c01b611c60565b6112ca6008611f79565b905090565b600580546112dc90612e93565b80601f016020809104026020016040519081016040528092919081815260200182805461130890612e93565b80156113535780601f1061132a57610100808354040283529160200191611353565b820191905f5260205f20905b81548152906001019060200180831161133657829003601f168201915b505050505081565b6040518060400160405280600581526020017f352e302e3000000000000000000000000000000000000000000000000000000081525081565b6113a867e2889f921c9c590e60c01b611c60565b6113b0611f8c565b6113c467fdf0fd12b498b04f60c01b611c60565b6113d867f2cb253fb5e3922160c01b611c60565b6113ec67bfef7fca7bf223bf60c01b611c60565b6114006775ec7a491de26bf260c01b611c60565b5f61141582600661205790919063ffffffff16565b905061142b67b93caaa0a5ee217960c01b611c60565b61143f670ebde7cfcd64a9db60c01b611c60565b8061148a57611458674064c2b23d63425c60c01b611c60565b6040517f5b0aa2ba00000000000000000000000000000000000000000000000000000000815260040160405180910390fd5b61149e67e278fe81d9457efa60c01b611c60565b6114b26726312502b4435cac60c01b611c60565b6114c6678ca0dfbc1a895a8d60c01b611c60565b8173ffffffffffffffffffffffffffffffffffffffff167f952363a786fc6f24cfb955cd6207cf91ecee3a82a7dd0bc26891ff7647b5784c60405160405180910390a25050565b61152167ca1bbfd8e738153960c01b611c60565b611529611f8c565b61153d6788538993a6de1b3260c01b611c60565b6115516723de6cd1a88426cc60c01b611c60565b61156567a9ccdddeb8067a1060c01b611c60565b611579672d6fe34805b9559b60c01b611c60565b5f61158e8260066120ab90919063ffffffff16565b90506115a4672ad313137b28530060c01b611c60565b6115b8678da4799df9fb8f7760c01b611c60565b80611603576115d167e30718540d58e85c60c01b611c60565b6040517fb73e95e100000000000000000000000000000000000000000000000000000000815260040160405180910390fd5b61161767a28fbfa3257ce8d660c01b611c60565b61162b67fd8754ea0105d28560c01b611c60565b61163f67b0a128bb515366dd60c01b611c60565b8173ffffffffffffffffffffffffffffffffffffffff167fdcbd8d9d0373041250f6c25b6b7aeccb3e9ff291e510ef85bb9f8ac09ceb6f6460405160405180910390a25050565b61169a678952b43ee5c2269360c01b611c60565b5f6116a36120d8565b90505f815f0160089054906101000a900460ff161590505f825f015f9054906101000a900467ffffffffffffffff1690505f808267ffffffffffffffff161480156116eb5750825b90505f60018367ffffffffffffffff1614801561171e57505f3073ffffffffffffffffffffffffffffffffffffffff163b145b90508115801561172c575080155b15611763576040517ff92ee8a900000000000000000000000000000000000000000000000000000000815260040160405180910390fd5b6001855f015f6101000a81548167ffffffffffffffff021916908367ffffffffffffffff16021790555083156117b0576001855f0160086101000a81548160ff0219169083151502179055505b6117c46740d584820a7fd2a960c01b611c60565b6117d8677ba283ed60b3185960c01b611c60565b6117ec67605cb8015aa8c5a960c01b611c60565b61180067720c3dd91044592860c01b611c60565b611809866120eb565b61181d676f429fdb4587425860c01b611c60565b6118316752255357b2800f8660c01b611c60565b6118396120ff565b61184d67a4f854b5d6be1e9d60c01b611c60565b611861670e00c146b3fafc5e60c01b611c60565b611869612109565b83156118c3575f855f0160086101000a81548160ff0219169083151502179055507fc7f505b2f371ae2175ee4913f4499e1f2633a7b5936321eed1cdaeb6115181d260016040516118ba9190613264565b60405180910390a15b505050505050565b600460149054906101000a900460ff1681565b60045f9054906101000a900473ffffffffffffffffffffffffffffffffffffffff1681565b5f8061190d612113565b9050805f015f9054906101000a900473ffffffffffffffffffffffffffffffffffffffff1691505090565b61194c67b38d27a0a877966160c01b611c60565b61196067819e0f39976c9aa260c01b611c60565b61197467aef89dd1ee518af760c01b611c60565b611988672ad180cf828fc50b60c01b611c60565b60045f9054906101000a900473ffffffffffffffffffffffffffffffffffffffff1673ffffffffffffffffffffffffffffffffffffffff163373ffffffffffffffffffffffffffffffffffffffff1614611a22576119f067cfcd1422f1c74ad860c01b611c60565b6040517f32cc723600000000000000000000000000000000000000000000000000000000815260040160405180910390fd5b611a3667b30955a6a8c0d37a60c01b611c60565b611a4a67ea3ad5af007487f560c01b611c60565b611a5e677c851f774a361c1860c01b611c60565b611a7267de37bf8a9a21e2d960c01b611c60565b611a8667559e1a3f5dc6427260c01b611c60565b611a9a67d6bdd8c021562a1260c01b611c60565b5f611aaf8260086120ab90919063ffffffff16565b9050611ac56764cfbc5b3e32026b60c01b611c60565b611ad9675d2b29232162585860c01b611c60565b80611b2457611af267ca905458d78b5ff160c01b611c60565b6040517ff0301ba400000000000000000000000000000000000000000000000000000000815260040160405180910390fd5b611b38670104b5ec5a6b8f7560c01b611c60565b611b4c67e3e7e4d8a23e341360c01b611c60565b611b60675cbb600aa91584c260c01b611c60565b8173ffffffffffffffffffffffffffffffffffffffff167f9a7094a648c0524f3d62b9167886d30be0e68cf53863fe556edda348f189445a60405160405180910390a25050565b611baf611f8c565b5f611bb8612113565b905081815f015f6101000a81548173ffffffffffffffffffffffffffffffffffffffff021916908373ffffffffffffffffffffffffffffffffffffffff1602179055508173ffffffffffffffffffffffffffffffffffffffff16611c1a610c12565b73ffffffffffffffffffffffffffffffffffffffff167f38d16b8cac22d99fc7c124b9cd0de2d3fa1faef420bfe791d8c362d765e2270060405160405180910390a35050565b50565b5f611c70835f018361213a565b5f1c905092915050565b5f611c9f835f018373ffffffffffffffffffffffffffffffffffffffff165f1b612161565b905092915050565b7f000000000000000000000000000000000000000000000000000000000000000073ffffffffffffffffffffffffffffffffffffffff163073ffffffffffffffffffffffffffffffffffffffff161480611d5457507f000000000000000000000000000000000000000000000000000000000000000073ffffffffffffffffffffffffffffffffffffffff16611d3b612181565b73ffffffffffffffffffffffffffffffffffffffff1614155b15611d8b576040517fe07c8dba00000000000000000000000000000000000000000000000000000000815260040160405180910390fd5b565b611da167bb5addd5a41a0c3260c01b611c60565b611da9611f8c565b611dbd67aaa1a6c101eb948f60c01b611c60565b611dd167bbc3107c256b51bc60c01b611c60565b50565b8173ffffffffffffffffffffffffffffffffffffffff166352d1902d6040518163ffffffff1660e01b8152600401602060405180830381865afa925050508015611e3c57506040513d601f19601f82011682018060405250810190611e3991906132a7565b60015b611e7d57816040517f4c9c8ce3000000000000000000000000000000000000000000000000000000008152600401611e7491906128a1565b60405180910390fd5b7f360894a13ba1a3210667c828492db98dca3e2076cc3735a920a3ca505d382bbc5f1b8114611ee357806040517faa1d49a4000000000000000000000000000000000000000000000000000000008152600401611eda9190612af0565b60405180910390fd5b611eed83836121d4565b505050565b7f000000000000000000000000000000000000000000000000000000000000000073ffffffffffffffffffffffffffffffffffffffff163073ffffffffffffffffffffffffffffffffffffffff1614611f77576040517fe07c8dba00000000000000000000000000000000000000000000000000000000815260040160405180910390fd5b565b5f611f85825f01612246565b9050919050565b611f94612050565b73ffffffffffffffffffffffffffffffffffffffff16611fb2610c12565b73ffffffffffffffffffffffffffffffffffffffff161461201157611fd5612050565b6040517f118cdaa700000000000000000000000000000000000000000000000000000000815260040161200891906128a1565b60405180910390fd5b565b5f61201c612113565b9050805f015f6101000a81549073ffffffffffffffffffffffffffffffffffffffff021916905561204c82612255565b5050565b5f33905090565b5f61207c835f018373ffffffffffffffffffffffffffffffffffffffff165f1b612326565b905092915050565b5f7f9016d09d72d40fdae2fd8ceac6b6234c7706214fd39c1cd1e609a0528c199300905090565b5f6120d0835f018373ffffffffffffffffffffffffffffffffffffffff165f1b612422565b905092915050565b5f806120e2612489565b90508091505090565b6120f36124b2565b6120fc816124f2565b50565b6121076124b2565b565b6121116124b2565b565b5f7f237e158222e3e6968b72b9db0d8043aacf074ad9f650f0d1606b4d82ee432c00905090565b5f825f0182815481106121505761214f6132d2565b5b905f5260205f200154905092915050565b5f80836001015f8481526020019081526020015f20541415905092915050565b5f6121ad7f360894a13ba1a3210667c828492db98dca3e2076cc3735a920a3ca505d382bbc5f1b612576565b5f015f9054906101000a900473ffffffffffffffffffffffffffffffffffffffff16905090565b6121dd8261257f565b8173ffffffffffffffffffffffffffffffffffffffff167fbc7cd75a20ee27fd9adebab32041f755214dbc6bffa90cc0225b39da2e5c2d3b60405160405180910390a25f81511115612239576122338282612648565b50612242565b6122416126c8565b5b5050565b5f815f01805490509050919050565b5f61225e612084565b90505f815f015f9054906101000a900473ffffffffffffffffffffffffffffffffffffffff16905082825f015f6101000a81548173ffffffffffffffffffffffffffffffffffffffff021916908373ffffffffffffffffffffffffffffffffffffffff1602179055508273ffffffffffffffffffffffffffffffffffffffff168173ffffffffffffffffffffffffffffffffffffffff167f8be0079c531659141344cd1fd0a4f28419497f9722a3daafe3b4186f6b6457e060405160405180910390a3505050565b5f80836001015f8481526020019081526020015f205490505f8114612417575f600182612353919061332c565b90505f6001865f0180549050612369919061332c565b90508082146123cf575f865f018281548110612388576123876132d2565b5b905f5260205f200154905080875f0184815481106123a9576123a86132d2565b5b905f5260205f20018190555083876001015f8381526020019081526020015f2081905550505b855f018054806123e2576123e161335f565b5b600190038181905f5260205f20015f90559055856001015f8681526020019081526020015f205f90556001935050505061241c565b5f9150505b92915050565b5f61242d8383612161565b61247f57825f0182908060018154018082558091505060019003905f5260205f20015f9091909190915055825f0180549050836001015f8481526020019081526020015f208190555060019050612483565b5f90505b92915050565b5f7ff0c57e16840df040f15088dc2f81fe391c3923bec73e23a9662efc9c229c6a005f1b905090565b6124ba612704565b6124f0576040517fd7e6bcf800000000000000000000000000000000000000000000000000000000815260040160405180910390fd5b565b6124fa6124b2565b5f73ffffffffffffffffffffffffffffffffffffffff168173ffffffffffffffffffffffffffffffffffffffff160361256a575f6040517f1e4fbdf700000000000000000000000000000000000000000000000000000000815260040161256191906128a1565b60405180910390fd5b61257381612013565b50565b5f819050919050565b5f8173ffffffffffffffffffffffffffffffffffffffff163b036125da57806040517f4c9c8ce30000000000000000000000000000000000000000000000000000000081526004016125d191906128a1565b60405180910390fd5b806126067f360894a13ba1a3210667c828492db98dca3e2076cc3735a920a3ca505d382bbc5f1b612576565b5f015f6101000a81548173ffffffffffffffffffffffffffffffffffffffff021916908373ffffffffffffffffffffffffffffffffffffffff16021790555050565b60605f808473ffffffffffffffffffffffffffffffffffffffff168460405161267191906133d0565b5f60405180830381855af49150503d805f81146126a9576040519150601f19603f3d011682016040523d82523d5f602084013e6126ae565b606091505b50915091506126be858383612722565b9250505092915050565b5f341115612702576040517fb398979f00000000000000000000000000000000000000000000000000000000815260040160405180910390fd5b565b5f61270d6120d8565b5f0160089054906101000a900460ff16905090565b60608261273757612732826127af565b6127a7565b5f825114801561275d57505f8473ffffffffffffffffffffffffffffffffffffffff163b145b1561279f57836040517f9996b31500000000000000000000000000000000000000000000000000000000815260040161279691906128a1565b60405180910390fd5b8190506127a8565b5b9392505050565b5f815111156127c15780518082602001fd5b6040517fd6bda27500000000000000000000000000000000000000000000000000000000815260040160405180910390fd5b5f604051905090565b5f80fd5b5f80fd5b5f819050919050565b61281681612804565b8114612820575f80fd5b50565b5f813590506128318161280d565b92915050565b5f6020828403121561284c5761284b6127fc565b5b5f61285984828501612823565b91505092915050565b5f73ffffffffffffffffffffffffffffffffffffffff82169050919050565b5f61288b82612862565b9050919050565b61289b81612881565b82525050565b5f6020820190506128b45f830184612892565b92915050565b6128c381612881565b81146128cd575f80fd5b50565b5f813590506128de816128ba565b92915050565b5f602082840312156128f9576128f86127fc565b5b5f612906848285016128d0565b91505092915050565b5f8115159050919050565b6129238161290f565b82525050565b5f60208201905061293c5f83018461291a565b92915050565b5f80fd5b5f80fd5b5f601f19601f8301169050919050565b7f4e487b71000000000000000000000000000000000000000000000000000000005f52604160045260245ffd5b6129908261294a565b810181811067ffffffffffffffff821117156129af576129ae61295a565b5b80604052505050565b5f6129c16127f3565b90506129cd8282612987565b919050565b5f67ffffffffffffffff8211156129ec576129eb61295a565b5b6129f58261294a565b9050602081019050919050565b828183375f83830152505050565b5f612a22612a1d846129d2565b6129b8565b905082815260208101848484011115612a3e57612a3d612946565b5b612a49848285612a02565b509392505050565b5f82601f830112612a6557612a64612942565b5b8135612a75848260208601612a10565b91505092915050565b5f8060408385031215612a9457612a936127fc565b5b5f612aa1858286016128d0565b925050602083013567ffffffffffffffff811115612ac257612ac1612800565b5b612ace85828601612a51565b9150509250929050565b5f819050919050565b612aea81612ad8565b82525050565b5f602082019050612b035f830184612ae1565b92915050565b612b1281612804565b82525050565b5f602082019050612b2b5f830184612b09565b92915050565b5f819050919050565b5f612b54612b4f612b4a84612862565b612b31565b612862565b9050919050565b5f612b6582612b3a565b9050919050565b5f612b7682612b5b565b9050919050565b612b8681612b6c565b82525050565b5f602082019050612b9f5f830184612b7d565b92915050565b5f612baf82612b5b565b9050919050565b612bbf81612ba5565b82525050565b5f602082019050612bd85f830184612bb6565b92915050565b5f80fd5b5f80fd5b5f8083601f840112612bfb57612bfa612942565b5b8235905067ffffffffffffffff811115612c1857612c17612bde565b5b602083019150836001820283011115612c3457612c33612be2565b5b9250929050565b5f8060208385031215612c5157612c506127fc565b5b5f83013567ffffffffffffffff811115612c6e57612c6d612800565b5b612c7a85828601612be6565b92509250509250929050565b5f612c9082612881565b9050919050565b612ca081612c86565b8114612caa575f80fd5b50565b5f81359050612cbb81612c97565b92915050565b5f60ff82169050919050565b612cd681612cc1565b8114612ce0575f80fd5b50565b5f81359050612cf181612ccd565b92915050565b5f805f805f805f8060e0898b031215612d1357612d126127fc565b5b5f612d208b828c016128d0565b9850506020612d318b828c016128d0565b9750506040612d428b828c016128d0565b9650506060612d538b828c01612cad565b9550506080612d648b828c01612ce3565b94505060a089013567ffffffffffffffff811115612d8557612d84612800565b5b612d918b828c01612be6565b935093505060c0612da48b828c016128d0565b9150509295985092959890939650565b5f81519050919050565b5f82825260208201905092915050565b8281835e5f83830152505050565b5f612de682612db4565b612df08185612dbe565b9350612e00818560208601612dce565b612e098161294a565b840191505092915050565b5f6020820190508181035f830152612e2c8184612ddc565b905092915050565b612e3d81612cc1565b82525050565b5f602082019050612e565f830184612e34565b92915050565b5f82905092915050565b7f4e487b71000000000000000000000000000000000000000000000000000000005f52602260045260245ffd5b5f6002820490506001821680612eaa57607f821691505b602082108103612ebd57612ebc612e66565b5b50919050565b5f819050815f5260205f209050919050565b5f6020601f8301049050919050565b5f82821b905092915050565b5f60088302612f1f7fffffffffffffffffffffffffffffffffffffffffffffffffffffffffffffffff82612ee4565b612f298683612ee4565b95508019841693508086168417925050509392505050565b5f612f5b612f56612f5184612804565b612b31565b612804565b9050919050565b5f819050919050565b612f7483612f41565b612f88612f8082612f62565b848454612ef0565b825550505050565b5f90565b612f9c612f90565b612fa7818484612f6b565b505050565b5b81811015612fca57612fbf5f82612f94565b600181019050612fad565b5050565b601f82111561300f57612fe081612ec3565b612fe984612ed5565b81016020851015612ff8578190505b61300c61300485612ed5565b830182612fac565b50505b505050565b5f82821c905092915050565b5f61302f5f1984600802613014565b1980831691505092915050565b5f6130478383613020565b9150826002028217905092915050565b6130618383612e5c565b67ffffffffffffffff81111561307a5761307961295a565b5b6130848254612e93565b61308f828285612fce565b5f601f8311600181146130bc575f84156130aa578287013590505b6130b4858261303c565b86555061311b565b601f1984166130ca86612ec3565b5f5b828110156130f1578489013582556001820191506020850194506020810190506130cc565b8683101561310e578489013561310a601f891682613020565b8355505b6001600288020188555050505b50505050505050565b5f61312f8385612dbe565b935061313c838584612a02565b6131458361294a565b840190509392505050565b5f6020820190508181035f830152613169818486613124565b90509392505050565b5f61318c61318761318284612cc1565b612b31565b612804565b9050919050565b61319c81613172565b82525050565b5f60e0820190506131b55f83018b612892565b6131c2602083018a612892565b6131cf6040830189612892565b6131dc6060830188612b7d565b6131e96080830187613193565b81810360a08301526131fc818587613124565b905061320b60c0830184612892565b9998505050505050505050565b5f819050919050565b5f67ffffffffffffffff82169050919050565b5f61324e61324961324484613218565b612b31565b613221565b9050919050565b61325e81613234565b82525050565b5f6020820190506132775f830184613255565b92915050565b61328681612ad8565b8114613290575f80fd5b50565b5f815190506132a18161327d565b92915050565b5f602082840312156132bc576132bb6127fc565b5b5f6132c984828501613293565b91505092915050565b7f4e487b71000000000000000000000000000000000000000000000000000000005f52603260045260245ffd5b7f4e487b71000000000000000000000000000000000000000000000000000000005f52601160045260245ffd5b5f61333682612804565b915061334183612804565b9250828203905081811115613359576133586132ff565b5b92915050565b7f4e487b71000000000000000000000000000000000000000000000000000000005f52603160045260245ffd5b5f81519050919050565b5f81905092915050565b5f6133aa8261338c565b6133b48185613396565b93506133c4818560208601612dce565b80840191505092915050565b5f6133db82846133a0565b91508190509291505056fea264697066735822122063c5e6cc4a529b498fa55bdb28b798808134f34ff8c1e2e7fc8d0936734720cb64736f6c634300081a0033",
  "linkReferences": {},
  "deployedLinkReferences": {}
}