{
  "_format": "hh-sol-artifact-1",
  "contractName": "OrionConfig",
  "sourceName": "contracts/OrionConfig.sol",
  "abi": [
    {
      "inputs": [
        {
          "internalType": "address",
          "name": "target",
          "type": "address"
        }
      ],
      "name": "AddressEmptyCode",
      "type": "error"
    },
    {
      "inputs": [],
      "name": "AlreadyAnOrionVault",
      "type": "error"
    },
    {
      "inputs": [],
      "name": "AlreadyWhitelisted",
      "type": "error"
    },
    {
      "inputs": [
        {
          "internalType": "address",
          "name": "implementation",
          "type": "address"
        }
      ],
      "name": "ERC1967InvalidImplementation",
      "type": "error"
    },
    {
      "inputs": [],
      "name": "ERC1967NonPayable",
      "type": "error"
    },
    {
      "inputs": [],
      "name": "FailedCall",
      "type": "error"
    },
    {
      "inputs": [],
      "name": "InvalidAsset",
      "type": "error"
    },
    {
      "inputs": [],
      "name": "InvalidInitialization",
      "type": "error"
    },
    {
      "inputs": [],
      "name": "InvalidInternalOrchestrator",
      "type": "error"
    },
    {
      "inputs": [],
      "name": "InvalidLiquidityOrchestrator",
      "type": "error"
    },
    {
      "inputs": [],
      "name": "InvalidStatesDecimals",
      "type": "error"
    },
    {
      "inputs": [],
      "name": "NotAnOrionVault",
      "type": "error"
    },
    {
      "inputs": [],
      "name": "NotFactory",
      "type": "error"
    },
    {
      "inputs": [],
      "name": "NotInWhitelist",
      "type": "error"
    },
    {
      "inputs": [],
      "name": "NotInitializing",
      "type": "error"
    },
    {
      "inputs": [
        {
          "internalType": "address",
          "name": "owner",
          "type": "address"
        }
      ],
      "name": "OwnableInvalidOwner",
      "type": "error"
    },
    {
      "inputs": [
        {
          "internalType": "address",
          "name": "account",
          "type": "address"
        }
      ],
      "name": "OwnableUnauthorizedAccount",
      "type": "error"
    },
    {
      "inputs": [],
      "name": "UUPSUnauthorizedCallContext",
      "type": "error"
    },
    {
      "inputs": [
        {
          "internalType": "bytes32",
          "name": "slot",
          "type": "bytes32"
        }
      ],
      "name": "UUPSUnsupportedProxiableUUID",
      "type": "error"
    },
    {
      "inputs": [],
      "name": "ZeroAddress",
      "type": "error"
    },
    {
      "anonymous": false,
      "inputs": [
        {
          "indexed": false,
          "internalType": "uint64",
          "name": "version",
          "type": "uint64"
        }
      ],
      "name": "Initialized",
      "type": "event"
    },
    {
      "anonymous": false,
      "inputs": [
        {
          "indexed": true,
          "internalType": "address",
          "name": "vault",
          "type": "address"
        }
      ],
      "name": "OrionVaultAdded",
      "type": "event"
    },
    {
      "anonymous": false,
      "inputs": [
        {
          "indexed": true,
          "internalType": "address",
          "name": "vault",
          "type": "address"
        }
      ],
      "name": "OrionVaultRemoved",
      "type": "event"
    },
    {
      "anonymous": false,
      "inputs": [
        {
          "indexed": true,
          "internalType": "address",
          "name": "previousOwner",
          "type": "address"
        },
        {
          "indexed": true,
          "internalType": "address",
          "name": "newOwner",
          "type": "address"
        }
      ],
      "name": "OwnershipTransferStarted",
      "type": "event"
    },
    {
      "anonymous": false,
      "inputs": [
        {
          "indexed": true,
          "internalType": "address",
          "name": "previousOwner",
          "type": "address"
        },
        {
          "indexed": true,
          "internalType": "address",
          "name": "newOwner",
          "type": "address"
        }
      ],
      "name": "OwnershipTransferred",
      "type": "event"
    },
    {
      "anonymous": false,
      "inputs": [
        {
          "indexed": false,
          "internalType": "address",
          "name": "underlyingAsset",
          "type": "address"
        },
        {
          "indexed": false,
          "internalType": "address",
          "name": "internalStatesOrchestrator",
          "type": "address"
        },
        {
          "indexed": false,
          "internalType": "address",
          "name": "liquidityOrchestrator",
          "type": "address"
        },
        {
          "indexed": false,
          "internalType": "uint8",
          "name": "statesDecimals",
          "type": "uint8"
        },
        {
          "indexed": false,
          "internalType": "uint8",
          "name": "curatorIntentDecimals",
          "type": "uint8"
        },
        {
          "indexed": false,
          "internalType": "address",
          "name": "factory",
          "type": "address"
        },
        {
          "indexed": false,
          "internalType": "address",
          "name": "oracleRegistry",
          "type": "address"
        }
      ],
      "name": "ProtocolParamsUpdated",
      "type": "event"
    },
    {
      "anonymous": false,
      "inputs": [
        {
          "indexed": true,
          "internalType": "address",
          "name": "implementation",
          "type": "address"
        }
      ],
      "name": "Upgraded",
      "type": "event"
    },
    {
      "anonymous": false,
      "inputs": [
        {
          "indexed": true,
          "internalType": "address",
          "name": "asset",
          "type": "address"
        }
      ],
      "name": "WhitelistedAssetAdded",
      "type": "event"
    },
    {
      "anonymous": false,
      "inputs": [
        {
          "indexed": true,
          "internalType": "address",
          "name": "asset",
          "type": "address"
        }
      ],
      "name": "WhitelistedAssetRemoved",
      "type": "event"
    },
    {
      "inputs": [],
      "name": "UPGRADE_INTERFACE_VERSION",
      "outputs": [
        {
          "internalType": "string",
          "name": "",
          "type": "string"
        }
      ],
      "stateMutability": "view",
      "type": "function"
    },
    {
      "inputs": [],
      "name": "acceptOwnership",
      "outputs": [],
      "stateMutability": "nonpayable",
      "type": "function"
    },
    {
      "inputs": [
        {
          "internalType": "address",
          "name": "vault",
          "type": "address"
        },
        {
          "internalType": "enum EventsLib.VaultType",
          "name": "vaultType",
          "type": "uint8"
        }
      ],
      "name": "addOrionVault",
      "outputs": [],
      "stateMutability": "nonpayable",
      "type": "function"
    },
    {
      "inputs": [
        {
          "internalType": "address",
          "name": "asset",
          "type": "address"
        }
      ],
      "name": "addWhitelistedAsset",
      "outputs": [],
      "stateMutability": "nonpayable",
      "type": "function"
    },
    {
      "inputs": [],
      "name": "curatorIntentDecimals",
      "outputs": [
        {
          "internalType": "uint8",
          "name": "",
          "type": "uint8"
        }
      ],
      "stateMutability": "view",
      "type": "function"
    },
    {
      "inputs": [
        {
          "internalType": "enum EventsLib.VaultType",
          "name": "vaultType",
          "type": "uint8"
        }
      ],
      "name": "getAllOrionVaults",
      "outputs": [
        {
          "internalType": "address[]",
          "name": "",
          "type": "address[]"
        }
      ],
      "stateMutability": "view",
      "type": "function"
    },
    {
      "inputs": [],
      "name": "getAllWhitelistedAssets",
      "outputs": [
        {
          "internalType": "address[]",
          "name": "assets",
          "type": "address[]"
        }
      ],
      "stateMutability": "view",
      "type": "function"
    },
    {
      "inputs": [
        {
          "internalType": "uint256",
          "name": "index",
          "type": "uint256"
        }
      ],
      "name": "getWhitelistedAssetAt",
      "outputs": [
        {
          "internalType": "address",
          "name": "",
          "type": "address"
        }
      ],
      "stateMutability": "view",
      "type": "function"
    },
    {
      "inputs": [
        {
          "internalType": "address",
          "name": "initialOwner",
          "type": "address"
        }
      ],
      "name": "initialize",
      "outputs": [],
      "stateMutability": "nonpayable",
      "type": "function"
    },
    {
      "inputs": [],
      "name": "internalStatesOrchestrator",
      "outputs": [
        {
          "internalType": "address",
          "name": "",
          "type": "address"
        }
      ],
      "stateMutability": "view",
      "type": "function"
    },
    {
      "inputs": [
        {
          "internalType": "address",
          "name": "asset",
          "type": "address"
        }
      ],
      "name": "isWhitelisted",
      "outputs": [
        {
          "internalType": "bool",
          "name": "",
          "type": "bool"
        }
      ],
      "stateMutability": "view",
      "type": "function"
    },
    {
      "inputs": [],
      "name": "liquidityOrchestrator",
      "outputs": [
        {
          "internalType": "address",
          "name": "",
          "type": "address"
        }
      ],
      "stateMutability": "view",
      "type": "function"
    },
    {
      "inputs": [],
      "name": "oracleRegistry",
      "outputs": [
        {
          "internalType": "address",
          "name": "",
          "type": "address"
        }
      ],
      "stateMutability": "view",
      "type": "function"
    },
    {
      "inputs": [],
      "name": "owner",
      "outputs": [
        {
          "internalType": "address",
          "name": "",
          "type": "address"
        }
      ],
      "stateMutability": "view",
      "type": "function"
    },
    {
      "inputs": [],
      "name": "pendingOwner",
      "outputs": [
        {
          "internalType": "address",
          "name": "",
          "type": "address"
        }
      ],
      "stateMutability": "view",
      "type": "function"
    },
    {
      "inputs": [],
      "name": "proxiableUUID",
      "outputs": [
        {
          "internalType": "bytes32",
          "name": "",
          "type": "bytes32"
        }
      ],
      "stateMutability": "view",
      "type": "function"
    },
    {
      "inputs": [
        {
          "internalType": "address",
          "name": "vault",
          "type": "address"
        },
        {
          "internalType": "enum EventsLib.VaultType",
          "name": "vaultType",
          "type": "uint8"
        }
      ],
      "name": "removeOrionVault",
      "outputs": [],
      "stateMutability": "nonpayable",
      "type": "function"
    },
    {
      "inputs": [
        {
          "internalType": "address",
          "name": "asset",
          "type": "address"
        }
      ],
      "name": "removeWhitelistedAsset",
      "outputs": [],
      "stateMutability": "nonpayable",
      "type": "function"
    },
    {
      "inputs": [],
      "name": "renounceOwnership",
      "outputs": [],
      "stateMutability": "nonpayable",
      "type": "function"
    },
    {
      "inputs": [
        {
          "internalType": "address",
          "name": "underlyingAsset_",
          "type": "address"
        },
        {
          "internalType": "address",
          "name": "internalStatesOrchestrator_",
          "type": "address"
        },
        {
          "internalType": "address",
          "name": "liquidityOrchestrator_",
          "type": "address"
        },
        {
          "internalType": "uint8",
          "name": "statesDecimals_",
          "type": "uint8"
        },
        {
          "internalType": "uint8",
          "name": "curatorIntentDecimals_",
          "type": "uint8"
        },
        {
          "internalType": "address",
          "name": "factory_",
          "type": "address"
        },
        {
          "internalType": "address",
          "name": "oracleRegistry_",
          "type": "address"
        }
      ],
      "name": "setProtocolParams",
      "outputs": [],
      "stateMutability": "nonpayable",
      "type": "function"
    },
    {
      "inputs": [],
      "name": "statesDecimals",
      "outputs": [
        {
          "internalType": "uint8",
          "name": "",
          "type": "uint8"
        }
      ],
      "stateMutability": "view",
      "type": "function"
    },
    {
      "inputs": [
        {
          "internalType": "address",
          "name": "newOwner",
          "type": "address"
        }
      ],
      "name": "transferOwnership",
      "outputs": [],
      "stateMutability": "nonpayable",
      "type": "function"
    },
    {
      "inputs": [],
      "name": "underlyingAsset",
      "outputs": [
        {
          "internalType": "contract IERC20",
          "name": "",
          "type": "address"
        }
      ],
      "stateMutability": "view",
      "type": "function"
    },
    {
      "inputs": [
        {
          "internalType": "address",
          "name": "newImplementation",
          "type": "address"
        },
        {
          "internalType": "bytes",
          "name": "data",
          "type": "bytes"
        }
      ],
      "name": "upgradeToAndCall",
      "outputs": [],
      "stateMutability": "payable",
      "type": "function"
    },
    {
      "inputs": [],
      "name": "vaultFactory",
      "outputs": [
        {
          "internalType": "address",
          "name": "",
          "type": "address"
        }
      ],
      "stateMutability": "view",
      "type": "function"
    },
    {
      "inputs": [],
      "name": "whitelistedAssetsLength",
      "outputs": [
        {
          "internalType": "uint256",
          "name": "",
          "type": "uint256"
        }
      ],
      "stateMutability": "view",
      "type": "function"
    }
  ],
  "bytecode": "0x60a06040523073ffffffffffffffffffffffffffffffffffffffff1660809073ffffffffffffffffffffffffffffffffffffffff168152503480156041575f80fd5b506080516135ce6100685f395f81816121cc01528181612221015261241701526135ce5ff3fe608060405260043610610180575f3560e01c80638da5cb5b116100d0578063d1717c7d11610089578063d8a06f7311610063578063d8a06f7314610502578063e30c39781461052c578063ed04f21814610556578063f2fde38b1461059257610180565b8063d1717c7d14610486578063d43d6c8b146104b0578063d86cd44e146104d857610180565b80638da5cb5b14610390578063ad3cb1cc146103ba578063b6dfcd8b146103e4578063b71ee4fc1461040c578063bfba8f6614610436578063c4d66de81461045e57610180565b80634f1ef2861161013d578063715018a611610117578063715018a6146103125780637158da7c1461032857806379ba5097146103525780637a0cb7841461036857610180565b80634f1ef286146102a257806352d1902d146102be5780635f248368146102e857610180565b80630a567a2d146101845780631dbc3c04146101c0578063348ec5c8146101e85780633a0dad8e146102125780633af32abf1461023c5780634bb93ab114610278575b5f80fd5b34801561018f575f80fd5b506101aa60048036038101906101a59190612ca5565b6105ba565b6040516101b79190612d0f565b60405180910390f35b3480156101cb575f80fd5b506101e660048036038101906101e19190612d75565b610611565b005b3480156101f3575f80fd5b506101fc610940565b6040516102099190612d0f565b60405180910390f35b34801561021d575f80fd5b50610226610965565b6040516102339190612d0f565b60405180910390f35b348015610247575f80fd5b50610262600480360381019061025d9190612db3565b61098a565b60405161026f9190612df8565b60405180910390f35b348015610283575f80fd5b5061028c6109e2565b6040516102999190612d0f565b60405180910390f35b6102bc60048036038101906102b79190612f4d565b610a07565b005b3480156102c9575f80fd5b506102d2610a26565b6040516102df9190612fbf565b60405180910390f35b3480156102f3575f80fd5b506102fc610a57565b6040516103099190612fe7565b60405180910390f35b34801561031d575f80fd5b50610326610aa3565b005b348015610333575f80fd5b5061033c610ab6565b604051610349919061305b565b60405180910390f35b34801561035d575f80fd5b50610366610ad9565b005b348015610373575f80fd5b5061038e60048036038101906103899190612d75565b610b67565b005b34801561039b575f80fd5b506103a4610f4b565b6040516103b19190612d0f565b60405180910390f35b3480156103c5575f80fd5b506103ce610f80565b6040516103db91906130d4565b60405180910390f35b3480156103ef575f80fd5b5061040a60048036038101906104059190612db3565b610fb9565b005b348015610417575f80fd5b50610420611132565b60405161042d919061310f565b60405180910390f35b348015610441575f80fd5b5061045c60048036038101906104579190612db3565b611145565b005b348015610469575f80fd5b50610484600480360381019061047f9190612db3565b6112bd565b005b348015610491575f80fd5b5061049a611502565b6040516104a7919061310f565b60405180910390f35b3480156104bb575f80fd5b506104d660048036038101906104d19190613152565b611515565b005b3480156104e3575f80fd5b506104ec611c80565b6040516104f991906132a6565b60405180910390f35b34801561050d575f80fd5b50610516611e09565b6040516105239190612d0f565b60405180910390f35b348015610537575f80fd5b50610540611e2e565b60405161054d9190612d0f565b60405180910390f35b348015610561575f80fd5b5061057c600480360381019061057791906132c6565b611e63565b60405161058991906132a6565b60405180910390f35b34801561059d575f80fd5b506105b860048036038101906105b39190612db3565b61209d565b005b5f6105ce6654eb7e3ddb5fa860c01b612156565b6105e26721a187c0353967b560c01b612156565b6105f6675db571a89c0e02ef60c01b612156565b61060a82600561215990919063ffffffff16565b9050919050565b61062567a675096e04a4d95b60c01b612156565b61063967fd7e82e87212146560c01b612156565b61064d6796aaa2a719ffae8360c01b612156565b61066167c7ced28985bea2e460c01b612156565b60035f9054906101000a900473ffffffffffffffffffffffffffffffffffffffff1673ffffffffffffffffffffffffffffffffffffffff163373ffffffffffffffffffffffffffffffffffffffff16146106fb576106c967e0d2ccbb5ff314c060c01b612156565b6040517f32cc723600000000000000000000000000000000000000000000000000000000815260040160405180910390fd5b61070f6783049aff281ed94260c01b612156565b61072367292df7220a4b467260c01b612156565b610737673ba9a378b2bdaefc60c01b612156565b61074b67915bd2b65cae67ee60c01b612156565b61075f67cf9c63cabeee364f60c01b612156565b61077367a47b2c840b61b6ab60c01b612156565b5f61078867bfb33b9f8ba5a3eb60c01b612156565b61079c6756bec1ae87a0692960c01b612156565b6001808111156107af576107ae6132f1565b5b8260018111156107c2576107c16132f1565b5b0361080a576107db671c8685375c23d02960c01b612156565b6107ef6738652e04e6db3ffe60c01b612156565b61080383600961217090919063ffffffff16565b9050610849565b61081e6734455bdbb3ff55cb60c01b612156565b610832672733e5c4db908f1c60c01b612156565b61084683600761217090919063ffffffff16565b90505b61085d67dfaca990deaf2d2b60c01b612156565b61087167d6450b29da9b5a3a60c01b612156565b806108bc5761088a678b8231a46f025df360c01b612156565b6040517f2fa1facb00000000000000000000000000000000000000000000000000000000815260040160405180910390fd5b6108d067eb027f4b29cef6be60c01b612156565b6108e4677c30c0a75b42f36e60c01b612156565b6108f867a8c8d0086828a76860c01b612156565b8273ffffffffffffffffffffffffffffffffffffffff167fe47da341e0fc63816c1254f1c35425f69460f49342668d11c984ea56762b00d460405160405180910390a2505050565b60015f9054906101000a900473ffffffffffffffffffffffffffffffffffffffff1681565b60025f9054906101000a900473ffffffffffffffffffffffffffffffffffffffff1681565b5f61099f6725228504f673f97c60c01b612156565b6109b3670301f14f08a6f34560c01b612156565b6109c767f1a852799fa2311760c01b612156565b6109db82600561219d90919063ffffffff16565b9050919050565b60045f9054906101000a900473ffffffffffffffffffffffffffffffffffffffff1681565b610a0f6121ca565b610a18826122b0565b610a2282826122f7565b5050565b5f610a2f612415565b7f360894a13ba1a3210667c828492db98dca3e2076cc3735a920a3ca505d382bbc5f1b905090565b5f610a6c67ff3d79c8af0fa80560c01b612156565b610a8067d69943d257b3490b60c01b612156565b610a9467e422f9dfcc53697460c01b612156565b610a9e600561249c565b905090565b610aab6124af565b610ab45f612536565b565b5f8054906101000a900473ffffffffffffffffffffffffffffffffffffffff1681565b5f610ae2612573565b90508073ffffffffffffffffffffffffffffffffffffffff16610b03611e2e565b73ffffffffffffffffffffffffffffffffffffffff1614610b5b57806040517f118cdaa7000000000000000000000000000000000000000000000000000000008152600401610b529190612d0f565b60405180910390fd5b610b6481612536565b50565b610b7b6774634a8a8344c66960c01b612156565b610b8f67fd7e82e87212146560c01b612156565b610ba36796aaa2a719ffae8360c01b612156565b610bb767c7ced28985bea2e460c01b612156565b60035f9054906101000a900473ffffffffffffffffffffffffffffffffffffffff1673ffffffffffffffffffffffffffffffffffffffff163373ffffffffffffffffffffffffffffffffffffffff1614610c5157610c1f67e0d2ccbb5ff314c060c01b612156565b6040517f32cc723600000000000000000000000000000000000000000000000000000000815260040160405180910390fd5b610c656783049aff281ed94260c01b612156565b610c7967292df7220a4b467260c01b612156565b610c8d67e067133e827298d860c01b612156565b610ca167c4989a98e55f7a5960c01b612156565b610cb567b0dc0ff76aaf645d60c01b612156565b610cc96718c5cada1686162c60c01b612156565b5f73ffffffffffffffffffffffffffffffffffffffff168273ffffffffffffffffffffffffffffffffffffffff1603610d4257610d1067a7e84f6b655ee3b360c01b612156565b6040517fd92e233d00000000000000000000000000000000000000000000000000000000815260040160405180910390fd5b610d566768e15daabdb6b9f660c01b612156565b610d6a67aa31ea56bc93d12960c01b612156565b610d7e675655515fd243d7f660c01b612156565b5f610d9367bc1688df0c1d8f0060c01b612156565b610da767a1be86e156a1785960c01b612156565b600180811115610dba57610db96132f1565b5b826001811115610dcd57610dcc6132f1565b5b03610e1557610de667396cdaebdeaf3d4f60c01b612156565b610dfa67104becafe761aef460c01b612156565b610e0e83600961257a90919063ffffffff16565b9050610e54565b610e29676be828370c53358360c01b612156565b610e3d67f78bb3bf5c8f665f60c01b612156565b610e5183600761257a90919063ffffffff16565b90505b610e6867f9dd51339753b5aa60c01b612156565b610e7c67b16600b682dc0b7860c01b612156565b80610ec757610e9567d4519bb4c9439ff160c01b612156565b6040517ff0301ba400000000000000000000000000000000000000000000000000000000815260040160405180910390fd5b610edb6761c8cb403487571860c01b612156565b610eef6742020f2851da390960c01b612156565b610f0367eb7511166ba680b260c01b612156565b8273ffffffffffffffffffffffffffffffffffffffff167f9a7094a648c0524f3d62b9167886d30be0e68cf53863fe556edda348f189445a60405160405180910390a2505050565b5f80610f556125a7565b9050805f015f9054906101000a900473ffffffffffffffffffffffffffffffffffffffff1691505090565b6040518060400160405280600581526020017f352e302e3000000000000000000000000000000000000000000000000000000081525081565b610fcd67a10717dd2e7fa57160c01b612156565b610fd56124af565b610fe9673d8e3011d5583da860c01b612156565b610ffd6788f2c6c9672c2cae60c01b612156565b6110116759b0e5f487fa923260c01b612156565b611025676f9d38cc6f1612dc60c01b612156565b5f61103a82600561217090919063ffffffff16565b9050611050676ab380ea9da8b87260c01b612156565b611064671d507fdfb23133fa60c01b612156565b806110af5761107d6750faff7f632bf4f060c01b612156565b6040517f5b0aa2ba00000000000000000000000000000000000000000000000000000000815260040160405180910390fd5b6110c36767f7f13510c152b760c01b612156565b6110d767a9695f88835a5bac60c01b612156565b6110eb67724264a5f2045be560c01b612156565b8173ffffffffffffffffffffffffffffffffffffffff167f952363a786fc6f24cfb955cd6207cf91ecee3a82a7dd0bc26891ff7647b5784c60405160405180910390a25050565b600460149054906101000a900460ff1681565b61115967d8bd856bab413a1460c01b612156565b6111616124af565b61117567aa4448649af6980960c01b612156565b611188660cae17cbc73cd060c01b612156565b61119c67478caa607a3c9f1460c01b612156565b6111b067fe9613ed7a431a8260c01b612156565b5f6111c582600561257a90919063ffffffff16565b90506111db670cff4531fcb7fff560c01b612156565b6111ef670860f72e7d1ea0a760c01b612156565b8061123a5761120867da6b5938f817f92260c01b612156565b6040517fb73e95e100000000000000000000000000000000000000000000000000000000815260040160405180910390fd5b61124e67e8f2e169fbfba56360c01b612156565b6112626791e57cd6b0e487cc60c01b612156565b61127667fd1b539b13ab3bc960c01b612156565b8173ffffffffffffffffffffffffffffffffffffffff167fdcbd8d9d0373041250f6c25b6b7aeccb3e9ff291e510ef85bb9f8ac09ceb6f6460405160405180910390a25050565b6112d16795bac4c7cf1b4e7b60c01b612156565b5f6112da6125ce565b90505f815f0160089054906101000a900460ff161590505f825f015f9054906101000a900467ffffffffffffffff1690505f808267ffffffffffffffff161480156113225750825b90505f60018367ffffffffffffffff1614801561135557505f3073ffffffffffffffffffffffffffffffffffffffff163b145b905081158015611363575080155b1561139a576040517ff92ee8a900000000000000000000000000000000000000000000000000000000815260040160405180910390fd5b6001855f015f6101000a81548167ffffffffffffffff021916908367ffffffffffffffff16021790555083156113e7576001855f0160086101000a81548160ff0219169083151502179055505b6113fb67781d6d987f449b0e60c01b612156565b61140f67e67804bfe12b826e60c01b612156565b61142367edcc0b2810be2d6860c01b612156565b6114376742b3bd90344bc31b60c01b612156565b61143f6125e1565b61145367cd5e4e34fa6a78ac60c01b612156565b611467671276d73f19a27a0160c01b612156565b61146f6125eb565b61148367fef667f63546c58f60c01b612156565b6114976745307bcde3ec6cc360c01b612156565b6114a086612536565b83156114fa575f855f0160086101000a81548160ff0219169083151502179055507fc7f505b2f371ae2175ee4913f4499e1f2633a7b5936321eed1cdaeb6115181d260016040516114f1919061336a565b60405180910390a15b505050505050565b600460159054906101000a900460ff1681565b611529677283f8651ea54bb760c01b612156565b6115316124af565b611545671499106fb93a049060c01b612156565b611559672fd8e484a73a29a560c01b612156565b61156d6774db72e6338e874660c01b612156565b61158167746871ba273d6bdd60c01b612156565b5f73ffffffffffffffffffffffffffffffffffffffff168773ffffffffffffffffffffffffffffffffffffffff16036115fa576115c8673eb056a51026bd1760c01b612156565b6040517fc891add200000000000000000000000000000000000000000000000000000000815260040160405180910390fd5b61160e67a3093cf288ec0a1b60c01b612156565b61162267b64b90f1b94d1e9460c01b612156565b611636673fdc0256dddd98b760c01b612156565b5f73ffffffffffffffffffffffffffffffffffffffff168673ffffffffffffffffffffffffffffffffffffffff16036116af5761167d673383dd5a7311d72c60c01b612156565b6040517f5c1de4f100000000000000000000000000000000000000000000000000000000815260040160405180910390fd5b6116c3673cbea1499da08ee160c01b612156565b6116d767cf347c1a0a71e63260c01b612156565b6116eb677ff3cc0f91d0914f60c01b612156565b5f73ffffffffffffffffffffffffffffffffffffffff168573ffffffffffffffffffffffffffffffffffffffff16036117645761173267702eca0d5001f64660c01b612156565b6040517fc4a0c25d00000000000000000000000000000000000000000000000000000000815260040160405180910390fd5b611778679bdbb23246defe1d60c01b612156565b61178c6748c5e817d34f3fd760c01b612156565b6117a0678ccb88e29e9d326960c01b612156565b5f73ffffffffffffffffffffffffffffffffffffffff168273ffffffffffffffffffffffffffffffffffffffff1603611819576117e767e7a0a366150af27060c01b612156565b6040517fd92e233d00000000000000000000000000000000000000000000000000000000815260040160405180910390fd5b61182d6762bde960a859c67c60c01b612156565b61184167bc029bd3acf9919d60c01b612156565b61185567c4910de0ef13006d60c01b612156565b5f73ffffffffffffffffffffffffffffffffffffffff168173ffffffffffffffffffffffffffffffffffffffff16036118ce5761189c677a3b094ec528597760c01b612156565b6040517fd92e233d00000000000000000000000000000000000000000000000000000000815260040160405180910390fd5b6118e267de4b6d3dac9bf33f60c01b612156565b6118f6676840f0de11946d8760c01b612156565b865f806101000a81548173ffffffffffffffffffffffffffffffffffffffff021916908373ffffffffffffffffffffffffffffffffffffffff1602179055506119496783e2c74d985729b960c01b612156565b8560015f6101000a81548173ffffffffffffffffffffffffffffffffffffffff021916908373ffffffffffffffffffffffffffffffffffffffff16021790555061199d67308b9a9fb097082460c01b612156565b8460025f6101000a81548173ffffffffffffffffffffffffffffffffffffffff021916908373ffffffffffffffffffffffffffffffffffffffff1602179055506119f167bb20353d131ec26660c01b612156565b611a0567c7450d32d0f02bdb60c01b612156565b5f8773ffffffffffffffffffffffffffffffffffffffff1663313ce5676040518163ffffffff1660e01b8152600401602060405180830381865afa158015611a4f573d5f803e3d5ffd5b505050506040513d601f19601f82011682018060405250810190611a739190613397565b9050611a89674859a809d08df58c60c01b612156565b611a9d671e927eabbd7889ea60c01b612156565b8060ff168560ff161015611af157611abf672273528bbb859b2860c01b612156565b6040517f8977646400000000000000000000000000000000000000000000000000000000815260040160405180910390fd5b611b05674556e5379b11675c60c01b612156565b611b19676aa337563e98c6be60c01b612156565b84600460146101000a81548160ff021916908360ff160217905550611b48676054154acde762ad60c01b612156565b83600460156101000a81548160ff021916908360ff160217905550611b77679c0ca98a1ad068c660c01b612156565b8260035f6101000a81548173ffffffffffffffffffffffffffffffffffffffff021916908373ffffffffffffffffffffffffffffffffffffffff160217905550611bcb6705e71f313b9dc78360c01b612156565b8160045f6101000a81548173ffffffffffffffffffffffffffffffffffffffff021916908373ffffffffffffffffffffffffffffffffffffffff160217905550611c1f672c7fe6f3d93fc75060c01b612156565b611c336769fdd1da058a5e8260c01b612156565b7f8a0153a4883536422ad293b760b91c5302e0bb3866365d362b85ede28acb511288888888888888604051611c6e97969594939291906133c2565b60405180910390a15050505050505050565b6060611c9667fc16189ef02164f260c01b612156565b611caa67243ff1bc3b6f5c5c60c01b612156565b611cbe67c0623876a7d9ee1660c01b612156565b5f611cc9600561249c565b9050611cdf6729c5098e19bd6bda60c01b612156565b8067ffffffffffffffff811115611cf957611cf8612e29565b5b604051908082528060200260200182016040528015611d275781602001602082028036833780820191505090505b509150611d3e67d7d2d23bc25d5aca60c01b612156565b611d52672da57eaab192dff460c01b612156565b5f5b81811015611ddc57611d7067a467d58104e44c1160c01b612156565b611d8481600561215990919063ffffffff16565b838281518110611d9757611d9661342f565b5b602002602001019073ffffffffffffffffffffffffffffffffffffffff16908173ffffffffffffffffffffffffffffffffffffffff1681525050806001019050611d54565b50611df1679899b9ba1ca053ac60c01b612156565b611e05672a51e5acf134096b60c01b612156565b5090565b60035f9054906101000a900473ffffffffffffffffffffffffffffffffffffffff1681565b5f80611e386125f5565b9050805f015f9054906101000a900473ffffffffffffffffffffffffffffffffffffffff1691505090565b6060611e796787dcc8e51a03980b60c01b612156565b611e8d67f927cd531062ba9f60c01b612156565b611ea167526a88ab7fa64c0160c01b612156565b5f600180811115611eb557611eb46132f1565b5b836001811115611ec857611ec76132f1565b5b1480611ee45750611ee3679dd8a0b61d5248f260c01b61261c565b5b8015611f005750611eff67f8da24f31bab4c9960c01b612622565b5b611f0b576007611f0e565b60095b9050611f24674c8fbe4ab279ba4760c01b612156565b611f3867819e0f39976c9aa260c01b612156565b5f611f428261249c565b9050611f5867aef89dd1ee518af760c01b612156565b611f6c672ad180cf828fc50b60c01b612156565b5f8167ffffffffffffffff811115611f8757611f86612e29565b5b604051908082528060200260200182016040528015611fb55781602001602082028036833780820191505090505b509050611fcc67cfcd1422f1c74ad860c01b612156565b611fe067b30955a6a8c0d37a60c01b612156565b5f5b8281101561206957611ffe67ea3ad5af007487f560c01b612156565b612011818561215990919063ffffffff16565b8282815181106120245761202361342f565b5b602002602001019073ffffffffffffffffffffffffffffffffffffffff16908173ffffffffffffffffffffffffffffffffffffffff1681525050806001019050611fe2565b5061207e670a74792cb689b1ef60c01b612156565b6120926714c1d9aafbc24b6460c01b612156565b809350505050919050565b6120a56124af565b5f6120ae6125f5565b905081815f015f6101000a81548173ffffffffffffffffffffffffffffffffffffffff021916908373ffffffffffffffffffffffffffffffffffffffff1602179055508173ffffffffffffffffffffffffffffffffffffffff16612110610f4b565b73ffffffffffffffffffffffffffffffffffffffff167f38d16b8cac22d99fc7c124b9cd0de2d3fa1faef420bfe791d8c362d765e2270060405160405180910390a35050565b50565b5f612166835f018361262c565b5f1c905092915050565b5f612195835f018373ffffffffffffffffffffffffffffffffffffffff165f1b612653565b905092915050565b5f6121c2835f018373ffffffffffffffffffffffffffffffffffffffff165f1b61274f565b905092915050565b7f000000000000000000000000000000000000000000000000000000000000000073ffffffffffffffffffffffffffffffffffffffff163073ffffffffffffffffffffffffffffffffffffffff16148061227757507f000000000000000000000000000000000000000000000000000000000000000073ffffffffffffffffffffffffffffffffffffffff1661225e61276f565b73ffffffffffffffffffffffffffffffffffffffff1614155b156122ae576040517fe07c8dba00000000000000000000000000000000000000000000000000000000815260040160405180910390fd5b565b6122c467824de6762d3c464560c01b612156565b6122cc6124af565b6122e067b9f56997688a8d1260c01b612156565b6122f467d38eb09b344adfac60c01b612156565b50565b8173ffffffffffffffffffffffffffffffffffffffff166352d1902d6040518163ffffffff1660e01b8152600401602060405180830381865afa92505050801561235f57506040513d601f19601f8201168201806040525081019061235c9190613486565b60015b6123a057816040517f4c9c8ce30000000000000000000000000000000000000000000000000000000081526004016123979190612d0f565b60405180910390fd5b7f360894a13ba1a3210667c828492db98dca3e2076cc3735a920a3ca505d382bbc5f1b811461240657806040517faa1d49a40000000000000000000000000000000000000000000000000000000081526004016123fd9190612fbf565b60405180910390fd5b61241083836127c2565b505050565b7f000000000000000000000000000000000000000000000000000000000000000073ffffffffffffffffffffffffffffffffffffffff163073ffffffffffffffffffffffffffffffffffffffff161461249a576040517fe07c8dba00000000000000000000000000000000000000000000000000000000815260040160405180910390fd5b565b5f6124a8825f01612834565b9050919050565b6124b7612573565b73ffffffffffffffffffffffffffffffffffffffff166124d5610f4b565b73ffffffffffffffffffffffffffffffffffffffff1614612534576124f8612573565b6040517f118cdaa700000000000000000000000000000000000000000000000000000000815260040161252b9190612d0f565b60405180910390fd5b565b5f61253f6125f5565b9050805f015f6101000a81549073ffffffffffffffffffffffffffffffffffffffff021916905561256f82612843565b5050565b5f33905090565b5f61259f835f018373ffffffffffffffffffffffffffffffffffffffff165f1b612914565b905092915050565b5f7f9016d09d72d40fdae2fd8ceac6b6234c7706214fd39c1cd1e609a0528c199300905090565b5f806125d861297b565b90508091505090565b6125e96129a4565b565b6125f36129a4565b565b5f7f237e158222e3e6968b72b9db0d8043aacf074ad9f650f0d1606b4d82ee432c00905090565b5f919050565b5f60019050919050565b5f825f0182815481106126425761264161342f565b5b905f5260205f200154905092915050565b5f80836001015f8481526020019081526020015f205490505f8114612744575f60018261268091906134de565b90505f6001865f018054905061269691906134de565b90508082146126fc575f865f0182815481106126b5576126b461342f565b5b905f5260205f200154905080875f0184815481106126d6576126d561342f565b5b905f5260205f20018190555083876001015f8381526020019081526020015f2081905550505b855f0180548061270f5761270e613511565b5b600190038181905f5260205f20015f90559055856001015f8681526020019081526020015f205f905560019350505050612749565b5f9150505b92915050565b5f80836001015f8481526020019081526020015f20541415905092915050565b5f61279b7f360894a13ba1a3210667c828492db98dca3e2076cc3735a920a3ca505d382bbc5f1b6129e4565b5f015f9054906101000a900473ffffffffffffffffffffffffffffffffffffffff16905090565b6127cb826129ed565b8173ffffffffffffffffffffffffffffffffffffffff167fbc7cd75a20ee27fd9adebab32041f755214dbc6bffa90cc0225b39da2e5c2d3b60405160405180910390a25f81511115612827576128218282612ab6565b50612830565b61282f612b36565b5b5050565b5f815f01805490509050919050565b5f61284c6125a7565b90505f815f015f9054906101000a900473ffffffffffffffffffffffffffffffffffffffff16905082825f015f6101000a81548173ffffffffffffffffffffffffffffffffffffffff021916908373ffffffffffffffffffffffffffffffffffffffff1602179055508273ffffffffffffffffffffffffffffffffffffffff168173ffffffffffffffffffffffffffffffffffffffff167f8be0079c531659141344cd1fd0a4f28419497f9722a3daafe3b4186f6b6457e060405160405180910390a3505050565b5f61291f838361274f565b61297157825f0182908060018154018082558091505060019003905f5260205f20015f9091909190915055825f0180549050836001015f8481526020019081526020015f208190555060019050612975565b5f90505b92915050565b5f7ff0c57e16840df040f15088dc2f81fe391c3923bec73e23a9662efc9c229c6a005f1b905090565b6129ac612b72565b6129e2576040517fd7e6bcf800000000000000000000000000000000000000000000000000000000815260040160405180910390fd5b565b5f819050919050565b5f8173ffffffffffffffffffffffffffffffffffffffff163b03612a4857806040517f4c9c8ce3000000000000000000000000000000000000000000000000000000008152600401612a3f9190612d0f565b60405180910390fd5b80612a747f360894a13ba1a3210667c828492db98dca3e2076cc3735a920a3ca505d382bbc5f1b6129e4565b5f015f6101000a81548173ffffffffffffffffffffffffffffffffffffffff021916908373ffffffffffffffffffffffffffffffffffffffff16021790555050565b60605f808473ffffffffffffffffffffffffffffffffffffffff1684604051612adf9190613582565b5f60405180830381855af49150503d805f8114612b17576040519150601f19603f3d011682016040523d82523d5f602084013e612b1c565b606091505b5091509150612b2c858383612b90565b9250505092915050565b5f341115612b70576040517fb398979f00000000000000000000000000000000000000000000000000000000815260040160405180910390fd5b565b5f612b7b6125ce565b5f0160089054906101000a900460ff16905090565b606082612ba557612ba082612c1d565b612c15565b5f8251148015612bcb57505f8473ffffffffffffffffffffffffffffffffffffffff163b145b15612c0d57836040517f9996b315000000000000000000000000000000000000000000000000000000008152600401612c049190612d0f565b60405180910390fd5b819050612c16565b5b9392505050565b5f81511115612c2f5780518082602001fd5b6040517fd6bda27500000000000000000000000000000000000000000000000000000000815260040160405180910390fd5b5f604051905090565b5f80fd5b5f80fd5b5f819050919050565b612c8481612c72565b8114612c8e575f80fd5b50565b5f81359050612c9f81612c7b565b92915050565b5f60208284031215612cba57612cb9612c6a565b5b5f612cc784828501612c91565b91505092915050565b5f73ffffffffffffffffffffffffffffffffffffffff82169050919050565b5f612cf982612cd0565b9050919050565b612d0981612cef565b82525050565b5f602082019050612d225f830184612d00565b92915050565b612d3181612cef565b8114612d3b575f80fd5b50565b5f81359050612d4c81612d28565b92915050565b60028110612d5e575f80fd5b50565b5f81359050612d6f81612d52565b92915050565b5f8060408385031215612d8b57612d8a612c6a565b5b5f612d9885828601612d3e565b9250506020612da985828601612d61565b9150509250929050565b5f60208284031215612dc857612dc7612c6a565b5b5f612dd584828501612d3e565b91505092915050565b5f8115159050919050565b612df281612dde565b82525050565b5f602082019050612e0b5f830184612de9565b92915050565b5f80fd5b5f80fd5b5f601f19601f8301169050919050565b7f4e487b71000000000000000000000000000000000000000000000000000000005f52604160045260245ffd5b612e5f82612e19565b810181811067ffffffffffffffff82111715612e7e57612e7d612e29565b5b80604052505050565b5f612e90612c61565b9050612e9c8282612e56565b919050565b5f67ffffffffffffffff821115612ebb57612eba612e29565b5b612ec482612e19565b9050602081019050919050565b828183375f83830152505050565b5f612ef1612eec84612ea1565b612e87565b905082815260208101848484011115612f0d57612f0c612e15565b5b612f18848285612ed1565b509392505050565b5f82601f830112612f3457612f33612e11565b5b8135612f44848260208601612edf565b91505092915050565b5f8060408385031215612f6357612f62612c6a565b5b5f612f7085828601612d3e565b925050602083013567ffffffffffffffff811115612f9157612f90612c6e565b5b612f9d85828601612f20565b9150509250929050565b5f819050919050565b612fb981612fa7565b82525050565b5f602082019050612fd25f830184612fb0565b92915050565b612fe181612c72565b82525050565b5f602082019050612ffa5f830184612fd8565b92915050565b5f819050919050565b5f61302361301e61301984612cd0565b613000565b612cd0565b9050919050565b5f61303482613009565b9050919050565b5f6130458261302a565b9050919050565b6130558161303b565b82525050565b5f60208201905061306e5f83018461304c565b92915050565b5f81519050919050565b5f82825260208201905092915050565b8281835e5f83830152505050565b5f6130a682613074565b6130b0818561307e565b93506130c081856020860161308e565b6130c981612e19565b840191505092915050565b5f6020820190508181035f8301526130ec818461309c565b905092915050565b5f60ff82169050919050565b613109816130f4565b82525050565b5f6020820190506131225f830184613100565b92915050565b613131816130f4565b811461313b575f80fd5b50565b5f8135905061314c81613128565b92915050565b5f805f805f805f60e0888a03121561316d5761316c612c6a565b5b5f61317a8a828b01612d3e565b975050602061318b8a828b01612d3e565b965050604061319c8a828b01612d3e565b95505060606131ad8a828b0161313e565b94505060806131be8a828b0161313e565b93505060a06131cf8a828b01612d3e565b92505060c06131e08a828b01612d3e565b91505092959891949750929550565b5f81519050919050565b5f82825260208201905092915050565b5f819050602082019050919050565b61322181612cef565b82525050565b5f6132328383613218565b60208301905092915050565b5f602082019050919050565b5f613254826131ef565b61325e81856131f9565b935061326983613209565b805f5b838110156132995781516132808882613227565b975061328b8361323e565b92505060018101905061326c565b5085935050505092915050565b5f6020820190508181035f8301526132be818461324a565b905092915050565b5f602082840312156132db576132da612c6a565b5b5f6132e884828501612d61565b91505092915050565b7f4e487b71000000000000000000000000000000000000000000000000000000005f52602160045260245ffd5b5f819050919050565b5f67ffffffffffffffff82169050919050565b5f61335461334f61334a8461331e565b613000565b613327565b9050919050565b6133648161333a565b82525050565b5f60208201905061337d5f83018461335b565b92915050565b5f8151905061339181613128565b92915050565b5f602082840312156133ac576133ab612c6a565b5b5f6133b984828501613383565b91505092915050565b5f60e0820190506133d55f83018a612d00565b6133e26020830189612d00565b6133ef6040830188612d00565b6133fc6060830187613100565b6134096080830186613100565b61341660a0830185612d00565b61342360c0830184612d00565b98975050505050505050565b7f4e487b71000000000000000000000000000000000000000000000000000000005f52603260045260245ffd5b61346581612fa7565b811461346f575f80fd5b50565b5f815190506134808161345c565b92915050565b5f6020828403121561349b5761349a612c6a565b5b5f6134a884828501613472565b91505092915050565b7f4e487b71000000000000000000000000000000000000000000000000000000005f52601160045260245ffd5b5f6134e882612c72565b91506134f383612c72565b925082820390508181111561350b5761350a6134b1565b5b92915050565b7f4e487b71000000000000000000000000000000000000000000000000000000005f52603160045260245ffd5b5f81519050919050565b5f81905092915050565b5f61355c8261353e565b6135668185613548565b935061357681856020860161308e565b80840191505092915050565b5f61358d8284613552565b91508190509291505056fea26469706673582212204381d935e7dddc8de782ff9306e7218d7c2400af0e59590b448003e63f9e8e1364736f6c634300081a0033",
  "linkReferences": {},
  "deployedLinkReferences": {}
}