{
  "_format": "hh-sol-artifact-1",
  "contractName": "OrionConfig",
  "sourceName": "contracts/OrionConfig.sol",
  "abi": [
    {
      "inputs": [
        {
          "internalType": "address",
          "name": "initialOwner",
          "type": "address"
        }
      ],
      "stateMutability": "nonpayable",
      "type": "constructor"
    },
    {
      "inputs": [],
      "name": "AlreadyRegistered",
      "type": "error"
    },
    {
      "inputs": [
        {
          "internalType": "address",
          "name": "owner",
          "type": "address"
        }
      ],
      "name": "OwnableInvalidOwner",
      "type": "error"
    },
    {
      "inputs": [
        {
          "internalType": "address",
          "name": "account",
          "type": "address"
        }
      ],
      "name": "OwnableUnauthorizedAccount",
      "type": "error"
    },
    {
      "inputs": [],
      "name": "SystemNotIdle",
      "type": "error"
    },
    {
      "inputs": [
        {
          "internalType": "address",
          "name": "token",
          "type": "address"
        }
      ],
      "name": "TokenNotWhitelisted",
      "type": "error"
    },
    {
      "inputs": [],
      "name": "UnauthorizedAccess",
      "type": "error"
    },
    {
      "inputs": [],
      "name": "ZeroAddress",
      "type": "error"
    },
    {
      "anonymous": false,
      "inputs": [
        {
          "indexed": true,
          "internalType": "address",
          "name": "vault",
          "type": "address"
        }
      ],
      "name": "OrionVaultAdded",
      "type": "event"
    },
    {
      "anonymous": false,
      "inputs": [
        {
          "indexed": true,
          "internalType": "address",
          "name": "vault",
          "type": "address"
        }
      ],
      "name": "OrionVaultRemoved",
      "type": "event"
    },
    {
      "anonymous": false,
      "inputs": [
        {
          "indexed": true,
          "internalType": "address",
          "name": "previousOwner",
          "type": "address"
        },
        {
          "indexed": true,
          "internalType": "address",
          "name": "newOwner",
          "type": "address"
        }
      ],
      "name": "OwnershipTransferred",
      "type": "event"
    },
    {
      "anonymous": false,
      "inputs": [],
      "name": "ProtocolParamsUpdated",
      "type": "event"
    },
    {
      "anonymous": false,
      "inputs": [
        {
          "indexed": true,
          "internalType": "address",
          "name": "asset",
          "type": "address"
        }
      ],
      "name": "WhitelistedAssetAdded",
      "type": "event"
    },
    {
      "anonymous": false,
      "inputs": [
        {
          "indexed": true,
          "internalType": "address",
          "name": "asset",
          "type": "address"
        }
      ],
      "name": "WhitelistedAssetRemoved",
      "type": "event"
    },
    {
      "inputs": [
        {
          "internalType": "address",
          "name": "vault",
          "type": "address"
        },
        {
          "internalType": "enum EventsLib.VaultType",
          "name": "vaultType",
          "type": "uint8"
        }
      ],
      "name": "addOrionVault",
      "outputs": [],
      "stateMutability": "nonpayable",
      "type": "function"
    },
    {
      "inputs": [
        {
          "internalType": "address",
          "name": "asset",
          "type": "address"
        },
        {
          "internalType": "address",
          "name": "priceAdapter",
          "type": "address"
        },
        {
          "internalType": "address",
          "name": "executionAdapter",
          "type": "address"
        }
      ],
      "name": "addWhitelistedAsset",
      "outputs": [],
      "stateMutability": "nonpayable",
      "type": "function"
    },
    {
      "inputs": [],
      "name": "curatorIntentDecimals",
      "outputs": [
        {
          "internalType": "uint8",
          "name": "",
          "type": "uint8"
        }
      ],
      "stateMutability": "view",
      "type": "function"
    },
    {
      "inputs": [],
      "name": "encryptedMinibatchSize",
      "outputs": [
        {
          "internalType": "uint256",
          "name": "",
          "type": "uint256"
        }
      ],
      "stateMutability": "view",
      "type": "function"
    },
    {
      "inputs": [],
      "name": "encryptedVaultFactory",
      "outputs": [
        {
          "internalType": "address",
          "name": "",
          "type": "address"
        }
      ],
      "stateMutability": "view",
      "type": "function"
    },
    {
      "inputs": [
        {
          "internalType": "enum EventsLib.VaultType",
          "name": "vaultType",
          "type": "uint8"
        }
      ],
      "name": "getAllOrionVaults",
      "outputs": [
        {
          "internalType": "address[]",
          "name": "",
          "type": "address[]"
        }
      ],
      "stateMutability": "view",
      "type": "function"
    },
    {
      "inputs": [],
      "name": "getAllWhitelistedAssets",
      "outputs": [
        {
          "internalType": "address[]",
          "name": "assets",
          "type": "address[]"
        }
      ],
      "stateMutability": "view",
      "type": "function"
    },
    {
      "inputs": [
        {
          "internalType": "uint256",
          "name": "index",
          "type": "uint256"
        }
      ],
      "name": "getWhitelistedAssetAt",
      "outputs": [
        {
          "internalType": "address",
          "name": "",
          "type": "address"
        }
      ],
      "stateMutability": "view",
      "type": "function"
    },
    {
      "inputs": [],
      "name": "internalStatesOrchestrator",
      "outputs": [
        {
          "internalType": "address",
          "name": "",
          "type": "address"
        }
      ],
      "stateMutability": "view",
      "type": "function"
    },
    {
      "inputs": [
        {
          "internalType": "address",
          "name": "vault",
          "type": "address"
        }
      ],
      "name": "isOrionVault",
      "outputs": [
        {
          "internalType": "bool",
          "name": "",
          "type": "bool"
        }
      ],
      "stateMutability": "view",
      "type": "function"
    },
    {
      "inputs": [],
      "name": "isSystemIdle",
      "outputs": [
        {
          "internalType": "bool",
          "name": "",
          "type": "bool"
        }
      ],
      "stateMutability": "view",
      "type": "function"
    },
    {
      "inputs": [
        {
          "internalType": "address",
          "name": "asset",
          "type": "address"
        }
      ],
      "name": "isWhitelisted",
      "outputs": [
        {
          "internalType": "bool",
          "name": "",
          "type": "bool"
        }
      ],
      "stateMutability": "view",
      "type": "function"
    },
    {
      "inputs": [],
      "name": "liquidityOrchestrator",
      "outputs": [
        {
          "internalType": "address",
          "name": "",
          "type": "address"
        }
      ],
      "stateMutability": "view",
      "type": "function"
    },
    {
      "inputs": [],
      "name": "owner",
      "outputs": [
        {
          "internalType": "address",
          "name": "",
          "type": "address"
        }
      ],
      "stateMutability": "view",
      "type": "function"
    },
    {
      "inputs": [],
      "name": "priceAdapterDecimals",
      "outputs": [
        {
          "internalType": "uint8",
          "name": "",
          "type": "uint8"
        }
      ],
      "stateMutability": "view",
      "type": "function"
    },
    {
      "inputs": [],
      "name": "priceAdapterRegistry",
      "outputs": [
        {
          "internalType": "address",
          "name": "",
          "type": "address"
        }
      ],
      "stateMutability": "view",
      "type": "function"
    },
    {
      "inputs": [
        {
          "internalType": "address",
          "name": "vault",
          "type": "address"
        },
        {
          "internalType": "enum EventsLib.VaultType",
          "name": "vaultType",
          "type": "uint8"
        }
      ],
      "name": "removeOrionVault",
      "outputs": [],
      "stateMutability": "nonpayable",
      "type": "function"
    },
    {
      "inputs": [
        {
          "internalType": "address",
          "name": "asset",
          "type": "address"
        }
      ],
      "name": "removeWhitelistedAsset",
      "outputs": [],
      "stateMutability": "nonpayable",
      "type": "function"
    },
    {
      "inputs": [],
      "name": "renounceOwnership",
      "outputs": [],
      "stateMutability": "nonpayable",
      "type": "function"
    },
    {
      "inputs": [
        {
          "internalType": "address",
          "name": "orchestrator",
          "type": "address"
        }
      ],
      "name": "setInternalStatesOrchestrator",
      "outputs": [],
      "stateMutability": "nonpayable",
      "type": "function"
    },
    {
      "inputs": [
        {
          "internalType": "address",
          "name": "orchestrator",
          "type": "address"
        }
      ],
      "name": "setLiquidityOrchestrator",
      "outputs": [],
      "stateMutability": "nonpayable",
      "type": "function"
    },
    {
      "inputs": [
        {
          "internalType": "address",
          "name": "registry",
          "type": "address"
        }
      ],
      "name": "setPriceAdapterRegistry",
      "outputs": [],
      "stateMutability": "nonpayable",
      "type": "function"
    },
    {
      "inputs": [
        {
          "internalType": "uint8",
          "name": "_curatorIntentDecimals",
          "type": "uint8"
        },
        {
          "internalType": "uint8",
          "name": "_priceAdapterDecimals",
          "type": "uint8"
        },
        {
          "internalType": "uint256",
          "name": "_encryptedMinibatchSize",
          "type": "uint256"
        }
      ],
      "name": "setProtocolParams",
      "outputs": [],
      "stateMutability": "nonpayable",
      "type": "function"
    },
    {
      "inputs": [
        {
          "internalType": "address",
          "name": "asset",
          "type": "address"
        }
      ],
      "name": "setUnderlyingAsset",
      "outputs": [],
      "stateMutability": "nonpayable",
      "type": "function"
    },
    {
      "inputs": [
        {
          "internalType": "address",
          "name": "transparentFactory",
          "type": "address"
        },
        {
          "internalType": "address",
          "name": "encryptedFactory",
          "type": "address"
        }
      ],
      "name": "setVaultFactories",
      "outputs": [],
      "stateMutability": "nonpayable",
      "type": "function"
    },
    {
      "inputs": [
        {
          "internalType": "address",
          "name": "newOwner",
          "type": "address"
        }
      ],
      "name": "transferOwnership",
      "outputs": [],
      "stateMutability": "nonpayable",
      "type": "function"
    },
    {
      "inputs": [],
      "name": "transparentVaultFactory",
      "outputs": [
        {
          "internalType": "address",
          "name": "",
          "type": "address"
        }
      ],
      "stateMutability": "view",
      "type": "function"
    },
    {
      "inputs": [],
      "name": "underlyingAsset",
      "outputs": [
        {
          "internalType": "contract IERC20",
          "name": "",
          "type": "address"
        }
      ],
      "stateMutability": "view",
      "type": "function"
    },
    {
      "inputs": [],
      "name": "whitelistedAssetsLength",
      "outputs": [
        {
          "internalType": "uint256",
          "name": "",
          "type": "uint256"
        }
      ],
      "stateMutability": "view",
      "type": "function"
    }
  ],
  "bytecode": "0x6080604052348015600e575f5ffd5b5060405161137c38038061137c833981016040819052602b9160b4565b806001600160a01b038116605857604051631e4fbdf760e01b81525f600482015260240160405180910390fd5b605f816065565b505060df565b5f80546001600160a01b038381166001600160a01b0319831681178455604051919092169283917f8be0079c531659141344cd1fd0a4f28419497f9722a3daafe3b4186f6b6457e09190a35050565b5f6020828403121560c3575f5ffd5b81516001600160a01b038116811460d8575f5ffd5b9392505050565b611290806100ec5f395ff3fe608060405234801561000f575f5ffd5b506004361061015d575f3560e01c8063015df993146101615780630a567a2d1461018a5780630a8b78c71461019d57806319136dc2146101b25780631dbc3c04146101c55780632095b01e146101d857806323a06a1c146101eb57806325671dcb146101fe578063348ec5c81461021157806336021ef4146102245780633a0dad8e1461023b5780633af32abf1461024e578063567ba713146102715780635f24836814610297578063715018a61461029f5780637158da7c146102a75780637a0cb784146102ba578063849ede23146102cd5780638da5cb5b146102e057806391a848f3146102e8578063a51b8d5a146102fb578063b6dfcd8b1461030e578063c30dd72714610321578063d1717c7d14610334578063d86cd44e14610341578063e0876b4414610356578063ed04f21814610369578063edcf9c1f1461037c578063f2fde38b14610384575b5f5ffd5b600654610174906001600160a01b031681565b6040516101819190610ff6565b60405180910390f35b61017461019836600461100a565b610397565b6101b06101ab36600461103c565b6103a9565b005b6101b06101c0366004611065565b6103fa565b6101b06101d33660046110ad565b61048a565b6101b06101e636600461103c565b610547565b6101b06101f93660046110de565b6105bd565b6101b061020c36600461103c565b61070d565b600254610174906001600160a01b031681565b61022d60075481565b604051908152602001610181565b600354610174906001600160a01b031681565b61026161025c36600461103c565b61075e565b6040519015158152602001610181565b60065461028590600160a01b900460ff1681565b60405160ff9091168152602001610181565b61022d61076a565b6101b061077a565b600154610174906001600160a01b031681565b6101b06102c83660046110ad565b61078d565b600454610174906001600160a01b031681565b610174610888565b600554610174906001600160a01b031681565b6101b061030936600461111e565b610896565b6101b061031c36600461103c565b61093f565b6101b061032f36600461103c565b610a94565b6008546102859060ff1681565b610349610ae5565b6040516101819190611146565b61026161036436600461103c565b610b84565b610349610377366004611191565b610ba1565b610261610c69565b6101b061039236600461103c565b610d7a565b5f6103a3600983610db7565b92915050565b6103b1610dc9565b6001600160a01b0381166103d85760405163d92e233d60e01b815260040160405180910390fd5b600280546001600160a01b0319166001600160a01b0392909216919091179055565b610402610dc9565b61040a610c69565b610427576040516312aecd8160e01b815260040160405180910390fd5b6008805460ff191660ff858116919091179091556006805460ff60a01b1916600160a01b9285169290920291909117905560078190556040517fc56626e36ca25ee9a19c58d2d4f9a4569523b059e6aaeb263573ded93fc33c5a905f90a1505050565b610492610dc9565b61049a610c69565b6104b7576040516312aecd8160e01b815260040160405180910390fd5b5f60018260018111156104cc576104cc6111aa565b036104e3576104dc600d84610dfb565b90506104f1565b6104ee600b84610dfb565b90505b8061050f57604051631a27eac360e11b815260040160405180910390fd5b6040516001600160a01b038416907fe47da341e0fc63816c1254f1c35425f69460f49342668d11c984ea56762b00d4905f90a2505050565b61054f610dc9565b610557610c69565b610574576040516312aecd8160e01b815260040160405180910390fd5b6001600160a01b03811661059b5760405163d92e233d60e01b815260040160405180910390fd5b600680546001600160a01b0319166001600160a01b0392909216919091179055565b6105c5610dc9565b6105cd610c69565b6105ea576040516312aecd8160e01b815260040160405180910390fd5b5f6105f6600985610e0f565b90508061061657604051630ea075bf60e21b815260040160405180910390fd5b6006546040516302707eef60e51b81526001600160a01b0390911690634e0fdde09061064890879087906004016111be565b5f604051808303815f87803b15801561065f575f5ffd5b505af1158015610671573d5f5f3e3d5ffd5b50506003546040516359017aa960e01b81526001600160a01b0390911692506359017aa991506106a790879086906004016111be565b5f604051808303815f87803b1580156106be575f5ffd5b505af11580156106d0573d5f5f3e3d5ffd5b50506040516001600160a01b03871692507fdcbd8d9d0373041250f6c25b6b7aeccb3e9ff291e510ef85bb9f8ac09ceb6f6491505f90a250505050565b610715610dc9565b6001600160a01b03811661073c5760405163d92e233d60e01b815260040160405180910390fd5b600180546001600160a01b0319166001600160a01b0392909216919091179055565b5f6103a3600983610e23565b5f6107756009610e37565b905090565b610782610dc9565b61078b5f610e40565b565b6004546001600160a01b031633148015906107b357506005546001600160a01b03163314155b156107d157604051631a27eac360e11b815260040160405180910390fd5b6001600160a01b0382166107f85760405163d92e233d60e01b815260040160405180910390fd5b5f600182600181111561080d5761080d6111aa565b036108245761081d600d84610e0f565b9050610832565b61082f600b84610e0f565b90505b8061085057604051630ea075bf60e21b815260040160405180910390fd5b6040516001600160a01b038416907f9a7094a648c0524f3d62b9167886d30be0e68cf53863fe556edda348f189445a905f90a2505050565b5f546001600160a01b031690565b61089e610dc9565b6108a6610c69565b6108c3576040516312aecd8160e01b815260040160405180910390fd5b6001600160a01b0382166108ea5760405163d92e233d60e01b815260040160405180910390fd5b6001600160a01b0381166109115760405163d92e233d60e01b815260040160405180910390fd5b600480546001600160a01b039384166001600160a01b03199182161790915560058054929093169116179055565b610947610dc9565b61094f610c69565b61096c576040516312aecd8160e01b815260040160405180910390fd5b5f610978600983610dfb565b9050806109a3578160405163751dff9760e11b815260040161099a9190610ff6565b60405180910390fd5b600654604051634386017560e01b81526001600160a01b03909116906343860175906109d3908590600401610ff6565b5f604051808303815f87803b1580156109ea575f5ffd5b505af11580156109fc573d5f5f3e3d5ffd5b505060035460405163841181ef60e01b81526001600160a01b03909116925063841181ef9150610a30908590600401610ff6565b5f604051808303815f87803b158015610a47575f5ffd5b505af1158015610a59573d5f5f3e3d5ffd5b50506040516001600160a01b03851692507f952363a786fc6f24cfb955cd6207cf91ecee3a82a7dd0bc26891ff7647b5784c91505f90a25050565b610a9c610dc9565b6001600160a01b038116610ac35760405163d92e233d60e01b815260040160405180910390fd5b600380546001600160a01b0319166001600160a01b0392909216919091179055565b60605f610af26009610e37565b9050806001600160401b03811115610b0c57610b0c6111d8565b604051908082528060200260200182016040528015610b35578160200160208202803683370190505b5091505f5b81811015610b7f57610b4d600982610db7565b838281518110610b5f57610b5f6111ec565b6001600160a01b0390921660209283029190910190910152600101610b3a565b505090565b5f610b90600d83610e23565b806103a357506103a3600b83610e23565b60605f6001836001811115610bb857610bb86111aa565b14610bc457600b610bc7565b600d5b90505f610bd382610e37565b90505f816001600160401b03811115610bee57610bee6111d8565b604051908082528060200260200182016040528015610c17578160200160208202803683370190505b5090505f5b82811015610c6057610c2e8482610db7565b828281518110610c4057610c406111ec565b6001600160a01b0390921660209283029190910190910152600101610c1c565b50949350505050565b5f8060035f9054906101000a90046001600160a01b03166001600160a01b031663055ad42e6040518163ffffffff1660e01b8152600401602060405180830381865afa158015610cbb573d5f5f3e3d5ffd5b505050506040513d601f19601f82011682018060405250810190610cdf919061120c565b6003811115610cf057610cf06111aa565b1480156107755750600254604080516302ad6a1760e11b815290515f926001600160a01b03169163055ad42e9160048083019260209291908290030181865afa158015610d3f573d5f5f3e3d5ffd5b505050506040513d601f19601f82011682018060405250810190610d63919061120c565b6003811115610d7457610d746111aa565b14905090565b610d82610dc9565b6001600160a01b038116610dab575f604051631e4fbdf760e01b815260040161099a9190610ff6565b610db481610e40565b50565b5f610dc28383610e8f565b9392505050565b33610dd2610888565b6001600160a01b03161461078b573360405163118cdaa760e01b815260040161099a9190610ff6565b5f610dc2836001600160a01b038416610eb5565b5f610dc2836001600160a01b038416610f98565b5f610dc2836001600160a01b038416610fdf565b5f6103a3825490565b5f80546001600160a01b038381166001600160a01b0319831681178455604051919092169283917f8be0079c531659141344cd1fd0a4f28419497f9722a3daafe3b4186f6b6457e09190a35050565b5f825f018281548110610ea457610ea46111ec565b905f5260205f200154905092915050565b5f8181526001830160205260408120548015610f8f575f610ed7600183611227565b85549091505f90610eea90600190611227565b9050808214610f49575f865f018281548110610f0857610f086111ec565b905f5260205f200154905080875f018481548110610f2857610f286111ec565b5f918252602080832090910192909255918252600188019052604090208390555b8554869080610f5a57610f5a611246565b600190038181905f5260205f20015f90559055856001015f8681526020019081526020015f205f9055600193505050506103a3565b5f9150506103a3565b5f610fa38383610fdf565b610fd857508154600181810184555f8481526020808220909301849055845484825282860190935260409020919091556103a3565b505f6103a3565b5f9081526001919091016020526040902054151590565b6001600160a01b0391909116815260200190565b5f6020828403121561101a575f5ffd5b5035919050565b80356001600160a01b0381168114611037575f5ffd5b919050565b5f6020828403121561104c575f5ffd5b610dc282611021565b803560ff81168114611037575f5ffd5b5f5f5f60608486031215611077575f5ffd5b61108084611055565b925061108e60208501611055565b929592945050506040919091013590565b803560028110611037575f5ffd5b5f5f604083850312156110be575f5ffd5b6110c783611021565b91506110d56020840161109f565b90509250929050565b5f5f5f606084860312156110f0575f5ffd5b6110f984611021565b925061110760208501611021565b915061111560408501611021565b90509250925092565b5f5f6040838503121561112f575f5ffd5b61113883611021565b91506110d560208401611021565b602080825282518282018190525f918401906040840190835b818110156111865783516001600160a01b031683526020938401939092019160010161115f565b509095945050505050565b5f602082840312156111a1575f5ffd5b610dc28261109f565b634e487b7160e01b5f52602160045260245ffd5b6001600160a01b0392831681529116602082015260400190565b634e487b7160e01b5f52604160045260245ffd5b634e487b7160e01b5f52603260045260245ffd5b60048110610db4575f5ffd5b5f6020828403121561121c575f5ffd5b8151610dc281611200565b818103818111156103a357634e487b7160e01b5f52601160045260245ffd5b634e487b7160e01b5f52603160045260245ffdfea2646970667358221220a2ef4bf9abfa0d597be99bd862fea30db5826e7f2aecc01947600e1f666473b464736f6c634300081c0033",
  "linkReferences": {},
  "deployedLinkReferences": {}
}