{
  "_format": "hh-sol-artifact-1",
  "contractName": "OrionConfig",
  "sourceName": "contracts/OrionConfig.sol",
  "abi": [
    {
      "inputs": [
        {
          "internalType": "address",
          "name": "target",
          "type": "address"
        }
      ],
      "name": "AddressEmptyCode",
      "type": "error"
    },
    {
      "inputs": [],
      "name": "AlreadyAnOrionVault",
      "type": "error"
    },
    {
      "inputs": [],
      "name": "AlreadyWhitelisted",
      "type": "error"
    },
    {
      "inputs": [
        {
          "internalType": "address",
          "name": "implementation",
          "type": "address"
        }
      ],
      "name": "ERC1967InvalidImplementation",
      "type": "error"
    },
    {
      "inputs": [],
      "name": "ERC1967NonPayable",
      "type": "error"
    },
    {
      "inputs": [],
      "name": "FailedCall",
      "type": "error"
    },
    {
      "inputs": [],
      "name": "InvalidAsset",
      "type": "error"
    },
    {
      "inputs": [],
      "name": "InvalidInitialization",
      "type": "error"
    },
    {
      "inputs": [],
      "name": "InvalidInternalOrchestrator",
      "type": "error"
    },
    {
      "inputs": [],
      "name": "InvalidLiquidityOrchestrator",
      "type": "error"
    },
    {
      "inputs": [],
      "name": "InvalidMarketOracle",
      "type": "error"
    },
    {
      "inputs": [],
      "name": "NotAnOrionVault",
      "type": "error"
    },
    {
      "inputs": [],
      "name": "NotFactory",
      "type": "error"
    },
    {
      "inputs": [],
      "name": "NotInWhitelist",
      "type": "error"
    },
    {
      "inputs": [],
      "name": "NotInitializing",
      "type": "error"
    },
    {
      "inputs": [
        {
          "internalType": "address",
          "name": "owner",
          "type": "address"
        }
      ],
      "name": "OwnableInvalidOwner",
      "type": "error"
    },
    {
      "inputs": [
        {
          "internalType": "address",
          "name": "account",
          "type": "address"
        }
      ],
      "name": "OwnableUnauthorizedAccount",
      "type": "error"
    },
    {
      "inputs": [],
      "name": "UUPSUnauthorizedCallContext",
      "type": "error"
    },
    {
      "inputs": [
        {
          "internalType": "bytes32",
          "name": "slot",
          "type": "bytes32"
        }
      ],
      "name": "UUPSUnsupportedProxiableUUID",
      "type": "error"
    },
    {
      "inputs": [],
      "name": "ZeroAddress",
      "type": "error"
    },
    {
      "anonymous": false,
      "inputs": [
        {
          "indexed": false,
          "internalType": "uint64",
          "name": "version",
          "type": "uint64"
        }
      ],
      "name": "Initialized",
      "type": "event"
    },
    {
      "anonymous": false,
      "inputs": [
        {
          "indexed": true,
          "internalType": "address",
          "name": "vault",
          "type": "address"
        }
      ],
      "name": "OrionVaultAdded",
      "type": "event"
    },
    {
      "anonymous": false,
      "inputs": [
        {
          "indexed": true,
          "internalType": "address",
          "name": "vault",
          "type": "address"
        }
      ],
      "name": "OrionVaultRemoved",
      "type": "event"
    },
    {
      "anonymous": false,
      "inputs": [
        {
          "indexed": true,
          "internalType": "address",
          "name": "previousOwner",
          "type": "address"
        },
        {
          "indexed": true,
          "internalType": "address",
          "name": "newOwner",
          "type": "address"
        }
      ],
      "name": "OwnershipTransferStarted",
      "type": "event"
    },
    {
      "anonymous": false,
      "inputs": [
        {
          "indexed": true,
          "internalType": "address",
          "name": "previousOwner",
          "type": "address"
        },
        {
          "indexed": true,
          "internalType": "address",
          "name": "newOwner",
          "type": "address"
        }
      ],
      "name": "OwnershipTransferred",
      "type": "event"
    },
    {
      "anonymous": false,
      "inputs": [
        {
          "indexed": false,
          "internalType": "address",
          "name": "underlyingAsset",
          "type": "address"
        },
        {
          "indexed": false,
          "internalType": "address",
          "name": "internalStatesOrchestrator",
          "type": "address"
        },
        {
          "indexed": false,
          "internalType": "address",
          "name": "liquidityOrchestrator",
          "type": "address"
        },
        {
          "indexed": false,
          "internalType": "contract IMarketOracle",
          "name": "marketOracle",
          "type": "address"
        },
        {
          "indexed": false,
          "internalType": "uint256",
          "name": "curatorIntentDecimals",
          "type": "uint256"
        },
        {
          "indexed": false,
          "internalType": "string",
          "name": "fhePublicCID",
          "type": "string"
        },
        {
          "indexed": false,
          "internalType": "address",
          "name": "factory",
          "type": "address"
        }
      ],
      "name": "ProtocolParamsUpdated",
      "type": "event"
    },
    {
      "anonymous": false,
      "inputs": [
        {
          "indexed": false,
          "internalType": "string",
          "name": "newCID",
          "type": "string"
        }
      ],
      "name": "PublicCIDUpdated",
      "type": "event"
    },
    {
      "anonymous": false,
      "inputs": [
        {
          "indexed": true,
          "internalType": "address",
          "name": "implementation",
          "type": "address"
        }
      ],
      "name": "Upgraded",
      "type": "event"
    },
    {
      "anonymous": false,
      "inputs": [
        {
          "indexed": true,
          "internalType": "address",
          "name": "asset",
          "type": "address"
        }
      ],
      "name": "WhitelistedAssetAdded",
      "type": "event"
    },
    {
      "anonymous": false,
      "inputs": [
        {
          "indexed": true,
          "internalType": "address",
          "name": "asset",
          "type": "address"
        }
      ],
      "name": "WhitelistedAssetRemoved",
      "type": "event"
    },
    {
      "inputs": [],
      "name": "UPGRADE_INTERFACE_VERSION",
      "outputs": [
        {
          "internalType": "string",
          "name": "",
          "type": "string"
        }
      ],
      "stateMutability": "view",
      "type": "function"
    },
    {
      "inputs": [],
      "name": "acceptOwnership",
      "outputs": [],
      "stateMutability": "nonpayable",
      "type": "function"
    },
    {
      "inputs": [
        {
          "internalType": "address",
          "name": "vault",
          "type": "address"
        }
      ],
      "name": "addOrionVault",
      "outputs": [],
      "stateMutability": "nonpayable",
      "type": "function"
    },
    {
      "inputs": [
        {
          "internalType": "address",
          "name": "asset",
          "type": "address"
        }
      ],
      "name": "addWhitelistedAsset",
      "outputs": [],
      "stateMutability": "nonpayable",
      "type": "function"
    },
    {
      "inputs": [],
      "name": "curatorIntentDecimals",
      "outputs": [
        {
          "internalType": "uint8",
          "name": "",
          "type": "uint8"
        }
      ],
      "stateMutability": "view",
      "type": "function"
    },
    {
      "inputs": [],
      "name": "fhePublicCID",
      "outputs": [
        {
          "internalType": "string",
          "name": "",
          "type": "string"
        }
      ],
      "stateMutability": "view",
      "type": "function"
    },
    {
      "inputs": [
        {
          "internalType": "uint256",
          "name": "index",
          "type": "uint256"
        }
      ],
      "name": "getOrionVaultAt",
      "outputs": [
        {
          "internalType": "address",
          "name": "",
          "type": "address"
        }
      ],
      "stateMutability": "view",
      "type": "function"
    },
    {
      "inputs": [
        {
          "internalType": "uint256",
          "name": "index",
          "type": "uint256"
        }
      ],
      "name": "getWhitelistedAssetAt",
      "outputs": [
        {
          "internalType": "address",
          "name": "",
          "type": "address"
        }
      ],
      "stateMutability": "view",
      "type": "function"
    },
    {
      "inputs": [
        {
          "internalType": "address",
          "name": "initialOwner",
          "type": "address"
        }
      ],
      "name": "initialize",
      "outputs": [],
      "stateMutability": "nonpayable",
      "type": "function"
    },
    {
      "inputs": [],
      "name": "internalStatesOrchestrator",
      "outputs": [
        {
          "internalType": "address",
          "name": "",
          "type": "address"
        }
      ],
      "stateMutability": "view",
      "type": "function"
    },
    {
      "inputs": [
        {
          "internalType": "address",
          "name": "asset",
          "type": "address"
        }
      ],
      "name": "isWhitelisted",
      "outputs": [
        {
          "internalType": "bool",
          "name": "",
          "type": "bool"
        }
      ],
      "stateMutability": "view",
      "type": "function"
    },
    {
      "inputs": [],
      "name": "liquidityOrchestrator",
      "outputs": [
        {
          "internalType": "address",
          "name": "",
          "type": "address"
        }
      ],
      "stateMutability": "view",
      "type": "function"
    },
    {
      "inputs": [],
      "name": "marketOracle",
      "outputs": [
        {
          "internalType": "contract IMarketOracle",
          "name": "",
          "type": "address"
        }
      ],
      "stateMutability": "view",
      "type": "function"
    },
    {
      "inputs": [],
      "name": "orionVaultsLength",
      "outputs": [
        {
          "internalType": "uint256",
          "name": "",
          "type": "uint256"
        }
      ],
      "stateMutability": "view",
      "type": "function"
    },
    {
      "inputs": [],
      "name": "owner",
      "outputs": [
        {
          "internalType": "address",
          "name": "",
          "type": "address"
        }
      ],
      "stateMutability": "view",
      "type": "function"
    },
    {
      "inputs": [],
      "name": "pendingOwner",
      "outputs": [
        {
          "internalType": "address",
          "name": "",
          "type": "address"
        }
      ],
      "stateMutability": "view",
      "type": "function"
    },
    {
      "inputs": [],
      "name": "proxiableUUID",
      "outputs": [
        {
          "internalType": "bytes32",
          "name": "",
          "type": "bytes32"
        }
      ],
      "stateMutability": "view",
      "type": "function"
    },
    {
      "inputs": [
        {
          "internalType": "address",
          "name": "vault",
          "type": "address"
        }
      ],
      "name": "removeOrionVault",
      "outputs": [],
      "stateMutability": "nonpayable",
      "type": "function"
    },
    {
      "inputs": [
        {
          "internalType": "address",
          "name": "asset",
          "type": "address"
        }
      ],
      "name": "removeWhitelistedAsset",
      "outputs": [],
      "stateMutability": "nonpayable",
      "type": "function"
    },
    {
      "inputs": [],
      "name": "renounceOwnership",
      "outputs": [],
      "stateMutability": "nonpayable",
      "type": "function"
    },
    {
      "inputs": [
        {
          "internalType": "address",
          "name": "_underlyingAsset",
          "type": "address"
        },
        {
          "internalType": "address",
          "name": "_internalStatesOrchestrator",
          "type": "address"
        },
        {
          "internalType": "address",
          "name": "_liquidityOrchestrator",
          "type": "address"
        },
        {
          "internalType": "contract IMarketOracle",
          "name": "_marketOracle",
          "type": "address"
        },
        {
          "internalType": "uint8",
          "name": "_curatorIntentDecimals",
          "type": "uint8"
        },
        {
          "internalType": "string",
          "name": "_fhePublicCID",
          "type": "string"
        },
        {
          "internalType": "address",
          "name": "_factory",
          "type": "address"
        }
      ],
      "name": "setProtocolParams",
      "outputs": [],
      "stateMutability": "nonpayable",
      "type": "function"
    },
    {
      "inputs": [
        {
          "internalType": "address",
          "name": "newOwner",
          "type": "address"
        }
      ],
      "name": "transferOwnership",
      "outputs": [],
      "stateMutability": "nonpayable",
      "type": "function"
    },
    {
      "inputs": [],
      "name": "underlyingAsset",
      "outputs": [
        {
          "internalType": "contract IERC20",
          "name": "",
          "type": "address"
        }
      ],
      "stateMutability": "view",
      "type": "function"
    },
    {
      "inputs": [
        {
          "internalType": "string",
          "name": "newCID",
          "type": "string"
        }
      ],
      "name": "updateFhePublicCID",
      "outputs": [],
      "stateMutability": "nonpayable",
      "type": "function"
    },
    {
      "inputs": [
        {
          "internalType": "address",
          "name": "newImplementation",
          "type": "address"
        },
        {
          "internalType": "bytes",
          "name": "data",
          "type": "bytes"
        }
      ],
      "name": "upgradeToAndCall",
      "outputs": [],
      "stateMutability": "payable",
      "type": "function"
    },
    {
      "inputs": [],
      "name": "vaultFactory",
      "outputs": [
        {
          "internalType": "address",
          "name": "",
          "type": "address"
        }
      ],
      "stateMutability": "view",
      "type": "function"
    },
    {
      "inputs": [],
      "name": "whitelistedAssetsLength",
      "outputs": [
        {
          "internalType": "uint256",
          "name": "",
          "type": "uint256"
        }
      ],
      "stateMutability": "view",
      "type": "function"
    }
  ],
  "bytecode": "0x60a0604052306080523480156012575f80fd5b506080516117e36100395f395f8181610c6401528181610c8d0152610dd101526117e35ff3fe608060405260043610610195575f3560e01c8063862a5f06116100e7578063bfba8f6611610087578063d8a06f7311610062578063d8a06f7314610476578063e30c397814610495578063eb1a5bb9146104a9578063f2fde38b146104c8575f80fd5b8063bfba8f6614610406578063c4d66de814610425578063d1717c7d14610444575f80fd5b8063aa360c16116100c2578063aa360c1614610382578063ab6ca91014610396578063ad3cb1cc146103b7578063b6dfcd8b146103e7575f80fd5b8063862a5f06146103305780638da5cb5b1461034f578063a87dd6d914610363575f80fd5b806352d1902d11610152578063715018a61161012d578063715018a6146102cb5780637158da7c146102df57806375262042146102fd57806379ba50971461031c575f80fd5b806352d1902d146102765780635f2483681461029857806360961528146102ac575f80fd5b80630740f2ac146101995780630a567a2d146101d5578063348ec5c8146101f45780633a0dad8e146102135780633af32abf146102325780634f1ef28614610261575b5f80fd5b3480156101a4575f80fd5b506101b86101b33660046112ab565b6104e7565b6040516001600160a01b0390911681526020015b60405180910390f35b3480156101e0575f80fd5b506101b86101ef3660046112ab565b6104f9565b3480156101ff575f80fd5b506001546101b8906001600160a01b031681565b34801561021e575f80fd5b506002546101b8906001600160a01b031681565b34801561023d575f80fd5b5061025161024c3660046112d6565b610505565b60405190151581526020016101cc565b61027461026f366004611305565b610511565b005b348015610281575f80fd5b5061028a610530565b6040519081526020016101cc565b3480156102a3575f80fd5b5061028a61054b565b3480156102b7575f80fd5b506003546101b8906001600160a01b031681565b3480156102d6575f80fd5b5061027461055b565b3480156102ea575f80fd5b505f546101b8906001600160a01b031681565b348015610308575f80fd5b50610274610317366004611410565b61056e565b348015610327575f80fd5b506102746105c1565b34801561033b575f80fd5b5061027461034a3660046112d6565b61060e565b34801561035a575f80fd5b506101b861069c565b34801561036e575f80fd5b5061027461037d36600461144f565b6106d0565b34801561038d575f80fd5b5061028a610875565b3480156103a1575f80fd5b506103aa610880565b6040516101cc9190611502565b3480156103c2575f80fd5b506103aa604051806040016040528060058152602001640352e302e360dc1b81525081565b3480156103f2575f80fd5b506102746104013660046112d6565b61090c565b348015610411575f80fd5b506102746104203660046112d6565b610977565b348015610430575f80fd5b5061027461043f3660046112d6565b6109e2565b34801561044f575f80fd5b5060045461046490600160a01b900460ff1681565b60405160ff90911681526020016101cc565b348015610481575f80fd5b506004546101b8906001600160a01b031681565b3480156104a0575f80fd5b506101b8610aeb565b3480156104b4575f80fd5b506102746104c33660046112d6565b610b13565b3480156104d3575f80fd5b506102746104e23660046112d6565b610ba1565b5f6104f3600883610c26565b92915050565b5f6104f3600683610c26565b5f6104f3600683610c38565b610519610c59565b61052282610cfd565b61052c8282610d05565b5050565b5f610539610dc6565b505f8051602061178e83398151915290565b5f6105566006610e0f565b905090565b610563610e18565b61056c5f610e4a565b565b610576610e18565b60056105838284836115ba565b507fd2be23666710f4d83b0ae1641d087fb8ba2a04ddf1581071c2fd2e9eeee57aa582826040516105b592919061169c565b60405180910390a15050565b33806105cb610aeb565b6001600160a01b0316146106025760405163118cdaa760e01b81526001600160a01b03821660048201526024015b60405180910390fd5b61060b81610e4a565b50565b6004546001600160a01b0316331461063957604051631966391b60e11b815260040160405180910390fd5b5f610645600883610e82565b90508061066557604051632fa1facb60e01b815260040160405180910390fd5b6040516001600160a01b038316907fe47da341e0fc63816c1254f1c35425f69460f49342668d11c984ea56762b00d4905f90a25050565b5f807f9016d09d72d40fdae2fd8ceac6b6234c7706214fd39c1cd1e609a0528c1993005b546001600160a01b031692915050565b6106d8610e18565b6001600160a01b0388166106ff57604051636448d6e960e11b815260040160405180910390fd5b6001600160a01b03871661072657604051635c1de4f160e01b815260040160405180910390fd5b6001600160a01b03861661074d5760405163c4a0c25d60e01b815260040160405180910390fd5b6001600160a01b038516610774576040516319800aa760e21b815260040160405180910390fd5b6001600160a01b03811661079b5760405163d92e233d60e01b815260040160405180910390fd5b5f80546001600160a01b03199081166001600160a01b038b8116919091179092556001805482168a8416179055600280548216898416179055600380549091169187169190911790556004805460ff60a01b1916600160a01b60ff87160217905560056108098385836115ba565b50600480546001600160a01b0319166001600160a01b0383161790556040517f8a3f9b88bdb5df291e6ea7554b3e6bfaf076941024dfee5f193adea6c8ed183d90610863908a908a908a908a908a908a908a908a906116b7565b60405180910390a15050505050505050565b5f6105566008610e0f565b6005805461088d90611537565b80601f01602080910402602001604051908101604052809291908181526020018280546108b990611537565b80156109045780601f106108db57610100808354040283529160200191610904565b820191905f5260205f20905b8154815290600101906020018083116108e757829003601f168201915b505050505081565b610914610e18565b5f610920600683610e82565b90508061094057604051632d85515d60e11b815260040160405180910390fd5b6040516001600160a01b038316907f952363a786fc6f24cfb955cd6207cf91ecee3a82a7dd0bc26891ff7647b5784c905f90a25050565b61097f610e18565b5f61098b600683610e96565b9050806109ab5760405163b73e95e160e01b815260040160405180910390fd5b6040516001600160a01b038316907fdcbd8d9d0373041250f6c25b6b7aeccb3e9ff291e510ef85bb9f8ac09ceb6f64905f90a25050565b5f6109eb610eaa565b805490915060ff600160401b820416159067ffffffffffffffff165f81158015610a125750825b90505f8267ffffffffffffffff166001148015610a2e5750303b155b905081158015610a3c575080155b15610a5a5760405163f92ee8a960e01b815260040160405180910390fd5b845467ffffffffffffffff191660011785558315610a8457845460ff60401b1916600160401b1785555b610a8c610ed2565b610a94610ed2565b610a9d86610e4a565b8315610ae357845460ff60401b19168555604051600181527fc7f505b2f371ae2175ee4913f4499e1f2633a7b5936321eed1cdaeb6115181d29060200160405180910390a15b505050505050565b5f807f237e158222e3e6968b72b9db0d8043aacf074ad9f650f0d1606b4d82ee432c006106c0565b6004546001600160a01b03163314610b3e57604051631966391b60e11b815260040160405180910390fd5b5f610b4a600883610e96565b905080610b6a57604051633c0c06e960e21b815260040160405180910390fd5b6040516001600160a01b038316907f9a7094a648c0524f3d62b9167886d30be0e68cf53863fe556edda348f189445a905f90a25050565b610ba9610e18565b7f237e158222e3e6968b72b9db0d8043aacf074ad9f650f0d1606b4d82ee432c0080546001600160a01b0319166001600160a01b0383169081178255610bed61069c565b6001600160a01b03167f38d16b8cac22d99fc7c124b9cd0de2d3fa1faef420bfe791d8c362d765e2270060405160405180910390a35050565b5f610c318383610eda565b9392505050565b6001600160a01b0381165f9081526001830160205260408120541515610c31565b306001600160a01b037f0000000000000000000000000000000000000000000000000000000000000000161480610cdf57507f00000000000000000000000000000000000000000000000000000000000000006001600160a01b0316610cd35f8051602061178e833981519152546001600160a01b031690565b6001600160a01b031614155b1561056c5760405163703e46dd60e11b815260040160405180910390fd5b61060b610e18565b816001600160a01b03166352d1902d6040518163ffffffff1660e01b8152600401602060405180830381865afa925050508015610d5f575060408051601f3d908101601f19168201909252610d5c91810190611719565b60015b610d8757604051634c9c8ce360e01b81526001600160a01b03831660048201526024016105f9565b5f8051602061178e8339815191528114610db757604051632a87526960e21b8152600481018290526024016105f9565b610dc18383610f00565b505050565b306001600160a01b037f0000000000000000000000000000000000000000000000000000000000000000161461056c5760405163703e46dd60e11b815260040160405180910390fd5b5f6104f3825490565b33610e2161069c565b6001600160a01b03161461056c5760405163118cdaa760e01b81523360048201526024016105f9565b7f237e158222e3e6968b72b9db0d8043aacf074ad9f650f0d1606b4d82ee432c0080546001600160a01b031916815561052c82610f55565b5f610c31836001600160a01b038416610fc5565b5f610c31836001600160a01b0384166110a8565b5f807ff0c57e16840df040f15088dc2f81fe391c3923bec73e23a9662efc9c229c6a006104f3565b61056c6110f4565b5f825f018281548110610eef57610eef611730565b905f5260205f200154905092915050565b610f0982611119565b6040516001600160a01b038316907fbc7cd75a20ee27fd9adebab32041f755214dbc6bffa90cc0225b39da2e5c2d3b905f90a2805115610f4d57610dc1828261117c565b61052c6111ee565b7f9016d09d72d40fdae2fd8ceac6b6234c7706214fd39c1cd1e609a0528c19930080546001600160a01b031981166001600160a01b03848116918217845560405192169182907f8be0079c531659141344cd1fd0a4f28419497f9722a3daafe3b4186f6b6457e0905f90a3505050565b5f818152600183016020526040812054801561109f575f610fe7600183611744565b85549091505f90610ffa90600190611744565b9050808214611059575f865f01828154811061101857611018611730565b905f5260205f200154905080875f01848154811061103857611038611730565b5f918252602080832090910192909255918252600188019052604090208390555b855486908061106a5761106a611763565b600190038181905f5260205f20015f90559055856001015f8681526020019081526020015f205f9055600193505050506104f3565b5f9150506104f3565b5f8181526001830160205260408120546110ed57508154600181810184555f8481526020808220909301849055845484825282860190935260409020919091556104f3565b505f6104f3565b6110fc61120d565b61056c57604051631afcd79f60e31b815260040160405180910390fd5b806001600160a01b03163b5f0361114e57604051634c9c8ce360e01b81526001600160a01b03821660048201526024016105f9565b5f8051602061178e83398151915280546001600160a01b0319166001600160a01b0392909216919091179055565b60605f80846001600160a01b0316846040516111989190611777565b5f60405180830381855af49150503d805f81146111d0576040519150601f19603f3d011682016040523d82523d5f602084013e6111d5565b606091505b50915091506111e5858383611226565b95945050505050565b341561056c5760405163b398979f60e01b815260040160405180910390fd5b5f611216610eaa565b54600160401b900460ff16919050565b60608261123b5761123682611282565b610c31565b815115801561125257506001600160a01b0384163b155b1561127b57604051639996b31560e01b81526001600160a01b03851660048201526024016105f9565b5092915050565b8051156112925780518082602001fd5b60405163d6bda27560e01b815260040160405180910390fd5b5f602082840312156112bb575f80fd5b5035919050565b6001600160a01b038116811461060b575f80fd5b5f602082840312156112e6575f80fd5b8135610c31816112c2565b634e487b7160e01b5f52604160045260245ffd5b5f8060408385031215611316575f80fd5b8235611321816112c2565b9150602083013567ffffffffffffffff81111561133c575f80fd5b8301601f8101851361134c575f80fd5b803567ffffffffffffffff811115611366576113666112f1565b604051601f8201601f19908116603f0116810167ffffffffffffffff81118282101715611395576113956112f1565b6040528181528282016020018710156113ac575f80fd5b816020840160208301375f602083830101528093505050509250929050565b5f8083601f8401126113db575f80fd5b50813567ffffffffffffffff8111156113f2575f80fd5b602083019150836020828501011115611409575f80fd5b9250929050565b5f8060208385031215611421575f80fd5b823567ffffffffffffffff811115611437575f80fd5b611443858286016113cb565b90969095509350505050565b5f805f805f805f8060e0898b031215611466575f80fd5b8835611471816112c2565b97506020890135611481816112c2565b96506040890135611491816112c2565b955060608901356114a1816112c2565b9450608089013560ff811681146114b6575f80fd5b935060a089013567ffffffffffffffff8111156114d1575f80fd5b6114dd8b828c016113cb565b90945092505060c08901356114f1816112c2565b809150509295985092959890939650565b602081525f82518060208401528060208501604085015e5f604082850101526040601f19601f83011684010191505092915050565b600181811c9082168061154b57607f821691505b60208210810361156957634e487b7160e01b5f52602260045260245ffd5b50919050565b601f821115610dc157805f5260205f20601f840160051c810160208510156115945750805b601f840160051c820191505b818110156115b3575f81556001016115a0565b5050505050565b67ffffffffffffffff8311156115d2576115d26112f1565b6115e6836115e08354611537565b8361156f565b5f601f841160018114611617575f85156116005750838201355b5f19600387901b1c1916600186901b1783556115b3565b5f83815260208120601f198716915b828110156116465786850135825560209485019460019092019101611626565b5086821015611662575f1960f88860031b161c19848701351681555b505060018560011b0183555050505050565b81835281816020850137505f828201602090810191909152601f909101601f19169091010190565b602081525f6116af602083018486611674565b949350505050565b6001600160a01b038981168252888116602083015287811660408301528616606082015260ff8516608082015260e060a082018190525f906116fc9083018587611674565b905060018060a01b03831660c08301529998505050505050505050565b5f60208284031215611729575f80fd5b5051919050565b634e487b7160e01b5f52603260045260245ffd5b818103818111156104f357634e487b7160e01b5f52601160045260245ffd5b634e487b7160e01b5f52603160045260245ffd5b5f82518060208501845e5f92019182525091905056fe360894a13ba1a3210667c828492db98dca3e2076cc3735a920a3ca505d382bbca26469706673582212206af870d7e2df6a1a7d5ea2153b9268e15a1db7434d340cbd760a54f07d599f9c64736f6c634300081a0033",
  "linkReferences": {},
  "deployedLinkReferences": {}
}