{
  "_format": "hh-sol-artifact-1",
  "contractName": "OrionConfig",
  "sourceName": "contracts/OrionConfig.sol",
  "abi": [
    {
      "inputs": [
        {
          "internalType": "address",
          "name": "target",
          "type": "address"
        }
      ],
      "name": "AddressEmptyCode",
      "type": "error"
    },
    {
      "inputs": [],
      "name": "AlreadyAnOrionVault",
      "type": "error"
    },
    {
      "inputs": [],
      "name": "AlreadyWhitelisted",
      "type": "error"
    },
    {
      "inputs": [
        {
          "internalType": "address",
          "name": "implementation",
          "type": "address"
        }
      ],
      "name": "ERC1967InvalidImplementation",
      "type": "error"
    },
    {
      "inputs": [],
      "name": "ERC1967NonPayable",
      "type": "error"
    },
    {
      "inputs": [],
      "name": "FailedCall",
      "type": "error"
    },
    {
      "inputs": [],
      "name": "InvalidInitialization",
      "type": "error"
    },
    {
      "inputs": [],
      "name": "NotAnOrionVault",
      "type": "error"
    },
    {
      "inputs": [],
      "name": "NotFactory",
      "type": "error"
    },
    {
      "inputs": [],
      "name": "NotInitializing",
      "type": "error"
    },
    {
      "inputs": [
        {
          "internalType": "address",
          "name": "owner",
          "type": "address"
        }
      ],
      "name": "OwnableInvalidOwner",
      "type": "error"
    },
    {
      "inputs": [
        {
          "internalType": "address",
          "name": "account",
          "type": "address"
        }
      ],
      "name": "OwnableUnauthorizedAccount",
      "type": "error"
    },
    {
      "inputs": [
        {
          "internalType": "address",
          "name": "token",
          "type": "address"
        }
      ],
      "name": "TokenNotWhitelisted",
      "type": "error"
    },
    {
      "inputs": [],
      "name": "UUPSUnauthorizedCallContext",
      "type": "error"
    },
    {
      "inputs": [
        {
          "internalType": "bytes32",
          "name": "slot",
          "type": "bytes32"
        }
      ],
      "name": "UUPSUnsupportedProxiableUUID",
      "type": "error"
    },
    {
      "inputs": [],
      "name": "ZeroAddress",
      "type": "error"
    },
    {
      "anonymous": false,
      "inputs": [
        {
          "indexed": false,
          "internalType": "uint64",
          "name": "version",
          "type": "uint64"
        }
      ],
      "name": "Initialized",
      "type": "event"
    },
    {
      "anonymous": false,
      "inputs": [
        {
          "indexed": true,
          "internalType": "address",
          "name": "vault",
          "type": "address"
        }
      ],
      "name": "OrionVaultAdded",
      "type": "event"
    },
    {
      "anonymous": false,
      "inputs": [
        {
          "indexed": true,
          "internalType": "address",
          "name": "vault",
          "type": "address"
        }
      ],
      "name": "OrionVaultRemoved",
      "type": "event"
    },
    {
      "anonymous": false,
      "inputs": [
        {
          "indexed": true,
          "internalType": "address",
          "name": "previousOwner",
          "type": "address"
        },
        {
          "indexed": true,
          "internalType": "address",
          "name": "newOwner",
          "type": "address"
        }
      ],
      "name": "OwnershipTransferStarted",
      "type": "event"
    },
    {
      "anonymous": false,
      "inputs": [
        {
          "indexed": true,
          "internalType": "address",
          "name": "previousOwner",
          "type": "address"
        },
        {
          "indexed": true,
          "internalType": "address",
          "name": "newOwner",
          "type": "address"
        }
      ],
      "name": "OwnershipTransferred",
      "type": "event"
    },
    {
      "anonymous": false,
      "inputs": [],
      "name": "ProtocolParamsUpdated",
      "type": "event"
    },
    {
      "anonymous": false,
      "inputs": [
        {
          "indexed": true,
          "internalType": "address",
          "name": "implementation",
          "type": "address"
        }
      ],
      "name": "Upgraded",
      "type": "event"
    },
    {
      "anonymous": false,
      "inputs": [
        {
          "indexed": true,
          "internalType": "address",
          "name": "asset",
          "type": "address"
        }
      ],
      "name": "WhitelistedAssetAdded",
      "type": "event"
    },
    {
      "anonymous": false,
      "inputs": [
        {
          "indexed": true,
          "internalType": "address",
          "name": "asset",
          "type": "address"
        }
      ],
      "name": "WhitelistedAssetRemoved",
      "type": "event"
    },
    {
      "inputs": [],
      "name": "UPGRADE_INTERFACE_VERSION",
      "outputs": [
        {
          "internalType": "string",
          "name": "",
          "type": "string"
        }
      ],
      "stateMutability": "view",
      "type": "function"
    },
    {
      "inputs": [],
      "name": "acceptOwnership",
      "outputs": [],
      "stateMutability": "nonpayable",
      "type": "function"
    },
    {
      "inputs": [
        {
          "internalType": "address",
          "name": "vault",
          "type": "address"
        },
        {
          "internalType": "enum EventsLib.VaultType",
          "name": "vaultType",
          "type": "uint8"
        }
      ],
      "name": "addOrionVault",
      "outputs": [],
      "stateMutability": "nonpayable",
      "type": "function"
    },
    {
      "inputs": [
        {
          "internalType": "address",
          "name": "asset",
          "type": "address"
        },
        {
          "internalType": "address",
          "name": "oracleAdapter",
          "type": "address"
        },
        {
          "internalType": "address",
          "name": "executionAdapter",
          "type": "address"
        }
      ],
      "name": "addWhitelistedAsset",
      "outputs": [],
      "stateMutability": "nonpayable",
      "type": "function"
    },
    {
      "inputs": [],
      "name": "curatorIntentDecimals",
      "outputs": [
        {
          "internalType": "uint8",
          "name": "",
          "type": "uint8"
        }
      ],
      "stateMutability": "view",
      "type": "function"
    },
    {
      "inputs": [
        {
          "internalType": "enum EventsLib.VaultType",
          "name": "vaultType",
          "type": "uint8"
        }
      ],
      "name": "getAllOrionVaults",
      "outputs": [
        {
          "internalType": "address[]",
          "name": "",
          "type": "address[]"
        }
      ],
      "stateMutability": "view",
      "type": "function"
    },
    {
      "inputs": [],
      "name": "getAllWhitelistedAssets",
      "outputs": [
        {
          "internalType": "address[]",
          "name": "assets",
          "type": "address[]"
        }
      ],
      "stateMutability": "view",
      "type": "function"
    },
    {
      "inputs": [
        {
          "internalType": "uint256",
          "name": "index",
          "type": "uint256"
        }
      ],
      "name": "getWhitelistedAssetAt",
      "outputs": [
        {
          "internalType": "address",
          "name": "",
          "type": "address"
        }
      ],
      "stateMutability": "view",
      "type": "function"
    },
    {
      "inputs": [
        {
          "internalType": "address",
          "name": "initialOwner",
          "type": "address"
        }
      ],
      "name": "initialize",
      "outputs": [],
      "stateMutability": "nonpayable",
      "type": "function"
    },
    {
      "inputs": [],
      "name": "internalStatesOrchestrator",
      "outputs": [
        {
          "internalType": "address",
          "name": "",
          "type": "address"
        }
      ],
      "stateMutability": "view",
      "type": "function"
    },
    {
      "inputs": [
        {
          "internalType": "address",
          "name": "vault",
          "type": "address"
        }
      ],
      "name": "isOrionVault",
      "outputs": [
        {
          "internalType": "bool",
          "name": "",
          "type": "bool"
        }
      ],
      "stateMutability": "view",
      "type": "function"
    },
    {
      "inputs": [
        {
          "internalType": "address",
          "name": "asset",
          "type": "address"
        }
      ],
      "name": "isWhitelisted",
      "outputs": [
        {
          "internalType": "bool",
          "name": "",
          "type": "bool"
        }
      ],
      "stateMutability": "view",
      "type": "function"
    },
    {
      "inputs": [],
      "name": "liquidityOrchestrator",
      "outputs": [
        {
          "internalType": "address",
          "name": "",
          "type": "address"
        }
      ],
      "stateMutability": "view",
      "type": "function"
    },
    {
      "inputs": [],
      "name": "oracleRegistry",
      "outputs": [
        {
          "internalType": "address",
          "name": "",
          "type": "address"
        }
      ],
      "stateMutability": "view",
      "type": "function"
    },
    {
      "inputs": [],
      "name": "owner",
      "outputs": [
        {
          "internalType": "address",
          "name": "",
          "type": "address"
        }
      ],
      "stateMutability": "view",
      "type": "function"
    },
    {
      "inputs": [],
      "name": "pendingOwner",
      "outputs": [
        {
          "internalType": "address",
          "name": "",
          "type": "address"
        }
      ],
      "stateMutability": "view",
      "type": "function"
    },
    {
      "inputs": [],
      "name": "proxiableUUID",
      "outputs": [
        {
          "internalType": "bytes32",
          "name": "",
          "type": "bytes32"
        }
      ],
      "stateMutability": "view",
      "type": "function"
    },
    {
      "inputs": [
        {
          "internalType": "address",
          "name": "vault",
          "type": "address"
        },
        {
          "internalType": "enum EventsLib.VaultType",
          "name": "vaultType",
          "type": "uint8"
        }
      ],
      "name": "removeOrionVault",
      "outputs": [],
      "stateMutability": "nonpayable",
      "type": "function"
    },
    {
      "inputs": [
        {
          "internalType": "address",
          "name": "asset",
          "type": "address"
        }
      ],
      "name": "removeWhitelistedAsset",
      "outputs": [],
      "stateMutability": "nonpayable",
      "type": "function"
    },
    {
      "inputs": [],
      "name": "renounceOwnership",
      "outputs": [],
      "stateMutability": "nonpayable",
      "type": "function"
    },
    {
      "inputs": [
        {
          "internalType": "address",
          "name": "underlyingAsset_",
          "type": "address"
        },
        {
          "internalType": "address",
          "name": "internalStatesOrchestrator_",
          "type": "address"
        },
        {
          "internalType": "address",
          "name": "liquidityOrchestrator_",
          "type": "address"
        },
        {
          "internalType": "uint8",
          "name": "curatorIntentDecimals_",
          "type": "uint8"
        },
        {
          "internalType": "address",
          "name": "factory_",
          "type": "address"
        },
        {
          "internalType": "address",
          "name": "oracleRegistry_",
          "type": "address"
        }
      ],
      "name": "setProtocolParams",
      "outputs": [],
      "stateMutability": "nonpayable",
      "type": "function"
    },
    {
      "inputs": [
        {
          "internalType": "address",
          "name": "newOwner",
          "type": "address"
        }
      ],
      "name": "transferOwnership",
      "outputs": [],
      "stateMutability": "nonpayable",
      "type": "function"
    },
    {
      "inputs": [],
      "name": "underlyingAsset",
      "outputs": [
        {
          "internalType": "contract IERC20",
          "name": "",
          "type": "address"
        }
      ],
      "stateMutability": "view",
      "type": "function"
    },
    {
      "inputs": [
        {
          "internalType": "address",
          "name": "newImplementation",
          "type": "address"
        },
        {
          "internalType": "bytes",
          "name": "data",
          "type": "bytes"
        }
      ],
      "name": "upgradeToAndCall",
      "outputs": [],
      "stateMutability": "payable",
      "type": "function"
    },
    {
      "inputs": [],
      "name": "vaultFactory",
      "outputs": [
        {
          "internalType": "address",
          "name": "",
          "type": "address"
        }
      ],
      "stateMutability": "view",
      "type": "function"
    },
    {
      "inputs": [],
      "name": "whitelistedAssetsLength",
      "outputs": [
        {
          "internalType": "uint256",
          "name": "",
          "type": "uint256"
        }
      ],
      "stateMutability": "view",
      "type": "function"
    }
  ],
  "bytecode": "0x60a0604052306080523480156012575f5ffd5b506080516118bf6100395f395f8181610f0101528181610f2a015261106e01526118bf5ff3fe60806040526004361061017b575f3560e01c80637a0cb784116100cd578063d1717c7d11610087578063e0876b4411610062578063e0876b4414610455578063e30c397814610474578063ed04f21814610488578063f2fde38b146104a7575f5ffd5b8063d1717c7d146103e3578063d86cd44e14610415578063d8a06f7314610436575f5ffd5b80637a0cb784146103165780637ea524c4146103355780638da5cb5b14610354578063ad3cb1cc14610368578063b6dfcd8b146103a5578063c4d66de8146103c4575f5ffd5b80634bb93ab1116101385780635f248368116101135780635f248368146102bc578063715018a6146102d05780637158da7c146102e457806379ba509714610302575f5ffd5b80634bb93ab1146102685780634f1ef2861461028757806352d1902d1461029a575f5ffd5b80630a567a2d1461017f5780631dbc3c04146101bb57806323a06a1c146101dc578063348ec5c8146101fb5780633a0dad8e1461021a5780633af32abf14610239575b5f5ffd5b34801561018a575f5ffd5b5061019e61019936600461152f565b6104c6565b6040516001600160a01b0390911681526020015b60405180910390f35b3480156101c6575f5ffd5b506101da6101d536600461156f565b6104d8565b005b3480156101e7575f5ffd5b506101da6101f63660046115a0565b610593565b348015610206575f5ffd5b5060015461019e906001600160a01b031681565b348015610225575f5ffd5b5060025461019e906001600160a01b031681565b348015610244575f5ffd5b506102586102533660046115e0565b6106c6565b60405190151581526020016101b2565b348015610273575f5ffd5b5060045461019e906001600160a01b031681565b6101da61029536600461160d565b6106d2565b3480156102a5575f5ffd5b506102ae6106f1565b6040519081526020016101b2565b3480156102c7575f5ffd5b506102ae61070c565b3480156102db575f5ffd5b506101da61071c565b3480156102ef575f5ffd5b505f5461019e906001600160a01b031681565b34801561030d575f5ffd5b506101da61072f565b348015610321575f5ffd5b506101da61033036600461156f565b61077c565b348015610340575f5ffd5b506101da61034f3660046116d1565b61085e565b34801561035f575f5ffd5b5061019e6109c1565b348015610373575f5ffd5b50610398604051806040016040528060058152602001640352e302e360dc1b81525081565b6040516101b29190611748565b3480156103b0575f5ffd5b506101da6103bf3660046115e0565b6109f5565b3480156103cf575f5ffd5b506101da6103de3660046115e0565b610b2d565b3480156103ee575f5ffd5b5060045461040390600160a01b900460ff1681565b60405160ff90911681526020016101b2565b348015610420575f5ffd5b50610429610c36565b6040516101b2919061177d565b348015610441575f5ffd5b5060035461019e906001600160a01b031681565b348015610460575f5ffd5b5061025861046f3660046115e0565b610cd6565b34801561047f575f5ffd5b5061019e610cf3565b348015610493575f5ffd5b506104296104a23660046117c8565b610d1b565b3480156104b2575f5ffd5b506101da6104c13660046115e0565b610de4565b5f6104d2600583610e69565b92915050565b6003546001600160a01b0316331461050357604051631966391b60e11b815260040160405180910390fd5b5f6001826001811115610518576105186117e1565b0361052f57610528600984610e7b565b905061053d565b61053a600784610e7b565b90505b8061055b57604051632fa1facb60e01b815260040160405180910390fd5b6040516001600160a01b038416907fe47da341e0fc63816c1254f1c35425f69460f49342668d11c984ea56762b00d4905f90a2505050565b61059b610e8f565b5f6105a7600585610ec1565b9050806105c75760405163b73e95e160e01b815260040160405180910390fd5b60048054604051635d2cda6560e11b81526001600160a01b0387811693820193909352858316602482015291169063ba59b4ca906044015f604051808303815f87803b158015610615575f5ffd5b505af1158015610627573d5f5f3e3d5ffd5b5050600254604051635d2cda6560e11b81526001600160a01b0388811660048301528681166024830152909116925063ba59b4ca91506044015f604051808303815f87803b158015610677575f5ffd5b505af1158015610689573d5f5f3e3d5ffd5b50506040516001600160a01b03871692507fdcbd8d9d0373041250f6c25b6b7aeccb3e9ff291e510ef85bb9f8ac09ceb6f6491505f90a250505050565b5f6104d2600583610ed5565b6106da610ef6565b6106e382610f9a565b6106ed8282610fa2565b5050565b5f6106fa611063565b505f51602061186a5f395f51905f5290565b5f61071760056110ac565b905090565b610724610e8f565b61072d5f6110b5565b565b3380610739610cf3565b6001600160a01b0316146107705760405163118cdaa760e01b81526001600160a01b03821660048201526024015b60405180910390fd5b610779816110b5565b50565b6003546001600160a01b031633146107a757604051631966391b60e11b815260040160405180910390fd5b6001600160a01b0382166107ce5760405163d92e233d60e01b815260040160405180910390fd5b5f60018260018111156107e3576107e36117e1565b036107fa576107f3600984610ec1565b9050610808565b610805600784610ec1565b90505b8061082657604051633c0c06e960e21b815260040160405180910390fd5b6040516001600160a01b038416907f9a7094a648c0524f3d62b9167886d30be0e68cf53863fe556edda348f189445a905f90a2505050565b610866610e8f565b6001600160a01b03861661088d5760405163d92e233d60e01b815260040160405180910390fd5b6001600160a01b0385166108b45760405163d92e233d60e01b815260040160405180910390fd5b6001600160a01b0384166108db5760405163d92e233d60e01b815260040160405180910390fd5b6001600160a01b0382166109025760405163d92e233d60e01b815260040160405180910390fd5b6001600160a01b0381166109295760405163d92e233d60e01b815260040160405180910390fd5b5f80546001600160a01b03199081166001600160a01b03898116919091178355600180548316898316179055600280548316888316179055600480546003805485168885161790556001600160a81b031916600160a01b60ff891602909316929092179084161790556040517fc56626e36ca25ee9a19c58d2d4f9a4569523b059e6aaeb263573ded93fc33c5a9190a1505050505050565b5f807f9016d09d72d40fdae2fd8ceac6b6234c7706214fd39c1cd1e609a0528c1993005b546001600160a01b031692915050565b6109fd610e8f565b5f610a09600583610e7b565b905080610a345760405163751dff9760e11b81526001600160a01b0383166004820152602401610767565b60048054604051635d2cda6560e11b81526001600160a01b03858116938201939093525f602482015291169063ba59b4ca906044015f604051808303815f87803b158015610a80575f5ffd5b505af1158015610a92573d5f5f3e3d5ffd5b5050600254604051635d2cda6560e11b81526001600160a01b0386811660048301525f6024830152909116925063ba59b4ca91506044015f604051808303815f87803b158015610ae0575f5ffd5b505af1158015610af2573d5f5f3e3d5ffd5b50506040516001600160a01b03851692507f952363a786fc6f24cfb955cd6207cf91ecee3a82a7dd0bc26891ff7647b5784c91505f90a25050565b5f610b366110ed565b805490915060ff600160401b820416159067ffffffffffffffff165f81158015610b5d5750825b90505f8267ffffffffffffffff166001148015610b795750303b155b905081158015610b87575080155b15610ba55760405163f92ee8a960e01b815260040160405180910390fd5b845467ffffffffffffffff191660011785558315610bcf57845460ff60401b1916600160401b1785555b610bd886611115565b610be0611126565b610be8611126565b8315610c2e57845460ff60401b19168555604051600181527fc7f505b2f371ae2175ee4913f4499e1f2633a7b5936321eed1cdaeb6115181d29060200160405180910390a15b505050505050565b60605f610c4360056110ac565b90508067ffffffffffffffff811115610c5e57610c5e6115f9565b604051908082528060200260200182016040528015610c87578160200160208202803683370190505b5091505f5b81811015610cd157610c9f600582610e69565b838281518110610cb157610cb16117f5565b6001600160a01b0390921660209283029190910190910152600101610c8c565b505090565b5f610ce2600983610ed5565b806104d257506104d2600783610ed5565b5f807f237e158222e3e6968b72b9db0d8043aacf074ad9f650f0d1606b4d82ee432c006109e5565b60605f6001836001811115610d3257610d326117e1565b14610d3e576007610d41565b60095b90505f610d4d826110ac565b90505f8167ffffffffffffffff811115610d6957610d696115f9565b604051908082528060200260200182016040528015610d92578160200160208202803683370190505b5090505f5b82811015610ddb57610da98482610e69565b828281518110610dbb57610dbb6117f5565b6001600160a01b0390921660209283029190910190910152600101610d97565b50949350505050565b610dec610e8f565b7f237e158222e3e6968b72b9db0d8043aacf074ad9f650f0d1606b4d82ee432c0080546001600160a01b0319166001600160a01b0383169081178255610e306109c1565b6001600160a01b03167f38d16b8cac22d99fc7c124b9cd0de2d3fa1faef420bfe791d8c362d765e2270060405160405180910390a35050565b5f610e74838361112e565b9392505050565b5f610e74836001600160a01b038416611154565b33610e986109c1565b6001600160a01b03161461072d5760405163118cdaa760e01b8152336004820152602401610767565b5f610e74836001600160a01b038416611237565b6001600160a01b0381165f9081526001830160205260408120541515610e74565b306001600160a01b037f0000000000000000000000000000000000000000000000000000000000000000161480610f7c57507f00000000000000000000000000000000000000000000000000000000000000006001600160a01b0316610f705f51602061186a5f395f51905f52546001600160a01b031690565b6001600160a01b031614155b1561072d5760405163703e46dd60e11b815260040160405180910390fd5b610779610e8f565b816001600160a01b03166352d1902d6040518163ffffffff1660e01b8152600401602060405180830381865afa925050508015610ffc575060408051601f3d908101601f19168201909252610ff991810190611809565b60015b61102457604051634c9c8ce360e01b81526001600160a01b0383166004820152602401610767565b5f51602061186a5f395f51905f52811461105457604051632a87526960e21b815260048101829052602401610767565b61105e8383611283565b505050565b306001600160a01b037f0000000000000000000000000000000000000000000000000000000000000000161461072d5760405163703e46dd60e11b815260040160405180910390fd5b5f6104d2825490565b7f237e158222e3e6968b72b9db0d8043aacf074ad9f650f0d1606b4d82ee432c0080546001600160a01b03191681556106ed826112d8565b5f807ff0c57e16840df040f15088dc2f81fe391c3923bec73e23a9662efc9c229c6a006104d2565b61111d611348565b6107798161136d565b61072d611348565b5f825f018281548110611143576111436117f5565b905f5260205f200154905092915050565b5f818152600183016020526040812054801561122e575f611176600183611820565b85549091505f9061118990600190611820565b90508082146111e8575f865f0182815481106111a7576111a76117f5565b905f5260205f200154905080875f0184815481106111c7576111c76117f5565b5f918252602080832090910192909255918252600188019052604090208390555b85548690806111f9576111f961183f565b600190038181905f5260205f20015f90559055856001015f8681526020019081526020015f205f9055600193505050506104d2565b5f9150506104d2565b5f81815260018301602052604081205461127c57508154600181810184555f8481526020808220909301849055845484825282860190935260409020919091556104d2565b505f6104d2565b61128c8261139e565b6040516001600160a01b038316907fbc7cd75a20ee27fd9adebab32041f755214dbc6bffa90cc0225b39da2e5c2d3b905f90a28051156112d05761105e8282611401565b6106ed611473565b7f9016d09d72d40fdae2fd8ceac6b6234c7706214fd39c1cd1e609a0528c19930080546001600160a01b031981166001600160a01b03848116918217845560405192169182907f8be0079c531659141344cd1fd0a4f28419497f9722a3daafe3b4186f6b6457e0905f90a3505050565b611350611492565b61072d57604051631afcd79f60e31b815260040160405180910390fd5b611375611348565b6001600160a01b03811661077057604051631e4fbdf760e01b81525f6004820152602401610767565b806001600160a01b03163b5f036113d357604051634c9c8ce360e01b81526001600160a01b0382166004820152602401610767565b5f51602061186a5f395f51905f5280546001600160a01b0319166001600160a01b0392909216919091179055565b60605f5f846001600160a01b03168460405161141d9190611853565b5f60405180830381855af49150503d805f8114611455576040519150601f19603f3d011682016040523d82523d5f602084013e61145a565b606091505b509150915061146a8583836114ab565b95945050505050565b341561072d5760405163b398979f60e01b815260040160405180910390fd5b5f61149b6110ed565b54600160401b900460ff16919050565b6060826114c0576114bb82611507565b610e74565b81511580156114d757506001600160a01b0384163b155b1561150057604051639996b31560e01b81526001600160a01b0385166004820152602401610767565b5092915050565b80511561151657805160208201fd5b60405163d6bda27560e01b815260040160405180910390fd5b5f6020828403121561153f575f5ffd5b5035919050565b80356001600160a01b038116811461155c575f5ffd5b919050565b80356002811061155c575f5ffd5b5f5f60408385031215611580575f5ffd5b61158983611546565b915061159760208401611561565b90509250929050565b5f5f5f606084860312156115b2575f5ffd5b6115bb84611546565b92506115c960208501611546565b91506115d760408501611546565b90509250925092565b5f602082840312156115f0575f5ffd5b610e7482611546565b634e487b7160e01b5f52604160045260245ffd5b5f5f6040838503121561161e575f5ffd5b61162783611546565b9150602083013567ffffffffffffffff811115611642575f5ffd5b8301601f81018513611652575f5ffd5b803567ffffffffffffffff81111561166c5761166c6115f9565b604051601f8201601f19908116603f0116810167ffffffffffffffff8111828210171561169b5761169b6115f9565b6040528181528282016020018710156116b2575f5ffd5b816020840160208301375f602083830101528093505050509250929050565b5f5f5f5f5f5f60c087890312156116e6575f5ffd5b6116ef87611546565b95506116fd60208801611546565b945061170b60408801611546565b9350606087013560ff81168114611720575f5ffd5b925061172e60808801611546565b915061173c60a08801611546565b90509295509295509295565b602081525f82518060208401528060208501604085015e5f604082850101526040601f19601f83011684010191505092915050565b602080825282518282018190525f918401906040840190835b818110156117bd5783516001600160a01b0316835260209384019390920191600101611796565b509095945050505050565b5f602082840312156117d8575f5ffd5b610e7482611561565b634e487b7160e01b5f52602160045260245ffd5b634e487b7160e01b5f52603260045260245ffd5b5f60208284031215611819575f5ffd5b5051919050565b818103818111156104d257634e487b7160e01b5f52601160045260245ffd5b634e487b7160e01b5f52603160045260245ffd5b5f82518060208501845e5f92019182525091905056fe360894a13ba1a3210667c828492db98dca3e2076cc3735a920a3ca505d382bbca264697066735822122073abfc349bbd3de0bcbf446f48c2e5613fcce590155753c50526a2c89e2cb6b364736f6c634300081c0033",
  "linkReferences": {},
  "deployedLinkReferences": {}
}