{
  "_format": "hh-sol-artifact-1",
  "contractName": "OrionConfig",
  "sourceName": "contracts/OrionConfig.sol",
  "abi": [
    {
      "inputs": [
        {
          "internalType": "address",
          "name": "target",
          "type": "address"
        }
      ],
      "name": "AddressEmptyCode",
      "type": "error"
    },
    {
      "inputs": [],
      "name": "AlreadyAnOrionVault",
      "type": "error"
    },
    {
      "inputs": [],
      "name": "AlreadyWhitelisted",
      "type": "error"
    },
    {
      "inputs": [
        {
          "internalType": "address",
          "name": "implementation",
          "type": "address"
        }
      ],
      "name": "ERC1967InvalidImplementation",
      "type": "error"
    },
    {
      "inputs": [],
      "name": "ERC1967NonPayable",
      "type": "error"
    },
    {
      "inputs": [],
      "name": "FailedCall",
      "type": "error"
    },
    {
      "inputs": [],
      "name": "InvalidInitialization",
      "type": "error"
    },
    {
      "inputs": [],
      "name": "InvalidStatesDecimals",
      "type": "error"
    },
    {
      "inputs": [],
      "name": "NotAnOrionVault",
      "type": "error"
    },
    {
      "inputs": [],
      "name": "NotFactory",
      "type": "error"
    },
    {
      "inputs": [],
      "name": "NotInitializing",
      "type": "error"
    },
    {
      "inputs": [
        {
          "internalType": "address",
          "name": "owner",
          "type": "address"
        }
      ],
      "name": "OwnableInvalidOwner",
      "type": "error"
    },
    {
      "inputs": [
        {
          "internalType": "address",
          "name": "account",
          "type": "address"
        }
      ],
      "name": "OwnableUnauthorizedAccount",
      "type": "error"
    },
    {
      "inputs": [
        {
          "internalType": "address",
          "name": "token",
          "type": "address"
        }
      ],
      "name": "TokenNotWhitelisted",
      "type": "error"
    },
    {
      "inputs": [],
      "name": "UUPSUnauthorizedCallContext",
      "type": "error"
    },
    {
      "inputs": [
        {
          "internalType": "bytes32",
          "name": "slot",
          "type": "bytes32"
        }
      ],
      "name": "UUPSUnsupportedProxiableUUID",
      "type": "error"
    },
    {
      "inputs": [],
      "name": "ZeroAddress",
      "type": "error"
    },
    {
      "anonymous": false,
      "inputs": [
        {
          "indexed": false,
          "internalType": "uint64",
          "name": "version",
          "type": "uint64"
        }
      ],
      "name": "Initialized",
      "type": "event"
    },
    {
      "anonymous": false,
      "inputs": [
        {
          "indexed": true,
          "internalType": "address",
          "name": "vault",
          "type": "address"
        }
      ],
      "name": "OrionVaultAdded",
      "type": "event"
    },
    {
      "anonymous": false,
      "inputs": [
        {
          "indexed": true,
          "internalType": "address",
          "name": "vault",
          "type": "address"
        }
      ],
      "name": "OrionVaultRemoved",
      "type": "event"
    },
    {
      "anonymous": false,
      "inputs": [
        {
          "indexed": true,
          "internalType": "address",
          "name": "previousOwner",
          "type": "address"
        },
        {
          "indexed": true,
          "internalType": "address",
          "name": "newOwner",
          "type": "address"
        }
      ],
      "name": "OwnershipTransferStarted",
      "type": "event"
    },
    {
      "anonymous": false,
      "inputs": [
        {
          "indexed": true,
          "internalType": "address",
          "name": "previousOwner",
          "type": "address"
        },
        {
          "indexed": true,
          "internalType": "address",
          "name": "newOwner",
          "type": "address"
        }
      ],
      "name": "OwnershipTransferred",
      "type": "event"
    },
    {
      "anonymous": false,
      "inputs": [],
      "name": "ProtocolParamsUpdated",
      "type": "event"
    },
    {
      "anonymous": false,
      "inputs": [
        {
          "indexed": true,
          "internalType": "address",
          "name": "implementation",
          "type": "address"
        }
      ],
      "name": "Upgraded",
      "type": "event"
    },
    {
      "anonymous": false,
      "inputs": [
        {
          "indexed": true,
          "internalType": "address",
          "name": "asset",
          "type": "address"
        }
      ],
      "name": "WhitelistedAssetAdded",
      "type": "event"
    },
    {
      "anonymous": false,
      "inputs": [
        {
          "indexed": true,
          "internalType": "address",
          "name": "asset",
          "type": "address"
        }
      ],
      "name": "WhitelistedAssetRemoved",
      "type": "event"
    },
    {
      "inputs": [],
      "name": "UPGRADE_INTERFACE_VERSION",
      "outputs": [
        {
          "internalType": "string",
          "name": "",
          "type": "string"
        }
      ],
      "stateMutability": "view",
      "type": "function"
    },
    {
      "inputs": [],
      "name": "acceptOwnership",
      "outputs": [],
      "stateMutability": "nonpayable",
      "type": "function"
    },
    {
      "inputs": [
        {
          "internalType": "address",
          "name": "vault",
          "type": "address"
        },
        {
          "internalType": "enum EventsLib.VaultType",
          "name": "vaultType",
          "type": "uint8"
        }
      ],
      "name": "addOrionVault",
      "outputs": [],
      "stateMutability": "nonpayable",
      "type": "function"
    },
    {
      "inputs": [
        {
          "internalType": "address",
          "name": "asset",
          "type": "address"
        }
      ],
      "name": "addWhitelistedAsset",
      "outputs": [],
      "stateMutability": "nonpayable",
      "type": "function"
    },
    {
      "inputs": [],
      "name": "curatorIntentDecimals",
      "outputs": [
        {
          "internalType": "uint8",
          "name": "",
          "type": "uint8"
        }
      ],
      "stateMutability": "view",
      "type": "function"
    },
    {
      "inputs": [
        {
          "internalType": "enum EventsLib.VaultType",
          "name": "vaultType",
          "type": "uint8"
        }
      ],
      "name": "getAllOrionVaults",
      "outputs": [
        {
          "internalType": "address[]",
          "name": "",
          "type": "address[]"
        }
      ],
      "stateMutability": "view",
      "type": "function"
    },
    {
      "inputs": [],
      "name": "getAllWhitelistedAssets",
      "outputs": [
        {
          "internalType": "address[]",
          "name": "assets",
          "type": "address[]"
        }
      ],
      "stateMutability": "view",
      "type": "function"
    },
    {
      "inputs": [
        {
          "internalType": "uint256",
          "name": "index",
          "type": "uint256"
        }
      ],
      "name": "getWhitelistedAssetAt",
      "outputs": [
        {
          "internalType": "address",
          "name": "",
          "type": "address"
        }
      ],
      "stateMutability": "view",
      "type": "function"
    },
    {
      "inputs": [
        {
          "internalType": "address",
          "name": "initialOwner",
          "type": "address"
        }
      ],
      "name": "initialize",
      "outputs": [],
      "stateMutability": "nonpayable",
      "type": "function"
    },
    {
      "inputs": [],
      "name": "internalStatesOrchestrator",
      "outputs": [
        {
          "internalType": "address",
          "name": "",
          "type": "address"
        }
      ],
      "stateMutability": "view",
      "type": "function"
    },
    {
      "inputs": [
        {
          "internalType": "address",
          "name": "vault",
          "type": "address"
        }
      ],
      "name": "isOrionVault",
      "outputs": [
        {
          "internalType": "bool",
          "name": "",
          "type": "bool"
        }
      ],
      "stateMutability": "view",
      "type": "function"
    },
    {
      "inputs": [
        {
          "internalType": "address",
          "name": "asset",
          "type": "address"
        }
      ],
      "name": "isWhitelisted",
      "outputs": [
        {
          "internalType": "bool",
          "name": "",
          "type": "bool"
        }
      ],
      "stateMutability": "view",
      "type": "function"
    },
    {
      "inputs": [],
      "name": "liquidityOrchestrator",
      "outputs": [
        {
          "internalType": "address",
          "name": "",
          "type": "address"
        }
      ],
      "stateMutability": "view",
      "type": "function"
    },
    {
      "inputs": [],
      "name": "oracleRegistry",
      "outputs": [
        {
          "internalType": "address",
          "name": "",
          "type": "address"
        }
      ],
      "stateMutability": "view",
      "type": "function"
    },
    {
      "inputs": [],
      "name": "owner",
      "outputs": [
        {
          "internalType": "address",
          "name": "",
          "type": "address"
        }
      ],
      "stateMutability": "view",
      "type": "function"
    },
    {
      "inputs": [],
      "name": "pendingOwner",
      "outputs": [
        {
          "internalType": "address",
          "name": "",
          "type": "address"
        }
      ],
      "stateMutability": "view",
      "type": "function"
    },
    {
      "inputs": [],
      "name": "proxiableUUID",
      "outputs": [
        {
          "internalType": "bytes32",
          "name": "",
          "type": "bytes32"
        }
      ],
      "stateMutability": "view",
      "type": "function"
    },
    {
      "inputs": [
        {
          "internalType": "address",
          "name": "vault",
          "type": "address"
        },
        {
          "internalType": "enum EventsLib.VaultType",
          "name": "vaultType",
          "type": "uint8"
        }
      ],
      "name": "removeOrionVault",
      "outputs": [],
      "stateMutability": "nonpayable",
      "type": "function"
    },
    {
      "inputs": [
        {
          "internalType": "address",
          "name": "asset",
          "type": "address"
        }
      ],
      "name": "removeWhitelistedAsset",
      "outputs": [],
      "stateMutability": "nonpayable",
      "type": "function"
    },
    {
      "inputs": [],
      "name": "renounceOwnership",
      "outputs": [],
      "stateMutability": "nonpayable",
      "type": "function"
    },
    {
      "inputs": [
        {
          "internalType": "address",
          "name": "underlyingAsset_",
          "type": "address"
        },
        {
          "internalType": "address",
          "name": "internalStatesOrchestrator_",
          "type": "address"
        },
        {
          "internalType": "address",
          "name": "liquidityOrchestrator_",
          "type": "address"
        },
        {
          "internalType": "uint8",
          "name": "statesDecimals_",
          "type": "uint8"
        },
        {
          "internalType": "uint8",
          "name": "curatorIntentDecimals_",
          "type": "uint8"
        },
        {
          "internalType": "address",
          "name": "factory_",
          "type": "address"
        },
        {
          "internalType": "address",
          "name": "oracleRegistry_",
          "type": "address"
        }
      ],
      "name": "setProtocolParams",
      "outputs": [],
      "stateMutability": "nonpayable",
      "type": "function"
    },
    {
      "inputs": [],
      "name": "statesDecimals",
      "outputs": [
        {
          "internalType": "uint8",
          "name": "",
          "type": "uint8"
        }
      ],
      "stateMutability": "view",
      "type": "function"
    },
    {
      "inputs": [
        {
          "internalType": "address",
          "name": "newOwner",
          "type": "address"
        }
      ],
      "name": "transferOwnership",
      "outputs": [],
      "stateMutability": "nonpayable",
      "type": "function"
    },
    {
      "inputs": [],
      "name": "underlyingAsset",
      "outputs": [
        {
          "internalType": "contract IERC20",
          "name": "",
          "type": "address"
        }
      ],
      "stateMutability": "view",
      "type": "function"
    },
    {
      "inputs": [
        {
          "internalType": "address",
          "name": "newImplementation",
          "type": "address"
        },
        {
          "internalType": "bytes",
          "name": "data",
          "type": "bytes"
        }
      ],
      "name": "upgradeToAndCall",
      "outputs": [],
      "stateMutability": "payable",
      "type": "function"
    },
    {
      "inputs": [],
      "name": "vaultFactory",
      "outputs": [
        {
          "internalType": "address",
          "name": "",
          "type": "address"
        }
      ],
      "stateMutability": "view",
      "type": "function"
    },
    {
      "inputs": [],
      "name": "whitelistedAssetsLength",
      "outputs": [
        {
          "internalType": "uint256",
          "name": "",
          "type": "uint256"
        }
      ],
      "stateMutability": "view",
      "type": "function"
    }
  ],
  "bytecode": "0x60a0604052306080523480156012575f5ffd5b5060805161181a6100395f395f8181610e1e01528181610e470152610f8b015261181a5ff3fe608060405260043610610195575f3560e01c80638da5cb5b116100e7578063d43d6c8b11610087578063e0876b4411610062578063e0876b441461048f578063e30c3978146104ae578063ed04f218146104c2578063f2fde38b146104e1575f5ffd5b8063d43d6c8b14610430578063d86cd44e1461044f578063d8a06f7314610470575f5ffd5b8063b71ee4fc116100c2578063b71ee4fc146103a0578063bfba8f66146103d2578063c4d66de8146103f1578063d1717c7d14610410575f5ffd5b80638da5cb5b14610330578063ad3cb1cc14610344578063b6dfcd8b14610381575f5ffd5b80634f1ef28611610152578063715018a61161012d578063715018a6146102cb5780637158da7c146102df57806379ba5097146102fd5780637a0cb78414610311575f5ffd5b80634f1ef2861461028257806352d1902d146102955780635f248368146102b7575f5ffd5b80630a567a2d146101995780631dbc3c04146101d5578063348ec5c8146101f65780633a0dad8e146102155780633af32abf146102345780634bb93ab114610263575b5f5ffd5b3480156101a4575f5ffd5b506101b86101b3366004611493565b610500565b6040516001600160a01b0390911681526020015b60405180910390f35b3480156101e0575f5ffd5b506101f46101ef3660046114d3565b610512565b005b348015610201575f5ffd5b506001546101b8906001600160a01b031681565b348015610220575f5ffd5b506002546101b8906001600160a01b031681565b34801561023f575f5ffd5b5061025361024e366004611504565b6105cd565b60405190151581526020016101cc565b34801561026e575f5ffd5b506004546101b8906001600160a01b031681565b6101f4610290366004611531565b6105d9565b3480156102a0575f5ffd5b506102a96105f8565b6040519081526020016101cc565b3480156102c2575f5ffd5b506102a9610613565b3480156102d6575f5ffd5b506101f4610623565b3480156102ea575f5ffd5b505f546101b8906001600160a01b031681565b348015610308575f5ffd5b506101f4610636565b34801561031c575f5ffd5b506101f461032b3660046114d3565b610683565b34801561033b575f5ffd5b506101b8610765565b34801561034f575f5ffd5b50610374604051806040016040528060058152602001640352e302e360dc1b81525081565b6040516101cc91906115f5565b34801561038c575f5ffd5b506101f461039b366004611504565b610799565b3480156103ab575f5ffd5b506004546103c090600160a01b900460ff1681565b60405160ff90911681526020016101cc565b3480156103dd575f5ffd5b506101f46103ec366004611504565b61080f565b3480156103fc575f5ffd5b506101f461040b366004611504565b61087a565b34801561041b575f5ffd5b506004546103c090600160a81b900460ff1681565b34801561043b575f5ffd5b506101f461044a366004611638565b610983565b34801561045a575f5ffd5b50610463610b99565b6040516101cc91906116bd565b34801561047b575f5ffd5b506003546101b8906001600160a01b031681565b34801561049a575f5ffd5b506102536104a9366004611504565b610c39565b3480156104b9575f5ffd5b506101b8610c56565b3480156104cd575f5ffd5b506104636104dc366004611708565b610c7e565b3480156104ec575f5ffd5b506101f46104fb366004611504565b610d47565b5f61050c600583610dcc565b92915050565b6003546001600160a01b0316331461053d57604051631966391b60e11b815260040160405180910390fd5b5f600182600181111561055257610552611721565b0361056957610562600984610dde565b9050610577565b610574600784610dde565b90505b8061059557604051632fa1facb60e01b815260040160405180910390fd5b6040516001600160a01b038416907fe47da341e0fc63816c1254f1c35425f69460f49342668d11c984ea56762b00d4905f90a2505050565b5f61050c600583610df2565b6105e1610e13565b6105ea82610eb7565b6105f48282610ebf565b5050565b5f610601610f80565b505f5160206117c55f395f51905f5290565b5f61061e6005610fc9565b905090565b61062b610fd2565b6106345f611004565b565b3380610640610c56565b6001600160a01b0316146106775760405163118cdaa760e01b81526001600160a01b03821660048201526024015b60405180910390fd5b61068081611004565b50565b6003546001600160a01b031633146106ae57604051631966391b60e11b815260040160405180910390fd5b6001600160a01b0382166106d55760405163d92e233d60e01b815260040160405180910390fd5b5f60018260018111156106ea576106ea611721565b03610701576106fa60098461103c565b905061070f565b61070c60078461103c565b90505b8061072d57604051633c0c06e960e21b815260040160405180910390fd5b6040516001600160a01b038416907f9a7094a648c0524f3d62b9167886d30be0e68cf53863fe556edda348f189445a905f90a2505050565b5f807f9016d09d72d40fdae2fd8ceac6b6234c7706214fd39c1cd1e609a0528c1993005b546001600160a01b031692915050565b6107a1610fd2565b5f6107ad600583610dde565b9050806107d85760405163751dff9760e11b81526001600160a01b038316600482015260240161066e565b6040516001600160a01b038316907f952363a786fc6f24cfb955cd6207cf91ecee3a82a7dd0bc26891ff7647b5784c905f90a25050565b610817610fd2565b5f61082360058361103c565b9050806108435760405163b73e95e160e01b815260040160405180910390fd5b6040516001600160a01b038316907fdcbd8d9d0373041250f6c25b6b7aeccb3e9ff291e510ef85bb9f8ac09ceb6f64905f90a25050565b5f610883611050565b805490915060ff600160401b820416159067ffffffffffffffff165f811580156108aa5750825b90505f8267ffffffffffffffff1660011480156108c65750303b155b9050811580156108d4575080155b156108f25760405163f92ee8a960e01b815260040160405180910390fd5b845467ffffffffffffffff19166001178555831561091c57845460ff60401b1916600160401b1785555b61092586611078565b61092d611089565b610935611089565b831561097b57845460ff60401b19168555604051600181527fc7f505b2f371ae2175ee4913f4499e1f2633a7b5936321eed1cdaeb6115181d29060200160405180910390a15b505050505050565b61098b610fd2565b6001600160a01b0387166109b25760405163d92e233d60e01b815260040160405180910390fd5b6001600160a01b0386166109d95760405163d92e233d60e01b815260040160405180910390fd5b6001600160a01b038516610a005760405163d92e233d60e01b815260040160405180910390fd5b6001600160a01b038216610a275760405163d92e233d60e01b815260040160405180910390fd5b6001600160a01b038116610a4e5760405163d92e233d60e01b815260040160405180910390fd5b5f80546001600160a01b03199081166001600160a01b038a811691821784556001805484168b831617905560028054909316908916179091556040805163313ce56760e01b8152905163313ce567916004808201926020929091908290030181865afa158015610ac0573d5f5f3e3d5ffd5b505050506040513d601f19601f82011682018060405250810190610ae49190611735565b90508060ff168560ff161015610b0d5760405163225dd91960e21b815260040160405180910390fd5b60048054600380546001600160a01b038088166001600160a01b03199283161790925590851660ff888116600160a81b0260ff60a81b19918b16600160a01b029190911661ffff60a01b199094169390931792909217161790556040517fc56626e36ca25ee9a19c58d2d4f9a4569523b059e6aaeb263573ded93fc33c5a905f90a15050505050505050565b60605f610ba66005610fc9565b90508067ffffffffffffffff811115610bc157610bc161151d565b604051908082528060200260200182016040528015610bea578160200160208202803683370190505b5091505f5b81811015610c3457610c02600582610dcc565b838281518110610c1457610c14611750565b6001600160a01b0390921660209283029190910190910152600101610bef565b505090565b5f610c45600983610df2565b8061050c575061050c600783610df2565b5f807f237e158222e3e6968b72b9db0d8043aacf074ad9f650f0d1606b4d82ee432c00610789565b60605f6001836001811115610c9557610c95611721565b14610ca1576007610ca4565b60095b90505f610cb082610fc9565b90505f8167ffffffffffffffff811115610ccc57610ccc61151d565b604051908082528060200260200182016040528015610cf5578160200160208202803683370190505b5090505f5b82811015610d3e57610d0c8482610dcc565b828281518110610d1e57610d1e611750565b6001600160a01b0390921660209283029190910190910152600101610cfa565b50949350505050565b610d4f610fd2565b7f237e158222e3e6968b72b9db0d8043aacf074ad9f650f0d1606b4d82ee432c0080546001600160a01b0319166001600160a01b0383169081178255610d93610765565b6001600160a01b03167f38d16b8cac22d99fc7c124b9cd0de2d3fa1faef420bfe791d8c362d765e2270060405160405180910390a35050565b5f610dd78383611091565b9392505050565b5f610dd7836001600160a01b0384166110b7565b6001600160a01b0381165f9081526001830160205260408120541515610dd7565b306001600160a01b037f0000000000000000000000000000000000000000000000000000000000000000161480610e9957507f00000000000000000000000000000000000000000000000000000000000000006001600160a01b0316610e8d5f5160206117c55f395f51905f52546001600160a01b031690565b6001600160a01b031614155b156106345760405163703e46dd60e11b815260040160405180910390fd5b610680610fd2565b816001600160a01b03166352d1902d6040518163ffffffff1660e01b8152600401602060405180830381865afa925050508015610f19575060408051601f3d908101601f19168201909252610f1691810190611764565b60015b610f4157604051634c9c8ce360e01b81526001600160a01b038316600482015260240161066e565b5f5160206117c55f395f51905f528114610f7157604051632a87526960e21b81526004810182905260240161066e565b610f7b838361119a565b505050565b306001600160a01b037f000000000000000000000000000000000000000000000000000000000000000016146106345760405163703e46dd60e11b815260040160405180910390fd5b5f61050c825490565b33610fdb610765565b6001600160a01b0316146106345760405163118cdaa760e01b815233600482015260240161066e565b7f237e158222e3e6968b72b9db0d8043aacf074ad9f650f0d1606b4d82ee432c0080546001600160a01b03191681556105f4826111ef565b5f610dd7836001600160a01b03841661125f565b5f807ff0c57e16840df040f15088dc2f81fe391c3923bec73e23a9662efc9c229c6a0061050c565b6110806112ab565b610680816112d0565b6106346112ab565b5f825f0182815481106110a6576110a6611750565b905f5260205f200154905092915050565b5f8181526001830160205260408120548015611191575f6110d960018361177b565b85549091505f906110ec9060019061177b565b905080821461114b575f865f01828154811061110a5761110a611750565b905f5260205f200154905080875f01848154811061112a5761112a611750565b5f918252602080832090910192909255918252600188019052604090208390555b855486908061115c5761115c61179a565b600190038181905f5260205f20015f90559055856001015f8681526020019081526020015f205f90556001935050505061050c565b5f91505061050c565b6111a382611301565b6040516001600160a01b038316907fbc7cd75a20ee27fd9adebab32041f755214dbc6bffa90cc0225b39da2e5c2d3b905f90a28051156111e757610f7b8282611364565b6105f46113d6565b7f9016d09d72d40fdae2fd8ceac6b6234c7706214fd39c1cd1e609a0528c19930080546001600160a01b031981166001600160a01b03848116918217845560405192169182907f8be0079c531659141344cd1fd0a4f28419497f9722a3daafe3b4186f6b6457e0905f90a3505050565b5f8181526001830160205260408120546112a457508154600181810184555f84815260208082209093018490558454848252828601909352604090209190915561050c565b505f61050c565b6112b36113f5565b61063457604051631afcd79f60e31b815260040160405180910390fd5b6112d86112ab565b6001600160a01b03811661067757604051631e4fbdf760e01b81525f600482015260240161066e565b806001600160a01b03163b5f0361133657604051634c9c8ce360e01b81526001600160a01b038216600482015260240161066e565b5f5160206117c55f395f51905f5280546001600160a01b0319166001600160a01b0392909216919091179055565b60605f5f846001600160a01b03168460405161138091906117ae565b5f60405180830381855af49150503d805f81146113b8576040519150601f19603f3d011682016040523d82523d5f602084013e6113bd565b606091505b50915091506113cd85838361140e565b95945050505050565b34156106345760405163b398979f60e01b815260040160405180910390fd5b5f6113fe611050565b54600160401b900460ff16919050565b6060826114235761141e8261146a565b610dd7565b815115801561143a57506001600160a01b0384163b155b1561146357604051639996b31560e01b81526001600160a01b038516600482015260240161066e565b5092915050565b80511561147a5780518082602001fd5b60405163d6bda27560e01b815260040160405180910390fd5b5f602082840312156114a3575f5ffd5b5035919050565b80356001600160a01b03811681146114c0575f5ffd5b919050565b8035600281106114c0575f5ffd5b5f5f604083850312156114e4575f5ffd5b6114ed836114aa565b91506114fb602084016114c5565b90509250929050565b5f60208284031215611514575f5ffd5b610dd7826114aa565b634e487b7160e01b5f52604160045260245ffd5b5f5f60408385031215611542575f5ffd5b61154b836114aa565b9150602083013567ffffffffffffffff811115611566575f5ffd5b8301601f81018513611576575f5ffd5b803567ffffffffffffffff8111156115905761159061151d565b604051601f8201601f19908116603f0116810167ffffffffffffffff811182821017156115bf576115bf61151d565b6040528181528282016020018710156115d6575f5ffd5b816020840160208301375f602083830101528093505050509250929050565b602081525f82518060208401528060208501604085015e5f604082850101526040601f19601f83011684010191505092915050565b60ff81168114610680575f5ffd5b5f5f5f5f5f5f5f60e0888a03121561164e575f5ffd5b611657886114aa565b9650611665602089016114aa565b9550611673604089016114aa565b945060608801356116838161162a565b935060808801356116938161162a565b92506116a160a089016114aa565b91506116af60c089016114aa565b905092959891949750929550565b602080825282518282018190525f918401906040840190835b818110156116fd5783516001600160a01b03168352602093840193909201916001016116d6565b509095945050505050565b5f60208284031215611718575f5ffd5b610dd7826114c5565b634e487b7160e01b5f52602160045260245ffd5b5f60208284031215611745575f5ffd5b8151610dd78161162a565b634e487b7160e01b5f52603260045260245ffd5b5f60208284031215611774575f5ffd5b5051919050565b8181038181111561050c57634e487b7160e01b5f52601160045260245ffd5b634e487b7160e01b5f52603160045260245ffd5b5f82518060208501845e5f92019182525091905056fe360894a13ba1a3210667c828492db98dca3e2076cc3735a920a3ca505d382bbca2646970667358221220a8935847e23f8e783fe6dda2729866f0e274933a45795a7f9d2436ce98c6bab264736f6c634300081c0033",
  "linkReferences": {},
  "deployedLinkReferences": {}
}