{
  "_format": "hh-sol-artifact-1",
  "contractName": "OrionConfig",
  "sourceName": "contracts/OrionConfig.sol",
  "abi": [
    {
      "inputs": [],
      "stateMutability": "nonpayable",
      "type": "constructor"
    },
    {
      "inputs": [],
      "name": "AlreadyAnOrionVault",
      "type": "error"
    },
    {
      "inputs": [],
      "name": "AlreadyWhitelisted",
      "type": "error"
    },
    {
      "inputs": [],
      "name": "IndexOutOfBounds",
      "type": "error"
    },
    {
      "inputs": [],
      "name": "InvalidAsset",
      "type": "error"
    },
    {
      "inputs": [],
      "name": "InvalidInternalOrchestrator",
      "type": "error"
    },
    {
      "inputs": [],
      "name": "InvalidLiquidityOrchestrator",
      "type": "error"
    },
    {
      "inputs": [],
      "name": "InvalidPriceAndPnLOracle",
      "type": "error"
    },
    {
      "inputs": [],
      "name": "NotAnOrionVault",
      "type": "error"
    },
    {
      "inputs": [],
      "name": "NotFactory",
      "type": "error"
    },
    {
      "inputs": [],
      "name": "NotInWhitelist",
      "type": "error"
    },
    {
      "inputs": [],
      "name": "NotOwner",
      "type": "error"
    },
    {
      "inputs": [],
      "name": "OrionVaultNotFound",
      "type": "error"
    },
    {
      "inputs": [],
      "name": "VaultNotFound",
      "type": "error"
    },
    {
      "inputs": [],
      "name": "ZeroAddress",
      "type": "error"
    },
    {
      "anonymous": false,
      "inputs": [
        {
          "indexed": true,
          "internalType": "address",
          "name": "vault",
          "type": "address"
        }
      ],
      "name": "OrionVaultAdded",
      "type": "event"
    },
    {
      "anonymous": false,
      "inputs": [
        {
          "indexed": true,
          "internalType": "address",
          "name": "vault",
          "type": "address"
        }
      ],
      "name": "OrionVaultRemoved",
      "type": "event"
    },
    {
      "anonymous": false,
      "inputs": [
        {
          "indexed": false,
          "internalType": "address",
          "name": "underlyingAsset",
          "type": "address"
        },
        {
          "indexed": false,
          "internalType": "address",
          "name": "internalStatesOrchestrator",
          "type": "address"
        },
        {
          "indexed": false,
          "internalType": "address",
          "name": "liquidityOrchestrator",
          "type": "address"
        },
        {
          "indexed": false,
          "internalType": "address",
          "name": "priceAndPnLOracle",
          "type": "address"
        },
        {
          "indexed": false,
          "internalType": "uint256",
          "name": "curatorIntentDecimals",
          "type": "uint256"
        },
        {
          "indexed": false,
          "internalType": "string",
          "name": "fhePublicCID",
          "type": "string"
        }
      ],
      "name": "ProtocolParamsUpdated",
      "type": "event"
    },
    {
      "anonymous": false,
      "inputs": [
        {
          "indexed": false,
          "internalType": "string",
          "name": "newCID",
          "type": "string"
        }
      ],
      "name": "PublicCIDUpdated",
      "type": "event"
    },
    {
      "anonymous": false,
      "inputs": [
        {
          "indexed": false,
          "internalType": "address",
          "name": "factory",
          "type": "address"
        }
      ],
      "name": "VaultFactorySet",
      "type": "event"
    },
    {
      "anonymous": false,
      "inputs": [
        {
          "indexed": true,
          "internalType": "address",
          "name": "vault",
          "type": "address"
        }
      ],
      "name": "WhitelistedVaultAdded",
      "type": "event"
    },
    {
      "anonymous": false,
      "inputs": [
        {
          "indexed": true,
          "internalType": "address",
          "name": "vault",
          "type": "address"
        }
      ],
      "name": "WhitelistedVaultRemoved",
      "type": "event"
    },
    {
      "inputs": [
        {
          "internalType": "address",
          "name": "vault",
          "type": "address"
        }
      ],
      "name": "addOrionVault",
      "outputs": [],
      "stateMutability": "nonpayable",
      "type": "function"
    },
    {
      "inputs": [
        {
          "internalType": "address",
          "name": "vault",
          "type": "address"
        }
      ],
      "name": "addWhitelistedVault",
      "outputs": [],
      "stateMutability": "nonpayable",
      "type": "function"
    },
    {
      "inputs": [],
      "name": "curatorIntentDecimals",
      "outputs": [
        {
          "internalType": "uint8",
          "name": "",
          "type": "uint8"
        }
      ],
      "stateMutability": "view",
      "type": "function"
    },
    {
      "inputs": [],
      "name": "fhePublicCID",
      "outputs": [
        {
          "internalType": "string",
          "name": "",
          "type": "string"
        }
      ],
      "stateMutability": "view",
      "type": "function"
    },
    {
      "inputs": [],
      "name": "getFhePublicCID",
      "outputs": [
        {
          "internalType": "string",
          "name": "",
          "type": "string"
        }
      ],
      "stateMutability": "view",
      "type": "function"
    },
    {
      "inputs": [
        {
          "internalType": "uint256",
          "name": "index",
          "type": "uint256"
        }
      ],
      "name": "getOrionVaultAt",
      "outputs": [
        {
          "internalType": "address",
          "name": "",
          "type": "address"
        }
      ],
      "stateMutability": "view",
      "type": "function"
    },
    {
      "inputs": [
        {
          "internalType": "uint256",
          "name": "index",
          "type": "uint256"
        }
      ],
      "name": "getWhitelistedVaultAt",
      "outputs": [
        {
          "internalType": "address",
          "name": "",
          "type": "address"
        }
      ],
      "stateMutability": "view",
      "type": "function"
    },
    {
      "inputs": [],
      "name": "internalStatesOrchestrator",
      "outputs": [
        {
          "internalType": "address",
          "name": "",
          "type": "address"
        }
      ],
      "stateMutability": "view",
      "type": "function"
    },
    {
      "inputs": [
        {
          "internalType": "address",
          "name": "",
          "type": "address"
        }
      ],
      "name": "isOrionVault",
      "outputs": [
        {
          "internalType": "bool",
          "name": "",
          "type": "bool"
        }
      ],
      "stateMutability": "view",
      "type": "function"
    },
    {
      "inputs": [
        {
          "internalType": "address",
          "name": "",
          "type": "address"
        }
      ],
      "name": "isWhitelisted",
      "outputs": [
        {
          "internalType": "bool",
          "name": "",
          "type": "bool"
        }
      ],
      "stateMutability": "view",
      "type": "function"
    },
    {
      "inputs": [],
      "name": "liquidityOrchestrator",
      "outputs": [
        {
          "internalType": "address",
          "name": "",
          "type": "address"
        }
      ],
      "stateMutability": "view",
      "type": "function"
    },
    {
      "inputs": [],
      "name": "orionVaultCount",
      "outputs": [
        {
          "internalType": "uint256",
          "name": "",
          "type": "uint256"
        }
      ],
      "stateMutability": "view",
      "type": "function"
    },
    {
      "inputs": [
        {
          "internalType": "uint256",
          "name": "",
          "type": "uint256"
        }
      ],
      "name": "orionVaults",
      "outputs": [
        {
          "internalType": "address",
          "name": "",
          "type": "address"
        }
      ],
      "stateMutability": "view",
      "type": "function"
    },
    {
      "inputs": [],
      "name": "owner",
      "outputs": [
        {
          "internalType": "address",
          "name": "",
          "type": "address"
        }
      ],
      "stateMutability": "view",
      "type": "function"
    },
    {
      "inputs": [],
      "name": "priceAndPnLOracle",
      "outputs": [
        {
          "internalType": "address",
          "name": "",
          "type": "address"
        }
      ],
      "stateMutability": "view",
      "type": "function"
    },
    {
      "inputs": [
        {
          "internalType": "address",
          "name": "vault",
          "type": "address"
        }
      ],
      "name": "removeOrionVault",
      "outputs": [],
      "stateMutability": "nonpayable",
      "type": "function"
    },
    {
      "inputs": [
        {
          "internalType": "address",
          "name": "vault",
          "type": "address"
        }
      ],
      "name": "removeWhitelistedVault",
      "outputs": [],
      "stateMutability": "nonpayable",
      "type": "function"
    },
    {
      "inputs": [
        {
          "internalType": "address",
          "name": "_underlyingAsset",
          "type": "address"
        },
        {
          "internalType": "address",
          "name": "_internalStatesOrchestrator",
          "type": "address"
        },
        {
          "internalType": "address",
          "name": "_liquidityOrchestrator",
          "type": "address"
        },
        {
          "internalType": "address",
          "name": "_priceAndPnLOracle",
          "type": "address"
        },
        {
          "internalType": "uint8",
          "name": "_curatorIntentDecimals",
          "type": "uint8"
        },
        {
          "internalType": "string",
          "name": "_fhePublicCID",
          "type": "string"
        }
      ],
      "name": "setProtocolParams",
      "outputs": [],
      "stateMutability": "nonpayable",
      "type": "function"
    },
    {
      "inputs": [
        {
          "internalType": "address",
          "name": "_factory",
          "type": "address"
        }
      ],
      "name": "setVaultFactory",
      "outputs": [],
      "stateMutability": "nonpayable",
      "type": "function"
    },
    {
      "inputs": [
        {
          "internalType": "address",
          "name": "newOwner",
          "type": "address"
        }
      ],
      "name": "transferOwnership",
      "outputs": [],
      "stateMutability": "nonpayable",
      "type": "function"
    },
    {
      "inputs": [],
      "name": "underlyingAsset",
      "outputs": [
        {
          "internalType": "address",
          "name": "",
          "type": "address"
        }
      ],
      "stateMutability": "view",
      "type": "function"
    },
    {
      "inputs": [
        {
          "internalType": "string",
          "name": "newCID",
          "type": "string"
        }
      ],
      "name": "updateFhePublicCID",
      "outputs": [],
      "stateMutability": "nonpayable",
      "type": "function"
    },
    {
      "inputs": [],
      "name": "vaultFactory",
      "outputs": [
        {
          "internalType": "address",
          "name": "",
          "type": "address"
        }
      ],
      "stateMutability": "view",
      "type": "function"
    },
    {
      "inputs": [],
      "name": "whitelistVaultCount",
      "outputs": [
        {
          "internalType": "uint256",
          "name": "",
          "type": "uint256"
        }
      ],
      "stateMutability": "view",
      "type": "function"
    },
    {
      "inputs": [
        {
          "internalType": "address",
          "name": "",
          "type": "address"
        }
      ],
      "name": "whitelistedVaultIndex",
      "outputs": [
        {
          "internalType": "uint256",
          "name": "",
          "type": "uint256"
        }
      ],
      "stateMutability": "view",
      "type": "function"
    },
    {
      "inputs": [
        {
          "internalType": "uint256",
          "name": "",
          "type": "uint256"
        }
      ],
      "name": "whitelistedVaults",
      "outputs": [
        {
          "internalType": "address",
          "name": "",
          "type": "address"
        }
      ],
      "stateMutability": "view",
      "type": "function"
    }
  ],
  "bytecode": "0x6080604052348015600e575f80fd5b505f80546001600160a01b031916331790556113038061002d5f395ff3fe608060405234801561000f575f80fd5b5060043610610187575f3560e01c806387c2ee91116100d9578063d8a06f7311610093578063e7b8314c1161006e578063e7b8314c14610393578063eb1a5bb9146103a6578063f2fde38b146103b9578063f3ad4d9e146103cc575f80fd5b8063d8a06f731461034b578063e0876b441461035e578063e73165c314610380575f80fd5b806387c2ee91146102dc5780638da5cb5b146102e55780639c5e9a70146102f7578063ab6ca9101461030a578063b9513ab214610312578063d1717c7d14610325575f80fd5b80633dd47e0a116101445780637158da7c1161011f5780637158da7c146102765780637526204214610289578063800cfedc1461029c578063862a5f06146102c9575f80fd5b80633dd47e0a1461023d5780633ea7fbdb14610250578063428fb7e614610263575f80fd5b80630740f2ac1461018b5780630e5b065a146101bb5780632084e51d146101d0578063348ec5c8146101e55780633a0dad8e146101f85780633af32abf1461020b575b5f80fd5b61019e610199366004610edb565b6103d5565b6040516001600160a01b0390911681526020015b60405180910390f35b6101ce6101c9366004610f52565b610426565b005b6101d86105a8565b6040516101b29190610fea565b60025461019e906001600160a01b031681565b60035461019e906001600160a01b031681565b61022d61021936600461101f565b60096020525f908152604090205460ff1681565b60405190151581526020016101b2565b61019e61024b366004610edb565b610638565b6101ce61025e36600461101f565b61066f565b6101ce61027136600461101f565b610714565b60015461019e906001600160a01b031681565b6101ce61029736600461103f565b61089a565b6102bb6102aa36600461101f565b60086020525f908152604090205481565b6040519081526020016101b2565b6101ce6102d736600461101f565b61090f565b6102bb600d5481565b5f5461019e906001600160a01b031681565b61019e610305366004610edb565b610a96565b6101d8610abe565b61019e610320366004610edb565b610b4a565b60055461033990600160a01b900460ff1681565b60405160ff90911681526020016101b2565b60055461019e906001600160a01b031681565b61022d61036c36600461101f565b600c6020525f908152604090205460ff1681565b6101ce61038e36600461101f565b610b59565b60045461019e906001600160a01b031681565b6101ce6103b436600461101f565b610c81565b6101ce6103c736600461101f565b610d93565b6102bb600a5481565b600b545f9082106103f957604051634e23d03560e01b815260040160405180910390fd5b600b828154811061040c5761040c61107e565b5f918252602090912001546001600160a01b031692915050565b5f546001600160a01b03163314610450576040516330cd747160e01b815260040160405180910390fd5b6001600160a01b03871661047757604051636448d6e960e11b815260040160405180910390fd5b6001600160a01b03861661049e57604051635c1de4f160e01b815260040160405180910390fd5b6001600160a01b0385166104c55760405163c4a0c25d60e01b815260040160405180910390fd5b6001600160a01b0384166104ec57604051639c29276d60e01b815260040160405180910390fd5b600180546001600160a01b03199081166001600160a01b038a811691909117909255600280548216898416179055600380548216888416179055600480549091169186169190911790556005805460ff60a01b1916600160a01b60ff861602179055600661055b82848361112a565b507f3b287b6b846632cbc4d5100c2986534a152bc04179c539c612db52831b49de0387878787878787604051610597979695949392919061120c565b60405180910390a150505050505050565b6060600680546105b7906110a6565b80601f01602080910402602001604051908101604052809291908181526020018280546105e3906110a6565b801561062e5780601f106106055761010080835404028352916020019161062e565b820191905f5260205f20905b81548152906001019060200180831161061157829003601f168201915b5050505050905090565b6007545f90821061065c57604051634e23d03560e01b815260040160405180910390fd5b6007828154811061040c5761040c61107e565b5f546001600160a01b03163314610699576040516330cd747160e01b815260040160405180910390fd5b6001600160a01b0381166106c05760405163d92e233d60e01b815260040160405180910390fd5b600580546001600160a01b0319166001600160a01b0383169081179091556040519081527f57a7b93fb32405c4ce3505a4c1fbb4b06d58e4c10ebd4cfad8b948f2e5d5ffdf9060200160405180910390a150565b5f546001600160a01b0316331461073e576040516330cd747160e01b815260040160405180910390fd5b6001600160a01b0381165f9081526009602052604090205460ff1661077657604051632d85515d60e11b815260040160405180910390fd5b5f61078082610e05565b600780549192509061079490600190611272565b815481106107a4576107a461107e565b5f91825260209091200154600780546001600160a01b0390921691839081106107cf576107cf61107e565b905f5260205f20015f6101000a8154816001600160a01b0302191690836001600160a01b03160217905550600780548061080b5761080b61128b565b5f828152602080822083015f1990810180546001600160a01b03191690559092019092556001600160a01b03841682526009905260408120805460ff19169055600a80546001929061085e908490611272565b90915550506040516001600160a01b038316907f5969bf1ec051775f5fcd0bc613db4c13e5adefcc231cb962e5a253d8b313069c905f90a25050565b5f546001600160a01b031633146108c4576040516330cd747160e01b815260040160405180910390fd5b60066108d182848361112a565b507fd2be23666710f4d83b0ae1641d087fb8ba2a04ddf1581071c2fd2e9eeee57aa5828260405161090392919061129f565b60405180910390a15050565b6005546001600160a01b0316331461093a57604051631966391b60e11b815260040160405180910390fd5b6001600160a01b0381165f908152600c602052604090205460ff1661097257604051632fa1facb60e01b815260040160405180910390fd5b5f61097c82610e70565b600b80549192509061099090600190611272565b815481106109a0576109a061107e565b5f91825260209091200154600b80546001600160a01b0390921691839081106109cb576109cb61107e565b905f5260205f20015f6101000a8154816001600160a01b0302191690836001600160a01b03160217905550600b805480610a0757610a0761128b565b5f828152602080822083015f1990810180546001600160a01b03191690559092019092556001600160a01b0384168252600c905260408120805460ff19169055600d805460019290610a5a908490611272565b90915550506040516001600160a01b038316907fe47da341e0fc63816c1254f1c35425f69460f49342668d11c984ea56762b00d4905f90a25050565b600b8181548110610aa5575f80fd5b5f918252602090912001546001600160a01b0316905081565b60068054610acb906110a6565b80601f0160208091040260200160405190810160405280929190818152602001828054610af7906110a6565b8015610b425780601f10610b1957610100808354040283529160200191610b42565b820191905f5260205f20905b815481529060010190602001808311610b2557829003601f168201915b505050505081565b60078181548110610aa5575f80fd5b5f546001600160a01b03163314610b83576040516330cd747160e01b815260040160405180910390fd5b6001600160a01b0381165f9081526009602052604090205460ff1615610bbc5760405163b73e95e160e01b815260040160405180910390fd5b6007546001600160a01b0382165f9081526008602090815260408083209390935560099052908120805460ff19166001908117909155600a805491929091610c059084906112ba565b9091555050600780546001810182555f9182527fa66cc928b5edb82af9bd49922954155ab7b0942694bea4ce44661d9a8736c6880180546001600160a01b0319166001600160a01b03841690811790915560405190917f3ad8e13d162496dd78813a5689db10137a37f5ef678c673a61ea7f61db73c54391a250565b6005546001600160a01b03163314610cac57604051631966391b60e11b815260040160405180910390fd5b6001600160a01b0381165f908152600c602052604090205460ff1615610ce557604051633c0c06e960e21b815260040160405180910390fd5b600b805460018082019092557f0175b7a638427703f0dbe7bb9bbf987a2551717b34e79f33b5b1008d1fa01db90180546001600160a01b0319166001600160a01b0384169081179091555f908152600c60205260408120805460ff191683179055600d8054909190610d589084906112ba565b90915550506040516001600160a01b038216907f9a7094a648c0524f3d62b9167886d30be0e68cf53863fe556edda348f189445a905f90a250565b5f546001600160a01b03163314610dbd576040516330cd747160e01b815260040160405180910390fd5b6001600160a01b038116610de45760405163d92e233d60e01b815260040160405180910390fd5b5f80546001600160a01b0319166001600160a01b0392909216919091179055565b5f805b600754811015610e5657826001600160a01b031660078281548110610e2f57610e2f61107e565b5f918252602090912001546001600160a01b031603610e4e5792915050565b600101610e08565b5060405163dee790fb60e01b815260040160405180910390fd5b5f805b600b54811015610ec157826001600160a01b0316600b8281548110610e9a57610e9a61107e565b5f918252602090912001546001600160a01b031603610eb95792915050565b600101610e73565b506040516323a8c79f60e11b815260040160405180910390fd5b5f60208284031215610eeb575f80fd5b5035919050565b80356001600160a01b0381168114610f08575f80fd5b919050565b5f8083601f840112610f1d575f80fd5b50813567ffffffffffffffff811115610f34575f80fd5b602083019150836020828501011115610f4b575f80fd5b9250929050565b5f805f805f805f60c0888a031215610f68575f80fd5b610f7188610ef2565b9650610f7f60208901610ef2565b9550610f8d60408901610ef2565b9450610f9b60608901610ef2565b9350608088013560ff81168114610fb0575f80fd5b925060a088013567ffffffffffffffff811115610fcb575f80fd5b610fd78a828b01610f0d565b989b979a50959850939692959293505050565b602081525f82518060208401528060208501604085015e5f604082850101526040601f19601f83011684010191505092915050565b5f6020828403121561102f575f80fd5b61103882610ef2565b9392505050565b5f8060208385031215611050575f80fd5b823567ffffffffffffffff811115611066575f80fd5b61107285828601610f0d565b90969095509350505050565b634e487b7160e01b5f52603260045260245ffd5b634e487b7160e01b5f52604160045260245ffd5b600181811c908216806110ba57607f821691505b6020821081036110d857634e487b7160e01b5f52602260045260245ffd5b50919050565b601f82111561112557805f5260205f20601f840160051c810160208510156111035750805b601f840160051c820191505b81811015611122575f815560010161110f565b50505b505050565b67ffffffffffffffff83111561114257611142611092565b6111568361115083546110a6565b836110de565b5f601f841160018114611187575f85156111705750838201355b5f19600387901b1c1916600186901b178355611122565b5f83815260208120601f198716915b828110156111b65786850135825560209485019460019092019101611196565b50868210156111d2575f1960f88860031b161c19848701351681555b505060018560011b0183555050505050565b81835281816020850137505f828201602090810191909152601f909101601f19169091010190565b6001600160a01b038881168252878116602083015286811660408301528516606082015260ff8416608082015260c060a082018190525f9061125190830184866111e4565b9998505050505050505050565b634e487b7160e01b5f52601160045260245ffd5b818103818111156112855761128561125e565b92915050565b634e487b7160e01b5f52603160045260245ffd5b602081525f6112b26020830184866111e4565b949350505050565b808201808211156112855761128561125e56fea26469706673582212206e5bf9a04e54504329a4a49a76c18e9aabe8c6a884f491e9d455ee71bcac0bd264736f6c634300081a0033",
  "linkReferences": {},
  "deployedLinkReferences": {}
}