{
  "_format": "hh-sol-artifact-1",
  "contractName": "OrionConfig",
  "sourceName": "contracts/OrionConfig.sol",
  "abi": [
    {
      "inputs": [
        {
          "internalType": "address",
          "name": "initialOwner",
          "type": "address"
        }
      ],
      "stateMutability": "nonpayable",
      "type": "constructor"
    },
    {
      "inputs": [],
      "name": "AlreadyRegistered",
      "type": "error"
    },
    {
      "inputs": [
        {
          "internalType": "address",
          "name": "owner",
          "type": "address"
        }
      ],
      "name": "OwnableInvalidOwner",
      "type": "error"
    },
    {
      "inputs": [
        {
          "internalType": "address",
          "name": "account",
          "type": "address"
        }
      ],
      "name": "OwnableUnauthorizedAccount",
      "type": "error"
    },
    {
      "inputs": [],
      "name": "SystemNotIdle",
      "type": "error"
    },
    {
      "inputs": [
        {
          "internalType": "address",
          "name": "token",
          "type": "address"
        }
      ],
      "name": "TokenNotWhitelisted",
      "type": "error"
    },
    {
      "inputs": [],
      "name": "UnauthorizedAccess",
      "type": "error"
    },
    {
      "inputs": [],
      "name": "ZeroAddress",
      "type": "error"
    },
    {
      "anonymous": false,
      "inputs": [
        {
          "indexed": true,
          "internalType": "address",
          "name": "vault",
          "type": "address"
        }
      ],
      "name": "OrionVaultAdded",
      "type": "event"
    },
    {
      "anonymous": false,
      "inputs": [
        {
          "indexed": true,
          "internalType": "address",
          "name": "vault",
          "type": "address"
        }
      ],
      "name": "OrionVaultRemoved",
      "type": "event"
    },
    {
      "anonymous": false,
      "inputs": [
        {
          "indexed": true,
          "internalType": "address",
          "name": "previousOwner",
          "type": "address"
        },
        {
          "indexed": true,
          "internalType": "address",
          "name": "newOwner",
          "type": "address"
        }
      ],
      "name": "OwnershipTransferred",
      "type": "event"
    },
    {
      "anonymous": false,
      "inputs": [],
      "name": "ProtocolParamsUpdated",
      "type": "event"
    },
    {
      "anonymous": false,
      "inputs": [
        {
          "indexed": true,
          "internalType": "address",
          "name": "asset",
          "type": "address"
        }
      ],
      "name": "WhitelistedAssetAdded",
      "type": "event"
    },
    {
      "anonymous": false,
      "inputs": [
        {
          "indexed": true,
          "internalType": "address",
          "name": "asset",
          "type": "address"
        }
      ],
      "name": "WhitelistedAssetRemoved",
      "type": "event"
    },
    {
      "inputs": [
        {
          "internalType": "address",
          "name": "vault",
          "type": "address"
        },
        {
          "internalType": "enum EventsLib.VaultType",
          "name": "vaultType",
          "type": "uint8"
        }
      ],
      "name": "addOrionVault",
      "outputs": [],
      "stateMutability": "nonpayable",
      "type": "function"
    },
    {
      "inputs": [
        {
          "internalType": "address",
          "name": "asset",
          "type": "address"
        },
        {
          "internalType": "address",
          "name": "priceAdapter",
          "type": "address"
        },
        {
          "internalType": "address",
          "name": "executionAdapter",
          "type": "address"
        }
      ],
      "name": "addWhitelistedAsset",
      "outputs": [],
      "stateMutability": "nonpayable",
      "type": "function"
    },
    {
      "inputs": [],
      "name": "curatorIntentDecimals",
      "outputs": [
        {
          "internalType": "uint8",
          "name": "",
          "type": "uint8"
        }
      ],
      "stateMutability": "view",
      "type": "function"
    },
    {
      "inputs": [],
      "name": "encryptedVaultFactory",
      "outputs": [
        {
          "internalType": "address",
          "name": "",
          "type": "address"
        }
      ],
      "stateMutability": "view",
      "type": "function"
    },
    {
      "inputs": [
        {
          "internalType": "enum EventsLib.VaultType",
          "name": "vaultType",
          "type": "uint8"
        }
      ],
      "name": "getAllOrionVaults",
      "outputs": [
        {
          "internalType": "address[]",
          "name": "",
          "type": "address[]"
        }
      ],
      "stateMutability": "view",
      "type": "function"
    },
    {
      "inputs": [],
      "name": "getAllWhitelistedAssets",
      "outputs": [
        {
          "internalType": "address[]",
          "name": "assets",
          "type": "address[]"
        }
      ],
      "stateMutability": "view",
      "type": "function"
    },
    {
      "inputs": [
        {
          "internalType": "uint16",
          "name": "index",
          "type": "uint16"
        }
      ],
      "name": "getWhitelistedAssetAt",
      "outputs": [
        {
          "internalType": "address",
          "name": "",
          "type": "address"
        }
      ],
      "stateMutability": "view",
      "type": "function"
    },
    {
      "inputs": [],
      "name": "internalStatesOrchestrator",
      "outputs": [
        {
          "internalType": "address",
          "name": "",
          "type": "address"
        }
      ],
      "stateMutability": "view",
      "type": "function"
    },
    {
      "inputs": [
        {
          "internalType": "address",
          "name": "vault",
          "type": "address"
        }
      ],
      "name": "isOrionVault",
      "outputs": [
        {
          "internalType": "bool",
          "name": "",
          "type": "bool"
        }
      ],
      "stateMutability": "view",
      "type": "function"
    },
    {
      "inputs": [],
      "name": "isSystemIdle",
      "outputs": [
        {
          "internalType": "bool",
          "name": "",
          "type": "bool"
        }
      ],
      "stateMutability": "view",
      "type": "function"
    },
    {
      "inputs": [
        {
          "internalType": "address",
          "name": "asset",
          "type": "address"
        }
      ],
      "name": "isWhitelisted",
      "outputs": [
        {
          "internalType": "bool",
          "name": "",
          "type": "bool"
        }
      ],
      "stateMutability": "view",
      "type": "function"
    },
    {
      "inputs": [],
      "name": "liquidityOrchestrator",
      "outputs": [
        {
          "internalType": "address",
          "name": "",
          "type": "address"
        }
      ],
      "stateMutability": "view",
      "type": "function"
    },
    {
      "inputs": [],
      "name": "owner",
      "outputs": [
        {
          "internalType": "address",
          "name": "",
          "type": "address"
        }
      ],
      "stateMutability": "view",
      "type": "function"
    },
    {
      "inputs": [],
      "name": "priceAdapterDecimals",
      "outputs": [
        {
          "internalType": "uint8",
          "name": "",
          "type": "uint8"
        }
      ],
      "stateMutability": "view",
      "type": "function"
    },
    {
      "inputs": [],
      "name": "priceAdapterRegistry",
      "outputs": [
        {
          "internalType": "address",
          "name": "",
          "type": "address"
        }
      ],
      "stateMutability": "view",
      "type": "function"
    },
    {
      "inputs": [
        {
          "internalType": "address",
          "name": "vault",
          "type": "address"
        },
        {
          "internalType": "enum EventsLib.VaultType",
          "name": "vaultType",
          "type": "uint8"
        }
      ],
      "name": "removeOrionVault",
      "outputs": [],
      "stateMutability": "nonpayable",
      "type": "function"
    },
    {
      "inputs": [
        {
          "internalType": "address",
          "name": "asset",
          "type": "address"
        }
      ],
      "name": "removeWhitelistedAsset",
      "outputs": [],
      "stateMutability": "nonpayable",
      "type": "function"
    },
    {
      "inputs": [],
      "name": "renounceOwnership",
      "outputs": [],
      "stateMutability": "nonpayable",
      "type": "function"
    },
    {
      "inputs": [
        {
          "internalType": "address",
          "name": "orchestrator",
          "type": "address"
        }
      ],
      "name": "setInternalStatesOrchestrator",
      "outputs": [],
      "stateMutability": "nonpayable",
      "type": "function"
    },
    {
      "inputs": [
        {
          "internalType": "address",
          "name": "orchestrator",
          "type": "address"
        }
      ],
      "name": "setLiquidityOrchestrator",
      "outputs": [],
      "stateMutability": "nonpayable",
      "type": "function"
    },
    {
      "inputs": [
        {
          "internalType": "address",
          "name": "registry",
          "type": "address"
        }
      ],
      "name": "setPriceAdapterRegistry",
      "outputs": [],
      "stateMutability": "nonpayable",
      "type": "function"
    },
    {
      "inputs": [
        {
          "internalType": "uint8",
          "name": "_curatorIntentDecimals",
          "type": "uint8"
        },
        {
          "internalType": "uint8",
          "name": "_priceAdapterDecimals",
          "type": "uint8"
        }
      ],
      "name": "setProtocolParams",
      "outputs": [],
      "stateMutability": "nonpayable",
      "type": "function"
    },
    {
      "inputs": [
        {
          "internalType": "address",
          "name": "asset",
          "type": "address"
        }
      ],
      "name": "setUnderlyingAsset",
      "outputs": [],
      "stateMutability": "nonpayable",
      "type": "function"
    },
    {
      "inputs": [
        {
          "internalType": "address",
          "name": "transparentFactory",
          "type": "address"
        },
        {
          "internalType": "address",
          "name": "encryptedFactory",
          "type": "address"
        }
      ],
      "name": "setVaultFactories",
      "outputs": [],
      "stateMutability": "nonpayable",
      "type": "function"
    },
    {
      "inputs": [
        {
          "internalType": "address",
          "name": "newOwner",
          "type": "address"
        }
      ],
      "name": "transferOwnership",
      "outputs": [],
      "stateMutability": "nonpayable",
      "type": "function"
    },
    {
      "inputs": [],
      "name": "transparentVaultFactory",
      "outputs": [
        {
          "internalType": "address",
          "name": "",
          "type": "address"
        }
      ],
      "stateMutability": "view",
      "type": "function"
    },
    {
      "inputs": [],
      "name": "underlyingAsset",
      "outputs": [
        {
          "internalType": "contract IERC20",
          "name": "",
          "type": "address"
        }
      ],
      "stateMutability": "view",
      "type": "function"
    },
    {
      "inputs": [],
      "name": "whitelistedAssetsLength",
      "outputs": [
        {
          "internalType": "uint16",
          "name": "",
          "type": "uint16"
        }
      ],
      "stateMutability": "view",
      "type": "function"
    }
  ],
  "bytecode": "0x6080604052348015600e575f5ffd5b506040516113ea3803806113ea833981016040819052602b9160b4565b806001600160a01b038116605857604051631e4fbdf760e01b81525f600482015260240160405180910390fd5b605f816065565b505060df565b5f80546001600160a01b038381166001600160a01b0319831681178455604051919092169283917f8be0079c531659141344cd1fd0a4f28419497f9722a3daafe3b4186f6b6457e09190a35050565b5f6020828403121560c3575f5ffd5b81516001600160a01b038116811460d8575f5ffd5b9392505050565b6112fe806100ec5f395ff3fe608060405234801561000f575f5ffd5b5060043610610152575f3560e01c8063015df993146101565780630a8b78c71461017f5780630c0240d4146101945780631dbc3c04146101a75780632095b01e146101ba57806323a06a1c146101cd5780632430dbf3146101e057806325671dcb146101f3578063348ec5c8146102065780633a0dad8e146102195780633af32abf1461022c578063567ba7131461024f5780635f24836814610275578063715018a6146102905780637158da7c146102985780637a0cb784146102ab578063849ede23146102be5780638da5cb5b146102d157806391a848f3146102d9578063a51b8d5a146102ec578063b6dfcd8b146102ff578063c30dd72714610312578063d1717c7d14610325578063d86cd44e14610339578063e0876b441461034e578063ed04f21814610361578063edcf9c1f14610374578063f2fde38b1461037c575b5f5ffd5b600654610169906001600160a01b031681565b604051610176919061104c565b60405180910390f35b61019261018d36600461107b565b61038f565b005b6101926101a23660046110a4565b6103e0565b6101926101b53660046110e3565b61046c565b6101926101c836600461107b565b610529565b6101926101db36600461110b565b61059f565b6101696101ee36600461114b565b6106dc565b61019261020136600461107b565b6106f2565b600254610169906001600160a01b031681565b600354610169906001600160a01b031681565b61023f61023a36600461107b565b61078c565b6040519015158152602001610176565b60065461026390600160a01b900460ff1681565b60405160ff9091168152602001610176565b61027d610798565b60405161ffff9091168152602001610176565b6101926107a8565b600154610169906001600160a01b031681565b6101926102b93660046110e3565b6107bb565b600454610169906001600160a01b031681565b6101696108b6565b600554610169906001600160a01b031681565b6101926102fa36600461116c565b6108c4565b61019261030d36600461107b565b61096d565b61019261032036600461107b565b610ac2565b60065461026390600160a81b900460ff1681565b610341610b13565b6040516101769190611194565b61023f61035c36600461107b565b610bc6565b61034161036f3660046111df565b610be3565b61023f610cbf565b61019261038a36600461107b565b610dd0565b610397610e0d565b6001600160a01b0381166103be5760405163d92e233d60e01b815260040160405180910390fd5b600280546001600160a01b0319166001600160a01b0392909216919091179055565b6103e8610e0d565b6103f0610cbf565b61040d576040516312aecd8160e01b815260040160405180910390fd5b6006805460ff838116600160a01b0260ff60a01b19918616600160a81b029190911661ffff60a01b19909216919091171790556040517fc56626e36ca25ee9a19c58d2d4f9a4569523b059e6aaeb263573ded93fc33c5a905f90a15050565b610474610e0d565b61047c610cbf565b610499576040516312aecd8160e01b815260040160405180910390fd5b5f60018260018111156104ae576104ae6111f8565b036104c5576104be600b84610e3f565b90506104d3565b6104d0600984610e3f565b90505b806104f157604051631a27eac360e11b815260040160405180910390fd5b6040516001600160a01b038416907fe47da341e0fc63816c1254f1c35425f69460f49342668d11c984ea56762b00d4905f90a2505050565b610531610e0d565b610539610cbf565b610556576040516312aecd8160e01b815260040160405180910390fd5b6001600160a01b03811661057d5760405163d92e233d60e01b815260040160405180910390fd5b600680546001600160a01b0319166001600160a01b0392909216919091179055565b6105a7610e0d565b6105af610cbf565b6105cc576040516312aecd8160e01b815260040160405180910390fd5b5f6105d8600785610e5a565b9050806105f857604051630ea075bf60e21b815260040160405180910390fd5b6006546040516302707eef60e51b81526001600160a01b0390911690634e0fdde09061062a908790879060040161120c565b5f604051808303815f87803b158015610641575f5ffd5b505af1158015610653573d5f5f3e3d5ffd5b50506003546040516359017aa960e01b81526001600160a01b0390911692506359017aa99150610689908790869060040161120c565b5f604051808303815f87803b1580156106a0575f5ffd5b505af11580156106b2573d5f5f3e3d5ffd5b50506040516001600160a01b03871692505f5160206112a95f395f51905f5291505f90a250505050565b5f6106ec600761ffff8416610e6e565b92915050565b6106fa610e0d565b6001600160a01b0381166107215760405163d92e233d60e01b815260040160405180910390fd5b600180546001600160a01b0319166001600160a01b0383161790555f610748600783610e5a565b90508061076857604051630ea075bf60e21b815260040160405180910390fd5b6040516001600160a01b038316905f5160206112a95f395f51905f52905f90a25050565b5f6106ec600783610e79565b5f6107a36007610e8d565b905090565b6107b0610e0d565b6107b95f610e96565b565b6004546001600160a01b031633148015906107e157506005546001600160a01b03163314155b156107ff57604051631a27eac360e11b815260040160405180910390fd5b6001600160a01b0382166108265760405163d92e233d60e01b815260040160405180910390fd5b5f600182600181111561083b5761083b6111f8565b036108525761084b600b84610e5a565b9050610860565b61085d600984610e5a565b90505b8061087e57604051630ea075bf60e21b815260040160405180910390fd5b6040516001600160a01b038416907f9a7094a648c0524f3d62b9167886d30be0e68cf53863fe556edda348f189445a905f90a2505050565b5f546001600160a01b031690565b6108cc610e0d565b6108d4610cbf565b6108f1576040516312aecd8160e01b815260040160405180910390fd5b6001600160a01b0382166109185760405163d92e233d60e01b815260040160405180910390fd5b6001600160a01b03811661093f5760405163d92e233d60e01b815260040160405180910390fd5b600480546001600160a01b039384166001600160a01b03199182161790915560058054929093169116179055565b610975610e0d565b61097d610cbf565b61099a576040516312aecd8160e01b815260040160405180910390fd5b5f6109a6600783610e3f565b9050806109d1578160405163751dff9760e11b81526004016109c8919061104c565b60405180910390fd5b600654604051634386017560e01b81526001600160a01b0390911690634386017590610a0190859060040161104c565b5f604051808303815f87803b158015610a18575f5ffd5b505af1158015610a2a573d5f5f3e3d5ffd5b505060035460405163841181ef60e01b81526001600160a01b03909116925063841181ef9150610a5e90859060040161104c565b5f604051808303815f87803b158015610a75575f5ffd5b505af1158015610a87573d5f5f3e3d5ffd5b50506040516001600160a01b03851692507f952363a786fc6f24cfb955cd6207cf91ecee3a82a7dd0bc26891ff7647b5784c91505f90a25050565b610aca610e0d565b6001600160a01b038116610af15760405163d92e233d60e01b815260040160405180910390fd5b600380546001600160a01b0319166001600160a01b0392909216919091179055565b60605f610b206007610e8d565b90508061ffff166001600160401b03811115610b3e57610b3e611226565b604051908082528060200260200182016040528015610b67578160200160208202803683370190505b5091505f5b8161ffff168161ffff161015610bc157610b8b600761ffff8316610e6e565b838261ffff1681518110610ba157610ba161123a565b6001600160a01b0390921660209283029190910190910152600101610b6c565b505090565b5f610bd2600b83610e79565b806106ec57506106ec600983610e79565b60605f6001836001811115610bfa57610bfa6111f8565b14610c06576009610c09565b600b5b90505f610c1582610e8d565b90505f8161ffff166001600160401b03811115610c3457610c34611226565b604051908082528060200260200182016040528015610c5d578160200160208202803683370190505b5090505f5b8261ffff168161ffff161015610cb657610c808461ffff8316610e6e565b828261ffff1681518110610c9657610c9661123a565b6001600160a01b0390921660209283029190910190910152600101610c62565b50949350505050565b5f8060035f9054906101000a90046001600160a01b03166001600160a01b031663055ad42e6040518163ffffffff1660e01b8152600401602060405180830381865afa158015610d11573d5f5f3e3d5ffd5b505050506040513d601f19601f82011682018060405250810190610d35919061125a565b6003811115610d4657610d466111f8565b1480156107a35750600254604080516302ad6a1760e11b815290515f926001600160a01b03169163055ad42e9160048083019260209291908290030181865afa158015610d95573d5f5f3e3d5ffd5b505050506040513d601f19601f82011682018060405250810190610db9919061125a565b6003811115610dca57610dca6111f8565b14905090565b610dd8610e0d565b6001600160a01b038116610e01575f604051631e4fbdf760e01b81526004016109c8919061104c565b610e0a81610e96565b50565b33610e166108b6565b6001600160a01b0316146107b9573360405163118cdaa760e01b81526004016109c8919061104c565b5f610e53836001600160a01b038416610ee5565b9392505050565b5f610e53836001600160a01b038416610fc8565b5f610e53838361100f565b5f610e53836001600160a01b038416611035565b5f6106ec825490565b5f80546001600160a01b038381166001600160a01b0319831681178455604051919092169283917f8be0079c531659141344cd1fd0a4f28419497f9722a3daafe3b4186f6b6457e09190a35050565b5f8181526001830160205260408120548015610fbf575f610f07600183611275565b85549091505f90610f1a90600190611275565b9050808214610f79575f865f018281548110610f3857610f3861123a565b905f5260205f200154905080875f018481548110610f5857610f5861123a565b5f918252602080832090910192909255918252600188019052604090208390555b8554869080610f8a57610f8a611294565b600190038181905f5260205f20015f90559055856001015f8681526020019081526020015f205f9055600193505050506106ec565b5f9150506106ec565b5f610fd38383611035565b61100857508154600181810184555f8481526020808220909301849055845484825282860190935260409020919091556106ec565b505f6106ec565b5f825f0182815481106110245761102461123a565b905f5260205f200154905092915050565b5f9081526001919091016020526040902054151590565b6001600160a01b0391909116815260200190565b80356001600160a01b0381168114611076575f5ffd5b919050565b5f6020828403121561108b575f5ffd5b610e5382611060565b803560ff81168114611076575f5ffd5b5f5f604083850312156110b5575f5ffd5b6110be83611094565b91506110cc60208401611094565b90509250929050565b803560028110611076575f5ffd5b5f5f604083850312156110f4575f5ffd5b6110fd83611060565b91506110cc602084016110d5565b5f5f5f6060848603121561111d575f5ffd5b61112684611060565b925061113460208501611060565b915061114260408501611060565b90509250925092565b5f6020828403121561115b575f5ffd5b813561ffff81168114610e53575f5ffd5b5f5f6040838503121561117d575f5ffd5b61118683611060565b91506110cc60208401611060565b602080825282518282018190525f918401906040840190835b818110156111d45783516001600160a01b03168352602093840193909201916001016111ad565b509095945050505050565b5f602082840312156111ef575f5ffd5b610e53826110d5565b634e487b7160e01b5f52602160045260245ffd5b6001600160a01b0392831681529116602082015260400190565b634e487b7160e01b5f52604160045260245ffd5b634e487b7160e01b5f52603260045260245ffd5b60048110610e0a575f5ffd5b5f6020828403121561126a575f5ffd5b8151610e538161124e565b818103818111156106ec57634e487b7160e01b5f52601160045260245ffd5b634e487b7160e01b5f52603160045260245ffdfedcbd8d9d0373041250f6c25b6b7aeccb3e9ff291e510ef85bb9f8ac09ceb6f64a2646970667358221220d45fdc3313f6334eb398c1b69085049b56646d0d6590fb8c7b1b8c749cd52a4864736f6c634300081c0033",
  "linkReferences": {},
  "deployedLinkReferences": {}
}