{
  "_format": "hh-sol-artifact-1",
  "contractName": "OrionConfig",
  "sourceName": "contracts/OrionConfig.sol",
  "abi": [
    {
      "inputs": [
        {
          "internalType": "address",
          "name": "initialOwner",
          "type": "address"
        }
      ],
      "stateMutability": "nonpayable",
      "type": "constructor"
    },
    {
      "inputs": [],
      "name": "AlreadyRegistered",
      "type": "error"
    },
    {
      "inputs": [
        {
          "internalType": "address",
          "name": "owner",
          "type": "address"
        }
      ],
      "name": "OwnableInvalidOwner",
      "type": "error"
    },
    {
      "inputs": [
        {
          "internalType": "address",
          "name": "account",
          "type": "address"
        }
      ],
      "name": "OwnableUnauthorizedAccount",
      "type": "error"
    },
    {
      "inputs": [],
      "name": "SystemNotIdle",
      "type": "error"
    },
    {
      "inputs": [
        {
          "internalType": "address",
          "name": "token",
          "type": "address"
        }
      ],
      "name": "TokenNotWhitelisted",
      "type": "error"
    },
    {
      "inputs": [],
      "name": "UnauthorizedAccess",
      "type": "error"
    },
    {
      "inputs": [],
      "name": "ZeroAddress",
      "type": "error"
    },
    {
      "anonymous": false,
      "inputs": [
        {
          "indexed": true,
          "internalType": "address",
          "name": "vault",
          "type": "address"
        }
      ],
      "name": "OrionVaultAdded",
      "type": "event"
    },
    {
      "anonymous": false,
      "inputs": [
        {
          "indexed": true,
          "internalType": "address",
          "name": "vault",
          "type": "address"
        }
      ],
      "name": "OrionVaultRemoved",
      "type": "event"
    },
    {
      "anonymous": false,
      "inputs": [
        {
          "indexed": true,
          "internalType": "address",
          "name": "previousOwner",
          "type": "address"
        },
        {
          "indexed": true,
          "internalType": "address",
          "name": "newOwner",
          "type": "address"
        }
      ],
      "name": "OwnershipTransferred",
      "type": "event"
    },
    {
      "anonymous": false,
      "inputs": [],
      "name": "ProtocolParamsUpdated",
      "type": "event"
    },
    {
      "anonymous": false,
      "inputs": [
        {
          "indexed": true,
          "internalType": "address",
          "name": "asset",
          "type": "address"
        }
      ],
      "name": "WhitelistedAssetAdded",
      "type": "event"
    },
    {
      "anonymous": false,
      "inputs": [
        {
          "indexed": true,
          "internalType": "address",
          "name": "asset",
          "type": "address"
        }
      ],
      "name": "WhitelistedAssetRemoved",
      "type": "event"
    },
    {
      "inputs": [
        {
          "internalType": "address",
          "name": "vault",
          "type": "address"
        },
        {
          "internalType": "enum EventsLib.VaultType",
          "name": "vaultType",
          "type": "uint8"
        }
      ],
      "name": "addOrionVault",
      "outputs": [],
      "stateMutability": "nonpayable",
      "type": "function"
    },
    {
      "inputs": [
        {
          "internalType": "address",
          "name": "asset",
          "type": "address"
        },
        {
          "internalType": "address",
          "name": "priceAdapter",
          "type": "address"
        },
        {
          "internalType": "address",
          "name": "executionAdapter",
          "type": "address"
        }
      ],
      "name": "addWhitelistedAsset",
      "outputs": [],
      "stateMutability": "nonpayable",
      "type": "function"
    },
    {
      "inputs": [],
      "name": "curatorIntentDecimals",
      "outputs": [
        {
          "internalType": "uint8",
          "name": "",
          "type": "uint8"
        }
      ],
      "stateMutability": "view",
      "type": "function"
    },
    {
      "inputs": [],
      "name": "encryptedVaultFactory",
      "outputs": [
        {
          "internalType": "address",
          "name": "",
          "type": "address"
        }
      ],
      "stateMutability": "view",
      "type": "function"
    },
    {
      "inputs": [
        {
          "internalType": "enum EventsLib.VaultType",
          "name": "vaultType",
          "type": "uint8"
        }
      ],
      "name": "getAllOrionVaults",
      "outputs": [
        {
          "internalType": "address[]",
          "name": "",
          "type": "address[]"
        }
      ],
      "stateMutability": "view",
      "type": "function"
    },
    {
      "inputs": [],
      "name": "getAllWhitelistedAssets",
      "outputs": [
        {
          "internalType": "address[]",
          "name": "assets",
          "type": "address[]"
        }
      ],
      "stateMutability": "view",
      "type": "function"
    },
    {
      "inputs": [
        {
          "internalType": "uint16",
          "name": "index",
          "type": "uint16"
        }
      ],
      "name": "getWhitelistedAssetAt",
      "outputs": [
        {
          "internalType": "address",
          "name": "",
          "type": "address"
        }
      ],
      "stateMutability": "view",
      "type": "function"
    },
    {
      "inputs": [],
      "name": "internalStatesOrchestrator",
      "outputs": [
        {
          "internalType": "address",
          "name": "",
          "type": "address"
        }
      ],
      "stateMutability": "view",
      "type": "function"
    },
    {
      "inputs": [
        {
          "internalType": "address",
          "name": "vault",
          "type": "address"
        }
      ],
      "name": "isOrionVault",
      "outputs": [
        {
          "internalType": "bool",
          "name": "",
          "type": "bool"
        }
      ],
      "stateMutability": "view",
      "type": "function"
    },
    {
      "inputs": [],
      "name": "isSystemIdle",
      "outputs": [
        {
          "internalType": "bool",
          "name": "",
          "type": "bool"
        }
      ],
      "stateMutability": "view",
      "type": "function"
    },
    {
      "inputs": [
        {
          "internalType": "address",
          "name": "asset",
          "type": "address"
        }
      ],
      "name": "isWhitelisted",
      "outputs": [
        {
          "internalType": "bool",
          "name": "",
          "type": "bool"
        }
      ],
      "stateMutability": "view",
      "type": "function"
    },
    {
      "inputs": [],
      "name": "liquidityOrchestrator",
      "outputs": [
        {
          "internalType": "address",
          "name": "",
          "type": "address"
        }
      ],
      "stateMutability": "view",
      "type": "function"
    },
    {
      "inputs": [],
      "name": "owner",
      "outputs": [
        {
          "internalType": "address",
          "name": "",
          "type": "address"
        }
      ],
      "stateMutability": "view",
      "type": "function"
    },
    {
      "inputs": [],
      "name": "priceAdapterDecimals",
      "outputs": [
        {
          "internalType": "uint8",
          "name": "",
          "type": "uint8"
        }
      ],
      "stateMutability": "view",
      "type": "function"
    },
    {
      "inputs": [],
      "name": "priceAdapterRegistry",
      "outputs": [
        {
          "internalType": "address",
          "name": "",
          "type": "address"
        }
      ],
      "stateMutability": "view",
      "type": "function"
    },
    {
      "inputs": [
        {
          "internalType": "address",
          "name": "vault",
          "type": "address"
        },
        {
          "internalType": "enum EventsLib.VaultType",
          "name": "vaultType",
          "type": "uint8"
        }
      ],
      "name": "removeOrionVault",
      "outputs": [],
      "stateMutability": "nonpayable",
      "type": "function"
    },
    {
      "inputs": [
        {
          "internalType": "address",
          "name": "asset",
          "type": "address"
        }
      ],
      "name": "removeWhitelistedAsset",
      "outputs": [],
      "stateMutability": "nonpayable",
      "type": "function"
    },
    {
      "inputs": [],
      "name": "renounceOwnership",
      "outputs": [],
      "stateMutability": "nonpayable",
      "type": "function"
    },
    {
      "inputs": [],
      "name": "riskFreeRate",
      "outputs": [
        {
          "internalType": "uint16",
          "name": "",
          "type": "uint16"
        }
      ],
      "stateMutability": "view",
      "type": "function"
    },
    {
      "inputs": [
        {
          "internalType": "address",
          "name": "orchestrator",
          "type": "address"
        }
      ],
      "name": "setInternalStatesOrchestrator",
      "outputs": [],
      "stateMutability": "nonpayable",
      "type": "function"
    },
    {
      "inputs": [
        {
          "internalType": "address",
          "name": "orchestrator",
          "type": "address"
        }
      ],
      "name": "setLiquidityOrchestrator",
      "outputs": [],
      "stateMutability": "nonpayable",
      "type": "function"
    },
    {
      "inputs": [
        {
          "internalType": "address",
          "name": "registry",
          "type": "address"
        }
      ],
      "name": "setPriceAdapterRegistry",
      "outputs": [],
      "stateMutability": "nonpayable",
      "type": "function"
    },
    {
      "inputs": [
        {
          "internalType": "uint8",
          "name": "_curatorIntentDecimals",
          "type": "uint8"
        },
        {
          "internalType": "uint8",
          "name": "_priceAdapterDecimals",
          "type": "uint8"
        },
        {
          "internalType": "uint16",
          "name": "_riskFreeRate",
          "type": "uint16"
        }
      ],
      "name": "setProtocolParams",
      "outputs": [],
      "stateMutability": "nonpayable",
      "type": "function"
    },
    {
      "inputs": [
        {
          "internalType": "address",
          "name": "asset",
          "type": "address"
        }
      ],
      "name": "setUnderlyingAsset",
      "outputs": [],
      "stateMutability": "nonpayable",
      "type": "function"
    },
    {
      "inputs": [
        {
          "internalType": "address",
          "name": "transparentFactory",
          "type": "address"
        },
        {
          "internalType": "address",
          "name": "encryptedFactory",
          "type": "address"
        }
      ],
      "name": "setVaultFactories",
      "outputs": [],
      "stateMutability": "nonpayable",
      "type": "function"
    },
    {
      "inputs": [
        {
          "internalType": "address",
          "name": "newOwner",
          "type": "address"
        }
      ],
      "name": "transferOwnership",
      "outputs": [],
      "stateMutability": "nonpayable",
      "type": "function"
    },
    {
      "inputs": [],
      "name": "transparentVaultFactory",
      "outputs": [
        {
          "internalType": "address",
          "name": "",
          "type": "address"
        }
      ],
      "stateMutability": "view",
      "type": "function"
    },
    {
      "inputs": [],
      "name": "underlyingAsset",
      "outputs": [
        {
          "internalType": "contract IERC20",
          "name": "",
          "type": "address"
        }
      ],
      "stateMutability": "view",
      "type": "function"
    },
    {
      "inputs": [],
      "name": "whitelistedAssetsLength",
      "outputs": [
        {
          "internalType": "uint16",
          "name": "",
          "type": "uint16"
        }
      ],
      "stateMutability": "view",
      "type": "function"
    }
  ],
  "bytecode": "0x6080604052348015600e575f5ffd5b50604051611438380380611438833981016040819052602b9160b4565b806001600160a01b038116605857604051631e4fbdf760e01b81525f600482015260240160405180910390fd5b605f816065565b505060df565b5f80546001600160a01b038381166001600160a01b0319831681178455604051919092169283917f8be0079c531659141344cd1fd0a4f28419497f9722a3daafe3b4186f6b6457e09190a35050565b5f6020828403121560c3575f5ffd5b81516001600160a01b038116811460d8575f5ffd5b9392505050565b61134c806100ec5f395ff3fe608060405234801561000f575f5ffd5b506004361061015d575f3560e01c8063015df993146101615780630a8b78c71461018a5780631dbc3c041461019f5780632095b01e146101b257806323a06a1c146101c55780632430dbf3146101d857806325671dcb146101eb578063348ec5c8146101fe5780633a0dad8e146102115780633af32abf14610224578063567ba713146102475780635f2483681461026d578063715018a6146102885780637158da7c146102905780637a0cb784146102a3578063849ede23146102b65780638da5cb5b146102c957806391a848f3146102d1578063a51b8d5a146102e4578063b6dfcd8b146102f7578063c30dd7271461030a578063d1717c7d1461031d578063d86cd44e14610331578063de3565f214610346578063e0876b4414610359578063ed04f2181461036c578063edcf9c1f1461037f578063f2fde38b14610387578063f3cc69931461039a575b5f5ffd5b600654610174906001600160a01b031681565b6040516101819190611082565b60405180910390f35b61019d6101983660046110b1565b6103af565b005b61019d6101ad3660046110d8565b610400565b61019d6101c03660046110b1565b6104bd565b61019d6101d3366004611109565b610533565b6101746101e636600461115a565b610670565b61019d6101f93660046110b1565b610686565b600254610174906001600160a01b031681565b600354610174906001600160a01b031681565b6102376102323660046110b1565b610720565b6040519015158152602001610181565b60065461025b90600160a81b900460ff1681565b60405160ff9091168152602001610181565b61027561072c565b60405161ffff9091168152602001610181565b61019d61073c565b600154610174906001600160a01b031681565b61019d6102b13660046110d8565b61074f565b600454610174906001600160a01b031681565b61017461084a565b600554610174906001600160a01b031681565b61019d6102f2366004611173565b610858565b61019d6103053660046110b1565b610901565b61019d6103183660046110b1565b610a56565b60065461025b90600160a01b900460ff1681565b610339610aa7565b604051610181919061119b565b61019d6103543660046111f6565b610b5a565b6102376103673660046110b1565b610bfc565b61033961037a36600461122d565b610c19565b610237610cf5565b61019d6103953660046110b1565b610e06565b60065461027590600160b01b900461ffff1681565b6103b7610e43565b6001600160a01b0381166103de5760405163d92e233d60e01b815260040160405180910390fd5b600280546001600160a01b0319166001600160a01b0392909216919091179055565b610408610e43565b610410610cf5565b61042d576040516312aecd8160e01b815260040160405180910390fd5b5f600182600181111561044257610442611246565b0361045957610452600b84610e75565b9050610467565b610464600984610e75565b90505b8061048557604051631a27eac360e11b815260040160405180910390fd5b6040516001600160a01b038416907fe47da341e0fc63816c1254f1c35425f69460f49342668d11c984ea56762b00d4905f90a2505050565b6104c5610e43565b6104cd610cf5565b6104ea576040516312aecd8160e01b815260040160405180910390fd5b6001600160a01b0381166105115760405163d92e233d60e01b815260040160405180910390fd5b600680546001600160a01b0319166001600160a01b0392909216919091179055565b61053b610e43565b610543610cf5565b610560576040516312aecd8160e01b815260040160405180910390fd5b5f61056c600785610e90565b90508061058c57604051630ea075bf60e21b815260040160405180910390fd5b6006546040516302707eef60e51b81526001600160a01b0390911690634e0fdde0906105be908790879060040161125a565b5f604051808303815f87803b1580156105d5575f5ffd5b505af11580156105e7573d5f5f3e3d5ffd5b50506003546040516359017aa960e01b81526001600160a01b0390911692506359017aa9915061061d908790869060040161125a565b5f604051808303815f87803b158015610634575f5ffd5b505af1158015610646573d5f5f3e3d5ffd5b50506040516001600160a01b03871692505f5160206112f75f395f51905f5291505f90a250505050565b5f610680600761ffff8416610ea4565b92915050565b61068e610e43565b6001600160a01b0381166106b55760405163d92e233d60e01b815260040160405180910390fd5b600180546001600160a01b0319166001600160a01b0383161790555f6106dc600783610e90565b9050806106fc57604051630ea075bf60e21b815260040160405180910390fd5b6040516001600160a01b038316905f5160206112f75f395f51905f52905f90a25050565b5f610680600783610eaf565b5f6107376007610ec3565b905090565b610744610e43565b61074d5f610ecc565b565b6004546001600160a01b0316331480159061077557506005546001600160a01b03163314155b1561079357604051631a27eac360e11b815260040160405180910390fd5b6001600160a01b0382166107ba5760405163d92e233d60e01b815260040160405180910390fd5b5f60018260018111156107cf576107cf611246565b036107e6576107df600b84610e90565b90506107f4565b6107f1600984610e90565b90505b8061081257604051630ea075bf60e21b815260040160405180910390fd5b6040516001600160a01b038416907f9a7094a648c0524f3d62b9167886d30be0e68cf53863fe556edda348f189445a905f90a2505050565b5f546001600160a01b031690565b610860610e43565b610868610cf5565b610885576040516312aecd8160e01b815260040160405180910390fd5b6001600160a01b0382166108ac5760405163d92e233d60e01b815260040160405180910390fd5b6001600160a01b0381166108d35760405163d92e233d60e01b815260040160405180910390fd5b600480546001600160a01b039384166001600160a01b03199182161790915560058054929093169116179055565b610909610e43565b610911610cf5565b61092e576040516312aecd8160e01b815260040160405180910390fd5b5f61093a600783610e75565b905080610965578160405163751dff9760e11b815260040161095c9190611082565b60405180910390fd5b600654604051634386017560e01b81526001600160a01b0390911690634386017590610995908590600401611082565b5f604051808303815f87803b1580156109ac575f5ffd5b505af11580156109be573d5f5f3e3d5ffd5b505060035460405163841181ef60e01b81526001600160a01b03909116925063841181ef91506109f2908590600401611082565b5f604051808303815f87803b158015610a09575f5ffd5b505af1158015610a1b573d5f5f3e3d5ffd5b50506040516001600160a01b03851692507f952363a786fc6f24cfb955cd6207cf91ecee3a82a7dd0bc26891ff7647b5784c91505f90a25050565b610a5e610e43565b6001600160a01b038116610a855760405163d92e233d60e01b815260040160405180910390fd5b600380546001600160a01b0319166001600160a01b0392909216919091179055565b60605f610ab46007610ec3565b90508061ffff166001600160401b03811115610ad257610ad2611274565b604051908082528060200260200182016040528015610afb578160200160208202803683370190505b5091505f5b8161ffff168161ffff161015610b5557610b1f600761ffff8316610ea4565b838261ffff1681518110610b3557610b35611288565b6001600160a01b0390921660209283029190910190910152600101610b00565b505090565b610b62610e43565b610b6a610cf5565b610b87576040516312aecd8160e01b815260040160405180910390fd5b6006805461ffff60a01b1916600160a01b60ff8681169190910260ff60a81b191691909117600160a81b918516919091021761ffff60b01b1916600160b01b61ffff8416021790556040517fc56626e36ca25ee9a19c58d2d4f9a4569523b059e6aaeb263573ded93fc33c5a905f90a1505050565b5f610c08600b83610eaf565b806106805750610680600983610eaf565b60605f6001836001811115610c3057610c30611246565b14610c3c576009610c3f565b600b5b90505f610c4b82610ec3565b90505f8161ffff166001600160401b03811115610c6a57610c6a611274565b604051908082528060200260200182016040528015610c93578160200160208202803683370190505b5090505f5b8261ffff168161ffff161015610cec57610cb68461ffff8316610ea4565b828261ffff1681518110610ccc57610ccc611288565b6001600160a01b0390921660209283029190910190910152600101610c98565b50949350505050565b5f8060035f9054906101000a90046001600160a01b03166001600160a01b031663055ad42e6040518163ffffffff1660e01b8152600401602060405180830381865afa158015610d47573d5f5f3e3d5ffd5b505050506040513d601f19601f82011682018060405250810190610d6b91906112a8565b6003811115610d7c57610d7c611246565b1480156107375750600254604080516302ad6a1760e11b815290515f926001600160a01b03169163055ad42e9160048083019260209291908290030181865afa158015610dcb573d5f5f3e3d5ffd5b505050506040513d601f19601f82011682018060405250810190610def91906112a8565b6003811115610e0057610e00611246565b14905090565b610e0e610e43565b6001600160a01b038116610e37575f604051631e4fbdf760e01b815260040161095c9190611082565b610e4081610ecc565b50565b33610e4c61084a565b6001600160a01b03161461074d573360405163118cdaa760e01b815260040161095c9190611082565b5f610e89836001600160a01b038416610f1b565b9392505050565b5f610e89836001600160a01b038416610ffe565b5f610e898383611045565b5f610e89836001600160a01b03841661106b565b5f610680825490565b5f80546001600160a01b038381166001600160a01b0319831681178455604051919092169283917f8be0079c531659141344cd1fd0a4f28419497f9722a3daafe3b4186f6b6457e09190a35050565b5f8181526001830160205260408120548015610ff5575f610f3d6001836112c3565b85549091505f90610f50906001906112c3565b9050808214610faf575f865f018281548110610f6e57610f6e611288565b905f5260205f200154905080875f018481548110610f8e57610f8e611288565b5f918252602080832090910192909255918252600188019052604090208390555b8554869080610fc057610fc06112e2565b600190038181905f5260205f20015f90559055856001015f8681526020019081526020015f205f905560019350505050610680565b5f915050610680565b5f611009838361106b565b61103e57508154600181810184555f848152602080822090930184905584548482528286019093526040902091909155610680565b505f610680565b5f825f01828154811061105a5761105a611288565b905f5260205f200154905092915050565b5f9081526001919091016020526040902054151590565b6001600160a01b0391909116815260200190565b80356001600160a01b03811681146110ac575f5ffd5b919050565b5f602082840312156110c1575f5ffd5b610e8982611096565b8035600281106110ac575f5ffd5b5f5f604083850312156110e9575f5ffd5b6110f283611096565b9150611100602084016110ca565b90509250929050565b5f5f5f6060848603121561111b575f5ffd5b61112484611096565b925061113260208501611096565b915061114060408501611096565b90509250925092565b803561ffff811681146110ac575f5ffd5b5f6020828403121561116a575f5ffd5b610e8982611149565b5f5f60408385031215611184575f5ffd5b61118d83611096565b915061110060208401611096565b602080825282518282018190525f918401906040840190835b818110156111db5783516001600160a01b03168352602093840193909201916001016111b4565b509095945050505050565b803560ff811681146110ac575f5ffd5b5f5f5f60608486031215611208575f5ffd5b611211846111e6565b925061121f602085016111e6565b915061114060408501611149565b5f6020828403121561123d575f5ffd5b610e89826110ca565b634e487b7160e01b5f52602160045260245ffd5b6001600160a01b0392831681529116602082015260400190565b634e487b7160e01b5f52604160045260245ffd5b634e487b7160e01b5f52603260045260245ffd5b60048110610e40575f5ffd5b5f602082840312156112b8575f5ffd5b8151610e898161129c565b8181038181111561068057634e487b7160e01b5f52601160045260245ffd5b634e487b7160e01b5f52603160045260245ffdfedcbd8d9d0373041250f6c25b6b7aeccb3e9ff291e510ef85bb9f8ac09ceb6f64a2646970667358221220e37447d019a0c106b0c0378b6fd5845be56bc0f08054e84d32846f0ea808a11964736f6c634300081c0033",
  "linkReferences": {},
  "deployedLinkReferences": {}
}