{
  "_format": "hh-sol-artifact-1",
  "contractName": "OrionConfig",
  "sourceName": "contracts/OrionConfig.sol",
  "abi": [
    {
      "inputs": [
        {
          "internalType": "address",
          "name": "initialOwner",
          "type": "address"
        }
      ],
      "stateMutability": "nonpayable",
      "type": "constructor"
    },
    {
      "inputs": [],
      "name": "AlreadyRegistered",
      "type": "error"
    },
    {
      "inputs": [
        {
          "internalType": "address",
          "name": "owner",
          "type": "address"
        }
      ],
      "name": "OwnableInvalidOwner",
      "type": "error"
    },
    {
      "inputs": [
        {
          "internalType": "address",
          "name": "account",
          "type": "address"
        }
      ],
      "name": "OwnableUnauthorizedAccount",
      "type": "error"
    },
    {
      "inputs": [],
      "name": "SystemNotIdle",
      "type": "error"
    },
    {
      "inputs": [
        {
          "internalType": "address",
          "name": "token",
          "type": "address"
        }
      ],
      "name": "TokenNotWhitelisted",
      "type": "error"
    },
    {
      "inputs": [],
      "name": "UnauthorizedAccess",
      "type": "error"
    },
    {
      "inputs": [],
      "name": "ZeroAddress",
      "type": "error"
    },
    {
      "anonymous": false,
      "inputs": [
        {
          "indexed": true,
          "internalType": "address",
          "name": "vault",
          "type": "address"
        }
      ],
      "name": "OrionVaultAdded",
      "type": "event"
    },
    {
      "anonymous": false,
      "inputs": [
        {
          "indexed": true,
          "internalType": "address",
          "name": "vault",
          "type": "address"
        }
      ],
      "name": "OrionVaultRemoved",
      "type": "event"
    },
    {
      "anonymous": false,
      "inputs": [
        {
          "indexed": true,
          "internalType": "address",
          "name": "previousOwner",
          "type": "address"
        },
        {
          "indexed": true,
          "internalType": "address",
          "name": "newOwner",
          "type": "address"
        }
      ],
      "name": "OwnershipTransferred",
      "type": "event"
    },
    {
      "anonymous": false,
      "inputs": [],
      "name": "ProtocolParamsUpdated",
      "type": "event"
    },
    {
      "anonymous": false,
      "inputs": [
        {
          "indexed": true,
          "internalType": "address",
          "name": "asset",
          "type": "address"
        }
      ],
      "name": "WhitelistedAssetAdded",
      "type": "event"
    },
    {
      "anonymous": false,
      "inputs": [
        {
          "indexed": true,
          "internalType": "address",
          "name": "asset",
          "type": "address"
        }
      ],
      "name": "WhitelistedAssetRemoved",
      "type": "event"
    },
    {
      "inputs": [
        {
          "internalType": "address",
          "name": "vault",
          "type": "address"
        },
        {
          "internalType": "enum EventsLib.VaultType",
          "name": "vaultType",
          "type": "uint8"
        }
      ],
      "name": "addOrionVault",
      "outputs": [],
      "stateMutability": "nonpayable",
      "type": "function"
    },
    {
      "inputs": [
        {
          "internalType": "address",
          "name": "asset",
          "type": "address"
        },
        {
          "internalType": "address",
          "name": "priceAdapter",
          "type": "address"
        },
        {
          "internalType": "address",
          "name": "executionAdapter",
          "type": "address"
        }
      ],
      "name": "addWhitelistedAsset",
      "outputs": [],
      "stateMutability": "nonpayable",
      "type": "function"
    },
    {
      "inputs": [],
      "name": "curatorIntentDecimals",
      "outputs": [
        {
          "internalType": "uint8",
          "name": "",
          "type": "uint8"
        }
      ],
      "stateMutability": "view",
      "type": "function"
    },
    {
      "inputs": [],
      "name": "encryptedMinibatchSize",
      "outputs": [
        {
          "internalType": "uint8",
          "name": "",
          "type": "uint8"
        }
      ],
      "stateMutability": "view",
      "type": "function"
    },
    {
      "inputs": [],
      "name": "encryptedVaultFactory",
      "outputs": [
        {
          "internalType": "address",
          "name": "",
          "type": "address"
        }
      ],
      "stateMutability": "view",
      "type": "function"
    },
    {
      "inputs": [
        {
          "internalType": "enum EventsLib.VaultType",
          "name": "vaultType",
          "type": "uint8"
        }
      ],
      "name": "getAllOrionVaults",
      "outputs": [
        {
          "internalType": "address[]",
          "name": "",
          "type": "address[]"
        }
      ],
      "stateMutability": "view",
      "type": "function"
    },
    {
      "inputs": [],
      "name": "getAllWhitelistedAssets",
      "outputs": [
        {
          "internalType": "address[]",
          "name": "assets",
          "type": "address[]"
        }
      ],
      "stateMutability": "view",
      "type": "function"
    },
    {
      "inputs": [
        {
          "internalType": "uint256",
          "name": "index",
          "type": "uint256"
        }
      ],
      "name": "getWhitelistedAssetAt",
      "outputs": [
        {
          "internalType": "address",
          "name": "",
          "type": "address"
        }
      ],
      "stateMutability": "view",
      "type": "function"
    },
    {
      "inputs": [],
      "name": "internalStatesOrchestrator",
      "outputs": [
        {
          "internalType": "address",
          "name": "",
          "type": "address"
        }
      ],
      "stateMutability": "view",
      "type": "function"
    },
    {
      "inputs": [
        {
          "internalType": "address",
          "name": "vault",
          "type": "address"
        }
      ],
      "name": "isOrionVault",
      "outputs": [
        {
          "internalType": "bool",
          "name": "",
          "type": "bool"
        }
      ],
      "stateMutability": "view",
      "type": "function"
    },
    {
      "inputs": [],
      "name": "isSystemIdle",
      "outputs": [
        {
          "internalType": "bool",
          "name": "",
          "type": "bool"
        }
      ],
      "stateMutability": "view",
      "type": "function"
    },
    {
      "inputs": [
        {
          "internalType": "address",
          "name": "asset",
          "type": "address"
        }
      ],
      "name": "isWhitelisted",
      "outputs": [
        {
          "internalType": "bool",
          "name": "",
          "type": "bool"
        }
      ],
      "stateMutability": "view",
      "type": "function"
    },
    {
      "inputs": [],
      "name": "liquidityOrchestrator",
      "outputs": [
        {
          "internalType": "address",
          "name": "",
          "type": "address"
        }
      ],
      "stateMutability": "view",
      "type": "function"
    },
    {
      "inputs": [],
      "name": "owner",
      "outputs": [
        {
          "internalType": "address",
          "name": "",
          "type": "address"
        }
      ],
      "stateMutability": "view",
      "type": "function"
    },
    {
      "inputs": [],
      "name": "priceAdapterDecimals",
      "outputs": [
        {
          "internalType": "uint8",
          "name": "",
          "type": "uint8"
        }
      ],
      "stateMutability": "view",
      "type": "function"
    },
    {
      "inputs": [],
      "name": "priceAdapterRegistry",
      "outputs": [
        {
          "internalType": "address",
          "name": "",
          "type": "address"
        }
      ],
      "stateMutability": "view",
      "type": "function"
    },
    {
      "inputs": [
        {
          "internalType": "address",
          "name": "vault",
          "type": "address"
        },
        {
          "internalType": "enum EventsLib.VaultType",
          "name": "vaultType",
          "type": "uint8"
        }
      ],
      "name": "removeOrionVault",
      "outputs": [],
      "stateMutability": "nonpayable",
      "type": "function"
    },
    {
      "inputs": [
        {
          "internalType": "address",
          "name": "asset",
          "type": "address"
        }
      ],
      "name": "removeWhitelistedAsset",
      "outputs": [],
      "stateMutability": "nonpayable",
      "type": "function"
    },
    {
      "inputs": [],
      "name": "renounceOwnership",
      "outputs": [],
      "stateMutability": "nonpayable",
      "type": "function"
    },
    {
      "inputs": [
        {
          "internalType": "address",
          "name": "orchestrator",
          "type": "address"
        }
      ],
      "name": "setInternalStatesOrchestrator",
      "outputs": [],
      "stateMutability": "nonpayable",
      "type": "function"
    },
    {
      "inputs": [
        {
          "internalType": "address",
          "name": "orchestrator",
          "type": "address"
        }
      ],
      "name": "setLiquidityOrchestrator",
      "outputs": [],
      "stateMutability": "nonpayable",
      "type": "function"
    },
    {
      "inputs": [
        {
          "internalType": "address",
          "name": "registry",
          "type": "address"
        }
      ],
      "name": "setPriceAdapterRegistry",
      "outputs": [],
      "stateMutability": "nonpayable",
      "type": "function"
    },
    {
      "inputs": [
        {
          "internalType": "uint8",
          "name": "_curatorIntentDecimals",
          "type": "uint8"
        },
        {
          "internalType": "uint8",
          "name": "_priceAdapterDecimals",
          "type": "uint8"
        },
        {
          "internalType": "uint8",
          "name": "_transparentMinibatchSize",
          "type": "uint8"
        },
        {
          "internalType": "uint8",
          "name": "_encryptedMinibatchSize",
          "type": "uint8"
        }
      ],
      "name": "setProtocolParams",
      "outputs": [],
      "stateMutability": "nonpayable",
      "type": "function"
    },
    {
      "inputs": [
        {
          "internalType": "address",
          "name": "asset",
          "type": "address"
        }
      ],
      "name": "setUnderlyingAsset",
      "outputs": [],
      "stateMutability": "nonpayable",
      "type": "function"
    },
    {
      "inputs": [
        {
          "internalType": "address",
          "name": "transparentFactory",
          "type": "address"
        },
        {
          "internalType": "address",
          "name": "encryptedFactory",
          "type": "address"
        }
      ],
      "name": "setVaultFactories",
      "outputs": [],
      "stateMutability": "nonpayable",
      "type": "function"
    },
    {
      "inputs": [
        {
          "internalType": "address",
          "name": "newOwner",
          "type": "address"
        }
      ],
      "name": "transferOwnership",
      "outputs": [],
      "stateMutability": "nonpayable",
      "type": "function"
    },
    {
      "inputs": [],
      "name": "transparentMinibatchSize",
      "outputs": [
        {
          "internalType": "uint8",
          "name": "",
          "type": "uint8"
        }
      ],
      "stateMutability": "view",
      "type": "function"
    },
    {
      "inputs": [],
      "name": "transparentVaultFactory",
      "outputs": [
        {
          "internalType": "address",
          "name": "",
          "type": "address"
        }
      ],
      "stateMutability": "view",
      "type": "function"
    },
    {
      "inputs": [],
      "name": "underlyingAsset",
      "outputs": [
        {
          "internalType": "contract IERC20",
          "name": "",
          "type": "address"
        }
      ],
      "stateMutability": "view",
      "type": "function"
    },
    {
      "inputs": [],
      "name": "whitelistedAssetsLength",
      "outputs": [
        {
          "internalType": "uint256",
          "name": "",
          "type": "uint256"
        }
      ],
      "stateMutability": "view",
      "type": "function"
    }
  ],
  "bytecode": "0x6080604052348015600e575f5ffd5b506040516113e83803806113e8833981016040819052602b9160b4565b806001600160a01b038116605857604051631e4fbdf760e01b81525f600482015260240160405180910390fd5b605f816065565b505060df565b5f80546001600160a01b038381166001600160a01b0319831681178455604051919092169283917f8be0079c531659141344cd1fd0a4f28419497f9722a3daafe3b4186f6b6457e09190a35050565b5f6020828403121560c3575f5ffd5b81516001600160a01b038116811460d8575f5ffd5b9392505050565b6112fc806100ec5f395ff3fe608060405234801561000f575f5ffd5b5060043610610168575f3560e01c8063015df9931461016c57806308af604d146101955780630a567a2d146101bb5780630a8b78c7146101ce5780631dbc3c04146101e35780632095b01e146101f657806323a06a1c1461020957806325671dcb1461021c578063348ec5c81461022f57806336021ef4146102425780633a0dad8e146102565780633af32abf14610269578063567ba7131461028c5780635f248368146102a0578063715018a6146102b65780637158da7c146102be5780637a0cb784146102d1578063849ede23146102e45780638da5cb5b146102f757806391a848f3146102ff578063a51b8d5a14610312578063b6dfcd8b14610325578063bb7076c514610338578063c30dd7271461034b578063d1717c7d1461035e578063d86cd44e14610372578063e0876b4414610387578063ed04f2181461039a578063edcf9c1f146103ad578063f2fde38b146103b5575b5f5ffd5b60065461017f906001600160a01b031681565b60405161018c919061104b565b60405180910390f35b6006546101a990600160a81b900460ff1681565b60405160ff909116815260200161018c565b61017f6101c936600461105f565b6103c8565b6101e16101dc366004611091565b6103da565b005b6101e16101f13660046110b8565b61042b565b6101e1610204366004611091565b6104e8565b6101e16102173660046110e9565b61055e565b6101e161022a366004611091565b6106ae565b60025461017f906001600160a01b031681565b6006546101a990600160b01b900460ff1681565b60035461017f906001600160a01b031681565b61027c610277366004611091565b6106ff565b604051901515815260200161018c565b6006546101a990600160a01b900460ff1681565b6102a861070b565b60405190815260200161018c565b6101e161071b565b60015461017f906001600160a01b031681565b6101e16102df3660046110b8565b61072e565b60045461017f906001600160a01b031681565b61017f610829565b60055461017f906001600160a01b031681565b6101e1610320366004611129565b610837565b6101e1610333366004611091565b6108e0565b6101e1610346366004611161565b610a35565b6101e1610359366004611091565b610ae9565b6006546101a990600160b81b900460ff1681565b61037a610b3a565b60405161018c91906111b2565b61027c610395366004611091565b610bd9565b61037a6103a83660046111fd565b610bf6565b61027c610cbe565b6101e16103c3366004611091565b610dcf565b5f6103d4600783610e0c565b92915050565b6103e2610e1e565b6001600160a01b0381166104095760405163d92e233d60e01b815260040160405180910390fd5b600280546001600160a01b0319166001600160a01b0392909216919091179055565b610433610e1e565b61043b610cbe565b610458576040516312aecd8160e01b815260040160405180910390fd5b5f600182600181111561046d5761046d611216565b036104845761047d600b84610e50565b9050610492565b61048f600984610e50565b90505b806104b057604051631a27eac360e11b815260040160405180910390fd5b6040516001600160a01b038416907fe47da341e0fc63816c1254f1c35425f69460f49342668d11c984ea56762b00d4905f90a2505050565b6104f0610e1e565b6104f8610cbe565b610515576040516312aecd8160e01b815260040160405180910390fd5b6001600160a01b03811661053c5760405163d92e233d60e01b815260040160405180910390fd5b600680546001600160a01b0319166001600160a01b0392909216919091179055565b610566610e1e565b61056e610cbe565b61058b576040516312aecd8160e01b815260040160405180910390fd5b5f610597600785610e64565b9050806105b757604051630ea075bf60e21b815260040160405180910390fd5b6006546040516302707eef60e51b81526001600160a01b0390911690634e0fdde0906105e9908790879060040161122a565b5f604051808303815f87803b158015610600575f5ffd5b505af1158015610612573d5f5f3e3d5ffd5b50506003546040516359017aa960e01b81526001600160a01b0390911692506359017aa99150610648908790869060040161122a565b5f604051808303815f87803b15801561065f575f5ffd5b505af1158015610671573d5f5f3e3d5ffd5b50506040516001600160a01b03871692507fdcbd8d9d0373041250f6c25b6b7aeccb3e9ff291e510ef85bb9f8ac09ceb6f6491505f90a250505050565b6106b6610e1e565b6001600160a01b0381166106dd5760405163d92e233d60e01b815260040160405180910390fd5b600180546001600160a01b0319166001600160a01b0392909216919091179055565b5f6103d4600783610e78565b5f6107166007610e8c565b905090565b610723610e1e565b61072c5f610e95565b565b6004546001600160a01b0316331480159061075457506005546001600160a01b03163314155b1561077257604051631a27eac360e11b815260040160405180910390fd5b6001600160a01b0382166107995760405163d92e233d60e01b815260040160405180910390fd5b5f60018260018111156107ae576107ae611216565b036107c5576107be600b84610e64565b90506107d3565b6107d0600984610e64565b90505b806107f157604051630ea075bf60e21b815260040160405180910390fd5b6040516001600160a01b038416907f9a7094a648c0524f3d62b9167886d30be0e68cf53863fe556edda348f189445a905f90a2505050565b5f546001600160a01b031690565b61083f610e1e565b610847610cbe565b610864576040516312aecd8160e01b815260040160405180910390fd5b6001600160a01b03821661088b5760405163d92e233d60e01b815260040160405180910390fd5b6001600160a01b0381166108b25760405163d92e233d60e01b815260040160405180910390fd5b600480546001600160a01b039384166001600160a01b03199182161790915560058054929093169116179055565b6108e8610e1e565b6108f0610cbe565b61090d576040516312aecd8160e01b815260040160405180910390fd5b5f610919600783610e50565b905080610944578160405163751dff9760e11b815260040161093b919061104b565b60405180910390fd5b600654604051634386017560e01b81526001600160a01b039091169063438601759061097490859060040161104b565b5f604051808303815f87803b15801561098b575f5ffd5b505af115801561099d573d5f5f3e3d5ffd5b505060035460405163841181ef60e01b81526001600160a01b03909116925063841181ef91506109d190859060040161104b565b5f604051808303815f87803b1580156109e8575f5ffd5b505af11580156109fa573d5f5f3e3d5ffd5b50506040516001600160a01b03851692507f952363a786fc6f24cfb955cd6207cf91ecee3a82a7dd0bc26891ff7647b5784c91505f90a25050565b610a3d610e1e565b610a45610cbe565b610a62576040516312aecd8160e01b815260040160405180910390fd5b6006805463ff0000ff60a01b1916600160b81b60ff8781169190910260ff60a01b191691909117600160a01b868316021761ffff60a81b1916600160a81b8583160260ff60b01b191617600160b01b918416919091021790556040517fc56626e36ca25ee9a19c58d2d4f9a4569523b059e6aaeb263573ded93fc33c5a905f90a150505050565b610af1610e1e565b6001600160a01b038116610b185760405163d92e233d60e01b815260040160405180910390fd5b600380546001600160a01b0319166001600160a01b0392909216919091179055565b60605f610b476007610e8c565b9050806001600160401b03811115610b6157610b61611244565b604051908082528060200260200182016040528015610b8a578160200160208202803683370190505b5091505f5b81811015610bd457610ba2600782610e0c565b838281518110610bb457610bb4611258565b6001600160a01b0390921660209283029190910190910152600101610b8f565b505090565b5f610be5600b83610e78565b806103d457506103d4600983610e78565b60605f6001836001811115610c0d57610c0d611216565b14610c19576009610c1c565b600b5b90505f610c2882610e8c565b90505f816001600160401b03811115610c4357610c43611244565b604051908082528060200260200182016040528015610c6c578160200160208202803683370190505b5090505f5b82811015610cb557610c838482610e0c565b828281518110610c9557610c95611258565b6001600160a01b0390921660209283029190910190910152600101610c71565b50949350505050565b5f8060035f9054906101000a90046001600160a01b03166001600160a01b031663055ad42e6040518163ffffffff1660e01b8152600401602060405180830381865afa158015610d10573d5f5f3e3d5ffd5b505050506040513d601f19601f82011682018060405250810190610d349190611278565b6003811115610d4557610d45611216565b1480156107165750600254604080516302ad6a1760e11b815290515f926001600160a01b03169163055ad42e9160048083019260209291908290030181865afa158015610d94573d5f5f3e3d5ffd5b505050506040513d601f19601f82011682018060405250810190610db89190611278565b6003811115610dc957610dc9611216565b14905090565b610dd7610e1e565b6001600160a01b038116610e00575f604051631e4fbdf760e01b815260040161093b919061104b565b610e0981610e95565b50565b5f610e178383610ee4565b9392505050565b33610e27610829565b6001600160a01b03161461072c573360405163118cdaa760e01b815260040161093b919061104b565b5f610e17836001600160a01b038416610f0a565b5f610e17836001600160a01b038416610fed565b5f610e17836001600160a01b038416611034565b5f6103d4825490565b5f80546001600160a01b038381166001600160a01b0319831681178455604051919092169283917f8be0079c531659141344cd1fd0a4f28419497f9722a3daafe3b4186f6b6457e09190a35050565b5f825f018281548110610ef957610ef9611258565b905f5260205f200154905092915050565b5f8181526001830160205260408120548015610fe4575f610f2c600183611293565b85549091505f90610f3f90600190611293565b9050808214610f9e575f865f018281548110610f5d57610f5d611258565b905f5260205f200154905080875f018481548110610f7d57610f7d611258565b5f918252602080832090910192909255918252600188019052604090208390555b8554869080610faf57610faf6112b2565b600190038181905f5260205f20015f90559055856001015f8681526020019081526020015f205f9055600193505050506103d4565b5f9150506103d4565b5f610ff88383611034565b61102d57508154600181810184555f8481526020808220909301849055845484825282860190935260409020919091556103d4565b505f6103d4565b5f9081526001919091016020526040902054151590565b6001600160a01b0391909116815260200190565b5f6020828403121561106f575f5ffd5b5035919050565b80356001600160a01b038116811461108c575f5ffd5b919050565b5f602082840312156110a1575f5ffd5b610e1782611076565b80356002811061108c575f5ffd5b5f5f604083850312156110c9575f5ffd5b6110d283611076565b91506110e0602084016110aa565b90509250929050565b5f5f5f606084860312156110fb575f5ffd5b61110484611076565b925061111260208501611076565b915061112060408501611076565b90509250925092565b5f5f6040838503121561113a575f5ffd5b61114383611076565b91506110e060208401611076565b803560ff8116811461108c575f5ffd5b5f5f5f5f60808587031215611174575f5ffd5b61117d85611151565b935061118b60208601611151565b925061119960408601611151565b91506111a760608601611151565b905092959194509250565b602080825282518282018190525f918401906040840190835b818110156111f25783516001600160a01b03168352602093840193909201916001016111cb565b509095945050505050565b5f6020828403121561120d575f5ffd5b610e17826110aa565b634e487b7160e01b5f52602160045260245ffd5b6001600160a01b0392831681529116602082015260400190565b634e487b7160e01b5f52604160045260245ffd5b634e487b7160e01b5f52603260045260245ffd5b60048110610e09575f5ffd5b5f60208284031215611288575f5ffd5b8151610e178161126c565b818103818111156103d457634e487b7160e01b5f52601160045260245ffd5b634e487b7160e01b5f52603160045260245ffdfea264697066735822122086c7fb2a72028ec8de4e96dcd6acc115921df747d1388e3c01c810c55f2fc1ab64736f6c634300081c0033",
  "linkReferences": {},
  "deployedLinkReferences": {}
}