{
  "_format": "hh-sol-artifact-1",
  "contractName": "OrionConfig",
  "sourceName": "contracts/OrionConfig.sol",
  "abi": [
    {
      "inputs": [
        {
          "internalType": "address",
          "name": "target",
          "type": "address"
        }
      ],
      "name": "AddressEmptyCode",
      "type": "error"
    },
    {
      "inputs": [],
      "name": "AlreadyRegistered",
      "type": "error"
    },
    {
      "inputs": [
        {
          "internalType": "address",
          "name": "implementation",
          "type": "address"
        }
      ],
      "name": "ERC1967InvalidImplementation",
      "type": "error"
    },
    {
      "inputs": [],
      "name": "ERC1967NonPayable",
      "type": "error"
    },
    {
      "inputs": [],
      "name": "FailedCall",
      "type": "error"
    },
    {
      "inputs": [],
      "name": "InvalidInitialization",
      "type": "error"
    },
    {
      "inputs": [],
      "name": "NotInitializing",
      "type": "error"
    },
    {
      "inputs": [
        {
          "internalType": "address",
          "name": "owner",
          "type": "address"
        }
      ],
      "name": "OwnableInvalidOwner",
      "type": "error"
    },
    {
      "inputs": [
        {
          "internalType": "address",
          "name": "account",
          "type": "address"
        }
      ],
      "name": "OwnableUnauthorizedAccount",
      "type": "error"
    },
    {
      "inputs": [
        {
          "internalType": "address",
          "name": "token",
          "type": "address"
        }
      ],
      "name": "TokenNotWhitelisted",
      "type": "error"
    },
    {
      "inputs": [],
      "name": "UUPSUnauthorizedCallContext",
      "type": "error"
    },
    {
      "inputs": [
        {
          "internalType": "bytes32",
          "name": "slot",
          "type": "bytes32"
        }
      ],
      "name": "UUPSUnsupportedProxiableUUID",
      "type": "error"
    },
    {
      "inputs": [],
      "name": "UnauthorizedAccess",
      "type": "error"
    },
    {
      "inputs": [],
      "name": "ZeroAddress",
      "type": "error"
    },
    {
      "anonymous": false,
      "inputs": [
        {
          "indexed": false,
          "internalType": "uint64",
          "name": "version",
          "type": "uint64"
        }
      ],
      "name": "Initialized",
      "type": "event"
    },
    {
      "anonymous": false,
      "inputs": [
        {
          "indexed": true,
          "internalType": "address",
          "name": "vault",
          "type": "address"
        }
      ],
      "name": "OrionVaultAdded",
      "type": "event"
    },
    {
      "anonymous": false,
      "inputs": [
        {
          "indexed": true,
          "internalType": "address",
          "name": "vault",
          "type": "address"
        }
      ],
      "name": "OrionVaultRemoved",
      "type": "event"
    },
    {
      "anonymous": false,
      "inputs": [
        {
          "indexed": true,
          "internalType": "address",
          "name": "previousOwner",
          "type": "address"
        },
        {
          "indexed": true,
          "internalType": "address",
          "name": "newOwner",
          "type": "address"
        }
      ],
      "name": "OwnershipTransferStarted",
      "type": "event"
    },
    {
      "anonymous": false,
      "inputs": [
        {
          "indexed": true,
          "internalType": "address",
          "name": "previousOwner",
          "type": "address"
        },
        {
          "indexed": true,
          "internalType": "address",
          "name": "newOwner",
          "type": "address"
        }
      ],
      "name": "OwnershipTransferred",
      "type": "event"
    },
    {
      "anonymous": false,
      "inputs": [],
      "name": "ProtocolParamsUpdated",
      "type": "event"
    },
    {
      "anonymous": false,
      "inputs": [
        {
          "indexed": true,
          "internalType": "address",
          "name": "implementation",
          "type": "address"
        }
      ],
      "name": "Upgraded",
      "type": "event"
    },
    {
      "anonymous": false,
      "inputs": [
        {
          "indexed": true,
          "internalType": "address",
          "name": "asset",
          "type": "address"
        }
      ],
      "name": "WhitelistedAssetAdded",
      "type": "event"
    },
    {
      "anonymous": false,
      "inputs": [
        {
          "indexed": true,
          "internalType": "address",
          "name": "asset",
          "type": "address"
        }
      ],
      "name": "WhitelistedAssetRemoved",
      "type": "event"
    },
    {
      "inputs": [],
      "name": "UPGRADE_INTERFACE_VERSION",
      "outputs": [
        {
          "internalType": "string",
          "name": "",
          "type": "string"
        }
      ],
      "stateMutability": "view",
      "type": "function"
    },
    {
      "inputs": [],
      "name": "acceptOwnership",
      "outputs": [],
      "stateMutability": "nonpayable",
      "type": "function"
    },
    {
      "inputs": [
        {
          "internalType": "address",
          "name": "vault",
          "type": "address"
        },
        {
          "internalType": "enum EventsLib.VaultType",
          "name": "vaultType",
          "type": "uint8"
        }
      ],
      "name": "addOrionVault",
      "outputs": [],
      "stateMutability": "nonpayable",
      "type": "function"
    },
    {
      "inputs": [
        {
          "internalType": "address",
          "name": "asset",
          "type": "address"
        },
        {
          "internalType": "address",
          "name": "priceAdapter",
          "type": "address"
        },
        {
          "internalType": "address",
          "name": "executionAdapter",
          "type": "address"
        }
      ],
      "name": "addWhitelistedAsset",
      "outputs": [],
      "stateMutability": "nonpayable",
      "type": "function"
    },
    {
      "inputs": [],
      "name": "curatorIntentDecimals",
      "outputs": [
        {
          "internalType": "uint8",
          "name": "",
          "type": "uint8"
        }
      ],
      "stateMutability": "view",
      "type": "function"
    },
    {
      "inputs": [
        {
          "internalType": "enum EventsLib.VaultType",
          "name": "vaultType",
          "type": "uint8"
        }
      ],
      "name": "getAllOrionVaults",
      "outputs": [
        {
          "internalType": "address[]",
          "name": "",
          "type": "address[]"
        }
      ],
      "stateMutability": "view",
      "type": "function"
    },
    {
      "inputs": [],
      "name": "getAllWhitelistedAssets",
      "outputs": [
        {
          "internalType": "address[]",
          "name": "assets",
          "type": "address[]"
        }
      ],
      "stateMutability": "view",
      "type": "function"
    },
    {
      "inputs": [
        {
          "internalType": "uint256",
          "name": "index",
          "type": "uint256"
        }
      ],
      "name": "getWhitelistedAssetAt",
      "outputs": [
        {
          "internalType": "address",
          "name": "",
          "type": "address"
        }
      ],
      "stateMutability": "view",
      "type": "function"
    },
    {
      "inputs": [
        {
          "internalType": "address",
          "name": "initialOwner",
          "type": "address"
        }
      ],
      "name": "initialize",
      "outputs": [],
      "stateMutability": "nonpayable",
      "type": "function"
    },
    {
      "inputs": [],
      "name": "internalStatesOrchestrator",
      "outputs": [
        {
          "internalType": "address",
          "name": "",
          "type": "address"
        }
      ],
      "stateMutability": "view",
      "type": "function"
    },
    {
      "inputs": [
        {
          "internalType": "address",
          "name": "vault",
          "type": "address"
        }
      ],
      "name": "isOrionVault",
      "outputs": [
        {
          "internalType": "bool",
          "name": "",
          "type": "bool"
        }
      ],
      "stateMutability": "view",
      "type": "function"
    },
    {
      "inputs": [],
      "name": "isSystemIdle",
      "outputs": [
        {
          "internalType": "bool",
          "name": "",
          "type": "bool"
        }
      ],
      "stateMutability": "view",
      "type": "function"
    },
    {
      "inputs": [
        {
          "internalType": "address",
          "name": "asset",
          "type": "address"
        }
      ],
      "name": "isWhitelisted",
      "outputs": [
        {
          "internalType": "bool",
          "name": "",
          "type": "bool"
        }
      ],
      "stateMutability": "view",
      "type": "function"
    },
    {
      "inputs": [],
      "name": "liquidityOrchestrator",
      "outputs": [
        {
          "internalType": "address",
          "name": "",
          "type": "address"
        }
      ],
      "stateMutability": "view",
      "type": "function"
    },
    {
      "inputs": [],
      "name": "owner",
      "outputs": [
        {
          "internalType": "address",
          "name": "",
          "type": "address"
        }
      ],
      "stateMutability": "view",
      "type": "function"
    },
    {
      "inputs": [],
      "name": "pendingOwner",
      "outputs": [
        {
          "internalType": "address",
          "name": "",
          "type": "address"
        }
      ],
      "stateMutability": "view",
      "type": "function"
    },
    {
      "inputs": [],
      "name": "priceAdapterRegistry",
      "outputs": [
        {
          "internalType": "address",
          "name": "",
          "type": "address"
        }
      ],
      "stateMutability": "view",
      "type": "function"
    },
    {
      "inputs": [],
      "name": "proxiableUUID",
      "outputs": [
        {
          "internalType": "bytes32",
          "name": "",
          "type": "bytes32"
        }
      ],
      "stateMutability": "view",
      "type": "function"
    },
    {
      "inputs": [
        {
          "internalType": "address",
          "name": "vault",
          "type": "address"
        },
        {
          "internalType": "enum EventsLib.VaultType",
          "name": "vaultType",
          "type": "uint8"
        }
      ],
      "name": "removeOrionVault",
      "outputs": [],
      "stateMutability": "nonpayable",
      "type": "function"
    },
    {
      "inputs": [
        {
          "internalType": "address",
          "name": "asset",
          "type": "address"
        }
      ],
      "name": "removeWhitelistedAsset",
      "outputs": [],
      "stateMutability": "nonpayable",
      "type": "function"
    },
    {
      "inputs": [],
      "name": "renounceOwnership",
      "outputs": [],
      "stateMutability": "nonpayable",
      "type": "function"
    },
    {
      "inputs": [
        {
          "internalType": "address",
          "name": "orchestrator",
          "type": "address"
        }
      ],
      "name": "setInternalStatesOrchestrator",
      "outputs": [],
      "stateMutability": "nonpayable",
      "type": "function"
    },
    {
      "inputs": [
        {
          "internalType": "address",
          "name": "liquidityOrchestrator_",
          "type": "address"
        },
        {
          "internalType": "uint8",
          "name": "curatorIntentDecimals_",
          "type": "uint8"
        },
        {
          "internalType": "address",
          "name": "factory_",
          "type": "address"
        },
        {
          "internalType": "address",
          "name": "priceAdapterRegistry_",
          "type": "address"
        }
      ],
      "name": "setProtocolParams",
      "outputs": [],
      "stateMutability": "nonpayable",
      "type": "function"
    },
    {
      "inputs": [
        {
          "internalType": "address",
          "name": "asset",
          "type": "address"
        }
      ],
      "name": "setUnderlyingAsset",
      "outputs": [],
      "stateMutability": "nonpayable",
      "type": "function"
    },
    {
      "inputs": [
        {
          "internalType": "address",
          "name": "newOwner",
          "type": "address"
        }
      ],
      "name": "transferOwnership",
      "outputs": [],
      "stateMutability": "nonpayable",
      "type": "function"
    },
    {
      "inputs": [],
      "name": "underlyingAsset",
      "outputs": [
        {
          "internalType": "contract IERC20",
          "name": "",
          "type": "address"
        }
      ],
      "stateMutability": "view",
      "type": "function"
    },
    {
      "inputs": [
        {
          "internalType": "address",
          "name": "newImplementation",
          "type": "address"
        },
        {
          "internalType": "bytes",
          "name": "data",
          "type": "bytes"
        }
      ],
      "name": "upgradeToAndCall",
      "outputs": [],
      "stateMutability": "payable",
      "type": "function"
    },
    {
      "inputs": [],
      "name": "vaultFactory",
      "outputs": [
        {
          "internalType": "address",
          "name": "",
          "type": "address"
        }
      ],
      "stateMutability": "view",
      "type": "function"
    },
    {
      "inputs": [],
      "name": "whitelistedAssetsLength",
      "outputs": [
        {
          "internalType": "uint256",
          "name": "",
          "type": "uint256"
        }
      ],
      "stateMutability": "view",
      "type": "function"
    }
  ],
  "bytecode": "0x60a0604052306080523480156012575f5ffd5b50608051611a996100395f395f81816110d3015281816110fc01526112400152611a995ff3fe6080604052600436106101ba575f3560e01c806379ba5097116100f2578063d1717c7d11610092578063e30c397811610062578063e30c3978146104f1578063ed04f21814610505578063edcf9c1f14610524578063f2fde38b14610538575f5ffd5b8063d1717c7d14610460578063d86cd44e14610492578063d8a06f73146104b3578063e0876b44146104d2575f5ffd5b8063ad3cb1cc116100cd578063ad3cb1cc146103c6578063b6dfcd8b14610403578063c110116c14610422578063c4d66de814610441575f5ffd5b806379ba50971461037f5780637a0cb784146103935780638da5cb5b146103b2575f5ffd5b80633a0dad8e1161015d57806352d1902d1161013857806352d1902d146103175780635f24836814610339578063715018a61461034d5780637158da7c14610361575f5ffd5b80633a0dad8e146102b65780633af32abf146102d55780634f1ef28614610304575f5ffd5b80631dbc3c04116101985780631dbc3c041461023a57806323a06a1c1461025957806325671dcb14610278578063348ec5c814610297575f5ffd5b8063015df993146101be5780630a567a2d146101fa5780630a8b78c714610219575b5f5ffd5b3480156101c9575f5ffd5b506004546101dd906001600160a01b031681565b6040516001600160a01b0390911681526020015b60405180910390f35b348015610205575f5ffd5b506101dd610214366004611701565b610557565b348015610224575f5ffd5b50610238610233366004611733565b610569565b005b348015610245575f5ffd5b5061023861025436600461175a565b6105ba565b348015610264575f5ffd5b5061023861027336600461178b565b610675565b348015610283575f5ffd5b50610238610292366004611733565b6107a8565b3480156102a2575f5ffd5b506001546101dd906001600160a01b031681565b3480156102c1575f5ffd5b506002546101dd906001600160a01b031681565b3480156102e0575f5ffd5b506102f46102ef366004611733565b6107f8565b60405190151581526020016101f1565b6102386103123660046117df565b610804565b348015610322575f5ffd5b5061032b610823565b6040519081526020016101f1565b348015610344575f5ffd5b5061032b61083e565b348015610358575f5ffd5b5061023861084e565b34801561036c575f5ffd5b505f546101dd906001600160a01b031681565b34801561038a575f5ffd5b50610238610861565b34801561039e575f5ffd5b506102386103ad36600461175a565b6108ae565b3480156103bd575f5ffd5b506101dd610990565b3480156103d1575f5ffd5b506103f6604051806040016040528060058152602001640352e302e360dc1b81525081565b6040516101f191906118a3565b34801561040e575f5ffd5b5061023861041d366004611733565b6109c4565b34801561042d575f5ffd5b5061023861043c3660046118d8565b610af0565b34801561044c575f5ffd5b5061023861045b366004611733565b610bee565b34801561046b575f5ffd5b5060045461048090600160a01b900460ff1681565b60405160ff90911681526020016101f1565b34801561049d575f5ffd5b506104a6610cf7565b6040516101f19190611930565b3480156104be575f5ffd5b506003546101dd906001600160a01b031681565b3480156104dd575f5ffd5b506102f46104ec366004611733565b610d97565b3480156104fc575f5ffd5b506101dd610db4565b348015610510575f5ffd5b506104a661051f36600461197b565b610ddc565b34801561052f575f5ffd5b506102f4610ea5565b348015610543575f5ffd5b50610238610552366004611733565b610fb6565b5f61056360058361103b565b92915050565b61057161104d565b6001600160a01b0381166105985760405163d92e233d60e01b815260040160405180910390fd5b600180546001600160a01b0319166001600160a01b0392909216919091179055565b6003546001600160a01b031633146105e557604051631a27eac360e11b815260040160405180910390fd5b5f60018260018111156105fa576105fa611994565b036106115761060a60098461107f565b905061061f565b61061c60078461107f565b90505b8061063d57604051631a27eac360e11b815260040160405180910390fd5b6040516001600160a01b038416907fe47da341e0fc63816c1254f1c35425f69460f49342668d11c984ea56762b00d4905f90a2505050565b61067d61104d565b5f610689600585611093565b9050806106a957604051630ea075bf60e21b815260040160405180910390fd5b600480546040516302707eef60e51b81526001600160a01b03878116938201939093528583166024820152911690634e0fdde0906044015f604051808303815f87803b1580156106f7575f5ffd5b505af1158015610709573d5f5f3e3d5ffd5b50506002546040516359017aa960e01b81526001600160a01b038881166004830152868116602483015290911692506359017aa991506044015f604051808303815f87803b158015610759575f5ffd5b505af115801561076b573d5f5f3e3d5ffd5b50506040516001600160a01b03871692507fdcbd8d9d0373041250f6c25b6b7aeccb3e9ff291e510ef85bb9f8ac09ceb6f6491505f90a250505050565b6107b061104d565b6001600160a01b0381166107d75760405163d92e233d60e01b815260040160405180910390fd5b5f80546001600160a01b0319166001600160a01b0392909216919091179055565b5f6105636005836110a7565b61080c6110c8565b6108158261116c565b61081f8282611174565b5050565b5f61082c611235565b505f516020611a445f395f51905f5290565b5f610849600561127e565b905090565b61085661104d565b61085f5f611287565b565b338061086b610db4565b6001600160a01b0316146108a25760405163118cdaa760e01b81526001600160a01b03821660048201526024015b60405180910390fd5b6108ab81611287565b50565b6003546001600160a01b031633146108d957604051631a27eac360e11b815260040160405180910390fd5b6001600160a01b0382166109005760405163d92e233d60e01b815260040160405180910390fd5b5f600182600181111561091557610915611994565b0361092c57610925600984611093565b905061093a565b610937600784611093565b90505b8061095857604051630ea075bf60e21b815260040160405180910390fd5b6040516001600160a01b038416907f9a7094a648c0524f3d62b9167886d30be0e68cf53863fe556edda348f189445a905f90a2505050565b5f807f9016d09d72d40fdae2fd8ceac6b6234c7706214fd39c1cd1e609a0528c1993005b546001600160a01b031692915050565b6109cc61104d565b5f6109d860058361107f565b905080610a035760405163751dff9760e11b81526001600160a01b0383166004820152602401610899565b60048054604051634386017560e01b81526001600160a01b03858116938201939093529116906343860175906024015f604051808303815f87803b158015610a49575f5ffd5b505af1158015610a5b573d5f5f3e3d5ffd5b505060025460405163841181ef60e01b81526001600160a01b038681166004830152909116925063841181ef91506024015f604051808303815f87803b158015610aa3575f5ffd5b505af1158015610ab5573d5f5f3e3d5ffd5b50506040516001600160a01b03851692507f952363a786fc6f24cfb955cd6207cf91ecee3a82a7dd0bc26891ff7647b5784c91505f90a25050565b610af861104d565b6001600160a01b038416610b1f5760405163d92e233d60e01b815260040160405180910390fd5b6001600160a01b038216610b465760405163d92e233d60e01b815260040160405180910390fd5b6001600160a01b038116610b6d5760405163d92e233d60e01b815260040160405180910390fd5b600280546001600160a01b038087166001600160a01b031992831617909255600480546003805487861690851617905592841660ff8716600160a01b029092166001600160a81b0319909316929092171790556040517fc56626e36ca25ee9a19c58d2d4f9a4569523b059e6aaeb263573ded93fc33c5a905f90a150505050565b5f610bf76112bf565b805490915060ff600160401b820416159067ffffffffffffffff165f81158015610c1e5750825b90505f8267ffffffffffffffff166001148015610c3a5750303b155b905081158015610c48575080155b15610c665760405163f92ee8a960e01b815260040160405180910390fd5b845467ffffffffffffffff191660011785558315610c9057845460ff60401b1916600160401b1785555b610c99866112e7565b610ca16112f8565b610ca96112f8565b8315610cef57845460ff60401b19168555604051600181527fc7f505b2f371ae2175ee4913f4499e1f2633a7b5936321eed1cdaeb6115181d29060200160405180910390a15b505050505050565b60605f610d04600561127e565b90508067ffffffffffffffff811115610d1f57610d1f6117cb565b604051908082528060200260200182016040528015610d48578160200160208202803683370190505b5091505f5b81811015610d9257610d6060058261103b565b838281518110610d7257610d726119a8565b6001600160a01b0390921660209283029190910190910152600101610d4d565b505090565b5f610da36009836110a7565b8061056357506105636007836110a7565b5f807f237e158222e3e6968b72b9db0d8043aacf074ad9f650f0d1606b4d82ee432c006109b4565b60605f6001836001811115610df357610df3611994565b14610dff576007610e02565b60095b90505f610e0e8261127e565b90505f8167ffffffffffffffff811115610e2a57610e2a6117cb565b604051908082528060200260200182016040528015610e53578160200160208202803683370190505b5090505f5b82811015610e9c57610e6a848261103b565b828281518110610e7c57610e7c6119a8565b6001600160a01b0390921660209283029190910190910152600101610e58565b50949350505050565b5f8060025f9054906101000a90046001600160a01b03166001600160a01b031663055ad42e6040518163ffffffff1660e01b8152600401602060405180830381865afa158015610ef7573d5f5f3e3d5ffd5b505050506040513d601f19601f82011682018060405250810190610f1b91906119c8565b6003811115610f2c57610f2c611994565b1480156108495750600154604080516302ad6a1760e11b815290515f926001600160a01b03169163055ad42e9160048083019260209291908290030181865afa158015610f7b573d5f5f3e3d5ffd5b505050506040513d601f19601f82011682018060405250810190610f9f91906119c8565b6003811115610fb057610fb0611994565b14905090565b610fbe61104d565b7f237e158222e3e6968b72b9db0d8043aacf074ad9f650f0d1606b4d82ee432c0080546001600160a01b0319166001600160a01b0383169081178255611002610990565b6001600160a01b03167f38d16b8cac22d99fc7c124b9cd0de2d3fa1faef420bfe791d8c362d765e2270060405160405180910390a35050565b5f6110468383611300565b9392505050565b33611056610990565b6001600160a01b03161461085f5760405163118cdaa760e01b8152336004820152602401610899565b5f611046836001600160a01b038416611326565b5f611046836001600160a01b038416611409565b6001600160a01b0381165f9081526001830160205260408120541515611046565b306001600160a01b037f000000000000000000000000000000000000000000000000000000000000000016148061114e57507f00000000000000000000000000000000000000000000000000000000000000006001600160a01b03166111425f516020611a445f395f51905f52546001600160a01b031690565b6001600160a01b031614155b1561085f5760405163703e46dd60e11b815260040160405180910390fd5b6108ab61104d565b816001600160a01b03166352d1902d6040518163ffffffff1660e01b8152600401602060405180830381865afa9250505080156111ce575060408051601f3d908101601f191682019092526111cb918101906119e3565b60015b6111f657604051634c9c8ce360e01b81526001600160a01b0383166004820152602401610899565b5f516020611a445f395f51905f52811461122657604051632a87526960e21b815260048101829052602401610899565b6112308383611455565b505050565b306001600160a01b037f0000000000000000000000000000000000000000000000000000000000000000161461085f5760405163703e46dd60e11b815260040160405180910390fd5b5f610563825490565b7f237e158222e3e6968b72b9db0d8043aacf074ad9f650f0d1606b4d82ee432c0080546001600160a01b031916815561081f826114aa565b5f807ff0c57e16840df040f15088dc2f81fe391c3923bec73e23a9662efc9c229c6a00610563565b6112ef61151a565b6108ab8161153f565b61085f61151a565b5f825f018281548110611315576113156119a8565b905f5260205f200154905092915050565b5f8181526001830160205260408120548015611400575f6113486001836119fa565b85549091505f9061135b906001906119fa565b90508082146113ba575f865f018281548110611379576113796119a8565b905f5260205f200154905080875f018481548110611399576113996119a8565b5f918252602080832090910192909255918252600188019052604090208390555b85548690806113cb576113cb611a19565b600190038181905f5260205f20015f90559055856001015f8681526020019081526020015f205f905560019350505050610563565b5f915050610563565b5f81815260018301602052604081205461144e57508154600181810184555f848152602080822090930184905584548482528286019093526040902091909155610563565b505f610563565b61145e82611570565b6040516001600160a01b038316907fbc7cd75a20ee27fd9adebab32041f755214dbc6bffa90cc0225b39da2e5c2d3b905f90a28051156114a25761123082826115d3565b61081f611645565b7f9016d09d72d40fdae2fd8ceac6b6234c7706214fd39c1cd1e609a0528c19930080546001600160a01b031981166001600160a01b03848116918217845560405192169182907f8be0079c531659141344cd1fd0a4f28419497f9722a3daafe3b4186f6b6457e0905f90a3505050565b611522611664565b61085f57604051631afcd79f60e31b815260040160405180910390fd5b61154761151a565b6001600160a01b0381166108a257604051631e4fbdf760e01b81525f6004820152602401610899565b806001600160a01b03163b5f036115a557604051634c9c8ce360e01b81526001600160a01b0382166004820152602401610899565b5f516020611a445f395f51905f5280546001600160a01b0319166001600160a01b0392909216919091179055565b60605f5f846001600160a01b0316846040516115ef9190611a2d565b5f60405180830381855af49150503d805f8114611627576040519150601f19603f3d011682016040523d82523d5f602084013e61162c565b606091505b509150915061163c85838361167d565b95945050505050565b341561085f5760405163b398979f60e01b815260040160405180910390fd5b5f61166d6112bf565b54600160401b900460ff16919050565b6060826116925761168d826116d9565b611046565b81511580156116a957506001600160a01b0384163b155b156116d257604051639996b31560e01b81526001600160a01b0385166004820152602401610899565b5092915050565b8051156116e857805160208201fd5b60405163d6bda27560e01b815260040160405180910390fd5b5f60208284031215611711575f5ffd5b5035919050565b80356001600160a01b038116811461172e575f5ffd5b919050565b5f60208284031215611743575f5ffd5b61104682611718565b80356002811061172e575f5ffd5b5f5f6040838503121561176b575f5ffd5b61177483611718565b91506117826020840161174c565b90509250929050565b5f5f5f6060848603121561179d575f5ffd5b6117a684611718565b92506117b460208501611718565b91506117c260408501611718565b90509250925092565b634e487b7160e01b5f52604160045260245ffd5b5f5f604083850312156117f0575f5ffd5b6117f983611718565b9150602083013567ffffffffffffffff811115611814575f5ffd5b8301601f81018513611824575f5ffd5b803567ffffffffffffffff81111561183e5761183e6117cb565b604051601f8201601f19908116603f0116810167ffffffffffffffff8111828210171561186d5761186d6117cb565b604052818152828201602001871015611884575f5ffd5b816020840160208301375f602083830101528093505050509250929050565b602081525f82518060208401528060208501604085015e5f604082850101526040601f19601f83011684010191505092915050565b5f5f5f5f608085870312156118eb575f5ffd5b6118f485611718565b9350602085013560ff81168114611909575f5ffd5b925061191760408601611718565b915061192560608601611718565b905092959194509250565b602080825282518282018190525f918401906040840190835b818110156119705783516001600160a01b0316835260209384019390920191600101611949565b509095945050505050565b5f6020828403121561198b575f5ffd5b6110468261174c565b634e487b7160e01b5f52602160045260245ffd5b634e487b7160e01b5f52603260045260245ffd5b600481106108ab575f5ffd5b5f602082840312156119d8575f5ffd5b8151611046816119bc565b5f602082840312156119f3575f5ffd5b5051919050565b8181038181111561056357634e487b7160e01b5f52601160045260245ffd5b634e487b7160e01b5f52603160045260245ffd5b5f82518060208501845e5f92019182525091905056fe360894a13ba1a3210667c828492db98dca3e2076cc3735a920a3ca505d382bbca264697066735822122028bb1e882eda852f170dc559b8eecbb384f298b0ccf576e0352053f7621b815164736f6c634300081c0033",
  "linkReferences": {},
  "deployedLinkReferences": {}
}