{
  "_format": "hh-sol-artifact-1",
  "contractName": "OrionConfig",
  "sourceName": "contracts/OrionConfig.sol",
  "abi": [
    {
      "inputs": [
        {
          "internalType": "address",
          "name": "initialOwner",
          "type": "address"
        },
        {
          "internalType": "address",
          "name": "admin_",
          "type": "address"
        },
        {
          "internalType": "address",
          "name": "underlyingAsset_",
          "type": "address"
        }
      ],
      "stateMutability": "nonpayable",
      "type": "constructor"
    },
    {
      "inputs": [],
      "name": "AlreadyRegistered",
      "type": "error"
    },
    {
      "inputs": [],
      "name": "InvalidAddress",
      "type": "error"
    },
    {
      "inputs": [],
      "name": "InvalidArguments",
      "type": "error"
    },
    {
      "inputs": [],
      "name": "NotAuthorized",
      "type": "error"
    },
    {
      "inputs": [
        {
          "internalType": "address",
          "name": "owner",
          "type": "address"
        }
      ],
      "name": "OwnableInvalidOwner",
      "type": "error"
    },
    {
      "inputs": [
        {
          "internalType": "address",
          "name": "account",
          "type": "address"
        }
      ],
      "name": "OwnableUnauthorizedAccount",
      "type": "error"
    },
    {
      "inputs": [],
      "name": "SystemNotIdle",
      "type": "error"
    },
    {
      "inputs": [
        {
          "internalType": "address",
          "name": "token",
          "type": "address"
        }
      ],
      "name": "TokenNotWhitelisted",
      "type": "error"
    },
    {
      "inputs": [],
      "name": "UnauthorizedAccess",
      "type": "error"
    },
    {
      "inputs": [],
      "name": "ZeroAddress",
      "type": "error"
    },
    {
      "anonymous": false,
      "inputs": [
        {
          "indexed": true,
          "internalType": "uint256",
          "name": "newCooldownDuration",
          "type": "uint256"
        }
      ],
      "name": "FeeChangeCooldownDurationUpdated",
      "type": "event"
    },
    {
      "anonymous": false,
      "inputs": [
        {
          "indexed": true,
          "internalType": "uint256",
          "name": "minDepositAmount",
          "type": "uint256"
        }
      ],
      "name": "MinDepositAmountUpdated",
      "type": "event"
    },
    {
      "anonymous": false,
      "inputs": [
        {
          "indexed": true,
          "internalType": "uint256",
          "name": "minRedeemAmount",
          "type": "uint256"
        }
      ],
      "name": "MinRedeemAmountUpdated",
      "type": "event"
    },
    {
      "anonymous": false,
      "inputs": [
        {
          "indexed": true,
          "internalType": "address",
          "name": "vault",
          "type": "address"
        }
      ],
      "name": "OrionVaultAdded",
      "type": "event"
    },
    {
      "anonymous": false,
      "inputs": [
        {
          "indexed": true,
          "internalType": "address",
          "name": "previousOwner",
          "type": "address"
        },
        {
          "indexed": true,
          "internalType": "address",
          "name": "newOwner",
          "type": "address"
        }
      ],
      "name": "OwnershipTransferred",
      "type": "event"
    },
    {
      "anonymous": false,
      "inputs": [
        {
          "indexed": true,
          "internalType": "uint16",
          "name": "riskFreeRate",
          "type": "uint16"
        }
      ],
      "name": "RiskFreeRateUpdated",
      "type": "event"
    },
    {
      "anonymous": false,
      "inputs": [
        {
          "indexed": true,
          "internalType": "address",
          "name": "asset",
          "type": "address"
        }
      ],
      "name": "WhitelistedAssetAdded",
      "type": "event"
    },
    {
      "anonymous": false,
      "inputs": [
        {
          "indexed": true,
          "internalType": "address",
          "name": "asset",
          "type": "address"
        }
      ],
      "name": "WhitelistedAssetRemoved",
      "type": "event"
    },
    {
      "inputs": [],
      "name": "MAX_RISK_FREE_RATE",
      "outputs": [
        {
          "internalType": "uint16",
          "name": "",
          "type": "uint16"
        }
      ],
      "stateMutability": "view",
      "type": "function"
    },
    {
      "inputs": [
        {
          "internalType": "address",
          "name": "vault",
          "type": "address"
        },
        {
          "internalType": "enum EventsLib.VaultType",
          "name": "vaultType",
          "type": "uint8"
        }
      ],
      "name": "addOrionVault",
      "outputs": [],
      "stateMutability": "nonpayable",
      "type": "function"
    },
    {
      "inputs": [
        {
          "internalType": "address",
          "name": "asset",
          "type": "address"
        },
        {
          "internalType": "address",
          "name": "priceAdapter",
          "type": "address"
        },
        {
          "internalType": "address",
          "name": "executionAdapter",
          "type": "address"
        }
      ],
      "name": "addWhitelistedAsset",
      "outputs": [],
      "stateMutability": "nonpayable",
      "type": "function"
    },
    {
      "inputs": [
        {
          "internalType": "address",
          "name": "vaultOwner",
          "type": "address"
        }
      ],
      "name": "addWhitelistedVaultOwner",
      "outputs": [],
      "stateMutability": "nonpayable",
      "type": "function"
    },
    {
      "inputs": [],
      "name": "admin",
      "outputs": [
        {
          "internalType": "address",
          "name": "",
          "type": "address"
        }
      ],
      "stateMutability": "view",
      "type": "function"
    },
    {
      "inputs": [
        {
          "internalType": "address",
          "name": "vault",
          "type": "address"
        }
      ],
      "name": "completeVaultDecommissioning",
      "outputs": [],
      "stateMutability": "nonpayable",
      "type": "function"
    },
    {
      "inputs": [],
      "name": "curatorIntentDecimals",
      "outputs": [
        {
          "internalType": "uint8",
          "name": "",
          "type": "uint8"
        }
      ],
      "stateMutability": "view",
      "type": "function"
    },
    {
      "inputs": [],
      "name": "feeChangeCooldownDuration",
      "outputs": [
        {
          "internalType": "uint256",
          "name": "",
          "type": "uint256"
        }
      ],
      "stateMutability": "view",
      "type": "function"
    },
    {
      "inputs": [
        {
          "internalType": "enum EventsLib.VaultType",
          "name": "vaultType",
          "type": "uint8"
        }
      ],
      "name": "getAllOrionVaults",
      "outputs": [
        {
          "internalType": "address[]",
          "name": "",
          "type": "address[]"
        }
      ],
      "stateMutability": "view",
      "type": "function"
    },
    {
      "inputs": [],
      "name": "getAllWhitelistedAssets",
      "outputs": [
        {
          "internalType": "address[]",
          "name": "assets",
          "type": "address[]"
        }
      ],
      "stateMutability": "view",
      "type": "function"
    },
    {
      "inputs": [
        {
          "internalType": "address",
          "name": "token",
          "type": "address"
        }
      ],
      "name": "getTokenDecimals",
      "outputs": [
        {
          "internalType": "uint8",
          "name": "",
          "type": "uint8"
        }
      ],
      "stateMutability": "view",
      "type": "function"
    },
    {
      "inputs": [],
      "name": "internalStatesOrchestrator",
      "outputs": [
        {
          "internalType": "address",
          "name": "",
          "type": "address"
        }
      ],
      "stateMutability": "view",
      "type": "function"
    },
    {
      "inputs": [
        {
          "internalType": "address",
          "name": "vault",
          "type": "address"
        }
      ],
      "name": "isDecommissionedVault",
      "outputs": [
        {
          "internalType": "bool",
          "name": "",
          "type": "bool"
        }
      ],
      "stateMutability": "view",
      "type": "function"
    },
    {
      "inputs": [
        {
          "internalType": "address",
          "name": "vault",
          "type": "address"
        }
      ],
      "name": "isDecommissioningVault",
      "outputs": [
        {
          "internalType": "bool",
          "name": "",
          "type": "bool"
        }
      ],
      "stateMutability": "view",
      "type": "function"
    },
    {
      "inputs": [
        {
          "internalType": "address",
          "name": "vault",
          "type": "address"
        }
      ],
      "name": "isOrionVault",
      "outputs": [
        {
          "internalType": "bool",
          "name": "",
          "type": "bool"
        }
      ],
      "stateMutability": "view",
      "type": "function"
    },
    {
      "inputs": [],
      "name": "isSystemIdle",
      "outputs": [
        {
          "internalType": "bool",
          "name": "",
          "type": "bool"
        }
      ],
      "stateMutability": "view",
      "type": "function"
    },
    {
      "inputs": [
        {
          "internalType": "address",
          "name": "asset",
          "type": "address"
        }
      ],
      "name": "isWhitelisted",
      "outputs": [
        {
          "internalType": "bool",
          "name": "",
          "type": "bool"
        }
      ],
      "stateMutability": "view",
      "type": "function"
    },
    {
      "inputs": [
        {
          "internalType": "address",
          "name": "vaultOwner",
          "type": "address"
        }
      ],
      "name": "isWhitelistedVaultOwner",
      "outputs": [
        {
          "internalType": "bool",
          "name": "",
          "type": "bool"
        }
      ],
      "stateMutability": "view",
      "type": "function"
    },
    {
      "inputs": [],
      "name": "liquidityOrchestrator",
      "outputs": [
        {
          "internalType": "address",
          "name": "",
          "type": "address"
        }
      ],
      "stateMutability": "view",
      "type": "function"
    },
    {
      "inputs": [],
      "name": "minDepositAmount",
      "outputs": [
        {
          "internalType": "uint256",
          "name": "",
          "type": "uint256"
        }
      ],
      "stateMutability": "view",
      "type": "function"
    },
    {
      "inputs": [],
      "name": "minRedeemAmount",
      "outputs": [
        {
          "internalType": "uint256",
          "name": "",
          "type": "uint256"
        }
      ],
      "stateMutability": "view",
      "type": "function"
    },
    {
      "inputs": [],
      "name": "owner",
      "outputs": [
        {
          "internalType": "address",
          "name": "",
          "type": "address"
        }
      ],
      "stateMutability": "view",
      "type": "function"
    },
    {
      "inputs": [],
      "name": "priceAdapterDecimals",
      "outputs": [
        {
          "internalType": "uint8",
          "name": "",
          "type": "uint8"
        }
      ],
      "stateMutability": "view",
      "type": "function"
    },
    {
      "inputs": [],
      "name": "priceAdapterRegistry",
      "outputs": [
        {
          "internalType": "address",
          "name": "",
          "type": "address"
        }
      ],
      "stateMutability": "view",
      "type": "function"
    },
    {
      "inputs": [
        {
          "internalType": "address",
          "name": "vault",
          "type": "address"
        }
      ],
      "name": "removeOrionVault",
      "outputs": [],
      "stateMutability": "nonpayable",
      "type": "function"
    },
    {
      "inputs": [
        {
          "internalType": "address",
          "name": "asset",
          "type": "address"
        }
      ],
      "name": "removeWhitelistedAsset",
      "outputs": [],
      "stateMutability": "nonpayable",
      "type": "function"
    },
    {
      "inputs": [
        {
          "internalType": "address",
          "name": "vaultOwner",
          "type": "address"
        }
      ],
      "name": "removeWhitelistedVaultOwner",
      "outputs": [],
      "stateMutability": "nonpayable",
      "type": "function"
    },
    {
      "inputs": [],
      "name": "renounceOwnership",
      "outputs": [],
      "stateMutability": "nonpayable",
      "type": "function"
    },
    {
      "inputs": [],
      "name": "riskFreeRate",
      "outputs": [
        {
          "internalType": "uint16",
          "name": "",
          "type": "uint16"
        }
      ],
      "stateMutability": "view",
      "type": "function"
    },
    {
      "inputs": [
        {
          "internalType": "uint256",
          "name": "duration",
          "type": "uint256"
        }
      ],
      "name": "setFeeChangeCooldownDuration",
      "outputs": [],
      "stateMutability": "nonpayable",
      "type": "function"
    },
    {
      "inputs": [
        {
          "internalType": "address",
          "name": "orchestrator",
          "type": "address"
        }
      ],
      "name": "setInternalStatesOrchestrator",
      "outputs": [],
      "stateMutability": "nonpayable",
      "type": "function"
    },
    {
      "inputs": [
        {
          "internalType": "address",
          "name": "orchestrator",
          "type": "address"
        }
      ],
      "name": "setLiquidityOrchestrator",
      "outputs": [],
      "stateMutability": "nonpayable",
      "type": "function"
    },
    {
      "inputs": [
        {
          "internalType": "uint256",
          "name": "amount",
          "type": "uint256"
        }
      ],
      "name": "setMinDepositAmount",
      "outputs": [],
      "stateMutability": "nonpayable",
      "type": "function"
    },
    {
      "inputs": [
        {
          "internalType": "uint256",
          "name": "amount",
          "type": "uint256"
        }
      ],
      "name": "setMinRedeemAmount",
      "outputs": [],
      "stateMutability": "nonpayable",
      "type": "function"
    },
    {
      "inputs": [
        {
          "internalType": "address",
          "name": "registry",
          "type": "address"
        }
      ],
      "name": "setPriceAdapterRegistry",
      "outputs": [],
      "stateMutability": "nonpayable",
      "type": "function"
    },
    {
      "inputs": [
        {
          "internalType": "uint16",
          "name": "_riskFreeRate",
          "type": "uint16"
        }
      ],
      "name": "setProtocolRiskFreeRate",
      "outputs": [],
      "stateMutability": "nonpayable",
      "type": "function"
    },
    {
      "inputs": [
        {
          "internalType": "address",
          "name": "transparentFactory",
          "type": "address"
        }
      ],
      "name": "setVaultFactory",
      "outputs": [],
      "stateMutability": "nonpayable",
      "type": "function"
    },
    {
      "inputs": [
        {
          "internalType": "address",
          "name": "",
          "type": "address"
        }
      ],
      "name": "tokenDecimals",
      "outputs": [
        {
          "internalType": "uint8",
          "name": "",
          "type": "uint8"
        }
      ],
      "stateMutability": "view",
      "type": "function"
    },
    {
      "inputs": [
        {
          "internalType": "address",
          "name": "newOwner",
          "type": "address"
        }
      ],
      "name": "transferOwnership",
      "outputs": [],
      "stateMutability": "nonpayable",
      "type": "function"
    },
    {
      "inputs": [],
      "name": "transparentVaultFactory",
      "outputs": [
        {
          "internalType": "address",
          "name": "",
          "type": "address"
        }
      ],
      "stateMutability": "view",
      "type": "function"
    },
    {
      "inputs": [],
      "name": "underlyingAsset",
      "outputs": [
        {
          "internalType": "contract IERC20",
          "name": "",
          "type": "address"
        }
      ],
      "stateMutability": "view",
      "type": "function"
    },
    {
      "inputs": [],
      "name": "whitelistedAssetsLength",
      "outputs": [
        {
          "internalType": "uint16",
          "name": "",
          "type": "uint16"
        }
      ],
      "stateMutability": "view",
      "type": "function"
    }
  ],
  "bytecode": "0x60a060405234801561000f575f5ffd5b50604051611d1a380380611d1a83398101604081905261002e9161026d565b826001600160a01b03811661005c57604051631e4fbdf760e01b81525f600482015260240160405180910390fd5b6100658161019a565b506001600160a01b03821661008d5760405163d92e233d60e01b815260040160405180910390fd5b6001600160a01b0381166100b45760405163d92e233d60e01b815260040160405180910390fd5b6001600160a01b03828116608052600180546001600160a01b03191691831691821790556005805461ffff60a01b1916610e0960a01b17905562093a806008556040805163313ce56760e01b8152905163313ce567916004808201926020929091908290030181865afa15801561012d573d5f5f3e3d5ffd5b505050506040513d601f19601f8201168201806040525081019061015191906102ad565b6001600160a01b0382165f908152600d60205260409020805460ff191660ff929092169190911790556101856009826101e9565b50610191600b846101e9565b505050506102d4565b5f80546001600160a01b038381166001600160a01b0319831681178455604051919092169283917f8be0079c531659141344cd1fd0a4f28419497f9722a3daafe3b4186f6b6457e09190a35050565b5f6101fd836001600160a01b038416610206565b90505b92915050565b5f81815260018301602052604081205461024b57508154600181810184555f848152602080822090930184905584548482528286019093526040902091909155610200565b505f610200565b80516001600160a01b0381168114610268575f5ffd5b919050565b5f5f5f6060848603121561027f575f5ffd5b61028884610252565b925061029660208501610252565b91506102a460408501610252565b90509250925092565b5f602082840312156102bd575f5ffd5b815160ff811681146102cd575f5ffd5b9392505050565b608051611a206102fa5f395f818161053401528181610c2e0152610d920152611a205ff3fe608060405234801561000f575f5ffd5b50600436106101ec575f3560e01c8063015df993146101f05780630912ae6d146102195780630a8b78c7146102305780632095b01e1461024557806323a06a1c146102585780632a80cda31461026b578063348ec5c81461027e5780633a0dad8e146102915780633af32abf146102a45780633e3679d3146102c75780633ea7fbdb146102da57806355fba94e146102ed578063567ba713146103005780635f24836814610326578063645006ca1461034157806366e87e7f1461034a5780636f8d52b81461035d578063715018a6146103665780637158da7c1461036e578063785c7cf6146103815780637a0cb784146103ac57806381408ce5146103bf578063849ede23146103d2578063862a5f06146103e55780638771de87146103f85780638da5cb5b1461040b5780638ee573ac14610413578063b6dfcd8b14610435578063ba96866614610448578063c30dd7271461045b578063d11f1c351461046e578063d1717c7d14610481578063d5460ab514610495578063d86cd44e1461049e578063e0876b44146104b3578063e8ffccb7146104c6578063ed04f218146104d9578063edcf9c1f146104ec578063f2fde38b146104f4578063f3cc699314610507578063f764eb451461051c578063f851a4401461052f575b5f5ffd5b600554610203906001600160a01b031681565b604051610210919061167e565b60405180910390f35b61022260075481565b604051908152602001610210565b61024361023e3660046116a6565b610556565b005b6102436102533660046116a6565b6105d1565b6102436102663660046116c1565b61064c565b610243610279366004611709565b61081f565b600254610203906001600160a01b031681565b600354610203906001600160a01b031681565b6102b76102b23660046116a6565b61087e565b6040519015158152602001610210565b6102436102d5366004611709565b610890565b6102436102e83660046116a6565b6108ef565b6102436102fb3660046116a6565b61098f565b60055461031490600160a81b900460ff1681565b60405160ff9091168152602001610210565b61032e6109c7565b60405161ffff9091168152602001610210565b61022260065481565b610243610358366004611720565b6109d7565b61022260085481565b610243610a7b565b600154610203906001600160a01b031681565b61031461038f3660046116a6565b6001600160a01b03165f908152600d602052604090205460ff1690565b6102436103ba366004611754565b610a8e565b6102436103cd3660046116a6565b610b70565b600454610203906001600160a01b031681565b6102436103f33660046116a6565b610c23565b6102b76104063660046116a6565b610d6d565b610203610d79565b6103146104213660046116a6565b600d6020525f908152604090205460ff1681565b6102436104433660046116a6565b610d87565b610243610456366004611709565b610f89565b6102436104693660046116a6565b610fe8565b6102b761047c3660046116a6565b611063565b60055461031490600160a01b900460ff1681565b61032e61032081565b6104a661106f565b6040516102109190611787565b6102b76104c13660046116a6565b611122565b6102436104d43660046116a6565b61113f565b6104a66104e73660046117d2565b611209565b6102b76112e5565b6102436105023660046116a6565b6113f6565b60055461032e90600160b01b900461ffff1681565b6102b761052a3660046116a6565b611433565b6102037f000000000000000000000000000000000000000000000000000000000000000081565b61055e61143f565b6001600160a01b0381166105855760405163d92e233d60e01b815260040160405180910390fd5b6002546001600160a01b0316156105af57604051630ea075bf60e21b815260040160405180910390fd5b600280546001600160a01b0319166001600160a01b0392909216919091179055565b6105d961143f565b6001600160a01b0381166106005760405163d92e233d60e01b815260040160405180910390fd5b6005546001600160a01b03161561062a57604051630ea075bf60e21b815260040160405180910390fd5b600580546001600160a01b0319166001600160a01b0392909216919091179055565b61065461143f565b61065c6112e5565b610679576040516312aecd8160e01b815260040160405180910390fd5b5f610685600985611471565b9050806106a557604051630ea075bf60e21b815260040160405180910390fd5b836001600160a01b031663313ce5676040518163ffffffff1660e01b8152600401602060405180830381865afa1580156106e1573d5f5f3e3d5ffd5b505050506040513d601f19601f8201168201806040525081019061070591906117eb565b6001600160a01b038581165f908152600d602052604090819020805460ff191660ff949094169390931790925560055491516302707eef60e51b8152911690634e0fdde09061075a908790879060040161180b565b5f604051808303815f87803b158015610771575f5ffd5b505af1158015610783573d5f5f3e3d5ffd5b50506003546040516359017aa960e01b81526001600160a01b0390911692506359017aa991506107b9908790869060040161180b565b5f604051808303815f87803b1580156107d0575f5ffd5b505af11580156107e2573d5f5f3e3d5ffd5b50506040516001600160a01b03871692507fdcbd8d9d0373041250f6c25b6b7aeccb3e9ff291e510ef85bb9f8ac09ceb6f6491505f90a250505050565b61082761143f565b61082f6112e5565b61084c576040516312aecd8160e01b815260040160405180910390fd5b600681905560405181907fb443c8bd39a1b60d415144f9148c6f90c2b68a553eb90c62cef5e44979db009d905f90a250565b5f61088a60098361148c565b92915050565b61089861143f565b6108a06112e5565b6108bd576040516312aecd8160e01b815260040160405180910390fd5b600781905560405181907fae6971e30edc181eba4e21b6f0d1238924e807e69aa92f89401c1a836dd71547905f90a250565b6108f761143f565b6108ff6112e5565b61091c576040516312aecd8160e01b815260040160405180910390fd5b6001600160a01b0381166109435760405163d92e233d60e01b815260040160405180910390fd5b6004546001600160a01b03161561096d57604051630ea075bf60e21b815260040160405180910390fd5b600480546001600160a01b0319166001600160a01b0392909216919091179055565b61099761143f565b5f6109a3600b83611471565b9050806109c357604051630ea075bf60e21b815260040160405180910390fd5b5050565b5f6109d260096114a0565b905090565b6109df61143f565b6109e76112e5565b610a04576040516312aecd8160e01b815260040160405180910390fd5b61032061ffff82161115610a2b576040516317dbc4cb60e21b815260040160405180910390fd5b6005805461ffff60b01b1916600160b01b61ffff84811682029290921792839055604051920416907f6c0e50288cc602be5dd504ce35358e01341e3c4f93e2e02b5a030a59bfdb84e2905f90a250565b610a8361143f565b610a8c5f6114a9565b565b6004546001600160a01b03163314610ab957604051631a27eac360e11b815260040160405180910390fd5b6001600160a01b038216610ae05760405163d92e233d60e01b815260040160405180910390fd5b5f6001826001811115610af557610af5611825565b03610b0c57610b05601084611471565b9050610b1a565b610b17600e84611471565b90505b80610b3857604051630ea075bf60e21b815260040160405180910390fd5b6040516001600160a01b038416907f9a7094a648c0524f3d62b9167886d30be0e68cf53863fe556edda348f189445a905f90a2505050565b610b7861143f565b604051638771de8760e01b81523090638771de8790610b9b90849060040161167e565b602060405180830381865afa158015610bb6573d5f5f3e3d5ffd5b505050506040513d601f19601f82011682018060405250810190610bda9190611839565b610bf75760405163e6c4247b60e01b815260040160405180910390fd5b5f610c03600b836114f8565b9050806109c35760405163e6c4247b60e01b815260040160405180910390fd5b336001600160a01b037f00000000000000000000000000000000000000000000000000000000000000001614610c6c57604051631a27eac360e11b815260040160405180910390fd5b610c746112e5565b610c91576040516312aecd8160e01b815260040160405180910390fd5b604051633821dad160e21b8152309063e0876b4490610cb490849060040161167e565b602060405180830381865afa158015610ccf573d5f5f3e3d5ffd5b505050506040513d601f19601f82011682018060405250810190610cf39190611839565b610d105760405163e6c4247b60e01b815260040160405180910390fd5b610d1b601282611471565b50806001600160a01b031663ca78e8396040518163ffffffff1660e01b81526004015f604051808303815f87803b158015610d54575f5ffd5b505af1158015610d66573d5f5f3e3d5ffd5b5050505050565b5f61088a600b8361148c565b5f546001600160a01b031690565b336001600160a01b037f00000000000000000000000000000000000000000000000000000000000000001614610dd057604051631a27eac360e11b815260040160405180910390fd5b610dd86112e5565b610df5576040516312aecd8160e01b815260040160405180910390fd5b6001546001600160a01b0390811690821603610e24576040516317dbc4cb60e21b815260040160405180910390fd5b5f610e306009836114f8565b905080610e5b578160405163751dff9760e11b8152600401610e52919061167e565b60405180910390fd5b604051631da09e4360e31b81525f90309063ed04f21890610e80908490600401611858565b5f60405180830381865afa158015610e9a573d5f5f3e3d5ffd5b505050506040513d5f823e601f3d908101601f19168201604052610ec1919081019061189d565b90505f5b8151811015610f50575f828281518110610ee157610ee1611967565b60200260200101519050806001600160a01b031663e3352c4c866040518263ffffffff1660e01b8152600401610f17919061167e565b5f604051808303815f87803b158015610f2e575f5ffd5b505af1158015610f40573d5f5f3e3d5ffd5b5050505050806001019050610ec5565b506040516001600160a01b038416907f952363a786fc6f24cfb955cd6207cf91ecee3a82a7dd0bc26891ff7647b5784c905f90a2505050565b610f9161143f565b610f996112e5565b610fb6576040516312aecd8160e01b815260040160405180910390fd5b600881905560405181907f0c525cc53958dcc2098f744df69dfeeb06316aeeca301ec2d5c5d4518e35f98a905f90a250565b610ff061143f565b6001600160a01b0381166110175760405163d92e233d60e01b815260040160405180910390fd5b6003546001600160a01b03161561104157604051630ea075bf60e21b815260040160405180910390fd5b600380546001600160a01b0319166001600160a01b0392909216919091179055565b5f61088a60128361148c565b60605f61107c60096114a0565b90508061ffff166001600160401b0381111561109a5761109a61187e565b6040519080825280602002602001820160405280156110c3578160200160208202803683370190505b5091505f5b8161ffff168161ffff16101561111d576110e7600961ffff831661150c565b838261ffff16815181106110fd576110fd611967565b6001600160a01b03909216602092830291909101909101526001016110c8565b505090565b5f61112e60108361148c565b8061088a575061088a600e8361148c565b6003546001600160a01b0316331461116a5760405163ea8e4eb560e01b815260040160405180910390fd5b61117560128261148c565b6111925760405163e6c4247b60e01b815260040160405180910390fd5b5f61119e60108361148c565b156111b7575060016111b16010836114f8565b506111ed565b6111c2600e8361148c565b156111d457505f6111b1600e836114f8565b60405163e6c4247b60e01b815260040160405180910390fd5b6111f86012836114f8565b50611204601483611471565b505050565b60605f600183600181111561122057611220611825565b1461122c57600e61122f565b60105b90505f61123b826114a0565b90505f8161ffff166001600160401b0381111561125a5761125a61187e565b604051908082528060200260200182016040528015611283578160200160208202803683370190505b5090505f5b8261ffff168161ffff1610156112dc576112a68461ffff831661150c565b828261ffff16815181106112bc576112bc611967565b6001600160a01b0390921660209283029190910190910152600101611288565b50949350505050565b5f8060035f9054906101000a90046001600160a01b03166001600160a01b031663055ad42e6040518163ffffffff1660e01b8152600401602060405180830381865afa158015611337573d5f5f3e3d5ffd5b505050506040513d601f19601f8201168201806040525081019061135b919061197b565b600381111561136c5761136c611825565b1480156109d25750600254604080516302ad6a1760e11b815290515f926001600160a01b03169163055ad42e9160048083019260209291908290030181865afa1580156113bb573d5f5f3e3d5ffd5b505050506040513d601f19601f820116820180604052508101906113df9190611999565b60048111156113f0576113f0611825565b14905090565b6113fe61143f565b6001600160a01b038116611427575f604051631e4fbdf760e01b8152600401610e52919061167e565b611430816114a9565b50565b5f61088a60148361148c565b33611448610d79565b6001600160a01b031614610a8c573360405163118cdaa760e01b8152600401610e52919061167e565b5f611485836001600160a01b038416611517565b9392505050565b5f611485836001600160a01b03841661155e565b5f61088a825490565b5f80546001600160a01b038381166001600160a01b0319831681178455604051919092169283917f8be0079c531659141344cd1fd0a4f28419497f9722a3daafe3b4186f6b6457e09190a35050565b5f611485836001600160a01b038416611575565b5f6114858383611658565b5f611522838361155e565b61155757508154600181810184555f84815260208082209093018490558454848252828601909352604090209190915561088a565b505f61088a565b5f9081526001919091016020526040902054151590565b5f818152600183016020526040812054801561164f575f6115976001836119b7565b85549091505f906115aa906001906119b7565b9050808214611609575f865f0182815481106115c8576115c8611967565b905f5260205f200154905080875f0184815481106115e8576115e8611967565b5f918252602080832090910192909255918252600188019052604090208390555b855486908061161a5761161a6119d6565b600190038181905f5260205f20015f90559055856001015f8681526020019081526020015f205f90556001935050505061088a565b5f91505061088a565b5f825f01828154811061166d5761166d611967565b905f5260205f200154905092915050565b6001600160a01b0391909116815260200190565b6001600160a01b0381168114611430575f5ffd5b5f602082840312156116b6575f5ffd5b813561148581611692565b5f5f5f606084860312156116d3575f5ffd5b83356116de81611692565b925060208401356116ee81611692565b915060408401356116fe81611692565b809150509250925092565b5f60208284031215611719575f5ffd5b5035919050565b5f60208284031215611730575f5ffd5b813561ffff81168114611485575f5ffd5b80356002811061174f575f5ffd5b919050565b5f5f60408385031215611765575f5ffd5b823561177081611692565b915061177e60208401611741565b90509250929050565b602080825282518282018190525f918401906040840190835b818110156117c75783516001600160a01b03168352602093840193909201916001016117a0565b509095945050505050565b5f602082840312156117e2575f5ffd5b61148582611741565b5f602082840312156117fb575f5ffd5b815160ff81168114611485575f5ffd5b6001600160a01b0392831681529116602082015260400190565b634e487b7160e01b5f52602160045260245ffd5b5f60208284031215611849575f5ffd5b81518015158114611485575f5ffd5b602081016002831061187857634e487b7160e01b5f52602160045260245ffd5b91905290565b634e487b7160e01b5f52604160045260245ffd5b805161174f81611692565b5f602082840312156118ad575f5ffd5b81516001600160401b038111156118c2575f5ffd5b8201601f810184136118d2575f5ffd5b80516001600160401b038111156118eb576118eb61187e565b604051600582901b90603f8201601f191681016001600160401b03811182821017156119195761191961187e565b604052918252602081840181019290810187841115611936575f5ffd5b6020850194505b8385101561195c5761194e85611892565b81526020948501940161193d565b509695505050505050565b634e487b7160e01b5f52603260045260245ffd5b5f6020828403121561198b575f5ffd5b815160048110611485575f5ffd5b5f602082840312156119a9575f5ffd5b815160058110611485575f5ffd5b8181038181111561088a57634e487b7160e01b5f52601160045260245ffd5b634e487b7160e01b5f52603160045260245ffdfea2646970667358221220df34ef78b1b0073bab32709152ab6ec85023fc9428aca02e978e4731539850ab64736f6c634300081c0033",
  "linkReferences": {},
  "deployedLinkReferences": {}
}