{
  "_format": "hh-sol-artifact-1",
  "contractName": "OrionConfig",
  "sourceName": "contracts/OrionConfig.sol",
  "abi": [
    {
      "inputs": [
        {
          "internalType": "address",
          "name": "initialOwner",
          "type": "address"
        },
        {
          "internalType": "address",
          "name": "admin_",
          "type": "address"
        },
        {
          "internalType": "address",
          "name": "underlyingAsset_",
          "type": "address"
        }
      ],
      "stateMutability": "nonpayable",
      "type": "constructor"
    },
    {
      "inputs": [],
      "name": "AlreadyRegistered",
      "type": "error"
    },
    {
      "inputs": [],
      "name": "InvalidAddress",
      "type": "error"
    },
    {
      "inputs": [],
      "name": "InvalidArguments",
      "type": "error"
    },
    {
      "inputs": [],
      "name": "NotAuthorized",
      "type": "error"
    },
    {
      "inputs": [
        {
          "internalType": "address",
          "name": "owner",
          "type": "address"
        }
      ],
      "name": "OwnableInvalidOwner",
      "type": "error"
    },
    {
      "inputs": [
        {
          "internalType": "address",
          "name": "account",
          "type": "address"
        }
      ],
      "name": "OwnableUnauthorizedAccount",
      "type": "error"
    },
    {
      "inputs": [],
      "name": "SystemNotIdle",
      "type": "error"
    },
    {
      "inputs": [
        {
          "internalType": "address",
          "name": "token",
          "type": "address"
        }
      ],
      "name": "TokenNotWhitelisted",
      "type": "error"
    },
    {
      "inputs": [],
      "name": "UnauthorizedAccess",
      "type": "error"
    },
    {
      "inputs": [],
      "name": "ZeroAddress",
      "type": "error"
    },
    {
      "anonymous": false,
      "inputs": [
        {
          "indexed": true,
          "internalType": "uint256",
          "name": "newCooldownDuration",
          "type": "uint256"
        }
      ],
      "name": "FeeChangeCooldownDurationUpdated",
      "type": "event"
    },
    {
      "anonymous": false,
      "inputs": [
        {
          "indexed": true,
          "internalType": "address",
          "name": "guardian",
          "type": "address"
        }
      ],
      "name": "GuardianUpdated",
      "type": "event"
    },
    {
      "anonymous": false,
      "inputs": [
        {
          "indexed": true,
          "internalType": "uint256",
          "name": "minDepositAmount",
          "type": "uint256"
        }
      ],
      "name": "MinDepositAmountUpdated",
      "type": "event"
    },
    {
      "anonymous": false,
      "inputs": [
        {
          "indexed": true,
          "internalType": "uint256",
          "name": "minRedeemAmount",
          "type": "uint256"
        }
      ],
      "name": "MinRedeemAmountUpdated",
      "type": "event"
    },
    {
      "anonymous": false,
      "inputs": [
        {
          "indexed": true,
          "internalType": "address",
          "name": "vault",
          "type": "address"
        }
      ],
      "name": "OrionVaultAdded",
      "type": "event"
    },
    {
      "anonymous": false,
      "inputs": [
        {
          "indexed": true,
          "internalType": "address",
          "name": "previousOwner",
          "type": "address"
        },
        {
          "indexed": true,
          "internalType": "address",
          "name": "newOwner",
          "type": "address"
        }
      ],
      "name": "OwnershipTransferStarted",
      "type": "event"
    },
    {
      "anonymous": false,
      "inputs": [
        {
          "indexed": true,
          "internalType": "address",
          "name": "previousOwner",
          "type": "address"
        },
        {
          "indexed": true,
          "internalType": "address",
          "name": "newOwner",
          "type": "address"
        }
      ],
      "name": "OwnershipTransferred",
      "type": "event"
    },
    {
      "anonymous": false,
      "inputs": [
        {
          "indexed": true,
          "internalType": "address",
          "name": "pauser",
          "type": "address"
        }
      ],
      "name": "ProtocolPaused",
      "type": "event"
    },
    {
      "anonymous": false,
      "inputs": [
        {
          "indexed": true,
          "internalType": "address",
          "name": "unpauser",
          "type": "address"
        }
      ],
      "name": "ProtocolUnpaused",
      "type": "event"
    },
    {
      "anonymous": false,
      "inputs": [
        {
          "indexed": true,
          "internalType": "uint16",
          "name": "riskFreeRate",
          "type": "uint16"
        }
      ],
      "name": "RiskFreeRateUpdated",
      "type": "event"
    },
    {
      "anonymous": false,
      "inputs": [
        {
          "indexed": true,
          "internalType": "address",
          "name": "asset",
          "type": "address"
        }
      ],
      "name": "WhitelistedAssetAdded",
      "type": "event"
    },
    {
      "anonymous": false,
      "inputs": [
        {
          "indexed": true,
          "internalType": "address",
          "name": "asset",
          "type": "address"
        }
      ],
      "name": "WhitelistedAssetRemoved",
      "type": "event"
    },
    {
      "inputs": [],
      "name": "MAX_RISK_FREE_RATE",
      "outputs": [
        {
          "internalType": "uint16",
          "name": "",
          "type": "uint16"
        }
      ],
      "stateMutability": "view",
      "type": "function"
    },
    {
      "inputs": [],
      "name": "acceptOwnership",
      "outputs": [],
      "stateMutability": "nonpayable",
      "type": "function"
    },
    {
      "inputs": [
        {
          "internalType": "address",
          "name": "vault",
          "type": "address"
        },
        {
          "internalType": "enum EventsLib.VaultType",
          "name": "vaultType",
          "type": "uint8"
        }
      ],
      "name": "addOrionVault",
      "outputs": [],
      "stateMutability": "nonpayable",
      "type": "function"
    },
    {
      "inputs": [
        {
          "internalType": "address",
          "name": "asset",
          "type": "address"
        },
        {
          "internalType": "address",
          "name": "priceAdapter",
          "type": "address"
        },
        {
          "internalType": "address",
          "name": "executionAdapter",
          "type": "address"
        }
      ],
      "name": "addWhitelistedAsset",
      "outputs": [],
      "stateMutability": "nonpayable",
      "type": "function"
    },
    {
      "inputs": [
        {
          "internalType": "address",
          "name": "curator",
          "type": "address"
        }
      ],
      "name": "addWhitelistedCurator",
      "outputs": [],
      "stateMutability": "nonpayable",
      "type": "function"
    },
    {
      "inputs": [
        {
          "internalType": "address",
          "name": "vaultOwner",
          "type": "address"
        }
      ],
      "name": "addWhitelistedVaultOwner",
      "outputs": [],
      "stateMutability": "nonpayable",
      "type": "function"
    },
    {
      "inputs": [],
      "name": "admin",
      "outputs": [
        {
          "internalType": "address",
          "name": "",
          "type": "address"
        }
      ],
      "stateMutability": "view",
      "type": "function"
    },
    {
      "inputs": [
        {
          "internalType": "address",
          "name": "vault",
          "type": "address"
        }
      ],
      "name": "completeVaultDecommissioning",
      "outputs": [],
      "stateMutability": "nonpayable",
      "type": "function"
    },
    {
      "inputs": [],
      "name": "curatorIntentDecimals",
      "outputs": [
        {
          "internalType": "uint8",
          "name": "",
          "type": "uint8"
        }
      ],
      "stateMutability": "view",
      "type": "function"
    },
    {
      "inputs": [],
      "name": "feeChangeCooldownDuration",
      "outputs": [
        {
          "internalType": "uint256",
          "name": "",
          "type": "uint256"
        }
      ],
      "stateMutability": "view",
      "type": "function"
    },
    {
      "inputs": [
        {
          "internalType": "enum EventsLib.VaultType",
          "name": "vaultType",
          "type": "uint8"
        }
      ],
      "name": "getAllOrionVaults",
      "outputs": [
        {
          "internalType": "address[]",
          "name": "",
          "type": "address[]"
        }
      ],
      "stateMutability": "view",
      "type": "function"
    },
    {
      "inputs": [],
      "name": "getAllWhitelistedAssets",
      "outputs": [
        {
          "internalType": "address[]",
          "name": "assets",
          "type": "address[]"
        }
      ],
      "stateMutability": "view",
      "type": "function"
    },
    {
      "inputs": [
        {
          "internalType": "address",
          "name": "token",
          "type": "address"
        }
      ],
      "name": "getTokenDecimals",
      "outputs": [
        {
          "internalType": "uint8",
          "name": "",
          "type": "uint8"
        }
      ],
      "stateMutability": "view",
      "type": "function"
    },
    {
      "inputs": [],
      "name": "guardian",
      "outputs": [
        {
          "internalType": "address",
          "name": "",
          "type": "address"
        }
      ],
      "stateMutability": "view",
      "type": "function"
    },
    {
      "inputs": [],
      "name": "internalStatesOrchestrator",
      "outputs": [
        {
          "internalType": "address",
          "name": "",
          "type": "address"
        }
      ],
      "stateMutability": "view",
      "type": "function"
    },
    {
      "inputs": [
        {
          "internalType": "address",
          "name": "vault",
          "type": "address"
        }
      ],
      "name": "isDecommissionedVault",
      "outputs": [
        {
          "internalType": "bool",
          "name": "",
          "type": "bool"
        }
      ],
      "stateMutability": "view",
      "type": "function"
    },
    {
      "inputs": [
        {
          "internalType": "address",
          "name": "vault",
          "type": "address"
        }
      ],
      "name": "isDecommissioningVault",
      "outputs": [
        {
          "internalType": "bool",
          "name": "",
          "type": "bool"
        }
      ],
      "stateMutability": "view",
      "type": "function"
    },
    {
      "inputs": [
        {
          "internalType": "address",
          "name": "vault",
          "type": "address"
        }
      ],
      "name": "isOrionVault",
      "outputs": [
        {
          "internalType": "bool",
          "name": "",
          "type": "bool"
        }
      ],
      "stateMutability": "view",
      "type": "function"
    },
    {
      "inputs": [],
      "name": "isSystemIdle",
      "outputs": [
        {
          "internalType": "bool",
          "name": "",
          "type": "bool"
        }
      ],
      "stateMutability": "view",
      "type": "function"
    },
    {
      "inputs": [
        {
          "internalType": "address",
          "name": "asset",
          "type": "address"
        }
      ],
      "name": "isWhitelisted",
      "outputs": [
        {
          "internalType": "bool",
          "name": "",
          "type": "bool"
        }
      ],
      "stateMutability": "view",
      "type": "function"
    },
    {
      "inputs": [
        {
          "internalType": "address",
          "name": "curator",
          "type": "address"
        }
      ],
      "name": "isWhitelistedCurator",
      "outputs": [
        {
          "internalType": "bool",
          "name": "",
          "type": "bool"
        }
      ],
      "stateMutability": "view",
      "type": "function"
    },
    {
      "inputs": [
        {
          "internalType": "address",
          "name": "vaultOwner",
          "type": "address"
        }
      ],
      "name": "isWhitelistedVaultOwner",
      "outputs": [
        {
          "internalType": "bool",
          "name": "",
          "type": "bool"
        }
      ],
      "stateMutability": "view",
      "type": "function"
    },
    {
      "inputs": [],
      "name": "liquidityOrchestrator",
      "outputs": [
        {
          "internalType": "address",
          "name": "",
          "type": "address"
        }
      ],
      "stateMutability": "view",
      "type": "function"
    },
    {
      "inputs": [],
      "name": "minDepositAmount",
      "outputs": [
        {
          "internalType": "uint256",
          "name": "",
          "type": "uint256"
        }
      ],
      "stateMutability": "view",
      "type": "function"
    },
    {
      "inputs": [],
      "name": "minRedeemAmount",
      "outputs": [
        {
          "internalType": "uint256",
          "name": "",
          "type": "uint256"
        }
      ],
      "stateMutability": "view",
      "type": "function"
    },
    {
      "inputs": [],
      "name": "owner",
      "outputs": [
        {
          "internalType": "address",
          "name": "",
          "type": "address"
        }
      ],
      "stateMutability": "view",
      "type": "function"
    },
    {
      "inputs": [],
      "name": "pauseAll",
      "outputs": [],
      "stateMutability": "nonpayable",
      "type": "function"
    },
    {
      "inputs": [],
      "name": "pendingOwner",
      "outputs": [
        {
          "internalType": "address",
          "name": "",
          "type": "address"
        }
      ],
      "stateMutability": "view",
      "type": "function"
    },
    {
      "inputs": [],
      "name": "priceAdapterDecimals",
      "outputs": [
        {
          "internalType": "uint8",
          "name": "",
          "type": "uint8"
        }
      ],
      "stateMutability": "view",
      "type": "function"
    },
    {
      "inputs": [],
      "name": "priceAdapterRegistry",
      "outputs": [
        {
          "internalType": "address",
          "name": "",
          "type": "address"
        }
      ],
      "stateMutability": "view",
      "type": "function"
    },
    {
      "inputs": [
        {
          "internalType": "address",
          "name": "vault",
          "type": "address"
        }
      ],
      "name": "removeOrionVault",
      "outputs": [],
      "stateMutability": "nonpayable",
      "type": "function"
    },
    {
      "inputs": [
        {
          "internalType": "address",
          "name": "asset",
          "type": "address"
        }
      ],
      "name": "removeWhitelistedAsset",
      "outputs": [],
      "stateMutability": "nonpayable",
      "type": "function"
    },
    {
      "inputs": [
        {
          "internalType": "address",
          "name": "curator",
          "type": "address"
        }
      ],
      "name": "removeWhitelistedCurator",
      "outputs": [],
      "stateMutability": "nonpayable",
      "type": "function"
    },
    {
      "inputs": [
        {
          "internalType": "address",
          "name": "vaultOwner",
          "type": "address"
        }
      ],
      "name": "removeWhitelistedVaultOwner",
      "outputs": [],
      "stateMutability": "nonpayable",
      "type": "function"
    },
    {
      "inputs": [],
      "name": "renounceOwnership",
      "outputs": [],
      "stateMutability": "nonpayable",
      "type": "function"
    },
    {
      "inputs": [],
      "name": "riskFreeRate",
      "outputs": [
        {
          "internalType": "uint16",
          "name": "",
          "type": "uint16"
        }
      ],
      "stateMutability": "view",
      "type": "function"
    },
    {
      "inputs": [
        {
          "internalType": "uint256",
          "name": "duration",
          "type": "uint256"
        }
      ],
      "name": "setFeeChangeCooldownDuration",
      "outputs": [],
      "stateMutability": "nonpayable",
      "type": "function"
    },
    {
      "inputs": [
        {
          "internalType": "address",
          "name": "_guardian",
          "type": "address"
        }
      ],
      "name": "setGuardian",
      "outputs": [],
      "stateMutability": "nonpayable",
      "type": "function"
    },
    {
      "inputs": [
        {
          "internalType": "address",
          "name": "orchestrator",
          "type": "address"
        }
      ],
      "name": "setInternalStatesOrchestrator",
      "outputs": [],
      "stateMutability": "nonpayable",
      "type": "function"
    },
    {
      "inputs": [
        {
          "internalType": "address",
          "name": "orchestrator",
          "type": "address"
        }
      ],
      "name": "setLiquidityOrchestrator",
      "outputs": [],
      "stateMutability": "nonpayable",
      "type": "function"
    },
    {
      "inputs": [
        {
          "internalType": "uint256",
          "name": "amount",
          "type": "uint256"
        }
      ],
      "name": "setMinDepositAmount",
      "outputs": [],
      "stateMutability": "nonpayable",
      "type": "function"
    },
    {
      "inputs": [
        {
          "internalType": "uint256",
          "name": "amount",
          "type": "uint256"
        }
      ],
      "name": "setMinRedeemAmount",
      "outputs": [],
      "stateMutability": "nonpayable",
      "type": "function"
    },
    {
      "inputs": [
        {
          "internalType": "address",
          "name": "registry",
          "type": "address"
        }
      ],
      "name": "setPriceAdapterRegistry",
      "outputs": [],
      "stateMutability": "nonpayable",
      "type": "function"
    },
    {
      "inputs": [
        {
          "internalType": "uint16",
          "name": "_riskFreeRate",
          "type": "uint16"
        }
      ],
      "name": "setProtocolRiskFreeRate",
      "outputs": [],
      "stateMutability": "nonpayable",
      "type": "function"
    },
    {
      "inputs": [
        {
          "internalType": "address",
          "name": "transparentFactory",
          "type": "address"
        }
      ],
      "name": "setVaultFactory",
      "outputs": [],
      "stateMutability": "nonpayable",
      "type": "function"
    },
    {
      "inputs": [
        {
          "internalType": "address",
          "name": "",
          "type": "address"
        }
      ],
      "name": "tokenDecimals",
      "outputs": [
        {
          "internalType": "uint8",
          "name": "",
          "type": "uint8"
        }
      ],
      "stateMutability": "view",
      "type": "function"
    },
    {
      "inputs": [
        {
          "internalType": "address",
          "name": "newOwner",
          "type": "address"
        }
      ],
      "name": "transferOwnership",
      "outputs": [],
      "stateMutability": "nonpayable",
      "type": "function"
    },
    {
      "inputs": [],
      "name": "transparentVaultFactory",
      "outputs": [
        {
          "internalType": "address",
          "name": "",
          "type": "address"
        }
      ],
      "stateMutability": "view",
      "type": "function"
    },
    {
      "inputs": [],
      "name": "underlyingAsset",
      "outputs": [
        {
          "internalType": "contract IERC20",
          "name": "",
          "type": "address"
        }
      ],
      "stateMutability": "view",
      "type": "function"
    },
    {
      "inputs": [],
      "name": "unpauseAll",
      "outputs": [],
      "stateMutability": "nonpayable",
      "type": "function"
    },
    {
      "inputs": [],
      "name": "whitelistedAssetsLength",
      "outputs": [
        {
          "internalType": "uint16",
          "name": "",
          "type": "uint16"
        }
      ],
      "stateMutability": "view",
      "type": "function"
    }
  ],
  "bytecode": "0x60a060405234801561000f575f5ffd5b5060405161264638038061264683398101604081905261002e91610295565b826001600160a01b03811661005c57604051631e4fbdf760e01b81525f600482015260240160405180910390fd5b610065816101a6565b506001600160a01b03821661008d5760405163d92e233d60e01b815260040160405180910390fd5b6001600160a01b0381166100b45760405163d92e233d60e01b815260040160405180910390fd5b6001600160a01b03828116608052600380546001600160a01b03191691831691821790556007805461ffff60a01b1916610e0960a01b17905562093a80600a556040805163313ce56760e01b8152905163313ce567916004808201926020929091908290030181865afa15801561012d573d5f5f3e3d5ffd5b505050506040513d601f19601f8201168201806040525081019061015191906102d5565b6001600160a01b0382165f908152601160205260409020805460ff191660ff92909216919091179055610185600b826101c2565b50610191600d846101c2565b5061019d600f846101c2565b505050506102fc565b600180546001600160a01b03191690556101bf816101df565b50565b5f6101d6836001600160a01b03841661022e565b90505b92915050565b5f80546001600160a01b038381166001600160a01b0319831681178455604051919092169283917f8be0079c531659141344cd1fd0a4f28419497f9722a3daafe3b4186f6b6457e09190a35050565b5f81815260018301602052604081205461027357508154600181810184555f8481526020808220909301849055845484825282860190935260409020919091556101d9565b505f6101d9565b80516001600160a01b0381168114610290575f5ffd5b919050565b5f5f5f606084860312156102a7575f5ffd5b6102b08461027a565b92506102be6020850161027a565b91506102cc6040850161027a565b90509250925092565b5f602082840312156102e5575f5ffd5b815160ff811681146102f5575f5ffd5b9392505050565b60805161230f6103375f395f818161061601528181610bbd0152818161114101528181611297015281816113290152611634015261230f5ff3fe608060405234801561000f575f5ffd5b506004361061024f575f3560e01c8063015df993146102535780630912ae6d1461027c5780630a8b78c7146102935780632095b01e146102a857806323a06a1c146102bb5780632a80cda3146102ce5780632b1a3a8b146102e1578063348ec5c8146102f45780633a0dad8e146103075780633af32abf1461031a5780633e3679d31461033d5780633ea7fbdb14610350578063452a93201461036357806355fba94e14610376578063567ba71314610389578063595c6a67146103af5780635f248368146103b7578063645006ca146103d257806366e87e7f146103db5780636f8d52b8146103ee578063715018a6146103f75780637158da7c146103ff578063785c7cf61461041257806379ba50971461043d5780637a0cb7841461044557806381408ce514610458578063849ede231461046b578063862a5f061461047e5780638771de87146104915780638a0dac4a146104a45780638a2ddd03146104b75780638da5cb5b146104bf5780638ee573ac146104c7578063b6dfcd8b146104e9578063ba968666146104fc578063c047417c1461050f578063c30dd72714610522578063d11f1c3514610535578063d1717c7d14610548578063d5460ab51461055c578063d86cd44e14610565578063e0876b441461057a578063e30c39781461058d578063e8ffccb714610595578063ed04f218146105a8578063edcf9c1f146105bb578063f05e5d4c146105c3578063f2fde38b146105d6578063f3cc6993146105e9578063f764eb45146105fe578063f851a44014610611575b5f5ffd5b600754610266906001600160a01b031681565b6040516102739190611f6d565b60405180910390f35b61028560095481565b604051908152602001610273565b6102a66102a1366004611f95565b610638565b005b6102a66102b6366004611f95565b6106b3565b6102a66102c9366004611fb0565b61072e565b6102a66102dc366004611ff8565b610901565b6102a66102ef366004611f95565b610980565b600454610266906001600160a01b031681565b600554610266906001600160a01b031681565b61032d610328366004611f95565b610a37565b6040519015158152602001610273565b6102a661034b366004611ff8565b610a49565b6102a661035e366004611f95565b610ac8565b600254610266906001600160a01b031681565b6102a6610384366004611f95565b610b68565b60075461039d90600160a81b900460ff1681565b60405160ff9091168152602001610273565b6102a6610b9c565b6103bf610eb2565b60405161ffff9091168152602001610273565b61028560085481565b6102a66103e936600461200f565b610ec2565b610285600a5481565b6102a6610f66565b600354610266906001600160a01b031681565b61039d610420366004611f95565b6001600160a01b03165f9081526011602052604090205460ff1690565b6102a6610f79565b6102a6610453366004612043565b610fc1565b6102a6610466366004611f95565b6110a3565b600654610266906001600160a01b031681565b6102a661048c366004611f95565b611136565b61032d61049f366004611f95565b611280565b6102a66104b2366004611f95565b61128c565b6102a661131e565b61026661161b565b61039d6104d5366004611f95565b60116020525f908152604090205460ff1681565b6102a66104f7366004611f95565b611629565b6102a661050a366004611ff8565b611822565b6102a661051d366004611f95565b611881565b6102a6610530366004611f95565b611895565b61032d610543366004611f95565b611910565b60075461039d90600160a01b900460ff1681565b6103bf61032081565b61056d61191c565b6040516102739190612076565b61032d610588366004611f95565b6119cf565b6102666119ec565b6102a66105a3366004611f95565b6119fb565b61056d6105b63660046120c1565b611aab565b61032d611b87565b61032d6105d1366004611f95565b611c97565b6102a66105e4366004611f95565b611ca3565b6007546103bf90600160b01b900461ffff1681565b61032d61060c366004611f95565b611d09565b6102667f000000000000000000000000000000000000000000000000000000000000000081565b610640611d15565b6001600160a01b0381166106675760405163d92e233d60e01b815260040160405180910390fd5b6004546001600160a01b03161561069157604051630ea075bf60e21b815260040160405180910390fd5b600480546001600160a01b0319166001600160a01b0392909216919091179055565b6106bb611d15565b6001600160a01b0381166106e25760405163d92e233d60e01b815260040160405180910390fd5b6007546001600160a01b03161561070c57604051630ea075bf60e21b815260040160405180910390fd5b600780546001600160a01b0319166001600160a01b0392909216919091179055565b610736611d15565b61073e611b87565b61075b576040516312aecd8160e01b815260040160405180910390fd5b5f610767600b85611d47565b90508061078757604051630ea075bf60e21b815260040160405180910390fd5b836001600160a01b031663313ce5676040518163ffffffff1660e01b8152600401602060405180830381865afa1580156107c3573d5f5f3e3d5ffd5b505050506040513d601f19601f820116820180604052508101906107e791906120da565b6001600160a01b038581165f9081526011602052604090819020805460ff191660ff949094169390931790925560075491516302707eef60e51b8152911690634e0fdde09061083c90879087906004016120fa565b5f604051808303815f87803b158015610853575f5ffd5b505af1158015610865573d5f5f3e3d5ffd5b50506005546040516359017aa960e01b81526001600160a01b0390911692506359017aa9915061089b90879086906004016120fa565b5f604051808303815f87803b1580156108b2575f5ffd5b505af11580156108c4573d5f5f3e3d5ffd5b50506040516001600160a01b03871692507fdcbd8d9d0373041250f6c25b6b7aeccb3e9ff291e510ef85bb9f8ac09ceb6f6491505f90a250505050565b610909611d15565b610911611b87565b61092e576040516312aecd8160e01b815260040160405180910390fd5b805f0361094e576040516317dbc4cb60e21b815260040160405180910390fd5b600881905560405181907fb443c8bd39a1b60d415144f9148c6f90c2b68a553eb90c62cef5e44979db009d905f90a250565b610988611d15565b604051633c17975360e21b8152309063f05e5d4c906109ab908490600401611f6d565b602060405180830381865afa1580156109c6573d5f5f3e3d5ffd5b505050506040513d601f19601f820116820180604052508101906109ea9190612114565b610a075760405163e6c4247b60e01b815260040160405180910390fd5b5f610a13600f83611d62565b905080610a335760405163e6c4247b60e01b815260040160405180910390fd5b5050565b5f610a43600b83611d76565b92915050565b610a51611d15565b610a59611b87565b610a76576040516312aecd8160e01b815260040160405180910390fd5b805f03610a96576040516317dbc4cb60e21b815260040160405180910390fd5b600981905560405181907fae6971e30edc181eba4e21b6f0d1238924e807e69aa92f89401c1a836dd71547905f90a250565b610ad0611d15565b610ad8611b87565b610af5576040516312aecd8160e01b815260040160405180910390fd5b6001600160a01b038116610b1c5760405163d92e233d60e01b815260040160405180910390fd5b6006546001600160a01b031615610b4657604051630ea075bf60e21b815260040160405180910390fd5b600680546001600160a01b0319166001600160a01b0392909216919091179055565b610b70611d15565b5f610b7c600d83611d47565b905080610a3357604051630ea075bf60e21b815260040160405180910390fd5b6002546001600160a01b03163314801590610be05750336001600160a01b037f00000000000000000000000000000000000000000000000000000000000000001614155b15610bfe57604051631a27eac360e11b815260040160405180910390fd5b6004805460408051638456cb5960e01b815290516001600160a01b0390921692638456cb5992828201925f929082900301818387803b158015610c3f575f5ffd5b505af1158015610c51573d5f5f3e3d5ffd5b5050505060055f9054906101000a90046001600160a01b03166001600160a01b0316638456cb596040518163ffffffff1660e01b81526004015f604051808303815f87803b158015610ca1575f5ffd5b505af1158015610cb3573d5f5f3e3d5ffd5b5050604051631da09e4360e31b81525f925030915063ed04f21890610cdc908490600401612147565b5f60405180830381865afa158015610cf6573d5f5f3e3d5ffd5b505050506040513d5f823e601f3d908101601f19168201604052610d1d919081019061218c565b90505f5b8151811015610d9c57818181518110610d3c57610d3c612256565b60200260200101516001600160a01b0316638456cb596040518163ffffffff1660e01b81526004015f604051808303815f87803b158015610d7b575f5ffd5b505af1158015610d8d573d5f5f3e3d5ffd5b50505050806001019050610d21565b50604051631da09e4360e31b81525f90309063ed04f21890610dc390600190600401612147565b5f60405180830381865afa158015610ddd573d5f5f3e3d5ffd5b505050506040513d5f823e601f3d908101601f19168201604052610e04919081019061218c565b90505f5b8151811015610e8357818181518110610e2357610e23612256565b60200260200101516001600160a01b0316638456cb596040518163ffffffff1660e01b81526004015f604051808303815f87803b158015610e62575f5ffd5b505af1158015610e74573d5f5f3e3d5ffd5b50505050806001019050610e08565b5060405133907f3fb8cabbd30f03312e3221b5b1c7ce132ca5d72cf36143a1d6d33b11ad4eba24905f90a25050565b5f610ebd600b611d8a565b905090565b610eca611d15565b610ed2611b87565b610eef576040516312aecd8160e01b815260040160405180910390fd5b61032061ffff82161115610f16576040516317dbc4cb60e21b815260040160405180910390fd5b6007805461ffff60b01b1916600160b01b61ffff84811682029290921792839055604051920416907f6c0e50288cc602be5dd504ce35358e01341e3c4f93e2e02b5a030a59bfdb84e2905f90a250565b610f6e611d15565b610f775f611d93565b565b3380610f836119ec565b6001600160a01b031614610fb5578060405163118cdaa760e01b8152600401610fac9190611f6d565b60405180910390fd5b610fbe81611d93565b50565b6006546001600160a01b03163314610fec57604051631a27eac360e11b815260040160405180910390fd5b6001600160a01b0382166110135760405163d92e233d60e01b815260040160405180910390fd5b5f600182600181111561102857611028612133565b0361103f57611038601484611d47565b905061104d565b61104a601284611d47565b90505b8061106b57604051630ea075bf60e21b815260040160405180910390fd5b6040516001600160a01b038416907f9a7094a648c0524f3d62b9167886d30be0e68cf53863fe556edda348f189445a905f90a2505050565b6110ab611d15565b604051638771de8760e01b81523090638771de87906110ce908490600401611f6d565b602060405180830381865afa1580156110e9573d5f5f3e3d5ffd5b505050506040513d601f19601f8201168201806040525081019061110d9190612114565b61112a5760405163e6c4247b60e01b815260040160405180910390fd5b5f610a13600d83611d62565b336001600160a01b037f0000000000000000000000000000000000000000000000000000000000000000161461117f57604051631a27eac360e11b815260040160405180910390fd5b611187611b87565b6111a4576040516312aecd8160e01b815260040160405180910390fd5b604051633821dad160e21b8152309063e0876b44906111c7908490600401611f6d565b602060405180830381865afa1580156111e2573d5f5f3e3d5ffd5b505050506040513d601f19601f820116820180604052508101906112069190612114565b6112235760405163e6c4247b60e01b815260040160405180910390fd5b61122e601682611d47565b50806001600160a01b031663ca78e8396040518163ffffffff1660e01b81526004015f604051808303815f87803b158015611267575f5ffd5b505af1158015611279573d5f5f3e3d5ffd5b5050505050565b5f610a43600d83611d76565b336001600160a01b037f000000000000000000000000000000000000000000000000000000000000000016146112d557604051631a27eac360e11b815260040160405180910390fd5b600280546001600160a01b0319166001600160a01b0383169081179091556040517f6bb7ff33e730289800c62ad882105a144a74010d2bdbb9a942544a3005ad55bf905f90a250565b336001600160a01b037f0000000000000000000000000000000000000000000000000000000000000000161461136757604051631a27eac360e11b815260040160405180910390fd5b6004805460408051631fa5d41d60e11b815290516001600160a01b0390921692633f4ba83a92828201925f929082900301818387803b1580156113a8575f5ffd5b505af11580156113ba573d5f5f3e3d5ffd5b5050505060055f9054906101000a90046001600160a01b03166001600160a01b0316633f4ba83a6040518163ffffffff1660e01b81526004015f604051808303815f87803b15801561140a575f5ffd5b505af115801561141c573d5f5f3e3d5ffd5b5050604051631da09e4360e31b81525f925030915063ed04f21890611445908490600401612147565b5f60405180830381865afa15801561145f573d5f5f3e3d5ffd5b505050506040513d5f823e601f3d908101601f19168201604052611486919081019061218c565b90505f5b8151811015611505578181815181106114a5576114a5612256565b60200260200101516001600160a01b0316633f4ba83a6040518163ffffffff1660e01b81526004015f604051808303815f87803b1580156114e4575f5ffd5b505af11580156114f6573d5f5f3e3d5ffd5b5050505080600101905061148a565b50604051631da09e4360e31b81525f90309063ed04f2189061152c90600190600401612147565b5f60405180830381865afa158015611546573d5f5f3e3d5ffd5b505050506040513d5f823e601f3d908101601f1916820160405261156d919081019061218c565b90505f5b81518110156115ec5781818151811061158c5761158c612256565b60200260200101516001600160a01b0316633f4ba83a6040518163ffffffff1660e01b81526004015f604051808303815f87803b1580156115cb575f5ffd5b505af11580156115dd573d5f5f3e3d5ffd5b50505050806001019050611571565b5060405133907f2d553fb579456929d17c4cf0dc43b2f2e8e5a8f917cadcc8a5f18e9c4010b75a905f90a25050565b5f546001600160a01b031690565b336001600160a01b037f0000000000000000000000000000000000000000000000000000000000000000161461167257604051631a27eac360e11b815260040160405180910390fd5b61167a611b87565b611697576040516312aecd8160e01b815260040160405180910390fd5b6003546001600160a01b03908116908216036116c6576040516317dbc4cb60e21b815260040160405180910390fd5b5f6116d2600b83611d62565b9050806116f4578160405163751dff9760e11b8152600401610fac9190611f6d565b604051631da09e4360e31b81525f90309063ed04f21890611719908490600401612147565b5f60405180830381865afa158015611733573d5f5f3e3d5ffd5b505050506040513d5f823e601f3d908101601f1916820160405261175a919081019061218c565b90505f5b81518110156117e9575f82828151811061177a5761177a612256565b60200260200101519050806001600160a01b031663e3352c4c866040518263ffffffff1660e01b81526004016117b09190611f6d565b5f604051808303815f87803b1580156117c7575f5ffd5b505af11580156117d9573d5f5f3e3d5ffd5b505050505080600101905061175e565b506040516001600160a01b038416907f952363a786fc6f24cfb955cd6207cf91ecee3a82a7dd0bc26891ff7647b5784c905f90a2505050565b61182a611d15565b611832611b87565b61184f576040516312aecd8160e01b815260040160405180910390fd5b600a81905560405181907f0c525cc53958dcc2098f744df69dfeeb06316aeeca301ec2d5c5d4518e35f98a905f90a250565b611889611d15565b5f610b7c600f83611d47565b61189d611d15565b6001600160a01b0381166118c45760405163d92e233d60e01b815260040160405180910390fd5b6005546001600160a01b0316156118ee57604051630ea075bf60e21b815260040160405180910390fd5b600580546001600160a01b0319166001600160a01b0392909216919091179055565b5f610a43601683611d76565b60605f611929600b611d8a565b90508061ffff166001600160401b038111156119475761194761216d565b604051908082528060200260200182016040528015611970578160200160208202803683370190505b5091505f5b8161ffff168161ffff1610156119ca57611994600b61ffff8316611dac565b838261ffff16815181106119aa576119aa612256565b6001600160a01b0390921660209283029190910190910152600101611975565b505090565b5f6119db601483611d76565b80610a435750610a43601283611d76565b6001546001600160a01b031690565b6005546001600160a01b03163314611a265760405163ea8e4eb560e01b815260040160405180910390fd5b611a31601682611d76565b611a4e5760405163e6c4247b60e01b815260040160405180910390fd5b5f611a5a601483611d62565b905080611a8f575f611a6d601284611d62565b905080611a8d5760405163e6c4247b60e01b815260040160405180910390fd5b505b611a9a601683611d62565b50611aa6601883611d47565b505050565b60605f6001836001811115611ac257611ac2612133565b14611ace576012611ad1565b60145b90505f611add82611d8a565b90505f8161ffff166001600160401b03811115611afc57611afc61216d565b604051908082528060200260200182016040528015611b25578160200160208202803683370190505b5090505f5b8261ffff168161ffff161015611b7e57611b488461ffff8316611dac565b828261ffff1681518110611b5e57611b5e612256565b6001600160a01b0390921660209283029190910190910152600101611b2a565b50949350505050565b5f8060055f9054906101000a90046001600160a01b03166001600160a01b031663055ad42e6040518163ffffffff1660e01b8152600401602060405180830381865afa158015611bd9573d5f5f3e3d5ffd5b505050506040513d601f19601f82011682018060405250810190611bfd919061226a565b6003811115611c0e57611c0e612133565b148015610ebd57505f60048054604080516302ad6a1760e11b815290516001600160a01b039092169263055ad42e9282820192602092908290030181865afa158015611c5c573d5f5f3e3d5ffd5b505050506040513d601f19601f82011682018060405250810190611c809190612288565b6004811115611c9157611c91612133565b14905090565b5f610a43600f83611d76565b611cab611d15565b600180546001600160a01b0319166001600160a01b038316908117909155611cd161161b565b6001600160a01b03167f38d16b8cac22d99fc7c124b9cd0de2d3fa1faef420bfe791d8c362d765e2270060405160405180910390a350565b5f610a43601883611d76565b33611d1e61161b565b6001600160a01b031614610f77573360405163118cdaa760e01b8152600401610fac9190611f6d565b5f611d5b836001600160a01b038416611db7565b9392505050565b5f611d5b836001600160a01b038416611dfe565b5f611d5b836001600160a01b038416611ee1565b5f610a43825490565b600180546001600160a01b0319169055610fbe81611ef8565b5f611d5b8383611f47565b5f611dc28383611ee1565b611df757508154600181810184555f848152602080822090930184905584548482528286019093526040902091909155610a43565b505f610a43565b5f8181526001830160205260408120548015611ed8575f611e206001836122a6565b85549091505f90611e33906001906122a6565b9050808214611e92575f865f018281548110611e5157611e51612256565b905f5260205f200154905080875f018481548110611e7157611e71612256565b5f918252602080832090910192909255918252600188019052604090208390555b8554869080611ea357611ea36122c5565b600190038181905f5260205f20015f90559055856001015f8681526020019081526020015f205f905560019350505050610a43565b5f915050610a43565b5f9081526001919091016020526040902054151590565b5f80546001600160a01b038381166001600160a01b0319831681178455604051919092169283917f8be0079c531659141344cd1fd0a4f28419497f9722a3daafe3b4186f6b6457e09190a35050565b5f825f018281548110611f5c57611f5c612256565b905f5260205f200154905092915050565b6001600160a01b0391909116815260200190565b6001600160a01b0381168114610fbe575f5ffd5b5f60208284031215611fa5575f5ffd5b8135611d5b81611f81565b5f5f5f60608486031215611fc2575f5ffd5b8335611fcd81611f81565b92506020840135611fdd81611f81565b91506040840135611fed81611f81565b809150509250925092565b5f60208284031215612008575f5ffd5b5035919050565b5f6020828403121561201f575f5ffd5b813561ffff81168114611d5b575f5ffd5b80356002811061203e575f5ffd5b919050565b5f5f60408385031215612054575f5ffd5b823561205f81611f81565b915061206d60208401612030565b90509250929050565b602080825282518282018190525f918401906040840190835b818110156120b65783516001600160a01b031683526020938401939092019160010161208f565b509095945050505050565b5f602082840312156120d1575f5ffd5b611d5b82612030565b5f602082840312156120ea575f5ffd5b815160ff81168114611d5b575f5ffd5b6001600160a01b0392831681529116602082015260400190565b5f60208284031215612124575f5ffd5b81518015158114611d5b575f5ffd5b634e487b7160e01b5f52602160045260245ffd5b602081016002831061216757634e487b7160e01b5f52602160045260245ffd5b91905290565b634e487b7160e01b5f52604160045260245ffd5b805161203e81611f81565b5f6020828403121561219c575f5ffd5b81516001600160401b038111156121b1575f5ffd5b8201601f810184136121c1575f5ffd5b80516001600160401b038111156121da576121da61216d565b604051600582901b90603f8201601f191681016001600160401b03811182821017156122085761220861216d565b604052918252602081840181019290810187841115612225575f5ffd5b6020850194505b8385101561224b5761223d85612181565b81526020948501940161222c565b509695505050505050565b634e487b7160e01b5f52603260045260245ffd5b5f6020828403121561227a575f5ffd5b815160048110611d5b575f5ffd5b5f60208284031215612298575f5ffd5b815160058110611d5b575f5ffd5b81810381811115610a4357634e487b7160e01b5f52601160045260245ffd5b634e487b7160e01b5f52603160045260245ffdfea264697066735822122000cde3efa6ee09bc844b4e5c31c3c236f72a52e65e58177ecb5e3650f125a15c64736f6c634300081c0033",
  "linkReferences": {},
  "deployedLinkReferences": {}
}