{
  "_format": "hh-sol-artifact-1",
  "contractName": "OrionConfig",
  "sourceName": "contracts/OrionConfig.sol",
  "abi": [
    {
      "inputs": [
        {
          "internalType": "address",
          "name": "initialOwner",
          "type": "address"
        },
        {
          "internalType": "address",
          "name": "admin_",
          "type": "address"
        },
        {
          "internalType": "address",
          "name": "underlyingAsset_",
          "type": "address"
        }
      ],
      "stateMutability": "nonpayable",
      "type": "constructor"
    },
    {
      "inputs": [],
      "name": "AlreadyRegistered",
      "type": "error"
    },
    {
      "inputs": [],
      "name": "InvalidAddress",
      "type": "error"
    },
    {
      "inputs": [],
      "name": "InvalidArguments",
      "type": "error"
    },
    {
      "inputs": [],
      "name": "NotAuthorized",
      "type": "error"
    },
    {
      "inputs": [
        {
          "internalType": "address",
          "name": "owner",
          "type": "address"
        }
      ],
      "name": "OwnableInvalidOwner",
      "type": "error"
    },
    {
      "inputs": [
        {
          "internalType": "address",
          "name": "account",
          "type": "address"
        }
      ],
      "name": "OwnableUnauthorizedAccount",
      "type": "error"
    },
    {
      "inputs": [],
      "name": "SystemNotIdle",
      "type": "error"
    },
    {
      "inputs": [
        {
          "internalType": "address",
          "name": "token",
          "type": "address"
        }
      ],
      "name": "TokenNotWhitelisted",
      "type": "error"
    },
    {
      "inputs": [],
      "name": "ZeroAddress",
      "type": "error"
    },
    {
      "anonymous": false,
      "inputs": [
        {
          "indexed": true,
          "internalType": "uint256",
          "name": "newCooldownDuration",
          "type": "uint256"
        }
      ],
      "name": "FeeChangeCooldownDurationUpdated",
      "type": "event"
    },
    {
      "anonymous": false,
      "inputs": [
        {
          "indexed": true,
          "internalType": "address",
          "name": "guardian",
          "type": "address"
        }
      ],
      "name": "GuardianUpdated",
      "type": "event"
    },
    {
      "anonymous": false,
      "inputs": [
        {
          "indexed": true,
          "internalType": "uint256",
          "name": "maxFulfillBatchSize",
          "type": "uint256"
        }
      ],
      "name": "MaxFulfillBatchSizeUpdated",
      "type": "event"
    },
    {
      "anonymous": false,
      "inputs": [
        {
          "indexed": true,
          "internalType": "uint256",
          "name": "minDepositAmount",
          "type": "uint256"
        }
      ],
      "name": "MinDepositAmountUpdated",
      "type": "event"
    },
    {
      "anonymous": false,
      "inputs": [
        {
          "indexed": true,
          "internalType": "uint256",
          "name": "minRedeemAmount",
          "type": "uint256"
        }
      ],
      "name": "MinRedeemAmountUpdated",
      "type": "event"
    },
    {
      "anonymous": false,
      "inputs": [
        {
          "indexed": true,
          "internalType": "address",
          "name": "vault",
          "type": "address"
        }
      ],
      "name": "OrionVaultAdded",
      "type": "event"
    },
    {
      "anonymous": false,
      "inputs": [
        {
          "indexed": true,
          "internalType": "address",
          "name": "previousOwner",
          "type": "address"
        },
        {
          "indexed": true,
          "internalType": "address",
          "name": "newOwner",
          "type": "address"
        }
      ],
      "name": "OwnershipTransferStarted",
      "type": "event"
    },
    {
      "anonymous": false,
      "inputs": [
        {
          "indexed": true,
          "internalType": "address",
          "name": "previousOwner",
          "type": "address"
        },
        {
          "indexed": true,
          "internalType": "address",
          "name": "newOwner",
          "type": "address"
        }
      ],
      "name": "OwnershipTransferred",
      "type": "event"
    },
    {
      "anonymous": false,
      "inputs": [
        {
          "indexed": true,
          "internalType": "address",
          "name": "pauser",
          "type": "address"
        }
      ],
      "name": "ProtocolPaused",
      "type": "event"
    },
    {
      "anonymous": false,
      "inputs": [
        {
          "indexed": true,
          "internalType": "address",
          "name": "unpauser",
          "type": "address"
        }
      ],
      "name": "ProtocolUnpaused",
      "type": "event"
    },
    {
      "anonymous": false,
      "inputs": [
        {
          "indexed": true,
          "internalType": "uint16",
          "name": "riskFreeRate",
          "type": "uint16"
        }
      ],
      "name": "RiskFreeRateUpdated",
      "type": "event"
    },
    {
      "anonymous": false,
      "inputs": [
        {
          "indexed": true,
          "internalType": "address",
          "name": "vaultOwner",
          "type": "address"
        }
      ],
      "name": "VaultOwnerRemoved",
      "type": "event"
    },
    {
      "anonymous": false,
      "inputs": [
        {
          "indexed": true,
          "internalType": "address",
          "name": "asset",
          "type": "address"
        }
      ],
      "name": "WhitelistedAssetAdded",
      "type": "event"
    },
    {
      "anonymous": false,
      "inputs": [
        {
          "indexed": true,
          "internalType": "address",
          "name": "asset",
          "type": "address"
        }
      ],
      "name": "WhitelistedAssetRemoved",
      "type": "event"
    },
    {
      "inputs": [],
      "name": "MAX_RISK_FREE_RATE",
      "outputs": [
        {
          "internalType": "uint16",
          "name": "",
          "type": "uint16"
        }
      ],
      "stateMutability": "view",
      "type": "function"
    },
    {
      "inputs": [],
      "name": "acceptOwnership",
      "outputs": [],
      "stateMutability": "nonpayable",
      "type": "function"
    },
    {
      "inputs": [
        {
          "internalType": "address",
          "name": "vault",
          "type": "address"
        },
        {
          "internalType": "enum EventsLib.VaultType",
          "name": "vaultType",
          "type": "uint8"
        }
      ],
      "name": "addOrionVault",
      "outputs": [],
      "stateMutability": "nonpayable",
      "type": "function"
    },
    {
      "inputs": [
        {
          "internalType": "address",
          "name": "asset",
          "type": "address"
        },
        {
          "internalType": "address",
          "name": "priceAdapter",
          "type": "address"
        },
        {
          "internalType": "address",
          "name": "executionAdapter",
          "type": "address"
        }
      ],
      "name": "addWhitelistedAsset",
      "outputs": [],
      "stateMutability": "nonpayable",
      "type": "function"
    },
    {
      "inputs": [
        {
          "internalType": "address",
          "name": "curator",
          "type": "address"
        }
      ],
      "name": "addWhitelistedCurator",
      "outputs": [],
      "stateMutability": "nonpayable",
      "type": "function"
    },
    {
      "inputs": [
        {
          "internalType": "address",
          "name": "vaultOwner",
          "type": "address"
        }
      ],
      "name": "addWhitelistedVaultOwner",
      "outputs": [],
      "stateMutability": "nonpayable",
      "type": "function"
    },
    {
      "inputs": [],
      "name": "admin",
      "outputs": [
        {
          "internalType": "address",
          "name": "",
          "type": "address"
        }
      ],
      "stateMutability": "view",
      "type": "function"
    },
    {
      "inputs": [
        {
          "internalType": "address",
          "name": "vault",
          "type": "address"
        }
      ],
      "name": "completeVaultDecommissioning",
      "outputs": [],
      "stateMutability": "nonpayable",
      "type": "function"
    },
    {
      "inputs": [],
      "name": "curatorIntentDecimals",
      "outputs": [
        {
          "internalType": "uint8",
          "name": "",
          "type": "uint8"
        }
      ],
      "stateMutability": "view",
      "type": "function"
    },
    {
      "inputs": [],
      "name": "feeChangeCooldownDuration",
      "outputs": [
        {
          "internalType": "uint256",
          "name": "",
          "type": "uint256"
        }
      ],
      "stateMutability": "view",
      "type": "function"
    },
    {
      "inputs": [
        {
          "internalType": "enum EventsLib.VaultType",
          "name": "vaultType",
          "type": "uint8"
        }
      ],
      "name": "getAllOrionVaults",
      "outputs": [
        {
          "internalType": "address[]",
          "name": "",
          "type": "address[]"
        }
      ],
      "stateMutability": "view",
      "type": "function"
    },
    {
      "inputs": [],
      "name": "getAllWhitelistedAssets",
      "outputs": [
        {
          "internalType": "address[]",
          "name": "assets",
          "type": "address[]"
        }
      ],
      "stateMutability": "view",
      "type": "function"
    },
    {
      "inputs": [
        {
          "internalType": "address",
          "name": "token",
          "type": "address"
        }
      ],
      "name": "getTokenDecimals",
      "outputs": [
        {
          "internalType": "uint8",
          "name": "",
          "type": "uint8"
        }
      ],
      "stateMutability": "view",
      "type": "function"
    },
    {
      "inputs": [],
      "name": "guardian",
      "outputs": [
        {
          "internalType": "address",
          "name": "",
          "type": "address"
        }
      ],
      "stateMutability": "view",
      "type": "function"
    },
    {
      "inputs": [],
      "name": "internalStatesOrchestrator",
      "outputs": [
        {
          "internalType": "address",
          "name": "",
          "type": "address"
        }
      ],
      "stateMutability": "view",
      "type": "function"
    },
    {
      "inputs": [
        {
          "internalType": "address",
          "name": "vault",
          "type": "address"
        }
      ],
      "name": "isDecommissionedVault",
      "outputs": [
        {
          "internalType": "bool",
          "name": "",
          "type": "bool"
        }
      ],
      "stateMutability": "view",
      "type": "function"
    },
    {
      "inputs": [
        {
          "internalType": "address",
          "name": "vault",
          "type": "address"
        }
      ],
      "name": "isDecommissioningVault",
      "outputs": [
        {
          "internalType": "bool",
          "name": "",
          "type": "bool"
        }
      ],
      "stateMutability": "view",
      "type": "function"
    },
    {
      "inputs": [
        {
          "internalType": "address",
          "name": "vault",
          "type": "address"
        }
      ],
      "name": "isOrionVault",
      "outputs": [
        {
          "internalType": "bool",
          "name": "",
          "type": "bool"
        }
      ],
      "stateMutability": "view",
      "type": "function"
    },
    {
      "inputs": [],
      "name": "isSystemIdle",
      "outputs": [
        {
          "internalType": "bool",
          "name": "",
          "type": "bool"
        }
      ],
      "stateMutability": "view",
      "type": "function"
    },
    {
      "inputs": [
        {
          "internalType": "address",
          "name": "asset",
          "type": "address"
        }
      ],
      "name": "isWhitelisted",
      "outputs": [
        {
          "internalType": "bool",
          "name": "",
          "type": "bool"
        }
      ],
      "stateMutability": "view",
      "type": "function"
    },
    {
      "inputs": [
        {
          "internalType": "address",
          "name": "curator",
          "type": "address"
        }
      ],
      "name": "isWhitelistedCurator",
      "outputs": [
        {
          "internalType": "bool",
          "name": "",
          "type": "bool"
        }
      ],
      "stateMutability": "view",
      "type": "function"
    },
    {
      "inputs": [
        {
          "internalType": "address",
          "name": "vaultOwner",
          "type": "address"
        }
      ],
      "name": "isWhitelistedVaultOwner",
      "outputs": [
        {
          "internalType": "bool",
          "name": "",
          "type": "bool"
        }
      ],
      "stateMutability": "view",
      "type": "function"
    },
    {
      "inputs": [],
      "name": "liquidityOrchestrator",
      "outputs": [
        {
          "internalType": "address",
          "name": "",
          "type": "address"
        }
      ],
      "stateMutability": "view",
      "type": "function"
    },
    {
      "inputs": [],
      "name": "maxFulfillBatchSize",
      "outputs": [
        {
          "internalType": "uint256",
          "name": "",
          "type": "uint256"
        }
      ],
      "stateMutability": "view",
      "type": "function"
    },
    {
      "inputs": [],
      "name": "minDepositAmount",
      "outputs": [
        {
          "internalType": "uint256",
          "name": "",
          "type": "uint256"
        }
      ],
      "stateMutability": "view",
      "type": "function"
    },
    {
      "inputs": [],
      "name": "minRedeemAmount",
      "outputs": [
        {
          "internalType": "uint256",
          "name": "",
          "type": "uint256"
        }
      ],
      "stateMutability": "view",
      "type": "function"
    },
    {
      "inputs": [],
      "name": "owner",
      "outputs": [
        {
          "internalType": "address",
          "name": "",
          "type": "address"
        }
      ],
      "stateMutability": "view",
      "type": "function"
    },
    {
      "inputs": [],
      "name": "pauseAll",
      "outputs": [],
      "stateMutability": "nonpayable",
      "type": "function"
    },
    {
      "inputs": [],
      "name": "pendingOwner",
      "outputs": [
        {
          "internalType": "address",
          "name": "",
          "type": "address"
        }
      ],
      "stateMutability": "view",
      "type": "function"
    },
    {
      "inputs": [],
      "name": "priceAdapterDecimals",
      "outputs": [
        {
          "internalType": "uint8",
          "name": "",
          "type": "uint8"
        }
      ],
      "stateMutability": "view",
      "type": "function"
    },
    {
      "inputs": [],
      "name": "priceAdapterRegistry",
      "outputs": [
        {
          "internalType": "address",
          "name": "",
          "type": "address"
        }
      ],
      "stateMutability": "view",
      "type": "function"
    },
    {
      "inputs": [
        {
          "internalType": "address",
          "name": "vault",
          "type": "address"
        }
      ],
      "name": "removeOrionVault",
      "outputs": [],
      "stateMutability": "nonpayable",
      "type": "function"
    },
    {
      "inputs": [
        {
          "internalType": "address",
          "name": "asset",
          "type": "address"
        }
      ],
      "name": "removeWhitelistedAsset",
      "outputs": [],
      "stateMutability": "nonpayable",
      "type": "function"
    },
    {
      "inputs": [
        {
          "internalType": "address",
          "name": "curator",
          "type": "address"
        }
      ],
      "name": "removeWhitelistedCurator",
      "outputs": [],
      "stateMutability": "nonpayable",
      "type": "function"
    },
    {
      "inputs": [
        {
          "internalType": "address",
          "name": "vaultOwner",
          "type": "address"
        }
      ],
      "name": "removeWhitelistedVaultOwner",
      "outputs": [],
      "stateMutability": "nonpayable",
      "type": "function"
    },
    {
      "inputs": [],
      "name": "renounceOwnership",
      "outputs": [],
      "stateMutability": "nonpayable",
      "type": "function"
    },
    {
      "inputs": [],
      "name": "riskFreeRate",
      "outputs": [
        {
          "internalType": "uint16",
          "name": "",
          "type": "uint16"
        }
      ],
      "stateMutability": "view",
      "type": "function"
    },
    {
      "inputs": [
        {
          "internalType": "uint256",
          "name": "duration",
          "type": "uint256"
        }
      ],
      "name": "setFeeChangeCooldownDuration",
      "outputs": [],
      "stateMutability": "nonpayable",
      "type": "function"
    },
    {
      "inputs": [
        {
          "internalType": "address",
          "name": "_guardian",
          "type": "address"
        }
      ],
      "name": "setGuardian",
      "outputs": [],
      "stateMutability": "nonpayable",
      "type": "function"
    },
    {
      "inputs": [
        {
          "internalType": "address",
          "name": "orchestrator",
          "type": "address"
        }
      ],
      "name": "setInternalStatesOrchestrator",
      "outputs": [],
      "stateMutability": "nonpayable",
      "type": "function"
    },
    {
      "inputs": [
        {
          "internalType": "address",
          "name": "orchestrator",
          "type": "address"
        }
      ],
      "name": "setLiquidityOrchestrator",
      "outputs": [],
      "stateMutability": "nonpayable",
      "type": "function"
    },
    {
      "inputs": [
        {
          "internalType": "uint256",
          "name": "size",
          "type": "uint256"
        }
      ],
      "name": "setMaxFulfillBatchSize",
      "outputs": [],
      "stateMutability": "nonpayable",
      "type": "function"
    },
    {
      "inputs": [
        {
          "internalType": "uint256",
          "name": "amount",
          "type": "uint256"
        }
      ],
      "name": "setMinDepositAmount",
      "outputs": [],
      "stateMutability": "nonpayable",
      "type": "function"
    },
    {
      "inputs": [
        {
          "internalType": "uint256",
          "name": "amount",
          "type": "uint256"
        }
      ],
      "name": "setMinRedeemAmount",
      "outputs": [],
      "stateMutability": "nonpayable",
      "type": "function"
    },
    {
      "inputs": [
        {
          "internalType": "address",
          "name": "registry",
          "type": "address"
        }
      ],
      "name": "setPriceAdapterRegistry",
      "outputs": [],
      "stateMutability": "nonpayable",
      "type": "function"
    },
    {
      "inputs": [
        {
          "internalType": "uint16",
          "name": "_riskFreeRate",
          "type": "uint16"
        }
      ],
      "name": "setProtocolRiskFreeRate",
      "outputs": [],
      "stateMutability": "nonpayable",
      "type": "function"
    },
    {
      "inputs": [
        {
          "internalType": "address",
          "name": "transparentFactory",
          "type": "address"
        }
      ],
      "name": "setVaultFactory",
      "outputs": [],
      "stateMutability": "nonpayable",
      "type": "function"
    },
    {
      "inputs": [
        {
          "internalType": "address",
          "name": "",
          "type": "address"
        }
      ],
      "name": "tokenDecimals",
      "outputs": [
        {
          "internalType": "uint8",
          "name": "",
          "type": "uint8"
        }
      ],
      "stateMutability": "view",
      "type": "function"
    },
    {
      "inputs": [
        {
          "internalType": "address",
          "name": "newOwner",
          "type": "address"
        }
      ],
      "name": "transferOwnership",
      "outputs": [],
      "stateMutability": "nonpayable",
      "type": "function"
    },
    {
      "inputs": [],
      "name": "transparentVaultFactory",
      "outputs": [
        {
          "internalType": "address",
          "name": "",
          "type": "address"
        }
      ],
      "stateMutability": "view",
      "type": "function"
    },
    {
      "inputs": [],
      "name": "underlyingAsset",
      "outputs": [
        {
          "internalType": "contract IERC20",
          "name": "",
          "type": "address"
        }
      ],
      "stateMutability": "view",
      "type": "function"
    },
    {
      "inputs": [],
      "name": "unpauseAll",
      "outputs": [],
      "stateMutability": "nonpayable",
      "type": "function"
    },
    {
      "inputs": [],
      "name": "whitelistedAssetsLength",
      "outputs": [
        {
          "internalType": "uint16",
          "name": "",
          "type": "uint16"
        }
      ],
      "stateMutability": "view",
      "type": "function"
    }
  ],
  "bytecode": "0x60a060405234801561000f575f5ffd5b506040516126d23803806126d283398101604081905261002e9161029a565b826001600160a01b03811661005c57604051631e4fbdf760e01b81525f600482015260240160405180910390fd5b610065816101ab565b506001600160a01b03821661008d5760405163d92e233d60e01b815260040160405180910390fd5b6001600160a01b0381166100b45760405163d92e233d60e01b815260040160405180910390fd5b6001600160a01b03828116608052600380546001600160a01b03191691831691821790556007805461ffff60a01b1916610e0960a01b17905562093a80600a556096600b556040805163313ce56760e01b8152905163313ce567916004808201926020929091908290030181865afa158015610132573d5f5f3e3d5ffd5b505050506040513d601f19601f8201168201806040525081019061015691906102da565b6001600160a01b0382165f908152601260205260409020805460ff191660ff9290921691909117905561018a600c826101c7565b50610196600e846101c7565b506101a26010846101c7565b50505050610301565b600180546001600160a01b03191690556101c4816101e4565b50565b5f6101db836001600160a01b038416610233565b90505b92915050565b5f80546001600160a01b038381166001600160a01b0319831681178455604051919092169283917f8be0079c531659141344cd1fd0a4f28419497f9722a3daafe3b4186f6b6457e09190a35050565b5f81815260018301602052604081205461027857508154600181810184555f8481526020808220909301849055845484825282860190935260409020919091556101de565b505f6101de565b80516001600160a01b0381168114610295575f5ffd5b919050565b5f5f5f606084860312156102ac575f5ffd5b6102b58461027f565b92506102c36020850161027f565b91506102d16040850161027f565b90509250925092565b5f602082840312156102ea575f5ffd5b815160ff811681146102fa575f5ffd5b9392505050565b60805161239661033c5f395f818161064801528181610bef0152818161137c015281816114d20152818161156401526116a001526123965ff3fe608060405234801561000f575f5ffd5b5060043610610265575f3560e01c8063015df993146102695780630912ae6d146102925780630a8b78c7146102a95780632095b01e146102be57806323a06a1c146102d15780632a80cda3146102e45780632b1a3a8b146102f7578063348ec5c81461030a5780633a0dad8e1461031d5780633af32abf146103305780633e3679d3146103535780633ea7fbdb14610366578063452a93201461037957806355fba94e1461038c578063567ba7131461039f578063595c6a67146103c55780635f248368146103cd578063645006ca146103e857806366e87e7f146103f15780636f8d52b8146104045780636f9f4ee71461040d578063715018a6146104205780637158da7c14610428578063785c7cf61461043b57806379ba5097146104665780637a0cb7841461046e57806381408ce514610481578063849ede2314610494578063862a5f06146104a75780638771de87146104ba5780638a0dac4a146104cd5780638a2ddd03146104e05780638da5cb5b146104e85780638ee573ac146104f0578063b6dfcd8b14610512578063ba96866614610525578063bcdb8a1814610538578063c047417c14610541578063c30dd72714610554578063d11f1c3514610567578063d1717c7d1461057a578063d5460ab51461058e578063d86cd44e14610597578063e0876b44146105ac578063e30c3978146105bf578063e8ffccb7146105c7578063ed04f218146105da578063edcf9c1f146105ed578063f05e5d4c146105f5578063f2fde38b14610608578063f3cc69931461061b578063f764eb4514610630578063f851a44014610643575b5f5ffd5b60075461027c906001600160a01b031681565b6040516102899190611fd9565b60405180910390f35b61029b60095481565b604051908152602001610289565b6102bc6102b7366004612001565b61066a565b005b6102bc6102cc366004612001565b6106e5565b6102bc6102df36600461201c565b610760565b6102bc6102f2366004612064565b610933565b6102bc610305366004612001565b6109b2565b60045461027c906001600160a01b031681565b60055461027c906001600160a01b031681565b61034361033e366004612001565b610a69565b6040519015158152602001610289565b6102bc610361366004612064565b610a7b565b6102bc610374366004612001565b610afa565b60025461027c906001600160a01b031681565b6102bc61039a366004612001565b610b9a565b6007546103b390600160a81b900460ff1681565b60405160ff9091168152602001610289565b6102bc610bce565b6103d5610d15565b60405161ffff9091168152602001610289565b61029b60085481565b6102bc6103ff36600461207b565b610d25565b61029b600a5481565b6102bc61041b366004612064565b610dc9565b6102bc610e48565b60035461027c906001600160a01b031681565b6103b3610449366004612001565b6001600160a01b03165f9081526012602052604090205460ff1690565b6102bc610e5b565b6102bc61047c3660046120af565b610ea3565b6102bc61048f366004612001565b610f85565b60065461027c906001600160a01b031681565b6102bc6104b5366004612001565b611371565b6103436104c8366004612001565b6114bb565b6102bc6104db366004612001565b6114c7565b6102bc611559565b61027c611687565b6103b36104fe366004612001565b60126020525f908152604090205460ff1681565b6102bc610520366004612001565b611695565b6102bc610533366004612064565b61188e565b61029b600b5481565b6102bc61054f366004612001565b6118ed565b6102bc610562366004612001565b611901565b610343610575366004612001565b61197c565b6007546103b390600160a01b900460ff1681565b6103d561032081565b61059f611988565b60405161028991906120e2565b6103436105ba366004612001565b611a3b565b61027c611a58565b6102bc6105d5366004612001565b611a67565b61059f6105e836600461212d565b611b17565b610343611bf3565b610343610603366004612001565b611d03565b6102bc610616366004612001565b611d0f565b6007546103d590600160b01b900461ffff1681565b61034361063e366004612001565b611d75565b61027c7f000000000000000000000000000000000000000000000000000000000000000081565b610672611d81565b6001600160a01b0381166106995760405163d92e233d60e01b815260040160405180910390fd5b6004546001600160a01b0316156106c357604051630ea075bf60e21b815260040160405180910390fd5b600480546001600160a01b0319166001600160a01b0392909216919091179055565b6106ed611d81565b6001600160a01b0381166107145760405163d92e233d60e01b815260040160405180910390fd5b6007546001600160a01b03161561073e57604051630ea075bf60e21b815260040160405180910390fd5b600780546001600160a01b0319166001600160a01b0392909216919091179055565b610768611d81565b610770611bf3565b61078d576040516312aecd8160e01b815260040160405180910390fd5b5f610799600c85611db3565b9050806107b957604051630ea075bf60e21b815260040160405180910390fd5b836001600160a01b031663313ce5676040518163ffffffff1660e01b8152600401602060405180830381865afa1580156107f5573d5f5f3e3d5ffd5b505050506040513d601f19601f820116820180604052508101906108199190612146565b6001600160a01b038581165f9081526012602052604090819020805460ff191660ff949094169390931790925560075491516302707eef60e51b8152911690634e0fdde09061086e9087908790600401612166565b5f604051808303815f87803b158015610885575f5ffd5b505af1158015610897573d5f5f3e3d5ffd5b50506005546040516359017aa960e01b81526001600160a01b0390911692506359017aa991506108cd9087908690600401612166565b5f604051808303815f87803b1580156108e4575f5ffd5b505af11580156108f6573d5f5f3e3d5ffd5b50506040516001600160a01b03871692507fdcbd8d9d0373041250f6c25b6b7aeccb3e9ff291e510ef85bb9f8ac09ceb6f6491505f90a250505050565b61093b611d81565b610943611bf3565b610960576040516312aecd8160e01b815260040160405180910390fd5b805f03610980576040516317dbc4cb60e21b815260040160405180910390fd5b600881905560405181907fb443c8bd39a1b60d415144f9148c6f90c2b68a553eb90c62cef5e44979db009d905f90a250565b6109ba611d81565b604051633c17975360e21b8152309063f05e5d4c906109dd908490600401611fd9565b602060405180830381865afa1580156109f8573d5f5f3e3d5ffd5b505050506040513d601f19601f82011682018060405250810190610a1c9190612180565b610a395760405163e6c4247b60e01b815260040160405180910390fd5b5f610a45601083611dce565b905080610a655760405163e6c4247b60e01b815260040160405180910390fd5b5050565b5f610a75600c83611de2565b92915050565b610a83611d81565b610a8b611bf3565b610aa8576040516312aecd8160e01b815260040160405180910390fd5b805f03610ac8576040516317dbc4cb60e21b815260040160405180910390fd5b600981905560405181907fae6971e30edc181eba4e21b6f0d1238924e807e69aa92f89401c1a836dd71547905f90a250565b610b02611d81565b610b0a611bf3565b610b27576040516312aecd8160e01b815260040160405180910390fd5b6001600160a01b038116610b4e5760405163d92e233d60e01b815260040160405180910390fd5b6006546001600160a01b031615610b7857604051630ea075bf60e21b815260040160405180910390fd5b600680546001600160a01b0319166001600160a01b0392909216919091179055565b610ba2611d81565b5f610bae600e83611db3565b905080610a6557604051630ea075bf60e21b815260040160405180910390fd5b6002546001600160a01b03163314801590610c125750336001600160a01b037f00000000000000000000000000000000000000000000000000000000000000001614155b15610c305760405163ea8e4eb560e01b815260040160405180910390fd5b6004805460408051638456cb5960e01b815290516001600160a01b0390921692638456cb5992828201925f929082900301818387803b158015610c71575f5ffd5b505af1158015610c83573d5f5f3e3d5ffd5b5050505060055f9054906101000a90046001600160a01b03166001600160a01b0316638456cb596040518163ffffffff1660e01b81526004015f604051808303815f87803b158015610cd3575f5ffd5b505af1158015610ce5573d5f5f3e3d5ffd5b50506040513392507f3fb8cabbd30f03312e3221b5b1c7ce132ca5d72cf36143a1d6d33b11ad4eba2491505f90a2565b5f610d20600c611df6565b905090565b610d2d611d81565b610d35611bf3565b610d52576040516312aecd8160e01b815260040160405180910390fd5b61032061ffff82161115610d79576040516317dbc4cb60e21b815260040160405180910390fd5b6007805461ffff60b01b1916600160b01b61ffff84811682029290921792839055604051920416907f6c0e50288cc602be5dd504ce35358e01341e3c4f93e2e02b5a030a59bfdb84e2905f90a250565b610dd1611d81565b610dd9611bf3565b610df6576040516312aecd8160e01b815260040160405180910390fd5b805f03610e16576040516317dbc4cb60e21b815260040160405180910390fd5b600b81905560405181907f33fdf3f87d7aca2f3fda0e9e480f611002f0ec96579de87d9109ef45c5be0fa2905f90a250565b610e50611d81565b610e595f611dff565b565b3380610e65611a58565b6001600160a01b031614610e97578060405163118cdaa760e01b8152600401610e8e9190611fd9565b60405180910390fd5b610ea081611dff565b50565b6006546001600160a01b03163314610ece5760405163ea8e4eb560e01b815260040160405180910390fd5b6001600160a01b038216610ef55760405163d92e233d60e01b815260040160405180910390fd5b5f6001826001811115610f0a57610f0a61219f565b03610f2157610f1a601584611db3565b9050610f2f565b610f2c601384611db3565b90505b80610f4d57604051630ea075bf60e21b815260040160405180910390fd5b6040516001600160a01b038416907f9a7094a648c0524f3d62b9167886d30be0e68cf53863fe556edda348f189445a905f90a2505050565b610f8d611d81565b604051638771de8760e01b81523090638771de8790610fb0908490600401611fd9565b602060405180830381865afa158015610fcb573d5f5f3e3d5ffd5b505050506040513d601f19601f82011682018060405250810190610fef9190612180565b61100c5760405163e6c4247b60e01b815260040160405180910390fd5b611014611bf3565b611031576040516312aecd8160e01b815260040160405180910390fd5b604051631da09e4360e31b81525f90309063ed04f218906110569084906004016121b3565b5f60405180830381865afa158015611070573d5f5f3e3d5ffd5b505050506040513d5f823e601f3d908101601f1916820160405261109791908101906121f8565b90505f5b815181101561119d575f8282815181106110b7576110b76122c2565b60200260200101519050836001600160a01b0316816001600160a01b0316631f52692b6040518163ffffffff1660e01b8152600401602060405180830381865afa158015611107573d5f5f3e3d5ffd5b505050506040513d601f19601f8201168201806040525081019061112b91906122d6565b6001600160a01b03160361119457611144601782611db3565b50806001600160a01b031663ca78e8396040518163ffffffff1660e01b81526004015f604051808303815f87803b15801561117d575f5ffd5b505af115801561118f573d5f5f3e3d5ffd5b505050505b5060010161109b565b50604051631da09e4360e31b81525f90309063ed04f218906111c4906001906004016121b3565b5f60405180830381865afa1580156111de573d5f5f3e3d5ffd5b505050506040513d5f823e601f3d908101601f1916820160405261120591908101906121f8565b90505f5b815181101561130b575f828281518110611225576112256122c2565b60200260200101519050846001600160a01b0316816001600160a01b0316631f52692b6040518163ffffffff1660e01b8152600401602060405180830381865afa158015611275573d5f5f3e3d5ffd5b505050506040513d601f19601f8201168201806040525081019061129991906122d6565b6001600160a01b031603611302576112b2601782611db3565b50806001600160a01b031663ca78e8396040518163ffffffff1660e01b81526004015f604051808303815f87803b1580156112eb575f5ffd5b505af11580156112fd573d5f5f3e3d5ffd5b505050505b50600101611209565b505f611318600e85611dce565b9050806113385760405163e6c4247b60e01b815260040160405180910390fd5b6040516001600160a01b038516907f34c278c4f57f7db1b04d9e9c8a808becaae0effac5903a160607310c7c90f160905f90a250505050565b336001600160a01b037f000000000000000000000000000000000000000000000000000000000000000016146113ba5760405163ea8e4eb560e01b815260040160405180910390fd5b6113c2611bf3565b6113df576040516312aecd8160e01b815260040160405180910390fd5b604051633821dad160e21b8152309063e0876b4490611402908490600401611fd9565b602060405180830381865afa15801561141d573d5f5f3e3d5ffd5b505050506040513d601f19601f820116820180604052508101906114419190612180565b61145e5760405163e6c4247b60e01b815260040160405180910390fd5b611469601782611db3565b50806001600160a01b031663ca78e8396040518163ffffffff1660e01b81526004015f604051808303815f87803b1580156114a2575f5ffd5b505af11580156114b4573d5f5f3e3d5ffd5b5050505050565b5f610a75600e83611de2565b336001600160a01b037f000000000000000000000000000000000000000000000000000000000000000016146115105760405163ea8e4eb560e01b815260040160405180910390fd5b600280546001600160a01b0319166001600160a01b0383169081179091556040517f6bb7ff33e730289800c62ad882105a144a74010d2bdbb9a942544a3005ad55bf905f90a250565b336001600160a01b037f000000000000000000000000000000000000000000000000000000000000000016146115a25760405163ea8e4eb560e01b815260040160405180910390fd5b6004805460408051631fa5d41d60e11b815290516001600160a01b0390921692633f4ba83a92828201925f929082900301818387803b1580156115e3575f5ffd5b505af11580156115f5573d5f5f3e3d5ffd5b5050505060055f9054906101000a90046001600160a01b03166001600160a01b0316633f4ba83a6040518163ffffffff1660e01b81526004015f604051808303815f87803b158015611645575f5ffd5b505af1158015611657573d5f5f3e3d5ffd5b50506040513392507f2d553fb579456929d17c4cf0dc43b2f2e8e5a8f917cadcc8a5f18e9c4010b75a91505f90a2565b5f546001600160a01b031690565b336001600160a01b037f000000000000000000000000000000000000000000000000000000000000000016146116de5760405163ea8e4eb560e01b815260040160405180910390fd5b6116e6611bf3565b611703576040516312aecd8160e01b815260040160405180910390fd5b6003546001600160a01b0390811690821603611732576040516317dbc4cb60e21b815260040160405180910390fd5b5f61173e600c83611dce565b905080611760578160405163751dff9760e11b8152600401610e8e9190611fd9565b604051631da09e4360e31b81525f90309063ed04f218906117859084906004016121b3565b5f60405180830381865afa15801561179f573d5f5f3e3d5ffd5b505050506040513d5f823e601f3d908101601f191682016040526117c691908101906121f8565b90505f5b8151811015611855575f8282815181106117e6576117e66122c2565b60200260200101519050806001600160a01b031663e3352c4c866040518263ffffffff1660e01b815260040161181c9190611fd9565b5f604051808303815f87803b158015611833575f5ffd5b505af1158015611845573d5f5f3e3d5ffd5b50505050508060010190506117ca565b506040516001600160a01b038416907f952363a786fc6f24cfb955cd6207cf91ecee3a82a7dd0bc26891ff7647b5784c905f90a2505050565b611896611d81565b61189e611bf3565b6118bb576040516312aecd8160e01b815260040160405180910390fd5b600a81905560405181907f0c525cc53958dcc2098f744df69dfeeb06316aeeca301ec2d5c5d4518e35f98a905f90a250565b6118f5611d81565b5f610bae601083611db3565b611909611d81565b6001600160a01b0381166119305760405163d92e233d60e01b815260040160405180910390fd5b6005546001600160a01b03161561195a57604051630ea075bf60e21b815260040160405180910390fd5b600580546001600160a01b0319166001600160a01b0392909216919091179055565b5f610a75601783611de2565b60605f611995600c611df6565b90508061ffff166001600160401b038111156119b3576119b36121d9565b6040519080825280602002602001820160405280156119dc578160200160208202803683370190505b5091505f5b8161ffff168161ffff161015611a3657611a00600c61ffff8316611e18565b838261ffff1681518110611a1657611a166122c2565b6001600160a01b03909216602092830291909101909101526001016119e1565b505090565b5f611a47601583611de2565b80610a755750610a75601383611de2565b6001546001600160a01b031690565b6005546001600160a01b03163314611a925760405163ea8e4eb560e01b815260040160405180910390fd5b611a9d601782611de2565b611aba5760405163e6c4247b60e01b815260040160405180910390fd5b5f611ac6601583611dce565b905080611afb575f611ad9601384611dce565b905080611af95760405163e6c4247b60e01b815260040160405180910390fd5b505b611b06601783611dce565b50611b12601983611db3565b505050565b60605f6001836001811115611b2e57611b2e61219f565b14611b3a576013611b3d565b60155b90505f611b4982611df6565b90505f8161ffff166001600160401b03811115611b6857611b686121d9565b604051908082528060200260200182016040528015611b91578160200160208202803683370190505b5090505f5b8261ffff168161ffff161015611bea57611bb48461ffff8316611e18565b828261ffff1681518110611bca57611bca6122c2565b6001600160a01b0390921660209283029190910190910152600101611b96565b50949350505050565b5f8060055f9054906101000a90046001600160a01b03166001600160a01b031663055ad42e6040518163ffffffff1660e01b8152600401602060405180830381865afa158015611c45573d5f5f3e3d5ffd5b505050506040513d601f19601f82011682018060405250810190611c6991906122f1565b6003811115611c7a57611c7a61219f565b148015610d2057505f60048054604080516302ad6a1760e11b815290516001600160a01b039092169263055ad42e9282820192602092908290030181865afa158015611cc8573d5f5f3e3d5ffd5b505050506040513d601f19601f82011682018060405250810190611cec919061230f565b6004811115611cfd57611cfd61219f565b14905090565b5f610a75601083611de2565b611d17611d81565b600180546001600160a01b0319166001600160a01b038316908117909155611d3d611687565b6001600160a01b03167f38d16b8cac22d99fc7c124b9cd0de2d3fa1faef420bfe791d8c362d765e2270060405160405180910390a350565b5f610a75601983611de2565b33611d8a611687565b6001600160a01b031614610e59573360405163118cdaa760e01b8152600401610e8e9190611fd9565b5f611dc7836001600160a01b038416611e23565b9392505050565b5f611dc7836001600160a01b038416611e6a565b5f611dc7836001600160a01b038416611f4d565b5f610a75825490565b600180546001600160a01b0319169055610ea081611f64565b5f611dc78383611fb3565b5f611e2e8383611f4d565b611e6357508154600181810184555f848152602080822090930184905584548482528286019093526040902091909155610a75565b505f610a75565b5f8181526001830160205260408120548015611f44575f611e8c60018361232d565b85549091505f90611e9f9060019061232d565b9050808214611efe575f865f018281548110611ebd57611ebd6122c2565b905f5260205f200154905080875f018481548110611edd57611edd6122c2565b5f918252602080832090910192909255918252600188019052604090208390555b8554869080611f0f57611f0f61234c565b600190038181905f5260205f20015f90559055856001015f8681526020019081526020015f205f905560019350505050610a75565b5f915050610a75565b5f9081526001919091016020526040902054151590565b5f80546001600160a01b038381166001600160a01b0319831681178455604051919092169283917f8be0079c531659141344cd1fd0a4f28419497f9722a3daafe3b4186f6b6457e09190a35050565b5f825f018281548110611fc857611fc86122c2565b905f5260205f200154905092915050565b6001600160a01b0391909116815260200190565b6001600160a01b0381168114610ea0575f5ffd5b5f60208284031215612011575f5ffd5b8135611dc781611fed565b5f5f5f6060848603121561202e575f5ffd5b833561203981611fed565b9250602084013561204981611fed565b9150604084013561205981611fed565b809150509250925092565b5f60208284031215612074575f5ffd5b5035919050565b5f6020828403121561208b575f5ffd5b813561ffff81168114611dc7575f5ffd5b8035600281106120aa575f5ffd5b919050565b5f5f604083850312156120c0575f5ffd5b82356120cb81611fed565b91506120d96020840161209c565b90509250929050565b602080825282518282018190525f918401906040840190835b818110156121225783516001600160a01b03168352602093840193909201916001016120fb565b509095945050505050565b5f6020828403121561213d575f5ffd5b611dc78261209c565b5f60208284031215612156575f5ffd5b815160ff81168114611dc7575f5ffd5b6001600160a01b0392831681529116602082015260400190565b5f60208284031215612190575f5ffd5b81518015158114611dc7575f5ffd5b634e487b7160e01b5f52602160045260245ffd5b60208101600283106121d357634e487b7160e01b5f52602160045260245ffd5b91905290565b634e487b7160e01b5f52604160045260245ffd5b80516120aa81611fed565b5f60208284031215612208575f5ffd5b81516001600160401b0381111561221d575f5ffd5b8201601f8101841361222d575f5ffd5b80516001600160401b03811115612246576122466121d9565b604051600582901b90603f8201601f191681016001600160401b0381118282101715612274576122746121d9565b604052918252602081840181019290810187841115612291575f5ffd5b6020850194505b838510156122b7576122a9856121ed565b815260209485019401612298565b509695505050505050565b634e487b7160e01b5f52603260045260245ffd5b5f602082840312156122e6575f5ffd5b8151611dc781611fed565b5f60208284031215612301575f5ffd5b815160048110611dc7575f5ffd5b5f6020828403121561231f575f5ffd5b815160058110611dc7575f5ffd5b81810381811115610a7557634e487b7160e01b5f52601160045260245ffd5b634e487b7160e01b5f52603160045260245ffdfea2646970667358221220ff2a50139f674381604156d7a320dbc1bd4c115f3cb5cba1238b1173d357723464736f6c634300081c0033",
  "linkReferences": {},
  "deployedLinkReferences": {}
}