{
  "_format": "hh-sol-artifact-1",
  "contractName": "OrionConfig",
  "sourceName": "contracts/OrionConfig.sol",
  "abi": [
    {
      "inputs": [
        {
          "internalType": "address",
          "name": "target",
          "type": "address"
        }
      ],
      "name": "AddressEmptyCode",
      "type": "error"
    },
    {
      "inputs": [],
      "name": "AlreadyAnOrionVault",
      "type": "error"
    },
    {
      "inputs": [],
      "name": "AlreadyWhitelisted",
      "type": "error"
    },
    {
      "inputs": [
        {
          "internalType": "address",
          "name": "implementation",
          "type": "address"
        }
      ],
      "name": "ERC1967InvalidImplementation",
      "type": "error"
    },
    {
      "inputs": [],
      "name": "ERC1967NonPayable",
      "type": "error"
    },
    {
      "inputs": [],
      "name": "FailedCall",
      "type": "error"
    },
    {
      "inputs": [],
      "name": "InvalidAsset",
      "type": "error"
    },
    {
      "inputs": [],
      "name": "InvalidInitialization",
      "type": "error"
    },
    {
      "inputs": [],
      "name": "InvalidInternalOrchestrator",
      "type": "error"
    },
    {
      "inputs": [],
      "name": "InvalidLiquidityOrchestrator",
      "type": "error"
    },
    {
      "inputs": [],
      "name": "InvalidStatesDecimals",
      "type": "error"
    },
    {
      "inputs": [],
      "name": "NotAnOrionVault",
      "type": "error"
    },
    {
      "inputs": [],
      "name": "NotFactory",
      "type": "error"
    },
    {
      "inputs": [],
      "name": "NotInWhitelist",
      "type": "error"
    },
    {
      "inputs": [],
      "name": "NotInitializing",
      "type": "error"
    },
    {
      "inputs": [
        {
          "internalType": "address",
          "name": "owner",
          "type": "address"
        }
      ],
      "name": "OwnableInvalidOwner",
      "type": "error"
    },
    {
      "inputs": [
        {
          "internalType": "address",
          "name": "account",
          "type": "address"
        }
      ],
      "name": "OwnableUnauthorizedAccount",
      "type": "error"
    },
    {
      "inputs": [],
      "name": "UUPSUnauthorizedCallContext",
      "type": "error"
    },
    {
      "inputs": [
        {
          "internalType": "bytes32",
          "name": "slot",
          "type": "bytes32"
        }
      ],
      "name": "UUPSUnsupportedProxiableUUID",
      "type": "error"
    },
    {
      "inputs": [],
      "name": "ZeroAddress",
      "type": "error"
    },
    {
      "anonymous": false,
      "inputs": [
        {
          "indexed": false,
          "internalType": "uint64",
          "name": "version",
          "type": "uint64"
        }
      ],
      "name": "Initialized",
      "type": "event"
    },
    {
      "anonymous": false,
      "inputs": [
        {
          "indexed": true,
          "internalType": "address",
          "name": "vault",
          "type": "address"
        }
      ],
      "name": "OrionVaultAdded",
      "type": "event"
    },
    {
      "anonymous": false,
      "inputs": [
        {
          "indexed": true,
          "internalType": "address",
          "name": "vault",
          "type": "address"
        }
      ],
      "name": "OrionVaultRemoved",
      "type": "event"
    },
    {
      "anonymous": false,
      "inputs": [
        {
          "indexed": true,
          "internalType": "address",
          "name": "previousOwner",
          "type": "address"
        },
        {
          "indexed": true,
          "internalType": "address",
          "name": "newOwner",
          "type": "address"
        }
      ],
      "name": "OwnershipTransferStarted",
      "type": "event"
    },
    {
      "anonymous": false,
      "inputs": [
        {
          "indexed": true,
          "internalType": "address",
          "name": "previousOwner",
          "type": "address"
        },
        {
          "indexed": true,
          "internalType": "address",
          "name": "newOwner",
          "type": "address"
        }
      ],
      "name": "OwnershipTransferred",
      "type": "event"
    },
    {
      "anonymous": false,
      "inputs": [
        {
          "indexed": false,
          "internalType": "address",
          "name": "underlyingAsset",
          "type": "address"
        },
        {
          "indexed": false,
          "internalType": "address",
          "name": "internalStatesOrchestrator",
          "type": "address"
        },
        {
          "indexed": false,
          "internalType": "address",
          "name": "liquidityOrchestrator",
          "type": "address"
        },
        {
          "indexed": false,
          "internalType": "uint8",
          "name": "statesDecimals",
          "type": "uint8"
        },
        {
          "indexed": false,
          "internalType": "uint8",
          "name": "curatorIntentDecimals",
          "type": "uint8"
        },
        {
          "indexed": false,
          "internalType": "address",
          "name": "factory",
          "type": "address"
        },
        {
          "indexed": false,
          "internalType": "address",
          "name": "oracleRegistry",
          "type": "address"
        }
      ],
      "name": "ProtocolParamsUpdated",
      "type": "event"
    },
    {
      "anonymous": false,
      "inputs": [
        {
          "indexed": true,
          "internalType": "address",
          "name": "implementation",
          "type": "address"
        }
      ],
      "name": "Upgraded",
      "type": "event"
    },
    {
      "anonymous": false,
      "inputs": [
        {
          "indexed": true,
          "internalType": "address",
          "name": "asset",
          "type": "address"
        }
      ],
      "name": "WhitelistedAssetAdded",
      "type": "event"
    },
    {
      "anonymous": false,
      "inputs": [
        {
          "indexed": true,
          "internalType": "address",
          "name": "asset",
          "type": "address"
        }
      ],
      "name": "WhitelistedAssetRemoved",
      "type": "event"
    },
    {
      "inputs": [],
      "name": "UPGRADE_INTERFACE_VERSION",
      "outputs": [
        {
          "internalType": "string",
          "name": "",
          "type": "string"
        }
      ],
      "stateMutability": "view",
      "type": "function"
    },
    {
      "inputs": [],
      "name": "acceptOwnership",
      "outputs": [],
      "stateMutability": "nonpayable",
      "type": "function"
    },
    {
      "inputs": [
        {
          "internalType": "address",
          "name": "vault",
          "type": "address"
        }
      ],
      "name": "addOrionVault",
      "outputs": [],
      "stateMutability": "nonpayable",
      "type": "function"
    },
    {
      "inputs": [
        {
          "internalType": "address",
          "name": "asset",
          "type": "address"
        }
      ],
      "name": "addWhitelistedAsset",
      "outputs": [],
      "stateMutability": "nonpayable",
      "type": "function"
    },
    {
      "inputs": [],
      "name": "curatorIntentDecimals",
      "outputs": [
        {
          "internalType": "uint8",
          "name": "",
          "type": "uint8"
        }
      ],
      "stateMutability": "view",
      "type": "function"
    },
    {
      "inputs": [],
      "name": "getAllOrionVaults",
      "outputs": [
        {
          "internalType": "address[]",
          "name": "",
          "type": "address[]"
        }
      ],
      "stateMutability": "view",
      "type": "function"
    },
    {
      "inputs": [],
      "name": "getAllWhitelistedAssets",
      "outputs": [
        {
          "internalType": "address[]",
          "name": "assets",
          "type": "address[]"
        }
      ],
      "stateMutability": "view",
      "type": "function"
    },
    {
      "inputs": [],
      "name": "getVaultStates",
      "outputs": [
        {
          "internalType": "address[]",
          "name": "vaults",
          "type": "address[]"
        },
        {
          "internalType": "uint256[]",
          "name": "sharePrices",
          "type": "uint256[]"
        },
        {
          "internalType": "uint256[]",
          "name": "totalAssets",
          "type": "uint256[]"
        },
        {
          "internalType": "uint256[]",
          "name": "depositRequests",
          "type": "uint256[]"
        },
        {
          "internalType": "uint256[]",
          "name": "withdrawRequests",
          "type": "uint256[]"
        }
      ],
      "stateMutability": "view",
      "type": "function"
    },
    {
      "inputs": [
        {
          "internalType": "uint256",
          "name": "index",
          "type": "uint256"
        }
      ],
      "name": "getWhitelistedAssetAt",
      "outputs": [
        {
          "internalType": "address",
          "name": "",
          "type": "address"
        }
      ],
      "stateMutability": "view",
      "type": "function"
    },
    {
      "inputs": [
        {
          "internalType": "address",
          "name": "initialOwner",
          "type": "address"
        }
      ],
      "name": "initialize",
      "outputs": [],
      "stateMutability": "nonpayable",
      "type": "function"
    },
    {
      "inputs": [],
      "name": "internalStatesOrchestrator",
      "outputs": [
        {
          "internalType": "address",
          "name": "",
          "type": "address"
        }
      ],
      "stateMutability": "view",
      "type": "function"
    },
    {
      "inputs": [
        {
          "internalType": "address",
          "name": "asset",
          "type": "address"
        }
      ],
      "name": "isWhitelisted",
      "outputs": [
        {
          "internalType": "bool",
          "name": "",
          "type": "bool"
        }
      ],
      "stateMutability": "view",
      "type": "function"
    },
    {
      "inputs": [],
      "name": "liquidityOrchestrator",
      "outputs": [
        {
          "internalType": "address",
          "name": "",
          "type": "address"
        }
      ],
      "stateMutability": "view",
      "type": "function"
    },
    {
      "inputs": [],
      "name": "oracleRegistry",
      "outputs": [
        {
          "internalType": "address",
          "name": "",
          "type": "address"
        }
      ],
      "stateMutability": "view",
      "type": "function"
    },
    {
      "inputs": [],
      "name": "owner",
      "outputs": [
        {
          "internalType": "address",
          "name": "",
          "type": "address"
        }
      ],
      "stateMutability": "view",
      "type": "function"
    },
    {
      "inputs": [],
      "name": "pendingOwner",
      "outputs": [
        {
          "internalType": "address",
          "name": "",
          "type": "address"
        }
      ],
      "stateMutability": "view",
      "type": "function"
    },
    {
      "inputs": [],
      "name": "proxiableUUID",
      "outputs": [
        {
          "internalType": "bytes32",
          "name": "",
          "type": "bytes32"
        }
      ],
      "stateMutability": "view",
      "type": "function"
    },
    {
      "inputs": [
        {
          "internalType": "address",
          "name": "vault",
          "type": "address"
        }
      ],
      "name": "removeOrionVault",
      "outputs": [],
      "stateMutability": "nonpayable",
      "type": "function"
    },
    {
      "inputs": [
        {
          "internalType": "address",
          "name": "asset",
          "type": "address"
        }
      ],
      "name": "removeWhitelistedAsset",
      "outputs": [],
      "stateMutability": "nonpayable",
      "type": "function"
    },
    {
      "inputs": [],
      "name": "renounceOwnership",
      "outputs": [],
      "stateMutability": "nonpayable",
      "type": "function"
    },
    {
      "inputs": [
        {
          "internalType": "address",
          "name": "underlyingAsset_",
          "type": "address"
        },
        {
          "internalType": "address",
          "name": "internalStatesOrchestrator_",
          "type": "address"
        },
        {
          "internalType": "address",
          "name": "liquidityOrchestrator_",
          "type": "address"
        },
        {
          "internalType": "uint8",
          "name": "statesDecimals_",
          "type": "uint8"
        },
        {
          "internalType": "uint8",
          "name": "curatorIntentDecimals_",
          "type": "uint8"
        },
        {
          "internalType": "address",
          "name": "factory_",
          "type": "address"
        },
        {
          "internalType": "address",
          "name": "oracleRegistry_",
          "type": "address"
        }
      ],
      "name": "setProtocolParams",
      "outputs": [],
      "stateMutability": "nonpayable",
      "type": "function"
    },
    {
      "inputs": [],
      "name": "statesDecimals",
      "outputs": [
        {
          "internalType": "uint8",
          "name": "",
          "type": "uint8"
        }
      ],
      "stateMutability": "view",
      "type": "function"
    },
    {
      "inputs": [
        {
          "internalType": "address",
          "name": "newOwner",
          "type": "address"
        }
      ],
      "name": "transferOwnership",
      "outputs": [],
      "stateMutability": "nonpayable",
      "type": "function"
    },
    {
      "inputs": [],
      "name": "underlyingAsset",
      "outputs": [
        {
          "internalType": "contract IERC20",
          "name": "",
          "type": "address"
        }
      ],
      "stateMutability": "view",
      "type": "function"
    },
    {
      "inputs": [
        {
          "internalType": "address",
          "name": "newImplementation",
          "type": "address"
        },
        {
          "internalType": "bytes",
          "name": "data",
          "type": "bytes"
        }
      ],
      "name": "upgradeToAndCall",
      "outputs": [],
      "stateMutability": "payable",
      "type": "function"
    },
    {
      "inputs": [],
      "name": "vaultFactory",
      "outputs": [
        {
          "internalType": "address",
          "name": "",
          "type": "address"
        }
      ],
      "stateMutability": "view",
      "type": "function"
    },
    {
      "inputs": [],
      "name": "whitelistedAssetsLength",
      "outputs": [
        {
          "internalType": "uint256",
          "name": "",
          "type": "uint256"
        }
      ],
      "stateMutability": "view",
      "type": "function"
    }
  ],
  "bytecode": "0x60a0604052306080523480156012575f80fd5b50608051611b646100395f395f818161116c0152818161119501526112d90152611b645ff3fe608060405260043610610195575f3560e01c8063862a5f06116100e7578063d1717c7d11610087578063d8a06f7311610062578063d8a06f731461048a578063e30c3978146104a9578063eb1a5bb9146104bd578063f2fde38b146104dc575f80fd5b8063d1717c7d14610437578063d43d6c8b14610457578063d86cd44e14610476575f80fd5b8063b6dfcd8b116100c2578063b6dfcd8b146103a8578063b71ee4fc146103c7578063bfba8f66146103f9578063c4d66de814610418575f80fd5b8063862a5f06146103385780638da5cb5b14610357578063ad3cb1cc1461036b575f80fd5b80634bb93ab1116101525780635f2483681161012d5780635f248368146102de578063715018a6146102f25780637158da7c1461030657806379ba509714610324575f80fd5b80634bb93ab1146102885780634f1ef286146102a757806352d1902d146102bc575f80fd5b80630a567a2d14610199578063309bfe4a146101d5578063348ec5c8146101fa5780633a0dad8e146102195780633af32abf146102385780633d8015fc14610267575b5f80fd5b3480156101a4575f80fd5b506101b86101b33660046117a3565b6104fb565b6040516001600160a01b0390911681526020015b60405180910390f35b3480156101e0575f80fd5b506101e961050d565b6040516101cc95949392919061182d565b348015610205575f80fd5b506001546101b8906001600160a01b031681565b348015610224575f80fd5b506002546101b8906001600160a01b031681565b348015610243575f80fd5b506102576102523660046118b4565b6108d4565b60405190151581526020016101cc565b348015610272575f80fd5b5061027b6108e0565b6040516101cc91906118cd565b348015610293575f80fd5b506004546101b8906001600160a01b031681565b6102ba6102b53660046118f3565b610983565b005b3480156102c7575f80fd5b506102d06109a2565b6040519081526020016101cc565b3480156102e9575f80fd5b506102d06109bd565b3480156102fd575f80fd5b506102ba6109cd565b348015610311575f80fd5b505f546101b8906001600160a01b031681565b34801561032f575f80fd5b506102ba6109e0565b348015610343575f80fd5b506102ba6103523660046118b4565b610a2d565b348015610362575f80fd5b506101b8610abb565b348015610376575f80fd5b5061039b604051806040016040528060058152602001640352e302e360dc1b81525081565b6040516101cc91906119b7565b3480156103b3575f80fd5b506102ba6103c23660046118b4565b610aef565b3480156103d2575f80fd5b506004546103e790600160a01b900460ff1681565b60405160ff90911681526020016101cc565b348015610404575f80fd5b506102ba6104133660046118b4565b610b5a565b348015610423575f80fd5b506102ba6104323660046118b4565b610bc5565b348015610442575f80fd5b506004546103e790600160a81b900460ff1681565b348015610462575f80fd5b506102ba6104713660046119fa565b610cce565b348015610481575f80fd5b5061027b610f23565b348015610495575f80fd5b506003546101b8906001600160a01b031681565b3480156104b4575f80fd5b506101b8610fc3565b3480156104c8575f80fd5b506102ba6104d73660046118b4565b610feb565b3480156104e7575f80fd5b506102ba6104f63660046118b4565b6110a0565b5f610507600583611125565b92915050565b60608060608060605f6105206007611137565b90508067ffffffffffffffff81111561053b5761053b6118df565b604051908082528060200260200182016040528015610564578160200160208202803683370190505b5095508067ffffffffffffffff811115610580576105806118df565b6040519080825280602002602001820160405280156105a9578160200160208202803683370190505b5094508067ffffffffffffffff8111156105c5576105c56118df565b6040519080825280602002602001820160405280156105ee578160200160208202803683370190505b5093508067ffffffffffffffff81111561060a5761060a6118df565b604051908082528060200260200182016040528015610633578160200160208202803683370190505b5092508067ffffffffffffffff81111561064f5761064f6118df565b604051908082528060200260200182016040528015610678578160200160208202803683370190505b5091505f5b818110156108cb575f610691600783611125565b9050808883815181106106a6576106a6611a7f565b60200260200101906001600160a01b031690816001600160a01b0316815250505f819050806001600160a01b031663872697296040518163ffffffff1660e01b8152600401602060405180830381865afa158015610706573d5f803e3d5ffd5b505050506040513d601f19601f8201168201806040525081019061072a9190611a93565b88848151811061073c5761073c611a7f565b602002602001018181525050806001600160a01b03166301e1d1146040518163ffffffff1660e01b8152600401602060405180830381865afa158015610784573d5f803e3d5ffd5b505050506040513d601f19601f820116820180604052508101906107a89190611a93565b8784815181106107ba576107ba611a7f565b602002602001018181525050806001600160a01b031663d1699c266040518163ffffffff1660e01b8152600401602060405180830381865afa158015610802573d5f803e3d5ffd5b505050506040513d601f19601f820116820180604052508101906108269190611a93565b86848151811061083857610838611a7f565b602002602001018181525050806001600160a01b031663c37fc8a86040518163ffffffff1660e01b8152600401602060405180830381865afa158015610880573d5f803e3d5ffd5b505050506040513d601f19601f820116820180604052508101906108a49190611a93565b8584815181106108b6576108b6611a7f565b6020908102919091010152505060010161067d565b50509091929394565b5f610507600583611140565b60605f6108ed6007611137565b90505f8167ffffffffffffffff811115610909576109096118df565b604051908082528060200260200182016040528015610932578160200160208202803683370190505b5090505f5b8281101561097c5761094a600782611125565b82828151811061095c5761095c611a7f565b6001600160a01b0390921660209283029190910190910152600101610937565b5092915050565b61098b611161565b61099482611205565b61099e828261120d565b5050565b5f6109ab6112ce565b505f80516020611b0f83398151915290565b5f6109c86005611137565b905090565b6109d5611317565b6109de5f611349565b565b33806109ea610fc3565b6001600160a01b031614610a215760405163118cdaa760e01b81526001600160a01b03821660048201526024015b60405180910390fd5b610a2a81611349565b50565b6003546001600160a01b03163314610a5857604051631966391b60e11b815260040160405180910390fd5b5f610a64600783611381565b905080610a8457604051632fa1facb60e01b815260040160405180910390fd5b6040516001600160a01b038316907fe47da341e0fc63816c1254f1c35425f69460f49342668d11c984ea56762b00d4905f90a25050565b5f807f9016d09d72d40fdae2fd8ceac6b6234c7706214fd39c1cd1e609a0528c1993005b546001600160a01b031692915050565b610af7611317565b5f610b03600583611381565b905080610b2357604051632d85515d60e11b815260040160405180910390fd5b6040516001600160a01b038316907f952363a786fc6f24cfb955cd6207cf91ecee3a82a7dd0bc26891ff7647b5784c905f90a25050565b610b62611317565b5f610b6e600583611395565b905080610b8e5760405163b73e95e160e01b815260040160405180910390fd5b6040516001600160a01b038316907fdcbd8d9d0373041250f6c25b6b7aeccb3e9ff291e510ef85bb9f8ac09ceb6f64905f90a25050565b5f610bce6113a9565b805490915060ff600160401b820416159067ffffffffffffffff165f81158015610bf55750825b90505f8267ffffffffffffffff166001148015610c115750303b155b905081158015610c1f575080155b15610c3d5760405163f92ee8a960e01b815260040160405180910390fd5b845467ffffffffffffffff191660011785558315610c6757845460ff60401b1916600160401b1785555b610c6f6113d1565b610c776113d1565b610c8086611349565b8315610cc657845460ff60401b19168555604051600181527fc7f505b2f371ae2175ee4913f4499e1f2633a7b5936321eed1cdaeb6115181d29060200160405180910390a15b505050505050565b610cd6611317565b6001600160a01b038716610cfd57604051636448d6e960e11b815260040160405180910390fd5b6001600160a01b038616610d2457604051635c1de4f160e01b815260040160405180910390fd5b6001600160a01b038516610d4b5760405163c4a0c25d60e01b815260040160405180910390fd5b6001600160a01b038216610d725760405163d92e233d60e01b815260040160405180910390fd5b6001600160a01b038116610d995760405163d92e233d60e01b815260040160405180910390fd5b5f80546001600160a01b03199081166001600160a01b038a811691821784556001805484168b831617905560028054909316908916179091556040805163313ce56760e01b8152905163313ce567916004808201926020929091908290030181865afa158015610e0b573d5f803e3d5ffd5b505050506040513d601f19601f82011682018060405250810190610e2f9190611aaa565b90508060ff168560ff161015610e585760405163225dd91960e21b815260040160405180910390fd5b60048054600380546001600160a01b03199081166001600160a01b0388811691821790935561ffff60a01b19909316600160a01b60ff8b811691820260ff60a81b191692909217600160a81b928b1692830217909216878416908117909555604080518e851681528d85166020820152938c16908401526060830191909152608082015260a081019190915260c08101919091527f8a0153a4883536422ad293b760b91c5302e0bb3866365d362b85ede28acb51129060e00160405180910390a15050505050505050565b60605f610f306005611137565b90508067ffffffffffffffff811115610f4b57610f4b6118df565b604051908082528060200260200182016040528015610f74578160200160208202803683370190505b5091505f5b81811015610fbe57610f8c600582611125565b838281518110610f9e57610f9e611a7f565b6001600160a01b0390921660209283029190910190910152600101610f79565b505090565b5f807f237e158222e3e6968b72b9db0d8043aacf074ad9f650f0d1606b4d82ee432c00610adf565b6003546001600160a01b0316331461101657604051631966391b60e11b815260040160405180910390fd5b6001600160a01b03811661103d5760405163d92e233d60e01b815260040160405180910390fd5b5f611049600783611395565b90508061106957604051633c0c06e960e21b815260040160405180910390fd5b6040516001600160a01b038316907f9a7094a648c0524f3d62b9167886d30be0e68cf53863fe556edda348f189445a905f90a25050565b6110a8611317565b7f237e158222e3e6968b72b9db0d8043aacf074ad9f650f0d1606b4d82ee432c0080546001600160a01b0319166001600160a01b03831690811782556110ec610abb565b6001600160a01b03167f38d16b8cac22d99fc7c124b9cd0de2d3fa1faef420bfe791d8c362d765e2270060405160405180910390a35050565b5f61113083836113d9565b9392505050565b5f610507825490565b6001600160a01b0381165f9081526001830160205260408120541515611130565b306001600160a01b037f00000000000000000000000000000000000000000000000000000000000000001614806111e757507f00000000000000000000000000000000000000000000000000000000000000006001600160a01b03166111db5f80516020611b0f833981519152546001600160a01b031690565b6001600160a01b031614155b156109de5760405163703e46dd60e11b815260040160405180910390fd5b610a2a611317565b816001600160a01b03166352d1902d6040518163ffffffff1660e01b8152600401602060405180830381865afa925050508015611267575060408051601f3d908101601f1916820190925261126491810190611a93565b60015b61128f57604051634c9c8ce360e01b81526001600160a01b0383166004820152602401610a18565b5f80516020611b0f83398151915281146112bf57604051632a87526960e21b815260048101829052602401610a18565b6112c983836113ff565b505050565b306001600160a01b037f000000000000000000000000000000000000000000000000000000000000000016146109de5760405163703e46dd60e11b815260040160405180910390fd5b33611320610abb565b6001600160a01b0316146109de5760405163118cdaa760e01b8152336004820152602401610a18565b7f237e158222e3e6968b72b9db0d8043aacf074ad9f650f0d1606b4d82ee432c0080546001600160a01b031916815561099e82611454565b5f611130836001600160a01b0384166114c4565b5f611130836001600160a01b0384166115a7565b5f807ff0c57e16840df040f15088dc2f81fe391c3923bec73e23a9662efc9c229c6a00610507565b6109de6115f3565b5f825f0182815481106113ee576113ee611a7f565b905f5260205f200154905092915050565b61140882611618565b6040516001600160a01b038316907fbc7cd75a20ee27fd9adebab32041f755214dbc6bffa90cc0225b39da2e5c2d3b905f90a280511561144c576112c9828261167b565b61099e6116ed565b7f9016d09d72d40fdae2fd8ceac6b6234c7706214fd39c1cd1e609a0528c19930080546001600160a01b031981166001600160a01b03848116918217845560405192169182907f8be0079c531659141344cd1fd0a4f28419497f9722a3daafe3b4186f6b6457e0905f90a3505050565b5f818152600183016020526040812054801561159e575f6114e6600183611ac5565b85549091505f906114f990600190611ac5565b9050808214611558575f865f01828154811061151757611517611a7f565b905f5260205f200154905080875f01848154811061153757611537611a7f565b5f918252602080832090910192909255918252600188019052604090208390555b855486908061156957611569611ae4565b600190038181905f5260205f20015f90559055856001015f8681526020019081526020015f205f905560019350505050610507565b5f915050610507565b5f8181526001830160205260408120546115ec57508154600181810184555f848152602080822090930184905584548482528286019093526040902091909155610507565b505f610507565b6115fb61170c565b6109de57604051631afcd79f60e31b815260040160405180910390fd5b806001600160a01b03163b5f0361164d57604051634c9c8ce360e01b81526001600160a01b0382166004820152602401610a18565b5f80516020611b0f83398151915280546001600160a01b0319166001600160a01b0392909216919091179055565b60605f80846001600160a01b0316846040516116979190611af8565b5f60405180830381855af49150503d805f81146116cf576040519150601f19603f3d011682016040523d82523d5f602084013e6116d4565b606091505b50915091506116e4858383611725565b95945050505050565b34156109de5760405163b398979f60e01b815260040160405180910390fd5b5f6117156113a9565b54600160401b900460ff16919050565b60608261173a576117358261177a565b611130565b815115801561175157506001600160a01b0384163b155b1561097c57604051639996b31560e01b81526001600160a01b0385166004820152602401610a18565b80511561178a5780518082602001fd5b60405163d6bda27560e01b815260040160405180910390fd5b5f602082840312156117b3575f80fd5b5035919050565b5f8151808452602084019350602083015f5b828110156117f35781516001600160a01b03168652602095860195909101906001016117cc565b5093949350505050565b5f8151808452602084019350602083015f5b828110156117f357815186526020958601959091019060010161180f565b60a081525f61183f60a08301886117ba565b828103602084015261185181886117fd565b9050828103604084015261186581876117fd565b9050828103606084015261187981866117fd565b9050828103608084015261188d81856117fd565b98975050505050505050565b80356001600160a01b03811681146118af575f80fd5b919050565b5f602082840312156118c4575f80fd5b61113082611899565b602081525f61113060208301846117ba565b634e487b7160e01b5f52604160045260245ffd5b5f8060408385031215611904575f80fd5b61190d83611899565b9150602083013567ffffffffffffffff811115611928575f80fd5b8301601f81018513611938575f80fd5b803567ffffffffffffffff811115611952576119526118df565b604051601f8201601f19908116603f0116810167ffffffffffffffff81118282101715611981576119816118df565b604052818152828201602001871015611998575f80fd5b816020840160208301375f602083830101528093505050509250929050565b602081525f82518060208401528060208501604085015e5f604082850101526040601f19601f83011684010191505092915050565b60ff81168114610a2a575f80fd5b5f805f805f805f60e0888a031215611a10575f80fd5b611a1988611899565b9650611a2760208901611899565b9550611a3560408901611899565b94506060880135611a45816119ec565b93506080880135611a55816119ec565b9250611a6360a08901611899565b9150611a7160c08901611899565b905092959891949750929550565b634e487b7160e01b5f52603260045260245ffd5b5f60208284031215611aa3575f80fd5b5051919050565b5f60208284031215611aba575f80fd5b8151611130816119ec565b8181038181111561050757634e487b7160e01b5f52601160045260245ffd5b634e487b7160e01b5f52603160045260245ffd5b5f82518060208501845e5f92019182525091905056fe360894a13ba1a3210667c828492db98dca3e2076cc3735a920a3ca505d382bbca2646970667358221220ff7efb8b9897a8bc847343b8110bdd3909fa7057208e3aa4599a269237a74ded64736f6c634300081a0033",
  "linkReferences": {},
  "deployedLinkReferences": {}
}