{
  "_format": "hh-sol-artifact-1",
  "contractName": "OrionConfig",
  "sourceName": "contracts/OrionConfig.sol",
  "abi": [
    {
      "inputs": [
        {
          "internalType": "address",
          "name": "initialOwner",
          "type": "address"
        },
        {
          "internalType": "address",
          "name": "admin_",
          "type": "address"
        },
        {
          "internalType": "address",
          "name": "underlyingAsset_",
          "type": "address"
        }
      ],
      "stateMutability": "nonpayable",
      "type": "constructor"
    },
    {
      "inputs": [],
      "name": "AlreadyRegistered",
      "type": "error"
    },
    {
      "inputs": [],
      "name": "InvalidAddress",
      "type": "error"
    },
    {
      "inputs": [],
      "name": "InvalidArguments",
      "type": "error"
    },
    {
      "inputs": [],
      "name": "NotAuthorized",
      "type": "error"
    },
    {
      "inputs": [
        {
          "internalType": "address",
          "name": "owner",
          "type": "address"
        }
      ],
      "name": "OwnableInvalidOwner",
      "type": "error"
    },
    {
      "inputs": [
        {
          "internalType": "address",
          "name": "account",
          "type": "address"
        }
      ],
      "name": "OwnableUnauthorizedAccount",
      "type": "error"
    },
    {
      "inputs": [],
      "name": "SystemNotIdle",
      "type": "error"
    },
    {
      "inputs": [
        {
          "internalType": "address",
          "name": "token",
          "type": "address"
        }
      ],
      "name": "TokenNotWhitelisted",
      "type": "error"
    },
    {
      "inputs": [],
      "name": "UnauthorizedAccess",
      "type": "error"
    },
    {
      "inputs": [],
      "name": "ZeroAddress",
      "type": "error"
    },
    {
      "anonymous": false,
      "inputs": [
        {
          "indexed": true,
          "internalType": "address",
          "name": "vault",
          "type": "address"
        }
      ],
      "name": "OrionVaultAdded",
      "type": "event"
    },
    {
      "anonymous": false,
      "inputs": [
        {
          "indexed": true,
          "internalType": "address",
          "name": "previousOwner",
          "type": "address"
        },
        {
          "indexed": true,
          "internalType": "address",
          "name": "newOwner",
          "type": "address"
        }
      ],
      "name": "OwnershipTransferStarted",
      "type": "event"
    },
    {
      "anonymous": false,
      "inputs": [
        {
          "indexed": true,
          "internalType": "address",
          "name": "previousOwner",
          "type": "address"
        },
        {
          "indexed": true,
          "internalType": "address",
          "name": "newOwner",
          "type": "address"
        }
      ],
      "name": "OwnershipTransferred",
      "type": "event"
    },
    {
      "anonymous": false,
      "inputs": [
        {
          "indexed": true,
          "internalType": "uint16",
          "name": "riskFreeRate",
          "type": "uint16"
        }
      ],
      "name": "RiskFreeRateUpdated",
      "type": "event"
    },
    {
      "anonymous": false,
      "inputs": [
        {
          "indexed": true,
          "internalType": "address",
          "name": "asset",
          "type": "address"
        }
      ],
      "name": "WhitelistedAssetAdded",
      "type": "event"
    },
    {
      "anonymous": false,
      "inputs": [
        {
          "indexed": true,
          "internalType": "address",
          "name": "asset",
          "type": "address"
        }
      ],
      "name": "WhitelistedAssetRemoved",
      "type": "event"
    },
    {
      "inputs": [],
      "name": "MAX_RISK_FREE_RATE",
      "outputs": [
        {
          "internalType": "uint16",
          "name": "",
          "type": "uint16"
        }
      ],
      "stateMutability": "view",
      "type": "function"
    },
    {
      "inputs": [],
      "name": "acceptOwnership",
      "outputs": [],
      "stateMutability": "nonpayable",
      "type": "function"
    },
    {
      "inputs": [
        {
          "internalType": "address",
          "name": "vault",
          "type": "address"
        },
        {
          "internalType": "enum EventsLib.VaultType",
          "name": "vaultType",
          "type": "uint8"
        }
      ],
      "name": "addOrionVault",
      "outputs": [],
      "stateMutability": "nonpayable",
      "type": "function"
    },
    {
      "inputs": [
        {
          "internalType": "address",
          "name": "asset",
          "type": "address"
        },
        {
          "internalType": "address",
          "name": "priceAdapter",
          "type": "address"
        },
        {
          "internalType": "address",
          "name": "executionAdapter",
          "type": "address"
        }
      ],
      "name": "addWhitelistedAsset",
      "outputs": [],
      "stateMutability": "nonpayable",
      "type": "function"
    },
    {
      "inputs": [
        {
          "internalType": "address",
          "name": "vaultOwner",
          "type": "address"
        }
      ],
      "name": "addWhitelistedVaultOwner",
      "outputs": [],
      "stateMutability": "nonpayable",
      "type": "function"
    },
    {
      "inputs": [],
      "name": "admin",
      "outputs": [
        {
          "internalType": "address",
          "name": "",
          "type": "address"
        }
      ],
      "stateMutability": "view",
      "type": "function"
    },
    {
      "inputs": [
        {
          "internalType": "address",
          "name": "vault",
          "type": "address"
        }
      ],
      "name": "completeVaultDecommissioning",
      "outputs": [],
      "stateMutability": "nonpayable",
      "type": "function"
    },
    {
      "inputs": [],
      "name": "curatorIntentDecimals",
      "outputs": [
        {
          "internalType": "uint8",
          "name": "",
          "type": "uint8"
        }
      ],
      "stateMutability": "view",
      "type": "function"
    },
    {
      "inputs": [
        {
          "internalType": "enum EventsLib.VaultType",
          "name": "vaultType",
          "type": "uint8"
        }
      ],
      "name": "getAllOrionVaults",
      "outputs": [
        {
          "internalType": "address[]",
          "name": "",
          "type": "address[]"
        }
      ],
      "stateMutability": "view",
      "type": "function"
    },
    {
      "inputs": [],
      "name": "getAllWhitelistedAssets",
      "outputs": [
        {
          "internalType": "address[]",
          "name": "assets",
          "type": "address[]"
        }
      ],
      "stateMutability": "view",
      "type": "function"
    },
    {
      "inputs": [
        {
          "internalType": "address",
          "name": "token",
          "type": "address"
        }
      ],
      "name": "getTokenDecimals",
      "outputs": [
        {
          "internalType": "uint8",
          "name": "",
          "type": "uint8"
        }
      ],
      "stateMutability": "view",
      "type": "function"
    },
    {
      "inputs": [],
      "name": "internalStatesOrchestrator",
      "outputs": [
        {
          "internalType": "address",
          "name": "",
          "type": "address"
        }
      ],
      "stateMutability": "view",
      "type": "function"
    },
    {
      "inputs": [
        {
          "internalType": "address",
          "name": "vault",
          "type": "address"
        }
      ],
      "name": "isDecommissionedVault",
      "outputs": [
        {
          "internalType": "bool",
          "name": "",
          "type": "bool"
        }
      ],
      "stateMutability": "view",
      "type": "function"
    },
    {
      "inputs": [
        {
          "internalType": "address",
          "name": "vault",
          "type": "address"
        }
      ],
      "name": "isDecommissioningVault",
      "outputs": [
        {
          "internalType": "bool",
          "name": "",
          "type": "bool"
        }
      ],
      "stateMutability": "view",
      "type": "function"
    },
    {
      "inputs": [
        {
          "internalType": "address",
          "name": "vault",
          "type": "address"
        }
      ],
      "name": "isOrionVault",
      "outputs": [
        {
          "internalType": "bool",
          "name": "",
          "type": "bool"
        }
      ],
      "stateMutability": "view",
      "type": "function"
    },
    {
      "inputs": [],
      "name": "isSystemIdle",
      "outputs": [
        {
          "internalType": "bool",
          "name": "",
          "type": "bool"
        }
      ],
      "stateMutability": "view",
      "type": "function"
    },
    {
      "inputs": [
        {
          "internalType": "address",
          "name": "asset",
          "type": "address"
        }
      ],
      "name": "isWhitelisted",
      "outputs": [
        {
          "internalType": "bool",
          "name": "",
          "type": "bool"
        }
      ],
      "stateMutability": "view",
      "type": "function"
    },
    {
      "inputs": [
        {
          "internalType": "address",
          "name": "vaultOwner",
          "type": "address"
        }
      ],
      "name": "isWhitelistedVaultOwner",
      "outputs": [
        {
          "internalType": "bool",
          "name": "",
          "type": "bool"
        }
      ],
      "stateMutability": "view",
      "type": "function"
    },
    {
      "inputs": [],
      "name": "liquidityOrchestrator",
      "outputs": [
        {
          "internalType": "address",
          "name": "",
          "type": "address"
        }
      ],
      "stateMutability": "view",
      "type": "function"
    },
    {
      "inputs": [],
      "name": "owner",
      "outputs": [
        {
          "internalType": "address",
          "name": "",
          "type": "address"
        }
      ],
      "stateMutability": "view",
      "type": "function"
    },
    {
      "inputs": [],
      "name": "pendingOwner",
      "outputs": [
        {
          "internalType": "address",
          "name": "",
          "type": "address"
        }
      ],
      "stateMutability": "view",
      "type": "function"
    },
    {
      "inputs": [],
      "name": "priceAdapterDecimals",
      "outputs": [
        {
          "internalType": "uint8",
          "name": "",
          "type": "uint8"
        }
      ],
      "stateMutability": "view",
      "type": "function"
    },
    {
      "inputs": [],
      "name": "priceAdapterRegistry",
      "outputs": [
        {
          "internalType": "address",
          "name": "",
          "type": "address"
        }
      ],
      "stateMutability": "view",
      "type": "function"
    },
    {
      "inputs": [
        {
          "internalType": "address",
          "name": "vault",
          "type": "address"
        }
      ],
      "name": "removeOrionVault",
      "outputs": [],
      "stateMutability": "nonpayable",
      "type": "function"
    },
    {
      "inputs": [
        {
          "internalType": "address",
          "name": "asset",
          "type": "address"
        }
      ],
      "name": "removeWhitelistedAsset",
      "outputs": [],
      "stateMutability": "nonpayable",
      "type": "function"
    },
    {
      "inputs": [
        {
          "internalType": "address",
          "name": "vaultOwner",
          "type": "address"
        }
      ],
      "name": "removeWhitelistedVaultOwner",
      "outputs": [],
      "stateMutability": "nonpayable",
      "type": "function"
    },
    {
      "inputs": [],
      "name": "renounceOwnership",
      "outputs": [],
      "stateMutability": "nonpayable",
      "type": "function"
    },
    {
      "inputs": [],
      "name": "riskFreeRate",
      "outputs": [
        {
          "internalType": "uint16",
          "name": "",
          "type": "uint16"
        }
      ],
      "stateMutability": "view",
      "type": "function"
    },
    {
      "inputs": [
        {
          "internalType": "address",
          "name": "orchestrator",
          "type": "address"
        }
      ],
      "name": "setInternalStatesOrchestrator",
      "outputs": [],
      "stateMutability": "nonpayable",
      "type": "function"
    },
    {
      "inputs": [
        {
          "internalType": "address",
          "name": "orchestrator",
          "type": "address"
        }
      ],
      "name": "setLiquidityOrchestrator",
      "outputs": [],
      "stateMutability": "nonpayable",
      "type": "function"
    },
    {
      "inputs": [
        {
          "internalType": "address",
          "name": "registry",
          "type": "address"
        }
      ],
      "name": "setPriceAdapterRegistry",
      "outputs": [],
      "stateMutability": "nonpayable",
      "type": "function"
    },
    {
      "inputs": [
        {
          "internalType": "uint16",
          "name": "_riskFreeRate",
          "type": "uint16"
        }
      ],
      "name": "setProtocolRiskFreeRate",
      "outputs": [],
      "stateMutability": "nonpayable",
      "type": "function"
    },
    {
      "inputs": [
        {
          "internalType": "address",
          "name": "transparentFactory",
          "type": "address"
        }
      ],
      "name": "setVaultFactory",
      "outputs": [],
      "stateMutability": "nonpayable",
      "type": "function"
    },
    {
      "inputs": [
        {
          "internalType": "address",
          "name": "",
          "type": "address"
        }
      ],
      "name": "tokenDecimals",
      "outputs": [
        {
          "internalType": "uint8",
          "name": "",
          "type": "uint8"
        }
      ],
      "stateMutability": "view",
      "type": "function"
    },
    {
      "inputs": [
        {
          "internalType": "address",
          "name": "newOwner",
          "type": "address"
        }
      ],
      "name": "transferOwnership",
      "outputs": [],
      "stateMutability": "nonpayable",
      "type": "function"
    },
    {
      "inputs": [],
      "name": "transparentVaultFactory",
      "outputs": [
        {
          "internalType": "address",
          "name": "",
          "type": "address"
        }
      ],
      "stateMutability": "view",
      "type": "function"
    },
    {
      "inputs": [],
      "name": "underlyingAsset",
      "outputs": [
        {
          "internalType": "contract IERC20",
          "name": "",
          "type": "address"
        }
      ],
      "stateMutability": "view",
      "type": "function"
    },
    {
      "inputs": [],
      "name": "whitelistedAssetsLength",
      "outputs": [
        {
          "internalType": "uint16",
          "name": "",
          "type": "uint16"
        }
      ],
      "stateMutability": "view",
      "type": "function"
    }
  ],
  "bytecode": "0x60a060405234801561000f575f5ffd5b50604051611c00380380611c0083398101604081905261002e91610282565b826001600160a01b03811661005c57604051631e4fbdf760e01b81525f600482015260240160405180910390fd5b61006581610193565b506001600160a01b03821661008d5760405163d92e233d60e01b815260040160405180910390fd5b6001600160a01b0381166100b45760405163d92e233d60e01b815260040160405180910390fd5b6001600160a01b03828116608052600280546001600160a01b03191691831691821790556006805461ffff60a01b1916610e0960a01b1790556040805163313ce56760e01b8152905163313ce567916004808201926020929091908290030181865afa158015610126573d5f5f3e3d5ffd5b505050506040513d601f19601f8201168201806040525081019061014a91906102c2565b6001600160a01b0382165f908152600b60205260409020805460ff191660ff9290921691909117905561017e6007826101af565b5061018a6009846101af565b505050506102e9565b600180546001600160a01b03191690556101ac816101cc565b50565b5f6101c3836001600160a01b03841661021b565b90505b92915050565b5f80546001600160a01b038381166001600160a01b0319831681178455604051919092169283917f8be0079c531659141344cd1fd0a4f28419497f9722a3daafe3b4186f6b6457e09190a35050565b5f81815260018301602052604081205461026057508154600181810184555f8481526020808220909301849055845484825282860190935260409020919091556101c6565b505f6101c6565b80516001600160a01b038116811461027d575f5ffd5b919050565b5f5f5f60608486031215610294575f5ffd5b61029d84610267565b92506102ab60208501610267565b91506102b960408501610267565b90509250925092565b5f602082840312156102d2575f5ffd5b815160ff811681146102e2575f5ffd5b9392505050565b6080516118f161030f5f395f81816104b601528181610b390152610c9d01526118f15ff3fe608060405234801561000f575f5ffd5b50600436106101c0575f3560e01c8063015df993146101c45780630a8b78c7146101ed5780632095b01e1461020257806323a06a1c14610215578063348ec5c8146102285780633a0dad8e1461023b5780633af32abf1461024e5780633ea7fbdb1461027157806355fba94e14610284578063567ba713146102975780635f248368146102bd57806366e87e7f146102d8578063715018a6146102eb5780637158da7c146102f3578063785c7cf61461030657806379ba5097146103315780637a0cb7841461033957806381408ce51461034c578063849ede231461035f578063862a5f06146103725780638771de87146103855780638da5cb5b146103985780638ee573ac146103a0578063b6dfcd8b146103c2578063c30dd727146103d5578063d11f1c35146103e8578063d1717c7d146103fb578063d5460ab51461040f578063d86cd44e14610418578063e0876b441461042d578063e30c397814610440578063e8ffccb714610448578063ed04f2181461045b578063edcf9c1f1461046e578063f2fde38b14610476578063f3cc699314610489578063f764eb451461049e578063f851a440146104b1575b5f5ffd5b6006546101d7906001600160a01b031681565b6040516101e49190611566565b60405180910390f35b6102006101fb36600461158e565b6104d8565b005b61020061021036600461158e565b610553565b6102006102233660046115a9565b6105ce565b6003546101d7906001600160a01b031681565b6004546101d7906001600160a01b031681565b61026161025c36600461158e565b6107a0565b60405190151581526020016101e4565b61020061027f36600461158e565b6107b2565b61020061029236600461158e565b610852565b6006546102ab90600160a81b900460ff1681565b60405160ff90911681526020016101e4565b6102c561088a565b60405161ffff90911681526020016101e4565b6102006102e63660046115f1565b61089a565b61020061093e565b6002546101d7906001600160a01b031681565b6102ab61031436600461158e565b6001600160a01b03165f908152600b602052604090205460ff1690565b610200610951565b610200610347366004611625565b610999565b61020061035a36600461158e565b610a7b565b6005546101d7906001600160a01b031681565b61020061038036600461158e565b610b2e565b61026161039336600461158e565b610c78565b6101d7610c84565b6102ab6103ae36600461158e565b600b6020525f908152604090205460ff1681565b6102006103d036600461158e565b610c92565b6102006103e336600461158e565b610e8b565b6102616103f636600461158e565b610f06565b6006546102ab90600160a01b900460ff1681565b6102c561032081565b610420610f12565b6040516101e49190611658565b61026161043b36600461158e565b610fc5565b6101d7610fe2565b61020061045636600461158e565b610ff1565b6104206104693660046116a3565b6110bb565b610261611197565b61020061048436600461158e565b61129c565b6006546102c590600160b01b900461ffff1681565b6102616104ac36600461158e565b611302565b6101d77f000000000000000000000000000000000000000000000000000000000000000081565b6104e061130e565b6001600160a01b0381166105075760405163d92e233d60e01b815260040160405180910390fd5b6003546001600160a01b03161561053157604051630ea075bf60e21b815260040160405180910390fd5b600380546001600160a01b0319166001600160a01b0392909216919091179055565b61055b61130e565b6001600160a01b0381166105825760405163d92e233d60e01b815260040160405180910390fd5b6006546001600160a01b0316156105ac57604051630ea075bf60e21b815260040160405180910390fd5b600680546001600160a01b0319166001600160a01b0392909216919091179055565b6105d661130e565b6105de611197565b6105fb576040516312aecd8160e01b815260040160405180910390fd5b5f610607600785611340565b90508061062757604051630ea075bf60e21b815260040160405180910390fd5b836001600160a01b031663313ce5676040518163ffffffff1660e01b8152600401602060405180830381865afa158015610663573d5f5f3e3d5ffd5b505050506040513d601f19601f8201168201806040525081019061068791906116bc565b6001600160a01b038581165f908152600b602052604090819020805460ff191660ff949094169390931790925560065491516302707eef60e51b8152911690634e0fdde0906106dc90879087906004016116dc565b5f604051808303815f87803b1580156106f3575f5ffd5b505af1158015610705573d5f5f3e3d5ffd5b5050600480546040516359017aa960e01b81526001600160a01b0390911693506359017aa9925061073a9188918791016116dc565b5f604051808303815f87803b158015610751575f5ffd5b505af1158015610763573d5f5f3e3d5ffd5b50506040516001600160a01b03871692507fdcbd8d9d0373041250f6c25b6b7aeccb3e9ff291e510ef85bb9f8ac09ceb6f6491505f90a250505050565b5f6107ac60078361135b565b92915050565b6107ba61130e565b6107c2611197565b6107df576040516312aecd8160e01b815260040160405180910390fd5b6001600160a01b0381166108065760405163d92e233d60e01b815260040160405180910390fd5b6005546001600160a01b03161561083057604051630ea075bf60e21b815260040160405180910390fd5b600580546001600160a01b0319166001600160a01b0392909216919091179055565b61085a61130e565b5f610866600983611340565b90508061088657604051630ea075bf60e21b815260040160405180910390fd5b5050565b5f610895600761136f565b905090565b6108a261130e565b6108aa611197565b6108c7576040516312aecd8160e01b815260040160405180910390fd5b61032061ffff821611156108ee576040516317dbc4cb60e21b815260040160405180910390fd5b6006805461ffff60b01b1916600160b01b61ffff84811682029290921792839055604051920416907f6c0e50288cc602be5dd504ce35358e01341e3c4f93e2e02b5a030a59bfdb84e2905f90a250565b61094661130e565b61094f5f611378565b565b338061095b610fe2565b6001600160a01b03161461098d578060405163118cdaa760e01b81526004016109849190611566565b60405180910390fd5b61099681611378565b50565b6005546001600160a01b031633146109c457604051631a27eac360e11b815260040160405180910390fd5b6001600160a01b0382166109eb5760405163d92e233d60e01b815260040160405180910390fd5b5f6001826001811115610a0057610a006116f6565b03610a1757610a10600e84611340565b9050610a25565b610a22600c84611340565b90505b80610a4357604051630ea075bf60e21b815260040160405180910390fd5b6040516001600160a01b038416907f9a7094a648c0524f3d62b9167886d30be0e68cf53863fe556edda348f189445a905f90a2505050565b610a8361130e565b604051638771de8760e01b81523090638771de8790610aa6908490600401611566565b602060405180830381865afa158015610ac1573d5f5f3e3d5ffd5b505050506040513d601f19601f82011682018060405250810190610ae5919061170a565b610b025760405163e6c4247b60e01b815260040160405180910390fd5b5f610b0e600983611391565b9050806108865760405163e6c4247b60e01b815260040160405180910390fd5b336001600160a01b037f00000000000000000000000000000000000000000000000000000000000000001614610b7757604051631a27eac360e11b815260040160405180910390fd5b610b7f611197565b610b9c576040516312aecd8160e01b815260040160405180910390fd5b604051633821dad160e21b8152309063e0876b4490610bbf908490600401611566565b602060405180830381865afa158015610bda573d5f5f3e3d5ffd5b505050506040513d601f19601f82011682018060405250810190610bfe919061170a565b610c1b5760405163e6c4247b60e01b815260040160405180910390fd5b610c26601082611340565b50806001600160a01b031663ca78e8396040518163ffffffff1660e01b81526004015f604051808303815f87803b158015610c5f575f5ffd5b505af1158015610c71573d5f5f3e3d5ffd5b5050505050565b5f6107ac60098361135b565b5f546001600160a01b031690565b336001600160a01b037f00000000000000000000000000000000000000000000000000000000000000001614610cdb57604051631a27eac360e11b815260040160405180910390fd5b610ce3611197565b610d00576040516312aecd8160e01b815260040160405180910390fd5b6002546001600160a01b0390811690821603610d2f576040516317dbc4cb60e21b815260040160405180910390fd5b5f610d3b600783611391565b905080610d5d578160405163751dff9760e11b81526004016109849190611566565b604051631da09e4360e31b81525f90309063ed04f21890610d82908490600401611729565b5f60405180830381865afa158015610d9c573d5f5f3e3d5ffd5b505050506040513d5f823e601f3d908101601f19168201604052610dc3919081019061176e565b90505f5b8151811015610e52575f828281518110610de357610de3611838565b60200260200101519050806001600160a01b031663e3352c4c866040518263ffffffff1660e01b8152600401610e199190611566565b5f604051808303815f87803b158015610e30575f5ffd5b505af1158015610e42573d5f5f3e3d5ffd5b5050505050806001019050610dc7565b506040516001600160a01b038416907f952363a786fc6f24cfb955cd6207cf91ecee3a82a7dd0bc26891ff7647b5784c905f90a2505050565b610e9361130e565b6001600160a01b038116610eba5760405163d92e233d60e01b815260040160405180910390fd5b6004546001600160a01b031615610ee457604051630ea075bf60e21b815260040160405180910390fd5b600480546001600160a01b0319166001600160a01b0392909216919091179055565b5f6107ac60108361135b565b60605f610f1f600761136f565b90508061ffff166001600160401b03811115610f3d57610f3d61174f565b604051908082528060200260200182016040528015610f66578160200160208202803683370190505b5091505f5b8161ffff168161ffff161015610fc057610f8a600761ffff83166113a5565b838261ffff1681518110610fa057610fa0611838565b6001600160a01b0390921660209283029190910190910152600101610f6b565b505090565b5f610fd1600e8361135b565b806107ac57506107ac600c8361135b565b6001546001600160a01b031690565b6004546001600160a01b0316331461101c5760405163ea8e4eb560e01b815260040160405180910390fd5b61102760108261135b565b6110445760405163e6c4247b60e01b815260040160405180910390fd5b5f611050600e8361135b565b1561106957506001611063600e83611391565b5061109f565b611074600c8361135b565b1561108657505f611063600c83611391565b60405163e6c4247b60e01b815260040160405180910390fd5b6110aa601083611391565b506110b6601283611340565b505050565b60605f60018360018111156110d2576110d26116f6565b146110de57600c6110e1565b600e5b90505f6110ed8261136f565b90505f8161ffff166001600160401b0381111561110c5761110c61174f565b604051908082528060200260200182016040528015611135578160200160208202803683370190505b5090505f5b8261ffff168161ffff16101561118e576111588461ffff83166113a5565b828261ffff168151811061116e5761116e611838565b6001600160a01b039092166020928302919091019091015260010161113a565b50949350505050565b60048054604080516302ad6a1760e11b815290515f9384936001600160a01b03169263055ad42e92818301926020928290030181865afa1580156111dd573d5f5f3e3d5ffd5b505050506040513d601f19601f82011682018060405250810190611201919061184c565b6003811115611212576112126116f6565b1480156108955750600354604080516302ad6a1760e11b815290515f926001600160a01b03169163055ad42e9160048083019260209291908290030181865afa158015611261573d5f5f3e3d5ffd5b505050506040513d601f19601f82011682018060405250810190611285919061186a565b6004811115611296576112966116f6565b14905090565b6112a461130e565b600180546001600160a01b0319166001600160a01b0383169081179091556112ca610c84565b6001600160a01b03167f38d16b8cac22d99fc7c124b9cd0de2d3fa1faef420bfe791d8c362d765e2270060405160405180910390a350565b5f6107ac60128361135b565b33611317610c84565b6001600160a01b03161461094f573360405163118cdaa760e01b81526004016109849190611566565b5f611354836001600160a01b0384166113b0565b9392505050565b5f611354836001600160a01b0384166113f7565b5f6107ac825490565b600180546001600160a01b03191690556109968161140e565b5f611354836001600160a01b03841661145d565b5f6113548383611540565b5f6113bb83836113f7565b6113f057508154600181810184555f8481526020808220909301849055845484825282860190935260409020919091556107ac565b505f6107ac565b5f9081526001919091016020526040902054151590565b5f80546001600160a01b038381166001600160a01b0319831681178455604051919092169283917f8be0079c531659141344cd1fd0a4f28419497f9722a3daafe3b4186f6b6457e09190a35050565b5f8181526001830160205260408120548015611537575f61147f600183611888565b85549091505f9061149290600190611888565b90508082146114f1575f865f0182815481106114b0576114b0611838565b905f5260205f200154905080875f0184815481106114d0576114d0611838565b5f918252602080832090910192909255918252600188019052604090208390555b8554869080611502576115026118a7565b600190038181905f5260205f20015f90559055856001015f8681526020019081526020015f205f9055600193505050506107ac565b5f9150506107ac565b5f825f01828154811061155557611555611838565b905f5260205f200154905092915050565b6001600160a01b0391909116815260200190565b6001600160a01b0381168114610996575f5ffd5b5f6020828403121561159e575f5ffd5b81356113548161157a565b5f5f5f606084860312156115bb575f5ffd5b83356115c68161157a565b925060208401356115d68161157a565b915060408401356115e68161157a565b809150509250925092565b5f60208284031215611601575f5ffd5b813561ffff81168114611354575f5ffd5b803560028110611620575f5ffd5b919050565b5f5f60408385031215611636575f5ffd5b82356116418161157a565b915061164f60208401611612565b90509250929050565b602080825282518282018190525f918401906040840190835b818110156116985783516001600160a01b0316835260209384019390920191600101611671565b509095945050505050565b5f602082840312156116b3575f5ffd5b61135482611612565b5f602082840312156116cc575f5ffd5b815160ff81168114611354575f5ffd5b6001600160a01b0392831681529116602082015260400190565b634e487b7160e01b5f52602160045260245ffd5b5f6020828403121561171a575f5ffd5b81518015158114611354575f5ffd5b602081016002831061174957634e487b7160e01b5f52602160045260245ffd5b91905290565b634e487b7160e01b5f52604160045260245ffd5b80516116208161157a565b5f6020828403121561177e575f5ffd5b81516001600160401b03811115611793575f5ffd5b8201601f810184136117a3575f5ffd5b80516001600160401b038111156117bc576117bc61174f565b604051600582901b90603f8201601f191681016001600160401b03811182821017156117ea576117ea61174f565b604052918252602081840181019290810187841115611807575f5ffd5b6020850194505b8385101561182d5761181f85611763565b81526020948501940161180e565b509695505050505050565b634e487b7160e01b5f52603260045260245ffd5b5f6020828403121561185c575f5ffd5b815160048110611354575f5ffd5b5f6020828403121561187a575f5ffd5b815160058110611354575f5ffd5b818103818111156107ac57634e487b7160e01b5f52601160045260245ffd5b634e487b7160e01b5f52603160045260245ffdfea2646970667358221220eb2a040e0b885cf6904ba260c6d9f4e98ae0a46f7120a4a94e80f8204d6307fd64736f6c634300081c0033",
  "linkReferences": {},
  "deployedLinkReferences": {}
}