{
  "_format": "hh-sol-artifact-1",
  "contractName": "OrionConfig",
  "sourceName": "contracts/OrionConfig.sol",
  "abi": [
    {
      "inputs": [
        {
          "internalType": "address",
          "name": "initialOwner",
          "type": "address"
        },
        {
          "internalType": "address",
          "name": "underlyingAsset_",
          "type": "address"
        }
      ],
      "stateMutability": "nonpayable",
      "type": "constructor"
    },
    {
      "inputs": [],
      "name": "AlreadyRegistered",
      "type": "error"
    },
    {
      "inputs": [
        {
          "internalType": "address",
          "name": "owner",
          "type": "address"
        }
      ],
      "name": "OwnableInvalidOwner",
      "type": "error"
    },
    {
      "inputs": [
        {
          "internalType": "address",
          "name": "account",
          "type": "address"
        }
      ],
      "name": "OwnableUnauthorizedAccount",
      "type": "error"
    },
    {
      "inputs": [],
      "name": "SystemNotIdle",
      "type": "error"
    },
    {
      "inputs": [
        {
          "internalType": "address",
          "name": "token",
          "type": "address"
        }
      ],
      "name": "TokenNotWhitelisted",
      "type": "error"
    },
    {
      "inputs": [],
      "name": "UnauthorizedAccess",
      "type": "error"
    },
    {
      "inputs": [],
      "name": "ZeroAddress",
      "type": "error"
    },
    {
      "anonymous": false,
      "inputs": [
        {
          "indexed": true,
          "internalType": "address",
          "name": "vault",
          "type": "address"
        }
      ],
      "name": "OrionVaultAdded",
      "type": "event"
    },
    {
      "anonymous": false,
      "inputs": [
        {
          "indexed": true,
          "internalType": "address",
          "name": "vault",
          "type": "address"
        }
      ],
      "name": "OrionVaultRemoved",
      "type": "event"
    },
    {
      "anonymous": false,
      "inputs": [
        {
          "indexed": true,
          "internalType": "address",
          "name": "previousOwner",
          "type": "address"
        },
        {
          "indexed": true,
          "internalType": "address",
          "name": "newOwner",
          "type": "address"
        }
      ],
      "name": "OwnershipTransferred",
      "type": "event"
    },
    {
      "anonymous": false,
      "inputs": [
        {
          "indexed": true,
          "internalType": "uint16",
          "name": "riskFreeRate",
          "type": "uint16"
        }
      ],
      "name": "RiskFreeRateUpdated",
      "type": "event"
    },
    {
      "anonymous": false,
      "inputs": [
        {
          "indexed": true,
          "internalType": "address",
          "name": "asset",
          "type": "address"
        }
      ],
      "name": "WhitelistedAssetAdded",
      "type": "event"
    },
    {
      "anonymous": false,
      "inputs": [
        {
          "indexed": true,
          "internalType": "address",
          "name": "asset",
          "type": "address"
        }
      ],
      "name": "WhitelistedAssetRemoved",
      "type": "event"
    },
    {
      "inputs": [
        {
          "internalType": "address",
          "name": "vault",
          "type": "address"
        },
        {
          "internalType": "enum EventsLib.VaultType",
          "name": "vaultType",
          "type": "uint8"
        }
      ],
      "name": "addOrionVault",
      "outputs": [],
      "stateMutability": "nonpayable",
      "type": "function"
    },
    {
      "inputs": [
        {
          "internalType": "address",
          "name": "asset",
          "type": "address"
        },
        {
          "internalType": "address",
          "name": "priceAdapter",
          "type": "address"
        },
        {
          "internalType": "address",
          "name": "executionAdapter",
          "type": "address"
        }
      ],
      "name": "addWhitelistedAsset",
      "outputs": [],
      "stateMutability": "nonpayable",
      "type": "function"
    },
    {
      "inputs": [
        {
          "internalType": "address",
          "name": "vaultOwner",
          "type": "address"
        }
      ],
      "name": "addWhitelistedVaultOwner",
      "outputs": [],
      "stateMutability": "nonpayable",
      "type": "function"
    },
    {
      "inputs": [],
      "name": "curatorIntentDecimals",
      "outputs": [
        {
          "internalType": "uint8",
          "name": "",
          "type": "uint8"
        }
      ],
      "stateMutability": "view",
      "type": "function"
    },
    {
      "inputs": [
        {
          "internalType": "enum EventsLib.VaultType",
          "name": "vaultType",
          "type": "uint8"
        }
      ],
      "name": "getAllOrionVaults",
      "outputs": [
        {
          "internalType": "address[]",
          "name": "",
          "type": "address[]"
        }
      ],
      "stateMutability": "view",
      "type": "function"
    },
    {
      "inputs": [],
      "name": "getAllWhitelistedAssets",
      "outputs": [
        {
          "internalType": "address[]",
          "name": "assets",
          "type": "address[]"
        }
      ],
      "stateMutability": "view",
      "type": "function"
    },
    {
      "inputs": [
        {
          "internalType": "address",
          "name": "token",
          "type": "address"
        }
      ],
      "name": "getTokenDecimals",
      "outputs": [
        {
          "internalType": "uint8",
          "name": "",
          "type": "uint8"
        }
      ],
      "stateMutability": "view",
      "type": "function"
    },
    {
      "inputs": [],
      "name": "internalStatesOrchestrator",
      "outputs": [
        {
          "internalType": "address",
          "name": "",
          "type": "address"
        }
      ],
      "stateMutability": "view",
      "type": "function"
    },
    {
      "inputs": [
        {
          "internalType": "address",
          "name": "vault",
          "type": "address"
        }
      ],
      "name": "isOrionVault",
      "outputs": [
        {
          "internalType": "bool",
          "name": "",
          "type": "bool"
        }
      ],
      "stateMutability": "view",
      "type": "function"
    },
    {
      "inputs": [],
      "name": "isSystemIdle",
      "outputs": [
        {
          "internalType": "bool",
          "name": "",
          "type": "bool"
        }
      ],
      "stateMutability": "view",
      "type": "function"
    },
    {
      "inputs": [
        {
          "internalType": "address",
          "name": "asset",
          "type": "address"
        }
      ],
      "name": "isWhitelisted",
      "outputs": [
        {
          "internalType": "bool",
          "name": "",
          "type": "bool"
        }
      ],
      "stateMutability": "view",
      "type": "function"
    },
    {
      "inputs": [
        {
          "internalType": "address",
          "name": "vaultOwner",
          "type": "address"
        }
      ],
      "name": "isWhitelistedVaultOwner",
      "outputs": [
        {
          "internalType": "bool",
          "name": "",
          "type": "bool"
        }
      ],
      "stateMutability": "view",
      "type": "function"
    },
    {
      "inputs": [],
      "name": "liquidityOrchestrator",
      "outputs": [
        {
          "internalType": "address",
          "name": "",
          "type": "address"
        }
      ],
      "stateMutability": "view",
      "type": "function"
    },
    {
      "inputs": [],
      "name": "owner",
      "outputs": [
        {
          "internalType": "address",
          "name": "",
          "type": "address"
        }
      ],
      "stateMutability": "view",
      "type": "function"
    },
    {
      "inputs": [],
      "name": "priceAdapterDecimals",
      "outputs": [
        {
          "internalType": "uint8",
          "name": "",
          "type": "uint8"
        }
      ],
      "stateMutability": "view",
      "type": "function"
    },
    {
      "inputs": [],
      "name": "priceAdapterRegistry",
      "outputs": [
        {
          "internalType": "address",
          "name": "",
          "type": "address"
        }
      ],
      "stateMutability": "view",
      "type": "function"
    },
    {
      "inputs": [
        {
          "internalType": "address",
          "name": "vault",
          "type": "address"
        },
        {
          "internalType": "enum EventsLib.VaultType",
          "name": "vaultType",
          "type": "uint8"
        }
      ],
      "name": "removeOrionVault",
      "outputs": [],
      "stateMutability": "nonpayable",
      "type": "function"
    },
    {
      "inputs": [
        {
          "internalType": "address",
          "name": "asset",
          "type": "address"
        }
      ],
      "name": "removeWhitelistedAsset",
      "outputs": [],
      "stateMutability": "nonpayable",
      "type": "function"
    },
    {
      "inputs": [],
      "name": "renounceOwnership",
      "outputs": [],
      "stateMutability": "nonpayable",
      "type": "function"
    },
    {
      "inputs": [],
      "name": "riskFreeRate",
      "outputs": [
        {
          "internalType": "uint16",
          "name": "",
          "type": "uint16"
        }
      ],
      "stateMutability": "view",
      "type": "function"
    },
    {
      "inputs": [
        {
          "internalType": "address",
          "name": "orchestrator",
          "type": "address"
        }
      ],
      "name": "setInternalStatesOrchestrator",
      "outputs": [],
      "stateMutability": "nonpayable",
      "type": "function"
    },
    {
      "inputs": [
        {
          "internalType": "address",
          "name": "orchestrator",
          "type": "address"
        }
      ],
      "name": "setLiquidityOrchestrator",
      "outputs": [],
      "stateMutability": "nonpayable",
      "type": "function"
    },
    {
      "inputs": [
        {
          "internalType": "address",
          "name": "registry",
          "type": "address"
        }
      ],
      "name": "setPriceAdapterRegistry",
      "outputs": [],
      "stateMutability": "nonpayable",
      "type": "function"
    },
    {
      "inputs": [
        {
          "internalType": "uint16",
          "name": "_riskFreeRate",
          "type": "uint16"
        }
      ],
      "name": "setProtocolRiskFreeRate",
      "outputs": [],
      "stateMutability": "nonpayable",
      "type": "function"
    },
    {
      "inputs": [
        {
          "internalType": "address",
          "name": "transparentFactory",
          "type": "address"
        }
      ],
      "name": "setVaultFactory",
      "outputs": [],
      "stateMutability": "nonpayable",
      "type": "function"
    },
    {
      "inputs": [
        {
          "internalType": "address",
          "name": "",
          "type": "address"
        }
      ],
      "name": "tokenDecimals",
      "outputs": [
        {
          "internalType": "uint8",
          "name": "",
          "type": "uint8"
        }
      ],
      "stateMutability": "view",
      "type": "function"
    },
    {
      "inputs": [
        {
          "internalType": "address",
          "name": "newOwner",
          "type": "address"
        }
      ],
      "name": "transferOwnership",
      "outputs": [],
      "stateMutability": "nonpayable",
      "type": "function"
    },
    {
      "inputs": [],
      "name": "transparentVaultFactory",
      "outputs": [
        {
          "internalType": "address",
          "name": "",
          "type": "address"
        }
      ],
      "stateMutability": "view",
      "type": "function"
    },
    {
      "inputs": [],
      "name": "underlyingAsset",
      "outputs": [
        {
          "internalType": "contract IERC20",
          "name": "",
          "type": "address"
        }
      ],
      "stateMutability": "view",
      "type": "function"
    },
    {
      "inputs": [],
      "name": "whitelistedAssetsLength",
      "outputs": [
        {
          "internalType": "uint16",
          "name": "",
          "type": "uint16"
        }
      ],
      "stateMutability": "view",
      "type": "function"
    }
  ],
  "bytecode": "0x608060405234801561000f575f5ffd5b5060405161176b38038061176b83398101604081905261002e91610238565b816001600160a01b03811661005c57604051631e4fbdf760e01b81525f600482015260240160405180910390fd5b61006581610165565b506001600160a01b03811661008d5760405163d92e233d60e01b815260040160405180910390fd5b600180546001600160a01b0319166001600160a01b0383169081179091556005805461ffff60a01b1916610e0960a01b1790556040805163313ce56760e01b8152905163313ce567916004808201926020929091908290030181865afa1580156100f9573d5f5f3e3d5ffd5b505050506040513d601f19601f8201168201806040525081019061011d9190610269565b6001600160a01b0382165f908152600a60205260409020805460ff191660ff929092169190911790556101516006826101b4565b5061015d6008836101b4565b505050610290565b5f80546001600160a01b038381166001600160a01b0319831681178455604051919092169283917f8be0079c531659141344cd1fd0a4f28419497f9722a3daafe3b4186f6b6457e09190a35050565b5f6101c8836001600160a01b0384166101d1565b90505b92915050565b5f81815260018301602052604081205461021657508154600181810184555f8481526020808220909301849055845484825282860190935260409020919091556101cb565b505f6101cb565b80516001600160a01b0381168114610233575f5ffd5b919050565b5f5f60408385031215610249575f5ffd5b6102528361021d565b91506102606020840161021d565b90509250929050565b5f60208284031215610279575f5ffd5b815160ff81168114610289575f5ffd5b9392505050565b6114ce8061029d5f395ff3fe608060405234801561000f575f5ffd5b5060043610610168575f3560e01c8063015df9931461016c5780630a8b78c7146101955780631dbc3c04146101aa5780632095b01e146101bd57806323a06a1c146101d0578063348ec5c8146101e35780633a0dad8e146101f65780633af32abf146102095780633ea7fbdb1461022c57806355fba94e1461023f578063567ba713146102525780635f2483681461027857806366e87e7f14610293578063715018a6146102a65780637158da7c146102ae578063785c7cf6146102c15780637a0cb784146102ec578063849ede23146102ff5780638771de87146103125780638da5cb5b146103255780638ee573ac1461032d578063b6dfcd8b1461034f578063c30dd72714610362578063d1717c7d14610375578063d86cd44e14610389578063e0876b441461039e578063ed04f218146103b1578063edcf9c1f146103c4578063f2fde38b146103cc578063f3cc6993146103df575b5f5ffd5b60055461017f906001600160a01b031681565b60405161018c9190611162565b60405180910390f35b6101a86101a336600461118a565b6103f4565b005b6101a86101b83660046111b8565b61046f565b6101a86101cb36600461118a565b61052c565b6101a86101de3660046111eb565b6105a7565b60025461017f906001600160a01b031681565b60035461017f906001600160a01b031681565b61021c61021736600461118a565b61077a565b604051901515815260200161018c565b6101a861023a36600461118a565b61078c565b6101a861024d36600461118a565b61082c565b60055461026690600160a81b900460ff1681565b60405160ff909116815260200161018c565b610280610864565b60405161ffff909116815260200161018c565b6101a86102a1366004611233565b610874565b6101a86108f1565b60015461017f906001600160a01b031681565b6102666102cf36600461118a565b6001600160a01b03165f908152600a602052604090205460ff1690565b6101a86102fa3660046111b8565b610904565b60045461017f906001600160a01b031681565b61021c61032036600461118a565b6109e6565b61017f6109f2565b61026661033b36600461118a565b600a6020525f908152604090205460ff1681565b6101a861035d36600461118a565b610a00565b6101a861037036600461118a565b610bae565b60055461026690600160a01b900460ff1681565b610391610c29565b60405161018c9190611254565b61021c6103ac36600461118a565b610cdc565b6103916103bf36600461129f565b610cf9565b61021c610dd5565b6101a86103da36600461118a565b610ee6565b60055461028090600160b01b900461ffff1681565b6103fc610f23565b6001600160a01b0381166104235760405163d92e233d60e01b815260040160405180910390fd5b6002546001600160a01b03161561044d57604051630ea075bf60e21b815260040160405180910390fd5b600280546001600160a01b0319166001600160a01b0392909216919091179055565b610477610f23565b61047f610dd5565b61049c576040516312aecd8160e01b815260040160405180910390fd5b5f60018260018111156104b1576104b16112b8565b036104c8576104c1600d84610f55565b90506104d6565b6104d3600b84610f55565b90505b806104f457604051631a27eac360e11b815260040160405180910390fd5b6040516001600160a01b038416907fe47da341e0fc63816c1254f1c35425f69460f49342668d11c984ea56762b00d4905f90a2505050565b610534610f23565b6001600160a01b03811661055b5760405163d92e233d60e01b815260040160405180910390fd5b6005546001600160a01b03161561058557604051630ea075bf60e21b815260040160405180910390fd5b600580546001600160a01b0319166001600160a01b0392909216919091179055565b6105af610f23565b6105b7610dd5565b6105d4576040516312aecd8160e01b815260040160405180910390fd5b5f6105e0600685610f70565b90508061060057604051630ea075bf60e21b815260040160405180910390fd5b836001600160a01b031663313ce5676040518163ffffffff1660e01b8152600401602060405180830381865afa15801561063c573d5f5f3e3d5ffd5b505050506040513d601f19601f8201168201806040525081019061066091906112cc565b6001600160a01b038581165f908152600a602052604090819020805460ff191660ff949094169390931790925560055491516302707eef60e51b8152911690634e0fdde0906106b590879087906004016112ec565b5f604051808303815f87803b1580156106cc575f5ffd5b505af11580156106de573d5f5f3e3d5ffd5b50506003546040516359017aa960e01b81526001600160a01b0390911692506359017aa9915061071490879086906004016112ec565b5f604051808303815f87803b15801561072b575f5ffd5b505af115801561073d573d5f5f3e3d5ffd5b50506040516001600160a01b03871692507fdcbd8d9d0373041250f6c25b6b7aeccb3e9ff291e510ef85bb9f8ac09ceb6f6491505f90a250505050565b5f610786600683610f84565b92915050565b610794610f23565b61079c610dd5565b6107b9576040516312aecd8160e01b815260040160405180910390fd5b6001600160a01b0381166107e05760405163d92e233d60e01b815260040160405180910390fd5b6004546001600160a01b03161561080a57604051630ea075bf60e21b815260040160405180910390fd5b600480546001600160a01b0319166001600160a01b0392909216919091179055565b610834610f23565b5f610840600883610f70565b90508061086057604051630ea075bf60e21b815260040160405180910390fd5b5050565b5f61086f6006610f98565b905090565b61087c610f23565b610884610dd5565b6108a1576040516312aecd8160e01b815260040160405180910390fd5b6005805461ffff60b01b1916600160b01b61ffff84811682029290921792839055604051920416907f6c0e50288cc602be5dd504ce35358e01341e3c4f93e2e02b5a030a59bfdb84e2905f90a250565b6108f9610f23565b6109025f610fa1565b565b6004546001600160a01b0316331461092f57604051631a27eac360e11b815260040160405180910390fd5b6001600160a01b0382166109565760405163d92e233d60e01b815260040160405180910390fd5b5f600182600181111561096b5761096b6112b8565b036109825761097b600d84610f70565b9050610990565b61098d600b84610f70565b90505b806109ae57604051630ea075bf60e21b815260040160405180910390fd5b6040516001600160a01b038416907f9a7094a648c0524f3d62b9167886d30be0e68cf53863fe556edda348f189445a905f90a2505050565b5f610786600883610f84565b5f546001600160a01b031690565b610a08610f23565b610a10610dd5565b610a2d576040516312aecd8160e01b815260040160405180910390fd5b5f610a39600683610f55565b905080610a64578160405163751dff9760e11b8152600401610a5b9190611162565b60405180910390fd5b6001600160a01b0382165f908152600a6020526040808220805460ff1916905551631da09e4360e31b8152309063ed04f21890610aa5908490600401611306565b5f60405180830381865afa158015610abf573d5f5f3e3d5ffd5b505050506040513d5f823e601f3d908101601f19168201604052610ae6919081019061134b565b90505f5b8151811015610b75575f828281518110610b0657610b06611415565b60200260200101519050806001600160a01b031663e3352c4c866040518263ffffffff1660e01b8152600401610b3c9190611162565b5f604051808303815f87803b158015610b53575f5ffd5b505af1158015610b65573d5f5f3e3d5ffd5b5050505050806001019050610aea565b506040516001600160a01b038416907f952363a786fc6f24cfb955cd6207cf91ecee3a82a7dd0bc26891ff7647b5784c905f90a2505050565b610bb6610f23565b6001600160a01b038116610bdd5760405163d92e233d60e01b815260040160405180910390fd5b6003546001600160a01b031615610c0757604051630ea075bf60e21b815260040160405180910390fd5b600380546001600160a01b0319166001600160a01b0392909216919091179055565b60605f610c366006610f98565b90508061ffff166001600160401b03811115610c5457610c5461132c565b604051908082528060200260200182016040528015610c7d578160200160208202803683370190505b5091505f5b8161ffff168161ffff161015610cd757610ca1600661ffff8316610ff0565b838261ffff1681518110610cb757610cb7611415565b6001600160a01b0390921660209283029190910190910152600101610c82565b505090565b5f610ce8600d83610f84565b806107865750610786600b83610f84565b60605f6001836001811115610d1057610d106112b8565b14610d1c57600b610d1f565b600d5b90505f610d2b82610f98565b90505f8161ffff166001600160401b03811115610d4a57610d4a61132c565b604051908082528060200260200182016040528015610d73578160200160208202803683370190505b5090505f5b8261ffff168161ffff161015610dcc57610d968461ffff8316610ff0565b828261ffff1681518110610dac57610dac611415565b6001600160a01b0390921660209283029190910190910152600101610d78565b50949350505050565b5f8060035f9054906101000a90046001600160a01b03166001600160a01b031663055ad42e6040518163ffffffff1660e01b8152600401602060405180830381865afa158015610e27573d5f5f3e3d5ffd5b505050506040513d601f19601f82011682018060405250810190610e4b9190611429565b6003811115610e5c57610e5c6112b8565b14801561086f5750600254604080516302ad6a1760e11b815290515f926001600160a01b03169163055ad42e9160048083019260209291908290030181865afa158015610eab573d5f5f3e3d5ffd5b505050506040513d601f19601f82011682018060405250810190610ecf9190611447565b6004811115610ee057610ee06112b8565b14905090565b610eee610f23565b6001600160a01b038116610f17575f604051631e4fbdf760e01b8152600401610a5b9190611162565b610f2081610fa1565b50565b33610f2c6109f2565b6001600160a01b031614610902573360405163118cdaa760e01b8152600401610a5b9190611162565b5f610f69836001600160a01b038416610ffb565b9392505050565b5f610f69836001600160a01b0384166110de565b5f610f69836001600160a01b038416611125565b5f610786825490565b5f80546001600160a01b038381166001600160a01b0319831681178455604051919092169283917f8be0079c531659141344cd1fd0a4f28419497f9722a3daafe3b4186f6b6457e09190a35050565b5f610f69838361113c565b5f81815260018301602052604081205480156110d5575f61101d600183611465565b85549091505f9061103090600190611465565b905080821461108f575f865f01828154811061104e5761104e611415565b905f5260205f200154905080875f01848154811061106e5761106e611415565b5f918252602080832090910192909255918252600188019052604090208390555b85548690806110a0576110a0611484565b600190038181905f5260205f20015f90559055856001015f8681526020019081526020015f205f905560019350505050610786565b5f915050610786565b5f6110e98383611125565b61111e57508154600181810184555f848152602080822090930184905584548482528286019093526040902091909155610786565b505f610786565b5f9081526001919091016020526040902054151590565b5f825f01828154811061115157611151611415565b905f5260205f200154905092915050565b6001600160a01b0391909116815260200190565b6001600160a01b0381168114610f20575f5ffd5b5f6020828403121561119a575f5ffd5b8135610f6981611176565b8035600281106111b3575f5ffd5b919050565b5f5f604083850312156111c9575f5ffd5b82356111d481611176565b91506111e2602084016111a5565b90509250929050565b5f5f5f606084860312156111fd575f5ffd5b833561120881611176565b9250602084013561121881611176565b9150604084013561122881611176565b809150509250925092565b5f60208284031215611243575f5ffd5b813561ffff81168114610f69575f5ffd5b602080825282518282018190525f918401906040840190835b818110156112945783516001600160a01b031683526020938401939092019160010161126d565b509095945050505050565b5f602082840312156112af575f5ffd5b610f69826111a5565b634e487b7160e01b5f52602160045260245ffd5b5f602082840312156112dc575f5ffd5b815160ff81168114610f69575f5ffd5b6001600160a01b0392831681529116602082015260400190565b602081016002831061132657634e487b7160e01b5f52602160045260245ffd5b91905290565b634e487b7160e01b5f52604160045260245ffd5b80516111b381611176565b5f6020828403121561135b575f5ffd5b81516001600160401b03811115611370575f5ffd5b8201601f81018413611380575f5ffd5b80516001600160401b038111156113995761139961132c565b604051600582901b90603f8201601f191681016001600160401b03811182821017156113c7576113c761132c565b6040529182526020818401810192908101878411156113e4575f5ffd5b6020850194505b8385101561140a576113fc85611340565b8152602094850194016113eb565b509695505050505050565b634e487b7160e01b5f52603260045260245ffd5b5f60208284031215611439575f5ffd5b815160048110610f69575f5ffd5b5f60208284031215611457575f5ffd5b815160058110610f69575f5ffd5b8181038181111561078657634e487b7160e01b5f52601160045260245ffd5b634e487b7160e01b5f52603160045260245ffdfea26469706673582212201961238fd9b513d084f3dfecc10c660d7917104367cff84336f69d8fc8b2920764736f6c634300081c0033",
  "linkReferences": {},
  "deployedLinkReferences": {}
}