{
  "_format": "hh-sol-artifact-1",
  "contractName": "OrionConfig",
  "sourceName": "contracts/OrionConfig.sol",
  "abi": [
    {
      "inputs": [
        {
          "internalType": "address",
          "name": "target",
          "type": "address"
        }
      ],
      "name": "AddressEmptyCode",
      "type": "error"
    },
    {
      "inputs": [],
      "name": "AlreadyAnOrionVault",
      "type": "error"
    },
    {
      "inputs": [],
      "name": "AlreadyWhitelisted",
      "type": "error"
    },
    {
      "inputs": [
        {
          "internalType": "address",
          "name": "implementation",
          "type": "address"
        }
      ],
      "name": "ERC1967InvalidImplementation",
      "type": "error"
    },
    {
      "inputs": [],
      "name": "ERC1967NonPayable",
      "type": "error"
    },
    {
      "inputs": [],
      "name": "FailedCall",
      "type": "error"
    },
    {
      "inputs": [],
      "name": "InvalidInitialization",
      "type": "error"
    },
    {
      "inputs": [],
      "name": "NotAnOrionVault",
      "type": "error"
    },
    {
      "inputs": [],
      "name": "NotFactory",
      "type": "error"
    },
    {
      "inputs": [],
      "name": "NotInitializing",
      "type": "error"
    },
    {
      "inputs": [
        {
          "internalType": "address",
          "name": "owner",
          "type": "address"
        }
      ],
      "name": "OwnableInvalidOwner",
      "type": "error"
    },
    {
      "inputs": [
        {
          "internalType": "address",
          "name": "account",
          "type": "address"
        }
      ],
      "name": "OwnableUnauthorizedAccount",
      "type": "error"
    },
    {
      "inputs": [
        {
          "internalType": "address",
          "name": "token",
          "type": "address"
        }
      ],
      "name": "TokenNotWhitelisted",
      "type": "error"
    },
    {
      "inputs": [],
      "name": "UUPSUnauthorizedCallContext",
      "type": "error"
    },
    {
      "inputs": [
        {
          "internalType": "bytes32",
          "name": "slot",
          "type": "bytes32"
        }
      ],
      "name": "UUPSUnsupportedProxiableUUID",
      "type": "error"
    },
    {
      "inputs": [],
      "name": "ZeroAddress",
      "type": "error"
    },
    {
      "anonymous": false,
      "inputs": [
        {
          "indexed": false,
          "internalType": "uint64",
          "name": "version",
          "type": "uint64"
        }
      ],
      "name": "Initialized",
      "type": "event"
    },
    {
      "anonymous": false,
      "inputs": [
        {
          "indexed": true,
          "internalType": "address",
          "name": "vault",
          "type": "address"
        }
      ],
      "name": "OrionVaultAdded",
      "type": "event"
    },
    {
      "anonymous": false,
      "inputs": [
        {
          "indexed": true,
          "internalType": "address",
          "name": "vault",
          "type": "address"
        }
      ],
      "name": "OrionVaultRemoved",
      "type": "event"
    },
    {
      "anonymous": false,
      "inputs": [
        {
          "indexed": true,
          "internalType": "address",
          "name": "previousOwner",
          "type": "address"
        },
        {
          "indexed": true,
          "internalType": "address",
          "name": "newOwner",
          "type": "address"
        }
      ],
      "name": "OwnershipTransferStarted",
      "type": "event"
    },
    {
      "anonymous": false,
      "inputs": [
        {
          "indexed": true,
          "internalType": "address",
          "name": "previousOwner",
          "type": "address"
        },
        {
          "indexed": true,
          "internalType": "address",
          "name": "newOwner",
          "type": "address"
        }
      ],
      "name": "OwnershipTransferred",
      "type": "event"
    },
    {
      "anonymous": false,
      "inputs": [],
      "name": "ProtocolParamsUpdated",
      "type": "event"
    },
    {
      "anonymous": false,
      "inputs": [
        {
          "indexed": true,
          "internalType": "address",
          "name": "implementation",
          "type": "address"
        }
      ],
      "name": "Upgraded",
      "type": "event"
    },
    {
      "anonymous": false,
      "inputs": [
        {
          "indexed": true,
          "internalType": "address",
          "name": "asset",
          "type": "address"
        }
      ],
      "name": "WhitelistedAssetAdded",
      "type": "event"
    },
    {
      "anonymous": false,
      "inputs": [
        {
          "indexed": true,
          "internalType": "address",
          "name": "asset",
          "type": "address"
        }
      ],
      "name": "WhitelistedAssetRemoved",
      "type": "event"
    },
    {
      "inputs": [],
      "name": "UPGRADE_INTERFACE_VERSION",
      "outputs": [
        {
          "internalType": "string",
          "name": "",
          "type": "string"
        }
      ],
      "stateMutability": "view",
      "type": "function"
    },
    {
      "inputs": [],
      "name": "acceptOwnership",
      "outputs": [],
      "stateMutability": "nonpayable",
      "type": "function"
    },
    {
      "inputs": [
        {
          "internalType": "address",
          "name": "vault",
          "type": "address"
        },
        {
          "internalType": "enum EventsLib.VaultType",
          "name": "vaultType",
          "type": "uint8"
        }
      ],
      "name": "addOrionVault",
      "outputs": [],
      "stateMutability": "nonpayable",
      "type": "function"
    },
    {
      "inputs": [
        {
          "internalType": "address",
          "name": "asset",
          "type": "address"
        }
      ],
      "name": "addWhitelistedAsset",
      "outputs": [],
      "stateMutability": "nonpayable",
      "type": "function"
    },
    {
      "inputs": [],
      "name": "curatorIntentDecimals",
      "outputs": [
        {
          "internalType": "uint8",
          "name": "",
          "type": "uint8"
        }
      ],
      "stateMutability": "view",
      "type": "function"
    },
    {
      "inputs": [
        {
          "internalType": "enum EventsLib.VaultType",
          "name": "vaultType",
          "type": "uint8"
        }
      ],
      "name": "getAllOrionVaults",
      "outputs": [
        {
          "internalType": "address[]",
          "name": "",
          "type": "address[]"
        }
      ],
      "stateMutability": "view",
      "type": "function"
    },
    {
      "inputs": [],
      "name": "getAllWhitelistedAssets",
      "outputs": [
        {
          "internalType": "address[]",
          "name": "assets",
          "type": "address[]"
        }
      ],
      "stateMutability": "view",
      "type": "function"
    },
    {
      "inputs": [
        {
          "internalType": "uint256",
          "name": "index",
          "type": "uint256"
        }
      ],
      "name": "getWhitelistedAssetAt",
      "outputs": [
        {
          "internalType": "address",
          "name": "",
          "type": "address"
        }
      ],
      "stateMutability": "view",
      "type": "function"
    },
    {
      "inputs": [
        {
          "internalType": "address",
          "name": "initialOwner",
          "type": "address"
        }
      ],
      "name": "initialize",
      "outputs": [],
      "stateMutability": "nonpayable",
      "type": "function"
    },
    {
      "inputs": [],
      "name": "internalStatesOrchestrator",
      "outputs": [
        {
          "internalType": "address",
          "name": "",
          "type": "address"
        }
      ],
      "stateMutability": "view",
      "type": "function"
    },
    {
      "inputs": [
        {
          "internalType": "address",
          "name": "vault",
          "type": "address"
        }
      ],
      "name": "isOrionVault",
      "outputs": [
        {
          "internalType": "bool",
          "name": "",
          "type": "bool"
        }
      ],
      "stateMutability": "view",
      "type": "function"
    },
    {
      "inputs": [
        {
          "internalType": "address",
          "name": "asset",
          "type": "address"
        }
      ],
      "name": "isWhitelisted",
      "outputs": [
        {
          "internalType": "bool",
          "name": "",
          "type": "bool"
        }
      ],
      "stateMutability": "view",
      "type": "function"
    },
    {
      "inputs": [],
      "name": "liquidityOrchestrator",
      "outputs": [
        {
          "internalType": "address",
          "name": "",
          "type": "address"
        }
      ],
      "stateMutability": "view",
      "type": "function"
    },
    {
      "inputs": [],
      "name": "oracleRegistry",
      "outputs": [
        {
          "internalType": "address",
          "name": "",
          "type": "address"
        }
      ],
      "stateMutability": "view",
      "type": "function"
    },
    {
      "inputs": [],
      "name": "owner",
      "outputs": [
        {
          "internalType": "address",
          "name": "",
          "type": "address"
        }
      ],
      "stateMutability": "view",
      "type": "function"
    },
    {
      "inputs": [],
      "name": "pendingOwner",
      "outputs": [
        {
          "internalType": "address",
          "name": "",
          "type": "address"
        }
      ],
      "stateMutability": "view",
      "type": "function"
    },
    {
      "inputs": [],
      "name": "proxiableUUID",
      "outputs": [
        {
          "internalType": "bytes32",
          "name": "",
          "type": "bytes32"
        }
      ],
      "stateMutability": "view",
      "type": "function"
    },
    {
      "inputs": [
        {
          "internalType": "address",
          "name": "vault",
          "type": "address"
        },
        {
          "internalType": "enum EventsLib.VaultType",
          "name": "vaultType",
          "type": "uint8"
        }
      ],
      "name": "removeOrionVault",
      "outputs": [],
      "stateMutability": "nonpayable",
      "type": "function"
    },
    {
      "inputs": [
        {
          "internalType": "address",
          "name": "asset",
          "type": "address"
        }
      ],
      "name": "removeWhitelistedAsset",
      "outputs": [],
      "stateMutability": "nonpayable",
      "type": "function"
    },
    {
      "inputs": [],
      "name": "renounceOwnership",
      "outputs": [],
      "stateMutability": "nonpayable",
      "type": "function"
    },
    {
      "inputs": [
        {
          "internalType": "address",
          "name": "underlyingAsset_",
          "type": "address"
        },
        {
          "internalType": "address",
          "name": "internalStatesOrchestrator_",
          "type": "address"
        },
        {
          "internalType": "address",
          "name": "liquidityOrchestrator_",
          "type": "address"
        },
        {
          "internalType": "uint8",
          "name": "curatorIntentDecimals_",
          "type": "uint8"
        },
        {
          "internalType": "address",
          "name": "factory_",
          "type": "address"
        },
        {
          "internalType": "address",
          "name": "oracleRegistry_",
          "type": "address"
        }
      ],
      "name": "setProtocolParams",
      "outputs": [],
      "stateMutability": "nonpayable",
      "type": "function"
    },
    {
      "inputs": [
        {
          "internalType": "address",
          "name": "newOwner",
          "type": "address"
        }
      ],
      "name": "transferOwnership",
      "outputs": [],
      "stateMutability": "nonpayable",
      "type": "function"
    },
    {
      "inputs": [],
      "name": "underlyingAsset",
      "outputs": [
        {
          "internalType": "contract IERC20",
          "name": "",
          "type": "address"
        }
      ],
      "stateMutability": "view",
      "type": "function"
    },
    {
      "inputs": [
        {
          "internalType": "address",
          "name": "newImplementation",
          "type": "address"
        },
        {
          "internalType": "bytes",
          "name": "data",
          "type": "bytes"
        }
      ],
      "name": "upgradeToAndCall",
      "outputs": [],
      "stateMutability": "payable",
      "type": "function"
    },
    {
      "inputs": [],
      "name": "vaultFactory",
      "outputs": [
        {
          "internalType": "address",
          "name": "",
          "type": "address"
        }
      ],
      "stateMutability": "view",
      "type": "function"
    },
    {
      "inputs": [],
      "name": "whitelistedAssetsLength",
      "outputs": [
        {
          "internalType": "uint256",
          "name": "",
          "type": "uint256"
        }
      ],
      "stateMutability": "view",
      "type": "function"
    }
  ],
  "bytecode": "0x60a0604052306080523480156012575f5ffd5b506080516117936100395f395f8181610daa01528181610dd30152610f1701526117935ff3fe60806040526004361061017b575f3560e01c80637ea524c4116100cd578063d1717c7d11610087578063e0876b4411610062578063e0876b4414610455578063e30c397814610474578063ed04f21814610488578063f2fde38b146104a7575f5ffd5b8063d1717c7d146103e3578063d86cd44e14610415578063d8a06f7314610436575f5ffd5b80637ea524c4146103165780638da5cb5b14610335578063ad3cb1cc14610349578063b6dfcd8b14610386578063bfba8f66146103a5578063c4d66de8146103c4575f5ffd5b80634f1ef28611610138578063715018a611610113578063715018a6146102b15780637158da7c146102c557806379ba5097146102e35780637a0cb784146102f7575f5ffd5b80634f1ef2861461026857806352d1902d1461027b5780635f2483681461029d575f5ffd5b80630a567a2d1461017f5780631dbc3c04146101bb578063348ec5c8146101dc5780633a0dad8e146101fb5780633af32abf1461021a5780634bb93ab114610249575b5f5ffd5b34801561018a575f5ffd5b5061019e61019936600461141f565b6104c6565b6040516001600160a01b0390911681526020015b60405180910390f35b3480156101c6575f5ffd5b506101da6101d536600461145f565b6104d8565b005b3480156101e7575f5ffd5b5060015461019e906001600160a01b031681565b348015610206575f5ffd5b5060025461019e906001600160a01b031681565b348015610225575f5ffd5b50610239610234366004611490565b610593565b60405190151581526020016101b2565b348015610254575f5ffd5b5060045461019e906001600160a01b031681565b6101da6102763660046114bd565b61059f565b348015610286575f5ffd5b5061028f6105be565b6040519081526020016101b2565b3480156102a8575f5ffd5b5061028f6105d9565b3480156102bc575f5ffd5b506101da6105e9565b3480156102d0575f5ffd5b505f5461019e906001600160a01b031681565b3480156102ee575f5ffd5b506101da6105fc565b348015610302575f5ffd5b506101da61031136600461145f565b610649565b348015610321575f5ffd5b506101da61033036600461158f565b61072b565b348015610340575f5ffd5b5061019e610907565b348015610354575f5ffd5b50610379604051806040016040528060058152602001640352e302e360dc1b81525081565b6040516101b29190611601565b348015610391575f5ffd5b506101da6103a0366004611490565b61093b565b3480156103b0575f5ffd5b506101da6103bf366004611490565b6109b1565b3480156103cf575f5ffd5b506101da6103de366004611490565b610a1c565b3480156103ee575f5ffd5b5060045461040390600160a01b900460ff1681565b60405160ff90911681526020016101b2565b348015610420575f5ffd5b50610429610b25565b6040516101b29190611636565b348015610441575f5ffd5b5060035461019e906001600160a01b031681565b348015610460575f5ffd5b5061023961046f366004611490565b610bc5565b34801561047f575f5ffd5b5061019e610be2565b348015610493575f5ffd5b506104296104a2366004611681565b610c0a565b3480156104b2575f5ffd5b506101da6104c1366004611490565b610cd3565b5f6104d2600583610d58565b92915050565b6003546001600160a01b0316331461050357604051631966391b60e11b815260040160405180910390fd5b5f60018260018111156105185761051861169a565b0361052f57610528600984610d6a565b905061053d565b61053a600784610d6a565b90505b8061055b57604051632fa1facb60e01b815260040160405180910390fd5b6040516001600160a01b038416907fe47da341e0fc63816c1254f1c35425f69460f49342668d11c984ea56762b00d4905f90a2505050565b5f6104d2600583610d7e565b6105a7610d9f565b6105b082610e43565b6105ba8282610e4b565b5050565b5f6105c7610f0c565b505f51602061173e5f395f51905f5290565b5f6105e46005610f55565b905090565b6105f1610f5e565b6105fa5f610f90565b565b3380610606610be2565b6001600160a01b03161461063d5760405163118cdaa760e01b81526001600160a01b03821660048201526024015b60405180910390fd5b61064681610f90565b50565b6003546001600160a01b0316331461067457604051631966391b60e11b815260040160405180910390fd5b6001600160a01b03821661069b5760405163d92e233d60e01b815260040160405180910390fd5b5f60018260018111156106b0576106b061169a565b036106c7576106c0600984610fc8565b90506106d5565b6106d2600784610fc8565b90505b806106f357604051633c0c06e960e21b815260040160405180910390fd5b6040516001600160a01b038416907f9a7094a648c0524f3d62b9167886d30be0e68cf53863fe556edda348f189445a905f90a2505050565b610733610f5e565b6001600160a01b03861661075a5760405163d92e233d60e01b815260040160405180910390fd5b6001600160a01b0385166107815760405163d92e233d60e01b815260040160405180910390fd5b6001600160a01b0384166107a85760405163d92e233d60e01b815260040160405180910390fd5b6001600160a01b0382166107cf5760405163d92e233d60e01b815260040160405180910390fd5b6001600160a01b0381166107f65760405163d92e233d60e01b815260040160405180910390fd5b5f80546001600160a01b03199081166001600160a01b0389811691821784556001805484168a831617905560028054909316908816179091556040805163313ce56760e01b8152905163313ce567916004808201926020929091908290030181865afa158015610868573d5f5f3e3d5ffd5b505050506040513d601f19601f8201168201806040525081019061088c91906116ae565b60048054600380546001600160a01b038089166001600160a01b03199283161790925590861660ff8916600160a01b02919091166001600160a81b0319909216919091171790556040519091507fc56626e36ca25ee9a19c58d2d4f9a4569523b059e6aaeb263573ded93fc33c5a905f90a150505050505050565b5f807f9016d09d72d40fdae2fd8ceac6b6234c7706214fd39c1cd1e609a0528c1993005b546001600160a01b031692915050565b610943610f5e565b5f61094f600583610d6a565b90508061097a5760405163751dff9760e11b81526001600160a01b0383166004820152602401610634565b6040516001600160a01b038316907f952363a786fc6f24cfb955cd6207cf91ecee3a82a7dd0bc26891ff7647b5784c905f90a25050565b6109b9610f5e565b5f6109c5600583610fc8565b9050806109e55760405163b73e95e160e01b815260040160405180910390fd5b6040516001600160a01b038316907fdcbd8d9d0373041250f6c25b6b7aeccb3e9ff291e510ef85bb9f8ac09ceb6f64905f90a25050565b5f610a25610fdc565b805490915060ff600160401b820416159067ffffffffffffffff165f81158015610a4c5750825b90505f8267ffffffffffffffff166001148015610a685750303b155b905081158015610a76575080155b15610a945760405163f92ee8a960e01b815260040160405180910390fd5b845467ffffffffffffffff191660011785558315610abe57845460ff60401b1916600160401b1785555b610ac786611004565b610acf611015565b610ad7611015565b8315610b1d57845460ff60401b19168555604051600181527fc7f505b2f371ae2175ee4913f4499e1f2633a7b5936321eed1cdaeb6115181d29060200160405180910390a15b505050505050565b60605f610b326005610f55565b90508067ffffffffffffffff811115610b4d57610b4d6114a9565b604051908082528060200260200182016040528015610b76578160200160208202803683370190505b5091505f5b81811015610bc057610b8e600582610d58565b838281518110610ba057610ba06116c9565b6001600160a01b0390921660209283029190910190910152600101610b7b565b505090565b5f610bd1600983610d7e565b806104d257506104d2600783610d7e565b5f807f237e158222e3e6968b72b9db0d8043aacf074ad9f650f0d1606b4d82ee432c0061092b565b60605f6001836001811115610c2157610c2161169a565b14610c2d576007610c30565b60095b90505f610c3c82610f55565b90505f8167ffffffffffffffff811115610c5857610c586114a9565b604051908082528060200260200182016040528015610c81578160200160208202803683370190505b5090505f5b82811015610cca57610c988482610d58565b828281518110610caa57610caa6116c9565b6001600160a01b0390921660209283029190910190910152600101610c86565b50949350505050565b610cdb610f5e565b7f237e158222e3e6968b72b9db0d8043aacf074ad9f650f0d1606b4d82ee432c0080546001600160a01b0319166001600160a01b0383169081178255610d1f610907565b6001600160a01b03167f38d16b8cac22d99fc7c124b9cd0de2d3fa1faef420bfe791d8c362d765e2270060405160405180910390a35050565b5f610d63838361101d565b9392505050565b5f610d63836001600160a01b038416611043565b6001600160a01b0381165f9081526001830160205260408120541515610d63565b306001600160a01b037f0000000000000000000000000000000000000000000000000000000000000000161480610e2557507f00000000000000000000000000000000000000000000000000000000000000006001600160a01b0316610e195f51602061173e5f395f51905f52546001600160a01b031690565b6001600160a01b031614155b156105fa5760405163703e46dd60e11b815260040160405180910390fd5b610646610f5e565b816001600160a01b03166352d1902d6040518163ffffffff1660e01b8152600401602060405180830381865afa925050508015610ea5575060408051601f3d908101601f19168201909252610ea2918101906116dd565b60015b610ecd57604051634c9c8ce360e01b81526001600160a01b0383166004820152602401610634565b5f51602061173e5f395f51905f528114610efd57604051632a87526960e21b815260048101829052602401610634565b610f078383611126565b505050565b306001600160a01b037f000000000000000000000000000000000000000000000000000000000000000016146105fa5760405163703e46dd60e11b815260040160405180910390fd5b5f6104d2825490565b33610f67610907565b6001600160a01b0316146105fa5760405163118cdaa760e01b8152336004820152602401610634565b7f237e158222e3e6968b72b9db0d8043aacf074ad9f650f0d1606b4d82ee432c0080546001600160a01b03191681556105ba8261117b565b5f610d63836001600160a01b0384166111eb565b5f807ff0c57e16840df040f15088dc2f81fe391c3923bec73e23a9662efc9c229c6a006104d2565b61100c611237565b6106468161125c565b6105fa611237565b5f825f018281548110611032576110326116c9565b905f5260205f200154905092915050565b5f818152600183016020526040812054801561111d575f6110656001836116f4565b85549091505f90611078906001906116f4565b90508082146110d7575f865f018281548110611096576110966116c9565b905f5260205f200154905080875f0184815481106110b6576110b66116c9565b5f918252602080832090910192909255918252600188019052604090208390555b85548690806110e8576110e8611713565b600190038181905f5260205f20015f90559055856001015f8681526020019081526020015f205f9055600193505050506104d2565b5f9150506104d2565b61112f8261128d565b6040516001600160a01b038316907fbc7cd75a20ee27fd9adebab32041f755214dbc6bffa90cc0225b39da2e5c2d3b905f90a280511561117357610f0782826112f0565b6105ba611362565b7f9016d09d72d40fdae2fd8ceac6b6234c7706214fd39c1cd1e609a0528c19930080546001600160a01b031981166001600160a01b03848116918217845560405192169182907f8be0079c531659141344cd1fd0a4f28419497f9722a3daafe3b4186f6b6457e0905f90a3505050565b5f81815260018301602052604081205461123057508154600181810184555f8481526020808220909301849055845484825282860190935260409020919091556104d2565b505f6104d2565b61123f611381565b6105fa57604051631afcd79f60e31b815260040160405180910390fd5b611264611237565b6001600160a01b03811661063d57604051631e4fbdf760e01b81525f6004820152602401610634565b806001600160a01b03163b5f036112c257604051634c9c8ce360e01b81526001600160a01b0382166004820152602401610634565b5f51602061173e5f395f51905f5280546001600160a01b0319166001600160a01b0392909216919091179055565b60605f5f846001600160a01b03168460405161130c9190611727565b5f60405180830381855af49150503d805f8114611344576040519150601f19603f3d011682016040523d82523d5f602084013e611349565b606091505b509150915061135985838361139a565b95945050505050565b34156105fa5760405163b398979f60e01b815260040160405180910390fd5b5f61138a610fdc565b54600160401b900460ff16919050565b6060826113af576113aa826113f6565b610d63565b81511580156113c657506001600160a01b0384163b155b156113ef57604051639996b31560e01b81526001600160a01b0385166004820152602401610634565b5092915050565b8051156114065780518082602001fd5b60405163d6bda27560e01b815260040160405180910390fd5b5f6020828403121561142f575f5ffd5b5035919050565b80356001600160a01b038116811461144c575f5ffd5b919050565b80356002811061144c575f5ffd5b5f5f60408385031215611470575f5ffd5b61147983611436565b915061148760208401611451565b90509250929050565b5f602082840312156114a0575f5ffd5b610d6382611436565b634e487b7160e01b5f52604160045260245ffd5b5f5f604083850312156114ce575f5ffd5b6114d783611436565b9150602083013567ffffffffffffffff8111156114f2575f5ffd5b8301601f81018513611502575f5ffd5b803567ffffffffffffffff81111561151c5761151c6114a9565b604051601f8201601f19908116603f0116810167ffffffffffffffff8111828210171561154b5761154b6114a9565b604052818152828201602001871015611562575f5ffd5b816020840160208301375f602083830101528093505050509250929050565b60ff81168114610646575f5ffd5b5f5f5f5f5f5f60c087890312156115a4575f5ffd5b6115ad87611436565b95506115bb60208801611436565b94506115c960408801611436565b935060608701356115d981611581565b92506115e760808801611436565b91506115f560a08801611436565b90509295509295509295565b602081525f82518060208401528060208501604085015e5f604082850101526040601f19601f83011684010191505092915050565b602080825282518282018190525f918401906040840190835b818110156116765783516001600160a01b031683526020938401939092019160010161164f565b509095945050505050565b5f60208284031215611691575f5ffd5b610d6382611451565b634e487b7160e01b5f52602160045260245ffd5b5f602082840312156116be575f5ffd5b8151610d6381611581565b634e487b7160e01b5f52603260045260245ffd5b5f602082840312156116ed575f5ffd5b5051919050565b818103818111156104d257634e487b7160e01b5f52601160045260245ffd5b634e487b7160e01b5f52603160045260245ffd5b5f82518060208501845e5f92019182525091905056fe360894a13ba1a3210667c828492db98dca3e2076cc3735a920a3ca505d382bbca2646970667358221220fe06b157f296f5ae18bbd881a915fc947497b3044d65fb9b14db57f99b18f58664736f6c634300081c0033",
  "linkReferences": {},
  "deployedLinkReferences": {}
}