{
  "_format": "hh-sol-artifact-1",
  "contractName": "OrionConfig",
  "sourceName": "contracts/OrionConfig.sol",
  "abi": [
    {
      "inputs": [
        {
          "internalType": "address",
          "name": "initialOwner",
          "type": "address"
        },
        {
          "internalType": "address",
          "name": "admin_",
          "type": "address"
        },
        {
          "internalType": "address",
          "name": "underlyingAsset_",
          "type": "address"
        }
      ],
      "stateMutability": "nonpayable",
      "type": "constructor"
    },
    {
      "inputs": [],
      "name": "AlreadyRegistered",
      "type": "error"
    },
    {
      "inputs": [],
      "name": "InvalidAddress",
      "type": "error"
    },
    {
      "inputs": [],
      "name": "InvalidArguments",
      "type": "error"
    },
    {
      "inputs": [],
      "name": "NotAuthorized",
      "type": "error"
    },
    {
      "inputs": [
        {
          "internalType": "address",
          "name": "owner",
          "type": "address"
        }
      ],
      "name": "OwnableInvalidOwner",
      "type": "error"
    },
    {
      "inputs": [
        {
          "internalType": "address",
          "name": "account",
          "type": "address"
        }
      ],
      "name": "OwnableUnauthorizedAccount",
      "type": "error"
    },
    {
      "inputs": [],
      "name": "SystemNotIdle",
      "type": "error"
    },
    {
      "inputs": [
        {
          "internalType": "address",
          "name": "token",
          "type": "address"
        }
      ],
      "name": "TokenNotWhitelisted",
      "type": "error"
    },
    {
      "inputs": [],
      "name": "ZeroAddress",
      "type": "error"
    },
    {
      "anonymous": false,
      "inputs": [
        {
          "indexed": true,
          "internalType": "uint256",
          "name": "newCooldownDuration",
          "type": "uint256"
        }
      ],
      "name": "FeeChangeCooldownDurationUpdated",
      "type": "event"
    },
    {
      "anonymous": false,
      "inputs": [
        {
          "indexed": true,
          "internalType": "address",
          "name": "guardian",
          "type": "address"
        }
      ],
      "name": "GuardianUpdated",
      "type": "event"
    },
    {
      "anonymous": false,
      "inputs": [
        {
          "indexed": true,
          "internalType": "uint256",
          "name": "maxFulfillBatchSize",
          "type": "uint256"
        }
      ],
      "name": "MaxFulfillBatchSizeUpdated",
      "type": "event"
    },
    {
      "anonymous": false,
      "inputs": [
        {
          "indexed": true,
          "internalType": "uint256",
          "name": "minDepositAmount",
          "type": "uint256"
        }
      ],
      "name": "MinDepositAmountUpdated",
      "type": "event"
    },
    {
      "anonymous": false,
      "inputs": [
        {
          "indexed": true,
          "internalType": "uint256",
          "name": "minRedeemAmount",
          "type": "uint256"
        }
      ],
      "name": "MinRedeemAmountUpdated",
      "type": "event"
    },
    {
      "anonymous": false,
      "inputs": [
        {
          "indexed": true,
          "internalType": "address",
          "name": "vault",
          "type": "address"
        }
      ],
      "name": "OrionVaultAdded",
      "type": "event"
    },
    {
      "anonymous": false,
      "inputs": [
        {
          "indexed": true,
          "internalType": "address",
          "name": "previousOwner",
          "type": "address"
        },
        {
          "indexed": true,
          "internalType": "address",
          "name": "newOwner",
          "type": "address"
        }
      ],
      "name": "OwnershipTransferStarted",
      "type": "event"
    },
    {
      "anonymous": false,
      "inputs": [
        {
          "indexed": true,
          "internalType": "address",
          "name": "previousOwner",
          "type": "address"
        },
        {
          "indexed": true,
          "internalType": "address",
          "name": "newOwner",
          "type": "address"
        }
      ],
      "name": "OwnershipTransferred",
      "type": "event"
    },
    {
      "anonymous": false,
      "inputs": [
        {
          "indexed": true,
          "internalType": "address",
          "name": "pauser",
          "type": "address"
        }
      ],
      "name": "ProtocolPaused",
      "type": "event"
    },
    {
      "anonymous": false,
      "inputs": [
        {
          "indexed": true,
          "internalType": "address",
          "name": "unpauser",
          "type": "address"
        }
      ],
      "name": "ProtocolUnpaused",
      "type": "event"
    },
    {
      "anonymous": false,
      "inputs": [
        {
          "indexed": true,
          "internalType": "uint16",
          "name": "riskFreeRate",
          "type": "uint16"
        }
      ],
      "name": "RiskFreeRateUpdated",
      "type": "event"
    },
    {
      "anonymous": false,
      "inputs": [
        {
          "indexed": true,
          "internalType": "address",
          "name": "vaultOwner",
          "type": "address"
        }
      ],
      "name": "VaultOwnerRemoved",
      "type": "event"
    },
    {
      "anonymous": false,
      "inputs": [
        {
          "indexed": true,
          "internalType": "address",
          "name": "asset",
          "type": "address"
        }
      ],
      "name": "WhitelistedAssetAdded",
      "type": "event"
    },
    {
      "anonymous": false,
      "inputs": [
        {
          "indexed": true,
          "internalType": "address",
          "name": "asset",
          "type": "address"
        }
      ],
      "name": "WhitelistedAssetRemoved",
      "type": "event"
    },
    {
      "inputs": [],
      "name": "MAX_RISK_FREE_RATE",
      "outputs": [
        {
          "internalType": "uint16",
          "name": "",
          "type": "uint16"
        }
      ],
      "stateMutability": "view",
      "type": "function"
    },
    {
      "inputs": [],
      "name": "acceptOwnership",
      "outputs": [],
      "stateMutability": "nonpayable",
      "type": "function"
    },
    {
      "inputs": [
        {
          "internalType": "address",
          "name": "vault",
          "type": "address"
        },
        {
          "internalType": "enum EventsLib.VaultType",
          "name": "vaultType",
          "type": "uint8"
        }
      ],
      "name": "addOrionVault",
      "outputs": [],
      "stateMutability": "nonpayable",
      "type": "function"
    },
    {
      "inputs": [
        {
          "internalType": "address",
          "name": "asset",
          "type": "address"
        },
        {
          "internalType": "address",
          "name": "priceAdapter",
          "type": "address"
        },
        {
          "internalType": "address",
          "name": "executionAdapter",
          "type": "address"
        }
      ],
      "name": "addWhitelistedAsset",
      "outputs": [],
      "stateMutability": "nonpayable",
      "type": "function"
    },
    {
      "inputs": [
        {
          "internalType": "address",
          "name": "vaultOwner",
          "type": "address"
        }
      ],
      "name": "addWhitelistedVaultOwner",
      "outputs": [],
      "stateMutability": "nonpayable",
      "type": "function"
    },
    {
      "inputs": [],
      "name": "admin",
      "outputs": [
        {
          "internalType": "address",
          "name": "",
          "type": "address"
        }
      ],
      "stateMutability": "view",
      "type": "function"
    },
    {
      "inputs": [
        {
          "internalType": "address",
          "name": "vault",
          "type": "address"
        }
      ],
      "name": "completeVaultDecommissioning",
      "outputs": [],
      "stateMutability": "nonpayable",
      "type": "function"
    },
    {
      "inputs": [],
      "name": "curatorIntentDecimals",
      "outputs": [
        {
          "internalType": "uint8",
          "name": "",
          "type": "uint8"
        }
      ],
      "stateMutability": "view",
      "type": "function"
    },
    {
      "inputs": [],
      "name": "feeChangeCooldownDuration",
      "outputs": [
        {
          "internalType": "uint256",
          "name": "",
          "type": "uint256"
        }
      ],
      "stateMutability": "view",
      "type": "function"
    },
    {
      "inputs": [
        {
          "internalType": "enum EventsLib.VaultType",
          "name": "vaultType",
          "type": "uint8"
        }
      ],
      "name": "getAllOrionVaults",
      "outputs": [
        {
          "internalType": "address[]",
          "name": "",
          "type": "address[]"
        }
      ],
      "stateMutability": "view",
      "type": "function"
    },
    {
      "inputs": [],
      "name": "getAllWhitelistedAssets",
      "outputs": [
        {
          "internalType": "address[]",
          "name": "assets",
          "type": "address[]"
        }
      ],
      "stateMutability": "view",
      "type": "function"
    },
    {
      "inputs": [
        {
          "internalType": "address",
          "name": "token",
          "type": "address"
        }
      ],
      "name": "getTokenDecimals",
      "outputs": [
        {
          "internalType": "uint8",
          "name": "",
          "type": "uint8"
        }
      ],
      "stateMutability": "view",
      "type": "function"
    },
    {
      "inputs": [],
      "name": "guardian",
      "outputs": [
        {
          "internalType": "address",
          "name": "",
          "type": "address"
        }
      ],
      "stateMutability": "view",
      "type": "function"
    },
    {
      "inputs": [],
      "name": "internalStatesOrchestrator",
      "outputs": [
        {
          "internalType": "address",
          "name": "",
          "type": "address"
        }
      ],
      "stateMutability": "view",
      "type": "function"
    },
    {
      "inputs": [
        {
          "internalType": "address",
          "name": "vault",
          "type": "address"
        }
      ],
      "name": "isDecommissionedVault",
      "outputs": [
        {
          "internalType": "bool",
          "name": "",
          "type": "bool"
        }
      ],
      "stateMutability": "view",
      "type": "function"
    },
    {
      "inputs": [
        {
          "internalType": "address",
          "name": "vault",
          "type": "address"
        }
      ],
      "name": "isDecommissioningVault",
      "outputs": [
        {
          "internalType": "bool",
          "name": "",
          "type": "bool"
        }
      ],
      "stateMutability": "view",
      "type": "function"
    },
    {
      "inputs": [
        {
          "internalType": "address",
          "name": "vault",
          "type": "address"
        }
      ],
      "name": "isOrionVault",
      "outputs": [
        {
          "internalType": "bool",
          "name": "",
          "type": "bool"
        }
      ],
      "stateMutability": "view",
      "type": "function"
    },
    {
      "inputs": [],
      "name": "isSystemIdle",
      "outputs": [
        {
          "internalType": "bool",
          "name": "",
          "type": "bool"
        }
      ],
      "stateMutability": "view",
      "type": "function"
    },
    {
      "inputs": [
        {
          "internalType": "address",
          "name": "asset",
          "type": "address"
        }
      ],
      "name": "isWhitelisted",
      "outputs": [
        {
          "internalType": "bool",
          "name": "",
          "type": "bool"
        }
      ],
      "stateMutability": "view",
      "type": "function"
    },
    {
      "inputs": [
        {
          "internalType": "address",
          "name": "vaultOwner",
          "type": "address"
        }
      ],
      "name": "isWhitelistedVaultOwner",
      "outputs": [
        {
          "internalType": "bool",
          "name": "",
          "type": "bool"
        }
      ],
      "stateMutability": "view",
      "type": "function"
    },
    {
      "inputs": [],
      "name": "liquidityOrchestrator",
      "outputs": [
        {
          "internalType": "address",
          "name": "",
          "type": "address"
        }
      ],
      "stateMutability": "view",
      "type": "function"
    },
    {
      "inputs": [],
      "name": "maxFulfillBatchSize",
      "outputs": [
        {
          "internalType": "uint256",
          "name": "",
          "type": "uint256"
        }
      ],
      "stateMutability": "view",
      "type": "function"
    },
    {
      "inputs": [],
      "name": "minDepositAmount",
      "outputs": [
        {
          "internalType": "uint256",
          "name": "",
          "type": "uint256"
        }
      ],
      "stateMutability": "view",
      "type": "function"
    },
    {
      "inputs": [],
      "name": "minRedeemAmount",
      "outputs": [
        {
          "internalType": "uint256",
          "name": "",
          "type": "uint256"
        }
      ],
      "stateMutability": "view",
      "type": "function"
    },
    {
      "inputs": [],
      "name": "owner",
      "outputs": [
        {
          "internalType": "address",
          "name": "",
          "type": "address"
        }
      ],
      "stateMutability": "view",
      "type": "function"
    },
    {
      "inputs": [],
      "name": "pauseAll",
      "outputs": [],
      "stateMutability": "nonpayable",
      "type": "function"
    },
    {
      "inputs": [],
      "name": "pendingOwner",
      "outputs": [
        {
          "internalType": "address",
          "name": "",
          "type": "address"
        }
      ],
      "stateMutability": "view",
      "type": "function"
    },
    {
      "inputs": [],
      "name": "priceAdapterDecimals",
      "outputs": [
        {
          "internalType": "uint8",
          "name": "",
          "type": "uint8"
        }
      ],
      "stateMutability": "view",
      "type": "function"
    },
    {
      "inputs": [],
      "name": "priceAdapterRegistry",
      "outputs": [
        {
          "internalType": "address",
          "name": "",
          "type": "address"
        }
      ],
      "stateMutability": "view",
      "type": "function"
    },
    {
      "inputs": [
        {
          "internalType": "address",
          "name": "vault",
          "type": "address"
        }
      ],
      "name": "removeOrionVault",
      "outputs": [],
      "stateMutability": "nonpayable",
      "type": "function"
    },
    {
      "inputs": [
        {
          "internalType": "address",
          "name": "asset",
          "type": "address"
        }
      ],
      "name": "removeWhitelistedAsset",
      "outputs": [],
      "stateMutability": "nonpayable",
      "type": "function"
    },
    {
      "inputs": [
        {
          "internalType": "address",
          "name": "vaultOwner",
          "type": "address"
        }
      ],
      "name": "removeWhitelistedVaultOwner",
      "outputs": [],
      "stateMutability": "nonpayable",
      "type": "function"
    },
    {
      "inputs": [],
      "name": "renounceOwnership",
      "outputs": [],
      "stateMutability": "nonpayable",
      "type": "function"
    },
    {
      "inputs": [],
      "name": "riskFreeRate",
      "outputs": [
        {
          "internalType": "uint16",
          "name": "",
          "type": "uint16"
        }
      ],
      "stateMutability": "view",
      "type": "function"
    },
    {
      "inputs": [
        {
          "internalType": "uint256",
          "name": "duration",
          "type": "uint256"
        }
      ],
      "name": "setFeeChangeCooldownDuration",
      "outputs": [],
      "stateMutability": "nonpayable",
      "type": "function"
    },
    {
      "inputs": [
        {
          "internalType": "address",
          "name": "_guardian",
          "type": "address"
        }
      ],
      "name": "setGuardian",
      "outputs": [],
      "stateMutability": "nonpayable",
      "type": "function"
    },
    {
      "inputs": [
        {
          "internalType": "address",
          "name": "orchestrator",
          "type": "address"
        }
      ],
      "name": "setInternalStatesOrchestrator",
      "outputs": [],
      "stateMutability": "nonpayable",
      "type": "function"
    },
    {
      "inputs": [
        {
          "internalType": "address",
          "name": "orchestrator",
          "type": "address"
        }
      ],
      "name": "setLiquidityOrchestrator",
      "outputs": [],
      "stateMutability": "nonpayable",
      "type": "function"
    },
    {
      "inputs": [
        {
          "internalType": "uint256",
          "name": "size",
          "type": "uint256"
        }
      ],
      "name": "setMaxFulfillBatchSize",
      "outputs": [],
      "stateMutability": "nonpayable",
      "type": "function"
    },
    {
      "inputs": [
        {
          "internalType": "uint256",
          "name": "amount",
          "type": "uint256"
        }
      ],
      "name": "setMinDepositAmount",
      "outputs": [],
      "stateMutability": "nonpayable",
      "type": "function"
    },
    {
      "inputs": [
        {
          "internalType": "uint256",
          "name": "amount",
          "type": "uint256"
        }
      ],
      "name": "setMinRedeemAmount",
      "outputs": [],
      "stateMutability": "nonpayable",
      "type": "function"
    },
    {
      "inputs": [
        {
          "internalType": "address",
          "name": "registry",
          "type": "address"
        }
      ],
      "name": "setPriceAdapterRegistry",
      "outputs": [],
      "stateMutability": "nonpayable",
      "type": "function"
    },
    {
      "inputs": [
        {
          "internalType": "uint16",
          "name": "_riskFreeRate",
          "type": "uint16"
        }
      ],
      "name": "setProtocolRiskFreeRate",
      "outputs": [],
      "stateMutability": "nonpayable",
      "type": "function"
    },
    {
      "inputs": [
        {
          "internalType": "address",
          "name": "transparentFactory",
          "type": "address"
        }
      ],
      "name": "setVaultFactory",
      "outputs": [],
      "stateMutability": "nonpayable",
      "type": "function"
    },
    {
      "inputs": [
        {
          "internalType": "address",
          "name": "",
          "type": "address"
        }
      ],
      "name": "tokenDecimals",
      "outputs": [
        {
          "internalType": "uint8",
          "name": "",
          "type": "uint8"
        }
      ],
      "stateMutability": "view",
      "type": "function"
    },
    {
      "inputs": [
        {
          "internalType": "address",
          "name": "newOwner",
          "type": "address"
        }
      ],
      "name": "transferOwnership",
      "outputs": [],
      "stateMutability": "nonpayable",
      "type": "function"
    },
    {
      "inputs": [],
      "name": "transparentVaultFactory",
      "outputs": [
        {
          "internalType": "address",
          "name": "",
          "type": "address"
        }
      ],
      "stateMutability": "view",
      "type": "function"
    },
    {
      "inputs": [],
      "name": "underlyingAsset",
      "outputs": [
        {
          "internalType": "contract IERC20",
          "name": "",
          "type": "address"
        }
      ],
      "stateMutability": "view",
      "type": "function"
    },
    {
      "inputs": [],
      "name": "unpauseAll",
      "outputs": [],
      "stateMutability": "nonpayable",
      "type": "function"
    },
    {
      "inputs": [],
      "name": "whitelistedAssetsLength",
      "outputs": [
        {
          "internalType": "uint16",
          "name": "",
          "type": "uint16"
        }
      ],
      "stateMutability": "view",
      "type": "function"
    }
  ],
  "bytecode": "0x60a060405234801561000f575f5ffd5b5060405161258a38038061258a83398101604081905261002e9161028c565b826001600160a01b03811661005c57604051631e4fbdf760e01b81525f600482015260240160405180910390fd5b6100658161019d565b506001600160a01b03821661008d5760405163d92e233d60e01b815260040160405180910390fd5b6001600160a01b0381166100b45760405163d92e233d60e01b815260040160405180910390fd5b6001600160a01b03828116608052600380546001600160a01b03191691831691821790556007805460ff60a01b1916600760a11b17905562093a80600a556096600b556040805163313ce56760e01b8152905163313ce567916004808201926020929091908290030181865afa158015610130573d5f5f3e3d5ffd5b505050506040513d601f19601f8201168201806040525081019061015491906102cc565b6001600160a01b0382165f908152601060205260409020805460ff191660ff92909216919091179055610188600c826101b9565b50610194600e846101b9565b505050506102f3565b600180546001600160a01b03191690556101b6816101d6565b50565b5f6101cd836001600160a01b038416610225565b90505b92915050565b5f80546001600160a01b038381166001600160a01b0319831681178455604051919092169283917f8be0079c531659141344cd1fd0a4f28419497f9722a3daafe3b4186f6b6457e09190a35050565b5f81815260018301602052604081205461026a57508154600181810184555f8481526020808220909301849055845484825282860190935260409020919091556101d0565b505f6101d0565b80516001600160a01b0381168114610287575f5ffd5b919050565b5f5f5f6060848603121561029e575f5ffd5b6102a784610271565b92506102b560208501610271565b91506102c360408501610271565b90509250925092565b5f602082840312156102dc575f5ffd5b815160ff811681146102ec575f5ffd5b9392505050565b60805161225c61032e5f395f81816105df01528181610ad501528181611262015281816113b80152818161144a0152611586015261225c5ff3fe608060405234801561000f575f5ffd5b5060043610610244575f3560e01c8063015df993146102485780630912ae6d146102715780630a8b78c7146102885780632095b01e1461029d57806323a06a1c146102b05780632a80cda3146102c3578063348ec5c8146102d65780633a0dad8e146102e95780633af32abf146102fc5780633e3679d31461031f5780633ea7fbdb14610332578063452a93201461034557806355fba94e14610358578063567ba7131461036b578063595c6a67146103915780635f24836814610399578063645006ca146103b457806366e87e7f146103bd5780636f8d52b8146103d05780636f9f4ee7146103d9578063715018a6146103ec5780637158da7c146103f4578063785c7cf61461040757806379ba5097146104325780637a0cb7841461043a57806381408ce51461044d578063849ede2314610460578063862a5f06146104735780638771de87146104865780638a0dac4a146104995780638a2ddd03146104ac5780638da5cb5b146104b45780638ee573ac146104bc578063b6dfcd8b146104de578063ba968666146104f1578063bcdb8a1814610504578063c30dd7271461050d578063d11f1c3514610520578063d1717c7d14610533578063d5460ab51461053b578063d86cd44e14610544578063e0876b4414610559578063e30c39781461056c578063e8ffccb714610574578063ed04f21814610587578063edcf9c1f1461059a578063f2fde38b146105a2578063f3cc6993146105b5578063f764eb45146105ca578063f851a440146105dd575b5f5ffd5b60075461025b906001600160a01b031681565b6040516102689190611e9f565b60405180910390f35b61027a60095481565b604051908152602001610268565b61029b610296366004611ec7565b610603565b005b61029b6102ab366004611ec7565b61067e565b61029b6102be366004611ee2565b6106f9565b61029b6102d1366004611f2a565b6108cc565b60045461025b906001600160a01b031681565b60055461025b906001600160a01b031681565b61030f61030a366004611ec7565b61094b565b6040519015158152602001610268565b61029b61032d366004611f2a565b61095d565b61029b610340366004611ec7565b6109dc565b60025461025b906001600160a01b031681565b61029b610366366004611ec7565b610a7c565b60075461037f90600160a01b900460ff1681565b60405160ff9091168152602001610268565b61029b610ab4565b6103a1610bfb565b60405161ffff9091168152602001610268565b61027a60085481565b61029b6103cb366004611f41565b610c0b565b61027a600a5481565b61029b6103e7366004611f2a565b610caf565b61029b610d2e565b60035461025b906001600160a01b031681565b61037f610415366004611ec7565b6001600160a01b03165f9081526010602052604090205460ff1690565b61029b610d41565b61029b610448366004611f75565b610d89565b61029b61045b366004611ec7565b610e6b565b60065461025b906001600160a01b031681565b61029b610481366004611ec7565b611257565b61030f610494366004611ec7565b6113a1565b61029b6104a7366004611ec7565b6113ad565b61029b61143f565b61025b61156d565b61037f6104ca366004611ec7565b60106020525f908152604090205460ff1681565b61029b6104ec366004611ec7565b61157b565b61029b6104ff366004611f2a565b611774565b61027a600b5481565b61029b61051b366004611ec7565b6117d3565b61030f61052e366004611ec7565b61184e565b61037f600981565b6103a161032081565b61054c61185a565b6040516102689190611fa8565b61030f610567366004611ec7565b61190d565b61025b61192a565b61029b610582366004611ec7565b611939565b61054c610595366004611ff3565b6119e9565b61030f611ac5565b61029b6105b0366004611ec7565b611bd5565b6007546103a190600160a81b900461ffff1681565b61030f6105d8366004611ec7565b611c3b565b7f000000000000000000000000000000000000000000000000000000000000000061025b565b61060b611c47565b6001600160a01b0381166106325760405163d92e233d60e01b815260040160405180910390fd5b6004546001600160a01b03161561065c57604051630ea075bf60e21b815260040160405180910390fd5b600480546001600160a01b0319166001600160a01b0392909216919091179055565b610686611c47565b6001600160a01b0381166106ad5760405163d92e233d60e01b815260040160405180910390fd5b6007546001600160a01b0316156106d757604051630ea075bf60e21b815260040160405180910390fd5b600780546001600160a01b0319166001600160a01b0392909216919091179055565b610701611c47565b610709611ac5565b610726576040516312aecd8160e01b815260040160405180910390fd5b5f610732600c85611c79565b90508061075257604051630ea075bf60e21b815260040160405180910390fd5b836001600160a01b031663313ce5676040518163ffffffff1660e01b8152600401602060405180830381865afa15801561078e573d5f5f3e3d5ffd5b505050506040513d601f19601f820116820180604052508101906107b2919061200c565b6001600160a01b038581165f9081526010602052604090819020805460ff191660ff949094169390931790925560075491516302707eef60e51b8152911690634e0fdde090610807908790879060040161202c565b5f604051808303815f87803b15801561081e575f5ffd5b505af1158015610830573d5f5f3e3d5ffd5b50506005546040516359017aa960e01b81526001600160a01b0390911692506359017aa99150610866908790869060040161202c565b5f604051808303815f87803b15801561087d575f5ffd5b505af115801561088f573d5f5f3e3d5ffd5b50506040516001600160a01b03871692507fdcbd8d9d0373041250f6c25b6b7aeccb3e9ff291e510ef85bb9f8ac09ceb6f6491505f90a250505050565b6108d4611c47565b6108dc611ac5565b6108f9576040516312aecd8160e01b815260040160405180910390fd5b805f03610919576040516317dbc4cb60e21b815260040160405180910390fd5b600881905560405181907fb443c8bd39a1b60d415144f9148c6f90c2b68a553eb90c62cef5e44979db009d905f90a250565b5f610957600c83611c94565b92915050565b610965611c47565b61096d611ac5565b61098a576040516312aecd8160e01b815260040160405180910390fd5b805f036109aa576040516317dbc4cb60e21b815260040160405180910390fd5b600981905560405181907fae6971e30edc181eba4e21b6f0d1238924e807e69aa92f89401c1a836dd71547905f90a250565b6109e4611c47565b6109ec611ac5565b610a09576040516312aecd8160e01b815260040160405180910390fd5b6001600160a01b038116610a305760405163d92e233d60e01b815260040160405180910390fd5b6006546001600160a01b031615610a5a57604051630ea075bf60e21b815260040160405180910390fd5b600680546001600160a01b0319166001600160a01b0392909216919091179055565b610a84611c47565b5f610a90600e83611c79565b905080610ab057604051630ea075bf60e21b815260040160405180910390fd5b5050565b6002546001600160a01b03163314801590610af85750336001600160a01b037f00000000000000000000000000000000000000000000000000000000000000001614155b15610b165760405163ea8e4eb560e01b815260040160405180910390fd5b6004805460408051638456cb5960e01b815290516001600160a01b0390921692638456cb5992828201925f929082900301818387803b158015610b57575f5ffd5b505af1158015610b69573d5f5f3e3d5ffd5b5050505060055f9054906101000a90046001600160a01b03166001600160a01b0316638456cb596040518163ffffffff1660e01b81526004015f604051808303815f87803b158015610bb9575f5ffd5b505af1158015610bcb573d5f5f3e3d5ffd5b50506040513392507f3fb8cabbd30f03312e3221b5b1c7ce132ca5d72cf36143a1d6d33b11ad4eba2491505f90a2565b5f610c06600c611ca8565b905090565b610c13611c47565b610c1b611ac5565b610c38576040516312aecd8160e01b815260040160405180910390fd5b61032061ffff82161115610c5f576040516317dbc4cb60e21b815260040160405180910390fd5b6007805461ffff60a81b1916600160a81b61ffff84811682029290921792839055604051920416907f6c0e50288cc602be5dd504ce35358e01341e3c4f93e2e02b5a030a59bfdb84e2905f90a250565b610cb7611c47565b610cbf611ac5565b610cdc576040516312aecd8160e01b815260040160405180910390fd5b805f03610cfc576040516317dbc4cb60e21b815260040160405180910390fd5b600b81905560405181907f33fdf3f87d7aca2f3fda0e9e480f611002f0ec96579de87d9109ef45c5be0fa2905f90a250565b610d36611c47565b610d3f5f611cb1565b565b3380610d4b61192a565b6001600160a01b031614610d7d578060405163118cdaa760e01b8152600401610d749190611e9f565b60405180910390fd5b610d8681611cb1565b50565b6006546001600160a01b03163314610db45760405163ea8e4eb560e01b815260040160405180910390fd5b6001600160a01b038216610ddb5760405163d92e233d60e01b815260040160405180910390fd5b5f6001826001811115610df057610df0612046565b03610e0757610e00601384611c79565b9050610e15565b610e12601184611c79565b90505b80610e3357604051630ea075bf60e21b815260040160405180910390fd5b6040516001600160a01b038416907f9a7094a648c0524f3d62b9167886d30be0e68cf53863fe556edda348f189445a905f90a2505050565b610e73611c47565b604051638771de8760e01b81523090638771de8790610e96908490600401611e9f565b602060405180830381865afa158015610eb1573d5f5f3e3d5ffd5b505050506040513d601f19601f82011682018060405250810190610ed5919061205a565b610ef25760405163e6c4247b60e01b815260040160405180910390fd5b610efa611ac5565b610f17576040516312aecd8160e01b815260040160405180910390fd5b604051631da09e4360e31b81525f90309063ed04f21890610f3c908490600401612079565b5f60405180830381865afa158015610f56573d5f5f3e3d5ffd5b505050506040513d5f823e601f3d908101601f19168201604052610f7d91908101906120be565b90505f5b8151811015611083575f828281518110610f9d57610f9d612188565b60200260200101519050836001600160a01b0316816001600160a01b0316631f52692b6040518163ffffffff1660e01b8152600401602060405180830381865afa158015610fed573d5f5f3e3d5ffd5b505050506040513d601f19601f82011682018060405250810190611011919061219c565b6001600160a01b03160361107a5761102a601582611c79565b50806001600160a01b031663ca78e8396040518163ffffffff1660e01b81526004015f604051808303815f87803b158015611063575f5ffd5b505af1158015611075573d5f5f3e3d5ffd5b505050505b50600101610f81565b50604051631da09e4360e31b81525f90309063ed04f218906110aa90600190600401612079565b5f60405180830381865afa1580156110c4573d5f5f3e3d5ffd5b505050506040513d5f823e601f3d908101601f191682016040526110eb91908101906120be565b90505f5b81518110156111f1575f82828151811061110b5761110b612188565b60200260200101519050846001600160a01b0316816001600160a01b0316631f52692b6040518163ffffffff1660e01b8152600401602060405180830381865afa15801561115b573d5f5f3e3d5ffd5b505050506040513d601f19601f8201168201806040525081019061117f919061219c565b6001600160a01b0316036111e857611198601582611c79565b50806001600160a01b031663ca78e8396040518163ffffffff1660e01b81526004015f604051808303815f87803b1580156111d1575f5ffd5b505af11580156111e3573d5f5f3e3d5ffd5b505050505b506001016110ef565b505f6111fe600e85611cca565b90508061121e5760405163e6c4247b60e01b815260040160405180910390fd5b6040516001600160a01b038516907f34c278c4f57f7db1b04d9e9c8a808becaae0effac5903a160607310c7c90f160905f90a250505050565b336001600160a01b037f000000000000000000000000000000000000000000000000000000000000000016146112a05760405163ea8e4eb560e01b815260040160405180910390fd5b6112a8611ac5565b6112c5576040516312aecd8160e01b815260040160405180910390fd5b604051633821dad160e21b8152309063e0876b44906112e8908490600401611e9f565b602060405180830381865afa158015611303573d5f5f3e3d5ffd5b505050506040513d601f19601f82011682018060405250810190611327919061205a565b6113445760405163e6c4247b60e01b815260040160405180910390fd5b61134f601582611c79565b50806001600160a01b031663ca78e8396040518163ffffffff1660e01b81526004015f604051808303815f87803b158015611388575f5ffd5b505af115801561139a573d5f5f3e3d5ffd5b5050505050565b5f610957600e83611c94565b336001600160a01b037f000000000000000000000000000000000000000000000000000000000000000016146113f65760405163ea8e4eb560e01b815260040160405180910390fd5b600280546001600160a01b0319166001600160a01b0383169081179091556040517f6bb7ff33e730289800c62ad882105a144a74010d2bdbb9a942544a3005ad55bf905f90a250565b336001600160a01b037f000000000000000000000000000000000000000000000000000000000000000016146114885760405163ea8e4eb560e01b815260040160405180910390fd5b6004805460408051631fa5d41d60e11b815290516001600160a01b0390921692633f4ba83a92828201925f929082900301818387803b1580156114c9575f5ffd5b505af11580156114db573d5f5f3e3d5ffd5b5050505060055f9054906101000a90046001600160a01b03166001600160a01b0316633f4ba83a6040518163ffffffff1660e01b81526004015f604051808303815f87803b15801561152b575f5ffd5b505af115801561153d573d5f5f3e3d5ffd5b50506040513392507f2d553fb579456929d17c4cf0dc43b2f2e8e5a8f917cadcc8a5f18e9c4010b75a91505f90a2565b5f546001600160a01b031690565b336001600160a01b037f000000000000000000000000000000000000000000000000000000000000000016146115c45760405163ea8e4eb560e01b815260040160405180910390fd5b6115cc611ac5565b6115e9576040516312aecd8160e01b815260040160405180910390fd5b6003546001600160a01b0390811690821603611618576040516317dbc4cb60e21b815260040160405180910390fd5b5f611624600c83611cca565b905080611646578160405163751dff9760e11b8152600401610d749190611e9f565b604051631da09e4360e31b81525f90309063ed04f2189061166b908490600401612079565b5f60405180830381865afa158015611685573d5f5f3e3d5ffd5b505050506040513d5f823e601f3d908101601f191682016040526116ac91908101906120be565b90505f5b815181101561173b575f8282815181106116cc576116cc612188565b60200260200101519050806001600160a01b031663e3352c4c866040518263ffffffff1660e01b81526004016117029190611e9f565b5f604051808303815f87803b158015611719575f5ffd5b505af115801561172b573d5f5f3e3d5ffd5b50505050508060010190506116b0565b506040516001600160a01b038416907f952363a786fc6f24cfb955cd6207cf91ecee3a82a7dd0bc26891ff7647b5784c905f90a2505050565b61177c611c47565b611784611ac5565b6117a1576040516312aecd8160e01b815260040160405180910390fd5b600a81905560405181907f0c525cc53958dcc2098f744df69dfeeb06316aeeca301ec2d5c5d4518e35f98a905f90a250565b6117db611c47565b6001600160a01b0381166118025760405163d92e233d60e01b815260040160405180910390fd5b6005546001600160a01b03161561182c57604051630ea075bf60e21b815260040160405180910390fd5b600580546001600160a01b0319166001600160a01b0392909216919091179055565b5f610957601583611c94565b60605f611867600c611ca8565b90508061ffff166001600160401b038111156118855761188561209f565b6040519080825280602002602001820160405280156118ae578160200160208202803683370190505b5091505f5b8161ffff168161ffff161015611908576118d2600c61ffff8316611cde565b838261ffff16815181106118e8576118e8612188565b6001600160a01b03909216602092830291909101909101526001016118b3565b505090565b5f611919601383611c94565b806109575750610957601183611c94565b6001546001600160a01b031690565b6005546001600160a01b031633146119645760405163ea8e4eb560e01b815260040160405180910390fd5b61196f601582611c94565b61198c5760405163e6c4247b60e01b815260040160405180910390fd5b5f611998601383611cca565b9050806119cd575f6119ab601184611cca565b9050806119cb5760405163e6c4247b60e01b815260040160405180910390fd5b505b6119d8601583611cca565b506119e4601783611c79565b505050565b60605f6001836001811115611a0057611a00612046565b14611a0c576011611a0f565b60135b90505f611a1b82611ca8565b90505f8161ffff166001600160401b03811115611a3a57611a3a61209f565b604051908082528060200260200182016040528015611a63578160200160208202803683370190505b5090505f5b8261ffff168161ffff161015611abc57611a868461ffff8316611cde565b828261ffff1681518110611a9c57611a9c612188565b6001600160a01b0390921660209283029190910190910152600101611a68565b50949350505050565b5f8060055f9054906101000a90046001600160a01b03166001600160a01b031663055ad42e6040518163ffffffff1660e01b8152600401602060405180830381865afa158015611b17573d5f5f3e3d5ffd5b505050506040513d601f19601f82011682018060405250810190611b3b91906121b7565b6003811115611b4c57611b4c612046565b148015610c0657505f60048054604080516302ad6a1760e11b815290516001600160a01b039092169263055ad42e9282820192602092908290030181865afa158015611b9a573d5f5f3e3d5ffd5b505050506040513d601f19601f82011682018060405250810190611bbe91906121d5565b6004811115611bcf57611bcf612046565b14905090565b611bdd611c47565b600180546001600160a01b0319166001600160a01b038316908117909155611c0361156d565b6001600160a01b03167f38d16b8cac22d99fc7c124b9cd0de2d3fa1faef420bfe791d8c362d765e2270060405160405180910390a350565b5f610957601783611c94565b33611c5061156d565b6001600160a01b031614610d3f573360405163118cdaa760e01b8152600401610d749190611e9f565b5f611c8d836001600160a01b038416611ce9565b9392505050565b5f611c8d836001600160a01b038416611d30565b5f610957825490565b600180546001600160a01b0319169055610d8681611d47565b5f611c8d836001600160a01b038416611d96565b5f611c8d8383611e79565b5f611cf48383611d30565b611d2957508154600181810184555f848152602080822090930184905584548482528286019093526040902091909155610957565b505f610957565b5f9081526001919091016020526040902054151590565b5f80546001600160a01b038381166001600160a01b0319831681178455604051919092169283917f8be0079c531659141344cd1fd0a4f28419497f9722a3daafe3b4186f6b6457e09190a35050565b5f8181526001830160205260408120548015611e70575f611db86001836121f3565b85549091505f90611dcb906001906121f3565b9050808214611e2a575f865f018281548110611de957611de9612188565b905f5260205f200154905080875f018481548110611e0957611e09612188565b5f918252602080832090910192909255918252600188019052604090208390555b8554869080611e3b57611e3b612212565b600190038181905f5260205f20015f90559055856001015f8681526020019081526020015f205f905560019350505050610957565b5f915050610957565b5f825f018281548110611e8e57611e8e612188565b905f5260205f200154905092915050565b6001600160a01b0391909116815260200190565b6001600160a01b0381168114610d86575f5ffd5b5f60208284031215611ed7575f5ffd5b8135611c8d81611eb3565b5f5f5f60608486031215611ef4575f5ffd5b8335611eff81611eb3565b92506020840135611f0f81611eb3565b91506040840135611f1f81611eb3565b809150509250925092565b5f60208284031215611f3a575f5ffd5b5035919050565b5f60208284031215611f51575f5ffd5b813561ffff81168114611c8d575f5ffd5b803560028110611f70575f5ffd5b919050565b5f5f60408385031215611f86575f5ffd5b8235611f9181611eb3565b9150611f9f60208401611f62565b90509250929050565b602080825282518282018190525f918401906040840190835b81811015611fe85783516001600160a01b0316835260209384019390920191600101611fc1565b509095945050505050565b5f60208284031215612003575f5ffd5b611c8d82611f62565b5f6020828403121561201c575f5ffd5b815160ff81168114611c8d575f5ffd5b6001600160a01b0392831681529116602082015260400190565b634e487b7160e01b5f52602160045260245ffd5b5f6020828403121561206a575f5ffd5b81518015158114611c8d575f5ffd5b602081016002831061209957634e487b7160e01b5f52602160045260245ffd5b91905290565b634e487b7160e01b5f52604160045260245ffd5b8051611f7081611eb3565b5f602082840312156120ce575f5ffd5b81516001600160401b038111156120e3575f5ffd5b8201601f810184136120f3575f5ffd5b80516001600160401b0381111561210c5761210c61209f565b604051600582901b90603f8201601f191681016001600160401b038111828210171561213a5761213a61209f565b604052918252602081840181019290810187841115612157575f5ffd5b6020850194505b8385101561217d5761216f856120b3565b81526020948501940161215e565b509695505050505050565b634e487b7160e01b5f52603260045260245ffd5b5f602082840312156121ac575f5ffd5b8151611c8d81611eb3565b5f602082840312156121c7575f5ffd5b815160048110611c8d575f5ffd5b5f602082840312156121e5575f5ffd5b815160058110611c8d575f5ffd5b8181038181111561095757634e487b7160e01b5f52601160045260245ffd5b634e487b7160e01b5f52603160045260245ffdfea2646970667358221220ae2ea7c66f7c09904fcb584db396517f05dba67fbe77ac411247673fc5201e0964736f6c634300081c0033",
  "linkReferences": {},
  "deployedLinkReferences": {}
}