{
  "_format": "hh-sol-artifact-1",
  "contractName": "OrionConfig",
  "sourceName": "contracts/OrionConfig.sol",
  "abi": [
    {
      "inputs": [
        {
          "internalType": "address",
          "name": "target",
          "type": "address"
        }
      ],
      "name": "AddressEmptyCode",
      "type": "error"
    },
    {
      "inputs": [],
      "name": "AlreadyAnOrionVault",
      "type": "error"
    },
    {
      "inputs": [],
      "name": "AlreadyWhitelisted",
      "type": "error"
    },
    {
      "inputs": [
        {
          "internalType": "address",
          "name": "implementation",
          "type": "address"
        }
      ],
      "name": "ERC1967InvalidImplementation",
      "type": "error"
    },
    {
      "inputs": [],
      "name": "ERC1967NonPayable",
      "type": "error"
    },
    {
      "inputs": [],
      "name": "FailedCall",
      "type": "error"
    },
    {
      "inputs": [],
      "name": "InvalidAsset",
      "type": "error"
    },
    {
      "inputs": [],
      "name": "InvalidInitialization",
      "type": "error"
    },
    {
      "inputs": [],
      "name": "InvalidInternalOrchestrator",
      "type": "error"
    },
    {
      "inputs": [],
      "name": "InvalidLiquidityOrchestrator",
      "type": "error"
    },
    {
      "inputs": [],
      "name": "NotAnOrionVault",
      "type": "error"
    },
    {
      "inputs": [],
      "name": "NotFactory",
      "type": "error"
    },
    {
      "inputs": [],
      "name": "NotInWhitelist",
      "type": "error"
    },
    {
      "inputs": [],
      "name": "NotInitializing",
      "type": "error"
    },
    {
      "inputs": [
        {
          "internalType": "address",
          "name": "owner",
          "type": "address"
        }
      ],
      "name": "OwnableInvalidOwner",
      "type": "error"
    },
    {
      "inputs": [
        {
          "internalType": "address",
          "name": "account",
          "type": "address"
        }
      ],
      "name": "OwnableUnauthorizedAccount",
      "type": "error"
    },
    {
      "inputs": [],
      "name": "UUPSUnauthorizedCallContext",
      "type": "error"
    },
    {
      "inputs": [
        {
          "internalType": "bytes32",
          "name": "slot",
          "type": "bytes32"
        }
      ],
      "name": "UUPSUnsupportedProxiableUUID",
      "type": "error"
    },
    {
      "inputs": [],
      "name": "ZeroAddress",
      "type": "error"
    },
    {
      "anonymous": false,
      "inputs": [
        {
          "indexed": false,
          "internalType": "uint64",
          "name": "version",
          "type": "uint64"
        }
      ],
      "name": "Initialized",
      "type": "event"
    },
    {
      "anonymous": false,
      "inputs": [
        {
          "indexed": true,
          "internalType": "address",
          "name": "vault",
          "type": "address"
        }
      ],
      "name": "OrionVaultAdded",
      "type": "event"
    },
    {
      "anonymous": false,
      "inputs": [
        {
          "indexed": true,
          "internalType": "address",
          "name": "vault",
          "type": "address"
        }
      ],
      "name": "OrionVaultRemoved",
      "type": "event"
    },
    {
      "anonymous": false,
      "inputs": [
        {
          "indexed": true,
          "internalType": "address",
          "name": "previousOwner",
          "type": "address"
        },
        {
          "indexed": true,
          "internalType": "address",
          "name": "newOwner",
          "type": "address"
        }
      ],
      "name": "OwnershipTransferStarted",
      "type": "event"
    },
    {
      "anonymous": false,
      "inputs": [
        {
          "indexed": true,
          "internalType": "address",
          "name": "previousOwner",
          "type": "address"
        },
        {
          "indexed": true,
          "internalType": "address",
          "name": "newOwner",
          "type": "address"
        }
      ],
      "name": "OwnershipTransferred",
      "type": "event"
    },
    {
      "anonymous": false,
      "inputs": [
        {
          "indexed": false,
          "internalType": "address",
          "name": "underlyingAsset",
          "type": "address"
        },
        {
          "indexed": false,
          "internalType": "address",
          "name": "internalStatesOrchestrator",
          "type": "address"
        },
        {
          "indexed": false,
          "internalType": "address",
          "name": "liquidityOrchestrator",
          "type": "address"
        },
        {
          "indexed": false,
          "internalType": "uint256",
          "name": "curatorIntentDecimals",
          "type": "uint256"
        },
        {
          "indexed": false,
          "internalType": "address",
          "name": "factory",
          "type": "address"
        },
        {
          "indexed": false,
          "internalType": "address",
          "name": "oracleRegistry",
          "type": "address"
        }
      ],
      "name": "ProtocolParamsUpdated",
      "type": "event"
    },
    {
      "anonymous": false,
      "inputs": [
        {
          "indexed": true,
          "internalType": "address",
          "name": "implementation",
          "type": "address"
        }
      ],
      "name": "Upgraded",
      "type": "event"
    },
    {
      "anonymous": false,
      "inputs": [
        {
          "indexed": true,
          "internalType": "address",
          "name": "asset",
          "type": "address"
        }
      ],
      "name": "WhitelistedAssetAdded",
      "type": "event"
    },
    {
      "anonymous": false,
      "inputs": [
        {
          "indexed": true,
          "internalType": "address",
          "name": "asset",
          "type": "address"
        }
      ],
      "name": "WhitelistedAssetRemoved",
      "type": "event"
    },
    {
      "inputs": [],
      "name": "UPGRADE_INTERFACE_VERSION",
      "outputs": [
        {
          "internalType": "string",
          "name": "",
          "type": "string"
        }
      ],
      "stateMutability": "view",
      "type": "function"
    },
    {
      "inputs": [],
      "name": "acceptOwnership",
      "outputs": [],
      "stateMutability": "nonpayable",
      "type": "function"
    },
    {
      "inputs": [
        {
          "internalType": "address",
          "name": "vault",
          "type": "address"
        }
      ],
      "name": "addOrionVault",
      "outputs": [],
      "stateMutability": "nonpayable",
      "type": "function"
    },
    {
      "inputs": [
        {
          "internalType": "address",
          "name": "asset",
          "type": "address"
        }
      ],
      "name": "addWhitelistedAsset",
      "outputs": [],
      "stateMutability": "nonpayable",
      "type": "function"
    },
    {
      "inputs": [],
      "name": "curatorIntentDecimals",
      "outputs": [
        {
          "internalType": "uint8",
          "name": "",
          "type": "uint8"
        }
      ],
      "stateMutability": "view",
      "type": "function"
    },
    {
      "inputs": [],
      "name": "getAllOrionVaults",
      "outputs": [
        {
          "internalType": "address[]",
          "name": "",
          "type": "address[]"
        }
      ],
      "stateMutability": "view",
      "type": "function"
    },
    {
      "inputs": [],
      "name": "getAllWhitelistedAssets",
      "outputs": [
        {
          "internalType": "address[]",
          "name": "assets",
          "type": "address[]"
        }
      ],
      "stateMutability": "view",
      "type": "function"
    },
    {
      "inputs": [],
      "name": "getVaultStates",
      "outputs": [
        {
          "internalType": "address[]",
          "name": "vaults",
          "type": "address[]"
        },
        {
          "internalType": "uint256[]",
          "name": "sharePrices",
          "type": "uint256[]"
        },
        {
          "internalType": "uint256[]",
          "name": "totalAssets",
          "type": "uint256[]"
        },
        {
          "internalType": "uint256[]",
          "name": "depositRequests",
          "type": "uint256[]"
        },
        {
          "internalType": "uint256[]",
          "name": "withdrawRequests",
          "type": "uint256[]"
        }
      ],
      "stateMutability": "view",
      "type": "function"
    },
    {
      "inputs": [
        {
          "internalType": "uint256",
          "name": "index",
          "type": "uint256"
        }
      ],
      "name": "getWhitelistedAssetAt",
      "outputs": [
        {
          "internalType": "address",
          "name": "",
          "type": "address"
        }
      ],
      "stateMutability": "view",
      "type": "function"
    },
    {
      "inputs": [
        {
          "internalType": "address",
          "name": "initialOwner",
          "type": "address"
        }
      ],
      "name": "initialize",
      "outputs": [],
      "stateMutability": "nonpayable",
      "type": "function"
    },
    {
      "inputs": [],
      "name": "internalStatesOrchestrator",
      "outputs": [
        {
          "internalType": "address",
          "name": "",
          "type": "address"
        }
      ],
      "stateMutability": "view",
      "type": "function"
    },
    {
      "inputs": [
        {
          "internalType": "address",
          "name": "asset",
          "type": "address"
        }
      ],
      "name": "isWhitelisted",
      "outputs": [
        {
          "internalType": "bool",
          "name": "",
          "type": "bool"
        }
      ],
      "stateMutability": "view",
      "type": "function"
    },
    {
      "inputs": [],
      "name": "liquidityOrchestrator",
      "outputs": [
        {
          "internalType": "address",
          "name": "",
          "type": "address"
        }
      ],
      "stateMutability": "view",
      "type": "function"
    },
    {
      "inputs": [],
      "name": "oracleRegistry",
      "outputs": [
        {
          "internalType": "address",
          "name": "",
          "type": "address"
        }
      ],
      "stateMutability": "view",
      "type": "function"
    },
    {
      "inputs": [],
      "name": "owner",
      "outputs": [
        {
          "internalType": "address",
          "name": "",
          "type": "address"
        }
      ],
      "stateMutability": "view",
      "type": "function"
    },
    {
      "inputs": [],
      "name": "pendingOwner",
      "outputs": [
        {
          "internalType": "address",
          "name": "",
          "type": "address"
        }
      ],
      "stateMutability": "view",
      "type": "function"
    },
    {
      "inputs": [],
      "name": "proxiableUUID",
      "outputs": [
        {
          "internalType": "bytes32",
          "name": "",
          "type": "bytes32"
        }
      ],
      "stateMutability": "view",
      "type": "function"
    },
    {
      "inputs": [
        {
          "internalType": "address",
          "name": "vault",
          "type": "address"
        }
      ],
      "name": "removeOrionVault",
      "outputs": [],
      "stateMutability": "nonpayable",
      "type": "function"
    },
    {
      "inputs": [
        {
          "internalType": "address",
          "name": "asset",
          "type": "address"
        }
      ],
      "name": "removeWhitelistedAsset",
      "outputs": [],
      "stateMutability": "nonpayable",
      "type": "function"
    },
    {
      "inputs": [],
      "name": "renounceOwnership",
      "outputs": [],
      "stateMutability": "nonpayable",
      "type": "function"
    },
    {
      "inputs": [
        {
          "internalType": "address",
          "name": "_underlyingAsset",
          "type": "address"
        },
        {
          "internalType": "address",
          "name": "_internalStatesOrchestrator",
          "type": "address"
        },
        {
          "internalType": "address",
          "name": "_liquidityOrchestrator",
          "type": "address"
        },
        {
          "internalType": "uint8",
          "name": "_curatorIntentDecimals",
          "type": "uint8"
        },
        {
          "internalType": "address",
          "name": "_factory",
          "type": "address"
        },
        {
          "internalType": "address",
          "name": "_oracleRegistry",
          "type": "address"
        }
      ],
      "name": "setProtocolParams",
      "outputs": [],
      "stateMutability": "nonpayable",
      "type": "function"
    },
    {
      "inputs": [
        {
          "internalType": "address",
          "name": "newOwner",
          "type": "address"
        }
      ],
      "name": "transferOwnership",
      "outputs": [],
      "stateMutability": "nonpayable",
      "type": "function"
    },
    {
      "inputs": [],
      "name": "underlyingAsset",
      "outputs": [
        {
          "internalType": "contract IERC20",
          "name": "",
          "type": "address"
        }
      ],
      "stateMutability": "view",
      "type": "function"
    },
    {
      "inputs": [
        {
          "internalType": "address",
          "name": "newImplementation",
          "type": "address"
        },
        {
          "internalType": "bytes",
          "name": "data",
          "type": "bytes"
        }
      ],
      "name": "upgradeToAndCall",
      "outputs": [],
      "stateMutability": "payable",
      "type": "function"
    },
    {
      "inputs": [],
      "name": "vaultFactory",
      "outputs": [
        {
          "internalType": "address",
          "name": "",
          "type": "address"
        }
      ],
      "stateMutability": "view",
      "type": "function"
    },
    {
      "inputs": [],
      "name": "whitelistedAssetsLength",
      "outputs": [
        {
          "internalType": "uint256",
          "name": "",
          "type": "uint256"
        }
      ],
      "stateMutability": "view",
      "type": "function"
    }
  ],
  "bytecode": "0x60a06040523073ffffffffffffffffffffffffffffffffffffffff1660809073ffffffffffffffffffffffffffffffffffffffff168152503480156041575f80fd5b506080516137b56100685f395f81816123290152818161237e015261257401526137b55ff3fe608060405260043610610180575f3560e01c80637ea524c4116100d0578063c4d66de811610089578063d8a06f7311610063578063d8a06f7314610508578063e30c397814610532578063eb1a5bb91461055c578063f2fde38b1461058457610180565b8063c4d66de81461048c578063d1717c7d146104b4578063d86cd44e146104de57610180565b80637ea524c414610398578063862a5f06146103c05780638da5cb5b146103e8578063ad3cb1cc14610412578063b6dfcd8b1461043c578063bfba8f661461046457610180565b80634bb93ab11161013d5780635f248368116101175780635f24836814610318578063715018a6146103425780637158da7c1461035857806379ba50971461038257610180565b80634bb93ab1146102a85780634f1ef286146102d257806352d1902d146102ee57610180565b80630a567a2d14610184578063309bfe4a146101c0578063348ec5c8146101ee5780633a0dad8e146102185780633af32abf146102425780633d8015fc1461027e575b5f80fd5b34801561018f575f80fd5b506101aa60048036038101906101a59190612e0c565b6105ac565b6040516101b79190612e76565b60405180910390f35b3480156101cb575f80fd5b506101d4610604565b6040516101e5959493929190612ffd565b60405180910390f35b3480156101f9575f80fd5b50610202610bc5565b60405161020f9190612e76565b60405180910390f35b348015610223575f80fd5b5061022c610bea565b6040516102399190612e76565b60405180910390f35b34801561024d575f80fd5b506102686004803603810190610263919061309b565b610c0f565b60405161027591906130e0565b60405180910390f35b348015610289575f80fd5b50610292610c67565b60405161029f91906130f9565b60405180910390f35b3480156102b3575f80fd5b506102bc610e09565b6040516102c99190612e76565b60405180910390f35b6102ec60048036038101906102e79190613255565b610e2e565b005b3480156102f9575f80fd5b50610302610e4d565b60405161030f91906132c7565b60405180910390f35b348015610323575f80fd5b5061032c610e7e565b60405161033991906132ef565b60405180910390f35b34801561034d575f80fd5b50610356610eca565b005b348015610363575f80fd5b5061036c610edd565b6040516103799190613363565b60405180910390f35b34801561038d575f80fd5b50610396610f00565b005b3480156103a3575f80fd5b506103be60048036038101906103b991906133b2565b610f8e565b005b3480156103cb575f80fd5b506103e660048036038101906103e1919061309b565b61159d565b005b3480156103f3575f80fd5b506103fc61180b565b6040516104099190612e76565b60405180910390f35b34801561041d575f80fd5b50610426611840565b604051610433919061349b565b60405180910390f35b348015610447575f80fd5b50610462600480360381019061045d919061309b565b611879565b005b34801561046f575f80fd5b5061048a6004803603810190610485919061309b565b6119f2565b005b348015610497575f80fd5b506104b260048036038101906104ad919061309b565b611b6b565b005b3480156104bf575f80fd5b506104c8611db0565b6040516104d591906134ca565b60405180910390f35b3480156104e9575f80fd5b506104f2611dc3565b6040516104ff91906130f9565b60405180910390f35b348015610513575f80fd5b5061051c611f4c565b6040516105299190612e76565b60405180910390f35b34801561053d575f80fd5b50610546611f71565b6040516105539190612e76565b60405180910390f35b348015610567575f80fd5b50610582600480360381019061057d919061309b565b611fa6565b005b34801561058f575f80fd5b506105aa60048036038101906105a5919061309b565b612214565b005b5f6105c167d6450b29da9b5a3a60c01b6122cd565b6105d5678b8231a46f025df360c01b6122cd565b6105e967eb027f4b29cef6be60c01b6122cd565b6105fd8260056122d090919063ffffffff16565b9050919050565b60608060608060606106206711f942cd0204ed2f60c01b6122cd565b610634670b614010aba9acd660c01b6122cd565b61064867d2f403040c03737a60c01b6122cd565b5f61065360076122e7565b905061066967e40c8d47db80902860c01b6122cd565b8067ffffffffffffffff81111561068357610682613131565b5b6040519080825280602002602001820160405280156106b15781602001602082028036833780820191505090505b5095506106c86773a10ad278cda48060c01b6122cd565b8067ffffffffffffffff8111156106e2576106e1613131565b5b6040519080825280602002602001820160405280156107105781602001602082028036833780820191505090505b509450610727678122e4c29fb6a94460c01b6122cd565b8067ffffffffffffffff81111561074157610740613131565b5b60405190808252806020026020018201604052801561076f5781602001602082028036833780820191505090505b509350610786678857308a4cf2b3b760c01b6122cd565b8067ffffffffffffffff8111156107a05761079f613131565b5b6040519080825280602002602001820160405280156107ce5781602001602082028036833780820191505090505b5092506107e5675260d56b88d549e960c01b6122cd565b8067ffffffffffffffff8111156107ff576107fe613131565b5b60405190808252806020026020018201604052801561082d5781602001602082028036833780820191505090505b509150610844672014056ded910a3d60c01b6122cd565b61085867e5e1a93f26a98a1260c01b6122cd565b5f5b81811015610bbc576108766734bd9e2b11a044da60c01b6122cd565b61088a67f745eb085a4590a160c01b6122cd565b5f61089f8260076122d090919063ffffffff16565b90506108b567b11118e7adb3076360c01b6122cd565b808883815181106108c9576108c86134e3565b5b602002602001019073ffffffffffffffffffffffffffffffffffffffff16908173ffffffffffffffffffffffffffffffffffffffff168152505061091767f0fb234289ead8e260c01b6122cd565b61092b6728ad2125e42d81fd60c01b6122cd565b5f81905061094367b18d3aca4e372a2f60c01b6122cd565b8073ffffffffffffffffffffffffffffffffffffffff1663872697296040518163ffffffff1660e01b8152600401602060405180830381865afa15801561098c573d5f803e3d5ffd5b505050506040513d601f19601f820116820180604052508101906109b09190613524565b8884815181106109c3576109c26134e3565b5b6020026020010181815250506109e36723de6cd1a88426cc60c01b6122cd565b8073ffffffffffffffffffffffffffffffffffffffff166301e1d1146040518163ffffffff1660e01b8152600401602060405180830381865afa158015610a2c573d5f803e3d5ffd5b505050506040513d601f19601f82011682018060405250810190610a509190613524565b878481518110610a6357610a626134e3565b5b602002602001018181525050610a8367a9ccdddeb8067a1060c01b6122cd565b8073ffffffffffffffffffffffffffffffffffffffff1663d1699c266040518163ffffffff1660e01b8152600401602060405180830381865afa158015610acc573d5f803e3d5ffd5b505050506040513d601f19601f82011682018060405250810190610af09190613524565b868481518110610b0357610b026134e3565b5b602002602001018181525050610b23672d6fe34805b9559b60c01b6122cd565b8073ffffffffffffffffffffffffffffffffffffffff1663c37fc8a86040518163ffffffff1660e01b8152600401602060405180830381865afa158015610b6c573d5f803e3d5ffd5b505050506040513d601f19601f82011682018060405250810190610b909190613524565b858481518110610ba357610ba26134e3565b5b602002602001018181525050505080600101905061085a565b50509091929394565b60015f9054906101000a900473ffffffffffffffffffffffffffffffffffffffff1681565b60025f9054906101000a900473ffffffffffffffffffffffffffffffffffffffff1681565b5f610c2467aef89dd1ee518af760c01b6122cd565b610c38672ad180cf828fc50b60c01b6122cd565b610c4c67cfcd1422f1c74ad860c01b6122cd565b610c608260056122fa90919063ffffffff16565b9050919050565b6060610c7d673a409a5b2848b7ba60c01b6122cd565b610c916703be0cf0cfdda8da60c01b6122cd565b610ca567a549edc4ea63be8360c01b6122cd565b5f610cb060076122e7565b9050610cc6674c9144a1217c4a2e60c01b6122cd565b610cda679ded187989e9380360c01b6122cd565b5f8167ffffffffffffffff811115610cf557610cf4613131565b5b604051908082528060200260200182016040528015610d235781602001602082028036833780820191505090505b509050610d3a67c0109e4f122b091660c01b6122cd565b610d4e675ff2a1d4af5b8b0860c01b6122cd565b5f5b82811015610dd857610d6c672096c10f1aedd91c60c01b6122cd565b610d808160076122d090919063ffffffff16565b828281518110610d9357610d926134e3565b5b602002602001019073ffffffffffffffffffffffffffffffffffffffff16908173ffffffffffffffffffffffffffffffffffffffff1681525050806001019050610d50565b50610ded678a8e65679f681da060c01b6122cd565b610e01677dd0d583e43a7b9b60c01b6122cd565b809250505090565b60045f9054906101000a900473ffffffffffffffffffffffffffffffffffffffff1681565b610e36612327565b610e3f8261240d565b610e498282612454565b5050565b5f610e56612572565b7f360894a13ba1a3210667c828492db98dca3e2076cc3735a920a3ca505d382bbc5f1b905090565b5f610e936734455bdbb3ff55cb60c01b6122cd565b610ea7672733e5c4db908f1c60c01b6122cd565b610ebb67dfaca990deaf2d2b60c01b6122cd565b610ec560056122e7565b905090565b610ed26125f9565b610edb5f612680565b565b5f8054906101000a900473ffffffffffffffffffffffffffffffffffffffff1681565b5f610f096126bd565b90508073ffffffffffffffffffffffffffffffffffffffff16610f2a611f71565b73ffffffffffffffffffffffffffffffffffffffff1614610f8257806040517f118cdaa7000000000000000000000000000000000000000000000000000000008152600401610f799190612e76565b60405180910390fd5b610f8b81612680565b50565b610fa267c2156afd51e19a7f60c01b6122cd565b610faa6125f9565b610fbe67b593f111f96b016f60c01b6122cd565b610fd26767f7f13510c152b760c01b6122cd565b610fe667a9695f88835a5bac60c01b6122cd565b610ffa67724264a5f2045be560c01b6122cd565b5f73ffffffffffffffffffffffffffffffffffffffff168673ffffffffffffffffffffffffffffffffffffffff16036110735761104167ff3d79c8af0fa80560c01b6122cd565b6040517fc891add200000000000000000000000000000000000000000000000000000000815260040160405180910390fd5b61108767d69943d257b3490b60c01b6122cd565b61109b67e422f9dfcc53697460c01b6122cd565b6110ae6654eb7e3ddb5fa860c01b6122cd565b5f73ffffffffffffffffffffffffffffffffffffffff168573ffffffffffffffffffffffffffffffffffffffff1603611127576110f56721a187c0353967b560c01b6122cd565b6040517f5c1de4f100000000000000000000000000000000000000000000000000000000815260040160405180910390fd5b61113b675db571a89c0e02ef60c01b6122cd565b61114f67fc16189ef02164f260c01b6122cd565b61116367243ff1bc3b6f5c5c60c01b6122cd565b5f73ffffffffffffffffffffffffffffffffffffffff168473ffffffffffffffffffffffffffffffffffffffff16036111dc576111aa67c0623876a7d9ee1660c01b6122cd565b6040517fc4a0c25d00000000000000000000000000000000000000000000000000000000815260040160405180910390fd5b6111f06729c5098e19bd6bda60c01b6122cd565b61120467d7d2d23bc25d5aca60c01b6122cd565b611218672da57eaab192dff460c01b6122cd565b5f73ffffffffffffffffffffffffffffffffffffffff168273ffffffffffffffffffffffffffffffffffffffff16036112915761125f67a467d58104e44c1160c01b6122cd565b6040517fd92e233d00000000000000000000000000000000000000000000000000000000815260040160405180910390fd5b6112a5679899b9ba1ca053ac60c01b6122cd565b6112b9672a51e5acf134096b60c01b6122cd565b6112cd6725228504f673f97c60c01b6122cd565b5f73ffffffffffffffffffffffffffffffffffffffff168173ffffffffffffffffffffffffffffffffffffffff160361134657611314670301f14f08a6f34560c01b6122cd565b6040517fd92e233d00000000000000000000000000000000000000000000000000000000815260040160405180910390fd5b61135a67f1a852799fa2311760c01b6122cd565b61136e6722093d1bb8db646460c01b6122cd565b855f806101000a81548173ffffffffffffffffffffffffffffffffffffffff021916908373ffffffffffffffffffffffffffffffffffffffff1602179055506113c167cbc9642c1c86d55760c01b6122cd565b8460015f6101000a81548173ffffffffffffffffffffffffffffffffffffffff021916908373ffffffffffffffffffffffffffffffffffffffff16021790555061141567c4989a98e55f7a5960c01b6122cd565b8360025f6101000a81548173ffffffffffffffffffffffffffffffffffffffff021916908373ffffffffffffffffffffffffffffffffffffffff16021790555061146967b0dc0ff76aaf645d60c01b6122cd565b82600460146101000a81548160ff021916908360ff1602179055506114986718c5cada1686162c60c01b6122cd565b8160035f6101000a81548173ffffffffffffffffffffffffffffffffffffffff021916908373ffffffffffffffffffffffffffffffffffffffff1602179055506114ec67a7e84f6b655ee3b360c01b6122cd565b8060045f6101000a81548173ffffffffffffffffffffffffffffffffffffffff021916908373ffffffffffffffffffffffffffffffffffffffff1602179055506115406768e15daabdb6b9f660c01b6122cd565b61155467aa31ea56bc93d12960c01b6122cd565b7fe33708d29353da5cbd00ff7402e44139856decbe87273a8bb5df0bf1cba12f4486868686868660405161158d9695949392919061357f565b60405180910390a1505050505050565b6115b1672cfde4cd7242df6260c01b6122cd565b6115c56769fdd1da058a5e8260c01b6122cd565b6115d967b40908e2351d9f7160c01b6122cd565b6115ed67eb139d275bf3f8f260c01b6122cd565b60035f9054906101000a900473ffffffffffffffffffffffffffffffffffffffff1673ffffffffffffffffffffffffffffffffffffffff163373ffffffffffffffffffffffffffffffffffffffff161461168657611654660cae17cbc73cd060c01b6122cd565b6040517f32cc723600000000000000000000000000000000000000000000000000000000815260040160405180910390fd5b61169a67478caa607a3c9f1460c01b6122cd565b6116ae67fe9613ed7a431a8260c01b6122cd565b6116c267f6737eeeee23538f60c01b6122cd565b6116d667bbc3107c256b51bc60c01b6122cd565b6116ea67b14f37cbd660bd4c60c01b6122cd565b6116fe67865f23debee2af0b60c01b6122cd565b5f6117138260076126c490919063ffffffff16565b90506117296779c92e537dcb1af560c01b6122cd565b61173d67ba1f40eee6c7bb3360c01b6122cd565b80611788576117566758d489b92660aac960c01b6122cd565b6040517f2fa1facb00000000000000000000000000000000000000000000000000000000815260040160405180910390fd5b61179c67bad8cd08aa98311d60c01b6122cd565b6117b067d775c4b99651f0d860c01b6122cd565b6117c467827b14310d849fde60c01b6122cd565b8173ffffffffffffffffffffffffffffffffffffffff167fe47da341e0fc63816c1254f1c35425f69460f49342668d11c984ea56762b00d460405160405180910390a25050565b5f806118156126f1565b9050805f015f9054906101000a900473ffffffffffffffffffffffffffffffffffffffff1691505090565b6040518060400160405280600581526020017f352e302e3000000000000000000000000000000000000000000000000000000081525081565b61188d67eea930ba543fabc960c01b6122cd565b6118956125f9565b6118a9671f717b6e6e31269b60c01b6122cd565b6118bd671a1f2cedd2555fc660c01b6122cd565b6118d1677a3fec53562338db60c01b6122cd565b6118e567915bd2b65cae67ee60c01b6122cd565b5f6118fa8260056126c490919063ffffffff16565b905061191067cf9c63cabeee364f60c01b6122cd565b61192467a47b2c840b61b6ab60c01b6122cd565b8061196f5761193d67bfb33b9f8ba5a3eb60c01b6122cd565b6040517f5b0aa2ba00000000000000000000000000000000000000000000000000000000815260040160405180910390fd5b6119836756bec1ae87a0692960c01b6122cd565b611997671c8685375c23d02960c01b6122cd565b6119ab6738652e04e6db3ffe60c01b6122cd565b8173ffffffffffffffffffffffffffffffffffffffff167f952363a786fc6f24cfb955cd6207cf91ecee3a82a7dd0bc26891ff7647b5784c60405160405180910390a25050565b611a0667bf6922c0e84b35d660c01b6122cd565b611a0e6125f9565b611a22679d59463c1b5300f760c01b6122cd565b611a3667a1be86e156a1785960c01b6122cd565b611a4a67396cdaebdeaf3d4f60c01b6122cd565b611a5e67104becafe761aef460c01b6122cd565b5f611a7382600561271890919063ffffffff16565b9050611a89676be828370c53358360c01b6122cd565b611a9d67f78bb3bf5c8f665f60c01b6122cd565b80611ae857611ab667f9dd51339753b5aa60c01b6122cd565b6040517fb73e95e100000000000000000000000000000000000000000000000000000000815260040160405180910390fd5b611afc67b16600b682dc0b7860c01b6122cd565b611b1067d4519bb4c9439ff160c01b6122cd565b611b246761c8cb403487571860c01b6122cd565b8173ffffffffffffffffffffffffffffffffffffffff167fdcbd8d9d0373041250f6c25b6b7aeccb3e9ff291e510ef85bb9f8ac09ceb6f6460405160405180910390a25050565b611b7f67de51e3d758a0f61560c01b6122cd565b5f611b88612745565b90505f815f0160089054906101000a900460ff161590505f825f015f9054906101000a900467ffffffffffffffff1690505f808267ffffffffffffffff16148015611bd05750825b90505f60018367ffffffffffffffff16148015611c0357505f3073ffffffffffffffffffffffffffffffffffffffff163b145b905081158015611c11575080155b15611c48576040517ff92ee8a900000000000000000000000000000000000000000000000000000000815260040160405180910390fd5b6001855f015f6101000a81548167ffffffffffffffff021916908367ffffffffffffffff1602179055508315611c95576001855f0160086101000a81548160ff0219169083151502179055505b611ca967f62ce6db3bd78f5760c01b6122cd565b611cbd67da6b5938f817f92260c01b6122cd565b611cd167e8f2e169fbfba56360c01b6122cd565b611ce56791e57cd6b0e487cc60c01b6122cd565b611ced612758565b611d0167fd1b539b13ab3bc960c01b6122cd565b611d156773c0bb1a40bf390c60c01b6122cd565b611d1d612762565b611d3167b55dcb5bb69fc56b60c01b6122cd565b611d456788f2c6c9672c2cae60c01b6122cd565b611d4e86612680565b8315611da8575f855f0160086101000a81548160ff0219169083151502179055507fc7f505b2f371ae2175ee4913f4499e1f2633a7b5936321eed1cdaeb6115181d26001604051611d9f919061362a565b60405180910390a15b505050505050565b600460149054906101000a900460ff1681565b6060611dd9677c30c0a75b42f36e60c01b6122cd565b611ded67a8c8d0086828a76860c01b6122cd565b611e016787dcc8e51a03980b60c01b6122cd565b5f611e0c60056122e7565b9050611e2267f927cd531062ba9f60c01b6122cd565b8067ffffffffffffffff811115611e3c57611e3b613131565b5b604051908082528060200260200182016040528015611e6a5781602001602082028036833780820191505090505b509150611e8167526a88ab7fa64c0160c01b6122cd565b611e95679dd8a0b61d5248f260c01b6122cd565b5f5b81811015611f1f57611eb367f8da24f31bab4c9960c01b6122cd565b611ec78160056122d090919063ffffffff16565b838281518110611eda57611ed96134e3565b5b602002602001019073ffffffffffffffffffffffffffffffffffffffff16908173ffffffffffffffffffffffffffffffffffffffff1681525050806001019050611e97565b50611f34674c8fbe4ab279ba4760c01b6122cd565b611f4867819e0f39976c9aa260c01b6122cd565b5090565b60035f9054906101000a900473ffffffffffffffffffffffffffffffffffffffff1681565b5f80611f7b61276c565b9050805f015f9054906101000a900473ffffffffffffffffffffffffffffffffffffffff1691505090565b611fba670ff2a1a7ca74831760c01b6122cd565b611fce6769fdd1da058a5e8260c01b6122cd565b611fe267b40908e2351d9f7160c01b6122cd565b611ff667eb139d275bf3f8f260c01b6122cd565b60035f9054906101000a900473ffffffffffffffffffffffffffffffffffffffff1673ffffffffffffffffffffffffffffffffffffffff163373ffffffffffffffffffffffffffffffffffffffff161461208f5761205d660cae17cbc73cd060c01b6122cd565b6040517f32cc723600000000000000000000000000000000000000000000000000000000815260040160405180910390fd5b6120a367478caa607a3c9f1460c01b6122cd565b6120b767fe9613ed7a431a8260c01b6122cd565b6120cb6704fae79dc7eab9cd60c01b6122cd565b6120df670a74792cb689b1ef60c01b6122cd565b6120f36714c1d9aafbc24b6460c01b6122cd565b612107677ba283ed60b3185960c01b6122cd565b5f61211c82600761271890919063ffffffff16565b905061213267605cb8015aa8c5a960c01b6122cd565b61214667720c3dd91044592860c01b6122cd565b806121915761215f676f429fdb4587425860c01b6122cd565b6040517ff0301ba400000000000000000000000000000000000000000000000000000000815260040160405180910390fd5b6121a56752255357b2800f8660c01b6122cd565b6121b967a4f854b5d6be1e9d60c01b6122cd565b6121cd670e00c146b3fafc5e60c01b6122cd565b8173ffffffffffffffffffffffffffffffffffffffff167f9a7094a648c0524f3d62b9167886d30be0e68cf53863fe556edda348f189445a60405160405180910390a25050565b61221c6125f9565b5f61222561276c565b905081815f015f6101000a81548173ffffffffffffffffffffffffffffffffffffffff021916908373ffffffffffffffffffffffffffffffffffffffff1602179055508173ffffffffffffffffffffffffffffffffffffffff1661228761180b565b73ffffffffffffffffffffffffffffffffffffffff167f38d16b8cac22d99fc7c124b9cd0de2d3fa1faef420bfe791d8c362d765e2270060405160405180910390a35050565b50565b5f6122dd835f0183612793565b5f1c905092915050565b5f6122f3825f016127ba565b9050919050565b5f61231f835f018373ffffffffffffffffffffffffffffffffffffffff165f1b6127c9565b905092915050565b7f000000000000000000000000000000000000000000000000000000000000000073ffffffffffffffffffffffffffffffffffffffff163073ffffffffffffffffffffffffffffffffffffffff1614806123d457507f000000000000000000000000000000000000000000000000000000000000000073ffffffffffffffffffffffffffffffffffffffff166123bb6127e9565b73ffffffffffffffffffffffffffffffffffffffff1614155b1561240b576040517fe07c8dba00000000000000000000000000000000000000000000000000000000815260040160405180910390fd5b565b61242167627b4b946aa85bc060c01b6122cd565b6124296125f9565b61243d67389c6fe58e4f9c8060c01b6122cd565b612451676ab380ea9da8b87260c01b6122cd565b50565b8173ffffffffffffffffffffffffffffffffffffffff166352d1902d6040518163ffffffff1660e01b8152600401602060405180830381865afa9250505080156124bc57506040513d601f19601f820116820180604052508101906124b9919061366d565b60015b6124fd57816040517f4c9c8ce30000000000000000000000000000000000000000000000000000000081526004016124f49190612e76565b60405180910390fd5b7f360894a13ba1a3210667c828492db98dca3e2076cc3735a920a3ca505d382bbc5f1b811461256357806040517faa1d49a400000000000000000000000000000000000000000000000000000000815260040161255a91906132c7565b60405180910390fd5b61256d838361283c565b505050565b7f000000000000000000000000000000000000000000000000000000000000000073ffffffffffffffffffffffffffffffffffffffff163073ffffffffffffffffffffffffffffffffffffffff16146125f7576040517fe07c8dba00000000000000000000000000000000000000000000000000000000815260040160405180910390fd5b565b6126016126bd565b73ffffffffffffffffffffffffffffffffffffffff1661261f61180b565b73ffffffffffffffffffffffffffffffffffffffff161461267e576126426126bd565b6040517f118cdaa70000000000000000000000000000000000000000000000000000000081526004016126759190612e76565b60405180910390fd5b565b5f61268961276c565b9050805f015f6101000a81549073ffffffffffffffffffffffffffffffffffffffff02191690556126b9826128ae565b5050565b5f33905090565b5f6126e9835f018373ffffffffffffffffffffffffffffffffffffffff165f1b61297f565b905092915050565b5f7f9016d09d72d40fdae2fd8ceac6b6234c7706214fd39c1cd1e609a0528c199300905090565b5f61273d835f018373ffffffffffffffffffffffffffffffffffffffff165f1b612a7b565b905092915050565b5f8061274f612ae2565b90508091505090565b612760612b0b565b565b61276a612b0b565b565b5f7f237e158222e3e6968b72b9db0d8043aacf074ad9f650f0d1606b4d82ee432c00905090565b5f825f0182815481106127a9576127a86134e3565b5b905f5260205f200154905092915050565b5f815f01805490509050919050565b5f80836001015f8481526020019081526020015f20541415905092915050565b5f6128157f360894a13ba1a3210667c828492db98dca3e2076cc3735a920a3ca505d382bbc5f1b612b4b565b5f015f9054906101000a900473ffffffffffffffffffffffffffffffffffffffff16905090565b61284582612b54565b8173ffffffffffffffffffffffffffffffffffffffff167fbc7cd75a20ee27fd9adebab32041f755214dbc6bffa90cc0225b39da2e5c2d3b60405160405180910390a25f815111156128a15761289b8282612c1d565b506128aa565b6128a9612c9d565b5b5050565b5f6128b76126f1565b90505f815f015f9054906101000a900473ffffffffffffffffffffffffffffffffffffffff16905082825f015f6101000a81548173ffffffffffffffffffffffffffffffffffffffff021916908373ffffffffffffffffffffffffffffffffffffffff1602179055508273ffffffffffffffffffffffffffffffffffffffff168173ffffffffffffffffffffffffffffffffffffffff167f8be0079c531659141344cd1fd0a4f28419497f9722a3daafe3b4186f6b6457e060405160405180910390a3505050565b5f80836001015f8481526020019081526020015f205490505f8114612a70575f6001826129ac91906136c5565b90505f6001865f01805490506129c291906136c5565b9050808214612a28575f865f0182815481106129e1576129e06134e3565b5b905f5260205f200154905080875f018481548110612a0257612a016134e3565b5b905f5260205f20018190555083876001015f8381526020019081526020015f2081905550505b855f01805480612a3b57612a3a6136f8565b5b600190038181905f5260205f20015f90559055856001015f8681526020019081526020015f205f905560019350505050612a75565b5f9150505b92915050565b5f612a8683836127c9565b612ad857825f0182908060018154018082558091505060019003905f5260205f20015f9091909190915055825f0180549050836001015f8481526020019081526020015f208190555060019050612adc565b5f90505b92915050565b5f7ff0c57e16840df040f15088dc2f81fe391c3923bec73e23a9662efc9c229c6a005f1b905090565b612b13612cd9565b612b49576040517fd7e6bcf800000000000000000000000000000000000000000000000000000000815260040160405180910390fd5b565b5f819050919050565b5f8173ffffffffffffffffffffffffffffffffffffffff163b03612baf57806040517f4c9c8ce3000000000000000000000000000000000000000000000000000000008152600401612ba69190612e76565b60405180910390fd5b80612bdb7f360894a13ba1a3210667c828492db98dca3e2076cc3735a920a3ca505d382bbc5f1b612b4b565b5f015f6101000a81548173ffffffffffffffffffffffffffffffffffffffff021916908373ffffffffffffffffffffffffffffffffffffffff16021790555050565b60605f808473ffffffffffffffffffffffffffffffffffffffff1684604051612c469190613769565b5f60405180830381855af49150503d805f8114612c7e576040519150601f19603f3d011682016040523d82523d5f602084013e612c83565b606091505b5091509150612c93858383612cf7565b9250505092915050565b5f341115612cd7576040517fb398979f00000000000000000000000000000000000000000000000000000000815260040160405180910390fd5b565b5f612ce2612745565b5f0160089054906101000a900460ff16905090565b606082612d0c57612d0782612d84565b612d7c565b5f8251148015612d3257505f8473ffffffffffffffffffffffffffffffffffffffff163b145b15612d7457836040517f9996b315000000000000000000000000000000000000000000000000000000008152600401612d6b9190612e76565b60405180910390fd5b819050612d7d565b5b9392505050565b5f81511115612d965780518082602001fd5b6040517fd6bda27500000000000000000000000000000000000000000000000000000000815260040160405180910390fd5b5f604051905090565b5f80fd5b5f80fd5b5f819050919050565b612deb81612dd9565b8114612df5575f80fd5b50565b5f81359050612e0681612de2565b92915050565b5f60208284031215612e2157612e20612dd1565b5b5f612e2e84828501612df8565b91505092915050565b5f73ffffffffffffffffffffffffffffffffffffffff82169050919050565b5f612e6082612e37565b9050919050565b612e7081612e56565b82525050565b5f602082019050612e895f830184612e67565b92915050565b5f81519050919050565b5f82825260208201905092915050565b5f819050602082019050919050565b612ec181612e56565b82525050565b5f612ed28383612eb8565b60208301905092915050565b5f602082019050919050565b5f612ef482612e8f565b612efe8185612e99565b9350612f0983612ea9565b805f5b83811015612f39578151612f208882612ec7565b9750612f2b83612ede565b925050600181019050612f0c565b5085935050505092915050565b5f81519050919050565b5f82825260208201905092915050565b5f819050602082019050919050565b612f7881612dd9565b82525050565b5f612f898383612f6f565b60208301905092915050565b5f602082019050919050565b5f612fab82612f46565b612fb58185612f50565b9350612fc083612f60565b805f5b83811015612ff0578151612fd78882612f7e565b9750612fe283612f95565b925050600181019050612fc3565b5085935050505092915050565b5f60a0820190508181035f8301526130158188612eea565b905081810360208301526130298187612fa1565b9050818103604083015261303d8186612fa1565b905081810360608301526130518185612fa1565b905081810360808301526130658184612fa1565b90509695505050505050565b61307a81612e56565b8114613084575f80fd5b50565b5f8135905061309581613071565b92915050565b5f602082840312156130b0576130af612dd1565b5b5f6130bd84828501613087565b91505092915050565b5f8115159050919050565b6130da816130c6565b82525050565b5f6020820190506130f35f8301846130d1565b92915050565b5f6020820190508181035f8301526131118184612eea565b905092915050565b5f80fd5b5f80fd5b5f601f19601f8301169050919050565b7f4e487b71000000000000000000000000000000000000000000000000000000005f52604160045260245ffd5b61316782613121565b810181811067ffffffffffffffff8211171561318657613185613131565b5b80604052505050565b5f613198612dc8565b90506131a4828261315e565b919050565b5f67ffffffffffffffff8211156131c3576131c2613131565b5b6131cc82613121565b9050602081019050919050565b828183375f83830152505050565b5f6131f96131f4846131a9565b61318f565b9050828152602081018484840111156132155761321461311d565b5b6132208482856131d9565b509392505050565b5f82601f83011261323c5761323b613119565b5b813561324c8482602086016131e7565b91505092915050565b5f806040838503121561326b5761326a612dd1565b5b5f61327885828601613087565b925050602083013567ffffffffffffffff81111561329957613298612dd5565b5b6132a585828601613228565b9150509250929050565b5f819050919050565b6132c1816132af565b82525050565b5f6020820190506132da5f8301846132b8565b92915050565b6132e981612dd9565b82525050565b5f6020820190506133025f8301846132e0565b92915050565b5f819050919050565b5f61332b61332661332184612e37565b613308565b612e37565b9050919050565b5f61333c82613311565b9050919050565b5f61334d82613332565b9050919050565b61335d81613343565b82525050565b5f6020820190506133765f830184613354565b92915050565b5f60ff82169050919050565b6133918161337c565b811461339b575f80fd5b50565b5f813590506133ac81613388565b92915050565b5f805f805f8060c087890312156133cc576133cb612dd1565b5b5f6133d989828a01613087565b96505060206133ea89828a01613087565b95505060406133fb89828a01613087565b945050606061340c89828a0161339e565b935050608061341d89828a01613087565b92505060a061342e89828a01613087565b9150509295509295509295565b5f81519050919050565b5f82825260208201905092915050565b8281835e5f83830152505050565b5f61346d8261343b565b6134778185613445565b9350613487818560208601613455565b61349081613121565b840191505092915050565b5f6020820190508181035f8301526134b38184613463565b905092915050565b6134c48161337c565b82525050565b5f6020820190506134dd5f8301846134bb565b92915050565b7f4e487b71000000000000000000000000000000000000000000000000000000005f52603260045260245ffd5b5f8151905061351e81612de2565b92915050565b5f6020828403121561353957613538612dd1565b5b5f61354684828501613510565b91505092915050565b5f61356961356461355f8461337c565b613308565b612dd9565b9050919050565b6135798161354f565b82525050565b5f60c0820190506135925f830189612e67565b61359f6020830188612e67565b6135ac6040830187612e67565b6135b96060830186613570565b6135c66080830185612e67565b6135d360a0830184612e67565b979650505050505050565b5f819050919050565b5f67ffffffffffffffff82169050919050565b5f61361461360f61360a846135de565b613308565b6135e7565b9050919050565b613624816135fa565b82525050565b5f60208201905061363d5f83018461361b565b92915050565b61364c816132af565b8114613656575f80fd5b50565b5f8151905061366781613643565b92915050565b5f6020828403121561368257613681612dd1565b5b5f61368f84828501613659565b91505092915050565b7f4e487b71000000000000000000000000000000000000000000000000000000005f52601160045260245ffd5b5f6136cf82612dd9565b91506136da83612dd9565b92508282039050818111156136f2576136f1613698565b5b92915050565b7f4e487b71000000000000000000000000000000000000000000000000000000005f52603160045260245ffd5b5f81519050919050565b5f81905092915050565b5f61374382613725565b61374d818561372f565b935061375d818560208601613455565b80840191505092915050565b5f6137748284613739565b91508190509291505056fea26469706673582212208e6792e1ff7240fef4c9034f85962e8880e705d6c8b52bab760d63ea43a14d2364736f6c634300081a0033",
  "linkReferences": {},
  "deployedLinkReferences": {}
}