{
  "_format": "hh-sol-artifact-1",
  "contractName": "OrionConfig",
  "sourceName": "contracts/OrionConfig.sol",
  "abi": [
    {
      "inputs": [
        {
          "internalType": "address",
          "name": "initialOwner",
          "type": "address"
        },
        {
          "internalType": "address",
          "name": "admin_",
          "type": "address"
        },
        {
          "internalType": "address",
          "name": "underlyingAsset_",
          "type": "address"
        }
      ],
      "stateMutability": "nonpayable",
      "type": "constructor"
    },
    {
      "inputs": [],
      "name": "AlreadyRegistered",
      "type": "error"
    },
    {
      "inputs": [],
      "name": "InvalidAddress",
      "type": "error"
    },
    {
      "inputs": [],
      "name": "InvalidArguments",
      "type": "error"
    },
    {
      "inputs": [],
      "name": "NotAuthorized",
      "type": "error"
    },
    {
      "inputs": [
        {
          "internalType": "address",
          "name": "owner",
          "type": "address"
        }
      ],
      "name": "OwnableInvalidOwner",
      "type": "error"
    },
    {
      "inputs": [
        {
          "internalType": "address",
          "name": "account",
          "type": "address"
        }
      ],
      "name": "OwnableUnauthorizedAccount",
      "type": "error"
    },
    {
      "inputs": [],
      "name": "SystemNotIdle",
      "type": "error"
    },
    {
      "inputs": [
        {
          "internalType": "address",
          "name": "token",
          "type": "address"
        }
      ],
      "name": "TokenNotWhitelisted",
      "type": "error"
    },
    {
      "inputs": [],
      "name": "UnauthorizedAccess",
      "type": "error"
    },
    {
      "inputs": [],
      "name": "ZeroAddress",
      "type": "error"
    },
    {
      "anonymous": false,
      "inputs": [
        {
          "indexed": true,
          "internalType": "address",
          "name": "vault",
          "type": "address"
        }
      ],
      "name": "OrionVaultAdded",
      "type": "event"
    },
    {
      "anonymous": false,
      "inputs": [
        {
          "indexed": true,
          "internalType": "address",
          "name": "previousOwner",
          "type": "address"
        },
        {
          "indexed": true,
          "internalType": "address",
          "name": "newOwner",
          "type": "address"
        }
      ],
      "name": "OwnershipTransferred",
      "type": "event"
    },
    {
      "anonymous": false,
      "inputs": [
        {
          "indexed": true,
          "internalType": "uint16",
          "name": "riskFreeRate",
          "type": "uint16"
        }
      ],
      "name": "RiskFreeRateUpdated",
      "type": "event"
    },
    {
      "anonymous": false,
      "inputs": [
        {
          "indexed": true,
          "internalType": "address",
          "name": "asset",
          "type": "address"
        }
      ],
      "name": "WhitelistedAssetAdded",
      "type": "event"
    },
    {
      "anonymous": false,
      "inputs": [
        {
          "indexed": true,
          "internalType": "address",
          "name": "asset",
          "type": "address"
        }
      ],
      "name": "WhitelistedAssetRemoved",
      "type": "event"
    },
    {
      "inputs": [],
      "name": "MAX_RISK_FREE_RATE",
      "outputs": [
        {
          "internalType": "uint16",
          "name": "",
          "type": "uint16"
        }
      ],
      "stateMutability": "view",
      "type": "function"
    },
    {
      "inputs": [
        {
          "internalType": "address",
          "name": "vault",
          "type": "address"
        },
        {
          "internalType": "enum EventsLib.VaultType",
          "name": "vaultType",
          "type": "uint8"
        }
      ],
      "name": "addOrionVault",
      "outputs": [],
      "stateMutability": "nonpayable",
      "type": "function"
    },
    {
      "inputs": [
        {
          "internalType": "address",
          "name": "asset",
          "type": "address"
        },
        {
          "internalType": "address",
          "name": "priceAdapter",
          "type": "address"
        },
        {
          "internalType": "address",
          "name": "executionAdapter",
          "type": "address"
        }
      ],
      "name": "addWhitelistedAsset",
      "outputs": [],
      "stateMutability": "nonpayable",
      "type": "function"
    },
    {
      "inputs": [
        {
          "internalType": "address",
          "name": "vaultOwner",
          "type": "address"
        }
      ],
      "name": "addWhitelistedVaultOwner",
      "outputs": [],
      "stateMutability": "nonpayable",
      "type": "function"
    },
    {
      "inputs": [],
      "name": "admin",
      "outputs": [
        {
          "internalType": "address",
          "name": "",
          "type": "address"
        }
      ],
      "stateMutability": "view",
      "type": "function"
    },
    {
      "inputs": [
        {
          "internalType": "address",
          "name": "vault",
          "type": "address"
        }
      ],
      "name": "completeVaultDecommissioning",
      "outputs": [],
      "stateMutability": "nonpayable",
      "type": "function"
    },
    {
      "inputs": [],
      "name": "curatorIntentDecimals",
      "outputs": [
        {
          "internalType": "uint8",
          "name": "",
          "type": "uint8"
        }
      ],
      "stateMutability": "view",
      "type": "function"
    },
    {
      "inputs": [
        {
          "internalType": "enum EventsLib.VaultType",
          "name": "vaultType",
          "type": "uint8"
        }
      ],
      "name": "getAllOrionVaults",
      "outputs": [
        {
          "internalType": "address[]",
          "name": "",
          "type": "address[]"
        }
      ],
      "stateMutability": "view",
      "type": "function"
    },
    {
      "inputs": [],
      "name": "getAllWhitelistedAssets",
      "outputs": [
        {
          "internalType": "address[]",
          "name": "assets",
          "type": "address[]"
        }
      ],
      "stateMutability": "view",
      "type": "function"
    },
    {
      "inputs": [
        {
          "internalType": "address",
          "name": "token",
          "type": "address"
        }
      ],
      "name": "getTokenDecimals",
      "outputs": [
        {
          "internalType": "uint8",
          "name": "",
          "type": "uint8"
        }
      ],
      "stateMutability": "view",
      "type": "function"
    },
    {
      "inputs": [],
      "name": "internalStatesOrchestrator",
      "outputs": [
        {
          "internalType": "address",
          "name": "",
          "type": "address"
        }
      ],
      "stateMutability": "view",
      "type": "function"
    },
    {
      "inputs": [
        {
          "internalType": "address",
          "name": "vault",
          "type": "address"
        }
      ],
      "name": "isDecommissionedVault",
      "outputs": [
        {
          "internalType": "bool",
          "name": "",
          "type": "bool"
        }
      ],
      "stateMutability": "view",
      "type": "function"
    },
    {
      "inputs": [
        {
          "internalType": "address",
          "name": "vault",
          "type": "address"
        }
      ],
      "name": "isDecommissioningVault",
      "outputs": [
        {
          "internalType": "bool",
          "name": "",
          "type": "bool"
        }
      ],
      "stateMutability": "view",
      "type": "function"
    },
    {
      "inputs": [
        {
          "internalType": "address",
          "name": "vault",
          "type": "address"
        }
      ],
      "name": "isOrionVault",
      "outputs": [
        {
          "internalType": "bool",
          "name": "",
          "type": "bool"
        }
      ],
      "stateMutability": "view",
      "type": "function"
    },
    {
      "inputs": [],
      "name": "isSystemIdle",
      "outputs": [
        {
          "internalType": "bool",
          "name": "",
          "type": "bool"
        }
      ],
      "stateMutability": "view",
      "type": "function"
    },
    {
      "inputs": [
        {
          "internalType": "address",
          "name": "asset",
          "type": "address"
        }
      ],
      "name": "isWhitelisted",
      "outputs": [
        {
          "internalType": "bool",
          "name": "",
          "type": "bool"
        }
      ],
      "stateMutability": "view",
      "type": "function"
    },
    {
      "inputs": [
        {
          "internalType": "address",
          "name": "vaultOwner",
          "type": "address"
        }
      ],
      "name": "isWhitelistedVaultOwner",
      "outputs": [
        {
          "internalType": "bool",
          "name": "",
          "type": "bool"
        }
      ],
      "stateMutability": "view",
      "type": "function"
    },
    {
      "inputs": [],
      "name": "liquidityOrchestrator",
      "outputs": [
        {
          "internalType": "address",
          "name": "",
          "type": "address"
        }
      ],
      "stateMutability": "view",
      "type": "function"
    },
    {
      "inputs": [],
      "name": "owner",
      "outputs": [
        {
          "internalType": "address",
          "name": "",
          "type": "address"
        }
      ],
      "stateMutability": "view",
      "type": "function"
    },
    {
      "inputs": [],
      "name": "priceAdapterDecimals",
      "outputs": [
        {
          "internalType": "uint8",
          "name": "",
          "type": "uint8"
        }
      ],
      "stateMutability": "view",
      "type": "function"
    },
    {
      "inputs": [],
      "name": "priceAdapterRegistry",
      "outputs": [
        {
          "internalType": "address",
          "name": "",
          "type": "address"
        }
      ],
      "stateMutability": "view",
      "type": "function"
    },
    {
      "inputs": [
        {
          "internalType": "address",
          "name": "vault",
          "type": "address"
        }
      ],
      "name": "removeOrionVault",
      "outputs": [],
      "stateMutability": "nonpayable",
      "type": "function"
    },
    {
      "inputs": [
        {
          "internalType": "address",
          "name": "asset",
          "type": "address"
        }
      ],
      "name": "removeWhitelistedAsset",
      "outputs": [],
      "stateMutability": "nonpayable",
      "type": "function"
    },
    {
      "inputs": [
        {
          "internalType": "address",
          "name": "vaultOwner",
          "type": "address"
        }
      ],
      "name": "removeWhitelistedVaultOwner",
      "outputs": [],
      "stateMutability": "nonpayable",
      "type": "function"
    },
    {
      "inputs": [],
      "name": "renounceOwnership",
      "outputs": [],
      "stateMutability": "nonpayable",
      "type": "function"
    },
    {
      "inputs": [],
      "name": "riskFreeRate",
      "outputs": [
        {
          "internalType": "uint16",
          "name": "",
          "type": "uint16"
        }
      ],
      "stateMutability": "view",
      "type": "function"
    },
    {
      "inputs": [
        {
          "internalType": "address",
          "name": "orchestrator",
          "type": "address"
        }
      ],
      "name": "setInternalStatesOrchestrator",
      "outputs": [],
      "stateMutability": "nonpayable",
      "type": "function"
    },
    {
      "inputs": [
        {
          "internalType": "address",
          "name": "orchestrator",
          "type": "address"
        }
      ],
      "name": "setLiquidityOrchestrator",
      "outputs": [],
      "stateMutability": "nonpayable",
      "type": "function"
    },
    {
      "inputs": [
        {
          "internalType": "address",
          "name": "registry",
          "type": "address"
        }
      ],
      "name": "setPriceAdapterRegistry",
      "outputs": [],
      "stateMutability": "nonpayable",
      "type": "function"
    },
    {
      "inputs": [
        {
          "internalType": "uint16",
          "name": "_riskFreeRate",
          "type": "uint16"
        }
      ],
      "name": "setProtocolRiskFreeRate",
      "outputs": [],
      "stateMutability": "nonpayable",
      "type": "function"
    },
    {
      "inputs": [
        {
          "internalType": "address",
          "name": "transparentFactory",
          "type": "address"
        }
      ],
      "name": "setVaultFactory",
      "outputs": [],
      "stateMutability": "nonpayable",
      "type": "function"
    },
    {
      "inputs": [
        {
          "internalType": "address",
          "name": "",
          "type": "address"
        }
      ],
      "name": "tokenDecimals",
      "outputs": [
        {
          "internalType": "uint8",
          "name": "",
          "type": "uint8"
        }
      ],
      "stateMutability": "view",
      "type": "function"
    },
    {
      "inputs": [
        {
          "internalType": "address",
          "name": "newOwner",
          "type": "address"
        }
      ],
      "name": "transferOwnership",
      "outputs": [],
      "stateMutability": "nonpayable",
      "type": "function"
    },
    {
      "inputs": [],
      "name": "transparentVaultFactory",
      "outputs": [
        {
          "internalType": "address",
          "name": "",
          "type": "address"
        }
      ],
      "stateMutability": "view",
      "type": "function"
    },
    {
      "inputs": [],
      "name": "underlyingAsset",
      "outputs": [
        {
          "internalType": "contract IERC20",
          "name": "",
          "type": "address"
        }
      ],
      "stateMutability": "view",
      "type": "function"
    },
    {
      "inputs": [],
      "name": "whitelistedAssetsLength",
      "outputs": [
        {
          "internalType": "uint16",
          "name": "",
          "type": "uint16"
        }
      ],
      "stateMutability": "view",
      "type": "function"
    }
  ],
  "bytecode": "0x60a060405234801561000f575f5ffd5b50604051611b3b380380611b3b83398101604081905261002e91610266565b826001600160a01b03811661005c57604051631e4fbdf760e01b81525f600482015260240160405180910390fd5b61006581610193565b506001600160a01b03821661008d5760405163d92e233d60e01b815260040160405180910390fd5b6001600160a01b0381166100b45760405163d92e233d60e01b815260040160405180910390fd5b6001600160a01b03828116608052600180546001600160a01b03191691831691821790556005805461ffff60a01b1916610e0960a01b1790556040805163313ce56760e01b8152905163313ce567916004808201926020929091908290030181865afa158015610126573d5f5f3e3d5ffd5b505050506040513d601f19601f8201168201806040525081019061014a91906102a6565b6001600160a01b0382165f908152600a60205260409020805460ff191660ff9290921691909117905561017e6006826101e2565b5061018a6008846101e2565b505050506102cd565b5f80546001600160a01b038381166001600160a01b0319831681178455604051919092169283917f8be0079c531659141344cd1fd0a4f28419497f9722a3daafe3b4186f6b6457e09190a35050565b5f6101f6836001600160a01b0384166101ff565b90505b92915050565b5f81815260018301602052604081205461024457508154600181810184555f8481526020808220909301849055845484825282860190935260409020919091556101f9565b505f6101f9565b80516001600160a01b0381168114610261575f5ffd5b919050565b5f5f5f60608486031215610278575f5ffd5b6102818461024b565b925061028f6020850161024b565b915061029d6040850161024b565b90509250925092565b5f602082840312156102b6575f5ffd5b815160ff811681146102c6575f5ffd5b9392505050565b6080516118486102f35f395f818161049001528181610acc0152610c3001526118485ff3fe608060405234801561000f575f5ffd5b50600436106101aa575f3560e01c8063015df993146101ae5780630a8b78c7146101d75780632095b01e146101ec57806323a06a1c146101ff578063348ec5c8146102125780633a0dad8e146102255780633af32abf146102385780633ea7fbdb1461025b57806355fba94e1461026e578063567ba713146102815780635f248368146102a757806366e87e7f146102c2578063715018a6146102d55780637158da7c146102dd578063785c7cf6146102f05780637a0cb7841461031b57806381408ce51461032e578063849ede2314610341578063862a5f06146103545780638771de87146103675780638da5cb5b1461037a5780638ee573ac14610382578063b6dfcd8b146103a4578063c30dd727146103b7578063d11f1c35146103ca578063d1717c7d146103dd578063d5460ab5146103f1578063d86cd44e146103fa578063e0876b441461040f578063e8ffccb714610422578063ed04f21814610435578063edcf9c1f14610448578063f2fde38b14610450578063f3cc699314610463578063f764eb4514610478578063f851a4401461048b575b5f5ffd5b6005546101c1906001600160a01b031681565b6040516101ce91906114bd565b60405180910390f35b6101ea6101e53660046114e5565b6104b2565b005b6101ea6101fa3660046114e5565b61052d565b6101ea61020d366004611500565b6105a8565b6002546101c1906001600160a01b031681565b6003546101c1906001600160a01b031681565b61024b6102463660046114e5565b61077b565b60405190151581526020016101ce565b6101ea6102693660046114e5565b61078d565b6101ea61027c3660046114e5565b61082d565b60055461029590600160a81b900460ff1681565b60405160ff90911681526020016101ce565b6102af610865565b60405161ffff90911681526020016101ce565b6101ea6102d0366004611548565b610875565b6101ea610919565b6001546101c1906001600160a01b031681565b6102956102fe3660046114e5565b6001600160a01b03165f908152600a602052604090205460ff1690565b6101ea61032936600461157c565b61092c565b6101ea61033c3660046114e5565b610a0e565b6004546101c1906001600160a01b031681565b6101ea6103623660046114e5565b610ac1565b61024b6103753660046114e5565b610c0b565b6101c1610c17565b6102956103903660046114e5565b600a6020525f908152604090205460ff1681565b6101ea6103b23660046114e5565b610c25565b6101ea6103c53660046114e5565b610e27565b61024b6103d83660046114e5565b610ea2565b60055461029590600160a01b900460ff1681565b6102af61032081565b610402610eae565b6040516101ce91906115af565b61024b61041d3660046114e5565b610f61565b6101ea6104303660046114e5565b610f7e565b6104026104433660046115fa565b611048565b61024b611124565b6101ea61045e3660046114e5565b611235565b6005546102af90600160b01b900461ffff1681565b61024b6104863660046114e5565b611272565b6101c17f000000000000000000000000000000000000000000000000000000000000000081565b6104ba61127e565b6001600160a01b0381166104e15760405163d92e233d60e01b815260040160405180910390fd5b6002546001600160a01b03161561050b57604051630ea075bf60e21b815260040160405180910390fd5b600280546001600160a01b0319166001600160a01b0392909216919091179055565b61053561127e565b6001600160a01b03811661055c5760405163d92e233d60e01b815260040160405180910390fd5b6005546001600160a01b03161561058657604051630ea075bf60e21b815260040160405180910390fd5b600580546001600160a01b0319166001600160a01b0392909216919091179055565b6105b061127e565b6105b8611124565b6105d5576040516312aecd8160e01b815260040160405180910390fd5b5f6105e16006856112b0565b90508061060157604051630ea075bf60e21b815260040160405180910390fd5b836001600160a01b031663313ce5676040518163ffffffff1660e01b8152600401602060405180830381865afa15801561063d573d5f5f3e3d5ffd5b505050506040513d601f19601f820116820180604052508101906106619190611613565b6001600160a01b038581165f908152600a602052604090819020805460ff191660ff949094169390931790925560055491516302707eef60e51b8152911690634e0fdde0906106b69087908790600401611633565b5f604051808303815f87803b1580156106cd575f5ffd5b505af11580156106df573d5f5f3e3d5ffd5b50506003546040516359017aa960e01b81526001600160a01b0390911692506359017aa991506107159087908690600401611633565b5f604051808303815f87803b15801561072c575f5ffd5b505af115801561073e573d5f5f3e3d5ffd5b50506040516001600160a01b03871692507fdcbd8d9d0373041250f6c25b6b7aeccb3e9ff291e510ef85bb9f8ac09ceb6f6491505f90a250505050565b5f6107876006836112cb565b92915050565b61079561127e565b61079d611124565b6107ba576040516312aecd8160e01b815260040160405180910390fd5b6001600160a01b0381166107e15760405163d92e233d60e01b815260040160405180910390fd5b6004546001600160a01b03161561080b57604051630ea075bf60e21b815260040160405180910390fd5b600480546001600160a01b0319166001600160a01b0392909216919091179055565b61083561127e565b5f6108416008836112b0565b90508061086157604051630ea075bf60e21b815260040160405180910390fd5b5050565b5f61087060066112df565b905090565b61087d61127e565b610885611124565b6108a2576040516312aecd8160e01b815260040160405180910390fd5b61032061ffff821611156108c9576040516317dbc4cb60e21b815260040160405180910390fd5b6005805461ffff60b01b1916600160b01b61ffff84811682029290921792839055604051920416907f6c0e50288cc602be5dd504ce35358e01341e3c4f93e2e02b5a030a59bfdb84e2905f90a250565b61092161127e565b61092a5f6112e8565b565b6004546001600160a01b0316331461095757604051631a27eac360e11b815260040160405180910390fd5b6001600160a01b03821661097e5760405163d92e233d60e01b815260040160405180910390fd5b5f60018260018111156109935761099361164d565b036109aa576109a3600d846112b0565b90506109b8565b6109b5600b846112b0565b90505b806109d657604051630ea075bf60e21b815260040160405180910390fd5b6040516001600160a01b038416907f9a7094a648c0524f3d62b9167886d30be0e68cf53863fe556edda348f189445a905f90a2505050565b610a1661127e565b604051638771de8760e01b81523090638771de8790610a399084906004016114bd565b602060405180830381865afa158015610a54573d5f5f3e3d5ffd5b505050506040513d601f19601f82011682018060405250810190610a789190611661565b610a955760405163e6c4247b60e01b815260040160405180910390fd5b5f610aa1600883611337565b9050806108615760405163e6c4247b60e01b815260040160405180910390fd5b336001600160a01b037f00000000000000000000000000000000000000000000000000000000000000001614610b0a57604051631a27eac360e11b815260040160405180910390fd5b610b12611124565b610b2f576040516312aecd8160e01b815260040160405180910390fd5b604051633821dad160e21b8152309063e0876b4490610b529084906004016114bd565b602060405180830381865afa158015610b6d573d5f5f3e3d5ffd5b505050506040513d601f19601f82011682018060405250810190610b919190611661565b610bae5760405163e6c4247b60e01b815260040160405180910390fd5b610bb9600f826112b0565b50806001600160a01b031663ca78e8396040518163ffffffff1660e01b81526004015f604051808303815f87803b158015610bf2575f5ffd5b505af1158015610c04573d5f5f3e3d5ffd5b5050505050565b5f6107876008836112cb565b5f546001600160a01b031690565b336001600160a01b037f00000000000000000000000000000000000000000000000000000000000000001614610c6e57604051631a27eac360e11b815260040160405180910390fd5b610c76611124565b610c93576040516312aecd8160e01b815260040160405180910390fd5b6001546001600160a01b0390811690821603610cc2576040516317dbc4cb60e21b815260040160405180910390fd5b5f610cce600683611337565b905080610cf9578160405163751dff9760e11b8152600401610cf091906114bd565b60405180910390fd5b604051631da09e4360e31b81525f90309063ed04f21890610d1e908490600401611680565b5f60405180830381865afa158015610d38573d5f5f3e3d5ffd5b505050506040513d5f823e601f3d908101601f19168201604052610d5f91908101906116c5565b90505f5b8151811015610dee575f828281518110610d7f57610d7f61178f565b60200260200101519050806001600160a01b031663e3352c4c866040518263ffffffff1660e01b8152600401610db591906114bd565b5f604051808303815f87803b158015610dcc575f5ffd5b505af1158015610dde573d5f5f3e3d5ffd5b5050505050806001019050610d63565b506040516001600160a01b038416907f952363a786fc6f24cfb955cd6207cf91ecee3a82a7dd0bc26891ff7647b5784c905f90a2505050565b610e2f61127e565b6001600160a01b038116610e565760405163d92e233d60e01b815260040160405180910390fd5b6003546001600160a01b031615610e8057604051630ea075bf60e21b815260040160405180910390fd5b600380546001600160a01b0319166001600160a01b0392909216919091179055565b5f610787600f836112cb565b60605f610ebb60066112df565b90508061ffff166001600160401b03811115610ed957610ed96116a6565b604051908082528060200260200182016040528015610f02578160200160208202803683370190505b5091505f5b8161ffff168161ffff161015610f5c57610f26600661ffff831661134b565b838261ffff1681518110610f3c57610f3c61178f565b6001600160a01b0390921660209283029190910190910152600101610f07565b505090565b5f610f6d600d836112cb565b806107875750610787600b836112cb565b6003546001600160a01b03163314610fa95760405163ea8e4eb560e01b815260040160405180910390fd5b610fb4600f826112cb565b610fd15760405163e6c4247b60e01b815260040160405180910390fd5b5f610fdd600d836112cb565b15610ff657506001610ff0600d83611337565b5061102c565b611001600b836112cb565b1561101357505f610ff0600b83611337565b60405163e6c4247b60e01b815260040160405180910390fd5b611037600f83611337565b506110436011836112b0565b505050565b60605f600183600181111561105f5761105f61164d565b1461106b57600b61106e565b600d5b90505f61107a826112df565b90505f8161ffff166001600160401b03811115611099576110996116a6565b6040519080825280602002602001820160405280156110c2578160200160208202803683370190505b5090505f5b8261ffff168161ffff16101561111b576110e58461ffff831661134b565b828261ffff16815181106110fb576110fb61178f565b6001600160a01b03909216602092830291909101909101526001016110c7565b50949350505050565b5f8060035f9054906101000a90046001600160a01b03166001600160a01b031663055ad42e6040518163ffffffff1660e01b8152600401602060405180830381865afa158015611176573d5f5f3e3d5ffd5b505050506040513d601f19601f8201168201806040525081019061119a91906117a3565b60038111156111ab576111ab61164d565b1480156108705750600254604080516302ad6a1760e11b815290515f926001600160a01b03169163055ad42e9160048083019260209291908290030181865afa1580156111fa573d5f5f3e3d5ffd5b505050506040513d601f19601f8201168201806040525081019061121e91906117c1565b600481111561122f5761122f61164d565b14905090565b61123d61127e565b6001600160a01b038116611266575f604051631e4fbdf760e01b8152600401610cf091906114bd565b61126f816112e8565b50565b5f6107876011836112cb565b33611287610c17565b6001600160a01b03161461092a573360405163118cdaa760e01b8152600401610cf091906114bd565b5f6112c4836001600160a01b038416611356565b9392505050565b5f6112c4836001600160a01b03841661139d565b5f610787825490565b5f80546001600160a01b038381166001600160a01b0319831681178455604051919092169283917f8be0079c531659141344cd1fd0a4f28419497f9722a3daafe3b4186f6b6457e09190a35050565b5f6112c4836001600160a01b0384166113b4565b5f6112c48383611497565b5f611361838361139d565b61139657508154600181810184555f848152602080822090930184905584548482528286019093526040902091909155610787565b505f610787565b5f9081526001919091016020526040902054151590565b5f818152600183016020526040812054801561148e575f6113d66001836117df565b85549091505f906113e9906001906117df565b9050808214611448575f865f0182815481106114075761140761178f565b905f5260205f200154905080875f0184815481106114275761142761178f565b5f918252602080832090910192909255918252600188019052604090208390555b8554869080611459576114596117fe565b600190038181905f5260205f20015f90559055856001015f8681526020019081526020015f205f905560019350505050610787565b5f915050610787565b5f825f0182815481106114ac576114ac61178f565b905f5260205f200154905092915050565b6001600160a01b0391909116815260200190565b6001600160a01b038116811461126f575f5ffd5b5f602082840312156114f5575f5ffd5b81356112c4816114d1565b5f5f5f60608486031215611512575f5ffd5b833561151d816114d1565b9250602084013561152d816114d1565b9150604084013561153d816114d1565b809150509250925092565b5f60208284031215611558575f5ffd5b813561ffff811681146112c4575f5ffd5b803560028110611577575f5ffd5b919050565b5f5f6040838503121561158d575f5ffd5b8235611598816114d1565b91506115a660208401611569565b90509250929050565b602080825282518282018190525f918401906040840190835b818110156115ef5783516001600160a01b03168352602093840193909201916001016115c8565b509095945050505050565b5f6020828403121561160a575f5ffd5b6112c482611569565b5f60208284031215611623575f5ffd5b815160ff811681146112c4575f5ffd5b6001600160a01b0392831681529116602082015260400190565b634e487b7160e01b5f52602160045260245ffd5b5f60208284031215611671575f5ffd5b815180151581146112c4575f5ffd5b60208101600283106116a057634e487b7160e01b5f52602160045260245ffd5b91905290565b634e487b7160e01b5f52604160045260245ffd5b8051611577816114d1565b5f602082840312156116d5575f5ffd5b81516001600160401b038111156116ea575f5ffd5b8201601f810184136116fa575f5ffd5b80516001600160401b03811115611713576117136116a6565b604051600582901b90603f8201601f191681016001600160401b0381118282101715611741576117416116a6565b60405291825260208184018101929081018784111561175e575f5ffd5b6020850194505b8385101561178457611776856116ba565b815260209485019401611765565b509695505050505050565b634e487b7160e01b5f52603260045260245ffd5b5f602082840312156117b3575f5ffd5b8151600481106112c4575f5ffd5b5f602082840312156117d1575f5ffd5b8151600581106112c4575f5ffd5b8181038181111561078757634e487b7160e01b5f52601160045260245ffd5b634e487b7160e01b5f52603160045260245ffdfea2646970667358221220998ebb0e002b8c5e67bf8d604ff1c22ac26419e8a7696b812aa9939930f37c0f64736f6c634300081c0033",
  "linkReferences": {},
  "deployedLinkReferences": {}
}