{
  "_format": "hh-sol-artifact-1",
  "contractName": "OrionConfig",
  "sourceName": "contracts/OrionConfig.sol",
  "abi": [
    {
      "inputs": [
        {
          "internalType": "address",
          "name": "initialOwner",
          "type": "address"
        }
      ],
      "stateMutability": "nonpayable",
      "type": "constructor"
    },
    {
      "inputs": [],
      "name": "AlreadyRegistered",
      "type": "error"
    },
    {
      "inputs": [
        {
          "internalType": "address",
          "name": "owner",
          "type": "address"
        }
      ],
      "name": "OwnableInvalidOwner",
      "type": "error"
    },
    {
      "inputs": [
        {
          "internalType": "address",
          "name": "account",
          "type": "address"
        }
      ],
      "name": "OwnableUnauthorizedAccount",
      "type": "error"
    },
    {
      "inputs": [],
      "name": "SystemNotIdle",
      "type": "error"
    },
    {
      "inputs": [
        {
          "internalType": "address",
          "name": "token",
          "type": "address"
        }
      ],
      "name": "TokenNotWhitelisted",
      "type": "error"
    },
    {
      "inputs": [],
      "name": "UnauthorizedAccess",
      "type": "error"
    },
    {
      "inputs": [],
      "name": "ZeroAddress",
      "type": "error"
    },
    {
      "anonymous": false,
      "inputs": [
        {
          "indexed": true,
          "internalType": "address",
          "name": "vault",
          "type": "address"
        }
      ],
      "name": "OrionVaultAdded",
      "type": "event"
    },
    {
      "anonymous": false,
      "inputs": [
        {
          "indexed": true,
          "internalType": "address",
          "name": "vault",
          "type": "address"
        }
      ],
      "name": "OrionVaultRemoved",
      "type": "event"
    },
    {
      "anonymous": false,
      "inputs": [
        {
          "indexed": true,
          "internalType": "address",
          "name": "previousOwner",
          "type": "address"
        },
        {
          "indexed": true,
          "internalType": "address",
          "name": "newOwner",
          "type": "address"
        }
      ],
      "name": "OwnershipTransferred",
      "type": "event"
    },
    {
      "anonymous": false,
      "inputs": [],
      "name": "ProtocolParamsUpdated",
      "type": "event"
    },
    {
      "anonymous": false,
      "inputs": [
        {
          "indexed": true,
          "internalType": "address",
          "name": "asset",
          "type": "address"
        }
      ],
      "name": "WhitelistedAssetAdded",
      "type": "event"
    },
    {
      "anonymous": false,
      "inputs": [
        {
          "indexed": true,
          "internalType": "address",
          "name": "asset",
          "type": "address"
        }
      ],
      "name": "WhitelistedAssetRemoved",
      "type": "event"
    },
    {
      "inputs": [
        {
          "internalType": "address",
          "name": "vault",
          "type": "address"
        },
        {
          "internalType": "enum EventsLib.VaultType",
          "name": "vaultType",
          "type": "uint8"
        }
      ],
      "name": "addOrionVault",
      "outputs": [],
      "stateMutability": "nonpayable",
      "type": "function"
    },
    {
      "inputs": [
        {
          "internalType": "address",
          "name": "asset",
          "type": "address"
        },
        {
          "internalType": "address",
          "name": "priceAdapter",
          "type": "address"
        },
        {
          "internalType": "address",
          "name": "executionAdapter",
          "type": "address"
        }
      ],
      "name": "addWhitelistedAsset",
      "outputs": [],
      "stateMutability": "nonpayable",
      "type": "function"
    },
    {
      "inputs": [],
      "name": "curatorIntentDecimals",
      "outputs": [
        {
          "internalType": "uint8",
          "name": "",
          "type": "uint8"
        }
      ],
      "stateMutability": "view",
      "type": "function"
    },
    {
      "inputs": [],
      "name": "encryptedMinibatchSize",
      "outputs": [
        {
          "internalType": "uint8",
          "name": "",
          "type": "uint8"
        }
      ],
      "stateMutability": "view",
      "type": "function"
    },
    {
      "inputs": [],
      "name": "encryptedVaultFactory",
      "outputs": [
        {
          "internalType": "address",
          "name": "",
          "type": "address"
        }
      ],
      "stateMutability": "view",
      "type": "function"
    },
    {
      "inputs": [
        {
          "internalType": "enum EventsLib.VaultType",
          "name": "vaultType",
          "type": "uint8"
        }
      ],
      "name": "getAllOrionVaults",
      "outputs": [
        {
          "internalType": "address[]",
          "name": "",
          "type": "address[]"
        }
      ],
      "stateMutability": "view",
      "type": "function"
    },
    {
      "inputs": [],
      "name": "getAllWhitelistedAssets",
      "outputs": [
        {
          "internalType": "address[]",
          "name": "assets",
          "type": "address[]"
        }
      ],
      "stateMutability": "view",
      "type": "function"
    },
    {
      "inputs": [
        {
          "internalType": "uint16",
          "name": "index",
          "type": "uint16"
        }
      ],
      "name": "getWhitelistedAssetAt",
      "outputs": [
        {
          "internalType": "address",
          "name": "",
          "type": "address"
        }
      ],
      "stateMutability": "view",
      "type": "function"
    },
    {
      "inputs": [],
      "name": "internalStatesOrchestrator",
      "outputs": [
        {
          "internalType": "address",
          "name": "",
          "type": "address"
        }
      ],
      "stateMutability": "view",
      "type": "function"
    },
    {
      "inputs": [
        {
          "internalType": "address",
          "name": "vault",
          "type": "address"
        }
      ],
      "name": "isOrionVault",
      "outputs": [
        {
          "internalType": "bool",
          "name": "",
          "type": "bool"
        }
      ],
      "stateMutability": "view",
      "type": "function"
    },
    {
      "inputs": [],
      "name": "isSystemIdle",
      "outputs": [
        {
          "internalType": "bool",
          "name": "",
          "type": "bool"
        }
      ],
      "stateMutability": "view",
      "type": "function"
    },
    {
      "inputs": [
        {
          "internalType": "address",
          "name": "asset",
          "type": "address"
        }
      ],
      "name": "isWhitelisted",
      "outputs": [
        {
          "internalType": "bool",
          "name": "",
          "type": "bool"
        }
      ],
      "stateMutability": "view",
      "type": "function"
    },
    {
      "inputs": [],
      "name": "liquidityOrchestrator",
      "outputs": [
        {
          "internalType": "address",
          "name": "",
          "type": "address"
        }
      ],
      "stateMutability": "view",
      "type": "function"
    },
    {
      "inputs": [],
      "name": "owner",
      "outputs": [
        {
          "internalType": "address",
          "name": "",
          "type": "address"
        }
      ],
      "stateMutability": "view",
      "type": "function"
    },
    {
      "inputs": [],
      "name": "priceAdapterDecimals",
      "outputs": [
        {
          "internalType": "uint8",
          "name": "",
          "type": "uint8"
        }
      ],
      "stateMutability": "view",
      "type": "function"
    },
    {
      "inputs": [],
      "name": "priceAdapterRegistry",
      "outputs": [
        {
          "internalType": "address",
          "name": "",
          "type": "address"
        }
      ],
      "stateMutability": "view",
      "type": "function"
    },
    {
      "inputs": [
        {
          "internalType": "address",
          "name": "vault",
          "type": "address"
        },
        {
          "internalType": "enum EventsLib.VaultType",
          "name": "vaultType",
          "type": "uint8"
        }
      ],
      "name": "removeOrionVault",
      "outputs": [],
      "stateMutability": "nonpayable",
      "type": "function"
    },
    {
      "inputs": [
        {
          "internalType": "address",
          "name": "asset",
          "type": "address"
        }
      ],
      "name": "removeWhitelistedAsset",
      "outputs": [],
      "stateMutability": "nonpayable",
      "type": "function"
    },
    {
      "inputs": [],
      "name": "renounceOwnership",
      "outputs": [],
      "stateMutability": "nonpayable",
      "type": "function"
    },
    {
      "inputs": [
        {
          "internalType": "address",
          "name": "orchestrator",
          "type": "address"
        }
      ],
      "name": "setInternalStatesOrchestrator",
      "outputs": [],
      "stateMutability": "nonpayable",
      "type": "function"
    },
    {
      "inputs": [
        {
          "internalType": "address",
          "name": "orchestrator",
          "type": "address"
        }
      ],
      "name": "setLiquidityOrchestrator",
      "outputs": [],
      "stateMutability": "nonpayable",
      "type": "function"
    },
    {
      "inputs": [
        {
          "internalType": "address",
          "name": "registry",
          "type": "address"
        }
      ],
      "name": "setPriceAdapterRegistry",
      "outputs": [],
      "stateMutability": "nonpayable",
      "type": "function"
    },
    {
      "inputs": [
        {
          "internalType": "uint8",
          "name": "_curatorIntentDecimals",
          "type": "uint8"
        },
        {
          "internalType": "uint8",
          "name": "_priceAdapterDecimals",
          "type": "uint8"
        },
        {
          "internalType": "uint8",
          "name": "_transparentMinibatchSize",
          "type": "uint8"
        },
        {
          "internalType": "uint8",
          "name": "_encryptedMinibatchSize",
          "type": "uint8"
        }
      ],
      "name": "setProtocolParams",
      "outputs": [],
      "stateMutability": "nonpayable",
      "type": "function"
    },
    {
      "inputs": [
        {
          "internalType": "address",
          "name": "asset",
          "type": "address"
        }
      ],
      "name": "setUnderlyingAsset",
      "outputs": [],
      "stateMutability": "nonpayable",
      "type": "function"
    },
    {
      "inputs": [
        {
          "internalType": "address",
          "name": "transparentFactory",
          "type": "address"
        },
        {
          "internalType": "address",
          "name": "encryptedFactory",
          "type": "address"
        }
      ],
      "name": "setVaultFactories",
      "outputs": [],
      "stateMutability": "nonpayable",
      "type": "function"
    },
    {
      "inputs": [
        {
          "internalType": "address",
          "name": "newOwner",
          "type": "address"
        }
      ],
      "name": "transferOwnership",
      "outputs": [],
      "stateMutability": "nonpayable",
      "type": "function"
    },
    {
      "inputs": [],
      "name": "transparentMinibatchSize",
      "outputs": [
        {
          "internalType": "uint8",
          "name": "",
          "type": "uint8"
        }
      ],
      "stateMutability": "view",
      "type": "function"
    },
    {
      "inputs": [],
      "name": "transparentVaultFactory",
      "outputs": [
        {
          "internalType": "address",
          "name": "",
          "type": "address"
        }
      ],
      "stateMutability": "view",
      "type": "function"
    },
    {
      "inputs": [],
      "name": "underlyingAsset",
      "outputs": [
        {
          "internalType": "contract IERC20",
          "name": "",
          "type": "address"
        }
      ],
      "stateMutability": "view",
      "type": "function"
    },
    {
      "inputs": [],
      "name": "whitelistedAssetsLength",
      "outputs": [
        {
          "internalType": "uint16",
          "name": "",
          "type": "uint16"
        }
      ],
      "stateMutability": "view",
      "type": "function"
    }
  ],
  "bytecode": "0x6080604052348015600e575f5ffd5b50604051611423380380611423833981016040819052602b9160b4565b806001600160a01b038116605857604051631e4fbdf760e01b81525f600482015260240160405180910390fd5b605f816065565b505060df565b5f80546001600160a01b038381166001600160a01b0319831681178455604051919092169283917f8be0079c531659141344cd1fd0a4f28419497f9722a3daafe3b4186f6b6457e09190a35050565b5f6020828403121560c3575f5ffd5b81516001600160a01b038116811460d8575f5ffd5b9392505050565b611337806100ec5f395ff3fe608060405234801561000f575f5ffd5b5060043610610168575f3560e01c8063015df9931461016c57806308af604d146101955780630a8b78c7146101bb5780631dbc3c04146101d05780632095b01e146101e357806323a06a1c146101f65780632430dbf31461020957806325671dcb1461021c578063348ec5c81461022f57806336021ef4146102425780633a0dad8e146102565780633af32abf14610269578063567ba7131461028c5780635f248368146102a0578063715018a6146102bb5780637158da7c146102c35780637a0cb784146102d6578063849ede23146102e95780638da5cb5b146102fc57806391a848f314610304578063a51b8d5a14610317578063b6dfcd8b1461032a578063bb7076c51461033d578063c30dd72714610350578063d1717c7d14610363578063d86cd44e14610377578063e0876b441461038c578063ed04f2181461039f578063edcf9c1f146103b2578063f2fde38b146103ba575b5f5ffd5b60065461017f906001600160a01b031681565b60405161018c919061107c565b60405180910390f35b6006546101a990600160a81b900460ff1681565b60405160ff909116815260200161018c565b6101ce6101c93660046110ab565b6103cd565b005b6101ce6101de3660046110d2565b61041e565b6101ce6101f13660046110ab565b6104db565b6101ce610204366004611103565b610551565b61017f610217366004611143565b6106a1565b6101ce61022a3660046110ab565b6106b7565b60025461017f906001600160a01b031681565b6006546101a990600160b01b900460ff1681565b60035461017f906001600160a01b031681565b61027c6102773660046110ab565b610708565b604051901515815260200161018c565b6006546101a990600160a01b900460ff1681565b6102a8610714565b60405161ffff909116815260200161018c565b6101ce610724565b60015461017f906001600160a01b031681565b6101ce6102e43660046110d2565b610737565b60045461017f906001600160a01b031681565b61017f610832565b60055461017f906001600160a01b031681565b6101ce610325366004611164565b610840565b6101ce6103383660046110ab565b6108e9565b6101ce61034b36600461119c565b610a3e565b6101ce61035e3660046110ab565b610af2565b6006546101a990600160b81b900460ff1681565b61037f610b43565b60405161018c91906111ed565b61027c61039a3660046110ab565b610bf6565b61037f6103ad366004611238565b610c13565b61027c610cef565b6101ce6103c83660046110ab565b610e00565b6103d5610e3d565b6001600160a01b0381166103fc5760405163d92e233d60e01b815260040160405180910390fd5b600280546001600160a01b0319166001600160a01b0392909216919091179055565b610426610e3d565b61042e610cef565b61044b576040516312aecd8160e01b815260040160405180910390fd5b5f600182600181111561046057610460611251565b0361047757610470600b84610e6f565b9050610485565b610482600984610e6f565b90505b806104a357604051631a27eac360e11b815260040160405180910390fd5b6040516001600160a01b038416907fe47da341e0fc63816c1254f1c35425f69460f49342668d11c984ea56762b00d4905f90a2505050565b6104e3610e3d565b6104eb610cef565b610508576040516312aecd8160e01b815260040160405180910390fd5b6001600160a01b03811661052f5760405163d92e233d60e01b815260040160405180910390fd5b600680546001600160a01b0319166001600160a01b0392909216919091179055565b610559610e3d565b610561610cef565b61057e576040516312aecd8160e01b815260040160405180910390fd5b5f61058a600785610e8a565b9050806105aa57604051630ea075bf60e21b815260040160405180910390fd5b6006546040516302707eef60e51b81526001600160a01b0390911690634e0fdde0906105dc9087908790600401611265565b5f604051808303815f87803b1580156105f3575f5ffd5b505af1158015610605573d5f5f3e3d5ffd5b50506003546040516359017aa960e01b81526001600160a01b0390911692506359017aa9915061063b9087908690600401611265565b5f604051808303815f87803b158015610652575f5ffd5b505af1158015610664573d5f5f3e3d5ffd5b50506040516001600160a01b03871692507fdcbd8d9d0373041250f6c25b6b7aeccb3e9ff291e510ef85bb9f8ac09ceb6f6491505f90a250505050565b5f6106b1600761ffff8416610e9e565b92915050565b6106bf610e3d565b6001600160a01b0381166106e65760405163d92e233d60e01b815260040160405180910390fd5b600180546001600160a01b0319166001600160a01b0392909216919091179055565b5f6106b1600783610ea9565b5f61071f6007610ebd565b905090565b61072c610e3d565b6107355f610ec6565b565b6004546001600160a01b0316331480159061075d57506005546001600160a01b03163314155b1561077b57604051631a27eac360e11b815260040160405180910390fd5b6001600160a01b0382166107a25760405163d92e233d60e01b815260040160405180910390fd5b5f60018260018111156107b7576107b7611251565b036107ce576107c7600b84610e8a565b90506107dc565b6107d9600984610e8a565b90505b806107fa57604051630ea075bf60e21b815260040160405180910390fd5b6040516001600160a01b038416907f9a7094a648c0524f3d62b9167886d30be0e68cf53863fe556edda348f189445a905f90a2505050565b5f546001600160a01b031690565b610848610e3d565b610850610cef565b61086d576040516312aecd8160e01b815260040160405180910390fd5b6001600160a01b0382166108945760405163d92e233d60e01b815260040160405180910390fd5b6001600160a01b0381166108bb5760405163d92e233d60e01b815260040160405180910390fd5b600480546001600160a01b039384166001600160a01b03199182161790915560058054929093169116179055565b6108f1610e3d565b6108f9610cef565b610916576040516312aecd8160e01b815260040160405180910390fd5b5f610922600783610e6f565b90508061094d578160405163751dff9760e11b8152600401610944919061107c565b60405180910390fd5b600654604051634386017560e01b81526001600160a01b039091169063438601759061097d90859060040161107c565b5f604051808303815f87803b158015610994575f5ffd5b505af11580156109a6573d5f5f3e3d5ffd5b505060035460405163841181ef60e01b81526001600160a01b03909116925063841181ef91506109da90859060040161107c565b5f604051808303815f87803b1580156109f1575f5ffd5b505af1158015610a03573d5f5f3e3d5ffd5b50506040516001600160a01b03851692507f952363a786fc6f24cfb955cd6207cf91ecee3a82a7dd0bc26891ff7647b5784c91505f90a25050565b610a46610e3d565b610a4e610cef565b610a6b576040516312aecd8160e01b815260040160405180910390fd5b6006805463ff0000ff60a01b1916600160b81b60ff8781169190910260ff60a01b191691909117600160a01b868316021761ffff60a81b1916600160a81b8583160260ff60b01b191617600160b01b918416919091021790556040517fc56626e36ca25ee9a19c58d2d4f9a4569523b059e6aaeb263573ded93fc33c5a905f90a150505050565b610afa610e3d565b6001600160a01b038116610b215760405163d92e233d60e01b815260040160405180910390fd5b600380546001600160a01b0319166001600160a01b0392909216919091179055565b60605f610b506007610ebd565b90508061ffff166001600160401b03811115610b6e57610b6e61127f565b604051908082528060200260200182016040528015610b97578160200160208202803683370190505b5091505f5b8161ffff168161ffff161015610bf157610bbb600761ffff8316610e9e565b838261ffff1681518110610bd157610bd1611293565b6001600160a01b0390921660209283029190910190910152600101610b9c565b505090565b5f610c02600b83610ea9565b806106b157506106b1600983610ea9565b60605f6001836001811115610c2a57610c2a611251565b14610c36576009610c39565b600b5b90505f610c4582610ebd565b90505f8161ffff166001600160401b03811115610c6457610c6461127f565b604051908082528060200260200182016040528015610c8d578160200160208202803683370190505b5090505f5b8261ffff168161ffff161015610ce657610cb08461ffff8316610e9e565b828261ffff1681518110610cc657610cc6611293565b6001600160a01b0390921660209283029190910190910152600101610c92565b50949350505050565b5f8060035f9054906101000a90046001600160a01b03166001600160a01b031663055ad42e6040518163ffffffff1660e01b8152600401602060405180830381865afa158015610d41573d5f5f3e3d5ffd5b505050506040513d601f19601f82011682018060405250810190610d6591906112b3565b6003811115610d7657610d76611251565b14801561071f5750600254604080516302ad6a1760e11b815290515f926001600160a01b03169163055ad42e9160048083019260209291908290030181865afa158015610dc5573d5f5f3e3d5ffd5b505050506040513d601f19601f82011682018060405250810190610de991906112b3565b6003811115610dfa57610dfa611251565b14905090565b610e08610e3d565b6001600160a01b038116610e31575f604051631e4fbdf760e01b8152600401610944919061107c565b610e3a81610ec6565b50565b33610e46610832565b6001600160a01b031614610735573360405163118cdaa760e01b8152600401610944919061107c565b5f610e83836001600160a01b038416610f15565b9392505050565b5f610e83836001600160a01b038416610ff8565b5f610e83838361103f565b5f610e83836001600160a01b038416611065565b5f6106b1825490565b5f80546001600160a01b038381166001600160a01b0319831681178455604051919092169283917f8be0079c531659141344cd1fd0a4f28419497f9722a3daafe3b4186f6b6457e09190a35050565b5f8181526001830160205260408120548015610fef575f610f376001836112ce565b85549091505f90610f4a906001906112ce565b9050808214610fa9575f865f018281548110610f6857610f68611293565b905f5260205f200154905080875f018481548110610f8857610f88611293565b5f918252602080832090910192909255918252600188019052604090208390555b8554869080610fba57610fba6112ed565b600190038181905f5260205f20015f90559055856001015f8681526020019081526020015f205f9055600193505050506106b1565b5f9150506106b1565b5f6110038383611065565b61103857508154600181810184555f8481526020808220909301849055845484825282860190935260409020919091556106b1565b505f6106b1565b5f825f01828154811061105457611054611293565b905f5260205f200154905092915050565b5f9081526001919091016020526040902054151590565b6001600160a01b0391909116815260200190565b80356001600160a01b03811681146110a6575f5ffd5b919050565b5f602082840312156110bb575f5ffd5b610e8382611090565b8035600281106110a6575f5ffd5b5f5f604083850312156110e3575f5ffd5b6110ec83611090565b91506110fa602084016110c4565b90509250929050565b5f5f5f60608486031215611115575f5ffd5b61111e84611090565b925061112c60208501611090565b915061113a60408501611090565b90509250925092565b5f60208284031215611153575f5ffd5b813561ffff81168114610e83575f5ffd5b5f5f60408385031215611175575f5ffd5b61117e83611090565b91506110fa60208401611090565b803560ff811681146110a6575f5ffd5b5f5f5f5f608085870312156111af575f5ffd5b6111b88561118c565b93506111c66020860161118c565b92506111d46040860161118c565b91506111e26060860161118c565b905092959194509250565b602080825282518282018190525f918401906040840190835b8181101561122d5783516001600160a01b0316835260209384019390920191600101611206565b509095945050505050565b5f60208284031215611248575f5ffd5b610e83826110c4565b634e487b7160e01b5f52602160045260245ffd5b6001600160a01b0392831681529116602082015260400190565b634e487b7160e01b5f52604160045260245ffd5b634e487b7160e01b5f52603260045260245ffd5b60048110610e3a575f5ffd5b5f602082840312156112c3575f5ffd5b8151610e83816112a7565b818103818111156106b157634e487b7160e01b5f52601160045260245ffd5b634e487b7160e01b5f52603160045260245ffdfea2646970667358221220011aee1cd9477b49f45e253b3ff9a350939d8ef299163320116f78c7f74c547c64736f6c634300081c0033",
  "linkReferences": {},
  "deployedLinkReferences": {}
}