{
  "_format": "hh-sol-artifact-1",
  "contractName": "OrionConfig",
  "sourceName": "contracts/OrionConfig.sol",
  "abi": [
    {
      "inputs": [
        {
          "internalType": "address",
          "name": "initialOwner",
          "type": "address"
        },
        {
          "internalType": "address",
          "name": "admin_",
          "type": "address"
        },
        {
          "internalType": "address",
          "name": "underlyingAsset_",
          "type": "address"
        }
      ],
      "stateMutability": "nonpayable",
      "type": "constructor"
    },
    {
      "inputs": [],
      "name": "AlreadyRegistered",
      "type": "error"
    },
    {
      "inputs": [],
      "name": "InvalidAddress",
      "type": "error"
    },
    {
      "inputs": [],
      "name": "InvalidArguments",
      "type": "error"
    },
    {
      "inputs": [],
      "name": "InvalidState",
      "type": "error"
    },
    {
      "inputs": [],
      "name": "NotAuthorized",
      "type": "error"
    },
    {
      "inputs": [
        {
          "internalType": "address",
          "name": "owner",
          "type": "address"
        }
      ],
      "name": "OwnableInvalidOwner",
      "type": "error"
    },
    {
      "inputs": [
        {
          "internalType": "address",
          "name": "account",
          "type": "address"
        }
      ],
      "name": "OwnableUnauthorizedAccount",
      "type": "error"
    },
    {
      "inputs": [],
      "name": "SystemNotIdle",
      "type": "error"
    },
    {
      "inputs": [
        {
          "internalType": "address",
          "name": "token",
          "type": "address"
        }
      ],
      "name": "TokenNotWhitelisted",
      "type": "error"
    },
    {
      "inputs": [],
      "name": "ZeroAddress",
      "type": "error"
    },
    {
      "anonymous": false,
      "inputs": [
        {
          "indexed": true,
          "internalType": "address",
          "name": "asset",
          "type": "address"
        },
        {
          "indexed": true,
          "internalType": "address",
          "name": "adapter",
          "type": "address"
        }
      ],
      "name": "ExecutionAdapterSet",
      "type": "event"
    },
    {
      "anonymous": false,
      "inputs": [
        {
          "indexed": true,
          "internalType": "uint256",
          "name": "newCooldownDuration",
          "type": "uint256"
        }
      ],
      "name": "FeeChangeCooldownDurationUpdated",
      "type": "event"
    },
    {
      "anonymous": false,
      "inputs": [
        {
          "indexed": true,
          "internalType": "address",
          "name": "guardian",
          "type": "address"
        }
      ],
      "name": "GuardianUpdated",
      "type": "event"
    },
    {
      "anonymous": false,
      "inputs": [
        {
          "indexed": true,
          "internalType": "uint256",
          "name": "maxFulfillBatchSize",
          "type": "uint256"
        }
      ],
      "name": "MaxFulfillBatchSizeUpdated",
      "type": "event"
    },
    {
      "anonymous": false,
      "inputs": [
        {
          "indexed": true,
          "internalType": "uint256",
          "name": "minDepositAmount",
          "type": "uint256"
        }
      ],
      "name": "MinDepositAmountUpdated",
      "type": "event"
    },
    {
      "anonymous": false,
      "inputs": [
        {
          "indexed": true,
          "internalType": "uint256",
          "name": "minRedeemAmount",
          "type": "uint256"
        }
      ],
      "name": "MinRedeemAmountUpdated",
      "type": "event"
    },
    {
      "anonymous": false,
      "inputs": [
        {
          "indexed": true,
          "internalType": "address",
          "name": "vault",
          "type": "address"
        }
      ],
      "name": "OrionVaultAdded",
      "type": "event"
    },
    {
      "anonymous": false,
      "inputs": [
        {
          "indexed": true,
          "internalType": "address",
          "name": "previousOwner",
          "type": "address"
        },
        {
          "indexed": true,
          "internalType": "address",
          "name": "newOwner",
          "type": "address"
        }
      ],
      "name": "OwnershipTransferStarted",
      "type": "event"
    },
    {
      "anonymous": false,
      "inputs": [
        {
          "indexed": true,
          "internalType": "address",
          "name": "previousOwner",
          "type": "address"
        },
        {
          "indexed": true,
          "internalType": "address",
          "name": "newOwner",
          "type": "address"
        }
      ],
      "name": "OwnershipTransferred",
      "type": "event"
    },
    {
      "anonymous": false,
      "inputs": [
        {
          "indexed": true,
          "internalType": "address",
          "name": "pauser",
          "type": "address"
        }
      ],
      "name": "ProtocolPaused",
      "type": "event"
    },
    {
      "anonymous": false,
      "inputs": [
        {
          "indexed": true,
          "internalType": "address",
          "name": "unpauser",
          "type": "address"
        }
      ],
      "name": "ProtocolUnpaused",
      "type": "event"
    },
    {
      "anonymous": false,
      "inputs": [
        {
          "indexed": true,
          "internalType": "uint16",
          "name": "riskFreeRate",
          "type": "uint16"
        }
      ],
      "name": "RiskFreeRateUpdated",
      "type": "event"
    },
    {
      "anonymous": false,
      "inputs": [
        {
          "indexed": true,
          "internalType": "address",
          "name": "asset",
          "type": "address"
        },
        {
          "indexed": false,
          "internalType": "uint8",
          "name": "newDecimals",
          "type": "uint8"
        }
      ],
      "name": "TokenDecimalsUpdated",
      "type": "event"
    },
    {
      "anonymous": false,
      "inputs": [
        {
          "indexed": true,
          "internalType": "address",
          "name": "vaultOwner",
          "type": "address"
        }
      ],
      "name": "VaultOwnerRemoved",
      "type": "event"
    },
    {
      "anonymous": false,
      "inputs": [
        {
          "indexed": true,
          "internalType": "address",
          "name": "asset",
          "type": "address"
        }
      ],
      "name": "WhitelistedAssetAdded",
      "type": "event"
    },
    {
      "anonymous": false,
      "inputs": [
        {
          "indexed": true,
          "internalType": "address",
          "name": "asset",
          "type": "address"
        }
      ],
      "name": "WhitelistedAssetRemoved",
      "type": "event"
    },
    {
      "inputs": [],
      "name": "MAX_RISK_FREE_RATE",
      "outputs": [
        {
          "internalType": "uint16",
          "name": "",
          "type": "uint16"
        }
      ],
      "stateMutability": "view",
      "type": "function"
    },
    {
      "inputs": [],
      "name": "acceptOwnership",
      "outputs": [],
      "stateMutability": "nonpayable",
      "type": "function"
    },
    {
      "inputs": [
        {
          "internalType": "address",
          "name": "vault",
          "type": "address"
        },
        {
          "internalType": "enum EventsLib.VaultType",
          "name": "vaultType",
          "type": "uint8"
        }
      ],
      "name": "addOrionVault",
      "outputs": [],
      "stateMutability": "nonpayable",
      "type": "function"
    },
    {
      "inputs": [
        {
          "internalType": "address",
          "name": "asset",
          "type": "address"
        },
        {
          "internalType": "address",
          "name": "priceAdapter",
          "type": "address"
        },
        {
          "internalType": "address",
          "name": "executionAdapter",
          "type": "address"
        }
      ],
      "name": "addWhitelistedAsset",
      "outputs": [],
      "stateMutability": "nonpayable",
      "type": "function"
    },
    {
      "inputs": [
        {
          "internalType": "address",
          "name": "curator",
          "type": "address"
        }
      ],
      "name": "addWhitelistedCurator",
      "outputs": [],
      "stateMutability": "nonpayable",
      "type": "function"
    },
    {
      "inputs": [
        {
          "internalType": "address",
          "name": "vaultOwner",
          "type": "address"
        }
      ],
      "name": "addWhitelistedVaultOwner",
      "outputs": [],
      "stateMutability": "nonpayable",
      "type": "function"
    },
    {
      "inputs": [],
      "name": "admin",
      "outputs": [
        {
          "internalType": "address",
          "name": "",
          "type": "address"
        }
      ],
      "stateMutability": "view",
      "type": "function"
    },
    {
      "inputs": [
        {
          "internalType": "address",
          "name": "vault",
          "type": "address"
        }
      ],
      "name": "completeVaultDecommissioning",
      "outputs": [],
      "stateMutability": "nonpayable",
      "type": "function"
    },
    {
      "inputs": [],
      "name": "curatorIntentDecimals",
      "outputs": [
        {
          "internalType": "uint8",
          "name": "",
          "type": "uint8"
        }
      ],
      "stateMutability": "view",
      "type": "function"
    },
    {
      "inputs": [
        {
          "internalType": "address",
          "name": "asset",
          "type": "address"
        },
        {
          "internalType": "address",
          "name": "executionAdapter",
          "type": "address"
        }
      ],
      "name": "emergencyUpdateExecutionAdapter",
      "outputs": [],
      "stateMutability": "nonpayable",
      "type": "function"
    },
    {
      "inputs": [],
      "name": "feeChangeCooldownDuration",
      "outputs": [
        {
          "internalType": "uint256",
          "name": "",
          "type": "uint256"
        }
      ],
      "stateMutability": "view",
      "type": "function"
    },
    {
      "inputs": [
        {
          "internalType": "enum EventsLib.VaultType",
          "name": "vaultType",
          "type": "uint8"
        }
      ],
      "name": "getAllOrionVaults",
      "outputs": [
        {
          "internalType": "address[]",
          "name": "",
          "type": "address[]"
        }
      ],
      "stateMutability": "view",
      "type": "function"
    },
    {
      "inputs": [],
      "name": "getAllWhitelistedAssets",
      "outputs": [
        {
          "internalType": "address[]",
          "name": "assets",
          "type": "address[]"
        }
      ],
      "stateMutability": "view",
      "type": "function"
    },
    {
      "inputs": [
        {
          "internalType": "address",
          "name": "token",
          "type": "address"
        }
      ],
      "name": "getTokenDecimals",
      "outputs": [
        {
          "internalType": "uint8",
          "name": "",
          "type": "uint8"
        }
      ],
      "stateMutability": "view",
      "type": "function"
    },
    {
      "inputs": [],
      "name": "guardian",
      "outputs": [
        {
          "internalType": "address",
          "name": "",
          "type": "address"
        }
      ],
      "stateMutability": "view",
      "type": "function"
    },
    {
      "inputs": [],
      "name": "internalStatesOrchestrator",
      "outputs": [
        {
          "internalType": "address",
          "name": "",
          "type": "address"
        }
      ],
      "stateMutability": "view",
      "type": "function"
    },
    {
      "inputs": [
        {
          "internalType": "address",
          "name": "vault",
          "type": "address"
        }
      ],
      "name": "isDecommissionedVault",
      "outputs": [
        {
          "internalType": "bool",
          "name": "",
          "type": "bool"
        }
      ],
      "stateMutability": "view",
      "type": "function"
    },
    {
      "inputs": [
        {
          "internalType": "address",
          "name": "vault",
          "type": "address"
        }
      ],
      "name": "isDecommissioningVault",
      "outputs": [
        {
          "internalType": "bool",
          "name": "",
          "type": "bool"
        }
      ],
      "stateMutability": "view",
      "type": "function"
    },
    {
      "inputs": [
        {
          "internalType": "address",
          "name": "vault",
          "type": "address"
        }
      ],
      "name": "isOrionVault",
      "outputs": [
        {
          "internalType": "bool",
          "name": "",
          "type": "bool"
        }
      ],
      "stateMutability": "view",
      "type": "function"
    },
    {
      "inputs": [],
      "name": "isSystemIdle",
      "outputs": [
        {
          "internalType": "bool",
          "name": "",
          "type": "bool"
        }
      ],
      "stateMutability": "view",
      "type": "function"
    },
    {
      "inputs": [
        {
          "internalType": "address",
          "name": "asset",
          "type": "address"
        }
      ],
      "name": "isWhitelisted",
      "outputs": [
        {
          "internalType": "bool",
          "name": "",
          "type": "bool"
        }
      ],
      "stateMutability": "view",
      "type": "function"
    },
    {
      "inputs": [
        {
          "internalType": "address",
          "name": "curator",
          "type": "address"
        }
      ],
      "name": "isWhitelistedCurator",
      "outputs": [
        {
          "internalType": "bool",
          "name": "",
          "type": "bool"
        }
      ],
      "stateMutability": "view",
      "type": "function"
    },
    {
      "inputs": [
        {
          "internalType": "address",
          "name": "vaultOwner",
          "type": "address"
        }
      ],
      "name": "isWhitelistedVaultOwner",
      "outputs": [
        {
          "internalType": "bool",
          "name": "",
          "type": "bool"
        }
      ],
      "stateMutability": "view",
      "type": "function"
    },
    {
      "inputs": [],
      "name": "liquidityOrchestrator",
      "outputs": [
        {
          "internalType": "address",
          "name": "",
          "type": "address"
        }
      ],
      "stateMutability": "view",
      "type": "function"
    },
    {
      "inputs": [],
      "name": "maxFulfillBatchSize",
      "outputs": [
        {
          "internalType": "uint256",
          "name": "",
          "type": "uint256"
        }
      ],
      "stateMutability": "view",
      "type": "function"
    },
    {
      "inputs": [],
      "name": "minDepositAmount",
      "outputs": [
        {
          "internalType": "uint256",
          "name": "",
          "type": "uint256"
        }
      ],
      "stateMutability": "view",
      "type": "function"
    },
    {
      "inputs": [],
      "name": "minRedeemAmount",
      "outputs": [
        {
          "internalType": "uint256",
          "name": "",
          "type": "uint256"
        }
      ],
      "stateMutability": "view",
      "type": "function"
    },
    {
      "inputs": [],
      "name": "owner",
      "outputs": [
        {
          "internalType": "address",
          "name": "",
          "type": "address"
        }
      ],
      "stateMutability": "view",
      "type": "function"
    },
    {
      "inputs": [],
      "name": "pauseAll",
      "outputs": [],
      "stateMutability": "nonpayable",
      "type": "function"
    },
    {
      "inputs": [],
      "name": "pendingOwner",
      "outputs": [
        {
          "internalType": "address",
          "name": "",
          "type": "address"
        }
      ],
      "stateMutability": "view",
      "type": "function"
    },
    {
      "inputs": [],
      "name": "priceAdapterDecimals",
      "outputs": [
        {
          "internalType": "uint8",
          "name": "",
          "type": "uint8"
        }
      ],
      "stateMutability": "view",
      "type": "function"
    },
    {
      "inputs": [],
      "name": "priceAdapterRegistry",
      "outputs": [
        {
          "internalType": "address",
          "name": "",
          "type": "address"
        }
      ],
      "stateMutability": "view",
      "type": "function"
    },
    {
      "inputs": [
        {
          "internalType": "address",
          "name": "vault",
          "type": "address"
        }
      ],
      "name": "removeOrionVault",
      "outputs": [],
      "stateMutability": "nonpayable",
      "type": "function"
    },
    {
      "inputs": [
        {
          "internalType": "address",
          "name": "asset",
          "type": "address"
        }
      ],
      "name": "removeWhitelistedAsset",
      "outputs": [],
      "stateMutability": "nonpayable",
      "type": "function"
    },
    {
      "inputs": [
        {
          "internalType": "address",
          "name": "curator",
          "type": "address"
        }
      ],
      "name": "removeWhitelistedCurator",
      "outputs": [],
      "stateMutability": "nonpayable",
      "type": "function"
    },
    {
      "inputs": [
        {
          "internalType": "address",
          "name": "vaultOwner",
          "type": "address"
        }
      ],
      "name": "removeWhitelistedVaultOwner",
      "outputs": [],
      "stateMutability": "nonpayable",
      "type": "function"
    },
    {
      "inputs": [],
      "name": "renounceOwnership",
      "outputs": [],
      "stateMutability": "nonpayable",
      "type": "function"
    },
    {
      "inputs": [],
      "name": "riskFreeRate",
      "outputs": [
        {
          "internalType": "uint16",
          "name": "",
          "type": "uint16"
        }
      ],
      "stateMutability": "view",
      "type": "function"
    },
    {
      "inputs": [
        {
          "internalType": "uint256",
          "name": "duration",
          "type": "uint256"
        }
      ],
      "name": "setFeeChangeCooldownDuration",
      "outputs": [],
      "stateMutability": "nonpayable",
      "type": "function"
    },
    {
      "inputs": [
        {
          "internalType": "address",
          "name": "_guardian",
          "type": "address"
        }
      ],
      "name": "setGuardian",
      "outputs": [],
      "stateMutability": "nonpayable",
      "type": "function"
    },
    {
      "inputs": [
        {
          "internalType": "address",
          "name": "orchestrator",
          "type": "address"
        }
      ],
      "name": "setInternalStatesOrchestrator",
      "outputs": [],
      "stateMutability": "nonpayable",
      "type": "function"
    },
    {
      "inputs": [
        {
          "internalType": "address",
          "name": "orchestrator",
          "type": "address"
        }
      ],
      "name": "setLiquidityOrchestrator",
      "outputs": [],
      "stateMutability": "nonpayable",
      "type": "function"
    },
    {
      "inputs": [
        {
          "internalType": "uint256",
          "name": "size",
          "type": "uint256"
        }
      ],
      "name": "setMaxFulfillBatchSize",
      "outputs": [],
      "stateMutability": "nonpayable",
      "type": "function"
    },
    {
      "inputs": [
        {
          "internalType": "uint256",
          "name": "amount",
          "type": "uint256"
        }
      ],
      "name": "setMinDepositAmount",
      "outputs": [],
      "stateMutability": "nonpayable",
      "type": "function"
    },
    {
      "inputs": [
        {
          "internalType": "uint256",
          "name": "amount",
          "type": "uint256"
        }
      ],
      "name": "setMinRedeemAmount",
      "outputs": [],
      "stateMutability": "nonpayable",
      "type": "function"
    },
    {
      "inputs": [
        {
          "internalType": "address",
          "name": "registry",
          "type": "address"
        }
      ],
      "name": "setPriceAdapterRegistry",
      "outputs": [],
      "stateMutability": "nonpayable",
      "type": "function"
    },
    {
      "inputs": [
        {
          "internalType": "uint16",
          "name": "_riskFreeRate",
          "type": "uint16"
        }
      ],
      "name": "setProtocolRiskFreeRate",
      "outputs": [],
      "stateMutability": "nonpayable",
      "type": "function"
    },
    {
      "inputs": [
        {
          "internalType": "address",
          "name": "transparentFactory",
          "type": "address"
        }
      ],
      "name": "setVaultFactory",
      "outputs": [],
      "stateMutability": "nonpayable",
      "type": "function"
    },
    {
      "inputs": [
        {
          "internalType": "address",
          "name": "",
          "type": "address"
        }
      ],
      "name": "tokenDecimals",
      "outputs": [
        {
          "internalType": "uint8",
          "name": "",
          "type": "uint8"
        }
      ],
      "stateMutability": "view",
      "type": "function"
    },
    {
      "inputs": [
        {
          "internalType": "address",
          "name": "newOwner",
          "type": "address"
        }
      ],
      "name": "transferOwnership",
      "outputs": [],
      "stateMutability": "nonpayable",
      "type": "function"
    },
    {
      "inputs": [],
      "name": "transparentVaultFactory",
      "outputs": [
        {
          "internalType": "address",
          "name": "",
          "type": "address"
        }
      ],
      "stateMutability": "view",
      "type": "function"
    },
    {
      "inputs": [],
      "name": "underlyingAsset",
      "outputs": [
        {
          "internalType": "contract IERC20",
          "name": "",
          "type": "address"
        }
      ],
      "stateMutability": "view",
      "type": "function"
    },
    {
      "inputs": [],
      "name": "unpauseAll",
      "outputs": [],
      "stateMutability": "nonpayable",
      "type": "function"
    },
    {
      "inputs": [
        {
          "internalType": "address",
          "name": "asset",
          "type": "address"
        }
      ],
      "name": "updateTokenDecimals",
      "outputs": [],
      "stateMutability": "nonpayable",
      "type": "function"
    },
    {
      "inputs": [],
      "name": "whitelistedAssetsLength",
      "outputs": [
        {
          "internalType": "uint16",
          "name": "",
          "type": "uint16"
        }
      ],
      "stateMutability": "view",
      "type": "function"
    }
  ],
  "bytecode": "0x60a060405234801561000f575f5ffd5b50604051612a4e380380612a4e83398101604081905261002e91610298565b826001600160a01b03811661005c57604051631e4fbdf760e01b81525f600482015260240160405180910390fd5b610065816101a9565b506001600160a01b03821661008d5760405163d92e233d60e01b815260040160405180910390fd5b6001600160a01b0381166100b45760405163d92e233d60e01b815260040160405180910390fd5b6001600160a01b03828116608052600380546001600160a01b03191691831691821790556007805460ff60a01b1916600760a11b17905562093a80600a556096600b556040805163313ce56760e01b8152905163313ce567916004808201926020929091908290030181865afa158015610130573d5f5f3e3d5ffd5b505050506040513d601f19601f8201168201806040525081019061015491906102d8565b6001600160a01b0382165f908152601260205260409020805460ff191660ff92909216919091179055610188600c826101c5565b50610194600e846101c5565b506101a06010846101c5565b505050506102ff565b600180546001600160a01b03191690556101c2816101e2565b50565b5f6101d9836001600160a01b038416610231565b90505b92915050565b5f80546001600160a01b038381166001600160a01b0319831681178455604051919092169283917f8be0079c531659141344cd1fd0a4f28419497f9722a3daafe3b4186f6b6457e09190a35050565b5f81815260018301602052604081205461027657508154600181810184555f8481526020808220909301849055845484825282860190935260409020919091556101dc565b505f6101dc565b80516001600160a01b0381168114610293575f5ffd5b919050565b5f5f5f606084860312156102aa575f5ffd5b6102b38461027d565b92506102c16020850161027d565b91506102cf6040850161027d565b90509250925092565b5f602082840312156102e8575f5ffd5b815160ff811681146102f8575f5ffd5b9392505050565b6080516127066103485f395f818161067501528181610c1e015281816113ab0152818161150101528181611593015281816116cf015281816118c80152611a8401526127065ff3fe608060405234801561000f575f5ffd5b506004361061027b575f3560e01c8063015df9931461027f5780630912ae6d146102a85780630a8b78c7146102bf5780632095b01e146102d457806323a06a1c146102e75780632a80cda3146102fa5780632b1a3a8b1461030d578063348ec5c8146103205780633a0dad8e146103335780633af32abf146103465780633e3679d3146103695780633ea7fbdb1461037c578063452a93201461038f57806355fba94e146103a2578063567ba713146103b5578063595c6a67146103db5780635f248368146103e3578063645006ca146103fe57806366e87e7f146104075780636f8d52b81461041a5780636f9f4ee714610423578063715018a6146104365780637158da7c1461043e578063785c7cf61461045157806379ba50971461047c5780637a0cb7841461048457806381408ce514610497578063849ede23146104aa578063862a5f06146104bd5780638771de87146104d05780638a0dac4a146104e35780638a2ddd03146104f65780638da5cb5b146104fe5780638ee573ac14610506578063b6dfcd8b14610528578063b89c34251461053b578063ba9686661461054e578063bc0674df14610561578063bcdb8a1814610574578063c047417c1461057d578063c30dd72714610590578063d11f1c35146105a3578063d1717c7d146105b6578063d5460ab5146105be578063d86cd44e146105c7578063e0876b44146105dc578063e30c3978146105ef578063e8ffccb7146105f7578063ed04f2181461060a578063edcf9c1f1461061d578063f05e5d4c14610625578063f2fde38b14610638578063f3cc69931461064b578063f764eb4514610660578063f851a44014610673575b5f5ffd5b600754610292906001600160a01b031681565b60405161029f9190612312565b60405180910390f35b6102b160095481565b60405190815260200161029f565b6102d26102cd36600461233a565b610699565b005b6102d26102e236600461233a565b610714565b6102d26102f5366004612355565b61078f565b6102d261030836600461239d565b610962565b6102d261031b36600461233a565b6109e1565b600454610292906001600160a01b031681565b600554610292906001600160a01b031681565b61035961035436600461233a565b610a98565b604051901515815260200161029f565b6102d261037736600461239d565b610aaa565b6102d261038a36600461233a565b610b29565b600254610292906001600160a01b031681565b6102d26103b036600461233a565b610bc9565b6007546103c990600160a01b900460ff1681565b60405160ff909116815260200161029f565b6102d2610bfd565b6103eb610d44565b60405161ffff909116815260200161029f565b6102b160085481565b6102d26104153660046123b4565b610d54565b6102b1600a5481565b6102d261043136600461239d565b610df8565b6102d2610e77565b600354610292906001600160a01b031681565b6103c961045f36600461233a565b6001600160a01b03165f9081526012602052604090205460ff1690565b6102d2610e8a565b6102d26104923660046123e8565b610ed2565b6102d26104a536600461233a565b610fb4565b600654610292906001600160a01b031681565b6102d26104cb36600461233a565b6113a0565b6103596104de36600461233a565b6114ea565b6102d26104f136600461233a565b6114f6565b6102d2611588565b6102926116b6565b6103c961051436600461233a565b60126020525f908152604090205460ff1681565b6102d261053636600461233a565b6116c4565b6102d261054936600461233a565b6118bd565b6102d261055c36600461239d565b611a1a565b6102d261056f36600461241b565b611a79565b6102b1600b5481565b6102d261058b36600461233a565b611c26565b6102d261059e36600461233a565b611c3a565b6103596105b136600461233a565b611cb5565b6103c9600981565b6103eb61032081565b6105cf611cc1565b60405161029f9190612452565b6103596105ea36600461233a565b611d74565b610292611d91565b6102d261060536600461233a565b611da0565b6105cf61061836600461249d565b611e50565b610359611f2c565b61035961063336600461233a565b61203c565b6102d261064636600461233a565b612048565b6007546103eb90600160a81b900461ffff1681565b61035961066e36600461233a565b6120ae565b7f0000000000000000000000000000000000000000000000000000000000000000610292565b6106a16120ba565b6001600160a01b0381166106c85760405163d92e233d60e01b815260040160405180910390fd5b6004546001600160a01b0316156106f257604051630ea075bf60e21b815260040160405180910390fd5b600480546001600160a01b0319166001600160a01b0392909216919091179055565b61071c6120ba565b6001600160a01b0381166107435760405163d92e233d60e01b815260040160405180910390fd5b6007546001600160a01b03161561076d57604051630ea075bf60e21b815260040160405180910390fd5b600780546001600160a01b0319166001600160a01b0392909216919091179055565b6107976120ba565b61079f611f2c565b6107bc576040516312aecd8160e01b815260040160405180910390fd5b5f6107c8600c856120ec565b9050806107e857604051630ea075bf60e21b815260040160405180910390fd5b836001600160a01b031663313ce5676040518163ffffffff1660e01b8152600401602060405180830381865afa158015610824573d5f5f3e3d5ffd5b505050506040513d601f19601f8201168201806040525081019061084891906124b6565b6001600160a01b038581165f9081526012602052604090819020805460ff191660ff949094169390931790925560075491516302707eef60e51b8152911690634e0fdde09061089d90879087906004016124d6565b5f604051808303815f87803b1580156108b4575f5ffd5b505af11580156108c6573d5f5f3e3d5ffd5b50506005546040516359017aa960e01b81526001600160a01b0390911692506359017aa991506108fc90879086906004016124d6565b5f604051808303815f87803b158015610913575f5ffd5b505af1158015610925573d5f5f3e3d5ffd5b50506040516001600160a01b03871692507fdcbd8d9d0373041250f6c25b6b7aeccb3e9ff291e510ef85bb9f8ac09ceb6f6491505f90a250505050565b61096a6120ba565b610972611f2c565b61098f576040516312aecd8160e01b815260040160405180910390fd5b805f036109af576040516317dbc4cb60e21b815260040160405180910390fd5b600881905560405181907fb443c8bd39a1b60d415144f9148c6f90c2b68a553eb90c62cef5e44979db009d905f90a250565b6109e96120ba565b604051633c17975360e21b8152309063f05e5d4c90610a0c908490600401612312565b602060405180830381865afa158015610a27573d5f5f3e3d5ffd5b505050506040513d601f19601f82011682018060405250810190610a4b91906124f0565b610a685760405163e6c4247b60e01b815260040160405180910390fd5b5f610a74601083612107565b905080610a945760405163e6c4247b60e01b815260040160405180910390fd5b5050565b5f610aa4600c8361211b565b92915050565b610ab26120ba565b610aba611f2c565b610ad7576040516312aecd8160e01b815260040160405180910390fd5b805f03610af7576040516317dbc4cb60e21b815260040160405180910390fd5b600981905560405181907fae6971e30edc181eba4e21b6f0d1238924e807e69aa92f89401c1a836dd71547905f90a250565b610b316120ba565b610b39611f2c565b610b56576040516312aecd8160e01b815260040160405180910390fd5b6001600160a01b038116610b7d5760405163d92e233d60e01b815260040160405180910390fd5b6006546001600160a01b031615610ba757604051630ea075bf60e21b815260040160405180910390fd5b600680546001600160a01b0319166001600160a01b0392909216919091179055565b610bd16120ba565b5f610bdd600e836120ec565b905080610a9457604051630ea075bf60e21b815260040160405180910390fd5b6002546001600160a01b03163314801590610c415750336001600160a01b037f00000000000000000000000000000000000000000000000000000000000000001614155b15610c5f5760405163ea8e4eb560e01b815260040160405180910390fd5b6004805460408051638456cb5960e01b815290516001600160a01b0390921692638456cb5992828201925f929082900301818387803b158015610ca0575f5ffd5b505af1158015610cb2573d5f5f3e3d5ffd5b5050505060055f9054906101000a90046001600160a01b03166001600160a01b0316638456cb596040518163ffffffff1660e01b81526004015f604051808303815f87803b158015610d02575f5ffd5b505af1158015610d14573d5f5f3e3d5ffd5b50506040513392507f3fb8cabbd30f03312e3221b5b1c7ce132ca5d72cf36143a1d6d33b11ad4eba2491505f90a2565b5f610d4f600c61212f565b905090565b610d5c6120ba565b610d64611f2c565b610d81576040516312aecd8160e01b815260040160405180910390fd5b61032061ffff82161115610da8576040516317dbc4cb60e21b815260040160405180910390fd5b6007805461ffff60a81b1916600160a81b61ffff84811682029290921792839055604051920416907f6c0e50288cc602be5dd504ce35358e01341e3c4f93e2e02b5a030a59bfdb84e2905f90a250565b610e006120ba565b610e08611f2c565b610e25576040516312aecd8160e01b815260040160405180910390fd5b805f03610e45576040516317dbc4cb60e21b815260040160405180910390fd5b600b81905560405181907f33fdf3f87d7aca2f3fda0e9e480f611002f0ec96579de87d9109ef45c5be0fa2905f90a250565b610e7f6120ba565b610e885f612138565b565b3380610e94611d91565b6001600160a01b031614610ec6578060405163118cdaa760e01b8152600401610ebd9190612312565b60405180910390fd5b610ecf81612138565b50565b6006546001600160a01b03163314610efd5760405163ea8e4eb560e01b815260040160405180910390fd5b6001600160a01b038216610f245760405163d92e233d60e01b815260040160405180910390fd5b5f6001826001811115610f3957610f3961250f565b03610f5057610f496015846120ec565b9050610f5e565b610f5b6013846120ec565b90505b80610f7c57604051630ea075bf60e21b815260040160405180910390fd5b6040516001600160a01b038416907f9a7094a648c0524f3d62b9167886d30be0e68cf53863fe556edda348f189445a905f90a2505050565b610fbc6120ba565b604051638771de8760e01b81523090638771de8790610fdf908490600401612312565b602060405180830381865afa158015610ffa573d5f5f3e3d5ffd5b505050506040513d601f19601f8201168201806040525081019061101e91906124f0565b61103b5760405163e6c4247b60e01b815260040160405180910390fd5b611043611f2c565b611060576040516312aecd8160e01b815260040160405180910390fd5b604051631da09e4360e31b81525f90309063ed04f21890611085908490600401612523565b5f60405180830381865afa15801561109f573d5f5f3e3d5ffd5b505050506040513d5f823e601f3d908101601f191682016040526110c69190810190612568565b90505f5b81518110156111cc575f8282815181106110e6576110e6612632565b60200260200101519050836001600160a01b0316816001600160a01b0316631f52692b6040518163ffffffff1660e01b8152600401602060405180830381865afa158015611136573d5f5f3e3d5ffd5b505050506040513d601f19601f8201168201806040525081019061115a9190612646565b6001600160a01b0316036111c3576111736017826120ec565b50806001600160a01b031663ca78e8396040518163ffffffff1660e01b81526004015f604051808303815f87803b1580156111ac575f5ffd5b505af11580156111be573d5f5f3e3d5ffd5b505050505b506001016110ca565b50604051631da09e4360e31b81525f90309063ed04f218906111f390600190600401612523565b5f60405180830381865afa15801561120d573d5f5f3e3d5ffd5b505050506040513d5f823e601f3d908101601f191682016040526112349190810190612568565b90505f5b815181101561133a575f82828151811061125457611254612632565b60200260200101519050846001600160a01b0316816001600160a01b0316631f52692b6040518163ffffffff1660e01b8152600401602060405180830381865afa1580156112a4573d5f5f3e3d5ffd5b505050506040513d601f19601f820116820180604052508101906112c89190612646565b6001600160a01b031603611331576112e16017826120ec565b50806001600160a01b031663ca78e8396040518163ffffffff1660e01b81526004015f604051808303815f87803b15801561131a575f5ffd5b505af115801561132c573d5f5f3e3d5ffd5b505050505b50600101611238565b505f611347600e85612107565b9050806113675760405163e6c4247b60e01b815260040160405180910390fd5b6040516001600160a01b038516907f34c278c4f57f7db1b04d9e9c8a808becaae0effac5903a160607310c7c90f160905f90a250505050565b336001600160a01b037f000000000000000000000000000000000000000000000000000000000000000016146113e95760405163ea8e4eb560e01b815260040160405180910390fd5b6113f1611f2c565b61140e576040516312aecd8160e01b815260040160405180910390fd5b604051633821dad160e21b8152309063e0876b4490611431908490600401612312565b602060405180830381865afa15801561144c573d5f5f3e3d5ffd5b505050506040513d601f19601f8201168201806040525081019061147091906124f0565b61148d5760405163e6c4247b60e01b815260040160405180910390fd5b6114986017826120ec565b50806001600160a01b031663ca78e8396040518163ffffffff1660e01b81526004015f604051808303815f87803b1580156114d1575f5ffd5b505af11580156114e3573d5f5f3e3d5ffd5b5050505050565b5f610aa4600e8361211b565b336001600160a01b037f0000000000000000000000000000000000000000000000000000000000000000161461153f5760405163ea8e4eb560e01b815260040160405180910390fd5b600280546001600160a01b0319166001600160a01b0383169081179091556040517f6bb7ff33e730289800c62ad882105a144a74010d2bdbb9a942544a3005ad55bf905f90a250565b336001600160a01b037f000000000000000000000000000000000000000000000000000000000000000016146115d15760405163ea8e4eb560e01b815260040160405180910390fd5b6004805460408051631fa5d41d60e11b815290516001600160a01b0390921692633f4ba83a92828201925f929082900301818387803b158015611612575f5ffd5b505af1158015611624573d5f5f3e3d5ffd5b5050505060055f9054906101000a90046001600160a01b03166001600160a01b0316633f4ba83a6040518163ffffffff1660e01b81526004015f604051808303815f87803b158015611674575f5ffd5b505af1158015611686573d5f5f3e3d5ffd5b50506040513392507f2d553fb579456929d17c4cf0dc43b2f2e8e5a8f917cadcc8a5f18e9c4010b75a91505f90a2565b5f546001600160a01b031690565b336001600160a01b037f0000000000000000000000000000000000000000000000000000000000000000161461170d5760405163ea8e4eb560e01b815260040160405180910390fd5b611715611f2c565b611732576040516312aecd8160e01b815260040160405180910390fd5b6003546001600160a01b0390811690821603611761576040516317dbc4cb60e21b815260040160405180910390fd5b5f61176d600c83612107565b90508061178f578160405163751dff9760e11b8152600401610ebd9190612312565b604051631da09e4360e31b81525f90309063ed04f218906117b4908490600401612523565b5f60405180830381865afa1580156117ce573d5f5f3e3d5ffd5b505050506040513d5f823e601f3d908101601f191682016040526117f59190810190612568565b90505f5b8151811015611884575f82828151811061181557611815612632565b60200260200101519050806001600160a01b031663e3352c4c866040518263ffffffff1660e01b815260040161184b9190612312565b5f604051808303815f87803b158015611862575f5ffd5b505af1158015611874573d5f5f3e3d5ffd5b50505050508060010190506117f9565b506040516001600160a01b038416907f952363a786fc6f24cfb955cd6207cf91ecee3a82a7dd0bc26891ff7647b5784c905f90a2505050565b336001600160a01b037f000000000000000000000000000000000000000000000000000000000000000016146119065760405163ea8e4eb560e01b815260040160405180910390fd5b61190e611f2c565b61192b576040516312aecd8160e01b815260040160405180910390fd5b611936600c8261211b565b611955578060405163751dff9760e11b8152600401610ebd9190612312565b5f816001600160a01b031663313ce5676040518163ffffffff1660e01b8152600401602060405180830381865afa158015611992573d5f5f3e3d5ffd5b505050506040513d601f19601f820116820180604052508101906119b691906124b6565b6001600160a01b0383165f81815260126020908152604091829020805460ff191660ff8616908117909155915191825292935090917f66b663e1b8d8816517f19175e41cdab628f67fb6ccaa7363632bae9f570b57e9910160405180910390a25050565b611a226120ba565b611a2a611f2c565b611a47576040516312aecd8160e01b815260040160405180910390fd5b600a81905560405181907f0c525cc53958dcc2098f744df69dfeeb06316aeeca301ec2d5c5d4518e35f98a905f90a250565b336001600160a01b037f00000000000000000000000000000000000000000000000000000000000000001614611ac25760405163ea8e4eb560e01b815260040160405180910390fd5b611acd600c8361211b565b611aec578160405163751dff9760e11b8152600401610ebd9190612312565b600554604080516302ad6a1760e11b815290515f926001600160a01b03169163055ad42e9160048083019260209291908290030181865afa158015611b33573d5f5f3e3d5ffd5b505050506040513d601f19601f82011682018060405250810190611b579190612661565b90506002816003811115611b6d57611b6d61250f565b14611b8b5760405163baf3f0f760e01b815260040160405180910390fd5b6005546040516359017aa960e01b81526001600160a01b03909116906359017aa990611bbd90869086906004016124d6565b5f604051808303815f87803b158015611bd4575f5ffd5b505af1158015611be6573d5f5f3e3d5ffd5b50506040516001600160a01b038086169350861691507f2f2727c7b3d9ee55de5c114f0cb7997ac7251a4cbfca4f2b2dc6969d86cce4f4905f90a3505050565b611c2e6120ba565b5f610bdd6010836120ec565b611c426120ba565b6001600160a01b038116611c695760405163d92e233d60e01b815260040160405180910390fd5b6005546001600160a01b031615611c9357604051630ea075bf60e21b815260040160405180910390fd5b600580546001600160a01b0319166001600160a01b0392909216919091179055565b5f610aa460178361211b565b60605f611cce600c61212f565b90508061ffff166001600160401b03811115611cec57611cec612549565b604051908082528060200260200182016040528015611d15578160200160208202803683370190505b5091505f5b8161ffff168161ffff161015611d6f57611d39600c61ffff8316612151565b838261ffff1681518110611d4f57611d4f612632565b6001600160a01b0390921660209283029190910190910152600101611d1a565b505090565b5f611d8060158361211b565b80610aa45750610aa460138361211b565b6001546001600160a01b031690565b6005546001600160a01b03163314611dcb5760405163ea8e4eb560e01b815260040160405180910390fd5b611dd660178261211b565b611df35760405163e6c4247b60e01b815260040160405180910390fd5b5f611dff601583612107565b905080611e34575f611e12601384612107565b905080611e325760405163e6c4247b60e01b815260040160405180910390fd5b505b611e3f601783612107565b50611e4b6019836120ec565b505050565b60605f6001836001811115611e6757611e6761250f565b14611e73576013611e76565b60155b90505f611e828261212f565b90505f8161ffff166001600160401b03811115611ea157611ea1612549565b604051908082528060200260200182016040528015611eca578160200160208202803683370190505b5090505f5b8261ffff168161ffff161015611f2357611eed8461ffff8316612151565b828261ffff1681518110611f0357611f03612632565b6001600160a01b0390921660209283029190910190910152600101611ecf565b50949350505050565b5f8060055f9054906101000a90046001600160a01b03166001600160a01b031663055ad42e6040518163ffffffff1660e01b8152600401602060405180830381865afa158015611f7e573d5f5f3e3d5ffd5b505050506040513d601f19601f82011682018060405250810190611fa29190612661565b6003811115611fb357611fb361250f565b148015610d4f57505f60048054604080516302ad6a1760e11b815290516001600160a01b039092169263055ad42e9282820192602092908290030181865afa158015612001573d5f5f3e3d5ffd5b505050506040513d601f19601f82011682018060405250810190612025919061267f565b60048111156120365761203661250f565b14905090565b5f610aa460108361211b565b6120506120ba565b600180546001600160a01b0319166001600160a01b0383169081179091556120766116b6565b6001600160a01b03167f38d16b8cac22d99fc7c124b9cd0de2d3fa1faef420bfe791d8c362d765e2270060405160405180910390a350565b5f610aa460198361211b565b336120c36116b6565b6001600160a01b031614610e88573360405163118cdaa760e01b8152600401610ebd9190612312565b5f612100836001600160a01b03841661215c565b9392505050565b5f612100836001600160a01b0384166121a3565b5f612100836001600160a01b038416612286565b5f610aa4825490565b600180546001600160a01b0319169055610ecf8161229d565b5f61210083836122ec565b5f6121678383612286565b61219c57508154600181810184555f848152602080822090930184905584548482528286019093526040902091909155610aa4565b505f610aa4565b5f818152600183016020526040812054801561227d575f6121c560018361269d565b85549091505f906121d89060019061269d565b9050808214612237575f865f0182815481106121f6576121f6612632565b905f5260205f200154905080875f01848154811061221657612216612632565b5f918252602080832090910192909255918252600188019052604090208390555b8554869080612248576122486126bc565b600190038181905f5260205f20015f90559055856001015f8681526020019081526020015f205f905560019350505050610aa4565b5f915050610aa4565b5f9081526001919091016020526040902054151590565b5f80546001600160a01b038381166001600160a01b0319831681178455604051919092169283917f8be0079c531659141344cd1fd0a4f28419497f9722a3daafe3b4186f6b6457e09190a35050565b5f825f01828154811061230157612301612632565b905f5260205f200154905092915050565b6001600160a01b0391909116815260200190565b6001600160a01b0381168114610ecf575f5ffd5b5f6020828403121561234a575f5ffd5b813561210081612326565b5f5f5f60608486031215612367575f5ffd5b833561237281612326565b9250602084013561238281612326565b9150604084013561239281612326565b809150509250925092565b5f602082840312156123ad575f5ffd5b5035919050565b5f602082840312156123c4575f5ffd5b813561ffff81168114612100575f5ffd5b8035600281106123e3575f5ffd5b919050565b5f5f604083850312156123f9575f5ffd5b823561240481612326565b9150612412602084016123d5565b90509250929050565b5f5f6040838503121561242c575f5ffd5b823561243781612326565b9150602083013561244781612326565b809150509250929050565b602080825282518282018190525f918401906040840190835b818110156124925783516001600160a01b031683526020938401939092019160010161246b565b509095945050505050565b5f602082840312156124ad575f5ffd5b612100826123d5565b5f602082840312156124c6575f5ffd5b815160ff81168114612100575f5ffd5b6001600160a01b0392831681529116602082015260400190565b5f60208284031215612500575f5ffd5b81518015158114612100575f5ffd5b634e487b7160e01b5f52602160045260245ffd5b602081016002831061254357634e487b7160e01b5f52602160045260245ffd5b91905290565b634e487b7160e01b5f52604160045260245ffd5b80516123e381612326565b5f60208284031215612578575f5ffd5b81516001600160401b0381111561258d575f5ffd5b8201601f8101841361259d575f5ffd5b80516001600160401b038111156125b6576125b6612549565b604051600582901b90603f8201601f191681016001600160401b03811182821017156125e4576125e4612549565b604052918252602081840181019290810187841115612601575f5ffd5b6020850194505b83851015612627576126198561255d565b815260209485019401612608565b509695505050505050565b634e487b7160e01b5f52603260045260245ffd5b5f60208284031215612656575f5ffd5b815161210081612326565b5f60208284031215612671575f5ffd5b815160048110612100575f5ffd5b5f6020828403121561268f575f5ffd5b815160058110612100575f5ffd5b81810381811115610aa457634e487b7160e01b5f52601160045260245ffd5b634e487b7160e01b5f52603160045260245ffdfea2646970667358221220e38ce6643fc704d99c8a49c537f8cd671bad6fb3dc5b38ef1f4bb96a580c1cbd64736f6c634300081c0033",
  "linkReferences": {},
  "deployedLinkReferences": {}
}