{
  "_format": "hh-sol-artifact-1",
  "contractName": "OrionConfig",
  "sourceName": "contracts/OrionConfig.sol",
  "abi": [
    {
      "inputs": [
        {
          "internalType": "address",
          "name": "initialOwner",
          "type": "address"
        },
        {
          "internalType": "address",
          "name": "admin_",
          "type": "address"
        },
        {
          "internalType": "address",
          "name": "underlyingAsset_",
          "type": "address"
        }
      ],
      "stateMutability": "nonpayable",
      "type": "constructor"
    },
    {
      "inputs": [],
      "name": "AlreadyRegistered",
      "type": "error"
    },
    {
      "inputs": [],
      "name": "InvalidAddress",
      "type": "error"
    },
    {
      "inputs": [],
      "name": "InvalidArguments",
      "type": "error"
    },
    {
      "inputs": [],
      "name": "NotAuthorized",
      "type": "error"
    },
    {
      "inputs": [
        {
          "internalType": "address",
          "name": "owner",
          "type": "address"
        }
      ],
      "name": "OwnableInvalidOwner",
      "type": "error"
    },
    {
      "inputs": [
        {
          "internalType": "address",
          "name": "account",
          "type": "address"
        }
      ],
      "name": "OwnableUnauthorizedAccount",
      "type": "error"
    },
    {
      "inputs": [],
      "name": "SystemNotIdle",
      "type": "error"
    },
    {
      "inputs": [
        {
          "internalType": "address",
          "name": "token",
          "type": "address"
        }
      ],
      "name": "TokenNotWhitelisted",
      "type": "error"
    },
    {
      "inputs": [],
      "name": "UnauthorizedAccess",
      "type": "error"
    },
    {
      "inputs": [],
      "name": "ZeroAddress",
      "type": "error"
    },
    {
      "anonymous": false,
      "inputs": [
        {
          "indexed": true,
          "internalType": "uint256",
          "name": "minDepositAmount",
          "type": "uint256"
        }
      ],
      "name": "MinDepositAmountUpdated",
      "type": "event"
    },
    {
      "anonymous": false,
      "inputs": [
        {
          "indexed": true,
          "internalType": "uint256",
          "name": "minRedeemAmount",
          "type": "uint256"
        }
      ],
      "name": "MinRedeemAmountUpdated",
      "type": "event"
    },
    {
      "anonymous": false,
      "inputs": [
        {
          "indexed": true,
          "internalType": "address",
          "name": "vault",
          "type": "address"
        }
      ],
      "name": "OrionVaultAdded",
      "type": "event"
    },
    {
      "anonymous": false,
      "inputs": [
        {
          "indexed": true,
          "internalType": "address",
          "name": "previousOwner",
          "type": "address"
        },
        {
          "indexed": true,
          "internalType": "address",
          "name": "newOwner",
          "type": "address"
        }
      ],
      "name": "OwnershipTransferred",
      "type": "event"
    },
    {
      "anonymous": false,
      "inputs": [
        {
          "indexed": true,
          "internalType": "uint16",
          "name": "riskFreeRate",
          "type": "uint16"
        }
      ],
      "name": "RiskFreeRateUpdated",
      "type": "event"
    },
    {
      "anonymous": false,
      "inputs": [
        {
          "indexed": true,
          "internalType": "address",
          "name": "asset",
          "type": "address"
        }
      ],
      "name": "WhitelistedAssetAdded",
      "type": "event"
    },
    {
      "anonymous": false,
      "inputs": [
        {
          "indexed": true,
          "internalType": "address",
          "name": "asset",
          "type": "address"
        }
      ],
      "name": "WhitelistedAssetRemoved",
      "type": "event"
    },
    {
      "inputs": [],
      "name": "MAX_RISK_FREE_RATE",
      "outputs": [
        {
          "internalType": "uint16",
          "name": "",
          "type": "uint16"
        }
      ],
      "stateMutability": "view",
      "type": "function"
    },
    {
      "inputs": [
        {
          "internalType": "address",
          "name": "vault",
          "type": "address"
        },
        {
          "internalType": "enum EventsLib.VaultType",
          "name": "vaultType",
          "type": "uint8"
        }
      ],
      "name": "addOrionVault",
      "outputs": [],
      "stateMutability": "nonpayable",
      "type": "function"
    },
    {
      "inputs": [
        {
          "internalType": "address",
          "name": "asset",
          "type": "address"
        },
        {
          "internalType": "address",
          "name": "priceAdapter",
          "type": "address"
        },
        {
          "internalType": "address",
          "name": "executionAdapter",
          "type": "address"
        }
      ],
      "name": "addWhitelistedAsset",
      "outputs": [],
      "stateMutability": "nonpayable",
      "type": "function"
    },
    {
      "inputs": [
        {
          "internalType": "address",
          "name": "vaultOwner",
          "type": "address"
        }
      ],
      "name": "addWhitelistedVaultOwner",
      "outputs": [],
      "stateMutability": "nonpayable",
      "type": "function"
    },
    {
      "inputs": [],
      "name": "admin",
      "outputs": [
        {
          "internalType": "address",
          "name": "",
          "type": "address"
        }
      ],
      "stateMutability": "view",
      "type": "function"
    },
    {
      "inputs": [
        {
          "internalType": "address",
          "name": "vault",
          "type": "address"
        }
      ],
      "name": "completeVaultDecommissioning",
      "outputs": [],
      "stateMutability": "nonpayable",
      "type": "function"
    },
    {
      "inputs": [],
      "name": "curatorIntentDecimals",
      "outputs": [
        {
          "internalType": "uint8",
          "name": "",
          "type": "uint8"
        }
      ],
      "stateMutability": "view",
      "type": "function"
    },
    {
      "inputs": [
        {
          "internalType": "enum EventsLib.VaultType",
          "name": "vaultType",
          "type": "uint8"
        }
      ],
      "name": "getAllOrionVaults",
      "outputs": [
        {
          "internalType": "address[]",
          "name": "",
          "type": "address[]"
        }
      ],
      "stateMutability": "view",
      "type": "function"
    },
    {
      "inputs": [],
      "name": "getAllWhitelistedAssets",
      "outputs": [
        {
          "internalType": "address[]",
          "name": "assets",
          "type": "address[]"
        }
      ],
      "stateMutability": "view",
      "type": "function"
    },
    {
      "inputs": [
        {
          "internalType": "address",
          "name": "token",
          "type": "address"
        }
      ],
      "name": "getTokenDecimals",
      "outputs": [
        {
          "internalType": "uint8",
          "name": "",
          "type": "uint8"
        }
      ],
      "stateMutability": "view",
      "type": "function"
    },
    {
      "inputs": [],
      "name": "internalStatesOrchestrator",
      "outputs": [
        {
          "internalType": "address",
          "name": "",
          "type": "address"
        }
      ],
      "stateMutability": "view",
      "type": "function"
    },
    {
      "inputs": [
        {
          "internalType": "address",
          "name": "vault",
          "type": "address"
        }
      ],
      "name": "isDecommissionedVault",
      "outputs": [
        {
          "internalType": "bool",
          "name": "",
          "type": "bool"
        }
      ],
      "stateMutability": "view",
      "type": "function"
    },
    {
      "inputs": [
        {
          "internalType": "address",
          "name": "vault",
          "type": "address"
        }
      ],
      "name": "isDecommissioningVault",
      "outputs": [
        {
          "internalType": "bool",
          "name": "",
          "type": "bool"
        }
      ],
      "stateMutability": "view",
      "type": "function"
    },
    {
      "inputs": [
        {
          "internalType": "address",
          "name": "vault",
          "type": "address"
        }
      ],
      "name": "isOrionVault",
      "outputs": [
        {
          "internalType": "bool",
          "name": "",
          "type": "bool"
        }
      ],
      "stateMutability": "view",
      "type": "function"
    },
    {
      "inputs": [],
      "name": "isSystemIdle",
      "outputs": [
        {
          "internalType": "bool",
          "name": "",
          "type": "bool"
        }
      ],
      "stateMutability": "view",
      "type": "function"
    },
    {
      "inputs": [
        {
          "internalType": "address",
          "name": "asset",
          "type": "address"
        }
      ],
      "name": "isWhitelisted",
      "outputs": [
        {
          "internalType": "bool",
          "name": "",
          "type": "bool"
        }
      ],
      "stateMutability": "view",
      "type": "function"
    },
    {
      "inputs": [
        {
          "internalType": "address",
          "name": "vaultOwner",
          "type": "address"
        }
      ],
      "name": "isWhitelistedVaultOwner",
      "outputs": [
        {
          "internalType": "bool",
          "name": "",
          "type": "bool"
        }
      ],
      "stateMutability": "view",
      "type": "function"
    },
    {
      "inputs": [],
      "name": "liquidityOrchestrator",
      "outputs": [
        {
          "internalType": "address",
          "name": "",
          "type": "address"
        }
      ],
      "stateMutability": "view",
      "type": "function"
    },
    {
      "inputs": [],
      "name": "minDepositAmount",
      "outputs": [
        {
          "internalType": "uint256",
          "name": "",
          "type": "uint256"
        }
      ],
      "stateMutability": "view",
      "type": "function"
    },
    {
      "inputs": [],
      "name": "minRedeemAmount",
      "outputs": [
        {
          "internalType": "uint256",
          "name": "",
          "type": "uint256"
        }
      ],
      "stateMutability": "view",
      "type": "function"
    },
    {
      "inputs": [],
      "name": "owner",
      "outputs": [
        {
          "internalType": "address",
          "name": "",
          "type": "address"
        }
      ],
      "stateMutability": "view",
      "type": "function"
    },
    {
      "inputs": [],
      "name": "priceAdapterDecimals",
      "outputs": [
        {
          "internalType": "uint8",
          "name": "",
          "type": "uint8"
        }
      ],
      "stateMutability": "view",
      "type": "function"
    },
    {
      "inputs": [],
      "name": "priceAdapterRegistry",
      "outputs": [
        {
          "internalType": "address",
          "name": "",
          "type": "address"
        }
      ],
      "stateMutability": "view",
      "type": "function"
    },
    {
      "inputs": [
        {
          "internalType": "address",
          "name": "vault",
          "type": "address"
        }
      ],
      "name": "removeOrionVault",
      "outputs": [],
      "stateMutability": "nonpayable",
      "type": "function"
    },
    {
      "inputs": [
        {
          "internalType": "address",
          "name": "asset",
          "type": "address"
        }
      ],
      "name": "removeWhitelistedAsset",
      "outputs": [],
      "stateMutability": "nonpayable",
      "type": "function"
    },
    {
      "inputs": [
        {
          "internalType": "address",
          "name": "vaultOwner",
          "type": "address"
        }
      ],
      "name": "removeWhitelistedVaultOwner",
      "outputs": [],
      "stateMutability": "nonpayable",
      "type": "function"
    },
    {
      "inputs": [],
      "name": "renounceOwnership",
      "outputs": [],
      "stateMutability": "nonpayable",
      "type": "function"
    },
    {
      "inputs": [],
      "name": "riskFreeRate",
      "outputs": [
        {
          "internalType": "uint16",
          "name": "",
          "type": "uint16"
        }
      ],
      "stateMutability": "view",
      "type": "function"
    },
    {
      "inputs": [
        {
          "internalType": "address",
          "name": "orchestrator",
          "type": "address"
        }
      ],
      "name": "setInternalStatesOrchestrator",
      "outputs": [],
      "stateMutability": "nonpayable",
      "type": "function"
    },
    {
      "inputs": [
        {
          "internalType": "address",
          "name": "orchestrator",
          "type": "address"
        }
      ],
      "name": "setLiquidityOrchestrator",
      "outputs": [],
      "stateMutability": "nonpayable",
      "type": "function"
    },
    {
      "inputs": [
        {
          "internalType": "uint256",
          "name": "amount",
          "type": "uint256"
        }
      ],
      "name": "setMinDepositAmount",
      "outputs": [],
      "stateMutability": "nonpayable",
      "type": "function"
    },
    {
      "inputs": [
        {
          "internalType": "uint256",
          "name": "amount",
          "type": "uint256"
        }
      ],
      "name": "setMinRedeemAmount",
      "outputs": [],
      "stateMutability": "nonpayable",
      "type": "function"
    },
    {
      "inputs": [
        {
          "internalType": "address",
          "name": "registry",
          "type": "address"
        }
      ],
      "name": "setPriceAdapterRegistry",
      "outputs": [],
      "stateMutability": "nonpayable",
      "type": "function"
    },
    {
      "inputs": [
        {
          "internalType": "uint16",
          "name": "_riskFreeRate",
          "type": "uint16"
        }
      ],
      "name": "setProtocolRiskFreeRate",
      "outputs": [],
      "stateMutability": "nonpayable",
      "type": "function"
    },
    {
      "inputs": [
        {
          "internalType": "address",
          "name": "transparentFactory",
          "type": "address"
        }
      ],
      "name": "setVaultFactory",
      "outputs": [],
      "stateMutability": "nonpayable",
      "type": "function"
    },
    {
      "inputs": [
        {
          "internalType": "address",
          "name": "",
          "type": "address"
        }
      ],
      "name": "tokenDecimals",
      "outputs": [
        {
          "internalType": "uint8",
          "name": "",
          "type": "uint8"
        }
      ],
      "stateMutability": "view",
      "type": "function"
    },
    {
      "inputs": [
        {
          "internalType": "address",
          "name": "newOwner",
          "type": "address"
        }
      ],
      "name": "transferOwnership",
      "outputs": [],
      "stateMutability": "nonpayable",
      "type": "function"
    },
    {
      "inputs": [],
      "name": "transparentVaultFactory",
      "outputs": [
        {
          "internalType": "address",
          "name": "",
          "type": "address"
        }
      ],
      "stateMutability": "view",
      "type": "function"
    },
    {
      "inputs": [],
      "name": "underlyingAsset",
      "outputs": [
        {
          "internalType": "contract IERC20",
          "name": "",
          "type": "address"
        }
      ],
      "stateMutability": "view",
      "type": "function"
    },
    {
      "inputs": [],
      "name": "whitelistedAssetsLength",
      "outputs": [
        {
          "internalType": "uint16",
          "name": "",
          "type": "uint16"
        }
      ],
      "stateMutability": "view",
      "type": "function"
    }
  ],
  "bytecode": "0x60a060405234801561000f575f5ffd5b50604051611c82380380611c8283398101604081905261002e91610266565b826001600160a01b03811661005c57604051631e4fbdf760e01b81525f600482015260240160405180910390fd5b61006581610193565b506001600160a01b03821661008d5760405163d92e233d60e01b815260040160405180910390fd5b6001600160a01b0381166100b45760405163d92e233d60e01b815260040160405180910390fd5b6001600160a01b03828116608052600180546001600160a01b03191691831691821790556005805461ffff60a01b1916610e0960a01b1790556040805163313ce56760e01b8152905163313ce567916004808201926020929091908290030181865afa158015610126573d5f5f3e3d5ffd5b505050506040513d601f19601f8201168201806040525081019061014a91906102a6565b6001600160a01b0382165f908152600c60205260409020805460ff191660ff9290921691909117905561017e6008826101e2565b5061018a600a846101e2565b505050506102cd565b5f80546001600160a01b038381166001600160a01b0319831681178455604051919092169283917f8be0079c531659141344cd1fd0a4f28419497f9722a3daafe3b4186f6b6457e09190a35050565b5f6101f6836001600160a01b0384166101ff565b90505b92915050565b5f81815260018301602052604081205461024457508154600181810184555f8481526020808220909301849055845484825282860190935260409020919091556101f9565b505f6101f9565b80516001600160a01b0381168114610261575f5ffd5b919050565b5f5f5f60608486031215610278575f5ffd5b6102818461024b565b925061028f6020850161024b565b915061029d6040850161024b565b90509250925092565b5f602082840312156102b6575f5ffd5b815160ff811681146102c6575f5ffd5b9392505050565b60805161198f6102f35f395f818161050201528181610bfc0152610d60015261198f5ff3fe608060405234801561000f575f5ffd5b50600436106101d6575f3560e01c8063015df993146101da5780630912ae6d146102035780630a8b78c71461021a5780632095b01e1461022f57806323a06a1c146102425780632a80cda314610255578063348ec5c8146102685780633a0dad8e1461027b5780633af32abf1461028e5780633e3679d3146102b15780633ea7fbdb146102c457806355fba94e146102d7578063567ba713146102ea5780635f24836814610310578063645006ca1461032b57806366e87e7f14610334578063715018a6146103475780637158da7c1461034f578063785c7cf6146103625780637a0cb7841461038d57806381408ce5146103a0578063849ede23146103b3578063862a5f06146103c65780638771de87146103d95780638da5cb5b146103ec5780638ee573ac146103f4578063b6dfcd8b14610416578063c30dd72714610429578063d11f1c351461043c578063d1717c7d1461044f578063d5460ab514610463578063d86cd44e1461046c578063e0876b4414610481578063e8ffccb714610494578063ed04f218146104a7578063edcf9c1f146104ba578063f2fde38b146104c2578063f3cc6993146104d5578063f764eb45146104ea578063f851a440146104fd575b5f5ffd5b6005546101ed906001600160a01b031681565b6040516101fa91906115ed565b60405180910390f35b61020c60075481565b6040519081526020016101fa565b61022d610228366004611615565b610524565b005b61022d61023d366004611615565b61059f565b61022d610250366004611630565b61061a565b61022d610263366004611678565b6107ed565b6002546101ed906001600160a01b031681565b6003546101ed906001600160a01b031681565b6102a161029c366004611615565b61084c565b60405190151581526020016101fa565b61022d6102bf366004611678565b61085e565b61022d6102d2366004611615565b6108bd565b61022d6102e5366004611615565b61095d565b6005546102fe90600160a81b900460ff1681565b60405160ff90911681526020016101fa565b610318610995565b60405161ffff90911681526020016101fa565b61020c60065481565b61022d61034236600461168f565b6109a5565b61022d610a49565b6001546101ed906001600160a01b031681565b6102fe610370366004611615565b6001600160a01b03165f908152600c602052604090205460ff1690565b61022d61039b3660046116c3565b610a5c565b61022d6103ae366004611615565b610b3e565b6004546101ed906001600160a01b031681565b61022d6103d4366004611615565b610bf1565b6102a16103e7366004611615565b610d3b565b6101ed610d47565b6102fe610402366004611615565b600c6020525f908152604090205460ff1681565b61022d610424366004611615565b610d55565b61022d610437366004611615565b610f57565b6102a161044a366004611615565b610fd2565b6005546102fe90600160a01b900460ff1681565b61031861032081565b610474610fde565b6040516101fa91906116f6565b6102a161048f366004611615565b611091565b61022d6104a2366004611615565b6110ae565b6104746104b5366004611741565b611178565b6102a1611254565b61022d6104d0366004611615565b611365565b60055461031890600160b01b900461ffff1681565b6102a16104f8366004611615565b6113a2565b6101ed7f000000000000000000000000000000000000000000000000000000000000000081565b61052c6113ae565b6001600160a01b0381166105535760405163d92e233d60e01b815260040160405180910390fd5b6002546001600160a01b03161561057d57604051630ea075bf60e21b815260040160405180910390fd5b600280546001600160a01b0319166001600160a01b0392909216919091179055565b6105a76113ae565b6001600160a01b0381166105ce5760405163d92e233d60e01b815260040160405180910390fd5b6005546001600160a01b0316156105f857604051630ea075bf60e21b815260040160405180910390fd5b600580546001600160a01b0319166001600160a01b0392909216919091179055565b6106226113ae565b61062a611254565b610647576040516312aecd8160e01b815260040160405180910390fd5b5f6106536008856113e0565b90508061067357604051630ea075bf60e21b815260040160405180910390fd5b836001600160a01b031663313ce5676040518163ffffffff1660e01b8152600401602060405180830381865afa1580156106af573d5f5f3e3d5ffd5b505050506040513d601f19601f820116820180604052508101906106d3919061175a565b6001600160a01b038581165f908152600c602052604090819020805460ff191660ff949094169390931790925560055491516302707eef60e51b8152911690634e0fdde090610728908790879060040161177a565b5f604051808303815f87803b15801561073f575f5ffd5b505af1158015610751573d5f5f3e3d5ffd5b50506003546040516359017aa960e01b81526001600160a01b0390911692506359017aa99150610787908790869060040161177a565b5f604051808303815f87803b15801561079e575f5ffd5b505af11580156107b0573d5f5f3e3d5ffd5b50506040516001600160a01b03871692507fdcbd8d9d0373041250f6c25b6b7aeccb3e9ff291e510ef85bb9f8ac09ceb6f6491505f90a250505050565b6107f56113ae565b6107fd611254565b61081a576040516312aecd8160e01b815260040160405180910390fd5b600681905560405181907fb443c8bd39a1b60d415144f9148c6f90c2b68a553eb90c62cef5e44979db009d905f90a250565b5f6108586008836113fb565b92915050565b6108666113ae565b61086e611254565b61088b576040516312aecd8160e01b815260040160405180910390fd5b600781905560405181907fae6971e30edc181eba4e21b6f0d1238924e807e69aa92f89401c1a836dd71547905f90a250565b6108c56113ae565b6108cd611254565b6108ea576040516312aecd8160e01b815260040160405180910390fd5b6001600160a01b0381166109115760405163d92e233d60e01b815260040160405180910390fd5b6004546001600160a01b03161561093b57604051630ea075bf60e21b815260040160405180910390fd5b600480546001600160a01b0319166001600160a01b0392909216919091179055565b6109656113ae565b5f610971600a836113e0565b90508061099157604051630ea075bf60e21b815260040160405180910390fd5b5050565b5f6109a0600861140f565b905090565b6109ad6113ae565b6109b5611254565b6109d2576040516312aecd8160e01b815260040160405180910390fd5b61032061ffff821611156109f9576040516317dbc4cb60e21b815260040160405180910390fd5b6005805461ffff60b01b1916600160b01b61ffff84811682029290921792839055604051920416907f6c0e50288cc602be5dd504ce35358e01341e3c4f93e2e02b5a030a59bfdb84e2905f90a250565b610a516113ae565b610a5a5f611418565b565b6004546001600160a01b03163314610a8757604051631a27eac360e11b815260040160405180910390fd5b6001600160a01b038216610aae5760405163d92e233d60e01b815260040160405180910390fd5b5f6001826001811115610ac357610ac3611794565b03610ada57610ad3600f846113e0565b9050610ae8565b610ae5600d846113e0565b90505b80610b0657604051630ea075bf60e21b815260040160405180910390fd5b6040516001600160a01b038416907f9a7094a648c0524f3d62b9167886d30be0e68cf53863fe556edda348f189445a905f90a2505050565b610b466113ae565b604051638771de8760e01b81523090638771de8790610b699084906004016115ed565b602060405180830381865afa158015610b84573d5f5f3e3d5ffd5b505050506040513d601f19601f82011682018060405250810190610ba891906117a8565b610bc55760405163e6c4247b60e01b815260040160405180910390fd5b5f610bd1600a83611467565b9050806109915760405163e6c4247b60e01b815260040160405180910390fd5b336001600160a01b037f00000000000000000000000000000000000000000000000000000000000000001614610c3a57604051631a27eac360e11b815260040160405180910390fd5b610c42611254565b610c5f576040516312aecd8160e01b815260040160405180910390fd5b604051633821dad160e21b8152309063e0876b4490610c829084906004016115ed565b602060405180830381865afa158015610c9d573d5f5f3e3d5ffd5b505050506040513d601f19601f82011682018060405250810190610cc191906117a8565b610cde5760405163e6c4247b60e01b815260040160405180910390fd5b610ce96011826113e0565b50806001600160a01b031663ca78e8396040518163ffffffff1660e01b81526004015f604051808303815f87803b158015610d22575f5ffd5b505af1158015610d34573d5f5f3e3d5ffd5b5050505050565b5f610858600a836113fb565b5f546001600160a01b031690565b336001600160a01b037f00000000000000000000000000000000000000000000000000000000000000001614610d9e57604051631a27eac360e11b815260040160405180910390fd5b610da6611254565b610dc3576040516312aecd8160e01b815260040160405180910390fd5b6001546001600160a01b0390811690821603610df2576040516317dbc4cb60e21b815260040160405180910390fd5b5f610dfe600883611467565b905080610e29578160405163751dff9760e11b8152600401610e2091906115ed565b60405180910390fd5b604051631da09e4360e31b81525f90309063ed04f21890610e4e9084906004016117c7565b5f60405180830381865afa158015610e68573d5f5f3e3d5ffd5b505050506040513d5f823e601f3d908101601f19168201604052610e8f919081019061180c565b90505f5b8151811015610f1e575f828281518110610eaf57610eaf6118d6565b60200260200101519050806001600160a01b031663e3352c4c866040518263ffffffff1660e01b8152600401610ee591906115ed565b5f604051808303815f87803b158015610efc575f5ffd5b505af1158015610f0e573d5f5f3e3d5ffd5b5050505050806001019050610e93565b506040516001600160a01b038416907f952363a786fc6f24cfb955cd6207cf91ecee3a82a7dd0bc26891ff7647b5784c905f90a2505050565b610f5f6113ae565b6001600160a01b038116610f865760405163d92e233d60e01b815260040160405180910390fd5b6003546001600160a01b031615610fb057604051630ea075bf60e21b815260040160405180910390fd5b600380546001600160a01b0319166001600160a01b0392909216919091179055565b5f6108586011836113fb565b60605f610feb600861140f565b90508061ffff166001600160401b03811115611009576110096117ed565b604051908082528060200260200182016040528015611032578160200160208202803683370190505b5091505f5b8161ffff168161ffff16101561108c57611056600861ffff831661147b565b838261ffff168151811061106c5761106c6118d6565b6001600160a01b0390921660209283029190910190910152600101611037565b505090565b5f61109d600f836113fb565b806108585750610858600d836113fb565b6003546001600160a01b031633146110d95760405163ea8e4eb560e01b815260040160405180910390fd5b6110e46011826113fb565b6111015760405163e6c4247b60e01b815260040160405180910390fd5b5f61110d600f836113fb565b1561112657506001611120600f83611467565b5061115c565b611131600d836113fb565b1561114357505f611120600d83611467565b60405163e6c4247b60e01b815260040160405180910390fd5b611167601183611467565b506111736013836113e0565b505050565b60605f600183600181111561118f5761118f611794565b1461119b57600d61119e565b600f5b90505f6111aa8261140f565b90505f8161ffff166001600160401b038111156111c9576111c96117ed565b6040519080825280602002602001820160405280156111f2578160200160208202803683370190505b5090505f5b8261ffff168161ffff16101561124b576112158461ffff831661147b565b828261ffff168151811061122b5761122b6118d6565b6001600160a01b03909216602092830291909101909101526001016111f7565b50949350505050565b5f8060035f9054906101000a90046001600160a01b03166001600160a01b031663055ad42e6040518163ffffffff1660e01b8152600401602060405180830381865afa1580156112a6573d5f5f3e3d5ffd5b505050506040513d601f19601f820116820180604052508101906112ca91906118ea565b60038111156112db576112db611794565b1480156109a05750600254604080516302ad6a1760e11b815290515f926001600160a01b03169163055ad42e9160048083019260209291908290030181865afa15801561132a573d5f5f3e3d5ffd5b505050506040513d601f19601f8201168201806040525081019061134e9190611908565b600481111561135f5761135f611794565b14905090565b61136d6113ae565b6001600160a01b038116611396575f604051631e4fbdf760e01b8152600401610e2091906115ed565b61139f81611418565b50565b5f6108586013836113fb565b336113b7610d47565b6001600160a01b031614610a5a573360405163118cdaa760e01b8152600401610e2091906115ed565b5f6113f4836001600160a01b038416611486565b9392505050565b5f6113f4836001600160a01b0384166114cd565b5f610858825490565b5f80546001600160a01b038381166001600160a01b0319831681178455604051919092169283917f8be0079c531659141344cd1fd0a4f28419497f9722a3daafe3b4186f6b6457e09190a35050565b5f6113f4836001600160a01b0384166114e4565b5f6113f483836115c7565b5f61149183836114cd565b6114c657508154600181810184555f848152602080822090930184905584548482528286019093526040902091909155610858565b505f610858565b5f9081526001919091016020526040902054151590565b5f81815260018301602052604081205480156115be575f611506600183611926565b85549091505f9061151990600190611926565b9050808214611578575f865f018281548110611537576115376118d6565b905f5260205f200154905080875f018481548110611557576115576118d6565b5f918252602080832090910192909255918252600188019052604090208390555b855486908061158957611589611945565b600190038181905f5260205f20015f90559055856001015f8681526020019081526020015f205f905560019350505050610858565b5f915050610858565b5f825f0182815481106115dc576115dc6118d6565b905f5260205f200154905092915050565b6001600160a01b0391909116815260200190565b6001600160a01b038116811461139f575f5ffd5b5f60208284031215611625575f5ffd5b81356113f481611601565b5f5f5f60608486031215611642575f5ffd5b833561164d81611601565b9250602084013561165d81611601565b9150604084013561166d81611601565b809150509250925092565b5f60208284031215611688575f5ffd5b5035919050565b5f6020828403121561169f575f5ffd5b813561ffff811681146113f4575f5ffd5b8035600281106116be575f5ffd5b919050565b5f5f604083850312156116d4575f5ffd5b82356116df81611601565b91506116ed602084016116b0565b90509250929050565b602080825282518282018190525f918401906040840190835b818110156117365783516001600160a01b031683526020938401939092019160010161170f565b509095945050505050565b5f60208284031215611751575f5ffd5b6113f4826116b0565b5f6020828403121561176a575f5ffd5b815160ff811681146113f4575f5ffd5b6001600160a01b0392831681529116602082015260400190565b634e487b7160e01b5f52602160045260245ffd5b5f602082840312156117b8575f5ffd5b815180151581146113f4575f5ffd5b60208101600283106117e757634e487b7160e01b5f52602160045260245ffd5b91905290565b634e487b7160e01b5f52604160045260245ffd5b80516116be81611601565b5f6020828403121561181c575f5ffd5b81516001600160401b03811115611831575f5ffd5b8201601f81018413611841575f5ffd5b80516001600160401b0381111561185a5761185a6117ed565b604051600582901b90603f8201601f191681016001600160401b0381118282101715611888576118886117ed565b6040529182526020818401810192908101878411156118a5575f5ffd5b6020850194505b838510156118cb576118bd85611801565b8152602094850194016118ac565b509695505050505050565b634e487b7160e01b5f52603260045260245ffd5b5f602082840312156118fa575f5ffd5b8151600481106113f4575f5ffd5b5f60208284031215611918575f5ffd5b8151600581106113f4575f5ffd5b8181038181111561085857634e487b7160e01b5f52601160045260245ffd5b634e487b7160e01b5f52603160045260245ffdfea2646970667358221220b7127374d28765798bddc39c3863fc28bd53da5fbdcdc3856e7048947d426c0164736f6c634300081c0033",
  "linkReferences": {},
  "deployedLinkReferences": {}
}