{
  "_format": "hh-sol-artifact-1",
  "contractName": "OrionConfig",
  "sourceName": "contracts/OrionConfig.sol",
  "abi": [
    {
      "inputs": [
        {
          "internalType": "address",
          "name": "target",
          "type": "address"
        }
      ],
      "name": "AddressEmptyCode",
      "type": "error"
    },
    {
      "inputs": [],
      "name": "AlreadyAnOrionVault",
      "type": "error"
    },
    {
      "inputs": [],
      "name": "AlreadyWhitelisted",
      "type": "error"
    },
    {
      "inputs": [
        {
          "internalType": "address",
          "name": "implementation",
          "type": "address"
        }
      ],
      "name": "ERC1967InvalidImplementation",
      "type": "error"
    },
    {
      "inputs": [],
      "name": "ERC1967NonPayable",
      "type": "error"
    },
    {
      "inputs": [],
      "name": "FailedCall",
      "type": "error"
    },
    {
      "inputs": [],
      "name": "InvalidAsset",
      "type": "error"
    },
    {
      "inputs": [],
      "name": "InvalidInitialization",
      "type": "error"
    },
    {
      "inputs": [],
      "name": "InvalidInternalOrchestrator",
      "type": "error"
    },
    {
      "inputs": [],
      "name": "InvalidLiquidityOrchestrator",
      "type": "error"
    },
    {
      "inputs": [],
      "name": "InvalidMarketOracle",
      "type": "error"
    },
    {
      "inputs": [],
      "name": "NotAnOrionVault",
      "type": "error"
    },
    {
      "inputs": [],
      "name": "NotFactory",
      "type": "error"
    },
    {
      "inputs": [],
      "name": "NotInWhitelist",
      "type": "error"
    },
    {
      "inputs": [],
      "name": "NotInitializing",
      "type": "error"
    },
    {
      "inputs": [
        {
          "internalType": "address",
          "name": "owner",
          "type": "address"
        }
      ],
      "name": "OwnableInvalidOwner",
      "type": "error"
    },
    {
      "inputs": [
        {
          "internalType": "address",
          "name": "account",
          "type": "address"
        }
      ],
      "name": "OwnableUnauthorizedAccount",
      "type": "error"
    },
    {
      "inputs": [],
      "name": "UUPSUnauthorizedCallContext",
      "type": "error"
    },
    {
      "inputs": [
        {
          "internalType": "bytes32",
          "name": "slot",
          "type": "bytes32"
        }
      ],
      "name": "UUPSUnsupportedProxiableUUID",
      "type": "error"
    },
    {
      "inputs": [],
      "name": "ZeroAddress",
      "type": "error"
    },
    {
      "anonymous": false,
      "inputs": [
        {
          "indexed": false,
          "internalType": "uint64",
          "name": "version",
          "type": "uint64"
        }
      ],
      "name": "Initialized",
      "type": "event"
    },
    {
      "anonymous": false,
      "inputs": [
        {
          "indexed": true,
          "internalType": "address",
          "name": "vault",
          "type": "address"
        }
      ],
      "name": "OrionVaultAdded",
      "type": "event"
    },
    {
      "anonymous": false,
      "inputs": [
        {
          "indexed": true,
          "internalType": "address",
          "name": "vault",
          "type": "address"
        }
      ],
      "name": "OrionVaultRemoved",
      "type": "event"
    },
    {
      "anonymous": false,
      "inputs": [
        {
          "indexed": true,
          "internalType": "address",
          "name": "previousOwner",
          "type": "address"
        },
        {
          "indexed": true,
          "internalType": "address",
          "name": "newOwner",
          "type": "address"
        }
      ],
      "name": "OwnershipTransferStarted",
      "type": "event"
    },
    {
      "anonymous": false,
      "inputs": [
        {
          "indexed": true,
          "internalType": "address",
          "name": "previousOwner",
          "type": "address"
        },
        {
          "indexed": true,
          "internalType": "address",
          "name": "newOwner",
          "type": "address"
        }
      ],
      "name": "OwnershipTransferred",
      "type": "event"
    },
    {
      "anonymous": false,
      "inputs": [
        {
          "indexed": false,
          "internalType": "address",
          "name": "underlyingAsset",
          "type": "address"
        },
        {
          "indexed": false,
          "internalType": "address",
          "name": "internalStatesOrchestrator",
          "type": "address"
        },
        {
          "indexed": false,
          "internalType": "address",
          "name": "liquidityOrchestrator",
          "type": "address"
        },
        {
          "indexed": false,
          "internalType": "contract IMarketOracle",
          "name": "marketOracle",
          "type": "address"
        },
        {
          "indexed": false,
          "internalType": "uint256",
          "name": "curatorIntentDecimals",
          "type": "uint256"
        },
        {
          "indexed": false,
          "internalType": "string",
          "name": "fhePublicCID",
          "type": "string"
        },
        {
          "indexed": false,
          "internalType": "address",
          "name": "factory",
          "type": "address"
        }
      ],
      "name": "ProtocolParamsUpdated",
      "type": "event"
    },
    {
      "anonymous": false,
      "inputs": [
        {
          "indexed": false,
          "internalType": "string",
          "name": "newCID",
          "type": "string"
        }
      ],
      "name": "PublicCIDUpdated",
      "type": "event"
    },
    {
      "anonymous": false,
      "inputs": [
        {
          "indexed": true,
          "internalType": "address",
          "name": "implementation",
          "type": "address"
        }
      ],
      "name": "Upgraded",
      "type": "event"
    },
    {
      "anonymous": false,
      "inputs": [
        {
          "indexed": true,
          "internalType": "address",
          "name": "asset",
          "type": "address"
        }
      ],
      "name": "WhitelistedAssetAdded",
      "type": "event"
    },
    {
      "anonymous": false,
      "inputs": [
        {
          "indexed": true,
          "internalType": "address",
          "name": "asset",
          "type": "address"
        }
      ],
      "name": "WhitelistedAssetRemoved",
      "type": "event"
    },
    {
      "inputs": [],
      "name": "UPGRADE_INTERFACE_VERSION",
      "outputs": [
        {
          "internalType": "string",
          "name": "",
          "type": "string"
        }
      ],
      "stateMutability": "view",
      "type": "function"
    },
    {
      "inputs": [],
      "name": "acceptOwnership",
      "outputs": [],
      "stateMutability": "nonpayable",
      "type": "function"
    },
    {
      "inputs": [
        {
          "internalType": "address",
          "name": "vault",
          "type": "address"
        }
      ],
      "name": "addOrionVault",
      "outputs": [],
      "stateMutability": "nonpayable",
      "type": "function"
    },
    {
      "inputs": [
        {
          "internalType": "address",
          "name": "asset",
          "type": "address"
        }
      ],
      "name": "addWhitelistedAsset",
      "outputs": [],
      "stateMutability": "nonpayable",
      "type": "function"
    },
    {
      "inputs": [],
      "name": "curatorIntentDecimals",
      "outputs": [
        {
          "internalType": "uint8",
          "name": "",
          "type": "uint8"
        }
      ],
      "stateMutability": "view",
      "type": "function"
    },
    {
      "inputs": [],
      "name": "fhePublicCID",
      "outputs": [
        {
          "internalType": "string",
          "name": "",
          "type": "string"
        }
      ],
      "stateMutability": "view",
      "type": "function"
    },
    {
      "inputs": [],
      "name": "getAllOrionVaults",
      "outputs": [
        {
          "internalType": "address[]",
          "name": "",
          "type": "address[]"
        }
      ],
      "stateMutability": "view",
      "type": "function"
    },
    {
      "inputs": [
        {
          "internalType": "uint256",
          "name": "index",
          "type": "uint256"
        }
      ],
      "name": "getWhitelistedAssetAt",
      "outputs": [
        {
          "internalType": "address",
          "name": "",
          "type": "address"
        }
      ],
      "stateMutability": "view",
      "type": "function"
    },
    {
      "inputs": [
        {
          "internalType": "address",
          "name": "initialOwner",
          "type": "address"
        }
      ],
      "name": "initialize",
      "outputs": [],
      "stateMutability": "nonpayable",
      "type": "function"
    },
    {
      "inputs": [],
      "name": "internalStatesOrchestrator",
      "outputs": [
        {
          "internalType": "address",
          "name": "",
          "type": "address"
        }
      ],
      "stateMutability": "view",
      "type": "function"
    },
    {
      "inputs": [
        {
          "internalType": "address",
          "name": "asset",
          "type": "address"
        }
      ],
      "name": "isWhitelisted",
      "outputs": [
        {
          "internalType": "bool",
          "name": "",
          "type": "bool"
        }
      ],
      "stateMutability": "view",
      "type": "function"
    },
    {
      "inputs": [],
      "name": "liquidityOrchestrator",
      "outputs": [
        {
          "internalType": "address",
          "name": "",
          "type": "address"
        }
      ],
      "stateMutability": "view",
      "type": "function"
    },
    {
      "inputs": [],
      "name": "marketOracle",
      "outputs": [
        {
          "internalType": "contract IMarketOracle",
          "name": "",
          "type": "address"
        }
      ],
      "stateMutability": "view",
      "type": "function"
    },
    {
      "inputs": [],
      "name": "owner",
      "outputs": [
        {
          "internalType": "address",
          "name": "",
          "type": "address"
        }
      ],
      "stateMutability": "view",
      "type": "function"
    },
    {
      "inputs": [],
      "name": "pendingOwner",
      "outputs": [
        {
          "internalType": "address",
          "name": "",
          "type": "address"
        }
      ],
      "stateMutability": "view",
      "type": "function"
    },
    {
      "inputs": [],
      "name": "proxiableUUID",
      "outputs": [
        {
          "internalType": "bytes32",
          "name": "",
          "type": "bytes32"
        }
      ],
      "stateMutability": "view",
      "type": "function"
    },
    {
      "inputs": [
        {
          "internalType": "address",
          "name": "vault",
          "type": "address"
        }
      ],
      "name": "removeOrionVault",
      "outputs": [],
      "stateMutability": "nonpayable",
      "type": "function"
    },
    {
      "inputs": [
        {
          "internalType": "address",
          "name": "asset",
          "type": "address"
        }
      ],
      "name": "removeWhitelistedAsset",
      "outputs": [],
      "stateMutability": "nonpayable",
      "type": "function"
    },
    {
      "inputs": [],
      "name": "renounceOwnership",
      "outputs": [],
      "stateMutability": "nonpayable",
      "type": "function"
    },
    {
      "inputs": [
        {
          "internalType": "address",
          "name": "_underlyingAsset",
          "type": "address"
        },
        {
          "internalType": "address",
          "name": "_internalStatesOrchestrator",
          "type": "address"
        },
        {
          "internalType": "address",
          "name": "_liquidityOrchestrator",
          "type": "address"
        },
        {
          "internalType": "contract IMarketOracle",
          "name": "_marketOracle",
          "type": "address"
        },
        {
          "internalType": "uint8",
          "name": "_curatorIntentDecimals",
          "type": "uint8"
        },
        {
          "internalType": "string",
          "name": "_fhePublicCID",
          "type": "string"
        },
        {
          "internalType": "address",
          "name": "_factory",
          "type": "address"
        }
      ],
      "name": "setProtocolParams",
      "outputs": [],
      "stateMutability": "nonpayable",
      "type": "function"
    },
    {
      "inputs": [
        {
          "internalType": "address",
          "name": "newOwner",
          "type": "address"
        }
      ],
      "name": "transferOwnership",
      "outputs": [],
      "stateMutability": "nonpayable",
      "type": "function"
    },
    {
      "inputs": [],
      "name": "underlyingAsset",
      "outputs": [
        {
          "internalType": "contract IERC20",
          "name": "",
          "type": "address"
        }
      ],
      "stateMutability": "view",
      "type": "function"
    },
    {
      "inputs": [
        {
          "internalType": "string",
          "name": "newCID",
          "type": "string"
        }
      ],
      "name": "updateFhePublicCID",
      "outputs": [],
      "stateMutability": "nonpayable",
      "type": "function"
    },
    {
      "inputs": [
        {
          "internalType": "address",
          "name": "newImplementation",
          "type": "address"
        },
        {
          "internalType": "bytes",
          "name": "data",
          "type": "bytes"
        }
      ],
      "name": "upgradeToAndCall",
      "outputs": [],
      "stateMutability": "payable",
      "type": "function"
    },
    {
      "inputs": [],
      "name": "vaultFactory",
      "outputs": [
        {
          "internalType": "address",
          "name": "",
          "type": "address"
        }
      ],
      "stateMutability": "view",
      "type": "function"
    },
    {
      "inputs": [],
      "name": "whitelistedAssetsLength",
      "outputs": [
        {
          "internalType": "uint256",
          "name": "",
          "type": "uint256"
        }
      ],
      "stateMutability": "view",
      "type": "function"
    }
  ],
  "bytecode": "0x60a0604052306080523480156012575f80fd5b506080516118876100395f395f8181610ccd01528181610cf60152610e3a01526118875ff3fe60806040526004361061017b575f3560e01c8063862a5f06116100cd578063bfba8f6611610087578063d8a06f7311610062578063d8a06f731461044a578063e30c397814610469578063eb1a5bb91461047d578063f2fde38b1461049c575f80fd5b8063bfba8f66146103da578063c4d66de8146103f9578063d1717c7d14610418575f80fd5b8063862a5f06146103185780638da5cb5b14610337578063a87dd6d91461034b578063ab6ca9101461036a578063ad3cb1cc1461038b578063b6dfcd8b146103bb575f80fd5b806352d1902d11610138578063715018a611610113578063715018a6146102b35780637158da7c146102c757806375262042146102e557806379ba509714610304575f80fd5b806352d1902d1461025e5780635f248368146102805780636096152814610294575f80fd5b80630a567a2d1461017f578063348ec5c8146101bb5780633a0dad8e146101da5780633af32abf146101f95780633d8015fc146102285780634f1ef28614610249575b5f80fd5b34801561018a575f80fd5b5061019e610199366004611304565b6104bb565b6040516001600160a01b0390911681526020015b60405180910390f35b3480156101c6575f80fd5b5060015461019e906001600160a01b031681565b3480156101e5575f80fd5b5060025461019e906001600160a01b031681565b348015610204575f80fd5b5061021861021336600461132f565b6104cd565b60405190151581526020016101b2565b348015610233575f80fd5b5061023c6104d9565b6040516101b2919061134a565b61025c6102573660046113a9565b61057c565b005b348015610269575f80fd5b5061027261059b565b6040519081526020016101b2565b34801561028b575f80fd5b506102726105b6565b34801561029f575f80fd5b5060035461019e906001600160a01b031681565b3480156102be575f80fd5b5061025c6105c6565b3480156102d2575f80fd5b505f5461019e906001600160a01b031681565b3480156102f0575f80fd5b5061025c6102ff3660046114b4565b6105d9565b34801561030f575f80fd5b5061025c61062c565b348015610323575f80fd5b5061025c61033236600461132f565b610679565b348015610342575f80fd5b5061019e610707565b348015610356575f80fd5b5061025c6103653660046114f3565b61073b565b348015610375575f80fd5b5061037e6108e0565b6040516101b291906115a6565b348015610396575f80fd5b5061037e604051806040016040528060058152602001640352e302e360dc1b81525081565b3480156103c6575f80fd5b5061025c6103d536600461132f565b61096c565b3480156103e5575f80fd5b5061025c6103f436600461132f565b6109d7565b348015610404575f80fd5b5061025c61041336600461132f565b610a42565b348015610423575f80fd5b5060045461043890600160a01b900460ff1681565b60405160ff90911681526020016101b2565b348015610455575f80fd5b5060045461019e906001600160a01b031681565b348015610474575f80fd5b5061019e610b4b565b348015610488575f80fd5b5061025c61049736600461132f565b610b73565b3480156104a7575f80fd5b5061025c6104b636600461132f565b610c01565b5f6104c7600683610c86565b92915050565b5f6104c7600683610c98565b60605f6104e66008610cb9565b90505f8167ffffffffffffffff81111561050257610502611395565b60405190808252806020026020018201604052801561052b578160200160208202803683370190505b5090505f5b8281101561057557610543600882610c86565b828281518110610555576105556115db565b6001600160a01b0390921660209283029190910190910152600101610530565b5092915050565b610584610cc2565b61058d82610d66565b6105978282610d6e565b5050565b5f6105a4610e2f565b505f8051602061183283398151915290565b5f6105c16006610cb9565b905090565b6105ce610e78565b6105d75f610eaa565b565b6105e1610e78565b60056105ee828483611672565b507fd2be23666710f4d83b0ae1641d087fb8ba2a04ddf1581071c2fd2e9eeee57aa58282604051610620929190611754565b60405180910390a15050565b3380610636610b4b565b6001600160a01b03161461066d5760405163118cdaa760e01b81526001600160a01b03821660048201526024015b60405180910390fd5b61067681610eaa565b50565b6004546001600160a01b031633146106a457604051631966391b60e11b815260040160405180910390fd5b5f6106b0600883610ee2565b9050806106d057604051632fa1facb60e01b815260040160405180910390fd5b6040516001600160a01b038316907fe47da341e0fc63816c1254f1c35425f69460f49342668d11c984ea56762b00d4905f90a25050565b5f807f9016d09d72d40fdae2fd8ceac6b6234c7706214fd39c1cd1e609a0528c1993005b546001600160a01b031692915050565b610743610e78565b6001600160a01b03881661076a57604051636448d6e960e11b815260040160405180910390fd5b6001600160a01b03871661079157604051635c1de4f160e01b815260040160405180910390fd5b6001600160a01b0386166107b85760405163c4a0c25d60e01b815260040160405180910390fd5b6001600160a01b0385166107df576040516319800aa760e21b815260040160405180910390fd5b6001600160a01b0381166108065760405163d92e233d60e01b815260040160405180910390fd5b5f80546001600160a01b03199081166001600160a01b038b8116919091179092556001805482168a8416179055600280548216898416179055600380549091169187169190911790556004805460ff60a01b1916600160a01b60ff8716021790556005610874838583611672565b50600480546001600160a01b0319166001600160a01b0383161790556040517f8a3f9b88bdb5df291e6ea7554b3e6bfaf076941024dfee5f193adea6c8ed183d906108ce908a908a908a908a908a908a908a908a9061176f565b60405180910390a15050505050505050565b600580546108ed906115ef565b80601f0160208091040260200160405190810160405280929190818152602001828054610919906115ef565b80156109645780601f1061093b57610100808354040283529160200191610964565b820191905f5260205f20905b81548152906001019060200180831161094757829003601f168201915b505050505081565b610974610e78565b5f610980600683610ee2565b9050806109a057604051632d85515d60e11b815260040160405180910390fd5b6040516001600160a01b038316907f952363a786fc6f24cfb955cd6207cf91ecee3a82a7dd0bc26891ff7647b5784c905f90a25050565b6109df610e78565b5f6109eb600683610ef6565b905080610a0b5760405163b73e95e160e01b815260040160405180910390fd5b6040516001600160a01b038316907fdcbd8d9d0373041250f6c25b6b7aeccb3e9ff291e510ef85bb9f8ac09ceb6f64905f90a25050565b5f610a4b610f0a565b805490915060ff600160401b820416159067ffffffffffffffff165f81158015610a725750825b90505f8267ffffffffffffffff166001148015610a8e5750303b155b905081158015610a9c575080155b15610aba5760405163f92ee8a960e01b815260040160405180910390fd5b845467ffffffffffffffff191660011785558315610ae457845460ff60401b1916600160401b1785555b610aec610f32565b610af4610f32565b610afd86610eaa565b8315610b4357845460ff60401b19168555604051600181527fc7f505b2f371ae2175ee4913f4499e1f2633a7b5936321eed1cdaeb6115181d29060200160405180910390a15b505050505050565b5f807f237e158222e3e6968b72b9db0d8043aacf074ad9f650f0d1606b4d82ee432c0061072b565b6004546001600160a01b03163314610b9e57604051631966391b60e11b815260040160405180910390fd5b5f610baa600883610ef6565b905080610bca57604051633c0c06e960e21b815260040160405180910390fd5b6040516001600160a01b038316907f9a7094a648c0524f3d62b9167886d30be0e68cf53863fe556edda348f189445a905f90a25050565b610c09610e78565b7f237e158222e3e6968b72b9db0d8043aacf074ad9f650f0d1606b4d82ee432c0080546001600160a01b0319166001600160a01b0383169081178255610c4d610707565b6001600160a01b03167f38d16b8cac22d99fc7c124b9cd0de2d3fa1faef420bfe791d8c362d765e2270060405160405180910390a35050565b5f610c918383610f3a565b9392505050565b6001600160a01b0381165f9081526001830160205260408120541515610c91565b5f6104c7825490565b306001600160a01b037f0000000000000000000000000000000000000000000000000000000000000000161480610d4857507f00000000000000000000000000000000000000000000000000000000000000006001600160a01b0316610d3c5f80516020611832833981519152546001600160a01b031690565b6001600160a01b031614155b156105d75760405163703e46dd60e11b815260040160405180910390fd5b610676610e78565b816001600160a01b03166352d1902d6040518163ffffffff1660e01b8152600401602060405180830381865afa925050508015610dc8575060408051601f3d908101601f19168201909252610dc5918101906117d1565b60015b610df057604051634c9c8ce360e01b81526001600160a01b0383166004820152602401610664565b5f805160206118328339815191528114610e2057604051632a87526960e21b815260048101829052602401610664565b610e2a8383610f60565b505050565b306001600160a01b037f000000000000000000000000000000000000000000000000000000000000000016146105d75760405163703e46dd60e11b815260040160405180910390fd5b33610e81610707565b6001600160a01b0316146105d75760405163118cdaa760e01b8152336004820152602401610664565b7f237e158222e3e6968b72b9db0d8043aacf074ad9f650f0d1606b4d82ee432c0080546001600160a01b031916815561059782610fb5565b5f610c91836001600160a01b038416611025565b5f610c91836001600160a01b038416611108565b5f807ff0c57e16840df040f15088dc2f81fe391c3923bec73e23a9662efc9c229c6a006104c7565b6105d7611154565b5f825f018281548110610f4f57610f4f6115db565b905f5260205f200154905092915050565b610f6982611179565b6040516001600160a01b038316907fbc7cd75a20ee27fd9adebab32041f755214dbc6bffa90cc0225b39da2e5c2d3b905f90a2805115610fad57610e2a82826111dc565b61059761124e565b7f9016d09d72d40fdae2fd8ceac6b6234c7706214fd39c1cd1e609a0528c19930080546001600160a01b031981166001600160a01b03848116918217845560405192169182907f8be0079c531659141344cd1fd0a4f28419497f9722a3daafe3b4186f6b6457e0905f90a3505050565b5f81815260018301602052604081205480156110ff575f6110476001836117e8565b85549091505f9061105a906001906117e8565b90508082146110b9575f865f018281548110611078576110786115db565b905f5260205f200154905080875f018481548110611098576110986115db565b5f918252602080832090910192909255918252600188019052604090208390555b85548690806110ca576110ca611807565b600190038181905f5260205f20015f90559055856001015f8681526020019081526020015f205f9055600193505050506104c7565b5f9150506104c7565b5f81815260018301602052604081205461114d57508154600181810184555f8481526020808220909301849055845484825282860190935260409020919091556104c7565b505f6104c7565b61115c61126d565b6105d757604051631afcd79f60e31b815260040160405180910390fd5b806001600160a01b03163b5f036111ae57604051634c9c8ce360e01b81526001600160a01b0382166004820152602401610664565b5f8051602061183283398151915280546001600160a01b0319166001600160a01b0392909216919091179055565b60605f80846001600160a01b0316846040516111f8919061181b565b5f60405180830381855af49150503d805f8114611230576040519150601f19603f3d011682016040523d82523d5f602084013e611235565b606091505b5091509150611245858383611286565b95945050505050565b34156105d75760405163b398979f60e01b815260040160405180910390fd5b5f611276610f0a565b54600160401b900460ff16919050565b60608261129b57611296826112db565b610c91565b81511580156112b257506001600160a01b0384163b155b1561057557604051639996b31560e01b81526001600160a01b0385166004820152602401610664565b8051156112eb5780518082602001fd5b60405163d6bda27560e01b815260040160405180910390fd5b5f60208284031215611314575f80fd5b5035919050565b6001600160a01b0381168114610676575f80fd5b5f6020828403121561133f575f80fd5b8135610c918161131b565b602080825282518282018190525f918401906040840190835b8181101561138a5783516001600160a01b0316835260209384019390920191600101611363565b509095945050505050565b634e487b7160e01b5f52604160045260245ffd5b5f80604083850312156113ba575f80fd5b82356113c58161131b565b9150602083013567ffffffffffffffff8111156113e0575f80fd5b8301601f810185136113f0575f80fd5b803567ffffffffffffffff81111561140a5761140a611395565b604051601f8201601f19908116603f0116810167ffffffffffffffff8111828210171561143957611439611395565b604052818152828201602001871015611450575f80fd5b816020840160208301375f602083830101528093505050509250929050565b5f8083601f84011261147f575f80fd5b50813567ffffffffffffffff811115611496575f80fd5b6020830191508360208285010111156114ad575f80fd5b9250929050565b5f80602083850312156114c5575f80fd5b823567ffffffffffffffff8111156114db575f80fd5b6114e78582860161146f565b90969095509350505050565b5f805f805f805f8060e0898b03121561150a575f80fd5b88356115158161131b565b975060208901356115258161131b565b965060408901356115358161131b565b955060608901356115458161131b565b9450608089013560ff8116811461155a575f80fd5b935060a089013567ffffffffffffffff811115611575575f80fd5b6115818b828c0161146f565b90945092505060c08901356115958161131b565b809150509295985092959890939650565b602081525f82518060208401528060208501604085015e5f604082850101526040601f19601f83011684010191505092915050565b634e487b7160e01b5f52603260045260245ffd5b600181811c9082168061160357607f821691505b60208210810361162157634e487b7160e01b5f52602260045260245ffd5b50919050565b601f821115610e2a57805f5260205f20601f840160051c8101602085101561164c5750805b601f840160051c820191505b8181101561166b575f8155600101611658565b5050505050565b67ffffffffffffffff83111561168a5761168a611395565b61169e8361169883546115ef565b83611627565b5f601f8411600181146116cf575f85156116b85750838201355b5f19600387901b1c1916600186901b17835561166b565b5f83815260208120601f198716915b828110156116fe57868501358255602094850194600190920191016116de565b508682101561171a575f1960f88860031b161c19848701351681555b505060018560011b0183555050505050565b81835281816020850137505f828201602090810191909152601f909101601f19169091010190565b602081525f61176760208301848661172c565b949350505050565b6001600160a01b038981168252888116602083015287811660408301528616606082015260ff8516608082015260e060a082018190525f906117b4908301858761172c565b905060018060a01b03831660c08301529998505050505050505050565b5f602082840312156117e1575f80fd5b5051919050565b818103818111156104c757634e487b7160e01b5f52601160045260245ffd5b634e487b7160e01b5f52603160045260245ffd5b5f82518060208501845e5f92019182525091905056fe360894a13ba1a3210667c828492db98dca3e2076cc3735a920a3ca505d382bbca26469706673582212202aaf073d176c17c7e1330a8d8dba01b6f1b73d41d52744fa22191b5e4f52f1a664736f6c634300081a0033",
  "linkReferences": {},
  "deployedLinkReferences": {}
}