{
  "_format": "hh-sol-artifact-1",
  "contractName": "OrionConfig",
  "sourceName": "contracts/OrionConfig.sol",
  "abi": [
    {
      "inputs": [
        {
          "internalType": "address",
          "name": "initialOwner",
          "type": "address"
        }
      ],
      "stateMutability": "nonpayable",
      "type": "constructor"
    },
    {
      "inputs": [],
      "name": "AlreadyRegistered",
      "type": "error"
    },
    {
      "inputs": [
        {
          "internalType": "address",
          "name": "owner",
          "type": "address"
        }
      ],
      "name": "OwnableInvalidOwner",
      "type": "error"
    },
    {
      "inputs": [
        {
          "internalType": "address",
          "name": "account",
          "type": "address"
        }
      ],
      "name": "OwnableUnauthorizedAccount",
      "type": "error"
    },
    {
      "inputs": [],
      "name": "SystemNotIdle",
      "type": "error"
    },
    {
      "inputs": [
        {
          "internalType": "address",
          "name": "token",
          "type": "address"
        }
      ],
      "name": "TokenNotWhitelisted",
      "type": "error"
    },
    {
      "inputs": [],
      "name": "UnauthorizedAccess",
      "type": "error"
    },
    {
      "inputs": [],
      "name": "ZeroAddress",
      "type": "error"
    },
    {
      "anonymous": false,
      "inputs": [
        {
          "indexed": true,
          "internalType": "address",
          "name": "vault",
          "type": "address"
        }
      ],
      "name": "OrionVaultAdded",
      "type": "event"
    },
    {
      "anonymous": false,
      "inputs": [
        {
          "indexed": true,
          "internalType": "address",
          "name": "vault",
          "type": "address"
        }
      ],
      "name": "OrionVaultRemoved",
      "type": "event"
    },
    {
      "anonymous": false,
      "inputs": [
        {
          "indexed": true,
          "internalType": "address",
          "name": "previousOwner",
          "type": "address"
        },
        {
          "indexed": true,
          "internalType": "address",
          "name": "newOwner",
          "type": "address"
        }
      ],
      "name": "OwnershipTransferred",
      "type": "event"
    },
    {
      "anonymous": false,
      "inputs": [],
      "name": "ProtocolParamsUpdated",
      "type": "event"
    },
    {
      "anonymous": false,
      "inputs": [
        {
          "indexed": true,
          "internalType": "address",
          "name": "asset",
          "type": "address"
        }
      ],
      "name": "WhitelistedAssetAdded",
      "type": "event"
    },
    {
      "anonymous": false,
      "inputs": [
        {
          "indexed": true,
          "internalType": "address",
          "name": "asset",
          "type": "address"
        }
      ],
      "name": "WhitelistedAssetRemoved",
      "type": "event"
    },
    {
      "inputs": [
        {
          "internalType": "address",
          "name": "vault",
          "type": "address"
        },
        {
          "internalType": "enum EventsLib.VaultType",
          "name": "vaultType",
          "type": "uint8"
        }
      ],
      "name": "addOrionVault",
      "outputs": [],
      "stateMutability": "nonpayable",
      "type": "function"
    },
    {
      "inputs": [
        {
          "internalType": "address",
          "name": "asset",
          "type": "address"
        },
        {
          "internalType": "address",
          "name": "priceAdapter",
          "type": "address"
        },
        {
          "internalType": "address",
          "name": "executionAdapter",
          "type": "address"
        }
      ],
      "name": "addWhitelistedAsset",
      "outputs": [],
      "stateMutability": "nonpayable",
      "type": "function"
    },
    {
      "inputs": [],
      "name": "curatorIntentDecimals",
      "outputs": [
        {
          "internalType": "uint8",
          "name": "",
          "type": "uint8"
        }
      ],
      "stateMutability": "view",
      "type": "function"
    },
    {
      "inputs": [],
      "name": "encryptedVaultFactory",
      "outputs": [
        {
          "internalType": "address",
          "name": "",
          "type": "address"
        }
      ],
      "stateMutability": "view",
      "type": "function"
    },
    {
      "inputs": [
        {
          "internalType": "enum EventsLib.VaultType",
          "name": "vaultType",
          "type": "uint8"
        }
      ],
      "name": "getAllOrionVaults",
      "outputs": [
        {
          "internalType": "address[]",
          "name": "",
          "type": "address[]"
        }
      ],
      "stateMutability": "view",
      "type": "function"
    },
    {
      "inputs": [],
      "name": "getAllWhitelistedAssets",
      "outputs": [
        {
          "internalType": "address[]",
          "name": "assets",
          "type": "address[]"
        }
      ],
      "stateMutability": "view",
      "type": "function"
    },
    {
      "inputs": [
        {
          "internalType": "uint16",
          "name": "index",
          "type": "uint16"
        }
      ],
      "name": "getWhitelistedAssetAt",
      "outputs": [
        {
          "internalType": "address",
          "name": "",
          "type": "address"
        }
      ],
      "stateMutability": "view",
      "type": "function"
    },
    {
      "inputs": [],
      "name": "internalStatesOrchestrator",
      "outputs": [
        {
          "internalType": "address",
          "name": "",
          "type": "address"
        }
      ],
      "stateMutability": "view",
      "type": "function"
    },
    {
      "inputs": [
        {
          "internalType": "address",
          "name": "vault",
          "type": "address"
        }
      ],
      "name": "isOrionVault",
      "outputs": [
        {
          "internalType": "bool",
          "name": "",
          "type": "bool"
        }
      ],
      "stateMutability": "view",
      "type": "function"
    },
    {
      "inputs": [],
      "name": "isSystemIdle",
      "outputs": [
        {
          "internalType": "bool",
          "name": "",
          "type": "bool"
        }
      ],
      "stateMutability": "view",
      "type": "function"
    },
    {
      "inputs": [
        {
          "internalType": "address",
          "name": "asset",
          "type": "address"
        }
      ],
      "name": "isWhitelisted",
      "outputs": [
        {
          "internalType": "bool",
          "name": "",
          "type": "bool"
        }
      ],
      "stateMutability": "view",
      "type": "function"
    },
    {
      "inputs": [],
      "name": "liquidityOrchestrator",
      "outputs": [
        {
          "internalType": "address",
          "name": "",
          "type": "address"
        }
      ],
      "stateMutability": "view",
      "type": "function"
    },
    {
      "inputs": [],
      "name": "owner",
      "outputs": [
        {
          "internalType": "address",
          "name": "",
          "type": "address"
        }
      ],
      "stateMutability": "view",
      "type": "function"
    },
    {
      "inputs": [],
      "name": "priceAdapterDecimals",
      "outputs": [
        {
          "internalType": "uint8",
          "name": "",
          "type": "uint8"
        }
      ],
      "stateMutability": "view",
      "type": "function"
    },
    {
      "inputs": [],
      "name": "priceAdapterRegistry",
      "outputs": [
        {
          "internalType": "address",
          "name": "",
          "type": "address"
        }
      ],
      "stateMutability": "view",
      "type": "function"
    },
    {
      "inputs": [
        {
          "internalType": "address",
          "name": "vault",
          "type": "address"
        },
        {
          "internalType": "enum EventsLib.VaultType",
          "name": "vaultType",
          "type": "uint8"
        }
      ],
      "name": "removeOrionVault",
      "outputs": [],
      "stateMutability": "nonpayable",
      "type": "function"
    },
    {
      "inputs": [
        {
          "internalType": "address",
          "name": "asset",
          "type": "address"
        }
      ],
      "name": "removeWhitelistedAsset",
      "outputs": [],
      "stateMutability": "nonpayable",
      "type": "function"
    },
    {
      "inputs": [],
      "name": "renounceOwnership",
      "outputs": [],
      "stateMutability": "nonpayable",
      "type": "function"
    },
    {
      "inputs": [
        {
          "internalType": "address",
          "name": "orchestrator",
          "type": "address"
        }
      ],
      "name": "setInternalStatesOrchestrator",
      "outputs": [],
      "stateMutability": "nonpayable",
      "type": "function"
    },
    {
      "inputs": [
        {
          "internalType": "address",
          "name": "orchestrator",
          "type": "address"
        }
      ],
      "name": "setLiquidityOrchestrator",
      "outputs": [],
      "stateMutability": "nonpayable",
      "type": "function"
    },
    {
      "inputs": [
        {
          "internalType": "address",
          "name": "registry",
          "type": "address"
        }
      ],
      "name": "setPriceAdapterRegistry",
      "outputs": [],
      "stateMutability": "nonpayable",
      "type": "function"
    },
    {
      "inputs": [
        {
          "internalType": "uint8",
          "name": "_curatorIntentDecimals",
          "type": "uint8"
        },
        {
          "internalType": "uint8",
          "name": "_priceAdapterDecimals",
          "type": "uint8"
        }
      ],
      "name": "setProtocolParams",
      "outputs": [],
      "stateMutability": "nonpayable",
      "type": "function"
    },
    {
      "inputs": [
        {
          "internalType": "address",
          "name": "asset",
          "type": "address"
        }
      ],
      "name": "setUnderlyingAsset",
      "outputs": [],
      "stateMutability": "nonpayable",
      "type": "function"
    },
    {
      "inputs": [
        {
          "internalType": "address",
          "name": "transparentFactory",
          "type": "address"
        },
        {
          "internalType": "address",
          "name": "encryptedFactory",
          "type": "address"
        }
      ],
      "name": "setVaultFactories",
      "outputs": [],
      "stateMutability": "nonpayable",
      "type": "function"
    },
    {
      "inputs": [
        {
          "internalType": "address",
          "name": "newOwner",
          "type": "address"
        }
      ],
      "name": "transferOwnership",
      "outputs": [],
      "stateMutability": "nonpayable",
      "type": "function"
    },
    {
      "inputs": [],
      "name": "transparentVaultFactory",
      "outputs": [
        {
          "internalType": "address",
          "name": "",
          "type": "address"
        }
      ],
      "stateMutability": "view",
      "type": "function"
    },
    {
      "inputs": [],
      "name": "underlyingAsset",
      "outputs": [
        {
          "internalType": "contract IERC20",
          "name": "",
          "type": "address"
        }
      ],
      "stateMutability": "view",
      "type": "function"
    },
    {
      "inputs": [],
      "name": "whitelistedAssetsLength",
      "outputs": [
        {
          "internalType": "uint16",
          "name": "",
          "type": "uint16"
        }
      ],
      "stateMutability": "view",
      "type": "function"
    }
  ],
  "bytecode": "0x6080604052348015600e575f5ffd5b50604051611394380380611394833981016040819052602b9160b4565b806001600160a01b038116605857604051631e4fbdf760e01b81525f600482015260240160405180910390fd5b605f816065565b505060df565b5f80546001600160a01b038381166001600160a01b0319831681178455604051919092169283917f8be0079c531659141344cd1fd0a4f28419497f9722a3daafe3b4186f6b6457e09190a35050565b5f6020828403121560c3575f5ffd5b81516001600160a01b038116811460d8575f5ffd5b9392505050565b6112a8806100ec5f395ff3fe608060405234801561000f575f5ffd5b5060043610610152575f3560e01c8063015df993146101565780630a8b78c71461017f5780630c0240d4146101945780631dbc3c04146101a75780632095b01e146101ba57806323a06a1c146101cd5780632430dbf3146101e057806325671dcb146101f3578063348ec5c8146102065780633a0dad8e146102195780633af32abf1461022c578063567ba7131461024f5780635f24836814610275578063715018a6146102905780637158da7c146102985780637a0cb784146102ab578063849ede23146102be5780638da5cb5b146102d157806391a848f3146102d9578063a51b8d5a146102ec578063b6dfcd8b146102ff578063c30dd72714610312578063d1717c7d14610325578063d86cd44e14610339578063e0876b441461034e578063ed04f21814610361578063edcf9c1f14610374578063f2fde38b1461037c575b5f5ffd5b600654610169906001600160a01b031681565b6040516101769190611016565b60405180910390f35b61019261018d366004611045565b61038f565b005b6101926101a236600461106e565b6103e0565b6101926101b53660046110ad565b61046c565b6101926101c8366004611045565b610529565b6101926101db3660046110d5565b61059f565b6101696101ee366004611115565b6106ef565b610192610201366004611045565b610705565b600254610169906001600160a01b031681565b600354610169906001600160a01b031681565b61023f61023a366004611045565b610756565b6040519015158152602001610176565b60065461026390600160a01b900460ff1681565b60405160ff9091168152602001610176565b61027d610762565b60405161ffff9091168152602001610176565b610192610772565b600154610169906001600160a01b031681565b6101926102b93660046110ad565b610785565b600454610169906001600160a01b031681565b610169610880565b600554610169906001600160a01b031681565b6101926102fa366004611136565b61088e565b61019261030d366004611045565b610937565b610192610320366004611045565b610a8c565b60065461026390600160a81b900460ff1681565b610341610add565b604051610176919061115e565b61023f61035c366004611045565b610b90565b61034161036f3660046111a9565b610bad565b61023f610c89565b61019261038a366004611045565b610d9a565b610397610dd7565b6001600160a01b0381166103be5760405163d92e233d60e01b815260040160405180910390fd5b600280546001600160a01b0319166001600160a01b0392909216919091179055565b6103e8610dd7565b6103f0610c89565b61040d576040516312aecd8160e01b815260040160405180910390fd5b6006805460ff838116600160a01b0260ff60a01b19918616600160a81b029190911661ffff60a01b19909216919091171790556040517fc56626e36ca25ee9a19c58d2d4f9a4569523b059e6aaeb263573ded93fc33c5a905f90a15050565b610474610dd7565b61047c610c89565b610499576040516312aecd8160e01b815260040160405180910390fd5b5f60018260018111156104ae576104ae6111c2565b036104c5576104be600b84610e09565b90506104d3565b6104d0600984610e09565b90505b806104f157604051631a27eac360e11b815260040160405180910390fd5b6040516001600160a01b038416907fe47da341e0fc63816c1254f1c35425f69460f49342668d11c984ea56762b00d4905f90a2505050565b610531610dd7565b610539610c89565b610556576040516312aecd8160e01b815260040160405180910390fd5b6001600160a01b03811661057d5760405163d92e233d60e01b815260040160405180910390fd5b600680546001600160a01b0319166001600160a01b0392909216919091179055565b6105a7610dd7565b6105af610c89565b6105cc576040516312aecd8160e01b815260040160405180910390fd5b5f6105d8600785610e24565b9050806105f857604051630ea075bf60e21b815260040160405180910390fd5b6006546040516302707eef60e51b81526001600160a01b0390911690634e0fdde09061062a90879087906004016111d6565b5f604051808303815f87803b158015610641575f5ffd5b505af1158015610653573d5f5f3e3d5ffd5b50506003546040516359017aa960e01b81526001600160a01b0390911692506359017aa9915061068990879086906004016111d6565b5f604051808303815f87803b1580156106a0575f5ffd5b505af11580156106b2573d5f5f3e3d5ffd5b50506040516001600160a01b03871692507fdcbd8d9d0373041250f6c25b6b7aeccb3e9ff291e510ef85bb9f8ac09ceb6f6491505f90a250505050565b5f6106ff600761ffff8416610e38565b92915050565b61070d610dd7565b6001600160a01b0381166107345760405163d92e233d60e01b815260040160405180910390fd5b600180546001600160a01b0319166001600160a01b0392909216919091179055565b5f6106ff600783610e43565b5f61076d6007610e57565b905090565b61077a610dd7565b6107835f610e60565b565b6004546001600160a01b031633148015906107ab57506005546001600160a01b03163314155b156107c957604051631a27eac360e11b815260040160405180910390fd5b6001600160a01b0382166107f05760405163d92e233d60e01b815260040160405180910390fd5b5f6001826001811115610805576108056111c2565b0361081c57610815600b84610e24565b905061082a565b610827600984610e24565b90505b8061084857604051630ea075bf60e21b815260040160405180910390fd5b6040516001600160a01b038416907f9a7094a648c0524f3d62b9167886d30be0e68cf53863fe556edda348f189445a905f90a2505050565b5f546001600160a01b031690565b610896610dd7565b61089e610c89565b6108bb576040516312aecd8160e01b815260040160405180910390fd5b6001600160a01b0382166108e25760405163d92e233d60e01b815260040160405180910390fd5b6001600160a01b0381166109095760405163d92e233d60e01b815260040160405180910390fd5b600480546001600160a01b039384166001600160a01b03199182161790915560058054929093169116179055565b61093f610dd7565b610947610c89565b610964576040516312aecd8160e01b815260040160405180910390fd5b5f610970600783610e09565b90508061099b578160405163751dff9760e11b81526004016109929190611016565b60405180910390fd5b600654604051634386017560e01b81526001600160a01b03909116906343860175906109cb908590600401611016565b5f604051808303815f87803b1580156109e2575f5ffd5b505af11580156109f4573d5f5f3e3d5ffd5b505060035460405163841181ef60e01b81526001600160a01b03909116925063841181ef9150610a28908590600401611016565b5f604051808303815f87803b158015610a3f575f5ffd5b505af1158015610a51573d5f5f3e3d5ffd5b50506040516001600160a01b03851692507f952363a786fc6f24cfb955cd6207cf91ecee3a82a7dd0bc26891ff7647b5784c91505f90a25050565b610a94610dd7565b6001600160a01b038116610abb5760405163d92e233d60e01b815260040160405180910390fd5b600380546001600160a01b0319166001600160a01b0392909216919091179055565b60605f610aea6007610e57565b90508061ffff166001600160401b03811115610b0857610b086111f0565b604051908082528060200260200182016040528015610b31578160200160208202803683370190505b5091505f5b8161ffff168161ffff161015610b8b57610b55600761ffff8316610e38565b838261ffff1681518110610b6b57610b6b611204565b6001600160a01b0390921660209283029190910190910152600101610b36565b505090565b5f610b9c600b83610e43565b806106ff57506106ff600983610e43565b60605f6001836001811115610bc457610bc46111c2565b14610bd0576009610bd3565b600b5b90505f610bdf82610e57565b90505f8161ffff166001600160401b03811115610bfe57610bfe6111f0565b604051908082528060200260200182016040528015610c27578160200160208202803683370190505b5090505f5b8261ffff168161ffff161015610c8057610c4a8461ffff8316610e38565b828261ffff1681518110610c6057610c60611204565b6001600160a01b0390921660209283029190910190910152600101610c2c565b50949350505050565b5f8060035f9054906101000a90046001600160a01b03166001600160a01b031663055ad42e6040518163ffffffff1660e01b8152600401602060405180830381865afa158015610cdb573d5f5f3e3d5ffd5b505050506040513d601f19601f82011682018060405250810190610cff9190611224565b6003811115610d1057610d106111c2565b14801561076d5750600254604080516302ad6a1760e11b815290515f926001600160a01b03169163055ad42e9160048083019260209291908290030181865afa158015610d5f573d5f5f3e3d5ffd5b505050506040513d601f19601f82011682018060405250810190610d839190611224565b6003811115610d9457610d946111c2565b14905090565b610da2610dd7565b6001600160a01b038116610dcb575f604051631e4fbdf760e01b81526004016109929190611016565b610dd481610e60565b50565b33610de0610880565b6001600160a01b031614610783573360405163118cdaa760e01b81526004016109929190611016565b5f610e1d836001600160a01b038416610eaf565b9392505050565b5f610e1d836001600160a01b038416610f92565b5f610e1d8383610fd9565b5f610e1d836001600160a01b038416610fff565b5f6106ff825490565b5f80546001600160a01b038381166001600160a01b0319831681178455604051919092169283917f8be0079c531659141344cd1fd0a4f28419497f9722a3daafe3b4186f6b6457e09190a35050565b5f8181526001830160205260408120548015610f89575f610ed160018361123f565b85549091505f90610ee49060019061123f565b9050808214610f43575f865f018281548110610f0257610f02611204565b905f5260205f200154905080875f018481548110610f2257610f22611204565b5f918252602080832090910192909255918252600188019052604090208390555b8554869080610f5457610f5461125e565b600190038181905f5260205f20015f90559055856001015f8681526020019081526020015f205f9055600193505050506106ff565b5f9150506106ff565b5f610f9d8383610fff565b610fd257508154600181810184555f8481526020808220909301849055845484825282860190935260409020919091556106ff565b505f6106ff565b5f825f018281548110610fee57610fee611204565b905f5260205f200154905092915050565b5f9081526001919091016020526040902054151590565b6001600160a01b0391909116815260200190565b80356001600160a01b0381168114611040575f5ffd5b919050565b5f60208284031215611055575f5ffd5b610e1d8261102a565b803560ff81168114611040575f5ffd5b5f5f6040838503121561107f575f5ffd5b6110888361105e565b91506110966020840161105e565b90509250929050565b803560028110611040575f5ffd5b5f5f604083850312156110be575f5ffd5b6110c78361102a565b91506110966020840161109f565b5f5f5f606084860312156110e7575f5ffd5b6110f08461102a565b92506110fe6020850161102a565b915061110c6040850161102a565b90509250925092565b5f60208284031215611125575f5ffd5b813561ffff81168114610e1d575f5ffd5b5f5f60408385031215611147575f5ffd5b6111508361102a565b91506110966020840161102a565b602080825282518282018190525f918401906040840190835b8181101561119e5783516001600160a01b0316835260209384019390920191600101611177565b509095945050505050565b5f602082840312156111b9575f5ffd5b610e1d8261109f565b634e487b7160e01b5f52602160045260245ffd5b6001600160a01b0392831681529116602082015260400190565b634e487b7160e01b5f52604160045260245ffd5b634e487b7160e01b5f52603260045260245ffd5b60048110610dd4575f5ffd5b5f60208284031215611234575f5ffd5b8151610e1d81611218565b818103818111156106ff57634e487b7160e01b5f52601160045260245ffd5b634e487b7160e01b5f52603160045260245ffdfea26469706673582212205ffda6f0ce685e7af6bdbbc45e6ff34e3fc550fa0426c5bed110717aa09a63e164736f6c634300081c0033",
  "linkReferences": {},
  "deployedLinkReferences": {}
}