{
  "_format": "hh-sol-artifact-1",
  "contractName": "OrionConfig",
  "sourceName": "contracts/OrionConfig.sol",
  "abi": [
    {
      "inputs": [
        {
          "internalType": "address",
          "name": "initialOwner",
          "type": "address"
        },
        {
          "internalType": "address",
          "name": "underlyingAsset_",
          "type": "address"
        }
      ],
      "stateMutability": "nonpayable",
      "type": "constructor"
    },
    {
      "inputs": [],
      "name": "AlreadyRegistered",
      "type": "error"
    },
    {
      "inputs": [
        {
          "internalType": "address",
          "name": "owner",
          "type": "address"
        }
      ],
      "name": "OwnableInvalidOwner",
      "type": "error"
    },
    {
      "inputs": [
        {
          "internalType": "address",
          "name": "account",
          "type": "address"
        }
      ],
      "name": "OwnableUnauthorizedAccount",
      "type": "error"
    },
    {
      "inputs": [],
      "name": "SystemNotIdle",
      "type": "error"
    },
    {
      "inputs": [
        {
          "internalType": "address",
          "name": "token",
          "type": "address"
        }
      ],
      "name": "TokenNotWhitelisted",
      "type": "error"
    },
    {
      "inputs": [],
      "name": "UnauthorizedAccess",
      "type": "error"
    },
    {
      "inputs": [],
      "name": "ZeroAddress",
      "type": "error"
    },
    {
      "anonymous": false,
      "inputs": [
        {
          "indexed": true,
          "internalType": "address",
          "name": "vault",
          "type": "address"
        }
      ],
      "name": "OrionVaultAdded",
      "type": "event"
    },
    {
      "anonymous": false,
      "inputs": [
        {
          "indexed": true,
          "internalType": "address",
          "name": "vault",
          "type": "address"
        }
      ],
      "name": "OrionVaultRemoved",
      "type": "event"
    },
    {
      "anonymous": false,
      "inputs": [
        {
          "indexed": true,
          "internalType": "address",
          "name": "previousOwner",
          "type": "address"
        },
        {
          "indexed": true,
          "internalType": "address",
          "name": "newOwner",
          "type": "address"
        }
      ],
      "name": "OwnershipTransferred",
      "type": "event"
    },
    {
      "anonymous": false,
      "inputs": [
        {
          "indexed": true,
          "internalType": "uint16",
          "name": "riskFreeRate",
          "type": "uint16"
        }
      ],
      "name": "RiskFreeRateUpdated",
      "type": "event"
    },
    {
      "anonymous": false,
      "inputs": [
        {
          "indexed": true,
          "internalType": "address",
          "name": "asset",
          "type": "address"
        }
      ],
      "name": "WhitelistedAssetAdded",
      "type": "event"
    },
    {
      "anonymous": false,
      "inputs": [
        {
          "indexed": true,
          "internalType": "address",
          "name": "asset",
          "type": "address"
        }
      ],
      "name": "WhitelistedAssetRemoved",
      "type": "event"
    },
    {
      "inputs": [
        {
          "internalType": "address",
          "name": "vault",
          "type": "address"
        },
        {
          "internalType": "enum EventsLib.VaultType",
          "name": "vaultType",
          "type": "uint8"
        }
      ],
      "name": "addOrionVault",
      "outputs": [],
      "stateMutability": "nonpayable",
      "type": "function"
    },
    {
      "inputs": [
        {
          "internalType": "address",
          "name": "asset",
          "type": "address"
        },
        {
          "internalType": "address",
          "name": "priceAdapter",
          "type": "address"
        },
        {
          "internalType": "address",
          "name": "executionAdapter",
          "type": "address"
        }
      ],
      "name": "addWhitelistedAsset",
      "outputs": [],
      "stateMutability": "nonpayable",
      "type": "function"
    },
    {
      "inputs": [
        {
          "internalType": "address",
          "name": "vaultOwner",
          "type": "address"
        }
      ],
      "name": "addWhitelistedVaultOwner",
      "outputs": [],
      "stateMutability": "nonpayable",
      "type": "function"
    },
    {
      "inputs": [],
      "name": "curatorIntentDecimals",
      "outputs": [
        {
          "internalType": "uint8",
          "name": "",
          "type": "uint8"
        }
      ],
      "stateMutability": "view",
      "type": "function"
    },
    {
      "inputs": [],
      "name": "encryptedVaultFactory",
      "outputs": [
        {
          "internalType": "address",
          "name": "",
          "type": "address"
        }
      ],
      "stateMutability": "view",
      "type": "function"
    },
    {
      "inputs": [
        {
          "internalType": "enum EventsLib.VaultType",
          "name": "vaultType",
          "type": "uint8"
        }
      ],
      "name": "getAllOrionVaults",
      "outputs": [
        {
          "internalType": "address[]",
          "name": "",
          "type": "address[]"
        }
      ],
      "stateMutability": "view",
      "type": "function"
    },
    {
      "inputs": [],
      "name": "getAllWhitelistedAssets",
      "outputs": [
        {
          "internalType": "address[]",
          "name": "assets",
          "type": "address[]"
        }
      ],
      "stateMutability": "view",
      "type": "function"
    },
    {
      "inputs": [
        {
          "internalType": "address",
          "name": "token",
          "type": "address"
        }
      ],
      "name": "getTokenDecimals",
      "outputs": [
        {
          "internalType": "uint8",
          "name": "",
          "type": "uint8"
        }
      ],
      "stateMutability": "view",
      "type": "function"
    },
    {
      "inputs": [],
      "name": "internalStatesOrchestrator",
      "outputs": [
        {
          "internalType": "address",
          "name": "",
          "type": "address"
        }
      ],
      "stateMutability": "view",
      "type": "function"
    },
    {
      "inputs": [
        {
          "internalType": "address",
          "name": "vault",
          "type": "address"
        }
      ],
      "name": "isOrionVault",
      "outputs": [
        {
          "internalType": "bool",
          "name": "",
          "type": "bool"
        }
      ],
      "stateMutability": "view",
      "type": "function"
    },
    {
      "inputs": [],
      "name": "isSystemIdle",
      "outputs": [
        {
          "internalType": "bool",
          "name": "",
          "type": "bool"
        }
      ],
      "stateMutability": "view",
      "type": "function"
    },
    {
      "inputs": [
        {
          "internalType": "address",
          "name": "asset",
          "type": "address"
        }
      ],
      "name": "isWhitelisted",
      "outputs": [
        {
          "internalType": "bool",
          "name": "",
          "type": "bool"
        }
      ],
      "stateMutability": "view",
      "type": "function"
    },
    {
      "inputs": [
        {
          "internalType": "address",
          "name": "vaultOwner",
          "type": "address"
        }
      ],
      "name": "isWhitelistedVaultOwner",
      "outputs": [
        {
          "internalType": "bool",
          "name": "",
          "type": "bool"
        }
      ],
      "stateMutability": "view",
      "type": "function"
    },
    {
      "inputs": [],
      "name": "liquidityOrchestrator",
      "outputs": [
        {
          "internalType": "address",
          "name": "",
          "type": "address"
        }
      ],
      "stateMutability": "view",
      "type": "function"
    },
    {
      "inputs": [],
      "name": "owner",
      "outputs": [
        {
          "internalType": "address",
          "name": "",
          "type": "address"
        }
      ],
      "stateMutability": "view",
      "type": "function"
    },
    {
      "inputs": [],
      "name": "priceAdapterDecimals",
      "outputs": [
        {
          "internalType": "uint8",
          "name": "",
          "type": "uint8"
        }
      ],
      "stateMutability": "view",
      "type": "function"
    },
    {
      "inputs": [],
      "name": "priceAdapterRegistry",
      "outputs": [
        {
          "internalType": "address",
          "name": "",
          "type": "address"
        }
      ],
      "stateMutability": "view",
      "type": "function"
    },
    {
      "inputs": [
        {
          "internalType": "address",
          "name": "vault",
          "type": "address"
        },
        {
          "internalType": "enum EventsLib.VaultType",
          "name": "vaultType",
          "type": "uint8"
        }
      ],
      "name": "removeOrionVault",
      "outputs": [],
      "stateMutability": "nonpayable",
      "type": "function"
    },
    {
      "inputs": [
        {
          "internalType": "address",
          "name": "asset",
          "type": "address"
        }
      ],
      "name": "removeWhitelistedAsset",
      "outputs": [],
      "stateMutability": "nonpayable",
      "type": "function"
    },
    {
      "inputs": [],
      "name": "renounceOwnership",
      "outputs": [],
      "stateMutability": "nonpayable",
      "type": "function"
    },
    {
      "inputs": [],
      "name": "riskFreeRate",
      "outputs": [
        {
          "internalType": "uint16",
          "name": "",
          "type": "uint16"
        }
      ],
      "stateMutability": "view",
      "type": "function"
    },
    {
      "inputs": [
        {
          "internalType": "address",
          "name": "orchestrator",
          "type": "address"
        }
      ],
      "name": "setInternalStatesOrchestrator",
      "outputs": [],
      "stateMutability": "nonpayable",
      "type": "function"
    },
    {
      "inputs": [
        {
          "internalType": "address",
          "name": "orchestrator",
          "type": "address"
        }
      ],
      "name": "setLiquidityOrchestrator",
      "outputs": [],
      "stateMutability": "nonpayable",
      "type": "function"
    },
    {
      "inputs": [
        {
          "internalType": "address",
          "name": "registry",
          "type": "address"
        }
      ],
      "name": "setPriceAdapterRegistry",
      "outputs": [],
      "stateMutability": "nonpayable",
      "type": "function"
    },
    {
      "inputs": [
        {
          "internalType": "uint16",
          "name": "_riskFreeRate",
          "type": "uint16"
        }
      ],
      "name": "setProtocolRiskFreeRate",
      "outputs": [],
      "stateMutability": "nonpayable",
      "type": "function"
    },
    {
      "inputs": [
        {
          "internalType": "address",
          "name": "transparentFactory",
          "type": "address"
        },
        {
          "internalType": "address",
          "name": "encryptedFactory",
          "type": "address"
        }
      ],
      "name": "setVaultFactories",
      "outputs": [],
      "stateMutability": "nonpayable",
      "type": "function"
    },
    {
      "inputs": [
        {
          "internalType": "address",
          "name": "",
          "type": "address"
        }
      ],
      "name": "tokenDecimals",
      "outputs": [
        {
          "internalType": "uint8",
          "name": "",
          "type": "uint8"
        }
      ],
      "stateMutability": "view",
      "type": "function"
    },
    {
      "inputs": [
        {
          "internalType": "address",
          "name": "newOwner",
          "type": "address"
        }
      ],
      "name": "transferOwnership",
      "outputs": [],
      "stateMutability": "nonpayable",
      "type": "function"
    },
    {
      "inputs": [],
      "name": "transparentVaultFactory",
      "outputs": [
        {
          "internalType": "address",
          "name": "",
          "type": "address"
        }
      ],
      "stateMutability": "view",
      "type": "function"
    },
    {
      "inputs": [],
      "name": "underlyingAsset",
      "outputs": [
        {
          "internalType": "contract IERC20",
          "name": "",
          "type": "address"
        }
      ],
      "stateMutability": "view",
      "type": "function"
    },
    {
      "inputs": [],
      "name": "whitelistedAssetsLength",
      "outputs": [
        {
          "internalType": "uint16",
          "name": "",
          "type": "uint16"
        }
      ],
      "stateMutability": "view",
      "type": "function"
    }
  ],
  "bytecode": "0x608060405234801561000f575f5ffd5b506040516116ce3803806116ce83398101604081905261002e91610238565b816001600160a01b03811661005c57604051631e4fbdf760e01b81525f600482015260240160405180910390fd5b61006581610165565b506001600160a01b03811661008d5760405163d92e233d60e01b815260040160405180910390fd5b600180546001600160a01b0319166001600160a01b0383169081179091556006805461ffff60a01b1916610e0960a01b1790556040805163313ce56760e01b8152905163313ce567916004808201926020929091908290030181865afa1580156100f9573d5f5f3e3d5ffd5b505050506040513d601f19601f8201168201806040525081019061011d9190610269565b6001600160a01b0382165f908152600b60205260409020805460ff191660ff929092169190911790556101516007826101b4565b5061015d6009836101b4565b505050610290565b5f80546001600160a01b038381166001600160a01b0319831681178455604051919092169283917f8be0079c531659141344cd1fd0a4f28419497f9722a3daafe3b4186f6b6457e09190a35050565b5f6101c8836001600160a01b0384166101d1565b90505b92915050565b5f81815260018301602052604081205461021657508154600181810184555f8481526020808220909301849055845484825282860190935260409020919091556101cb565b505f6101cb565b80516001600160a01b0381168114610233575f5ffd5b919050565b5f5f60408385031215610249575f5ffd5b6102528361021d565b91506102606020840161021d565b90509250929050565b5f60208284031215610279575f5ffd5b815160ff81168114610289575f5ffd5b9392505050565b6114318061029d5f395ff3fe608060405234801561000f575f5ffd5b5060043610610173575f3560e01c8063015df993146101775780630a8b78c7146101a05780631dbc3c04146101b55780632095b01e146101c857806323a06a1c146101db578063348ec5c8146101ee5780633a0dad8e146102015780633af32abf1461021457806355fba94e14610237578063567ba7131461024a5780635f2483681461027057806366e87e7f1461028b578063715018a61461029e5780637158da7c146102a6578063785c7cf6146102b95780637a0cb784146102e4578063849ede23146102f75780638771de871461030a5780638da5cb5b1461031d5780638ee573ac1461032557806391a848f314610347578063a51b8d5a1461035a578063b6dfcd8b1461036d578063c30dd72714610380578063d1717c7d14610393578063d86cd44e146103a7578063e0876b44146103bc578063ed04f218146103cf578063edcf9c1f146103e2578063f2fde38b146103ea578063f3cc6993146103fd575b5f5ffd5b60065461018a906001600160a01b031681565b60405161019791906111a2565b60405180910390f35b6101b36101ae3660046111d1565b610412565b005b6101b36101c33660046111f8565b61048d565b6101b36101d63660046111d1565b61054a565b6101b36101e9366004611229565b6105c5565b60025461018a906001600160a01b031681565b60035461018a906001600160a01b031681565b6102276102223660046111d1565b610798565b6040519015158152602001610197565b6101b36102453660046111d1565b6107aa565b60065461025e90600160a81b900460ff1681565b60405160ff9091168152602001610197565b6102786107e2565b60405161ffff9091168152602001610197565b6101b3610299366004611269565b6107f2565b6101b361086f565b60015461018a906001600160a01b031681565b61025e6102c73660046111d1565b6001600160a01b03165f908152600b602052604090205460ff1690565b6101b36102f23660046111f8565b610882565b60045461018a906001600160a01b031681565b6102276103183660046111d1565b61097d565b61018a610989565b61025e6103333660046111d1565b600b6020525f908152604090205460ff1681565b60055461018a906001600160a01b031681565b6101b361036836600461128a565b610997565b6101b361037b3660046111d1565b610a81565b6101b361038e3660046111d1565b610bee565b60065461025e90600160a01b900460ff1681565b6103af610c69565b60405161019791906112b2565b6102276103ca3660046111d1565b610d1c565b6103af6103dd3660046112fd565b610d39565b610227610e15565b6101b36103f83660046111d1565b610f26565b60065461027890600160b01b900461ffff1681565b61041a610f63565b6001600160a01b0381166104415760405163d92e233d60e01b815260040160405180910390fd5b6002546001600160a01b03161561046b57604051630ea075bf60e21b815260040160405180910390fd5b600280546001600160a01b0319166001600160a01b0392909216919091179055565b610495610f63565b61049d610e15565b6104ba576040516312aecd8160e01b815260040160405180910390fd5b5f60018260018111156104cf576104cf611316565b036104e6576104df600e84610f95565b90506104f4565b6104f1600c84610f95565b90505b8061051257604051631a27eac360e11b815260040160405180910390fd5b6040516001600160a01b038416907fe47da341e0fc63816c1254f1c35425f69460f49342668d11c984ea56762b00d4905f90a2505050565b610552610f63565b6001600160a01b0381166105795760405163d92e233d60e01b815260040160405180910390fd5b6006546001600160a01b0316156105a357604051630ea075bf60e21b815260040160405180910390fd5b600680546001600160a01b0319166001600160a01b0392909216919091179055565b6105cd610f63565b6105d5610e15565b6105f2576040516312aecd8160e01b815260040160405180910390fd5b5f6105fe600785610fb0565b90508061061e57604051630ea075bf60e21b815260040160405180910390fd5b836001600160a01b031663313ce5676040518163ffffffff1660e01b8152600401602060405180830381865afa15801561065a573d5f5f3e3d5ffd5b505050506040513d601f19601f8201168201806040525081019061067e919061132a565b6001600160a01b038581165f908152600b602052604090819020805460ff191660ff949094169390931790925560065491516302707eef60e51b8152911690634e0fdde0906106d3908790879060040161134a565b5f604051808303815f87803b1580156106ea575f5ffd5b505af11580156106fc573d5f5f3e3d5ffd5b50506003546040516359017aa960e01b81526001600160a01b0390911692506359017aa99150610732908790869060040161134a565b5f604051808303815f87803b158015610749575f5ffd5b505af115801561075b573d5f5f3e3d5ffd5b50506040516001600160a01b03871692507fdcbd8d9d0373041250f6c25b6b7aeccb3e9ff291e510ef85bb9f8ac09ceb6f6491505f90a250505050565b5f6107a4600783610fc4565b92915050565b6107b2610f63565b5f6107be600983610fb0565b9050806107de57604051630ea075bf60e21b815260040160405180910390fd5b5050565b5f6107ed6007610fd8565b905090565b6107fa610f63565b610802610e15565b61081f576040516312aecd8160e01b815260040160405180910390fd5b6006805461ffff60b01b1916600160b01b61ffff84811682029290921792839055604051920416907f6c0e50288cc602be5dd504ce35358e01341e3c4f93e2e02b5a030a59bfdb84e2905f90a250565b610877610f63565b6108805f610fe1565b565b6004546001600160a01b031633148015906108a857506005546001600160a01b03163314155b156108c657604051631a27eac360e11b815260040160405180910390fd5b6001600160a01b0382166108ed5760405163d92e233d60e01b815260040160405180910390fd5b5f600182600181111561090257610902611316565b0361091957610912600e84610fb0565b9050610927565b610924600c84610fb0565b90505b8061094557604051630ea075bf60e21b815260040160405180910390fd5b6040516001600160a01b038416907f9a7094a648c0524f3d62b9167886d30be0e68cf53863fe556edda348f189445a905f90a2505050565b5f6107a4600983610fc4565b5f546001600160a01b031690565b61099f610f63565b6109a7610e15565b6109c4576040516312aecd8160e01b815260040160405180910390fd5b6001600160a01b0382166109eb5760405163d92e233d60e01b815260040160405180910390fd5b6001600160a01b038116610a125760405163d92e233d60e01b815260040160405180910390fd5b6004546001600160a01b0316151580610a3557506005546001600160a01b031615155b15610a5357604051630ea075bf60e21b815260040160405180910390fd5b600480546001600160a01b039384166001600160a01b03199182161790915560058054929093169116179055565b610a89610f63565b610a91610e15565b610aae576040516312aecd8160e01b815260040160405180910390fd5b5f610aba600783610f95565b905080610ae5578160405163751dff9760e11b8152600401610adc91906111a2565b60405180910390fd5b6001600160a01b038083165f908152600b602052604090819020805460ff191690556006549051634386017560e01b8152911690634386017590610b2d9085906004016111a2565b5f604051808303815f87803b158015610b44575f5ffd5b505af1158015610b56573d5f5f3e3d5ffd5b505060035460405163841181ef60e01b81526001600160a01b03909116925063841181ef9150610b8a9085906004016111a2565b5f604051808303815f87803b158015610ba1575f5ffd5b505af1158015610bb3573d5f5f3e3d5ffd5b50506040516001600160a01b03851692507f952363a786fc6f24cfb955cd6207cf91ecee3a82a7dd0bc26891ff7647b5784c91505f90a25050565b610bf6610f63565b6001600160a01b038116610c1d5760405163d92e233d60e01b815260040160405180910390fd5b6003546001600160a01b031615610c4757604051630ea075bf60e21b815260040160405180910390fd5b600380546001600160a01b0319166001600160a01b0392909216919091179055565b60605f610c766007610fd8565b90508061ffff166001600160401b03811115610c9457610c94611364565b604051908082528060200260200182016040528015610cbd578160200160208202803683370190505b5091505f5b8161ffff168161ffff161015610d1757610ce1600761ffff8316611030565b838261ffff1681518110610cf757610cf7611378565b6001600160a01b0390921660209283029190910190910152600101610cc2565b505090565b5f610d28600e83610fc4565b806107a457506107a4600c83610fc4565b60605f6001836001811115610d5057610d50611316565b14610d5c57600c610d5f565b600e5b90505f610d6b82610fd8565b90505f8161ffff166001600160401b03811115610d8a57610d8a611364565b604051908082528060200260200182016040528015610db3578160200160208202803683370190505b5090505f5b8261ffff168161ffff161015610e0c57610dd68461ffff8316611030565b828261ffff1681518110610dec57610dec611378565b6001600160a01b0390921660209283029190910190910152600101610db8565b50949350505050565b5f8060035f9054906101000a90046001600160a01b03166001600160a01b031663055ad42e6040518163ffffffff1660e01b8152600401602060405180830381865afa158015610e67573d5f5f3e3d5ffd5b505050506040513d601f19601f82011682018060405250810190610e8b919061138c565b6003811115610e9c57610e9c611316565b1480156107ed5750600254604080516302ad6a1760e11b815290515f926001600160a01b03169163055ad42e9160048083019260209291908290030181865afa158015610eeb573d5f5f3e3d5ffd5b505050506040513d601f19601f82011682018060405250810190610f0f91906113aa565b6007811115610f2057610f20611316565b14905090565b610f2e610f63565b6001600160a01b038116610f57575f604051631e4fbdf760e01b8152600401610adc91906111a2565b610f6081610fe1565b50565b33610f6c610989565b6001600160a01b031614610880573360405163118cdaa760e01b8152600401610adc91906111a2565b5f610fa9836001600160a01b03841661103b565b9392505050565b5f610fa9836001600160a01b03841661111e565b5f610fa9836001600160a01b038416611165565b5f6107a4825490565b5f80546001600160a01b038381166001600160a01b0319831681178455604051919092169283917f8be0079c531659141344cd1fd0a4f28419497f9722a3daafe3b4186f6b6457e09190a35050565b5f610fa9838361117c565b5f8181526001830160205260408120548015611115575f61105d6001836113c8565b85549091505f90611070906001906113c8565b90508082146110cf575f865f01828154811061108e5761108e611378565b905f5260205f200154905080875f0184815481106110ae576110ae611378565b5f918252602080832090910192909255918252600188019052604090208390555b85548690806110e0576110e06113e7565b600190038181905f5260205f20015f90559055856001015f8681526020019081526020015f205f9055600193505050506107a4565b5f9150506107a4565b5f6111298383611165565b61115e57508154600181810184555f8481526020808220909301849055845484825282860190935260409020919091556107a4565b505f6107a4565b5f9081526001919091016020526040902054151590565b5f825f01828154811061119157611191611378565b905f5260205f200154905092915050565b6001600160a01b0391909116815260200190565b80356001600160a01b03811681146111cc575f5ffd5b919050565b5f602082840312156111e1575f5ffd5b610fa9826111b6565b8035600281106111cc575f5ffd5b5f5f60408385031215611209575f5ffd5b611212836111b6565b9150611220602084016111ea565b90509250929050565b5f5f5f6060848603121561123b575f5ffd5b611244846111b6565b9250611252602085016111b6565b9150611260604085016111b6565b90509250925092565b5f60208284031215611279575f5ffd5b813561ffff81168114610fa9575f5ffd5b5f5f6040838503121561129b575f5ffd5b6112a4836111b6565b9150611220602084016111b6565b602080825282518282018190525f918401906040840190835b818110156112f25783516001600160a01b03168352602093840193909201916001016112cb565b509095945050505050565b5f6020828403121561130d575f5ffd5b610fa9826111ea565b634e487b7160e01b5f52602160045260245ffd5b5f6020828403121561133a575f5ffd5b815160ff81168114610fa9575f5ffd5b6001600160a01b0392831681529116602082015260400190565b634e487b7160e01b5f52604160045260245ffd5b634e487b7160e01b5f52603260045260245ffd5b5f6020828403121561139c575f5ffd5b815160048110610fa9575f5ffd5b5f602082840312156113ba575f5ffd5b815160088110610fa9575f5ffd5b818103818111156107a457634e487b7160e01b5f52601160045260245ffd5b634e487b7160e01b5f52603160045260245ffdfea26469706673582212208cfe112ff51b28e0e2a314278d3bf818b497b4e868d2ca2cc1f32435b459873d64736f6c634300081c0033",
  "linkReferences": {},
  "deployedLinkReferences": {}
}