{
  "_format": "hh-sol-artifact-1",
  "contractName": "OrionConfig",
  "sourceName": "contracts/OrionConfig.sol",
  "abi": [
    {
      "inputs": [
        {
          "internalType": "address",
          "name": "target",
          "type": "address"
        }
      ],
      "name": "AddressEmptyCode",
      "type": "error"
    },
    {
      "inputs": [],
      "name": "AlreadyAnOrionVault",
      "type": "error"
    },
    {
      "inputs": [],
      "name": "AlreadyWhitelisted",
      "type": "error"
    },
    {
      "inputs": [
        {
          "internalType": "address",
          "name": "implementation",
          "type": "address"
        }
      ],
      "name": "ERC1967InvalidImplementation",
      "type": "error"
    },
    {
      "inputs": [],
      "name": "ERC1967NonPayable",
      "type": "error"
    },
    {
      "inputs": [],
      "name": "FailedCall",
      "type": "error"
    },
    {
      "inputs": [],
      "name": "InvalidInitialization",
      "type": "error"
    },
    {
      "inputs": [],
      "name": "InvalidStatesDecimals",
      "type": "error"
    },
    {
      "inputs": [],
      "name": "NotAnOrionVault",
      "type": "error"
    },
    {
      "inputs": [],
      "name": "NotFactory",
      "type": "error"
    },
    {
      "inputs": [],
      "name": "NotInitializing",
      "type": "error"
    },
    {
      "inputs": [
        {
          "internalType": "address",
          "name": "owner",
          "type": "address"
        }
      ],
      "name": "OwnableInvalidOwner",
      "type": "error"
    },
    {
      "inputs": [
        {
          "internalType": "address",
          "name": "account",
          "type": "address"
        }
      ],
      "name": "OwnableUnauthorizedAccount",
      "type": "error"
    },
    {
      "inputs": [
        {
          "internalType": "address",
          "name": "token",
          "type": "address"
        }
      ],
      "name": "TokenNotWhitelisted",
      "type": "error"
    },
    {
      "inputs": [],
      "name": "UUPSUnauthorizedCallContext",
      "type": "error"
    },
    {
      "inputs": [
        {
          "internalType": "bytes32",
          "name": "slot",
          "type": "bytes32"
        }
      ],
      "name": "UUPSUnsupportedProxiableUUID",
      "type": "error"
    },
    {
      "inputs": [],
      "name": "ZeroAddress",
      "type": "error"
    },
    {
      "anonymous": false,
      "inputs": [
        {
          "indexed": false,
          "internalType": "uint64",
          "name": "version",
          "type": "uint64"
        }
      ],
      "name": "Initialized",
      "type": "event"
    },
    {
      "anonymous": false,
      "inputs": [
        {
          "indexed": true,
          "internalType": "address",
          "name": "vault",
          "type": "address"
        }
      ],
      "name": "OrionVaultAdded",
      "type": "event"
    },
    {
      "anonymous": false,
      "inputs": [
        {
          "indexed": true,
          "internalType": "address",
          "name": "vault",
          "type": "address"
        }
      ],
      "name": "OrionVaultRemoved",
      "type": "event"
    },
    {
      "anonymous": false,
      "inputs": [
        {
          "indexed": true,
          "internalType": "address",
          "name": "previousOwner",
          "type": "address"
        },
        {
          "indexed": true,
          "internalType": "address",
          "name": "newOwner",
          "type": "address"
        }
      ],
      "name": "OwnershipTransferStarted",
      "type": "event"
    },
    {
      "anonymous": false,
      "inputs": [
        {
          "indexed": true,
          "internalType": "address",
          "name": "previousOwner",
          "type": "address"
        },
        {
          "indexed": true,
          "internalType": "address",
          "name": "newOwner",
          "type": "address"
        }
      ],
      "name": "OwnershipTransferred",
      "type": "event"
    },
    {
      "anonymous": false,
      "inputs": [],
      "name": "ProtocolParamsUpdated",
      "type": "event"
    },
    {
      "anonymous": false,
      "inputs": [
        {
          "indexed": true,
          "internalType": "address",
          "name": "implementation",
          "type": "address"
        }
      ],
      "name": "Upgraded",
      "type": "event"
    },
    {
      "anonymous": false,
      "inputs": [
        {
          "indexed": true,
          "internalType": "address",
          "name": "asset",
          "type": "address"
        }
      ],
      "name": "WhitelistedAssetAdded",
      "type": "event"
    },
    {
      "anonymous": false,
      "inputs": [
        {
          "indexed": true,
          "internalType": "address",
          "name": "asset",
          "type": "address"
        }
      ],
      "name": "WhitelistedAssetRemoved",
      "type": "event"
    },
    {
      "inputs": [],
      "name": "UPGRADE_INTERFACE_VERSION",
      "outputs": [
        {
          "internalType": "string",
          "name": "",
          "type": "string"
        }
      ],
      "stateMutability": "view",
      "type": "function"
    },
    {
      "inputs": [],
      "name": "acceptOwnership",
      "outputs": [],
      "stateMutability": "nonpayable",
      "type": "function"
    },
    {
      "inputs": [
        {
          "internalType": "address",
          "name": "vault",
          "type": "address"
        },
        {
          "internalType": "enum EventsLib.VaultType",
          "name": "vaultType",
          "type": "uint8"
        }
      ],
      "name": "addOrionVault",
      "outputs": [],
      "stateMutability": "nonpayable",
      "type": "function"
    },
    {
      "inputs": [
        {
          "internalType": "address",
          "name": "asset",
          "type": "address"
        }
      ],
      "name": "addWhitelistedAsset",
      "outputs": [],
      "stateMutability": "nonpayable",
      "type": "function"
    },
    {
      "inputs": [],
      "name": "curatorIntentDecimals",
      "outputs": [
        {
          "internalType": "uint8",
          "name": "",
          "type": "uint8"
        }
      ],
      "stateMutability": "view",
      "type": "function"
    },
    {
      "inputs": [
        {
          "internalType": "enum EventsLib.VaultType",
          "name": "vaultType",
          "type": "uint8"
        }
      ],
      "name": "getAllOrionVaults",
      "outputs": [
        {
          "internalType": "address[]",
          "name": "",
          "type": "address[]"
        }
      ],
      "stateMutability": "view",
      "type": "function"
    },
    {
      "inputs": [],
      "name": "getAllWhitelistedAssets",
      "outputs": [
        {
          "internalType": "address[]",
          "name": "assets",
          "type": "address[]"
        }
      ],
      "stateMutability": "view",
      "type": "function"
    },
    {
      "inputs": [
        {
          "internalType": "uint256",
          "name": "index",
          "type": "uint256"
        }
      ],
      "name": "getWhitelistedAssetAt",
      "outputs": [
        {
          "internalType": "address",
          "name": "",
          "type": "address"
        }
      ],
      "stateMutability": "view",
      "type": "function"
    },
    {
      "inputs": [
        {
          "internalType": "address",
          "name": "initialOwner",
          "type": "address"
        }
      ],
      "name": "initialize",
      "outputs": [],
      "stateMutability": "nonpayable",
      "type": "function"
    },
    {
      "inputs": [],
      "name": "internalStatesOrchestrator",
      "outputs": [
        {
          "internalType": "address",
          "name": "",
          "type": "address"
        }
      ],
      "stateMutability": "view",
      "type": "function"
    },
    {
      "inputs": [
        {
          "internalType": "address",
          "name": "asset",
          "type": "address"
        }
      ],
      "name": "isWhitelisted",
      "outputs": [
        {
          "internalType": "bool",
          "name": "",
          "type": "bool"
        }
      ],
      "stateMutability": "view",
      "type": "function"
    },
    {
      "inputs": [],
      "name": "liquidityOrchestrator",
      "outputs": [
        {
          "internalType": "address",
          "name": "",
          "type": "address"
        }
      ],
      "stateMutability": "view",
      "type": "function"
    },
    {
      "inputs": [],
      "name": "oracleRegistry",
      "outputs": [
        {
          "internalType": "address",
          "name": "",
          "type": "address"
        }
      ],
      "stateMutability": "view",
      "type": "function"
    },
    {
      "inputs": [],
      "name": "owner",
      "outputs": [
        {
          "internalType": "address",
          "name": "",
          "type": "address"
        }
      ],
      "stateMutability": "view",
      "type": "function"
    },
    {
      "inputs": [],
      "name": "pendingOwner",
      "outputs": [
        {
          "internalType": "address",
          "name": "",
          "type": "address"
        }
      ],
      "stateMutability": "view",
      "type": "function"
    },
    {
      "inputs": [],
      "name": "proxiableUUID",
      "outputs": [
        {
          "internalType": "bytes32",
          "name": "",
          "type": "bytes32"
        }
      ],
      "stateMutability": "view",
      "type": "function"
    },
    {
      "inputs": [],
      "name": "rebalancingEngine",
      "outputs": [
        {
          "internalType": "address",
          "name": "",
          "type": "address"
        }
      ],
      "stateMutability": "view",
      "type": "function"
    },
    {
      "inputs": [
        {
          "internalType": "address",
          "name": "vault",
          "type": "address"
        },
        {
          "internalType": "enum EventsLib.VaultType",
          "name": "vaultType",
          "type": "uint8"
        }
      ],
      "name": "removeOrionVault",
      "outputs": [],
      "stateMutability": "nonpayable",
      "type": "function"
    },
    {
      "inputs": [
        {
          "internalType": "address",
          "name": "asset",
          "type": "address"
        }
      ],
      "name": "removeWhitelistedAsset",
      "outputs": [],
      "stateMutability": "nonpayable",
      "type": "function"
    },
    {
      "inputs": [],
      "name": "renounceOwnership",
      "outputs": [],
      "stateMutability": "nonpayable",
      "type": "function"
    },
    {
      "inputs": [
        {
          "internalType": "address",
          "name": "underlyingAsset_",
          "type": "address"
        },
        {
          "internalType": "address",
          "name": "internalStatesOrchestrator_",
          "type": "address"
        },
        {
          "internalType": "address",
          "name": "liquidityOrchestrator_",
          "type": "address"
        },
        {
          "internalType": "address",
          "name": "rebalancingEngine_",
          "type": "address"
        },
        {
          "internalType": "uint8",
          "name": "statesDecimals_",
          "type": "uint8"
        },
        {
          "internalType": "uint8",
          "name": "curatorIntentDecimals_",
          "type": "uint8"
        },
        {
          "internalType": "address",
          "name": "factory_",
          "type": "address"
        },
        {
          "internalType": "address",
          "name": "oracleRegistry_",
          "type": "address"
        }
      ],
      "name": "setProtocolParams",
      "outputs": [],
      "stateMutability": "nonpayable",
      "type": "function"
    },
    {
      "inputs": [],
      "name": "statesDecimals",
      "outputs": [
        {
          "internalType": "uint8",
          "name": "",
          "type": "uint8"
        }
      ],
      "stateMutability": "view",
      "type": "function"
    },
    {
      "inputs": [
        {
          "internalType": "address",
          "name": "newOwner",
          "type": "address"
        }
      ],
      "name": "transferOwnership",
      "outputs": [],
      "stateMutability": "nonpayable",
      "type": "function"
    },
    {
      "inputs": [],
      "name": "underlyingAsset",
      "outputs": [
        {
          "internalType": "contract IERC20",
          "name": "",
          "type": "address"
        }
      ],
      "stateMutability": "view",
      "type": "function"
    },
    {
      "inputs": [
        {
          "internalType": "address",
          "name": "newImplementation",
          "type": "address"
        },
        {
          "internalType": "bytes",
          "name": "data",
          "type": "bytes"
        }
      ],
      "name": "upgradeToAndCall",
      "outputs": [],
      "stateMutability": "payable",
      "type": "function"
    },
    {
      "inputs": [],
      "name": "vaultFactory",
      "outputs": [
        {
          "internalType": "address",
          "name": "",
          "type": "address"
        }
      ],
      "stateMutability": "view",
      "type": "function"
    },
    {
      "inputs": [],
      "name": "whitelistedAssetsLength",
      "outputs": [
        {
          "internalType": "uint256",
          "name": "",
          "type": "uint256"
        }
      ],
      "stateMutability": "view",
      "type": "function"
    }
  ],
  "bytecode": "0x60a0604052306080523480156012575f5ffd5b506080516118426100395f395f8181610e6701528181610e900152610fd401526118425ff3fe608060405260043610610195575f3560e01c806379ba5097116100e7578063c4d66de811610087578063d8a06f7311610062578063d8a06f731461048f578063e30c3978146104ae578063ed04f218146104c2578063f2fde38b146104e1575f5ffd5b8063c4d66de81461042f578063d1717c7d1461044e578063d86cd44e1461046e575f5ffd5b8063ad3cb1cc116100c2578063ad3cb1cc14610382578063b6dfcd8b146103bf578063b71ee4fc146103de578063bfba8f6614610410575f5ffd5b806379ba50971461033b5780637a0cb7841461034f5780638da5cb5b1461036e575f5ffd5b80633af32abf1161015257806352d1902d1161012d57806352d1902d146102d35780635f248368146102f5578063715018a6146103095780637158da7c1461031d575f5ffd5b80633af32abf146102725780634bb93ab1146102a15780634f1ef286146102c0575f5ffd5b8063029af3b5146101995780630a567a2d146101ba5780631dbc3c04146101f65780632350c64a14610215578063348ec5c8146102345780633a0dad8e14610253575b5f5ffd5b3480156101a4575f5ffd5b506101b86101b33660046114d3565b610500565b005b3480156101c5575f5ffd5b506101d96101d4366004611569565b61074a565b6040516001600160a01b0390911681526020015b60405180910390f35b348015610201575f5ffd5b506101b861021036600461158e565b61075c565b348015610220575f5ffd5b506003546101d9906001600160a01b031681565b34801561023f575f5ffd5b506001546101d9906001600160a01b031681565b34801561025e575f5ffd5b506002546101d9906001600160a01b031681565b34801561027d575f5ffd5b5061029161028c3660046115bf565b610817565b60405190151581526020016101ed565b3480156102ac575f5ffd5b506005546101d9906001600160a01b031681565b6101b86102ce3660046115ec565b610823565b3480156102de575f5ffd5b506102e7610842565b6040519081526020016101ed565b348015610300575f5ffd5b506102e761085d565b348015610314575f5ffd5b506101b861086d565b348015610328575f5ffd5b505f546101d9906001600160a01b031681565b348015610346575f5ffd5b506101b8610880565b34801561035a575f5ffd5b506101b861036936600461158e565b6108cd565b348015610379575f5ffd5b506101d96109af565b34801561038d575f5ffd5b506103b2604051806040016040528060058152602001640352e302e360dc1b81525081565b6040516101ed91906116b0565b3480156103ca575f5ffd5b506101b86103d93660046115bf565b6109e3565b3480156103e9575f5ffd5b506005546103fe90600160a01b900460ff1681565b60405160ff90911681526020016101ed565b34801561041b575f5ffd5b506101b861042a3660046115bf565b610a59565b34801561043a575f5ffd5b506101b86104493660046115bf565b610ac4565b348015610459575f5ffd5b506005546103fe90600160a81b900460ff1681565b348015610479575f5ffd5b50610482610bcd565b6040516101ed91906116e5565b34801561049a575f5ffd5b506004546101d9906001600160a01b031681565b3480156104b9575f5ffd5b506101d9610c6d565b3480156104cd575f5ffd5b506104826104dc366004611730565b610c95565b3480156104ec575f5ffd5b506101b86104fb3660046115bf565b610d5e565b610508610de3565b6001600160a01b03881661052f5760405163d92e233d60e01b815260040160405180910390fd5b6001600160a01b0387166105565760405163d92e233d60e01b815260040160405180910390fd5b6001600160a01b03861661057d5760405163d92e233d60e01b815260040160405180910390fd5b6001600160a01b0385166105a45760405163d92e233d60e01b815260040160405180910390fd5b6001600160a01b0382166105cb5760405163d92e233d60e01b815260040160405180910390fd5b6001600160a01b0381166105f25760405163d92e233d60e01b815260040160405180910390fd5b5f80546001600160a01b03199081166001600160a01b038b811691821784556001805484168c83161790556002805484168b831617905560038054909316908916179091556040805163313ce56760e01b8152905163313ce567916004808201926020929091908290030181865afa158015610670573d5f5f3e3d5ffd5b505050506040513d601f19601f820116820180604052508101906106949190611749565b90508060ff168560ff1610156106bd5760405163225dd91960e21b815260040160405180910390fd5b60058054600480546001600160a01b038088166001600160a01b03199283161790925590851660ff888116600160a81b0260ff60a81b19918b16600160a01b029190911661ffff60a01b199094169390931792909217161790556040517fc56626e36ca25ee9a19c58d2d4f9a4569523b059e6aaeb263573ded93fc33c5a905f90a1505050505050505050565b5f610756600683610e15565b92915050565b6004546001600160a01b0316331461078757604051631966391b60e11b815260040160405180910390fd5b5f600182600181111561079c5761079c611764565b036107b3576107ac600a84610e27565b90506107c1565b6107be600884610e27565b90505b806107df57604051632fa1facb60e01b815260040160405180910390fd5b6040516001600160a01b038416907fe47da341e0fc63816c1254f1c35425f69460f49342668d11c984ea56762b00d4905f90a2505050565b5f610756600683610e3b565b61082b610e5c565b61083482610f00565b61083e8282610f08565b5050565b5f61084b610fc9565b505f5160206117ed5f395f51905f5290565b5f6108686006611012565b905090565b610875610de3565b61087e5f61101b565b565b338061088a610c6d565b6001600160a01b0316146108c15760405163118cdaa760e01b81526001600160a01b03821660048201526024015b60405180910390fd5b6108ca8161101b565b50565b6004546001600160a01b031633146108f857604051631966391b60e11b815260040160405180910390fd5b6001600160a01b03821661091f5760405163d92e233d60e01b815260040160405180910390fd5b5f600182600181111561093457610934611764565b0361094b57610944600a84611053565b9050610959565b610956600884611053565b90505b8061097757604051633c0c06e960e21b815260040160405180910390fd5b6040516001600160a01b038416907f9a7094a648c0524f3d62b9167886d30be0e68cf53863fe556edda348f189445a905f90a2505050565b5f807f9016d09d72d40fdae2fd8ceac6b6234c7706214fd39c1cd1e609a0528c1993005b546001600160a01b031692915050565b6109eb610de3565b5f6109f7600683610e27565b905080610a225760405163751dff9760e11b81526001600160a01b03831660048201526024016108b8565b6040516001600160a01b038316907f952363a786fc6f24cfb955cd6207cf91ecee3a82a7dd0bc26891ff7647b5784c905f90a25050565b610a61610de3565b5f610a6d600683611053565b905080610a8d5760405163b73e95e160e01b815260040160405180910390fd5b6040516001600160a01b038316907fdcbd8d9d0373041250f6c25b6b7aeccb3e9ff291e510ef85bb9f8ac09ceb6f64905f90a25050565b5f610acd611067565b805490915060ff600160401b820416159067ffffffffffffffff165f81158015610af45750825b90505f8267ffffffffffffffff166001148015610b105750303b155b905081158015610b1e575080155b15610b3c5760405163f92ee8a960e01b815260040160405180910390fd5b845467ffffffffffffffff191660011785558315610b6657845460ff60401b1916600160401b1785555b610b6f8661108f565b610b776110a0565b610b7f6110a0565b8315610bc557845460ff60401b19168555604051600181527fc7f505b2f371ae2175ee4913f4499e1f2633a7b5936321eed1cdaeb6115181d29060200160405180910390a15b505050505050565b60605f610bda6006611012565b90508067ffffffffffffffff811115610bf557610bf56115d8565b604051908082528060200260200182016040528015610c1e578160200160208202803683370190505b5091505f5b81811015610c6857610c36600682610e15565b838281518110610c4857610c48611778565b6001600160a01b0390921660209283029190910190910152600101610c23565b505090565b5f807f237e158222e3e6968b72b9db0d8043aacf074ad9f650f0d1606b4d82ee432c006109d3565b60605f6001836001811115610cac57610cac611764565b14610cb8576008610cbb565b600a5b90505f610cc782611012565b90505f8167ffffffffffffffff811115610ce357610ce36115d8565b604051908082528060200260200182016040528015610d0c578160200160208202803683370190505b5090505f5b82811015610d5557610d238482610e15565b828281518110610d3557610d35611778565b6001600160a01b0390921660209283029190910190910152600101610d11565b50949350505050565b610d66610de3565b7f237e158222e3e6968b72b9db0d8043aacf074ad9f650f0d1606b4d82ee432c0080546001600160a01b0319166001600160a01b0383169081178255610daa6109af565b6001600160a01b03167f38d16b8cac22d99fc7c124b9cd0de2d3fa1faef420bfe791d8c362d765e2270060405160405180910390a35050565b33610dec6109af565b6001600160a01b03161461087e5760405163118cdaa760e01b81523360048201526024016108b8565b5f610e2083836110a8565b9392505050565b5f610e20836001600160a01b0384166110ce565b6001600160a01b0381165f9081526001830160205260408120541515610e20565b306001600160a01b037f0000000000000000000000000000000000000000000000000000000000000000161480610ee257507f00000000000000000000000000000000000000000000000000000000000000006001600160a01b0316610ed65f5160206117ed5f395f51905f52546001600160a01b031690565b6001600160a01b031614155b1561087e5760405163703e46dd60e11b815260040160405180910390fd5b6108ca610de3565b816001600160a01b03166352d1902d6040518163ffffffff1660e01b8152600401602060405180830381865afa925050508015610f62575060408051601f3d908101601f19168201909252610f5f9181019061178c565b60015b610f8a57604051634c9c8ce360e01b81526001600160a01b03831660048201526024016108b8565b5f5160206117ed5f395f51905f528114610fba57604051632a87526960e21b8152600481018290526024016108b8565b610fc483836111b1565b505050565b306001600160a01b037f0000000000000000000000000000000000000000000000000000000000000000161461087e5760405163703e46dd60e11b815260040160405180910390fd5b5f610756825490565b7f237e158222e3e6968b72b9db0d8043aacf074ad9f650f0d1606b4d82ee432c0080546001600160a01b031916815561083e82611206565b5f610e20836001600160a01b038416611276565b5f807ff0c57e16840df040f15088dc2f81fe391c3923bec73e23a9662efc9c229c6a00610756565b6110976112c2565b6108ca816112e7565b61087e6112c2565b5f825f0182815481106110bd576110bd611778565b905f5260205f200154905092915050565b5f81815260018301602052604081205480156111a8575f6110f06001836117a3565b85549091505f90611103906001906117a3565b9050808214611162575f865f01828154811061112157611121611778565b905f5260205f200154905080875f01848154811061114157611141611778565b5f918252602080832090910192909255918252600188019052604090208390555b8554869080611173576111736117c2565b600190038181905f5260205f20015f90559055856001015f8681526020019081526020015f205f905560019350505050610756565b5f915050610756565b6111ba82611318565b6040516001600160a01b038316907fbc7cd75a20ee27fd9adebab32041f755214dbc6bffa90cc0225b39da2e5c2d3b905f90a28051156111fe57610fc4828261137b565b61083e6113ed565b7f9016d09d72d40fdae2fd8ceac6b6234c7706214fd39c1cd1e609a0528c19930080546001600160a01b031981166001600160a01b03848116918217845560405192169182907f8be0079c531659141344cd1fd0a4f28419497f9722a3daafe3b4186f6b6457e0905f90a3505050565b5f8181526001830160205260408120546112bb57508154600181810184555f848152602080822090930184905584548482528286019093526040902091909155610756565b505f610756565b6112ca61140c565b61087e57604051631afcd79f60e31b815260040160405180910390fd5b6112ef6112c2565b6001600160a01b0381166108c157604051631e4fbdf760e01b81525f60048201526024016108b8565b806001600160a01b03163b5f0361134d57604051634c9c8ce360e01b81526001600160a01b03821660048201526024016108b8565b5f5160206117ed5f395f51905f5280546001600160a01b0319166001600160a01b0392909216919091179055565b60605f5f846001600160a01b03168460405161139791906117d6565b5f60405180830381855af49150503d805f81146113cf576040519150601f19603f3d011682016040523d82523d5f602084013e6113d4565b606091505b50915091506113e4858383611425565b95945050505050565b341561087e5760405163b398979f60e01b815260040160405180910390fd5b5f611415611067565b54600160401b900460ff16919050565b60608261143a5761143582611481565b610e20565b815115801561145157506001600160a01b0384163b155b1561147a57604051639996b31560e01b81526001600160a01b03851660048201526024016108b8565b5092915050565b8051156114915780518082602001fd5b60405163d6bda27560e01b815260040160405180910390fd5b80356001600160a01b03811681146114c0575f5ffd5b919050565b60ff811681146108ca575f5ffd5b5f5f5f5f5f5f5f5f610100898b0312156114eb575f5ffd5b6114f4896114aa565b975061150260208a016114aa565b965061151060408a016114aa565b955061151e60608a016114aa565b9450608089013561152e816114c5565b935060a089013561153e816114c5565b925061154c60c08a016114aa565b915061155a60e08a016114aa565b90509295985092959890939650565b5f60208284031215611579575f5ffd5b5035919050565b8035600281106114c0575f5ffd5b5f5f6040838503121561159f575f5ffd5b6115a8836114aa565b91506115b660208401611580565b90509250929050565b5f602082840312156115cf575f5ffd5b610e20826114aa565b634e487b7160e01b5f52604160045260245ffd5b5f5f604083850312156115fd575f5ffd5b611606836114aa565b9150602083013567ffffffffffffffff811115611621575f5ffd5b8301601f81018513611631575f5ffd5b803567ffffffffffffffff81111561164b5761164b6115d8565b604051601f8201601f19908116603f0116810167ffffffffffffffff8111828210171561167a5761167a6115d8565b604052818152828201602001871015611691575f5ffd5b816020840160208301375f602083830101528093505050509250929050565b602081525f82518060208401528060208501604085015e5f604082850101526040601f19601f83011684010191505092915050565b602080825282518282018190525f918401906040840190835b818110156117255783516001600160a01b03168352602093840193909201916001016116fe565b509095945050505050565b5f60208284031215611740575f5ffd5b610e2082611580565b5f60208284031215611759575f5ffd5b8151610e20816114c5565b634e487b7160e01b5f52602160045260245ffd5b634e487b7160e01b5f52603260045260245ffd5b5f6020828403121561179c575f5ffd5b5051919050565b8181038181111561075657634e487b7160e01b5f52601160045260245ffd5b634e487b7160e01b5f52603160045260245ffd5b5f82518060208501845e5f92019182525091905056fe360894a13ba1a3210667c828492db98dca3e2076cc3735a920a3ca505d382bbca2646970667358221220bc1832d555fcda0c68c731d60bc09d395c69cd7a2f45297b43e57e958826f3bf64736f6c634300081c0033",
  "linkReferences": {},
  "deployedLinkReferences": {}
}