{
  "_format": "hh-sol-artifact-1",
  "contractName": "OrionConfig",
  "sourceName": "contracts/OrionConfig.sol",
  "abi": [
    {
      "inputs": [],
      "stateMutability": "nonpayable",
      "type": "constructor"
    },
    {
      "inputs": [],
      "name": "AlreadyAnOrionVault",
      "type": "error"
    },
    {
      "inputs": [],
      "name": "AlreadyWhitelisted",
      "type": "error"
    },
    {
      "inputs": [],
      "name": "InvalidAsset",
      "type": "error"
    },
    {
      "inputs": [],
      "name": "InvalidInternalOrchestrator",
      "type": "error"
    },
    {
      "inputs": [],
      "name": "InvalidLiquidityOrchestrator",
      "type": "error"
    },
    {
      "inputs": [],
      "name": "InvalidPriceAndPnLOracle",
      "type": "error"
    },
    {
      "inputs": [],
      "name": "NotAnOrionVault",
      "type": "error"
    },
    {
      "inputs": [],
      "name": "NotFactory",
      "type": "error"
    },
    {
      "inputs": [],
      "name": "NotInWhitelist",
      "type": "error"
    },
    {
      "inputs": [
        {
          "internalType": "address",
          "name": "owner",
          "type": "address"
        }
      ],
      "name": "OwnableInvalidOwner",
      "type": "error"
    },
    {
      "inputs": [
        {
          "internalType": "address",
          "name": "account",
          "type": "address"
        }
      ],
      "name": "OwnableUnauthorizedAccount",
      "type": "error"
    },
    {
      "inputs": [],
      "name": "ZeroAddress",
      "type": "error"
    },
    {
      "anonymous": false,
      "inputs": [
        {
          "indexed": true,
          "internalType": "address",
          "name": "vault",
          "type": "address"
        }
      ],
      "name": "OrionVaultAdded",
      "type": "event"
    },
    {
      "anonymous": false,
      "inputs": [
        {
          "indexed": true,
          "internalType": "address",
          "name": "vault",
          "type": "address"
        }
      ],
      "name": "OrionVaultRemoved",
      "type": "event"
    },
    {
      "anonymous": false,
      "inputs": [
        {
          "indexed": true,
          "internalType": "address",
          "name": "previousOwner",
          "type": "address"
        },
        {
          "indexed": true,
          "internalType": "address",
          "name": "newOwner",
          "type": "address"
        }
      ],
      "name": "OwnershipTransferStarted",
      "type": "event"
    },
    {
      "anonymous": false,
      "inputs": [
        {
          "indexed": true,
          "internalType": "address",
          "name": "previousOwner",
          "type": "address"
        },
        {
          "indexed": true,
          "internalType": "address",
          "name": "newOwner",
          "type": "address"
        }
      ],
      "name": "OwnershipTransferred",
      "type": "event"
    },
    {
      "anonymous": false,
      "inputs": [
        {
          "indexed": false,
          "internalType": "address",
          "name": "underlyingAsset",
          "type": "address"
        },
        {
          "indexed": false,
          "internalType": "address",
          "name": "internalStatesOrchestrator",
          "type": "address"
        },
        {
          "indexed": false,
          "internalType": "address",
          "name": "liquidityOrchestrator",
          "type": "address"
        },
        {
          "indexed": false,
          "internalType": "address",
          "name": "priceAndPnLOracle",
          "type": "address"
        },
        {
          "indexed": false,
          "internalType": "uint256",
          "name": "curatorIntentDecimals",
          "type": "uint256"
        },
        {
          "indexed": false,
          "internalType": "string",
          "name": "fhePublicCID",
          "type": "string"
        },
        {
          "indexed": false,
          "internalType": "address",
          "name": "factory",
          "type": "address"
        }
      ],
      "name": "ProtocolParamsUpdated",
      "type": "event"
    },
    {
      "anonymous": false,
      "inputs": [
        {
          "indexed": false,
          "internalType": "string",
          "name": "newCID",
          "type": "string"
        }
      ],
      "name": "PublicCIDUpdated",
      "type": "event"
    },
    {
      "anonymous": false,
      "inputs": [
        {
          "indexed": true,
          "internalType": "address",
          "name": "asset",
          "type": "address"
        }
      ],
      "name": "WhitelistedAssetAdded",
      "type": "event"
    },
    {
      "anonymous": false,
      "inputs": [
        {
          "indexed": true,
          "internalType": "address",
          "name": "asset",
          "type": "address"
        }
      ],
      "name": "WhitelistedAssetRemoved",
      "type": "event"
    },
    {
      "inputs": [],
      "name": "acceptOwnership",
      "outputs": [],
      "stateMutability": "nonpayable",
      "type": "function"
    },
    {
      "inputs": [
        {
          "internalType": "address",
          "name": "vault",
          "type": "address"
        }
      ],
      "name": "addOrionVault",
      "outputs": [],
      "stateMutability": "nonpayable",
      "type": "function"
    },
    {
      "inputs": [
        {
          "internalType": "address",
          "name": "asset",
          "type": "address"
        }
      ],
      "name": "addWhitelistedAsset",
      "outputs": [],
      "stateMutability": "nonpayable",
      "type": "function"
    },
    {
      "inputs": [],
      "name": "curatorIntentDecimals",
      "outputs": [
        {
          "internalType": "uint8",
          "name": "",
          "type": "uint8"
        }
      ],
      "stateMutability": "view",
      "type": "function"
    },
    {
      "inputs": [],
      "name": "fhePublicCID",
      "outputs": [
        {
          "internalType": "string",
          "name": "",
          "type": "string"
        }
      ],
      "stateMutability": "view",
      "type": "function"
    },
    {
      "inputs": [
        {
          "internalType": "uint256",
          "name": "index",
          "type": "uint256"
        }
      ],
      "name": "getOrionVaultAt",
      "outputs": [
        {
          "internalType": "address",
          "name": "",
          "type": "address"
        }
      ],
      "stateMutability": "view",
      "type": "function"
    },
    {
      "inputs": [
        {
          "internalType": "uint256",
          "name": "index",
          "type": "uint256"
        }
      ],
      "name": "getWhitelistedAssetAt",
      "outputs": [
        {
          "internalType": "address",
          "name": "",
          "type": "address"
        }
      ],
      "stateMutability": "view",
      "type": "function"
    },
    {
      "inputs": [],
      "name": "internalStatesOrchestrator",
      "outputs": [
        {
          "internalType": "address",
          "name": "",
          "type": "address"
        }
      ],
      "stateMutability": "view",
      "type": "function"
    },
    {
      "inputs": [
        {
          "internalType": "address",
          "name": "asset",
          "type": "address"
        }
      ],
      "name": "isWhitelisted",
      "outputs": [
        {
          "internalType": "bool",
          "name": "",
          "type": "bool"
        }
      ],
      "stateMutability": "view",
      "type": "function"
    },
    {
      "inputs": [],
      "name": "liquidityOrchestrator",
      "outputs": [
        {
          "internalType": "address",
          "name": "",
          "type": "address"
        }
      ],
      "stateMutability": "view",
      "type": "function"
    },
    {
      "inputs": [],
      "name": "orionVaultsLength",
      "outputs": [
        {
          "internalType": "uint256",
          "name": "",
          "type": "uint256"
        }
      ],
      "stateMutability": "view",
      "type": "function"
    },
    {
      "inputs": [],
      "name": "owner",
      "outputs": [
        {
          "internalType": "address",
          "name": "",
          "type": "address"
        }
      ],
      "stateMutability": "view",
      "type": "function"
    },
    {
      "inputs": [],
      "name": "pendingOwner",
      "outputs": [
        {
          "internalType": "address",
          "name": "",
          "type": "address"
        }
      ],
      "stateMutability": "view",
      "type": "function"
    },
    {
      "inputs": [],
      "name": "priceAndPnLOracle",
      "outputs": [
        {
          "internalType": "address",
          "name": "",
          "type": "address"
        }
      ],
      "stateMutability": "view",
      "type": "function"
    },
    {
      "inputs": [
        {
          "internalType": "address",
          "name": "vault",
          "type": "address"
        }
      ],
      "name": "removeOrionVault",
      "outputs": [],
      "stateMutability": "nonpayable",
      "type": "function"
    },
    {
      "inputs": [
        {
          "internalType": "address",
          "name": "asset",
          "type": "address"
        }
      ],
      "name": "removeWhitelistedAsset",
      "outputs": [],
      "stateMutability": "nonpayable",
      "type": "function"
    },
    {
      "inputs": [],
      "name": "renounceOwnership",
      "outputs": [],
      "stateMutability": "nonpayable",
      "type": "function"
    },
    {
      "inputs": [
        {
          "internalType": "address",
          "name": "_underlyingAsset",
          "type": "address"
        },
        {
          "internalType": "address",
          "name": "_internalStatesOrchestrator",
          "type": "address"
        },
        {
          "internalType": "address",
          "name": "_liquidityOrchestrator",
          "type": "address"
        },
        {
          "internalType": "address",
          "name": "_priceAndPnLOracle",
          "type": "address"
        },
        {
          "internalType": "uint8",
          "name": "_curatorIntentDecimals",
          "type": "uint8"
        },
        {
          "internalType": "string",
          "name": "_fhePublicCID",
          "type": "string"
        },
        {
          "internalType": "address",
          "name": "_factory",
          "type": "address"
        }
      ],
      "name": "setProtocolParams",
      "outputs": [],
      "stateMutability": "nonpayable",
      "type": "function"
    },
    {
      "inputs": [
        {
          "internalType": "address",
          "name": "newOwner",
          "type": "address"
        }
      ],
      "name": "transferOwnership",
      "outputs": [],
      "stateMutability": "nonpayable",
      "type": "function"
    },
    {
      "inputs": [],
      "name": "underlyingAsset",
      "outputs": [
        {
          "internalType": "contract IERC20",
          "name": "",
          "type": "address"
        }
      ],
      "stateMutability": "view",
      "type": "function"
    },
    {
      "inputs": [
        {
          "internalType": "string",
          "name": "newCID",
          "type": "string"
        }
      ],
      "name": "updateFhePublicCID",
      "outputs": [],
      "stateMutability": "nonpayable",
      "type": "function"
    },
    {
      "inputs": [],
      "name": "vaultFactory",
      "outputs": [
        {
          "internalType": "address",
          "name": "",
          "type": "address"
        }
      ],
      "stateMutability": "view",
      "type": "function"
    },
    {
      "inputs": [],
      "name": "whitelistedAssetsLength",
      "outputs": [
        {
          "internalType": "uint256",
          "name": "",
          "type": "uint256"
        }
      ],
      "stateMutability": "view",
      "type": "function"
    }
  ],
  "bytecode": "0x6080604052348015600e575f80fd5b503380603357604051631e4fbdf760e01b81525f600482015260240160405180910390fd5b603a81603f565b5060a8565b600180546001600160a01b03191690556056816059565b50565b5f80546001600160a01b038381166001600160a01b0319831681178455604051919092169283917f8be0079c531659141344cd1fd0a4f28419497f9722a3daafe3b4186f6b6457e09190a35050565b610f17806100b55f395ff3fe608060405234801561000f575f80fd5b5060043610610148575f3560e01c80638da5cb5b116100bf578063d1717c7d11610079578063d1717c7d1461029f578063d8a06f73146102c5578063e30c3978146102d8578063e7b8314c146102e9578063eb1a5bb9146102fc578063f2fde38b1461030f575f80fd5b80638da5cb5b14610239578063a87dd6d914610249578063aa360c161461025c578063ab6ca91014610264578063b6dfcd8b14610279578063bfba8f661461028c575f80fd5b80635f248368116101105780635f248368146101d8578063715018a6146101ee5780637158da7c146101f8578063752620421461020b57806379ba50971461021e578063862a5f0614610226575f80fd5b80630740f2ac1461014c5780630a567a2d1461017c578063348ec5c81461018f5780633a0dad8e146101a25780633af32abf146101b5575b5f80fd5b61015f61015a366004610af7565b610322565b6040516001600160a01b0390911681526020015b60405180910390f35b61015f61018a366004610af7565b610334565b60035461015f906001600160a01b031681565b60045461015f906001600160a01b031681565b6101c86101c3366004610b29565b610340565b6040519015158152602001610173565b6101e061034c565b604051908152602001610173565b6101f661035c565b005b60025461015f906001600160a01b031681565b6101f6610219366004610b87565b61036f565b6101f66103c2565b6101f6610234366004610b29565b61040b565b5f546001600160a01b031661015f565b6101f6610257366004610bc6565b610499565b6101e061063f565b61026c61064a565b6040516101739190610c6e565b6101f6610287366004610b29565b6106d6565b6101f661029a366004610b29565b610741565b6006546102b390600160a01b900460ff1681565b60405160ff9091168152602001610173565b60065461015f906001600160a01b031681565b6001546001600160a01b031661015f565b60055461015f906001600160a01b031681565b6101f661030a366004610b29565b6107ac565b6101f661031d366004610b29565b61083a565b5f61032e600a836108aa565b92915050565b5f61032e6008836108aa565b5f61032e6008836108bc565b5f61035760086108dd565b905090565b6103646108e6565b61036d5f610912565b565b6103776108e6565b6007610384828483610d3b565b507fd2be23666710f4d83b0ae1641d087fb8ba2a04ddf1581071c2fd2e9eeee57aa582826040516103b6929190610e1d565b60405180910390a15050565b60015433906001600160a01b031681146103ff5760405163118cdaa760e01b81526001600160a01b03821660048201526024015b60405180910390fd5b61040881610912565b50565b6006546001600160a01b0316331461043657604051631966391b60e11b815260040160405180910390fd5b5f610442600a8361092b565b90508061046257604051632fa1facb60e01b815260040160405180910390fd5b6040516001600160a01b038316907fe47da341e0fc63816c1254f1c35425f69460f49342668d11c984ea56762b00d4905f90a25050565b6104a16108e6565b6001600160a01b0388166104c857604051636448d6e960e11b815260040160405180910390fd5b6001600160a01b0387166104ef57604051635c1de4f160e01b815260040160405180910390fd5b6001600160a01b0386166105165760405163c4a0c25d60e01b815260040160405180910390fd5b6001600160a01b03851661053d57604051639c29276d60e01b815260040160405180910390fd5b6001600160a01b0381166105645760405163d92e233d60e01b815260040160405180910390fd5b600280546001600160a01b03199081166001600160a01b038b8116919091179092556003805482168a8416179055600480548216898416179055600580549091169187169190911790556006805460ff60a01b1916600160a01b60ff87160217905560076105d3838583610d3b565b50600680546001600160a01b0319166001600160a01b0383161790556040517f8a3f9b88bdb5df291e6ea7554b3e6bfaf076941024dfee5f193adea6c8ed183d9061062d908a908a908a908a908a908a908a908a90610e38565b60405180910390a15050505050505050565b5f610357600a6108dd565b6007805461065790610cb7565b80601f016020809104026020016040519081016040528092919081815260200182805461068390610cb7565b80156106ce5780601f106106a5576101008083540402835291602001916106ce565b820191905f5260205f20905b8154815290600101906020018083116106b157829003601f168201915b505050505081565b6106de6108e6565b5f6106ea60088361092b565b90508061070a57604051632d85515d60e11b815260040160405180910390fd5b6040516001600160a01b038316907f952363a786fc6f24cfb955cd6207cf91ecee3a82a7dd0bc26891ff7647b5784c905f90a25050565b6107496108e6565b5f61075560088361093f565b9050806107755760405163b73e95e160e01b815260040160405180910390fd5b6040516001600160a01b038316907fdcbd8d9d0373041250f6c25b6b7aeccb3e9ff291e510ef85bb9f8ac09ceb6f64905f90a25050565b6006546001600160a01b031633146107d757604051631966391b60e11b815260040160405180910390fd5b5f6107e3600a8361093f565b90508061080357604051633c0c06e960e21b815260040160405180910390fd5b6040516001600160a01b038316907f9a7094a648c0524f3d62b9167886d30be0e68cf53863fe556edda348f189445a905f90a25050565b6108426108e6565b600180546001600160a01b0383166001600160a01b031990911681179091556108725f546001600160a01b031690565b6001600160a01b03167f38d16b8cac22d99fc7c124b9cd0de2d3fa1faef420bfe791d8c362d765e2270060405160405180910390a350565b5f6108b58383610953565b9392505050565b6001600160a01b0381165f90815260018301602052604081205415156108b5565b5f61032e825490565b5f546001600160a01b0316331461036d5760405163118cdaa760e01b81523360048201526024016103f6565b600180546001600160a01b031916905561040881610979565b5f6108b5836001600160a01b0384166109c8565b5f6108b5836001600160a01b038416610aab565b5f825f01828154811061096857610968610e9a565b905f5260205f200154905092915050565b5f80546001600160a01b038381166001600160a01b0319831681178455604051919092169283917f8be0079c531659141344cd1fd0a4f28419497f9722a3daafe3b4186f6b6457e09190a35050565b5f8181526001830160205260408120548015610aa2575f6109ea600183610eae565b85549091505f906109fd90600190610eae565b9050808214610a5c575f865f018281548110610a1b57610a1b610e9a565b905f5260205f200154905080875f018481548110610a3b57610a3b610e9a565b5f918252602080832090910192909255918252600188019052604090208390555b8554869080610a6d57610a6d610ecd565b600190038181905f5260205f20015f90559055856001015f8681526020019081526020015f205f90556001935050505061032e565b5f91505061032e565b5f818152600183016020526040812054610af057508154600181810184555f84815260208082209093018490558454848252828601909352604090209190915561032e565b505f61032e565b5f60208284031215610b07575f80fd5b5035919050565b80356001600160a01b0381168114610b24575f80fd5b919050565b5f60208284031215610b39575f80fd5b6108b582610b0e565b5f8083601f840112610b52575f80fd5b50813567ffffffffffffffff811115610b69575f80fd5b602083019150836020828501011115610b80575f80fd5b9250929050565b5f8060208385031215610b98575f80fd5b823567ffffffffffffffff811115610bae575f80fd5b610bba85828601610b42565b90969095509350505050565b5f805f805f805f8060e0898b031215610bdd575f80fd5b610be689610b0e565b9750610bf460208a01610b0e565b9650610c0260408a01610b0e565b9550610c1060608a01610b0e565b9450608089013560ff81168114610c25575f80fd5b935060a089013567ffffffffffffffff811115610c40575f80fd5b610c4c8b828c01610b42565b9094509250610c5f905060c08a01610b0e565b90509295985092959890939650565b602081525f82518060208401528060208501604085015e5f604082850101526040601f19601f83011684010191505092915050565b634e487b7160e01b5f52604160045260245ffd5b600181811c90821680610ccb57607f821691505b602082108103610ce957634e487b7160e01b5f52602260045260245ffd5b50919050565b601f821115610d3657805f5260205f20601f840160051c81016020851015610d145750805b601f840160051c820191505b81811015610d33575f8155600101610d20565b50505b505050565b67ffffffffffffffff831115610d5357610d53610ca3565b610d6783610d618354610cb7565b83610cef565b5f601f841160018114610d98575f8515610d815750838201355b5f19600387901b1c1916600186901b178355610d33565b5f83815260208120601f198716915b82811015610dc75786850135825560209485019460019092019101610da7565b5086821015610de3575f1960f88860031b161c19848701351681555b505060018560011b0183555050505050565b81835281816020850137505f828201602090810191909152601f909101601f19169091010190565b602081525f610e30602083018486610df5565b949350505050565b6001600160a01b038981168252888116602083015287811660408301528616606082015260ff8516608082015260e060a082018190525f90610e7d9083018587610df5565b905060018060a01b03831660c08301529998505050505050505050565b634e487b7160e01b5f52603260045260245ffd5b8181038181111561032e57634e487b7160e01b5f52601160045260245ffd5b634e487b7160e01b5f52603160045260245ffdfea264697066735822122073509a0a2c80e20b3b59b2c9fc5134fdaff473ba00a3284589a6acc6dc02817664736f6c634300081a0033",
  "linkReferences": {},
  "deployedLinkReferences": {}
}