{
  "_format": "hh-sol-artifact-1",
  "contractName": "OrionConfig",
  "sourceName": "contracts/OrionConfig.sol",
  "abi": [
    {
      "inputs": [
        {
          "internalType": "address",
          "name": "initialOwner",
          "type": "address"
        },
        {
          "internalType": "address",
          "name": "underlyingAsset_",
          "type": "address"
        }
      ],
      "stateMutability": "nonpayable",
      "type": "constructor"
    },
    {
      "inputs": [],
      "name": "AlreadyRegistered",
      "type": "error"
    },
    {
      "inputs": [
        {
          "internalType": "address",
          "name": "owner",
          "type": "address"
        }
      ],
      "name": "OwnableInvalidOwner",
      "type": "error"
    },
    {
      "inputs": [
        {
          "internalType": "address",
          "name": "account",
          "type": "address"
        }
      ],
      "name": "OwnableUnauthorizedAccount",
      "type": "error"
    },
    {
      "inputs": [],
      "name": "SystemNotIdle",
      "type": "error"
    },
    {
      "inputs": [
        {
          "internalType": "address",
          "name": "token",
          "type": "address"
        }
      ],
      "name": "TokenNotWhitelisted",
      "type": "error"
    },
    {
      "inputs": [],
      "name": "UnauthorizedAccess",
      "type": "error"
    },
    {
      "inputs": [],
      "name": "ZeroAddress",
      "type": "error"
    },
    {
      "anonymous": false,
      "inputs": [
        {
          "indexed": true,
          "internalType": "address",
          "name": "vault",
          "type": "address"
        }
      ],
      "name": "OrionVaultAdded",
      "type": "event"
    },
    {
      "anonymous": false,
      "inputs": [
        {
          "indexed": true,
          "internalType": "address",
          "name": "vault",
          "type": "address"
        }
      ],
      "name": "OrionVaultRemoved",
      "type": "event"
    },
    {
      "anonymous": false,
      "inputs": [
        {
          "indexed": true,
          "internalType": "address",
          "name": "previousOwner",
          "type": "address"
        },
        {
          "indexed": true,
          "internalType": "address",
          "name": "newOwner",
          "type": "address"
        }
      ],
      "name": "OwnershipTransferred",
      "type": "event"
    },
    {
      "anonymous": false,
      "inputs": [
        {
          "indexed": true,
          "internalType": "uint16",
          "name": "riskFreeRate",
          "type": "uint16"
        }
      ],
      "name": "RiskFreeRateUpdated",
      "type": "event"
    },
    {
      "anonymous": false,
      "inputs": [
        {
          "indexed": true,
          "internalType": "address",
          "name": "asset",
          "type": "address"
        }
      ],
      "name": "WhitelistedAssetAdded",
      "type": "event"
    },
    {
      "anonymous": false,
      "inputs": [
        {
          "indexed": true,
          "internalType": "address",
          "name": "asset",
          "type": "address"
        }
      ],
      "name": "WhitelistedAssetRemoved",
      "type": "event"
    },
    {
      "inputs": [
        {
          "internalType": "address",
          "name": "vault",
          "type": "address"
        },
        {
          "internalType": "enum EventsLib.VaultType",
          "name": "vaultType",
          "type": "uint8"
        }
      ],
      "name": "addOrionVault",
      "outputs": [],
      "stateMutability": "nonpayable",
      "type": "function"
    },
    {
      "inputs": [
        {
          "internalType": "address",
          "name": "asset",
          "type": "address"
        },
        {
          "internalType": "address",
          "name": "priceAdapter",
          "type": "address"
        },
        {
          "internalType": "address",
          "name": "executionAdapter",
          "type": "address"
        }
      ],
      "name": "addWhitelistedAsset",
      "outputs": [],
      "stateMutability": "nonpayable",
      "type": "function"
    },
    {
      "inputs": [],
      "name": "curatorIntentDecimals",
      "outputs": [
        {
          "internalType": "uint8",
          "name": "",
          "type": "uint8"
        }
      ],
      "stateMutability": "view",
      "type": "function"
    },
    {
      "inputs": [],
      "name": "encryptedVaultFactory",
      "outputs": [
        {
          "internalType": "address",
          "name": "",
          "type": "address"
        }
      ],
      "stateMutability": "view",
      "type": "function"
    },
    {
      "inputs": [
        {
          "internalType": "enum EventsLib.VaultType",
          "name": "vaultType",
          "type": "uint8"
        }
      ],
      "name": "getAllOrionVaults",
      "outputs": [
        {
          "internalType": "address[]",
          "name": "",
          "type": "address[]"
        }
      ],
      "stateMutability": "view",
      "type": "function"
    },
    {
      "inputs": [],
      "name": "getAllWhitelistedAssets",
      "outputs": [
        {
          "internalType": "address[]",
          "name": "assets",
          "type": "address[]"
        }
      ],
      "stateMutability": "view",
      "type": "function"
    },
    {
      "inputs": [
        {
          "internalType": "uint16",
          "name": "index",
          "type": "uint16"
        }
      ],
      "name": "getWhitelistedAssetAt",
      "outputs": [
        {
          "internalType": "address",
          "name": "",
          "type": "address"
        }
      ],
      "stateMutability": "view",
      "type": "function"
    },
    {
      "inputs": [],
      "name": "internalStatesOrchestrator",
      "outputs": [
        {
          "internalType": "address",
          "name": "",
          "type": "address"
        }
      ],
      "stateMutability": "view",
      "type": "function"
    },
    {
      "inputs": [
        {
          "internalType": "address",
          "name": "vault",
          "type": "address"
        }
      ],
      "name": "isOrionVault",
      "outputs": [
        {
          "internalType": "bool",
          "name": "",
          "type": "bool"
        }
      ],
      "stateMutability": "view",
      "type": "function"
    },
    {
      "inputs": [],
      "name": "isSystemIdle",
      "outputs": [
        {
          "internalType": "bool",
          "name": "",
          "type": "bool"
        }
      ],
      "stateMutability": "view",
      "type": "function"
    },
    {
      "inputs": [
        {
          "internalType": "address",
          "name": "asset",
          "type": "address"
        }
      ],
      "name": "isWhitelisted",
      "outputs": [
        {
          "internalType": "bool",
          "name": "",
          "type": "bool"
        }
      ],
      "stateMutability": "view",
      "type": "function"
    },
    {
      "inputs": [],
      "name": "liquidityOrchestrator",
      "outputs": [
        {
          "internalType": "address",
          "name": "",
          "type": "address"
        }
      ],
      "stateMutability": "view",
      "type": "function"
    },
    {
      "inputs": [],
      "name": "owner",
      "outputs": [
        {
          "internalType": "address",
          "name": "",
          "type": "address"
        }
      ],
      "stateMutability": "view",
      "type": "function"
    },
    {
      "inputs": [],
      "name": "priceAdapterDecimals",
      "outputs": [
        {
          "internalType": "uint8",
          "name": "",
          "type": "uint8"
        }
      ],
      "stateMutability": "view",
      "type": "function"
    },
    {
      "inputs": [],
      "name": "priceAdapterRegistry",
      "outputs": [
        {
          "internalType": "address",
          "name": "",
          "type": "address"
        }
      ],
      "stateMutability": "view",
      "type": "function"
    },
    {
      "inputs": [
        {
          "internalType": "address",
          "name": "vault",
          "type": "address"
        },
        {
          "internalType": "enum EventsLib.VaultType",
          "name": "vaultType",
          "type": "uint8"
        }
      ],
      "name": "removeOrionVault",
      "outputs": [],
      "stateMutability": "nonpayable",
      "type": "function"
    },
    {
      "inputs": [
        {
          "internalType": "address",
          "name": "asset",
          "type": "address"
        }
      ],
      "name": "removeWhitelistedAsset",
      "outputs": [],
      "stateMutability": "nonpayable",
      "type": "function"
    },
    {
      "inputs": [],
      "name": "renounceOwnership",
      "outputs": [],
      "stateMutability": "nonpayable",
      "type": "function"
    },
    {
      "inputs": [],
      "name": "riskFreeRate",
      "outputs": [
        {
          "internalType": "uint16",
          "name": "",
          "type": "uint16"
        }
      ],
      "stateMutability": "view",
      "type": "function"
    },
    {
      "inputs": [
        {
          "internalType": "address",
          "name": "orchestrator",
          "type": "address"
        }
      ],
      "name": "setInternalStatesOrchestrator",
      "outputs": [],
      "stateMutability": "nonpayable",
      "type": "function"
    },
    {
      "inputs": [
        {
          "internalType": "address",
          "name": "orchestrator",
          "type": "address"
        }
      ],
      "name": "setLiquidityOrchestrator",
      "outputs": [],
      "stateMutability": "nonpayable",
      "type": "function"
    },
    {
      "inputs": [
        {
          "internalType": "address",
          "name": "registry",
          "type": "address"
        }
      ],
      "name": "setPriceAdapterRegistry",
      "outputs": [],
      "stateMutability": "nonpayable",
      "type": "function"
    },
    {
      "inputs": [
        {
          "internalType": "uint16",
          "name": "_riskFreeRate",
          "type": "uint16"
        }
      ],
      "name": "setProtocolRiskFreeRate",
      "outputs": [],
      "stateMutability": "nonpayable",
      "type": "function"
    },
    {
      "inputs": [
        {
          "internalType": "address",
          "name": "transparentFactory",
          "type": "address"
        },
        {
          "internalType": "address",
          "name": "encryptedFactory",
          "type": "address"
        }
      ],
      "name": "setVaultFactories",
      "outputs": [],
      "stateMutability": "nonpayable",
      "type": "function"
    },
    {
      "inputs": [
        {
          "internalType": "address",
          "name": "newOwner",
          "type": "address"
        }
      ],
      "name": "transferOwnership",
      "outputs": [],
      "stateMutability": "nonpayable",
      "type": "function"
    },
    {
      "inputs": [],
      "name": "transparentVaultFactory",
      "outputs": [
        {
          "internalType": "address",
          "name": "",
          "type": "address"
        }
      ],
      "stateMutability": "view",
      "type": "function"
    },
    {
      "inputs": [],
      "name": "underlyingAsset",
      "outputs": [
        {
          "internalType": "contract IERC20",
          "name": "",
          "type": "address"
        }
      ],
      "stateMutability": "view",
      "type": "function"
    },
    {
      "inputs": [],
      "name": "whitelistedAssetsLength",
      "outputs": [
        {
          "internalType": "uint16",
          "name": "",
          "type": "uint16"
        }
      ],
      "stateMutability": "view",
      "type": "function"
    }
  ],
  "bytecode": "0x608060405234801561000f575f5ffd5b506040516114d53803806114d583398101604081905261002e916101d6565b816001600160a01b03811661005c57604051631e4fbdf760e01b81525f600482015260240160405180910390fd5b61006581610103565b506001600160a01b03811661008d5760405163d92e233d60e01b815260040160405180910390fd5b600180546001600160a01b0319166001600160a01b0383161790556006805461ffff60a01b1916610e0960a01b1790556100c8600782610152565b506040516001600160a01b038216907fdcbd8d9d0373041250f6c25b6b7aeccb3e9ff291e510ef85bb9f8ac09ceb6f64905f90a25050610207565b5f80546001600160a01b038381166001600160a01b0319831681178455604051919092169283917f8be0079c531659141344cd1fd0a4f28419497f9722a3daafe3b4186f6b6457e09190a35050565b5f610166836001600160a01b03841661016f565b90505b92915050565b5f8181526001830160205260408120546101b457508154600181810184555f848152602080822090930184905584548482528286019093526040902091909155610169565b505f610169565b80516001600160a01b03811681146101d1575f5ffd5b919050565b5f5f604083850312156101e7575f5ffd5b6101f0836101bb565b91506101fe602084016101bb565b90509250929050565b6112c1806102145f395ff3fe608060405234801561000f575f5ffd5b5060043610610152575f3560e01c8063015df993146101565780630a8b78c71461017f5780631dbc3c04146101945780632095b01e146101a757806323a06a1c146101ba5780632430dbf3146101cd578063348ec5c8146101e05780633a0dad8e146101f35780633af32abf14610206578063567ba713146102295780635f2483681461024f57806366e87e7f1461026a578063715018a61461027d5780637158da7c146102855780637a0cb78414610298578063849ede23146102ab5780638da5cb5b146102be57806391a848f3146102c6578063a51b8d5a146102d9578063b6dfcd8b146102ec578063c30dd727146102ff578063d1717c7d14610312578063d86cd44e14610326578063e0876b441461033b578063ed04f2181461034e578063edcf9c1f14610361578063f2fde38b14610369578063f3cc69931461037c575b5f5ffd5b600654610169906001600160a01b031681565b6040516101769190611052565b60405180910390f35b61019261018d366004611081565b610391565b005b6101926101a23660046110a8565b61040c565b6101926101b5366004611081565b6104c9565b6101926101c83660046110d9565b610544565b6101696101db366004611119565b610694565b600254610169906001600160a01b031681565b600354610169906001600160a01b031681565b610219610214366004611081565b6106aa565b6040519015158152602001610176565b60065461023d90600160a81b900460ff1681565b60405160ff9091168152602001610176565b6102576106b6565b60405161ffff9091168152602001610176565b610192610278366004611119565b6106c6565b610192610743565b600154610169906001600160a01b031681565b6101926102a63660046110a8565b610756565b600454610169906001600160a01b031681565b610169610851565b600554610169906001600160a01b031681565b6101926102e736600461113a565b61085f565b6101926102fa366004611081565b610949565b61019261030d366004611081565b610a9e565b60065461023d90600160a01b900460ff1681565b61032e610b19565b6040516101769190611162565b610219610349366004611081565b610bcc565b61032e61035c3660046111ad565b610be9565b610219610cc5565b610192610377366004611081565b610dd6565b60065461025790600160b01b900461ffff1681565b610399610e13565b6001600160a01b0381166103c05760405163d92e233d60e01b815260040160405180910390fd5b6002546001600160a01b0316156103ea57604051630ea075bf60e21b815260040160405180910390fd5b600280546001600160a01b0319166001600160a01b0392909216919091179055565b610414610e13565b61041c610cc5565b610439576040516312aecd8160e01b815260040160405180910390fd5b5f600182600181111561044e5761044e6111c6565b036104655761045e600b84610e45565b9050610473565b610470600984610e45565b90505b8061049157604051631a27eac360e11b815260040160405180910390fd5b6040516001600160a01b038416907fe47da341e0fc63816c1254f1c35425f69460f49342668d11c984ea56762b00d4905f90a2505050565b6104d1610e13565b6001600160a01b0381166104f85760405163d92e233d60e01b815260040160405180910390fd5b6006546001600160a01b03161561052257604051630ea075bf60e21b815260040160405180910390fd5b600680546001600160a01b0319166001600160a01b0392909216919091179055565b61054c610e13565b610554610cc5565b610571576040516312aecd8160e01b815260040160405180910390fd5b5f61057d600785610e60565b90508061059d57604051630ea075bf60e21b815260040160405180910390fd5b6006546040516302707eef60e51b81526001600160a01b0390911690634e0fdde0906105cf90879087906004016111da565b5f604051808303815f87803b1580156105e6575f5ffd5b505af11580156105f8573d5f5f3e3d5ffd5b50506003546040516359017aa960e01b81526001600160a01b0390911692506359017aa9915061062e90879086906004016111da565b5f604051808303815f87803b158015610645575f5ffd5b505af1158015610657573d5f5f3e3d5ffd5b50506040516001600160a01b03871692507fdcbd8d9d0373041250f6c25b6b7aeccb3e9ff291e510ef85bb9f8ac09ceb6f6491505f90a250505050565b5f6106a4600761ffff8416610e74565b92915050565b5f6106a4600783610e7f565b5f6106c16007610e93565b905090565b6106ce610e13565b6106d6610cc5565b6106f3576040516312aecd8160e01b815260040160405180910390fd5b6006805461ffff60b01b1916600160b01b61ffff84811682029290921792839055604051920416907f6c0e50288cc602be5dd504ce35358e01341e3c4f93e2e02b5a030a59bfdb84e2905f90a250565b61074b610e13565b6107545f610e9c565b565b6004546001600160a01b0316331480159061077c57506005546001600160a01b03163314155b1561079a57604051631a27eac360e11b815260040160405180910390fd5b6001600160a01b0382166107c15760405163d92e233d60e01b815260040160405180910390fd5b5f60018260018111156107d6576107d66111c6565b036107ed576107e6600b84610e60565b90506107fb565b6107f8600984610e60565b90505b8061081957604051630ea075bf60e21b815260040160405180910390fd5b6040516001600160a01b038416907f9a7094a648c0524f3d62b9167886d30be0e68cf53863fe556edda348f189445a905f90a2505050565b5f546001600160a01b031690565b610867610e13565b61086f610cc5565b61088c576040516312aecd8160e01b815260040160405180910390fd5b6001600160a01b0382166108b35760405163d92e233d60e01b815260040160405180910390fd5b6001600160a01b0381166108da5760405163d92e233d60e01b815260040160405180910390fd5b6004546001600160a01b03161515806108fd57506005546001600160a01b031615155b1561091b57604051630ea075bf60e21b815260040160405180910390fd5b600480546001600160a01b039384166001600160a01b03199182161790915560058054929093169116179055565b610951610e13565b610959610cc5565b610976576040516312aecd8160e01b815260040160405180910390fd5b5f610982600783610e45565b9050806109ad578160405163751dff9760e11b81526004016109a49190611052565b60405180910390fd5b600654604051634386017560e01b81526001600160a01b03909116906343860175906109dd908590600401611052565b5f604051808303815f87803b1580156109f4575f5ffd5b505af1158015610a06573d5f5f3e3d5ffd5b505060035460405163841181ef60e01b81526001600160a01b03909116925063841181ef9150610a3a908590600401611052565b5f604051808303815f87803b158015610a51575f5ffd5b505af1158015610a63573d5f5f3e3d5ffd5b50506040516001600160a01b03851692507f952363a786fc6f24cfb955cd6207cf91ecee3a82a7dd0bc26891ff7647b5784c91505f90a25050565b610aa6610e13565b6001600160a01b038116610acd5760405163d92e233d60e01b815260040160405180910390fd5b6003546001600160a01b031615610af757604051630ea075bf60e21b815260040160405180910390fd5b600380546001600160a01b0319166001600160a01b0392909216919091179055565b60605f610b266007610e93565b90508061ffff166001600160401b03811115610b4457610b446111f4565b604051908082528060200260200182016040528015610b6d578160200160208202803683370190505b5091505f5b8161ffff168161ffff161015610bc757610b91600761ffff8316610e74565b838261ffff1681518110610ba757610ba7611208565b6001600160a01b0390921660209283029190910190910152600101610b72565b505090565b5f610bd8600b83610e7f565b806106a457506106a4600983610e7f565b60605f6001836001811115610c0057610c006111c6565b14610c0c576009610c0f565b600b5b90505f610c1b82610e93565b90505f8161ffff166001600160401b03811115610c3a57610c3a6111f4565b604051908082528060200260200182016040528015610c63578160200160208202803683370190505b5090505f5b8261ffff168161ffff161015610cbc57610c868461ffff8316610e74565b828261ffff1681518110610c9c57610c9c611208565b6001600160a01b0390921660209283029190910190910152600101610c68565b50949350505050565b5f8060035f9054906101000a90046001600160a01b03166001600160a01b031663055ad42e6040518163ffffffff1660e01b8152600401602060405180830381865afa158015610d17573d5f5f3e3d5ffd5b505050506040513d601f19601f82011682018060405250810190610d3b919061121c565b6003811115610d4c57610d4c6111c6565b1480156106c15750600254604080516302ad6a1760e11b815290515f926001600160a01b03169163055ad42e9160048083019260209291908290030181865afa158015610d9b573d5f5f3e3d5ffd5b505050506040513d601f19601f82011682018060405250810190610dbf919061123a565b6006811115610dd057610dd06111c6565b14905090565b610dde610e13565b6001600160a01b038116610e07575f604051631e4fbdf760e01b81526004016109a49190611052565b610e1081610e9c565b50565b33610e1c610851565b6001600160a01b031614610754573360405163118cdaa760e01b81526004016109a49190611052565b5f610e59836001600160a01b038416610eeb565b9392505050565b5f610e59836001600160a01b038416610fce565b5f610e598383611015565b5f610e59836001600160a01b03841661103b565b5f6106a4825490565b5f80546001600160a01b038381166001600160a01b0319831681178455604051919092169283917f8be0079c531659141344cd1fd0a4f28419497f9722a3daafe3b4186f6b6457e09190a35050565b5f8181526001830160205260408120548015610fc5575f610f0d600183611258565b85549091505f90610f2090600190611258565b9050808214610f7f575f865f018281548110610f3e57610f3e611208565b905f5260205f200154905080875f018481548110610f5e57610f5e611208565b5f918252602080832090910192909255918252600188019052604090208390555b8554869080610f9057610f90611277565b600190038181905f5260205f20015f90559055856001015f8681526020019081526020015f205f9055600193505050506106a4565b5f9150506106a4565b5f610fd9838361103b565b61100e57508154600181810184555f8481526020808220909301849055845484825282860190935260409020919091556106a4565b505f6106a4565b5f825f01828154811061102a5761102a611208565b905f5260205f200154905092915050565b5f9081526001919091016020526040902054151590565b6001600160a01b0391909116815260200190565b80356001600160a01b038116811461107c575f5ffd5b919050565b5f60208284031215611091575f5ffd5b610e5982611066565b80356002811061107c575f5ffd5b5f5f604083850312156110b9575f5ffd5b6110c283611066565b91506110d06020840161109a565b90509250929050565b5f5f5f606084860312156110eb575f5ffd5b6110f484611066565b925061110260208501611066565b915061111060408501611066565b90509250925092565b5f60208284031215611129575f5ffd5b813561ffff81168114610e59575f5ffd5b5f5f6040838503121561114b575f5ffd5b61115483611066565b91506110d060208401611066565b602080825282518282018190525f918401906040840190835b818110156111a25783516001600160a01b031683526020938401939092019160010161117b565b509095945050505050565b5f602082840312156111bd575f5ffd5b610e598261109a565b634e487b7160e01b5f52602160045260245ffd5b6001600160a01b0392831681529116602082015260400190565b634e487b7160e01b5f52604160045260245ffd5b634e487b7160e01b5f52603260045260245ffd5b5f6020828403121561122c575f5ffd5b815160048110610e59575f5ffd5b5f6020828403121561124a575f5ffd5b815160078110610e59575f5ffd5b818103818111156106a457634e487b7160e01b5f52601160045260245ffd5b634e487b7160e01b5f52603160045260245ffdfea2646970667358221220e04a6643d0028df61a182f521e1802c303dcbcd34d6109410db554bcf4c97fc464736f6c634300081c0033",
  "linkReferences": {},
  "deployedLinkReferences": {}
}