{
  "_format": "hh-sol-artifact-1",
  "contractName": "OrionConfig",
  "sourceName": "contracts/OrionConfig.sol",
  "abi": [
    {
      "inputs": [
        {
          "internalType": "address",
          "name": "initialOwner",
          "type": "address"
        },
        {
          "internalType": "address",
          "name": "admin_",
          "type": "address"
        },
        {
          "internalType": "address",
          "name": "underlyingAsset_",
          "type": "address"
        }
      ],
      "stateMutability": "nonpayable",
      "type": "constructor"
    },
    {
      "inputs": [],
      "name": "AlreadyRegistered",
      "type": "error"
    },
    {
      "inputs": [],
      "name": "InvalidAddress",
      "type": "error"
    },
    {
      "inputs": [],
      "name": "InvalidArguments",
      "type": "error"
    },
    {
      "inputs": [],
      "name": "NotAuthorized",
      "type": "error"
    },
    {
      "inputs": [
        {
          "internalType": "address",
          "name": "owner",
          "type": "address"
        }
      ],
      "name": "OwnableInvalidOwner",
      "type": "error"
    },
    {
      "inputs": [
        {
          "internalType": "address",
          "name": "account",
          "type": "address"
        }
      ],
      "name": "OwnableUnauthorizedAccount",
      "type": "error"
    },
    {
      "inputs": [],
      "name": "SystemNotIdle",
      "type": "error"
    },
    {
      "inputs": [
        {
          "internalType": "address",
          "name": "token",
          "type": "address"
        }
      ],
      "name": "TokenNotWhitelisted",
      "type": "error"
    },
    {
      "inputs": [],
      "name": "UnauthorizedAccess",
      "type": "error"
    },
    {
      "inputs": [],
      "name": "ZeroAddress",
      "type": "error"
    },
    {
      "anonymous": false,
      "inputs": [
        {
          "indexed": true,
          "internalType": "address",
          "name": "vault",
          "type": "address"
        }
      ],
      "name": "OrionVaultAdded",
      "type": "event"
    },
    {
      "anonymous": false,
      "inputs": [
        {
          "indexed": true,
          "internalType": "address",
          "name": "previousOwner",
          "type": "address"
        },
        {
          "indexed": true,
          "internalType": "address",
          "name": "newOwner",
          "type": "address"
        }
      ],
      "name": "OwnershipTransferred",
      "type": "event"
    },
    {
      "anonymous": false,
      "inputs": [
        {
          "indexed": true,
          "internalType": "uint16",
          "name": "riskFreeRate",
          "type": "uint16"
        }
      ],
      "name": "RiskFreeRateUpdated",
      "type": "event"
    },
    {
      "anonymous": false,
      "inputs": [
        {
          "indexed": true,
          "internalType": "address",
          "name": "asset",
          "type": "address"
        }
      ],
      "name": "WhitelistedAssetAdded",
      "type": "event"
    },
    {
      "anonymous": false,
      "inputs": [
        {
          "indexed": true,
          "internalType": "address",
          "name": "asset",
          "type": "address"
        }
      ],
      "name": "WhitelistedAssetRemoved",
      "type": "event"
    },
    {
      "inputs": [],
      "name": "MAX_RISK_FREE_RATE",
      "outputs": [
        {
          "internalType": "uint16",
          "name": "",
          "type": "uint16"
        }
      ],
      "stateMutability": "view",
      "type": "function"
    },
    {
      "inputs": [
        {
          "internalType": "address",
          "name": "vault",
          "type": "address"
        },
        {
          "internalType": "enum EventsLib.VaultType",
          "name": "vaultType",
          "type": "uint8"
        }
      ],
      "name": "addOrionVault",
      "outputs": [],
      "stateMutability": "nonpayable",
      "type": "function"
    },
    {
      "inputs": [
        {
          "internalType": "address",
          "name": "asset",
          "type": "address"
        },
        {
          "internalType": "address",
          "name": "priceAdapter",
          "type": "address"
        },
        {
          "internalType": "address",
          "name": "executionAdapter",
          "type": "address"
        }
      ],
      "name": "addWhitelistedAsset",
      "outputs": [],
      "stateMutability": "nonpayable",
      "type": "function"
    },
    {
      "inputs": [
        {
          "internalType": "address",
          "name": "vaultOwner",
          "type": "address"
        }
      ],
      "name": "addWhitelistedVaultOwner",
      "outputs": [],
      "stateMutability": "nonpayable",
      "type": "function"
    },
    {
      "inputs": [],
      "name": "admin",
      "outputs": [
        {
          "internalType": "address",
          "name": "",
          "type": "address"
        }
      ],
      "stateMutability": "view",
      "type": "function"
    },
    {
      "inputs": [
        {
          "internalType": "address",
          "name": "vault",
          "type": "address"
        }
      ],
      "name": "completeVaultDecommissioning",
      "outputs": [],
      "stateMutability": "nonpayable",
      "type": "function"
    },
    {
      "inputs": [],
      "name": "curatorIntentDecimals",
      "outputs": [
        {
          "internalType": "uint8",
          "name": "",
          "type": "uint8"
        }
      ],
      "stateMutability": "view",
      "type": "function"
    },
    {
      "inputs": [
        {
          "internalType": "enum EventsLib.VaultType",
          "name": "vaultType",
          "type": "uint8"
        }
      ],
      "name": "getAllOrionVaults",
      "outputs": [
        {
          "internalType": "address[]",
          "name": "",
          "type": "address[]"
        }
      ],
      "stateMutability": "view",
      "type": "function"
    },
    {
      "inputs": [],
      "name": "getAllWhitelistedAssets",
      "outputs": [
        {
          "internalType": "address[]",
          "name": "assets",
          "type": "address[]"
        }
      ],
      "stateMutability": "view",
      "type": "function"
    },
    {
      "inputs": [
        {
          "internalType": "address",
          "name": "token",
          "type": "address"
        }
      ],
      "name": "getTokenDecimals",
      "outputs": [
        {
          "internalType": "uint8",
          "name": "",
          "type": "uint8"
        }
      ],
      "stateMutability": "view",
      "type": "function"
    },
    {
      "inputs": [],
      "name": "internalStatesOrchestrator",
      "outputs": [
        {
          "internalType": "address",
          "name": "",
          "type": "address"
        }
      ],
      "stateMutability": "view",
      "type": "function"
    },
    {
      "inputs": [
        {
          "internalType": "address",
          "name": "vault",
          "type": "address"
        }
      ],
      "name": "isDecommissionedVault",
      "outputs": [
        {
          "internalType": "bool",
          "name": "",
          "type": "bool"
        }
      ],
      "stateMutability": "view",
      "type": "function"
    },
    {
      "inputs": [
        {
          "internalType": "address",
          "name": "vault",
          "type": "address"
        }
      ],
      "name": "isDecommissioningVault",
      "outputs": [
        {
          "internalType": "bool",
          "name": "",
          "type": "bool"
        }
      ],
      "stateMutability": "view",
      "type": "function"
    },
    {
      "inputs": [
        {
          "internalType": "address",
          "name": "vault",
          "type": "address"
        }
      ],
      "name": "isOrionVault",
      "outputs": [
        {
          "internalType": "bool",
          "name": "",
          "type": "bool"
        }
      ],
      "stateMutability": "view",
      "type": "function"
    },
    {
      "inputs": [],
      "name": "isSystemIdle",
      "outputs": [
        {
          "internalType": "bool",
          "name": "",
          "type": "bool"
        }
      ],
      "stateMutability": "view",
      "type": "function"
    },
    {
      "inputs": [
        {
          "internalType": "address",
          "name": "asset",
          "type": "address"
        }
      ],
      "name": "isWhitelisted",
      "outputs": [
        {
          "internalType": "bool",
          "name": "",
          "type": "bool"
        }
      ],
      "stateMutability": "view",
      "type": "function"
    },
    {
      "inputs": [
        {
          "internalType": "address",
          "name": "vaultOwner",
          "type": "address"
        }
      ],
      "name": "isWhitelistedVaultOwner",
      "outputs": [
        {
          "internalType": "bool",
          "name": "",
          "type": "bool"
        }
      ],
      "stateMutability": "view",
      "type": "function"
    },
    {
      "inputs": [],
      "name": "liquidityOrchestrator",
      "outputs": [
        {
          "internalType": "address",
          "name": "",
          "type": "address"
        }
      ],
      "stateMutability": "view",
      "type": "function"
    },
    {
      "inputs": [],
      "name": "owner",
      "outputs": [
        {
          "internalType": "address",
          "name": "",
          "type": "address"
        }
      ],
      "stateMutability": "view",
      "type": "function"
    },
    {
      "inputs": [],
      "name": "priceAdapterDecimals",
      "outputs": [
        {
          "internalType": "uint8",
          "name": "",
          "type": "uint8"
        }
      ],
      "stateMutability": "view",
      "type": "function"
    },
    {
      "inputs": [],
      "name": "priceAdapterRegistry",
      "outputs": [
        {
          "internalType": "address",
          "name": "",
          "type": "address"
        }
      ],
      "stateMutability": "view",
      "type": "function"
    },
    {
      "inputs": [
        {
          "internalType": "address",
          "name": "vault",
          "type": "address"
        }
      ],
      "name": "removeOrionVault",
      "outputs": [],
      "stateMutability": "nonpayable",
      "type": "function"
    },
    {
      "inputs": [
        {
          "internalType": "address",
          "name": "asset",
          "type": "address"
        }
      ],
      "name": "removeWhitelistedAsset",
      "outputs": [],
      "stateMutability": "nonpayable",
      "type": "function"
    },
    {
      "inputs": [],
      "name": "renounceOwnership",
      "outputs": [],
      "stateMutability": "nonpayable",
      "type": "function"
    },
    {
      "inputs": [],
      "name": "riskFreeRate",
      "outputs": [
        {
          "internalType": "uint16",
          "name": "",
          "type": "uint16"
        }
      ],
      "stateMutability": "view",
      "type": "function"
    },
    {
      "inputs": [
        {
          "internalType": "address",
          "name": "orchestrator",
          "type": "address"
        }
      ],
      "name": "setInternalStatesOrchestrator",
      "outputs": [],
      "stateMutability": "nonpayable",
      "type": "function"
    },
    {
      "inputs": [
        {
          "internalType": "address",
          "name": "orchestrator",
          "type": "address"
        }
      ],
      "name": "setLiquidityOrchestrator",
      "outputs": [],
      "stateMutability": "nonpayable",
      "type": "function"
    },
    {
      "inputs": [
        {
          "internalType": "address",
          "name": "registry",
          "type": "address"
        }
      ],
      "name": "setPriceAdapterRegistry",
      "outputs": [],
      "stateMutability": "nonpayable",
      "type": "function"
    },
    {
      "inputs": [
        {
          "internalType": "uint16",
          "name": "_riskFreeRate",
          "type": "uint16"
        }
      ],
      "name": "setProtocolRiskFreeRate",
      "outputs": [],
      "stateMutability": "nonpayable",
      "type": "function"
    },
    {
      "inputs": [
        {
          "internalType": "address",
          "name": "transparentFactory",
          "type": "address"
        }
      ],
      "name": "setVaultFactory",
      "outputs": [],
      "stateMutability": "nonpayable",
      "type": "function"
    },
    {
      "inputs": [
        {
          "internalType": "address",
          "name": "",
          "type": "address"
        }
      ],
      "name": "tokenDecimals",
      "outputs": [
        {
          "internalType": "uint8",
          "name": "",
          "type": "uint8"
        }
      ],
      "stateMutability": "view",
      "type": "function"
    },
    {
      "inputs": [
        {
          "internalType": "address",
          "name": "newOwner",
          "type": "address"
        }
      ],
      "name": "transferOwnership",
      "outputs": [],
      "stateMutability": "nonpayable",
      "type": "function"
    },
    {
      "inputs": [],
      "name": "transparentVaultFactory",
      "outputs": [
        {
          "internalType": "address",
          "name": "",
          "type": "address"
        }
      ],
      "stateMutability": "view",
      "type": "function"
    },
    {
      "inputs": [],
      "name": "underlyingAsset",
      "outputs": [
        {
          "internalType": "contract IERC20",
          "name": "",
          "type": "address"
        }
      ],
      "stateMutability": "view",
      "type": "function"
    },
    {
      "inputs": [],
      "name": "whitelistedAssetsLength",
      "outputs": [
        {
          "internalType": "uint16",
          "name": "",
          "type": "uint16"
        }
      ],
      "stateMutability": "view",
      "type": "function"
    }
  ],
  "bytecode": "0x60a060405234801561000f575f5ffd5b50604051611a6a380380611a6a83398101604081905261002e91610266565b826001600160a01b03811661005c57604051631e4fbdf760e01b81525f600482015260240160405180910390fd5b61006581610193565b506001600160a01b03821661008d5760405163d92e233d60e01b815260040160405180910390fd5b6001600160a01b0381166100b45760405163d92e233d60e01b815260040160405180910390fd5b6001600160a01b03828116608052600180546001600160a01b03191691831691821790556005805461ffff60a01b1916610e0960a01b1790556040805163313ce56760e01b8152905163313ce567916004808201926020929091908290030181865afa158015610126573d5f5f3e3d5ffd5b505050506040513d601f19601f8201168201806040525081019061014a91906102a6565b6001600160a01b0382165f908152600a60205260409020805460ff191660ff9290921691909117905561017e6006826101e2565b5061018a6008846101e2565b505050506102cd565b5f80546001600160a01b038381166001600160a01b0319831681178455604051919092169283917f8be0079c531659141344cd1fd0a4f28419497f9722a3daafe3b4186f6b6457e09190a35050565b5f6101f6836001600160a01b0384166101ff565b90505b92915050565b5f81815260018301602052604081205461024457508154600181810184555f8481526020808220909301849055845484825282860190935260409020919091556101f9565b505f6101f9565b80516001600160a01b0381168114610261575f5ffd5b919050565b5f5f5f60608486031215610278575f5ffd5b6102818461024b565b925061028f6020850161024b565b915061029d6040850161024b565b90509250925092565b5f602082840312156102b6575f5ffd5b815160ff811681146102c6575f5ffd5b9392505050565b6080516117776102f35f395f8181610472015281816109fb0152610b5f01526117775ff3fe608060405234801561000f575f5ffd5b506004361061019f575f3560e01c8063015df993146101a35780630a8b78c7146101cc5780632095b01e146101e157806323a06a1c146101f4578063348ec5c8146102075780633a0dad8e1461021a5780633af32abf1461022d5780633ea7fbdb1461025057806355fba94e14610263578063567ba713146102765780635f2483681461029c57806366e87e7f146102b7578063715018a6146102ca5780637158da7c146102d2578063785c7cf6146102e55780637a0cb78414610310578063849ede2314610323578063862a5f06146103365780638771de87146103495780638da5cb5b1461035c5780638ee573ac14610364578063b6dfcd8b14610386578063c30dd72714610399578063d11f1c35146103ac578063d1717c7d146103bf578063d5460ab5146103d3578063d86cd44e146103dc578063e0876b44146103f1578063e8ffccb714610404578063ed04f21814610417578063edcf9c1f1461042a578063f2fde38b14610432578063f3cc699314610445578063f764eb451461045a578063f851a4401461046d575b5f5ffd5b6005546101b6906001600160a01b031681565b6040516101c391906113ec565b60405180910390f35b6101df6101da366004611414565b610494565b005b6101df6101ef366004611414565b61050f565b6101df61020236600461142f565b61058a565b6002546101b6906001600160a01b031681565b6003546101b6906001600160a01b031681565b61024061023b366004611414565b61075d565b60405190151581526020016101c3565b6101df61025e366004611414565b61076f565b6101df610271366004611414565b61080f565b60055461028a90600160a81b900460ff1681565b60405160ff90911681526020016101c3565b6102a4610847565b60405161ffff90911681526020016101c3565b6101df6102c5366004611477565b610857565b6101df6108fb565b6001546101b6906001600160a01b031681565b61028a6102f3366004611414565b6001600160a01b03165f908152600a602052604090205460ff1690565b6101df61031e3660046114ab565b61090e565b6004546101b6906001600160a01b031681565b6101df610344366004611414565b6109f0565b610240610357366004611414565b610b3a565b6101b6610b46565b61028a610372366004611414565b600a6020525f908152604090205460ff1681565b6101df610394366004611414565b610b54565b6101df6103a7366004611414565b610d56565b6102406103ba366004611414565b610dd1565b60055461028a90600160a01b900460ff1681565b6102a461032081565b6103e4610ddd565b6040516101c391906114de565b6102406103ff366004611414565b610e90565b6101df610412366004611414565b610ead565b6103e4610425366004611529565b610f77565b610240611053565b6101df610440366004611414565b611164565b6005546102a490600160b01b900461ffff1681565b610240610468366004611414565b6111a1565b6101b67f000000000000000000000000000000000000000000000000000000000000000081565b61049c6111ad565b6001600160a01b0381166104c35760405163d92e233d60e01b815260040160405180910390fd5b6002546001600160a01b0316156104ed57604051630ea075bf60e21b815260040160405180910390fd5b600280546001600160a01b0319166001600160a01b0392909216919091179055565b6105176111ad565b6001600160a01b03811661053e5760405163d92e233d60e01b815260040160405180910390fd5b6005546001600160a01b03161561056857604051630ea075bf60e21b815260040160405180910390fd5b600580546001600160a01b0319166001600160a01b0392909216919091179055565b6105926111ad565b61059a611053565b6105b7576040516312aecd8160e01b815260040160405180910390fd5b5f6105c36006856111df565b9050806105e357604051630ea075bf60e21b815260040160405180910390fd5b836001600160a01b031663313ce5676040518163ffffffff1660e01b8152600401602060405180830381865afa15801561061f573d5f5f3e3d5ffd5b505050506040513d601f19601f820116820180604052508101906106439190611542565b6001600160a01b038581165f908152600a602052604090819020805460ff191660ff949094169390931790925560055491516302707eef60e51b8152911690634e0fdde0906106989087908790600401611562565b5f604051808303815f87803b1580156106af575f5ffd5b505af11580156106c1573d5f5f3e3d5ffd5b50506003546040516359017aa960e01b81526001600160a01b0390911692506359017aa991506106f79087908690600401611562565b5f604051808303815f87803b15801561070e575f5ffd5b505af1158015610720573d5f5f3e3d5ffd5b50506040516001600160a01b03871692507fdcbd8d9d0373041250f6c25b6b7aeccb3e9ff291e510ef85bb9f8ac09ceb6f6491505f90a250505050565b5f6107696006836111fa565b92915050565b6107776111ad565b61077f611053565b61079c576040516312aecd8160e01b815260040160405180910390fd5b6001600160a01b0381166107c35760405163d92e233d60e01b815260040160405180910390fd5b6004546001600160a01b0316156107ed57604051630ea075bf60e21b815260040160405180910390fd5b600480546001600160a01b0319166001600160a01b0392909216919091179055565b6108176111ad565b5f6108236008836111df565b90508061084357604051630ea075bf60e21b815260040160405180910390fd5b5050565b5f610852600661120e565b905090565b61085f6111ad565b610867611053565b610884576040516312aecd8160e01b815260040160405180910390fd5b61032061ffff821611156108ab576040516317dbc4cb60e21b815260040160405180910390fd5b6005805461ffff60b01b1916600160b01b61ffff84811682029290921792839055604051920416907f6c0e50288cc602be5dd504ce35358e01341e3c4f93e2e02b5a030a59bfdb84e2905f90a250565b6109036111ad565b61090c5f611217565b565b6004546001600160a01b0316331461093957604051631a27eac360e11b815260040160405180910390fd5b6001600160a01b0382166109605760405163d92e233d60e01b815260040160405180910390fd5b5f60018260018111156109755761097561157c565b0361098c57610985600d846111df565b905061099a565b610997600b846111df565b90505b806109b857604051630ea075bf60e21b815260040160405180910390fd5b6040516001600160a01b038416907f9a7094a648c0524f3d62b9167886d30be0e68cf53863fe556edda348f189445a905f90a2505050565b336001600160a01b037f00000000000000000000000000000000000000000000000000000000000000001614610a3957604051631a27eac360e11b815260040160405180910390fd5b610a41611053565b610a5e576040516312aecd8160e01b815260040160405180910390fd5b604051633821dad160e21b8152309063e0876b4490610a819084906004016113ec565b602060405180830381865afa158015610a9c573d5f5f3e3d5ffd5b505050506040513d601f19601f82011682018060405250810190610ac09190611590565b610add5760405163e6c4247b60e01b815260040160405180910390fd5b610ae8600f826111df565b50806001600160a01b031663ca78e8396040518163ffffffff1660e01b81526004015f604051808303815f87803b158015610b21575f5ffd5b505af1158015610b33573d5f5f3e3d5ffd5b5050505050565b5f6107696008836111fa565b5f546001600160a01b031690565b336001600160a01b037f00000000000000000000000000000000000000000000000000000000000000001614610b9d57604051631a27eac360e11b815260040160405180910390fd5b610ba5611053565b610bc2576040516312aecd8160e01b815260040160405180910390fd5b6001546001600160a01b0390811690821603610bf1576040516317dbc4cb60e21b815260040160405180910390fd5b5f610bfd600683611266565b905080610c28578160405163751dff9760e11b8152600401610c1f91906113ec565b60405180910390fd5b604051631da09e4360e31b81525f90309063ed04f21890610c4d9084906004016115af565b5f60405180830381865afa158015610c67573d5f5f3e3d5ffd5b505050506040513d5f823e601f3d908101601f19168201604052610c8e91908101906115f4565b90505f5b8151811015610d1d575f828281518110610cae57610cae6116be565b60200260200101519050806001600160a01b031663e3352c4c866040518263ffffffff1660e01b8152600401610ce491906113ec565b5f604051808303815f87803b158015610cfb575f5ffd5b505af1158015610d0d573d5f5f3e3d5ffd5b5050505050806001019050610c92565b506040516001600160a01b038416907f952363a786fc6f24cfb955cd6207cf91ecee3a82a7dd0bc26891ff7647b5784c905f90a2505050565b610d5e6111ad565b6001600160a01b038116610d855760405163d92e233d60e01b815260040160405180910390fd5b6003546001600160a01b031615610daf57604051630ea075bf60e21b815260040160405180910390fd5b600380546001600160a01b0319166001600160a01b0392909216919091179055565b5f610769600f836111fa565b60605f610dea600661120e565b90508061ffff166001600160401b03811115610e0857610e086115d5565b604051908082528060200260200182016040528015610e31578160200160208202803683370190505b5091505f5b8161ffff168161ffff161015610e8b57610e55600661ffff831661127a565b838261ffff1681518110610e6b57610e6b6116be565b6001600160a01b0390921660209283029190910190910152600101610e36565b505090565b5f610e9c600d836111fa565b806107695750610769600b836111fa565b6003546001600160a01b03163314610ed85760405163ea8e4eb560e01b815260040160405180910390fd5b610ee3600f826111fa565b610f005760405163e6c4247b60e01b815260040160405180910390fd5b5f610f0c600d836111fa565b15610f2557506001610f1f600d83611266565b50610f5b565b610f30600b836111fa565b15610f4257505f610f1f600b83611266565b60405163e6c4247b60e01b815260040160405180910390fd5b610f66600f83611266565b50610f726011836111df565b505050565b60605f6001836001811115610f8e57610f8e61157c565b14610f9a57600b610f9d565b600d5b90505f610fa98261120e565b90505f8161ffff166001600160401b03811115610fc857610fc86115d5565b604051908082528060200260200182016040528015610ff1578160200160208202803683370190505b5090505f5b8261ffff168161ffff16101561104a576110148461ffff831661127a565b828261ffff168151811061102a5761102a6116be565b6001600160a01b0390921660209283029190910190910152600101610ff6565b50949350505050565b5f8060035f9054906101000a90046001600160a01b03166001600160a01b031663055ad42e6040518163ffffffff1660e01b8152600401602060405180830381865afa1580156110a5573d5f5f3e3d5ffd5b505050506040513d601f19601f820116820180604052508101906110c991906116d2565b60038111156110da576110da61157c565b1480156108525750600254604080516302ad6a1760e11b815290515f926001600160a01b03169163055ad42e9160048083019260209291908290030181865afa158015611129573d5f5f3e3d5ffd5b505050506040513d601f19601f8201168201806040525081019061114d91906116f0565b600481111561115e5761115e61157c565b14905090565b61116c6111ad565b6001600160a01b038116611195575f604051631e4fbdf760e01b8152600401610c1f91906113ec565b61119e81611217565b50565b5f6107696011836111fa565b336111b6610b46565b6001600160a01b03161461090c573360405163118cdaa760e01b8152600401610c1f91906113ec565b5f6111f3836001600160a01b038416611285565b9392505050565b5f6111f3836001600160a01b0384166112cc565b5f610769825490565b5f80546001600160a01b038381166001600160a01b0319831681178455604051919092169283917f8be0079c531659141344cd1fd0a4f28419497f9722a3daafe3b4186f6b6457e09190a35050565b5f6111f3836001600160a01b0384166112e3565b5f6111f383836113c6565b5f61129083836112cc565b6112c557508154600181810184555f848152602080822090930184905584548482528286019093526040902091909155610769565b505f610769565b5f9081526001919091016020526040902054151590565b5f81815260018301602052604081205480156113bd575f61130560018361170e565b85549091505f906113189060019061170e565b9050808214611377575f865f018281548110611336576113366116be565b905f5260205f200154905080875f018481548110611356576113566116be565b5f918252602080832090910192909255918252600188019052604090208390555b85548690806113885761138861172d565b600190038181905f5260205f20015f90559055856001015f8681526020019081526020015f205f905560019350505050610769565b5f915050610769565b5f825f0182815481106113db576113db6116be565b905f5260205f200154905092915050565b6001600160a01b0391909116815260200190565b6001600160a01b038116811461119e575f5ffd5b5f60208284031215611424575f5ffd5b81356111f381611400565b5f5f5f60608486031215611441575f5ffd5b833561144c81611400565b9250602084013561145c81611400565b9150604084013561146c81611400565b809150509250925092565b5f60208284031215611487575f5ffd5b813561ffff811681146111f3575f5ffd5b8035600281106114a6575f5ffd5b919050565b5f5f604083850312156114bc575f5ffd5b82356114c781611400565b91506114d560208401611498565b90509250929050565b602080825282518282018190525f918401906040840190835b8181101561151e5783516001600160a01b03168352602093840193909201916001016114f7565b509095945050505050565b5f60208284031215611539575f5ffd5b6111f382611498565b5f60208284031215611552575f5ffd5b815160ff811681146111f3575f5ffd5b6001600160a01b0392831681529116602082015260400190565b634e487b7160e01b5f52602160045260245ffd5b5f602082840312156115a0575f5ffd5b815180151581146111f3575f5ffd5b60208101600283106115cf57634e487b7160e01b5f52602160045260245ffd5b91905290565b634e487b7160e01b5f52604160045260245ffd5b80516114a681611400565b5f60208284031215611604575f5ffd5b81516001600160401b03811115611619575f5ffd5b8201601f81018413611629575f5ffd5b80516001600160401b03811115611642576116426115d5565b604051600582901b90603f8201601f191681016001600160401b0381118282101715611670576116706115d5565b60405291825260208184018101929081018784111561168d575f5ffd5b6020850194505b838510156116b3576116a5856115e9565b815260209485019401611694565b509695505050505050565b634e487b7160e01b5f52603260045260245ffd5b5f602082840312156116e2575f5ffd5b8151600481106111f3575f5ffd5b5f60208284031215611700575f5ffd5b8151600581106111f3575f5ffd5b8181038181111561076957634e487b7160e01b5f52601160045260245ffd5b634e487b7160e01b5f52603160045260245ffdfea26469706673582212208121b8f84fcdd82ad02390d0c82dfb3e304179b06e18e196435df1ec018c3bfe64736f6c634300081c0033",
  "linkReferences": {},
  "deployedLinkReferences": {}
}