{
  "_format": "hh-sol-artifact-1",
  "contractName": "OrionConfig",
  "sourceName": "contracts/OrionConfig.sol",
  "abi": [
    {
      "inputs": [
        {
          "internalType": "address",
          "name": "target",
          "type": "address"
        }
      ],
      "name": "AddressEmptyCode",
      "type": "error"
    },
    {
      "inputs": [],
      "name": "AlreadyAnOrionVault",
      "type": "error"
    },
    {
      "inputs": [],
      "name": "AlreadyWhitelisted",
      "type": "error"
    },
    {
      "inputs": [
        {
          "internalType": "address",
          "name": "implementation",
          "type": "address"
        }
      ],
      "name": "ERC1967InvalidImplementation",
      "type": "error"
    },
    {
      "inputs": [],
      "name": "ERC1967NonPayable",
      "type": "error"
    },
    {
      "inputs": [],
      "name": "FailedCall",
      "type": "error"
    },
    {
      "inputs": [],
      "name": "InvalidAsset",
      "type": "error"
    },
    {
      "inputs": [],
      "name": "InvalidInitialization",
      "type": "error"
    },
    {
      "inputs": [],
      "name": "InvalidInternalOrchestrator",
      "type": "error"
    },
    {
      "inputs": [],
      "name": "InvalidLiquidityOrchestrator",
      "type": "error"
    },
    {
      "inputs": [],
      "name": "InvalidStatesDecimals",
      "type": "error"
    },
    {
      "inputs": [],
      "name": "NotAnOrionVault",
      "type": "error"
    },
    {
      "inputs": [],
      "name": "NotFactory",
      "type": "error"
    },
    {
      "inputs": [],
      "name": "NotInWhitelist",
      "type": "error"
    },
    {
      "inputs": [],
      "name": "NotInitializing",
      "type": "error"
    },
    {
      "inputs": [
        {
          "internalType": "address",
          "name": "owner",
          "type": "address"
        }
      ],
      "name": "OwnableInvalidOwner",
      "type": "error"
    },
    {
      "inputs": [
        {
          "internalType": "address",
          "name": "account",
          "type": "address"
        }
      ],
      "name": "OwnableUnauthorizedAccount",
      "type": "error"
    },
    {
      "inputs": [],
      "name": "UUPSUnauthorizedCallContext",
      "type": "error"
    },
    {
      "inputs": [
        {
          "internalType": "bytes32",
          "name": "slot",
          "type": "bytes32"
        }
      ],
      "name": "UUPSUnsupportedProxiableUUID",
      "type": "error"
    },
    {
      "inputs": [],
      "name": "ZeroAddress",
      "type": "error"
    },
    {
      "anonymous": false,
      "inputs": [
        {
          "indexed": false,
          "internalType": "uint64",
          "name": "version",
          "type": "uint64"
        }
      ],
      "name": "Initialized",
      "type": "event"
    },
    {
      "anonymous": false,
      "inputs": [
        {
          "indexed": true,
          "internalType": "address",
          "name": "vault",
          "type": "address"
        }
      ],
      "name": "OrionVaultAdded",
      "type": "event"
    },
    {
      "anonymous": false,
      "inputs": [
        {
          "indexed": true,
          "internalType": "address",
          "name": "vault",
          "type": "address"
        }
      ],
      "name": "OrionVaultRemoved",
      "type": "event"
    },
    {
      "anonymous": false,
      "inputs": [
        {
          "indexed": true,
          "internalType": "address",
          "name": "previousOwner",
          "type": "address"
        },
        {
          "indexed": true,
          "internalType": "address",
          "name": "newOwner",
          "type": "address"
        }
      ],
      "name": "OwnershipTransferStarted",
      "type": "event"
    },
    {
      "anonymous": false,
      "inputs": [
        {
          "indexed": true,
          "internalType": "address",
          "name": "previousOwner",
          "type": "address"
        },
        {
          "indexed": true,
          "internalType": "address",
          "name": "newOwner",
          "type": "address"
        }
      ],
      "name": "OwnershipTransferred",
      "type": "event"
    },
    {
      "anonymous": false,
      "inputs": [
        {
          "indexed": false,
          "internalType": "address",
          "name": "underlyingAsset",
          "type": "address"
        },
        {
          "indexed": false,
          "internalType": "address",
          "name": "internalStatesOrchestrator",
          "type": "address"
        },
        {
          "indexed": false,
          "internalType": "address",
          "name": "liquidityOrchestrator",
          "type": "address"
        },
        {
          "indexed": false,
          "internalType": "uint8",
          "name": "statesDecimals",
          "type": "uint8"
        },
        {
          "indexed": false,
          "internalType": "uint8",
          "name": "curatorIntentDecimals",
          "type": "uint8"
        },
        {
          "indexed": false,
          "internalType": "address",
          "name": "factory",
          "type": "address"
        },
        {
          "indexed": false,
          "internalType": "address",
          "name": "oracleRegistry",
          "type": "address"
        }
      ],
      "name": "ProtocolParamsUpdated",
      "type": "event"
    },
    {
      "anonymous": false,
      "inputs": [
        {
          "indexed": true,
          "internalType": "address",
          "name": "implementation",
          "type": "address"
        }
      ],
      "name": "Upgraded",
      "type": "event"
    },
    {
      "anonymous": false,
      "inputs": [
        {
          "indexed": true,
          "internalType": "address",
          "name": "asset",
          "type": "address"
        }
      ],
      "name": "WhitelistedAssetAdded",
      "type": "event"
    },
    {
      "anonymous": false,
      "inputs": [
        {
          "indexed": true,
          "internalType": "address",
          "name": "asset",
          "type": "address"
        }
      ],
      "name": "WhitelistedAssetRemoved",
      "type": "event"
    },
    {
      "inputs": [],
      "name": "UPGRADE_INTERFACE_VERSION",
      "outputs": [
        {
          "internalType": "string",
          "name": "",
          "type": "string"
        }
      ],
      "stateMutability": "view",
      "type": "function"
    },
    {
      "inputs": [],
      "name": "acceptOwnership",
      "outputs": [],
      "stateMutability": "nonpayable",
      "type": "function"
    },
    {
      "inputs": [
        {
          "internalType": "address",
          "name": "vault",
          "type": "address"
        },
        {
          "internalType": "bool",
          "name": "encrypted",
          "type": "bool"
        }
      ],
      "name": "addOrionVault",
      "outputs": [],
      "stateMutability": "nonpayable",
      "type": "function"
    },
    {
      "inputs": [
        {
          "internalType": "address",
          "name": "asset",
          "type": "address"
        }
      ],
      "name": "addWhitelistedAsset",
      "outputs": [],
      "stateMutability": "nonpayable",
      "type": "function"
    },
    {
      "inputs": [],
      "name": "curatorIntentDecimals",
      "outputs": [
        {
          "internalType": "uint8",
          "name": "",
          "type": "uint8"
        }
      ],
      "stateMutability": "view",
      "type": "function"
    },
    {
      "inputs": [
        {
          "internalType": "bool",
          "name": "encrypted",
          "type": "bool"
        }
      ],
      "name": "getAllOrionVaults",
      "outputs": [
        {
          "internalType": "address[]",
          "name": "",
          "type": "address[]"
        }
      ],
      "stateMutability": "view",
      "type": "function"
    },
    {
      "inputs": [],
      "name": "getAllWhitelistedAssets",
      "outputs": [
        {
          "internalType": "address[]",
          "name": "assets",
          "type": "address[]"
        }
      ],
      "stateMutability": "view",
      "type": "function"
    },
    {
      "inputs": [
        {
          "internalType": "uint256",
          "name": "index",
          "type": "uint256"
        }
      ],
      "name": "getWhitelistedAssetAt",
      "outputs": [
        {
          "internalType": "address",
          "name": "",
          "type": "address"
        }
      ],
      "stateMutability": "view",
      "type": "function"
    },
    {
      "inputs": [
        {
          "internalType": "address",
          "name": "initialOwner",
          "type": "address"
        }
      ],
      "name": "initialize",
      "outputs": [],
      "stateMutability": "nonpayable",
      "type": "function"
    },
    {
      "inputs": [],
      "name": "internalStatesOrchestrator",
      "outputs": [
        {
          "internalType": "address",
          "name": "",
          "type": "address"
        }
      ],
      "stateMutability": "view",
      "type": "function"
    },
    {
      "inputs": [
        {
          "internalType": "address",
          "name": "asset",
          "type": "address"
        }
      ],
      "name": "isWhitelisted",
      "outputs": [
        {
          "internalType": "bool",
          "name": "",
          "type": "bool"
        }
      ],
      "stateMutability": "view",
      "type": "function"
    },
    {
      "inputs": [],
      "name": "liquidityOrchestrator",
      "outputs": [
        {
          "internalType": "address",
          "name": "",
          "type": "address"
        }
      ],
      "stateMutability": "view",
      "type": "function"
    },
    {
      "inputs": [],
      "name": "oracleRegistry",
      "outputs": [
        {
          "internalType": "address",
          "name": "",
          "type": "address"
        }
      ],
      "stateMutability": "view",
      "type": "function"
    },
    {
      "inputs": [],
      "name": "owner",
      "outputs": [
        {
          "internalType": "address",
          "name": "",
          "type": "address"
        }
      ],
      "stateMutability": "view",
      "type": "function"
    },
    {
      "inputs": [],
      "name": "pendingOwner",
      "outputs": [
        {
          "internalType": "address",
          "name": "",
          "type": "address"
        }
      ],
      "stateMutability": "view",
      "type": "function"
    },
    {
      "inputs": [],
      "name": "proxiableUUID",
      "outputs": [
        {
          "internalType": "bytes32",
          "name": "",
          "type": "bytes32"
        }
      ],
      "stateMutability": "view",
      "type": "function"
    },
    {
      "inputs": [
        {
          "internalType": "address",
          "name": "vault",
          "type": "address"
        },
        {
          "internalType": "bool",
          "name": "encrypted",
          "type": "bool"
        }
      ],
      "name": "removeOrionVault",
      "outputs": [],
      "stateMutability": "nonpayable",
      "type": "function"
    },
    {
      "inputs": [
        {
          "internalType": "address",
          "name": "asset",
          "type": "address"
        }
      ],
      "name": "removeWhitelistedAsset",
      "outputs": [],
      "stateMutability": "nonpayable",
      "type": "function"
    },
    {
      "inputs": [],
      "name": "renounceOwnership",
      "outputs": [],
      "stateMutability": "nonpayable",
      "type": "function"
    },
    {
      "inputs": [
        {
          "internalType": "address",
          "name": "underlyingAsset_",
          "type": "address"
        },
        {
          "internalType": "address",
          "name": "internalStatesOrchestrator_",
          "type": "address"
        },
        {
          "internalType": "address",
          "name": "liquidityOrchestrator_",
          "type": "address"
        },
        {
          "internalType": "uint8",
          "name": "statesDecimals_",
          "type": "uint8"
        },
        {
          "internalType": "uint8",
          "name": "curatorIntentDecimals_",
          "type": "uint8"
        },
        {
          "internalType": "address",
          "name": "factory_",
          "type": "address"
        },
        {
          "internalType": "address",
          "name": "oracleRegistry_",
          "type": "address"
        }
      ],
      "name": "setProtocolParams",
      "outputs": [],
      "stateMutability": "nonpayable",
      "type": "function"
    },
    {
      "inputs": [],
      "name": "statesDecimals",
      "outputs": [
        {
          "internalType": "uint8",
          "name": "",
          "type": "uint8"
        }
      ],
      "stateMutability": "view",
      "type": "function"
    },
    {
      "inputs": [
        {
          "internalType": "address",
          "name": "newOwner",
          "type": "address"
        }
      ],
      "name": "transferOwnership",
      "outputs": [],
      "stateMutability": "nonpayable",
      "type": "function"
    },
    {
      "inputs": [],
      "name": "underlyingAsset",
      "outputs": [
        {
          "internalType": "contract IERC20",
          "name": "",
          "type": "address"
        }
      ],
      "stateMutability": "view",
      "type": "function"
    },
    {
      "inputs": [
        {
          "internalType": "address",
          "name": "newImplementation",
          "type": "address"
        },
        {
          "internalType": "bytes",
          "name": "data",
          "type": "bytes"
        }
      ],
      "name": "upgradeToAndCall",
      "outputs": [],
      "stateMutability": "payable",
      "type": "function"
    },
    {
      "inputs": [],
      "name": "vaultFactory",
      "outputs": [
        {
          "internalType": "address",
          "name": "",
          "type": "address"
        }
      ],
      "stateMutability": "view",
      "type": "function"
    },
    {
      "inputs": [],
      "name": "whitelistedAssetsLength",
      "outputs": [
        {
          "internalType": "uint256",
          "name": "",
          "type": "uint256"
        }
      ],
      "stateMutability": "view",
      "type": "function"
    }
  ],
  "bytecode": "0x60a0604052306080523480156012575f80fd5b506080516117696100395f395f8181610dc201528181610deb0152610f2f01526117695ff3fe60806040526004361061017b575f3560e01c80638cf35649116100cd578063c4d66de811610087578063d86cd44e11610062578063d86cd44e14610461578063d8a06f7314610475578063e30c397814610494578063f2fde38b146104a8575f80fd5b8063c4d66de814610403578063d1717c7d14610422578063d43d6c8b14610442575f80fd5b80638cf35649146103165780638da5cb5b14610342578063ad3cb1cc14610356578063b6dfcd8b14610393578063b71ee4fc146103b2578063bfba8f66146103e4575f80fd5b80634f1ef28611610138578063715018a611610113578063715018a6146102b15780637158da7c146102c557806379ba5097146102e35780638713a4b5146102f7575f80fd5b80634f1ef2861461026857806352d1902d1461027b5780635f2483681461029d575f80fd5b80630a567a2d1461017f578063348ec5c8146101bb5780633a0dad8e146101da5780633af32abf146101f95780634bb93ab1146102285780634dd437f814610247575b5f80fd5b34801561018a575f80fd5b5061019e6101993660046113f5565b6104c7565b6040516001600160a01b0390911681526020015b60405180910390f35b3480156101c6575f80fd5b5060015461019e906001600160a01b031681565b3480156101e5575f80fd5b5060025461019e906001600160a01b031681565b348015610204575f80fd5b50610218610213366004611427565b6104d9565b60405190151581526020016101b2565b348015610233575f80fd5b5060045461019e906001600160a01b031681565b348015610252575f80fd5b5061026661026136600461144f565b6104e5565b005b610266610276366004611494565b6105b4565b348015610286575f80fd5b5061028f6105d3565b6040519081526020016101b2565b3480156102a8575f80fd5b5061028f6105ee565b3480156102bc575f80fd5b506102666105fe565b3480156102d0575f80fd5b505f5461019e906001600160a01b031681565b3480156102ee575f80fd5b50610266610611565b348015610302575f80fd5b5061026661031136600461144f565b61065e565b348015610321575f80fd5b50610335610330366004611558565b610706565b6040516101b29190611571565b34801561034d575f80fd5b5061019e6107bb565b348015610361575f80fd5b50610386604051806040016040528060058152602001640352e302e360dc1b81525081565b6040516101b291906115bc565b34801561039e575f80fd5b506102666103ad366004611427565b6107ef565b3480156103bd575f80fd5b506004546103d290600160a01b900460ff1681565b60405160ff90911681526020016101b2565b3480156103ef575f80fd5b506102666103fe366004611427565b61085a565b34801561040e575f80fd5b5061026661041d366004611427565b6108c5565b34801561042d575f80fd5b506004546103d290600160a81b900460ff1681565b34801561044d575f80fd5b5061026661045c3660046115ff565b6109ce565b34801561046c575f80fd5b50610335610c23565b348015610480575f80fd5b5060035461019e906001600160a01b031681565b34801561049f575f80fd5b5061019e610cc3565b3480156104b3575f80fd5b506102666104c2366004611427565b610ceb565b5f6104d3600583610d70565b92915050565b5f6104d3600583610d82565b6003546001600160a01b0316331461051057604051631966391b60e11b815260040160405180910390fd5b6001600160a01b0382166105375760405163d92e233d60e01b815260040160405180910390fd5b5f811561055057610549600984610da3565b905061055e565b61055b600784610da3565b90505b8061057c57604051633c0c06e960e21b815260040160405180910390fd5b6040516001600160a01b038416907f9a7094a648c0524f3d62b9167886d30be0e68cf53863fe556edda348f189445a905f90a2505050565b6105bc610db7565b6105c582610e5b565b6105cf8282610e63565b5050565b5f6105dc610f24565b505f8051602061171483398151915290565b5f6105f96005610f6d565b905090565b610606610f76565b61060f5f610fa8565b565b338061061b610cc3565b6001600160a01b0316146106525760405163118cdaa760e01b81526001600160a01b03821660048201526024015b60405180910390fd5b61065b81610fa8565b50565b6003546001600160a01b0316331461068957604051631966391b60e11b815260040160405180910390fd5b5f81156106a25761069b600984610fe0565b90506106b0565b6106ad600784610fe0565b90505b806106ce57604051632fa1facb60e01b815260040160405180910390fd5b6040516001600160a01b038416907fe47da341e0fc63816c1254f1c35425f69460f49342668d11c984ea56762b00d4905f90a2505050565b60605f82610715576007610718565b60095b90505f61072482610f6d565b90505f8167ffffffffffffffff81111561074057610740611480565b604051908082528060200260200182016040528015610769578160200160208202803683370190505b5090505f5b828110156107b2576107808482610d70565b82828151811061079257610792611684565b6001600160a01b039092166020928302919091019091015260010161076e565b50949350505050565b5f807f9016d09d72d40fdae2fd8ceac6b6234c7706214fd39c1cd1e609a0528c1993005b546001600160a01b031692915050565b6107f7610f76565b5f610803600583610fe0565b90508061082357604051632d85515d60e11b815260040160405180910390fd5b6040516001600160a01b038316907f952363a786fc6f24cfb955cd6207cf91ecee3a82a7dd0bc26891ff7647b5784c905f90a25050565b610862610f76565b5f61086e600583610da3565b90508061088e5760405163b73e95e160e01b815260040160405180910390fd5b6040516001600160a01b038316907fdcbd8d9d0373041250f6c25b6b7aeccb3e9ff291e510ef85bb9f8ac09ceb6f64905f90a25050565b5f6108ce610ff4565b805490915060ff600160401b820416159067ffffffffffffffff165f811580156108f55750825b90505f8267ffffffffffffffff1660011480156109115750303b155b90508115801561091f575080155b1561093d5760405163f92ee8a960e01b815260040160405180910390fd5b845467ffffffffffffffff19166001178555831561096757845460ff60401b1916600160401b1785555b61096f61101c565b61097761101c565b61098086610fa8565b83156109c657845460ff60401b19168555604051600181527fc7f505b2f371ae2175ee4913f4499e1f2633a7b5936321eed1cdaeb6115181d29060200160405180910390a15b505050505050565b6109d6610f76565b6001600160a01b0387166109fd57604051636448d6e960e11b815260040160405180910390fd5b6001600160a01b038616610a2457604051635c1de4f160e01b815260040160405180910390fd5b6001600160a01b038516610a4b5760405163c4a0c25d60e01b815260040160405180910390fd5b6001600160a01b038216610a725760405163d92e233d60e01b815260040160405180910390fd5b6001600160a01b038116610a995760405163d92e233d60e01b815260040160405180910390fd5b5f80546001600160a01b03199081166001600160a01b038a811691821784556001805484168b831617905560028054909316908916179091556040805163313ce56760e01b8152905163313ce567916004808201926020929091908290030181865afa158015610b0b573d5f803e3d5ffd5b505050506040513d601f19601f82011682018060405250810190610b2f9190611698565b90508060ff168560ff161015610b585760405163225dd91960e21b815260040160405180910390fd5b60048054600380546001600160a01b03199081166001600160a01b0388811691821790935561ffff60a01b19909316600160a01b60ff8b811691820260ff60a81b191692909217600160a81b928b1692830217909216878416908117909555604080518e851681528d85166020820152938c16908401526060830191909152608082015260a081019190915260c08101919091527f8a0153a4883536422ad293b760b91c5302e0bb3866365d362b85ede28acb51129060e00160405180910390a15050505050505050565b60605f610c306005610f6d565b90508067ffffffffffffffff811115610c4b57610c4b611480565b604051908082528060200260200182016040528015610c74578160200160208202803683370190505b5091505f5b81811015610cbe57610c8c600582610d70565b838281518110610c9e57610c9e611684565b6001600160a01b0390921660209283029190910190910152600101610c79565b505090565b5f807f237e158222e3e6968b72b9db0d8043aacf074ad9f650f0d1606b4d82ee432c006107df565b610cf3610f76565b7f237e158222e3e6968b72b9db0d8043aacf074ad9f650f0d1606b4d82ee432c0080546001600160a01b0319166001600160a01b0383169081178255610d376107bb565b6001600160a01b03167f38d16b8cac22d99fc7c124b9cd0de2d3fa1faef420bfe791d8c362d765e2270060405160405180910390a35050565b5f610d7b8383611024565b9392505050565b6001600160a01b0381165f9081526001830160205260408120541515610d7b565b5f610d7b836001600160a01b03841661104a565b306001600160a01b037f0000000000000000000000000000000000000000000000000000000000000000161480610e3d57507f00000000000000000000000000000000000000000000000000000000000000006001600160a01b0316610e315f80516020611714833981519152546001600160a01b031690565b6001600160a01b031614155b1561060f5760405163703e46dd60e11b815260040160405180910390fd5b61065b610f76565b816001600160a01b03166352d1902d6040518163ffffffff1660e01b8152600401602060405180830381865afa925050508015610ebd575060408051601f3d908101601f19168201909252610eba918101906116b3565b60015b610ee557604051634c9c8ce360e01b81526001600160a01b0383166004820152602401610649565b5f805160206117148339815191528114610f1557604051632a87526960e21b815260048101829052602401610649565b610f1f8383611096565b505050565b306001600160a01b037f0000000000000000000000000000000000000000000000000000000000000000161461060f5760405163703e46dd60e11b815260040160405180910390fd5b5f6104d3825490565b33610f7f6107bb565b6001600160a01b03161461060f5760405163118cdaa760e01b8152336004820152602401610649565b7f237e158222e3e6968b72b9db0d8043aacf074ad9f650f0d1606b4d82ee432c0080546001600160a01b03191681556105cf826110eb565b5f610d7b836001600160a01b03841661115b565b5f807ff0c57e16840df040f15088dc2f81fe391c3923bec73e23a9662efc9c229c6a006104d3565b61060f61123e565b5f825f01828154811061103957611039611684565b905f5260205f200154905092915050565b5f81815260018301602052604081205461108f57508154600181810184555f8481526020808220909301849055845484825282860190935260409020919091556104d3565b505f6104d3565b61109f82611263565b6040516001600160a01b038316907fbc7cd75a20ee27fd9adebab32041f755214dbc6bffa90cc0225b39da2e5c2d3b905f90a28051156110e357610f1f82826112c6565b6105cf611338565b7f9016d09d72d40fdae2fd8ceac6b6234c7706214fd39c1cd1e609a0528c19930080546001600160a01b031981166001600160a01b03848116918217845560405192169182907f8be0079c531659141344cd1fd0a4f28419497f9722a3daafe3b4186f6b6457e0905f90a3505050565b5f8181526001830160205260408120548015611235575f61117d6001836116ca565b85549091505f90611190906001906116ca565b90508082146111ef575f865f0182815481106111ae576111ae611684565b905f5260205f200154905080875f0184815481106111ce576111ce611684565b5f918252602080832090910192909255918252600188019052604090208390555b8554869080611200576112006116e9565b600190038181905f5260205f20015f90559055856001015f8681526020019081526020015f205f9055600193505050506104d3565b5f9150506104d3565b611246611357565b61060f57604051631afcd79f60e31b815260040160405180910390fd5b806001600160a01b03163b5f0361129857604051634c9c8ce360e01b81526001600160a01b0382166004820152602401610649565b5f8051602061171483398151915280546001600160a01b0319166001600160a01b0392909216919091179055565b60605f80846001600160a01b0316846040516112e291906116fd565b5f60405180830381855af49150503d805f811461131a576040519150601f19603f3d011682016040523d82523d5f602084013e61131f565b606091505b509150915061132f858383611370565b95945050505050565b341561060f5760405163b398979f60e01b815260040160405180910390fd5b5f611360610ff4565b54600160401b900460ff16919050565b60608261138557611380826113cc565b610d7b565b815115801561139c57506001600160a01b0384163b155b156113c557604051639996b31560e01b81526001600160a01b0385166004820152602401610649565b5092915050565b8051156113dc5780518082602001fd5b60405163d6bda27560e01b815260040160405180910390fd5b5f60208284031215611405575f80fd5b5035919050565b80356001600160a01b0381168114611422575f80fd5b919050565b5f60208284031215611437575f80fd5b610d7b8261140c565b80358015158114611422575f80fd5b5f8060408385031215611460575f80fd5b6114698361140c565b915061147760208401611440565b90509250929050565b634e487b7160e01b5f52604160045260245ffd5b5f80604083850312156114a5575f80fd5b6114ae8361140c565b9150602083013567ffffffffffffffff8111156114c9575f80fd5b8301601f810185136114d9575f80fd5b803567ffffffffffffffff8111156114f3576114f3611480565b604051601f8201601f19908116603f0116810167ffffffffffffffff8111828210171561152257611522611480565b604052818152828201602001871015611539575f80fd5b816020840160208301375f602083830101528093505050509250929050565b5f60208284031215611568575f80fd5b610d7b82611440565b602080825282518282018190525f918401906040840190835b818110156115b15783516001600160a01b031683526020938401939092019160010161158a565b509095945050505050565b602081525f82518060208401528060208501604085015e5f604082850101526040601f19601f83011684010191505092915050565b60ff8116811461065b575f80fd5b5f805f805f805f60e0888a031215611615575f80fd5b61161e8861140c565b965061162c6020890161140c565b955061163a6040890161140c565b9450606088013561164a816115f1565b9350608088013561165a816115f1565b925061166860a0890161140c565b915061167660c0890161140c565b905092959891949750929550565b634e487b7160e01b5f52603260045260245ffd5b5f602082840312156116a8575f80fd5b8151610d7b816115f1565b5f602082840312156116c3575f80fd5b5051919050565b818103818111156104d357634e487b7160e01b5f52601160045260245ffd5b634e487b7160e01b5f52603160045260245ffd5b5f82518060208501845e5f92019182525091905056fe360894a13ba1a3210667c828492db98dca3e2076cc3735a920a3ca505d382bbca2646970667358221220cabc475fc12f3a125861eef6f369c00e26b61d320b49444ecc4bd6a34bef408064736f6c634300081a0033",
  "linkReferences": {},
  "deployedLinkReferences": {}
}