{
  "_format": "hh-sol-artifact-1",
  "contractName": "OrionConfig",
  "sourceName": "contracts/OrionConfig.sol",
  "abi": [
    {
      "inputs": [
        {
          "internalType": "address",
          "name": "target",
          "type": "address"
        }
      ],
      "name": "AddressEmptyCode",
      "type": "error"
    },
    {
      "inputs": [],
      "name": "AlreadyAnOrionVault",
      "type": "error"
    },
    {
      "inputs": [],
      "name": "AlreadyWhitelisted",
      "type": "error"
    },
    {
      "inputs": [
        {
          "internalType": "address",
          "name": "implementation",
          "type": "address"
        }
      ],
      "name": "ERC1967InvalidImplementation",
      "type": "error"
    },
    {
      "inputs": [],
      "name": "ERC1967NonPayable",
      "type": "error"
    },
    {
      "inputs": [],
      "name": "FailedCall",
      "type": "error"
    },
    {
      "inputs": [],
      "name": "InvalidAsset",
      "type": "error"
    },
    {
      "inputs": [],
      "name": "InvalidInitialization",
      "type": "error"
    },
    {
      "inputs": [],
      "name": "InvalidInternalOrchestrator",
      "type": "error"
    },
    {
      "inputs": [],
      "name": "InvalidLiquidityOrchestrator",
      "type": "error"
    },
    {
      "inputs": [],
      "name": "InvalidStatesDecimals",
      "type": "error"
    },
    {
      "inputs": [],
      "name": "NotAnOrionVault",
      "type": "error"
    },
    {
      "inputs": [],
      "name": "NotFactory",
      "type": "error"
    },
    {
      "inputs": [],
      "name": "NotInWhitelist",
      "type": "error"
    },
    {
      "inputs": [],
      "name": "NotInitializing",
      "type": "error"
    },
    {
      "inputs": [
        {
          "internalType": "address",
          "name": "owner",
          "type": "address"
        }
      ],
      "name": "OwnableInvalidOwner",
      "type": "error"
    },
    {
      "inputs": [
        {
          "internalType": "address",
          "name": "account",
          "type": "address"
        }
      ],
      "name": "OwnableUnauthorizedAccount",
      "type": "error"
    },
    {
      "inputs": [],
      "name": "UUPSUnauthorizedCallContext",
      "type": "error"
    },
    {
      "inputs": [
        {
          "internalType": "bytes32",
          "name": "slot",
          "type": "bytes32"
        }
      ],
      "name": "UUPSUnsupportedProxiableUUID",
      "type": "error"
    },
    {
      "inputs": [],
      "name": "ZeroAddress",
      "type": "error"
    },
    {
      "anonymous": false,
      "inputs": [
        {
          "indexed": false,
          "internalType": "uint64",
          "name": "version",
          "type": "uint64"
        }
      ],
      "name": "Initialized",
      "type": "event"
    },
    {
      "anonymous": false,
      "inputs": [
        {
          "indexed": true,
          "internalType": "address",
          "name": "vault",
          "type": "address"
        }
      ],
      "name": "OrionVaultAdded",
      "type": "event"
    },
    {
      "anonymous": false,
      "inputs": [
        {
          "indexed": true,
          "internalType": "address",
          "name": "vault",
          "type": "address"
        }
      ],
      "name": "OrionVaultRemoved",
      "type": "event"
    },
    {
      "anonymous": false,
      "inputs": [
        {
          "indexed": true,
          "internalType": "address",
          "name": "previousOwner",
          "type": "address"
        },
        {
          "indexed": true,
          "internalType": "address",
          "name": "newOwner",
          "type": "address"
        }
      ],
      "name": "OwnershipTransferStarted",
      "type": "event"
    },
    {
      "anonymous": false,
      "inputs": [
        {
          "indexed": true,
          "internalType": "address",
          "name": "previousOwner",
          "type": "address"
        },
        {
          "indexed": true,
          "internalType": "address",
          "name": "newOwner",
          "type": "address"
        }
      ],
      "name": "OwnershipTransferred",
      "type": "event"
    },
    {
      "anonymous": false,
      "inputs": [
        {
          "indexed": false,
          "internalType": "address",
          "name": "underlyingAsset",
          "type": "address"
        },
        {
          "indexed": false,
          "internalType": "address",
          "name": "internalStatesOrchestrator",
          "type": "address"
        },
        {
          "indexed": false,
          "internalType": "address",
          "name": "liquidityOrchestrator",
          "type": "address"
        },
        {
          "indexed": false,
          "internalType": "uint8",
          "name": "statesDecimals",
          "type": "uint8"
        },
        {
          "indexed": false,
          "internalType": "uint8",
          "name": "curatorIntentDecimals",
          "type": "uint8"
        },
        {
          "indexed": false,
          "internalType": "address",
          "name": "factory",
          "type": "address"
        },
        {
          "indexed": false,
          "internalType": "address",
          "name": "oracleRegistry",
          "type": "address"
        }
      ],
      "name": "ProtocolParamsUpdated",
      "type": "event"
    },
    {
      "anonymous": false,
      "inputs": [
        {
          "indexed": true,
          "internalType": "address",
          "name": "implementation",
          "type": "address"
        }
      ],
      "name": "Upgraded",
      "type": "event"
    },
    {
      "anonymous": false,
      "inputs": [
        {
          "indexed": true,
          "internalType": "address",
          "name": "asset",
          "type": "address"
        }
      ],
      "name": "WhitelistedAssetAdded",
      "type": "event"
    },
    {
      "anonymous": false,
      "inputs": [
        {
          "indexed": true,
          "internalType": "address",
          "name": "asset",
          "type": "address"
        }
      ],
      "name": "WhitelistedAssetRemoved",
      "type": "event"
    },
    {
      "inputs": [],
      "name": "UPGRADE_INTERFACE_VERSION",
      "outputs": [
        {
          "internalType": "string",
          "name": "",
          "type": "string"
        }
      ],
      "stateMutability": "view",
      "type": "function"
    },
    {
      "inputs": [],
      "name": "acceptOwnership",
      "outputs": [],
      "stateMutability": "nonpayable",
      "type": "function"
    },
    {
      "inputs": [
        {
          "internalType": "address",
          "name": "vault",
          "type": "address"
        }
      ],
      "name": "addOrionVault",
      "outputs": [],
      "stateMutability": "nonpayable",
      "type": "function"
    },
    {
      "inputs": [
        {
          "internalType": "address",
          "name": "asset",
          "type": "address"
        }
      ],
      "name": "addWhitelistedAsset",
      "outputs": [],
      "stateMutability": "nonpayable",
      "type": "function"
    },
    {
      "inputs": [],
      "name": "curatorIntentDecimals",
      "outputs": [
        {
          "internalType": "uint8",
          "name": "",
          "type": "uint8"
        }
      ],
      "stateMutability": "view",
      "type": "function"
    },
    {
      "inputs": [],
      "name": "getAllOrionVaults",
      "outputs": [
        {
          "internalType": "address[]",
          "name": "",
          "type": "address[]"
        }
      ],
      "stateMutability": "view",
      "type": "function"
    },
    {
      "inputs": [],
      "name": "getAllWhitelistedAssets",
      "outputs": [
        {
          "internalType": "address[]",
          "name": "assets",
          "type": "address[]"
        }
      ],
      "stateMutability": "view",
      "type": "function"
    },
    {
      "inputs": [],
      "name": "getVaultStates",
      "outputs": [
        {
          "internalType": "address[]",
          "name": "vaults",
          "type": "address[]"
        },
        {
          "internalType": "uint256[]",
          "name": "totalAssets",
          "type": "uint256[]"
        },
        {
          "internalType": "uint256[]",
          "name": "depositRequests",
          "type": "uint256[]"
        },
        {
          "internalType": "uint256[]",
          "name": "withdrawRequests",
          "type": "uint256[]"
        }
      ],
      "stateMutability": "view",
      "type": "function"
    },
    {
      "inputs": [
        {
          "internalType": "uint256",
          "name": "index",
          "type": "uint256"
        }
      ],
      "name": "getWhitelistedAssetAt",
      "outputs": [
        {
          "internalType": "address",
          "name": "",
          "type": "address"
        }
      ],
      "stateMutability": "view",
      "type": "function"
    },
    {
      "inputs": [
        {
          "internalType": "address",
          "name": "initialOwner",
          "type": "address"
        }
      ],
      "name": "initialize",
      "outputs": [],
      "stateMutability": "nonpayable",
      "type": "function"
    },
    {
      "inputs": [],
      "name": "internalStatesOrchestrator",
      "outputs": [
        {
          "internalType": "address",
          "name": "",
          "type": "address"
        }
      ],
      "stateMutability": "view",
      "type": "function"
    },
    {
      "inputs": [
        {
          "internalType": "address",
          "name": "asset",
          "type": "address"
        }
      ],
      "name": "isWhitelisted",
      "outputs": [
        {
          "internalType": "bool",
          "name": "",
          "type": "bool"
        }
      ],
      "stateMutability": "view",
      "type": "function"
    },
    {
      "inputs": [],
      "name": "liquidityOrchestrator",
      "outputs": [
        {
          "internalType": "address",
          "name": "",
          "type": "address"
        }
      ],
      "stateMutability": "view",
      "type": "function"
    },
    {
      "inputs": [],
      "name": "oracleRegistry",
      "outputs": [
        {
          "internalType": "address",
          "name": "",
          "type": "address"
        }
      ],
      "stateMutability": "view",
      "type": "function"
    },
    {
      "inputs": [],
      "name": "owner",
      "outputs": [
        {
          "internalType": "address",
          "name": "",
          "type": "address"
        }
      ],
      "stateMutability": "view",
      "type": "function"
    },
    {
      "inputs": [],
      "name": "pendingOwner",
      "outputs": [
        {
          "internalType": "address",
          "name": "",
          "type": "address"
        }
      ],
      "stateMutability": "view",
      "type": "function"
    },
    {
      "inputs": [],
      "name": "proxiableUUID",
      "outputs": [
        {
          "internalType": "bytes32",
          "name": "",
          "type": "bytes32"
        }
      ],
      "stateMutability": "view",
      "type": "function"
    },
    {
      "inputs": [
        {
          "internalType": "address",
          "name": "vault",
          "type": "address"
        }
      ],
      "name": "removeOrionVault",
      "outputs": [],
      "stateMutability": "nonpayable",
      "type": "function"
    },
    {
      "inputs": [
        {
          "internalType": "address",
          "name": "asset",
          "type": "address"
        }
      ],
      "name": "removeWhitelistedAsset",
      "outputs": [],
      "stateMutability": "nonpayable",
      "type": "function"
    },
    {
      "inputs": [],
      "name": "renounceOwnership",
      "outputs": [],
      "stateMutability": "nonpayable",
      "type": "function"
    },
    {
      "inputs": [
        {
          "internalType": "address",
          "name": "underlyingAsset_",
          "type": "address"
        },
        {
          "internalType": "address",
          "name": "internalStatesOrchestrator_",
          "type": "address"
        },
        {
          "internalType": "address",
          "name": "liquidityOrchestrator_",
          "type": "address"
        },
        {
          "internalType": "uint8",
          "name": "statesDecimals_",
          "type": "uint8"
        },
        {
          "internalType": "uint8",
          "name": "curatorIntentDecimals_",
          "type": "uint8"
        },
        {
          "internalType": "address",
          "name": "factory_",
          "type": "address"
        },
        {
          "internalType": "address",
          "name": "oracleRegistry_",
          "type": "address"
        }
      ],
      "name": "setProtocolParams",
      "outputs": [],
      "stateMutability": "nonpayable",
      "type": "function"
    },
    {
      "inputs": [],
      "name": "statesDecimals",
      "outputs": [
        {
          "internalType": "uint8",
          "name": "",
          "type": "uint8"
        }
      ],
      "stateMutability": "view",
      "type": "function"
    },
    {
      "inputs": [
        {
          "internalType": "address",
          "name": "newOwner",
          "type": "address"
        }
      ],
      "name": "transferOwnership",
      "outputs": [],
      "stateMutability": "nonpayable",
      "type": "function"
    },
    {
      "inputs": [],
      "name": "underlyingAsset",
      "outputs": [
        {
          "internalType": "contract IERC20",
          "name": "",
          "type": "address"
        }
      ],
      "stateMutability": "view",
      "type": "function"
    },
    {
      "inputs": [
        {
          "internalType": "address",
          "name": "newImplementation",
          "type": "address"
        },
        {
          "internalType": "bytes",
          "name": "data",
          "type": "bytes"
        }
      ],
      "name": "upgradeToAndCall",
      "outputs": [],
      "stateMutability": "payable",
      "type": "function"
    },
    {
      "inputs": [],
      "name": "vaultFactory",
      "outputs": [
        {
          "internalType": "address",
          "name": "",
          "type": "address"
        }
      ],
      "stateMutability": "view",
      "type": "function"
    },
    {
      "inputs": [],
      "name": "whitelistedAssetsLength",
      "outputs": [
        {
          "internalType": "uint256",
          "name": "",
          "type": "uint256"
        }
      ],
      "stateMutability": "view",
      "type": "function"
    }
  ],
  "bytecode": "0x60a0604052306080523480156012575f80fd5b50608051611a886100395f395f81816110a5015281816110ce01526112120152611a885ff3fe608060405260043610610195575f3560e01c8063862a5f06116100e7578063d1717c7d11610087578063d8a06f7311610062578063d8a06f7314610489578063e30c3978146104a8578063eb1a5bb9146104bc578063f2fde38b146104db575f80fd5b8063d1717c7d14610436578063d43d6c8b14610456578063d86cd44e14610475575f80fd5b8063b6dfcd8b116100c2578063b6dfcd8b146103a7578063b71ee4fc146103c6578063bfba8f66146103f8578063c4d66de814610417575f80fd5b8063862a5f06146103375780638da5cb5b14610356578063ad3cb1cc1461036a575f80fd5b80634bb93ab1116101525780635f2483681161012d5780635f248368146102dd578063715018a6146102f15780637158da7c1461030557806379ba509714610323575f80fd5b80634bb93ab1146102875780634f1ef286146102a657806352d1902d146102bb575f80fd5b80630a567a2d14610199578063309bfe4a146101d5578063348ec5c8146101f95780633a0dad8e146102185780633af32abf146102375780633d8015fc14610266575b5f80fd5b3480156101a4575f80fd5b506101b86101b33660046116dc565b6104fa565b6040516001600160a01b0390911681526020015b60405180910390f35b3480156101e0575f80fd5b506101e961050c565b6040516101cc9493929190611766565b348015610204575f80fd5b506001546101b8906001600160a01b031681565b348015610223575f80fd5b506002546101b8906001600160a01b031681565b348015610242575f80fd5b506102566102513660046117d8565b61080d565b60405190151581526020016101cc565b348015610271575f80fd5b5061027a610819565b6040516101cc91906117f1565b348015610292575f80fd5b506004546101b8906001600160a01b031681565b6102b96102b4366004611817565b6108bc565b005b3480156102c6575f80fd5b506102cf6108db565b6040519081526020016101cc565b3480156102e8575f80fd5b506102cf6108f6565b3480156102fc575f80fd5b506102b9610906565b348015610310575f80fd5b505f546101b8906001600160a01b031681565b34801561032e575f80fd5b506102b9610919565b348015610342575f80fd5b506102b96103513660046117d8565b610966565b348015610361575f80fd5b506101b86109f4565b348015610375575f80fd5b5061039a604051806040016040528060058152602001640352e302e360dc1b81525081565b6040516101cc91906118db565b3480156103b2575f80fd5b506102b96103c13660046117d8565b610a28565b3480156103d1575f80fd5b506004546103e690600160a01b900460ff1681565b60405160ff90911681526020016101cc565b348015610403575f80fd5b506102b96104123660046117d8565b610a93565b348015610422575f80fd5b506102b96104313660046117d8565b610afe565b348015610441575f80fd5b506004546103e690600160a81b900460ff1681565b348015610461575f80fd5b506102b961047036600461191e565b610c07565b348015610480575f80fd5b5061027a610e5c565b348015610494575f80fd5b506003546101b8906001600160a01b031681565b3480156104b3575f80fd5b506101b8610efc565b3480156104c7575f80fd5b506102b96104d63660046117d8565b610f24565b3480156104e6575f80fd5b506102b96104f53660046117d8565b610fd9565b5f61050660058361105e565b92915050565b6060806060805f61051d6007611070565b90508067ffffffffffffffff81111561053857610538611803565b604051908082528060200260200182016040528015610561578160200160208202803683370190505b5094508067ffffffffffffffff81111561057d5761057d611803565b6040519080825280602002602001820160405280156105a6578160200160208202803683370190505b5093508067ffffffffffffffff8111156105c2576105c2611803565b6040519080825280602002602001820160405280156105eb578160200160208202803683370190505b5092508067ffffffffffffffff81111561060757610607611803565b604051908082528060200260200182016040528015610630578160200160208202803683370190505b5091505f5b81811015610805575f61064960078361105e565b90508087838151811061065e5761065e6119a3565b60200260200101906001600160a01b031690816001600160a01b0316815250505f819050806001600160a01b03166301e1d1146040518163ffffffff1660e01b8152600401602060405180830381865afa1580156106be573d5f803e3d5ffd5b505050506040513d601f19601f820116820180604052508101906106e291906119b7565b8784815181106106f4576106f46119a3565b602002602001018181525050806001600160a01b031663d1699c266040518163ffffffff1660e01b8152600401602060405180830381865afa15801561073c573d5f803e3d5ffd5b505050506040513d601f19601f8201168201806040525081019061076091906119b7565b868481518110610772576107726119a3565b602002602001018181525050806001600160a01b031663c37fc8a86040518163ffffffff1660e01b8152600401602060405180830381865afa1580156107ba573d5f803e3d5ffd5b505050506040513d601f19601f820116820180604052508101906107de91906119b7565b8584815181106107f0576107f06119a3565b60209081029190910101525050600101610635565b505090919293565b5f610506600583611079565b60605f6108266007611070565b90505f8167ffffffffffffffff81111561084257610842611803565b60405190808252806020026020018201604052801561086b578160200160208202803683370190505b5090505f5b828110156108b55761088360078261105e565b828281518110610895576108956119a3565b6001600160a01b0390921660209283029190910190910152600101610870565b5092915050565b6108c461109a565b6108cd8261113e565b6108d78282611146565b5050565b5f6108e4611207565b505f80516020611a3383398151915290565b5f6109016005611070565b905090565b61090e611250565b6109175f611282565b565b3380610923610efc565b6001600160a01b03161461095a5760405163118cdaa760e01b81526001600160a01b03821660048201526024015b60405180910390fd5b61096381611282565b50565b6003546001600160a01b0316331461099157604051631966391b60e11b815260040160405180910390fd5b5f61099d6007836112ba565b9050806109bd57604051632fa1facb60e01b815260040160405180910390fd5b6040516001600160a01b038316907fe47da341e0fc63816c1254f1c35425f69460f49342668d11c984ea56762b00d4905f90a25050565b5f807f9016d09d72d40fdae2fd8ceac6b6234c7706214fd39c1cd1e609a0528c1993005b546001600160a01b031692915050565b610a30611250565b5f610a3c6005836112ba565b905080610a5c57604051632d85515d60e11b815260040160405180910390fd5b6040516001600160a01b038316907f952363a786fc6f24cfb955cd6207cf91ecee3a82a7dd0bc26891ff7647b5784c905f90a25050565b610a9b611250565b5f610aa76005836112ce565b905080610ac75760405163b73e95e160e01b815260040160405180910390fd5b6040516001600160a01b038316907fdcbd8d9d0373041250f6c25b6b7aeccb3e9ff291e510ef85bb9f8ac09ceb6f64905f90a25050565b5f610b076112e2565b805490915060ff600160401b820416159067ffffffffffffffff165f81158015610b2e5750825b90505f8267ffffffffffffffff166001148015610b4a5750303b155b905081158015610b58575080155b15610b765760405163f92ee8a960e01b815260040160405180910390fd5b845467ffffffffffffffff191660011785558315610ba057845460ff60401b1916600160401b1785555b610ba861130a565b610bb061130a565b610bb986611282565b8315610bff57845460ff60401b19168555604051600181527fc7f505b2f371ae2175ee4913f4499e1f2633a7b5936321eed1cdaeb6115181d29060200160405180910390a15b505050505050565b610c0f611250565b6001600160a01b038716610c3657604051636448d6e960e11b815260040160405180910390fd5b6001600160a01b038616610c5d57604051635c1de4f160e01b815260040160405180910390fd5b6001600160a01b038516610c845760405163c4a0c25d60e01b815260040160405180910390fd5b6001600160a01b038216610cab5760405163d92e233d60e01b815260040160405180910390fd5b6001600160a01b038116610cd25760405163d92e233d60e01b815260040160405180910390fd5b5f80546001600160a01b03199081166001600160a01b038a811691821784556001805484168b831617905560028054909316908916179091556040805163313ce56760e01b8152905163313ce567916004808201926020929091908290030181865afa158015610d44573d5f803e3d5ffd5b505050506040513d601f19601f82011682018060405250810190610d6891906119ce565b90508060ff168560ff161015610d915760405163225dd91960e21b815260040160405180910390fd5b60048054600380546001600160a01b03199081166001600160a01b0388811691821790935561ffff60a01b19909316600160a01b60ff8b811691820260ff60a81b191692909217600160a81b928b1692830217909216878416908117909555604080518e851681528d85166020820152938c16908401526060830191909152608082015260a081019190915260c08101919091527f8a0153a4883536422ad293b760b91c5302e0bb3866365d362b85ede28acb51129060e00160405180910390a15050505050505050565b60605f610e696005611070565b90508067ffffffffffffffff811115610e8457610e84611803565b604051908082528060200260200182016040528015610ead578160200160208202803683370190505b5091505f5b81811015610ef757610ec560058261105e565b838281518110610ed757610ed76119a3565b6001600160a01b0390921660209283029190910190910152600101610eb2565b505090565b5f807f237e158222e3e6968b72b9db0d8043aacf074ad9f650f0d1606b4d82ee432c00610a18565b6003546001600160a01b03163314610f4f57604051631966391b60e11b815260040160405180910390fd5b6001600160a01b038116610f765760405163d92e233d60e01b815260040160405180910390fd5b5f610f826007836112ce565b905080610fa257604051633c0c06e960e21b815260040160405180910390fd5b6040516001600160a01b038316907f9a7094a648c0524f3d62b9167886d30be0e68cf53863fe556edda348f189445a905f90a25050565b610fe1611250565b7f237e158222e3e6968b72b9db0d8043aacf074ad9f650f0d1606b4d82ee432c0080546001600160a01b0319166001600160a01b03831690811782556110256109f4565b6001600160a01b03167f38d16b8cac22d99fc7c124b9cd0de2d3fa1faef420bfe791d8c362d765e2270060405160405180910390a35050565b5f6110698383611312565b9392505050565b5f610506825490565b6001600160a01b0381165f9081526001830160205260408120541515611069565b306001600160a01b037f000000000000000000000000000000000000000000000000000000000000000016148061112057507f00000000000000000000000000000000000000000000000000000000000000006001600160a01b03166111145f80516020611a33833981519152546001600160a01b031690565b6001600160a01b031614155b156109175760405163703e46dd60e11b815260040160405180910390fd5b610963611250565b816001600160a01b03166352d1902d6040518163ffffffff1660e01b8152600401602060405180830381865afa9250505080156111a0575060408051601f3d908101601f1916820190925261119d918101906119b7565b60015b6111c857604051634c9c8ce360e01b81526001600160a01b0383166004820152602401610951565b5f80516020611a3383398151915281146111f857604051632a87526960e21b815260048101829052602401610951565b6112028383611338565b505050565b306001600160a01b037f000000000000000000000000000000000000000000000000000000000000000016146109175760405163703e46dd60e11b815260040160405180910390fd5b336112596109f4565b6001600160a01b0316146109175760405163118cdaa760e01b8152336004820152602401610951565b7f237e158222e3e6968b72b9db0d8043aacf074ad9f650f0d1606b4d82ee432c0080546001600160a01b03191681556108d78261138d565b5f611069836001600160a01b0384166113fd565b5f611069836001600160a01b0384166114e0565b5f807ff0c57e16840df040f15088dc2f81fe391c3923bec73e23a9662efc9c229c6a00610506565b61091761152c565b5f825f018281548110611327576113276119a3565b905f5260205f200154905092915050565b61134182611551565b6040516001600160a01b038316907fbc7cd75a20ee27fd9adebab32041f755214dbc6bffa90cc0225b39da2e5c2d3b905f90a28051156113855761120282826115b4565b6108d7611626565b7f9016d09d72d40fdae2fd8ceac6b6234c7706214fd39c1cd1e609a0528c19930080546001600160a01b031981166001600160a01b03848116918217845560405192169182907f8be0079c531659141344cd1fd0a4f28419497f9722a3daafe3b4186f6b6457e0905f90a3505050565b5f81815260018301602052604081205480156114d7575f61141f6001836119e9565b85549091505f90611432906001906119e9565b9050808214611491575f865f018281548110611450576114506119a3565b905f5260205f200154905080875f018481548110611470576114706119a3565b5f918252602080832090910192909255918252600188019052604090208390555b85548690806114a2576114a2611a08565b600190038181905f5260205f20015f90559055856001015f8681526020019081526020015f205f905560019350505050610506565b5f915050610506565b5f81815260018301602052604081205461152557508154600181810184555f848152602080822090930184905584548482528286019093526040902091909155610506565b505f610506565b611534611645565b61091757604051631afcd79f60e31b815260040160405180910390fd5b806001600160a01b03163b5f0361158657604051634c9c8ce360e01b81526001600160a01b0382166004820152602401610951565b5f80516020611a3383398151915280546001600160a01b0319166001600160a01b0392909216919091179055565b60605f80846001600160a01b0316846040516115d09190611a1c565b5f60405180830381855af49150503d805f8114611608576040519150601f19603f3d011682016040523d82523d5f602084013e61160d565b606091505b509150915061161d85838361165e565b95945050505050565b34156109175760405163b398979f60e01b815260040160405180910390fd5b5f61164e6112e2565b54600160401b900460ff16919050565b6060826116735761166e826116b3565b611069565b815115801561168a57506001600160a01b0384163b155b156108b557604051639996b31560e01b81526001600160a01b0385166004820152602401610951565b8051156116c35780518082602001fd5b60405163d6bda27560e01b815260040160405180910390fd5b5f602082840312156116ec575f80fd5b5035919050565b5f8151808452602084019350602083015f5b8281101561172c5781516001600160a01b0316865260209586019590910190600101611705565b5093949350505050565b5f8151808452602084019350602083015f5b8281101561172c578151865260209586019590910190600101611748565b608081525f61177860808301876116f3565b828103602084015261178a8187611736565b9050828103604084015261179e8186611736565b905082810360608401526117b28185611736565b979650505050505050565b80356001600160a01b03811681146117d3575f80fd5b919050565b5f602082840312156117e8575f80fd5b611069826117bd565b602081525f61106960208301846116f3565b634e487b7160e01b5f52604160045260245ffd5b5f8060408385031215611828575f80fd5b611831836117bd565b9150602083013567ffffffffffffffff81111561184c575f80fd5b8301601f8101851361185c575f80fd5b803567ffffffffffffffff81111561187657611876611803565b604051601f8201601f19908116603f0116810167ffffffffffffffff811182821017156118a5576118a5611803565b6040528181528282016020018710156118bc575f80fd5b816020840160208301375f602083830101528093505050509250929050565b602081525f82518060208401528060208501604085015e5f604082850101526040601f19601f83011684010191505092915050565b60ff81168114610963575f80fd5b5f805f805f805f60e0888a031215611934575f80fd5b61193d886117bd565b965061194b602089016117bd565b9550611959604089016117bd565b9450606088013561196981611910565b9350608088013561197981611910565b925061198760a089016117bd565b915061199560c089016117bd565b905092959891949750929550565b634e487b7160e01b5f52603260045260245ffd5b5f602082840312156119c7575f80fd5b5051919050565b5f602082840312156119de575f80fd5b815161106981611910565b8181038181111561050657634e487b7160e01b5f52601160045260245ffd5b634e487b7160e01b5f52603160045260245ffd5b5f82518060208501845e5f92019182525091905056fe360894a13ba1a3210667c828492db98dca3e2076cc3735a920a3ca505d382bbca2646970667358221220093723eb4902c6ea06d6e6f2eea3fff43957b49de4d67343b16710727199177b64736f6c634300081a0033",
  "linkReferences": {},
  "deployedLinkReferences": {}
}