{
  "_format": "hh-sol-artifact-1",
  "contractName": "OrionConfig",
  "sourceName": "contracts/OrionConfig.sol",
  "abi": [
    {
      "inputs": [],
      "stateMutability": "nonpayable",
      "type": "constructor"
    },
    {
      "inputs": [],
      "name": "AlreadyAnOrionVault",
      "type": "error"
    },
    {
      "inputs": [],
      "name": "AlreadyWhitelisted",
      "type": "error"
    },
    {
      "inputs": [],
      "name": "IndexOutOfBounds",
      "type": "error"
    },
    {
      "inputs": [],
      "name": "InvalidAsset",
      "type": "error"
    },
    {
      "inputs": [],
      "name": "InvalidInternalOrchestrator",
      "type": "error"
    },
    {
      "inputs": [],
      "name": "InvalidLiquidityOrchestrator",
      "type": "error"
    },
    {
      "inputs": [],
      "name": "InvalidPriceAndPnLOracle",
      "type": "error"
    },
    {
      "inputs": [],
      "name": "NotAnOrionVault",
      "type": "error"
    },
    {
      "inputs": [],
      "name": "NotFactory",
      "type": "error"
    },
    {
      "inputs": [],
      "name": "NotInWhitelist",
      "type": "error"
    },
    {
      "inputs": [],
      "name": "OrionVaultNotFound",
      "type": "error"
    },
    {
      "inputs": [
        {
          "internalType": "address",
          "name": "owner",
          "type": "address"
        }
      ],
      "name": "OwnableInvalidOwner",
      "type": "error"
    },
    {
      "inputs": [
        {
          "internalType": "address",
          "name": "account",
          "type": "address"
        }
      ],
      "name": "OwnableUnauthorizedAccount",
      "type": "error"
    },
    {
      "inputs": [],
      "name": "ZeroAddress",
      "type": "error"
    },
    {
      "anonymous": false,
      "inputs": [
        {
          "indexed": true,
          "internalType": "address",
          "name": "vault",
          "type": "address"
        }
      ],
      "name": "OrionVaultAdded",
      "type": "event"
    },
    {
      "anonymous": false,
      "inputs": [
        {
          "indexed": true,
          "internalType": "address",
          "name": "vault",
          "type": "address"
        }
      ],
      "name": "OrionVaultRemoved",
      "type": "event"
    },
    {
      "anonymous": false,
      "inputs": [
        {
          "indexed": true,
          "internalType": "address",
          "name": "previousOwner",
          "type": "address"
        },
        {
          "indexed": true,
          "internalType": "address",
          "name": "newOwner",
          "type": "address"
        }
      ],
      "name": "OwnershipTransferStarted",
      "type": "event"
    },
    {
      "anonymous": false,
      "inputs": [
        {
          "indexed": true,
          "internalType": "address",
          "name": "previousOwner",
          "type": "address"
        },
        {
          "indexed": true,
          "internalType": "address",
          "name": "newOwner",
          "type": "address"
        }
      ],
      "name": "OwnershipTransferred",
      "type": "event"
    },
    {
      "anonymous": false,
      "inputs": [
        {
          "indexed": false,
          "internalType": "address",
          "name": "underlyingAsset",
          "type": "address"
        },
        {
          "indexed": false,
          "internalType": "address",
          "name": "internalStatesOrchestrator",
          "type": "address"
        },
        {
          "indexed": false,
          "internalType": "address",
          "name": "liquidityOrchestrator",
          "type": "address"
        },
        {
          "indexed": false,
          "internalType": "address",
          "name": "priceAndPnLOracle",
          "type": "address"
        },
        {
          "indexed": false,
          "internalType": "uint256",
          "name": "curatorIntentDecimals",
          "type": "uint256"
        },
        {
          "indexed": false,
          "internalType": "string",
          "name": "fhePublicCID",
          "type": "string"
        }
      ],
      "name": "ProtocolParamsUpdated",
      "type": "event"
    },
    {
      "anonymous": false,
      "inputs": [
        {
          "indexed": false,
          "internalType": "string",
          "name": "newCID",
          "type": "string"
        }
      ],
      "name": "PublicCIDUpdated",
      "type": "event"
    },
    {
      "anonymous": false,
      "inputs": [
        {
          "indexed": false,
          "internalType": "address",
          "name": "factory",
          "type": "address"
        }
      ],
      "name": "VaultFactorySet",
      "type": "event"
    },
    {
      "anonymous": false,
      "inputs": [
        {
          "indexed": true,
          "internalType": "address",
          "name": "asset",
          "type": "address"
        }
      ],
      "name": "WhitelistedAssetAdded",
      "type": "event"
    },
    {
      "anonymous": false,
      "inputs": [
        {
          "indexed": true,
          "internalType": "address",
          "name": "asset",
          "type": "address"
        }
      ],
      "name": "WhitelistedAssetRemoved",
      "type": "event"
    },
    {
      "inputs": [],
      "name": "acceptOwnership",
      "outputs": [],
      "stateMutability": "nonpayable",
      "type": "function"
    },
    {
      "inputs": [
        {
          "internalType": "address",
          "name": "vault",
          "type": "address"
        }
      ],
      "name": "addOrionVault",
      "outputs": [],
      "stateMutability": "nonpayable",
      "type": "function"
    },
    {
      "inputs": [
        {
          "internalType": "address",
          "name": "asset",
          "type": "address"
        }
      ],
      "name": "addWhitelistedAsset",
      "outputs": [],
      "stateMutability": "nonpayable",
      "type": "function"
    },
    {
      "inputs": [],
      "name": "curatorIntentDecimals",
      "outputs": [
        {
          "internalType": "uint8",
          "name": "",
          "type": "uint8"
        }
      ],
      "stateMutability": "view",
      "type": "function"
    },
    {
      "inputs": [],
      "name": "fhePublicCID",
      "outputs": [
        {
          "internalType": "string",
          "name": "",
          "type": "string"
        }
      ],
      "stateMutability": "view",
      "type": "function"
    },
    {
      "inputs": [],
      "name": "getFhePublicCID",
      "outputs": [
        {
          "internalType": "string",
          "name": "",
          "type": "string"
        }
      ],
      "stateMutability": "view",
      "type": "function"
    },
    {
      "inputs": [
        {
          "internalType": "uint256",
          "name": "index",
          "type": "uint256"
        }
      ],
      "name": "getOrionVaultAt",
      "outputs": [
        {
          "internalType": "address",
          "name": "",
          "type": "address"
        }
      ],
      "stateMutability": "view",
      "type": "function"
    },
    {
      "inputs": [
        {
          "internalType": "uint256",
          "name": "index",
          "type": "uint256"
        }
      ],
      "name": "getWhitelistedAssetAt",
      "outputs": [
        {
          "internalType": "address",
          "name": "",
          "type": "address"
        }
      ],
      "stateMutability": "view",
      "type": "function"
    },
    {
      "inputs": [],
      "name": "internalStatesOrchestrator",
      "outputs": [
        {
          "internalType": "address",
          "name": "",
          "type": "address"
        }
      ],
      "stateMutability": "view",
      "type": "function"
    },
    {
      "inputs": [
        {
          "internalType": "address",
          "name": "",
          "type": "address"
        }
      ],
      "name": "isOrionVault",
      "outputs": [
        {
          "internalType": "bool",
          "name": "",
          "type": "bool"
        }
      ],
      "stateMutability": "view",
      "type": "function"
    },
    {
      "inputs": [
        {
          "internalType": "address",
          "name": "asset",
          "type": "address"
        }
      ],
      "name": "isWhitelisted",
      "outputs": [
        {
          "internalType": "bool",
          "name": "",
          "type": "bool"
        }
      ],
      "stateMutability": "view",
      "type": "function"
    },
    {
      "inputs": [],
      "name": "liquidityOrchestrator",
      "outputs": [
        {
          "internalType": "address",
          "name": "",
          "type": "address"
        }
      ],
      "stateMutability": "view",
      "type": "function"
    },
    {
      "inputs": [],
      "name": "orionVaultCount",
      "outputs": [
        {
          "internalType": "uint256",
          "name": "",
          "type": "uint256"
        }
      ],
      "stateMutability": "view",
      "type": "function"
    },
    {
      "inputs": [
        {
          "internalType": "uint256",
          "name": "",
          "type": "uint256"
        }
      ],
      "name": "orionVaults",
      "outputs": [
        {
          "internalType": "address",
          "name": "",
          "type": "address"
        }
      ],
      "stateMutability": "view",
      "type": "function"
    },
    {
      "inputs": [],
      "name": "owner",
      "outputs": [
        {
          "internalType": "address",
          "name": "",
          "type": "address"
        }
      ],
      "stateMutability": "view",
      "type": "function"
    },
    {
      "inputs": [],
      "name": "pendingOwner",
      "outputs": [
        {
          "internalType": "address",
          "name": "",
          "type": "address"
        }
      ],
      "stateMutability": "view",
      "type": "function"
    },
    {
      "inputs": [],
      "name": "priceAndPnLOracle",
      "outputs": [
        {
          "internalType": "address",
          "name": "",
          "type": "address"
        }
      ],
      "stateMutability": "view",
      "type": "function"
    },
    {
      "inputs": [
        {
          "internalType": "address",
          "name": "vault",
          "type": "address"
        }
      ],
      "name": "removeOrionVault",
      "outputs": [],
      "stateMutability": "nonpayable",
      "type": "function"
    },
    {
      "inputs": [
        {
          "internalType": "address",
          "name": "asset",
          "type": "address"
        }
      ],
      "name": "removeWhitelistedAsset",
      "outputs": [],
      "stateMutability": "nonpayable",
      "type": "function"
    },
    {
      "inputs": [],
      "name": "renounceOwnership",
      "outputs": [],
      "stateMutability": "nonpayable",
      "type": "function"
    },
    {
      "inputs": [
        {
          "internalType": "address",
          "name": "_underlyingAsset",
          "type": "address"
        },
        {
          "internalType": "address",
          "name": "_internalStatesOrchestrator",
          "type": "address"
        },
        {
          "internalType": "address",
          "name": "_liquidityOrchestrator",
          "type": "address"
        },
        {
          "internalType": "address",
          "name": "_priceAndPnLOracle",
          "type": "address"
        },
        {
          "internalType": "uint8",
          "name": "_curatorIntentDecimals",
          "type": "uint8"
        },
        {
          "internalType": "string",
          "name": "_fhePublicCID",
          "type": "string"
        }
      ],
      "name": "setProtocolParams",
      "outputs": [],
      "stateMutability": "nonpayable",
      "type": "function"
    },
    {
      "inputs": [
        {
          "internalType": "address",
          "name": "_factory",
          "type": "address"
        }
      ],
      "name": "setVaultFactory",
      "outputs": [],
      "stateMutability": "nonpayable",
      "type": "function"
    },
    {
      "inputs": [
        {
          "internalType": "address",
          "name": "newOwner",
          "type": "address"
        }
      ],
      "name": "transferOwnership",
      "outputs": [],
      "stateMutability": "nonpayable",
      "type": "function"
    },
    {
      "inputs": [],
      "name": "underlyingAsset",
      "outputs": [
        {
          "internalType": "address",
          "name": "",
          "type": "address"
        }
      ],
      "stateMutability": "view",
      "type": "function"
    },
    {
      "inputs": [
        {
          "internalType": "string",
          "name": "newCID",
          "type": "string"
        }
      ],
      "name": "updateFhePublicCID",
      "outputs": [],
      "stateMutability": "nonpayable",
      "type": "function"
    },
    {
      "inputs": [],
      "name": "vaultFactory",
      "outputs": [
        {
          "internalType": "address",
          "name": "",
          "type": "address"
        }
      ],
      "stateMutability": "view",
      "type": "function"
    },
    {
      "inputs": [],
      "name": "whitelistedAssetsLength",
      "outputs": [
        {
          "internalType": "uint256",
          "name": "",
          "type": "uint256"
        }
      ],
      "stateMutability": "view",
      "type": "function"
    }
  ],
  "bytecode": "0x6080604052348015600e575f80fd5b503380603357604051631e4fbdf760e01b81525f600482015260240160405180910390fd5b603a81603f565b5060a8565b600180546001600160a01b03191690556056816059565b50565b5f80546001600160a01b038381166001600160a01b0319831681178455604051919092169283917f8be0079c531659141344cd1fd0a4f28419497f9722a3daafe3b4186f6b6457e09190a35050565b6112d3806100b55f395ff3fe608060405234801561000f575f80fd5b50600436106101a1575f3560e01c8063862a5f06116100f3578063d1717c7d11610093578063e30c39781161006e578063e30c397814610382578063e7b8314c14610393578063eb1a5bb9146103a6578063f2fde38b146103b9575f80fd5b8063d1717c7d14610327578063d8a06f731461034d578063e0876b4414610360575f80fd5b80639c5e9a70116100ce5780639c5e9a70146102e6578063ab6ca910146102f9578063b6dfcd8b14610301578063bfba8f6614610314575f80fd5b8063862a5f06146102ba57806387c2ee91146102cd5780638da5cb5b146102d6575f80fd5b80633af32abf1161015e578063715018a611610139578063715018a6146102845780637158da7c1461028c578063752620421461029f57806379ba5097146102b2575f80fd5b80633af32abf146102385780633ea7fbdb1461025b5780635f2483681461026e575f80fd5b80630740f2ac146101a55780630a567a2d146101d55780630e5b065a146101e85780632084e51d146101fd578063348ec5c8146102125780633a0dad8e14610225575b5f80fd5b6101b86101b3366004610eb8565b6103cc565b6040516001600160a01b0390911681526020015b60405180910390f35b6101b86101e3366004610eb8565b61041d565b6101fb6101f6366004610f2f565b61042f565b005b61020561058f565b6040516101cc9190610fc7565b6003546101b8906001600160a01b031681565b6004546101b8906001600160a01b031681565b61024b610246366004610ffc565b61061f565b60405190151581526020016101cc565b6101fb610269366004610ffc565b61062b565b6102766106ae565b6040519081526020016101cc565b6101fb6106be565b6002546101b8906001600160a01b031681565b6101fb6102ad366004611015565b6106d1565b6101fb610724565b6101fb6102c8366004610ffc565b61076d565b610276600c5481565b5f546001600160a01b03166101b8565b6101b86102f4366004610eb8565b6108f4565b61020561091c565b6101fb61030f366004610ffc565b6109a8565b6101fb610322366004610ffc565b610a13565b60065461033b90600160a01b900460ff1681565b60405160ff90911681526020016101cc565b6006546101b8906001600160a01b031681565b61024b61036e366004610ffc565b600b6020525f908152604090205460ff1681565b6001546001600160a01b03166101b8565b6005546101b8906001600160a01b031681565b6101fb6103b4366004610ffc565b610a7e565b6101fb6103c7366004610ffc565b610b90565b600a545f9082106103f057604051634e23d03560e01b815260040160405180910390fd5b600a828154811061040357610403611054565b5f918252602090912001546001600160a01b031692915050565b5f610429600883610c00565b92915050565b610437610c12565b6001600160a01b03871661045e57604051636448d6e960e11b815260040160405180910390fd5b6001600160a01b03861661048557604051635c1de4f160e01b815260040160405180910390fd5b6001600160a01b0385166104ac5760405163c4a0c25d60e01b815260040160405180910390fd5b6001600160a01b0384166104d357604051639c29276d60e01b815260040160405180910390fd5b600280546001600160a01b03199081166001600160a01b038a811691909117909255600380548216898416179055600480548216888416179055600580549091169186169190911790556006805460ff60a01b1916600160a01b60ff8616021790556007610542828483611100565b507f3b287b6b846632cbc4d5100c2986534a152bc04179c539c612db52831b49de038787878787878760405161057e97969594939291906111e2565b60405180910390a150505050505050565b60606007805461059e9061107c565b80601f01602080910402602001604051908101604052809291908181526020018280546105ca9061107c565b80156106155780601f106105ec57610100808354040283529160200191610615565b820191905f5260205f20905b8154815290600101906020018083116105f857829003601f168201915b5050505050905090565b5f610429600883610c3e565b610633610c12565b6001600160a01b03811661065a5760405163d92e233d60e01b815260040160405180910390fd5b600680546001600160a01b0319166001600160a01b0383169081179091556040519081527f57a7b93fb32405c4ce3505a4c1fbb4b06d58e4c10ebd4cfad8b948f2e5d5ffdf9060200160405180910390a150565b5f6106b96008610c5f565b905090565b6106c6610c12565b6106cf5f610c68565b565b6106d9610c12565b60076106e6828483611100565b507fd2be23666710f4d83b0ae1641d087fb8ba2a04ddf1581071c2fd2e9eeee57aa58282604051610718929190611234565b60405180910390a15050565b60015433906001600160a01b031681146107615760405163118cdaa760e01b81526001600160a01b03821660048201526024015b60405180910390fd5b61076a81610c68565b50565b6006546001600160a01b0316331461079857604051631966391b60e11b815260040160405180910390fd5b6001600160a01b0381165f908152600b602052604090205460ff166107d057604051632fa1facb60e01b815260040160405180910390fd5b5f6107da82610c81565b600a8054919250906107ee90600190611263565b815481106107fe576107fe611054565b5f91825260209091200154600a80546001600160a01b03909216918390811061082957610829611054565b905f5260205f20015f6101000a8154816001600160a01b0302191690836001600160a01b03160217905550600a80548061086557610865611276565b5f828152602080822083015f1990810180546001600160a01b03191690559092019092556001600160a01b0384168252600b905260408120805460ff19169055600c8054600192906108b8908490611263565b90915550506040516001600160a01b038316907fe47da341e0fc63816c1254f1c35425f69460f49342668d11c984ea56762b00d4905f90a25050565b600a8181548110610903575f80fd5b5f918252602090912001546001600160a01b0316905081565b600780546109299061107c565b80601f01602080910402602001604051908101604052809291908181526020018280546109559061107c565b80156109a05780601f10610977576101008083540402835291602001916109a0565b820191905f5260205f20905b81548152906001019060200180831161098357829003601f168201915b505050505081565b6109b0610c12565b5f6109bc600883610cec565b9050806109dc57604051632d85515d60e11b815260040160405180910390fd5b6040516001600160a01b038316907f952363a786fc6f24cfb955cd6207cf91ecee3a82a7dd0bc26891ff7647b5784c905f90a25050565b610a1b610c12565b5f610a27600883610d00565b905080610a475760405163b73e95e160e01b815260040160405180910390fd5b6040516001600160a01b038316907fdcbd8d9d0373041250f6c25b6b7aeccb3e9ff291e510ef85bb9f8ac09ceb6f64905f90a25050565b6006546001600160a01b03163314610aa957604051631966391b60e11b815260040160405180910390fd5b6001600160a01b0381165f908152600b602052604090205460ff1615610ae257604051633c0c06e960e21b815260040160405180910390fd5b600a805460018082019092557fc65a7bb8d6351c1cf70c95a316cc6a92839c986682d98bc35f958f4883f9d2a80180546001600160a01b0319166001600160a01b0384169081179091555f908152600b60205260408120805460ff191683179055600c8054909190610b5590849061128a565b90915550506040516001600160a01b038216907f9a7094a648c0524f3d62b9167886d30be0e68cf53863fe556edda348f189445a905f90a250565b610b98610c12565b600180546001600160a01b0383166001600160a01b03199091168117909155610bc85f546001600160a01b031690565b6001600160a01b03167f38d16b8cac22d99fc7c124b9cd0de2d3fa1faef420bfe791d8c362d765e2270060405160405180910390a350565b5f610c0b8383610d14565b9392505050565b5f546001600160a01b031633146106cf5760405163118cdaa760e01b8152336004820152602401610758565b6001600160a01b0381165f9081526001830160205260408120541515610c0b565b5f610429825490565b600180546001600160a01b031916905561076a81610d3a565b5f805b600a54811015610cd257826001600160a01b0316600a8281548110610cab57610cab611054565b5f918252602090912001546001600160a01b031603610cca5792915050565b600101610c84565b506040516323a8c79f60e11b815260040160405180910390fd5b5f610c0b836001600160a01b038416610d89565b5f610c0b836001600160a01b038416610e6c565b5f825f018281548110610d2957610d29611054565b905f5260205f200154905092915050565b5f80546001600160a01b038381166001600160a01b0319831681178455604051919092169283917f8be0079c531659141344cd1fd0a4f28419497f9722a3daafe3b4186f6b6457e09190a35050565b5f8181526001830160205260408120548015610e63575f610dab600183611263565b85549091505f90610dbe90600190611263565b9050808214610e1d575f865f018281548110610ddc57610ddc611054565b905f5260205f200154905080875f018481548110610dfc57610dfc611054565b5f918252602080832090910192909255918252600188019052604090208390555b8554869080610e2e57610e2e611276565b600190038181905f5260205f20015f90559055856001015f8681526020019081526020015f205f905560019350505050610429565b5f915050610429565b5f818152600183016020526040812054610eb157508154600181810184555f848152602080822090930184905584548482528286019093526040902091909155610429565b505f610429565b5f60208284031215610ec8575f80fd5b5035919050565b80356001600160a01b0381168114610ee5575f80fd5b919050565b5f8083601f840112610efa575f80fd5b50813567ffffffffffffffff811115610f11575f80fd5b602083019150836020828501011115610f28575f80fd5b9250929050565b5f805f805f805f60c0888a031215610f45575f80fd5b610f4e88610ecf565b9650610f5c60208901610ecf565b9550610f6a60408901610ecf565b9450610f7860608901610ecf565b9350608088013560ff81168114610f8d575f80fd5b925060a088013567ffffffffffffffff811115610fa8575f80fd5b610fb48a828b01610eea565b989b979a50959850939692959293505050565b602081525f82518060208401528060208501604085015e5f604082850101526040601f19601f83011684010191505092915050565b5f6020828403121561100c575f80fd5b610c0b82610ecf565b5f8060208385031215611026575f80fd5b823567ffffffffffffffff81111561103c575f80fd5b61104885828601610eea565b90969095509350505050565b634e487b7160e01b5f52603260045260245ffd5b634e487b7160e01b5f52604160045260245ffd5b600181811c9082168061109057607f821691505b6020821081036110ae57634e487b7160e01b5f52602260045260245ffd5b50919050565b601f8211156110fb57805f5260205f20601f840160051c810160208510156110d95750805b601f840160051c820191505b818110156110f8575f81556001016110e5565b50505b505050565b67ffffffffffffffff83111561111857611118611068565b61112c83611126835461107c565b836110b4565b5f601f84116001811461115d575f85156111465750838201355b5f19600387901b1c1916600186901b1783556110f8565b5f83815260208120601f198716915b8281101561118c578685013582556020948501946001909201910161116c565b50868210156111a8575f1960f88860031b161c19848701351681555b505060018560011b0183555050505050565b81835281816020850137505f828201602090810191909152601f909101601f19169091010190565b6001600160a01b038881168252878116602083015286811660408301528516606082015260ff8416608082015260c060a082018190525f9061122790830184866111ba565b9998505050505050505050565b602081525f6112476020830184866111ba565b949350505050565b634e487b7160e01b5f52601160045260245ffd5b818103818111156104295761042961124f565b634e487b7160e01b5f52603160045260245ffd5b808201808211156104295761042961124f56fea2646970667358221220c3fe62ba37795c3b36314c4e3df84a79f1f572e80308d244d300b24c4e38510d64736f6c634300081a0033",
  "linkReferences": {},
  "deployedLinkReferences": {}
}