{
  "_format": "hh-sol-artifact-1",
  "contractName": "OrionConfig",
  "sourceName": "contracts/OrionConfig.sol",
  "abi": [
    {
      "inputs": [
        {
          "internalType": "address",
          "name": "initialOwner",
          "type": "address"
        }
      ],
      "stateMutability": "nonpayable",
      "type": "constructor"
    },
    {
      "inputs": [],
      "name": "AlreadyRegistered",
      "type": "error"
    },
    {
      "inputs": [
        {
          "internalType": "address",
          "name": "owner",
          "type": "address"
        }
      ],
      "name": "OwnableInvalidOwner",
      "type": "error"
    },
    {
      "inputs": [
        {
          "internalType": "address",
          "name": "account",
          "type": "address"
        }
      ],
      "name": "OwnableUnauthorizedAccount",
      "type": "error"
    },
    {
      "inputs": [],
      "name": "SystemNotIdle",
      "type": "error"
    },
    {
      "inputs": [
        {
          "internalType": "address",
          "name": "token",
          "type": "address"
        }
      ],
      "name": "TokenNotWhitelisted",
      "type": "error"
    },
    {
      "inputs": [],
      "name": "UnauthorizedAccess",
      "type": "error"
    },
    {
      "inputs": [],
      "name": "ZeroAddress",
      "type": "error"
    },
    {
      "anonymous": false,
      "inputs": [
        {
          "indexed": true,
          "internalType": "address",
          "name": "vault",
          "type": "address"
        }
      ],
      "name": "OrionVaultAdded",
      "type": "event"
    },
    {
      "anonymous": false,
      "inputs": [
        {
          "indexed": true,
          "internalType": "address",
          "name": "vault",
          "type": "address"
        }
      ],
      "name": "OrionVaultRemoved",
      "type": "event"
    },
    {
      "anonymous": false,
      "inputs": [
        {
          "indexed": true,
          "internalType": "address",
          "name": "previousOwner",
          "type": "address"
        },
        {
          "indexed": true,
          "internalType": "address",
          "name": "newOwner",
          "type": "address"
        }
      ],
      "name": "OwnershipTransferred",
      "type": "event"
    },
    {
      "anonymous": false,
      "inputs": [],
      "name": "ProtocolParamsUpdated",
      "type": "event"
    },
    {
      "anonymous": false,
      "inputs": [
        {
          "indexed": true,
          "internalType": "address",
          "name": "asset",
          "type": "address"
        }
      ],
      "name": "WhitelistedAssetAdded",
      "type": "event"
    },
    {
      "anonymous": false,
      "inputs": [
        {
          "indexed": true,
          "internalType": "address",
          "name": "asset",
          "type": "address"
        }
      ],
      "name": "WhitelistedAssetRemoved",
      "type": "event"
    },
    {
      "inputs": [
        {
          "internalType": "address",
          "name": "vault",
          "type": "address"
        },
        {
          "internalType": "enum EventsLib.VaultType",
          "name": "vaultType",
          "type": "uint8"
        }
      ],
      "name": "addOrionVault",
      "outputs": [],
      "stateMutability": "nonpayable",
      "type": "function"
    },
    {
      "inputs": [
        {
          "internalType": "address",
          "name": "asset",
          "type": "address"
        },
        {
          "internalType": "address",
          "name": "priceAdapter",
          "type": "address"
        },
        {
          "internalType": "address",
          "name": "executionAdapter",
          "type": "address"
        }
      ],
      "name": "addWhitelistedAsset",
      "outputs": [],
      "stateMutability": "nonpayable",
      "type": "function"
    },
    {
      "inputs": [],
      "name": "curatorFeeDecimals",
      "outputs": [
        {
          "internalType": "uint8",
          "name": "",
          "type": "uint8"
        }
      ],
      "stateMutability": "view",
      "type": "function"
    },
    {
      "inputs": [],
      "name": "curatorIntentDecimals",
      "outputs": [
        {
          "internalType": "uint8",
          "name": "",
          "type": "uint8"
        }
      ],
      "stateMutability": "view",
      "type": "function"
    },
    {
      "inputs": [],
      "name": "encryptedVaultFactory",
      "outputs": [
        {
          "internalType": "address",
          "name": "",
          "type": "address"
        }
      ],
      "stateMutability": "view",
      "type": "function"
    },
    {
      "inputs": [
        {
          "internalType": "enum EventsLib.VaultType",
          "name": "vaultType",
          "type": "uint8"
        }
      ],
      "name": "getAllOrionVaults",
      "outputs": [
        {
          "internalType": "address[]",
          "name": "",
          "type": "address[]"
        }
      ],
      "stateMutability": "view",
      "type": "function"
    },
    {
      "inputs": [],
      "name": "getAllWhitelistedAssets",
      "outputs": [
        {
          "internalType": "address[]",
          "name": "assets",
          "type": "address[]"
        }
      ],
      "stateMutability": "view",
      "type": "function"
    },
    {
      "inputs": [
        {
          "internalType": "uint16",
          "name": "index",
          "type": "uint16"
        }
      ],
      "name": "getWhitelistedAssetAt",
      "outputs": [
        {
          "internalType": "address",
          "name": "",
          "type": "address"
        }
      ],
      "stateMutability": "view",
      "type": "function"
    },
    {
      "inputs": [],
      "name": "internalStatesOrchestrator",
      "outputs": [
        {
          "internalType": "address",
          "name": "",
          "type": "address"
        }
      ],
      "stateMutability": "view",
      "type": "function"
    },
    {
      "inputs": [
        {
          "internalType": "address",
          "name": "vault",
          "type": "address"
        }
      ],
      "name": "isOrionVault",
      "outputs": [
        {
          "internalType": "bool",
          "name": "",
          "type": "bool"
        }
      ],
      "stateMutability": "view",
      "type": "function"
    },
    {
      "inputs": [],
      "name": "isSystemIdle",
      "outputs": [
        {
          "internalType": "bool",
          "name": "",
          "type": "bool"
        }
      ],
      "stateMutability": "view",
      "type": "function"
    },
    {
      "inputs": [
        {
          "internalType": "address",
          "name": "asset",
          "type": "address"
        }
      ],
      "name": "isWhitelisted",
      "outputs": [
        {
          "internalType": "bool",
          "name": "",
          "type": "bool"
        }
      ],
      "stateMutability": "view",
      "type": "function"
    },
    {
      "inputs": [],
      "name": "liquidityOrchestrator",
      "outputs": [
        {
          "internalType": "address",
          "name": "",
          "type": "address"
        }
      ],
      "stateMutability": "view",
      "type": "function"
    },
    {
      "inputs": [],
      "name": "maxManagementFee",
      "outputs": [
        {
          "internalType": "uint16",
          "name": "",
          "type": "uint16"
        }
      ],
      "stateMutability": "view",
      "type": "function"
    },
    {
      "inputs": [],
      "name": "maxPerformanceFee",
      "outputs": [
        {
          "internalType": "uint16",
          "name": "",
          "type": "uint16"
        }
      ],
      "stateMutability": "view",
      "type": "function"
    },
    {
      "inputs": [],
      "name": "owner",
      "outputs": [
        {
          "internalType": "address",
          "name": "",
          "type": "address"
        }
      ],
      "stateMutability": "view",
      "type": "function"
    },
    {
      "inputs": [],
      "name": "priceAdapterDecimals",
      "outputs": [
        {
          "internalType": "uint8",
          "name": "",
          "type": "uint8"
        }
      ],
      "stateMutability": "view",
      "type": "function"
    },
    {
      "inputs": [],
      "name": "priceAdapterRegistry",
      "outputs": [
        {
          "internalType": "address",
          "name": "",
          "type": "address"
        }
      ],
      "stateMutability": "view",
      "type": "function"
    },
    {
      "inputs": [
        {
          "internalType": "address",
          "name": "vault",
          "type": "address"
        },
        {
          "internalType": "enum EventsLib.VaultType",
          "name": "vaultType",
          "type": "uint8"
        }
      ],
      "name": "removeOrionVault",
      "outputs": [],
      "stateMutability": "nonpayable",
      "type": "function"
    },
    {
      "inputs": [
        {
          "internalType": "address",
          "name": "asset",
          "type": "address"
        }
      ],
      "name": "removeWhitelistedAsset",
      "outputs": [],
      "stateMutability": "nonpayable",
      "type": "function"
    },
    {
      "inputs": [],
      "name": "renounceOwnership",
      "outputs": [],
      "stateMutability": "nonpayable",
      "type": "function"
    },
    {
      "inputs": [],
      "name": "riskFreeRate",
      "outputs": [
        {
          "internalType": "uint16",
          "name": "",
          "type": "uint16"
        }
      ],
      "stateMutability": "view",
      "type": "function"
    },
    {
      "inputs": [
        {
          "internalType": "address",
          "name": "orchestrator",
          "type": "address"
        }
      ],
      "name": "setInternalStatesOrchestrator",
      "outputs": [],
      "stateMutability": "nonpayable",
      "type": "function"
    },
    {
      "inputs": [
        {
          "internalType": "address",
          "name": "orchestrator",
          "type": "address"
        }
      ],
      "name": "setLiquidityOrchestrator",
      "outputs": [],
      "stateMutability": "nonpayable",
      "type": "function"
    },
    {
      "inputs": [
        {
          "internalType": "address",
          "name": "registry",
          "type": "address"
        }
      ],
      "name": "setPriceAdapterRegistry",
      "outputs": [],
      "stateMutability": "nonpayable",
      "type": "function"
    },
    {
      "inputs": [
        {
          "internalType": "uint8",
          "name": "_curatorIntentDecimals",
          "type": "uint8"
        },
        {
          "internalType": "uint8",
          "name": "_priceAdapterDecimals",
          "type": "uint8"
        },
        {
          "internalType": "uint8",
          "name": "_curatorFeeDecimals",
          "type": "uint8"
        },
        {
          "internalType": "uint16",
          "name": "_maxManagementFee",
          "type": "uint16"
        },
        {
          "internalType": "uint16",
          "name": "_maxPerformanceFee",
          "type": "uint16"
        },
        {
          "internalType": "uint16",
          "name": "_riskFreeRate",
          "type": "uint16"
        }
      ],
      "name": "setProtocolParams",
      "outputs": [],
      "stateMutability": "nonpayable",
      "type": "function"
    },
    {
      "inputs": [
        {
          "internalType": "address",
          "name": "asset",
          "type": "address"
        }
      ],
      "name": "setUnderlyingAsset",
      "outputs": [],
      "stateMutability": "nonpayable",
      "type": "function"
    },
    {
      "inputs": [
        {
          "internalType": "address",
          "name": "transparentFactory",
          "type": "address"
        },
        {
          "internalType": "address",
          "name": "encryptedFactory",
          "type": "address"
        }
      ],
      "name": "setVaultFactories",
      "outputs": [],
      "stateMutability": "nonpayable",
      "type": "function"
    },
    {
      "inputs": [
        {
          "internalType": "address",
          "name": "newOwner",
          "type": "address"
        }
      ],
      "name": "transferOwnership",
      "outputs": [],
      "stateMutability": "nonpayable",
      "type": "function"
    },
    {
      "inputs": [],
      "name": "transparentVaultFactory",
      "outputs": [
        {
          "internalType": "address",
          "name": "",
          "type": "address"
        }
      ],
      "stateMutability": "view",
      "type": "function"
    },
    {
      "inputs": [],
      "name": "underlyingAsset",
      "outputs": [
        {
          "internalType": "contract IERC20",
          "name": "",
          "type": "address"
        }
      ],
      "stateMutability": "view",
      "type": "function"
    },
    {
      "inputs": [],
      "name": "whitelistedAssetsLength",
      "outputs": [
        {
          "internalType": "uint16",
          "name": "",
          "type": "uint16"
        }
      ],
      "stateMutability": "view",
      "type": "function"
    }
  ],
  "bytecode": "0x6080604052348015600e575f5ffd5b50604051611537380380611537833981016040819052602b9160b4565b806001600160a01b038116605857604051631e4fbdf760e01b81525f600482015260240160405180910390fd5b605f816065565b505060df565b5f80546001600160a01b038381166001600160a01b0319831681178455604051919092169283917f8be0079c531659141344cd1fd0a4f28419497f9722a3daafe3b4186f6b6457e09190a35050565b5f6020828403121560c3575f5ffd5b81516001600160a01b038116811460d8575f5ffd5b9392505050565b61144b806100ec5f395ff3fe608060405234801561000f575f5ffd5b506004361061017e575f3560e01c8063015df993146101825780630a8b78c7146101ab5780630b313206146101c05780631dbc3c04146101e85780632095b01e146101fb57806323a06a1c1461020e5780632430dbf31461022157806325671dcb14610234578063348ec5c8146102475780633a0dad8e1461025a5780633af32abf1461026d5780635265ed6114610290578063567ba713146102a55780635f248368146102cb578063715018a6146102d35780637158da7c146102db5780637a0cb784146102ee578063849ede23146103015780638da5cb5b1461031457806391a848f31461031c578063a51b8d5a1461032f578063afd8326c14610342578063b6dfcd8b14610356578063c30dd72714610369578063cc9ea9451461037c578063d1717c7d1461038f578063d86cd44e146103a3578063e0876b44146103b8578063ed04f218146103cb578063edcf9c1f146103de578063f2fde38b146103e6578063f3cc6993146103f9575b5f5ffd5b600654610195906001600160a01b031681565b6040516101a29190611148565b60405180910390f35b6101be6101b9366004611177565b61040e565b005b6006546101d590600160b81b900461ffff1681565b60405161ffff90911681526020016101a2565b6101be6101f636600461119e565b61045f565b6101be610209366004611177565b61051c565b6101be61021c3660046111cf565b610592565b61019561022f366004611220565b6106cf565b6101be610242366004611177565b6106e5565b600254610195906001600160a01b031681565b600354610195906001600160a01b031681565b61028061027b366004611177565b61077f565b60405190151581526020016101a2565b6006546101d590600160c81b900461ffff1681565b6006546102b990600160a81b900460ff1681565b60405160ff90911681526020016101a2565b6101d561078b565b6101be61079b565b600154610195906001600160a01b031681565b6101be6102fc36600461119e565b6107ae565b600454610195906001600160a01b031681565b6101956108a9565b600554610195906001600160a01b031681565b6101be61033d366004611239565b6108b7565b6006546102b990600160b01b900460ff1681565b6101be610364366004611177565b610960565b6101be610377366004611177565b610ab5565b6101be61038a366004611271565b610b06565b6006546102b990600160a01b900460ff1681565b6103ab610c0f565b6040516101a291906112e1565b6102806103c6366004611177565b610cc2565b6103ab6103d936600461132c565b610cdf565b610280610dbb565b6101be6103f4366004611177565b610ecc565b6006546101d590600160d81b900461ffff1681565b610416610f09565b6001600160a01b03811661043d5760405163d92e233d60e01b815260040160405180910390fd5b600280546001600160a01b0319166001600160a01b0392909216919091179055565b610467610f09565b61046f610dbb565b61048c576040516312aecd8160e01b815260040160405180910390fd5b5f60018260018111156104a1576104a1611345565b036104b8576104b1600b84610f3b565b90506104c6565b6104c3600984610f3b565b90505b806104e457604051631a27eac360e11b815260040160405180910390fd5b6040516001600160a01b038416907fe47da341e0fc63816c1254f1c35425f69460f49342668d11c984ea56762b00d4905f90a2505050565b610524610f09565b61052c610dbb565b610549576040516312aecd8160e01b815260040160405180910390fd5b6001600160a01b0381166105705760405163d92e233d60e01b815260040160405180910390fd5b600680546001600160a01b0319166001600160a01b0392909216919091179055565b61059a610f09565b6105a2610dbb565b6105bf576040516312aecd8160e01b815260040160405180910390fd5b5f6105cb600785610f56565b9050806105eb57604051630ea075bf60e21b815260040160405180910390fd5b6006546040516302707eef60e51b81526001600160a01b0390911690634e0fdde09061061d9087908790600401611359565b5f604051808303815f87803b158015610634575f5ffd5b505af1158015610646573d5f5f3e3d5ffd5b50506003546040516359017aa960e01b81526001600160a01b0390911692506359017aa9915061067c9087908690600401611359565b5f604051808303815f87803b158015610693575f5ffd5b505af11580156106a5573d5f5f3e3d5ffd5b50506040516001600160a01b03871692505f5160206113f65f395f51905f5291505f90a250505050565b5f6106df600761ffff8416610f6a565b92915050565b6106ed610f09565b6001600160a01b0381166107145760405163d92e233d60e01b815260040160405180910390fd5b600180546001600160a01b0319166001600160a01b0383161790555f61073b600783610f56565b90508061075b57604051630ea075bf60e21b815260040160405180910390fd5b6040516001600160a01b038316905f5160206113f65f395f51905f52905f90a25050565b5f6106df600783610f75565b5f6107966007610f89565b905090565b6107a3610f09565b6107ac5f610f92565b565b6004546001600160a01b031633148015906107d457506005546001600160a01b03163314155b156107f257604051631a27eac360e11b815260040160405180910390fd5b6001600160a01b0382166108195760405163d92e233d60e01b815260040160405180910390fd5b5f600182600181111561082e5761082e611345565b036108455761083e600b84610f56565b9050610853565b610850600984610f56565b90505b8061087157604051630ea075bf60e21b815260040160405180910390fd5b6040516001600160a01b038416907f9a7094a648c0524f3d62b9167886d30be0e68cf53863fe556edda348f189445a905f90a2505050565b5f546001600160a01b031690565b6108bf610f09565b6108c7610dbb565b6108e4576040516312aecd8160e01b815260040160405180910390fd5b6001600160a01b03821661090b5760405163d92e233d60e01b815260040160405180910390fd5b6001600160a01b0381166109325760405163d92e233d60e01b815260040160405180910390fd5b600480546001600160a01b039384166001600160a01b03199182161790915560058054929093169116179055565b610968610f09565b610970610dbb565b61098d576040516312aecd8160e01b815260040160405180910390fd5b5f610999600783610f3b565b9050806109c4578160405163751dff9760e11b81526004016109bb9190611148565b60405180910390fd5b600654604051634386017560e01b81526001600160a01b03909116906343860175906109f4908590600401611148565b5f604051808303815f87803b158015610a0b575f5ffd5b505af1158015610a1d573d5f5f3e3d5ffd5b505060035460405163841181ef60e01b81526001600160a01b03909116925063841181ef9150610a51908590600401611148565b5f604051808303815f87803b158015610a68575f5ffd5b505af1158015610a7a573d5f5f3e3d5ffd5b50506040516001600160a01b03851692507f952363a786fc6f24cfb955cd6207cf91ecee3a82a7dd0bc26891ff7647b5784c91505f90a25050565b610abd610f09565b6001600160a01b038116610ae45760405163d92e233d60e01b815260040160405180910390fd5b600380546001600160a01b0319166001600160a01b0392909216919091179055565b610b0e610f09565b610b16610dbb565b610b33576040516312aecd8160e01b815260040160405180910390fd5b85600660146101000a81548160ff021916908360ff16021790555084600660156101000a81548160ff021916908360ff16021790555083600660166101000a81548160ff021916908360ff16021790555082600660176101000a81548161ffff021916908361ffff16021790555081600660196101000a81548161ffff021916908361ffff160217905550806006601b6101000a81548161ffff021916908361ffff1602179055507fc56626e36ca25ee9a19c58d2d4f9a4569523b059e6aaeb263573ded93fc33c5a60405160405180910390a1505050505050565b60605f610c1c6007610f89565b90508061ffff166001600160401b03811115610c3a57610c3a611373565b604051908082528060200260200182016040528015610c63578160200160208202803683370190505b5091505f5b8161ffff168161ffff161015610cbd57610c87600761ffff8316610f6a565b838261ffff1681518110610c9d57610c9d611387565b6001600160a01b0390921660209283029190910190910152600101610c68565b505090565b5f610cce600b83610f75565b806106df57506106df600983610f75565b60605f6001836001811115610cf657610cf6611345565b14610d02576009610d05565b600b5b90505f610d1182610f89565b90505f8161ffff166001600160401b03811115610d3057610d30611373565b604051908082528060200260200182016040528015610d59578160200160208202803683370190505b5090505f5b8261ffff168161ffff161015610db257610d7c8461ffff8316610f6a565b828261ffff1681518110610d9257610d92611387565b6001600160a01b0390921660209283029190910190910152600101610d5e565b50949350505050565b5f8060035f9054906101000a90046001600160a01b03166001600160a01b031663055ad42e6040518163ffffffff1660e01b8152600401602060405180830381865afa158015610e0d573d5f5f3e3d5ffd5b505050506040513d601f19601f82011682018060405250810190610e3191906113a7565b6003811115610e4257610e42611345565b1480156107965750600254604080516302ad6a1760e11b815290515f926001600160a01b03169163055ad42e9160048083019260209291908290030181865afa158015610e91573d5f5f3e3d5ffd5b505050506040513d601f19601f82011682018060405250810190610eb591906113a7565b6003811115610ec657610ec6611345565b14905090565b610ed4610f09565b6001600160a01b038116610efd575f604051631e4fbdf760e01b81526004016109bb9190611148565b610f0681610f92565b50565b33610f126108a9565b6001600160a01b0316146107ac573360405163118cdaa760e01b81526004016109bb9190611148565b5f610f4f836001600160a01b038416610fe1565b9392505050565b5f610f4f836001600160a01b0384166110c4565b5f610f4f838361110b565b5f610f4f836001600160a01b038416611131565b5f6106df825490565b5f80546001600160a01b038381166001600160a01b0319831681178455604051919092169283917f8be0079c531659141344cd1fd0a4f28419497f9722a3daafe3b4186f6b6457e09190a35050565b5f81815260018301602052604081205480156110bb575f6110036001836113c2565b85549091505f90611016906001906113c2565b9050808214611075575f865f01828154811061103457611034611387565b905f5260205f200154905080875f01848154811061105457611054611387565b5f918252602080832090910192909255918252600188019052604090208390555b8554869080611086576110866113e1565b600190038181905f5260205f20015f90559055856001015f8681526020019081526020015f205f9055600193505050506106df565b5f9150506106df565b5f6110cf8383611131565b61110457508154600181810184555f8481526020808220909301849055845484825282860190935260409020919091556106df565b505f6106df565b5f825f01828154811061112057611120611387565b905f5260205f200154905092915050565b5f9081526001919091016020526040902054151590565b6001600160a01b0391909116815260200190565b80356001600160a01b0381168114611172575f5ffd5b919050565b5f60208284031215611187575f5ffd5b610f4f8261115c565b803560028110611172575f5ffd5b5f5f604083850312156111af575f5ffd5b6111b88361115c565b91506111c660208401611190565b90509250929050565b5f5f5f606084860312156111e1575f5ffd5b6111ea8461115c565b92506111f86020850161115c565b91506112066040850161115c565b90509250925092565b803561ffff81168114611172575f5ffd5b5f60208284031215611230575f5ffd5b610f4f8261120f565b5f5f6040838503121561124a575f5ffd5b6112538361115c565b91506111c66020840161115c565b803560ff81168114611172575f5ffd5b5f5f5f5f5f5f60c08789031215611286575f5ffd5b61128f87611261565b955061129d60208801611261565b94506112ab60408801611261565b93506112b96060880161120f565b92506112c76080880161120f565b91506112d560a0880161120f565b90509295509295509295565b602080825282518282018190525f918401906040840190835b818110156113215783516001600160a01b03168352602093840193909201916001016112fa565b509095945050505050565b5f6020828403121561133c575f5ffd5b610f4f82611190565b634e487b7160e01b5f52602160045260245ffd5b6001600160a01b0392831681529116602082015260400190565b634e487b7160e01b5f52604160045260245ffd5b634e487b7160e01b5f52603260045260245ffd5b60048110610f06575f5ffd5b5f602082840312156113b7575f5ffd5b8151610f4f8161139b565b818103818111156106df57634e487b7160e01b5f52601160045260245ffd5b634e487b7160e01b5f52603160045260245ffdfedcbd8d9d0373041250f6c25b6b7aeccb3e9ff291e510ef85bb9f8ac09ceb6f64a26469706673582212205e1cffacffd4cc4dde14e815562ebd53000e5a979970f653f47eb7ac445b07d164736f6c634300081c0033",
  "linkReferences": {},
  "deployedLinkReferences": {}
}