{
  "_format": "hh-sol-artifact-1",
  "contractName": "OrionConfig",
  "sourceName": "contracts/OrionConfig.sol",
  "abi": [
    {
      "inputs": [
        {
          "internalType": "address",
          "name": "target",
          "type": "address"
        }
      ],
      "name": "AddressEmptyCode",
      "type": "error"
    },
    {
      "inputs": [],
      "name": "AlreadyAnOrionVault",
      "type": "error"
    },
    {
      "inputs": [],
      "name": "AlreadyWhitelisted",
      "type": "error"
    },
    {
      "inputs": [
        {
          "internalType": "address",
          "name": "implementation",
          "type": "address"
        }
      ],
      "name": "ERC1967InvalidImplementation",
      "type": "error"
    },
    {
      "inputs": [],
      "name": "ERC1967NonPayable",
      "type": "error"
    },
    {
      "inputs": [],
      "name": "FailedCall",
      "type": "error"
    },
    {
      "inputs": [],
      "name": "InvalidAsset",
      "type": "error"
    },
    {
      "inputs": [],
      "name": "InvalidInitialization",
      "type": "error"
    },
    {
      "inputs": [],
      "name": "InvalidInternalOrchestrator",
      "type": "error"
    },
    {
      "inputs": [],
      "name": "InvalidLiquidityOrchestrator",
      "type": "error"
    },
    {
      "inputs": [],
      "name": "InvalidStatesDecimals",
      "type": "error"
    },
    {
      "inputs": [],
      "name": "NotAnOrionVault",
      "type": "error"
    },
    {
      "inputs": [],
      "name": "NotFactory",
      "type": "error"
    },
    {
      "inputs": [],
      "name": "NotInWhitelist",
      "type": "error"
    },
    {
      "inputs": [],
      "name": "NotInitializing",
      "type": "error"
    },
    {
      "inputs": [
        {
          "internalType": "address",
          "name": "owner",
          "type": "address"
        }
      ],
      "name": "OwnableInvalidOwner",
      "type": "error"
    },
    {
      "inputs": [
        {
          "internalType": "address",
          "name": "account",
          "type": "address"
        }
      ],
      "name": "OwnableUnauthorizedAccount",
      "type": "error"
    },
    {
      "inputs": [],
      "name": "UUPSUnauthorizedCallContext",
      "type": "error"
    },
    {
      "inputs": [
        {
          "internalType": "bytes32",
          "name": "slot",
          "type": "bytes32"
        }
      ],
      "name": "UUPSUnsupportedProxiableUUID",
      "type": "error"
    },
    {
      "inputs": [],
      "name": "ZeroAddress",
      "type": "error"
    },
    {
      "anonymous": false,
      "inputs": [
        {
          "indexed": false,
          "internalType": "uint64",
          "name": "version",
          "type": "uint64"
        }
      ],
      "name": "Initialized",
      "type": "event"
    },
    {
      "anonymous": false,
      "inputs": [
        {
          "indexed": true,
          "internalType": "address",
          "name": "vault",
          "type": "address"
        }
      ],
      "name": "OrionVaultAdded",
      "type": "event"
    },
    {
      "anonymous": false,
      "inputs": [
        {
          "indexed": true,
          "internalType": "address",
          "name": "vault",
          "type": "address"
        }
      ],
      "name": "OrionVaultRemoved",
      "type": "event"
    },
    {
      "anonymous": false,
      "inputs": [
        {
          "indexed": true,
          "internalType": "address",
          "name": "previousOwner",
          "type": "address"
        },
        {
          "indexed": true,
          "internalType": "address",
          "name": "newOwner",
          "type": "address"
        }
      ],
      "name": "OwnershipTransferStarted",
      "type": "event"
    },
    {
      "anonymous": false,
      "inputs": [
        {
          "indexed": true,
          "internalType": "address",
          "name": "previousOwner",
          "type": "address"
        },
        {
          "indexed": true,
          "internalType": "address",
          "name": "newOwner",
          "type": "address"
        }
      ],
      "name": "OwnershipTransferred",
      "type": "event"
    },
    {
      "anonymous": false,
      "inputs": [
        {
          "indexed": false,
          "internalType": "address",
          "name": "underlyingAsset",
          "type": "address"
        },
        {
          "indexed": false,
          "internalType": "address",
          "name": "internalStatesOrchestrator",
          "type": "address"
        },
        {
          "indexed": false,
          "internalType": "address",
          "name": "liquidityOrchestrator",
          "type": "address"
        },
        {
          "indexed": false,
          "internalType": "uint8",
          "name": "statesDecimals",
          "type": "uint8"
        },
        {
          "indexed": false,
          "internalType": "uint8",
          "name": "curatorIntentDecimals",
          "type": "uint8"
        },
        {
          "indexed": false,
          "internalType": "address",
          "name": "factory",
          "type": "address"
        },
        {
          "indexed": false,
          "internalType": "address",
          "name": "oracleRegistry",
          "type": "address"
        }
      ],
      "name": "ProtocolParamsUpdated",
      "type": "event"
    },
    {
      "anonymous": false,
      "inputs": [
        {
          "indexed": true,
          "internalType": "address",
          "name": "implementation",
          "type": "address"
        }
      ],
      "name": "Upgraded",
      "type": "event"
    },
    {
      "anonymous": false,
      "inputs": [
        {
          "indexed": true,
          "internalType": "address",
          "name": "asset",
          "type": "address"
        }
      ],
      "name": "WhitelistedAssetAdded",
      "type": "event"
    },
    {
      "anonymous": false,
      "inputs": [
        {
          "indexed": true,
          "internalType": "address",
          "name": "asset",
          "type": "address"
        }
      ],
      "name": "WhitelistedAssetRemoved",
      "type": "event"
    },
    {
      "inputs": [],
      "name": "UPGRADE_INTERFACE_VERSION",
      "outputs": [
        {
          "internalType": "string",
          "name": "",
          "type": "string"
        }
      ],
      "stateMutability": "view",
      "type": "function"
    },
    {
      "inputs": [],
      "name": "acceptOwnership",
      "outputs": [],
      "stateMutability": "nonpayable",
      "type": "function"
    },
    {
      "inputs": [
        {
          "internalType": "address",
          "name": "vault",
          "type": "address"
        },
        {
          "internalType": "enum EventsLib.VaultType",
          "name": "vaultType",
          "type": "uint8"
        }
      ],
      "name": "addOrionVault",
      "outputs": [],
      "stateMutability": "nonpayable",
      "type": "function"
    },
    {
      "inputs": [
        {
          "internalType": "address",
          "name": "asset",
          "type": "address"
        }
      ],
      "name": "addWhitelistedAsset",
      "outputs": [],
      "stateMutability": "nonpayable",
      "type": "function"
    },
    {
      "inputs": [],
      "name": "curatorIntentDecimals",
      "outputs": [
        {
          "internalType": "uint8",
          "name": "",
          "type": "uint8"
        }
      ],
      "stateMutability": "view",
      "type": "function"
    },
    {
      "inputs": [
        {
          "internalType": "enum EventsLib.VaultType",
          "name": "vaultType",
          "type": "uint8"
        }
      ],
      "name": "getAllOrionVaults",
      "outputs": [
        {
          "internalType": "address[]",
          "name": "",
          "type": "address[]"
        }
      ],
      "stateMutability": "view",
      "type": "function"
    },
    {
      "inputs": [],
      "name": "getAllWhitelistedAssets",
      "outputs": [
        {
          "internalType": "address[]",
          "name": "assets",
          "type": "address[]"
        }
      ],
      "stateMutability": "view",
      "type": "function"
    },
    {
      "inputs": [
        {
          "internalType": "uint256",
          "name": "index",
          "type": "uint256"
        }
      ],
      "name": "getWhitelistedAssetAt",
      "outputs": [
        {
          "internalType": "address",
          "name": "",
          "type": "address"
        }
      ],
      "stateMutability": "view",
      "type": "function"
    },
    {
      "inputs": [
        {
          "internalType": "address",
          "name": "initialOwner",
          "type": "address"
        }
      ],
      "name": "initialize",
      "outputs": [],
      "stateMutability": "nonpayable",
      "type": "function"
    },
    {
      "inputs": [],
      "name": "internalStatesOrchestrator",
      "outputs": [
        {
          "internalType": "address",
          "name": "",
          "type": "address"
        }
      ],
      "stateMutability": "view",
      "type": "function"
    },
    {
      "inputs": [
        {
          "internalType": "address",
          "name": "asset",
          "type": "address"
        }
      ],
      "name": "isWhitelisted",
      "outputs": [
        {
          "internalType": "bool",
          "name": "",
          "type": "bool"
        }
      ],
      "stateMutability": "view",
      "type": "function"
    },
    {
      "inputs": [],
      "name": "liquidityOrchestrator",
      "outputs": [
        {
          "internalType": "address",
          "name": "",
          "type": "address"
        }
      ],
      "stateMutability": "view",
      "type": "function"
    },
    {
      "inputs": [],
      "name": "oracleRegistry",
      "outputs": [
        {
          "internalType": "address",
          "name": "",
          "type": "address"
        }
      ],
      "stateMutability": "view",
      "type": "function"
    },
    {
      "inputs": [],
      "name": "owner",
      "outputs": [
        {
          "internalType": "address",
          "name": "",
          "type": "address"
        }
      ],
      "stateMutability": "view",
      "type": "function"
    },
    {
      "inputs": [],
      "name": "pendingOwner",
      "outputs": [
        {
          "internalType": "address",
          "name": "",
          "type": "address"
        }
      ],
      "stateMutability": "view",
      "type": "function"
    },
    {
      "inputs": [],
      "name": "proxiableUUID",
      "outputs": [
        {
          "internalType": "bytes32",
          "name": "",
          "type": "bytes32"
        }
      ],
      "stateMutability": "view",
      "type": "function"
    },
    {
      "inputs": [
        {
          "internalType": "address",
          "name": "vault",
          "type": "address"
        },
        {
          "internalType": "enum EventsLib.VaultType",
          "name": "vaultType",
          "type": "uint8"
        }
      ],
      "name": "removeOrionVault",
      "outputs": [],
      "stateMutability": "nonpayable",
      "type": "function"
    },
    {
      "inputs": [
        {
          "internalType": "address",
          "name": "asset",
          "type": "address"
        }
      ],
      "name": "removeWhitelistedAsset",
      "outputs": [],
      "stateMutability": "nonpayable",
      "type": "function"
    },
    {
      "inputs": [],
      "name": "renounceOwnership",
      "outputs": [],
      "stateMutability": "nonpayable",
      "type": "function"
    },
    {
      "inputs": [
        {
          "internalType": "address",
          "name": "underlyingAsset_",
          "type": "address"
        },
        {
          "internalType": "address",
          "name": "internalStatesOrchestrator_",
          "type": "address"
        },
        {
          "internalType": "address",
          "name": "liquidityOrchestrator_",
          "type": "address"
        },
        {
          "internalType": "uint8",
          "name": "statesDecimals_",
          "type": "uint8"
        },
        {
          "internalType": "uint8",
          "name": "curatorIntentDecimals_",
          "type": "uint8"
        },
        {
          "internalType": "address",
          "name": "factory_",
          "type": "address"
        },
        {
          "internalType": "address",
          "name": "oracleRegistry_",
          "type": "address"
        }
      ],
      "name": "setProtocolParams",
      "outputs": [],
      "stateMutability": "nonpayable",
      "type": "function"
    },
    {
      "inputs": [],
      "name": "statesDecimals",
      "outputs": [
        {
          "internalType": "uint8",
          "name": "",
          "type": "uint8"
        }
      ],
      "stateMutability": "view",
      "type": "function"
    },
    {
      "inputs": [
        {
          "internalType": "address",
          "name": "newOwner",
          "type": "address"
        }
      ],
      "name": "transferOwnership",
      "outputs": [],
      "stateMutability": "nonpayable",
      "type": "function"
    },
    {
      "inputs": [],
      "name": "underlyingAsset",
      "outputs": [
        {
          "internalType": "contract IERC20",
          "name": "",
          "type": "address"
        }
      ],
      "stateMutability": "view",
      "type": "function"
    },
    {
      "inputs": [
        {
          "internalType": "address",
          "name": "newImplementation",
          "type": "address"
        },
        {
          "internalType": "bytes",
          "name": "data",
          "type": "bytes"
        }
      ],
      "name": "upgradeToAndCall",
      "outputs": [],
      "stateMutability": "payable",
      "type": "function"
    },
    {
      "inputs": [],
      "name": "vaultFactory",
      "outputs": [
        {
          "internalType": "address",
          "name": "",
          "type": "address"
        }
      ],
      "stateMutability": "view",
      "type": "function"
    },
    {
      "inputs": [],
      "name": "whitelistedAssetsLength",
      "outputs": [
        {
          "internalType": "uint256",
          "name": "",
          "type": "uint256"
        }
      ],
      "stateMutability": "view",
      "type": "function"
    }
  ],
  "bytecode": "0x60a0604052306080523480156012575f80fd5b506080516117f86100395f395f8181610dfc01528181610e250152610f6901526117f85ff3fe60806040526004361061017b575f3560e01c80638da5cb5b116100cd578063d1717c7d11610087578063d8a06f7311610062578063d8a06f7314610456578063e30c397814610475578063ed04f21814610489578063f2fde38b146104a8575f80fd5b8063d1717c7d146103f6578063d43d6c8b14610416578063d86cd44e14610435575f80fd5b80638da5cb5b14610316578063ad3cb1cc1461032a578063b6dfcd8b14610367578063b71ee4fc14610386578063bfba8f66146103b8578063c4d66de8146103d7575f80fd5b80634f1ef28611610138578063715018a611610113578063715018a6146102b15780637158da7c146102c557806379ba5097146102e35780637a0cb784146102f7575f80fd5b80634f1ef2861461026857806352d1902d1461027b5780635f2483681461029d575f80fd5b80630a567a2d1461017f5780631dbc3c04146101bb578063348ec5c8146101dc5780633a0dad8e146101fb5780633af32abf1461021a5780634bb93ab114610249575b5f80fd5b34801561018a575f80fd5b5061019e610199366004611471565b6104c7565b6040516001600160a01b0390911681526020015b60405180910390f35b3480156101c6575f80fd5b506101da6101d53660046114b1565b6104d9565b005b3480156101e7575f80fd5b5060015461019e906001600160a01b031681565b348015610206575f80fd5b5060025461019e906001600160a01b031681565b348015610225575f80fd5b506102396102343660046114e2565b610594565b60405190151581526020016101b2565b348015610254575f80fd5b5060045461019e906001600160a01b031681565b6101da61027636600461150f565b6105a0565b348015610286575f80fd5b5061028f6105bf565b6040519081526020016101b2565b3480156102a8575f80fd5b5061028f6105da565b3480156102bc575f80fd5b506101da6105ea565b3480156102d0575f80fd5b505f5461019e906001600160a01b031681565b3480156102ee575f80fd5b506101da6105fd565b348015610302575f80fd5b506101da6103113660046114b1565b61064a565b348015610321575f80fd5b5061019e61072c565b348015610335575f80fd5b5061035a604051806040016040528060058152602001640352e302e360dc1b81525081565b6040516101b291906115d3565b348015610372575f80fd5b506101da6103813660046114e2565b610760565b348015610391575f80fd5b506004546103a690600160a01b900460ff1681565b60405160ff90911681526020016101b2565b3480156103c3575f80fd5b506101da6103d23660046114e2565b6107cb565b3480156103e2575f80fd5b506101da6103f13660046114e2565b610836565b348015610401575f80fd5b506004546103a690600160a81b900460ff1681565b348015610421575f80fd5b506101da610430366004611616565b61093f565b348015610440575f80fd5b50610449610b94565b6040516101b2919061169b565b348015610461575f80fd5b5060035461019e906001600160a01b031681565b348015610480575f80fd5b5061019e610c34565b348015610494575f80fd5b506104496104a33660046116e6565b610c5c565b3480156104b3575f80fd5b506101da6104c23660046114e2565b610d25565b5f6104d3600583610daa565b92915050565b6003546001600160a01b0316331461050457604051631966391b60e11b815260040160405180910390fd5b5f6001826001811115610519576105196116ff565b0361053057610529600984610dbc565b905061053e565b61053b600784610dbc565b90505b8061055c57604051632fa1facb60e01b815260040160405180910390fd5b6040516001600160a01b038416907fe47da341e0fc63816c1254f1c35425f69460f49342668d11c984ea56762b00d4905f90a2505050565b5f6104d3600583610dd0565b6105a8610df1565b6105b182610e95565b6105bb8282610e9d565b5050565b5f6105c8610f5e565b505f805160206117a383398151915290565b5f6105e56005610fa7565b905090565b6105f2610fb0565b6105fb5f610fe2565b565b3380610607610c34565b6001600160a01b03161461063e5760405163118cdaa760e01b81526001600160a01b03821660048201526024015b60405180910390fd5b61064781610fe2565b50565b6003546001600160a01b0316331461067557604051631966391b60e11b815260040160405180910390fd5b6001600160a01b03821661069c5760405163d92e233d60e01b815260040160405180910390fd5b5f60018260018111156106b1576106b16116ff565b036106c8576106c160098461101a565b90506106d6565b6106d360078461101a565b90505b806106f457604051633c0c06e960e21b815260040160405180910390fd5b6040516001600160a01b038416907f9a7094a648c0524f3d62b9167886d30be0e68cf53863fe556edda348f189445a905f90a2505050565b5f807f9016d09d72d40fdae2fd8ceac6b6234c7706214fd39c1cd1e609a0528c1993005b546001600160a01b031692915050565b610768610fb0565b5f610774600583610dbc565b90508061079457604051632d85515d60e11b815260040160405180910390fd5b6040516001600160a01b038316907f952363a786fc6f24cfb955cd6207cf91ecee3a82a7dd0bc26891ff7647b5784c905f90a25050565b6107d3610fb0565b5f6107df60058361101a565b9050806107ff5760405163b73e95e160e01b815260040160405180910390fd5b6040516001600160a01b038316907fdcbd8d9d0373041250f6c25b6b7aeccb3e9ff291e510ef85bb9f8ac09ceb6f64905f90a25050565b5f61083f61102e565b805490915060ff600160401b820416159067ffffffffffffffff165f811580156108665750825b90505f8267ffffffffffffffff1660011480156108825750303b155b905081158015610890575080155b156108ae5760405163f92ee8a960e01b815260040160405180910390fd5b845467ffffffffffffffff1916600117855583156108d857845460ff60401b1916600160401b1785555b6108e186611056565b6108e9611067565b6108f1611067565b831561093757845460ff60401b19168555604051600181527fc7f505b2f371ae2175ee4913f4499e1f2633a7b5936321eed1cdaeb6115181d29060200160405180910390a15b505050505050565b610947610fb0565b6001600160a01b03871661096e57604051636448d6e960e11b815260040160405180910390fd5b6001600160a01b03861661099557604051635c1de4f160e01b815260040160405180910390fd5b6001600160a01b0385166109bc5760405163c4a0c25d60e01b815260040160405180910390fd5b6001600160a01b0382166109e35760405163d92e233d60e01b815260040160405180910390fd5b6001600160a01b038116610a0a5760405163d92e233d60e01b815260040160405180910390fd5b5f80546001600160a01b03199081166001600160a01b038a811691821784556001805484168b831617905560028054909316908916179091556040805163313ce56760e01b8152905163313ce567916004808201926020929091908290030181865afa158015610a7c573d5f803e3d5ffd5b505050506040513d601f19601f82011682018060405250810190610aa09190611713565b90508060ff168560ff161015610ac95760405163225dd91960e21b815260040160405180910390fd5b60048054600380546001600160a01b03199081166001600160a01b0388811691821790935561ffff60a01b19909316600160a01b60ff8b811691820260ff60a81b191692909217600160a81b928b1692830217909216878416908117909555604080518e851681528d85166020820152938c16908401526060830191909152608082015260a081019190915260c08101919091527f8a0153a4883536422ad293b760b91c5302e0bb3866365d362b85ede28acb51129060e00160405180910390a15050505050505050565b60605f610ba16005610fa7565b90508067ffffffffffffffff811115610bbc57610bbc6114fb565b604051908082528060200260200182016040528015610be5578160200160208202803683370190505b5091505f5b81811015610c2f57610bfd600582610daa565b838281518110610c0f57610c0f61172e565b6001600160a01b0390921660209283029190910190910152600101610bea565b505090565b5f807f237e158222e3e6968b72b9db0d8043aacf074ad9f650f0d1606b4d82ee432c00610750565b60605f6001836001811115610c7357610c736116ff565b14610c7f576007610c82565b60095b90505f610c8e82610fa7565b90505f8167ffffffffffffffff811115610caa57610caa6114fb565b604051908082528060200260200182016040528015610cd3578160200160208202803683370190505b5090505f5b82811015610d1c57610cea8482610daa565b828281518110610cfc57610cfc61172e565b6001600160a01b0390921660209283029190910190910152600101610cd8565b50949350505050565b610d2d610fb0565b7f237e158222e3e6968b72b9db0d8043aacf074ad9f650f0d1606b4d82ee432c0080546001600160a01b0319166001600160a01b0383169081178255610d7161072c565b6001600160a01b03167f38d16b8cac22d99fc7c124b9cd0de2d3fa1faef420bfe791d8c362d765e2270060405160405180910390a35050565b5f610db5838361106f565b9392505050565b5f610db5836001600160a01b038416611095565b6001600160a01b0381165f9081526001830160205260408120541515610db5565b306001600160a01b037f0000000000000000000000000000000000000000000000000000000000000000161480610e7757507f00000000000000000000000000000000000000000000000000000000000000006001600160a01b0316610e6b5f805160206117a3833981519152546001600160a01b031690565b6001600160a01b031614155b156105fb5760405163703e46dd60e11b815260040160405180910390fd5b610647610fb0565b816001600160a01b03166352d1902d6040518163ffffffff1660e01b8152600401602060405180830381865afa925050508015610ef7575060408051601f3d908101601f19168201909252610ef491810190611742565b60015b610f1f57604051634c9c8ce360e01b81526001600160a01b0383166004820152602401610635565b5f805160206117a38339815191528114610f4f57604051632a87526960e21b815260048101829052602401610635565b610f598383611178565b505050565b306001600160a01b037f000000000000000000000000000000000000000000000000000000000000000016146105fb5760405163703e46dd60e11b815260040160405180910390fd5b5f6104d3825490565b33610fb961072c565b6001600160a01b0316146105fb5760405163118cdaa760e01b8152336004820152602401610635565b7f237e158222e3e6968b72b9db0d8043aacf074ad9f650f0d1606b4d82ee432c0080546001600160a01b03191681556105bb826111cd565b5f610db5836001600160a01b03841661123d565b5f807ff0c57e16840df040f15088dc2f81fe391c3923bec73e23a9662efc9c229c6a006104d3565b61105e611289565b610647816112ae565b6105fb611289565b5f825f0182815481106110845761108461172e565b905f5260205f200154905092915050565b5f818152600183016020526040812054801561116f575f6110b7600183611759565b85549091505f906110ca90600190611759565b9050808214611129575f865f0182815481106110e8576110e861172e565b905f5260205f200154905080875f0184815481106111085761110861172e565b5f918252602080832090910192909255918252600188019052604090208390555b855486908061113a5761113a611778565b600190038181905f5260205f20015f90559055856001015f8681526020019081526020015f205f9055600193505050506104d3565b5f9150506104d3565b611181826112df565b6040516001600160a01b038316907fbc7cd75a20ee27fd9adebab32041f755214dbc6bffa90cc0225b39da2e5c2d3b905f90a28051156111c557610f598282611342565b6105bb6113b4565b7f9016d09d72d40fdae2fd8ceac6b6234c7706214fd39c1cd1e609a0528c19930080546001600160a01b031981166001600160a01b03848116918217845560405192169182907f8be0079c531659141344cd1fd0a4f28419497f9722a3daafe3b4186f6b6457e0905f90a3505050565b5f81815260018301602052604081205461128257508154600181810184555f8481526020808220909301849055845484825282860190935260409020919091556104d3565b505f6104d3565b6112916113d3565b6105fb57604051631afcd79f60e31b815260040160405180910390fd5b6112b6611289565b6001600160a01b03811661063e57604051631e4fbdf760e01b81525f6004820152602401610635565b806001600160a01b03163b5f0361131457604051634c9c8ce360e01b81526001600160a01b0382166004820152602401610635565b5f805160206117a383398151915280546001600160a01b0319166001600160a01b0392909216919091179055565b60605f80846001600160a01b03168460405161135e919061178c565b5f60405180830381855af49150503d805f8114611396576040519150601f19603f3d011682016040523d82523d5f602084013e61139b565b606091505b50915091506113ab8583836113ec565b95945050505050565b34156105fb5760405163b398979f60e01b815260040160405180910390fd5b5f6113dc61102e565b54600160401b900460ff16919050565b606082611401576113fc82611448565b610db5565b815115801561141857506001600160a01b0384163b155b1561144157604051639996b31560e01b81526001600160a01b0385166004820152602401610635565b5092915050565b8051156114585780518082602001fd5b60405163d6bda27560e01b815260040160405180910390fd5b5f60208284031215611481575f80fd5b5035919050565b80356001600160a01b038116811461149e575f80fd5b919050565b80356002811061149e575f80fd5b5f80604083850312156114c2575f80fd5b6114cb83611488565b91506114d9602084016114a3565b90509250929050565b5f602082840312156114f2575f80fd5b610db582611488565b634e487b7160e01b5f52604160045260245ffd5b5f8060408385031215611520575f80fd5b61152983611488565b9150602083013567ffffffffffffffff811115611544575f80fd5b8301601f81018513611554575f80fd5b803567ffffffffffffffff81111561156e5761156e6114fb565b604051601f8201601f19908116603f0116810167ffffffffffffffff8111828210171561159d5761159d6114fb565b6040528181528282016020018710156115b4575f80fd5b816020840160208301375f602083830101528093505050509250929050565b602081525f82518060208401528060208501604085015e5f604082850101526040601f19601f83011684010191505092915050565b60ff81168114610647575f80fd5b5f805f805f805f60e0888a03121561162c575f80fd5b61163588611488565b965061164360208901611488565b955061165160408901611488565b9450606088013561166181611608565b9350608088013561167181611608565b925061167f60a08901611488565b915061168d60c08901611488565b905092959891949750929550565b602080825282518282018190525f918401906040840190835b818110156116db5783516001600160a01b03168352602093840193909201916001016116b4565b509095945050505050565b5f602082840312156116f6575f80fd5b610db5826114a3565b634e487b7160e01b5f52602160045260245ffd5b5f60208284031215611723575f80fd5b8151610db581611608565b634e487b7160e01b5f52603260045260245ffd5b5f60208284031215611752575f80fd5b5051919050565b818103818111156104d357634e487b7160e01b5f52601160045260245ffd5b634e487b7160e01b5f52603160045260245ffd5b5f82518060208501845e5f92019182525091905056fe360894a13ba1a3210667c828492db98dca3e2076cc3735a920a3ca505d382bbca2646970667358221220db4d8e37909ee947740e7ba1785a2fb97182f7e215f70e7285346e9d2ef6458864736f6c634300081a0033",
  "linkReferences": {},
  "deployedLinkReferences": {}
}