{
  "_format": "hh-sol-artifact-1",
  "contractName": "ERC4626PriceAdapter",
  "sourceName": "contracts/oracles/ERC4626PriceAdapter.sol",
  "abi": [
    {
      "inputs": [
        {
          "internalType": "address",
          "name": "target",
          "type": "address"
        }
      ],
      "name": "AddressEmptyCode",
      "type": "error"
    },
    {
      "inputs": [
        {
          "internalType": "address",
          "name": "implementation",
          "type": "address"
        }
      ],
      "name": "ERC1967InvalidImplementation",
      "type": "error"
    },
    {
      "inputs": [],
      "name": "ERC1967NonPayable",
      "type": "error"
    },
    {
      "inputs": [],
      "name": "FailedCall",
      "type": "error"
    },
    {
      "inputs": [],
      "name": "InvalidInitialization",
      "type": "error"
    },
    {
      "inputs": [],
      "name": "NotInitializing",
      "type": "error"
    },
    {
      "inputs": [
        {
          "internalType": "address",
          "name": "owner",
          "type": "address"
        }
      ],
      "name": "OwnableInvalidOwner",
      "type": "error"
    },
    {
      "inputs": [
        {
          "internalType": "address",
          "name": "account",
          "type": "address"
        }
      ],
      "name": "OwnableUnauthorizedAccount",
      "type": "error"
    },
    {
      "inputs": [],
      "name": "UUPSUnauthorizedCallContext",
      "type": "error"
    },
    {
      "inputs": [
        {
          "internalType": "bytes32",
          "name": "slot",
          "type": "bytes32"
        }
      ],
      "name": "UUPSUnsupportedProxiableUUID",
      "type": "error"
    },
    {
      "anonymous": false,
      "inputs": [
        {
          "indexed": false,
          "internalType": "uint64",
          "name": "version",
          "type": "uint64"
        }
      ],
      "name": "Initialized",
      "type": "event"
    },
    {
      "anonymous": false,
      "inputs": [
        {
          "indexed": true,
          "internalType": "address",
          "name": "previousOwner",
          "type": "address"
        },
        {
          "indexed": true,
          "internalType": "address",
          "name": "newOwner",
          "type": "address"
        }
      ],
      "name": "OwnershipTransferStarted",
      "type": "event"
    },
    {
      "anonymous": false,
      "inputs": [
        {
          "indexed": true,
          "internalType": "address",
          "name": "previousOwner",
          "type": "address"
        },
        {
          "indexed": true,
          "internalType": "address",
          "name": "newOwner",
          "type": "address"
        }
      ],
      "name": "OwnershipTransferred",
      "type": "event"
    },
    {
      "anonymous": false,
      "inputs": [
        {
          "indexed": true,
          "internalType": "address",
          "name": "implementation",
          "type": "address"
        }
      ],
      "name": "Upgraded",
      "type": "event"
    },
    {
      "inputs": [],
      "name": "UPGRADE_INTERFACE_VERSION",
      "outputs": [
        {
          "internalType": "string",
          "name": "",
          "type": "string"
        }
      ],
      "stateMutability": "view",
      "type": "function"
    },
    {
      "inputs": [],
      "name": "acceptOwnership",
      "outputs": [],
      "stateMutability": "nonpayable",
      "type": "function"
    },
    {
      "inputs": [
        {
          "internalType": "address",
          "name": "initialOwner",
          "type": "address"
        }
      ],
      "name": "initialize",
      "outputs": [],
      "stateMutability": "nonpayable",
      "type": "function"
    },
    {
      "inputs": [],
      "name": "owner",
      "outputs": [
        {
          "internalType": "address",
          "name": "",
          "type": "address"
        }
      ],
      "stateMutability": "view",
      "type": "function"
    },
    {
      "inputs": [],
      "name": "pendingOwner",
      "outputs": [
        {
          "internalType": "address",
          "name": "",
          "type": "address"
        }
      ],
      "stateMutability": "view",
      "type": "function"
    },
    {
      "inputs": [
        {
          "internalType": "address",
          "name": "asset",
          "type": "address"
        }
      ],
      "name": "price",
      "outputs": [
        {
          "internalType": "uint256",
          "name": "",
          "type": "uint256"
        }
      ],
      "stateMutability": "view",
      "type": "function"
    },
    {
      "inputs": [],
      "name": "proxiableUUID",
      "outputs": [
        {
          "internalType": "bytes32",
          "name": "",
          "type": "bytes32"
        }
      ],
      "stateMutability": "view",
      "type": "function"
    },
    {
      "inputs": [],
      "name": "renounceOwnership",
      "outputs": [],
      "stateMutability": "nonpayable",
      "type": "function"
    },
    {
      "inputs": [
        {
          "internalType": "address",
          "name": "newOwner",
          "type": "address"
        }
      ],
      "name": "transferOwnership",
      "outputs": [],
      "stateMutability": "nonpayable",
      "type": "function"
    },
    {
      "inputs": [
        {
          "internalType": "address",
          "name": "newImplementation",
          "type": "address"
        },
        {
          "internalType": "bytes",
          "name": "data",
          "type": "bytes"
        }
      ],
      "name": "upgradeToAndCall",
      "outputs": [],
      "stateMutability": "payable",
      "type": "function"
    }
  ],
  "bytecode": "0x60a0604052306080523480156012575f5ffd5b50608051610ec26100395f395f818161066a0152818161069301526107d70152610ec25ff3fe60806040526004361061008f575f3560e01c8063ad3cb1cc11610057578063ad3cb1cc14610123578063aea9107814610160578063c4d66de81461017f578063e30c39781461019e578063f2fde38b146101b2575f5ffd5b80634f1ef2861461009357806352d1902d146100a8578063715018a6146100cf57806379ba5097146100e35780638da5cb5b146100f7575b5f5ffd5b6100a66100a1366004610b9a565b6101d1565b005b3480156100b3575f5ffd5b506100bc6101f0565b6040519081526020015b60405180910390f35b3480156100da575f5ffd5b506100a661020b565b3480156100ee575f5ffd5b506100a661021e565b348015610102575f5ffd5b5061010b61026b565b6040516001600160a01b0390911681526020016100c6565b34801561012e575f5ffd5b50610153604051806040016040528060058152602001640352e302e360dc1b81525081565b6040516100c69190610c60565b34801561016b575f5ffd5b506100bc61017a366004610c95565b61029f565b34801561018a575f5ffd5b506100a6610199366004610c95565b6104a9565b3480156101a9575f5ffd5b5061010b6105b2565b3480156101bd575f5ffd5b506100a66101cc366004610c95565b6105da565b6101d961065f565b6101e282610703565b6101ec828261070b565b5050565b5f6101f96107cc565b505f516020610e6d5f395f51905f5290565b610213610815565b61021c5f610847565b565b33806102286105b2565b6001600160a01b03161461025f5760405163118cdaa760e01b81526001600160a01b03821660048201526024015b60405180910390fd5b61026881610847565b50565b5f807f9016d09d72d40fdae2fd8ceac6b6234c7706214fd39c1cd1e609a0528c1993005b546001600160a01b031692915050565b5f5f826001600160a01b031663313ce5676040518163ffffffff1660e01b8152600401602060405180830381865afa1580156102dd573d5f5f3e3d5ffd5b505050506040513d601f19601f820116820180604052508101906103019190610cb0565b90505f836001600160a01b03166338d52e0f6040518163ffffffff1660e01b8152600401602060405180830381865afa158015610340573d5f5f3e3d5ffd5b505050506040513d601f19601f820116820180604052508101906103649190610cd0565b6001600160a01b031663313ce5676040518163ffffffff1660e01b8152600401602060405180830381865afa15801561039f573d5f5f3e3d5ffd5b505050506040513d601f19601f820116820180604052508101906103c39190610cb0565b90505f6103d183600a610de2565b6040516303d1689d60e11b8152600481018290529091505f906001600160a01b038716906307a2d13a90602401602060405180830381865afa158015610419573d5f5f3e3d5ffd5b505050506040513d601f19601f8201168201806040525081019061043d9190610df0565b90508260ff166012036104535795945050505050565b60128360ff1610156104895761046a836012610e07565b61047590600a610de2565b61047f9082610e20565b9695505050505050565b610494601284610e07565b61049f90600a610de2565b61047f9082610e37565b5f6104b261087f565b805490915060ff600160401b820416159067ffffffffffffffff165f811580156104d95750825b90505f8267ffffffffffffffff1660011480156104f55750303b155b905081158015610503575080155b156105215760405163f92ee8a960e01b815260040160405180910390fd5b845467ffffffffffffffff19166001178555831561054b57845460ff60401b1916600160401b1785555b610554866108a9565b61055c6108ba565b6105646108ba565b83156105aa57845460ff60401b19168555604051600181527fc7f505b2f371ae2175ee4913f4499e1f2633a7b5936321eed1cdaeb6115181d29060200160405180910390a15b505050505050565b5f807f237e158222e3e6968b72b9db0d8043aacf074ad9f650f0d1606b4d82ee432c0061028f565b6105e2610815565b7f237e158222e3e6968b72b9db0d8043aacf074ad9f650f0d1606b4d82ee432c0080546001600160a01b0319166001600160a01b038316908117825561062661026b565b6001600160a01b03167f38d16b8cac22d99fc7c124b9cd0de2d3fa1faef420bfe791d8c362d765e2270060405160405180910390a35050565b306001600160a01b037f00000000000000000000000000000000000000000000000000000000000000001614806106e557507f00000000000000000000000000000000000000000000000000000000000000006001600160a01b03166106d95f516020610e6d5f395f51905f52546001600160a01b031690565b6001600160a01b031614155b1561021c5760405163703e46dd60e11b815260040160405180910390fd5b610268610815565b816001600160a01b03166352d1902d6040518163ffffffff1660e01b8152600401602060405180830381865afa925050508015610765575060408051601f3d908101601f1916820190925261076291810190610df0565b60015b61078d57604051634c9c8ce360e01b81526001600160a01b0383166004820152602401610256565b5f516020610e6d5f395f51905f5281146107bd57604051632a87526960e21b815260048101829052602401610256565b6107c783836108c2565b505050565b306001600160a01b037f0000000000000000000000000000000000000000000000000000000000000000161461021c5760405163703e46dd60e11b815260040160405180910390fd5b3361081e61026b565b6001600160a01b03161461021c5760405163118cdaa760e01b8152336004820152602401610256565b7f237e158222e3e6968b72b9db0d8043aacf074ad9f650f0d1606b4d82ee432c0080546001600160a01b03191681556101ec82610917565b5f807ff0c57e16840df040f15088dc2f81fe391c3923bec73e23a9662efc9c229c6a005b92915050565b6108b1610987565b610268816109ac565b61021c610987565b6108cb826109dd565b6040516001600160a01b038316907fbc7cd75a20ee27fd9adebab32041f755214dbc6bffa90cc0225b39da2e5c2d3b905f90a280511561090f576107c78282610a40565b6101ec610ab2565b7f9016d09d72d40fdae2fd8ceac6b6234c7706214fd39c1cd1e609a0528c19930080546001600160a01b031981166001600160a01b03848116918217845560405192169182907f8be0079c531659141344cd1fd0a4f28419497f9722a3daafe3b4186f6b6457e0905f90a3505050565b61098f610ad1565b61021c57604051631afcd79f60e31b815260040160405180910390fd5b6109b4610987565b6001600160a01b03811661025f57604051631e4fbdf760e01b81525f6004820152602401610256565b806001600160a01b03163b5f03610a1257604051634c9c8ce360e01b81526001600160a01b0382166004820152602401610256565b5f516020610e6d5f395f51905f5280546001600160a01b0319166001600160a01b0392909216919091179055565b60605f5f846001600160a01b031684604051610a5c9190610e56565b5f60405180830381855af49150503d805f8114610a94576040519150601f19603f3d011682016040523d82523d5f602084013e610a99565b606091505b5091509150610aa9858383610aea565b95945050505050565b341561021c5760405163b398979f60e01b815260040160405180910390fd5b5f610ada61087f565b54600160401b900460ff16919050565b606082610aff57610afa82610b49565b610b42565b8151158015610b1657506001600160a01b0384163b155b15610b3f57604051639996b31560e01b81526001600160a01b0385166004820152602401610256565b50805b9392505050565b805115610b595780518082602001fd5b60405163d6bda27560e01b815260040160405180910390fd5b6001600160a01b0381168114610268575f5ffd5b634e487b7160e01b5f52604160045260245ffd5b5f5f60408385031215610bab575f5ffd5b8235610bb681610b72565b9150602083013567ffffffffffffffff811115610bd1575f5ffd5b8301601f81018513610be1575f5ffd5b803567ffffffffffffffff811115610bfb57610bfb610b86565b604051601f8201601f19908116603f0116810167ffffffffffffffff81118282101715610c2a57610c2a610b86565b604052818152828201602001871015610c41575f5ffd5b816020840160208301375f602083830101528093505050509250929050565b602081525f82518060208401528060208501604085015e5f604082850101526040601f19601f83011684010191505092915050565b5f60208284031215610ca5575f5ffd5b8135610b4281610b72565b5f60208284031215610cc0575f5ffd5b815160ff81168114610b42575f5ffd5b5f60208284031215610ce0575f5ffd5b8151610b4281610b72565b634e487b7160e01b5f52601160045260245ffd5b6001815b6001841115610d3a57808504811115610d1e57610d1e610ceb565b6001841615610d2c57908102905b60019390931c928002610d03565b935093915050565b5f82610d50575060016108a3565b81610d5c57505f6108a3565b8160018114610d725760028114610d7c57610d98565b60019150506108a3565b60ff841115610d8d57610d8d610ceb565b50506001821b6108a3565b5060208310610133831016604e8410600b8410161715610dbb575081810a6108a3565b610dc75f198484610cff565b805f1904821115610dda57610dda610ceb565b029392505050565b5f610b4260ff841683610d42565b5f60208284031215610e00575f5ffd5b5051919050565b60ff82811682821603908111156108a3576108a3610ceb565b80820281158282048414176108a3576108a3610ceb565b5f82610e5157634e487b7160e01b5f52601260045260245ffd5b500490565b5f82518060208501845e5f92019182525091905056fe360894a13ba1a3210667c828492db98dca3e2076cc3735a920a3ca505d382bbca2646970667358221220dcc2b1ca596a7c318c5d1913b5619b92b94953c244628b3e78b8702033fc7b1a64736f6c634300081c0033",
  "linkReferences": {},
  "deployedLinkReferences": {}
}