{
  "_format": "hh-sol-artifact-1",
  "contractName": "ERC4626PriceAdapter",
  "sourceName": "contracts/oracles/ERC4626PriceAdapter.sol",
  "abi": [
    {
      "inputs": [
        {
          "internalType": "address",
          "name": "target",
          "type": "address"
        }
      ],
      "name": "AddressEmptyCode",
      "type": "error"
    },
    {
      "inputs": [
        {
          "internalType": "address",
          "name": "implementation",
          "type": "address"
        }
      ],
      "name": "ERC1967InvalidImplementation",
      "type": "error"
    },
    {
      "inputs": [],
      "name": "ERC1967NonPayable",
      "type": "error"
    },
    {
      "inputs": [],
      "name": "FailedCall",
      "type": "error"
    },
    {
      "inputs": [],
      "name": "InvalidInitialization",
      "type": "error"
    },
    {
      "inputs": [],
      "name": "NotInitializing",
      "type": "error"
    },
    {
      "inputs": [
        {
          "internalType": "address",
          "name": "owner",
          "type": "address"
        }
      ],
      "name": "OwnableInvalidOwner",
      "type": "error"
    },
    {
      "inputs": [
        {
          "internalType": "address",
          "name": "account",
          "type": "address"
        }
      ],
      "name": "OwnableUnauthorizedAccount",
      "type": "error"
    },
    {
      "inputs": [],
      "name": "UUPSUnauthorizedCallContext",
      "type": "error"
    },
    {
      "inputs": [
        {
          "internalType": "bytes32",
          "name": "slot",
          "type": "bytes32"
        }
      ],
      "name": "UUPSUnsupportedProxiableUUID",
      "type": "error"
    },
    {
      "anonymous": false,
      "inputs": [
        {
          "indexed": false,
          "internalType": "uint64",
          "name": "version",
          "type": "uint64"
        }
      ],
      "name": "Initialized",
      "type": "event"
    },
    {
      "anonymous": false,
      "inputs": [
        {
          "indexed": true,
          "internalType": "address",
          "name": "previousOwner",
          "type": "address"
        },
        {
          "indexed": true,
          "internalType": "address",
          "name": "newOwner",
          "type": "address"
        }
      ],
      "name": "OwnershipTransferStarted",
      "type": "event"
    },
    {
      "anonymous": false,
      "inputs": [
        {
          "indexed": true,
          "internalType": "address",
          "name": "previousOwner",
          "type": "address"
        },
        {
          "indexed": true,
          "internalType": "address",
          "name": "newOwner",
          "type": "address"
        }
      ],
      "name": "OwnershipTransferred",
      "type": "event"
    },
    {
      "anonymous": false,
      "inputs": [
        {
          "indexed": true,
          "internalType": "address",
          "name": "implementation",
          "type": "address"
        }
      ],
      "name": "Upgraded",
      "type": "event"
    },
    {
      "inputs": [],
      "name": "UPGRADE_INTERFACE_VERSION",
      "outputs": [
        {
          "internalType": "string",
          "name": "",
          "type": "string"
        }
      ],
      "stateMutability": "view",
      "type": "function"
    },
    {
      "inputs": [],
      "name": "acceptOwnership",
      "outputs": [],
      "stateMutability": "nonpayable",
      "type": "function"
    },
    {
      "inputs": [],
      "name": "asset",
      "outputs": [
        {
          "internalType": "contract IERC4626",
          "name": "",
          "type": "address"
        }
      ],
      "stateMutability": "view",
      "type": "function"
    },
    {
      "inputs": [],
      "name": "assetDecimals",
      "outputs": [
        {
          "internalType": "uint8",
          "name": "",
          "type": "uint8"
        }
      ],
      "stateMutability": "view",
      "type": "function"
    },
    {
      "inputs": [
        {
          "internalType": "contract IERC4626",
          "name": "asset_",
          "type": "address"
        },
        {
          "internalType": "address",
          "name": "initialOwner",
          "type": "address"
        }
      ],
      "name": "initialize",
      "outputs": [],
      "stateMutability": "nonpayable",
      "type": "function"
    },
    {
      "inputs": [],
      "name": "owner",
      "outputs": [
        {
          "internalType": "address",
          "name": "",
          "type": "address"
        }
      ],
      "stateMutability": "view",
      "type": "function"
    },
    {
      "inputs": [],
      "name": "pendingOwner",
      "outputs": [
        {
          "internalType": "address",
          "name": "",
          "type": "address"
        }
      ],
      "stateMutability": "view",
      "type": "function"
    },
    {
      "inputs": [],
      "name": "price",
      "outputs": [
        {
          "internalType": "uint256",
          "name": "",
          "type": "uint256"
        }
      ],
      "stateMutability": "view",
      "type": "function"
    },
    {
      "inputs": [],
      "name": "proxiableUUID",
      "outputs": [
        {
          "internalType": "bytes32",
          "name": "",
          "type": "bytes32"
        }
      ],
      "stateMutability": "view",
      "type": "function"
    },
    {
      "inputs": [],
      "name": "renounceOwnership",
      "outputs": [],
      "stateMutability": "nonpayable",
      "type": "function"
    },
    {
      "inputs": [],
      "name": "shareDecimals",
      "outputs": [
        {
          "internalType": "uint8",
          "name": "",
          "type": "uint8"
        }
      ],
      "stateMutability": "view",
      "type": "function"
    },
    {
      "inputs": [
        {
          "internalType": "address",
          "name": "newOwner",
          "type": "address"
        }
      ],
      "name": "transferOwnership",
      "outputs": [],
      "stateMutability": "nonpayable",
      "type": "function"
    },
    {
      "inputs": [
        {
          "internalType": "address",
          "name": "newImplementation",
          "type": "address"
        },
        {
          "internalType": "bytes",
          "name": "data",
          "type": "bytes"
        }
      ],
      "name": "upgradeToAndCall",
      "outputs": [],
      "stateMutability": "payable",
      "type": "function"
    }
  ],
  "bytecode": "0x60a0604052306080523480156012575f5ffd5b5060805161101c6100395f395f81816107d0015281816107f9015261093d015261101c5ff3fe6080604052600436106100bf575f3560e01c806379ba50971161007c578063ad3cb1cc11610057578063ad3cb1cc146101d5578063c2d4160114610212578063e30c397814610231578063f2fde38b14610245575f5ffd5b806379ba5097146101995780638da5cb5b146101ad578063a035b1fe146101c1575f5ffd5b806338d52e0f146100c35780633af8e5eb146100fe578063485cc9551461012f5780634f1ef2861461015057806352d1902d14610163578063715018a614610185575b5f5ffd5b3480156100ce575f5ffd5b505f546100e1906001600160a01b031681565b6040516001600160a01b0390911681526020015b60405180910390f35b348015610109575f5ffd5b505f5461011d90600160a01b900460ff1681565b60405160ff90911681526020016100f5565b34801561013a575f5ffd5b5061014e610149366004610ca9565b610264565b005b61014e61015e366004610cf4565b6104ec565b34801561016e575f5ffd5b5061017761050b565b6040519081526020016100f5565b348015610190575f5ffd5b5061014e610526565b3480156101a4575f5ffd5b5061014e610539565b3480156101b8575f5ffd5b506100e1610586565b3480156101cc575f5ffd5b506101776105ba565b3480156101e0575f5ffd5b50610205604051806040016040528060058152602001640352e302e360dc1b81525081565b6040516100f59190610dba565b34801561021d575f5ffd5b505f5461011d90600160a81b900460ff1681565b34801561023c575f5ffd5b506100e16106d5565b348015610250575f5ffd5b5061014e61025f366004610def565b6106fd565b5f61026d610782565b805490915060ff600160401b820416159067ffffffffffffffff165f811580156102945750825b90505f8267ffffffffffffffff1660011480156102b05750303b155b9050811580156102be575080155b156102dc5760405163f92ee8a960e01b815260040160405180910390fd5b845467ffffffffffffffff19166001178555831561030657845460ff60401b1916600160401b1785555b61030f866107ac565b6103176107bd565b61031f6107bd565b5f80546001600160a01b0319166001600160a01b0389169081179091556040805163313ce56760e01b8152905163313ce567916004808201926020929091908290030181865afa158015610375573d5f5f3e3d5ffd5b505050506040513d601f19601f820116820180604052508101906103999190610e0a565b5f60146101000a81548160ff021916908360ff1602179055505f5f9054906101000a90046001600160a01b03166001600160a01b03166338d52e0f6040518163ffffffff1660e01b8152600401602060405180830381865afa158015610401573d5f5f3e3d5ffd5b505050506040513d601f19601f820116820180604052508101906104259190610e2a565b6001600160a01b031663313ce5676040518163ffffffff1660e01b8152600401602060405180830381865afa158015610460573d5f5f3e3d5ffd5b505050506040513d601f19601f820116820180604052508101906104849190610e0a565b5f60156101000a81548160ff021916908360ff16021790555083156104e357845460ff60401b19168555604051600181527fc7f505b2f371ae2175ee4913f4499e1f2633a7b5936321eed1cdaeb6115181d29060200160405180910390a15b50505050505050565b6104f46107c5565b6104fd82610869565b6105078282610871565b5050565b5f610514610932565b505f516020610fc75f395f51905f5290565b61052e61097b565b6105375f6109ad565b565b33806105436106d5565b6001600160a01b03161461057a5760405163118cdaa760e01b81526001600160a01b03821660048201526024015b60405180910390fd5b610583816109ad565b50565b5f807f9016d09d72d40fdae2fd8ceac6b6234c7706214fd39c1cd1e609a0528c1993005b546001600160a01b031692915050565b5f805481906105d490600160a01b900460ff16600a610f3c565b5f80546040516303d1689d60e11b81526004810184905292935090916001600160a01b03909116906307a2d13a90602401602060405180830381865afa158015610620573d5f5f3e3d5ffd5b505050506040513d601f19601f820116820180604052508101906106449190610f4a565b5f54909150600160a81b900460ff166012036106605792915050565b5f546012600160a81b90910460ff1610156106a8575f5461068c90600160a81b900460ff166012610f61565b61069790600a610f3c565b6106a19082610f7a565b9250505090565b5f546106c090601290600160a81b900460ff16610f61565b6106cb90600a610f3c565b6106a19082610f91565b5f807f237e158222e3e6968b72b9db0d8043aacf074ad9f650f0d1606b4d82ee432c006105aa565b61070561097b565b7f237e158222e3e6968b72b9db0d8043aacf074ad9f650f0d1606b4d82ee432c0080546001600160a01b0319166001600160a01b0383169081178255610749610586565b6001600160a01b03167f38d16b8cac22d99fc7c124b9cd0de2d3fa1faef420bfe791d8c362d765e2270060405160405180910390a35050565b5f807ff0c57e16840df040f15088dc2f81fe391c3923bec73e23a9662efc9c229c6a005b92915050565b6107b46109e5565b61058381610a0a565b6105376109e5565b306001600160a01b037f000000000000000000000000000000000000000000000000000000000000000016148061084b57507f00000000000000000000000000000000000000000000000000000000000000006001600160a01b031661083f5f516020610fc75f395f51905f52546001600160a01b031690565b6001600160a01b031614155b156105375760405163703e46dd60e11b815260040160405180910390fd5b61058361097b565b816001600160a01b03166352d1902d6040518163ffffffff1660e01b8152600401602060405180830381865afa9250505080156108cb575060408051601f3d908101601f191682019092526108c891810190610f4a565b60015b6108f357604051634c9c8ce360e01b81526001600160a01b0383166004820152602401610571565b5f516020610fc75f395f51905f52811461092357604051632a87526960e21b815260048101829052602401610571565b61092d8383610a3b565b505050565b306001600160a01b037f000000000000000000000000000000000000000000000000000000000000000016146105375760405163703e46dd60e11b815260040160405180910390fd5b33610984610586565b6001600160a01b0316146105375760405163118cdaa760e01b8152336004820152602401610571565b7f237e158222e3e6968b72b9db0d8043aacf074ad9f650f0d1606b4d82ee432c0080546001600160a01b031916815561050782610a90565b6109ed610b00565b61053757604051631afcd79f60e31b815260040160405180910390fd5b610a126109e5565b6001600160a01b03811661057a57604051631e4fbdf760e01b81525f6004820152602401610571565b610a4482610b19565b6040516001600160a01b038316907fbc7cd75a20ee27fd9adebab32041f755214dbc6bffa90cc0225b39da2e5c2d3b905f90a2805115610a885761092d8282610b7c565b610507610bee565b7f9016d09d72d40fdae2fd8ceac6b6234c7706214fd39c1cd1e609a0528c19930080546001600160a01b031981166001600160a01b03848116918217845560405192169182907f8be0079c531659141344cd1fd0a4f28419497f9722a3daafe3b4186f6b6457e0905f90a3505050565b5f610b09610782565b54600160401b900460ff16919050565b806001600160a01b03163b5f03610b4e57604051634c9c8ce360e01b81526001600160a01b0382166004820152602401610571565b5f516020610fc75f395f51905f5280546001600160a01b0319166001600160a01b0392909216919091179055565b60605f5f846001600160a01b031684604051610b989190610fb0565b5f60405180830381855af49150503d805f8114610bd0576040519150601f19603f3d011682016040523d82523d5f602084013e610bd5565b606091505b5091509150610be5858383610c0d565b95945050505050565b34156105375760405163b398979f60e01b815260040160405180910390fd5b606082610c2257610c1d82610c6c565b610c65565b8151158015610c3957506001600160a01b0384163b155b15610c6257604051639996b31560e01b81526001600160a01b0385166004820152602401610571565b50805b9392505050565b805115610c7c5780518082602001fd5b60405163d6bda27560e01b815260040160405180910390fd5b6001600160a01b0381168114610583575f5ffd5b5f5f60408385031215610cba575f5ffd5b8235610cc581610c95565b91506020830135610cd581610c95565b809150509250929050565b634e487b7160e01b5f52604160045260245ffd5b5f5f60408385031215610d05575f5ffd5b8235610d1081610c95565b9150602083013567ffffffffffffffff811115610d2b575f5ffd5b8301601f81018513610d3b575f5ffd5b803567ffffffffffffffff811115610d5557610d55610ce0565b604051601f8201601f19908116603f0116810167ffffffffffffffff81118282101715610d8457610d84610ce0565b604052818152828201602001871015610d9b575f5ffd5b816020840160208301375f602083830101528093505050509250929050565b602081525f82518060208401528060208501604085015e5f604082850101526040601f19601f83011684010191505092915050565b5f60208284031215610dff575f5ffd5b8135610c6581610c95565b5f60208284031215610e1a575f5ffd5b815160ff81168114610c65575f5ffd5b5f60208284031215610e3a575f5ffd5b8151610c6581610c95565b634e487b7160e01b5f52601160045260245ffd5b6001815b6001841115610e9457808504811115610e7857610e78610e45565b6001841615610e8657908102905b60019390931c928002610e5d565b935093915050565b5f82610eaa575060016107a6565b81610eb657505f6107a6565b8160018114610ecc5760028114610ed657610ef2565b60019150506107a6565b60ff841115610ee757610ee7610e45565b50506001821b6107a6565b5060208310610133831016604e8410600b8410161715610f15575081810a6107a6565b610f215f198484610e59565b805f1904821115610f3457610f34610e45565b029392505050565b5f610c6560ff841683610e9c565b5f60208284031215610f5a575f5ffd5b5051919050565b60ff82811682821603908111156107a6576107a6610e45565b80820281158282048414176107a6576107a6610e45565b5f82610fab57634e487b7160e01b5f52601260045260245ffd5b500490565b5f82518060208501845e5f92019182525091905056fe360894a13ba1a3210667c828492db98dca3e2076cc3735a920a3ca505d382bbca2646970667358221220acaad5b335b9e04cdccb0d2a0fedc60fadce0017d3e3ce8a8a406cdc4d8d368964736f6c634300081c0033",
  "linkReferences": {},
  "deployedLinkReferences": {}
}