{
  "_format": "hh-sol-artifact-1",
  "contractName": "ERC4626PriceAdapter",
  "sourceName": "contracts/oracles/ERC4626PriceAdapter.sol",
  "abi": [
    {
      "inputs": [
        {
          "internalType": "address",
          "name": "target",
          "type": "address"
        }
      ],
      "name": "AddressEmptyCode",
      "type": "error"
    },
    {
      "inputs": [
        {
          "internalType": "address",
          "name": "implementation",
          "type": "address"
        }
      ],
      "name": "ERC1967InvalidImplementation",
      "type": "error"
    },
    {
      "inputs": [],
      "name": "ERC1967NonPayable",
      "type": "error"
    },
    {
      "inputs": [],
      "name": "FailedCall",
      "type": "error"
    },
    {
      "inputs": [],
      "name": "InvalidInitialization",
      "type": "error"
    },
    {
      "inputs": [],
      "name": "NotInitializing",
      "type": "error"
    },
    {
      "inputs": [
        {
          "internalType": "address",
          "name": "owner",
          "type": "address"
        }
      ],
      "name": "OwnableInvalidOwner",
      "type": "error"
    },
    {
      "inputs": [
        {
          "internalType": "address",
          "name": "account",
          "type": "address"
        }
      ],
      "name": "OwnableUnauthorizedAccount",
      "type": "error"
    },
    {
      "inputs": [],
      "name": "UUPSUnauthorizedCallContext",
      "type": "error"
    },
    {
      "inputs": [
        {
          "internalType": "bytes32",
          "name": "slot",
          "type": "bytes32"
        }
      ],
      "name": "UUPSUnsupportedProxiableUUID",
      "type": "error"
    },
    {
      "anonymous": false,
      "inputs": [
        {
          "indexed": false,
          "internalType": "uint64",
          "name": "version",
          "type": "uint64"
        }
      ],
      "name": "Initialized",
      "type": "event"
    },
    {
      "anonymous": false,
      "inputs": [
        {
          "indexed": true,
          "internalType": "address",
          "name": "previousOwner",
          "type": "address"
        },
        {
          "indexed": true,
          "internalType": "address",
          "name": "newOwner",
          "type": "address"
        }
      ],
      "name": "OwnershipTransferStarted",
      "type": "event"
    },
    {
      "anonymous": false,
      "inputs": [
        {
          "indexed": true,
          "internalType": "address",
          "name": "previousOwner",
          "type": "address"
        },
        {
          "indexed": true,
          "internalType": "address",
          "name": "newOwner",
          "type": "address"
        }
      ],
      "name": "OwnershipTransferred",
      "type": "event"
    },
    {
      "anonymous": false,
      "inputs": [
        {
          "indexed": true,
          "internalType": "address",
          "name": "implementation",
          "type": "address"
        }
      ],
      "name": "Upgraded",
      "type": "event"
    },
    {
      "inputs": [],
      "name": "UPGRADE_INTERFACE_VERSION",
      "outputs": [
        {
          "internalType": "string",
          "name": "",
          "type": "string"
        }
      ],
      "stateMutability": "view",
      "type": "function"
    },
    {
      "inputs": [],
      "name": "acceptOwnership",
      "outputs": [],
      "stateMutability": "nonpayable",
      "type": "function"
    },
    {
      "inputs": [
        {
          "internalType": "address",
          "name": "initialOwner",
          "type": "address"
        }
      ],
      "name": "initialize",
      "outputs": [],
      "stateMutability": "nonpayable",
      "type": "function"
    },
    {
      "inputs": [],
      "name": "owner",
      "outputs": [
        {
          "internalType": "address",
          "name": "",
          "type": "address"
        }
      ],
      "stateMutability": "view",
      "type": "function"
    },
    {
      "inputs": [],
      "name": "pendingOwner",
      "outputs": [
        {
          "internalType": "address",
          "name": "",
          "type": "address"
        }
      ],
      "stateMutability": "view",
      "type": "function"
    },
    {
      "inputs": [
        {
          "internalType": "address",
          "name": "asset",
          "type": "address"
        }
      ],
      "name": "price",
      "outputs": [
        {
          "internalType": "uint256",
          "name": "",
          "type": "uint256"
        }
      ],
      "stateMutability": "view",
      "type": "function"
    },
    {
      "inputs": [],
      "name": "proxiableUUID",
      "outputs": [
        {
          "internalType": "bytes32",
          "name": "",
          "type": "bytes32"
        }
      ],
      "stateMutability": "view",
      "type": "function"
    },
    {
      "inputs": [],
      "name": "renounceOwnership",
      "outputs": [],
      "stateMutability": "nonpayable",
      "type": "function"
    },
    {
      "inputs": [
        {
          "internalType": "address",
          "name": "newOwner",
          "type": "address"
        }
      ],
      "name": "transferOwnership",
      "outputs": [],
      "stateMutability": "nonpayable",
      "type": "function"
    },
    {
      "inputs": [
        {
          "internalType": "address",
          "name": "newImplementation",
          "type": "address"
        },
        {
          "internalType": "bytes",
          "name": "data",
          "type": "bytes"
        }
      ],
      "name": "upgradeToAndCall",
      "outputs": [],
      "stateMutability": "payable",
      "type": "function"
    }
  ],
  "bytecode": "0x60a06040523073ffffffffffffffffffffffffffffffffffffffff1660809073ffffffffffffffffffffffffffffffffffffffff168152503480156041575f5ffd5b50608051611bd26100685f395f8181610ab601528181610b0b0152610d010152611bd25ff3fe608060405260043610610090575f3560e01c8063ad3cb1cc11610058578063ad3cb1cc14610130578063aea910781461015a578063c4d66de814610196578063e30c3978146101be578063f2fde38b146101e857610090565b80634f1ef2861461009457806352d1902d146100b0578063715018a6146100da57806379ba5097146100f05780638da5cb5b14610106575b5f5ffd5b6100ae60048036038101906100a99190611583565b610210565b005b3480156100bb575f5ffd5b506100c461022f565b6040516100d191906115f5565b60405180910390f35b3480156100e5575f5ffd5b506100ee610260565b005b3480156100fb575f5ffd5b50610104610273565b005b348015610111575f5ffd5b5061011a610301565b604051610127919061161d565b60405180910390f35b34801561013b575f5ffd5b50610144610336565b6040516101519190611696565b60405180910390f35b348015610165575f5ffd5b50610180600480360381019061017b91906116b6565b61036f565b60405161018d91906116f9565b60405180910390f35b3480156101a1575f5ffd5b506101bc60048036038101906101b791906116b6565b610781565b005b3480156101c9575f5ffd5b506101d26109c6565b6040516101df919061161d565b60405180910390f35b3480156101f3575f5ffd5b5061020e600480360381019061020991906116b6565b6109fb565b005b610218610ab4565b61022182610b9a565b61022b8282610be1565b5050565b5f610238610cff565b7f360894a13ba1a3210667c828492db98dca3e2076cc3735a920a3ca505d382bbc5f1b905090565b610268610d86565b6102715f610e0d565b565b5f61027c610e4a565b90508073ffffffffffffffffffffffffffffffffffffffff1661029d6109c6565b73ffffffffffffffffffffffffffffffffffffffff16146102f557806040517f118cdaa70000000000000000000000000000000000000000000000000000000081526004016102ec919061161d565b60405180910390fd5b6102fe81610e0d565b50565b5f5f61030b610e51565b9050805f015f9054906101000a900473ffffffffffffffffffffffffffffffffffffffff1691505090565b6040518060400160405280600581526020017f352e302e3000000000000000000000000000000000000000000000000000000081525081565b5f61038467bbe2ff94d98eded360c01b610e78565b61039867bf144ff196cd507660c01b610e78565b6103ac6746d575979e7d538460c01b610e78565b5f8273ffffffffffffffffffffffffffffffffffffffff1663313ce5676040518163ffffffff1660e01b8152600401602060405180830381865afa1580156103f6573d5f5f3e3d5ffd5b505050506040513d601f19601f8201168201806040525081019061041a9190611748565b905061043067c54f69425d787ae260c01b610e78565b610444673211fd48278e9fbc60c01b610e78565b5f8373ffffffffffffffffffffffffffffffffffffffff166338d52e0f6040518163ffffffff1660e01b8152600401602060405180830381865afa15801561048e573d5f5f3e3d5ffd5b505050506040513d601f19601f820116820180604052508101906104b29190611787565b73ffffffffffffffffffffffffffffffffffffffff1663313ce5676040518163ffffffff1660e01b8152600401602060405180830381865afa1580156104fa573d5f5f3e3d5ffd5b505050506040513d601f19601f8201168201806040525081019061051e9190611748565b905061053467c6050ce2c7dc095f60c01b610e78565b610548670f0eef090fc7594b60c01b610e78565b5f82600a610556919061190e565b905061056c67f2586d3a3e50521460c01b610e78565b610580671e6337fab21d869860c01b610e78565b5f8573ffffffffffffffffffffffffffffffffffffffff166307a2d13a836040518263ffffffff1660e01b81526004016105ba91906116f9565b602060405180830381865afa1580156105d5573d5f5f3e3d5ffd5b505050506040513d601f19601f820116820180604052508101906105f99190611982565b905061060f67037a6192bdadc83a60c01b610e78565b610623673e4eeb069558884960c01b610e78565b60128360ff1603610676576106426773576a508e7083cb60c01b610e78565b61065667948af0a85e789f7360c01b610e78565b61066a67c1e8a077301fa1fd60c01b610e78565b8094505050505061077c565b61068a678f8e81284ca5f15160c01b610e78565b61069e675cf30baaac7f6af860c01b610e78565b60128360ff161015610715576106be67c92b4c5dd264a19f60c01b610e78565b6106d26775c238f2349c9c7460c01b610e78565b6106e667d9b66f4073881bd060c01b610e78565b8260126106f391906119ad565b600a6106ff919061190e565b8161070a91906119e1565b94505050505061077c565b610729673a33eaaffbf0007460c01b610e78565b61073d6799ae54d114df935760c01b610e78565b61075167c5f4e0e8e222dd6a60c01b610e78565b60128361075e91906119ad565b600a61076a919061190e565b816107759190611a4f565b9450505050505b919050565b61079567f7384a8d3d3d780060c01b610e78565b5f61079e610e7b565b90505f815f0160089054906101000a900460ff161590505f825f015f9054906101000a900467ffffffffffffffff1690505f5f8267ffffffffffffffff161480156107e65750825b90505f60018367ffffffffffffffff1614801561081957505f3073ffffffffffffffffffffffffffffffffffffffff163b145b905081158015610827575080155b1561085e576040517ff92ee8a900000000000000000000000000000000000000000000000000000000815260040160405180910390fd5b6001855f015f6101000a81548167ffffffffffffffff021916908367ffffffffffffffff16021790555083156108ab576001855f0160086101000a81548160ff0219169083151502179055505b6108bf6747f611c9bbd8325d60c01b610e78565b6108d36777ad981b97fc9e2a60c01b610e78565b6108e76749766d27f43e080860c01b610e78565b6108fb674690f5a7d4f6ea0560c01b610e78565b61090486610e8e565b610918674733f9fb946e15ac60c01b610e78565b61092c671269e347b54e0f1c60c01b610e78565b610934610ea2565b61094867d54acdf408288b0060c01b610e78565b61095c67a693e9440514777860c01b610e78565b610964610eac565b83156109be575f855f0160086101000a81548160ff0219169083151502179055507fc7f505b2f371ae2175ee4913f4499e1f2633a7b5936321eed1cdaeb6115181d260016040516109b59190611ad4565b60405180910390a15b505050505050565b5f5f6109d0610eb6565b9050805f015f9054906101000a900473ffffffffffffffffffffffffffffffffffffffff1691505090565b610a03610d86565b5f610a0c610eb6565b905081815f015f6101000a81548173ffffffffffffffffffffffffffffffffffffffff021916908373ffffffffffffffffffffffffffffffffffffffff1602179055508173ffffffffffffffffffffffffffffffffffffffff16610a6e610301565b73ffffffffffffffffffffffffffffffffffffffff167f38d16b8cac22d99fc7c124b9cd0de2d3fa1faef420bfe791d8c362d765e2270060405160405180910390a35050565b7f000000000000000000000000000000000000000000000000000000000000000073ffffffffffffffffffffffffffffffffffffffff163073ffffffffffffffffffffffffffffffffffffffff161480610b6157507f000000000000000000000000000000000000000000000000000000000000000073ffffffffffffffffffffffffffffffffffffffff16610b48610edd565b73ffffffffffffffffffffffffffffffffffffffff1614155b15610b98576040517fe07c8dba00000000000000000000000000000000000000000000000000000000815260040160405180910390fd5b565b610bae67bd1ba34aff8e9f5060c01b610e78565b610bb6610d86565b610bca67173237e5b7942b6b60c01b610e78565b610bde67422d3d3548b457ab60c01b610e78565b50565b8173ffffffffffffffffffffffffffffffffffffffff166352d1902d6040518163ffffffff1660e01b8152600401602060405180830381865afa925050508015610c4957506040513d601f19601f82011682018060405250810190610c469190611b17565b60015b610c8a57816040517f4c9c8ce3000000000000000000000000000000000000000000000000000000008152600401610c81919061161d565b60405180910390fd5b7f360894a13ba1a3210667c828492db98dca3e2076cc3735a920a3ca505d382bbc5f1b8114610cf057806040517faa1d49a4000000000000000000000000000000000000000000000000000000008152600401610ce791906115f5565b60405180910390fd5b610cfa8383610f30565b505050565b7f000000000000000000000000000000000000000000000000000000000000000073ffffffffffffffffffffffffffffffffffffffff163073ffffffffffffffffffffffffffffffffffffffff1614610d84576040517fe07c8dba00000000000000000000000000000000000000000000000000000000815260040160405180910390fd5b565b610d8e610e4a565b73ffffffffffffffffffffffffffffffffffffffff16610dac610301565b73ffffffffffffffffffffffffffffffffffffffff1614610e0b57610dcf610e4a565b6040517f118cdaa7000000000000000000000000000000000000000000000000000000008152600401610e02919061161d565b60405180910390fd5b565b5f610e16610eb6565b9050805f015f6101000a81549073ffffffffffffffffffffffffffffffffffffffff0219169055610e4682610fa2565b5050565b5f33905090565b5f7f9016d09d72d40fdae2fd8ceac6b6234c7706214fd39c1cd1e609a0528c199300905090565b50565b5f5f610e85611073565b90508091505090565b610e9661109c565b610e9f816110dc565b50565b610eaa61109c565b565b610eb461109c565b565b5f7f237e158222e3e6968b72b9db0d8043aacf074ad9f650f0d1606b4d82ee432c00905090565b5f610f097f360894a13ba1a3210667c828492db98dca3e2076cc3735a920a3ca505d382bbc5f1b611160565b5f015f9054906101000a900473ffffffffffffffffffffffffffffffffffffffff16905090565b610f3982611169565b8173ffffffffffffffffffffffffffffffffffffffff167fbc7cd75a20ee27fd9adebab32041f755214dbc6bffa90cc0225b39da2e5c2d3b60405160405180910390a25f81511115610f9557610f8f8282611232565b50610f9e565b610f9d6112b2565b5b5050565b5f610fab610e51565b90505f815f015f9054906101000a900473ffffffffffffffffffffffffffffffffffffffff16905082825f015f6101000a81548173ffffffffffffffffffffffffffffffffffffffff021916908373ffffffffffffffffffffffffffffffffffffffff1602179055508273ffffffffffffffffffffffffffffffffffffffff168173ffffffffffffffffffffffffffffffffffffffff167f8be0079c531659141344cd1fd0a4f28419497f9722a3daafe3b4186f6b6457e060405160405180910390a3505050565b5f7ff0c57e16840df040f15088dc2f81fe391c3923bec73e23a9662efc9c229c6a005f1b905090565b6110a46112ee565b6110da576040517fd7e6bcf800000000000000000000000000000000000000000000000000000000815260040160405180910390fd5b565b6110e461109c565b5f73ffffffffffffffffffffffffffffffffffffffff168173ffffffffffffffffffffffffffffffffffffffff1603611154575f6040517f1e4fbdf700000000000000000000000000000000000000000000000000000000815260040161114b919061161d565b60405180910390fd5b61115d81610e0d565b50565b5f819050919050565b5f8173ffffffffffffffffffffffffffffffffffffffff163b036111c457806040517f4c9c8ce30000000000000000000000000000000000000000000000000000000081526004016111bb919061161d565b60405180910390fd5b806111f07f360894a13ba1a3210667c828492db98dca3e2076cc3735a920a3ca505d382bbc5f1b611160565b5f015f6101000a81548173ffffffffffffffffffffffffffffffffffffffff021916908373ffffffffffffffffffffffffffffffffffffffff16021790555050565b60605f5f8473ffffffffffffffffffffffffffffffffffffffff168460405161125b9190611b86565b5f60405180830381855af49150503d805f8114611293576040519150601f19603f3d011682016040523d82523d5f602084013e611298565b606091505b50915091506112a885838361130c565b9250505092915050565b5f3411156112ec576040517fb398979f00000000000000000000000000000000000000000000000000000000815260040160405180910390fd5b565b5f6112f7610e7b565b5f0160089054906101000a900460ff16905090565b6060826113215761131c82611399565b611391565b5f825114801561134757505f8473ffffffffffffffffffffffffffffffffffffffff163b145b1561138957836040517f9996b315000000000000000000000000000000000000000000000000000000008152600401611380919061161d565b60405180910390fd5b819050611392565b5b9392505050565b5f815111156113aa57805160208201fd5b6040517fd6bda27500000000000000000000000000000000000000000000000000000000815260040160405180910390fd5b5f604051905090565b5f5ffd5b5f5ffd5b5f73ffffffffffffffffffffffffffffffffffffffff82169050919050565b5f611416826113ed565b9050919050565b6114268161140c565b8114611430575f5ffd5b50565b5f813590506114418161141d565b92915050565b5f5ffd5b5f5ffd5b5f601f19601f8301169050919050565b7f4e487b71000000000000000000000000000000000000000000000000000000005f52604160045260245ffd5b6114958261144f565b810181811067ffffffffffffffff821117156114b4576114b361145f565b5b80604052505050565b5f6114c66113dc565b90506114d2828261148c565b919050565b5f67ffffffffffffffff8211156114f1576114f061145f565b5b6114fa8261144f565b9050602081019050919050565b828183375f83830152505050565b5f611527611522846114d7565b6114bd565b9050828152602081018484840111156115435761154261144b565b5b61154e848285611507565b509392505050565b5f82601f83011261156a57611569611447565b5b813561157a848260208601611515565b91505092915050565b5f5f60408385031215611599576115986113e5565b5b5f6115a685828601611433565b925050602083013567ffffffffffffffff8111156115c7576115c66113e9565b5b6115d385828601611556565b9150509250929050565b5f819050919050565b6115ef816115dd565b82525050565b5f6020820190506116085f8301846115e6565b92915050565b6116178161140c565b82525050565b5f6020820190506116305f83018461160e565b92915050565b5f81519050919050565b5f82825260208201905092915050565b8281835e5f83830152505050565b5f61166882611636565b6116728185611640565b9350611682818560208601611650565b61168b8161144f565b840191505092915050565b5f6020820190508181035f8301526116ae818461165e565b905092915050565b5f602082840312156116cb576116ca6113e5565b5b5f6116d884828501611433565b91505092915050565b5f819050919050565b6116f3816116e1565b82525050565b5f60208201905061170c5f8301846116ea565b92915050565b5f60ff82169050919050565b61172781611712565b8114611731575f5ffd5b50565b5f815190506117428161171e565b92915050565b5f6020828403121561175d5761175c6113e5565b5b5f61176a84828501611734565b91505092915050565b5f815190506117818161141d565b92915050565b5f6020828403121561179c5761179b6113e5565b5b5f6117a984828501611773565b91505092915050565b7f4e487b71000000000000000000000000000000000000000000000000000000005f52601160045260245ffd5b5f8160011c9050919050565b5f5f8291508390505b6001851115611834578086048111156118105761180f6117b2565b5b600185161561181f5780820291505b808102905061182d856117df565b94506117f4565b94509492505050565b5f8261184c5760019050611907565b81611859575f9050611907565b816001811461186f5760028114611879576118a8565b6001915050611907565b60ff84111561188b5761188a6117b2565b5b8360020a9150848211156118a2576118a16117b2565b5b50611907565b5060208310610133831016604e8410600b84101617156118dd5782820a9050838111156118d8576118d76117b2565b5b611907565b6118ea84848460016117eb565b92509050818404811115611901576119006117b2565b5b81810290505b9392505050565b5f611918826116e1565b915061192383611712565b92506119507fffffffffffffffffffffffffffffffffffffffffffffffffffffffffffffffff848461183d565b905092915050565b611961816116e1565b811461196b575f5ffd5b50565b5f8151905061197c81611958565b92915050565b5f60208284031215611997576119966113e5565b5b5f6119a48482850161196e565b91505092915050565b5f6119b782611712565b91506119c283611712565b9250828203905060ff8111156119db576119da6117b2565b5b92915050565b5f6119eb826116e1565b91506119f6836116e1565b9250828202611a04816116e1565b91508282048414831517611a1b57611a1a6117b2565b5b5092915050565b7f4e487b71000000000000000000000000000000000000000000000000000000005f52601260045260245ffd5b5f611a59826116e1565b9150611a64836116e1565b925082611a7457611a73611a22565b5b828204905092915050565b5f819050919050565b5f67ffffffffffffffff82169050919050565b5f819050919050565b5f611abe611ab9611ab484611a7f565b611a9b565b611a88565b9050919050565b611ace81611aa4565b82525050565b5f602082019050611ae75f830184611ac5565b92915050565b611af6816115dd565b8114611b00575f5ffd5b50565b5f81519050611b1181611aed565b92915050565b5f60208284031215611b2c57611b2b6113e5565b5b5f611b3984828501611b03565b91505092915050565b5f81519050919050565b5f81905092915050565b5f611b6082611b42565b611b6a8185611b4c565b9350611b7a818560208601611650565b80840191505092915050565b5f611b918284611b56565b91508190509291505056fea2646970667358221220d84d318b43f59821fb83e7e431895b123aeb09af4b7754478dee9054e0ae5c9064736f6c634300081c0033",
  "linkReferences": {},
  "deployedLinkReferences": {}
}