{
  "_format": "hh-sol-artifact-1",
  "contractName": "KBestTvlWeightedAverageInvalid",
  "sourceName": "contracts/test/KBestTvlWeightedAverageInvalid.sol",
  "abi": [
    {
      "inputs": [
        {
          "internalType": "address",
          "name": "owner",
          "type": "address"
        },
        {
          "internalType": "address",
          "name": "_config",
          "type": "address"
        },
        {
          "internalType": "uint16",
          "name": "_k",
          "type": "uint16"
        }
      ],
      "stateMutability": "nonpayable",
      "type": "constructor"
    },
    {
      "inputs": [
        {
          "internalType": "address",
          "name": "owner",
          "type": "address"
        }
      ],
      "name": "OwnableInvalidOwner",
      "type": "error"
    },
    {
      "inputs": [
        {
          "internalType": "address",
          "name": "account",
          "type": "address"
        }
      ],
      "name": "OwnableUnauthorizedAccount",
      "type": "error"
    },
    {
      "inputs": [],
      "name": "ZeroAddress",
      "type": "error"
    },
    {
      "anonymous": false,
      "inputs": [
        {
          "indexed": true,
          "internalType": "address",
          "name": "previousOwner",
          "type": "address"
        },
        {
          "indexed": true,
          "internalType": "address",
          "name": "newOwner",
          "type": "address"
        }
      ],
      "name": "OwnershipTransferred",
      "type": "event"
    },
    {
      "inputs": [],
      "name": "config",
      "outputs": [
        {
          "internalType": "contract IOrionConfig",
          "name": "",
          "type": "address"
        }
      ],
      "stateMutability": "view",
      "type": "function"
    },
    {
      "inputs": [],
      "name": "k",
      "outputs": [
        {
          "internalType": "uint16",
          "name": "",
          "type": "uint16"
        }
      ],
      "stateMutability": "view",
      "type": "function"
    },
    {
      "inputs": [],
      "name": "owner",
      "outputs": [
        {
          "internalType": "address",
          "name": "",
          "type": "address"
        }
      ],
      "stateMutability": "view",
      "type": "function"
    },
    {
      "inputs": [],
      "name": "renounceOwnership",
      "outputs": [],
      "stateMutability": "nonpayable",
      "type": "function"
    },
    {
      "inputs": [
        {
          "internalType": "contract IOrionTransparentVault",
          "name": "vault",
          "type": "address"
        }
      ],
      "name": "submitIntent",
      "outputs": [],
      "stateMutability": "nonpayable",
      "type": "function"
    },
    {
      "inputs": [
        {
          "internalType": "address",
          "name": "newOwner",
          "type": "address"
        }
      ],
      "name": "transferOwnership",
      "outputs": [],
      "stateMutability": "nonpayable",
      "type": "function"
    },
    {
      "inputs": [
        {
          "internalType": "uint16",
          "name": "kNew",
          "type": "uint16"
        }
      ],
      "name": "updateParameters",
      "outputs": [],
      "stateMutability": "nonpayable",
      "type": "function"
    }
  ],
  "bytecode": "0x608060405234801561000f575f5ffd5b50604051610db3380380610db383398101604081905261002e9161012b565b826001600160a01b03811661005c57604051631e4fbdf760e01b81525f600482015260240160405180910390fd5b610065816100c1565b506001600160a01b03821661008d5760405163d92e233d60e01b815260040160405180910390fd5b6001805461ffff909216600160a01b026001600160b01b03199092166001600160a01b039093169290921717905550610175565b5f80546001600160a01b038381166001600160a01b0319831681178455604051919092169283917f8be0079c531659141344cd1fd0a4f28419497f9722a3daafe3b4186f6b6457e09190a35050565b80516001600160a01b0381168114610126575f5ffd5b919050565b5f5f5f6060848603121561013d575f5ffd5b61014684610110565b925061015460208501610110565b9150604084015161ffff8116811461016a575f5ffd5b809150509250925092565b610c31806101825f395ff3fe608060405234801561000f575f5ffd5b506004361061006b575f3560e01c80632fc12f411461006f578063715018a61461008457806379502c551461008c5780638da5cb5b146100b55780639d2f7e84146100bd578063b4f40c61146100d0578063f2fde38b146100f8575b5f5ffd5b61008261007d3660046108ac565b61010b565b005b610082610135565b60015461009f906001600160a01b031681565b6040516100ac91906108d4565b60405180910390f35b61009f610148565b6100826100cb3660046108fc565b610156565b6001546100e590600160a01b900461ffff1681565b60405161ffff90911681526020016100ac565b6100826101063660046108fc565b610270565b6101136102b6565b6001805461ffff909216600160a01b0261ffff60a01b19909216919091179055565b61013d6102b6565b6101465f6102e8565b565b5f546001600160a01b031690565b5f816001600160a01b0316634e85b1356040518163ffffffff1660e01b81526004015f60405180830381865afa158015610192573d5f5f3e3d5ffd5b505050506040513d5f823e601f3d908101601f191682016040526101b9919081019061093b565b80519091505f6101c98383610337565b6001549091505f906101ea9061ffff600160a01b909104811690851661046b565b90505f5f6101fa8685878661047f565b915091505f61020a8383866106c4565b6040516358debf1760e11b81529091506001600160a01b0389169063b1bd7e2e90610239908490600401610a05565b5f604051808303815f87803b158015610250575f5ffd5b505af1158015610262573d5f5f3e3d5ffd5b505050505050505050505050565b6102786102b6565b6001600160a01b0381166102aa575f604051631e4fbdf760e01b81526004016102a191906108d4565b60405180910390fd5b6102b3816102e8565b50565b336102bf610148565b6001600160a01b031614610146573360405163118cdaa760e01b81526004016102a191906108d4565b5f80546001600160a01b038381166001600160a01b0319831681178455604051919092169283917f8be0079c531659141344cd1fd0a4f28419497f9722a3daafe3b4186f6b6457e09190a35050565b60608161ffff166001600160401b0381111561035557610355610917565b60405190808252806020026020018201604052801561037e578160200160208202803683370190505b5090505f5b8261ffff168161ffff16101561046457838161ffff16815181106103a9576103a9610a62565b60200260200101516001600160a01b03166301e1d1146040518163ffffffff1660e01b8152600401602060405180830381865afa92505050801561040a575060408051601f3d908101601f1916820190925261040791810190610a76565b60015b610437576001828261ffff168151811061042657610426610a62565b60200260200101818152505061045c565b80838361ffff168151811061044e5761044e610a62565b602002602001018181525050505b600101610383565b5092915050565b5f8282188284100282185b90505b92915050565b6060808261ffff166001600160401b0381111561049e5761049e610917565b6040519080825280602002602001820160405280156104c7578160200160208202803683370190505b5091508261ffff166001600160401b038111156104e6576104e6610917565b60405190808252806020026020018201604052801561050f578160200160208202803683370190505b5090505f8461ffff166001600160401b0381111561052f5761052f610917565b604051908082528060200260200182016040528015610558578160200160208202803683370190505b5090505f5b8461ffff168161ffff1610156106b9575f80805b8861ffff168161ffff1610156105fd57848161ffff168151811061059757610597610a62565b60200260200101511580156105c85750828a8261ffff16815181106105be576105be610a62565b6020026020010151115b156105f557898161ffff16815181106105e3576105e3610a62565b602002602001015192508061ffff1691505b600101610571565b50600184828151811061061257610612610a62565b60200260200101901515908115158152505089818151811061063657610636610a62565b6020026020010151868461ffff168151811061065457610654610a62565b60200260200101906001600160a01b031690816001600160a01b03168152505088818151811061068657610686610a62565b6020026020010151858461ffff16815181106106a4576106a4610a62565b6020908102919091010152505060010161055d565b505094509492505050565b60605f805b8361ffff168161ffff16101561070c57848161ffff16815181106106ef576106ef610a62565b6020026020010151826107029190610aa1565b91506001016106c9565b506001546040805163d1717c7d60e01b815290515f926001600160a01b03169163d1717c7d9160048083019260209291908290030181865afa158015610754573d5f5f3e3d5ffd5b505050506040513d601f19601f820116820180604052508101906107789190610ab4565b61078390600a610bb7565b90508361ffff166001600160401b038111156107a1576107a1610917565b6040519080825280602002602001820160405280156107e557816020015b604080518082019091525f80825260208201528152602001906001900390816107bf5790505b5092505f5b8461ffff168161ffff1610156108a2575f838363ffffffff16888461ffff168151811061081957610819610a62565b602002602001015161082b9190610bc5565b6108359190610bdc565b90506040518060400160405280898461ffff168151811061085857610858610a62565b60200260200101516001600160a01b031681526020018263ffffffff16815250858361ffff168151811061088e5761088e610a62565b6020908102919091010152506001016107ea565b5050509392505050565b5f602082840312156108bc575f5ffd5b813561ffff811681146108cd575f5ffd5b9392505050565b6001600160a01b0391909116815260200190565b6001600160a01b03811681146102b3575f5ffd5b5f6020828403121561090c575f5ffd5b81356108cd816108e8565b634e487b7160e01b5f52604160045260245ffd5b8051610936816108e8565b919050565b5f6020828403121561094b575f5ffd5b81516001600160401b03811115610960575f5ffd5b8201601f81018413610970575f5ffd5b80516001600160401b0381111561098957610989610917565b604051600582901b90603f8201601f191681016001600160401b03811182821017156109b7576109b7610917565b6040529182526020818401810192908101878411156109d4575f5ffd5b6020850194505b838510156109fa576109ec8561092b565b8152602094850194016109db565b509695505050505050565b602080825282518282018190525f918401906040840190835b81811015610a5757835180516001600160a01b0316845260209081015163ffffffff168185015290930192604090920191600101610a1e565b509095945050505050565b634e487b7160e01b5f52603260045260245ffd5b5f60208284031215610a86575f5ffd5b5051919050565b634e487b7160e01b5f52601160045260245ffd5b8082018082111561047957610479610a8d565b5f60208284031215610ac4575f5ffd5b815160ff811681146108cd575f5ffd5b6001815b6001841115610b0f57808504811115610af357610af3610a8d565b6001841615610b0157908102905b60019390931c928002610ad8565b935093915050565b5f82610b2557506001610479565b81610b3157505f610479565b8160018114610b475760028114610b5157610b6d565b6001915050610479565b60ff841115610b6257610b62610a8d565b50506001821b610479565b5060208310610133831016604e8410600b8410161715610b90575081810a610479565b610b9c5f198484610ad4565b805f1904821115610baf57610baf610a8d565b029392505050565b5f61047660ff841683610b17565b808202811582820484141761047957610479610a8d565b5f82610bf657634e487b7160e01b5f52601260045260245ffd5b50049056fea2646970667358221220df225447d491cd0ca7df7707a51f1681ab77bab9523354689c350da2032b276264736f6c634300081c0033",
  "linkReferences": {},
  "deployedLinkReferences": {}
}