{
  "_format": "hh-sol-artifact-1",
  "contractName": "OrionEncryptedVault",
  "sourceName": "contracts/OrionEncryptedVault.sol",
  "abi": [
    {
      "inputs": [
        {
          "internalType": "address",
          "name": "target",
          "type": "address"
        }
      ],
      "name": "AddressEmptyCode",
      "type": "error"
    },
    {
      "inputs": [
        {
          "internalType": "address",
          "name": "asset",
          "type": "address"
        }
      ],
      "name": "AmountMustBeGreaterThanZero",
      "type": "error"
    },
    {
      "inputs": [
        {
          "internalType": "address",
          "name": "implementation",
          "type": "address"
        }
      ],
      "name": "ERC1967InvalidImplementation",
      "type": "error"
    },
    {
      "inputs": [],
      "name": "ERC1967NonPayable",
      "type": "error"
    },
    {
      "inputs": [
        {
          "internalType": "address",
          "name": "spender",
          "type": "address"
        },
        {
          "internalType": "uint256",
          "name": "allowance",
          "type": "uint256"
        },
        {
          "internalType": "uint256",
          "name": "needed",
          "type": "uint256"
        }
      ],
      "name": "ERC20InsufficientAllowance",
      "type": "error"
    },
    {
      "inputs": [
        {
          "internalType": "address",
          "name": "sender",
          "type": "address"
        },
        {
          "internalType": "uint256",
          "name": "balance",
          "type": "uint256"
        },
        {
          "internalType": "uint256",
          "name": "needed",
          "type": "uint256"
        }
      ],
      "name": "ERC20InsufficientBalance",
      "type": "error"
    },
    {
      "inputs": [
        {
          "internalType": "address",
          "name": "approver",
          "type": "address"
        }
      ],
      "name": "ERC20InvalidApprover",
      "type": "error"
    },
    {
      "inputs": [
        {
          "internalType": "address",
          "name": "receiver",
          "type": "address"
        }
      ],
      "name": "ERC20InvalidReceiver",
      "type": "error"
    },
    {
      "inputs": [
        {
          "internalType": "address",
          "name": "sender",
          "type": "address"
        }
      ],
      "name": "ERC20InvalidSender",
      "type": "error"
    },
    {
      "inputs": [
        {
          "internalType": "address",
          "name": "spender",
          "type": "address"
        }
      ],
      "name": "ERC20InvalidSpender",
      "type": "error"
    },
    {
      "inputs": [
        {
          "internalType": "address",
          "name": "receiver",
          "type": "address"
        },
        {
          "internalType": "uint256",
          "name": "assets",
          "type": "uint256"
        },
        {
          "internalType": "uint256",
          "name": "max",
          "type": "uint256"
        }
      ],
      "name": "ERC4626ExceededMaxDeposit",
      "type": "error"
    },
    {
      "inputs": [
        {
          "internalType": "address",
          "name": "receiver",
          "type": "address"
        },
        {
          "internalType": "uint256",
          "name": "shares",
          "type": "uint256"
        },
        {
          "internalType": "uint256",
          "name": "max",
          "type": "uint256"
        }
      ],
      "name": "ERC4626ExceededMaxMint",
      "type": "error"
    },
    {
      "inputs": [
        {
          "internalType": "address",
          "name": "owner",
          "type": "address"
        },
        {
          "internalType": "uint256",
          "name": "shares",
          "type": "uint256"
        },
        {
          "internalType": "uint256",
          "name": "max",
          "type": "uint256"
        }
      ],
      "name": "ERC4626ExceededMaxRedeem",
      "type": "error"
    },
    {
      "inputs": [
        {
          "internalType": "address",
          "name": "owner",
          "type": "address"
        },
        {
          "internalType": "uint256",
          "name": "assets",
          "type": "uint256"
        },
        {
          "internalType": "uint256",
          "name": "max",
          "type": "uint256"
        }
      ],
      "name": "ERC4626ExceededMaxWithdraw",
      "type": "error"
    },
    {
      "inputs": [],
      "name": "FailedCall",
      "type": "error"
    },
    {
      "inputs": [],
      "name": "InvalidConfigAddress",
      "type": "error"
    },
    {
      "inputs": [],
      "name": "InvalidCuratorAddress",
      "type": "error"
    },
    {
      "inputs": [],
      "name": "InvalidInitialization",
      "type": "error"
    },
    {
      "inputs": [],
      "name": "NotCurator",
      "type": "error"
    },
    {
      "inputs": [],
      "name": "NotEnoughDepositRequest",
      "type": "error"
    },
    {
      "inputs": [],
      "name": "NotEnoughShares",
      "type": "error"
    },
    {
      "inputs": [],
      "name": "NotInitializing",
      "type": "error"
    },
    {
      "inputs": [],
      "name": "NotLiquidityOrchestrator",
      "type": "error"
    },
    {
      "inputs": [],
      "name": "OrderIntentCannotBeEmpty",
      "type": "error"
    },
    {
      "inputs": [
        {
          "internalType": "address",
          "name": "owner",
          "type": "address"
        }
      ],
      "name": "OwnableInvalidOwner",
      "type": "error"
    },
    {
      "inputs": [
        {
          "internalType": "address",
          "name": "account",
          "type": "address"
        }
      ],
      "name": "OwnableUnauthorizedAccount",
      "type": "error"
    },
    {
      "inputs": [],
      "name": "ReentrancyGuardReentrantCall",
      "type": "error"
    },
    {
      "inputs": [],
      "name": "SharesMustBeGreaterThanZero",
      "type": "error"
    },
    {
      "inputs": [],
      "name": "SynchronousDepositsDisabled",
      "type": "error"
    },
    {
      "inputs": [],
      "name": "SynchronousRedemptionsDisabled",
      "type": "error"
    },
    {
      "inputs": [],
      "name": "SynchronousWithdrawalsDisabled",
      "type": "error"
    },
    {
      "inputs": [
        {
          "internalType": "address",
          "name": "token",
          "type": "address"
        }
      ],
      "name": "TokenNotWhitelisted",
      "type": "error"
    },
    {
      "inputs": [],
      "name": "TransferFailed",
      "type": "error"
    },
    {
      "inputs": [],
      "name": "UUPSUnauthorizedCallContext",
      "type": "error"
    },
    {
      "inputs": [
        {
          "internalType": "bytes32",
          "name": "slot",
          "type": "bytes32"
        }
      ],
      "name": "UUPSUnsupportedProxiableUUID",
      "type": "error"
    },
    {
      "anonymous": false,
      "inputs": [
        {
          "indexed": true,
          "internalType": "address",
          "name": "owner",
          "type": "address"
        },
        {
          "indexed": true,
          "internalType": "address",
          "name": "spender",
          "type": "address"
        },
        {
          "indexed": false,
          "internalType": "uint256",
          "name": "value",
          "type": "uint256"
        }
      ],
      "name": "Approval",
      "type": "event"
    },
    {
      "anonymous": false,
      "inputs": [
        {
          "indexed": true,
          "internalType": "address",
          "name": "sender",
          "type": "address"
        },
        {
          "indexed": true,
          "internalType": "address",
          "name": "owner",
          "type": "address"
        },
        {
          "indexed": false,
          "internalType": "uint256",
          "name": "assets",
          "type": "uint256"
        },
        {
          "indexed": false,
          "internalType": "uint256",
          "name": "shares",
          "type": "uint256"
        }
      ],
      "name": "Deposit",
      "type": "event"
    },
    {
      "anonymous": false,
      "inputs": [
        {
          "indexed": true,
          "internalType": "address",
          "name": "user",
          "type": "address"
        },
        {
          "indexed": false,
          "internalType": "uint256",
          "name": "amount",
          "type": "uint256"
        },
        {
          "indexed": false,
          "internalType": "uint256",
          "name": "requestId",
          "type": "uint256"
        }
      ],
      "name": "DepositProcessed",
      "type": "event"
    },
    {
      "anonymous": false,
      "inputs": [
        {
          "indexed": true,
          "internalType": "address",
          "name": "user",
          "type": "address"
        },
        {
          "indexed": false,
          "internalType": "uint256",
          "name": "amount",
          "type": "uint256"
        },
        {
          "indexed": false,
          "internalType": "uint256",
          "name": "depositorCount",
          "type": "uint256"
        }
      ],
      "name": "DepositRequestCancelled",
      "type": "event"
    },
    {
      "anonymous": false,
      "inputs": [
        {
          "indexed": true,
          "internalType": "address",
          "name": "user",
          "type": "address"
        },
        {
          "indexed": false,
          "internalType": "uint256",
          "name": "amount",
          "type": "uint256"
        },
        {
          "indexed": false,
          "internalType": "uint256",
          "name": "requestId",
          "type": "uint256"
        }
      ],
      "name": "DepositRequested",
      "type": "event"
    },
    {
      "anonymous": false,
      "inputs": [
        {
          "indexed": false,
          "internalType": "uint64",
          "name": "version",
          "type": "uint64"
        }
      ],
      "name": "Initialized",
      "type": "event"
    },
    {
      "anonymous": false,
      "inputs": [
        {
          "indexed": true,
          "internalType": "address",
          "name": "curator",
          "type": "address"
        }
      ],
      "name": "OrderSubmitted",
      "type": "event"
    },
    {
      "anonymous": false,
      "inputs": [
        {
          "indexed": true,
          "internalType": "address",
          "name": "previousOwner",
          "type": "address"
        },
        {
          "indexed": true,
          "internalType": "address",
          "name": "newOwner",
          "type": "address"
        }
      ],
      "name": "OwnershipTransferStarted",
      "type": "event"
    },
    {
      "anonymous": false,
      "inputs": [
        {
          "indexed": true,
          "internalType": "address",
          "name": "previousOwner",
          "type": "address"
        },
        {
          "indexed": true,
          "internalType": "address",
          "name": "newOwner",
          "type": "address"
        }
      ],
      "name": "OwnershipTransferred",
      "type": "event"
    },
    {
      "anonymous": false,
      "inputs": [
        {
          "indexed": true,
          "internalType": "address",
          "name": "from",
          "type": "address"
        },
        {
          "indexed": true,
          "internalType": "address",
          "name": "to",
          "type": "address"
        },
        {
          "indexed": false,
          "internalType": "uint256",
          "name": "value",
          "type": "uint256"
        }
      ],
      "name": "Transfer",
      "type": "event"
    },
    {
      "anonymous": false,
      "inputs": [
        {
          "indexed": true,
          "internalType": "address",
          "name": "implementation",
          "type": "address"
        }
      ],
      "name": "Upgraded",
      "type": "event"
    },
    {
      "anonymous": false,
      "inputs": [
        {
          "indexed": false,
          "internalType": "uint256",
          "name": "newTotalAssets",
          "type": "uint256"
        }
      ],
      "name": "VaultStateUpdated",
      "type": "event"
    },
    {
      "anonymous": false,
      "inputs": [
        {
          "indexed": true,
          "internalType": "address",
          "name": "sender",
          "type": "address"
        },
        {
          "indexed": true,
          "internalType": "address",
          "name": "receiver",
          "type": "address"
        },
        {
          "indexed": true,
          "internalType": "address",
          "name": "owner",
          "type": "address"
        },
        {
          "indexed": false,
          "internalType": "uint256",
          "name": "assets",
          "type": "uint256"
        },
        {
          "indexed": false,
          "internalType": "uint256",
          "name": "shares",
          "type": "uint256"
        }
      ],
      "name": "Withdraw",
      "type": "event"
    },
    {
      "anonymous": false,
      "inputs": [
        {
          "indexed": true,
          "internalType": "address",
          "name": "user",
          "type": "address"
        },
        {
          "indexed": false,
          "internalType": "uint256",
          "name": "shares",
          "type": "uint256"
        },
        {
          "indexed": false,
          "internalType": "uint256",
          "name": "requestId",
          "type": "uint256"
        }
      ],
      "name": "WithdrawProcessed",
      "type": "event"
    },
    {
      "anonymous": false,
      "inputs": [
        {
          "indexed": true,
          "internalType": "address",
          "name": "user",
          "type": "address"
        },
        {
          "indexed": false,
          "internalType": "uint256",
          "name": "shares",
          "type": "uint256"
        },
        {
          "indexed": false,
          "internalType": "uint256",
          "name": "requestId",
          "type": "uint256"
        }
      ],
      "name": "WithdrawRequested",
      "type": "event"
    },
    {
      "inputs": [],
      "name": "UPGRADE_INTERFACE_VERSION",
      "outputs": [
        {
          "internalType": "string",
          "name": "",
          "type": "string"
        }
      ],
      "stateMutability": "view",
      "type": "function"
    },
    {
      "inputs": [],
      "name": "acceptOwnership",
      "outputs": [],
      "stateMutability": "nonpayable",
      "type": "function"
    },
    {
      "inputs": [
        {
          "internalType": "address",
          "name": "owner",
          "type": "address"
        },
        {
          "internalType": "address",
          "name": "spender",
          "type": "address"
        }
      ],
      "name": "allowance",
      "outputs": [
        {
          "internalType": "uint256",
          "name": "",
          "type": "uint256"
        }
      ],
      "stateMutability": "view",
      "type": "function"
    },
    {
      "inputs": [
        {
          "internalType": "address",
          "name": "spender",
          "type": "address"
        },
        {
          "internalType": "uint256",
          "name": "value",
          "type": "uint256"
        }
      ],
      "name": "approve",
      "outputs": [
        {
          "internalType": "bool",
          "name": "",
          "type": "bool"
        }
      ],
      "stateMutability": "nonpayable",
      "type": "function"
    },
    {
      "inputs": [],
      "name": "asset",
      "outputs": [
        {
          "internalType": "address",
          "name": "",
          "type": "address"
        }
      ],
      "stateMutability": "view",
      "type": "function"
    },
    {
      "inputs": [
        {
          "internalType": "address",
          "name": "account",
          "type": "address"
        }
      ],
      "name": "balanceOf",
      "outputs": [
        {
          "internalType": "uint256",
          "name": "",
          "type": "uint256"
        }
      ],
      "stateMutability": "view",
      "type": "function"
    },
    {
      "inputs": [
        {
          "internalType": "uint256",
          "name": "amount",
          "type": "uint256"
        }
      ],
      "name": "cancelDepositRequest",
      "outputs": [],
      "stateMutability": "nonpayable",
      "type": "function"
    },
    {
      "inputs": [],
      "name": "config",
      "outputs": [
        {
          "internalType": "contract IOrionConfig",
          "name": "",
          "type": "address"
        }
      ],
      "stateMutability": "view",
      "type": "function"
    },
    {
      "inputs": [
        {
          "internalType": "uint256",
          "name": "shares",
          "type": "uint256"
        }
      ],
      "name": "convertToAssets",
      "outputs": [
        {
          "internalType": "uint256",
          "name": "",
          "type": "uint256"
        }
      ],
      "stateMutability": "view",
      "type": "function"
    },
    {
      "inputs": [
        {
          "internalType": "uint256",
          "name": "shares",
          "type": "uint256"
        },
        {
          "internalType": "uint256",
          "name": "pointInTimeTotalAssets",
          "type": "uint256"
        },
        {
          "internalType": "enum Math.Rounding",
          "name": "rounding",
          "type": "uint8"
        }
      ],
      "name": "convertToAssetsWithPITTotalAssets",
      "outputs": [
        {
          "internalType": "uint256",
          "name": "",
          "type": "uint256"
        }
      ],
      "stateMutability": "view",
      "type": "function"
    },
    {
      "inputs": [
        {
          "internalType": "uint256",
          "name": "assets",
          "type": "uint256"
        }
      ],
      "name": "convertToShares",
      "outputs": [
        {
          "internalType": "uint256",
          "name": "",
          "type": "uint256"
        }
      ],
      "stateMutability": "view",
      "type": "function"
    },
    {
      "inputs": [],
      "name": "curator",
      "outputs": [
        {
          "internalType": "address",
          "name": "",
          "type": "address"
        }
      ],
      "stateMutability": "view",
      "type": "function"
    },
    {
      "inputs": [],
      "name": "decimals",
      "outputs": [
        {
          "internalType": "uint8",
          "name": "",
          "type": "uint8"
        }
      ],
      "stateMutability": "view",
      "type": "function"
    },
    {
      "inputs": [],
      "name": "deployer",
      "outputs": [
        {
          "internalType": "address",
          "name": "",
          "type": "address"
        }
      ],
      "stateMutability": "view",
      "type": "function"
    },
    {
      "inputs": [
        {
          "internalType": "uint256",
          "name": "",
          "type": "uint256"
        },
        {
          "internalType": "address",
          "name": "",
          "type": "address"
        }
      ],
      "name": "deposit",
      "outputs": [
        {
          "internalType": "uint256",
          "name": "",
          "type": "uint256"
        }
      ],
      "stateMutability": "pure",
      "type": "function"
    },
    {
      "inputs": [],
      "name": "getPendingDeposits",
      "outputs": [
        {
          "internalType": "uint256",
          "name": "",
          "type": "uint256"
        }
      ],
      "stateMutability": "view",
      "type": "function"
    },
    {
      "inputs": [],
      "name": "getPendingWithdrawals",
      "outputs": [
        {
          "internalType": "uint256",
          "name": "",
          "type": "uint256"
        }
      ],
      "stateMutability": "view",
      "type": "function"
    },
    {
      "inputs": [],
      "name": "getPortfolio",
      "outputs": [
        {
          "internalType": "address[]",
          "name": "tokens",
          "type": "address[]"
        },
        {
          "internalType": "euint32[]",
          "name": "sharesPerAsset",
          "type": "uint256[]"
        }
      ],
      "stateMutability": "view",
      "type": "function"
    },
    {
      "inputs": [
        {
          "internalType": "address",
          "name": "curatorAddress",
          "type": "address"
        },
        {
          "internalType": "contract IOrionConfig",
          "name": "configAddress",
          "type": "address"
        },
        {
          "internalType": "string",
          "name": "name",
          "type": "string"
        },
        {
          "internalType": "string",
          "name": "symbol",
          "type": "string"
        }
      ],
      "name": "initialize",
      "outputs": [],
      "stateMutability": "nonpayable",
      "type": "function"
    },
    {
      "inputs": [
        {
          "internalType": "address",
          "name": "",
          "type": "address"
        }
      ],
      "name": "maxDeposit",
      "outputs": [
        {
          "internalType": "uint256",
          "name": "",
          "type": "uint256"
        }
      ],
      "stateMutability": "view",
      "type": "function"
    },
    {
      "inputs": [
        {
          "internalType": "address",
          "name": "",
          "type": "address"
        }
      ],
      "name": "maxMint",
      "outputs": [
        {
          "internalType": "uint256",
          "name": "",
          "type": "uint256"
        }
      ],
      "stateMutability": "view",
      "type": "function"
    },
    {
      "inputs": [
        {
          "internalType": "address",
          "name": "owner",
          "type": "address"
        }
      ],
      "name": "maxRedeem",
      "outputs": [
        {
          "internalType": "uint256",
          "name": "",
          "type": "uint256"
        }
      ],
      "stateMutability": "view",
      "type": "function"
    },
    {
      "inputs": [
        {
          "internalType": "address",
          "name": "owner",
          "type": "address"
        }
      ],
      "name": "maxWithdraw",
      "outputs": [
        {
          "internalType": "uint256",
          "name": "",
          "type": "uint256"
        }
      ],
      "stateMutability": "view",
      "type": "function"
    },
    {
      "inputs": [
        {
          "internalType": "uint256",
          "name": "",
          "type": "uint256"
        },
        {
          "internalType": "address",
          "name": "",
          "type": "address"
        }
      ],
      "name": "mint",
      "outputs": [
        {
          "internalType": "uint256",
          "name": "",
          "type": "uint256"
        }
      ],
      "stateMutability": "pure",
      "type": "function"
    },
    {
      "inputs": [],
      "name": "name",
      "outputs": [
        {
          "internalType": "string",
          "name": "",
          "type": "string"
        }
      ],
      "stateMutability": "view",
      "type": "function"
    },
    {
      "inputs": [],
      "name": "owner",
      "outputs": [
        {
          "internalType": "address",
          "name": "",
          "type": "address"
        }
      ],
      "stateMutability": "view",
      "type": "function"
    },
    {
      "inputs": [],
      "name": "pendingOwner",
      "outputs": [
        {
          "internalType": "address",
          "name": "",
          "type": "address"
        }
      ],
      "stateMutability": "view",
      "type": "function"
    },
    {
      "inputs": [
        {
          "internalType": "uint256",
          "name": "assets",
          "type": "uint256"
        }
      ],
      "name": "previewDeposit",
      "outputs": [
        {
          "internalType": "uint256",
          "name": "",
          "type": "uint256"
        }
      ],
      "stateMutability": "view",
      "type": "function"
    },
    {
      "inputs": [
        {
          "internalType": "uint256",
          "name": "shares",
          "type": "uint256"
        }
      ],
      "name": "previewMint",
      "outputs": [
        {
          "internalType": "uint256",
          "name": "",
          "type": "uint256"
        }
      ],
      "stateMutability": "view",
      "type": "function"
    },
    {
      "inputs": [
        {
          "internalType": "uint256",
          "name": "shares",
          "type": "uint256"
        }
      ],
      "name": "previewRedeem",
      "outputs": [
        {
          "internalType": "uint256",
          "name": "",
          "type": "uint256"
        }
      ],
      "stateMutability": "view",
      "type": "function"
    },
    {
      "inputs": [
        {
          "internalType": "uint256",
          "name": "assets",
          "type": "uint256"
        }
      ],
      "name": "previewWithdraw",
      "outputs": [
        {
          "internalType": "uint256",
          "name": "",
          "type": "uint256"
        }
      ],
      "stateMutability": "view",
      "type": "function"
    },
    {
      "inputs": [],
      "name": "processDepositRequests",
      "outputs": [],
      "stateMutability": "nonpayable",
      "type": "function"
    },
    {
      "inputs": [],
      "name": "processWithdrawRequests",
      "outputs": [],
      "stateMutability": "nonpayable",
      "type": "function"
    },
    {
      "inputs": [],
      "name": "proxiableUUID",
      "outputs": [
        {
          "internalType": "bytes32",
          "name": "",
          "type": "bytes32"
        }
      ],
      "stateMutability": "view",
      "type": "function"
    },
    {
      "inputs": [
        {
          "internalType": "uint256",
          "name": "",
          "type": "uint256"
        },
        {
          "internalType": "address",
          "name": "",
          "type": "address"
        },
        {
          "internalType": "address",
          "name": "",
          "type": "address"
        }
      ],
      "name": "redeem",
      "outputs": [
        {
          "internalType": "uint256",
          "name": "",
          "type": "uint256"
        }
      ],
      "stateMutability": "pure",
      "type": "function"
    },
    {
      "inputs": [],
      "name": "renounceOwnership",
      "outputs": [],
      "stateMutability": "nonpayable",
      "type": "function"
    },
    {
      "inputs": [
        {
          "internalType": "uint256",
          "name": "amount",
          "type": "uint256"
        }
      ],
      "name": "requestDeposit",
      "outputs": [],
      "stateMutability": "nonpayable",
      "type": "function"
    },
    {
      "inputs": [
        {
          "internalType": "uint256",
          "name": "shares",
          "type": "uint256"
        }
      ],
      "name": "requestWithdraw",
      "outputs": [],
      "stateMutability": "nonpayable",
      "type": "function"
    },
    {
      "inputs": [
        {
          "components": [
            {
              "internalType": "address",
              "name": "token",
              "type": "address"
            },
            {
              "internalType": "euint32",
              "name": "weight",
              "type": "uint256"
            }
          ],
          "internalType": "struct IOrionEncryptedVault.EncryptedPosition[]",
          "name": "order",
          "type": "tuple[]"
        }
      ],
      "name": "submitIntent",
      "outputs": [],
      "stateMutability": "nonpayable",
      "type": "function"
    },
    {
      "inputs": [],
      "name": "symbol",
      "outputs": [
        {
          "internalType": "string",
          "name": "",
          "type": "string"
        }
      ],
      "stateMutability": "view",
      "type": "function"
    },
    {
      "inputs": [],
      "name": "totalAssets",
      "outputs": [
        {
          "internalType": "uint256",
          "name": "",
          "type": "uint256"
        }
      ],
      "stateMutability": "view",
      "type": "function"
    },
    {
      "inputs": [],
      "name": "totalSupply",
      "outputs": [
        {
          "internalType": "uint256",
          "name": "",
          "type": "uint256"
        }
      ],
      "stateMutability": "view",
      "type": "function"
    },
    {
      "inputs": [
        {
          "internalType": "address",
          "name": "to",
          "type": "address"
        },
        {
          "internalType": "uint256",
          "name": "value",
          "type": "uint256"
        }
      ],
      "name": "transfer",
      "outputs": [
        {
          "internalType": "bool",
          "name": "",
          "type": "bool"
        }
      ],
      "stateMutability": "nonpayable",
      "type": "function"
    },
    {
      "inputs": [
        {
          "internalType": "address",
          "name": "from",
          "type": "address"
        },
        {
          "internalType": "address",
          "name": "to",
          "type": "address"
        },
        {
          "internalType": "uint256",
          "name": "value",
          "type": "uint256"
        }
      ],
      "name": "transferFrom",
      "outputs": [
        {
          "internalType": "bool",
          "name": "",
          "type": "bool"
        }
      ],
      "stateMutability": "nonpayable",
      "type": "function"
    },
    {
      "inputs": [
        {
          "internalType": "address",
          "name": "newOwner",
          "type": "address"
        }
      ],
      "name": "transferOwnership",
      "outputs": [],
      "stateMutability": "nonpayable",
      "type": "function"
    },
    {
      "inputs": [
        {
          "components": [
            {
              "internalType": "address",
              "name": "token",
              "type": "address"
            },
            {
              "internalType": "euint32",
              "name": "weight",
              "type": "uint256"
            }
          ],
          "internalType": "struct IOrionEncryptedVault.EncryptedPosition[]",
          "name": "portfolio",
          "type": "tuple[]"
        },
        {
          "internalType": "uint256",
          "name": "newTotalAssets",
          "type": "uint256"
        }
      ],
      "name": "updateVaultState",
      "outputs": [],
      "stateMutability": "nonpayable",
      "type": "function"
    },
    {
      "inputs": [
        {
          "internalType": "address",
          "name": "newImplementation",
          "type": "address"
        },
        {
          "internalType": "bytes",
          "name": "data",
          "type": "bytes"
        }
      ],
      "name": "upgradeToAndCall",
      "outputs": [],
      "stateMutability": "payable",
      "type": "function"
    },
    {
      "inputs": [
        {
          "internalType": "uint256",
          "name": "",
          "type": "uint256"
        },
        {
          "internalType": "address",
          "name": "",
          "type": "address"
        },
        {
          "internalType": "address",
          "name": "",
          "type": "address"
        }
      ],
      "name": "withdraw",
      "outputs": [
        {
          "internalType": "uint256",
          "name": "",
          "type": "uint256"
        }
      ],
      "stateMutability": "pure",
      "type": "function"
    }
  ],
  "bytecode": "0x60a06040523073ffffffffffffffffffffffffffffffffffffffff1660809073ffffffffffffffffffffffffffffffffffffffff168152503480156041575f80fd5b50608051616ee06100685f395f8181614772015281816147c70152614ab30152616ee05ff3fe608060405260043610610292575f3560e01c806394bf804d11610159578063c63d75b6116100c0578063d905777e11610079578063d905777e14610a43578063dd62ed3e14610a7f578063e30c397814610abb578063e66f53b714610ae5578063ef8b30f714610b0f578063f2fde38b14610b4b57610292565b8063c63d75b614610910578063c6e6f5921461094c578063ce96cb7714610988578063d1699c26146109c4578063d3d03458146109ee578063d5f3948814610a1957610292565b8063ad3cb1cc11610112578063ad3cb1cc146107e0578063b3d7f6b91461080a578063b460af9414610846578063ba08765214610882578063c0b568e1146108be578063c37fc8a8146108e657610292565b806394bf804d146106c457806395d89b4114610700578063985ba4ae1461072a578063a68a526714610752578063a9059cbb1461078e578063aa9d3a60146107ca57610292565b8063402d267d116101fd578063715018a6116101b6578063715018a6146105f4578063745400c91461060a57806379502c551461063257806379ba50971461065c5780637f5fc5f9146106725780638da5cb5b1461069a57610292565b8063402d267d146104be5780634cdad506146104fa5780634f1ef2861461053657806352d1902d146105525780636e553f651461057c57806370a08231146105b857610292565b806318160ddd1161024f57806318160ddd146103c65780632016a0d2146103f057806323b872dd14610418578063313ce5671461045457806333fdc5921461047e57806338d52e0f1461049457610292565b806301e1d1141461029657806306fdde03146102c057806307a2d13a146102ea578063095ea7b3146103265780630a28a477146103625780630d1e66671461039e575b5f80fd5b3480156102a1575f80fd5b506102aa610b73565b6040516102b79190615b42565b60405180910390f35b3480156102cb575f80fd5b506102d4610bb8565b6040516102e19190615bcb565b60405180910390f35b3480156102f5575f80fd5b50610310600480360381019061030b9190615c26565b610c56565b60405161031d9190615b42565b60405180910390f35b348015610331575f80fd5b5061034c60048036038101906103479190615cab565b610ca4565b6040516103599190615d03565b60405180910390f35b34801561036d575f80fd5b5061038860048036038101906103839190615c26565b610cc6565b6040516103959190615b42565b60405180910390f35b3480156103a9575f80fd5b506103c460048036038101906103bf9190615c26565b610cd9565b005b3480156103d1575f80fd5b506103da6110ff565b6040516103e79190615b42565b60405180910390f35b3480156103fb575f80fd5b5061041660048036038101906104119190615db8565b611116565b005b348015610423575f80fd5b5061043e60048036038101906104399190615e5b565b611389565b60405161044b9190615d03565b60405180910390f35b34801561045f575f80fd5b506104686113b7565b6040516104759190615ec6565b60405180910390f35b348015610489575f80fd5b506104926113ec565b005b34801561049f575f80fd5b506104a8611843565b6040516104b59190615eee565b60405180910390f35b3480156104c9575f80fd5b506104e460048036038101906104df9190615f07565b611878565b6040516104f19190615b42565b60405180910390f35b348015610505575f80fd5b50610520600480360381019061051b9190615c26565b6118a1565b60405161052d9190615b42565b60405180910390f35b610550600480360381019061054b919061605a565b6118b3565b005b34801561055d575f80fd5b506105666118d2565b60405161057391906160cc565b60405180910390f35b348015610587575f80fd5b506105a2600480360381019061059d91906160e5565b611903565b6040516105af9190615b42565b60405180910390f35b3480156105c3575f80fd5b506105de60048036038101906105d99190615f07565b61195e565b6040516105eb9190615b42565b60405180910390f35b3480156105ff575f80fd5b506106086119b1565b005b348015610615575f80fd5b50610630600480360381019061062b9190615c26565b6119c4565b005b34801561063d575f80fd5b50610646611d2e565b604051610653919061617e565b60405180910390f35b348015610667575f80fd5b50610670611d51565b005b34801561067d575f80fd5b50610698600480360381019061069391906161ec565b611ddf565b005b3480156106a5575f80fd5b506106ae612455565b6040516106bb9190615eee565b60405180910390f35b3480156106cf575f80fd5b506106ea60048036038101906106e591906160e5565b61248a565b6040516106f79190615b42565b60405180910390f35b34801561070b575f80fd5b506107146124e5565b6040516107219190615bcb565b60405180910390f35b348015610735575f80fd5b50610750600480360381019061074b9190616237565b612583565b005b34801561075d575f80fd5b50610778600480360381019061077391906162b7565b612a8b565b6040516107859190615b42565b60405180910390f35b348015610799575f80fd5b506107b460048036038101906107af9190615cab565b612bf8565b6040516107c19190615d03565b60405180910390f35b3480156107d5575f80fd5b506107de612c1a565b005b3480156107eb575f80fd5b506107f4613179565b6040516108019190615bcb565b60405180910390f35b348015610815575f80fd5b50610830600480360381019061082b9190615c26565b6131b2565b60405161083d9190615b42565b60405180910390f35b348015610851575f80fd5b5061086c60048036038101906108679190616307565b6131c5565b6040516108799190615b42565b60405180910390f35b34801561088d575f80fd5b506108a860048036038101906108a39190616307565b61321f565b6040516108b59190615b42565b60405180910390f35b3480156108c9575f80fd5b506108e460048036038101906108df9190615c26565b61327a565b005b3480156108f1575f80fd5b506108fa613671565b6040516109079190615b42565b60405180910390f35b34801561091b575f80fd5b5061093660048036038101906109319190615f07565b6137ea565b6040516109439190615b42565b60405180910390f35b348015610957575f80fd5b50610972600480360381019061096d9190615c26565b613813565b60405161097f9190615b42565b60405180910390f35b348015610993575f80fd5b506109ae60048036038101906109a99190615f07565b613861565b6040516109bb9190615b42565b60405180910390f35b3480156109cf575f80fd5b506109d861387b565b6040516109e59190615b42565b60405180910390f35b3480156109f9575f80fd5b50610a026139f4565b604051610a109291906164e6565b60405180910390f35b348015610a24575f80fd5b50610a2d613c7a565b604051610a3a9190615eee565b60405180910390f35b348015610a4e575f80fd5b50610a696004803603810190610a649190615f07565b613c9f565b604051610a769190615b42565b60405180910390f35b348015610a8a575f80fd5b50610aa56004803603810190610aa0919061651b565b613cb0565b604051610ab29190615b42565b60405180910390f35b348015610ac6575f80fd5b50610acf613d40565b604051610adc9190615eee565b60405180910390f35b348015610af0575f80fd5b50610af9613d75565b604051610b069190615eee565b60405180910390f35b348015610b1a575f80fd5b50610b356004803603810190610b309190615c26565b613d9a565b604051610b429190615b42565b60405180910390f35b348015610b56575f80fd5b50610b716004803603810190610b6c9190615f07565b613dac565b005b5f610b8867e7d51bc2bf1d07aa60c01b613e65565b610b9c6768466f2ad22c630c60c01b613e65565b610bb0678a70030a2c16916960c01b613e65565b600354905090565b60605f610bc3613e68565b9050806003018054610bd490616586565b80601f0160208091040260200160405190810160405280929190818152602001828054610c0090616586565b8015610c4b5780601f10610c2257610100808354040283529160200191610c4b565b820191905f5260205f20905b815481529060010190602001808311610c2e57829003601f168201915b505050505091505090565b5f610c6b67926743ce3918a86160c01b613e65565b610c7f670f6074ea84e8a0b460c01b613e65565b610c9367ec753f2a8ac9d3a260c01b613e65565b610c9d825f613e8f565b9050919050565b5f80610cae613ee1565b9050610cbb818585613ee8565b600191505092915050565b5f610cd2826001613efa565b9050919050565b610ced67f05688ed3f3f85f560c01b613e65565b610cf5614068565b610d09671d2a452e48d8ceb560c01b613e65565b610d1d67d108b1d3796ae8bc60c01b613e65565b610d3167de2917eb5b94ff9860c01b613e65565b610d456717fe66c841167c4660c01b613e65565b5f8103610da457610d606740529cc478b51a2c60c01b613e65565b610d68611843565b6040517f6b306335000000000000000000000000000000000000000000000000000000008152600401610d9b9190615eee565b60405180910390fd5b610db8675c922fa54f90712660c01b613e65565b610dcc675f5a2484a867544760c01b613e65565b610de0671247266c84b9859360c01b613e65565b5f60045f3373ffffffffffffffffffffffffffffffffffffffff1673ffffffffffffffffffffffffffffffffffffffff1681526020019081526020015f205403610ec557610e38670628fd461e9b3cb260c01b613e65565b610e4c67475130f366ebfd6f60c01b613e65565b610e6067edef8b49966826b760c01b613e65565b600633908060018154018082558091505060019003905f5260205f20015f9091909190916101000a81548173ffffffffffffffffffffffffffffffffffffffff021916908373ffffffffffffffffffffffffffffffffffffffff160217905550610eda565b610ed967bf4f63cceca7a31060c01b613e65565b5b610eee6707c7e8ea28a5ec6960c01b613e65565b8060045f3373ffffffffffffffffffffffffffffffffffffffff1673ffffffffffffffffffffffffffffffffffffffff1681526020019081526020015f205f828254610f3a91906165e3565b92505081905550610f5567943ab3524a51a54060c01b613e65565b610f69672e0371e9d3051aab60c01b613e65565b5f610f72611843565b73ffffffffffffffffffffffffffffffffffffffff166323b872dd3330856040518463ffffffff1660e01b8152600401610fae93929190616616565b6020604051808303815f875af1158015610fca573d5f803e3d5ffd5b505050506040513d601f19601f82011682018060405250810190610fee9190616675565b905061100467aa14d857ba086a2860c01b613e65565b6110186798d4090e541eaf6460c01b613e65565b806110625761103066f445a438965fa360c01b613e65565b6040517f90b8ec1800000000000000000000000000000000000000000000000000000000815260040160405180910390fd5b61107667c325e9e3ddbd734360c01b613e65565b61108a67f469f71b3a605ed160c01b613e65565b61109e67e124594c65a3e40b60c01b613e65565b3373ffffffffffffffffffffffffffffffffffffffff167f03979a8c481a9e9c06938045cfd5c28535255cb003b10a8fe84ebb3cb4d440f2836006805490506040516110eb9291906166a0565b60405180910390a2506110fc6140bc565b50565b5f80611109613e68565b9050806002015491505090565b61112a67f4b682148c8d5c6260c01b6140d3565b5f6111336140d6565b90505f815f0160089054906101000a900460ff161590505f825f015f9054906101000a900467ffffffffffffffff1690505f808267ffffffffffffffff1614801561117b5750825b90505f60018367ffffffffffffffff161480156111ae57505f3073ffffffffffffffffffffffffffffffffffffffff163b145b9050811580156111bc575080155b156111f3576040517ff92ee8a900000000000000000000000000000000000000000000000000000000815260040160405180910390fd5b6001855f015f6101000a81548167ffffffffffffffff021916908367ffffffffffffffff1602179055508315611240576001855f0160086101000a81548160ff0219169083151502179055505b61125467bf7bfb812802124860c01b6140d3565b6112686731633c0013221f8d60c01b6140d3565b61127c6753b000560517173c60c01b6140d3565b6112906755d1e7145bd5bac160c01b6140d3565b6113228b8b8b8b8080601f0160208091040260200160405190810160405280939291908181526020018383808284375f81840152601f19601f820116905080830192505050505050508a8a8080601f0160208091040260200160405190810160405280939291908181526020018383808284375f81840152601f19601f820116905080830192505050505050506140e9565b831561137c575f855f0160086101000a81548160ff0219169083151502179055507fc7f505b2f371ae2175ee4913f4499e1f2633a7b5936321eed1cdaeb6115181d260016040516113739190616713565b60405180910390a15b5050505050505050505050565b5f80611393613ee1565b90506113a0858285614543565b6113ab8585856145d6565b60019150509392505050565b5f806113c16146c6565b90506113cb6146ed565b815f0160149054906101000a900460ff166113e6919061672c565b91505090565b61140067a9dd5ff4477b8efe60c01b613e65565b6114146780c4c1e47ebea28560c01b613e65565b611428678c3fd996d0712a9e60c01b613e65565b61143c6799f373d5d942a6fb60c01b613e65565b5f8054906101000a900473ffffffffffffffffffffffffffffffffffffffff1673ffffffffffffffffffffffffffffffffffffffff16633a0dad8e6040518163ffffffff1660e01b8152600401602060405180830381865afa1580156114a4573d5f803e3d5ffd5b505050506040513d601f19601f820116820180604052508101906114c89190616774565b73ffffffffffffffffffffffffffffffffffffffff163373ffffffffffffffffffffffffffffffffffffffff16146115405761150e679102aed66a4a07a260c01b613e65565b6040517fd7955a7800000000000000000000000000000000000000000000000000000000815260040160405180910390fd5b61155467bb9394117e3f36b660c01b613e65565b611568676902383b1ff67d8c60c01b613e65565b61157c67e1becbceb8982fbd60c01b613e65565b61159067399a6786bc898ba360c01b613e65565b611598614068565b6115ac67595b393ebc70e37460c01b613e65565b6115c067664924a78e2dc6e660c01b613e65565b6115d467d997acd39bfcf4df60c01b613e65565b6115e8677e40a18904d286a560c01b613e65565b5f600680549050905061160567d410cec1a7527b8760c01b613e65565b611619671bb9f6410ab3af8c60c01b613e65565b5f5b818110156118375761163767078881ce5805936960c01b613e65565b61164b67854147d284035f8460c01b613e65565b5f600682815481106116605761165f61679f565b5b905f5260205f20015f9054906101000a900473ffffffffffffffffffffffffffffffffffffffff16905061169e6701a22279cd6ec49460c01b613e65565b6116b26773a69eefb52f554f60c01b613e65565b5f60045f8373ffffffffffffffffffffffffffffffffffffffff1673ffffffffffffffffffffffffffffffffffffffff1681526020019081526020015f205490506117076764acc72b266feff560c01b613e65565b61171b6753ab983a209db20f60c01b613e65565b5f61172582613d9a565b905061173b6799d9468c0d95d86a60c01b613e65565b5f60045f8573ffffffffffffffffffffffffffffffffffffffff1673ffffffffffffffffffffffffffffffffffffffff1681526020019081526020015f20819055506117916733d971e02302813a60c01b613e65565b6117a56737832288fe0da3f860c01b613e65565b6117af83826146f1565b6117c367bd3748e05792a38a60c01b613e65565b6117d767906751f7fc7f44ba60c01b613e65565b8273ffffffffffffffffffffffffffffffffffffffff167f782ea2005b7f873a0190a1ccb553c732171348d6e16d2b7d3d493c0677dc296e838660405161181f9291906166a0565b60405180910390a2505050808060010191505061161b565b50506118416140bc565b565b5f8061184d6146c6565b9050805f015f9054906101000a900473ffffffffffffffffffffffffffffffffffffffff1691505090565b5f7fffffffffffffffffffffffffffffffffffffffffffffffffffffffffffffffff9050919050565b5f6118ac825f613e8f565b9050919050565b6118bb614770565b6118c482614856565b6118ce8282614993565b5050565b5f6118db614ab1565b7f360894a13ba1a3210667c828492db98dca3e2076cc3735a920a3ca505d382bbc5f1b905090565b5f611918671b61c3eb7876c22760c01b613e65565b61192c6795c87c574902bd5d60c01b613e65565b6040517f31e5c8e600000000000000000000000000000000000000000000000000000000815260040160405180910390fd5b5f80611968613e68565b9050805f015f8473ffffffffffffffffffffffffffffffffffffffff1673ffffffffffffffffffffffffffffffffffffffff1681526020019081526020015f2054915050919050565b6119b9614b38565b6119c25f614bbf565b565b6119d867fa4872142557e41160c01b613e65565b6119eb6666ba776369cbad60c01b613e65565b6119ff67d4ae666398c35e1260c01b613e65565b5f8103611a4c57611a1a67026174b35e15544460c01b613e65565b6040517f29cd977200000000000000000000000000000000000000000000000000000000815260040160405180910390fd5b611a6067c2d216148c7b161860c01b613e65565b611a74672d6dfe01adf96cdc60c01b613e65565b611a8867e87b36fa2dbb295260c01b613e65565b80611a923361195e565b1015611ade57611aac67a35a421660bc8c7860c01b613e65565b6040517ff15ed21400000000000000000000000000000000000000000000000000000000815260040160405180910390fd5b611af2675cfe61a7d1ace75760c01b613e65565b611b066765c19b6eebb1ffbe60c01b613e65565b611b1a6777e4c1385312a76c60c01b613e65565b5f60055f3373ffffffffffffffffffffffffffffffffffffffff1673ffffffffffffffffffffffffffffffffffffffff1681526020019081526020015f205403611bff57611b72675b515d6ebea6e2b160c01b613e65565b611b866727521b4ef148835460c01b613e65565b611b9a677f97182860b2534e60c01b613e65565b600733908060018154018082558091505060019003905f5260205f20015f9091909190916101000a81548173ffffffffffffffffffffffffffffffffffffffff021916908373ffffffffffffffffffffffffffffffffffffffff160217905550611c14565b611c136701417e51f85159da60c01b613e65565b5b611c2867e05bd9959fc98e3b60c01b613e65565b8060055f3373ffffffffffffffffffffffffffffffffffffffff1673ffffffffffffffffffffffffffffffffffffffff1681526020019081526020015f205f828254611c7491906165e3565b92505081905550611c8f676fa597d85a2e3ac460c01b613e65565b611ca3671c71ade138074a3060c01b613e65565b611cae3330836145d6565b611cc26735fc1fb70766729160c01b613e65565b611cd66729d55f66642bef8360c01b613e65565b3373ffffffffffffffffffffffffffffffffffffffff167fd72eb5d043f24a0168ae744d5c44f9596fd673a26bf74d9646bff4b844882d1482600780549050604051611d239291906166a0565b60405180910390a250565b5f8054906101000a900473ffffffffffffffffffffffffffffffffffffffff1681565b5f611d5a613ee1565b90508073ffffffffffffffffffffffffffffffffffffffff16611d7b613d40565b73ffffffffffffffffffffffffffffffffffffffff1614611dd357806040517f118cdaa7000000000000000000000000000000000000000000000000000000008152600401611dca9190615eee565b60405180910390fd5b611ddc81614bbf565b50565b611df367272338d27076090660c01b6140d3565b611e076704c3dd205b0980d460c01b613e65565b611e1b679206ef199e52317f60c01b613e65565b611e2f67cafdd863ae2bece760c01b613e65565b60015f9054906101000a900473ffffffffffffffffffffffffffffffffffffffff1673ffffffffffffffffffffffffffffffffffffffff163373ffffffffffffffffffffffffffffffffffffffff1614611ec957611e97672a3d79f36b169af660c01b613e65565b6040517f56b381a500000000000000000000000000000000000000000000000000000000815260040160405180910390fd5b611edd6774eeaf2dd430413360c01b613e65565b611ef1673112355f3baadccb60c01b613e65565b611f0567fd4a3d12ed1a5ee060c01b6140d3565b611f1967c63b18c42ef44f6f60c01b6140d3565b611f2d67eacedca659e148fd60c01b6140d3565b611f4167ba25bbc12d5a37bc60c01b6140d3565b5f8282905003611f9157611f5f67fa55b64624b52e9e60c01b6140d3565b6040517f1121aa8d00000000000000000000000000000000000000000000000000000000815260040160405180910390fd5b611fa5677a6e9348cb65ba1360c01b6140d3565b611fb96716bd0617d764675c60c01b6140d3565b611fcd673ad5d768e47a5dca60c01b6140d3565b5f611fd75f614bfc565b9050611fed67e111c36f350a459560c01b6140d3565b61200167fb582205ba772b4f60c01b6140d3565b5f600b80549050905061201e67b28340a59504d3a360c01b6140d3565b61203267ca93646734662d8b60c01b6140d3565b5f5b818110156120da57612050673a2a0cb943e4f96560c01b6140d3565b82600a5f600b84815481106120685761206761679f565b5b905f5260205f20015f9054906101000a900473ffffffffffffffffffffffffffffffffffffffff1673ffffffffffffffffffffffffffffffffffffffff1673ffffffffffffffffffffffffffffffffffffffff1681526020019081526020015f20819055508080600101915050612034565b506120ef6771179bb7142c7dba60c01b6140d3565b600b5f6120fc9190615af1565b6121106752d26ec8d0df379260c01b6140d3565b6121246722a43448fd03849660c01b6140d3565b5f84849050905061213f6793e0c6b9e4dbffba60c01b6140d3565b6121536732012fab92407ddf60c01b6140d3565b5f5b818110156123e257612171675c242a1f4b18a61360c01b6140d3565b6121856704532a52ba9d992360c01b6140d3565b5f8686838181106121995761219861679f565b5b9050604002015f0160208101906121b09190615f07565b90506121c667267c7fd3d9cec1df60c01b6140d3565b6121da67b575c2e8e91a8e5960c01b6140d3565b5f8054906101000a900473ffffffffffffffffffffffffffffffffffffffff1673ffffffffffffffffffffffffffffffffffffffff16633af32abf826040518263ffffffff1660e01b81526004016122329190615eee565b602060405180830381865afa15801561224d573d5f803e3d5ffd5b505050506040513d601f19601f820116820180604052508101906122719190616675565b6122c657612289677e24ef94008ac73e60c01b6140d3565b806040517fea3bff2e0000000000000000000000000000000000000000000000000000000081526004016122bd9190615eee565b60405180910390fd5b6122da672aa76e4699ea36f160c01b6140d3565b6122ee676300b2be25d5e73c60c01b6140d3565b8686838181106123015761230061679f565b5b90506040020160200135600a5f8373ffffffffffffffffffffffffffffffffffffffff1673ffffffffffffffffffffffffffffffffffffffff1681526020019081526020015f2081905550612360673e40a7a10d82ec6b60c01b6140d3565b6123746781a6a39cac25dd9c60c01b6140d3565b600b81908060018154018082558091505060019003905f5260205f20015f9091909190916101000a81548173ffffffffffffffffffffffffffffffffffffffff021916908373ffffffffffffffffffffffffffffffffffffffff160217905550508080600101915050612155565b506123f7675d657721ddcceae160c01b6140d3565b61240b67279a67ecfc02938d60c01b6140d3565b3373ffffffffffffffffffffffffffffffffffffffff167f2d47a742b8d7df7c1fc5a9a631b206b364e6cb2722490759f63bb3ab14b132e060405160405180910390a25050505050565b5f8061245f614c0f565b9050805f015f9054906101000a900473ffffffffffffffffffffffffffffffffffffffff1691505090565b5f61249f67b546b10910144a1060c01b613e65565b6124b3679951698130a26e3c60c01b613e65565b6040517f31e5c8e600000000000000000000000000000000000000000000000000000000815260040160405180910390fd5b60605f6124f0613e68565b905080600401805461250190616586565b80601f016020809104026020016040519081016040528092919081815260200182805461252d90616586565b80156125785780601f1061254f57610100808354040283529160200191612578565b820191905f5260205f20905b81548152906001019060200180831161255b57829003601f168201915b505050505091505090565b61259767c35467552f1860e260c01b6140d3565b6125ab6780c4c1e47ebea28560c01b613e65565b6125bf678c3fd996d0712a9e60c01b613e65565b6125d36799f373d5d942a6fb60c01b613e65565b5f8054906101000a900473ffffffffffffffffffffffffffffffffffffffff1673ffffffffffffffffffffffffffffffffffffffff16633a0dad8e6040518163ffffffff1660e01b8152600401602060405180830381865afa15801561263b573d5f803e3d5ffd5b505050506040513d601f19601f8201168201806040525081019061265f9190616774565b73ffffffffffffffffffffffffffffffffffffffff163373ffffffffffffffffffffffffffffffffffffffff16146126d7576126a5679102aed66a4a07a260c01b613e65565b6040517fd7955a7800000000000000000000000000000000000000000000000000000000815260040160405180910390fd5b6126eb67bb9394117e3f36b660c01b613e65565b6126ff676902383b1ff67d8c60c01b613e65565b61271367d9070f665619ed5360c01b6140d3565b612727670813b652f567223060c01b6140d3565b61273b67219f775296a7291f60c01b6140d3565b61274f67b3bb7fca8ae9b5ac60c01b6140d3565b5f6127595f614bfc565b905061276f678816fda382bc276260c01b6140d3565b612783674682552c8197f1f060c01b6140d3565b5f60098054905090506127a0671736a9ce59d68b7160c01b6140d3565b6127b46724f96f06af4b001560c01b6140d3565b5f5b8181101561285c576127d26720f05f84ab8470e960c01b6140d3565b8260085f600984815481106127ea576127e961679f565b5b905f5260205f20015f9054906101000a900473ffffffffffffffffffffffffffffffffffffffff1673ffffffffffffffffffffffffffffffffffffffff1673ffffffffffffffffffffffffffffffffffffffff1681526020019081526020015f208190555080806001019150506127b6565b5061287167def91339617ddc6d60c01b6140d3565b60095f61287e9190615af1565b612892672d5a4009906bc98260c01b6140d3565b6128a6671e62c780c4f14e4f60c01b6140d3565b5f5b81811015612a09576128c46716450932ec8bfe2c60c01b6140d3565b8585828181106128d7576128d661679f565b5b9050604002016020013560085f8888858181106128f7576128f661679f565b5b9050604002015f01602081019061290e9190615f07565b73ffffffffffffffffffffffffffffffffffffffff1673ffffffffffffffffffffffffffffffffffffffff1681526020019081526020015f208190555061295f671ccae4d82ff42e0460c01b6140d3565b6129736726778faf0a5e8f9060c01b6140d3565b60098686838181106129885761298761679f565b5b9050604002015f01602081019061299f9190615f07565b908060018154018082558091505060019003905f5260205f20015f9091909190916101000a81548173ffffffffffffffffffffffffffffffffffffffff021916908373ffffffffffffffffffffffffffffffffffffffff16021790555080806001019150506128a8565b50612a1e67b31eae681bf867d460c01b6140d3565b82600381905550612a39674349ed0d37a77a6160c01b6140d3565b612a4d672273b5d8a401d15260c01b6140d3565b7f5e1ff954b5e5257e9ee5d4cb07059e8f5e69b1aaaf9911e5d8d90a6894de9c2183604051612a7c9190615b42565b60405180910390a15050505050565b5f612aa067ca047d717cfb22d360c01b613e65565b612ab467e56a524171bb4ef460c01b613e65565b612ac867cdf5405172c3568b60c01b613e65565b5f612ad16110ff565b9050612ae767c2436970790e1b0e60c01b613e65565b612afb673573a47af0d1ecee60c01b613e65565b5f805f9054906101000a900473ffffffffffffffffffffffffffffffffffffffff1673ffffffffffffffffffffffffffffffffffffffff1663b71ee4fc6040518163ffffffff1660e01b8152600401602060405180830381865afa158015612b65573d5f803e3d5ffd5b505050506040513d601f19601f82011682018060405250810190612b8991906167f6565b9050612b9f67ec84cfd292f54e0260c01b613e65565b612bb36729ee9b2bb17f4c7960c01b613e65565b612bed600186612bc391906165e3565b82600a612bd09190616950565b84612bdb91906165e3565b8689614c36909392919063ffffffff16565b925050509392505050565b5f80612c02613ee1565b9050612c0f8185856145d6565b600191505092915050565b612c2e6709aea89c5188d6ff60c01b613e65565b612c426780c4c1e47ebea28560c01b613e65565b612c56678c3fd996d0712a9e60c01b613e65565b612c6a6799f373d5d942a6fb60c01b613e65565b5f8054906101000a900473ffffffffffffffffffffffffffffffffffffffff1673ffffffffffffffffffffffffffffffffffffffff16633a0dad8e6040518163ffffffff1660e01b8152600401602060405180830381865afa158015612cd2573d5f803e3d5ffd5b505050506040513d601f19601f82011682018060405250810190612cf69190616774565b73ffffffffffffffffffffffffffffffffffffffff163373ffffffffffffffffffffffffffffffffffffffff1614612d6e57612d3c679102aed66a4a07a260c01b613e65565b6040517fd7955a7800000000000000000000000000000000000000000000000000000000815260040160405180910390fd5b612d8267bb9394117e3f36b660c01b613e65565b612d96676902383b1ff67d8c60c01b613e65565b612daa6734985f013ea3fb5060c01b613e65565b612dbe678638ba870dca74a660c01b613e65565b612dc6614068565b612dda67edbb935ffd601a5460c01b613e65565b612dee678c23e3da8a415ed860c01b613e65565b612e0267147f9f945ce6766160c01b613e65565b612e16678b6df546842677d760c01b613e65565b5f6007805490509050612e3367b2745472dc7c0ab960c01b613e65565b612e4767f69fe2eca5bc1a0f60c01b613e65565b5f5b8181101561316d57612e6567e523754b5d09b7a860c01b613e65565b612e7967a1102dc44e3f7f1360c01b613e65565b5f60078281548110612e8e57612e8d61679f565b5b905f5260205f20015f9054906101000a900473ffffffffffffffffffffffffffffffffffffffff169050612ecc675444ea6b4a3ab96160c01b613e65565b612ee0671323b484c3195acd60c01b613e65565b5f60055f8373ffffffffffffffffffffffffffffffffffffffff1673ffffffffffffffffffffffffffffffffffffffff1681526020019081526020015f20549050612f356794070c01b2d9dbc960c01b613e65565b5f60055f8473ffffffffffffffffffffffffffffffffffffffff1673ffffffffffffffffffffffffffffffffffffffff1681526020019081526020015f2081905550612f8b6726ed3605e83d19cc60c01b613e65565b612f9f6729253e3b7015201260c01b613e65565b612fa93082614c83565b612fbd67dc138cc7d42b09e860c01b613e65565b612fd1674411cbd886c5578660c01b613e65565b5f612fdb826118a1565b9050612ff167790fbc0454aa9e6360c01b613e65565b613005674863b14ad23932d660c01b613e65565b61300d611843565b73ffffffffffffffffffffffffffffffffffffffff1663a9059cbb84836040518363ffffffff1660e01b815260040161304792919061699a565b6020604051808303815f875af1158015613063573d5f803e3d5ffd5b505050506040513d601f19601f820116820180604052508101906130879190616675565b6130d15761309f67d0bc43d2c5d4d65960c01b613e65565b6040517f90b8ec1800000000000000000000000000000000000000000000000000000000815260040160405180910390fd5b6130e5672b3d7ac23fd9a24260c01b613e65565b6130f967e0e1042aff8284e660c01b613e65565b61310d673112a95ed3efc04660c01b613e65565b8273ffffffffffffffffffffffffffffffffffffffff167febad37b830b1857ef9af5983fc20dc0ded12dc472ba1e22e06fd3a9465b4506c83866040516131559291906166a0565b60405180910390a25050508080600101915050612e49565b50506131776140bc565b565b6040518060400160405280600581526020017f352e302e3000000000000000000000000000000000000000000000000000000081525081565b5f6131be826001613e8f565b9050919050565b5f6131da672c54878983c9ebd360c01b613e65565b6131ee679072ff704cde4d1a60c01b613e65565b6040517e8a595100000000000000000000000000000000000000000000000000000000815260040160405180910390fd5b5f613234671acb69f41ed3b2d060c01b613e65565b613248678b3fe1f1c312df9f60c01b613e65565b6040517f56c290c800000000000000000000000000000000000000000000000000000000815260040160405180910390fd5b61328e6768f1f4315da5dfa460c01b613e65565b613296614068565b6132aa67cde35219702526e260c01b613e65565b6132be676563409dca8ca7de60c01b613e65565b6132d2675974fa0a6eb17b7160c01b613e65565b6132e6677df90d95cf8d333760c01b613e65565b5f810361334557613301677c90ea7a03fb80a060c01b613e65565b613309611843565b6040517f6b30633500000000000000000000000000000000000000000000000000000000815260040161333c9190615eee565b60405180910390fd5b613359678ce14e21957a04d460c01b613e65565b61336d67c7bb0e98a77581ef60c01b613e65565b613381675c6d6fa79ce65eb360c01b613e65565b8060045f3373ffffffffffffffffffffffffffffffffffffffff1673ffffffffffffffffffffffffffffffffffffffff1681526020019081526020015f2054101561340c576133da67a63dade1388054cb60c01b613e65565b6040517fc8653f4c00000000000000000000000000000000000000000000000000000000815260040160405180910390fd5b613420679f96931eb4fbb2a360c01b613e65565b6134346797a965af9abe4fa660c01b613e65565b8060045f3373ffffffffffffffffffffffffffffffffffffffff1673ffffffffffffffffffffffffffffffffffffffff1681526020019081526020015f205f82825461348091906169c1565b9250508190555061349b673cec2d24541f9a0060c01b613e65565b6134af67e4fce8088617d9b960c01b613e65565b5f60068054905090506134cc676e9f98b6e88e285760c01b613e65565b6134e067e1668c8f33b15a1860c01b613e65565b5f6134e9611843565b73ffffffffffffffffffffffffffffffffffffffff1663a9059cbb33856040518363ffffffff1660e01b815260040161352392919061699a565b6020604051808303815f875af115801561353f573d5f803e3d5ffd5b505050506040513d601f19601f820116820180604052508101906135639190616675565b90506135796737da5e178f134ed960c01b613e65565b61358d67ab1068ec4ed2e38f60c01b613e65565b806135d8576135a667d744aa347f9ae62160c01b613e65565b6040517f90b8ec1800000000000000000000000000000000000000000000000000000000815260040160405180910390fd5b6135ec67a0800b9d1236879e60c01b613e65565b61360067b9e00ce28da9ac3f60c01b613e65565b61361467a5f1ba0371fe0d9260c01b613e65565b3373ffffffffffffffffffffffffffffffffffffffff167f2b19ac8271899522bfff26e405c20643af4cdf99b525ef2cd8cde689644874ae848460405161365c9291906166a0565b60405180910390a2505061366e6140bc565b50565b5f61368667d02e87a27658705d60c01b613e65565b61369a672e790f050bd29e4b60c01b613e65565b6136ae67b0cbb2b05a342c4260c01b613e65565b5f6136c3674e7b17383921d8c660c01b613e65565b6136d7672789fdbf3494bd2960c01b613e65565b5f60078054905090506136f46745a4dbdb7ddea8e160c01b613e65565b61370867b097504f48b4048160c01b613e65565b5f5b818110156137b95761372667e2b344af60094fea60c01b613e65565b60055f6007838154811061373d5761373c61679f565b5b905f5260205f20015f9054906101000a900473ffffffffffffffffffffffffffffffffffffffff1673ffffffffffffffffffffffffffffffffffffffff1673ffffffffffffffffffffffffffffffffffffffff1681526020019081526020015f2054836137aa91906165e3565b9250808060010191505061370a565b506137ce673e88743b9f08fa7a60c01b613e65565b6137e26759a43ca64061e81660c01b613e65565b819250505090565b5f7fffffffffffffffffffffffffffffffffffffffffffffffffffffffffffffffff9050919050565b5f61382867b65a02c41c21be3760c01b613e65565b61383c673de14afcff04e42f60c01b613e65565b61385067f59b8ed28a4210d660c01b613e65565b61385a825f613efa565b9050919050565b5f61387461386e8361195e565b5f613e8f565b9050919050565b5f6138906724cb6e31c33a3f5560c01b613e65565b6138a4675f0ccfd1976d7bd560c01b613e65565b6138b8678019a41f5b8e6c7360c01b613e65565b5f6138cd6701fc61e15541a4b260c01b613e65565b6138e167e8e221c4ab2630e960c01b613e65565b5f60068054905090506138fe67e4c328e46cc61aa960c01b613e65565b613912670a4b8cb551da9c1060c01b613e65565b5f5b818110156139c35761393067eb0302b1c34e57c160c01b613e65565b60045f600683815481106139475761394661679f565b5b905f5260205f20015f9054906101000a900473ffffffffffffffffffffffffffffffffffffffff1673ffffffffffffffffffffffffffffffffffffffff1673ffffffffffffffffffffffffffffffffffffffff1681526020019081526020015f2054836139b491906165e3565b92508080600101915050613914565b506139d8674b7080a988ff9e8860c01b613e65565b6139ec67240931b24928ff0260c01b613e65565b819250505090565b606080613a0b673b37faeec287184160c01b6140d3565b613a1f6702f4eece99cd6c8060c01b6140d3565b613a33679ac238651fcef97860c01b6140d3565b5f6009805490509050613a5067a83d22923dd54adc60c01b6140d3565b8067ffffffffffffffff811115613a6a57613a69615f36565b5b604051908082528060200260200182016040528015613a985781602001602082028036833780820191505090505b509250613aaf6726e80f28199ee14860c01b6140d3565b8067ffffffffffffffff811115613ac957613ac8615f36565b5b604051908082528060200260200182016040528015613af75781602001602082028036833780820191505090505b509150613b0e6736daa889afbfac6360c01b6140d3565b613b22678a1c63f1b889a80560c01b6140d3565b5f5b81811015613c7457613b4067893d61b57a0bee3b60c01b6140d3565b613b5467de0ff2c95167f14a60c01b6140d3565b5f60098281548110613b6957613b6861679f565b5b905f5260205f20015f9054906101000a900473ffffffffffffffffffffffffffffffffffffffff169050613ba767335e79c15c6e398760c01b6140d3565b80858381518110613bbb57613bba61679f565b5b602002602001019073ffffffffffffffffffffffffffffffffffffffff16908173ffffffffffffffffffffffffffffffffffffffff1681525050613c09679cf7371d7b55055160c01b6140d3565b60085f8273ffffffffffffffffffffffffffffffffffffffff1673ffffffffffffffffffffffffffffffffffffffff1681526020019081526020015f2054848381518110613c5a57613c5961679f565b5b602002602001018181525050508080600101915050613b24565b50509091565b60025f9054906101000a900473ffffffffffffffffffffffffffffffffffffffff1681565b5f613ca98261195e565b9050919050565b5f80613cba613e68565b9050806001015f8573ffffffffffffffffffffffffffffffffffffffff1673ffffffffffffffffffffffffffffffffffffffff1681526020019081526020015f205f8473ffffffffffffffffffffffffffffffffffffffff1673ffffffffffffffffffffffffffffffffffffffff1681526020019081526020015f205491505092915050565b5f80613d4a614d02565b9050805f015f9054906101000a900473ffffffffffffffffffffffffffffffffffffffff1691505090565b60015f9054906101000a900473ffffffffffffffffffffffffffffffffffffffff1681565b5f613da5825f613efa565b9050919050565b613db4614b38565b5f613dbd614d02565b905081815f015f6101000a81548173ffffffffffffffffffffffffffffffffffffffff021916908373ffffffffffffffffffffffffffffffffffffffff1602179055508173ffffffffffffffffffffffffffffffffffffffff16613e1f612455565b73ffffffffffffffffffffffffffffffffffffffff167f38d16b8cac22d99fc7c124b9cd0de2d3fa1faef420bfe791d8c362d765e2270060405160405180910390a35050565b50565b5f7f52c63247e1f47db19d5ce0460030c497f067ca4cebf71ba98eeadabe20bace00905090565b5f613ea467462f15c2340da74860c01b613e65565b613eb867f76653c94aa989dc60c01b613e65565b613ecc674ef45f62e255b43760c01b613e65565b613ed98360035484612a8b565b905092915050565b5f33905090565b613ef58383836001614d29565b505050565b5f613f0f6738a0c5484c2e682460c01b613e65565b613f23675d5152fdc439d9b060c01b613e65565b613f37678ad80e81bdaa8ef360c01b613e65565b5f613f406110ff565b9050613f56673258cc8c1cb4031560c01b613e65565b613f6a670ed3782a84484fd060c01b613e65565b5f805f9054906101000a900473ffffffffffffffffffffffffffffffffffffffff1673ffffffffffffffffffffffffffffffffffffffff1663b71ee4fc6040518163ffffffff1660e01b8152600401602060405180830381865afa158015613fd4573d5f803e3d5ffd5b505050506040513d601f19601f82011682018060405250810190613ff891906167f6565b905061400e67984ec21da2de2d8560c01b613e65565b614022673504aae1b382815b60c01b613e65565b61405e81600a6140329190616950565b8361403d91906165e3565b600160035461404c91906165e3565b8688614c36909392919063ffffffff16565b9250505092915050565b5f614071614f06565b90506002815f0154036140b0576040517f3ee5aeb500000000000000000000000000000000000000000000000000000000815260040160405180910390fd5b6002815f018190555050565b5f6140c5614f06565b90506001815f018190555050565b50565b5f806140e0614f2d565b90508091505090565b6140fd6764dc12864f8d66b360c01b613e65565b614105614f56565b61411967e424f5381dfe04d060c01b613e65565b61412d67941afdc31706332160c01b613e65565b61414167c89f0ba9d4fc355660c01b613e65565b614155675c30487a11855f3360c01b613e65565b5f73ffffffffffffffffffffffffffffffffffffffff168473ffffffffffffffffffffffffffffffffffffffff16036141ce5761419c670da0f90bbb17eabb60c01b613e65565b6040517f9c6bb9f500000000000000000000000000000000000000000000000000000000815260040160405180910390fd5b6141e26765b0e120e3de15e560c01b613e65565b6141f667427ef881b357740860c01b613e65565b61420a673565ce814445716860c01b613e65565b5f73ffffffffffffffffffffffffffffffffffffffff168373ffffffffffffffffffffffffffffffffffffffff16036142835761425167e3a16ad505f6387560c01b613e65565b6040517fd490b4b600000000000000000000000000000000000000000000000000000000815260040160405180910390fd5b6142976790698e569480463f60c01b613e65565b6142ab67982e537e61ca887a60c01b613e65565b6142bf6767bc9571b653d71b60c01b613e65565b6142c98282614f96565b6142dd677ee93f0282e3755e60c01b613e65565b6142f1677130b62adf58d5da60c01b613e65565b6143668373ffffffffffffffffffffffffffffffffffffffff16637158da7c6040518163ffffffff1660e01b8152600401602060405180830381865afa15801561433d573d5f803e3d5ffd5b505050506040513d601f19601f820116820180604052508101906143619190616a2f565b614fac565b61437a67c57ccc0eb11de10860c01b613e65565b61438e67bb7049a8b9d4edeb60c01b613e65565b614396614fc0565b6143aa6753915fc8aefe190d60c01b613e65565b6143be6799940825a8b4226e60c01b613e65565b6143c784614fd2565b6143db672816f057fe06f67060c01b613e65565b6143ef67a71573ab0bbde84360c01b613e65565b6143f7614fe6565b61440b67416831aedf86f22960c01b613e65565b61441f67c1a0d54eb09037ae60c01b613e65565b614427614ff0565b61443b6795130b772befa05160c01b613e65565b3360025f6101000a81548173ffffffffffffffffffffffffffffffffffffffff021916908373ffffffffffffffffffffffffffffffffffffffff16021790555061448f67818fea3123e2914260c01b613e65565b8360015f6101000a81548173ffffffffffffffffffffffffffffffffffffffff021916908373ffffffffffffffffffffffffffffffffffffffff1602179055506144e367fdb6ad066af6a92260c01b613e65565b825f806101000a81548173ffffffffffffffffffffffffffffffffffffffff021916908373ffffffffffffffffffffffffffffffffffffffff160217905550614536677b55b793f020314b60c01b613e65565b5f60038190555050505050565b5f61454e8484613cb0565b90507fffffffffffffffffffffffffffffffffffffffffffffffffffffffffffffffff8110156145d057818110156145c1578281836040517ffb8f41b20000000000000000000000000000000000000000000000000000000081526004016145b893929190616a5a565b60405180910390fd5b6145cf84848484035f614d29565b5b50505050565b5f73ffffffffffffffffffffffffffffffffffffffff168373ffffffffffffffffffffffffffffffffffffffff1603614646575f6040517f96c6fd1e00000000000000000000000000000000000000000000000000000000815260040161463d9190615eee565b60405180910390fd5b5f73ffffffffffffffffffffffffffffffffffffffff168273ffffffffffffffffffffffffffffffffffffffff16036146b6575f6040517fec442f050000000000000000000000000000000000000000000000000000000081526004016146ad9190615eee565b60405180910390fd5b6146c1838383614ffa565b505050565b5f7f0773e532dfede91f04b12a73d3d2acd361424f41f76b4fb79f090161e36b4e00905090565b5f90565b5f73ffffffffffffffffffffffffffffffffffffffff168273ffffffffffffffffffffffffffffffffffffffff1603614761575f6040517fec442f050000000000000000000000000000000000000000000000000000000081526004016147589190615eee565b60405180910390fd5b61476c5f8383614ffa565b5050565b7f000000000000000000000000000000000000000000000000000000000000000073ffffffffffffffffffffffffffffffffffffffff163073ffffffffffffffffffffffffffffffffffffffff16148061481d57507f000000000000000000000000000000000000000000000000000000000000000073ffffffffffffffffffffffffffffffffffffffff16614804615229565b73ffffffffffffffffffffffffffffffffffffffff1614155b15614854576040517fe07c8dba00000000000000000000000000000000000000000000000000000000815260040160405180910390fd5b565b61486a67f46dbf53e484a94760c01b613e65565b61487e6704c3dd205b0980d460c01b613e65565b614892679206ef199e52317f60c01b613e65565b6148a667cafdd863ae2bece760c01b613e65565b60015f9054906101000a900473ffffffffffffffffffffffffffffffffffffffff1673ffffffffffffffffffffffffffffffffffffffff163373ffffffffffffffffffffffffffffffffffffffff16146149405761490e672a3d79f36b169af660c01b613e65565b6040517f56b381a500000000000000000000000000000000000000000000000000000000815260040160405180910390fd5b6149546774eeaf2dd430413360c01b613e65565b614968673112355f3baadccb60c01b613e65565b61497c6786282e024d2a53c560c01b613e65565b614990672de6004421e6da7360c01b613e65565b50565b8173ffffffffffffffffffffffffffffffffffffffff166352d1902d6040518163ffffffff1660e01b8152600401602060405180830381865afa9250505080156149fb57506040513d601f19601f820116820180604052508101906149f89190616ab9565b60015b614a3c57816040517f4c9c8ce3000000000000000000000000000000000000000000000000000000008152600401614a339190615eee565b60405180910390fd5b7f360894a13ba1a3210667c828492db98dca3e2076cc3735a920a3ca505d382bbc5f1b8114614aa257806040517faa1d49a4000000000000000000000000000000000000000000000000000000008152600401614a9991906160cc565b60405180910390fd5b614aac838361527c565b505050565b7f000000000000000000000000000000000000000000000000000000000000000073ffffffffffffffffffffffffffffffffffffffff163073ffffffffffffffffffffffffffffffffffffffff1614614b36576040517fe07c8dba00000000000000000000000000000000000000000000000000000000815260040160405180910390fd5b565b614b40613ee1565b73ffffffffffffffffffffffffffffffffffffffff16614b5e612455565b73ffffffffffffffffffffffffffffffffffffffff1614614bbd57614b81613ee1565b6040517f118cdaa7000000000000000000000000000000000000000000000000000000008152600401614bb49190615eee565b60405180910390fd5b565b5f614bc8614d02565b9050805f015f6101000a81549073ffffffffffffffffffffffffffffffffffffffff0219169055614bf8826152ee565b5050565b5f614c088260046153bf565b9050919050565b5f7f9016d09d72d40fdae2fd8ceac6b6234c7706214fd39c1cd1e609a0528c199300905090565b5f614c64614c4383615475565b8015614c5f57505f8480614c5a57614c59616ae4565b5b868809115b6154a2565b614c6f8686866154ad565b614c7991906165e3565b9050949350505050565b5f73ffffffffffffffffffffffffffffffffffffffff168273ffffffffffffffffffffffffffffffffffffffff1603614cf3575f6040517f96c6fd1e000000000000000000000000000000000000000000000000000000008152600401614cea9190615eee565b60405180910390fd5b614cfe825f83614ffa565b5050565b5f7f237e158222e3e6968b72b9db0d8043aacf074ad9f650f0d1606b4d82ee432c00905090565b5f614d32613e68565b90505f73ffffffffffffffffffffffffffffffffffffffff168573ffffffffffffffffffffffffffffffffffffffff1603614da4575f6040517fe602df05000000000000000000000000000000000000000000000000000000008152600401614d9b9190615eee565b60405180910390fd5b5f73ffffffffffffffffffffffffffffffffffffffff168473ffffffffffffffffffffffffffffffffffffffff1603614e14575f6040517f94280d62000000000000000000000000000000000000000000000000000000008152600401614e0b9190615eee565b60405180910390fd5b82816001015f8773ffffffffffffffffffffffffffffffffffffffff1673ffffffffffffffffffffffffffffffffffffffff1681526020019081526020015f205f8673ffffffffffffffffffffffffffffffffffffffff1673ffffffffffffffffffffffffffffffffffffffff1681526020019081526020015f20819055508115614eff578373ffffffffffffffffffffffffffffffffffffffff168573ffffffffffffffffffffffffffffffffffffffff167f8c5be1e5ebec7d5bd14f71427d1e84f3dd0314c0f7b2291e5b200ac8c7c3b92585604051614ef69190615b42565b60405180910390a35b5050505050565b5f7f9b779b17422d0df92223018b32b4d1fa46e071723d6817e2486d003becc55f00905090565b5f7ff0c57e16840df040f15088dc2f81fe391c3923bec73e23a9662efc9c229c6a005f1b905090565b614f5e61558c565b614f94576040517fd7e6bcf800000000000000000000000000000000000000000000000000000000815260040160405180910390fd5b565b614f9e614f56565b614fa882826155aa565b5050565b614fb4614f56565b614fbd816155e6565b50565b614fc8614f56565b614fd0615678565b565b614fda614f56565b614fe381615697565b50565b614fee614f56565b565b614ff8614f56565b565b5f615003613e68565b90505f73ffffffffffffffffffffffffffffffffffffffff168473ffffffffffffffffffffffffffffffffffffffff16036150575781816002015f82825461504b91906165e3565b92505081905550615129565b5f815f015f8673ffffffffffffffffffffffffffffffffffffffff1673ffffffffffffffffffffffffffffffffffffffff1681526020019081526020015f20549050828110156150e2578481846040517fe450d38c0000000000000000000000000000000000000000000000000000000081526004016150d993929190616a5a565b60405180910390fd5b828103825f015f8773ffffffffffffffffffffffffffffffffffffffff1673ffffffffffffffffffffffffffffffffffffffff1681526020019081526020015f2081905550505b5f73ffffffffffffffffffffffffffffffffffffffff168373ffffffffffffffffffffffffffffffffffffffff16036151725781816002015f82825403925050819055506151be565b81815f015f8573ffffffffffffffffffffffffffffffffffffffff1673ffffffffffffffffffffffffffffffffffffffff1681526020019081526020015f205f82825401925050819055505b8273ffffffffffffffffffffffffffffffffffffffff168473ffffffffffffffffffffffffffffffffffffffff167fddf252ad1be2c89b69c2b068fc378daa952ba7f163c4a11628f55a4df523b3ef8460405161521b9190615b42565b60405180910390a350505050565b5f6152557f360894a13ba1a3210667c828492db98dca3e2076cc3735a920a3ca505d382bbc5f1b61571b565b5f015f9054906101000a900473ffffffffffffffffffffffffffffffffffffffff16905090565b61528582615724565b8173ffffffffffffffffffffffffffffffffffffffff167fbc7cd75a20ee27fd9adebab32041f755214dbc6bffa90cc0225b39da2e5c2d3b60405160405180910390a25f815111156152e1576152db82826157ed565b506152ea565b6152e961586d565b5b5050565b5f6152f7614c0f565b90505f815f015f9054906101000a900473ffffffffffffffffffffffffffffffffffffffff16905082825f015f6101000a81548173ffffffffffffffffffffffffffffffffffffffff021916908373ffffffffffffffffffffffffffffffffffffffff1602179055508273ffffffffffffffffffffffffffffffffffffffff168173ffffffffffffffffffffffffffffffffffffffff167f8be0079c531659141344cd1fd0a4f28419497f9722a3daafe3b4186f6b6457e060405160405180910390a3505050565b5f806153c96158a9565b9050806001015f9054906101000a900473ffffffffffffffffffffffffffffffffffffffff1673ffffffffffffffffffffffffffffffffffffffff1663e71746b8858560f81b6040518363ffffffff1660e01b815260040161542c929190616b4b565b6020604051808303815f875af1158015615448573d5f803e3d5ffd5b505050506040513d601f19601f8201168201806040525081019061546c9190616b86565b91505092915050565b5f6001600283600381111561548d5761548c616bb1565b5b6154979190616bde565b60ff16149050919050565b5f8115159050919050565b5f805f6154ba86866158d0565b915091505f82036154df578381816154d5576154d4616ae4565b5b0492505050615585565b8184116154fe576154fd6154f85f8614601260116158ed565b615906565b5b5f8486880990508181118303925080820391505f855f038616905080860495508083049250600181825f0304019050808402831792505f600287600302189050808702600203810290508087026002038102905080870260020381029050808702600203810290508087026002038102905080870260020381029050808402955050505050505b9392505050565b5f6155956140d6565b5f0160089054906101000a900460ff16905090565b6155b2614f56565b5f6155bb613e68565b9050828160030190816155ce9190616d81565b50818160040190816155e09190616d81565b50505050565b6155ee614f56565b5f6155f76146c6565b90505f8061560484615917565b9150915081615614576012615616565b805b835f0160146101000a81548160ff021916908360ff16021790555083835f015f6101000a81548173ffffffffffffffffffffffffffffffffffffffff021916908373ffffffffffffffffffffffffffffffffffffffff16021790555050505050565b615680614f56565b5f615689614f06565b90506001815f018190555050565b61569f614f56565b5f73ffffffffffffffffffffffffffffffffffffffff168173ffffffffffffffffffffffffffffffffffffffff160361570f575f6040517f1e4fbdf70000000000000000000000000000000000000000000000000000000081526004016157069190615eee565b60405180910390fd5b61571881614bbf565b50565b5f819050919050565b5f8173ffffffffffffffffffffffffffffffffffffffff163b0361577f57806040517f4c9c8ce30000000000000000000000000000000000000000000000000000000081526004016157769190615eee565b60405180910390fd5b806157ab7f360894a13ba1a3210667c828492db98dca3e2076cc3735a920a3ca505d382bbc5f1b61571b565b5f015f6101000a81548173ffffffffffffffffffffffffffffffffffffffff021916908373ffffffffffffffffffffffffffffffffffffffff16021790555050565b60605f808473ffffffffffffffffffffffffffffffffffffffff16846040516158169190616e94565b5f60405180830381855af49150503d805f811461584e576040519150601f19603f3d011682016040523d82523d5f602084013e615853565b606091505b5091509150615863858383615a20565b9250505092915050565b5f3411156158a7576040517fb398979f00000000000000000000000000000000000000000000000000000000815260040160405180910390fd5b565b5f7fed8d60e34876f751cc8b014c560745351147d9de11b9347c854e881b128ea600905090565b5f805f198385098385029150818110828203039250509250929050565b5f6158f7846154a2565b82841802821890509392505050565b634e487b715f52806020526024601cfd5b5f805f808473ffffffffffffffffffffffffffffffffffffffff1660405160240160405160208183030381529060405263313ce56760e01b6020820180517bffffffffffffffffffffffffffffffffffffffffffffffffffffffff838183161783525050505060405161598a9190616e94565b5f60405180830381855afa9150503d805f81146159c2576040519150601f19603f3d011682016040523d82523d5f602084013e6159c7565b606091505b50915091508180156159db57506020815110155b15615a12575f818060200190518101906159f59190616b86565b905060ff80168111615a105760018194509450505050615a1b565b505b5f809350935050505b915091565b606082615a3557615a3082615aad565b615aa5565b5f8251148015615a5b57505f8473ffffffffffffffffffffffffffffffffffffffff163b145b15615a9d57836040517f9996b315000000000000000000000000000000000000000000000000000000008152600401615a949190615eee565b60405180910390fd5b819050615aa6565b5b9392505050565b5f81511115615abf5780518082602001fd5b6040517fd6bda27500000000000000000000000000000000000000000000000000000000815260040160405180910390fd5b5080545f8255905f5260205f2090810190615b0c9190615b0f565b50565b5b80821115615b26575f815f905550600101615b10565b5090565b5f819050919050565b615b3c81615b2a565b82525050565b5f602082019050615b555f830184615b33565b92915050565b5f81519050919050565b5f82825260208201905092915050565b8281835e5f83830152505050565b5f601f19601f8301169050919050565b5f615b9d82615b5b565b615ba78185615b65565b9350615bb7818560208601615b75565b615bc081615b83565b840191505092915050565b5f6020820190508181035f830152615be38184615b93565b905092915050565b5f604051905090565b5f80fd5b5f80fd5b615c0581615b2a565b8114615c0f575f80fd5b50565b5f81359050615c2081615bfc565b92915050565b5f60208284031215615c3b57615c3a615bf4565b5b5f615c4884828501615c12565b91505092915050565b5f73ffffffffffffffffffffffffffffffffffffffff82169050919050565b5f615c7a82615c51565b9050919050565b615c8a81615c70565b8114615c94575f80fd5b50565b5f81359050615ca581615c81565b92915050565b5f8060408385031215615cc157615cc0615bf4565b5b5f615cce85828601615c97565b9250506020615cdf85828601615c12565b9150509250929050565b5f8115159050919050565b615cfd81615ce9565b82525050565b5f602082019050615d165f830184615cf4565b92915050565b5f615d2682615c70565b9050919050565b615d3681615d1c565b8114615d40575f80fd5b50565b5f81359050615d5181615d2d565b92915050565b5f80fd5b5f80fd5b5f80fd5b5f8083601f840112615d7857615d77615d57565b5b8235905067ffffffffffffffff811115615d9557615d94615d5b565b5b602083019150836001820283011115615db157615db0615d5f565b5b9250929050565b5f805f805f8060808789031215615dd257615dd1615bf4565b5b5f615ddf89828a01615c97565b9650506020615df089828a01615d43565b955050604087013567ffffffffffffffff811115615e1157615e10615bf8565b5b615e1d89828a01615d63565b9450945050606087013567ffffffffffffffff811115615e4057615e3f615bf8565b5b615e4c89828a01615d63565b92509250509295509295509295565b5f805f60608486031215615e7257615e71615bf4565b5b5f615e7f86828701615c97565b9350506020615e9086828701615c97565b9250506040615ea186828701615c12565b9150509250925092565b5f60ff82169050919050565b615ec081615eab565b82525050565b5f602082019050615ed95f830184615eb7565b92915050565b615ee881615c70565b82525050565b5f602082019050615f015f830184615edf565b92915050565b5f60208284031215615f1c57615f1b615bf4565b5b5f615f2984828501615c97565b91505092915050565b5f80fd5b7f4e487b71000000000000000000000000000000000000000000000000000000005f52604160045260245ffd5b615f6c82615b83565b810181811067ffffffffffffffff82111715615f8b57615f8a615f36565b5b80604052505050565b5f615f9d615beb565b9050615fa98282615f63565b919050565b5f67ffffffffffffffff821115615fc857615fc7615f36565b5b615fd182615b83565b9050602081019050919050565b828183375f83830152505050565b5f615ffe615ff984615fae565b615f94565b90508281526020810184848401111561601a57616019615f32565b5b616025848285615fde565b509392505050565b5f82601f83011261604157616040615d57565b5b8135616051848260208601615fec565b91505092915050565b5f80604083850312156160705761606f615bf4565b5b5f61607d85828601615c97565b925050602083013567ffffffffffffffff81111561609e5761609d615bf8565b5b6160aa8582860161602d565b9150509250929050565b5f819050919050565b6160c6816160b4565b82525050565b5f6020820190506160df5f8301846160bd565b92915050565b5f80604083850312156160fb576160fa615bf4565b5b5f61610885828601615c12565b925050602061611985828601615c97565b9150509250929050565b5f819050919050565b5f61614661614161613c84615c51565b616123565b615c51565b9050919050565b5f6161578261612c565b9050919050565b5f6161688261614d565b9050919050565b6161788161615e565b82525050565b5f6020820190506161915f83018461616f565b92915050565b5f8083601f8401126161ac576161ab615d57565b5b8235905067ffffffffffffffff8111156161c9576161c8615d5b565b5b6020830191508360408202830111156161e5576161e4615d5f565b5b9250929050565b5f806020838503121561620257616201615bf4565b5b5f83013567ffffffffffffffff81111561621f5761621e615bf8565b5b61622b85828601616197565b92509250509250929050565b5f805f6040848603121561624e5761624d615bf4565b5b5f84013567ffffffffffffffff81111561626b5761626a615bf8565b5b61627786828701616197565b9350935050602061628a86828701615c12565b9150509250925092565b600481106162a0575f80fd5b50565b5f813590506162b181616294565b92915050565b5f805f606084860312156162ce576162cd615bf4565b5b5f6162db86828701615c12565b93505060206162ec86828701615c12565b92505060406162fd868287016162a3565b9150509250925092565b5f805f6060848603121561631e5761631d615bf4565b5b5f61632b86828701615c12565b935050602061633c86828701615c97565b925050604061634d86828701615c97565b9150509250925092565b5f81519050919050565b5f82825260208201905092915050565b5f819050602082019050919050565b61638981615c70565b82525050565b5f61639a8383616380565b60208301905092915050565b5f602082019050919050565b5f6163bc82616357565b6163c68185616361565b93506163d183616371565b805f5b838110156164015781516163e8888261638f565b97506163f3836163a6565b9250506001810190506163d4565b5085935050505092915050565b5f81519050919050565b5f82825260208201905092915050565b5f819050602082019050919050565b5f61645161644c61644784615b2a565b616123565b615b2a565b9050919050565b61646181616437565b82525050565b5f6164728383616458565b60208301905092915050565b5f602082019050919050565b5f6164948261640e565b61649e8185616418565b93506164a983616428565b805f5b838110156164d95781516164c08882616467565b97506164cb8361647e565b9250506001810190506164ac565b5085935050505092915050565b5f6040820190508181035f8301526164fe81856163b2565b90508181036020830152616512818461648a565b90509392505050565b5f806040838503121561653157616530615bf4565b5b5f61653e85828601615c97565b925050602061654f85828601615c97565b9150509250929050565b7f4e487b71000000000000000000000000000000000000000000000000000000005f52602260045260245ffd5b5f600282049050600182168061659d57607f821691505b6020821081036165b0576165af616559565b5b50919050565b7f4e487b71000000000000000000000000000000000000000000000000000000005f52601160045260245ffd5b5f6165ed82615b2a565b91506165f883615b2a565b92508282019050808211156166105761660f6165b6565b5b92915050565b5f6060820190506166295f830186615edf565b6166366020830185615edf565b6166436040830184615b33565b949350505050565b61665481615ce9565b811461665e575f80fd5b50565b5f8151905061666f8161664b565b92915050565b5f6020828403121561668a57616689615bf4565b5b5f61669784828501616661565b91505092915050565b5f6040820190506166b35f830185615b33565b6166c06020830184615b33565b9392505050565b5f819050919050565b5f67ffffffffffffffff82169050919050565b5f6166fd6166f86166f3846166c7565b616123565b6166d0565b9050919050565b61670d816166e3565b82525050565b5f6020820190506167265f830184616704565b92915050565b5f61673682615eab565b915061674183615eab565b9250828201905060ff81111561675a576167596165b6565b5b92915050565b5f8151905061676e81615c81565b92915050565b5f6020828403121561678957616788615bf4565b5b5f61679684828501616760565b91505092915050565b7f4e487b71000000000000000000000000000000000000000000000000000000005f52603260045260245ffd5b6167d581615eab565b81146167df575f80fd5b50565b5f815190506167f0816167cc565b92915050565b5f6020828403121561680b5761680a615bf4565b5b5f616818848285016167e2565b91505092915050565b5f8160011c9050919050565b5f808291508390505b600185111561687657808604811115616852576168516165b6565b5b60018516156168615780820291505b808102905061686f85616821565b9450616836565b94509492505050565b5f8261688e5760019050616949565b8161689b575f9050616949565b81600181146168b157600281146168bb576168ea565b6001915050616949565b60ff8411156168cd576168cc6165b6565b5b8360020a9150848211156168e4576168e36165b6565b5b50616949565b5060208310610133831016604e8410600b841016171561691f5782820a90508381111561691a576169196165b6565b5b616949565b61692c848484600161682d565b92509050818404811115616943576169426165b6565b5b81810290505b9392505050565b5f61695a82615b2a565b915061696583615eab565b92506169927fffffffffffffffffffffffffffffffffffffffffffffffffffffffffffffffff848461687f565b905092915050565b5f6040820190506169ad5f830185615edf565b6169ba6020830184615b33565b9392505050565b5f6169cb82615b2a565b91506169d683615b2a565b92508282039050818111156169ee576169ed6165b6565b5b92915050565b5f6169fe82615c70565b9050919050565b616a0e816169f4565b8114616a18575f80fd5b50565b5f81519050616a2981616a05565b92915050565b5f60208284031215616a4457616a43615bf4565b5b5f616a5184828501616a1b565b91505092915050565b5f606082019050616a6d5f830186615edf565b616a7a6020830185615b33565b616a876040830184615b33565b949350505050565b616a98816160b4565b8114616aa2575f80fd5b50565b5f81519050616ab381616a8f565b92915050565b5f60208284031215616ace57616acd615bf4565b5b5f616adb84828501616aa5565b91505092915050565b7f4e487b71000000000000000000000000000000000000000000000000000000005f52601260045260245ffd5b5f7fff0000000000000000000000000000000000000000000000000000000000000082169050919050565b616b4581616b11565b82525050565b5f604082019050616b5e5f830185615b33565b616b6b6020830184616b3c565b9392505050565b5f81519050616b8081615bfc565b92915050565b5f60208284031215616b9b57616b9a615bf4565b5b5f616ba884828501616b72565b91505092915050565b7f4e487b71000000000000000000000000000000000000000000000000000000005f52602160045260245ffd5b5f616be882615eab565b9150616bf383615eab565b925082616c0357616c02616ae4565b5b828206905092915050565b5f819050815f5260205f209050919050565b5f6020601f8301049050919050565b5f82821b905092915050565b5f60088302616c6a7fffffffffffffffffffffffffffffffffffffffffffffffffffffffffffffffff82616c2f565b616c748683616c2f565b95508019841693508086168417925050509392505050565b5f819050919050565b616c9e83616437565b616cb2616caa82616c8c565b848454616c3b565b825550505050565b5f90565b616cc6616cba565b616cd1818484616c95565b505050565b5b81811015616cf457616ce95f82616cbe565b600181019050616cd7565b5050565b601f821115616d3957616d0a81616c0e565b616d1384616c20565b81016020851015616d22578190505b616d36616d2e85616c20565b830182616cd6565b50505b505050565b5f82821c905092915050565b5f616d595f1984600802616d3e565b1980831691505092915050565b5f616d718383616d4a565b9150826002028217905092915050565b616d8a82615b5b565b67ffffffffffffffff811115616da357616da2615f36565b5b616dad8254616586565b616db8828285616cf8565b5f60209050601f831160018114616de9575f8415616dd7578287015190505b616de18582616d66565b865550616e48565b601f198416616df786616c0e565b5f5b82811015616e1e57848901518255600182019150602085019450602081019050616df9565b86831015616e3b5784890151616e37601f891682616d4a565b8355505b6001600288020188555050505b505050505050565b5f81519050919050565b5f81905092915050565b5f616e6e82616e50565b616e788185616e5a565b9350616e88818560208601615b75565b80840191505092915050565b5f616e9f8284616e64565b91508190509291505056fea264697066735822122063db5dc6b50553c5cda0b64b543febe91e71c0baacd8d22d54c0318f5dbb194d64736f6c634300081a0033",
  "linkReferences": {},
  "deployedLinkReferences": {}
}