{
  "_format": "hh-sol-artifact-1",
  "contractName": "OrionEncryptedVault",
  "sourceName": "contracts/OrionEncryptedVault.sol",
  "abi": [
    {
      "inputs": [
        {
          "internalType": "address",
          "name": "target",
          "type": "address"
        }
      ],
      "name": "AddressEmptyCode",
      "type": "error"
    },
    {
      "inputs": [
        {
          "internalType": "address",
          "name": "asset",
          "type": "address"
        }
      ],
      "name": "AmountMustBeGreaterThanZero",
      "type": "error"
    },
    {
      "inputs": [
        {
          "internalType": "address",
          "name": "implementation",
          "type": "address"
        }
      ],
      "name": "ERC1967InvalidImplementation",
      "type": "error"
    },
    {
      "inputs": [],
      "name": "ERC1967NonPayable",
      "type": "error"
    },
    {
      "inputs": [
        {
          "internalType": "address",
          "name": "spender",
          "type": "address"
        },
        {
          "internalType": "uint256",
          "name": "allowance",
          "type": "uint256"
        },
        {
          "internalType": "uint256",
          "name": "needed",
          "type": "uint256"
        }
      ],
      "name": "ERC20InsufficientAllowance",
      "type": "error"
    },
    {
      "inputs": [
        {
          "internalType": "address",
          "name": "sender",
          "type": "address"
        },
        {
          "internalType": "uint256",
          "name": "balance",
          "type": "uint256"
        },
        {
          "internalType": "uint256",
          "name": "needed",
          "type": "uint256"
        }
      ],
      "name": "ERC20InsufficientBalance",
      "type": "error"
    },
    {
      "inputs": [
        {
          "internalType": "address",
          "name": "approver",
          "type": "address"
        }
      ],
      "name": "ERC20InvalidApprover",
      "type": "error"
    },
    {
      "inputs": [
        {
          "internalType": "address",
          "name": "receiver",
          "type": "address"
        }
      ],
      "name": "ERC20InvalidReceiver",
      "type": "error"
    },
    {
      "inputs": [
        {
          "internalType": "address",
          "name": "sender",
          "type": "address"
        }
      ],
      "name": "ERC20InvalidSender",
      "type": "error"
    },
    {
      "inputs": [
        {
          "internalType": "address",
          "name": "spender",
          "type": "address"
        }
      ],
      "name": "ERC20InvalidSpender",
      "type": "error"
    },
    {
      "inputs": [
        {
          "internalType": "address",
          "name": "receiver",
          "type": "address"
        },
        {
          "internalType": "uint256",
          "name": "assets",
          "type": "uint256"
        },
        {
          "internalType": "uint256",
          "name": "max",
          "type": "uint256"
        }
      ],
      "name": "ERC4626ExceededMaxDeposit",
      "type": "error"
    },
    {
      "inputs": [
        {
          "internalType": "address",
          "name": "receiver",
          "type": "address"
        },
        {
          "internalType": "uint256",
          "name": "shares",
          "type": "uint256"
        },
        {
          "internalType": "uint256",
          "name": "max",
          "type": "uint256"
        }
      ],
      "name": "ERC4626ExceededMaxMint",
      "type": "error"
    },
    {
      "inputs": [
        {
          "internalType": "address",
          "name": "owner",
          "type": "address"
        },
        {
          "internalType": "uint256",
          "name": "shares",
          "type": "uint256"
        },
        {
          "internalType": "uint256",
          "name": "max",
          "type": "uint256"
        }
      ],
      "name": "ERC4626ExceededMaxRedeem",
      "type": "error"
    },
    {
      "inputs": [
        {
          "internalType": "address",
          "name": "owner",
          "type": "address"
        },
        {
          "internalType": "uint256",
          "name": "assets",
          "type": "uint256"
        },
        {
          "internalType": "uint256",
          "name": "max",
          "type": "uint256"
        }
      ],
      "name": "ERC4626ExceededMaxWithdraw",
      "type": "error"
    },
    {
      "inputs": [],
      "name": "FailedCall",
      "type": "error"
    },
    {
      "inputs": [],
      "name": "InvalidConfigAddress",
      "type": "error"
    },
    {
      "inputs": [],
      "name": "InvalidCuratorAddress",
      "type": "error"
    },
    {
      "inputs": [],
      "name": "InvalidInitialization",
      "type": "error"
    },
    {
      "inputs": [],
      "name": "NotCurator",
      "type": "error"
    },
    {
      "inputs": [],
      "name": "NotEnoughDepositRequest",
      "type": "error"
    },
    {
      "inputs": [],
      "name": "NotEnoughShares",
      "type": "error"
    },
    {
      "inputs": [],
      "name": "NotInitializing",
      "type": "error"
    },
    {
      "inputs": [],
      "name": "NotInternalStatesOrchestrator",
      "type": "error"
    },
    {
      "inputs": [],
      "name": "NotLiquidityOrchestrator",
      "type": "error"
    },
    {
      "inputs": [],
      "name": "OrderIntentCannotBeEmpty",
      "type": "error"
    },
    {
      "inputs": [
        {
          "internalType": "address",
          "name": "owner",
          "type": "address"
        }
      ],
      "name": "OwnableInvalidOwner",
      "type": "error"
    },
    {
      "inputs": [
        {
          "internalType": "address",
          "name": "account",
          "type": "address"
        }
      ],
      "name": "OwnableUnauthorizedAccount",
      "type": "error"
    },
    {
      "inputs": [],
      "name": "ReentrancyGuardReentrantCall",
      "type": "error"
    },
    {
      "inputs": [],
      "name": "SharesMustBeGreaterThanZero",
      "type": "error"
    },
    {
      "inputs": [],
      "name": "SynchronousDepositsDisabled",
      "type": "error"
    },
    {
      "inputs": [],
      "name": "SynchronousRedemptionsDisabled",
      "type": "error"
    },
    {
      "inputs": [],
      "name": "SynchronousWithdrawalsDisabled",
      "type": "error"
    },
    {
      "inputs": [
        {
          "internalType": "address",
          "name": "token",
          "type": "address"
        }
      ],
      "name": "TokenAlreadyInOrder",
      "type": "error"
    },
    {
      "inputs": [
        {
          "internalType": "address",
          "name": "token",
          "type": "address"
        }
      ],
      "name": "TokenNotWhitelisted",
      "type": "error"
    },
    {
      "inputs": [],
      "name": "TransferFailed",
      "type": "error"
    },
    {
      "inputs": [],
      "name": "UUPSUnauthorizedCallContext",
      "type": "error"
    },
    {
      "inputs": [
        {
          "internalType": "bytes32",
          "name": "slot",
          "type": "bytes32"
        }
      ],
      "name": "UUPSUnsupportedProxiableUUID",
      "type": "error"
    },
    {
      "inputs": [],
      "name": "ZeroPrice",
      "type": "error"
    },
    {
      "anonymous": false,
      "inputs": [
        {
          "indexed": true,
          "internalType": "address",
          "name": "owner",
          "type": "address"
        },
        {
          "indexed": true,
          "internalType": "address",
          "name": "spender",
          "type": "address"
        },
        {
          "indexed": false,
          "internalType": "uint256",
          "name": "value",
          "type": "uint256"
        }
      ],
      "name": "Approval",
      "type": "event"
    },
    {
      "anonymous": false,
      "inputs": [
        {
          "indexed": true,
          "internalType": "address",
          "name": "sender",
          "type": "address"
        },
        {
          "indexed": true,
          "internalType": "address",
          "name": "owner",
          "type": "address"
        },
        {
          "indexed": false,
          "internalType": "uint256",
          "name": "assets",
          "type": "uint256"
        },
        {
          "indexed": false,
          "internalType": "uint256",
          "name": "shares",
          "type": "uint256"
        }
      ],
      "name": "Deposit",
      "type": "event"
    },
    {
      "anonymous": false,
      "inputs": [
        {
          "indexed": true,
          "internalType": "address",
          "name": "user",
          "type": "address"
        },
        {
          "indexed": false,
          "internalType": "uint256",
          "name": "amount",
          "type": "uint256"
        },
        {
          "indexed": false,
          "internalType": "uint256",
          "name": "requestId",
          "type": "uint256"
        }
      ],
      "name": "DepositProcessed",
      "type": "event"
    },
    {
      "anonymous": false,
      "inputs": [
        {
          "indexed": true,
          "internalType": "address",
          "name": "user",
          "type": "address"
        },
        {
          "indexed": false,
          "internalType": "uint256",
          "name": "amount",
          "type": "uint256"
        },
        {
          "indexed": false,
          "internalType": "uint256",
          "name": "depositorCount",
          "type": "uint256"
        }
      ],
      "name": "DepositRequestCancelled",
      "type": "event"
    },
    {
      "anonymous": false,
      "inputs": [
        {
          "indexed": true,
          "internalType": "address",
          "name": "user",
          "type": "address"
        },
        {
          "indexed": false,
          "internalType": "uint256",
          "name": "amount",
          "type": "uint256"
        },
        {
          "indexed": false,
          "internalType": "uint256",
          "name": "requestId",
          "type": "uint256"
        }
      ],
      "name": "DepositRequested",
      "type": "event"
    },
    {
      "anonymous": false,
      "inputs": [
        {
          "indexed": false,
          "internalType": "uint64",
          "name": "version",
          "type": "uint64"
        }
      ],
      "name": "Initialized",
      "type": "event"
    },
    {
      "anonymous": false,
      "inputs": [
        {
          "indexed": true,
          "internalType": "address",
          "name": "curator",
          "type": "address"
        }
      ],
      "name": "OrderSubmitted",
      "type": "event"
    },
    {
      "anonymous": false,
      "inputs": [
        {
          "indexed": true,
          "internalType": "address",
          "name": "previousOwner",
          "type": "address"
        },
        {
          "indexed": true,
          "internalType": "address",
          "name": "newOwner",
          "type": "address"
        }
      ],
      "name": "OwnershipTransferStarted",
      "type": "event"
    },
    {
      "anonymous": false,
      "inputs": [
        {
          "indexed": true,
          "internalType": "address",
          "name": "previousOwner",
          "type": "address"
        },
        {
          "indexed": true,
          "internalType": "address",
          "name": "newOwner",
          "type": "address"
        }
      ],
      "name": "OwnershipTransferred",
      "type": "event"
    },
    {
      "anonymous": false,
      "inputs": [
        {
          "indexed": true,
          "internalType": "address",
          "name": "from",
          "type": "address"
        },
        {
          "indexed": true,
          "internalType": "address",
          "name": "to",
          "type": "address"
        },
        {
          "indexed": false,
          "internalType": "uint256",
          "name": "value",
          "type": "uint256"
        }
      ],
      "name": "Transfer",
      "type": "event"
    },
    {
      "anonymous": false,
      "inputs": [
        {
          "indexed": true,
          "internalType": "address",
          "name": "implementation",
          "type": "address"
        }
      ],
      "name": "Upgraded",
      "type": "event"
    },
    {
      "anonymous": false,
      "inputs": [
        {
          "indexed": false,
          "internalType": "uint256",
          "name": "newTotalAssets",
          "type": "uint256"
        }
      ],
      "name": "VaultStateUpdated",
      "type": "event"
    },
    {
      "anonymous": false,
      "inputs": [
        {
          "indexed": true,
          "internalType": "address",
          "name": "sender",
          "type": "address"
        },
        {
          "indexed": true,
          "internalType": "address",
          "name": "receiver",
          "type": "address"
        },
        {
          "indexed": true,
          "internalType": "address",
          "name": "owner",
          "type": "address"
        },
        {
          "indexed": false,
          "internalType": "uint256",
          "name": "assets",
          "type": "uint256"
        },
        {
          "indexed": false,
          "internalType": "uint256",
          "name": "shares",
          "type": "uint256"
        }
      ],
      "name": "Withdraw",
      "type": "event"
    },
    {
      "anonymous": false,
      "inputs": [
        {
          "indexed": true,
          "internalType": "address",
          "name": "user",
          "type": "address"
        },
        {
          "indexed": false,
          "internalType": "uint256",
          "name": "shares",
          "type": "uint256"
        },
        {
          "indexed": false,
          "internalType": "uint256",
          "name": "requestId",
          "type": "uint256"
        }
      ],
      "name": "WithdrawProcessed",
      "type": "event"
    },
    {
      "anonymous": false,
      "inputs": [
        {
          "indexed": true,
          "internalType": "address",
          "name": "user",
          "type": "address"
        },
        {
          "indexed": false,
          "internalType": "uint256",
          "name": "shares",
          "type": "uint256"
        },
        {
          "indexed": false,
          "internalType": "uint256",
          "name": "requestId",
          "type": "uint256"
        }
      ],
      "name": "WithdrawRequested",
      "type": "event"
    },
    {
      "inputs": [],
      "name": "UPGRADE_INTERFACE_VERSION",
      "outputs": [
        {
          "internalType": "string",
          "name": "",
          "type": "string"
        }
      ],
      "stateMutability": "view",
      "type": "function"
    },
    {
      "inputs": [],
      "name": "acceptOwnership",
      "outputs": [],
      "stateMutability": "nonpayable",
      "type": "function"
    },
    {
      "inputs": [
        {
          "internalType": "address",
          "name": "owner",
          "type": "address"
        },
        {
          "internalType": "address",
          "name": "spender",
          "type": "address"
        }
      ],
      "name": "allowance",
      "outputs": [
        {
          "internalType": "uint256",
          "name": "",
          "type": "uint256"
        }
      ],
      "stateMutability": "view",
      "type": "function"
    },
    {
      "inputs": [
        {
          "internalType": "address",
          "name": "spender",
          "type": "address"
        },
        {
          "internalType": "uint256",
          "name": "value",
          "type": "uint256"
        }
      ],
      "name": "approve",
      "outputs": [
        {
          "internalType": "bool",
          "name": "",
          "type": "bool"
        }
      ],
      "stateMutability": "nonpayable",
      "type": "function"
    },
    {
      "inputs": [],
      "name": "asset",
      "outputs": [
        {
          "internalType": "address",
          "name": "",
          "type": "address"
        }
      ],
      "stateMutability": "view",
      "type": "function"
    },
    {
      "inputs": [
        {
          "internalType": "address",
          "name": "account",
          "type": "address"
        }
      ],
      "name": "balanceOf",
      "outputs": [
        {
          "internalType": "uint256",
          "name": "",
          "type": "uint256"
        }
      ],
      "stateMutability": "view",
      "type": "function"
    },
    {
      "inputs": [
        {
          "internalType": "uint256",
          "name": "amount",
          "type": "uint256"
        }
      ],
      "name": "cancelDepositRequest",
      "outputs": [],
      "stateMutability": "nonpayable",
      "type": "function"
    },
    {
      "inputs": [],
      "name": "config",
      "outputs": [
        {
          "internalType": "contract IOrionConfig",
          "name": "",
          "type": "address"
        }
      ],
      "stateMutability": "view",
      "type": "function"
    },
    {
      "inputs": [
        {
          "internalType": "uint256",
          "name": "shares",
          "type": "uint256"
        }
      ],
      "name": "convertToAssets",
      "outputs": [
        {
          "internalType": "uint256",
          "name": "",
          "type": "uint256"
        }
      ],
      "stateMutability": "view",
      "type": "function"
    },
    {
      "inputs": [
        {
          "internalType": "uint256",
          "name": "assets",
          "type": "uint256"
        }
      ],
      "name": "convertToShares",
      "outputs": [
        {
          "internalType": "uint256",
          "name": "",
          "type": "uint256"
        }
      ],
      "stateMutability": "view",
      "type": "function"
    },
    {
      "inputs": [],
      "name": "curator",
      "outputs": [
        {
          "internalType": "address",
          "name": "",
          "type": "address"
        }
      ],
      "stateMutability": "view",
      "type": "function"
    },
    {
      "inputs": [],
      "name": "decimals",
      "outputs": [
        {
          "internalType": "uint8",
          "name": "",
          "type": "uint8"
        }
      ],
      "stateMutability": "view",
      "type": "function"
    },
    {
      "inputs": [],
      "name": "deployer",
      "outputs": [
        {
          "internalType": "address",
          "name": "",
          "type": "address"
        }
      ],
      "stateMutability": "view",
      "type": "function"
    },
    {
      "inputs": [
        {
          "internalType": "uint256",
          "name": "",
          "type": "uint256"
        },
        {
          "internalType": "address",
          "name": "",
          "type": "address"
        }
      ],
      "name": "deposit",
      "outputs": [
        {
          "internalType": "uint256",
          "name": "",
          "type": "uint256"
        }
      ],
      "stateMutability": "pure",
      "type": "function"
    },
    {
      "inputs": [],
      "name": "getCuratorOrder",
      "outputs": [
        {
          "internalType": "address[]",
          "name": "tokens",
          "type": "address[]"
        },
        {
          "internalType": "uint256[]",
          "name": "weights",
          "type": "uint256[]"
        }
      ],
      "stateMutability": "view",
      "type": "function"
    },
    {
      "inputs": [],
      "name": "getPendingDeposits",
      "outputs": [
        {
          "internalType": "uint256",
          "name": "",
          "type": "uint256"
        }
      ],
      "stateMutability": "view",
      "type": "function"
    },
    {
      "inputs": [],
      "name": "getPendingWithdrawals",
      "outputs": [
        {
          "internalType": "uint256",
          "name": "",
          "type": "uint256"
        }
      ],
      "stateMutability": "view",
      "type": "function"
    },
    {
      "inputs": [],
      "name": "getPortfolio",
      "outputs": [
        {
          "internalType": "address[]",
          "name": "tokens",
          "type": "address[]"
        },
        {
          "internalType": "uint256[]",
          "name": "weights",
          "type": "uint256[]"
        }
      ],
      "stateMutability": "view",
      "type": "function"
    },
    {
      "inputs": [
        {
          "internalType": "address",
          "name": "curatorAddress",
          "type": "address"
        },
        {
          "internalType": "contract IOrionConfig",
          "name": "configAddress",
          "type": "address"
        },
        {
          "internalType": "string",
          "name": "name",
          "type": "string"
        },
        {
          "internalType": "string",
          "name": "symbol",
          "type": "string"
        }
      ],
      "name": "initialize",
      "outputs": [],
      "stateMutability": "nonpayable",
      "type": "function"
    },
    {
      "inputs": [
        {
          "internalType": "address",
          "name": "",
          "type": "address"
        }
      ],
      "name": "maxDeposit",
      "outputs": [
        {
          "internalType": "uint256",
          "name": "",
          "type": "uint256"
        }
      ],
      "stateMutability": "view",
      "type": "function"
    },
    {
      "inputs": [
        {
          "internalType": "address",
          "name": "",
          "type": "address"
        }
      ],
      "name": "maxMint",
      "outputs": [
        {
          "internalType": "uint256",
          "name": "",
          "type": "uint256"
        }
      ],
      "stateMutability": "view",
      "type": "function"
    },
    {
      "inputs": [
        {
          "internalType": "address",
          "name": "owner",
          "type": "address"
        }
      ],
      "name": "maxRedeem",
      "outputs": [
        {
          "internalType": "uint256",
          "name": "",
          "type": "uint256"
        }
      ],
      "stateMutability": "view",
      "type": "function"
    },
    {
      "inputs": [
        {
          "internalType": "address",
          "name": "owner",
          "type": "address"
        }
      ],
      "name": "maxWithdraw",
      "outputs": [
        {
          "internalType": "uint256",
          "name": "",
          "type": "uint256"
        }
      ],
      "stateMutability": "view",
      "type": "function"
    },
    {
      "inputs": [
        {
          "internalType": "uint256",
          "name": "",
          "type": "uint256"
        },
        {
          "internalType": "address",
          "name": "",
          "type": "address"
        }
      ],
      "name": "mint",
      "outputs": [
        {
          "internalType": "uint256",
          "name": "",
          "type": "uint256"
        }
      ],
      "stateMutability": "pure",
      "type": "function"
    },
    {
      "inputs": [],
      "name": "name",
      "outputs": [
        {
          "internalType": "string",
          "name": "",
          "type": "string"
        }
      ],
      "stateMutability": "view",
      "type": "function"
    },
    {
      "inputs": [],
      "name": "owner",
      "outputs": [
        {
          "internalType": "address",
          "name": "",
          "type": "address"
        }
      ],
      "stateMutability": "view",
      "type": "function"
    },
    {
      "inputs": [],
      "name": "pendingOwner",
      "outputs": [
        {
          "internalType": "address",
          "name": "",
          "type": "address"
        }
      ],
      "stateMutability": "view",
      "type": "function"
    },
    {
      "inputs": [
        {
          "internalType": "uint256",
          "name": "assets",
          "type": "uint256"
        }
      ],
      "name": "previewDeposit",
      "outputs": [
        {
          "internalType": "uint256",
          "name": "",
          "type": "uint256"
        }
      ],
      "stateMutability": "view",
      "type": "function"
    },
    {
      "inputs": [
        {
          "internalType": "uint256",
          "name": "shares",
          "type": "uint256"
        }
      ],
      "name": "previewMint",
      "outputs": [
        {
          "internalType": "uint256",
          "name": "",
          "type": "uint256"
        }
      ],
      "stateMutability": "view",
      "type": "function"
    },
    {
      "inputs": [
        {
          "internalType": "uint256",
          "name": "shares",
          "type": "uint256"
        }
      ],
      "name": "previewRedeem",
      "outputs": [
        {
          "internalType": "uint256",
          "name": "",
          "type": "uint256"
        }
      ],
      "stateMutability": "view",
      "type": "function"
    },
    {
      "inputs": [
        {
          "internalType": "uint256",
          "name": "assets",
          "type": "uint256"
        }
      ],
      "name": "previewWithdraw",
      "outputs": [
        {
          "internalType": "uint256",
          "name": "",
          "type": "uint256"
        }
      ],
      "stateMutability": "view",
      "type": "function"
    },
    {
      "inputs": [],
      "name": "processDepositRequests",
      "outputs": [],
      "stateMutability": "nonpayable",
      "type": "function"
    },
    {
      "inputs": [],
      "name": "processWithdrawRequests",
      "outputs": [],
      "stateMutability": "nonpayable",
      "type": "function"
    },
    {
      "inputs": [],
      "name": "proxiableUUID",
      "outputs": [
        {
          "internalType": "bytes32",
          "name": "",
          "type": "bytes32"
        }
      ],
      "stateMutability": "view",
      "type": "function"
    },
    {
      "inputs": [
        {
          "internalType": "uint256",
          "name": "",
          "type": "uint256"
        },
        {
          "internalType": "address",
          "name": "",
          "type": "address"
        },
        {
          "internalType": "address",
          "name": "",
          "type": "address"
        }
      ],
      "name": "redeem",
      "outputs": [
        {
          "internalType": "uint256",
          "name": "",
          "type": "uint256"
        }
      ],
      "stateMutability": "pure",
      "type": "function"
    },
    {
      "inputs": [],
      "name": "renounceOwnership",
      "outputs": [],
      "stateMutability": "nonpayable",
      "type": "function"
    },
    {
      "inputs": [
        {
          "internalType": "uint256",
          "name": "amount",
          "type": "uint256"
        }
      ],
      "name": "requestDeposit",
      "outputs": [],
      "stateMutability": "nonpayable",
      "type": "function"
    },
    {
      "inputs": [
        {
          "internalType": "uint256",
          "name": "shares",
          "type": "uint256"
        }
      ],
      "name": "requestWithdraw",
      "outputs": [],
      "stateMutability": "nonpayable",
      "type": "function"
    },
    {
      "inputs": [
        {
          "components": [
            {
              "internalType": "address",
              "name": "token",
              "type": "address"
            },
            {
              "internalType": "euint32",
              "name": "weight",
              "type": "uint256"
            }
          ],
          "internalType": "struct IOrionEncryptedVault.EncryptedPosition[]",
          "name": "order",
          "type": "tuple[]"
        }
      ],
      "name": "submitOrderIntent",
      "outputs": [],
      "stateMutability": "nonpayable",
      "type": "function"
    },
    {
      "inputs": [],
      "name": "symbol",
      "outputs": [
        {
          "internalType": "string",
          "name": "",
          "type": "string"
        }
      ],
      "stateMutability": "view",
      "type": "function"
    },
    {
      "inputs": [],
      "name": "totalAssets",
      "outputs": [
        {
          "internalType": "uint256",
          "name": "",
          "type": "uint256"
        }
      ],
      "stateMutability": "view",
      "type": "function"
    },
    {
      "inputs": [],
      "name": "totalSupply",
      "outputs": [
        {
          "internalType": "uint256",
          "name": "",
          "type": "uint256"
        }
      ],
      "stateMutability": "view",
      "type": "function"
    },
    {
      "inputs": [
        {
          "internalType": "address",
          "name": "to",
          "type": "address"
        },
        {
          "internalType": "uint256",
          "name": "value",
          "type": "uint256"
        }
      ],
      "name": "transfer",
      "outputs": [
        {
          "internalType": "bool",
          "name": "",
          "type": "bool"
        }
      ],
      "stateMutability": "nonpayable",
      "type": "function"
    },
    {
      "inputs": [
        {
          "internalType": "address",
          "name": "from",
          "type": "address"
        },
        {
          "internalType": "address",
          "name": "to",
          "type": "address"
        },
        {
          "internalType": "uint256",
          "name": "value",
          "type": "uint256"
        }
      ],
      "name": "transferFrom",
      "outputs": [
        {
          "internalType": "bool",
          "name": "",
          "type": "bool"
        }
      ],
      "stateMutability": "nonpayable",
      "type": "function"
    },
    {
      "inputs": [
        {
          "internalType": "address",
          "name": "newOwner",
          "type": "address"
        }
      ],
      "name": "transferOwnership",
      "outputs": [],
      "stateMutability": "nonpayable",
      "type": "function"
    },
    {
      "inputs": [
        {
          "internalType": "uint256",
          "name": "newTotalAssets",
          "type": "uint256"
        }
      ],
      "name": "updateVaultState",
      "outputs": [],
      "stateMutability": "nonpayable",
      "type": "function"
    },
    {
      "inputs": [
        {
          "internalType": "address",
          "name": "newImplementation",
          "type": "address"
        },
        {
          "internalType": "bytes",
          "name": "data",
          "type": "bytes"
        }
      ],
      "name": "upgradeToAndCall",
      "outputs": [],
      "stateMutability": "payable",
      "type": "function"
    },
    {
      "inputs": [
        {
          "internalType": "uint256",
          "name": "",
          "type": "uint256"
        },
        {
          "internalType": "address",
          "name": "",
          "type": "address"
        },
        {
          "internalType": "address",
          "name": "",
          "type": "address"
        }
      ],
      "name": "withdraw",
      "outputs": [
        {
          "internalType": "uint256",
          "name": "",
          "type": "uint256"
        }
      ],
      "stateMutability": "pure",
      "type": "function"
    }
  ],
  "bytecode": "0x60a0604052306080523480156012575f80fd5b506080516132ec6100395f395f8181611ecc01528181611ef5015261205701526132ec5ff3fe60806040526004361061028b575f3560e01c806394bf804d11610155578063c6e6f592116100be578063d905777e11610078578063d905777e14610722578063dd62ed3e14610741578063e30c397814610760578063e66f53b714610774578063ef8b30f71461067b578063f2fde38b14610793575f80fd5b8063c6e6f5921461067b578063cc1277a01461069a578063ce96cb77146106bc578063d1699c26146106db578063d3d03458146106ef578063d5f3948814610703575f80fd5b8063b3d7f6b91161010f578063b3d7f6b9146105eb578063b460af941461060a578063ba08765214610629578063c0b568e114610648578063c37fc8a814610667578063c63d75b614610438575f80fd5b806394bf804d1461049e57806395d89b41146105555780639c055a6614610569578063a9059cbb14610588578063aa9d3a60146105a7578063ad3cb1cc146105bb575f80fd5b8063402d267d116101f757806370a08231116101b157806370a08231146104bd578063715018a6146104dc578063745400c9146104f057806379502c551461050f57806379ba50971461052d5780638da5cb5b14610541575f80fd5b8063402d267d146104385780634cdad506146102d35780634f1ef2861461045857806352d1902d1461046b57806369440afc1461047f5780636e553f651461049e575f80fd5b806318160ddd1161024857806318160ddd146103615780632016a0d21461039457806323b872dd146103b3578063313ce567146103d257806333fdc592146103f857806338d52e0f1461040c575f80fd5b806301e1d1141461028f57806306fdde03146102b257806307a2d13a146102d3578063095ea7b3146102f25780630a28a477146103215780630d1e666714610340575b5f80fd5b34801561029a575f80fd5b506003545b6040519081526020015b60405180910390f35b3480156102bd575f80fd5b506102c66107b2565b6040516102a99190612ad2565b3480156102de575f80fd5b5061029f6102ed366004612b07565b610872565b3480156102fd575f80fd5b5061031161030c366004612b32565b610883565b60405190151581526020016102a9565b34801561032c575f80fd5b5061029f61033b366004612b07565b61089a565b34801561034b575f80fd5b5061035f61035a366004612b07565b6108a6565b005b34801561036c575f80fd5b507f52c63247e1f47db19d5ce0460030c497f067ca4cebf71ba98eeadabe20bace025461029f565b34801561039f575f80fd5b5061035f6103ae366004612b99565b610a5f565b3480156103be575f80fd5b506103116103cd366004612c2b565b610bc5565b3480156103dd575f80fd5b506103e6610bea565b60405160ff90911681526020016102a9565b348015610403575f80fd5b5061035f610c2c565b348015610417575f80fd5b50610420610db5565b6040516001600160a01b0390911681526020016102a9565b348015610443575f80fd5b5061029f610452366004612c69565b505f1990565b61035f610466366004612c98565b610de9565b348015610476575f80fd5b5061029f610e08565b34801561048a575f80fd5b5061035f610499366004612b07565b610e23565b3480156104a9575f80fd5b5061029f6104b8366004612d5b565b610f21565b3480156104c8575f80fd5b5061029f6104d7366004612c69565b610f3b565b3480156104e7575f80fd5b5061035f610f61565b3480156104fb575f80fd5b5061035f61050a366004612b07565b610f72565b34801561051a575f80fd5b505f54610420906001600160a01b031681565b348015610538575f80fd5b5061035f611088565b34801561054c575f80fd5b506104206110cd565b348015610560575f80fd5b506102c66110f5565b348015610574575f80fd5b5061035f610583366004612d89565b611133565b348015610593575f80fd5b506103116105a2366004612b32565b6112e4565b3480156105b2575f80fd5b5061035f6112f1565b3480156105c6575f80fd5b506102c6604051806040016040528060058152602001640352e302e360dc1b81525081565b3480156105f6575f80fd5b5061029f610605366004612b07565b6114e2565b348015610615575f80fd5b5061029f610624366004612df8565b6114ee565b348015610634575f80fd5b5061029f610643366004612df8565b611507565b348015610653575f80fd5b5061035f610662366004612b07565b611521565b348015610672575f80fd5b5061029f611679565b348015610686575f80fd5b5061029f610695366004612b07565b6116e0565b3480156106a5575f80fd5b506106ae6116eb565b6040516102a9929190612e37565b3480156106c7575f80fd5b5061029f6106d6366004612c69565b6117ff565b3480156106e6575f80fd5b5061029f611812565b3480156106fa575f80fd5b506106ae611871565b34801561070e575f80fd5b50600254610420906001600160a01b031681565b34801561072d575f80fd5b5061029f61073c366004612c69565b61197f565b34801561074c575f80fd5b5061029f61075b366004612ec0565b611989565b34801561076b575f80fd5b506104206119d2565b34801561077f575f80fd5b50600154610420906001600160a01b031681565b34801561079e575f80fd5b5061035f6107ad366004612c69565b6119fa565b7f52c63247e1f47db19d5ce0460030c497f067ca4cebf71ba98eeadabe20bace0380546060915f80516020613257833981519152916107f090612eec565b80601f016020809104026020016040519081016040528092919081815260200182805461081c90612eec565b80156108675780601f1061083e57610100808354040283529160200191610867565b820191905f5260205f20905b81548152906001019060200180831161084a57829003601f168201915b505050505091505090565b5f61087d825f611a7f565b92915050565b5f33610890818585611b5a565b5060019392505050565b5f61087d826001611b6c565b6108ae611c34565b805f036108e7576108bd610db5565b604051636b30633560e01b81526001600160a01b0390911660048201526024015b60405180910390fd5b335f90815260046020526040812054900361093e57600680546001810182555f919091527ff652222313e28459528d920b65115c16c04f3efc82aaedc97be59f3f377c0d3f0180546001600160a01b031916331790555b335f908152600460205260408120805483929061095c908490612f38565b909155505f905061096b610db5565b6040516323b872dd60e01b8152336004820152306024820152604481018490526001600160a01b0391909116906323b872dd906064016020604051808303815f875af11580156109bd573d5f803e3d5ffd5b505050506040513d601f19601f820116820180604052508101906109e19190612f4b565b905080610a01576040516312171d8360e31b815260040160405180910390fd5b60065460405133917f03979a8c481a9e9c06938045cfd5c28535255cb003b10a8fe84ebb3cb4d440f291610a3d91868252602082015260400190565b60405180910390a250610a5c60015f8051602061329783398151915255565b50565b5f610a68611c7e565b805490915060ff600160401b82041615906001600160401b03165f81158015610a8e5750825b90505f826001600160401b03166001148015610aa95750303b155b905081158015610ab7575080155b15610ad55760405163f92ee8a960e01b815260040160405180910390fd5b845467ffffffffffffffff191660011785558315610aff57845460ff60401b1916600160401b1785555b610b728b8b8b8b8080601f0160208091040260200160405190810160405280939291908181526020018383808284375f9201919091525050604080516020601f8f018190048102820181019092528d815292508d91508c90819084018382808284375f92019190915250611ca692505050565b8315610bb857845460ff60401b19168555604051600181527fc7f505b2f371ae2175ee4913f4499e1f2633a7b5936321eed1cdaeb6115181d29060200160405180910390a15b5050505050505050505050565b5f33610bd2858285611dcc565b610bdd858585611e30565b60019150505b9392505050565b5f807f0773e532dfede91f04b12a73d3d2acd361424f41f76b4fb79f090161e36b4e0090505f8154610c269190600160a01b900460ff16612f6a565b91505090565b5f8054906101000a90046001600160a01b03166001600160a01b0316633a0dad8e6040518163ffffffff1660e01b8152600401602060405180830381865afa158015610c7a573d5f803e3d5ffd5b505050506040513d601f19601f82011682018060405250810190610c9e9190612f83565b6001600160a01b0316336001600160a01b031614610ccf57604051631af2ab4f60e31b815260040160405180910390fd5b610cd7611c34565b6006545f5b81811015610d9b575f60068281548110610cf857610cf8612f9e565b5f9182526020808320909101546001600160a01b03168083526004909152604082205490925090610d28826116e0565b6001600160a01b0384165f908152600460205260408120559050610d4c8382611e8d565b60408051838152602081018690526001600160a01b038516917f782ea2005b7f873a0190a1ccb553c732171348d6e16d2b7d3d493c0677dc296e910160405180910390a2505050600101610cdc565b5050610db360015f8051602061329783398151915255565b565b5f807f0773e532dfede91f04b12a73d3d2acd361424f41f76b4fb79f090161e36b4e005b546001600160a01b031692915050565b610df1611ec1565b610dfa82611f65565b610e048282611f90565b5050565b5f610e1161204c565b505f8051602061327783398151915290565b5f8054906101000a90046001600160a01b03166001600160a01b031663348ec5c86040518163ffffffff1660e01b8152600401602060405180830381865afa158015610e71573d5f803e3d5ffd5b505050506040513d601f19601f82011682018060405250810190610e959190612f83565b6001600160a01b0316336001600160a01b031614610ec65760405163efb380d960e01b815260040160405180910390fd5b805f03610ee657604051634dfba02360e01b815260040160405180910390fd5b60038190556040518181527f5e1ff954b5e5257e9ee5d4cb07059e8f5e69b1aaaf9911e5d8d90a6894de9c219060200160405180910390a150565b5f6040516318f2e47360e11b815260040160405180910390fd5b6001600160a01b03165f9081525f80516020613257833981519152602052604090205490565b610f69612095565b610db35f6120c7565b805f03610f92576040516314e6cbb960e11b815260040160405180910390fd5b80610f9c33610f3b565b1015610fbb57604051633c57b48560e21b815260040160405180910390fd5b335f90815260056020526040812054900361101257600780546001810182555f919091527fa66cc928b5edb82af9bd49922954155ab7b0942694bea4ce44661d9a8736c6880180546001600160a01b031916331790555b335f9081526005602052604081208054839290611030908490612f38565b909155506110419050333083611e30565b60075460405133917fd72eb5d043f24a0168ae744d5c44f9596fd673a26bf74d9646bff4b844882d149161107d91858252602082015260400190565b60405180910390a250565b33806110926119d2565b6001600160a01b0316146110c45760405163118cdaa760e01b81526001600160a01b03821660048201526024016108de565b610a5c816120c7565b5f807f9016d09d72d40fdae2fd8ceac6b6234c7706214fd39c1cd1e609a0528c199300610dd9565b7f52c63247e1f47db19d5ce0460030c497f067ca4cebf71ba98eeadabe20bace0480546060915f80516020613257833981519152916107f090612eec565b6001546001600160a01b0316331461115e576040516356b381a560e01b815260040160405180910390fd5b5f81900361117f57604051631121aa8d60e01b815260040160405180910390fd5b611189600b6120ff565b5f5b818110156112b5575f8383838181106111a6576111a6612f9e565b6111bc9260206040909202019081019150612c69565b90505f8484848181106111d1576111d1612f9e565b5f5460408051633af32abf60e01b81526001600160a01b03888116600483015260209290940295909501013594501691633af32abf9150602401602060405180830381865afa158015611226573d5f803e3d5ffd5b505050506040513d601f19601f8201168201806040525081019061124a9190612f4b565b6112725760405163751dff9760e11b81526001600160a01b03831660048201526024016108de565b5f61127f600b8484612108565b9050806112aa576040516346bdabe160e01b81526001600160a01b03841660048201526024016108de565b50505060010161118b565b5060405133907f2d47a742b8d7df7c1fc5a9a631b206b364e6cb2722490759f63bb3ab14b132e0905f90a25050565b5f33610890818585611e30565b5f8054906101000a90046001600160a01b03166001600160a01b0316633a0dad8e6040518163ffffffff1660e01b8152600401602060405180830381865afa15801561133f573d5f803e3d5ffd5b505050506040513d601f19601f820116820180604052508101906113639190612f83565b6001600160a01b0316336001600160a01b03161461139457604051631af2ab4f60e31b815260040160405180910390fd5b61139c611c34565b6007545f5b81811015610d9b575f600782815481106113bd576113bd612f9e565b5f9182526020808320909101546001600160a01b0316808352600590915260408220805492905591506113f03082612125565b5f6113fa82610872565b9050611404610db5565b60405163a9059cbb60e01b81526001600160a01b03858116600483015260248201849052919091169063a9059cbb906044016020604051808303815f875af1158015611452573d5f803e3d5ffd5b505050506040513d601f19601f820116820180604052508101906114769190612f4b565b611493576040516312171d8360e31b815260040160405180910390fd5b60408051838152602081018690526001600160a01b038516917febad37b830b1857ef9af5983fc20dc0ded12dc472ba1e22e06fd3a9465b4506c910160405180910390a25050506001016113a1565b5f61087d826001611a7f565b5f604051628a595160e01b815260040160405180910390fd5b5f604051630ad8521960e31b815260040160405180910390fd5b611529611c34565b805f03611538576108bd610db5565b335f90815260046020526040902054811115611567576040516332194fd360e21b815260040160405180910390fd5b335f9081526004602052604081208054839290611585908490612fb2565b90915550506006545f611596610db5565b60405163a9059cbb60e01b8152336004820152602481018590526001600160a01b03919091169063a9059cbb906044016020604051808303815f875af11580156115e2573d5f803e3d5ffd5b505050506040513d601f19601f820116820180604052508101906116069190612f4b565b905080611626576040516312171d8360e31b815260040160405180910390fd5b604080518481526020810184905233917f2b19ac8271899522bfff26e405c20643af4cdf99b525ef2cd8cde689644874ae910160405180910390a25050610a5c60015f8051602061329783398151915255565b6007545f908190815b818110156116d85760055f600783815481106116a0576116a0612f9e565b5f9182526020808320909101546001600160a01b031683528201929092526040019020546116ce9084612f38565b9250600101611682565b509092915050565b5f61087d825f611b6c565b6060805f6116f9600b612159565b9050806001600160401b0381111561171357611713612c84565b60405190808252806020026020018201604052801561173c578160200160208202803683370190505b509250806001600160401b0381111561175757611757612c84565b604051908082528060200260200182016040528015611780578160200160208202803683370190505b5091505f5b818110156117f9575f8061179a600b84612163565b91509150818684815181106117b1576117b1612f9e565b60200260200101906001600160a01b031690816001600160a01b031681525050808584815181106117e4576117e4612f9e565b60209081029190910101525050600101611785565b50509091565b5f61087d61180c83610f3b565b5f611a7f565b6006545f908190815b818110156116d85760045f6006838154811061183957611839612f9e565b5f9182526020808320909101546001600160a01b031683528201929092526040019020546118679084612f38565b925060010161181b565b6060805f61187f6008612159565b9050806001600160401b0381111561189957611899612c84565b6040519080825280602002602001820160405280156118c2578160200160208202803683370190505b509250806001600160401b038111156118dd576118dd612c84565b604051908082528060200260200182016040528015611906578160200160208202803683370190505b5091505f5b818110156117f9575f80611920600884612163565b915091508186848151811061193757611937612f9e565b60200260200101906001600160a01b031690816001600160a01b0316815250508085848151811061196a5761196a612f9e565b6020908102919091010152505060010161190b565b5f61087d82610f3b565b6001600160a01b039182165f9081527f52c63247e1f47db19d5ce0460030c497f067ca4cebf71ba98eeadabe20bace016020908152604080832093909416825291909152205490565b5f807f237e158222e3e6968b72b9db0d8043aacf074ad9f650f0d1606b4d82ee432c00610dd9565b611a02612095565b7f237e158222e3e6968b72b9db0d8043aacf074ad9f650f0d1606b4d82ee432c0080546001600160a01b0319166001600160a01b0383169081178255611a466110cd565b6001600160a01b03167f38d16b8cac22d99fc7c124b9cd0de2d3fa1faef420bfe791d8c362d765e2270060405160405180910390a35050565b5f80611aa97f52c63247e1f47db19d5ce0460030c497f067ca4cebf71ba98eeadabe20bace025490565b90505f805f9054906101000a90046001600160a01b03166001600160a01b031663b71ee4fc6040518163ffffffff1660e01b8152600401602060405180830381865afa158015611afb573d5f803e3d5ffd5b505050506040513d601f19601f82011682018060405250810190611b1f9190612fc5565b9050611b516003546001611b339190612f38565b611b3e83600a6130c8565b611b489085612f38565b87919087612180565b95945050505050565b611b6783838360016121c2565b505050565b5f80611b967f52c63247e1f47db19d5ce0460030c497f067ca4cebf71ba98eeadabe20bace025490565b90505f805f9054906101000a90046001600160a01b03166001600160a01b031663b71ee4fc6040518163ffffffff1660e01b8152600401602060405180830381865afa158015611be8573d5f803e3d5ffd5b505050506040513d601f19601f82011682018060405250810190611c0c9190612fc5565b9050611b51611c1c82600a6130c8565b611c269084612f38565b600354611b48906001612f38565b5f80516020613297833981519152805460011901611c6557604051633ee5aeb560e01b815260040160405180910390fd5b60029055565b60015f8051602061329783398151915255565b5f807ff0c57e16840df040f15088dc2f81fe391c3923bec73e23a9662efc9c229c6a0061087d565b611cae6122a6565b6001600160a01b038416611cd557604051639c6bb9f560e01b815260040160405180910390fd5b6001600160a01b038316611cfc57604051636a485a5b60e11b815260040160405180910390fd5b611d0682826122cb565b611d6e836001600160a01b0316637158da7c6040518163ffffffff1660e01b8152600401602060405180830381865afa158015611d45573d5f803e3d5ffd5b505050506040513d601f19601f82011682018060405250810190611d699190612f83565b6122dd565b611d766122ee565b611d7e6122fe565b611d866122fe565b611d8f846120c7565b5050600280546001600160a01b03199081163317909155600180546001600160a01b039485169083161790555f8054929093169116178155600355565b5f611dd78484611989565b90505f19811015611e2a5781811015611e1c57604051637dc7a0d960e11b81526001600160a01b038416600482015260248101829052604481018390526064016108de565b611e2a84848484035f6121c2565b50505050565b6001600160a01b038316611e5957604051634b637e8f60e11b81525f60048201526024016108de565b6001600160a01b038216611e825760405163ec442f0560e01b81525f60048201526024016108de565b611b67838383612306565b6001600160a01b038216611eb65760405163ec442f0560e01b81525f60048201526024016108de565b610e045f8383612306565b306001600160a01b037f0000000000000000000000000000000000000000000000000000000000000000161480611f4757507f00000000000000000000000000000000000000000000000000000000000000006001600160a01b0316611f3b5f80516020613277833981519152546001600160a01b031690565b6001600160a01b031614155b15610db35760405163703e46dd60e11b815260040160405180910390fd5b6001546001600160a01b03163314610a5c576040516356b381a560e01b815260040160405180910390fd5b816001600160a01b03166352d1902d6040518163ffffffff1660e01b8152600401602060405180830381865afa925050508015611fea575060408051601f3d908101601f19168201909252611fe7918101906130d6565b60015b61201257604051634c9c8ce360e01b81526001600160a01b03831660048201526024016108de565b5f80516020613277833981519152811461204257604051632a87526960e21b8152600481018290526024016108de565b611b67838361243f565b306001600160a01b037f00000000000000000000000000000000000000000000000000000000000000001614610db35760405163703e46dd60e11b815260040160405180910390fd5b3361209e6110cd565b6001600160a01b031614610db35760405163118cdaa760e01b81523360048201526024016108de565b7f237e158222e3e6968b72b9db0d8043aacf074ad9f650f0d1606b4d82ee432c0080546001600160a01b0319168155610e0482612494565b610a5c81612504565b5f61211d846001600160a01b0385168461254d565b949350505050565b6001600160a01b03821661214e57604051634b637e8f60e11b81525f60048201526024016108de565b610e04825f83612306565b5f61087d82612569565b5f8080806121718686612573565b909450925050505b9250929050565b5f6121ad61218d8361259c565b80156121a857505f84806121a3576121a36130ed565b868809115b151590565b6121b88686866125c8565b611b519190612f38565b5f805160206132578339815191526001600160a01b0385166121f95760405163e602df0560e01b81525f60048201526024016108de565b6001600160a01b03841661222257604051634a1406b160e11b81525f60048201526024016108de565b6001600160a01b038086165f9081526001830160209081526040808320938816835292905220839055811561229f57836001600160a01b0316856001600160a01b03167f8c5be1e5ebec7d5bd14f71427d1e84f3dd0314c0f7b2291e5b200ac8c7c3b9258560405161229691815260200190565b60405180910390a35b5050505050565b6122ae612678565b610db357604051631afcd79f60e31b815260040160405180910390fd5b6122d36122a6565b610e048282612691565b6122e56122a6565b610a5c816126e1565b6122f66122a6565b610db3612764565b610db36122a6565b5f805160206132578339815191526001600160a01b0384166123405781816002015f8282546123359190612f38565b909155506123b09050565b6001600160a01b0384165f90815260208290526040902054828110156123925760405163391434e360e21b81526001600160a01b038616600482015260248101829052604481018490526064016108de565b6001600160a01b0385165f9081526020839052604090209083900390555b6001600160a01b0383166123ce5760028101805483900390556123ec565b6001600160a01b0383165f9081526020829052604090208054830190555b826001600160a01b0316846001600160a01b03167fddf252ad1be2c89b69c2b068fc378daa952ba7f163c4a11628f55a4df523b3ef8460405161243191815260200190565b60405180910390a350505050565b6124488261276c565b6040516001600160a01b038316907fbc7cd75a20ee27fd9adebab32041f755214dbc6bffa90cc0225b39da2e5c2d3b905f90a280511561248c57611b6782826127cf565b610e04612838565b7f9016d09d72d40fdae2fd8ceac6b6234c7706214fd39c1cd1e609a0528c19930080546001600160a01b031981166001600160a01b03848116918217845560405192169182907f8be0079c531659141344cd1fd0a4f28419497f9722a3daafe3b4186f6b6457e0905f90a3505050565b5f61250e82612569565b90505f5b8181101561254357600283015f6125298584612857565b815260208101919091526040015f90812055600101612512565b50610e0482612862565b5f828152600284016020526040812082905561211d848461286b565b5f61087d82612876565b5f80806125808585612857565b5f81815260029690960160205260409095205494959350505050565b5f60028260038111156125b1576125b1613101565b6125bb9190613115565b60ff166001149050919050565b5f805f6125d5868661287f565b91509150815f036125f9578381816125ef576125ef6130ed565b0492505050610be3565b81841161261057612610600385150260111861289b565b5f848688095f868103871696879004966002600389028118808a02820302808a02820302808a02820302808a02820302808a02820302808a02909103029181900381900460010185841190960395909502919093039390930492909217029150509392505050565b5f612681611c7e565b54600160401b900460ff16919050565b6126996122a6565b5f805160206132578339815191527f52c63247e1f47db19d5ce0460030c497f067ca4cebf71ba98eeadabe20bace036126d28482613186565b5060048101611e2a8382613186565b6126e96122a6565b7f0773e532dfede91f04b12a73d3d2acd361424f41f76b4fb79f090161e36b4e005f80612715846128ac565b9150915081612725576012612727565b805b83546001600160a81b031916600160a01b60ff92909216919091026001600160a01b031916176001600160a01b0394909416939093179091555050565b611c6b6122a6565b806001600160a01b03163b5f036127a157604051634c9c8ce360e01b81526001600160a01b03821660048201526024016108de565b5f8051602061327783398151915280546001600160a01b0319166001600160a01b0392909216919091179055565b60605f80846001600160a01b0316846040516127eb9190613240565b5f60405180830381855af49150503d805f8114612823576040519150601f19603f3d011682016040523d82523d5f602084013e612828565b606091505b5091509150611b51858383612982565b3415610db35760405163b398979f60e01b815260040160405180910390fd5b5f610be383836129de565b610a5c81612a04565b5f610be38383612a5d565b5f61087d825490565b5f805f1983850993909202808410938190039390930393915050565b634e487b715f52806020526024601cfd5b60408051600481526024810182526020810180516001600160e01b031663313ce56760e01b17905290515f918291829182916001600160a01b038716916128f291613240565b5f60405180830381855afa9150503d805f811461292a576040519150601f19603f3d011682016040523d82523d5f602084013e61292f565b606091505b509150915081801561294357506020815110155b15612976575f8180602001905181019061295d91906130d6565b905060ff8111612974576001969095509350505050565b505b505f9485945092505050565b6060826129975761299282612aa9565b610be3565b81511580156129ae57506001600160a01b0384163b155b156129d757604051639996b31560e01b81526001600160a01b03851660048201526024016108de565b5080610be3565b5f825f0182815481106129f3576129f3612f9e565b905f5260205f200154905092915050565b5f612a0d825490565b90505f5b81811015612a5657826001015f845f018381548110612a3257612a32612f9e565b905f5260205f20015481526020019081526020015f205f9055806001019050612a11565b50505f9055565b5f818152600183016020526040812054612aa257508154600181810184555f84815260208082209093018490558454848252828601909352604090209190915561087d565b505f61087d565b805115612ab95780518082602001fd5b60405163d6bda27560e01b815260040160405180910390fd5b602081525f82518060208401528060208501604085015e5f604082850101526040601f19601f83011684010191505092915050565b5f60208284031215612b17575f80fd5b5035919050565b6001600160a01b0381168114610a5c575f80fd5b5f8060408385031215612b43575f80fd5b8235612b4e81612b1e565b946020939093013593505050565b5f8083601f840112612b6c575f80fd5b5081356001600160401b03811115612b82575f80fd5b602083019150836020828501011115612179575f80fd5b5f805f805f8060808789031215612bae575f80fd5b8635612bb981612b1e565b95506020870135612bc981612b1e565b945060408701356001600160401b03811115612be3575f80fd5b612bef89828a01612b5c565b90955093505060608701356001600160401b03811115612c0d575f80fd5b612c1989828a01612b5c565b979a9699509497509295939492505050565b5f805f60608486031215612c3d575f80fd5b8335612c4881612b1e565b92506020840135612c5881612b1e565b929592945050506040919091013590565b5f60208284031215612c79575f80fd5b8135610be381612b1e565b634e487b7160e01b5f52604160045260245ffd5b5f8060408385031215612ca9575f80fd5b8235612cb481612b1e565b915060208301356001600160401b03811115612cce575f80fd5b8301601f81018513612cde575f80fd5b80356001600160401b03811115612cf757612cf7612c84565b604051601f8201601f19908116603f011681016001600160401b0381118282101715612d2557612d25612c84565b604052818152828201602001871015612d3c575f80fd5b816020840160208301375f602083830101528093505050509250929050565b5f8060408385031215612d6c575f80fd5b823591506020830135612d7e81612b1e565b809150509250929050565b5f8060208385031215612d9a575f80fd5b82356001600160401b03811115612daf575f80fd5b8301601f81018513612dbf575f80fd5b80356001600160401b03811115612dd4575f80fd5b8560208260061b8401011115612de8575f80fd5b6020919091019590945092505050565b5f805f60608486031215612e0a575f80fd5b833592506020840135612e1c81612b1e565b91506040840135612e2c81612b1e565b809150509250925092565b604080825283519082018190525f9060208501906060840190835b81811015612e795783516001600160a01b0316835260209384019390920191600101612e52565b5050838103602080860191909152855180835291810192508501905f5b81811015612eb4578251845260209384019390920191600101612e96565b50919695505050505050565b5f8060408385031215612ed1575f80fd5b8235612edc81612b1e565b91506020830135612d7e81612b1e565b600181811c90821680612f0057607f821691505b602082108103612f1e57634e487b7160e01b5f52602260045260245ffd5b50919050565b634e487b7160e01b5f52601160045260245ffd5b8082018082111561087d5761087d612f24565b5f60208284031215612f5b575f80fd5b81518015158114610be3575f80fd5b60ff818116838216019081111561087d5761087d612f24565b5f60208284031215612f93575f80fd5b8151610be381612b1e565b634e487b7160e01b5f52603260045260245ffd5b8181038181111561087d5761087d612f24565b5f60208284031215612fd5575f80fd5b815160ff81168114610be3575f80fd5b6001815b60018411156130205780850481111561300457613004612f24565b600184161561301257908102905b60019390931c928002612fe9565b935093915050565b5f826130365750600161087d565b8161304257505f61087d565b816001811461305857600281146130625761307e565b600191505061087d565b60ff84111561307357613073612f24565b50506001821b61087d565b5060208310610133831016604e8410600b84101617156130a1575081810a61087d565b6130ad5f198484612fe5565b805f19048211156130c0576130c0612f24565b029392505050565b5f610be360ff841683613028565b5f602082840312156130e6575f80fd5b5051919050565b634e487b7160e01b5f52601260045260245ffd5b634e487b7160e01b5f52602160045260245ffd5b5f60ff83168061313357634e487b7160e01b5f52601260045260245ffd5b8060ff84160691505092915050565b601f821115611b6757805f5260205f20601f840160051c810160208510156131675750805b601f840160051c820191505b8181101561229f575f8155600101613173565b81516001600160401b0381111561319f5761319f612c84565b6131b3816131ad8454612eec565b84613142565b6020601f8211600181146131e5575f83156131ce5750848201515b5f19600385901b1c1916600184901b17845561229f565b5f84815260208120601f198516915b8281101561321457878501518255602094850194600190920191016131f4565b508482101561323157868401515f19600387901b60f8161c191681555b50505050600190811b01905550565b5f82518060208501845e5f92019182525091905056fe52c63247e1f47db19d5ce0460030c497f067ca4cebf71ba98eeadabe20bace00360894a13ba1a3210667c828492db98dca3e2076cc3735a920a3ca505d382bbc9b779b17422d0df92223018b32b4d1fa46e071723d6817e2486d003becc55f00a2646970667358221220bd51302decd417edb04c58cd0e924dc767bc84971cfaa5af87eca11d2cb2ec5b64736f6c634300081a0033",
  "linkReferences": {},
  "deployedLinkReferences": {}
}