{
  "_format": "hh-sol-artifact-1",
  "contractName": "OrionEncryptedVault",
  "sourceName": "contracts/OrionEncryptedVault.sol",
  "abi": [
    {
      "inputs": [
        {
          "internalType": "address",
          "name": "target",
          "type": "address"
        }
      ],
      "name": "AddressEmptyCode",
      "type": "error"
    },
    {
      "inputs": [
        {
          "internalType": "address",
          "name": "asset",
          "type": "address"
        }
      ],
      "name": "AmountMustBeGreaterThanZero",
      "type": "error"
    },
    {
      "inputs": [
        {
          "internalType": "address",
          "name": "implementation",
          "type": "address"
        }
      ],
      "name": "ERC1967InvalidImplementation",
      "type": "error"
    },
    {
      "inputs": [],
      "name": "ERC1967NonPayable",
      "type": "error"
    },
    {
      "inputs": [
        {
          "internalType": "address",
          "name": "spender",
          "type": "address"
        },
        {
          "internalType": "uint256",
          "name": "allowance",
          "type": "uint256"
        },
        {
          "internalType": "uint256",
          "name": "needed",
          "type": "uint256"
        }
      ],
      "name": "ERC20InsufficientAllowance",
      "type": "error"
    },
    {
      "inputs": [
        {
          "internalType": "address",
          "name": "sender",
          "type": "address"
        },
        {
          "internalType": "uint256",
          "name": "balance",
          "type": "uint256"
        },
        {
          "internalType": "uint256",
          "name": "needed",
          "type": "uint256"
        }
      ],
      "name": "ERC20InsufficientBalance",
      "type": "error"
    },
    {
      "inputs": [
        {
          "internalType": "address",
          "name": "approver",
          "type": "address"
        }
      ],
      "name": "ERC20InvalidApprover",
      "type": "error"
    },
    {
      "inputs": [
        {
          "internalType": "address",
          "name": "receiver",
          "type": "address"
        }
      ],
      "name": "ERC20InvalidReceiver",
      "type": "error"
    },
    {
      "inputs": [
        {
          "internalType": "address",
          "name": "sender",
          "type": "address"
        }
      ],
      "name": "ERC20InvalidSender",
      "type": "error"
    },
    {
      "inputs": [
        {
          "internalType": "address",
          "name": "spender",
          "type": "address"
        }
      ],
      "name": "ERC20InvalidSpender",
      "type": "error"
    },
    {
      "inputs": [
        {
          "internalType": "address",
          "name": "receiver",
          "type": "address"
        },
        {
          "internalType": "uint256",
          "name": "assets",
          "type": "uint256"
        },
        {
          "internalType": "uint256",
          "name": "max",
          "type": "uint256"
        }
      ],
      "name": "ERC4626ExceededMaxDeposit",
      "type": "error"
    },
    {
      "inputs": [
        {
          "internalType": "address",
          "name": "receiver",
          "type": "address"
        },
        {
          "internalType": "uint256",
          "name": "shares",
          "type": "uint256"
        },
        {
          "internalType": "uint256",
          "name": "max",
          "type": "uint256"
        }
      ],
      "name": "ERC4626ExceededMaxMint",
      "type": "error"
    },
    {
      "inputs": [
        {
          "internalType": "address",
          "name": "owner",
          "type": "address"
        },
        {
          "internalType": "uint256",
          "name": "shares",
          "type": "uint256"
        },
        {
          "internalType": "uint256",
          "name": "max",
          "type": "uint256"
        }
      ],
      "name": "ERC4626ExceededMaxRedeem",
      "type": "error"
    },
    {
      "inputs": [
        {
          "internalType": "address",
          "name": "owner",
          "type": "address"
        },
        {
          "internalType": "uint256",
          "name": "assets",
          "type": "uint256"
        },
        {
          "internalType": "uint256",
          "name": "max",
          "type": "uint256"
        }
      ],
      "name": "ERC4626ExceededMaxWithdraw",
      "type": "error"
    },
    {
      "inputs": [],
      "name": "FailedCall",
      "type": "error"
    },
    {
      "inputs": [],
      "name": "InvalidConfigAddress",
      "type": "error"
    },
    {
      "inputs": [],
      "name": "InvalidCuratorAddress",
      "type": "error"
    },
    {
      "inputs": [],
      "name": "InvalidInitialization",
      "type": "error"
    },
    {
      "inputs": [],
      "name": "NotCurator",
      "type": "error"
    },
    {
      "inputs": [],
      "name": "NotEnoughDepositRequest",
      "type": "error"
    },
    {
      "inputs": [],
      "name": "NotEnoughShares",
      "type": "error"
    },
    {
      "inputs": [],
      "name": "NotInitializing",
      "type": "error"
    },
    {
      "inputs": [],
      "name": "NotLiquidityOrchestrator",
      "type": "error"
    },
    {
      "inputs": [],
      "name": "OrderIntentCannotBeEmpty",
      "type": "error"
    },
    {
      "inputs": [
        {
          "internalType": "address",
          "name": "owner",
          "type": "address"
        }
      ],
      "name": "OwnableInvalidOwner",
      "type": "error"
    },
    {
      "inputs": [
        {
          "internalType": "address",
          "name": "account",
          "type": "address"
        }
      ],
      "name": "OwnableUnauthorizedAccount",
      "type": "error"
    },
    {
      "inputs": [],
      "name": "ReentrancyGuardReentrantCall",
      "type": "error"
    },
    {
      "inputs": [],
      "name": "SharesMustBeGreaterThanZero",
      "type": "error"
    },
    {
      "inputs": [],
      "name": "SynchronousDepositsDisabled",
      "type": "error"
    },
    {
      "inputs": [],
      "name": "SynchronousRedemptionsDisabled",
      "type": "error"
    },
    {
      "inputs": [],
      "name": "SynchronousWithdrawalsDisabled",
      "type": "error"
    },
    {
      "inputs": [
        {
          "internalType": "address",
          "name": "token",
          "type": "address"
        }
      ],
      "name": "TokenNotWhitelisted",
      "type": "error"
    },
    {
      "inputs": [],
      "name": "TransferFailed",
      "type": "error"
    },
    {
      "inputs": [],
      "name": "UUPSUnauthorizedCallContext",
      "type": "error"
    },
    {
      "inputs": [
        {
          "internalType": "bytes32",
          "name": "slot",
          "type": "bytes32"
        }
      ],
      "name": "UUPSUnsupportedProxiableUUID",
      "type": "error"
    },
    {
      "anonymous": false,
      "inputs": [
        {
          "indexed": true,
          "internalType": "address",
          "name": "owner",
          "type": "address"
        },
        {
          "indexed": true,
          "internalType": "address",
          "name": "spender",
          "type": "address"
        },
        {
          "indexed": false,
          "internalType": "uint256",
          "name": "value",
          "type": "uint256"
        }
      ],
      "name": "Approval",
      "type": "event"
    },
    {
      "anonymous": false,
      "inputs": [
        {
          "indexed": true,
          "internalType": "address",
          "name": "sender",
          "type": "address"
        },
        {
          "indexed": true,
          "internalType": "address",
          "name": "owner",
          "type": "address"
        },
        {
          "indexed": false,
          "internalType": "uint256",
          "name": "assets",
          "type": "uint256"
        },
        {
          "indexed": false,
          "internalType": "uint256",
          "name": "shares",
          "type": "uint256"
        }
      ],
      "name": "Deposit",
      "type": "event"
    },
    {
      "anonymous": false,
      "inputs": [
        {
          "indexed": true,
          "internalType": "address",
          "name": "user",
          "type": "address"
        },
        {
          "indexed": false,
          "internalType": "uint256",
          "name": "amount",
          "type": "uint256"
        },
        {
          "indexed": false,
          "internalType": "uint256",
          "name": "requestId",
          "type": "uint256"
        }
      ],
      "name": "DepositProcessed",
      "type": "event"
    },
    {
      "anonymous": false,
      "inputs": [
        {
          "indexed": true,
          "internalType": "address",
          "name": "user",
          "type": "address"
        },
        {
          "indexed": false,
          "internalType": "uint256",
          "name": "amount",
          "type": "uint256"
        },
        {
          "indexed": false,
          "internalType": "uint256",
          "name": "depositorCount",
          "type": "uint256"
        }
      ],
      "name": "DepositRequestCancelled",
      "type": "event"
    },
    {
      "anonymous": false,
      "inputs": [
        {
          "indexed": true,
          "internalType": "address",
          "name": "user",
          "type": "address"
        },
        {
          "indexed": false,
          "internalType": "uint256",
          "name": "amount",
          "type": "uint256"
        },
        {
          "indexed": false,
          "internalType": "uint256",
          "name": "requestId",
          "type": "uint256"
        }
      ],
      "name": "DepositRequested",
      "type": "event"
    },
    {
      "anonymous": false,
      "inputs": [
        {
          "indexed": false,
          "internalType": "uint64",
          "name": "version",
          "type": "uint64"
        }
      ],
      "name": "Initialized",
      "type": "event"
    },
    {
      "anonymous": false,
      "inputs": [
        {
          "indexed": true,
          "internalType": "address",
          "name": "curator",
          "type": "address"
        }
      ],
      "name": "OrderSubmitted",
      "type": "event"
    },
    {
      "anonymous": false,
      "inputs": [
        {
          "indexed": true,
          "internalType": "address",
          "name": "previousOwner",
          "type": "address"
        },
        {
          "indexed": true,
          "internalType": "address",
          "name": "newOwner",
          "type": "address"
        }
      ],
      "name": "OwnershipTransferStarted",
      "type": "event"
    },
    {
      "anonymous": false,
      "inputs": [
        {
          "indexed": true,
          "internalType": "address",
          "name": "previousOwner",
          "type": "address"
        },
        {
          "indexed": true,
          "internalType": "address",
          "name": "newOwner",
          "type": "address"
        }
      ],
      "name": "OwnershipTransferred",
      "type": "event"
    },
    {
      "anonymous": false,
      "inputs": [
        {
          "indexed": true,
          "internalType": "address",
          "name": "from",
          "type": "address"
        },
        {
          "indexed": true,
          "internalType": "address",
          "name": "to",
          "type": "address"
        },
        {
          "indexed": false,
          "internalType": "uint256",
          "name": "value",
          "type": "uint256"
        }
      ],
      "name": "Transfer",
      "type": "event"
    },
    {
      "anonymous": false,
      "inputs": [
        {
          "indexed": true,
          "internalType": "address",
          "name": "implementation",
          "type": "address"
        }
      ],
      "name": "Upgraded",
      "type": "event"
    },
    {
      "anonymous": false,
      "inputs": [
        {
          "indexed": false,
          "internalType": "uint256",
          "name": "newTotalAssets",
          "type": "uint256"
        }
      ],
      "name": "VaultStateUpdated",
      "type": "event"
    },
    {
      "anonymous": false,
      "inputs": [
        {
          "indexed": true,
          "internalType": "address",
          "name": "sender",
          "type": "address"
        },
        {
          "indexed": true,
          "internalType": "address",
          "name": "receiver",
          "type": "address"
        },
        {
          "indexed": true,
          "internalType": "address",
          "name": "owner",
          "type": "address"
        },
        {
          "indexed": false,
          "internalType": "uint256",
          "name": "assets",
          "type": "uint256"
        },
        {
          "indexed": false,
          "internalType": "uint256",
          "name": "shares",
          "type": "uint256"
        }
      ],
      "name": "Withdraw",
      "type": "event"
    },
    {
      "anonymous": false,
      "inputs": [
        {
          "indexed": true,
          "internalType": "address",
          "name": "user",
          "type": "address"
        },
        {
          "indexed": false,
          "internalType": "uint256",
          "name": "shares",
          "type": "uint256"
        },
        {
          "indexed": false,
          "internalType": "uint256",
          "name": "requestId",
          "type": "uint256"
        }
      ],
      "name": "WithdrawProcessed",
      "type": "event"
    },
    {
      "anonymous": false,
      "inputs": [
        {
          "indexed": true,
          "internalType": "address",
          "name": "user",
          "type": "address"
        },
        {
          "indexed": false,
          "internalType": "uint256",
          "name": "shares",
          "type": "uint256"
        },
        {
          "indexed": false,
          "internalType": "uint256",
          "name": "requestId",
          "type": "uint256"
        }
      ],
      "name": "WithdrawRequested",
      "type": "event"
    },
    {
      "inputs": [],
      "name": "UPGRADE_INTERFACE_VERSION",
      "outputs": [
        {
          "internalType": "string",
          "name": "",
          "type": "string"
        }
      ],
      "stateMutability": "view",
      "type": "function"
    },
    {
      "inputs": [],
      "name": "acceptOwnership",
      "outputs": [],
      "stateMutability": "nonpayable",
      "type": "function"
    },
    {
      "inputs": [
        {
          "internalType": "address",
          "name": "owner",
          "type": "address"
        },
        {
          "internalType": "address",
          "name": "spender",
          "type": "address"
        }
      ],
      "name": "allowance",
      "outputs": [
        {
          "internalType": "uint256",
          "name": "",
          "type": "uint256"
        }
      ],
      "stateMutability": "view",
      "type": "function"
    },
    {
      "inputs": [
        {
          "internalType": "address",
          "name": "spender",
          "type": "address"
        },
        {
          "internalType": "uint256",
          "name": "value",
          "type": "uint256"
        }
      ],
      "name": "approve",
      "outputs": [
        {
          "internalType": "bool",
          "name": "",
          "type": "bool"
        }
      ],
      "stateMutability": "nonpayable",
      "type": "function"
    },
    {
      "inputs": [],
      "name": "asset",
      "outputs": [
        {
          "internalType": "address",
          "name": "",
          "type": "address"
        }
      ],
      "stateMutability": "view",
      "type": "function"
    },
    {
      "inputs": [
        {
          "internalType": "address",
          "name": "account",
          "type": "address"
        }
      ],
      "name": "balanceOf",
      "outputs": [
        {
          "internalType": "uint256",
          "name": "",
          "type": "uint256"
        }
      ],
      "stateMutability": "view",
      "type": "function"
    },
    {
      "inputs": [
        {
          "internalType": "uint256",
          "name": "amount",
          "type": "uint256"
        }
      ],
      "name": "cancelDepositRequest",
      "outputs": [],
      "stateMutability": "nonpayable",
      "type": "function"
    },
    {
      "inputs": [],
      "name": "config",
      "outputs": [
        {
          "internalType": "contract IOrionConfig",
          "name": "",
          "type": "address"
        }
      ],
      "stateMutability": "view",
      "type": "function"
    },
    {
      "inputs": [
        {
          "internalType": "uint256",
          "name": "shares",
          "type": "uint256"
        }
      ],
      "name": "convertToAssets",
      "outputs": [
        {
          "internalType": "uint256",
          "name": "",
          "type": "uint256"
        }
      ],
      "stateMutability": "view",
      "type": "function"
    },
    {
      "inputs": [
        {
          "internalType": "uint256",
          "name": "assets",
          "type": "uint256"
        }
      ],
      "name": "convertToShares",
      "outputs": [
        {
          "internalType": "uint256",
          "name": "",
          "type": "uint256"
        }
      ],
      "stateMutability": "view",
      "type": "function"
    },
    {
      "inputs": [],
      "name": "curator",
      "outputs": [
        {
          "internalType": "address",
          "name": "",
          "type": "address"
        }
      ],
      "stateMutability": "view",
      "type": "function"
    },
    {
      "inputs": [],
      "name": "decimals",
      "outputs": [
        {
          "internalType": "uint8",
          "name": "",
          "type": "uint8"
        }
      ],
      "stateMutability": "view",
      "type": "function"
    },
    {
      "inputs": [],
      "name": "deployer",
      "outputs": [
        {
          "internalType": "address",
          "name": "",
          "type": "address"
        }
      ],
      "stateMutability": "view",
      "type": "function"
    },
    {
      "inputs": [
        {
          "internalType": "uint256",
          "name": "",
          "type": "uint256"
        },
        {
          "internalType": "address",
          "name": "",
          "type": "address"
        }
      ],
      "name": "deposit",
      "outputs": [
        {
          "internalType": "uint256",
          "name": "",
          "type": "uint256"
        }
      ],
      "stateMutability": "pure",
      "type": "function"
    },
    {
      "inputs": [],
      "name": "getPendingDeposits",
      "outputs": [
        {
          "internalType": "uint256",
          "name": "",
          "type": "uint256"
        }
      ],
      "stateMutability": "view",
      "type": "function"
    },
    {
      "inputs": [],
      "name": "getPendingWithdrawals",
      "outputs": [
        {
          "internalType": "uint256",
          "name": "",
          "type": "uint256"
        }
      ],
      "stateMutability": "view",
      "type": "function"
    },
    {
      "inputs": [],
      "name": "getPortfolio",
      "outputs": [
        {
          "internalType": "address[]",
          "name": "tokens",
          "type": "address[]"
        },
        {
          "internalType": "euint32[]",
          "name": "sharesPerAsset",
          "type": "uint256[]"
        }
      ],
      "stateMutability": "view",
      "type": "function"
    },
    {
      "inputs": [
        {
          "internalType": "address",
          "name": "curatorAddress",
          "type": "address"
        },
        {
          "internalType": "contract IOrionConfig",
          "name": "configAddress",
          "type": "address"
        },
        {
          "internalType": "string",
          "name": "name",
          "type": "string"
        },
        {
          "internalType": "string",
          "name": "symbol",
          "type": "string"
        }
      ],
      "name": "initialize",
      "outputs": [],
      "stateMutability": "nonpayable",
      "type": "function"
    },
    {
      "inputs": [
        {
          "internalType": "address",
          "name": "",
          "type": "address"
        }
      ],
      "name": "maxDeposit",
      "outputs": [
        {
          "internalType": "uint256",
          "name": "",
          "type": "uint256"
        }
      ],
      "stateMutability": "view",
      "type": "function"
    },
    {
      "inputs": [
        {
          "internalType": "address",
          "name": "",
          "type": "address"
        }
      ],
      "name": "maxMint",
      "outputs": [
        {
          "internalType": "uint256",
          "name": "",
          "type": "uint256"
        }
      ],
      "stateMutability": "view",
      "type": "function"
    },
    {
      "inputs": [
        {
          "internalType": "address",
          "name": "owner",
          "type": "address"
        }
      ],
      "name": "maxRedeem",
      "outputs": [
        {
          "internalType": "uint256",
          "name": "",
          "type": "uint256"
        }
      ],
      "stateMutability": "view",
      "type": "function"
    },
    {
      "inputs": [
        {
          "internalType": "address",
          "name": "owner",
          "type": "address"
        }
      ],
      "name": "maxWithdraw",
      "outputs": [
        {
          "internalType": "uint256",
          "name": "",
          "type": "uint256"
        }
      ],
      "stateMutability": "view",
      "type": "function"
    },
    {
      "inputs": [
        {
          "internalType": "uint256",
          "name": "",
          "type": "uint256"
        },
        {
          "internalType": "address",
          "name": "",
          "type": "address"
        }
      ],
      "name": "mint",
      "outputs": [
        {
          "internalType": "uint256",
          "name": "",
          "type": "uint256"
        }
      ],
      "stateMutability": "pure",
      "type": "function"
    },
    {
      "inputs": [],
      "name": "name",
      "outputs": [
        {
          "internalType": "string",
          "name": "",
          "type": "string"
        }
      ],
      "stateMutability": "view",
      "type": "function"
    },
    {
      "inputs": [],
      "name": "owner",
      "outputs": [
        {
          "internalType": "address",
          "name": "",
          "type": "address"
        }
      ],
      "stateMutability": "view",
      "type": "function"
    },
    {
      "inputs": [],
      "name": "pendingOwner",
      "outputs": [
        {
          "internalType": "address",
          "name": "",
          "type": "address"
        }
      ],
      "stateMutability": "view",
      "type": "function"
    },
    {
      "inputs": [
        {
          "internalType": "uint256",
          "name": "assets",
          "type": "uint256"
        }
      ],
      "name": "previewDeposit",
      "outputs": [
        {
          "internalType": "uint256",
          "name": "",
          "type": "uint256"
        }
      ],
      "stateMutability": "view",
      "type": "function"
    },
    {
      "inputs": [
        {
          "internalType": "uint256",
          "name": "shares",
          "type": "uint256"
        }
      ],
      "name": "previewMint",
      "outputs": [
        {
          "internalType": "uint256",
          "name": "",
          "type": "uint256"
        }
      ],
      "stateMutability": "view",
      "type": "function"
    },
    {
      "inputs": [
        {
          "internalType": "uint256",
          "name": "shares",
          "type": "uint256"
        }
      ],
      "name": "previewRedeem",
      "outputs": [
        {
          "internalType": "uint256",
          "name": "",
          "type": "uint256"
        }
      ],
      "stateMutability": "view",
      "type": "function"
    },
    {
      "inputs": [
        {
          "internalType": "uint256",
          "name": "assets",
          "type": "uint256"
        }
      ],
      "name": "previewWithdraw",
      "outputs": [
        {
          "internalType": "uint256",
          "name": "",
          "type": "uint256"
        }
      ],
      "stateMutability": "view",
      "type": "function"
    },
    {
      "inputs": [],
      "name": "processDepositRequests",
      "outputs": [],
      "stateMutability": "nonpayable",
      "type": "function"
    },
    {
      "inputs": [],
      "name": "processWithdrawRequests",
      "outputs": [],
      "stateMutability": "nonpayable",
      "type": "function"
    },
    {
      "inputs": [],
      "name": "proxiableUUID",
      "outputs": [
        {
          "internalType": "bytes32",
          "name": "",
          "type": "bytes32"
        }
      ],
      "stateMutability": "view",
      "type": "function"
    },
    {
      "inputs": [
        {
          "internalType": "uint256",
          "name": "",
          "type": "uint256"
        },
        {
          "internalType": "address",
          "name": "",
          "type": "address"
        },
        {
          "internalType": "address",
          "name": "",
          "type": "address"
        }
      ],
      "name": "redeem",
      "outputs": [
        {
          "internalType": "uint256",
          "name": "",
          "type": "uint256"
        }
      ],
      "stateMutability": "pure",
      "type": "function"
    },
    {
      "inputs": [],
      "name": "renounceOwnership",
      "outputs": [],
      "stateMutability": "nonpayable",
      "type": "function"
    },
    {
      "inputs": [
        {
          "internalType": "uint256",
          "name": "amount",
          "type": "uint256"
        }
      ],
      "name": "requestDeposit",
      "outputs": [],
      "stateMutability": "nonpayable",
      "type": "function"
    },
    {
      "inputs": [
        {
          "internalType": "uint256",
          "name": "shares",
          "type": "uint256"
        }
      ],
      "name": "requestWithdraw",
      "outputs": [],
      "stateMutability": "nonpayable",
      "type": "function"
    },
    {
      "inputs": [
        {
          "components": [
            {
              "internalType": "address",
              "name": "token",
              "type": "address"
            },
            {
              "internalType": "euint32",
              "name": "weight",
              "type": "uint256"
            }
          ],
          "internalType": "struct IOrionEncryptedVault.EncryptedPosition[]",
          "name": "order",
          "type": "tuple[]"
        }
      ],
      "name": "submitOrderIntent",
      "outputs": [],
      "stateMutability": "nonpayable",
      "type": "function"
    },
    {
      "inputs": [],
      "name": "symbol",
      "outputs": [
        {
          "internalType": "string",
          "name": "",
          "type": "string"
        }
      ],
      "stateMutability": "view",
      "type": "function"
    },
    {
      "inputs": [],
      "name": "totalAssets",
      "outputs": [
        {
          "internalType": "uint256",
          "name": "",
          "type": "uint256"
        }
      ],
      "stateMutability": "view",
      "type": "function"
    },
    {
      "inputs": [],
      "name": "totalSupply",
      "outputs": [
        {
          "internalType": "uint256",
          "name": "",
          "type": "uint256"
        }
      ],
      "stateMutability": "view",
      "type": "function"
    },
    {
      "inputs": [
        {
          "internalType": "address",
          "name": "to",
          "type": "address"
        },
        {
          "internalType": "uint256",
          "name": "value",
          "type": "uint256"
        }
      ],
      "name": "transfer",
      "outputs": [
        {
          "internalType": "bool",
          "name": "",
          "type": "bool"
        }
      ],
      "stateMutability": "nonpayable",
      "type": "function"
    },
    {
      "inputs": [
        {
          "internalType": "address",
          "name": "from",
          "type": "address"
        },
        {
          "internalType": "address",
          "name": "to",
          "type": "address"
        },
        {
          "internalType": "uint256",
          "name": "value",
          "type": "uint256"
        }
      ],
      "name": "transferFrom",
      "outputs": [
        {
          "internalType": "bool",
          "name": "",
          "type": "bool"
        }
      ],
      "stateMutability": "nonpayable",
      "type": "function"
    },
    {
      "inputs": [
        {
          "internalType": "address",
          "name": "newOwner",
          "type": "address"
        }
      ],
      "name": "transferOwnership",
      "outputs": [],
      "stateMutability": "nonpayable",
      "type": "function"
    },
    {
      "inputs": [
        {
          "components": [
            {
              "internalType": "address",
              "name": "token",
              "type": "address"
            },
            {
              "internalType": "euint32",
              "name": "weight",
              "type": "uint256"
            }
          ],
          "internalType": "struct IOrionEncryptedVault.EncryptedPosition[]",
          "name": "portfolio",
          "type": "tuple[]"
        },
        {
          "internalType": "uint256",
          "name": "newTotalAssets",
          "type": "uint256"
        }
      ],
      "name": "updateVaultState",
      "outputs": [],
      "stateMutability": "nonpayable",
      "type": "function"
    },
    {
      "inputs": [
        {
          "internalType": "address",
          "name": "newImplementation",
          "type": "address"
        },
        {
          "internalType": "bytes",
          "name": "data",
          "type": "bytes"
        }
      ],
      "name": "upgradeToAndCall",
      "outputs": [],
      "stateMutability": "payable",
      "type": "function"
    },
    {
      "inputs": [
        {
          "internalType": "uint256",
          "name": "",
          "type": "uint256"
        },
        {
          "internalType": "address",
          "name": "",
          "type": "address"
        },
        {
          "internalType": "address",
          "name": "",
          "type": "address"
        }
      ],
      "name": "withdraw",
      "outputs": [
        {
          "internalType": "uint256",
          "name": "",
          "type": "uint256"
        }
      ],
      "stateMutability": "pure",
      "type": "function"
    }
  ],
  "bytecode": "0x60a06040523073ffffffffffffffffffffffffffffffffffffffff1660809073ffffffffffffffffffffffffffffffffffffffff168152503480156041575f80fd5b50608051616c606100685f395f81816145fd01528181614652015261493e0152616c605ff3fe608060405260043610610287575f3560e01c806394bf804d11610159578063c63d75b6116100c0578063d905777e11610079578063d905777e146109fc578063dd62ed3e14610a38578063e30c397814610a74578063e66f53b714610a9e578063ef8b30f714610ac8578063f2fde38b14610b0457610287565b8063c63d75b6146108c9578063c6e6f59214610905578063ce96cb7714610941578063d1699c261461097d578063d3d03458146109a7578063d5f39488146109d257610287565b8063ad3cb1cc11610112578063ad3cb1cc14610799578063b3d7f6b9146107c3578063b460af94146107ff578063ba0876521461083b578063c0b568e114610877578063c37fc8a81461089f57610287565b806394bf804d1461069157806395d89b41146106cd578063985ba4ae146106f75780639c055a661461071f578063a9059cbb14610747578063aa9d3a601461078357610287565b806338d52e0f116101fd57806370a08231116101b657806370a08231146105ad578063715018a6146105e9578063745400c9146105ff57806379502c551461062757806379ba5097146106515780638da5cb5b1461066757610287565b806338d52e0f14610489578063402d267d146104b35780634cdad506146104ef5780634f1ef2861461052b57806352d1902d146105475780636e553f651461057157610287565b80630d1e66671161024f5780630d1e66671461039357806318160ddd146103bb5780632016a0d2146103e557806323b872dd1461040d578063313ce5671461044957806333fdc5921461047357610287565b806301e1d1141461028b57806306fdde03146102b557806307a2d13a146102df578063095ea7b31461031b5780630a28a47714610357575b5f80fd5b348015610296575f80fd5b5061029f610b2c565b6040516102ac9190615935565b60405180910390f35b3480156102c0575f80fd5b506102c9610b71565b6040516102d691906159be565b60405180910390f35b3480156102ea575f80fd5b5061030560048036038101906103009190615a19565b610c0f565b6040516103129190615935565b60405180910390f35b348015610326575f80fd5b50610341600480360381019061033c9190615a9e565b610c5d565b60405161034e9190615af6565b60405180910390f35b348015610362575f80fd5b5061037d60048036038101906103789190615a19565b610c7f565b60405161038a9190615935565b60405180910390f35b34801561039e575f80fd5b506103b960048036038101906103b49190615a19565b610c92565b005b3480156103c6575f80fd5b506103cf6110b9565b6040516103dc9190615935565b60405180910390f35b3480156103f0575f80fd5b5061040b60048036038101906104069190615bab565b6110d0565b005b348015610418575f80fd5b50610433600480360381019061042e9190615c4e565b611343565b6040516104409190615af6565b60405180910390f35b348015610454575f80fd5b5061045d611371565b60405161046a9190615cb9565b60405180910390f35b34801561047e575f80fd5b506104876113a6565b005b348015610494575f80fd5b5061049d6117fd565b6040516104aa9190615ce1565b60405180910390f35b3480156104be575f80fd5b506104d960048036038101906104d49190615cfa565b611832565b6040516104e69190615935565b60405180910390f35b3480156104fa575f80fd5b5061051560048036038101906105109190615a19565b61185b565b6040516105229190615935565b60405180910390f35b61054560048036038101906105409190615e4d565b61186d565b005b348015610552575f80fd5b5061055b61188c565b6040516105689190615ebf565b60405180910390f35b34801561057c575f80fd5b5061059760048036038101906105929190615ed8565b6118bd565b6040516105a49190615935565b60405180910390f35b3480156105b8575f80fd5b506105d360048036038101906105ce9190615cfa565b611918565b6040516105e09190615935565b60405180910390f35b3480156105f4575f80fd5b506105fd61196b565b005b34801561060a575f80fd5b5061062560048036038101906106209190615a19565b61197e565b005b348015610632575f80fd5b5061063b611ce9565b6040516106489190615f71565b60405180910390f35b34801561065c575f80fd5b50610665611d0c565b005b348015610672575f80fd5b5061067b611d9a565b6040516106889190615ce1565b60405180910390f35b34801561069c575f80fd5b506106b760048036038101906106b29190615ed8565b611dcf565b6040516106c49190615935565b60405180910390f35b3480156106d8575f80fd5b506106e1611e2a565b6040516106ee91906159be565b60405180910390f35b348015610702575f80fd5b5061071d60048036038101906107189190615fdf565b611ec8565b005b34801561072a575f80fd5b506107456004803603810190610740919061603c565b612379565b005b348015610752575f80fd5b5061076d60048036038101906107689190615a9e565b612968565b60405161077a9190615af6565b60405180910390f35b34801561078e575f80fd5b5061079761298a565b005b3480156107a4575f80fd5b506107ad612ee9565b6040516107ba91906159be565b60405180910390f35b3480156107ce575f80fd5b506107e960048036038101906107e49190615a19565b612f22565b6040516107f69190615935565b60405180910390f35b34801561080a575f80fd5b5061082560048036038101906108209190616087565b612f35565b6040516108329190615935565b60405180910390f35b348015610846575f80fd5b50610861600480360381019061085c9190616087565b612f8f565b60405161086e9190615935565b60405180910390f35b348015610882575f80fd5b5061089d60048036038101906108989190615a19565b612fea565b005b3480156108aa575f80fd5b506108b36133e1565b6040516108c09190615935565b60405180910390f35b3480156108d4575f80fd5b506108ef60048036038101906108ea9190615cfa565b61355a565b6040516108fc9190615935565b60405180910390f35b348015610910575f80fd5b5061092b60048036038101906109269190615a19565b613583565b6040516109389190615935565b60405180910390f35b34801561094c575f80fd5b5061096760048036038101906109629190615cfa565b6135d1565b6040516109749190615935565b60405180910390f35b348015610988575f80fd5b506109916135eb565b60405161099e9190615935565b60405180910390f35b3480156109b2575f80fd5b506109bb613764565b6040516109c9929190616266565b60405180910390f35b3480156109dd575f80fd5b506109e66139ea565b6040516109f39190615ce1565b60405180910390f35b348015610a07575f80fd5b50610a226004803603810190610a1d9190615cfa565b613a0f565b604051610a2f9190615935565b60405180910390f35b348015610a43575f80fd5b50610a5e6004803603810190610a59919061629b565b613a20565b604051610a6b9190615935565b60405180910390f35b348015610a7f575f80fd5b50610a88613ab0565b604051610a959190615ce1565b60405180910390f35b348015610aa9575f80fd5b50610ab2613ae5565b604051610abf9190615ce1565b60405180910390f35b348015610ad3575f80fd5b50610aee6004803603810190610ae99190615a19565b613b0a565b604051610afb9190615935565b60405180910390f35b348015610b0f575f80fd5b50610b2a6004803603810190610b259190615cfa565b613b1c565b005b5f610b416701fc61e15541a4b260c01b613bd5565b610b5567e8e221c4ab2630e960c01b613bd5565b610b6967e4c328e46cc61aa960c01b613bd5565b600354905090565b60605f610b7c613bd8565b9050806003018054610b8d90616306565b80601f0160208091040260200160405190810160405280929190818152602001828054610bb990616306565b8015610c045780601f10610bdb57610100808354040283529160200191610c04565b820191905f5260205f20905b815481529060010190602001808311610be757829003601f168201915b505050505091505090565b5f610c2467240931b24928ff0260c01b613bd5565b610c3867d02e87a27658705d60c01b613bd5565b610c4c672e790f050bd29e4b60c01b613bd5565b610c56825f613bff565b9050919050565b5f80610c67613d6d565b9050610c74818585613d74565b600191505092915050565b5f610c8b826001613d86565b9050919050565b610ca667010732695089134060c01b613bd5565b610cae613ef4565b610cc26771a2a2cb9e7f301a60c01b613bd5565b610cd6671bb9f6410ab3af8c60c01b613bd5565b610cea67078881ce5805936960c01b613bd5565b610cfe67854147d284035f8460c01b613bd5565b5f8103610d5d57610d196701a22279cd6ec49460c01b613bd5565b610d216117fd565b6040517f6b306335000000000000000000000000000000000000000000000000000000008152600401610d549190615ce1565b60405180910390fd5b610d716773a69eefb52f554f60c01b613bd5565b610d856764acc72b266feff560c01b613bd5565b610d996753ab983a209db20f60c01b613bd5565b5f60045f3373ffffffffffffffffffffffffffffffffffffffff1673ffffffffffffffffffffffffffffffffffffffff1681526020019081526020015f205403610e7e57610df16799d9468c0d95d86a60c01b613bd5565b610e056733d971e02302813a60c01b613bd5565b610e196737832288fe0da3f860c01b613bd5565b600633908060018154018082558091505060019003905f5260205f20015f9091909190916101000a81548173ffffffffffffffffffffffffffffffffffffffff021916908373ffffffffffffffffffffffffffffffffffffffff160217905550610e93565b610e9267bd3748e05792a38a60c01b613bd5565b5b610ea767906751f7fc7f44ba60c01b613bd5565b8060045f3373ffffffffffffffffffffffffffffffffffffffff1673ffffffffffffffffffffffffffffffffffffffff1681526020019081526020015f205f828254610ef39190616363565b92505081905550610f0e67d1eaa596a29bc86f60c01b613bd5565b610f2267e9c99f1fa114ac4d60c01b613bd5565b5f610f2b6117fd565b73ffffffffffffffffffffffffffffffffffffffff166323b872dd3330856040518463ffffffff1660e01b8152600401610f6793929190616396565b6020604051808303815f875af1158015610f83573d5f803e3d5ffd5b505050506040513d601f19601f82011682018060405250810190610fa791906163f5565b9050610fbd6750cac8745e977e3160c01b613bd5565b610fd16780c08106c141995160c01b613bd5565b8061101c57610fea678c23e3da8a415ed860c01b613bd5565b6040517f90b8ec1800000000000000000000000000000000000000000000000000000000815260040160405180910390fd5b61103067147f9f945ce6766160c01b613bd5565b611044678b6df546842677d760c01b613bd5565b61105867b2745472dc7c0ab960c01b613bd5565b3373ffffffffffffffffffffffffffffffffffffffff167f03979a8c481a9e9c06938045cfd5c28535255cb003b10a8fe84ebb3cb4d440f2836006805490506040516110a5929190616420565b60405180910390a2506110b6613f48565b50565b5f806110c3613bd8565b9050806002015491505090565b6110e46780830de1fac300f360c01b613f5f565b5f6110ed613f62565b90505f815f0160089054906101000a900460ff161590505f825f015f9054906101000a900467ffffffffffffffff1690505f808267ffffffffffffffff161480156111355750825b90505f60018367ffffffffffffffff1614801561116857505f3073ffffffffffffffffffffffffffffffffffffffff163b145b905081158015611176575080155b156111ad576040517ff92ee8a900000000000000000000000000000000000000000000000000000000815260040160405180910390fd5b6001855f015f6101000a81548167ffffffffffffffff021916908367ffffffffffffffff16021790555083156111fa576001855f0160086101000a81548160ff0219169083151502179055505b61120e67678dc03fbdc889fb60c01b613f5f565b611222670d51f74edacd50f760c01b613f5f565b61123667e75e7e256efd945b60c01b613f5f565b61124a67994681ef4cb7ab1460c01b613f5f565b6112dc8b8b8b8b8080601f0160208091040260200160405190810160405280939291908181526020018383808284375f81840152601f19601f820116905080830192505050505050508a8a8080601f0160208091040260200160405190810160405280939291908181526020018383808284375f81840152601f19601f82011690508083019250505050505050613f75565b8315611336575f855f0160086101000a81548160ff0219169083151502179055507fc7f505b2f371ae2175ee4913f4499e1f2633a7b5936321eed1cdaeb6115181d2600160405161132d9190616493565b60405180910390a15b5050505050505050505050565b5f8061134d613d6d565b905061135a8582856143ce565b611365858585614461565b60019150509392505050565b5f8061137b614551565b9050611385614578565b815f0160149054906101000a900460ff166113a091906164ac565b91505090565b6113ba67f4ea52be91aaa63c60c01b613bd5565b6113ce673da70d8518d7986160c01b613bd5565b6113e2676563409dca8ca7de60c01b613bd5565b6113f6675974fa0a6eb17b7160c01b613bd5565b5f8054906101000a900473ffffffffffffffffffffffffffffffffffffffff1673ffffffffffffffffffffffffffffffffffffffff16633a0dad8e6040518163ffffffff1660e01b8152600401602060405180830381865afa15801561145e573d5f803e3d5ffd5b505050506040513d601f19601f8201168201806040525081019061148291906164f4565b73ffffffffffffffffffffffffffffffffffffffff163373ffffffffffffffffffffffffffffffffffffffff16146114fa576114c8677df90d95cf8d333760c01b613bd5565b6040517fd7955a7800000000000000000000000000000000000000000000000000000000815260040160405180910390fd5b61150e677c90ea7a03fb80a060c01b613bd5565b611522678ce14e21957a04d460c01b613bd5565b611536675fd459e86f41e55860c01b613bd5565b61154a670c48990f7f5d5a4260c01b613bd5565b611552613ef4565b6115666782c5eb04eab3104e60c01b613bd5565b61157a6707821b79679b5f5260c01b613bd5565b61158e672e487b99f28d646f60c01b613bd5565b6115a2673e94b3350a8b298760c01b613bd5565b5f60068054905090506115bf67199d008e702fca1960c01b613bd5565b6115d367ad5184a2b969346d60c01b613bd5565b5f5b818110156117f1576115f16791656154b8a0340860c01b613bd5565b61160567209288b06be590ec60c01b613bd5565b5f6006828154811061161a5761161961651f565b5b905f5260205f20015f9054906101000a900473ffffffffffffffffffffffffffffffffffffffff16905061165867ce1209030f694e1260c01b613bd5565b61166c676a89708a745f3a0460c01b613bd5565b5f60045f8373ffffffffffffffffffffffffffffffffffffffff1673ffffffffffffffffffffffffffffffffffffffff1681526020019081526020015f205490506116c167cbcc2fabe87a478360c01b613bd5565b6116d5678bc9085a3a62405260c01b613bd5565b5f6116df82613b0a565b90506116f567fb65868c4432e9e660c01b613bd5565b5f60045f8573ffffffffffffffffffffffffffffffffffffffff1673ffffffffffffffffffffffffffffffffffffffff1681526020019081526020015f208190555061174b67b6ba14f181e1954660c01b613bd5565b61175f670dc63d26ff62803d60c01b613bd5565b611769838261457c565b61177d67955933c9786cd44060c01b613bd5565b61179167a74c40ab3ad4094860c01b613bd5565b8273ffffffffffffffffffffffffffffffffffffffff167f782ea2005b7f873a0190a1ccb553c732171348d6e16d2b7d3d493c0677dc296e83866040516117d9929190616420565b60405180910390a250505080806001019150506115d5565b50506117fb613f48565b565b5f80611807614551565b9050805f015f9054906101000a900473ffffffffffffffffffffffffffffffffffffffff1691505090565b5f7fffffffffffffffffffffffffffffffffffffffffffffffffffffffffffffffff9050919050565b5f611866825f613bff565b9050919050565b6118756145fb565b61187e826146e1565b611888828261481e565b5050565b5f61189561493c565b7f360894a13ba1a3210667c828492db98dca3e2076cc3735a920a3ca505d382bbc5f1b905090565b5f6118d267e05bd9959fc98e3b60c01b613bd5565b6118e6676fa597d85a2e3ac460c01b613bd5565b6040517f31e5c8e600000000000000000000000000000000000000000000000000000000815260040160405180910390fd5b5f80611922613bd8565b9050805f015f8473ffffffffffffffffffffffffffffffffffffffff1673ffffffffffffffffffffffffffffffffffffffff1681526020019081526020015f2054915050919050565b6119736149c3565b61197c5f614a4a565b565b611992677c7ee1eff8bd956060c01b613bd5565b6119a6675ab188cadd5ffd5560c01b613bd5565b6119ba6745649427ee0e775160c01b613bd5565b5f8103611a07576119d5674f47e48bd6ab7f0560c01b613bd5565b6040517f29cd977200000000000000000000000000000000000000000000000000000000815260040160405180910390fd5b611a1b67457a8350b960642b60c01b613bd5565b611a2f679000f86874eb875c60c01b613bd5565b611a43672f43ddf3bd77835160c01b613bd5565b80611a4d33611918565b1015611a9957611a676747a7bcc2b146603760c01b613bd5565b6040517ff15ed21400000000000000000000000000000000000000000000000000000000815260040160405180910390fd5b611aad6766e677bc4a6ed0ba60c01b613bd5565b611ac16761d182f62329338d60c01b613bd5565b611ad5678f6b9e6c7ba63c0f60c01b613bd5565b5f60055f3373ffffffffffffffffffffffffffffffffffffffff1673ffffffffffffffffffffffffffffffffffffffff1681526020019081526020015f205403611bba57611b2d670210297d4534adab60c01b613bd5565b611b41673a574f23f373d05460c01b613bd5565b611b5567804b05aafcbab0e160c01b613bd5565b600733908060018154018082558091505060019003905f5260205f20015f9091909190916101000a81548173ffffffffffffffffffffffffffffffffffffffff021916908373ffffffffffffffffffffffffffffffffffffffff160217905550611bcf565b611bce67b31002deaaea2bdf60c01b613bd5565b5b611be367418fb9c1867ffbef60c01b613bd5565b8060055f3373ffffffffffffffffffffffffffffffffffffffff1673ffffffffffffffffffffffffffffffffffffffff1681526020019081526020015f205f828254611c2f9190616363565b92505081905550611c4a670fe9f1cda103cca460c01b613bd5565b611c5e67801b601ed912f76d60c01b613bd5565b611c69333083614461565b611c7d67c4576bc82437fc4060c01b613bd5565b611c916752603128ccffe52960c01b613bd5565b3373ffffffffffffffffffffffffffffffffffffffff167fd72eb5d043f24a0168ae744d5c44f9596fd673a26bf74d9646bff4b844882d1482600780549050604051611cde929190616420565b60405180910390a250565b5f8054906101000a900473ffffffffffffffffffffffffffffffffffffffff1681565b5f611d15613d6d565b90508073ffffffffffffffffffffffffffffffffffffffff16611d36613ab0565b73ffffffffffffffffffffffffffffffffffffffff1614611d8e57806040517f118cdaa7000000000000000000000000000000000000000000000000000000008152600401611d859190615ce1565b60405180910390fd5b611d9781614a4a565b50565b5f80611da4614a87565b9050805f015f9054906101000a900473ffffffffffffffffffffffffffffffffffffffff1691505090565b5f611de4671c71ade138074a3060c01b613bd5565b611df86735fc1fb70766729160c01b613bd5565b6040517f31e5c8e600000000000000000000000000000000000000000000000000000000815260040160405180910390fd5b60605f611e35613bd8565b9050806004018054611e4690616306565b80601f0160208091040260200160405190810160405280929190818152602001828054611e7290616306565b8015611ebd5780601f10611e9457610100808354040283529160200191611ebd565b820191905f5260205f20905b815481529060010190602001808311611ea057829003601f168201915b505050505091505090565b611edc67f2d2d53e9add1dfb60c01b613f5f565b611ef0673da70d8518d7986160c01b613bd5565b611f04676563409dca8ca7de60c01b613bd5565b611f18675974fa0a6eb17b7160c01b613bd5565b5f8054906101000a900473ffffffffffffffffffffffffffffffffffffffff1673ffffffffffffffffffffffffffffffffffffffff16633a0dad8e6040518163ffffffff1660e01b8152600401602060405180830381865afa158015611f80573d5f803e3d5ffd5b505050506040513d601f19601f82011682018060405250810190611fa491906164f4565b73ffffffffffffffffffffffffffffffffffffffff163373ffffffffffffffffffffffffffffffffffffffff161461201c57611fea677df90d95cf8d333760c01b613bd5565b6040517fd7955a7800000000000000000000000000000000000000000000000000000000815260040160405180910390fd5b612030677c90ea7a03fb80a060c01b613bd5565b612044678ce14e21957a04d460c01b613bd5565b612058673abcf3ce0e0c0bcc60c01b613f5f565b61206c6743d3dbf9e868477460c01b613f5f565b612080672c51a4a676cb6fc060c01b613f5f565b61209467f3599b04736b03aa60c01b613f5f565b5f5b600980549050811015612149576120b767f3459a9a2c4a8f7260c01b613f5f565b6120c05f614aae565b60085f600984815481106120d7576120d661651f565b5b905f5260205f20015f9054906101000a900473ffffffffffffffffffffffffffffffffffffffff1673ffffffffffffffffffffffffffffffffffffffff1673ffffffffffffffffffffffffffffffffffffffff1681526020019081526020015f20819055508080600101915050612096565b5061215e67a6878bb7392621a360c01b613f5f565b60095f61216b91906158e4565b61217f67f9f61f76790442e660c01b613f5f565b6121936721b273f90011821260c01b613f5f565b5f5b838390508110156122f9576121b467ffbd179f1f1ce63d60c01b613f5f565b8383828181106121c7576121c661651f565b5b9050604002016020013560085f8686858181106121e7576121e661651f565b5b9050604002015f0160208101906121fe9190615cfa565b73ffffffffffffffffffffffffffffffffffffffff1673ffffffffffffffffffffffffffffffffffffffff1681526020019081526020015f208190555061224f679ce4c0bad3c4bc6560c01b613f5f565b61226367e3fadee373efb7bc60c01b613f5f565b60098484838181106122785761227761651f565b5b9050604002015f01602081019061228f9190615cfa565b908060018154018082558091505060019003905f5260205f20015f9091909190916101000a81548173ffffffffffffffffffffffffffffffffffffffff021916908373ffffffffffffffffffffffffffffffffffffffff1602179055508080600101915050612195565b5061230e67a376713d67d9252c60c01b613f5f565b8060038190555061232967fbbebdaf7f647f9760c01b613f5f565b61233d67dfd3a9784276036760c01b613f5f565b7f5e1ff954b5e5257e9ee5d4cb07059e8f5e69b1aaaf9911e5d8d90a6894de9c218160405161236c9190615935565b60405180910390a1505050565b61238d67f25b7586944a447660c01b613f5f565b6123a167edef8b49966826b760c01b613bd5565b6123b567bf4f63cceca7a31060c01b613bd5565b6123c96707c7e8ea28a5ec6960c01b613bd5565b60015f9054906101000a900473ffffffffffffffffffffffffffffffffffffffff1673ffffffffffffffffffffffffffffffffffffffff163373ffffffffffffffffffffffffffffffffffffffff16146124635761243167943ab3524a51a54060c01b613bd5565b6040517f56b381a500000000000000000000000000000000000000000000000000000000815260040160405180910390fd5b612477672e0371e9d3051aab60c01b613bd5565b61248b67aa14d857ba086a2860c01b613bd5565b61249f67397284e1824f8d1160c01b613f5f565b6124b367ef9f627e0d52ce5c60c01b613f5f565b6124c767b754b3f1a0ed80c860c01b613f5f565b6124db6749d786aee8e9816b60c01b613f5f565b5f828290500361252b576124f9674d4ab2f93bd7fc8c60c01b613f5f565b6040517f1121aa8d00000000000000000000000000000000000000000000000000000000815260040160405180910390fd5b61253f67f228f8ef787c8d9960c01b613f5f565b612553678ad2debeb6115ac960c01b613f5f565b61256767e691684485134aab60c01b613f5f565b5f5b600b8054905081101561261c5761258a675976daf0b77895e060c01b613f5f565b6125935f614aae565b600a5f600b84815481106125aa576125a961651f565b5b905f5260205f20015f9054906101000a900473ffffffffffffffffffffffffffffffffffffffff1673ffffffffffffffffffffffffffffffffffffffff1673ffffffffffffffffffffffffffffffffffffffff1681526020019081526020015f20819055508080600101915050612569565b506126316776834bbb2ec9bf2a60c01b613f5f565b600b5f61263e91906158e4565b612652671e4676d4199f287860c01b613f5f565b61266667c358b521898e703d60c01b613f5f565b5f5b828290508110156128f8576126876770c5899bb404d28660c01b613f5f565b61269b674089826aa4eab5dc60c01b613f5f565b5f8383838181106126af576126ae61651f565b5b9050604002015f0160208101906126c69190615cfa565b90506126dc6750275fe6518d9c9760c01b613f5f565b6126f067b42a03e6712891af60c01b613f5f565b5f8054906101000a900473ffffffffffffffffffffffffffffffffffffffff1673ffffffffffffffffffffffffffffffffffffffff16633af32abf826040518263ffffffff1660e01b81526004016127489190615ce1565b602060405180830381865afa158015612763573d5f803e3d5ffd5b505050506040513d601f19601f8201168201806040525081019061278791906163f5565b6127dc5761279f67b92f77b6980801b660c01b613f5f565b806040517fea3bff2e0000000000000000000000000000000000000000000000000000000081526004016127d39190615ce1565b60405180910390fd5b6127f0670473f3cea8979e7a60c01b613f5f565b612804678c1f928a9ef320e660c01b613f5f565b8383838181106128175761281661651f565b5b90506040020160200135600a5f8373ffffffffffffffffffffffffffffffffffffffff1673ffffffffffffffffffffffffffffffffffffffff1681526020019081526020015f208190555061287667df433e4c7497426760c01b613f5f565b61288a67dd7af3c80330508060c01b613f5f565b600b81908060018154018082558091505060019003905f5260205f20015f9091909190916101000a81548173ffffffffffffffffffffffffffffffffffffffff021916908373ffffffffffffffffffffffffffffffffffffffff160217905550508080600101915050612668565b5061290d670de365372d711ac760c01b613f5f565b6129216722b9d5dcee662d6260c01b613f5f565b3373ffffffffffffffffffffffffffffffffffffffff167f2d47a742b8d7df7c1fc5a9a631b206b364e6cb2722490759f63bb3ab14b132e060405160405180910390a25050565b5f80612972613d6d565b905061297f818585614461565b600191505092915050565b61299e6783fea122f653485360c01b613bd5565b6129b2673da70d8518d7986160c01b613bd5565b6129c6676563409dca8ca7de60c01b613bd5565b6129da675974fa0a6eb17b7160c01b613bd5565b5f8054906101000a900473ffffffffffffffffffffffffffffffffffffffff1673ffffffffffffffffffffffffffffffffffffffff16633a0dad8e6040518163ffffffff1660e01b8152600401602060405180830381865afa158015612a42573d5f803e3d5ffd5b505050506040513d601f19601f82011682018060405250810190612a6691906164f4565b73ffffffffffffffffffffffffffffffffffffffff163373ffffffffffffffffffffffffffffffffffffffff1614612ade57612aac677df90d95cf8d333760c01b613bd5565b6040517fd7955a7800000000000000000000000000000000000000000000000000000000815260040160405180910390fd5b612af2677c90ea7a03fb80a060c01b613bd5565b612b06678ce14e21957a04d460c01b613bd5565b612b1a67e79505deb2c0a6a060c01b613bd5565b612b2e679b8b50a5c9d9ae5960c01b613bd5565b612b36613ef4565b612b4a678bcf59b82758e74260c01b613bd5565b612b5e67c58bf17516140eef60c01b613bd5565b612b72671c1512af5f9b724c60c01b613bd5565b612b8667b048b0d8a2296aac60c01b613bd5565b5f6007805490509050612ba3679bf1f8f5e2af3a4d60c01b613bd5565b612bb76707c46f012e3da82560c01b613bd5565b5f5b81811015612edd57612bd567df1e41ad963c189660c01b613bd5565b612be9678ce14c3744d5e1af60c01b613bd5565b5f60078281548110612bfe57612bfd61651f565b5b905f5260205f20015f9054906101000a900473ffffffffffffffffffffffffffffffffffffffff169050612c3c67ca973859109e942660c01b613bd5565b612c50675de426a43309782360c01b613bd5565b5f60055f8373ffffffffffffffffffffffffffffffffffffffff1673ffffffffffffffffffffffffffffffffffffffff1681526020019081526020015f20549050612ca567095827e88b5ba8f760c01b613bd5565b5f60055f8473ffffffffffffffffffffffffffffffffffffffff1673ffffffffffffffffffffffffffffffffffffffff1681526020019081526020015f2081905550612cfb6706b60157ee2d7f0160c01b613bd5565b612d0f67511daf7b5710817760c01b613bd5565b612d193082614ac1565b612d2d675e24a8951b9361fc60c01b613bd5565b612d41675c918f6aa11eefdc60c01b613bd5565b5f612d4b8261185b565b9050612d61676ed28ee81c6ceee360c01b613bd5565b612d7567cce1b1a61180f40060c01b613bd5565b612d7d6117fd565b73ffffffffffffffffffffffffffffffffffffffff1663a9059cbb84836040518363ffffffff1660e01b8152600401612db792919061654c565b6020604051808303815f875af1158015612dd3573d5f803e3d5ffd5b505050506040513d601f19601f82011682018060405250810190612df791906163f5565b612e4157612e0f67a506f1e3bd027e9e60c01b613bd5565b6040517f90b8ec1800000000000000000000000000000000000000000000000000000000815260040160405180910390fd5b612e55671ada55cb09bd309460c01b613bd5565b612e69679218e9394643b16d60c01b613bd5565b612e7d675ce26ac76a1afb6360c01b613bd5565b8273ffffffffffffffffffffffffffffffffffffffff167febad37b830b1857ef9af5983fc20dc0ded12dc472ba1e22e06fd3a9465b4506c8386604051612ec5929190616420565b60405180910390a25050508080600101915050612bb9565b5050612ee7613f48565b565b6040518060400160405280600581526020017f352e302e3000000000000000000000000000000000000000000000000000000081525081565b5f612f2e826001613bff565b9050919050565b5f612f4a6729d55f66642bef8360c01b613bd5565b612f5e6724cb6e31c33a3f5560c01b613bd5565b6040517e8a595100000000000000000000000000000000000000000000000000000000815260040160405180910390fd5b5f612fa4675f0ccfd1976d7bd560c01b613bd5565b612fb8678019a41f5b8e6c7360c01b613bd5565b6040517f56c290c800000000000000000000000000000000000000000000000000000000815260040160405180910390fd5b612ffe677ade9da9f83c18e360c01b613bd5565b613006613ef4565b61301a67288c1ce8e3a67d5360c01b613bd5565b61302e67a1102dc44e3f7f1360c01b613bd5565b613042675444ea6b4a3ab96160c01b613bd5565b613056671323b484c3195acd60c01b613bd5565b5f81036130b5576130716794070c01b2d9dbc960c01b613bd5565b6130796117fd565b6040517f6b3063350000000000000000000000000000000000000000000000000000000081526004016130ac9190615ce1565b60405180910390fd5b6130c96726ed3605e83d19cc60c01b613bd5565b6130dd6729253e3b7015201260c01b613bd5565b6130f167dc138cc7d42b09e860c01b613bd5565b8060045f3373ffffffffffffffffffffffffffffffffffffffff1673ffffffffffffffffffffffffffffffffffffffff1681526020019081526020015f2054101561317c5761314a674411cbd886c5578660c01b613bd5565b6040517fc8653f4c00000000000000000000000000000000000000000000000000000000815260040160405180910390fd5b61319067790fbc0454aa9e6360c01b613bd5565b6131a4674863b14ad23932d660c01b613bd5565b8060045f3373ffffffffffffffffffffffffffffffffffffffff1673ffffffffffffffffffffffffffffffffffffffff1681526020019081526020015f205f8282546131f09190616573565b9250508190555061320b67d0bc43d2c5d4d65960c01b613bd5565b61321f672b3d7ac23fd9a24260c01b613bd5565b5f600680549050905061323c67e0e1042aff8284e660c01b613bd5565b613250673112a95ed3efc04660c01b613bd5565b5f6132596117fd565b73ffffffffffffffffffffffffffffffffffffffff1663a9059cbb33856040518363ffffffff1660e01b815260040161329392919061654c565b6020604051808303815f875af11580156132af573d5f803e3d5ffd5b505050506040513d601f19601f820116820180604052508101906132d391906163f5565b90506132e9670385afb8ff96e9d760c01b613bd5565b6132fd670d62c6f273f1b1ff60c01b613bd5565b8061334857613316678d2633f34dbd9d3360c01b613bd5565b6040517f90b8ec1800000000000000000000000000000000000000000000000000000000815260040160405180910390fd5b61335c6797490b6d9f403d2260c01b613bd5565b61337067466bbcaece4a332d60c01b613bd5565b6133846748b71a4619e835f160c01b613bd5565b3373ffffffffffffffffffffffffffffffffffffffff167f2b19ac8271899522bfff26e405c20643af4cdf99b525ef2cd8cde689644874ae84846040516133cc929190616420565b60405180910390a250506133de613f48565b50565b5f6133f667db543cba34aca07360c01b613bd5565b61340a671983f8956c9fc53460c01b613bd5565b61341e671997b5c5eae6c0ee60c01b613bd5565b5f613433679f8d5eeb462a18b760c01b613bd5565b613447672f925a66976b9fe060c01b613bd5565b5f600780549050905061346467ba2438d5e38fbb1960c01b613bd5565b613478677a8a366ce6b032bd60c01b613bd5565b5f5b818110156135295761349667a2182fca66d90fa060c01b613bd5565b60055f600783815481106134ad576134ac61651f565b5b905f5260205f20015f9054906101000a900473ffffffffffffffffffffffffffffffffffffffff1673ffffffffffffffffffffffffffffffffffffffff1673ffffffffffffffffffffffffffffffffffffffff1681526020019081526020015f20548361351a9190616363565b9250808060010191505061347a565b5061353e67c869f9dfae63a9a460c01b613bd5565b61355267877609102ab54af460c01b613bd5565b819250505090565b5f7fffffffffffffffffffffffffffffffffffffffffffffffffffffffffffffffff9050919050565b5f613598670a4b8cb551da9c1060c01b613bd5565b6135ac67eb0302b1c34e57c160c01b613bd5565b6135c0674b7080a988ff9e8860c01b613bd5565b6135ca825f613d86565b9050919050565b5f6135e46135de83611918565b5f613bff565b9050919050565b5f61360067a7292ebf0691566e60c01b613bd5565b613614676945d84cc97747ed60c01b613bd5565b61362867c9574eac556d9b1860c01b613bd5565b5f61363d676a7c9de00d1a384b60c01b613bd5565b613651674460685f68e2e94b60c01b613bd5565b5f600680549050905061366e6731d4d96d6933a25560c01b613bd5565b61368267340a15bbd2ccec5760c01b613bd5565b5f5b81811015613733576136a0678c9551ed6e343af260c01b613bd5565b60045f600683815481106136b7576136b661651f565b5b905f5260205f20015f9054906101000a900473ffffffffffffffffffffffffffffffffffffffff1673ffffffffffffffffffffffffffffffffffffffff1673ffffffffffffffffffffffffffffffffffffffff1681526020019081526020015f2054836137249190616363565b92508080600101915050613684565b50613748677adfa6820114f6a060c01b613bd5565b61375c679c247c9cb814d31d60c01b613bd5565b819250505090565b60608061377b67fd23c0aa719cfa3060c01b613f5f565b61378f67ad0ce69f7a788dcc60c01b613f5f565b6137a36728cf7c2d567b27e960c01b613f5f565b5f60098054905090506137c0677e3e46430c55d9ae60c01b613f5f565b8067ffffffffffffffff8111156137da576137d9615d29565b5b6040519080825280602002602001820160405280156138085781602001602082028036833780820191505090505b50925061381f67d97c4602dd303f3560c01b613f5f565b8067ffffffffffffffff81111561383957613838615d29565b5b6040519080825280602002602001820160405280156138675781602001602082028036833780820191505090505b50915061387e675205caeba11cec7060c01b613f5f565b6138926792bc18b97e39225360c01b613f5f565b5f5b818110156139e4576138b06740821d0caf0b091560c01b613f5f565b6138c4670c6827c83ac6b4a460c01b613f5f565b5f600982815481106138d9576138d861651f565b5b905f5260205f20015f9054906101000a900473ffffffffffffffffffffffffffffffffffffffff1690506139176770fee2102ff8072c60c01b613f5f565b8085838151811061392b5761392a61651f565b5b602002602001019073ffffffffffffffffffffffffffffffffffffffff16908173ffffffffffffffffffffffffffffffffffffffff168152505061397967fff0a04ff135b45560c01b613f5f565b60085f8273ffffffffffffffffffffffffffffffffffffffff1673ffffffffffffffffffffffffffffffffffffffff1681526020019081526020015f20548483815181106139ca576139c961651f565b5b602002602001018181525050508080600101915050613894565b50509091565b60025f9054906101000a900473ffffffffffffffffffffffffffffffffffffffff1681565b5f613a1982611918565b9050919050565b5f80613a2a613bd8565b9050806001015f8573ffffffffffffffffffffffffffffffffffffffff1673ffffffffffffffffffffffffffffffffffffffff1681526020019081526020015f205f8473ffffffffffffffffffffffffffffffffffffffff1673ffffffffffffffffffffffffffffffffffffffff1681526020019081526020015f205491505092915050565b5f80613aba614b40565b9050805f015f9054906101000a900473ffffffffffffffffffffffffffffffffffffffff1691505090565b60015f9054906101000a900473ffffffffffffffffffffffffffffffffffffffff1681565b5f613b15825f613d86565b9050919050565b613b246149c3565b5f613b2d614b40565b905081815f015f6101000a81548173ffffffffffffffffffffffffffffffffffffffff021916908373ffffffffffffffffffffffffffffffffffffffff1602179055508173ffffffffffffffffffffffffffffffffffffffff16613b8f611d9a565b73ffffffffffffffffffffffffffffffffffffffff167f38d16b8cac22d99fc7c124b9cd0de2d3fa1faef420bfe791d8c362d765e2270060405160405180910390a35050565b50565b5f7f52c63247e1f47db19d5ce0460030c497f067ca4cebf71ba98eeadabe20bace00905090565b5f613c1467b0cbb2b05a342c4260c01b613bd5565b613c28674e7b17383921d8c660c01b613bd5565b613c3c672789fdbf3494bd2960c01b613bd5565b5f613c456110b9565b9050613c5b6745a4dbdb7ddea8e160c01b613bd5565b613c6f67b097504f48b4048160c01b613bd5565b5f805f9054906101000a900473ffffffffffffffffffffffffffffffffffffffff1673ffffffffffffffffffffffffffffffffffffffff1663b71ee4fc6040518163ffffffff1660e01b8152600401602060405180830381865afa158015613cd9573d5f803e3d5ffd5b505050506040513d601f19601f82011682018060405250810190613cfd91906165d0565b9050613d1367e2b344af60094fea60c01b613bd5565b613d27673e88743b9f08fa7a60c01b613bd5565b613d636001600354613d399190616363565b82600a613d46919061672a565b84613d519190616363565b8688614b67909392919063ffffffff16565b9250505092915050565b5f33905090565b613d818383836001614bb4565b505050565b5f613d9b6759a43ca64061e81660c01b613bd5565b613daf674e07074411ec9f2e60c01b613bd5565b613dc367a3f29de5f72ca83060c01b613bd5565b5f613dcc6110b9565b9050613de26794ec3985c0c4543660c01b613bd5565b613df66787c72139c21b9be860c01b613bd5565b5f805f9054906101000a900473ffffffffffffffffffffffffffffffffffffffff1673ffffffffffffffffffffffffffffffffffffffff1663b71ee4fc6040518163ffffffff1660e01b8152600401602060405180830381865afa158015613e60573d5f803e3d5ffd5b505050506040513d601f19601f82011682018060405250810190613e8491906165d0565b9050613e9a67664924a78e2dc6e660c01b613bd5565b613eae67d997acd39bfcf4df60c01b613bd5565b613eea81600a613ebe919061672a565b83613ec99190616363565b6001600354613ed89190616363565b8688614b67909392919063ffffffff16565b9250505092915050565b5f613efd614d91565b90506002815f015403613f3c576040517f3ee5aeb500000000000000000000000000000000000000000000000000000000815260040160405180910390fd5b6002815f018190555050565b5f613f51614d91565b90506001815f018190555050565b50565b5f80613f6c614db8565b90508091505090565b613f8967939d0b49246291e060c01b613bd5565b613f91614de1565b613fa567dbc22e535999ef8a60c01b613bd5565b613fb967a63dade1388054cb60c01b613bd5565b613fcd679f96931eb4fbb2a360c01b613bd5565b613fe16797a965af9abe4fa660c01b613bd5565b5f73ffffffffffffffffffffffffffffffffffffffff168473ffffffffffffffffffffffffffffffffffffffff160361405a57614028673cec2d24541f9a0060c01b613bd5565b6040517f9c6bb9f500000000000000000000000000000000000000000000000000000000815260040160405180910390fd5b61406e67e4fce8088617d9b960c01b613bd5565b614082676e9f98b6e88e285760c01b613bd5565b61409667e1668c8f33b15a1860c01b613bd5565b5f73ffffffffffffffffffffffffffffffffffffffff168373ffffffffffffffffffffffffffffffffffffffff160361410f576140dd6737da5e178f134ed960c01b613bd5565b6040517fd490b4b600000000000000000000000000000000000000000000000000000000815260040160405180910390fd5b61412367ab1068ec4ed2e38f60c01b613bd5565b61413767d744aa347f9ae62160c01b613bd5565b61414b67a0800b9d1236879e60c01b613bd5565b6141558282614e21565b61416967b9e00ce28da9ac3f60c01b613bd5565b61417d67a5f1ba0371fe0d9260c01b613bd5565b6141f28373ffffffffffffffffffffffffffffffffffffffff16637158da7c6040518163ffffffff1660e01b8152600401602060405180830381865afa1580156141c9573d5f803e3d5ffd5b505050506040513d601f19601f820116820180604052508101906141ed91906167af565b614e37565b61420667fa4872142557e41160c01b613bd5565b6142196666ba776369cbad60c01b613bd5565b614221614e4b565b61423567d4ae666398c35e1260c01b613bd5565b61424967026174b35e15544460c01b613bd5565b614251614e5d565b61426567c2d216148c7b161860c01b613bd5565b614279672d6dfe01adf96cdc60c01b613bd5565b614281614e67565b61429567e87b36fa2dbb295260c01b613bd5565b6142a967a35a421660bc8c7860c01b613bd5565b6142b284614a4a565b6142c6675cfe61a7d1ace75760c01b613bd5565b3360025f6101000a81548173ffffffffffffffffffffffffffffffffffffffff021916908373ffffffffffffffffffffffffffffffffffffffff16021790555061431a6765c19b6eebb1ffbe60c01b613bd5565b8360015f6101000a81548173ffffffffffffffffffffffffffffffffffffffff021916908373ffffffffffffffffffffffffffffffffffffffff16021790555061436e6777e4c1385312a76c60c01b613bd5565b825f806101000a81548173ffffffffffffffffffffffffffffffffffffffff021916908373ffffffffffffffffffffffffffffffffffffffff1602179055506143c1675b515d6ebea6e2b160c01b613bd5565b5f60038190555050505050565b5f6143d98484613a20565b90507fffffffffffffffffffffffffffffffffffffffffffffffffffffffffffffffff81101561445b578181101561444c578281836040517ffb8f41b2000000000000000000000000000000000000000000000000000000008152600401614443939291906167da565b60405180910390fd5b61445a84848484035f614bb4565b5b50505050565b5f73ffffffffffffffffffffffffffffffffffffffff168373ffffffffffffffffffffffffffffffffffffffff16036144d1575f6040517f96c6fd1e0000000000000000000000000000000000000000000000000000000081526004016144c89190615ce1565b60405180910390fd5b5f73ffffffffffffffffffffffffffffffffffffffff168273ffffffffffffffffffffffffffffffffffffffff1603614541575f6040517fec442f050000000000000000000000000000000000000000000000000000000081526004016145389190615ce1565b60405180910390fd5b61454c838383614e71565b505050565b5f7f0773e532dfede91f04b12a73d3d2acd361424f41f76b4fb79f090161e36b4e00905090565b5f90565b5f73ffffffffffffffffffffffffffffffffffffffff168273ffffffffffffffffffffffffffffffffffffffff16036145ec575f6040517fec442f050000000000000000000000000000000000000000000000000000000081526004016145e39190615ce1565b60405180910390fd5b6145f75f8383614e71565b5050565b7f000000000000000000000000000000000000000000000000000000000000000073ffffffffffffffffffffffffffffffffffffffff163073ffffffffffffffffffffffffffffffffffffffff1614806146a857507f000000000000000000000000000000000000000000000000000000000000000073ffffffffffffffffffffffffffffffffffffffff1661468f6150a0565b73ffffffffffffffffffffffffffffffffffffffff1614155b156146df576040517fe07c8dba00000000000000000000000000000000000000000000000000000000815260040160405180910390fd5b565b6146f567ca709e9ae5b4948260c01b613bd5565b61470967edef8b49966826b760c01b613bd5565b61471d67bf4f63cceca7a31060c01b613bd5565b6147316707c7e8ea28a5ec6960c01b613bd5565b60015f9054906101000a900473ffffffffffffffffffffffffffffffffffffffff1673ffffffffffffffffffffffffffffffffffffffff163373ffffffffffffffffffffffffffffffffffffffff16146147cb5761479967943ab3524a51a54060c01b613bd5565b6040517f56b381a500000000000000000000000000000000000000000000000000000000815260040160405180910390fd5b6147df672e0371e9d3051aab60c01b613bd5565b6147f367aa14d857ba086a2860c01b613bd5565b61480767886b8a8522eeff5360c01b613bd5565b61481b6701417e51f85159da60c01b613bd5565b50565b8173ffffffffffffffffffffffffffffffffffffffff166352d1902d6040518163ffffffff1660e01b8152600401602060405180830381865afa92505050801561488657506040513d601f19601f820116820180604052508101906148839190616839565b60015b6148c757816040517f4c9c8ce30000000000000000000000000000000000000000000000000000000081526004016148be9190615ce1565b60405180910390fd5b7f360894a13ba1a3210667c828492db98dca3e2076cc3735a920a3ca505d382bbc5f1b811461492d57806040517faa1d49a40000000000000000000000000000000000000000000000000000000081526004016149249190615ebf565b60405180910390fd5b61493783836150f3565b505050565b7f000000000000000000000000000000000000000000000000000000000000000073ffffffffffffffffffffffffffffffffffffffff163073ffffffffffffffffffffffffffffffffffffffff16146149c1576040517fe07c8dba00000000000000000000000000000000000000000000000000000000815260040160405180910390fd5b565b6149cb613d6d565b73ffffffffffffffffffffffffffffffffffffffff166149e9611d9a565b73ffffffffffffffffffffffffffffffffffffffff1614614a4857614a0c613d6d565b6040517f118cdaa7000000000000000000000000000000000000000000000000000000008152600401614a3f9190615ce1565b60405180910390fd5b565b5f614a53614b40565b9050805f015f6101000a81549073ffffffffffffffffffffffffffffffffffffffff0219169055614a8382615165565b5050565b5f7f9016d09d72d40fdae2fd8ceac6b6234c7706214fd39c1cd1e609a0528c199300905090565b5f614aba826004615236565b9050919050565b5f73ffffffffffffffffffffffffffffffffffffffff168273ffffffffffffffffffffffffffffffffffffffff1603614b31575f6040517f96c6fd1e000000000000000000000000000000000000000000000000000000008152600401614b289190615ce1565b60405180910390fd5b614b3c825f83614e71565b5050565b5f7f237e158222e3e6968b72b9db0d8043aacf074ad9f650f0d1606b4d82ee432c00905090565b5f614b95614b74836152ec565b8015614b9057505f8480614b8b57614b8a616864565b5b868809115b615319565b614ba0868686615324565b614baa9190616363565b9050949350505050565b5f614bbd613bd8565b90505f73ffffffffffffffffffffffffffffffffffffffff168573ffffffffffffffffffffffffffffffffffffffff1603614c2f575f6040517fe602df05000000000000000000000000000000000000000000000000000000008152600401614c269190615ce1565b60405180910390fd5b5f73ffffffffffffffffffffffffffffffffffffffff168473ffffffffffffffffffffffffffffffffffffffff1603614c9f575f6040517f94280d62000000000000000000000000000000000000000000000000000000008152600401614c969190615ce1565b60405180910390fd5b82816001015f8773ffffffffffffffffffffffffffffffffffffffff1673ffffffffffffffffffffffffffffffffffffffff1681526020019081526020015f205f8673ffffffffffffffffffffffffffffffffffffffff1673ffffffffffffffffffffffffffffffffffffffff1681526020019081526020015f20819055508115614d8a578373ffffffffffffffffffffffffffffffffffffffff168573ffffffffffffffffffffffffffffffffffffffff167f8c5be1e5ebec7d5bd14f71427d1e84f3dd0314c0f7b2291e5b200ac8c7c3b92585604051614d819190615935565b60405180910390a35b5050505050565b5f7f9b779b17422d0df92223018b32b4d1fa46e071723d6817e2486d003becc55f00905090565b5f7ff0c57e16840df040f15088dc2f81fe391c3923bec73e23a9662efc9c229c6a005f1b905090565b614de9615403565b614e1f576040517fd7e6bcf800000000000000000000000000000000000000000000000000000000815260040160405180910390fd5b565b614e29614de1565b614e338282615421565b5050565b614e3f614de1565b614e488161545d565b50565b614e53614de1565b614e5b6154ef565b565b614e65614de1565b565b614e6f614de1565b565b5f614e7a613bd8565b90505f73ffffffffffffffffffffffffffffffffffffffff168473ffffffffffffffffffffffffffffffffffffffff1603614ece5781816002015f828254614ec29190616363565b92505081905550614fa0565b5f815f015f8673ffffffffffffffffffffffffffffffffffffffff1673ffffffffffffffffffffffffffffffffffffffff1681526020019081526020015f2054905082811015614f59578481846040517fe450d38c000000000000000000000000000000000000000000000000000000008152600401614f50939291906167da565b60405180910390fd5b828103825f015f8773ffffffffffffffffffffffffffffffffffffffff1673ffffffffffffffffffffffffffffffffffffffff1681526020019081526020015f2081905550505b5f73ffffffffffffffffffffffffffffffffffffffff168373ffffffffffffffffffffffffffffffffffffffff1603614fe95781816002015f8282540392505081905550615035565b81815f015f8573ffffffffffffffffffffffffffffffffffffffff1673ffffffffffffffffffffffffffffffffffffffff1681526020019081526020015f205f82825401925050819055505b8273ffffffffffffffffffffffffffffffffffffffff168473ffffffffffffffffffffffffffffffffffffffff167fddf252ad1be2c89b69c2b068fc378daa952ba7f163c4a11628f55a4df523b3ef846040516150929190615935565b60405180910390a350505050565b5f6150cc7f360894a13ba1a3210667c828492db98dca3e2076cc3735a920a3ca505d382bbc5f1b61550e565b5f015f9054906101000a900473ffffffffffffffffffffffffffffffffffffffff16905090565b6150fc82615517565b8173ffffffffffffffffffffffffffffffffffffffff167fbc7cd75a20ee27fd9adebab32041f755214dbc6bffa90cc0225b39da2e5c2d3b60405160405180910390a25f815111156151585761515282826155e0565b50615161565b615160615660565b5b5050565b5f61516e614a87565b90505f815f015f9054906101000a900473ffffffffffffffffffffffffffffffffffffffff16905082825f015f6101000a81548173ffffffffffffffffffffffffffffffffffffffff021916908373ffffffffffffffffffffffffffffffffffffffff1602179055508273ffffffffffffffffffffffffffffffffffffffff168173ffffffffffffffffffffffffffffffffffffffff167f8be0079c531659141344cd1fd0a4f28419497f9722a3daafe3b4186f6b6457e060405160405180910390a3505050565b5f8061524061569c565b9050806001015f9054906101000a900473ffffffffffffffffffffffffffffffffffffffff1673ffffffffffffffffffffffffffffffffffffffff1663e71746b8858560f81b6040518363ffffffff1660e01b81526004016152a39291906168cb565b6020604051808303815f875af11580156152bf573d5f803e3d5ffd5b505050506040513d601f19601f820116820180604052508101906152e39190616906565b91505092915050565b5f6001600283600381111561530457615303616931565b5b61530e919061695e565b60ff16149050919050565b5f8115159050919050565b5f805f61533186866156c3565b915091505f82036153565783818161534c5761534b616864565b5b04925050506153fc565b8184116153755761537461536f5f8614601260116156e0565b6156f9565b5b5f8486880990508181118303925080820391505f855f038616905080860495508083049250600181825f0304019050808402831792505f600287600302189050808702600203810290508087026002038102905080870260020381029050808702600203810290508087026002038102905080870260020381029050808402955050505050505b9392505050565b5f61540c613f62565b5f0160089054906101000a900460ff16905090565b615429614de1565b5f615432613bd8565b9050828160030190816154459190616b01565b50818160040190816154579190616b01565b50505050565b615465614de1565b5f61546e614551565b90505f8061547b8461570a565b915091508161548b57601261548d565b805b835f0160146101000a81548160ff021916908360ff16021790555083835f015f6101000a81548173ffffffffffffffffffffffffffffffffffffffff021916908373ffffffffffffffffffffffffffffffffffffffff16021790555050505050565b6154f7614de1565b5f615500614d91565b90506001815f018190555050565b5f819050919050565b5f8173ffffffffffffffffffffffffffffffffffffffff163b0361557257806040517f4c9c8ce30000000000000000000000000000000000000000000000000000000081526004016155699190615ce1565b60405180910390fd5b8061559e7f360894a13ba1a3210667c828492db98dca3e2076cc3735a920a3ca505d382bbc5f1b61550e565b5f015f6101000a81548173ffffffffffffffffffffffffffffffffffffffff021916908373ffffffffffffffffffffffffffffffffffffffff16021790555050565b60605f808473ffffffffffffffffffffffffffffffffffffffff16846040516156099190616c14565b5f60405180830381855af49150503d805f8114615641576040519150601f19603f3d011682016040523d82523d5f602084013e615646565b606091505b5091509150615656858383615813565b9250505092915050565b5f34111561569a576040517fb398979f00000000000000000000000000000000000000000000000000000000815260040160405180910390fd5b565b5f7fed8d60e34876f751cc8b014c560745351147d9de11b9347c854e881b128ea600905090565b5f805f198385098385029150818110828203039250509250929050565b5f6156ea84615319565b82841802821890509392505050565b634e487b715f52806020526024601cfd5b5f805f808473ffffffffffffffffffffffffffffffffffffffff1660405160240160405160208183030381529060405263313ce56760e01b6020820180517bffffffffffffffffffffffffffffffffffffffffffffffffffffffff838183161783525050505060405161577d9190616c14565b5f60405180830381855afa9150503d805f81146157b5576040519150601f19603f3d011682016040523d82523d5f602084013e6157ba565b606091505b50915091508180156157ce57506020815110155b15615805575f818060200190518101906157e89190616906565b905060ff80168111615803576001819450945050505061580e565b505b5f809350935050505b915091565b60608261582857615823826158a0565b615898565b5f825114801561584e57505f8473ffffffffffffffffffffffffffffffffffffffff163b145b1561589057836040517f9996b3150000000000000000000000000000000000000000000000000000000081526004016158879190615ce1565b60405180910390fd5b819050615899565b5b9392505050565b5f815111156158b25780518082602001fd5b6040517fd6bda27500000000000000000000000000000000000000000000000000000000815260040160405180910390fd5b5080545f8255905f5260205f20908101906158ff9190615902565b50565b5b80821115615919575f815f905550600101615903565b5090565b5f819050919050565b61592f8161591d565b82525050565b5f6020820190506159485f830184615926565b92915050565b5f81519050919050565b5f82825260208201905092915050565b8281835e5f83830152505050565b5f601f19601f8301169050919050565b5f6159908261594e565b61599a8185615958565b93506159aa818560208601615968565b6159b381615976565b840191505092915050565b5f6020820190508181035f8301526159d68184615986565b905092915050565b5f604051905090565b5f80fd5b5f80fd5b6159f88161591d565b8114615a02575f80fd5b50565b5f81359050615a13816159ef565b92915050565b5f60208284031215615a2e57615a2d6159e7565b5b5f615a3b84828501615a05565b91505092915050565b5f73ffffffffffffffffffffffffffffffffffffffff82169050919050565b5f615a6d82615a44565b9050919050565b615a7d81615a63565b8114615a87575f80fd5b50565b5f81359050615a9881615a74565b92915050565b5f8060408385031215615ab457615ab36159e7565b5b5f615ac185828601615a8a565b9250506020615ad285828601615a05565b9150509250929050565b5f8115159050919050565b615af081615adc565b82525050565b5f602082019050615b095f830184615ae7565b92915050565b5f615b1982615a63565b9050919050565b615b2981615b0f565b8114615b33575f80fd5b50565b5f81359050615b4481615b20565b92915050565b5f80fd5b5f80fd5b5f80fd5b5f8083601f840112615b6b57615b6a615b4a565b5b8235905067ffffffffffffffff811115615b8857615b87615b4e565b5b602083019150836001820283011115615ba457615ba3615b52565b5b9250929050565b5f805f805f8060808789031215615bc557615bc46159e7565b5b5f615bd289828a01615a8a565b9650506020615be389828a01615b36565b955050604087013567ffffffffffffffff811115615c0457615c036159eb565b5b615c1089828a01615b56565b9450945050606087013567ffffffffffffffff811115615c3357615c326159eb565b5b615c3f89828a01615b56565b92509250509295509295509295565b5f805f60608486031215615c6557615c646159e7565b5b5f615c7286828701615a8a565b9350506020615c8386828701615a8a565b9250506040615c9486828701615a05565b9150509250925092565b5f60ff82169050919050565b615cb381615c9e565b82525050565b5f602082019050615ccc5f830184615caa565b92915050565b615cdb81615a63565b82525050565b5f602082019050615cf45f830184615cd2565b92915050565b5f60208284031215615d0f57615d0e6159e7565b5b5f615d1c84828501615a8a565b91505092915050565b5f80fd5b7f4e487b71000000000000000000000000000000000000000000000000000000005f52604160045260245ffd5b615d5f82615976565b810181811067ffffffffffffffff82111715615d7e57615d7d615d29565b5b80604052505050565b5f615d906159de565b9050615d9c8282615d56565b919050565b5f67ffffffffffffffff821115615dbb57615dba615d29565b5b615dc482615976565b9050602081019050919050565b828183375f83830152505050565b5f615df1615dec84615da1565b615d87565b905082815260208101848484011115615e0d57615e0c615d25565b5b615e18848285615dd1565b509392505050565b5f82601f830112615e3457615e33615b4a565b5b8135615e44848260208601615ddf565b91505092915050565b5f8060408385031215615e6357615e626159e7565b5b5f615e7085828601615a8a565b925050602083013567ffffffffffffffff811115615e9157615e906159eb565b5b615e9d85828601615e20565b9150509250929050565b5f819050919050565b615eb981615ea7565b82525050565b5f602082019050615ed25f830184615eb0565b92915050565b5f8060408385031215615eee57615eed6159e7565b5b5f615efb85828601615a05565b9250506020615f0c85828601615a8a565b9150509250929050565b5f819050919050565b5f615f39615f34615f2f84615a44565b615f16565b615a44565b9050919050565b5f615f4a82615f1f565b9050919050565b5f615f5b82615f40565b9050919050565b615f6b81615f51565b82525050565b5f602082019050615f845f830184615f62565b92915050565b5f8083601f840112615f9f57615f9e615b4a565b5b8235905067ffffffffffffffff811115615fbc57615fbb615b4e565b5b602083019150836040820283011115615fd857615fd7615b52565b5b9250929050565b5f805f60408486031215615ff657615ff56159e7565b5b5f84013567ffffffffffffffff811115616013576160126159eb565b5b61601f86828701615f8a565b9350935050602061603286828701615a05565b9150509250925092565b5f8060208385031215616052576160516159e7565b5b5f83013567ffffffffffffffff81111561606f5761606e6159eb565b5b61607b85828601615f8a565b92509250509250929050565b5f805f6060848603121561609e5761609d6159e7565b5b5f6160ab86828701615a05565b93505060206160bc86828701615a8a565b92505060406160cd86828701615a8a565b9150509250925092565b5f81519050919050565b5f82825260208201905092915050565b5f819050602082019050919050565b61610981615a63565b82525050565b5f61611a8383616100565b60208301905092915050565b5f602082019050919050565b5f61613c826160d7565b61614681856160e1565b9350616151836160f1565b805f5b83811015616181578151616168888261610f565b975061617383616126565b925050600181019050616154565b5085935050505092915050565b5f81519050919050565b5f82825260208201905092915050565b5f819050602082019050919050565b5f6161d16161cc6161c78461591d565b615f16565b61591d565b9050919050565b6161e1816161b7565b82525050565b5f6161f283836161d8565b60208301905092915050565b5f602082019050919050565b5f6162148261618e565b61621e8185616198565b9350616229836161a8565b805f5b8381101561625957815161624088826161e7565b975061624b836161fe565b92505060018101905061622c565b5085935050505092915050565b5f6040820190508181035f83015261627e8185616132565b90508181036020830152616292818461620a565b90509392505050565b5f80604083850312156162b1576162b06159e7565b5b5f6162be85828601615a8a565b92505060206162cf85828601615a8a565b9150509250929050565b7f4e487b71000000000000000000000000000000000000000000000000000000005f52602260045260245ffd5b5f600282049050600182168061631d57607f821691505b6020821081036163305761632f6162d9565b5b50919050565b7f4e487b71000000000000000000000000000000000000000000000000000000005f52601160045260245ffd5b5f61636d8261591d565b91506163788361591d565b92508282019050808211156163905761638f616336565b5b92915050565b5f6060820190506163a95f830186615cd2565b6163b66020830185615cd2565b6163c36040830184615926565b949350505050565b6163d481615adc565b81146163de575f80fd5b50565b5f815190506163ef816163cb565b92915050565b5f6020828403121561640a576164096159e7565b5b5f616417848285016163e1565b91505092915050565b5f6040820190506164335f830185615926565b6164406020830184615926565b9392505050565b5f819050919050565b5f67ffffffffffffffff82169050919050565b5f61647d61647861647384616447565b615f16565b616450565b9050919050565b61648d81616463565b82525050565b5f6020820190506164a65f830184616484565b92915050565b5f6164b682615c9e565b91506164c183615c9e565b9250828201905060ff8111156164da576164d9616336565b5b92915050565b5f815190506164ee81615a74565b92915050565b5f60208284031215616509576165086159e7565b5b5f616516848285016164e0565b91505092915050565b7f4e487b71000000000000000000000000000000000000000000000000000000005f52603260045260245ffd5b5f60408201905061655f5f830185615cd2565b61656c6020830184615926565b9392505050565b5f61657d8261591d565b91506165888361591d565b92508282039050818111156165a05761659f616336565b5b92915050565b6165af81615c9e565b81146165b9575f80fd5b50565b5f815190506165ca816165a6565b92915050565b5f602082840312156165e5576165e46159e7565b5b5f6165f2848285016165bc565b91505092915050565b5f8160011c9050919050565b5f808291508390505b60018511156166505780860481111561662c5761662b616336565b5b600185161561663b5780820291505b8081029050616649856165fb565b9450616610565b94509492505050565b5f826166685760019050616723565b81616675575f9050616723565b816001811461668b5760028114616695576166c4565b6001915050616723565b60ff8411156166a7576166a6616336565b5b8360020a9150848211156166be576166bd616336565b5b50616723565b5060208310610133831016604e8410600b84101617156166f95782820a9050838111156166f4576166f3616336565b5b616723565b6167068484846001616607565b9250905081840481111561671d5761671c616336565b5b81810290505b9392505050565b5f6167348261591d565b915061673f83615c9e565b925061676c7fffffffffffffffffffffffffffffffffffffffffffffffffffffffffffffffff8484616659565b905092915050565b5f61677e82615a63565b9050919050565b61678e81616774565b8114616798575f80fd5b50565b5f815190506167a981616785565b92915050565b5f602082840312156167c4576167c36159e7565b5b5f6167d18482850161679b565b91505092915050565b5f6060820190506167ed5f830186615cd2565b6167fa6020830185615926565b6168076040830184615926565b949350505050565b61681881615ea7565b8114616822575f80fd5b50565b5f815190506168338161680f565b92915050565b5f6020828403121561684e5761684d6159e7565b5b5f61685b84828501616825565b91505092915050565b7f4e487b71000000000000000000000000000000000000000000000000000000005f52601260045260245ffd5b5f7fff0000000000000000000000000000000000000000000000000000000000000082169050919050565b6168c581616891565b82525050565b5f6040820190506168de5f830185615926565b6168eb60208301846168bc565b9392505050565b5f81519050616900816159ef565b92915050565b5f6020828403121561691b5761691a6159e7565b5b5f616928848285016168f2565b91505092915050565b7f4e487b71000000000000000000000000000000000000000000000000000000005f52602160045260245ffd5b5f61696882615c9e565b915061697383615c9e565b92508261698357616982616864565b5b828206905092915050565b5f819050815f5260205f209050919050565b5f6020601f8301049050919050565b5f82821b905092915050565b5f600883026169ea7fffffffffffffffffffffffffffffffffffffffffffffffffffffffffffffffff826169af565b6169f486836169af565b95508019841693508086168417925050509392505050565b5f819050919050565b616a1e836161b7565b616a32616a2a82616a0c565b8484546169bb565b825550505050565b5f90565b616a46616a3a565b616a51818484616a15565b505050565b5b81811015616a7457616a695f82616a3e565b600181019050616a57565b5050565b601f821115616ab957616a8a8161698e565b616a93846169a0565b81016020851015616aa2578190505b616ab6616aae856169a0565b830182616a56565b50505b505050565b5f82821c905092915050565b5f616ad95f1984600802616abe565b1980831691505092915050565b5f616af18383616aca565b9150826002028217905092915050565b616b0a8261594e565b67ffffffffffffffff811115616b2357616b22615d29565b5b616b2d8254616306565b616b38828285616a78565b5f60209050601f831160018114616b69575f8415616b57578287015190505b616b618582616ae6565b865550616bc8565b601f198416616b778661698e565b5f5b82811015616b9e57848901518255600182019150602085019450602081019050616b79565b86831015616bbb5784890151616bb7601f891682616aca565b8355505b6001600288020188555050505b505050505050565b5f81519050919050565b5f81905092915050565b5f616bee82616bd0565b616bf88185616bda565b9350616c08818560208601615968565b80840191505092915050565b5f616c1f8284616be4565b91508190509291505056fea2646970667358221220c383a792d1a6eb29d38495174cb2efe6132abcb481d528200bb4f08f7de82c4164736f6c634300081a0033",
  "linkReferences": {},
  "deployedLinkReferences": {}
}