{
  "_format": "hh-sol-artifact-1",
  "contractName": "OrionEncryptedVault",
  "sourceName": "contracts/OrionEncryptedVault.sol",
  "abi": [
    {
      "inputs": [
        {
          "internalType": "address",
          "name": "_curator",
          "type": "address"
        },
        {
          "internalType": "contract IOrionConfig",
          "name": "_config",
          "type": "address"
        },
        {
          "internalType": "string",
          "name": "_name",
          "type": "string"
        },
        {
          "internalType": "string",
          "name": "_symbol",
          "type": "string"
        }
      ],
      "stateMutability": "nonpayable",
      "type": "constructor"
    },
    {
      "inputs": [
        {
          "internalType": "address",
          "name": "asset",
          "type": "address"
        }
      ],
      "name": "AmountMustBeGreaterThanZero",
      "type": "error"
    },
    {
      "inputs": [
        {
          "internalType": "address",
          "name": "spender",
          "type": "address"
        },
        {
          "internalType": "uint256",
          "name": "allowance",
          "type": "uint256"
        },
        {
          "internalType": "uint256",
          "name": "needed",
          "type": "uint256"
        }
      ],
      "name": "ERC20InsufficientAllowance",
      "type": "error"
    },
    {
      "inputs": [
        {
          "internalType": "address",
          "name": "sender",
          "type": "address"
        },
        {
          "internalType": "uint256",
          "name": "balance",
          "type": "uint256"
        },
        {
          "internalType": "uint256",
          "name": "needed",
          "type": "uint256"
        }
      ],
      "name": "ERC20InsufficientBalance",
      "type": "error"
    },
    {
      "inputs": [
        {
          "internalType": "address",
          "name": "approver",
          "type": "address"
        }
      ],
      "name": "ERC20InvalidApprover",
      "type": "error"
    },
    {
      "inputs": [
        {
          "internalType": "address",
          "name": "receiver",
          "type": "address"
        }
      ],
      "name": "ERC20InvalidReceiver",
      "type": "error"
    },
    {
      "inputs": [
        {
          "internalType": "address",
          "name": "sender",
          "type": "address"
        }
      ],
      "name": "ERC20InvalidSender",
      "type": "error"
    },
    {
      "inputs": [
        {
          "internalType": "address",
          "name": "spender",
          "type": "address"
        }
      ],
      "name": "ERC20InvalidSpender",
      "type": "error"
    },
    {
      "inputs": [
        {
          "internalType": "address",
          "name": "receiver",
          "type": "address"
        },
        {
          "internalType": "uint256",
          "name": "assets",
          "type": "uint256"
        },
        {
          "internalType": "uint256",
          "name": "max",
          "type": "uint256"
        }
      ],
      "name": "ERC4626ExceededMaxDeposit",
      "type": "error"
    },
    {
      "inputs": [
        {
          "internalType": "address",
          "name": "receiver",
          "type": "address"
        },
        {
          "internalType": "uint256",
          "name": "shares",
          "type": "uint256"
        },
        {
          "internalType": "uint256",
          "name": "max",
          "type": "uint256"
        }
      ],
      "name": "ERC4626ExceededMaxMint",
      "type": "error"
    },
    {
      "inputs": [
        {
          "internalType": "address",
          "name": "owner",
          "type": "address"
        },
        {
          "internalType": "uint256",
          "name": "shares",
          "type": "uint256"
        },
        {
          "internalType": "uint256",
          "name": "max",
          "type": "uint256"
        }
      ],
      "name": "ERC4626ExceededMaxRedeem",
      "type": "error"
    },
    {
      "inputs": [
        {
          "internalType": "address",
          "name": "owner",
          "type": "address"
        },
        {
          "internalType": "uint256",
          "name": "assets",
          "type": "uint256"
        },
        {
          "internalType": "uint256",
          "name": "max",
          "type": "uint256"
        }
      ],
      "name": "ERC4626ExceededMaxWithdraw",
      "type": "error"
    },
    {
      "inputs": [],
      "name": "InvalidConfigAddress",
      "type": "error"
    },
    {
      "inputs": [],
      "name": "InvalidCuratorAddress",
      "type": "error"
    },
    {
      "inputs": [],
      "name": "NotCurator",
      "type": "error"
    },
    {
      "inputs": [],
      "name": "NotEnoughShares",
      "type": "error"
    },
    {
      "inputs": [],
      "name": "NotInternalStatesOrchestrator",
      "type": "error"
    },
    {
      "inputs": [],
      "name": "NotLiquidityOrchestrator",
      "type": "error"
    },
    {
      "inputs": [],
      "name": "OrderIntentCannotBeEmpty",
      "type": "error"
    },
    {
      "inputs": [
        {
          "internalType": "address",
          "name": "owner",
          "type": "address"
        }
      ],
      "name": "OwnableInvalidOwner",
      "type": "error"
    },
    {
      "inputs": [
        {
          "internalType": "address",
          "name": "account",
          "type": "address"
        }
      ],
      "name": "OwnableUnauthorizedAccount",
      "type": "error"
    },
    {
      "inputs": [],
      "name": "ReentrancyGuardReentrantCall",
      "type": "error"
    },
    {
      "inputs": [],
      "name": "SharesMustBeGreaterThanZero",
      "type": "error"
    },
    {
      "inputs": [],
      "name": "SynchronousDepositsDisabled",
      "type": "error"
    },
    {
      "inputs": [],
      "name": "SynchronousRedemptionsDisabled",
      "type": "error"
    },
    {
      "inputs": [],
      "name": "SynchronousWithdrawalsDisabled",
      "type": "error"
    },
    {
      "inputs": [
        {
          "internalType": "address",
          "name": "token",
          "type": "address"
        }
      ],
      "name": "TokenAlreadyInOrder",
      "type": "error"
    },
    {
      "inputs": [
        {
          "internalType": "address",
          "name": "token",
          "type": "address"
        }
      ],
      "name": "TokenNotWhitelisted",
      "type": "error"
    },
    {
      "inputs": [],
      "name": "TransferFailed",
      "type": "error"
    },
    {
      "inputs": [],
      "name": "ZeroPrice",
      "type": "error"
    },
    {
      "anonymous": false,
      "inputs": [
        {
          "indexed": true,
          "internalType": "address",
          "name": "owner",
          "type": "address"
        },
        {
          "indexed": true,
          "internalType": "address",
          "name": "spender",
          "type": "address"
        },
        {
          "indexed": false,
          "internalType": "uint256",
          "name": "value",
          "type": "uint256"
        }
      ],
      "name": "Approval",
      "type": "event"
    },
    {
      "anonymous": false,
      "inputs": [
        {
          "indexed": true,
          "internalType": "address",
          "name": "sender",
          "type": "address"
        },
        {
          "indexed": true,
          "internalType": "address",
          "name": "owner",
          "type": "address"
        },
        {
          "indexed": false,
          "internalType": "uint256",
          "name": "assets",
          "type": "uint256"
        },
        {
          "indexed": false,
          "internalType": "uint256",
          "name": "shares",
          "type": "uint256"
        }
      ],
      "name": "Deposit",
      "type": "event"
    },
    {
      "anonymous": false,
      "inputs": [
        {
          "indexed": true,
          "internalType": "address",
          "name": "user",
          "type": "address"
        },
        {
          "indexed": false,
          "internalType": "uint256",
          "name": "amount",
          "type": "uint256"
        },
        {
          "indexed": false,
          "internalType": "uint256",
          "name": "requestId",
          "type": "uint256"
        }
      ],
      "name": "DepositProcessed",
      "type": "event"
    },
    {
      "anonymous": false,
      "inputs": [
        {
          "indexed": true,
          "internalType": "address",
          "name": "user",
          "type": "address"
        },
        {
          "indexed": false,
          "internalType": "uint256",
          "name": "amount",
          "type": "uint256"
        },
        {
          "indexed": false,
          "internalType": "uint256",
          "name": "requestId",
          "type": "uint256"
        }
      ],
      "name": "DepositRequested",
      "type": "event"
    },
    {
      "anonymous": false,
      "inputs": [
        {
          "indexed": true,
          "internalType": "address",
          "name": "curator",
          "type": "address"
        }
      ],
      "name": "OrderSubmitted",
      "type": "event"
    },
    {
      "anonymous": false,
      "inputs": [
        {
          "indexed": true,
          "internalType": "address",
          "name": "previousOwner",
          "type": "address"
        },
        {
          "indexed": true,
          "internalType": "address",
          "name": "newOwner",
          "type": "address"
        }
      ],
      "name": "OwnershipTransferStarted",
      "type": "event"
    },
    {
      "anonymous": false,
      "inputs": [
        {
          "indexed": true,
          "internalType": "address",
          "name": "previousOwner",
          "type": "address"
        },
        {
          "indexed": true,
          "internalType": "address",
          "name": "newOwner",
          "type": "address"
        }
      ],
      "name": "OwnershipTransferred",
      "type": "event"
    },
    {
      "anonymous": false,
      "inputs": [
        {
          "indexed": true,
          "internalType": "address",
          "name": "from",
          "type": "address"
        },
        {
          "indexed": true,
          "internalType": "address",
          "name": "to",
          "type": "address"
        },
        {
          "indexed": false,
          "internalType": "uint256",
          "name": "value",
          "type": "uint256"
        }
      ],
      "name": "Transfer",
      "type": "event"
    },
    {
      "anonymous": false,
      "inputs": [
        {
          "indexed": true,
          "internalType": "address",
          "name": "sender",
          "type": "address"
        },
        {
          "indexed": true,
          "internalType": "address",
          "name": "receiver",
          "type": "address"
        },
        {
          "indexed": true,
          "internalType": "address",
          "name": "owner",
          "type": "address"
        },
        {
          "indexed": false,
          "internalType": "uint256",
          "name": "assets",
          "type": "uint256"
        },
        {
          "indexed": false,
          "internalType": "uint256",
          "name": "shares",
          "type": "uint256"
        }
      ],
      "name": "Withdraw",
      "type": "event"
    },
    {
      "anonymous": false,
      "inputs": [
        {
          "indexed": true,
          "internalType": "address",
          "name": "user",
          "type": "address"
        },
        {
          "indexed": false,
          "internalType": "uint256",
          "name": "shares",
          "type": "uint256"
        },
        {
          "indexed": false,
          "internalType": "uint256",
          "name": "requestId",
          "type": "uint256"
        }
      ],
      "name": "WithdrawProcessed",
      "type": "event"
    },
    {
      "anonymous": false,
      "inputs": [
        {
          "indexed": true,
          "internalType": "address",
          "name": "user",
          "type": "address"
        },
        {
          "indexed": false,
          "internalType": "uint256",
          "name": "shares",
          "type": "uint256"
        },
        {
          "indexed": false,
          "internalType": "uint256",
          "name": "requestId",
          "type": "uint256"
        }
      ],
      "name": "WithdrawRequested",
      "type": "event"
    },
    {
      "inputs": [],
      "name": "acceptOwnership",
      "outputs": [],
      "stateMutability": "nonpayable",
      "type": "function"
    },
    {
      "inputs": [
        {
          "internalType": "address",
          "name": "owner",
          "type": "address"
        },
        {
          "internalType": "address",
          "name": "spender",
          "type": "address"
        }
      ],
      "name": "allowance",
      "outputs": [
        {
          "internalType": "uint256",
          "name": "",
          "type": "uint256"
        }
      ],
      "stateMutability": "view",
      "type": "function"
    },
    {
      "inputs": [
        {
          "internalType": "address",
          "name": "spender",
          "type": "address"
        },
        {
          "internalType": "uint256",
          "name": "value",
          "type": "uint256"
        }
      ],
      "name": "approve",
      "outputs": [
        {
          "internalType": "bool",
          "name": "",
          "type": "bool"
        }
      ],
      "stateMutability": "nonpayable",
      "type": "function"
    },
    {
      "inputs": [],
      "name": "asset",
      "outputs": [
        {
          "internalType": "address",
          "name": "",
          "type": "address"
        }
      ],
      "stateMutability": "view",
      "type": "function"
    },
    {
      "inputs": [
        {
          "internalType": "address",
          "name": "account",
          "type": "address"
        }
      ],
      "name": "balanceOf",
      "outputs": [
        {
          "internalType": "uint256",
          "name": "",
          "type": "uint256"
        }
      ],
      "stateMutability": "view",
      "type": "function"
    },
    {
      "inputs": [],
      "name": "config",
      "outputs": [
        {
          "internalType": "contract IOrionConfig",
          "name": "",
          "type": "address"
        }
      ],
      "stateMutability": "view",
      "type": "function"
    },
    {
      "inputs": [
        {
          "internalType": "uint256",
          "name": "shares",
          "type": "uint256"
        }
      ],
      "name": "convertToAssets",
      "outputs": [
        {
          "internalType": "uint256",
          "name": "",
          "type": "uint256"
        }
      ],
      "stateMutability": "view",
      "type": "function"
    },
    {
      "inputs": [
        {
          "internalType": "uint256",
          "name": "assets",
          "type": "uint256"
        }
      ],
      "name": "convertToShares",
      "outputs": [
        {
          "internalType": "uint256",
          "name": "",
          "type": "uint256"
        }
      ],
      "stateMutability": "view",
      "type": "function"
    },
    {
      "inputs": [],
      "name": "curator",
      "outputs": [
        {
          "internalType": "address",
          "name": "",
          "type": "address"
        }
      ],
      "stateMutability": "view",
      "type": "function"
    },
    {
      "inputs": [],
      "name": "decimals",
      "outputs": [
        {
          "internalType": "uint8",
          "name": "",
          "type": "uint8"
        }
      ],
      "stateMutability": "view",
      "type": "function"
    },
    {
      "inputs": [],
      "name": "deployer",
      "outputs": [
        {
          "internalType": "address",
          "name": "",
          "type": "address"
        }
      ],
      "stateMutability": "view",
      "type": "function"
    },
    {
      "inputs": [
        {
          "internalType": "uint256",
          "name": "",
          "type": "uint256"
        },
        {
          "internalType": "address",
          "name": "",
          "type": "address"
        }
      ],
      "name": "deposit",
      "outputs": [
        {
          "internalType": "uint256",
          "name": "",
          "type": "uint256"
        }
      ],
      "stateMutability": "pure",
      "type": "function"
    },
    {
      "inputs": [
        {
          "internalType": "address",
          "name": "",
          "type": "address"
        }
      ],
      "name": "maxDeposit",
      "outputs": [
        {
          "internalType": "uint256",
          "name": "",
          "type": "uint256"
        }
      ],
      "stateMutability": "view",
      "type": "function"
    },
    {
      "inputs": [
        {
          "internalType": "address",
          "name": "",
          "type": "address"
        }
      ],
      "name": "maxMint",
      "outputs": [
        {
          "internalType": "uint256",
          "name": "",
          "type": "uint256"
        }
      ],
      "stateMutability": "view",
      "type": "function"
    },
    {
      "inputs": [
        {
          "internalType": "address",
          "name": "owner",
          "type": "address"
        }
      ],
      "name": "maxRedeem",
      "outputs": [
        {
          "internalType": "uint256",
          "name": "",
          "type": "uint256"
        }
      ],
      "stateMutability": "view",
      "type": "function"
    },
    {
      "inputs": [
        {
          "internalType": "address",
          "name": "owner",
          "type": "address"
        }
      ],
      "name": "maxWithdraw",
      "outputs": [
        {
          "internalType": "uint256",
          "name": "",
          "type": "uint256"
        }
      ],
      "stateMutability": "view",
      "type": "function"
    },
    {
      "inputs": [
        {
          "internalType": "uint256",
          "name": "",
          "type": "uint256"
        },
        {
          "internalType": "address",
          "name": "",
          "type": "address"
        }
      ],
      "name": "mint",
      "outputs": [
        {
          "internalType": "uint256",
          "name": "",
          "type": "uint256"
        }
      ],
      "stateMutability": "pure",
      "type": "function"
    },
    {
      "inputs": [],
      "name": "name",
      "outputs": [
        {
          "internalType": "string",
          "name": "",
          "type": "string"
        }
      ],
      "stateMutability": "view",
      "type": "function"
    },
    {
      "inputs": [],
      "name": "owner",
      "outputs": [
        {
          "internalType": "address",
          "name": "",
          "type": "address"
        }
      ],
      "stateMutability": "view",
      "type": "function"
    },
    {
      "inputs": [],
      "name": "pendingOwner",
      "outputs": [
        {
          "internalType": "address",
          "name": "",
          "type": "address"
        }
      ],
      "stateMutability": "view",
      "type": "function"
    },
    {
      "inputs": [
        {
          "internalType": "uint256",
          "name": "assets",
          "type": "uint256"
        }
      ],
      "name": "previewDeposit",
      "outputs": [
        {
          "internalType": "uint256",
          "name": "",
          "type": "uint256"
        }
      ],
      "stateMutability": "view",
      "type": "function"
    },
    {
      "inputs": [
        {
          "internalType": "uint256",
          "name": "shares",
          "type": "uint256"
        }
      ],
      "name": "previewMint",
      "outputs": [
        {
          "internalType": "uint256",
          "name": "",
          "type": "uint256"
        }
      ],
      "stateMutability": "view",
      "type": "function"
    },
    {
      "inputs": [
        {
          "internalType": "uint256",
          "name": "shares",
          "type": "uint256"
        }
      ],
      "name": "previewRedeem",
      "outputs": [
        {
          "internalType": "uint256",
          "name": "",
          "type": "uint256"
        }
      ],
      "stateMutability": "view",
      "type": "function"
    },
    {
      "inputs": [
        {
          "internalType": "uint256",
          "name": "assets",
          "type": "uint256"
        }
      ],
      "name": "previewWithdraw",
      "outputs": [
        {
          "internalType": "uint256",
          "name": "",
          "type": "uint256"
        }
      ],
      "stateMutability": "view",
      "type": "function"
    },
    {
      "inputs": [],
      "name": "processDepositRequests",
      "outputs": [],
      "stateMutability": "nonpayable",
      "type": "function"
    },
    {
      "inputs": [],
      "name": "processWithdrawRequests",
      "outputs": [],
      "stateMutability": "nonpayable",
      "type": "function"
    },
    {
      "inputs": [
        {
          "internalType": "uint256",
          "name": "",
          "type": "uint256"
        },
        {
          "internalType": "address",
          "name": "",
          "type": "address"
        },
        {
          "internalType": "address",
          "name": "",
          "type": "address"
        }
      ],
      "name": "redeem",
      "outputs": [
        {
          "internalType": "uint256",
          "name": "",
          "type": "uint256"
        }
      ],
      "stateMutability": "pure",
      "type": "function"
    },
    {
      "inputs": [],
      "name": "renounceOwnership",
      "outputs": [],
      "stateMutability": "nonpayable",
      "type": "function"
    },
    {
      "inputs": [
        {
          "internalType": "uint256",
          "name": "amount",
          "type": "uint256"
        }
      ],
      "name": "requestDeposit",
      "outputs": [],
      "stateMutability": "nonpayable",
      "type": "function"
    },
    {
      "inputs": [
        {
          "internalType": "uint256",
          "name": "shares",
          "type": "uint256"
        }
      ],
      "name": "requestWithdraw",
      "outputs": [],
      "stateMutability": "nonpayable",
      "type": "function"
    },
    {
      "inputs": [
        {
          "internalType": "uint256",
          "name": "newPrice",
          "type": "uint256"
        }
      ],
      "name": "setSharePrice",
      "outputs": [],
      "stateMutability": "nonpayable",
      "type": "function"
    },
    {
      "inputs": [
        {
          "internalType": "uint256",
          "name": "newTotalAssets",
          "type": "uint256"
        }
      ],
      "name": "setTotalAssets",
      "outputs": [],
      "stateMutability": "nonpayable",
      "type": "function"
    },
    {
      "inputs": [],
      "name": "sharePrice",
      "outputs": [
        {
          "internalType": "uint256",
          "name": "",
          "type": "uint256"
        }
      ],
      "stateMutability": "view",
      "type": "function"
    },
    {
      "inputs": [
        {
          "components": [
            {
              "internalType": "address",
              "name": "token",
              "type": "address"
            },
            {
              "internalType": "euint32",
              "name": "amount",
              "type": "uint256"
            }
          ],
          "internalType": "struct IOrionEncryptedVault.Order[]",
          "name": "order",
          "type": "tuple[]"
        }
      ],
      "name": "submitOrderIntent",
      "outputs": [],
      "stateMutability": "nonpayable",
      "type": "function"
    },
    {
      "inputs": [],
      "name": "symbol",
      "outputs": [
        {
          "internalType": "string",
          "name": "",
          "type": "string"
        }
      ],
      "stateMutability": "view",
      "type": "function"
    },
    {
      "inputs": [],
      "name": "totalAssets",
      "outputs": [
        {
          "internalType": "uint256",
          "name": "",
          "type": "uint256"
        }
      ],
      "stateMutability": "view",
      "type": "function"
    },
    {
      "inputs": [],
      "name": "totalSupply",
      "outputs": [
        {
          "internalType": "uint256",
          "name": "",
          "type": "uint256"
        }
      ],
      "stateMutability": "view",
      "type": "function"
    },
    {
      "inputs": [
        {
          "internalType": "address",
          "name": "to",
          "type": "address"
        },
        {
          "internalType": "uint256",
          "name": "value",
          "type": "uint256"
        }
      ],
      "name": "transfer",
      "outputs": [
        {
          "internalType": "bool",
          "name": "",
          "type": "bool"
        }
      ],
      "stateMutability": "nonpayable",
      "type": "function"
    },
    {
      "inputs": [
        {
          "internalType": "address",
          "name": "from",
          "type": "address"
        },
        {
          "internalType": "address",
          "name": "to",
          "type": "address"
        },
        {
          "internalType": "uint256",
          "name": "value",
          "type": "uint256"
        }
      ],
      "name": "transferFrom",
      "outputs": [
        {
          "internalType": "bool",
          "name": "",
          "type": "bool"
        }
      ],
      "stateMutability": "nonpayable",
      "type": "function"
    },
    {
      "inputs": [
        {
          "internalType": "address",
          "name": "newOwner",
          "type": "address"
        }
      ],
      "name": "transferOwnership",
      "outputs": [],
      "stateMutability": "nonpayable",
      "type": "function"
    },
    {
      "inputs": [
        {
          "internalType": "uint256",
          "name": "",
          "type": "uint256"
        },
        {
          "internalType": "address",
          "name": "",
          "type": "address"
        },
        {
          "internalType": "address",
          "name": "",
          "type": "address"
        }
      ],
      "name": "withdraw",
      "outputs": [
        {
          "internalType": "uint256",
          "name": "",
          "type": "uint256"
        }
      ],
      "stateMutability": "pure",
      "type": "function"
    }
  ],
  "bytecode": "0x60c060405234801561000f575f80fd5b5060405161267538038061267583398101604081905261002e916103d1565b8383838383836001600160a01b0316637158da7c6040518163ffffffff1660e01b8152600401602060405180830381865afa15801561006f573d5f803e3d5ffd5b505050506040513d601f19601f82011682018060405250810190610093919061045c565b838360036100a18382610502565b5060046100ae8282610502565b5050505f806100c2836101c960201b60201c565b91509150816100d25760126100d4565b805b60ff1660a05250506001600160a01b03908116608052811661010f57604051631e4fbdf760e01b81525f600482015260240160405180910390fd5b6101188161029f565b506001600160a01b03841661014057604051639c6bb9f560e01b815260040160405180910390fd5b6001600160a01b03831661016757604051636a485a5b60e11b815260040160405180910390fd5b60098054336001600160a01b0319918216179091556008805482166001600160a01b0387811691909117909155600780549092169085161790556101a96102bb565b6101b490600a6106b5565b600a5550505f600b5550610709945050505050565b60408051600481526024810182526020810180516001600160e01b031663313ce56760e01b17905290515f918291829182916001600160a01b0387169161020f916106c3565b5f60405180830381855afa9150503d805f8114610247576040519150601f19603f3d011682016040523d82523d5f602084013e61024c565b606091505b509150915081801561026057506020815110155b15610293575f8180602001905181019061027a91906106d9565b905060ff8111610291576001969095509350505050565b505b505f9485945092505050565b600680546001600160a01b03191690556102b8816102cf565b50565b5f8060a0516102ca91906106f0565b905090565b600580546001600160a01b038381166001600160a01b0319831681179093556040519116919082907f8be0079c531659141344cd1fd0a4f28419497f9722a3daafe3b4186f6b6457e0905f90a35050565b6001600160a01b03811681146102b8575f80fd5b634e487b7160e01b5f52604160045260245ffd5b5f82601f830112610357575f80fd5b81516001600160401b0381111561037057610370610334565b604051601f8201601f19908116603f011681016001600160401b038111828210171561039e5761039e610334565b6040528181528382016020018510156103b5575f80fd5b8160208501602083015e5f918101602001919091529392505050565b5f805f80608085870312156103e4575f80fd5b84516103ef81610320565b602086015190945061040081610320565b60408601519093506001600160401b0381111561041b575f80fd5b61042787828801610348565b606087015190935090506001600160401b03811115610444575f80fd5b61045087828801610348565b91505092959194509250565b5f6020828403121561046c575f80fd5b815161047781610320565b9392505050565b600181811c9082168061049257607f821691505b6020821081036104b057634e487b7160e01b5f52602260045260245ffd5b50919050565b601f8211156104fd57805f5260205f20601f840160051c810160208510156104db5750805b601f840160051c820191505b818110156104fa575f81556001016104e7565b50505b505050565b81516001600160401b0381111561051b5761051b610334565b61052f81610529845461047e565b846104b6565b6020601f821160018114610561575f831561054a5750848201515b5f19600385901b1c1916600184901b1784556104fa565b5f84815260208120601f198516915b828110156105905787850151825560209485019460019092019101610570565b50848210156105ad57868401515f19600387901b60f8161c191681555b50505050600190811b01905550565b634e487b7160e01b5f52601160045260245ffd5b6001815b600184111561060b578085048111156105ef576105ef6105bc565b60018416156105fd57908102905b60019390931c9280026105d4565b935093915050565b5f82610621575060016106af565b8161062d57505f6106af565b8160018114610643576002811461064d57610669565b60019150506106af565b60ff84111561065e5761065e6105bc565b50506001821b6106af565b5060208310610133831016604e8410600b841016171561068c575081810a6106af565b6106985f1984846105d0565b805f19048211156106ab576106ab6105bc565b0290505b92915050565b5f61047760ff841683610613565b5f82518060208501845e5f920191825250919050565b5f602082840312156106e9575f80fd5b5051919050565b60ff81811683821601908111156106af576106af6105bc565b60805160a051611f3661073f5f395f61097601525f818161033d0152818161065f015281816106d60152610f100152611f365ff3fe608060405234801561000f575f80fd5b506004361061024a575f3560e01c806379ba509711610140578063ba087652116100bf578063d905777e11610084578063d905777e146104cf578063dd62ed3e146104e2578063e30c39781461051a578063e66f53b71461052b578063ef8b30f71461053e578063f2fde38b14610551575f80fd5b8063ba08765214610483578063c63d75b614610375578063c6e6f59214610496578063ce96cb77146104a9578063d5f39488146104bc575f80fd5b80639c055a66116101055780639c055a661461042f578063a9059cbb14610442578063aa9d3a6014610455578063b3d7f6b91461045d578063b460af9414610470575f80fd5b806379ba509714610405578063872697291461040d5780638da5cb5b1461041657806394bf804d1461039c57806395d89b4114610427575f80fd5b8063313ce567116101cc5780636e553f65116101915780636e553f651461039c57806370a08231146103af578063715018a6146103d7578063745400c9146103df57806379502c55146103f2575f80fd5b8063313ce5671461031957806333fdc5921461033357806338d52e0f1461033b578063402d267d146103755780634cdad50614610389575f80fd5b80630d1e6667116102125780630d1e6667146102c357806316b60249146102d85780631765b313146102eb57806318160ddd146102fe57806323b872dd14610306575f80fd5b806301e1d1141461024e57806306fdde031461026557806307a2d13a1461027a578063095ea7b31461028d5780630a28a477146102b0575b5f80fd5b600b545b6040519081526020015b60405180910390f35b61026d610564565b60405161025c9190611ac2565b610252610288366004611af7565b6105f4565b6102a061029b366004611b22565b61061e565b604051901515815260200161025c565b6102526102be366004611af7565b610635565b6102d66102d1366004611af7565b610641565b005b6102d66102e6366004611af7565b6107d6565b6102d66102f9366004611af7565b6108a0565b600254610252565b6102a0610314366004611b4c565b61094a565b61032161096f565b60405160ff909116815260200161025c565b6102d661099f565b7f00000000000000000000000000000000000000000000000000000000000000005b6040516001600160a01b03909116815260200161025c565b610252610383366004611b8a565b505f1990565b610252610397366004611af7565b610aec565b6102526103aa366004611ba5565b610af7565b6102526103bd366004611b8a565b6001600160a01b03165f9081526020819052604090205490565b6102d6610b11565b6102d66103ed366004611af7565b610b22565b60075461035d906001600160a01b031681565b6102d6610c08565b610252600a5481565b6005546001600160a01b031661035d565b61026d610c4c565b6102d661043d366004611bd3565b610c5b565b6102a0610450366004611b22565b610e0d565b6102d6610e1a565b61025261046b366004611af7565b61100d565b61025261047e366004611c44565b611019565b610252610491366004611c44565b611032565b6102526104a4366004611af7565b61104c565b6102526104b7366004611b8a565b611065565b60095461035d906001600160a01b031681565b6102526104dd366004611b8a565b611087565b6102526104f0366004611c83565b6001600160a01b039182165f90815260016020908152604080832093909416825291909152205490565b6006546001600160a01b031661035d565b60085461035d906001600160a01b031681565b61025261054c366004611af7565b6110a4565b6102d661055f366004611b8a565b6110af565b60606003805461057390611caf565b80601f016020809104026020016040519081016040528092919081815260200182805461059f90611caf565b80156105ea5780601f106105c1576101008083540402835291602001916105ea565b820191905f5260205f20905b8154815290600101906020018083116105cd57829003601f168201915b5050505050905090565b5f6105fd61096f565b60ff16600a548361060e9190611cfb565b6106189190611d26565b92915050565b5f3361062b818585611120565b5060019392505050565b5f610618826001611132565b805f0361069157604051636b30633560e01b81526001600160a01b037f00000000000000000000000000000000000000000000000000000000000000001660048201526024015b60405180910390fd5b5f8061069e600c33611165565b9150915081156106c5576106bf336106b68584611d39565b600c919061118b565b506106d3565b6106d1600c338561118b565b505b5f7f00000000000000000000000000000000000000000000000000000000000000006040516323b872dd60e01b8152336004820152306024820152604481018690526001600160a01b0391909116906323b872dd906064016020604051808303815f875af1158015610747573d5f803e3d5ffd5b505050506040513d601f19601f8201168201806040525081019061076b9190611d4c565b90508061078b576040516312171d8360e31b815260040160405180910390fd5b337f03979a8c481a9e9c06938045cfd5c28535255cb003b10a8fe84ebb3cb4d440f2856107b8600c6111a8565b6040805192835260208301919091520160405180910390a250505050565b60075f9054906101000a90046001600160a01b03166001600160a01b031663348ec5c86040518163ffffffff1660e01b8152600401602060405180830381865afa158015610826573d5f803e3d5ffd5b505050506040513d601f19601f8201168201806040525081019061084a9190611d6b565b6001600160a01b0316336001600160a01b03161461087b5760405163efb380d960e01b815260040160405180910390fd5b805f0361089b57604051634dfba02360e01b815260040160405180910390fd5b600a55565b60075f9054906101000a90046001600160a01b03166001600160a01b031663348ec5c86040518163ffffffff1660e01b8152600401602060405180830381865afa1580156108f0573d5f803e3d5ffd5b505050506040513d601f19601f820116820180604052508101906109149190611d6b565b6001600160a01b0316336001600160a01b0316146109455760405163efb380d960e01b815260040160405180910390fd5b600b55565b5f336109578582856111b2565b61096285858561122e565b60019150505b9392505050565b5f61099a817f0000000000000000000000000000000000000000000000000000000000000000611d86565b905090565b60075f9054906101000a90046001600160a01b03166001600160a01b0316633a0dad8e6040518163ffffffff1660e01b8152600401602060405180830381865afa1580156109ef573d5f803e3d5ffd5b505050506040513d601f19601f82011682018060405250810190610a139190611d6b565b6001600160a01b0316336001600160a01b031614610a4457604051631af2ab4f60e31b815260040160405180910390fd5b610a4c61128b565b5f5b610a58600c6111a8565b811015610ae1575f80610a6c600c846112f8565b915091505f610a7a826110a4565b9050610a87600c84611306565b50610a92838261131a565b60408051838152602081018690526001600160a01b038516917f782ea2005b7f873a0190a1ccb553c732171348d6e16d2b7d3d493c0677dc296e910160405180910390a2505050600101610a4e565b50610aea611352565b565b5f610618825f61137c565b5f6040516318f2e47360e11b815260040160405180910390fd5b610b196113ac565b610aea5f6113d9565b805f03610b42576040516314e6cbb960e11b815260040160405180910390fd5b335f90815260208190526040902054811115610b7157604051633c57b48560e21b815260040160405180910390fd5b5f80610b7e600f33611165565b915091508115610ba557610b9f33610b968584611d39565b600f919061118b565b50610bb3565b610bb1600f338561118b565b505b610bbe33308561122e565b337fd72eb5d043f24a0168ae744d5c44f9596fd673a26bf74d9646bff4b844882d1484610beb600f6111a8565b6040805192835260208301919091520160405180910390a2505050565b60065433906001600160a01b03168114610c405760405163118cdaa760e01b81526001600160a01b0382166004820152602401610688565b610c49816113d9565b50565b60606004805461057390611caf565b6008546001600160a01b03163314610c86576040516356b381a560e01b815260040160405180910390fd5b5f819003610ca757604051631121aa8d60e01b815260040160405180910390fd5b610cb160126113f2565b5f5b81811015610dde575f838383818110610cce57610cce611d9f565b610ce49260206040909202019081019150611b8a565b90505f848484818110610cf957610cf9611d9f565b60075460408051633af32abf60e01b81526001600160a01b03888116600483015293909102949094016020013594501691633af32abf9150602401602060405180830381865afa158015610d4f573d5f803e3d5ffd5b505050506040513d601f19601f82011682018060405250810190610d739190611d4c565b610d9b5760405163751dff9760e11b81526001600160a01b0383166004820152602401610688565b5f610da86012848461118b565b905080610dd3576040516346bdabe160e01b81526001600160a01b0384166004820152602401610688565b505050600101610cb3565b5060405133907f2d47a742b8d7df7c1fc5a9a631b206b364e6cb2722490759f63bb3ab14b132e0905f90a25050565b5f3361062b81858561122e565b60075f9054906101000a90046001600160a01b03166001600160a01b0316633a0dad8e6040518163ffffffff1660e01b8152600401602060405180830381865afa158015610e6a573d5f803e3d5ffd5b505050506040513d601f19601f82011682018060405250810190610e8e9190611d6b565b6001600160a01b0316336001600160a01b031614610ebf57604051631af2ab4f60e31b815260040160405180910390fd5b610ec761128b565b5f5b610ed3600f6111a8565b811015610ae1575f80610ee7600f846112f8565b9092509050610ef7600f83611306565b50610f0230826113fb565b5f610f0c82610aec565b90507f000000000000000000000000000000000000000000000000000000000000000060405163a9059cbb60e01b81526001600160a01b03858116600483015260248201849052919091169063a9059cbb906044016020604051808303815f875af1158015610f7d573d5f803e3d5ffd5b505050506040513d601f19601f82011682018060405250810190610fa19190611d4c565b610fbe576040516312171d8360e31b815260040160405180910390fd5b60408051838152602081018690526001600160a01b038516917febad37b830b1857ef9af5983fc20dc0ded12dc472ba1e22e06fd3a9465b4506c910160405180910390a2505050600101610ec9565b5f61061882600161137c565b5f604051628a595160e01b815260040160405180910390fd5b5f604051630ad8521960e31b815260040160405180910390fd5b5f600a5461105861096f565b61060e9060ff1684611cfb565b6001600160a01b0381165f90815260208190526040812054610618905f61137c565b6001600160a01b0381165f90815260208190526040812054610618565b5f610618825f611132565b6110b76113ac565b600680546001600160a01b0383166001600160a01b031990911681179091556110e86005546001600160a01b031690565b6001600160a01b03167f38d16b8cac22d99fc7c124b9cd0de2d3fa1faef420bfe791d8c362d765e2270060405160405180910390a350565b61112d838383600161142f565b505050565b5f61096861114182600a611e96565b60025461114e9190611d39565b600b5461115c906001611d39565b85919085611501565b5f80808061117c866001600160a01b03871661154c565b909450925050505b9250929050565b5f6111a0846001600160a01b03851684611584565b949350505050565b5f610618826115a0565b6001600160a01b038381165f908152600160209081526040808320938616835292905220545f19811015611228578181101561121a57604051637dc7a0d960e11b81526001600160a01b03841660048201526024810182905260448101839052606401610688565b61122884848484035f61142f565b50505050565b6001600160a01b03831661125757604051634b637e8f60e11b81525f6004820152602401610688565b6001600160a01b0382166112805760405163ec442f0560e01b81525f6004820152602401610688565b61112d8383836115aa565b7f9b779b17422d0df92223018b32b4d1fa46e071723d6817e2486d003becc55f005c156112cb57604051633ee5aeb560e01b815260040160405180910390fd5b610aea60017f9b779b17422d0df92223018b32b4d1fa46e071723d6817e2486d003becc55f005b906116d0565b5f80808061117c86866116d7565b5f610968836001600160a01b038416611700565b6001600160a01b0382166113435760405163ec442f0560e01b81525f6004820152602401610688565b61134e5f83836115aa565b5050565b610aea5f7f9b779b17422d0df92223018b32b4d1fa46e071723d6817e2486d003becc55f006112f2565b5f610968611389600b5490565b611394906001611d39565b61139f5f600a611e96565b60025461115c9190611d39565b6005546001600160a01b03163314610aea5760405163118cdaa760e01b8152336004820152602401610688565b600680546001600160a01b0319169055610c498161171c565b610c498161176d565b6001600160a01b03821661142457604051634b637e8f60e11b81525f6004820152602401610688565b61134e825f836115aa565b6001600160a01b0384166114585760405163e602df0560e01b81525f6004820152602401610688565b6001600160a01b03831661148157604051634a1406b160e11b81525f6004820152602401610688565b6001600160a01b038085165f908152600160209081526040808320938716835292905220829055801561122857826001600160a01b0316846001600160a01b03167f8c5be1e5ebec7d5bd14f71427d1e84f3dd0314c0f7b2291e5b200ac8c7c3b925846040516114f391815260200190565b60405180910390a350505050565b5f61152e61150e836117b6565b801561152957505f848061152457611524611d12565b868809115b151590565b6115398686866117e2565b6115439190611d39565b95945050505050565b5f8181526002830160205260408120548190806115795761156d8585611892565b92505f91506111849050565b600192509050611184565b5f82815260028401602052604081208290556111a0848461189d565b5f610618826118a8565b6001600160a01b0383166115d4578060025f8282546115c99190611d39565b909155506116449050565b6001600160a01b0383165f90815260208190526040902054818110156116265760405163391434e360e21b81526001600160a01b03851660048201526024810182905260448101839052606401610688565b6001600160a01b0384165f9081526020819052604090209082900390555b6001600160a01b0382166116605760028054829003905561167e565b6001600160a01b0382165f9081526020819052604090208054820190555b816001600160a01b0316836001600160a01b03167fddf252ad1be2c89b69c2b068fc378daa952ba7f163c4a11628f55a4df523b3ef836040516116c391815260200190565b60405180910390a3505050565b80825d5050565b5f80806116e485856118b1565b5f81815260029690960160205260409095205494959350505050565b5f818152600283016020526040812081905561096883836118bc565b600580546001600160a01b038381166001600160a01b0319831681179093556040519116919082907f8be0079c531659141344cd1fd0a4f28419497f9722a3daafe3b4186f6b6457e0905f90a35050565b5f611777826115a0565b90505f5b818110156117ac57600283015f61179285846118b1565b815260208101919091526040015f9081205560010161177b565b5061134e826118c7565b5f60028260038111156117cb576117cb611ea4565b6117d59190611eb8565b60ff166001149050919050565b5f805f6117ef86866118d0565b91509150815f036118135783818161180957611809611d12565b0492505050610968565b81841161182a5761182a60038515026011186118ec565b5f848688095f868103871696879004966002600389028118808a02820302808a02820302808a02820302808a02820302808a02820302808a02909103029181900381900460010185841190960395909502919093039390930492909217029150509392505050565b5f61096883836118fd565b5f6109688383611914565b5f610618825490565b5f6109688383611960565b5f6109688383611986565b610c4981611a69565b5f805f1983850993909202808410938190039390930393915050565b634e487b715f52806020526024601cfd5b5f8181526001830160205260408120541515610968565b5f81815260018301602052604081205461195957508154600181810184555f848152602080822090930184905584548482528286019093526040902091909155610618565b505f610618565b5f825f01828154811061197557611975611d9f565b905f5260205f200154905092915050565b5f8181526001830160205260408120548015611a60575f6119a8600183611ed9565b85549091505f906119bb90600190611ed9565b9050808214611a1a575f865f0182815481106119d9576119d9611d9f565b905f5260205f200154905080875f0184815481106119f9576119f9611d9f565b5f918252602080832090910192909255918252600188019052604090208390555b8554869080611a2b57611a2b611eec565b600190038181905f5260205f20015f90559055856001015f8681526020019081526020015f205f905560019350505050610618565b5f915050610618565b5f611a72825490565b90505f5b81811015611abb57826001015f845f018381548110611a9757611a97611d9f565b905f5260205f20015481526020019081526020015f205f9055806001019050611a76565b50505f9055565b602081525f82518060208401528060208501604085015e5f604082850101526040601f19601f83011684010191505092915050565b5f60208284031215611b07575f80fd5b5035919050565b6001600160a01b0381168114610c49575f80fd5b5f8060408385031215611b33575f80fd5b8235611b3e81611b0e565b946020939093013593505050565b5f805f60608486031215611b5e575f80fd5b8335611b6981611b0e565b92506020840135611b7981611b0e565b929592945050506040919091013590565b5f60208284031215611b9a575f80fd5b813561096881611b0e565b5f8060408385031215611bb6575f80fd5b823591506020830135611bc881611b0e565b809150509250929050565b5f8060208385031215611be4575f80fd5b823567ffffffffffffffff811115611bfa575f80fd5b8301601f81018513611c0a575f80fd5b803567ffffffffffffffff811115611c20575f80fd5b8560208260061b8401011115611c34575f80fd5b6020919091019590945092505050565b5f805f60608486031215611c56575f80fd5b833592506020840135611c6881611b0e565b91506040840135611c7881611b0e565b809150509250925092565b5f8060408385031215611c94575f80fd5b8235611c9f81611b0e565b91506020830135611bc881611b0e565b600181811c90821680611cc357607f821691505b602082108103611ce157634e487b7160e01b5f52602260045260245ffd5b50919050565b634e487b7160e01b5f52601160045260245ffd5b808202811582820484141761061857610618611ce7565b634e487b7160e01b5f52601260045260245ffd5b5f82611d3457611d34611d12565b500490565b8082018082111561061857610618611ce7565b5f60208284031215611d5c575f80fd5b81518015158114610968575f80fd5b5f60208284031215611d7b575f80fd5b815161096881611b0e565b60ff818116838216019081111561061857610618611ce7565b634e487b7160e01b5f52603260045260245ffd5b6001815b6001841115611dee57808504811115611dd257611dd2611ce7565b6001841615611de057908102905b60019390931c928002611db7565b935093915050565b5f82611e0457506001610618565b81611e1057505f610618565b8160018114611e265760028114611e3057611e4c565b6001915050610618565b60ff841115611e4157611e41611ce7565b50506001821b610618565b5060208310610133831016604e8410600b8410161715611e6f575081810a610618565b611e7b5f198484611db3565b805f1904821115611e8e57611e8e611ce7565b029392505050565b5f61096860ff841683611df6565b634e487b7160e01b5f52602160045260245ffd5b5f60ff831680611eca57611eca611d12565b8060ff84160691505092915050565b8181038181111561061857610618611ce7565b634e487b7160e01b5f52603160045260245ffdfea2646970667358221220676ffb721528a6e62c1a1f998511651db349485cf7e19b08affe43d527f705f564736f6c634300081a0033",
  "linkReferences": {},
  "deployedLinkReferences": {}
}