{
  "_format": "hh-sol-artifact-1",
  "contractName": "OrionEncryptedVault",
  "sourceName": "contracts/OrionEncryptedVault.sol",
  "abi": [
    {
      "inputs": [
        {
          "internalType": "address",
          "name": "target",
          "type": "address"
        }
      ],
      "name": "AddressEmptyCode",
      "type": "error"
    },
    {
      "inputs": [
        {
          "internalType": "address",
          "name": "asset",
          "type": "address"
        }
      ],
      "name": "AmountMustBeGreaterThanZero",
      "type": "error"
    },
    {
      "inputs": [
        {
          "internalType": "address",
          "name": "implementation",
          "type": "address"
        }
      ],
      "name": "ERC1967InvalidImplementation",
      "type": "error"
    },
    {
      "inputs": [],
      "name": "ERC1967NonPayable",
      "type": "error"
    },
    {
      "inputs": [
        {
          "internalType": "address",
          "name": "spender",
          "type": "address"
        },
        {
          "internalType": "uint256",
          "name": "allowance",
          "type": "uint256"
        },
        {
          "internalType": "uint256",
          "name": "needed",
          "type": "uint256"
        }
      ],
      "name": "ERC20InsufficientAllowance",
      "type": "error"
    },
    {
      "inputs": [
        {
          "internalType": "address",
          "name": "sender",
          "type": "address"
        },
        {
          "internalType": "uint256",
          "name": "balance",
          "type": "uint256"
        },
        {
          "internalType": "uint256",
          "name": "needed",
          "type": "uint256"
        }
      ],
      "name": "ERC20InsufficientBalance",
      "type": "error"
    },
    {
      "inputs": [
        {
          "internalType": "address",
          "name": "approver",
          "type": "address"
        }
      ],
      "name": "ERC20InvalidApprover",
      "type": "error"
    },
    {
      "inputs": [
        {
          "internalType": "address",
          "name": "receiver",
          "type": "address"
        }
      ],
      "name": "ERC20InvalidReceiver",
      "type": "error"
    },
    {
      "inputs": [
        {
          "internalType": "address",
          "name": "sender",
          "type": "address"
        }
      ],
      "name": "ERC20InvalidSender",
      "type": "error"
    },
    {
      "inputs": [
        {
          "internalType": "address",
          "name": "spender",
          "type": "address"
        }
      ],
      "name": "ERC20InvalidSpender",
      "type": "error"
    },
    {
      "inputs": [
        {
          "internalType": "address",
          "name": "receiver",
          "type": "address"
        },
        {
          "internalType": "uint256",
          "name": "assets",
          "type": "uint256"
        },
        {
          "internalType": "uint256",
          "name": "max",
          "type": "uint256"
        }
      ],
      "name": "ERC4626ExceededMaxDeposit",
      "type": "error"
    },
    {
      "inputs": [
        {
          "internalType": "address",
          "name": "receiver",
          "type": "address"
        },
        {
          "internalType": "uint256",
          "name": "shares",
          "type": "uint256"
        },
        {
          "internalType": "uint256",
          "name": "max",
          "type": "uint256"
        }
      ],
      "name": "ERC4626ExceededMaxMint",
      "type": "error"
    },
    {
      "inputs": [
        {
          "internalType": "address",
          "name": "owner",
          "type": "address"
        },
        {
          "internalType": "uint256",
          "name": "shares",
          "type": "uint256"
        },
        {
          "internalType": "uint256",
          "name": "max",
          "type": "uint256"
        }
      ],
      "name": "ERC4626ExceededMaxRedeem",
      "type": "error"
    },
    {
      "inputs": [
        {
          "internalType": "address",
          "name": "owner",
          "type": "address"
        },
        {
          "internalType": "uint256",
          "name": "assets",
          "type": "uint256"
        },
        {
          "internalType": "uint256",
          "name": "max",
          "type": "uint256"
        }
      ],
      "name": "ERC4626ExceededMaxWithdraw",
      "type": "error"
    },
    {
      "inputs": [],
      "name": "FailedCall",
      "type": "error"
    },
    {
      "inputs": [],
      "name": "InvalidConfigAddress",
      "type": "error"
    },
    {
      "inputs": [],
      "name": "InvalidCuratorAddress",
      "type": "error"
    },
    {
      "inputs": [],
      "name": "InvalidInitialization",
      "type": "error"
    },
    {
      "inputs": [],
      "name": "NotCurator",
      "type": "error"
    },
    {
      "inputs": [],
      "name": "NotEnoughDepositRequest",
      "type": "error"
    },
    {
      "inputs": [],
      "name": "NotEnoughShares",
      "type": "error"
    },
    {
      "inputs": [],
      "name": "NotInitializing",
      "type": "error"
    },
    {
      "inputs": [],
      "name": "NotInternalStatesOrchestrator",
      "type": "error"
    },
    {
      "inputs": [],
      "name": "NotLiquidityOrchestrator",
      "type": "error"
    },
    {
      "inputs": [],
      "name": "OrderIntentCannotBeEmpty",
      "type": "error"
    },
    {
      "inputs": [
        {
          "internalType": "address",
          "name": "owner",
          "type": "address"
        }
      ],
      "name": "OwnableInvalidOwner",
      "type": "error"
    },
    {
      "inputs": [
        {
          "internalType": "address",
          "name": "account",
          "type": "address"
        }
      ],
      "name": "OwnableUnauthorizedAccount",
      "type": "error"
    },
    {
      "inputs": [],
      "name": "ReentrancyGuardReentrantCall",
      "type": "error"
    },
    {
      "inputs": [],
      "name": "SharesMustBeGreaterThanZero",
      "type": "error"
    },
    {
      "inputs": [],
      "name": "SynchronousDepositsDisabled",
      "type": "error"
    },
    {
      "inputs": [],
      "name": "SynchronousRedemptionsDisabled",
      "type": "error"
    },
    {
      "inputs": [],
      "name": "SynchronousWithdrawalsDisabled",
      "type": "error"
    },
    {
      "inputs": [
        {
          "internalType": "address",
          "name": "token",
          "type": "address"
        }
      ],
      "name": "TokenAlreadyInOrder",
      "type": "error"
    },
    {
      "inputs": [
        {
          "internalType": "address",
          "name": "token",
          "type": "address"
        }
      ],
      "name": "TokenNotWhitelisted",
      "type": "error"
    },
    {
      "inputs": [],
      "name": "TransferFailed",
      "type": "error"
    },
    {
      "inputs": [],
      "name": "UUPSUnauthorizedCallContext",
      "type": "error"
    },
    {
      "inputs": [
        {
          "internalType": "bytes32",
          "name": "slot",
          "type": "bytes32"
        }
      ],
      "name": "UUPSUnsupportedProxiableUUID",
      "type": "error"
    },
    {
      "inputs": [],
      "name": "ZeroPrice",
      "type": "error"
    },
    {
      "anonymous": false,
      "inputs": [
        {
          "indexed": true,
          "internalType": "address",
          "name": "owner",
          "type": "address"
        },
        {
          "indexed": true,
          "internalType": "address",
          "name": "spender",
          "type": "address"
        },
        {
          "indexed": false,
          "internalType": "uint256",
          "name": "value",
          "type": "uint256"
        }
      ],
      "name": "Approval",
      "type": "event"
    },
    {
      "anonymous": false,
      "inputs": [
        {
          "indexed": true,
          "internalType": "address",
          "name": "sender",
          "type": "address"
        },
        {
          "indexed": true,
          "internalType": "address",
          "name": "owner",
          "type": "address"
        },
        {
          "indexed": false,
          "internalType": "uint256",
          "name": "assets",
          "type": "uint256"
        },
        {
          "indexed": false,
          "internalType": "uint256",
          "name": "shares",
          "type": "uint256"
        }
      ],
      "name": "Deposit",
      "type": "event"
    },
    {
      "anonymous": false,
      "inputs": [
        {
          "indexed": true,
          "internalType": "address",
          "name": "user",
          "type": "address"
        },
        {
          "indexed": false,
          "internalType": "uint256",
          "name": "amount",
          "type": "uint256"
        },
        {
          "indexed": false,
          "internalType": "uint256",
          "name": "requestId",
          "type": "uint256"
        }
      ],
      "name": "DepositProcessed",
      "type": "event"
    },
    {
      "anonymous": false,
      "inputs": [
        {
          "indexed": true,
          "internalType": "address",
          "name": "user",
          "type": "address"
        },
        {
          "indexed": false,
          "internalType": "uint256",
          "name": "amount",
          "type": "uint256"
        },
        {
          "indexed": false,
          "internalType": "uint256",
          "name": "requestId",
          "type": "uint256"
        }
      ],
      "name": "DepositRequestWithdrawn",
      "type": "event"
    },
    {
      "anonymous": false,
      "inputs": [
        {
          "indexed": true,
          "internalType": "address",
          "name": "user",
          "type": "address"
        },
        {
          "indexed": false,
          "internalType": "uint256",
          "name": "amount",
          "type": "uint256"
        },
        {
          "indexed": false,
          "internalType": "uint256",
          "name": "requestId",
          "type": "uint256"
        }
      ],
      "name": "DepositRequested",
      "type": "event"
    },
    {
      "anonymous": false,
      "inputs": [
        {
          "indexed": false,
          "internalType": "uint64",
          "name": "version",
          "type": "uint64"
        }
      ],
      "name": "Initialized",
      "type": "event"
    },
    {
      "anonymous": false,
      "inputs": [
        {
          "indexed": true,
          "internalType": "address",
          "name": "curator",
          "type": "address"
        }
      ],
      "name": "OrderSubmitted",
      "type": "event"
    },
    {
      "anonymous": false,
      "inputs": [
        {
          "indexed": true,
          "internalType": "address",
          "name": "previousOwner",
          "type": "address"
        },
        {
          "indexed": true,
          "internalType": "address",
          "name": "newOwner",
          "type": "address"
        }
      ],
      "name": "OwnershipTransferStarted",
      "type": "event"
    },
    {
      "anonymous": false,
      "inputs": [
        {
          "indexed": true,
          "internalType": "address",
          "name": "previousOwner",
          "type": "address"
        },
        {
          "indexed": true,
          "internalType": "address",
          "name": "newOwner",
          "type": "address"
        }
      ],
      "name": "OwnershipTransferred",
      "type": "event"
    },
    {
      "anonymous": false,
      "inputs": [
        {
          "indexed": true,
          "internalType": "address",
          "name": "from",
          "type": "address"
        },
        {
          "indexed": true,
          "internalType": "address",
          "name": "to",
          "type": "address"
        },
        {
          "indexed": false,
          "internalType": "uint256",
          "name": "value",
          "type": "uint256"
        }
      ],
      "name": "Transfer",
      "type": "event"
    },
    {
      "anonymous": false,
      "inputs": [
        {
          "indexed": true,
          "internalType": "address",
          "name": "implementation",
          "type": "address"
        }
      ],
      "name": "Upgraded",
      "type": "event"
    },
    {
      "anonymous": false,
      "inputs": [
        {
          "indexed": false,
          "internalType": "uint256",
          "name": "newSharePrice",
          "type": "uint256"
        },
        {
          "indexed": false,
          "internalType": "uint256",
          "name": "newTotalAssets",
          "type": "uint256"
        },
        {
          "indexed": false,
          "internalType": "uint256",
          "name": "pnlAmount",
          "type": "uint256"
        }
      ],
      "name": "VaultStateUpdated",
      "type": "event"
    },
    {
      "anonymous": false,
      "inputs": [
        {
          "indexed": true,
          "internalType": "address",
          "name": "sender",
          "type": "address"
        },
        {
          "indexed": true,
          "internalType": "address",
          "name": "receiver",
          "type": "address"
        },
        {
          "indexed": true,
          "internalType": "address",
          "name": "owner",
          "type": "address"
        },
        {
          "indexed": false,
          "internalType": "uint256",
          "name": "assets",
          "type": "uint256"
        },
        {
          "indexed": false,
          "internalType": "uint256",
          "name": "shares",
          "type": "uint256"
        }
      ],
      "name": "Withdraw",
      "type": "event"
    },
    {
      "anonymous": false,
      "inputs": [
        {
          "indexed": true,
          "internalType": "address",
          "name": "user",
          "type": "address"
        },
        {
          "indexed": false,
          "internalType": "uint256",
          "name": "shares",
          "type": "uint256"
        },
        {
          "indexed": false,
          "internalType": "uint256",
          "name": "requestId",
          "type": "uint256"
        }
      ],
      "name": "WithdrawProcessed",
      "type": "event"
    },
    {
      "anonymous": false,
      "inputs": [
        {
          "indexed": true,
          "internalType": "address",
          "name": "user",
          "type": "address"
        },
        {
          "indexed": false,
          "internalType": "uint256",
          "name": "shares",
          "type": "uint256"
        },
        {
          "indexed": false,
          "internalType": "uint256",
          "name": "requestId",
          "type": "uint256"
        }
      ],
      "name": "WithdrawRequested",
      "type": "event"
    },
    {
      "inputs": [],
      "name": "UPGRADE_INTERFACE_VERSION",
      "outputs": [
        {
          "internalType": "string",
          "name": "",
          "type": "string"
        }
      ],
      "stateMutability": "view",
      "type": "function"
    },
    {
      "inputs": [],
      "name": "acceptOwnership",
      "outputs": [],
      "stateMutability": "nonpayable",
      "type": "function"
    },
    {
      "inputs": [
        {
          "internalType": "address",
          "name": "owner",
          "type": "address"
        },
        {
          "internalType": "address",
          "name": "spender",
          "type": "address"
        }
      ],
      "name": "allowance",
      "outputs": [
        {
          "internalType": "uint256",
          "name": "",
          "type": "uint256"
        }
      ],
      "stateMutability": "view",
      "type": "function"
    },
    {
      "inputs": [
        {
          "internalType": "address",
          "name": "spender",
          "type": "address"
        },
        {
          "internalType": "uint256",
          "name": "value",
          "type": "uint256"
        }
      ],
      "name": "approve",
      "outputs": [
        {
          "internalType": "bool",
          "name": "",
          "type": "bool"
        }
      ],
      "stateMutability": "nonpayable",
      "type": "function"
    },
    {
      "inputs": [],
      "name": "asset",
      "outputs": [
        {
          "internalType": "address",
          "name": "",
          "type": "address"
        }
      ],
      "stateMutability": "view",
      "type": "function"
    },
    {
      "inputs": [
        {
          "internalType": "address",
          "name": "account",
          "type": "address"
        }
      ],
      "name": "balanceOf",
      "outputs": [
        {
          "internalType": "uint256",
          "name": "",
          "type": "uint256"
        }
      ],
      "stateMutability": "view",
      "type": "function"
    },
    {
      "inputs": [],
      "name": "config",
      "outputs": [
        {
          "internalType": "contract IOrionConfig",
          "name": "",
          "type": "address"
        }
      ],
      "stateMutability": "view",
      "type": "function"
    },
    {
      "inputs": [
        {
          "internalType": "uint256",
          "name": "shares",
          "type": "uint256"
        }
      ],
      "name": "convertToAssets",
      "outputs": [
        {
          "internalType": "uint256",
          "name": "",
          "type": "uint256"
        }
      ],
      "stateMutability": "view",
      "type": "function"
    },
    {
      "inputs": [
        {
          "internalType": "uint256",
          "name": "assets",
          "type": "uint256"
        }
      ],
      "name": "convertToShares",
      "outputs": [
        {
          "internalType": "uint256",
          "name": "",
          "type": "uint256"
        }
      ],
      "stateMutability": "view",
      "type": "function"
    },
    {
      "inputs": [],
      "name": "curator",
      "outputs": [
        {
          "internalType": "address",
          "name": "",
          "type": "address"
        }
      ],
      "stateMutability": "view",
      "type": "function"
    },
    {
      "inputs": [],
      "name": "decimals",
      "outputs": [
        {
          "internalType": "uint8",
          "name": "",
          "type": "uint8"
        }
      ],
      "stateMutability": "view",
      "type": "function"
    },
    {
      "inputs": [],
      "name": "deployer",
      "outputs": [
        {
          "internalType": "address",
          "name": "",
          "type": "address"
        }
      ],
      "stateMutability": "view",
      "type": "function"
    },
    {
      "inputs": [
        {
          "internalType": "uint256",
          "name": "",
          "type": "uint256"
        },
        {
          "internalType": "address",
          "name": "",
          "type": "address"
        }
      ],
      "name": "deposit",
      "outputs": [
        {
          "internalType": "uint256",
          "name": "",
          "type": "uint256"
        }
      ],
      "stateMutability": "pure",
      "type": "function"
    },
    {
      "inputs": [],
      "name": "getPendingDeposits",
      "outputs": [
        {
          "internalType": "uint256",
          "name": "",
          "type": "uint256"
        }
      ],
      "stateMutability": "view",
      "type": "function"
    },
    {
      "inputs": [],
      "name": "getPendingWithdrawals",
      "outputs": [
        {
          "internalType": "uint256",
          "name": "",
          "type": "uint256"
        }
      ],
      "stateMutability": "view",
      "type": "function"
    },
    {
      "inputs": [
        {
          "internalType": "address",
          "name": "_curator",
          "type": "address"
        },
        {
          "internalType": "contract IOrionConfig",
          "name": "_config",
          "type": "address"
        },
        {
          "internalType": "string",
          "name": "_name",
          "type": "string"
        },
        {
          "internalType": "string",
          "name": "_symbol",
          "type": "string"
        }
      ],
      "name": "initialize",
      "outputs": [],
      "stateMutability": "nonpayable",
      "type": "function"
    },
    {
      "inputs": [
        {
          "internalType": "address",
          "name": "",
          "type": "address"
        }
      ],
      "name": "maxDeposit",
      "outputs": [
        {
          "internalType": "uint256",
          "name": "",
          "type": "uint256"
        }
      ],
      "stateMutability": "view",
      "type": "function"
    },
    {
      "inputs": [
        {
          "internalType": "address",
          "name": "",
          "type": "address"
        }
      ],
      "name": "maxMint",
      "outputs": [
        {
          "internalType": "uint256",
          "name": "",
          "type": "uint256"
        }
      ],
      "stateMutability": "view",
      "type": "function"
    },
    {
      "inputs": [
        {
          "internalType": "address",
          "name": "owner",
          "type": "address"
        }
      ],
      "name": "maxRedeem",
      "outputs": [
        {
          "internalType": "uint256",
          "name": "",
          "type": "uint256"
        }
      ],
      "stateMutability": "view",
      "type": "function"
    },
    {
      "inputs": [
        {
          "internalType": "address",
          "name": "owner",
          "type": "address"
        }
      ],
      "name": "maxWithdraw",
      "outputs": [
        {
          "internalType": "uint256",
          "name": "",
          "type": "uint256"
        }
      ],
      "stateMutability": "view",
      "type": "function"
    },
    {
      "inputs": [
        {
          "internalType": "uint256",
          "name": "",
          "type": "uint256"
        },
        {
          "internalType": "address",
          "name": "",
          "type": "address"
        }
      ],
      "name": "mint",
      "outputs": [
        {
          "internalType": "uint256",
          "name": "",
          "type": "uint256"
        }
      ],
      "stateMutability": "pure",
      "type": "function"
    },
    {
      "inputs": [],
      "name": "name",
      "outputs": [
        {
          "internalType": "string",
          "name": "",
          "type": "string"
        }
      ],
      "stateMutability": "view",
      "type": "function"
    },
    {
      "inputs": [],
      "name": "owner",
      "outputs": [
        {
          "internalType": "address",
          "name": "",
          "type": "address"
        }
      ],
      "stateMutability": "view",
      "type": "function"
    },
    {
      "inputs": [],
      "name": "pendingOwner",
      "outputs": [
        {
          "internalType": "address",
          "name": "",
          "type": "address"
        }
      ],
      "stateMutability": "view",
      "type": "function"
    },
    {
      "inputs": [
        {
          "internalType": "uint256",
          "name": "assets",
          "type": "uint256"
        }
      ],
      "name": "previewDeposit",
      "outputs": [
        {
          "internalType": "uint256",
          "name": "",
          "type": "uint256"
        }
      ],
      "stateMutability": "view",
      "type": "function"
    },
    {
      "inputs": [
        {
          "internalType": "uint256",
          "name": "shares",
          "type": "uint256"
        }
      ],
      "name": "previewMint",
      "outputs": [
        {
          "internalType": "uint256",
          "name": "",
          "type": "uint256"
        }
      ],
      "stateMutability": "view",
      "type": "function"
    },
    {
      "inputs": [
        {
          "internalType": "uint256",
          "name": "shares",
          "type": "uint256"
        }
      ],
      "name": "previewRedeem",
      "outputs": [
        {
          "internalType": "uint256",
          "name": "",
          "type": "uint256"
        }
      ],
      "stateMutability": "view",
      "type": "function"
    },
    {
      "inputs": [
        {
          "internalType": "uint256",
          "name": "assets",
          "type": "uint256"
        }
      ],
      "name": "previewWithdraw",
      "outputs": [
        {
          "internalType": "uint256",
          "name": "",
          "type": "uint256"
        }
      ],
      "stateMutability": "view",
      "type": "function"
    },
    {
      "inputs": [],
      "name": "processDepositRequests",
      "outputs": [],
      "stateMutability": "nonpayable",
      "type": "function"
    },
    {
      "inputs": [],
      "name": "processWithdrawRequests",
      "outputs": [],
      "stateMutability": "nonpayable",
      "type": "function"
    },
    {
      "inputs": [],
      "name": "proxiableUUID",
      "outputs": [
        {
          "internalType": "bytes32",
          "name": "",
          "type": "bytes32"
        }
      ],
      "stateMutability": "view",
      "type": "function"
    },
    {
      "inputs": [
        {
          "internalType": "uint256",
          "name": "",
          "type": "uint256"
        },
        {
          "internalType": "address",
          "name": "",
          "type": "address"
        },
        {
          "internalType": "address",
          "name": "",
          "type": "address"
        }
      ],
      "name": "redeem",
      "outputs": [
        {
          "internalType": "uint256",
          "name": "",
          "type": "uint256"
        }
      ],
      "stateMutability": "pure",
      "type": "function"
    },
    {
      "inputs": [],
      "name": "renounceOwnership",
      "outputs": [],
      "stateMutability": "nonpayable",
      "type": "function"
    },
    {
      "inputs": [
        {
          "internalType": "uint256",
          "name": "amount",
          "type": "uint256"
        }
      ],
      "name": "requestDeposit",
      "outputs": [],
      "stateMutability": "nonpayable",
      "type": "function"
    },
    {
      "inputs": [
        {
          "internalType": "uint256",
          "name": "shares",
          "type": "uint256"
        }
      ],
      "name": "requestWithdraw",
      "outputs": [],
      "stateMutability": "nonpayable",
      "type": "function"
    },
    {
      "inputs": [
        {
          "internalType": "uint256",
          "name": "newPrice",
          "type": "uint256"
        }
      ],
      "name": "setSharePrice",
      "outputs": [],
      "stateMutability": "nonpayable",
      "type": "function"
    },
    {
      "inputs": [
        {
          "internalType": "uint256",
          "name": "newTotalAssets",
          "type": "uint256"
        }
      ],
      "name": "setTotalAssets",
      "outputs": [],
      "stateMutability": "nonpayable",
      "type": "function"
    },
    {
      "inputs": [],
      "name": "sharePrice",
      "outputs": [
        {
          "internalType": "uint256",
          "name": "",
          "type": "uint256"
        }
      ],
      "stateMutability": "view",
      "type": "function"
    },
    {
      "inputs": [
        {
          "components": [
            {
              "internalType": "address",
              "name": "token",
              "type": "address"
            },
            {
              "internalType": "euint32",
              "name": "amount",
              "type": "uint256"
            }
          ],
          "internalType": "struct IOrionEncryptedVault.Order[]",
          "name": "order",
          "type": "tuple[]"
        }
      ],
      "name": "submitOrderIntent",
      "outputs": [],
      "stateMutability": "nonpayable",
      "type": "function"
    },
    {
      "inputs": [],
      "name": "symbol",
      "outputs": [
        {
          "internalType": "string",
          "name": "",
          "type": "string"
        }
      ],
      "stateMutability": "view",
      "type": "function"
    },
    {
      "inputs": [],
      "name": "totalAssets",
      "outputs": [
        {
          "internalType": "uint256",
          "name": "",
          "type": "uint256"
        }
      ],
      "stateMutability": "view",
      "type": "function"
    },
    {
      "inputs": [],
      "name": "totalSupply",
      "outputs": [
        {
          "internalType": "uint256",
          "name": "",
          "type": "uint256"
        }
      ],
      "stateMutability": "view",
      "type": "function"
    },
    {
      "inputs": [
        {
          "internalType": "address",
          "name": "to",
          "type": "address"
        },
        {
          "internalType": "uint256",
          "name": "value",
          "type": "uint256"
        }
      ],
      "name": "transfer",
      "outputs": [
        {
          "internalType": "bool",
          "name": "",
          "type": "bool"
        }
      ],
      "stateMutability": "nonpayable",
      "type": "function"
    },
    {
      "inputs": [
        {
          "internalType": "address",
          "name": "from",
          "type": "address"
        },
        {
          "internalType": "address",
          "name": "to",
          "type": "address"
        },
        {
          "internalType": "uint256",
          "name": "value",
          "type": "uint256"
        }
      ],
      "name": "transferFrom",
      "outputs": [
        {
          "internalType": "bool",
          "name": "",
          "type": "bool"
        }
      ],
      "stateMutability": "nonpayable",
      "type": "function"
    },
    {
      "inputs": [
        {
          "internalType": "address",
          "name": "newOwner",
          "type": "address"
        }
      ],
      "name": "transferOwnership",
      "outputs": [],
      "stateMutability": "nonpayable",
      "type": "function"
    },
    {
      "inputs": [
        {
          "internalType": "uint256",
          "name": "newSharePrice",
          "type": "uint256"
        },
        {
          "internalType": "uint256",
          "name": "newTotalAssets",
          "type": "uint256"
        },
        {
          "internalType": "uint256",
          "name": "pnlAmount",
          "type": "uint256"
        }
      ],
      "name": "updateVaultState",
      "outputs": [],
      "stateMutability": "nonpayable",
      "type": "function"
    },
    {
      "inputs": [
        {
          "internalType": "address",
          "name": "newImplementation",
          "type": "address"
        },
        {
          "internalType": "bytes",
          "name": "data",
          "type": "bytes"
        }
      ],
      "name": "upgradeToAndCall",
      "outputs": [],
      "stateMutability": "payable",
      "type": "function"
    },
    {
      "inputs": [
        {
          "internalType": "uint256",
          "name": "",
          "type": "uint256"
        },
        {
          "internalType": "address",
          "name": "",
          "type": "address"
        },
        {
          "internalType": "address",
          "name": "",
          "type": "address"
        }
      ],
      "name": "withdraw",
      "outputs": [
        {
          "internalType": "uint256",
          "name": "",
          "type": "uint256"
        }
      ],
      "stateMutability": "pure",
      "type": "function"
    },
    {
      "inputs": [
        {
          "internalType": "uint256",
          "name": "amount",
          "type": "uint256"
        }
      ],
      "name": "withdrawDepositRequest",
      "outputs": [],
      "stateMutability": "nonpayable",
      "type": "function"
    }
  ],
  "bytecode": "0x60a06040523073ffffffffffffffffffffffffffffffffffffffff1660809073ffffffffffffffffffffffffffffffffffffffff168152503480156041575f80fd5b506080516168346100685f395f818161422001528181614275015261456101526168345ff3fe6080604052600436106102ad575f3560e01c806379ba509711610174578063c37fc8a8116100db578063d5f3948811610094578063e30c39781161006e578063e30c397814610ae9578063e66f53b714610b13578063ef8b30f714610b3d578063f2fde38b14610b79576102ad565b8063d5f3948814610a47578063d905777e14610a71578063dd62ed3e14610aad576102ad565b8063c37fc8a814610917578063c38fe2f214610941578063c63d75b614610969578063c6e6f592146109a5578063ce96cb77146109e1578063d1699c2614610a1d576102ad565b8063a9059cbb1161012d578063a9059cbb146107e7578063aa9d3a6014610823578063ad3cb1cc14610839578063b3d7f6b914610863578063b460af941461089f578063ba087652146108db576102ad565b806379ba5097146106ef57806387269729146107055780638da5cb5b1461072f57806394bf804d1461075957806395d89b41146107955780639c055a66146107bf576102ad565b806333fdc5921161021857806352d1902d116101d157806352d1902d146105e55780636e553f651461060f57806370a082311461064b578063715018a614610687578063745400c91461069d57806379502c55146106c5576102ad565b806333fdc592146104e957806338d52e0f146104ff578063402d267d146105295780634368eb1c146105655780634cdad5061461058d5780634f1ef286146105c9576102ad565b806316b602491161026a57806316b60249146103e15780631765b3131461040957806318160ddd146104315780632016a0d21461045b57806323b872dd14610483578063313ce567146104bf576102ad565b806301e1d114146102b157806306fdde03146102db57806307a2d13a14610305578063095ea7b3146103415780630a28a4771461037d5780630d1e6667146103b9575b5f80fd5b3480156102bc575f80fd5b506102c5610ba1565b6040516102d29190615687565b60405180910390f35b3480156102e6575f80fd5b506102ef610be6565b6040516102fc9190615710565b60405180910390f35b348015610310575f80fd5b5061032b6004803603810190610326919061576b565b610c84565b6040516103389190615687565b60405180910390f35b34801561034c575f80fd5b50610367600480360381019061036291906157f0565b610ceb565b6040516103749190615848565b60405180910390f35b348015610388575f80fd5b506103a3600480360381019061039e919061576b565b610d0d565b6040516103b09190615687565b60405180910390f35b3480156103c4575f80fd5b506103df60048036038101906103da919061576b565b610d20565b005b3480156103ec575f80fd5b506104076004803603810190610402919061576b565b61110f565b005b348015610414575f80fd5b5061042f600480360381019061042a919061576b565b61135a565b005b34801561043c575f80fd5b5061044561151c565b6040516104529190615687565b60405180910390f35b348015610466575f80fd5b50610481600480360381019061047c91906159c8565b611533565b005b34801561048e575f80fd5b506104a960048036038101906104a49190615a64565b61171d565b6040516104b69190615848565b60405180910390f35b3480156104ca575f80fd5b506104d361174b565b6040516104e09190615acf565b60405180910390f35b3480156104f4575f80fd5b506104fd611780565b005b34801561050a575f80fd5b50610513611bd5565b6040516105209190615af7565b60405180910390f35b348015610534575f80fd5b5061054f600480360381019061054a9190615b10565b611c0a565b60405161055c9190615687565b60405180910390f35b348015610570575f80fd5b5061058b6004803603810190610586919061576b565b611c33565b005b348015610598575f80fd5b506105b360048036038101906105ae919061576b565b611fc5565b6040516105c09190615687565b60405180910390f35b6105e360048036038101906105de9190615bd9565b611fd7565b005b3480156105f0575f80fd5b506105f9611ff6565b6040516106069190615c4b565b60405180910390f35b34801561061a575f80fd5b5061063560048036038101906106309190615c64565b612027565b6040516106429190615687565b60405180910390f35b348015610656575f80fd5b50610671600480360381019061066c9190615b10565b612082565b60405161067e9190615687565b60405180910390f35b348015610692575f80fd5b5061069b6120d5565b005b3480156106a8575f80fd5b506106c360048036038101906106be919061576b565b6120e8565b005b3480156106d0575f80fd5b506106d9612453565b6040516106e69190615cfd565b60405180910390f35b3480156106fa575f80fd5b50610703612476565b005b348015610710575f80fd5b50610719612504565b6040516107269190615687565b60405180910390f35b34801561073a575f80fd5b5061074361250a565b6040516107509190615af7565b60405180910390f35b348015610764575f80fd5b5061077f600480360381019061077a9190615c64565b61253f565b60405161078c9190615687565b60405180910390f35b3480156107a0575f80fd5b506107a961259a565b6040516107b69190615710565b60405180910390f35b3480156107ca575f80fd5b506107e560048036038101906107e09190615d73565b612638565b005b3480156107f2575f80fd5b5061080d600480360381019061080891906157f0565b612b7d565b60405161081a9190615848565b60405180910390f35b34801561082e575f80fd5b50610837612b9f565b005b348015610844575f80fd5b5061084d6130fc565b60405161085a9190615710565b60405180910390f35b34801561086e575f80fd5b506108896004803603810190610884919061576b565b613135565b6040516108969190615687565b60405180910390f35b3480156108aa575f80fd5b506108c560048036038101906108c09190615dbe565b613148565b6040516108d29190615687565b60405180910390f35b3480156108e6575f80fd5b5061090160048036038101906108fc9190615dbe565b6131a2565b60405161090e9190615687565b60405180910390f35b348015610922575f80fd5b5061092b6131fd565b6040516109389190615687565b60405180910390f35b34801561094c575f80fd5b5061096760048036038101906109629190615e0e565b613349565b005b348015610974575f80fd5b5061098f600480360381019061098a9190615b10565b613614565b60405161099c9190615687565b60405180910390f35b3480156109b0575f80fd5b506109cb60048036038101906109c6919061576b565b61363d565b6040516109d89190615687565b60405180910390f35b3480156109ec575f80fd5b50610a076004803603810190610a029190615b10565b6136a4565b604051610a149190615687565b60405180910390f35b348015610a28575f80fd5b50610a316136be565b604051610a3e9190615687565b60405180910390f35b348015610a52575f80fd5b50610a5b61380a565b604051610a689190615af7565b60405180910390f35b348015610a7c575f80fd5b50610a976004803603810190610a929190615b10565b61382f565b604051610aa49190615687565b60405180910390f35b348015610ab8575f80fd5b50610ad36004803603810190610ace9190615e5e565b613840565b604051610ae09190615687565b60405180910390f35b348015610af4575f80fd5b50610afd6138d0565b604051610b0a9190615af7565b60405180910390f35b348015610b1e575f80fd5b50610b27613905565b604051610b349190615af7565b60405180910390f35b348015610b48575f80fd5b50610b636004803603810190610b5e919061576b565b61392a565b604051610b709190615687565b60405180910390f35b348015610b84575f80fd5b50610b9f6004803603810190610b9a9190615b10565b61393c565b005b5f610bb667db543cba34aca07360c01b6139f5565b610bca671983f8956c9fc53460c01b6139f5565b610bde671997b5c5eae6c0ee60c01b6139f5565b600454905090565b60605f610bf16139f8565b9050806003018054610c0290615ec9565b80601f0160208091040260200160405190810160405280929190818152602001828054610c2e90615ec9565b8015610c795780601f10610c5057610100808354040283529160200191610c79565b820191905f5260205f20905b815481529060010190602001808311610c5c57829003601f168201915b505050505091505090565b5f610c99677a8a366ce6b032bd60c01b6139f5565b610cad67a2182fca66d90fa060c01b6139f5565b610cc167c869f9dfae63a9a460c01b6139f5565b610cc961174b565b60ff1660035483610cda9190615f26565b610ce49190615f94565b9050919050565b5f80610cf5613a1f565b9050610d02818585613a26565b600191505092915050565b5f610d19826001613a38565b9050919050565b610d3467877609102ab54af460c01b6139f5565b610d4867538aafbf85ebdca460c01b6139f5565b610d5c6770a311dff1c4cfbe60c01b6139f5565b5f8103610dbb57610d77673fac88c07786646b60c01b6139f5565b610d7f611bd5565b6040517f6b306335000000000000000000000000000000000000000000000000000000008152600401610db29190615af7565b60405180910390fd5b610dcf67c591008462d55ef560c01b6139f5565b610de36707821b79679b5f5260c01b6139f5565b610df7672e487b99f28d646f60c01b6139f5565b5f60055f3373ffffffffffffffffffffffffffffffffffffffff1673ffffffffffffffffffffffffffffffffffffffff1681526020019081526020015f205403610edc57610e4f673e94b3350a8b298760c01b6139f5565b610e6367199d008e702fca1960c01b6139f5565b610e7767ad5184a2b969346d60c01b6139f5565b600733908060018154018082558091505060019003905f5260205f20015f9091909190916101000a81548173ffffffffffffffffffffffffffffffffffffffff021916908373ffffffffffffffffffffffffffffffffffffffff160217905550610ef1565b610ef06791656154b8a0340860c01b6139f5565b5b610f0567209288b06be590ec60c01b6139f5565b8060055f3373ffffffffffffffffffffffffffffffffffffffff1673ffffffffffffffffffffffffffffffffffffffff1681526020019081526020015f205f828254610f519190615fc4565b92505081905550610f6c67ce1209030f694e1260c01b6139f5565b610f80676a89708a745f3a0460c01b6139f5565b5f610f89611bd5565b73ffffffffffffffffffffffffffffffffffffffff166323b872dd3330856040518463ffffffff1660e01b8152600401610fc593929190615ff7565b6020604051808303815f875af1158015610fe1573d5f803e3d5ffd5b505050506040513d601f19601f820116820180604052508101906110059190616056565b905061101b67cbcc2fabe87a478360c01b6139f5565b61102f678bc9085a3a62405260c01b6139f5565b8061107a5761104867fb65868c4432e9e660c01b6139f5565b6040517f90b8ec1800000000000000000000000000000000000000000000000000000000815260040160405180910390fd5b61108e67b6ba14f181e1954660c01b6139f5565b6110a2670dc63d26ff62803d60c01b6139f5565b6110b667955933c9786cd44060c01b6139f5565b3373ffffffffffffffffffffffffffffffffffffffff167f03979a8c481a9e9c06938045cfd5c28535255cb003b10a8fe84ebb3cb4d440f283600780549050604051611103929190616081565b60405180910390a25050565b61112367353b6c62823cd03f60c01b6139f5565b61113767e523754b5d09b7a860c01b6139f5565b61114b67a1102dc44e3f7f1360c01b6139f5565b61115f675444ea6b4a3ab96160c01b6139f5565b5f8054906101000a900473ffffffffffffffffffffffffffffffffffffffff1673ffffffffffffffffffffffffffffffffffffffff1663348ec5c86040518163ffffffff1660e01b8152600401602060405180830381865afa1580156111c7573d5f803e3d5ffd5b505050506040513d601f19601f820116820180604052508101906111eb91906160bc565b73ffffffffffffffffffffffffffffffffffffffff163373ffffffffffffffffffffffffffffffffffffffff161461126357611231671323b484c3195acd60c01b6139f5565b6040517fefb380d900000000000000000000000000000000000000000000000000000000815260040160405180910390fd5b6112776794070c01b2d9dbc960c01b6139f5565b61128b6726ed3605e83d19cc60c01b6139f5565b61129f67d58352b10b73862960c01b6139f5565b6112b367f439fc603161bc1460c01b6139f5565b6112c7679bbeb7fec603f14660c01b6139f5565b6112db67516af330a0417e0060c01b6139f5565b5f8103611328576112f667dcdb33645b95a34260c01b6139f5565b6040517f4dfba02300000000000000000000000000000000000000000000000000000000815260040160405180910390fd5b61133c67c03c10387fb2e14760c01b6139f5565b61135067d1231cb0992939e460c01b6139f5565b8060038190555050565b61136e676c19df5b1f1970f460c01b6139f5565b61138267e523754b5d09b7a860c01b6139f5565b61139667a1102dc44e3f7f1360c01b6139f5565b6113aa675444ea6b4a3ab96160c01b6139f5565b5f8054906101000a900473ffffffffffffffffffffffffffffffffffffffff1673ffffffffffffffffffffffffffffffffffffffff1663348ec5c86040518163ffffffff1660e01b8152600401602060405180830381865afa158015611412573d5f803e3d5ffd5b505050506040513d601f19601f8201168201806040525081019061143691906160bc565b73ffffffffffffffffffffffffffffffffffffffff163373ffffffffffffffffffffffffffffffffffffffff16146114ae5761147c671323b484c3195acd60c01b6139f5565b6040517fefb380d900000000000000000000000000000000000000000000000000000000815260040160405180910390fd5b6114c26794070c01b2d9dbc960c01b6139f5565b6114d66726ed3605e83d19cc60c01b6139f5565b6114ea6765b0ff453e7b8c0c60c01b6139f5565b6114fe67d4e2e4dad3815b6a60c01b6139f5565b61151267d2f493449134e8e460c01b6139f5565b8060048190555050565b5f806115266139f8565b9050806002015491505090565b61154767854e03ab37e07bd160c01b613a90565b5f611550613a93565b90505f815f0160089054906101000a900460ff161590505f825f015f9054906101000a900467ffffffffffffffff1690505f808267ffffffffffffffff161480156115985750825b90505f60018367ffffffffffffffff161480156115cb57505f3073ffffffffffffffffffffffffffffffffffffffff163b145b9050811580156115d9575080155b15611610576040517ff92ee8a900000000000000000000000000000000000000000000000000000000815260040160405180910390fd5b6001855f015f6101000a81548167ffffffffffffffff021916908367ffffffffffffffff160217905550831561165d576001855f0160086101000a81548160ff0219169083151502179055505b611671673e046312c310cef160c01b613a90565b6116856745769b9eae863a0c60c01b613a90565b611698660a17060f0b185260c01b613a90565b6116ac67a13a11ec9e57e45660c01b613a90565b6116b889898989613aa6565b8315611712575f855f0160086101000a81548160ff0219169083151502179055507fc7f505b2f371ae2175ee4913f4499e1f2633a7b5936321eed1cdaeb6115181d260016040516117099190616133565b60405180910390a15b505050505050505050565b5f80611727613a1f565b9050611734858285613f2e565b61173f858585613fc1565b60019150509392505050565b5f806117556140b1565b905061175f6140d8565b815f0160149054906101000a900460ff1661177a919061614c565b91505090565b6117946773ba67b1644d176e60c01b6139f5565b6117a86729253e3b7015201260c01b6139f5565b6117bc67dc138cc7d42b09e860c01b6139f5565b6117d0674411cbd886c5578660c01b6139f5565b5f8054906101000a900473ffffffffffffffffffffffffffffffffffffffff1673ffffffffffffffffffffffffffffffffffffffff16633a0dad8e6040518163ffffffff1660e01b8152600401602060405180830381865afa158015611838573d5f803e3d5ffd5b505050506040513d601f19601f8201168201806040525081019061185c91906160bc565b73ffffffffffffffffffffffffffffffffffffffff163373ffffffffffffffffffffffffffffffffffffffff16146118d4576118a267790fbc0454aa9e6360c01b6139f5565b6040517fd7955a7800000000000000000000000000000000000000000000000000000000815260040160405180910390fd5b6118e8674863b14ad23932d660c01b6139f5565b6118fc67d0bc43d2c5d4d65960c01b6139f5565b61191067e75a0f777e63046460c01b6139f5565b611924673291dd1b9cbf5f7c60c01b6139f5565b61192c6140dc565b61194067f705096329c0219c60c01b6139f5565b611954679ba1881c53661af960c01b6139f5565b61196867b3e39227d34c58dc60c01b6139f5565b61197c679e97501f9dc0922660c01b6139f5565b5f61199167382ff2bfc7e4ee9c60c01b6139f5565b6119a5677ec8f1d7afced3ab60c01b6139f5565b5f90505b600780549050811015611bca576119ca6762b2a87916bc564860c01b6139f5565b6119de673df13a9eb024617660c01b6139f5565b5f600782815481106119f3576119f2616180565b5b905f5260205f20015f9054906101000a900473ffffffffffffffffffffffffffffffffffffffff169050611a316723e380a486a414af60c01b6139f5565b611a4567ea9068d50efbc55e60c01b6139f5565b5f60055f8373ffffffffffffffffffffffffffffffffffffffff1673ffffffffffffffffffffffffffffffffffffffff1681526020019081526020015f20549050611a9a6723944504339ee12560c01b6139f5565b611aae6760836f78f8dc541460c01b6139f5565b5f611ab88261392a565b9050611ace67162668d5a685af8a60c01b6139f5565b5f60055f8573ffffffffffffffffffffffffffffffffffffffff1673ffffffffffffffffffffffffffffffffffffffff1681526020019081526020015f2081905550611b246729e6f186666629a560c01b6139f5565b611b38672831c25f0a5133c260c01b6139f5565b611b428382614130565b611b56674b3f26d8023420e760c01b6139f5565b611b6a67740e3280249ee67560c01b6139f5565b8273ffffffffffffffffffffffffffffffffffffffff167f782ea2005b7f873a0190a1ccb553c732171348d6e16d2b7d3d493c0677dc296e8386604051611bb2929190616081565b60405180910390a250505080806001019150506119a9565b50611bd36141af565b565b5f80611bdf6140b1565b9050805f015f9054906101000a900473ffffffffffffffffffffffffffffffffffffffff1691505090565b5f7fffffffffffffffffffffffffffffffffffffffffffffffffffffffffffffffff9050919050565b611c4767a74c40ab3ad4094860c01b6139f5565b611c5b67e76a6dc0d1b6462260c01b6139f5565b611c6f67085dfd660fc4b46760c01b6139f5565b5f8103611cce57611c8a6754583307d0b4dd6860c01b6139f5565b611c92611bd5565b6040517f6b306335000000000000000000000000000000000000000000000000000000008152600401611cc59190615af7565b60405180910390fd5b611ce26742424a1ac63f903260c01b6139f5565b611cf667c58bf17516140eef60c01b6139f5565b611d0a671c1512af5f9b724c60c01b6139f5565b8060055f3373ffffffffffffffffffffffffffffffffffffffff1673ffffffffffffffffffffffffffffffffffffffff1681526020019081526020015f20541015611d9557611d6367b048b0d8a2296aac60c01b6139f5565b6040517fc8653f4c00000000000000000000000000000000000000000000000000000000815260040160405180910390fd5b611da9679bf1f8f5e2af3a4d60c01b6139f5565b611dbd6707c46f012e3da82560c01b6139f5565b8060055f3373ffffffffffffffffffffffffffffffffffffffff1673ffffffffffffffffffffffffffffffffffffffff1681526020019081526020015f205f828254611e0991906161ad565b92505081905550611e2467df1e41ad963c189660c01b6139f5565b611e38678ce14c3744d5e1af60c01b6139f5565b5f611e41611bd5565b73ffffffffffffffffffffffffffffffffffffffff1663a9059cbb33846040518363ffffffff1660e01b8152600401611e7b9291906161e0565b6020604051808303815f875af1158015611e97573d5f803e3d5ffd5b505050506040513d601f19601f82011682018060405250810190611ebb9190616056565b9050611ed167ca973859109e942660c01b6139f5565b611ee5675de426a43309782360c01b6139f5565b80611f3057611efe67095827e88b5ba8f760c01b6139f5565b6040517f90b8ec1800000000000000000000000000000000000000000000000000000000815260040160405180910390fd5b611f446706b60157ee2d7f0160c01b6139f5565b611f5867511daf7b5710817760c01b6139f5565b611f6c675e24a8951b9361fc60c01b6139f5565b3373ffffffffffffffffffffffffffffffffffffffff167f3c121205405bd3a6cc45661cccddd03e333ae4ef37be94cfa3880f6d616a20c883600780549050604051611fb9929190616081565b60405180910390a25050565b5f611fd0825f6141c6565b9050919050565b611fdf61421e565b611fe882614304565b611ff28282614441565b5050565b5f611fff61455f565b7f360894a13ba1a3210667c828492db98dca3e2076cc3735a920a3ca505d382bbc5f1b905090565b5f61203c67c9574eac556d9b1860c01b6139f5565b612050676a7c9de00d1a384b60c01b6139f5565b6040517f31e5c8e600000000000000000000000000000000000000000000000000000000815260040160405180910390fd5b5f8061208c6139f8565b9050805f015f8473ffffffffffffffffffffffffffffffffffffffff1673ffffffffffffffffffffffffffffffffffffffff1681526020019081526020015f2054915050919050565b6120dd6145e6565b6120e65f61466d565b565b6120fc675c918f6aa11eefdc60c01b6139f5565b612110676ed28ee81c6ceee360c01b6139f5565b61212467cce1b1a61180f40060c01b6139f5565b5f81036121715761213f67a506f1e3bd027e9e60c01b6139f5565b6040517f29cd977200000000000000000000000000000000000000000000000000000000815260040160405180910390fd5b612185671ada55cb09bd309460c01b6139f5565b612199679218e9394643b16d60c01b6139f5565b6121ad675ce26ac76a1afb6360c01b6139f5565b806121b733612082565b1015612203576121d167192d708f34f25e3560c01b6139f5565b6040517ff15ed21400000000000000000000000000000000000000000000000000000000815260040160405180910390fd5b6122176720c48fe57dce2b9360c01b6139f5565b61222b67d3b27003a9570afc60c01b6139f5565b61223f67a903e2fc9876b2cb60c01b6139f5565b5f60065f3373ffffffffffffffffffffffffffffffffffffffff1673ffffffffffffffffffffffffffffffffffffffff1681526020019081526020015f2054036123245761229767d38d61030e85295a60c01b6139f5565b6122ab6739ad4f5fab858c8a60c01b6139f5565b6122bf6758be2f086acb901360c01b6139f5565b600833908060018154018082558091505060019003905f5260205f20015f9091909190916101000a81548173ffffffffffffffffffffffffffffffffffffffff021916908373ffffffffffffffffffffffffffffffffffffffff160217905550612339565b612338673f2b02211e7ddb6a60c01b6139f5565b5b61234d6715ff0f7234d9d7e260c01b6139f5565b8060065f3373ffffffffffffffffffffffffffffffffffffffff1673ffffffffffffffffffffffffffffffffffffffff1681526020019081526020015f205f8282546123999190615fc4565b925050819055506123b467faf6bfb4f4a4c30160c01b6139f5565b6123c867ab0e01c3f0cf78d060c01b6139f5565b6123d3333083613fc1565b6123e767e4a93f57ca97fa2060c01b6139f5565b6123fb674ff2b2f2999a2ae760c01b6139f5565b3373ffffffffffffffffffffffffffffffffffffffff167fd72eb5d043f24a0168ae744d5c44f9596fd673a26bf74d9646bff4b844882d1482600880549050604051612448929190616081565b60405180910390a250565b5f8054906101000a900473ffffffffffffffffffffffffffffffffffffffff1681565b5f61247f613a1f565b90508073ffffffffffffffffffffffffffffffffffffffff166124a06138d0565b73ffffffffffffffffffffffffffffffffffffffff16146124f857806040517f118cdaa70000000000000000000000000000000000000000000000000000000081526004016124ef9190615af7565b60405180910390fd5b6125018161466d565b50565b60035481565b5f806125146146aa565b9050805f015f9054906101000a900473ffffffffffffffffffffffffffffffffffffffff1691505090565b5f612554674460685f68e2e94b60c01b6139f5565b6125686731d4d96d6933a25560c01b6139f5565b6040517f31e5c8e600000000000000000000000000000000000000000000000000000000815260040160405180910390fd5b60605f6125a56139f8565b90508060040180546125b690615ec9565b80601f01602080910402602001604051908101604052809291908181526020018280546125e290615ec9565b801561262d5780601f106126045761010080835404028352916020019161262d565b820191905f5260205f20905b81548152906001019060200180831161261057829003601f168201915b505050505091505090565b61264c676b4f32533d24813660c01b613a90565b6126606780c08106c141995160c01b6139f5565b612674678c23e3da8a415ed860c01b6139f5565b61268867147f9f945ce6766160c01b6139f5565b60015f9054906101000a900473ffffffffffffffffffffffffffffffffffffffff1673ffffffffffffffffffffffffffffffffffffffff163373ffffffffffffffffffffffffffffffffffffffff1614612722576126f0678b6df546842677d760c01b6139f5565b6040517f56b381a500000000000000000000000000000000000000000000000000000000815260040160405180910390fd5b61273667b2745472dc7c0ab960c01b6139f5565b61274a67f69fe2eca5bc1a0f60c01b6139f5565b61275e6741d69aa66020e1f160c01b613a90565b61277267d2e75754f439b96960c01b613a90565b61278667d761a666c795189760c01b613a90565b61279a67ad773c41f0cbedc360c01b613a90565b5f82829050036127ea576127b867fe2e483157f1f88d60c01b613a90565b6040517f1121aa8d00000000000000000000000000000000000000000000000000000000815260040160405180910390fd5b6127fe670b1cc45696fc505c60c01b613a90565b61281267f4645e3ee0eb5e4060c01b613a90565b612826676b4a739cdca2d35760c01b613a90565b61283060096146d1565b612844671bc38d5dc283741b60c01b613a90565b612858677b8511f6a1150ce160c01b613a90565b5f5b82829050811015612b0d5761287967f2b1b1b9cbb2391860c01b613a90565b61288d67e3b9780063646e5b60c01b613a90565b5f8383838181106128a1576128a0616180565b5b9050604002015f0160208101906128b89190615b10565b90506128ce67564f7dc5340919fd60c01b613a90565b6128e267e706a9be10b921f860c01b613a90565b5f8484848181106128f6576128f5616180565b5b905060400201602001359050612916674075c48fef656b7d60c01b613a90565b61292a6719e0217fe5fcf7c660c01b613a90565b5f8054906101000a900473ffffffffffffffffffffffffffffffffffffffff1673ffffffffffffffffffffffffffffffffffffffff16633af32abf836040518263ffffffff1660e01b81526004016129829190615af7565b602060405180830381865afa15801561299d573d5f803e3d5ffd5b505050506040513d601f19601f820116820180604052508101906129c19190616056565b612a16576129d96782f62a4f32ffe3cb60c01b613a90565b816040517fea3bff2e000000000000000000000000000000000000000000000000000000008152600401612a0d9190615af7565b60405180910390fd5b612a2a679a890187c8ab4a9b60c01b613a90565b612a3e6744ac1fc8d1f5f53f60c01b613a90565b612a52672ff8fd9b66c8904460c01b613a90565b5f612a69838360096146df9092919063ffffffff16565b9050612a7f676c82d8f23597fd7160c01b613a90565b612a9367fa104a137279320060c01b613a90565b80612ae957612aac67160b36450b62499360c01b613a90565b826040517f46bdabe1000000000000000000000000000000000000000000000000000000008152600401612ae09190615af7565b60405180910390fd5b612afd67c19169a3dff8fbd660c01b613a90565b505050808060010191505061285a565b50612b226755a31215cea4951e60c01b613a90565b612b36679eda254e9ddfc42660c01b613a90565b3373ffffffffffffffffffffffffffffffffffffffff167f2d47a742b8d7df7c1fc5a9a631b206b364e6cb2722490759f63bb3ab14b132e060405160405180910390a25050565b5f80612b87613a1f565b9050612b94818585613fc1565b600191505092915050565b612bb367b65639a536af80f460c01b6139f5565b612bc76729253e3b7015201260c01b6139f5565b612bdb67dc138cc7d42b09e860c01b6139f5565b612bef674411cbd886c5578660c01b6139f5565b5f8054906101000a900473ffffffffffffffffffffffffffffffffffffffff1673ffffffffffffffffffffffffffffffffffffffff16633a0dad8e6040518163ffffffff1660e01b8152600401602060405180830381865afa158015612c57573d5f803e3d5ffd5b505050506040513d601f19601f82011682018060405250810190612c7b91906160bc565b73ffffffffffffffffffffffffffffffffffffffff163373ffffffffffffffffffffffffffffffffffffffff1614612cf357612cc167790fbc0454aa9e6360c01b6139f5565b6040517fd7955a7800000000000000000000000000000000000000000000000000000000815260040160405180910390fd5b612d07674863b14ad23932d660c01b6139f5565b612d1b67d0bc43d2c5d4d65960c01b6139f5565b612d2f67decfe75f60aea9bf60c01b6139f5565b612d4367c7f924e73876789060c01b6139f5565b612d4b6140dc565b612d5f675e10a6ae9bfc75a460c01b6139f5565b612d7367153898368093b1b660c01b6139f5565b612d8767a6ba681864987fcd60c01b6139f5565b612d9b679b72576798bca4eb60c01b6139f5565b5f612db067cfc840f38094b3f260c01b6139f5565b612dc4674b0ebb8946b5578360c01b6139f5565b5f90505b6008805490508110156130f157612de967c356e56bb375214960c01b6139f5565b612dfd6764f8b9ef4a9ab1b860c01b6139f5565b5f60088281548110612e1257612e11616180565b5b905f5260205f20015f9054906101000a900473ffffffffffffffffffffffffffffffffffffffff169050612e5067cc5c87dd194d46ec60c01b6139f5565b612e6467ff5d130b5f5aa92460c01b6139f5565b5f60065f8373ffffffffffffffffffffffffffffffffffffffff1673ffffffffffffffffffffffffffffffffffffffff1681526020019081526020015f20549050612eb96756c33d31b64edfca60c01b6139f5565b5f60065f8473ffffffffffffffffffffffffffffffffffffffff1673ffffffffffffffffffffffffffffffffffffffff1681526020019081526020015f2081905550612f0f67e350f1af24fe77ae60c01b6139f5565b612f2367bd08f4463e94a26f60c01b6139f5565b612f2d3082614710565b612f4167d4f0d508e84145ef60c01b6139f5565b612f55670e960372cb95e61d60c01b6139f5565b5f612f5f82611fc5565b9050612f75675455428f3bb2e03d60c01b6139f5565b612f896792f436ec23194fbd60c01b6139f5565b612f91611bd5565b73ffffffffffffffffffffffffffffffffffffffff1663a9059cbb84836040518363ffffffff1660e01b8152600401612fcb9291906161e0565b6020604051808303815f875af1158015612fe7573d5f803e3d5ffd5b505050506040513d601f19601f8201168201806040525081019061300b9190616056565b6130555761302367ad596bd804a3cba960c01b6139f5565b6040517f90b8ec1800000000000000000000000000000000000000000000000000000000815260040160405180910390fd5b613069674d0add24bf28d32060c01b6139f5565b61307d67c9b55dd140a6e26360c01b6139f5565b61309167238a163478978e3a60c01b6139f5565b8273ffffffffffffffffffffffffffffffffffffffff167febad37b830b1857ef9af5983fc20dc0ded12dc472ba1e22e06fd3a9465b4506c83866040516130d9929190616081565b60405180910390a25050508080600101915050612dc8565b506130fa6141af565b565b6040518060400160405280600581526020017f352e302e3000000000000000000000000000000000000000000000000000000081525081565b5f6131418260016141c6565b9050919050565b5f61315d67340a15bbd2ccec5760c01b6139f5565b613171678c9551ed6e343af260c01b6139f5565b6040517e8a595100000000000000000000000000000000000000000000000000000000815260040160405180910390fd5b5f6131b7677adfa6820114f6a060c01b6139f5565b6131cb679c247c9cb814d31d60c01b6139f5565b6040517f56c290c800000000000000000000000000000000000000000000000000000000815260040160405180910390fd5b5f61321267a632880eac2437dc60c01b6139f5565b61322667f8e6be0ae0b3ab2260c01b6139f5565b61323a675ab91474dd314e2c60c01b6139f5565b5f61324f6747511351fa9d37ea60c01b6139f5565b61326367e53a27300dd3ae7860c01b6139f5565b5f5b6008805490508110156133195761328667f0b1c78f733afd6960c01b6139f5565b60065f6008838154811061329d5761329c616180565b5b905f5260205f20015f9054906101000a900473ffffffffffffffffffffffffffffffffffffffff1673ffffffffffffffffffffffffffffffffffffffff1673ffffffffffffffffffffffffffffffffffffffff1681526020019081526020015f20548261330a9190615fc4565b91508080600101915050613265565b5061332e67213a624510e8d39a60c01b6139f5565b613342678bcf21285ecb76e760c01b6139f5565b8091505090565b61335d673c54c40aad99425e60c01b6139f5565b61337167e523754b5d09b7a860c01b6139f5565b61338567a1102dc44e3f7f1360c01b6139f5565b613399675444ea6b4a3ab96160c01b6139f5565b5f8054906101000a900473ffffffffffffffffffffffffffffffffffffffff1673ffffffffffffffffffffffffffffffffffffffff1663348ec5c86040518163ffffffff1660e01b8152600401602060405180830381865afa158015613401573d5f803e3d5ffd5b505050506040513d601f19601f8201168201806040525081019061342591906160bc565b73ffffffffffffffffffffffffffffffffffffffff163373ffffffffffffffffffffffffffffffffffffffff161461349d5761346b671323b484c3195acd60c01b6139f5565b6040517fefb380d900000000000000000000000000000000000000000000000000000000815260040160405180910390fd5b6134b16794070c01b2d9dbc960c01b6139f5565b6134c56726ed3605e83d19cc60c01b6139f5565b6134d967f038d6111c61f53b60c01b6139f5565b6134ed6718471035c6e621ce60c01b6139f5565b613501675279bfc05b70624b60c01b6139f5565b61351567b122ce11d9020f9e60c01b6139f5565b5f83036135625761353067843a07b52f962c6660c01b6139f5565b6040517f4dfba02300000000000000000000000000000000000000000000000000000000815260040160405180910390fd5b613576671d5782730f5eb75460c01b6139f5565b61358a670f209e39aa656fe460c01b6139f5565b826003819055506135a5673a327b3cadfe337560c01b6139f5565b816004819055506135c0679065fdc87e4824e860c01b6139f5565b6135d4674b273659acc59d6160c01b6139f5565b7f22d59af29033337bec0a35c65d874599f3ea66c941052de217150498e780eb1983838360405161360793929190616207565b60405180910390a1505050565b5f7fffffffffffffffffffffffffffffffffffffffffffffffffffffffffffffffff9050919050565b5f613652679f8d5eeb462a18b760c01b6139f5565b613666672f925a66976b9fe060c01b6139f5565b61367a67ba2438d5e38fbb1960c01b6139f5565b60035461368561174b565b60ff16836136939190615f26565b61369d9190615f94565b9050919050565b5f6136b76136b183612082565b5f6141c6565b9050919050565b5f6136d3674e8f744e7c30467a60c01b6139f5565b6136e767c5b6febfaa46dfa660c01b6139f5565b6136fb67c696d7c441fc19db60c01b6139f5565b5f61371067052a81137408bec660c01b6139f5565b6137246789bd3a1b83fd4d1b60c01b6139f5565b5f5b6007805490508110156137da5761374767c128beb5839e09db60c01b6139f5565b60055f6007838154811061375e5761375d616180565b5b905f5260205f20015f9054906101000a900473ffffffffffffffffffffffffffffffffffffffff1673ffffffffffffffffffffffffffffffffffffffff1673ffffffffffffffffffffffffffffffffffffffff1681526020019081526020015f2054826137cb9190615fc4565b91508080600101915050613726565b506137ef672f5a06091c8aeb6360c01b6139f5565b613803678bb971814ea39d8d60c01b6139f5565b8091505090565b60025f9054906101000a900473ffffffffffffffffffffffffffffffffffffffff1681565b5f61383982612082565b9050919050565b5f8061384a6139f8565b9050806001015f8573ffffffffffffffffffffffffffffffffffffffff1673ffffffffffffffffffffffffffffffffffffffff1681526020019081526020015f205f8473ffffffffffffffffffffffffffffffffffffffff1673ffffffffffffffffffffffffffffffffffffffff1681526020019081526020015f205491505092915050565b5f806138da61478f565b9050805f015f9054906101000a900473ffffffffffffffffffffffffffffffffffffffff1691505090565b60015f9054906101000a900473ffffffffffffffffffffffffffffffffffffffff1681565b5f613935825f613a38565b9050919050565b6139446145e6565b5f61394d61478f565b905081815f015f6101000a81548173ffffffffffffffffffffffffffffffffffffffff021916908373ffffffffffffffffffffffffffffffffffffffff1602179055508173ffffffffffffffffffffffffffffffffffffffff166139af61250a565b73ffffffffffffffffffffffffffffffffffffffff167f38d16b8cac22d99fc7c124b9cd0de2d3fa1faef420bfe791d8c362d765e2270060405160405180910390a35050565b50565b5f7f52c63247e1f47db19d5ce0460030c497f067ca4cebf71ba98eeadabe20bace00905090565b5f33905090565b613a3383838360016147b6565b505050565b5f613a88613a446140d8565b600a613a50919061636b565b613a5861151c565b613a629190615fc4565b6001613a6c610ba1565b613a769190615fc4565b8486614993909392919063ffffffff16565b905092915050565b50565b5f80613a9d6149e0565b90508091505090565b613aba677972dfda4610032f60c01b6139f5565b613ac2614a09565b613ad667583d035b5b5fe37b60c01b6139f5565b613aea673112a95ed3efc04660c01b6139f5565b613afe670385afb8ff96e9d760c01b6139f5565b613b12670d62c6f273f1b1ff60c01b6139f5565b5f73ffffffffffffffffffffffffffffffffffffffff168473ffffffffffffffffffffffffffffffffffffffff1603613b8b57613b59678d2633f34dbd9d3360c01b6139f5565b6040517f9c6bb9f500000000000000000000000000000000000000000000000000000000815260040160405180910390fd5b613b9f6797490b6d9f403d2260c01b6139f5565b613bb367466bbcaece4a332d60c01b6139f5565b613bc76748b71a4619e835f160c01b6139f5565b5f73ffffffffffffffffffffffffffffffffffffffff168373ffffffffffffffffffffffffffffffffffffffff1603613c4057613c0e677c7ee1eff8bd956060c01b6139f5565b6040517fd490b4b600000000000000000000000000000000000000000000000000000000815260040160405180910390fd5b613c54675ab188cadd5ffd5560c01b6139f5565b613c686745649427ee0e775160c01b6139f5565b613c7c674f47e48bd6ab7f0560c01b6139f5565b613c868282614a49565b613c9a67457a8350b960642b60c01b6139f5565b613cae679000f86874eb875c60c01b6139f5565b613d238373ffffffffffffffffffffffffffffffffffffffff16637158da7c6040518163ffffffff1660e01b8152600401602060405180830381865afa158015613cfa573d5f803e3d5ffd5b505050506040513d601f19601f82011682018060405250810190613d1e91906163f0565b614a5f565b613d37672f43ddf3bd77835160c01b6139f5565b613d4b6747a7bcc2b146603760c01b6139f5565b613d53614a73565b613d676766e677bc4a6ed0ba60c01b6139f5565b613d7b6761d182f62329338d60c01b6139f5565b613d83614a85565b613d97678f6b9e6c7ba63c0f60c01b6139f5565b613dab670210297d4534adab60c01b6139f5565b613db3614a8f565b613dc7673a574f23f373d05460c01b6139f5565b613ddb67804b05aafcbab0e160c01b6139f5565b613de48461466d565b613df867b31002deaaea2bdf60c01b6139f5565b3360025f6101000a81548173ffffffffffffffffffffffffffffffffffffffff021916908373ffffffffffffffffffffffffffffffffffffffff160217905550613e4c67418fb9c1867ffbef60c01b6139f5565b8360015f6101000a81548173ffffffffffffffffffffffffffffffffffffffff021916908373ffffffffffffffffffffffffffffffffffffffff160217905550613ea0670fe9f1cda103cca460c01b6139f5565b825f806101000a81548173ffffffffffffffffffffffffffffffffffffffff021916908373ffffffffffffffffffffffffffffffffffffffff160217905550613ef367801b601ed912f76d60c01b6139f5565b613efb61174b565b600a613f07919061636b565b600381905550613f2167c4576bc82437fc4060c01b6139f5565b5f60048190555050505050565b5f613f398484613840565b90507fffffffffffffffffffffffffffffffffffffffffffffffffffffffffffffffff811015613fbb5781811015613fac578281836040517ffb8f41b2000000000000000000000000000000000000000000000000000000008152600401613fa39392919061641b565b60405180910390fd5b613fba84848484035f6147b6565b5b50505050565b5f73ffffffffffffffffffffffffffffffffffffffff168373ffffffffffffffffffffffffffffffffffffffff1603614031575f6040517f96c6fd1e0000000000000000000000000000000000000000000000000000000081526004016140289190615af7565b60405180910390fd5b5f73ffffffffffffffffffffffffffffffffffffffff168273ffffffffffffffffffffffffffffffffffffffff16036140a1575f6040517fec442f050000000000000000000000000000000000000000000000000000000081526004016140989190615af7565b60405180910390fd5b6140ac838383614a99565b505050565b5f7f0773e532dfede91f04b12a73d3d2acd361424f41f76b4fb79f090161e36b4e00905090565b5f90565b5f6140e5614cc8565b90506002815f015403614124576040517f3ee5aeb500000000000000000000000000000000000000000000000000000000815260040160405180910390fd5b6002815f018190555050565b5f73ffffffffffffffffffffffffffffffffffffffff168273ffffffffffffffffffffffffffffffffffffffff16036141a0575f6040517fec442f050000000000000000000000000000000000000000000000000000000081526004016141979190615af7565b60405180910390fd5b6141ab5f8383614a99565b5050565b5f6141b8614cc8565b90506001815f018190555050565b5f61421660016141d4610ba1565b6141de9190615fc4565b6141e66140d8565b600a6141f2919061636b565b6141fa61151c565b6142049190615fc4565b8486614993909392919063ffffffff16565b905092915050565b7f000000000000000000000000000000000000000000000000000000000000000073ffffffffffffffffffffffffffffffffffffffff163073ffffffffffffffffffffffffffffffffffffffff1614806142cb57507f000000000000000000000000000000000000000000000000000000000000000073ffffffffffffffffffffffffffffffffffffffff166142b2614cef565b73ffffffffffffffffffffffffffffffffffffffff1614155b15614302576040517fe07c8dba00000000000000000000000000000000000000000000000000000000815260040160405180910390fd5b565b6143186767967ff5ba75d9ac60c01b6139f5565b61432c6780c08106c141995160c01b6139f5565b614340678c23e3da8a415ed860c01b6139f5565b61435467147f9f945ce6766160c01b6139f5565b60015f9054906101000a900473ffffffffffffffffffffffffffffffffffffffff1673ffffffffffffffffffffffffffffffffffffffff163373ffffffffffffffffffffffffffffffffffffffff16146143ee576143bc678b6df546842677d760c01b6139f5565b6040517f56b381a500000000000000000000000000000000000000000000000000000000815260040160405180910390fd5b61440267b2745472dc7c0ab960c01b6139f5565b61441667f69fe2eca5bc1a0f60c01b6139f5565b61442a6721fe5c6b1572310d60c01b6139f5565b61443e676945d84cc97747ed60c01b6139f5565b50565b8173ffffffffffffffffffffffffffffffffffffffff166352d1902d6040518163ffffffff1660e01b8152600401602060405180830381865afa9250505080156144a957506040513d601f19601f820116820180604052508101906144a6919061647a565b60015b6144ea57816040517f4c9c8ce30000000000000000000000000000000000000000000000000000000081526004016144e19190615af7565b60405180910390fd5b7f360894a13ba1a3210667c828492db98dca3e2076cc3735a920a3ca505d382bbc5f1b811461455057806040517faa1d49a40000000000000000000000000000000000000000000000000000000081526004016145479190615c4b565b60405180910390fd5b61455a8383614d42565b505050565b7f000000000000000000000000000000000000000000000000000000000000000073ffffffffffffffffffffffffffffffffffffffff163073ffffffffffffffffffffffffffffffffffffffff16146145e4576040517fe07c8dba00000000000000000000000000000000000000000000000000000000815260040160405180910390fd5b565b6145ee613a1f565b73ffffffffffffffffffffffffffffffffffffffff1661460c61250a565b73ffffffffffffffffffffffffffffffffffffffff161461466b5761462f613a1f565b6040517f118cdaa70000000000000000000000000000000000000000000000000000000081526004016146629190615af7565b60405180910390fd5b565b5f61467661478f565b9050805f015f6101000a81549073ffffffffffffffffffffffffffffffffffffffff02191690556146a682614db4565b5050565b5f7f9016d09d72d40fdae2fd8ceac6b6234c7706214fd39c1cd1e609a0528c199300905090565b6146dc815f01614e85565b50565b5f614707845f018473ffffffffffffffffffffffffffffffffffffffff165f1b845f1b614ee0565b90509392505050565b5f73ffffffffffffffffffffffffffffffffffffffff168273ffffffffffffffffffffffffffffffffffffffff1603614780575f6040517f96c6fd1e0000000000000000000000000000000000000000000000000000000081526004016147779190615af7565b60405180910390fd5b61478b825f83614a99565b5050565b5f7f237e158222e3e6968b72b9db0d8043aacf074ad9f650f0d1606b4d82ee432c00905090565b5f6147bf6139f8565b90505f73ffffffffffffffffffffffffffffffffffffffff168573ffffffffffffffffffffffffffffffffffffffff1603614831575f6040517fe602df050000000000000000000000000000000000000000000000000000000081526004016148289190615af7565b60405180910390fd5b5f73ffffffffffffffffffffffffffffffffffffffff168473ffffffffffffffffffffffffffffffffffffffff16036148a1575f6040517f94280d620000000000000000000000000000000000000000000000000000000081526004016148989190615af7565b60405180910390fd5b82816001015f8773ffffffffffffffffffffffffffffffffffffffff1673ffffffffffffffffffffffffffffffffffffffff1681526020019081526020015f205f8673ffffffffffffffffffffffffffffffffffffffff1673ffffffffffffffffffffffffffffffffffffffff1681526020019081526020015f2081905550811561498c578373ffffffffffffffffffffffffffffffffffffffff168573ffffffffffffffffffffffffffffffffffffffff167f8c5be1e5ebec7d5bd14f71427d1e84f3dd0314c0f7b2291e5b200ac8c7c3b925856040516149839190615687565b60405180910390a35b5050505050565b5f6149c16149a083614f17565b80156149bc57505f84806149b7576149b6615f67565b5b868809115b614f44565b6149cc868686614f4f565b6149d69190615fc4565b9050949350505050565b5f7ff0c57e16840df040f15088dc2f81fe391c3923bec73e23a9662efc9c229c6a005f1b905090565b614a1161502e565b614a47576040517fd7e6bcf800000000000000000000000000000000000000000000000000000000815260040160405180910390fd5b565b614a51614a09565b614a5b828261504c565b5050565b614a67614a09565b614a7081615088565b50565b614a7b614a09565b614a8361511a565b565b614a8d614a09565b565b614a97614a09565b565b5f614aa26139f8565b90505f73ffffffffffffffffffffffffffffffffffffffff168473ffffffffffffffffffffffffffffffffffffffff1603614af65781816002015f828254614aea9190615fc4565b92505081905550614bc8565b5f815f015f8673ffffffffffffffffffffffffffffffffffffffff1673ffffffffffffffffffffffffffffffffffffffff1681526020019081526020015f2054905082811015614b81578481846040517fe450d38c000000000000000000000000000000000000000000000000000000008152600401614b789392919061641b565b60405180910390fd5b828103825f015f8773ffffffffffffffffffffffffffffffffffffffff1673ffffffffffffffffffffffffffffffffffffffff1681526020019081526020015f2081905550505b5f73ffffffffffffffffffffffffffffffffffffffff168373ffffffffffffffffffffffffffffffffffffffff1603614c115781816002015f8282540392505081905550614c5d565b81815f015f8573ffffffffffffffffffffffffffffffffffffffff1673ffffffffffffffffffffffffffffffffffffffff1681526020019081526020015f205f82825401925050819055505b8273ffffffffffffffffffffffffffffffffffffffff168473ffffffffffffffffffffffffffffffffffffffff167fddf252ad1be2c89b69c2b068fc378daa952ba7f163c4a11628f55a4df523b3ef84604051614cba9190615687565b60405180910390a350505050565b5f7f9b779b17422d0df92223018b32b4d1fa46e071723d6817e2486d003becc55f00905090565b5f614d1b7f360894a13ba1a3210667c828492db98dca3e2076cc3735a920a3ca505d382bbc5f1b615139565b5f015f9054906101000a900473ffffffffffffffffffffffffffffffffffffffff16905090565b614d4b82615142565b8173ffffffffffffffffffffffffffffffffffffffff167fbc7cd75a20ee27fd9adebab32041f755214dbc6bffa90cc0225b39da2e5c2d3b60405160405180910390a25f81511115614da757614da1828261520b565b50614db0565b614daf61528b565b5b5050565b5f614dbd6146aa565b90505f815f015f9054906101000a900473ffffffffffffffffffffffffffffffffffffffff16905082825f015f6101000a81548173ffffffffffffffffffffffffffffffffffffffff021916908373ffffffffffffffffffffffffffffffffffffffff1602179055508273ffffffffffffffffffffffffffffffffffffffff168173ffffffffffffffffffffffffffffffffffffffff167f8be0079c531659141344cd1fd0a4f28419497f9722a3daafe3b4186f6b6457e060405160405180910390a3505050565b5f614e8f826152c7565b90505f5b81811015614ed057826002015f614eb583865f016152da90919063ffffffff16565b81526020019081526020015f205f9055806001019050614e93565b50614edc825f016152ef565b5050565b5f81846002015f8581526020019081526020015f2081905550614f0e83855f016152fd90919063ffffffff16565b90509392505050565b5f60016002836003811115614f2f57614f2e6164a5565b5b614f3991906164d2565b60ff16149050919050565b5f8115159050919050565b5f805f614f5c8686615312565b915091505f8203614f8157838181614f7757614f76615f67565b5b0492505050615027565b818411614fa057614f9f614f9a5f86146012601161532f565b615348565b5b5f8486880990508181118303925080820391505f855f038616905080860495508083049250600181825f0304019050808402831792505f600287600302189050808702600203810290508087026002038102905080870260020381029050808702600203810290508087026002038102905080870260020381029050808402955050505050505b9392505050565b5f615037613a93565b5f0160089054906101000a900460ff16905090565b615054614a09565b5f61505d6139f8565b9050828160030190816150709190616696565b50818160040190816150829190616696565b50505050565b615090614a09565b5f6150996140b1565b90505f806150a684615359565b91509150816150b65760126150b8565b805b835f0160146101000a81548160ff021916908360ff16021790555083835f015f6101000a81548173ffffffffffffffffffffffffffffffffffffffff021916908373ffffffffffffffffffffffffffffffffffffffff16021790555050505050565b615122614a09565b5f61512b614cc8565b90506001815f018190555050565b5f819050919050565b5f8173ffffffffffffffffffffffffffffffffffffffff163b0361519d57806040517f4c9c8ce30000000000000000000000000000000000000000000000000000000081526004016151949190615af7565b60405180910390fd5b806151c97f360894a13ba1a3210667c828492db98dca3e2076cc3735a920a3ca505d382bbc5f1b615139565b5f015f6101000a81548173ffffffffffffffffffffffffffffffffffffffff021916908373ffffffffffffffffffffffffffffffffffffffff16021790555050565b60605f808473ffffffffffffffffffffffffffffffffffffffff168460405161523491906167a9565b5f60405180830381855af49150503d805f811461526c576040519150601f19603f3d011682016040523d82523d5f602084013e615271565b606091505b5091509150615281858383615462565b9250505092915050565b5f3411156152c5576040517fb398979f00000000000000000000000000000000000000000000000000000000815260040160405180910390fd5b565b5f6152d3825f016154ef565b9050919050565b5f6152e7835f0183615502565b905092915050565b6152fa815f01615529565b50565b5f61530a835f018361558e565b905092915050565b5f805f198385098385029150818110828203039250509250929050565b5f61533984614f44565b82841802821890509392505050565b634e487b715f52806020526024601cfd5b5f805f808473ffffffffffffffffffffffffffffffffffffffff1660405160240160405160208183030381529060405263313ce56760e01b6020820180517bffffffffffffffffffffffffffffffffffffffffffffffffffffffff83818316178352505050506040516153cc91906167a9565b5f60405180830381855afa9150503d805f8114615404576040519150601f19603f3d011682016040523d82523d5f602084013e615409565b606091505b509150915081801561541d57506020815110155b15615454575f8180602001905181019061543791906167d3565b905060ff80168111615452576001819450945050505061545d565b505b5f809350935050505b915091565b60608261547757615472826155f5565b6154e7565b5f825114801561549d57505f8473ffffffffffffffffffffffffffffffffffffffff163b145b156154df57836040517f9996b3150000000000000000000000000000000000000000000000000000000081526004016154d69190615af7565b60405180910390fd5b8190506154e8565b5b9392505050565b5f6154fb825f01615639565b9050919050565b5f825f01828154811061551857615517616180565b5b905f5260205f200154905092915050565b5f61553382615639565b90505f5b8181101561557d57826001015f845f01838154811061555957615558616180565b5b905f5260205f20015481526020019081526020015f205f9055806001019050615537565b5061558a825f015f615648565b5050565b5f615599838361564f565b6155eb57825f0182908060018154018082558091505060019003905f5260205f20015f9091909190915055825f0180549050836001015f8481526020019081526020015f2081905550600190506155ef565b5f90505b92915050565b5f815111156156075780518082602001fd5b6040517fd6bda27500000000000000000000000000000000000000000000000000000000815260040160405180910390fd5b5f815f01805490509050919050565b8082555050565b5f80836001015f8481526020019081526020015f20541415905092915050565b5f819050919050565b6156818161566f565b82525050565b5f60208201905061569a5f830184615678565b92915050565b5f81519050919050565b5f82825260208201905092915050565b8281835e5f83830152505050565b5f601f19601f8301169050919050565b5f6156e2826156a0565b6156ec81856156aa565b93506156fc8185602086016156ba565b615705816156c8565b840191505092915050565b5f6020820190508181035f83015261572881846156d8565b905092915050565b5f604051905090565b5f80fd5b5f80fd5b61574a8161566f565b8114615754575f80fd5b50565b5f8135905061576581615741565b92915050565b5f602082840312156157805761577f615739565b5b5f61578d84828501615757565b91505092915050565b5f73ffffffffffffffffffffffffffffffffffffffff82169050919050565b5f6157bf82615796565b9050919050565b6157cf816157b5565b81146157d9575f80fd5b50565b5f813590506157ea816157c6565b92915050565b5f806040838503121561580657615805615739565b5b5f615813858286016157dc565b925050602061582485828601615757565b9150509250929050565b5f8115159050919050565b6158428161582e565b82525050565b5f60208201905061585b5f830184615839565b92915050565b5f61586b826157b5565b9050919050565b61587b81615861565b8114615885575f80fd5b50565b5f8135905061589681615872565b92915050565b5f80fd5b5f80fd5b7f4e487b71000000000000000000000000000000000000000000000000000000005f52604160045260245ffd5b6158da826156c8565b810181811067ffffffffffffffff821117156158f9576158f86158a4565b5b80604052505050565b5f61590b615730565b905061591782826158d1565b919050565b5f67ffffffffffffffff821115615936576159356158a4565b5b61593f826156c8565b9050602081019050919050565b828183375f83830152505050565b5f61596c6159678461591c565b615902565b905082815260208101848484011115615988576159876158a0565b5b61599384828561594c565b509392505050565b5f82601f8301126159af576159ae61589c565b5b81356159bf84826020860161595a565b91505092915050565b5f805f80608085870312156159e0576159df615739565b5b5f6159ed878288016157dc565b94505060206159fe87828801615888565b935050604085013567ffffffffffffffff811115615a1f57615a1e61573d565b5b615a2b8782880161599b565b925050606085013567ffffffffffffffff811115615a4c57615a4b61573d565b5b615a588782880161599b565b91505092959194509250565b5f805f60608486031215615a7b57615a7a615739565b5b5f615a88868287016157dc565b9350506020615a99868287016157dc565b9250506040615aaa86828701615757565b9150509250925092565b5f60ff82169050919050565b615ac981615ab4565b82525050565b5f602082019050615ae25f830184615ac0565b92915050565b615af1816157b5565b82525050565b5f602082019050615b0a5f830184615ae8565b92915050565b5f60208284031215615b2557615b24615739565b5b5f615b32848285016157dc565b91505092915050565b5f67ffffffffffffffff821115615b5557615b546158a4565b5b615b5e826156c8565b9050602081019050919050565b5f615b7d615b7884615b3b565b615902565b905082815260208101848484011115615b9957615b986158a0565b5b615ba484828561594c565b509392505050565b5f82601f830112615bc057615bbf61589c565b5b8135615bd0848260208601615b6b565b91505092915050565b5f8060408385031215615bef57615bee615739565b5b5f615bfc858286016157dc565b925050602083013567ffffffffffffffff811115615c1d57615c1c61573d565b5b615c2985828601615bac565b9150509250929050565b5f819050919050565b615c4581615c33565b82525050565b5f602082019050615c5e5f830184615c3c565b92915050565b5f8060408385031215615c7a57615c79615739565b5b5f615c8785828601615757565b9250506020615c98858286016157dc565b9150509250929050565b5f819050919050565b5f615cc5615cc0615cbb84615796565b615ca2565b615796565b9050919050565b5f615cd682615cab565b9050919050565b5f615ce782615ccc565b9050919050565b615cf781615cdd565b82525050565b5f602082019050615d105f830184615cee565b92915050565b5f80fd5b5f80fd5b5f8083601f840112615d3357615d3261589c565b5b8235905067ffffffffffffffff811115615d5057615d4f615d16565b5b602083019150836040820283011115615d6c57615d6b615d1a565b5b9250929050565b5f8060208385031215615d8957615d88615739565b5b5f83013567ffffffffffffffff811115615da657615da561573d565b5b615db285828601615d1e565b92509250509250929050565b5f805f60608486031215615dd557615dd4615739565b5b5f615de286828701615757565b9350506020615df3868287016157dc565b9250506040615e04868287016157dc565b9150509250925092565b5f805f60608486031215615e2557615e24615739565b5b5f615e3286828701615757565b9350506020615e4386828701615757565b9250506040615e5486828701615757565b9150509250925092565b5f8060408385031215615e7457615e73615739565b5b5f615e81858286016157dc565b9250506020615e92858286016157dc565b9150509250929050565b7f4e487b71000000000000000000000000000000000000000000000000000000005f52602260045260245ffd5b5f6002820490506001821680615ee057607f821691505b602082108103615ef357615ef2615e9c565b5b50919050565b7f4e487b71000000000000000000000000000000000000000000000000000000005f52601160045260245ffd5b5f615f308261566f565b9150615f3b8361566f565b9250828202615f498161566f565b91508282048414831517615f6057615f5f615ef9565b5b5092915050565b7f4e487b71000000000000000000000000000000000000000000000000000000005f52601260045260245ffd5b5f615f9e8261566f565b9150615fa98361566f565b925082615fb957615fb8615f67565b5b828204905092915050565b5f615fce8261566f565b9150615fd98361566f565b9250828201905080821115615ff157615ff0615ef9565b5b92915050565b5f60608201905061600a5f830186615ae8565b6160176020830185615ae8565b6160246040830184615678565b949350505050565b6160358161582e565b811461603f575f80fd5b50565b5f815190506160508161602c565b92915050565b5f6020828403121561606b5761606a615739565b5b5f61607884828501616042565b91505092915050565b5f6040820190506160945f830185615678565b6160a16020830184615678565b9392505050565b5f815190506160b6816157c6565b92915050565b5f602082840312156160d1576160d0615739565b5b5f6160de848285016160a8565b91505092915050565b5f819050919050565b5f67ffffffffffffffff82169050919050565b5f61611d616118616113846160e7565b615ca2565b6160f0565b9050919050565b61612d81616103565b82525050565b5f6020820190506161465f830184616124565b92915050565b5f61615682615ab4565b915061616183615ab4565b9250828201905060ff81111561617a57616179615ef9565b5b92915050565b7f4e487b71000000000000000000000000000000000000000000000000000000005f52603260045260245ffd5b5f6161b78261566f565b91506161c28361566f565b92508282039050818111156161da576161d9615ef9565b5b92915050565b5f6040820190506161f35f830185615ae8565b6162006020830184615678565b9392505050565b5f60608201905061621a5f830186615678565b6162276020830185615678565b6162346040830184615678565b949350505050565b5f8160011c9050919050565b5f808291508390505b60018511156162915780860481111561626d5761626c615ef9565b5b600185161561627c5780820291505b808102905061628a8561623c565b9450616251565b94509492505050565b5f826162a95760019050616364565b816162b6575f9050616364565b81600181146162cc57600281146162d657616305565b6001915050616364565b60ff8411156162e8576162e7615ef9565b5b8360020a9150848211156162ff576162fe615ef9565b5b50616364565b5060208310610133831016604e8410600b841016171561633a5782820a90508381111561633557616334615ef9565b5b616364565b6163478484846001616248565b9250905081840481111561635e5761635d615ef9565b5b81810290505b9392505050565b5f6163758261566f565b915061638083615ab4565b92506163ad7fffffffffffffffffffffffffffffffffffffffffffffffffffffffffffffffff848461629a565b905092915050565b5f6163bf826157b5565b9050919050565b6163cf816163b5565b81146163d9575f80fd5b50565b5f815190506163ea816163c6565b92915050565b5f6020828403121561640557616404615739565b5b5f616412848285016163dc565b91505092915050565b5f60608201905061642e5f830186615ae8565b61643b6020830185615678565b6164486040830184615678565b949350505050565b61645981615c33565b8114616463575f80fd5b50565b5f8151905061647481616450565b92915050565b5f6020828403121561648f5761648e615739565b5b5f61649c84828501616466565b91505092915050565b7f4e487b71000000000000000000000000000000000000000000000000000000005f52602160045260245ffd5b5f6164dc82615ab4565b91506164e783615ab4565b9250826164f7576164f6615f67565b5b828206905092915050565b5f819050815f5260205f209050919050565b5f6020601f8301049050919050565b5f82821b905092915050565b5f6008830261655e7fffffffffffffffffffffffffffffffffffffffffffffffffffffffffffffffff82616523565b6165688683616523565b95508019841693508086168417925050509392505050565b5f61659a6165956165908461566f565b615ca2565b61566f565b9050919050565b5f819050919050565b6165b383616580565b6165c76165bf826165a1565b84845461652f565b825550505050565b5f90565b6165db6165cf565b6165e68184846165aa565b505050565b5b81811015616609576165fe5f826165d3565b6001810190506165ec565b5050565b601f82111561664e5761661f81616502565b61662884616514565b81016020851015616637578190505b61664b61664385616514565b8301826165eb565b50505b505050565b5f82821c905092915050565b5f61666e5f1984600802616653565b1980831691505092915050565b5f616686838361665f565b9150826002028217905092915050565b61669f826156a0565b67ffffffffffffffff8111156166b8576166b76158a4565b5b6166c28254615ec9565b6166cd82828561660d565b5f60209050601f8311600181146166fe575f84156166ec578287015190505b6166f6858261667b565b86555061675d565b601f19841661670c86616502565b5f5b828110156167335784890151825560018201915060208501945060208101905061670e565b86831015616750578489015161674c601f89168261665f565b8355505b6001600288020188555050505b505050505050565b5f81519050919050565b5f81905092915050565b5f61678382616765565b61678d818561676f565b935061679d8185602086016156ba565b80840191505092915050565b5f6167b48284616779565b915081905092915050565b5f815190506167cd81615741565b92915050565b5f602082840312156167e8576167e7615739565b5b5f6167f5848285016167bf565b9150509291505056fea2646970667358221220864a9c4ff7590465fcc4e501a3fad8bb2bdfa8db73e5f4e7e53b85cc594f950564736f6c634300081a0033",
  "linkReferences": {},
  "deployedLinkReferences": {}
}