{
  "_format": "hh-sol-artifact-1",
  "contractName": "OrionEncryptedVault",
  "sourceName": "contracts/OrionEncryptedVault.sol",
  "abi": [
    {
      "inputs": [
        {
          "internalType": "address",
          "name": "target",
          "type": "address"
        }
      ],
      "name": "AddressEmptyCode",
      "type": "error"
    },
    {
      "inputs": [
        {
          "internalType": "address",
          "name": "asset",
          "type": "address"
        }
      ],
      "name": "AmountMustBeGreaterThanZero",
      "type": "error"
    },
    {
      "inputs": [
        {
          "internalType": "address",
          "name": "implementation",
          "type": "address"
        }
      ],
      "name": "ERC1967InvalidImplementation",
      "type": "error"
    },
    {
      "inputs": [],
      "name": "ERC1967NonPayable",
      "type": "error"
    },
    {
      "inputs": [
        {
          "internalType": "address",
          "name": "spender",
          "type": "address"
        },
        {
          "internalType": "uint256",
          "name": "allowance",
          "type": "uint256"
        },
        {
          "internalType": "uint256",
          "name": "needed",
          "type": "uint256"
        }
      ],
      "name": "ERC20InsufficientAllowance",
      "type": "error"
    },
    {
      "inputs": [
        {
          "internalType": "address",
          "name": "sender",
          "type": "address"
        },
        {
          "internalType": "uint256",
          "name": "balance",
          "type": "uint256"
        },
        {
          "internalType": "uint256",
          "name": "needed",
          "type": "uint256"
        }
      ],
      "name": "ERC20InsufficientBalance",
      "type": "error"
    },
    {
      "inputs": [
        {
          "internalType": "address",
          "name": "approver",
          "type": "address"
        }
      ],
      "name": "ERC20InvalidApprover",
      "type": "error"
    },
    {
      "inputs": [
        {
          "internalType": "address",
          "name": "receiver",
          "type": "address"
        }
      ],
      "name": "ERC20InvalidReceiver",
      "type": "error"
    },
    {
      "inputs": [
        {
          "internalType": "address",
          "name": "sender",
          "type": "address"
        }
      ],
      "name": "ERC20InvalidSender",
      "type": "error"
    },
    {
      "inputs": [
        {
          "internalType": "address",
          "name": "spender",
          "type": "address"
        }
      ],
      "name": "ERC20InvalidSpender",
      "type": "error"
    },
    {
      "inputs": [
        {
          "internalType": "address",
          "name": "receiver",
          "type": "address"
        },
        {
          "internalType": "uint256",
          "name": "assets",
          "type": "uint256"
        },
        {
          "internalType": "uint256",
          "name": "max",
          "type": "uint256"
        }
      ],
      "name": "ERC4626ExceededMaxDeposit",
      "type": "error"
    },
    {
      "inputs": [
        {
          "internalType": "address",
          "name": "receiver",
          "type": "address"
        },
        {
          "internalType": "uint256",
          "name": "shares",
          "type": "uint256"
        },
        {
          "internalType": "uint256",
          "name": "max",
          "type": "uint256"
        }
      ],
      "name": "ERC4626ExceededMaxMint",
      "type": "error"
    },
    {
      "inputs": [
        {
          "internalType": "address",
          "name": "owner",
          "type": "address"
        },
        {
          "internalType": "uint256",
          "name": "shares",
          "type": "uint256"
        },
        {
          "internalType": "uint256",
          "name": "max",
          "type": "uint256"
        }
      ],
      "name": "ERC4626ExceededMaxRedeem",
      "type": "error"
    },
    {
      "inputs": [
        {
          "internalType": "address",
          "name": "owner",
          "type": "address"
        },
        {
          "internalType": "uint256",
          "name": "assets",
          "type": "uint256"
        },
        {
          "internalType": "uint256",
          "name": "max",
          "type": "uint256"
        }
      ],
      "name": "ERC4626ExceededMaxWithdraw",
      "type": "error"
    },
    {
      "inputs": [],
      "name": "FailedCall",
      "type": "error"
    },
    {
      "inputs": [],
      "name": "InvalidConfigAddress",
      "type": "error"
    },
    {
      "inputs": [],
      "name": "InvalidCuratorAddress",
      "type": "error"
    },
    {
      "inputs": [],
      "name": "InvalidInitialization",
      "type": "error"
    },
    {
      "inputs": [],
      "name": "NotCurator",
      "type": "error"
    },
    {
      "inputs": [],
      "name": "NotEnoughDepositRequest",
      "type": "error"
    },
    {
      "inputs": [],
      "name": "NotEnoughShares",
      "type": "error"
    },
    {
      "inputs": [],
      "name": "NotInitializing",
      "type": "error"
    },
    {
      "inputs": [],
      "name": "NotInternalStatesOrchestrator",
      "type": "error"
    },
    {
      "inputs": [],
      "name": "NotLiquidityOrchestrator",
      "type": "error"
    },
    {
      "inputs": [],
      "name": "OrderIntentCannotBeEmpty",
      "type": "error"
    },
    {
      "inputs": [
        {
          "internalType": "address",
          "name": "owner",
          "type": "address"
        }
      ],
      "name": "OwnableInvalidOwner",
      "type": "error"
    },
    {
      "inputs": [
        {
          "internalType": "address",
          "name": "account",
          "type": "address"
        }
      ],
      "name": "OwnableUnauthorizedAccount",
      "type": "error"
    },
    {
      "inputs": [],
      "name": "ReentrancyGuardReentrantCall",
      "type": "error"
    },
    {
      "inputs": [],
      "name": "SharesMustBeGreaterThanZero",
      "type": "error"
    },
    {
      "inputs": [],
      "name": "SynchronousDepositsDisabled",
      "type": "error"
    },
    {
      "inputs": [],
      "name": "SynchronousRedemptionsDisabled",
      "type": "error"
    },
    {
      "inputs": [],
      "name": "SynchronousWithdrawalsDisabled",
      "type": "error"
    },
    {
      "inputs": [
        {
          "internalType": "address",
          "name": "token",
          "type": "address"
        }
      ],
      "name": "TokenAlreadyInOrder",
      "type": "error"
    },
    {
      "inputs": [
        {
          "internalType": "address",
          "name": "token",
          "type": "address"
        }
      ],
      "name": "TokenNotWhitelisted",
      "type": "error"
    },
    {
      "inputs": [],
      "name": "TransferFailed",
      "type": "error"
    },
    {
      "inputs": [],
      "name": "UUPSUnauthorizedCallContext",
      "type": "error"
    },
    {
      "inputs": [
        {
          "internalType": "bytes32",
          "name": "slot",
          "type": "bytes32"
        }
      ],
      "name": "UUPSUnsupportedProxiableUUID",
      "type": "error"
    },
    {
      "inputs": [],
      "name": "ZeroPrice",
      "type": "error"
    },
    {
      "anonymous": false,
      "inputs": [
        {
          "indexed": true,
          "internalType": "address",
          "name": "owner",
          "type": "address"
        },
        {
          "indexed": true,
          "internalType": "address",
          "name": "spender",
          "type": "address"
        },
        {
          "indexed": false,
          "internalType": "uint256",
          "name": "value",
          "type": "uint256"
        }
      ],
      "name": "Approval",
      "type": "event"
    },
    {
      "anonymous": false,
      "inputs": [
        {
          "indexed": true,
          "internalType": "address",
          "name": "sender",
          "type": "address"
        },
        {
          "indexed": true,
          "internalType": "address",
          "name": "owner",
          "type": "address"
        },
        {
          "indexed": false,
          "internalType": "uint256",
          "name": "assets",
          "type": "uint256"
        },
        {
          "indexed": false,
          "internalType": "uint256",
          "name": "shares",
          "type": "uint256"
        }
      ],
      "name": "Deposit",
      "type": "event"
    },
    {
      "anonymous": false,
      "inputs": [
        {
          "indexed": true,
          "internalType": "address",
          "name": "user",
          "type": "address"
        },
        {
          "indexed": false,
          "internalType": "uint256",
          "name": "amount",
          "type": "uint256"
        },
        {
          "indexed": false,
          "internalType": "uint256",
          "name": "requestId",
          "type": "uint256"
        }
      ],
      "name": "DepositProcessed",
      "type": "event"
    },
    {
      "anonymous": false,
      "inputs": [
        {
          "indexed": true,
          "internalType": "address",
          "name": "user",
          "type": "address"
        },
        {
          "indexed": false,
          "internalType": "uint256",
          "name": "amount",
          "type": "uint256"
        },
        {
          "indexed": false,
          "internalType": "uint256",
          "name": "depositorCount",
          "type": "uint256"
        }
      ],
      "name": "DepositRequestCancelled",
      "type": "event"
    },
    {
      "anonymous": false,
      "inputs": [
        {
          "indexed": true,
          "internalType": "address",
          "name": "user",
          "type": "address"
        },
        {
          "indexed": false,
          "internalType": "uint256",
          "name": "amount",
          "type": "uint256"
        },
        {
          "indexed": false,
          "internalType": "uint256",
          "name": "requestId",
          "type": "uint256"
        }
      ],
      "name": "DepositRequested",
      "type": "event"
    },
    {
      "anonymous": false,
      "inputs": [
        {
          "indexed": false,
          "internalType": "uint64",
          "name": "version",
          "type": "uint64"
        }
      ],
      "name": "Initialized",
      "type": "event"
    },
    {
      "anonymous": false,
      "inputs": [
        {
          "indexed": true,
          "internalType": "address",
          "name": "curator",
          "type": "address"
        }
      ],
      "name": "OrderSubmitted",
      "type": "event"
    },
    {
      "anonymous": false,
      "inputs": [
        {
          "indexed": true,
          "internalType": "address",
          "name": "previousOwner",
          "type": "address"
        },
        {
          "indexed": true,
          "internalType": "address",
          "name": "newOwner",
          "type": "address"
        }
      ],
      "name": "OwnershipTransferStarted",
      "type": "event"
    },
    {
      "anonymous": false,
      "inputs": [
        {
          "indexed": true,
          "internalType": "address",
          "name": "previousOwner",
          "type": "address"
        },
        {
          "indexed": true,
          "internalType": "address",
          "name": "newOwner",
          "type": "address"
        }
      ],
      "name": "OwnershipTransferred",
      "type": "event"
    },
    {
      "anonymous": false,
      "inputs": [
        {
          "indexed": true,
          "internalType": "address",
          "name": "from",
          "type": "address"
        },
        {
          "indexed": true,
          "internalType": "address",
          "name": "to",
          "type": "address"
        },
        {
          "indexed": false,
          "internalType": "uint256",
          "name": "value",
          "type": "uint256"
        }
      ],
      "name": "Transfer",
      "type": "event"
    },
    {
      "anonymous": false,
      "inputs": [
        {
          "indexed": true,
          "internalType": "address",
          "name": "implementation",
          "type": "address"
        }
      ],
      "name": "Upgraded",
      "type": "event"
    },
    {
      "anonymous": false,
      "inputs": [
        {
          "indexed": false,
          "internalType": "uint256",
          "name": "newSharePrice",
          "type": "uint256"
        },
        {
          "indexed": false,
          "internalType": "uint256",
          "name": "newTotalAssets",
          "type": "uint256"
        }
      ],
      "name": "VaultStateUpdated",
      "type": "event"
    },
    {
      "anonymous": false,
      "inputs": [
        {
          "indexed": true,
          "internalType": "address",
          "name": "sender",
          "type": "address"
        },
        {
          "indexed": true,
          "internalType": "address",
          "name": "receiver",
          "type": "address"
        },
        {
          "indexed": true,
          "internalType": "address",
          "name": "owner",
          "type": "address"
        },
        {
          "indexed": false,
          "internalType": "uint256",
          "name": "assets",
          "type": "uint256"
        },
        {
          "indexed": false,
          "internalType": "uint256",
          "name": "shares",
          "type": "uint256"
        }
      ],
      "name": "Withdraw",
      "type": "event"
    },
    {
      "anonymous": false,
      "inputs": [
        {
          "indexed": true,
          "internalType": "address",
          "name": "user",
          "type": "address"
        },
        {
          "indexed": false,
          "internalType": "uint256",
          "name": "shares",
          "type": "uint256"
        },
        {
          "indexed": false,
          "internalType": "uint256",
          "name": "requestId",
          "type": "uint256"
        }
      ],
      "name": "WithdrawProcessed",
      "type": "event"
    },
    {
      "anonymous": false,
      "inputs": [
        {
          "indexed": true,
          "internalType": "address",
          "name": "user",
          "type": "address"
        },
        {
          "indexed": false,
          "internalType": "uint256",
          "name": "shares",
          "type": "uint256"
        },
        {
          "indexed": false,
          "internalType": "uint256",
          "name": "requestId",
          "type": "uint256"
        }
      ],
      "name": "WithdrawRequested",
      "type": "event"
    },
    {
      "inputs": [],
      "name": "UPGRADE_INTERFACE_VERSION",
      "outputs": [
        {
          "internalType": "string",
          "name": "",
          "type": "string"
        }
      ],
      "stateMutability": "view",
      "type": "function"
    },
    {
      "inputs": [],
      "name": "acceptOwnership",
      "outputs": [],
      "stateMutability": "nonpayable",
      "type": "function"
    },
    {
      "inputs": [
        {
          "internalType": "address",
          "name": "owner",
          "type": "address"
        },
        {
          "internalType": "address",
          "name": "spender",
          "type": "address"
        }
      ],
      "name": "allowance",
      "outputs": [
        {
          "internalType": "uint256",
          "name": "",
          "type": "uint256"
        }
      ],
      "stateMutability": "view",
      "type": "function"
    },
    {
      "inputs": [
        {
          "internalType": "address",
          "name": "spender",
          "type": "address"
        },
        {
          "internalType": "uint256",
          "name": "value",
          "type": "uint256"
        }
      ],
      "name": "approve",
      "outputs": [
        {
          "internalType": "bool",
          "name": "",
          "type": "bool"
        }
      ],
      "stateMutability": "nonpayable",
      "type": "function"
    },
    {
      "inputs": [],
      "name": "asset",
      "outputs": [
        {
          "internalType": "address",
          "name": "",
          "type": "address"
        }
      ],
      "stateMutability": "view",
      "type": "function"
    },
    {
      "inputs": [
        {
          "internalType": "address",
          "name": "account",
          "type": "address"
        }
      ],
      "name": "balanceOf",
      "outputs": [
        {
          "internalType": "uint256",
          "name": "",
          "type": "uint256"
        }
      ],
      "stateMutability": "view",
      "type": "function"
    },
    {
      "inputs": [
        {
          "internalType": "uint256",
          "name": "amount",
          "type": "uint256"
        }
      ],
      "name": "cancelDepositRequest",
      "outputs": [],
      "stateMutability": "nonpayable",
      "type": "function"
    },
    {
      "inputs": [],
      "name": "config",
      "outputs": [
        {
          "internalType": "contract IOrionConfig",
          "name": "",
          "type": "address"
        }
      ],
      "stateMutability": "view",
      "type": "function"
    },
    {
      "inputs": [
        {
          "internalType": "uint256",
          "name": "shares",
          "type": "uint256"
        }
      ],
      "name": "convertToAssets",
      "outputs": [
        {
          "internalType": "uint256",
          "name": "",
          "type": "uint256"
        }
      ],
      "stateMutability": "view",
      "type": "function"
    },
    {
      "inputs": [
        {
          "internalType": "uint256",
          "name": "assets",
          "type": "uint256"
        }
      ],
      "name": "convertToShares",
      "outputs": [
        {
          "internalType": "uint256",
          "name": "",
          "type": "uint256"
        }
      ],
      "stateMutability": "view",
      "type": "function"
    },
    {
      "inputs": [],
      "name": "curator",
      "outputs": [
        {
          "internalType": "address",
          "name": "",
          "type": "address"
        }
      ],
      "stateMutability": "view",
      "type": "function"
    },
    {
      "inputs": [],
      "name": "decimals",
      "outputs": [
        {
          "internalType": "uint8",
          "name": "",
          "type": "uint8"
        }
      ],
      "stateMutability": "view",
      "type": "function"
    },
    {
      "inputs": [],
      "name": "deployer",
      "outputs": [
        {
          "internalType": "address",
          "name": "",
          "type": "address"
        }
      ],
      "stateMutability": "view",
      "type": "function"
    },
    {
      "inputs": [
        {
          "internalType": "uint256",
          "name": "",
          "type": "uint256"
        },
        {
          "internalType": "address",
          "name": "",
          "type": "address"
        }
      ],
      "name": "deposit",
      "outputs": [
        {
          "internalType": "uint256",
          "name": "",
          "type": "uint256"
        }
      ],
      "stateMutability": "pure",
      "type": "function"
    },
    {
      "inputs": [],
      "name": "getPendingDeposits",
      "outputs": [
        {
          "internalType": "uint256",
          "name": "",
          "type": "uint256"
        }
      ],
      "stateMutability": "view",
      "type": "function"
    },
    {
      "inputs": [],
      "name": "getPendingWithdrawals",
      "outputs": [
        {
          "internalType": "uint256",
          "name": "",
          "type": "uint256"
        }
      ],
      "stateMutability": "view",
      "type": "function"
    },
    {
      "inputs": [
        {
          "internalType": "address",
          "name": "curatorAddress",
          "type": "address"
        },
        {
          "internalType": "contract IOrionConfig",
          "name": "configAddress",
          "type": "address"
        },
        {
          "internalType": "string",
          "name": "name",
          "type": "string"
        },
        {
          "internalType": "string",
          "name": "symbol",
          "type": "string"
        }
      ],
      "name": "initialize",
      "outputs": [],
      "stateMutability": "nonpayable",
      "type": "function"
    },
    {
      "inputs": [
        {
          "internalType": "address",
          "name": "",
          "type": "address"
        }
      ],
      "name": "maxDeposit",
      "outputs": [
        {
          "internalType": "uint256",
          "name": "",
          "type": "uint256"
        }
      ],
      "stateMutability": "view",
      "type": "function"
    },
    {
      "inputs": [
        {
          "internalType": "address",
          "name": "",
          "type": "address"
        }
      ],
      "name": "maxMint",
      "outputs": [
        {
          "internalType": "uint256",
          "name": "",
          "type": "uint256"
        }
      ],
      "stateMutability": "view",
      "type": "function"
    },
    {
      "inputs": [
        {
          "internalType": "address",
          "name": "owner",
          "type": "address"
        }
      ],
      "name": "maxRedeem",
      "outputs": [
        {
          "internalType": "uint256",
          "name": "",
          "type": "uint256"
        }
      ],
      "stateMutability": "view",
      "type": "function"
    },
    {
      "inputs": [
        {
          "internalType": "address",
          "name": "owner",
          "type": "address"
        }
      ],
      "name": "maxWithdraw",
      "outputs": [
        {
          "internalType": "uint256",
          "name": "",
          "type": "uint256"
        }
      ],
      "stateMutability": "view",
      "type": "function"
    },
    {
      "inputs": [
        {
          "internalType": "uint256",
          "name": "",
          "type": "uint256"
        },
        {
          "internalType": "address",
          "name": "",
          "type": "address"
        }
      ],
      "name": "mint",
      "outputs": [
        {
          "internalType": "uint256",
          "name": "",
          "type": "uint256"
        }
      ],
      "stateMutability": "pure",
      "type": "function"
    },
    {
      "inputs": [],
      "name": "name",
      "outputs": [
        {
          "internalType": "string",
          "name": "",
          "type": "string"
        }
      ],
      "stateMutability": "view",
      "type": "function"
    },
    {
      "inputs": [],
      "name": "owner",
      "outputs": [
        {
          "internalType": "address",
          "name": "",
          "type": "address"
        }
      ],
      "stateMutability": "view",
      "type": "function"
    },
    {
      "inputs": [],
      "name": "pendingOwner",
      "outputs": [
        {
          "internalType": "address",
          "name": "",
          "type": "address"
        }
      ],
      "stateMutability": "view",
      "type": "function"
    },
    {
      "inputs": [
        {
          "internalType": "uint256",
          "name": "assets",
          "type": "uint256"
        }
      ],
      "name": "previewDeposit",
      "outputs": [
        {
          "internalType": "uint256",
          "name": "",
          "type": "uint256"
        }
      ],
      "stateMutability": "view",
      "type": "function"
    },
    {
      "inputs": [
        {
          "internalType": "uint256",
          "name": "shares",
          "type": "uint256"
        }
      ],
      "name": "previewMint",
      "outputs": [
        {
          "internalType": "uint256",
          "name": "",
          "type": "uint256"
        }
      ],
      "stateMutability": "view",
      "type": "function"
    },
    {
      "inputs": [
        {
          "internalType": "uint256",
          "name": "shares",
          "type": "uint256"
        }
      ],
      "name": "previewRedeem",
      "outputs": [
        {
          "internalType": "uint256",
          "name": "",
          "type": "uint256"
        }
      ],
      "stateMutability": "view",
      "type": "function"
    },
    {
      "inputs": [
        {
          "internalType": "uint256",
          "name": "assets",
          "type": "uint256"
        }
      ],
      "name": "previewWithdraw",
      "outputs": [
        {
          "internalType": "uint256",
          "name": "",
          "type": "uint256"
        }
      ],
      "stateMutability": "view",
      "type": "function"
    },
    {
      "inputs": [],
      "name": "processDepositRequests",
      "outputs": [],
      "stateMutability": "nonpayable",
      "type": "function"
    },
    {
      "inputs": [],
      "name": "processWithdrawRequests",
      "outputs": [],
      "stateMutability": "nonpayable",
      "type": "function"
    },
    {
      "inputs": [],
      "name": "proxiableUUID",
      "outputs": [
        {
          "internalType": "bytes32",
          "name": "",
          "type": "bytes32"
        }
      ],
      "stateMutability": "view",
      "type": "function"
    },
    {
      "inputs": [
        {
          "internalType": "uint256",
          "name": "",
          "type": "uint256"
        },
        {
          "internalType": "address",
          "name": "",
          "type": "address"
        },
        {
          "internalType": "address",
          "name": "",
          "type": "address"
        }
      ],
      "name": "redeem",
      "outputs": [
        {
          "internalType": "uint256",
          "name": "",
          "type": "uint256"
        }
      ],
      "stateMutability": "pure",
      "type": "function"
    },
    {
      "inputs": [],
      "name": "renounceOwnership",
      "outputs": [],
      "stateMutability": "nonpayable",
      "type": "function"
    },
    {
      "inputs": [
        {
          "internalType": "uint256",
          "name": "amount",
          "type": "uint256"
        }
      ],
      "name": "requestDeposit",
      "outputs": [],
      "stateMutability": "nonpayable",
      "type": "function"
    },
    {
      "inputs": [
        {
          "internalType": "uint256",
          "name": "shares",
          "type": "uint256"
        }
      ],
      "name": "requestWithdraw",
      "outputs": [],
      "stateMutability": "nonpayable",
      "type": "function"
    },
    {
      "inputs": [],
      "name": "sharePrice",
      "outputs": [
        {
          "internalType": "uint256",
          "name": "",
          "type": "uint256"
        }
      ],
      "stateMutability": "view",
      "type": "function"
    },
    {
      "inputs": [
        {
          "components": [
            {
              "internalType": "address",
              "name": "token",
              "type": "address"
            },
            {
              "internalType": "euint32",
              "name": "weight",
              "type": "uint256"
            }
          ],
          "internalType": "struct IOrionEncryptedVault.EncryptedOrder[]",
          "name": "order",
          "type": "tuple[]"
        }
      ],
      "name": "submitOrderIntent",
      "outputs": [],
      "stateMutability": "nonpayable",
      "type": "function"
    },
    {
      "inputs": [],
      "name": "symbol",
      "outputs": [
        {
          "internalType": "string",
          "name": "",
          "type": "string"
        }
      ],
      "stateMutability": "view",
      "type": "function"
    },
    {
      "inputs": [],
      "name": "totalAssets",
      "outputs": [
        {
          "internalType": "uint256",
          "name": "",
          "type": "uint256"
        }
      ],
      "stateMutability": "view",
      "type": "function"
    },
    {
      "inputs": [],
      "name": "totalSupply",
      "outputs": [
        {
          "internalType": "uint256",
          "name": "",
          "type": "uint256"
        }
      ],
      "stateMutability": "view",
      "type": "function"
    },
    {
      "inputs": [
        {
          "internalType": "address",
          "name": "to",
          "type": "address"
        },
        {
          "internalType": "uint256",
          "name": "value",
          "type": "uint256"
        }
      ],
      "name": "transfer",
      "outputs": [
        {
          "internalType": "bool",
          "name": "",
          "type": "bool"
        }
      ],
      "stateMutability": "nonpayable",
      "type": "function"
    },
    {
      "inputs": [
        {
          "internalType": "address",
          "name": "from",
          "type": "address"
        },
        {
          "internalType": "address",
          "name": "to",
          "type": "address"
        },
        {
          "internalType": "uint256",
          "name": "value",
          "type": "uint256"
        }
      ],
      "name": "transferFrom",
      "outputs": [
        {
          "internalType": "bool",
          "name": "",
          "type": "bool"
        }
      ],
      "stateMutability": "nonpayable",
      "type": "function"
    },
    {
      "inputs": [
        {
          "internalType": "address",
          "name": "newOwner",
          "type": "address"
        }
      ],
      "name": "transferOwnership",
      "outputs": [],
      "stateMutability": "nonpayable",
      "type": "function"
    },
    {
      "inputs": [
        {
          "internalType": "uint256",
          "name": "newSharePrice",
          "type": "uint256"
        },
        {
          "internalType": "uint256",
          "name": "newTotalAssets",
          "type": "uint256"
        }
      ],
      "name": "updateVaultState",
      "outputs": [],
      "stateMutability": "nonpayable",
      "type": "function"
    },
    {
      "inputs": [
        {
          "internalType": "address",
          "name": "newImplementation",
          "type": "address"
        },
        {
          "internalType": "bytes",
          "name": "data",
          "type": "bytes"
        }
      ],
      "name": "upgradeToAndCall",
      "outputs": [],
      "stateMutability": "payable",
      "type": "function"
    },
    {
      "inputs": [
        {
          "internalType": "uint256",
          "name": "",
          "type": "uint256"
        },
        {
          "internalType": "address",
          "name": "",
          "type": "address"
        },
        {
          "internalType": "address",
          "name": "",
          "type": "address"
        }
      ],
      "name": "withdraw",
      "outputs": [
        {
          "internalType": "uint256",
          "name": "",
          "type": "uint256"
        }
      ],
      "stateMutability": "pure",
      "type": "function"
    }
  ],
  "bytecode": "0x60a0604052306080523480156012575f80fd5b506080516130776100395f395f8181611d0001528181611d290152611e8b01526130775ff3fe608060405260043610610280575f3560e01c80638726972911610155578063c37fc8a8116100be578063d905777e11610078578063d905777e146106f6578063dd62ed3e14610715578063e30c397814610734578063e66f53b714610748578063ef8b30f714610685578063f2fde38b14610767575f80fd5b8063c37fc8a814610671578063c63d75b61461044c578063c6e6f59214610685578063ce96cb77146106a4578063d1699c26146106c3578063d5f39488146106d7575f80fd5b8063aa9d3a601161010f578063aa9d3a60146105b1578063ad3cb1cc146105c5578063b3d7f6b9146105f5578063b460af9414610614578063ba08765214610633578063c0b568e114610652575f80fd5b806387269729146105365780638da5cb5b1461054b57806394bf804d1461049357806395d89b411461055f5780639c055a6614610573578063a9059cbb14610592575f80fd5b806333fdc592116101f75780636e553f65116101b15780636e553f651461049357806370a08231146104b2578063715018a6146104d1578063745400c9146104e557806379502c551461050457806379ba509714610522575f80fd5b806333fdc5921461040c57806338d52e0f14610420578063402d267d1461044c5780634cdad506146102c85780634f1ef2861461046c57806352d1902d1461047f575f80fd5b80630d1e6667116102485780630d1e66671461033557806318160ddd146103565780632016a0d21461038957806323b872dd146103a8578063313ce567146103c7578063329f0123146103ed575f80fd5b806301e1d1141461028457806306fdde03146102a757806307a2d13a146102c8578063095ea7b3146102e75780630a28a47714610316575b5f80fd5b34801561028f575f80fd5b506004545b6040519081526020015b60405180910390f35b3480156102b2575f80fd5b506102bb610786565b60405161029e91906128b6565b3480156102d3575f80fd5b506102946102e23660046128eb565b610846565b3480156102f2575f80fd5b50610306610301366004612916565b610857565b604051901515815260200161029e565b348015610321575f80fd5b506102946103303660046128eb565b61086e565b348015610340575f80fd5b5061035461034f3660046128eb565b61087a565b005b348015610361575f80fd5b507f52c63247e1f47db19d5ce0460030c497f067ca4cebf71ba98eeadabe20bace0254610294565b348015610394575f80fd5b506103546103a3366004612985565b610a33565b3480156103b3575f80fd5b506103066103c2366004612a19565b610b9b565b3480156103d2575f80fd5b506103db610bc0565b60405160ff909116815260200161029e565b3480156103f8575f80fd5b50610354610407366004612a57565b610c02565b348015610417575f80fd5b50610354610d0c565b34801561042b575f80fd5b50610434610e95565b6040516001600160a01b03909116815260200161029e565b348015610457575f80fd5b50610294610466366004612a77565b505f1990565b61035461047a366004612aa6565b610ec9565b34801561048a575f80fd5b50610294610ee8565b34801561049e575f80fd5b506102946104ad366004612b6c565b610f03565b3480156104bd575f80fd5b506102946104cc366004612a77565b610f1d565b3480156104dc575f80fd5b50610354610f43565b3480156104f0575f80fd5b506103546104ff3660046128eb565b610f54565b34801561050f575f80fd5b505f54610434906001600160a01b031681565b34801561052d575f80fd5b5061035461106a565b348015610541575f80fd5b5061029460035481565b348015610556575f80fd5b506104346110af565b34801561056a575f80fd5b506102bb6110d7565b34801561057e575f80fd5b5061035461058d366004612b9a565b611115565b34801561059d575f80fd5b506103066105ac366004612916565b6112c6565b3480156105bc575f80fd5b506103546112d3565b3480156105d0575f80fd5b506102bb604051806040016040528060058152602001640352e302e360dc1b81525081565b348015610600575f80fd5b5061029461060f3660046128eb565b6114c4565b34801561061f575f80fd5b5061029461062e366004612c0b565b6114d0565b34801561063e575f80fd5b5061029461064d366004612c0b565b6114e9565b34801561065d575f80fd5b5061035461066c3660046128eb565b611503565b34801561067c575f80fd5b5061029461165b565b348015610690575f80fd5b5061029461069f3660046128eb565b6116c2565b3480156106af575f80fd5b506102946106be366004612a77565b6116cd565b3480156106ce575f80fd5b506102946116e0565b3480156106e2575f80fd5b50600254610434906001600160a01b031681565b348015610701575f80fd5b50610294610710366004612a77565b61173f565b348015610720575f80fd5b5061029461072f366004612c4a565b611749565b34801561073f575f80fd5b50610434611792565b348015610753575f80fd5b50600154610434906001600160a01b031681565b348015610772575f80fd5b50610354610781366004612a77565b6117ba565b7f52c63247e1f47db19d5ce0460030c497f067ca4cebf71ba98eeadabe20bace0380546060915f80516020612fe2833981519152916107c490612c76565b80601f01602080910402602001604051908101604052809291908181526020018280546107f090612c76565b801561083b5780601f106108125761010080835404028352916020019161083b565b820191905f5260205f20905b81548152906001019060200180831161081e57829003601f168201915b505050505091505090565b5f610851825f61183f565b92915050565b5f3361086481858561191a565b5060019392505050565b5f61085182600161192c565b6108826119f4565b805f036108bb57610891610e95565b604051636b30633560e01b81526001600160a01b0390911660048201526024015b60405180910390fd5b335f90815260056020526040812054900361091257600780546001810182555f919091527fa66cc928b5edb82af9bd49922954155ab7b0942694bea4ce44661d9a8736c6880180546001600160a01b031916331790555b335f9081526005602052604081208054839290610930908490612cc2565b909155505f905061093f610e95565b6040516323b872dd60e01b8152336004820152306024820152604481018490526001600160a01b0391909116906323b872dd906064016020604051808303815f875af1158015610991573d5f803e3d5ffd5b505050506040513d601f19601f820116820180604052508101906109b59190612cd5565b9050806109d5576040516312171d8360e31b815260040160405180910390fd5b60075460405133917f03979a8c481a9e9c06938045cfd5c28535255cb003b10a8fe84ebb3cb4d440f291610a1191868252602082015260400190565b60405180910390a250610a3060015f8051602061302283398151915255565b50565b5f610a3c611a3e565b805490915060ff600160401b820416159067ffffffffffffffff165f81158015610a635750825b90505f8267ffffffffffffffff166001148015610a7f5750303b155b905081158015610a8d575080155b15610aab5760405163f92ee8a960e01b815260040160405180910390fd5b845467ffffffffffffffff191660011785558315610ad557845460ff60401b1916600160401b1785555b610b488b8b8b8b8080601f0160208091040260200160405190810160405280939291908181526020018383808284375f9201919091525050604080516020601f8f018190048102820181019092528d815292508d91508c90819084018382808284375f92019190915250611a6692505050565b8315610b8e57845460ff60401b19168555604051600181527fc7f505b2f371ae2175ee4913f4499e1f2633a7b5936321eed1cdaeb6115181d29060200160405180910390a15b5050505050505050505050565b5f33610ba8858285611c00565b610bb3858585611c64565b60019150505b9392505050565b5f807f0773e532dfede91f04b12a73d3d2acd361424f41f76b4fb79f090161e36b4e0090505f8154610bfc9190600160a01b900460ff16612cf4565b91505090565b5f8054906101000a90046001600160a01b03166001600160a01b031663348ec5c86040518163ffffffff1660e01b8152600401602060405180830381865afa158015610c50573d5f803e3d5ffd5b505050506040513d601f19601f82011682018060405250810190610c749190612d0d565b6001600160a01b0316336001600160a01b031614610ca55760405163efb380d960e01b815260040160405180910390fd5b815f03610cc557604051634dfba02360e01b815260040160405180910390fd5b6003829055600481905560408051838152602081018390527f420468cf8110435de2f48db96f01d6a65a842cb7ac5852c11fcbac8dc93b46b3910160405180910390a15050565b5f8054906101000a90046001600160a01b03166001600160a01b0316633a0dad8e6040518163ffffffff1660e01b8152600401602060405180830381865afa158015610d5a573d5f803e3d5ffd5b505050506040513d601f19601f82011682018060405250810190610d7e9190612d0d565b6001600160a01b0316336001600160a01b031614610daf57604051631af2ab4f60e31b815260040160405180910390fd5b610db76119f4565b6007545f5b81811015610e7b575f60078281548110610dd857610dd8612d28565b5f9182526020808320909101546001600160a01b03168083526005909152604082205490925090610e08826116c2565b6001600160a01b0384165f908152600560205260408120559050610e2c8382611cc1565b60408051838152602081018690526001600160a01b038516917f782ea2005b7f873a0190a1ccb553c732171348d6e16d2b7d3d493c0677dc296e910160405180910390a2505050600101610dbc565b5050610e9360015f8051602061302283398151915255565b565b5f807f0773e532dfede91f04b12a73d3d2acd361424f41f76b4fb79f090161e36b4e005b546001600160a01b031692915050565b610ed1611cf5565b610eda82611d99565b610ee48282611dc4565b5050565b5f610ef1611e80565b505f8051602061300283398151915290565b5f6040516318f2e47360e11b815260040160405180910390fd5b6001600160a01b03165f9081525f80516020612fe2833981519152602052604090205490565b610f4b611ec9565b610e935f611efb565b805f03610f74576040516314e6cbb960e11b815260040160405180910390fd5b80610f7e33610f1d565b1015610f9d57604051633c57b48560e21b815260040160405180910390fd5b335f908152600660205260408120549003610ff457600880546001810182555f919091527ff3f7a9fe364faab93b216da50a3214154f22a0a2b415b23a84c8169e8b636ee30180546001600160a01b031916331790555b335f9081526006602052604081208054839290611012908490612cc2565b909155506110239050333083611c64565b60085460405133917fd72eb5d043f24a0168ae744d5c44f9596fd673a26bf74d9646bff4b844882d149161105f91858252602082015260400190565b60405180910390a250565b3380611074611792565b6001600160a01b0316146110a65760405163118cdaa760e01b81526001600160a01b03821660048201526024016108b2565b610a3081611efb565b5f807f9016d09d72d40fdae2fd8ceac6b6234c7706214fd39c1cd1e609a0528c199300610eb9565b7f52c63247e1f47db19d5ce0460030c497f067ca4cebf71ba98eeadabe20bace0480546060915f80516020612fe2833981519152916107c490612c76565b6001546001600160a01b03163314611140576040516356b381a560e01b815260040160405180910390fd5b5f81900361116157604051631121aa8d60e01b815260040160405180910390fd5b61116b6009611f33565b5f5b81811015611297575f83838381811061118857611188612d28565b61119e9260206040909202019081019150612a77565b90505f8484848181106111b3576111b3612d28565b5f5460408051633af32abf60e01b81526001600160a01b03888116600483015260209290940295909501013594501691633af32abf9150602401602060405180830381865afa158015611208573d5f803e3d5ffd5b505050506040513d601f19601f8201168201806040525081019061122c9190612cd5565b6112545760405163751dff9760e11b81526001600160a01b03831660048201526024016108b2565b5f61126160098484611f3c565b90508061128c576040516346bdabe160e01b81526001600160a01b03841660048201526024016108b2565b50505060010161116d565b5060405133907f2d47a742b8d7df7c1fc5a9a631b206b364e6cb2722490759f63bb3ab14b132e0905f90a25050565b5f33610864818585611c64565b5f8054906101000a90046001600160a01b03166001600160a01b0316633a0dad8e6040518163ffffffff1660e01b8152600401602060405180830381865afa158015611321573d5f803e3d5ffd5b505050506040513d601f19601f820116820180604052508101906113459190612d0d565b6001600160a01b0316336001600160a01b03161461137657604051631af2ab4f60e31b815260040160405180910390fd5b61137e6119f4565b6008545f5b81811015610e7b575f6008828154811061139f5761139f612d28565b5f9182526020808320909101546001600160a01b0316808352600690915260408220805492905591506113d23082611f59565b5f6113dc82610846565b90506113e6610e95565b60405163a9059cbb60e01b81526001600160a01b03858116600483015260248201849052919091169063a9059cbb906044016020604051808303815f875af1158015611434573d5f803e3d5ffd5b505050506040513d601f19601f820116820180604052508101906114589190612cd5565b611475576040516312171d8360e31b815260040160405180910390fd5b60408051838152602081018690526001600160a01b038516917febad37b830b1857ef9af5983fc20dc0ded12dc472ba1e22e06fd3a9465b4506c910160405180910390a2505050600101611383565b5f61085182600161183f565b5f604051628a595160e01b815260040160405180910390fd5b5f604051630ad8521960e31b815260040160405180910390fd5b61150b6119f4565b805f0361151a57610891610e95565b335f90815260056020526040902054811115611549576040516332194fd360e21b815260040160405180910390fd5b335f9081526005602052604081208054839290611567908490612d3c565b90915550506007545f611578610e95565b60405163a9059cbb60e01b8152336004820152602481018590526001600160a01b03919091169063a9059cbb906044016020604051808303815f875af11580156115c4573d5f803e3d5ffd5b505050506040513d601f19601f820116820180604052508101906115e89190612cd5565b905080611608576040516312171d8360e31b815260040160405180910390fd5b604080518481526020810184905233917f2b19ac8271899522bfff26e405c20643af4cdf99b525ef2cd8cde689644874ae910160405180910390a25050610a3060015f8051602061302283398151915255565b6008545f908190815b818110156116ba5760065f6008838154811061168257611682612d28565b5f9182526020808320909101546001600160a01b031683528201929092526040019020546116b09084612cc2565b9250600101611664565b509092915050565b5f610851825f61192c565b5f6108516116da83610f1d565b5f61183f565b6007545f908190815b818110156116ba5760055f6007838154811061170757611707612d28565b5f9182526020808320909101546001600160a01b031683528201929092526040019020546117359084612cc2565b92506001016116e9565b5f61085182610f1d565b6001600160a01b039182165f9081527f52c63247e1f47db19d5ce0460030c497f067ca4cebf71ba98eeadabe20bace016020908152604080832093909416825291909152205490565b5f807f237e158222e3e6968b72b9db0d8043aacf074ad9f650f0d1606b4d82ee432c00610eb9565b6117c2611ec9565b7f237e158222e3e6968b72b9db0d8043aacf074ad9f650f0d1606b4d82ee432c0080546001600160a01b0319166001600160a01b03831690811782556118066110af565b6001600160a01b03167f38d16b8cac22d99fc7c124b9cd0de2d3fa1faef420bfe791d8c362d765e2270060405160405180910390a35050565b5f806118697f52c63247e1f47db19d5ce0460030c497f067ca4cebf71ba98eeadabe20bace025490565b90505f805f9054906101000a90046001600160a01b03166001600160a01b031663b71ee4fc6040518163ffffffff1660e01b8152600401602060405180830381865afa1580156118bb573d5f803e3d5ffd5b505050506040513d601f19601f820116820180604052508101906118df9190612d4f565b905061191160045460016118f39190612cc2565b6118fe83600a612e52565b6119089085612cc2565b87919087611f8d565b95945050505050565b6119278383836001611fcf565b505050565b5f806119567f52c63247e1f47db19d5ce0460030c497f067ca4cebf71ba98eeadabe20bace025490565b90505f805f9054906101000a90046001600160a01b03166001600160a01b031663b71ee4fc6040518163ffffffff1660e01b8152600401602060405180830381865afa1580156119a8573d5f803e3d5ffd5b505050506040513d601f19601f820116820180604052508101906119cc9190612d4f565b90506119116119dc82600a612e52565b6119e69084612cc2565b600454611908906001612cc2565b5f80516020613022833981519152805460011901611a2557604051633ee5aeb560e01b815260040160405180910390fd5b60029055565b60015f8051602061302283398151915255565b5f807ff0c57e16840df040f15088dc2f81fe391c3923bec73e23a9662efc9c229c6a00610851565b611a6e6120b3565b6001600160a01b038416611a9557604051639c6bb9f560e01b815260040160405180910390fd5b6001600160a01b038316611abc57604051636a485a5b60e11b815260040160405180910390fd5b611ac682826120d8565b611b2e836001600160a01b0316637158da7c6040518163ffffffff1660e01b8152600401602060405180830381865afa158015611b05573d5f803e3d5ffd5b505050506040513d601f19601f82011682018060405250810190611b299190612d0d565b6120ea565b611b366120fb565b611b3e61210b565b611b4661210b565b611b4f84611efb565b60028054336001600160a01b0319918216179091556001805482166001600160a01b03878116919091179091555f805490921690851690811790915560408051632dc7b93f60e21b8152905163b71ee4fc916004808201926020929091908290030181865afa158015611bc4573d5f803e3d5ffd5b505050506040513d601f19601f82011682018060405250810190611be89190612d4f565b611bf390600a612e52565b60035550505f6004555050565b5f611c0b8484611749565b90505f19811015611c5e5781811015611c5057604051637dc7a0d960e11b81526001600160a01b038416600482015260248101829052604481018390526064016108b2565b611c5e84848484035f611fcf565b50505050565b6001600160a01b038316611c8d57604051634b637e8f60e11b81525f60048201526024016108b2565b6001600160a01b038216611cb65760405163ec442f0560e01b81525f60048201526024016108b2565b611927838383612113565b6001600160a01b038216611cea5760405163ec442f0560e01b81525f60048201526024016108b2565b610ee45f8383612113565b306001600160a01b037f0000000000000000000000000000000000000000000000000000000000000000161480611d7b57507f00000000000000000000000000000000000000000000000000000000000000006001600160a01b0316611d6f5f80516020613002833981519152546001600160a01b031690565b6001600160a01b031614155b15610e935760405163703e46dd60e11b815260040160405180910390fd5b6001546001600160a01b03163314610a30576040516356b381a560e01b815260040160405180910390fd5b816001600160a01b03166352d1902d6040518163ffffffff1660e01b8152600401602060405180830381865afa925050508015611e1e575060408051601f3d908101601f19168201909252611e1b91810190612e60565b60015b611e4657604051634c9c8ce360e01b81526001600160a01b03831660048201526024016108b2565b5f805160206130028339815191528114611e7657604051632a87526960e21b8152600481018290526024016108b2565b611927838361224c565b306001600160a01b037f00000000000000000000000000000000000000000000000000000000000000001614610e935760405163703e46dd60e11b815260040160405180910390fd5b33611ed26110af565b6001600160a01b031614610e935760405163118cdaa760e01b81523360048201526024016108b2565b7f237e158222e3e6968b72b9db0d8043aacf074ad9f650f0d1606b4d82ee432c0080546001600160a01b0319168155610ee4826122a1565b610a3081612311565b5f611f51846001600160a01b0385168461235a565b949350505050565b6001600160a01b038216611f8257604051634b637e8f60e11b81525f60048201526024016108b2565b610ee4825f83612113565b5f611fba611f9a83612376565b8015611fb557505f8480611fb057611fb0612e77565b868809115b151590565b611fc58686866123a2565b6119119190612cc2565b5f80516020612fe28339815191526001600160a01b0385166120065760405163e602df0560e01b81525f60048201526024016108b2565b6001600160a01b03841661202f57604051634a1406b160e11b81525f60048201526024016108b2565b6001600160a01b038086165f908152600183016020908152604080832093881683529290522083905581156120ac57836001600160a01b0316856001600160a01b03167f8c5be1e5ebec7d5bd14f71427d1e84f3dd0314c0f7b2291e5b200ac8c7c3b925856040516120a391815260200190565b60405180910390a35b5050505050565b6120bb612452565b610e9357604051631afcd79f60e31b815260040160405180910390fd5b6120e06120b3565b610ee4828261246b565b6120f26120b3565b610a30816124bb565b6121036120b3565b610e9361253e565b610e936120b3565b5f80516020612fe28339815191526001600160a01b03841661214d5781816002015f8282546121429190612cc2565b909155506121bd9050565b6001600160a01b0384165f908152602082905260409020548281101561219f5760405163391434e360e21b81526001600160a01b038616600482015260248101829052604481018490526064016108b2565b6001600160a01b0385165f9081526020839052604090209083900390555b6001600160a01b0383166121db5760028101805483900390556121f9565b6001600160a01b0383165f9081526020829052604090208054830190555b826001600160a01b0316846001600160a01b03167fddf252ad1be2c89b69c2b068fc378daa952ba7f163c4a11628f55a4df523b3ef8460405161223e91815260200190565b60405180910390a350505050565b61225582612546565b6040516001600160a01b038316907fbc7cd75a20ee27fd9adebab32041f755214dbc6bffa90cc0225b39da2e5c2d3b905f90a28051156122995761192782826125a9565b610ee4612612565b7f9016d09d72d40fdae2fd8ceac6b6234c7706214fd39c1cd1e609a0528c19930080546001600160a01b031981166001600160a01b03848116918217845560405192169182907f8be0079c531659141344cd1fd0a4f28419497f9722a3daafe3b4186f6b6457e0905f90a3505050565b5f61231b82612631565b90505f5b8181101561235057600283015f612336858461263b565b815260208101919091526040015f9081205560010161231f565b50610ee482612646565b5f8281526002840160205260408120829055611f51848461264f565b5f600282600381111561238b5761238b612e8b565b6123959190612e9f565b60ff166001149050919050565b5f805f6123af868661265a565b91509150815f036123d3578381816123c9576123c9612e77565b0492505050610bb9565b8184116123ea576123ea6003851502601118612676565b5f848688095f868103871696879004966002600389028118808a02820302808a02820302808a02820302808a02820302808a02820302808a02909103029181900381900460010185841190960395909502919093039390930492909217029150509392505050565b5f61245b611a3e565b54600160401b900460ff16919050565b6124736120b3565b5f80516020612fe28339815191527f52c63247e1f47db19d5ce0460030c497f067ca4cebf71ba98eeadabe20bace036124ac8482612f10565b5060048101611c5e8382612f10565b6124c36120b3565b7f0773e532dfede91f04b12a73d3d2acd361424f41f76b4fb79f090161e36b4e005f806124ef84612687565b91509150816124ff576012612501565b805b83546001600160a81b031916600160a01b60ff92909216919091026001600160a01b031916176001600160a01b0394909416939093179091555050565b611a2b6120b3565b806001600160a01b03163b5f0361257b57604051634c9c8ce360e01b81526001600160a01b03821660048201526024016108b2565b5f8051602061300283398151915280546001600160a01b0319166001600160a01b0392909216919091179055565b60605f80846001600160a01b0316846040516125c59190612fcb565b5f60405180830381855af49150503d805f81146125fd576040519150601f19603f3d011682016040523d82523d5f602084013e612602565b606091505b509150915061191185838361275d565b3415610e935760405163b398979f60e01b815260040160405180910390fd5b5f610851826127b9565b5f610bb983836127c2565b610a30816127e8565b5f610bb98383612841565b5f805f1983850993909202808410938190039390930393915050565b634e487b715f52806020526024601cfd5b60408051600481526024810182526020810180516001600160e01b031663313ce56760e01b17905290515f918291829182916001600160a01b038716916126cd91612fcb565b5f60405180830381855afa9150503d805f8114612705576040519150601f19603f3d011682016040523d82523d5f602084013e61270a565b606091505b509150915081801561271e57506020815110155b15612751575f818060200190518101906127389190612e60565b905060ff811161274f576001969095509350505050565b505b505f9485945092505050565b6060826127725761276d8261288d565b610bb9565b815115801561278957506001600160a01b0384163b155b156127b257604051639996b31560e01b81526001600160a01b03851660048201526024016108b2565b5080610bb9565b5f610851825490565b5f825f0182815481106127d7576127d7612d28565b905f5260205f200154905092915050565b5f6127f1825490565b90505f5b8181101561283a57826001015f845f01838154811061281657612816612d28565b905f5260205f20015481526020019081526020015f205f90558060010190506127f5565b50505f9055565b5f81815260018301602052604081205461288657508154600181810184555f848152602080822090930184905584548482528286019093526040902091909155610851565b505f610851565b80511561289d5780518082602001fd5b60405163d6bda27560e01b815260040160405180910390fd5b602081525f82518060208401528060208501604085015e5f604082850101526040601f19601f83011684010191505092915050565b5f602082840312156128fb575f80fd5b5035919050565b6001600160a01b0381168114610a30575f80fd5b5f8060408385031215612927575f80fd5b823561293281612902565b946020939093013593505050565b5f8083601f840112612950575f80fd5b50813567ffffffffffffffff811115612967575f80fd5b60208301915083602082850101111561297e575f80fd5b9250929050565b5f805f805f806080878903121561299a575f80fd5b86356129a581612902565b955060208701356129b581612902565b9450604087013567ffffffffffffffff8111156129d0575f80fd5b6129dc89828a01612940565b909550935050606087013567ffffffffffffffff8111156129fb575f80fd5b612a0789828a01612940565b979a9699509497509295939492505050565b5f805f60608486031215612a2b575f80fd5b8335612a3681612902565b92506020840135612a4681612902565b929592945050506040919091013590565b5f8060408385031215612a68575f80fd5b50508035926020909101359150565b5f60208284031215612a87575f80fd5b8135610bb981612902565b634e487b7160e01b5f52604160045260245ffd5b5f8060408385031215612ab7575f80fd5b8235612ac281612902565b9150602083013567ffffffffffffffff811115612add575f80fd5b8301601f81018513612aed575f80fd5b803567ffffffffffffffff811115612b0757612b07612a92565b604051601f8201601f19908116603f0116810167ffffffffffffffff81118282101715612b3657612b36612a92565b604052818152828201602001871015612b4d575f80fd5b816020840160208301375f602083830101528093505050509250929050565b5f8060408385031215612b7d575f80fd5b823591506020830135612b8f81612902565b809150509250929050565b5f8060208385031215612bab575f80fd5b823567ffffffffffffffff811115612bc1575f80fd5b8301601f81018513612bd1575f80fd5b803567ffffffffffffffff811115612be7575f80fd5b8560208260061b8401011115612bfb575f80fd5b6020919091019590945092505050565b5f805f60608486031215612c1d575f80fd5b833592506020840135612c2f81612902565b91506040840135612c3f81612902565b809150509250925092565b5f8060408385031215612c5b575f80fd5b8235612c6681612902565b91506020830135612b8f81612902565b600181811c90821680612c8a57607f821691505b602082108103612ca857634e487b7160e01b5f52602260045260245ffd5b50919050565b634e487b7160e01b5f52601160045260245ffd5b8082018082111561085157610851612cae565b5f60208284031215612ce5575f80fd5b81518015158114610bb9575f80fd5b60ff818116838216019081111561085157610851612cae565b5f60208284031215612d1d575f80fd5b8151610bb981612902565b634e487b7160e01b5f52603260045260245ffd5b8181038181111561085157610851612cae565b5f60208284031215612d5f575f80fd5b815160ff81168114610bb9575f80fd5b6001815b6001841115612daa57808504811115612d8e57612d8e612cae565b6001841615612d9c57908102905b60019390931c928002612d73565b935093915050565b5f82612dc057506001610851565b81612dcc57505f610851565b8160018114612de25760028114612dec57612e08565b6001915050610851565b60ff841115612dfd57612dfd612cae565b50506001821b610851565b5060208310610133831016604e8410600b8410161715612e2b575081810a610851565b612e375f198484612d6f565b805f1904821115612e4a57612e4a612cae565b029392505050565b5f610bb960ff841683612db2565b5f60208284031215612e70575f80fd5b5051919050565b634e487b7160e01b5f52601260045260245ffd5b634e487b7160e01b5f52602160045260245ffd5b5f60ff831680612ebd57634e487b7160e01b5f52601260045260245ffd5b8060ff84160691505092915050565b601f82111561192757805f5260205f20601f840160051c81016020851015612ef15750805b601f840160051c820191505b818110156120ac575f8155600101612efd565b815167ffffffffffffffff811115612f2a57612f2a612a92565b612f3e81612f388454612c76565b84612ecc565b6020601f821160018114612f70575f8315612f595750848201515b5f19600385901b1c1916600184901b1784556120ac565b5f84815260208120601f198516915b82811015612f9f5787850151825560209485019460019092019101612f7f565b5084821015612fbc57868401515f19600387901b60f8161c191681555b50505050600190811b01905550565b5f82518060208501845e5f92019182525091905056fe52c63247e1f47db19d5ce0460030c497f067ca4cebf71ba98eeadabe20bace00360894a13ba1a3210667c828492db98dca3e2076cc3735a920a3ca505d382bbc9b779b17422d0df92223018b32b4d1fa46e071723d6817e2486d003becc55f00a26469706673582212206593ffad55ab6f20a15cc2dd6d339c5e52d58785c4ca6915329df092283189ca64736f6c634300081a0033",
  "linkReferences": {},
  "deployedLinkReferences": {}
}