{
  "_format": "hh-sol-artifact-1",
  "contractName": "OrionEncryptedVault",
  "sourceName": "contracts/OrionEncryptedVault.sol",
  "abi": [
    {
      "inputs": [
        {
          "internalType": "address",
          "name": "target",
          "type": "address"
        }
      ],
      "name": "AddressEmptyCode",
      "type": "error"
    },
    {
      "inputs": [
        {
          "internalType": "address",
          "name": "asset",
          "type": "address"
        }
      ],
      "name": "AmountMustBeGreaterThanZero",
      "type": "error"
    },
    {
      "inputs": [
        {
          "internalType": "address",
          "name": "implementation",
          "type": "address"
        }
      ],
      "name": "ERC1967InvalidImplementation",
      "type": "error"
    },
    {
      "inputs": [],
      "name": "ERC1967NonPayable",
      "type": "error"
    },
    {
      "inputs": [
        {
          "internalType": "address",
          "name": "spender",
          "type": "address"
        },
        {
          "internalType": "uint256",
          "name": "allowance",
          "type": "uint256"
        },
        {
          "internalType": "uint256",
          "name": "needed",
          "type": "uint256"
        }
      ],
      "name": "ERC20InsufficientAllowance",
      "type": "error"
    },
    {
      "inputs": [
        {
          "internalType": "address",
          "name": "sender",
          "type": "address"
        },
        {
          "internalType": "uint256",
          "name": "balance",
          "type": "uint256"
        },
        {
          "internalType": "uint256",
          "name": "needed",
          "type": "uint256"
        }
      ],
      "name": "ERC20InsufficientBalance",
      "type": "error"
    },
    {
      "inputs": [
        {
          "internalType": "address",
          "name": "approver",
          "type": "address"
        }
      ],
      "name": "ERC20InvalidApprover",
      "type": "error"
    },
    {
      "inputs": [
        {
          "internalType": "address",
          "name": "receiver",
          "type": "address"
        }
      ],
      "name": "ERC20InvalidReceiver",
      "type": "error"
    },
    {
      "inputs": [
        {
          "internalType": "address",
          "name": "sender",
          "type": "address"
        }
      ],
      "name": "ERC20InvalidSender",
      "type": "error"
    },
    {
      "inputs": [
        {
          "internalType": "address",
          "name": "spender",
          "type": "address"
        }
      ],
      "name": "ERC20InvalidSpender",
      "type": "error"
    },
    {
      "inputs": [
        {
          "internalType": "address",
          "name": "receiver",
          "type": "address"
        },
        {
          "internalType": "uint256",
          "name": "assets",
          "type": "uint256"
        },
        {
          "internalType": "uint256",
          "name": "max",
          "type": "uint256"
        }
      ],
      "name": "ERC4626ExceededMaxDeposit",
      "type": "error"
    },
    {
      "inputs": [
        {
          "internalType": "address",
          "name": "receiver",
          "type": "address"
        },
        {
          "internalType": "uint256",
          "name": "shares",
          "type": "uint256"
        },
        {
          "internalType": "uint256",
          "name": "max",
          "type": "uint256"
        }
      ],
      "name": "ERC4626ExceededMaxMint",
      "type": "error"
    },
    {
      "inputs": [
        {
          "internalType": "address",
          "name": "owner",
          "type": "address"
        },
        {
          "internalType": "uint256",
          "name": "shares",
          "type": "uint256"
        },
        {
          "internalType": "uint256",
          "name": "max",
          "type": "uint256"
        }
      ],
      "name": "ERC4626ExceededMaxRedeem",
      "type": "error"
    },
    {
      "inputs": [
        {
          "internalType": "address",
          "name": "owner",
          "type": "address"
        },
        {
          "internalType": "uint256",
          "name": "assets",
          "type": "uint256"
        },
        {
          "internalType": "uint256",
          "name": "max",
          "type": "uint256"
        }
      ],
      "name": "ERC4626ExceededMaxWithdraw",
      "type": "error"
    },
    {
      "inputs": [],
      "name": "FailedCall",
      "type": "error"
    },
    {
      "inputs": [],
      "name": "InvalidConfigAddress",
      "type": "error"
    },
    {
      "inputs": [],
      "name": "InvalidCuratorAddress",
      "type": "error"
    },
    {
      "inputs": [],
      "name": "InvalidInitialization",
      "type": "error"
    },
    {
      "inputs": [],
      "name": "NotCurator",
      "type": "error"
    },
    {
      "inputs": [],
      "name": "NotEnoughDepositRequest",
      "type": "error"
    },
    {
      "inputs": [],
      "name": "NotEnoughShares",
      "type": "error"
    },
    {
      "inputs": [],
      "name": "NotInitializing",
      "type": "error"
    },
    {
      "inputs": [],
      "name": "NotLiquidityOrchestrator",
      "type": "error"
    },
    {
      "inputs": [],
      "name": "OrderIntentCannotBeEmpty",
      "type": "error"
    },
    {
      "inputs": [
        {
          "internalType": "address",
          "name": "owner",
          "type": "address"
        }
      ],
      "name": "OwnableInvalidOwner",
      "type": "error"
    },
    {
      "inputs": [
        {
          "internalType": "address",
          "name": "account",
          "type": "address"
        }
      ],
      "name": "OwnableUnauthorizedAccount",
      "type": "error"
    },
    {
      "inputs": [],
      "name": "ReentrancyGuardReentrantCall",
      "type": "error"
    },
    {
      "inputs": [],
      "name": "SharesMustBeGreaterThanZero",
      "type": "error"
    },
    {
      "inputs": [],
      "name": "SynchronousDepositsDisabled",
      "type": "error"
    },
    {
      "inputs": [],
      "name": "SynchronousRedemptionsDisabled",
      "type": "error"
    },
    {
      "inputs": [],
      "name": "SynchronousWithdrawalsDisabled",
      "type": "error"
    },
    {
      "inputs": [
        {
          "internalType": "address",
          "name": "token",
          "type": "address"
        }
      ],
      "name": "TokenNotWhitelisted",
      "type": "error"
    },
    {
      "inputs": [],
      "name": "TransferFailed",
      "type": "error"
    },
    {
      "inputs": [],
      "name": "UUPSUnauthorizedCallContext",
      "type": "error"
    },
    {
      "inputs": [
        {
          "internalType": "bytes32",
          "name": "slot",
          "type": "bytes32"
        }
      ],
      "name": "UUPSUnsupportedProxiableUUID",
      "type": "error"
    },
    {
      "anonymous": false,
      "inputs": [
        {
          "indexed": true,
          "internalType": "address",
          "name": "owner",
          "type": "address"
        },
        {
          "indexed": true,
          "internalType": "address",
          "name": "spender",
          "type": "address"
        },
        {
          "indexed": false,
          "internalType": "uint256",
          "name": "value",
          "type": "uint256"
        }
      ],
      "name": "Approval",
      "type": "event"
    },
    {
      "anonymous": false,
      "inputs": [
        {
          "indexed": true,
          "internalType": "address",
          "name": "sender",
          "type": "address"
        },
        {
          "indexed": true,
          "internalType": "address",
          "name": "owner",
          "type": "address"
        },
        {
          "indexed": false,
          "internalType": "uint256",
          "name": "assets",
          "type": "uint256"
        },
        {
          "indexed": false,
          "internalType": "uint256",
          "name": "shares",
          "type": "uint256"
        }
      ],
      "name": "Deposit",
      "type": "event"
    },
    {
      "anonymous": false,
      "inputs": [
        {
          "indexed": true,
          "internalType": "address",
          "name": "user",
          "type": "address"
        },
        {
          "indexed": false,
          "internalType": "uint256",
          "name": "amount",
          "type": "uint256"
        },
        {
          "indexed": false,
          "internalType": "uint256",
          "name": "requestId",
          "type": "uint256"
        }
      ],
      "name": "DepositProcessed",
      "type": "event"
    },
    {
      "anonymous": false,
      "inputs": [
        {
          "indexed": true,
          "internalType": "address",
          "name": "user",
          "type": "address"
        },
        {
          "indexed": false,
          "internalType": "uint256",
          "name": "amount",
          "type": "uint256"
        },
        {
          "indexed": false,
          "internalType": "uint256",
          "name": "depositorCount",
          "type": "uint256"
        }
      ],
      "name": "DepositRequestCancelled",
      "type": "event"
    },
    {
      "anonymous": false,
      "inputs": [
        {
          "indexed": true,
          "internalType": "address",
          "name": "user",
          "type": "address"
        },
        {
          "indexed": false,
          "internalType": "uint256",
          "name": "amount",
          "type": "uint256"
        },
        {
          "indexed": false,
          "internalType": "uint256",
          "name": "requestId",
          "type": "uint256"
        }
      ],
      "name": "DepositRequested",
      "type": "event"
    },
    {
      "anonymous": false,
      "inputs": [
        {
          "indexed": false,
          "internalType": "uint64",
          "name": "version",
          "type": "uint64"
        }
      ],
      "name": "Initialized",
      "type": "event"
    },
    {
      "anonymous": false,
      "inputs": [
        {
          "indexed": true,
          "internalType": "address",
          "name": "curator",
          "type": "address"
        }
      ],
      "name": "OrderSubmitted",
      "type": "event"
    },
    {
      "anonymous": false,
      "inputs": [
        {
          "indexed": true,
          "internalType": "address",
          "name": "previousOwner",
          "type": "address"
        },
        {
          "indexed": true,
          "internalType": "address",
          "name": "newOwner",
          "type": "address"
        }
      ],
      "name": "OwnershipTransferStarted",
      "type": "event"
    },
    {
      "anonymous": false,
      "inputs": [
        {
          "indexed": true,
          "internalType": "address",
          "name": "previousOwner",
          "type": "address"
        },
        {
          "indexed": true,
          "internalType": "address",
          "name": "newOwner",
          "type": "address"
        }
      ],
      "name": "OwnershipTransferred",
      "type": "event"
    },
    {
      "anonymous": false,
      "inputs": [
        {
          "indexed": true,
          "internalType": "address",
          "name": "from",
          "type": "address"
        },
        {
          "indexed": true,
          "internalType": "address",
          "name": "to",
          "type": "address"
        },
        {
          "indexed": false,
          "internalType": "uint256",
          "name": "value",
          "type": "uint256"
        }
      ],
      "name": "Transfer",
      "type": "event"
    },
    {
      "anonymous": false,
      "inputs": [
        {
          "indexed": true,
          "internalType": "address",
          "name": "implementation",
          "type": "address"
        }
      ],
      "name": "Upgraded",
      "type": "event"
    },
    {
      "anonymous": false,
      "inputs": [
        {
          "indexed": false,
          "internalType": "uint256",
          "name": "newTotalAssets",
          "type": "uint256"
        }
      ],
      "name": "VaultStateUpdated",
      "type": "event"
    },
    {
      "anonymous": false,
      "inputs": [
        {
          "indexed": true,
          "internalType": "address",
          "name": "sender",
          "type": "address"
        },
        {
          "indexed": true,
          "internalType": "address",
          "name": "receiver",
          "type": "address"
        },
        {
          "indexed": true,
          "internalType": "address",
          "name": "owner",
          "type": "address"
        },
        {
          "indexed": false,
          "internalType": "uint256",
          "name": "assets",
          "type": "uint256"
        },
        {
          "indexed": false,
          "internalType": "uint256",
          "name": "shares",
          "type": "uint256"
        }
      ],
      "name": "Withdraw",
      "type": "event"
    },
    {
      "anonymous": false,
      "inputs": [
        {
          "indexed": true,
          "internalType": "address",
          "name": "user",
          "type": "address"
        },
        {
          "indexed": false,
          "internalType": "uint256",
          "name": "shares",
          "type": "uint256"
        },
        {
          "indexed": false,
          "internalType": "uint256",
          "name": "requestId",
          "type": "uint256"
        }
      ],
      "name": "WithdrawProcessed",
      "type": "event"
    },
    {
      "anonymous": false,
      "inputs": [
        {
          "indexed": true,
          "internalType": "address",
          "name": "user",
          "type": "address"
        },
        {
          "indexed": false,
          "internalType": "uint256",
          "name": "shares",
          "type": "uint256"
        },
        {
          "indexed": false,
          "internalType": "uint256",
          "name": "requestId",
          "type": "uint256"
        }
      ],
      "name": "WithdrawRequested",
      "type": "event"
    },
    {
      "inputs": [],
      "name": "UPGRADE_INTERFACE_VERSION",
      "outputs": [
        {
          "internalType": "string",
          "name": "",
          "type": "string"
        }
      ],
      "stateMutability": "view",
      "type": "function"
    },
    {
      "inputs": [],
      "name": "acceptOwnership",
      "outputs": [],
      "stateMutability": "nonpayable",
      "type": "function"
    },
    {
      "inputs": [
        {
          "internalType": "address",
          "name": "owner",
          "type": "address"
        },
        {
          "internalType": "address",
          "name": "spender",
          "type": "address"
        }
      ],
      "name": "allowance",
      "outputs": [
        {
          "internalType": "uint256",
          "name": "",
          "type": "uint256"
        }
      ],
      "stateMutability": "view",
      "type": "function"
    },
    {
      "inputs": [
        {
          "internalType": "address",
          "name": "spender",
          "type": "address"
        },
        {
          "internalType": "uint256",
          "name": "value",
          "type": "uint256"
        }
      ],
      "name": "approve",
      "outputs": [
        {
          "internalType": "bool",
          "name": "",
          "type": "bool"
        }
      ],
      "stateMutability": "nonpayable",
      "type": "function"
    },
    {
      "inputs": [],
      "name": "asset",
      "outputs": [
        {
          "internalType": "address",
          "name": "",
          "type": "address"
        }
      ],
      "stateMutability": "view",
      "type": "function"
    },
    {
      "inputs": [
        {
          "internalType": "address",
          "name": "account",
          "type": "address"
        }
      ],
      "name": "balanceOf",
      "outputs": [
        {
          "internalType": "uint256",
          "name": "",
          "type": "uint256"
        }
      ],
      "stateMutability": "view",
      "type": "function"
    },
    {
      "inputs": [
        {
          "internalType": "uint256",
          "name": "amount",
          "type": "uint256"
        }
      ],
      "name": "cancelDepositRequest",
      "outputs": [],
      "stateMutability": "nonpayable",
      "type": "function"
    },
    {
      "inputs": [],
      "name": "config",
      "outputs": [
        {
          "internalType": "contract IOrionConfig",
          "name": "",
          "type": "address"
        }
      ],
      "stateMutability": "view",
      "type": "function"
    },
    {
      "inputs": [
        {
          "internalType": "uint256",
          "name": "shares",
          "type": "uint256"
        }
      ],
      "name": "convertToAssets",
      "outputs": [
        {
          "internalType": "uint256",
          "name": "",
          "type": "uint256"
        }
      ],
      "stateMutability": "view",
      "type": "function"
    },
    {
      "inputs": [
        {
          "internalType": "uint256",
          "name": "assets",
          "type": "uint256"
        }
      ],
      "name": "convertToShares",
      "outputs": [
        {
          "internalType": "uint256",
          "name": "",
          "type": "uint256"
        }
      ],
      "stateMutability": "view",
      "type": "function"
    },
    {
      "inputs": [],
      "name": "curator",
      "outputs": [
        {
          "internalType": "address",
          "name": "",
          "type": "address"
        }
      ],
      "stateMutability": "view",
      "type": "function"
    },
    {
      "inputs": [],
      "name": "decimals",
      "outputs": [
        {
          "internalType": "uint8",
          "name": "",
          "type": "uint8"
        }
      ],
      "stateMutability": "view",
      "type": "function"
    },
    {
      "inputs": [],
      "name": "deployer",
      "outputs": [
        {
          "internalType": "address",
          "name": "",
          "type": "address"
        }
      ],
      "stateMutability": "view",
      "type": "function"
    },
    {
      "inputs": [
        {
          "internalType": "uint256",
          "name": "",
          "type": "uint256"
        },
        {
          "internalType": "address",
          "name": "",
          "type": "address"
        }
      ],
      "name": "deposit",
      "outputs": [
        {
          "internalType": "uint256",
          "name": "",
          "type": "uint256"
        }
      ],
      "stateMutability": "pure",
      "type": "function"
    },
    {
      "inputs": [],
      "name": "getPendingDeposits",
      "outputs": [
        {
          "internalType": "uint256",
          "name": "",
          "type": "uint256"
        }
      ],
      "stateMutability": "view",
      "type": "function"
    },
    {
      "inputs": [],
      "name": "getPendingWithdrawals",
      "outputs": [
        {
          "internalType": "uint256",
          "name": "",
          "type": "uint256"
        }
      ],
      "stateMutability": "view",
      "type": "function"
    },
    {
      "inputs": [],
      "name": "getPortfolio",
      "outputs": [
        {
          "internalType": "address[]",
          "name": "tokens",
          "type": "address[]"
        },
        {
          "internalType": "euint32[]",
          "name": "sharesPerAsset",
          "type": "uint256[]"
        }
      ],
      "stateMutability": "view",
      "type": "function"
    },
    {
      "inputs": [
        {
          "internalType": "address",
          "name": "curatorAddress",
          "type": "address"
        },
        {
          "internalType": "contract IOrionConfig",
          "name": "configAddress",
          "type": "address"
        },
        {
          "internalType": "string",
          "name": "name",
          "type": "string"
        },
        {
          "internalType": "string",
          "name": "symbol",
          "type": "string"
        }
      ],
      "name": "initialize",
      "outputs": [],
      "stateMutability": "nonpayable",
      "type": "function"
    },
    {
      "inputs": [
        {
          "internalType": "address",
          "name": "",
          "type": "address"
        }
      ],
      "name": "maxDeposit",
      "outputs": [
        {
          "internalType": "uint256",
          "name": "",
          "type": "uint256"
        }
      ],
      "stateMutability": "view",
      "type": "function"
    },
    {
      "inputs": [
        {
          "internalType": "address",
          "name": "",
          "type": "address"
        }
      ],
      "name": "maxMint",
      "outputs": [
        {
          "internalType": "uint256",
          "name": "",
          "type": "uint256"
        }
      ],
      "stateMutability": "view",
      "type": "function"
    },
    {
      "inputs": [
        {
          "internalType": "address",
          "name": "owner",
          "type": "address"
        }
      ],
      "name": "maxRedeem",
      "outputs": [
        {
          "internalType": "uint256",
          "name": "",
          "type": "uint256"
        }
      ],
      "stateMutability": "view",
      "type": "function"
    },
    {
      "inputs": [
        {
          "internalType": "address",
          "name": "owner",
          "type": "address"
        }
      ],
      "name": "maxWithdraw",
      "outputs": [
        {
          "internalType": "uint256",
          "name": "",
          "type": "uint256"
        }
      ],
      "stateMutability": "view",
      "type": "function"
    },
    {
      "inputs": [
        {
          "internalType": "uint256",
          "name": "",
          "type": "uint256"
        },
        {
          "internalType": "address",
          "name": "",
          "type": "address"
        }
      ],
      "name": "mint",
      "outputs": [
        {
          "internalType": "uint256",
          "name": "",
          "type": "uint256"
        }
      ],
      "stateMutability": "pure",
      "type": "function"
    },
    {
      "inputs": [],
      "name": "name",
      "outputs": [
        {
          "internalType": "string",
          "name": "",
          "type": "string"
        }
      ],
      "stateMutability": "view",
      "type": "function"
    },
    {
      "inputs": [],
      "name": "owner",
      "outputs": [
        {
          "internalType": "address",
          "name": "",
          "type": "address"
        }
      ],
      "stateMutability": "view",
      "type": "function"
    },
    {
      "inputs": [],
      "name": "pendingOwner",
      "outputs": [
        {
          "internalType": "address",
          "name": "",
          "type": "address"
        }
      ],
      "stateMutability": "view",
      "type": "function"
    },
    {
      "inputs": [
        {
          "internalType": "uint256",
          "name": "assets",
          "type": "uint256"
        }
      ],
      "name": "previewDeposit",
      "outputs": [
        {
          "internalType": "uint256",
          "name": "",
          "type": "uint256"
        }
      ],
      "stateMutability": "view",
      "type": "function"
    },
    {
      "inputs": [
        {
          "internalType": "uint256",
          "name": "shares",
          "type": "uint256"
        }
      ],
      "name": "previewMint",
      "outputs": [
        {
          "internalType": "uint256",
          "name": "",
          "type": "uint256"
        }
      ],
      "stateMutability": "view",
      "type": "function"
    },
    {
      "inputs": [
        {
          "internalType": "uint256",
          "name": "shares",
          "type": "uint256"
        }
      ],
      "name": "previewRedeem",
      "outputs": [
        {
          "internalType": "uint256",
          "name": "",
          "type": "uint256"
        }
      ],
      "stateMutability": "view",
      "type": "function"
    },
    {
      "inputs": [
        {
          "internalType": "uint256",
          "name": "assets",
          "type": "uint256"
        }
      ],
      "name": "previewWithdraw",
      "outputs": [
        {
          "internalType": "uint256",
          "name": "",
          "type": "uint256"
        }
      ],
      "stateMutability": "view",
      "type": "function"
    },
    {
      "inputs": [],
      "name": "processDepositRequests",
      "outputs": [],
      "stateMutability": "nonpayable",
      "type": "function"
    },
    {
      "inputs": [],
      "name": "processWithdrawRequests",
      "outputs": [],
      "stateMutability": "nonpayable",
      "type": "function"
    },
    {
      "inputs": [],
      "name": "proxiableUUID",
      "outputs": [
        {
          "internalType": "bytes32",
          "name": "",
          "type": "bytes32"
        }
      ],
      "stateMutability": "view",
      "type": "function"
    },
    {
      "inputs": [
        {
          "internalType": "uint256",
          "name": "",
          "type": "uint256"
        },
        {
          "internalType": "address",
          "name": "",
          "type": "address"
        },
        {
          "internalType": "address",
          "name": "",
          "type": "address"
        }
      ],
      "name": "redeem",
      "outputs": [
        {
          "internalType": "uint256",
          "name": "",
          "type": "uint256"
        }
      ],
      "stateMutability": "pure",
      "type": "function"
    },
    {
      "inputs": [],
      "name": "renounceOwnership",
      "outputs": [],
      "stateMutability": "nonpayable",
      "type": "function"
    },
    {
      "inputs": [
        {
          "internalType": "uint256",
          "name": "amount",
          "type": "uint256"
        }
      ],
      "name": "requestDeposit",
      "outputs": [],
      "stateMutability": "nonpayable",
      "type": "function"
    },
    {
      "inputs": [
        {
          "internalType": "uint256",
          "name": "shares",
          "type": "uint256"
        }
      ],
      "name": "requestWithdraw",
      "outputs": [],
      "stateMutability": "nonpayable",
      "type": "function"
    },
    {
      "inputs": [
        {
          "components": [
            {
              "internalType": "address",
              "name": "token",
              "type": "address"
            },
            {
              "internalType": "euint32",
              "name": "weight",
              "type": "uint256"
            }
          ],
          "internalType": "struct IOrionEncryptedVault.EncryptedPosition[]",
          "name": "order",
          "type": "tuple[]"
        }
      ],
      "name": "submitOrderIntent",
      "outputs": [],
      "stateMutability": "nonpayable",
      "type": "function"
    },
    {
      "inputs": [],
      "name": "symbol",
      "outputs": [
        {
          "internalType": "string",
          "name": "",
          "type": "string"
        }
      ],
      "stateMutability": "view",
      "type": "function"
    },
    {
      "inputs": [],
      "name": "totalAssets",
      "outputs": [
        {
          "internalType": "uint256",
          "name": "",
          "type": "uint256"
        }
      ],
      "stateMutability": "view",
      "type": "function"
    },
    {
      "inputs": [],
      "name": "totalSupply",
      "outputs": [
        {
          "internalType": "uint256",
          "name": "",
          "type": "uint256"
        }
      ],
      "stateMutability": "view",
      "type": "function"
    },
    {
      "inputs": [
        {
          "internalType": "address",
          "name": "to",
          "type": "address"
        },
        {
          "internalType": "uint256",
          "name": "value",
          "type": "uint256"
        }
      ],
      "name": "transfer",
      "outputs": [
        {
          "internalType": "bool",
          "name": "",
          "type": "bool"
        }
      ],
      "stateMutability": "nonpayable",
      "type": "function"
    },
    {
      "inputs": [
        {
          "internalType": "address",
          "name": "from",
          "type": "address"
        },
        {
          "internalType": "address",
          "name": "to",
          "type": "address"
        },
        {
          "internalType": "uint256",
          "name": "value",
          "type": "uint256"
        }
      ],
      "name": "transferFrom",
      "outputs": [
        {
          "internalType": "bool",
          "name": "",
          "type": "bool"
        }
      ],
      "stateMutability": "nonpayable",
      "type": "function"
    },
    {
      "inputs": [
        {
          "internalType": "address",
          "name": "newOwner",
          "type": "address"
        }
      ],
      "name": "transferOwnership",
      "outputs": [],
      "stateMutability": "nonpayable",
      "type": "function"
    },
    {
      "inputs": [
        {
          "components": [
            {
              "internalType": "address",
              "name": "token",
              "type": "address"
            },
            {
              "internalType": "euint32",
              "name": "weight",
              "type": "uint256"
            }
          ],
          "internalType": "struct IOrionEncryptedVault.EncryptedPosition[]",
          "name": "portfolio",
          "type": "tuple[]"
        },
        {
          "internalType": "uint256",
          "name": "newTotalAssets",
          "type": "uint256"
        }
      ],
      "name": "updateVaultState",
      "outputs": [],
      "stateMutability": "nonpayable",
      "type": "function"
    },
    {
      "inputs": [
        {
          "internalType": "address",
          "name": "newImplementation",
          "type": "address"
        },
        {
          "internalType": "bytes",
          "name": "data",
          "type": "bytes"
        }
      ],
      "name": "upgradeToAndCall",
      "outputs": [],
      "stateMutability": "payable",
      "type": "function"
    },
    {
      "inputs": [
        {
          "internalType": "uint256",
          "name": "",
          "type": "uint256"
        },
        {
          "internalType": "address",
          "name": "",
          "type": "address"
        },
        {
          "internalType": "address",
          "name": "",
          "type": "address"
        }
      ],
      "name": "withdraw",
      "outputs": [
        {
          "internalType": "uint256",
          "name": "",
          "type": "uint256"
        }
      ],
      "stateMutability": "pure",
      "type": "function"
    }
  ],
  "bytecode": "0x60a0604052306080523480156012575f80fd5b506080516133056100395f395f8181611f7801528181611fa1015261210301526133055ff3fe608060405260043610610280575f3560e01c806394bf804d11610155578063c63d75b6116100be578063d905777e11610078578063d905777e14610703578063dd62ed3e14610722578063e30c397814610741578063e66f53b714610755578063ef8b30f714610670578063f2fde38b14610774575f80fd5b8063c63d75b61461042d578063c6e6f59214610670578063ce96cb771461068f578063d1699c26146106ae578063d3d03458146106c2578063d5f39488146106e4575f80fd5b8063ad3cb1cc1161010f578063ad3cb1cc146105b0578063b3d7f6b9146105e0578063b460af94146105ff578063ba0876521461061e578063c0b568e11461063d578063c37fc8a81461065c575f80fd5b806394bf804d1461047457806395d89b411461052b578063985ba4ae1461053f5780639c055a661461055e578063a9059cbb1461057d578063aa9d3a601461059c575f80fd5b806338d52e0f116101f757806370a08231116101b157806370a0823114610493578063715018a6146104b2578063745400c9146104c657806379502c55146104e557806379ba5097146105035780638da5cb5b14610517575f80fd5b806338d52e0f14610401578063402d267d1461042d5780634cdad506146102c85780634f1ef2861461044d57806352d1902d146104605780636e553f6514610474575f80fd5b80630d1e6667116102485780630d1e66671461033557806318160ddd146103565780632016a0d21461038957806323b872dd146103a8578063313ce567146103c757806333fdc592146103ed575f80fd5b806301e1d1141461028457806306fdde03146102a757806307a2d13a146102c8578063095ea7b3146102e75780630a28a47714610316575b5f80fd5b34801561028f575f80fd5b506003545b6040519081526020015b60405180910390f35b3480156102b2575f80fd5b506102bb610793565b60405161029e9190612a8e565b3480156102d3575f80fd5b506102946102e2366004612ac3565b610853565b3480156102f2575f80fd5b50610306610301366004612aee565b610864565b604051901515815260200161029e565b348015610321575f80fd5b50610294610330366004612ac3565b61087b565b348015610340575f80fd5b5061035461034f366004612ac3565b610887565b005b348015610361575f80fd5b507f52c63247e1f47db19d5ce0460030c497f067ca4cebf71ba98eeadabe20bace0254610294565b348015610394575f80fd5b506103546103a3366004612b5c565b610a40565b3480156103b3575f80fd5b506103066103c2366004612bee565b610ba6565b3480156103d2575f80fd5b506103db610bcb565b60405160ff909116815260200161029e565b3480156103f8575f80fd5b50610354610c0d565b34801561040c575f80fd5b50610415610d96565b6040516001600160a01b03909116815260200161029e565b348015610438575f80fd5b50610294610447366004612c2c565b505f1990565b61035461045b366004612c5b565b610dca565b34801561046b575f80fd5b50610294610de9565b34801561047f575f80fd5b5061029461048e366004612d1e565b610e04565b34801561049e575f80fd5b506102946104ad366004612c2c565b610e1e565b3480156104bd575f80fd5b50610354610e44565b3480156104d1575f80fd5b506103546104e0366004612ac3565b610e55565b3480156104f0575f80fd5b505f54610415906001600160a01b031681565b34801561050e575f80fd5b50610354610f6b565b348015610522575f80fd5b50610415610fb0565b348015610536575f80fd5b506102bb610fd8565b34801561054a575f80fd5b50610354610559366004612d8c565b611016565b348015610569575f80fd5b50610354610578366004612dd3565b61122d565b348015610588575f80fd5b50610306610597366004612aee565b611464565b3480156105a7575f80fd5b50610354611471565b3480156105bb575f80fd5b506102bb604051806040016040528060058152602001640352e302e360dc1b81525081565b3480156105eb575f80fd5b506102946105fa366004612ac3565b611662565b34801561060a575f80fd5b50610294610619366004612e11565b61166e565b348015610629575f80fd5b50610294610638366004612e11565b611687565b348015610648575f80fd5b50610354610657366004612ac3565b6116a1565b348015610667575f80fd5b506102946117f9565b34801561067b575f80fd5b5061029461068a366004612ac3565b611860565b34801561069a575f80fd5b506102946106a9366004612c2c565b61186b565b3480156106b9575f80fd5b5061029461187e565b3480156106cd575f80fd5b506106d66118dd565b60405161029e929190612e50565b3480156106ef575f80fd5b50600254610415906001600160a01b031681565b34801561070e575f80fd5b5061029461071d366004612c2c565b611a2b565b34801561072d575f80fd5b5061029461073c366004612ed9565b611a35565b34801561074c575f80fd5b50610415611a7e565b348015610760575f80fd5b50600154610415906001600160a01b031681565b34801561077f575f80fd5b5061035461078e366004612c2c565b611aa6565b7f52c63247e1f47db19d5ce0460030c497f067ca4cebf71ba98eeadabe20bace0380546060915f80516020613270833981519152916107d190612f05565b80601f01602080910402602001604051908101604052809291908181526020018280546107fd90612f05565b80156108485780601f1061081f57610100808354040283529160200191610848565b820191905f5260205f20905b81548152906001019060200180831161082b57829003601f168201915b505050505091505090565b5f61085e825f611b2b565b92915050565b5f33610871818585611c06565b5060019392505050565b5f61085e826001611c18565b61088f611ce0565b805f036108c85761089e610d96565b604051636b30633560e01b81526001600160a01b0390911660048201526024015b60405180910390fd5b335f90815260046020526040812054900361091f57600680546001810182555f919091527ff652222313e28459528d920b65115c16c04f3efc82aaedc97be59f3f377c0d3f0180546001600160a01b031916331790555b335f908152600460205260408120805483929061093d908490612f51565b909155505f905061094c610d96565b6040516323b872dd60e01b8152336004820152306024820152604481018490526001600160a01b0391909116906323b872dd906064016020604051808303815f875af115801561099e573d5f803e3d5ffd5b505050506040513d601f19601f820116820180604052508101906109c29190612f64565b9050806109e2576040516312171d8360e31b815260040160405180910390fd5b60065460405133917f03979a8c481a9e9c06938045cfd5c28535255cb003b10a8fe84ebb3cb4d440f291610a1e91868252602082015260400190565b60405180910390a250610a3d60015f805160206132b083398151915255565b50565b5f610a49611d2a565b805490915060ff600160401b82041615906001600160401b03165f81158015610a6f5750825b90505f826001600160401b03166001148015610a8a5750303b155b905081158015610a98575080155b15610ab65760405163f92ee8a960e01b815260040160405180910390fd5b845467ffffffffffffffff191660011785558315610ae057845460ff60401b1916600160401b1785555b610b538b8b8b8b8080601f0160208091040260200160405190810160405280939291908181526020018383808284375f9201919091525050604080516020601f8f018190048102820181019092528d815292508d91508c90819084018382808284375f92019190915250611d5292505050565b8315610b9957845460ff60401b19168555604051600181527fc7f505b2f371ae2175ee4913f4499e1f2633a7b5936321eed1cdaeb6115181d29060200160405180910390a15b5050505050505050505050565b5f33610bb3858285611e78565b610bbe858585611edc565b60019150505b9392505050565b5f807f0773e532dfede91f04b12a73d3d2acd361424f41f76b4fb79f090161e36b4e0090505f8154610c079190600160a01b900460ff16612f83565b91505090565b5f8054906101000a90046001600160a01b03166001600160a01b0316633a0dad8e6040518163ffffffff1660e01b8152600401602060405180830381865afa158015610c5b573d5f803e3d5ffd5b505050506040513d601f19601f82011682018060405250810190610c7f9190612f9c565b6001600160a01b0316336001600160a01b031614610cb057604051631af2ab4f60e31b815260040160405180910390fd5b610cb8611ce0565b6006545f5b81811015610d7c575f60068281548110610cd957610cd9612fb7565b5f9182526020808320909101546001600160a01b03168083526004909152604082205490925090610d0982611860565b6001600160a01b0384165f908152600460205260408120559050610d2d8382611f39565b60408051838152602081018690526001600160a01b038516917f782ea2005b7f873a0190a1ccb553c732171348d6e16d2b7d3d493c0677dc296e910160405180910390a2505050600101610cbd565b5050610d9460015f805160206132b083398151915255565b565b5f807f0773e532dfede91f04b12a73d3d2acd361424f41f76b4fb79f090161e36b4e005b546001600160a01b031692915050565b610dd2611f6d565b610ddb82612011565b610de5828261203c565b5050565b5f610df26120f8565b505f8051602061329083398151915290565b5f6040516318f2e47360e11b815260040160405180910390fd5b6001600160a01b03165f9081525f80516020613270833981519152602052604090205490565b610e4c612141565b610d945f612173565b805f03610e75576040516314e6cbb960e11b815260040160405180910390fd5b80610e7f33610e1e565b1015610e9e57604051633c57b48560e21b815260040160405180910390fd5b335f908152600560205260408120549003610ef557600780546001810182555f919091527fa66cc928b5edb82af9bd49922954155ab7b0942694bea4ce44661d9a8736c6880180546001600160a01b031916331790555b335f9081526005602052604081208054839290610f13908490612f51565b90915550610f249050333083611edc565b60075460405133917fd72eb5d043f24a0168ae744d5c44f9596fd673a26bf74d9646bff4b844882d1491610f6091858252602082015260400190565b60405180910390a250565b3380610f75611a7e565b6001600160a01b031614610fa75760405163118cdaa760e01b81526001600160a01b03821660048201526024016108bf565b610a3d81612173565b5f807f9016d09d72d40fdae2fd8ceac6b6234c7706214fd39c1cd1e609a0528c199300610dba565b7f52c63247e1f47db19d5ce0460030c497f067ca4cebf71ba98eeadabe20bace0480546060915f80516020613270833981519152916107d190612f05565b5f8054906101000a90046001600160a01b03166001600160a01b0316633a0dad8e6040518163ffffffff1660e01b8152600401602060405180830381865afa158015611064573d5f803e3d5ffd5b505050506040513d601f19601f820116820180604052508101906110889190612f9c565b6001600160a01b0316336001600160a01b0316146110b957604051631af2ab4f60e31b815260040160405180910390fd5b5f6110c35f6121ab565b6009549091505f5b81811015611116578260085f600984815481106110ea576110ea612fb7565b5f9182526020808320909101546001600160a01b031683528201929092526040019020556001016110cb565b5061112260095f612a60565b5f5b818110156111ed5785858281811061113e5761113e612fb7565b9050604002016020013560085f88888581811061115d5761115d612fb7565b6111739260206040909202019081019150612c2c565b6001600160a01b0316815260208101919091526040015f205560098686838181106111a0576111a0612fb7565b6111b69260206040909202019081019150612c2c565b8154600180820184555f93845260209093200180546001600160a01b0319166001600160a01b039290921691909117905501611124565b5060038390556040518381527f5e1ff954b5e5257e9ee5d4cb07059e8f5e69b1aaaf9911e5d8d90a6894de9c219060200160405180910390a15050505050565b6001546001600160a01b03163314611258576040516356b381a560e01b815260040160405180910390fd5b5f81900361127957604051631121aa8d60e01b815260040160405180910390fd5b5f6112835f6121ab565b600b549091505f5b818110156112d65782600a5f600b84815481106112aa576112aa612fb7565b5f9182526020808320909101546001600160a01b0316835282019290925260400190205560010161128b565b506112e2600b5f612a60565b825f5b81811015611432575f86868381811061130057611300612fb7565b6113169260206040909202019081019150612c2c565b5f54604051633af32abf60e01b81526001600160a01b038084166004830152929350911690633af32abf90602401602060405180830381865afa15801561135f573d5f803e3d5ffd5b505050506040513d601f19601f820116820180604052508101906113839190612f64565b6113ab5760405163751dff9760e11b81526001600160a01b03821660048201526024016108bf565b8686838181106113bd576113bd612fb7565b6001600160a01b039093165f818152600a60209081526040808320960294909401939093013590935550600b805460018181018355919092527f0175b7a638427703f0dbe7bb9bbf987a2551717b34e79f33b5b1008d1fa01db990910180546001600160a01b031916909217909155016112e5565b5060405133907f2d47a742b8d7df7c1fc5a9a631b206b364e6cb2722490759f63bb3ab14b132e0905f90a25050505050565b5f33610871818585611edc565b5f8054906101000a90046001600160a01b03166001600160a01b0316633a0dad8e6040518163ffffffff1660e01b8152600401602060405180830381865afa1580156114bf573d5f803e3d5ffd5b505050506040513d601f19601f820116820180604052508101906114e39190612f9c565b6001600160a01b0316336001600160a01b03161461151457604051631af2ab4f60e31b815260040160405180910390fd5b61151c611ce0565b6007545f5b81811015610d7c575f6007828154811061153d5761153d612fb7565b5f9182526020808320909101546001600160a01b03168083526005909152604082208054929055915061157030826121b7565b5f61157a82610853565b9050611584610d96565b60405163a9059cbb60e01b81526001600160a01b03858116600483015260248201849052919091169063a9059cbb906044016020604051808303815f875af11580156115d2573d5f803e3d5ffd5b505050506040513d601f19601f820116820180604052508101906115f69190612f64565b611613576040516312171d8360e31b815260040160405180910390fd5b60408051838152602081018690526001600160a01b038516917febad37b830b1857ef9af5983fc20dc0ded12dc472ba1e22e06fd3a9465b4506c910160405180910390a2505050600101611521565b5f61085e826001611b2b565b5f604051628a595160e01b815260040160405180910390fd5b5f604051630ad8521960e31b815260040160405180910390fd5b6116a9611ce0565b805f036116b85761089e610d96565b335f908152600460205260409020548111156116e7576040516332194fd360e21b815260040160405180910390fd5b335f9081526004602052604081208054839290611705908490612fcb565b90915550506006545f611716610d96565b60405163a9059cbb60e01b8152336004820152602481018590526001600160a01b03919091169063a9059cbb906044016020604051808303815f875af1158015611762573d5f803e3d5ffd5b505050506040513d601f19601f820116820180604052508101906117869190612f64565b9050806117a6576040516312171d8360e31b815260040160405180910390fd5b604080518481526020810184905233917f2b19ac8271899522bfff26e405c20643af4cdf99b525ef2cd8cde689644874ae910160405180910390a25050610a3d60015f805160206132b083398151915255565b6007545f908190815b818110156118585760055f6007838154811061182057611820612fb7565b5f9182526020808320909101546001600160a01b0316835282019290925260400190205461184e9084612f51565b9250600101611802565b509092915050565b5f61085e825f611c18565b5f61085e61187883610e1e565b5f611b2b565b6006545f908190815b818110156118585760045f600683815481106118a5576118a5612fb7565b5f9182526020808320909101546001600160a01b031683528201929092526040019020546118d39084612f51565b9250600101611887565b6009546060908190806001600160401b038111156118fd576118fd612c47565b604051908082528060200260200182016040528015611926578160200160208202803683370190505b509250806001600160401b0381111561194157611941612c47565b60405190808252806020026020018201604052801561196a578160200160208202803683370190505b5091505f5b81811015611a25575f6009828154811061198b5761198b612fb7565b905f5260205f20015f9054906101000a90046001600160a01b03169050808583815181106119bb576119bb612fb7565b60200260200101906001600160a01b031690816001600160a01b03168152505060085f826001600160a01b03166001600160a01b031681526020019081526020015f2054848381518110611a1157611a11612fb7565b60209081029190910101525060010161196f565b50509091565b5f61085e82610e1e565b6001600160a01b039182165f9081527f52c63247e1f47db19d5ce0460030c497f067ca4cebf71ba98eeadabe20bace016020908152604080832093909416825291909152205490565b5f807f237e158222e3e6968b72b9db0d8043aacf074ad9f650f0d1606b4d82ee432c00610dba565b611aae612141565b7f237e158222e3e6968b72b9db0d8043aacf074ad9f650f0d1606b4d82ee432c0080546001600160a01b0319166001600160a01b0383169081178255611af2610fb0565b6001600160a01b03167f38d16b8cac22d99fc7c124b9cd0de2d3fa1faef420bfe791d8c362d765e2270060405160405180910390a35050565b5f80611b557f52c63247e1f47db19d5ce0460030c497f067ca4cebf71ba98eeadabe20bace025490565b90505f805f9054906101000a90046001600160a01b03166001600160a01b031663b71ee4fc6040518163ffffffff1660e01b8152600401602060405180830381865afa158015611ba7573d5f803e3d5ffd5b505050506040513d601f19601f82011682018060405250810190611bcb9190612fde565b9050611bfd6003546001611bdf9190612f51565b611bea83600a6130e1565b611bf49085612f51565b879190876121eb565b95945050505050565b611c13838383600161222d565b505050565b5f80611c427f52c63247e1f47db19d5ce0460030c497f067ca4cebf71ba98eeadabe20bace025490565b90505f805f9054906101000a90046001600160a01b03166001600160a01b031663b71ee4fc6040518163ffffffff1660e01b8152600401602060405180830381865afa158015611c94573d5f803e3d5ffd5b505050506040513d601f19601f82011682018060405250810190611cb89190612fde565b9050611bfd611cc882600a6130e1565b611cd29084612f51565b600354611bf4906001612f51565b5f805160206132b0833981519152805460011901611d1157604051633ee5aeb560e01b815260040160405180910390fd5b60029055565b60015f805160206132b083398151915255565b5f807ff0c57e16840df040f15088dc2f81fe391c3923bec73e23a9662efc9c229c6a0061085e565b611d5a612311565b6001600160a01b038416611d8157604051639c6bb9f560e01b815260040160405180910390fd5b6001600160a01b038316611da857604051636a485a5b60e11b815260040160405180910390fd5b611db28282612336565b611e1a836001600160a01b0316637158da7c6040518163ffffffff1660e01b8152600401602060405180830381865afa158015611df1573d5f803e3d5ffd5b505050506040513d601f19601f82011682018060405250810190611e159190612f9c565b612348565b611e22612359565b611e2a612369565b611e32612369565b611e3b84612173565b5050600280546001600160a01b03199081163317909155600180546001600160a01b039485169083161790555f8054929093169116178155600355565b5f611e838484611a35565b90505f19811015611ed65781811015611ec857604051637dc7a0d960e11b81526001600160a01b038416600482015260248101829052604481018390526064016108bf565b611ed684848484035f61222d565b50505050565b6001600160a01b038316611f0557604051634b637e8f60e11b81525f60048201526024016108bf565b6001600160a01b038216611f2e5760405163ec442f0560e01b81525f60048201526024016108bf565b611c13838383612371565b6001600160a01b038216611f625760405163ec442f0560e01b81525f60048201526024016108bf565b610de55f8383612371565b306001600160a01b037f0000000000000000000000000000000000000000000000000000000000000000161480611ff357507f00000000000000000000000000000000000000000000000000000000000000006001600160a01b0316611fe75f80516020613290833981519152546001600160a01b031690565b6001600160a01b031614155b15610d945760405163703e46dd60e11b815260040160405180910390fd5b6001546001600160a01b03163314610a3d576040516356b381a560e01b815260040160405180910390fd5b816001600160a01b03166352d1902d6040518163ffffffff1660e01b8152600401602060405180830381865afa925050508015612096575060408051601f3d908101601f19168201909252612093918101906130ef565b60015b6120be57604051634c9c8ce360e01b81526001600160a01b03831660048201526024016108bf565b5f8051602061329083398151915281146120ee57604051632a87526960e21b8152600481018290526024016108bf565b611c1383836124aa565b306001600160a01b037f00000000000000000000000000000000000000000000000000000000000000001614610d945760405163703e46dd60e11b815260040160405180910390fd5b3361214a610fb0565b6001600160a01b031614610d945760405163118cdaa760e01b81523360048201526024016108bf565b7f237e158222e3e6968b72b9db0d8043aacf074ad9f650f0d1606b4d82ee432c0080546001600160a01b0319168155610de5826124ff565b5f61085e82600461256f565b6001600160a01b0382166121e057604051634b637e8f60e11b81525f60048201526024016108bf565b610de5825f83612371565b5f6122186121f88361261d565b801561221357505f848061220e5761220e613106565b868809115b151590565b612223868686612649565b611bfd9190612f51565b5f805160206132708339815191526001600160a01b0385166122645760405163e602df0560e01b81525f60048201526024016108bf565b6001600160a01b03841661228d57604051634a1406b160e11b81525f60048201526024016108bf565b6001600160a01b038086165f9081526001830160209081526040808320938816835292905220839055811561230a57836001600160a01b0316856001600160a01b03167f8c5be1e5ebec7d5bd14f71427d1e84f3dd0314c0f7b2291e5b200ac8c7c3b9258560405161230191815260200190565b60405180910390a35b5050505050565b6123196126f9565b610d9457604051631afcd79f60e31b815260040160405180910390fd5b61233e612311565b610de58282612712565b612350612311565b610a3d81612762565b612361612311565b610d946127e5565b610d94612311565b5f805160206132708339815191526001600160a01b0384166123ab5781816002015f8282546123a09190612f51565b9091555061241b9050565b6001600160a01b0384165f90815260208290526040902054828110156123fd5760405163391434e360e21b81526001600160a01b038616600482015260248101829052604481018490526064016108bf565b6001600160a01b0385165f9081526020839052604090209083900390555b6001600160a01b038316612439576002810180548390039055612457565b6001600160a01b0383165f9081526020829052604090208054830190555b826001600160a01b0316846001600160a01b03167fddf252ad1be2c89b69c2b068fc378daa952ba7f163c4a11628f55a4df523b3ef8460405161249c91815260200190565b60405180910390a350505050565b6124b3826127ed565b6040516001600160a01b038316907fbc7cd75a20ee27fd9adebab32041f755214dbc6bffa90cc0225b39da2e5c2d3b905f90a28051156124f757611c138282612850565b610de56128b9565b7f9016d09d72d40fdae2fd8ceac6b6234c7706214fd39c1cd1e609a0528c19930080546001600160a01b031981166001600160a01b03848116918217845560405192169182907f8be0079c531659141344cd1fd0a4f28419497f9722a3daafe3b4186f6b6457e0905f90a3505050565b5f807fed8d60e34876f751cc8b014c560745351147d9de11b9347c854e881b128ea6006001810154604051631ce2e8d760e31b8152600481018790526001600160f81b031960f887901b1660248201529192506001600160a01b03169063e71746b8906044016020604051808303815f875af11580156125f1573d5f803e3d5ffd5b505050506040513d601f19601f8201168201806040525081019061261591906130ef565b949350505050565b5f60028260038111156126325761263261311a565b61263c919061312e565b60ff166001149050919050565b5f805f61265686866128d8565b91509150815f0361267a5783818161267057612670613106565b0492505050610bc4565b8184116126915761269160038515026011186128f4565b5f848688095f868103871696879004966002600389028118808a02820302808a02820302808a02820302808a02820302808a02820302808a02909103029181900381900460010185841190960395909502919093039390930492909217029150509392505050565b5f612702611d2a565b54600160401b900460ff16919050565b61271a612311565b5f805160206132708339815191527f52c63247e1f47db19d5ce0460030c497f067ca4cebf71ba98eeadabe20bace03612753848261319f565b5060048101611ed6838261319f565b61276a612311565b7f0773e532dfede91f04b12a73d3d2acd361424f41f76b4fb79f090161e36b4e005f8061279684612905565b91509150816127a65760126127a8565b805b83546001600160a81b031916600160a01b60ff92909216919091026001600160a01b031916176001600160a01b0394909416939093179091555050565b611d17612311565b806001600160a01b03163b5f0361282257604051634c9c8ce360e01b81526001600160a01b03821660048201526024016108bf565b5f8051602061329083398151915280546001600160a01b0319166001600160a01b0392909216919091179055565b60605f80846001600160a01b03168460405161286c9190613259565b5f60405180830381855af49150503d805f81146128a4576040519150601f19603f3d011682016040523d82523d5f602084013e6128a9565b606091505b5091509150611bfd8583836129db565b3415610d945760405163b398979f60e01b815260040160405180910390fd5b5f805f1983850993909202808410938190039390930393915050565b634e487b715f52806020526024601cfd5b60408051600481526024810182526020810180516001600160e01b031663313ce56760e01b17905290515f918291829182916001600160a01b0387169161294b91613259565b5f60405180830381855afa9150503d805f8114612983576040519150601f19603f3d011682016040523d82523d5f602084013e612988565b606091505b509150915081801561299c57506020815110155b156129cf575f818060200190518101906129b691906130ef565b905060ff81116129cd576001969095509350505050565b505b505f9485945092505050565b6060826129f0576129eb82612a37565b610bc4565b8151158015612a0757506001600160a01b0384163b155b15612a3057604051639996b31560e01b81526001600160a01b03851660048201526024016108bf565b5080610bc4565b805115612a475780518082602001fd5b60405163d6bda27560e01b815260040160405180910390fd5b5080545f8255905f5260205f2090810190610a3d91905b80821115612a8a575f8155600101612a77565b5090565b602081525f82518060208401528060208501604085015e5f604082850101526040601f19601f83011684010191505092915050565b5f60208284031215612ad3575f80fd5b5035919050565b6001600160a01b0381168114610a3d575f80fd5b5f8060408385031215612aff575f80fd5b8235612b0a81612ada565b946020939093013593505050565b5f8083601f840112612b28575f80fd5b5081356001600160401b03811115612b3e575f80fd5b602083019150836020828501011115612b55575f80fd5b9250929050565b5f805f805f8060808789031215612b71575f80fd5b8635612b7c81612ada565b95506020870135612b8c81612ada565b945060408701356001600160401b03811115612ba6575f80fd5b612bb289828a01612b18565b90955093505060608701356001600160401b03811115612bd0575f80fd5b612bdc89828a01612b18565b979a9699509497509295939492505050565b5f805f60608486031215612c00575f80fd5b8335612c0b81612ada565b92506020840135612c1b81612ada565b929592945050506040919091013590565b5f60208284031215612c3c575f80fd5b8135610bc481612ada565b634e487b7160e01b5f52604160045260245ffd5b5f8060408385031215612c6c575f80fd5b8235612c7781612ada565b915060208301356001600160401b03811115612c91575f80fd5b8301601f81018513612ca1575f80fd5b80356001600160401b03811115612cba57612cba612c47565b604051601f8201601f19908116603f011681016001600160401b0381118282101715612ce857612ce8612c47565b604052818152828201602001871015612cff575f80fd5b816020840160208301375f602083830101528093505050509250929050565b5f8060408385031215612d2f575f80fd5b823591506020830135612d4181612ada565b809150509250929050565b5f8083601f840112612d5c575f80fd5b5081356001600160401b03811115612d72575f80fd5b6020830191508360208260061b8501011115612b55575f80fd5b5f805f60408486031215612d9e575f80fd5b83356001600160401b03811115612db3575f80fd5b612dbf86828701612d4c565b909790965060209590950135949350505050565b5f8060208385031215612de4575f80fd5b82356001600160401b03811115612df9575f80fd5b612e0585828601612d4c565b90969095509350505050565b5f805f60608486031215612e23575f80fd5b833592506020840135612e3581612ada565b91506040840135612e4581612ada565b809150509250925092565b604080825283519082018190525f9060208501906060840190835b81811015612e925783516001600160a01b0316835260209384019390920191600101612e6b565b5050838103602080860191909152855180835291810192508501905f5b81811015612ecd578251845260209384019390920191600101612eaf565b50919695505050505050565b5f8060408385031215612eea575f80fd5b8235612ef581612ada565b91506020830135612d4181612ada565b600181811c90821680612f1957607f821691505b602082108103612f3757634e487b7160e01b5f52602260045260245ffd5b50919050565b634e487b7160e01b5f52601160045260245ffd5b8082018082111561085e5761085e612f3d565b5f60208284031215612f74575f80fd5b81518015158114610bc4575f80fd5b60ff818116838216019081111561085e5761085e612f3d565b5f60208284031215612fac575f80fd5b8151610bc481612ada565b634e487b7160e01b5f52603260045260245ffd5b8181038181111561085e5761085e612f3d565b5f60208284031215612fee575f80fd5b815160ff81168114610bc4575f80fd5b6001815b60018411156130395780850481111561301d5761301d612f3d565b600184161561302b57908102905b60019390931c928002613002565b935093915050565b5f8261304f5750600161085e565b8161305b57505f61085e565b8160018114613071576002811461307b57613097565b600191505061085e565b60ff84111561308c5761308c612f3d565b50506001821b61085e565b5060208310610133831016604e8410600b84101617156130ba575081810a61085e565b6130c65f198484612ffe565b805f19048211156130d9576130d9612f3d565b029392505050565b5f610bc460ff841683613041565b5f602082840312156130ff575f80fd5b5051919050565b634e487b7160e01b5f52601260045260245ffd5b634e487b7160e01b5f52602160045260245ffd5b5f60ff83168061314c57634e487b7160e01b5f52601260045260245ffd5b8060ff84160691505092915050565b601f821115611c1357805f5260205f20601f840160051c810160208510156131805750805b601f840160051c820191505b8181101561230a575f815560010161318c565b81516001600160401b038111156131b8576131b8612c47565b6131cc816131c68454612f05565b8461315b565b6020601f8211600181146131fe575f83156131e75750848201515b5f19600385901b1c1916600184901b17845561230a565b5f84815260208120601f198516915b8281101561322d578785015182556020948501946001909201910161320d565b508482101561324a57868401515f19600387901b60f8161c191681555b50505050600190811b01905550565b5f82518060208501845e5f92019182525091905056fe52c63247e1f47db19d5ce0460030c497f067ca4cebf71ba98eeadabe20bace00360894a13ba1a3210667c828492db98dca3e2076cc3735a920a3ca505d382bbc9b779b17422d0df92223018b32b4d1fa46e071723d6817e2486d003becc55f00a2646970667358221220e0e1f317516e531a65a254e2b017356402d82266bd4e22d9cb97e87c73dd310464736f6c634300081a0033",
  "linkReferences": {},
  "deployedLinkReferences": {}
}