{
  "_format": "hh-sol-artifact-1",
  "contractName": "OrionEncryptedVault",
  "sourceName": "contracts/OrionEncryptedVault.sol",
  "abi": [
    {
      "inputs": [
        {
          "internalType": "address",
          "name": "target",
          "type": "address"
        }
      ],
      "name": "AddressEmptyCode",
      "type": "error"
    },
    {
      "inputs": [
        {
          "internalType": "address",
          "name": "asset",
          "type": "address"
        }
      ],
      "name": "AmountMustBeGreaterThanZero",
      "type": "error"
    },
    {
      "inputs": [
        {
          "internalType": "address",
          "name": "implementation",
          "type": "address"
        }
      ],
      "name": "ERC1967InvalidImplementation",
      "type": "error"
    },
    {
      "inputs": [],
      "name": "ERC1967NonPayable",
      "type": "error"
    },
    {
      "inputs": [
        {
          "internalType": "address",
          "name": "spender",
          "type": "address"
        },
        {
          "internalType": "uint256",
          "name": "allowance",
          "type": "uint256"
        },
        {
          "internalType": "uint256",
          "name": "needed",
          "type": "uint256"
        }
      ],
      "name": "ERC20InsufficientAllowance",
      "type": "error"
    },
    {
      "inputs": [
        {
          "internalType": "address",
          "name": "sender",
          "type": "address"
        },
        {
          "internalType": "uint256",
          "name": "balance",
          "type": "uint256"
        },
        {
          "internalType": "uint256",
          "name": "needed",
          "type": "uint256"
        }
      ],
      "name": "ERC20InsufficientBalance",
      "type": "error"
    },
    {
      "inputs": [
        {
          "internalType": "address",
          "name": "approver",
          "type": "address"
        }
      ],
      "name": "ERC20InvalidApprover",
      "type": "error"
    },
    {
      "inputs": [
        {
          "internalType": "address",
          "name": "receiver",
          "type": "address"
        }
      ],
      "name": "ERC20InvalidReceiver",
      "type": "error"
    },
    {
      "inputs": [
        {
          "internalType": "address",
          "name": "sender",
          "type": "address"
        }
      ],
      "name": "ERC20InvalidSender",
      "type": "error"
    },
    {
      "inputs": [
        {
          "internalType": "address",
          "name": "spender",
          "type": "address"
        }
      ],
      "name": "ERC20InvalidSpender",
      "type": "error"
    },
    {
      "inputs": [
        {
          "internalType": "address",
          "name": "receiver",
          "type": "address"
        },
        {
          "internalType": "uint256",
          "name": "assets",
          "type": "uint256"
        },
        {
          "internalType": "uint256",
          "name": "max",
          "type": "uint256"
        }
      ],
      "name": "ERC4626ExceededMaxDeposit",
      "type": "error"
    },
    {
      "inputs": [
        {
          "internalType": "address",
          "name": "receiver",
          "type": "address"
        },
        {
          "internalType": "uint256",
          "name": "shares",
          "type": "uint256"
        },
        {
          "internalType": "uint256",
          "name": "max",
          "type": "uint256"
        }
      ],
      "name": "ERC4626ExceededMaxMint",
      "type": "error"
    },
    {
      "inputs": [
        {
          "internalType": "address",
          "name": "owner",
          "type": "address"
        },
        {
          "internalType": "uint256",
          "name": "shares",
          "type": "uint256"
        },
        {
          "internalType": "uint256",
          "name": "max",
          "type": "uint256"
        }
      ],
      "name": "ERC4626ExceededMaxRedeem",
      "type": "error"
    },
    {
      "inputs": [
        {
          "internalType": "address",
          "name": "owner",
          "type": "address"
        },
        {
          "internalType": "uint256",
          "name": "assets",
          "type": "uint256"
        },
        {
          "internalType": "uint256",
          "name": "max",
          "type": "uint256"
        }
      ],
      "name": "ERC4626ExceededMaxWithdraw",
      "type": "error"
    },
    {
      "inputs": [],
      "name": "FailedCall",
      "type": "error"
    },
    {
      "inputs": [],
      "name": "InvalidConfigAddress",
      "type": "error"
    },
    {
      "inputs": [],
      "name": "InvalidCuratorAddress",
      "type": "error"
    },
    {
      "inputs": [],
      "name": "InvalidInitialization",
      "type": "error"
    },
    {
      "inputs": [],
      "name": "NotCurator",
      "type": "error"
    },
    {
      "inputs": [],
      "name": "NotEnoughDepositRequest",
      "type": "error"
    },
    {
      "inputs": [],
      "name": "NotEnoughShares",
      "type": "error"
    },
    {
      "inputs": [],
      "name": "NotInitializing",
      "type": "error"
    },
    {
      "inputs": [],
      "name": "NotInternalStatesOrchestrator",
      "type": "error"
    },
    {
      "inputs": [],
      "name": "NotLiquidityOrchestrator",
      "type": "error"
    },
    {
      "inputs": [],
      "name": "OrderIntentCannotBeEmpty",
      "type": "error"
    },
    {
      "inputs": [
        {
          "internalType": "address",
          "name": "owner",
          "type": "address"
        }
      ],
      "name": "OwnableInvalidOwner",
      "type": "error"
    },
    {
      "inputs": [
        {
          "internalType": "address",
          "name": "account",
          "type": "address"
        }
      ],
      "name": "OwnableUnauthorizedAccount",
      "type": "error"
    },
    {
      "inputs": [],
      "name": "ReentrancyGuardReentrantCall",
      "type": "error"
    },
    {
      "inputs": [],
      "name": "SharesMustBeGreaterThanZero",
      "type": "error"
    },
    {
      "inputs": [],
      "name": "SynchronousDepositsDisabled",
      "type": "error"
    },
    {
      "inputs": [],
      "name": "SynchronousRedemptionsDisabled",
      "type": "error"
    },
    {
      "inputs": [],
      "name": "SynchronousWithdrawalsDisabled",
      "type": "error"
    },
    {
      "inputs": [
        {
          "internalType": "address",
          "name": "token",
          "type": "address"
        }
      ],
      "name": "TokenNotWhitelisted",
      "type": "error"
    },
    {
      "inputs": [],
      "name": "TransferFailed",
      "type": "error"
    },
    {
      "inputs": [],
      "name": "UUPSUnauthorizedCallContext",
      "type": "error"
    },
    {
      "inputs": [
        {
          "internalType": "bytes32",
          "name": "slot",
          "type": "bytes32"
        }
      ],
      "name": "UUPSUnsupportedProxiableUUID",
      "type": "error"
    },
    {
      "inputs": [],
      "name": "ZeroPrice",
      "type": "error"
    },
    {
      "anonymous": false,
      "inputs": [
        {
          "indexed": true,
          "internalType": "address",
          "name": "owner",
          "type": "address"
        },
        {
          "indexed": true,
          "internalType": "address",
          "name": "spender",
          "type": "address"
        },
        {
          "indexed": false,
          "internalType": "uint256",
          "name": "value",
          "type": "uint256"
        }
      ],
      "name": "Approval",
      "type": "event"
    },
    {
      "anonymous": false,
      "inputs": [
        {
          "indexed": true,
          "internalType": "address",
          "name": "sender",
          "type": "address"
        },
        {
          "indexed": true,
          "internalType": "address",
          "name": "owner",
          "type": "address"
        },
        {
          "indexed": false,
          "internalType": "uint256",
          "name": "assets",
          "type": "uint256"
        },
        {
          "indexed": false,
          "internalType": "uint256",
          "name": "shares",
          "type": "uint256"
        }
      ],
      "name": "Deposit",
      "type": "event"
    },
    {
      "anonymous": false,
      "inputs": [
        {
          "indexed": true,
          "internalType": "address",
          "name": "user",
          "type": "address"
        },
        {
          "indexed": false,
          "internalType": "uint256",
          "name": "amount",
          "type": "uint256"
        },
        {
          "indexed": false,
          "internalType": "uint256",
          "name": "requestId",
          "type": "uint256"
        }
      ],
      "name": "DepositProcessed",
      "type": "event"
    },
    {
      "anonymous": false,
      "inputs": [
        {
          "indexed": true,
          "internalType": "address",
          "name": "user",
          "type": "address"
        },
        {
          "indexed": false,
          "internalType": "uint256",
          "name": "amount",
          "type": "uint256"
        },
        {
          "indexed": false,
          "internalType": "uint256",
          "name": "depositorCount",
          "type": "uint256"
        }
      ],
      "name": "DepositRequestCancelled",
      "type": "event"
    },
    {
      "anonymous": false,
      "inputs": [
        {
          "indexed": true,
          "internalType": "address",
          "name": "user",
          "type": "address"
        },
        {
          "indexed": false,
          "internalType": "uint256",
          "name": "amount",
          "type": "uint256"
        },
        {
          "indexed": false,
          "internalType": "uint256",
          "name": "requestId",
          "type": "uint256"
        }
      ],
      "name": "DepositRequested",
      "type": "event"
    },
    {
      "anonymous": false,
      "inputs": [
        {
          "indexed": false,
          "internalType": "uint64",
          "name": "version",
          "type": "uint64"
        }
      ],
      "name": "Initialized",
      "type": "event"
    },
    {
      "anonymous": false,
      "inputs": [
        {
          "indexed": true,
          "internalType": "address",
          "name": "curator",
          "type": "address"
        }
      ],
      "name": "OrderSubmitted",
      "type": "event"
    },
    {
      "anonymous": false,
      "inputs": [
        {
          "indexed": true,
          "internalType": "address",
          "name": "previousOwner",
          "type": "address"
        },
        {
          "indexed": true,
          "internalType": "address",
          "name": "newOwner",
          "type": "address"
        }
      ],
      "name": "OwnershipTransferStarted",
      "type": "event"
    },
    {
      "anonymous": false,
      "inputs": [
        {
          "indexed": true,
          "internalType": "address",
          "name": "previousOwner",
          "type": "address"
        },
        {
          "indexed": true,
          "internalType": "address",
          "name": "newOwner",
          "type": "address"
        }
      ],
      "name": "OwnershipTransferred",
      "type": "event"
    },
    {
      "anonymous": false,
      "inputs": [
        {
          "indexed": true,
          "internalType": "address",
          "name": "from",
          "type": "address"
        },
        {
          "indexed": true,
          "internalType": "address",
          "name": "to",
          "type": "address"
        },
        {
          "indexed": false,
          "internalType": "uint256",
          "name": "value",
          "type": "uint256"
        }
      ],
      "name": "Transfer",
      "type": "event"
    },
    {
      "anonymous": false,
      "inputs": [
        {
          "indexed": true,
          "internalType": "address",
          "name": "implementation",
          "type": "address"
        }
      ],
      "name": "Upgraded",
      "type": "event"
    },
    {
      "anonymous": false,
      "inputs": [
        {
          "indexed": false,
          "internalType": "uint256",
          "name": "newTotalAssets",
          "type": "uint256"
        }
      ],
      "name": "VaultStateUpdated",
      "type": "event"
    },
    {
      "anonymous": false,
      "inputs": [
        {
          "indexed": true,
          "internalType": "address",
          "name": "sender",
          "type": "address"
        },
        {
          "indexed": true,
          "internalType": "address",
          "name": "receiver",
          "type": "address"
        },
        {
          "indexed": true,
          "internalType": "address",
          "name": "owner",
          "type": "address"
        },
        {
          "indexed": false,
          "internalType": "uint256",
          "name": "assets",
          "type": "uint256"
        },
        {
          "indexed": false,
          "internalType": "uint256",
          "name": "shares",
          "type": "uint256"
        }
      ],
      "name": "Withdraw",
      "type": "event"
    },
    {
      "anonymous": false,
      "inputs": [
        {
          "indexed": true,
          "internalType": "address",
          "name": "user",
          "type": "address"
        },
        {
          "indexed": false,
          "internalType": "uint256",
          "name": "shares",
          "type": "uint256"
        },
        {
          "indexed": false,
          "internalType": "uint256",
          "name": "requestId",
          "type": "uint256"
        }
      ],
      "name": "WithdrawProcessed",
      "type": "event"
    },
    {
      "anonymous": false,
      "inputs": [
        {
          "indexed": true,
          "internalType": "address",
          "name": "user",
          "type": "address"
        },
        {
          "indexed": false,
          "internalType": "uint256",
          "name": "shares",
          "type": "uint256"
        },
        {
          "indexed": false,
          "internalType": "uint256",
          "name": "requestId",
          "type": "uint256"
        }
      ],
      "name": "WithdrawRequested",
      "type": "event"
    },
    {
      "inputs": [],
      "name": "UPGRADE_INTERFACE_VERSION",
      "outputs": [
        {
          "internalType": "string",
          "name": "",
          "type": "string"
        }
      ],
      "stateMutability": "view",
      "type": "function"
    },
    {
      "inputs": [],
      "name": "acceptOwnership",
      "outputs": [],
      "stateMutability": "nonpayable",
      "type": "function"
    },
    {
      "inputs": [
        {
          "internalType": "address",
          "name": "owner",
          "type": "address"
        },
        {
          "internalType": "address",
          "name": "spender",
          "type": "address"
        }
      ],
      "name": "allowance",
      "outputs": [
        {
          "internalType": "uint256",
          "name": "",
          "type": "uint256"
        }
      ],
      "stateMutability": "view",
      "type": "function"
    },
    {
      "inputs": [
        {
          "internalType": "address",
          "name": "spender",
          "type": "address"
        },
        {
          "internalType": "uint256",
          "name": "value",
          "type": "uint256"
        }
      ],
      "name": "approve",
      "outputs": [
        {
          "internalType": "bool",
          "name": "",
          "type": "bool"
        }
      ],
      "stateMutability": "nonpayable",
      "type": "function"
    },
    {
      "inputs": [],
      "name": "asset",
      "outputs": [
        {
          "internalType": "address",
          "name": "",
          "type": "address"
        }
      ],
      "stateMutability": "view",
      "type": "function"
    },
    {
      "inputs": [
        {
          "internalType": "address",
          "name": "account",
          "type": "address"
        }
      ],
      "name": "balanceOf",
      "outputs": [
        {
          "internalType": "uint256",
          "name": "",
          "type": "uint256"
        }
      ],
      "stateMutability": "view",
      "type": "function"
    },
    {
      "inputs": [
        {
          "internalType": "uint256",
          "name": "amount",
          "type": "uint256"
        }
      ],
      "name": "cancelDepositRequest",
      "outputs": [],
      "stateMutability": "nonpayable",
      "type": "function"
    },
    {
      "inputs": [],
      "name": "config",
      "outputs": [
        {
          "internalType": "contract IOrionConfig",
          "name": "",
          "type": "address"
        }
      ],
      "stateMutability": "view",
      "type": "function"
    },
    {
      "inputs": [
        {
          "internalType": "uint256",
          "name": "shares",
          "type": "uint256"
        }
      ],
      "name": "convertToAssets",
      "outputs": [
        {
          "internalType": "uint256",
          "name": "",
          "type": "uint256"
        }
      ],
      "stateMutability": "view",
      "type": "function"
    },
    {
      "inputs": [
        {
          "internalType": "uint256",
          "name": "assets",
          "type": "uint256"
        }
      ],
      "name": "convertToShares",
      "outputs": [
        {
          "internalType": "uint256",
          "name": "",
          "type": "uint256"
        }
      ],
      "stateMutability": "view",
      "type": "function"
    },
    {
      "inputs": [],
      "name": "curator",
      "outputs": [
        {
          "internalType": "address",
          "name": "",
          "type": "address"
        }
      ],
      "stateMutability": "view",
      "type": "function"
    },
    {
      "inputs": [],
      "name": "decimals",
      "outputs": [
        {
          "internalType": "uint8",
          "name": "",
          "type": "uint8"
        }
      ],
      "stateMutability": "view",
      "type": "function"
    },
    {
      "inputs": [],
      "name": "deployer",
      "outputs": [
        {
          "internalType": "address",
          "name": "",
          "type": "address"
        }
      ],
      "stateMutability": "view",
      "type": "function"
    },
    {
      "inputs": [
        {
          "internalType": "uint256",
          "name": "",
          "type": "uint256"
        },
        {
          "internalType": "address",
          "name": "",
          "type": "address"
        }
      ],
      "name": "deposit",
      "outputs": [
        {
          "internalType": "uint256",
          "name": "",
          "type": "uint256"
        }
      ],
      "stateMutability": "pure",
      "type": "function"
    },
    {
      "inputs": [],
      "name": "getPendingDeposits",
      "outputs": [
        {
          "internalType": "uint256",
          "name": "",
          "type": "uint256"
        }
      ],
      "stateMutability": "view",
      "type": "function"
    },
    {
      "inputs": [],
      "name": "getPendingWithdrawals",
      "outputs": [
        {
          "internalType": "uint256",
          "name": "",
          "type": "uint256"
        }
      ],
      "stateMutability": "view",
      "type": "function"
    },
    {
      "inputs": [],
      "name": "getPortfolio",
      "outputs": [
        {
          "internalType": "address[]",
          "name": "tokens",
          "type": "address[]"
        },
        {
          "internalType": "euint32[]",
          "name": "amounts",
          "type": "uint256[]"
        }
      ],
      "stateMutability": "view",
      "type": "function"
    },
    {
      "inputs": [
        {
          "internalType": "address",
          "name": "curatorAddress",
          "type": "address"
        },
        {
          "internalType": "contract IOrionConfig",
          "name": "configAddress",
          "type": "address"
        },
        {
          "internalType": "string",
          "name": "name",
          "type": "string"
        },
        {
          "internalType": "string",
          "name": "symbol",
          "type": "string"
        }
      ],
      "name": "initialize",
      "outputs": [],
      "stateMutability": "nonpayable",
      "type": "function"
    },
    {
      "inputs": [
        {
          "internalType": "address",
          "name": "",
          "type": "address"
        }
      ],
      "name": "maxDeposit",
      "outputs": [
        {
          "internalType": "uint256",
          "name": "",
          "type": "uint256"
        }
      ],
      "stateMutability": "view",
      "type": "function"
    },
    {
      "inputs": [
        {
          "internalType": "address",
          "name": "",
          "type": "address"
        }
      ],
      "name": "maxMint",
      "outputs": [
        {
          "internalType": "uint256",
          "name": "",
          "type": "uint256"
        }
      ],
      "stateMutability": "view",
      "type": "function"
    },
    {
      "inputs": [
        {
          "internalType": "address",
          "name": "owner",
          "type": "address"
        }
      ],
      "name": "maxRedeem",
      "outputs": [
        {
          "internalType": "uint256",
          "name": "",
          "type": "uint256"
        }
      ],
      "stateMutability": "view",
      "type": "function"
    },
    {
      "inputs": [
        {
          "internalType": "address",
          "name": "owner",
          "type": "address"
        }
      ],
      "name": "maxWithdraw",
      "outputs": [
        {
          "internalType": "uint256",
          "name": "",
          "type": "uint256"
        }
      ],
      "stateMutability": "view",
      "type": "function"
    },
    {
      "inputs": [
        {
          "internalType": "uint256",
          "name": "",
          "type": "uint256"
        },
        {
          "internalType": "address",
          "name": "",
          "type": "address"
        }
      ],
      "name": "mint",
      "outputs": [
        {
          "internalType": "uint256",
          "name": "",
          "type": "uint256"
        }
      ],
      "stateMutability": "pure",
      "type": "function"
    },
    {
      "inputs": [],
      "name": "name",
      "outputs": [
        {
          "internalType": "string",
          "name": "",
          "type": "string"
        }
      ],
      "stateMutability": "view",
      "type": "function"
    },
    {
      "inputs": [],
      "name": "owner",
      "outputs": [
        {
          "internalType": "address",
          "name": "",
          "type": "address"
        }
      ],
      "stateMutability": "view",
      "type": "function"
    },
    {
      "inputs": [],
      "name": "pendingOwner",
      "outputs": [
        {
          "internalType": "address",
          "name": "",
          "type": "address"
        }
      ],
      "stateMutability": "view",
      "type": "function"
    },
    {
      "inputs": [
        {
          "internalType": "uint256",
          "name": "assets",
          "type": "uint256"
        }
      ],
      "name": "previewDeposit",
      "outputs": [
        {
          "internalType": "uint256",
          "name": "",
          "type": "uint256"
        }
      ],
      "stateMutability": "view",
      "type": "function"
    },
    {
      "inputs": [
        {
          "internalType": "uint256",
          "name": "shares",
          "type": "uint256"
        }
      ],
      "name": "previewMint",
      "outputs": [
        {
          "internalType": "uint256",
          "name": "",
          "type": "uint256"
        }
      ],
      "stateMutability": "view",
      "type": "function"
    },
    {
      "inputs": [
        {
          "internalType": "uint256",
          "name": "shares",
          "type": "uint256"
        }
      ],
      "name": "previewRedeem",
      "outputs": [
        {
          "internalType": "uint256",
          "name": "",
          "type": "uint256"
        }
      ],
      "stateMutability": "view",
      "type": "function"
    },
    {
      "inputs": [
        {
          "internalType": "uint256",
          "name": "assets",
          "type": "uint256"
        }
      ],
      "name": "previewWithdraw",
      "outputs": [
        {
          "internalType": "uint256",
          "name": "",
          "type": "uint256"
        }
      ],
      "stateMutability": "view",
      "type": "function"
    },
    {
      "inputs": [],
      "name": "processDepositRequests",
      "outputs": [],
      "stateMutability": "nonpayable",
      "type": "function"
    },
    {
      "inputs": [],
      "name": "processWithdrawRequests",
      "outputs": [],
      "stateMutability": "nonpayable",
      "type": "function"
    },
    {
      "inputs": [],
      "name": "proxiableUUID",
      "outputs": [
        {
          "internalType": "bytes32",
          "name": "",
          "type": "bytes32"
        }
      ],
      "stateMutability": "view",
      "type": "function"
    },
    {
      "inputs": [
        {
          "internalType": "uint256",
          "name": "",
          "type": "uint256"
        },
        {
          "internalType": "address",
          "name": "",
          "type": "address"
        },
        {
          "internalType": "address",
          "name": "",
          "type": "address"
        }
      ],
      "name": "redeem",
      "outputs": [
        {
          "internalType": "uint256",
          "name": "",
          "type": "uint256"
        }
      ],
      "stateMutability": "pure",
      "type": "function"
    },
    {
      "inputs": [],
      "name": "renounceOwnership",
      "outputs": [],
      "stateMutability": "nonpayable",
      "type": "function"
    },
    {
      "inputs": [
        {
          "internalType": "uint256",
          "name": "amount",
          "type": "uint256"
        }
      ],
      "name": "requestDeposit",
      "outputs": [],
      "stateMutability": "nonpayable",
      "type": "function"
    },
    {
      "inputs": [
        {
          "internalType": "uint256",
          "name": "shares",
          "type": "uint256"
        }
      ],
      "name": "requestWithdraw",
      "outputs": [],
      "stateMutability": "nonpayable",
      "type": "function"
    },
    {
      "inputs": [
        {
          "components": [
            {
              "internalType": "address",
              "name": "token",
              "type": "address"
            },
            {
              "internalType": "euint32",
              "name": "weight",
              "type": "uint256"
            }
          ],
          "internalType": "struct IOrionEncryptedVault.EncryptedPosition[]",
          "name": "order",
          "type": "tuple[]"
        }
      ],
      "name": "submitOrderIntent",
      "outputs": [],
      "stateMutability": "nonpayable",
      "type": "function"
    },
    {
      "inputs": [],
      "name": "symbol",
      "outputs": [
        {
          "internalType": "string",
          "name": "",
          "type": "string"
        }
      ],
      "stateMutability": "view",
      "type": "function"
    },
    {
      "inputs": [],
      "name": "totalAssets",
      "outputs": [
        {
          "internalType": "uint256",
          "name": "",
          "type": "uint256"
        }
      ],
      "stateMutability": "view",
      "type": "function"
    },
    {
      "inputs": [],
      "name": "totalSupply",
      "outputs": [
        {
          "internalType": "uint256",
          "name": "",
          "type": "uint256"
        }
      ],
      "stateMutability": "view",
      "type": "function"
    },
    {
      "inputs": [
        {
          "internalType": "address",
          "name": "to",
          "type": "address"
        },
        {
          "internalType": "uint256",
          "name": "value",
          "type": "uint256"
        }
      ],
      "name": "transfer",
      "outputs": [
        {
          "internalType": "bool",
          "name": "",
          "type": "bool"
        }
      ],
      "stateMutability": "nonpayable",
      "type": "function"
    },
    {
      "inputs": [
        {
          "internalType": "address",
          "name": "from",
          "type": "address"
        },
        {
          "internalType": "address",
          "name": "to",
          "type": "address"
        },
        {
          "internalType": "uint256",
          "name": "value",
          "type": "uint256"
        }
      ],
      "name": "transferFrom",
      "outputs": [
        {
          "internalType": "bool",
          "name": "",
          "type": "bool"
        }
      ],
      "stateMutability": "nonpayable",
      "type": "function"
    },
    {
      "inputs": [
        {
          "internalType": "address",
          "name": "newOwner",
          "type": "address"
        }
      ],
      "name": "transferOwnership",
      "outputs": [],
      "stateMutability": "nonpayable",
      "type": "function"
    },
    {
      "inputs": [
        {
          "internalType": "uint256",
          "name": "newTotalAssets",
          "type": "uint256"
        }
      ],
      "name": "updateVaultState",
      "outputs": [],
      "stateMutability": "nonpayable",
      "type": "function"
    },
    {
      "inputs": [
        {
          "internalType": "address",
          "name": "newImplementation",
          "type": "address"
        },
        {
          "internalType": "bytes",
          "name": "data",
          "type": "bytes"
        }
      ],
      "name": "upgradeToAndCall",
      "outputs": [],
      "stateMutability": "payable",
      "type": "function"
    },
    {
      "inputs": [
        {
          "internalType": "uint256",
          "name": "",
          "type": "uint256"
        },
        {
          "internalType": "address",
          "name": "",
          "type": "address"
        },
        {
          "internalType": "address",
          "name": "",
          "type": "address"
        }
      ],
      "name": "withdraw",
      "outputs": [
        {
          "internalType": "uint256",
          "name": "",
          "type": "uint256"
        }
      ],
      "stateMutability": "pure",
      "type": "function"
    }
  ],
  "bytecode": "0x60a0604052306080523480156012575f80fd5b5060805161318c6100395f395f8181611e5501528181611e7e0152611fe0015261318c5ff3fe608060405260043610610280575f3560e01c80638da5cb5b11610155578063c63d75b6116100be578063d905777e11610078578063d905777e14610703578063dd62ed3e14610722578063e30c397814610741578063e66f53b714610755578063ef8b30f714610670578063f2fde38b14610774575f80fd5b8063c63d75b61461042d578063c6e6f59214610670578063ce96cb771461068f578063d1699c26146106ae578063d3d03458146106c2578063d5f39488146106e4575f80fd5b8063ad3cb1cc1161010f578063ad3cb1cc146105b0578063b3d7f6b9146105e0578063b460af94146105ff578063ba0876521461061e578063c0b568e11461063d578063c37fc8a81461065c575f80fd5b80638da5cb5b1461053657806394bf804d1461049357806395d89b411461054a5780639c055a661461055e578063a9059cbb1461057d578063aa9d3a601461059c575f80fd5b806338d52e0f116101f75780636e553f65116101b15780636e553f651461049357806370a08231146104b2578063715018a6146104d1578063745400c9146104e557806379502c551461050457806379ba509714610522575f80fd5b806338d52e0f14610401578063402d267d1461042d5780634cdad506146102c85780634f1ef2861461044d57806352d1902d1461046057806369440afc14610474575f80fd5b80630d1e6667116102485780630d1e66671461033557806318160ddd146103565780632016a0d21461038957806323b872dd146103a8578063313ce567146103c757806333fdc592146103ed575f80fd5b806301e1d1141461028457806306fdde03146102a757806307a2d13a146102c8578063095ea7b3146102e75780630a28a47714610316575b5f80fd5b34801561028f575f80fd5b506003545b6040519081526020015b60405180910390f35b3480156102b2575f80fd5b506102bb610793565b60405161029e919061296b565b3480156102d3575f80fd5b506102946102e23660046129a0565b610853565b3480156102f2575f80fd5b506103066103013660046129cb565b610864565b604051901515815260200161029e565b348015610321575f80fd5b506102946103303660046129a0565b61087b565b348015610340575f80fd5b5061035461034f3660046129a0565b610887565b005b348015610361575f80fd5b507f52c63247e1f47db19d5ce0460030c497f067ca4cebf71ba98eeadabe20bace0254610294565b348015610394575f80fd5b506103546103a3366004612a39565b610a40565b3480156103b3575f80fd5b506103066103c2366004612acb565b610ba6565b3480156103d2575f80fd5b506103db610bcb565b60405160ff909116815260200161029e565b3480156103f8575f80fd5b50610354610c0d565b34801561040c575f80fd5b50610415610d96565b6040516001600160a01b03909116815260200161029e565b348015610438575f80fd5b50610294610447366004612b09565b505f1990565b61035461045b366004612b38565b610dca565b34801561046b575f80fd5b50610294610de9565b34801561047f575f80fd5b5061035461048e3660046129a0565b610e04565b34801561049e575f80fd5b506102946104ad366004612bfb565b610f02565b3480156104bd575f80fd5b506102946104cc366004612b09565b610f1c565b3480156104dc575f80fd5b50610354610f42565b3480156104f0575f80fd5b506103546104ff3660046129a0565b610f53565b34801561050f575f80fd5b505f54610415906001600160a01b031681565b34801561052d575f80fd5b50610354611069565b348015610541575f80fd5b506104156110ae565b348015610555575f80fd5b506102bb6110d6565b348015610569575f80fd5b50610354610578366004612c29565b611114565b348015610588575f80fd5b506103066105973660046129cb565b611341565b3480156105a7575f80fd5b5061035461134e565b3480156105bb575f80fd5b506102bb604051806040016040528060058152602001640352e302e360dc1b81525081565b3480156105eb575f80fd5b506102946105fa3660046129a0565b61153f565b34801561060a575f80fd5b50610294610619366004612c98565b61154b565b348015610629575f80fd5b50610294610638366004612c98565b611564565b348015610648575f80fd5b506103546106573660046129a0565b61157e565b348015610667575f80fd5b506102946116d6565b34801561067b575f80fd5b5061029461068a3660046129a0565b61173d565b34801561069a575f80fd5b506102946106a9366004612b09565b611748565b3480156106b9575f80fd5b5061029461175b565b3480156106cd575f80fd5b506106d66117ba565b60405161029e929190612cd7565b3480156106ef575f80fd5b50600254610415906001600160a01b031681565b34801561070e575f80fd5b5061029461071d366004612b09565b611908565b34801561072d575f80fd5b5061029461073c366004612d60565b611912565b34801561074c575f80fd5b5061041561195b565b348015610760575f80fd5b50600154610415906001600160a01b031681565b34801561077f575f80fd5b5061035461078e366004612b09565b611983565b7f52c63247e1f47db19d5ce0460030c497f067ca4cebf71ba98eeadabe20bace0380546060915f805160206130f7833981519152916107d190612d8c565b80601f01602080910402602001604051908101604052809291908181526020018280546107fd90612d8c565b80156108485780601f1061081f57610100808354040283529160200191610848565b820191905f5260205f20905b81548152906001019060200180831161082b57829003601f168201915b505050505091505090565b5f61085e825f611a08565b92915050565b5f33610871818585611ae3565b5060019392505050565b5f61085e826001611af5565b61088f611bbd565b805f036108c85761089e610d96565b604051636b30633560e01b81526001600160a01b0390911660048201526024015b60405180910390fd5b335f90815260046020526040812054900361091f57600680546001810182555f919091527ff652222313e28459528d920b65115c16c04f3efc82aaedc97be59f3f377c0d3f0180546001600160a01b031916331790555b335f908152600460205260408120805483929061093d908490612dd8565b909155505f905061094c610d96565b6040516323b872dd60e01b8152336004820152306024820152604481018490526001600160a01b0391909116906323b872dd906064016020604051808303815f875af115801561099e573d5f803e3d5ffd5b505050506040513d601f19601f820116820180604052508101906109c29190612deb565b9050806109e2576040516312171d8360e31b815260040160405180910390fd5b60065460405133917f03979a8c481a9e9c06938045cfd5c28535255cb003b10a8fe84ebb3cb4d440f291610a1e91868252602082015260400190565b60405180910390a250610a3d60015f8051602061313783398151915255565b50565b5f610a49611c07565b805490915060ff600160401b82041615906001600160401b03165f81158015610a6f5750825b90505f826001600160401b03166001148015610a8a5750303b155b905081158015610a98575080155b15610ab65760405163f92ee8a960e01b815260040160405180910390fd5b845467ffffffffffffffff191660011785558315610ae057845460ff60401b1916600160401b1785555b610b538b8b8b8b8080601f0160208091040260200160405190810160405280939291908181526020018383808284375f9201919091525050604080516020601f8f018190048102820181019092528d815292508d91508c90819084018382808284375f92019190915250611c2f92505050565b8315610b9957845460ff60401b19168555604051600181527fc7f505b2f371ae2175ee4913f4499e1f2633a7b5936321eed1cdaeb6115181d29060200160405180910390a15b5050505050505050505050565b5f33610bb3858285611d55565b610bbe858585611db9565b60019150505b9392505050565b5f807f0773e532dfede91f04b12a73d3d2acd361424f41f76b4fb79f090161e36b4e0090505f8154610c079190600160a01b900460ff16612e0a565b91505090565b5f8054906101000a90046001600160a01b03166001600160a01b0316633a0dad8e6040518163ffffffff1660e01b8152600401602060405180830381865afa158015610c5b573d5f803e3d5ffd5b505050506040513d601f19601f82011682018060405250810190610c7f9190612e23565b6001600160a01b0316336001600160a01b031614610cb057604051631af2ab4f60e31b815260040160405180910390fd5b610cb8611bbd565b6006545f5b81811015610d7c575f60068281548110610cd957610cd9612e3e565b5f9182526020808320909101546001600160a01b03168083526004909152604082205490925090610d098261173d565b6001600160a01b0384165f908152600460205260408120559050610d2d8382611e16565b60408051838152602081018690526001600160a01b038516917f782ea2005b7f873a0190a1ccb553c732171348d6e16d2b7d3d493c0677dc296e910160405180910390a2505050600101610cbd565b5050610d9460015f8051602061313783398151915255565b565b5f807f0773e532dfede91f04b12a73d3d2acd361424f41f76b4fb79f090161e36b4e005b546001600160a01b031692915050565b610dd2611e4a565b610ddb82611eee565b610de58282611f19565b5050565b5f610df2611fd5565b505f8051602061311783398151915290565b5f8054906101000a90046001600160a01b03166001600160a01b031663348ec5c86040518163ffffffff1660e01b8152600401602060405180830381865afa158015610e52573d5f803e3d5ffd5b505050506040513d601f19601f82011682018060405250810190610e769190612e23565b6001600160a01b0316336001600160a01b031614610ea75760405163efb380d960e01b815260040160405180910390fd5b805f03610ec757604051634dfba02360e01b815260040160405180910390fd5b60038190556040518181527f5e1ff954b5e5257e9ee5d4cb07059e8f5e69b1aaaf9911e5d8d90a6894de9c219060200160405180910390a150565b5f6040516318f2e47360e11b815260040160405180910390fd5b6001600160a01b03165f9081525f805160206130f7833981519152602052604090205490565b610f4a61201e565b610d945f612050565b805f03610f73576040516314e6cbb960e11b815260040160405180910390fd5b80610f7d33610f1c565b1015610f9c57604051633c57b48560e21b815260040160405180910390fd5b335f908152600560205260408120549003610ff357600780546001810182555f919091527fa66cc928b5edb82af9bd49922954155ab7b0942694bea4ce44661d9a8736c6880180546001600160a01b031916331790555b335f9081526005602052604081208054839290611011908490612dd8565b909155506110229050333083611db9565b60075460405133917fd72eb5d043f24a0168ae744d5c44f9596fd673a26bf74d9646bff4b844882d149161105e91858252602082015260400190565b60405180910390a250565b338061107361195b565b6001600160a01b0316146110a55760405163118cdaa760e01b81526001600160a01b03821660048201526024016108bf565b610a3d81612050565b5f807f9016d09d72d40fdae2fd8ceac6b6234c7706214fd39c1cd1e609a0528c199300610dba565b7f52c63247e1f47db19d5ce0460030c497f067ca4cebf71ba98eeadabe20bace0480546060915f805160206130f7833981519152916107d190612d8c565b6001546001600160a01b0316331461113f576040516356b381a560e01b815260040160405180910390fd5b5f81900361116057604051631121aa8d60e01b815260040160405180910390fd5b5f5b600b548110156111b7576111755f612088565b600a5f600b848154811061118b5761118b612e3e565b5f9182526020808320909101546001600160a01b03168352820192909252604001902055600101611162565b506111c3600b5f61293d565b5f5b81811015611312575f8383838181106111e0576111e0612e3e565b6111f69260206040909202019081019150612b09565b90505f84848481811061120b5761120b612e3e565b5f5460408051633af32abf60e01b81526001600160a01b03888116600483015260209290940295909501013594501691633af32abf9150602401602060405180830381865afa158015611260573d5f803e3d5ffd5b505050506040513d601f19601f820116820180604052508101906112849190612deb565b6112ac5760405163751dff9760e11b81526001600160a01b03831660048201526024016108bf565b6001600160a01b039091165f818152600a6020526040812092909255600b805460018181018355919093527f0175b7a638427703f0dbe7bb9bbf987a2551717b34e79f33b5b1008d1fa01db990920180546001600160a01b0319169091179055016111c5565b5060405133907f2d47a742b8d7df7c1fc5a9a631b206b364e6cb2722490759f63bb3ab14b132e0905f90a25050565b5f33610871818585611db9565b5f8054906101000a90046001600160a01b03166001600160a01b0316633a0dad8e6040518163ffffffff1660e01b8152600401602060405180830381865afa15801561139c573d5f803e3d5ffd5b505050506040513d601f19601f820116820180604052508101906113c09190612e23565b6001600160a01b0316336001600160a01b0316146113f157604051631af2ab4f60e31b815260040160405180910390fd5b6113f9611bbd565b6007545f5b81811015610d7c575f6007828154811061141a5761141a612e3e565b5f9182526020808320909101546001600160a01b03168083526005909152604082208054929055915061144d3082612094565b5f61145782610853565b9050611461610d96565b60405163a9059cbb60e01b81526001600160a01b03858116600483015260248201849052919091169063a9059cbb906044016020604051808303815f875af11580156114af573d5f803e3d5ffd5b505050506040513d601f19601f820116820180604052508101906114d39190612deb565b6114f0576040516312171d8360e31b815260040160405180910390fd5b60408051838152602081018690526001600160a01b038516917febad37b830b1857ef9af5983fc20dc0ded12dc472ba1e22e06fd3a9465b4506c910160405180910390a25050506001016113fe565b5f61085e826001611a08565b5f604051628a595160e01b815260040160405180910390fd5b5f604051630ad8521960e31b815260040160405180910390fd5b611586611bbd565b805f036115955761089e610d96565b335f908152600460205260409020548111156115c4576040516332194fd360e21b815260040160405180910390fd5b335f90815260046020526040812080548392906115e2908490612e52565b90915550506006545f6115f3610d96565b60405163a9059cbb60e01b8152336004820152602481018590526001600160a01b03919091169063a9059cbb906044016020604051808303815f875af115801561163f573d5f803e3d5ffd5b505050506040513d601f19601f820116820180604052508101906116639190612deb565b905080611683576040516312171d8360e31b815260040160405180910390fd5b604080518481526020810184905233917f2b19ac8271899522bfff26e405c20643af4cdf99b525ef2cd8cde689644874ae910160405180910390a25050610a3d60015f8051602061313783398151915255565b6007545f908190815b818110156117355760055f600783815481106116fd576116fd612e3e565b5f9182526020808320909101546001600160a01b0316835282019290925260400190205461172b9084612dd8565b92506001016116df565b509092915050565b5f61085e825f611af5565b5f61085e61175583610f1c565b5f611a08565b6006545f908190815b818110156117355760045f6006838154811061178257611782612e3e565b5f9182526020808320909101546001600160a01b031683528201929092526040019020546117b09084612dd8565b9250600101611764565b6009546060908190806001600160401b038111156117da576117da612b24565b604051908082528060200260200182016040528015611803578160200160208202803683370190505b509250806001600160401b0381111561181e5761181e612b24565b604051908082528060200260200182016040528015611847578160200160208202803683370190505b5091505f5b81811015611902575f6009828154811061186857611868612e3e565b905f5260205f20015f9054906101000a90046001600160a01b031690508085838151811061189857611898612e3e565b60200260200101906001600160a01b031690816001600160a01b03168152505060085f826001600160a01b03166001600160a01b031681526020019081526020015f20548483815181106118ee576118ee612e3e565b60209081029190910101525060010161184c565b50509091565b5f61085e82610f1c565b6001600160a01b039182165f9081527f52c63247e1f47db19d5ce0460030c497f067ca4cebf71ba98eeadabe20bace016020908152604080832093909416825291909152205490565b5f807f237e158222e3e6968b72b9db0d8043aacf074ad9f650f0d1606b4d82ee432c00610dba565b61198b61201e565b7f237e158222e3e6968b72b9db0d8043aacf074ad9f650f0d1606b4d82ee432c0080546001600160a01b0319166001600160a01b03831690811782556119cf6110ae565b6001600160a01b03167f38d16b8cac22d99fc7c124b9cd0de2d3fa1faef420bfe791d8c362d765e2270060405160405180910390a35050565b5f80611a327f52c63247e1f47db19d5ce0460030c497f067ca4cebf71ba98eeadabe20bace025490565b90505f805f9054906101000a90046001600160a01b03166001600160a01b031663b71ee4fc6040518163ffffffff1660e01b8152600401602060405180830381865afa158015611a84573d5f803e3d5ffd5b505050506040513d601f19601f82011682018060405250810190611aa89190612e65565b9050611ada6003546001611abc9190612dd8565b611ac783600a612f68565b611ad19085612dd8565b879190876120c8565b95945050505050565b611af0838383600161210a565b505050565b5f80611b1f7f52c63247e1f47db19d5ce0460030c497f067ca4cebf71ba98eeadabe20bace025490565b90505f805f9054906101000a90046001600160a01b03166001600160a01b031663b71ee4fc6040518163ffffffff1660e01b8152600401602060405180830381865afa158015611b71573d5f803e3d5ffd5b505050506040513d601f19601f82011682018060405250810190611b959190612e65565b9050611ada611ba582600a612f68565b611baf9084612dd8565b600354611ad1906001612dd8565b5f80516020613137833981519152805460011901611bee57604051633ee5aeb560e01b815260040160405180910390fd5b60029055565b60015f8051602061313783398151915255565b5f807ff0c57e16840df040f15088dc2f81fe391c3923bec73e23a9662efc9c229c6a0061085e565b611c376121ee565b6001600160a01b038416611c5e57604051639c6bb9f560e01b815260040160405180910390fd5b6001600160a01b038316611c8557604051636a485a5b60e11b815260040160405180910390fd5b611c8f8282612213565b611cf7836001600160a01b0316637158da7c6040518163ffffffff1660e01b8152600401602060405180830381865afa158015611cce573d5f803e3d5ffd5b505050506040513d601f19601f82011682018060405250810190611cf29190612e23565b612225565b611cff612236565b611d07612246565b611d0f612246565b611d1884612050565b5050600280546001600160a01b03199081163317909155600180546001600160a01b039485169083161790555f8054929093169116178155600355565b5f611d608484611912565b90505f19811015611db35781811015611da557604051637dc7a0d960e11b81526001600160a01b038416600482015260248101829052604481018390526064016108bf565b611db384848484035f61210a565b50505050565b6001600160a01b038316611de257604051634b637e8f60e11b81525f60048201526024016108bf565b6001600160a01b038216611e0b5760405163ec442f0560e01b81525f60048201526024016108bf565b611af083838361224e565b6001600160a01b038216611e3f5760405163ec442f0560e01b81525f60048201526024016108bf565b610de55f838361224e565b306001600160a01b037f0000000000000000000000000000000000000000000000000000000000000000161480611ed057507f00000000000000000000000000000000000000000000000000000000000000006001600160a01b0316611ec45f80516020613117833981519152546001600160a01b031690565b6001600160a01b031614155b15610d945760405163703e46dd60e11b815260040160405180910390fd5b6001546001600160a01b03163314610a3d576040516356b381a560e01b815260040160405180910390fd5b816001600160a01b03166352d1902d6040518163ffffffff1660e01b8152600401602060405180830381865afa925050508015611f73575060408051601f3d908101601f19168201909252611f7091810190612f76565b60015b611f9b57604051634c9c8ce360e01b81526001600160a01b03831660048201526024016108bf565b5f805160206131178339815191528114611fcb57604051632a87526960e21b8152600481018290526024016108bf565b611af08383612387565b306001600160a01b037f00000000000000000000000000000000000000000000000000000000000000001614610d945760405163703e46dd60e11b815260040160405180910390fd5b336120276110ae565b6001600160a01b031614610d945760405163118cdaa760e01b81523360048201526024016108bf565b7f237e158222e3e6968b72b9db0d8043aacf074ad9f650f0d1606b4d82ee432c0080546001600160a01b0319168155610de5826123dc565b5f61085e82600461244c565b6001600160a01b0382166120bd57604051634b637e8f60e11b81525f60048201526024016108bf565b610de5825f8361224e565b5f6120f56120d5836124fa565b80156120f057505f84806120eb576120eb612f8d565b868809115b151590565b612100868686612526565b611ada9190612dd8565b5f805160206130f78339815191526001600160a01b0385166121415760405163e602df0560e01b81525f60048201526024016108bf565b6001600160a01b03841661216a57604051634a1406b160e11b81525f60048201526024016108bf565b6001600160a01b038086165f908152600183016020908152604080832093881683529290522083905581156121e757836001600160a01b0316856001600160a01b03167f8c5be1e5ebec7d5bd14f71427d1e84f3dd0314c0f7b2291e5b200ac8c7c3b925856040516121de91815260200190565b60405180910390a35b5050505050565b6121f66125d6565b610d9457604051631afcd79f60e31b815260040160405180910390fd5b61221b6121ee565b610de582826125ef565b61222d6121ee565b610a3d8161263f565b61223e6121ee565b610d946126c2565b610d946121ee565b5f805160206130f78339815191526001600160a01b0384166122885781816002015f82825461227d9190612dd8565b909155506122f89050565b6001600160a01b0384165f90815260208290526040902054828110156122da5760405163391434e360e21b81526001600160a01b038616600482015260248101829052604481018490526064016108bf565b6001600160a01b0385165f9081526020839052604090209083900390555b6001600160a01b038316612316576002810180548390039055612334565b6001600160a01b0383165f9081526020829052604090208054830190555b826001600160a01b0316846001600160a01b03167fddf252ad1be2c89b69c2b068fc378daa952ba7f163c4a11628f55a4df523b3ef8460405161237991815260200190565b60405180910390a350505050565b612390826126ca565b6040516001600160a01b038316907fbc7cd75a20ee27fd9adebab32041f755214dbc6bffa90cc0225b39da2e5c2d3b905f90a28051156123d457611af0828261272d565b610de5612796565b7f9016d09d72d40fdae2fd8ceac6b6234c7706214fd39c1cd1e609a0528c19930080546001600160a01b031981166001600160a01b03848116918217845560405192169182907f8be0079c531659141344cd1fd0a4f28419497f9722a3daafe3b4186f6b6457e0905f90a3505050565b5f807fed8d60e34876f751cc8b014c560745351147d9de11b9347c854e881b128ea6006001810154604051631ce2e8d760e31b8152600481018790526001600160f81b031960f887901b1660248201529192506001600160a01b03169063e71746b8906044016020604051808303815f875af11580156124ce573d5f803e3d5ffd5b505050506040513d601f19601f820116820180604052508101906124f29190612f76565b949350505050565b5f600282600381111561250f5761250f612fa1565b6125199190612fb5565b60ff166001149050919050565b5f805f61253386866127b5565b91509150815f036125575783818161254d5761254d612f8d565b0492505050610bc4565b81841161256e5761256e60038515026011186127d1565b5f848688095f868103871696879004966002600389028118808a02820302808a02820302808a02820302808a02820302808a02820302808a02909103029181900381900460010185841190960395909502919093039390930492909217029150509392505050565b5f6125df611c07565b54600160401b900460ff16919050565b6125f76121ee565b5f805160206130f78339815191527f52c63247e1f47db19d5ce0460030c497f067ca4cebf71ba98eeadabe20bace036126308482613026565b5060048101611db38382613026565b6126476121ee565b7f0773e532dfede91f04b12a73d3d2acd361424f41f76b4fb79f090161e36b4e005f80612673846127e2565b9150915081612683576012612685565b805b83546001600160a81b031916600160a01b60ff92909216919091026001600160a01b031916176001600160a01b0394909416939093179091555050565b611bf46121ee565b806001600160a01b03163b5f036126ff57604051634c9c8ce360e01b81526001600160a01b03821660048201526024016108bf565b5f8051602061311783398151915280546001600160a01b0319166001600160a01b0392909216919091179055565b60605f80846001600160a01b03168460405161274991906130e0565b5f60405180830381855af49150503d805f8114612781576040519150601f19603f3d011682016040523d82523d5f602084013e612786565b606091505b5091509150611ada8583836128b8565b3415610d945760405163b398979f60e01b815260040160405180910390fd5b5f805f1983850993909202808410938190039390930393915050565b634e487b715f52806020526024601cfd5b60408051600481526024810182526020810180516001600160e01b031663313ce56760e01b17905290515f918291829182916001600160a01b03871691612828916130e0565b5f60405180830381855afa9150503d805f8114612860576040519150601f19603f3d011682016040523d82523d5f602084013e612865565b606091505b509150915081801561287957506020815110155b156128ac575f818060200190518101906128939190612f76565b905060ff81116128aa576001969095509350505050565b505b505f9485945092505050565b6060826128cd576128c882612914565b610bc4565b81511580156128e457506001600160a01b0384163b155b1561290d57604051639996b31560e01b81526001600160a01b03851660048201526024016108bf565b5080610bc4565b8051156129245780518082602001fd5b60405163d6bda27560e01b815260040160405180910390fd5b5080545f8255905f5260205f2090810190610a3d91905b80821115612967575f8155600101612954565b5090565b602081525f82518060208401528060208501604085015e5f604082850101526040601f19601f83011684010191505092915050565b5f602082840312156129b0575f80fd5b5035919050565b6001600160a01b0381168114610a3d575f80fd5b5f80604083850312156129dc575f80fd5b82356129e7816129b7565b946020939093013593505050565b5f8083601f840112612a05575f80fd5b5081356001600160401b03811115612a1b575f80fd5b602083019150836020828501011115612a32575f80fd5b9250929050565b5f805f805f8060808789031215612a4e575f80fd5b8635612a59816129b7565b95506020870135612a69816129b7565b945060408701356001600160401b03811115612a83575f80fd5b612a8f89828a016129f5565b90955093505060608701356001600160401b03811115612aad575f80fd5b612ab989828a016129f5565b979a9699509497509295939492505050565b5f805f60608486031215612add575f80fd5b8335612ae8816129b7565b92506020840135612af8816129b7565b929592945050506040919091013590565b5f60208284031215612b19575f80fd5b8135610bc4816129b7565b634e487b7160e01b5f52604160045260245ffd5b5f8060408385031215612b49575f80fd5b8235612b54816129b7565b915060208301356001600160401b03811115612b6e575f80fd5b8301601f81018513612b7e575f80fd5b80356001600160401b03811115612b9757612b97612b24565b604051601f8201601f19908116603f011681016001600160401b0381118282101715612bc557612bc5612b24565b604052818152828201602001871015612bdc575f80fd5b816020840160208301375f602083830101528093505050509250929050565b5f8060408385031215612c0c575f80fd5b823591506020830135612c1e816129b7565b809150509250929050565b5f8060208385031215612c3a575f80fd5b82356001600160401b03811115612c4f575f80fd5b8301601f81018513612c5f575f80fd5b80356001600160401b03811115612c74575f80fd5b8560208260061b8401011115612c88575f80fd5b6020919091019590945092505050565b5f805f60608486031215612caa575f80fd5b833592506020840135612cbc816129b7565b91506040840135612ccc816129b7565b809150509250925092565b604080825283519082018190525f9060208501906060840190835b81811015612d195783516001600160a01b0316835260209384019390920191600101612cf2565b5050838103602080860191909152855180835291810192508501905f5b81811015612d54578251845260209384019390920191600101612d36565b50919695505050505050565b5f8060408385031215612d71575f80fd5b8235612d7c816129b7565b91506020830135612c1e816129b7565b600181811c90821680612da057607f821691505b602082108103612dbe57634e487b7160e01b5f52602260045260245ffd5b50919050565b634e487b7160e01b5f52601160045260245ffd5b8082018082111561085e5761085e612dc4565b5f60208284031215612dfb575f80fd5b81518015158114610bc4575f80fd5b60ff818116838216019081111561085e5761085e612dc4565b5f60208284031215612e33575f80fd5b8151610bc4816129b7565b634e487b7160e01b5f52603260045260245ffd5b8181038181111561085e5761085e612dc4565b5f60208284031215612e75575f80fd5b815160ff81168114610bc4575f80fd5b6001815b6001841115612ec057808504811115612ea457612ea4612dc4565b6001841615612eb257908102905b60019390931c928002612e89565b935093915050565b5f82612ed65750600161085e565b81612ee257505f61085e565b8160018114612ef85760028114612f0257612f1e565b600191505061085e565b60ff841115612f1357612f13612dc4565b50506001821b61085e565b5060208310610133831016604e8410600b8410161715612f41575081810a61085e565b612f4d5f198484612e85565b805f1904821115612f6057612f60612dc4565b029392505050565b5f610bc460ff841683612ec8565b5f60208284031215612f86575f80fd5b5051919050565b634e487b7160e01b5f52601260045260245ffd5b634e487b7160e01b5f52602160045260245ffd5b5f60ff831680612fd357634e487b7160e01b5f52601260045260245ffd5b8060ff84160691505092915050565b601f821115611af057805f5260205f20601f840160051c810160208510156130075750805b601f840160051c820191505b818110156121e7575f8155600101613013565b81516001600160401b0381111561303f5761303f612b24565b6130538161304d8454612d8c565b84612fe2565b6020601f821160018114613085575f831561306e5750848201515b5f19600385901b1c1916600184901b1784556121e7565b5f84815260208120601f198516915b828110156130b45787850151825560209485019460019092019101613094565b50848210156130d157868401515f19600387901b60f8161c191681555b50505050600190811b01905550565b5f82518060208501845e5f92019182525091905056fe52c63247e1f47db19d5ce0460030c497f067ca4cebf71ba98eeadabe20bace00360894a13ba1a3210667c828492db98dca3e2076cc3735a920a3ca505d382bbc9b779b17422d0df92223018b32b4d1fa46e071723d6817e2486d003becc55f00a264697066735822122023fb8298a3393b76fdc22bd2aebb8fad0e6cc96f0165e3a99749d5e1b851809164736f6c634300081a0033",
  "linkReferences": {},
  "deployedLinkReferences": {}
}