{
  "_format": "hh-sol-artifact-1",
  "contractName": "OrionEncryptedVault",
  "sourceName": "contracts/OrionEncryptedVault.sol",
  "abi": [
    {
      "inputs": [
        {
          "internalType": "address",
          "name": "target",
          "type": "address"
        }
      ],
      "name": "AddressEmptyCode",
      "type": "error"
    },
    {
      "inputs": [
        {
          "internalType": "address",
          "name": "asset",
          "type": "address"
        }
      ],
      "name": "AmountMustBeGreaterThanZero",
      "type": "error"
    },
    {
      "inputs": [],
      "name": "DepositRequestFailed",
      "type": "error"
    },
    {
      "inputs": [
        {
          "internalType": "address",
          "name": "implementation",
          "type": "address"
        }
      ],
      "name": "ERC1967InvalidImplementation",
      "type": "error"
    },
    {
      "inputs": [],
      "name": "ERC1967NonPayable",
      "type": "error"
    },
    {
      "inputs": [
        {
          "internalType": "address",
          "name": "spender",
          "type": "address"
        },
        {
          "internalType": "uint256",
          "name": "allowance",
          "type": "uint256"
        },
        {
          "internalType": "uint256",
          "name": "needed",
          "type": "uint256"
        }
      ],
      "name": "ERC20InsufficientAllowance",
      "type": "error"
    },
    {
      "inputs": [
        {
          "internalType": "address",
          "name": "sender",
          "type": "address"
        },
        {
          "internalType": "uint256",
          "name": "balance",
          "type": "uint256"
        },
        {
          "internalType": "uint256",
          "name": "needed",
          "type": "uint256"
        }
      ],
      "name": "ERC20InsufficientBalance",
      "type": "error"
    },
    {
      "inputs": [
        {
          "internalType": "address",
          "name": "approver",
          "type": "address"
        }
      ],
      "name": "ERC20InvalidApprover",
      "type": "error"
    },
    {
      "inputs": [
        {
          "internalType": "address",
          "name": "receiver",
          "type": "address"
        }
      ],
      "name": "ERC20InvalidReceiver",
      "type": "error"
    },
    {
      "inputs": [
        {
          "internalType": "address",
          "name": "sender",
          "type": "address"
        }
      ],
      "name": "ERC20InvalidSender",
      "type": "error"
    },
    {
      "inputs": [
        {
          "internalType": "address",
          "name": "spender",
          "type": "address"
        }
      ],
      "name": "ERC20InvalidSpender",
      "type": "error"
    },
    {
      "inputs": [
        {
          "internalType": "address",
          "name": "receiver",
          "type": "address"
        },
        {
          "internalType": "uint256",
          "name": "assets",
          "type": "uint256"
        },
        {
          "internalType": "uint256",
          "name": "max",
          "type": "uint256"
        }
      ],
      "name": "ERC4626ExceededMaxDeposit",
      "type": "error"
    },
    {
      "inputs": [
        {
          "internalType": "address",
          "name": "receiver",
          "type": "address"
        },
        {
          "internalType": "uint256",
          "name": "shares",
          "type": "uint256"
        },
        {
          "internalType": "uint256",
          "name": "max",
          "type": "uint256"
        }
      ],
      "name": "ERC4626ExceededMaxMint",
      "type": "error"
    },
    {
      "inputs": [
        {
          "internalType": "address",
          "name": "owner",
          "type": "address"
        },
        {
          "internalType": "uint256",
          "name": "shares",
          "type": "uint256"
        },
        {
          "internalType": "uint256",
          "name": "max",
          "type": "uint256"
        }
      ],
      "name": "ERC4626ExceededMaxRedeem",
      "type": "error"
    },
    {
      "inputs": [
        {
          "internalType": "address",
          "name": "owner",
          "type": "address"
        },
        {
          "internalType": "uint256",
          "name": "assets",
          "type": "uint256"
        },
        {
          "internalType": "uint256",
          "name": "max",
          "type": "uint256"
        }
      ],
      "name": "ERC4626ExceededMaxWithdraw",
      "type": "error"
    },
    {
      "inputs": [],
      "name": "FailedCall",
      "type": "error"
    },
    {
      "inputs": [],
      "name": "InvalidConfigAddress",
      "type": "error"
    },
    {
      "inputs": [],
      "name": "InvalidCuratorAddress",
      "type": "error"
    },
    {
      "inputs": [],
      "name": "InvalidInitialization",
      "type": "error"
    },
    {
      "inputs": [],
      "name": "NotCurator",
      "type": "error"
    },
    {
      "inputs": [],
      "name": "NotEnoughDepositRequest",
      "type": "error"
    },
    {
      "inputs": [],
      "name": "NotEnoughShares",
      "type": "error"
    },
    {
      "inputs": [],
      "name": "NotInitializing",
      "type": "error"
    },
    {
      "inputs": [],
      "name": "NotInternalStatesOrchestrator",
      "type": "error"
    },
    {
      "inputs": [],
      "name": "NotLiquidityOrchestrator",
      "type": "error"
    },
    {
      "inputs": [],
      "name": "OrderIntentCannotBeEmpty",
      "type": "error"
    },
    {
      "inputs": [
        {
          "internalType": "address",
          "name": "owner",
          "type": "address"
        }
      ],
      "name": "OwnableInvalidOwner",
      "type": "error"
    },
    {
      "inputs": [
        {
          "internalType": "address",
          "name": "account",
          "type": "address"
        }
      ],
      "name": "OwnableUnauthorizedAccount",
      "type": "error"
    },
    {
      "inputs": [],
      "name": "ReentrancyGuardReentrantCall",
      "type": "error"
    },
    {
      "inputs": [],
      "name": "SharesMustBeGreaterThanZero",
      "type": "error"
    },
    {
      "inputs": [],
      "name": "SynchronousDepositsDisabled",
      "type": "error"
    },
    {
      "inputs": [],
      "name": "SynchronousRedemptionsDisabled",
      "type": "error"
    },
    {
      "inputs": [],
      "name": "SynchronousWithdrawalsDisabled",
      "type": "error"
    },
    {
      "inputs": [
        {
          "internalType": "address",
          "name": "token",
          "type": "address"
        }
      ],
      "name": "TokenAlreadyInOrder",
      "type": "error"
    },
    {
      "inputs": [
        {
          "internalType": "address",
          "name": "token",
          "type": "address"
        }
      ],
      "name": "TokenNotWhitelisted",
      "type": "error"
    },
    {
      "inputs": [],
      "name": "TransferFailed",
      "type": "error"
    },
    {
      "inputs": [],
      "name": "UUPSUnauthorizedCallContext",
      "type": "error"
    },
    {
      "inputs": [
        {
          "internalType": "bytes32",
          "name": "slot",
          "type": "bytes32"
        }
      ],
      "name": "UUPSUnsupportedProxiableUUID",
      "type": "error"
    },
    {
      "inputs": [],
      "name": "WithdrawRequestFailed",
      "type": "error"
    },
    {
      "inputs": [],
      "name": "ZeroPrice",
      "type": "error"
    },
    {
      "anonymous": false,
      "inputs": [
        {
          "indexed": true,
          "internalType": "address",
          "name": "owner",
          "type": "address"
        },
        {
          "indexed": true,
          "internalType": "address",
          "name": "spender",
          "type": "address"
        },
        {
          "indexed": false,
          "internalType": "uint256",
          "name": "value",
          "type": "uint256"
        }
      ],
      "name": "Approval",
      "type": "event"
    },
    {
      "anonymous": false,
      "inputs": [
        {
          "indexed": true,
          "internalType": "address",
          "name": "sender",
          "type": "address"
        },
        {
          "indexed": true,
          "internalType": "address",
          "name": "owner",
          "type": "address"
        },
        {
          "indexed": false,
          "internalType": "uint256",
          "name": "assets",
          "type": "uint256"
        },
        {
          "indexed": false,
          "internalType": "uint256",
          "name": "shares",
          "type": "uint256"
        }
      ],
      "name": "Deposit",
      "type": "event"
    },
    {
      "anonymous": false,
      "inputs": [
        {
          "indexed": true,
          "internalType": "address",
          "name": "user",
          "type": "address"
        },
        {
          "indexed": false,
          "internalType": "uint256",
          "name": "amount",
          "type": "uint256"
        },
        {
          "indexed": false,
          "internalType": "uint256",
          "name": "requestId",
          "type": "uint256"
        }
      ],
      "name": "DepositProcessed",
      "type": "event"
    },
    {
      "anonymous": false,
      "inputs": [
        {
          "indexed": true,
          "internalType": "address",
          "name": "user",
          "type": "address"
        },
        {
          "indexed": false,
          "internalType": "uint256",
          "name": "amount",
          "type": "uint256"
        },
        {
          "indexed": false,
          "internalType": "uint256",
          "name": "requestId",
          "type": "uint256"
        }
      ],
      "name": "DepositRequestWithdrawn",
      "type": "event"
    },
    {
      "anonymous": false,
      "inputs": [
        {
          "indexed": true,
          "internalType": "address",
          "name": "user",
          "type": "address"
        },
        {
          "indexed": false,
          "internalType": "uint256",
          "name": "amount",
          "type": "uint256"
        },
        {
          "indexed": false,
          "internalType": "uint256",
          "name": "requestId",
          "type": "uint256"
        }
      ],
      "name": "DepositRequested",
      "type": "event"
    },
    {
      "anonymous": false,
      "inputs": [
        {
          "indexed": false,
          "internalType": "uint64",
          "name": "version",
          "type": "uint64"
        }
      ],
      "name": "Initialized",
      "type": "event"
    },
    {
      "anonymous": false,
      "inputs": [
        {
          "indexed": true,
          "internalType": "address",
          "name": "curator",
          "type": "address"
        }
      ],
      "name": "OrderSubmitted",
      "type": "event"
    },
    {
      "anonymous": false,
      "inputs": [
        {
          "indexed": true,
          "internalType": "address",
          "name": "previousOwner",
          "type": "address"
        },
        {
          "indexed": true,
          "internalType": "address",
          "name": "newOwner",
          "type": "address"
        }
      ],
      "name": "OwnershipTransferStarted",
      "type": "event"
    },
    {
      "anonymous": false,
      "inputs": [
        {
          "indexed": true,
          "internalType": "address",
          "name": "previousOwner",
          "type": "address"
        },
        {
          "indexed": true,
          "internalType": "address",
          "name": "newOwner",
          "type": "address"
        }
      ],
      "name": "OwnershipTransferred",
      "type": "event"
    },
    {
      "anonymous": false,
      "inputs": [
        {
          "indexed": true,
          "internalType": "address",
          "name": "from",
          "type": "address"
        },
        {
          "indexed": true,
          "internalType": "address",
          "name": "to",
          "type": "address"
        },
        {
          "indexed": false,
          "internalType": "uint256",
          "name": "value",
          "type": "uint256"
        }
      ],
      "name": "Transfer",
      "type": "event"
    },
    {
      "anonymous": false,
      "inputs": [
        {
          "indexed": true,
          "internalType": "address",
          "name": "implementation",
          "type": "address"
        }
      ],
      "name": "Upgraded",
      "type": "event"
    },
    {
      "anonymous": false,
      "inputs": [
        {
          "indexed": false,
          "internalType": "uint256",
          "name": "newSharePrice",
          "type": "uint256"
        },
        {
          "indexed": false,
          "internalType": "uint256",
          "name": "newTotalAssets",
          "type": "uint256"
        },
        {
          "indexed": false,
          "internalType": "uint256",
          "name": "pnlAmount",
          "type": "uint256"
        }
      ],
      "name": "VaultStateUpdated",
      "type": "event"
    },
    {
      "anonymous": false,
      "inputs": [
        {
          "indexed": true,
          "internalType": "address",
          "name": "sender",
          "type": "address"
        },
        {
          "indexed": true,
          "internalType": "address",
          "name": "receiver",
          "type": "address"
        },
        {
          "indexed": true,
          "internalType": "address",
          "name": "owner",
          "type": "address"
        },
        {
          "indexed": false,
          "internalType": "uint256",
          "name": "assets",
          "type": "uint256"
        },
        {
          "indexed": false,
          "internalType": "uint256",
          "name": "shares",
          "type": "uint256"
        }
      ],
      "name": "Withdraw",
      "type": "event"
    },
    {
      "anonymous": false,
      "inputs": [
        {
          "indexed": true,
          "internalType": "address",
          "name": "user",
          "type": "address"
        },
        {
          "indexed": false,
          "internalType": "uint256",
          "name": "shares",
          "type": "uint256"
        },
        {
          "indexed": false,
          "internalType": "uint256",
          "name": "requestId",
          "type": "uint256"
        }
      ],
      "name": "WithdrawProcessed",
      "type": "event"
    },
    {
      "anonymous": false,
      "inputs": [
        {
          "indexed": true,
          "internalType": "address",
          "name": "user",
          "type": "address"
        },
        {
          "indexed": false,
          "internalType": "uint256",
          "name": "shares",
          "type": "uint256"
        },
        {
          "indexed": false,
          "internalType": "uint256",
          "name": "requestId",
          "type": "uint256"
        }
      ],
      "name": "WithdrawRequested",
      "type": "event"
    },
    {
      "inputs": [],
      "name": "UPGRADE_INTERFACE_VERSION",
      "outputs": [
        {
          "internalType": "string",
          "name": "",
          "type": "string"
        }
      ],
      "stateMutability": "view",
      "type": "function"
    },
    {
      "inputs": [],
      "name": "acceptOwnership",
      "outputs": [],
      "stateMutability": "nonpayable",
      "type": "function"
    },
    {
      "inputs": [
        {
          "internalType": "address",
          "name": "owner",
          "type": "address"
        },
        {
          "internalType": "address",
          "name": "spender",
          "type": "address"
        }
      ],
      "name": "allowance",
      "outputs": [
        {
          "internalType": "uint256",
          "name": "",
          "type": "uint256"
        }
      ],
      "stateMutability": "view",
      "type": "function"
    },
    {
      "inputs": [
        {
          "internalType": "address",
          "name": "spender",
          "type": "address"
        },
        {
          "internalType": "uint256",
          "name": "value",
          "type": "uint256"
        }
      ],
      "name": "approve",
      "outputs": [
        {
          "internalType": "bool",
          "name": "",
          "type": "bool"
        }
      ],
      "stateMutability": "nonpayable",
      "type": "function"
    },
    {
      "inputs": [],
      "name": "asset",
      "outputs": [
        {
          "internalType": "address",
          "name": "",
          "type": "address"
        }
      ],
      "stateMutability": "view",
      "type": "function"
    },
    {
      "inputs": [
        {
          "internalType": "address",
          "name": "account",
          "type": "address"
        }
      ],
      "name": "balanceOf",
      "outputs": [
        {
          "internalType": "uint256",
          "name": "",
          "type": "uint256"
        }
      ],
      "stateMutability": "view",
      "type": "function"
    },
    {
      "inputs": [],
      "name": "config",
      "outputs": [
        {
          "internalType": "contract IOrionConfig",
          "name": "",
          "type": "address"
        }
      ],
      "stateMutability": "view",
      "type": "function"
    },
    {
      "inputs": [
        {
          "internalType": "uint256",
          "name": "shares",
          "type": "uint256"
        }
      ],
      "name": "convertToAssets",
      "outputs": [
        {
          "internalType": "uint256",
          "name": "",
          "type": "uint256"
        }
      ],
      "stateMutability": "view",
      "type": "function"
    },
    {
      "inputs": [
        {
          "internalType": "uint256",
          "name": "assets",
          "type": "uint256"
        }
      ],
      "name": "convertToShares",
      "outputs": [
        {
          "internalType": "uint256",
          "name": "",
          "type": "uint256"
        }
      ],
      "stateMutability": "view",
      "type": "function"
    },
    {
      "inputs": [],
      "name": "curator",
      "outputs": [
        {
          "internalType": "address",
          "name": "",
          "type": "address"
        }
      ],
      "stateMutability": "view",
      "type": "function"
    },
    {
      "inputs": [],
      "name": "decimals",
      "outputs": [
        {
          "internalType": "uint8",
          "name": "",
          "type": "uint8"
        }
      ],
      "stateMutability": "view",
      "type": "function"
    },
    {
      "inputs": [],
      "name": "deployer",
      "outputs": [
        {
          "internalType": "address",
          "name": "",
          "type": "address"
        }
      ],
      "stateMutability": "view",
      "type": "function"
    },
    {
      "inputs": [
        {
          "internalType": "uint256",
          "name": "",
          "type": "uint256"
        },
        {
          "internalType": "address",
          "name": "",
          "type": "address"
        }
      ],
      "name": "deposit",
      "outputs": [
        {
          "internalType": "uint256",
          "name": "",
          "type": "uint256"
        }
      ],
      "stateMutability": "pure",
      "type": "function"
    },
    {
      "inputs": [],
      "name": "getPendingDeposits",
      "outputs": [
        {
          "internalType": "uint256",
          "name": "",
          "type": "uint256"
        }
      ],
      "stateMutability": "view",
      "type": "function"
    },
    {
      "inputs": [],
      "name": "getPendingWithdrawals",
      "outputs": [
        {
          "internalType": "uint256",
          "name": "",
          "type": "uint256"
        }
      ],
      "stateMutability": "view",
      "type": "function"
    },
    {
      "inputs": [
        {
          "internalType": "address",
          "name": "_curator",
          "type": "address"
        },
        {
          "internalType": "contract IOrionConfig",
          "name": "_config",
          "type": "address"
        },
        {
          "internalType": "string",
          "name": "_name",
          "type": "string"
        },
        {
          "internalType": "string",
          "name": "_symbol",
          "type": "string"
        }
      ],
      "name": "initialize",
      "outputs": [],
      "stateMutability": "nonpayable",
      "type": "function"
    },
    {
      "inputs": [
        {
          "internalType": "address",
          "name": "",
          "type": "address"
        }
      ],
      "name": "maxDeposit",
      "outputs": [
        {
          "internalType": "uint256",
          "name": "",
          "type": "uint256"
        }
      ],
      "stateMutability": "view",
      "type": "function"
    },
    {
      "inputs": [
        {
          "internalType": "address",
          "name": "",
          "type": "address"
        }
      ],
      "name": "maxMint",
      "outputs": [
        {
          "internalType": "uint256",
          "name": "",
          "type": "uint256"
        }
      ],
      "stateMutability": "view",
      "type": "function"
    },
    {
      "inputs": [
        {
          "internalType": "address",
          "name": "owner",
          "type": "address"
        }
      ],
      "name": "maxRedeem",
      "outputs": [
        {
          "internalType": "uint256",
          "name": "",
          "type": "uint256"
        }
      ],
      "stateMutability": "view",
      "type": "function"
    },
    {
      "inputs": [
        {
          "internalType": "address",
          "name": "owner",
          "type": "address"
        }
      ],
      "name": "maxWithdraw",
      "outputs": [
        {
          "internalType": "uint256",
          "name": "",
          "type": "uint256"
        }
      ],
      "stateMutability": "view",
      "type": "function"
    },
    {
      "inputs": [
        {
          "internalType": "uint256",
          "name": "",
          "type": "uint256"
        },
        {
          "internalType": "address",
          "name": "",
          "type": "address"
        }
      ],
      "name": "mint",
      "outputs": [
        {
          "internalType": "uint256",
          "name": "",
          "type": "uint256"
        }
      ],
      "stateMutability": "pure",
      "type": "function"
    },
    {
      "inputs": [],
      "name": "name",
      "outputs": [
        {
          "internalType": "string",
          "name": "",
          "type": "string"
        }
      ],
      "stateMutability": "view",
      "type": "function"
    },
    {
      "inputs": [],
      "name": "owner",
      "outputs": [
        {
          "internalType": "address",
          "name": "",
          "type": "address"
        }
      ],
      "stateMutability": "view",
      "type": "function"
    },
    {
      "inputs": [],
      "name": "pendingOwner",
      "outputs": [
        {
          "internalType": "address",
          "name": "",
          "type": "address"
        }
      ],
      "stateMutability": "view",
      "type": "function"
    },
    {
      "inputs": [
        {
          "internalType": "uint256",
          "name": "assets",
          "type": "uint256"
        }
      ],
      "name": "previewDeposit",
      "outputs": [
        {
          "internalType": "uint256",
          "name": "",
          "type": "uint256"
        }
      ],
      "stateMutability": "view",
      "type": "function"
    },
    {
      "inputs": [
        {
          "internalType": "uint256",
          "name": "shares",
          "type": "uint256"
        }
      ],
      "name": "previewMint",
      "outputs": [
        {
          "internalType": "uint256",
          "name": "",
          "type": "uint256"
        }
      ],
      "stateMutability": "view",
      "type": "function"
    },
    {
      "inputs": [
        {
          "internalType": "uint256",
          "name": "shares",
          "type": "uint256"
        }
      ],
      "name": "previewRedeem",
      "outputs": [
        {
          "internalType": "uint256",
          "name": "",
          "type": "uint256"
        }
      ],
      "stateMutability": "view",
      "type": "function"
    },
    {
      "inputs": [
        {
          "internalType": "uint256",
          "name": "assets",
          "type": "uint256"
        }
      ],
      "name": "previewWithdraw",
      "outputs": [
        {
          "internalType": "uint256",
          "name": "",
          "type": "uint256"
        }
      ],
      "stateMutability": "view",
      "type": "function"
    },
    {
      "inputs": [],
      "name": "processDepositRequests",
      "outputs": [],
      "stateMutability": "nonpayable",
      "type": "function"
    },
    {
      "inputs": [],
      "name": "processWithdrawRequests",
      "outputs": [],
      "stateMutability": "nonpayable",
      "type": "function"
    },
    {
      "inputs": [],
      "name": "proxiableUUID",
      "outputs": [
        {
          "internalType": "bytes32",
          "name": "",
          "type": "bytes32"
        }
      ],
      "stateMutability": "view",
      "type": "function"
    },
    {
      "inputs": [
        {
          "internalType": "uint256",
          "name": "",
          "type": "uint256"
        },
        {
          "internalType": "address",
          "name": "",
          "type": "address"
        },
        {
          "internalType": "address",
          "name": "",
          "type": "address"
        }
      ],
      "name": "redeem",
      "outputs": [
        {
          "internalType": "uint256",
          "name": "",
          "type": "uint256"
        }
      ],
      "stateMutability": "pure",
      "type": "function"
    },
    {
      "inputs": [],
      "name": "renounceOwnership",
      "outputs": [],
      "stateMutability": "nonpayable",
      "type": "function"
    },
    {
      "inputs": [
        {
          "internalType": "uint256",
          "name": "amount",
          "type": "uint256"
        }
      ],
      "name": "requestDeposit",
      "outputs": [],
      "stateMutability": "nonpayable",
      "type": "function"
    },
    {
      "inputs": [
        {
          "internalType": "uint256",
          "name": "shares",
          "type": "uint256"
        }
      ],
      "name": "requestWithdraw",
      "outputs": [],
      "stateMutability": "nonpayable",
      "type": "function"
    },
    {
      "inputs": [
        {
          "internalType": "uint256",
          "name": "newPrice",
          "type": "uint256"
        }
      ],
      "name": "setSharePrice",
      "outputs": [],
      "stateMutability": "nonpayable",
      "type": "function"
    },
    {
      "inputs": [
        {
          "internalType": "uint256",
          "name": "newTotalAssets",
          "type": "uint256"
        }
      ],
      "name": "setTotalAssets",
      "outputs": [],
      "stateMutability": "nonpayable",
      "type": "function"
    },
    {
      "inputs": [],
      "name": "sharePrice",
      "outputs": [
        {
          "internalType": "uint256",
          "name": "",
          "type": "uint256"
        }
      ],
      "stateMutability": "view",
      "type": "function"
    },
    {
      "inputs": [
        {
          "components": [
            {
              "internalType": "address",
              "name": "token",
              "type": "address"
            },
            {
              "internalType": "euint32",
              "name": "amount",
              "type": "uint256"
            }
          ],
          "internalType": "struct IOrionEncryptedVault.Order[]",
          "name": "order",
          "type": "tuple[]"
        }
      ],
      "name": "submitOrderIntent",
      "outputs": [],
      "stateMutability": "nonpayable",
      "type": "function"
    },
    {
      "inputs": [],
      "name": "symbol",
      "outputs": [
        {
          "internalType": "string",
          "name": "",
          "type": "string"
        }
      ],
      "stateMutability": "view",
      "type": "function"
    },
    {
      "inputs": [],
      "name": "totalAssets",
      "outputs": [
        {
          "internalType": "uint256",
          "name": "",
          "type": "uint256"
        }
      ],
      "stateMutability": "view",
      "type": "function"
    },
    {
      "inputs": [],
      "name": "totalSupply",
      "outputs": [
        {
          "internalType": "uint256",
          "name": "",
          "type": "uint256"
        }
      ],
      "stateMutability": "view",
      "type": "function"
    },
    {
      "inputs": [
        {
          "internalType": "address",
          "name": "to",
          "type": "address"
        },
        {
          "internalType": "uint256",
          "name": "value",
          "type": "uint256"
        }
      ],
      "name": "transfer",
      "outputs": [
        {
          "internalType": "bool",
          "name": "",
          "type": "bool"
        }
      ],
      "stateMutability": "nonpayable",
      "type": "function"
    },
    {
      "inputs": [
        {
          "internalType": "address",
          "name": "from",
          "type": "address"
        },
        {
          "internalType": "address",
          "name": "to",
          "type": "address"
        },
        {
          "internalType": "uint256",
          "name": "value",
          "type": "uint256"
        }
      ],
      "name": "transferFrom",
      "outputs": [
        {
          "internalType": "bool",
          "name": "",
          "type": "bool"
        }
      ],
      "stateMutability": "nonpayable",
      "type": "function"
    },
    {
      "inputs": [
        {
          "internalType": "address",
          "name": "newOwner",
          "type": "address"
        }
      ],
      "name": "transferOwnership",
      "outputs": [],
      "stateMutability": "nonpayable",
      "type": "function"
    },
    {
      "inputs": [
        {
          "internalType": "uint256",
          "name": "newSharePrice",
          "type": "uint256"
        },
        {
          "internalType": "uint256",
          "name": "newTotalAssets",
          "type": "uint256"
        },
        {
          "internalType": "uint256",
          "name": "pnlAmount",
          "type": "uint256"
        }
      ],
      "name": "updateVaultState",
      "outputs": [],
      "stateMutability": "nonpayable",
      "type": "function"
    },
    {
      "inputs": [
        {
          "internalType": "address",
          "name": "newImplementation",
          "type": "address"
        },
        {
          "internalType": "bytes",
          "name": "data",
          "type": "bytes"
        }
      ],
      "name": "upgradeToAndCall",
      "outputs": [],
      "stateMutability": "payable",
      "type": "function"
    },
    {
      "inputs": [
        {
          "internalType": "uint256",
          "name": "",
          "type": "uint256"
        },
        {
          "internalType": "address",
          "name": "",
          "type": "address"
        },
        {
          "internalType": "address",
          "name": "",
          "type": "address"
        }
      ],
      "name": "withdraw",
      "outputs": [
        {
          "internalType": "uint256",
          "name": "",
          "type": "uint256"
        }
      ],
      "stateMutability": "pure",
      "type": "function"
    },
    {
      "inputs": [
        {
          "internalType": "uint256",
          "name": "amount",
          "type": "uint256"
        }
      ],
      "name": "withdrawDepositRequest",
      "outputs": [],
      "stateMutability": "nonpayable",
      "type": "function"
    }
  ],
  "bytecode": "0x60a0604052306080523480156012575f80fd5b506080516132736100395f395f8181611daf01528181611dd80152611f3a01526132735ff3fe6080604052600436106102a5575f3560e01c806379ba50971161016f578063c37fc8a8116100d8578063d5f3948811610092578063e30c39781161006d578063e30c3978146107b6578063e66f53b7146107ca578063ef8b30f7146107e9578063f2fde38b14610808575f80fd5b8063d5f3948814610759578063d905777e14610778578063dd62ed3e14610797575f80fd5b8063c37fc8a8146106d4578063c38fe2f2146106e8578063c63d75b614610490578063c6e6f59214610707578063ce96cb7714610726578063d1699c2614610745575f80fd5b8063a9059cbb11610129578063a9059cbb14610614578063aa9d3a6014610633578063ad3cb1cc14610647578063b3d7f6b914610677578063b460af9414610696578063ba087652146106b5575f80fd5b806379ba5097146105a457806387269729146105b85780638da5cb5b146105cd57806394bf804d1461051557806395d89b41146105e15780639c055a66146105f5575f80fd5b806333fdc5921161021157806352d1902d116101cb57806352d1902d146105015780636e553f651461051557806370a0823114610534578063715018a614610553578063745400c91461056757806379502c5514610586575f80fd5b806333fdc5921461045057806338d52e0f14610464578063402d267d146104905780634368eb1c146104b05780634cdad506146104cf5780634f1ef286146104ee575f80fd5b806316b602491161026257806316b602491461037b5780631765b3131461039a57806318160ddd146103b95780632016a0d2146103ec57806323b872dd1461040b578063313ce5671461042a575f80fd5b806301e1d114146102a957806306fdde03146102cc57806307a2d13a146102ed578063095ea7b31461030c5780630a28a4771461033b5780630d1e66671461035a575b5f80fd5b3480156102b4575f80fd5b506004545b6040519081526020015b60405180910390f35b3480156102d7575f80fd5b506102e0610827565b6040516102c39190612ade565b3480156102f8575f80fd5b506102b9610307366004612b13565b6108e7565b348015610317575f80fd5b5061032b610326366004612b3e565b610911565b60405190151581526020016102c3565b348015610346575f80fd5b506102b9610355366004612b13565b610928565b348015610365575f80fd5b50610379610374366004612b13565b610934565b005b348015610386575f80fd5b50610379610395366004612b13565b610abb565b3480156103a5575f80fd5b506103796103b4366004612b13565b610b83565b3480156103c4575f80fd5b507f52c63247e1f47db19d5ce0460030c497f067ca4cebf71ba98eeadabe20bace02546102b9565b3480156103f7575f80fd5b50610379610406366004612c11565b610c2b565b348015610416575f80fd5b5061032b610425366004612c9a565b610d2a565b348015610435575f80fd5b5061043e610d4f565b60405160ff90911681526020016102c3565b34801561045b575f80fd5b50610379610d91565b34801561046f575f80fd5b50610478610f22565b6040516001600160a01b0390911681526020016102c3565b34801561049b575f80fd5b506102b96104aa366004612cd8565b505f1990565b3480156104bb575f80fd5b506103796104ca366004612b13565b610f56565b3480156104da575f80fd5b506102b96104e9366004612b13565b6110af565b6103796104fc366004612cf3565b6110ba565b34801561050c575f80fd5b506102b96110d9565b348015610520575f80fd5b506102b961052f366004612d53565b6110f4565b34801561053f575f80fd5b506102b961054e366004612cd8565b61110e565b34801561055e575f80fd5b50610379611134565b348015610572575f80fd5b50610379610581366004612b13565b611145565b348015610591575f80fd5b505f54610478906001600160a01b031681565b3480156105af575f80fd5b50610379611247565b3480156105c3575f80fd5b506102b960035481565b3480156105d8575f80fd5b5061047861128f565b3480156105ec575f80fd5b506102e06112b7565b348015610600575f80fd5b5061037961060f366004612d81565b6112f5565b34801561061f575f80fd5b5061032b61062e366004612b3e565b6114a6565b34801561063e575f80fd5b506103796114b3565b348015610652575f80fd5b506102e0604051806040016040528060058152602001640352e302e360dc1b81525081565b348015610682575f80fd5b506102b9610691366004612b13565b6116b0565b3480156106a1575f80fd5b506102b96106b0366004612df2565b6116bc565b3480156106c0575f80fd5b506102b96106cf366004612df2565b6116d5565b3480156106df575f80fd5b506102b96116ef565b3480156106f3575f80fd5b50610379610702366004612e31565b61172f565b348015610712575f80fd5b506102b9610721366004612b13565b611842565b348015610731575f80fd5b506102b9610740366004612cd8565b61185b565b348015610750575f80fd5b506102b961186e565b348015610764575f80fd5b50600254610478906001600160a01b031681565b348015610783575f80fd5b506102b9610792366004612cd8565b6118a8565b3480156107a2575f80fd5b506102b96107b1366004612e5a565b6118b2565b3480156107c1575f80fd5b506104786118fb565b3480156107d5575f80fd5b50600154610478906001600160a01b031681565b3480156107f4575f80fd5b506102b9610803366004612b13565b611923565b348015610813575f80fd5b50610379610822366004612cd8565b61192e565b7f52c63247e1f47db19d5ce0460030c497f067ca4cebf71ba98eeadabe20bace0380546060915f805160206131fe8339815191529161086590612e86565b80601f016020809104026020016040519081016040528092919081815260200182805461089190612e86565b80156108dc5780601f106108b3576101008083540402835291602001916108dc565b820191905f5260205f20905b8154815290600101906020018083116108bf57829003601f168201915b505050505091505090565b5f6108f0610d4f565b60ff16600354836109019190612ecc565b61090b9190612ef7565b92915050565b5f3361091e8185856119b3565b5060019392505050565b5f61090b8260016119c5565b805f0361096d57610943610f22565b604051636b30633560e01b81526001600160a01b0390911660048201526024015b60405180910390fd5b5f8061097a600533611a17565b915091505f82156109a35761099c336109938685612f0a565b60059190611a3d565b90506109b2565b6109af60053386611a3d565b90505b806109d057604051637732292d60e01b815260040160405180910390fd5b5f6109d9610f22565b6040516323b872dd60e01b8152336004820152306024820152604481018790526001600160a01b0391909116906323b872dd906064016020604051808303815f875af1158015610a2b573d5f803e3d5ffd5b505050506040513d601f19601f82011682018060405250810190610a4f9190612f1d565b905080610a6f576040516312171d8360e31b815260040160405180910390fd5b337f03979a8c481a9e9c06938045cfd5c28535255cb003b10a8fe84ebb3cb4d440f286610a9c6005611a5a565b6040805192835260208301919091520160405180910390a25050505050565b5f8054906101000a90046001600160a01b03166001600160a01b031663348ec5c86040518163ffffffff1660e01b8152600401602060405180830381865afa158015610b09573d5f803e3d5ffd5b505050506040513d601f19601f82011682018060405250810190610b2d9190612f3c565b6001600160a01b0316336001600160a01b031614610b5e5760405163efb380d960e01b815260040160405180910390fd5b805f03610b7e57604051634dfba02360e01b815260040160405180910390fd5b600355565b5f8054906101000a90046001600160a01b03166001600160a01b031663348ec5c86040518163ffffffff1660e01b8152600401602060405180830381865afa158015610bd1573d5f803e3d5ffd5b505050506040513d601f19601f82011682018060405250810190610bf59190612f3c565b6001600160a01b0316336001600160a01b031614610c265760405163efb380d960e01b815260040160405180910390fd5b600455565b5f610c34611a64565b805490915060ff600160401b820416159067ffffffffffffffff165f81158015610c5b5750825b90505f8267ffffffffffffffff166001148015610c775750303b155b905081158015610c85575080155b15610ca35760405163f92ee8a960e01b815260040160405180910390fd5b845467ffffffffffffffff191660011785558315610ccd57845460ff60401b1916600160401b1785555b610cd989898989611a8c565b8315610d1f57845460ff60401b19168555604051600181527fc7f505b2f371ae2175ee4913f4499e1f2633a7b5936321eed1cdaeb6115181d29060200160405180910390a15b505050505050505050565b5f33610d37858285611bce565b610d42858585611c32565b60019150505b9392505050565b5f807f0773e532dfede91f04b12a73d3d2acd361424f41f76b4fb79f090161e36b4e0090505f8154610d8b9190600160a01b900460ff16612f57565b91505090565b5f8054906101000a90046001600160a01b03166001600160a01b0316633a0dad8e6040518163ffffffff1660e01b8152600401602060405180830381865afa158015610ddf573d5f803e3d5ffd5b505050506040513d601f19601f82011682018060405250810190610e039190612f3c565b6001600160a01b0316336001600160a01b031614610e3457604051631af2ab4f60e31b815260040160405180910390fd5b610e3c611c8f565b5f5b610e486005611a5a565b811015610ef6575f80610e5c600584611cd9565b915091505f610e6a82611923565b90505f610e78600585611ce7565b905080610e9857604051637732292d60e01b815260040160405180910390fd5b610ea28483611cfb565b60408051848152602081018790526001600160a01b038616917f782ea2005b7f873a0190a1ccb553c732171348d6e16d2b7d3d493c0677dc296e910160405180910390a2505060019092019150610e3e9050565b50610f2060017f9b779b17422d0df92223018b32b4d1fa46e071723d6817e2486d003becc55f0055565b565b5f807f0773e532dfede91f04b12a73d3d2acd361424f41f76b4fb79f090161e36b4e005b546001600160a01b031692915050565b805f03610f6557610943610f22565b5f80610f72600533611a17565b91509150811580610f8257508281105b15610fa0576040516332194fd360e21b815260040160405180910390fd5b5f838203610fba57610fb3600533611ce7565b9050610fcb565b610fc8336109938685612f70565b90505b80610fe957604051637732292d60e01b815260040160405180910390fd5b5f610ff2610f22565b60405163a9059cbb60e01b8152336004820152602481018790526001600160a01b03919091169063a9059cbb906044016020604051808303815f875af115801561103e573d5f803e3d5ffd5b505050506040513d601f19601f820116820180604052508101906110629190612f1d565b905080611082576040516312171d8360e31b815260040160405180910390fd5b337f3c121205405bd3a6cc45661cccddd03e333ae4ef37be94cfa3880f6d616a20c886610a9c6005611a5a565b5f61090b825f611d55565b6110c2611da4565b6110cb82611e48565b6110d58282611e73565b5050565b5f6110e2611f2f565b505f8051602061321e83398151915290565b5f6040516318f2e47360e11b815260040160405180910390fd5b6001600160a01b03165f9081525f805160206131fe833981519152602052604090205490565b61113c611f78565b610f205f611faa565b805f03611165576040516314e6cbb960e11b815260040160405180910390fd5b8061116f3361110e565b101561118e57604051633c57b48560e21b815260040160405180910390fd5b5f8061119b600833611a17565b915091505f82156111c4576111bd336111b48685612f0a565b60089190611a3d565b90506111d3565b6111d060083386611a3d565b90505b806111f157604051630d6600c560e01b815260040160405180910390fd5b6111fc333086611c32565b337fd72eb5d043f24a0168ae744d5c44f9596fd673a26bf74d9646bff4b844882d14856112296008611a5a565b6040805192835260208301919091520160405180910390a250505050565b33806112516118fb565b6001600160a01b0316146112835760405163118cdaa760e01b81526001600160a01b0382166004820152602401610964565b61128c81611faa565b50565b5f807f9016d09d72d40fdae2fd8ceac6b6234c7706214fd39c1cd1e609a0528c199300610f46565b7f52c63247e1f47db19d5ce0460030c497f067ca4cebf71ba98eeadabe20bace0480546060915f805160206131fe8339815191529161086590612e86565b6001546001600160a01b03163314611320576040516356b381a560e01b815260040160405180910390fd5b5f81900361134157604051631121aa8d60e01b815260040160405180910390fd5b61134b600b611fe2565b5f5b81811015611477575f83838381811061136857611368612f83565b61137e9260206040909202019081019150612cd8565b90505f84848481811061139357611393612f83565b5f5460408051633af32abf60e01b81526001600160a01b03888116600483015260209290940295909501013594501691633af32abf9150602401602060405180830381865afa1580156113e8573d5f803e3d5ffd5b505050506040513d601f19601f8201168201806040525081019061140c9190612f1d565b6114345760405163751dff9760e11b81526001600160a01b0383166004820152602401610964565b5f611441600b8484611a3d565b90508061146c576040516346bdabe160e01b81526001600160a01b0384166004820152602401610964565b50505060010161134d565b5060405133907f2d47a742b8d7df7c1fc5a9a631b206b364e6cb2722490759f63bb3ab14b132e0905f90a25050565b5f3361091e818585611c32565b5f8054906101000a90046001600160a01b03166001600160a01b0316633a0dad8e6040518163ffffffff1660e01b8152600401602060405180830381865afa158015611501573d5f803e3d5ffd5b505050506040513d601f19601f820116820180604052508101906115259190612f3c565b6001600160a01b0316336001600160a01b03161461155657604051631af2ab4f60e31b815260040160405180910390fd5b61155e611c8f565b5f5b61156a6008611a5a565b811015610ef6575f8061157e600884611cd9565b90925090505f61158f600884611ce7565b9050806115af57604051630d6600c560e01b815260040160405180910390fd5b6115b93083611feb565b5f6115c3836110af565b90506115cd610f22565b60405163a9059cbb60e01b81526001600160a01b03868116600483015260248201849052919091169063a9059cbb906044016020604051808303815f875af115801561161b573d5f803e3d5ffd5b505050506040513d601f19601f8201168201806040525081019061163f9190612f1d565b61165c576040516312171d8360e31b815260040160405180910390fd5b60408051848152602081018790526001600160a01b038616917febad37b830b1857ef9af5983fc20dc0ded12dc472ba1e22e06fd3a9465b4506c910160405180910390a25050600190920191506115609050565b5f61090b826001611d55565b5f604051628a595160e01b815260040160405180910390fd5b5f604051630ad8521960e31b815260040160405180910390fd5b5f80805b6116fd6008611a5a565b811015611729575f611710600883611cd9565b915061171e90508184612f0a565b9250506001016116f3565b50919050565b5f8054906101000a90046001600160a01b03166001600160a01b031663348ec5c86040518163ffffffff1660e01b8152600401602060405180830381865afa15801561177d573d5f803e3d5ffd5b505050506040513d601f19601f820116820180604052508101906117a19190612f3c565b6001600160a01b0316336001600160a01b0316146117d25760405163efb380d960e01b815260040160405180910390fd5b825f036117f257604051634dfba02360e01b815260040160405180910390fd5b6003839055600482905560408051848152602081018490529081018290527f22d59af29033337bec0a35c65d874599f3ea66c941052de217150498e780eb199060600160405180910390a1505050565b5f60035461184e610d4f565b6109019060ff1684612ecc565b5f61090b6118688361110e565b5f611d55565b5f80805b61187c6005611a5a565b811015611729575f61188f600583611cd9565b915061189d90508184612f0a565b925050600101611872565b5f61090b8261110e565b6001600160a01b039182165f9081527f52c63247e1f47db19d5ce0460030c497f067ca4cebf71ba98eeadabe20bace016020908152604080832093909416825291909152205490565b5f807f237e158222e3e6968b72b9db0d8043aacf074ad9f650f0d1606b4d82ee432c00610f46565b5f61090b825f6119c5565b611936611f78565b7f237e158222e3e6968b72b9db0d8043aacf074ad9f650f0d1606b4d82ee432c0080546001600160a01b0319166001600160a01b038316908117825561197a61128f565b6001600160a01b03167f38d16b8cac22d99fc7c124b9cd0de2d3fa1faef420bfe791d8c362d765e2270060405160405180910390a35050565b6119c0838383600161201f565b505050565b5f610d486119d482600a61307a565b7f52c63247e1f47db19d5ce0460030c497f067ca4cebf71ba98eeadabe20bace0254611a009190612f0a565b600454611a0e906001612f0a565b85919085612103565b5f808080611a2e866001600160a01b03871661214e565b909450925050505b9250929050565b5f611a52846001600160a01b03851684612186565b949350505050565b5f61090b826121a2565b5f807ff0c57e16840df040f15088dc2f81fe391c3923bec73e23a9662efc9c229c6a0061090b565b611a946121ac565b6001600160a01b038416611abb57604051639c6bb9f560e01b815260040160405180910390fd5b6001600160a01b038316611ae257604051636a485a5b60e11b815260040160405180910390fd5b611aec82826121d1565b611b54836001600160a01b0316637158da7c6040518163ffffffff1660e01b8152600401602060405180830381865afa158015611b2b573d5f803e3d5ffd5b505050506040513d601f19601f82011682018060405250810190611b4f9190612f3c565b6121e3565b611b5c6121f4565b611b64612204565b611b6c612204565b611b7584611faa565b60028054336001600160a01b0319918216179091556001805482166001600160a01b03878116919091179091555f8054909216908516179055611bb6610d4f565b611bc190600a61307a565b60035550505f6004555050565b5f611bd984846118b2565b90505f19811015611c2c5781811015611c1e57604051637dc7a0d960e11b81526001600160a01b03841660048201526024810182905260448101839052606401610964565b611c2c84848484035f61201f565b50505050565b6001600160a01b038316611c5b57604051634b637e8f60e11b81525f6004820152602401610964565b6001600160a01b038216611c845760405163ec442f0560e01b81525f6004820152602401610964565b6119c083838361220c565b7f9b779b17422d0df92223018b32b4d1fa46e071723d6817e2486d003becc55f00805460011901611cd357604051633ee5aeb560e01b815260040160405180910390fd5b60029055565b5f808080611a2e8686612345565b5f610d48836001600160a01b03841661236e565b6001600160a01b038216611d245760405163ec442f0560e01b81525f6004820152602401610964565b6110d55f838361220c565b60017f9b779b17422d0df92223018b32b4d1fa46e071723d6817e2486d003becc55f0055565b5f610d48611d6260045490565b611d6d906001612f0a565b611d785f600a61307a565b7f52c63247e1f47db19d5ce0460030c497f067ca4cebf71ba98eeadabe20bace0254611a0e9190612f0a565b306001600160a01b037f0000000000000000000000000000000000000000000000000000000000000000161480611e2a57507f00000000000000000000000000000000000000000000000000000000000000006001600160a01b0316611e1e5f8051602061321e833981519152546001600160a01b031690565b6001600160a01b031614155b15610f205760405163703e46dd60e11b815260040160405180910390fd5b6001546001600160a01b0316331461128c576040516356b381a560e01b815260040160405180910390fd5b816001600160a01b03166352d1902d6040518163ffffffff1660e01b8152600401602060405180830381865afa925050508015611ecd575060408051601f3d908101601f19168201909252611eca91810190613088565b60015b611ef557604051634c9c8ce360e01b81526001600160a01b0383166004820152602401610964565b5f8051602061321e8339815191528114611f2557604051632a87526960e21b815260048101829052602401610964565b6119c0838361238a565b306001600160a01b037f00000000000000000000000000000000000000000000000000000000000000001614610f205760405163703e46dd60e11b815260040160405180910390fd5b33611f8161128f565b6001600160a01b031614610f205760405163118cdaa760e01b8152336004820152602401610964565b7f237e158222e3e6968b72b9db0d8043aacf074ad9f650f0d1606b4d82ee432c0080546001600160a01b03191681556110d5826123df565b61128c8161244f565b6001600160a01b03821661201457604051634b637e8f60e11b81525f6004820152602401610964565b6110d5825f8361220c565b5f805160206131fe8339815191526001600160a01b0385166120565760405163e602df0560e01b81525f6004820152602401610964565b6001600160a01b03841661207f57604051634a1406b160e11b81525f6004820152602401610964565b6001600160a01b038086165f908152600183016020908152604080832093881683529290522083905581156120fc57836001600160a01b0316856001600160a01b03167f8c5be1e5ebec7d5bd14f71427d1e84f3dd0314c0f7b2291e5b200ac8c7c3b925856040516120f391815260200190565b60405180910390a35b5050505050565b5f61213061211083612498565b801561212b57505f848061212657612126612ee3565b868809115b151590565b61213b8686866124c4565b6121459190612f0a565b95945050505050565b5f81815260028301602052604081205481908061217b5761216f8585612574565b92505f9150611a369050565b600192509050611a36565b5f8281526002840160205260408120829055611a52848461257f565b5f61090b8261258a565b6121b4612593565b610f2057604051631afcd79f60e31b815260040160405180910390fd5b6121d96121ac565b6110d582826125ac565b6121eb6121ac565b61128c816125fc565b6121fc6121ac565b610f2061267f565b610f206121ac565b5f805160206131fe8339815191526001600160a01b0384166122465781816002015f82825461223b9190612f0a565b909155506122b69050565b6001600160a01b0384165f90815260208290526040902054828110156122985760405163391434e360e21b81526001600160a01b03861660048201526024810182905260448101849052606401610964565b6001600160a01b0385165f9081526020839052604090209083900390555b6001600160a01b0383166122d45760028101805483900390556122f2565b6001600160a01b0383165f9081526020829052604090208054830190555b826001600160a01b0316846001600160a01b03167fddf252ad1be2c89b69c2b068fc378daa952ba7f163c4a11628f55a4df523b3ef8460405161233791815260200190565b60405180910390a350505050565b5f80806123528585612687565b5f81815260029690960160205260409095205494959350505050565b5f8181526002830160205260408120819055610d488383612692565b6123938261269d565b6040516001600160a01b038316907fbc7cd75a20ee27fd9adebab32041f755214dbc6bffa90cc0225b39da2e5c2d3b905f90a28051156123d7576119c08282612700565b6110d5612769565b7f9016d09d72d40fdae2fd8ceac6b6234c7706214fd39c1cd1e609a0528c19930080546001600160a01b031981166001600160a01b03848116918217845560405192169182907f8be0079c531659141344cd1fd0a4f28419497f9722a3daafe3b4186f6b6457e0905f90a3505050565b5f612459826121a2565b90505f5b8181101561248e57600283015f6124748584612687565b815260208101919091526040015f9081205560010161245d565b506110d582612788565b5f60028260038111156124ad576124ad61309f565b6124b791906130b3565b60ff166001149050919050565b5f805f6124d18686612791565b91509150815f036124f5578381816124eb576124eb612ee3565b0492505050610d48565b81841161250c5761250c60038515026011186127ad565b5f848688095f868103871696879004966002600389028118808a02820302808a02820302808a02820302808a02820302808a02820302808a02909103029181900381900460010185841190960395909502919093039390930492909217029150509392505050565b5f610d4883836127be565b5f610d4883836127d5565b5f61090b825490565b5f61259c611a64565b54600160401b900460ff16919050565b6125b46121ac565b5f805160206131fe8339815191527f52c63247e1f47db19d5ce0460030c497f067ca4cebf71ba98eeadabe20bace036125ed8482613118565b5060048101611c2c8382613118565b6126046121ac565b7f0773e532dfede91f04b12a73d3d2acd361424f41f76b4fb79f090161e36b4e005f8061263084612821565b9150915081612640576012612642565b805b83546001600160a81b031916600160a01b60ff92909216919091026001600160a01b031916176001600160a01b0394909416939093179091555050565b611d2f6121ac565b5f610d4883836128f7565b5f610d48838361291d565b806001600160a01b03163b5f036126d257604051634c9c8ce360e01b81526001600160a01b0382166004820152602401610964565b5f8051602061321e83398151915280546001600160a01b0319166001600160a01b0392909216919091179055565b60605f80846001600160a01b03168460405161271c91906131d3565b5f60405180830381855af49150503d805f8114612754576040519150601f19603f3d011682016040523d82523d5f602084013e612759565b606091505b5091509150612145858383612a00565b3415610f205760405163b398979f60e01b815260040160405180910390fd5b61128c81612a5c565b5f805f1983850993909202808410938190039390930393915050565b634e487b715f52806020526024601cfd5b5f8181526001830160205260408120541515610d48565b5f81815260018301602052604081205461281a57508154600181810184555f84815260208082209093018490558454848252828601909352604090209190915561090b565b505f61090b565b60408051600481526024810182526020810180516001600160e01b031663313ce56760e01b17905290515f918291829182916001600160a01b03871691612867916131d3565b5f60405180830381855afa9150503d805f811461289f576040519150601f19603f3d011682016040523d82523d5f602084013e6128a4565b606091505b50915091508180156128b857506020815110155b156128eb575f818060200190518101906128d29190613088565b905060ff81116128e9576001969095509350505050565b505b505f9485945092505050565b5f825f01828154811061290c5761290c612f83565b905f5260205f200154905092915050565b5f81815260018301602052604081205480156129f7575f61293f600183612f70565b85549091505f9061295290600190612f70565b90508082146129b1575f865f01828154811061297057612970612f83565b905f5260205f200154905080875f01848154811061299057612990612f83565b5f918252602080832090910192909255918252600188019052604090208390555b85548690806129c2576129c26131e9565b600190038181905f5260205f20015f90559055856001015f8681526020019081526020015f205f90556001935050505061090b565b5f91505061090b565b606082612a1557612a1082612ab5565b610d48565b8151158015612a2c57506001600160a01b0384163b155b15612a5557604051639996b31560e01b81526001600160a01b0385166004820152602401610964565b5080610d48565b5f612a65825490565b90505f5b81811015612aae57826001015f845f018381548110612a8a57612a8a612f83565b905f5260205f20015481526020019081526020015f205f9055806001019050612a69565b50505f9055565b805115612ac55780518082602001fd5b60405163d6bda27560e01b815260040160405180910390fd5b602081525f82518060208401528060208501604085015e5f604082850101526040601f19601f83011684010191505092915050565b5f60208284031215612b23575f80fd5b5035919050565b6001600160a01b038116811461128c575f80fd5b5f8060408385031215612b4f575f80fd5b8235612b5a81612b2a565b946020939093013593505050565b634e487b7160e01b5f52604160045260245ffd5b5f8067ffffffffffffffff841115612b9657612b96612b68565b50604051601f19601f85018116603f0116810181811067ffffffffffffffff82111715612bc557612bc5612b68565b604052838152905080828401851015612bdc575f80fd5b838360208301375f60208583010152509392505050565b5f82601f830112612c02575f80fd5b610d4883833560208501612b7c565b5f805f8060808587031215612c24575f80fd5b8435612c2f81612b2a565b93506020850135612c3f81612b2a565b9250604085013567ffffffffffffffff811115612c5a575f80fd5b612c6687828801612bf3565b925050606085013567ffffffffffffffff811115612c82575f80fd5b612c8e87828801612bf3565b91505092959194509250565b5f805f60608486031215612cac575f80fd5b8335612cb781612b2a565b92506020840135612cc781612b2a565b929592945050506040919091013590565b5f60208284031215612ce8575f80fd5b8135610d4881612b2a565b5f8060408385031215612d04575f80fd5b8235612d0f81612b2a565b9150602083013567ffffffffffffffff811115612d2a575f80fd5b8301601f81018513612d3a575f80fd5b612d4985823560208401612b7c565b9150509250929050565b5f8060408385031215612d64575f80fd5b823591506020830135612d7681612b2a565b809150509250929050565b5f8060208385031215612d92575f80fd5b823567ffffffffffffffff811115612da8575f80fd5b8301601f81018513612db8575f80fd5b803567ffffffffffffffff811115612dce575f80fd5b8560208260061b8401011115612de2575f80fd5b6020919091019590945092505050565b5f805f60608486031215612e04575f80fd5b833592506020840135612e1681612b2a565b91506040840135612e2681612b2a565b809150509250925092565b5f805f60608486031215612e43575f80fd5b505081359360208301359350604090920135919050565b5f8060408385031215612e6b575f80fd5b8235612e7681612b2a565b91506020830135612d7681612b2a565b600181811c90821680612e9a57607f821691505b60208210810361172957634e487b7160e01b5f52602260045260245ffd5b634e487b7160e01b5f52601160045260245ffd5b808202811582820484141761090b5761090b612eb8565b634e487b7160e01b5f52601260045260245ffd5b5f82612f0557612f05612ee3565b500490565b8082018082111561090b5761090b612eb8565b5f60208284031215612f2d575f80fd5b81518015158114610d48575f80fd5b5f60208284031215612f4c575f80fd5b8151610d4881612b2a565b60ff818116838216019081111561090b5761090b612eb8565b8181038181111561090b5761090b612eb8565b634e487b7160e01b5f52603260045260245ffd5b6001815b6001841115612fd257808504811115612fb657612fb6612eb8565b6001841615612fc457908102905b60019390931c928002612f9b565b935093915050565b5f82612fe85750600161090b565b81612ff457505f61090b565b816001811461300a576002811461301457613030565b600191505061090b565b60ff84111561302557613025612eb8565b50506001821b61090b565b5060208310610133831016604e8410600b8410161715613053575081810a61090b565b61305f5f198484612f97565b805f190482111561307257613072612eb8565b029392505050565b5f610d4860ff841683612fda565b5f60208284031215613098575f80fd5b5051919050565b634e487b7160e01b5f52602160045260245ffd5b5f60ff8316806130c5576130c5612ee3565b8060ff84160691505092915050565b601f8211156119c057805f5260205f20601f840160051c810160208510156130f95750805b601f840160051c820191505b818110156120fc575f8155600101613105565b815167ffffffffffffffff81111561313257613132612b68565b613146816131408454612e86565b846130d4565b6020601f821160018114613178575f83156131615750848201515b5f19600385901b1c1916600184901b1784556120fc565b5f84815260208120601f198516915b828110156131a75787850151825560209485019460019092019101613187565b50848210156131c457868401515f19600387901b60f8161c191681555b50505050600190811b01905550565b5f82518060208501845e5f920191825250919050565b634e487b7160e01b5f52603160045260245ffdfe52c63247e1f47db19d5ce0460030c497f067ca4cebf71ba98eeadabe20bace00360894a13ba1a3210667c828492db98dca3e2076cc3735a920a3ca505d382bbca2646970667358221220d7c7f355b8e809635559a138770b0a80823aec3c361397f01b37f1d1f29fdced64736f6c634300081a0033",
  "linkReferences": {},
  "deployedLinkReferences": {}
}