{
  "_format": "hh-sol-artifact-1",
  "contractName": "OrionEncryptedVault",
  "sourceName": "contracts/OrionEncryptedVault.sol",
  "abi": [
    {
      "inputs": [
        {
          "internalType": "address",
          "name": "_curator",
          "type": "address"
        },
        {
          "internalType": "contract IOrionConfig",
          "name": "_config",
          "type": "address"
        },
        {
          "internalType": "string",
          "name": "_name",
          "type": "string"
        },
        {
          "internalType": "string",
          "name": "_symbol",
          "type": "string"
        }
      ],
      "stateMutability": "nonpayable",
      "type": "constructor"
    },
    {
      "inputs": [
        {
          "internalType": "address",
          "name": "asset",
          "type": "address"
        }
      ],
      "name": "AmountMustBeGreaterThanZero",
      "type": "error"
    },
    {
      "inputs": [
        {
          "internalType": "address",
          "name": "spender",
          "type": "address"
        },
        {
          "internalType": "uint256",
          "name": "allowance",
          "type": "uint256"
        },
        {
          "internalType": "uint256",
          "name": "needed",
          "type": "uint256"
        }
      ],
      "name": "ERC20InsufficientAllowance",
      "type": "error"
    },
    {
      "inputs": [
        {
          "internalType": "address",
          "name": "sender",
          "type": "address"
        },
        {
          "internalType": "uint256",
          "name": "balance",
          "type": "uint256"
        },
        {
          "internalType": "uint256",
          "name": "needed",
          "type": "uint256"
        }
      ],
      "name": "ERC20InsufficientBalance",
      "type": "error"
    },
    {
      "inputs": [
        {
          "internalType": "address",
          "name": "approver",
          "type": "address"
        }
      ],
      "name": "ERC20InvalidApprover",
      "type": "error"
    },
    {
      "inputs": [
        {
          "internalType": "address",
          "name": "receiver",
          "type": "address"
        }
      ],
      "name": "ERC20InvalidReceiver",
      "type": "error"
    },
    {
      "inputs": [
        {
          "internalType": "address",
          "name": "sender",
          "type": "address"
        }
      ],
      "name": "ERC20InvalidSender",
      "type": "error"
    },
    {
      "inputs": [
        {
          "internalType": "address",
          "name": "spender",
          "type": "address"
        }
      ],
      "name": "ERC20InvalidSpender",
      "type": "error"
    },
    {
      "inputs": [
        {
          "internalType": "address",
          "name": "receiver",
          "type": "address"
        },
        {
          "internalType": "uint256",
          "name": "assets",
          "type": "uint256"
        },
        {
          "internalType": "uint256",
          "name": "max",
          "type": "uint256"
        }
      ],
      "name": "ERC4626ExceededMaxDeposit",
      "type": "error"
    },
    {
      "inputs": [
        {
          "internalType": "address",
          "name": "receiver",
          "type": "address"
        },
        {
          "internalType": "uint256",
          "name": "shares",
          "type": "uint256"
        },
        {
          "internalType": "uint256",
          "name": "max",
          "type": "uint256"
        }
      ],
      "name": "ERC4626ExceededMaxMint",
      "type": "error"
    },
    {
      "inputs": [
        {
          "internalType": "address",
          "name": "owner",
          "type": "address"
        },
        {
          "internalType": "uint256",
          "name": "shares",
          "type": "uint256"
        },
        {
          "internalType": "uint256",
          "name": "max",
          "type": "uint256"
        }
      ],
      "name": "ERC4626ExceededMaxRedeem",
      "type": "error"
    },
    {
      "inputs": [
        {
          "internalType": "address",
          "name": "owner",
          "type": "address"
        },
        {
          "internalType": "uint256",
          "name": "assets",
          "type": "uint256"
        },
        {
          "internalType": "uint256",
          "name": "max",
          "type": "uint256"
        }
      ],
      "name": "ERC4626ExceededMaxWithdraw",
      "type": "error"
    },
    {
      "inputs": [],
      "name": "InvalidConfigAddress",
      "type": "error"
    },
    {
      "inputs": [],
      "name": "InvalidCuratorAddress",
      "type": "error"
    },
    {
      "inputs": [],
      "name": "NotCurator",
      "type": "error"
    },
    {
      "inputs": [],
      "name": "NotEnoughShares",
      "type": "error"
    },
    {
      "inputs": [],
      "name": "NotInternalStatesOrchestrator",
      "type": "error"
    },
    {
      "inputs": [],
      "name": "NotLiquidityOrchestrator",
      "type": "error"
    },
    {
      "inputs": [],
      "name": "OrderIntentCannotBeEmpty",
      "type": "error"
    },
    {
      "inputs": [],
      "name": "ReentrancyGuardReentrantCall",
      "type": "error"
    },
    {
      "inputs": [],
      "name": "SharesMustBeGreaterThanZero",
      "type": "error"
    },
    {
      "inputs": [],
      "name": "SynchronousDepositsDisabled",
      "type": "error"
    },
    {
      "inputs": [],
      "name": "SynchronousRedemptionsDisabled",
      "type": "error"
    },
    {
      "inputs": [],
      "name": "SynchronousWithdrawalsDisabled",
      "type": "error"
    },
    {
      "inputs": [
        {
          "internalType": "address",
          "name": "token",
          "type": "address"
        }
      ],
      "name": "TokenNotWhitelisted",
      "type": "error"
    },
    {
      "inputs": [],
      "name": "TransferFailed",
      "type": "error"
    },
    {
      "inputs": [],
      "name": "ZeroPrice",
      "type": "error"
    },
    {
      "anonymous": false,
      "inputs": [
        {
          "indexed": true,
          "internalType": "address",
          "name": "owner",
          "type": "address"
        },
        {
          "indexed": true,
          "internalType": "address",
          "name": "spender",
          "type": "address"
        },
        {
          "indexed": false,
          "internalType": "uint256",
          "name": "value",
          "type": "uint256"
        }
      ],
      "name": "Approval",
      "type": "event"
    },
    {
      "anonymous": false,
      "inputs": [
        {
          "indexed": true,
          "internalType": "address",
          "name": "sender",
          "type": "address"
        },
        {
          "indexed": true,
          "internalType": "address",
          "name": "owner",
          "type": "address"
        },
        {
          "indexed": false,
          "internalType": "uint256",
          "name": "assets",
          "type": "uint256"
        },
        {
          "indexed": false,
          "internalType": "uint256",
          "name": "shares",
          "type": "uint256"
        }
      ],
      "name": "Deposit",
      "type": "event"
    },
    {
      "anonymous": false,
      "inputs": [
        {
          "indexed": true,
          "internalType": "address",
          "name": "user",
          "type": "address"
        },
        {
          "indexed": false,
          "internalType": "uint256",
          "name": "amount",
          "type": "uint256"
        },
        {
          "indexed": false,
          "internalType": "uint256",
          "name": "requestId",
          "type": "uint256"
        }
      ],
      "name": "DepositProcessed",
      "type": "event"
    },
    {
      "anonymous": false,
      "inputs": [
        {
          "indexed": true,
          "internalType": "address",
          "name": "user",
          "type": "address"
        },
        {
          "indexed": false,
          "internalType": "uint256",
          "name": "amount",
          "type": "uint256"
        },
        {
          "indexed": false,
          "internalType": "uint256",
          "name": "requestId",
          "type": "uint256"
        }
      ],
      "name": "DepositRequested",
      "type": "event"
    },
    {
      "anonymous": false,
      "inputs": [
        {
          "indexed": true,
          "internalType": "address",
          "name": "curator",
          "type": "address"
        }
      ],
      "name": "OrderSubmitted",
      "type": "event"
    },
    {
      "anonymous": false,
      "inputs": [
        {
          "indexed": true,
          "internalType": "address",
          "name": "from",
          "type": "address"
        },
        {
          "indexed": true,
          "internalType": "address",
          "name": "to",
          "type": "address"
        },
        {
          "indexed": false,
          "internalType": "uint256",
          "name": "value",
          "type": "uint256"
        }
      ],
      "name": "Transfer",
      "type": "event"
    },
    {
      "anonymous": false,
      "inputs": [
        {
          "indexed": true,
          "internalType": "address",
          "name": "sender",
          "type": "address"
        },
        {
          "indexed": true,
          "internalType": "address",
          "name": "receiver",
          "type": "address"
        },
        {
          "indexed": true,
          "internalType": "address",
          "name": "owner",
          "type": "address"
        },
        {
          "indexed": false,
          "internalType": "uint256",
          "name": "assets",
          "type": "uint256"
        },
        {
          "indexed": false,
          "internalType": "uint256",
          "name": "shares",
          "type": "uint256"
        }
      ],
      "name": "Withdraw",
      "type": "event"
    },
    {
      "anonymous": false,
      "inputs": [
        {
          "indexed": true,
          "internalType": "address",
          "name": "user",
          "type": "address"
        },
        {
          "indexed": false,
          "internalType": "uint256",
          "name": "shares",
          "type": "uint256"
        },
        {
          "indexed": false,
          "internalType": "uint256",
          "name": "requestId",
          "type": "uint256"
        }
      ],
      "name": "WithdrawProcessed",
      "type": "event"
    },
    {
      "anonymous": false,
      "inputs": [
        {
          "indexed": true,
          "internalType": "address",
          "name": "user",
          "type": "address"
        },
        {
          "indexed": false,
          "internalType": "uint256",
          "name": "shares",
          "type": "uint256"
        },
        {
          "indexed": false,
          "internalType": "uint256",
          "name": "requestId",
          "type": "uint256"
        }
      ],
      "name": "WithdrawRequested",
      "type": "event"
    },
    {
      "inputs": [
        {
          "internalType": "address",
          "name": "owner",
          "type": "address"
        },
        {
          "internalType": "address",
          "name": "spender",
          "type": "address"
        }
      ],
      "name": "allowance",
      "outputs": [
        {
          "internalType": "uint256",
          "name": "",
          "type": "uint256"
        }
      ],
      "stateMutability": "view",
      "type": "function"
    },
    {
      "inputs": [
        {
          "internalType": "address",
          "name": "spender",
          "type": "address"
        },
        {
          "internalType": "uint256",
          "name": "value",
          "type": "uint256"
        }
      ],
      "name": "approve",
      "outputs": [
        {
          "internalType": "bool",
          "name": "",
          "type": "bool"
        }
      ],
      "stateMutability": "nonpayable",
      "type": "function"
    },
    {
      "inputs": [],
      "name": "asset",
      "outputs": [
        {
          "internalType": "address",
          "name": "",
          "type": "address"
        }
      ],
      "stateMutability": "view",
      "type": "function"
    },
    {
      "inputs": [
        {
          "internalType": "address",
          "name": "account",
          "type": "address"
        }
      ],
      "name": "balanceOf",
      "outputs": [
        {
          "internalType": "uint256",
          "name": "",
          "type": "uint256"
        }
      ],
      "stateMutability": "view",
      "type": "function"
    },
    {
      "inputs": [],
      "name": "config",
      "outputs": [
        {
          "internalType": "contract IOrionConfig",
          "name": "",
          "type": "address"
        }
      ],
      "stateMutability": "view",
      "type": "function"
    },
    {
      "inputs": [
        {
          "internalType": "uint256",
          "name": "shares",
          "type": "uint256"
        }
      ],
      "name": "convertToAssets",
      "outputs": [
        {
          "internalType": "uint256",
          "name": "",
          "type": "uint256"
        }
      ],
      "stateMutability": "view",
      "type": "function"
    },
    {
      "inputs": [
        {
          "internalType": "uint256",
          "name": "assets",
          "type": "uint256"
        }
      ],
      "name": "convertToShares",
      "outputs": [
        {
          "internalType": "uint256",
          "name": "",
          "type": "uint256"
        }
      ],
      "stateMutability": "view",
      "type": "function"
    },
    {
      "inputs": [],
      "name": "curator",
      "outputs": [
        {
          "internalType": "address",
          "name": "",
          "type": "address"
        }
      ],
      "stateMutability": "view",
      "type": "function"
    },
    {
      "inputs": [],
      "name": "decimals",
      "outputs": [
        {
          "internalType": "uint8",
          "name": "",
          "type": "uint8"
        }
      ],
      "stateMutability": "view",
      "type": "function"
    },
    {
      "inputs": [],
      "name": "deployer",
      "outputs": [
        {
          "internalType": "address",
          "name": "",
          "type": "address"
        }
      ],
      "stateMutability": "view",
      "type": "function"
    },
    {
      "inputs": [
        {
          "internalType": "uint256",
          "name": "",
          "type": "uint256"
        },
        {
          "internalType": "address",
          "name": "",
          "type": "address"
        }
      ],
      "name": "deposit",
      "outputs": [
        {
          "internalType": "uint256",
          "name": "",
          "type": "uint256"
        }
      ],
      "stateMutability": "pure",
      "type": "function"
    },
    {
      "inputs": [
        {
          "internalType": "uint256",
          "name": "",
          "type": "uint256"
        }
      ],
      "name": "depositRequests",
      "outputs": [
        {
          "internalType": "address",
          "name": "user",
          "type": "address"
        },
        {
          "internalType": "uint256",
          "name": "amount",
          "type": "uint256"
        }
      ],
      "stateMutability": "view",
      "type": "function"
    },
    {
      "inputs": [
        {
          "internalType": "address",
          "name": "",
          "type": "address"
        }
      ],
      "name": "maxDeposit",
      "outputs": [
        {
          "internalType": "uint256",
          "name": "",
          "type": "uint256"
        }
      ],
      "stateMutability": "view",
      "type": "function"
    },
    {
      "inputs": [
        {
          "internalType": "address",
          "name": "",
          "type": "address"
        }
      ],
      "name": "maxMint",
      "outputs": [
        {
          "internalType": "uint256",
          "name": "",
          "type": "uint256"
        }
      ],
      "stateMutability": "view",
      "type": "function"
    },
    {
      "inputs": [
        {
          "internalType": "address",
          "name": "owner",
          "type": "address"
        }
      ],
      "name": "maxRedeem",
      "outputs": [
        {
          "internalType": "uint256",
          "name": "",
          "type": "uint256"
        }
      ],
      "stateMutability": "view",
      "type": "function"
    },
    {
      "inputs": [
        {
          "internalType": "address",
          "name": "owner",
          "type": "address"
        }
      ],
      "name": "maxWithdraw",
      "outputs": [
        {
          "internalType": "uint256",
          "name": "",
          "type": "uint256"
        }
      ],
      "stateMutability": "view",
      "type": "function"
    },
    {
      "inputs": [
        {
          "internalType": "uint256",
          "name": "",
          "type": "uint256"
        },
        {
          "internalType": "address",
          "name": "",
          "type": "address"
        }
      ],
      "name": "mint",
      "outputs": [
        {
          "internalType": "uint256",
          "name": "",
          "type": "uint256"
        }
      ],
      "stateMutability": "pure",
      "type": "function"
    },
    {
      "inputs": [],
      "name": "name",
      "outputs": [
        {
          "internalType": "string",
          "name": "",
          "type": "string"
        }
      ],
      "stateMutability": "view",
      "type": "function"
    },
    {
      "inputs": [
        {
          "internalType": "uint256",
          "name": "assets",
          "type": "uint256"
        }
      ],
      "name": "previewDeposit",
      "outputs": [
        {
          "internalType": "uint256",
          "name": "",
          "type": "uint256"
        }
      ],
      "stateMutability": "view",
      "type": "function"
    },
    {
      "inputs": [
        {
          "internalType": "uint256",
          "name": "shares",
          "type": "uint256"
        }
      ],
      "name": "previewMint",
      "outputs": [
        {
          "internalType": "uint256",
          "name": "",
          "type": "uint256"
        }
      ],
      "stateMutability": "view",
      "type": "function"
    },
    {
      "inputs": [
        {
          "internalType": "uint256",
          "name": "shares",
          "type": "uint256"
        }
      ],
      "name": "previewRedeem",
      "outputs": [
        {
          "internalType": "uint256",
          "name": "",
          "type": "uint256"
        }
      ],
      "stateMutability": "view",
      "type": "function"
    },
    {
      "inputs": [
        {
          "internalType": "uint256",
          "name": "assets",
          "type": "uint256"
        }
      ],
      "name": "previewWithdraw",
      "outputs": [
        {
          "internalType": "uint256",
          "name": "",
          "type": "uint256"
        }
      ],
      "stateMutability": "view",
      "type": "function"
    },
    {
      "inputs": [],
      "name": "processDepositRequests",
      "outputs": [],
      "stateMutability": "nonpayable",
      "type": "function"
    },
    {
      "inputs": [],
      "name": "processWithdrawRequests",
      "outputs": [],
      "stateMutability": "nonpayable",
      "type": "function"
    },
    {
      "inputs": [
        {
          "internalType": "uint256",
          "name": "",
          "type": "uint256"
        },
        {
          "internalType": "address",
          "name": "",
          "type": "address"
        },
        {
          "internalType": "address",
          "name": "",
          "type": "address"
        }
      ],
      "name": "redeem",
      "outputs": [
        {
          "internalType": "uint256",
          "name": "",
          "type": "uint256"
        }
      ],
      "stateMutability": "pure",
      "type": "function"
    },
    {
      "inputs": [
        {
          "internalType": "uint256",
          "name": "amount",
          "type": "uint256"
        }
      ],
      "name": "requestDeposit",
      "outputs": [],
      "stateMutability": "nonpayable",
      "type": "function"
    },
    {
      "inputs": [
        {
          "internalType": "uint256",
          "name": "shares",
          "type": "uint256"
        }
      ],
      "name": "requestWithdraw",
      "outputs": [],
      "stateMutability": "nonpayable",
      "type": "function"
    },
    {
      "inputs": [
        {
          "internalType": "uint256",
          "name": "newPrice",
          "type": "uint256"
        }
      ],
      "name": "setSharePrice",
      "outputs": [],
      "stateMutability": "nonpayable",
      "type": "function"
    },
    {
      "inputs": [
        {
          "internalType": "uint256",
          "name": "newTotalAssets",
          "type": "uint256"
        }
      ],
      "name": "setTotalAssets",
      "outputs": [],
      "stateMutability": "nonpayable",
      "type": "function"
    },
    {
      "inputs": [],
      "name": "sharePrice",
      "outputs": [
        {
          "internalType": "uint256",
          "name": "",
          "type": "uint256"
        }
      ],
      "stateMutability": "view",
      "type": "function"
    },
    {
      "inputs": [
        {
          "components": [
            {
              "internalType": "address",
              "name": "token",
              "type": "address"
            },
            {
              "internalType": "euint32",
              "name": "amount",
              "type": "bytes32"
            }
          ],
          "internalType": "struct OrionEncryptedVault.Order[]",
          "name": "order",
          "type": "tuple[]"
        }
      ],
      "name": "submitOrderIntent",
      "outputs": [],
      "stateMutability": "nonpayable",
      "type": "function"
    },
    {
      "inputs": [],
      "name": "symbol",
      "outputs": [
        {
          "internalType": "string",
          "name": "",
          "type": "string"
        }
      ],
      "stateMutability": "view",
      "type": "function"
    },
    {
      "inputs": [],
      "name": "totalAssets",
      "outputs": [
        {
          "internalType": "uint256",
          "name": "",
          "type": "uint256"
        }
      ],
      "stateMutability": "view",
      "type": "function"
    },
    {
      "inputs": [],
      "name": "totalSupply",
      "outputs": [
        {
          "internalType": "uint256",
          "name": "",
          "type": "uint256"
        }
      ],
      "stateMutability": "view",
      "type": "function"
    },
    {
      "inputs": [
        {
          "internalType": "address",
          "name": "to",
          "type": "address"
        },
        {
          "internalType": "uint256",
          "name": "value",
          "type": "uint256"
        }
      ],
      "name": "transfer",
      "outputs": [
        {
          "internalType": "bool",
          "name": "",
          "type": "bool"
        }
      ],
      "stateMutability": "nonpayable",
      "type": "function"
    },
    {
      "inputs": [
        {
          "internalType": "address",
          "name": "from",
          "type": "address"
        },
        {
          "internalType": "address",
          "name": "to",
          "type": "address"
        },
        {
          "internalType": "uint256",
          "name": "value",
          "type": "uint256"
        }
      ],
      "name": "transferFrom",
      "outputs": [
        {
          "internalType": "bool",
          "name": "",
          "type": "bool"
        }
      ],
      "stateMutability": "nonpayable",
      "type": "function"
    },
    {
      "inputs": [
        {
          "internalType": "uint256",
          "name": "",
          "type": "uint256"
        },
        {
          "internalType": "address",
          "name": "",
          "type": "address"
        },
        {
          "internalType": "address",
          "name": "",
          "type": "address"
        }
      ],
      "name": "withdraw",
      "outputs": [
        {
          "internalType": "uint256",
          "name": "",
          "type": "uint256"
        }
      ],
      "stateMutability": "pure",
      "type": "function"
    },
    {
      "inputs": [
        {
          "internalType": "uint256",
          "name": "",
          "type": "uint256"
        }
      ],
      "name": "withdrawRequests",
      "outputs": [
        {
          "internalType": "address",
          "name": "user",
          "type": "address"
        },
        {
          "internalType": "uint256",
          "name": "shares",
          "type": "uint256"
        }
      ],
      "stateMutability": "view",
      "type": "function"
    }
  ],
  "bytecode": "0x60c060405234801561000f575f80fd5b5060405161236938038061236983398101604081905261002e9161032f565b83838383826001600160a01b0316637158da7c6040518163ffffffff1660e01b8152600401602060405180830381865afa15801561006e573d5f803e3d5ffd5b505050506040513d601f19601f8201168201806040525081019061009291906103ba565b828260036100a08382610460565b5060046100ad8282610460565b5050505f806100c18361019160201b60201c565b91509150816100d15760126100d3565b805b60ff1660a05250506001600160a01b03908116608052841661010857604051639c6bb9f560e01b815260040160405180910390fd5b6001600160a01b03831661012f57604051636a485a5b60e11b815260040160405180910390fd5b60078054336001600160a01b0319918216179091556006805482166001600160a01b038781169190911790915560058054909216908516179055610171610267565b61017c90600a610613565b60085550505f60095550610667945050505050565b60408051600481526024810182526020810180516001600160e01b031663313ce56760e01b17905290515f918291829182916001600160a01b038716916101d791610621565b5f60405180830381855afa9150503d805f811461020f576040519150601f19603f3d011682016040523d82523d5f602084013e610214565b606091505b509150915081801561022857506020815110155b1561025b575f818060200190518101906102429190610637565b905060ff8111610259576001969095509350505050565b505b505f9485945092505050565b5f8060a051610276919061064e565b905090565b6001600160a01b038116811461028f575f80fd5b50565b634e487b7160e01b5f52604160045260245ffd5b5f82601f8301126102b5575f80fd5b81516001600160401b038111156102ce576102ce610292565b604051601f8201601f19908116603f011681016001600160401b03811182821017156102fc576102fc610292565b604052818152838201602001851015610313575f80fd5b8160208501602083015e5f918101602001919091529392505050565b5f805f8060808587031215610342575f80fd5b845161034d8161027b565b602086015190945061035e8161027b565b60408601519093506001600160401b03811115610379575f80fd5b610385878288016102a6565b606087015190935090506001600160401b038111156103a2575f80fd5b6103ae878288016102a6565b91505092959194509250565b5f602082840312156103ca575f80fd5b81516103d58161027b565b9392505050565b600181811c908216806103f057607f821691505b60208210810361040e57634e487b7160e01b5f52602260045260245ffd5b50919050565b601f82111561045b57805f5260205f20601f840160051c810160208510156104395750805b601f840160051c820191505b81811015610458575f8155600101610445565b50505b505050565b81516001600160401b0381111561047957610479610292565b61048d8161048784546103dc565b84610414565b6020601f8211600181146104bf575f83156104a85750848201515b5f19600385901b1c1916600184901b178455610458565b5f84815260208120601f198516915b828110156104ee57878501518255602094850194600190920191016104ce565b508482101561050b57868401515f19600387901b60f8161c191681555b50505050600190811b01905550565b634e487b7160e01b5f52601160045260245ffd5b6001815b60018411156105695780850481111561054d5761054d61051a565b600184161561055b57908102905b60019390931c928002610532565b935093915050565b5f8261057f5750600161060d565b8161058b57505f61060d565b81600181146105a157600281146105ab576105c7565b600191505061060d565b60ff8411156105bc576105bc61051a565b50506001821b61060d565b5060208310610133831016604e8410600b84101617156105ea575081810a61060d565b6105f65f19848461052e565b805f19048211156106095761060961051a565b0290505b92915050565b5f6103d560ff841683610571565b5f82518060208501845e5f920191825250919050565b5f60208284031215610647575f80fd5b5051919050565b60ff818116838216019081111561060d5761060d61051a565b60805160a051611ccc61069d5f395f610b8101525f818161032f0152818161081f0152818161084e01526111010152611ccc5ff3fe608060405234801561000f575f80fd5b5060043610610229575f3560e01c806379502c551161012a578063ba087652116100b4578063d905777e11610079578063d905777e146104bf578063dd62ed3e146104d2578063e66f53b71461050a578063ef8b30f71461051d578063fabd034114610530575f80fd5b8063ba08765214610473578063c63d75b614610367578063c6e6f59214610486578063ce96cb7714610499578063d5f39488146104ac575f80fd5b8063992a7dfb116100fa578063992a7dfb14610400578063a9059cbb14610432578063aa9d3a6014610445578063b3d7f6b91461044d578063b460af9414610460575f80fd5b806379502c55146103dc57806387269729146103ef57806394bf804d1461038e57806395d89b41146103f8575f80fd5b806318160ddd116101b6578063402d267d1161017b578063402d267d146103675780634cdad5061461037b5780636e553f651461038e57806370a08231146103a1578063745400c9146103c9575f80fd5b806318160ddd146102f057806323b872dd146102f8578063313ce5671461030b57806333fdc5921461032557806338d52e0f1461032d575f80fd5b8063095ea7b3116101fc578063095ea7b3146102815780630a28a477146102a45780630d1e6667146102b757806316b60249146102ca5780631765b313146102dd575f80fd5b806301e1d1141461022d57806306fdde031461024457806307a2d13a14610259578063089d600d1461026c575b5f80fd5b6009545b6040519081526020015b60405180910390f35b61024c610543565b60405161023b9190611855565b61023161026736600461188a565b6105d3565b61027f61027a3660046118a1565b6105fb565b005b61029461028f366004611929565b6107de565b604051901515815260200161023b565b6102316102b236600461188a565b6107f5565b61027f6102c536600461188a565b610801565b61027f6102d836600461188a565b6109e1565b61027f6102eb36600461188a565b610aab565b600254610231565b610294610306366004611953565b610b55565b610313610b7a565b60405160ff909116815260200161023b565b61027f610baa565b7f00000000000000000000000000000000000000000000000000000000000000005b6040516001600160a01b03909116815260200161023b565b610231610375366004611991565b505f1990565b61023161038936600461188a565b610db8565b61023161039c3660046119ac565b610dc3565b6102316103af366004611991565b6001600160a01b03165f9081526020819052604090205490565b61027f6103d736600461188a565b610ddd565b60055461034f906001600160a01b031681565b61023160085481565b61024c610efd565b61041361040e36600461188a565b610f0c565b604080516001600160a01b03909316835260208301919091520161023b565b610294610440366004611929565b610f42565b61027f610f4f565b61023161045b36600461188a565b611202565b61023161046e3660046119da565b61120e565b6102316104813660046119da565b611227565b61023161049436600461188a565b611241565b6102316104a7366004611991565b611258565b60075461034f906001600160a01b031681565b6102316104cd366004611991565b61127a565b6102316104e0366004611a19565b6001600160a01b039182165f90815260016020908152604080832093909416825291909152205490565b60065461034f906001600160a01b031681565b61023161052b36600461188a565b611297565b61041361053e36600461188a565b6112a2565b60606003805461055290611a45565b80601f016020809104026020016040519081016040528092919081815260200182805461057e90611a45565b80156105c95780601f106105a0576101008083540402835291602001916105c9565b820191905f5260205f20905b8154815290600101906020018083116105ac57829003601f168201915b5050505050905090565b5f670de0b6b3a7640000600854836105eb9190611a91565b6105f59190611abc565b92915050565b6006546001600160a01b03163314610626576040516356b381a560e01b815260040160405180910390fd5b5f81900361064757604051631121aa8d60e01b815260040160405180910390fd5b5f5b8181101561069e575f600c8185858581811061066757610667611acf565b61067d9260206040909202019081019150611991565b6001600160a01b0316815260208101919091526040015f2055600101610649565b505f5b818110156107af575f8383838181106106bc576106bc611acf565b6106d29260206040909202019081019150611991565b90505f8484848181106106e7576106e7611acf565b60055460408051633af32abf60e01b81526001600160a01b03888116600483015293909102949094016020013594501691633af32abf9150602401602060405180830381865afa15801561073d573d5f803e3d5ffd5b505050506040513d601f19601f820116820180604052508101906107619190611ae3565b61078e5760405163751dff9760e11b81526001600160a01b03831660048201526024015b60405180910390fd5b6001600160a01b039091165f908152600c60205260409020556001016106a1565b5060405133907f2d47a742b8d7df7c1fc5a9a631b206b364e6cb2722490759f63bb3ab14b132e0905f90a25050565b5f336107eb8185856112b1565b5060019392505050565b5f6105f58260016112c3565b805f0361084c57604051636b30633560e01b81526001600160a01b037f0000000000000000000000000000000000000000000000000000000000000000166004820152602401610785565b7f00000000000000000000000000000000000000000000000000000000000000006040516323b872dd60e01b8152336004820152306024820152604481018390526001600160a01b0391909116906323b872dd906064016020604051808303815f875af11580156108bf573d5f803e3d5ffd5b505050506040513d601f19601f820116820180604052508101906108e39190611ae3565b610900576040516312171d8360e31b815260040160405180910390fd5b604080518082019091523380825260208201838152600a8054600180820183555f83905294517fc65a7bb8d6351c1cf70c95a316cc6a92839c986682d98bc35f958f4883f9d2a8600290920291820180546001600160a01b0319166001600160a01b0390921691909117905591517fc65a7bb8d6351c1cf70c95a316cc6a92839c986682d98bc35f958f4883f9d2a9909201919091555490917f03979a8c481a9e9c06938045cfd5c28535255cb003b10a8fe84ebb3cb4d440f29184916109c691611b02565b6040805192835260208301919091520160405180910390a250565b60055f9054906101000a90046001600160a01b03166001600160a01b031663348ec5c86040518163ffffffff1660e01b8152600401602060405180830381865afa158015610a31573d5f803e3d5ffd5b505050506040513d601f19601f82011682018060405250810190610a559190611b15565b6001600160a01b0316336001600160a01b031614610a865760405163efb380d960e01b815260040160405180910390fd5b805f03610aa657604051634dfba02360e01b815260040160405180910390fd5b600855565b60055f9054906101000a90046001600160a01b03166001600160a01b031663348ec5c86040518163ffffffff1660e01b8152600401602060405180830381865afa158015610afb573d5f803e3d5ffd5b505050506040513d601f19601f82011682018060405250810190610b1f9190611b15565b6001600160a01b0316336001600160a01b031614610b505760405163efb380d960e01b815260040160405180910390fd5b600955565b5f33610b628582856112f6565b610b6d858585611372565b60019150505b9392505050565b5f610ba5817f0000000000000000000000000000000000000000000000000000000000000000611b30565b905090565b60055f9054906101000a90046001600160a01b03166001600160a01b0316633a0dad8e6040518163ffffffff1660e01b8152600401602060405180830381865afa158015610bfa573d5f803e3d5ffd5b505050506040513d601f19601f82011682018060405250810190610c1e9190611b15565b6001600160a01b0316336001600160a01b031614610c4f57604051631af2ab4f60e31b815260040160405180910390fd5b610c576113cf565b5f5b600a54811015610dad575f600a8281548110610c7757610c77611acf565b905f5260205f20906002020190505f610c938260010154611297565b600a805491925090610ca790600190611b02565b81548110610cb757610cb7611acf565b905f5260205f209060020201600a8481548110610cd657610cd6611acf565b5f9182526020909120825460029092020180546001600160a01b0319166001600160a01b03909216919091178155600191820154910155600a805480610d1e57610d1e611b49565b5f8281526020812060025f199093019283020180546001600160a01b03191681556001015590558154610d5a906001600160a01b03168261143c565b8154600183015460408051918252602082018690526001600160a01b03909216917f782ea2005b7f873a0190a1ccb553c732171348d6e16d2b7d3d493c0677dc296e910160405180910390a25050610c59565b50610db6611474565b565b5f6105f5825f61149e565b5f6040516318f2e47360e11b815260040160405180910390fd5b805f03610dfd576040516314e6cbb960e11b815260040160405180910390fd5b335f90815260208190526040902054811115610e2c57604051633c57b48560e21b815260040160405180910390fd5b610e37333083611372565b604080518082019091523380825260208201838152600b8054600180820183555f83905294517f0175b7a638427703f0dbe7bb9bbf987a2551717b34e79f33b5b1008d1fa01db9600290920291820180546001600160a01b0319166001600160a01b0390921691909117905591517f0175b7a638427703f0dbe7bb9bbf987a2551717b34e79f33b5b1008d1fa01dba909201919091555490917fd72eb5d043f24a0168ae744d5c44f9596fd673a26bf74d9646bff4b844882d149184916109c691611b02565b60606004805461055290611a45565b600b8181548110610f1b575f80fd5b5f918252602090912060029091020180546001909101546001600160a01b03909116915082565b5f336107eb818585611372565b60055f9054906101000a90046001600160a01b03166001600160a01b0316633a0dad8e6040518163ffffffff1660e01b8152600401602060405180830381865afa158015610f9f573d5f803e3d5ffd5b505050506040513d601f19601f82011682018060405250810190610fc39190611b15565b6001600160a01b0316336001600160a01b031614610ff457604051631af2ab4f60e31b815260040160405180910390fd5b610ffc6113cf565b5f5b600b54811015610dad575f600b828154811061101c5761101c611acf565b905f5260205f2090600202019050600b6001600b8054905061103e9190611b02565b8154811061104e5761104e611acf565b905f5260205f209060020201600b838154811061106d5761106d611acf565b5f9182526020909120825460029092020180546001600160a01b0319166001600160a01b03909216919091178155600191820154910155600b8054806110b5576110b5611b49565b5f8281526020812060025f199093019283020180546001600160a01b031916815560019081019190915591558101546110ef9030906114ce565b5f6110fd8260010154610db8565b90507f0000000000000000000000000000000000000000000000000000000000000000825460405163a9059cbb60e01b81526001600160a01b0391821660048201526024810184905291169063a9059cbb906044016020604051808303815f875af115801561116e573d5f803e3d5ffd5b505050506040513d601f19601f820116820180604052508101906111929190611ae3565b6111af576040516312171d8360e31b815260040160405180910390fd5b8154600183015460408051918252602082018690526001600160a01b03909216917febad37b830b1857ef9af5983fc20dc0ded12dc472ba1e22e06fd3a9465b4506c910160405180910390a25050610ffe565b5f6105f582600161149e565b5f604051628a595160e01b815260040160405180910390fd5b5f604051630ad8521960e31b815260040160405180910390fd5b6008545f906105eb83670de0b6b3a7640000611a91565b6001600160a01b0381165f908152602081905260408120546105f5905f61149e565b6001600160a01b0381165f908152602081905260408120546105f5565b5f6105f5825f6112c3565b600a8181548110610f1b575f80fd5b6112be8383836001611502565b505050565b5f610b736112d282600a611c40565b6002546112df9190611c4e565b6009546112ed906001611c4e565b859190856115d4565b6001600160a01b038381165f908152600160209081526040808320938616835292905220545f1981101561136c578181101561135e57604051637dc7a0d960e11b81526001600160a01b03841660048201526024810182905260448101839052606401610785565b61136c84848484035f611502565b50505050565b6001600160a01b03831661139b57604051634b637e8f60e11b81525f6004820152602401610785565b6001600160a01b0382166113c45760405163ec442f0560e01b81525f6004820152602401610785565b6112be83838361161f565b7f9b779b17422d0df92223018b32b4d1fa46e071723d6817e2486d003becc55f005c1561140f57604051633ee5aeb560e01b815260040160405180910390fd5b610db660017f9b779b17422d0df92223018b32b4d1fa46e071723d6817e2486d003becc55f005b90611745565b6001600160a01b0382166114655760405163ec442f0560e01b81525f6004820152602401610785565b6114705f838361161f565b5050565b610db65f7f9b779b17422d0df92223018b32b4d1fa46e071723d6817e2486d003becc55f00611436565b5f610b736114ab60095490565b6114b6906001611c4e565b6114c15f600a611c40565b6002546112ed9190611c4e565b6001600160a01b0382166114f757604051634b637e8f60e11b81525f6004820152602401610785565b611470825f8361161f565b6001600160a01b03841661152b5760405163e602df0560e01b81525f6004820152602401610785565b6001600160a01b03831661155457604051634a1406b160e11b81525f6004820152602401610785565b6001600160a01b038085165f908152600160209081526040808320938716835292905220829055801561136c57826001600160a01b0316846001600160a01b03167f8c5be1e5ebec7d5bd14f71427d1e84f3dd0314c0f7b2291e5b200ac8c7c3b925846040516115c691815260200190565b60405180910390a350505050565b5f6116016115e18361174c565b80156115fc57505f84806115f7576115f7611aa8565b868809115b151590565b61160c868686611778565b6116169190611c4e565b95945050505050565b6001600160a01b038316611649578060025f82825461163e9190611c4e565b909155506116b99050565b6001600160a01b0383165f908152602081905260409020548181101561169b5760405163391434e360e21b81526001600160a01b03851660048201526024810182905260448101839052606401610785565b6001600160a01b0384165f9081526020819052604090209082900390555b6001600160a01b0382166116d5576002805482900390556116f3565b6001600160a01b0382165f9081526020819052604090208054820190555b816001600160a01b0316836001600160a01b03167fddf252ad1be2c89b69c2b068fc378daa952ba7f163c4a11628f55a4df523b3ef8360405161173891815260200190565b60405180910390a3505050565b80825d5050565b5f600282600381111561176157611761611c61565b61176b9190611c75565b60ff166001149050919050565b5f805f6117858686611828565b91509150815f036117a95783818161179f5761179f611aa8565b0492505050610b73565b8184116117c0576117c06003851502601118611844565b5f848688095f868103871696879004966002600389028118808a02820302808a02820302808a02820302808a02820302808a02820302808a02909103029181900381900460010185841190960395909502919093039390930492909217029150509392505050565b5f805f1983850993909202808410938190039390930393915050565b634e487b715f52806020526024601cfd5b602081525f82518060208401528060208501604085015e5f604082850101526040601f19601f83011684010191505092915050565b5f6020828403121561189a575f80fd5b5035919050565b5f80602083850312156118b2575f80fd5b823567ffffffffffffffff8111156118c8575f80fd5b8301601f810185136118d8575f80fd5b803567ffffffffffffffff8111156118ee575f80fd5b8560208260061b8401011115611902575f80fd5b6020919091019590945092505050565b6001600160a01b0381168114611926575f80fd5b50565b5f806040838503121561193a575f80fd5b823561194581611912565b946020939093013593505050565b5f805f60608486031215611965575f80fd5b833561197081611912565b9250602084013561198081611912565b929592945050506040919091013590565b5f602082840312156119a1575f80fd5b8135610b7381611912565b5f80604083850312156119bd575f80fd5b8235915060208301356119cf81611912565b809150509250929050565b5f805f606084860312156119ec575f80fd5b8335925060208401356119fe81611912565b91506040840135611a0e81611912565b809150509250925092565b5f8060408385031215611a2a575f80fd5b8235611a3581611912565b915060208301356119cf81611912565b600181811c90821680611a5957607f821691505b602082108103611a7757634e487b7160e01b5f52602260045260245ffd5b50919050565b634e487b7160e01b5f52601160045260245ffd5b80820281158282048414176105f5576105f5611a7d565b634e487b7160e01b5f52601260045260245ffd5b5f82611aca57611aca611aa8565b500490565b634e487b7160e01b5f52603260045260245ffd5b5f60208284031215611af3575f80fd5b81518015158114610b73575f80fd5b818103818111156105f5576105f5611a7d565b5f60208284031215611b25575f80fd5b8151610b7381611912565b60ff81811683821601908111156105f5576105f5611a7d565b634e487b7160e01b5f52603160045260245ffd5b6001815b6001841115611b9857808504811115611b7c57611b7c611a7d565b6001841615611b8a57908102905b60019390931c928002611b61565b935093915050565b5f82611bae575060016105f5565b81611bba57505f6105f5565b8160018114611bd05760028114611bda57611bf6565b60019150506105f5565b60ff841115611beb57611beb611a7d565b50506001821b6105f5565b5060208310610133831016604e8410600b8410161715611c19575081810a6105f5565b611c255f198484611b5d565b805f1904821115611c3857611c38611a7d565b029392505050565b5f610b7360ff841683611ba0565b808201808211156105f5576105f5611a7d565b634e487b7160e01b5f52602160045260245ffd5b5f60ff831680611c8757611c87611aa8565b8060ff8416069150509291505056fea2646970667358221220bcaa631d3db5514630d1f1101bd80ad766fea60a5674d70b4bbb01c7b9c4544164736f6c634300081a0033",
  "linkReferences": {},
  "deployedLinkReferences": {}
}